# 17339012 - Timid Scorpion LC

## Common Data

| Field            | Value                   |
|------------------|-------------------------|
| Zone             | Xarcabard [S] (ID: 137) |
| Block Size       | 8072 bytes              |
| Total Events     | 6                       |
| References Count | 345                     |

## List of Events

| Event ID                 | Entrypoint   |   Size |   Instructions |
|--------------------------|--------------|--------|----------------|
| [65535](#event-65535)    | 0x0000       |      1 |              1 |
| [451](#event-451)        | 0x0001       |     15 |              8 |
| [455](#event-455)        | 0x0010       |      9 |              3 |
| [255](#event-255)        | 0x0019       |    257 |             70 |
| [65535.1](#event-655351) | 0x011A       |   2240 |            342 |
| [65535.2](#event-655352) | 0x09DA       |   4130 |            795 |

## DAT References (imed_data)

|   Index | Hex Value   |   Dec Value |
|---------|-------------|-------------|
|       0 | 0x1BA1      |        7073 |
|       1 | 0x0001      |           1 |
|       2 | 0x0000      |           0 |
|       3 | 0x1FC3      |        8131 |
|       4 | 0x1CAE      |        7342 |
|       5 | 0x0002      |           2 |
|       6 | 0x1CAF      |        7343 |
|       7 | 0x0003      |           3 |
|       8 | 0x1CB0      |        7344 |
|       9 | 0x1FC4      |        8132 |
|      10 | 0x1FD6      |        8150 |
|      11 | 0x1FDC      |        8156 |
|      12 | 0x000A      |          10 |
|      13 | 0x1FDD      |        8157 |
|      14 | 0x003C      |          60 |
|      15 | 0x00C8      |         200 |
|      16 | 0x0013      |          19 |
|      17 | 0x0051      |          81 |
|      18 | 0x0145      |         325 |
|      19 | 0x4C1C8     |      311752 |
|      20 | 0xFFFE4A04  |  4294855172 |
|      21 | 0xFFFF8BBF  |  4294937535 |
|      22 | 0x0226      |         550 |
|      23 | 0x4C97E     |      313726 |
|      24 | 0xFFFE3E6D  |  4294852205 |
|      25 | 0xFFFF8C77  |  4294937719 |
|      26 | 0x0B04      |        2820 |
|      27 | 0x4DBA9     |      318377 |
|      28 | 0xFFFE588A  |  4294858890 |
|      29 | 0xFFFF8CC4  |  4294937796 |
|      30 | 0x061D      |        1565 |
|      31 | 0x0052      |          82 |
|      32 | 0xFA18      |       64024 |
|      33 | 0xFFFF829E  |  4294935198 |
|      34 | 0x0214      |         532 |
|      35 | 0x0236      |         566 |
|      36 | 0xF975      |       63861 |
|      37 | 0xFFFF75F4  |  4294931956 |
|      38 | 0x0176      |         374 |
|      39 | 0x0AB0      |        2736 |
|      40 | 0x10AE5     |       68325 |
|      41 | 0xFFFF7E27  |  4294934055 |
|      42 | 0x01B4      |         436 |
|      43 | 0x07C3      |        1987 |
|      44 | 0x0053      |          83 |
|      45 | 0xFFFD0503  |  4294771971 |
|      46 | 0xFFFBBA94  |  4294687380 |
|      47 | 0xFFFF63C0  |  4294927296 |
|      48 | 0x0EE8      |        3816 |
|      49 | 0xFFFD0F95  |  4294774677 |
|      50 | 0xFFFBC167  |  4294689127 |
|      51 | 0x071A      |        1818 |
|      52 | 0xFFFD15E2  |  4294776290 |
|      53 | 0xFFFBAB94  |  4294683540 |
|      54 | 0x0A6D      |        2669 |
|      55 | 0x0054      |          84 |
|      56 | 0x32C85     |      208005 |
|      57 | 0x5A01      |       23041 |
|      58 | 0x223A      |        8762 |
|      59 | 0x05BB      |        1467 |
|      60 | 0x3212A     |      205098 |
|      61 | 0x57CF      |       22479 |
|      62 | 0x228C      |        8844 |
|      63 | 0x0F23      |        3875 |
|      64 | 0x319C6     |      203206 |
|      65 | 0x69E9      |       27113 |
|      66 | 0x2096      |        8342 |
|      67 | 0x01E1      |         481 |
|      68 | 0x00AF      |         175 |
|      69 | 0x5AF7B     |      372603 |
|      70 | 0x4DC8      |       19912 |
|      71 | 0xFFFF63C1  |  4294927297 |
|      72 | 0x0F0E      |        3854 |
|      73 | 0x5B98F     |      375183 |
|      74 | 0x5611      |       22033 |
|      75 | 0x069F      |        1695 |
|      76 | 0x5C489     |      377993 |
|      77 | 0x448C      |       17548 |
|      78 | 0x09A8      |        2472 |
|      79 | 0x0058      |          88 |
|      80 | 0xFFF74400  |  4294394880 |
|      81 | 0xD6D9      |       55001 |
|      82 | 0xA001      |       40961 |
|      83 | 0x06AF      |        1711 |
|      84 | 0xFFF73813  |  4294391827 |
|      85 | 0xD113      |       53523 |
|      86 | 0xA027      |       40999 |
|      87 | 0x0F1D      |        3869 |
|      88 | 0xFFF7520F  |  4294398479 |
|      89 | 0xC165      |       49509 |
|      90 | 0x9F4A      |       40778 |
|      91 | 0x0AA0      |        2720 |
|      92 | 0x0059      |          89 |
|      93 | 0x4CA41     |      313921 |
|      94 | 0x192E2     |      103138 |
|      95 | 0xFFFF46F6  |  4294919926 |
|      96 | 0x0848      |        2120 |
|      97 | 0x4BD76     |      310646 |
|      98 | 0x198F2     |      104690 |
|      99 | 0xFFFF4595  |  4294919573 |
|     100 | 0x00EA      |         234 |
|     101 | 0x4BCCB     |      310475 |
|     102 | 0x1798E     |       96654 |
|     103 | 0xFFFF460F  |  4294919695 |
|     104 | 0x0C07      |        3079 |
|     105 | 0x005A      |          90 |
|     106 | 0x6A9CB     |      436683 |
|     107 | 0x5ED48     |      388424 |
|     108 | 0x6113      |       24851 |
|     109 | 0x07C0      |        1984 |
|     110 | 0x69C73     |      433267 |
|     111 | 0x5E948     |      387400 |
|     112 | 0x5F77      |       24439 |
|     113 | 0x0E97      |        3735 |
|     114 | 0x6972F     |      431919 |
|     115 | 0x601AC     |      393644 |
|     116 | 0x5FD6      |       24534 |
|     117 | 0x0253      |         595 |
|     118 | 0x005B      |          91 |
|     119 | 0x3F3FF     |      259071 |
|     120 | 0x31776     |      202614 |
|     121 | 0x2167      |        8551 |
|     122 | 0x03D8      |         984 |
|     123 | 0x3F84B     |      260171 |
|     124 | 0x3096F     |      199023 |
|     125 | 0x2256      |        8790 |
|     126 | 0x0A12      |        2578 |
|     127 | 0x3E01E     |      253982 |
|     128 | 0x2FEF7     |      196343 |
|     129 | 0x202C      |        8236 |
|     130 | 0x0ECB      |        3787 |
|     131 | 0x00AB      |         171 |
|     132 | 0x3581D     |      219165 |
|     133 | 0xFFFFBBA7  |  4294949799 |
|     134 | 0xFFFF8147  |  4294934855 |
|     135 | 0x0329      |         809 |
|     136 | 0x35886     |      219270 |
|     137 | 0xFFFFB11A  |  4294947098 |
|     138 | 0xFFFF8232  |  4294935090 |
|     139 | 0x0ABA      |        2746 |
|     140 | 0x36BA6     |      224166 |
|     141 | 0xFFFFAF44  |  4294946628 |
|     142 | 0xFFFF81EC  |  4294935020 |
|     143 | 0x0825      |        2085 |
|     144 | 0x005F      |          95 |
|     145 | 0xFFFFD5F0  |  4294956528 |
|     146 | 0x4B8E7     |      309479 |
|     147 | 0xFFFFCDCD  |  4294954445 |
|     148 | 0x07D6      |        2006 |
|     149 | 0xFFFFCA87  |  4294953607 |
|     150 | 0x4B0A0     |      307360 |
|     151 | 0xFFFFCD38  |  4294954296 |
|     152 | 0x0E9B      |        3739 |
|     153 | 0xFFFFC846  |  4294953030 |
|     154 | 0x4CB3F     |      314175 |
|     155 | 0xFFFFCEE8  |  4294954728 |
|     156 | 0x02B5      |         693 |
|     157 | 0x0060      |          96 |
|     158 | 0xFFFE5B9A  |  4294859674 |
|     159 | 0x00CA      |         202 |
|     160 | 0xFFFEC795  |  4294887317 |
|     161 | 0x0F86      |        3974 |
|     162 | 0xFFFE62B9  |  4294861497 |
|     163 | 0x0622      |        1570 |
|     164 | 0xFFFEC7FB  |  4294887419 |
|     165 | 0x04F3      |        1267 |
|     166 | 0xFFFE6774  |  4294862708 |
|     167 | 0xFFFFEC16  |  4294962198 |
|     168 | 0xFFFEC7F1  |  4294887409 |
|     169 | 0x0BB2      |        2994 |
|     170 | 0x0061      |          97 |
|     171 | 0xFFFB716D  |  4294668653 |
|     172 | 0x6912E     |      430382 |
|     173 | 0x4178      |       16760 |
|     174 | 0x0781      |        1921 |
|     175 | 0xFFFB6847  |  4294666311 |
|     176 | 0x6988F     |      432271 |
|     177 | 0x4333      |       17203 |
|     178 | 0x01EC      |         492 |
|     179 | 0xFFFB6A9F  |  4294666911 |
|     180 | 0x67633     |      423475 |
|     181 | 0x4345      |       17221 |
|     182 | 0x0C58      |        3160 |
|     183 | 0x0062      |          98 |
|     184 | 0xFFFF5A78  |  4294924920 |
|     185 | 0x35A85     |      219781 |
|     186 | 0x6183      |       24963 |
|     187 | 0x0034      |          52 |
|     188 | 0xFFFF6301  |  4294927105 |
|     189 | 0x3539F     |      218015 |
|     190 | 0x6104      |       24836 |
|     191 | 0x0A83      |        2691 |
|     192 | 0xFFFF7467  |  4294931559 |
|     193 | 0x36DAD     |      224685 |
|     194 | 0x6054      |       24660 |
|     195 | 0x0730      |        1840 |
|     196 | 0x00A4      |         164 |
|     197 | 0xFFFE6ACE  |  4294863566 |
|     198 | 0x2B6FD     |      177917 |
|     199 | 0xFFFFFFB2  |  4294967218 |
|     200 | 0x0C20      |        3104 |
|     201 | 0xFFFE6C68  |  4294863976 |
|     202 | 0x2C154     |      180564 |
|     203 | 0x053B      |        1339 |
|     204 | 0xFFFE5B24  |  4294859556 |
|     205 | 0x2BD87     |      179591 |
|     206 | 0x005C      |          92 |
|     207 | 0x1FDE      |        8158 |
|     208 | 0x1FDF      |        8159 |
|     209 | 0x000F      |          15 |
|     210 | 0x0010      |          16 |
|     211 | 0x001F      |          31 |
|     212 | 0x1FEE      |        8174 |
|     213 | 0x0005      |           5 |
|     214 | 0x1FED      |        8173 |
|     215 | 0x1FEC      |        8172 |
|     216 | 0x1CB1      |        7345 |
|     217 | 0x1CB2      |        7346 |
|     218 | 0x1CB3      |        7347 |
|     219 | 0x1FE0      |        8160 |
|     220 | 0x1FE2      |        8162 |
|     221 | 0x1FE6      |        8166 |
|     222 | 0x1FE3      |        8163 |
|     223 | 0x0004      |           4 |
|     224 | 0x1FE4      |        8164 |
|     225 | 0x1FE7      |        8167 |
|     226 | 0x1FE5      |        8165 |
|     227 | 0x0006      |           6 |
|     228 | 0x1FE9      |        8169 |
|     229 | 0x0007      |           7 |
|     230 | 0x0008      |           8 |
|     231 | 0x0009      |           9 |
|     232 | 0x1FEA      |        8170 |
|     233 | 0x000B      |          11 |
|     234 | 0x000C      |          12 |
|     235 | 0x000D      |          13 |
|     236 | 0x1FE8      |        8168 |
|     237 | 0x0011      |          17 |
|     238 | 0x0012      |          18 |
|     239 | 0x000E      |          14 |
|     240 | 0x1FEB      |        8171 |
|     241 | 0x0014      |          20 |
|     242 | 0x0015      |          21 |
|     243 | 0x0016      |          22 |
|     244 | 0x1FE1      |        8161 |
|     245 | 0x1BAE      |        7086 |
|     246 | 0x1BAF      |        7087 |
|     247 | 0x1BB0      |        7088 |
|     248 | 0x1BB1      |        7089 |
|     249 | 0x7E9C3925  |  2124167461 |
|     250 | 0x41808A    |     4292746 |
|     251 | 0x1224650   |    19023440 |
|     252 | 0x1BB2      |        7090 |
|     253 | 0x1BB8      |        7096 |
|     254 | 0x1BE0      |        7136 |
|     255 | 0x006F      |         111 |
|     256 | 0x1BB5      |        7093 |
|     257 | 0x1BB7      |        7095 |
|     258 | 0x01E3      |         483 |
|     259 | 0x0104      |         260 |
|     260 | 0x0020      |          32 |
|     261 | 0x0019      |          25 |
|     262 | 0x001B      |          27 |
|     263 | 0x001C      |          28 |
|     264 | 0x001D      |          29 |
|     265 | 0x001E      |          30 |
|     266 | 0xFFFFFFFF  |  4294967295 |
|     267 | 0x1BD5      |        7125 |
|     268 | 0x002D      |          45 |
|     269 | 0x1BD6      |        7126 |
|     270 | 0x1017      |        4119 |
|     271 | 0x1027      |        4135 |
|     272 | 0x1056      |        4182 |
|     273 | 0x1072      |        4210 |
|     274 | 0x1509      |        5385 |
|     275 | 0x150B      |        5387 |
|     276 | 0x150D      |        5389 |
|     277 | 0x150A      |        5386 |
|     278 | 0x150C      |        5388 |
|     279 | 0x1515      |        5397 |
|     280 | 0x1512      |        5394 |
|     281 | 0x1514      |        5396 |
|     282 | 0x147E      |        5246 |
|     283 | 0x152B      |        5419 |
|     284 | 0x152E      |        5422 |
|     285 | 0x152C      |        5420 |
|     286 | 0x152D      |        5421 |
|     287 | 0x101B      |        4123 |
|     288 | 0x102B      |        4139 |
|     289 | 0x106E      |        4206 |
|     290 | 0x150F      |        5391 |
|     291 | 0x1511      |        5393 |
|     292 | 0x1510      |        5392 |
|     293 | 0x1031      |        4145 |
|     294 | 0x106A      |        4202 |
|     295 | 0x1033      |        4147 |
|     296 | 0x1068      |        4200 |
|     297 | 0x153A      |        5434 |
|     298 | 0x1513      |        5395 |
|     299 | 0x153B      |        5435 |
|     300 | 0x153F      |        5439 |
|     301 | 0x1BD7      |        7127 |
|     302 | 0x1BD8      |        7128 |
|     303 | 0x1BD9      |        7129 |
|     304 | 0x0017      |          23 |
|     305 | 0x0018      |          24 |
|     306 | 0x1BE7      |        7143 |
|     307 | 0x006D      |         109 |
|     308 | 0x1D96      |        7574 |
|     309 | 0x1D97      |        7575 |
|     310 | 0x1BE8      |        7144 |
|     311 | 0x006A      |         106 |
|     312 | 0x0032      |          50 |
|     313 | 0x111110    |     1118480 |
|     314 | 0x1D9D      |        7581 |
|     315 | 0x1D99      |        7577 |
|     316 | 0x0065      |         101 |
|     317 | 0x0066      |         102 |
|     318 | 0x0067      |         103 |
|     319 | 0x0068      |         104 |
|     320 | 0x0069      |         105 |
|     321 | 0x1BC7      |        7111 |
|     322 | 0x1BA9      |        7081 |
|     323 | 0x1BC8      |        7112 |
|     324 | 0x1BC9      |        7113 |
|     325 | 0x010A      |         266 |
|     326 | 0x1BB3      |        7091 |
|     327 | 0x1BB9      |        7097 |
|     328 | 0x1BBA      |        7098 |
|     329 | 0x1BBB      |        7099 |
|     330 | 0x1BBC      |        7100 |
|     331 | 0x1BBD      |        7101 |
|     332 | 0x1BC6      |        7110 |
|     333 | 0x1BBE      |        7102 |
|     334 | 0x1BBF      |        7103 |
|     335 | 0x1BC0      |        7104 |
|     336 | 0x1BC1      |        7105 |
|     337 | 0x1BC2      |        7106 |
|     338 | 0x1BC3      |        7107 |
|     339 | 0x1BC4      |        7108 |
|     340 | 0x1BE1      |        7137 |
|     341 | 0x1BE2      |        7138 |
|     342 | 0x1BE3      |        7139 |
|     343 | 0x1BE4      |        7140 |
|     344 | 0x1BE5      |        7141 |

## String References

- **7073**: What are you doing here? This is no place for civilians.
- **7081**: I am sorry. You do not have enough Allied Notes.
- **7086**: Greetings. I am % of the San d'Orian Provincial Knights.
- **7087**: Greetings. I am % of the Bastokan Legion.
- **7088**: Greetings. I am % of the Federation of Windurst.
- **7089**: Greetings. I am %, Campaign Arbiter for the Allied Forces.
- **7090**: What can I help you with? [Nothing./Performance assessment./New Allied Tags./Temporary items./Union registration./Teleportation./Information on the Allied Campaign.]
- **7091**: What would you like to know? [Nothing. I'm sorry./About performance assessment./About Allied Tags./About temporary items./About Unions.]
- **7093**: Understood. I shall now judge your performance and award the proper remuneration.
- **7095**: Understood. I shall prepare a new set of tags for you now.
- **7096**: You've already undergone an evaluation for this battle, or had you forgotten? As much as I'd like to, I'm forbidden from providing you with a new set of Allied Taegs until the next battle begins.
- **7097**: Anyone wearing Allied Tags while participating in a campaign battle will be judged on their overall performance.
- **7098**: Soldiers will be evaluated not only on their fighting skills, but also on how much they contribute to the efforts of their allies through means such as healing and enhancing.
- **7099**: However, beware that if you leave the area before being assessed, you will be deemed a deserter and will forfeit all rewards earned that day.
- **7100**: Also, while there are no immediate penalties for being knocked out, falling in battle will significantly lower the score given to you.
- **7101**: When you are ready to receive compensation for your work on the field, return to me and I shall assess your performance and provide you with your payment.
- **7102**: Allied Tags are a special type of identification given to all participants of Allied Campaign battles.
- **7103**: There are benefits, as well as drawbacks, to wearing the tags. One of the benefits is that in the case you are knocked out on the battlefield, you will not lose any experience points.
- **7104**: However, some of the drawbacks include the inability to improve skills and earn experience points for individual kills, as well as the right to loot fallen enemies.
- **7105**: Temporary items can be purchased in exchange for Allied Notes.
- **7106**: There are several different varieties of items, but they all have one thing in common--they can only be used on the battlefield they were issued.
- **7107**: It is highly recommended that you first survey a battle's conditions and then select the supplies that you believe will benefit you most.
- **7108**: Please remember that all temporary items you carry on your person will be confiscated in the event that you leave the area.
- **7110**: That is all.
- **7111**: I will require a teleportation fee of $0 Allied Note[/s]. I see you currently possess $2.
- **7112**: Complete transaction and return to capital? [Yes./No.]
- **7113**: Understood. Good work today, <Player>.
- **7125**: Let me show you the list of items currently available to you.
- **7126**: Select a category: [Quit./$0-Note Items./$1-Note Items./$2-Note Items.]
- **7127**: Which item would you like to see? [Quit./$0/$1/$2/$3/$4/$5/$6/$7/$8/$9/$10/$11/$12/$13/$14/$15/$16]
- **7128**: You currently possess $' Allied Note[/s].
- **7129**: Proceed with the transaction? [Yes./No.]
- **7136**: I am sorry, <Player>, but your campaign medal has expired. I cannot issue tags to anyone not authorized by the Allied Forces. Return to your nation's capital and speak with a Campaign Evaluation Official.
- **7137**: Oh ho! Keen to join a Union, are we? Very well. Listen up and I shall tell you all you need to know.
- **7138**: In order to better coordinate Allied efforts against the beastman menace, we have instituted a system of ad hoc tactical regiments called "Unions." With five units to a battlefield, union registration is open to any proven soldier in possession of Allied Tags.
- **7139**: In return for their aid in advancing the war effort, union registrants will be eligible to earn a share of the spoils of war.
- **7140**: Needless to say, the choicest rewards will be reserved for those unions which make the greatest contributions in combat. Prove your mettle on the field of battle, and you will earn glory for your union, as well as a sizable bounty of your own.
- **7141**: Be forewarned that your commitment to your union comes first and foremost. In the aftermath of battle, you will not be permitted to reap rewards from your individual exploits until your union has distributed its plunder.
- **7143**: Register for a union? [Yes./No.]
- **7144**: [Transfer/Resign] from your current union? [Yes./No.]
- **7342**: Good show on your last operation. Now go make an official report to Sir Rasdinice.
- **7343**: Good work on that last operation. Now report back to First Centurion Hieronymus before he has your hide!
- **7344**: Nice job on your last operation. Now don't forget to report back to Emhi Tchaoryo!
- **7345**: It seems that you were not successful in your last operation. But do not let one small failure hang heavy on your soul. Report to Sir Rasdinice and put this all behind you.
- **7346**: Weren't so lucky during that last operation, were you? Well, don't worry about it too much. Report to First Centurion Hieronymus and get some rest, soldier.
- **7347**: Hmmm... Didn't do so well on that last operation, did you? I know it's hard, but it's better if you're up-front about these things. If you know what's good for you, you'll hurry down and report to Emhi Tchaoryo before the major finds out first.
- **7574**: What will you do? [Nothing./Transfer to another union./Resign union membership.]
- **7575**: Your steadfast efforts have earned you a claim to share in your union's spoils of war. By [transferring to another union/resigning from your union], you will relinquish this right. It is not my place to question your decision, but I suggest you pay the matter due heed.
- **7577**: Register for which union? [None./Adder Union ($0 [member/members])./Bison Union ($1 [member/members])./Coyote Union ($2 [member/members])./Dhole Union ($3 [member/members])./Eland Union ($4 [member/members]).]
- **7581**: I am afraid that all unions are currently at their maximum enrollment, and unable to accept new recruits. For better or for worse, though, I suspect it shall not be long before we are in need of some new blood. Such is the nature of war...
- **8131**: Good work, <Player>. You have done a great service for your nation.
- **8132**: What is this!? These supplies are in terrible condition! I'll have to request headquarters for another shipment...
- **8150**: Welcome, <Player>.
- **8156**: What's this? Whatever power was in this is long gone. No, this won't do at all.
- **8157**: Ahhh, so you're military tactician who who drew up the plans for this latest supply mission. Why don't we ask one of the men how its going, shall we?

## Events

### Event 65535

#### Metadata

| Field        | Value   |
|--------------|---------|
| Entrypoint   | 0x0000  |
| Data Size    | 1 bytes |
| Instructions | 1       |

```
      00 01 02 03 04 05 06 07  08 09 0A 0B 0C 0D 0E 0F
      -- -- -- -- -- -- -- --  -- -- -- -- -- -- -- --
0000: 00                                                .               
```

#### Opcodes

```
  0: 0x0000 [0x00] END_REQSTACK()
```

### Event 451

#### Metadata

| Field        | Value    |
|--------------|----------|
| Entrypoint   | 0x0001   |
| Data Size    | 15 bytes |
| Instructions | 8        |

```
      00 01 02 03 04 05 06 07  08 09 0A 0B 0C 0D 0E 0F
      -- -- -- -- -- -- -- --  -- -- -- -- -- -- -- --
0000:    20 01 1E F0 FF FF 7F  6F 70 1D 00 80 23 21 00    ......op...#!.
```

#### Opcodes

```
  0: 0x0001 [0x20] SET_CLI_EVENT_UC_FLAG: Lock player control
  1: 0x0003 [0x1E] EventEntity looks at LocalPlayer and starts talking
  2: 0x0008 [0x6F] WAIT_FRAME_DELAY: Yield until WaitTime reaches zero
  3: 0x0009 [0x70] WAIT_ENTITY_RENDER_FLAG: Wait while EventEntity->Render.Flags3 bit 2 is set (cancel turn if not)
  4: 0x000A [0x1D] PRINT_EVENT_MESSAGE(message_id=7073*)
    → "What are you doing here? This is no place for civilians."
  5: 0x000D [0x23] WAIT_FOR_DIALOG_INTERACTION
  6: 0x000E [0x21] END_EVENT
  7: 0x000F [0x00] END_REQSTACK()
```

### Event 455

#### Metadata

| Field        | Value   |
|--------------|---------|
| Entrypoint   | 0x0010  |
| Data Size    | 9 bytes |
| Instructions | 3       |

```
      00 01 02 03 04 05 06 07  08 09 0A 0B 0C 0D 0E 0F
      -- -- -- -- -- -- -- --  -- -- -- -- -- -- -- --
0010: 03 0E 00 01 80 1A DB 09  00                       .........       
```

#### Opcodes

```
  0: 0x0010 [0x03] ExtData[1]->WorkLocal[14] = 1*
  1: 0x0015 [0x1A] CALL_SUBROUTINE(address=0x09DB)
  2: 0x0018 [0x00] END_REQSTACK()
```

### Event 255

#### Metadata

| Field        | Value     |
|--------------|-----------|
| Entrypoint   | 0x0019    |
| Data Size    | 257 bytes |
| Instructions | 70        |

```
      00 01 02 03 04 05 06 07  08 09 0A 0B 0C 0D 0E 0F
      -- -- -- -- -- -- -- --  -- -- -- -- -- -- -- --
0010:                             20 01 42 1E F0 FF FF            .B....
0020: 7F 6F 70 03 01 10 02 80  02 02 10 01 80 80 78 00  .op...........x.
0030: 02 03 10 02 80 00 71 00  1D 03 80 23 02 04 10 01  ......q....#....
0040: 80 80 4B 00 1D 04 80 23  01 69 00 02 04 10 05 80  ..K....#.i......
0050: 80 5A 00 1D 06 80 23 01  69 00 02 04 10 07 80 80  .Z....#.i.......
0060: 69 00 1D 08 80 23 01 69  00 03 01 10 01 80 01 75  i....#.i.......u
0070: 00 1D 09 80 23 01 16 01  02 02 10 05 80 80 C6 00  ....#...........
0080: 1D 0A 80 23 03 01 10 07  80 02 05 10 01 80 00 C3  ...#............
0090: 00 02 04 10 01 80 80 A0  00 1D 04 80 23 01 BE 00  ............#...
00A0: 02 04 10 05 80 80 AF 00  1D 06 80 23 01 BE 00 02  ...........#....
00B0: 04 10 07 80 80 BE 00 1D  08 80 23 01 BE 00 03 01  ..........#.....
00C0: 10 05 80 01 16 01 02 02  10 07 80 80 16 01 1D 03  ................
00D0: 80 23 02 03 10 01 80 00  E1 00 1D 0B 80 23 01 0E  .#...........#..
00E0: 01 02 04 10 01 80 80 F0  00 1D 04 80 23 01 0E 01  ............#...
00F0: 02 04 10 05 80 80 FF 00  1D 06 80 23 01 0E 01 02  ...........#....
0100: 04 10 07 80 80 0E 01 1D  08 80 23 01 0E 01 03 01  ..........#.....
0110: 10 0C 80 01 16 01 20 00  21 00                    ...... .!.      
```

#### Opcodes

```
  0: 0x0019 [0x20] SET_CLI_EVENT_UC_FLAG: Lock player control
  1: 0x001B [0x42] SET_CLI_EVENT_CANCEL_DATA()
  2: 0x001C [0x1E] EventEntity looks at LocalPlayer and starts talking
  3: 0x0021 [0x6F] WAIT_FRAME_DELAY: Yield until WaitTime reaches zero
  4: 0x0022 [0x70] WAIT_ENTITY_RENDER_FLAG: Wait while EventEntity->Render.Flags3 bit 2 is set (cancel turn if not)
  5: 0x0023 [0x03] Work_Zone[1] = 0*
  6: 0x0028 [0x02] IF !(Work_Zone[2] == 1*) GOTO 0x0078
  7: 0x0030 [0x02] IF !(Work_Zone[3] == 0*) GOTO 0x0071
  8: 0x0038 [0x1D] PRINT_EVENT_MESSAGE(message_id=8131*)
    → "Good work, <Player>. You have done a great service for your nation."
  9: 0x003B [0x23] WAIT_FOR_DIALOG_INTERACTION
 10: 0x003C [0x02] IF !(Work_Zone[4] == 1*) GOTO 0x004B
 11: 0x0044 [0x1D] PRINT_EVENT_MESSAGE(message_id=7342*)
    → "Good show on your last operation. Now go make an official report to Sir Rasdinice."
 12: 0x0047 [0x23] WAIT_FOR_DIALOG_INTERACTION
 13: 0x0048 [0x01] GOTO 0x0069
 14: 0x004B [0x02] IF !(Work_Zone[4] == 2*) GOTO 0x005A
 15: 0x0053 [0x1D] PRINT_EVENT_MESSAGE(message_id=7343*)
    → "Good work on that last operation. Now report back to First Centurion Hieronymus before he has your hide!"
 16: 0x0056 [0x23] WAIT_FOR_DIALOG_INTERACTION
 17: 0x0057 [0x01] GOTO 0x0069
 18: 0x005A [0x02] IF !(Work_Zone[4] == 3*) GOTO 0x0069
 19: 0x0062 [0x1D] PRINT_EVENT_MESSAGE(message_id=7344*)
    → "Nice job on your last operation. Now don't forget to report back to Emhi Tchaoryo!"
 20: 0x0065 [0x23] WAIT_FOR_DIALOG_INTERACTION
 21: 0x0066 [0x01] GOTO 0x0069

SUBROUTINE_0069:
 22: 0x0069 [0x03] Work_Zone[1] = 1*
 23: 0x006E [0x01] GOTO 0x0075
 24: 0x0071 [0x1D] PRINT_EVENT_MESSAGE(message_id=8132*)
    → "What is this!? These supplies are in terrible condition! I'll have to request headquarters for another shipment..."
 25: 0x0074 [0x23] WAIT_FOR_DIALOG_INTERACTION

SUBROUTINE_0075:
 26: 0x0075 [0x01] GOTO 0x0116
 27: 0x0078 [0x02] IF !(Work_Zone[2] == 2*) GOTO 0x00C6
 28: 0x0080 [0x1D] PRINT_EVENT_MESSAGE(message_id=8150*)
    → "Welcome, <Player>."
 29: 0x0083 [0x23] WAIT_FOR_DIALOG_INTERACTION
 30: 0x0084 [0x03] Work_Zone[1] = 3*
 31: 0x0089 [0x02] IF !(Work_Zone[5] == 1*) GOTO 0x00C3
 32: 0x0091 [0x02] IF !(Work_Zone[4] == 1*) GOTO 0x00A0
 33: 0x0099 [0x1D] PRINT_EVENT_MESSAGE(message_id=7342*)
    → "Good show on your last operation. Now go make an official report to Sir Rasdinice."
 34: 0x009C [0x23] WAIT_FOR_DIALOG_INTERACTION
 35: 0x009D [0x01] GOTO 0x00BE
 36: 0x00A0 [0x02] IF !(Work_Zone[4] == 2*) GOTO 0x00AF
 37: 0x00A8 [0x1D] PRINT_EVENT_MESSAGE(message_id=7343*)
    → "Good work on that last operation. Now report back to First Centurion Hieronymus before he has your hide!"
 38: 0x00AB [0x23] WAIT_FOR_DIALOG_INTERACTION
 39: 0x00AC [0x01] GOTO 0x00BE
 40: 0x00AF [0x02] IF !(Work_Zone[4] == 3*) GOTO 0x00BE
 41: 0x00B7 [0x1D] PRINT_EVENT_MESSAGE(message_id=7344*)
    → "Nice job on your last operation. Now don't forget to report back to Emhi Tchaoryo!"
 42: 0x00BA [0x23] WAIT_FOR_DIALOG_INTERACTION
 43: 0x00BB [0x01] GOTO 0x00BE

SUBROUTINE_00BE:
 44: 0x00BE [0x03] Work_Zone[1] = 2*
 45: 0x00C3 [0x01] GOTO 0x0116
 46: 0x00C6 [0x02] IF !(Work_Zone[2] == 3*) GOTO 0x0116
 47: 0x00CE [0x1D] PRINT_EVENT_MESSAGE(message_id=8131*)
    → "Good work, <Player>. You have done a great service for your nation."
 48: 0x00D1 [0x23] WAIT_FOR_DIALOG_INTERACTION
 49: 0x00D2 [0x02] IF !(Work_Zone[3] == 1*) GOTO 0x00E1
 50: 0x00DA [0x1D] PRINT_EVENT_MESSAGE(message_id=8156*)
    → "What's this? Whatever power was in this is long gone. No, this won't do at all."
 51: 0x00DD [0x23] WAIT_FOR_DIALOG_INTERACTION
 52: 0x00DE [0x01] GOTO 0x010E
 53: 0x00E1 [0x02] IF !(Work_Zone[4] == 1*) GOTO 0x00F0
 54: 0x00E9 [0x1D] PRINT_EVENT_MESSAGE(message_id=7342*)
    → "Good show on your last operation. Now go make an official report to Sir Rasdinice."
 55: 0x00EC [0x23] WAIT_FOR_DIALOG_INTERACTION
 56: 0x00ED [0x01] GOTO 0x010E
 57: 0x00F0 [0x02] IF !(Work_Zone[4] == 2*) GOTO 0x00FF
 58: 0x00F8 [0x1D] PRINT_EVENT_MESSAGE(message_id=7343*)
    → "Good work on that last operation. Now report back to First Centurion Hieronymus before he has your hide!"
 59: 0x00FB [0x23] WAIT_FOR_DIALOG_INTERACTION
 60: 0x00FC [0x01] GOTO 0x010E
 61: 0x00FF [0x02] IF !(Work_Zone[4] == 3*) GOTO 0x010E
 62: 0x0107 [0x1D] PRINT_EVENT_MESSAGE(message_id=7344*)
    → "Nice job on your last operation. Now don't forget to report back to Emhi Tchaoryo!"
 63: 0x010A [0x23] WAIT_FOR_DIALOG_INTERACTION
 64: 0x010B [0x01] GOTO 0x010E

SUBROUTINE_010E:
 65: 0x010E [0x03] Work_Zone[1] = 10*
 66: 0x0113 [0x01] GOTO 0x0116

SUBROUTINE_0116:
 67: 0x0116 [0x20] SET_CLI_EVENT_UC_FLAG: Unlock player control
 68: 0x0118 [0x21] END_EVENT
 69: 0x0119 [0x00] END_REQSTACK()
```

### Event 65535.1

#### Metadata

| Field        | Value      |
|--------------|------------|
| Entrypoint   | 0x011A     |
| Data Size    | 2240 bytes |
| Instructions | 342        |

```
      00 01 02 03 04 05 06 07  08 09 0A 0B 0C 0D 0E 0F
      -- -- -- -- -- -- -- --  -- -- -- -- -- -- -- --
0110:                                03 00 00 01 80 20            ..... 
0120: 01 42 1E F0 FF FF 7F 6F  70 03 03 00 03 10 03 04  .B.....op.......
0130: 00 04 10 03 05 00 05 10  03 0C 00 09 10 1D 0D 80  ................
0140: 23 1C 0E 80 45 0F 80 F0  FF FF 7F F0 FF FF 7F 66  #...E..........f
0150: 64 6F 31 02 80 55 0F 80  F0 FF FF 7F F0 FF FF 7F  do1..U..........
0160: 66 64 6F 31 46 01 38 10  80 4E 00 F8 FF FF 7F 92  fdo1F.8..N......
0170: 01 F0 FF FF 7F 92 01 F8  FF FF 7F 92 01 23 93 08  .............#..
0180: 01 02 0C 00 11 80 80 C4  01 45 12 80 F0 FF FF 7F  .........E......
0190: F0 FF FF 7F 7A 38 31 62  02 80 BA F8 FF FF 7F 13  ....z81b........
01A0: 80 14 80 15 80 16 80 BA  F0 FF FF 7F 17 80 18 80  ................
01B0: 19 80 1A 80 BA 23 93 08  01 1B 80 1C 80 1D 80 1E  .....#..........
01C0: 80 01 6E 05 02 0C 00 1F  80 80 07 02 45 12 80 F0  ..n.........E...
01D0: FF FF 7F F0 FF FF 7F 7A  38 32 62 02 80 BA F8 FF  .......z82b.....
01E0: FF 7F 20 80 21 80 22 80  23 80 BA F0 FF FF 7F 24  .. .!.".#......$
01F0: 80 25 80 26 80 27 80 BA  23 93 08 01 28 80 29 80  .%.&.'..#...(.).
0200: 2A 80 2B 80 01 6E 05 02  0C 00 2C 80 80 4A 02 45  *.+..n....,..J.E
0210: 12 80 F0 FF FF 7F F0 FF  FF 7F 7A 38 33 62 02 80  ..........z83b..
0220: BA F8 FF FF 7F 2D 80 2E  80 2F 80 30 80 BA F0 FF  .....-.../.0....
0230: FF 7F 31 80 32 80 2F 80  33 80 BA 23 93 08 01 34  ..1.2./.3..#...4
0240: 80 35 80 2F 80 36 80 01  6E 05 02 0C 00 37 80 80  .5./.6..n....7..
0250: 8D 02 45 12 80 F0 FF FF  7F F0 FF FF 7F 7A 38 34  ..E..........z84
0260: 62 02 80 BA F8 FF FF 7F  38 80 39 80 3A 80 3B 80  b.......8.9.:.;.
0270: BA F0 FF FF 7F 3C 80 3D  80 3E 80 3F 80 BA 23 93  .....<.=.>.?..#.
0280: 08 01 40 80 41 80 42 80  43 80 01 6E 05 02 0C 00  ..@.A.B.C..n....
0290: 44 80 80 D0 02 45 12 80  F0 FF FF 7F F0 FF FF 7F  D....E..........
02A0: 31 37 35 61 02 80 BA F8  FF FF 7F 45 80 46 80 47  175a.......E.F.G
02B0: 80 48 80 BA F0 FF FF 7F  49 80 4A 80 47 80 4B 80  .H......I.J.G.K.
02C0: BA 23 93 08 01 4C 80 4D  80 47 80 4E 80 01 6E 05  .#...L.M.G.N..n.
02D0: 02 0C 00 4F 80 80 13 03  45 12 80 F0 FF FF 7F F0  ...O....E.......
02E0: FF FF 7F 7A 38 38 62 02  80 BA F8 FF FF 7F 50 80  ...z88b.......P.
02F0: 51 80 52 80 53 80 BA F0  FF FF 7F 54 80 55 80 56  Q.R.S......T.U.V
0300: 80 57 80 BA 23 93 08 01  58 80 59 80 5A 80 5B 80  .W..#...X.Y.Z.[.
0310: 01 6E 05 02 0C 00 5C 80  80 56 03 45 12 80 F0 FF  .n....\..V.E....
0320: FF 7F F0 FF FF 7F 7A 38  39 62 02 80 BA F8 FF FF  ......z89b......
0330: 7F 5D 80 5E 80 5F 80 60  80 BA F0 FF FF 7F 61 80  .].^._.`......a.
0340: 62 80 63 80 64 80 BA 23  93 08 01 65 80 66 80 67  b.c.d..#...e.f.g
0350: 80 68 80 01 6E 05 02 0C  00 69 80 80 99 03 45 12  .h..n....i....E.
0360: 80 F0 FF FF 7F F0 FF FF  7F 7A 39 30 62 02 80 BA  .........z90b...
0370: F8 FF FF 7F 6A 80 6B 80  6C 80 6D 80 BA F0 FF FF  ....j.k.l.m.....
0380: 7F 6E 80 6F 80 70 80 71  80 BA 23 93 08 01 72 80  .n.o.p.q..#...r.
0390: 73 80 74 80 75 80 01 6E  05 02 0C 00 76 80 80 DC  s.t.u..n....v...
03A0: 03 45 12 80 F0 FF FF 7F  F0 FF FF 7F 7A 39 31 62  .E..........z91b
03B0: 02 80 BA F8 FF FF 7F 77  80 78 80 79 80 7A 80 BA  .......w.x.y.z..
03C0: F0 FF FF 7F 7B 80 7C 80  7D 80 7E 80 BA 23 93 08  ....{.|.}.~..#..
03D0: 01 7F 80 80 80 81 80 82  80 01 6E 05 02 0C 00 83  ..........n.....
03E0: 80 80 1F 04 45 12 80 F0  FF FF 7F F0 FF FF 7F 31  ....E..........1
03F0: 37 31 61 02 80 BA F8 FF  FF 7F 84 80 85 80 86 80  71a.............
0400: 87 80 BA F0 FF FF 7F 88  80 89 80 8A 80 8B 80 BA  ................
0410: 23 93 08 01 8C 80 8D 80  8E 80 8F 80 01 6E 05 02  #............n..
0420: 0C 00 90 80 80 62 04 45  12 80 F0 FF FF 7F F0 FF  .....b.E........
0430: FF 7F 7A 39 35 62 02 80  BA F8 FF FF 7F 91 80 92  ..z95b..........
0440: 80 93 80 94 80 BA F0 FF  FF 7F 95 80 96 80 97 80  ................
0450: 98 80 BA 23 93 08 01 99  80 9A 80 9B 80 9C 80 01  ...#............
0460: 6E 05 02 0C 00 9D 80 80  A5 04 45 12 80 F0 FF FF  n.........E.....
0470: 7F F0 FF FF 7F 7A 39 36  62 02 80 BA F8 FF FF 7F  .....z96b.......
0480: 9E 80 9F 80 A0 80 A1 80  BA F0 FF FF 7F A2 80 A3  ................
0490: 80 A4 80 A5 80 BA 23 93  08 01 A6 80 A7 80 A8 80  ......#.........
04A0: A9 80 01 6E 05 02 0C 00  AA 80 80 E8 04 45 12 80  ...n.........E..
04B0: F0 FF FF 7F F0 FF FF 7F  7A 39 37 62 02 80 BA F8  ........z97b....
04C0: FF FF 7F AB 80 AC 80 AD  80 AE 80 BA F0 FF FF 7F  ................
04D0: AF 80 B0 80 B1 80 B2 80  BA 23 93 08 01 B3 80 B4  .........#......
04E0: 80 B5 80 B6 80 01 6E 05  02 0C 00 B7 80 80 2B 05  ......n.......+.
04F0: 45 12 80 F0 FF FF 7F F0  FF FF 7F 7A 39 38 62 02  E..........z98b.
0500: 80 BA F8 FF FF 7F B8 80  B9 80 BA 80 BB 80 BA F0  ................
0510: FF FF 7F BC 80 BD 80 BE  80 BF 80 BA 23 93 08 01  ............#...
0520: C0 80 C1 80 C2 80 C3 80  01 6E 05 02 0C 00 C4 80  .........n......
0530: 80 6E 05 45 12 80 F0 FF  FF 7F F0 FF FF 7F 31 36  .n.E..........16
0540: 34 61 02 80 BA F8 FF FF  7F C5 80 C6 80 C7 80 C8  4a..............
0550: 80 BA F0 FF FF 7F C9 80  CA 80 C7 80 CB 80 BA 23  ...............#
0560: 93 08 01 CC 80 CD 80 C7  80 CE 80 01 6E 05 94 01  ............n...
0570: F0 FF FF 7F 94 01 F8 FF  FF 7F 94 01 23 93 08 01  ............#...
0580: 80 F0 FF FF 7F 80 F8 FF  FF 7F 80 23 93 08 01 1C  ...........#....
0590: 01 80 1E F0 FF FF 7F 4A  F0 FF FF 7F F8 FF FF 7F  .......J........
05A0: 45 0F 80 F0 FF FF 7F F0  FF FF 7F 66 64 69 31 02  E..........fdi1.
05B0: 80 55 0F 80 F0 FF FF 7F  F0 FF FF 7F 66 64 69 31  .U..........fdi1
05C0: 1E 23 93 08 01 4A F0 FF  FF 7F 23 93 08 01 29 10  .#...J....#...).
05D0: 23 93 08 01 04 2B 23 93  08 01 CF 80 23 2B 23 93  #....+#.....#+#.
05E0: 08 01 D0 80 23 41 02 80  D1 80 03 00 01 00 41 D2  ....#A........A.
05F0: 80 D3 80 03 00 02 00 02  01 00 02 80 01 02 06 1A  ................
0600: 33 07 02 02 00 02 80 01  27 06 41 02 80 D1 80 04  3.......'.A.....
0610: 00 01 00 41 D2 80 D3 80  04 00 02 00 02 01 00 02  ...A............
0620: 80 01 27 06 1A 33 07 02  02 00 02 80 01 4C 06 41  ..'..3.......L.A
0630: 02 80 D1 80 05 00 01 00  41 D2 80 D3 80 05 00 02  ........A.......
0640: 00 02 01 00 02 80 01 4C  06 1A 33 07 02 02 00 02  .......L..3.....
0650: 80 01 82 06 02 02 00 07  80 03 67 06 2B 23 93 08  ..........g.+#..
0660: 01 D4 80 23 01 82 06 02  02 00 D5 80 03 7A 06 2B  ...#.........z.+
0670: 23 93 08 01 D6 80 23 01  82 06 2B 23 93 08 01 D7  #.....#...+#....
0680: 80 23 1E F0 FF FF 7F 6F  70 02 02 00 02 80 00 C1  .#.....op.......
0690: 06 02 00 00 02 80 80 A0  06 1D D8 80 23 01 BE 06  ............#...
06A0: 02 00 00 01 80 80 AF 06  1D D9 80 23 01 BE 06 02  ...........#....
06B0: 00 00 05 80 80 BE 06 1D  DA 80 23 01 BE 06 01 EE  ..........#.....
06C0: 06 02 00 00 02 80 80 D0  06 1D 04 80 23 01 EE 06  ............#...
06D0: 02 00 00 01 80 80 DF 06  1D 06 80 23 01 EE 06 02  ...........#....
06E0: 00 00 05 80 80 EE 06 1D  08 80 23 01 EE 06 45 0F  ..........#...E.
06F0: 80 F0 FF FF 7F F0 FF FF  7F 66 64 6F 31 02 80 55  .........fdo1..U
0700: 0F 80 F0 FF FF 7F F0 FF  FF 7F 66 64 6F 31 4E 01  ..........fdo1N.
0710: 23 93 08 01 1C D1 80 46  00 45 0F 80 F0 FF FF 7F  #......F.E......
0720: F0 FF FF 7F 66 64 69 32  02 80 03 01 10 02 80 20  ....fdi2....... 
0730: 00 21 00 02 01 00 01 80  80 46 07 2B 23 93 08 01  .!.......F.+#...
0740: DB 80 23 01 D9 09 02 01  00 05 80 80 66 07 03 02  ..#.........f...
0750: 10 02 80 2B 23 93 08 01  DC 80 23 2B 23 93 08 01  ...+#.....#+#...
0760: DD 80 23 01 D9 09 02 01  00 07 80 80 86 07 03 02  ..#.............
0770: 10 02 80 2B 23 93 08 01  DE 80 23 2B 23 93 08 01  ...+#.....#+#...
0780: DD 80 23 01 D9 09 02 01  00 DF 80 80 A6 07 03 02  ..#.............
0790: 10 02 80 2B 23 93 08 01  E0 80 23 2B 23 93 08 01  ...+#.....#+#...
07A0: E1 80 23 01 D9 09 02 01  00 D5 80 80 C6 07 03 02  ..#.............
07B0: 10 02 80 2B 23 93 08 01  E2 80 23 2B 23 93 08 01  ...+#.....#+#...
07C0: DD 80 23 01 D9 09 02 01  00 E3 80 80 E6 07 03 02  ..#.............
07D0: 10 01 80 2B 23 93 08 01  DC 80 23 2B 23 93 08 01  ...+#.....#+#...
07E0: E4 80 23 01 D9 09 02 01  00 E5 80 80 06 08 03 02  ..#.............
07F0: 10 01 80 2B 23 93 08 01  DE 80 23 2B 23 93 08 01  ...+#.....#+#...
0800: E4 80 23 01 D9 09 02 01  00 E6 80 80 26 08 03 02  ..#.........&...
0810: 10 01 80 2B 23 93 08 01  E0 80 23 2B 23 93 08 01  ...+#.....#+#...
0820: E4 80 23 01 D9 09 02 01  00 E7 80 80 46 08 03 02  ..#.........F...
0830: 10 01 80 2B 23 93 08 01  E2 80 23 2B 23 93 08 01  ...+#.....#+#...
0840: E4 80 23 01 D9 09 02 01  00 0C 80 80 66 08 03 02  ..#.........f...
0850: 10 01 80 2B 23 93 08 01  DC 80 23 2B 23 93 08 01  ...+#.....#+#...
0860: E8 80 23 01 D9 09 02 01  00 E9 80 80 86 08 03 02  ..#.............
0870: 10 01 80 2B 23 93 08 01  DE 80 23 2B 23 93 08 01  ...+#.....#+#...
0880: E8 80 23 01 D9 09 02 01  00 EA 80 80 A6 08 03 02  ..#.............
0890: 10 01 80 2B 23 93 08 01  E0 80 23 2B 23 93 08 01  ...+#.....#+#...
08A0: E8 80 23 01 D9 09 02 01  00 EB 80 80 C6 08 03 02  ..#.............
08B0: 10 01 80 2B 23 93 08 01  E2 80 23 2B 23 93 08 01  ...+#.....#+#...
08C0: E8 80 23 01 D9 09 02 01  00 D2 80 80 E6 08 03 02  ..#.............
08D0: 10 02 80 2B 23 93 08 01  DC 80 23 2B 23 93 08 01  ...+#.....#+#...
08E0: EC 80 23 01 D9 09 02 01  00 ED 80 80 06 09 03 02  ..#.............
08F0: 10 02 80 2B 23 93 08 01  DE 80 23 2B 23 93 08 01  ...+#.....#+#...
0900: EC 80 23 01 D9 09 02 01  00 EE 80 80 26 09 03 02  ..#.........&...
0910: 10 02 80 2B 23 93 08 01  E0 80 23 2B 23 93 08 01  ...+#.....#+#...
0920: EC 80 23 01 D9 09 02 01  00 EF 80 80 46 09 03 02  ..#.........F...
0930: 10 02 80 2B 23 93 08 01  E2 80 23 2B 23 93 08 01  ...+#.....#+#...
0940: EC 80 23 01 D9 09 02 01  00 10 80 80 66 09 03 02  ..#.........f...
0950: 10 01 80 2B 23 93 08 01  DC 80 23 2B 23 93 08 01  ...+#.....#+#...
0960: F0 80 23 01 D9 09 02 01  00 F1 80 80 86 09 03 02  ..#.............
0970: 10 01 80 2B 23 93 08 01  DE 80 23 2B 23 93 08 01  ...+#.....#+#...
0980: F0 80 23 01 D9 09 02 01  00 F2 80 80 A6 09 03 02  ..#.............
0990: 10 01 80 2B 23 93 08 01  E0 80 23 2B 23 93 08 01  ...+#.....#+#...
09A0: F0 80 23 01 D9 09 02 01  00 D1 80 80 C6 09 03 02  ..#.............
09B0: 10 01 80 2B 23 93 08 01  E2 80 23 2B 23 93 08 01  ...+#.....#+#...
09C0: F0 80 23 01 D9 09 02 01  00 F3 80 80 D9 09 2B 23  ..#...........+#
09D0: 93 08 01 F4 80 23 01 D9  09 1B                    .....#....      
```

#### Opcodes

```
  0: 0x011A [0x03] ExtData[1]->WorkLocal[0] = 1*
  1: 0x011F [0x20] SET_CLI_EVENT_UC_FLAG: Lock player control
  2: 0x0121 [0x42] SET_CLI_EVENT_CANCEL_DATA()
  3: 0x0122 [0x1E] EventEntity looks at LocalPlayer and starts talking
  4: 0x0127 [0x6F] WAIT_FRAME_DELAY: Yield until WaitTime reaches zero
  5: 0x0128 [0x70] WAIT_ENTITY_RENDER_FLAG: Wait while EventEntity->Render.Flags3 bit 2 is set (cancel turn if not)
  6: 0x0129 [0x03] ExtData[1]->WorkLocal[3] = Work_Zone[3]
  7: 0x012E [0x03] ExtData[1]->WorkLocal[4] = Work_Zone[4]
  8: 0x0133 [0x03] ExtData[1]->WorkLocal[5] = Work_Zone[5]
  9: 0x0138 [0x03] ExtData[1]->WorkLocal[12] = Work_Zone[9]
 10: 0x013D [0x1D] PRINT_EVENT_MESSAGE(message_id=8157*)
    → "Ahhh, so you're military tactician who who drew up the plans for this latest supply mission. Why don't we ask one of the men how its going, shall we?"
 11: 0x0140 [0x23] WAIT_FOR_DIALOG_INTERACTION
 12: 0x0141 [0x1C] WAIT(60* ticks)
 13: 0x0144 [0x45] LOAD_SCHEDULED_TASK: Load scheduler "fdo1" with entities [LocalPlayer, LocalPlayer], work=[200*, 0*]
 14: 0x0155 [0x55] WAIT_LOAD_SCHEDULER: Wait for scheduler "fdo1" with entities [LocalPlayer, LocalPlayer], work=200*
 15: 0x0164 [0x46] CAMERA_CONTROL: Disable user control
 16: 0x0166 [0x38] SET_CLIENT_EVENT_MODE(mode=19*)
 17: 0x0169 [0x4E] SET_ENTITY_HIDE_FLAG: Show EventEntity
 18: 0x016F [0x92] LocalPlayer->Render.Flags3 ^= 0x01
 19: 0x0175 [0x92] EventEntity->Render.Flags3 ^= 0x01
 20: 0x017B [0x92] Allied Commissary (ID: 17339171/0x01089323)->Render.Flags3 ^= 0x01
 21: 0x0181 [0x02] IF !(ExtData[1]->WorkLocal[12] == 81*) GOTO 0x01C4
 22: 0x0189 [0x45] LOAD_SCHEDULED_TASK: Load scheduler "z81b" with entities [LocalPlayer, LocalPlayer], work=[325*, 0*]
 23: 0x019A [0xBA] SET_ENTITY_POSITION(entity_id=EventEntity, pos_x=311.752*, pos_z=-112.124*, pos_y=-29.761*, direction=48.3°*)
 24: 0x01A7 [0xBA] SET_ENTITY_POSITION(entity_id=LocalPlayer, pos_x=313.726*, pos_z=-115.091*, pos_y=-29.577*, direction=247.8°*)
 25: 0x01B4 [0xBA] SET_ENTITY_POSITION(entity_id=Allied Commissary (ID: 17339171/0x01089323), pos_x=318.377*, pos_z=-108.406*, pos_y=-29.500*, direction=137.5°*)
 26: 0x01C1 [0x01] GOTO 0x056E
 27: 0x01C4 [0x02] IF !(ExtData[1]->WorkLocal[12] == 82*) GOTO 0x0207
 28: 0x01CC [0x45] LOAD_SCHEDULED_TASK: Load scheduler "z82b" with entities [LocalPlayer, LocalPlayer], work=[325*, 0*]
 29: 0x01DD [0xBA] SET_ENTITY_POSITION(entity_id=EventEntity, pos_x=64.024*, pos_z=-32.098*, pos_y=0.532*, direction=49.7°*)
 30: 0x01EA [0xBA] SET_ENTITY_POSITION(entity_id=LocalPlayer, pos_x=63.861*, pos_z=-35.340*, pos_y=0.374*, direction=240.5°*)
 31: 0x01F7 [0xBA] SET_ENTITY_POSITION(entity_id=Allied Commissary (ID: 17339171/0x01089323), pos_x=68.325*, pos_z=-33.241*, pos_y=0.436*, direction=174.6°*)
 32: 0x0204 [0x01] GOTO 0x056E
 33: 0x0207 [0x02] IF !(ExtData[1]->WorkLocal[12] == 83*) GOTO 0x024A
 34: 0x020F [0x45] LOAD_SCHEDULED_TASK: Load scheduler "z83b" with entities [LocalPlayer, LocalPlayer], work=[325*, 0*]
 35: 0x0220 [0xBA] SET_ENTITY_POSITION(entity_id=EventEntity, pos_x=-195.325*, pos_z=-279.916*, pos_y=-40.000*, direction=335.4°*)
 36: 0x022D [0xBA] SET_ENTITY_POSITION(entity_id=LocalPlayer, pos_x=-192.619*, pos_z=-278.169*, pos_y=-40.000*, direction=159.8°*)
 37: 0x023A [0xBA] SET_ENTITY_POSITION(entity_id=Allied Commissary (ID: 17339171/0x01089323), pos_x=-191.006*, pos_z=-283.756*, pos_y=-40.000*, direction=234.6°*)
 38: 0x0247 [0x01] GOTO 0x056E
 39: 0x024A [0x02] IF !(ExtData[1]->WorkLocal[12] == 84*) GOTO 0x028D
 40: 0x0252 [0x45] LOAD_SCHEDULED_TASK: Load scheduler "z84b" with entities [LocalPlayer, LocalPlayer], work=[325*, 0*]
 41: 0x0263 [0xBA] SET_ENTITY_POSITION(entity_id=EventEntity, pos_x=208.005*, pos_z=23.041*, pos_y=8.762*, direction=128.9°*)
 42: 0x0270 [0xBA] SET_ENTITY_POSITION(entity_id=LocalPlayer, pos_x=205.098*, pos_z=22.479*, pos_y=8.844*, direction=340.6°*)
 43: 0x027D [0xBA] SET_ENTITY_POSITION(entity_id=Allied Commissary (ID: 17339171/0x01089323), pos_x=203.206*, pos_z=27.113*, pos_y=8.342*, direction=42.3°*)
 44: 0x028A [0x01] GOTO 0x056E
 45: 0x028D [0x02] IF !(ExtData[1]->WorkLocal[12] == 175*) GOTO 0x02D0
 46: 0x0295 [0x45] LOAD_SCHEDULED_TASK: Load scheduler "175a" with entities [LocalPlayer, LocalPlayer], work=[325*, 0*]
 47: 0x02A6 [0xBA] SET_ENTITY_POSITION(entity_id=EventEntity, pos_x=372.603*, pos_z=19.912*, pos_y=-39.999*, direction=338.7°*)
 48: 0x02B3 [0xBA] SET_ENTITY_POSITION(entity_id=LocalPlayer, pos_x=375.183*, pos_z=22.033*, pos_y=-39.999*, direction=149.0°*)
 49: 0x02C0 [0xBA] SET_ENTITY_POSITION(entity_id=Allied Commissary (ID: 17339171/0x01089323), pos_x=377.993*, pos_z=17.548*, pos_y=-39.999*, direction=217.3°*)
 50: 0x02CD [0x01] GOTO 0x056E
 51: 0x02D0 [0x02] IF !(ExtData[1]->WorkLocal[12] == 88*) GOTO 0x0313
 52: 0x02D8 [0x45] LOAD_SCHEDULED_TASK: Load scheduler "z88b" with entities [LocalPlayer, LocalPlayer], work=[325*, 0*]
 53: 0x02E9 [0xBA] SET_ENTITY_POSITION(entity_id=EventEntity, pos_x=-572.416*, pos_z=55.001*, pos_y=40.961*, direction=150.4°*)
 54: 0x02F6 [0xBA] SET_ENTITY_POSITION(entity_id=LocalPlayer, pos_x=-575.469*, pos_z=53.523*, pos_y=40.999*, direction=340.0°*)
 55: 0x0303 [0xBA] SET_ENTITY_POSITION(entity_id=Allied Commissary (ID: 17339171/0x01089323), pos_x=-568.817*, pos_z=49.509*, pos_y=40.778*, direction=239.1°*)
 56: 0x0310 [0x01] GOTO 0x056E
 57: 0x0313 [0x02] IF !(ExtData[1]->WorkLocal[12] == 89*) GOTO 0x0356
 58: 0x031B [0x45] LOAD_SCHEDULED_TASK: Load scheduler "z89b" with entities [LocalPlayer, LocalPlayer], work=[325*, 0*]
 59: 0x032C [0xBA] SET_ENTITY_POSITION(entity_id=EventEntity, pos_x=313.921*, pos_z=103.138*, pos_y=-47.370*, direction=186.3°*)
 60: 0x0339 [0xBA] SET_ENTITY_POSITION(entity_id=LocalPlayer, pos_x=310.646*, pos_z=104.690*, pos_y=-47.723*, direction=20.6°*)
 61: 0x0346 [0xBA] SET_ENTITY_POSITION(entity_id=Allied Commissary (ID: 17339171/0x01089323), pos_x=310.475*, pos_z=96.654*, pos_y=-47.601*, direction=270.6°*)
 62: 0x0353 [0x01] GOTO 0x056E
 63: 0x0356 [0x02] IF !(ExtData[1]->WorkLocal[12] == 90*) GOTO 0x0399
 64: 0x035E [0x45] LOAD_SCHEDULED_TASK: Load scheduler "z90b" with entities [LocalPlayer, LocalPlayer], work=[325*, 0*]
 65: 0x036F [0xBA] SET_ENTITY_POSITION(entity_id=EventEntity, pos_x=436.683*, pos_z=388.424*, pos_y=24.851*, direction=174.4°*)
 66: 0x037C [0xBA] SET_ENTITY_POSITION(entity_id=LocalPlayer, pos_x=433.267*, pos_z=387.400*, pos_y=24.439*, direction=328.3°*)
 67: 0x0389 [0xBA] SET_ENTITY_POSITION(entity_id=Allied Commissary (ID: 17339171/0x01089323), pos_x=431.919*, pos_z=393.644*, pos_y=24.534*, direction=52.3°*)
 68: 0x0396 [0x01] GOTO 0x056E
 69: 0x0399 [0x02] IF !(ExtData[1]->WorkLocal[12] == 91*) GOTO 0x03DC
 70: 0x03A1 [0x45] LOAD_SCHEDULED_TASK: Load scheduler "z91b" with entities [LocalPlayer, LocalPlayer], work=[325*, 0*]
 71: 0x03B2 [0xBA] SET_ENTITY_POSITION(entity_id=EventEntity, pos_x=259.071*, pos_z=202.614*, pos_y=8.551*, direction=86.5°*)
 72: 0x03BF [0xBA] SET_ENTITY_POSITION(entity_id=LocalPlayer, pos_x=260.171*, pos_z=199.023*, pos_y=8.790*, direction=226.6°*)
 73: 0x03CC [0xBA] SET_ENTITY_POSITION(entity_id=Allied Commissary (ID: 17339171/0x01089323), pos_x=253.982*, pos_z=196.343*, pos_y=8.236*, direction=332.8°*)
 74: 0x03D9 [0x01] GOTO 0x056E
 75: 0x03DC [0x02] IF !(ExtData[1]->WorkLocal[12] == 171*) GOTO 0x041F
 76: 0x03E4 [0x45] LOAD_SCHEDULED_TASK: Load scheduler "171a" with entities [LocalPlayer, LocalPlayer], work=[325*, 0*]
 77: 0x03F5 [0xBA] SET_ENTITY_POSITION(entity_id=EventEntity, pos_x=219.165*, pos_z=-17.497*, pos_y=-32.441*, direction=71.1°*)
 78: 0x0402 [0xBA] SET_ENTITY_POSITION(entity_id=LocalPlayer, pos_x=219.270*, pos_z=-20.198*, pos_y=-32.206*, direction=241.3°*)
 79: 0x040F [0xBA] SET_ENTITY_POSITION(entity_id=Allied Commissary (ID: 17339171/0x01089323), pos_x=224.166*, pos_z=-20.668*, pos_y=-32.276*, direction=183.2°*)
 80: 0x041C [0x01] GOTO 0x056E
 81: 0x041F [0x02] IF !(ExtData[1]->WorkLocal[12] == 95*) GOTO 0x0462
 82: 0x0427 [0x45] LOAD_SCHEDULED_TASK: Load scheduler "z95b" with entities [LocalPlayer, LocalPlayer], work=[325*, 0*]
 83: 0x0438 [0xBA] SET_ENTITY_POSITION(entity_id=EventEntity, pos_x=-10.768*, pos_z=309.479*, pos_y=-12.851*, direction=176.3°*)
 84: 0x0445 [0xBA] SET_ENTITY_POSITION(entity_id=LocalPlayer, pos_x=-13.689*, pos_z=307.360*, pos_y=-13.000*, direction=328.6°*)
 85: 0x0452 [0xBA] SET_ENTITY_POSITION(entity_id=Allied Commissary (ID: 17339171/0x01089323), pos_x=-14.266*, pos_z=314.175*, pos_y=-12.568*, direction=60.9°*)
 86: 0x045F [0x01] GOTO 0x056E
 87: 0x0462 [0x02] IF !(ExtData[1]->WorkLocal[12] == 96*) GOTO 0x04A5
 88: 0x046A [0x45] LOAD_SCHEDULED_TASK: Load scheduler "z96b" with entities [LocalPlayer, LocalPlayer], work=[325*, 0*]
 89: 0x047B [0xBA] SET_ENTITY_POSITION(entity_id=EventEntity, pos_x=-107.622*, pos_z=0.202*, pos_y=-79.979*, direction=349.3°*)
 90: 0x0488 [0xBA] SET_ENTITY_POSITION(entity_id=LocalPlayer, pos_x=-105.799*, pos_z=1.570*, pos_y=-79.877*, direction=111.4°*)
 91: 0x0495 [0xBA] SET_ENTITY_POSITION(entity_id=Allied Commissary (ID: 17339171/0x01089323), pos_x=-104.588*, pos_z=-5.098*, pos_y=-79.887*, direction=263.1°*)
 92: 0x04A2 [0x01] GOTO 0x056E
 93: 0x04A5 [0x02] IF !(ExtData[1]->WorkLocal[12] == 97*) GOTO 0x04E8
 94: 0x04AD [0x45] LOAD_SCHEDULED_TASK: Load scheduler "z97b" with entities [LocalPlayer, LocalPlayer], work=[325*, 0*]
 95: 0x04BE [0xBA] SET_ENTITY_POSITION(entity_id=EventEntity, pos_x=-298.643*, pos_z=430.382*, pos_y=16.760*, direction=168.8°*)
 96: 0x04CB [0xBA] SET_ENTITY_POSITION(entity_id=LocalPlayer, pos_x=-300.985*, pos_z=432.271*, pos_y=17.203*, direction=43.2°*)
 97: 0x04D8 [0xBA] SET_ENTITY_POSITION(entity_id=Allied Commissary (ID: 17339171/0x01089323), pos_x=-300.385*, pos_z=423.475*, pos_y=17.221*, direction=277.7°*)
 98: 0x04E5 [0x01] GOTO 0x056E
 99: 0x04E8 [0x02] IF !(ExtData[1]->WorkLocal[12] == 98*) GOTO 0x052B
100: 0x04F0 [0x45] LOAD_SCHEDULED_TASK: Load scheduler "z98b" with entities [LocalPlayer, LocalPlayer], work=[325*, 0*]
101: 0x0501 [0xBA] SET_ENTITY_POSITION(entity_id=EventEntity, pos_x=-42.376*, pos_z=219.781*, pos_y=24.963*, direction=4.6°*)
102: 0x050E [0xBA] SET_ENTITY_POSITION(entity_id=LocalPlayer, pos_x=-40.191*, pos_z=218.015*, pos_y=24.836*, direction=236.5°*)
103: 0x051B [0xBA] SET_ENTITY_POSITION(entity_id=Allied Commissary (ID: 17339171/0x01089323), pos_x=-35.737*, pos_z=224.685*, pos_y=24.660*, direction=161.7°*)
104: 0x0528 [0x01] GOTO 0x056E
105: 0x052B [0x02] IF !(ExtData[1]->WorkLocal[12] == 164*) GOTO 0x056E
106: 0x0533 [0x45] LOAD_SCHEDULED_TASK: Load scheduler "164a" with entities [LocalPlayer, LocalPlayer], work=[325*, 0*]
107: 0x0544 [0xBA] SET_ENTITY_POSITION(entity_id=EventEntity, pos_x=-103.730*, pos_z=177.917*, pos_y=-0.078*, direction=272.8°*)
108: 0x0551 [0xBA] SET_ENTITY_POSITION(entity_id=LocalPlayer, pos_x=-103.320*, pos_z=180.564*, pos_y=-0.078*, direction=117.7°*)
109: 0x055E [0xBA] SET_ENTITY_POSITION(entity_id=Allied Commissary (ID: 17339171/0x01089323), pos_x=-107.740*, pos_z=179.591*, pos_y=-0.078*, direction=8.1°*)
110: 0x056B [0x01] GOTO 0x056E

SUBROUTINE_056E:
111: 0x056E [0x94] LocalPlayer->Render.Flags3 ^= 0x01
112: 0x0574 [0x94] EventEntity->Render.Flags3 ^= 0x01
113: 0x057A [0x94] Allied Commissary (ID: 17339171/0x01089323)->Render.Flags3 ^= 0x01
114: 0x0580 [0x80] LOAD_WAIT(entity=LocalPlayer)
115: 0x0585 [0x80] LOAD_WAIT(entity=EventEntity)
116: 0x058A [0x80] LOAD_WAIT(entity=Allied Commissary (ID: 17339171/0x01089323))
117: 0x058F [0x1C] WAIT(1* ticks)
118: 0x0592 [0x1E] EventEntity looks at LocalPlayer and starts talking
119: 0x0597 [0x4A] LocalPlayer looks at EventEntity
120: 0x05A0 [0x45] LOAD_SCHEDULED_TASK: Load scheduler "fdi1" with entities [LocalPlayer, LocalPlayer], work=[200*, 0*]
121: 0x05B1 [0x55] WAIT_LOAD_SCHEDULER: Wait for scheduler "fdi1" with entities [LocalPlayer, LocalPlayer], work=200*
122: 0x05C0 [0x1E] EventEntity looks at Allied Commissary (ID: 17339171/0x01089323) and starts talking
123: 0x05C5 [0x4A] LocalPlayer looks at Allied Commissary (ID: 17339171/0x01089323)
124: 0x05CE [0x29] REQ_SET_WAIT(priority=0x10, entity_id=Allied Commissary (ID: 17339171/0x01089323), tag_num=0x04)
125: 0x05D5 [0x2B] Allied Commissary (ID: 17339171/0x01089323) [8158*]:
    → "You are the tactician responsible for our latest operation? Then I shall report in on the status of our mission up until now."
126: 0x05DC [0x23] WAIT_FOR_DIALOG_INTERACTION
127: 0x05DD [0x2B] Allied Commissary (ID: 17339171/0x01089323) [8159*]:
    → "As per orders, the supply caravan completed preparation of our cargo last night, and set out on the designated route at daybreak."
128: 0x05E4 [0x23] WAIT_FOR_DIALOG_INTERACTION
129: 0x05E5 [0x41] ExtData[1]->WorkLocal[1] = ExtData[1]->WorkLocal[3] (bits 0*-15*)
130: 0x05EE [0x41] ExtData[1]->WorkLocal[2] = ExtData[1]->WorkLocal[3] (bits 16*-31*)
131: 0x05F7 [0x02] IF !(ExtData[1]->WorkLocal[1] == 0*) GOTO 0x0602
132: 0x05FF [0x1A] CALL_SUBROUTINE(address=0x0733)
133: 0x0602 [0x02] IF !(ExtData[1]->WorkLocal[2] == 0*) GOTO 0x0627
134: 0x060A [0x41] ExtData[1]->WorkLocal[1] = ExtData[1]->WorkLocal[4] (bits 0*-15*)
135: 0x0613 [0x41] ExtData[1]->WorkLocal[2] = ExtData[1]->WorkLocal[4] (bits 16*-31*)
136: 0x061C [0x02] IF !(ExtData[1]->WorkLocal[1] == 0*) GOTO 0x0627
137: 0x0624 [0x1A] CALL_SUBROUTINE(address=0x0733)
138: 0x0627 [0x02] IF !(ExtData[1]->WorkLocal[2] == 0*) GOTO 0x064C
139: 0x062F [0x41] ExtData[1]->WorkLocal[1] = ExtData[1]->WorkLocal[5] (bits 0*-15*)
140: 0x0638 [0x41] ExtData[1]->WorkLocal[2] = ExtData[1]->WorkLocal[5] (bits 16*-31*)
141: 0x0641 [0x02] IF !(ExtData[1]->WorkLocal[1] == 0*) GOTO 0x064C
142: 0x0649 [0x1A] CALL_SUBROUTINE(address=0x0733)
143: 0x064C [0x02] IF !(ExtData[1]->WorkLocal[2] == 0*) GOTO 0x0682
144: 0x0654 [0x02] IF !(ExtData[1]->WorkLocal[2] >= 3*) GOTO 0x0667
145: 0x065C [0x2B] Allied Commissary (ID: 17339171/0x01089323) [8174*]:
    → "Our unit was able to reach this stronghold, though we did so bearing a great deal less than the intended cargo."
146: 0x0663 [0x23] WAIT_FOR_DIALOG_INTERACTION
147: 0x0664 [0x01] GOTO 0x0682
148: 0x0667 [0x02] IF !(ExtData[1]->WorkLocal[2] >= 5*) GOTO 0x067A
149: 0x066F [0x2B] Allied Commissary (ID: 17339171/0x01089323) [8173*]:
    → "Our unit was able to reach this stronghold safely with the cargo. Your planning may well have been the decisive factor in the success of our mission."
150: 0x0676 [0x23] WAIT_FOR_DIALOG_INTERACTION
151: 0x0677 [0x01] GOTO 0x0682
152: 0x067A [0x2B] Allied Commissary (ID: 17339171/0x01089323) [8172*]:
    → "I am pleased to report that our unit was able to reach this stronghold safely with all of the intended cargo. The success of our mission was due in no small part to your brilliant planning."
153: 0x0681 [0x23] WAIT_FOR_DIALOG_INTERACTION

SUBROUTINE_0682:
154: 0x0682 [0x1E] EventEntity looks at LocalPlayer and starts talking
155: 0x0687 [0x6F] WAIT_FRAME_DELAY: Yield until WaitTime reaches zero
156: 0x0688 [0x70] WAIT_ENTITY_RENDER_FLAG: Wait while EventEntity->Render.Flags3 bit 2 is set (cancel turn if not)
157: 0x0689 [0x02] IF !(ExtData[1]->WorkLocal[2] == 0*) GOTO 0x06C1
158: 0x0691 [0x02] IF !(ExtData[1]->WorkLocal[0] == 0*) GOTO 0x06A0
159: 0x0699 [0x1D] PRINT_EVENT_MESSAGE(message_id=7345*)
    → "It seems that you were not successful in your last operation. But do not let one small failure hang heavy on your soul. Report to Sir Rasdinice and put this all behind you."
160: 0x069C [0x23] WAIT_FOR_DIALOG_INTERACTION
161: 0x069D [0x01] GOTO 0x06BE
162: 0x06A0 [0x02] IF !(ExtData[1]->WorkLocal[0] == 1*) GOTO 0x06AF
163: 0x06A8 [0x1D] PRINT_EVENT_MESSAGE(message_id=7346*)
    → "Weren't so lucky during that last operation, were you? Well, don't worry about it too much. Report to First Centurion Hieronymus and get some rest, soldier."
164: 0x06AB [0x23] WAIT_FOR_DIALOG_INTERACTION
165: 0x06AC [0x01] GOTO 0x06BE
166: 0x06AF [0x02] IF !(ExtData[1]->WorkLocal[0] == 2*) GOTO 0x06BE
167: 0x06B7 [0x1D] PRINT_EVENT_MESSAGE(message_id=7347*)
    → "Hmmm... Didn't do so well on that last operation, did you? I know it's hard, but it's better if you're up-front about these things. If you know what's good for you, you'll hurry down and report to Emhi Tchaoryo before the major finds out first."
168: 0x06BA [0x23] WAIT_FOR_DIALOG_INTERACTION
169: 0x06BB [0x01] GOTO 0x06BE

SUBROUTINE_06BE:
170: 0x06BE [0x01] GOTO 0x06EE
171: 0x06C1 [0x02] IF !(ExtData[1]->WorkLocal[0] == 0*) GOTO 0x06D0
172: 0x06C9 [0x1D] PRINT_EVENT_MESSAGE(message_id=7342*)
    → "Good show on your last operation. Now go make an official report to Sir Rasdinice."
173: 0x06CC [0x23] WAIT_FOR_DIALOG_INTERACTION
174: 0x06CD [0x01] GOTO 0x06EE
175: 0x06D0 [0x02] IF !(ExtData[1]->WorkLocal[0] == 1*) GOTO 0x06DF
176: 0x06D8 [0x1D] PRINT_EVENT_MESSAGE(message_id=7343*)
    → "Good work on that last operation. Now report back to First Centurion Hieronymus before he has your hide!"
177: 0x06DB [0x23] WAIT_FOR_DIALOG_INTERACTION
178: 0x06DC [0x01] GOTO 0x06EE
179: 0x06DF [0x02] IF !(ExtData[1]->WorkLocal[0] == 2*) GOTO 0x06EE
180: 0x06E7 [0x1D] PRINT_EVENT_MESSAGE(message_id=7344*)
    → "Nice job on your last operation. Now don't forget to report back to Emhi Tchaoryo!"
181: 0x06EA [0x23] WAIT_FOR_DIALOG_INTERACTION
182: 0x06EB [0x01] GOTO 0x06EE

SUBROUTINE_06EE:
183: 0x06EE [0x45] LOAD_SCHEDULED_TASK: Load scheduler "fdo1" with entities [LocalPlayer, LocalPlayer], work=[200*, 0*]
184: 0x06FF [0x55] WAIT_LOAD_SCHEDULER: Wait for scheduler "fdo1" with entities [LocalPlayer, LocalPlayer], work=200*
185: 0x070E [0x4E] SET_ENTITY_HIDE_FLAG: Hide Allied Commissary (ID: 17339171/0x01089323)
186: 0x0714 [0x1C] WAIT(15* ticks)
187: 0x0717 [0x46] CAMERA_CONTROL: Restore default settings
188: 0x0719 [0x45] LOAD_SCHEDULED_TASK: Load scheduler "fdi2" with entities [LocalPlayer, LocalPlayer], work=[200*, 0*]
189: 0x072A [0x03] Work_Zone[1] = 0*
190: 0x072F [0x20] SET_CLI_EVENT_UC_FLAG: Unlock player control
191: 0x0731 [0x21] END_EVENT
192: 0x0732 [0x00] END_REQSTACK()

SUBROUTINE_0733:
193: 0x0733 [0x02] IF !(ExtData[1]->WorkLocal[1] == 1*) GOTO 0x0746
194: 0x073B [0x2B] Allied Commissary (ID: 17339171/0x01089323) [8160*]:
    → "Unfortunately, we encountered an accident and lost a portion of our cargo."
195: 0x0742 [0x23] WAIT_FOR_DIALOG_INTERACTION
196: 0x0743 [0x01] GOTO 0x09D9
197: 0x0746 [0x02] IF !(ExtData[1]->WorkLocal[1] == 2*) GOTO 0x0766
198: 0x074E [0x03] Work_Zone[2] = 0*
199: 0x0753 [0x2B] Allied Commissary (ID: 17339171/0x01089323) [8162*]:
    → "We encountered considerable beastman opposition. In accordance with mission operatives, we [engaged the enemy in open battle/attempted to evade the enemy at all cost]."
200: 0x075A [0x23] WAIT_FOR_DIALOG_INTERACTION
201: 0x075B [0x2B] Allied Commissary (ID: 17339171/0x01089323) [8166*]:
    → "By the good graces of the Goddess, our convoy was able to emerge victorious over our adversaries."
202: 0x0762 [0x23] WAIT_FOR_DIALOG_INTERACTION
203: 0x0763 [0x01] GOTO 0x09D9
204: 0x0766 [0x02] IF !(ExtData[1]->WorkLocal[1] == 3*) GOTO 0x0786
205: 0x076E [0x03] Work_Zone[2] = 0*
206: 0x0773 [0x2B] Allied Commissary (ID: 17339171/0x01089323) [8163*]:
    → "We encountered a superior beastman assault force. In accordance with mission operatives, we [engaged the enemy in open battle/attempted to evade the enemy at all cost]."
207: 0x077A [0x23] WAIT_FOR_DIALOG_INTERACTION
208: 0x077B [0x2B] Allied Commissary (ID: 17339171/0x01089323) [8166*]:
    → "By the good graces of the Goddess, our convoy was able to emerge victorious over our adversaries."
209: 0x0782 [0x23] WAIT_FOR_DIALOG_INTERACTION
210: 0x0783 [0x01] GOTO 0x09D9
211: 0x0786 [0x02] IF !(ExtData[1]->WorkLocal[1] == 4*) GOTO 0x07A6
212: 0x078E [0x03] Work_Zone[2] = 0*
213: 0x0793 [0x2B] Allied Commissary (ID: 17339171/0x01089323) [8164*]:
    → "We encountered a beastman supply convoy, who was also made immediately aware of our presence. In accordance with mission operatives, we [engaged the enemy in open battle/attempted to evade the enemy at all cost]."
214: 0x079A [0x23] WAIT_FOR_DIALOG_INTERACTION
215: 0x079B [0x2B] Allied Commissary (ID: 17339171/0x01089323) [8167*]:
    → "By the good graces of the Goddess, our convoy was able to obliterate the beastman supply contingent. In addition, we seized a significant portion of the enemy's supplies."
216: 0x07A2 [0x23] WAIT_FOR_DIALOG_INTERACTION
217: 0x07A3 [0x01] GOTO 0x09D9
218: 0x07A6 [0x02] IF !(ExtData[1]->WorkLocal[1] == 5*) GOTO 0x07C6
219: 0x07AE [0x03] Work_Zone[2] = 0*
220: 0x07B3 [0x2B] Allied Commissary (ID: 17339171/0x01089323) [8165*]:
    → "We encountered a substantial force under the direct command of a beastman general. In accordance with mission operatives, we [engaged the enemy in open battle/attempted to evade the enemy at all cost]."
221: 0x07BA [0x23] WAIT_FOR_DIALOG_INTERACTION
222: 0x07BB [0x2B] Allied Commissary (ID: 17339171/0x01089323) [8166*]:
    → "By the good graces of the Goddess, our convoy was able to emerge victorious over our adversaries."
223: 0x07C2 [0x23] WAIT_FOR_DIALOG_INTERACTION
224: 0x07C3 [0x01] GOTO 0x09D9
225: 0x07C6 [0x02] IF !(ExtData[1]->WorkLocal[1] == 6*) GOTO 0x07E6
226: 0x07CE [0x03] Work_Zone[2] = 1*
227: 0x07D3 [0x2B] Allied Commissary (ID: 17339171/0x01089323) [8162*]:
    → "We encountered considerable beastman opposition. In accordance with mission operatives, we [engaged the enemy in open battle/attempted to evade the enemy at all cost]."
228: 0x07DA [0x23] WAIT_FOR_DIALOG_INTERACTION
229: 0x07DB [0x2B] Allied Commissary (ID: 17339171/0x01089323) [8169*]:
    → "By the good graces of the Goddess, we narrowly succeeded in throwing the beastmen ranks into chaos and disarray."
230: 0x07E2 [0x23] WAIT_FOR_DIALOG_INTERACTION
231: 0x07E3 [0x01] GOTO 0x09D9
232: 0x07E6 [0x02] IF !(ExtData[1]->WorkLocal[1] == 7*) GOTO 0x0806
233: 0x07EE [0x03] Work_Zone[2] = 1*
234: 0x07F3 [0x2B] Allied Commissary (ID: 17339171/0x01089323) [8163*]:
    → "We encountered a superior beastman assault force. In accordance with mission operatives, we [engaged the enemy in open battle/attempted to evade the enemy at all cost]."
235: 0x07FA [0x23] WAIT_FOR_DIALOG_INTERACTION
236: 0x07FB [0x2B] Allied Commissary (ID: 17339171/0x01089323) [8169*]:
    → "By the good graces of the Goddess, we narrowly succeeded in throwing the beastmen ranks into chaos and disarray."
237: 0x0802 [0x23] WAIT_FOR_DIALOG_INTERACTION
238: 0x0803 [0x01] GOTO 0x09D9
239: 0x0806 [0x02] IF !(ExtData[1]->WorkLocal[1] == 8*) GOTO 0x0826
240: 0x080E [0x03] Work_Zone[2] = 1*
241: 0x0813 [0x2B] Allied Commissary (ID: 17339171/0x01089323) [8164*]:
    → "We encountered a beastman supply convoy, who was also made immediately aware of our presence. In accordance with mission operatives, we [engaged the enemy in open battle/attempted to evade the enemy at all cost]."
242: 0x081A [0x23] WAIT_FOR_DIALOG_INTERACTION
243: 0x081B [0x2B] Allied Commissary (ID: 17339171/0x01089323) [8169*]:
    → "By the good graces of the Goddess, we narrowly succeeded in throwing the beastmen ranks into chaos and disarray."
244: 0x0822 [0x23] WAIT_FOR_DIALOG_INTERACTION
245: 0x0823 [0x01] GOTO 0x09D9
246: 0x0826 [0x02] IF !(ExtData[1]->WorkLocal[1] == 9*) GOTO 0x0846
247: 0x082E [0x03] Work_Zone[2] = 1*
248: 0x0833 [0x2B] Allied Commissary (ID: 17339171/0x01089323) [8165*]:
    → "We encountered a substantial force under the direct command of a beastman general. In accordance with mission operatives, we [engaged the enemy in open battle/attempted to evade the enemy at all cost]."
249: 0x083A [0x23] WAIT_FOR_DIALOG_INTERACTION
250: 0x083B [0x2B] Allied Commissary (ID: 17339171/0x01089323) [8169*]:
    → "By the good graces of the Goddess, we narrowly succeeded in throwing the beastmen ranks into chaos and disarray."
251: 0x0842 [0x23] WAIT_FOR_DIALOG_INTERACTION
252: 0x0843 [0x01] GOTO 0x09D9
253: 0x0846 [0x02] IF !(ExtData[1]->WorkLocal[1] == 10*) GOTO 0x0866
254: 0x084E [0x03] Work_Zone[2] = 1*
255: 0x0853 [0x2B] Allied Commissary (ID: 17339171/0x01089323) [8162*]:
    → "We encountered considerable beastman opposition. In accordance with mission operatives, we [engaged the enemy in open battle/attempted to evade the enemy at all cost]."
256: 0x085A [0x23] WAIT_FOR_DIALOG_INTERACTION
257: 0x085B [0x2B] Allied Commissary (ID: 17339171/0x01089323) [8170*]:
    → "By the good graces of the Goddess, we somehow staved off the beastman attack and shook free. However, we were forced to abandon a portion of our cargo in the process."
258: 0x0862 [0x23] WAIT_FOR_DIALOG_INTERACTION
259: 0x0863 [0x01] GOTO 0x09D9
260: 0x0866 [0x02] IF !(ExtData[1]->WorkLocal[1] == 11*) GOTO 0x0886
261: 0x086E [0x03] Work_Zone[2] = 1*
262: 0x0873 [0x2B] Allied Commissary (ID: 17339171/0x01089323) [8163*]:
    → "We encountered a superior beastman assault force. In accordance with mission operatives, we [engaged the enemy in open battle/attempted to evade the enemy at all cost]."
263: 0x087A [0x23] WAIT_FOR_DIALOG_INTERACTION
264: 0x087B [0x2B] Allied Commissary (ID: 17339171/0x01089323) [8170*]:
    → "By the good graces of the Goddess, we somehow staved off the beastman attack and shook free. However, we were forced to abandon a portion of our cargo in the process."
265: 0x0882 [0x23] WAIT_FOR_DIALOG_INTERACTION
266: 0x0883 [0x01] GOTO 0x09D9
267: 0x0886 [0x02] IF !(ExtData[1]->WorkLocal[1] == 12*) GOTO 0x08A6
268: 0x088E [0x03] Work_Zone[2] = 1*
269: 0x0893 [0x2B] Allied Commissary (ID: 17339171/0x01089323) [8164*]:
    → "We encountered a beastman supply convoy, who was also made immediately aware of our presence. In accordance with mission operatives, we [engaged the enemy in open battle/attempted to evade the enemy at all cost]."
270: 0x089A [0x23] WAIT_FOR_DIALOG_INTERACTION
271: 0x089B [0x2B] Allied Commissary (ID: 17339171/0x01089323) [8170*]:
    → "By the good graces of the Goddess, we somehow staved off the beastman attack and shook free. However, we were forced to abandon a portion of our cargo in the process."
272: 0x08A2 [0x23] WAIT_FOR_DIALOG_INTERACTION
273: 0x08A3 [0x01] GOTO 0x09D9
274: 0x08A6 [0x02] IF !(ExtData[1]->WorkLocal[1] == 13*) GOTO 0x08C6
275: 0x08AE [0x03] Work_Zone[2] = 1*
276: 0x08B3 [0x2B] Allied Commissary (ID: 17339171/0x01089323) [8165*]:
    → "We encountered a substantial force under the direct command of a beastman general. In accordance with mission operatives, we [engaged the enemy in open battle/attempted to evade the enemy at all cost]."
277: 0x08BA [0x23] WAIT_FOR_DIALOG_INTERACTION
278: 0x08BB [0x2B] Allied Commissary (ID: 17339171/0x01089323) [8170*]:
    → "By the good graces of the Goddess, we somehow staved off the beastman attack and shook free. However, we were forced to abandon a portion of our cargo in the process."
279: 0x08C2 [0x23] WAIT_FOR_DIALOG_INTERACTION
280: 0x08C3 [0x01] GOTO 0x09D9
281: 0x08C6 [0x02] IF !(ExtData[1]->WorkLocal[1] == 16*) GOTO 0x08E6
282: 0x08CE [0x03] Work_Zone[2] = 0*
283: 0x08D3 [0x2B] Allied Commissary (ID: 17339171/0x01089323) [8162*]:
    → "We encountered considerable beastman opposition. In accordance with mission operatives, we [engaged the enemy in open battle/attempted to evade the enemy at all cost]."
284: 0x08DA [0x23] WAIT_FOR_DIALOG_INTERACTION
285: 0x08DB [0x2B] Allied Commissary (ID: 17339171/0x01089323) [8168*]:
    → "However, despite our best efforts, our convoy was utterly defeated. All of our cargo was lost to the enemy horde."
286: 0x08E2 [0x23] WAIT_FOR_DIALOG_INTERACTION
287: 0x08E3 [0x01] GOTO 0x09D9
288: 0x08E6 [0x02] IF !(ExtData[1]->WorkLocal[1] == 17*) GOTO 0x0906
289: 0x08EE [0x03] Work_Zone[2] = 0*
290: 0x08F3 [0x2B] Allied Commissary (ID: 17339171/0x01089323) [8163*]:
    → "We encountered a superior beastman assault force. In accordance with mission operatives, we [engaged the enemy in open battle/attempted to evade the enemy at all cost]."
291: 0x08FA [0x23] WAIT_FOR_DIALOG_INTERACTION
292: 0x08FB [0x2B] Allied Commissary (ID: 17339171/0x01089323) [8168*]:
    → "However, despite our best efforts, our convoy was utterly defeated. All of our cargo was lost to the enemy horde."
293: 0x0902 [0x23] WAIT_FOR_DIALOG_INTERACTION
294: 0x0903 [0x01] GOTO 0x09D9
295: 0x0906 [0x02] IF !(ExtData[1]->WorkLocal[1] == 18*) GOTO 0x0926
296: 0x090E [0x03] Work_Zone[2] = 0*
297: 0x0913 [0x2B] Allied Commissary (ID: 17339171/0x01089323) [8164*]:
    → "We encountered a beastman supply convoy, who was also made immediately aware of our presence. In accordance with mission operatives, we [engaged the enemy in open battle/attempted to evade the enemy at all cost]."
298: 0x091A [0x23] WAIT_FOR_DIALOG_INTERACTION
299: 0x091B [0x2B] Allied Commissary (ID: 17339171/0x01089323) [8168*]:
    → "However, despite our best efforts, our convoy was utterly defeated. All of our cargo was lost to the enemy horde."
300: 0x0922 [0x23] WAIT_FOR_DIALOG_INTERACTION
301: 0x0923 [0x01] GOTO 0x09D9
302: 0x0926 [0x02] IF !(ExtData[1]->WorkLocal[1] == 14*) GOTO 0x0946
303: 0x092E [0x03] Work_Zone[2] = 0*
304: 0x0933 [0x2B] Allied Commissary (ID: 17339171/0x01089323) [8165*]:
    → "We encountered a substantial force under the direct command of a beastman general. In accordance with mission operatives, we [engaged the enemy in open battle/attempted to evade the enemy at all cost]."
305: 0x093A [0x23] WAIT_FOR_DIALOG_INTERACTION
306: 0x093B [0x2B] Allied Commissary (ID: 17339171/0x01089323) [8168*]:
    → "However, despite our best efforts, our convoy was utterly defeated. All of our cargo was lost to the enemy horde."
307: 0x0942 [0x23] WAIT_FOR_DIALOG_INTERACTION
308: 0x0943 [0x01] GOTO 0x09D9
309: 0x0946 [0x02] IF !(ExtData[1]->WorkLocal[1] == 19*) GOTO 0x0966
310: 0x094E [0x03] Work_Zone[2] = 1*
311: 0x0953 [0x2B] Allied Commissary (ID: 17339171/0x01089323) [8162*]:
    → "We encountered considerable beastman opposition. In accordance with mission operatives, we [engaged the enemy in open battle/attempted to evade the enemy at all cost]."
312: 0x095A [0x23] WAIT_FOR_DIALOG_INTERACTION
313: 0x095B [0x2B] Allied Commissary (ID: 17339171/0x01089323) [8171*]:
    → "However, we were unable to repel the beastman's relentless pursuit, and in the end our convoy was scattered. All of our cargo was lost to the enemy horde."
314: 0x0962 [0x23] WAIT_FOR_DIALOG_INTERACTION
315: 0x0963 [0x01] GOTO 0x09D9
316: 0x0966 [0x02] IF !(ExtData[1]->WorkLocal[1] == 20*) GOTO 0x0986
317: 0x096E [0x03] Work_Zone[2] = 1*
318: 0x0973 [0x2B] Allied Commissary (ID: 17339171/0x01089323) [8163*]:
    → "We encountered a superior beastman assault force. In accordance with mission operatives, we [engaged the enemy in open battle/attempted to evade the enemy at all cost]."
319: 0x097A [0x23] WAIT_FOR_DIALOG_INTERACTION
320: 0x097B [0x2B] Allied Commissary (ID: 17339171/0x01089323) [8171*]:
    → "However, we were unable to repel the beastman's relentless pursuit, and in the end our convoy was scattered. All of our cargo was lost to the enemy horde."
321: 0x0982 [0x23] WAIT_FOR_DIALOG_INTERACTION
322: 0x0983 [0x01] GOTO 0x09D9
323: 0x0986 [0x02] IF !(ExtData[1]->WorkLocal[1] == 21*) GOTO 0x09A6
324: 0x098E [0x03] Work_Zone[2] = 1*
325: 0x0993 [0x2B] Allied Commissary (ID: 17339171/0x01089323) [8164*]:
    → "We encountered a beastman supply convoy, who was also made immediately aware of our presence. In accordance with mission operatives, we [engaged the enemy in open battle/attempted to evade the enemy at all cost]."
326: 0x099A [0x23] WAIT_FOR_DIALOG_INTERACTION
327: 0x099B [0x2B] Allied Commissary (ID: 17339171/0x01089323) [8171*]:
    → "However, we were unable to repel the beastman's relentless pursuit, and in the end our convoy was scattered. All of our cargo was lost to the enemy horde."
328: 0x09A2 [0x23] WAIT_FOR_DIALOG_INTERACTION
329: 0x09A3 [0x01] GOTO 0x09D9
330: 0x09A6 [0x02] IF !(ExtData[1]->WorkLocal[1] == 15*) GOTO 0x09C6
331: 0x09AE [0x03] Work_Zone[2] = 1*
332: 0x09B3 [0x2B] Allied Commissary (ID: 17339171/0x01089323) [8165*]:
    → "We encountered a substantial force under the direct command of a beastman general. In accordance with mission operatives, we [engaged the enemy in open battle/attempted to evade the enemy at all cost]."
333: 0x09BA [0x23] WAIT_FOR_DIALOG_INTERACTION
334: 0x09BB [0x2B] Allied Commissary (ID: 17339171/0x01089323) [8171*]:
    → "However, we were unable to repel the beastman's relentless pursuit, and in the end our convoy was scattered. All of our cargo was lost to the enemy horde."
335: 0x09C2 [0x23] WAIT_FOR_DIALOG_INTERACTION
336: 0x09C3 [0x01] GOTO 0x09D9
337: 0x09C6 [0x02] IF !(ExtData[1]->WorkLocal[1] == 22*) GOTO 0x09D9
338: 0x09CE [0x2B] Allied Commissary (ID: 17339171/0x01089323) [8161*]:
    → "Most regrettably, we encountered an accident and lost out entire load of cargo."
339: 0x09D5 [0x23] WAIT_FOR_DIALOG_INTERACTION
340: 0x09D6 [0x01] GOTO 0x09D9

SUBROUTINE_09D9:
341: 0x09D9 [0x1B] RETURN
```

### Event 65535.2

#### Metadata

| Field        | Value      |
|--------------|------------|
| Entrypoint   | 0x09DA     |
| Data Size    | 4130 bytes |
| Instructions | 1          |

```
      00 01 02 03 04 05 06 07  08 09 0A 0B 0C 0D 0E 0F
      -- -- -- -- -- -- -- --  -- -- -- -- -- -- -- --
09D0:                                00 03 16 00 04 10            ......
09E0: 20 01 1E F0 FF FF 7F 6F  70 02 0E 00 02 80 80 FB   ......op.......
09F0: 09 1D F5 80 23 01 31 0A  01 31 0A 02 0E 00 01 80  ....#.1..1......
0A00: 80 0D 0A 1D F6 80 23 01  31 0A 01 31 0A 02 0E 00  ......#.1..1....
0A10: 05 80 80 1F 0A 1D F7 80  23 01 31 0A 01 31 0A 02  ........#.1..1..
0A20: 0E 00 DF 80 80 31 0A 1D  F8 80 23 01 31 0A 01 31  .....1....#.1..1
0A30: 0A 03 0F 00 02 80 3E 03  10 02 80 40 0A 01 47 0A  ......>....@..G.
0A40: 3C 0F 00 07 80 01 80 3E  03 10 05 80 51 0A 01 5F  <......>....Q.._
0A50: 0A 3C 0F 00 05 80 01 80  3C 0F 00 07 80 01 80 3E  .<......<......>
0A60: 03 10 07 80 6E 0A 03 12  00 01 80 01 73 0A 03 12  ....n.......s...
0A70: 00 02 80 3E 03 10 DF 80  84 0A 3C 0F 00 05 80 01  ...>......<.....
0A80: 80 01 99 0A 3C 0F 00 01  80 01 80 3C 0F 00 07 80  ....<......<....
0A90: 01 80 3C 0F 00 DF 80 01  80 3E 03 10 D5 80 A7 0A  ..<......>......
0AA0: 3C 0F 00 D5 80 01 80 3E  03 10 E3 80 B4 0A 05 18  <......>........
0AB0: 00 01 B7 0A 06 18 00 41  02 80 D1 80 07 10 11 00  .......A........
0AC0: 41 D2 80 D3 80 07 10 10  00 02 10 00 02 80 00 D8  A...............
0AD0: 0A 3C 0F 00 07 80 01 80  03 13 00 02 80 0E 13 00  .<..............
0AE0: F9 80 0E 13 00 FA 80 0E  13 00 FB 80 03 14 00 02  ................
0AF0: 80 0E 14 00 02 80 0E 14  00 02 80 0E 14 00 02 80  ................
0B00: 02 08 10 13 00 00 17 0B  02 09 10 14 00 00 17 0B  ................
0B10: 3C 0F 00 07 80 01 80 24  FC 80 02 80 0F 00 25 02  <......$......%.
0B20: 00 10 02 80 00 2A 0B 01  C2 0B 02 00 10 01 80 00  .....*..........
0B30: 38 0B 1A C7 0B 01 C2 0B  02 00 10 05 80 00 64 0B  8.............d.
0B40: 02 12 00 02 80 00 5D 0B  02 18 00 02 80 00 56 0B  ......].......V.
0B50: 1A D2 0B 01 5A 0B 1D FD  80 23 01 61 0B 1D FE 80  ....Z....#.a....
0B60: 23 01 C2 0B 02 00 10 07  80 00 81 0B 02 12 00 02  #...............
0B70: 80 00 7A 0B 1A EB 0B 01  7E 0B 1D FE 80 23 01 C2  ..z.....~....#..
0B80: 0B 02 00 10 DF 80 00 A6  0B 03 01 10 FF 80 43 00  ..............C.
0B90: 43 01 02 04 10 02 80 00  A0 0B 1A 6F 16 01 A3 0B  C..........o....
0BA0: 01 C5 0B 01 C2 0B 02 00  10 D5 80 00 B4 0B 1A 95  ................
0BB0: 18 01 C2 0B 02 00 10 E3  80 00 C2 0B 1A 56 19 01  .............V..
0BC0: C2 0B 01 C5 0B 21 1B 42  1D 00 81 23 03 01 10 D5  .....!.B...#....
0BD0: 80 1B 42 1D 01 81 23 73  02 81 F8 FF FF 7F F0 FF  ..B...#s........
0BE0: FF 7F 1C 03 81 03 01 10  07 80 1B 03 21 00 02 80  ............!...
0BF0: 03 1D 00 02 80 03 19 00  02 80 03 1A 00 02 80 03  ................
0C00: 1B 00 02 80 03 1C 00 02  80 03 24 00 02 80 03 22  ..........$...."
0C10: 00 02 80 03 26 00 F9 80  02 24 00 04 81 03 2F 0D  ....&....$..../.
0C20: 3E 26 00 24 00 29 0D 03  17 00 02 80 02 24 00 E9  >&.$.).......$..
0C30: 80 04 4D 0C 02 24 00 EE  80 03 4D 0C 03 17 00 01  ..M..$....M.....
0C40: 80 3E 05 10 02 80 4D 0C  03 17 00 02 80 02 24 00  .>....M.......$.
0C50: EE 80 04 6E 0C 02 24 00  05 81 03 6E 0C 03 17 00  ...n..$....n....
0C60: 01 80 3E 05 10 01 80 6E  0C 03 17 00 02 80 02 24  ..>....n.......$
0C70: 00 05 81 04 8F 0C 02 24  00 06 81 03 8F 0C 03 17  .......$........
0C80: 00 01 80 3E 05 10 05 80  8F 0C 03 17 00 02 80 02  ...>............
0C90: 24 00 06 81 04 B0 0C 02  24 00 07 81 03 B0 0C 03  $.......$.......
0CA0: 17 00 01 80 3E 05 10 07  80 B0 0C 03 17 00 02 80  ....>...........
0CB0: 02 24 00 07 81 04 D1 0C  02 24 00 08 81 03 D1 0C  .$.......$......
0CC0: 03 17 00 01 80 3E 05 10  DF 80 D1 0C 03 17 00 02  .....>..........
0CD0: 80 02 24 00 08 81 04 F2  0C 02 24 00 09 81 03 F2  ..$.......$.....
0CE0: 0C 03 17 00 01 80 3E 05  10 D5 80 F2 0C 03 17 00  ......>.........
0CF0: 02 80 02 24 00 09 81 04  0B 0D 03 17 00 01 80 3E  ...$...........>
0D00: 05 10 E3 80 0B 0D 03 17  00 02 80 3E 08 10 24 00  ...........>..$.
0D10: 17 0D 03 17 00 01 80 02  17 00 02 80 00 26 0D 3C  .............&.<
0D20: 1A 00 22 00 01 80 0B 22  00 0B 24 00 01 18 0C 03  .."...."..$.....
0D30: 24 00 02 80 03 26 00 02  80 02 24 00 04 81 03 5A  $....&....$....Z
0D40: 0E 3E 26 00 24 00 54 0E  03 17 00 02 80 03 25 00  .>&.$.T.......%.
0D50: 24 00 07 25 00 04 81 02  25 00 E9 80 04 78 0D 02  $..%....%....x..
0D60: 25 00 EE 80 03 78 0D 03  17 00 01 80 3E 05 10 02  %....x......>...
0D70: 80 78 0D 03 17 00 02 80  02 25 00 EE 80 04 99 0D  .x.......%......
0D80: 02 25 00 05 81 03 99 0D  03 17 00 01 80 3E 05 10  .%...........>..
0D90: 01 80 99 0D 03 17 00 02  80 02 25 00 05 81 04 BA  ..........%.....
0DA0: 0D 02 25 00 06 81 03 BA  0D 03 17 00 01 80 3E 05  ..%...........>.
0DB0: 10 05 80 BA 0D 03 17 00  02 80 02 25 00 06 81 04  ...........%....
0DC0: DB 0D 02 25 00 07 81 03  DB 0D 03 17 00 01 80 3E  ...%...........>
0DD0: 05 10 07 80 DB 0D 03 17  00 02 80 02 25 00 07 81  ............%...
0DE0: 04 FC 0D 02 25 00 08 81  03 FC 0D 03 17 00 01 80  ....%...........
0DF0: 3E 05 10 DF 80 FC 0D 03  17 00 02 80 02 25 00 08  >............%..
0E00: 81 04 1D 0E 02 25 00 09  81 03 1D 0E 03 17 00 01  .....%..........
0E10: 80 3E 05 10 D5 80 1D 0E  03 17 00 02 80 02 25 00  .>............%.
0E20: 09 81 04 36 0E 03 17 00  01 80 3E 05 10 E3 80 36  ...6......>....6
0E30: 0E 03 17 00 02 80 3E 09  10 24 00 42 0E 03 17 00  ......>..$.B....
0E40: 01 80 02 17 00 02 80 00  51 0E 3C 1A 00 22 00 01  ........Q.<.."..
0E50: 80 0B 22 00 0B 24 00 01  39 0D 0F 1A 00 0A 81 10  .."..$..9.......
0E60: 1A 00 01 80 3D 1A 00 02  80 01 80 03 24 00 02 80  ....=.......$...
0E70: 03 22 00 02 80 03 26 00  FA 80 02 24 00 04 81 03  ."....&....$....
0E80: 91 0F 3E 26 00 24 00 8B  0F 03 17 00 02 80 02 24  ..>&.$.........$
0E90: 00 E9 80 04 AF 0E 02 24  00 EE 80 03 AF 0E 03 17  .......$........
0EA0: 00 01 80 3E 05 10 02 80  AF 0E 03 17 00 02 80 02  ...>............
0EB0: 24 00 EE 80 04 D0 0E 02  24 00 05 81 03 D0 0E 03  $.......$.......
0EC0: 17 00 01 80 3E 05 10 01  80 D0 0E 03 17 00 02 80  ....>...........
0ED0: 02 24 00 05 81 04 F1 0E  02 24 00 06 81 03 F1 0E  .$.......$......
0EE0: 03 17 00 01 80 3E 05 10  05 80 F1 0E 03 17 00 02  .....>..........
0EF0: 80 02 24 00 06 81 04 12  0F 02 24 00 07 81 03 12  ..$.......$.....
0F00: 0F 03 17 00 01 80 3E 05  10 07 80 12 0F 03 17 00  ......>.........
0F10: 02 80 02 24 00 07 81 04  33 0F 02 24 00 08 81 03  ...$....3..$....
0F20: 33 0F 03 17 00 01 80 3E  05 10 DF 80 33 0F 03 17  3......>....3...
0F30: 00 02 80 02 24 00 08 81  04 54 0F 02 24 00 09 81  ....$....T..$...
0F40: 03 54 0F 03 17 00 01 80  3E 05 10 D5 80 54 0F 03  .T......>....T..
0F50: 17 00 02 80 02 24 00 09  81 04 6D 0F 03 17 00 01  .....$....m.....
0F60: 80 3E 05 10 E3 80 6D 0F  03 17 00 02 80 3E 08 10  .>....m......>..
0F70: 24 00 79 0F 03 17 00 01  80 02 17 00 02 80 00 88  $.y.............
0F80: 0F 3C 1B 00 22 00 01 80  0B 22 00 0B 24 00 01 7A  .<.."...."..$..z
0F90: 0E 03 24 00 02 80 03 26  00 02 80 02 24 00 04 81  ..$....&....$...
0FA0: 03 BC 10 3E 26 00 24 00  B6 10 03 17 00 02 80 03  ...>&.$.........
0FB0: 25 00 24 00 07 25 00 04  81 02 25 00 E9 80 04 DA  %.$..%....%.....
0FC0: 0F 02 25 00 EE 80 03 DA  0F 03 17 00 01 80 3E 05  ..%...........>.
0FD0: 10 02 80 DA 0F 03 17 00  02 80 02 25 00 EE 80 04  ...........%....
0FE0: FB 0F 02 25 00 05 81 03  FB 0F 03 17 00 01 80 3E  ...%...........>
0FF0: 05 10 01 80 FB 0F 03 17  00 02 80 02 25 00 05 81  ............%...
1000: 04 1C 10 02 25 00 06 81  03 1C 10 03 17 00 01 80  ....%...........
1010: 3E 05 10 05 80 1C 10 03  17 00 02 80 02 25 00 06  >............%..
1020: 81 04 3D 10 02 25 00 07  81 03 3D 10 03 17 00 01  ..=..%....=.....
1030: 80 3E 05 10 07 80 3D 10  03 17 00 02 80 02 25 00  .>....=.......%.
1040: 07 81 04 5E 10 02 25 00  08 81 03 5E 10 03 17 00  ...^..%....^....
1050: 01 80 3E 05 10 DF 80 5E  10 03 17 00 02 80 02 25  ..>....^.......%
1060: 00 08 81 04 7F 10 02 25  00 09 81 03 7F 10 03 17  .......%........
1070: 00 01 80 3E 05 10 D5 80  7F 10 03 17 00 02 80 02  ...>............
1080: 25 00 09 81 04 98 10 03  17 00 01 80 3E 05 10 E3  %...........>...
1090: 80 98 10 03 17 00 02 80  3E 09 10 24 00 A4 10 03  ........>..$....
10A0: 17 00 01 80 02 17 00 02  80 00 B3 10 3C 1B 00 22  ............<.."
10B0: 00 01 80 0B 22 00 0B 24  00 01 9B 0F 0F 1B 00 0A  ...."..$........
10C0: 81 10 1B 00 01 80 3D 1B  00 02 80 01 80 03 24 00  ......=.......$.
10D0: 02 80 03 22 00 02 80 03  26 00 FB 80 02 24 00 04  ..."....&....$..
10E0: 81 03 F3 11 3E 26 00 24  00 ED 11 03 17 00 02 80  ....>&.$........
10F0: 02 24 00 E9 80 04 11 11  02 24 00 EE 80 03 11 11  .$.......$......
1100: 03 17 00 01 80 3E 05 10  02 80 11 11 03 17 00 02  .....>..........
1110: 80 02 24 00 EE 80 04 32  11 02 24 00 05 81 03 32  ..$....2..$....2
1120: 11 03 17 00 01 80 3E 05  10 01 80 32 11 03 17 00  ......>....2....
1130: 02 80 02 24 00 05 81 04  53 11 02 24 00 06 81 03  ...$....S..$....
1140: 53 11 03 17 00 01 80 3E  05 10 05 80 53 11 03 17  S......>....S...
1150: 00 02 80 02 24 00 06 81  04 74 11 02 24 00 07 81  ....$....t..$...
1160: 03 74 11 03 17 00 01 80  3E 05 10 07 80 74 11 03  .t......>....t..
1170: 17 00 02 80 02 24 00 07  81 04 95 11 02 24 00 08  .....$.......$..
1180: 81 03 95 11 03 17 00 01  80 3E 05 10 DF 80 95 11  .........>......
1190: 03 17 00 02 80 02 24 00  08 81 04 B6 11 02 24 00  ......$.......$.
11A0: 09 81 03 B6 11 03 17 00  01 80 3E 05 10 D5 80 B6  ..........>.....
11B0: 11 03 17 00 02 80 02 24  00 09 81 04 CF 11 03 17  .......$........
11C0: 00 01 80 3E 05 10 E3 80  CF 11 03 17 00 02 80 3E  ...>...........>
11D0: 08 10 24 00 DB 11 03 17  00 01 80 02 17 00 02 80  ..$.............
11E0: 00 EA 11 3C 1C 00 22 00  01 80 0B 22 00 0B 24 00  ...<.."...."..$.
11F0: 01 DC 10 03 24 00 02 80  03 26 00 02 80 02 24 00  ....$....&....$.
1200: 04 81 03 1E 13 3E 26 00  24 00 18 13 03 17 00 02  .....>&.$.......
1210: 80 03 25 00 24 00 07 25  00 04 81 02 25 00 E9 80  ..%.$..%....%...
1220: 04 3C 12 02 25 00 EE 80  03 3C 12 03 17 00 01 80  .<..%....<......
1230: 3E 05 10 02 80 3C 12 03  17 00 02 80 02 25 00 EE  >....<.......%..
1240: 80 04 5D 12 02 25 00 05  81 03 5D 12 03 17 00 01  ..]..%....].....
1250: 80 3E 05 10 01 80 5D 12  03 17 00 02 80 02 25 00  .>....].......%.
1260: 05 81 04 7E 12 02 25 00  06 81 03 7E 12 03 17 00  ...~..%....~....
1270: 01 80 3E 05 10 05 80 7E  12 03 17 00 02 80 02 25  ..>....~.......%
1280: 00 06 81 04 9F 12 02 25  00 07 81 03 9F 12 03 17  .......%........
1290: 00 01 80 3E 05 10 07 80  9F 12 03 17 00 02 80 02  ...>............
12A0: 25 00 07 81 04 C0 12 02  25 00 08 81 03 C0 12 03  %.......%.......
12B0: 17 00 01 80 3E 05 10 DF  80 C0 12 03 17 00 02 80  ....>...........
12C0: 02 25 00 08 81 04 E1 12  02 25 00 09 81 03 E1 12  .%.......%......
12D0: 03 17 00 01 80 3E 05 10  D5 80 E1 12 03 17 00 02  .....>..........
12E0: 80 02 25 00 09 81 04 FA  12 03 17 00 01 80 3E 05  ..%...........>.
12F0: 10 E3 80 FA 12 03 17 00  02 80 3E 09 10 24 00 06  ..........>..$..
1300: 13 03 17 00 01 80 02 17  00 02 80 00 15 13 3C 1C  ..............<.
1310: 00 22 00 01 80 0B 22 00  0B 24 00 01 FD 11 0F 1C  ."...."..$......
1320: 00 0A 81 10 1C 00 01 80  3D 1C 00 02 80 01 80 1D  ........=.......
1330: 0B 81 23 05 1E 00 03 21  00 02 80 03 1D 00 0A 81  ..#....!........
1340: 03 17 00 02 80 0C 11 00  15 11 00 DF 80 0B 11 00  ................
1350: 02 17 00 11 00 05 65 13  3D 1D 00 17 00 01 80 0B  ......e.=.......
1360: 17 00 01 50 13 02 1E 00  02 80 01 6E 16 03 02 10  ...P.......n....
1370: 09 81 03 03 10 0C 81 03  04 10 0E 80 24 0D 81 02  ............$...
1380: 80 1D 00 25 02 00 10 02  80 00 92 13 06 1E 00 01  ...%............
1390: C1 14 02 00 10 01 80 00  F7 13 03 19 00 1A 00 03  ................
13A0: 02 10 0E 81 03 03 10 0F  81 03 04 10 10 81 03 05  ................
13B0: 10 11 81 03 06 10 12 81  03 07 10 13 81 03 08 10  ................
13C0: 14 81 03 09 10 15 81 03  00 17 16 81 03 01 17 17  ................
13D0: 81 03 02 17 18 81 03 03  17 19 81 03 04 17 1A 81  ................
13E0: 03 05 17 1B 81 03 06 17  1C 81 03 07 17 1D 81 03  ................
13F0: 08 17 1E 81 01 C1 14 02  00 10 05 80 00 5C 14 03  .............\..
1400: 19 00 1B 00 03 02 10 1F  81 03 03 10 20 81 03 04  ............ ...
1410: 10 21 81 03 05 10 22 81  03 06 10 23 81 03 07 10  .!...."....#....
1420: 24 81 03 08 10 02 80 03  09 10 02 80 03 00 17 02  $...............
1430: 80 03 01 17 02 80 03 02  17 02 80 03 03 17 02 80  ................
1440: 03 04 17 02 80 03 05 17  02 80 03 06 17 02 80 03  ................
1450: 07 17 02 80 03 08 17 02  80 01 C1 14 02 00 10 07  ................
1460: 80 00 C1 14 03 19 00 1C  00 03 02 10 25 81 03 03  ............%...
1470: 10 26 81 03 04 10 27 81  03 05 10 28 81 03 06 10  .&....'....(....
1480: 29 81 03 07 10 2A 81 03  08 10 2B 81 03 09 10 2C  )....*....+....,
1490: 81 03 00 17 02 80 03 01  17 02 80 03 02 17 02 80  ................
14A0: 03 03 17 02 80 03 04 17  02 80 03 05 17 02 80 03  ................
14B0: 06 17 02 80 03 07 17 02  80 03 08 17 02 80 01 C1  ................
14C0: 14 02 00 10 02 80 01 6B  16 40 E6 80 D1 80 21 00  .......k.@....!.
14D0: 00 10 05 1F 00 02 1F 00  02 80 01 6B 16 24 2D 81  ...........k.$-.
14E0: 02 80 19 00 25 02 00 10  02 80 00 FC 14 06 1F 00  ....%...........
14F0: 40 E6 80 D1 80 21 00 02  80 01 0C 16 02 00 10 01  @....!..........
1500: 80 00 0C 15 03 15 00 02  10 01 0C 16 02 00 10 05  ................
1510: 80 00 1C 15 03 15 00 03  10 01 0C 16 02 00 10 07  ................
1520: 80 00 2C 15 03 15 00 04  10 01 0C 16 02 00 10 DF  ..,.............
1530: 80 00 3C 15 03 15 00 05  10 01 0C 16 02 00 10 D5  ..<.............
1540: 80 00 4C 15 03 15 00 06  10 01 0C 16 02 00 10 E3  ..L.............
1550: 80 00 5C 15 03 15 00 07  10 01 0C 16 02 00 10 E5  ..\.............
1560: 80 00 6C 15 03 15 00 08  10 01 0C 16 02 00 10 E6  ..l.............
1570: 80 00 7C 15 03 15 00 09  10 01 0C 16 02 00 10 E7  ..|.............
1580: 80 00 8C 15 03 15 00 00  17 01 0C 16 02 00 10 0C  ................
1590: 80 00 9C 15 03 15 00 01  17 01 0C 16 02 00 10 E9  ................
15A0: 80 00 AC 15 03 15 00 02  17 01 0C 16 02 00 10 EA  ................
15B0: 80 00 BC 15 03 15 00 03  17 01 0C 16 02 00 10 EB  ................
15C0: 80 00 CC 15 03 15 00 04  17 01 0C 16 02 00 10 EF  ................
15D0: 80 00 DC 15 03 15 00 05  17 01 0C 16 02 00 10 D1  ................
15E0: 80 00 EC 15 03 15 00 06  17 01 0C 16 02 00 10 D2  ................
15F0: 80 00 FC 15 03 15 00 07  17 01 0C 16 02 00 10 ED  ................
1600: 80 00 0C 16 03 15 00 08  17 01 0C 16 02 00 10 02  ................
1610: 80 01 68 16 40 D2 80 D3  80 21 00 00 10 93 15 00  ..h.@....!......
1620: 03 1F 17 16 00 1D 2E 81  23 93 02 80 24 2F 81 01  ........#...$/..
1630: 80 02 80 25 02 00 10 02  80 00 54 16 42 06 1E 00  ...%......T.B...
1640: 06 1F 00 40 02 80 E5 80  21 00 DF 80 03 01 10 21  ...@....!......!
1650: 00 01 68 16 02 00 10 01  80 00 68 16 40 D2 80 D3  ..h.......h.@...
1660: 80 21 00 02 80 01 68 16  01 D5 14 01 65 13 1B 41  .!....h.....e..A
1670: 02 80 02 80 02 10 27 00  41 01 80 05 80 02 10 28  ......'.A......(
1680: 00 41 07 80 D5 80 02 10  29 00 41 E3 80 E3 80 02  .A......).A.....
1690: 10 2A 00 41 02 80 D5 80  03 10 2B 00 41 E3 80 E9  .*.A......+.A...
16A0: 80 03 10 2C 00 41 EA 80  ED 80 03 10 2D 00 41 EE  ...,.A......-.A.
16B0: 80 30 81 03 10 2E 00 41  31 81 08 81 03 10 2F 00  .0.....A1...../.
16C0: 20 01 1C 0E 80 03 30 00  02 80 02 27 00 02 80 00   .....0....'....
16D0: FD 16 24 32 81 01 80 02  80 25 02 00 10 02 80 00  ..$2.....%......
16E0: EA 16 03 30 00 01 80 01  FA 16 02 00 10 01 80 00  ...0............
16F0: FA 16 03 01 10 33 81 01  FA 16 01 A7 17 24 34 81  .....3.......$4.
1700: 02 80 02 80 25 02 00 10  02 80 00 15 17 03 01 10  ....%...........
1710: 33 81 01 A7 17 02 00 10  01 80 00 5E 17 02 2A 00  3..........^..*.
1720: 01 80 00 2E 17 03 02 10  02 80 1D 35 81 23 03 02  ...........5.#..
1730: 10 02 80 24 36 81 01 80  02 80 25 02 00 10 02 80  ...$6.....%.....
1740: 00 4B 17 03 30 00 01 80  01 5B 17 02 00 10 01 80  .K..0....[......
1750: 00 5B 17 03 01 10 33 81  01 5B 17 01 A7 17 02 00  .[....3..[......
1760: 10 05 80 00 A7 17 02 2A  00 01 80 00 77 17 03 02  .......*....w...
1770: 10 01 80 1D 35 81 23 03  02 10 01 80 24 36 81 01  ....5.#.....$6..
1780: 80 02 80 25 02 00 10 02  80 00 94 17 03 01 10 37  ...%...........7
1790: 81 01 A4 17 02 00 10 01  80 00 A4 17 03 01 10 33  ...............3
17A0: 81 01 A4 17 01 A7 17 02  30 00 01 80 00 94 18 03  ........0.......
17B0: 31 00 02 80 03 02 10 2B  00 03 03 10 2C 00 03 04  1......+....,...
17C0: 10 2D 00 03 05 10 2E 00  03 06 10 2F 00 02 2B 00  .-........./..+.
17D0: 38 81 04 DC 17 3C 31 00  01 80 01 80 02 2C 00 38  8....<1......,.8
17E0: 81 04 EB 17 3C 31 00 05  80 01 80 02 2D 00 38 81  ....<1......-.8.
17F0: 04 FA 17 3C 31 00 07 80  01 80 02 2E 00 38 81 04  ...<1........8..
1800: 09 18 3C 31 00 DF 80 01  80 02 2F 00 38 81 04 18  ..<1....../.8...
1810: 18 3C 31 00 D5 80 01 80  02 31 00 39 81 00 2C 18  .<1......1.9..,.
1820: 1D 3A 81 23 03 01 10 33  81 01 94 18 24 3B 81 02  .:.#...3....$;..
1830: 80 31 00 25 02 00 10 02  80 00 44 18 03 01 10 33  .1.%......D....3
1840: 81 01 94 18 02 00 10 01  80 00 54 18 03 01 10 3C  ..........T....<
1850: 81 01 94 18 02 00 10 05  80 00 64 18 03 01 10 3D  ..........d....=
1860: 81 01 94 18 02 00 10 07  80 00 74 18 03 01 10 3E  ..........t....>
1870: 81 01 94 18 02 00 10 DF  80 00 84 18 03 01 10 3F  ...............?
1880: 81 01 94 18 02 00 10 D5  80 00 94 18 03 01 10 40  ...............@
1890: 81 01 94 18 1B 42 3E 03  10 02 80 BE 18 02 04 10  .....B>.........
18A0: 0C 80 03 B6 18 03 02 10  0C 80 1D 41 81 23 48 42  ...........A.#HB
18B0: 81 23 1B 01 BB 18 03 02  10 0C 80 01 05 19 02 0E  .#..............
18C0: 00 DF 80 00 E7 18 02 04  10 38 81 03 DF 18 03 02  .........8......
18D0: 10 38 81 1D 41 81 23 48  42 81 23 1B 01 E4 18 03  .8..A.#HB.#.....
18E0: 02 10 38 81 01 05 19 02  04 10 09 81 03 00 19 03  ..8.............
18F0: 02 10 09 81 1D 41 81 23  48 42 81 23 1B 01 05 19  .....A.#HB.#....
1900: 03 02 10 09 81 1D 41 81  23 24 43 81 01 80 02 80  ......A.#$C.....
1910: 25 02 00 10 02 80 00 4A  19 03 01 10 01 80 43 00  %......J......C.
1920: 43 01 1D 44 81 73 45 81  F8 FF FF 7F F0 FF FF 7F  C..D.sE.........
1930: 1C 03 81 45 0F 80 F0 FF  FF 7F F0 FF FF 7F 66 64  ...E..........fd
1940: 6F 31 02 80 1C 0E 80 01  55 19 02 00 10 01 80 00  o1......U.......
1950: 55 19 01 55 19 1B 42 03  0F 00 02 80 24 46 81 02  U..U..B.....$F..
1960: 80 0F 00 25 02 00 10 02  80 00 70 19 1B 01 FC 19  ...%......p.....
1970: 02 00 10 01 80 00 96 19  1D 47 81 23 1D 48 81 23  .........G.#.H.#
1980: 1D 49 81 23 1D 4A 81 23  1D 4B 81 23 1D 4C 81 23  .I.#.J.#.K.#.L.#
1990: 01 56 19 01 FC 19 02 00  10 05 80 00 B4 19 1D 4D  .V.............M
19A0: 81 23 1D 4E 81 23 1D 4F  81 23 1D 4C 81 23 01 56  .#.N.#.O.#.L.#.V
19B0: 19 01 FC 19 02 00 10 07  80 00 D6 19 1D 50 81 23  .............P.#
19C0: 1D 51 81 23 1D 52 81 23  1D 53 81 23 1D 4C 81 23  .Q.#.R.#.S.#.L.#
19D0: 01 56 19 01 FC 19 02 00  10 DF 80 00 FC 19 1D 54  .V.............T
19E0: 81 23 1D 55 81 23 1D 56  81 23 1D 57 81 23 1D 58  .#.U.#.V.#.W.#.X
19F0: 81 23 1D 4C 81 23 01 56  19 01 FC 19              .#.L.#.V....    
```

#### Opcodes

```
  0: 0x09DA [0x00] END_REQSTACK()
```

#### Data or dead code:

```
# Dead code (unreachable instructions):
     0x09DB [0x03] ExtData[1]->WorkLocal[22] = Work_Zone[4]
     0x09E0 [0x20] SET_CLI_EVENT_UC_FLAG: Lock player control
     0x09E2 [0x1E] EventEntity looks at LocalPlayer and starts talking
     0x09E7 [0x6F] WAIT_FRAME_DELAY: Yield until WaitTime reaches zero
     0x09E8 [0x70] WAIT_ENTITY_RENDER_FLAG: Wait while EventEntity->Render.Flags3 bit 2 is set (cancel turn if not)
     0x09E9 [0x02] IF !(ExtData[1]->WorkLocal[14] == 0*) GOTO 0x09FB
     0x09F1 [0x1D] PRINT_EVENT_MESSAGE(message_id=7086*)
    → "Greetings. I am % of the San d'Orian Provincial Knights."
     0x09F4 [0x23] WAIT_FOR_DIALOG_INTERACTION
     0x09F5 [0x01] GOTO 0x0A31
     0x09F8 [0x01] GOTO 0x0A31
     0x09FB [0x02] IF !(ExtData[1]->WorkLocal[14] == 1*) GOTO 0x0A0D
     0x0A03 [0x1D] PRINT_EVENT_MESSAGE(message_id=7087*)
    → "Greetings. I am % of the Bastokan Legion."
     0x0A06 [0x23] WAIT_FOR_DIALOG_INTERACTION
     0x0A07 [0x01] GOTO 0x0A31
     0x0A0A [0x01] GOTO 0x0A31
     0x0A0D [0x02] IF !(ExtData[1]->WorkLocal[14] == 2*) GOTO 0x0A1F
     0x0A15 [0x1D] PRINT_EVENT_MESSAGE(message_id=7088*)
    → "Greetings. I am % of the Federation of Windurst."
     0x0A18 [0x23] WAIT_FOR_DIALOG_INTERACTION
     0x0A19 [0x01] GOTO 0x0A31
     0x0A1C [0x01] GOTO 0x0A31
     0x0A1F [0x02] IF !(ExtData[1]->WorkLocal[14] == 4*) GOTO 0x0A31
     0x0A27 [0x1D] PRINT_EVENT_MESSAGE(message_id=7089*)
    → "Greetings. I am %, Campaign Arbiter for the Allied Forces."
     0x0A2A [0x23] WAIT_FOR_DIALOG_INTERACTION
     0x0A2B [0x01] GOTO 0x0A31
     0x0A2E [0x01] GOTO 0x0A31
     0x0A31 [0x03] ExtData[1]->WorkLocal[15] = 0*
     0x0A36 [0x3E] IF !(Work_Zone[3] bit 0*) GOTO 0x0A40
     0x0A3D [0x01] GOTO 0x0A47
     0x0A40 [0x3C] SET_BIT_FLAG_CONDITIONAL(target_work_offset=ExtData[1]->WorkLocal[15], bit_index_work_offset=3*, condition_work_offset=1*)
     0x0A47 [0x3E] IF !(Work_Zone[3] bit 2*) GOTO 0x0A51
     0x0A4E [0x01] GOTO 0x0A5F
     0x0A51 [0x3C] SET_BIT_FLAG_CONDITIONAL(target_work_offset=ExtData[1]->WorkLocal[15], bit_index_work_offset=2*, condition_work_offset=1*)
     0x0A58 [0x3C] SET_BIT_FLAG_CONDITIONAL(target_work_offset=ExtData[1]->WorkLocal[15], bit_index_work_offset=3*, condition_work_offset=1*)
     0x0A5F [0x3E] IF !(Work_Zone[3] bit 3*) GOTO 0x0A6E
     0x0A66 [0x03] ExtData[1]->WorkLocal[18] = 1*
     0x0A6B [0x01] GOTO 0x0A73
     0x0A6E [0x03] ExtData[1]->WorkLocal[18] = 0*
     0x0A73 [0x3E] IF !(Work_Zone[3] bit 4*) GOTO 0x0A84
     0x0A7A [0x3C] SET_BIT_FLAG_CONDITIONAL(target_work_offset=ExtData[1]->WorkLocal[15], bit_index_work_offset=2*, condition_work_offset=1*)
     0x0A81 [0x01] GOTO 0x0A99
     0x0A84 [0x3C] SET_BIT_FLAG_CONDITIONAL(target_work_offset=ExtData[1]->WorkLocal[15], bit_index_work_offset=1*, condition_work_offset=1*)
     0x0A8B [0x3C] SET_BIT_FLAG_CONDITIONAL(target_work_offset=ExtData[1]->WorkLocal[15], bit_index_work_offset=3*, condition_work_offset=1*)
     0x0A92 [0x3C] SET_BIT_FLAG_CONDITIONAL(target_work_offset=ExtData[1]->WorkLocal[15], bit_index_work_offset=4*, condition_work_offset=1*)
     0x0A99 [0x3E] IF !(Work_Zone[3] bit 5*) GOTO 0x0AA7
     0x0AA0 [0x3C] SET_BIT_FLAG_CONDITIONAL(target_work_offset=ExtData[1]->WorkLocal[15], bit_index_work_offset=5*, condition_work_offset=1*)
     0x0AA7 [0x3E] IF !(Work_Zone[3] bit 6*) GOTO 0x0AB4
     0x0AAE [0x05] ExtData[1]->WorkLocal[24] = 1
     0x0AB1 [0x01] GOTO 0x0AB7
     0x0AB4 [0x06] ExtData[1]->WorkLocal[24] = 0
     0x0AB7 [0x41] ExtData[1]->WorkLocal[17] = Work_Zone[7] (bits 0*-15*)
     0x0AC0 [0x41] ExtData[1]->WorkLocal[16] = Work_Zone[7] (bits 16*-31*)
     0x0AC9 [0x02] IF !(ExtData[1]->WorkLocal[16] == 0*) GOTO 0x0AD8
     0x0AD1 [0x3C] SET_BIT_FLAG_CONDITIONAL(target_work_offset=ExtData[1]->WorkLocal[15], bit_index_work_offset=3*, condition_work_offset=1*)
     0x0AD8 [0x03] ExtData[1]->WorkLocal[19] = 0*
     0x0ADD [0x0E] ExtData[1]->WorkLocal[19] |= 2124167461*
     0x0AE2 [0x0E] ExtData[1]->WorkLocal[19] |= 4292746*
     0x0AE7 [0x0E] ExtData[1]->WorkLocal[19] |= 19023440*
     0x0AEC [0x03] ExtData[1]->WorkLocal[20] = 0*
     0x0AF1 [0x0E] ExtData[1]->WorkLocal[20] |= 0*
     0x0AF6 [0x0E] ExtData[1]->WorkLocal[20] |= 0*
     0x0AFB [0x0E] ExtData[1]->WorkLocal[20] |= 0*
     0x0B00 [0x02] IF !(Work_Zone[8] == ExtData[1]->WorkLocal[19]) GOTO 0x0B17
     0x0B08 [0x02] IF !(Work_Zone[9] == ExtData[1]->WorkLocal[20]) GOTO 0x0B17
     0x0B10 [0x3C] SET_BIT_FLAG_CONDITIONAL(target_work_offset=ExtData[1]->WorkLocal[15], bit_index_work_offset=3*, condition_work_offset=1*)
     0x0B17 [0x24] CREATE_DIALOG(message_id=7090*, default_option=0*, option_flags=ExtData[1]->WorkLocal[15])
    → "What can I help you with? [Nothing./Performance assessment./New Allied Tags./Temporary items./Union registration./Teleportation./Information on the Allied Campaign.]"
     0x0B1E [0x25] WAIT_DIALOG_SELECT()
     0x0B1F [0x02] IF !(Work_Zone[0] == 0*) GOTO 0x0B2A
     0x0B27 [0x01] GOTO 0x0BC2
     0x0B2A [0x02] IF !(Work_Zone[0] == 1*) GOTO 0x0B38
     0x0B32 [0x1A] CALL_SUBROUTINE(address=0x0BC7)
     0x0B35 [0x01] GOTO 0x0BC2
     0x0B38 [0x02] IF !(Work_Zone[0] == 2*) GOTO 0x0B64
     0x0B40 [0x02] IF !(ExtData[1]->WorkLocal[18] == 0*) GOTO 0x0B5D
     0x0B48 [0x02] IF !(ExtData[1]->WorkLocal[24] == 0*) GOTO 0x0B56
     0x0B50 [0x1A] CALL_SUBROUTINE(address=0x0BD2)
     0x0B53 [0x01] GOTO 0x0B5A
     0x0B56 [0x1D] PRINT_EVENT_MESSAGE(message_id=7096*)
    → "You've already undergone an evaluation for this battle, or had you forgotten? As much as I'd like to, I'm forbidden from providing you with a new set of Allied Taegs until the next battle begins."
     0x0B59 [0x23] WAIT_FOR_DIALOG_INTERACTION
     0x0B5A [0x01] GOTO 0x0B61
     0x0B5D [0x1D] PRINT_EVENT_MESSAGE(message_id=7136*)
    → "I am sorry, <Player>, but your campaign medal has expired. I cannot issue tags to anyone not authorized by the Allied Forces. Return to your nation's capital and speak with a Campaign Evaluation Official."
     0x0B60 [0x23] WAIT_FOR_DIALOG_INTERACTION
     0x0B61 [0x01] GOTO 0x0BC2
     0x0B64 [0x02] IF !(Work_Zone[0] == 3*) GOTO 0x0B81
     0x0B6C [0x02] IF !(ExtData[1]->WorkLocal[18] == 0*) GOTO 0x0B7A
     0x0B74 [0x1A] CALL_SUBROUTINE(address=0x0BEB)
     0x0B77 [0x01] GOTO 0x0B7E
     0x0B7A [0x1D] PRINT_EVENT_MESSAGE(message_id=7136*)
    → "I am sorry, <Player>, but your campaign medal has expired. I cannot issue tags to anyone not authorized by the Allied Forces. Return to your nation's capital and speak with a Campaign Evaluation Official."
     0x0B7D [0x23] WAIT_FOR_DIALOG_INTERACTION
     0x0B7E [0x01] GOTO 0x0BC2
     0x0B81 [0x02] IF !(Work_Zone[0] == 4*) GOTO 0x0BA6
     0x0B89 [0x03] Work_Zone[1] = 111*
     0x0B8E [0x43] SEND_EVENT_UPDATE: Send pending tag to server (packet 0x005B)
     0x0B90 [0x43] SEND_EVENT_UPDATE: Check pending flag (skip if not pending)
     0x0B92 [0x02] IF !(Work_Zone[4] == 0*) GOTO 0x0BA0
