# 17339125 - 03

## Common Data

| Field            | Value                   |
|------------------|-------------------------|
| Zone             | Xarcabard [S] (ID: 137) |
| Block Size       | 248 bytes               |
| Total Events     | 10                      |
| References Count | 21                      |

## List of Events

| Event ID                 | Entrypoint   |   Size |   Instructions |
|--------------------------|--------------|--------|----------------|
| [65535](#event-65535)    | 0x0000       |      1 |              1 |
| [7](#event-7)            | 0x0001       |      1 |              1 |
| [65535.1](#event-655351) | 0x0002       |     10 |              2 |
| [65535.2](#event-655352) | 0x000C       |     10 |              2 |
| [31](#event-31)          | 0x0016       |      1 |              1 |
| [17](#event-17)          | 0x0017       |      1 |              1 |
| [65535.3](#event-655353) | 0x0018       |     26 |              3 |
| [65535.4](#event-655354) | 0x0032       |     21 |              2 |
| [65535.5](#event-655355) | 0x0047       |     21 |              2 |
| [65535.6](#event-655356) | 0x005C       |     14 |              4 |

## DAT References (imed_data)

|   Index | Hex Value   |   Dec Value |
|---------|-------------|-------------|
|       0 | 0x0000      |           0 |
|       1 | 0x0001      |           1 |
|       2 | 0x0080      |         128 |
|       3 | 0x0004      |           4 |
|       4 | 0x0009      |           9 |
|       5 | 0x001D      |          29 |
|       6 | 0x0021      |          33 |
|       7 | 0x001A      |          26 |
|       8 | 0x000D      |          13 |
|       9 | 0x00CA      |         202 |
|      10 | 0x0003      |           3 |
|      11 | 0x000C      |          12 |
|      12 | 0x00DD      |         221 |
|      13 | 0x00FB      |         251 |
|      14 | 0x001B      |          27 |
|      15 | 0x0008      |           8 |
|      16 | 0x0006      |           6 |
|      17 | 0x0002      |           2 |
|      18 | 0x809A0     |      526752 |
|      19 | 0xFFFBD1CA  |  4294693322 |
|      20 | 0x00C7      |         199 |

## Events

### Event 65535

#### Metadata

| Field        | Value   |
|--------------|---------|
| Entrypoint   | 0x0000  |
| Data Size    | 1 bytes |
| Instructions | 1       |

```
      00 01 02 03 04 05 06 07  08 09 0A 0B 0C 0D 0E 0F
      -- -- -- -- -- -- -- --  -- -- -- -- -- -- -- --
0000: 00                                                .               
```

#### Opcodes

```
  0: 0x0000 [0x00] END_REQSTACK()
```

### Event 7

#### Metadata

| Field        | Value   |
|--------------|---------|
| Entrypoint   | 0x0001  |
| Data Size    | 1 bytes |
| Instructions | 1       |

```
      00 01 02 03 04 05 06 07  08 09 0A 0B 0C 0D 0E 0F
      -- -- -- -- -- -- -- --  -- -- -- -- -- -- -- --
0000:    00                                              .              
```

#### Opcodes

```
  0: 0x0001 [0x00] END_REQSTACK()
```

### Event 65535.1

#### Metadata

| Field        | Value    |
|--------------|----------|
| Entrypoint   | 0x0002   |
| Data Size    | 10 bytes |
| Instructions | 2        |

```
      00 01 02 03 04 05 06 07  08 09 0A 0B 0C 0D 0E 0F
      -- -- -- -- -- -- -- --  -- -- -- -- -- -- -- --
0000:       6C F5 92 08 01 00  80 01 80 00                l.........    
```

#### Opcodes

```
  0: 0x0002 [0x6C] FADE_ENTITY_COLOR(entity_id=03 (ID: 17339125/0x010892F5), end_alpha=0*, fade_time=1*)
  1: 0x000B [0x00] END_REQSTACK()
```

### Event 65535.2

#### Metadata

| Field        | Value    |
|--------------|----------|
| Entrypoint   | 0x000C   |
| Data Size    | 10 bytes |
| Instructions | 2        |

```
      00 01 02 03 04 05 06 07  08 09 0A 0B 0C 0D 0E 0F
      -- -- -- -- -- -- -- --  -- -- -- -- -- -- -- --
0000:                                      6C F5 92 08              l...
0010: 01 02 80 01 80 00                                 ......          
```

#### Opcodes

```
  0: 0x000C [0x6C] FADE_ENTITY_COLOR(entity_id=03 (ID: 17339125/0x010892F5), end_alpha=128*, fade_time=1*)
  1: 0x0015 [0x00] END_REQSTACK()
```

### Event 31

#### Metadata

| Field        | Value   |
|--------------|---------|
| Entrypoint   | 0x0016  |
| Data Size    | 1 bytes |
| Instructions | 1       |

```
      00 01 02 03 04 05 06 07  08 09 0A 0B 0C 0D 0E 0F
      -- -- -- -- -- -- -- --  -- -- -- -- -- -- -- --
0010:                   00                                    .         
```

#### Opcodes

```
  0: 0x0016 [0x00] END_REQSTACK()
```

### Event 17

#### Metadata

| Field        | Value   |
|--------------|---------|
| Entrypoint   | 0x0017  |
| Data Size    | 1 bytes |
| Instructions | 1       |

```
      00 01 02 03 04 05 06 07  08 09 0A 0B 0C 0D 0E 0F
      -- -- -- -- -- -- -- --  -- -- -- -- -- -- -- --
0010:                      00                                  .        
```

#### Opcodes

```
  0: 0x0017 [0x00] END_REQSTACK()
```

### Event 65535.3

#### Metadata

| Field        | Value    |
|--------------|----------|
| Entrypoint   | 0x0018   |
| Data Size    | 26 bytes |
| Instructions | 3        |

```
      00 01 02 03 04 05 06 07  08 09 0A 0B 0C 0D 0E 0F
      -- -- -- -- -- -- -- --  -- -- -- -- -- -- -- --
0010:                          B6 0B 03 80 04 80 05 80          ........
0020: 06 80 07 80 05 80 08 80  09 80 00 80 80 F5 92 08  ................
0030: 01 00                                             ..              
```

#### Opcodes

```
  0: 0x0018 [0xB6] ENTITY_APPEARANCE_HANDLER(case=Full entity look, race=4*, hair=9*, head=29*, body=33*, hands=26*, legs=29*, feet=13*, main=202*, sub=0*)
  1: 0x002C [0x80] LOAD_WAIT(entity=03 (ID: 17339125/0x010892F5))
  2: 0x0031 [0x00] END_REQSTACK()
```

### Event 65535.4

#### Metadata

| Field        | Value    |
|--------------|----------|
| Entrypoint   | 0x0032   |
| Data Size    | 21 bytes |
| Instructions | 2        |

```
      00 01 02 03 04 05 06 07  08 09 0A 0B 0C 0D 0E 0F
      -- -- -- -- -- -- -- --  -- -- -- -- -- -- -- --
0030:       B6 0B 0A 80 0B 80  08 80 0C 80 08 80 0B 80    ..............
0040: 0C 80 0D 80 0E 80 00                              .......         
```

#### Opcodes

```
  0: 0x0032 [0xB6] ENTITY_APPEARANCE_HANDLER(case=Full entity look, race=3*, hair=12*, head=13*, body=221*, hands=13*, legs=12*, feet=221*, main=251*, sub=27*)
  1: 0x0046 [0x00] END_REQSTACK()
```

### Event 65535.5

#### Metadata

| Field        | Value    |
|--------------|----------|
| Entrypoint   | 0x0047   |
| Data Size    | 21 bytes |
| Instructions | 2        |

```
      00 01 02 03 04 05 06 07  08 09 0A 0B 0C 0D 0E 0F
      -- -- -- -- -- -- -- --  -- -- -- -- -- -- -- --
0040:                      B6  0B 0F 80 10 80 11 80 11         .........
0050: 80 11 80 11 80 11 80 0D  80 00 80 00              ............    
```

#### Opcodes

```
  0: 0x0047 [0xB6] ENTITY_APPEARANCE_HANDLER(case=Full entity look, race=8*, hair=6*, head=2*, body=2*, hands=2*, legs=2*, feet=2*, main=251*, sub=0*)
  1: 0x005B [0x00] END_REQSTACK()
```

### Event 65535.6

#### Metadata

| Field        | Value    |
|--------------|----------|
| Entrypoint   | 0x005C   |
| Data Size    | 14 bytes |
| Instructions | 4        |

```
      00 01 02 03 04 05 06 07  08 09 0A 0B 0C 0D 0E 0F
      -- -- -- -- -- -- -- --  -- -- -- -- -- -- -- --
0050:                                      32 08 80 1F              2...
0060: 00 12 80 13 80 14 80 1F  01 00                    ..........      
```

#### Opcodes

```
  0: 0x005C [0x32] ExtData[1]->MainSpeed = 13* * 0.1
  1: 0x005F [0x1F] MOVE_ENTITY: EventEntity moves to X=526.752*, Z=-273.974*, Y=0.199*
  2: 0x0067 [0x1F] MOVE_ENTITY: Update entity position (mode=1)
  3: 0x0069 [0x00] END_REQSTACK()
```
