# 17339113 - kisiE

## Common Data

| Field            | Value                   |
|------------------|-------------------------|
| Zone             | Xarcabard [S] (ID: 137) |
| Block Size       | 1496 bytes              |
| Total Events     | 20                      |
| References Count | 66                      |

## List of Events

| Event ID                   | Entrypoint   |   Size |   Instructions |
|----------------------------|--------------|--------|----------------|
| [65535](#event-65535)      | 0x0000       |      1 |              1 |
| [1](#event-1)              | 0x0001       |      1 |              1 |
| [7](#event-7)              | 0x0002       |      1 |              1 |
| [31](#event-31)            | 0x0003       |      1 |              1 |
| [65535.1](#event-655351)   | 0x0004       |     18 |              6 |
| [65535.2](#event-655352)   | 0x0016       |     33 |              6 |
| [65535.3](#event-655353)   | 0x0037       |     14 |              4 |
| [65535.4](#event-655354)   | 0x0045       |     10 |              2 |
| [65535.5](#event-655355)   | 0x004F       |     10 |              2 |
| [65535.6](#event-655356)   | 0x0059       |     30 |              4 |
| [65535.7](#event-655357)   | 0x0077       |      7 |              2 |
| [65535.8](#event-655358)   | 0x007E       |    865 |            131 |
| [17](#event-17)            | 0x03DF       |      1 |              1 |
| [65535.9](#event-655359)   | 0x03E0       |     26 |              3 |
| [65535.10](#event-6553510) | 0x03FA       |     21 |              2 |
| [65535.11](#event-6553511) | 0x040F       |     21 |              2 |
| [65535.12](#event-6553512) | 0x0424       |     21 |              2 |
| [65535.13](#event-6553513) | 0x0439       |     14 |              4 |
| [65535.14](#event-6553514) | 0x0447       |     27 |              5 |
| [65535.15](#event-6553515) | 0x0462       |     14 |              4 |

## DAT References (imed_data)

|   Index | Hex Value   |   Dec Value |
|---------|-------------|-------------|
|       0 | 0x00B4      |         180 |
|       1 | 0x0018      |          24 |
|       2 | 0x5336E     |      340846 |
|       3 | 0xFFFB2CAA  |  4294651050 |
|       4 | 0x00EA      |         234 |
|       5 | 0x004D      |          77 |
|       6 | 0xFFFD25D4  |  4294780372 |
|       7 | 0xFFFEFDDF  |  4294901215 |
|       8 | 0xFFFFF6EA  |  4294964970 |
|       9 | 0x001B      |          27 |
|      10 | 0xFFFD2C29  |  4294781993 |
|      11 | 0xFFFED187  |  4294889863 |
|      12 | 0xFFFFF4A5  |  4294964389 |
|      13 | 0x0000      |           0 |
|      14 | 0x0001      |           1 |
|      15 | 0x0080      |         128 |
|      16 | 0x001D      |          29 |
|      17 | 0x005A      |          90 |
|      18 | 0x000D      |          13 |
|      19 | 0xFFFD1D20  |  4294778144 |
|      20 | 0xFFFEB5F0  |  4294882800 |
|      21 | 0xFFFFF19C  |  4294963612 |
|      22 | 0xFFFD18DB  |  4294777051 |
|      23 | 0xFFFEB76C  |  4294883180 |
|      24 | 0xFFFFF178  |  4294963576 |
|      25 | 0x003C      |          60 |
|      26 | 0x005B      |          91 |
|      27 | 0x00DC      |         220 |
|      28 | 0x0078      |         120 |
|      29 | 0x0007      |           7 |
|      30 | 0xFFFD1030  |  4294774832 |
|      31 | 0xFFFEB567  |  4294882663 |
|      32 | 0xFFFFF11E  |  4294963486 |
|      33 | 0xFFFD07AD  |  4294772653 |
|      34 | 0xFFFEB3BC  |  4294882236 |
|      35 | 0xFFFFF0D7  |  4294963415 |
|      36 | 0xFFFCFA2C  |  4294769196 |
|      37 | 0xFFFEAD5A  |  4294880602 |
|      38 | 0xFFFFF0E6  |  4294963430 |
|      39 | 0x0258      |         600 |
|      40 | 0xFFFCFF64  |  4294770532 |
|      41 | 0xFFFEB19B  |  4294881691 |
|      42 | 0xFFFFF0B0  |  4294963376 |
|      43 | 0x0015      |          21 |
|      44 | 0x0096      |         150 |
|      45 | 0x0014      |          20 |
|      46 | 0xFFFD1ED1  |  4294778577 |
|      47 | 0xFFFEB360  |  4294882144 |
|      48 | 0xFFFFF17A  |  4294963578 |
|      49 | 0x0003      |           3 |
|      50 | 0x0008      |           8 |
|      51 | 0x000C      |          12 |
|      52 | 0x00D2      |         210 |
|      53 | 0x0005      |           5 |
|      54 | 0x008F      |         143 |
|      55 | 0x0089      |         137 |
|      56 | 0x0010      |          16 |
|      57 | 0x000E      |          14 |
|      58 | 0x00FB      |         251 |
|      59 | 0x0002      |           2 |
|      60 | 0x7FD2B     |      523563 |
|      61 | 0xFFFBBEFF  |  4294688511 |
|      62 | 0x0031      |          49 |
|      63 | 0x7F782     |      522114 |
|      64 | 0xFFFB9F02  |  4294680322 |
|      65 | 0xFFFFFF6B  |  4294967147 |

## Events

### Event 65535

#### Metadata

| Field        | Value   |
|--------------|---------|
| Entrypoint   | 0x0000  |
| Data Size    | 1 bytes |
| Instructions | 1       |

```
      00 01 02 03 04 05 06 07  08 09 0A 0B 0C 0D 0E 0F
      -- -- -- -- -- -- -- --  -- -- -- -- -- -- -- --
0000: 00                                                .               
```

#### Opcodes

```
  0: 0x0000 [0x00] END_REQSTACK()
```

### Event 1

#### Metadata

| Field        | Value   |
|--------------|---------|
| Entrypoint   | 0x0001  |
| Data Size    | 1 bytes |
| Instructions | 1       |

```
      00 01 02 03 04 05 06 07  08 09 0A 0B 0C 0D 0E 0F
      -- -- -- -- -- -- -- --  -- -- -- -- -- -- -- --
0000:    00                                              .              
```

#### Opcodes

```
  0: 0x0001 [0x00] END_REQSTACK()
```

### Event 7

#### Metadata

| Field        | Value   |
|--------------|---------|
| Entrypoint   | 0x0002  |
| Data Size    | 1 bytes |
| Instructions | 1       |

```
      00 01 02 03 04 05 06 07  08 09 0A 0B 0C 0D 0E 0F
      -- -- -- -- -- -- -- --  -- -- -- -- -- -- -- --
0000:       00                                            .             
```

#### Opcodes

```
  0: 0x0002 [0x00] END_REQSTACK()
```

### Event 31

#### Metadata

| Field        | Value   |
|--------------|---------|
| Entrypoint   | 0x0003  |
| Data Size    | 1 bytes |
| Instructions | 1       |

```
      00 01 02 03 04 05 06 07  08 09 0A 0B 0C 0D 0E 0F
      -- -- -- -- -- -- -- --  -- -- -- -- -- -- -- --
0000:          00                                          .            
```

#### Opcodes

```
  0: 0x0003 [0x00] END_REQSTACK()
```

### Event 65535.1

#### Metadata

| Field        | Value    |
|--------------|----------|
| Entrypoint   | 0x0004   |
| Data Size    | 18 bytes |
| Instructions | 6        |

```
      00 01 02 03 04 05 06 07  08 09 0A 0B 0C 0D 0E 0F
      -- -- -- -- -- -- -- --  -- -- -- -- -- -- -- --
0000:             1C 00 80 32  01 80 1F 00 02 80 03 80      ...2........
0010: 04 80 1F 01 6F 00                                 ....o.          
```

#### Opcodes

```
  0: 0x0004 [0x1C] WAIT(180* ticks)
  1: 0x0007 [0x32] ExtData[1]->MainSpeed = 24* * 0.1
  2: 0x000A [0x1F] MOVE_ENTITY: EventEntity moves to X=340.846*, Z=-316.246*, Y=0.234*
  3: 0x0012 [0x1F] MOVE_ENTITY: Update entity position (mode=1)
  4: 0x0014 [0x6F] WAIT_FRAME_DELAY: Yield until WaitTime reaches zero
  5: 0x0015 [0x00] END_REQSTACK()
```

### Event 65535.2

#### Metadata

| Field        | Value    |
|--------------|----------|
| Entrypoint   | 0x0016   |
| Data Size    | 33 bytes |
| Instructions | 6        |

```
      00 01 02 03 04 05 06 07  08 09 0A 0B 0C 0D 0E 0F
      -- -- -- -- -- -- -- --  -- -- -- -- -- -- -- --
0010:                   32 05  80 79 00 E9 92 08 01 D8        2..y......
0020: 92 08 01 1F 00 06 80 07  80 08 80 1F 01 4A D8 92  .............J..
0030: 08 01 E9 92 08 01 00                              .......         
```

#### Opcodes

```
  0: 0x0016 [0x32] ExtData[1]->MainSpeed = 77* * 0.1
  1: 0x0019 [0x79] kisiE (ID: 17339113/0x010892E9) looks at Jayramus (ID: 17339096/0x010892D8) (Basic look)
  2: 0x0023 [0x1F] MOVE_ENTITY: EventEntity moves to X=-186.924*, Z=-66.081*, Y=-2.326*
  3: 0x002B [0x1F] MOVE_ENTITY: Update entity position (mode=1)
  4: 0x002D [0x4A] Jayramus (ID: 17339096/0x010892D8) looks at kisiE (ID: 17339113/0x010892E9)
  5: 0x0036 [0x00] END_REQSTACK()
```

### Event 65535.3

#### Metadata

| Field        | Value    |
|--------------|----------|
| Entrypoint   | 0x0037   |
| Data Size    | 14 bytes |
| Instructions | 4        |

```
      00 01 02 03 04 05 06 07  08 09 0A 0B 0C 0D 0E 0F
      -- -- -- -- -- -- -- --  -- -- -- -- -- -- -- --
0030:                      32  09 80 1F 00 0A 80 0B 80         2........
0040: 0C 80 1F 01 00                                    .....           
```

#### Opcodes

```
  0: 0x0037 [0x32] ExtData[1]->MainSpeed = 27* * 0.1
  1: 0x003A [0x1F] MOVE_ENTITY: EventEntity moves to X=-185.303*, Z=-77.433*, Y=-2.907*
  2: 0x0042 [0x1F] MOVE_ENTITY: Update entity position (mode=1)
  3: 0x0044 [0x00] END_REQSTACK()
```

### Event 65535.4

#### Metadata

| Field        | Value    |
|--------------|----------|
| Entrypoint   | 0x0045   |
| Data Size    | 10 bytes |
| Instructions | 2        |

```
      00 01 02 03 04 05 06 07  08 09 0A 0B 0C 0D 0E 0F
      -- -- -- -- -- -- -- --  -- -- -- -- -- -- -- --
0040:                6C E9 92  08 01 0D 80 0E 80 00          l......... 
```

#### Opcodes

```
  0: 0x0045 [0x6C] FADE_ENTITY_COLOR(entity_id=kisiE (ID: 17339113/0x010892E9), end_alpha=0*, fade_time=1*)
  1: 0x004E [0x00] END_REQSTACK()
```

### Event 65535.5

#### Metadata

| Field        | Value    |
|--------------|----------|
| Entrypoint   | 0x004F   |
| Data Size    | 10 bytes |
| Instructions | 2        |

```
      00 01 02 03 04 05 06 07  08 09 0A 0B 0C 0D 0E 0F
      -- -- -- -- -- -- -- --  -- -- -- -- -- -- -- --
0040:                                               6C                 l
0050: E9 92 08 01 0F 80 0E 80  00                       .........       
```

#### Opcodes

```
  0: 0x004F [0x6C] FADE_ENTITY_COLOR(entity_id=kisiE (ID: 17339113/0x010892E9), end_alpha=128*, fade_time=1*)
  1: 0x0058 [0x00] END_REQSTACK()
```

### Event 65535.6

#### Metadata

| Field        | Value    |
|--------------|----------|
| Entrypoint   | 0x0059   |
| Data Size    | 30 bytes |
| Instructions | 4        |

```
      00 01 02 03 04 05 06 07  08 09 0A 0B 0C 0D 0E 0F
      -- -- -- -- -- -- -- --  -- -- -- -- -- -- -- --
0050:                             7E 06 F8 FF FF 7F 0E           ~......
0060: 80 0D 80 0E 80 0E 80 0E  80 0E 80 7E 04 F8 FF FF  ...........~....
0070: 7F 80 F8 FF FF 7F 00                              .......         
```

#### Opcodes

```
  0: 0x0059 [0x7E] CHOCOBO_MOUNT: Mode 6 (custom mount) on EventEntity
  1: 0x006B [0x7E] CHOCOBO_MOUNT: Mode 4 on EventEntity
  2: 0x0071 [0x80] LOAD_WAIT(entity=EventEntity)
  3: 0x0076 [0x00] END_REQSTACK()
```

### Event 65535.7

#### Metadata

| Field        | Value   |
|--------------|---------|
| Entrypoint   | 0x0077  |
| Data Size    | 7 bytes |
| Instructions | 2       |

```
      00 01 02 03 04 05 06 07  08 09 0A 0B 0C 0D 0E 0F
      -- -- -- -- -- -- -- --  -- -- -- -- -- -- -- --
0070:                      7E  05 F8 FF FF 7F 00               ~......  
```

#### Opcodes

```
  0: 0x0077 [0x7E] CHOCOBO_MOUNT: Dismount EventEntity (status = 0)
  1: 0x007D [0x00] END_REQSTACK()
```

### Event 65535.8

#### Metadata

| Field        | Value     |
|--------------|-----------|
| Entrypoint   | 0x007E    |
| Data Size    | 865 bytes |
| Instructions | 130       |

```
      00 01 02 03 04 05 06 07  08 09 0A 0B 0C 0D 0E 0F
      -- -- -- -- -- -- -- --  -- -- -- -- -- -- -- --
0070:                                            66 10                f.
0080: 80 E9 92 08 01 E9 92 08  01 73 68 61 31 1C 11 80  .........sha1...
0090: 32 12 80 1F 00 13 80 14  80 15 80 1F 01 1F 00 16  2...............
00A0: 80 17 80 18 80 1F 01 1E  F8 92 08 01 7B E9 92 08  ............{...
00B0: 01 1C 19 80 66 1A 80 E9  92 08 01 E9 92 08 01 70  ....f..........p
00C0: 61 73 30 1C 00 80 5B 1B  80 F8 92 08 01 F8 92 08  as0...[.........
00D0: 01 6D 6F 67 30 1C 00 80  5B 1B 80 F8 92 08 01 F8  .mog0...[.......
00E0: 92 08 01 6D 6F 67 31 1C  1C 80 6E E9 92 08 01 1D  ...mog1...n.....
00F0: 80 99 E9 92 08 01 1C 1C  80 1F 00 1E 80 1F 80 20  ............... 
0100: 80 1F 01 1E F9 92 08 01  7B E9 92 08 01 1C 19 80  ........{.......
0110: 66 1A 80 E9 92 08 01 E9  92 08 01 70 61 73 30 1C  f..........pas0.
0120: 00 80 5B 1B 80 F9 92 08  01 F9 92 08 01 6D 6F 67  ..[..........mog
0130: 30 1C 00 80 5B 1B 80 F9  92 08 01 F9 92 08 01 6D  0...[..........m
0140: 6F 67 31 1C 1C 80 6E E9  92 08 01 1D 80 99 E9 92  og1...n.........
0150: 08 01 1C 1C 80 1F 00 21  80 22 80 23 80 1F 01 1E  .......!.".#....
0160: FA 92 08 01 7B E9 92 08  01 1C 19 80 66 1A 80 E9  ....{.......f...
0170: 92 08 01 E9 92 08 01 70  61 73 30 1C 00 80 5B 1B  .......pas0...[.
0180: 80 FA 92 08 01 FA 92 08  01 6D 6F 67 30 1C 00 80  .........mog0...
0190: 5B 1B 80 FA 92 08 01 FA  92 08 01 6D 6F 67 31 1C  [..........mog1.
01A0: 1C 80 6E E9 92 08 01 1D  80 99 E9 92 08 01 1C 1C  ..n.............
01B0: 80 1F 00 24 80 25 80 26  80 1F 01 1E 14 93 08 01  ...$.%.&........
01C0: 7B E9 92 08 01 1C 11 80  66 10 80 E9 92 08 01 E9  {.......f.......
01D0: 92 08 01 73 68 61 30 1C  1C 80 66 10 80 E9 92 08  ...sha0...f.....
01E0: 01 E9 92 08 01 73 69 72  30 1C 27 80 66 10 80 E9  .....sir0.'.f...
01F0: 92 08 01 E9 92 08 01 73  69 72 31 1C 11 80 66 10  .......sir1...f.
0200: 80 E9 92 08 01 E9 92 08  01 73 68 61 31 7B E9 92  .........sha1{..
0210: 08 01 1C 11 80 1F 00 28  80 29 80 2A 80 1F 01 1F  .......(.).*....
0220: 00 21 80 22 80 23 80 1F  01 1E FA 92 08 01 7B E9  .!.".#........{.
0230: 92 08 01 1C 19 80 66 1A  80 E9 92 08 01 E9 92 08  ......f.........
0240: 01 70 61 73 30 1C 00 80  5B 1B 80 FA 92 08 01 FA  .pas0...[.......
0250: 92 08 01 6D 6F 67 30 1C  00 80 5B 1B 80 FA 92 08  ...mog0...[.....
0260: 01 FA 92 08 01 6D 6F 67  31 1C 1C 80 6E E9 92 08  .....mog1...n...
0270: 01 1D 80 99 E9 92 08 01  1C 1C 80 1F 00 1E 80 1F  ................
0280: 80 20 80 1F 01 1E F9 92  08 01 7B E9 92 08 01 1C  . ........{.....
0290: 19 80 66 1A 80 E9 92 08  01 E9 92 08 01 70 61 73  ..f..........pas
02A0: 30 1C 00 80 5B 1B 80 F9  92 08 01 F9 92 08 01 69  0...[..........i
02B0: 79 61 30 1C 11 80 5B 1B  80 F9 92 08 01 F9 92 08  ya0...[.........
02C0: 01 69 79 61 31 6E E9 92  08 01 2B 80 99 E9 92 08  .iya1n....+.....
02D0: 01 1C 2C 80 66 1A 80 E9  92 08 01 E9 92 08 01 70  ..,.f..........p
02E0: 61 73 30 1C 00 80 5B 1B  80 F9 92 08 01 F9 92 08  as0...[.........
02F0: 01 6D 6F 67 30 1C 00 80  5B 1B 80 F9 92 08 01 F9  .mog0...[.......
0300: 92 08 01 6D 6F 67 31 1C  1C 80 6E E9 92 08 01 1D  ...mog1...n.....
0310: 80 99 E9 92 08 01 1C 11  80 6E E9 92 08 01 2D 80  .........n....-.
0320: 99 E9 92 08 01 1C 2C 80  1F 00 16 80 17 80 18 80  ......,.........
0330: 1F 01 1E F8 92 08 01 7B  E9 92 08 01 1C 19 80 66  .......{.......f
0340: 1A 80 E9 92 08 01 E9 92  08 01 70 61 73 30 1C 00  ..........pas0..
0350: 80 5B 1B 80 F8 92 08 01  F8 92 08 01 6D 6F 67 30  .[..........mog0
0360: 1C 00 80 5B 1B 80 F8 92  08 01 F8 92 08 01 6D 6F  ...[..........mo
0370: 67 31 1C 1C 80 6E E9 92  08 01 1D 80 99 E9 92 08  g1...n..........
0380: 01 1C 1C 80 1F 00 13 80  14 80 15 80 1F 01 1F 00  ................
0390: 2E 80 2F 80 30 80 1F 01  1E 13 93 08 01 7B E9 92  ../.0........{..
03A0: 08 01 1C 11 80 66 10 80  E9 92 08 01 E9 92 08 01  .....f..........
03B0: 73 68 61 30 1C 1C 80 66  10 80 E9 92 08 01 E9 92  sha0...f........
03C0: 08 01 73 69 72 30 1C 27  80 66 10 80 E9 92 08 01  ..sir0.'.f......
03D0: E9 92 08 01 73 69 72 31  1C 11 80 01 7E 00 00     ....sir1....~.. 
```

#### Opcodes

```
  0: 0x007E [0x66] LOAD_EXT_SCHEDULER_MAIN: Load scheduler "sha1" with entities [kisiE (ID: 17339113/0x010892E9), kisiE (ID: 17339113/0x010892E9)], work=29*
  1: 0x008D [0x1C] WAIT(90* ticks)
  2: 0x0090 [0x32] ExtData[1]->MainSpeed = 13* * 0.1
  3: 0x0093 [0x1F] MOVE_ENTITY: EventEntity moves to X=-189.152*, Z=-84.496*, Y=-3.684*
  4: 0x009B [0x1F] MOVE_ENTITY: Update entity position (mode=1)
  5: 0x009D [0x1F] MOVE_ENTITY: EventEntity moves to X=-190.245*, Z=-84.116*, Y=-3.720*
  6: 0x00A5 [0x1F] MOVE_ENTITY: Update entity position (mode=1)
  7: 0x00A7 [0x1E] EventEntity looks at Unknown NPC (ID: 17339128/0x010892F8) and starts talking
  8: 0x00AC [0x7B] kisiE (ID: 17339113/0x010892E9) stops talking
  9: 0x00B1 [0x1C] WAIT(60* ticks)
 10: 0x00B4 [0x66] LOAD_EXT_SCHEDULER_MAIN: Load scheduler "pas0" with entities [kisiE (ID: 17339113/0x010892E9), kisiE (ID: 17339113/0x010892E9)], work=91*
 11: 0x00C3 [0x1C] WAIT(180* ticks)
 12: 0x00C6 [0x5B] LOAD_EXT_SCHEDULER: Load scheduler "mog0" with entities [Unknown NPC (ID: 17339128/0x010892F8), Unknown NPC (ID: 17339128/0x010892F8)], work=220*
 13: 0x00D5 [0x1C] WAIT(180* ticks)
 14: 0x00D8 [0x5B] LOAD_EXT_SCHEDULER: Load scheduler "mog1" with entities [Unknown NPC (ID: 17339128/0x010892F8), Unknown NPC (ID: 17339128/0x010892F8)], work=220*
 15: 0x00E7 [0x1C] WAIT(120* ticks)
 16: 0x00EA [0x6E] kisiE (ID: 17339113/0x010892E9) uses emote 7*
 17: 0x00F1 [0x99] Wait for kisiE (ID: 17339113/0x010892E9) animation to complete
 18: 0x00F6 [0x1C] WAIT(120* ticks)
 19: 0x00F9 [0x1F] MOVE_ENTITY: EventEntity moves to X=-192.464*, Z=-84.633*, Y=-3.810*
 20: 0x0101 [0x1F] MOVE_ENTITY: Update entity position (mode=1)
 21: 0x0103 [0x1E] EventEntity looks at Unknown NPC (ID: 17339129/0x010892F9) and starts talking
 22: 0x0108 [0x7B] kisiE (ID: 17339113/0x010892E9) stops talking
 23: 0x010D [0x1C] WAIT(60* ticks)
 24: 0x0110 [0x66] LOAD_EXT_SCHEDULER_MAIN: Load scheduler "pas0" with entities [kisiE (ID: 17339113/0x010892E9), kisiE (ID: 17339113/0x010892E9)], work=91*
 25: 0x011F [0x1C] WAIT(180* ticks)
 26: 0x0122 [0x5B] LOAD_EXT_SCHEDULER: Load scheduler "mog0" with entities [Unknown NPC (ID: 17339129/0x010892F9), Unknown NPC (ID: 17339129/0x010892F9)], work=220*
 27: 0x0131 [0x1C] WAIT(180* ticks)
 28: 0x0134 [0x5B] LOAD_EXT_SCHEDULER: Load scheduler "mog1" with entities [Unknown NPC (ID: 17339129/0x010892F9), Unknown NPC (ID: 17339129/0x010892F9)], work=220*
 29: 0x0143 [0x1C] WAIT(120* ticks)
 30: 0x0146 [0x6E] kisiE (ID: 17339113/0x010892E9) uses emote 7*
 31: 0x014D [0x99] Wait for kisiE (ID: 17339113/0x010892E9) animation to complete
 32: 0x0152 [0x1C] WAIT(120* ticks)
 33: 0x0155 [0x1F] MOVE_ENTITY: EventEntity moves to X=-194.643*, Z=-85.060*, Y=-3.881*
 34: 0x015D [0x1F] MOVE_ENTITY: Update entity position (mode=1)
 35: 0x015F [0x1E] EventEntity looks at Unknown NPC (ID: 17339130/0x010892FA) and starts talking
 36: 0x0164 [0x7B] kisiE (ID: 17339113/0x010892E9) stops talking
 37: 0x0169 [0x1C] WAIT(60* ticks)
 38: 0x016C [0x66] LOAD_EXT_SCHEDULER_MAIN: Load scheduler "pas0" with entities [kisiE (ID: 17339113/0x010892E9), kisiE (ID: 17339113/0x010892E9)], work=91*
 39: 0x017B [0x1C] WAIT(180* ticks)
 40: 0x017E [0x5B] LOAD_EXT_SCHEDULER: Load scheduler "mog0" with entities [Unknown NPC (ID: 17339130/0x010892FA), Unknown NPC (ID: 17339130/0x010892FA)], work=220*
 41: 0x018D [0x1C] WAIT(180* ticks)
 42: 0x0190 [0x5B] LOAD_EXT_SCHEDULER: Load scheduler "mog1" with entities [Unknown NPC (ID: 17339130/0x010892FA), Unknown NPC (ID: 17339130/0x010892FA)], work=220*
 43: 0x019F [0x1C] WAIT(120* ticks)
 44: 0x01A2 [0x6E] kisiE (ID: 17339113/0x010892E9) uses emote 7*
 45: 0x01A9 [0x99] Wait for kisiE (ID: 17339113/0x010892E9) animation to complete
 46: 0x01AE [0x1C] WAIT(120* ticks)
 47: 0x01B1 [0x1F] MOVE_ENTITY: EventEntity moves to X=-198.100*, Z=-86.694*, Y=-3.866*
 48: 0x01B9 [0x1F] MOVE_ENTITY: Update entity position (mode=1)
 49: 0x01BB [0x1E] EventEntity looks at 10 (ID: 17339156/0x01089314) and starts talking
 50: 0x01C0 [0x7B] kisiE (ID: 17339113/0x010892E9) stops talking
 51: 0x01C5 [0x1C] WAIT(90* ticks)
 52: 0x01C8 [0x66] LOAD_EXT_SCHEDULER_MAIN: Load scheduler "sha0" with entities [kisiE (ID: 17339113/0x010892E9), kisiE (ID: 17339113/0x010892E9)], work=29*
 53: 0x01D7 [0x1C] WAIT(120* ticks)
 54: 0x01DA [0x66] LOAD_EXT_SCHEDULER_MAIN: Load scheduler "sir0" with entities [kisiE (ID: 17339113/0x010892E9), kisiE (ID: 17339113/0x010892E9)], work=29*
 55: 0x01E9 [0x1C] WAIT(600* ticks)
 56: 0x01EC [0x66] LOAD_EXT_SCHEDULER_MAIN: Load scheduler "sir1" with entities [kisiE (ID: 17339113/0x010892E9), kisiE (ID: 17339113/0x010892E9)], work=29*
 57: 0x01FB [0x1C] WAIT(90* ticks)
 58: 0x01FE [0x66] LOAD_EXT_SCHEDULER_MAIN: Load scheduler "sha1" with entities [kisiE (ID: 17339113/0x010892E9), kisiE (ID: 17339113/0x010892E9)], work=29*
 59: 0x020D [0x7B] kisiE (ID: 17339113/0x010892E9) stops talking
 60: 0x0212 [0x1C] WAIT(90* ticks)
 61: 0x0215 [0x1F] MOVE_ENTITY: EventEntity moves to X=-196.764*, Z=-85.605*, Y=-3.920*
 62: 0x021D [0x1F] MOVE_ENTITY: Update entity position (mode=1)
 63: 0x021F [0x1F] MOVE_ENTITY: EventEntity moves to X=-194.643*, Z=-85.060*, Y=-3.881*
 64: 0x0227 [0x1F] MOVE_ENTITY: Update entity position (mode=1)
 65: 0x0229 [0x1E] EventEntity looks at Unknown NPC (ID: 17339130/0x010892FA) and starts talking
 66: 0x022E [0x7B] kisiE (ID: 17339113/0x010892E9) stops talking
 67: 0x0233 [0x1C] WAIT(60* ticks)
 68: 0x0236 [0x66] LOAD_EXT_SCHEDULER_MAIN: Load scheduler "pas0" with entities [kisiE (ID: 17339113/0x010892E9), kisiE (ID: 17339113/0x010892E9)], work=91*
 69: 0x0245 [0x1C] WAIT(180* ticks)
 70: 0x0248 [0x5B] LOAD_EXT_SCHEDULER: Load scheduler "mog0" with entities [Unknown NPC (ID: 17339130/0x010892FA), Unknown NPC (ID: 17339130/0x010892FA)], work=220*
 71: 0x0257 [0x1C] WAIT(180* ticks)
 72: 0x025A [0x5B] LOAD_EXT_SCHEDULER: Load scheduler "mog1" with entities [Unknown NPC (ID: 17339130/0x010892FA), Unknown NPC (ID: 17339130/0x010892FA)], work=220*
 73: 0x0269 [0x1C] WAIT(120* ticks)
 74: 0x026C [0x6E] kisiE (ID: 17339113/0x010892E9) uses emote 7*
 75: 0x0273 [0x99] Wait for kisiE (ID: 17339113/0x010892E9) animation to complete
 76: 0x0278 [0x1C] WAIT(120* ticks)
 77: 0x027B [0x1F] MOVE_ENTITY: EventEntity moves to X=-192.464*, Z=-84.633*, Y=-3.810*
 78: 0x0283 [0x1F] MOVE_ENTITY: Update entity position (mode=1)
 79: 0x0285 [0x1E] EventEntity looks at Unknown NPC (ID: 17339129/0x010892F9) and starts talking
 80: 0x028A [0x7B] kisiE (ID: 17339113/0x010892E9) stops talking
 81: 0x028F [0x1C] WAIT(60* ticks)
 82: 0x0292 [0x66] LOAD_EXT_SCHEDULER_MAIN: Load scheduler "pas0" with entities [kisiE (ID: 17339113/0x010892E9), kisiE (ID: 17339113/0x010892E9)], work=91*
 83: 0x02A1 [0x1C] WAIT(180* ticks)
 84: 0x02A4 [0x5B] LOAD_EXT_SCHEDULER: Load scheduler "iya0" with entities [Unknown NPC (ID: 17339129/0x010892F9), Unknown NPC (ID: 17339129/0x010892F9)], work=220*
 85: 0x02B3 [0x1C] WAIT(90* ticks)
 86: 0x02B6 [0x5B] LOAD_EXT_SCHEDULER: Load scheduler "iya1" with entities [Unknown NPC (ID: 17339129/0x010892F9), Unknown NPC (ID: 17339129/0x010892F9)], work=220*
 87: 0x02C5 [0x6E] kisiE (ID: 17339113/0x010892E9) uses emote 21*
 88: 0x02CC [0x99] Wait for kisiE (ID: 17339113/0x010892E9) animation to complete
 89: 0x02D1 [0x1C] WAIT(150* ticks)
 90: 0x02D4 [0x66] LOAD_EXT_SCHEDULER_MAIN: Load scheduler "pas0" with entities [kisiE (ID: 17339113/0x010892E9), kisiE (ID: 17339113/0x010892E9)], work=91*
 91: 0x02E3 [0x1C] WAIT(180* ticks)
 92: 0x02E6 [0x5B] LOAD_EXT_SCHEDULER: Load scheduler "mog0" with entities [Unknown NPC (ID: 17339129/0x010892F9), Unknown NPC (ID: 17339129/0x010892F9)], work=220*
 93: 0x02F5 [0x1C] WAIT(180* ticks)
 94: 0x02F8 [0x5B] LOAD_EXT_SCHEDULER: Load scheduler "mog1" with entities [Unknown NPC (ID: 17339129/0x010892F9), Unknown NPC (ID: 17339129/0x010892F9)], work=220*
 95: 0x0307 [0x1C] WAIT(120* ticks)
 96: 0x030A [0x6E] kisiE (ID: 17339113/0x010892E9) uses emote 7*
 97: 0x0311 [0x99] Wait for kisiE (ID: 17339113/0x010892E9) animation to complete
 98: 0x0316 [0x1C] WAIT(90* ticks)
 99: 0x0319 [0x6E] kisiE (ID: 17339113/0x010892E9) uses emote 20*
100: 0x0320 [0x99] Wait for kisiE (ID: 17339113/0x010892E9) animation to complete
101: 0x0325 [0x1C] WAIT(150* ticks)
102: 0x0328 [0x1F] MOVE_ENTITY: EventEntity moves to X=-190.245*, Z=-84.116*, Y=-3.720*
103: 0x0330 [0x1F] MOVE_ENTITY: Update entity position (mode=1)
104: 0x0332 [0x1E] EventEntity looks at Unknown NPC (ID: 17339128/0x010892F8) and starts talking
105: 0x0337 [0x7B] kisiE (ID: 17339113/0x010892E9) stops talking
106: 0x033C [0x1C] WAIT(60* ticks)
107: 0x033F [0x66] LOAD_EXT_SCHEDULER_MAIN: Load scheduler "pas0" with entities [kisiE (ID: 17339113/0x010892E9), kisiE (ID: 17339113/0x010892E9)], work=91*
108: 0x034E [0x1C] WAIT(180* ticks)
109: 0x0351 [0x5B] LOAD_EXT_SCHEDULER: Load scheduler "mog0" with entities [Unknown NPC (ID: 17339128/0x010892F8), Unknown NPC (ID: 17339128/0x010892F8)], work=220*
110: 0x0360 [0x1C] WAIT(180* ticks)
111: 0x0363 [0x5B] LOAD_EXT_SCHEDULER: Load scheduler "mog1" with entities [Unknown NPC (ID: 17339128/0x010892F8), Unknown NPC (ID: 17339128/0x010892F8)], work=220*
112: 0x0372 [0x1C] WAIT(120* ticks)
113: 0x0375 [0x6E] kisiE (ID: 17339113/0x010892E9) uses emote 7*
114: 0x037C [0x99] Wait for kisiE (ID: 17339113/0x010892E9) animation to complete
115: 0x0381 [0x1C] WAIT(120* ticks)
116: 0x0384 [0x1F] MOVE_ENTITY: EventEntity moves to X=-189.152*, Z=-84.496*, Y=-3.684*
117: 0x038C [0x1F] MOVE_ENTITY: Update entity position (mode=1)
118: 0x038E [0x1F] MOVE_ENTITY: EventEntity moves to X=-188.719*, Z=-85.152*, Y=-3.718*
119: 0x0396 [0x1F] MOVE_ENTITY: Update entity position (mode=1)
120: 0x0398 [0x1E] EventEntity looks at 09 (ID: 17339155/0x01089313) and starts talking
121: 0x039D [0x7B] kisiE (ID: 17339113/0x010892E9) stops talking
122: 0x03A2 [0x1C] WAIT(90* ticks)
123: 0x03A5 [0x66] LOAD_EXT_SCHEDULER_MAIN: Load scheduler "sha0" with entities [kisiE (ID: 17339113/0x010892E9), kisiE (ID: 17339113/0x010892E9)], work=29*
124: 0x03B4 [0x1C] WAIT(120* ticks)
125: 0x03B7 [0x66] LOAD_EXT_SCHEDULER_MAIN: Load scheduler "sir0" with entities [kisiE (ID: 17339113/0x010892E9), kisiE (ID: 17339113/0x010892E9)], work=29*
126: 0x03C6 [0x1C] WAIT(600* ticks)
127: 0x03C9 [0x66] LOAD_EXT_SCHEDULER_MAIN: Load scheduler "sir1" with entities [kisiE (ID: 17339113/0x010892E9), kisiE (ID: 17339113/0x010892E9)], work=29*
128: 0x03D8 [0x1C] WAIT(90* ticks)
129: 0x03DB [0x01] GOTO 0x007E
```

#### Data or dead code:

```
# Dead code (unreachable instructions):
     0x03DE [0x00] END_REQSTACK()
```

### Event 17

#### Metadata

| Field        | Value   |
|--------------|---------|
| Entrypoint   | 0x03DF  |
| Data Size    | 1 bytes |
| Instructions | 1       |

```
      00 01 02 03 04 05 06 07  08 09 0A 0B 0C 0D 0E 0F
      -- -- -- -- -- -- -- --  -- -- -- -- -- -- -- --
03D0:                                               00                 .
```

#### Opcodes

```
  0: 0x03DF [0x00] END_REQSTACK()
```

### Event 65535.9

#### Metadata

| Field        | Value    |
|--------------|----------|
| Entrypoint   | 0x03E0   |
| Data Size    | 26 bytes |
| Instructions | 3        |

```
      00 01 02 03 04 05 06 07  08 09 0A 0B 0C 0D 0E 0F
      -- -- -- -- -- -- -- --  -- -- -- -- -- -- -- --
03E0: B6 0B 31 80 32 80 33 80  33 80 33 80 33 80 33 80  ..1.2.3.3.3.3.3.
03F0: 34 80 0D 80 80 E9 92 08  01 00                    4.........      
```

#### Opcodes

```
  0: 0x03E0 [0xB6] ENTITY_APPEARANCE_HANDLER(case=Full entity look, race=3*, hair=8*, head=12*, body=12*, hands=12*, legs=12*, feet=12*, main=210*, sub=0*)
  1: 0x03F4 [0x80] LOAD_WAIT(entity=kisiE (ID: 17339113/0x010892E9))
  2: 0x03F9 [0x00] END_REQSTACK()
```

### Event 65535.10

#### Metadata

| Field        | Value    |
|--------------|----------|
| Entrypoint   | 0x03FA   |
| Data Size    | 21 bytes |
| Instructions | 2        |

```
      00 01 02 03 04 05 06 07  08 09 0A 0B 0C 0D 0E 0F
      -- -- -- -- -- -- -- --  -- -- -- -- -- -- -- --
03F0:                                B6 0B 35 80 1D 80            ..5...
0400: 36 80 36 80 36 80 36 80  36 80 0D 80 0D 80 00     6.6.6.6.6...... 
```

#### Opcodes

```
  0: 0x03FA [0xB6] ENTITY_APPEARANCE_HANDLER(case=Full entity look, race=5*, hair=7*, head=143*, body=143*, hands=143*, legs=143*, feet=143*, main=0*, sub=0*)
  1: 0x040E [0x00] END_REQSTACK()
```

### Event 65535.11

#### Metadata

| Field        | Value    |
|--------------|----------|
| Entrypoint   | 0x040F   |
| Data Size    | 21 bytes |
| Instructions | 2        |

```
      00 01 02 03 04 05 06 07  08 09 0A 0B 0C 0D 0E 0F
      -- -- -- -- -- -- -- --  -- -- -- -- -- -- -- --
0400:                                               B6                 .
0410: 0B 1D 80 32 80 37 80 38  80 38 80 39 80 12 80 3A  ...2.7.8.8.9...:
0420: 80 0D 80 00                                       ....            
```

#### Opcodes

```
  0: 0x040F [0xB6] ENTITY_APPEARANCE_HANDLER(case=Full entity look, race=7*, hair=8*, head=137*, body=16*, hands=16*, legs=14*, feet=13*, main=251*, sub=0*)
  1: 0x0423 [0x00] END_REQSTACK()
```

### Event 65535.12

#### Metadata

| Field        | Value    |
|--------------|----------|
| Entrypoint   | 0x0424   |
| Data Size    | 21 bytes |
| Instructions | 2        |

```
      00 01 02 03 04 05 06 07  08 09 0A 0B 0C 0D 0E 0F
      -- -- -- -- -- -- -- --  -- -- -- -- -- -- -- --
0420:             B6 0B 32 80  12 80 3B 80 3B 80 3B 80      ..2...;.;.;.
0430: 3B 80 3B 80 3A 80 0D 80  00                       ;.;.:....       
```

#### Opcodes

```
  0: 0x0424 [0xB6] ENTITY_APPEARANCE_HANDLER(case=Full entity look, race=8*, hair=13*, head=2*, body=2*, hands=2*, legs=2*, feet=2*, main=251*, sub=0*)
  1: 0x0438 [0x00] END_REQSTACK()
```

### Event 65535.13

#### Metadata

| Field        | Value    |
|--------------|----------|
| Entrypoint   | 0x0439   |
| Data Size    | 14 bytes |
| Instructions | 4        |

```
      00 01 02 03 04 05 06 07  08 09 0A 0B 0C 0D 0E 0F
      -- -- -- -- -- -- -- --  -- -- -- -- -- -- -- --
0430:                             32 12 80 1F 00 3C 80           2....<.
0440: 3D 80 0D 80 1F 01 00                              =......         
```

#### Opcodes

```
  0: 0x0439 [0x32] ExtData[1]->MainSpeed = 13* * 0.1
  1: 0x043C [0x1F] MOVE_ENTITY: EventEntity moves to X=523.563*, Z=-278.785*, Y=0.000*
  2: 0x0444 [0x1F] MOVE_ENTITY: Update entity position (mode=1)
  3: 0x0446 [0x00] END_REQSTACK()
```

### Event 65535.14

#### Metadata

| Field        | Value    |
|--------------|----------|
| Entrypoint   | 0x0447   |
| Data Size    | 27 bytes |
| Instructions | 5        |

```
      00 01 02 03 04 05 06 07  08 09 0A 0B 0C 0D 0E 0F
      -- -- -- -- -- -- -- --  -- -- -- -- -- -- -- --
0440:                      1C  11 80 66 3E 80 E9 92 08         ...f>....
0450: 01 E9 92 08 01 74 6C 6B  31 1C 19 80 1E F4 92 08  .....tlk1.......
0460: 01 00                                             ..              
```

#### Opcodes

```
  0: 0x0447 [0x1C] WAIT(90* ticks)
  1: 0x044A [0x66] LOAD_EXT_SCHEDULER_MAIN: Load scheduler "tlk1" with entities [kisiE (ID: 17339113/0x010892E9), kisiE (ID: 17339113/0x010892E9)], work=49*
  2: 0x0459 [0x1C] WAIT(60* ticks)
  3: 0x045C [0x1E] EventEntity looks at 02 (ID: 17339124/0x010892F4) and starts talking
  4: 0x0461 [0x00] END_REQSTACK()
```

### Event 65535.15

#### Metadata

| Field        | Value    |
|--------------|----------|
| Entrypoint   | 0x0462   |
| Data Size    | 14 bytes |
| Instructions | 4        |

```
      00 01 02 03 04 05 06 07  08 09 0A 0B 0C 0D 0E 0F
      -- -- -- -- -- -- -- --  -- -- -- -- -- -- -- --
0460:       32 12 80 1F 00 3F  80 40 80 41 80 1F 01 00    2....?.@.A....
```

#### Opcodes

```
  0: 0x0462 [0x32] ExtData[1]->MainSpeed = 13* * 0.1
  1: 0x0465 [0x1F] MOVE_ENTITY: EventEntity moves to X=522.114*, Z=-286.974*, Y=-0.149*
  2: 0x046D [0x1F] MOVE_ENTITY: Update entity position (mode=1)
  3: 0x046F [0x00] END_REQSTACK()
```
