# 17339094 - Excenmille

## Common Data

| Field            | Value                   |
|------------------|-------------------------|
| Zone             | Xarcabard [S] (ID: 137) |
| Block Size       | 1428 bytes              |
| Total Events     | 52                      |
| References Count | 87                      |

## List of Events

| Event ID                   | Entrypoint   |   Size |   Instructions |
|----------------------------|--------------|--------|----------------|
| [65535](#event-65535)      | 0x0000       |      1 |              1 |
| [65535.1](#event-655351)   | 0x0001       |      1 |              1 |
| [65535.2](#event-655352)   | 0x0002       |     18 |              4 |
| [65535.3](#event-655353)   | 0x0014       |     10 |              2 |
| [65535.4](#event-655354)   | 0x001E       |      9 |              3 |
| [65535.5](#event-655355)   | 0x0027       |      9 |              3 |
| [65535.6](#event-655356)   | 0x0030       |     10 |              2 |
| [65535.7](#event-655357)   | 0x003A       |     10 |              2 |
| [1](#event-1)              | 0x0044       |      1 |              1 |
| [7](#event-7)              | 0x0045       |      1 |              1 |
| [31](#event-31)            | 0x0046       |      1 |              1 |
| [65535.8](#event-655358)   | 0x0047       |     15 |              5 |
| [65535.9](#event-655359)   | 0x0056       |     19 |              5 |
| [65535.10](#event-6553510) | 0x0069       |    169 |             17 |
| [65535.11](#event-6553511) | 0x0112       |     15 |              5 |
| [65535.12](#event-6553512) | 0x0121       |     30 |              4 |
| [65535.13](#event-6553513) | 0x013F       |      7 |              2 |
| [65535.14](#event-6553514) | 0x0146       |     15 |              5 |
| [65535.15](#event-6553515) | 0x0155       |     19 |              5 |
| [65535.16](#event-6553516) | 0x0168       |     51 |              9 |
| [65535.17](#event-6553517) | 0x019B       |     10 |              2 |
| [65535.18](#event-6553518) | 0x01A5       |     10 |              2 |
| [65535.19](#event-6553519) | 0x01AF       |      4 |              2 |
| [65535.20](#event-6553520) | 0x01B3       |      4 |              2 |
| [4](#event-4)              | 0x01B7       |      1 |              1 |
| [65535.21](#event-6553521) | 0x01B8       |     11 |              3 |
| [65535.22](#event-6553522) | 0x01C3       |     11 |              3 |
| [65535.23](#event-6553523) | 0x01CE       |     11 |              3 |
| [65535.24](#event-6553524) | 0x01D9       |     11 |              3 |
| [65535.25](#event-6553525) | 0x01E4       |     54 |              8 |
| [6](#event-6)              | 0x021A       |      1 |              1 |
| [65535.26](#event-6553526) | 0x021B       |     21 |              5 |
| [65535.27](#event-6553527) | 0x0230       |      4 |              2 |
| [65535.28](#event-6553528) | 0x0234       |      4 |              2 |
| [65535.29](#event-6553529) | 0x0238       |      4 |              2 |
| [33](#event-33)            | 0x023C       |      1 |              1 |
| [65535.30](#event-6553530) | 0x023D       |     12 |              4 |
| [65535.31](#event-6553531) | 0x0249       |     28 |              8 |
| [65535.32](#event-6553532) | 0x0265       |     12 |              4 |
| [65535.33](#event-6553533) | 0x0271       |     19 |              5 |
| [65535.34](#event-6553534) | 0x0284       |     63 |             11 |
| [65535.35](#event-6553535) | 0x02C3       |     11 |              3 |
| [32](#event-32)            | 0x02CE       |      1 |              1 |
| [65535.36](#event-6553536) | 0x02CF       |     46 |              6 |
| [65535.37](#event-6553537) | 0x02FD       |     46 |              6 |
| [40](#event-40)            | 0x032B       |      1 |              1 |
| [65535.38](#event-6553538) | 0x032C       |      4 |              2 |
| [65535.39](#event-6553539) | 0x0330       |      4 |              2 |
| [65535.40](#event-6553540) | 0x0334       |      5 |              2 |
| [3](#event-3)              | 0x0339       |      1 |              1 |
| [65535.41](#event-6553541) | 0x033A       |     14 |              4 |
| [65535.42](#event-6553542) | 0x0348       |     14 |              4 |

## DAT References (imed_data)

|   Index | Hex Value   |   Dec Value |
|---------|-------------|-------------|
|       0 | 0x0000      |           0 |
|       1 | 0x0001      |           1 |
|       2 | 0x0080      |         128 |
|       3 | 0x000D      |          13 |
|       4 | 0x8168D     |      530061 |
|       5 | 0xFFFBA96A  |  4294682986 |
|       6 | 0x011C      |         284 |
|       7 | 0x82084     |      532612 |
|       8 | 0xFFFBA3A1  |  4294681505 |
|       9 | 0x0112      |         274 |
|      10 | 0x00F0      |         240 |
|      11 | 0x01F7      |         503 |
|      12 | 0x0096      |         150 |
|      13 | 0x003C      |          60 |
|      14 | 0x0A9F      |        2719 |
|      15 | 0x001E      |          30 |
|      16 | 0x005A      |          90 |
|      17 | 0x0019      |          25 |
|      18 | 0x0012      |          18 |
|      19 | 0x53644     |      341572 |
|      20 | 0xFFFB4F66  |  4294659942 |
|      21 | 0xFFFFFF55  |  4294967125 |
|      22 | 0x532C4     |      340676 |
|      23 | 0xFFFB480C  |  4294658060 |
|      24 | 0xFFFFFFCB  |  4294967243 |
|      25 | 0x0028      |          40 |
|      26 | 0xFFFD35DF  |  4294784479 |
|      27 | 0xFFFEFEF5  |  4294901493 |
|      28 | 0xFFFFF905  |  4294965509 |
|      29 | 0xFFFD3CAC  |  4294786220 |
|      30 | 0xFFFF0404  |  4294902788 |
|      31 | 0xFFFFF996  |  4294965654 |
|      32 | 0x5C7C8     |      378824 |
|      33 | 0x12374     |       74612 |
|      34 | 0x74EB      |       29931 |
|      35 | 0x5A1C8     |      369096 |
|      36 | 0xBC18      |       48152 |
|      37 | 0x752F      |       29999 |
|      38 | 0xC856      |       51286 |
|      39 | 0x43D01     |      277761 |
|      40 | 0xFFFFFF67  |  4294967143 |
|      41 | 0x98AC      |       39084 |
|      42 | 0x492DB     |      299739 |
|      43 | 0x03E7      |         999 |
|      44 | 0x9B45      |       39749 |
|      45 | 0x4C4D8     |      312536 |
|      46 | 0x0513      |        1299 |
|      47 | 0x057D      |        1405 |
|      48 | 0xF3A0      |       62368 |
|      49 | 0x49298     |      299672 |
|      50 | 0x0002      |           2 |
|      51 | 0x34F6B     |      216939 |
|      52 | 0x22BE9     |      142313 |
|      53 | 0xFFFF9B3F  |  4294941503 |
|      54 | 0x344C0     |      214208 |
|      55 | 0x25913     |      153875 |
|      56 | 0xFFFF953D  |  4294939965 |
|      57 | 0x3207B     |      204923 |
|      58 | 0x282CF     |      164559 |
|      59 | 0xFFFF9284  |  4294939268 |
|      60 | 0x2D898     |      186520 |
|      61 | 0x28701     |      165633 |
|      62 | 0xFFFF9419  |  4294939673 |
|      63 | 0x0601      |        1537 |
|      64 | 0x2D0B4     |      184500 |
|      65 | 0x27CBA     |      163002 |
|      66 | 0xFFFF958B  |  4294940043 |
|      67 | 0x0505      |        1285 |
|      68 | 0x0515      |        1301 |
|      69 | 0x098A      |        2442 |
|      70 | 0x31A17     |      203287 |
|      71 | 0x27C71     |      162929 |
|      72 | 0xFFFF92A0  |  4294939296 |
|      73 | 0x0090      |         144 |
|      74 | 0x3BE46     |      245318 |
|      75 | 0xFFFDD070  |  4294824048 |
|      76 | 0xFFFFC2BA  |  4294951610 |
|      77 | 0x3B973     |      244083 |
|      78 | 0xFFFDFFC5  |  4294836165 |
|      79 | 0xFFFFBEDD  |  4294950621 |
|      80 | 0x08CE      |        2254 |
|      81 | 0x9730E     |      619278 |
|      82 | 0xFFFBBCC5  |  4294687941 |
|      83 | 0x00F4      |         244 |
|      84 | 0x96C53     |      617555 |
|      85 | 0xFFFBCE77  |  4294692471 |
|      86 | 0x0072      |         114 |

## Events

### Event 65535

#### Metadata

| Field        | Value   |
|--------------|---------|
| Entrypoint   | 0x0000  |
| Data Size    | 1 bytes |
| Instructions | 1       |

```
      00 01 02 03 04 05 06 07  08 09 0A 0B 0C 0D 0E 0F
      -- -- -- -- -- -- -- --  -- -- -- -- -- -- -- --
0000: 00                                                .               
```

#### Opcodes

```
  0: 0x0000 [0x00] END_REQSTACK()
```

### Event 65535.1

#### Metadata

| Field        | Value   |
|--------------|---------|
| Entrypoint   | 0x0001  |
| Data Size    | 1 bytes |
| Instructions | 1       |

```
      00 01 02 03 04 05 06 07  08 09 0A 0B 0C 0D 0E 0F
      -- -- -- -- -- -- -- --  -- -- -- -- -- -- -- --
0000:    00                                              .              
```

#### Opcodes

```
  0: 0x0001 [0x00] END_REQSTACK()
```

### Event 65535.2

#### Metadata

| Field        | Value    |
|--------------|----------|
| Entrypoint   | 0x0002   |
| Data Size    | 18 bytes |
| Instructions | 4        |

```
      00 01 02 03 04 05 06 07  08 09 0A 0B 0C 0D 0E 0F
      -- -- -- -- -- -- -- --  -- -- -- -- -- -- -- --
0000:       22 00 2F 00 F8 FF  FF 7F 6C F8 FF FF 7F 00    "./.....l.....
0010: 80 01 80 00                                       ....            
```

#### Opcodes

```
  0: 0x0002 [0x22] ENTITY_HIDE_FLAG(enabled=0x00)
  1: 0x0004 [0x2F] EventEntity->Render.Flags0 &= ~0x80000 // Bit 19
  2: 0x000A [0x6C] FADE_ENTITY_COLOR(entity_id=EventEntity, end_alpha=0*, fade_time=1*)
  3: 0x0013 [0x00] END_REQSTACK()
```

### Event 65535.3

#### Metadata

| Field        | Value    |
|--------------|----------|
| Entrypoint   | 0x0014   |
| Data Size    | 10 bytes |
| Instructions | 2        |

```
      00 01 02 03 04 05 06 07  08 09 0A 0B 0C 0D 0E 0F
      -- -- -- -- -- -- -- --  -- -- -- -- -- -- -- --
0010:             6C F8 FF FF  7F 02 80 01 80 00            l.........  
```

#### Opcodes

```
  0: 0x0014 [0x6C] FADE_ENTITY_COLOR(entity_id=EventEntity, end_alpha=128*, fade_time=1*)
  1: 0x001D [0x00] END_REQSTACK()
```

### Event 65535.4

#### Metadata

| Field        | Value   |
|--------------|---------|
| Entrypoint   | 0x001E  |
| Data Size    | 9 bytes |
| Instructions | 3       |

```
      00 01 02 03 04 05 06 07  08 09 0A 0B 0C 0D 0E 0F
      -- -- -- -- -- -- -- --  -- -- -- -- -- -- -- --
0010:                                            22 00                ".
0020: 2F 00 F8 FF FF 7F 00                              /......         
```

#### Opcodes

```
  0: 0x001E [0x22] ENTITY_HIDE_FLAG(enabled=0x00)
  1: 0x0020 [0x2F] EventEntity->Render.Flags0 &= ~0x80000 // Bit 19
  2: 0x0026 [0x00] END_REQSTACK()
```

### Event 65535.5

#### Metadata

| Field        | Value   |
|--------------|---------|
| Entrypoint   | 0x0027  |
| Data Size    | 9 bytes |
| Instructions | 3       |

```
      00 01 02 03 04 05 06 07  08 09 0A 0B 0C 0D 0E 0F
      -- -- -- -- -- -- -- --  -- -- -- -- -- -- -- --
0020:                      22  01 2F 01 F8 FF FF 7F 00         "./......
```

#### Opcodes

```
  0: 0x0027 [0x22] ENTITY_HIDE_FLAG(enabled=0x01)
  1: 0x0029 [0x2F] EventEntity->Render.Flags0 |= 0x80000 // Bit 19
  2: 0x002F [0x00] END_REQSTACK()
```

### Event 65535.6

#### Metadata

| Field        | Value    |
|--------------|----------|
| Entrypoint   | 0x0030   |
| Data Size    | 10 bytes |
| Instructions | 2        |

```
      00 01 02 03 04 05 06 07  08 09 0A 0B 0C 0D 0E 0F
      -- -- -- -- -- -- -- --  -- -- -- -- -- -- -- --
0030: 6C F8 FF FF 7F 00 80 01  80 00                    l.........      
```

#### Opcodes

```
  0: 0x0030 [0x6C] FADE_ENTITY_COLOR(entity_id=EventEntity, end_alpha=0*, fade_time=1*)
  1: 0x0039 [0x00] END_REQSTACK()
```

### Event 65535.7

#### Metadata

| Field        | Value    |
|--------------|----------|
| Entrypoint   | 0x003A   |
| Data Size    | 10 bytes |
| Instructions | 2        |

```
      00 01 02 03 04 05 06 07  08 09 0A 0B 0C 0D 0E 0F
      -- -- -- -- -- -- -- --  -- -- -- -- -- -- -- --
0030:                                6C F8 FF FF 7F 02            l.....
0040: 80 01 80 00                                       ....            
```

#### Opcodes

```
  0: 0x003A [0x6C] FADE_ENTITY_COLOR(entity_id=EventEntity, end_alpha=128*, fade_time=1*)
  1: 0x0043 [0x00] END_REQSTACK()
```

### Event 1

#### Metadata

| Field        | Value   |
|--------------|---------|
| Entrypoint   | 0x0044  |
| Data Size    | 1 bytes |
| Instructions | 1       |

```
      00 01 02 03 04 05 06 07  08 09 0A 0B 0C 0D 0E 0F
      -- -- -- -- -- -- -- --  -- -- -- -- -- -- -- --
0040:             00                                        .           
```

#### Opcodes

```
  0: 0x0044 [0x00] END_REQSTACK()
```

### Event 7

#### Metadata

| Field        | Value   |
|--------------|---------|
| Entrypoint   | 0x0045  |
| Data Size    | 1 bytes |
| Instructions | 1       |

```
      00 01 02 03 04 05 06 07  08 09 0A 0B 0C 0D 0E 0F
      -- -- -- -- -- -- -- --  -- -- -- -- -- -- -- --
0040:                00                                      .          
```

#### Opcodes

```
  0: 0x0045 [0x00] END_REQSTACK()
```

### Event 31

#### Metadata

| Field        | Value   |
|--------------|---------|
| Entrypoint   | 0x0046  |
| Data Size    | 1 bytes |
| Instructions | 1       |

```
      00 01 02 03 04 05 06 07  08 09 0A 0B 0C 0D 0E 0F
      -- -- -- -- -- -- -- --  -- -- -- -- -- -- -- --
0040:                   00                                    .         
```

#### Opcodes

```
  0: 0x0046 [0x00] END_REQSTACK()
```

### Event 65535.8

#### Metadata

| Field        | Value    |
|--------------|----------|
| Entrypoint   | 0x0047   |
| Data Size    | 15 bytes |
| Instructions | 5        |

```
      00 01 02 03 04 05 06 07  08 09 0A 0B 0C 0D 0E 0F
      -- -- -- -- -- -- -- --  -- -- -- -- -- -- -- --
0040:                      32  03 80 1F 00 04 80 05 80         2........
0050: 06 80 1F 01 6F 00                                 ....o.          
```

#### Opcodes

```
  0: 0x0047 [0x32] ExtData[1]->MainSpeed = 13* * 0.1
  1: 0x004A [0x1F] MOVE_ENTITY: EventEntity moves to X=530.061*, Z=-284.310*, Y=0.284*
  2: 0x0052 [0x1F] MOVE_ENTITY: Update entity position (mode=1)
  3: 0x0054 [0x6F] WAIT_FRAME_DELAY: Yield until WaitTime reaches zero
  4: 0x0055 [0x00] END_REQSTACK()
```

### Event 65535.9

#### Metadata

| Field        | Value    |
|--------------|----------|
| Entrypoint   | 0x0056   |
| Data Size    | 19 bytes |
| Instructions | 5        |

```
      00 01 02 03 04 05 06 07  08 09 0A 0B 0C 0D 0E 0F
      -- -- -- -- -- -- -- --  -- -- -- -- -- -- -- --
0050:                   32 03  80 1F 00 07 80 08 80 09        2.........
0060: 80 1F 01 1E F0 FF FF 7F  00                       .........       
```

#### Opcodes

```
  0: 0x0056 [0x32] ExtData[1]->MainSpeed = 13* * 0.1
  1: 0x0059 [0x1F] MOVE_ENTITY: EventEntity moves to X=532.612*, Z=-285.791*, Y=0.274*
  2: 0x0061 [0x1F] MOVE_ENTITY: Update entity position (mode=1)
  3: 0x0063 [0x1E] EventEntity looks at LocalPlayer and starts talking
  4: 0x0068 [0x00] END_REQSTACK()
```

### Event 65535.10

#### Metadata

| Field        | Value     |
|--------------|-----------|
| Entrypoint   | 0x0069    |
| Data Size    | 169 bytes |
| Instructions | 17        |

```
      00 01 02 03 04 05 06 07  08 09 0A 0B 0C 0D 0E 0F
      -- -- -- -- -- -- -- --  -- -- -- -- -- -- -- --
0060:                             1C 0A 80 52 0B 80 F0           ...R...
0070: FF FF 7F F0 FF FF 7F 30  64 30 63 45 0B 80 F0 FF  .......0d0cE....
0080: FF 7F F0 FF FF 7F 30 64  30 7A 00 80 1C 0C 80 52  ......0d0z.....R
0090: 0B 80 F0 FF FF 7F F0 FF  FF 7F 30 64 30 7A 45 0B  ..........0d0zE.
00A0: 80 F0 FF FF 7F F0 FF FF  7F 30 64 31 62 00 80 1C  .........0d1b...
00B0: 0D 80 5B 0E 80 E8 92 08  01 E8 92 08 01 6B 6F 65  ..[..........koe
00C0: 63 1C 0F 80 5B 0E 80 E9  92 08 01 E9 92 08 01 6B  c...[..........k
00D0: 6F 65 61 5B 0E 80 E5 92  08 01 E5 92 08 01 6B 6F  oea[..........ko
00E0: 65 62 1C 10 80 6E D8 92  08 01 11 80 99 D8 92 08  eb...n..........
00F0: 01 52 0B 80 F0 FF FF 7F  F0 FF FF 7F 30 64 31 62  .R..........0d1b
0100: 45 0B 80 F0 FF FF 7F F0  FF FF 7F 30 64 31 36 00  E..........0d16.
0110: 80 00                                             ..              
```

#### Opcodes

```
  0: 0x0069 [0x1C] WAIT(240* ticks)
  1: 0x006C [0x52] END_LOAD_SCHEDULER: End scheduler "0d0c" with entities [LocalPlayer, LocalPlayer], work=503*
  2: 0x007B [0x45] LOAD_SCHEDULED_TASK: Load scheduler "0d0z" with entities [LocalPlayer, LocalPlayer], work=[503*, 0*]
  3: 0x008C [0x1C] WAIT(150* ticks)
  4: 0x008F [0x52] END_LOAD_SCHEDULER: End scheduler "0d0z" with entities [LocalPlayer, LocalPlayer], work=503*
  5: 0x009E [0x45] LOAD_SCHEDULED_TASK: Load scheduler "0d1b" with entities [LocalPlayer, LocalPlayer], work=[503*, 0*]
  6: 0x00AF [0x1C] WAIT(60* ticks)
  7: 0x00B2 [0x5B] LOAD_EXT_SCHEDULER: Load scheduler "koec" with entities [kisiD (ID: 17339112/0x010892E8), kisiD (ID: 17339112/0x010892E8)], work=2719*
  8: 0x00C1 [0x1C] WAIT(30* ticks)
  9: 0x00C4 [0x5B] LOAD_EXT_SCHEDULER: Load scheduler "koea" with entities [kisiE (ID: 17339113/0x010892E9), kisiE (ID: 17339113/0x010892E9)], work=2719*
 10: 0x00D3 [0x5B] LOAD_EXT_SCHEDULER: Load scheduler "koeb" with entities [Leuonard (ID: 17339109/0x010892E5), Leuonard (ID: 17339109/0x010892E5)], work=2719*
 11: 0x00E2 [0x1C] WAIT(90* ticks)
 12: 0x00E5 [0x6E] Jayramus (ID: 17339096/0x010892D8) uses emote 25*
 13: 0x00EC [0x99] Wait for Jayramus (ID: 17339096/0x010892D8) animation to complete
 14: 0x00F1 [0x52] END_LOAD_SCHEDULER: End scheduler "0d1b" with entities [LocalPlayer, LocalPlayer], work=503*
 15: 0x0100 [0x45] LOAD_SCHEDULED_TASK: Load scheduler "0d16" with entities [LocalPlayer, LocalPlayer], work=[503*, 0*]
 16: 0x0111 [0x00] END_REQSTACK()
```

### Event 65535.11

#### Metadata

| Field        | Value    |
|--------------|----------|
| Entrypoint   | 0x0112   |
| Data Size    | 15 bytes |
| Instructions | 5        |

```
      00 01 02 03 04 05 06 07  08 09 0A 0B 0C 0D 0E 0F
      -- -- -- -- -- -- -- --  -- -- -- -- -- -- -- --
0110:       32 12 80 1F 00 13  80 14 80 15 80 1F 01 6F    2............o
0120: 00                                                .               
```

#### Opcodes

```
  0: 0x0112 [0x32] ExtData[1]->MainSpeed = 18* * 0.1
  1: 0x0115 [0x1F] MOVE_ENTITY: EventEntity moves to X=341.572*, Z=-307.354*, Y=-0.171*
  2: 0x011D [0x1F] MOVE_ENTITY: Update entity position (mode=1)
  3: 0x011F [0x6F] WAIT_FRAME_DELAY: Yield until WaitTime reaches zero
  4: 0x0120 [0x00] END_REQSTACK()
```

### Event 65535.12

#### Metadata

| Field        | Value    |
|--------------|----------|
| Entrypoint   | 0x0121   |
| Data Size    | 30 bytes |
| Instructions | 4        |

```
      00 01 02 03 04 05 06 07  08 09 0A 0B 0C 0D 0E 0F
      -- -- -- -- -- -- -- --  -- -- -- -- -- -- -- --
0120:    7E 06 F8 FF FF 7F 01  80 00 80 01 80 01 80 01   ~..............
0130: 80 01 80 7E 04 F8 FF FF  7F 80 F8 FF FF 7F 00     ...~........... 
```

#### Opcodes

```
  0: 0x0121 [0x7E] CHOCOBO_MOUNT: Mode 6 (custom mount) on EventEntity
  1: 0x0133 [0x7E] CHOCOBO_MOUNT: Mode 4 on EventEntity
  2: 0x0139 [0x80] LOAD_WAIT(entity=EventEntity)
  3: 0x013E [0x00] END_REQSTACK()
```

### Event 65535.13

#### Metadata

| Field        | Value   |
|--------------|---------|
| Entrypoint   | 0x013F  |
| Data Size    | 7 bytes |
| Instructions | 2       |

```
      00 01 02 03 04 05 06 07  08 09 0A 0B 0C 0D 0E 0F
      -- -- -- -- -- -- -- --  -- -- -- -- -- -- -- --
0130:                                               7E                 ~
0140: 05 F8 FF FF 7F 00                                 ......          
```

#### Opcodes

```
  0: 0x013F [0x7E] CHOCOBO_MOUNT: Dismount EventEntity (status = 0)
  1: 0x0145 [0x00] END_REQSTACK()
```

### Event 65535.14

#### Metadata

| Field        | Value    |
|--------------|----------|
| Entrypoint   | 0x0146   |
| Data Size    | 15 bytes |
| Instructions | 5        |

```
      00 01 02 03 04 05 06 07  08 09 0A 0B 0C 0D 0E 0F
      -- -- -- -- -- -- -- --  -- -- -- -- -- -- -- --
0140:                   32 03  80 1F 00 16 80 17 80 18        2.........
0150: 80 1F 01 6F 00                                    ...o.           
```

#### Opcodes

```
  0: 0x0146 [0x32] ExtData[1]->MainSpeed = 13* * 0.1
  1: 0x0149 [0x1F] MOVE_ENTITY: EventEntity moves to X=340.676*, Z=-309.236*, Y=-0.053*
  2: 0x0151 [0x1F] MOVE_ENTITY: Update entity position (mode=1)
  3: 0x0153 [0x6F] WAIT_FRAME_DELAY: Yield until WaitTime reaches zero
  4: 0x0154 [0x00] END_REQSTACK()
```

### Event 65535.15

#### Metadata

| Field        | Value    |
|--------------|----------|
| Entrypoint   | 0x0155   |
| Data Size    | 19 bytes |
| Instructions | 5        |

```
      00 01 02 03 04 05 06 07  08 09 0A 0B 0C 0D 0E 0F
      -- -- -- -- -- -- -- --  -- -- -- -- -- -- -- --
0150:                32 19 80  1F 00 1A 80 1B 80 1C 80       2..........
0160: 1F 01 1E DC 92 08 01 00                           ........        
```

#### Opcodes

```
  0: 0x0155 [0x32] ExtData[1]->MainSpeed = 40* * 0.1
  1: 0x0158 [0x1F] MOVE_ENTITY: EventEntity moves to X=-182.817*, Z=-65.803*, Y=-1.787*
  2: 0x0160 [0x1F] MOVE_ENTITY: Update entity position (mode=1)
  3: 0x0162 [0x1E] EventEntity looks at Bistillot (ID: 17339100/0x010892DC) and starts talking
  4: 0x0167 [0x00] END_REQSTACK()
```

### Event 65535.16

#### Metadata

| Field        | Value    |
|--------------|----------|
| Entrypoint   | 0x0168   |
| Data Size    | 51 bytes |
| Instructions | 9        |

```
      00 01 02 03 04 05 06 07  08 09 0A 0B 0C 0D 0E 0F
      -- -- -- -- -- -- -- --  -- -- -- -- -- -- -- --
0160:                          32 03 80 1F 00 1D 80 1E          2.......
0170: 80 1F 80 1F 01 4A DA 92  08 01 D6 92 08 01 4A DB  .....J........J.
0180: 92 08 01 D6 92 08 01 4A  E4 92 08 01 D6 92 08 01  .......J........
0190: 7B DA 92 08 01 7B DB 92  08 01 00                 {....{.....     
```

#### Opcodes

```
  0: 0x0168 [0x32] ExtData[1]->MainSpeed = 13* * 0.1
  1: 0x016B [0x1F] MOVE_ENTITY: EventEntity moves to X=-181.076*, Z=-64.508*, Y=-1.642*
  2: 0x0173 [0x1F] MOVE_ENTITY: Update entity position (mode=1)
  3: 0x0175 [0x4A] Rahal (ID: 17339098/0x010892DA) looks at Excenmille (ID: 17339094/0x010892D6)
  4: 0x017E [0x4A] Cyranuce (ID: 17339099/0x010892DB) looks at Excenmille (ID: 17339094/0x010892D6)
  5: 0x0187 [0x4A] Altennia (ID: 17339108/0x010892E4) looks at Excenmille (ID: 17339094/0x010892D6)
  6: 0x0190 [0x7B] Rahal (ID: 17339098/0x010892DA) stops talking
  7: 0x0195 [0x7B] Cyranuce (ID: 17339099/0x010892DB) stops talking
  8: 0x019A [0x00] END_REQSTACK()
```

### Event 65535.17

#### Metadata

| Field        | Value    |
|--------------|----------|
| Entrypoint   | 0x019B   |
| Data Size    | 10 bytes |
| Instructions | 2        |

```
      00 01 02 03 04 05 06 07  08 09 0A 0B 0C 0D 0E 0F
      -- -- -- -- -- -- -- --  -- -- -- -- -- -- -- --
0190:                                   6C D6 92 08 01             l....
01A0: 00 80 01 80 00                                    .....           
```

#### Opcodes

```
  0: 0x019B [0x6C] FADE_ENTITY_COLOR(entity_id=Excenmille (ID: 17339094/0x010892D6), end_alpha=0*, fade_time=1*)
  1: 0x01A4 [0x00] END_REQSTACK()
```

### Event 65535.18

#### Metadata

| Field        | Value    |
|--------------|----------|
| Entrypoint   | 0x01A5   |
| Data Size    | 10 bytes |
| Instructions | 2        |

```
      00 01 02 03 04 05 06 07  08 09 0A 0B 0C 0D 0E 0F
      -- -- -- -- -- -- -- --  -- -- -- -- -- -- -- --
01A0:                6C D6 92  08 01 02 80 01 80 00          l......... 
```

#### Opcodes

```
  0: 0x01A5 [0x6C] FADE_ENTITY_COLOR(entity_id=Excenmille (ID: 17339094/0x010892D6), end_alpha=128*, fade_time=1*)
  1: 0x01AE [0x00] END_REQSTACK()
```

### Event 65535.19

#### Metadata

| Field        | Value   |
|--------------|---------|
| Entrypoint   | 0x01AF  |
| Data Size    | 4 bytes |
| Instructions | 2       |

```
      00 01 02 03 04 05 06 07  08 09 0A 0B 0C 0D 0E 0F
      -- -- -- -- -- -- -- --  -- -- -- -- -- -- -- --
01A0:                                               C0                 .
01B0: 01 80 00                                          ...             
```

#### Opcodes

```
  0: 0x01AF [0xC0] EventEntity->Render.Flags3 |= 0x1000 // Set bit 12 (from 1*)
  1: 0x01B2 [0x00] END_REQSTACK()
```

### Event 65535.20

#### Metadata

| Field        | Value   |
|--------------|---------|
| Entrypoint   | 0x01B3  |
| Data Size    | 4 bytes |
| Instructions | 2       |

```
      00 01 02 03 04 05 06 07  08 09 0A 0B 0C 0D 0E 0F
      -- -- -- -- -- -- -- --  -- -- -- -- -- -- -- --
01B0:          C0 00 80 00                                 ....         
```

#### Opcodes

```
  0: 0x01B3 [0xC0] EventEntity->Render.Flags3 &= ~0x1000 // Clear bit 12 (from 0*)
  1: 0x01B6 [0x00] END_REQSTACK()
```

### Event 4

#### Metadata

| Field        | Value   |
|--------------|---------|
| Entrypoint   | 0x01B7  |
| Data Size    | 1 bytes |
| Instructions | 1       |

```
      00 01 02 03 04 05 06 07  08 09 0A 0B 0C 0D 0E 0F
      -- -- -- -- -- -- -- --  -- -- -- -- -- -- -- --
01B0:                      00                                  .        
```

#### Opcodes

```
  0: 0x01B7 [0x00] END_REQSTACK()
```

### Event 65535.21

#### Metadata

| Field        | Value    |
|--------------|----------|
| Entrypoint   | 0x01B8   |
| Data Size    | 11 bytes |
| Instructions | 3        |

```
      00 01 02 03 04 05 06 07  08 09 0A 0B 0C 0D 0E 0F
      -- -- -- -- -- -- -- --  -- -- -- -- -- -- -- --
01B0:                          1F 00 20 80 21 80 22 80          .. .!.".
01C0: 1F 01 00                                          ...             
```

#### Opcodes

```
  0: 0x01B8 [0x1F] MOVE_ENTITY: EventEntity moves to X=378.824*, Z=74.612*, Y=29.931*
  1: 0x01C0 [0x1F] MOVE_ENTITY: Update entity position (mode=1)
  2: 0x01C2 [0x00] END_REQSTACK()
```

### Event 65535.22

#### Metadata

| Field        | Value    |
|--------------|----------|
| Entrypoint   | 0x01C3   |
| Data Size    | 11 bytes |
| Instructions | 3        |

```
      00 01 02 03 04 05 06 07  08 09 0A 0B 0C 0D 0E 0F
      -- -- -- -- -- -- -- --  -- -- -- -- -- -- -- --
01C0:          1F 00 23 80 24  80 25 80 1F 01 00           ..#.$.%....  
```

#### Opcodes

```
  0: 0x01C3 [0x1F] MOVE_ENTITY: EventEntity moves to X=369.096*, Z=48.152*, Y=29.999*
  1: 0x01CB [0x1F] MOVE_ENTITY: Update entity position (mode=1)
  2: 0x01CD [0x00] END_REQSTACK()
```

### Event 65535.23

#### Metadata

| Field        | Value    |
|--------------|----------|
| Entrypoint   | 0x01CE   |
| Data Size    | 11 bytes |
| Instructions | 3        |

```
      00 01 02 03 04 05 06 07  08 09 0A 0B 0C 0D 0E 0F
      -- -- -- -- -- -- -- --  -- -- -- -- -- -- -- --
01C0:                                            1F 00                ..
01D0: 26 80 27 80 28 80 1F 01  00                       &.'.(....       
```

#### Opcodes

```
  0: 0x01CE [0x1F] MOVE_ENTITY: EventEntity moves to X=51.286*, Z=277.761*, Y=-0.153*
  1: 0x01D6 [0x1F] MOVE_ENTITY: Update entity position (mode=1)
  2: 0x01D8 [0x00] END_REQSTACK()
```

### Event 65535.24

#### Metadata

| Field        | Value    |
|--------------|----------|
| Entrypoint   | 0x01D9   |
| Data Size    | 11 bytes |
| Instructions | 3        |

```
      00 01 02 03 04 05 06 07  08 09 0A 0B 0C 0D 0E 0F
      -- -- -- -- -- -- -- --  -- -- -- -- -- -- -- --
01D0:                             1F 00 29 80 2A 80 2B           ..).*.+
01E0: 80 1F 01 00                                       ....            
```

#### Opcodes

```
  0: 0x01D9 [0x1F] MOVE_ENTITY: EventEntity moves to X=39.084*, Z=299.739*, Y=0.999*
  1: 0x01E1 [0x1F] MOVE_ENTITY: Update entity position (mode=1)
  2: 0x01E3 [0x00] END_REQSTACK()
```

### Event 65535.25

#### Metadata

| Field        | Value    |
|--------------|----------|
| Entrypoint   | 0x01E4   |
| Data Size    | 54 bytes |
| Instructions | 8        |

```
      00 01 02 03 04 05 06 07  08 09 0A 0B 0C 0D 0E 0F
      -- -- -- -- -- -- -- --  -- -- -- -- -- -- -- --
01E0:             1F 00 2C 80  2D 80 00 80 1F 01 6F 7C      ..,.-.....o|
01F0: 00 D6 92 08 01 81 00 D6  92 08 01 5B 2E 80 D6 92  ...........[....
0200: 08 01 D6 92 08 01 66 69  30 30 5B 2F 80 D6 92 08  ......fi00[/....
0210: 01 D6 92 08 01 62 74 30  31 00                    .....bt01.      
```

#### Opcodes

```
  0: 0x01E4 [0x1F] MOVE_ENTITY: EventEntity moves to X=39.749*, Z=312.536*, Y=0.000*
  1: 0x01EC [0x1F] MOVE_ENTITY: Update entity position (mode=1)
  2: 0x01EE [0x6F] WAIT_FRAME_DELAY: Yield until WaitTime reaches zero
  3: 0x01EF [0x7C] Excenmille (ID: 17339094/0x010892D6)->Render.Flags2 |= 0x00
  4: 0x01F5 [0x81] SET_ENTITY_BLINKING(blink_flag=0x00, entity=Excenmille (ID: 17339094/0x010892D6))
  5: 0x01FB [0x5B] LOAD_EXT_SCHEDULER: Load scheduler "fi00" with entities [Excenmille (ID: 17339094/0x010892D6), Excenmille (ID: 17339094/0x010892D6)], work=1299*
  6: 0x020A [0x5B] LOAD_EXT_SCHEDULER: Load scheduler "bt01" with entities [Excenmille (ID: 17339094/0x010892D6), Excenmille (ID: 17339094/0x010892D6)], work=1405*
  7: 0x0219 [0x00] END_REQSTACK()
```

### Event 6

#### Metadata

| Field        | Value   |
|--------------|---------|
| Entrypoint   | 0x021A  |
| Data Size    | 1 bytes |
| Instructions | 1       |

```
      00 01 02 03 04 05 06 07  08 09 0A 0B 0C 0D 0E 0F
      -- -- -- -- -- -- -- --  -- -- -- -- -- -- -- --
0210:                                00                           .     
```

#### Opcodes

```
  0: 0x021A [0x00] END_REQSTACK()
```

### Event 65535.26

#### Metadata

| Field        | Value    |
|--------------|----------|
| Entrypoint   | 0x021B   |
| Data Size    | 21 bytes |
| Instructions | 5        |

```
      00 01 02 03 04 05 06 07  08 09 0A 0B 0C 0D 0E 0F
      -- -- -- -- -- -- -- --  -- -- -- -- -- -- -- --
0210:                                   1F 00 30 80 31             ..0.1
0220: 80 00 80 1F 01 6F 4A D6  92 08 01 D8 92 08 01 00  .....oJ.........
```

#### Opcodes

```
  0: 0x021B [0x1F] MOVE_ENTITY: EventEntity moves to X=62.368*, Z=299.672*, Y=0.000*
  1: 0x0223 [0x1F] MOVE_ENTITY: Update entity position (mode=1)
  2: 0x0225 [0x6F] WAIT_FRAME_DELAY: Yield until WaitTime reaches zero
  3: 0x0226 [0x4A] Excenmille (ID: 17339094/0x010892D6) looks at Jayramus (ID: 17339096/0x010892D8)
  4: 0x022F [0x00] END_REQSTACK()
```

### Event 65535.27

#### Metadata

| Field        | Value   |
|--------------|---------|
| Entrypoint   | 0x0230  |
| Data Size    | 4 bytes |
| Instructions | 2       |

```
      00 01 02 03 04 05 06 07  08 09 0A 0B 0C 0D 0E 0F
      -- -- -- -- -- -- -- --  -- -- -- -- -- -- -- --
0230: 95 00 80 00                                       ....            
```

#### Opcodes

```
  0: 0x0230 [0x95] SETUP_EVENT_NPC: Prepare NPC for event (Render.Flags3 = 0*)
  1: 0x0233 [0x00] END_REQSTACK()
```

### Event 65535.28

#### Metadata

| Field        | Value   |
|--------------|---------|
| Entrypoint   | 0x0234  |
| Data Size    | 4 bytes |
| Instructions | 2       |

```
      00 01 02 03 04 05 06 07  08 09 0A 0B 0C 0D 0E 0F
      -- -- -- -- -- -- -- --  -- -- -- -- -- -- -- --
0230:             95 01 80 00                               ....        
```

#### Opcodes

```
  0: 0x0234 [0x95] SETUP_EVENT_NPC: Prepare NPC for event (Render.Flags3 = 1*)
  1: 0x0237 [0x00] END_REQSTACK()
```

### Event 65535.29

#### Metadata

| Field        | Value   |
|--------------|---------|
| Entrypoint   | 0x0238  |
| Data Size    | 4 bytes |
| Instructions | 2       |

```
      00 01 02 03 04 05 06 07  08 09 0A 0B 0C 0D 0E 0F
      -- -- -- -- -- -- -- --  -- -- -- -- -- -- -- --
0230:                          95 32 80 00                      .2..    
```

#### Opcodes

```
  0: 0x0238 [0x95] SETUP_EVENT_NPC: Prepare NPC for event (Render.Flags3 = 2*)
  1: 0x023B [0x00] END_REQSTACK()
```

### Event 33

#### Metadata

| Field        | Value   |
|--------------|---------|
| Entrypoint   | 0x023C  |
| Data Size    | 1 bytes |
| Instructions | 1       |

```
      00 01 02 03 04 05 06 07  08 09 0A 0B 0C 0D 0E 0F
      -- -- -- -- -- -- -- --  -- -- -- -- -- -- -- --
0230:                                      00                       .   
```

#### Opcodes

```
  0: 0x023C [0x00] END_REQSTACK()
```

### Event 65535.30

#### Metadata

| Field        | Value    |
|--------------|----------|
| Entrypoint   | 0x023D   |
| Data Size    | 12 bytes |
| Instructions | 4        |

```
      00 01 02 03 04 05 06 07  08 09 0A 0B 0C 0D 0E 0F
      -- -- -- -- -- -- -- --  -- -- -- -- -- -- -- --
0230:                                         1F 00 33               ..3
0240: 80 34 80 35 80 1F 01 6F  00                       .4.5...o.       
```

#### Opcodes

```
  0: 0x023D [0x1F] MOVE_ENTITY: EventEntity moves to X=216.939*, Z=142.313*, Y=-25.793*
  1: 0x0245 [0x1F] MOVE_ENTITY: Update entity position (mode=1)
  2: 0x0247 [0x6F] WAIT_FRAME_DELAY: Yield until WaitTime reaches zero
  3: 0x0248 [0x00] END_REQSTACK()
```

### Event 65535.31

#### Metadata

| Field        | Value    |
|--------------|----------|
| Entrypoint   | 0x0249   |
| Data Size    | 28 bytes |
| Instructions | 8        |

```
      00 01 02 03 04 05 06 07  08 09 0A 0B 0C 0D 0E 0F
      -- -- -- -- -- -- -- --  -- -- -- -- -- -- -- --
0240:                             1F 00 36 80 37 80 38           ..6.7.8
0250: 80 1F 01 6F 1E C4 92 08  01 6F 76 D6 92 08 01 7B  ...o.....ov....{
0260: D6 92 08 01 00                                    .....           
```

#### Opcodes

```
  0: 0x0249 [0x1F] MOVE_ENTITY: EventEntity moves to X=214.208*, Z=153.875*, Y=-27.331*
  1: 0x0251 [0x1F] MOVE_ENTITY: Update entity position (mode=1)
  2: 0x0253 [0x6F] WAIT_FRAME_DELAY: Yield until WaitTime reaches zero
  3: 0x0254 [0x1E] EventEntity looks at Enguerrand (ID: 17339076/0x010892C4) and starts talking
  4: 0x0259 [0x6F] WAIT_FRAME_DELAY: Yield until WaitTime reaches zero
  5: 0x025A [0x76] CHECK_ENTITY_RENDER_FLAGS: Wait until Excenmille (ID: 17339094/0x010892D6) Render.Flags0 and Render.Flags3 conditions are met
  6: 0x025F [0x7B] Excenmille (ID: 17339094/0x010892D6) stops talking
  7: 0x0264 [0x00] END_REQSTACK()
```

### Event 65535.32

#### Metadata

| Field        | Value    |
|--------------|----------|
| Entrypoint   | 0x0265   |
| Data Size    | 12 bytes |
| Instructions | 4        |

```
      00 01 02 03 04 05 06 07  08 09 0A 0B 0C 0D 0E 0F
      -- -- -- -- -- -- -- --  -- -- -- -- -- -- -- --
0260:                1F 00 39  80 3A 80 3B 80 1F 01 6F       ..9.:.;...o
0270: 00                                                .               
```

#### Opcodes

```
  0: 0x0265 [0x1F] MOVE_ENTITY: EventEntity moves to X=204.923*, Z=164.559*, Y=-28.028*
  1: 0x026D [0x1F] MOVE_ENTITY: Update entity position (mode=1)
  2: 0x026F [0x6F] WAIT_FRAME_DELAY: Yield until WaitTime reaches zero
  3: 0x0270 [0x00] END_REQSTACK()
```

### Event 65535.33

#### Metadata

| Field        | Value    |
|--------------|----------|
| Entrypoint   | 0x0271   |
| Data Size    | 19 bytes |
| Instructions | 5        |

```
      00 01 02 03 04 05 06 07  08 09 0A 0B 0C 0D 0E 0F
      -- -- -- -- -- -- -- --  -- -- -- -- -- -- -- --
0270:    1F 00 3C 80 3D 80 3E  80 1F 01 6F 4B D6 92 08   ..<.=.>...oK...
0280: 01 3F 80 00                                       .?..            
```

#### Opcodes

```
  0: 0x0271 [0x1F] MOVE_ENTITY: EventEntity moves to X=186.520*, Z=165.633*, Y=-27.623*
  1: 0x0279 [0x1F] MOVE_ENTITY: Update entity position (mode=1)
  2: 0x027B [0x6F] WAIT_FRAME_DELAY: Yield until WaitTime reaches zero
  3: 0x027C [0x4B] UPDATE_ENTITY_YAW(entity=Excenmille (ID: 17339094/0x010892D6), yaw=8.4°*)
  4: 0x0283 [0x00] END_REQSTACK()
```

### Event 65535.34

#### Metadata

| Field        | Value    |
|--------------|----------|
| Entrypoint   | 0x0284   |
| Data Size    | 63 bytes |
| Instructions | 11       |

```
      00 01 02 03 04 05 06 07  08 09 0A 0B 0C 0D 0E 0F
      -- -- -- -- -- -- -- --  -- -- -- -- -- -- -- --
0280:             1F 00 40 80  41 80 42 80 1F 01 6F 4B      ..@.A.B...oK
0290: D6 92 08 01 43 80 6F 76  D6 92 08 01 7B D6 92 08  ....C.ov....{...
02A0: 01 5B 44 80 D6 92 08 01  D6 92 08 01 73 68 61 30  .[D.........sha0
02B0: 1C 0D 80 5B 45 80 D6 92  08 01 D6 92 08 01 73 68  ...[E.........sh
02C0: 62 30 00                                          b0.             
```

#### Opcodes

```
  0: 0x0284 [0x1F] MOVE_ENTITY: EventEntity moves to X=184.500*, Z=163.002*, Y=-27.253*
  1: 0x028C [0x1F] MOVE_ENTITY: Update entity position (mode=1)
  2: 0x028E [0x6F] WAIT_FRAME_DELAY: Yield until WaitTime reaches zero
  3: 0x028F [0x4B] UPDATE_ENTITY_YAW(entity=Excenmille (ID: 17339094/0x010892D6), yaw=7.1°*)
  4: 0x0296 [0x6F] WAIT_FRAME_DELAY: Yield until WaitTime reaches zero
  5: 0x0297 [0x76] CHECK_ENTITY_RENDER_FLAGS: Wait until Excenmille (ID: 17339094/0x010892D6) Render.Flags0 and Render.Flags3 conditions are met
  6: 0x029C [0x7B] Excenmille (ID: 17339094/0x010892D6) stops talking
  7: 0x02A1 [0x5B] LOAD_EXT_SCHEDULER: Load scheduler "sha0" with entities [Excenmille (ID: 17339094/0x010892D6), Excenmille (ID: 17339094/0x010892D6)], work=1301*
  8: 0x02B0 [0x1C] WAIT(60* ticks)
  9: 0x02B3 [0x5B] LOAD_EXT_SCHEDULER: Load scheduler "shb0" with entities [Excenmille (ID: 17339094/0x010892D6), Excenmille (ID: 17339094/0x010892D6)], work=2442*
 10: 0x02C2 [0x00] END_REQSTACK()
```

### Event 65535.35

#### Metadata

| Field        | Value    |
|--------------|----------|
| Entrypoint   | 0x02C3   |
| Data Size    | 11 bytes |
| Instructions | 3        |

```
      00 01 02 03 04 05 06 07  08 09 0A 0B 0C 0D 0E 0F
      -- -- -- -- -- -- -- --  -- -- -- -- -- -- -- --
02C0:          1F 00 46 80 47  80 48 80 1F 01 00           ..F.G.H....  
```

#### Opcodes

```
  0: 0x02C3 [0x1F] MOVE_ENTITY: EventEntity moves to X=203.287*, Z=162.929*, Y=-28.000*
  1: 0x02CB [0x1F] MOVE_ENTITY: Update entity position (mode=1)
  2: 0x02CD [0x00] END_REQSTACK()
```

### Event 32

#### Metadata

| Field        | Value   |
|--------------|---------|
| Entrypoint   | 0x02CE  |
| Data Size    | 1 bytes |
| Instructions | 1       |

```
      00 01 02 03 04 05 06 07  08 09 0A 0B 0C 0D 0E 0F
      -- -- -- -- -- -- -- --  -- -- -- -- -- -- -- --
02C0:                                            00                   . 
```

#### Opcodes

```
  0: 0x02CE [0x00] END_REQSTACK()
```

### Event 65535.36

#### Metadata

| Field        | Value    |
|--------------|----------|
| Entrypoint   | 0x02CF   |
| Data Size    | 46 bytes |
| Instructions | 6        |

```
      00 01 02 03 04 05 06 07  08 09 0A 0B 0C 0D 0E 0F
      -- -- -- -- -- -- -- --  -- -- -- -- -- -- -- --
02C0:                                               C5                 .
02D0: 49 80 D6 92 08 01 D6 92  08 01 73 30 30 30 00 80  I.........s000..
02E0: 1F 00 4A 80 4B 80 4C 80  1F 01 6F C5 49 80 D6 92  ..J.K.L...o.I...
02F0: 08 01 D6 92 08 01 73 74  30 30 00 80 00           ......st00...   
```

#### Opcodes

```
  0: 0x02CF [0xC5] LOAD_SCHEDULED_TASK_ALT3: Load scheduler 0x80003030 for entities [Excenmille (ID: 17339094/0x010892D6), Excenmille (ID: 17339094/0x010892D6)], work=144*, param=12403
  1: 0x02E0 [0x1F] MOVE_ENTITY: EventEntity moves to X=245.318*, Z=-143.248*, Y=-15.686*
  2: 0x02E8 [0x1F] MOVE_ENTITY: Update entity position (mode=1)
  3: 0x02EA [0x6F] WAIT_FRAME_DELAY: Yield until WaitTime reaches zero
  4: 0x02EB [0xC5] LOAD_SCHEDULED_TASK_ALT3: Load scheduler 0x80003030 for entities [Excenmille (ID: 17339094/0x010892D6), Excenmille (ID: 17339094/0x010892D6)], work=144*, param=29811
  5: 0x02FC [0x00] END_REQSTACK()
```

### Event 65535.37

#### Metadata

| Field        | Value    |
|--------------|----------|
| Entrypoint   | 0x02FD   |
| Data Size    | 46 bytes |
| Instructions | 6        |

```
      00 01 02 03 04 05 06 07  08 09 0A 0B 0C 0D 0E 0F
      -- -- -- -- -- -- -- --  -- -- -- -- -- -- -- --
02F0:                                         C5 49 80               .I.
0300: D6 92 08 01 D6 92 08 01  73 30 30 30 00 80 1F 00  ........s000....
0310: 4D 80 4E 80 4F 80 1F 01  6F C5 49 80 D6 92 08 01  M.N.O...o.I.....
0320: D6 92 08 01 73 74 30 30  00 80 00                 ....st00...     
```

#### Opcodes

```
  0: 0x02FD [0xC5] LOAD_SCHEDULED_TASK_ALT3: Load scheduler 0x80003030 for entities [Excenmille (ID: 17339094/0x010892D6), Excenmille (ID: 17339094/0x010892D6)], work=144*, param=12403
  1: 0x030E [0x1F] MOVE_ENTITY: EventEntity moves to X=244.083*, Z=-131.131*, Y=-16.675*
  2: 0x0316 [0x1F] MOVE_ENTITY: Update entity position (mode=1)
  3: 0x0318 [0x6F] WAIT_FRAME_DELAY: Yield until WaitTime reaches zero
  4: 0x0319 [0xC5] LOAD_SCHEDULED_TASK_ALT3: Load scheduler 0x80003030 for entities [Excenmille (ID: 17339094/0x010892D6), Excenmille (ID: 17339094/0x010892D6)], work=144*, param=29811
  5: 0x032A [0x00] END_REQSTACK()
```

### Event 40

#### Metadata

| Field        | Value   |
|--------------|---------|
| Entrypoint   | 0x032B  |
| Data Size    | 1 bytes |
| Instructions | 1       |

```
      00 01 02 03 04 05 06 07  08 09 0A 0B 0C 0D 0E 0F
      -- -- -- -- -- -- -- --  -- -- -- -- -- -- -- --
0320:                                   00                         .    
```

#### Opcodes

```
  0: 0x032B [0x00] END_REQSTACK()
```

### Event 65535.38

#### Metadata

| Field        | Value   |
|--------------|---------|
| Entrypoint   | 0x032C  |
| Data Size    | 4 bytes |
| Instructions | 2       |

```
      00 01 02 03 04 05 06 07  08 09 0A 0B 0C 0D 0E 0F
      -- -- -- -- -- -- -- --  -- -- -- -- -- -- -- --
0320:                                      C0 01 80 00              ....
```

#### Opcodes

```
  0: 0x032C [0xC0] EventEntity->Render.Flags3 |= 0x1000 // Set bit 12 (from 1*)
  1: 0x032F [0x00] END_REQSTACK()
```

### Event 65535.39

#### Metadata

| Field        | Value   |
|--------------|---------|
| Entrypoint   | 0x0330  |
| Data Size    | 4 bytes |
| Instructions | 2       |

```
      00 01 02 03 04 05 06 07  08 09 0A 0B 0C 0D 0E 0F
      -- -- -- -- -- -- -- --  -- -- -- -- -- -- -- --
0330: C0 00 80 00                                       ....            
```

#### Opcodes

```
  0: 0x0330 [0xC0] EventEntity->Render.Flags3 &= ~0x1000 // Clear bit 12 (from 0*)
  1: 0x0333 [0x00] END_REQSTACK()
```

### Event 65535.40

#### Metadata

| Field        | Value   |
|--------------|---------|
| Entrypoint   | 0x0334  |
| Data Size    | 5 bytes |
| Instructions | 2       |

```
      00 01 02 03 04 05 06 07  08 09 0A 0B 0C 0D 0E 0F
      -- -- -- -- -- -- -- --  -- -- -- -- -- -- -- --
0330:             B6 00 50 80  00                           ..P..       
```

#### Opcodes

```
  0: 0x0334 [0xB6] ENTITY_APPEARANCE_HANDLER(case=Hair style, value=2254*)
  1: 0x0338 [0x00] END_REQSTACK()
```

### Event 3

#### Metadata

| Field        | Value   |
|--------------|---------|
| Entrypoint   | 0x0339  |
| Data Size    | 1 bytes |
| Instructions | 1       |

```
      00 01 02 03 04 05 06 07  08 09 0A 0B 0C 0D 0E 0F
      -- -- -- -- -- -- -- --  -- -- -- -- -- -- -- --
0330:                             00                             .      
```

#### Opcodes

```
  0: 0x0339 [0x00] END_REQSTACK()
```

### Event 65535.41

#### Metadata

| Field        | Value    |
|--------------|----------|
| Entrypoint   | 0x033A   |
| Data Size    | 14 bytes |
| Instructions | 4        |

```
      00 01 02 03 04 05 06 07  08 09 0A 0B 0C 0D 0E 0F
      -- -- -- -- -- -- -- --  -- -- -- -- -- -- -- --
0330:                                32 03 80 1F 00 51            2....Q
0340: 80 52 80 53 80 1F 01 00                           .R.S....        
```

#### Opcodes

```
  0: 0x033A [0x32] ExtData[1]->MainSpeed = 13* * 0.1
  1: 0x033D [0x1F] MOVE_ENTITY: EventEntity moves to X=619.278*, Z=-279.355*, Y=0.244*
  2: 0x0345 [0x1F] MOVE_ENTITY: Update entity position (mode=1)
  3: 0x0347 [0x00] END_REQSTACK()
```

### Event 65535.42

#### Metadata

| Field        | Value    |
|--------------|----------|
| Entrypoint   | 0x0348   |
| Data Size    | 14 bytes |
| Instructions | 4        |

```
      00 01 02 03 04 05 06 07  08 09 0A 0B 0C 0D 0E 0F
      -- -- -- -- -- -- -- --  -- -- -- -- -- -- -- --
0340:                          32 03 80 1F 00 54 80 55          2....T.U
0350: 80 56 80 1F 01 00                                 .V....          
```

#### Opcodes

```
  0: 0x0348 [0x32] ExtData[1]->MainSpeed = 13* * 0.1
  1: 0x034B [0x1F] MOVE_ENTITY: EventEntity moves to X=617.555*, Z=-274.825*, Y=0.114*
  2: 0x0353 [0x1F] MOVE_ENTITY: Update entity position (mode=1)
  3: 0x0355 [0x00] END_REQSTACK()
```
