# 17339039

## Common Data

| Field            | Value                   |
|------------------|-------------------------|
| Zone             | Xarcabard [S] (ID: 137) |
| Block Size       | 16148 bytes             |
| Total Events     | 4                       |
| References Count | 496                     |

## List of Events

| Event ID              | Entrypoint   |   Size |   Instructions |
|-----------------------|--------------|--------|----------------|
| [65535](#event-65535) | 0x0000       |      1 |              1 |
| [8](#event-8)         | 0x0001       |   3685 |            365 |
| [9](#event-9)         | 0x0E66       |   4657 |            519 |
| [10](#event-10)       | 0x2097       |   5786 |            634 |

## DAT References (imed_data)

|   Index | Hex Value   |   Dec Value |
|---------|-------------|-------------|
|       0 | 0x0000      |           0 |
|       1 | 0x0078      |         120 |
|       2 | 0x0013      |          19 |
|       3 | 0x00FF      |         255 |
|       4 | 0x000C      |          12 |
|       5 | 0x0002      |           2 |
|       6 | 0x0001      |           1 |
|       7 | 0x6B70B     |      440075 |
|       8 | 0xFFFD3139  |  4294783289 |
|       9 | 0x031B      |         795 |
|      10 | 0x07EE      |        2030 |
|      11 | 0x65C19     |      416793 |
|      12 | 0xFFFDE459  |  4294829145 |
|      13 | 0xFFFFFC42  |  4294966338 |
|      14 | 0x02A6      |         678 |
|      15 | 0x65F1F     |      417567 |
|      16 | 0xFFFDC9EB  |  4294822379 |
|      17 | 0xFFFFFFDB  |  4294967259 |
|      18 | 0x6B83C     |      440380 |
|      19 | 0xFFFD3E74  |  4294786676 |
|      20 | 0x03C8      |         968 |
|      21 | 0x03DD      |         989 |
|      22 | 0x6A744     |      436036 |
|      23 | 0xFFFD3146  |  4294783302 |
|      24 | 0x031D      |         797 |
|      25 | 0x07F8      |        2040 |
|      26 | 0x629C2     |      403906 |
|      27 | 0xFFFCFAA9  |  4294769321 |
|      28 | 0xFFFFFFFB  |  4294967291 |
|      29 | 0x0FD2      |        4050 |
|      30 | 0x62154     |      401748 |
|      31 | 0xFFFCF043  |  4294766659 |
|      32 | 0x0423      |        1059 |
|      33 | 0x61DC0     |      400832 |
|      34 | 0xFFFCFEB5  |  4294770357 |
|      35 | 0x0ADE      |        2782 |
|      36 | 0x60789     |      395145 |
|      37 | 0xFFFD23F3  |  4294779891 |
|      38 | 0xFFFFFC7A  |  4294966394 |
|      39 | 0x0C2C      |        3116 |
|      40 | 0x5FFED     |      393197 |
|      41 | 0xFFFD5F9B  |  4294795163 |
|      42 | 0x04E6      |        1254 |
|      43 | 0x06AA      |        1706 |
|      44 | 0x54E92     |      347794 |
|      45 | 0xFFFE55ED  |  4294858221 |
|      46 | 0x0148      |         328 |
|      47 | 0x0C46      |        3142 |
|      48 | 0x50F7F     |      331647 |
|      49 | 0xFFFE28E7  |  4294846695 |
|      50 | 0x0688      |        1672 |
|      51 | 0x05E6      |        1510 |
|      52 | 0x54636     |      345654 |
|      53 | 0xFFFE16C5  |  4294842053 |
|      54 | 0x1675      |        5749 |
|      55 | 0x0FAD      |        4013 |
|      56 | 0x60035     |      393269 |
|      57 | 0xFFFD3986  |  4294785414 |
|      58 | 0xFFFFFD39  |  4294966585 |
|      59 | 0x02C6      |         710 |
|      60 | 0x5F3AF     |      390063 |
|      61 | 0xFFFD5497  |  4294792343 |
|      62 | 0x054F      |        1359 |
|      63 | 0x0ECB      |        3787 |
|      64 | 0x554AC     |      349356 |
|      65 | 0xFFFE6CBB  |  4294864059 |
|      66 | 0x044F      |        1103 |
|      67 | 0x50E9C     |      331420 |
|      68 | 0xFFFE1139  |  4294840633 |
|      69 | 0x0226      |         550 |
|      70 | 0x0DCD      |        3533 |
|      71 | 0x55683     |      349827 |
|      72 | 0xFFFE1E13  |  4294843923 |
|      73 | 0x1B13      |        6931 |
|      74 | 0x08E7      |        2279 |
|      75 | 0x6255B     |      402779 |
|      76 | 0xFFFCF9C0  |  4294769088 |
|      77 | 0x0021      |          33 |
|      78 | 0x003C      |          60 |
|      79 | 0x091D      |        2333 |
|      80 | 0x08B1      |        2225 |
|      81 | 0x05C8      |        1480 |
|      82 | 0x0090      |         144 |
|      83 | 0x0088      |         136 |
|      84 | 0x004F      |          79 |
|      85 | 0x009D      |         157 |
|      86 | 0x097F      |        2431 |
|      87 | 0x090F      |        2319 |
|      88 | 0x00D7      |         215 |
|      89 | 0x020B      |         523 |
|      90 | 0x000F      |          15 |
|      91 | 0x04EC      |        1260 |
|      92 | 0x00C8      |         200 |
|      93 | 0x0064      |         100 |
|      94 | 0x005A      |          90 |
|      95 | 0x0005      |           5 |
|      96 | 0x6A8E5     |      436453 |
|      97 | 0xFFFD31D2  |  4294783442 |
|      98 | 0x0327      |         807 |
|      99 | 0x0F13      |        3859 |
|     100 | 0x6ACB5     |      437429 |
|     101 | 0xFFFD2B8C  |  4294781836 |
|     102 | 0x028A      |         650 |
|     103 | 0x0103      |         259 |
|     104 | 0x0015      |          21 |
|     105 | 0x0019      |          25 |
|     106 | 0x04ED      |        1261 |
|     107 | 0x00E0      |         224 |
|     108 | 0x001E      |          30 |
|     109 | 0x62C67     |      404583 |
|     110 | 0xFFFD0A8B  |  4294773387 |
|     111 | 0x0049      |          73 |
|     112 | 0x0BF6      |        3062 |
|     113 | 0x65DAE     |      417198 |
|     114 | 0xFFFD041F  |  4294771743 |
|     115 | 0x0344      |         836 |
|     116 | 0x027E      |         638 |
|     117 | 0x626AD     |      403117 |
|     118 | 0xFFFD171A  |  4294776602 |
|     119 | 0x0107      |         263 |
|     120 | 0x1F5D      |        8029 |
|     121 | 0x0003      |           3 |
|     122 | 0x0004      |           4 |
|     123 | 0x0006      |           6 |
|     124 | 0x0008      |           8 |
|     125 | 0x68C5E     |      429150 |
|     126 | 0xFFFD9FC7  |  4294811591 |
|     127 | 0x011E      |         286 |
|     128 | 0x0549      |        1353 |
|     129 | 0x0957      |        2391 |
|     130 | 0x0980      |        2432 |
|     131 | 0x1F5E      |        8030 |
|     132 | 0x1F5F      |        8031 |
|     133 | 0x1F60      |        8032 |
|     134 | 0x503AA     |      328618 |
|     135 | 0xFFFDB058  |  4294815832 |
|     136 | 0x066D      |        1645 |
|     137 | 0x0763      |        1891 |
|     138 | 0x00B4      |         180 |
|     139 | 0x64AA2     |      412322 |
|     140 | 0xFFFD3163  |  4294783331 |
|     141 | 0xFFFFFF97  |  4294967191 |
|     142 | 0x0807      |        2055 |
|     143 | 0x64955     |      411989 |
|     144 | 0xFFFD32DF  |  4294783711 |
|     145 | 0x63703     |      407299 |
|     146 | 0xFFFD278F  |  4294780815 |
|     147 | 0x017E      |         382 |
|     148 | 0x0BF7      |        3063 |
|     149 | 0x68EBC     |      429756 |
|     150 | 0xFFFD864E  |  4294805070 |
|     151 | 0x0135      |         309 |
|     152 | 0x67D20     |      425248 |
|     153 | 0xFFFD91E7  |  4294808039 |
|     154 | 0x029E      |         670 |
|     155 | 0x0DD5      |        3541 |
|     156 | 0x0A65      |        2661 |
|     157 | 0x09B7      |        2487 |
|     158 | 0x00DF      |         223 |
|     159 | 0x0032      |          50 |
|     160 | 0x0093      |         147 |
|     161 | 0x64C40     |      412736 |
|     162 | 0xFFFD311C  |  4294783260 |
|     163 | 0x67193     |      422291 |
|     164 | 0xFFFDB3BE  |  4294816702 |
|     165 | 0x005E      |          94 |
|     166 | 0x09A9      |        2473 |
|     167 | 0x000A      |          10 |
|     168 | 0x0014      |          20 |
|     169 | 0x5EBBA     |      388026 |
|     170 | 0xFFFD3124  |  4294783268 |
|     171 | 0x02BC      |         700 |
|     172 | 0x0808      |        2056 |
|     173 | 0x04B0      |        1200 |
|     174 | 0x0056      |          86 |
|     175 | 0xFFFC2CDC  |  4294716636 |
|     176 | 0xFFFFC263  |  4294951523 |
|     177 | 0xFFFFFF73  |  4294967155 |
|     178 | 0x0849      |        2121 |
|     179 | 0xFFFC08EB  |  4294707435 |
|     180 | 0xFFFFE06B  |  4294959211 |
|     181 | 0xFFFFFFAB  |  4294967211 |
|     182 | 0x0409      |        1033 |
|     183 | 0xFFFC00EB  |  4294705387 |
|     184 | 0xFFFFC949  |  4294953289 |
|     185 | 0xFFFFFE75  |  4294966901 |
|     186 | 0x03D5      |         981 |
|     187 | 0xFFFC0C37  |  4294708279 |
|     188 | 0xFFFF56C2  |  4294923970 |
|     189 | 0x04B7      |        1207 |
|     190 | 0x0BFB      |        3067 |
|     191 | 0xFFFC08A7  |  4294707367 |
|     192 | 0xFFFFE79D  |  4294961053 |
|     193 | 0x0044      |          68 |
|     194 | 0xFFFC0612  |  4294706706 |
|     195 | 0xFFFFDE44  |  4294958660 |
|     196 | 0xFFFFFF75  |  4294967157 |
|     197 | 0x0268      |         616 |
|     198 | 0xFFFBFC23  |  4294704163 |
|     199 | 0xFFFFD032  |  4294955058 |
|     200 | 0xFFFFFDCE  |  4294966734 |
|     201 | 0xFFFBF95B  |  4294703451 |
|     202 | 0xFFFFDF75  |  4294958965 |
|     203 | 0xFFFFFB48  |  4294966088 |
|     204 | 0x084A      |        2122 |
|     205 | 0x05DC      |        1500 |
|     206 | 0x00D0      |         208 |
|     207 | 0x020C      |         524 |
|     208 | 0x0956      |        2390 |
|     209 | 0xFFFC040D  |  4294706189 |
|     210 | 0xFFFFB266  |  4294947430 |
|     211 | 0xFFFFFDE1  |  4294966753 |
|     212 | 0x1F61      |        8033 |
|     213 | 0x007F      |         127 |
|     214 | 0x1F62      |        8034 |
|     215 | 0x1F63      |        8035 |
|     216 | 0x0911      |        2321 |
|     217 | 0x0046      |          70 |
|     218 | 0xFFFC04AB  |  4294706347 |
|     219 | 0xFFFFCBFB  |  4294953979 |
|     220 | 0xFFFFFE99  |  4294966937 |
|     221 | 0x0028      |          40 |
|     222 | 0x1F64      |        8036 |
|     223 | 0xFFFC0888  |  4294707336 |
|     224 | 0xFFFFC92E  |  4294953262 |
|     225 | 0xFFFFFE77  |  4294966903 |
|     226 | 0x0918      |        2328 |
|     227 | 0x0919      |        2329 |
|     228 | 0x0096      |         150 |
|     229 | 0xFFFC08D8  |  4294707416 |
|     230 | 0xFFFFD89E  |  4294957214 |
|     231 | 0xFFFFFF23  |  4294967075 |
|     232 | 0x1F65      |        8037 |
|     233 | 0x1F66      |        8038 |
|     234 | 0x00DB      |         219 |
|     235 | 0x00A1      |         161 |
|     236 | 0x1F67      |        8039 |
|     237 | 0x1F68      |        8040 |
|     238 | 0x1F69      |        8041 |
|     239 | 0x1F6A      |        8042 |
|     240 | 0x1F6B      |        8043 |
|     241 | 0x0B65      |        2917 |
|     242 | 0x1F6C      |        8044 |
|     243 | 0xFFFC0901  |  4294707457 |
|     244 | 0xFFFFE2ED  |  4294959853 |
|     245 | 0xFFFFFFC5  |  4294967237 |
|     246 | 0x00CA      |         202 |
|     247 | 0x1F6D      |        8045 |
|     248 | 0x0573      |        1395 |
|     249 | 0xFFFC10EB  |  4294709483 |
|     250 | 0xFFFFC176  |  4294951286 |
|     251 | 0xFFFFFDE2  |  4294966754 |
|     252 | 0x0848      |        2120 |
|     253 | 0x1F6E      |        8046 |
|     254 | 0x1F6F      |        8047 |
|     255 | 0x1F70      |        8048 |
|     256 | 0x25BDA     |      154586 |
|     257 | 0xFFFF1544  |  4294907204 |
|     258 | 0x03E3      |         995 |
|     259 | 0x077B      |        1915 |
|     260 | 0x26009     |      155657 |
|     261 | 0xFFFF1164  |  4294906212 |
|     262 | 0x0465      |        1125 |
|     263 | 0x262A3     |      156323 |
|     264 | 0xFFFF170A  |  4294907658 |
|     265 | 0x04CE      |        1230 |
|     266 | 0x23325     |      144165 |
|     267 | 0xFFFF18E3  |  4294908131 |
|     268 | 0x03A5      |         933 |
|     269 | 0x0FEE      |        4078 |
|     270 | 0x231EE     |      143854 |
|     271 | 0xFFFF0F45  |  4294905669 |
|     272 | 0x043C      |        1084 |
|     273 | 0x27F93     |      163731 |
|     274 | 0xFFFF1594  |  4294907284 |
|     275 | 0x0488      |        1160 |
|     276 | 0x22976     |      141686 |
|     277 | 0xFFFF135C  |  4294906716 |
|     278 | 0x0353      |         851 |
|     279 | 0x24F87     |      151431 |
|     280 | 0xFFFF2217  |  4294910487 |
|     281 | 0x015D      |         349 |
|     282 | 0x06B6      |        1718 |
|     283 | 0x22D9B     |      142747 |
|     284 | 0xFFFF1387  |  4294906759 |
|     285 | 0x0FF2      |        4082 |
|     286 | 0x002C      |          44 |
|     287 | 0x1F71      |        8049 |
|     288 | 0x0045      |          69 |
|     289 | 0x1F72      |        8050 |
|     290 | 0x0007      |           7 |
|     291 | 0x1F73      |        8051 |
|     292 | 0x0102      |         258 |
|     293 | 0x1F74      |        8052 |
|     294 | 0x1F75      |        8053 |
|     295 | 0x1F76      |        8054 |
|     296 | 0x00FA      |         250 |
|     297 | 0x232CE     |      144078 |
|     298 | 0xFFFF15E6  |  4294907366 |
|     299 | 0x03D9      |         985 |
|     300 | 0x0009      |           9 |
|     301 | 0x23ABB     |      146107 |
|     302 | 0xFFFF121D  |  4294906397 |
|     303 | 0x0421      |        1057 |
|     304 | 0x23AB2     |      146098 |
|     305 | 0xFFFF1A1C  |  4294908444 |
|     306 | 0x03CE      |         974 |
|     307 | 0x09B9      |        2489 |
|     308 | 0x1F77      |        8055 |
|     309 | 0x0842      |        2114 |
|     310 | 0x1F78      |        8056 |
|     311 | 0x09B8      |        2488 |
|     312 | 0x25D51     |      154961 |
|     313 | 0xFFFF15CE  |  4294907342 |
|     314 | 0x0368      |         872 |
|     315 | 0x080A      |        2058 |
|     316 | 0x1F79      |        8057 |
|     317 | 0x0AB0      |        2736 |
|     318 | 0x27A83     |      162435 |
|     319 | 0xFFFF1485  |  4294907013 |
|     320 | 0x0486      |        1158 |
|     321 | 0x0FA7      |        4007 |
|     322 | 0x006E      |         110 |
|     323 | 0x28273     |      164467 |
|     324 | 0xFFFF16EF  |  4294907631 |
|     325 | 0x00C9      |         201 |
|     326 | 0x27C15     |      162837 |
|     327 | 0xFFFF18C2  |  4294908098 |
|     328 | 0x0487      |        1159 |
|     329 | 0x0052      |          82 |
|     330 | 0x251DE     |      152030 |
|     331 | 0xFFFF15FE  |  4294907390 |
|     332 | 0x03D6      |         982 |
|     333 | 0x26A9C     |      158364 |
|     334 | 0xFFFF10BD  |  4294906045 |
|     335 | 0x04D0      |        1232 |
|     336 | 0x0FDC      |        4060 |
|     337 | 0x26A27     |      158247 |
|     338 | 0xFFFF190F  |  4294908175 |
|     339 | 0x04C7      |        1223 |
|     340 | 0x0057      |          87 |
|     341 | 0x00DC      |         220 |
|     342 | 0x1F7A      |        8058 |
|     343 | 0x1F7B      |        8059 |
|     344 | 0x1F7C      |        8060 |
|     345 | 0x03E7      |         999 |
|     346 | 0x0089      |         137 |
|     347 | 0x4E286     |      320134 |
|     348 | 0x257E6     |      153574 |
|     349 | 0xFFFFE138  |  4294959416 |
|     350 | 0x0C16      |        3094 |
|     351 | 0x248DC     |      149724 |
|     352 | 0xFFFF1583  |  4294907267 |
|     353 | 0x03EB      |        1003 |
|     354 | 0x22A8C     |      141964 |
|     355 | 0xFFFF161D  |  4294907421 |
|     356 | 0x03C9      |         969 |
|     357 | 0x2592F     |      153903 |
|     358 | 0xFFFF159C  |  4294907292 |
|     359 | 0x0BB5      |        2997 |
|     360 | 0x292FB     |      168699 |
|     361 | 0xFFFF1117  |  4294906135 |
|     362 | 0x046A      |        1130 |
|     363 | 0x22342     |      140098 |
|     364 | 0xFFFF1641  |  4294907457 |
|     365 | 0x0391      |         913 |
|     366 | 0x226BA     |      140986 |
|     367 | 0xFFFF1630  |  4294907440 |
|     368 | 0x03AE      |         942 |
|     369 | 0x0AB1      |        2737 |
|     370 | 0x020D      |         525 |
|     371 | 0x1F7D      |        8061 |
|     372 | 0x1F7E      |        8062 |
|     373 | 0x1F7F      |        8063 |
|     374 | 0x00E6      |         230 |
|     375 | 0x1F80      |        8064 |
|     376 | 0x238CC     |      145612 |
|     377 | 0xFFFF15D9  |  4294907353 |
|     378 | 0x03ED      |        1005 |
|     379 | 0x00E7      |         231 |
|     380 | 0x09BA      |        2490 |
|     381 | 0x1F81      |        8065 |
|     382 | 0x0AB2      |        2738 |
|     383 | 0x25559     |      152921 |
|     384 | 0xFFFF166A  |  4294907498 |
|     385 | 0x03E9      |        1001 |
|     386 | 0x0FFD      |        4093 |
|     387 | 0x232C9     |      144073 |
|     388 | 0xFFFF15B5  |  4294907317 |
|     389 | 0x03DC      |         988 |
|     390 | 0x1F82      |        8066 |
|     391 | 0x0050      |          80 |
|     392 | 0x28831     |      165937 |
|     393 | 0xFFFF1570  |  4294907248 |
|     394 | 0x28DDE     |      167390 |
|     395 | 0xFFFF160C  |  4294907404 |
|     396 | 0x0452      |        1106 |
|     397 | 0x28D15     |      167189 |
|     398 | 0xFFFF0EBA  |  4294905530 |
|     399 | 0x245D3     |      148947 |
|     400 | 0xFFFF0CCA  |  4294905034 |
|     401 | 0x03E1      |         993 |
|     402 | 0x0945      |        2373 |
|     403 | 0x0AB3      |        2739 |
|     404 | 0x0B66      |        2918 |
|     405 | 0x1F83      |        8067 |
|     406 | 0x1F84      |        8068 |
|     407 | 0x2289E     |      141470 |
|     408 | 0xFFFF1654  |  4294907476 |
|     409 | 0x03BE      |         958 |
|     410 | 0x1F85      |        8069 |
|     411 | 0x1F86      |        8070 |
|     412 | 0x1F87      |        8071 |
|     413 | 0x1F88      |        8072 |
|     414 | 0x1F89      |        8073 |
|     415 | 0x1F8A      |        8074 |
|     416 | 0x1F8B      |        8075 |
|     417 | 0x00F3      |         243 |
|     418 | 0x00F4      |         244 |
|     419 | 0x0AB4      |        2740 |
|     420 | 0x22A7F     |      141951 |
|     421 | 0xFFFF255E  |  4294911326 |
|     422 | 0x0387      |         903 |
|     423 | 0x0BCF      |        3023 |
|     424 | 0x22A6A     |      141930 |
|     425 | 0xFFFF6001  |  4294926337 |
|     426 | 0x04D5      |        1237 |
|     427 | 0x0C23      |        3107 |
|     428 | 0x0AB5      |        2741 |
|     429 | 0x1F8C      |        8076 |
|     430 | 0x22D2D     |      142637 |
|     431 | 0xFFFF0E38  |  4294905400 |
|     432 | 0x03F2      |        1010 |
|     433 | 0x0E40      |        3648 |
|     434 | 0x05DB      |        1499 |
|     435 | 0x2249D     |      140445 |
|     436 | 0xFFFF9C86  |  4294941830 |
|     437 | 0x293E      |       10558 |
|     438 | 0x0C53      |        3155 |
|     439 | 0x24472     |      148594 |
|     440 | 0xFFFF1BF3  |  4294908915 |
|     441 | 0x037C      |         892 |
|     442 | 0x0716      |        1814 |
|     443 | 0x21CEF     |      138479 |
|     444 | 0xFFFF5453  |  4294923347 |
|     445 | 0x0367      |         871 |
|     446 | 0x21FE9     |      139241 |
|     447 | 0xFFFF4CBA  |  4294921402 |
|     448 | 0x0417      |        1047 |
|     449 | 0x21988     |      137608 |
|     450 | 0xFFFF4D70  |  4294921584 |
|     451 | 0x22186     |      139654 |
|     452 | 0xFFFFAF10  |  4294946576 |
|     453 | 0x2A33      |       10803 |
|     454 | 0x0BCE      |        3022 |
|     455 | 0x0977      |        2423 |
|     456 | 0x1F8D      |        8077 |
|     457 | 0x1F8E      |        8078 |
|     458 | 0x1F8F      |        8079 |
|     459 | 0x1F90      |        8080 |
|     460 | 0x00ED      |         237 |
|     461 | 0x0012      |          18 |
|     462 | 0x0130      |         304 |
|     463 | 0x1A1DF     |      106975 |
|     464 | 0xFFFFD50A  |  4294956298 |
|     465 | 0xFFFFB12E  |  4294947118 |
|     466 | 0x04D1      |        1233 |
|     467 | 0x0910      |        2320 |
|     468 | 0x097D      |        2429 |
|     469 | 0x0A79      |        2681 |
|     470 | 0x1F91      |        8081 |
|     471 | 0x1F92      |        8082 |
|     472 | 0x1F93      |        8083 |
|     473 | 0x1F94      |        8084 |
|     474 | 0x1F95      |        8085 |
|     475 | 0x1F96      |        8086 |
|     476 | 0x1F97      |        8087 |
|     477 | 0x1F98      |        8088 |
|     478 | 0x0512      |        1298 |
|     479 | 0x1F99      |        8089 |
|     480 | 0x007A      |         122 |
|     481 | 0x1F9A      |        8090 |
|     482 | 0x1F9B      |        8091 |
|     483 | 0x1F9C      |        8092 |
|     484 | 0x0AF0      |        2800 |
|     485 | 0x1F9D      |        8093 |
|     486 | 0x1F9E      |        8094 |
|     487 | 0x1F9F      |        8095 |
|     488 | 0x1FA0      |        8096 |
|     489 | 0x1FA1      |        8097 |
|     490 | 0x1FA2      |        8098 |
|     491 | 0x1FA3      |        8099 |
|     492 | 0x1FA4      |        8100 |
|     493 | 0x1FA5      |        8101 |
|     494 | 0x1FA6      |        8102 |
|     495 | 0x002D      |          45 |

## Events

### Event 65535

#### Metadata

| Field        | Value   |
|--------------|---------|
| Entrypoint   | 0x0000  |
| Data Size    | 1 bytes |
| Instructions | 1       |

```
      00 01 02 03 04 05 06 07  08 09 0A 0B 0C 0D 0E 0F
      -- -- -- -- -- -- -- --  -- -- -- -- -- -- -- --
0000: 00                                                .               
```

#### Opcodes

```
  0: 0x0000 [0x00] END_REQSTACK()
```

### Event 8

#### Metadata

| Field        | Value      |
|--------------|------------|
| Entrypoint   | 0x0001     |
| Data Size    | 3685 bytes |
| Instructions | 365        |

```
      00 01 02 03 04 05 06 07  08 09 0A 0B 0C 0D 0E 0F
      -- -- -- -- -- -- -- --  -- -- -- -- -- -- -- --
0000:    42 5D 00 80 01 80 1A  03 35 46 01 38 02 80 77   B]......5F.8..w
0010: 03 80 04 80 4E 00 F0 FF  FF 7F 2F 00 A0 92 08 01  ....N...../.....
0020: 2F 00 A1 92 08 01 2F 00  B0 92 08 01 2F 00 B1 92  /...../...../...
0030: 08 01 2F 00 A7 92 08 01  2F 00 A8 92 08 01 2F 00  ../...../...../.
0040: A9 92 08 01 2F 00 AD 92  08 01 2F 00 AE 92 08 01  ..../...../.....
0050: 2F 00 AF 92 08 01 2F 00  AB 92 08 01 2F 00 AC 92  /...../...../...
0060: 08 01 2F 00 A2 92 08 01  2F 00 A3 92 08 01 2F 00  ../...../...../.
0070: A4 92 08 01 2F 00 A5 92  08 01 2F 00 A6 92 08 01  ..../...../.....
0080: 4E 00 A0 92 08 01 4E 00  A1 92 08 01 4E 00 A7 92  N.....N.....N...
0090: 08 01 4E 00 A8 92 08 01  4E 00 A9 92 08 01 4E 00  ..N.....N.....N.
00A0: AD 92 08 01 4E 00 AE 92  08 01 4E 00 AF 92 08 01  ....N.....N.....
00B0: 4E 00 AB 92 08 01 4E 00  AC 92 08 01 4E 00 A2 92  N.....N.....N...
00C0: 08 01 4E 00 A3 92 08 01  4E 00 A4 92 08 01 4E 00  ..N.....N.....N.
00D0: A5 92 08 01 4E 00 A6 92  08 01 22 00 94 01 F0 FF  ....N.....".....
00E0: FF 7F 94 01 A0 92 08 01  94 01 A1 92 08 01 7E 06  ..............~.
00F0: A0 92 08 01 05 80 00 80  06 80 06 80 06 80 06 80  ................
0100: 7E 04 A0 92 08 01 7E 06  A1 92 08 01 05 80 00 80  ~.....~.........
0110: 06 80 06 80 06 80 06 80  7E 04 A1 92 08 01 BA F0  ........~.......
0120: FF FF 7F 07 80 08 80 09  80 0A 80 BA A0 92 08 01  ................
0130: 0B 80 0C 80 0D 80 0E 80  BA A1 92 08 01 0F 80 10  ................
0140: 80 11 80 0E 80 BA B0 92  08 01 12 80 13 80 14 80  ................
0150: 15 80 BA B1 92 08 01 16  80 17 80 18 80 19 80 BA  ................
0160: A7 92 08 01 1A 80 1B 80  1C 80 1D 80 BA A8 92 08  ................
0170: 01 1E 80 1F 80 00 80 20  80 BA A9 92 08 01 21 80  ....... ......!.
0180: 22 80 00 80 23 80 BA AD  92 08 01 24 80 25 80 26  "...#......$.%.&
0190: 80 27 80 BA AE 92 08 01  28 80 29 80 2A 80 2B 80  .'......(.).*.+.
01A0: BA AB 92 08 01 2C 80 2D  80 2E 80 2F 80 BA AC 92  .....,.-.../....
01B0: 08 01 30 80 31 80 32 80  33 80 BA AF 92 08 01 34  ..0.1.2.3......4
01C0: 80 35 80 36 80 37 80 BA  A5 92 08 01 38 80 39 80  .5.6.7......8.9.
01D0: 3A 80 3B 80 BA A2 92 08  01 3C 80 3D 80 3E 80 3F  :.;......<.=.>.?
01E0: 80 BA A4 92 08 01 40 80  41 80 2E 80 42 80 BA A3  ......@.A...B...
01F0: 92 08 01 43 80 44 80 45  80 46 80 BA A6 92 08 01  ...C.D.E.F......
0200: 47 80 48 80 49 80 4A 80  37 4B 80 4C 80 00 80 4D  G.H.I.J.7K.L...M
0210: 80 80 F0 FF FF 7F 80 A0  92 08 01 80 A1 92 08 01  ................
0220: 80 B0 92 08 01 80 A7 92  08 01 80 A8 92 08 01 80  ................
0230: A9 92 08 01 80 AD 92 08  01 80 AE 92 08 01 80 AB  ................
0240: 92 08 01 80 AC 92 08 01  80 AF 92 08 01 80 A2 92  ................
0250: 08 01 80 A3 92 08 01 80  A4 92 08 01 80 A5 92 08  ................
0260: 01 80 A6 92 08 01 80 F8  FF FF 7F 94 01 B0 92 08  ................
0270: 01 94 01 B1 92 08 01 94  01 A3 92 08 01 94 01 F8  ................
0280: FF FF 7F 1C 4E 80 5B 4F  80 AC 92 08 01 AC 92 08  ....N.[O........
0290: 01 6B 61 6D 30 5B 4F 80  AB 92 08 01 AB 92 08 01  .kam0[O.........
02A0: 6B 61 6D 30 5B 4F 80 AD  92 08 01 AD 92 08 01 6B  kam0[O.........k
02B0: 61 6D 30 5B 50 80 AF 92  08 01 AF 92 08 01 6B 6D  am0[P.........km
02C0: 61 30 5B 50 80 AE 92 08  01 AE 92 08 01 6B 6D 61  a0[P.........kma
02D0: 30 5B 51 80 A2 92 08 01  A2 92 08 01 6B 65 6E 30  0[Q.........ken0
02E0: 5B 51 80 A3 92 08 01 A3  92 08 01 6B 65 6E 30 5B  [Q.........ken0[
02F0: 51 80 A4 92 08 01 A4 92  08 01 6B 65 6E 30 5B 51  Q.........ken0[Q
0300: 80 A5 92 08 01 A5 92 08  01 6B 65 6E 30 5B 51 80  .........ken0[Q.
0310: A6 92 08 01 A6 92 08 01  6B 65 6E 30 C5 52 80 AB  ........ken0.R..
0320: 92 08 01 AB 92 08 01 73  30 30 31 00 80 C5 52 80  .......s001...R.
0330: AC 92 08 01 AC 92 08 01  73 30 30 31 00 80 C5 52  ........s001...R
0340: 80 AF 92 08 01 AF 92 08  01 73 30 30 31 00 80 C5  .........s001...
0350: 52 80 A2 92 08 01 A2 92  08 01 73 30 30 31 00 80  R.........s001..
0360: 66 53 80 A7 92 08 01 A7  92 08 01 00 FE FE FE 66  fS.............f
0370: 54 80 A8 92 08 01 A8 92  08 01 00 FE FE FE 66 54  T.............fT
0380: 80 A9 92 08 01 A9 92 08  01 00 FE FE FE C5 55 80  ..............U.
0390: F8 FF FF 7F F8 FF FF 7F  00 FE FE FE 00 80 5B 56  ..............[V
03A0: 80 A1 92 08 01 A1 92 08  01 00 FE FE FE 5B 57 80  .............[W.
03B0: B1 92 08 01 B1 92 08 01  00 FE FE FE 5C 00 58 80  ............\.X.
03C0: 5C 01 58 80 9A 45 59 80  F8 FF FF 7F F8 FF FF 7F  \.X..EY.........
03D0: 73 31 34 31 00 80 1C 5A  80 5B 5B 80 A2 92 08 01  s141...Z.[[.....
03E0: A2 92 08 01 72 61 6E 30  5B 5B 80 AB 92 08 01 AB  ....ran0[[......
03F0: 92 08 01 72 61 6E 30 5B  4F 80 AC 92 08 01 AC 92  ...ran0[O.......
0400: 08 01 6E 61 67 30 5B 4F  80 AB 92 08 01 AB 92 08  ..nag0[O........
0410: 01 6E 61 67 31 45 5C 80  F8 FF FF 7F F8 FF FF 7F  .nag1E\.........
0420: 66 64 69 31 00 80 5B 4F  80 AD 92 08 01 AD 92 08  fdi1..[O........
0430: 01 6E 61 67 32 1C 5D 80  52 59 80 F8 FF FF 7F F8  .nag2.].RY......
0440: FF FF 7F 73 31 34 31 45  59 80 F8 FF FF 7F F8 FF  ...s141EY.......
0450: FF 7F 73 31 35 37 00 80  5B 4F 80 AB 92 08 01 AB  ..s157..[O......
0460: 92 08 01 6E 61 67 31 5B  4F 80 AC 92 08 01 AC 92  ...nag1[O.......
0470: 08 01 6E 61 67 30 1C 5E  80 66 53 80 A7 92 08 01  ..nag0.^.fS.....
0480: A7 92 08 01 62 6F 6D 30  66 54 80 A8 92 08 01 A8  ....bom0fT......
0490: 92 08 01 66 6B 69 62 66  54 80 A9 92 08 01 A9 92  ...fkibfT.......
04A0: 08 01 66 6B 69 61 52 59  80 F8 FF FF 7F F8 FF FF  ..fkiaRY........
04B0: 7F 73 31 35 37 45 59 80  F8 FF FF 7F F8 FF FF 7F  .s157EY.........
04C0: 73 31 34 32 00 80 1C 5F  80 C5 55 80 F8 FF FF 7F  s142..._..U.....
04D0: F8 FF FF 7F 73 30 30 30  00 80 1C 5F 80 5B 5B 80  ....s000..._.[[.
04E0: AB 92 08 01 AB 92 08 01  6B 61 6E 30 6B 69 64 6C  ........kan0kidl
04F0: 30 A3 92 08 01 6B 69 64  6C 30 A6 92 08 01 BA A3  0....kidl0......
0500: 92 08 01 60 80 61 80 62  80 63 80 BA A6 92 08 01  ...`.a.b.c......
0510: 64 80 65 80 66 80 67 80  1C 5A 80 2C A3 92 08 01  d.e.f.g..Z.,....
0520: A3 92 08 01 63 6F 72 70  2C A6 92 08 01 A6 92 08  ....corp,.......
0530: 01 63 6F 72 70 1C 5A 80  5B 5B 80 A2 92 08 01 A2  .corp.Z.[[......
0540: 92 08 01 6B 61 6E 30 5B  5B 80 AB 92 08 01 AB 92  ...kan0[[.......
0550: 08 01 6B 61 6E 30 6B 69  64 6C 30 AE 92 08 01 C5  ..kan0kidl0.....
0560: 52 80 AF 92 08 01 AF 92  08 01 6B 6C 30 31 00 80  R.........kl01..
0570: C5 52 80 AB 92 08 01 AB  92 08 01 6B 6C 30 31 00  .R.........kl01.
0580: 80 52 59 80 F8 FF FF 7F  F8 FF FF 7F 73 31 34 32  .RY.........s142
0590: 45 59 80 F8 FF FF 7F F8  FF FF 7F 73 31 35 31 00  EY.........s151.
05A0: 80 6E F0 FF FF 7F 68 80  99 F0 FF FF 7F 1C 4E 80  .n....h.......N.
05B0: 4E 01 A7 92 08 01 4E 01  A8 92 08 01 4E 01 A9 92  N.....N.....N...
05C0: 08 01 27 05 A0 92 08 01  02 1C 69 80 27 05 A1 92  ..'.......i.'...
05D0: 08 01 02 1C 5A 80 52 59  80 F8 FF FF 7F F8 FF FF  ....Z.RY........
05E0: 7F 73 31 35 31 45 59 80  F8 FF FF 7F F8 FF FF 7F  .s151EY.........
05F0: 73 31 35 30 00 80 1C 01  80 52 59 80 F8 FF FF 7F  s150.....RY.....
0600: F8 FF FF 7F 73 31 35 30  45 59 80 F8 FF FF 7F F8  ....s150EY......
0610: FF FF 7F 73 31 34 33 00  80 5B 6A 80 B0 92 08 01  ...s143..[j.....
0620: B0 92 08 01 67 65 30 30  C5 6B 80 B0 92 08 01 B0  ....ge00.k......
0630: 92 08 01 73 74 30 31 00  80 4E 00 B0 92 08 01 1C  ...st01..N......
0640: 6C 80 6B 69 64 6C 30 A3  92 08 01 4E 01 AD 92 08  l.kidl0....N....
0650: 01 4E 01 A5 92 08 01 BA  A3 92 08 01 43 80 44 80  .N..........C.D.
0660: 45 80 46 80 BA AD 92 08  01 6D 80 6E 80 6F 80 70  E.F......m.n.o.p
0670: 80 BA AE 92 08 01 71 80  72 80 73 80 74 80 BA A5  ......q.r.s.t...
0680: 92 08 01 75 80 76 80 77  80 3B 80 7A 00 A1 92 08  ...u.v.w.;.z....
0690: 01 7E 05 A1 92 08 01 1C  4E 80 52 59 80 F8 FF FF  .~......N.RY....
06A0: 7F F8 FF FF 7F 73 31 34  33 45 59 80 F8 FF FF 7F  .....s143EY.....
06B0: F8 FF FF 7F 73 31 34 38  00 80 1C 4E 80 7A 00 A0  ....s148...N.z..
06C0: 92 08 01 7E 05 A0 92 08  01 2B A0 92 08 01 78 80  ...~.....+....x.
06D0: 1C 4E 80 52 59 80 F8 FF  FF 7F F8 FF FF 7F 73 31  .N.RY.........s1
06E0: 34 38 02 87 7F 79 80 80  FE 06 45 59 80 F8 FF FF  48...y....EY....
06F0: 7F F8 FF FF 7F 73 31 35  33 00 80 01 7F 07 02 87  .....s153.......
0700: 7F 7A 80 80 1A 07 45 59  80 F8 FF FF 7F F8 FF FF  .z....EY........
0710: 7F 73 31 35 33 00 80 01  7F 07 02 87 7F 5F 80 80  .s153........_..
0720: 36 07 45 59 80 F8 FF FF  7F F8 FF FF 7F 73 31 35  6.EY.........s15
0730: 32 00 80 01 7F 07 02 87  7F 7B 80 80 52 07 45 59  2........{..R.EY
0740: 80 F8 FF FF 7F F8 FF FF  7F 73 31 35 32 00 80 01  .........s152...
0750: 7F 07 02 87 7F 7C 80 80  6E 07 45 59 80 F8 FF FF  .....|..n.EY....
0760: 7F F8 FF FF 7F 73 31 35  33 00 80 01 7F 07 45 59  .....s153.....EY
0770: 80 F8 FF FF 7F F8 FF FF  7F 73 31 34 39 00 80 4B  .........s149..K
0780: F0 FF FF 7F 70 80 1C 5A  80 6B 69 64 6C 30 B0 92  ....p..Z.kidl0..
0790: 08 01 6B 69 64 6C 30 A6  92 08 01 4E 00 B1 92 08  ..kidl0....N....
07A0: 01 BA A6 92 08 01 7D 80  7E 80 7F 80 80 80 BA A0  ......}.~.......
07B0: 92 08 01 16 80 17 80 18  80 19 80 BA A1 92 08 01  ................
07C0: 16 80 17 80 18 80 19 80  BA B0 92 08 01 16 80 17  ................
07D0: 80 18 80 19 80 1C 6C 80  5B 81 80 A0 92 08 01 A0  ......l.[.......
07E0: 92 08 01 78 61 72 30 5B  82 80 B0 92 08 01 B0 92  ...xar0[........
07F0: 08 01 78 61 72 30 5B 56  80 A1 92 08 01 A1 92 08  ..xar0[V........
0800: 01 78 61 72 30 5B 57 80  B1 92 08 01 B1 92 08 01  .xar0[W.........
0810: 78 61 72 30 1C 5A 80 23  52 59 80 F8 FF FF 7F F8  xar0.Z.#RY......
0820: FF FF 7F 73 31 34 39 52  59 80 F8 FF FF 7F F8 FF  ...s149RY.......
0830: FF 7F 73 31 35 32 52 59  80 F8 FF FF 7F F8 FF FF  ..s152RY........
0840: 7F 73 31 35 33 45 59 80  F8 FF FF 7F F8 FF FF 7F  .s153EY.........
0850: 73 31 34 34 00 80 5B 81  80 A0 92 08 01 A0 92 08  s144..[.........
0860: 01 78 61 72 31 5B 82 80  B0 92 08 01 B0 92 08 01  .xar1[..........
0870: 78 61 72 31 79 00 F0 FF  FF 7F A0 92 08 01 2B A0  xar1y.........+.
0880: 92 08 01 83 80 23 53 A0  92 08 01 A0 92 08 01 78  .....#S........x
0890: 61 72 31 53 B0 92 08 01  B0 92 08 01 78 61 72 31  ar1S........xar1
08A0: 52 59 80 F8 FF FF 7F F8  FF FF 7F 73 31 34 34 45  RY.........s144E
08B0: 59 80 F8 FF FF 7F F8 FF  FF 7F 73 31 34 35 00 80  Y.........s145..
08C0: 5B 81 80 A0 92 08 01 A0  92 08 01 78 61 72 32 5B  [..........xar2[
08D0: 82 80 B0 92 08 01 B0 92  08 01 78 61 72 32 2B A0  ..........xar2+.
08E0: 92 08 01 84 80 23 2B A1  92 08 01 85 80 23 53 A0  .....#+......#S.
08F0: 92 08 01 A0 92 08 01 78  61 72 32 53 B0 92 08 01  .......xar2S....
0900: B0 92 08 01 78 61 72 32  C5 52 80 AD 92 08 01 AD  ....xar2.R......
0910: 92 08 01 73 30 30 31 00  80 5B 56 80 A1 92 08 01  ...s001..[V.....
0920: A1 92 08 01 78 61 72 31  5B 57 80 B1 92 08 01 B1  ....xar1[W......
0930: 92 08 01 78 61 72 31 5B  81 80 A0 92 08 01 A0 92  ...xar1[........
0940: 08 01 78 61 72 33 5B 82  80 B0 92 08 01 B0 92 08  ..xar3[.........
0950: 01 78 61 72 33 52 59 80  F8 FF FF 7F F8 FF FF 7F  .xar3RY.........
0960: 73 31 34 35 45 59 80 F8  FF FF 7F F8 FF FF 7F 73  s145EY.........s
0970: 31 35 36 00 80 37 86 80  87 80 88 80 89 80 1C 01  156..7..........
0980: 80 52 59 80 F8 FF FF 7F  F8 FF FF 7F 73 31 35 36  .RY.........s156
0990: 45 59 80 F8 FF FF 7F F8  FF FF 7F 73 31 34 36 00  EY.........s146.
09A0: 80 1C 8A 80 BA A0 92 08  01 8B 80 8C 80 8D 80 8E  ................
09B0: 80 BA A1 92 08 01 8B 80  8C 80 8D 80 8E 80 BA B0  ................
09C0: 92 08 01 8B 80 8C 80 8D  80 8E 80 BA B1 92 08 01  ................
09D0: 8F 80 90 80 8D 80 8E 80  BA AF 92 08 01 91 80 92  ................
09E0: 80 93 80 94 80 BA AB 92  08 01 95 80 96 80 97 80  ................
09F0: 70 80 BA AC 92 08 01 98  80 99 80 9A 80 9B 80 37  p..............7
0A00: 8B 80 8C 80 8D 80 8E 80  6B 69 64 6C 30 A0 92 08  ........kidl0...
0A10: 01 6B 69 64 6C 30 A1 92  08 01 6B 69 64 6C 30 B0  .kidl0....kidl0.
0A20: 92 08 01 6B 69 64 6C 30  B1 92 08 01 1C 5F 80 27  ...kidl0....._.'
0A30: 05 AB 92 08 01 08 27 05  AC 92 08 01 09 5B 5B 80  ......'......[[.
0A40: AF 92 08 01 AF 92 08 01  72 61 6E 30 5B 9C 80 A1  ........ran0[...
0A50: 92 08 01 A1 92 08 01 78  61 72 33 5B 57 80 B1 92  .......xar3[W...
0A60: 08 01 B1 92 08 01 78 61  72 33 5B 9D 80 A0 92 08  ......xar3[.....
0A70: 01 A0 92 08 01 78 61 72  35 5B 82 80 B0 92 08 01  .....xar5[......
0A80: B0 92 08 01 78 61 72 35  C5 9E 80 A0 92 08 01 A0  ....xar5........
0A90: 92 08 01 73 74 30 31 00  80 C5 6B 80 B0 92 08 01  ...st01...k.....
0AA0: B0 92 08 01 73 74 30 32  00 80 52 59 80 F8 FF FF  ....st02..RY....
0AB0: 7F F8 FF FF 7F 73 31 34  36 45 59 80 F8 FF FF 7F  .....s146EY.....
0AC0: F8 FF FF 7F 73 31 35 34  00 80 4A F0 FF FF 7F A0  ....s154..J.....
0AD0: 92 08 01 1C 4E 80 2C AE  92 08 01 AE 92 08 01 64  ....N.,........d
0AE0: 65 61 64 1C 4E 80 2C AF  92 08 01 AF 92 08 01 64  ead.N.,........d
0AF0: 65 61 64 1C 9F 80 73 A0  80 A3 92 08 01 AB 92 08  ead...s.........
0B00: 01 5B 51 80 A6 92 08 01  A6 92 08 01 6B 65 6E 30  .[Q.........ken0
0B10: 1C 4E 80 52 59 80 F8 FF  FF 7F F8 FF FF 7F 73 31  .N.RY.........s1
0B20: 35 34 45 59 80 F8 FF FF  7F F8 FF FF 7F 73 31 35  54EY.........s15
0B30: 35 00 80 5B 4F 80 AC 92  08 01 AC 92 08 01 6E 61  5..[O.........na
0B40: 67 30 2C AB 92 08 01 AB  92 08 01 64 65 61 64 1C  g0,........dead.
0B50: 6C 80 6B 69 64 6C 30 AE  92 08 01 6B 69 64 6C 30  l.kidl0....kidl0
0B60: AF 92 08 01 4E 00 AD 92  08 01 4E 00 A5 92 08 01  ....N.....N.....
0B70: BA A0 92 08 01 A1 80 A2  80 8D 80 8E 80 1C 6C 80  ..............l.
0B80: 5B 9C 80 A1 92 08 01 A1  92 08 01 78 61 72 33 5B  [..........xar3[
0B90: 57 80 B1 92 08 01 B1 92  08 01 78 61 72 33 5B 9D  W.........xar3[.
0BA0: 80 A0 92 08 01 A0 92 08  01 78 61 72 35 5B 82 80  .........xar5[..
0BB0: B0 92 08 01 B0 92 08 01  78 61 72 35 C5 9E 80 A0  ........xar5....
0BC0: 92 08 01 A0 92 08 01 73  74 30 31 00 80 C5 6B 80  .......st01...k.
0BD0: B0 92 08 01 B0 92 08 01  73 74 30 32 00 80 1C 6C  ........st02...l
0BE0: 80 52 59 80 F8 FF FF 7F  F8 FF FF 7F 73 31 35 35  .RY.........s155
0BF0: 45 59 80 F8 FF FF 7F F8  FF FF 7F 73 31 35 38 00  EY.........s158.
0C00: 80 1C 6C 80 2C AE 92 08  01 AE 92 08 01 64 65 61  ..l.,........dea
0C10: 64 1C 4E 80 2C AF 92 08  01 AF 92 08 01 64 65 61  d.N.,........dea
0C20: 64 6B 69 64 6C 30 AB 92  08 01 BA AB 92 08 01 A3  dkidl0..........
0C30: 80 A4 80 A5 80 A6 80 1C  A7 80 27 05 AB 92 08 01  ..........'.....
0C40: 08 1C A8 80 5B 4F 80 AD  92 08 01 AD 92 08 01 6E  ....[O.........n
0C50: 61 67 32 73 A0 80 AE 92  08 01 AB 92 08 01 1C 4E  ag2s...........N
0C60: 80 52 59 80 F8 FF FF 7F  F8 FF FF 7F 73 31 35 38  .RY.........s158
0C70: 45 59 80 F8 FF FF 7F F8  FF FF 7F 73 31 35 39 00  EY.........s159.
0C80: 80 2C AB 92 08 01 AB 92  08 01 64 65 61 64 73 A0  .,........deads.
0C90: 80 AD 92 08 01 AC 92 08  01 1C 4E 80 6B 69 64 6C  ..........N.kidl
0CA0: 30 AE 92 08 01 BA AE 92  08 01 28 80 29 80 2A 80  0.........(.).*.
0CB0: 2B 80 2C AC 92 08 01 AC  92 08 01 64 65 61 64 1C  +.,........dead.
0CC0: 6C 80 5B 50 80 AE 92 08  01 AE 92 08 01 6B 6D 61  l.[P.........kma
0CD0: 30 59 05 A0 92 08 01 01  59 05 A1 92 08 01 01 59  0Y......Y......Y
0CE0: 05 B0 92 08 01 01 59 05  B1 92 08 01 01 BA A0 92  ......Y.........
0CF0: 08 01 A9 80 AA 80 AB 80  AC 80 BA A1 92 08 01 A9  ................
0D00: 80 AA 80 AD 80 AC 80 BA  B0 92 08 01 A9 80 AA 80  ................
0D10: AB 80 AC 80 BA B1 92 08  01 A9 80 AA 80 AD 80 AC  ................
0D20: 80 5B 9C 80 A1 92 08 01  A1 92 08 01 78 61 72 35  .[..........xar5
0D30: 5B 57 80 B1 92 08 01 B1  92 08 01 78 61 72 35 C5  [W.........xar5.
0D40: 6B 80 B1 92 08 01 B1 92  08 01 73 74 30 34 00 80  k.........st04..
0D50: 5B 9D 80 A0 92 08 01 A0  92 08 01 78 61 72 37 5B  [..........xar7[
0D60: 82 80 B0 92 08 01 B0 92  08 01 78 61 72 37 C5 6B  ..........xar7.k
0D70: 80 B0 92 08 01 B0 92 08  01 73 74 30 33 00 80 5B  .........st03..[
0D80: 51 80 A3 92 08 01 A3 92  08 01 6B 65 6E 30 5B 51  Q.........ken0[Q
0D90: 80 A6 92 08 01 A6 92 08  01 6B 65 6E 30 52 59 80  .........ken0RY.
0DA0: F8 FF FF 7F F8 FF FF 7F  73 31 35 39 45 59 80 F8  ........s159EY..
0DB0: FF FF 7F F8 FF FF 7F 73  31 34 37 00 80 5B 4F 80  .......s147..[O.
0DC0: AD 92 08 01 AD 92 08 01  6E 61 67 32 1C A8 80 C5  ........nag2....
0DD0: 55 80 F8 FF FF 7F F8 FF  FF 7F 73 30 30 30 00 80  U.........s000..
0DE0: 1C 5D 80 5D 00 80 01 80  1A 03 35 1C 6C 80 52 59  .].]......5.l.RY
0DF0: 80 F8 FF FF 7F F8 FF FF  7F 73 31 34 37 78 C5 52  .........s147x.R
0E00: 80 AD 92 08 01 AD 92 08  01 6B 6C 30 31 00 80 C5  .........kl01...
0E10: 52 80 A2 92 08 01 A2 92  08 01 6B 6C 30 31 00 80  R.........kl01..
0E20: C5 52 80 AC 92 08 01 AC  92 08 01 6B 6C 30 31 00  .R.........kl01.
0E30: 80 5B 5B 80 AF 92 08 01  AF 92 08 01 6B 61 6E 30  .[[.........kan0
0E40: 27 05 AB 92 08 01 07 27  05 AC 92 08 01 08 1C 4E  '......'.......N
0E50: 80 46 00 45 5C 80 F0 FF  FF 7F F0 FF FF 7F 66 64  .F.E\.........fd
0E60: 69 32 00 80 21 00                                 i2..!.          
```

#### Opcodes

```
  0: 0x0001 [0x42] SET_CLI_EVENT_CANCEL_DATA()
  1: 0x0002 [0x5D] SET_MUSIC_VOLUME(volume=0*, fade_time=120*)
  2: 0x0007 [0x1A] CALL_SUBROUTINE(address=0x3503)
  3: 0x000A [0x46] CAMERA_CONTROL: Disable user control
  4: 0x000C [0x38] SET_CLIENT_EVENT_MODE(mode=19*)
  5: 0x000F [0x77] SET_EVENT_TIME_WEATHER(hour=255*, weather=12*)
  6: 0x0014 [0x4E] SET_ENTITY_HIDE_FLAG: Show LocalPlayer
  7: 0x001A [0x2F] Nicolaus (ID: 17339040/0x010892A0)->Render.Flags0 &= ~0x80000 // Bit 19
  8: 0x0020 [0x2F] Five Moons (ID: 17339041/0x010892A1)->Render.Flags0 &= ~0x80000 // Bit 19
  9: 0x0026 [0x2F] Unnamed NPC (ID: 17339056/0x010892B0)->Render.Flags0 &= ~0x80000 // Bit 19
 10: 0x002C [0x2F] Unnamed NPC (ID: 17339057/0x010892B1)->Render.Flags0 &= ~0x80000 // Bit 19
 11: 0x0032 [0x2F] Slumbering Savage (ID: 17339047/0x010892A7)->Render.Flags0 &= ~0x80000 // Bit 19
 12: 0x0038 [0x2F] Unnamed NPC (ID: 17339048/0x010892A8)->Render.Flags0 &= ~0x80000 // Bit 19
 13: 0x003E [0x2F] Unnamed NPC (ID: 17339049/0x010892A9)->Render.Flags0 &= ~0x80000 // Bit 19
 14: 0x0044 [0x2F] Unnamed NPC (ID: 17339053/0x010892AD)->Render.Flags0 &= ~0x80000 // Bit 19
 15: 0x004A [0x2F] Unnamed NPC (ID: 17339054/0x010892AE)->Render.Flags0 &= ~0x80000 // Bit 19
 16: 0x0050 [0x2F] Unnamed NPC (ID: 17339055/0x010892AF)->Render.Flags0 &= ~0x80000 // Bit 19
 17: 0x0056 [0x2F] Klara (ID: 17339051/0x010892AB)->Render.Flags0 &= ~0x80000 // Bit 19
 18: 0x005C [0x2F] Zeid (ID: 17339052/0x010892AC)->Render.Flags0 &= ~0x80000 // Bit 19
 19: 0x0062 [0x2F] ??? (ID: 17339042/0x010892A2)->Render.Flags0 &= ~0x80000 // Bit 19
 20: 0x0068 [0x2F] Heiner (ID: 17339043/0x010892A3)->Render.Flags0 &= ~0x80000 // Bit 19
 21: 0x006E [0x2F] Prien (ID: 17339044/0x010892A4)->Render.Flags0 &= ~0x80000 // Bit 19
 22: 0x0074 [0x2F] Stefan (ID: 17339045/0x010892A5)->Render.Flags0 &= ~0x80000 // Bit 19
 23: 0x007A [0x2F] Unnamed NPC (ID: 17339046/0x010892A6)->Render.Flags0 &= ~0x80000 // Bit 19
 24: 0x0080 [0x4E] SET_ENTITY_HIDE_FLAG: Show Nicolaus (ID: 17339040/0x010892A0)
 25: 0x0086 [0x4E] SET_ENTITY_HIDE_FLAG: Show Five Moons (ID: 17339041/0x010892A1)
 26: 0x008C [0x4E] SET_ENTITY_HIDE_FLAG: Show Slumbering Savage (ID: 17339047/0x010892A7)
 27: 0x0092 [0x4E] SET_ENTITY_HIDE_FLAG: Show Unnamed NPC (ID: 17339048/0x010892A8)
 28: 0x0098 [0x4E] SET_ENTITY_HIDE_FLAG: Show Unnamed NPC (ID: 17339049/0x010892A9)
 29: 0x009E [0x4E] SET_ENTITY_HIDE_FLAG: Show Unnamed NPC (ID: 17339053/0x010892AD)
 30: 0x00A4 [0x4E] SET_ENTITY_HIDE_FLAG: Show Unnamed NPC (ID: 17339054/0x010892AE)
 31: 0x00AA [0x4E] SET_ENTITY_HIDE_FLAG: Show Unnamed NPC (ID: 17339055/0x010892AF)
 32: 0x00B0 [0x4E] SET_ENTITY_HIDE_FLAG: Show Klara (ID: 17339051/0x010892AB)
 33: 0x00B6 [0x4E] SET_ENTITY_HIDE_FLAG: Show Zeid (ID: 17339052/0x010892AC)
 34: 0x00BC [0x4E] SET_ENTITY_HIDE_FLAG: Show ??? (ID: 17339042/0x010892A2)
 35: 0x00C2 [0x4E] SET_ENTITY_HIDE_FLAG: Show Heiner (ID: 17339043/0x010892A3)
 36: 0x00C8 [0x4E] SET_ENTITY_HIDE_FLAG: Show Prien (ID: 17339044/0x010892A4)
 37: 0x00CE [0x4E] SET_ENTITY_HIDE_FLAG: Show Stefan (ID: 17339045/0x010892A5)
 38: 0x00D4 [0x4E] SET_ENTITY_HIDE_FLAG: Show Unnamed NPC (ID: 17339046/0x010892A6)
 39: 0x00DA [0x22] ENTITY_HIDE_FLAG(enabled=0x00)
 40: 0x00DC [0x94] LocalPlayer->Render.Flags3 ^= 0x01
 41: 0x00E2 [0x94] Nicolaus (ID: 17339040/0x010892A0)->Render.Flags3 ^= 0x01
 42: 0x00E8 [0x94] Five Moons (ID: 17339041/0x010892A1)->Render.Flags3 ^= 0x01
 43: 0x00EE [0x7E] CHOCOBO_MOUNT: Mode 6 (custom mount) on Nicolaus (ID: 17339040/0x010892A0)
 44: 0x0100 [0x7E] CHOCOBO_MOUNT: Mode 4 on Nicolaus (ID: 17339040/0x010892A0)
 45: 0x0106 [0x7E] CHOCOBO_MOUNT: Mode 6 (custom mount) on Five Moons (ID: 17339041/0x010892A1)
 46: 0x0118 [0x7E] CHOCOBO_MOUNT: Mode 4 on Five Moons (ID: 17339041/0x010892A1)
 47: 0x011E [0xBA] SET_ENTITY_POSITION(entity_id=LocalPlayer, pos_x=440.075*, pos_z=-184.007*, pos_y=0.795*, direction=178.4°*)
 48: 0x012B [0xBA] SET_ENTITY_POSITION(entity_id=Nicolaus (ID: 17339040/0x010892A0), pos_x=416.793*, pos_z=-138.151*, pos_y=-0.958*, direction=59.6°*)
 49: 0x0138 [0xBA] SET_ENTITY_POSITION(entity_id=Five Moons (ID: 17339041/0x010892A1), pos_x=417.567*, pos_z=-144.917*, pos_y=-0.037*, direction=59.6°*)
 50: 0x0145 [0xBA] SET_ENTITY_POSITION(entity_id=Unnamed NPC (ID: 17339056/0x010892B0), pos_x=440.380*, pos_z=-180.620*, pos_y=0.968*, direction=86.9°*)
 51: 0x0152 [0xBA] SET_ENTITY_POSITION(entity_id=Unnamed NPC (ID: 17339057/0x010892B1), pos_x=436.036*, pos_z=-183.994*, pos_y=0.797*, direction=179.3°*)
 52: 0x015F [0xBA] SET_ENTITY_POSITION(entity_id=Slumbering Savage (ID: 17339047/0x010892A7), pos_x=403.906*, pos_z=-197.975*, pos_y=-0.005*, direction=355.9°*)
 53: 0x016C [0xBA] SET_ENTITY_POSITION(entity_id=Unnamed NPC (ID: 17339048/0x010892A8), pos_x=401.748*, pos_z=-200.637*, pos_y=0.000*, direction=93.1°*)
 54: 0x0179 [0xBA] SET_ENTITY_POSITION(entity_id=Unnamed NPC (ID: 17339049/0x010892A9), pos_x=400.832*, pos_z=-196.939*, pos_y=0.000*, direction=244.5°*)
 55: 0x0186 [0xBA] SET_ENTITY_POSITION(entity_id=Unnamed NPC (ID: 17339053/0x010892AD), pos_x=395.145*, pos_z=-187.405*, pos_y=-0.902*, direction=273.9°*)
 56: 0x0193 [0xBA] SET_ENTITY_POSITION(entity_id=Unnamed NPC (ID: 17339054/0x010892AE), pos_x=393.197*, pos_z=-172.133*, pos_y=1.254*, direction=149.9°*)
 57: 0x01A0 [0xBA] SET_ENTITY_POSITION(entity_id=Klara (ID: 17339051/0x010892AB), pos_x=347.794*, pos_z=-109.075*, pos_y=0.328*, direction=276.1°*)
 58: 0x01AD [0xBA] SET_ENTITY_POSITION(entity_id=Zeid (ID: 17339052/0x010892AC), pos_x=331.647*, pos_z=-120.601*, pos_y=1.672*, direction=132.7°*)
 59: 0x01BA [0xBA] SET_ENTITY_POSITION(entity_id=Unnamed NPC (ID: 17339055/0x010892AF), pos_x=345.654*, pos_z=-125.243*, pos_y=5.749*, direction=352.7°*)
 60: 0x01C7 [0xBA] SET_ENTITY_POSITION(entity_id=Stefan (ID: 17339045/0x010892A5), pos_x=393.269*, pos_z=-181.882*, pos_y=-0.711*, direction=62.4°*)
 61: 0x01D4 [0xBA] SET_ENTITY_POSITION(entity_id=??? (ID: 17339042/0x010892A2), pos_x=390.063*, pos_z=-174.953*, pos_y=1.359*, direction=332.8°*)
 62: 0x01E1 [0xBA] SET_ENTITY_POSITION(entity_id=Prien (ID: 17339044/0x010892A4), pos_x=349.356*, pos_z=-103.237*, pos_y=0.328*, direction=96.9°*)
 63: 0x01EE [0xBA] SET_ENTITY_POSITION(entity_id=Heiner (ID: 17339043/0x010892A3), pos_x=331.420*, pos_z=-126.663*, pos_y=0.550*, direction=310.5°*)
 64: 0x01FB [0xBA] SET_ENTITY_POSITION(entity_id=Unnamed NPC (ID: 17339046/0x010892A6), pos_x=349.827*, pos_z=-123.373*, pos_y=6.931*, direction=200.3°*)
 65: 0x0208 [0x37] UPDATE_EVENT_POSITION_AND_DIR: x=402.779*, z=-198.208*, y=0.000*, direction=2.9°*
 66: 0x0211 [0x80] LOAD_WAIT(entity=LocalPlayer)
 67: 0x0216 [0x80] LOAD_WAIT(entity=Nicolaus (ID: 17339040/0x010892A0))
 68: 0x021B [0x80] LOAD_WAIT(entity=Five Moons (ID: 17339041/0x010892A1))
 69: 0x0220 [0x80] LOAD_WAIT(entity=Unnamed NPC (ID: 17339056/0x010892B0))
 70: 0x0225 [0x80] LOAD_WAIT(entity=Slumbering Savage (ID: 17339047/0x010892A7))
 71: 0x022A [0x80] LOAD_WAIT(entity=Unnamed NPC (ID: 17339048/0x010892A8))
 72: 0x022F [0x80] LOAD_WAIT(entity=Unnamed NPC (ID: 17339049/0x010892A9))
 73: 0x0234 [0x80] LOAD_WAIT(entity=Unnamed NPC (ID: 17339053/0x010892AD))
 74: 0x0239 [0x80] LOAD_WAIT(entity=Unnamed NPC (ID: 17339054/0x010892AE))
 75: 0x023E [0x80] LOAD_WAIT(entity=Klara (ID: 17339051/0x010892AB))
 76: 0x0243 [0x80] LOAD_WAIT(entity=Zeid (ID: 17339052/0x010892AC))
 77: 0x0248 [0x80] LOAD_WAIT(entity=Unnamed NPC (ID: 17339055/0x010892AF))
 78: 0x024D [0x80] LOAD_WAIT(entity=??? (ID: 17339042/0x010892A2))
 79: 0x0252 [0x80] LOAD_WAIT(entity=Heiner (ID: 17339043/0x010892A3))
 80: 0x0257 [0x80] LOAD_WAIT(entity=Prien (ID: 17339044/0x010892A4))
 81: 0x025C [0x80] LOAD_WAIT(entity=Stefan (ID: 17339045/0x010892A5))
 82: 0x0261 [0x80] LOAD_WAIT(entity=Unnamed NPC (ID: 17339046/0x010892A6))
 83: 0x0266 [0x80] LOAD_WAIT(entity=EventEntity)
 84: 0x026B [0x94] Unnamed NPC (ID: 17339056/0x010892B0)->Render.Flags3 ^= 0x01
 85: 0x0271 [0x94] Unnamed NPC (ID: 17339057/0x010892B1)->Render.Flags3 ^= 0x01
 86: 0x0277 [0x94] Heiner (ID: 17339043/0x010892A3)->Render.Flags3 ^= 0x01
 87: 0x027D [0x94] EventEntity->Render.Flags3 ^= 0x01
 88: 0x0283 [0x1C] WAIT(60* ticks)
 89: 0x0286 [0x5B] LOAD_EXT_SCHEDULER: Load scheduler "kam0" with entities [Zeid (ID: 17339052/0x010892AC), Zeid (ID: 17339052/0x010892AC)], work=2333*
 90: 0x0295 [0x5B] LOAD_EXT_SCHEDULER: Load scheduler "kam0" with entities [Klara (ID: 17339051/0x010892AB), Klara (ID: 17339051/0x010892AB)], work=2333*
 91: 0x02A4 [0x5B] LOAD_EXT_SCHEDULER: Load scheduler "kam0" with entities [Unnamed NPC (ID: 17339053/0x010892AD), Unnamed NPC (ID: 17339053/0x010892AD)], work=2333*
 92: 0x02B3 [0x5B] LOAD_EXT_SCHEDULER: Load scheduler "kma0" with entities [Unnamed NPC (ID: 17339055/0x010892AF), Unnamed NPC (ID: 17339055/0x010892AF)], work=2225*
 93: 0x02C2 [0x5B] LOAD_EXT_SCHEDULER: Load scheduler "kma0" with entities [Unnamed NPC (ID: 17339054/0x010892AE), Unnamed NPC (ID: 17339054/0x010892AE)], work=2225*
 94: 0x02D1 [0x5B] LOAD_EXT_SCHEDULER: Load scheduler "ken0" with entities [??? (ID: 17339042/0x010892A2), ??? (ID: 17339042/0x010892A2)], work=1480*
 95: 0x02E0 [0x5B] LOAD_EXT_SCHEDULER: Load scheduler "ken0" with entities [Heiner (ID: 17339043/0x010892A3), Heiner (ID: 17339043/0x010892A3)], work=1480*
 96: 0x02EF [0x5B] LOAD_EXT_SCHEDULER: Load scheduler "ken0" with entities [Prien (ID: 17339044/0x010892A4), Prien (ID: 17339044/0x010892A4)], work=1480*
 97: 0x02FE [0x5B] LOAD_EXT_SCHEDULER: Load scheduler "ken0" with entities [Stefan (ID: 17339045/0x010892A5), Stefan (ID: 17339045/0x010892A5)], work=1480*
 98: 0x030D [0x5B] LOAD_EXT_SCHEDULER: Load scheduler "ken0" with entities [Unnamed NPC (ID: 17339046/0x010892A6), Unnamed NPC (ID: 17339046/0x010892A6)], work=1480*
 99: 0x031C [0xC5] LOAD_SCHEDULED_TASK_ALT3: Load scheduler 0x80003130 for entities [Klara (ID: 17339051/0x010892AB), Klara (ID: 17339051/0x010892AB)], work=144*, param=12403
100: 0x032D [0xC5] LOAD_SCHEDULED_TASK_ALT3: Load scheduler 0x80003130 for entities [Zeid (ID: 17339052/0x010892AC), Zeid (ID: 17339052/0x010892AC)], work=144*, param=12403
101: 0x033E [0xC5] LOAD_SCHEDULED_TASK_ALT3: Load scheduler 0x80003130 for entities [Unnamed NPC (ID: 17339055/0x010892AF), Unnamed NPC (ID: 17339055/0x010892AF)], work=144*, param=12403
102: 0x034F [0xC5] LOAD_SCHEDULED_TASK_ALT3: Load scheduler 0x80003130 for entities [??? (ID: 17339042/0x010892A2), ??? (ID: 17339042/0x010892A2)], work=144*, param=12403
103: 0x0360 [0x66] LOAD_EXT_SCHEDULER_MAIN: Load scheduler 0xFEFEFE00 with entities [Slumbering Savage (ID: 17339047/0x010892A7), Slumbering Savage (ID: 17339047/0x010892A7)], work=136*
104: 0x036F [0x66] LOAD_EXT_SCHEDULER_MAIN: Load scheduler 0xFEFEFE00 with entities [Unnamed NPC (ID: 17339048/0x010892A8), Unnamed NPC (ID: 17339048/0x010892A8)], work=79*
105: 0x037E [0x66] LOAD_EXT_SCHEDULER_MAIN: Load scheduler 0xFEFEFE00 with entities [Unnamed NPC (ID: 17339049/0x010892A9), Unnamed NPC (ID: 17339049/0x010892A9)], work=79*
106: 0x038D [0xC5] LOAD_SCHEDULED_TASK_ALT3: Load scheduler 0x8000FEFE for entities [EventEntity, EventEntity], work=157*, param=65024
107: 0x039E [0x5B] LOAD_EXT_SCHEDULER: Load scheduler 0xFEFEFE00 with entities [Five Moons (ID: 17339041/0x010892A1), Five Moons (ID: 17339041/0x010892A1)], work=2431*
108: 0x03AD [0x5B] LOAD_EXT_SCHEDULER: Load scheduler 0xFEFEFE00 with entities [Unnamed NPC (ID: 17339057/0x010892B1), Unnamed NPC (ID: 17339057/0x010892B1)], work=2319*
109: 0x03BC [0x5C] MUSIC_CONTROL: Set Idle (Day) music to song 215*
110: 0x03C0 [0x5C] MUSIC_CONTROL: Set Idle (Night) music to song 215*
111: 0x03C4 [0x9A] WAIT_MUSIC_SERVER()
112: 0x03C5 [0x45] LOAD_SCHEDULED_TASK: Load scheduler "s141" with entities [EventEntity, EventEntity], work=[523*, 0*]
113: 0x03D6 [0x1C] WAIT(15* ticks)
114: 0x03D9 [0x5B] LOAD_EXT_SCHEDULER: Load scheduler "ran0" with entities [??? (ID: 17339042/0x010892A2), ??? (ID: 17339042/0x010892A2)], work=1260*
115: 0x03E8 [0x5B] LOAD_EXT_SCHEDULER: Load scheduler "ran0" with entities [Klara (ID: 17339051/0x010892AB), Klara (ID: 17339051/0x010892AB)], work=1260*
116: 0x03F7 [0x5B] LOAD_EXT_SCHEDULER: Load scheduler "nag0" with entities [Zeid (ID: 17339052/0x010892AC), Zeid (ID: 17339052/0x010892AC)], work=2333*
117: 0x0406 [0x5B] LOAD_EXT_SCHEDULER: Load scheduler "nag1" with entities [Klara (ID: 17339051/0x010892AB), Klara (ID: 17339051/0x010892AB)], work=2333*
118: 0x0415 [0x45] LOAD_SCHEDULED_TASK: Load scheduler "fdi1" with entities [EventEntity, EventEntity], work=[200*, 0*]
119: 0x0426 [0x5B] LOAD_EXT_SCHEDULER: Load scheduler "nag2" with entities [Unnamed NPC (ID: 17339053/0x010892AD), Unnamed NPC (ID: 17339053/0x010892AD)], work=2333*
120: 0x0435 [0x1C] WAIT(100* ticks)
121: 0x0438 [0x52] END_LOAD_SCHEDULER: End scheduler "s141" with entities [EventEntity, EventEntity], work=523*
122: 0x0447 [0x45] LOAD_SCHEDULED_TASK: Load scheduler "s157" with entities [EventEntity, EventEntity], work=[523*, 0*]
123: 0x0458 [0x5B] LOAD_EXT_SCHEDULER: Load scheduler "nag1" with entities [Klara (ID: 17339051/0x010892AB), Klara (ID: 17339051/0x010892AB)], work=2333*
124: 0x0467 [0x5B] LOAD_EXT_SCHEDULER: Load scheduler "nag0" with entities [Zeid (ID: 17339052/0x010892AC), Zeid (ID: 17339052/0x010892AC)], work=2333*
125: 0x0476 [0x1C] WAIT(90* ticks)
126: 0x0479 [0x66] LOAD_EXT_SCHEDULER_MAIN: Load scheduler "bom0" with entities [Slumbering Savage (ID: 17339047/0x010892A7), Slumbering Savage (ID: 17339047/0x010892A7)], work=136*
127: 0x0488 [0x66] LOAD_EXT_SCHEDULER_MAIN: Load scheduler "fkib" with entities [Unnamed NPC (ID: 17339048/0x010892A8), Unnamed NPC (ID: 17339048/0x010892A8)], work=79*
128: 0x0497 [0x66] LOAD_EXT_SCHEDULER_MAIN: Load scheduler "fkia" with entities [Unnamed NPC (ID: 17339049/0x010892A9), Unnamed NPC (ID: 17339049/0x010892A9)], work=79*
129: 0x04A6 [0x52] END_LOAD_SCHEDULER: End scheduler "s157" with entities [EventEntity, EventEntity], work=523*
130: 0x04B5 [0x45] LOAD_SCHEDULED_TASK: Load scheduler "s142" with entities [EventEntity, EventEntity], work=[523*, 0*]
131: 0x04C6 [0x1C] WAIT(5* ticks)
132: 0x04C9 [0xC5] LOAD_SCHEDULED_TASK_ALT3: Load scheduler 0x80003030 for entities [EventEntity, EventEntity], work=157*, param=12403
133: 0x04DA [0x1C] WAIT(5* ticks)
134: 0x04DD [0x5B] LOAD_EXT_SCHEDULER: Load scheduler "kan0" with entities [Klara (ID: 17339051/0x010892AB), Klara (ID: 17339051/0x010892AB)], work=1260*
135: 0x04EC [0x6B] STOP_AND_IDLE: Heiner (ID: 17339043/0x010892A3) stops current action and resets to idle (animation="idl0")
136: 0x04F5 [0x6B] STOP_AND_IDLE: Unnamed NPC (ID: 17339046/0x010892A6) stops current action and resets to idle (animation="idl0")
137: 0x04FE [0xBA] SET_ENTITY_POSITION(entity_id=Heiner (ID: 17339043/0x010892A3), pos_x=436.453*, pos_z=-183.854*, pos_y=0.807*, direction=339.2°*)
138: 0x050B [0xBA] SET_ENTITY_POSITION(entity_id=Unnamed NPC (ID: 17339046/0x010892A6), pos_x=437.429*, pos_z=-185.460*, pos_y=0.650*, direction=22.8°*)
139: 0x0518 [0x1C] WAIT(15* ticks)
140: 0x051B [0x2C] CREATE_SCHEDULER_TASK: Create scheduler "corp" with entities [Heiner (ID: 17339043/0x010892A3), Heiner (ID: 17339043/0x010892A3)]
141: 0x0528 [0x2C] CREATE_SCHEDULER_TASK: Create scheduler "corp" with entities [Unnamed NPC (ID: 17339046/0x010892A6), Unnamed NPC (ID: 17339046/0x010892A6)]
142: 0x0535 [0x1C] WAIT(15* ticks)
143: 0x0538 [0x5B] LOAD_EXT_SCHEDULER: Load scheduler "kan0" with entities [??? (ID: 17339042/0x010892A2), ??? (ID: 17339042/0x010892A2)], work=1260*
144: 0x0547 [0x5B] LOAD_EXT_SCHEDULER: Load scheduler "kan0" with entities [Klara (ID: 17339051/0x010892AB), Klara (ID: 17339051/0x010892AB)], work=1260*
145: 0x0556 [0x6B] STOP_AND_IDLE: Unnamed NPC (ID: 17339054/0x010892AE) stops current action and resets to idle (animation="idl0")
146: 0x055F [0xC5] LOAD_SCHEDULED_TASK_ALT3: Load scheduler 0x80003130 for entities [Unnamed NPC (ID: 17339055/0x010892AF), Unnamed NPC (ID: 17339055/0x010892AF)], work=144*, param=27755
147: 0x0570 [0xC5] LOAD_SCHEDULED_TASK_ALT3: Load scheduler 0x80003130 for entities [Klara (ID: 17339051/0x010892AB), Klara (ID: 17339051/0x010892AB)], work=144*, param=27755
148: 0x0581 [0x52] END_LOAD_SCHEDULER: End scheduler "s142" with entities [EventEntity, EventEntity], work=523*
149: 0x0590 [0x45] LOAD_SCHEDULED_TASK: Load scheduler "s151" with entities [EventEntity, EventEntity], work=[523*, 0*]
150: 0x05A1 [0x6E] LocalPlayer uses emote 21*
151: 0x05A8 [0x99] Wait for LocalPlayer animation to complete
152: 0x05AD [0x1C] WAIT(60* ticks)
153: 0x05B0 [0x4E] SET_ENTITY_HIDE_FLAG: Hide Slumbering Savage (ID: 17339047/0x010892A7)
154: 0x05B6 [0x4E] SET_ENTITY_HIDE_FLAG: Hide Unnamed NPC (ID: 17339048/0x010892A8)
155: 0x05BC [0x4E] SET_ENTITY_HIDE_FLAG: Hide Unnamed NPC (ID: 17339049/0x010892A9)
156: 0x05C2 [0x27] REQ_SET(priority=0x05, entity_id=Nicolaus (ID: 17339040/0x010892A0), tag_num=0x02)
157: 0x05C9 [0x1C] WAIT(25* ticks)
158: 0x05CC [0x27] REQ_SET(priority=0x05, entity_id=Five Moons (ID: 17339041/0x010892A1), tag_num=0x02)
159: 0x05D3 [0x1C] WAIT(15* ticks)
160: 0x05D6 [0x52] END_LOAD_SCHEDULER: End scheduler "s151" with entities [EventEntity, EventEntity], work=523*
161: 0x05E5 [0x45] LOAD_SCHEDULED_TASK: Load scheduler "s150" with entities [EventEntity, EventEntity], work=[523*, 0*]
162: 0x05F6 [0x1C] WAIT(120* ticks)
163: 0x05F9 [0x52] END_LOAD_SCHEDULER: End scheduler "s150" with entities [EventEntity, EventEntity], work=523*
164: 0x0608 [0x45] LOAD_SCHEDULED_TASK: Load scheduler "s143" with entities [EventEntity, EventEntity], work=[523*, 0*]
165: 0x0619 [0x5B] LOAD_EXT_SCHEDULER: Load scheduler "ge00" with entities [Unnamed NPC (ID: 17339056/0x010892B0), Unnamed NPC (ID: 17339056/0x010892B0)], work=1261*
166: 0x0628 [0xC5] LOAD_SCHEDULED_TASK_ALT3: Load scheduler 0x80003130 for entities [Unnamed NPC (ID: 17339056/0x010892B0), Unnamed NPC (ID: 17339056/0x010892B0)], work=224*, param=29811
167: 0x0639 [0x4E] SET_ENTITY_HIDE_FLAG: Show Unnamed NPC (ID: 17339056/0x010892B0)
168: 0x063F [0x1C] WAIT(30* ticks)
169: 0x0642 [0x6B] STOP_AND_IDLE: Heiner (ID: 17339043/0x010892A3) stops current action and resets to idle (animation="idl0")
170: 0x064B [0x4E] SET_ENTITY_HIDE_FLAG: Hide Unnamed NPC (ID: 17339053/0x010892AD)
171: 0x0651 [0x4E] SET_ENTITY_HIDE_FLAG: Hide Stefan (ID: 17339045/0x010892A5)
172: 0x0657 [0xBA] SET_ENTITY_POSITION(entity_id=Heiner (ID: 17339043/0x010892A3), pos_x=331.420*, pos_z=-126.663*, pos_y=0.550*, direction=310.5°*)
173: 0x0664 [0xBA] SET_ENTITY_POSITION(entity_id=Unnamed NPC (ID: 17339053/0x010892AD), pos_x=404.583*, pos_z=-193.909*, pos_y=0.073*, direction=269.1°*)
174: 0x0671 [0xBA] SET_ENTITY_POSITION(entity_id=Unnamed NPC (ID: 17339054/0x010892AE), pos_x=417.198*, pos_z=-195.553*, pos_y=0.836*, direction=56.1°*)
175: 0x067E [0xBA] SET_ENTITY_POSITION(entity_id=Stefan (ID: 17339045/0x010892A5), pos_x=403.117*, pos_z=-190.694*, pos_y=0.263*, direction=62.4°*)
176: 0x068B [0x7A] VM_CONTROL: Reset VM for Five Moons (ID: 17339041/0x010892A1)
177: 0x0691 [0x7E] CHOCOBO_MOUNT: Dismount Five Moons (ID: 17339041/0x010892A1) (status = 0)
178: 0x0697 [0x1C] WAIT(60* ticks)
179: 0x069A [0x52] END_LOAD_SCHEDULER: End scheduler "s143" with entities [EventEntity, EventEntity], work=523*
180: 0x06A9 [0x45] LOAD_SCHEDULED_TASK: Load scheduler "s148" with entities [EventEntity, EventEntity], work=[523*, 0*]
181: 0x06BA [0x1C] WAIT(60* ticks)
182: 0x06BD [0x7A] VM_CONTROL: Reset VM for Nicolaus (ID: 17339040/0x010892A0)
183: 0x06C3 [0x7E] CHOCOBO_MOUNT: Dismount Nicolaus (ID: 17339040/0x010892A0) (status = 0)
184: 0x06C9 [0x2B] Nicolaus (ID: 17339040/0x010892A0) [8029*]:
    → "Good to see you safe, <Player>!"
185: 0x06D0 [0x1C] WAIT(60* ticks)
186: 0x06D3 [0x52] END_LOAD_SCHEDULER: End scheduler "s148" with entities [EventEntity, EventEntity], work=523*
187: 0x06E2 [0x02] IF !(LocalPlayer->Race == 3*) GOTO 0x06FE
188: 0x06EA [0x45] LOAD_SCHEDULED_TASK: Load scheduler "s153" with entities [EventEntity, EventEntity], work=[523*, 0*]
189: 0x06FB [0x01] GOTO 0x077F
190: 0x06FE [0x02] IF !(LocalPlayer->Race == 4*) GOTO 0x071A
191: 0x0706 [0x45] LOAD_SCHEDULED_TASK: Load scheduler "s153" with entities [EventEntity, EventEntity], work=[523*, 0*]
192: 0x0717 [0x01] GOTO 0x077F
193: 0x071A [0x02] IF !(LocalPlayer->Race == 5*) GOTO 0x0736
194: 0x0722 [0x45] LOAD_SCHEDULED_TASK: Load scheduler "s152" with entities [EventEntity, EventEntity], work=[523*, 0*]
195: 0x0733 [0x01] GOTO 0x077F
196: 0x0736 [0x02] IF !(LocalPlayer->Race == 6*) GOTO 0x0752
197: 0x073E [0x45] LOAD_SCHEDULED_TASK: Load scheduler "s152" with entities [EventEntity, EventEntity], work=[523*, 0*]
198: 0x074F [0x01] GOTO 0x077F
199: 0x0752 [0x02] IF !(LocalPlayer->Race == 8*) GOTO 0x076E
200: 0x075A [0x45] LOAD_SCHEDULED_TASK: Load scheduler "s153" with entities [EventEntity, EventEntity], work=[523*, 0*]
201: 0x076B [0x01] GOTO 0x077F
202: 0x076E [0x45] LOAD_SCHEDULED_TASK: Load scheduler "s149" with entities [EventEntity, EventEntity], work=[523*, 0*]

SUBROUTINE_077F:
203: 0x077F [0x4B] UPDATE_ENTITY_YAW(entity=LocalPlayer, yaw=16.8°*)
204: 0x0786 [0x1C] WAIT(15* ticks)
205: 0x0789 [0x6B] STOP_AND_IDLE: Unnamed NPC (ID: 17339056/0x010892B0) stops current action and resets to idle (animation="idl0")
206: 0x0792 [0x6B] STOP_AND_IDLE: Unnamed NPC (ID: 17339046/0x010892A6) stops current action and resets to idle (animation="idl0")
207: 0x079B [0x4E] SET_ENTITY_HIDE_FLAG: Show Unnamed NPC (ID: 17339057/0x010892B1)
208: 0x07A1 [0xBA] SET_ENTITY_POSITION(entity_id=Unnamed NPC (ID: 17339046/0x010892A6), pos_x=429.150*, pos_z=-155.705*, pos_y=0.286*, direction=118.9°*)
209: 0x07AE [0xBA] SET_ENTITY_POSITION(entity_id=Nicolaus (ID: 17339040/0x010892A0), pos_x=436.036*, pos_z=-183.994*, pos_y=0.797*, direction=179.3°*)
210: 0x07BB [0xBA] SET_ENTITY_POSITION(entity_id=Five Moons (ID: 17339041/0x010892A1), pos_x=436.036*, pos_z=-183.994*, pos_y=0.797*, direction=179.3°*)
211: 0x07C8 [0xBA] SET_ENTITY_POSITION(entity_id=Unnamed NPC (ID: 17339056/0x010892B0), pos_x=436.036*, pos_z=-183.994*, pos_y=0.797*, direction=179.3°*)
212: 0x07D5 [0x1C] WAIT(30* ticks)
213: 0x07D8 [0x5B] LOAD_EXT_SCHEDULER: Load scheduler "xar0" with entities [Nicolaus (ID: 17339040/0x010892A0), Nicolaus (ID: 17339040/0x010892A0)], work=2391*
214: 0x07E7 [0x5B] LOAD_EXT_SCHEDULER: Load scheduler "xar0" with entities [Unnamed NPC (ID: 17339056/0x010892B0), Unnamed NPC (ID: 17339056/0x010892B0)], work=2432*
215: 0x07F6 [0x5B] LOAD_EXT_SCHEDULER: Load scheduler "xar0" with entities [Five Moons (ID: 17339041/0x010892A1), Five Moons (ID: 17339041/0x010892A1)], work=2431*
216: 0x0805 [0x5B] LOAD_EXT_SCHEDULER: Load scheduler "xar0" with entities [Unnamed NPC (ID: 17339057/0x010892B1), Unnamed NPC (ID: 17339057/0x010892B1)], work=2319*
217: 0x0814 [0x1C] WAIT(15* ticks)
218: 0x0817 [0x23] WAIT_FOR_DIALOG_INTERACTION
219: 0x0818 [0x52] END_LOAD_SCHEDULER: End scheduler "s149" with entities [EventEntity, EventEntity], work=523*
220: 0x0827 [0x52] END_LOAD_SCHEDULER: End scheduler "s152" with entities [EventEntity, EventEntity], work=523*
221: 0x0836 [0x52] END_LOAD_SCHEDULER: End scheduler "s153" with entities [EventEntity, EventEntity], work=523*
222: 0x0845 [0x45] LOAD_SCHEDULED_TASK: Load scheduler "s144" with entities [EventEntity, EventEntity], work=[523*, 0*]
223: 0x0856 [0x5B] LOAD_EXT_SCHEDULER: Load scheduler "xar1" with entities [Nicolaus (ID: 17339040/0x010892A0), Nicolaus (ID: 17339040/0x010892A0)], work=2391*
224: 0x0865 [0x5B] LOAD_EXT_SCHEDULER: Load scheduler "xar1" with entities [Unnamed NPC (ID: 17339056/0x010892B0), Unnamed NPC (ID: 17339056/0x010892B0)], work=2432*
225: 0x0874 [0x79] LocalPlayer looks at Nicolaus (ID: 17339040/0x010892A0) (Basic look)
226: 0x087E [0x2B] Nicolaus (ID: 17339040/0x010892A0) [8030*]:
    → "The president readies himself for battle within the command post up ahead. Take this recommendation and make your way there immediately!"
227: 0x0885 [0x23] WAIT_FOR_DIALOG_INTERACTION
228: 0x0886 [0x53] WAIT_SCHEDULER_TASK: Wait for scheduler "xar1" with entities [Nicolaus (ID: 17339040/0x010892A0), Nicolaus (ID: 17339040/0x010892A0)]
229: 0x0893 [0x53] WAIT_SCHEDULER_TASK: Wait for scheduler "xar1" with entities [Unnamed NPC (ID: 17339056/0x010892B0), Unnamed NPC (ID: 17339056/0x010892B0)]
230: 0x08A0 [0x52] END_LOAD_SCHEDULER: End scheduler "s144" with entities [EventEntity, EventEntity], work=523*
231: 0x08AF [0x45] LOAD_SCHEDULED_TASK: Load scheduler "s145" with entities [EventEntity, EventEntity], work=[523*, 0*]
232: 0x08C0 [0x5B] LOAD_EXT_SCHEDULER: Load scheduler "xar2" with entities [Nicolaus (ID: 17339040/0x010892A0), Nicolaus (ID: 17339040/0x010892A0)], work=2391*
233: 0x08CF [0x5B] LOAD_EXT_SCHEDULER: Load scheduler "xar2" with entities [Unnamed NPC (ID: 17339056/0x010892B0), Unnamed NPC (ID: 17339056/0x010892B0)], work=2432*
234: 0x08DE [0x2B] Nicolaus (ID: 17339040/0x010892A0) [8031*]:
    → "And take care to hold on to it! Gentle Tiger has replacements, but it's a long trek back to the Republic from here."
235: 0x08E5 [0x23] WAIT_FOR_DIALOG_INTERACTION
236: 0x08E6 [0x2B] Five Moons (ID: 17339041/0x010892A1) [8032*]:
    → "Now hurry, <Player>! The president's life depends on you!"
237: 0x08ED [0x23] WAIT_FOR_DIALOG_INTERACTION
238: 0x08EE [0x53] WAIT_SCHEDULER_TASK: Wait for scheduler "xar2" with entities [Nicolaus (ID: 17339040/0x010892A0), Nicolaus (ID: 17339040/0x010892A0)]
239: 0x08FB [0x53] WAIT_SCHEDULER_TASK: Wait for scheduler "xar2" with entities [Unnamed NPC (ID: 17339056/0x010892B0), Unnamed NPC (ID: 17339056/0x010892B0)]
240: 0x0908 [0xC5] LOAD_SCHEDULED_TASK_ALT3: Load scheduler 0x80003130 for entities [Unnamed NPC (ID: 17339053/0x010892AD), Unnamed NPC (ID: 17339053/0x010892AD)], work=144*, param=12403
241: 0x0919 [0x5B] LOAD_EXT_SCHEDULER: Load scheduler "xar1" with entities [Five Moons (ID: 17339041/0x010892A1), Five Moons (ID: 17339041/0x010892A1)], work=2431*
242: 0x0928 [0x5B] LOAD_EXT_SCHEDULER: Load scheduler "xar1" with entities [Unnamed NPC (ID: 17339057/0x010892B1), Unnamed NPC (ID: 17339057/0x010892B1)], work=2319*
243: 0x0937 [0x5B] LOAD_EXT_SCHEDULER: Load scheduler "xar3" with entities [Nicolaus (ID: 17339040/0x010892A0), Nicolaus (ID: 17339040/0x010892A0)], work=2391*
244: 0x0946 [0x5B] LOAD_EXT_SCHEDULER: Load scheduler "xar3" with entities [Unnamed NPC (ID: 17339056/0x010892B0), Unnamed NPC (ID: 17339056/0x010892B0)], work=2432*
245: 0x0955 [0x52] END_LOAD_SCHEDULER: End scheduler "s145" with entities [EventEntity, EventEntity], work=523*
246: 0x0964 [0x45] LOAD_SCHEDULED_TASK: Load scheduler "s156" with entities [EventEntity, EventEntity], work=[523*, 0*]
247: 0x0975 [0x37] UPDATE_EVENT_POSITION_AND_DIR: x=328.618*, z=-151.464*, y=1.645*, direction=166.2°*
248: 0x097E [0x1C] WAIT(120* ticks)
249: 0x0981 [0x52] END_LOAD_SCHEDULER: End scheduler "s156" with entities [EventEntity, EventEntity], work=523*
250: 0x0990 [0x45] LOAD_SCHEDULED_TASK: Load scheduler "s146" with entities [EventEntity, EventEntity], work=[523*, 0*]
251: 0x09A1 [0x1C] WAIT(180* ticks)
252: 0x09A4 [0xBA] SET_ENTITY_POSITION(entity_id=Nicolaus (ID: 17339040/0x010892A0), pos_x=412.322*, pos_z=-183.965*, pos_y=-0.105*, direction=180.6°*)
253: 0x09B1 [0xBA] SET_ENTITY_POSITION(entity_id=Five Moons (ID: 17339041/0x010892A1), pos_x=412.322*, pos_z=-183.965*, pos_y=-0.105*, direction=180.6°*)
254: 0x09BE [0xBA] SET_ENTITY_POSITION(entity_id=Unnamed NPC (ID: 17339056/0x010892B0), pos_x=412.322*, pos_z=-183.965*, pos_y=-0.105*, direction=180.6°*)
255: 0x09CB [0xBA] SET_ENTITY_POSITION(entity_id=Unnamed NPC (ID: 17339057/0x010892B1), pos_x=411.989*, pos_z=-183.585*, pos_y=-0.105*, direction=180.6°*)
256: 0x09D8 [0xBA] SET_ENTITY_POSITION(entity_id=Unnamed NPC (ID: 17339055/0x010892AF), pos_x=407.299*, pos_z=-186.481*, pos_y=0.382*, direction=269.2°*)
257: 0x09E5 [0xBA] SET_ENTITY_POSITION(entity_id=Klara (ID: 17339051/0x010892AB), pos_x=429.756*, pos_z=-162.226*, pos_y=0.309*, direction=269.1°*)
258: 0x09F2 [0xBA] SET_ENTITY_POSITION(entity_id=Zeid (ID: 17339052/0x010892AC), pos_x=425.248*, pos_z=-159.257*, pos_y=0.670*, direction=311.2°*)
259: 0x09FF [0x37] UPDATE_EVENT_POSITION_AND_DIR: x=412.322*, z=-183.965*, y=-0.105*, direction=180.6°*
260: 0x0A08 [0x6B] STOP_AND_IDLE: Nicolaus (ID: 17339040/0x010892A0) stops current action and resets to idle (animation="idl0")
261: 0x0A11 [0x6B] STOP_AND_IDLE: Five Moons (ID: 17339041/0x010892A1) stops current action and resets to idle (animation="idl0")
262: 0x0A1A [0x6B] STOP_AND_IDLE: Unnamed NPC (ID: 17339056/0x010892B0) stops current action and resets to idle (animation="idl0")
263: 0x0A23 [0x6B] STOP_AND_IDLE: Unnamed NPC (ID: 17339057/0x010892B1) stops current action and resets to idle (animation="idl0")
264: 0x0A2C [0x1C] WAIT(5* ticks)
265: 0x0A2F [0x27] REQ_SET(priority=0x05, entity_id=Klara (ID: 17339051/0x010892AB), tag_num=0x08)
266: 0x0A36 [0x27] REQ_SET(priority=0x05, entity_id=Zeid (ID: 17339052/0x010892AC), tag_num=0x09)
267: 0x0A3D [0x5B] LOAD_EXT_SCHEDULER: Load scheduler "ran0" with entities [Unnamed NPC (ID: 17339055/0x010892AF), Unnamed NPC (ID: 17339055/0x010892AF)], work=1260*
268: 0x0A4C [0x5B] LOAD_EXT_SCHEDULER: Load scheduler "xar3" with entities [Five Moons (ID: 17339041/0x010892A1), Five Moons (ID: 17339041/0x010892A1)], work=2661*
269: 0x0A5B [0x5B] LOAD_EXT_SCHEDULER: Load scheduler "xar3" with entities [Unnamed NPC (ID: 17339057/0x010892B1), Unnamed NPC (ID: 17339057/0x010892B1)], work=2319*
270: 0x0A6A [0x5B] LOAD_EXT_SCHEDULER: Load scheduler "xar5" with entities [Nicolaus (ID: 17339040/0x010892A0), Nicolaus (ID: 17339040/0x010892A0)], work=2487*
271: 0x0A79 [0x5B] LOAD_EXT_SCHEDULER: Load scheduler "xar5" with entities [Unnamed NPC (ID: 17339056/0x010892B0), Unnamed NPC (ID: 17339056/0x010892B0)], work=2432*
272: 0x0A88 [0xC5] LOAD_SCHEDULED_TASK_ALT3: Load scheduler 0x80003130 for entities [Nicolaus (ID: 17339040/0x010892A0), Nicolaus (ID: 17339040/0x010892A0)], work=223*, param=29811
273: 0x0A99 [0xC5] LOAD_SCHEDULED_TASK_ALT3: Load scheduler 0x80003230 for entities [Unnamed NPC (ID: 17339056/0x010892B0), Unnamed NPC (ID: 17339056/0x010892B0)], work=224*, param=29811
274: 0x0AAA [0x52] END_LOAD_SCHEDULER: End scheduler "s146" with entities [EventEntity, EventEntity], work=523*
275: 0x0AB9 [0x45] LOAD_SCHEDULED_TASK: Load scheduler "s154" with entities [EventEntity, EventEntity], work=[523*, 0*]
276: 0x0ACA [0x4A] LocalPlayer looks at Nicolaus (ID: 17339040/0x010892A0)
277: 0x0AD3 [0x1C] WAIT(60* ticks)
278: 0x0AD6 [0x2C] CREATE_SCHEDULER_TASK: Create scheduler "dead" with entities [Unnamed NPC (ID: 17339054/0x010892AE), Unnamed NPC (ID: 17339054/0x010892AE)]
279: 0x0AE3 [0x1C] WAIT(60* ticks)
280: 0x0AE6 [0x2C] CREATE_SCHEDULER_TASK: Create scheduler "dead" with entities [Unnamed NPC (ID: 17339055/0x010892AF), Unnamed NPC (ID: 17339055/0x010892AF)]
281: 0x0AF3 [0x1C] WAIT(50* ticks)
282: 0x0AF6 [0x73] Heiner (ID: 17339043/0x010892A3) casts magic 147* on Klara (ID: 17339051/0x010892AB)
283: 0x0B01 [0x5B] LOAD_EXT_SCHEDULER: Load scheduler "ken0" with entities [Unnamed NPC (ID: 17339046/0x010892A6), Unnamed NPC (ID: 17339046/0x010892A6)], work=1480*
284: 0x0B10 [0x1C] WAIT(60* ticks)
285: 0x0B13 [0x52] END_LOAD_SCHEDULER: End scheduler "s154" with entities [EventEntity, EventEntity], work=523*
286: 0x0B22 [0x45] LOAD_SCHEDULED_TASK: Load scheduler "s155" with entities [EventEntity, EventEntity], work=[523*, 0*]
287: 0x0B33 [0x5B] LOAD_EXT_SCHEDULER: Load scheduler "nag0" with entities [Zeid (ID: 17339052/0x010892AC), Zeid (ID: 17339052/0x010892AC)], work=2333*
288: 0x0B42 [0x2C] CREATE_SCHEDULER_TASK: Create scheduler "dead" with entities [Klara (ID: 17339051/0x010892AB), Klara (ID: 17339051/0x010892AB)]
289: 0x0B4F [0x1C] WAIT(30* ticks)
290: 0x0B52 [0x6B] STOP_AND_IDLE: Unnamed NPC (ID: 17339054/0x010892AE) stops current action and resets to idle (animation="idl0")
291: 0x0B5B [0x6B] STOP_AND_IDLE: Unnamed NPC (ID: 17339055/0x010892AF) stops current action and resets to idle (animation="idl0")
292: 0x0B64 [0x4E] SET_ENTITY_HIDE_FLAG: Show Unnamed NPC (ID: 17339053/0x010892AD)
293: 0x0B6A [0x4E] SET_ENTITY_HIDE_FLAG: Show Stefan (ID: 17339045/0x010892A5)
294: 0x0B70 [0xBA] SET_ENTITY_POSITION(entity_id=Nicolaus (ID: 17339040/0x010892A0), pos_x=412.736*, pos_z=-184.036*, pos_y=-0.105*, direction=180.6°*)
295: 0x0B7D [0x1C] WAIT(30* ticks)
296: 0x0B80 [0x5B] LOAD_EXT_SCHEDULER: Load scheduler "xar3" with entities [Five Moons (ID: 17339041/0x010892A1), Five Moons (ID: 17339041/0x010892A1)], work=2661*
297: 0x0B8F [0x5B] LOAD_EXT_SCHEDULER: Load scheduler "xar3" with entities [Unnamed NPC (ID: 17339057/0x010892B1), Unnamed NPC (ID: 17339057/0x010892B1)], work=2319*
298: 0x0B9E [0x5B] LOAD_EXT_SCHEDULER: Load scheduler "xar5" with entities [Nicolaus (ID: 17339040/0x010892A0), Nicolaus (ID: 17339040/0x010892A0)], work=2487*
299: 0x0BAD [0x5B] LOAD_EXT_SCHEDULER: Load scheduler "xar5" with entities [Unnamed NPC (ID: 17339056/0x010892B0), Unnamed NPC (ID: 17339056/0x010892B0)], work=2432*
300: 0x0BBC [0xC5] LOAD_SCHEDULED_TASK_ALT3: Load scheduler 0x80003130 for entities [Nicolaus (ID: 17339040/0x010892A0), Nicolaus (ID: 17339040/0x010892A0)], work=223*, param=29811
301: 0x0BCD [0xC5] LOAD_SCHEDULED_TASK_ALT3: Load scheduler 0x80003230 for entities [Unnamed NPC (ID: 17339056/0x010892B0), Unnamed NPC (ID: 17339056/0x010892B0)], work=224*, param=29811
302: 0x0BDE [0x1C] WAIT(30* ticks)
303: 0x0BE1 [0x52] END_LOAD_SCHEDULER: End scheduler "s155" with entities [EventEntity, EventEntity], work=523*
304: 0x0BF0 [0x45] LOAD_SCHEDULED_TASK: Load scheduler "s158" with entities [EventEntity, EventEntity], work=[523*, 0*]
305: 0x0C01 [0x1C] WAIT(30* ticks)
306: 0x0C04 [0x2C] CREATE_SCHEDULER_TASK: Create scheduler "dead" with entities [Unnamed NPC (ID: 17339054/0x010892AE), Unnamed NPC (ID: 17339054/0x010892AE)]
307: 0x0C11 [0x1C] WAIT(60* ticks)
308: 0x0C14 [0x2C] CREATE_SCHEDULER_TASK: Create scheduler "dead" with entities [Unnamed NPC (ID: 17339055/0x010892AF), Unnamed NPC (ID: 17339055/0x010892AF)]
309: 0x0C21 [0x6B] STOP_AND_IDLE: Klara (ID: 17339051/0x010892AB) stops current action and resets to idle (animation="idl0")
310: 0x0C2A [0xBA] SET_ENTITY_POSITION(entity_id=Klara (ID: 17339051/0x010892AB), pos_x=422.291*, pos_z=-150.594*, pos_y=0.094*, direction=217.3°*)
311: 0x0C37 [0x1C] WAIT(10* ticks)
312: 0x0C3A [0x27] REQ_SET(priority=0x05, entity_id=Klara (ID: 17339051/0x010892AB), tag_num=0x08)
313: 0x0C41 [0x1C] WAIT(20* ticks)
314: 0x0C44 [0x5B] LOAD_EXT_SCHEDULER: Load scheduler "nag2" with entities [Unnamed NPC (ID: 17339053/0x010892AD), Unnamed NPC (ID: 17339053/0x010892AD)], work=2333*
315: 0x0C53 [0x73] Unnamed NPC (ID: 17339054/0x010892AE) casts magic 147* on Klara (ID: 17339051/0x010892AB)
316: 0x0C5E [0x1C] WAIT(60* ticks)
317: 0x0C61 [0x52] END_LOAD_SCHEDULER: End scheduler "s158" with entities [EventEntity, EventEntity], work=523*
318: 0x0C70 [0x45] LOAD_SCHEDULED_TASK: Load scheduler "s159" with entities [EventEntity, EventEntity], work=[523*, 0*]
319: 0x0C81 [0x2C] CREATE_SCHEDULER_TASK: Create scheduler "dead" with entities [Klara (ID: 17339051/0x010892AB), Klara (ID: 17339051/0x010892AB)]
320: 0x0C8E [0x73] Unnamed NPC (ID: 17339053/0x010892AD) casts magic 147* on Zeid (ID: 17339052/0x010892AC)
321: 0x0C99 [0x1C] WAIT(60* ticks)
322: 0x0C9C [0x6B] STOP_AND_IDLE: Unnamed NPC (ID: 17339054/0x010892AE) stops current action and resets to idle (animation="idl0")
323: 0x0CA5 [0xBA] SET_ENTITY_POSITION(entity_id=Unnamed NPC (ID: 17339054/0x010892AE), pos_x=393.197*, pos_z=-172.133*, pos_y=1.254*, direction=149.9°*)
324: 0x0CB2 [0x2C] CREATE_SCHEDULER_TASK: Create scheduler "dead" with entities [Zeid (ID: 17339052/0x010892AC), Zeid (ID: 17339052/0x010892AC)]
325: 0x0CBF [0x1C] WAIT(30* ticks)
326: 0x0CC2 [0x5B] LOAD_EXT_SCHEDULER: Load scheduler "kma0" with entities [Unnamed NPC (ID: 17339054/0x010892AE), Unnamed NPC (ID: 17339054/0x010892AE)], work=2225*
327: 0x0CD1 [0x59] UPDATE_ENTITY_DATA: Nicolaus (ID: 17339040/0x010892A0)->Render.Flags0 |= 0x200000
328: 0x0CD8 [0x59] UPDATE_ENTITY_DATA: Five Moons (ID: 17339041/0x010892A1)->Render.Flags0 |= 0x200000
329: 0x0CDF [0x59] UPDATE_ENTITY_DATA: Unnamed NPC (ID: 17339056/0x010892B0)->Render.Flags0 |= 0x200000
330: 0x0CE6 [0x59] UPDATE_ENTITY_DATA: Unnamed NPC (ID: 17339057/0x010892B1)->Render.Flags0 |= 0x200000
331: 0x0CED [0xBA] SET_ENTITY_POSITION(entity_id=Nicolaus (ID: 17339040/0x010892A0), pos_x=388.026*, pos_z=-184.028*, pos_y=0.700*, direction=180.7°*)
332: 0x0CFA [0xBA] SET_ENTITY_POSITION(entity_id=Five Moons (ID: 17339041/0x010892A1), pos_x=388.026*, pos_z=-184.028*, pos_y=1.200*, direction=180.7°*)
333: 0x0D07 [0xBA] SET_ENTITY_POSITION(entity_id=Unnamed NPC (ID: 17339056/0x010892B0), pos_x=388.026*, pos_z=-184.028*, pos_y=0.700*, direction=180.7°*)
334: 0x0D14 [0xBA] SET_ENTITY_POSITION(entity_id=Unnamed NPC (ID: 17339057/0x010892B1), pos_x=388.026*, pos_z=-184.028*, pos_y=1.200*, direction=180.7°*)
335: 0x0D21 [0x5B] LOAD_EXT_SCHEDULER: Load scheduler "xar5" with entities [Five Moons (ID: 17339041/0x010892A1), Five Moons (ID: 17339041/0x010892A1)], work=2661*
336: 0x0D30 [0x5B] LOAD_EXT_SCHEDULER: Load scheduler "xar5" with entities [Unnamed NPC (ID: 17339057/0x010892B1), Unnamed NPC (ID: 17339057/0x010892B1)], work=2319*
337: 0x0D3F [0xC5] LOAD_SCHEDULED_TASK_ALT3: Load scheduler 0x80003430 for entities [Unnamed NPC (ID: 17339057/0x010892B1), Unnamed NPC (ID: 17339057/0x010892B1)], work=224*, param=29811
338: 0x0D50 [0x5B] LOAD_EXT_SCHEDULER: Load scheduler "xar7" with entities [Nicolaus (ID: 17339040/0x010892A0), Nicolaus (ID: 17339040/0x010892A0)], work=2487*
339: 0x0D5F [0x5B] LOAD_EXT_SCHEDULER: Load scheduler "xar7" with entities [Unnamed NPC (ID: 17339056/0x010892B0), Unnamed NPC (ID: 17339056/0x010892B0)], work=2432*
340: 0x0D6E [0xC5] LOAD_SCHEDULED_TASK_ALT3: Load scheduler 0x80003330 for entities [Unnamed NPC (ID: 17339056/0x010892B0), Unnamed NPC (ID: 17339056/0x010892B0)], work=224*, param=29811
341: 0x0D7F [0x5B] LOAD_EXT_SCHEDULER: Load scheduler "ken0" with entities [Heiner (ID: 17339043/0x010892A3), Heiner (ID: 17339043/0x010892A3)], work=1480*
342: 0x0D8E [0x5B] LOAD_EXT_SCHEDULER: Load scheduler "ken0" with entities [Unnamed NPC (ID: 17339046/0x010892A6), Unnamed NPC (ID: 17339046/0x010892A6)], work=1480*
343: 0x0D9D [0x52] END_LOAD_SCHEDULER: End scheduler "s159" with entities [EventEntity, EventEntity], work=523*
344: 0x0DAC [0x45] LOAD_SCHEDULED_TASK: Load scheduler "s147" with entities [EventEntity, EventEntity], work=[523*, 0*]
345: 0x0DBD [0x5B] LOAD_EXT_SCHEDULER: Load scheduler "nag2" with entities [Unnamed NPC (ID: 17339053/0x010892AD), Unnamed NPC (ID: 17339053/0x010892AD)], work=2333*
346: 0x0DCC [0x1C] WAIT(20* ticks)
347: 0x0DCF [0xC5] LOAD_SCHEDULED_TASK_ALT3: Load scheduler 0x80003030 for entities [EventEntity, EventEntity], work=157*, param=12403
348: 0x0DE0 [0x1C] WAIT(100* ticks)
349: 0x0DE3 [0x5D] SET_MUSIC_VOLUME(volume=0*, fade_time=120*)
350: 0x0DE8 [0x1A] CALL_SUBROUTINE(address=0x3503)
351: 0x0DEB [0x1C] WAIT(30* ticks)
352: 0x0DEE [0x52] END_LOAD_SCHEDULER: End scheduler "s147" with entities [EventEntity, EventEntity], work=523*
353: 0x0DFD [0x78] ENABLE_GAME_TIMER_RESET_WEATHER()
354: 0x0DFE [0xC5] LOAD_SCHEDULED_TASK_ALT3: Load scheduler 0x80003130 for entities [Unnamed NPC (ID: 17339053/0x010892AD), Unnamed NPC (ID: 17339053/0x010892AD)], work=144*, param=27755
355: 0x0E0F [0xC5] LOAD_SCHEDULED_TASK_ALT3: Load scheduler 0x80003130 for entities [??? (ID: 17339042/0x010892A2), ??? (ID: 17339042/0x010892A2)], work=144*, param=27755
356: 0x0E20 [0xC5] LOAD_SCHEDULED_TASK_ALT3: Load scheduler 0x80003130 for entities [Zeid (ID: 17339052/0x010892AC), Zeid (ID: 17339052/0x010892AC)], work=144*, param=27755
357: 0x0E31 [0x5B] LOAD_EXT_SCHEDULER: Load scheduler "kan0" with entities [Unnamed NPC (ID: 17339055/0x010892AF), Unnamed NPC (ID: 17339055/0x010892AF)], work=1260*
358: 0x0E40 [0x27] REQ_SET(priority=0x05, entity_id=Klara (ID: 17339051/0x010892AB), tag_num=0x07)
359: 0x0E47 [0x27] REQ_SET(priority=0x05, entity_id=Zeid (ID: 17339052/0x010892AC), tag_num=0x08)
360: 0x0E4E [0x1C] WAIT(60* ticks)
361: 0x0E51 [0x46] CAMERA_CONTROL: Restore default settings
362: 0x0E53 [0x45] LOAD_SCHEDULED_TASK: Load scheduler "fdi2" with entities [LocalPlayer, LocalPlayer], work=[200*, 0*]
363: 0x0E64 [0x21] END_EVENT
364: 0x0E65 [0x00] END_REQSTACK()
```

### Event 9

#### Metadata

| Field        | Value      |
|--------------|------------|
| Entrypoint   | 0x0E66     |
| Data Size    | 4657 bytes |
| Instructions | 519        |

```
      00 01 02 03 04 05 06 07  08 09 0A 0B 0C 0D 0E 0F
      -- -- -- -- -- -- -- --  -- -- -- -- -- -- -- --
0E60:                   42 5D  00 80 01 80 1A 03 35 46        B]......5F
0E70: 01 38 02 80 34 AE 80 77  03 80 06 80 1C 06 80 4E  .8..4..w.......N
0E80: 01 F0 FF FF 7F 2F 00 A2  92 08 01 2F 00 A3 92 08  ...../...../....
0E90: 01 2F 00 AC 92 08 01 2F  00 AD 92 08 01 2F 00 AE  ./...../...../..
0EA0: 92 08 01 2F 00 AF 92 08  01 2F 00 AB 92 08 01 4E  .../...../.....N
0EB0: 00 A2 92 08 01 4E 00 A3  92 08 01 4E 00 AC 92 08  .....N.....N....
0EC0: 01 4E 00 AD 92 08 01 4E  00 AE 92 08 01 4E 00 AB  .N.....N.....N..
0ED0: 92 08 01 22 00 33 01 94  01 F0 FF FF 7F 94 01 A2  ...".3..........
0EE0: 92 08 01 94 01 A3 92 08  01 94 01 AC 92 08 01 BA  ................
0EF0: F0 FF FF 7F AF 80 B0 80  B1 80 B2 80 BA AE 92 08  ................
0F00: 01 B3 80 B4 80 B5 80 B6  80 BA A2 92 08 01 B3 80  ................
0F10: B4 80 B5 80 B6 80 BA A3  92 08 01 B7 80 B8 80 B9  ................
0F20: 80 BA 80 BA AC 92 08 01  BB 80 BC 80 BD 80 BE 80  ................
0F30: BA AD 92 08 01 BF 80 C0  80 C1 80 BA 80 BA AF 92  ................
0F40: 08 01 C2 80 C3 80 C4 80  C5 80 BA AB 92 08 01 C6  ................
0F50: 80 C7 80 C8 80 B2 80 37  C9 80 CA 80 CB 80 CC 80  .......7........
0F60: 80 AE 92 08 01 80 A2 92  08 01 80 A3 92 08 01 80  ................
0F70: AC 92 08 01 80 AD 92 08  01 80 F8 FF FF 7F 80 AB  ................
0F80: 92 08 01 1C 4E 80 5B CD  80 A2 92 08 01 A2 92 08  ....N.[.........
0F90: 01 70 72 65 30 C5 CE 80  F8 FF FF 7F F8 FF FF 7F  .pre0...........
0FA0: 73 30 30 32 00 80 C5 CE  80 AB 92 08 01 AB 92 08  s002............
0FB0: 01 73 30 30 32 00 80 45  CF 80 F8 FF FF 7F F8 FF  .s002..E........
0FC0: FF 7F 73 30 39 38 00 80  1C 5A 80 1A E2 34 1C 01  ..s098...Z...4..
0FD0: 80 45 5C 80 F0 FF FF 7F  F0 FF FF 7F 6F 76 6C 31  .E\.........ovl1
0FE0: 00 80 52 CF 80 F8 FF FF  7F F8 FF FF 7F 73 30 39  ..R..........s09
0FF0: 38 45 CF 80 F8 FF FF 7F  F8 FF FF 7F 73 30 39 39  8E..........s099
1000: 00 80 1C 01 80 27 05 AC  92 08 01 03 1C A8 80 52  .....'.........R
1010: CF 80 F8 FF FF 7F F8 FF  FF 7F 73 30 39 39 45 CF  ..........s099E.
1020: 80 F8 FF FF 7F F8 FF FF  7F 73 31 30 30 00 80 1C  .........s100...
1030: 01 80 52 CF 80 F8 FF FF  7F F8 FF FF 7F 73 31 30  ..R..........s10
1040: 30 45 CF 80 F8 FF FF 7F  F8 FF FF 7F 73 31 30 31  0E..........s101
1050: 00 80 5B D0 80 A3 92 08  01 A3 92 08 01 73 68 75  ..[..........shu
1060: 30 1C 5A 80 7A 00 AC 92  08 01 BA AC 92 08 01 D1  0.Z.z...........
1070: 80 D2 80 D3 80 BE 80 2B  A3 92 08 01 D4 80 23 53  .......+......#S
1080: A3 92 08 01 A3 92 08 01  73 68 75 30 5C 00 D5 80  ........shu0\...
1090: 5C 01 D5 80 9A 52 CF 80  F8 FF FF 7F F8 FF FF 7F  \....R..........
10A0: 73 31 30 31 45 CF 80 F8  FF FF 7F F8 FF FF 7F 73  s101E..........s
10B0: 31 30 32 00 80 2B A3 92  08 01 D6 80 23 52 CF 80  102..+......#R..
10C0: F8 FF FF 7F F8 FF FF 7F  73 31 30 32 45 CF 80 F8  ........s102E...
10D0: FF FF 7F F8 FF FF 7F 73  31 30 33 00 80 2B A3 92  .......s103..+..
10E0: 08 01 D7 80 23 5B D8 80  AC 92 08 01 AC 92 08 01  ....#[..........
10F0: 64 73 68 30 52 CF 80 F8  FF FF 7F F8 FF FF 7F 73  dsh0R..........s
1100: 31 30 33 45 CF 80 F8 FF  FF 7F F8 FF FF 7F 73 31  103E..........s1
1110: 34 31 00 80 1C D9 80 4E  01 AC 92 08 01 BA AC 92  41.....N........
1120: 08 01 DA 80 DB 80 DC 80  B2 80 52 CF 80 F8 FF FF  ..........R.....
1130: 7F F8 FF FF 7F 73 31 34  31 45 CF 80 F8 FF FF 7F  .....s141E......
1140: F8 FF FF 7F 73 31 34 32  00 80 1C DD 80 52 CF 80  ....s142.....R..
1150: F8 FF FF 7F F8 FF FF 7F  73 31 34 32 45 CF 80 F8  ........s142E...
1160: FF FF 7F F8 FF FF 7F 73  31 34 33 00 80 5B D0 80  .......s143..[..
1170: A3 92 08 01 A3 92 08 01  73 68 75 31 1C 6C 80 4E  ........shu1.l.N
1180: 00 AC 92 08 01 2B A3 92  08 01 DE 80 1C 6C 80 5B  .....+.......l.[
1190: D8 80 AC 92 08 01 AC 92  08 01 73 68 75 30 1C 6C  ..........shu0.l
11A0: 80 52 CF 80 F8 FF FF 7F  F8 FF FF 7F 73 31 34 33  .R..........s143
11B0: 45 CF 80 F8 FF FF 7F F8  FF FF 7F 73 31 30 35 00  E..........s105.
11C0: 80 4E 00 F0 FF FF 7F 53  A3 92 08 01 A3 92 08 01  .N.....S........
11D0: 73 68 75 31 52 CF 80 F8  FF FF 7F F8 FF FF 7F 73  shu1R..........s
11E0: 31 30 35 45 CF 80 F8 FF  FF 7F F8 FF FF 7F 73 31  105E..........s1
11F0: 30 36 00 80 29 05 F0 FF  FF 7F 18 52 CF 80 F8 FF  06..)......R....
1200: FF 7F F8 FF FF 7F 73 31  30 36 02 87 7F 5F 80 80  ......s106..._..
1210: 26 12 45 CF 80 F8 FF FF  7F F8 FF FF 7F 73 31 34  &.E..........s14
1220: 39 00 80 01 53 12 02 87  7F 7B 80 80 42 12 45 CF  9...S....{..B.E.
1230: 80 F8 FF FF 7F F8 FF FF  7F 73 31 34 39 00 80 01  .........s149...
1240: 53 12 45 CF 80 F8 FF FF  7F F8 FF FF 7F 73 31 30  S.E..........s10
1250: 37 00 80 6E F0 FF FF 7F  68 80 99 F0 FF FF 7F 1C  7..n....h.......
1260: 5A 80 4E 01 AC 92 08 01  BA AC 92 08 01 DF 80 E0  Z.N.............
1270: 80 E1 80 BE 80 6B 69 64  6C 30 AC 92 08 01 1C 6C  .....kidl0.....l
1280: 80 4E 00 AC 92 08 01 5B  E2 80 AC 92 08 01 AC 92  .N.....[........
1290: 08 01 62 61 74 30 1C 4E  80 52 CF 80 F8 FF FF 7F  ..bat0.N.R......
12A0: F8 FF FF 7F 73 31 30 37  52 CF 80 F8 FF FF 7F F8  ....s107R.......
12B0: FF FF 7F 73 31 34 39 45  CF 80 F8 FF FF 7F F8 FF  ...s149E........
12C0: FF 7F 73 31 30 38 00 80  5B E3 80 AC 92 08 01 AC  ..s108..[.......
12D0: 92 08 01 62 61 74 37 1C  E4 80 4E 01 AC 92 08 01  ...bat7...N.....
12E0: 6B 69 64 6C 30 AC 92 08  01 BA AC 92 08 01 E5 80  kidl0...........
12F0: E6 80 E7 80 BE 80 1C 5A  80 5B E2 80 AC 92 08 01  .......Z.[......
1300: AC 92 08 01 62 61 74 32  4E 00 AC 92 08 01 52 CF  ....bat2N.....R.
1310: 80 F8 FF FF 7F F8 FF FF  7F 73 31 30 38 45 CF 80  .........s108E..
1320: F8 FF FF 7F F8 FF FF 7F  73 31 30 39 00 80 53 AC  ........s109..S.
1330: 92 08 01 AC 92 08 01 62  61 74 32 52 CF 80 F8 FF  .......bat2R....
1340: FF 7F F8 FF FF 7F 73 31  30 39 45 CF 80 F8 FF FF  ......s109E.....
1350: 7F F8 FF FF 7F 73 31 31  30 00 80 1C 5A 80 2B A2  .....s110...Z.+.
1360: 92 08 01 E8 80 23 5D 00  80 01 80 5B CD 80 A2 92  .....#]....[....
1370: 08 01 A2 92 08 01 70 72  65 31 52 CF 80 F8 FF FF  ......pre1R.....
1380: 7F F8 FF FF 7F 73 31 31  30 45 CF 80 F8 FF FF 7F  .....s110E......
1390: F8 FF FF 7F 73 31 31 31  00 80 2B AC 92 08 01 E9  ....s111..+.....
13A0: 80 1C 8A 80 52 CF 80 F8  FF FF 7F F8 FF FF 7F 73  ....R..........s
13B0: 31 31 31 45 CF 80 F8 FF  FF 7F F8 FF FF 7F 73 31  111E..........s1
13C0: 31 32 00 80 1C 01 80 23  C5 EA 80 A2 92 08 01 A2  12.....#........
13D0: 92 08 01 73 74 30 31 00  80 45 CF 80 F8 FF FF 7F  ...st01..E......
13E0: F8 FF FF 7F 73 74 30 31  00 80 1C 5E 80 52 CF 80  ....st01...^.R..
13F0: F8 FF FF 7F F8 FF FF 7F  73 31 31 32 45 CF 80 F8  ........s112E...
1400: FF FF 7F F8 FF FF 7F 73  31 30 34 00 80 1C 01 80  .......s104.....
1410: 5C 00 EB 80 5C 01 EB 80  52 CF 80 F8 FF FF 7F F8  \...\...R.......
1420: FF FF 7F 73 31 30 34 45  CF 80 F8 FF FF 7F F8 FF  ...s104E........
1430: FF 7F 73 31 31 33 00 80  27 05 A2 92 08 01 03 1C  ..s113..'.......
1440: 8A 80 2B AC 92 08 01 EC  80 23 55 CF 80 F8 FF FF  ..+......#U.....
1450: 7F F8 FF FF 7F 73 31 31  33 45 CF 80 F8 FF FF 7F  .....s113E......
1460: F8 FF FF 7F 73 31 31 34  00 80 2B A2 92 08 01 ED  ....s114..+.....
1470: 80 23 52 CF 80 F8 FF FF  7F F8 FF FF 7F 73 31 31  .#R..........s11
1480: 34 45 CF 80 F8 FF FF 7F  F8 FF FF 7F 73 31 35 33  4E..........s153
1490: 00 80 5B E2 80 AC 92 08  01 AC 92 08 01 62 61 74  ..[..........bat
14A0: 33 1C 4E 80 5B CD 80 A2  92 08 01 A2 92 08 01 70  3.N.[..........p
14B0: 72 65 33 1C 01 80 7C 00  AC 92 08 01 2B AC 92 08  re3...|.....+...
14C0: 01 EE 80 23 7C 01 AC 92  08 01 53 A2 92 08 01 A2  ...#|.....S.....
14D0: 92 08 01 70 72 65 33 52  CF 80 F8 FF FF 7F F8 FF  ...pre3R........
14E0: FF 7F 73 31 35 33 45 CF  80 F8 FF FF 7F F8 FF FF  ..s153E.........
14F0: 7F 73 31 31 35 00 80 5B  CD 80 A2 92 08 01 A2 92  .s115..[........
1500: 08 01 70 72 65 34 2B A2  92 08 01 EF 80 23 53 A2  ..pre4+......#S.
1510: 92 08 01 A2 92 08 01 70  72 65 34 52 CF 80 F8 FF  .......pre4R....
1520: FF 7F F8 FF FF 7F 73 31  31 35 45 CF 80 F8 FF FF  ......s115E.....
1530: 7F F8 FF FF 7F 73 31 31  36 00 80 5B E2 80 AC 92  .....s116..[....
1540: 08 01 AC 92 08 01 62 61  74 34 1C 6C 80 2B AC 92  ......bat4.l.+..
1550: 08 01 F0 80 23 53 AC 92  08 01 AC 92 08 01 62 61  ....#S........ba
1560: 74 34 5B F1 80 AC 92 08  01 AC 92 08 01 62 61 74  t4[..........bat
1570: 35 52 CF 80 F8 FF FF 7F  F8 FF FF 7F 73 31 31 36  5R..........s116
1580: 45 CF 80 F8 FF FF 7F F8  FF FF 7F 73 31 31 37 00  E..........s117.
1590: 80 1C 6C 80 5B CD 80 A2  92 08 01 A2 92 08 01 70  ..l.[..........p
15A0: 72 65 35 2B A2 92 08 01  F2 80 23 53 A2 92 08 01  re5+......#S....
15B0: A2 92 08 01 70 72 65 35  53 AC 92 08 01 AC 92 08  ....pre5S.......
15C0: 01 62 61 74 35 52 CF 80  F8 FF FF 7F F8 FF FF 7F  .bat5R..........
15D0: 73 31 31 37 45 CF 80 F8  FF FF 7F F8 FF FF 7F 73  s117E..........s
15E0: 31 31 38 00 80 1C A8 80  4E 00 AF 92 08 01 6B 69  118.....N.....ki
15F0: 64 6C 30 A2 92 08 01 2C  A2 92 08 01 A2 92 08 01  dl0....,........
1600: 6D 6B 6F 66 2C AF 92 08  01 AF 92 08 01 6D 65 74  mkof,........met
1610: 30 BA AE 92 08 01 F3 80  F4 80 F5 80 B6 80 1C 5D  0..............]
1620: 80 5B F6 80 A2 92 08 01  A2 92 08 01 68 67 73 30  .[..........hgs0
1630: 52 CF 80 F8 FF FF 7F F8  FF FF 7F 73 31 31 38 45  R..........s118E
1640: CF 80 F8 FF FF 7F F8 FF  FF 7F 73 31 31 39 00 80  ..........s119..
1650: 5B F1 80 AC 92 08 01 AC  92 08 01 62 61 74 36 1C  [..........bat6.
1660: 6C 80 2B A2 92 08 01 F7  80 23 53 A2 92 08 01 A2  l.+......#S.....
1670: 92 08 01 68 67 73 30 52  CF 80 F8 FF FF 7F F8 FF  ...hgs0R........
1680: FF 7F 73 31 31 39 45 CF  80 F8 FF FF 7F F8 FF FF  ..s119E.........
1690: 7F 73 31 32 30 00 80 5B  F8 80 A2 92 08 01 A2 92  .s120..[........
16A0: 08 01 73 69 74 30 1C 5A  80 4E 01 AC 92 08 01 BA  ..sit0.Z.N......
16B0: F0 FF FF 7F F9 80 FA 80  FB 80 FC 80 2B A2 92 08  ............+...
16C0: 01 FD 80 23 80 F0 FF FF  7F 53 A2 92 08 01 A2 92  ...#.....S......
16D0: 08 01 73 69 74 30 27 05  F0 FF FF 7F 19 1C 6C 80  ..sit0'.......l.
16E0: 52 CF 80 F8 FF FF 7F F8  FF FF 7F 73 31 32 30 45  R..........s120E
16F0: CF 80 F8 FF FF 7F F8 FF  FF 7F 73 31 32 31 00 80  ..........s121..
1700: 5B F8 80 A2 92 08 01 A2  92 08 01 73 69 74 31 1C  [..........sit1.
1710: 4E 80 4A A2 92 08 01 F0  FF FF 7F 1C 6C 80 5B 5C  N.J.........l.[\
1720: 80 A2 92 08 01 A2 92 08  01 74 6C 61 30 2B A2 92  .........tla0+..
1730: 08 01 FE 80 23 2A 05 F0  FF FF 7F 52 CF 80 F8 FF  ....#*.....R....
1740: FF 7F F8 FF FF 7F 73 31  32 31 45 CF 80 F8 FF FF  ......s121E.....
1750: 7F F8 FF FF 7F 73 31 32  32 00 80 2B A2 92 08 01  .....s122..+....
1760: FF 80 23 5D 00 80 01 80  1A 03 35 1C 6C 80 52 CF  ..#]......5.l.R.
1770: 80 F8 FF FF 7F F8 FF FF  7F 73 31 32 32 C5 CE 80  .........s122...
1780: F8 FF FF 7F F8 FF FF 7F  6B 69 6C 32 00 80 C5 CE  ........kil2....
1790: 80 AB 92 08 01 AB 92 08  01 6B 69 6C 32 00 80 4E  .........kil2..N
17A0: 01 AB 92 08 01 6B 69 64  6C 30 A2 92 08 01 27 05  .....kidl0....'.
17B0: A2 92 08 01 04 27 05 AB  92 08 01 07 7B F0 FF FF  .....'......{...
17C0: 7F 4E 01 A2 92 08 01 4E  01 A3 92 08 01 4E 01 F0  .N.....N.....N..
17D0: FF FF 7F 2F 01 AC 92 08  01 2F 01 A3 92 08 01 2F  .../...../...../
17E0: 00 A4 92 08 01 2F 00 A5  92 08 01 2F 00 A6 92 08  ...../...../....
17F0: 01 2F 00 A7 92 08 01 2F  00 A8 92 08 01 4E 00 A4  ./...../.....N..
1800: 92 08 01 4E 00 A5 92 08  01 4E 00 A6 92 08 01 4E  ...N.....N.....N
1810: 00 A7 92 08 01 4E 00 A8  92 08 01 94 01 A5 92 08  .....N..........
1820: 01 94 01 A6 92 08 01 BA  A4 92 08 01 00 81 01 81  ................
1830: 02 81 03 81 BA A5 92 08  01 04 81 05 81 06 81 03  ................
1840: 81 BA A6 92 08 01 07 81  08 81 09 81 03 81 BA A7  ................
1850: 92 08 01 0A 81 0B 81 0C  81 0D 81 BA A8 92 08 01  ................
1860: 0E 81 0F 81 10 81 0D 81  BA AB 92 08 01 11 81 12  ................
1870: 81 13 81 03 81 BA AD 92  08 01 14 81 15 81 16 81  ................
1880: 0D 81 BA F0 FF FF 7F 17  81 18 81 19 81 1A 81 BA  ................
1890: AE 92 08 01 1B 81 1C 81  BA 80 1D 81 80 A4 92 08  ................
18A0: 01 80 A5 92 08 01 80 A6  92 08 01 80 A7 92 08 01  ................
18B0: 80 A8 92 08 01 80 AD 92  08 01 80 AE 92 08 01 5C  ...............\
18C0: 00 1E 81 5C 01 1E 81 9A  45 CF 80 F8 FF FF 7F F8  ...\....E.......
18D0: FF FF 7F 73 31 32 33 00  80 1C 5A 80 1A E2 34 1C  ...s123...Z...4.
18E0: 5D 80 27 05 A4 92 08 01  03 1C 5F 80 27 05 A5 92  ].'......._.'...
18F0: 08 01 03 1C 5F 80 27 05  A6 92 08 01 03 1C A7 80  ...._.'.........
1900: 52 CF 80 F8 FF FF 7F F8  FF FF 7F 73 31 32 33 45  R..........s123E
1910: CF 80 F8 FF FF 7F F8 FF  FF 7F 73 31 32 34 00 80  ..........s124..
1920: 4A A7 92 08 01 A4 92 08  01 4A A8 92 08 01 A4 92  J........J......
1930: 08 01 2B A4 92 08 01 1F  81 1C E4 80 52 CF 80 F8  ..+.........R...
1940: FF FF 7F F8 FF FF 7F 73  31 32 34 45 CF 80 F8 FF  .......s124E....
1950: FF 7F F8 FF FF 7F 73 31  32 35 00 80 23 66 20 81  ......s125..#f .
1960: A7 92 08 01 A7 92 08 01  74 6C 6B 30 2B A7 92 08  ........tlk0+...
1970: 01 21 81 23 66 20 81 A7  92 08 01 A7 92 08 01 74  .!.#f .........t
1980: 6C 6B 31 2A 05 A4 92 08  01 52 CF 80 F8 FF FF 7F  lk1*.....R......
1990: F8 FF FF 7F 73 31 32 35  45 CF 80 F8 FF FF 7F F8  ....s125E.......
19A0: FF FF 7F 73 31 32 36 00  80 6E A4 92 08 01 22 81  ...s126..n....".
19B0: 99 A4 92 08 01 2B A4 92  08 01 23 81 23 52 CF 80  .....+....#.#R..
19C0: F8 FF FF 7F F8 FF FF 7F  73 31 32 36 45 CF 80 F8  ........s126E...
19D0: FF FF 7F F8 FF FF 7F 73  31 32 37 00 80 6E A7 92  .......s127..n..
19E0: 08 01 24 81 99 A7 92 08  01 6E A8 92 08 01 24 81  ..$......n....$.
19F0: 99 A8 92 08 01 2B A7 92  08 01 25 81 1C 01 80 23  .....+....%....#
1A00: 52 CF 80 F8 FF FF 7F F8  FF FF 7F 73 31 32 37 45  R..........s127E
1A10: CF 80 F8 FF FF 7F F8 FF  FF 7F 73 31 32 38 00 80  ..........s128..
1A20: 27 05 A7 92 08 01 03 7B  A7 92 08 01 1C 6C 80 4E  '......{.....l.N
1A30: 00 AB 92 08 01 27 05 A8  92 08 01 03 7B A8 92 08  .....'......{...
1A40: 01 1C 5D 80 27 05 AB 92  08 01 03 1C A8 80 5D 00  ..].'.........].
1A50: 80 01 80 52 CF 80 F8 FF  FF 7F F8 FF FF 7F 73 31  ...R..........s1
1A60: 32 38 45 CF 80 F8 FF FF  7F F8 FF FF 7F 73 31 32  28E..........s12
1A70: 39 00 80 2B A2 92 08 01  26 81 1C 6C 80 4E 01 A7  9..+....&..l.N..
1A80: 92 08 01 4E 01 A8 92 08  01 1C 5E 80 52 CF 80 F8  ...N......^.R...
1A90: FF FF 7F F8 FF FF 7F 73  31 32 39 45 CF 80 F8 FF  .......s129E....
1AA0: FF 7F F8 FF FF 7F 73 31  33 30 00 80 1C 6C 80 4A  ......s130...l.J
1AB0: A5 92 08 01 AB 92 08 01  7B A5 92 08 01 1C 5A 80  ........{.....Z.
1AC0: 4A A6 92 08 01 AB 92 08  01 7B A6 92 08 01 1C 5A  J........{.....Z
1AD0: 80 5B D0 80 A5 92 08 01  A5 92 08 01 73 68 75 30  .[..........shu0
1AE0: 4A A4 92 08 01 AB 92 08  01 1C 5A 80 5B D0 80 A6  J.........Z.[...
1AF0: 92 08 01 A6 92 08 01 73  68 75 30 2B A5 92 08 01  .......shu0+....
1B00: 27 81 23 53 A5 92 08 01  A5 92 08 01 73 68 75 30  '.#S........shu0
1B10: 53 A6 92 08 01 A6 92 08  01 73 68 75 30 2A 05 AB  S........shu0*..
1B20: 92 08 01 23 5C 00 28 81  5C 01 28 81 5C 02 28 81  ...#\.(.\.(.\.(.
1B30: 5C 03 28 81 9A 52 CF 80  F8 FF FF 7F F8 FF FF 7F  \.(..R..........
1B40: 73 31 33 30 45 CF 80 F8  FF FF 7F F8 FF FF 7F 73  s130E..........s
1B50: 31 33 32 00 80 1C 5A 80  6B 69 64 6C 30 A6 92 08  132...Z.kidl0...
1B60: 01 BA A4 92 08 01 29 81  2A 81 2B 81 2C 81 BA A5  ......).*.+.,...
1B70: 92 08 01 2D 81 2E 81 2F  81 2C 81 BA A6 92 08 01  ...-.../.,......
1B80: 30 81 31 81 32 81 2C 81  1C 6C 80 5B 33 81 A6 92  0.1.2.,..l.[3...
1B90: 08 01 A6 92 08 01 6B 6C  62 30 2B A4 92 08 01 34  ......klb0+....4
1BA0: 81 23 5B 35 81 AB 92 08  01 AB 92 08 01 72 61 6E  .#[5.........ran
1BB0: 30 52 CF 80 F8 FF FF 7F  F8 FF FF 7F 73 31 33 32  0R..........s132
1BC0: 45 CF 80 F8 FF FF 7F F8  FF FF 7F 73 31 33 33 00  E..........s133.
1BD0: 80 2B AB 92 08 01 36 81  1C E4 80 52 CF 80 F8 FF  .+....6....R....
1BE0: FF 7F F8 FF FF 7F 73 31  33 33 45 CF 80 F8 FF FF  ......s133E.....
1BF0: 7F F8 FF FF 7F 73 31 33  31 00 80 23 53 AB 92 08  .....s131..#S...
1C00: 01 AB 92 08 01 72 61 6E  30 5B 37 81 A5 92 08 01  .....ran0[7.....
1C10: A5 92 08 01 6B 6C 61 30  1C 5F 80 52 CF 80 F8 FF  ....kla0._.R....
1C20: FF 7F F8 FF FF 7F 73 31  33 31 45 CF 80 F8 FF FF  ......s131E.....
1C30: 7F F8 FF FF 7F 73 31 33  34 00 80 5B 33 81 A6 92  .....s134..[3...
1C40: 08 01 A6 92 08 01 6B 6C  62 31 1C 5A 80 BA AB 92  ......klb1.Z....
1C50: 08 01 38 81 39 81 3A 81  3B 81 2B A5 92 08 01 3C  ..8.9.:.;.+....<
1C60: 81 23 53 A6 92 08 01 A6  92 08 01 6B 6C 61 30 5B  .#S........kla0[
1C70: 33 81 A6 92 08 01 A6 92  08 01 6B 6C 62 32 52 CF  3.........klb2R.
1C80: 80 F8 FF FF 7F F8 FF FF  7F 73 31 33 34 45 CF 80  .........s134E..
1C90: F8 FF FF 7F F8 FF FF 7F  73 31 33 35 00 80 1C A7  ........s135....
1CA0: 80 5B 37 81 A5 92 08 01  A5 92 08 01 6B 6C 61 31  .[7.........kla1
1CB0: 1C D9 80 81 00 AB 92 08  01 5B 3D 81 AB 92 08 01  .........[=.....
1CC0: AB 92 08 01 6B 6C 6B 30  52 CF 80 F8 FF FF 7F F8  ....klk0R.......
1CD0: FF FF 7F 73 31 33 35 45  CF 80 F8 FF FF 7F F8 FF  ...s135E........
1CE0: FF 7F 73 31 33 36 00 80  1C 5A 80 BA A5 92 08 01  ..s136...Z......
1CF0: 3E 81 3F 81 40 81 41 81  4E 01 A6 92 08 01 1C 42  >.?.@.A.N......B
1D00: 81 BA AB 92 08 01 43 81  44 81 13 81 3B 81 5B 3D  ......C.D...;.[=
1D10: 81 AB 92 08 01 AB 92 08  01 6B 6C 6B 31 C5 58 80  .........klk1.X.
1D20: AB 92 08 01 AB 92 08 01  73 74 30 31 00 80 5B 37  ........st01..[7
1D30: 81 A5 92 08 01 A5 92 08  01 6B 6C 61 32 52 CF 80  .........kla2R..
1D40: F8 FF FF 7F F8 FF FF 7F  73 31 33 36 45 CF 80 F8  ........s136E...
1D50: FF FF 7F F8 FF FF 7F 73  31 34 34 00 80 1C 5E 80  .......s144...^.
1D60: 45 45 81 F8 FF FF 7F F8  FF FF 7F 77 68 6F 30 00  EE.........who0.
1D70: 80 55 45 81 F8 FF FF 7F  F8 FF FF 7F 77 68 6F 30  .UE.........who0
1D80: 52 CF 80 F8 FF FF 7F F8  FF FF 7F 73 31 34 34 4E  R..........s144N
1D90: 01 A5 92 08 01 4E 00 A6  92 08 01 BA A6 92 08 01  .....N..........
1DA0: 46 81 47 81 48 81 49 81  80 A6 92 08 01 45 CF 80  F.G.H.I......E..
1DB0: F8 FF FF 7F F8 FF FF 7F  73 31 34 35 00 80 1C 5F  ........s145..._
1DC0: 80 45 45 81 F8 FF FF 7F  F8 FF FF 7F 77 68 69 30  .EE.........whi0
1DD0: 00 80 5B 3D 81 AB 92 08  01 AB 92 08 01 6B 6C 6B  ..[=.........klk
1DE0: 32 C5 58 80 AB 92 08 01  AB 92 08 01 73 74 30 32  2.X.........st02
1DF0: 00 80 5B 33 81 A6 92 08  01 A6 92 08 01 6B 6C 62  ..[3.........klb
1E00: 33 1C 5E 80 45 45 81 F8  FF FF 7F F8 FF FF 7F 77  3.^.EE.........w
1E10: 68 6F 30 00 80 55 45 81  F8 FF FF 7F F8 FF FF 7F  ho0..UE.........
1E20: 77 68 6F 30 52 CF 80 F8  FF FF 7F F8 FF FF 7F 73  who0R..........s
1E30: 31 34 35 5B D0 80 A4 92  08 01 A4 92 08 01 73 68  145[..........sh
1E40: 75 30 4E 00 A5 92 08 01  BA AB 92 08 01 4A 81 4B  u0N..........J.K
1E50: 81 4C 81 3B 81 BA A5 92  08 01 4D 81 4E 81 4F 81  .L.;......M.N.O.
1E60: 50 81 BA A6 92 08 01 51  81 52 81 53 81 54 81 80  P......Q.R.S.T..
1E70: AB 92 08 01 80 A5 92 08  01 80 A6 92 08 01 1C 6C  ...............l
1E80: 80 5B 3D 81 AB 92 08 01  AB 92 08 01 6B 6C 6B 33  .[=.........klk3
1E90: 5B 37 81 A5 92 08 01 A5  92 08 01 6B 6C 61 33 5B  [7.........kla3[
1EA0: 33 81 A6 92 08 01 A6 92  08 01 6B 6C 62 34 45 CF  3.........klb4E.
1EB0: 80 F8 FF FF 7F F8 FF FF  7F 73 31 33 37 00 80 1C  .........s137...
1EC0: 5F 80 45 45 81 F8 FF FF  7F F8 FF FF 7F 77 68 69  _.EE.........whi
1ED0: 30 00 80 5B 37 81 A5 92  08 01 A5 92 08 01 6B 6C  0..[7.........kl
1EE0: 61 34 C5 55 81 A5 92 08  01 A5 92 08 01 73 74 30  a4.U.........st0
1EF0: 31 00 80 1C 6C 80 5B 33  81 A6 92 08 01 A6 92 08  1...l.[3........
1F00: 01 6B 6C 62 35 C5 55 81  A6 92 08 01 A6 92 08 01  .klb5.U.........
1F10: 73 74 30 32 00 80 1C 5C  80 52 CF 80 F8 FF FF 7F  st02...\.R......
1F20: F8 FF FF 7F 73 31 33 37  45 CF 80 F8 FF FF 7F F8  ....s137E.......
1F30: FF FF 7F 73 31 33 38 00  80 5B 3D 81 AB 92 08 01  ...s138..[=.....
1F40: AB 92 08 01 6B 6C 6B 34  1C 4E 80 2B AB 92 08 01  ....klk4.N.+....
1F50: 56 81 23 4E 00 F0 FF FF  7F 80 F0 FF FF 7F 53 AB  V.#N..........S.
1F60: 92 08 01 AB 92 08 01 6B  6C 6B 34 27 05 F0 FF FF  .......klk4'....
1F70: 7F 1A 1C A7 80 52 CF 80  F8 FF FF 7F F8 FF FF 7F  .....R..........
1F80: 73 31 33 38 45 CF 80 F8  FF FF 7F F8 FF FF 7F 73  s138E..........s
1F90: 31 33 39 00 80 5B 3D 81  AB 92 08 01 AB 92 08 01  139..[=.........
1FA0: 6B 6C 6B 35 2A 05 F0 FF  FF 7F 4A F0 FF FF 7F AB  klk5*.....J.....
1FB0: 92 08 01 1C 6C 80 2B AB  92 08 01 57 81 27 05 F0  ....l.+....W.'..
1FC0: FF FF 7F 08 1C E4 80 23  5B 3D 81 AB 92 08 01 AB  .......#[=......
1FD0: 92 08 01 6B 6C 6B 36 1C  5A 80 52 CF 80 F8 FF FF  ...klk6.Z.R.....
1FE0: 7F F8 FF FF 7F 73 31 33  39 45 CF 80 F8 FF FF 7F  .....s139E......
1FF0: F8 FF FF 7F 73 31 34 30  00 80 2B AB 92 08 01 58  ....s140..+....X
2000: 81 23 53 AB 92 08 01 AB  92 08 01 6B 6C 6B 36 6A  .#S........klk6j
2010: 00 80 A7 80 06 80 5D 00  80 01 80 1A 03 35 1C 6C  ......]......5.l
2020: 80 52 CF 80 F8 FF FF 7F  F8 FF FF 7F 73 31 34 30  .R..........s140
2030: 29 05 F0 FF FF 7F 09 29  05 AD 92 08 01 04 29 05  )......)......).
2040: AE 92 08 01 04 29 05 AF  92 08 01 03 80 F0 FF FF  .....)..........
