# 17339116 - kisi03

## Common Data

| Field            | Value                   |
|------------------|-------------------------|
| Zone             | Xarcabard [S] (ID: 137) |
| Block Size       | 328 bytes               |
| Total Events     | 11                      |
| References Count | 25                      |

## List of Events

| Event ID                 | Entrypoint   |   Size |   Instructions |
|--------------------------|--------------|--------|----------------|
| [65535](#event-65535)    | 0x0000       |      1 |              1 |
| [17](#event-17)          | 0x0001       |      1 |              1 |
| [65535.1](#event-655351) | 0x0002       |     30 |              4 |
| [65535.2](#event-655352) | 0x0020       |     21 |              2 |
| [65535.3](#event-655353) | 0x0035       |     21 |              2 |
| [65535.4](#event-655354) | 0x004A       |     14 |              4 |
| [31](#event-31)          | 0x0058       |      1 |              1 |
| [65535.5](#event-655355) | 0x0059       |     26 |              3 |
| [42](#event-42)          | 0x0073       |      1 |              1 |
| [65535.6](#event-655356) | 0x0074       |     25 |              3 |
| [65535.7](#event-655357) | 0x008D       |     25 |              3 |

## DAT References (imed_data)

|   Index | Hex Value   |   Dec Value |
|---------|-------------|-------------|
|       0 | 0x0003      |           3 |
|       1 | 0x0008      |           8 |
|       2 | 0x000D      |          13 |
|       3 | 0x00DD      |         221 |
|       4 | 0x000C      |          12 |
|       5 | 0x00FB      |         251 |
|       6 | 0x001B      |          27 |
|       7 | 0x0064      |         100 |
|       8 | 0x000A      |          10 |
|       9 | 0x0001      |           1 |
|      10 | 0x0002      |           2 |
|      11 | 0x0000      |           0 |
|      12 | 0x81211     |      528913 |
|      13 | 0xFFFBD75E  |  4294694750 |
|      14 | 0x00F3      |         243 |
|      15 | 0x0038      |          56 |
|      16 | 0x007D      |         125 |
|      17 | 0x0060      |          96 |
|      18 | 0x006E      |         110 |
|      19 | 0x0007      |           7 |
|      20 | 0x001A      |          26 |
|      21 | 0x0023      |          35 |
|      22 | 0x0036      |          54 |
|      23 | 0x00DB      |         219 |
|      24 | 0x0171      |         369 |

## Events

### Event 65535

#### Metadata

| Field        | Value   |
|--------------|---------|
| Entrypoint   | 0x0000  |
| Data Size    | 1 bytes |
| Instructions | 1       |

```
      00 01 02 03 04 05 06 07  08 09 0A 0B 0C 0D 0E 0F
      -- -- -- -- -- -- -- --  -- -- -- -- -- -- -- --
0000: 00                                                .               
```

#### Opcodes

```
  0: 0x0000 [0x00] END_REQSTACK()
```

### Event 17

#### Metadata

| Field        | Value   |
|--------------|---------|
| Entrypoint   | 0x0001  |
| Data Size    | 1 bytes |
| Instructions | 1       |

```
      00 01 02 03 04 05 06 07  08 09 0A 0B 0C 0D 0E 0F
      -- -- -- -- -- -- -- --  -- -- -- -- -- -- -- --
0000:    00                                              .              
```

#### Opcodes

```
  0: 0x0001 [0x00] END_REQSTACK()
```

### Event 65535.1

#### Metadata

| Field        | Value    |
|--------------|----------|
| Entrypoint   | 0x0002   |
| Data Size    | 30 bytes |
| Instructions | 4        |

```
      00 01 02 03 04 05 06 07  08 09 0A 0B 0C 0D 0E 0F
      -- -- -- -- -- -- -- --  -- -- -- -- -- -- -- --
0000:       B6 0B 00 80 01 80  02 80 03 80 02 80 04 80    ..............
0010: 03 80 05 80 06 80 B6 0F  07 80 80 EC 92 08 01 00  ................
```

#### Opcodes

```
  0: 0x0002 [0xB6] ENTITY_APPEARANCE_HANDLER(case=Full entity look, race=3*, hair=8*, head=13*, body=221*, hands=13*, legs=12*, feet=221*, main=251*, sub=27*)
  1: 0x0016 [0xB6] ENTITY_APPEARANCE_HANDLER(case=Model size, value=100*)
  2: 0x001A [0x80] LOAD_WAIT(entity=kisi03 (ID: 17339116/0x010892EC))
  3: 0x001F [0x00] END_REQSTACK()
```

### Event 65535.2

#### Metadata

| Field        | Value    |
|--------------|----------|
| Entrypoint   | 0x0020   |
| Data Size    | 21 bytes |
| Instructions | 2        |

```
      00 01 02 03 04 05 06 07  08 09 0A 0B 0C 0D 0E 0F
      -- -- -- -- -- -- -- --  -- -- -- -- -- -- -- --
0020: B6 0B 00 80 08 80 02 80  03 80 02 80 04 80 03 80  ................
0030: 05 80 06 80 00                                    .....           
```

#### Opcodes

```
  0: 0x0020 [0xB6] ENTITY_APPEARANCE_HANDLER(case=Full entity look, race=3*, hair=10*, head=13*, body=221*, hands=13*, legs=12*, feet=221*, main=251*, sub=27*)
  1: 0x0034 [0x00] END_REQSTACK()
```

### Event 65535.3

#### Metadata

| Field        | Value    |
|--------------|----------|
| Entrypoint   | 0x0035   |
| Data Size    | 21 bytes |
| Instructions | 2        |

```
      00 01 02 03 04 05 06 07  08 09 0A 0B 0C 0D 0E 0F
      -- -- -- -- -- -- -- --  -- -- -- -- -- -- -- --
0030:                B6 0B 01  80 09 80 0A 80 0A 80 0A       ...........
0040: 80 0A 80 0A 80 05 80 0B  80 00                    ..........      
```

#### Opcodes

```
  0: 0x0035 [0xB6] ENTITY_APPEARANCE_HANDLER(case=Full entity look, race=8*, hair=1*, head=2*, body=2*, hands=2*, legs=2*, feet=2*, main=251*, sub=0*)
  1: 0x0049 [0x00] END_REQSTACK()
```

### Event 65535.4

#### Metadata

| Field        | Value    |
|--------------|----------|
| Entrypoint   | 0x004A   |
| Data Size    | 14 bytes |
| Instructions | 4        |

```
      00 01 02 03 04 05 06 07  08 09 0A 0B 0C 0D 0E 0F
      -- -- -- -- -- -- -- --  -- -- -- -- -- -- -- --
0040:                                32 02 80 1F 00 0C            2.....
0050: 80 0D 80 0E 80 1F 01 00                           ........        
```

#### Opcodes

```
  0: 0x004A [0x32] ExtData[1]->MainSpeed = 13* * 0.1
  1: 0x004D [0x1F] MOVE_ENTITY: EventEntity moves to X=528.913*, Z=-272.546*, Y=0.243*
  2: 0x0055 [0x1F] MOVE_ENTITY: Update entity position (mode=1)
  3: 0x0057 [0x00] END_REQSTACK()
```

### Event 31

#### Metadata

| Field        | Value   |
|--------------|---------|
| Entrypoint   | 0x0058  |
| Data Size    | 1 bytes |
| Instructions | 1       |

```
      00 01 02 03 04 05 06 07  08 09 0A 0B 0C 0D 0E 0F
      -- -- -- -- -- -- -- --  -- -- -- -- -- -- -- --
0050:                          00                               .       
```

#### Opcodes

```
  0: 0x0058 [0x00] END_REQSTACK()
```

### Event 65535.5

#### Metadata

| Field        | Value    |
|--------------|----------|
| Entrypoint   | 0x0059   |
| Data Size    | 26 bytes |
| Instructions | 3        |

```
      00 01 02 03 04 05 06 07  08 09 0A 0B 0C 0D 0E 0F
      -- -- -- -- -- -- -- --  -- -- -- -- -- -- -- --
0050:                             B6 0B 00 80 08 80 0F           .......
0060: 80 03 80 04 80 04 80 04  80 05 80 0B 80 80 EC 92  ................
0070: 08 01 00                                          ...             
```

#### Opcodes

```
  0: 0x0059 [0xB6] ENTITY_APPEARANCE_HANDLER(case=Full entity look, race=3*, hair=10*, head=56*, body=221*, hands=12*, legs=12*, feet=12*, main=251*, sub=0*)
  1: 0x006D [0x80] LOAD_WAIT(entity=kisi03 (ID: 17339116/0x010892EC))
  2: 0x0072 [0x00] END_REQSTACK()
```

### Event 42

#### Metadata

| Field        | Value   |
|--------------|---------|
| Entrypoint   | 0x0073  |
| Data Size    | 1 bytes |
| Instructions | 1       |

```
      00 01 02 03 04 05 06 07  08 09 0A 0B 0C 0D 0E 0F
      -- -- -- -- -- -- -- --  -- -- -- -- -- -- -- --
0070:          00                                          .            
```

#### Opcodes

```
  0: 0x0073 [0x00] END_REQSTACK()
```

### Event 65535.6

#### Metadata

| Field        | Value    |
|--------------|----------|
| Entrypoint   | 0x0074   |
| Data Size    | 25 bytes |
| Instructions | 3        |

```
      00 01 02 03 04 05 06 07  08 09 0A 0B 0C 0D 0E 0F
      -- -- -- -- -- -- -- --  -- -- -- -- -- -- -- --
0070:             B6 0B 01 80  00 80 10 80 11 80 11 80      ............
0080: 11 80 11 80 0B 80 0B 80  B6 0F 12 80 00           .............   
```

#### Opcodes

```
  0: 0x0074 [0xB6] ENTITY_APPEARANCE_HANDLER(case=Full entity look, race=8*, hair=3*, head=125*, body=96*, hands=96*, legs=96*, feet=96*, main=0*, sub=0*)
  1: 0x0088 [0xB6] ENTITY_APPEARANCE_HANDLER(case=Model size, value=110*)
  2: 0x008C [0x00] END_REQSTACK()
```

### Event 65535.7

#### Metadata

| Field        | Value    |
|--------------|----------|
| Entrypoint   | 0x008D   |
| Data Size    | 25 bytes |
| Instructions | 3        |

```
      00 01 02 03 04 05 06 07  08 09 0A 0B 0C 0D 0E 0F
      -- -- -- -- -- -- -- --  -- -- -- -- -- -- -- --
0080:                                         B6 0B 13               ...
0090: 80 14 80 0B 80 15 80 16  80 17 80 0B 80 18 80 0B  ................
00A0: 80 B6 0F 07 80 00                                 ......          
```

#### Opcodes

```
  0: 0x008D [0xB6] ENTITY_APPEARANCE_HANDLER(case=Full entity look, race=7*, hair=26*, head=0*, body=35*, hands=54*, legs=219*, feet=0*, main=369*, sub=0*)
  1: 0x00A1 [0xB6] ENTITY_APPEARANCE_HANDLER(case=Model size, value=100*)
  2: 0x00A5 [0x00] END_REQSTACK()
```
