# 17339258

## Common Data

| Field            | Value                   |
|------------------|-------------------------|
| Zone             | Xarcabard [S] (ID: 137) |
| Block Size       | 5792 bytes              |
| Total Events     | 6                       |
| References Count | 118                     |

## List of Events

| Event ID              | Entrypoint   |   Size |   Instructions |
|-----------------------|--------------|--------|----------------|
| [65535](#event-65535) | 0x0000       |      1 |              1 |
| [36](#event-36)       | 0x0001       |   3498 |            431 |
| [37](#event-37)       | 0x0DAB       |    918 |            129 |
| [38](#event-38)       | 0x1141       |     59 |             13 |
| [43](#event-43)       | 0x117C       |    108 |             29 |
| [44](#event-44)       | 0x11E8       |    696 |             73 |

## DAT References (imed_data)

|   Index | Hex Value   |   Dec Value |
|---------|-------------|-------------|
|       0 | 0x0013      |          19 |
|       1 | 0x3A776     |      239478 |
|       2 | 0xFFFC3D9D  |  4294720925 |
|       3 | 0xFFFFE049  |  4294959177 |
|       4 | 0x043E      |        1086 |
|       5 | 0x381D4     |      229844 |
|       6 | 0xFFFC3728  |  4294719272 |
|       7 | 0xFFFFD9C6  |  4294957510 |
|       8 | 0x0FAF      |        4015 |
|       9 | 0x3A64F     |      239183 |
|      10 | 0xFFFC3581  |  4294718849 |
|      11 | 0xFFFFC417  |  4294951959 |
|      12 | 0x0C73      |        3187 |
|      13 | 0x001E      |          30 |
|      14 | 0x002A      |          42 |
|      15 | 0x01E7      |         487 |
|      16 | 0x0000      |           0 |
|      17 | 0x0078      |         120 |
|      18 | 0x21A7      |        8615 |
|      19 | 0x0079      |         121 |
|      20 | 0x000F      |          15 |
|      21 | 0x0A52      |        2642 |
|      22 | 0x00A0      |         160 |
|      23 | 0x21A8      |        8616 |
|      24 | 0x21A9      |        8617 |
|      25 | 0x0A57      |        2647 |
|      26 | 0x003C      |          60 |
|      27 | 0x21AA      |        8618 |
|      28 | 0x21AB      |        8619 |
|      29 | 0x0001      |           1 |
|      30 | 0x0002      |           2 |
|      31 | 0x0028      |          40 |
|      32 | 0x21AC      |        8620 |
|      33 | 0x0A4C      |        2636 |
|      34 | 0x21AD      |        8621 |
|      35 | 0x21AE      |        8622 |
|      36 | 0x0A53      |        2643 |
|      37 | 0x21AF      |        8623 |
|      38 | 0x21B0      |        8624 |
|      39 | 0x0050      |          80 |
|      40 | 0x21B1      |        8625 |
|      41 | 0x21B2      |        8626 |
|      42 | 0x21B3      |        8627 |
|      43 | 0x21B4      |        8628 |
|      44 | 0x21B5      |        8629 |
|      45 | 0x21B6      |        8630 |
|      46 | 0x21B7      |        8631 |
|      47 | 0x21B8      |        8632 |
|      48 | 0x21B9      |        8633 |
|      49 | 0x0003      |           3 |
|      50 | 0x0004      |           4 |
|      51 | 0x0005      |           5 |
|      52 | 0x0006      |           6 |
|      53 | 0x0007      |           7 |
|      54 | 0x0008      |           8 |
|      55 | 0x21BA      |        8634 |
|      56 | 0x0015      |          21 |
|      57 | 0x005A      |          90 |
|      58 | 0x0AC3      |        2755 |
|      59 | 0x00B4      |         180 |
|      60 | 0x21BD      |        8637 |
|      61 | 0x0016      |          22 |
|      62 | 0x21BC      |        8636 |
|      63 | 0x0020      |          32 |
|      64 | 0x21BB      |        8635 |
|      65 | 0x21BE      |        8638 |
|      66 | 0x0A55      |        2645 |
|      67 | 0x002D      |          45 |
|      68 | 0x21BF      |        8639 |
|      69 | 0x21C0      |        8640 |
|      70 | 0x21C1      |        8641 |
|      71 | 0x21C2      |        8642 |
|      72 | 0x21C3      |        8643 |
|      73 | 0x21C4      |        8644 |
|      74 | 0x21C5      |        8645 |
|      75 | 0x21C6      |        8646 |
|      76 | 0x21C7      |        8647 |
|      77 | 0x21C8      |        8648 |
|      78 | 0x21C9      |        8649 |
|      79 | 0x21CA      |        8650 |
|      80 | 0x21CC      |        8652 |
|      81 | 0x03E8      |        1000 |
|      82 | 0x21CD      |        8653 |
|      83 | 0x21CE      |        8654 |
|      84 | 0x21CF      |        8655 |
|      85 | 0x21D0      |        8656 |
|      86 | 0x21D1      |        8657 |
|      87 | 0x21D3      |        8659 |
|      88 | 0x21D4      |        8660 |
|      89 | 0x21D5      |        8661 |
|      90 | 0x0063      |          99 |
|      91 | 0x21D9      |        8665 |
|      92 | 0x21D7      |        8663 |
|      93 | 0x21D8      |        8664 |
|      94 | 0x0042      |          66 |
|      95 | 0x0098      |         152 |
|      96 | 0x21DA      |        8666 |
|      97 | 0x21DB      |        8667 |
|      98 | 0x21DC      |        8668 |
|      99 | 0x00C8      |         200 |
|     100 | 0x39E99     |      237209 |
|     101 | 0xFFFC3986  |  4294719878 |
|     102 | 0xFFFFE015  |  4294959125 |
|     103 | 0x0791      |        1937 |
|     104 | 0x21DF      |        8671 |
|     105 | 0x21CB      |        8651 |
|     106 | 0x40000000  |  1073741824 |
|     107 | 0x21D2      |        8658 |
|     108 | 0x21D6      |        8662 |
|     109 | 0x21E0      |        8672 |
|     110 | 0x004F      |          79 |
|     111 | 0x0096      |         150 |
|     112 | 0x063F      |        1599 |
|     113 | 0x21E4      |        8676 |
|     114 | 0x03E7      |         999 |
|     115 | 0x18FE      |        6398 |
|     116 | 0x00C9      |         201 |
|     117 | 0x00D7      |         215 |

## String References

- **6398**: You do not have enough gil.
- **8619**: What will you ask? [Who are you, exactly?/Tablets? Of moogle persuasion?]
- **8628**: Can you see the stones? [I see nothing but snow./As clear as day.]
- **8634**: How will you respond? [For true!?/A gateway?/...]
- **8641**: Kupofried gazes suggestively at <Player>.
- **8642**: Offer a helping hand? [Sure, why not./Perhaps another time.]
- **8649**: Is there aught you would know? [Nothing in particular./How to enter the Walk of Echoes.]
- **8659**: Hand over $0 gil? [Gladly!/On second thought...]
- **8672**: Warp to the Walk of Echoes? [Proceed./Not yet.]
- **8676**: Here, you may obtain $6, but it will cost you $0 gil.

## Events

### Event 65535

#### Metadata

| Field        | Value   |
|--------------|---------|
| Entrypoint   | 0x0000  |
| Data Size    | 1 bytes |
| Instructions | 1       |

```
      00 01 02 03 04 05 06 07  08 09 0A 0B 0C 0D 0E 0F
      -- -- -- -- -- -- -- --  -- -- -- -- -- -- -- --
0000: 00                                                .               
```

#### Opcodes

```
  0: 0x0000 [0x00] END_REQSTACK()
```

### Event 36

#### Metadata

| Field        | Value      |
|--------------|------------|
| Entrypoint   | 0x0001     |
| Data Size    | 3498 bytes |
| Instructions | 427        |

```
      00 01 02 03 04 05 06 07  08 09 0A 0B 0C 0D 0E 0F
      -- -- -- -- -- -- -- --  -- -- -- -- -- -- -- --
0000:    42 1A 72 12 46 01 38  00 80 27 10 7B 93 08 01   B.r.F.8..'.{...
0010: 02 4E 00 9C 92 08 01 92  01 7B 93 08 01 94 01 F0  .N.......{......
0020: FF FF 7F 94 01 7B 93 08  01 94 01 9C 92 08 01 BA  .....{..........
0030: F0 FF FF 7F 01 80 02 80  03 80 04 80 BA 7B 93 08  .............{..
0040: 01 05 80 06 80 07 80 08  80 59 05 9C 92 08 01 01  .........Y......
0050: BA 9C 92 08 01 09 80 0A  80 0B 80 0C 80 80 F0 FF  ................
0060: FF 7F 80 7B 93 08 01 80  79 93 08 01 1C 0D 80 5C  ...{....y......\
0070: 00 0E 80 5C 01 0E 80 9A  45 0F 80 F0 FF FF 7F F0  ...\....E.......
0080: FF FF 7F 77 31 30 30 10  80 1A 51 12 79 00 F0 FF  ...w100...Q.y...
0090: FF 7F 9C 92 08 01 1C 11  80 52 0F 80 F0 FF FF 7F  .........R......
00A0: F0 FF FF 7F 77 31 30 30  45 0F 80 F0 FF FF 7F F0  ....w100E.......
00B0: FF FF 7F 77 31 30 31 10  80 2B 9B 92 08 01 12 80  ...w101..+......
00C0: 1C 0D 80 BB 13 80 7B 93  08 01 7B 93 08 01 6D 61  ......{...{...ma
00D0: 69 6E 10 80 1C 14 80 4A  F0 FF FF 7F 7B 93 08 01  in.....J....{...
00E0: 6F 76 F0 FF FF 7F 23 52  0F 80 F0 FF FF 7F F0 FF  ov....#R........
00F0: FF 7F 77 31 30 31 45 0F  80 F0 FF FF 7F F0 FF FF  ..w101E.........
0100: 7F 77 31 30 32 10 80 5B  15 80 7B 93 08 01 7B 93  .w102..[..{...{.
0110: 08 01 6F 6A 69 30 03 02  10 16 80 27 10 9B 92 08  ..oji0.....'....
0120: 01 01 2B 7B 93 08 01 17  80 23 2A 10 9B 92 08 01  ..+{.....#*.....
0130: 52 0F 80 F0 FF FF 7F F0  FF FF 7F 77 31 30 32 45  R..........w102E
0140: 0F 80 F0 FF FF 7F F0 FF  FF 7F 77 31 30 33 10 80  ..........w103..
0150: 27 10 7B 93 08 01 0A 2B  7B 93 08 01 18 80 23 2A  '.{....+{.....#*
0160: 10 7B 93 08 01 52 0F 80  F0 FF FF 7F F0 FF FF 7F  .{...R..........
0170: 77 31 30 33 45 0F 80 F0  FF FF 7F F0 FF FF 7F 77  w103E..........w
0180: 31 30 35 10 80 79 00 7B  93 08 01 7B 93 08 01 5B  105..y.{...{...[
0190: 19 80 7B 93 08 01 7B 93  08 01 74 68 62 30 03 02  ..{...{...thb0..
01A0: 10 11 80 27 10 9B 92 08  01 01 1C 1A 80 2B 7B 93  ...'.........+{.
01B0: 08 01 1B 80 23 2A 10 7B  93 08 01 06 01 00 03 02  ....#*.{........
01C0: 00 10 80 52 0F 80 F0 FF  FF 7F F0 FF FF 7F 77 31  ...R..........w1
01D0: 30 35 45 0F 80 F0 FF FF  7F F0 FF FF 7F 77 31 30  05E..........w10
01E0: 34 10 80 24 1C 80 10 80  02 00 25 02 00 10 1D 80  4..$......%.....
01F0: 00 2A 02 29 10 F0 FF FF  7F 12 02 01 00 10 80 00  .*.)............
0200: 1C 02 03 02 00 1E 80 05  01 00 5B 19 80 7B 93 08  ..........[..{..
0210: 01 7B 93 08 01 74 68 62  31 1C 1F 80 2B 7B 93 08  .{...thb1...+{..
0220: 01 20 80 23 01 E3 01 01  2A 02 52 0F 80 F0 FF FF  . .#....*.R.....
0230: 7F F0 FF FF 7F 77 31 30  34 45 0F 80 F0 FF FF 7F  .....w104E......
0240: F0 FF FF 7F 77 31 30 36  10 80 29 10 F0 FF FF 7F  ....w106..).....
0250: 12 02 01 00 10 80 00 71  02 05 01 00 5B 19 80 7B  .......q....[..{
0260: 93 08 01 7B 93 08 01 74  68 62 31 1C 1F 80 01 80  ...{...thb1.....
0270: 02 5B 21 80 7B 93 08 01  7B 93 08 01 74 6C 6B 30  .[!.{...{...tlk0
0280: 2B 7B 93 08 01 22 80 23  7B 7B 93 08 01 5B 21 80  +{...".#{{...[!.
0290: 7B 93 08 01 7B 93 08 01  73 74 64 30 2B 7B 93 08  {...{...std0+{..
02A0: 01 23 80 1C 1F 80 23 5B  24 80 7B 93 08 01 7B 93  .#....#[$.{...{.
02B0: 08 01 67 61 6B 30 03 02  10 11 80 27 10 9B 92 08  ..gak0.....'....
02C0: 01 01 1C 1A 80 2B 7B 93  08 01 25 80 23 52 0F 80  .....+{...%.#R..
02D0: F0 FF FF 7F F0 FF FF 7F  77 31 30 36 45 0F 80 F0  ........w106E...
02E0: FF FF 7F F0 FF FF 7F 77  31 30 37 10 80 2B 7B 93  .......w107..+{.
02F0: 08 01 26 80 23 2A 10 9B  92 08 01 52 0F 80 F0 FF  ..&.#*.....R....
0300: FF 7F F0 FF FF 7F 77 31  30 37 45 0F 80 F0 FF FF  ......w107E.....
0310: 7F F0 FF FF 7F 77 31 30  38 10 80 5B 24 80 7B 93  .....w108..[$.{.
0320: 08 01 7B 93 08 01 67 61  6B 31 03 02 10 27 80 27  ..{...gak1...'.'
0330: 10 9B 92 08 01 01 1C 0D  80 2B 7B 93 08 01 28 80  .........+{...(.
0340: 23 2A 10 9B 92 08 01 5B  21 80 7B 93 08 01 7B 93  #*.....[!.{...{.
0350: 08 01 68 61 70 30 2B 7B  93 08 01 29 80 23 79 00  ..hap0+{...).#y.
0360: 7B 93 08 01 9C 92 08 01  2B 7B 93 08 01 2A 80 1C  {.......+{...*..
0370: 0D 80 79 00 F0 FF FF 7F  9C 92 08 01 23 52 0F 80  ..y.........#R..
0380: F0 FF FF 7F F0 FF FF 7F  77 31 30 38 45 0F 80 F0  ........w108E...
0390: FF FF 7F F0 FF FF 7F 77  31 30 39 10 80 1C 0D 80  .......w109.....
03A0: 7B 7B 93 08 01 5B 21 80  7B 93 08 01 7B 93 08 01  {{...[!.{...{...
03B0: 73 74 64 30 1C 0D 80 24  2B 80 10 80 10 80 25 02  std0...$+.....%.
03C0: 00 10 10 80 00 13 04 52  0F 80 F0 FF FF 7F F0 FF  .......R........
03D0: FF 7F 77 31 30 39 45 0F  80 F0 FF FF 7F F0 FF FF  ..w109E.........
03E0: 7F 77 31 31 30 10 80 5B  19 80 7B 93 08 01 7B 93  .w110..[..{...{.
03F0: 08 01 70 6E 74 30 03 02  10 16 80 27 10 9B 92 08  ..pnt0.....'....
0400: 01 01 2B 7B 93 08 01 2C  80 23 2A 10 9B 92 08 01  ..+{...,.#*.....
0410: 01 13 04 52 0F 80 F0 FF  FF 7F F0 FF FF 7F 77 31  ...R..........w1
0420: 30 39 52 0F 80 F0 FF FF  7F F0 FF FF 7F 77 31 31  09R..........w11
0430: 30 45 0F 80 F0 FF FF 7F  F0 FF FF 7F 77 31 31 31  0E..........w111
0440: 10 80 5B 21 80 7B 93 08  01 7B 93 08 01 74 6C 6B  ..[!.{...{...tlk
0450: 30 2B 7B 93 08 01 2D 80  23 5B 19 80 7B 93 08 01  0+{...-.#[..{...
0460: 7B 93 08 01 74 68 62 30  03 02 10 16 80 27 10 9B  {...thb0.....'..
0470: 92 08 01 01 2B 7B 93 08  01 2E 80 23 5B 19 80 7B  ....+{.....#[..{
0480: 93 08 01 7B 93 08 01 74  68 62 31 52 0F 80 F0 FF  ...{...thb1R....
0490: FF 7F F0 FF FF 7F 77 31  31 31 45 0F 80 F0 FF FF  ......w111E.....
04A0: 7F F0 FF FF 7F 77 31 31  32 10 80 2B 7B 93 08 01  .....w112..+{...
04B0: 2F 80 23 4A F0 FF FF 7F  7B 93 08 01 2B 7B 93 08  /.#J....{...+{..
04C0: 01 30 80 23 52 0F 80 F0  FF FF 7F F0 FF FF 7F 77  .0.#R..........w
04D0: 31 31 32 29 10 F0 FF FF  7F 04 02 02 10 1D 80 80  112)............
04E0: F6 04 45 0F 80 F0 FF FF  7F F0 FF FF 7F 77 31 68  ..E..........w1h
04F0: 6D 10 80 01 BA 05 02 02  10 1E 80 80 12 05 45 0F  m.............E.
0500: 80 F0 FF FF 7F F0 FF FF  7F 77 31 68 66 10 80 01  .........w1hf...
0510: BA 05 02 02 10 31 80 80  2E 05 45 0F 80 F0 FF FF  .....1....E.....
0520: 7F F0 FF FF 7F 77 31 65  6D 10 80 01 BA 05 02 02  .....w1em.......
0530: 10 32 80 80 4A 05 45 0F  80 F0 FF FF 7F F0 FF FF  .2..J.E.........
0540: 7F 77 31 65 66 10 80 01  BA 05 02 02 10 33 80 80  .w1ef........3..
0550: 66 05 45 0F 80 F0 FF FF  7F F0 FF FF 7F 77 31 74  f.E..........w1t
0560: 72 10 80 01 BA 05 02 02  10 34 80 80 82 05 45 0F  r........4....E.
0570: 80 F0 FF FF 7F F0 FF FF  7F 77 31 74 72 10 80 01  .........w1tr...
0580: BA 05 02 02 10 35 80 80  9E 05 45 0F 80 F0 FF FF  .....5....E.....
0590: 7F F0 FF FF 7F 77 31 6D  74 10 80 01 BA 05 02 02  .....w1mt.......
05A0: 10 36 80 80 BA 05 45 0F  80 F0 FF FF 7F F0 FF FF  .6....E.........
05B0: 7F 77 31 67 6C 10 80 01  BA 05 24 37 80 10 80 10  .w1gl.....$7....
05C0: 80 25 02 00 10 10 80 00  7F 06 6E F0 FF FF 7F 38  .%........n....8
05D0: 80 99 F0 FF FF 7F 1C 39  80 52 0F 80 F0 FF FF 7F  .......9.R......
05E0: F0 FF FF 7F 77 31 68 6D  52 0F 80 F0 FF FF 7F F0  ....w1hmR.......
05F0: FF FF 7F 77 31 68 66 52  0F 80 F0 FF FF 7F F0 FF  ...w1hfR........
0600: FF 7F 77 31 65 6D 52 0F  80 F0 FF FF 7F F0 FF FF  ..w1emR.........
0610: 7F 77 31 65 66 52 0F 80  F0 FF FF 7F F0 FF FF 7F  .w1efR..........
0620: 77 31 74 72 52 0F 80 F0  FF FF 7F F0 FF FF 7F 77  w1trR..........w
0630: 31 6D 74 52 0F 80 F0 FF  FF 7F F0 FF FF 7F 77 31  1mtR..........w1
0640: 67 6C 45 0F 80 F0 FF FF  7F F0 FF FF 7F 77 31 31  glE..........w11
0650: 33 10 80 5B 3A 80 7B 93  08 01 7B 93 08 01 79 72  3..[:.{...{...yr
0660: 6F 30 03 02 10 3B 80 27  10 9B 92 08 01 01 2B 7B  o0...;.'......+{
0670: 93 08 01 3C 80 23 2A 10  9B 92 08 01 01 08 08 02  ...<.#*.........
0680: 00 10 1D 80 00 3C 07 6E  F0 FF FF 7F 3D 80 99 F0  .....<.n....=...
0690: FF FF 7F 1C 39 80 52 0F  80 F0 FF FF 7F F0 FF FF  ....9.R.........
06A0: 7F 77 31 68 6D 52 0F 80  F0 FF FF 7F F0 FF FF 7F  .w1hmR..........
06B0: 77 31 68 66 52 0F 80 F0  FF FF 7F F0 FF FF 7F 77  w1hfR..........w
06C0: 31 65 6D 52 0F 80 F0 FF  FF 7F F0 FF FF 7F 77 31  1emR..........w1
06D0: 65 66 52 0F 80 F0 FF FF  7F F0 FF FF 7F 77 31 74  efR..........w1t
06E0: 72 52 0F 80 F0 FF FF 7F  F0 FF FF 7F 77 31 6D 74  rR..........w1mt
06F0: 52 0F 80 F0 FF FF 7F F0  FF FF 7F 77 31 67 6C 45  R..........w1glE
0700: 0F 80 F0 FF FF 7F F0 FF  FF 7F 77 31 31 33 10 80  ..........w113..
0710: 5B 19 80 7B 93 08 01 7B  93 08 01 74 68 61 30 03  [..{...{...tha0.
0720: 02 10 16 80 27 10 9B 92  08 01 01 2B 7B 93 08 01  ....'......+{...
0730: 3E 80 23 2A 10 9B 92 08  01 01 08 08 02 00 10 1E  >.#*............
0740: 80 00 08 08 6E F0 FF FF  7F 3F 80 99 F0 FF FF 7F  ....n....?......
0750: 1C 39 80 52 0F 80 F0 FF  FF 7F F0 FF FF 7F 77 31  .9.R..........w1
0760: 68 6D 52 0F 80 F0 FF FF  7F F0 FF FF 7F 77 31 68  hmR..........w1h
0770: 66 52 0F 80 F0 FF FF 7F  F0 FF FF 7F 77 31 65 6D  fR..........w1em
0780: 52 0F 80 F0 FF FF 7F F0  FF FF 7F 77 31 65 66 52  R..........w1efR
0790: 0F 80 F0 FF FF 7F F0 FF  FF 7F 77 31 74 72 52 0F  ..........w1trR.
07A0: 80 F0 FF FF 7F F0 FF FF  7F 77 31 6D 74 52 0F 80  .........w1mtR..
07B0: F0 FF FF 7F F0 FF FF 7F  77 31 67 6C 45 0F 80 F0  ........w1glE...
07C0: FF FF 7F F0 FF FF 7F 77  31 31 33 10 80 5B 21 80  .......w113..[!.
07D0: 7B 93 08 01 7B 93 08 01  74 6C 6B 30 03 02 10 1A  {...{...tlk0....
07E0: 80 27 10 9B 92 08 01 01  2B 7B 93 08 01 40 80 23  .'......+{...@.#
07F0: 2A 10 9B 92 08 01 5B 21  80 7B 93 08 01 7B 93 08  *.....[!.{...{..
0800: 01 73 74 64 30 01 08 08  52 0F 80 F0 FF FF 7F F0  .std0...R.......
0810: FF FF 7F 77 31 31 33 45  0F 80 F0 FF FF 7F F0 FF  ...w113E........
0820: FF 7F 77 31 31 34 10 80  4A 7B 93 08 01 9C 92 08  ..w114..J{......
0830: 01 6F 76 7B 93 08 01 79  00 F0 FF FF 7F 9C 92 08  .ov{...y........
0840: 01 2B 7B 93 08 01 41 80  23 5B 42 80 7B 93 08 01  .+{...A.#[B.{...
0850: 7B 93 08 01 72 73 74 64  1C 43 80 2B 7B 93 08 01  {...rstd.C.+{...
0860: 44 80 23 52 0F 80 F0 FF  FF 7F F0 FF FF 7F 77 31  D.#R..........w1
0870: 31 34 45 0F 80 F0 FF FF  7F F0 FF FF 7F 77 31 31  14E..........w11
0880: 35 10 80 1C 0D 80 2B 7B  93 08 01 45 80 23 52 0F  5.....+{...E.#R.
0890: 80 F0 FF FF 7F F0 FF FF  7F 77 31 31 35 45 0F 80  .........w115E..
08A0: F0 FF FF 7F F0 FF FF 7F  77 31 31 36 10 80 79 00  ........w116..y.
08B0: 7B 93 08 01 F0 FF FF 7F  1C 39 80 48 46 80 52 0F  {........9.HF.R.
08C0: 80 F0 FF FF 7F F0 FF FF  7F 77 31 31 36 45 0F 80  .........w116E..
08D0: F0 FF FF 7F F0 FF FF 7F  77 31 31 37 10 80 79 00  ........w117..y.
08E0: F0 FF FF 7F 7B 93 08 01  1C 0D 80 79 00 7B 93 08  ....{......y.{..
08F0: 01 9C 92 08 01 1C 11 80  24 47 80 10 80 10 80 25  ........$G.....%
0900: 02 00 10 1D 80 00 35 09  79 00 7B 93 08 01 F0 FF  ......5.y.{.....
0910: FF 7F 1C 0D 80 2B 7B 93  08 01 48 80 23 2B 7B 93  .....+{...H.#+{.
0920: 08 01 49 80 23 79 00 7B  93 08 01 9C 92 08 01 01  ..I.#y.{........
0930: F8 08 01 35 09 29 10 F0  FF FF 7F 12 5B 42 80 7B  ...5.)......[B.{
0940: 93 08 01 7B 93 08 01 6E  73 74 64 4A 7B 93 08 01  ...{...nstdJ{...
0950: F0 FF FF 7F 2B 7B 93 08  01 4A 80 23 6F 76 7B 93  ....+{...J.#ov{.
0960: 08 01 52 0F 80 F0 FF FF  7F F0 FF FF 7F 77 31 31  ..R..........w11
0970: 37 45 0F 80 F0 FF FF 7F  F0 FF FF 7F 77 31 31 38  7E..........w118
0980: 10 80 7B 7B 93 08 01 5B  19 80 7B 93 08 01 7B 93  ..{{...[..{...{.
0990: 08 01 74 68 61 30 03 02  10 16 80 27 10 9B 92 08  ..tha0.....'....
09A0: 01 01 2B 7B 93 08 01 4B  80 23 2A 10 9B 92 08 01  ..+{...K.#*.....
09B0: 5B 21 80 7B 93 08 01 7B  93 08 01 68 61 70 30 2B  [!.{...{...hap0+
09C0: 7B 93 08 01 4C 80 23 2B  7B 93 08 01 4D 80 23 5B  {...L.#+{...M.#[
09D0: 21 80 7B 93 08 01 7B 93  08 01 73 74 64 30 1C 0D  !.{...{...std0..
09E0: 80 52 0F 80 F0 FF FF 7F  F0 FF FF 7F 77 31 31 38  .R..........w118
09F0: 45 0F 80 F0 FF FF 7F F0  FF FF 7F 77 31 31 39 10  E..........w119.
0A00: 80 24 4E 80 10 80 10 80  25 02 00 10 10 80 00 8F  .$N.....%.......
0A10: 0A 6E F0 FF FF 7F 34 80  99 F0 FF FF 7F 1C 43 80  .n....4.......C.
0A20: 52 0F 80 F0 FF FF 7F F0  FF FF 7F 77 31 31 39 45  R..........w119E
0A30: 0F 80 F0 FF FF 7F F0 FF  FF 7F 77 31 32 30 10 80  ..........w120..
0A40: 5B 19 80 7B 93 08 01 7B  93 08 01 70 6E 74 30 03  [..{...{...pnt0.
0A50: 02 10 16 80 27 10 9B 92  08 01 01 2B 7B 93 08 01  ....'......+{...
0A60: 4F 80 23 2A 10 9B 92 08  01 52 0F 80 F0 FF FF 7F  O.#*.....R......
0A70: F0 FF FF 7F 77 31 32 30  45 0F 80 F0 FF FF 7F F0  ....w120E.......
0A80: FF FF 7F 77 31 31 39 10  80 01 01 0A 01 8F 0A 52  ...w119........R
0A90: 0F 80 F0 FF FF 7F F0 FF  FF 7F 77 31 31 39 45 0F  ..........w119E.
0AA0: 80 F0 FF FF 7F F0 FF FF  7F 77 31 32 31 10 80 5B  .........w121..[
0AB0: 21 80 7B 93 08 01 7B 93  08 01 74 6C 6B 30 2B 7B  !.{...{...tlk0+{
0AC0: 93 08 01 50 80 23 03 02  10 51 80 2B 7B 93 08 01  ...P.#...Q.+{...
0AD0: 52 80 23 52 0F 80 F0 FF  FF 7F F0 FF FF 7F 77 31  R.#R..........w1
0AE0: 32 31 45 0F 80 F0 FF FF  7F F0 FF FF 7F 77 31 32  21E..........w12
0AF0: 32 10 80 5B 21 80 7B 93  08 01 7B 93 08 01 73 74  2..[!.{...{...st
0B00: 64 30 1C 0D 80 2B 7B 93  08 01 53 80 23 5B 19 80  d0...+{...S.#[..
0B10: 7B 93 08 01 7B 93 08 01  74 68 62 30 03 02 10 16  {...{...thb0....
0B20: 80 27 10 9B 92 08 01 01  2B 7B 93 08 01 54 80 23  .'......+{...T.#
0B30: 52 0F 80 F0 FF FF 7F F0  FF FF 7F 77 31 32 32 45  R..........w122E
0B40: 0F 80 F0 FF FF 7F F0 FF  FF 7F 77 31 32 33 10 80  ..........w123..
0B50: 2B 7B 93 08 01 55 80 23  2A 10 9B 92 08 01 03 02  +{...U.#*.......
0B60: 10 51 80 5B 19 80 7B 93  08 01 7B 93 08 01 74 68  .Q.[..{...{...th
0B70: 62 31 2B 7B 93 08 01 56  80 23 1C 1F 80 23 06 01  b1+{...V.#...#..
0B80: 00 03 02 10 51 80 24 57  80 10 80 10 80 25 02 00  ....Q.$W.....%..
0B90: 10 1D 80 00 EC 0B 02 01  00 10 80 00 DE 0B 52 0F  ..............R.
0BA0: 80 F0 FF FF 7F F0 FF FF  7F 77 31 32 33 45 0F 80  .........w123E..
0BB0: F0 FF FF 7F F0 FF FF 7F  77 31 32 34 10 80 05 01  ........w124....
0BC0: 00 5B 24 80 7B 93 08 01  7B 93 08 01 67 61 6B 30  .[$.{...{...gak0
0BD0: 1C 1A 80 2B 7B 93 08 01  58 80 1C 1A 80 23 2B 7B  ...+{...X....#+{
0BE0: 93 08 01 59 80 23 01 81  0B 01 EC 0B 52 0F 80 F0  ...Y.#......R...
0BF0: FF FF 7F F0 FF FF 7F 77  31 32 33 52 0F 80 F0 FF  .......w123R....
0C00: FF 7F F0 FF FF 7F 77 31  32 34 45 0F 80 F0 FF FF  ......w124E.....
0C10: 7F F0 FF FF 7F 77 31 32  35 10 80 02 01 00 1D 80  .....w125.......
0C20: 00 32 0C 5B 24 80 7B 93  08 01 7B 93 08 01 67 61  .2.[$.{...{...ga
0C30: 6B 31 29 10 F0 FF FF 7F  16 03 01 10 5A 80 43 00  k1).........Z.C.
0C40: 43 01 02 09 10 51 80 04  55 0C 2B 7B 93 08 01 5B  C....Q..U.+{...[
0C50: 80 23 01 7C 0C 5B 19 80  7B 93 08 01 7B 93 08 01  .#.|.[..{...{...
0C60: 74 68 61 30 2B 7B 93 08  01 5C 80 23 2B 7B 93 08  tha0+{...\.#+{..
0C70: 01 5D 80 23 03 01 10 5E  80 01 70 0D 52 0F 80 F0  .].#...^..p.R...
0C80: FF FF 7F F0 FF FF 7F 77  31 32 35 45 0F 80 F0 FF  .......w125E....
0C90: FF 7F F0 FF FF 7F 77 31  32 36 10 80 5B 21 80 7B  ......w126..[!.{
0CA0: 93 08 01 7B 93 08 01 6B  72 75 30 1C 39 80 C5 5F  ...{...kru0.9.._
0CB0: 80 7B 93 08 01 7B 93 08  01 6D 61 69 6E 10 80 1C  .{...{...main...
0CC0: 3B 80 1A B4 12 1C 0D 80  6B 69 64 6C 30 7B 93 08  ;.......kidl0{..
0CD0: 01 52 0F 80 F0 FF FF 7F  F0 FF FF 7F 77 31 32 36  .R..........w126
0CE0: 45 0F 80 F0 FF FF 7F F0  FF FF 7F 77 31 32 37 10  E..........w127.
0CF0: 80 1A 93 12 1C 1A 80 5B  3A 80 7B 93 08 01 7B 93  .......[:.{...{.
0D00: 08 01 70 61 73 30 03 02  10 3B 80 27 10 9B 92 08  ..pas0...;.'....
0D10: 01 01 2B 7B 93 08 01 60  80 23 2A 10 9B 92 08 01  ..+{...`.#*.....
0D20: 2B 7B 93 08 01 61 80 23  52 0F 80 F0 FF FF 7F F0  +{...a.#R.......
0D30: FF FF 7F 77 31 32 37 45  0F 80 F0 FF FF 7F F0 FF  ...w127E........
0D40: FF 7F 77 31 32 38 10 80  1C 0D 80 4A F0 FF FF 7F  ..w128.....J....
0D50: 9C 92 08 01 5B 19 80 7B  93 08 01 7B 93 08 01 77  ....[..{...{...w
0D60: 61 76 30 2B 7B 93 08 01  62 80 23 03 01 10 5A 80  av0+{...b.#...Z.
0D70: 1A 72 12 1C 0D 80 52 0F  80 F0 FF FF 7F F0 FF FF  .r....R.........
0D80: 7F 77 31 32 38 45 0F 80  F8 FF FF 7F F8 FF FF 7F  .w128E..........
0D90: 30 62 6C 66 10 80 46 00  45 63 80 F0 FF FF 7F F0  0blf..F.Ec......
0DA0: FF FF 7F 66 64 69 32 10  80 21 00                 ...fdi2..!.     
```

#### Opcodes

```
  0: 0x0001 [0x42] SET_CLI_EVENT_CANCEL_DATA()
  1: 0x0002 [0x1A] CALL_SUBROUTINE(address=0x1272)
  2: 0x0005 [0x46] CAMERA_CONTROL: Disable user control
  3: 0x0007 [0x38] SET_CLIENT_EVENT_MODE(mode=19*)
  4: 0x000A [0x27] REQ_SET(priority=0x10, entity_id=Kupofried (ID: 17339259/0x0108937B), tag_num=0x02)
  5: 0x0011 [0x4E] SET_ENTITY_HIDE_FLAG: Show Unnamed NPC (ID: 17339036/0x0108929C)
  6: 0x0017 [0x92] Kupofried (ID: 17339259/0x0108937B)->Render.Flags3 ^= 0x01
  7: 0x001D [0x94] LocalPlayer->Render.Flags3 ^= 0x01
  8: 0x0023 [0x94] Kupofried (ID: 17339259/0x0108937B)->Render.Flags3 ^= 0x01
  9: 0x0029 [0x94] Unnamed NPC (ID: 17339036/0x0108929C)->Render.Flags3 ^= 0x01
 10: 0x002F [0xBA] SET_ENTITY_POSITION(entity_id=LocalPlayer, pos_x=239.478*, pos_z=-246.371*, pos_y=-8.119*, direction=95.4°*)
 11: 0x003C [0xBA] SET_ENTITY_POSITION(entity_id=Kupofried (ID: 17339259/0x0108937B), pos_x=229.844*, pos_z=-248.024*, pos_y=-9.786*, direction=352.9°*)
 12: 0x0049 [0x59] UPDATE_ENTITY_DATA: Unnamed NPC (ID: 17339036/0x0108929C)->Render.Flags0 |= 0x200000
 13: 0x0050 [0xBA] SET_ENTITY_POSITION(entity_id=Unnamed NPC (ID: 17339036/0x0108929C), pos_x=239.183*, pos_z=-248.447*, pos_y=-15.337*, direction=280.1°*)
 14: 0x005D [0x80] LOAD_WAIT(entity=LocalPlayer)
 15: 0x0062 [0x80] LOAD_WAIT(entity=Kupofried (ID: 17339259/0x0108937B))
 16: 0x0067 [0x80] LOAD_WAIT(entity=Veridical Conflux (ID: 17339257/0x01089379))
 17: 0x006C [0x1C] WAIT(30* ticks)
 18: 0x006F [0x5C] MUSIC_CONTROL: Set Idle (Day) music to song 42*
 19: 0x0073 [0x5C] MUSIC_CONTROL: Set Idle (Night) music to song 42*
 20: 0x0077 [0x9A] WAIT_MUSIC_SERVER()
 21: 0x0078 [0x45] LOAD_SCHEDULED_TASK: Load scheduler "w100" with entities [LocalPlayer, LocalPlayer], work=[487*, 0*]
 22: 0x0089 [0x1A] CALL_SUBROUTINE(address=0x1251)
 23: 0x008C [0x79] LocalPlayer looks at Unnamed NPC (ID: 17339036/0x0108929C) (Basic look)
 24: 0x0096 [0x1C] WAIT(120* ticks)
 25: 0x0099 [0x52] END_LOAD_SCHEDULER: End scheduler "w100" with entities [LocalPlayer, LocalPlayer], work=487*
 26: 0x00A8 [0x45] LOAD_SCHEDULED_TASK: Load scheduler "w101" with entities [LocalPlayer, LocalPlayer], work=[487*, 0*]
 27: 0x00B9 [0x2B] ??? (ID: 17339035/0x0108929B) [8615*]:
    → "That it could be visible to another... A fabulously fascinating phenomenon, kupo."
 28: 0x00C0 [0x1C] WAIT(30* ticks)
 29: 0x00C3 [0xBB] LOAD_EVENT_SCHEDULER_ALT: Load scheduler "main" with entities [Kupofried (ID: 17339259/0x0108937B), Kupofried (ID: 17339259/0x0108937B)], work=[121*, 0*]
 30: 0x00D4 [0x1C] WAIT(15* ticks)
 31: 0x00D7 [0x4A] LocalPlayer looks at Kupofried (ID: 17339259/0x0108937B)
 32: 0x00E0 [0x6F] WAIT_FRAME_DELAY: Yield until WaitTime reaches zero
 33: 0x00E1 [0x76] CHECK_ENTITY_RENDER_FLAGS: Wait until LocalPlayer Render.Flags0 and Render.Flags3 conditions are met
 34: 0x00E6 [0x23] WAIT_FOR_DIALOG_INTERACTION
 35: 0x00E7 [0x52] END_LOAD_SCHEDULER: End scheduler "w101" with entities [LocalPlayer, LocalPlayer], work=487*
 36: 0x00F6 [0x45] LOAD_SCHEDULED_TASK: Load scheduler "w102" with entities [LocalPlayer, LocalPlayer], work=[487*, 0*]
 37: 0x0107 [0x5B] LOAD_EXT_SCHEDULER: Load scheduler "oji0" with entities [Kupofried (ID: 17339259/0x0108937B), Kupofried (ID: 17339259/0x0108937B)], work=2642*
 38: 0x0116 [0x03] Work_Zone[2] = 160*
 39: 0x011B [0x27] REQ_SET(priority=0x10, entity_id=??? (ID: 17339035/0x0108929B), tag_num=0x01)
 40: 0x0122 [0x2B] Kupofried (ID: 17339259/0x0108937B) [8616*]:
    → "Ah, but I forget myself. Pray allow me the pleasure of a self-introduction. I am Kupofried, a simple moogle beckoned hither by the enormous energy emanating from that floating column of stones, kupo."
 41: 0x0129 [0x23] WAIT_FOR_DIALOG_INTERACTION
 42: 0x012A [0x2A] GET_REQ_LEVEL(level=16, entity_id=??? (ID: 17339035/0x0108929B))
 43: 0x0130 [0x52] END_LOAD_SCHEDULER: End scheduler "w102" with entities [LocalPlayer, LocalPlayer], work=487*
 44: 0x013F [0x45] LOAD_SCHEDULED_TASK: Load scheduler "w103" with entities [LocalPlayer, LocalPlayer], work=[487*, 0*]
 45: 0x0150 [0x27] REQ_SET(priority=0x10, entity_id=Kupofried (ID: 17339259/0x0108937B), tag_num=0x0A)
 46: 0x0157 [0x2B] Kupofried (ID: 17339259/0x0108937B) [8617*]:
    → "Hmmm... But now I do wonder whether 'twas in sooth to thee that I was drawn. For from thee permeateth a peculiar power--one at once distinct and familiar..."
 47: 0x015E [0x23] WAIT_FOR_DIALOG_INTERACTION
 48: 0x015F [0x2A] GET_REQ_LEVEL(level=16, entity_id=Kupofried (ID: 17339259/0x0108937B))
 49: 0x0165 [0x52] END_LOAD_SCHEDULER: End scheduler "w103" with entities [LocalPlayer, LocalPlayer], work=487*
 50: 0x0174 [0x45] LOAD_SCHEDULED_TASK: Load scheduler "w105" with entities [LocalPlayer, LocalPlayer], work=[487*, 0*]
 51: 0x0185 [0x79] Kupofried (ID: 17339259/0x0108937B) looks at Kupofried (ID: 17339259/0x0108937B) (Basic look)
 52: 0x018F [0x5B] LOAD_EXT_SCHEDULER: Load scheduler "thb0" with entities [Kupofried (ID: 17339259/0x0108937B), Kupofried (ID: 17339259/0x0108937B)], work=2647*
 53: 0x019E [0x03] Work_Zone[2] = 120*
 54: 0x01A3 [0x27] REQ_SET(priority=0x10, entity_id=??? (ID: 17339035/0x0108929B), tag_num=0x01)
 55: 0x01AA [0x1C] WAIT(60* ticks)
 56: 0x01AD [0x2B] Kupofried (ID: 17339259/0x0108937B) [8618*]:
    → "The power of which I speak is that of magical tablets I created of old. The amazement of this discovery is such that I must repeat mine earlier words: a fabulously fascinating phenomenon, kupo."
 57: 0x01B4 [0x23] WAIT_FOR_DIALOG_INTERACTION
 58: 0x01B5 [0x2A] GET_REQ_LEVEL(level=16, entity_id=Kupofried (ID: 17339259/0x0108937B))
 59: 0x01BB [0x06] ExtData[1]->WorkLocal[1] = 0
 60: 0x01BE [0x03] ExtData[1]->WorkLocal[2] = 0*
 61: 0x01C3 [0x52] END_LOAD_SCHEDULER: End scheduler "w105" with entities [LocalPlayer, LocalPlayer], work=487*
 62: 0x01D2 [0x45] LOAD_SCHEDULED_TASK: Load scheduler "w104" with entities [LocalPlayer, LocalPlayer], work=[487*, 0*]
 63: 0x01E3 [0x24] CREATE_DIALOG(message_id=8619*, default_option=0*, option_flags=ExtData[1]->WorkLocal[2])
    → "What will you ask? [Who are you, exactly?/Tablets? Of moogle persuasion?]"
 64: 0x01EA [0x25] WAIT_DIALOG_SELECT()
 65: 0x01EB [0x02] IF !(Work_Zone[0] == 1*) GOTO 0x022A
 66: 0x01F3 [0x29] REQ_SET_WAIT(priority=0x10, entity_id=LocalPlayer, tag_num=0x12)
 67: 0x01FA [0x02] IF !(ExtData[1]->WorkLocal[1] == 0*) GOTO 0x021C
 68: 0x0202 [0x03] ExtData[1]->WorkLocal[2] = 2*
 69: 0x0207 [0x05] ExtData[1]->WorkLocal[1] = 1
 70: 0x020A [0x5B] LOAD_EXT_SCHEDULER: Load scheduler "thb1" with entities [Kupofried (ID: 17339259/0x0108937B), Kupofried (ID: 17339259/0x0108937B)], work=2647*
 71: 0x0219 [0x1C] WAIT(40* ticks)
 72: 0x021C [0x2B] Kupofried (ID: 17339259/0x0108937B) [8620*]:
    → "Thou knowest of the mog tablets? Strange, as I can sense not their presence in this plane, kupo. For a certainty, thou art no ordinary [man/woman]..."
 73: 0x0223 [0x23] WAIT_FOR_DIALOG_INTERACTION
 74: 0x0224 [0x01] GOTO 0x01E3

SUBROUTINE_022A:
 75: 0x022A [0x52] END_LOAD_SCHEDULER: End scheduler "w104" with entities [LocalPlayer, LocalPlayer], work=487*
 76: 0x0239 [0x45] LOAD_SCHEDULED_TASK: Load scheduler "w106" with entities [LocalPlayer, LocalPlayer], work=[487*, 0*]
 77: 0x024A [0x29] REQ_SET_WAIT(priority=0x10, entity_id=LocalPlayer, tag_num=0x12)
 78: 0x0251 [0x02] IF !(ExtData[1]->WorkLocal[1] == 0*) GOTO 0x0271
 79: 0x0259 [0x05] ExtData[1]->WorkLocal[1] = 1
 80: 0x025C [0x5B] LOAD_EXT_SCHEDULER: Load scheduler "thb1" with entities [Kupofried (ID: 17339259/0x0108937B), Kupofried (ID: 17339259/0x0108937B)], work=2647*
 81: 0x026B [0x1C] WAIT(40* ticks)
 82: 0x026E [0x01] GOTO 0x0280
 83: 0x0271 [0x5B] LOAD_EXT_SCHEDULER: Load scheduler "tlk0" with entities [Kupofried (ID: 17339259/0x0108937B), Kupofried (ID: 17339259/0x0108937B)], work=2636*

SUBROUTINE_0280:
 84: 0x0280 [0x2B] Kupofried (ID: 17339259/0x0108937B) [8621*]:
    → "As I mentioned merely moments ago, I am known as Kupofried. My sworn duty is to watch over the world's welfare from afar..."
 85: 0x0287 [0x23] WAIT_FOR_DIALOG_INTERACTION
 86: 0x0288 [0x7B] Kupofried (ID: 17339259/0x0108937B) stops talking
 87: 0x028D [0x5B] LOAD_EXT_SCHEDULER: Load scheduler "std0" with entities [Kupofried (ID: 17339259/0x0108937B), Kupofried (ID: 17339259/0x0108937B)], work=2636*
 88: 0x029C [0x2B] Kupofried (ID: 17339259/0x0108937B) [8622*]:
    → "Thy doubt-laden eyes... They say unto me "spare me the jests, kupo!""
 89: 0x02A3 [0x1C] WAIT(40* ticks)
 90: 0x02A6 [0x23] WAIT_FOR_DIALOG_INTERACTION
 91: 0x02A7 [0x5B] LOAD_EXT_SCHEDULER: Load scheduler "gak0" with entities [Kupofried (ID: 17339259/0x0108937B), Kupofried (ID: 17339259/0x0108937B)], work=2643*
 92: 0x02B6 [0x03] Work_Zone[2] = 120*
 93: 0x02BB [0x27] REQ_SET(priority=0x10, entity_id=??? (ID: 17339035/0x0108929B), tag_num=0x01)
 94: 0x02C2 [0x1C] WAIT(60* ticks)
 95: 0x02C5 [0x2B] Kupofried (ID: 17339259/0x0108937B) [8623*]:
    → "<Sigh>... Oh, the river of time doth flow furious and fleet..."
 96: 0x02CC [0x23] WAIT_FOR_DIALOG_INTERACTION
 97: 0x02CD [0x52] END_LOAD_SCHEDULER: End scheduler "w106" with entities [LocalPlayer, LocalPlayer], work=487*
 98: 0x02DC [0x45] LOAD_SCHEDULED_TASK: Load scheduler "w107" with entities [LocalPlayer, LocalPlayer], work=[487*, 0*]
 99: 0x02ED [0x2B] Kupofried (ID: 17339259/0x0108937B) [8624*]:
    → "Why, but eons ago mine was still a name revered across the realms of men, kupo!"
100: 0x02F4 [0x23] WAIT_FOR_DIALOG_INTERACTION
101: 0x02F5 [0x2A] GET_REQ_LEVEL(level=16, entity_id=??? (ID: 17339035/0x0108929B))
102: 0x02FB [0x52] END_LOAD_SCHEDULER: End scheduler "w107" with entities [LocalPlayer, LocalPlayer], work=487*
103: 0x030A [0x45] LOAD_SCHEDULED_TASK: Load scheduler "w108" with entities [LocalPlayer, LocalPlayer], work=[487*, 0*]
104: 0x031B [0x5B] LOAD_EXT_SCHEDULER: Load scheduler "gak1" with entities [Kupofried (ID: 17339259/0x0108937B), Kupofried (ID: 17339259/0x0108937B)], work=2643*
105: 0x032A [0x03] Work_Zone[2] = 80*
106: 0x032F [0x27] REQ_SET(priority=0x10, entity_id=??? (ID: 17339035/0x0108929B), tag_num=0x01)
107: 0x0336 [0x1C] WAIT(30* ticks)
108: 0x0339 [0x2B] Kupofried (ID: 17339259/0x0108937B) [8625*]:
    → "Though that is not to claim that I'm possessed of potent power. For truly, the seed of greatness doth lie within us all, awaiting the opportunity to sprout forth."
109: 0x0340 [0x23] WAIT_FOR_DIALOG_INTERACTION
110: 0x0341 [0x2A] GET_REQ_LEVEL(level=16, entity_id=??? (ID: 17339035/0x0108929B))
111: 0x0347 [0x5B] LOAD_EXT_SCHEDULER: Load scheduler "hap0" with entities [Kupofried (ID: 17339259/0x0108937B), Kupofried (ID: 17339259/0x0108937B)], work=2636*
112: 0x0356 [0x2B] Kupofried (ID: 17339259/0x0108937B) [8626*]:
    → "But let us not dwell on the past. After all, kupo, 'tis the future that deserveth our attention."
113: 0x035D [0x23] WAIT_FOR_DIALOG_INTERACTION
114: 0x035E [0x79] Kupofried (ID: 17339259/0x0108937B) looks at Unnamed NPC (ID: 17339036/0x0108929C) (Basic look)
115: 0x0368 [0x2B] Kupofried (ID: 17339259/0x0108937B) [8627*]:
    → "...Much like the mysterious stones floating enticingly before thee. Thou canst see them, yes?"
116: 0x036F [0x1C] WAIT(30* ticks)
117: 0x0372 [0x79] LocalPlayer looks at Unnamed NPC (ID: 17339036/0x0108929C) (Basic look)
118: 0x037C [0x23] WAIT_FOR_DIALOG_INTERACTION
119: 0x037D [0x52] END_LOAD_SCHEDULER: End scheduler "w108" with entities [LocalPlayer, LocalPlayer], work=487*
120: 0x038C [0x45] LOAD_SCHEDULED_TASK: Load scheduler "w109" with entities [LocalPlayer, LocalPlayer], work=[487*, 0*]
121: 0x039D [0x1C] WAIT(30* ticks)
122: 0x03A0 [0x7B] Kupofried (ID: 17339259/0x0108937B) stops talking
123: 0x03A5 [0x5B] LOAD_EXT_SCHEDULER: Load scheduler "std0" with entities [Kupofried (ID: 17339259/0x0108937B), Kupofried (ID: 17339259/0x0108937B)], work=2636*
124: 0x03B4 [0x1C] WAIT(30* ticks)
125: 0x03B7 [0x24] CREATE_DIALOG(message_id=8628*, default_option=0*, option_flags=0*)
    → "Can you see the stones? [I see nothing but snow./As clear as day.]"
126: 0x03BE [0x25] WAIT_DIALOG_SELECT()
127: 0x03BF [0x02] IF !(Work_Zone[0] == 0*) GOTO 0x0413
128: 0x03C7 [0x52] END_LOAD_SCHEDULER: End scheduler "w109" with entities [LocalPlayer, LocalPlayer], work=487*
129: 0x03D6 [0x45] LOAD_SCHEDULED_TASK: Load scheduler "w110" with entities [LocalPlayer, LocalPlayer], work=[487*, 0*]
130: 0x03E7 [0x5B] LOAD_EXT_SCHEDULER: Load scheduler "pnt0" with entities [Kupofried (ID: 17339259/0x0108937B), Kupofried (ID: 17339259/0x0108937B)], work=2647*
131: 0x03F6 [0x03] Work_Zone[2] = 160*
132: 0x03FB [0x27] REQ_SET(priority=0x10, entity_id=??? (ID: 17339035/0x0108929B), tag_num=0x01)
133: 0x0402 [0x2B] Kupofried (ID: 17339259/0x0108937B) [8629*]:
    → "Tsk-tsk. Lies are flimsy things against my wisdom of eons, kupo. Well do we both know that the column of stones--the "veridical conflux"--is visible to thee."
134: 0x0409 [0x23] WAIT_FOR_DIALOG_INTERACTION
135: 0x040A [0x2A] GET_REQ_LEVEL(level=16, entity_id=??? (ID: 17339035/0x0108929B))
136: 0x0410 [0x01] GOTO 0x0413

SUBROUTINE_0413:
137: 0x0413 [0x52] END_LOAD_SCHEDULER: End scheduler "w109" with entities [LocalPlayer, LocalPlayer], work=487*
138: 0x0422 [0x52] END_LOAD_SCHEDULER: End scheduler "w110" with entities [LocalPlayer, LocalPlayer], work=487*
139: 0x0431 [0x45] LOAD_SCHEDULED_TASK: Load scheduler "w111" with entities [LocalPlayer, LocalPlayer], work=[487*, 0*]
140: 0x0442 [0x5B] LOAD_EXT_SCHEDULER: Load scheduler "tlk0" with entities [Kupofried (ID: 17339259/0x0108937B), Kupofried (ID: 17339259/0x0108937B)], work=2636*
141: 0x0451 [0x2B] Kupofried (ID: 17339259/0x0108937B) [8630*]:
    → "Its existential phase is attuned not to this world, thus causing it to be veiled from ordinary eyes."
142: 0x0458 [0x23] WAIT_FOR_DIALOG_INTERACTION
143: 0x0459 [0x5B] LOAD_EXT_SCHEDULER: Load scheduler "thb0" with entities [Kupofried (ID: 17339259/0x0108937B), Kupofried (ID: 17339259/0x0108937B)], work=2647*
144: 0x0468 [0x03] Work_Zone[2] = 160*
145: 0x046D [0x27] REQ_SET(priority=0x10, entity_id=??? (ID: 17339035/0x0108929B), tag_num=0x01)
146: 0x0474 [0x2B] Kupofried (ID: 17339259/0x0108937B) [8631*]:
    → "Though not from thine, evidently."
147: 0x047B [0x23] WAIT_FOR_DIALOG_INTERACTION
148: 0x047C [0x5B] LOAD_EXT_SCHEDULER: Load scheduler "thb1" with entities [Kupofried (ID: 17339259/0x0108937B), Kupofried (ID: 17339259/0x0108937B)], work=2647*
149: 0x048B [0x52] END_LOAD_SCHEDULER: End scheduler "w111" with entities [LocalPlayer, LocalPlayer], work=487*
150: 0x049A [0x45] LOAD_SCHEDULED_TASK: Load scheduler "w112" with entities [LocalPlayer, LocalPlayer], work=[487*, 0*]
151: 0x04AB [0x2B] Kupofried (ID: 17339259/0x0108937B) [8632*]:
    → "Kupositively curious..."
152: 0x04B2 [0x23] WAIT_FOR_DIALOG_INTERACTION
153: 0x04B3 [0x4A] LocalPlayer looks at Kupofried (ID: 17339259/0x0108937B)
154: 0x04BC [0x2B] Kupofried (ID: 17339259/0x0108937B) [8633*]:
    → "To put it plain, the conflux is a gateway--one that linketh this world to a distant domain, kupo!"
155: 0x04C3 [0x23] WAIT_FOR_DIALOG_INTERACTION
156: 0x04C4 [0x52] END_LOAD_SCHEDULER: End scheduler "w112" with entities [LocalPlayer, LocalPlayer], work=487*
157: 0x04D3 [0x29] REQ_SET_WAIT(priority=0x10, entity_id=LocalPlayer, tag_num=0x04)
158: 0x04DA [0x02] IF !(Work_Zone[2] == 1*) GOTO 0x04F6
159: 0x04E2 [0x45] LOAD_SCHEDULED_TASK: Load scheduler "w1hm" with entities [LocalPlayer, LocalPlayer], work=[487*, 0*]
160: 0x04F3 [0x01] GOTO 0x05BA
161: 0x04F6 [0x02] IF !(Work_Zone[2] == 2*) GOTO 0x0512
162: 0x04FE [0x45] LOAD_SCHEDULED_TASK: Load scheduler "w1hf" with entities [LocalPlayer, LocalPlayer], work=[487*, 0*]
163: 0x050F [0x01] GOTO 0x05BA
164: 0x0512 [0x02] IF !(Work_Zone[2] == 3*) GOTO 0x052E
165: 0x051A [0x45] LOAD_SCHEDULED_TASK: Load scheduler "w1em" with entities [LocalPlayer, LocalPlayer], work=[487*, 0*]
166: 0x052B [0x01] GOTO 0x05BA
167: 0x052E [0x02] IF !(Work_Zone[2] == 4*) GOTO 0x054A
168: 0x0536 [0x45] LOAD_SCHEDULED_TASK: Load scheduler "w1ef" with entities [LocalPlayer, LocalPlayer], work=[487*, 0*]
169: 0x0547 [0x01] GOTO 0x05BA
170: 0x054A [0x02] IF !(Work_Zone[2] == 5*) GOTO 0x0566
171: 0x0552 [0x45] LOAD_SCHEDULED_TASK: Load scheduler "w1tr" with entities [LocalPlayer, LocalPlayer], work=[487*, 0*]
172: 0x0563 [0x01] GOTO 0x05BA
173: 0x0566 [0x02] IF !(Work_Zone[2] == 6*) GOTO 0x0582
174: 0x056E [0x45] LOAD_SCHEDULED_TASK: Load scheduler "w1tr" with entities [LocalPlayer, LocalPlayer], work=[487*, 0*]
175: 0x057F [0x01] GOTO 0x05BA
176: 0x0582 [0x02] IF !(Work_Zone[2] == 7*) GOTO 0x059E
177: 0x058A [0x45] LOAD_SCHEDULED_TASK: Load scheduler "w1mt" with entities [LocalPlayer, LocalPlayer], work=[487*, 0*]
178: 0x059B [0x01] GOTO 0x05BA
179: 0x059E [0x02] IF !(Work_Zone[2] == 8*) GOTO 0x05BA
180: 0x05A6 [0x45] LOAD_SCHEDULED_TASK: Load scheduler "w1gl" with entities [LocalPlayer, LocalPlayer], work=[487*, 0*]
181: 0x05B7 [0x01] GOTO 0x05BA

SUBROUTINE_05BA:
182: 0x05BA [0x24] CREATE_DIALOG(message_id=8634*, default_option=0*, option_flags=0*)
    → "How will you respond? [For true!?/A gateway?/...]"
183: 0x05C1 [0x25] WAIT_DIALOG_SELECT()
184: 0x05C2 [0x02] IF !(Work_Zone[0] == 0*) GOTO 0x067F
185: 0x05CA [0x6E] LocalPlayer uses emote 21*
186: 0x05D1 [0x99] Wait for LocalPlayer animation to complete
187: 0x05D6 [0x1C] WAIT(90* ticks)
188: 0x05D9 [0x52] END_LOAD_SCHEDULER: End scheduler "w1hm" with entities [LocalPlayer, LocalPlayer], work=487*
189: 0x05E8 [0x52] END_LOAD_SCHEDULER: End scheduler "w1hf" with entities [LocalPlayer, LocalPlayer], work=487*
190: 0x05F7 [0x52] END_LOAD_SCHEDULER: End scheduler "w1em" with entities [LocalPlayer, LocalPlayer], work=487*
191: 0x0606 [0x52] END_LOAD_SCHEDULER: End scheduler "w1ef" with entities [LocalPlayer, LocalPlayer], work=487*
192: 0x0615 [0x52] END_LOAD_SCHEDULER: End scheduler "w1tr" with entities [LocalPlayer, LocalPlayer], work=487*
193: 0x0624 [0x52] END_LOAD_SCHEDULER: End scheduler "w1mt" with entities [LocalPlayer, LocalPlayer], work=487*
194: 0x0633 [0x52] END_LOAD_SCHEDULER: End scheduler "w1gl" with entities [LocalPlayer, LocalPlayer], work=487*
195: 0x0642 [0x45] LOAD_SCHEDULED_TASK: Load scheduler "w113" with entities [LocalPlayer, LocalPlayer], work=[487*, 0*]
196: 0x0653 [0x5B] LOAD_EXT_SCHEDULER: Load scheduler "yro0" with entities [Kupofried (ID: 17339259/0x0108937B), Kupofried (ID: 17339259/0x0108937B)], work=2755*
197: 0x0662 [0x03] Work_Zone[2] = 180*
198: 0x0667 [0x27] REQ_SET(priority=0x10, entity_id=??? (ID: 17339035/0x0108929B), tag_num=0x01)
199: 0x066E [0x2B] Kupofried (ID: 17339259/0x0108937B) [8637*]:
    → "For true, kupo!"
200: 0x0675 [0x23] WAIT_FOR_DIALOG_INTERACTION
201: 0x0676 [0x2A] GET_REQ_LEVEL(level=16, entity_id=??? (ID: 17339035/0x0108929B))
202: 0x067C [0x01] GOTO 0x0808
203: 0x067F [0x02] IF !(Work_Zone[0] == 1*) GOTO 0x073C
204: 0x0687 [0x6E] LocalPlayer uses emote 22*
205: 0x068E [0x99] Wait for LocalPlayer animation to complete
206: 0x0693 [0x1C] WAIT(90* ticks)
207: 0x0696 [0x52] END_LOAD_SCHEDULER: End scheduler "w1hm" with entities [LocalPlayer, LocalPlayer], work=487*
208: 0x06A5 [0x52] END_LOAD_SCHEDULER: End scheduler "w1hf" with entities [LocalPlayer, LocalPlayer], work=487*
209: 0x06B4 [0x52] END_LOAD_SCHEDULER: End scheduler "w1em" with entities [LocalPlayer, LocalPlayer], work=487*
210: 0x06C3 [0x52] END_LOAD_SCHEDULER: End scheduler "w1ef" with entities [LocalPlayer, LocalPlayer], work=487*
211: 0x06D2 [0x52] END_LOAD_SCHEDULER: End scheduler "w1tr" with entities [LocalPlayer, LocalPlayer], work=487*
212: 0x06E1 [0x52] END_LOAD_SCHEDULER: End scheduler "w1mt" with entities [LocalPlayer, LocalPlayer], work=487*
213: 0x06F0 [0x52] END_LOAD_SCHEDULER: End scheduler "w1gl" with entities [LocalPlayer, LocalPlayer], work=487*
214: 0x06FF [0x45] LOAD_SCHEDULED_TASK: Load scheduler "w113" with entities [LocalPlayer, LocalPlayer], work=[487*, 0*]
215: 0x0710 [0x5B] LOAD_EXT_SCHEDULER: Load scheduler "tha0" with entities [Kupofried (ID: 17339259/0x0108937B), Kupofried (ID: 17339259/0x0108937B)], work=2647*
216: 0x071F [0x03] Work_Zone[2] = 160*
217: 0x0724 [0x27] REQ_SET(priority=0x10, entity_id=??? (ID: 17339035/0x0108929B), tag_num=0x01)
218: 0x072B [0x2B] Kupofried (ID: 17339259/0x0108937B) [8636*]:
    → "Truth to tell, its appearance is rather radical, but be assured that it is a gateway."
219: 0x0732 [0x23] WAIT_FOR_DIALOG_INTERACTION
220: 0x0733 [0x2A] GET_REQ_LEVEL(level=16, entity_id=??? (ID: 17339035/0x0108929B))
221: 0x0739 [0x01] GOTO 0x0808
222: 0x073C [0x02] IF !(Work_Zone[0] == 2*) GOTO 0x0808
223: 0x0744 [0x6E] LocalPlayer uses emote 32*
224: 0x074B [0x99] Wait for LocalPlayer animation to complete
225: 0x0750 [0x1C] WAIT(90* ticks)
226: 0x0753 [0x52] END_LOAD_SCHEDULER: End scheduler "w1hm" with entities [LocalPlayer, LocalPlayer], work=487*
227: 0x0762 [0x52] END_LOAD_SCHEDULER: End scheduler "w1hf" with entities [LocalPlayer, LocalPlayer], work=487*
228: 0x0771 [0x52] END_LOAD_SCHEDULER: End scheduler "w1em" with entities [LocalPlayer, LocalPlayer], work=487*
229: 0x0780 [0x52] END_LOAD_SCHEDULER: End scheduler "w1ef" with entities [LocalPlayer, LocalPlayer], work=487*
230: 0x078F [0x52] END_LOAD_SCHEDULER: End scheduler "w1tr" with entities [LocalPlayer, LocalPlayer], work=487*
231: 0x079E [0x52] END_LOAD_SCHEDULER: End scheduler "w1mt" with entities [LocalPlayer, LocalPlayer], work=487*
232: 0x07AD [0x52] END_LOAD_SCHEDULER: End scheduler "w1gl" with entities [LocalPlayer, LocalPlayer], work=487*
233: 0x07BC [0x45] LOAD_SCHEDULED_TASK: Load scheduler "w113" with entities [LocalPlayer, LocalPlayer], work=[487*, 0*]
234: 0x07CD [0x5B] LOAD_EXT_SCHEDULER: Load scheduler "tlk0" with entities [Kupofried (ID: 17339259/0x0108937B), Kupofried (ID: 17339259/0x0108937B)], work=2636*
235: 0x07DC [0x03] Work_Zone[2] = 60*
236: 0x07E1 [0x27] REQ_SET(priority=0x10, entity_id=??? (ID: 17339035/0x0108929B), tag_num=0x01)
237: 0x07E8 [0x2B] Kupofried (ID: 17339259/0x0108937B) [8635*]:
    → "<Sigh> More enthusiasm have I seen from lathered chocobos, kupo. Anywise, as I have said, the conflux is a gateway."
238: 0x07EF [0x23] WAIT_FOR_DIALOG_INTERACTION
239: 0x07F0 [0x2A] GET_REQ_LEVEL(level=16, entity_id=??? (ID: 17339035/0x0108929B))
240: 0x07F6 [0x5B] LOAD_EXT_SCHEDULER: Load scheduler "std0" with entities [Kupofried (ID: 17339259/0x0108937B), Kupofried (ID: 17339259/0x0108937B)], work=2636*
241: 0x0805 [0x01] GOTO 0x0808

SUBROUTINE_0808:
242: 0x0808 [0x52] END_LOAD_SCHEDULER: End scheduler "w113" with entities [LocalPlayer, LocalPlayer], work=487*
243: 0x0817 [0x45] LOAD_SCHEDULED_TASK: Load scheduler "w114" with entities [LocalPlayer, LocalPlayer], work=[487*, 0*]
244: 0x0828 [0x4A] Kupofried (ID: 17339259/0x0108937B) looks at Unnamed NPC (ID: 17339036/0x0108929C)
245: 0x0831 [0x6F] WAIT_FRAME_DELAY: Yield until WaitTime reaches zero
246: 0x0832 [0x76] CHECK_ENTITY_RENDER_FLAGS: Wait until Kupofried (ID: 17339259/0x0108937B) Render.Flags0 and Render.Flags3 conditions are met
247: 0x0837 [0x79] LocalPlayer looks at Unnamed NPC (ID: 17339036/0x0108929C) (Basic look)
248: 0x0841 [0x2B] Kupofried (ID: 17339259/0x0108937B) [8638*]:
    → "And the faraway place whither it leadeth is known as the "Walk of Echoes"--a realm shrouded in mystery that hath existed since time immemorial, kupo."
249: 0x0848 [0x23] WAIT_FOR_DIALOG_INTERACTION
250: 0x0849 [0x5B] LOAD_EXT_SCHEDULER: Load scheduler "rstd" with entities [Kupofried (ID: 17339259/0x0108937B), Kupofried (ID: 17339259/0x0108937B)], work=2645*
251: 0x0858 [0x1C] WAIT(45* ticks)
252: 0x085B [0x2B] Kupofried (ID: 17339259/0x0108937B) [8639*]:
    → "The Walk of Echoes is a forbidden realm--in laymoogle's terms, a place whereto entry is forbidden. For this very reason, that this conflux existeth is beyond baffling, kupo."
253: 0x0862 [0x23] WAIT_FOR_DIALOG_INTERACTION
254: 0x0863 [0x52] END_LOAD_SCHEDULER: End scheduler "w114" with entities [LocalPlayer, LocalPlayer], work=487*
255: 0x0872 [0x45] LOAD_SCHEDULED_TASK: Load scheduler "w115" with entities [LocalPlayer, LocalPlayer], work=[487*, 0*]
256: 0x0883 [0x1C] WAIT(30* ticks)
257: 0x0886 [0x2B] Kupofried (ID: 17339259/0x0108937B) [8640*]:
    → "Whatever could lie at the root of this astonishing anomaly? While many are my theories, there is no substitute for proper investigation, kupo."
258: 0x088D [0x23] WAIT_FOR_DIALOG_INTERACTION
259: 0x088E [0x52] END_LOAD_SCHEDULER: End scheduler "w115" with entities [LocalPlayer, LocalPlayer], work=487*
260: 0x089D [0x45] LOAD_SCHEDULED_TASK: Load scheduler "w116" with entities [LocalPlayer, LocalPlayer], work=[487*, 0*]
261: 0x08AE [0x79] Kupofried (ID: 17339259/0x0108937B) looks at LocalPlayer (Basic look)
262: 0x08B8 [0x1C] WAIT(90* ticks)
263: 0x08BB [0x48] [System] [8641*]:
    → "Kupofried gazes suggestively at <Player>."
264: 0x08BE [0x52] END_LOAD_SCHEDULER: End scheduler "w116" with entities [LocalPlayer, LocalPlayer], work=487*
265: 0x08CD [0x45] LOAD_SCHEDULED_TASK: Load scheduler "w117" with entities [LocalPlayer, LocalPlayer], work=[487*, 0*]
266: 0x08DE [0x79] LocalPlayer looks at Kupofried (ID: 17339259/0x0108937B) (Basic look)
267: 0x08E8 [0x1C] WAIT(30* ticks)
268: 0x08EB [0x79] Kupofried (ID: 17339259/0x0108937B) looks at Unnamed NPC (ID: 17339036/0x0108929C) (Basic look)
269: 0x08F5 [0x1C] WAIT(120* ticks)

SUBROUTINE_08F8:
270: 0x08F8 [0x24] CREATE_DIALOG(message_id=8642*, default_option=0*, option_flags=0*)
    → "Offer a helping hand? [Sure, why not./Perhaps another time.]"
271: 0x08FF [0x25] WAIT_DIALOG_SELECT()
272: 0x0900 [0x02] IF !(Work_Zone[0] == 1*) GOTO 0x0935
273: 0x0908 [0x79] Kupofried (ID: 17339259/0x0108937B) looks at LocalPlayer (Basic look)
274: 0x0912 [0x1C] WAIT(30* ticks)
275: 0x0915 [0x2B] Kupofried (ID: 17339259/0x0108937B) [8643*]:
    → "Ah, I had neglected to mention one minor detail. 'Tis known that the Walk of Echoes is a crossroads reaching out to all realities."
276: 0x091C [0x23] WAIT_FOR_DIALOG_INTERACTION
277: 0x091D [0x2B] Kupofried (ID: 17339259/0x0108937B) [8644*]:
    → "By that logic, terrific treasures the likes of which thy world hath ne'er seen must await you there. Like ripe fruit pendulously swaying from a kuponderously o'erladen bough, you need only reach forth thy hand and pluck them."
278: 0x0924 [0x23] WAIT_FOR_DIALOG_INTERACTION
279: 0x0925 [0x79] Kupofried (ID: 17339259/0x0108937B) looks at Unnamed NPC (ID: 17339036/0x0108929C) (Basic look)
280: 0x092F [0x01] GOTO 0x08F8

SUBROUTINE_0935:
281: 0x0935 [0x29] REQ_SET_WAIT(priority=0x10, entity_id=LocalPlayer, tag_num=0x12)
282: 0x093C [0x5B] LOAD_EXT_SCHEDULER: Load scheduler "nstd" with entities [Kupofried (ID: 17339259/0x0108937B), Kupofried (ID: 17339259/0x0108937B)], work=2645*
283: 0x094B [0x4A] Kupofried (ID: 17339259/0x0108937B) looks at LocalPlayer
284: 0x0954 [0x2B] Kupofried (ID: 17339259/0x0108937B) [8645*]:
    → "Thou hast mine ample appreciation! Much remaineth unclear, to be sure, but one thing is certain: 'tis not by simple happenstance that we've found one another here."
285: 0x095B [0x23] WAIT_FOR_DIALOG_INTERACTION
286: 0x095C [0x6F] WAIT_FRAME_DELAY: Yield until WaitTime reaches zero
287: 0x095D [0x76] CHECK_ENTITY_RENDER_FLAGS: Wait until Kupofried (ID: 17339259/0x0108937B) Render.Flags0 and Render.Flags3 conditions are met
288: 0x0962 [0x52] END_LOAD_SCHEDULER: End scheduler "w117" with entities [LocalPlayer, LocalPlayer], work=487*
289: 0x0971 [0x45] LOAD_SCHEDULED_TASK: Load scheduler "w118" with entities [LocalPlayer, LocalPlayer], work=[487*, 0*]
290: 0x0982 [0x7B] Kupofried (ID: 17339259/0x0108937B) stops talking
291: 0x0987 [0x5B] LOAD_EXT_SCHEDULER: Load scheduler "tha0" with entities [Kupofried (ID: 17339259/0x0108937B), Kupofried (ID: 17339259/0x0108937B)], work=2647*
292: 0x0996 [0x03] Work_Zone[2] = 160*
293: 0x099B [0x27] REQ_SET(priority=0x10, entity_id=??? (ID: 17339035/0x0108929B), tag_num=0x01)
294: 0x09A2 [0x2B] Kupofried (ID: 17339259/0x0108937B) [8646*]:
    → "Would that I could accompany thee to the realm beyond, but discretion is required of me in all my doings whilst in this world. As such, thou must venturest forth alone. Know, though, that thou wilt not go bereft of aid, kupo."
295: 0x09A9 [0x23] WAIT_FOR_DIALOG_INTERACTION
296: 0x09AA [0x2A] GET_REQ_LEVEL(level=16, entity_id=??? (ID: 17339035/0x0108929B))
297: 0x09B0 [0x5B] LOAD_EXT_SCHEDULER: Load scheduler "hap0" with entities [Kupofried (ID: 17339259/0x0108937B), Kupofried (ID: 17339259/0x0108937B)], work=2636*
298: 0x09BF [0x2B] Kupofried (ID: 17339259/0x0108937B) [8647*]:
    → "If thou dost will it, I shall imbue unto thee miraculous moogle magic that shall grant thee safe passage to the Walk of Echoes."
299: 0x09C6 [0x23] WAIT_FOR_DIALOG_INTERACTION
300: 0x09C7 [0x2B] Kupofried (ID: 17339259/0x0108937B) [8648*]:
    → "If there is aught thou wouldst know, speak thy mind. I shall answer to the exhaustive extent of my knowledge."
301: 0x09CE [0x23] WAIT_FOR_DIALOG_INTERACTION
302: 0x09CF [0x5B] LOAD_EXT_SCHEDULER: Load scheduler "std0" with entities [Kupofried (ID: 17339259/0x0108937B), Kupofried (ID: 17339259/0x0108937B)], work=2636*
303: 0x09DE [0x1C] WAIT(30* ticks)
304: 0x09E1 [0x52] END_LOAD_SCHEDULER: End scheduler "w118" with entities [LocalPlayer, LocalPlayer], work=487*
305: 0x09F0 [0x45] LOAD_SCHEDULED_TASK: Load scheduler "w119" with entities [LocalPlayer, LocalPlayer], work=[487*, 0*]

SUBROUTINE_0A01:
306: 0x0A01 [0x24] CREATE_DIALOG(message_id=8649*, default_option=0*, option_flags=0*)
    → "Is there aught you would know? [Nothing in particular./How to enter the Walk of Echoes.]"
307: 0x0A08 [0x25] WAIT_DIALOG_SELECT()
308: 0x0A09 [0x02] IF !(Work_Zone[0] == 0*) GOTO 0x0A8F
309: 0x0A11 [0x6E] LocalPlayer uses emote 6*
310: 0x0A18 [0x99] Wait for LocalPlayer animation to complete
311: 0x0A1D [0x1C] WAIT(45* ticks)
312: 0x0A20 [0x52] END_LOAD_SCHEDULER: End scheduler "w119" with entities [LocalPlayer, LocalPlayer], work=487*
313: 0x0A2F [0x45] LOAD_SCHEDULED_TASK: Load scheduler "w120" with entities [LocalPlayer, LocalPlayer], work=[487*, 0*]
314: 0x0A40 [0x5B] LOAD_EXT_SCHEDULER: Load scheduler "pnt0" with entities [Kupofried (ID: 17339259/0x0108937B), Kupofried (ID: 17339259/0x0108937B)], work=2647*
315: 0x0A4F [0x03] Work_Zone[2] = 160*
316: 0x0A54 [0x27] REQ_SET(priority=0x10, entity_id=??? (ID: 17339035/0x0108929B), tag_num=0x01)
317: 0x0A5B [0x2B] Kupofried (ID: 17339259/0x0108937B) [8650*]:
    → "Tsk-tsk. Be reminded that I am no moogle's fool, kupo. Thy hunger for the unknown--the lustful longing to lay thine eyes upon the Walk of Echoes--is writ plain upon thy face."
318: 0x0A62 [0x23] WAIT_FOR_DIALOG_INTERACTION
319: 0x0A63 [0x2A] GET_REQ_LEVEL(level=16, entity_id=??? (ID: 17339035/0x0108929B))
320: 0x0A69 [0x52] END_LOAD_SCHEDULER: End scheduler "w120" with entities [LocalPlayer, LocalPlayer], work=487*
321: 0x0A78 [0x45] LOAD_SCHEDULED_TASK: Load scheduler "w119" with entities [LocalPlayer, LocalPlayer], work=[487*, 0*]
322: 0x0A89 [0x01] GOTO 0x0A01

SUBROUTINE_0A8F:
323: 0x0A8F [0x52] END_LOAD_SCHEDULER: End scheduler "w119" with entities [LocalPlayer, LocalPlayer], work=487*
324: 0x0A9E [0x45] LOAD_SCHEDULED_TASK: Load scheduler "w121" with entities [LocalPlayer, LocalPlayer], work=[487*, 0*]
325: 0x0AAF [0x5B] LOAD_EXT_SCHEDULER: Load scheduler "tlk0" with entities [Kupofried (ID: 17339259/0x0108937B), Kupofried (ID: 17339259/0x0108937B)], work=2636*
326: 0x0ABE [0x2B] Kupofried (ID: 17339259/0x0108937B) [8652*]:
    → "Very well, kupo. As it please thee, I shall imbue unto thee marvelous moogle magic. There is but one thing I require to incant the invocation. That is, coin."
327: 0x0AC5 [0x23] WAIT_FOR_DIALOG_INTERACTION
328: 0x0AC6 [0x03] Work_Zone[2] = 1000*
329: 0x0ACB [0x2B] Kupofried (ID: 17339259/0x0108937B) [8653*]:
    → ""Gil" is the name by which thy kind calleth it, yes? $0 of it should serve satisfactorily, kupo."
330: 0x0AD2 [0x23] WAIT_FOR_DIALOG_INTERACTION
331: 0x0AD3 [0x52] END_LOAD_SCHEDULER: End scheduler "w121" with entities [LocalPlayer, LocalPlayer], work=487*
332: 0x0AE2 [0x45] LOAD_SCHEDULED_TASK: Load scheduler "w122" with entities [LocalPlayer, LocalPlayer], work=[487*, 0*]
333: 0x0AF3 [0x5B] LOAD_EXT_SCHEDULER: Load scheduler "std0" with entities [Kupofried (ID: 17339259/0x0108937B), Kupofried (ID: 17339259/0x0108937B)], work=2636*
334: 0x0B02 [0x1C] WAIT(30* ticks)
335: 0x0B05 [0x2B] Kupofried (ID: 17339259/0x0108937B) [8654*]:
    → "Why gil, thou askest? Knowest thou not that within coin resideth great power?"
336: 0x0B0C [0x23] WAIT_FOR_DIALOG_INTERACTION
337: 0x0B0D [0x5B] LOAD_EXT_SCHEDULER: Load scheduler "thb0" with entities [Kupofried (ID: 17339259/0x0108937B), Kupofried (ID: 17339259/0x0108937B)], work=2647*
338: 0x0B1C [0x03] Work_Zone[2] = 160*
339: 0x0B21 [0x27] REQ_SET(priority=0x10, entity_id=??? (ID: 17339035/0x0108929B), tag_num=0x01)
340: 0x0B28 [0x2B] Kupofried (ID: 17339259/0x0108937B) [8655*]:
    → "In its journey through innumerable hands, gil absorbeth abundant amounts of soul energy."
341: 0x0B2F [0x23] WAIT_FOR_DIALOG_INTERACTION
342: 0x0B30 [0x52] END_LOAD_SCHEDULER: End scheduler "w122" with entities [LocalPlayer, LocalPlayer], work=487*
343: 0x0B3F [0x45] LOAD_SCHEDULED_TASK: Load scheduler "w123" with entities [LocalPlayer, LocalPlayer], work=[487*, 0*]
344: 0x0B50 [0x2B] Kupofried (ID: 17339259/0x0108937B) [8656*]:
    → "And it is this selfsame energy that is required for the invocation, kupo."
345: 0x0B57 [0x23] WAIT_FOR_DIALOG_INTERACTION
346: 0x0B58 [0x2A] GET_REQ_LEVEL(level=16, entity_id=??? (ID: 17339035/0x0108929B))
347: 0x0B5E [0x03] Work_Zone[2] = 1000*
348: 0x0B63 [0x5B] LOAD_EXT_SCHEDULER: Load scheduler "thb1" with entities [Kupofried (ID: 17339259/0x0108937B), Kupofried (ID: 17339259/0x0108937B)], work=2647*
349: 0x0B72 [0x2B] Kupofried (ID: 17339259/0x0108937B) [8657*]:
    → "Now that thou hast been illuminated as to the importance of gil, pray kindly supply the said sum."
350: 0x0B79 [0x23] WAIT_FOR_DIALOG_INTERACTION
351: 0x0B7A [0x1C] WAIT(40* ticks)
352: 0x0B7D [0x23] WAIT_FOR_DIALOG_INTERACTION
353: 0x0B7E [0x06] ExtData[1]->WorkLocal[1] = 0

SUBROUTINE_0B81:
354: 0x0B81 [0x03] Work_Zone[2] = 1000*
355: 0x0B86 [0x24] CREATE_DIALOG(message_id=8659*, default_option=0*, option_flags=0*)
    → "Hand over $0 gil? [Gladly!/On second thought...]"
356: 0x0B8D [0x25] WAIT_DIALOG_SELECT()
357: 0x0B8E [0x02] IF !(Work_Zone[0] == 1*) GOTO 0x0BEC
358: 0x0B96 [0x02] IF !(ExtData[1]->WorkLocal[1] == 0*) GOTO 0x0BDE
359: 0x0B9E [0x52] END_LOAD_SCHEDULER: End scheduler "w123" with entities [LocalPlayer, LocalPlayer], work=487*
360: 0x0BAD [0x45] LOAD_SCHEDULED_TASK: Load scheduler "w124" with entities [LocalPlayer, LocalPlayer], work=[487*, 0*]
361: 0x0BBE [0x05] ExtData[1]->WorkLocal[1] = 1
362: 0x0BC1 [0x5B] LOAD_EXT_SCHEDULER: Load scheduler "gak0" with entities [Kupofried (ID: 17339259/0x0108937B), Kupofried (ID: 17339259/0x0108937B)], work=2643*
363: 0x0BD0 [0x1C] WAIT(60* ticks)
364: 0x0BD3 [0x2B] Kupofried (ID: 17339259/0x0108937B) [8660*]:
    → "Thou disbelievest my words, kupo? I tell thee, $0 gil worth of soul energy is required to cast the mystical moogle magic."
365: 0x0BDA [0x1C] WAIT(60* ticks)
366: 0x0BDD [0x23] WAIT_FOR_DIALOG_INTERACTION
367: 0x0BDE [0x2B] Kupofried (ID: 17339259/0x0108937B) [8661*]:
    → "And I cannot in sound conscience send thee to the Walk of Echoes bereft of its protection, kupo."
368: 0x0BE5 [0x23] WAIT_FOR_DIALOG_INTERACTION
369: 0x0BE6 [0x01] GOTO 0x0B81

SUBROUTINE_0BEC:
370: 0x0BEC [0x52] END_LOAD_SCHEDULER: End scheduler "w123" with entities [LocalPlayer, LocalPlayer], work=487*
371: 0x0BFB [0x52] END_LOAD_SCHEDULER: End scheduler "w124" with entities [LocalPlayer, LocalPlayer], work=487*
372: 0x0C0A [0x45] LOAD_SCHEDULED_TASK: Load scheduler "w125" with entities [LocalPlayer, LocalPlayer], work=[487*, 0*]
373: 0x0C1B [0x02] IF !(ExtData[1]->WorkLocal[1] == 1*) GOTO 0x0C32
374: 0x0C23 [0x5B] LOAD_EXT_SCHEDULER: Load scheduler "gak1" with entities [Kupofried (ID: 17339259/0x0108937B), Kupofried (ID: 17339259/0x0108937B)], work=2643*
375: 0x0C32 [0x29] REQ_SET_WAIT(priority=0x10, entity_id=LocalPlayer, tag_num=0x16)
376: 0x0C39 [0x03] Work_Zone[1] = 99*
377: 0x0C3E [0x43] SEND_EVENT_UPDATE: Send pending tag to server (packet 0x005B)
378: 0x0C40 [0x43] SEND_EVENT_UPDATE: Check pending flag (skip if not pending)
379: 0x0C42 [0x02] IF !(Work_Zone[9] < 1000*) GOTO 0x0C55
380: 0x0C4A [0x2B] Kupofried (ID: 17339259/0x0108937B) [8665*]:
    → "Watch now in awestruck amazement as the mighty moogle magic of Kupofried is cast upon thee!"
381: 0x0C51 [0x23] WAIT_FOR_DIALOG_INTERACTION
382: 0x0C52 [0x01] GOTO 0x0C7C
383: 0x0C55 [0x5B] LOAD_EXT_SCHEDULER: Load scheduler "tha0" with entities [Kupofried (ID: 17339259/0x0108937B), Kupofried (ID: 17339259/0x0108937B)], work=2647*
384: 0x0C64 [0x2B] Kupofried (ID: 17339259/0x0108937B) [8663*]:
    → "It appears thou hast not enough coin. I fear that aught short of the stipulated sum and the magnificent moogle magic shall not be sufficiently splendid."
385: 0x0C6B [0x23] WAIT_FOR_DIALOG_INTERACTION
386: 0x0C6C [0x2B] Kupofried (ID: 17339259/0x0108937B) [8664*]:
    → "Mend thy monetary milieu and thence seek me here once more. I shall be waiting, kupo."
387: 0x0C73 [0x23] WAIT_FOR_DIALOG_INTERACTION
388: 0x0C74 [0x03] Work_Zone[1] = 66*
389: 0x0C79 [0x01] GOTO 0x0D70

SUBROUTINE_0C7C:
390: 0x0C7C [0x52] END_LOAD_SCHEDULER: End scheduler "w125" with entities [LocalPlayer, LocalPlayer], work=487*
391: 0x0C8B [0x45] LOAD_SCHEDULED_TASK: Load scheduler "w126" with entities [LocalPlayer, LocalPlayer], work=[487*, 0*]
392: 0x0C9C [0x5B] LOAD_EXT_SCHEDULER: Load scheduler "kru0" with entities [Kupofried (ID: 17339259/0x0108937B), Kupofried (ID: 17339259/0x0108937B)], work=2636*
393: 0x0CAB [0x1C] WAIT(90* ticks)
394: 0x0CAE [0xC5] LOAD_SCHEDULED_TASK_ALT3: Load scheduler 0x80106E69 for entities [Kupofried (ID: 17339259/0x0108937B), Kupofried (ID: 17339259/0x0108937B)], work=152*, param=24941
395: 0x0CBF [0x1C] WAIT(180* ticks)
396: 0x0CC2 [0x1A] CALL_SUBROUTINE(address=0x12B4)
397: 0x0CC5 [0x1C] WAIT(30* ticks)
398: 0x0CC8 [0x6B] STOP_AND_IDLE: Kupofried (ID: 17339259/0x0108937B) stops current action and resets to idle (animation="idl0")
399: 0x0CD1 [0x52] END_LOAD_SCHEDULER: End scheduler "w126" with entities [LocalPlayer, LocalPlayer], work=487*
400: 0x0CE0 [0x45] LOAD_SCHEDULED_TASK: Load scheduler "w127" with entities [LocalPlayer, LocalPlayer], work=[487*, 0*]
401: 0x0CF1 [0x1A] CALL_SUBROUTINE(address=0x1293)
402: 0x0CF4 [0x1C] WAIT(60* ticks)
403: 0x0CF7 [0x5B] LOAD_EXT_SCHEDULER: Load scheduler "pas0" with entities [Kupofried (ID: 17339259/0x0108937B), Kupofried (ID: 17339259/0x0108937B)], work=2755*
404: 0x0D06 [0x03] Work_Zone[2] = 180*
405: 0x0D0B [0x27] REQ_SET(priority=0x10, entity_id=??? (ID: 17339035/0x0108929B), tag_num=0x01)
406: 0x0D12 [0x2B] Kupofried (ID: 17339259/0x0108937B) [8666*]:
    → "The deed is done, kupo. To thee I return thy coin in its magicked form."
407: 0x0D19 [0x23] WAIT_FOR_DIALOG_INTERACTION
408: 0x0D1A [0x2A] GET_REQ_LEVEL(level=16, entity_id=??? (ID: 17339035/0x0108929B))
409: 0x0D20 [0x2B] Kupofried (ID: 17339259/0x0108937B) [8667*]:
    → "With it in thy possession, do examine the veridical conflux. Thou shalt be whisked to the Walk of Echoes within the blinking of thy mind's eye."
410: 0x0D27 [0x23] WAIT_FOR_DIALOG_INTERACTION
411: 0x0D28 [0x52] END_LOAD_SCHEDULER: End scheduler "w127" with entities [LocalPlayer, LocalPlayer], work=487*
412: 0x0D37 [0x45] LOAD_SCHEDULED_TASK: Load scheduler "w128" with entities [LocalPlayer, LocalPlayer], work=[487*, 0*]
413: 0x0D48 [0x1C] WAIT(30* ticks)
414: 0x0D4B [0x4A] LocalPlayer looks at Unnamed NPC (ID: 17339036/0x0108929C)
415: 0x0D54 [0x5B] LOAD_EXT_SCHEDULER: Load scheduler "wav0" with entities [Kupofried (ID: 17339259/0x0108937B), Kupofried (ID: 17339259/0x0108937B)], work=2647*
416: 0x0D63 [0x2B] Kupofried (ID: 17339259/0x0108937B) [8668*]:
    → "May thine investigation be met with substantial success, kupo!"
417: 0x0D6A [0x23] WAIT_FOR_DIALOG_INTERACTION
418: 0x0D6B [0x03] Work_Zone[1] = 99*

SUBROUTINE_0D70:
419: 0x0D70 [0x1A] CALL_SUBROUTINE(address=0x1272)
420: 0x0D73 [0x1C] WAIT(30* ticks)
421: 0x0D76 [0x52] END_LOAD_SCHEDULER: End scheduler "w128" with entities [LocalPlayer, LocalPlayer], work=487*
422: 0x0D85 [0x45] LOAD_SCHEDULED_TASK: Load scheduler "0blf" with entities [EventEntity, EventEntity], work=[487*, 0*]
423: 0x0D96 [0x46] CAMERA_CONTROL: Restore default settings
424: 0x0D98 [0x45] LOAD_SCHEDULED_TASK: Load scheduler "fdi2" with entities [LocalPlayer, LocalPlayer], work=[200*, 0*]
425: 0x0DA9 [0x21] END_EVENT
426: 0x0DAA [0x00] END_REQSTACK()
```

#### Data or dead code:

```
# Dead code (unreachable instructions):
     0x0227 [0x01] GOTO 0x022A
# Dead code (unreachable instructions):
     0x0932 [0x01] GOTO 0x0935
# Dead code (unreachable instructions):
     0x0A8C [0x01] GOTO 0x0A8F
# Dead code (unreachable instructions):
     0x0BE9 [0x01] GOTO 0x0BEC
```

### Event 37

#### Metadata

| Field        | Value     |
|--------------|-----------|
| Entrypoint   | 0x0DAB    |
| Data Size    | 918 bytes |
| Instructions | 125       |

```
      00 01 02 03 04 05 06 07  08 09 0A 0B 0C 0D 0E 0F
      -- -- -- -- -- -- -- --  -- -- -- -- -- -- -- --
0DA0:                                   42 1A 72 12 46             B.r.F
0DB0: 01 38 00 80 27 10 7B 93  08 01 02 4E 00 9C 92 08  .8..'.{....N....
0DC0: 01 92 01 7B 93 08 01 94  01 F0 FF FF 7F 94 01 7B  ...{...........{
0DD0: 93 08 01 94 01 9C 92 08  01 BA F0 FF FF 7F 01 80  ................
0DE0: 02 80 03 80 04 80 BA 7B  93 08 01 64 80 65 80 66  .......{...d.e.f
0DF0: 80 67 80 59 05 9C 92 08  01 01 BA 9C 92 08 01 09  .g.Y............
0E00: 80 0A 80 0B 80 0C 80 80  F0 FF FF 7F 80 7B 93 08  .............{..
0E10: 01 1C 0D 80 4A 7B 93 08  01 F0 FF FF 7F 6F 76 7B  ....J{.......ov{
0E20: 93 08 01 7B 7B 93 08 01  5B 42 80 7B 93 08 01 7B  ...{{...[B.{...{
0E30: 93 08 01 72 63 73 64 5C  00 0E 80 5C 01 0E 80 9A  ...rcsd\...\....
0E40: 45 0F 80 F0 FF FF 7F F0  FF FF 7F 77 31 30 30 10  E..........w100.
0E50: 80 1A 51 12 79 00 F0 FF  FF 7F 9C 92 08 01 1C 11  ..Q.y...........
0E60: 80 52 0F 80 F0 FF FF 7F  F0 FF FF 7F 77 31 30 30  .R..........w100
0E70: 45 0F 80 F0 FF FF 7F F0  FF FF 7F 77 31 31 37 10  E..........w117.
0E80: 80 BB 13 80 7B 93 08 01  7B 93 08 01 6D 61 69 6E  ....{...{...main
0E90: 10 80 1C 0D 80 4A F0 FF  FF 7F 7B 93 08 01 1C 1A  .....J....{.....
0EA0: 80 2B 7B 93 08 01 68 80  23 52 0F 80 F0 FF FF 7F  .+{...h.#R......
0EB0: F0 FF FF 7F 77 31 31 37  45 0F 80 F0 FF FF 7F F0  ....w117E.......
0EC0: FF FF 7F 77 31 31 38 10  80 5B 21 80 7B 93 08 01  ...w118..[!.{...
0ED0: 7B 93 08 01 68 61 70 30  2B 7B 93 08 01 4C 80 23  {...hap0+{...L.#
0EE0: 2B 7B 93 08 01 4D 80 23  5B 21 80 7B 93 08 01 7B  +{...M.#[!.{...{
0EF0: 93 08 01 73 74 64 30 1C  0D 80 52 0F 80 F0 FF FF  ...std0...R.....
0F00: 7F F0 FF FF 7F 77 31 31  38 45 0F 80 F0 FF FF 7F  .....w118E......
0F10: F0 FF FF 7F 77 31 31 39  10 80 24 4E 80 10 80 10  ....w119..$N....
0F20: 80 25 02 00 10 10 80 00  5B 0F 6E F0 FF FF 7F 34  .%......[.n....4
0F30: 80 99 F0 FF FF 7F 1C 43  80 5B 15 80 7B 93 08 01  .......C.[..{...
0F40: 7B 93 08 01 79 65 73 31  2B 7B 93 08 01 69 80 23  {...yes1+{...i.#
0F50: 03 01 10 6A 80 01 F7 10  01 66 0F 02 00 10 1D 80  ...j.....f......
0F60: 00 66 0F 01 66 0F 5B 15  80 7B 93 08 01 7B 93 08  .f..f.[..{...{..
0F70: 01 79 65 73 30 03 02 10  51 80 2B 7B 93 08 01 6B  .yes0...Q.+{...k
0F80: 80 1C 27 80 23 24 57 80  10 80 10 80 25 02 00 10  ..'.#$W.....%...
0F90: 1D 80 00 A8 0F 2B 7B 93  08 01 6C 80 23 03 01 10  .....+{...l.#...
0FA0: 6A 80 01 F7 10 01 A8 0F  45 0F 80 F0 FF FF 7F F0  j.......E.......
0FB0: FF FF 7F 77 31 32 35 10  80 29 10 F0 FF FF 7F 16  ...w125..)......
0FC0: 03 01 10 5A 80 43 00 43  01 02 09 10 51 80 04 DC  ...Z.C.C....Q...
0FD0: 0F 2B 7B 93 08 01 5B 80  23 01 03 10 5B 19 80 7B  .+{...[.#...[..{
0FE0: 93 08 01 7B 93 08 01 74  68 61 30 2B 7B 93 08 01  ...{...tha0+{...
0FF0: 5C 80 23 2B 7B 93 08 01  5D 80 23 03 01 10 5E 80  \.#+{...].#...^.
1000: 01 70 0D 52 0F 80 F0 FF  FF 7F F0 FF FF 7F 77 31  .p.R..........w1
1010: 32 35 45 0F 80 F0 FF FF  7F F0 FF FF 7F 77 31 32  25E..........w12
1020: 36 10 80 5B 21 80 7B 93  08 01 7B 93 08 01 6B 72  6..[!.{...{...kr
1030: 75 30 1C 39 80 C5 5F 80  7B 93 08 01 7B 93 08 01  u0.9.._.{...{...
1040: 6D 61 69 6E 10 80 1C 3B  80 1A B4 12 1C 0D 80 6B  main...;.......k
1050: 69 64 6C 30 7B 93 08 01  52 0F 80 F0 FF FF 7F F0  idl0{...R.......
1060: FF FF 7F 77 31 32 36 45  0F 80 F0 FF FF 7F F0 FF  ...w126E........
1070: FF 7F 77 31 32 37 10 80  1A 93 12 1C 1A 80 5B 3A  ..w127........[:
1080: 80 7B 93 08 01 7B 93 08  01 70 61 73 30 03 02 10  .{...{...pas0...
1090: 3B 80 27 10 9B 92 08 01  01 2B 7B 93 08 01 60 80  ;.'......+{...`.
10A0: 23 2A 10 9B 92 08 01 2B  7B 93 08 01 61 80 23 52  #*.....+{...a.#R
10B0: 0F 80 F0 FF FF 7F F0 FF  FF 7F 77 31 32 37 45 0F  ..........w127E.
10C0: 80 F0 FF FF 7F F0 FF FF  7F 77 31 32 38 10 80 1C  .........w128...
10D0: 0D 80 4A F0 FF FF 7F 9C  92 08 01 5B 19 80 7B 93  ..J........[..{.
10E0: 08 01 7B 93 08 01 77 61  76 30 2B 7B 93 08 01 62  ..{...wav0+{...b
10F0: 80 23 03 01 10 5A 80 1A  72 12 1C 0D 80 52 0F 80  .#...Z..r....R..
1100: F0 FF FF 7F F0 FF FF 7F  77 31 31 39 52 0F 80 F0  ........w119R...
1110: FF FF 7F F0 FF FF 7F 77  31 32 38 45 0F 80 F8 FF  .......w128E....
1120: FF 7F F8 FF FF 7F 30 62  6C 66 10 80 46 00 45 63  ......0blf..F.Ec
1130: 80 F0 FF FF 7F F0 FF FF  7F 66 64 69 32 10 80 21  .........fdi2..!
1140: 00                                                .               
```

#### Opcodes

```
  0: 0x0DAB [0x42] SET_CLI_EVENT_CANCEL_DATA()
  1: 0x0DAC [0x1A] CALL_SUBROUTINE(address=0x1272)
  2: 0x0DAF [0x46] CAMERA_CONTROL: Disable user control
  3: 0x0DB1 [0x38] SET_CLIENT_EVENT_MODE(mode=19*)
  4: 0x0DB4 [0x27] REQ_SET(priority=0x10, entity_id=Kupofried (ID: 17339259/0x0108937B), tag_num=0x02)
  5: 0x0DBB [0x4E] SET_ENTITY_HIDE_FLAG: Show Unnamed NPC (ID: 17339036/0x0108929C)
  6: 0x0DC1 [0x92] Kupofried (ID: 17339259/0x0108937B)->Render.Flags3 ^= 0x01
  7: 0x0DC7 [0x94] LocalPlayer->Render.Flags3 ^= 0x01
  8: 0x0DCD [0x94] Kupofried (ID: 17339259/0x0108937B)->Render.Flags3 ^= 0x01
  9: 0x0DD3 [0x94] Unnamed NPC (ID: 17339036/0x0108929C)->Render.Flags3 ^= 0x01
 10: 0x0DD9 [0xBA] SET_ENTITY_POSITION(entity_id=LocalPlayer, pos_x=239.478*, pos_z=-246.371*, pos_y=-8.119*, direction=95.4°*)
 11: 0x0DE6 [0xBA] SET_ENTITY_POSITION(entity_id=Kupofried (ID: 17339259/0x0108937B), pos_x=237.209*, pos_z=-247.418*, pos_y=-8.171*, direction=170.2°*)
 12: 0x0DF3 [0x59] UPDATE_ENTITY_DATA: Unnamed NPC (ID: 17339036/0x0108929C)->Render.Flags0 |= 0x200000
 13: 0x0DFA [0xBA] SET_ENTITY_POSITION(entity_id=Unnamed NPC (ID: 17339036/0x0108929C), pos_x=239.183*, pos_z=-248.447*, pos_y=-15.337*, direction=280.1°*)
 14: 0x0E07 [0x80] LOAD_WAIT(entity=LocalPlayer)
 15: 0x0E0C [0x80] LOAD_WAIT(entity=Kupofried (ID: 17339259/0x0108937B))
 16: 0x0E11 [0x1C] WAIT(30* ticks)
 17: 0x0E14 [0x4A] Kupofried (ID: 17339259/0x0108937B) looks at LocalPlayer
 18: 0x0E1D [0x6F] WAIT_FRAME_DELAY: Yield until WaitTime reaches zero
 19: 0x0E1E [0x76] CHECK_ENTITY_RENDER_FLAGS: Wait until Kupofried (ID: 17339259/0x0108937B) Render.Flags0 and Render.Flags3 conditions are met
 20: 0x0E23 [0x7B] Kupofried (ID: 17339259/0x0108937B) stops talking
 21: 0x0E28 [0x5B] LOAD_EXT_SCHEDULER: Load scheduler "rcsd" with entities [Kupofried (ID: 17339259/0x0108937B), Kupofried (ID: 17339259/0x0108937B)], work=2645*
 22: 0x0E37 [0x5C] MUSIC_CONTROL: Set Idle (Day) music to song 42*
 23: 0x0E3B [0x5C] MUSIC_CONTROL: Set Idle (Night) music to song 42*
 24: 0x0E3F [0x9A] WAIT_MUSIC_SERVER()
 25: 0x0E40 [0x45] LOAD_SCHEDULED_TASK: Load scheduler "w100" with entities [LocalPlayer, LocalPlayer], work=[487*, 0*]
 26: 0x0E51 [0x1A] CALL_SUBROUTINE(address=0x1251)
 27: 0x0E54 [0x79] LocalPlayer looks at Unnamed NPC (ID: 17339036/0x0108929C) (Basic look)
 28: 0x0E5E [0x1C] WAIT(120* ticks)
 29: 0x0E61 [0x52] END_LOAD_SCHEDULER: End scheduler "w100" with entities [LocalPlayer, LocalPlayer], work=487*
 30: 0x0E70 [0x45] LOAD_SCHEDULED_TASK: Load scheduler "w117" with entities [LocalPlayer, LocalPlayer], work=[487*, 0*]
 31: 0x0E81 [0xBB] LOAD_EVENT_SCHEDULER_ALT: Load scheduler "main" with entities [Kupofried (ID: 17339259/0x0108937B), Kupofried (ID: 17339259/0x0108937B)], work=[121*, 0*]
 32: 0x0E92 [0x1C] WAIT(30* ticks)
 33: 0x0E95 [0x4A] LocalPlayer looks at Kupofried (ID: 17339259/0x0108937B)
 34: 0x0E9E [0x1C] WAIT(60* ticks)
 35: 0x0EA1 [0x2B] Kupofried (ID: 17339259/0x0108937B) [8671*]:
    → "Didst thou wish for the pleasure of my presence, kupopo?"
 36: 0x0EA8 [0x23] WAIT_FOR_DIALOG_INTERACTION
 37: 0x0EA9 [0x52] END_LOAD_SCHEDULER: End scheduler "w117" with entities [LocalPlayer, LocalPlayer], work=487*
 38: 0x0EB8 [0x45] LOAD_SCHEDULED_TASK: Load scheduler "w118" with entities [LocalPlayer, LocalPlayer], work=[487*, 0*]
 39: 0x0EC9 [0x5B] LOAD_EXT_SCHEDULER: Load scheduler "hap0" with entities [Kupofried (ID: 17339259/0x0108937B), Kupofried (ID: 17339259/0x0108937B)], work=2636*
 40: 0x0ED8 [0x2B] Kupofried (ID: 17339259/0x0108937B) [8647*]:
    → "If thou dost will it, I shall imbue unto thee miraculous moogle magic that shall grant thee safe passage to the Walk of Echoes."
 41: 0x0EDF [0x23] WAIT_FOR_DIALOG_INTERACTION
 42: 0x0EE0 [0x2B] Kupofried (ID: 17339259/0x0108937B) [8648*]:
    → "If there is aught thou wouldst know, speak thy mind. I shall answer to the exhaustive extent of my knowledge."
 43: 0x0EE7 [0x23] WAIT_FOR_DIALOG_INTERACTION
 44: 0x0EE8 [0x5B] LOAD_EXT_SCHEDULER: Load scheduler "std0" with entities [Kupofried (ID: 17339259/0x0108937B), Kupofried (ID: 17339259/0x0108937B)], work=2636*
 45: 0x0EF7 [0x1C] WAIT(30* ticks)
 46: 0x0EFA [0x52] END_LOAD_SCHEDULER: End scheduler "w118" with entities [LocalPlayer, LocalPlayer], work=487*
 47: 0x0F09 [0x45] LOAD_SCHEDULED_TASK: Load scheduler "w119" with entities [LocalPlayer, LocalPlayer], work=[487*, 0*]
 48: 0x0F1A [0x24] CREATE_DIALOG(message_id=8649*, default_option=0*, option_flags=0*)
    → "Is there aught you would know? [Nothing in particular./How to enter the Walk of Echoes.]"
 49: 0x0F21 [0x25] WAIT_DIALOG_SELECT()
 50: 0x0F22 [0x02] IF !(Work_Zone[0] == 0*) GOTO 0x0F5B
 51: 0x0F2A [0x6E] LocalPlayer uses emote 6*
 52: 0x0F31 [0x99] Wait for LocalPlayer animation to complete
 53: 0x0F36 [0x1C] WAIT(45* ticks)
 54: 0x0F39 [0x5B] LOAD_EXT_SCHEDULER: Load scheduler "yes1" with entities [Kupofried (ID: 17339259/0x0108937B), Kupofried (ID: 17339259/0x0108937B)], work=2642*
 55: 0x0F48 [0x2B] Kupofried (ID: 17339259/0x0108937B) [8651*]:
    → "Very well. Further I shan't press thee, for I have faith that fate shall lead thee back to these white fields. And when that time cometh, thou shalt find me here, kupo."
 56: 0x0F4F [0x23] WAIT_FOR_DIALOG_INTERACTION
 57: 0x0F50 [0x03] Work_Zone[1] = 1073741824*
 58: 0x0F55 [0x01] GOTO 0x10F7

SUBROUTINE_0F66:
 59: 0x0F66 [0x5B] LOAD_EXT_SCHEDULER: Load scheduler "yes0" with entities [Kupofried (ID: 17339259/0x0108937B), Kupofried (ID: 17339259/0x0108937B)], work=2642*
 60: 0x0F75 [0x03] Work_Zone[2] = 1000*
 61: 0x0F7A [0x2B] Kupofried (ID: 17339259/0x0108937B) [8658*]:
    → "As it please thee, kupo. As duly discussed, $0 gil shall be required to incant the invocation."
 62: 0x0F81 [0x1C] WAIT(80* ticks)
 63: 0x0F84 [0x23] WAIT_FOR_DIALOG_INTERACTION
 64: 0x0F85 [0x24] CREATE_DIALOG(message_id=8659*, default_option=0*, option_flags=0*)
    → "Hand over $0 gil? [Gladly!/On second thought...]"
 65: 0x0F8C [0x25] WAIT_DIALOG_SELECT()
 66: 0x0F8D [0x02] IF !(Work_Zone[0] == 1*) GOTO 0x0FA8
 67: 0x0F95 [0x2B] Kupofried (ID: 17339259/0x0108937B) [8662*]:
    → "I tell thee, $0 gil worth of soul energy is required to cast the mystical moogle magic. Know that the amount is not of my determining, kupo."
 68: 0x0F9C [0x23] WAIT_FOR_DIALOG_INTERACTION
 69: 0x0F9D [0x03] Work_Zone[1] = 1073741824*
 70: 0x0FA2 [0x01] GOTO 0x10F7

SUBROUTINE_0FA8:
 71: 0x0FA8 [0x45] LOAD_SCHEDULED_TASK: Load scheduler "w125" with entities [LocalPlayer, LocalPlayer], work=[487*, 0*]
 72: 0x0FB9 [0x29] REQ_SET_WAIT(priority=0x10, entity_id=LocalPlayer, tag_num=0x16)
 73: 0x0FC0 [0x03] Work_Zone[1] = 99*
 74: 0x0FC5 [0x43] SEND_EVENT_UPDATE: Send pending tag to server (packet 0x005B)
 75: 0x0FC7 [0x43] SEND_EVENT_UPDATE: Check pending flag (skip if not pending)
 76: 0x0FC9 [0x02] IF !(Work_Zone[9] < 1000*) GOTO 0x0FDC
 77: 0x0FD1 [0x2B] Kupofried (ID: 17339259/0x0108937B) [8665*]:
    → "Watch now in awestruck amazement as the mighty moogle magic of Kupofried is cast upon thee!"
 78: 0x0FD8 [0x23] WAIT_FOR_DIALOG_INTERACTION
 79: 0x0FD9 [0x01] GOTO 0x1003
 80: 0x0FDC [0x5B] LOAD_EXT_SCHEDULER: Load scheduler "tha0" with entities [Kupofried (ID: 17339259/0x0108937B), Kupofried (ID: 17339259/0x0108937B)], work=2647*
 81: 0x0FEB [0x2B] Kupofried (ID: 17339259/0x0108937B) [8663*]:
    → "It appears thou hast not enough coin. I fear that aught short of the stipulated sum and the magnificent moogle magic shall not be sufficiently splendid."
 82: 0x0FF2 [0x23] WAIT_FOR_DIALOG_INTERACTION
 83: 0x0FF3 [0x2B] Kupofried (ID: 17339259/0x0108937B) [8664*]:
    → "Mend thy monetary milieu and thence seek me here once more. I shall be waiting, kupo."
 84: 0x0FFA [0x23] WAIT_FOR_DIALOG_INTERACTION
 85: 0x0FFB [0x03] Work_Zone[1] = 66*
 86: 0x1000 [0x01] GOTO 0x0D70

SUBROUTINE_1003:
 87: 0x1003 [0x52] END_LOAD_SCHEDULER: End scheduler "w125" with entities [LocalPlayer, LocalPlayer], work=487*
 88: 0x1012 [0x45] LOAD_SCHEDULED_TASK: Load scheduler "w126" with entities [LocalPlayer, LocalPlayer], work=[487*, 0*]
 89: 0x1023 [0x5B] LOAD_EXT_SCHEDULER: Load scheduler "kru0" with entities [Kupofried (ID: 17339259/0x0108937B), Kupofried (ID: 17339259/0x0108937B)], work=2636*
 90: 0x1032 [0x1C] WAIT(90* ticks)
 91: 0x1035 [0xC5] LOAD_SCHEDULED_TASK_ALT3: Load scheduler 0x80106E69 for entities [Kupofried (ID: 17339259/0x0108937B), Kupofried (ID: 17339259/0x0108937B)], work=152*, param=24941
 92: 0x1046 [0x1C] WAIT(180* ticks)
 93: 0x1049 [0x1A] CALL_SUBROUTINE(address=0x12B4)
 94: 0x104C [0x1C] WAIT(30* ticks)
 95: 0x104F [0x6B] STOP_AND_IDLE: Kupofried (ID: 17339259/0x0108937B) stops current action and resets to idle (animation="idl0")
 96: 0x1058 [0x52] END_LOAD_SCHEDULER: End scheduler "w126" with entities [LocalPlayer, LocalPlayer], work=487*
 97: 0x1067 [0x45] LOAD_SCHEDULED_TASK: Load scheduler "w127" with entities [LocalPlayer, LocalPlayer], work=[487*, 0*]
 98: 0x1078 [0x1A] CALL_SUBROUTINE(address=0x1293)
 99: 0x107B [0x1C] WAIT(60* ticks)
100: 0x107E [0x5B] LOAD_EXT_SCHEDULER: Load scheduler "pas0" with entities [Kupofried (ID: 17339259/0x0108937B), Kupofried (ID: 17339259/0x0108937B)], work=2755*
101: 0x108D [0x03] Work_Zone[2] = 180*
102: 0x1092 [0x27] REQ_SET(priority=0x10, entity_id=??? (ID: 17339035/0x0108929B), tag_num=0x01)
103: 0x1099 [0x2B] Kupofried (ID: 17339259/0x0108937B) [8666*]:
    → "The deed is done, kupo. To thee I return thy coin in its magicked form."
104: 0x10A0 [0x23] WAIT_FOR_DIALOG_INTERACTION
105: 0x10A1 [0x2A] GET_REQ_LEVEL(level=16, entity_id=??? (ID: 17339035/0x0108929B))
106: 0x10A7 [0x2B] Kupofried (ID: 17339259/0x0108937B) [8667*]:
    → "With it in thy possession, do examine the veridical conflux. Thou shalt be whisked to the Walk of Echoes within the blinking of thy mind's eye."
107: 0x10AE [0x23] WAIT_FOR_DIALOG_INTERACTION
108: 0x10AF [0x52] END_LOAD_SCHEDULER: End scheduler "w127" with entities [LocalPlayer, LocalPlayer], work=487*
109: 0x10BE [0x45] LOAD_SCHEDULED_TASK: Load scheduler "w128" with entities [LocalPlayer, LocalPlayer], work=[487*, 0*]
110: 0x10CF [0x1C] WAIT(30* ticks)
111: 0x10D2 [0x4A] LocalPlayer looks at Unnamed NPC (ID: 17339036/0x0108929C)
112: 0x10DB [0x5B] LOAD_EXT_SCHEDULER: Load scheduler "wav0" with entities [Kupofried (ID: 17339259/0x0108937B), Kupofried (ID: 17339259/0x0108937B)], work=2647*
113: 0x10EA [0x2B] Kupofried (ID: 17339259/0x0108937B) [8668*]:
    → "May thine investigation be met with substantial success, kupo!"
114: 0x10F1 [0x23] WAIT_FOR_DIALOG_INTERACTION
115: 0x10F2 [0x03] Work_Zone[1] = 99*

SUBROUTINE_10F7:
116: 0x10F7 [0x1A] CALL_SUBROUTINE(address=0x1272)
117: 0x10FA [0x1C] WAIT(30* ticks)
118: 0x10FD [0x52] END_LOAD_SCHEDULER: End scheduler "w119" with entities [LocalPlayer, LocalPlayer], work=487*
119: 0x110C [0x52] END_LOAD_SCHEDULER: End scheduler "w128" with entities [LocalPlayer, LocalPlayer], work=487*
120: 0x111B [0x45] LOAD_SCHEDULED_TASK: Load scheduler "0blf" with entities [EventEntity, EventEntity], work=[487*, 0*]
121: 0x112C [0x46] CAMERA_CONTROL: Restore default settings
122: 0x112E [0x45] LOAD_SCHEDULED_TASK: Load scheduler "fdi2" with entities [LocalPlayer, LocalPlayer], work=[200*, 0*]
123: 0x113F [0x21] END_EVENT
124: 0x1140 [0x00] END_REQSTACK()
```

#### Data or dead code:

```
# Dead code (unreachable instructions):
     0x0F58 [0x01] GOTO 0x0F66
# Dead code (unreachable instructions):
     0x0FA5 [0x01] GOTO 0x0FA8
```

### Event 38

#### Metadata

| Field        | Value    |
|--------------|----------|
| Entrypoint   | 0x1141   |
| Data Size    | 59 bytes |
| Instructions | 13       |

```
      00 01 02 03 04 05 06 07  08 09 0A 0B 0C 0D 0E 0F
      -- -- -- -- -- -- -- --  -- -- -- -- -- -- -- --
1140:    42 06 01 10 24 6D 80  10 80 10 80 25 02 00 10   B...$m.....%...
1150: 10 80 00 7A 11 CD 6E 80  F0 FF FF 7F F0 FF FF 7F  ...z..n.........
1160: 6D 61 69 6E 10 80 1C 6F  80 92 01 F0 FF FF 7F 1C  main...o........
1170: 1F 80 03 01 10 5A 80 01  7A 11 21 00              .....Z..z.!.    
```

#### Opcodes

```
  0: 0x1141 [0x42] SET_CLI_EVENT_CANCEL_DATA()
  1: 0x1142 [0x06] Work_Zone[1] = 0
  2: 0x1145 [0x24] CREATE_DIALOG(message_id=8672*, default_option=0*, option_flags=0*)
    → "Warp to the Walk of Echoes? [Proceed./Not yet.]"
  3: 0x114C [0x25] WAIT_DIALOG_SELECT()
  4: 0x114D [0x02] IF !(Work_Zone[0] == 0*) GOTO 0x117A
  5: 0x1155 [0xCD] LOAD_SCHEDULED_TASK_ALT4: Load scheduler "main" with entities [LocalPlayer, LocalPlayer], work=[79*, 0*]
  6: 0x1166 [0x1C] WAIT(150* ticks)
  7: 0x1169 [0x92] LocalPlayer->Render.Flags3 ^= 0x01
  8: 0x116F [0x1C] WAIT(40* ticks)
  9: 0x1172 [0x03] Work_Zone[1] = 99*
 10: 0x1177 [0x01] GOTO 0x117A

SUBROUTINE_117A:
 11: 0x117A [0x21] END_EVENT
 12: 0x117B [0x00] END_REQSTACK()
```

### Event 43

#### Metadata

| Field        | Value     |
|--------------|-----------|
| Entrypoint   | 0x117C    |
| Data Size    | 108 bytes |
| Instructions | 28        |

```
      00 01 02 03 04 05 06 07  08 09 0A 0B 0C 0D 0E 0F
      -- -- -- -- -- -- -- --  -- -- -- -- -- -- -- --
1170:                                      06 00 00 03              ....
1180: 02 10 51 80 03 03 10 70  80 48 71 80 23 24 57 80  ..Q....p.Hq.#$W.
1190: 10 80 10 80 25 02 00 10  10 80 00 A9 11 03 01 10  ....%...........
11A0: 72 80 43 00 43 01 01 BA  11 02 00 10 1D 80 00 BA  r.C.C...........
11B0: 11 03 01 10 6A 80 21 01  BA 11 03 01 10 5A 80 43  ....j.!......Z.C
11C0: 00 43 01 02 09 10 51 80  04 DD 11 03 02 10 51 80  .C....Q.......Q.
11D0: 03 03 10 70 80 03 01 10  5A 80 01 E6 11 48 73 80  ...p....Z....Hs.
11E0: 23 03 01 10 5E 80 21 00                           #...^.!.        
```

#### Opcodes

```
  0: 0x117C [0x06] ExtData[1]->WorkLocal[0] = 0
  1: 0x117F [0x03] Work_Zone[2] = 1000*
  2: 0x1184 [0x03] Work_Zone[3] = 1599*
  3: 0x1189 [0x48] [System] [8676*]:
    → "Here, you may obtain $6, but it will cost you $0 gil."
  4: 0x118C [0x23] WAIT_FOR_DIALOG_INTERACTION
  5: 0x118D [0x24] CREATE_DIALOG(message_id=8659*, default_option=0*, option_flags=0*)
    → "Hand over $0 gil? [Gladly!/On second thought...]"
  6: 0x1194 [0x25] WAIT_DIALOG_SELECT()
  7: 0x1195 [0x02] IF !(Work_Zone[0] == 0*) GOTO 0x11A9
  8: 0x119D [0x03] Work_Zone[1] = 999*
  9: 0x11A2 [0x43] SEND_EVENT_UPDATE: Send pending tag to server (packet 0x005B)
 10: 0x11A4 [0x43] SEND_EVENT_UPDATE: Check pending flag (skip if not pending)
 11: 0x11A6 [0x01] GOTO 0x11BA
 12: 0x11A9 [0x02] IF !(Work_Zone[0] == 1*) GOTO 0x11BA
 13: 0x11B1 [0x03] Work_Zone[1] = 1073741824*
 14: 0x11B6 [0x21] END_EVENT

SUBROUTINE_11BA:
 15: 0x11BA [0x03] Work_Zone[1] = 99*
 16: 0x11BF [0x43] SEND_EVENT_UPDATE: Send pending tag to server (packet 0x005B)
 17: 0x11C1 [0x43] SEND_EVENT_UPDATE: Check pending flag (skip if not pending)
 18: 0x11C3 [0x02] IF !(Work_Zone[9] < 1000*) GOTO 0x11DD
 19: 0x11CB [0x03] Work_Zone[2] = 1000*
 20: 0x11D0 [0x03] Work_Zone[3] = 1599*
 21: 0x11D5 [0x03] Work_Zone[1] = 99*
 22: 0x11DA [0x01] GOTO 0x11E6
 23: 0x11DD [0x48] [System] [6398*]:
    → "You do not have enough gil."
 24: 0x11E0 [0x23] WAIT_FOR_DIALOG_INTERACTION
 25: 0x11E1 [0x03] Work_Zone[1] = 66*

SUBROUTINE_11E6:
 26: 0x11E6 [0x21] END_EVENT
 27: 0x11E7 [0x00] END_REQSTACK()
```

#### Data or dead code:

```
# Dead code (unreachable instructions):
     0x11B7 [0x01] GOTO 0x11BA
```

### Event 44

#### Metadata

| Field        | Value     |
|--------------|-----------|
| Entrypoint   | 0x11E8    |
| Data Size    | 696 bytes |
| Instructions | 12        |

```
      00 01 02 03 04 05 06 07  08 09 0A 0B 0C 0D 0E 0F
      -- -- -- -- -- -- -- --  -- -- -- -- -- -- -- --
11E0:                          42 06 01 10 24 6D 80 10          B...$m..
11F0: 80 10 80 25 02 00 10 10  80 00 0D 12 03 01 10 72  ...%...........r
1200: 80 43 00 43 01 03 01 10  5A 80 01 0D 12 21 00 45  .C.C....Z....!.E
1210: 63 80 F0 FF FF 7F F0 FF  FF 7F 66 64 69 30 10 80  c.........fdi0..
1220: 55 63 80 F0 FF FF 7F F0  FF FF 7F 66 64 69 30 1B  Uc.........fdi0.
1230: 45 63 80 F0 FF FF 7F F0  FF FF 7F 66 64 6F 30 10  Ec.........fdo0.
1240: 80 55 63 80 F0 FF FF 7F  F0 FF FF 7F 66 64 6F 30  .Uc.........fdo0
1250: 1B 45 63 80 F0 FF FF 7F  F0 FF FF 7F 66 64 69 31  .Ec.........fdi1
1260: 10 80 55 63 80 F0 FF FF  7F F0 FF FF 7F 66 64 69  ..Uc.........fdi
1270: 31 1B 45 63 80 F0 FF FF  7F F0 FF FF 7F 66 64 6F  1.Ec.........fdo
1280: 31 10 80 55 63 80 F0 FF  FF 7F F0 FF FF 7F 66 64  1..Uc.........fd
1290: 6F 31 1B 45 74 80 F0 FF  FF 7F F0 FF FF 7F 77 68  o1.Et.........wh
12A0: 69 31 10 80 55 74 80 F0  FF FF 7F F0 FF FF 7F 77  i1..Ut.........w
12B0: 68 69 31 1B 45 74 80 F0  FF FF 7F F0 FF FF 7F 77  hi1.Et.........w
12C0: 68 6F 31 10 80 55 74 80  F0 FF FF 7F F0 FF FF 7F  ho1..Ut.........
12D0: 77 68 6F 31 1B 45 74 80  F0 FF FF 7F F0 FF FF 7F  who1.Et.........
12E0: 77 68 6F 32 10 80 55 74  80 F0 FF FF 7F F0 FF FF  who2..Ut........
12F0: 7F 77 68 6F 32 1B 45 74  80 F0 FF FF 7F F0 FF FF  .who2.Et........
1300: 7F 77 68 6F 33 10 80 55  74 80 F0 FF FF 7F F0 FF  .who3..Ut.......
1310: FF 7F 77 68 6F 33 1B 62  1D 80 F0 FF FF 7F F0 FF  ..who3.b........
1320: FF 7F 6D 61 69 6E 10 80  1C 43 80 45 63 80 F0 FF  ..main...C.Ec...
1330: FF 7F F0 FF FF 7F 66 64  6F 31 10 80 55 63 80 F0  ......fdo1..Uc..
1340: FF FF 7F F0 FF FF 7F 66  64 6F 31 1B 45 63 80 F0  .......fdo1.Ec..
1350: FF FF 7F F0 FF FF 7F 66  64 69 31 10 80 62 1E 80  .......fdi1..b..
1360: F0 FF FF 7F F0 FF FF 7F  6D 61 69 6E 10 80 1C 0D  ........main....
1370: 80 55 63 80 F0 FF FF 7F  F0 FF FF 7F 66 64 69 31  .Uc.........fdi1
1380: 1B 45 63 80 F0 FF FF 7F  F0 FF FF 7F 62 6C 6F 6E  .Ec.........blon
1390: 10 80 45 74 80 F0 FF FF  7F F0 FF FF 7F 62 6C 6F  ..Et.........blo
13A0: 6E 10 80 1B 45 74 80 F0  FF FF 7F F0 FF FF 7F 77  n...Et.........w
13B0: 68 69 30 10 80 55 74 80  F0 FF FF 7F F0 FF FF 7F  hi0..Ut.........
13C0: 77 68 69 30 1B 45 74 80  F0 FF FF 7F F0 FF FF 7F  whi0.Et.........
13D0: 77 68 6F 30 10 80 55 74  80 F0 FF FF 7F F0 FF FF  who0..Ut........
13E0: 7F 77 68 6F 30 1B 45 75  80 F0 FF FF 7F F0 FF FF  .who0.Eu........
13F0: 7F 65 66 6F 6E 10 80 55  75 80 F0 FF FF 7F F0 FF  .efon..Uu.......
1400: FF 7F 65 66 6F 6E 1B 45  63 80 F0 FF FF 7F F0 FF  ..efon.Ec.......
1410: FF 7F 66 64 69 73 10 80  1B 45 63 80 F0 FF FF 7F  ..fdis...Ec.....
1420: F0 FF FF 7F 66 64 6F 73  10 80 55 63 80 F0 FF FF  ....fdos..Uc....
1430: 7F F0 FF FF 7F 66 64 6F  73 1B 45 63 80 F0 FF FF  .....fdos.Ec....
1440: 7F F0 FF FF 7F 66 64 69  66 10 80 1B 45 63 80 F0  .....fdif...Ec..
1450: FF FF 7F F0 FF FF 7F 66  64 6F 66 10 80 55 63 80  .......fdof..Uc.
1460: F0 FF FF 7F F0 FF FF 7F  66 64 6F 66 1B 45 63 80  ........fdof.Ec.
1470: F0 FF FF 7F F0 FF FF 7F  66 64 69 70 10 80 1B 45  ........fdip...E
1480: 63 80 F0 FF FF 7F F0 FF  FF 7F 66 64 6F 70 10 80  c.........fdop..
1490: 55 63 80 F0 FF FF 7F F0  FF FF 7F 66 64 6F 70 1B  Uc.........fdop.
```

#### Opcodes

```
  0: 0x11E8 [0x42] SET_CLI_EVENT_CANCEL_DATA()
  1: 0x11E9 [0x06] Work_Zone[1] = 0
  2: 0x11EC [0x24] CREATE_DIALOG(message_id=8672*, default_option=0*, option_flags=0*)
    → "Warp to the Walk of Echoes? [Proceed./Not yet.]"
  3: 0x11F3 [0x25] WAIT_DIALOG_SELECT()
  4: 0x11F4 [0x02] IF !(Work_Zone[0] == 0*) GOTO 0x120D
  5: 0x11FC [0x03] Work_Zone[1] = 999*
  6: 0x1201 [0x43] SEND_EVENT_UPDATE: Send pending tag to server (packet 0x005B)
  7: 0x1203 [0x43] SEND_EVENT_UPDATE: Check pending flag (skip if not pending)
  8: 0x1205 [0x03] Work_Zone[1] = 99*
  9: 0x120A [0x01] GOTO 0x120D

SUBROUTINE_120D:
 10: 0x120D [0x21] END_EVENT
 11: 0x120E [0x00] END_REQSTACK()
```

#### Data or dead code:

```
# Dead code (unreachable instructions):
     0x120F [0x45] LOAD_SCHEDULED_TASK: Load scheduler "fdi0" with entities [LocalPlayer, LocalPlayer], work=[200*, 0*]
     0x1220 [0x55] WAIT_LOAD_SCHEDULER: Wait for scheduler "fdi0" with entities [LocalPlayer, LocalPlayer], work=200*
     0x122F [0x1B] RETURN
     0x1230 [0x45] LOAD_SCHEDULED_TASK: Load scheduler "fdo0" with entities [LocalPlayer, LocalPlayer], work=[200*, 0*]
     0x1241 [0x55] WAIT_LOAD_SCHEDULER: Wait for scheduler "fdo0" with entities [LocalPlayer, LocalPlayer], work=200*
     0x1250 [0x1B] RETURN
     0x1251 [0x45] LOAD_SCHEDULED_TASK: Load scheduler "fdi1" with entities [LocalPlayer, LocalPlayer], work=[200*, 0*]
     0x1262 [0x55] WAIT_LOAD_SCHEDULER: Wait for scheduler "fdi1" with entities [LocalPlayer, LocalPlayer], work=200*
     0x1271 [0x1B] RETURN
     0x1272 [0x45] LOAD_SCHEDULED_TASK: Load scheduler "fdo1" with entities [LocalPlayer, LocalPlayer], work=[200*, 0*]
     0x1283 [0x55] WAIT_LOAD_SCHEDULER: Wait for scheduler "fdo1" with entities [LocalPlayer, LocalPlayer], work=200*
     0x1292 [0x1B] RETURN
     0x1293 [0x45] LOAD_SCHEDULED_TASK: Load scheduler "whi1" with entities [LocalPlayer, LocalPlayer], work=[201*, 0*]
     0x12A4 [0x55] WAIT_LOAD_SCHEDULER: Wait for scheduler "whi1" with entities [LocalPlayer, LocalPlayer], work=201*
     0x12B3 [0x1B] RETURN
     0x12B4 [0x45] LOAD_SCHEDULED_TASK: Load scheduler "who1" with entities [LocalPlayer, LocalPlayer], work=[201*, 0*]
     0x12C5 [0x55] WAIT_LOAD_SCHEDULER: Wait for scheduler "who1" with entities [LocalPlayer, LocalPlayer], work=201*
     0x12D4 [0x1B] RETURN
     0x12D5 [0x45] LOAD_SCHEDULED_TASK: Load scheduler "who2" with entities [LocalPlayer, LocalPlayer], work=[201*, 0*]
     0x12E6 [0x55] WAIT_LOAD_SCHEDULER: Wait for scheduler "who2" with entities [LocalPlayer, LocalPlayer], work=201*
     0x12F5 [0x1B] RETURN
     0x12F6 [0x45] LOAD_SCHEDULED_TASK: Load scheduler "who3" with entities [LocalPlayer, LocalPlayer], work=[201*, 0*]
     0x1307 [0x55] WAIT_LOAD_SCHEDULER: Wait for scheduler "who3" with entities [LocalPlayer, LocalPlayer], work=201*
     0x1316 [0x1B] RETURN
     0x1317 [0x62] LOAD_EVENT_SCHEDULER: Load scheduler "main" with entities [LocalPlayer, LocalPlayer], work=[1*, 0*]
     0x1328 [0x1C] WAIT(45* ticks)
     0x132B [0x45] LOAD_SCHEDULED_TASK: Load scheduler "fdo1" with entities [LocalPlayer, LocalPlayer], work=[200*, 0*]
     0x133C [0x55] WAIT_LOAD_SCHEDULER: Wait for scheduler "fdo1" with entities [LocalPlayer, LocalPlayer], work=200*
     0x134B [0x1B] RETURN
     0x134C [0x45] LOAD_SCHEDULED_TASK: Load scheduler "fdi1" with entities [LocalPlayer, LocalPlayer], work=[200*, 0*]
     0x135D [0x62] LOAD_EVENT_SCHEDULER: Load scheduler "main" with entities [LocalPlayer, LocalPlayer], work=[2*, 0*]
     0x136E [0x1C] WAIT(30* ticks)
     0x1371 [0x55] WAIT_LOAD_SCHEDULER: Wait for scheduler "fdi1" with entities [LocalPlayer, LocalPlayer], work=200*
     0x1380 [0x1B] RETURN
     0x1381 [0x45] LOAD_SCHEDULED_TASK: Load scheduler "blon" with entities [LocalPlayer, LocalPlayer], work=[200*, 0*]
     0x1392 [0x45] LOAD_SCHEDULED_TASK: Load scheduler "blon" with entities [LocalPlayer, LocalPlayer], work=[201*, 0*]
     0x13A3 [0x1B] RETURN
     0x13A4 [0x45] LOAD_SCHEDULED_TASK: Load scheduler "whi0" with entities [LocalPlayer, LocalPlayer], work=[201*, 0*]
     0x13B5 [0x55] WAIT_LOAD_SCHEDULER: Wait for scheduler "whi0" with entities [LocalPlayer, LocalPlayer], work=201*
     0x13C4 [0x1B] RETURN
     0x13C5 [0x45] LOAD_SCHEDULED_TASK: Load scheduler "who0" with entities [LocalPlayer, LocalPlayer], work=[201*, 0*]
     0x13D6 [0x55] WAIT_LOAD_SCHEDULER: Wait for scheduler "who0" with entities [LocalPlayer, LocalPlayer], work=201*
     0x13E5 [0x1B] RETURN
     0x13E6 [0x45] LOAD_SCHEDULED_TASK: Load scheduler "efon" with entities [LocalPlayer, LocalPlayer], work=[215*, 0*]
     0x13F7 [0x55] WAIT_LOAD_SCHEDULER: Wait for scheduler "efon" with entities [LocalPlayer, LocalPlayer], work=215*
     0x1406 [0x1B] RETURN
     0x1407 [0x45] LOAD_SCHEDULED_TASK: Load scheduler "fdis" with entities [LocalPlayer, LocalPlayer], work=[200*, 0*]
     0x1418 [0x1B] RETURN
     0x1419 [0x45] LOAD_SCHEDULED_TASK: Load scheduler "fdos" with entities [LocalPlayer, LocalPlayer], work=[200*, 0*]
     0x142A [0x55] WAIT_LOAD_SCHEDULER: Wait for scheduler "fdos" with entities [LocalPlayer, LocalPlayer], work=200*
     0x1439 [0x1B] RETURN
     0x143A [0x45] LOAD_SCHEDULED_TASK: Load scheduler "fdif" with entities [LocalPlayer, LocalPlayer], work=[200*, 0*]
     0x144B [0x1B] RETURN
     0x144C [0x45] LOAD_SCHEDULED_TASK: Load scheduler "fdof" with entities [LocalPlayer, LocalPlayer], work=[200*, 0*]
     0x145D [0x55] WAIT_LOAD_SCHEDULER: Wait for scheduler "fdof" with entities [LocalPlayer, LocalPlayer], work=200*
     0x146C [0x1B] RETURN
     0x146D [0x45] LOAD_SCHEDULED_TASK: Load scheduler "fdip" with entities [LocalPlayer, LocalPlayer], work=[200*, 0*]
     0x147E [0x1B] RETURN
     0x147F [0x45] LOAD_SCHEDULED_TASK: Load scheduler "fdop" with entities [LocalPlayer, LocalPlayer], work=[200*, 0*]
     0x1490 [0x55] WAIT_LOAD_SCHEDULER: Wait for scheduler "fdop" with entities [LocalPlayer, LocalPlayer], work=200*
     0x149F [0x1B] RETURN
```
