# 17339118 - kisi05

## Common Data

| Field            | Value                   |
|------------------|-------------------------|
| Zone             | Xarcabard [S] (ID: 137) |
| Block Size       | 416 bytes               |
| Total Events     | 14                      |
| References Count | 31                      |

## List of Events

| Event ID                   | Entrypoint   |   Size |   Instructions |
|----------------------------|--------------|--------|----------------|
| [65535](#event-65535)      | 0x0000       |      1 |              1 |
| [17](#event-17)            | 0x0001       |      1 |              1 |
| [65535.1](#event-655351)   | 0x0002       |     30 |              4 |
| [65535.2](#event-655352)   | 0x0020       |     21 |              2 |
| [65535.3](#event-655353)   | 0x0035       |     21 |              2 |
| [65535.4](#event-655354)   | 0x004A       |     14 |              4 |
| [65535.5](#event-655355)   | 0x0058       |     14 |              4 |
| [31](#event-31)            | 0x0066       |      1 |              1 |
| [65535.6](#event-655356)   | 0x0067       |     26 |              3 |
| [42](#event-42)            | 0x0081       |      1 |              1 |
| [65535.7](#event-655357)   | 0x0082       |     21 |              2 |
| [65535.8](#event-655358)   | 0x0097       |     14 |              4 |
| [65535.9](#event-655359)   | 0x00A5       |     26 |              3 |
| [65535.10](#event-6553510) | 0x00BF       |     26 |              3 |

## DAT References (imed_data)

|   Index | Hex Value   |   Dec Value |
|---------|-------------|-------------|
|       0 | 0x0003      |           3 |
|       1 | 0x0008      |           8 |
|       2 | 0x000D      |          13 |
|       3 | 0x00DD      |         221 |
|       4 | 0x000C      |          12 |
|       5 | 0x00FB      |         251 |
|       6 | 0x001B      |          27 |
|       7 | 0x0064      |         100 |
|       8 | 0x0004      |           4 |
|       9 | 0x0002      |           2 |
|      10 | 0x0000      |           0 |
|      11 | 0x81352     |      529234 |
|      12 | 0xFFFBC5C1  |  4294690241 |
|      13 | 0x0103      |         259 |
|      14 | 0x82EC0     |      536256 |
|      15 | 0xFFFBDAF0  |  4294695664 |
|      16 | 0xFFFFFFF0  |  4294967280 |
|      17 | 0x0001      |           1 |
|      18 | 0x0038      |          56 |
|      19 | 0x000B      |          11 |
|      20 | 0x7FDAF     |      523695 |
|      21 | 0xFFFBC102  |  4294689026 |
|      22 | 0xFFFFFFF1  |  4294967281 |
|      23 | 0x0005      |           5 |
|      24 | 0x00CD      |         205 |
|      25 | 0x00BA      |         186 |
|      26 | 0x0094      |         148 |
|      27 | 0x0131      |         305 |
|      28 | 0x001A      |          26 |
|      29 | 0x0049      |          73 |
|      30 | 0x00B9      |         185 |

## Events

### Event 65535

#### Metadata

| Field        | Value   |
|--------------|---------|
| Entrypoint   | 0x0000  |
| Data Size    | 1 bytes |
| Instructions | 1       |

```
      00 01 02 03 04 05 06 07  08 09 0A 0B 0C 0D 0E 0F
      -- -- -- -- -- -- -- --  -- -- -- -- -- -- -- --
0000: 00                                                .               
```

#### Opcodes

```
  0: 0x0000 [0x00] END_REQSTACK()
```

### Event 17

#### Metadata

| Field        | Value   |
|--------------|---------|
| Entrypoint   | 0x0001  |
| Data Size    | 1 bytes |
| Instructions | 1       |

```
      00 01 02 03 04 05 06 07  08 09 0A 0B 0C 0D 0E 0F
      -- -- -- -- -- -- -- --  -- -- -- -- -- -- -- --
0000:    00                                              .              
```

#### Opcodes

```
  0: 0x0001 [0x00] END_REQSTACK()
```

### Event 65535.1

#### Metadata

| Field        | Value    |
|--------------|----------|
| Entrypoint   | 0x0002   |
| Data Size    | 30 bytes |
| Instructions | 4        |

```
      00 01 02 03 04 05 06 07  08 09 0A 0B 0C 0D 0E 0F
      -- -- -- -- -- -- -- --  -- -- -- -- -- -- -- --
0000:       B6 0B 00 80 01 80  02 80 03 80 02 80 04 80    ..............
0010: 03 80 05 80 06 80 B6 0F  07 80 80 EE 92 08 01 00  ................
```

#### Opcodes

```
  0: 0x0002 [0xB6] ENTITY_APPEARANCE_HANDLER(case=Full entity look, race=3*, hair=8*, head=13*, body=221*, hands=13*, legs=12*, feet=221*, main=251*, sub=27*)
  1: 0x0016 [0xB6] ENTITY_APPEARANCE_HANDLER(case=Model size, value=100*)
  2: 0x001A [0x80] LOAD_WAIT(entity=kisi05 (ID: 17339118/0x010892EE))
  3: 0x001F [0x00] END_REQSTACK()
```

### Event 65535.2

#### Metadata

| Field        | Value    |
|--------------|----------|
| Entrypoint   | 0x0020   |
| Data Size    | 21 bytes |
| Instructions | 2        |

```
      00 01 02 03 04 05 06 07  08 09 0A 0B 0C 0D 0E 0F
      -- -- -- -- -- -- -- --  -- -- -- -- -- -- -- --
0020: B6 0B 00 80 08 80 02 80  03 80 02 80 04 80 03 80  ................
0030: 05 80 06 80 00                                    .....           
```

#### Opcodes

```
  0: 0x0020 [0xB6] ENTITY_APPEARANCE_HANDLER(case=Full entity look, race=3*, hair=4*, head=13*, body=221*, hands=13*, legs=12*, feet=221*, main=251*, sub=27*)
  1: 0x0034 [0x00] END_REQSTACK()
```

### Event 65535.3

#### Metadata

| Field        | Value    |
|--------------|----------|
| Entrypoint   | 0x0035   |
| Data Size    | 21 bytes |
| Instructions | 2        |

```
      00 01 02 03 04 05 06 07  08 09 0A 0B 0C 0D 0E 0F
      -- -- -- -- -- -- -- --  -- -- -- -- -- -- -- --
0030:                B6 0B 01  80 00 80 09 80 09 80 09       ...........
0040: 80 09 80 09 80 05 80 0A  80 00                    ..........      
```

#### Opcodes

```
  0: 0x0035 [0xB6] ENTITY_APPEARANCE_HANDLER(case=Full entity look, race=8*, hair=3*, head=2*, body=2*, hands=2*, legs=2*, feet=2*, main=251*, sub=0*)
  1: 0x0049 [0x00] END_REQSTACK()
```

### Event 65535.4

#### Metadata

| Field        | Value    |
|--------------|----------|
| Entrypoint   | 0x004A   |
| Data Size    | 14 bytes |
| Instructions | 4        |

```
      00 01 02 03 04 05 06 07  08 09 0A 0B 0C 0D 0E 0F
      -- -- -- -- -- -- -- --  -- -- -- -- -- -- -- --
0040:                                32 02 80 1F 00 0B            2.....
0050: 80 0C 80 0D 80 1F 01 00                           ........        
```

#### Opcodes

```
  0: 0x004A [0x32] ExtData[1]->MainSpeed = 13* * 0.1
  1: 0x004D [0x1F] MOVE_ENTITY: EventEntity moves to X=529.234*, Z=-277.055*, Y=0.259*
  2: 0x0055 [0x1F] MOVE_ENTITY: Update entity position (mode=1)
  3: 0x0057 [0x00] END_REQSTACK()
```

### Event 65535.5

#### Metadata

| Field        | Value    |
|--------------|----------|
| Entrypoint   | 0x0058   |
| Data Size    | 14 bytes |
| Instructions | 4        |

```
      00 01 02 03 04 05 06 07  08 09 0A 0B 0C 0D 0E 0F
      -- -- -- -- -- -- -- --  -- -- -- -- -- -- -- --
0050:                          32 02 80 1F 00 0E 80 0F          2.......
0060: 80 10 80 1F 01 00                                 ......          
```

#### Opcodes

```
  0: 0x0058 [0x32] ExtData[1]->MainSpeed = 13* * 0.1
  1: 0x005B [0x1F] MOVE_ENTITY: EventEntity moves to X=536.256*, Z=-271.632*, Y=-0.016*
  2: 0x0063 [0x1F] MOVE_ENTITY: Update entity position (mode=1)
  3: 0x0065 [0x00] END_REQSTACK()
```

### Event 31

#### Metadata

| Field        | Value   |
|--------------|---------|
| Entrypoint   | 0x0066  |
| Data Size    | 1 bytes |
| Instructions | 1       |

```
      00 01 02 03 04 05 06 07  08 09 0A 0B 0C 0D 0E 0F
      -- -- -- -- -- -- -- --  -- -- -- -- -- -- -- --
0060:                   00                                    .         
```

#### Opcodes

```
  0: 0x0066 [0x00] END_REQSTACK()
```

### Event 65535.6

#### Metadata

| Field        | Value    |
|--------------|----------|
| Entrypoint   | 0x0067   |
| Data Size    | 26 bytes |
| Instructions | 3        |

```
      00 01 02 03 04 05 06 07  08 09 0A 0B 0C 0D 0E 0F
      -- -- -- -- -- -- -- --  -- -- -- -- -- -- -- --
0060:                      B6  0B 00 80 11 80 12 80 03         .........
0070: 80 04 80 04 80 04 80 05  80 0A 80 80 EE 92 08 01  ................
0080: 00                                                .               
```

#### Opcodes

```
  0: 0x0067 [0xB6] ENTITY_APPEARANCE_HANDLER(case=Full entity look, race=3*, hair=1*, head=56*, body=221*, hands=12*, legs=12*, feet=12*, main=251*, sub=0*)
  1: 0x007B [0x80] LOAD_WAIT(entity=kisi05 (ID: 17339118/0x010892EE))
  2: 0x0080 [0x00] END_REQSTACK()
```

### Event 42

#### Metadata

| Field        | Value   |
|--------------|---------|
| Entrypoint   | 0x0081  |
| Data Size    | 1 bytes |
| Instructions | 1       |

```
      00 01 02 03 04 05 06 07  08 09 0A 0B 0C 0D 0E 0F
      -- -- -- -- -- -- -- --  -- -- -- -- -- -- -- --
0080:    00                                              .              
```

#### Opcodes

```
  0: 0x0081 [0x00] END_REQSTACK()
```

### Event 65535.7

#### Metadata

| Field        | Value    |
|--------------|----------|
| Entrypoint   | 0x0082   |
| Data Size    | 21 bytes |
| Instructions | 2        |

```
      00 01 02 03 04 05 06 07  08 09 0A 0B 0C 0D 0E 0F
      -- -- -- -- -- -- -- --  -- -- -- -- -- -- -- --
0080:       B6 0B 11 80 13 80  09 80 09 80 09 80 09 80    ..............
0090: 09 80 05 80 0A 80 00                              .......         
```

#### Opcodes

```
  0: 0x0082 [0xB6] ENTITY_APPEARANCE_HANDLER(case=Full entity look, race=1*, hair=11*, head=2*, body=2*, hands=2*, legs=2*, feet=2*, main=251*, sub=0*)
  1: 0x0096 [0x00] END_REQSTACK()
```

### Event 65535.8

#### Metadata

| Field        | Value    |
|--------------|----------|
| Entrypoint   | 0x0097   |
| Data Size    | 14 bytes |
| Instructions | 4        |

```
      00 01 02 03 04 05 06 07  08 09 0A 0B 0C 0D 0E 0F
      -- -- -- -- -- -- -- --  -- -- -- -- -- -- -- --
0090:                      32  02 80 1F 00 14 80 15 80         2........
00A0: 16 80 1F 01 00                                    .....           
```

#### Opcodes

```
  0: 0x0097 [0x32] ExtData[1]->MainSpeed = 13* * 0.1
  1: 0x009A [0x1F] MOVE_ENTITY: EventEntity moves to X=523.695*, Z=-278.270*, Y=-0.015*
  2: 0x00A2 [0x1F] MOVE_ENTITY: Update entity position (mode=1)
  3: 0x00A4 [0x00] END_REQSTACK()
```

### Event 65535.9

#### Metadata

| Field        | Value    |
|--------------|----------|
| Entrypoint   | 0x00A5   |
| Data Size    | 26 bytes |
| Instructions | 3        |

```
      00 01 02 03 04 05 06 07  08 09 0A 0B 0C 0D 0E 0F
      -- -- -- -- -- -- -- --  -- -- -- -- -- -- -- --
00A0:                B6 0B 17  80 02 80 18 80 19 80 1A       ...........
00B0: 80 1A 80 1A 80 1B 80 0A  80 80 EE 92 08 01 00     ............... 
```

#### Opcodes

```
  0: 0x00A5 [0xB6] ENTITY_APPEARANCE_HANDLER(case=Full entity look, race=5*, hair=13*, head=205*, body=186*, hands=148*, legs=148*, feet=148*, main=305*, sub=0*)
  1: 0x00B9 [0x80] LOAD_WAIT(entity=kisi05 (ID: 17339118/0x010892EE))
  2: 0x00BE [0x00] END_REQSTACK()
```

### Event 65535.10

#### Metadata

| Field        | Value    |
|--------------|----------|
| Entrypoint   | 0x00BF   |
| Data Size    | 26 bytes |
| Instructions | 3        |

```
      00 01 02 03 04 05 06 07  08 09 0A 0B 0C 0D 0E 0F
      -- -- -- -- -- -- -- --  -- -- -- -- -- -- -- --
00B0:                                               B6                 .
00C0: 0B 09 80 1C 80 0A 80 1D  80 1D 80 1D 80 1D 80 1E  ................
00D0: 80 0A 80 80 EE 92 08 01  00                       .........       
```

#### Opcodes

```
  0: 0x00BF [0xB6] ENTITY_APPEARANCE_HANDLER(case=Full entity look, race=2*, hair=26*, head=0*, body=73*, hands=73*, legs=73*, feet=73*, main=185*, sub=0*)
  1: 0x00D3 [0x80] LOAD_WAIT(entity=kisi05 (ID: 17339118/0x010892EE))
  2: 0x00D8 [0x00] END_REQSTACK()
```
