# 17339115 - kisi02

## Common Data

| Field            | Value                   |
|------------------|-------------------------|
| Zone             | Xarcabard [S] (ID: 137) |
| Block Size       | 416 bytes               |
| Total Events     | 11                      |
| References Count | 29                      |

## List of Events

| Event ID                 | Entrypoint   |   Size |   Instructions |
|--------------------------|--------------|--------|----------------|
| [65535](#event-65535)    | 0x0000       |      1 |              1 |
| [17](#event-17)          | 0x0001       |      1 |              1 |
| [65535.1](#event-655351) | 0x0002       |     30 |              4 |
| [65535.2](#event-655352) | 0x0020       |     21 |              2 |
| [65535.3](#event-655353) | 0x0035       |     33 |              7 |
| [31](#event-31)          | 0x0056       |      1 |              1 |
| [65535.4](#event-655354) | 0x0057       |     26 |              3 |
| [42](#event-42)          | 0x0071       |      1 |              1 |
| [65535.5](#event-655355) | 0x0072       |     25 |              3 |
| [65535.6](#event-655356) | 0x008B       |     70 |              8 |
| [65535.7](#event-655357) | 0x00D1       |     30 |              4 |

## DAT References (imed_data)

|   Index | Hex Value   |   Dec Value |
|---------|-------------|-------------|
|       0 | 0x0003      |           3 |
|       1 | 0x0008      |           8 |
|       2 | 0x000D      |          13 |
|       3 | 0x00DD      |         221 |
|       4 | 0x000C      |          12 |
|       5 | 0x00FB      |         251 |
|       6 | 0x001B      |          27 |
|       7 | 0x0064      |         100 |
|       8 | 0x0007      |           7 |
|       9 | 0x0000      |           0 |
|      10 | 0x0089      |         137 |
|      11 | 0x0010      |          16 |
|      12 | 0x000E      |          14 |
|      13 | 0x7F988     |      522632 |
|      14 | 0xFFFBB0C2  |  4294684866 |
|      15 | 0x001E      |          30 |
|      16 | 0x003B      |          59 |
|      17 | 0x0004      |           4 |
|      18 | 0x0038      |          56 |
|      19 | 0x007D      |         125 |
|      20 | 0x0060      |          96 |
|      21 | 0x006E      |         110 |
|      22 | 0x0088      |         136 |
|      23 | 0x000A      |          10 |
|      24 | 0x0005      |           5 |
|      25 | 0x00CD      |         205 |
|      26 | 0x00BA      |         186 |
|      27 | 0x0094      |         148 |
|      28 | 0x0131      |         305 |

## Events

### Event 65535

#### Metadata

| Field        | Value   |
|--------------|---------|
| Entrypoint   | 0x0000  |
| Data Size    | 1 bytes |
| Instructions | 1       |

```
      00 01 02 03 04 05 06 07  08 09 0A 0B 0C 0D 0E 0F
      -- -- -- -- -- -- -- --  -- -- -- -- -- -- -- --
0000: 00                                                .               
```

#### Opcodes

```
  0: 0x0000 [0x00] END_REQSTACK()
```

### Event 17

#### Metadata

| Field        | Value   |
|--------------|---------|
| Entrypoint   | 0x0001  |
| Data Size    | 1 bytes |
| Instructions | 1       |

```
      00 01 02 03 04 05 06 07  08 09 0A 0B 0C 0D 0E 0F
      -- -- -- -- -- -- -- --  -- -- -- -- -- -- -- --
0000:    00                                              .              
```

#### Opcodes

```
  0: 0x0001 [0x00] END_REQSTACK()
```

### Event 65535.1

#### Metadata

| Field        | Value    |
|--------------|----------|
| Entrypoint   | 0x0002   |
| Data Size    | 30 bytes |
| Instructions | 4        |

```
      00 01 02 03 04 05 06 07  08 09 0A 0B 0C 0D 0E 0F
      -- -- -- -- -- -- -- --  -- -- -- -- -- -- -- --
0000:       B6 0B 00 80 01 80  02 80 03 80 02 80 04 80    ..............
0010: 03 80 05 80 06 80 B6 0F  07 80 80 EB 92 08 01 00  ................
```

#### Opcodes

```
  0: 0x0002 [0xB6] ENTITY_APPEARANCE_HANDLER(case=Full entity look, race=3*, hair=8*, head=13*, body=221*, hands=13*, legs=12*, feet=221*, main=251*, sub=27*)
  1: 0x0016 [0xB6] ENTITY_APPEARANCE_HANDLER(case=Model size, value=100*)
  2: 0x001A [0x80] LOAD_WAIT(entity=kisi02 (ID: 17339115/0x010892EB))
  3: 0x001F [0x00] END_REQSTACK()
```

### Event 65535.2

#### Metadata

| Field        | Value    |
|--------------|----------|
| Entrypoint   | 0x0020   |
| Data Size    | 21 bytes |
| Instructions | 2        |

```
      00 01 02 03 04 05 06 07  08 09 0A 0B 0C 0D 0E 0F
      -- -- -- -- -- -- -- --  -- -- -- -- -- -- -- --
0020: B6 0B 08 80 09 80 0A 80  0B 80 0B 80 0C 80 02 80  ................
0030: 05 80 09 80 00                                    .....           
```

#### Opcodes

```
  0: 0x0020 [0xB6] ENTITY_APPEARANCE_HANDLER(case=Full entity look, race=7*, hair=0*, head=137*, body=16*, hands=16*, legs=14*, feet=13*, main=251*, sub=0*)
  1: 0x0034 [0x00] END_REQSTACK()
```

### Event 65535.3

#### Metadata

| Field        | Value    |
|--------------|----------|
| Entrypoint   | 0x0035   |
| Data Size    | 33 bytes |
| Instructions | 7        |

```
      00 01 02 03 04 05 06 07  08 09 0A 0B 0C 0D 0E 0F
      -- -- -- -- -- -- -- --  -- -- -- -- -- -- -- --
0030:                32 02 80  1F 00 0D 80 0E 80 09 80       2..........
0040: 1F 01 6F 1C 0F 80 66 10  80 EB 92 08 01 EB 92 08  ..o...f.........
0050: 01 73 69 74 30 00                                 .sit0.          
```

#### Opcodes

```
  0: 0x0035 [0x32] ExtData[1]->MainSpeed = 13* * 0.1
  1: 0x0038 [0x1F] MOVE_ENTITY: EventEntity moves to X=522.632*, Z=-282.430*, Y=0.000*
  2: 0x0040 [0x1F] MOVE_ENTITY: Update entity position (mode=1)
  3: 0x0042 [0x6F] WAIT_FRAME_DELAY: Yield until WaitTime reaches zero
  4: 0x0043 [0x1C] WAIT(30* ticks)
  5: 0x0046 [0x66] LOAD_EXT_SCHEDULER_MAIN: Load scheduler "sit0" with entities [kisi02 (ID: 17339115/0x010892EB), kisi02 (ID: 17339115/0x010892EB)], work=59*
  6: 0x0055 [0x00] END_REQSTACK()
```

### Event 31

#### Metadata

| Field        | Value   |
|--------------|---------|
| Entrypoint   | 0x0056  |
| Data Size    | 1 bytes |
| Instructions | 1       |

```
      00 01 02 03 04 05 06 07  08 09 0A 0B 0C 0D 0E 0F
      -- -- -- -- -- -- -- --  -- -- -- -- -- -- -- --
0050:                   00                                    .         
```

#### Opcodes

```
  0: 0x0056 [0x00] END_REQSTACK()
```

### Event 65535.4

#### Metadata

| Field        | Value    |
|--------------|----------|
| Entrypoint   | 0x0057   |
| Data Size    | 26 bytes |
| Instructions | 3        |

```
      00 01 02 03 04 05 06 07  08 09 0A 0B 0C 0D 0E 0F
      -- -- -- -- -- -- -- --  -- -- -- -- -- -- -- --
0050:                      B6  0B 00 80 11 80 12 80 03         .........
0060: 80 04 80 04 80 04 80 05  80 09 80 80 EB 92 08 01  ................
0070: 00                                                .               
```

#### Opcodes

```
  0: 0x0057 [0xB6] ENTITY_APPEARANCE_HANDLER(case=Full entity look, race=3*, hair=4*, head=56*, body=221*, hands=12*, legs=12*, feet=12*, main=251*, sub=0*)
  1: 0x006B [0x80] LOAD_WAIT(entity=kisi02 (ID: 17339115/0x010892EB))
  2: 0x0070 [0x00] END_REQSTACK()
```

### Event 42

#### Metadata

| Field        | Value   |
|--------------|---------|
| Entrypoint   | 0x0071  |
| Data Size    | 1 bytes |
| Instructions | 1       |

```
      00 01 02 03 04 05 06 07  08 09 0A 0B 0C 0D 0E 0F
      -- -- -- -- -- -- -- --  -- -- -- -- -- -- -- --
0070:    00                                              .              
```

#### Opcodes

```
  0: 0x0071 [0x00] END_REQSTACK()
```

### Event 65535.5

#### Metadata

| Field        | Value    |
|--------------|----------|
| Entrypoint   | 0x0072   |
| Data Size    | 25 bytes |
| Instructions | 3        |

```
      00 01 02 03 04 05 06 07  08 09 0A 0B 0C 0D 0E 0F
      -- -- -- -- -- -- -- --  -- -- -- -- -- -- -- --
0070:       B6 0B 01 80 09 80  13 80 14 80 14 80 14 80    ..............
0080: 14 80 09 80 09 80 B6 0F  15 80 00                 ...........     
```

#### Opcodes

```
  0: 0x0072 [0xB6] ENTITY_APPEARANCE_HANDLER(case=Full entity look, race=8*, hair=0*, head=125*, body=96*, hands=96*, legs=96*, feet=96*, main=0*, sub=0*)
  1: 0x0086 [0xB6] ENTITY_APPEARANCE_HANDLER(case=Model size, value=110*)
  2: 0x008A [0x00] END_REQSTACK()
```

### Event 65535.6

#### Metadata

| Field        | Value    |
|--------------|----------|
| Entrypoint   | 0x008B   |
| Data Size    | 70 bytes |
| Instructions | 8        |

```
      00 01 02 03 04 05 06 07  08 09 0A 0B 0C 0D 0E 0F
      -- -- -- -- -- -- -- --  -- -- -- -- -- -- -- --
0080:                                   66 16 80 EB 92             f....
0090: 08 01 EB 92 08 01 67 61  74 30 1C 17 80 66 16 80  ......gat0...f..
00A0: EC 92 08 01 EC 92 08 01  67 61 74 30 1C 07 80 66  ........gat0...f
00B0: 16 80 EB 92 08 01 EB 92  08 01 67 61 74 31 1C 17  ..........gat1..
00C0: 80 66 16 80 EC 92 08 01  EC 92 08 01 67 61 74 31  .f..........gat1
00D0: 00                                                .               
```

#### Opcodes

```
  0: 0x008B [0x66] LOAD_EXT_SCHEDULER_MAIN: Load scheduler "gat0" with entities [kisi02 (ID: 17339115/0x010892EB), kisi02 (ID: 17339115/0x010892EB)], work=136*
  1: 0x009A [0x1C] WAIT(10* ticks)
  2: 0x009D [0x66] LOAD_EXT_SCHEDULER_MAIN: Load scheduler "gat0" with entities [kisi03 (ID: 17339116/0x010892EC), kisi03 (ID: 17339116/0x010892EC)], work=136*
  3: 0x00AC [0x1C] WAIT(100* ticks)
  4: 0x00AF [0x66] LOAD_EXT_SCHEDULER_MAIN: Load scheduler "gat1" with entities [kisi02 (ID: 17339115/0x010892EB), kisi02 (ID: 17339115/0x010892EB)], work=136*
  5: 0x00BE [0x1C] WAIT(10* ticks)
  6: 0x00C1 [0x66] LOAD_EXT_SCHEDULER_MAIN: Load scheduler "gat1" with entities [kisi03 (ID: 17339116/0x010892EC), kisi03 (ID: 17339116/0x010892EC)], work=136*
  7: 0x00D0 [0x00] END_REQSTACK()
```

### Event 65535.7

#### Metadata

| Field        | Value    |
|--------------|----------|
| Entrypoint   | 0x00D1   |
| Data Size    | 30 bytes |
| Instructions | 4        |

```
      00 01 02 03 04 05 06 07  08 09 0A 0B 0C 0D 0E 0F
      -- -- -- -- -- -- -- --  -- -- -- -- -- -- -- --
00D0:    B6 0B 18 80 02 80 19  80 1A 80 1B 80 1B 80 1B   ...............
00E0: 80 1C 80 09 80 B6 0F 07  80 80 EB 92 08 01 00     ............... 
```

#### Opcodes

```
  0: 0x00D1 [0xB6] ENTITY_APPEARANCE_HANDLER(case=Full entity look, race=5*, hair=13*, head=205*, body=186*, hands=148*, legs=148*, feet=148*, main=305*, sub=0*)
  1: 0x00E5 [0xB6] ENTITY_APPEARANCE_HANDLER(case=Model size, value=100*)
  2: 0x00E9 [0x80] LOAD_WAIT(entity=kisi02 (ID: 17339115/0x010892EB))
  3: 0x00EE [0x00] END_REQSTACK()
```
