# 17339122 - kisi09

## Common Data

| Field            | Value                   |
|------------------|-------------------------|
| Zone             | Xarcabard [S] (ID: 137) |
| Block Size       | 340 bytes               |
| Total Events     | 10                      |
| References Count | 33                      |

## List of Events

| Event ID                 | Entrypoint   |   Size |   Instructions |
|--------------------------|--------------|--------|----------------|
| [65535](#event-65535)    | 0x0000       |      1 |              1 |
| [17](#event-17)          | 0x0001       |      1 |              1 |
| [65535.1](#event-655351) | 0x0002       |     30 |              4 |
| [65535.2](#event-655352) | 0x0020       |     21 |              2 |
| [65535.3](#event-655353) | 0x0035       |     14 |              4 |
| [42](#event-42)          | 0x0043       |      1 |              1 |
| [65535.4](#event-655354) | 0x0044       |     21 |              2 |
| [65535.5](#event-655355) | 0x0059       |     21 |              2 |
| [65535.6](#event-655356) | 0x006E       |     25 |              7 |
| [65535.7](#event-655357) | 0x0087       |     15 |              5 |

## DAT References (imed_data)

|   Index | Hex Value   |   Dec Value |
|---------|-------------|-------------|
|       0 | 0x0003      |           3 |
|       1 | 0x0008      |           8 |
|       2 | 0x000D      |          13 |
|       3 | 0x00DD      |         221 |
|       4 | 0x000C      |          12 |
|       5 | 0x00FB      |         251 |
|       6 | 0x001B      |          27 |
|       7 | 0x0064      |         100 |
|       8 | 0x0007      |           7 |
|       9 | 0x0089      |         137 |
|      10 | 0x0010      |          16 |
|      11 | 0x000E      |          14 |
|      12 | 0x0000      |           0 |
|      13 | 0x7FD2B     |      523563 |
|      14 | 0xFFFBBEFF  |  4294688511 |
|      15 | 0x0002      |           2 |
|      16 | 0x00DE      |         222 |
|      17 | 0x0048      |          72 |
|      18 | 0x00B7      |         183 |
|      19 | 0x000B      |          11 |
|      20 | 0x00A1      |         161 |
|      21 | 0x0001      |           1 |
|      22 | 0x0006      |           6 |
|      23 | 0x01B9      |         441 |
|      24 | 0x0028      |          40 |
|      25 | 0x326FC     |      206588 |
|      26 | 0xFFFEF1F5  |  4294898165 |
|      27 | 0xFFFFE149  |  4294959433 |
|      28 | 0x0703      |        1795 |
|      29 | 0x003C      |          60 |
|      30 | 0x31325     |      201509 |
|      31 | 0xFFFEEC64  |  4294896740 |
|      32 | 0xFFFFE1CF  |  4294959567 |

## Events

### Event 65535

#### Metadata

| Field        | Value   |
|--------------|---------|
| Entrypoint   | 0x0000  |
| Data Size    | 1 bytes |
| Instructions | 1       |

```
      00 01 02 03 04 05 06 07  08 09 0A 0B 0C 0D 0E 0F
      -- -- -- -- -- -- -- --  -- -- -- -- -- -- -- --
0000: 00                                                .               
```

#### Opcodes

```
  0: 0x0000 [0x00] END_REQSTACK()
```

### Event 17

#### Metadata

| Field        | Value   |
|--------------|---------|
| Entrypoint   | 0x0001  |
| Data Size    | 1 bytes |
| Instructions | 1       |

```
      00 01 02 03 04 05 06 07  08 09 0A 0B 0C 0D 0E 0F
      -- -- -- -- -- -- -- --  -- -- -- -- -- -- -- --
0000:    00                                              .              
```

#### Opcodes

```
  0: 0x0001 [0x00] END_REQSTACK()
```

### Event 65535.1

#### Metadata

| Field        | Value    |
|--------------|----------|
| Entrypoint   | 0x0002   |
| Data Size    | 30 bytes |
| Instructions | 4        |

```
      00 01 02 03 04 05 06 07  08 09 0A 0B 0C 0D 0E 0F
      -- -- -- -- -- -- -- --  -- -- -- -- -- -- -- --
0000:       B6 0B 00 80 01 80  02 80 03 80 02 80 04 80    ..............
0010: 03 80 05 80 06 80 B6 0F  07 80 80 F2 92 08 01 00  ................
```

#### Opcodes

```
  0: 0x0002 [0xB6] ENTITY_APPEARANCE_HANDLER(case=Full entity look, race=3*, hair=8*, head=13*, body=221*, hands=13*, legs=12*, feet=221*, main=251*, sub=27*)
  1: 0x0016 [0xB6] ENTITY_APPEARANCE_HANDLER(case=Model size, value=100*)
  2: 0x001A [0x80] LOAD_WAIT(entity=kisi09 (ID: 17339122/0x010892F2))
  3: 0x001F [0x00] END_REQSTACK()
```

### Event 65535.2

#### Metadata

| Field        | Value    |
|--------------|----------|
| Entrypoint   | 0x0020   |
| Data Size    | 21 bytes |
| Instructions | 2        |

```
      00 01 02 03 04 05 06 07  08 09 0A 0B 0C 0D 0E 0F
      -- -- -- -- -- -- -- --  -- -- -- -- -- -- -- --
0020: B6 0B 08 80 00 80 09 80  0A 80 0A 80 0B 80 02 80  ................
0030: 05 80 0C 80 00                                    .....           
```

#### Opcodes

```
  0: 0x0020 [0xB6] ENTITY_APPEARANCE_HANDLER(case=Full entity look, race=7*, hair=3*, head=137*, body=16*, hands=16*, legs=14*, feet=13*, main=251*, sub=0*)
  1: 0x0034 [0x00] END_REQSTACK()
```

### Event 65535.3

#### Metadata

| Field        | Value    |
|--------------|----------|
| Entrypoint   | 0x0035   |
| Data Size    | 14 bytes |
| Instructions | 4        |

```
      00 01 02 03 04 05 06 07  08 09 0A 0B 0C 0D 0E 0F
      -- -- -- -- -- -- -- --  -- -- -- -- -- -- -- --
0030:                32 02 80  1F 00 0D 80 0E 80 0C 80       2..........
0040: 1F 01 00                                          ...             
```

#### Opcodes

```
  0: 0x0035 [0x32] ExtData[1]->MainSpeed = 13* * 0.1
  1: 0x0038 [0x1F] MOVE_ENTITY: EventEntity moves to X=523.563*, Z=-278.785*, Y=0.000*
  2: 0x0040 [0x1F] MOVE_ENTITY: Update entity position (mode=1)
  3: 0x0042 [0x00] END_REQSTACK()
```

### Event 42

#### Metadata

| Field        | Value   |
|--------------|---------|
| Entrypoint   | 0x0043  |
| Data Size    | 1 bytes |
| Instructions | 1       |

```
      00 01 02 03 04 05 06 07  08 09 0A 0B 0C 0D 0E 0F
      -- -- -- -- -- -- -- --  -- -- -- -- -- -- -- --
0040:          00                                          .            
```

#### Opcodes

```
  0: 0x0043 [0x00] END_REQSTACK()
```

### Event 65535.4

#### Metadata

| Field        | Value    |
|--------------|----------|
| Entrypoint   | 0x0044   |
| Data Size    | 21 bytes |
| Instructions | 2        |

```
      00 01 02 03 04 05 06 07  08 09 0A 0B 0C 0D 0E 0F
      -- -- -- -- -- -- -- --  -- -- -- -- -- -- -- --
0040:             B6 0B 0F 80  02 80 10 80 11 80 11 80      ............
0050: 11 80 11 80 12 80 0C 80  00                       .........       
```

#### Opcodes

```
  0: 0x0044 [0xB6] ENTITY_APPEARANCE_HANDLER(case=Full entity look, race=2*, hair=13*, head=222*, body=72*, hands=72*, legs=72*, feet=72*, main=183*, sub=0*)
  1: 0x0058 [0x00] END_REQSTACK()
```

### Event 65535.5

#### Metadata

| Field        | Value    |
|--------------|----------|
| Entrypoint   | 0x0059   |
| Data Size    | 21 bytes |
| Instructions | 2        |

```
      00 01 02 03 04 05 06 07  08 09 0A 0B 0C 0D 0E 0F
      -- -- -- -- -- -- -- --  -- -- -- -- -- -- -- --
0050:                             B6 0B 01 80 13 80 14           .......
0060: 80 10 80 15 80 16 80 15  80 17 80 0C 80 00        ..............  
```

#### Opcodes

```
  0: 0x0059 [0xB6] ENTITY_APPEARANCE_HANDLER(case=Full entity look, race=8*, hair=11*, head=161*, body=222*, hands=1*, legs=6*, feet=1*, main=441*, sub=0*)
  1: 0x006D [0x00] END_REQSTACK()
```

### Event 65535.6

#### Metadata

| Field        | Value    |
|--------------|----------|
| Entrypoint   | 0x006E   |
| Data Size    | 25 bytes |
| Instructions | 7        |

```
      00 01 02 03 04 05 06 07  08 09 0A 0B 0C 0D 0E 0F
      -- -- -- -- -- -- -- --  -- -- -- -- -- -- -- --
0060:                                            32 18                2.
0070: 80 1F 00 19 80 1A 80 1B  80 1F 01 6F 4B F8 FF FF  ...........oK...
0080: 7F 1C 80 1C 1D 80 00                              .......         
```

#### Opcodes

```
  0: 0x006E [0x32] ExtData[1]->MainSpeed = 40* * 0.1
  1: 0x0071 [0x1F] MOVE_ENTITY: EventEntity moves to X=206.588*, Z=-69.131*, Y=-7.863*
  2: 0x0079 [0x1F] MOVE_ENTITY: Update entity position (mode=1)
  3: 0x007B [0x6F] WAIT_FRAME_DELAY: Yield until WaitTime reaches zero
  4: 0x007C [0x4B] UPDATE_ENTITY_YAW(entity=EventEntity, yaw=9.9°*)
  5: 0x0083 [0x1C] WAIT(60* ticks)
  6: 0x0086 [0x00] END_REQSTACK()
```

### Event 65535.7

#### Metadata

| Field        | Value    |
|--------------|----------|
| Entrypoint   | 0x0087   |
| Data Size    | 15 bytes |
| Instructions | 5        |

```
      00 01 02 03 04 05 06 07  08 09 0A 0B 0C 0D 0E 0F
      -- -- -- -- -- -- -- --  -- -- -- -- -- -- -- --
0080:                      32  18 80 1F 00 1E 80 1F 80         2........
0090: 20 80 1F 01 6F 00                                  ...o.          
```

#### Opcodes

```
  0: 0x0087 [0x32] ExtData[1]->MainSpeed = 40* * 0.1
  1: 0x008A [0x1F] MOVE_ENTITY: EventEntity moves to X=201.509*, Z=-70.556*, Y=-7.729*
  2: 0x0092 [0x1F] MOVE_ENTITY: Update entity position (mode=1)
  3: 0x0094 [0x6F] WAIT_FRAME_DELAY: Yield until WaitTime reaches zero
  4: 0x0095 [0x00] END_REQSTACK()
```
