# 17339050 - Marcus

## Common Data

| Field            | Value                   |
|------------------|-------------------------|
| Zone             | Xarcabard [S] (ID: 137) |
| Block Size       | 112 bytes               |
| Total Events     | 3                       |
| References Count | 6                       |

## List of Events

| Event ID                 | Entrypoint   |   Size |   Instructions |
|--------------------------|--------------|--------|----------------|
| [65535](#event-65535)    | 0x0000       |      1 |              1 |
| [10](#event-10)          | 0x0001       |      7 |              2 |
| [65535.1](#event-655351) | 0x0008       |     50 |              8 |

## DAT References (imed_data)

|   Index | Hex Value   |   Dec Value |
|---------|-------------|-------------|
|       0 | 0x0028      |          40 |
|       1 | 0x2371C     |      145180 |
|       2 | 0xFFFF0F9F  |  4294905759 |
|       3 | 0x044B      |        1099 |
|       4 | 0x001E      |          30 |
|       5 | 0x0009      |           9 |

## Events

### Event 65535

#### Metadata

| Field        | Value   |
|--------------|---------|
| Entrypoint   | 0x0000  |
| Data Size    | 1 bytes |
| Instructions | 1       |

```
      00 01 02 03 04 05 06 07  08 09 0A 0B 0C 0D 0E 0F
      -- -- -- -- -- -- -- --  -- -- -- -- -- -- -- --
0000: 00                                                .               
```

#### Opcodes

```
  0: 0x0000 [0x00] END_REQSTACK()
```

### Event 10

#### Metadata

| Field        | Value   |
|--------------|---------|
| Entrypoint   | 0x0001  |
| Data Size    | 7 bytes |
| Instructions | 2       |

```
      00 01 02 03 04 05 06 07  08 09 0A 0B 0C 0D 0E 0F
      -- -- -- -- -- -- -- --  -- -- -- -- -- -- -- --
0000:    92 01 F8 FF FF 7F 00                            .......        
```

#### Opcodes

```
  0: 0x0001 [0x92] EventEntity->Render.Flags3 ^= 0x01
  1: 0x0007 [0x00] END_REQSTACK()
```

### Event 65535.1

#### Metadata

| Field        | Value    |
|--------------|----------|
| Entrypoint   | 0x0008   |
| Data Size    | 50 bytes |
| Instructions | 8        |

```
      00 01 02 03 04 05 06 07  08 09 0A 0B 0C 0D 0E 0F
      -- -- -- -- -- -- -- --  -- -- -- -- -- -- -- --
0000:                          32 00 80 1F 00 01 80 02          2.......
0010: 80 03 80 1F 01 1E A4 92  08 01 1C 04 80 66 05 80  .............f..
0020: AA 92 08 01 AA 92 08 01  73 68 61 30 53 AA 92 08  ........sha0S...
0030: 01 AA 92 08 01 73 68 61  30 00                    .....sha0.      
```

#### Opcodes

```
  0: 0x0008 [0x32] ExtData[1]->MainSpeed = 40* * 0.1
  1: 0x000B [0x1F] MOVE_ENTITY: EventEntity moves to X=145.180*, Z=-61.537*, Y=1.099*
  2: 0x0013 [0x1F] MOVE_ENTITY: Update entity position (mode=1)
  3: 0x0015 [0x1E] EventEntity looks at Prien (ID: 17339044/0x010892A4) and starts talking
  4: 0x001A [0x1C] WAIT(30* ticks)
  5: 0x001D [0x66] LOAD_EXT_SCHEDULER_MAIN: Load scheduler "sha0" with entities [Marcus (ID: 17339050/0x010892AA), Marcus (ID: 17339050/0x010892AA)], work=9*
  6: 0x002C [0x53] WAIT_SCHEDULER_TASK: Wait for scheduler "sha0" with entities [Marcus (ID: 17339050/0x010892AA), Marcus (ID: 17339050/0x010892AA)]
  7: 0x0039 [0x00] END_REQSTACK()
```
