# 17339044 - Prien

## Common Data

| Field            | Value                   |
|------------------|-------------------------|
| Zone             | Xarcabard [S] (ID: 137) |
| Block Size       | 144 bytes               |
| Total Events     | 6                       |
| References Count | 6                       |

## List of Events

| Event ID                 | Entrypoint   |   Size |   Instructions |
|--------------------------|--------------|--------|----------------|
| [65535](#event-65535)    | 0x0000       |      1 |              1 |
| [8](#event-8)            | 0x0001       |      7 |              2 |
| [9](#event-9)            | 0x0008       |      7 |              2 |
| [65535.1](#event-655351) | 0x000F       |     22 |              6 |
| [10](#event-10)          | 0x0025       |      7 |              2 |
| [65535.2](#event-655352) | 0x002C       |     34 |              4 |

## DAT References (imed_data)

|   Index | Hex Value   |   Dec Value |
|---------|-------------|-------------|
|       0 | 0x000D      |          13 |
|       1 | 0x244E4     |      148708 |
|       2 | 0xFFFF1615  |  4294907413 |
|       3 | 0x03E5      |         997 |
|       4 | 0x001E      |          30 |
|       5 | 0x0512      |        1298 |

## Events

### Event 65535

#### Metadata

| Field        | Value   |
|--------------|---------|
| Entrypoint   | 0x0000  |
| Data Size    | 1 bytes |
| Instructions | 1       |

```
      00 01 02 03 04 05 06 07  08 09 0A 0B 0C 0D 0E 0F
      -- -- -- -- -- -- -- --  -- -- -- -- -- -- -- --
0000: 00                                                .               
```

#### Opcodes

```
  0: 0x0000 [0x00] END_REQSTACK()
```

### Event 8

#### Metadata

| Field        | Value   |
|--------------|---------|
| Entrypoint   | 0x0001  |
| Data Size    | 7 bytes |
| Instructions | 2       |

```
      00 01 02 03 04 05 06 07  08 09 0A 0B 0C 0D 0E 0F
      -- -- -- -- -- -- -- --  -- -- -- -- -- -- -- --
0000:    92 01 F8 FF FF 7F 00                            .......        
```

#### Opcodes

```
  0: 0x0001 [0x92] EventEntity->Render.Flags3 ^= 0x01
  1: 0x0007 [0x00] END_REQSTACK()
```

### Event 9

#### Metadata

| Field        | Value   |
|--------------|---------|
| Entrypoint   | 0x0008  |
| Data Size    | 7 bytes |
| Instructions | 2       |

```
      00 01 02 03 04 05 06 07  08 09 0A 0B 0C 0D 0E 0F
      -- -- -- -- -- -- -- --  -- -- -- -- -- -- -- --
0000:                          92 01 F8 FF FF 7F 00             ....... 
```

#### Opcodes

```
  0: 0x0008 [0x92] EventEntity->Render.Flags3 ^= 0x01
  1: 0x000E [0x00] END_REQSTACK()
```

### Event 65535.1

#### Metadata

| Field        | Value    |
|--------------|----------|
| Entrypoint   | 0x000F   |
| Data Size    | 22 bytes |
| Instructions | 6        |

```
      00 01 02 03 04 05 06 07  08 09 0A 0B 0C 0D 0E 0F
      -- -- -- -- -- -- -- --  -- -- -- -- -- -- -- --
0000:                                               32                 2
0010: 00 80 1F 00 01 80 02 80  03 80 1F 01 1E A7 92 08  ................
0020: 01 1C 04 80 00                                    .....           
```

#### Opcodes

```
  0: 0x000F [0x32] ExtData[1]->MainSpeed = 13* * 0.1
  1: 0x0012 [0x1F] MOVE_ENTITY: EventEntity moves to X=148.708*, Z=-59.883*, Y=0.997*
  2: 0x001A [0x1F] MOVE_ENTITY: Update entity position (mode=1)
  3: 0x001C [0x1E] EventEntity looks at Slumbering Savage (ID: 17339047/0x010892A7) and starts talking
  4: 0x0021 [0x1C] WAIT(30* ticks)
  5: 0x0024 [0x00] END_REQSTACK()
```

### Event 10

#### Metadata

| Field        | Value   |
|--------------|---------|
| Entrypoint   | 0x0025  |
| Data Size    | 7 bytes |
| Instructions | 2       |

```
      00 01 02 03 04 05 06 07  08 09 0A 0B 0C 0D 0E 0F
      -- -- -- -- -- -- -- --  -- -- -- -- -- -- -- --
0020:                92 01 F8  FF FF 7F 00                   .......    
```

#### Opcodes

```
  0: 0x0025 [0x92] EventEntity->Render.Flags3 ^= 0x01
  1: 0x002B [0x00] END_REQSTACK()
```

### Event 65535.2

#### Metadata

| Field        | Value    |
|--------------|----------|
| Entrypoint   | 0x002C   |
| Data Size    | 34 bytes |
| Instructions | 4        |

```
      00 01 02 03 04 05 06 07  08 09 0A 0B 0C 0D 0E 0F
      -- -- -- -- -- -- -- --  -- -- -- -- -- -- -- --
0020:                                      5B 05 80 A4              [...
0030: 92 08 01 A4 92 08 01 64  61 69 31 53 A4 92 08 01  .......dai1S....
0040: A4 92 08 01 64 61 69 31  1E AA 92 08 01 00        ....dai1......  
```

#### Opcodes

```
  0: 0x002C [0x5B] LOAD_EXT_SCHEDULER: Load scheduler "dai1" with entities [Prien (ID: 17339044/0x010892A4), Prien (ID: 17339044/0x010892A4)], work=1298*
  1: 0x003B [0x53] WAIT_SCHEDULER_TASK: Wait for scheduler "dai1" with entities [Prien (ID: 17339044/0x010892A4), Prien (ID: 17339044/0x010892A4)]
  2: 0x0048 [0x1E] EventEntity looks at Marcus (ID: 17339050/0x010892AA) and starts talking
  3: 0x004D [0x00] END_REQSTACK()
```
