# 17339218

## Common Data

| Field            | Value                   |
|------------------|-------------------------|
| Zone             | Xarcabard [S] (ID: 137) |
| Block Size       | 50420 bytes             |
| Total Events     | 11                      |
| References Count | 1627                    |

## List of Events

| Event ID              | Entrypoint   |   Size |   Instructions |
|-----------------------|--------------|--------|----------------|
| [65535](#event-65535) | 0x0000       |      1 |              1 |
| [19](#event-19)       | 0x0001       |   3566 |            455 |
| [20](#event-20)       | 0x0DEF       |   2790 |            323 |
| [26](#event-26)       | 0x18D5       |    483 |             79 |
| [21](#event-21)       | 0x1AB8       |   4777 |            584 |
| [22](#event-22)       | 0x2D61       |   1919 |            260 |
| [25](#event-25)       | 0x34E0       |    553 |             71 |
| [23](#event-23)       | 0x3709       |    102 |             27 |
| [39](#event-39)       | 0x376F       |   9000 |           1189 |
| [24](#event-24)       | 0x5A97       |  10623 |           1268 |
| [41](#event-41)       | 0x8416       |  10038 |           1056 |

## DAT References (imed_data)

|   Index | Hex Value   |   Dec Value |
|---------|-------------|-------------|
|       0 | 0x0013      |          19 |
|       1 | 0x0000      |           0 |
|       2 | 0x00C8      |         200 |
|       3 | 0x000A      |          10 |
|       4 | 0x2BE95     |      179861 |
|       5 | 0xFFFF2D3C  |  4294913340 |
|       6 | 0xFFFFD4F4  |  4294956276 |
|       7 | 0x09A5      |        2469 |
|       8 | 0x2D133     |      184627 |
|       9 | 0xFFFF2320  |  4294910752 |
|      10 | 0xFFFFD474  |  4294956148 |
|      11 | 0x09A6      |        2470 |
|      12 | 0x2586C     |      153708 |
|      13 | 0xFFFFC78E  |  4294952846 |
|      14 | 0xFFFFC133  |  4294951219 |
|      15 | 0x09AE      |        2478 |
|      16 | 0x2594B     |      153931 |
|      17 | 0xFFFF9A33  |  4294941235 |
|      18 | 0xFFFFC2F4  |  4294951668 |
|      19 | 0x038C      |         908 |
|      20 | 0x26D3A     |      159034 |
|      21 | 0xFFFFACB8  |  4294945976 |
|      22 | 0xFFFFC526  |  4294952230 |
|      23 | 0x0504      |        1284 |
|      24 | 0x26A05     |      158213 |
|      25 | 0xFFFFA1E3  |  4294943203 |
|      26 | 0xFFFFC494  |  4294952084 |
|      27 | 0x0A2A      |        2602 |
|      28 | 0x25D74     |      154996 |
|      29 | 0xFFFF92E6  |  4294939366 |
|      30 | 0xFFFFC2A9  |  4294951593 |
|      31 | 0x0D85      |        3461 |
|      32 | 0x26F2B     |      159531 |
|      33 | 0xFFFF93F2  |  4294939634 |
|      34 | 0xFFFFC31F  |  4294951711 |
|      35 | 0x0D44      |        3396 |
|      36 | 0x25AAB     |      154283 |
|      37 | 0xFFFFBC5E  |  4294949982 |
|      38 | 0xFFFFC2FE  |  4294951678 |
|      39 | 0x01EF      |         495 |
|      40 | 0x25742     |      153410 |
|      41 | 0xFFFFB8A2  |  4294949026 |
|      42 | 0xFFFFC25A  |  4294951514 |
|      43 | 0x0213      |         531 |
|      44 | 0x25BAC     |      154540 |
|      45 | 0xFFFFB57E  |  4294948222 |
|      46 | 0xFFFFC3B6  |  4294951862 |
|      47 | 0x085D      |        2141 |
|      48 | 0x25963     |      153955 |
|      49 | 0xFFFF8F35  |  4294938421 |
|      50 | 0xFFFFC213  |  4294951443 |
|      51 | 0x006D      |         109 |
|      52 | 0x25DF2     |      155122 |
|      53 | 0xFFFF8A3A  |  4294937146 |
|      54 | 0xFFFFC248  |  4294951496 |
|      55 | 0x0D8C      |        3468 |
|      56 | 0x25744     |      153412 |
|      57 | 0xFFFF9EF8  |  4294942456 |
|      58 | 0xFFFFC28F  |  4294951567 |
|      59 | 0x02A5      |         677 |
|      60 | 0x25BC3     |      154563 |
|      61 | 0xFFFFA216  |  4294943254 |
|      62 | 0xFFFFC373  |  4294951795 |
|      63 | 0x0124      |         292 |
|      64 | 0x26994     |      158100 |
|      65 | 0xFFFFBC47  |  4294949959 |
|      66 | 0xFFFFC4E3  |  4294952163 |
|      67 | 0x0278      |         632 |
|      68 | 0x264F8     |      156920 |
|      69 | 0xFFFFBACF  |  4294949583 |
|      70 | 0xFFFFC4F6  |  4294952182 |
|      71 | 0x0E6B      |        3691 |
|      72 | 0x244AA     |      148650 |
|      73 | 0xFFFFAF1B  |  4294946587 |
|      74 | 0xFFFFBF81  |  4294950785 |
|      75 | 0x243A4     |      148388 |
|      76 | 0xFFFFA362  |  4294943586 |
|      77 | 0xFFFFBF27  |  4294950695 |
|      78 | 0x0A29      |        2601 |
|      79 | 0x265DF     |      157151 |
|      80 | 0xFFFFAAA7  |  4294945447 |
|      81 | 0xFFFFC50C  |  4294952204 |
|      82 | 0x0269      |         617 |
|      83 | 0x2619E     |      156062 |
|      84 | 0xFFFFA75A  |  4294944602 |
|      85 | 0xFFFFC4D9  |  4294952153 |
|      86 | 0x01BC      |         444 |
|      87 | 0x0005      |           5 |
|      88 | 0x00F7      |         247 |
|      89 | 0x0009      |           9 |
|      90 | 0x001E      |          30 |
|      91 | 0x0216      |         534 |
|      92 | 0x003C      |          60 |
|      93 | 0x0014      |          20 |
|      94 | 0x0008      |           8 |
|      95 | 0x0050      |          80 |
|      96 | 0x0045      |          69 |
|      97 | 0x0032      |          50 |
|      98 | 0x0007      |           7 |
|      99 | 0x20BF      |        8383 |
|     100 | 0x0002      |           2 |
|     101 | 0x20C1      |        8385 |
|     102 | 0x20C0      |        8384 |
|     103 | 0x0006      |           6 |
|     104 | 0x0004      |           4 |
|     105 | 0x20C2      |        8386 |
|     106 | 0x0857      |        2135 |
|     107 | 0x20C3      |        8387 |
|     108 | 0x0001      |           1 |
|     109 | 0x27A13     |      162323 |
|     110 | 0xFFFF971C  |  4294940444 |
|     111 | 0xFFFFC3BC  |  4294951868 |
|     112 | 0x0342      |         834 |
|     113 | 0x08C7      |        2247 |
|     114 | 0x20C4      |        8388 |
|     115 | 0x27D62     |      163170 |
|     116 | 0xFFFF9D9E  |  4294942110 |
|     117 | 0xFFFFC388  |  4294951816 |
|     118 | 0x20C5      |        8389 |
|     119 | 0x008C      |         140 |
|     120 | 0x2932E     |      168750 |
|     121 | 0xFFFFF12A  |  4294963498 |
|     122 | 0xFFFFC40F  |  4294951951 |
|     123 | 0x279A3     |      162211 |
|     124 | 0xFFFFB579  |  4294948217 |
|     125 | 0xFFFFC2C9  |  4294951625 |
|     126 | 0x08F9      |        2297 |
|     127 | 0x20C6      |        8390 |
|     128 | 0x20C7      |        8391 |
|     129 | 0x0096      |         150 |
|     130 | 0x255ED     |      153069 |
|     131 | 0xFFFF91A2  |  4294939042 |
|     132 | 0xFFFFC1CB  |  4294951371 |
|     133 | 0x09A4      |        2468 |
|     134 | 0x26F29     |      159529 |
|     135 | 0xFFFF89EB  |  4294937067 |
|     136 | 0xFFFFC29F  |  4294951583 |
|     137 | 0x0015      |          21 |
|     138 | 0x27E4B     |      163403 |
|     139 | 0xFFFF85A9  |  4294935977 |
|     140 | 0xFFFFC331  |  4294951729 |
|     141 | 0x20C8      |        8392 |
|     142 | 0x20C9      |        8393 |
|     143 | 0x280C6     |      164038 |
|     144 | 0xFFFF88E8  |  4294936808 |
|     145 | 0xFFFFC3A5  |  4294951845 |
|     146 | 0x0B91      |        2961 |
|     147 | 0x20CA      |        8394 |
|     148 | 0x20CB      |        8395 |
|     149 | 0x20CC      |        8396 |
|     150 | 0x20CD      |        8397 |
|     151 | 0x0051      |          81 |
|     152 | 0x04D6      |        1238 |
|     153 | 0x20CE      |        8398 |
|     154 | 0x20CF      |        8399 |
|     155 | 0x050C      |        1292 |
|     156 | 0x20D0      |        8400 |
|     157 | 0x0078      |         120 |
|     158 | 0x28E3D     |      167485 |
|     159 | 0xFFFF68A9  |  4294928553 |
|     160 | 0xFFFFC37A  |  4294951802 |
|     161 | 0x0BB3      |        2995 |
|     162 | 0x295AE     |      169390 |
|     163 | 0xFFFF6CE3  |  4294929635 |
|     164 | 0xFFFFC4FB  |  4294952187 |
|     165 | 0x07CE      |        1998 |
|     166 | 0x29218     |      168472 |
|     167 | 0xFFFF77BB  |  4294932411 |
|     168 | 0xFFFFC4FC  |  4294952188 |
|     169 | 0x0533      |        1331 |
|     170 | 0x285B3     |      165299 |
|     171 | 0xFFFF699B  |  4294928795 |
|     172 | 0xFFFFC265  |  4294951525 |
|     173 | 0x002B      |          43 |
|     174 | 0x28407     |      164871 |
|     175 | 0xFFFF6F84  |  4294930308 |
|     176 | 0xFFFFC215  |  4294951445 |
|     177 | 0x0175      |         373 |
|     178 | 0x28909     |      166153 |
|     179 | 0xFFFF761D  |  4294931997 |
|     180 | 0xFFFFC330  |  4294951728 |
|     181 | 0x036F      |         879 |
|     182 | 0x26315     |      156437 |
|     183 | 0xFFFF9542  |  4294939970 |
|     184 | 0xFFFFC34E  |  4294951758 |
|     185 | 0x01CD      |         461 |
|     186 | 0x25CFD     |      154877 |
|     187 | 0xFFFF90DE  |  4294938846 |
|     188 | 0xFFFFC283  |  4294951555 |
|     189 | 0x00F5      |         245 |
|     190 | 0x288C7     |      166087 |
|     191 | 0xFFFF4FA2  |  4294922146 |
|     192 | 0xFFFF8655  |  4294936149 |
|     193 | 0x0C8D      |        3213 |
|     194 | 0x28B75     |      166773 |
|     195 | 0xFFFF4B99  |  4294921113 |
|     196 | 0xFFFF86CE  |  4294936270 |
|     197 | 0x2832C     |      164652 |
|     198 | 0xFFFF4D44  |  4294921540 |
|     199 | 0xFFFF86B9  |  4294936249 |
|     200 | 0x03BE      |         958 |
|     201 | 0x020F      |         527 |
|     202 | 0x000F      |          15 |
|     203 | 0x20D1      |        8401 |
|     204 | 0x005A      |          90 |
|     205 | 0x20D4      |        8404 |
|     206 | 0x085B      |        2139 |
|     207 | 0x20D5      |        8405 |
|     208 | 0x0856      |        2134 |
|     209 | 0x20D6      |        8406 |
|     210 | 0x00D2      |         210 |
|     211 | 0x00DF      |         223 |
|     212 | 0x00B6      |         182 |
|     213 | 0x00FF      |         255 |
|     214 | 0xFFF551A7  |  4294267303 |
|     215 | 0xFFFE7735  |  4294866741 |
|     216 | 0xFFFF9DDB  |  4294942171 |
|     217 | 0x03FF      |        1023 |
|     218 | 0xFFF551B1  |  4294267313 |
|     219 | 0xFFFE6DD9  |  4294864345 |
|     220 | 0x0C43      |        3139 |
|     221 | 0xFFF55608  |  4294268424 |
|     222 | 0xFFFE876A  |  4294870890 |
|     223 | 0xFFFF9DDC  |  4294942172 |
|     224 | 0x0423      |        1059 |
|     225 | 0xFFF54DAF  |  4294266287 |
|     226 | 0xFFFE8667  |  4294870631 |
|     227 | 0x037C      |         892 |
|     228 | 0xFFF5510D  |  4294267149 |
|     229 | 0xFFFE8E1D  |  4294872605 |
|     230 | 0x0443      |        1091 |
|     231 | 0x0896      |        2198 |
|     232 | 0x0890      |        2192 |
|     233 | 0x0B20      |        2848 |
|     234 | 0x0B07      |        2823 |
|     235 | 0x0017      |          23 |
|     236 | 0x0028      |          40 |
|     237 | 0x20D7      |        8407 |
|     238 | 0x20D8      |        8408 |
|     239 | 0x20D9      |        8409 |
|     240 | 0x20DA      |        8410 |
|     241 | 0x20DB      |        8411 |
|     242 | 0x0BCB      |        3019 |
|     243 | 0x20DC      |        8412 |
|     244 | 0x00F0      |         240 |
|     245 | 0x20DD      |        8413 |
|     246 | 0x20DE      |        8414 |
|     247 | 0x0C01      |        3073 |
|     248 | 0x20DF      |        8415 |
|     249 | 0x20E0      |        8416 |
|     250 | 0x20E1      |        8417 |
|     251 | 0x20E2      |        8418 |
|     252 | 0x20E3      |        8419 |
|     253 | 0xFFF54628  |  4294264360 |
|     254 | 0xFFFE745A  |  4294866010 |
|     255 | 0x0344      |         836 |
|     256 | 0x20E4      |        8420 |
|     257 | 0x20E5      |        8421 |
|     258 | 0xFFF96768  |  4294535016 |
|     259 | 0xFFFC5A22  |  4294728226 |
|     260 | 0x4E1F      |       19999 |
|     261 | 0x0371      |         881 |
|     262 | 0xFFF97164  |  4294537572 |
|     263 | 0xFFFC3FB8  |  4294721464 |
|     264 | 0x6978      |       27000 |
|     265 | 0x0C0F      |        3087 |
|     266 | 0x0B1D      |        2845 |
|     267 | 0x0B70      |        2928 |
|     268 | 0x00B4      |         180 |
|     269 | 0x0089      |         137 |
|     270 | 0x3757C     |      226684 |
|     271 | 0xFFFEE55E  |  4294894942 |
|     272 | 0xFFFFE15E  |  4294959454 |
|     273 | 0x098E      |        2446 |
|     274 | 0x30CA5     |      199845 |
|     275 | 0xFFFEE683  |  4294895235 |
|     276 | 0xFFFFE184  |  4294959492 |
|     277 | 0x071C      |        1820 |
|     278 | 0x0003      |           3 |
|     279 | 0x20E6      |        8422 |
|     280 | 0x27937     |      162103 |
|     281 | 0xFFFF8B3D  |  4294937405 |
|     282 | 0xFFFFC381  |  4294951809 |
|     283 | 0x09D4      |        2516 |
|     284 | 0x12D72     |       77170 |
|     285 | 0xFFFCCC16  |  4294757398 |
|     286 | 0xFFFFA365  |  4294943589 |
|     287 | 0x0318      |         792 |
|     288 | 0x116F6     |       71414 |
|     289 | 0xFFFCB051  |  4294750289 |
|     290 | 0xFFFFA448  |  4294943816 |
|     291 | 0x06CB      |        1739 |
|     292 | 0xF63B      |       63035 |
|     293 | 0xFFFC9CA6  |  4294745254 |
|     294 | 0xFFFFA270  |  4294943344 |
|     295 | 0x0586      |        1414 |
|     296 | 0x12831     |       75825 |
|     297 | 0xFFFD1CCA  |  4294778058 |
|     298 | 0xFFFFA37C  |  4294943612 |
|     299 | 0x0219      |         537 |
|     300 | 0xEF21      |       61217 |
|     301 | 0xFFFCB246  |  4294750790 |
|     302 | 0xFFFFA295  |  4294943381 |
|     303 | 0x0119      |         281 |
|     304 | 0xEF02      |       61186 |
|     305 | 0xFFFCAC97  |  4294749335 |
|     306 | 0xFFFFA2DC  |  4294943452 |
|     307 | 0x0926      |        2342 |
|     308 | 0xE58D      |       58765 |
|     309 | 0xFFFCA78C  |  4294748044 |
|     310 | 0xFFFFA2E2  |  4294943458 |
|     311 | 0x0636      |        1590 |
|     312 | 0xE8BA      |       59578 |
|     313 | 0xFFFCA818  |  4294748184 |
|     314 | 0xFFFFA2DB  |  4294943451 |
|     315 | 0xD2E8      |       53992 |
|     316 | 0xFFFCB545  |  4294751557 |
|     317 | 0xFFFFA3B1  |  4294943665 |
|     318 | 0x0120      |         288 |
|     319 | 0xD985      |       55685 |
|     320 | 0xFFFCAF7C  |  4294750076 |
|     321 | 0xFFFFA3E9  |  4294943721 |
|     322 | 0x052E      |        1326 |
|     323 | 0xD6C5      |       54981 |
|     324 | 0xFFFCA900  |  4294748416 |
|     325 | 0xFFFFA36B  |  4294943595 |
|     326 | 0x08B3      |        2227 |
|     327 | 0xDC2C      |       56364 |
|     328 | 0xFFFCB8F5  |  4294752501 |
|     329 | 0xFFFFA330  |  4294943536 |
|     330 | 0x0392      |         914 |
|     331 | 0xE251      |       57937 |
|     332 | 0xFFFCBE06  |  4294753798 |
|     333 | 0xFFFFA383  |  4294943619 |
|     334 | 0xDE88      |       56968 |
|     335 | 0xFFFCC04C  |  4294754380 |
|     336 | 0xFFFFA3A0  |  4294943648 |
|     337 | 0x08B2      |        2226 |
|     338 | 0xCBFB      |       52219 |
|     339 | 0xFFFCB455  |  4294751317 |
|     340 | 0xFFFFA3C1  |  4294943681 |
|     341 | 0x08B1      |        2225 |
|     342 | 0xC3B9      |       50105 |
|     343 | 0xFFFCB274  |  4294750836 |
|     344 | 0xFFFFA3F9  |  4294943737 |
|     345 | 0x0085      |         133 |
|     346 | 0xCB81      |       52097 |
|     347 | 0xFFFC8AEF  |  4294740719 |
|     348 | 0xFFFFA494  |  4294943892 |
|     349 | 0x06B0      |        1712 |
|     350 | 0xC877      |       51319 |
|     351 | 0xFFFCA748  |  4294747976 |
|     352 | 0xFFFFA498  |  4294943896 |
|     353 | 0x0E64      |        3684 |
|     354 | 0xCEF5      |       52981 |
|     355 | 0xFFFCA87A  |  4294748282 |
|     356 | 0xFFFFA434  |  4294943796 |
|     357 | 0x0C97      |        3223 |
|     358 | 0xC943      |       51523 |
|     359 | 0xFFFCC214  |  4294754836 |
|     360 | 0xFFFFA26B  |  4294943339 |
|     361 | 0x0493      |        1171 |
|     362 | 0xC6BE      |       50878 |
|     363 | 0xFFFCBF77  |  4294754167 |
|     364 | 0xFFFFA2AE  |  4294943406 |
|     365 | 0x0074      |         116 |
|     366 | 0xC18B      |       49547 |
|     367 | 0xFFFCB726  |  4294752038 |
|     368 | 0xFFFFA382  |  4294943618 |
|     369 | 0x0083      |         131 |
|     370 | 0xD9E7      |       55783 |
|     371 | 0xFFFC945D  |  4294743133 |
|     372 | 0xFFFFA3D9  |  4294943705 |
|     373 | 0x0E3E      |        3646 |
|     374 | 0xE4C1      |       58561 |
|     375 | 0xFFFCA3A4  |  4294747044 |
|     376 | 0xFFFFA314  |  4294943508 |
|     377 | 0x0E3A      |        3642 |
|     378 | 0xE4B1      |       58545 |
|     379 | 0xFFFC9BC4  |  4294745028 |
|     380 | 0xFFFFA34F  |  4294943567 |
|     381 | 0x0E44      |        3652 |
|     382 | 0xEA65      |       60005 |
|     383 | 0xFFFC9FFC  |  4294746108 |
|     384 | 0xFFFFA307  |  4294943495 |
|     385 | 0x0C39      |        3129 |
|     386 | 0xDD00      |       56576 |
|     387 | 0xFFFCA1A4  |  4294746532 |
|     388 | 0xFFFFA32D  |  4294943533 |
|     389 | 0x0E52      |        3666 |
|     390 | 0xDCAE      |       56494 |
|     391 | 0xFFFC9A1F  |  4294744607 |
|     392 | 0xFFFFA38D  |  4294943629 |
|     393 | 0xDB34      |       56116 |
|     394 | 0xFFFC9ED5  |  4294745813 |
|     395 | 0xFFFFA34A  |  4294943562 |
|     396 | 0xF6B2      |       63154 |
|     397 | 0xFFFCA0CA  |  4294746314 |
|     398 | 0xFFFFA26A  |  4294943338 |
|     399 | 0x057E      |        1406 |
|     400 | 0x1217B     |       74107 |
|     401 | 0xFFFD1BE0  |  4294777824 |
|     402 | 0xFFFFA2C4  |  4294943428 |
|     403 | 0x0192      |         402 |
|     404 | 0x0031      |          49 |
|     405 | 0x13042     |       77890 |
|     406 | 0xFFFCC7C8  |  4294756296 |
|     407 | 0xFFFFA39C  |  4294943644 |
|     408 | 0x003B      |          59 |
|     409 | 0x002A      |          42 |
|     410 | 0x080B      |        2059 |
|     411 | 0x055D      |        1373 |
|     412 | 0x20E7      |        8423 |
|     413 | 0x00A0      |         160 |
|     414 | 0x115B8     |       71096 |
|     415 | 0xFFFCA802  |  4294748162 |
|     416 | 0xFFFFA4A6  |  4294943910 |
|     417 | 0x0875      |        2165 |
|     418 | 0x20E8      |        8424 |
|     419 | 0xC425      |       50213 |
|     420 | 0xFFFCB06B  |  4294750315 |
|     421 | 0xFFFFA42E  |  4294943790 |
|     422 | 0xC4D3      |       50387 |
|     423 | 0xFFFCA453  |  4294747219 |
|     424 | 0xFFFFA4E5  |  4294943973 |
|     425 | 0x0E2A      |        3626 |
|     426 | 0xC3EC      |       50156 |
|     427 | 0xFFFCB2FA  |  4294750970 |
|     428 | 0xFFFFA3ED  |  4294943725 |
|     429 | 0x0020      |          32 |
|     430 | 0xCF88      |       53128 |
|     431 | 0xFFFCA71D  |  4294747933 |
|     432 | 0xFFFFA426  |  4294943782 |
|     433 | 0xBC80      |       48256 |
|     434 | 0xFFFCA7BE  |  4294748094 |
|     435 | 0xFFFFA501  |  4294944001 |
|     436 | 0x0F46      |        3910 |
|     437 | 0xCCA1      |       52385 |
|     438 | 0xFFFCB723  |  4294752035 |
|     439 | 0x034B      |         843 |
|     440 | 0xBAC1      |       47809 |
|     441 | 0xFFFCAB56  |  4294749014 |
|     442 | 0xFFFFA4B2  |  4294943922 |
|     443 | 0x0F71      |        3953 |
|     444 | 0x0038      |          56 |
|     445 | 0x080D      |        2061 |
|     446 | 0x0ECE      |        3790 |
|     447 | 0x20E9      |        8425 |
|     448 | 0x20EA      |        8426 |
|     449 | 0x20EB      |        8427 |
|     450 | 0x0022      |          34 |
|     451 | 0x20EC      |        8428 |
|     452 | 0x20ED      |        8429 |
|     453 | 0xEEEB      |       61163 |
|     454 | 0xFFFCB082  |  4294750338 |
|     455 | 0xFFFFA2A8  |  4294943400 |
|     456 | 0x08B4      |        2228 |
|     457 | 0x20EE      |        8430 |
|     458 | 0x20EF      |        8431 |
|     459 | 0xD796      |       55190 |
|     460 | 0xFFFCAC3C  |  4294749244 |
|     461 | 0xFFFFA356  |  4294943574 |
|     462 | 0x0B48      |        2888 |
|     463 | 0xD77A      |       55162 |
|     464 | 0xFFFCB835  |  4294752309 |
|     465 | 0x20F0      |        8432 |
|     466 | 0x0046      |          70 |
|     467 | 0x0064      |         100 |
|     468 | 0x00C9      |         201 |
|     469 | 0x20F1      |        8433 |
|     470 | 0x20F2      |        8434 |
|     471 | 0xDDC0      |       56768 |
|     472 | 0xFFFCAF98  |  4294750104 |
|     473 | 0xFFFFA2E1  |  4294943457 |
|     474 | 0x20F3      |        8435 |
|     475 | 0x20F4      |        8436 |
|     476 | 0x05FC      |        1532 |
|     477 | 0x20F5      |        8437 |
|     478 | 0xC16D      |       49517 |
|     479 | 0xFFFCB2E9  |  4294750953 |
|     480 | 0xFFFFA3EF  |  4294943727 |
|     481 | 0x002F      |          47 |
|     482 | 0xC972      |       51570 |
|     483 | 0xFFFCB902  |  4294752514 |
|     484 | 0xFFFFA353  |  4294943571 |
|     485 | 0x00AB      |         171 |
|     486 | 0x20F6      |        8438 |
|     487 | 0x20F7      |        8439 |
|     488 | 0x0190      |         400 |
|     489 | 0xDDF1      |       56817 |
|     490 | 0xFFFCB8AA  |  4294752426 |
|     491 | 0xFFFFA33F  |  4294943551 |
|     492 | 0x0E42      |        3650 |
|     493 | 0xDD78      |       56696 |
|     494 | 0xFFFCAFA6  |  4294750118 |
|     495 | 0xFFFFA2E4  |  4294943460 |
|     496 | 0xE350      |       58192 |
|     497 | 0xFFFC9FDD  |  4294746077 |
|     498 | 0xFFFFA344  |  4294943556 |
|     499 | 0xE971      |       59761 |
|     500 | 0xFFFCA68F  |  4294747791 |
|     501 | 0xDC4A      |       56394 |
|     502 | 0xFFFCB15E  |  4294750558 |
|     503 | 0xFFFFA2F3  |  4294943475 |
|     504 | 0xFA54      |       64084 |
|     505 | 0xFFFCA96E  |  4294748526 |
|     506 | 0xFFFFA278  |  4294943352 |
|     507 | 0xD2D0      |       53968 |
|     508 | 0xFFFCA271  |  4294746737 |
|     509 | 0xFFFFA3D1  |  4294943697 |
|     510 | 0x20F8      |        8440 |
|     511 | 0x0080      |         128 |
|     512 | 0x20F9      |        8441 |
|     513 | 0x20FA      |        8442 |
|     514 | 0x05FA      |        1530 |
|     515 | 0x20FB      |        8443 |
|     516 | 0x04D5      |        1237 |
|     517 | 0x20FC      |        8444 |
|     518 | 0x20FD      |        8445 |
|     519 | 0x20FE      |        8446 |
|     520 | 0x000D      |          13 |
|     521 | 0xDCDC      |       56540 |
|     522 | 0xFFFCA6F4  |  4294747892 |
|     523 | 0xFFFFA2E9  |  4294943465 |
|     524 | 0x0EBA      |        3770 |
|     525 | 0xDCAD      |       56493 |
|     526 | 0xFFFCAC17  |  4294749207 |
|     527 | 0xFFFFA2ED  |  4294943469 |
|     528 | 0x0F4B      |        3915 |
|     529 | 0x0696      |        1686 |
|     530 | 0x06C6      |        1734 |
|     531 | 0x0DC2      |        3522 |
|     532 | 0x0D4B      |        3403 |
|     533 | 0xD038      |       53304 |
|     534 | 0xFFFCAE70  |  4294749808 |
|     535 | 0xFFFFA3D8  |  4294943704 |
|     536 | 0x0F6D      |        3949 |
|     537 | 0xD50B      |       54539 |
|     538 | 0xFFFCAB62  |  4294749026 |
|     539 | 0xFFFFA397  |  4294943639 |
|     540 | 0x0F47      |        3911 |
|     541 | 0xD5EC      |       54764 |
|     542 | 0xFFFCBAE4  |  4294752996 |
|     543 | 0xFFFFA398  |  4294943640 |
|     544 | 0x00D3      |         211 |
|     545 | 0x01E7      |         487 |
|     546 | 0x20FF      |        8447 |
|     547 | 0x052F      |        1327 |
|     548 | 0x2100      |        8448 |
|     549 | 0x0100      |         256 |
|     550 | 0x2101      |        8449 |
|     551 | 0x006F      |         111 |
|     552 | 0x002D      |          45 |
|     553 | 0x2102      |        8450 |
|     554 | 0x2103      |        8451 |
|     555 | 0x0854      |        2132 |
|     556 | 0x2104      |        8452 |
|     557 | 0xFFFFFF80  |  4294967168 |
|     558 | 0xFFFFFE00  |  4294966784 |
|     559 | 0x2105      |        8453 |
|     560 | 0x0024      |          36 |
|     561 | 0xFBC1      |       64449 |
|     562 | 0xFFFCAE96  |  4294749846 |
|     563 | 0xFFFFA2D4  |  4294943444 |
|     564 | 0xF33D      |       62269 |
|     565 | 0xFFFCAB3D  |  4294748989 |
|     566 | 0x0420      |        1056 |
|     567 | 0xF21A      |       61978 |
|     568 | 0xFFFCA91C  |  4294748444 |
|     569 | 0x0727      |        1831 |
|     570 | 0x0217      |         535 |
|     571 | 0x0215      |         533 |
|     572 | 0xFFFDC732  |  4294821682 |
|     573 | 0xFFFF4963  |  4294920547 |
|     574 | 0xFFFFA329  |  4294943529 |
|     575 | 0xFFFDC308  |  4294820616 |
|     576 | 0xFFFF4642  |  4294919746 |
|     577 | 0xFFFFA27F  |  4294943359 |
|     578 | 0x0867      |        2151 |
|     579 | 0xFFFD6A19  |  4294797849 |
|     580 | 0xFFFF4EBC  |  4294921916 |
|     581 | 0xFFFFA799  |  4294944665 |
|     582 | 0x0D9E      |        3486 |
|     583 | 0xFFFD68FF  |  4294797567 |
|     584 | 0xFFFF6555  |  4294927701 |
|     585 | 0xFFFFA6D2  |  4294944466 |
|     586 | 0x0839      |        2105 |
|     587 | 0xFFFD6FA3  |  4294799267 |
|     588 | 0xFFFF76D0  |  4294932176 |
|     589 | 0xFFFFA5EB  |  4294944235 |
|     590 | 0x05DA      |        1498 |
|     591 | 0xFFFDE7D0  |  4294830032 |
|     592 | 0xFFFF815D  |  4294934877 |
|     593 | 0xFFFFA3F8  |  4294943736 |
|     594 | 0x06F6      |        1782 |
|     595 | 0xFFFDB15A  |  4294816090 |
|     596 | 0xFFFF5F93  |  4294926227 |
|     597 | 0xFFFFA32F  |  4294943535 |
|     598 | 0x007D      |         125 |
|     599 | 0xFFFD8B9E  |  4294806430 |
|     600 | 0xFFFF59EF  |  4294924783 |
|     601 | 0x0D19      |        3353 |
|     602 | 0xFFFD8908  |  4294805768 |
|     603 | 0xFFFF6F16  |  4294930198 |
|     604 | 0xFFFFA28C  |  4294943372 |
|     605 | 0x090C      |        2316 |
|     606 | 0xFFFD89FC  |  4294806012 |
|     607 | 0xFFFF73F8  |  4294931448 |
|     608 | 0xFFFFA269  |  4294943337 |
|     609 | 0x086E      |        2158 |
|     610 | 0xFFFD8D41  |  4294806849 |
|     611 | 0xFFFF6BAC  |  4294929324 |
|     612 | 0xFFFFA255  |  4294943317 |
|     613 | 0x0811      |        2065 |
|     614 | 0xFFFD8EBC  |  4294807228 |
|     615 | 0xFFFF754F  |  4294931791 |
|     616 | 0xFFFFA233  |  4294943283 |
|     617 | 0x0747      |        1863 |
|     618 | 0xFFFD8F2C  |  4294807340 |
|     619 | 0xFFFF7086  |  4294930566 |
|     620 | 0xFFFFA23E  |  4294943294 |
|     621 | 0x099E      |        2462 |
|     622 | 0xFFFD8D70  |  4294806896 |
|     623 | 0xFFFF7C62  |  4294933602 |
|     624 | 0xFFFFA34D  |  4294943565 |
|     625 | 0x05F9      |        1529 |
|     626 | 0xFFFDAFA7  |  4294815655 |
|     627 | 0xFFFF689E  |  4294928542 |
|     628 | 0xFFFFA305  |  4294943493 |
|     629 | 0xFFFDAA02  |  4294814210 |
|     630 | 0xFFFF634B  |  4294927179 |
|     631 | 0xFFFFA2D1  |  4294943441 |
|     632 | 0xFFFD89B6  |  4294805942 |
|     633 | 0xFFFF83A8  |  4294935464 |
|     634 | 0xFFFFA487  |  4294943879 |
|     635 | 0x05B5      |        1461 |
|     636 | 0xFFFD9392  |  4294808466 |
|     637 | 0xFFFF7C82  |  4294933634 |
|     638 | 0xFFFFA35F  |  4294943583 |
|     639 | 0x0654      |        1620 |
|     640 | 0xFFFD8D52  |  4294806866 |
|     641 | 0xFFFF80A3  |  4294934691 |
|     642 | 0xFFFFA3D2  |  4294943698 |
|     643 | 0x0612      |        1554 |
|     644 | 0xFFFD86AD  |  4294805165 |
|     645 | 0xFFFF8849  |  4294936649 |
|     646 | 0xFFFFA6B0  |  4294944432 |
|     647 | 0x05B7      |        1463 |
|     648 | 0xFFFD8A09  |  4294806025 |
|     649 | 0xFFFF64EF  |  4294927599 |
|     650 | 0x084E      |        2126 |
|     651 | 0xFFFD8807  |  4294805511 |
|     652 | 0xFFFF6260  |  4294926944 |
|     653 | 0xFFFFA2BF  |  4294943423 |
|     654 | 0x0848      |        2120 |
|     655 | 0xFFFD8CFF  |  4294806783 |
|     656 | 0xFFFF61E0  |  4294926816 |
|     657 | 0xFFFFA243  |  4294943299 |
|     658 | 0x0874      |        2164 |
|     659 | 0xFFFD8A9C  |  4294806172 |
|     660 | 0xFFFF5E0B  |  4294925835 |
|     661 | 0x0868      |        2152 |
|     662 | 0xFFFD82FE  |  4294804222 |
|     663 | 0xFFFF5858  |  4294924376 |
|     664 | 0xFFFFA2D9  |  4294943449 |
|     665 | 0x0B12      |        2834 |
|     666 | 0xFFFD7FD1  |  4294803409 |
|     667 | 0xFFFF565A  |  4294923866 |
|     668 | 0xFFFFA2EC  |  4294943468 |
|     669 | 0x0ACB      |        2763 |
|     670 | 0xFFFD866E  |  4294805102 |
|     671 | 0xFFFF54D9  |  4294923481 |
|     672 | 0xFFFFA2AD  |  4294943405 |
|     673 | 0x08CD      |        2253 |
|     674 | 0xFFFD8750  |  4294805328 |
|     675 | 0xFFFF58C0  |  4294924480 |
|     676 | 0xFFFFA2A2  |  4294943394 |
|     677 | 0xFFFE2564  |  4294845796 |
|     678 | 0xFFFF63C0  |  4294927296 |
|     679 | 0x07D0      |        2000 |
|     680 | 0x087D      |        2173 |
|     681 | 0x001D      |          29 |
|     682 | 0x0218      |         536 |
|     683 | 0x2107      |        8455 |
|     684 | 0x2108      |        8456 |
|     685 | 0x004B      |          75 |
|     686 | 0x2109      |        8457 |
|     687 | 0xFFFD822D  |  4294804013 |
|     688 | 0xFFFF6E1C  |  4294929948 |
|     689 | 0xFFFFA2E3  |  4294943459 |
|     690 | 0x05BE      |        1470 |
|     691 | 0x210A      |        8458 |
|     692 | 0xFFFD76EF  |  4294801135 |
|     693 | 0xFFFF55B6  |  4294923702 |
|     694 | 0xFFFFA477  |  4294943863 |
|     695 | 0x0C40      |        3136 |
|     696 | 0xFFFD70DE  |  4294799582 |
|     697 | 0xFFFF58E0  |  4294924512 |
|     698 | 0xFFFFA588  |  4294944136 |
|     699 | 0x0A23      |        2595 |
|     700 | 0x210B      |        8459 |
|     701 | 0x0B63      |        2915 |
|     702 | 0x210C      |        8460 |
|     703 | 0x210D      |        8461 |
|     704 | 0x210E      |        8462 |
|     705 | 0x210F      |        8463 |
|     706 | 0x2110      |        8464 |
|     707 | 0x0BD8      |        3032 |
|     708 | 0x2111      |        8465 |
|     709 | 0x2112      |        8466 |
|     710 | 0x2113      |        8467 |
|     711 | 0x0FFE      |        4094 |
|     712 | 0xFFFD84CD  |  4294804685 |
|     713 | 0xFFFF54A9  |  4294923433 |
|     714 | 0xFFFFA2C2  |  4294943426 |
|     715 | 0x00DC      |         220 |
|     716 | 0x2114      |        8468 |
|     717 | 0x2115      |        8469 |
|     718 | 0xFFFD752E  |  4294800686 |
|     719 | 0xFFFF567A  |  4294923898 |
|     720 | 0xFFFFA4C7  |  4294943943 |
|     721 | 0x0C57      |        3159 |
|     722 | 0x0B64      |        2916 |
|     723 | 0x2116      |        8470 |
|     724 | 0x2117      |        8471 |
|     725 | 0x000E      |          14 |
|     726 | 0x00D5      |         213 |
|     727 | 0x2118      |        8472 |
|     728 | 0x2119      |        8473 |
|     729 | 0xFFFD739A  |  4294800282 |
|     730 | 0xFFFF542A  |  4294923306 |
|     731 | 0xFFFFA50C  |  4294944012 |
|     732 | 0x0C56      |        3158 |
|     733 | 0x211B      |        8475 |
|     734 | 0x0880      |        2176 |
|     735 | 0x211C      |        8476 |
|     736 | 0xFFFD7545  |  4294800709 |
|     737 | 0xFFFF5839  |  4294924345 |
|     738 | 0xFFFFA4C3  |  4294943939 |
|     739 | 0xFFFD91B0  |  4294807984 |
|     740 | 0xFFFF85CD  |  4294936013 |
|     741 | 0xFFFFA517  |  4294944023 |
|     742 | 0x0C58      |        3160 |
|     743 | 0xFFFD9229  |  4294808105 |
|     744 | 0xFFFF6F2A  |  4294930218 |
|     745 | 0xFFFFA240  |  4294943296 |
|     746 | 0x00CA      |         202 |
|     747 | 0xFFFD99F8  |  4294810104 |
|     748 | 0xFFFF6C79  |  4294929529 |
|     749 | 0xFFFFA241  |  4294943297 |
|     750 | 0x0C13      |        3091 |
|     751 | 0xFFFD98A3  |  4294809763 |
|     752 | 0xFFFF71C5  |  4294930885 |
|     753 | 0xFFFD9D92  |  4294811026 |
|     754 | 0xFFFF6E28  |  4294929960 |
|     755 | 0xFFFFA232  |  4294943282 |
|     756 | 0xFFFD9C01  |  4294810625 |
|     757 | 0xFFFF68D7  |  4294928599 |
|     758 | 0x087E      |        2174 |
|     759 | 0xFFFD9CA8  |  4294810792 |
|     760 | 0xFFFF73DC  |  4294931420 |
|     761 | 0x095E      |        2398 |
|     762 | 0xFFFD8F4C  |  4294807372 |
|     763 | 0xFFFF907F  |  4294938751 |
|     764 | 0xFFFFA904  |  4294945028 |
|     765 | 0x0441      |        1089 |
|     766 | 0xFFFD95CD  |  4294809037 |
|     767 | 0xFFFF8C2D  |  4294937645 |
|     768 | 0xFFFFA76C  |  4294944620 |
|     769 | 0x04EB      |        1259 |
|     770 | 0xFFFD9ACB  |  4294810315 |
|     771 | 0xFFFF887E  |  4294936702 |
|     772 | 0xFFFFA5DC  |  4294944220 |
|     773 | 0x04DE      |        1246 |
|     774 | 0xFFFD92C2  |  4294808258 |
|     775 | 0xFFFF9521  |  4294939937 |
|     776 | 0xFFFFA99B  |  4294945179 |
|     777 | 0x066E      |        1646 |
|     778 | 0xFFFDA5A7  |  4294813095 |
|     779 | 0xFFFF8786  |  4294936454 |
|     780 | 0xFFFFA3A4  |  4294943652 |
|     781 | 0x048C      |        1164 |
|     782 | 0xFFFDA0BA  |  4294811834 |
|     783 | 0xFFFF8B7F  |  4294937471 |
|     784 | 0xFFFFA54F  |  4294944079 |
|     785 | 0xFFFD995E  |  4294809950 |
|     786 | 0xFFFF8F8E  |  4294938510 |
|     787 | 0xFFFFA774  |  4294944628 |
|     788 | 0xFFFD6ECE  |  4294799054 |
|     789 | 0xFFFF5B23  |  4294925091 |
|     790 | 0xFFFFA5E3  |  4294944227 |
|     791 | 0x211D      |        8477 |
|     792 | 0x211E      |        8478 |
|     793 | 0x211F      |        8479 |
|     794 | 0x2120      |        8480 |
|     795 | 0xFFFD7DD5  |  4294802901 |
|     796 | 0xFFFF5AAA  |  4294924970 |
|     797 | 0xFFFFA322  |  4294943522 |
|     798 | 0x0A91      |        2705 |
|     799 | 0x2121      |        8481 |
|     800 | 0x0180      |         384 |
|     801 | 0x2122      |        8482 |
|     802 | 0x2123      |        8483 |
|     803 | 0x009D      |         157 |
|     804 | 0x0BD4      |        3028 |
|     805 | 0x2124      |        8484 |
|     806 | 0x2125      |        8485 |
|     807 | 0xFFFDA041  |  4294811713 |
|     808 | 0xFFFF6925  |  4294928677 |
|     809 | 0xFFFFA246  |  4294943302 |
|     810 | 0x0506      |        1286 |
|     811 | 0xFFFD76A6  |  4294801062 |
|     812 | 0xFFFF6586  |  4294927750 |
|     813 | 0xFFFFA4D2  |  4294943954 |
|     814 | 0x08A3      |        2211 |
|     815 | 0x2126      |        8486 |
|     816 | 0x2127      |        8487 |
|     817 | 0x00AF      |         175 |
|     818 | 0x2128      |        8488 |
|     819 | 0x2129      |        8489 |
|     820 | 0x212A      |        8490 |
|     821 | 0x212B      |        8491 |
|     822 | 0x212C      |        8492 |
|     823 | 0xFFFD7A53  |  4294802003 |
|     824 | 0xFFFF6F24  |  4294930212 |
|     825 | 0xFFFFA3E0  |  4294943712 |
|     826 | 0x212D      |        8493 |
|     827 | 0x212E      |        8494 |
|     828 | 0x212F      |        8495 |
|     829 | 0x2130      |        8496 |
|     830 | 0x2131      |        8497 |
|     831 | 0x2132      |        8498 |
|     832 | 0x2133      |        8499 |
|     833 | 0x2134      |        8500 |
|     834 | 0x2135      |        8501 |
|     835 | 0x2136      |        8502 |
|     836 | 0x2137      |        8503 |
|     837 | 0x2138      |        8504 |
|     838 | 0x2139      |        8505 |
|     839 | 0x213A      |        8506 |
|     840 | 0x213B      |        8507 |
|     841 | 0x094E      |        2382 |
|     842 | 0x213C      |        8508 |
|     843 | 0x213D      |        8509 |
|     844 | 0x213E      |        8510 |
|     845 | 0x213F      |        8511 |
|     846 | 0x2140      |        8512 |
|     847 | 0x0402      |        1026 |
|     848 | 0x2141      |        8513 |
|     849 | 0x2142      |        8514 |
|     850 | 0x2143      |        8515 |
|     851 | 0xFFF93FA8  |  4294524840 |
|     852 | 0xFFFC76CA  |  4294735562 |
|     853 | 0x0728      |        1832 |
|     854 | 0xFFF94BB2  |  4294527922 |
|     855 | 0xFFFC7A3B  |  4294736443 |
|     856 | 0x0F55      |        3925 |
|     857 | 0xFFF95DF1  |  4294532593 |
|     858 | 0xFFFC8A2A  |  4294740522 |
|     859 | 0x0625      |        1573 |
|     860 | 0xFFF94A13  |  4294527507 |
|     861 | 0xFFFC7042  |  4294733890 |
|     862 | 0xFFF94FE9  |  4294529001 |
|     863 | 0xFFFC697A  |  4294732154 |
|     864 | 0xFFF95B72  |  4294531954 |
|     865 | 0xFFFC935D  |  4294742877 |
|     866 | 0xFFF957F7  |  4294531063 |
|     867 | 0xFFFC77E3  |  4294735843 |
|     868 | 0xFFF95589  |  4294530441 |
|     869 | 0xFFFC8193  |  4294738323 |
|     870 | 0xFFF95ED7  |  4294532823 |
|     871 | 0xFFFC7F26  |  4294737702 |
|     872 | 0x2144      |        8516 |
|     873 | 0x2145      |        8517 |
|     874 | 0x09CD      |        2509 |
|     875 | 0xFFF95D58  |  4294532440 |
|     876 | 0xFFFC75AF  |  4294735279 |
|     877 | 0x1081      |        4225 |
|     878 | 0x2146      |        8518 |
|     879 | 0x0082      |         130 |
|     880 | 0x0ABC      |        2748 |
|     881 | 0xFFFD7BC5  |  4294802373 |
|     882 | 0xFFFFECFD  |  4294962429 |
|     883 | 0xFFFFC1F6  |  4294951414 |
|     884 | 0x0D98      |        3480 |
|     885 | 0xFFFD7B85  |  4294802309 |
|     886 | 0xFFFFF0AB  |  4294963371 |
|     887 | 0xFFFFC264  |  4294951524 |
|     888 | 0x0D0E      |        3342 |
|     889 | 0xFFFD7B2A  |  4294802218 |
|     890 | 0xFFFFF539  |  4294964537 |
|     891 | 0xFFFFC26A  |  4294951530 |
|     892 | 0x0D0D      |        3341 |
|     893 | 0xFFFD80C4  |  4294803652 |
|     894 | 0xFFFFF301  |  4294963969 |
|     895 | 0xFFFFC1D2  |  4294951378 |
|     896 | 0x0E20      |        3616 |
|     897 | 0xFFFD8354  |  4294804308 |
|     898 | 0xFFFFEE30  |  4294962736 |
|     899 | 0xFFFFC190  |  4294951312 |
|     900 | 0x0F28      |        3880 |
|     901 | 0xFFFD7FFE  |  4294803454 |
|     902 | 0xFFFFF9BD  |  4294965693 |
|     903 | 0xFFFFC1E7  |  4294951399 |
|     904 | 0x0D3E      |        3390 |
|     905 | 0xFFFD7FD4  |  4294803412 |
|     906 | 0xFFFFE8FD  |  4294961405 |
|     907 | 0xFFFFC127  |  4294951207 |
|     908 | 0x0CDE      |        3294 |
|     909 | 0xFFFD7190  |  4294799760 |
|     910 | 0xFFFFF3BF  |  4294964159 |
|     911 | 0xFFFFC37C  |  4294951804 |
|     912 | 0x0186      |         390 |
|     913 | 0xFFFD725D  |  4294799965 |
|     914 | 0xFFFFEED2  |  4294962898 |
|     915 | 0xFFFFC349  |  4294951753 |
|     916 | 0x0F34      |        3892 |
|     917 | 0xFFFD720D  |  4294799885 |
|     918 | 0xFFFFFB24  |  4294966052 |
|     919 | 0xFFFFC38D  |  4294951821 |
|     920 | 0x04DA      |        1242 |
|     921 | 0xFFFD6C78  |  4294798456 |
|     922 | 0xFFFFFD3E  |  4294966590 |
|     923 | 0xFFFFC41F  |  4294951967 |
|     924 | 0x0E5B      |        3675 |
|     925 | 0xFFFD72EC  |  4294800108 |
|     926 | 0xFFFFFF8C  |  4294967180 |
|     927 | 0xFFFFC3BB  |  4294951867 |
|     928 | 0x02EA      |         746 |
|     929 | 0xFFF99440  |  4294546496 |
|     930 | 0x52AA      |       21162 |
|     931 | 0xFFFEB8D0  |  4294883536 |
|     932 | 0xFFF996FC  |  4294547196 |
|     933 | 0x4282      |       17026 |
|     934 | 0xFFF988EC  |  4294543596 |
|     935 | 0x5106      |       20742 |
|     936 | 0xFFFEA476  |  4294878326 |
|     937 | 0xFFF9AF98  |  4294553496 |
|     938 | 0x6534      |       25908 |
|     939 | 0xFFFED202  |  4294889986 |
|     940 | 0x2147      |        8519 |
|     941 | 0x2148      |        8520 |
|     942 | 0x2149      |        8521 |
|     943 | 0x214A      |        8522 |
|     944 | 0xFFFD88C1  |  4294805697 |
|     945 | 0x1AD5      |        6869 |
|     946 | 0xFFFFC201  |  4294951425 |
|     947 | 0xFFFD87A1  |  4294805409 |
|     948 | 0x201E      |        8222 |
|     949 | 0xFFFFC241  |  4294951489 |
|     950 | 0x090B      |        2315 |
|     951 | 0xFFFD8574  |  4294804852 |
|     952 | 0x1460      |        5216 |
|     953 | 0xFFFFC21F  |  4294951455 |
|     954 | 0x094F      |        2383 |
|     955 | 0xFFFD80DB  |  4294803675 |
|     956 | 0x1E76      |        7798 |
|     957 | 0xFFFFC1FD  |  4294951421 |
|     958 | 0xFFFD830B  |  4294804235 |
|     959 | 0x1BFD      |        7165 |
|     960 | 0x017D      |         381 |
|     961 | 0xFFFD97FD  |  4294809597 |
|     962 | 0x2412      |        9234 |
|     963 | 0xFFFFC284  |  4294951556 |
|     964 | 0x014C      |         332 |
|     965 | 0xFFFCF7DA  |  4294768602 |
|     966 | 0xA147      |       41287 |
|     967 | 0xFFFFF061  |  4294963297 |
|     968 | 0xFFFDAB7D  |  4294814589 |
|     969 | 0x0F2C      |        3884 |
|     970 | 0xFFFFC21D  |  4294951453 |
|     971 | 0x0A45      |        2629 |
|     972 | 0xFFFDB004  |  4294815748 |
|     973 | 0x13AB      |        5035 |
|     974 | 0xFFFFC25D  |  4294951517 |
|     975 | 0x0643      |        1603 |
|     976 | 0xFFFC97AA  |  4294743978 |
|     977 | 0x8D3A      |       36154 |
|     978 | 0xFFFFDD73  |  4294958451 |
|     979 | 0x0380      |         896 |
|     980 | 0xFFFCA8A0  |  4294748320 |
|     981 | 0x4FFC      |       20476 |
|     982 | 0xFFFFDEC6  |  4294958790 |
|     983 | 0x0772      |        1906 |
|     984 | 0xFFFC9CA7  |  4294745255 |
|     985 | 0x63E6      |       25574 |
|     986 | 0xFFFFDE8B  |  4294958731 |
|     987 | 0x0A79      |        2681 |
|     988 | 0xFFFC7FCF  |  4294737871 |
|     989 | 0x6BDF      |       27615 |
|     990 | 0xFFFFD85F  |  4294957151 |
|     991 | 0x0CCC      |        3276 |
|     992 | 0xFFFC76A2  |  4294735522 |
|     993 | 0x3679      |       13945 |
|     994 | 0xFFFFD522  |  4294956322 |
|     995 | 0x0AEE      |        2798 |
|     996 | 0xFFFDA225  |  4294812197 |
|     997 | 0x0B7C      |        2940 |
|     998 | 0xFFFFC1AD  |  4294951341 |
|     999 | 0x0CE4      |        3300 |
|    1000 | 0xFFFD7FF0  |  4294803440 |
|    1001 | 0x29DD      |       10717 |
|    1002 | 0xFFFFC29A  |  4294951578 |
|    1003 | 0x0395      |         917 |
|    1004 | 0xFFFDA164  |  4294812004 |
|    1005 | 0x18E9      |        6377 |
|    1006 | 0xFFFFC219  |  4294951449 |
|    1007 | 0xFFFD99BA  |  4294810042 |
|    1008 | 0x1800      |        6144 |
|    1009 | 0xFFFFC1EB  |  4294951403 |
|    1010 | 0x0B42      |        2882 |
|    1011 | 0xFFFCAD5C  |  4294749532 |
|    1012 | 0x8059      |       32857 |
|    1013 | 0xFFFFE32A  |  4294959914 |
|    1014 | 0x038D      |         909 |
|    1015 | 0xFFFCC08D  |  4294754445 |
|    1016 | 0x7201      |       29185 |
|    1017 | 0xFFFFE837  |  4294961207 |
|    1018 | 0x0B8B      |        2955 |
|    1019 | 0xFFFC7765  |  4294735717 |
|    1020 | 0x5375      |       21365 |
|    1021 | 0xFFFFD631  |  4294956593 |
|    1022 | 0x0DD2      |        3538 |
|    1023 | 0x5987      |       22919 |
|    1024 | 0xFFFFDC60  |  4294958176 |
|    1025 | 0x0351      |         849 |
|    1026 | 0xFFFC1544  |  4294710596 |
|    1027 | 0x6F18      |       28440 |
|    1028 | 0xFFFFB4C4  |  4294948036 |
|    1029 | 0x0470      |        1136 |
|    1030 | 0xFFFC8FA1  |  4294741921 |
|    1031 | 0x82D3      |       33491 |
|    1032 | 0xFFFFDC10  |  4294958096 |
|    1033 | 0x01A8      |         424 |
|    1034 | 0xFFFD0EAB  |  4294774443 |
|    1035 | 0x815C      |       33116 |
|    1036 | 0xFFFFF2BA  |  4294963898 |
|    1037 | 0x0A1A      |        2586 |
|    1038 | 0xFFFC14CA  |  4294710474 |
|    1039 | 0xA33B      |       41787 |
|    1040 | 0xFFFFD6BD  |  4294956733 |
|    1041 | 0xFFFCA8B1  |  4294748337 |
|    1042 | 0x8D1C      |       36124 |
|    1043 | 0xFFFFF14E  |  4294963534 |
|    1044 | 0x0FD9      |        4057 |
|    1045 | 0xFFFC4DDE  |  4294725086 |
|    1046 | 0x33AC      |       13228 |
|    1047 | 0xFFFFE6AF  |  4294960815 |
|    1048 | 0x0C3F      |        3135 |
|    1049 | 0xFFF870D8  |  4294471896 |
|    1050 | 0x2628C     |      156300 |
|    1051 | 0xFFFD727C  |  4294799996 |
|    1052 | 0x009B      |         155 |
|    1053 | 0x00F6      |         246 |
|    1054 | 0x00C7      |         199 |
|    1055 | 0x003E      |          62 |
|    1056 | 0x08CF      |        2255 |
|    1057 | 0x0B60      |        2912 |
|    1058 | 0x08AA      |        2218 |
|    1059 | 0x0AA0      |        2720 |
|    1060 | 0x0AF2      |        2802 |
|    1061 | 0x08FD      |        2301 |
|    1062 | 0x08CA      |        2250 |
|    1063 | 0xFFFD21A1  |  4294779297 |
|    1064 | 0x7263      |       29283 |
|    1065 | 0xFFFFFA86  |  4294965894 |
|    1066 | 0xFFFCEFA1  |  4294766497 |
|    1067 | 0xAF90      |       44944 |
|    1068 | 0xFFFFF08F  |  4294963343 |
|    1069 | 0xFFFD0716  |  4294772502 |
|    1070 | 0x6925      |       26917 |
|    1071 | 0xFFFFF297  |  4294963863 |
|    1072 | 0x01A9      |         425 |
|    1073 | 0xFFFD16D2  |  4294776530 |
|    1074 | 0x4935      |       18741 |
|    1075 | 0xFFFFF3CF  |  4294964175 |
|    1076 | 0x0755      |        1877 |
|    1077 | 0xFFFD1575  |  4294776181 |
|    1078 | 0x97B6      |       38838 |
|    1079 | 0xFFFFF1E0  |  4294963680 |
|    1080 | 0x084A      |        2122 |
|    1081 | 0x0850      |        2128 |
|    1082 | 0x214D      |        8525 |
|    1083 | 0x214E      |        8526 |
|    1084 | 0x214F      |        8527 |
|    1085 | 0x2150      |        8528 |
|    1086 | 0x054F      |        1359 |
|    1087 | 0x2151      |        8529 |
|    1088 | 0xFFFD890D  |  4294805773 |
|    1089 | 0x1E16      |        7702 |
|    1090 | 0xFFFFC22B  |  4294951467 |
|    1091 | 0x2152      |        8530 |
|    1092 | 0xFFFD7AF6  |  4294802166 |
|    1093 | 0x1C9E      |        7326 |
|    1094 | 0xFFFFC2C7  |  4294951623 |
|    1095 | 0x2153      |        8531 |
|    1096 | 0x2154      |        8532 |
|    1097 | 0x2155      |        8533 |
|    1098 | 0xFFFDFEB1  |  4294835889 |
|    1099 | 0xFFFFF9B8  |  4294965688 |
|    1100 | 0xFFFFC2F0  |  4294951664 |
|    1101 | 0x0F98      |        3992 |
|    1102 | 0xFFFE04AC  |  4294837420 |
|    1103 | 0x021E      |         542 |
|    1104 | 0xFFFFC2A4  |  4294951588 |
|    1105 | 0xFFFE131D  |  4294841117 |
|    1106 | 0xFFFFFE07  |  4294966791 |
|    1107 | 0xFFFFC1EC  |  4294951404 |
|    1108 | 0xFFFC80F5  |  4294738165 |
|    1109 | 0xC443      |       50243 |
|    1110 | 0xFFFFDA29  |  4294957609 |
|    1111 | 0x057C      |        1404 |
|    1112 | 0xFFFC1477  |  4294710391 |
|    1113 | 0xA048      |       41032 |
|    1114 | 0xFFFFB3AD  |  4294947757 |
|    1115 | 0x2156      |        8534 |
|    1116 | 0x012C      |         300 |
|    1117 | 0xFFFFFE0C  |  4294966796 |
|    1118 | 0xFFFFFF38  |  4294967096 |
|    1119 | 0x2157      |        8535 |
|    1120 | 0x2158      |        8536 |
|    1121 | 0xFFFDD3DA  |  4294824922 |
|    1122 | 0xFFFFF722  |  4294965026 |
|    1123 | 0xFFFFC4F2  |  4294952178 |
|    1124 | 0x2159      |        8537 |
|    1125 | 0xFFFDD747  |  4294825799 |
|    1126 | 0xFFFFFF8D  |  4294967181 |
|    1127 | 0xFFFFC51D  |  4294952221 |
|    1128 | 0xFFFDD2C7  |  4294824647 |
|    1129 | 0xFFFFC49D  |  4294952093 |
|    1130 | 0xFFFD7999  |  4294801817 |
|    1131 | 0x14D9      |        5337 |
|    1132 | 0xFFFFC355  |  4294951765 |
|    1133 | 0xFFFFDF2E  |  4294958894 |
|    1134 | 0xFFFD712D  |  4294799661 |
|    1135 | 0x2AAB      |       10923 |
|    1136 | 0xFFFFC43A  |  4294951994 |
|    1137 | 0xFFFD855E  |  4294804830 |
|    1138 | 0x21C5      |        8645 |
|    1139 | 0xFFFFC251  |  4294951505 |
|    1140 | 0x215A      |        8538 |
|    1141 | 0x215B      |        8539 |
|    1142 | 0x007F      |         127 |
|    1143 | 0x0079      |         121 |
|    1144 | 0xFFFFBE7D  |  4294950525 |
|    1145 | 0xFFFD730C  |  4294800140 |
|    1146 | 0x279D      |       10141 |
|    1147 | 0xFFFFC3E9  |  4294951913 |
|    1148 | 0x03E8      |        1000 |
|    1149 | 0xFFFC962C  |  4294743596 |
|    1150 | 0xFFFFAEFC  |  4294946556 |
|    1151 | 0xFFFD6EF8  |  4294799096 |
|    1152 | 0x2680      |        9856 |
|    1153 | 0xFFFFC34C  |  4294951756 |
|    1154 | 0xFFFD0710  |  4294772496 |
|    1155 | 0x3D46      |       15686 |
|    1156 | 0xFFFFD0A8  |  4294955176 |
|    1157 | 0x0AF0      |        2800 |
|    1158 | 0x09BD      |        2493 |
|    1159 | 0x0BD9      |        3033 |
|    1160 | 0x215C      |        8540 |
|    1161 | 0xFFFD3B04  |  4294785796 |
|    1162 | 0x5A65      |       23141 |
|    1163 | 0xFFFFE6D8  |  4294960856 |
|    1164 | 0x215D      |        8541 |
|    1165 | 0xFFFD40E0  |  4294787296 |
|    1166 | 0x50A4      |       20644 |
|    1167 | 0xFFFFD706  |  4294956806 |
|    1168 | 0x05C8      |        1480 |
|    1169 | 0x215E      |        8542 |
|    1170 | 0x0862      |        2146 |
|    1171 | 0x215F      |        8543 |
|    1172 | 0x2160      |        8544 |
|    1173 | 0x000B      |          11 |
|    1174 | 0x0ADD      |        2781 |
|    1175 | 0xFFFD8597  |  4294804887 |
|    1176 | 0x2324      |        8996 |
|    1177 | 0xFFFFC263  |  4294951523 |
|    1178 | 0x0195      |         405 |
|    1179 | 0x2161      |        8545 |
|    1180 | 0xFFFFDCD8  |  4294958296 |
|    1181 | 0x2162      |        8546 |
|    1182 | 0x2163      |        8547 |
|    1183 | 0xFFFE35CC  |  4294849996 |
|    1184 | 0x0247      |         583 |
|    1185 | 0x2164      |        8548 |
|    1186 | 0x2165      |        8549 |
|    1187 | 0xFFFBB9CA  |  4294687178 |
|    1188 | 0xEA3B      |       59963 |
|    1189 | 0xFFFF910D  |  4294938893 |
|    1190 | 0xFFFBBF8F  |  4294688655 |
|    1191 | 0xFC12      |       64530 |
|    1192 | 0xFFFBBA50  |  4294687312 |
|    1193 | 0x1249E     |       74910 |
|    1194 | 0x0C20      |        3104 |
|    1195 | 0xFFFAFA88  |  4294638216 |
|    1196 | 0x19F0      |        6640 |
|    1197 | 0xFFFF8D95  |  4294938005 |
|    1198 | 0xFFFADF37  |  4294631223 |
|    1199 | 0x17D0      |        6096 |
|    1200 | 0xFFFF86C1  |  4294936257 |
|    1201 | 0xFFFAD191  |  4294627729 |
|    1202 | 0x537F      |       21375 |
|    1203 | 0xFFFF8040  |  4294934592 |
|    1204 | 0xFFFAAA0F  |  4294617615 |
|    1205 | 0x4B39      |       19257 |
|    1206 | 0xFFFF796E  |  4294932846 |
|    1207 | 0xFFFA8B71  |  4294609777 |
|    1208 | 0x385F      |       14431 |
|    1209 | 0xFFFF75E0  |  4294931936 |
|    1210 | 0xFFFAA2C3  |  4294615747 |
|    1211 | 0x121E      |        4638 |
|    1212 | 0xFFFF77A2  |  4294932386 |
|    1213 | 0xFFFB2B86  |  4294650758 |
|    1214 | 0x18FE      |        6398 |
|    1215 | 0xFFFF9317  |  4294939415 |
|    1216 | 0x0C00      |        3072 |
|    1217 | 0xFFFB25AE  |  4294649262 |
|    1218 | 0x0865      |        2149 |
|    1219 | 0xFFFF92A1  |  4294939297 |
|    1220 | 0x0C6F      |        3183 |
|    1221 | 0xFFFAAE48  |  4294618696 |
|    1222 | 0xFFFF5B14  |  4294925076 |
|    1223 | 0xFFFEF408  |  4294898696 |
|    1224 | 0x0BFF      |        3071 |
|    1225 | 0xFFFA9E44  |  4294614596 |
|    1226 | 0xFFFF49D0  |  4294920656 |
|    1227 | 0xFFFEEC9C  |  4294896796 |
|    1228 | 0xFFFB6C20  |  4294667296 |
|    1229 | 0x9C40      |       40000 |
|    1230 | 0xFFF24460  |  4294067296 |
|    1231 | 0xFFFB2AEB  |  4294650603 |
|    1232 | 0x1D6B      |        7531 |
|    1233 | 0xFFFF9350  |  4294939472 |
|    1234 | 0x0394      |         916 |
|    1235 | 0xFFFB246F  |  4294648943 |
|    1236 | 0x09B9      |        2489 |
|    1237 | 0xFFFBBAC7  |  4294687431 |
|    1238 | 0xE96A      |       59754 |
|    1239 | 0xFFFFB5BB  |  4294948283 |
|    1240 | 0x1E1D      |        7709 |
|    1241 | 0x00FD      |         253 |
|    1242 | 0x00B1      |         177 |
|    1243 | 0x01A4      |         420 |
|    1244 | 0xFFFAADE4  |  4294618596 |
|    1245 | 0xFFFF476E  |  4294920046 |
|    1246 | 0xFFFEEFEE  |  4294897646 |
|    1247 | 0xFFFAB2F8  |  4294619896 |
|    1248 | 0xFFFF3D78  |  4294917496 |
|    1249 | 0xFFFEF138  |  4294897976 |
|    1250 | 0xFFFB2AF3  |  4294650611 |
|    1251 | 0xBEFC      |       48892 |
|    1252 | 0xFFFB3482  |  4294653058 |
|    1253 | 0xF8C7      |       63687 |
|    1254 | 0xFFFB6472  |  4294665330 |
|    1255 | 0xE974      |       59764 |
|    1256 | 0xFFFB610A  |  4294664458 |
|    1257 | 0x9FBA      |       40890 |
|    1258 | 0xFFFB61DF  |  4294664671 |
|    1259 | 0x88B5      |       34997 |
|    1260 | 0xFFFB80AF  |  4294672559 |
|    1261 | 0x7F49      |       32585 |
|    1262 | 0xFFFB8D79  |  4294675833 |
|    1263 | 0xACDF      |       44255 |
|    1264 | 0xFFFBA5CE  |  4294682062 |
|    1265 | 0xE2F0      |       58096 |
|    1266 | 0xFFFAD4F4  |  4294628596 |
|    1267 | 0xFFFFB046  |  4294946886 |
|    1268 | 0xFFFF052E  |  4294903086 |
|    1269 | 0xFFF9E580  |  4294567296 |
|    1270 | 0x61A80     |      400000 |
|    1271 | 0xFFF6D840  |  4294367296 |
|    1272 | 0x0073      |         115 |
|    1273 | 0x2166      |        8550 |
|    1274 | 0x0C02      |        3074 |
|    1275 | 0xFFFAA740  |  4294616896 |
|    1276 | 0xFFFF932C  |  4294939436 |
|    1277 | 0xFFFEC974  |  4294887796 |
|    1278 | 0x2167      |        8551 |
|    1279 | 0xFFFD9B80  |  4294810496 |
|    1280 | 0xFFFFF77A  |  4294965114 |
|    1281 | 0xFFFDB2F0  |  4294816496 |
|    1282 | 0xFFFCEFA0  |  4294766496 |
|    1283 | 0x2168      |        8552 |
|    1284 | 0xFFF9F96C  |  4294572396 |
|    1285 | 0xFFFA65A0  |  4294600096 |
|    1286 | 0x94D4      |       38100 |
|    1287 | 0x0CF8      |        3320 |
|    1288 | 0x0584      |        1412 |
|    1289 | 0x2169      |        8553 |
|    1290 | 0x216A      |        8554 |
|    1291 | 0x0522      |        1314 |
|    1292 | 0x00AA      |         170 |
|    1293 | 0xFFFA9B88  |  4294613896 |
|    1294 | 0xFFFA85A8  |  4294608296 |
|    1295 | 0x0640      |        1600 |
|    1296 | 0x0B27      |        2855 |
|    1297 | 0x216B      |        8555 |
|    1298 | 0x2185      |        8581 |
|    1299 | 0x216D      |        8557 |
|    1300 | 0x216E      |        8558 |
|    1301 | 0x2171      |        8561 |
|    1302 | 0x2172      |        8562 |
|    1303 | 0x2173      |        8563 |
|    1304 | 0x2174      |        8564 |
|    1305 | 0x2175      |        8565 |
|    1306 | 0x2176      |        8566 |
|    1307 | 0x2177      |        8567 |
|    1308 | 0x2178      |        8568 |
|    1309 | 0x2179      |        8569 |
|    1310 | 0x217A      |        8570 |
|    1311 | 0x217B      |        8571 |
|    1312 | 0x051F      |        1311 |
|    1313 | 0x217C      |        8572 |
|    1314 | 0x217D      |        8573 |
|    1315 | 0x217E      |        8574 |
|    1316 | 0x217F      |        8575 |
|    1317 | 0x2180      |        8576 |
|    1318 | 0x2181      |        8577 |
|    1319 | 0x2182      |        8578 |
|    1320 | 0x2183      |        8579 |
|    1321 | 0x2184      |        8580 |
|    1322 | 0x216C      |        8556 |
|    1323 | 0x0520      |        1312 |
|    1324 | 0x2186      |        8582 |
|    1325 | 0x2187      |        8583 |
|    1326 | 0x00C3      |         195 |
|    1327 | 0x051E      |        1310 |
|    1328 | 0x2188      |        8584 |
|    1329 | 0x2189      |        8585 |
|    1330 | 0xFFFDBD8B  |  4294819211 |
|    1331 | 0xFFFFF137  |  4294963511 |
|    1332 | 0xFFFFC302  |  4294951682 |
|    1333 | 0xFFFDC587  |  4294821255 |
|    1334 | 0xFFFFF906  |  4294965510 |
|    1335 | 0xFFFFC3D0  |  4294951888 |
|    1336 | 0x0876      |        2166 |
|    1337 | 0xFFFDE7E2  |  4294830050 |
|    1338 | 0xFFFFF003  |  4294963203 |
|    1339 | 0xFFFFC468  |  4294952040 |
|    1340 | 0x0999      |        2457 |
|    1341 | 0xFFFDEA26  |  4294830630 |
|    1342 | 0xFFFFF8F7  |  4294965495 |
|    1343 | 0xFFFFC4C2  |  4294952130 |
|    1344 | 0x07CC      |        1996 |
|    1345 | 0xFFFDD26D  |  4294824557 |
|    1346 | 0xFFFFC4DF  |  4294952159 |
|    1347 | 0x081F      |        2079 |
|    1348 | 0xFFFDED77  |  4294831479 |
|    1349 | 0xFFFFF666  |  4294964838 |
|    1350 | 0xFFFFC48B  |  4294952075 |
|    1351 | 0xFFFDE7AD  |  4294829997 |
|    1352 | 0xFFFFFFA5  |  4294967205 |
|    1353 | 0xFFFFC4E1  |  4294952161 |
|    1354 | 0xFFFE55E0  |  4294858208 |
|    1355 | 0x0FC6      |        4038 |
|    1356 | 0x08D2      |        2258 |
|    1357 | 0xFFFE4D1D  |  4294855965 |
|    1358 | 0xFFFFF9C6  |  4294965702 |
|    1359 | 0xFFFFC268  |  4294951528 |
|    1360 | 0x081C      |        2076 |
|    1361 | 0xFFFE3A3B  |  4294851131 |
|    1362 | 0xFFFFFB08  |  4294966024 |
|    1363 | 0xFFFFC177  |  4294951287 |
|    1364 | 0x05CF      |        1487 |
|    1365 | 0xFFFE411F  |  4294852895 |
|    1366 | 0xFFFFEBE0  |  4294962144 |
|    1367 | 0xFFFFC139  |  4294951225 |
|    1368 | 0x02D2      |         722 |
|    1369 | 0xFFFE6290  |  4294861456 |
|    1370 | 0xFFFFC627  |  4294952487 |
|    1371 | 0xFFFFB6C9  |  4294948553 |
|    1372 | 0x0ADA      |        2778 |
|    1373 | 0xFFFE43F5  |  4294853621 |
|    1374 | 0x09B0      |        2480 |
|    1375 | 0xFFFFC1F3  |  4294951411 |
|    1376 | 0x0502      |        1282 |
|    1377 | 0xFFFE6930  |  4294863152 |
|    1378 | 0xFFFFC8E8  |  4294953192 |
|    1379 | 0xFFFFB52B  |  4294948139 |
|    1380 | 0x0D1E      |        3358 |
|    1381 | 0xFFFD83DD  |  4294804445 |
|    1382 | 0xFFFFF700  |  4294964992 |
|    1383 | 0xFFFFB327  |  4294947623 |
|    1384 | 0xFFFEB047  |  4294881351 |
|    1385 | 0xFFFF333B  |  4294914875 |
|    1386 | 0x0AA4      |        2724 |
|    1387 | 0xFFFEB7F9  |  4294883321 |
|    1388 | 0xFFFF3907  |  4294916359 |
|    1389 | 0xFFFFA399  |  4294943641 |
|    1390 | 0xFFFE7A60  |  4294867552 |
|    1391 | 0x0072      |         114 |
|    1392 | 0xFFFFC55B  |  4294952283 |
|    1393 | 0x0F3F      |        3903 |
|    1394 | 0xFFFE4F61  |  4294856545 |
|    1395 | 0xFFFFC4A3  |  4294952099 |
|    1396 | 0xFFFFBA50  |  4294949456 |
|    1397 | 0x0CB4      |        3252 |
|    1398 | 0xFFFE338C  |  4294849420 |
|    1399 | 0x14A8      |        5288 |
|    1400 | 0xFFFFC13F  |  4294951231 |
|    1401 | 0x0A1B      |        2587 |
|    1402 | 0xFFFD7C39  |  4294802489 |
|    1403 | 0xFFFFFD5C  |  4294966620 |
|    1404 | 0x21E6      |        8678 |
|    1405 | 0x21E7      |        8679 |
|    1406 | 0xFFFE571C  |  4294858524 |
|    1407 | 0xFFFF6C1E  |  4294929438 |
|    1408 | 0xFFFFA1C5  |  4294943173 |
|    1409 | 0x0863      |        2147 |
|    1410 | 0xFFFE5BF6  |  4294859766 |
|    1411 | 0xFFFF72D3  |  4294931155 |
|    1412 | 0xFFFF9F56  |  4294942550 |
|    1413 | 0x21E8      |        8680 |
|    1414 | 0xFFFE56DA  |  4294858458 |
|    1415 | 0xFFFFFC42  |  4294966338 |
|    1416 | 0xFFFFC2E4  |  4294951652 |
|    1417 | 0x0260      |         608 |
|    1418 | 0xFFFE6B89  |  4294863753 |
|    1419 | 0xFFFFD3C2  |  4294955970 |
|    1420 | 0xFFFFB6BB  |  4294948539 |
|    1421 | 0x0145      |         325 |
|    1422 | 0xFFFE1E4E  |  4294843982 |
|    1423 | 0xFFFFA2A3  |  4294943395 |
|    1424 | 0xFFFFAA68  |  4294945384 |
|    1425 | 0xFFFE2785  |  4294846341 |
|    1426 | 0xFFFF9B6D  |  4294941549 |
|    1427 | 0xFFFFAAA8  |  4294945448 |
|    1428 | 0x0B29      |        2857 |
|    1429 | 0xFFFD7C9C  |  4294802588 |
|    1430 | 0x0540      |        1344 |
|    1431 | 0xFFFDBBA3  |  4294818723 |
|    1432 | 0xFFFFF8DC  |  4294965468 |
|    1433 | 0xFFFFC2F1  |  4294951665 |
|    1434 | 0xFFFDD9D3  |  4294826451 |
|    1435 | 0xFFFFF41D  |  4294964253 |
|    1436 | 0xFFFFC53D  |  4294952253 |
|    1437 | 0x09D2      |        2514 |
|    1438 | 0x21E9      |        8681 |
|    1439 | 0x21EA      |        8682 |
|    1440 | 0x0023      |          35 |
|    1441 | 0x21EB      |        8683 |
|    1442 | 0x08A8      |        2216 |
|    1443 | 0x21EC      |        8684 |
|    1444 | 0x0904      |        2308 |
|    1445 | 0x0019      |          25 |
|    1446 | 0xFFFDD556  |  4294825302 |
|    1447 | 0xFFFFF5DA  |  4294964698 |
|    1448 | 0xFFFFC504  |  4294952196 |
|    1449 | 0x0878      |        2168 |
|    1450 | 0xFFFDD6A5  |  4294825637 |
|    1451 | 0xFFFFFFB0  |  4294967216 |
|    1452 | 0xFFFFC515  |  4294952213 |
|    1453 | 0x0816      |        2070 |
|    1454 | 0xFFFDC279  |  4294820473 |
|    1455 | 0xFFFFF24F  |  4294963791 |
|    1456 | 0xFFFDDAE3  |  4294826723 |
|    1457 | 0x095A      |        2394 |
|    1458 | 0xFFFFC54B  |  4294952267 |
|    1459 | 0xFFFDD53D  |  4294825277 |
|    1460 | 0x0F5A      |        3930 |
|    1461 | 0xFFFFC503  |  4294952195 |
|    1462 | 0x078E      |        1934 |
|    1463 | 0xFFFDC83A  |  4294821946 |
|    1464 | 0x00C2      |         194 |
|    1465 | 0xFFFFC416  |  4294951958 |
|    1466 | 0xFFFDC8D0  |  4294822096 |
|    1467 | 0xFFFFC425  |  4294951973 |
|    1468 | 0xFFFDE10E  |  4294828302 |
|    1469 | 0xFFFFF672  |  4294964850 |
|    1470 | 0xFFFFC536  |  4294952246 |
|    1471 | 0x00A4      |         164 |
|    1472 | 0xFFFD8640  |  4294805056 |
|    1473 | 0xFFFFFD22  |  4294966562 |
|    1474 | 0x21EE      |        8686 |
|    1475 | 0x21EF      |        8687 |
|    1476 | 0x21F0      |        8688 |
|    1477 | 0x21F1      |        8689 |
|    1478 | 0x21F2      |        8690 |
|    1479 | 0x21F3      |        8691 |
|    1480 | 0x21F4      |        8692 |
|    1481 | 0x21F5      |        8693 |
|    1482 | 0x21F6      |        8694 |
|    1483 | 0x0C04      |        3076 |
|    1484 | 0x21F7      |        8695 |
|    1485 | 0x21F8      |        8696 |
|    1486 | 0x0B1B      |        2843 |
|    1487 | 0x21F9      |        8697 |
|    1488 | 0x21FA      |        8698 |
|    1489 | 0xFFFE3A95  |  4294851221 |
|    1490 | 0xFFFFFDDC  |  4294966748 |
|    1491 | 0xFFFFC17C  |  4294951292 |
|    1492 | 0x0752      |        1874 |
|    1493 | 0x21FC      |        8700 |
|    1494 | 0xFFFE2E9E  |  4294848158 |
|    1495 | 0x0503      |        1283 |
|    1496 | 0xFFFFC180  |  4294951296 |
|    1497 | 0x0907      |        2311 |
|    1498 | 0x21FD      |        8701 |
|    1499 | 0x21FE      |        8702 |
|    1500 | 0x21FF      |        8703 |
|    1501 | 0x2200      |        8704 |
|    1502 | 0x2201      |        8705 |
|    1503 | 0x2202      |        8706 |
|    1504 | 0x2203      |        8707 |
|    1505 | 0x2204      |        8708 |
|    1506 | 0x2205      |        8709 |
|    1507 | 0xFFFDCC7D  |  4294823037 |
|    1508 | 0x0FCA      |        4042 |
|    1509 | 0xFFFFC483  |  4294952067 |
|    1510 | 0xFFFDC238  |  4294820408 |
|    1511 | 0xFFFFC37B  |  4294951803 |
|    1512 | 0xFFFDA904  |  4294813956 |
|    1513 | 0x0873      |        2163 |
|    1514 | 0xFFFFC204  |  4294951428 |
|    1515 | 0x07E2      |        2018 |
|    1516 | 0x2206      |        8710 |
|    1517 | 0x2207      |        8711 |
|    1518 | 0x2208      |        8712 |
|    1519 | 0x2209      |        8713 |
|    1520 | 0x0C03      |        3075 |
|    1521 | 0x220A      |        8714 |
|    1522 | 0x220B      |        8715 |
|    1523 | 0x005C      |          92 |
|    1524 | 0x220C      |        8716 |
|    1525 | 0x00D9      |         217 |
|    1526 | 0x220D      |        8717 |
|    1527 | 0x220E      |        8718 |
|    1528 | 0x005D      |          93 |
|    1529 | 0x220F      |        8719 |
|    1530 | 0x005E      |          94 |
|    1531 | 0x006E      |         110 |
|    1532 | 0x0C5A      |        3162 |
|    1533 | 0x2210      |        8720 |
|    1534 | 0x2211      |        8721 |
|    1535 | 0x2212      |        8722 |
|    1536 | 0xFFFDB51F  |  4294817055 |
|    1537 | 0x0C2D      |        3117 |
|    1538 | 0xFFFFC29E  |  4294951582 |
|    1539 | 0x09D5      |        2517 |
|    1540 | 0x2213      |        8723 |
|    1541 | 0x0C59      |        3161 |
|    1542 | 0x2214      |        8724 |
|    1543 | 0xFFFDB95A  |  4294818138 |
|    1544 | 0x06A2      |        1698 |
|    1545 | 0xFFFFC2D4  |  4294951636 |
|    1546 | 0xFFFDB0CB  |  4294815947 |
|    1547 | 0x1545      |        5445 |
|    1548 | 0xFFFFC267  |  4294951527 |
|    1549 | 0x0585      |        1413 |
|    1550 | 0x0569      |        1385 |
|    1551 | 0x055C      |        1372 |
|    1552 | 0x0956      |        2390 |
|    1553 | 0x0C05      |        3077 |
|    1554 | 0xFFFDA335  |  4294812469 |
|    1555 | 0xFFFFE8DB  |  4294961371 |
|    1556 | 0xFFFFC0C3  |  4294951107 |
|    1557 | 0xFFFDAD83  |  4294815107 |
|    1558 | 0xFFFFF1ED  |  4294963693 |
|    1559 | 0xFFFFC23D  |  4294951485 |
|    1560 | 0x062A      |        1578 |
|    1561 | 0x2215      |        8725 |
|    1562 | 0x2216      |        8726 |
|    1563 | 0x2217      |        8727 |
|    1564 | 0xFFFDA0C1  |  4294811841 |
|    1565 | 0xFFFFFCEB  |  4294966507 |
|    1566 | 0xFFFFC19B  |  4294951323 |
|    1567 | 0x0847      |        2119 |
|    1568 | 0xFFFDA4FB  |  4294812923 |
|    1569 | 0xFFFFF50B  |  4294964491 |
|    1570 | 0xFFFFC1D0  |  4294951376 |
|    1571 | 0x08AC      |        2220 |
|    1572 | 0xFFFDB048  |  4294815816 |
|    1573 | 0xFFFFFFA9  |  4294967209 |
|    1574 | 0xFFFFC261  |  4294951521 |
|    1575 | 0x07FF      |        2047 |
|    1576 | 0xFFFDB3BE  |  4294816702 |
|    1577 | 0xFFFFF8C2  |  4294965442 |
|    1578 | 0xFFFFC28D  |  4294951565 |
|    1579 | 0x0807      |        2055 |
|    1580 | 0xFFFDA2B4  |  4294812340 |
|    1581 | 0x095B      |        2395 |
|    1582 | 0xFFFFC27C  |  4294951548 |
|    1583 | 0x0ABB      |        2747 |
|    1584 | 0x0B1F      |        2847 |
|    1585 | 0x2218      |        8728 |
|    1586 | 0x2219      |        8729 |
|    1587 | 0x221A      |        8730 |
|    1588 | 0x221B      |        8731 |
|    1589 | 0x221C      |        8732 |
|    1590 | 0xFFF9DEE2  |  4294565602 |
|    1591 | 0x1518      |        5400 |
|    1592 | 0xFFFB50C8  |  4294660296 |
|    1593 | 0x07FB      |        2043 |
|    1594 | 0x0298      |         664 |
|    1595 | 0x0BE3      |        3043 |
|    1596 | 0x221D      |        8733 |
|    1597 | 0x221E      |        8734 |
|    1598 | 0x221F      |        8735 |
|    1599 | 0x2220      |        8736 |
|    1600 | 0x2221      |        8737 |
|    1601 | 0x2222      |        8738 |
|    1602 | 0x2223      |        8739 |
|    1603 | 0x0B23      |        2851 |
|    1604 | 0x2224      |        8740 |
|    1605 | 0x2225      |        8741 |
|    1606 | 0x2226      |        8742 |
|    1607 | 0x2227      |        8743 |
|    1608 | 0x2228      |        8744 |
|    1609 | 0x2229      |        8745 |
|    1610 | 0x222A      |        8746 |
|    1611 | 0x222B      |        8747 |
|    1612 | 0x222C      |        8748 |
|    1613 | 0x222D      |        8749 |
|    1614 | 0x222E      |        8750 |
|    1615 | 0x222F      |        8751 |
|    1616 | 0x2230      |        8752 |
|    1617 | 0x2231      |        8753 |
|    1618 | 0x2232      |        8754 |
|    1619 | 0x2233      |        8755 |
|    1620 | 0x2234      |        8756 |
|    1621 | 0x2235      |        8757 |
|    1622 | 0x2236      |        8758 |
|    1623 | 0x2237      |        8759 |
|    1624 | 0x2238      |        8760 |
|    1625 | 0x2239      |        8761 |
|    1626 | 0x00D7      |         215 |

## String References

- **7709**: @@
- **8749**: What should we do? [Give up and live out our days in peace./Add our sword arms to the Allied Forces./Find and bring back Lilisette.]

## Events

### Event 65535

#### Metadata

| Field        | Value   |
|--------------|---------|
| Entrypoint   | 0x0000  |
| Data Size    | 1 bytes |
| Instructions | 1       |

```
      00 01 02 03 04 05 06 07  08 09 0A 0B 0C 0D 0E 0F
      -- -- -- -- -- -- -- --  -- -- -- -- -- -- -- --
0000: 00                                                .               
```

#### Opcodes

```
  0: 0x0000 [0x00] END_REQSTACK()
```

### Event 19

#### Metadata

| Field        | Value      |
|--------------|------------|
| Entrypoint   | 0x0001     |
| Data Size    | 3566 bytes |
| Instructions | 455        |

```
      00 01 02 03 04 05 06 07  08 09 0A 0B 0C 0D 0E 0F
      -- -- -- -- -- -- -- --  -- -- -- -- -- -- -- --
0000:    03 00 00 02 10 42 1A  1E A9 46 01 38 00 80 AB   .....B...F.8...
0010: 09 5D 01 80 02 80 27 10  56 93 08 01 04 27 10 65  .]....'.V....'.e
0020: 93 08 01 04 27 10 66 93  08 01 04 27 10 67 93 08  ....'.f....'.g..
0030: 01 04 27 10 68 93 08 01  04 27 10 69 93 08 01 04  ..'.h....'.i....
0040: 27 10 64 93 08 01 04 27  10 3B 93 08 01 04 27 10  '.d....'.;....'.
0050: 3C 93 08 01 04 27 10 61  93 08 01 04 27 10 3E 93  <....'.a....'.>.
0060: 08 01 04 27 10 35 93 08  01 04 27 10 40 93 08 01  ...'.5....'.@...
0070: 04 27 10 36 93 08 01 04  27 10 37 93 08 01 04 27  .'.6....'.7....'
0080: 10 38 93 08 01 04 27 10  39 93 08 01 04 27 10 3A  .8....'.9....'.:
0090: 93 08 01 04 27 10 33 93  08 01 04 27 10 34 93 08  ....'.3....'.4..
00A0: 01 04 1C 03 80 27 10 37  93 08 01 49 27 10 38 93  .....'.7...I'.8.
00B0: 08 01 49 27 10 39 93 08  01 49 27 10 3A 93 08 01  ..I'.9...I'.:...
00C0: 49 27 10 33 93 08 01 49  27 10 34 93 08 01 49 27  I'.3...I'.4...I'
00D0: 10 35 93 08 01 49 27 10  36 93 08 01 49 27 10 61  .5...I'.6...I'.a
00E0: 93 08 01 47 92 01 56 93  08 01 92 01 65 93 08 01  ...G..V.....e...
00F0: 92 01 66 93 08 01 92 01  67 93 08 01 92 01 68 93  ..f.....g.....h.
0100: 08 01 92 01 69 93 08 01  92 01 64 93 08 01 92 01  ....i.....d.....
0110: 3B 93 08 01 92 01 3C 93  08 01 92 01 61 93 08 01  ;.....<.....a...
0120: 92 01 3E 93 08 01 92 01  35 93 08 01 92 01 40 93  ..>.....5.....@.
0130: 08 01 92 01 36 93 08 01  92 01 37 93 08 01 92 01  ....6.....7.....
0140: 38 93 08 01 92 01 39 93  08 01 92 01 3A 93 08 01  8.....9.....:...
0150: 92 01 33 93 08 01 92 01  34 93 08 01 94 01 F0 FF  ..3.....4.......
0160: FF 7F 94 01 56 93 08 01  94 01 65 93 08 01 94 01  ....V.....e.....
0170: 66 93 08 01 94 01 67 93  08 01 94 01 68 93 08 01  f.....g.....h...
0180: 94 01 69 93 08 01 94 01  64 93 08 01 94 01 3B 93  ..i.....d.....;.
0190: 08 01 94 01 3C 93 08 01  94 01 61 93 08 01 94 01  ....<.....a.....
01A0: 3E 93 08 01 94 01 35 93  08 01 94 01 40 93 08 01  >.....5.....@...
01B0: 94 01 36 93 08 01 94 01  37 93 08 01 94 01 38 93  ..6.....7.....8.
01C0: 08 01 94 01 39 93 08 01  94 01 3A 93 08 01 94 01  ....9.....:.....
01D0: 33 93 08 01 94 01 34 93  08 01 80 F0 FF FF 7F 80  3.....4.........
01E0: 56 93 08 01 80 65 93 08  01 80 66 93 08 01 80 67  V....e....f....g
01F0: 93 08 01 80 68 93 08 01  80 69 93 08 01 80 64 93  ....h....i....d.
0200: 08 01 80 3B 93 08 01 80  3C 93 08 01 80 61 93 08  ...;....<....a..
0210: 01 80 3E 93 08 01 80 35  93 08 01 80 40 93 08 01  ..>....5....@...
0220: 80 36 93 08 01 80 37 93  08 01 80 38 93 08 01 80  .6....7....8....
0230: 39 93 08 01 80 3A 93 08  01 80 33 93 08 01 80 34  9....:....3....4
0240: 93 08 01 BA F0 FF FF 7F  04 80 05 80 06 80 07 80  ................
0250: BA 56 93 08 01 08 80 09  80 0A 80 0B 80 BA 69 93  .V............i.
0260: 08 01 0C 80 0D 80 0E 80  0F 80 BA 66 93 08 01 10  ...........f....
0270: 80 11 80 12 80 13 80 BA  67 93 08 01 14 80 15 80  ........g.......
0280: 16 80 17 80 BA 68 93 08  01 18 80 19 80 1A 80 1B  .....h..........
0290: 80 BA 65 93 08 01 1C 80  1D 80 1E 80 1F 80 BA 64  ..e............d
02A0: 93 08 01 20 80 21 80 22  80 23 80 BA 3B 93 08 01  ... .!.".#..;...
02B0: 24 80 25 80 26 80 27 80  BA 3C 93 08 01 28 80 29  $.%.&.'..<...(.)
02C0: 80 2A 80 2B 80 BA 61 93  08 01 2C 80 2D 80 2E 80  .*.+..a...,.-...
02D0: 2F 80 BA 3E 93 08 01 30  80 31 80 32 80 33 80 BA  /..>...0.1.2.3..
02E0: 35 93 08 01 34 80 35 80  36 80 37 80 BA 40 93 08  5...4.5.6.7..@..
02F0: 01 38 80 39 80 3A 80 3B  80 BA 36 93 08 01 3C 80  .8.9.:.;..6...<.
0300: 3D 80 3E 80 3F 80 BA 37  93 08 01 40 80 41 80 42  =.>.?..7...@.A.B
0310: 80 43 80 BA 38 93 08 01  44 80 45 80 46 80 47 80  .C..8...D.E.F.G.
0320: BA 39 93 08 01 48 80 49  80 4A 80 1B 80 BA 3A 93  .9...H.I.J....:.
0330: 08 01 4B 80 4C 80 4D 80  4E 80 BA 33 93 08 01 4F  ..K.L.M.N..3...O
0340: 80 50 80 51 80 52 80 BA  34 93 08 01 53 80 54 80  .P.Q.R..4...S.T.
0350: 55 80 56 80 1C 57 80 4A  64 93 08 01 68 93 08 01  U.V..W.Jd...h...
0360: 4A 65 93 08 01 66 93 08  01 4A 3E 93 08 01 66 93  Je...f...J>...f.
0370: 08 01 4A 35 93 08 01 66  93 08 01 4A 66 93 08 01  ..J5...f...Jf...
0380: 65 93 08 01 4A 40 93 08  01 36 93 08 01 4A 36 93  e...J@...6...J6.
0390: 08 01 40 93 08 01 4A 3B  93 08 01 61 93 08 01 4A  ..@...J;...a...J
03A0: 61 93 08 01 3B 93 08 01  79 00 67 93 08 01 68 93  a...;...y.g...h.
03B0: 08 01 79 00 68 93 08 01  67 93 08 01 79 00 33 93  ..y.h...g...y.3.
03C0: 08 01 67 93 08 01 79 00  34 93 08 01 67 93 08 01  ..g...y.4...g...
03D0: 7B 64 93 08 01 5C 00 58  80 5C 01 58 80 9A 66 00  {d...\.X.\.X..f.
03E0: 80 36 93 08 01 36 93 08  01 73 69 72 30 27 10 69  .6...6...sir0'.i
03F0: 93 08 01 08 66 59 80 40  93 08 01 40 93 08 01 74  ....fY.@...@...t
0400: 77 62 30 1C 5A 80 45 5B  80 F0 FF FF 7F F0 FF FF  wb0.Z.E[........
0410: 7F 76 30 31 30 01 80 1A  FD A8 66 59 80 40 93 08  .v010.....fY.@..
0420: 01 40 93 08 01 74 77 61  30 66 00 80 65 93 08 01  .@...twa0f..e...
0430: 65 93 08 01 74 6C 6B 30  27 10 39 93 08 01 15 1C  e...tlk0'.9.....
0440: 5C 80 66 00 80 66 93 08  01 66 93 08 01 74 68 6B  \.f..f...f...thk
0450: 31 27 10 3A 93 08 01 14  1C 5D 80 27 10 56 93 08  1'.:.....].'.V..
0460: 01 0C 1A 07 1A 02 07 10  5E 80 80 73 04 1A 77 1A  ........^..s..w.
0470: 01 76 04 1A 6F 1A 1C 5F  80 66 00 80 36 93 08 01  .v..o.._.f..6...
0480: 36 93 08 01 73 69 72 31  66 60 80 68 93 08 01 68  6...sir1f`.h...h
0490: 93 08 01 74 77 62 30 4A  38 93 08 01 67 93 08 01  ...twb0J8...g...
04A0: 1C 61 80 7B 68 93 08 01  79 00 33 93 08 01 68 93  .a.{h...y.3...h.
04B0: 08 01 79 00 34 93 08 01  68 93 08 01 1C 61 80 66  ..y.4...h....a.f
04C0: 60 80 68 93 08 01 68 93  08 01 74 77 62 31 27 10  `.h...h...twb1'.
04D0: 33 93 08 01 1B 27 10 34  93 08 01 1B 4B 64 93 08  3....'.4....Kd..
04E0: 01 23 80 1C 5A 80 6E 68  93 08 01 62 80 99 68 93  .#..Z.nh...b..h.
04F0: 08 01 79 00 64 93 08 01  F0 FF FF 7F 55 5B 80 F0  ..y.d.......U[..
0500: FF FF 7F F0 FF FF 7F 76  30 31 30 52 5B 80 F0 FF  .......v010R[...
0510: FF 7F F0 FF FF 7F 76 30  31 30 45 5B 80 F0 FF FF  ......v010E[....
0520: 7F F0 FF FF 7F 76 30 32  30 01 80 27 10 64 93 08  .....v020..'.d..
0530: 01 08 2A 10 56 93 08 01  4A 56 93 08 01 64 93 08  ..*.V...JV...d..
0540: 01 1A 7F 1A 79 00 64 93  08 01 56 93 08 01 1C 5A  ....y.d...V....Z
0550: 80 2A 10 64 93 08 01 2B  64 93 08 01 63 80 23 1C  .*.d...+d...c.#.
0560: 03 80 27 10 68 93 08 01  08 4A 56 93 08 01 64 93  ..'.h....JV...d.
0570: 08 01 4A 68 93 08 01 F0  FF FF 7F 4A 66 93 08 01  ..Jh.......Jf...
0580: F0 FF FF 7F 52 5B 80 F0  FF FF 7F F0 FF FF 7F 76  ....R[.........v
0590: 30 32 30 45 5B 80 F0 FF  FF 7F F0 FF FF 7F 76 30  020E[.........v0
05A0: 33 30 01 80 79 00 64 93  08 01 F0 FF FF 7F 79 00  30..y.d.......y.
05B0: F0 FF FF 7F 68 93 08 01  02 00 00 64 80 80 CB 05  ....h......d....
05C0: 2B 68 93 08 01 65 80 23  01 D3 05 2B 68 93 08 01  +h...e.#...+h...
05D0: 66 80 23 7B 3B 93 08 01  7B 3C 93 08 01 7B 61 93  f.#{;...{<...{a.
05E0: 08 01 7B 3E 93 08 01 7B  35 93 08 01 7B 40 93 08  ..{>...{5...{@..
05F0: 01 7B 36 93 08 01 7B 37  93 08 01 7B 38 93 08 01  .{6...{7...{8...
0600: 7B 39 93 08 01 7B 3A 93  08 01 7B 33 93 08 01 7B  {9...{:...{3...{
0610: 34 93 08 01 27 10 66 93  08 01 08 1C 03 80 4A 69  4...'.f.......Ji
0620: 93 08 01 F0 FF FF 7F 4A  3E 93 08 01 64 93 08 01  .......J>...d...
0630: 4A 35 93 08 01 64 93 08  01 52 5B 80 F0 FF FF 7F  J5...d...R[.....
0640: F0 FF FF 7F 76 30 33 30  1A 07 1A 02 07 10 67 80  ....v030......g.
0650: 80 67 06 45 5B 80 F0 FF  FF 7F F0 FF FF 7F 76 30  .g.E[.........v0
0660: 34 35 01 80 01 B0 06 02  07 10 68 80 80 83 06 45  45........h....E
0670: 5B 80 F0 FF FF 7F F0 FF  FF 7F 76 30 34 33 01 80  [.........v043..
0680: 01 B0 06 02 07 10 5E 80  80 9F 06 45 5B 80 F0 FF  ......^....E[...
0690: FF 7F F0 FF FF 7F 76 30  34 33 01 80 01 B0 06 45  ......v043.....E
06A0: 5B 80 F0 FF FF 7F F0 FF  FF 7F 76 30 34 31 01 80  [.........v041..
06B0: 27 10 65 93 08 01 08 79  00 F0 FF FF 7F 64 93 08  '.e....y.....d..
06C0: 01 79 00 56 93 08 01 68  93 08 01 27 10 56 93 08  .y.V...h...'.V..
06D0: 01 0D 2B 56 93 08 01 69  80 23 27 10 67 93 08 01  ..+V...i.#'.g...
06E0: 08 27 10 69 93 08 01 09  66 00 80 36 93 08 01 36  .'.i....f..6...6
06F0: 93 08 01 73 69 72 31 1A  07 1A 02 07 10 67 80 80  ...sir1......g..
0700: 14 07 52 5B 80 F0 FF FF  7F F0 FF FF 7F 76 30 34  ..R[.........v04
0710: 35 01 57 07 02 07 10 68  80 80 2E 07 52 5B 80 F0  5.W....h....R[..
0720: FF FF 7F F0 FF FF 7F 76  30 34 33 01 57 07 02 07  .......v043.W...
0730: 10 5E 80 80 48 07 52 5B  80 F0 FF FF 7F F0 FF FF  .^..H.R[........
0740: 7F 76 30 34 33 01 57 07  52 5B 80 F0 FF FF 7F F0  .v043.W.R[......
0750: FF FF 7F 76 30 34 31 45  5B 80 F0 FF FF 7F F0 FF  ...v041E[.......
0760: FF 7F 76 30 33 35 01 80  5B 6A 80 56 93 08 01 56  ..v035..[j.V...V
0770: 93 08 01 66 63 30 30 7B  56 93 08 01 2A 10 68 93  ...fc00{V...*.h.
0780: 08 01 2B 68 93 08 01 6B  80 23 52 5B 80 F0 FF FF  ..+h...k.#R[....
0790: 7F F0 FF FF 7F 76 30 33  35 45 5B 80 F0 FF FF 7F  .....v035E[.....
07A0: F0 FF FF 7F 76 30 35 30  01 80 5D 01 80 02 80 1C  ....v050..].....
07B0: 6C 80 66 00 80 36 93 08  01 36 93 08 01 73 68 61  l.f..6...6...sha
07C0: 31 BA 68 93 08 01 6D 80  6E 80 6F 80 70 80 79 00  1.h...m.n.o.p.y.
07D0: 64 93 08 01 56 93 08 01  2A 10 56 93 08 01 27 10  d...V...*.V...'.
07E0: 56 93 08 01 0E 5B 71 80  56 93 08 01 56 93 08 01  V....[q.V...V...
07F0: 73 61 6E 30 2B 56 93 08  01 72 80 23 55 5B 80 F0  san0+V...r.#U[..
0800: FF FF 7F F0 FF FF 7F 76  30 35 30 4A 3B 93 08 01  .......v050J;...
0810: 64 93 08 01 4A 3C 93 08  01 64 93 08 01 4A 61 93  d...J<...d...Ja.
0820: 08 01 64 93 08 01 4A 40  93 08 01 64 93 08 01 4A  ..d...J@...d...J
0830: 36 93 08 01 64 93 08 01  4A 37 93 08 01 64 93 08  6...d...J7...d..
0840: 01 4A 38 93 08 01 64 93  08 01 4A 39 93 08 01 64  .J8...d...J9...d
0850: 93 08 01 4A 3A 93 08 01  64 93 08 01 52 5B 80 F0  ...J:...d...R[..
0860: FF FF 7F F0 FF FF 7F 76  30 35 30 1A D3 36 45 5B  .......v050..6E[
0870: 80 F0 FF FF 7F F0 FF FF  7F 76 30 36 30 01 80 1C  .........v060...
0880: 6C 80 BA 69 93 08 01 73  80 74 80 75 80 70 80 27  l..i...s.t.u.p.'
0890: 10 68 93 08 01 0A 5B 6A  80 56 93 08 01 56 93 08  .h....[j.V...V..
08A0: 01 66 30 30 30 66 64 80  64 93 08 01 64 93 08 01  .f000fd.d...d...
08B0: 6B 62 61 32 1C 5A 80 2B  64 93 08 01 76 80 23 5C  kba2.Z.+d...v.#\
08C0: 00 77 80 5C 01 77 80 7B  64 93 08 01 1C 5C 80 27  .w.\.w.{d....\.'
08D0: 10 64 93 08 01 0A 52 5B  80 F0 FF FF 7F F0 FF FF  .d....R[........
08E0: 7F 76 30 36 30 45 5B 80  F0 FF FF 7F F0 FF FF 7F  .v060E[.........
08F0: 76 30 37 31 01 80 1C 6C  80 BA 3B 93 08 01 78 80  v071...l..;...x.
0900: 79 80 7A 80 0B 80 BA 3C  93 08 01 78 80 79 80 7A  y.z....<...x.y.z
0910: 80 0B 80 BA 61 93 08 01  78 80 79 80 7A 80 0B 80  ....a...x.y.z...
0920: BA 39 93 08 01 7B 80 7C  80 7D 80 7E 80 1C 5A 80  .9...{.|.}.~..Z.
0930: 4A 67 93 08 01 64 93 08  01 4A 69 93 08 01 64 93  Jg...d...Ji...d.
0940: 08 01 4A 66 93 08 01 64  93 08 01 4A 68 93 08 01  ..Jf...d...Jh...
0950: 64 93 08 01 4A 65 93 08  01 64 93 08 01 7B 67 93  d...Je...d...{g.
0960: 08 01 7B 69 93 08 01 7B  66 93 08 01 7B 68 93 08  ..{i...{f...{h..
0970: 01 2B 64 93 08 01 7F 80  23 9A 4A 64 93 08 01 66  .+d.....#.Jd...f
0980: 93 08 01 79 00 3E 93 08  01 65 93 08 01 79 00 35  ...y.>...e...y.5
0990: 93 08 01 65 93 08 01 52  5B 80 F0 FF FF 7F F0 FF  ...e...R[.......
09A0: FF 7F 76 30 37 31 45 5B  80 F0 FF FF 7F F0 FF FF  ..v071E[........
09B0: 7F 76 30 37 30 01 80 1C  5A 80 27 10 65 93 08 01  .v070...Z.'.e...
09C0: 0A 2B 64 93 08 01 80 80  23 27 10 66 93 08 01 09  .+d.....#'.f....
09D0: 27 10 68 93 08 01 09 27  10 3B 93 08 01 16 27 10  '.h....'.;....'.
09E0: 3C 93 08 01 17 27 10 61  93 08 01 1A 1C 81 80 4A  <....'.a.......J
09F0: 64 93 08 01 67 93 08 01  4A 39 93 08 01 64 93 08  d...g...J9...d..
0A00: 01 4A 3A 93 08 01 64 93  08 01 52 5B 80 F0 FF FF  .J:...d...R[....
0A10: 7F F0 FF FF 7F 76 30 37  30 45 5B 80 F0 FF FF 7F  .....v070E[.....
0A20: F0 FF FF 7F 76 30 37 35  01 80 1C 6C 80 7B 66 93  ....v075...l.{f.
0A30: 08 01 6C 33 93 08 01 01  80 6C 80 BA 33 93 08 01  ..l3.....l..3...
0A40: 82 80 83 80 84 80 85 80  BA 66 93 08 01 86 80 87  .........f......
0A50: 80 88 80 89 80 BA F0 FF  FF 7F 8A 80 8B 80 8C 80  ................
0A60: 07 80 1C 5A 80 2B 64 93  08 01 8D 80 23 27 10 67  ...Z.+d.....#'.g
0A70: 93 08 01 09 27 10 69 93  08 01 0A 1C 81 80 27 10  ....'.i.......'.
0A80: 65 93 08 01 0B 27 10 3E  93 08 01 19 27 10 35 93  e....'.>....'.5.
0A90: 08 01 18 27 10 66 93 08  01 0A 52 5B 80 F0 FF FF  ...'.f....R[....
0AA0: 7F F0 FF FF 7F 76 30 37  35 45 5B 80 F0 FF FF 7F  .....v075E[.....
0AB0: F0 FF FF 7F 76 30 38 30  01 80 27 10 69 93 08 01  ....v080..'.i...
0AC0: 0B 27 10 68 93 08 01 0B  1C 5A 80 27 10 64 93 08  .'.h.....Z.'.d..
0AD0: 01 0B 2B 66 93 08 01 8E  80 23 2A 10 66 93 08 01  ..+f.....#*.f...
0AE0: 4A 66 93 08 01 33 93 08  01 7B 66 93 08 01 52 5B  Jf...3...{f...R[
0AF0: 80 F0 FF FF 7F F0 FF FF  7F 76 30 38 30 45 5B 80  .........v080E[.
0B00: F0 FF FF 7F F0 FF FF 7F  76 30 38 35 01 80 1C 6C  ........v085...l
0B10: 80 BA 56 93 08 01 8F 80  90 80 91 80 92 80 4A 56  ..V...........JV
0B20: 93 08 01 66 93 08 01 7B  56 93 08 01 4A F0 FF FF  ...f...{V...J...
0B30: 7F 66 93 08 01 6F 76 66  93 08 01 27 10 66 93 08  .f...ovf...'.f..
0B40: 01 0B 1C 5A 80 2B 66 93  08 01 93 80 23 1C 5C 80  ...Z.+f.....#.\.
0B50: 59 06 66 93 08 01 27 10  66 93 08 01 0C 52 5B 80  Y.f...'.f....R[.
0B60: F0 FF FF 7F F0 FF FF 7F  76 30 38 35 45 5B 80 F0  ........v085E[..
0B70: FF FF 7F F0 FF FF 7F 76  30 39 35 01 80 5B 6A 80  .......v095..[j.
0B80: 56 93 08 01 56 93 08 01  66 30 30 30 2B 66 93 08  V...V...f000+f..
0B90: 01 94 80 23 2A 10 66 93  08 01 52 5B 80 F0 FF FF  ...#*.f...R[....
0BA0: 7F F0 FF FF 7F 76 30 39  35 1A 07 1A 02 07 10 67  .....v095......g
0BB0: 80 80 C8 0B 45 5B 80 F0  FF FF 7F F0 FF FF 7F 76  ....E[.........v
0BC0: 31 31 35 01 80 01 11 0C  02 07 10 68 80 80 E4 0B  115........h....
0BD0: 45 5B 80 F0 FF FF 7F F0  FF FF 7F 76 31 31 38 01  E[.........v118.
0BE0: 80 01 11 0C 02 07 10 5E  80 80 00 0C 45 5B 80 F0  .......^....E[..
0BF0: FF FF 7F F0 FF FF 7F 76  31 31 38 01 80 01 11 0C  .......v118.....
0C00: 45 5B 80 F0 FF FF 7F F0  FF FF 7F 76 31 31 30 01  E[.........v110.
0C10: 80 2B 56 93 08 01 95 80  23 1A 07 1A 02 07 10 67  .+V.....#......g
0C20: 80 80 36 0C 52 5B 80 F0  FF FF 7F F0 FF FF 7F 76  ..6.R[.........v
0C30: 31 31 35 01 79 0C 02 07  10 68 80 80 50 0C 52 5B  115.y....h..P.R[
0C40: 80 F0 FF FF 7F F0 FF FF  7F 76 31 31 38 01 79 0C  .........v118.y.
0C50: 02 07 10 5E 80 80 6A 0C  52 5B 80 F0 FF FF 7F F0  ...^..j.R[......
0C60: FF FF 7F 76 31 31 38 01  79 0C 52 5B 80 F0 FF FF  ...v118.y.R[....
0C70: 7F F0 FF FF 7F 76 31 31  30 45 5B 80 F0 FF FF 7F  .....v110E[.....
0C80: F0 FF FF 7F 76 31 30 35  01 80 66 00 80 66 93 08  ....v105..f..f..
0C90: 01 66 93 08 01 74 6C 6B  30 2B 66 93 08 01 96 80  .f...tlk0+f.....
0CA0: 23 66 00 80 66 93 08 01  66 93 08 01 74 6C 6B 31  #f..f...f...tlk1
0CB0: 1C 5A 80 52 5B 80 F0 FF  FF 7F F0 FF FF 7F 76 31  .Z.R[.........v1
0CC0: 30 35 45 5B 80 F0 FF FF  7F F0 FF FF 7F 76 31 30  05E[.........v10
0CD0: 30 01 80 1C 6C 80 BA 56  93 08 01 8F 80 90 80 91  0...l..V........
0CE0: 80 92 80 4A F0 FF FF 7F  66 93 08 01 4A 56 93 08  ...J....f...JV..
0CF0: 01 66 93 08 01 7B 56 93  08 01 66 97 80 66 93 08  .f...{V...f..f..
0D00: 01 66 93 08 01 70 61 73  30 03 02 10 98 80 2B 66  .f...pas0.....+f
0D10: 93 08 01 99 80 23 2B 66  93 08 01 9A 80 23 53 66  .....#+f.....#Sf
0D20: 93 08 01 66 93 08 01 70  61 73 30 52 5B 80 F0 FF  ...f...pas0R[...
0D30: FF 7F F0 FF FF 7F 76 31  30 30 45 5B 80 F0 FF FF  ......v100E[....
0D40: 7F F0 FF FF 7F 76 31 32  30 01 80 5B 9B 80 66 93  .....v120..[..f.
0D50: 08 01 66 93 08 01 74 6C  68 30 2B 66 93 08 01 9C  ..f...tlh0+f....
0D60: 80 23 1C 9D 80 1A 1E A9  5B 9B 80 66 93 08 01 66  .#......[..f...f
0D70: 93 08 01 74 6C 68 31 1C  5A 80 52 5B 80 F0 FF FF  ...tlh1.Z.R[....
0D80: 7F F0 FF FF 7F 76 31 32  30 7A 00 3B 93 08 01 7A  .....v120z.;...z
0D90: 00 3C 93 08 01 7A 00 61  93 08 01 29 10 37 93 08  .<...z.a...).7..
0DA0: 01 47 29 10 38 93 08 01  47 29 10 39 93 08 01 47  .G).8...G).9...G
0DB0: 29 10 3A 93 08 01 47 29  10 33 93 08 01 47 29 10  ).:...G).3...G).
0DC0: 34 93 08 01 47 29 10 35  93 08 01 47 29 10 36 93  4...G).5...G).6.
0DD0: 08 01 47 29 10 61 93 08  01 46 46 00 45 02 80 F0  ..G).a...FF.E...
0DE0: FF FF 7F F0 FF FF 7F 66  64 69 32 01 80 21 00     .......fdi2..!. 
```

#### Opcodes

```
  0: 0x0001 [0x03] ExtData[1]->WorkLocal[0] = Work_Zone[2]
  1: 0x0006 [0x42] SET_CLI_EVENT_CANCEL_DATA()
  2: 0x0007 [0x1A] CALL_SUBROUTINE(address=0xA91E)
  3: 0x000A [0x46] CAMERA_CONTROL: Disable user control
  4: 0x000C [0x38] SET_CLIENT_EVENT_MODE(mode=19*)
  5: 0x000F [0xAB] EventEntity->UnknownFlag = 1 // Enable unknown flag
  6: 0x0011 [0x5D] SET_MUSIC_VOLUME(volume=0*, fade_time=200*)
  7: 0x0016 [0x27] REQ_SET(priority=0x10, entity_id=Lilisette (ID: 17339222/0x01089356), tag_num=0x04)
  8: 0x001D [0x27] REQ_SET(priority=0x10, entity_id=Elivira Gogol (ID: 17339237/0x01089365), tag_num=0x04)
  9: 0x0024 [0x27] REQ_SET(priority=0x10, entity_id=Adelheid (ID: 17339238/0x01089366), tag_num=0x04)
 10: 0x002B [0x27] REQ_SET(priority=0x10, entity_id=Invincible Shield (ID: 17339239/0x01089367), tag_num=0x04)
 11: 0x0032 [0x27] REQ_SET(priority=0x10, entity_id=Zazarg (ID: 17339240/0x01089368), tag_num=0x04)
 12: 0x0039 [0x27] REQ_SET(priority=0x10, entity_id=Sonia (ID: 17339241/0x01089369), tag_num=0x04)
 13: 0x0040 [0x27] REQ_SET(priority=0x10, entity_id=Bartholomaus (ID: 17339236/0x01089364), tag_num=0x04)
 14: 0x0047 [0x27] REQ_SET(priority=0x10, entity_id=Irin 01 (ID: 17339195/0x0108933B), tag_num=0x04)
 15: 0x004E [0x27] REQ_SET(priority=0x10, entity_id=Irin 02 (ID: 17339196/0x0108933C), tag_num=0x04)
 16: 0x0055 [0x27] REQ_SET(priority=0x10, entity_id=Henrinaud (ID: 17339233/0x01089361), tag_num=0x04)
 17: 0x005C [0x27] REQ_SET(priority=0x10, entity_id=gold 01 (ID: 17339198/0x0108933E), tag_num=0x04)
 18: 0x0063 [0x27] REQ_SET(priority=0x10, entity_id=ex07 (ID: 17339189/0x01089335), tag_num=0x04)
 19: 0x006A [0x27] REQ_SET(priority=0x10, entity_id=Scout 01 (ID: 17339200/0x01089340), tag_num=0x04)
 20: 0x0071 [0x27] REQ_SET(priority=0x10, entity_id=ex08 (ID: 17339190/0x01089336), tag_num=0x04)
 21: 0x0078 [0x27] REQ_SET(priority=0x10, entity_id=ex01 (ID: 17339191/0x01089337), tag_num=0x04)
 22: 0x007F [0x27] REQ_SET(priority=0x10, entity_id=ex02 (ID: 17339192/0x01089338), tag_num=0x04)
 23: 0x0086 [0x27] REQ_SET(priority=0x10, entity_id=ex03 (ID: 17339193/0x01089339), tag_num=0x04)
 24: 0x008D [0x27] REQ_SET(priority=0x10, entity_id=ex04 (ID: 17339194/0x0108933A), tag_num=0x04)
 25: 0x0094 [0x27] REQ_SET(priority=0x10, entity_id=ex05 (ID: 17339187/0x01089333), tag_num=0x04)
 26: 0x009B [0x27] REQ_SET(priority=0x10, entity_id=ex06 (ID: 17339188/0x01089334), tag_num=0x04)
 27: 0x00A2 [0x1C] WAIT(10* ticks)
 28: 0x00A5 [0x27] REQ_SET(priority=0x10, entity_id=ex01 (ID: 17339191/0x01089337), tag_num=0x49)
 29: 0x00AC [0x27] REQ_SET(priority=0x10, entity_id=ex02 (ID: 17339192/0x01089338), tag_num=0x49)
 30: 0x00B3 [0x27] REQ_SET(priority=0x10, entity_id=ex03 (ID: 17339193/0x01089339), tag_num=0x49)
 31: 0x00BA [0x27] REQ_SET(priority=0x10, entity_id=ex04 (ID: 17339194/0x0108933A), tag_num=0x49)
 32: 0x00C1 [0x27] REQ_SET(priority=0x10, entity_id=ex05 (ID: 17339187/0x01089333), tag_num=0x49)
 33: 0x00C8 [0x27] REQ_SET(priority=0x10, entity_id=ex06 (ID: 17339188/0x01089334), tag_num=0x49)
 34: 0x00CF [0x27] REQ_SET(priority=0x10, entity_id=ex07 (ID: 17339189/0x01089335), tag_num=0x49)
 35: 0x00D6 [0x27] REQ_SET(priority=0x10, entity_id=ex08 (ID: 17339190/0x01089336), tag_num=0x49)
 36: 0x00DD [0x27] REQ_SET(priority=0x10, entity_id=Henrinaud (ID: 17339233/0x01089361), tag_num=0x47)
 37: 0x00E4 [0x92] Lilisette (ID: 17339222/0x01089356)->Render.Flags3 ^= 0x01
 38: 0x00EA [0x92] Elivira Gogol (ID: 17339237/0x01089365)->Render.Flags3 ^= 0x01
 39: 0x00F0 [0x92] Adelheid (ID: 17339238/0x01089366)->Render.Flags3 ^= 0x01
 40: 0x00F6 [0x92] Invincible Shield (ID: 17339239/0x01089367)->Render.Flags3 ^= 0x01
 41: 0x00FC [0x92] Zazarg (ID: 17339240/0x01089368)->Render.Flags3 ^= 0x01
 42: 0x0102 [0x92] Sonia (ID: 17339241/0x01089369)->Render.Flags3 ^= 0x01
 43: 0x0108 [0x92] Bartholomaus (ID: 17339236/0x01089364)->Render.Flags3 ^= 0x01
 44: 0x010E [0x92] Irin 01 (ID: 17339195/0x0108933B)->Render.Flags3 ^= 0x01
 45: 0x0114 [0x92] Irin 02 (ID: 17339196/0x0108933C)->Render.Flags3 ^= 0x01
 46: 0x011A [0x92] Henrinaud (ID: 17339233/0x01089361)->Render.Flags3 ^= 0x01
 47: 0x0120 [0x92] gold 01 (ID: 17339198/0x0108933E)->Render.Flags3 ^= 0x01
 48: 0x0126 [0x92] ex07 (ID: 17339189/0x01089335)->Render.Flags3 ^= 0x01
 49: 0x012C [0x92] Scout 01 (ID: 17339200/0x01089340)->Render.Flags3 ^= 0x01
 50: 0x0132 [0x92] ex08 (ID: 17339190/0x01089336)->Render.Flags3 ^= 0x01
 51: 0x0138 [0x92] ex01 (ID: 17339191/0x01089337)->Render.Flags3 ^= 0x01
 52: 0x013E [0x92] ex02 (ID: 17339192/0x01089338)->Render.Flags3 ^= 0x01
 53: 0x0144 [0x92] ex03 (ID: 17339193/0x01089339)->Render.Flags3 ^= 0x01
 54: 0x014A [0x92] ex04 (ID: 17339194/0x0108933A)->Render.Flags3 ^= 0x01
 55: 0x0150 [0x92] ex05 (ID: 17339187/0x01089333)->Render.Flags3 ^= 0x01
 56: 0x0156 [0x92] ex06 (ID: 17339188/0x01089334)->Render.Flags3 ^= 0x01
 57: 0x015C [0x94] LocalPlayer->Render.Flags3 ^= 0x01
 58: 0x0162 [0x94] Lilisette (ID: 17339222/0x01089356)->Render.Flags3 ^= 0x01
 59: 0x0168 [0x94] Elivira Gogol (ID: 17339237/0x01089365)->Render.Flags3 ^= 0x01
 60: 0x016E [0x94] Adelheid (ID: 17339238/0x01089366)->Render.Flags3 ^= 0x01
 61: 0x0174 [0x94] Invincible Shield (ID: 17339239/0x01089367)->Render.Flags3 ^= 0x01
 62: 0x017A [0x94] Zazarg (ID: 17339240/0x01089368)->Render.Flags3 ^= 0x01
 63: 0x0180 [0x94] Sonia (ID: 17339241/0x01089369)->Render.Flags3 ^= 0x01
 64: 0x0186 [0x94] Bartholomaus (ID: 17339236/0x01089364)->Render.Flags3 ^= 0x01
 65: 0x018C [0x94] Irin 01 (ID: 17339195/0x0108933B)->Render.Flags3 ^= 0x01
 66: 0x0192 [0x94] Irin 02 (ID: 17339196/0x0108933C)->Render.Flags3 ^= 0x01
 67: 0x0198 [0x94] Henrinaud (ID: 17339233/0x01089361)->Render.Flags3 ^= 0x01
 68: 0x019E [0x94] gold 01 (ID: 17339198/0x0108933E)->Render.Flags3 ^= 0x01
 69: 0x01A4 [0x94] ex07 (ID: 17339189/0x01089335)->Render.Flags3 ^= 0x01
 70: 0x01AA [0x94] Scout 01 (ID: 17339200/0x01089340)->Render.Flags3 ^= 0x01
 71: 0x01B0 [0x94] ex08 (ID: 17339190/0x01089336)->Render.Flags3 ^= 0x01
 72: 0x01B6 [0x94] ex01 (ID: 17339191/0x01089337)->Render.Flags3 ^= 0x01
 73: 0x01BC [0x94] ex02 (ID: 17339192/0x01089338)->Render.Flags3 ^= 0x01
 74: 0x01C2 [0x94] ex03 (ID: 17339193/0x01089339)->Render.Flags3 ^= 0x01
 75: 0x01C8 [0x94] ex04 (ID: 17339194/0x0108933A)->Render.Flags3 ^= 0x01
 76: 0x01CE [0x94] ex05 (ID: 17339187/0x01089333)->Render.Flags3 ^= 0x01
 77: 0x01D4 [0x94] ex06 (ID: 17339188/0x01089334)->Render.Flags3 ^= 0x01
 78: 0x01DA [0x80] LOAD_WAIT(entity=LocalPlayer)
 79: 0x01DF [0x80] LOAD_WAIT(entity=Lilisette (ID: 17339222/0x01089356))
 80: 0x01E4 [0x80] LOAD_WAIT(entity=Elivira Gogol (ID: 17339237/0x01089365))
 81: 0x01E9 [0x80] LOAD_WAIT(entity=Adelheid (ID: 17339238/0x01089366))
 82: 0x01EE [0x80] LOAD_WAIT(entity=Invincible Shield (ID: 17339239/0x01089367))
 83: 0x01F3 [0x80] LOAD_WAIT(entity=Zazarg (ID: 17339240/0x01089368))
 84: 0x01F8 [0x80] LOAD_WAIT(entity=Sonia (ID: 17339241/0x01089369))
 85: 0x01FD [0x80] LOAD_WAIT(entity=Bartholomaus (ID: 17339236/0x01089364))
 86: 0x0202 [0x80] LOAD_WAIT(entity=Irin 01 (ID: 17339195/0x0108933B))
 87: 0x0207 [0x80] LOAD_WAIT(entity=Irin 02 (ID: 17339196/0x0108933C))
 88: 0x020C [0x80] LOAD_WAIT(entity=Henrinaud (ID: 17339233/0x01089361))
 89: 0x0211 [0x80] LOAD_WAIT(entity=gold 01 (ID: 17339198/0x0108933E))
 90: 0x0216 [0x80] LOAD_WAIT(entity=ex07 (ID: 17339189/0x01089335))
 91: 0x021B [0x80] LOAD_WAIT(entity=Scout 01 (ID: 17339200/0x01089340))
 92: 0x0220 [0x80] LOAD_WAIT(entity=ex08 (ID: 17339190/0x01089336))
 93: 0x0225 [0x80] LOAD_WAIT(entity=ex01 (ID: 17339191/0x01089337))
 94: 0x022A [0x80] LOAD_WAIT(entity=ex02 (ID: 17339192/0x01089338))
 95: 0x022F [0x80] LOAD_WAIT(entity=ex03 (ID: 17339193/0x01089339))
 96: 0x0234 [0x80] LOAD_WAIT(entity=ex04 (ID: 17339194/0x0108933A))
 97: 0x0239 [0x80] LOAD_WAIT(entity=ex05 (ID: 17339187/0x01089333))
 98: 0x023E [0x80] LOAD_WAIT(entity=ex06 (ID: 17339188/0x01089334))
 99: 0x0243 [0xBA] SET_ENTITY_POSITION(entity_id=LocalPlayer, pos_x=179.861*, pos_z=-53.956*, pos_y=-11.020*, direction=217.0*)
100: 0x0250 [0xBA] SET_ENTITY_POSITION(entity_id=Lilisette (ID: 17339222/0x01089356), pos_x=184.627*, pos_z=-56.544*, pos_y=-11.148*, direction=217.1*)
101: 0x025D [0xBA] SET_ENTITY_POSITION(entity_id=Sonia (ID: 17339241/0x01089369), pos_x=153.708*, pos_z=-14.450*, pos_y=-16.077*, direction=217.8*)
102: 0x026A [0xBA] SET_ENTITY_POSITION(entity_id=Adelheid (ID: 17339238/0x01089366), pos_x=153.931*, pos_z=-26.061*, pos_y=-15.628*, direction=79.8*)
103: 0x0277 [0xBA] SET_ENTITY_POSITION(entity_id=Invincible Shield (ID: 17339239/0x01089367), pos_x=159.034*, pos_z=-21.320*, pos_y=-15.066*, direction=112.8*)
104: 0x0284 [0xBA] SET_ENTITY_POSITION(entity_id=Zazarg (ID: 17339240/0x01089368), pos_x=158.213*, pos_z=-24.093*, pos_y=-15.212*, direction=228.7*)
105: 0x0291 [0xBA] SET_ENTITY_POSITION(entity_id=Elivira Gogol (ID: 17339237/0x01089365), pos_x=154.996*, pos_z=-27.930*, pos_y=-15.703*, direction=304.2*)
106: 0x029E [0xBA] SET_ENTITY_POSITION(entity_id=Bartholomaus (ID: 17339236/0x01089364), pos_x=159.531*, pos_z=-27.662*, pos_y=-15.585*, direction=298.5*)
107: 0x02AB [0xBA] SET_ENTITY_POSITION(entity_id=Irin 01 (ID: 17339195/0x0108933B), pos_x=154.283*, pos_z=-17.314*, pos_y=-15.618*, direction=43.5*)
108: 0x02B8 [0xBA] SET_ENTITY_POSITION(entity_id=Irin 02 (ID: 17339196/0x0108933C), pos_x=153.410*, pos_z=-18.270*, pos_y=-15.782*, direction=46.7*)
109: 0x02C5 [0xBA] SET_ENTITY_POSITION(entity_id=Henrinaud (ID: 17339233/0x01089361), pos_x=154.540*, pos_z=-19.074*, pos_y=-15.434*, direction=188.2*)
110: 0x02D2 [0xBA] SET_ENTITY_POSITION(entity_id=gold 01 (ID: 17339198/0x0108933E), pos_x=153.955*, pos_z=-28.875*, pos_y=-15.853*, direction=9.6*)
111: 0x02DF [0xBA] SET_ENTITY_POSITION(entity_id=ex07 (ID: 17339189/0x01089335), pos_x=155.122*, pos_z=-30.150*, pos_y=-15.800*, direction=304.8*)
112: 0x02EC [0xBA] SET_ENTITY_POSITION(entity_id=Scout 01 (ID: 17339200/0x01089340), pos_x=153.412*, pos_z=-24.840*, pos_y=-15.729*, direction=59.5*)
113: 0x02F9 [0xBA] SET_ENTITY_POSITION(entity_id=ex08 (ID: 17339190/0x01089336), pos_x=154.563*, pos_z=-24.042*, pos_y=-15.501*, direction=25.7*)
114: 0x0306 [0xBA] SET_ENTITY_POSITION(entity_id=ex01 (ID: 17339191/0x01089337), pos_x=158.100*, pos_z=-17.337*, pos_y=-15.133*, direction=55.5*)
115: 0x0313 [0xBA] SET_ENTITY_POSITION(entity_id=ex02 (ID: 17339192/0x01089338), pos_x=156.920*, pos_z=-17.713*, pos_y=-15.114*, direction=324.4*)
116: 0x0320 [0xBA] SET_ENTITY_POSITION(entity_id=ex03 (ID: 17339193/0x01089339), pos_x=148.650*, pos_z=-20.709*, pos_y=-16.511*, direction=228.7*)
117: 0x032D [0xBA] SET_ENTITY_POSITION(entity_id=ex04 (ID: 17339194/0x0108933A), pos_x=148.388*, pos_z=-23.710*, pos_y=-16.601*, direction=228.6*)
118: 0x033A [0xBA] SET_ENTITY_POSITION(entity_id=ex05 (ID: 17339187/0x01089333), pos_x=157.151*, pos_z=-21.849*, pos_y=-15.092*, direction=54.2*)
119: 0x0347 [0xBA] SET_ENTITY_POSITION(entity_id=ex06 (ID: 17339188/0x01089334), pos_x=156.062*, pos_z=-22.694*, pos_y=-15.143*, direction=39.0*)
120: 0x0354 [0x1C] WAIT(5* ticks)
121: 0x0357 [0x4A] Bartholomaus (ID: 17339236/0x01089364) looks at Zazarg (ID: 17339240/0x01089368)
122: 0x0360 [0x4A] Elivira Gogol (ID: 17339237/0x01089365) looks at Adelheid (ID: 17339238/0x01089366)
123: 0x0369 [0x4A] gold 01 (ID: 17339198/0x0108933E) looks at Adelheid (ID: 17339238/0x01089366)
124: 0x0372 [0x4A] ex07 (ID: 17339189/0x01089335) looks at Adelheid (ID: 17339238/0x01089366)
125: 0x037B [0x4A] Adelheid (ID: 17339238/0x01089366) looks at Elivira Gogol (ID: 17339237/0x01089365)
126: 0x0384 [0x4A] Scout 01 (ID: 17339200/0x01089340) looks at ex08 (ID: 17339190/0x01089336)
127: 0x038D [0x4A] ex08 (ID: 17339190/0x01089336) looks at Scout 01 (ID: 17339200/0x01089340)
128: 0x0396 [0x4A] Irin 01 (ID: 17339195/0x0108933B) looks at Henrinaud (ID: 17339233/0x01089361)
129: 0x039F [0x4A] Henrinaud (ID: 17339233/0x01089361) looks at Irin 01 (ID: 17339195/0x0108933B)
130: 0x03A8 [0x79] Invincible Shield (ID: 17339239/0x01089367) looks at Zazarg (ID: 17339240/0x01089368) (Basic look)
131: 0x03B2 [0x79] Zazarg (ID: 17339240/0x01089368) looks at Invincible Shield (ID: 17339239/0x01089367) (Basic look)
132: 0x03BC [0x79] ex05 (ID: 17339187/0x01089333) looks at Invincible Shield (ID: 17339239/0x01089367) (Basic look)
133: 0x03C6 [0x79] ex06 (ID: 17339188/0x01089334) looks at Invincible Shield (ID: 17339239/0x01089367) (Basic look)
134: 0x03D0 [0x7B] Bartholomaus (ID: 17339236/0x01089364) stops talking
135: 0x03D5 [0x5C] MUSIC_CONTROL: Set Idle (Day) music to song 247*
136: 0x03D9 [0x5C] MUSIC_CONTROL: Set Idle (Night) music to song 247*
137: 0x03DD [0x9A] WAIT_MUSIC_SERVER()
138: 0x03DE [0x66] LOAD_EXT_SCHEDULER_MAIN: Load scheduler "sir0" with entities [ex08 (ID: 17339190/0x01089336), ex08 (ID: 17339190/0x01089336)], work=19*
139: 0x03ED [0x27] REQ_SET(priority=0x10, entity_id=Sonia (ID: 17339241/0x01089369), tag_num=0x08)
140: 0x03F4 [0x66] LOAD_EXT_SCHEDULER_MAIN: Load scheduler "twb0" with entities [Scout 01 (ID: 17339200/0x01089340), Scout 01 (ID: 17339200/0x01089340)], work=9*
141: 0x0403 [0x1C] WAIT(30* ticks)
142: 0x0406 [0x45] LOAD_SCHEDULED_TASK: Load scheduler "v010" with entities [LocalPlayer, LocalPlayer], work=[534*, 0*]
143: 0x0417 [0x1A] CALL_SUBROUTINE(address=0xA8FD)
144: 0x041A [0x66] LOAD_EXT_SCHEDULER_MAIN: Load scheduler "twa0" with entities [Scout 01 (ID: 17339200/0x01089340), Scout 01 (ID: 17339200/0x01089340)], work=9*
145: 0x0429 [0x66] LOAD_EXT_SCHEDULER_MAIN: Load scheduler "tlk0" with entities [Elivira Gogol (ID: 17339237/0x01089365), Elivira Gogol (ID: 17339237/0x01089365)], work=19*
146: 0x0438 [0x27] REQ_SET(priority=0x10, entity_id=ex03 (ID: 17339193/0x01089339), tag_num=0x15)
147: 0x043F [0x1C] WAIT(60* ticks)
148: 0x0442 [0x66] LOAD_EXT_SCHEDULER_MAIN: Load scheduler "thk1" with entities [Adelheid (ID: 17339238/0x01089366), Adelheid (ID: 17339238/0x01089366)], work=19*
149: 0x0451 [0x27] REQ_SET(priority=0x10, entity_id=ex04 (ID: 17339194/0x0108933A), tag_num=0x14)
150: 0x0458 [0x1C] WAIT(20* ticks)
151: 0x045B [0x27] REQ_SET(priority=0x10, entity_id=Lilisette (ID: 17339222/0x01089356), tag_num=0x0C)
152: 0x0462 [0x1A] CALL_SUBROUTINE(address=0x1A07)
153: 0x0465 [0x02] IF !(Work_Zone[7] == 8*) GOTO 0x0473
154: 0x046D [0x1A] CALL_SUBROUTINE(address=0x1A77)
155: 0x0470 [0x01] GOTO 0x0476
156: 0x0473 [0x1A] CALL_SUBROUTINE(address=0x1A6F)

SUBROUTINE_0476:
157: 0x0476 [0x1C] WAIT(80* ticks)
158: 0x0479 [0x66] LOAD_EXT_SCHEDULER_MAIN: Load scheduler "sir1" with entities [ex08 (ID: 17339190/0x01089336), ex08 (ID: 17339190/0x01089336)], work=19*
159: 0x0488 [0x66] LOAD_EXT_SCHEDULER_MAIN: Load scheduler "twb0" with entities [Zazarg (ID: 17339240/0x01089368), Zazarg (ID: 17339240/0x01089368)], work=69*
160: 0x0497 [0x4A] ex02 (ID: 17339192/0x01089338) looks at Invincible Shield (ID: 17339239/0x01089367)
161: 0x04A0 [0x1C] WAIT(50* ticks)
162: 0x04A3 [0x7B] Zazarg (ID: 17339240/0x01089368) stops talking
163: 0x04A8 [0x79] ex05 (ID: 17339187/0x01089333) looks at Zazarg (ID: 17339240/0x01089368) (Basic look)
164: 0x04B2 [0x79] ex06 (ID: 17339188/0x01089334) looks at Zazarg (ID: 17339240/0x01089368) (Basic look)
165: 0x04BC [0x1C] WAIT(50* ticks)
166: 0x04BF [0x66] LOAD_EXT_SCHEDULER_MAIN: Load scheduler "twb1" with entities [Zazarg (ID: 17339240/0x01089368), Zazarg (ID: 17339240/0x01089368)], work=69*
167: 0x04CE [0x27] REQ_SET(priority=0x10, entity_id=ex05 (ID: 17339187/0x01089333), tag_num=0x1B)
168: 0x04D5 [0x27] REQ_SET(priority=0x10, entity_id=ex06 (ID: 17339188/0x01089334), tag_num=0x1B)
169: 0x04DC [0x4B] UPDATE_ENTITY_YAW(entity=Bartholomaus (ID: 17339236/0x01089364), yaw=18.7*)
170: 0x04E3 [0x1C] WAIT(30* ticks)
171: 0x04E6 [0x6E] Zazarg (ID: 17339240/0x01089368) uses emote 7*
172: 0x04ED [0x99] Wait for Zazarg (ID: 17339240/0x01089368) animation to complete
173: 0x04F2 [0x79] Bartholomaus (ID: 17339236/0x01089364) looks at LocalPlayer (Basic look)
174: 0x04FC [0x55] WAIT_LOAD_SCHEDULER: Wait for scheduler "v010" with entities [LocalPlayer, LocalPlayer], work=534*
175: 0x050B [0x52] END_LOAD_SCHEDULER: End scheduler "v010" with entities [LocalPlayer, LocalPlayer], work=534*
176: 0x051A [0x45] LOAD_SCHEDULED_TASK: Load scheduler "v020" with entities [LocalPlayer, LocalPlayer], work=[534*, 0*]
177: 0x052B [0x27] REQ_SET(priority=0x10, entity_id=Bartholomaus (ID: 17339236/0x01089364), tag_num=0x08)
