# 17339036

## Common Data

| Field            | Value                   |
|------------------|-------------------------|
| Zone             | Xarcabard [S] (ID: 137) |
| Block Size       | 360 bytes               |
| Total Events     | 8                       |
| References Count | 11                      |

## List of Events

| Event ID                 | Entrypoint   |   Size |   Instructions |
|--------------------------|--------------|--------|----------------|
| [65535](#event-65535)    | 0x0000       |      1 |              1 |
| [18](#event-18)          | 0x0001       |      1 |              1 |
| [65535.1](#event-655351) | 0x0002       |     70 |              8 |
| [65535.2](#event-655352) | 0x0048       |     70 |              8 |
| [65535.3](#event-655353) | 0x008E       |     34 |              4 |
| [65535.4](#event-655354) | 0x00B0       |     88 |             14 |
| [36](#event-36)          | 0x0108       |      1 |              1 |
| [37](#event-37)          | 0x0109       |      1 |              1 |

## DAT References (imed_data)

|   Index | Hex Value   |   Dec Value |
|---------|-------------|-------------|
|       0 | 0x00DF      |         223 |
|       1 | 0x0000      |           0 |
|       2 | 0x002D      |          45 |
|       3 | 0x003C      |          60 |
|       4 | 0x0088      |         136 |
|       5 | 0x000A      |          10 |
|       6 | 0x0064      |         100 |
|       7 | 0x08CD      |        2253 |
|       8 | 0x0005      |           5 |
|       9 | 0x0002      |           2 |
|      10 | 0x0003      |           3 |

## Events

### Event 65535

#### Metadata

| Field        | Value   |
|--------------|---------|
| Entrypoint   | 0x0000  |
| Data Size    | 1 bytes |
| Instructions | 1       |

```
      00 01 02 03 04 05 06 07  08 09 0A 0B 0C 0D 0E 0F
      -- -- -- -- -- -- -- --  -- -- -- -- -- -- -- --
0000: 00                                                .               
```

#### Opcodes

```
  0: 0x0000 [0x00] END_REQSTACK()
```

### Event 18

#### Metadata

| Field        | Value   |
|--------------|---------|
| Entrypoint   | 0x0001  |
| Data Size    | 1 bytes |
| Instructions | 1       |

```
      00 01 02 03 04 05 06 07  08 09 0A 0B 0C 0D 0E 0F
      -- -- -- -- -- -- -- --  -- -- -- -- -- -- -- --
0000:    00                                              .              
```

#### Opcodes

```
  0: 0x0001 [0x00] END_REQSTACK()
```

### Event 65535.1

#### Metadata

| Field        | Value    |
|--------------|----------|
| Entrypoint   | 0x0002   |
| Data Size    | 70 bytes |
| Instructions | 8        |

```
      00 01 02 03 04 05 06 07  08 09 0A 0B 0C 0D 0E 0F
      -- -- -- -- -- -- -- --  -- -- -- -- -- -- -- --
0000:       BB 00 80 57 93 08  01 57 93 08 01 69 6E 30    ...W...W...in0
0010: 30 01 80 1C 02 80 BB 00  80 77 93 08 01 77 93 08  0........w...w..
0020: 01 69 6E 30 30 01 80 1C  02 80 BB 00 80 76 93 08  .in00........v..
0030: 01 76 93 08 01 69 6E 30  30 01 80 1C 02 80 6C BE  .v...in00.....l.
0040: 92 08 01 01 80 03 80 00                           ........        
```

#### Opcodes

```
  0: 0x0002 [0xBB] LOAD_EVENT_SCHEDULER_ALT: Load scheduler "in00" with entities [Lady Lilith (ID: 17339223/0x01089357), Lady Lilith (ID: 17339223/0x01089357)], work=[223*, 0*]
  1: 0x0013 [0x1C] WAIT(45* ticks)
  2: 0x0016 [0xBB] LOAD_EVENT_SCHEDULER_ALT: Load scheduler "in00" with entities [Larzos (ID: 17339255/0x01089377), Larzos (ID: 17339255/0x01089377)], work=[223*, 0*]
  3: 0x0027 [0x1C] WAIT(45* ticks)
  4: 0x002A [0xBB] LOAD_EVENT_SCHEDULER_ALT: Load scheduler "in00" with entities [Aquila (ID: 17339254/0x01089376), Aquila (ID: 17339254/0x01089376)], work=[223*, 0*]
  5: 0x003B [0x1C] WAIT(45* ticks)
  6: 0x003E [0x6C] FADE_ENTITY_COLOR(entity_id=tueC (ID: 17339070/0x010892BE), end_alpha=0*, fade_time=60*)
  7: 0x0047 [0x00] END_REQSTACK()
```

### Event 65535.2

#### Metadata

| Field        | Value    |
|--------------|----------|
| Entrypoint   | 0x0048   |
| Data Size    | 70 bytes |
| Instructions | 8        |

```
      00 01 02 03 04 05 06 07  08 09 0A 0B 0C 0D 0E 0F
      -- -- -- -- -- -- -- --  -- -- -- -- -- -- -- --
0040:                          66 04 80 33 93 08 01 33          f..3...3
0050: 93 08 01 67 61 74 30 1C  05 80 66 04 80 34 93 08  ...gat0...f..4..
0060: 01 34 93 08 01 67 61 74  30 1C 06 80 66 04 80 33  .4...gat0...f..3
0070: 93 08 01 33 93 08 01 67  61 74 31 1C 05 80 66 04  ...3...gat1...f.
0080: 80 34 93 08 01 34 93 08  01 67 61 74 31 00        .4...4...gat1.  
```

#### Opcodes

```
  0: 0x0048 [0x66] LOAD_EXT_SCHEDULER_MAIN: Load scheduler "gat0" with entities [ex05 (ID: 17339187/0x01089333), ex05 (ID: 17339187/0x01089333)], work=136*
  1: 0x0057 [0x1C] WAIT(10* ticks)
  2: 0x005A [0x66] LOAD_EXT_SCHEDULER_MAIN: Load scheduler "gat0" with entities [ex06 (ID: 17339188/0x01089334), ex06 (ID: 17339188/0x01089334)], work=136*
  3: 0x0069 [0x1C] WAIT(100* ticks)
  4: 0x006C [0x66] LOAD_EXT_SCHEDULER_MAIN: Load scheduler "gat1" with entities [ex05 (ID: 17339187/0x01089333), ex05 (ID: 17339187/0x01089333)], work=136*
  5: 0x007B [0x1C] WAIT(10* ticks)
  6: 0x007E [0x66] LOAD_EXT_SCHEDULER_MAIN: Load scheduler "gat1" with entities [ex06 (ID: 17339188/0x01089334), ex06 (ID: 17339188/0x01089334)], work=136*
  7: 0x008D [0x00] END_REQSTACK()
```

### Event 65535.3

#### Metadata

| Field        | Value    |
|--------------|----------|
| Entrypoint   | 0x008E   |
| Data Size    | 34 bytes |
| Instructions | 4        |

```
      00 01 02 03 04 05 06 07  08 09 0A 0B 0C 0D 0E 0F
      -- -- -- -- -- -- -- --  -- -- -- -- -- -- -- --
0080:                                            66 04                f.
0090: 80 60 93 08 01 60 93 08  01 67 61 74 30 1C 06 80  .`...`...gat0...
00A0: 66 04 80 60 93 08 01 60  93 08 01 67 61 74 31 00  f..`...`...gat1.
```

#### Opcodes

```
  0: 0x008E [0x66] LOAD_EXT_SCHEDULER_MAIN: Load scheduler "gat0" with entities [Gregoirion (ID: 17339232/0x01089360), Gregoirion (ID: 17339232/0x01089360)], work=136*
  1: 0x009D [0x1C] WAIT(100* ticks)
  2: 0x00A0 [0x66] LOAD_EXT_SCHEDULER_MAIN: Load scheduler "gat1" with entities [Gregoirion (ID: 17339232/0x01089360), Gregoirion (ID: 17339232/0x01089360)], work=136*
  3: 0x00AF [0x00] END_REQSTACK()
```

### Event 65535.4

#### Metadata

| Field        | Value    |
|--------------|----------|
| Entrypoint   | 0x00B0   |
| Data Size    | 88 bytes |
| Instructions | 14       |

```
      00 01 02 03 04 05 06 07  08 09 0A 0B 0C 0D 0E 0F
      -- -- -- -- -- -- -- --  -- -- -- -- -- -- -- --
00B0: 5B 07 80 5C 93 08 01 5C  93 08 01 6B 69 61 30 27  [..\...\...kia0'
00C0: 10 5B 93 08 01 16 1C 08  80 27 10 35 93 08 01 5A  .[.......'.5...Z
00D0: 1C 09 80 27 10 36 93 08  01 5D 1C 08 80 27 10 37  ...'.6...]...'.7
00E0: 93 08 01 5C 1C 0A 80 27  10 38 93 08 01 5D 5B 07  ...\...'.8...][.
00F0: 80 32 93 08 01 32 93 08  01 6B 69 61 30 1C 08 80  .2...2...kia0...
0100: 27 10 39 93 08 01 5C 00                           '.9...\.        
```

#### Opcodes

```
  0: 0x00B0 [0x5B] LOAD_EXT_SCHEDULER: Load scheduler "kia0" with entities [Vestillet (ID: 17339228/0x0108935C), Vestillet (ID: 17339228/0x0108935C)], work=2253*
  1: 0x00BF [0x27] REQ_SET(priority=0x10, entity_id=Cousseraux (ID: 17339227/0x0108935B), tag_num=0x16)
  2: 0x00C6 [0x1C] WAIT(5* ticks)
  3: 0x00C9 [0x27] REQ_SET(priority=0x10, entity_id=ex07 (ID: 17339189/0x01089335), tag_num=0x5A)
  4: 0x00D0 [0x1C] WAIT(2* ticks)
  5: 0x00D3 [0x27] REQ_SET(priority=0x10, entity_id=ex08 (ID: 17339190/0x01089336), tag_num=0x5D)
  6: 0x00DA [0x1C] WAIT(5* ticks)
  7: 0x00DD [0x27] REQ_SET(priority=0x10, entity_id=ex01 (ID: 17339191/0x01089337), tag_num=0x5C)
  8: 0x00E4 [0x1C] WAIT(3* ticks)
  9: 0x00E7 [0x27] REQ_SET(priority=0x10, entity_id=ex02 (ID: 17339192/0x01089338), tag_num=0x5D)
 10: 0x00EE [0x5B] LOAD_EXT_SCHEDULER: Load scheduler "kia0" with entities [Ironcretht Hawk 01 (ID: 17339186/0x01089332), Ironcretht Hawk 01 (ID: 17339186/0x01089332)], work=2253*
 11: 0x00FD [0x1C] WAIT(5* ticks)
 12: 0x0100 [0x27] REQ_SET(priority=0x10, entity_id=ex03 (ID: 17339193/0x01089339), tag_num=0x5C)
 13: 0x0107 [0x00] END_REQSTACK()
```

### Event 36

#### Metadata

| Field        | Value   |
|--------------|---------|
| Entrypoint   | 0x0108  |
| Data Size    | 1 bytes |
| Instructions | 1       |

```
      00 01 02 03 04 05 06 07  08 09 0A 0B 0C 0D 0E 0F
      -- -- -- -- -- -- -- --  -- -- -- -- -- -- -- --
0100:                          00                               .       
```

#### Opcodes

```
  0: 0x0108 [0x00] END_REQSTACK()
```

### Event 37

#### Metadata

| Field        | Value   |
|--------------|---------|
| Entrypoint   | 0x0109  |
| Data Size    | 1 bytes |
| Instructions | 1       |

```
      00 01 02 03 04 05 06 07  08 09 0A 0B 0C 0D 0E 0F
      -- -- -- -- -- -- -- --  -- -- -- -- -- -- -- --
0100:                             00                             .      
```

#### Opcodes

```
  0: 0x0109 [0x00] END_REQSTACK()
```
