# 0x7FFFFFF0 - Zone Events

## Common Data

| Field            | Value                   |
|------------------|-------------------------|
| Zone             | Xarcabard [S] (ID: 137) |
| Block Size       | 3668 bytes              |
| Total Events     | 81                      |
| References Count | 253                     |

## List of Events

| Event ID                   | Entrypoint   |   Size |   Instructions |
|----------------------------|--------------|--------|----------------|
| [65535](#event-65535)      | 0x0000       |      1 |              1 |
| [65534](#event-65534)      | 0x0001       |      1 |              1 |
| [65535.1](#event-655351)   | 0x0002       |     13 |              3 |
| [65535.2](#event-655352)   | 0x000F       |     14 |              4 |
| [65535.3](#event-655353)   | 0x001D       |      6 |              2 |
| [65535.4](#event-655354)   | 0x0023       |      6 |              2 |
| [65535.5](#event-655355)   | 0x0029       |     37 |              5 |
| [65535.6](#event-655356)   | 0x004E       |     37 |              5 |
| [65535.7](#event-655357)   | 0x0073       |      7 |              3 |
| [65535.8](#event-655358)   | 0x007A       |      7 |              3 |
| [65535.9](#event-655359)   | 0x0081       |    190 |             38 |
| [65535.10](#event-6553510) | 0x013F       |     24 |              4 |
| [65535.11](#event-6553511) | 0x0157       |     24 |              4 |
| [65535.12](#event-6553512) | 0x016F       |     38 |              5 |
| [65535.13](#event-6553513) | 0x0195       |     38 |              5 |
| [65535.14](#event-6553514) | 0x01BB       |     38 |              5 |
| [65535.15](#event-6553515) | 0x01E1       |     37 |              5 |
| [65535.16](#event-6553516) | 0x0206       |     37 |              5 |
| [65535.17](#event-6553517) | 0x022B       |     42 |              6 |
| [65535.18](#event-6553518) | 0x0255       |     23 |              7 |
| [65535.19](#event-6553519) | 0x026C       |     18 |              6 |
| [65535.20](#event-6553520) | 0x027E       |     18 |              6 |
| [65535.21](#event-6553521) | 0x0290       |     42 |              6 |
| [65535.22](#event-6553522) | 0x02BA       |     23 |              7 |
| [65535.23](#event-6553523) | 0x02D1       |     22 |              6 |
| [65535.24](#event-6553524) | 0x02E7       |     22 |              6 |
| [65535.25](#event-6553525) | 0x02FD       |     14 |              4 |
| [65535.26](#event-6553526) | 0x030B       |     41 |              9 |
| [65535.27](#event-6553527) | 0x0334       |     19 |              5 |
| [65535.28](#event-6553528) | 0x0347       |     11 |              3 |
| [65535.29](#event-6553529) | 0x0352       |     11 |              3 |
| [65535.30](#event-6553530) | 0x035D       |     11 |              3 |
| [65535.31](#event-6553531) | 0x0368       |     11 |              3 |
| [65535.32](#event-6553532) | 0x0373       |     34 |              8 |
| [65535.33](#event-6553533) | 0x0395       |     21 |              5 |
| [65535.34](#event-6553534) | 0x03AA       |     12 |              4 |
| [65535.35](#event-6553535) | 0x03B6       |     23 |              7 |
| [65535.36](#event-6553536) | 0x03CD       |     12 |              4 |
| [65535.37](#event-6553537) | 0x03D9       |     19 |              5 |
| [65535.38](#event-6553538) | 0x03EC       |     32 |              8 |
| [65535.39](#event-6553539) | 0x040C       |     46 |              6 |
| [65535.40](#event-6553540) | 0x043A       |     46 |              6 |
| [65535.41](#event-6553541) | 0x0468       |     16 |              3 |
| [65535.42](#event-6553542) | 0x0478       |     16 |              3 |
| [65535.43](#event-6553543) | 0x0488       |     33 |              9 |
| [65535.44](#event-6553544) | 0x04A9       |     14 |              4 |
| [65535.45](#event-6553545) | 0x04B7       |     15 |              5 |
| [65535.46](#event-6553546) | 0x04C6       |     25 |              7 |
| [65535.47](#event-6553547) | 0x04DF       |     32 |              8 |
| [65535.48](#event-6553548) | 0x04FF       |     23 |              7 |
| [65535.49](#event-6553549) | 0x0516       |     21 |              5 |
| [65535.50](#event-6553550) | 0x052B       |     21 |              5 |
| [65535.51](#event-6553551) | 0x0540       |     15 |              5 |
| [65535.52](#event-6553552) | 0x054F       |     15 |              5 |
| [65535.53](#event-6553553) | 0x055E       |     15 |              5 |
| [65535.54](#event-6553554) | 0x056D       |     15 |              5 |
| [65535.55](#event-6553555) | 0x057C       |     15 |              5 |
| [65535.56](#event-6553556) | 0x058B       |     15 |              5 |
| [65535.57](#event-6553557) | 0x059A       |     34 |              8 |
| [65535.58](#event-6553558) | 0x05BC       |     20 |              6 |
| [65535.59](#event-6553559) | 0x05D0       |     38 |              5 |
| [65535.60](#event-6553560) | 0x05F6       |     38 |              5 |
| [65535.61](#event-6553561) | 0x061C       |     38 |              5 |
| [65535.62](#event-6553562) | 0x0642       |     53 |             11 |
| [65535.63](#event-6553563) | 0x0677       |     23 |              5 |
| [65535.64](#event-6553564) | 0x068E       |      4 |              2 |
| [65535.65](#event-6553565) | 0x0692       |      4 |              2 |
| [65535.66](#event-6553566) | 0x0696       |     38 |              4 |
| [65535.67](#event-6553567) | 0x06BC       |     83 |             18 |
| [65535.68](#event-6553568) | 0x070F       |     43 |             10 |
| [65535.69](#event-6553569) | 0x073A       |     39 |              8 |
| [65535.70](#event-6553570) | 0x0761       |     20 |              5 |
| [65535.71](#event-6553571) | 0x0775       |     39 |              8 |
| [65535.72](#event-6553572) | 0x079C       |     39 |              8 |
| [65535.73](#event-6553573) | 0x07C3       |     59 |             12 |
| [65535.74](#event-6553574) | 0x07FE       |     59 |             12 |
| [65535.75](#event-6553575) | 0x0839       |     39 |              8 |
| [65535.76](#event-6553576) | 0x0860       |     27 |              5 |
| [65535.77](#event-6553577) | 0x087B       |     22 |              6 |
| [65535.78](#event-6553578) | 0x0891       |     14 |              4 |
| [11](#event-11)            | 0x089F       |    107 |             16 |

## DAT References (imed_data)

|   Index | Hex Value   |   Dec Value |
|---------|-------------|-------------|
|       0 | 0xFFF997A2  |  4294547362 |
|       1 | 0x4E4A      |       20042 |
|       2 | 0xFFFF5420  |  4294923296 |
|       3 | 0x0800      |        2048 |
|       4 | 0x000D      |          13 |
|       5 | 0xFFF9788F  |  4294539407 |
|       6 | 0x4E1D      |       19997 |
|       7 | 0xFFFF503D  |  4294922301 |
|       8 | 0x0001      |           1 |
|       9 | 0x0000      |           0 |
|      10 | 0x0005      |           5 |
|      11 | 0x0002      |           2 |
|      12 | 0x000A      |          10 |
|      13 | 0x0009      |           9 |
|      14 | 0x0046      |          70 |
|      15 | 0x008C      |         140 |
|      16 | 0x00D2      |         210 |
|      17 | 0x0008      |           8 |
|      18 | 0x0007      |           7 |
|      19 | 0x0091      |         145 |
|      20 | 0x004F      |          79 |
|      21 | 0x004C      |          76 |
|      22 | 0x00C9      |         201 |
|      23 | 0x0018      |          24 |
|      24 | 0x0020      |          32 |
|      25 | 0x0030      |          48 |
|      26 | 0x0040      |          64 |
|      27 | 0x003C      |          60 |
|      28 | 0x0027      |          39 |
|      29 | 0xFFFE4641  |  4294854209 |
|      30 | 0xFFFF6D51  |  4294929745 |
|      31 | 0xFFFFA2C0  |  4294943424 |
|      32 | 0x000B      |          11 |
|      33 | 0xFFFE43E1  |  4294853601 |
|      34 | 0xFFFF675E  |  4294928222 |
|      35 | 0xFFFFA2B3  |  4294943411 |
|      36 | 0x0028      |          40 |
|      37 | 0x0026      |          38 |
|      38 | 0xFFFE7654  |  4294866516 |
|      39 | 0xFFFF4A64  |  4294920804 |
|      40 | 0xFFFFA33C  |  4294943548 |
|      41 | 0xFFFC2027  |  4294713383 |
|      42 | 0xFFFFC1AE  |  4294951342 |
|      43 | 0xFFFFFD79  |  4294966649 |
|      44 | 0x001E      |          30 |
|      45 | 0xFFFC0DBF  |  4294708671 |
|      46 | 0xFFFFD58C  |  4294956428 |
|      47 | 0xFFFFFED9  |  4294967001 |
|      48 | 0x240B3     |      147635 |
|      49 | 0xFFFF15FB  |  4294907387 |
|      50 | 0x03E8      |        1000 |
|      51 | 0xFFFE975E  |  4294874974 |
|      52 | 0xFFFF5E89  |  4294925961 |
|      53 | 0xFFFFA3EB  |  4294943723 |
|      54 | 0xFFFE3C1D  |  4294851613 |
|      55 | 0xFFFF7BA4  |  4294933412 |
|      56 | 0xFFFFA34E  |  4294943566 |
|      57 | 0x5C0EB     |      377067 |
|      58 | 0x12B4E     |       76622 |
|      59 | 0x743D      |       29757 |
|      60 | 0x5A1C8     |      369096 |
|      61 | 0xBC18      |       48152 |
|      62 | 0x752F      |       29999 |
|      63 | 0xC2F8      |       49912 |
|      64 | 0x43668     |      276072 |
|      65 | 0x8639      |       34361 |
|      66 | 0x4C6C9     |      313033 |
|      67 | 0xFFFFFE93  |  4294966931 |
|      68 | 0xADA8      |       44456 |
|      69 | 0x4ECC6     |      322758 |
|      70 | 0xFFFFFF88  |  4294967176 |
|      71 | 0xEB0A      |       60170 |
|      72 | 0x490CF     |      299215 |
|      73 | 0x356B9     |      218809 |
|      74 | 0x22478     |      140408 |
|      75 | 0xFFFF9D48  |  4294942024 |
|      76 | 0x34C17     |      216087 |
|      77 | 0x261D8     |      156120 |
|      78 | 0xFFFF95C1  |  4294940097 |
|      79 | 0x3207B     |      204923 |
|      80 | 0x282CF     |      164559 |
|      81 | 0xFFFF9284  |  4294939268 |
|      82 | 0x2DA34     |      186932 |
|      83 | 0x28F4A     |      167754 |
|      84 | 0xFFFF92C2  |  4294939330 |
|      85 | 0x0601      |        1537 |
|      86 | 0x2CA6E     |      182894 |
|      87 | 0x27ACB     |      162507 |
|      88 | 0xFFFF95F7  |  4294940151 |
|      89 | 0x0064      |         100 |
|      90 | 0x0090      |         144 |
|      91 | 0x3C0E2     |      245986 |
|      92 | 0xFFFDBEDF  |  4294819551 |
|      93 | 0xFFFFC5CB  |  4294952395 |
|      94 | 0x3CC58     |      248920 |
|      95 | 0xFFFE024B  |  4294836811 |
|      96 | 0xFFFFBED0  |  4294950608 |
|      97 | 0x0080      |         128 |
|      98 | 0x52CE2     |      339170 |
|      99 | 0xFFFAED26  |  4294634790 |
|     100 | 0x0087      |         135 |
|     101 | 0x52CEF     |      339183 |
|     102 | 0xFFFAE691  |  4294633105 |
|     103 | 0x0089      |         137 |
|     104 | 0x52D84     |      339332 |
|     105 | 0xFFFAB7A0  |  4294621088 |
|     106 | 0xFFFFFADE  |  4294965982 |
|     107 | 0x0012      |          18 |
|     108 | 0x5319B     |      340379 |
|     109 | 0xFFFAEFBF  |  4294635455 |
|     110 | 0x010D      |         269 |
|     111 | 0x5284A     |      337994 |
|     112 | 0xFFFAB26C  |  4294619756 |
|     113 | 0xFFFFFA4B  |  4294965835 |
|     114 | 0x002D      |          45 |
|     115 | 0x8A68F     |      566927 |
|     116 | 0xFFFBD38E  |  4294693774 |
|     117 | 0xFFFFFFE8  |  4294967272 |
|     118 | 0x891E6     |      561638 |
|     119 | 0xFFFBCDFB  |  4294692347 |
|     120 | 0xFFFFFFCB  |  4294967243 |
|     121 | 0x8F6AA     |      587434 |
|     122 | 0xFFFC0515  |  4294706453 |
|     123 | 0xFFFFFF6E  |  4294967150 |
|     124 | 0x061B      |        1563 |
|     125 | 0x87DAA     |      556458 |
|     126 | 0xFFFBC2D1  |  4294689489 |
|     127 | 0x09B8      |        2488 |
|     128 | 0x0025      |          37 |
|     129 | 0x8601B     |      548891 |
|     130 | 0xFFFBBBC3  |  4294687683 |
|     131 | 0x0160      |         352 |
|     132 | 0x0023      |          35 |
|     133 | 0x7A07C     |      499836 |
|     134 | 0xFFFCAE9A  |  4294749850 |
|     135 | 0xFFFFFFDF  |  4294967263 |
|     136 | 0x7E581     |      517505 |
|     137 | 0xFFFC4B83  |  4294724483 |
|     138 | 0x7AE28     |      503336 |
|     139 | 0xFFFC8EA5  |  4294741669 |
|     140 | 0xFFFFFE2F  |  4294966831 |
|     141 | 0xFFFD4437  |  4294788151 |
|     142 | 0xFFFFB7EF  |  4294948847 |
|     143 | 0xFFFFFAAE  |  4294965934 |
|     144 | 0xFFFD43BD  |  4294788029 |
|     145 | 0xFFFF0E9E  |  4294905502 |
|     146 | 0xFFFFFA99  |  4294965913 |
|     147 | 0xFFFD4429  |  4294788137 |
|     148 | 0xFFFF0ABE  |  4294904510 |
|     149 | 0xFFFFFA6F  |  4294965871 |
|     150 | 0x05FA      |        1530 |
|     151 | 0x3D845     |      251973 |
|     152 | 0xFFFDB146  |  4294816070 |
|     153 | 0xFFFFC853  |  4294953043 |
|     154 | 0x0106      |         262 |
|     155 | 0x0004      |           4 |
|     156 | 0x0050      |          80 |
|     157 | 0x0060      |          96 |
|     158 | 0x84FAA     |      544682 |
|     159 | 0xFFFBB866  |  4294686822 |
|     160 | 0x02D8      |         728 |
|     161 | 0x83BDC     |      539612 |
|     162 | 0xFFFBB6A6  |  4294686374 |
|     163 | 0x03D3      |         979 |
|     164 | 0x82383     |      533379 |
|     165 | 0xFFFBBFC1  |  4294688705 |
|     166 | 0x0215      |         533 |
|     167 | 0x81227     |      528935 |
|     168 | 0xFFFBD153  |  4294693203 |
|     169 | 0x00F4      |         244 |
|     170 | 0x972C8     |      619208 |
|     171 | 0xFFFBC781  |  4294690689 |
|     172 | 0x00EE      |         238 |
|     173 | 0x007F      |         127 |
|     174 | 0x12D0F     |       77071 |
|     175 | 0xFFFD08C0  |  4294772928 |
|     176 | 0xFFFFA291  |  4294943377 |
|     177 | 0x135B5     |       79285 |
|     178 | 0xFFFCDE8E  |  4294762126 |
|     179 | 0xFFFFA27A  |  4294943354 |
|     180 | 0x135AB     |       79275 |
|     181 | 0xFFFCD8CA  |  4294760650 |
|     182 | 0xFFFFA2C3  |  4294943427 |
|     183 | 0x13251     |       78417 |
|     184 | 0xFFFCD004  |  4294758404 |
|     185 | 0xFFFFA333  |  4294943539 |
|     186 | 0x12E31     |       77361 |
|     187 | 0xFFFCC775  |  4294756213 |
|     188 | 0xFFFFA3A0  |  4294943648 |
|     189 | 0x1282A     |       75818 |
|     190 | 0xFFFCC29C  |  4294754972 |
|     191 | 0xFFFFA3C8  |  4294943688 |
|     192 | 0x12013     |       73747 |
|     193 | 0xFFFCBD15  |  4294753557 |
|     194 | 0xFFFFA3E9  |  4294943721 |
|     195 | 0x12857     |       75863 |
|     196 | 0xFFFCC06B  |  4294754411 |
|     197 | 0xFFFFA41D  |  4294943773 |
|     198 | 0x12072     |       73842 |
|     199 | 0xFFFCB4AE  |  4294751406 |
|     200 | 0xFFFFA4E7  |  4294943975 |
|     201 | 0x11A6E     |       72302 |
|     202 | 0xFFFCAA87  |  4294748807 |
|     203 | 0xFFFFA523  |  4294944035 |
|     204 | 0x000C      |          12 |
|     205 | 0x113A5     |       70565 |
|     206 | 0xFFFCAE65  |  4294749797 |
|     207 | 0xFFFFA405  |  4294943749 |
|     208 | 0x10A62     |       68194 |
|     209 | 0xFFFCAAAA  |  4294748842 |
|     210 | 0xFFFFA35D  |  4294943581 |
|     211 | 0xFBC1      |       64449 |
|     212 | 0xFFFCAE96  |  4294749846 |
|     213 | 0xFFFFA2D4  |  4294943444 |
|     214 | 0x292E7     |      168679 |
|     215 | 0xFFFF5D7D  |  4294925693 |
|     216 | 0xFFFFC44A  |  4294952010 |
|     217 | 0x27A65     |      162405 |
|     218 | 0xFFFF8B85  |  4294937477 |
|     219 | 0xFFFFC396  |  4294951830 |
|     220 | 0x2791E     |      162078 |
|     221 | 0xFFFF8AA6  |  4294937254 |
|     222 | 0xFFFFC370  |  4294951792 |
|     223 | 0xFFFDA14A  |  4294811978 |
|     224 | 0xFFFF4C24  |  4294921252 |
|     225 | 0xFFFFA2C6  |  4294943430 |
|     226 | 0xFFFD8CA4  |  4294806692 |
|     227 | 0xFFFF4E1D  |  4294921757 |
|     228 | 0xFFFFA28F  |  4294943375 |
|     229 | 0xFFFD7ECA  |  4294803146 |
|     230 | 0xFFFF4F7A  |  4294922106 |
|     231 | 0xFFFFA2D6  |  4294943446 |
|     232 | 0xFFFD71BD  |  4294799805 |
|     233 | 0xFFFF5B9F  |  4294925215 |
|     234 | 0xFFFFA561  |  4294944097 |
|     235 | 0xFFFD73D3  |  4294800339 |
|     236 | 0xFFFF5BDB  |  4294925275 |
|     237 | 0xFFFFA502  |  4294944002 |
|     238 | 0xFFFD7EFA  |  4294803194 |
|     239 | 0xFFFF6A5E  |  4294928990 |
|     240 | 0xFFFFA30C  |  4294943500 |
|     241 | 0xFFFD841B  |  4294804507 |
|     242 | 0xFFFF742A  |  4294931498 |
|     243 | 0x012C      |         300 |
|     244 | 0x283CE     |      164814 |
|     245 | 0xFFFF7FD8  |  4294934488 |
|     246 | 0xFFFFC32B  |  4294951723 |
|     247 | 0x28534     |      165172 |
|     248 | 0xFFFFC059  |  4294951001 |
|     249 | 0xFFFFBEFF  |  4294950655 |
|     250 | 0x2033      |        8243 |
|     251 | 0x00C8      |         200 |
|     252 | 0x005A      |          90 |

## String References

- **8243**: The order has been given by your party leader to enter [Everbloom Hollow/the Ruhotz Silvermines/Ghoyu's Reverie].

## Events

### Event 65535

#### Metadata

| Field        | Value   |
|--------------|---------|
| Entrypoint   | 0x0000  |
| Data Size    | 1 bytes |
| Instructions | 1       |

```
      00 01 02 03 04 05 06 07  08 09 0A 0B 0C 0D 0E 0F
      -- -- -- -- -- -- -- --  -- -- -- -- -- -- -- --
0000: 00                                                .               
```

#### Opcodes

```
  0: 0x0000 [0x00] END_REQSTACK()
```

### Event 65534

#### Metadata

| Field        | Value   |
|--------------|---------|
| Entrypoint   | 0x0001  |
| Data Size    | 1 bytes |
| Instructions | 1       |

```
      00 01 02 03 04 05 06 07  08 09 0A 0B 0C 0D 0E 0F
      -- -- -- -- -- -- -- --  -- -- -- -- -- -- -- --
0000:    00                                              .              
```

#### Opcodes

```
  0: 0x0001 [0x00] END_REQSTACK()
```

### Event 65535.1

#### Metadata

| Field        | Value    |
|--------------|----------|
| Entrypoint   | 0x0002   |
| Data Size    | 13 bytes |
| Instructions | 3        |

```
      00 01 02 03 04 05 06 07  08 09 0A 0B 0C 0D 0E 0F
      -- -- -- -- -- -- -- --  -- -- -- -- -- -- -- --
0000:       47 00 00 80 01 80  02 80 03 80 47 01 00       G.........G.. 
```

#### Opcodes

```
  0: 0x0002 [0x47] UPDATE_PLAYER_POS(-419.934*, 20.042*, -44.000*, yaw=180.0°*)
  1: 0x000C [0x47] WAIT_PLAYER_POS_UPDATE
  2: 0x000E [0x00] END_REQSTACK()
```

### Event 65535.2

#### Metadata

| Field        | Value    |
|--------------|----------|
| Entrypoint   | 0x000F   |
| Data Size    | 14 bytes |
| Instructions | 4        |

```
      00 01 02 03 04 05 06 07  08 09 0A 0B 0C 0D 0E 0F
      -- -- -- -- -- -- -- --  -- -- -- -- -- -- -- --
0000:                                               32                 2
0010: 04 80 1F 00 05 80 06 80  07 80 1F 01 00           .............   
```

#### Opcodes

```
  0: 0x000F [0x32] ExtData[1]->MainSpeed = 13* * 0.1
  1: 0x0012 [0x1F] MOVE_ENTITY: EventEntity moves to X=-427.889*, Z=19.997*, Y=-44.995*
  2: 0x001A [0x1F] MOVE_ENTITY: Update entity position (mode=1)
  3: 0x001C [0x00] END_REQSTACK()
```

### Event 65535.3

#### Metadata

| Field        | Value   |
|--------------|---------|
| Entrypoint   | 0x001D  |
| Data Size    | 6 bytes |
| Instructions | 2       |

```
      00 01 02 03 04 05 06 07  08 09 0A 0B 0C 0D 0E 0F
      -- -- -- -- -- -- -- --  -- -- -- -- -- -- -- --
0010:                                         03 02 10               ...
0020: 07 7F 00                                          ...             
```

#### Opcodes

```
  0: 0x001D [0x03] Work_Zone[2] = Entity->Race
  1: 0x0022 [0x00] END_REQSTACK()
```

### Event 65535.4

#### Metadata

| Field        | Value   |
|--------------|---------|
| Entrypoint   | 0x0023  |
| Data Size    | 6 bytes |
| Instructions | 2       |

```
      00 01 02 03 04 05 06 07  08 09 0A 0B 0C 0D 0E 0F
      -- -- -- -- -- -- -- --  -- -- -- -- -- -- -- --
0020:          03 02 10 0B 7F  00                          ......       
```

#### Opcodes

```
  0: 0x0023 [0x03] Work_Zone[2] = (Entity->Render.Flags01 >> 25) & 1
  1: 0x0028 [0x00] END_REQSTACK()
```

### Event 65535.5

#### Metadata

| Field        | Value    |
|--------------|----------|
| Entrypoint   | 0x0029   |
| Data Size    | 37 bytes |
| Instructions | 5        |

```
      00 01 02 03 04 05 06 07  08 09 0A 0B 0C 0D 0E 0F
      -- -- -- -- -- -- -- --  -- -- -- -- -- -- -- --
0020:                             03 00 00 07 7F 1A AB           .......
0030: 00 66 01 00 F8 FF FF 7F  F8 FF FF 7F 73 68 61 30  .f..........sha0
0040: 53 F8 FF FF 7F F8 FF FF  7F 73 68 61 30 00        S........sha0.  
```

#### Opcodes

```
  0: 0x0029 [0x03] ExtData[1]->WorkLocal[0] = Entity->Race
  1: 0x002E [0x1A] CALL_SUBROUTINE(address=0x00AB)
  2: 0x0031 [0x66] LOAD_EXT_SCHEDULER_MAIN: Load scheduler "sha0" with entities [EventEntity, EventEntity], work=ExtData[1]->WorkLocal[1]
  3: 0x0040 [0x53] WAIT_SCHEDULER_TASK: Wait for scheduler "sha0" with entities [EventEntity, EventEntity]
  4: 0x004D [0x00] END_REQSTACK()
```

### Event 65535.6

#### Metadata

| Field        | Value    |
|--------------|----------|
| Entrypoint   | 0x004E   |
| Data Size    | 37 bytes |
| Instructions | 5        |

```
      00 01 02 03 04 05 06 07  08 09 0A 0B 0C 0D 0E 0F
      -- -- -- -- -- -- -- --  -- -- -- -- -- -- -- --
0040:                                            03 00                ..
0050: 00 07 7F 1A AB 00 66 01  00 F8 FF FF 7F F8 FF FF  ......f.........
0060: 7F 73 68 61 31 53 F8 FF  FF 7F F8 FF FF 7F 73 68  .sha1S........sh
0070: 61 31 00                                          a1.             
```

#### Opcodes

```
  0: 0x004E [0x03] ExtData[1]->WorkLocal[0] = Entity->Race
  1: 0x0053 [0x1A] CALL_SUBROUTINE(address=0x00AB)
  2: 0x0056 [0x66] LOAD_EXT_SCHEDULER_MAIN: Load scheduler "sha1" with entities [EventEntity, EventEntity], work=ExtData[1]->WorkLocal[1]
  3: 0x0065 [0x53] WAIT_SCHEDULER_TASK: Wait for scheduler "sha1" with entities [EventEntity, EventEntity]
  4: 0x0072 [0x00] END_REQSTACK()
```

### Event 65535.7

#### Metadata

| Field        | Value   |
|--------------|---------|
| Entrypoint   | 0x0073  |
| Data Size    | 7 bytes |
| Instructions | 3       |

```
      00 01 02 03 04 05 06 07  08 09 0A 0B 0C 0D 0E 0F
      -- -- -- -- -- -- -- --  -- -- -- -- -- -- -- --
0070:          AB 03 AC 01 08  80 00                       .......      
```

#### Opcodes

```
  0: 0x0073 [0xAB] EventEntity->Render.Flags0 ^= 0x20000 // Toggle bit 17
  1: 0x0075 [0xAC] EventEntity->StatusEvent = 1*
  2: 0x0079 [0x00] END_REQSTACK()
```

### Event 65535.8

#### Metadata

| Field        | Value   |
|--------------|---------|
| Entrypoint   | 0x007A  |
| Data Size    | 7 bytes |
| Instructions | 3       |

```
      00 01 02 03 04 05 06 07  08 09 0A 0B 0C 0D 0E 0F
      -- -- -- -- -- -- -- --  -- -- -- -- -- -- -- --
0070:                                AC 01 09 80 AB 04            ......
0080: 00                                                .               
```

#### Opcodes

```
  0: 0x007A [0xAC] EventEntity->StatusEvent = 0*
  1: 0x007E [0xAB] EventEntity->Render.Flags0 |= 0x40000 // Set bit 18
  2: 0x0080 [0x00] END_REQSTACK()
```

### Event 65535.9

#### Metadata

| Field        | Value     |
|--------------|-----------|
| Entrypoint   | 0x0081    |
| Data Size    | 190 bytes |
| Instructions | 14        |

```
      00 01 02 03 04 05 06 07  08 09 0A 0B 0C 0D 0E 0F
      -- -- -- -- -- -- -- --  -- -- -- -- -- -- -- --
0080:    03 00 00 07 7F 1A D0  00 07 01 00 08 80 66 01   .............f.
0090: 00 F8 FF FF 7F F8 FF FF  7F 6C 6C 7A 30 53 F8 FF  .........llz0S..
00A0: FF 7F F8 FF FF 7F 6C 6C  7A 30 00 03 01 00 00 00  ......llz0......
00B0: 02 01 00 0A 80 05 C0 00  08 01 00 08 80 01 C5 00  ................
00C0: 08 01 00 0B 80 14 01 00  0C 80 07 01 00 0D 80 1B  ................
00D0: 03 01 00 00 00 02 01 00  0A 80 05 E5 00 08 01 00  ................
00E0: 08 80 01 EA 00 08 01 00  0B 80 14 01 00 0C 80 07  ................
00F0: 01 00 0E 80 1B 03 01 00  00 00 02 01 00 0A 80 05  ................
0100: 0A 01 08 01 00 08 80 01  0F 01 08 01 00 0B 80 14  ................
0110: 01 00 0C 80 07 01 00 0F  80 1B 03 01 00 00 00 02  ................
0120: 01 00 0A 80 05 2F 01 08  01 00 08 80 01 34 01 08  ...../.......4..
0130: 01 00 0B 80 14 01 00 0C  80 07 01 00 10 80 1B     ............... 
```

#### Opcodes

```
  0: 0x0081 [0x03] ExtData[1]->WorkLocal[0] = Entity->Race
  1: 0x0086 [0x1A] CALL_SUBROUTINE(address=0x00D0)
  2: 0x0089 [0x07] ExtData[1]->WorkLocal[1] += 1*
  3: 0x008E [0x66] LOAD_EXT_SCHEDULER_MAIN: Load scheduler "llz0" with entities [EventEntity, EventEntity], work=ExtData[1]->WorkLocal[1]
  4: 0x009D [0x53] WAIT_SCHEDULER_TASK: Wait for scheduler "llz0" with entities [EventEntity, EventEntity]
  5: 0x00AA [0x00] END_REQSTACK()

SUBROUTINE_00D0:
  6: 0x00D0 [0x03] ExtData[1]->WorkLocal[1] = ExtData[1]->WorkLocal[0]
  7: 0x00D5 [0x02] IF !(ExtData[1]->WorkLocal[1] > 5*) GOTO 0x00E5
  8: 0x00DD [0x08] ExtData[1]->WorkLocal[1] -= 1*
  9: 0x00E2 [0x01] GOTO 0x00EA
 10: 0x00E5 [0x08] ExtData[1]->WorkLocal[1] -= 2*

SUBROUTINE_00EA:
 11: 0x00EA [0x14] ExtData[1]->WorkLocal[1] *= 10*
 12: 0x00EF [0x07] ExtData[1]->WorkLocal[1] += 70*
 13: 0x00F4 [0x1B] RETURN
```

#### Data or dead code:

```
# Dead code (unreachable instructions):
     0x00AB [0x03] ExtData[1]->WorkLocal[1] = ExtData[1]->WorkLocal[0]
     0x00B0 [0x02] IF !(ExtData[1]->WorkLocal[1] > 5*) GOTO 0x00C0
     0x00B8 [0x08] ExtData[1]->WorkLocal[1] -= 1*
     0x00BD [0x01] GOTO 0x00C5
     0x00C0 [0x08] ExtData[1]->WorkLocal[1] -= 2*
     0x00C5 [0x14] ExtData[1]->WorkLocal[1] *= 10*
     0x00CA [0x07] ExtData[1]->WorkLocal[1] += 9*
     0x00CF [0x1B] RETURN
# Dead code (unreachable instructions):
     0x00F5 [0x03] ExtData[1]->WorkLocal[1] = ExtData[1]->WorkLocal[0]
     0x00FA [0x02] IF !(ExtData[1]->WorkLocal[1] > 5*) GOTO 0x010A
     0x0102 [0x08] ExtData[1]->WorkLocal[1] -= 1*
     0x0107 [0x01] GOTO 0x010F
     0x010A [0x08] ExtData[1]->WorkLocal[1] -= 2*
     0x010F [0x14] ExtData[1]->WorkLocal[1] *= 10*
     0x0114 [0x07] ExtData[1]->WorkLocal[1] += 140*
     0x0119 [0x1B] RETURN
     0x011A [0x03] ExtData[1]->WorkLocal[1] = ExtData[1]->WorkLocal[0]
     0x011F [0x02] IF !(ExtData[1]->WorkLocal[1] > 5*) GOTO 0x012F
     0x0127 [0x08] ExtData[1]->WorkLocal[1] -= 1*
     0x012C [0x01] GOTO 0x0134
     0x012F [0x08] ExtData[1]->WorkLocal[1] -= 2*
     0x0134 [0x14] ExtData[1]->WorkLocal[1] *= 10*
     0x0139 [0x07] ExtData[1]->WorkLocal[1] += 210*
     0x013E [0x1B] RETURN
```

### Event 65535.10

#### Metadata

| Field        | Value    |
|--------------|----------|
| Entrypoint   | 0x013F   |
| Data Size    | 24 bytes |
| Instructions | 4        |

```
      00 01 02 03 04 05 06 07  08 09 0A 0B 0C 0D 0E 0F
      -- -- -- -- -- -- -- --  -- -- -- -- -- -- -- --
0130:                                               03                 .
0140: 00 00 07 7F 1A AB 00 66  01 00 F8 FF FF 7F F8 FF  .......f........
0150: FF 7F 74 6C 6B 30 00                              ..tlk0.         
```

#### Opcodes

```
  0: 0x013F [0x03] ExtData[1]->WorkLocal[0] = Entity->Race
  1: 0x0144 [0x1A] CALL_SUBROUTINE(address=0x00AB)
  2: 0x0147 [0x66] LOAD_EXT_SCHEDULER_MAIN: Load scheduler "tlk0" with entities [EventEntity, EventEntity], work=ExtData[1]->WorkLocal[1]
  3: 0x0156 [0x00] END_REQSTACK()
```

### Event 65535.11

#### Metadata

| Field        | Value    |
|--------------|----------|
| Entrypoint   | 0x0157   |
| Data Size    | 24 bytes |
| Instructions | 4        |

```
      00 01 02 03 04 05 06 07  08 09 0A 0B 0C 0D 0E 0F
      -- -- -- -- -- -- -- --  -- -- -- -- -- -- -- --
0150:                      03  00 00 07 7F 1A AB 00 66         ........f
0160: 01 00 F8 FF FF 7F F8 FF  FF 7F 74 6C 6B 31 00     ..........tlk1. 
```

#### Opcodes

```
  0: 0x0157 [0x03] ExtData[1]->WorkLocal[0] = Entity->Race
  1: 0x015C [0x1A] CALL_SUBROUTINE(address=0x00AB)
  2: 0x015F [0x66] LOAD_EXT_SCHEDULER_MAIN: Load scheduler "tlk1" with entities [EventEntity, EventEntity], work=ExtData[1]->WorkLocal[1]
  3: 0x016E [0x00] END_REQSTACK()
```

### Event 65535.12

#### Metadata

| Field        | Value    |
|--------------|----------|
| Entrypoint   | 0x016F   |
| Data Size    | 38 bytes |
| Instructions | 5        |

```
      00 01 02 03 04 05 06 07  08 09 0A 0B 0C 0D 0E 0F
      -- -- -- -- -- -- -- --  -- -- -- -- -- -- -- --
0160:                                               22                 "
0170: 00 2F 00 F8 FF FF 7F B6  0B 11 80 12 80 13 80 14  ./..............
0180: 80 15 80 15 80 15 80 16  80 17 80 6C F8 FF FF 7F  ...........l....
0190: 18 80 08 80 00                                    .....           
```

#### Opcodes

```
  0: 0x016F [0x22] ENTITY_HIDE_FLAG(enabled=0x00)
  1: 0x0171 [0x2F] EventEntity->Render.Flags0 &= ~0x80000 // Bit 19
  2: 0x0177 [0xB6] ENTITY_APPEARANCE_HANDLER(case=Full entity look, race=8*, hair=7*, head=145*, body=79*, hands=76*, legs=76*, feet=76*, main=201*, sub=24*)
  3: 0x018B [0x6C] FADE_ENTITY_COLOR(entity_id=EventEntity, end_alpha=32*, fade_time=1*)
  4: 0x0194 [0x00] END_REQSTACK()
```

### Event 65535.13

#### Metadata

| Field        | Value    |
|--------------|----------|
| Entrypoint   | 0x0195   |
| Data Size    | 38 bytes |
| Instructions | 5        |

```
      00 01 02 03 04 05 06 07  08 09 0A 0B 0C 0D 0E 0F
      -- -- -- -- -- -- -- --  -- -- -- -- -- -- -- --
0190:                22 00 2F  00 F8 FF FF 7F B6 0B 12       "./........
01A0: 80 12 80 13 80 14 80 15  80 15 80 15 80 16 80 17  ................
01B0: 80 6C F8 FF FF 7F 19 80  08 80 00                 .l.........     
```

#### Opcodes

```
  0: 0x0195 [0x22] ENTITY_HIDE_FLAG(enabled=0x00)
  1: 0x0197 [0x2F] EventEntity->Render.Flags0 &= ~0x80000 // Bit 19
  2: 0x019D [0xB6] ENTITY_APPEARANCE_HANDLER(case=Full entity look, race=7*, hair=7*, head=145*, body=79*, hands=76*, legs=76*, feet=76*, main=201*, sub=24*)
  3: 0x01B1 [0x6C] FADE_ENTITY_COLOR(entity_id=EventEntity, end_alpha=48*, fade_time=1*)
  4: 0x01BA [0x00] END_REQSTACK()
```

### Event 65535.14

#### Metadata

| Field        | Value    |
|--------------|----------|
| Entrypoint   | 0x01BB   |
| Data Size    | 38 bytes |
| Instructions | 5        |

```
      00 01 02 03 04 05 06 07  08 09 0A 0B 0C 0D 0E 0F
      -- -- -- -- -- -- -- --  -- -- -- -- -- -- -- --
01B0:                                   22 00 2F 00 F8             "./..
01C0: FF FF 7F B6 0B 0A 80 12  80 13 80 14 80 15 80 15  ................
01D0: 80 15 80 16 80 17 80 6C  F8 FF FF 7F 1A 80 08 80  .......l........
01E0: 00                                                .               
```

#### Opcodes

```
  0: 0x01BB [0x22] ENTITY_HIDE_FLAG(enabled=0x00)
  1: 0x01BD [0x2F] EventEntity->Render.Flags0 &= ~0x80000 // Bit 19
  2: 0x01C3 [0xB6] ENTITY_APPEARANCE_HANDLER(case=Full entity look, race=5*, hair=7*, head=145*, body=79*, hands=76*, legs=76*, feet=76*, main=201*, sub=24*)
  3: 0x01D7 [0x6C] FADE_ENTITY_COLOR(entity_id=EventEntity, end_alpha=64*, fade_time=1*)
  4: 0x01E0 [0x00] END_REQSTACK()
```

### Event 65535.15

#### Metadata

| Field        | Value    |
|--------------|----------|
| Entrypoint   | 0x01E1   |
| Data Size    | 37 bytes |
| Instructions | 5        |

```
      00 01 02 03 04 05 06 07  08 09 0A 0B 0C 0D 0E 0F
      -- -- -- -- -- -- -- --  -- -- -- -- -- -- -- --
01E0:    03 00 00 07 7F 1A AB  00 66 01 00 F8 FF FF 7F   ........f......
01F0: F8 FF FF 7F 73 69 74 30  53 F8 FF FF 7F F8 FF FF  ....sit0S.......
0200: 7F 73 69 74 30 00                                 .sit0.          
```

#### Opcodes

```
  0: 0x01E1 [0x03] ExtData[1]->WorkLocal[0] = Entity->Race
  1: 0x01E6 [0x1A] CALL_SUBROUTINE(address=0x00AB)
  2: 0x01E9 [0x66] LOAD_EXT_SCHEDULER_MAIN: Load scheduler "sit0" with entities [EventEntity, EventEntity], work=ExtData[1]->WorkLocal[1]
  3: 0x01F8 [0x53] WAIT_SCHEDULER_TASK: Wait for scheduler "sit0" with entities [EventEntity, EventEntity]
  4: 0x0205 [0x00] END_REQSTACK()
```

### Event 65535.16

#### Metadata

| Field        | Value    |
|--------------|----------|
| Entrypoint   | 0x0206   |
| Data Size    | 37 bytes |
| Instructions | 5        |

```
      00 01 02 03 04 05 06 07  08 09 0A 0B 0C 0D 0E 0F
      -- -- -- -- -- -- -- --  -- -- -- -- -- -- -- --
0200:                   03 00  00 07 7F 1A AB 00 66 01        ........f.
0210: 00 F8 FF FF 7F F8 FF FF  7F 73 69 74 31 53 F8 FF  .........sit1S..
0220: FF 7F F8 FF FF 7F 73 69  74 31 00                 ......sit1.     
```

#### Opcodes

```
  0: 0x0206 [0x03] ExtData[1]->WorkLocal[0] = Entity->Race
  1: 0x020B [0x1A] CALL_SUBROUTINE(address=0x00AB)
  2: 0x020E [0x66] LOAD_EXT_SCHEDULER_MAIN: Load scheduler "sit1" with entities [EventEntity, EventEntity], work=ExtData[1]->WorkLocal[1]
  3: 0x021D [0x53] WAIT_SCHEDULER_TASK: Wait for scheduler "sit1" with entities [EventEntity, EventEntity]
  4: 0x022A [0x00] END_REQSTACK()
```

### Event 65535.17

#### Metadata

| Field        | Value    |
|--------------|----------|
| Entrypoint   | 0x022B   |
| Data Size    | 42 bytes |
| Instructions | 6        |

```
      00 01 02 03 04 05 06 07  08 09 0A 0B 0C 0D 0E 0F
      -- -- -- -- -- -- -- --  -- -- -- -- -- -- -- --
0220:                                   03 00 00 07 7F             .....
0230: 1A AB 00 66 01 00 F8 FF  FF 7F F8 FF FF 7F 74 6C  ...f..........tl
0240: 6B 30 1C 1B 80 66 01 00  F8 FF FF 7F F8 FF FF 7F  k0...f..........
0250: 74 6C 6B 31 00                                    tlk1.           
```

#### Opcodes

```
  0: 0x022B [0x03] ExtData[1]->WorkLocal[0] = Entity->Race
  1: 0x0230 [0x1A] CALL_SUBROUTINE(address=0x00AB)
  2: 0x0233 [0x66] LOAD_EXT_SCHEDULER_MAIN: Load scheduler "tlk0" with entities [EventEntity, EventEntity], work=ExtData[1]->WorkLocal[1]
  3: 0x0242 [0x1C] WAIT(60* ticks)
  4: 0x0245 [0x66] LOAD_EXT_SCHEDULER_MAIN: Load scheduler "tlk1" with entities [EventEntity, EventEntity], work=ExtData[1]->WorkLocal[1]
  5: 0x0254 [0x00] END_REQSTACK()
```

### Event 65535.18

#### Metadata

| Field        | Value    |
|--------------|----------|
| Entrypoint   | 0x0255   |
| Data Size    | 23 bytes |
| Instructions | 7        |

```
      00 01 02 03 04 05 06 07  08 09 0A 0B 0C 0D 0E 0F
      -- -- -- -- -- -- -- --  -- -- -- -- -- -- -- --
0250:                1C 0C 80  32 1C 80 1F 00 1D 80 1E       ...2.......
0260: 80 1F 80 1F 01 6F 1E 5D  93 08 01 00              .....o.]....    
```

#### Opcodes

```
  0: 0x0255 [0x1C] WAIT(10* ticks)
  1: 0x0258 [0x32] ExtData[1]->MainSpeed = 39* * 0.1
  2: 0x025B [0x1F] MOVE_ENTITY: EventEntity moves to X=-113.087*, Z=-37.551*, Y=-23.872*
  3: 0x0263 [0x1F] MOVE_ENTITY: Update entity position (mode=1)
  4: 0x0265 [0x6F] WAIT_FRAME_DELAY: Yield until WaitTime reaches zero
  5: 0x0266 [0x1E] EventEntity looks at Mayakov (ID: 17339229/0x0108935D) and starts talking
  6: 0x026B [0x00] END_REQSTACK()
```

### Event 65535.19

#### Metadata

| Field        | Value    |
|--------------|----------|
| Entrypoint   | 0x026C   |
| Data Size    | 18 bytes |
| Instructions | 6        |

```
      00 01 02 03 04 05 06 07  08 09 0A 0B 0C 0D 0E 0F
      -- -- -- -- -- -- -- --  -- -- -- -- -- -- -- --
0260:                                      32 20 80 1F              2 ..
0270: 00 21 80 22 80 23 80 1F  01 6F 32 24 80 00        .!.".#...o2$..  
```

#### Opcodes

```
  0: 0x026C [0x32] ExtData[1]->MainSpeed = 11* * 0.1
  1: 0x026F [0x1F] MOVE_ENTITY: EventEntity moves to X=-113.695*, Z=-39.074*, Y=-23.885*
  2: 0x0277 [0x1F] MOVE_ENTITY: Update entity position (mode=1)
  3: 0x0279 [0x6F] WAIT_FRAME_DELAY: Yield until WaitTime reaches zero
  4: 0x027A [0x32] ExtData[1]->MainSpeed = 40* * 0.1
  5: 0x027D [0x00] END_REQSTACK()
```

### Event 65535.20

#### Metadata

| Field        | Value    |
|--------------|----------|
| Entrypoint   | 0x027E   |
| Data Size    | 18 bytes |
| Instructions | 6        |

```
      00 01 02 03 04 05 06 07  08 09 0A 0B 0C 0D 0E 0F
      -- -- -- -- -- -- -- --  -- -- -- -- -- -- -- --
0270:                                            32 25                2%
0280: 80 1F 00 26 80 27 80 28  80 1F 01 6F 32 24 80 00  ...&.'.(...o2$..
```

#### Opcodes

```
  0: 0x027E [0x32] ExtData[1]->MainSpeed = 38* * 0.1
  1: 0x0281 [0x1F] MOVE_ENTITY: EventEntity moves to X=-100.780*, Z=-46.492*, Y=-23.748*
  2: 0x0289 [0x1F] MOVE_ENTITY: Update entity position (mode=1)
  3: 0x028B [0x6F] WAIT_FRAME_DELAY: Yield until WaitTime reaches zero
  4: 0x028C [0x32] ExtData[1]->MainSpeed = 40* * 0.1
  5: 0x028F [0x00] END_REQSTACK()
```

### Event 65535.21

#### Metadata

| Field        | Value    |
|--------------|----------|
| Entrypoint   | 0x0290   |
| Data Size    | 42 bytes |
| Instructions | 6        |

```
      00 01 02 03 04 05 06 07  08 09 0A 0B 0C 0D 0E 0F
      -- -- -- -- -- -- -- --  -- -- -- -- -- -- -- --
0290: 03 00 00 07 7F 1A D0 00  07 01 00 08 80 66 01 00  .............f..
02A0: F8 FF FF 7F F8 FF FF 7F  70 61 73 30 53 F8 FF FF  ........pas0S...
02B0: 7F F8 FF FF 7F 70 61 73  30 00                    .....pas0.      
```

#### Opcodes

```
  0: 0x0290 [0x03] ExtData[1]->WorkLocal[0] = Entity->Race
  1: 0x0295 [0x1A] CALL_SUBROUTINE(address=0x00D0)
  2: 0x0298 [0x07] ExtData[1]->WorkLocal[1] += 1*
  3: 0x029D [0x66] LOAD_EXT_SCHEDULER_MAIN: Load scheduler "pas0" with entities [EventEntity, EventEntity], work=ExtData[1]->WorkLocal[1]
  4: 0x02AC [0x53] WAIT_SCHEDULER_TASK: Wait for scheduler "pas0" with entities [EventEntity, EventEntity]
  5: 0x02B9 [0x00] END_REQSTACK()
```

### Event 65535.22

#### Metadata

| Field        | Value    |
|--------------|----------|
| Entrypoint   | 0x02BA   |
| Data Size    | 23 bytes |
| Instructions | 7        |

```
      00 01 02 03 04 05 06 07  08 09 0A 0B 0C 0D 0E 0F
      -- -- -- -- -- -- -- --  -- -- -- -- -- -- -- --
02B0:                                1C 0C 80 32 1C 80            ...2..
02C0: 1F 00 1D 80 1E 80 1F 80  1F 01 6F 1E EA 92 08 01  ..........o.....
02D0: 00                                                .               
```

#### Opcodes

```
  0: 0x02BA [0x1C] WAIT(10* ticks)
  1: 0x02BD [0x32] ExtData[1]->MainSpeed = 39* * 0.1
  2: 0x02C0 [0x1F] MOVE_ENTITY: EventEntity moves to X=-113.087*, Z=-37.551*, Y=-23.872*
  3: 0x02C8 [0x1F] MOVE_ENTITY: Update entity position (mode=1)
  4: 0x02CA [0x6F] WAIT_FRAME_DELAY: Yield until WaitTime reaches zero
  5: 0x02CB [0x1E] EventEntity looks at kisi01 (ID: 17339114/0x010892EA) and starts talking
  6: 0x02D0 [0x00] END_REQSTACK()
```

### Event 65535.23

#### Metadata

| Field        | Value    |
|--------------|----------|
| Entrypoint   | 0x02D1   |
| Data Size    | 22 bytes |
| Instructions | 6        |

```
      00 01 02 03 04 05 06 07  08 09 0A 0B 0C 0D 0E 0F
      -- -- -- -- -- -- -- --  -- -- -- -- -- -- -- --
02D0:    32 24 80 1F 00 29 80  2A 80 2B 80 1F 01 1E AC   2$...).*.+.....
02E0: 92 08 01 1C 2C 80 00                              ....,..         
```

#### Opcodes

```
  0: 0x02D1 [0x32] ExtData[1]->MainSpeed = 40* * 0.1
  1: 0x02D4 [0x1F] MOVE_ENTITY: EventEntity moves to X=-253.913*, Z=-15.954*, Y=-0.647*
  2: 0x02DC [0x1F] MOVE_ENTITY: Update entity position (mode=1)
  3: 0x02DE [0x1E] EventEntity looks at Zeid (ID: 17339052/0x010892AC) and starts talking
  4: 0x02E3 [0x1C] WAIT(30* ticks)
  5: 0x02E6 [0x00] END_REQSTACK()
```

### Event 65535.24

#### Metadata

| Field        | Value    |
|--------------|----------|
| Entrypoint   | 0x02E7   |
| Data Size    | 22 bytes |
| Instructions | 6        |

```
      00 01 02 03 04 05 06 07  08 09 0A 0B 0C 0D 0E 0F
      -- -- -- -- -- -- -- --  -- -- -- -- -- -- -- --
02E0:                      32  24 80 1F 00 2D 80 2E 80         2$...-...
02F0: 2F 80 1F 01 1E A2 92 08  01 1C 2C 80 00           /.........,..   
```

#### Opcodes

```
  0: 0x02E7 [0x32] ExtData[1]->MainSpeed = 40* * 0.1
  1: 0x02EA [0x1F] MOVE_ENTITY: EventEntity moves to X=-258.625*, Z=-10.868*, Y=-0.295*
  2: 0x02F2 [0x1F] MOVE_ENTITY: Update entity position (mode=1)
  3: 0x02F4 [0x1E] EventEntity looks at ??? (ID: 17339042/0x010892A2) and starts talking
  4: 0x02F9 [0x1C] WAIT(30* ticks)
  5: 0x02FC [0x00] END_REQSTACK()
```

### Event 65535.25

#### Metadata

| Field        | Value    |
|--------------|----------|
| Entrypoint   | 0x02FD   |
| Data Size    | 14 bytes |
| Instructions | 4        |

```
      00 01 02 03 04 05 06 07  08 09 0A 0B 0C 0D 0E 0F
      -- -- -- -- -- -- -- --  -- -- -- -- -- -- -- --
02F0:                                         32 24 80               2$.
0300: 1F 00 30 80 31 80 32 80  1F 01 00                 ..0.1.2....     
```

#### Opcodes

```
  0: 0x02FD [0x32] ExtData[1]->MainSpeed = 40* * 0.1
  1: 0x0300 [0x1F] MOVE_ENTITY: EventEntity moves to X=147.635*, Z=-59.909*, Y=1.000*
  2: 0x0308 [0x1F] MOVE_ENTITY: Update entity position (mode=1)
  3: 0x030A [0x00] END_REQSTACK()
```

### Event 65535.26

#### Metadata

| Field        | Value    |
|--------------|----------|
| Entrypoint   | 0x030B   |
| Data Size    | 41 bytes |
| Instructions | 9        |

```
      00 01 02 03 04 05 06 07  08 09 0A 0B 0C 0D 0E 0F
      -- -- -- -- -- -- -- --  -- -- -- -- -- -- -- --
0300:                                   32 24 80 1F 00             2$...
0310: 33 80 34 80 35 80 1F 01  6F 79 00 F0 FF FF 7F 50  3.4.5...oy.....P
0320: 93 08 01 1C 1B 80 79 00  F0 FF FF 7F 4F 93 08 01  ......y.....O...
0330: 1C 1B 80 00                                       ....            
```

#### Opcodes

```
  0: 0x030B [0x32] ExtData[1]->MainSpeed = 40* * 0.1
  1: 0x030E [0x1F] MOVE_ENTITY: EventEntity moves to X=-92.322*, Z=-41.335*, Y=-23.573*
  2: 0x0316 [0x1F] MOVE_ENTITY: Update entity position (mode=1)
  3: 0x0318 [0x6F] WAIT_FRAME_DELAY: Yield until WaitTime reaches zero
  4: 0x0319 [0x79] LocalPlayer looks at Unnamed NPC (ID: 17339216/0x01089350) (Basic look)
  5: 0x0323 [0x1C] WAIT(60* ticks)
  6: 0x0326 [0x79] LocalPlayer looks at Unnamed NPC (ID: 17339215/0x0108934F) (Basic look)
  7: 0x0330 [0x1C] WAIT(60* ticks)
  8: 0x0333 [0x00] END_REQSTACK()
```

### Event 65535.27

#### Metadata

| Field        | Value    |
|--------------|----------|
| Entrypoint   | 0x0334   |
| Data Size    | 19 bytes |
| Instructions | 5        |

```
      00 01 02 03 04 05 06 07  08 09 0A 0B 0C 0D 0E 0F
      -- -- -- -- -- -- -- --  -- -- -- -- -- -- -- --
0330:             32 24 80 1F  00 36 80 37 80 38 80 1F      2$...6.7.8..
0340: 01 1E 4F 93 08 01 00                              ..O....         
```

#### Opcodes

```
  0: 0x0334 [0x32] ExtData[1]->MainSpeed = 40* * 0.1
  1: 0x0337 [0x1F] MOVE_ENTITY: EventEntity moves to X=-115.683*, Z=-33.884*, Y=-23.730*
  2: 0x033F [0x1F] MOVE_ENTITY: Update entity position (mode=1)
  3: 0x0341 [0x1E] EventEntity looks at Unnamed NPC (ID: 17339215/0x0108934F) and starts talking
  4: 0x0346 [0x00] END_REQSTACK()
```

### Event 65535.28

#### Metadata

| Field        | Value    |
|--------------|----------|
| Entrypoint   | 0x0347   |
| Data Size    | 11 bytes |
| Instructions | 3        |

```
      00 01 02 03 04 05 06 07  08 09 0A 0B 0C 0D 0E 0F
      -- -- -- -- -- -- -- --  -- -- -- -- -- -- -- --
0340:                      1F  00 39 80 3A 80 3B 80 1F         ..9.:.;..
0350: 01 00                                             ..              
```

#### Opcodes

```
  0: 0x0347 [0x1F] MOVE_ENTITY: EventEntity moves to X=377.067*, Z=76.622*, Y=29.757*
  1: 0x034F [0x1F] MOVE_ENTITY: Update entity position (mode=1)
  2: 0x0351 [0x00] END_REQSTACK()
```

### Event 65535.29

#### Metadata

| Field        | Value    |
|--------------|----------|
| Entrypoint   | 0x0352   |
| Data Size    | 11 bytes |
| Instructions | 3        |

```
      00 01 02 03 04 05 06 07  08 09 0A 0B 0C 0D 0E 0F
      -- -- -- -- -- -- -- --  -- -- -- -- -- -- -- --
0350:       1F 00 3C 80 3D 80  3E 80 1F 01 00             ..<.=.>....   
```

#### Opcodes

```
  0: 0x0352 [0x1F] MOVE_ENTITY: EventEntity moves to X=369.096*, Z=48.152*, Y=29.999*
  1: 0x035A [0x1F] MOVE_ENTITY: Update entity position (mode=1)
  2: 0x035C [0x00] END_REQSTACK()
```

### Event 65535.30

#### Metadata

| Field        | Value    |
|--------------|----------|
| Entrypoint   | 0x035D   |
| Data Size    | 11 bytes |
| Instructions | 3        |

```
      00 01 02 03 04 05 06 07  08 09 0A 0B 0C 0D 0E 0F
      -- -- -- -- -- -- -- --  -- -- -- -- -- -- -- --
0350:                                         1F 00 3F               ..?
0360: 80 40 80 09 80 1F 01 00                           .@......        
```

#### Opcodes

```
  0: 0x035D [0x1F] MOVE_ENTITY: EventEntity moves to X=49.912*, Z=276.072*, Y=0.000*
  1: 0x0365 [0x1F] MOVE_ENTITY: Update entity position (mode=1)
  2: 0x0367 [0x00] END_REQSTACK()
```

### Event 65535.31

#### Metadata

| Field        | Value    |
|--------------|----------|
| Entrypoint   | 0x0368   |
| Data Size    | 11 bytes |
| Instructions | 3        |

```
      00 01 02 03 04 05 06 07  08 09 0A 0B 0C 0D 0E 0F
      -- -- -- -- -- -- -- --  -- -- -- -- -- -- -- --
0360:                          1F 00 41 80 42 80 43 80          ..A.B.C.
0370: 1F 01 00                                          ...             
```

#### Opcodes

```
  0: 0x0368 [0x1F] MOVE_ENTITY: EventEntity moves to X=34.361*, Z=313.033*, Y=-0.365*
  1: 0x0370 [0x1F] MOVE_ENTITY: Update entity position (mode=1)
  2: 0x0372 [0x00] END_REQSTACK()
```

### Event 65535.32

#### Metadata

| Field        | Value    |
|--------------|----------|
| Entrypoint   | 0x0373   |
| Data Size    | 34 bytes |
| Instructions | 8        |

```
      00 01 02 03 04 05 06 07  08 09 0A 0B 0C 0D 0E 0F
      -- -- -- -- -- -- -- --  -- -- -- -- -- -- -- --
0370:          1F 00 44 80 45  80 46 80 1F 01 6F 4A F0     ..D.E.F...oJ.
0380: FF FF 7F D9 92 08 01 6F  76 F0 FF FF 7F 27 10 F0  .......ov....'..
0390: FF FF 7F 08 00                                    .....           
```

#### Opcodes

```
  0: 0x0373 [0x1F] MOVE_ENTITY: EventEntity moves to X=44.456*, Z=322.758*, Y=-0.120*
  1: 0x037B [0x1F] MOVE_ENTITY: Update entity position (mode=1)
  2: 0x037D [0x6F] WAIT_FRAME_DELAY: Yield until WaitTime reaches zero
  3: 0x037E [0x4A] LocalPlayer looks at Kingslayer Doggvdegg (ID: 17339097/0x010892D9)
  4: 0x0387 [0x6F] WAIT_FRAME_DELAY: Yield until WaitTime reaches zero
  5: 0x0388 [0x76] CHECK_ENTITY_RENDER_FLAGS: Wait until LocalPlayer Render.Flags0 and Render.Flags3 conditions are met
  6: 0x038D [0x27] REQ_SET(priority=0x10, entity_id=LocalPlayer, tag_num=0x08)
  7: 0x0394 [0x00] END_REQSTACK()
```

### Event 65535.33

#### Metadata

| Field        | Value    |
|--------------|----------|
| Entrypoint   | 0x0395   |
| Data Size    | 21 bytes |
| Instructions | 5        |

```
      00 01 02 03 04 05 06 07  08 09 0A 0B 0C 0D 0E 0F
      -- -- -- -- -- -- -- --  -- -- -- -- -- -- -- --
0390:                1F 00 47  80 48 80 09 80 1F 01 6F       ..G.H.....o
03A0: 4A F0 FF FF 7F D8 92 08  01 00                    J.........      
```

#### Opcodes

```
  0: 0x0395 [0x1F] MOVE_ENTITY: EventEntity moves to X=60.170*, Z=299.215*, Y=0.000*
  1: 0x039D [0x1F] MOVE_ENTITY: Update entity position (mode=1)
  2: 0x039F [0x6F] WAIT_FRAME_DELAY: Yield until WaitTime reaches zero
  3: 0x03A0 [0x4A] LocalPlayer looks at Jayramus (ID: 17339096/0x010892D8)
  4: 0x03A9 [0x00] END_REQSTACK()
```

### Event 65535.34

#### Metadata

| Field        | Value    |
|--------------|----------|
| Entrypoint   | 0x03AA   |
| Data Size    | 12 bytes |
| Instructions | 4        |

```
      00 01 02 03 04 05 06 07  08 09 0A 0B 0C 0D 0E 0F
      -- -- -- -- -- -- -- --  -- -- -- -- -- -- -- --
03A0:                                1F 00 49 80 4A 80            ..I.J.
03B0: 4B 80 1F 01 6F 00                                 K...o.          
```

#### Opcodes

```
  0: 0x03AA [0x1F] MOVE_ENTITY: EventEntity moves to X=218.809*, Z=140.408*, Y=-25.272*
  1: 0x03B2 [0x1F] MOVE_ENTITY: Update entity position (mode=1)
  2: 0x03B4 [0x6F] WAIT_FRAME_DELAY: Yield until WaitTime reaches zero
  3: 0x03B5 [0x00] END_REQSTACK()
```

### Event 65535.35

#### Metadata

| Field        | Value    |
|--------------|----------|
| Entrypoint   | 0x03B6   |
| Data Size    | 23 bytes |
| Instructions | 7        |

```
      00 01 02 03 04 05 06 07  08 09 0A 0B 0C 0D 0E 0F
      -- -- -- -- -- -- -- --  -- -- -- -- -- -- -- --
03B0:                   1F 00  4C 80 4D 80 4E 80 1F 01        ..L.M.N...
03C0: 6F 1E C4 92 08 01 6F 76  F0 FF FF 7F 00           o.....ov.....   
```

#### Opcodes

```
  0: 0x03B6 [0x1F] MOVE_ENTITY: EventEntity moves to X=216.087*, Z=156.120*, Y=-27.199*
  1: 0x03BE [0x1F] MOVE_ENTITY: Update entity position (mode=1)
  2: 0x03C0 [0x6F] WAIT_FRAME_DELAY: Yield until WaitTime reaches zero
  3: 0x03C1 [0x1E] EventEntity looks at Enguerrand (ID: 17339076/0x010892C4) and starts talking
  4: 0x03C6 [0x6F] WAIT_FRAME_DELAY: Yield until WaitTime reaches zero
  5: 0x03C7 [0x76] CHECK_ENTITY_RENDER_FLAGS: Wait until LocalPlayer Render.Flags0 and Render.Flags3 conditions are met
  6: 0x03CC [0x00] END_REQSTACK()
```

### Event 65535.36

#### Metadata

| Field        | Value    |
|--------------|----------|
| Entrypoint   | 0x03CD   |
| Data Size    | 12 bytes |
| Instructions | 4        |

```
      00 01 02 03 04 05 06 07  08 09 0A 0B 0C 0D 0E 0F
      -- -- -- -- -- -- -- --  -- -- -- -- -- -- -- --
03C0:                                         1F 00 4F               ..O
03D0: 80 50 80 51 80 1F 01 6F  00                       .P.Q...o.       
```

#### Opcodes

```
  0: 0x03CD [0x1F] MOVE_ENTITY: EventEntity moves to X=204.923*, Z=164.559*, Y=-28.028*
  1: 0x03D5 [0x1F] MOVE_ENTITY: Update entity position (mode=1)
  2: 0x03D7 [0x6F] WAIT_FRAME_DELAY: Yield until WaitTime reaches zero
  3: 0x03D8 [0x00] END_REQSTACK()
```

### Event 65535.37

#### Metadata

| Field        | Value    |
|--------------|----------|
| Entrypoint   | 0x03D9   |
| Data Size    | 19 bytes |
| Instructions | 5        |

```
      00 01 02 03 04 05 06 07  08 09 0A 0B 0C 0D 0E 0F
      -- -- -- -- -- -- -- --  -- -- -- -- -- -- -- --
03D0:                             1F 00 52 80 53 80 54           ..R.S.T
03E0: 80 1F 01 6F 4B F0 FF FF  7F 55 80 00              ...oK....U..    
```

#### Opcodes

```
  0: 0x03D9 [0x1F] MOVE_ENTITY: EventEntity moves to X=186.932*, Z=167.754*, Y=-27.966*
  1: 0x03E1 [0x1F] MOVE_ENTITY: Update entity position (mode=1)
  2: 0x03E3 [0x6F] WAIT_FRAME_DELAY: Yield until WaitTime reaches zero
  3: 0x03E4 [0x4B] UPDATE_ENTITY_YAW(entity=LocalPlayer, yaw=8.4°*)
  4: 0x03EB [0x00] END_REQSTACK()
```

### Event 65535.38

#### Metadata

| Field        | Value    |
|--------------|----------|
| Entrypoint   | 0x03EC   |
| Data Size    | 32 bytes |
| Instructions | 8        |

```
      00 01 02 03 04 05 06 07  08 09 0A 0B 0C 0D 0E 0F
      -- -- -- -- -- -- -- --  -- -- -- -- -- -- -- --
03E0:                                      1F 00 56 80              ..V.
03F0: 57 80 58 80 1F 01 6F 4B  F0 FF FF 7F 59 80 6F 76  W.X...oK....Y.ov
0400: F0 FF FF 7F 27 0F F0 FF  FF 7F 06 00              ....'.......    
```

#### Opcodes

```
  0: 0x03EC [0x1F] MOVE_ENTITY: EventEntity moves to X=182.894*, Z=162.507*, Y=-27.145*
  1: 0x03F4 [0x1F] MOVE_ENTITY: Update entity position (mode=1)
  2: 0x03F6 [0x6F] WAIT_FRAME_DELAY: Yield until WaitTime reaches zero
  3: 0x03F7 [0x4B] UPDATE_ENTITY_YAW(entity=LocalPlayer, yaw=0.5°*)
  4: 0x03FE [0x6F] WAIT_FRAME_DELAY: Yield until WaitTime reaches zero
  5: 0x03FF [0x76] CHECK_ENTITY_RENDER_FLAGS: Wait until LocalPlayer Render.Flags0 and Render.Flags3 conditions are met
  6: 0x0404 [0x27] REQ_SET(priority=0x0F, entity_id=LocalPlayer, tag_num=0x06)
  7: 0x040B [0x00] END_REQSTACK()
```

### Event 65535.39

#### Metadata

| Field        | Value    |
|--------------|----------|
| Entrypoint   | 0x040C   |
| Data Size    | 46 bytes |
| Instructions | 6        |

```
      00 01 02 03 04 05 06 07  08 09 0A 0B 0C 0D 0E 0F
      -- -- -- -- -- -- -- --  -- -- -- -- -- -- -- --
0400:                                      C5 5A 80 F0              .Z..
0410: FF FF 7F F0 FF FF 7F 73  30 30 30 09 80 1F 00 5B  .......s000....[
0420: 80 5C 80 5D 80 1F 01 6F  C5 5A 80 F0 FF FF 7F F0  .\.]...o.Z......
0430: FF FF 7F 73 74 30 30 09  80 00                    ...st00...      
```

#### Opcodes

```
  0: 0x040C [0xC5] LOAD_SCHEDULED_TASK_ALT3: Load scheduler 0x80093030 for entities [LocalPlayer, LocalPlayer], work=144*, param=12403
  1: 0x041D [0x1F] MOVE_ENTITY: EventEntity moves to X=245.986*, Z=-147.745*, Y=-14.901*
  2: 0x0425 [0x1F] MOVE_ENTITY: Update entity position (mode=1)
  3: 0x0427 [0x6F] WAIT_FRAME_DELAY: Yield until WaitTime reaches zero
  4: 0x0428 [0xC5] LOAD_SCHEDULED_TASK_ALT3: Load scheduler 0x80093030 for entities [LocalPlayer, LocalPlayer], work=144*, param=29811
  5: 0x0439 [0x00] END_REQSTACK()
```

### Event 65535.40

#### Metadata

| Field        | Value    |
|--------------|----------|
| Entrypoint   | 0x043A   |
| Data Size    | 46 bytes |
| Instructions | 6        |

```
      00 01 02 03 04 05 06 07  08 09 0A 0B 0C 0D 0E 0F
      -- -- -- -- -- -- -- --  -- -- -- -- -- -- -- --
0430:                                C5 5A 80 F0 FF FF            .Z....
0440: 7F F0 FF FF 7F 73 30 30  30 09 80 1F 00 5E 80 5F  .....s000....^._
0450: 80 60 80 1F 01 6F C5 5A  80 F0 FF FF 7F F0 FF FF  .`...o.Z........
0460: 7F 73 74 30 30 09 80 00                           .st00...        
```

#### Opcodes

```
  0: 0x043A [0xC5] LOAD_SCHEDULED_TASK_ALT3: Load scheduler 0x80093030 for entities [LocalPlayer, LocalPlayer], work=144*, param=12403
  1: 0x044B [0x1F] MOVE_ENTITY: EventEntity moves to X=248.920*, Z=-130.485*, Y=-16.688*
  2: 0x0453 [0x1F] MOVE_ENTITY: Update entity position (mode=1)
  3: 0x0455 [0x6F] WAIT_FRAME_DELAY: Yield until WaitTime reaches zero
  4: 0x0456 [0xC5] LOAD_SCHEDULED_TASK_ALT3: Load scheduler 0x80093030 for entities [LocalPlayer, LocalPlayer], work=144*, param=29811
  5: 0x0467 [0x00] END_REQSTACK()
```

### Event 65535.41

#### Metadata

| Field        | Value    |
|--------------|----------|
| Entrypoint   | 0x0468   |
| Data Size    | 16 bytes |
| Instructions | 3        |

```
      00 01 02 03 04 05 06 07  08 09 0A 0B 0C 0D 0E 0F
      -- -- -- -- -- -- -- --  -- -- -- -- -- -- -- --
0460:                          6C F0 FF FF 7F 09 80 08          l.......
0470: 80 92 01 F0 FF FF 7F 00                           ........        
```

#### Opcodes

```
  0: 0x0468 [0x6C] FADE_ENTITY_COLOR(entity_id=LocalPlayer, end_alpha=0*, fade_time=1*)
  1: 0x0471 [0x92] LocalPlayer->Render.Flags3 ^= 0x01
  2: 0x0477 [0x00] END_REQSTACK()
```

### Event 65535.42

#### Metadata

| Field        | Value    |
|--------------|----------|
| Entrypoint   | 0x0478   |
| Data Size    | 16 bytes |
| Instructions | 3        |

```
      00 01 02 03 04 05 06 07  08 09 0A 0B 0C 0D 0E 0F
      -- -- -- -- -- -- -- --  -- -- -- -- -- -- -- --
0470:                          6C F0 FF FF 7F 61 80 08          l....a..
0480: 80 92 00 F0 FF FF 7F 00                           ........        
```

#### Opcodes

```
  0: 0x0478 [0x6C] FADE_ENTITY_COLOR(entity_id=LocalPlayer, end_alpha=128*, fade_time=1*)
  1: 0x0481 [0x92] LocalPlayer->Render.Flags3 = Flags3  // No change (flag=0)
  2: 0x0487 [0x00] END_REQSTACK()
```

### Event 65535.43

#### Metadata

| Field        | Value    |
|--------------|----------|
| Entrypoint   | 0x0488   |
| Data Size    | 33 bytes |
| Instructions | 9        |

```
      00 01 02 03 04 05 06 07  08 09 0A 0B 0C 0D 0E 0F
      -- -- -- -- -- -- -- --  -- -- -- -- -- -- -- --
0480:                          32 24 80 1F 00 62 80 63          2$...b.c
0490: 80 64 80 1F 01 32 04 80  1F 00 65 80 66 80 67 80  .d...2....e.f.g.
04A0: 1F 01 6F 1E E1 92 08 01  00                       ..o......       
```

#### Opcodes

```
  0: 0x0488 [0x32] ExtData[1]->MainSpeed = 40* * 0.1
  1: 0x048B [0x1F] MOVE_ENTITY: EventEntity moves to X=339.170*, Z=-332.506*, Y=0.135*
  2: 0x0493 [0x1F] MOVE_ENTITY: Update entity position (mode=1)
  3: 0x0495 [0x32] ExtData[1]->MainSpeed = 13* * 0.1
  4: 0x0498 [0x1F] MOVE_ENTITY: EventEntity moves to X=339.183*, Z=-334.191*, Y=0.137*
  5: 0x04A0 [0x1F] MOVE_ENTITY: Update entity position (mode=1)
  6: 0x04A2 [0x6F] WAIT_FRAME_DELAY: Yield until WaitTime reaches zero
  7: 0x04A3 [0x1E] EventEntity looks at Alainasion (ID: 17339105/0x010892E1) and starts talking
  8: 0x04A8 [0x00] END_REQSTACK()
```

### Event 65535.44

#### Metadata

| Field        | Value    |
|--------------|----------|
| Entrypoint   | 0x04A9   |
| Data Size    | 14 bytes |
| Instructions | 4        |

```
      00 01 02 03 04 05 06 07  08 09 0A 0B 0C 0D 0E 0F
      -- -- -- -- -- -- -- --  -- -- -- -- -- -- -- --
04A0:                             32 24 80 1F 00 68 80           2$...h.
04B0: 69 80 6A 80 1F 01 00                              i.j....         
```

#### Opcodes

```
  0: 0x04A9 [0x32] ExtData[1]->MainSpeed = 40* * 0.1
  1: 0x04AC [0x1F] MOVE_ENTITY: EventEntity moves to X=339.332*, Z=-346.208*, Y=-1.314*
  2: 0x04B4 [0x1F] MOVE_ENTITY: Update entity position (mode=1)
  3: 0x04B6 [0x00] END_REQSTACK()
```

### Event 65535.45

#### Metadata

| Field        | Value    |
|--------------|----------|
| Entrypoint   | 0x04B7   |
| Data Size    | 15 bytes |
| Instructions | 5        |

```
      00 01 02 03 04 05 06 07  08 09 0A 0B 0C 0D 0E 0F
      -- -- -- -- -- -- -- --  -- -- -- -- -- -- -- --
04B0:                      32  6B 80 1F 00 6C 80 6D 80         2k...l.m.
04C0: 6E 80 1F 01 6F 00                                 n...o.          
```

#### Opcodes

```
  0: 0x04B7 [0x32] ExtData[1]->MainSpeed = 18* * 0.1
  1: 0x04BA [0x1F] MOVE_ENTITY: EventEntity moves to X=340.379*, Z=-331.841*, Y=0.269*
  2: 0x04C2 [0x1F] MOVE_ENTITY: Update entity position (mode=1)
  3: 0x04C4 [0x6F] WAIT_FRAME_DELAY: Yield until WaitTime reaches zero
  4: 0x04C5 [0x00] END_REQSTACK()
```

### Event 65535.46

#### Metadata

| Field        | Value    |
|--------------|----------|
| Entrypoint   | 0x04C6   |
| Data Size    | 25 bytes |
| Instructions | 7        |

```
      00 01 02 03 04 05 06 07  08 09 0A 0B 0C 0D 0E 0F
      -- -- -- -- -- -- -- --  -- -- -- -- -- -- -- --
04C0:                   1E E2  92 08 01 1C 1B 80 1F 00        ..........
04D0: 6F 80 70 80 71 80 1F 01  6F 1E E2 92 08 01 00     o.p.q...o...... 
```

#### Opcodes

```
  0: 0x04C6 [0x1E] EventEntity looks at Hersaume (ID: 17339106/0x010892E2) and starts talking
  1: 0x04CB [0x1C] WAIT(60* ticks)
  2: 0x04CE [0x1F] MOVE_ENTITY: EventEntity moves to X=337.994*, Z=-347.540*, Y=-1.461*
  3: 0x04D6 [0x1F] MOVE_ENTITY: Update entity position (mode=1)
  4: 0x04D8 [0x6F] WAIT_FRAME_DELAY: Yield until WaitTime reaches zero
  5: 0x04D9 [0x1E] EventEntity looks at Hersaume (ID: 17339106/0x010892E2) and starts talking
  6: 0x04DE [0x00] END_REQSTACK()
```

### Event 65535.47

#### Metadata

| Field        | Value    |
|--------------|----------|
| Entrypoint   | 0x04DF   |
| Data Size    | 32 bytes |
| Instructions | 8        |

```
      00 01 02 03 04 05 06 07  08 09 0A 0B 0C 0D 0E 0F
      -- -- -- -- -- -- -- --  -- -- -- -- -- -- -- --
04D0:                                               1C                 .
04E0: 72 80 32 04 80 1F 00 73  80 74 80 75 80 1F 01 6F  r.2....s.t.u...o
04F0: 1E D8 92 08 01 4A D8 92  08 01 F0 FF FF 7F 00     .....J......... 
```

#### Opcodes

```
  0: 0x04DF [0x1C] WAIT(45* ticks)
  1: 0x04E2 [0x32] ExtData[1]->MainSpeed = 13* * 0.1
  2: 0x04E5 [0x1F] MOVE_ENTITY: EventEntity moves to X=566.927*, Z=-273.522*, Y=-0.024*
  3: 0x04ED [0x1F] MOVE_ENTITY: Update entity position (mode=1)
  4: 0x04EF [0x6F] WAIT_FRAME_DELAY: Yield until WaitTime reaches zero
  5: 0x04F0 [0x1E] EventEntity looks at Jayramus (ID: 17339096/0x010892D8) and starts talking
  6: 0x04F5 [0x4A] Jayramus (ID: 17339096/0x010892D8) looks at LocalPlayer
  7: 0x04FE [0x00] END_REQSTACK()
```

### Event 65535.48

#### Metadata

| Field        | Value    |
|--------------|----------|
| Entrypoint   | 0x04FF   |
| Data Size    | 23 bytes |
| Instructions | 7        |

```
      00 01 02 03 04 05 06 07  08 09 0A 0B 0C 0D 0E 0F
      -- -- -- -- -- -- -- --  -- -- -- -- -- -- -- --
04F0:                                               32                 2
0500: 24 80 1F 00 76 80 77 80  78 80 1F 01 6F 1C 2C 80  $...v.w.x...o.,.
0510: 1E D8 92 08 01 00                                 ......          
```

#### Opcodes

```
  0: 0x04FF [0x32] ExtData[1]->MainSpeed = 40* * 0.1
  1: 0x0502 [0x1F] MOVE_ENTITY: EventEntity moves to X=561.638*, Z=-274.949*, Y=-0.053*
  2: 0x050A [0x1F] MOVE_ENTITY: Update entity position (mode=1)
  3: 0x050C [0x6F] WAIT_FRAME_DELAY: Yield until WaitTime reaches zero
  4: 0x050D [0x1C] WAIT(30* ticks)
  5: 0x0510 [0x1E] EventEntity looks at Jayramus (ID: 17339096/0x010892D8) and starts talking
  6: 0x0515 [0x00] END_REQSTACK()
```

### Event 65535.49

#### Metadata

| Field        | Value    |
|--------------|----------|
| Entrypoint   | 0x0516   |
| Data Size    | 21 bytes |
| Instructions | 5        |

```
      00 01 02 03 04 05 06 07  08 09 0A 0B 0C 0D 0E 0F
      -- -- -- -- -- -- -- --  -- -- -- -- -- -- -- --
0510:                   32 04  80 1F 00 79 80 7A 80 7B        2....y.z.{
0520: 80 1F 01 4B F0 FF FF 7F  7C 80 00                 ...K....|..     
```

#### Opcodes

```
  0: 0x0516 [0x32] ExtData[1]->MainSpeed = 13* * 0.1
  1: 0x0519 [0x1F] MOVE_ENTITY: EventEntity moves to X=587.434*, Z=-260.843*, Y=-0.146*
  2: 0x0521 [0x1F] MOVE_ENTITY: Update entity position (mode=1)
  3: 0x0523 [0x4B] UPDATE_ENTITY_YAW(entity=LocalPlayer, yaw=8.6°*)
  4: 0x052A [0x00] END_REQSTACK()
```

### Event 65535.50

#### Metadata

| Field        | Value    |
|--------------|----------|
| Entrypoint   | 0x052B   |
| Data Size    | 21 bytes |
| Instructions | 5        |

```
      00 01 02 03 04 05 06 07  08 09 0A 0B 0C 0D 0E 0F
      -- -- -- -- -- -- -- --  -- -- -- -- -- -- -- --
0520:                                   32 24 80 1F 00             2$...
0530: 7D 80 7E 80 09 80 1F 01  4B F0 FF FF 7F 7F 80 00  }.~.....K.......
```

#### Opcodes

```
  0: 0x052B [0x32] ExtData[1]->MainSpeed = 40* * 0.1
  1: 0x052E [0x1F] MOVE_ENTITY: EventEntity moves to X=556.458*, Z=-277.807*, Y=0.000*
  2: 0x0536 [0x1F] MOVE_ENTITY: Update entity position (mode=1)
  3: 0x0538 [0x4B] UPDATE_ENTITY_YAW(entity=LocalPlayer, yaw=13.7°*)
  4: 0x053F [0x00] END_REQSTACK()
```

### Event 65535.51

#### Metadata

| Field        | Value    |
|--------------|----------|
| Entrypoint   | 0x0540   |
| Data Size    | 15 bytes |
| Instructions | 5        |

```
      00 01 02 03 04 05 06 07  08 09 0A 0B 0C 0D 0E 0F
      -- -- -- -- -- -- -- --  -- -- -- -- -- -- -- --
0540: 32 80 80 1F 00 81 80 82  80 83 80 1F 01 6F 00     2............o. 
```

#### Opcodes

```
  0: 0x0540 [0x32] ExtData[1]->MainSpeed = 37* * 0.1
  1: 0x0543 [0x1F] MOVE_ENTITY: EventEntity moves to X=548.891*, Z=-279.613*, Y=0.352*
  2: 0x054B [0x1F] MOVE_ENTITY: Update entity position (mode=1)
  3: 0x054D [0x6F] WAIT_FRAME_DELAY: Yield until WaitTime reaches zero
  4: 0x054E [0x00] END_REQSTACK()
```

### Event 65535.52

#### Metadata

| Field        | Value    |
|--------------|----------|
| Entrypoint   | 0x054F   |
| Data Size    | 15 bytes |
| Instructions | 5        |

```
      00 01 02 03 04 05 06 07  08 09 0A 0B 0C 0D 0E 0F
      -- -- -- -- -- -- -- --  -- -- -- -- -- -- -- --
0540:                                               32                 2
0550: 84 80 1F 00 85 80 86 80  87 80 1F 01 6F 00        ............o.  
```

#### Opcodes

```
  0: 0x054F [0x32] ExtData[1]->MainSpeed = 35* * 0.1
  1: 0x0552 [0x1F] MOVE_ENTITY: EventEntity moves to X=499.836*, Z=-217.446*, Y=-0.033*
  2: 0x055A [0x1F] MOVE_ENTITY: Update entity position (mode=1)
  3: 0x055C [0x6F] WAIT_FRAME_DELAY: Yield until WaitTime reaches zero
  4: 0x055D [0x00] END_REQSTACK()
```

### Event 65535.53

#### Metadata

| Field        | Value    |
|--------------|----------|
| Entrypoint   | 0x055E   |
| Data Size    | 15 bytes |
| Instructions | 5        |

```
      00 01 02 03 04 05 06 07  08 09 0A 0B 0C 0D 0E 0F
      -- -- -- -- -- -- -- --  -- -- -- -- -- -- -- --
0550:                                            32 04                2.
0560: 80 1F 00 88 80 89 80 09  80 1F 01 6F 00           ...........o.   
```

#### Opcodes

```
  0: 0x055E [0x32] ExtData[1]->MainSpeed = 13* * 0.1
  1: 0x0561 [0x1F] MOVE_ENTITY: EventEntity moves to X=517.505*, Z=-242.813*, Y=0.000*
  2: 0x0569 [0x1F] MOVE_ENTITY: Update entity position (mode=1)
  3: 0x056B [0x6F] WAIT_FRAME_DELAY: Yield until WaitTime reaches zero
  4: 0x056C [0x00] END_REQSTACK()
```

### Event 65535.54

#### Metadata

| Field        | Value    |
|--------------|----------|
| Entrypoint   | 0x056D   |
| Data Size    | 15 bytes |
| Instructions | 5        |

```
      00 01 02 03 04 05 06 07  08 09 0A 0B 0C 0D 0E 0F
      -- -- -- -- -- -- -- --  -- -- -- -- -- -- -- --
0560:                                         32 80 80               2..
0570: 1F 00 8A 80 8B 80 8C 80  1F 01 6F 00              ..........o.    
```

#### Opcodes

```
  0: 0x056D [0x32] ExtData[1]->MainSpeed = 37* * 0.1
  1: 0x0570 [0x1F] MOVE_ENTITY: EventEntity moves to X=503.336*, Z=-225.627*, Y=-0.465*
  2: 0x0578 [0x1F] MOVE_ENTITY: Update entity position (mode=1)
  3: 0x057A [0x6F] WAIT_FRAME_DELAY: Yield until WaitTime reaches zero
  4: 0x057B [0x00] END_REQSTACK()
```

### Event 65535.55

#### Metadata

| Field        | Value    |
|--------------|----------|
| Entrypoint   | 0x057C   |
| Data Size    | 15 bytes |
| Instructions | 5        |

```
      00 01 02 03 04 05 06 07  08 09 0A 0B 0C 0D 0E 0F
      -- -- -- -- -- -- -- --  -- -- -- -- -- -- -- --
0570:                                      32 80 80 1F              2...
0580: 00 85 80 86 80 87 80 1F  01 6F 00                 .........o.     
```

#### Opcodes

```
  0: 0x057C [0x32] ExtData[1]->MainSpeed = 37* * 0.1
  1: 0x057F [0x1F] MOVE_ENTITY: EventEntity moves to X=499.836*, Z=-217.446*, Y=-0.033*
  2: 0x0587 [0x1F] MOVE_ENTITY: Update entity position (mode=1)
  3: 0x0589 [0x6F] WAIT_FRAME_DELAY: Yield until WaitTime reaches zero
  4: 0x058A [0x00] END_REQSTACK()
```

### Event 65535.56

#### Metadata

| Field        | Value    |
|--------------|----------|
| Entrypoint   | 0x058B   |
| Data Size    | 15 bytes |
| Instructions | 5        |

```
      00 01 02 03 04 05 06 07  08 09 0A 0B 0C 0D 0E 0F
      -- -- -- -- -- -- -- --  -- -- -- -- -- -- -- --
0580:                                   32 24 80 1F 00             2$...
0590: 8D 80 8E 80 8F 80 1F 01  6F 00                    ........o.      
```

#### Opcodes

```
  0: 0x058B [0x32] ExtData[1]->MainSpeed = 40* * 0.1
  1: 0x058E [0x1F] MOVE_ENTITY: EventEntity moves to X=-179.145*, Z=-18.449*, Y=-1.362*
  2: 0x0596 [0x1F] MOVE_ENTITY: Update entity position (mode=1)
  3: 0x0598 [0x6F] WAIT_FRAME_DELAY: Yield until WaitTime reaches zero
  4: 0x0599 [0x00] END_REQSTACK()
```

### Event 65535.57

#### Metadata

| Field        | Value    |
|--------------|----------|
| Entrypoint   | 0x059A   |
| Data Size    | 34 bytes |
| Instructions | 8        |

```
      00 01 02 03 04 05 06 07  08 09 0A 0B 0C 0D 0E 0F
      -- -- -- -- -- -- -- --  -- -- -- -- -- -- -- --
0590:                                32 24 80 1F 00 90            2$....
05A0: 80 91 80 92 80 1F 01 32  04 80 1F 00 93 80 94 80  .......2........
05B0: 95 80 1F 01 4B F0 FF FF  7F 96 80 00              ....K.......    
```

#### Opcodes

```
  0: 0x059A [0x32] ExtData[1]->MainSpeed = 40* * 0.1
  1: 0x059D [0x1F] MOVE_ENTITY: EventEntity moves to X=-179.267*, Z=-61.794*, Y=-1.383*
  2: 0x05A5 [0x1F] MOVE_ENTITY: Update entity position (mode=1)
  3: 0x05A7 [0x32] ExtData[1]->MainSpeed = 13* * 0.1
  4: 0x05AA [0x1F] MOVE_ENTITY: EventEntity moves to X=-179.159*, Z=-62.786*, Y=-1.425*
  5: 0x05B2 [0x1F] MOVE_ENTITY: Update entity position (mode=1)
  6: 0x05B4 [0x4B] UPDATE_ENTITY_YAW(entity=LocalPlayer, yaw=8.4°*)
  7: 0x05BB [0x00] END_REQSTACK()
```

### Event 65535.58

#### Metadata

| Field        | Value    |
|--------------|----------|
| Entrypoint   | 0x05BC   |
| Data Size    | 20 bytes |
| Instructions | 6        |

```
      00 01 02 03 04 05 06 07  08 09 0A 0B 0C 0D 0E 0F
      -- -- -- -- -- -- -- --  -- -- -- -- -- -- -- --
05B0:                                      32 24 80 1F              2$..
05C0: 00 97 80 98 80 99 80 1F  01 6F 1E DC 92 08 01 00  .........o......
```

#### Opcodes

```
  0: 0x05BC [0x32] ExtData[1]->MainSpeed = 40* * 0.1
  1: 0x05BF [0x1F] MOVE_ENTITY: EventEntity moves to X=251.973*, Z=-151.226*, Y=-14.253*
  2: 0x05C7 [0x1F] MOVE_ENTITY: Update entity position (mode=1)
  3: 0x05C9 [0x6F] WAIT_FRAME_DELAY: Yield until WaitTime reaches zero
  4: 0x05CA [0x1E] EventEntity looks at Bistillot (ID: 17339100/0x010892DC) and starts talking
  5: 0x05CF [0x00] END_REQSTACK()
```

### Event 65535.59

#### Metadata

| Field        | Value    |
|--------------|----------|
| Entrypoint   | 0x05D0   |
| Data Size    | 38 bytes |
| Instructions | 5        |

```
      00 01 02 03 04 05 06 07  08 09 0A 0B 0C 0D 0E 0F
      -- -- -- -- -- -- -- --  -- -- -- -- -- -- -- --
05D0: 22 00 2F 00 F8 FF FF 7F  B6 0B 11 80 09 80 13 80  "./.............
05E0: 14 80 15 80 15 80 15 80  16 80 9A 80 6C F8 FF FF  ............l...
05F0: 7F 1A 80 08 80 00                                 ......          
```

#### Opcodes

```
  0: 0x05D0 [0x22] ENTITY_HIDE_FLAG(enabled=0x00)
  1: 0x05D2 [0x2F] EventEntity->Render.Flags0 &= ~0x80000 // Bit 19
  2: 0x05D8 [0xB6] ENTITY_APPEARANCE_HANDLER(case=Full entity look, race=8*, hair=0*, head=145*, body=79*, hands=76*, legs=76*, feet=76*, main=201*, sub=262*)
  3: 0x05EC [0x6C] FADE_ENTITY_COLOR(entity_id=EventEntity, end_alpha=64*, fade_time=1*)
  4: 0x05F5 [0x00] END_REQSTACK()
```

### Event 65535.60

#### Metadata

| Field        | Value    |
|--------------|----------|
| Entrypoint   | 0x05F6   |
| Data Size    | 38 bytes |
| Instructions | 5        |

```
      00 01 02 03 04 05 06 07  08 09 0A 0B 0C 0D 0E 0F
      -- -- -- -- -- -- -- --  -- -- -- -- -- -- -- --
05F0:                   22 00  2F 00 F8 FF FF 7F B6 0B        "./.......
0600: 9B 80 09 80 13 80 14 80  15 80 15 80 15 80 16 80  ................
0610: 17 80 6C F8 FF FF 7F 9C  80 08 80 00              ..l.........    
```

#### Opcodes

```
  0: 0x05F6 [0x22] ENTITY_HIDE_FLAG(enabled=0x00)
  1: 0x05F8 [0x2F] EventEntity->Render.Flags0 &= ~0x80000 // Bit 19
  2: 0x05FE [0xB6] ENTITY_APPEARANCE_HANDLER(case=Full entity look, race=4*, hair=0*, head=145*, body=79*, hands=76*, legs=76*, feet=76*, main=201*, sub=24*)
  3: 0x0612 [0x6C] FADE_ENTITY_COLOR(entity_id=EventEntity, end_alpha=80*, fade_time=1*)
  4: 0x061B [0x00] END_REQSTACK()
```

### Event 65535.61

#### Metadata

| Field        | Value    |
|--------------|----------|
| Entrypoint   | 0x061C   |
| Data Size    | 38 bytes |
| Instructions | 5        |

```
      00 01 02 03 04 05 06 07  08 09 0A 0B 0C 0D 0E 0F
      -- -- -- -- -- -- -- --  -- -- -- -- -- -- -- --
0610:                                      22 00 2F 00              "./.
0620: F8 FF FF 7F B6 0B 0A 80  09 80 13 80 14 80 15 80  ................
0630: 15 80 15 80 16 80 17 80  6C F8 FF FF 7F 9D 80 08  ........l.......
0640: 80 00                                             ..              
```

#### Opcodes

```
  0: 0x061C [0x22] ENTITY_HIDE_FLAG(enabled=0x00)
  1: 0x061E [0x2F] EventEntity->Render.Flags0 &= ~0x80000 // Bit 19
  2: 0x0624 [0xB6] ENTITY_APPEARANCE_HANDLER(case=Full entity look, race=5*, hair=0*, head=145*, body=79*, hands=76*, legs=76*, feet=76*, main=201*, sub=24*)
  3: 0x0638 [0x6C] FADE_ENTITY_COLOR(entity_id=EventEntity, end_alpha=96*, fade_time=1*)
  4: 0x0641 [0x00] END_REQSTACK()
```

### Event 65535.62

#### Metadata

| Field        | Value    |
|--------------|----------|
| Entrypoint   | 0x0642   |
| Data Size    | 53 bytes |
| Instructions | 11       |

```
      00 01 02 03 04 05 06 07  08 09 0A 0B 0C 0D 0E 0F
      -- -- -- -- -- -- -- --  -- -- -- -- -- -- -- --
0640:       32 24 80 1F 00 9E  80 9F 80 A0 80 1F 01 1F    2$............
0650: 00 A1 80 A2 80 A3 80 1F  01 1F 00 A4 80 A5 80 A6  ................
0660: 80 1F 01 1F 00 A7 80 A8  80 A9 80 1F 01 4A F0 FF  .............J..
0670: FF 7F D6 92 08 01 00                              .......         
```

#### Opcodes

```
  0: 0x0642 [0x32] ExtData[1]->MainSpeed = 40* * 0.1
  1: 0x0645 [0x1F] MOVE_ENTITY: EventEntity moves to X=544.682*, Z=-280.474*, Y=0.728*
  2: 0x064D [0x1F] MOVE_ENTITY: Update entity position (mode=1)
  3: 0x064F [0x1F] MOVE_ENTITY: EventEntity moves to X=539.612*, Z=-280.922*, Y=0.979*
  4: 0x0657 [0x1F] MOVE_ENTITY: Update entity position (mode=1)
  5: 0x0659 [0x1F] MOVE_ENTITY: EventEntity moves to X=533.379*, Z=-278.591*, Y=0.533*
  6: 0x0661 [0x1F] MOVE_ENTITY: Update entity position (mode=1)
  7: 0x0663 [0x1F] MOVE_ENTITY: EventEntity moves to X=528.935*, Z=-274.093*, Y=0.244*
  8: 0x066B [0x1F] MOVE_ENTITY: Update entity position (mode=1)
  9: 0x066D [0x4A] LocalPlayer looks at Excenmille (ID: 17339094/0x010892D6)
 10: 0x0676 [0x00] END_REQSTACK()
```

### Event 65535.63

#### Metadata

| Field        | Value    |
|--------------|----------|
| Entrypoint   | 0x0677   |
| Data Size    | 23 bytes |
| Instructions | 5        |

```
      00 01 02 03 04 05 06 07  08 09 0A 0B 0C 0D 0E 0F
      -- -- -- -- -- -- -- --  -- -- -- -- -- -- -- --
0670:                      32  04 80 1F 00 AA 80 AB 80         2........
0680: AC 80 1F 01 4A F0 FF FF  7F 2D 93 08 01 00        ....J....-....  
```

#### Opcodes

```
  0: 0x0677 [0x32] ExtData[1]->MainSpeed = 13* * 0.1
  1: 0x067A [0x1F] MOVE_ENTITY: EventEntity moves to X=619.208*, Z=-276.607*, Y=0.238*
  2: 0x0682 [0x1F] MOVE_ENTITY: Update entity position (mode=1)
  3: 0x0684 [0x4A] LocalPlayer looks at Vinairy (ID: 17339181/0x0108932D)
  4: 0x068D [0x00] END_REQSTACK()
```

### Event 65535.64

#### Metadata

| Field        | Value   |
|--------------|---------|
| Entrypoint   | 0x068E  |
| Data Size    | 4 bytes |
| Instructions | 2       |

```
      00 01 02 03 04 05 06 07  08 09 0A 0B 0C 0D 0E 0F
      -- -- -- -- -- -- -- --  -- -- -- -- -- -- -- --
0680:                                            1C 02                ..
0690: 10 00                                             ..              
```

#### Opcodes

```
  0: 0x068E [0x1C] WAIT(Work_Zone[2] ticks)
  1: 0x0691 [0x00] END_REQSTACK()
```

### Event 65535.65

#### Metadata

| Field        | Value   |
|--------------|---------|
| Entrypoint   | 0x0692  |
| Data Size    | 4 bytes |
| Instructions | 2       |

```
      00 01 02 03 04 05 06 07  08 09 0A 0B 0C 0D 0E 0F
      -- -- -- -- -- -- -- --  -- -- -- -- -- -- -- --
0690:       1C 03 10 00                                   ....          
```

#### Opcodes

```
  0: 0x0692 [0x1C] WAIT(Work_Zone[3] ticks)
  1: 0x0695 [0x00] END_REQSTACK()
```

### Event 65535.66

#### Metadata

| Field        | Value    |
|--------------|----------|
| Entrypoint   | 0x0696   |
| Data Size    | 38 bytes |
| Instructions | 4        |

```
      00 01 02 03 04 05 06 07  08 09 0A 0B 0C 0D 0E 0F
      -- -- -- -- -- -- -- --  -- -- -- -- -- -- -- --
0690:                   9F AD  80 F8 FF FF 7F F8 FF FF        ..........
06A0: 7F 73 74 72 30 09 80 1C  02 10 9F AD 80 F8 FF FF  .str0...........
06B0: 7F F8 FF FF 7F 6B 69 6C  6C 09 80 00              .....kill...    
```

#### Opcodes

```
  0: 0x0696 [0x9F] LOAD_SCHEDULED_TASK_ALT: Load scheduler "str0" with entities [EventEntity, EventEntity], work=[127*, 0*]
  1: 0x06A7 [0x1C] WAIT(Work_Zone[2] ticks)
  2: 0x06AA [0x9F] LOAD_SCHEDULED_TASK_ALT: Load scheduler "kill" with entities [EventEntity, EventEntity], work=[127*, 0*]
  3: 0x06BB [0x00] END_REQSTACK()
```

### Event 65535.67

#### Metadata

| Field        | Value    |
|--------------|----------|
| Entrypoint   | 0x06BC   |
| Data Size    | 83 bytes |
| Instructions | 18       |

```
      00 01 02 03 04 05 06 07  08 09 0A 0B 0C 0D 0E 0F
      -- -- -- -- -- -- -- --  -- -- -- -- -- -- -- --
06B0:                                      59 04 F8 FF              Y...
06C0: FF 7F 80 80 1C 0C 80 1F  00 AE 80 AF 80 B0 80 1F  ................
06D0: 01 1F 00 B1 80 B2 80 B3  80 1F 01 1F 00 B4 80 B5  ................
06E0: 80 B6 80 1F 01 1F 00 B7  80 B8 80 B9 80 1F 01 1F  ................
06F0: 00 BA 80 BB 80 BC 80 1F  01 1F 00 BD 80 BE 80 BF  ................
0700: 80 1F 01 1F 00 C0 80 C1  80 C2 80 1F 01 6F 00     .............o. 
```

#### Opcodes

```
  0: 0x06BC [0x59] UPDATE_ENTITY_DATA: Set EventEntity main speed = 37* * 0.1
  1: 0x06C4 [0x1C] WAIT(10* ticks)
  2: 0x06C7 [0x1F] MOVE_ENTITY: EventEntity moves to X=77.071*, Z=-194.368*, Y=-23.919*
  3: 0x06CF [0x1F] MOVE_ENTITY: Update entity position (mode=1)
  4: 0x06D1 [0x1F] MOVE_ENTITY: EventEntity moves to X=79.285*, Z=-205.170*, Y=-23.942*
  5: 0x06D9 [0x1F] MOVE_ENTITY: Update entity position (mode=1)
  6: 0x06DB [0x1F] MOVE_ENTITY: EventEntity moves to X=79.275*, Z=-206.646*, Y=-23.869*
  7: 0x06E3 [0x1F] MOVE_ENTITY: Update entity position (mode=1)
  8: 0x06E5 [0x1F] MOVE_ENTITY: EventEntity moves to X=78.417*, Z=-208.892*, Y=-23.757*
  9: 0x06ED [0x1F] MOVE_ENTITY: Update entity position (mode=1)
 10: 0x06EF [0x1F] MOVE_ENTITY: EventEntity moves to X=77.361*, Z=-211.083*, Y=-23.648*
 11: 0x06F7 [0x1F] MOVE_ENTITY: Update entity position (mode=1)
 12: 0x06F9 [0x1F] MOVE_ENTITY: EventEntity moves to X=75.818*, Z=-212.324*, Y=-23.608*
 13: 0x0701 [0x1F] MOVE_ENTITY: Update entity position (mode=1)
 14: 0x0703 [0x1F] MOVE_ENTITY: EventEntity moves to X=73.747*, Z=-213.739*, Y=-23.575*
 15: 0x070B [0x1F] MOVE_ENTITY: Update entity position (mode=1)
 16: 0x070D [0x6F] WAIT_FRAME_DELAY: Yield until WaitTime reaches zero
 17: 0x070E [0x00] END_REQSTACK()
```

### Event 65535.68

#### Metadata

| Field        | Value    |
|--------------|----------|
| Entrypoint   | 0x070F   |
| Data Size    | 43 bytes |
| Instructions | 10       |

```
      00 01 02 03 04 05 06 07  08 09 0A 0B 0C 0D 0E 0F
      -- -- -- -- -- -- -- --  -- -- -- -- -- -- -- --
0700:                                               59                 Y
0710: 04 F8 FF FF 7F 80 80 1C  0C 80 1F 00 C3 80 C4 80  ................
0720: C5 80 1F 01 1F 00 C6 80  C7 80 C8 80 1F 01 1F 00  ................
0730: C9 80 CA 80 CB 80 1F 01  6F 00                    ........o.      
```

#### Opcodes

```
  0: 0x070F [0x59] UPDATE_ENTITY_DATA: Set EventEntity main speed = 37* * 0.1
  1: 0x0717 [0x1C] WAIT(10* ticks)
  2: 0x071A [0x1F] MOVE_ENTITY: EventEntity moves to X=75.863*, Z=-212.885*, Y=-23.523*
  3: 0x0722 [0x1F] MOVE_ENTITY: Update entity position (mode=1)
  4: 0x0724 [0x1F] MOVE_ENTITY: EventEntity moves to X=73.842*, Z=-215.890*, Y=-23.321*
  5: 0x072C [0x1F] MOVE_ENTITY: Update entity position (mode=1)
  6: 0x072E [0x1F] MOVE_ENTITY: EventEntity moves to X=72.302*, Z=-218.489*, Y=-23.261*
  7: 0x0736 [0x1F] MOVE_ENTITY: Update entity position (mode=1)
  8: 0x0738 [0x6F] WAIT_FRAME_DELAY: Yield until WaitTime reaches zero
  9: 0x0739 [0x00] END_REQSTACK()
```

### Event 65535.69

#### Metadata

| Field        | Value    |
|--------------|----------|
| Entrypoint   | 0x073A   |
| Data Size    | 39 bytes |
| Instructions | 8        |

```
      00 01 02 03 04 05 06 07  08 09 0A 0B 0C 0D 0E 0F
      -- -- -- -- -- -- -- --  -- -- -- -- -- -- -- --
0730:                                59 04 F8 FF FF 7F            Y.....
0740: CC 80 1F 00 CD 80 CE 80  CF 80 1F 01 1F 00 D0 80  ................
0750: D1 80 D2 80 1F 01 6F 4A  F8 FF FF 7F 6A 93 08 01  ......oJ....j...
0760: 00                                                .               
```

#### Opcodes

```
  0: 0x073A [0x59] UPDATE_ENTITY_DATA: Set EventEntity main speed = 12* * 0.1
  1: 0x0742 [0x1F] MOVE_ENTITY: EventEntity moves to X=70.565*, Z=-217.499*, Y=-23.547*
  2: 0x074A [0x1F] MOVE_ENTITY: Update entity position (mode=1)
  3: 0x074C [0x1F] MOVE_ENTITY: EventEntity moves to X=68.194*, Z=-218.454*, Y=-23.715*
  4: 0x0754 [0x1F] MOVE_ENTITY: Update entity position (mode=1)
  5: 0x0756 [0x6F] WAIT_FRAME_DELAY: Yield until WaitTime reaches zero
  6: 0x0757 [0x4A] EventEntity looks at Kayeel-Payeel (ID: 17339242/0x0108936A)
  7: 0x0760 [0x00] END_REQSTACK()
```

### Event 65535.70

#### Metadata

| Field        | Value    |
|--------------|----------|
| Entrypoint   | 0x0761   |
| Data Size    | 20 bytes |
| Instructions | 5        |

```
      00 01 02 03 04 05 06 07  08 09 0A 0B 0C 0D 0E 0F
      -- -- -- -- -- -- -- --  -- -- -- -- -- -- -- --
0760:    59 04 F8 FF FF 7F CC  80 1F 00 D3 80 D4 80 D5   Y..............
0770: 80 1F 01 6F 00                                    ...o.           
```

#### Opcodes

```
  0: 0x0761 [0x59] UPDATE_ENTITY_DATA: Set EventEntity main speed = 12* * 0.1
  1: 0x0769 [0x1F] MOVE_ENTITY: EventEntity moves to X=64.449*, Z=-217.450*, Y=-23.852*
  2: 0x0771 [0x1F] MOVE_ENTITY: Update entity position (mode=1)
  3: 0x0773 [0x6F] WAIT_FRAME_DELAY: Yield until WaitTime reaches zero
  4: 0x0774 [0x00] END_REQSTACK()
```

### Event 65535.71

#### Metadata

| Field        | Value    |
|--------------|----------|
| Entrypoint   | 0x0775   |
| Data Size    | 39 bytes |
| Instructions | 8        |

```
      00 01 02 03 04 05 06 07  08 09 0A 0B 0C 0D 0E 0F
      -- -- -- -- -- -- -- --  -- -- -- -- -- -- -- --
0770:                59 04 F8  FF FF 7F 24 80 1F 00 D6       Y.....$....
0780: 80 D7 80 D8 80 1F 01 1F  00 D9 80 DA 80 DB 80 1F  ................
0790: 01 6F 4A F8 FF FF 7F 64  93 08 01 00              .oJ....d....    
```

#### Opcodes

```
  0: 0x0775 [0x59] UPDATE_ENTITY_DATA: Set EventEntity main speed = 40* * 0.1
  1: 0x077D [0x1F] MOVE_ENTITY: EventEntity moves to X=168.679*, Z=-41.603*, Y=-15.286*
  2: 0x0785 [0x1F] MOVE_ENTITY: Update entity position (mode=1)
  3: 0x0787 [0x1F] MOVE_ENTITY: EventEntity moves to X=162.405*, Z=-29.819*, Y=-15.466*
  4: 0x078F [0x1F] MOVE_ENTITY: Update entity position (mode=1)
  5: 0x0791 [0x6F] WAIT_FRAME_DELAY: Yield until WaitTime reaches zero
  6: 0x0792 [0x4A] EventEntity looks at Bartholomaus (ID: 17339236/0x01089364)
  7: 0x079B [0x00] END_REQSTACK()
```

### Event 65535.72

#### Metadata

| Field        | Value    |
|--------------|----------|
| Entrypoint   | 0x079C   |
| Data Size    | 39 bytes |
| Instructions | 8        |

```
      00 01 02 03 04 05 06 07  08 09 0A 0B 0C 0D 0E 0F
      -- -- -- -- -- -- -- --  -- -- -- -- -- -- -- --
0790:                                      59 04 F8 FF              Y...
07A0: FF 7F 24 80 1F 00 D6 80  D7 80 D8 80 1F 01 1F 00  ..$.............
07B0: DC 80 DD 80 DE 80 1F 01  6F 4A F8 FF FF 7F 64 93  ........oJ....d.
07C0: 08 01 00                                          ...             
```

#### Opcodes

```
  0: 0x079C [0x59] UPDATE_ENTITY_DATA: Set EventEntity main speed = 40* * 0.1
  1: 0x07A4 [0x1F] MOVE_ENTITY: EventEntity moves to X=168.679*, Z=-41.603*, Y=-15.286*
  2: 0x07AC [0x1F] MOVE_ENTITY: Update entity position (mode=1)
  3: 0x07AE [0x1F] MOVE_ENTITY: EventEntity moves to X=162.078*, Z=-30.042*, Y=-15.504*
  4: 0x07B6 [0x1F] MOVE_ENTITY: Update entity position (mode=1)
  5: 0x07B8 [0x6F] WAIT_FRAME_DELAY: Yield until WaitTime reaches zero
  6: 0x07B9 [0x4A] EventEntity looks at Bartholomaus (ID: 17339236/0x01089364)
  7: 0x07C2 [0x00] END_REQSTACK()
```

### Event 65535.73

#### Metadata

| Field        | Value    |
|--------------|----------|
| Entrypoint   | 0x07C3   |
| Data Size    | 59 bytes |
| Instructions | 12       |

```
      00 01 02 03 04 05 06 07  08 09 0A 0B 0C 0D 0E 0F
      -- -- -- -- -- -- -- --  -- -- -- -- -- -- -- --
07C0:          59 04 F8 FF FF  7F 1C 80 1F 00 DF 80 E0     Y............
07D0: 80 E1 80 1F 01 1F 00 E2  80 E3 80 E4 80 1F 01 1F  ................
07E0: 00 E5 80 E6 80 E7 80 1F  01 1F 00 E8 80 E9 80 EA  ................
07F0: 80 1F 01 6F 4A F8 FF FF  7F 5A 93 08 01 00        ...oJ....Z....  
```

#### Opcodes

```
  0: 0x07C3 [0x59] UPDATE_ENTITY_DATA: Set EventEntity main speed = 39* * 0.1
  1: 0x07CB [0x1F] MOVE_ENTITY: EventEntity moves to X=-155.318*, Z=-46.044*, Y=-23.866*
  2: 0x07D3 [0x1F] MOVE_ENTITY: Update entity position (mode=1)
  3: 0x07D5 [0x1F] MOVE_ENTITY: EventEntity moves to X=-160.604*, Z=-45.539*, Y=-23.921*
  4: 0x07DD [0x1F] MOVE_ENTITY: Update entity position (mode=1)
  5: 0x07DF [0x1F] MOVE_ENTITY: EventEntity moves to X=-164.150*, Z=-45.190*, Y=-23.850*
  6: 0x07E7 [0x1F] MOVE_ENTITY: Update entity position (mode=1)
  7: 0x07E9 [0x1F] MOVE_ENTITY: EventEntity moves to X=-167.491*, Z=-42.081*, Y=-23.199*
  8: 0x07F1 [0x1F] MOVE_ENTITY: Update entity position (mode=1)
  9: 0x07F3 [0x6F] WAIT_FRAME_DELAY: Yield until WaitTime reaches zero
 10: 0x07F4 [0x4A] EventEntity looks at Ragelise (ID: 17339226/0x0108935A)
 11: 0x07FD [0x00] END_REQSTACK()
```

### Event 65535.74

#### Metadata

| Field        | Value    |
|--------------|----------|
| Entrypoint   | 0x07FE   |
| Data Size    | 59 bytes |
| Instructions | 12       |

```
      00 01 02 03 04 05 06 07  08 09 0A 0B 0C 0D 0E 0F
      -- -- -- -- -- -- -- --  -- -- -- -- -- -- -- --
07F0:                                            59 04                Y.
0800: F8 FF FF 7F 1C 80 1F 00  DF 80 E0 80 E1 80 1F 01  ................
0810: 1F 00 E2 80 E3 80 E4 80  1F 01 1F 00 E5 80 E6 80  ................
0820: E7 80 1F 01 1F 00 EB 80  EC 80 ED 80 1F 01 6F 4A  ..............oJ
0830: F8 FF FF 7F 5A 93 08 01  00                       ....Z....       
```

#### Opcodes

```
  0: 0x07FE [0x59] UPDATE_ENTITY_DATA: Set EventEntity main speed = 39* * 0.1
  1: 0x0806 [0x1F] MOVE_ENTITY: EventEntity moves to X=-155.318*, Z=-46.044*, Y=-23.866*
  2: 0x080E [0x1F] MOVE_ENTITY: Update entity position (mode=1)
  3: 0x0810 [0x1F] MOVE_ENTITY: EventEntity moves to X=-160.604*, Z=-45.539*, Y=-23.921*
  4: 0x0818 [0x1F] MOVE_ENTITY: Update entity position (mode=1)
  5: 0x081A [0x1F] MOVE_ENTITY: EventEntity moves to X=-164.150*, Z=-45.190*, Y=-23.850*
  6: 0x0822 [0x1F] MOVE_ENTITY: Update entity position (mode=1)
  7: 0x0824 [0x1F] MOVE_ENTITY: EventEntity moves to X=-166.957*, Z=-42.021*, Y=-23.294*
  8: 0x082C [0x1F] MOVE_ENTITY: Update entity position (mode=1)
  9: 0x082E [0x6F] WAIT_FRAME_DELAY: Yield until WaitTime reaches zero
 10: 0x082F [0x4A] EventEntity looks at Ragelise (ID: 17339226/0x0108935A)
 11: 0x0838 [0x00] END_REQSTACK()
```

### Event 65535.75

#### Metadata

| Field        | Value    |
|--------------|----------|
| Entrypoint   | 0x0839   |
| Data Size    | 39 bytes |
| Instructions | 8        |

```
      00 01 02 03 04 05 06 07  08 09 0A 0B 0C 0D 0E 0F
      -- -- -- -- -- -- -- --  -- -- -- -- -- -- -- --
0830:                             59 04 F8 FF FF 7F 1C           Y......
0840: 80 1F 00 EE 80 EF 80 F0  80 1F 01 1F 00 F1 80 F2  ................
0850: 80 1F 80 1F 01 6F 4A F8  FF FF 7F 5A 93 08 01 00  .....oJ....Z....
```

#### Opcodes

```
  0: 0x0839 [0x59] UPDATE_ENTITY_DATA: Set EventEntity main speed = 39* * 0.1
  1: 0x0841 [0x1F] MOVE_ENTITY: EventEntity moves to X=-164.102*, Z=-38.306*, Y=-23.796*
  2: 0x0849 [0x1F] MOVE_ENTITY: Update entity position (mode=1)
  3: 0x084B [0x1F] MOVE_ENTITY: EventEntity moves to X=-162.789*, Z=-35.798*, Y=-23.872*
  4: 0x0853 [0x1F] MOVE_ENTITY: Update entity position (mode=1)
  5: 0x0855 [0x6F] WAIT_FRAME_DELAY: Yield until WaitTime reaches zero
  6: 0x0856 [0x4A] EventEntity looks at Ragelise (ID: 17339226/0x0108935A)
  7: 0x085F [0x00] END_REQSTACK()
```

### Event 65535.76

#### Metadata

| Field        | Value    |
|--------------|----------|
| Entrypoint   | 0x0860   |
| Data Size    | 27 bytes |
| Instructions | 5        |

```
      00 01 02 03 04 05 06 07  08 09 0A 0B 0C 0D 0E 0F
      -- -- -- -- -- -- -- --  -- -- -- -- -- -- -- --
0860: 03 00 00 07 7F 1A D0 00  66 01 00 F8 FF FF 7F F8  ........f.......
0870: FF FF 7F 6C 6C 7A 30 1C  F3 80 00                 ...llz0....     
```

#### Opcodes

```
  0: 0x0860 [0x03] ExtData[1]->WorkLocal[0] = Entity->Race
  1: 0x0865 [0x1A] CALL_SUBROUTINE(address=0x00D0)
  2: 0x0868 [0x66] LOAD_EXT_SCHEDULER_MAIN: Load scheduler "llz0" with entities [EventEntity, EventEntity], work=ExtData[1]->WorkLocal[1]
  3: 0x0877 [0x1C] WAIT(300* ticks)
  4: 0x087A [0x00] END_REQSTACK()
```

### Event 65535.77

#### Metadata

| Field        | Value    |
|--------------|----------|
| Entrypoint   | 0x087B   |
| Data Size    | 22 bytes |
| Instructions | 6        |

```
      00 01 02 03 04 05 06 07  08 09 0A 0B 0C 0D 0E 0F
      -- -- -- -- -- -- -- --  -- -- -- -- -- -- -- --
0870:                                   32 24 80 1F 00             2$...
0880: F4 80 F5 80 F6 80 1F 01  1E 66 93 08 01 1C 2C 80  .........f....,.
0890: 00                                                .               
```

#### Opcodes

```
  0: 0x087B [0x32] ExtData[1]->MainSpeed = 40* * 0.1
  1: 0x087E [0x1F] MOVE_ENTITY: EventEntity moves to X=164.814*, Z=-32.808*, Y=-15.573*
  2: 0x0886 [0x1F] MOVE_ENTITY: Update entity position (mode=1)
  3: 0x0888 [0x1E] EventEntity looks at Adelheid (ID: 17339238/0x01089366) and starts talking
  4: 0x088D [0x1C] WAIT(30* ticks)
  5: 0x0890 [0x00] END_REQSTACK()
```

### Event 65535.78

#### Metadata

| Field        | Value    |
|--------------|----------|
| Entrypoint   | 0x0891   |
| Data Size    | 14 bytes |
| Instructions | 4        |

```
      00 01 02 03 04 05 06 07  08 09 0A 0B 0C 0D 0E 0F
      -- -- -- -- -- -- -- --  -- -- -- -- -- -- -- --
0890:    32 24 80 1F 00 F7 80  F8 80 F9 80 1F 01 00      2$............ 
```

#### Opcodes

```
  0: 0x0891 [0x32] ExtData[1]->MainSpeed = 40* * 0.1
  1: 0x0894 [0x1F] MOVE_ENTITY: EventEntity moves to X=165.172*, Z=-16.295*, Y=-16.641*
  2: 0x089C [0x1F] MOVE_ENTITY: Update entity position (mode=1)
  3: 0x089E [0x00] END_REQSTACK()
```

### Event 11

#### Metadata

| Field        | Value     |
|--------------|-----------|
| Entrypoint   | 0x089F    |
| Data Size    | 107 bytes |
| Instructions | 16        |

```
      00 01 02 03 04 05 06 07  08 09 0A 0B 0C 0D 0E 0F
      -- -- -- -- -- -- -- --  -- -- -- -- -- -- -- --
0890:                                               42                 B
08A0: 48 FA 80 45 FB 80 F0 FF  FF 7F F0 FF FF 7F 66 64  H..E..........fd
08B0: 6F 31 09 80 02 03 10 09  80 00 D0 08 62 08 80 F0  o1..........b...
08C0: FF FF 7F F0 FF FF 7F 6D  61 69 6E 09 80 1C FC 80  .......main.....
08D0: 1C 1B 80 83 1E 17 AA 1E  17 1E 17 1E 17 1E 17 1E  ................
08E0: 17 1F 17 1E 17 1E 17 03  02 00 09 80 03 02 00 0B  ................
08F0: 80 77 1F 17 02 00 78 45  16 80 F0 FF FF 7F F0 FF  .w....xE........
0900: FF 7F 77 68 69 31 09 80  21 00                    ..whi1..!.      
```

#### Opcodes

```
  0: 0x089F [0x42] SET_CLI_EVENT_CANCEL_DATA()
  1: 0x08A0 [0x48] [System] [8243*]:
    → "The order has been given by your party leader to enter [Everbloom Hollow/the Ruhotz Silvermines/Ghoyu's Reverie]."
  2: 0x08A3 [0x45] LOAD_SCHEDULED_TASK: Load scheduler "fdo1" with entities [LocalPlayer, LocalPlayer], work=[200*, 0*]
  3: 0x08B4 [0x02] IF !(Work_Zone[3] == 0*) GOTO 0x08D0
  4: 0x08BC [0x62] LOAD_EVENT_SCHEDULER: Load scheduler "main" with entities [LocalPlayer, LocalPlayer], work=[1*, 0*]
  5: 0x08CD [0x1C] WAIT(90* ticks)
  6: 0x08D0 [0x1C] WAIT(60* ticks)
  7: 0x08D3 [0x83] Work_Zone_1700[30] = GetGameTime()
  8: 0x08D6 [0xAA] VANA_DIEL_TIMESTAMP_CONVERTER(timestamp=Work_Zone_1700[30], year=Work_Zone_1700[30], month=Work_Zone_1700[30], day=Work_Zone_1700[30], weekday=Work_Zone_1700[30], hour=Work_Zone_1700[31], minute=Work_Zone_1700[30], moon=Work_Zone_1700[30])
  9: 0x08E7 [0x03] ExtData[1]->WorkLocal[2] = 0*
 10: 0x08EC [0x03] ExtData[1]->WorkLocal[2] = 2*
 11: 0x08F1 [0x77] SET_EVENT_TIME_WEATHER(hour=Work_Zone_1700[31], weather=ExtData[1]->WorkLocal[2])
 12: 0x08F6 [0x78] ENABLE_GAME_TIMER_RESET_WEATHER()
 13: 0x08F7 [0x45] LOAD_SCHEDULED_TASK: Load scheduler "whi1" with entities [LocalPlayer, LocalPlayer], work=[201*, 0*]
 14: 0x0908 [0x21] END_EVENT
 15: 0x0909 [0x00] END_REQSTACK()
```
