# 17232347

## Common Data

| Field            | Value                        |
|------------------|------------------------------|
| Zone             | Beaucedine Glacier (ID: 111) |
| Block Size       | 208 bytes                    |
| Total Events     | 7                            |
| References Count | 18                           |

## List of Events

| Event ID                 | Entrypoint   |   Size |   Instructions |
|--------------------------|--------------|--------|----------------|
| [65535](#event-65535)    | 0x0000       |      1 |              1 |
| [232](#event-232)        | 0x0001       |      1 |              1 |
| [234](#event-234)        | 0x0002       |      1 |              1 |
| [65535.1](#event-655351) | 0x0003       |     22 |              5 |
| [65535.2](#event-655352) | 0x0019       |     22 |              5 |
| [65535.3](#event-655353) | 0x002F       |     22 |              5 |
| [65535.4](#event-655354) | 0x0045       |     20 |              4 |

## DAT References (imed_data)

|   Index | Hex Value   |   Dec Value |
|---------|-------------|-------------|
|       0 | 0x2F66E     |      194158 |
|       1 | 0x45193     |      283027 |
|       2 | 0xFFFF64EC  |  4294927596 |
|       3 | 0x0AC4      |        2756 |
|       4 | 0x00C8      |         200 |
|       5 | 0x324AC     |      205996 |
|       6 | 0x44FD7     |      282583 |
|       7 | 0xFFFF654F  |  4294927695 |
|       8 | 0x3AF5C     |      241500 |
|       9 | 0x39E9C     |      237212 |
|      10 | 0x0258      |         600 |
|      11 | 0x0A0F      |        2575 |
|      12 | 0xFFFFFE70  |  4294966896 |
|      13 | 0x3B96C     |      244076 |
|      14 | 0x3B644     |      243268 |
|      15 | 0x012C      |         300 |
|      16 | 0x0A28      |        2600 |
|      17 | 0xFFFFFF38  |  4294967096 |

## Events

### Event 65535

#### Metadata

| Field        | Value   |
|--------------|---------|
| Entrypoint   | 0x0000  |
| Data Size    | 1 bytes |
| Instructions | 1       |

```
      00 01 02 03 04 05 06 07  08 09 0A 0B 0C 0D 0E 0F
      -- -- -- -- -- -- -- --  -- -- -- -- -- -- -- --
0000: 00                                                .               
```

#### Opcodes

```
  0: 0x0000 [0x00] END_REQSTACK()
```

### Event 232

#### Metadata

| Field        | Value   |
|--------------|---------|
| Entrypoint   | 0x0001  |
| Data Size    | 1 bytes |
| Instructions | 1       |

```
      00 01 02 03 04 05 06 07  08 09 0A 0B 0C 0D 0E 0F
      -- -- -- -- -- -- -- --  -- -- -- -- -- -- -- --
0000:    00                                              .              
```

#### Opcodes

```
  0: 0x0001 [0x00] END_REQSTACK()
```

### Event 234

#### Metadata

| Field        | Value   |
|--------------|---------|
| Entrypoint   | 0x0002  |
| Data Size    | 1 bytes |
| Instructions | 1       |

```
      00 01 02 03 04 05 06 07  08 09 0A 0B 0C 0D 0E 0F
      -- -- -- -- -- -- -- --  -- -- -- -- -- -- -- --
0000:       00                                            .             
```

#### Opcodes

```
  0: 0x0002 [0x00] END_REQSTACK()
```

### Event 65535.1

#### Metadata

| Field        | Value    |
|--------------|----------|
| Entrypoint   | 0x0003   |
| Data Size    | 22 bytes |
| Instructions | 5        |

```
      00 01 02 03 04 05 06 07  08 09 0A 0B 0C 0D 0E 0F
      -- -- -- -- -- -- -- --  -- -- -- -- -- -- -- --
0000:          33 01 37 00 80  01 80 02 80 03 80 D8 03     3.7..........
0010: DB F1 06 01 04 80 22 01  00                       ......"..       
```

#### Opcodes

```
  0: 0x0003 [0x33] EventEntity->Render.Flags0 |= 0x200000 // Bit 21 (flag=0x01)
  1: 0x0005 [0x37] UPDATE_EVENT_POSITION_AND_DIR: x=194.158*, z=283.027*, y=-39.700*, direction=242.2째*
  2: 0x000E [0xD8] SET_ENTITY_EVENT_DIR: Set Unnamed NPC (ID: 17232347/0x0106F1DB) EventDir[2] = 200*
  3: 0x0016 [0x22] ENTITY_HIDE_FLAG(enabled=0x01)
  4: 0x0018 [0x00] END_REQSTACK()
```

### Event 65535.2

#### Metadata

| Field        | Value    |
|--------------|----------|
| Entrypoint   | 0x0019   |
| Data Size    | 22 bytes |
| Instructions | 5        |

```
      00 01 02 03 04 05 06 07  08 09 0A 0B 0C 0D 0E 0F
      -- -- -- -- -- -- -- --  -- -- -- -- -- -- -- --
0010:                             33 01 37 05 80 06 80           3.7....
0020: 07 80 03 80 D8 03 DB F1  06 01 04 80 22 00 00     ............".. 
```

#### Opcodes

```
  0: 0x0019 [0x33] EventEntity->Render.Flags0 |= 0x200000 // Bit 21 (flag=0x01)
  1: 0x001B [0x37] UPDATE_EVENT_POSITION_AND_DIR: x=205.996*, z=282.583*, y=-39.601*, direction=242.2째*
  2: 0x0024 [0xD8] SET_ENTITY_EVENT_DIR: Set Unnamed NPC (ID: 17232347/0x0106F1DB) EventDir[2] = 200*
  3: 0x002C [0x22] ENTITY_HIDE_FLAG(enabled=0x00)
  4: 0x002E [0x00] END_REQSTACK()
```

### Event 65535.3

#### Metadata

| Field        | Value    |
|--------------|----------|
| Entrypoint   | 0x002F   |
| Data Size    | 22 bytes |
| Instructions | 5        |

```
      00 01 02 03 04 05 06 07  08 09 0A 0B 0C 0D 0E 0F
      -- -- -- -- -- -- -- --  -- -- -- -- -- -- -- --
0020:                                               33                 3
0030: 01 37 08 80 09 80 0A 80  0B 80 D8 03 DB F1 06 01  .7..............
0040: 0C 80 22 00 00                                    .."..           
```

#### Opcodes

```
  0: 0x002F [0x33] EventEntity->Render.Flags0 |= 0x200000 // Bit 21 (flag=0x01)
  1: 0x0031 [0x37] UPDATE_EVENT_POSITION_AND_DIR: x=241.500*, z=237.212*, y=0.600*, direction=226.3째*
  2: 0x003A [0xD8] SET_ENTITY_EVENT_DIR: Set Unnamed NPC (ID: 17232347/0x0106F1DB) EventDir[2] = 4294966896*
  3: 0x0042 [0x22] ENTITY_HIDE_FLAG(enabled=0x00)
  4: 0x0044 [0x00] END_REQSTACK()
```

### Event 65535.4

#### Metadata

| Field        | Value    |
|--------------|----------|
| Entrypoint   | 0x0045   |
| Data Size    | 20 bytes |
| Instructions | 4        |

```
      00 01 02 03 04 05 06 07  08 09 0A 0B 0C 0D 0E 0F
      -- -- -- -- -- -- -- --  -- -- -- -- -- -- -- --
0040:                33 01 37  0D 80 0E 80 0F 80 10 80       3.7........
0050: D8 03 DB F1 06 01 11 80  00                       .........       
```

#### Opcodes

```
  0: 0x0045 [0x33] EventEntity->Render.Flags0 |= 0x200000 // Bit 21 (flag=0x01)
  1: 0x0047 [0x37] UPDATE_EVENT_POSITION_AND_DIR: x=244.076*, z=243.268*, y=0.300*, direction=228.5째*
  2: 0x0050 [0xD8] SET_ENTITY_EVENT_DIR: Set Unnamed NPC (ID: 17232347/0x0106F1DB) EventDir[2] = 4294967096*
  3: 0x0058 [0x00] END_REQSTACK()
```
