# 17232287 - Mirror Pond

## Common Data

| Field            | Value                        |
|------------------|------------------------------|
| Zone             | Beaucedine Glacier (ID: 111) |
| Block Size       | 19540 bytes                  |
| Total Events     | 3                            |
| References Count | 246                          |

## List of Events

| Event ID              | Entrypoint   |   Size |   Instructions |
|-----------------------|--------------|--------|----------------|
| [65535](#event-65535) | 0x0000       |      1 |              1 |
| [151](#event-151)     | 0x0001       |      1 |              1 |
| [152](#event-152)     | 0x0002       |  18524 |           3182 |

## DAT References (imed_data)

|   Index | Hex Value   |   Dec Value |
|---------|-------------|-------------|
|       0 | 0x0000      |           0 |
|       1 | 0x0001      |           1 |
|       2 | 0x0002      |           2 |
|       3 | 0x0003      |           3 |
|       4 | 0x0004      |           4 |
|       5 | 0x0005      |           5 |
|       6 | 0x0006      |           6 |
|       7 | 0x0007      |           7 |
|       8 | 0x005F      |          95 |
|       9 | 0x0064      |         100 |
|      10 | 0x0069      |         105 |
|      11 | 0x0052      |          82 |
|      12 | 0x0057      |          87 |
|      13 | 0x005C      |          92 |
|      14 | 0x0059      |          89 |
|      15 | 0x005D      |          93 |
|      16 | 0x0061      |          97 |
|      17 | 0x0060      |          96 |
|      18 | 0x0008      |           8 |
|      19 | 0x0009      |           9 |
|      20 | 0x000A      |          10 |
|      21 | 0x000D      |          13 |
|      22 | 0x0012      |          18 |
|      23 | 0x0013      |          19 |
|      24 | 0x0014      |          20 |
|      25 | 0x0017      |          23 |
|      26 | 0x000C      |          12 |
|      27 | 0x000F      |          15 |
|      28 | 0x000E      |          14 |
|      29 | 0x000B      |          11 |
|      30 | 0x0018      |          24 |
|      31 | 0x001F      |          31 |
|      32 | 0x001B      |          27 |
|      33 | 0x0010      |          16 |
|      34 | 0x0015      |          21 |
|      35 | 0x018D      |         397 |
|      36 | 0x0175      |         373 |
|      37 | 0x0170      |         368 |
|      38 | 0x0171      |         369 |
|      39 | 0x014C      |         332 |
|      40 | 0x01C1      |         449 |
|      41 | 0x027C      |         636 |
|      42 | 0x027B      |         635 |
|      43 | 0x027D      |         637 |
|      44 | 0x02D3      |         723 |
|      45 | 0x0321      |         801 |
|      46 | 0x0326      |         806 |
|      47 | 0x01E1      |         481 |
|      48 | 0x0343      |         835 |
|      49 | 0x0386      |         902 |
|      50 | 0x0388      |         904 |
|      51 | 0x0361      |         865 |
|      52 | 0x0387      |         903 |
|      53 | 0x038A      |         906 |
|      54 | 0x003F      |          63 |
|      55 | 0x0282      |         642 |
|      56 | 0x0283      |         643 |
|      57 | 0x0288      |         648 |
|      58 | 0x0289      |         649 |
|      59 | 0x028A      |         650 |
|      60 | 0x028B      |         651 |
|      61 | 0x029E      |         670 |
|      62 | 0x0019      |          25 |
|      63 | 0x00C6      |         198 |
|      64 | 0x0032      |          50 |
|      65 | 0x00B5      |         181 |
|      66 | 0x008C      |         140 |
|      67 | 0x008E      |         142 |
|      68 | 0x007A      |         122 |
|      69 | 0x014B      |         331 |
|      70 | 0x0148      |         328 |
|      71 | 0x0166      |         358 |
|      72 | 0x017A      |         378 |
|      73 | 0x0182      |         386 |
|      74 | 0x0183      |         387 |
|      75 | 0x0192      |         402 |
|      76 | 0x01DF      |         479 |
|      77 | 0x01E9      |         489 |
|      78 | 0x001C      |          28 |
|      79 | 0x00E6      |         230 |
|      80 | 0x00EB      |         235 |
|      81 | 0x00F5      |         245 |
|      82 | 0x007E      |         126 |
|      83 | 0x007F      |         127 |
|      84 | 0x00F3      |         243 |
|      85 | 0x00F4      |         244 |
|      86 | 0x00E0      |         224 |
|      87 | 0x00E9      |         233 |
|      88 | 0x009E      |         158 |
|      89 | 0x009D      |         157 |
|      90 | 0x00E2      |         226 |
|      91 | 0x00E1      |         225 |
|      92 | 0x014F      |         335 |
|      93 | 0x014E      |         334 |
|      94 | 0x0167      |         359 |
|      95 | 0x00E5      |         229 |
|      96 | 0x0169      |         361 |
|      97 | 0x016A      |         362 |
|      98 | 0x0168      |         360 |
|      99 | 0x0133      |         307 |
|     100 | 0x0174      |         372 |
|     101 | 0x018C      |         396 |
|     102 | 0x0194      |         404 |
|     103 | 0x0195      |         405 |
|     104 | 0x0178      |         376 |
|     105 | 0x0240      |         576 |
|     106 | 0x0197      |         407 |
|     107 | 0x0198      |         408 |
|     108 | 0x01A3      |         419 |
|     109 | 0x019E      |         414 |
|     110 | 0x0246      |         582 |
|     111 | 0x0247      |         583 |
|     112 | 0x0248      |         584 |
|     113 | 0x024B      |         587 |
|     114 | 0x024A      |         586 |
|     115 | 0x0011      |          17 |
|     116 | 0x024F      |         591 |
|     117 | 0x01C3      |         451 |
|     118 | 0x01C4      |         452 |
|     119 | 0x01EF      |         495 |
|     120 | 0x01F0      |         496 |
|     121 | 0x001A      |          26 |
|     122 | 0x0095      |         149 |
|     123 | 0x001D      |          29 |
|     124 | 0x0073      |         115 |
|     125 | 0x0034      |          52 |
|     126 | 0x0024      |          36 |
|     127 | 0x005E      |          94 |
|     128 | 0x0072      |         114 |
|     129 | 0x0031      |          49 |
|     130 | 0x006C      |         108 |
|     131 | 0x003A      |          58 |
|     132 | 0x0096      |         150 |
|     133 | 0x0016      |          22 |
|     134 | 0x0035      |          53 |
|     135 | 0x0085      |         133 |
|     136 | 0x0081      |         129 |
|     137 | 0x0023      |          35 |
|     138 | 0x0033      |          51 |
|     139 | 0x0082      |         130 |
|     140 | 0x0039      |          57 |
|     141 | 0x0020      |          32 |
|     142 | 0x0038      |          56 |
|     143 | 0x0036      |          54 |
|     144 | 0x0083      |         131 |
|     145 | 0x00A2      |         162 |
|     146 | 0x0022      |          34 |
|     147 | 0x0021      |          33 |
|     148 | 0x0065      |         101 |
|     149 | 0x0086      |         134 |
|     150 | 0x0062      |          98 |
|     151 | 0x008D      |         141 |
|     152 | 0x0037      |          55 |
|     153 | 0x008A      |         138 |
|     154 | 0x008B      |         139 |
|     155 | 0x002B      |          43 |
|     156 | 0x0067      |         103 |
|     157 | 0x0030      |          48 |
|     158 | 0x002D      |          45 |
|     159 | 0x00A1      |         161 |
|     160 | 0x0066      |         102 |
|     161 | 0x0075      |         117 |
|     162 | 0x0068      |         104 |
|     163 | 0x007B      |         123 |
|     164 | 0x0077      |         119 |
|     165 | 0x01FE      |         510 |
|     166 | 0x009F      |         159 |
|     167 | 0x00A4      |         164 |
|     168 | 0x00A9      |         169 |
|     169 | 0x00AC      |         172 |
|     170 | 0x00B2      |         178 |
|     171 | 0x00B0      |         176 |
|     172 | 0x013D      |         317 |
|     173 | 0x0108      |         264 |
|     174 | 0x010C      |         268 |
|     175 | 0x0100      |         256 |
|     176 | 0x00FB      |         251 |
|     177 | 0x00B8      |         184 |
|     178 | 0x011C      |         284 |
|     179 | 0x0041      |          65 |
|     180 | 0x0042      |          66 |
|     181 | 0x0047      |          71 |
|     182 | 0x0160      |         352 |
|     183 | 0x0043      |          67 |
|     184 | 0x0048      |          72 |
|     185 | 0x004B      |          75 |
|     186 | 0x004C      |          76 |
|     187 | 0x004D      |          77 |
|     188 | 0x005B      |          91 |
|     189 | 0x0058      |          88 |
|     190 | 0x0053      |          83 |
|     191 | 0x0054      |          84 |
|     192 | 0x0161      |         353 |
|     193 | 0x015C      |         348 |
|     194 | 0x016D      |         365 |
|     195 | 0x00C5      |         197 |
|     196 | 0x00C3      |         195 |
|     197 | 0x00C7      |         199 |
|     198 | 0x015E      |         350 |
|     199 | 0x00C4      |         196 |
|     200 | 0x016E      |         366 |
|     201 | 0x00D0      |         208 |
|     202 | 0x00CD      |         205 |
|     203 | 0x00CA      |         202 |
|     204 | 0x00D2      |         210 |
|     205 | 0x00D8      |         216 |
|     206 | 0x00D5      |         213 |
|     207 | 0x00D6      |         214 |
|     208 | 0x013B      |         315 |
|     209 | 0x0136      |         310 |
|     210 | 0x013A      |         314 |
|     211 | 0x0137      |         311 |
|     212 | 0x016F      |         367 |
|     213 | 0x0138      |         312 |
|     214 | 0x0139      |         313 |
|     215 | 0x009A      |         154 |
|     216 | 0x0091      |         145 |
|     217 | 0x009B      |         155 |
|     218 | 0x0099      |         153 |
|     219 | 0x0093      |         147 |
|     220 | 0x0092      |         146 |
|     221 | 0x0098      |         152 |
|     222 | 0x0071      |         113 |
|     223 | 0x00E8      |         232 |
|     224 | 0x00DD      |         221 |
|     225 | 0x00F8      |         248 |
|     226 | 0x00F1      |         241 |
|     227 | 0x0124      |         292 |
|     228 | 0x012E      |         302 |
|     229 | 0x0129      |         297 |
|     230 | 0x0122      |         290 |
|     231 | 0x0132      |         306 |
|     232 | 0x0126      |         294 |
|     233 | 0x0155      |         341 |
|     234 | 0x0025      |          37 |
|     235 | 0x0029      |          41 |
|     236 | 0x0028      |          40 |
|     237 | 0x007D      |         125 |
|     238 | 0x0079      |         121 |
|     239 | 0x007C      |         124 |
|     240 | 0x0074      |         116 |
|     241 | 0x00EC      |         236 |
|     242 | 0x019C      |         412 |
|     243 | 0x0193      |         403 |
|     244 | 0x01C6      |         454 |
|     245 | 0x01C7      |         455 |

## Events

### Event 65535

#### Metadata

| Field        | Value   |
|--------------|---------|
| Entrypoint   | 0x0000  |
| Data Size    | 1 bytes |
| Instructions | 1       |

```
      00 01 02 03 04 05 06 07  08 09 0A 0B 0C 0D 0E 0F
      -- -- -- -- -- -- -- --  -- -- -- -- -- -- -- --
0000: 00                                                .               
```

#### Opcodes

```
  0: 0x0000 [0x00] END_REQSTACK()
```

### Event 151

#### Metadata

| Field        | Value   |
|--------------|---------|
| Entrypoint   | 0x0001  |
| Data Size    | 1 bytes |
| Instructions | 1       |

```
      00 01 02 03 04 05 06 07  08 09 0A 0B 0C 0D 0E 0F
      -- -- -- -- -- -- -- --  -- -- -- -- -- -- -- --
0000:    00                                              .              
```

#### Opcodes

```
  0: 0x0001 [0x00] END_REQSTACK()
```

### Event 152

#### Metadata

| Field        | Value       |
|--------------|-------------|
| Entrypoint   | 0x0002      |
| Data Size    | 18524 bytes |
| Instructions | 1           |

```
      00 01 02 03 04 05 06 07  08 09 0A 0B 0C 0D 0E 0F
      -- -- -- -- -- -- -- --  -- -- -- -- -- -- -- --
0000:       00 03 02 00 00 80  1A 4E 14 1A 58 14 02 0B    .......N..X...
0010: 00 00 80 80 11 01 02 01  00 00 80 80 35 00 B4 00  ............5...
0020: 02 00 46 65 6C 69 7A 00  00 00 00 00 00 00 00 00  ..Feliz.........
0030: 00 00 01 0E 01 02 01 00  01 80 80 54 00 B4 00 02  ...........T....
0040: 00 46 65 72 64 69 6E 61  6E 64 00 00 00 00 00 00  .Ferdinand......
0050: 00 01 0E 01 02 01 00 02  80 80 73 00 B4 00 02 00  ..........s.....
0060: 47 75 6E 6E 61 72 00 00  00 00 00 00 00 00 00 00  Gunnar..........
0070: 01 0E 01 02 01 00 03 80  80 92 00 B4 00 02 00 4D  ...............M
0080: 61 73 73 69 6D 6F 00 00  00 00 00 00 00 00 00 01  assimo..........
0090: 0E 01 02 01 00 04 80 80  B1 00 B4 00 02 00 4F 6C  ..............Ol
00A0: 64 72 69 63 68 00 00 00  00 00 00 00 00 00 01 0E  drich...........
00B0: 01 02 01 00 05 80 80 D0  00 B4 00 02 00 53 69 65  .............Sie
00C0: 67 77 61 72 64 00 00 00  00 00 00 00 00 01 0E 01  gward...........
00D0: 02 01 00 06 80 80 EF 00  B4 00 02 00 54 68 65 6F  ............Theo
00E0: 62 61 6C 64 00 00 00 00  00 00 00 00 01 0E 01 02  bald............
00F0: 01 00 07 80 80 0E 01 B4  00 02 00 5A 65 6E 6A 69  ...........Zenji
0100: 00 00 00 00 00 00 00 00  00 00 00 01 0E 01 01 26  ...............&
0110: 08 02 0B 00 01 80 80 14  02 02 01 00 00 80 80 38  ...............8
0120: 01 B4 00 02 00 41 6D 65  72 69 74 61 00 00 00 00  .....Amerita....
0130: 00 00 00 00 00 01 11 02  02 01 00 01 80 80 57 01  ..............W.
0140: B4 00 02 00 42 65 61 74  72 69 63 65 00 00 00 00  ....Beatrice....
0150: 00 00 00 00 01 11 02 02  01 00 02 80 80 76 01 B4  .............v..
0160: 00 02 00 48 65 6E 72 69  65 74 74 61 00 00 00 00  ...Henrietta....
0170: 00 00 00 01 11 02 02 01  00 03 80 80 95 01 B4 00  ................
0180: 02 00 4A 65 73 69 6D 61  65 00 00 00 00 00 00 00  ..Jesimae.......
0190: 00 00 01 11 02 02 01 00  04 80 80 B4 01 B4 00 02  ................
01A0: 00 4B 61 72 79 6E 00 00  00 00 00 00 00 00 00 00  .Karyn..........
01B0: 00 01 11 02 02 01 00 05  80 80 D3 01 B4 00 02 00  ................
01C0: 4E 61 6E 61 6B 6F 00 00  00 00 00 00 00 00 00 00  Nanako..........
01D0: 01 11 02 02 01 00 06 80  80 F2 01 B4 00 02 00 53  ...............S
01E0: 68 61 72 6C 65 6E 65 00  00 00 00 00 00 00 00 01  harlene.........
01F0: 11 02 02 01 00 07 80 80  11 02 B4 00 02 00 53 69  ..............Si
0200: 65 67 68 69 6C 64 65 00  00 00 00 00 00 00 01 11  eghilde.........
0210: 02 01 26 08 02 0B 00 02  80 80 17 03 02 01 00 00  ..&.............
0220: 80 80 3B 02 B4 00 02 00  43 68 61 6E 61 6E 64 69  ..;.....Chanandi
0230: 74 00 00 00 00 00 00 00  01 14 03 02 01 00 01 80  t...............
0240: 80 5A 02 B4 00 02 00 44  65 75 6C 6D 61 65 75 78  .Z.....Deulmaeux
0250: 00 00 00 00 00 00 00 01  14 03 02 01 00 02 80 80  ................
0260: 79 02 B4 00 02 00 44 65  6D 72 65 73 69 6E 61 75  y.....Demresinau
0270: 78 00 00 00 00 00 01 14  03 02 01 00 03 80 80 98  x...............
0280: 02 B4 00 02 00 45 70 68  65 61 6C 67 61 75 78 00  .....Ephealgaux.
0290: 00 00 00 00 00 01 14 03  02 01 00 04 80 80 B7 02  ................
02A0: B4 00 02 00 47 61 75 6C  64 65 76 61 6C 00 00 00  ....Gauldeval...
02B0: 00 00 00 00 01 14 03 02  01 00 05 80 80 D6 02 B4  ................
02C0: 00 02 00 47 72 61 75 66  66 65 6D 61 72 74 00 00  ...Grauffemart..
02D0: 00 00 00 01 14 03 02 01  00 06 80 80 F5 02 B4 00  ................
02E0: 02 00 4D 69 67 61 69 66  6F 6E 67 75 74 00 00 00  ..Migaifongut...
02F0: 00 00 01 14 03 02 01 00  07 80 80 14 03 B4 00 02  ................
0300: 00 52 6F 6D 69 64 69 61  6E 74 00 00 00 00 00 00  .Romidiant......
0310: 00 01 14 03 01 26 08 02  0B 00 03 80 80 1A 04 02  .....&..........
0320: 01 00 00 80 80 3E 03 B4  00 02 00 41 72 6D 69 74  .....>.....Armit
0330: 74 69 65 00 00 00 00 00  00 00 00 01 17 04 02 01  tie.............
0340: 00 01 80 80 5D 03 B4 00  02 00 43 61 64 65 70 75  ....].....Cadepu
0350: 72 65 00 00 00 00 00 00  00 00 01 17 04 02 01 00  re..............
0360: 02 80 80 7C 03 B4 00 02  00 43 6C 65 61 72 69 74  ...|.....Clearit
0370: 65 00 00 00 00 00 00 00  00 01 17 04 02 01 00 03  e...............
0380: 80 80 9B 03 B4 00 02 00  45 70 69 6C 6C 65 76 65  ........Epilleve
0390: 00 00 00 00 00 00 00 00  01 17 04 02 01 00 04 80  ................
03A0: 80 BA 03 B4 00 02 00 4C  69 61 62 65 6C 6C 65 00  .......Liabelle.
03B0: 00 00 00 00 00 00 00 01  17 04 02 01 00 05 80 80  ................
03C0: D9 03 B4 00 02 00 4E 61  75 74 68 69 6D 61 00 00  ......Nauthima..
03D0: 00 00 00 00 00 00 01 17  04 02 01 00 06 80 80 F8  ................
03E0: 03 B4 00 02 00 52 61 64  69 6C 6C 65 00 00 00 00  .....Radille....
03F0: 00 00 00 00 00 01 17 04  02 01 00 07 80 80 17 04  ................
0400: B4 00 02 00 56 69 6D 65  63 68 75 65 00 00 00 00  ....Vimechue....
0410: 00 00 00 00 01 17 04 01  26 08 02 0B 00 04 80 80  ........&.......
0420: 1D 05 02 01 00 00 80 80  41 04 B4 00 02 00 42 61  ........A.....Ba
0430: 6C 75 2D 46 61 6C 75 00  00 00 00 00 00 00 01 1A  lu-Falu.........
0440: 05 02 01 00 01 80 80 60  04 B4 00 02 00 42 75 72  .......`.....Bur
0450: 67 2D 4C 61 64 61 72 67  00 00 00 00 00 01 1A 05  g-Ladarg........
0460: 02 01 00 02 80 80 7F 04  B4 00 02 00 45 68 67 6F  ............Ehgo
0470: 2D 52 79 75 68 67 6F 00  00 00 00 00 01 1A 05 02  -Ryuhgo.........
0480: 01 00 03 80 80 9E 04 B4  00 02 00 4B 6F 6C 75 69  ...........Kolui
0490: 2D 50 65 6C 75 69 00 00  00 00 00 01 1A 05 02 01  -Pelui..........
04A0: 00 04 80 80 BD 04 B4 00  02 00 4E 6F 6B 75 6D 2D  ..........Nokum-
04B0: 41 6B 6B 75 6D 00 00 00  00 00 01 1A 05 02 01 00  Akkum...........
04C0: 05 80 80 DC 04 B4 00 02  00 53 61 76 75 6C 2D 4B  .........Savul-K
04D0: 69 76 75 6C 00 00 00 00  00 01 1A 05 02 01 00 06  ivul............
04E0: 80 80 FB 04 B4 00 02 00  56 69 6E 6A 61 2D 4B 61  ........Vinja-Ka
04F0: 6E 6A 61 00 00 00 00 00  01 1A 05 02 01 00 07 80  nja.............
0500: 80 1A 05 B4 00 02 00 59  61 72 67 61 2D 55 6D 69  .......Yarga-Umi
0510: 67 61 00 00 00 00 00 01  1A 05 01 26 08 02 0B 00  ga.........&....
0520: 05 80 80 20 06 02 01 00  00 80 80 44 05 B4 00 02  ... .......D....
0530: 00 43 75 70 61 70 61 00  00 00 00 00 00 00 00 00  .Cupapa.........
0540: 00 01 1D 06 02 01 00 01  80 80 63 05 B4 00 02 00  ..........c.....
0550: 4A 61 6A 75 6A 75 00 00  00 00 00 00 00 00 00 00  Jajuju..........
0560: 01 1D 06 02 01 00 02 80  80 82 05 B4 00 02 00 4B  ...............K
0570: 61 6C 6F 6B 6F 6B 6F 00  00 00 00 00 00 00 00 01  alokoko.........
0580: 1D 06 02 01 00 03 80 80  A1 05 B4 00 02 00 4D 61  ..............Ma
0590: 68 6F 79 61 79 61 00 00  00 00 00 00 00 00 01 1D  hoyaya..........
05A0: 06 02 01 00 04 80 80 C0  05 B4 00 02 00 50 61 6B  .............Pak
05B0: 75 72 61 72 61 00 00 00  00 00 00 00 00 01 1D 06  urara...........
05C0: 02 01 00 05 80 80 DF 05  B4 00 02 00 52 69 70 6F  ............Ripo
05D0: 6B 65 6B 65 00 00 00 00  00 00 00 00 01 1D 06 02  keke............
05E0: 01 00 06 80 80 FE 05 B4  00 02 00 59 61 77 61 77  ...........Yawaw
05F0: 61 00 00 00 00 00 00 00  00 00 00 01 1D 06 02 01  a...............
0600: 00 07 80 80 1D 06 B4 00  02 00 59 75 66 61 66 61  ..........Yufafa
0610: 00 00 00 00 00 00 00 00  00 00 01 1D 06 01 26 08  ..............&.
0620: 02 0B 00 06 80 80 23 07  02 01 00 00 80 80 47 06  ......#.......G.
0630: B4 00 02 00 46 68 69 67  00 00 00 00 00 00 00 00  ....Fhig........
0640: 00 00 00 00 01 20 07 02  01 00 01 80 80 66 06 B4  ..... .......f..
0650: 00 02 00 4B 68 75 6D 61  00 00 00 00 00 00 00 00  ...Khuma........
0660: 00 00 00 01 20 07 02 01  00 02 80 80 85 06 B4 00  .... ...........
0670: 02 00 50 69 6D 79 00 00  00 00 00 00 00 00 00 00  ..Pimy..........
0680: 00 00 01 20 07 02 01 00  03 80 80 A4 06 B4 00 02  ... ............
0690: 00 52 61 6B 61 00 00 00  00 00 00 00 00 00 00 00  .Raka...........
06A0: 00 01 20 07 02 01 00 04  80 80 C3 06 B4 00 02 00  .. .............
06B0: 53 61 68 79 75 00 00 00  00 00 00 00 00 00 00 00  Sahyu...........
06C0: 01 20 07 02 01 00 05 80  80 E2 06 B4 00 02 00 53  . .............S
06D0: 75 66 68 69 00 00 00 00  00 00 00 00 00 00 00 01  ufhi............
06E0: 20 07 02 01 00 06 80 80  01 07 B4 00 02 00 54 73   .............Ts
06F0: 75 69 6D 00 00 00 00 00  00 00 00 00 00 00 01 20  uim............ 
0700: 07 02 01 00 07 80 80 20  07 B4 00 02 00 59 6F 6C  ....... .....Yol
0710: 69 00 00 00 00 00 00 00  00 00 00 00 00 01 20 07  i............. .
0720: 01 26 08 02 0B 00 07 80  80 26 08 02 01 00 00 80  .&.......&......
0730: 80 4A 07 B4 00 02 00 44  75 72 69 62 00 00 00 00  .J.....Durib....
0740: 00 00 00 00 00 00 00 01  23 08 02 01 00 01 80 80  ........#.......
0750: 69 07 B4 00 02 00 44 7A  61 70 69 77 61 00 00 00  i.....Dzapiwa...
0760: 00 00 00 00 00 00 01 23  08 02 01 00 02 80 80 88  .......#........
0770: 07 B4 00 02 00 4A 75 67  6F 77 61 00 00 00 00 00  .....Jugowa.....
0780: 00 00 00 00 00 01 23 08  02 01 00 03 80 80 A7 07  ......#.........
0790: B4 00 02 00 4D 75 67 69  64 6F 00 00 00 00 00 00  ....Mugido......
07A0: 00 00 00 00 01 23 08 02  01 00 04 80 80 C6 07 B4  .....#..........
07B0: 00 02 00 56 6F 6C 64 61  69 00 00 00 00 00 00 00  ...Voldai.......
07C0: 00 00 00 01 23 08 02 01  00 05 80 80 E5 07 B4 00  ....#...........
07D0: 02 00 57 61 67 77 65 69  00 00 00 00 00 00 00 00  ..Wagwei........
07E0: 00 00 01 23 08 02 01 00  06 80 80 04 08 B4 00 02  ...#............
07F0: 00 5A 61 79 61 67 00 00  00 00 00 00 00 00 00 00  .Zayag..........
0800: 00 01 23 08 02 01 00 07  80 80 23 08 B4 00 02 00  ..#.......#.....
0810: 5A 6F 6C 64 6F 66 00 00  00 00 00 00 00 00 00 00  Zoldof..........
0820: 01 23 08 01 26 08 02 02  00 00 80 01 32 08 B5 00  .#..&.......2...
0830: 02 00 1B 03 02 00 00 80  1A 4E 14 1A 58 14 02 0B  .........N..X...
0840: 00 00 80 80 41 09 02 01  00 00 80 80 65 08 B4 00  ....A.......e...
0850: 02 00 46 65 6C 69 7A 00  00 00 00 00 00 00 00 00  ..Feliz.........
0860: 00 00 01 3E 09 02 01 00  01 80 80 84 08 B4 00 02  ...>............
0870: 00 46 65 72 64 69 6E 61  6E 64 00 00 00 00 00 00  .Ferdinand......
0880: 00 01 3E 09 02 01 00 02  80 80 A3 08 B4 00 02 00  ..>.............
0890: 47 75 6E 6E 61 72 00 00  00 00 00 00 00 00 00 00  Gunnar..........
08A0: 01 3E 09 02 01 00 03 80  80 C2 08 B4 00 02 00 4D  .>.............M
08B0: 61 73 73 69 6D 6F 00 00  00 00 00 00 00 00 00 01  assimo..........
08C0: 3E 09 02 01 00 04 80 80  E1 08 B4 00 02 00 4F 6C  >.............Ol
08D0: 64 72 69 63 68 00 00 00  00 00 00 00 00 00 01 3E  drich..........>
08E0: 09 02 01 00 05 80 80 00  09 B4 00 02 00 53 69 65  .............Sie
08F0: 67 77 61 72 64 00 00 00  00 00 00 00 00 01 3E 09  gward.........>.
0900: 02 01 00 06 80 80 1F 09  B4 00 02 00 54 68 65 6F  ............Theo
0910: 62 61 6C 64 00 00 00 00  00 00 00 00 01 3E 09 02  bald.........>..
0920: 01 00 07 80 80 3E 09 B4  00 02 00 5A 65 6E 6A 69  .....>.....Zenji
0930: 00 00 00 00 00 00 00 00  00 00 00 01 3E 09 01 56  ............>..V
0940: 10 02 0B 00 01 80 80 44  0A 02 01 00 00 80 80 68  .......D.......h
0950: 09 B4 00 02 00 41 6D 65  72 69 74 61 00 00 00 00  .....Amerita....
0960: 00 00 00 00 00 01 41 0A  02 01 00 01 80 80 87 09  ......A.........
0970: B4 00 02 00 42 65 61 74  72 69 63 65 00 00 00 00  ....Beatrice....
0980: 00 00 00 00 01 41 0A 02  01 00 02 80 80 A6 09 B4  .....A..........
0990: 00 02 00 48 65 6E 72 69  65 74 74 61 00 00 00 00  ...Henrietta....
09A0: 00 00 00 01 41 0A 02 01  00 03 80 80 C5 09 B4 00  ....A...........
09B0: 02 00 4A 65 73 69 6D 61  65 00 00 00 00 00 00 00  ..Jesimae.......
09C0: 00 00 01 41 0A 02 01 00  04 80 80 E4 09 B4 00 02  ...A............
09D0: 00 4B 61 72 79 6E 00 00  00 00 00 00 00 00 00 00  .Karyn..........
09E0: 00 01 41 0A 02 01 00 05  80 80 03 0A B4 00 02 00  ..A.............
09F0: 4E 61 6E 61 6B 6F 00 00  00 00 00 00 00 00 00 00  Nanako..........
0A00: 01 41 0A 02 01 00 06 80  80 22 0A B4 00 02 00 53  .A.......".....S
0A10: 68 61 72 6C 65 6E 65 00  00 00 00 00 00 00 00 01  harlene.........
0A20: 41 0A 02 01 00 07 80 80  41 0A B4 00 02 00 53 69  A.......A.....Si
0A30: 65 67 68 69 6C 64 65 00  00 00 00 00 00 00 01 41  eghilde........A
0A40: 0A 01 56 10 02 0B 00 02  80 80 47 0B 02 01 00 00  ..V.......G.....
0A50: 80 80 6B 0A B4 00 02 00  43 68 61 6E 61 6E 64 69  ..k.....Chanandi
0A60: 74 00 00 00 00 00 00 00  01 44 0B 02 01 00 01 80  t........D......
0A70: 80 8A 0A B4 00 02 00 44  65 75 6C 6D 61 65 75 78  .......Deulmaeux
0A80: 00 00 00 00 00 00 00 01  44 0B 02 01 00 02 80 80  ........D.......
0A90: A9 0A B4 00 02 00 44 65  6D 72 65 73 69 6E 61 75  ......Demresinau
0AA0: 78 00 00 00 00 00 01 44  0B 02 01 00 03 80 80 C8  x......D........
0AB0: 0A B4 00 02 00 45 70 68  65 61 6C 67 61 75 78 00  .....Ephealgaux.
0AC0: 00 00 00 00 00 01 44 0B  02 01 00 04 80 80 E7 0A  ......D.........
0AD0: B4 00 02 00 47 61 75 6C  64 65 76 61 6C 00 00 00  ....Gauldeval...
0AE0: 00 00 00 00 01 44 0B 02  01 00 05 80 80 06 0B B4  .....D..........
0AF0: 00 02 00 47 72 61 75 66  66 65 6D 61 72 74 00 00  ...Grauffemart..
0B00: 00 00 00 01 44 0B 02 01  00 06 80 80 25 0B B4 00  ....D.......%...
0B10: 02 00 4D 69 67 61 69 66  6F 6E 67 75 74 00 00 00  ..Migaifongut...
0B20: 00 00 01 44 0B 02 01 00  07 80 80 44 0B B4 00 02  ...D.......D....
0B30: 00 52 6F 6D 69 64 69 61  6E 74 00 00 00 00 00 00  .Romidiant......
0B40: 00 01 44 0B 01 56 10 02  0B 00 03 80 80 4A 0C 02  ..D..V.......J..
0B50: 01 00 00 80 80 6E 0B B4  00 02 00 41 72 6D 69 74  .....n.....Armit
0B60: 74 69 65 00 00 00 00 00  00 00 00 01 47 0C 02 01  tie.........G...
0B70: 00 01 80 80 8D 0B B4 00  02 00 43 61 64 65 70 75  ..........Cadepu
0B80: 72 65 00 00 00 00 00 00  00 00 01 47 0C 02 01 00  re.........G....
0B90: 02 80 80 AC 0B B4 00 02  00 43 6C 65 61 72 69 74  .........Clearit
0BA0: 65 00 00 00 00 00 00 00  00 01 47 0C 02 01 00 03  e.........G.....
0BB0: 80 80 CB 0B B4 00 02 00  45 70 69 6C 6C 65 76 65  ........Epilleve
0BC0: 00 00 00 00 00 00 00 00  01 47 0C 02 01 00 04 80  .........G......
0BD0: 80 EA 0B B4 00 02 00 4C  69 61 62 65 6C 6C 65 00  .......Liabelle.
0BE0: 00 00 00 00 00 00 00 01  47 0C 02 01 00 05 80 80  ........G.......
0BF0: 09 0C B4 00 02 00 4E 61  75 74 68 69 6D 61 00 00  ......Nauthima..
0C00: 00 00 00 00 00 00 01 47  0C 02 01 00 06 80 80 28  .......G.......(
0C10: 0C B4 00 02 00 52 61 64  69 6C 6C 65 00 00 00 00  .....Radille....
0C20: 00 00 00 00 00 01 47 0C  02 01 00 07 80 80 47 0C  ......G.......G.
0C30: B4 00 02 00 56 69 6D 65  63 68 75 65 00 00 00 00  ....Vimechue....
0C40: 00 00 00 00 01 47 0C 01  56 10 02 0B 00 04 80 80  .....G..V.......
0C50: 4D 0D 02 01 00 00 80 80  71 0C B4 00 02 00 42 61  M.......q.....Ba
0C60: 6C 75 2D 46 61 6C 75 00  00 00 00 00 00 00 01 4A  lu-Falu........J
0C70: 0D 02 01 00 01 80 80 90  0C B4 00 02 00 42 75 72  .............Bur
0C80: 67 2D 4C 61 64 61 72 67  00 00 00 00 00 01 4A 0D  g-Ladarg......J.
0C90: 02 01 00 02 80 80 AF 0C  B4 00 02 00 45 68 67 6F  ............Ehgo
0CA0: 2D 52 79 75 68 67 6F 00  00 00 00 00 01 4A 0D 02  -Ryuhgo......J..
0CB0: 01 00 03 80 80 CE 0C B4  00 02 00 4B 6F 6C 75 69  ...........Kolui
0CC0: 2D 50 65 6C 75 69 00 00  00 00 00 01 4A 0D 02 01  -Pelui......J...
0CD0: 00 04 80 80 ED 0C B4 00  02 00 4E 6F 6B 75 6D 2D  ..........Nokum-
0CE0: 41 6B 6B 75 6D 00 00 00  00 00 01 4A 0D 02 01 00  Akkum......J....
0CF0: 05 80 80 0C 0D B4 00 02  00 53 61 76 75 6C 2D 4B  .........Savul-K
0D00: 69 76 75 6C 00 00 00 00  00 01 4A 0D 02 01 00 06  ivul......J.....
0D10: 80 80 2B 0D B4 00 02 00  56 69 6E 6A 61 2D 4B 61  ..+.....Vinja-Ka
0D20: 6E 6A 61 00 00 00 00 00  01 4A 0D 02 01 00 07 80  nja......J......
0D30: 80 4A 0D B4 00 02 00 59  61 72 67 61 2D 55 6D 69  .J.....Yarga-Umi
0D40: 67 61 00 00 00 00 00 01  4A 0D 01 56 10 02 0B 00  ga......J..V....
0D50: 05 80 80 50 0E 02 01 00  00 80 80 74 0D B4 00 02  ...P.......t....
0D60: 00 43 75 70 61 70 61 00  00 00 00 00 00 00 00 00  .Cupapa.........
0D70: 00 01 4D 0E 02 01 00 01  80 80 93 0D B4 00 02 00  ..M.............
0D80: 4A 61 6A 75 6A 75 00 00  00 00 00 00 00 00 00 00  Jajuju..........
0D90: 01 4D 0E 02 01 00 02 80  80 B2 0D B4 00 02 00 4B  .M.............K
0DA0: 61 6C 6F 6B 6F 6B 6F 00  00 00 00 00 00 00 00 01  alokoko.........
0DB0: 4D 0E 02 01 00 03 80 80  D1 0D B4 00 02 00 4D 61  M.............Ma
0DC0: 68 6F 79 61 79 61 00 00  00 00 00 00 00 00 01 4D  hoyaya.........M
0DD0: 0E 02 01 00 04 80 80 F0  0D B4 00 02 00 50 61 6B  .............Pak
0DE0: 75 72 61 72 61 00 00 00  00 00 00 00 00 01 4D 0E  urara.........M.
0DF0: 02 01 00 05 80 80 0F 0E  B4 00 02 00 52 69 70 6F  ............Ripo
0E00: 6B 65 6B 65 00 00 00 00  00 00 00 00 01 4D 0E 02  keke.........M..
0E10: 01 00 06 80 80 2E 0E B4  00 02 00 59 61 77 61 77  ...........Yawaw
0E20: 61 00 00 00 00 00 00 00  00 00 00 01 4D 0E 02 01  a...........M...
0E30: 00 07 80 80 4D 0E B4 00  02 00 59 75 66 61 66 61  ....M.....Yufafa
0E40: 00 00 00 00 00 00 00 00  00 00 01 4D 0E 01 56 10  ...........M..V.
0E50: 02 0B 00 06 80 80 53 0F  02 01 00 00 80 80 77 0E  ......S.......w.
0E60: B4 00 02 00 46 68 69 67  00 00 00 00 00 00 00 00  ....Fhig........
0E70: 00 00 00 00 01 50 0F 02  01 00 01 80 80 96 0E B4  .....P..........
0E80: 00 02 00 4B 68 75 6D 61  00 00 00 00 00 00 00 00  ...Khuma........
0E90: 00 00 00 01 50 0F 02 01  00 02 80 80 B5 0E B4 00  ....P...........
0EA0: 02 00 50 69 6D 79 00 00  00 00 00 00 00 00 00 00  ..Pimy..........
0EB0: 00 00 01 50 0F 02 01 00  03 80 80 D4 0E B4 00 02  ...P............
0EC0: 00 52 61 6B 61 00 00 00  00 00 00 00 00 00 00 00  .Raka...........
0ED0: 00 01 50 0F 02 01 00 04  80 80 F3 0E B4 00 02 00  ..P.............
0EE0: 53 61 68 79 75 00 00 00  00 00 00 00 00 00 00 00  Sahyu...........
0EF0: 01 50 0F 02 01 00 05 80  80 12 0F B4 00 02 00 53  .P.............S
0F00: 75 66 68 69 00 00 00 00  00 00 00 00 00 00 00 01  ufhi............
0F10: 50 0F 02 01 00 06 80 80  31 0F B4 00 02 00 54 73  P.......1.....Ts
0F20: 75 69 6D 00 00 00 00 00  00 00 00 00 00 00 01 50  uim............P
0F30: 0F 02 01 00 07 80 80 50  0F B4 00 02 00 59 6F 6C  .......P.....Yol
0F40: 69 00 00 00 00 00 00 00  00 00 00 00 00 01 50 0F  i.............P.
0F50: 01 56 10 02 0B 00 07 80  80 56 10 02 01 00 00 80  .V.......V......
0F60: 80 7A 0F B4 00 02 00 44  75 72 69 62 00 00 00 00  .z.....Durib....
0F70: 00 00 00 00 00 00 00 01  53 10 02 01 00 01 80 80  ........S.......
0F80: 99 0F B4 00 02 00 44 7A  61 70 69 77 61 00 00 00  ......Dzapiwa...
0F90: 00 00 00 00 00 00 01 53  10 02 01 00 02 80 80 B8  .......S........
0FA0: 0F B4 00 02 00 4A 75 67  6F 77 61 00 00 00 00 00  .....Jugowa.....
0FB0: 00 00 00 00 00 01 53 10  02 01 00 03 80 80 D7 0F  ......S.........
0FC0: B4 00 02 00 4D 75 67 69  64 6F 00 00 00 00 00 00  ....Mugido......
0FD0: 00 00 00 00 01 53 10 02  01 00 04 80 80 F6 0F B4  .....S..........
0FE0: 00 02 00 56 6F 6C 64 61  69 00 00 00 00 00 00 00  ...Voldai.......
0FF0: 00 00 00 01 53 10 02 01  00 05 80 80 15 10 B4 00  ....S...........
1000: 02 00 57 61 67 77 65 69  00 00 00 00 00 00 00 00  ..Wagwei........
1010: 00 00 01 53 10 02 01 00  06 80 80 34 10 B4 00 02  ...S.......4....
1020: 00 5A 61 79 61 67 00 00  00 00 00 00 00 00 00 00  .Zayag..........
1030: 00 01 53 10 02 01 00 07  80 80 53 10 B4 00 02 00  ..S.......S.....
1040: 5A 6F 6C 64 6F 66 00 00  00 00 00 00 00 00 00 00  Zoldof..........
1050: 01 53 10 01 56 10 02 02  00 00 80 01 62 10 B5 00  .S..V.......b...
1060: 02 00 1B 1A 29 14 02 09  00 00 80 02 2E 12 02 0B  ....)...........
1070: 00 00 80 80 A6 10 02 09  00 01 80 80 85 10 B6 0F  ................
1080: 08 80 01 A3 10 02 09 00  02 80 80 94 10 B6 0F 09  ................
1090: 80 01 A3 10 02 09 00 03  80 80 A3 10 B6 0F 0A 80  ................
10A0: 01 A3 10 01 2E 12 02 0B  00 01 80 80 DE 10 02 09  ................
10B0: 00 01 80 80 BD 10 B6 0F  08 80 01 DB 10 02 09 00  ................
10C0: 02 80 80 CC 10 B6 0F 09  80 01 DB 10 02 09 00 03  ................
10D0: 80 80 DB 10 B6 0F 0A 80  01 DB 10 01 2E 12 02 0B  ................
10E0: 00 02 80 80 16 11 02 09  00 01 80 80 F5 10 B6 0F  ................
10F0: 08 80 01 13 11 02 09 00  02 80 80 04 11 B6 0F 09  ................
1100: 80 01 13 11 02 09 00 03  80 80 13 11 B6 0F 0A 80  ................
1110: 01 13 11 01 2E 12 02 0B  00 03 80 80 4E 11 02 09  ............N...
1120: 00 01 80 80 2D 11 B6 0F  08 80 01 4B 11 02 09 00  ....-......K....
1130: 02 80 80 3C 11 B6 0F 09  80 01 4B 11 02 09 00 03  ...<......K.....
1140: 80 80 4B 11 B6 0F 0A 80  01 4B 11 01 2E 12 02 0B  ..K......K......
1150: 00 04 80 80 86 11 02 09  00 01 80 80 65 11 B6 0F  ............e...
1160: 0B 80 01 83 11 02 09 00  02 80 80 74 11 B6 0F 0C  ...........t....
1170: 80 01 83 11 02 09 00 03  80 80 83 11 B6 0F 0D 80  ................
1180: 01 83 11 01 2E 12 02 0B  00 05 80 80 BE 11 02 09  ................
1190: 00 01 80 80 9D 11 B6 0F  0B 80 01 BB 11 02 09 00  ................
11A0: 02 80 80 AC 11 B6 0F 0C  80 01 BB 11 02 09 00 03  ................
11B0: 80 80 BB 11 B6 0F 0D 80  01 BB 11 01 2E 12 02 0B  ................
11C0: 00 06 80 80 F6 11 02 09  00 01 80 80 D5 11 B6 0F  ................
11D0: 0E 80 01 F3 11 02 09 00  02 80 80 E4 11 B6 0F 0F  ................
11E0: 80 01 F3 11 02 09 00 03  80 80 F3 11 B6 0F 10 80  ................
11F0: 01 F3 11 01 2E 12 02 0B  00 07 80 80 2E 12 02 09  ................
1200: 00 01 80 80 0D 12 B6 0F  0D 80 01 2B 12 02 09 00  ...........+....
1210: 02 80 80 1C 12 B6 0F 11  80 01 2B 12 02 09 00 03  ..........+.....
1220: 80 80 2B 12 B6 0F 09 80  01 2B 12 01 2E 12 0B 0B  ..+......+......
1230: 00 B6 0B 0B 00 0C 00 0D  00 0E 00 0F 00 10 00 11  ................
1240: 00 00 80 00 80 1B 1A 29  14 02 09 00 00 80 02 11  .......)........
1250: 14 02 0B 00 00 80 80 89  12 02 09 00 01 80 80 68  ...............h
1260: 12 B6 0F 08 80 01 86 12  02 09 00 02 80 80 77 12  ..............w.
1270: B6 0F 09 80 01 86 12 02  09 00 03 80 80 86 12 B6  ................
1280: 0F 0A 80 01 86 12 01 11  14 02 0B 00 01 80 80 C1  ................
1290: 12 02 09 00 01 80 80 A0  12 B6 0F 08 80 01 BE 12  ................
12A0: 02 09 00 02 80 80 AF 12  B6 0F 09 80 01 BE 12 02  ................
12B0: 09 00 03 80 80 BE 12 B6  0F 0A 80 01 BE 12 01 11  ................
12C0: 14 02 0B 00 02 80 80 F9  12 02 09 00 01 80 80 D8  ................
12D0: 12 B6 0F 08 80 01 F6 12  02 09 00 02 80 80 E7 12  ................
12E0: B6 0F 09 80 01 F6 12 02  09 00 03 80 80 F6 12 B6  ................
12F0: 0F 0A 80 01 F6 12 01 11  14 02 0B 00 03 80 80 31  ...............1
1300: 13 02 09 00 01 80 80 10  13 B6 0F 08 80 01 2E 13  ................
1310: 02 09 00 02 80 80 1F 13  B6 0F 09 80 01 2E 13 02  ................
1320: 09 00 03 80 80 2E 13 B6  0F 0A 80 01 2E 13 01 11  ................
1330: 14 02 0B 00 04 80 80 69  13 02 09 00 01 80 80 48  .......i.......H
1340: 13 B6 0F 0B 80 01 66 13  02 09 00 02 80 80 57 13  ......f.......W.
1350: B6 0F 0C 80 01 66 13 02  09 00 03 80 80 66 13 B6  .....f.......f..
1360: 0F 0D 80 01 66 13 01 11  14 02 0B 00 05 80 80 A1  ....f...........
1370: 13 02 09 00 01 80 80 80  13 B6 0F 0B 80 01 9E 13  ................
1380: 02 09 00 02 80 80 8F 13  B6 0F 0C 80 01 9E 13 02  ................
1390: 09 00 03 80 80 9E 13 B6  0F 0D 80 01 9E 13 01 11  ................
13A0: 14 02 0B 00 06 80 80 D9  13 02 09 00 01 80 80 B8  ................
13B0: 13 B6 0F 0E 80 01 D6 13  02 09 00 02 80 80 C7 13  ................
13C0: B6 0F 0F 80 01 D6 13 02  09 00 03 80 80 D6 13 B6  ................
13D0: 0F 10 80 01 D6 13 01 11  14 02 0B 00 07 80 80 11  ................
13E0: 14 02 09 00 01 80 80 F0  13 B6 0F 0D 80 01 0E 14  ................
13F0: 02 09 00 02 80 80 FF 13  B6 0F 11 80 01 0E 14 02  ................
1400: 09 00 03 80 80 0E 14 B6  0F 09 80 01 0E 14 01 11  ................
1410: 14 0B 0B 00 B6 0B 0B 00  0C 00 0D 00 0E 00 0F 00  ................
1420: 10 00 11 00 12 00 13 00  1B 1A 58 14 1A 4D 15 1A  ..........X..M..
1430: 43 15 1A A4 19 1A B9 19  1A D9 19 1A F9 19 1A 19  C...............
1440: 1A 1A 46 19 1A 66 19 1A  39 1A 1A 61 1A 1B 41 00  ..F..f..9..a..A.
1450: 80 03 80 09 10 01 00 1B  41 04 80 06 80 09 10 0B  ........A.......
1460: 00 03 1E 17 00 80 02 0B  00 00 80 80 76 14 03 1F  ............v...
1470: 17 00 80 01 E6 14 02 0B  00 01 80 80 86 14 03 1F  ................
1480: 17 01 80 01 E6 14 02 0B  00 02 80 80 96 14 03 1F  ................
1490: 17 00 80 01 E6 14 02 0B  00 03 80 80 A6 14 03 1F  ................
14A0: 17 01 80 01 E6 14 02 0B  00 04 80 80 B6 14 03 1F  ................
14B0: 17 00 80 01 E6 14 02 0B  00 05 80 80 C6 14 03 1F  ................
14C0: 17 01 80 01 E6 14 02 0B  00 06 80 80 D6 14 03 1F  ................
14D0: 17 01 80 01 E6 14 02 0B  00 07 80 80 E6 14 03 1F  ................
14E0: 17 00 80 01 E6 14 02 1F  17 01 80 00 2E 15 02 87  ................
14F0: 7F 02 80 80 FE 14 03 1E  17 01 80 01 2E 15 02 87  ................
1500: 7F 04 80 80 0E 15 03 1E  17 01 80 01 2E 15 02 87  ................
1510: 7F 06 80 80 1E 15 03 1E  17 01 80 01 2E 15 02 87  ................
1520: 7F 07 80 80 2E 15 03 1E  17 01 80 01 2E 15 1B 41  ...............A
1530: 12 80 13 80 09 10 06 00  1B 41 14 80 15 80 09 10  .........A......
1540: 08 00 1B 41 16 80 17 80  09 10 09 00 1B 1A 58 14  ...A..........X.
1550: 1A 2F 15 02 06 00 00 80  00 67 15 41 18 80 19 80  ./.......g.A....
1560: 09 10 0C 00 01 A7 18 02  0B 00 00 80 80 CF 15 02  ................
1570: 06 00 01 80 80 8E 15 3E  09 10 07 80 86 15 03 0C  .......>........
1580: 00 15 80 01 8B 15 03 0C  00 1A 80 01 CC 15 02 06  ................
1590: 00 02 80 80 AD 15 3E 09  10 07 80 A5 15 03 0C 00  ......>.........
15A0: 05 80 01 AA 15 03 0C 00  04 80 01 CC 15 02 06 00  ................
15B0: 03 80 80 CC 15 3E 09 10  07 80 C4 15 03 0C 00 01  .....>..........
15C0: 80 01 C9 15 03 0C 00 00  80 01 CC 15 01 A7 18 02  ................
15D0: 0B 00 01 80 80 37 16 02  06 00 01 80 80 F6 15 3E  .....7.........>
15E0: 09 10 07 80 EE 15 03 0C  00 01 80 01 F3 15 03 0C  ................
15F0: 00 00 80 01 34 16 02 06  00 02 80 80 15 16 3E 09  ....4.........>.
1600: 10 07 80 0D 16 03 0C 00  05 80 01 12 16 03 0C 00  ................
1610: 04 80 01 34 16 02 06 00  03 80 80 34 16 3E 09 10  ...4.......4.>..
1620: 07 80 2C 16 03 0C 00 03  80 01 31 16 03 0C 00 02  ..,.......1.....
1630: 80 01 34 16 01 A7 18 02  0B 00 02 80 80 9F 16 02  ..4.............
1640: 06 00 01 80 80 5E 16 3E  09 10 07 80 56 16 03 0C  .....^.>....V...
1650: 00 03 80 01 5B 16 03 0C  00 02 80 01 9C 16 02 06  ....[...........
1660: 00 02 80 80 7D 16 3E 09  10 07 80 75 16 03 0C 00  ....}.>....u....
1670: 1B 80 01 7A 16 03 0C 00  1C 80 01 9C 16 02 06 00  ...z............
1680: 03 80 80 9C 16 3E 09 10  07 80 94 16 03 0C 00 15  .....>..........
1690: 80 01 99 16 03 0C 00 1A  80 01 9C 16 01 A7 18 02  ................
16A0: 0B 00 03 80 80 07 17 02  06 00 01 80 80 C6 16 3E  ...............>
16B0: 09 10 07 80 BE 16 03 0C  00 01 80 01 C3 16 03 0C  ................
16C0: 00 00 80 01 04 17 02 06  00 02 80 80 E5 16 3E 09  ..............>.
16D0: 10 07 80 DD 16 03 0C 00  1D 80 01 E2 16 03 0C 00  ................
16E0: 14 80 01 04 17 02 06 00  03 80 80 04 17 3E 09 10  .............>..
16F0: 07 80 FC 16 03 0C 00 07  80 01 01 17 03 0C 00 06  ................
1700: 80 01 04 17 01 A7 18 02  0B 00 04 80 80 6F 17 02  .............o..
1710: 06 00 01 80 80 2E 17 3E  09 10 07 80 26 17 03 0C  .......>....&...
1720: 00 05 80 01 2B 17 03 0C  00 04 80 01 6C 17 02 06  ....+.......l...
1730: 00 02 80 80 4D 17 3E 09  10 07 80 45 17 03 0C 00  ....M.>....E....
1740: 03 80 01 4A 17 03 0C 00  02 80 01 6C 17 02 06 00  ...J.......l....
1750: 03 80 80 6C 17 3E 09 10  07 80 64 17 03 0C 00 07  ...l.>....d.....
1760: 80 01 69 17 03 0C 00 06  80 01 6C 17 01 A7 18 02  ..i.......l.....
1770: 0B 00 05 80 80 D7 17 02  06 00 01 80 80 96 17 3E  ...............>
1780: 09 10 07 80 8E 17 03 0C  00 03 80 01 93 17 03 0C  ................
1790: 00 02 80 01 D4 17 02 06  00 02 80 80 B5 17 3E 09  ..............>.
17A0: 10 07 80 AD 17 03 0C 00  07 80 01 B2 17 03 0C 00  ................
17B0: 06 80 01 D4 17 02 06 00  03 80 80 D4 17 3E 09 10  .............>..
17C0: 07 80 CC 17 03 0C 00 01  80 01 D1 17 03 0C 00 00  ................
17D0: 80 01 D4 17 01 A7 18 02  0B 00 06 80 80 3F 18 02  .............?..
17E0: 06 00 01 80 80 FE 17 3E  09 10 07 80 F6 17 03 0C  .......>........
17F0: 00 13 80 01 FB 17 03 0C  00 12 80 01 3C 18 02 06  ............<...
1800: 00 02 80 80 1D 18 3E 09  10 07 80 15 18 03 0C 00  ......>.........
1810: 1D 80 01 1A 18 03 0C 00  14 80 01 3C 18 02 06 00  ...........<....
1820: 03 80 80 3C 18 3E 09 10  07 80 34 18 03 0C 00 15  ...<.>....4.....
1830: 80 01 39 18 03 0C 00 1A  80 01 3C 18 01 A7 18 02  ..9.......<.....
1840: 0B 00 07 80 80 A7 18 02  06 00 01 80 80 66 18 3E  .............f.>
1850: 09 10 07 80 5E 18 03 0C  00 05 80 01 63 18 03 0C  ....^.......c...
1860: 00 04 80 01 A4 18 02 06  00 02 80 80 85 18 3E 09  ..............>.
1870: 10 07 80 7D 18 03 0C 00  15 80 01 82 18 03 0C 00  ...}............
1880: 1A 80 01 A4 18 02 06 00  03 80 80 A4 18 3E 09 10  .............>..
1890: 07 80 9C 18 03 0C 00 1D  80 01 A1 18 03 0C 00 14  ................
18A0: 80 01 A4 18 01 A7 18 1B  40 1E 80 1F 80 01 10 01  ........@.......
18B0: 80 43 00 43 01 1B 40 1E  80 1F 80 01 10 02 80 43  .C.C..@........C
18C0: 00 43 01 1B 40 1E 80 1F  80 01 10 03 80 43 00 43  .C..@........C.C
18D0: 01 1B 40 1E 80 1F 80 01  10 04 80 43 00 43 01 1B  ..@........C.C..
18E0: 40 1E 80 1F 80 01 10 05  80 43 00 43 01 1B 40 1E  @........C.C..@.
18F0: 80 1F 80 01 10 06 80 43  00 43 01 1B 40 1E 80 1F  .......C.C..@...
1900: 80 01 10 07 80 43 00 43  01 1B 40 1E 80 1F 80 01  .....C.C..@.....
1910: 10 12 80 43 00 43 01 1B  40 1E 80 1F 80 01 10 14  ...C.C..@.......
1920: 80 43 00 43 01 1B 1A 58  14 03 0A 00 0B 00 02 0A  .C.C...X........
1930: 00 05 80 04 3B 19 08 0A  00 01 80 14 0A 00 14 80  ....;...........
1940: 07 0A 00 13 80 1B 03 16  00 00 80 03 17 00 00 80  ................
1950: 41 18 80 19 80 08 10 16  00 41 00 80 03 80 07 10  A........A......
1960: 17 00 1A EC 3F 1B 03 16  00 00 80 41 1E 80 20 80  ....?......A.. .
1970: 08 10 16 00 3E 07 10 18  80 8A 19 41 00 80 03 80  ....>......A....
1980: 07 10 17 00 1A D4 45 01  A3 19 41 00 80 03 80 07  ......E...A.....
1990: 10 17 00 02 17 00 00 80  80 9E 19 01 A3 19 03 13  ................
19A0: 00 00 80 1B 03 16 00 00  80 41 00 80 03 80 08 10  .........A......
19B0: 16 00 1A 39 15 1A 33 2B  1B 03 15 00 00 80 03 16  ...9..3+........
19C0: 00 00 80 41 06 80 07 80  07 10 15 00 41 04 80 07  ...A........A...
19D0: 80 08 10 16 00 1A 38 33  1B 03 15 00 00 80 03 16  ......83........
19E0: 00 00 80 41 12 80 13 80  07 10 15 00 41 12 80 1D  ...A........A...
19F0: 80 08 10 16 00 1A 65 36  1B 03 15 00 00 80 03 16  ......e6........
1A00: 00 00 80 41 14 80 1D 80  07 10 15 00 41 1A 80 1B  ...A........A...
1A10: 80 08 10 16 00 1A 92 39  1B 03 15 00 00 80 03 16  .......9........
1A20: 00 00 80 41 1A 80 15 80  07 10 15 00 41 21 80 17  ...A........A!..
1A30: 80 08 10 16 00 1A BF 3C  1B 41 00 80 03 80 06 10  .......<.A......
1A40: 14 00 1A 58 14 1A B0 46  41 04 80 07 80 06 10 14  ...X...FA.......
1A50: 00 1A B3 47 41 12 80 1D  80 06 10 14 00 1A FD 47  ...GA..........G
1A60: 1B 41 22 80 1E 80 07 10  00 00 02 00 00 01 80 80  .A".............
1A70: 7A 1A 03 12 00 23 80 01  C3 1B 02 00 00 02 80 80  z....#..........
1A80: 8A 1A 03 12 00 24 80 01  C3 1B 02 00 00 03 80 80  .....$..........
1A90: 9A 1A 03 12 00 25 80 01  C3 1B 02 00 00 04 80 80  .....%..........
1AA0: AA 1A 03 12 00 26 80 01  C3 1B 02 00 00 05 80 80  .....&..........
1AB0: BA 1A 03 12 00 27 80 01  C3 1B 02 00 00 06 80 80  .....'..........
1AC0: CA 1A 03 12 00 28 80 01  C3 1B 02 00 00 07 80 80  .....(..........
1AD0: C3 1B 41 00 80 07 80 03  10 00 00 02 00 00 00 80  ..A.............
1AE0: 80 EB 1A 03 12 00 23 80  01 C0 1B 02 00 00 01 80  ......#.........
1AF0: 80 FB 1A 03 12 00 29 80  01 C0 1B 02 00 00 02 80  ......).........
1B00: 80 0B 1B 03 12 00 2A 80  01 C0 1B 02 00 00 03 80  ......*.........
1B10: 80 1B 1B 03 12 00 2B 80  01 C0 1B 02 00 00 04 80  ......+.........
1B20: 80 2B 1B 03 12 00 2C 80  01 C0 1B 02 00 00 05 80  .+....,.........
1B30: 80 3B 1B 03 12 00 2D 80  01 C0 1B 02 00 00 06 80  .;....-.........
1B40: 80 4B 1B 03 12 00 2E 80  01 C0 1B 02 00 00 07 80  .K..............
1B50: 80 60 1B 03 12 00 2F 80  03 13 00 2F 80 01 C0 1B  .`..../..../....
1B60: 02 00 00 12 80 80 70 1B  03 12 00 30 80 01 C0 1B  ......p....0....
1B70: 02 00 00 13 80 80 80 1B  03 12 00 31 80 01 C0 1B  ...........1....
1B80: 02 00 00 14 80 80 90 1B  03 12 00 32 80 01 C0 1B  ...........2....
1B90: 02 00 00 1D 80 80 A0 1B  03 12 00 33 80 01 C0 1B  ...........3....
1BA0: 02 00 00 1A 80 80 B0 1B  03 12 00 34 80 01 C0 1B  ...........4....
1BB0: 02 00 00 15 80 80 C0 1B  03 12 00 35 80 01 C0 1B  ...........5....
1BC0: 01 C3 1B 3E 03 10 12 80  53 1C 41 13 80 1B 80 03  ...>....S.A.....
1BD0: 10 00 00 02 00 00 00 80  80 E3 1B 03 13 00 36 80  ..............6.
1BE0: 01 53 1C 02 00 00 01 80  80 F3 1B 03 13 00 37 80  .S............7.
1BF0: 01 53 1C 02 00 00 02 80  80 03 1C 03 13 00 38 80  .S............8.
1C00: 01 53 1C 02 00 00 03 80  80 13 1C 03 13 00 39 80  .S............9.
1C10: 01 53 1C 02 00 00 04 80  80 23 1C 03 13 00 3A 80  .S.......#....:.
1C20: 01 53 1C 02 00 00 05 80  80 33 1C 03 13 00 3B 80  .S.......3....;.
1C30: 01 53 1C 02 00 00 06 80  80 43 1C 03 13 00 3C 80  .S.......C....<.
1C40: 01 53 1C 02 00 00 07 80  80 53 1C 03 13 00 3D 80  .S.......S....=.
1C50: 01 53 1C 41 3E 80 20 80  07 10 00 00 02 00 00 01  .S.A>. .........
1C60: 80 80 6C 1C 03 0D 00 3F  80 01 1B 1E 02 00 00 02  ..l....?........
1C70: 80 80 7C 1C 03 0D 00 40  80 01 1B 1E 02 00 00 03  ..|....@........
1C80: 80 80 8C 1C 03 0D 00 41  80 01 1B 1E 02 00 00 04  .......A........
1C90: 80 80 9C 1C 03 0D 00 42  80 01 1B 1E 02 00 00 05  .......B........
1CA0: 80 80 AC 1C 03 0D 00 43  80 01 1B 1E 02 00 00 06  .......C........
1CB0: 80 80 BC 1C 03 0D 00 44  80 01 1B 1E 02 00 00 07  .......D........
1CC0: 80 80 1B 1E 41 21 80 19  80 03 10 00 00 02 00 00  ....A!..........
1CD0: 00 80 80 58 1D 02 0B 00  00 80 80 E5 1C 03 0D 00  ...X............
1CE0: 45 80 01 55 1D 02 0B 00  01 80 80 F5 1C 03 0D 00  E..U............
1CF0: 27 80 01 55 1D 02 0B 00  02 80 80 05 1D 03 0D 00  '..U............
1D00: 45 80 01 55 1D 02 0B 00  03 80 80 15 1D 03 0D 00  E..U............
1D10: 27 80 01 55 1D 02 0B 00  04 80 80 25 1D 03 0D 00  '..U.......%....
1D20: 45 80 01 55 1D 02 0B 00  05 80 80 35 1D 03 0D 00  E..U.......5....
1D30: 27 80 01 55 1D 02 0B 00  06 80 80 45 1D 03 0D 00  '..U.......E....
1D40: 27 80 01 55 1D 02 0B 00  07 80 80 55 1D 03 0D 00  '..U.......U....
1D50: 45 80 01 55 1D 01 18 1E  02 00 00 01 80 80 68 1D  E..U..........h.
1D60: 03 0D 00 46 80 01 18 1E  02 00 00 02 80 80 78 1D  ...F..........x.
1D70: 03 0D 00 47 80 01 18 1E  02 00 00 03 80 80 88 1D  ...G............
1D80: 03 0D 00 25 80 01 18 1E  02 00 00 04 80 80 98 1D  ...%............
1D90: 03 0D 00 26 80 01 18 1E  02 00 00 05 80 80 A8 1D  ...&............
1DA0: 03 0D 00 48 80 01 18 1E  02 00 00 06 80 80 B8 1D  ...H............
1DB0: 03 0D 00 44 80 01 18 1E  02 00 00 07 80 80 C8 1D  ...D............
1DC0: 03 0D 00 44 80 01 18 1E  02 00 00 12 80 80 D8 1D  ...D............
1DD0: 03 0D 00 49 80 01 18 1E  02 00 00 13 80 80 E8 1D  ...I............
1DE0: 03 0D 00 4A 80 01 18 1E  02 00 00 14 80 80 F8 1D  ...J............
1DF0: 03 0D 00 4B 80 01 18 1E  02 00 00 1D 80 80 08 1E  ...K............
1E00: 03 0D 00 4C 80 01 18 1E  02 00 00 1A 80 80 18 1E  ...L............
1E10: 03 0D 00 4D 80 01 18 1E  01 1B 1E 41 4E 80 1F 80  ...M.......AN...
1E20: 07 10 00 00 02 00 00 13  80 80 43 1E 03 0E 00 4F  ..........C....O
1E30: 80 03 0F 00 4F 80 03 10  00 4F 80 03 11 00 4F 80  ....O....O....O.
1E40: 01 32 2B 02 00 00 14 80  80 46 1F 02 0B 00 00 80  .2+......F......
1E50: 80 6A 1E 03 0E 00 50 80  03 0F 00 50 80 03 10 00  .j....P....P....
1E60: 50 80 03 11 00 50 80 01  43 1F 02 0B 00 01 80 80  P....P..C.......
1E70: 89 1E 03 0E 00 51 80 03  0F 00 51 80 03 10 00 51  .....Q....Q....Q
1E80: 80 03 11 00 51 80 01 43  1F 02 0B 00 02 80 80 A8  ....Q..C........
1E90: 1E 03 0E 00 50 80 03 0F  00 50 80 03 10 00 50 80  ....P....P....P.
1EA0: 03 11 00 50 80 01 43 1F  02 0B 00 03 80 80 C7 1E  ...P..C.........
1EB0: 03 0E 00 51 80 03 0F 00  51 80 03 10 00 51 80 03  ...Q....Q....Q..
1EC0: 11 00 51 80 01 43 1F 02  0B 00 04 80 80 E6 1E 03  ..Q..C..........
1ED0: 0E 00 50 80 03 0F 00 50  80 03 10 00 50 80 03 11  ..P....P....P...
1EE0: 00 50 80 01 43 1F 02 0B  00 05 80 80 05 1F 03 0E  .P..C...........
1EF0: 00 51 80 03 0F 00 51 80  03 10 00 51 80 03 11 00  .Q....Q....Q....
1F00: 51 80 01 43 1F 02 0B 00  06 80 80 24 1F 03 0E 00  Q..C.......$....
1F10: 51 80 03 0F 00 51 80 03  10 00 51 80 03 11 00 51  Q....Q....Q....Q
1F20: 80 01 43 1F 02 0B 00 07  80 80 43 1F 03 0E 00 50  ..C.......C....P
1F30: 80 03 0F 00 50 80 03 10  00 50 80 03 11 00 50 80  ....P....P....P.
1F40: 01 43 1F 01 32 2B 02 00  00 1D 80 80 49 20 02 0B  .C..2+......I ..
1F50: 00 00 80 80 6D 1F 03 0E  00 45 80 03 0F 00 45 80  ....m....E....E.
1F60: 03 10 00 45 80 03 11 00  45 80 01 46 20 02 0B 00  ...E....E..F ...
1F70: 01 80 80 8C 1F 03 0E 00  27 80 03 0F 00 27 80 03  ........'....'..
1F80: 10 00 27 80 03 11 00 27  80 01 46 20 02 0B 00 02  ..'....'..F ....
1F90: 80 80 AB 1F 03 0E 00 45  80 03 0F 00 45 80 03 10  .......E....E...
1FA0: 00 45 80 03 11 00 45 80  01 46 20 02 0B 00 03 80  .E....E..F .....
1FB0: 80 CA 1F 03 0E 00 27 80  03 0F 00 27 80 03 10 00  ......'....'....
1FC0: 27 80 03 11 00 27 80 01  46 20 02 0B 00 04 80 80  '....'..F ......
1FD0: E9 1F 03 0E 00 45 80 03  0F 00 45 80 03 10 00 45  .....E....E....E
1FE0: 80 03 11 00 45 80 01 46  20 02 0B 00 05 80 80 08  ....E..F .......
1FF0: 20 03 0E 00 27 80 03 0F  00 27 80 03 10 00 27 80   ...'....'....'.
2000: 03 11 00 27 80 01 46 20  02 0B 00 06 80 80 27 20  ...'..F ......' 
2010: 03 0E 00 27 80 03 0F 00  27 80 03 10 00 27 80 03  ...'....'....'..
2020: 11 00 27 80 01 46 20 02  0B 00 07 80 80 46 20 03  ..'..F ......F .
2030: 0E 00 45 80 03 0F 00 45  80 03 10 00 45 80 03 11  ..E....E....E...
2040: 00 45 80 01 46 20 01 32  2B 02 00 00 01 80 80 DD  .E..F .2+.......
2050: 20 02 0B 00 00 80 80 61  20 03 0E 00 52 80 01 D1   ......a ...R...
2060: 20 02 0B 00 01 80 80 71  20 03 0E 00 53 80 01 D1   ......q ...S...
2070: 20 02 0B 00 02 80 80 81  20 03 0E 00 52 80 01 D1   ....... ...R...
2080: 20 02 0B 00 03 80 80 91  20 03 0E 00 53 80 01 D1   ....... ...S...
2090: 20 02 0B 00 04 80 80 A1  20 03 0E 00 52 80 01 D1   ....... ...R...
20A0: 20 02 0B 00 05 80 80 B1  20 03 0E 00 53 80 01 D1   ....... ...S...
20B0: 20 02 0B 00 06 80 80 C1  20 03 0E 00 53 80 01 D1   ....... ...S...
20C0: 20 02 0B 00 07 80 80 D1  20 03 0E 00 52 80 01 D1   ....... ...R...
20D0: 20 1A D9 19 1A F9 19 1A  19 1A 01 32 2B 02 00 00   ..........2+...
20E0: 02 80 80 71 21 02 0B 00  00 80 80 F5 20 03 0E 00  ...q!....... ...
20F0: 54 80 01 65 21 02 0B 00  01 80 80 05 21 03 0E 00  T..e!.......!...
2100: 55 80 01 65 21 02 0B 00  02 80 80 15 21 03 0E 00  U..e!.......!...
2110: 54 80 01 65 21 02 0B 00  03 80 80 25 21 03 0E 00  T..e!......%!...
2120: 55 80 01 65 21 02 0B 00  04 80 80 35 21 03 0E 00  U..e!......5!...
2130: 54 80 01 65 21 02 0B 00  05 80 80 45 21 03 0E 00  T..e!......E!...
2140: 55 80 01 65 21 02 0B 00  06 80 80 55 21 03 0E 00  U..e!......U!...
2150: 55 80 01 65 21 02 0B 00  07 80 80 65 21 03 0E 00  U..e!......e!...
2160: 54 80 01 65 21 1A D9 19  1A F9 19 1A 19 1A 01 32  T..e!..........2
2170: 2B 02 00 00 07 80 80 05  22 02 0B 00 00 80 80 89  +.......".......
2180: 21 03 0E 00 56 80 01 F9  21 02 0B 00 01 80 80 99  !...V...!.......
2190: 21 03 0E 00 57 80 01 F9  21 02 0B 00 02 80 80 A9  !...W...!.......
21A0: 21 03 0E 00 56 80 01 F9  21 02 0B 00 03 80 80 B9  !...V...!.......
21B0: 21 03 0E 00 57 80 01 F9  21 02 0B 00 04 80 80 C9  !...W...!.......
21C0: 21 03 0E 00 56 80 01 F9  21 02 0B 00 05 80 80 D9  !...V...!.......
21D0: 21 03 0E 00 57 80 01 F9  21 02 0B 00 06 80 80 E9  !...W...!.......
21E0: 21 03 0E 00 57 80 01 F9  21 02 0B 00 07 80 80 F9  !...W...!.......
21F0: 21 03 0E 00 56 80 01 F9  21 1A D9 19 1A F9 19 1A  !...V...!.......
2200: 19 1A 01 32 2B 02 00 00  03 80 80 43 22 02 0B 00  ...2+......C"...
2210: 05 80 00 2C 22 03 0E 00  58 80 03 0F 00 58 80 03  ...,"...X....X..
2220: 10 00 58 80 03 11 00 58  80 01 40 22 03 0E 00 59  ..X....X..@"...Y
2230: 80 03 0F 00 59 80 03 10  00 59 80 03 11 00 59 80  ....Y....Y....Y.
2240: 01 32 2B 02 00 00 04 80  80 81 22 02 0B 00 05 80  .2+.......".....
2250: 00 6A 22 03 0E 00 5A 80  03 0F 00 5A 80 03 10 00  .j"...Z....Z....
2260: 5A 80 03 11 00 5A 80 01  7E 22 03 0E 00 5B 80 03  Z....Z..~"...[..
2270: 0F 00 5B 80 03 10 00 5B  80 03 11 00 5B 80 01 32  ..[....[....[..2
2280: 2B 02 00 00 12 80 80 BF  22 02 0B 00 05 80 00 A8  +.......".......
2290: 22 03 0E 00 5C 80 03 0F  00 5C 80 03 10 00 5C 80  "...\....\....\.
22A0: 03 11 00 5C 80 01 BC 22  03 0E 00 5D 80 03 0F 00  ...\..."...]....
22B0: 5D 80 03 10 00 5D 80 03  11 00 5D 80 01 32 2B 02  ]....]....]..2+.
22C0: 00 00 1A 80 80 C2 23 02  0B 00 00 80 80 E6 22 03  ......#.......".
22D0: 0E 00 47 80 03 0F 00 47  80 03 10 00 47 80 03 11  ..G....G....G...
22E0: 00 47 80 01 BF 23 02 0B  00 01 80 80 05 23 03 0E  .G...#.......#..
22F0: 00 5E 80 03 0F 00 5E 80  03 10 00 5E 80 03 11 00  .^....^....^....
2300: 5E 80 01 BF 23 02 0B 00  02 80 80 24 23 03 0E 00  ^...#......$#...
2310: 47 80 03 0F 00 47 80 03  10 00 47 80 03 11 00 47  G....G....G....G
2320: 80 01 BF 23 02 0B 00 03  80 80 43 23 03 0E 00 5E  ...#......C#...^
2330: 80 03 0F 00 5E 80 03 10  00 5E 80 03 11 00 5E 80  ....^....^....^.
2340: 01 BF 23 02 0B 00 04 80  80 62 23 03 0E 00 47 80  ..#......b#...G.
2350: 03 0F 00 47 80 03 10 00  47 80 03 11 00 47 80 01  ...G....G....G..
2360: BF 23 02 0B 00 05 80 80  81 23 03 0E 00 5E 80 03  .#.......#...^..
2370: 0F 00 5E 80 03 10 00 5E  80 03 11 00 5E 80 01 BF  ..^....^....^...
2380: 23 02 0B 00 06 80 80 A0  23 03 0E 00 5E 80 03 0F  #.......#...^...
2390: 00 5E 80 03 10 00 5E 80  03 11 00 5E 80 01 BF 23  .^....^....^...#
23A0: 02 0B 00 07 80 80 BF 23  03 0E 00 47 80 03 0F 00  .......#...G....
23B0: 47 80 03 10 00 47 80 03  11 00 47 80 01 BF 23 01  G....G....G...#.
23C0: 32 2B 02 00 00 05 80 80  E0 23 03 0D 00 00 80 03  2+.......#......
23D0: 0E 00 5F 80 1A D9 19 1A  F9 19 1A 19 1A 01 32 2B  .._...........2+
23E0: 02 00 00 06 80 80 7A 24  03 0E 00 42 80 03 0F 00  ......z$...B....
23F0: 44 80 03 11 00 42 80 02  0B 00 00 80 80 07 24 03  D....B........$.
2400: 10 00 54 80 01 77 24 02  0B 00 01 80 80 17 24 03  ..T..w$.......$.
2410: 10 00 55 80 01 77 24 02  0B 00 02 80 80 27 24 03  ..U..w$......'$.
2420: 10 00 54 80 01 77 24 02  0B 00 03 80 80 37 24 03  ..T..w$......7$.
2430: 10 00 55 80 01 77 24 02  0B 00 04 80 80 47 24 03  ..U..w$......G$.
2440: 10 00 54 80 01 77 24 02  0B 00 05 80 80 57 24 03  ..T..w$......W$.
2450: 10 00 55 80 01 77 24 02  0B 00 06 80 80 67 24 03  ..U..w$......g$.
2460: 10 00 55 80 01 77 24 02  0B 00 07 80 80 77 24 03  ..U..w$......w$.
2470: 10 00 54 80 01 77 24 01  32 2B 02 00 00 15 80 80  ..T..w$.2+......
2480: 98 24 03 0D 00 60 80 03  0E 00 60 80 1A D9 19 1A  .$...`....`.....
2490: F9 19 1A 19 1A 01 32 2B  02 00 00 1C 80 80 B6 24  ......2+.......$
24A0: 03 0D 00 61 80 03 0E 00  61 80 1A D9 19 1A F9 19  ...a....a.......
24B0: 1A 19 1A 01 32 2B 02 00  00 1B 80 80 32 2B 41 1E  ....2+......2+A.
24C0: 80 1F 80 03 10 00 00 02  00 00 00 80 80 E5 24 03  ..............$.
24D0: 0D 00 62 80 03 0E 00 62  80 1A D9 19 1A F9 19 1A  ..b....b........
24E0: 19 1A 01 2F 2B 02 00 00  01 80 80 09 25 03 0D 00  .../+.......%...
24F0: 24 80 03 0E 00 63 80 03  0F 00 63 80 03 10 00 63  $....c....c....c
2500: 80 03 11 00 63 80 01 2F  2B 02 00 00 02 80 80 2D  ....c../+......-
2510: 25 03 0D 00 64 80 03 0E  00 64 80 03 0F 00 64 80  %...d....d....d.
2520: 03 10 00 64 80 03 11 00  64 80 01 2F 2B 02 00 00  ...d....d../+...
2530: 06 80 80 51 25 03 0D 00  65 80 03 0E 00 65 80 03  ...Q%...e....e..
2540: 0F 00 65 80 03 10 00 65  80 03 11 00 65 80 01 2F  ..e....e....e../
2550: 2B 02 00 00 07 80 80 54  26 02 0B 00 00 80 80 78  +......T&......x
2560: 25 03 0E 00 66 80 03 0F  00 66 80 03 10 00 66 80  %...f....f....f.
2570: 03 11 00 66 80 01 51 26  02 0B 00 01 80 80 97 25  ...f..Q&.......%
2580: 03 0E 00 67 80 03 0F 00  67 80 03 10 00 67 80 03  ...g....g....g..
2590: 11 00 67 80 01 51 26 02  0B 00 02 80 80 B6 25 03  ..g..Q&.......%.
25A0: 0E 00 66 80 03 0F 00 66  80 03 10 00 66 80 03 11  ..f....f....f...
25B0: 00 66 80 01 51 26 02 0B  00 03 80 80 D5 25 03 0E  .f..Q&.......%..
25C0: 00 67 80 03 0F 00 67 80  03 10 00 67 80 03 11 00  .g....g....g....
25D0: 67 80 01 51 26 02 0B 00  04 80 80 F4 25 03 0E 00  g..Q&.......%...
25E0: 66 80 03 0F 00 66 80 03  10 00 66 80 03 11 00 66  f....f....f....f
25F0: 80 01 51 26 02 0B 00 05  80 80 13 26 03 0E 00 67  ..Q&.......&...g
2600: 80 03 0F 00 67 80 03 10  00 67 80 03 11 00 67 80  ....g....g....g.
2610: 01 51 26 02 0B 00 06 80  80 32 26 03 0E 00 67 80  .Q&......2&...g.
2620: 03 0F 00 67 80 03 10 00  67 80 03 11 00 67 80 01  ...g....g....g..
2630: 51 26 02 0B 00 07 80 80  51 26 03 0E 00 66 80 03  Q&......Q&...f..
2640: 0F 00 66 80 03 10 00 66  80 03 11 00 66 80 01 51  ..f....f....f..Q
2650: 26 01 2F 2B 02 00 00 03  80 80 0D 27 02 0B 00 00  &./+.......'....
2660: 80 80 71 26 03 0E 00 25  80 03 10 00 25 80 01 04  ..q&...%....%...
2670: 27 02 0B 00 01 80 80 86  26 03 0E 00 26 80 03 10  '.......&...&...
2680: 00 26 80 01 04 27 02 0B  00 02 80 80 9B 26 03 0E  .&...'.......&..
2690: 00 25 80 03 10 00 25 80  01 04 27 02 0B 00 03 80  .%....%...'.....
26A0: 80 B0 26 03 0E 00 26 80  03 10 00 26 80 01 04 27  ..&...&....&...'
26B0: 02 0B 00 04 80 80 C5 26  03 0E 00 25 80 03 10 00  .......&...%....
26C0: 25 80 01 04 27 02 0B 00  05 80 80 DA 26 03 0E 00  %...'.......&...
26D0: 26 80 03 10 00 26 80 01  04 27 02 0B 00 06 80 80  &....&...'......
26E0: EF 26 03 0E 00 26 80 03  10 00 26 80 01 04 27 02  .&...&....&...'.
26F0: 0B 00 07 80 80 04 27 03  0E 00 25 80 03 10 00 25  ......'...%....%
2700: 80 01 04 27 1A D9 19 1A  19 1A 01 2F 2B 02 00 00  ...'......./+...
2710: 04 80 80 31 27 03 0D 00  68 80 03 0E 00 68 80 03  ...1'...h....h..
2720: 0F 00 68 80 03 10 00 68  80 03 11 00 68 80 01 2F  ..h....h....h../
2730: 2B 02 00 00 05 80 80 4A  27 03 0E 00 69 80 1A D9  +......J'...i...
2740: 19 1A F9 19 1A 19 1A 01  2F 2B 02 00 00 12 80 80  ......../+......
2750: 75 28 02 0B 00 00 80 80  76 27 03 0D 00 6A 80 03  u(......v'...j..
2760: 0E 00 6A 80 03 0F 00 6A  80 03 10 00 6A 80 03 11  ..j....j....j...
2770: 00 6A 80 01 72 28 02 0B  00 01 80 80 9A 27 03 0D  .j..r(.......'..
2780: 00 6B 80 03 0E 00 6B 80  03 0F 00 6B 80 03 10 00  .k....k....k....
2790: 6B 80 03 11 00 6B 80 01  72 28 02 0B 00 02 80 80  k....k..r(......
27A0: BE 27 03 0D 00 6A 80 03  0E 00 6A 80 03 0F 00 6A  .'...j....j....j
27B0: 80 03 10 00 6A 80 03 11  00 6A 80 01 72 28 02 0B  ....j....j..r(..
27C0: 00 03 80 80 E2 27 03 0D  00 6B 80 03 0E 00 6B 80  .....'...k....k.
27D0: 03 0F 00 6B 80 03 10 00  6B 80 03 11 00 6B 80 01  ...k....k....k..
27E0: 72 28 02 0B 00 04 80 80  06 28 03 0D 00 6A 80 03  r(.......(...j..
27F0: 0E 00 6A 80 03 0F 00 6A  80 03 10 00 6A 80 03 11  ..j....j....j...
2800: 00 6A 80 01 72 28 02 0B  00 05 80 80 2A 28 03 0D  .j..r(......*(..
2810: 00 6B 80 03 0E 00 6B 80  03 0F 00 6B 80 03 10 00  .k....k....k....
2820: 6B 80 03 11 00 6B 80 01  72 28 02 0B 00 06 80 80  k....k..r(......
2830: 4E 28 03 0D 00 6B 80 03  0E 00 6B 80 03 0F 00 6B  N(...k....k....k
2840: 80 03 10 00 6B 80 03 11  00 6B 80 01 72 28 02 0B  ....k....k..r(..
2850: 00 07 80 80 72 28 03 0D  00 6A 80 03 0E 00 6A 80  ....r(...j....j.
2860: 03 0F 00 6A 80 03 10 00  6A 80 03 11 00 6A 80 01  ...j....j....j..
2870: 72 28 01 2F 2B 02 00 00  13 80 80 95 28 03 0D 00  r(./+.......(...
2880: 6C 80 03 0E 00 6C 80 03  0F 00 6C 80 1A F9 19 1A  l....l....l.....
2890: 19 1A 01 2F 2B 02 00 00  14 80 80 B9 28 03 0D 00  .../+.......(...
28A0: 6D 80 03 0E 00 6D 80 03  0F 00 6D 80 03 10 00 6D  m....m....m....m
28B0: 80 03 11 00 6D 80 01 2F  2B 02 00 00 1D 80 80 D2  ....m../+.......
28C0: 28 03 0E 00 6E 80 1A D9  19 1A F9 19 1A 19 1A 01  (...n...........
28D0: 2F 2B 02 00 00 1A 80 80  EB 28 03 0E 00 6F 80 1A  /+.......(...o..
28E0: D9 19 1A F9 19 1A 19 1A  01 2F 2B 02 00 00 15 80  ........./+.....
28F0: 80 0F 29 03 0D 00 28 80  03 0E 00 28 80 03 0F 00  ..)...(....(....
2900: 28 80 03 10 00 28 80 03  11 00 28 80 01 2F 2B 02  (....(....(../+.
2910: 00 00 1C 80 80 28 29 03  0E 00 70 80 1A D9 19 1A  .....()...p.....
2920: F9 19 1A 19 1A 01 2F 2B  02 00 00 1B 80 80 41 29  ....../+......A)
2930: 03 0E 00 71 80 1A D9 19  1A F9 19 1A 19 1A 01 2F  ...q.........../
2940: 2B 02 00 00 21 80 80 5A  29 03 0E 00 72 80 1A D9  +...!..Z)...r...
2950: 19 1A F9 19 1A 19 1A 01  2F 2B 02 00 00 73 80 80  ......../+...s..
2960: 73 29 03 0E 00 74 80 1A  D9 19 1A F9 19 1A 19 1A  s)...t..........
2970: 01 2F 2B 02 00 00 16 80  80 2C 2A 02 0B 00 00 80  ./+......,*.....
2980: 80 90 29 03 0E 00 75 80  03 10 00 25 80 01 23 2A  ..)...u....%..#*
2990: 02 0B 00 01 80 80 A5 29  03 0E 00 76 80 03 10 00  .......)...v....
29A0: 26 80 01 23 2A 02 0B 00  02 80 80 BA 29 03 0E 00  &..#*.......)...
29B0: 75 80 03 10 00 25 80 01  23 2A 02 0B 00 03 80 80  u....%..#*......
29C0: CF 29 03 0E 00 76 80 03  10 00 26 80 01 23 2A 02  .)...v....&..#*.
29D0: 0B 00 04 80 80 E4 29 03  0E 00 75 80 03 10 00 25  ......)...u....%
29E0: 80 01 23 2A 02 0B 00 05  80 80 F9 29 03 0E 00 76  ..#*.......)...v
29F0: 80 03 10 00 26 80 01 23  2A 02 0B 00 06 80 80 0E  ....&..#*.......
2A00: 2A 03 0E 00 76 80 03 10  00 26 80 01 23 2A 02 0B  *...v....&..#*..
2A10: 00 07 80 80 23 2A 03 0E  00 75 80 03 10 00 25 80  ....#*...u....%.
2A20: 01 23 2A 1A D9 19 1A 19  1A 01 2F 2B 02 00 00 17  .#*......./+....
2A30: 80 80 2F 2B 02 0B 00 00  80 80 53 2A 03 0E 00 77  ../+......S*...w
2A40: 80 03 0F 00 77 80 03 10  00 77 80 03 11 00 77 80  ....w....w....w.
2A50: 01 2C 2B 02 0B 00 01 80  80 72 2A 03 0E 00 78 80  .,+......r*...x.
2A60: 03 0F 00 78 80 03 10 00  78 80 03 11 00 78 80 01  ...x....x....x..
2A70: 2C 2B 02 0B 00 02 80 80  91 2A 03 0E 00 77 80 03  ,+.......*...w..
2A80: 0F 00 77 80 03 10 00 77  80 03 11 00 77 80 01 2C  ..w....w....w..,
2A90: 2B 02 0B 00 03 80 80 B0  2A 03 0E 00 78 80 03 0F  +.......*...x...
2AA0: 00 78 80 03 10 00 78 80  03 11 00 78 80 01 2C 2B  .x....x....x..,+
2AB0: 02 0B 00 04 80 80 CF 2A  03 0E 00 77 80 03 0F 00  .......*...w....
2AC0: 77 80 03 10 00 77 80 03  11 00 77 80 01 2C 2B 02  w....w....w..,+.
2AD0: 0B 00 05 80 80 EE 2A 03  0E 00 78 80 03 0F 00 78  ......*...x....x
2AE0: 80 03 10 00 78 80 03 11  00 78 80 01 2C 2B 02 0B  ....x....x..,+..
2AF0: 00 06 80 80 0D 2B 03 0E  00 78 80 03 0F 00 78 80  .....+...x....x.
2B00: 03 10 00 78 80 03 11 00  78 80 01 2C 2B 02 0B 00  ...x....x..,+...
2B10: 07 80 80 2C 2B 03 0E 00  77 80 03 0F 00 77 80 03  ...,+...w....w..
2B20: 10 00 77 80 03 11 00 77  80 01 2C 2B 01 2F 2B 01  ..w....w..,+./+.
2B30: 32 2B 1B 02 08 00 01 80  80 DE 2B 02 16 00 00 80  2+........+.....
2B40: 80 4B 2B 03 0D 00 00 80  01 DB 2B 02 16 00 01 80  .K+.......+.....
2B50: 80 5B 2B 03 0D 00 01 80  01 DB 2B 02 16 00 02 80  .[+.......+.....
2B60: 80 6B 2B 03 0D 00 79 80  01 DB 2B 02 16 00 03 80  .k+...y...+.....
2B70: 80 7B 2B 03 0D 00 7A 80  01 DB 2B 02 16 00 04 80  .{+...z...+.....
2B80: 80 8B 2B 03 0D 00 05 80  01 DB 2B 02 16 00 05 80  ..+.......+.....
2B90: 80 9B 2B 03 0D 00 7B 80  01 DB 2B 02 16 00 06 80  ..+...{...+.....
2BA0: 80 AB 2B 03 0D 00 07 80  01 DB 2B 02 16 00 07 80  ..+.......+.....
2BB0: 80 BB 2B 03 0D 00 11 80  01 DB 2B 02 16 00 12 80  ..+.......+.....
2BC0: 80 CB 2B 03 0D 00 7C 80  01 DB 2B 02 16 00 13 80  ..+...|...+.....
2BD0: 80 DB 2B 03 0D 00 7D 80  01 DB 2B 01 37 33 02 08  ..+...}...+.73..
2BE0: 00 02 80 80 89 2C 02 16  00 00 80 80 F6 2B 03 0D  .....,.......+..
2BF0: 00 00 80 01 86 2C 02 16  00 01 80 80 06 2C 03 0D  .....,.......,..
2C00: 00 73 80 01 86 2C 02 16  00 02 80 80 16 2C 03 0D  .s...,.......,..
2C10: 00 02 80 01 86 2C 02 16  00 03 80 80 26 2C 03 0D  .....,......&,..
2C20: 00 13 80 01 86 2C 02 16  00 04 80 80 36 2C 03 0D  .....,......6,..
2C30: 00 7E 80 01 86 2C 02 16  00 05 80 80 46 2C 03 0D  .~...,......F,..
2C40: 00 7A 80 01 86 2C 02 16  00 06 80 80 56 2C 03 0D  .z...,......V,..
2C50: 00 19 80 01 86 2C 02 16  00 07 80 80 66 2C 03 0D  .....,......f,..
2C60: 00 7F 80 01 86 2C 02 16  00 12 80 80 76 2C 03 0D  .....,......v,..
2C70: 00 80 80 01 86 2C 02 16  00 13 80 80 86 2C 03 0D  .....,.......,..
2C80: 00 81 80 01 86 2C 01 37  33 02 08 00 03 80 80 34  .....,.73......4
2C90: 2D 02 16 00 00 80 80 A1  2C 03 0D 00 00 80 01 31  -.......,......1
2CA0: 2D 02 16 00 01 80 80 B1  2C 03 0D 00 05 80 01 31  -.......,......1
2CB0: 2D 02 16 00 02 80 80 C1  2C 03 0D 00 21 80 01 31  -.......,...!..1
2CC0: 2D 02 16 00 03 80 80 D1  2C 03 0D 00 20 80 01 31  -.......,... ..1
2CD0: 2D 02 16 00 04 80 80 E1  2C 03 0D 00 82 80 01 31  -.......,......1
2CE0: 2D 02 16 00 05 80 80 F1  2C 03 0D 00 80 80 01 31  -.......,......1
2CF0: 2D 02 16 00 06 80 80 01  2D 03 0D 00 83 80 01 31  -.......-......1
2D00: 2D 02 16 00 07 80 80 11  2D 03 0D 00 84 80 01 31  -.......-......1
2D10: 2D 02 16 00 12 80 80 21  2D 03 0D 00 85 80 01 31  -......!-......1
2D20: 2D 02 16 00 13 80 80 31  2D 03 0D 00 86 80 01 31  -......1-......1
2D30: 2D 01 37 33 02 08 00 04  80 80 DF 2D 02 16 00 00  -.73.......-....
2D40: 80 80 4C 2D 03 0D 00 00  80 01 DC 2D 02 16 00 01  ..L-.......-....
2D50: 80 80 5C 2D 03 0D 00 4E  80 01 DC 2D 02 16 00 02  ..\-...N...-....
2D60: 80 80 6C 2D 03 0D 00 16  80 01 DC 2D 02 16 00 03  ..l-.......-....
2D70: 80 80 7C 2D 03 0D 00 87  80 01 DC 2D 02 16 00 04  ..|-.......-....
2D80: 80 80 8C 2D 03 0D 00 88  80 01 DC 2D 02 16 00 05  ...-.......-....
2D90: 80 80 9C 2D 03 0D 00 1A  80 01 DC 2D 02 16 00 06  ...-.......-....
2DA0: 80 80 AC 2D 03 0D 00 89  80 01 DC 2D 02 16 00 07  ...-.......-....
2DB0: 80 80 BC 2D 03 0D 00 05  80 01 DC 2D 02 16 00 12  ...-.......-....
2DC0: 80 80 CC 2D 03 0D 00 1E  80 01 DC 2D 02 16 00 13  ...-.......-....
2DD0: 80 80 DC 2D 03 0D 00 8A  80 01 DC 2D 01 37 33 02  ...-.......-.73.
2DE0: 08 00 05 80 80 8A 2E 02  16 00 00 80 80 F7 2D 03  ..............-.
2DF0: 0D 00 00 80 01 87 2E 02  16 00 01 80 80 07 2E 03  ................
2E00: 0D 00 18 80 01 87 2E 02  16 00 02 80 80 17 2E 03  ................
2E10: 0D 00 7A 80 01 87 2E 02  16 00 03 80 80 27 2E 03  ..z..........'..
2E20: 0D 00 8B 80 01 87 2E 02  16 00 04 80 80 37 2E 03  .............7..
2E30: 0D 00 17 80 01 87 2E 02  16 00 05 80 80 47 2E 03  .............G..
2E40: 0D 00 19 80 01 87 2E 02  16 00 06 80 80 57 2E 03  .............W..
2E50: 0D 00 05 80 01 87 2E 02  16 00 07 80 80 67 2E 03  .............g..
2E60: 0D 00 15 80 01 87 2E 02  16 00 12 80 80 77 2E 03  .............w..
2E70: 0D 00 8C 80 01 87 2E 02  16 00 13 80 80 87 2E 03  ................
2E80: 0D 00 86 80 01 87 2E 01  37 33 02 08 00 06 80 80  ........73......
2E90: 35 2F 02 16 00 00 80 80  A2 2E 03 0D 00 00 80 01  5/..............
2EA0: 32 2F 02 16 00 01 80 80  B2 2E 03 0D 00 8D 80 01  2/..............
2EB0: 32 2F 02 16 00 02 80 80  C2 2E 03 0D 00 22 80 01  2/..........."..
2EC0: 32 2F 02 16 00 03 80 80  D2 2E 03 0D 00 7E 80 01  2/...........~..
2ED0: 32 2F 02 16 00 04 80 80  E2 2E 03 0D 00 8E 80 01  2/..............
2EE0: 32 2F 02 16 00 05 80 80  F2 2E 03 0D 00 8B 80 01  2/..............
2EF0: 32 2F 02 16 00 06 80 80  02 2F 03 0D 00 8F 80 01  2/......./......
2F00: 32 2F 02 16 00 07 80 80  12 2F 03 0D 00 16 80 01  2/......./......
2F10: 32 2F 02 16 00 12 80 80  22 2F 03 0D 00 04 80 01  2/......"/......
2F20: 32 2F 02 16 00 13 80 80  32 2F 03 0D 00 8A 80 01  2/......2/......
2F30: 32 2F 01 37 33 02 08 00  07 80 80 E0 2F 02 16 00  2/.73......./...
2F40: 00 80 80 4D 2F 03 0D 00  00 80 01 DD 2F 02 16 00  ...M/......./...
2F50: 01 80 80 5D 2F 03 0D 00  90 80 01 DD 2F 02 16 00  ...]/......./...
2F60: 02 80 80 6D 2F 03 0D 00  17 80 01 DD 2F 02 16 00  ...m/......./...
2F70: 03 80 80 7D 2F 03 0D 00  18 80 01 DD 2F 02 16 00  ...}/......./...
2F80: 04 80 80 8D 2F 03 0D 00  87 80 01 DD 2F 02 16 00  ..../......./...
2F90: 05 80 80 9D 2F 03 0D 00  15 80 01 DD 2F 02 16 00  ..../......./...
2FA0: 06 80 80 AD 2F 03 0D 00  7A 80 01 DD 2F 02 16 00  ..../...z.../...
2FB0: 07 80 80 BD 2F 03 0D 00  22 80 01 DD 2F 02 16 00  ..../...".../...
2FC0: 12 80 80 CD 2F 03 0D 00  91 80 01 DD 2F 02 16 00  ..../......./...
2FD0: 13 80 80 DD 2F 03 0D 00  86 80 01 DD 2F 01 37 33  ..../......./.73
2FE0: 02 08 00 12 80 80 8B 30  02 16 00 00 80 80 F8 2F  .......0......./
2FF0: 03 0D 00 00 80 01 88 30  02 16 00 01 80 80 08 30  .......0.......0
3000: 03 0D 00 92 80 01 88 30  02 16 00 02 80 80 18 30  .......0.......0
3010: 03 0D 00 1B 80 01 88 30  02 16 00 03 80 80 28 30  .......0......(0
3020: 03 0D 00 16 80 01 88 30  02 16 00 04 80 80 38 30  .......0......80
3030: 03 0D 00 7A 80 01 88 30  02 16 00 05 80 80 48 30  ...z...0......H0
3040: 03 0D 00 18 80 01 88 30  02 16 00 06 80 80 58 30  .......0......X0
3050: 03 0D 00 87 80 01 88 30  02 16 00 07 80 80 68 30  .......0......h0
3060: 03 0D 00 07 80 01 88 30  02 16 00 12 80 80 78 30  .......0......x0
3070: 03 0D 00 17 80 01 88 30  02 16 00 13 80 80 88 30  .......0.......0
3080: 03 0D 00 81 80 01 88 30  01 37 33 02 08 00 13 80  .......0.73.....
3090: 80 36 31 02 16 00 00 80  80 A3 30 03 0D 00 00 80  .61.......0.....
30A0: 01 33 31 02 16 00 01 80  80 B3 30 03 0D 00 1B 80  .31.......0.....
30B0: 01 33 31 02 16 00 02 80  80 C3 30 03 0D 00 4E 80  .31.......0...N.
30C0: 01 33 31 02 16 00 03 80  80 D3 30 03 0D 00 88 80  .31.......0.....
30D0: 01 33 31 02 16 00 04 80  80 E3 30 03 0D 00 16 80  .31.......0.....
30E0: 01 33 31 02 16 00 05 80  80 F3 30 03 0D 00 87 80  .31.......0.....
30F0: 01 33 31 02 16 00 06 80  80 03 31 03 0D 00 93 80  .31.......1.....
3100: 01 33 31 02 16 00 07 80  80 13 31 03 0D 00 1A 80  .31.......1.....
3110: 01 33 31 02 16 00 12 80  80 23 31 03 0D 00 94 80  .31......#1.....
3120: 01 33 31 02 16 00 13 80  80 33 31 03 0D 00 8A 80  .31......31.....
3130: 01 33 31 01 37 33 02 08  00 14 80 80 E1 31 02 16  .31.73.......1..
3140: 00 00 80 80 4E 31 03 0D  00 00 80 01 DE 31 02 16  ....N1.......1..
3150: 00 01 80 80 5E 31 03 0D  00 06 80 01 DE 31 02 16  ....^1.......1..
3160: 00 02 80 80 6E 31 03 0D  00 8D 80 01 DE 31 02 16  ....n1.......1..
3170: 00 03 80 80 7E 31 03 0D  00 87 80 01 DE 31 02 16  ....~1.......1..
3180: 00 04 80 80 8E 31 03 0D  00 7A 80 01 DE 31 02 16  .....1...z...1..
3190: 00 05 80 80 9E 31 03 0D  00 04 80 01 DE 31 02 16  .....1.......1..
31A0: 00 06 80 80 AE 31 03 0D  00 16 80 01 DE 31 02 16  .....1.......1..
31B0: 00 07 80 80 BE 31 03 0D  00 8E 80 01 DE 31 02 16  .....1.......1..
31C0: 00 12 80 80 CE 31 03 0D  00 95 80 01 DE 31 02 16  .....1.......1..
31D0: 00 13 80 80 DE 31 03 0D  00 81 80 01 DE 31 01 37  .....1.......1.7
31E0: 33 02 08 00 1D 80 80 8C  32 02 16 00 00 80 80 F9  3.......2.......
31F0: 31 03 0D 00 00 80 01 89  32 02 16 00 01 80 80 09  1.......2.......
3200: 32 03 0D 00 7A 80 01 89  32 02 16 00 02 80 80 19  2...z...2.......
3210: 32 03 0D 00 88 80 01 89  32 02 16 00 03 80 80 29  2.......2......)
3220: 32 03 0D 00 05 80 01 89  32 02 16 00 04 80 80 39  2.......2......9
3230: 32 03 0D 00 84 80 01 89  32 02 16 00 05 80 80 49  2.......2......I
3240: 32 03 0D 00 8B 80 01 89  32 02 16 00 06 80 80 59  2.......2......Y
3250: 32 03 0D 00 91 80 01 89  32 02 16 00 07 80 80 69  2.......2......i
3260: 32 03 0D 00 20 80 01 89  32 02 16 00 12 80 80 79  2... ...2......y
3270: 32 03 0D 00 96 80 01 89  32 02 16 00 13 80 80 89  2.......2.......
3280: 32 03 0D 00 7D 80 01 89  32 01 37 33 02 08 00 1A  2...}...2.73....
3290: 80 80 37 33 02 16 00 00  80 80 A4 32 03 0D 00 00  ..73.......2....
32A0: 80 01 34 33 02 16 00 01  80 80 B4 32 03 0D 00 1C  ..43.......2....
32B0: 80 01 34 33 02 16 00 02  80 80 C4 32 03 0D 00 1A  ..43.......2....
32C0: 80 01 34 33 02 16 00 03  80 80 D4 32 03 0D 00 21  ..43.......2...!
32D0: 80 01 34 33 02 16 00 04  80 80 E4 32 03 0D 00 04  ..43.......2....
32E0: 80 01 34 33 02 16 00 05  80 80 F4 32 03 0D 00 83  ..43.......2....
32F0: 80 01 34 33 02 16 00 06  80 80 04 33 03 0D 00 1E  ..43.......3....
3300: 80 01 34 33 02 16 00 07  80 80 14 33 03 0D 00 97  ..43.......3....
3310: 80 01 34 33 02 16 00 12  80 80 24 33 03 0D 00 98  ..43......$3....
3320: 80 01 34 33 02 16 00 13  80 80 34 33 03 0D 00 7D  ..43......43...}
3330: 80 01 34 33 01 37 33 1B  02 15 00 00 80 80 03 34  ..43.73........4
3340: 02 16 00 00 80 80 50 33  03 0E 00 4E 80 01 00 34  ......P3...N...4
3350: 02 16 00 01 80 80 60 33  03 0E 00 02 80 01 00 34  ......`3.......4
3360: 02 16 00 02 80 80 70 33  03 0E 00 7B 80 01 00 34  ......p3...{...4
3370: 02 16 00 03 80 80 80 33  03 0E 00 99 80 01 00 34  .......3.......4
3380: 02 16 00 04 80 80 90 33  03 0E 00 82 80 01 00 34  .......3.......4
3390: 02 16 00 05 80 80 A0 33  03 0E 00 3E 80 01 00 34  .......3...>...4
33A0: 02 16 00 06 80 80 B0 33  03 0E 00 13 80 01 00 34  .......3.......4
33B0: 02 16 00 07 80 80 C0 33  03 0E 00 80 80 01 00 34  .......3.......4
33C0: 02 16 00 12 80 80 D0 33  03 0E 00 85 80 01 00 34  .......3.......4
33D0: 02 16 00 13 80 80 E0 33  03 0E 00 98 80 01 00 34  .......3.......4
33E0: 02 16 00 14 80 80 F0 33  03 0E 00 9A 80 01 00 34  .......3.......4
33F0: 02 16 00 1D 80 80 00 34  03 0E 00 97 80 01 00 34  .......4.......4
3400: 01 64 36 02 15 00 01 80  80 CE 34 02 16 00 00 80  .d6.......4.....
3410: 80 1B 34 03 0E 00 06 80  01 CB 34 02 16 00 01 80  ..4.......4.....
3420: 80 2B 34 03 0E 00 05 80  01 CB 34 02 16 00 02 80  .+4.......4.....
3430: 80 3B 34 03 0E 00 79 80  01 CB 34 02 16 00 03 80  .;4...y...4.....
3440: 80 4B 34 03 0E 00 73 80  01 CB 34 02 16 00 04 80  .K4...s...4.....
3450: 80 5B 34 03 0E 00 88 80  01 CB 34 02 16 00 05 80  .[4.......4.....
3460: 80 6B 34 03 0E 00 1A 80  01 CB 34 02 16 00 06 80  .k4.......4.....
3470: 80 7B 34 03 0E 00 07 80  01 CB 34 02 16 00 07 80  .{4.......4.....
3480: 80 8B 34 03 0E 00 04 80  01 CB 34 02 16 00 12 80  ..4.......4.....
3490: 80 9B 34 03 0E 00 15 80  01 CB 34 02 16 00 13 80  ..4.......4.....
34A0: 80 AB 34 03 0E 00 20 80  01 CB 34 02 16 00 14 80  ..4... ...4.....
34B0: 80 BB 34 03 0E 00 84 80  01 CB 34 02 16 00 1D 80  ..4.......4.....
34C0: 80 CB 34 03 0E 00 96 80  01 CB 34 01 64 36 02 15  ..4.......4.d6..
34D0: 00 02 80 80 99 35 02 16  00 00 80 80 E6 34 03 0E  .....5.......4..
34E0: 00 22 80 01 96 35 02 16  00 01 80 80 F6 34 03 0E  ."...5.......4..
34F0: 00 7A 80 01 96 35 02 16  00 02 80 80 06 35 03 0E  .z...5.......5..
3500: 00 90 80 01 96 35 02 16  00 03 80 80 16 35 03 0E  .....5.......5..
3510: 00 19 80 01 96 35 02 16  00 04 80 80 26 35 03 0E  .....5......&5..
3520: 00 16 80 01 96 35 02 16  00 05 80 80 36 35 03 0E  .....5......65..
3530: 00 10 80 01 96 35 02 16  00 06 80 80 46 35 03 0E  .....5......F5..
3540: 00 17 80 01 96 35 02 16  00 07 80 80 56 35 03 0E  .....5......V5..
3550: 00 9B 80 01 96 35 02 16  00 12 80 80 66 35 03 0E  .....5......f5..
3560: 00 7C 80 01 96 35 02 16  00 13 80 80 76 35 03 0E  .|...5......v5..
3570: 00 8C 80 01 96 35 02 16  00 14 80 80 86 35 03 0E  .....5.......5..
3580: 00 94 80 01 96 35 02 16  00 1D 80 80 96 35 03 0E  .....5.......5..
3590: 00 43 80 01 96 35 01 64  36 02 15 00 03 80 80 64  .C...5.d6......d
35A0: 36 02 16 00 00 80 80 B1  35 03 0E 00 12 80 01 61  6.......5......a
35B0: 36 02 16 00 01 80 80 C1  35 03 0E 00 9C 80 01 61  6.......5......a
35C0: 36 02 16 00 02 80 80 D1  35 03 0E 00 1B 80 01 61  6.......5......a
35D0: 36 02 16 00 03 80 80 E1  35 03 0E 00 1F 80 01 61  6.......5......a
35E0: 36 02 16 00 04 80 80 F1  35 03 0E 00 9D 80 01 61  6.......5......a
35F0: 36 02 16 00 05 80 80 01  36 03 0E 00 92 80 01 61  6.......6......a
3600: 36 02 16 00 06 80 80 11  36 03 0E 00 9E 80 01 61  6.......6......a
3610: 36 02 16 00 07 80 80 21  36 03 0E 00 8E 80 01 61  6......!6......a
3620: 36 02 16 00 12 80 80 31  36 03 0E 00 93 80 01 61  6......16......a
3630: 36 02 16 00 13 80 80 41  36 03 0E 00 89 80 01 61  6......A6......a
3640: 36 02 16 00 14 80 80 51  36 03 0E 00 95 80 01 61  6......Q6......a
3650: 36 02 16 00 1D 80 80 61  36 03 0E 00 9F 80 01 61  6......a6......a
3660: 36 01 64 36 1B 02 15 00  00 80 80 30 37 02 16 00  6.d6.......07...
3670: 00 80 80 7D 36 03 0F 00  4E 80 01 2D 37 02 16 00  ...}6...N..-7...
3680: 01 80 80 8D 36 03 0F 00  02 80 01 2D 37 02 16 00  ....6......-7...
3690: 02 80 80 9D 36 03 0F 00  7B 80 01 2D 37 02 16 00  ....6...{..-7...
36A0: 03 80 80 AD 36 03 0F 00  99 80 01 2D 37 02 16 00  ....6......-7...
36B0: 04 80 80 BD 36 03 0F 00  82 80 01 2D 37 02 16 00  ....6......-7...
36C0: 05 80 80 CD 36 03 0F 00  3E 80 01 2D 37 02 16 00  ....6...>..-7...
36D0: 06 80 80 DD 36 03 0F 00  13 80 01 2D 37 02 16 00  ....6......-7...
36E0: 07 80 80 ED 36 03 0F 00  80 80 01 2D 37 02 16 00  ....6......-7...
36F0: 12 80 80 FD 36 03 0F 00  85 80 01 2D 37 02 16 00  ....6......-7...
3700: 13 80 80 0D 37 03 0F 00  98 80 01 2D 37 02 16 00  ....7......-7...
3710: 14 80 80 1D 37 03 0F 00  9A 80 01 2D 37 02 16 00  ....7......-7...
3720: 1D 80 80 2D 37 03 0F 00  97 80 01 2D 37 01 91 39  ...-7......-7..9
3730: 02 15 00 01 80 80 FB 37  02 16 00 00 80 80 48 37  .......7......H7
3740: 03 0F 00 06 80 01 F8 37  02 16 00 01 80 80 58 37  .......7......X7
3750: 03 0F 00 05 80 01 F8 37  02 16 00 02 80 80 68 37  .......7......h7
3760: 03 0F 00 79 80 01 F8 37  02 16 00 03 80 80 78 37  ...y...7......x7
3770: 03 0F 00 73 80 01 F8 37  02 16 00 04 80 80 88 37  ...s...7.......7
3780: 03 0F 00 88 80 01 F8 37  02 16 00 05 80 80 98 37  .......7.......7
3790: 03 0F 00 1A 80 01 F8 37  02 16 00 06 80 80 A8 37  .......7.......7
37A0: 03 0F 00 07 80 01 F8 37  02 16 00 07 80 80 B8 37  .......7.......7
37B0: 03 0F 00 04 80 01 F8 37  02 16 00 12 80 80 C8 37  .......7.......7
37C0: 03 0F 00 15 80 01 F8 37  02 16 00 13 80 80 D8 37  .......7.......7
37D0: 03 0F 00 20 80 01 F8 37  02 16 00 14 80 80 E8 37  ... ...7.......7
37E0: 03 0F 00 84 80 01 F8 37  02 16 00 1D 80 80 F8 37  .......7.......7
37F0: 03 0F 00 96 80 01 F8 37  01 91 39 02 15 00 02 80  .......7..9.....
3800: 80 C6 38 02 16 00 00 80  80 13 38 03 0F 00 22 80  ..8.......8...".
3810: 01 C3 38 02 16 00 01 80  80 23 38 03 0F 00 7A 80  ..8......#8...z.
3820: 01 C3 38 02 16 00 02 80  80 33 38 03 0F 00 90 80  ..8......38.....
3830: 01 C3 38 02 16 00 03 80  80 43 38 03 0F 00 19 80  ..8......C8.....
3840: 01 C3 38 02 16 00 04 80  80 53 38 03 0F 00 16 80  ..8......S8.....
3850: 01 C3 38 02 16 00 05 80  80 63 38 03 0F 00 18 80  ..8......c8.....
3860: 01 C3 38 02 16 00 06 80  80 73 38 03 0F 00 17 80  ..8......s8.....
3870: 01 C3 38 02 16 00 07 80  80 83 38 03 0F 00 1D 80  ..8.......8.....
3880: 01 C3 38 02 16 00 12 80  80 93 38 03 0F 00 7C 80  ..8.......8...|.
3890: 01 C3 38 02 16 00 13 80  80 A3 38 03 0F 00 8C 80  ..8.......8.....
38A0: 01 C3 38 02 16 00 14 80  80 B3 38 03 0F 00 94 80  ..8.......8.....
38B0: 01 C3 38 02 16 00 1D 80  80 C3 38 03 0F 00 43 80  ..8.......8...C.
38C0: 01 C3 38 01 91 39 02 15  00 03 80 80 91 39 02 16  ..8..9.......9..
38D0: 00 00 80 80 DE 38 03 0F  00 12 80 01 8E 39 02 16  .....8.......9..
38E0: 00 01 80 80 EE 38 03 0F  00 A0 80 01 8E 39 02 16  .....8.......9..
38F0: 00 02 80 80 FE 38 03 0F  00 00 80 01 8E 39 02 16  .....8.......9..
3900: 00 03 80 80 0E 39 03 0F  00 1F 80 01 8E 39 02 16  .....9.......9..
3910: 00 04 80 80 1E 39 03 0F  00 9C 80 01 8E 39 02 16  .....9.......9..
3920: 00 05 80 80 2E 39 03 0F  00 A1 80 01 8E 39 02 16  .....9.......9..
3930: 00 06 80 80 3E 39 03 0F  00 1E 80 01 8E 39 02 16  ....>9.......9..
3940: 00 07 80 80 4E 39 03 0F  00 8E 80 01 8E 39 02 16  ....N9.......9..
3950: 00 12 80 80 5E 39 03 0F  00 03 80 01 8E 39 02 16  ....^9.......9..
3960: 00 13 80 80 6E 39 03 0F  00 1B 80 01 8E 39 02 16  ....n9.......9..
3970: 00 14 80 80 7E 39 03 0F  00 95 80 01 8E 39 02 16  ....~9.......9..
3980: 00 1D 80 80 8E 39 03 0F  00 9F 80 01 8E 39 01 91  .....9.......9..
3990: 39 1B 02 15 00 00 80 80  5D 3A 02 16 00 00 80 80  9.......]:......
39A0: AA 39 03 10 00 4E 80 01  5A 3A 02 16 00 01 80 80  .9...N..Z:......
39B0: BA 39 03 10 00 02 80 01  5A 3A 02 16 00 02 80 80  .9......Z:......
39C0: CA 39 03 10 00 7B 80 01  5A 3A 02 16 00 03 80 80  .9...{..Z:......
39D0: DA 39 03 10 00 99 80 01  5A 3A 02 16 00 04 80 80  .9......Z:......
39E0: EA 39 03 10 00 7D 80 01  5A 3A 02 16 00 05 80 80  .9...}..Z:......
39F0: FA 39 03 10 00 3E 80 01  5A 3A 02 16 00 06 80 80  .9...>..Z:......
3A00: 0A 3A 03 10 00 13 80 01  5A 3A 02 16 00 07 80 80  .:......Z:......
3A10: 1A 3A 03 10 00 86 80 01  5A 3A 02 16 00 12 80 80  .:......Z:......
3A20: 2A 3A 03 10 00 85 80 01  5A 3A 02 16 00 13 80 80  *:......Z:......
3A30: 3A 3A 03 10 00 98 80 01  5A 3A 02 16 00 14 80 80  ::......Z:......
3A40: 4A 3A 03 10 00 9A 80 01  5A 3A 02 16 00 1D 80 80  J:......Z:......
3A50: 5A 3A 03 10 00 97 80 01  5A 3A 01 BE 3C 02 15 00  Z:......Z:..<...
3A60: 01 80 80 28 3B 02 16 00  00 80 80 75 3A 03 10 00  ...(;......u:...
3A70: 06 80 01 25 3B 02 16 00  01 80 80 85 3A 03 10 00  ...%;.......:...
3A80: 05 80 01 25 3B 02 16 00  02 80 80 95 3A 03 10 00  ...%;.......:...
3A90: 79 80 01 25 3B 02 16 00  03 80 80 A5 3A 03 10 00  y..%;.......:...
3AA0: 73 80 01 25 3B 02 16 00  04 80 80 B5 3A 03 10 00  s..%;.......:...
3AB0: 88 80 01 25 3B 02 16 00  05 80 80 C5 3A 03 10 00  ...%;.......:...
3AC0: 1A 80 01 25 3B 02 16 00  06 80 80 D5 3A 03 10 00  ...%;.......:...
3AD0: 07 80 01 25 3B 02 16 00  07 80 80 E5 3A 03 10 00  ...%;.......:...
3AE0: 04 80 01 25 3B 02 16 00  12 80 80 F5 3A 03 10 00  ...%;.......:...
3AF0: 15 80 01 25 3B 02 16 00  13 80 80 05 3B 03 10 00  ...%;.......;...
3B00: 20 80 01 25 3B 02 16 00  14 80 80 15 3B 03 10 00   ..%;.......;...
3B10: 84 80 01 25 3B 02 16 00  1D 80 80 25 3B 03 10 00  ...%;......%;...
3B20: 96 80 01 25 3B 01 BE 3C  02 15 00 02 80 80 F3 3B  ...%;..<.......;
3B30: 02 16 00 00 80 80 40 3B  03 10 00 22 80 01 F0 3B  ......@;..."...;
3B40: 02 16 00 01 80 80 50 3B  03 10 00 7A 80 01 F0 3B  ......P;...z...;
3B50: 02 16 00 02 80 80 60 3B  03 10 00 90 80 01 F0 3B  ......`;.......;
3B60: 02 16 00 03 80 80 70 3B  03 10 00 19 80 01 F0 3B  ......p;.......;
3B70: 02 16 00 04 80 80 80 3B  03 10 00 16 80 01 F0 3B  .......;.......;
3B80: 02 16 00 05 80 80 90 3B  03 10 00 18 80 01 F0 3B  .......;.......;
3B90: 02 16 00 06 80 80 A0 3B  03 10 00 17 80 01 F0 3B  .......;.......;
3BA0: 02 16 00 07 80 80 B0 3B  03 10 00 1D 80 01 F0 3B  .......;.......;
3BB0: 02 16 00 12 80 80 C0 3B  03 10 00 7C 80 01 F0 3B  .......;...|...;
3BC0: 02 16 00 13 80 80 D0 3B  03 10 00 8C 80 01 F0 3B  .......;.......;
3BD0: 02 16 00 14 80 80 E0 3B  03 10 00 94 80 01 F0 3B  .......;.......;
3BE0: 02 16 00 1D 80 80 F0 3B  03 10 00 43 80 01 F0 3B  .......;...C...;
3BF0: 01 BE 3C 02 15 00 03 80  80 BE 3C 02 16 00 00 80  ..<.......<.....
3C00: 80 0B 3C 03 10 00 12 80  01 BB 3C 02 16 00 01 80  ..<.......<.....
3C10: 80 1B 3C 03 10 00 A2 80  01 BB 3C 02 16 00 02 80  ..<.......<.....
3C20: 80 2B 3C 03 10 00 1B 80  01 BB 3C 02 16 00 03 80  .+<.......<.....
3C30: 80 3B 3C 03 10 00 1F 80  01 BB 3C 02 16 00 04 80  .;<.......<.....
3C40: 80 4B 3C 03 10 00 A0 80  01 BB 3C 02 16 00 05 80  .K<.......<.....
3C50: 80 5B 3C 03 10 00 8D 80  01 BB 3C 02 16 00 06 80  .[<.......<.....
3C60: 80 6B 3C 03 10 00 1E 80  01 BB 3C 02 16 00 07 80  .k<.......<.....
3C70: 80 7B 3C 03 10 00 8E 80  01 BB 3C 02 16 00 12 80  .{<.......<.....
3C80: 80 8B 3C 03 10 00 03 80  01 BB 3C 02 16 00 13 80  ..<.......<.....
3C90: 80 9B 3C 03 10 00 93 80  01 BB 3C 02 16 00 14 80  ..<.......<.....
3CA0: 80 AB 3C 03 10 00 95 80  01 BB 3C 02 16 00 1D 80  ..<.......<.....
3CB0: 80 BB 3C 03 10 00 9F 80  01 BB 3C 01 BE 3C 1B 02  ..<.......<..<..
3CC0: 15 00 00 80 80 8A 3D 02  16 00 00 80 80 D7 3C 03  ......=.......<.
3CD0: 11 00 4E 80 01 87 3D 02  16 00 01 80 80 E7 3C 03  ..N...=.......<.
3CE0: 11 00 02 80 01 87 3D 02  16 00 02 80 80 F7 3C 03  ......=.......<.
3CF0: 11 00 7B 80 01 87 3D 02  16 00 03 80 80 07 3D 03  ..{...=.......=.
3D00: 11 00 99 80 01 87 3D 02  16 00 04 80 80 17 3D 03  ......=.......=.
3D10: 11 00 7D 80 01 87 3D 02  16 00 05 80 80 27 3D 03  ..}...=......'=.
3D20: 11 00 3E 80 01 87 3D 02  16 00 06 80 80 37 3D 03  ..>...=......7=.
3D30: 11 00 13 80 01 87 3D 02  16 00 07 80 80 47 3D 03  ......=......G=.
3D40: 11 00 86 80 01 87 3D 02  16 00 12 80 80 57 3D 03  ......=......W=.
3D50: 11 00 85 80 01 87 3D 02  16 00 13 80 80 67 3D 03  ......=......g=.
3D60: 11 00 98 80 01 87 3D 02  16 00 14 80 80 77 3D 03  ......=......w=.
3D70: 11 00 9A 80 01 87 3D 02  16 00 1D 80 80 87 3D 03  ......=.......=.
3D80: 11 00 97 80 01 87 3D 01  EB 3F 02 15 00 01 80 80  ......=..?......
3D90: 55 3E 02 16 00 00 80 80  A2 3D 03 11 00 06 80 01  U>.......=......
3DA0: 52 3E 02 16 00 01 80 80  B2 3D 03 11 00 05 80 01  R>.......=......
3DB0: 52 3E 02 16 00 02 80 80  C2 3D 03 11 00 79 80 01  R>.......=...y..
3DC0: 52 3E 02 16 00 03 80 80  D2 3D 03 11 00 73 80 01  R>.......=...s..
3DD0: 52 3E 02 16 00 04 80 80  E2 3D 03 11 00 88 80 01  R>.......=......
3DE0: 52 3E 02 16 00 05 80 80  F2 3D 03 11 00 1A 80 01  R>.......=......
3DF0: 52 3E 02 16 00 06 80 80  02 3E 03 11 00 07 80 01  R>.......>......
3E00: 52 3E 02 16 00 07 80 80  12 3E 03 11 00 04 80 01  R>.......>......
3E10: 52 3E 02 16 00 12 80 80  22 3E 03 11 00 15 80 01  R>......">......
3E20: 52 3E 02 16 00 13 80 80  32 3E 03 11 00 20 80 01  R>......2>... ..
3E30: 52 3E 02 16 00 14 80 80  42 3E 03 11 00 84 80 01  R>......B>......
3E40: 52 3E 02 16 00 1D 80 80  52 3E 03 11 00 96 80 01  R>......R>......
3E50: 52 3E 01 EB 3F 02 15 00  02 80 80 20 3F 02 16 00  R>..?...... ?...
3E60: 00 80 80 6D 3E 03 11 00  22 80 01 1D 3F 02 16 00  ...m>..."...?...
3E70: 01 80 80 7D 3E 03 11 00  7A 80 01 1D 3F 02 16 00  ...}>...z...?...
3E80: 02 80 80 8D 3E 03 11 00  90 80 01 1D 3F 02 16 00  ....>.......?...
3E90: 03 80 80 9D 3E 03 11 00  19 80 01 1D 3F 02 16 00  ....>.......?...
3EA0: 04 80 80 AD 3E 03 11 00  16 80 01 1D 3F 02 16 00  ....>.......?...
3EB0: 05 80 80 BD 3E 03 11 00  18 80 01 1D 3F 02 16 00  ....>.......?...
3EC0: 06 80 80 CD 3E 03 11 00  17 80 01 1D 3F 02 16 00  ....>.......?...
3ED0: 07 80 80 DD 3E 03 11 00  1D 80 01 1D 3F 02 16 00  ....>.......?...
3EE0: 12 80 80 ED 3E 03 11 00  7C 80 01 1D 3F 02 16 00  ....>...|...?...
3EF0: 13 80 80 FD 3E 03 11 00  8C 80 01 1D 3F 02 16 00  ....>.......?...
3F00: 14 80 80 0D 3F 03 11 00  94 80 01 1D 3F 02 16 00  ....?.......?...
3F10: 1D 80 80 1D 3F 03 11 00  43 80 01 1D 3F 01 EB 3F  ....?...C...?..?
3F20: 02 15 00 03 80 80 EB 3F  02 16 00 00 80 80 38 3F  .......?......8?
3F30: 03 11 00 12 80 01 E8 3F  02 16 00 01 80 80 48 3F  .......?......H?
3F40: 03 11 00 0A 80 01 E8 3F  02 16 00 02 80 80 58 3F  .......?......X?
3F50: 03 11 00 03 80 01 E8 3F  02 16 00 03 80 80 68 3F  .......?......h?
3F60: 03 11 00 1F 80 01 E8 3F  02 16 00 04 80 80 78 3F  .......?......x?
3F70: 03 11 00 A2 80 01 E8 3F  02 16 00 05 80 80 88 3F  .......?.......?
3F80: 03 11 00 00 80 01 E8 3F  02 16 00 06 80 80 98 3F  .......?.......?
3F90: 03 11 00 1E 80 01 E8 3F  02 16 00 07 80 80 A8 3F  .......?.......?
3FA0: 03 11 00 8E 80 01 E8 3F  02 16 00 12 80 80 B8 3F  .......?.......?
3FB0: 03 11 00 14 80 01 E8 3F  02 16 00 13 80 80 C8 3F  .......?.......?
3FC0: 03 11 00 1B 80 01 E8 3F  02 16 00 14 80 80 D8 3F  .......?.......?
3FD0: 03 11 00 95 80 01 E8 3F  02 16 00 1D 80 80 E8 3F  .......?.......?
3FE0: 03 11 00 9F 80 01 E8 3F  01 EB 3F 1B 02 17 00 00  .......?..?.....
3FF0: 80 80 8A 40 02 16 00 00  80 80 09 40 03 12 00 52  ...@.......@...R
4000: 80 03 13 00 52 80 01 87  40 02 16 00 01 80 80 1E  ....R...@.......
4010: 40 03 12 00 8B 80 03 13  00 8B 80 01 87 40 02 16  @............@..
4020: 00 02 80 80 33 40 03 12  00 43 80 03 13 00 43 80  ....3@...C....C.
4030: 01 87 40 02 16 00 03 80  80 48 40 03 12 00 A3 80  ..@......H@.....
4040: 03 13 00 A3 80 01 87 40  02 16 00 04 80 80 5D 40  .......@......]@
4050: 03 12 00 A4 80 03 13 00  A4 80 01 87 40 02 16 00  ............@...
4060: 05 80 80 72 40 03 12 00  99 80 03 13 00 99 80 01  ...r@...........
4070: 87 40 02 16 00 06 80 80  87 40 03 12 00 A5 80 03  .@.......@......
4080: 13 00 A5 80 01 87 40 01  D3 45 02 17 00 01 80 80  ......@..E......
4090: 05 41 02 16 00 00 80 80  A2 40 03 12 00 A6 80 01  .A.......@......
40A0: 02 41 02 16 00 01 80 80  B2 40 03 12 00 A7 80 01  .A.......@......
40B0: 02 41 02 16 00 02 80 80  C2 40 03 12 00 A8 80 01  .A.......@......
40C0: 02 41 02 16 00 03 80 80  D2 40 03 12 00 A9 80 01  .A.......@......
40D0: 02 41 02 16 00 04 80 80  E2 40 03 12 00 AA 80 01  .A.......@......
40E0: 02 41 02 16 00 05 80 80  F2 40 03 12 00 AB 80 01  .A.......@......
40F0: 02 41 02 16 00 06 80 80  02 41 03 12 00 AC 80 01  .A.......A......
4100: 02 41 01 D3 45 02 17 00  02 80 80 80 41 02 16 00  .A..E.......A...
4110: 00 80 80 1D 41 03 12 00  AD 80 01 7D 41 02 16 00  ....A......}A...
4120: 01 80 80 2D 41 03 12 00  AE 80 01 7D 41 02 16 00  ...-A......}A...
4130: 02 80 80 3D 41 03 12 00  AF 80 01 7D 41 02 16 00  ...=A......}A...
4140: 03 80 80 4D 41 03 12 00  B0 80 01 7D 41 02 16 00  ...MA......}A...
4150: 04 80 80 5D 41 03 12 00  B1 80 01 7D 41 02 16 00  ...]A......}A...
4160: 05 80 80 6D 41 03 12 00  B2 80 01 7D 41 02 16 00  ...mA......}A...
4170: 06 80 80 7D 41 03 12 00  47 80 01 7D 41 01 D3 45  ...}A...G..}A..E
4180: 02 17 00 03 80 80 FB 41  02 16 00 00 80 80 98 41  .......A.......A
4190: 03 12 00 B3 80 01 F8 41  02 16 00 01 80 80 A8 41  .......A.......A
41A0: 03 12 00 B4 80 01 F8 41  02 16 00 02 80 80 B8 41  .......A.......A
41B0: 03 12 00 B5 80 01 F8 41  02 16 00 03 80 80 C8 41  .......A.......A
41C0: 03 12 00 B6 80 01 F8 41  02 16 00 04 80 80 D8 41  .......A.......A
41D0: 03 12 00 B7 80 01 F8 41  02 16 00 05 80 80 E8 41  .......A.......A
41E0: 03 12 00 B8 80 01 F8 41  02 16 00 06 80 80 F8 41  .......A.......A
41F0: 03 12 00 B9 80 01 F8 41  01 D3 45 02 17 00 04 80  .......A..E.....
4200: 80 76 42 02 16 00 00 80  80 13 42 03 12 00 BA 80  .vB.......B.....
4210: 01 73 42 02 16 00 01 80  80 23 42 03 12 00 BB 80  .sB......#B.....
4220: 01 73 42 02 16 00 02 80  80 33 42 03 12 00 BC 80  .sB......3B.....
4230: 01 73 42 02 16 00 03 80  80 43 42 03 12 00 BD 80  .sB......CB.....
4240: 01 73 42 02 16 00 04 80  80 53 42 03 12 00 BE 80  .sB......SB.....
4250: 01 73 42 02 16 00 05 80  80 63 42 03 12 00 BF 80  .sB......cB.....
4260: 01 73 42 02 16 00 06 80  80 73 42 03 12 00 C0 80  .sB......sB.....
4270: 01 73 42 01 D3 45 02 17  00 05 80 80 F1 42 02 16  .sB..E.......B..
4280: 00 00 80 80 8E 42 03 12  00 7F 80 01 EE 42 02 16  .....B.......B..
4290: 00 01 80 80 9E 42 03 12  00 08 80 01 EE 42 02 16  .....B.......B..
42A0: 00 02 80 80 AE 42 03 12  00 C1 80 01 EE 42 02 16  .....B.......B..
42B0: 00 03 80 80 BE 42 03 12  00 0F 80 01 EE 42 02 16  .....B.......B..
42C0: 00 04 80 80 CE 42 03 12  00 10 80 01 EE 42 02 16  .....B.......B..
42D0: 00 05 80 80 DE 42 03 12  00 C2 80 01 EE 42 02 16  .....B.......B..
42E0: 00 06 80 80 EE 42 03 12  00 5C 80 01 EE 42 01 D3  .....B...\...B..
42F0: 45 02 17 00 06 80 80 6C  43 02 16 00 00 80 80 09  E......lC.......
4300: 43 03 12 00 C3 80 01 69  43 02 16 00 01 80 80 19  C......iC.......
4310: 43 03 12 00 3F 80 01 69  43 02 16 00 02 80 80 29  C...?..iC......)
4320: 43 03 12 00 C4 80 01 69  43 02 16 00 03 80 80 39  C......iC......9
4330: 43 03 12 00 C5 80 01 69  43 02 16 00 04 80 80 49  C......iC......I
4340: 43 03 12 00 C6 80 01 69  43 02 16 00 05 80 80 59  C......iC......Y
4350: 43 03 12 00 C7 80 01 69  43 02 16 00 06 80 80 69  C......iC......i
4360: 43 03 12 00 C8 80 01 69  43 01 D3 45 02 17 00 07  C......iC..E....
4370: 80 80 E7 43 02 16 00 00  80 80 84 43 03 12 00 C9  ...C.......C....
4380: 80 01 E4 43 02 16 00 01  80 80 94 43 03 12 00 CA  ...C.......C....
4390: 80 01 E4 43 02 16 00 02  80 80 A4 43 03 12 00 CB  ...C.......C....
43A0: 80 01 E4 43 02 16 00 03  80 80 B4 43 03 12 00 CC  ...C.......C....
43B0: 80 01 E4 43 02 16 00 04  80 80 C4 43 03 12 00 CD  ...C.......C....
43C0: 80 01 E4 43 02 16 00 05  80 80 D4 43 03 12 00 CE  ...C.......C....
43D0: 80 01 E4 43 02 16 00 06  80 80 E4 43 03 12 00 CF  ...C.......C....
43E0: 80 01 E4 43 01 D3 45 02  17 00 12 80 80 62 44 02  ...C..E......bD.
43F0: 16 00 00 80 80 FF 43 03  12 00 D0 80 01 5F 44 02  ......C......_D.
4400: 16 00 01 80 80 0F 44 03  12 00 D1 80 01 5F 44 02  ......D......_D.
4410: 16 00 02 80 80 1F 44 03  12 00 D2 80 01 5F 44 02  ......D......_D.
4420: 16 00 03 80 80 2F 44 03  12 00 D3 80 01 5F 44 02  ...../D......_D.
4430: 16 00 04 80 80 3F 44 03  12 00 D4 80 01 5F 44 02  .....?D......_D.
4440: 16 00 05 80 80 4F 44 03  12 00 D5 80 01 5F 44 02  .....OD......_D.
4450: 16 00 06 80 80 5F 44 03  12 00 D6 80 01 5F 44 01  ....._D......_D.
4460: D3 45 02 17 00 13 80 80  DD 44 02 16 00 00 80 80  .E.......D......
4470: 7A 44 03 12 00 D7 80 01  DA 44 02 16 00 01 80 80  zD.......D......
4480: 8A 44 03 12 00 D8 80 01  DA 44 02 16 00 02 80 80  .D.......D......
4490: 9A 44 03 12 00 D9 80 01  DA 44 02 16 00 03 80 80  .D.......D......
44A0: AA 44 03 12 00 DA 80 01  DA 44 02 16 00 04 80 80  .D.......D......
44B0: BA 44 03 12 00 DB 80 01  DA 44 02 16 00 05 80 80  .D.......D......
44C0: CA 44 03 12 00 DC 80 01  DA 44 02 16 00 06 80 80  .D.......D......
44D0: DA 44 03 12 00 DD 80 01  DA 44 01 D3 45 02 17 00  .D.......D..E...
44E0: 14 80 80 58 45 02 16 00  00 80 80 F5 44 03 12 00  ...XE.......D...
44F0: A2 80 01 55 45 02 16 00  01 80 80 05 45 03 12 00  ...UE.......E...
4500: DE 80 01 55 45 02 16 00  02 80 80 15 45 03 12 00  ...UE.......E...
4510: DF 80 01 55 45 02 16 00  03 80 80 25 45 03 12 00  ...UE......%E...
4520: E0 80 01 55 45 02 16 00  04 80 80 35 45 03 12 00  ...UE......5E...
4530: 94 80 01 55 45 02 16 00  05 80 80 45 45 03 12 00  ...UE......EE...
4540: E1 80 01 55 45 02 16 00  06 80 80 55 45 03 12 00  ...UE......UE...
4550: E2 80 01 55 45 01 D3 45  02 17 00 1D 80 80 D3 45  ...UE..E.......E
4560: 02 16 00 00 80 80 70 45  03 12 00 E3 80 01 D0 45  ......pE.......E
4570: 02 16 00 01 80 80 80 45  03 12 00 E4 80 01 D0 45  .......E.......E
4580: 02 16 00 02 80 80 90 45  03 12 00 E5 80 01 D0 45  .......E.......E
4590: 02 16 00 03 80 80 A0 45  03 12 00 E6 80 01 D0 45  .......E.......E
45A0: 02 16 00 04 80 80 B0 45  03 12 00 E7 80 01 D0 45  .......E.......E
45B0: 02 16 00 05 80 80 C0 45  03 12 00 E8 80 01 D0 45  .......E.......E
45C0: 02 16 00 06 80 80 D0 45  03 12 00 E9 80 01 D0 45  .......E.......E
45D0: 01 D3 45 1B 02 17 00 00  80 80 DF 45 01 AF 46 02  ..E........E..F.
45E0: 17 00 03 80 80 EF 45 03  17 00 00 80 01 AF 46 02  ......E.......F.
45F0: 17 00 05 80 80 FF 45 03  17 00 00 80 01 AF 46 02  ......E.......F.
4600: 17 00 06 80 80 0F 46 03  17 00 00 80 01 AF 46 02  ......F.......F.
4610: 17 00 07 80 80 1F 46 03  17 00 00 80 01 AF 46 02  ......F.......F.
4620: 17 00 13 80 80 2F 46 03  17 00 00 80 01 AF 46 02  ...../F.......F.
4630: 17 00 1D 80 80 3F 46 03  17 00 00 80 01 AF 46 02  .....?F.......F.
4640: 16 00 00 80 80 4F 46 03  13 00 EA 80 01 AF 46 02  .....OF.......F.
4650: 16 00 01 80 80 5F 46 03  13 00 1F 80 01 AF 46 02  ....._F.......F.
4660: 16 00 02 80 80 6F 46 03  13 00 EB 80 01 AF 46 02  .....oF.......F.
4670: 16 00 03 80 80 7F 46 03  13 00 EC 80 01 AF 46 02  ......F.......F.
4680: 16 00 04 80 80 8F 46 03  13 00 3E 80 01 AF 46 02  ......F...>...F.
4690: 16 00 05 80 80 9F 46 03  13 00 9B 80 01 AF 46 02  ......F.......F.
46A0: 16 00 06 80 80 AF 46 03  13 00 79 80 01 AF 46 1B  ......F...y...F.
46B0: 02 14 00 00 80 80 BB 46  01 B2 47 02 14 00 01 80  .......F..G.....
46C0: 80 CB 46 03 0D 00 ED 80  01 B2 47 02 14 00 02 80  ..F.......G.....
46D0: 80 DB 46 03 0D 00 A4 80  01 B2 47 02 14 00 03 80  ..F.......G.....
46E0: 80 EB 46 03 0D 00 EE 80  01 B2 47 02 14 00 04 80  ..F.......G.....
46F0: 80 FB 46 03 0D 00 EF 80  01 B2 47 02 14 00 05 80  ..F.......G.....
4700: 80 0B 47 03 0D 00 CA 80  01 B2 47 02 14 00 06 80  ..G.......G.....
4710: 80 1B 47 03 0D 00 0A 80  01 B2 47 02 14 00 07 80  ..G.......G.....
4720: 80 2B 47 03 0D 00 57 80  01 B2 47 02 14 00 12 80  .+G...W...G.....
4730: 80 3B 47 03 0D 00 50 80  01 B2 47 02 14 00 13 80  .;G...P...G.....
4740: 80 B2 47 02 0B 00 00 80  80 4E 47 01 AF 47 02 0B  ..G......NG..G..
4750: 00 01 80 80 5E 47 03 0D  00 F0 80 01 AF 47 02 0B  ....^G.......G..
4760: 00 02 80 80 69 47 01 AF  47 02 0B 00 03 80 80 79  ....iG..G......y
4770: 47 03 0D 00 F0 80 01 AF  47 02 0B 00 04 80 80 84  G.......G.......
4780: 47 01 AF 47 02 0B 00 05  80 80 94 47 03 0D 00 F0  G..G.......G....
4790: 80 01 AF 47 02 0B 00 06  80 80 A4 47 03 0D 00 F0  ...G.......G....
47A0: 80 01 AF 47 02 0B 00 07  80 80 AF 47 01 AF 47 01  ...G.......G..G.
47B0: B2 47 1B 02 14 00 00 80  80 BE 47 01 FC 47 02 14  .G........G..G..
47C0: 00 01 80 80 DD 47 03 0E  00 DF 80 03 0F 00 DF 80  .....G..........
47D0: 03 10 00 DF 80 03 11 00  DF 80 01 FC 47 02 14 00  ............G...
47E0: 02 80 80 FC 47 03 0E 00  F0 80 03 0F 00 F0 80 03  ....G...........
47F0: 10 00 F0 80 03 11 00 F0  80 01 FC 47 1B 02 14 00  ...........G....
4800: 00 80 80 08 48 01 5D 48  02 14 00 01 80 80 18 48  ....H.]H.......H
4810: 03 12 00 F1 80 01 5D 48  02 14 00 02 80 80 28 48  ......]H......(H
4820: 03 12 00 F2 80 01 5D 48  02 14 00 03 80 80 3D 48  ......]H......=H
4830: 03 12 00 F3 80 03 13 00  00 80 01 5D 48 02 14 00  ...........]H...
4840: 04 80 80 4D 48 03 12 00  F4 80 01 5D 48 02 14 00  ...MH......]H...
4850: 05 80 80 5D 48 03 12 00  F5 80 01 5D 48 1B        ...]H......]H.  
```

#### Opcodes

```
  0: 0x0002 [0x00] END_REQSTACK()
```

#### Data or dead code:

```
# Dead code (unreachable instructions):
     0x0003 [0x03] ExtData[1]->WorkLocal[2] = 0*
     0x0008 [0x1A] CALL_SUBROUTINE(address=0x144E)
     0x000B [0x1A] CALL_SUBROUTINE(address=0x1458)
     0x000E [0x02] IF !(ExtData[1]->WorkLocal[11] == 0*) GOTO 0x0111
     0x0016 [0x02] IF !(ExtData[1]->WorkLocal[1] == 0*) GOTO 0x0035
     0x001E [0xB4] UI_WINDOW_STRING_HANDLER(case=0x00 - Copy string from opcode, work_offset=ExtData[1]->WorkLocal[2], string="Feliz")
     0x0032 [0x01] GOTO 0x010E
     0x0035 [0x02] IF !(ExtData[1]->WorkLocal[1] == 1*) GOTO 0x0054
     0x003D [0xB4] UI_WINDOW_STRING_HANDLER(case=0x00 - Copy string from opcode, work_offset=ExtData[1]->WorkLocal[2], string="Ferdinand")
     0x0051 [0x01] GOTO 0x010E
     0x0054 [0x02] IF !(ExtData[1]->WorkLocal[1] == 2*) GOTO 0x0073
     0x005C [0xB4] UI_WINDOW_STRING_HANDLER(case=0x00 - Copy string from opcode, work_offset=ExtData[1]->WorkLocal[2], string="Gunnar")
     0x0070 [0x01] GOTO 0x010E
     0x0073 [0x02] IF !(ExtData[1]->WorkLocal[1] == 3*) GOTO 0x0092
     0x007B [0xB4] UI_WINDOW_STRING_HANDLER(case=0x00 - Copy string from opcode, work_offset=ExtData[1]->WorkLocal[2], string="Massimo")
     0x008F [0x01] GOTO 0x010E
     0x0092 [0x02] IF !(ExtData[1]->WorkLocal[1] == 4*) GOTO 0x00B1
     0x009A [0xB4] UI_WINDOW_STRING_HANDLER(case=0x00 - Copy string from opcode, work_offset=ExtData[1]->WorkLocal[2], string="Oldrich")
     0x00AE [0x01] GOTO 0x010E
     0x00B1 [0x02] IF !(ExtData[1]->WorkLocal[1] == 5*) GOTO 0x00D0
     0x00B9 [0xB4] UI_WINDOW_STRING_HANDLER(case=0x00 - Copy string from opcode, work_offset=ExtData[1]->WorkLocal[2], string="Siegward")
     0x00CD [0x01] GOTO 0x010E
     0x00D0 [0x02] IF !(ExtData[1]->WorkLocal[1] == 6*) GOTO 0x00EF
     0x00D8 [0xB4] UI_WINDOW_STRING_HANDLER(case=0x00 - Copy string from opcode, work_offset=ExtData[1]->WorkLocal[2], string="Theobald")
     0x00EC [0x01] GOTO 0x010E
     0x00EF [0x02] IF !(ExtData[1]->WorkLocal[1] == 7*) GOTO 0x010E
     0x00F7 [0xB4] UI_WINDOW_STRING_HANDLER(case=0x00 - Copy string from opcode, work_offset=ExtData[1]->WorkLocal[2], string="Zenji")
     0x010B [0x01] GOTO 0x010E
     0x010E [0x01] GOTO 0x0826
     0x0111 [0x02] IF !(ExtData[1]->WorkLocal[11] == 1*) GOTO 0x0214
     0x0119 [0x02] IF !(ExtData[1]->WorkLocal[1] == 0*) GOTO 0x0138
     0x0121 [0xB4] UI_WINDOW_STRING_HANDLER(case=0x00 - Copy string from opcode, work_offset=ExtData[1]->WorkLocal[2], string="Amerita")
     0x0135 [0x01] GOTO 0x0211
     0x0138 [0x02] IF !(ExtData[1]->WorkLocal[1] == 1*) GOTO 0x0157
     0x0140 [0xB4] UI_WINDOW_STRING_HANDLER(case=0x00 - Copy string from opcode, work_offset=ExtData[1]->WorkLocal[2], string="Beatrice")
     0x0154 [0x01] GOTO 0x0211
     0x0157 [0x02] IF !(ExtData[1]->WorkLocal[1] == 2*) GOTO 0x0176
     0x015F [0xB4] UI_WINDOW_STRING_HANDLER(case=0x00 - Copy string from opcode, work_offset=ExtData[1]->WorkLocal[2], string="Henrietta")
     0x0173 [0x01] GOTO 0x0211
     0x0176 [0x02] IF !(ExtData[1]->WorkLocal[1] == 3*) GOTO 0x0195
     0x017E [0xB4] UI_WINDOW_STRING_HANDLER(case=0x00 - Copy string from opcode, work_offset=ExtData[1]->WorkLocal[2], string="Jesimae")
     0x0192 [0x01] GOTO 0x0211
     0x0195 [0x02] IF !(ExtData[1]->WorkLocal[1] == 4*) GOTO 0x01B4
     0x019D [0xB4] UI_WINDOW_STRING_HANDLER(case=0x00 - Copy string from opcode, work_offset=ExtData[1]->WorkLocal[2], string="Karyn")
     0x01B1 [0x01] GOTO 0x0211
     0x01B4 [0x02] IF !(ExtData[1]->WorkLocal[1] == 5*) GOTO 0x01D3
