# 17232328

## Common Data

| Field            | Value                        |
|------------------|------------------------------|
| Zone             | Beaucedine Glacier (ID: 111) |
| Block Size       | 24248 bytes                  |
| Total Events     | 6                            |
| References Count | 469                          |

## List of Events

| Event ID              | Entrypoint   |   Size |   Instructions |
|-----------------------|--------------|--------|----------------|
| [65535](#event-65535) | 0x0000       |    658 |             62 |
| [231](#event-231)     | 0x0292       |   3020 |            387 |
| [232](#event-232)     | 0x0E5E       |   6866 |            878 |
| [233](#event-233)     | 0x2930       |     39 |             12 |
| [234](#event-234)     | 0x2957       |   8919 |           1109 |
| [235](#event-235)     | 0x4C2E       |   2829 |            375 |

## DAT References (imed_data)

|   Index | Hex Value   |   Dec Value |
|---------|-------------|-------------|
|       0 | 0x00C8      |         200 |
|       1 | 0x0000      |           0 |
|       2 | 0x00C9      |         201 |
|       3 | 0x0001      |           1 |
|       4 | 0x002D      |          45 |
|       5 | 0x0002      |           2 |
|       6 | 0x001E      |          30 |
|       7 | 0x00D7      |         215 |
|       8 | 0x012C      |         300 |
|       9 | 0x0093      |         147 |
|      10 | 0xFFFFAED6  |  4294946518 |
|      11 | 0xFFFEA1FD  |  4294877693 |
|      12 | 0xFFFF1849  |  4294907977 |
|      13 | 0x0D20      |        3360 |
|      14 | 0xFFFFFC29  |  4294966313 |
|      15 | 0xFFFEF901  |  4294899969 |
|      16 | 0xFFFF176F  |  4294907759 |
|      17 | 0x040F      |        1039 |
|      18 | 0x034E      |         846 |
|      19 | 0x0078      |         120 |
|      20 | 0x00FF      |         255 |
|      21 | 0x000D      |          13 |
|      22 | 0xFFFFBEED  |  4294950637 |
|      23 | 0xFFFEC51A  |  4294886682 |
|      24 | 0xFFFF18E1  |  4294908129 |
|      25 | 0x07DD      |        2013 |
|      26 | 0x0C26      |        3110 |
|      27 | 0x008C      |         140 |
|      28 | 0x0080      |         128 |
|      29 | 0x0005      |           5 |
|      30 | 0x3213      |       12819 |
|      31 | 0x0006      |           6 |
|      32 | 0x3214      |       12820 |
|      33 | 0x003C      |          60 |
|      34 | 0x00F8      |         248 |
|      35 | 0x007F      |         127 |
|      36 | 0x3215      |       12821 |
|      37 | 0x0003      |           3 |
|      38 | 0x0008      |           8 |
|      39 | 0x3216      |       12822 |
|      40 | 0x0014      |          20 |
|      41 | 0x0834      |        2100 |
|      42 | 0x3217      |       12823 |
|      43 | 0x3218      |       12824 |
|      44 | 0x3219      |       12825 |
|      45 | 0xFFFFB019  |  4294946841 |
|      46 | 0xFFFEEF73  |  4294897523 |
|      47 | 0xFFFF14A6  |  4294907046 |
|      48 | 0x0B05      |        2821 |
|      49 | 0x0004      |           4 |
|      50 | 0x321A      |       12826 |
|      51 | 0x0F50      |        3920 |
|      52 | 0x321B      |       12827 |
|      53 | 0x0028      |          40 |
|      54 | 0x321C      |       12828 |
|      55 | 0x0007      |           7 |
|      56 | 0x0384      |         900 |
|      57 | 0x000C      |          12 |
|      58 | 0xFFFFB942  |  4294949186 |
|      59 | 0xFFFEFC5A  |  4294900826 |
|      60 | 0x0DBE      |        3518 |
|      61 | 0xFFFFB47E  |  4294947966 |
|      62 | 0xFFFEF4A1  |  4294898849 |
|      63 | 0xFFFF14A7  |  4294907047 |
|      64 | 0x0CAB      |        3243 |
|      65 | 0x321D      |       12829 |
|      66 | 0x321E      |       12830 |
|      67 | 0x321F      |       12831 |
|      68 | 0x3220      |       12832 |
|      69 | 0x3221      |       12833 |
|      70 | 0x005A      |          90 |
|      71 | 0x3222      |       12834 |
|      72 | 0x3223      |       12835 |
|      73 | 0x3224      |       12836 |
|      74 | 0x0FDD      |        4061 |
|      75 | 0x0320      |         800 |
|      76 | 0x000F      |          15 |
|      77 | 0x0065      |         101 |
|      78 | 0x0067      |         103 |
|      79 | 0x39626     |      235046 |
|      80 | 0x3C059     |      245849 |
|      81 | 0x0A10      |        2576 |
|      82 | 0x312E3     |      201443 |
|      83 | 0x44B60     |      281440 |
|      84 | 0xFFFF63C0  |  4294927296 |
|      85 | 0x08FC      |        2300 |
|      86 | 0x32654     |      206420 |
|      87 | 0x43922     |      276770 |
|      88 | 0xFFFF6438  |  4294927416 |
|      89 | 0x0B42      |        2882 |
|      90 | 0x32226     |      205350 |
|      91 | 0x44E56     |      282198 |
|      92 | 0xFFFF6403  |  4294927363 |
|      93 | 0x30C67     |      199783 |
|      94 | 0x4413B     |      278843 |
|      95 | 0x32C31     |      207921 |
|      96 | 0x45657     |      284247 |
|      97 | 0xFFFF646B  |  4294927467 |
|      98 | 0x31E28     |      204328 |
|      99 | 0x45987     |      285063 |
|     100 | 0xFFFF63DA  |  4294927322 |
|     101 | 0x2F847     |      194631 |
|     102 | 0x437E9     |      276457 |
|     103 | 0x31A7F     |      203391 |
|     104 | 0x4342E     |      275502 |
|     105 | 0xFFFF63D8  |  4294927320 |
|     106 | 0x2FE38     |      196152 |
|     107 | 0x47F00     |      294656 |
|     108 | 0xFFFF6656  |  4294927958 |
|     109 | 0x0B43      |        2883 |
|     110 | 0x307FB     |      198651 |
|     111 | 0x47B26     |      293670 |
|     112 | 0xFFFF65F3  |  4294927859 |
|     113 | 0x0B24      |        2852 |
|     114 | 0x2D9FD     |      186877 |
|     115 | 0x46A03     |      289283 |
|     116 | 0xFFFF5678  |  4294923896 |
|     117 | 0x0ACB      |        2763 |
|     118 | 0xFFFFFBCE  |  4294966222 |
|     119 | 0x3AEFC     |      241404 |
|     120 | 0x3C30A     |      246538 |
|     121 | 0x08F4      |        2292 |
|     122 | 0x0657      |        1623 |
|     123 | 0x001B      |          27 |
|     124 | 0xFFFFFC00  |  4294966272 |
|     125 | 0x000A      |          10 |
|     126 | 0x0400      |        1024 |
|     127 | 0x3227      |       12839 |
|     128 | 0x3228      |       12840 |
|     129 | 0x0032      |          50 |
|     130 | 0x0015      |          21 |
|     131 | 0x0258      |         600 |
|     132 | 0x35CE4     |      220388 |
|     133 | 0x40636     |      263734 |
|     134 | 0xFFFF69B8  |  4294928824 |
|     135 | 0x07FF      |        2047 |
|     136 | 0x361FD     |      221693 |
|     137 | 0x3FBF7     |      261111 |
|     138 | 0xFFFF6C29  |  4294929449 |
|     139 | 0x07FE      |        2046 |
|     140 | 0x00FA      |         250 |
|     141 | 0x0A25      |        2597 |
|     142 | 0x0096      |         150 |
|     143 | 0x021B      |         539 |
|     144 | 0x0224      |         548 |
|     145 | 0x3229      |       12841 |
|     146 | 0x322A      |       12842 |
|     147 | 0x0019      |          25 |
|     148 | 0x3483B     |      215099 |
|     149 | 0x43C0A     |      277514 |
|     150 | 0xFFFF6683  |  4294928003 |
|     151 | 0x2FA75     |      195189 |
|     152 | 0x44957     |      280919 |
|     153 | 0x009F      |         159 |
|     154 | 0x31F2E     |      204590 |
|     155 | 0x446C2     |      280258 |
|     156 | 0xFFFF63DD  |  4294927325 |
|     157 | 0x0A24      |        2596 |
|     158 | 0x0AC9      |        2761 |
|     159 | 0x310DA     |      200922 |
|     160 | 0x43931     |      276785 |
|     161 | 0xFFFF63C1  |  4294927297 |
|     162 | 0x0FB7      |        4023 |
|     163 | 0x3040F     |      197647 |
|     164 | 0x43C7D     |      277629 |
|     165 | 0x30944     |      198980 |
|     166 | 0x42F55     |      274261 |
|     167 | 0xFFFF6416  |  4294927382 |
|     168 | 0x322B      |       12843 |
|     169 | 0x322C      |       12844 |
|     170 | 0x0362      |         866 |
|     171 | 0x322D      |       12845 |
|     172 | 0x322E      |       12846 |
|     173 | 0x322F      |       12847 |
|     174 | 0x3230      |       12848 |
|     175 | 0x3231      |       12849 |
|     176 | 0x3232      |       12850 |
|     177 | 0x3233      |       12851 |
|     178 | 0x3234      |       12852 |
|     179 | 0x3235      |       12853 |
|     180 | 0x3236      |       12854 |
|     181 | 0x0092      |         146 |
|     182 | 0x3237      |       12855 |
|     183 | 0x32BC8     |      207816 |
|     184 | 0x451F0     |      283120 |
|     185 | 0xFFFF647E  |  4294927486 |
|     186 | 0x01D4      |         468 |
|     187 | 0x336D5     |      210645 |
|     188 | 0x45934     |      284980 |
|     189 | 0xFFFF64D9  |  4294927577 |
|     190 | 0x3238      |       12856 |
|     191 | 0x0041      |          65 |
|     192 | 0x3239      |       12857 |
|     193 | 0x323A      |       12858 |
|     194 | 0x323B      |       12859 |
|     195 | 0x3154C     |      202060 |
|     196 | 0x45EEF     |      286447 |
|     197 | 0xFFFF643A  |  4294927418 |
|     198 | 0x01E3      |         483 |
|     199 | 0x0223      |         547 |
|     200 | 0x323C      |       12860 |
|     201 | 0x323D      |       12861 |
|     202 | 0x323E      |       12862 |
|     203 | 0x0C25      |        3109 |
|     204 | 0x0C89      |        3209 |
|     205 | 0x323F      |       12863 |
|     206 | 0x3240      |       12864 |
|     207 | 0x0050      |          80 |
|     208 | 0x302DD     |      197341 |
|     209 | 0x45944     |      284996 |
|     210 | 0xFFFF63F1  |  4294927345 |
|     211 | 0x0AC4      |        2756 |
|     212 | 0x3194A     |      203082 |
|     213 | 0x45A0D     |      285197 |
|     214 | 0xFFFF63FB  |  4294927355 |
|     215 | 0x3241      |       12865 |
|     216 | 0x3242      |       12866 |
|     217 | 0x3243      |       12867 |
|     218 | 0x3244      |       12868 |
|     219 | 0x3245      |       12869 |
|     220 | 0x39332     |      234290 |
|     221 | 0x3C77A     |      247674 |
|     222 | 0xFFFFFCEF  |  4294966511 |
|     223 | 0x0253      |         595 |
|     224 | 0x398C6     |      235718 |
|     225 | 0x3CCB3     |      249011 |
|     226 | 0xFFFFFDC4  |  4294966724 |
|     227 | 0x0844      |        2116 |
|     228 | 0x0A83      |        2691 |
|     229 | 0x3246      |       12870 |
|     230 | 0x3247      |       12871 |
|     231 | 0x3248      |       12872 |
|     232 | 0x0AC2      |        2754 |
|     233 | 0x3249      |       12873 |
|     234 | 0x324C      |       12876 |
|     235 | 0x324D      |       12877 |
|     236 | 0x2FD24     |      195876 |
|     237 | 0x4563D     |      284221 |
|     238 | 0x099D      |        2461 |
|     239 | 0x2F0E0     |      192736 |
|     240 | 0x44EDC     |      282332 |
|     241 | 0x2FCCD     |      195789 |
|     242 | 0x46817     |      288791 |
|     243 | 0xFFFF6495  |  4294927509 |
|     244 | 0x09DD      |        2525 |
|     245 | 0x30D89     |      200073 |
|     246 | 0x4379E     |      276382 |
|     247 | 0x318A9     |      202921 |
|     248 | 0x43D57     |      277847 |
|     249 | 0x09B1      |        2481 |
|     250 | 0x32B3F     |      207679 |
|     251 | 0x453DF     |      283615 |
|     252 | 0xFFFF6477  |  4294927479 |
|     253 | 0x09D9      |        2521 |
|     254 | 0x3213C     |      205116 |
|     255 | 0x4652B     |      288043 |
|     256 | 0xFFFF6432  |  4294927410 |
|     257 | 0x329EE     |      207342 |
|     258 | 0x447B2     |      280498 |
|     259 | 0xFFFF6466  |  4294927462 |
|     260 | 0x30C49     |      199753 |
|     261 | 0x44C97     |      281751 |
|     262 | 0x0996      |        2454 |
|     263 | 0x30ABF     |      199359 |
|     264 | 0x44849     |      280649 |
|     265 | 0x313E5     |      201701 |
|     266 | 0x44D09     |      281865 |
|     267 | 0x3031B     |      197403 |
|     268 | 0x4519B     |      283035 |
|     269 | 0xFFFFB1E0  |  4294947296 |
|     270 | 0x35BFE     |      220158 |
|     271 | 0x40329     |      262953 |
|     272 | 0xFFFF6A8B  |  4294929035 |
|     273 | 0x0350      |         848 |
|     274 | 0x324E      |       12878 |
|     275 | 0x324F      |       12879 |
|     276 | 0x3250      |       12880 |
|     277 | 0x3251      |       12881 |
|     278 | 0x3252      |       12882 |
|     279 | 0x3253      |       12883 |
|     280 | 0x3254      |       12884 |
|     281 | 0x3255      |       12885 |
|     282 | 0x3256      |       12886 |
|     283 | 0x3257      |       12887 |
|     284 | 0x3258      |       12888 |
|     285 | 0x3259      |       12889 |
|     286 | 0x0161      |         353 |
|     287 | 0x325A      |       12890 |
|     288 | 0x2F84B     |      194635 |
|     289 | 0x47E7E     |      294526 |
|     290 | 0xFFFF6529  |  4294927657 |
|     291 | 0x0DB0      |        3504 |
|     292 | 0x325B      |       12891 |
|     293 | 0x325C      |       12892 |
|     294 | 0x325D      |       12893 |
|     295 | 0x325E      |       12894 |
|     296 | 0x325F      |       12895 |
|     297 | 0x3260      |       12896 |
|     298 | 0x3261      |       12897 |
|     299 | 0x3262      |       12898 |
|     300 | 0x001C      |          28 |
|     301 | 0x3263      |       12899 |
|     302 | 0x3264      |       12900 |
|     303 | 0x3265      |       12901 |
|     304 | 0x0030      |          48 |
|     305 | 0x3266      |       12902 |
|     306 | 0x3267      |       12903 |
|     307 | 0x3083F     |      198719 |
|     308 | 0x456CB     |      284363 |
|     309 | 0x2DB76     |      187254 |
|     310 | 0x4687A     |      288890 |
|     311 | 0xFFFF56F0  |  4294924016 |
|     312 | 0x0DE1      |        3553 |
|     313 | 0x083D      |        2109 |
|     314 | 0x0A37      |        2615 |
|     315 | 0x3268      |       12904 |
|     316 | 0xFFFFFF26  |  4294967078 |
|     317 | 0x07D0      |        2000 |
|     318 | 0x03E8      |        1000 |
|     319 | 0x00B4      |         180 |
|     320 | 0x2F662     |      194146 |
|     321 | 0x4589F     |      284831 |
|     322 | 0x2FA7C     |      195196 |
|     323 | 0x446F5     |      280309 |
|     324 | 0x0C0F      |        3087 |
|     325 | 0x2FD8B     |      195979 |
|     326 | 0x46745     |      288581 |
|     327 | 0xFFFF649E  |  4294927518 |
|     328 | 0x082F      |        2095 |
|     329 | 0x46816     |      288790 |
|     330 | 0x00D1      |         209 |
|     331 | 0x009C      |         156 |
|     332 | 0x3269      |       12905 |
|     333 | 0x0D5F      |        3423 |
|     334 | 0x326A      |       12906 |
|     335 | 0x326B      |       12907 |
|     336 | 0x0023      |          35 |
|     337 | 0x34BF5     |      216053 |
|     338 | 0x4212D     |      270637 |
|     339 | 0xFFFF65D6  |  4294927830 |
|     340 | 0x0F9D      |        3997 |
|     341 | 0x326C      |       12908 |
|     342 | 0x326D      |       12909 |
|     343 | 0x326E      |       12910 |
|     344 | 0x326F      |       12911 |
|     345 | 0x39464     |      234596 |
|     346 | 0x3C83F     |      247871 |
|     347 | 0xFFFFFD84  |  4294966660 |
|     348 | 0x03BA      |         954 |
|     349 | 0x3DDF1     |      253425 |
|     350 | 0x3BB14     |      244500 |
|     351 | 0x00EC      |         236 |
|     352 | 0x081A      |        2074 |
|     353 | 0x390AA     |      233642 |
|     354 | 0x3C237     |      246327 |
|     355 | 0xFFFFFDC5  |  4294966725 |
|     356 | 0x3A1F5     |      238069 |
|     357 | 0x35CD9     |      220377 |
|     358 | 0x03D4      |         980 |
|     359 | 0x0C30      |        3120 |
|     360 | 0x3A5DC     |      239068 |
|     361 | 0x3633F     |      222015 |
|     362 | 0x0382      |         898 |
|     363 | 0x0B7C      |        2940 |
|     364 | 0x3AB8E     |      240526 |
|     365 | 0x3978D     |      235405 |
|     366 | 0xFFFFFDA8  |  4294966696 |
|     367 | 0x09FC      |        2556 |
|     368 | 0xFFFFFB50  |  4294966096 |
|     369 | 0x0358      |         856 |
|     370 | 0x3270      |       12912 |
|     371 | 0x3271      |       12913 |
|     372 | 0x3272      |       12914 |
|     373 | 0x3273      |       12915 |
|     374 | 0x0016      |          22 |
|     375 | 0x0046      |          70 |
|     376 | 0x3A1C7     |      238023 |
|     377 | 0x37D46     |      228678 |
|     378 | 0x016B      |         363 |
|     379 | 0x0425      |        1061 |
|     380 | 0x392BC     |      234172 |
|     381 | 0x3A6FD     |      239357 |
|     382 | 0xFFFFFFA5  |  4294967205 |
|     383 | 0x3274      |       12916 |
|     384 | 0x3275      |       12917 |
|     385 | 0x3276      |       12918 |
|     386 | 0x3277      |       12919 |
|     387 | 0x3278      |       12920 |
|     388 | 0x001A      |          26 |
|     389 | 0x397F2     |      235506 |
|     390 | 0x3AE55     |      241237 |
|     391 | 0xFFFFFFE7  |  4294967271 |
|     392 | 0x0357      |         855 |
|     393 | 0x3279      |       12921 |
|     394 | 0x3ACA3     |      240803 |
|     395 | 0x3AD85     |      241029 |
|     396 | 0x0650      |        1616 |
|     397 | 0x38FD1     |      233425 |
|     398 | 0x3AFDF     |      241631 |
|     399 | 0xFFFFFF7F  |  4294967167 |
|     400 | 0x0417      |        1047 |
|     401 | 0x327A      |       12922 |
|     402 | 0x3B401     |      242689 |
|     403 | 0x3B3A6     |      242598 |
|     404 | 0x39FC1     |      237505 |
|     405 | 0x3C266     |      246374 |
|     406 | 0x0C4E      |        3150 |
|     407 | 0x32331     |      205617 |
|     408 | 0x442B1     |      279217 |
|     409 | 0xFFFF6410  |  4294927376 |
|     410 | 0x32503     |      206083 |
|     411 | 0x45A02     |      285186 |
|     412 | 0xFFFF63CC  |  4294927308 |
|     413 | 0x30EFA     |      200442 |
|     414 | 0x446AE     |      280238 |
|     415 | 0x31155     |      201045 |
|     416 | 0x43CF1     |      277745 |
|     417 | 0x30F24     |      200484 |
|     418 | 0x45AB5     |      285365 |
|     419 | 0xFFFF6404  |  4294927364 |
|     420 | 0x0BB8      |        3000 |
|     421 | 0x30B5C     |      199516 |
|     422 | 0x46523     |      288035 |
|     423 | 0xFFFF6489  |  4294927497 |
|     424 | 0x30F9E     |      200606 |
|     425 | 0x472AD     |      291501 |
|     426 | 0xFFFF6536  |  4294927670 |
|     427 | 0x39632     |      235058 |
|     428 | 0x35373     |      217971 |
|     429 | 0x02A6      |         678 |
|     430 | 0x04C4      |        1220 |
|     431 | 0x39057     |      233559 |
|     432 | 0x3494D     |      215373 |
|     433 | 0x00FB      |         251 |
|     434 | 0x0E36      |        3638 |
|     435 | 0x39557     |      234839 |
|     436 | 0x34765     |      214885 |
|     437 | 0x0209      |         521 |
|     438 | 0x0BB0      |        2992 |
|     439 | 0x3C2D1     |      246481 |
|     440 | 0x3BD39     |      245049 |
|     441 | 0x007B      |         123 |
|     442 | 0x3BF7F     |      245631 |
|     443 | 0x3B630     |      243248 |
|     444 | 0x098E      |        2446 |
|     445 | 0x0017      |          23 |
|     446 | 0x0064      |         100 |
|     447 | 0x0351      |         849 |
|     448 | 0x327B      |       12923 |
|     449 | 0x327C      |       12924 |
|     450 | 0x327D      |       12925 |
|     451 | 0x327E      |       12926 |
|     452 | 0x327F      |       12927 |
|     453 | 0x3280      |       12928 |
|     454 | 0x3281      |       12929 |
|     455 | 0x3282      |       12930 |
|     456 | 0x3283      |       12931 |
|     457 | 0x3284      |       12932 |
|     458 | 0x3285      |       12933 |
|     459 | 0x3286      |       12934 |
|     460 | 0x3287      |       12935 |
|     461 | 0x3288      |       12936 |
|     462 | 0x3289      |       12937 |
|     463 | 0xFFFFFE70  |  4294966896 |
|     464 | 0x328A      |       12938 |
|     465 | 0x328B      |       12939 |
|     466 | 0x328C      |       12940 |
|     467 | 0x328D      |       12941 |
|     468 | 0x328E      |       12942 |

## String References

- **12876**: The grapnel is still here...
- **12877**: Climb the cliff? [Yes./Not now.]
- **12909**: How do you reply? [I think so./Probably not.]
- **12915**: How will you respond? [I <Player>./I Raebrimm./I Naji.]

## Events

### Event 65535

#### Metadata

| Field        | Value     |
|--------------|-----------|
| Entrypoint   | 0x0000    |
| Data Size    | 658 bytes |
| Instructions | 1         |

```
      00 01 02 03 04 05 06 07  08 09 0A 0B 0C 0D 0E 0F
      -- -- -- -- -- -- -- --  -- -- -- -- -- -- -- --
0000: 00 45 00 80 F0 FF FF 7F  F0 FF FF 7F 66 64 69 30  .E..........fdi0
0010: 01 80 55 00 80 F0 FF FF  7F F0 FF FF 7F 66 64 69  ..U..........fdi
0020: 30 1B 45 00 80 F0 FF FF  7F F0 FF FF 7F 66 64 6F  0.E..........fdo
0030: 30 01 80 55 00 80 F0 FF  FF 7F F0 FF FF 7F 66 64  0..U..........fd
0040: 6F 30 1B 45 00 80 F0 FF  FF 7F F0 FF FF 7F 66 64  o0.E..........fd
0050: 69 31 01 80 55 00 80 F0  FF FF 7F F0 FF FF 7F 66  i1..U..........f
0060: 64 69 31 1B 45 00 80 F0  FF FF 7F F0 FF FF 7F 66  di1.E..........f
0070: 64 6F 31 01 80 55 00 80  F0 FF FF 7F F0 FF FF 7F  do1..U..........
0080: 66 64 6F 31 1B 45 02 80  F0 FF FF 7F F0 FF FF 7F  fdo1.E..........
0090: 77 68 69 31 01 80 55 02  80 F0 FF FF 7F F0 FF FF  whi1..U.........
00A0: 7F 77 68 69 31 1B 45 02  80 F0 FF FF 7F F0 FF FF  .whi1.E.........
00B0: 7F 77 68 6F 31 01 80 55  02 80 F0 FF FF 7F F0 FF  .who1..U........
00C0: FF 7F 77 68 6F 31 1B 45  02 80 F0 FF FF 7F F0 FF  ..who1.E........
00D0: FF 7F 77 68 6F 32 01 80  55 02 80 F0 FF FF 7F F0  ..who2..U.......
00E0: FF FF 7F 77 68 6F 32 1B  45 02 80 F0 FF FF 7F F0  ...who2.E.......
00F0: FF FF 7F 77 68 6F 33 01  80 55 02 80 F0 FF FF 7F  ...who3..U......
0100: F0 FF FF 7F 77 68 6F 33  1B 62 03 80 F0 FF FF 7F  ....who3.b......
0110: F0 FF FF 7F 6D 61 69 6E  01 80 1C 04 80 45 00 80  ....main.....E..
0120: F0 FF FF 7F F0 FF FF 7F  66 64 6F 31 01 80 55 00  ........fdo1..U.
0130: 80 F0 FF FF 7F F0 FF FF  7F 66 64 6F 31 1B 45 00  .........fdo1.E.
0140: 80 F0 FF FF 7F F0 FF FF  7F 66 64 69 31 01 80 62  .........fdi1..b
0150: 05 80 F0 FF FF 7F F0 FF  FF 7F 6D 61 69 6E 01 80  ..........main..
0160: 1C 06 80 55 00 80 F0 FF  FF 7F F0 FF FF 7F 66 64  ...U..........fd
0170: 69 31 1B 45 00 80 F0 FF  FF 7F F0 FF FF 7F 62 6C  i1.E..........bl
0180: 6F 6E 01 80 45 02 80 F0  FF FF 7F F0 FF FF 7F 62  on..E..........b
0190: 6C 6F 6E 01 80 1B 45 02  80 F0 FF FF 7F F0 FF FF  lon...E.........
01A0: 7F 77 68 69 30 01 80 55  02 80 F0 FF FF 7F F0 FF  .whi0..U........
01B0: FF 7F 77 68 69 30 1B 45  02 80 F0 FF FF 7F F0 FF  ..whi0.E........
01C0: FF 7F 77 68 6F 30 01 80  55 02 80 F0 FF FF 7F F0  ..who0..U.......
01D0: FF FF 7F 77 68 6F 30 1B  45 07 80 F0 FF FF 7F F0  ...who0.E.......
01E0: FF FF 7F 65 66 6F 6E 01  80 55 07 80 F0 FF FF 7F  ...efon..U......
01F0: F0 FF FF 7F 65 66 6F 6E  1B 45 00 80 F0 FF FF 7F  ....efon.E......
0200: F0 FF FF 7F 66 64 69 73  01 80 1B 45 00 80 F0 FF  ....fdis...E....
0210: FF 7F F0 FF FF 7F 66 64  6F 73 01 80 55 00 80 F0  ......fdos..U...
0220: FF FF 7F F0 FF FF 7F 66  64 6F 73 1B 45 00 80 F0  .......fdos.E...
0230: FF FF 7F F0 FF FF 7F 66  64 69 66 01 80 1B 45 00  .......fdif...E.
0240: 80 F0 FF FF 7F F0 FF FF  7F 66 64 6F 66 01 80 55  .........fdof..U
0250: 00 80 F0 FF FF 7F F0 FF  FF 7F 66 64 6F 66 1B 45  ..........fdof.E
0260: 00 80 F0 FF FF 7F F0 FF  FF 7F 66 64 69 70 01 80  ..........fdip..
0270: 1B 45 00 80 F0 FF FF 7F  F0 FF FF 7F 66 64 6F 70  .E..........fdop
0280: 01 80 55 00 80 F0 FF FF  7F F0 FF FF 7F 66 64 6F  ..U..........fdo
0290: 70 1B                                             p.              
```

#### Opcodes

```
  0: 0x0000 [0x00] END_REQSTACK()
```

#### Data or dead code:

```
# Dead code (unreachable instructions):
     0x0001 [0x45] LOAD_SCHEDULED_TASK: Load scheduler "fdi0" with entities [LocalPlayer, LocalPlayer], work=[200*, 0*]
     0x0012 [0x55] WAIT_LOAD_SCHEDULER: Wait for scheduler "fdi0" with entities [LocalPlayer, LocalPlayer], work=200*
     0x0021 [0x1B] RETURN
     0x0022 [0x45] LOAD_SCHEDULED_TASK: Load scheduler "fdo0" with entities [LocalPlayer, LocalPlayer], work=[200*, 0*]
     0x0033 [0x55] WAIT_LOAD_SCHEDULER: Wait for scheduler "fdo0" with entities [LocalPlayer, LocalPlayer], work=200*
     0x0042 [0x1B] RETURN
     0x0043 [0x45] LOAD_SCHEDULED_TASK: Load scheduler "fdi1" with entities [LocalPlayer, LocalPlayer], work=[200*, 0*]
     0x0054 [0x55] WAIT_LOAD_SCHEDULER: Wait for scheduler "fdi1" with entities [LocalPlayer, LocalPlayer], work=200*
     0x0063 [0x1B] RETURN
     0x0064 [0x45] LOAD_SCHEDULED_TASK: Load scheduler "fdo1" with entities [LocalPlayer, LocalPlayer], work=[200*, 0*]
     0x0075 [0x55] WAIT_LOAD_SCHEDULER: Wait for scheduler "fdo1" with entities [LocalPlayer, LocalPlayer], work=200*
     0x0084 [0x1B] RETURN
     0x0085 [0x45] LOAD_SCHEDULED_TASK: Load scheduler "whi1" with entities [LocalPlayer, LocalPlayer], work=[201*, 0*]
     0x0096 [0x55] WAIT_LOAD_SCHEDULER: Wait for scheduler "whi1" with entities [LocalPlayer, LocalPlayer], work=201*
     0x00A5 [0x1B] RETURN
     0x00A6 [0x45] LOAD_SCHEDULED_TASK: Load scheduler "who1" with entities [LocalPlayer, LocalPlayer], work=[201*, 0*]
     0x00B7 [0x55] WAIT_LOAD_SCHEDULER: Wait for scheduler "who1" with entities [LocalPlayer, LocalPlayer], work=201*
     0x00C6 [0x1B] RETURN
     0x00C7 [0x45] LOAD_SCHEDULED_TASK: Load scheduler "who2" with entities [LocalPlayer, LocalPlayer], work=[201*, 0*]
     0x00D8 [0x55] WAIT_LOAD_SCHEDULER: Wait for scheduler "who2" with entities [LocalPlayer, LocalPlayer], work=201*
     0x00E7 [0x1B] RETURN
     0x00E8 [0x45] LOAD_SCHEDULED_TASK: Load scheduler "who3" with entities [LocalPlayer, LocalPlayer], work=[201*, 0*]
     0x00F9 [0x55] WAIT_LOAD_SCHEDULER: Wait for scheduler "who3" with entities [LocalPlayer, LocalPlayer], work=201*
     0x0108 [0x1B] RETURN
     0x0109 [0x62] LOAD_EVENT_SCHEDULER: Load scheduler "main" with entities [LocalPlayer, LocalPlayer], work=[1*, 0*]
     0x011A [0x1C] WAIT(45* ticks)
     0x011D [0x45] LOAD_SCHEDULED_TASK: Load scheduler "fdo1" with entities [LocalPlayer, LocalPlayer], work=[200*, 0*]
     0x012E [0x55] WAIT_LOAD_SCHEDULER: Wait for scheduler "fdo1" with entities [LocalPlayer, LocalPlayer], work=200*
     0x013D [0x1B] RETURN
     0x013E [0x45] LOAD_SCHEDULED_TASK: Load scheduler "fdi1" with entities [LocalPlayer, LocalPlayer], work=[200*, 0*]
     0x014F [0x62] LOAD_EVENT_SCHEDULER: Load scheduler "main" with entities [LocalPlayer, LocalPlayer], work=[2*, 0*]
     0x0160 [0x1C] WAIT(30* ticks)
     0x0163 [0x55] WAIT_LOAD_SCHEDULER: Wait for scheduler "fdi1" with entities [LocalPlayer, LocalPlayer], work=200*
     0x0172 [0x1B] RETURN
     0x0173 [0x45] LOAD_SCHEDULED_TASK: Load scheduler "blon" with entities [LocalPlayer, LocalPlayer], work=[200*, 0*]
     0x0184 [0x45] LOAD_SCHEDULED_TASK: Load scheduler "blon" with entities [LocalPlayer, LocalPlayer], work=[201*, 0*]
     0x0195 [0x1B] RETURN
     0x0196 [0x45] LOAD_SCHEDULED_TASK: Load scheduler "whi0" with entities [LocalPlayer, LocalPlayer], work=[201*, 0*]
     0x01A7 [0x55] WAIT_LOAD_SCHEDULER: Wait for scheduler "whi0" with entities [LocalPlayer, LocalPlayer], work=201*
     0x01B6 [0x1B] RETURN
     0x01B7 [0x45] LOAD_SCHEDULED_TASK: Load scheduler "who0" with entities [LocalPlayer, LocalPlayer], work=[201*, 0*]
     0x01C8 [0x55] WAIT_LOAD_SCHEDULER: Wait for scheduler "who0" with entities [LocalPlayer, LocalPlayer], work=201*
     0x01D7 [0x1B] RETURN
     0x01D8 [0x45] LOAD_SCHEDULED_TASK: Load scheduler "efon" with entities [LocalPlayer, LocalPlayer], work=[215*, 0*]
     0x01E9 [0x55] WAIT_LOAD_SCHEDULER: Wait for scheduler "efon" with entities [LocalPlayer, LocalPlayer], work=215*
     0x01F8 [0x1B] RETURN
     0x01F9 [0x45] LOAD_SCHEDULED_TASK: Load scheduler "fdis" with entities [LocalPlayer, LocalPlayer], work=[200*, 0*]
     0x020A [0x1B] RETURN
     0x020B [0x45] LOAD_SCHEDULED_TASK: Load scheduler "fdos" with entities [LocalPlayer, LocalPlayer], work=[200*, 0*]
     0x021C [0x55] WAIT_LOAD_SCHEDULER: Wait for scheduler "fdos" with entities [LocalPlayer, LocalPlayer], work=200*
     0x022B [0x1B] RETURN
     0x022C [0x45] LOAD_SCHEDULED_TASK: Load scheduler "fdif" with entities [LocalPlayer, LocalPlayer], work=[200*, 0*]
     0x023D [0x1B] RETURN
     0x023E [0x45] LOAD_SCHEDULED_TASK: Load scheduler "fdof" with entities [LocalPlayer, LocalPlayer], work=[200*, 0*]
     0x024F [0x55] WAIT_LOAD_SCHEDULER: Wait for scheduler "fdof" with entities [LocalPlayer, LocalPlayer], work=200*
     0x025E [0x1B] RETURN
     0x025F [0x45] LOAD_SCHEDULED_TASK: Load scheduler "fdip" with entities [LocalPlayer, LocalPlayer], work=[200*, 0*]
     0x0270 [0x1B] RETURN
     0x0271 [0x45] LOAD_SCHEDULED_TASK: Load scheduler "fdop" with entities [LocalPlayer, LocalPlayer], work=[200*, 0*]
     0x0282 [0x55] WAIT_LOAD_SCHEDULER: Wait for scheduler "fdop" with entities [LocalPlayer, LocalPlayer], work=200*
     0x0291 [0x1B] RETURN
```

### Event 231

#### Metadata

| Field        | Value      |
|--------------|------------|
| Entrypoint   | 0x0292     |
| Data Size    | 3020 bytes |
| Instructions | 387        |

```
      00 01 02 03 04 05 06 07  08 09 0A 0B 0C 0D 0E 0F
      -- -- -- -- -- -- -- --  -- -- -- -- -- -- -- --
0290:       42 5D 01 80 08 80  1A 64 00 46 01 38 09 80    B].....d.F.8..
02A0: 2F 00 CA F1 06 01 4E 00  CA F1 06 01 94 01 CA F1  /.....N.........
02B0: 06 01 94 01 F0 FF FF 7F  BA CA F1 06 01 0A 80 0B  ................
02C0: 80 0C 80 0D 80 BA F0 FF  FF 7F 0E 80 0F 80 10 80  ................
02D0: 11 80 80 CA F1 06 01 80  F0 FF FF 7F 29 08 F0 FF  ............)...
02E0: FF 7F 2A 6C CA F1 06 01  01 80 03 80 27 10 F0 FF  ..*l........'...
02F0: FF 7F 3C 45 12 80 F8 FF  FF 7F F8 FF FF 7F 73 30  ..<E..........s0
0300: 30 30 01 80 1A 43 00 1C  13 80 1A 64 00 52 12 80  00...C.....d.R..
0310: F8 FF FF 7F F8 FF FF 7F  73 30 30 30 2A 10 F0 FF  ........s000*...
0320: FF 7F 77 14 80 15 80 BA  F0 FF FF 7F 16 80 17 80  ..w.............
0330: 18 80 19 80 1C 05 80 27  10 F0 FF FF 7F 3D 45 12  .......'.....=E.
0340: 80 F8 FF FF 7F F8 FF FF  7F 73 30 30 31 01 80 1A  .........s001...
0350: 43 00 2A 10 F0 FF FF 7F  4B F0 FF FF 7F 1A 80 6F  C.*.....K......o
0360: 76 F0 FF FF 7F 52 12 80  F8 FF FF 7F F8 FF FF 7F  v....R..........
0370: 73 30 30 31 45 12 80 F8  FF FF 7F F8 FF FF 7F 73  s001E..........s
0380: 30 30 32 01 80 1C 1B 80  27 10 F0 FF FF 7F 3E 6C  002.....'.....>l
0390: CA F1 06 01 1C 80 03 80  27 10 CA F1 06 01 5B 1C  ........'.....[.
03A0: 1D 80 52 12 80 F8 FF FF  7F F8 FF FF 7F 73 30 30  ..R..........s00
03B0: 32 45 12 80 F8 FF FF 7F  F8 FF FF 7F 73 30 30 33  2E..........s003
03C0: 01 80 1C 06 80 2A 10 F0  FF FF 7F 2B CA F1 06 01  .....*.....+....
03D0: 1E 80 4A F0 FF FF 7F CA  F1 06 01 52 12 80 F8 FF  ..J........R....
03E0: FF 7F F8 FF FF 7F 73 30  30 33 02 09 10 1D 80 00  ......s003......
03F0: 06 04 45 12 80 F8 FF FF  7F F8 FF FF 7F 73 30 31  ..E..........s01
0400: 39 01 80 01 33 04 02 09  10 1F 80 00 22 04 45 12  9...3.......".E.
0410: 80 F8 FF FF 7F F8 FF FF  7F 73 30 31 39 01 80 01  .........s019...
0420: 33 04 45 12 80 F8 FF FF  7F F8 FF FF 7F 73 30 30  3.E..........s00
0430: 34 01 80 6F 76 F0 FF FF  7F 2A 10 CA F1 06 01 27  4..ov....*.....'
0440: 10 CA F1 06 01 5C 2A 10  CA F1 06 01 23 2B CA F1  .....\*.....#+..
0450: 06 01 20 80 1C 21 80 02  09 10 1D 80 00 71 04 52  .. ..!.......q.R
0460: 12 80 F8 FF FF 7F F8 FF  FF 7F 73 30 31 39 01 9A  ..........s019..
0470: 04 02 09 10 1F 80 00 8B  04 52 12 80 F8 FF FF 7F  .........R......
0480: F8 FF FF 7F 73 30 31 39  01 9A 04 52 12 80 F8 FF  ....s019...R....
0490: FF 7F F8 FF FF 7F 73 30  30 34 45 12 80 F8 FF FF  ......s004E.....
04A0: 7F F8 FF FF 7F 73 30 30  37 01 80 23 5C 00 22 80  .....s007..#\.".
04B0: 5C 01 22 80 5C 02 22 80  5C 03 22 80 9A 5D 23 80  \.".\.".\."..]#.
04C0: 03 80 2B CA F1 06 01 24  80 23 52 12 80 F8 FF FF  ..+....$.#R.....
04D0: 7F F8 FF FF 7F 73 30 30  37 02 09 10 25 80 00 F5  .....s007...%...
04E0: 04 45 12 80 F8 FF FF 7F  F8 FF FF 7F 73 30 30 35  .E..........s005
04F0: 01 80 01 22 05 02 09 10  26 80 00 11 05 45 12 80  ..."....&....E..
0500: F8 FF FF 7F F8 FF FF 7F  73 30 30 35 01 80 01 22  ........s005..."
0510: 05 45 12 80 F8 FF FF 7F  F8 FF FF 7F 73 30 32 30  .E..........s020
0520: 01 80 27 10 CA F1 06 01  5D 2B CA F1 06 01 27 80  ..'.....]+....'.
0530: 1C 28 80 4B F0 FF FF 7F  29 80 6F 76 F0 FF FF 7F  .(.K....).ov....
0540: 23 2B CA F1 06 01 2A 80  23 2A 10 CA F1 06 01 02  #+....*.#*......
0550: 09 10 25 80 00 69 05 52  12 80 F8 FF FF 7F F8 FF  ..%..i.R........
0560: FF 7F 73 30 30 35 01 92  05 02 09 10 26 80 00 83  ..s005......&...
0570: 05 52 12 80 F8 FF FF 7F  F8 FF FF 7F 73 30 30 35  .R..........s005
0580: 01 92 05 52 12 80 F8 FF  FF 7F F8 FF FF 7F 73 30  ...R..........s0
0590: 32 30 45 12 80 F8 FF FF  7F F8 FF FF 7F 73 30 30  20E..........s00
05A0: 36 01 80 2B CA F1 06 01  2B 80 23 2B CA F1 06 01  6..+....+.#+....
05B0: 2C 80 23 BA F0 FF FF 7F  2D 80 2E 80 2F 80 30 80  ,.#.....-.../.0.
05C0: 4A F0 FF FF 7F CA F1 06  01 52 12 80 F8 FF FF 7F  J........R......
05D0: F8 FF FF 7F 73 30 30 36  02 09 10 25 80 00 F4 05  ....s006...%....
05E0: 45 12 80 F8 FF FF 7F F8  FF FF 7F 73 30 30 38 01  E..........s008.
05F0: 80 01 75 06 02 09 10 31  80 00 10 06 45 12 80 F8  ..u....1....E...
0600: FF FF 7F F8 FF FF 7F 73  30 30 38 01 80 01 75 06  .......s008...u.
0610: 02 09 10 1D 80 00 2C 06  45 12 80 F8 FF FF 7F F8  ......,.E.......
0620: FF FF 7F 73 30 32 31 01  80 01 75 06 02 09 10 1F  ...s021...u.....
0630: 80 00 48 06 45 12 80 F8  FF FF 7F F8 FF FF 7F 73  ..H.E..........s
0640: 30 32 31 01 80 01 75 06  02 09 10 26 80 00 64 06  021...u....&..d.
0650: 45 12 80 F8 FF FF 7F F8  FF FF 7F 73 30 33 31 01  E..........s031.
0660: 80 01 75 06 45 12 80 F8  FF FF 7F F8 FF FF 7F 73  ..u.E..........s
0670: 30 32 37 01 80 4A CA F1  06 01 F0 FF FF 7F 6F 76  027..J........ov
0680: CA F1 06 01 29 10 CA F1  06 01 0D 2B CA F1 06 01  ....)......+....
0690: 32 80 23 29 10 CA F1 06  01 0E 29 10 CA F1 06 01  2.#)......).....
06A0: 0F 29 10 CA F1 06 01 10  6F 76 F0 FF FF 7F 02 09  .)......ov......
06B0: 10 25 80 00 C8 06 52 12  80 F8 FF FF 7F F8 FF FF  .%....R.........
06C0: 7F 73 30 30 38 01 3F 07  02 09 10 31 80 00 E2 06  .s008.?....1....
06D0: 52 12 80 F8 FF FF 7F F8  FF FF 7F 73 30 30 38 01  R..........s008.
06E0: 3F 07 02 09 10 1D 80 00  FC 06 52 12 80 F8 FF FF  ?.........R.....
06F0: 7F F8 FF FF 7F 73 30 32  31 01 3F 07 02 09 10 1F  .....s021.?.....
0700: 80 00 16 07 52 12 80 F8  FF FF 7F F8 FF FF 7F 73  ....R..........s
0710: 30 32 31 01 3F 07 02 09  10 26 80 00 30 07 52 12  021.?....&..0.R.
0720: 80 F8 FF FF 7F F8 FF FF  7F 73 30 33 31 01 3F 07  .........s031.?.
0730: 52 12 80 F8 FF FF 7F F8  FF FF 7F 73 30 32 37 02  R..........s027.
0740: 09 10 1D 80 00 5B 07 45  12 80 F8 FF FF 7F F8 FF  .....[.E........
0750: FF 7F 73 30 32 32 01 80  01 88 07 02 09 10 1F 80  ..s022..........
0760: 00 77 07 45 12 80 F8 FF  FF 7F F8 FF FF 7F 73 30  .w.E..........s0
0770: 32 32 01 80 01 88 07 45  12 80 F8 FF FF 7F F8 FF  22.....E........
0780: FF 7F 73 30 31 30 01 80  7B CA F1 06 01 4B CA F1  ..s010..{....K..
0790: 06 01 33 80 6F 76 CA F1  06 01 29 10 CA F1 06 01  ..3.ov....).....
07A0: 09 2B CA F1 06 01 34 80  23 29 10 CA F1 06 01 0A  .+....4.#)......
07B0: 29 10 CA F1 06 01 0B 29  10 CA F1 06 01 0C 7B CA  )......)......{.
07C0: F1 06 01 27 10 CA F1 06  01 5E 1C 35 80 02 09 10  ...'.....^.5....
07D0: 1D 80 00 E7 07 52 12 80  F8 FF FF 7F F8 FF FF 7F  .....R..........
07E0: 73 30 32 32 01 10 08 02  09 10 1F 80 00 01 08 52  s022...........R
07F0: 12 80 F8 FF FF 7F F8 FF  FF 7F 73 30 32 32 01 10  ..........s022..
0800: 08 52 12 80 F8 FF FF 7F  F8 FF FF 7F 73 30 31 30  .R..........s010
0810: 45 12 80 F8 FF FF 7F F8  FF FF 7F 73 30 30 39 01  E..........s009.
0820: 80 2B CA F1 06 01 36 80  1C 35 80 4A F0 FF FF 7F  .+....6..5.J....
0830: CA F1 06 01 23 2A 10 CA  F1 06 01 6F 76 F0 FF FF  ....#*.....ov...
0840: 7F 52 12 80 F8 FF FF 7F  F8 FF FF 7F 73 30 30 39  .R..........s009
0850: 02 09 10 25 80 00 6C 08  45 12 80 F8 FF FF 7F F8  ...%..l.E.......
0860: FF FF 7F 73 30 31 31 01  80 01 0E 09 02 09 10 31  ...s011........1
0870: 80 00 88 08 45 12 80 F8  FF FF 7F F8 FF FF 7F 73  ....E..........s
0880: 30 31 31 01 80 01 0E 09  02 09 10 1D 80 00 A4 08  011.............
0890: 45 12 80 F8 FF FF 7F F8  FF FF 7F 73 30 32 36 01  E..........s026.
08A0: 80 01 0E 09 02 09 10 1F  80 00 C0 08 45 12 80 F8  ............E...
08B0: FF FF 7F F8 FF FF 7F 73  30 32 36 01 80 01 0E 09  .......s026.....
08C0: 02 09 10 37 80 00 E1 08  45 12 80 F8 FF FF 7F F8  ...7....E.......
08D0: FF FF 7F 73 30 32 38 01  80 7B F0 FF FF 7F 01 0E  ...s028..{......
08E0: 09 02 09 10 26 80 00 FD  08 45 12 80 F8 FF FF 7F  ....&....E......
08F0: F8 FF FF 7F 73 30 31 31  01 80 01 0E 09 45 12 80  ....s011.....E..
0900: F8 FF FF 7F F8 FF FF 7F  73 30 32 38 01 80 27 10  ........s028..'.
0910: F0 FF FF 7F 3F 2A 10 F0  FF FF 7F 29 10 F0 FF FF  ....?*.....)....
0920: 7F 48 1C 28 80 79 00 CA  F1 06 01 F0 FF FF 7F 4B  .H.(.y.........K
0930: CA F1 06 01 38 80 6F 76  CA F1 06 01 1C 21 80 29  ....8.ov.....!.)
0940: 10 F0 FF FF 7F 39 1C 21  80 29 10 CA F1 06 01 0C  .....9.!.)......
0950: 1A 64 00 29 10 F0 FF FF  7F 49 02 09 10 25 80 00  .d.).....I...%..
0960: 74 09 52 12 80 F8 FF FF  7F F8 FF FF 7F 73 30 31  t.R..........s01
0970: 31 01 05 0A 02 09 10 31  80 00 8E 09 52 12 80 F8  1......1....R...
0980: FF FF 7F F8 FF FF 7F 73  30 31 31 01 05 0A 02 09  .......s011.....
0990: 10 1D 80 00 A8 09 52 12  80 F8 FF FF 7F F8 FF FF  ......R.........
09A0: 7F 73 30 32 36 01 05 0A  02 09 10 1F 80 00 C2 09  .s026...........
09B0: 52 12 80 F8 FF FF 7F F8  FF FF 7F 73 30 32 36 01  R..........s026.
09C0: 05 0A 02 09 10 37 80 00  DC 09 52 12 80 F8 FF FF  .....7....R.....
09D0: 7F F8 FF FF 7F 73 30 32  38 01 05 0A 02 09 10 26  .....s028......&
09E0: 80 00 F6 09 52 12 80 F8  FF FF 7F F8 FF FF 7F 73  ....R..........s
09F0: 30 31 31 01 05 0A 52 12  80 F8 FF FF 7F F8 FF FF  011...R.........
0A00: 7F 73 30 32 38 77 14 80  39 80 BA CA F1 06 01 3A  .s028w..9......:
0A10: 80 3B 80 2F 80 3C 80 BA  F0 FF FF 7F 3D 80 3E 80  .;./.<......=.>.
0A20: 3F 80 40 80 4A F0 FF FF  7F CA F1 06 01 4A CA F1  ?.@.J........J..
0A30: 06 01 F0 FF FF 7F 6F 76  CA F1 06 01 6F 76 F0 FF  ......ov....ov..
0A40: FF 7F 7B CA F1 06 01 29  10 CA F1 06 01 01 29 10  ..{....)......).
0A50: CA F1 06 01 02 45 12 80  F8 FF FF 7F F8 FF FF 7F  .....E..........
0A60: 73 30 31 32 01 80 1A 43  00 1C 21 80 2B CA F1 06  s012...C..!.+...
0A70: 01 41 80 1C 21 80 52 12  80 F8 FF FF 7F F8 FF FF  .A..!.R.........
0A80: 7F 73 30 31 32 45 12 80  F8 FF FF 7F F8 FF FF 7F  .s012E..........
0A90: 73 30 31 34 01 80 23 2B  CA F1 06 01 42 80 23 79  s014..#+....B.#y
0AA0: 00 CA F1 06 01 F0 FF FF  7F 29 10 CA F1 06 01 03  .........)......
0AB0: 29 10 CA F1 06 01 04 52  12 80 F8 FF FF 7F F8 FF  )......R........
0AC0: FF 7F 73 30 31 34 02 09  10 25 80 00 E2 0A 45 12  ..s014...%....E.
0AD0: 80 F8 FF FF 7F F8 FF FF  7F 73 30 31 33 01 80 01  .........s013...
0AE0: 47 0B 02 09 10 1D 80 00  FE 0A 45 12 80 F8 FF FF  G.........E.....
0AF0: 7F F8 FF FF 7F 73 30 32  33 01 80 01 47 0B 02 09  .....s023...G...
0B00: 10 1F 80 00 1A 0B 45 12  80 F8 FF FF 7F F8 FF FF  ......E.........
0B10: 7F 73 30 32 33 01 80 01  47 0B 02 09 10 26 80 00  .s023...G....&..
0B20: 36 0B 45 12 80 F8 FF FF  7F F8 FF FF 7F 73 30 31  6.E..........s01
0B30: 33 01 80 01 47 0B 45 12  80 F8 FF FF 7F F8 FF FF  3...G.E.........
0B40: 7F 73 30 32 39 01 80 29  10 CA F1 06 01 09 2B CA  .s029..)......+.
0B50: F1 06 01 43 80 23 29 10  CA F1 06 01 0A 02 09 10  ...C.#).........
0B60: 25 80 00 77 0B 52 12 80  F8 FF FF 7F F8 FF FF 7F  %..w.R..........
0B70: 73 30 31 33 01 D4 0B 02  09 10 1D 80 00 91 0B 52  s013...........R
0B80: 12 80 F8 FF FF 7F F8 FF  FF 7F 73 30 32 33 01 D4  ..........s023..
0B90: 0B 02 09 10 1F 80 00 AB  0B 52 12 80 F8 FF FF 7F  .........R......
0BA0: F8 FF FF 7F 73 30 32 33  01 D4 0B 02 09 10 26 80  ....s023......&.
0BB0: 00 C5 0B 52 12 80 F8 FF  FF 7F F8 FF FF 7F 73 30  ...R..........s0
0BC0: 31 33 01 D4 0B 52 12 80  F8 FF FF 7F F8 FF FF 7F  13...R..........
0BD0: 73 30 32 39 45 12 80 F8  FF FF 7F F8 FF FF 7F 73  s029E..........s
0BE0: 30 31 35 01 80 7B CA F1  06 01 29 10 CA F1 06 01  015..{....).....
0BF0: 01 29 10 CA F1 06 01 02  2B CA F1 06 01 44 80 23  .)......+....D.#
0C00: 2B CA F1 06 01 45 80 23  52 12 80 F8 FF FF 7F F8  +....E.#R.......
0C10: FF FF 7F 73 30 31 35 02  09 10 1D 80 00 33 0C 45  ...s015......3.E
0C20: 12 80 F8 FF FF 7F F8 FF  FF 7F 73 30 32 34 01 80  ..........s024..
0C30: 01 60 0C 02 09 10 1F 80  00 4F 0C 45 12 80 F8 FF  .`.......O.E....
0C40: FF 7F F8 FF FF 7F 73 30  32 34 01 80 01 60 0C 45  ......s024...`.E
0C50: 12 80 F8 FF FF 7F F8 FF  FF 7F 73 30 31 36 01 80  ..........s016..
0C60: 1C 46 80 79 00 CA F1 06  01 F0 FF FF 7F 29 10 CA  .F.y.........)..
0C70: F1 06 01 03 2B CA F1 06  01 47 80 23 2B CA F1 06  ....+....G.#+...
0C80: 01 48 80 23 29 10 CA F1  06 01 04 02 09 10 1D 80  .H.#)...........
0C90: 00 A5 0C 52 12 80 F8 FF  FF 7F F8 FF FF 7F 73 30  ...R..........s0
0CA0: 32 34 01 CE 0C 02 09 10  1F 80 00 BF 0C 52 12 80  24...........R..
0CB0: F8 FF FF 7F F8 FF FF 7F  73 30 32 34 01 CE 0C 52  ........s024...R
0CC0: 12 80 F8 FF FF 7F F8 FF  FF 7F 73 30 31 36 02 09  ..........s016..
0CD0: 10 25 80 00 EA 0C 45 12  80 F8 FF FF 7F F8 FF FF  .%....E.........
0CE0: 7F 73 30 31 38 01 80 01  4F 0D 02 09 10 1D 80 00  .s018...O.......
0CF0: 06 0D 45 12 80 F8 FF FF  7F F8 FF FF 7F 73 30 32  ..E..........s02
0D00: 35 01 80 01 4F 0D 02 09  10 1F 80 00 22 0D 45 12  5...O.......".E.
0D10: 80 F8 FF FF 7F F8 FF FF  7F 73 30 32 35 01 80 01  .........s025...
0D20: 4F 0D 02 09 10 26 80 00  3E 0D 45 12 80 F8 FF FF  O....&..>.E.....
0D30: 7F F8 FF FF 7F 73 30 31  38 01 80 01 4F 0D 45 12  .....s018...O.E.
0D40: 80 F8 FF FF 7F F8 FF FF  7F 73 30 33 30 01 80 2B  .........s030..+
0D50: CA F1 06 01 49 80 23 5D  01 80 08 80 7B CA F1 06  ....I.#]....{...
0D60: 01 27 10 CA F1 06 01 5F  1C 06 80 02 09 10 25 80  .'....._......%.
0D70: 00 85 0D 52 12 80 F8 FF  FF 7F F8 FF FF 7F 73 30  ...R..........s0
0D80: 31 38 01 E2 0D 02 09 10  1D 80 00 9F 0D 52 12 80  18...........R..
0D90: F8 FF FF 7F F8 FF FF 7F  73 30 32 35 01 E2 0D 02  ........s025....
0DA0: 09 10 1F 80 00 B9 0D 52  12 80 F8 FF FF 7F F8 FF  .......R........
0DB0: FF 7F 73 30 32 35 01 E2  0D 02 09 10 26 80 00 D3  ..s025......&...
0DC0: 0D 52 12 80 F8 FF FF 7F  F8 FF FF 7F 73 30 31 38  .R..........s018
0DD0: 01 E2 0D 52 12 80 F8 FF  FF 7F F8 FF FF 7F 73 30  ...R..........s0
0DE0: 33 30 45 12 80 F8 FF FF  7F F8 FF FF 7F 73 30 31  30E..........s01
0DF0: 37 01 80 4B F0 FF FF 7F  4A 80 6F 76 F0 FF FF 7F  7..K....J.ov....
0E00: 4B F0 FF FF 7F 4B 80 6F  76 F0 FF FF 7F 1C 21 80  K....K.ov.....!.
0E10: 1A 64 00 52 12 80 F8 FF  FF 7F F8 FF FF 7F 73 30  .d.R..........s0
0E20: 31 37 1C 4C 80 2A 10 CA  F1 06 01 78 5C 00 01 80  17.L.*.....x\...
0E30: 5C 01 01 80 5C 02 4D 80  5C 03 4E 80 9A 5D 23 80  \...\.M.\.N..]#.
0E40: 03 80 AB 11 01 80 1C 03  80 46 00 45 00 80 F8 FF  .........F.E....
0E50: FF 7F F8 FF FF 7F 66 64  69 32 01 80 21 00        ......fdi2..!.  
```

#### Opcodes

```
  0: 0x0292 [0x42] SET_CLI_EVENT_CANCEL_DATA()
  1: 0x0293 [0x5D] SET_MUSIC_VOLUME(volume=0*, fade_time=300*)
  2: 0x0298 [0x1A] CALL_SUBROUTINE(address=0x0064)
  3: 0x029B [0x46] CAMERA_CONTROL: Disable user control
  4: 0x029D [0x38] SET_CLIENT_EVENT_MODE(mode=147*)
  5: 0x02A0 [0x2F] Excenmille (ID: 17232330/0x0106F1CA)->Render.Flags0 &= ~0x80000 // Bit 19
  6: 0x02A6 [0x4E] SET_ENTITY_HIDE_FLAG: Show Excenmille (ID: 17232330/0x0106F1CA)
  7: 0x02AC [0x94] Excenmille (ID: 17232330/0x0106F1CA)->Render.Flags3 ^= 0x01
  8: 0x02B2 [0x94] LocalPlayer->Render.Flags3 ^= 0x01
  9: 0x02B8 [0xBA] SET_ENTITY_POSITION(entity_id=Excenmille (ID: 17232330/0x0106F1CA), pos_x=-20.778*, pos_z=-89.603*, pos_y=-59.319*, direction=295.3°*)
 10: 0x02C5 [0xBA] SET_ENTITY_POSITION(entity_id=LocalPlayer, pos_x=-0.983*, pos_z=-67.327*, pos_y=-59.537*, direction=91.3°*)
 11: 0x02D2 [0x80] LOAD_WAIT(entity=Excenmille (ID: 17232330/0x0106F1CA))
 12: 0x02D7 [0x80] LOAD_WAIT(entity=LocalPlayer)
 13: 0x02DC [0x29] REQ_SET_WAIT(priority=0x08, entity_id=LocalPlayer, tag_num=0x2A)
 14: 0x02E3 [0x6C] FADE_ENTITY_COLOR(entity_id=Excenmille (ID: 17232330/0x0106F1CA), end_alpha=0*, fade_time=1*)
 15: 0x02EC [0x27] REQ_SET(priority=0x10, entity_id=LocalPlayer, tag_num=0x3C)
 16: 0x02F3 [0x45] LOAD_SCHEDULED_TASK: Load scheduler "s000" with entities [EventEntity, EventEntity], work=[846*, 0*]
 17: 0x0304 [0x1A] CALL_SUBROUTINE(address=0x0043)
 18: 0x0307 [0x1C] WAIT(120* ticks)
 19: 0x030A [0x1A] CALL_SUBROUTINE(address=0x0064)
 20: 0x030D [0x52] END_LOAD_SCHEDULER: End scheduler "s000" with entities [EventEntity, EventEntity], work=846*
 21: 0x031C [0x2A] GET_REQ_LEVEL(level=16, entity_id=LocalPlayer)
 22: 0x0322 [0x77] SET_EVENT_TIME_WEATHER(hour=255*, weather=13*)
 23: 0x0327 [0xBA] SET_ENTITY_POSITION(entity_id=LocalPlayer, pos_x=-16.659*, pos_z=-80.614*, pos_y=-59.167*, direction=176.9°*)
 24: 0x0334 [0x1C] WAIT(2* ticks)
 25: 0x0337 [0x27] REQ_SET(priority=0x10, entity_id=LocalPlayer, tag_num=0x3D)
 26: 0x033E [0x45] LOAD_SCHEDULED_TASK: Load scheduler "s001" with entities [EventEntity, EventEntity], work=[846*, 0*]
 27: 0x034F [0x1A] CALL_SUBROUTINE(address=0x0043)
 28: 0x0352 [0x2A] GET_REQ_LEVEL(level=16, entity_id=LocalPlayer)
 29: 0x0358 [0x4B] UPDATE_ENTITY_YAW(entity=LocalPlayer, yaw=17.1°*)
 30: 0x035F [0x6F] WAIT_FRAME_DELAY: Yield until WaitTime reaches zero
 31: 0x0360 [0x76] CHECK_ENTITY_RENDER_FLAGS: Wait until LocalPlayer Render.Flags0 and Render.Flags3 conditions are met
 32: 0x0365 [0x52] END_LOAD_SCHEDULER: End scheduler "s001" with entities [EventEntity, EventEntity], work=846*
 33: 0x0374 [0x45] LOAD_SCHEDULED_TASK: Load scheduler "s002" with entities [EventEntity, EventEntity], work=[846*, 0*]
 34: 0x0385 [0x1C] WAIT(140* ticks)
 35: 0x0388 [0x27] REQ_SET(priority=0x10, entity_id=LocalPlayer, tag_num=0x3E)
 36: 0x038F [0x6C] FADE_ENTITY_COLOR(entity_id=Excenmille (ID: 17232330/0x0106F1CA), end_alpha=128*, fade_time=1*)
 37: 0x0398 [0x27] REQ_SET(priority=0x10, entity_id=Excenmille (ID: 17232330/0x0106F1CA), tag_num=0x5B)
 38: 0x039F [0x1C] WAIT(5* ticks)
 39: 0x03A2 [0x52] END_LOAD_SCHEDULER: End scheduler "s002" with entities [EventEntity, EventEntity], work=846*
 40: 0x03B1 [0x45] LOAD_SCHEDULED_TASK: Load scheduler "s003" with entities [EventEntity, EventEntity], work=[846*, 0*]
 41: 0x03C2 [0x1C] WAIT(30* ticks)
 42: 0x03C5 [0x2A] GET_REQ_LEVEL(level=16, entity_id=LocalPlayer)
 43: 0x03CB [0x2B] Excenmille (ID: 17232330/0x0106F1CA) [12819*]:
    → "<Player>!"
 44: 0x03D2 [0x4A] LocalPlayer looks at Excenmille (ID: 17232330/0x0106F1CA)
 45: 0x03DB [0x52] END_LOAD_SCHEDULER: End scheduler "s003" with entities [EventEntity, EventEntity], work=846*
 46: 0x03EA [0x02] IF !(Work_Zone[9] == 5*) GOTO 0x0406
 47: 0x03F2 [0x45] LOAD_SCHEDULED_TASK: Load scheduler "s019" with entities [EventEntity, EventEntity], work=[846*, 0*]
 48: 0x0403 [0x01] GOTO 0x0433
 49: 0x0406 [0x02] IF !(Work_Zone[9] == 6*) GOTO 0x0422
 50: 0x040E [0x45] LOAD_SCHEDULED_TASK: Load scheduler "s019" with entities [EventEntity, EventEntity], work=[846*, 0*]
 51: 0x041F [0x01] GOTO 0x0433
 52: 0x0422 [0x45] LOAD_SCHEDULED_TASK: Load scheduler "s004" with entities [EventEntity, EventEntity], work=[846*, 0*]

SUBROUTINE_0433:
 53: 0x0433 [0x6F] WAIT_FRAME_DELAY: Yield until WaitTime reaches zero
 54: 0x0434 [0x76] CHECK_ENTITY_RENDER_FLAGS: Wait until LocalPlayer Render.Flags0 and Render.Flags3 conditions are met
 55: 0x0439 [0x2A] GET_REQ_LEVEL(level=16, entity_id=Excenmille (ID: 17232330/0x0106F1CA))
 56: 0x043F [0x27] REQ_SET(priority=0x10, entity_id=Excenmille (ID: 17232330/0x0106F1CA), tag_num=0x5C)
 57: 0x0446 [0x2A] GET_REQ_LEVEL(level=16, entity_id=Excenmille (ID: 17232330/0x0106F1CA))
 58: 0x044C [0x23] WAIT_FOR_DIALOG_INTERACTION
 59: 0x044D [0x2B] Excenmille (ID: 17232330/0x0106F1CA) [12820*]:
    → "You look surprised. I am more than capable of keeping up with you adventurers, I will have you know."
 60: 0x0454 [0x1C] WAIT(60* ticks)
 61: 0x0457 [0x02] IF !(Work_Zone[9] == 5*) GOTO 0x0471
 62: 0x045F [0x52] END_LOAD_SCHEDULER: End scheduler "s019" with entities [EventEntity, EventEntity], work=846*
 63: 0x046E [0x01] GOTO 0x049A
 64: 0x0471 [0x02] IF !(Work_Zone[9] == 6*) GOTO 0x048B
 65: 0x0479 [0x52] END_LOAD_SCHEDULER: End scheduler "s019" with entities [EventEntity, EventEntity], work=846*
 66: 0x0488 [0x01] GOTO 0x049A
 67: 0x048B [0x52] END_LOAD_SCHEDULER: End scheduler "s004" with entities [EventEntity, EventEntity], work=846*

SUBROUTINE_049A:
 68: 0x049A [0x45] LOAD_SCHEDULED_TASK: Load scheduler "s007" with entities [EventEntity, EventEntity], work=[846*, 0*]
 69: 0x04AB [0x23] WAIT_FOR_DIALOG_INTERACTION
 70: 0x04AC [0x5C] MUSIC_CONTROL: Set Idle (Day) music to song 248*
 71: 0x04B0 [0x5C] MUSIC_CONTROL: Set Idle (Night) music to song 248*
 72: 0x04B4 [0x5C] MUSIC_CONTROL: Set Combat (Solo) music to song 248*
 73: 0x04B8 [0x5C] MUSIC_CONTROL: Set Combat (Party) music to song 248*
 74: 0x04BC [0x9A] WAIT_MUSIC_SERVER()
 75: 0x04BD [0x5D] SET_MUSIC_VOLUME(volume=127*, fade_time=1*)
 76: 0x04C2 [0x2B] Excenmille (ID: 17232330/0x0106F1CA) [12821*]:
    → "Naturally, I received permission from my king and prince to come here."
 77: 0x04C9 [0x23] WAIT_FOR_DIALOG_INTERACTION
 78: 0x04CA [0x52] END_LOAD_SCHEDULER: End scheduler "s007" with entities [EventEntity, EventEntity], work=846*
 79: 0x04D9 [0x02] IF !(Work_Zone[9] == 3*) GOTO 0x04F5
 80: 0x04E1 [0x45] LOAD_SCHEDULED_TASK: Load scheduler "s005" with entities [EventEntity, EventEntity], work=[846*, 0*]
 81: 0x04F2 [0x01] GOTO 0x0522
 82: 0x04F5 [0x02] IF !(Work_Zone[9] == 8*) GOTO 0x0511
 83: 0x04FD [0x45] LOAD_SCHEDULED_TASK: Load scheduler "s005" with entities [EventEntity, EventEntity], work=[846*, 0*]
 84: 0x050E [0x01] GOTO 0x0522
 85: 0x0511 [0x45] LOAD_SCHEDULED_TASK: Load scheduler "s020" with entities [EventEntity, EventEntity], work=[846*, 0*]

SUBROUTINE_0522:
 86: 0x0522 [0x27] REQ_SET(priority=0x10, entity_id=Excenmille (ID: 17232330/0x0106F1CA), tag_num=0x5D)
 87: 0x0529 [0x2B] Excenmille (ID: 17232330/0x0106F1CA) [12822*]:
    → "I am well-versed in the art of guerilla tactics."
 88: 0x0530 [0x1C] WAIT(20* ticks)
 89: 0x0533 [0x4B] UPDATE_ENTITY_YAW(entity=LocalPlayer, yaw=11.5°*)
 90: 0x053A [0x6F] WAIT_FRAME_DELAY: Yield until WaitTime reaches zero
 91: 0x053B [0x76] CHECK_ENTITY_RENDER_FLAGS: Wait until LocalPlayer Render.Flags0 and Render.Flags3 conditions are met
 92: 0x0540 [0x23] WAIT_FOR_DIALOG_INTERACTION
 93: 0x0541 [0x2B] Excenmille (ID: 17232330/0x0106F1CA) [12823*]:
    → "I proposed that I do what I can to disrupt the enemy forces until Prince Trion's unit arrives."
 94: 0x0548 [0x23] WAIT_FOR_DIALOG_INTERACTION
 95: 0x0549 [0x2A] GET_REQ_LEVEL(level=16, entity_id=Excenmille (ID: 17232330/0x0106F1CA))
 96: 0x054F [0x02] IF !(Work_Zone[9] == 3*) GOTO 0x0569
 97: 0x0557 [0x52] END_LOAD_SCHEDULER: End scheduler "s005" with entities [EventEntity, EventEntity], work=846*
 98: 0x0566 [0x01] GOTO 0x0592
 99: 0x0569 [0x02] IF !(Work_Zone[9] == 8*) GOTO 0x0583
100: 0x0571 [0x52] END_LOAD_SCHEDULER: End scheduler "s005" with entities [EventEntity, EventEntity], work=846*
101: 0x0580 [0x01] GOTO 0x0592
102: 0x0583 [0x52] END_LOAD_SCHEDULER: End scheduler "s020" with entities [EventEntity, EventEntity], work=846*

SUBROUTINE_0592:
103: 0x0592 [0x45] LOAD_SCHEDULED_TASK: Load scheduler "s006" with entities [EventEntity, EventEntity], work=[846*, 0*]
104: 0x05A3 [0x2B] Excenmille (ID: 17232330/0x0106F1CA) [12824*]:
    → "Although, if the opportunity presents itself, I will try to take out their commander myself."
105: 0x05AA [0x23] WAIT_FOR_DIALOG_INTERACTION
106: 0x05AB [0x2B] Excenmille (ID: 17232330/0x0106F1CA) [12825*]:
    → "The 3rd Silver Owl Brigade's strike unit is led by Slackjawed Mukdrom and under the direct command of the emperor."
107: 0x05B2 [0x23] WAIT_FOR_DIALOG_INTERACTION
108: 0x05B3 [0xBA] SET_ENTITY_POSITION(entity_id=LocalPlayer, pos_x=-20.455*, pos_z=-69.773*, pos_y=-60.250*, direction=247.9°*)
109: 0x05C0 [0x4A] LocalPlayer looks at Excenmille (ID: 17232330/0x0106F1CA)
110: 0x05C9 [0x52] END_LOAD_SCHEDULER: End scheduler "s006" with entities [EventEntity, EventEntity], work=846*
111: 0x05D8 [0x02] IF !(Work_Zone[9] == 3*) GOTO 0x05F4
112: 0x05E0 [0x45] LOAD_SCHEDULED_TASK: Load scheduler "s008" with entities [EventEntity, EventEntity], work=[846*, 0*]
113: 0x05F1 [0x01] GOTO 0x0675
114: 0x05F4 [0x02] IF !(Work_Zone[9] == 4*) GOTO 0x0610
115: 0x05FC [0x45] LOAD_SCHEDULED_TASK: Load scheduler "s008" with entities [EventEntity, EventEntity], work=[846*, 0*]
116: 0x060D [0x01] GOTO 0x0675
117: 0x0610 [0x02] IF !(Work_Zone[9] == 5*) GOTO 0x062C
118: 0x0618 [0x45] LOAD_SCHEDULED_TASK: Load scheduler "s021" with entities [EventEntity, EventEntity], work=[846*, 0*]
119: 0x0629 [0x01] GOTO 0x0675
120: 0x062C [0x02] IF !(Work_Zone[9] == 6*) GOTO 0x0648
121: 0x0634 [0x45] LOAD_SCHEDULED_TASK: Load scheduler "s021" with entities [EventEntity, EventEntity], work=[846*, 0*]
122: 0x0645 [0x01] GOTO 0x0675
123: 0x0648 [0x02] IF !(Work_Zone[9] == 8*) GOTO 0x0664
124: 0x0650 [0x45] LOAD_SCHEDULED_TASK: Load scheduler "s031" with entities [EventEntity, EventEntity], work=[846*, 0*]
125: 0x0661 [0x01] GOTO 0x0675
126: 0x0664 [0x45] LOAD_SCHEDULED_TASK: Load scheduler "s027" with entities [EventEntity, EventEntity], work=[846*, 0*]

SUBROUTINE_0675:
127: 0x0675 [0x4A] Excenmille (ID: 17232330/0x0106F1CA) looks at LocalPlayer
128: 0x067E [0x6F] WAIT_FRAME_DELAY: Yield until WaitTime reaches zero
129: 0x067F [0x76] CHECK_ENTITY_RENDER_FLAGS: Wait until Excenmille (ID: 17232330/0x0106F1CA) Render.Flags0 and Render.Flags3 conditions are met
130: 0x0684 [0x29] REQ_SET_WAIT(priority=0x10, entity_id=Excenmille (ID: 17232330/0x0106F1CA), tag_num=0x0D)
131: 0x068B [0x2B] Excenmille (ID: 17232330/0x0106F1CA) [12826*]:
    → "It is high time we sought vengeance for those who were slaughtered by these foul swine in Rhazowa."
132: 0x0692 [0x23] WAIT_FOR_DIALOG_INTERACTION
133: 0x0693 [0x29] REQ_SET_WAIT(priority=0x10, entity_id=Excenmille (ID: 17232330/0x0106F1CA), tag_num=0x0E)
134: 0x069A [0x29] REQ_SET_WAIT(priority=0x10, entity_id=Excenmille (ID: 17232330/0x0106F1CA), tag_num=0x0F)
135: 0x06A1 [0x29] REQ_SET_WAIT(priority=0x10, entity_id=Excenmille (ID: 17232330/0x0106F1CA), tag_num=0x10)
136: 0x06A8 [0x6F] WAIT_FRAME_DELAY: Yield until WaitTime reaches zero
137: 0x06A9 [0x76] CHECK_ENTITY_RENDER_FLAGS: Wait until LocalPlayer Render.Flags0 and Render.Flags3 conditions are met
138: 0x06AE [0x02] IF !(Work_Zone[9] == 3*) GOTO 0x06C8
139: 0x06B6 [0x52] END_LOAD_SCHEDULER: End scheduler "s008" with entities [EventEntity, EventEntity], work=846*
140: 0x06C5 [0x01] GOTO 0x073F
141: 0x06C8 [0x02] IF !(Work_Zone[9] == 4*) GOTO 0x06E2
142: 0x06D0 [0x52] END_LOAD_SCHEDULER: End scheduler "s008" with entities [EventEntity, EventEntity], work=846*
143: 0x06DF [0x01] GOTO 0x073F
144: 0x06E2 [0x02] IF !(Work_Zone[9] == 5*) GOTO 0x06FC
145: 0x06EA [0x52] END_LOAD_SCHEDULER: End scheduler "s021" with entities [EventEntity, EventEntity], work=846*
146: 0x06F9 [0x01] GOTO 0x073F
147: 0x06FC [0x02] IF !(Work_Zone[9] == 6*) GOTO 0x0716
148: 0x0704 [0x52] END_LOAD_SCHEDULER: End scheduler "s021" with entities [EventEntity, EventEntity], work=846*
149: 0x0713 [0x01] GOTO 0x073F
150: 0x0716 [0x02] IF !(Work_Zone[9] == 8*) GOTO 0x0730
151: 0x071E [0x52] END_LOAD_SCHEDULER: End scheduler "s031" with entities [EventEntity, EventEntity], work=846*
152: 0x072D [0x01] GOTO 0x073F
153: 0x0730 [0x52] END_LOAD_SCHEDULER: End scheduler "s027" with entities [EventEntity, EventEntity], work=846*

SUBROUTINE_073F:
154: 0x073F [0x02] IF !(Work_Zone[9] == 5*) GOTO 0x075B
155: 0x0747 [0x45] LOAD_SCHEDULED_TASK: Load scheduler "s022" with entities [EventEntity, EventEntity], work=[846*, 0*]
156: 0x0758 [0x01] GOTO 0x0788
157: 0x075B [0x02] IF !(Work_Zone[9] == 6*) GOTO 0x0777
158: 0x0763 [0x45] LOAD_SCHEDULED_TASK: Load scheduler "s022" with entities [EventEntity, EventEntity], work=[846*, 0*]
159: 0x0774 [0x01] GOTO 0x0788
160: 0x0777 [0x45] LOAD_SCHEDULED_TASK: Load scheduler "s010" with entities [EventEntity, EventEntity], work=[846*, 0*]

SUBROUTINE_0788:
161: 0x0788 [0x7B] Excenmille (ID: 17232330/0x0106F1CA) stops talking
162: 0x078D [0x4B] UPDATE_ENTITY_YAW(entity=Excenmille (ID: 17232330/0x0106F1CA), yaw=21.5°*)
163: 0x0794 [0x6F] WAIT_FRAME_DELAY: Yield until WaitTime reaches zero
164: 0x0795 [0x76] CHECK_ENTITY_RENDER_FLAGS: Wait until Excenmille (ID: 17232330/0x0106F1CA) Render.Flags0 and Render.Flags3 conditions are met
165: 0x079A [0x29] REQ_SET_WAIT(priority=0x10, entity_id=Excenmille (ID: 17232330/0x0106F1CA), tag_num=0x09)
166: 0x07A1 [0x2B] Excenmille (ID: 17232330/0x0106F1CA) [12827*]:
    → "However, I came here first to offer a prayer for Altennia and her fallen knights..."
167: 0x07A8 [0x23] WAIT_FOR_DIALOG_INTERACTION
168: 0x07A9 [0x29] REQ_SET_WAIT(priority=0x10, entity_id=Excenmille (ID: 17232330/0x0106F1CA), tag_num=0x0A)
169: 0x07B0 [0x29] REQ_SET_WAIT(priority=0x10, entity_id=Excenmille (ID: 17232330/0x0106F1CA), tag_num=0x0B)
170: 0x07B7 [0x29] REQ_SET_WAIT(priority=0x10, entity_id=Excenmille (ID: 17232330/0x0106F1CA), tag_num=0x0C)
171: 0x07BE [0x7B] Excenmille (ID: 17232330/0x0106F1CA) stops talking
172: 0x07C3 [0x27] REQ_SET(priority=0x10, entity_id=Excenmille (ID: 17232330/0x0106F1CA), tag_num=0x5E)
173: 0x07CA [0x1C] WAIT(40* ticks)
174: 0x07CD [0x02] IF !(Work_Zone[9] == 5*) GOTO 0x07E7
175: 0x07D5 [0x52] END_LOAD_SCHEDULER: End scheduler "s022" with entities [EventEntity, EventEntity], work=846*
176: 0x07E4 [0x01] GOTO 0x0810
177: 0x07E7 [0x02] IF !(Work_Zone[9] == 6*) GOTO 0x0801
178: 0x07EF [0x52] END_LOAD_SCHEDULER: End scheduler "s022" with entities [EventEntity, EventEntity], work=846*
179: 0x07FE [0x01] GOTO 0x0810
180: 0x0801 [0x52] END_LOAD_SCHEDULER: End scheduler "s010" with entities [EventEntity, EventEntity], work=846*

SUBROUTINE_0810:
181: 0x0810 [0x45] LOAD_SCHEDULED_TASK: Load scheduler "s009" with entities [EventEntity, EventEntity], work=[846*, 0*]
182: 0x0821 [0x2B] Excenmille (ID: 17232330/0x0106F1CA) [12828*]:
    → "This place is too pristine... Even if hidden by the snow, there should be the smell of blood in the air."
183: 0x0828 [0x1C] WAIT(40* ticks)
184: 0x082B [0x4A] LocalPlayer looks at Excenmille (ID: 17232330/0x0106F1CA)
185: 0x0834 [0x23] WAIT_FOR_DIALOG_INTERACTION
186: 0x0835 [0x2A] GET_REQ_LEVEL(level=16, entity_id=Excenmille (ID: 17232330/0x0106F1CA))
187: 0x083B [0x6F] WAIT_FRAME_DELAY: Yield until WaitTime reaches zero
188: 0x083C [0x76] CHECK_ENTITY_RENDER_FLAGS: Wait until LocalPlayer Render.Flags0 and Render.Flags3 conditions are met
189: 0x0841 [0x52] END_LOAD_SCHEDULER: End scheduler "s009" with entities [EventEntity, EventEntity], work=846*
190: 0x0850 [0x02] IF !(Work_Zone[9] == 3*) GOTO 0x086C
191: 0x0858 [0x45] LOAD_SCHEDULED_TASK: Load scheduler "s011" with entities [EventEntity, EventEntity], work=[846*, 0*]
192: 0x0869 [0x01] GOTO 0x090E
193: 0x086C [0x02] IF !(Work_Zone[9] == 4*) GOTO 0x0888
194: 0x0874 [0x45] LOAD_SCHEDULED_TASK: Load scheduler "s011" with entities [EventEntity, EventEntity], work=[846*, 0*]
195: 0x0885 [0x01] GOTO 0x090E
196: 0x0888 [0x02] IF !(Work_Zone[9] == 5*) GOTO 0x08A4
197: 0x0890 [0x45] LOAD_SCHEDULED_TASK: Load scheduler "s026" with entities [EventEntity, EventEntity], work=[846*, 0*]
198: 0x08A1 [0x01] GOTO 0x090E
199: 0x08A4 [0x02] IF !(Work_Zone[9] == 6*) GOTO 0x08C0
200: 0x08AC [0x45] LOAD_SCHEDULED_TASK: Load scheduler "s026" with entities [EventEntity, EventEntity], work=[846*, 0*]
201: 0x08BD [0x01] GOTO 0x090E
202: 0x08C0 [0x02] IF !(Work_Zone[9] == 7*) GOTO 0x08E1
203: 0x08C8 [0x45] LOAD_SCHEDULED_TASK: Load scheduler "s028" with entities [EventEntity, EventEntity], work=[846*, 0*]
204: 0x08D9 [0x7B] LocalPlayer stops talking
205: 0x08DE [0x01] GOTO 0x090E
206: 0x08E1 [0x02] IF !(Work_Zone[9] == 8*) GOTO 0x08FD
207: 0x08E9 [0x45] LOAD_SCHEDULED_TASK: Load scheduler "s011" with entities [EventEntity, EventEntity], work=[846*, 0*]
208: 0x08FA [0x01] GOTO 0x090E
209: 0x08FD [0x45] LOAD_SCHEDULED_TASK: Load scheduler "s028" with entities [EventEntity, EventEntity], work=[846*, 0*]

SUBROUTINE_090E:
210: 0x090E [0x27] REQ_SET(priority=0x10, entity_id=LocalPlayer, tag_num=0x3F)
211: 0x0915 [0x2A] GET_REQ_LEVEL(level=16, entity_id=LocalPlayer)
212: 0x091B [0x29] REQ_SET_WAIT(priority=0x10, entity_id=LocalPlayer, tag_num=0x48)
213: 0x0922 [0x1C] WAIT(20* ticks)
214: 0x0925 [0x79] Excenmille (ID: 17232330/0x0106F1CA) looks at LocalPlayer (Basic look)
215: 0x092F [0x4B] UPDATE_ENTITY_YAW(entity=Excenmille (ID: 17232330/0x0106F1CA), yaw=4.9°*)
216: 0x0936 [0x6F] WAIT_FRAME_DELAY: Yield until WaitTime reaches zero
217: 0x0937 [0x76] CHECK_ENTITY_RENDER_FLAGS: Wait until Excenmille (ID: 17232330/0x0106F1CA) Render.Flags0 and Render.Flags3 conditions are met
218: 0x093C [0x1C] WAIT(60* ticks)
219: 0x093F [0x29] REQ_SET_WAIT(priority=0x10, entity_id=LocalPlayer, tag_num=0x39)
220: 0x0946 [0x1C] WAIT(60* ticks)
221: 0x0949 [0x29] REQ_SET_WAIT(priority=0x10, entity_id=Excenmille (ID: 17232330/0x0106F1CA), tag_num=0x0C)
222: 0x0950 [0x1A] CALL_SUBROUTINE(address=0x0064)
223: 0x0953 [0x29] REQ_SET_WAIT(priority=0x10, entity_id=LocalPlayer, tag_num=0x49)
224: 0x095A [0x02] IF !(Work_Zone[9] == 3*) GOTO 0x0974
225: 0x0962 [0x52] END_LOAD_SCHEDULER: End scheduler "s011" with entities [EventEntity, EventEntity], work=846*
226: 0x0971 [0x01] GOTO 0x0A05
227: 0x0974 [0x02] IF !(Work_Zone[9] == 4*) GOTO 0x098E
228: 0x097C [0x52] END_LOAD_SCHEDULER: End scheduler "s011" with entities [EventEntity, EventEntity], work=846*
229: 0x098B [0x01] GOTO 0x0A05
230: 0x098E [0x02] IF !(Work_Zone[9] == 5*) GOTO 0x09A8
231: 0x0996 [0x52] END_LOAD_SCHEDULER: End scheduler "s026" with entities [EventEntity, EventEntity], work=846*
232: 0x09A5 [0x01] GOTO 0x0A05
233: 0x09A8 [0x02] IF !(Work_Zone[9] == 6*) GOTO 0x09C2
234: 0x09B0 [0x52] END_LOAD_SCHEDULER: End scheduler "s026" with entities [EventEntity, EventEntity], work=846*
235: 0x09BF [0x01] GOTO 0x0A05
236: 0x09C2 [0x02] IF !(Work_Zone[9] == 7*) GOTO 0x09DC
237: 0x09CA [0x52] END_LOAD_SCHEDULER: End scheduler "s028" with entities [EventEntity, EventEntity], work=846*
238: 0x09D9 [0x01] GOTO 0x0A05
239: 0x09DC [0x02] IF !(Work_Zone[9] == 8*) GOTO 0x09F6
240: 0x09E4 [0x52] END_LOAD_SCHEDULER: End scheduler "s011" with entities [EventEntity, EventEntity], work=846*
241: 0x09F3 [0x01] GOTO 0x0A05
242: 0x09F6 [0x52] END_LOAD_SCHEDULER: End scheduler "s028" with entities [EventEntity, EventEntity], work=846*

SUBROUTINE_0A05:
243: 0x0A05 [0x77] SET_EVENT_TIME_WEATHER(hour=255*, weather=12*)
244: 0x0A0A [0xBA] SET_ENTITY_POSITION(entity_id=Excenmille (ID: 17232330/0x0106F1CA), pos_x=-18.110*, pos_z=-66.470*, pos_y=-60.250*, direction=309.2°*)
245: 0x0A17 [0xBA] SET_ENTITY_POSITION(entity_id=LocalPlayer, pos_x=-19.330*, pos_z=-68.447*, pos_y=-60.249*, direction=285.0°*)
246: 0x0A24 [0x4A] LocalPlayer looks at Excenmille (ID: 17232330/0x0106F1CA)
247: 0x0A2D [0x4A] Excenmille (ID: 17232330/0x0106F1CA) looks at LocalPlayer
248: 0x0A36 [0x6F] WAIT_FRAME_DELAY: Yield until WaitTime reaches zero
249: 0x0A37 [0x76] CHECK_ENTITY_RENDER_FLAGS: Wait until Excenmille (ID: 17232330/0x0106F1CA) Render.Flags0 and Render.Flags3 conditions are met
250: 0x0A3C [0x6F] WAIT_FRAME_DELAY: Yield until WaitTime reaches zero
251: 0x0A3D [0x76] CHECK_ENTITY_RENDER_FLAGS: Wait until LocalPlayer Render.Flags0 and Render.Flags3 conditions are met
252: 0x0A42 [0x7B] Excenmille (ID: 17232330/0x0106F1CA) stops talking
253: 0x0A47 [0x29] REQ_SET_WAIT(priority=0x10, entity_id=Excenmille (ID: 17232330/0x0106F1CA), tag_num=0x01)
254: 0x0A4E [0x29] REQ_SET_WAIT(priority=0x10, entity_id=Excenmille (ID: 17232330/0x0106F1CA), tag_num=0x02)
255: 0x0A55 [0x45] LOAD_SCHEDULED_TASK: Load scheduler "s012" with entities [EventEntity, EventEntity], work=[846*, 0*]
256: 0x0A66 [0x1A] CALL_SUBROUTINE(address=0x0043)
257: 0x0A69 [0x1C] WAIT(60* ticks)
258: 0x0A6C [0x2B] Excenmille (ID: 17232330/0x0106F1CA) [12829*]:
    → "I see... So you had to fight off an Orc attack while investigating the tower?"
259: 0x0A73 [0x1C] WAIT(60* ticks)
260: 0x0A76 [0x52] END_LOAD_SCHEDULER: End scheduler "s012" with entities [EventEntity, EventEntity], work=846*
261: 0x0A85 [0x45] LOAD_SCHEDULED_TASK: Load scheduler "s014" with entities [EventEntity, EventEntity], work=[846*, 0*]
262: 0x0A96 [0x23] WAIT_FOR_DIALOG_INTERACTION
263: 0x0A97 [0x2B] Excenmille (ID: 17232330/0x0106F1CA) [12830*]:
    → "And they had this special map with them..."
264: 0x0A9E [0x23] WAIT_FOR_DIALOG_INTERACTION
265: 0x0A9F [0x79] Excenmille (ID: 17232330/0x0106F1CA) looks at LocalPlayer (Basic look)
266: 0x0AA9 [0x29] REQ_SET_WAIT(priority=0x10, entity_id=Excenmille (ID: 17232330/0x0106F1CA), tag_num=0x03)
267: 0x0AB0 [0x29] REQ_SET_WAIT(priority=0x10, entity_id=Excenmille (ID: 17232330/0x0106F1CA), tag_num=0x04)
268: 0x0AB7 [0x52] END_LOAD_SCHEDULER: End scheduler "s014" with entities [EventEntity, EventEntity], work=846*
269: 0x0AC6 [0x02] IF !(Work_Zone[9] == 3*) GOTO 0x0AE2
270: 0x0ACE [0x45] LOAD_SCHEDULED_TASK: Load scheduler "s013" with entities [EventEntity, EventEntity], work=[846*, 0*]
271: 0x0ADF [0x01] GOTO 0x0B47
272: 0x0AE2 [0x02] IF !(Work_Zone[9] == 5*) GOTO 0x0AFE
273: 0x0AEA [0x45] LOAD_SCHEDULED_TASK: Load scheduler "s023" with entities [EventEntity, EventEntity], work=[846*, 0*]
274: 0x0AFB [0x01] GOTO 0x0B47
275: 0x0AFE [0x02] IF !(Work_Zone[9] == 6*) GOTO 0x0B1A
276: 0x0B06 [0x45] LOAD_SCHEDULED_TASK: Load scheduler "s023" with entities [EventEntity, EventEntity], work=[846*, 0*]
277: 0x0B17 [0x01] GOTO 0x0B47
278: 0x0B1A [0x02] IF !(Work_Zone[9] == 8*) GOTO 0x0B36
279: 0x0B22 [0x45] LOAD_SCHEDULED_TASK: Load scheduler "s013" with entities [EventEntity, EventEntity], work=[846*, 0*]
280: 0x0B33 [0x01] GOTO 0x0B47
281: 0x0B36 [0x45] LOAD_SCHEDULED_TASK: Load scheduler "s029" with entities [EventEntity, EventEntity], work=[846*, 0*]

SUBROUTINE_0B47:
282: 0x0B47 [0x29] REQ_SET_WAIT(priority=0x10, entity_id=Excenmille (ID: 17232330/0x0106F1CA), tag_num=0x09)
283: 0x0B4E [0x2B] Excenmille (ID: 17232330/0x0106F1CA) [12831*]:
    → "If I had to guess, I would say this map details a survey of the area by Altennia's men."
284: 0x0B55 [0x23] WAIT_FOR_DIALOG_INTERACTION
285: 0x0B56 [0x29] REQ_SET_WAIT(priority=0x10, entity_id=Excenmille (ID: 17232330/0x0106F1CA), tag_num=0x0A)
286: 0x0B5D [0x02] IF !(Work_Zone[9] == 3*) GOTO 0x0B77
287: 0x0B65 [0x52] END_LOAD_SCHEDULER: End scheduler "s013" with entities [EventEntity, EventEntity], work=846*
288: 0x0B74 [0x01] GOTO 0x0BD4
289: 0x0B77 [0x02] IF !(Work_Zone[9] == 5*) GOTO 0x0B91
290: 0x0B7F [0x52] END_LOAD_SCHEDULER: End scheduler "s023" with entities [EventEntity, EventEntity], work=846*
291: 0x0B8E [0x01] GOTO 0x0BD4
292: 0x0B91 [0x02] IF !(Work_Zone[9] == 6*) GOTO 0x0BAB
293: 0x0B99 [0x52] END_LOAD_SCHEDULER: End scheduler "s023" with entities [EventEntity, EventEntity], work=846*
294: 0x0BA8 [0x01] GOTO 0x0BD4
295: 0x0BAB [0x02] IF !(Work_Zone[9] == 8*) GOTO 0x0BC5
296: 0x0BB3 [0x52] END_LOAD_SCHEDULER: End scheduler "s013" with entities [EventEntity, EventEntity], work=846*
297: 0x0BC2 [0x01] GOTO 0x0BD4
298: 0x0BC5 [0x52] END_LOAD_SCHEDULER: End scheduler "s029" with entities [EventEntity, EventEntity], work=846*

SUBROUTINE_0BD4:
299: 0x0BD4 [0x45] LOAD_SCHEDULED_TASK: Load scheduler "s015" with entities [EventEntity, EventEntity], work=[846*, 0*]
300: 0x0BE5 [0x7B] Excenmille (ID: 17232330/0x0106F1CA) stops talking
301: 0x0BEA [0x29] REQ_SET_WAIT(priority=0x10, entity_id=Excenmille (ID: 17232330/0x0106F1CA), tag_num=0x01)
302: 0x0BF1 [0x29] REQ_SET_WAIT(priority=0x10, entity_id=Excenmille (ID: 17232330/0x0106F1CA), tag_num=0x02)
303: 0x0BF8 [0x2B] Excenmille (ID: 17232330/0x0106F1CA) [12832*]:
    → "Hmm... I am also curious about the lack of bodies, as well as any signs of our unit's encampment."
304: 0x0BFF [0x23] WAIT_FOR_DIALOG_INTERACTION
305: 0x0C00 [0x2B] Excenmille (ID: 17232330/0x0106F1CA) [12833*]:
    → "If all of that was carried out from here, where could it have gone..."
306: 0x0C07 [0x23] WAIT_FOR_DIALOG_INTERACTION
307: 0x0C08 [0x52] END_LOAD_SCHEDULER: End scheduler "s015" with entities [EventEntity, EventEntity], work=846*
308: 0x0C17 [0x02] IF !(Work_Zone[9] == 5*) GOTO 0x0C33
309: 0x0C1F [0x45] LOAD_SCHEDULED_TASK: Load scheduler "s024" with entities [EventEntity, EventEntity], work=[846*, 0*]
310: 0x0C30 [0x01] GOTO 0x0C60
311: 0x0C33 [0x02] IF !(Work_Zone[9] == 6*) GOTO 0x0C4F
312: 0x0C3B [0x45] LOAD_SCHEDULED_TASK: Load scheduler "s024" with entities [EventEntity, EventEntity], work=[846*, 0*]
313: 0x0C4C [0x01] GOTO 0x0C60
314: 0x0C4F [0x45] LOAD_SCHEDULED_TASK: Load scheduler "s016" with entities [EventEntity, EventEntity], work=[846*, 0*]

SUBROUTINE_0C60:
315: 0x0C60 [0x1C] WAIT(90* ticks)
316: 0x0C63 [0x79] Excenmille (ID: 17232330/0x0106F1CA) looks at LocalPlayer (Basic look)
317: 0x0C6D [0x29] REQ_SET_WAIT(priority=0x10, entity_id=Excenmille (ID: 17232330/0x0106F1CA), tag_num=0x03)
318: 0x0C74 [0x2B] Excenmille (ID: 17232330/0x0106F1CA) [12834*]:
    → "At any rate, we only have this map to go on."
319: 0x0C7B [0x23] WAIT_FOR_DIALOG_INTERACTION
320: 0x0C7C [0x2B] Excenmille (ID: 17232330/0x0106F1CA) [12835*]:
    → "According to it, there appears to be something atop the cliff northeast of here."
321: 0x0C83 [0x23] WAIT_FOR_DIALOG_INTERACTION
322: 0x0C84 [0x29] REQ_SET_WAIT(priority=0x10, entity_id=Excenmille (ID: 17232330/0x0106F1CA), tag_num=0x04)
323: 0x0C8B [0x02] IF !(Work_Zone[9] == 5*) GOTO 0x0CA5
324: 0x0C93 [0x52] END_LOAD_SCHEDULER: End scheduler "s024" with entities [EventEntity, EventEntity], work=846*
325: 0x0CA2 [0x01] GOTO 0x0CCE
326: 0x0CA5 [0x02] IF !(Work_Zone[9] == 6*) GOTO 0x0CBF
327: 0x0CAD [0x52] END_LOAD_SCHEDULER: End scheduler "s024" with entities [EventEntity, EventEntity], work=846*
328: 0x0CBC [0x01] GOTO 0x0CCE
329: 0x0CBF [0x52] END_LOAD_SCHEDULER: End scheduler "s016" with entities [EventEntity, EventEntity], work=846*

SUBROUTINE_0CCE:
330: 0x0CCE [0x02] IF !(Work_Zone[9] == 3*) GOTO 0x0CEA
331: 0x0CD6 [0x45] LOAD_SCHEDULED_TASK: Load scheduler "s018" with entities [EventEntity, EventEntity], work=[846*, 0*]
332: 0x0CE7 [0x01] GOTO 0x0D4F
333: 0x0CEA [0x02] IF !(Work_Zone[9] == 5*) GOTO 0x0D06
334: 0x0CF2 [0x45] LOAD_SCHEDULED_TASK: Load scheduler "s025" with entities [EventEntity, EventEntity], work=[846*, 0*]
335: 0x0D03 [0x01] GOTO 0x0D4F
336: 0x0D06 [0x02] IF !(Work_Zone[9] == 6*) GOTO 0x0D22
337: 0x0D0E [0x45] LOAD_SCHEDULED_TASK: Load scheduler "s025" with entities [EventEntity, EventEntity], work=[846*, 0*]
338: 0x0D1F [0x01] GOTO 0x0D4F
339: 0x0D22 [0x02] IF !(Work_Zone[9] == 8*) GOTO 0x0D3E
340: 0x0D2A [0x45] LOAD_SCHEDULED_TASK: Load scheduler "s018" with entities [EventEntity, EventEntity], work=[846*, 0*]
341: 0x0D3B [0x01] GOTO 0x0D4F
342: 0x0D3E [0x45] LOAD_SCHEDULED_TASK: Load scheduler "s030" with entities [EventEntity, EventEntity], work=[846*, 0*]

SUBROUTINE_0D4F:
343: 0x0D4F [0x2B] Excenmille (ID: 17232330/0x0106F1CA) [12836*]:
    → "The answers that we seek may be found there. We should go check it out right away."
344: 0x0D56 [0x23] WAIT_FOR_DIALOG_INTERACTION
345: 0x0D57 [0x5D] SET_MUSIC_VOLUME(volume=0*, fade_time=300*)
346: 0x0D5C [0x7B] Excenmille (ID: 17232330/0x0106F1CA) stops talking
347: 0x0D61 [0x27] REQ_SET(priority=0x10, entity_id=Excenmille (ID: 17232330/0x0106F1CA), tag_num=0x5F)
348: 0x0D68 [0x1C] WAIT(30* ticks)
349: 0x0D6B [0x02] IF !(Work_Zone[9] == 3*) GOTO 0x0D85
350: 0x0D73 [0x52] END_LOAD_SCHEDULER: End scheduler "s018" with entities [EventEntity, EventEntity], work=846*
351: 0x0D82 [0x01] GOTO 0x0DE2
352: 0x0D85 [0x02] IF !(Work_Zone[9] == 5*) GOTO 0x0D9F
353: 0x0D8D [0x52] END_LOAD_SCHEDULER: End scheduler "s025" with entities [EventEntity, EventEntity], work=846*
354: 0x0D9C [0x01] GOTO 0x0DE2
355: 0x0D9F [0x02] IF !(Work_Zone[9] == 6*) GOTO 0x0DB9
356: 0x0DA7 [0x52] END_LOAD_SCHEDULER: End scheduler "s025" with entities [EventEntity, EventEntity], work=846*
357: 0x0DB6 [0x01] GOTO 0x0DE2
358: 0x0DB9 [0x02] IF !(Work_Zone[9] == 8*) GOTO 0x0DD3
359: 0x0DC1 [0x52] END_LOAD_SCHEDULER: End scheduler "s018" with entities [EventEntity, EventEntity], work=846*
360: 0x0DD0 [0x01] GOTO 0x0DE2
361: 0x0DD3 [0x52] END_LOAD_SCHEDULER: End scheduler "s030" with entities [EventEntity, EventEntity], work=846*

SUBROUTINE_0DE2:
362: 0x0DE2 [0x45] LOAD_SCHEDULED_TASK: Load scheduler "s017" with entities [EventEntity, EventEntity], work=[846*, 0*]
363: 0x0DF3 [0x4B] UPDATE_ENTITY_YAW(entity=LocalPlayer, yaw=22.3°*)
364: 0x0DFA [0x6F] WAIT_FRAME_DELAY: Yield until WaitTime reaches zero
365: 0x0DFB [0x76] CHECK_ENTITY_RENDER_FLAGS: Wait until LocalPlayer Render.Flags0 and Render.Flags3 conditions are met
366: 0x0E00 [0x4B] UPDATE_ENTITY_YAW(entity=LocalPlayer, yaw=4.4°*)
367: 0x0E07 [0x6F] WAIT_FRAME_DELAY: Yield until WaitTime reaches zero
368: 0x0E08 [0x76] CHECK_ENTITY_RENDER_FLAGS: Wait until LocalPlayer Render.Flags0 and Render.Flags3 conditions are met
369: 0x0E0D [0x1C] WAIT(60* ticks)
370: 0x0E10 [0x1A] CALL_SUBROUTINE(address=0x0064)
371: 0x0E13 [0x52] END_LOAD_SCHEDULER: End scheduler "s017" with entities [EventEntity, EventEntity], work=846*
372: 0x0E22 [0x1C] WAIT(15* ticks)
373: 0x0E25 [0x2A] GET_REQ_LEVEL(level=16, entity_id=Excenmille (ID: 17232330/0x0106F1CA))
374: 0x0E2B [0x78] ENABLE_GAME_TIMER_RESET_WEATHER()
375: 0x0E2C [0x5C] MUSIC_CONTROL: Set Idle (Day) music to song 0*
376: 0x0E30 [0x5C] MUSIC_CONTROL: Set Idle (Night) music to song 0*
377: 0x0E34 [0x5C] MUSIC_CONTROL: Set Combat (Solo) music to song 101*
378: 0x0E38 [0x5C] MUSIC_CONTROL: Set Combat (Party) music to song 103*
379: 0x0E3C [0x9A] WAIT_MUSIC_SERVER()
380: 0x0E3D [0x5D] SET_MUSIC_VOLUME(volume=127*, fade_time=1*)
381: 0x0E42 [0xAB] EventEntity->DespawnValue = 0* // Set despawn value
382: 0x0E46 [0x1C] WAIT(1* ticks)
383: 0x0E49 [0x46] CAMERA_CONTROL: Restore default settings
384: 0x0E4B [0x45] LOAD_SCHEDULED_TASK: Load scheduler "fdi2" with entities [EventEntity, EventEntity], work=[200*, 0*]
385: 0x0E5C [0x21] END_EVENT
386: 0x0E5D [0x00] END_REQSTACK()
```

### Event 232

#### Metadata

| Field        | Value      |
|--------------|------------|
| Entrypoint   | 0x0E5E     |
| Data Size    | 6866 bytes |
| Instructions | 878        |

```
      00 01 02 03 04 05 06 07  08 09 0A 0B 0C 0D 0E 0F
      -- -- -- -- -- -- -- --  -- -- -- -- -- -- -- --
0E50:                                            5D 01                ].
0E60: 80 08 80 42 1A 64 00 46  01 38 09 80 2F 00 CA F1  ...B.d.F.8../...
0E70: 06 01 2F 00 CB F1 06 01  2F 00 CD F1 06 01 2F 00  ../...../...../.
0E80: CE F1 06 01 2F 00 CF F1  06 01 2F 00 D0 F1 06 01  ..../...../.....
0E90: 2F 00 D1 F1 06 01 2F 00  D2 F1 06 01 2F 00 D3 F1  /...../...../...
0EA0: 06 01 2F 00 D4 F1 06 01  2F 00 D5 F1 06 01 2F 00  ../...../...../.
0EB0: C9 F1 06 01 2F 00 DA F1  06 01 4E 00 CA F1 06 01  ..../.....N.....
0EC0: 4E 00 CB F1 06 01 4E 00  CD F1 06 01 4E 00 CE F1  N.....N.....N...
0ED0: 06 01 4E 00 CF F1 06 01  4E 00 D0 F1 06 01 4E 00  ..N.....N.....N.
0EE0: D1 F1 06 01 4E 00 D2 F1  06 01 4E 00 D3 F1 06 01  ....N.....N.....
0EF0: 4E 00 D4 F1 06 01 4E 00  D5 F1 06 01 4E 00 C9 F1  N.....N.....N...
0F00: 06 01 29 10 C9 F1 06 01  02 94 01 CA F1 06 01 94  ..).............
0F10: 01 CB F1 06 01 94 01 CD  F1 06 01 94 01 CE F1 06  ................
0F20: 01 94 01 CF F1 06 01 94  01 D0 F1 06 01 94 01 D1  ................
0F30: F1 06 01 94 01 D2 F1 06  01 94 01 D3 F1 06 01 94  ................
0F40: 01 D4 F1 06 01 94 01 D5  F1 06 01 94 01 C9 F1 06  ................
0F50: 01 94 01 F0 FF FF 7F 29  08 DA F1 06 01 03 BA CA  .......)........
0F60: F1 06 01 4F 80 50 80 01  80 51 80 BA CB F1 06 01  ...O.P...Q......
0F70: 52 80 53 80 54 80 55 80  BA CD F1 06 01 56 80 57  R.S.T.U......V.W
0F80: 80 58 80 59 80 BA CE F1  06 01 5A 80 5B 80 5C 80  .X.Y......Z.[.\.
0F90: 59 80 BA CF F1 06 01 5D  80 5E 80 54 80 59 80 BA  Y......].^.T.Y..
0FA0: D0 F1 06 01 5F 80 60 80  61 80 59 80 BA D1 F1 06  ...._.`.a.Y.....
0FB0: 01 62 80 63 80 64 80 59  80 BA D2 F1 06 01 65 80  .b.c.d.Y......e.
0FC0: 66 80 54 80 59 80 BA D3  F1 06 01 67 80 68 80 69  f.T.Y......g.h.i
0FD0: 80 59 80 BA D4 F1 06 01  6A 80 6B 80 6C 80 6D 80  .Y......j.k.l.m.
0FE0: BA D5 F1 06 01 6E 80 6F  80 70 80 71 80 59 05 C9  .....n.o.p.q.Y..
0FF0: F1 06 01 01 BA C9 F1 06  01 72 80 73 80 74 80 75  .........r.s.t.u
1000: 80 D8 03 C9 F1 06 01 76  80 59 05 C9 F1 06 01 01  .......v.Y......
1010: BA F0 FF FF 7F 77 80 78  80 01 80 79 80 80 CA F1  .....w.x...y....
1020: 06 01 80 CB F1 06 01 80  CD F1 06 01 80 CE F1 06  ................
1030: 01 80 CF F1 06 01 80 D0  F1 06 01 80 D1 F1 06 01  ................
1040: 80 D2 F1 06 01 80 D3 F1  06 01 80 D4 F1 06 01 80  ................
1050: D5 F1 06 01 80 C9 F1 06  01 80 F0 FF FF 7F 4A D5  ..............J.
1060: F1 06 01 CB F1 06 01 4A  D4 F1 06 01 CB F1 06 01  .......J........
1070: 4A D3 F1 06 01 CB F1 06  01 4A D2 F1 06 01 CB F1  J........J......
1080: 06 01 4A D1 F1 06 01 CB  F1 06 01 4A D0 F1 06 01  ..J........J....
1090: CB F1 06 01 4A CF F1 06  01 CB F1 06 01 4B CE F1  ....J........K..
10A0: 06 01 7A 80 4A CD F1 06  01 CB F1 06 01 2C CB F1  ..z.J........,..
10B0: 06 01 CB F1 06 01 65 66  6F 66 2C CB F1 06 01 CB  ......efof,.....
10C0: F1 06 01 77 70 6F 66 2C  CE F1 06 01 CE F1 06 01  ...wpof,........
10D0: 77 70 6F 66 29 10 CB F1  06 01 9C 29 10 CA F1 06  wpof)......)....
10E0: 01 59 29 10 CD F1 06 01  9C 29 10 CE F1 06 01 02  .Y)......)......
10F0: 29 10 F0 FF FF 7F 3B 29  08 F0 FF FF 7F 2A 5C 00  ).....;).....*\.
1100: 7B 80 5C 01 7B 80 5C 02  7B 80 5C 03 7B 80 9A 5D  {.\.{.\.{.\.{..]
1110: 23 80 03 80 79 02 F0 FF  FF 7F 7C 80 01 80 29 10  #...y.....|...).
1120: CA F1 06 01 31 29 10 CA  F1 06 01 32 45 12 80 F8  ....1).....2E...
1130: FF FF 7F F8 FF FF 7F 73  30 34 30 01 80 1A 43 00  .......s040...C.
1140: 1C 13 80 27 10 F0 FF FF  7F 40 1C 7D 80 52 12 80  ...'.....@.}.R..
1150: F8 FF FF 7F F8 FF FF 7F  73 30 34 30 45 12 80 F8  ........s040E...
1160: FF FF 7F F8 FF FF 7F 73  30 33 34 01 80 79 02 F0  .......s034..y..
1170: FF FF 7F 01 80 01 80 1C  21 80 79 00 F0 FF FF 7F  ........!.y.....
1180: CA F1 06 01 1C 21 80 2A  10 F0 FF FF 7F 52 12 80  .....!.*.....R..
1190: F8 FF FF 7F F8 FF FF 7F  73 30 33 34 45 12 80 F8  ........s034E...
11A0: FF FF 7F F8 FF FF 7F 73  30 33 32 01 80 29 10 CA  .......s032..)..
11B0: F1 06 01 33 1C 21 80 1C  21 80 29 10 CA F1 06 01  ...3.!..!.).....
11C0: 34 79 02 CA F1 06 01 7E  80 01 80 1C 28 80 52 12  4y.....~....(.R.
11D0: 80 F8 FF FF 7F F8 FF FF  7F 73 30 33 32 45 12 80  .........s032E..
11E0: F8 FF FF 7F F8 FF FF 7F  73 30 33 36 01 80 29 10  ........s036..).
11F0: CA F1 06 01 1B 2B CA F1  06 01 7F 80 1C 21 80 4A  .....+.......!.J
1200: F0 FF FF 7F CA F1 06 01  6F 76 F0 FF FF 7F 1C 46  ........ov.....F
1210: 80 52 12 80 F8 FF FF 7F  F8 FF FF 7F 73 30 33 36  .R..........s036
1220: 45 12 80 F8 FF FF 7F F8  FF FF 7F 73 30 33 33 01  E..........s033.
1230: 80 23 1C 46 80 29 10 CA  F1 06 01 1C 52 12 80 F8  .#.F.)......R...
1240: FF FF 7F F8 FF FF 7F 73  30 33 33 02 09 10 1D 80  .......s033.....
1250: 00 67 12 45 12 80 F8 FF  FF 7F F8 FF FF 7F 73 30  .g.E..........s0
1260: 38 37 01 80 01 94 12 02  09 10 1F 80 00 83 12 45  87.............E
1270: 12 80 F8 FF FF 7F F8 FF  FF 7F 73 30 38 37 01 80  ..........s087..
1280: 01 94 12 45 12 80 F8 FF  FF 7F F8 FF FF 7F 73 30  ...E..........s0
1290: 33 35 01 80 4A CA F1 06  01 F0 FF FF 7F 6F 76 CA  35..J........ov.
12A0: F1 06 01 29 10 CA F1 06  01 05 2B CA F1 06 01 80  ...)......+.....
12B0: 80 1C 81 80 6E F0 FF FF  7F 82 80 99 F0 FF FF 7F  ....n...........
12C0: 23 29 10 CA F1 06 01 06  02 09 10 1D 80 00 E2 12  #)..............
12D0: 52 12 80 F8 FF FF 7F F8  FF FF 7F 73 30 38 37 01  R..........s087.
12E0: 0B 13 02 09 10 1F 80 00  FC 12 52 12 80 F8 FF FF  ..........R.....
12F0: 7F F8 FF FF 7F 73 30 38  37 01 0B 13 52 12 80 F8  .....s087...R...
1300: FF FF 7F F8 FF FF 7F 73  30 33 35 02 09 10 1D 80  .......s035.....
1310: 00 27 13 45 12 80 F8 FF  FF 7F F8 FF FF 7F 73 30  .'.E..........s0
1320: 38 38 01 80 01 54 13 02  09 10 1F 80 00 43 13 45  88...T.......C.E
1330: 12 80 F8 FF FF 7F F8 FF  FF 7F 73 30 38 38 01 80  ..........s088..
1340: 01 54 13 45 12 80 F8 FF  FF 7F F8 FF FF 7F 73 30  .T.E..........s0
1350: 33 39 01 80 7B CA F1 06  01 27 10 CA F1 06 01 61  39..{....'.....a
1360: 1C 7D 80 5D 01 80 83 80  1A 64 00 02 09 10 1D 80  .}.].....d......
1370: 00 85 13 52 12 80 F8 FF  FF 7F F8 FF FF 7F 73 30  ...R..........s0
1380: 38 38 01 AE 13 02 09 10  1F 80 00 9F 13 52 12 80  88...........R..
1390: F8 FF FF 7F F8 FF FF 7F  73 30 38 38 01 AE 13 52  ........s088...R
13A0: 12 80 F8 FF FF 7F F8 FF  FF 7F 73 30 33 39 2A 10  ..........s039*.
13B0: CA F1 06 01 BA CA F1 06  01 84 80 85 80 86 80 87  ................
13C0: 80 BA F0 FF FF 7F 88 80  89 80 8A 80 8B 80 45 12  ..............E.
13D0: 80 F8 FF FF 7F F8 FF FF  7F 38 31 32 32 01 80 1C  .........8122...
13E0: 06 80 45 12 80 F8 FF FF  7F F8 FF FF 7F 38 32 33  ..E..........823
13F0: 33 01 80 1C 06 80 45 12  80 F8 FF FF 7F F8 FF FF  3.....E.........
1400: 7F 36 30 32 34 01 80 1C  06 80 45 12 80 F8 FF FF  .6024.....E.....
1410: 7F F8 FF FF 7F 36 30 32  35 01 80 1C 06 80 45 12  .....6025.....E.
1420: 80 F8 FF FF 7F F8 FF FF  7F 36 30 32 35 01 80 1C  .........6025...
1430: 06 80 45 12 80 F8 FF FF  7F F8 FF FF 7F 36 30 32  ..E..........602
1440: 35 01 80 1C 06 80 45 12  80 F8 FF FF 7F F8 FF FF  5.....E.........
1450: 7F 36 30 32 35 01 80 77  14 80 39 80 5C 00 8C 80  .6025..w..9.\...
1460: 5C 01 8C 80 5C 02 8C 80  5C 03 8C 80 9A 5D 23 80  \...\...\....]#.
1470: 03 80 5B 8D 80 F8 FF FF  7F F8 FF FF 7F 00 FE FE  ..[.............
1480: FE 1C 46 80 27 10 CA F1  06 01 62 1C 7D 80 27 10  ..F.'.....b.}.'.
1490: F0 FF FF 7F 41 1C 05 80  45 12 80 F8 FF FF 7F F8  ....A...E.......
14A0: FF FF 7F 73 30 33 37 01  80 1A 43 00 1C 21 80 52  ...s037...C..!.R
14B0: 12 80 F8 FF FF 7F F8 FF  FF 7F 73 30 33 37 45 12  ..........s037E.
14C0: 80 F8 FF FF 7F F8 FF FF  7F 73 30 33 38 01 80 2A  .........s038..*
14D0: 10 CA F1 06 01 29 10 CA  F1 06 01 58 1C 4C 80 29  .....).....X.L.)
14E0: 10 D2 F1 06 01 6F 29 10  D1 F1 06 01 31 29 10 D3  .....o).....1)..
14F0: F1 06 01 33 29 10 D0 F1  06 01 31 2A 10 F0 FF FF  ...3).....1*....
1500: 7F 52 12 80 F8 FF FF 7F  F8 FF FF 7F 73 30 33 38  .R..........s038
1510: 45 12 80 F8 FF FF 7F F8  FF FF 7F 73 30 34 31 01  E..........s041.
1520: 80 29 10 CD F1 06 01 31  1C 28 80 29 10 CE F1 06  .).....1.(.)....
1530: 01 31 1C 21 80 52 12 80  F8 FF FF 7F F8 FF FF 7F  .1.!.R..........
1540: 73 30 34 31 45 12 80 F8  FF FF 7F F8 FF FF 7F 73  s041E..........s
1550: 30 34 32 01 80 29 10 CF  F1 06 01 35 1C 06 80 29  042..).....5...)
1560: 10 CB F1 06 01 27 1C 28  80 29 10 D1 F1 06 01 71  .....'.(.).....q
1570: 1C 28 80 52 12 80 F8 FF  FF 7F F8 FF FF 7F 73 30  .(.R..........s0
1580: 34 32 45 12 80 F8 FF FF  7F F8 FF FF 7F 73 30 34  42E..........s04
1590: 34 01 80 1C 05 80 4B CD  F1 06 01 8E 80 4B CE F1  4.....K......K..
15A0: 06 01 8F 80 4B CB F1 06  01 90 80 1C 35 80 2B CA  ....K.......5.+.
15B0: F1 06 01 91 80 29 10 D2  F1 06 01 70 29 10 D0 F1  .....).....p)...
15C0: 06 01 32 29 10 D1 F1 06  01 70 29 10 CD F1 06 01  ..2).....p).....
15D0: 32 29 10 CE F1 06 01 32  29 10 D3 F1 06 01 34 29  2).....2).....4)
15E0: 10 CF F1 06 01 36 29 10  CB F1 06 01 28 6B 69 64  .....6).....(kid
15F0: 6C 30 CD F1 06 01 6B 69  64 6C 30 CE F1 06 01 6B  l0....kidl0....k
1600: 69 64 6C 30 D3 F1 06 01  23 29 10 CF F1 06 01 71  idl0....#).....q
1610: 29 10 D2 F1 06 01 71 29  10 D0 F1 06 01 71 6F 76  ).....q).....qov
1620: CB F1 06 01 6F 76 CD F1  06 01 6F 76 CE F1 06 01  ....ov....ov....
1630: 52 12 80 F8 FF FF 7F F8  FF FF 7F 73 30 34 34 45  R..........s044E
1640: 12 80 F8 FF FF 7F F8 FF  FF 7F 73 30 34 33 01 80  ..........s043..
1650: 2C CB F1 06 01 CB F1 06  01 77 70 6F 6E 29 10 CB  ,........wpon)..
1660: F1 06 01 27 6C CE F1 06  01 01 80 03 80 2C CD F1  ...'l........,..
1670: 06 01 CD F1 06 01 77 70  6F 66 29 10 CD F1 06 01  ......wpof).....
1680: 55 2B CA F1 06 01 92 80  1C 7D 80 45 12 80 F8 FF  U+.......}.E....
1690: FF 7F F8 FF FF 7F 35 30  30 34 01 80 4A D0 F1 06  ......5004..J...
16A0: 01 CA F1 06 01 4A D1 F1  06 01 CA F1 06 01 4A D2  .....J........J.
16B0: F1 06 01 CA F1 06 01 4A  D3 F1 06 01 CA F1 06 01  .......J........
16C0: 23 29 10 CB F1 06 01 28  29 10 CD F1 06 01 56 27  #).....().....V'
16D0: 10 CA F1 06 01 63 1C 1F  80 52 12 80 F8 FF FF 7F  .....c...R......
16E0: F8 FF FF 7F 73 30 34 33  45 12 80 F8 FF FF 7F F8  ....s043E.......
16F0: FF FF 7F 73 30 35 30 01  80 6B 69 64 6C 30 CB F1  ...s050..kidl0..
1700: 06 01 6C CE F1 06 01 1C  80 03 80 29 10 D3 F1 06  ..l........)....
1710: 01 6D 29 10 D0 F1 06 01  0F 1C 4C 80 1C 7D 80 29  .m).......L..}.)
1720: 10 CD F1 06 01 57 1C 1D  80 29 10 CE F1 06 01 01  .....W...)......
1730: 27 10 CB F1 06 01 A0 1C  05 80 52 12 80 F8 FF FF  '.........R.....
1740: 7F F8 FF FF 7F 73 30 35  30 45 12 80 F8 FF FF 7F  .....s050E......
1750: F8 FF FF 7F 73 30 34 35  01 80 1C 1D 80 1C 93 80  ....s045........
1760: 52 12 80 F8 FF FF 7F F8  FF FF 7F 73 30 34 35 45  R..........s045E
1770: 12 80 F8 FF FF 7F F8 FF  FF 7F 73 30 34 36 01 80  ..........s046..
1780: 1C 93 80 5D 01 80 08 80  1A B7 01 45 12 80 F8 FF  ...].......E....
1790: FF 7F F8 FF FF 7F 38 32  35 31 01 80 2A 10 CA F1  ......8251..*...
17A0: 06 01 52 12 80 F8 FF FF  7F F8 FF FF 7F 73 30 34  ..R..........s04
17B0: 36 2A 10 CB F1 06 01 BA  CA F1 06 01 94 80 95 80  6*..............
17C0: 96 80 6D 80 BA C8 F1 06  01 97 80 98 80 54 80 99  ..m..........T..
17D0: 80 BA CB F1 06 01 9A 80  9B 80 9C 80 59 80 4A CA  ............Y.J.
17E0: F1 06 01 CB F1 06 01 4A  CB F1 06 01 CA F1 06 01  .......J........
17F0: 2C CD F1 06 01 CD F1 06  01 77 70 6F 6E 2C CE F1  ,........wpon,..
1800: 06 01 CE F1 06 01 77 70  6F 6E 6B 69 64 6C 30 CD  ......wponkidl0.
1810: F1 06 01 6B 69 64 6C 30  D2 F1 06 01 6B 69 64 6C  ...kidl0....kidl
1820: 30 D0 F1 06 01 5B 9D 80  F8 FF FF 7F F8 FF FF 7F  0....[..........
1830: 00 FE FE FE 6F 76 CA F1  06 01 6F 76 CB F1 06 01  ....ov....ov....
1840: 29 10 CA F1 06 01 33 1C  1D 80 27 10 F0 FF FF 7F  ).....3...'.....
1850: 42 29 10 CB F1 06 01 37  45 12 80 F8 FF FF 7F F8  B).....7E.......
1860: FF FF 7F 73 30 34 38 01  80 1A 96 01 45 12 80 F8  ...s048.....E...
1870: FF FF 7F F8 FF FF 7F 31  30 38 37 01 80 79 00 CD  .......1087..y..
1880: F1 06 01 C8 F1 06 01 4B  CD F1 06 01 9E 80 1C 1D  .......K........
1890: 80 4A CE F1 06 01 C8 F1  06 01 1C 1D 80 4A CF F1  .J...........J..
18A0: 06 01 C8 F1 06 01 1C 1D  80 4A D0 F1 06 01 C8 F1  .........J......
18B0: 06 01 1C 1D 80 4A D1 F1  06 01 C8 F1 06 01 1C 1D  .....J..........
18C0: 80 4A D2 F1 06 01 C8 F1  06 01 1C 1D 80 29 10 D3  .J...........)..
18D0: F1 06 01 29 1C 06 80 52  12 80 F8 FF FF 7F F8 FF  ...)...R........
18E0: FF 7F 73 30 34 38 45 12  80 F8 FF FF 7F F8 FF FF  ..s048E.........
18F0: 7F 73 30 34 37 01 80 29  10 CB F1 06 01 38 BA CB  .s047..).....8..
1900: F1 06 01 97 80 98 80 54  80 01 80 BA CD F1 06 01  .......T........
1910: 9F 80 A0 80 A1 80 A2 80  BA CF F1 06 01 A3 80 A4  ................
1920: 80 A1 80 A2 80 BA D3 F1  06 01 A5 80 A6 80 A7 80  ................
1930: A2 80 2C CB F1 06 01 CB  F1 06 01 77 70 6F 66 9F  ..,........wpof.
1940: 23 80 F8 FF FF 7F F8 FF  FF 7F 73 74 72 30 01 80  #.........str0..
1950: 45 12 80 F8 FF FF 7F F8  FF FF 7F 38 33 32 38 01  E..........8328.
1960: 80 1C 06 80 9F 23 80 F8  FF FF 7F F8 FF FF 7F 6B  .....#.........k
1970: 69 6C 6C 01 80 1C 21 80  6B 69 64 6C 30 D3 F1 06  ill...!.kidl0...
1980: 01 2B CA F1 06 01 A8 80  23 29 10 CB F1 06 01 41  .+......#).....A
1990: 1C 21 80 4E 00 DA F1 06  01 1C 06 80 52 12 80 F8  .!.N........R...
19A0: FF FF 7F F8 FF FF 7F 73  30 34 37 45 12 80 F8 FF  .......s047E....
19B0: FF 7F F8 FF FF 7F 73 30  35 31 01 80 2B CB F1 06  ......s051..+...
19C0: 01 A9 80 29 10 CE F1 06  01 02 4B CE F1 06 01 AA  ...)......K.....
19D0: 80 6F 76 CE F1 06 01 23  29 10 CB F1 06 01 42 2A  .ov....#).....B*
19E0: 10 F0 FF FF 7F 52 12 80  F8 FF FF 7F F8 FF FF 7F  .....R..........
19F0: 73 30 35 31 45 12 80 F8  FF FF 7F F8 FF FF 7F 73  s051E..........s
1A00: 30 34 39 01 80 2C CD F1  06 01 CD F1 06 01 77 70  049..,........wp
1A10: 6F 66 2C CE F1 06 01 CE  F1 06 01 77 70 6F 66 2B  of,........wpof+
1A20: CA F1 06 01 AB 80 23 2B  CA F1 06 01 AC 80 23 27  ......#+......#'
1A30: 10 CB F1 06 01 A1 1C 26  80 52 12 80 F8 FF FF 7F  .......&.R......
1A40: F8 FF FF 7F 73 30 34 39  45 12 80 F8 FF FF 7F F8  ....s049E.......
1A50: FF FF 7F 73 30 35 32 01  80 29 10 CE F1 06 01 35  ...s052..).....5
1A60: 5C 00 7B 80 5C 01 7B 80  5C 02 7B 80 5C 03 7B 80  \.{.\.{.\.{.\.{.
1A70: 9A 5D 23 80 03 80 2B CB  F1 06 01 AD 80 4A D2 F1  .]#...+......J..
1A80: 06 01 CB F1 06 01 4A CF  F1 06 01 CB F1 06 01 29  ......J........)
1A90: 10 CD F1 06 01 27 4E 01  D4 F1 06 01 4E 01 D5 F1  .....'N.....N...
1AA0: 06 01 2F 01 D4 F1 06 01  2F 01 D5 F1 06 01 23 2A  ../...../.....#*
1AB0: 10 CB F1 06 01 29 10 CE  F1 06 01 36 52 12 80 F8  .....).....6R...
1AC0: FF FF 7F F8 FF FF 7F 73  30 35 32 45 12 80 F8 FF  .......s052E....
1AD0: FF 7F F8 FF FF 7F 73 30  37 31 01 80 29 10 CE F1  ......s071..)...
1AE0: 06 01 37 2C CD F1 06 01  CD F1 06 01 77 70 6F 6E  ..7,........wpon
1AF0: 2C CE F1 06 01 CE F1 06  01 77 70 6F 6E 6B 69 64  ,........wponkid
1B00: 6C 30 CD F1 06 01 2B CA  F1 06 01 AE 80 23 4A CF  l0....+......#J.
1B10: F1 06 01 CB F1 06 01 29  10 CE F1 06 01 38 29 10  .......).....8).
1B20: CD F1 06 01 28 29 10 CB  F1 06 01 67 1C 1D 80 52  ....().....g...R
1B30: 12 80 F8 FF FF 7F F8 FF  FF 7F 73 30 37 31 45 12  ..........s071E.
1B40: 80 F8 FF FF 7F F8 FF FF  7F 73 30 35 33 01 80 2B  .........s053..+
1B50: CB F1 06 01 AF 80 23 52  12 80 F8 FF FF 7F F8 FF  ......#R........
1B60: FF 7F 73 30 35 33 45 12  80 F8 FF FF 7F F8 FF FF  ..s053E.........
1B70: 7F 73 30 38 39 01 80 45  12 80 F8 FF FF 7F F8 FF  .s089..E........
1B80: FF 7F 35 30 30 34 01 80  2B CB F1 06 01 B0 80 23  ..5004..+......#
1B90: 6F 76 CF F1 06 01 52 12  80 F8 FF FF 7F F8 FF FF  ov....R.........
1BA0: 7F 73 30 38 39 45 12 80  F8 FF FF 7F F8 FF FF 7F  .s089E..........
1BB0: 73 30 35 34 01 80 4A CF  F1 06 01 CA F1 06 01 29  s054..J........)
1BC0: 10 CB F1 06 01 69 2B CA  F1 06 01 B1 80 23 29 10  .....i+......#).
1BD0: CB F1 06 01 6A 6F 76 CF  F1 06 01 1C 7D 80 52 12  ....jov.....}.R.
1BE0: 80 F8 FF FF 7F F8 FF FF  7F 73 30 35 34 45 12 80  .........s054E..
1BF0: F8 FF FF 7F F8 FF FF 7F  73 30 35 35 01 80 29 10  ........s055..).
1C00: CB F1 06 01 59 2B CB F1  06 01 B2 80 29 10 CB F1  ....Y+......)...
1C10: 06 01 5A 29 10 CB F1 06  01 5B 23 2B CB F1 06 01  ..Z).....[#+....
1C20: B3 80 23 1C 1B 80 29 10  CD F1 06 01 2C 52 12 80  ..#...).....,R..
1C30: F8 FF FF 7F F8 FF FF 7F  73 30 35 35 02 09 10 1D  ........s055....
1C40: 80 00 58 1C 45 12 80 F8  FF FF 7F F8 FF FF 7F 73  ..X.E..........s
1C50: 30 38 34 01 80 01 85 1C  02 09 10 1F 80 00 74 1C  084...........t.
1C60: 45 12 80 F8 FF FF 7F F8  FF FF 7F 73 30 38 34 01  E..........s084.
1C70: 80 01 85 1C 45 12 80 F8  FF FF 7F F8 FF FF 7F 73  ....E..........s
1C80: 30 37 35 01 80 7B CB F1  06 01 2B CA F1 06 01 B4  075..{....+.....
1C90: 80 29 10 CB F1 06 01 5C  6B 69 64 6C 30 CB F1 06  .).....\kidl0...
1CA0: 01 4B CB F1 06 01 B5 80  6F 76 CB F1 06 01 29 10  .K......ov....).
1CB0: CB F1 06 01 87 23 29 10  CB F1 06 01 88 29 10 CB  .....#)......)..
1CC0: F1 06 01 89 1C 21 80 02  09 10 1D 80 00 E1 1C 52  .....!.........R
1CD0: 12 80 F8 FF FF 7F F8 FF  FF 7F 73 30 38 34 01 0A  ..........s084..
1CE0: 1D 02 09 10 1F 80 00 FB  1C 52 12 80 F8 FF FF 7F  .........R......
1CF0: F8 FF FF 7F 73 30 38 34  01 0A 1D 52 12 80 F8 FF  ....s084...R....
1D00: FF 7F F8 FF FF 7F 73 30  37 35 45 12 80 F8 FF FF  ......s075E.....
1D10: 7F F8 FF FF 7F 73 30 35  37 01 80 1C 28 80 2B CB  .....s057...(.+.
1D20: F1 06 01 B6 80 BA CE F1  06 01 B7 80 B8 80 B9 80  ................
1D30: BA 80 BA D0 F1 06 01 BB  80 BC 80 BD 80 BA 80 4A  ...............J
1D40: CE F1 06 01 CA F1 06 01  1C 06 80 1C 06 80 1C 06  ................
1D50: 80 1C 06 80 1C 06 80 52  12 80 F8 FF FF 7F F8 FF  .......R........
1D60: FF 7F 73 30 35 37 45 12  80 F8 FF FF 7F F8 FF FF  ..s057E.........
1D70: 7F 73 30 35 36 01 80 45  12 80 C9 F1 06 01 C9 F1  .s056..E........
1D80: 06 01 36 30 30 38 01 80  6F 76 CE F1 06 01 23 29  ..6008..ov....#)
1D90: 10 CB F1 06 01 8A 29 10  CB F1 06 01 8B 1C 06 80  ......).........
1DA0: 52 12 80 F8 FF FF 7F F8  FF FF 7F 73 30 35 36 45  R..........s056E
1DB0: 12 80 F8 FF FF 7F F8 FF  FF 7F 73 30 35 38 01 80  ..........s058..
1DC0: 7B CB F1 06 01 29 10 CB  F1 06 01 8C 2B CB F1 06  {....)......+...
1DD0: 01 BE 80 1C BF 80 33 01  6B 69 64 6C 30 CB F1 06  ......3.kidl0...
1DE0: 01 29 10 CB F1 06 01 A2  1C 05 80 6B 69 64 6C 30  .).........kidl0
1DF0: CB F1 06 01 1C 05 80 4A  CD F1 06 01 CB F1 06 01  .......J........
1E00: 4A CF F1 06 01 CB F1 06  01 4A D2 F1 06 01 CB F1  J........J......
1E10: 06 01 4A D3 F1 06 01 CB  F1 06 01 6C CD F1 06 01  ..J........l....
1E20: 01 80 03 80 6C CF F1 06  01 01 80 03 80 6C D2 F1  ....l........l..
1E30: 06 01 01 80 03 80 6C D3  F1 06 01 01 80 03 80 23  ......l........#
1E40: 27 0F CB F1 06 01 A3 1C  1D 80 52 12 80 F8 FF FF  '.........R.....
1E50: 7F F8 FF FF 7F 73 30 35  38 45 12 80 F8 FF FF 7F  .....s058E......
1E60: F8 FF FF 7F 73 30 37 32  01 80 2A 0F CB F1 06 01  ....s072..*.....
1E70: 29 10 CB F1 06 01 59 2B  CB F1 06 01 C0 80 23 29  ).....Y+......#)
1E80: 10 CB F1 06 01 5A 29 10  CB F1 06 01 5B 2B CB F1  .....Z).....[+..
1E90: 06 01 C1 80 23 29 10 CB  F1 06 01 5C 52 12 80 F8  ....#).....\R...
1EA0: FF FF 7F F8 FF FF 7F 73  30 37 32 45 12 80 F8 FF  .......s072E....
1EB0: FF 7F F8 FF FF 7F 73 30  36 33 01 80 4A CB F1 06  ......s063..J...
1EC0: 01 CA F1 06 01 6F 76 CB  F1 06 01 2C CB F1 06 01  .....ov....,....
1ED0: CB F1 06 01 77 70 6F 6E  2B CA F1 06 01 C2 80 6C  ....wpon+......l
1EE0: CD F1 06 01 1C 80 03 80  6C CF F1 06 01 1C 80 03  ........l.......
1EF0: 80 6C D2 F1 06 01 1C 80  03 80 6C D3 F1 06 01 1C  .l........l.....
1F00: 80 03 80 4E 01 DA F1 06  01 BA D1 F1 06 01 C3 80  ...N............
1F10: C4 80 C5 80 C6 80 4B D0  F1 06 01 C7 80 1C 21 80  ......K.......!.
1F20: 52 12 80 F8 FF FF 7F F8  FF FF 7F 73 30 36 33 45  R..........s063E
1F30: 12 80 F8 FF FF 7F F8 FF  FF 7F 73 30 38 32 01 80  ..........s082..
1F40: 45 12 80 C9 F1 06 01 C9  F1 06 01 6B 65 67 67 01  E..........kegg.
1F50: 80 1C 13 80 23 29 10 CB  F1 06 01 9B 52 12 80 F8  ....#)......R...
1F60: FF FF 7F F8 FF FF 7F 73  30 38 32 45 12 80 F8 FF  .......s082E....
1F70: FF 7F F8 FF FF 7F 73 30  35 39 01 80 45 12 80 C9  ......s059..E...
1F80: F1 06 01 C9 F1 06 01 36  30 30 38 01 80 2B CB F1  .......6008..+..
1F90: 06 01 C8 80 23 52 12 80  F8 FF FF 7F F8 FF FF 7F  ....#R..........
1FA0: 73 30 35 39 45 12 80 F8  FF FF 7F F8 FF FF 7F 73  s059E..........s
1FB0: 30 37 36 01 80 45 12 80  C9 F1 06 01 C9 F1 06 01  076..E..........
1FC0: 6B 65 67 67 01 80 2B CB  F1 06 01 C9 80 23 1C 46  kegg..+......#.F
1FD0: 80 52 12 80 F8 FF FF 7F  F8 FF FF 7F 73 30 37 36  .R..........s076
1FE0: 45 12 80 F8 FF FF 7F F8  FF FF 7F 73 30 36 30 01  E..........s060.
1FF0: 80 6C CD F1 06 01 01 80  03 80 6C CF F1 06 01 01  .l........l.....
2000: 80 03 80 2B CB F1 06 01  CA 80 1C 06 80 6E F0 FF  ...+.........n..
2010: FF 7F 82 80 99 F0 FF FF  7F 29 10 CE F1 06 01 01  .........)......
2020: 1C 7D 80 29 10 D1 F1 06  01 01 1C 7D 80 29 10 D0  .}.).......}.)..
2030: F1 06 01 01 1C 06 80 52  12 80 F8 FF FF 7F F8 FF  .......R........
2040: FF 7F 73 30 36 30 45 12  80 F8 FF FF 7F F8 FF FF  ..s060E.........
2050: 7F 73 30 36 32 01 80 27  10 CA F1 06 01 65 1C 7D  .s062..'.....e.}
2060: 80 79 00 F0 FF FF 7F CA  F1 06 01 4A CB F1 06 01  .y.........J....
2070: C9 F1 06 01 29 10 F0 FF  FF 7F 3A 1C 46 80 6F 76  ....).....:.F.ov
2080: CB F1 06 01 2A 10 CA F1  06 01 23 6C CD F1 06 01  ....*.....#l....
2090: 1C 80 03 80 6C CF F1 06  01 1C 80 03 80 4B CF F1  ....l........K..
20A0: 06 01 CB 80 4B D2 F1 06  01 CC 80 52 12 80 F8 FF  ....K......R....
20B0: FF 7F F8 FF FF 7F 73 30  36 32 45 12 80 F8 FF FF  ......s062E.....
20C0: 7F F8 FF FF 7F 73 30 38  33 01 80 2B CB F1 06 01  .....s083..+....
20D0: CD 80 1C 13 80 23 6F 76  CF F1 06 01 6F 76 D2 F1  .....#ov....ov..
20E0: 06 01 52 12 80 F8 FF FF  7F F8 FF FF 7F 73 30 38  ..R..........s08
20F0: 33 45 12 80 F8 FF FF 7F  F8 FF FF 7F 73 30 36 31  3E..........s061
2100: 01 80 27 10 CB F1 06 01  A4 29 10 D2 F1 06 01 85  ..'......)......
2110: 29 10 CF F1 06 01 85 2B  CB F1 06 01 CE 80 1C CF  )......+........
2120: 80 52 12 80 F8 FF FF 7F  F8 FF FF 7F 73 30 36 31  .R..........s061
2130: 45 12 80 F8 FF FF 7F F8  FF FF 7F 73 30 36 39 01  E..........s069.
2140: 80 5D 01 80 00 80 2A 10  CB F1 06 01 1C 7D 80 45  .]....*......}.E
2150: 12 80 F8 FF FF 7F F8 FF  FF 7F 35 30 30 34 01 80  ..........5004..
2160: 2C CB F1 06 01 C9 F1 06  01 61 74 69 30 1C 04 80  ,........ati0...
2170: 1A B7 01 1C 46 80 23 BA  CB F1 06 01 D0 80 D1 80  ....F.#.........
2180: D2 80 D3 80 BA D1 F1 06  01 D4 80 D5 80 D6 80 D3  ................
2190: 80 6C D1 F1 06 01 01 80  03 80 6C CE F1 06 01 01  .l........l.....
21A0: 80 03 80 6B 69 64 6C 30  D2 F1 06 01 6B 69 64 6C  ...kidl0....kidl
21B0: 30 CF F1 06 01 4A CB F1  06 01 C9 F1 06 01 4A CE  0....J........J.
21C0: F1 06 01 CB F1 06 01 4A  D1 F1 06 01 CB F1 06 01  .......J........
21D0: 4A D0 F1 06 01 CB F1 06  01 6F 76 CB F1 06 01 29  J........ov....)
21E0: 10 CB F1 06 01 9C 29 10  CB F1 06 01 37 52 12 80  ......).....7R..
21F0: F8 FF FF 7F F8 FF FF 7F  73 30 36 39 45 12 80 F8  ........s069E...
2200: FF FF 7F F8 FF FF 7F 73  30 36 34 01 80 1A 96 01  .......s064.....
2210: 45 12 80 F8 FF FF 7F F8  FF FF 7F 34 30 30 32 01  E..........4002.
2220: 80 1C 06 80 45 12 80 F8  FF FF 7F F8 FF FF 7F 34  ....E..........4
2230: 30 30 32 01 80 29 10 CB  F1 06 01 38 2C CB F1 06  002..).....8,...
2240: 01 CB F1 06 01 77 70 6F  66 45 12 80 F8 FF FF 7F  .....wpofE......
2250: F8 FF FF 7F 38 33 32 38  01 80 1C 06 80 4E 00 DA  ....8328.....N..
2260: F1 06 01 1C 06 80 29 08  DA F1 06 01 04 1C 06 80  ......).........
2270: 29 10 CB F1 06 01 43 1C  05 80 52 12 80 F8 FF FF  ).....C...R.....
2280: 7F F8 FF FF 7F 73 30 36  34 45 12 80 F8 FF FF 7F  .....s064E......
2290: F8 FF FF 7F 73 30 37 33  01 80 45 12 80 C9 F1 06  ....s073..E.....
22A0: 01 C9 F1 06 01 36 30 30  38 01 80 1C 46 80 2B CB  .....6008...F.+.
22B0: F1 06 01 D7 80 23 29 10  CB F1 06 01 44 1C 46 80  .....#).....D.F.
22C0: 29 10 CB F1 06 01 45 1C  03 80 52 12 80 F8 FF FF  ).....E...R.....
22D0: 7F F8 FF FF 7F 73 30 37  33 45 12 80 F8 FF FF 7F  .....s073E......
22E0: F8 FF FF 7F 73 30 36 35  01 80 29 10 D2 F1 06 01  ....s065..).....
22F0: 6D 29 10 CF F1 06 01 55  6C CE F1 06 01 1C 80 03  m).....Ul.......
2300: 80 2B CB F1 06 01 D8 80  23 29 10 CB F1 06 01 46  .+......#).....F
2310: 52 12 80 F8 FF FF 7F F8  FF FF 7F 73 30 36 35 45  R..........s065E
2320: 12 80 F8 FF FF 7F F8 FF  FF 7F 73 30 36 36 01 80  ..........s066..
2330: 29 10 CB F1 06 01 47 2B  CB F1 06 01 D9 80 23 29  ).....G+......#)
2340: 10 CB F1 06 01 48 52 12  80 F8 FF FF 7F F8 FF FF  .....HR.........
2350: 7F 73 30 36 36 45 12 80  F8 FF FF 7F F8 FF FF 7F  .s066E..........
2360: 73 30 37 34 01 80 45 12  80 C9 F1 06 01 C9 F1 06  s074..E.........
2370: 01 6B 65 67 67 01 80 5C  00 8C 80 5C 01 8C 80 5C  .kegg..\...\...\
2380: 02 8C 80 5C 03 8C 80 9A  5D 23 80 03 80 29 10 CA  ...\....]#...)..
2390: F1 06 01 59 6B 69 64 6C  30 CB F1 06 01 6B 69 64  ...Ykidl0....kid
23A0: 6C 30 CF F1 06 01 4A CB  F1 06 01 CE F1 06 01 6F  l0....J........o
23B0: 76 CB F1 06 01 6C CF F1  06 01 01 80 03 80 29 10  v....l........).
23C0: CB F1 06 01 7F 4E 01 DA  F1 06 01 1C 05 80 52 12  .....N........R.
23D0: 80 F8 FF FF 7F F8 FF FF  7F 73 30 37 34 45 12 80  .........s074E..
23E0: F8 FF FF 7F F8 FF FF 7F  73 30 37 30 01 80 45 12  ........s070..E.
23F0: 80 C9 F1 06 01 C9 F1 06  01 36 30 30 38 01 80 1C  .........6008...
2400: 06 80 2B CB F1 06 01 DA  80 1C 7D 80 27 10 CD F1  ..+.......}.'...
2410: 06 01 9E 27 10 D3 F1 06  01 9E 27 10 CE F1 06 01  ...'......'.....
2420: A4 27 10 D0 F1 06 01 9E  27 10 D2 F1 06 01 9E 2A  .'......'......*
