# 17232345

## Common Data

| Field            | Value                        |
|------------------|------------------------------|
| Zone             | Beaucedine Glacier (ID: 111) |
| Block Size       | 124 bytes                    |
| Total Events     | 4                            |
| References Count | 11                           |

## List of Events

| Event ID                 | Entrypoint   |   Size |   Instructions |
|--------------------------|--------------|--------|----------------|
| [65535](#event-65535)    | 0x0000       |      1 |              1 |
| [234](#event-234)        | 0x0001       |      1 |              1 |
| [65535.1](#event-655351) | 0x0002       |     32 |              6 |
| [65535.2](#event-655352) | 0x0022       |     14 |              4 |

## DAT References (imed_data)

|   Index | Hex Value   |   Dec Value |
|---------|-------------|-------------|
|       0 | 0xBBE4      |       48100 |
|       1 | 0x13218     |       78360 |
|       2 | 0xFFFFF63C  |  4294964796 |
|       3 | 0x0000      |           0 |
|       4 | 0x00C8      |         200 |
|       5 | 0xBBD0      |       48080 |
|       6 | 0xFFFFFE0C  |  4294966796 |
|       7 | 0x39FD4     |      237524 |
|       8 | 0x38B30     |      232240 |
|       9 | 0x00BA      |         186 |
|      10 | 0x0C17      |        3095 |

## Events

### Event 65535

#### Metadata

| Field        | Value   |
|--------------|---------|
| Entrypoint   | 0x0000  |
| Data Size    | 1 bytes |
| Instructions | 1       |

```
      00 01 02 03 04 05 06 07  08 09 0A 0B 0C 0D 0E 0F
      -- -- -- -- -- -- -- --  -- -- -- -- -- -- -- --
0000: 00                                                .               
```

#### Opcodes

```
  0: 0x0000 [0x00] END_REQSTACK()
```

### Event 234

#### Metadata

| Field        | Value   |
|--------------|---------|
| Entrypoint   | 0x0001  |
| Data Size    | 1 bytes |
| Instructions | 1       |

```
      00 01 02 03 04 05 06 07  08 09 0A 0B 0C 0D 0E 0F
      -- -- -- -- -- -- -- --  -- -- -- -- -- -- -- --
0000:    00                                              .              
```

#### Opcodes

```
  0: 0x0001 [0x00] END_REQSTACK()
```

### Event 65535.1

#### Metadata

| Field        | Value    |
|--------------|----------|
| Entrypoint   | 0x0002   |
| Data Size    | 32 bytes |
| Instructions | 6        |

```
      00 01 02 03 04 05 06 07  08 09 0A 0B 0C 0D 0E 0F
      -- -- -- -- -- -- -- --  -- -- -- -- -- -- -- --
0000:       37 00 80 01 80 02  80 03 80 32 04 80 5A 00    7........2..Z.
0010: 05 80 01 80 06 80 5A 01  37 05 80 01 80 06 80 03  ......Z.7.......
0020: 80 00                                             ..              
```

#### Opcodes

```
  0: 0x0002 [0x37] UPDATE_EVENT_POSITION_AND_DIR: x=48.100*, z=78.360*, y=-2.500*, direction=0.0°*
  1: 0x000B [0x32] ExtData[1]->MainSpeed = 200* * 0.1
  2: 0x000E [0x5A] UPDATE_EVENT_POSITION: Set EventEntity MovePosition to X=48.080*, Z=78.360*, Y=-0.500*
  3: 0x0016 [0x5A] UPDATE_EVENT_POSITION: Move EventEntity incrementally towards MovePosition
  4: 0x0018 [0x37] UPDATE_EVENT_POSITION_AND_DIR: x=48.080*, z=78.360*, y=-0.500*, direction=0.0°*
  5: 0x0021 [0x00] END_REQSTACK()
```

### Event 65535.2

#### Metadata

| Field        | Value    |
|--------------|----------|
| Entrypoint   | 0x0022   |
| Data Size    | 14 bytes |
| Instructions | 4        |

```
      00 01 02 03 04 05 06 07  08 09 0A 0B 0C 0D 0E 0F
      -- -- -- -- -- -- -- --  -- -- -- -- -- -- -- --
0020:       33 01 37 07 80 08  80 09 80 0A 80 22 00 00    3.7........"..
```

#### Opcodes

```
  0: 0x0022 [0x33] EventEntity->Render.Flags0 |= 0x200000 // Bit 21 (flag=0x01)
  1: 0x0024 [0x37] UPDATE_EVENT_POSITION_AND_DIR: x=237.524*, z=232.240*, y=0.186*, direction=272.0°*
  2: 0x002D [0x22] ENTITY_HIDE_FLAG(enabled=0x00)
  3: 0x002F [0x00] END_REQSTACK()
```
