# 17232306 - Goblin Grenadier

## Common Data

| Field            | Value                        |
|------------------|------------------------------|
| Zone             | Beaucedine Glacier (ID: 111) |
| Block Size       | 2912 bytes                   |
| Total Events     | 5                            |
| References Count | 45                           |

## List of Events

| Event ID              | Entrypoint   |   Size |   Instructions |
|-----------------------|--------------|--------|----------------|
| [65535](#event-65535) | 0x0000       |      1 |              1 |
| [506](#event-506)     | 0x0001       |     63 |             20 |
| [507](#event-507)     | 0x0040       |   2459 |            701 |
| [508](#event-508)     | 0x09DB       |    148 |             39 |
| [509](#event-509)     | 0x0A6F       |     24 |             11 |

## DAT References (imed_data)

|   Index | Hex Value   |   Dec Value |
|---------|-------------|-------------|
|       0 | 0x1CF4      |        7412 |
|       1 | 0x0000      |           0 |
|       2 | 0x1CF5      |        7413 |
|       3 | 0x1CF6      |        7414 |
|       4 | 0x1CF7      |        7415 |
|       5 | 0x0001      |           1 |
|       6 | 0x0004      |           4 |
|       7 | 0xFFFEA070  |  4294877296 |
|       8 | 0x2710      |       10000 |
|       9 | 0xFFFFD8F0  |  4294957296 |
|      10 | 0xFFFE5250  |  4294857296 |
|      11 | 0xFFFCCBB0  |  4294757296 |
|      12 | 0x006F      |         111 |
|      13 | 0x0002      |           2 |
|      14 | 0x0003      |           3 |
|      15 | 0x0005      |           5 |
|      16 | 0x0006      |           6 |
|      17 | 0x0007      |           7 |
|      18 | 0x0008      |           8 |
|      19 | 0x1CFA      |        7418 |
|      20 | 0x1CFB      |        7419 |
|      21 | 0x1CFC      |        7420 |
|      22 | 0x1CFD      |        7421 |
|      23 | 0x1CFE      |        7422 |
|      24 | 0x1CFF      |        7423 |
|      25 | 0x1D00      |        7424 |
|      26 | 0x1D01      |        7425 |
|      27 | 0x1D02      |        7426 |
|      28 | 0x1D03      |        7427 |
|      29 | 0x1D04      |        7428 |
|      30 | 0x1D05      |        7429 |
|      31 | 0x1D06      |        7430 |
|      32 | 0x1D07      |        7431 |
|      33 | 0x0078      |         120 |
|      34 | 0x003C      |          60 |
|      35 | 0x1D08      |        7432 |
|      36 | 0x1D09      |        7433 |
|      37 | 0x1D0A      |        7434 |
|      38 | 0x0039      |          57 |
|      39 | 0x005A      |          90 |
|      40 | 0x1D0B      |        7435 |
|      41 | 0x1D0C      |        7436 |
|      42 | 0x1D0D      |        7437 |
|      43 | 0x1CF3      |        7411 |
|      44 | 0x1CF2      |        7410 |

## String References

- **7411**: Yeah, whaddaya w-w-want? You wanna tr-tr-try your hand at the tr-tr-treasure game, ya say? Step r-r-right up and I'll tell ya how it's played!
- **7412**: Ya need'ta hear the r-r-rules? [Sure do!/Already heard 'em.]
- **7413**: Simple g-g-game, simple rules. Unlock treasure chest, get stuff inside. Bring said stuff back to the m-m-moogle emcee. Easy as Goblin pie, no?
- **7414**: But here's the c-c-catch... We've locked the chest with a super-secret m-m-magic number. Ya'll have to visit six spots s-s-scattered around this glacier. Elementals pop up, they m-m-mark the magic number on your $3.
- **7415**: Guess wrong or leave the area, and ya gotta do it all over again. Hey, nobody said this would be e-e-easy! What? I did!? Sh-sh-shut up!
- **7418**: Whaddaya w-w-want? [Nothing./Tell me the rules./Gimme a hint./I'm ready to open the chest.]
- **7419**: Ya really want a h-h-hint? Not smart enough to f-f-figure it out on your own, eh?
- **7420**: Ya s-s-sure? [On second thought, forget it./Hook me up.]
- **7421**: Okay, you're the b-b-boss. The magic number is [five or h-h-higher/l-l-less than five]. If ya can c-c-count that high...
- **7422**: What? Another h-h-hint? Aren't you supposed to be smarter'n us G-G-Gobbies?
- **7423**: Ya really need another hint? [No, not really./Yes, really.]
- **7424**: The magic number is [o-o-odd/e-e-even].
- **7425**: I ain't g-g-got any more hints for ya. Use your own b-b-brains now...if ya got any.
- **7426**: Ya sure ya got the answer? Remember, ya only gets one g-g-guess.
- **7427**: Ready to g-g-guess? [Uh, no./Ready as I'll ever be.]
- **7428**: Enter a single digit between 0 and 9.
- **7429**: Ooh...$0, you s-s-say? Is that your f-f-final answer?
- **7430**: $0? That's your answer? [On second thought.../I'm sure of it!]
- **7431**: $0... [He/She] s-s-says $0, ladies and g-g-gobs! Now it's t-t-time for the moment of truth! Will [he/she] go home a champ, or a ch-ch-chump?
- **7432**: Well, smack my g-g-gob and call me a Goobbue! [He's/She's] done it! [He's/She's] really d-d-done it!
- **7433**: T-t-take this here $3, and bring it back to the moogle for your hard earned r-r-reward! And let's give [him/her] a r-r-rousing round of applause!
- **7434**: Can ya believe it, f-f-folks!? [He/She] landed the loot without needing a single l-l-lousy hint! And for that, we've got a s-s-special prize for [him/her]!
- **7435**: Can ya b-b-believe it, folks!? [He/She] landed the loot with only a single l-l-lousy hint! And for that, we've got a special p-p-prize for [him/her]!
- **7436**: <Bzzzt!>...Ohhhhhh, I'm sorry! Looks like you chose p-p-poorly. As a parting gift, you get...absolutely n-n-nothing. Better luck next t-t-time!
- **7437**: The treasure chest remains tightly sealed.

## Events

### Event 65535

#### Metadata

| Field        | Value   |
|--------------|---------|
| Entrypoint   | 0x0000  |
| Data Size    | 1 bytes |
| Instructions | 1       |

```
      00 01 02 03 04 05 06 07  08 09 0A 0B 0C 0D 0E 0F
      -- -- -- -- -- -- -- --  -- -- -- -- -- -- -- --
0000: 00                                                .               
```

#### Opcodes

```
  0: 0x0000 [0x00] END_REQSTACK()
```

### Event 506

#### Metadata

| Field        | Value    |
|--------------|----------|
| Entrypoint   | 0x0001   |
| Data Size    | 63 bytes |
| Instructions | 20       |

```
      00 01 02 03 04 05 06 07  08 09 0A 0B 0C 0D 0E 0F
      -- -- -- -- -- -- -- --  -- -- -- -- -- -- -- --
0000:    20 01 1E F0 FF FF 7F  6F 70 03 00 00 02 10 24    ......op.....$
0010: 00 80 01 80 01 80 25 02  00 10 01 80 00 33 00 1D  ......%......3..
0020: 02 80 23 03 02 10 00 00  1D 03 80 23 1D 04 80 23  ..#........#...#
0030: 01 3E 00 02 00 10 05 80  00 3E 00 01 3E 00 21 00  .>.......>..>.!.
```

#### Opcodes

```
  0: 0x0001 [0x20] SET_CLI_EVENT_UC_FLAG: Lock player control
  1: 0x0003 [0x1E] EventEntity looks at LocalPlayer and starts talking
  2: 0x0008 [0x6F] WAIT_FRAME_DELAY: Yield until WaitTime reaches zero
  3: 0x0009 [0x70] WAIT_ENTITY_RENDER_FLAG: Wait while EventEntity->Render.Flags3 bit 2 is set (cancel turn if not)
  4: 0x000A [0x03] ExtData[1]->WorkLocal[0] = Work_Zone[2]
  5: 0x000F [0x24] CREATE_DIALOG(message_id=7412*, default_option=0*, option_flags=0*)
    → "Ya need'ta hear the r-r-rules? [Sure do!/Already heard 'em.]"
  6: 0x0016 [0x25] WAIT_DIALOG_SELECT()
  7: 0x0017 [0x02] IF !(Work_Zone[0] == 0*) GOTO 0x0033
  8: 0x001F [0x1D] PRINT_EVENT_MESSAGE(message_id=7413*)
    → "Simple g-g-game, simple rules. Unlock treasure chest, get stuff inside. Bring said stuff back to the m-m-moogle emcee. Easy as Goblin pie, no?"
  9: 0x0022 [0x23] WAIT_FOR_DIALOG_INTERACTION
 10: 0x0023 [0x03] Work_Zone[2] = ExtData[1]->WorkLocal[0]
 11: 0x0028 [0x1D] PRINT_EVENT_MESSAGE(message_id=7414*)
    → "But here's the c-c-catch... We've locked the chest with a super-secret m-m-magic number. Ya'll have to visit six spots s-s-scattered around this glacier. Elementals pop up, they m-m-mark the magic number on your $3."
 12: 0x002B [0x23] WAIT_FOR_DIALOG_INTERACTION
 13: 0x002C [0x1D] PRINT_EVENT_MESSAGE(message_id=7415*)
    → "Guess wrong or leave the area, and ya gotta do it all over again. Hey, nobody said this would be e-e-easy! What? I did!? Sh-sh-shut up!"
 14: 0x002F [0x23] WAIT_FOR_DIALOG_INTERACTION
 15: 0x0030 [0x01] GOTO 0x003E
 16: 0x0033 [0x02] IF !(Work_Zone[0] == 1*) GOTO 0x003E
 17: 0x003B [0x01] GOTO 0x003E

SUBROUTINE_003E:
 18: 0x003E [0x21] END_EVENT
 19: 0x003F [0x00] END_REQSTACK()
```

### Event 507

#### Metadata

| Field        | Value      |
|--------------|------------|
| Entrypoint   | 0x0040     |
| Data Size    | 2459 bytes |
| Instructions | 117        |

```
      00 01 02 03 04 05 06 07  08 09 0A 0B 0C 0D 0E 0F
      -- -- -- -- -- -- -- --  -- -- -- -- -- -- -- --
0040: 20 01 42 1E F0 FF FF 7F  6F 70 03 01 00 02 10 03   .B.....op......
0050: 02 00 03 10 03 05 00 04  10 03 06 00 05 10 03 00  ................
0060: 00 06 10 03 01 10 06 80  43 00 43 01 03 07 00 02  ........C.C.....
0070: 10 03 08 00 03 10 03 09  00 04 10 03 0A 00 05 10  ................
0080: 03 0B 00 06 10 03 0C 00  07 10 03 0D 00 07 80 03  ................
0090: 0E 00 08 80 03 0F 00 09  80 03 10 00 0A 80 03 11  ................
00A0: 00 0B 80 02 07 00 01 80  01 CB 01 02 07 00 05 80  ................
00B0: 80 CF 00 8B 0C 80 01 80  0D 00 0F 00 46 69 72 65  ............Fire
00C0: 00 00 00 00 00 00 00 00  00 00 00 00 01 CB 01 02  ................
00D0: 07 00 0D 80 80 F3 00 8B  0C 80 01 80 0D 00 0F 00  ................
00E0: 45 61 72 74 68 00 00 00  00 00 00 00 00 00 00 00  Earth...........
00F0: 01 CB 01 02 07 00 0E 80  80 17 01 8B 0C 80 01 80  ................
0100: 0D 00 0F 00 57 61 74 65  72 00 00 00 00 00 00 00  ....Water.......
0110: 00 00 00 00 01 CB 01 02  07 00 06 80 80 3B 01 8B  .............;..
0120: 0C 80 01 80 0D 00 0F 00  57 69 6E 64 00 00 00 00  ........Wind....
0130: 00 00 00 00 00 00 00 00  01 CB 01 02 07 00 0F 80  ................
0140: 80 5F 01 8B 0C 80 01 80  0D 00 0F 00 49 63 65 00  ._..........Ice.
0150: 00 00 00 00 00 00 00 00  00 00 00 00 01 CB 01 02  ................
0160: 07 00 10 80 80 83 01 8B  0C 80 01 80 0D 00 0F 00  ................
0170: 4C 69 67 68 74 6E 69 6E  67 00 00 00 00 00 00 00  Lightning.......
0180: 01 CB 01 02 07 00 11 80  80 A7 01 8B 0C 80 01 80  ................
0190: 0D 00 0F 00 4C 69 67 68  74 00 00 00 00 00 00 00  ....Light.......
01A0: 00 00 00 00 01 CB 01 02  07 00 12 80 80 CB 01 8B  ................
01B0: 0C 80 01 80 0D 00 0F 00  44 61 72 6B 00 00 00 00  ........Dark....
01C0: 00 00 00 00 00 00 00 00  01 CB 01 02 08 00 01 80  ................
01D0: 01 F3 02 02 08 00 05 80  80 F7 01 8B 0C 80 05 80  ................
01E0: 0D 00 10 00 46 69 72 65  00 00 00 00 00 00 00 00  ....Fire........
01F0: 00 00 00 00 01 F3 02 02  08 00 0D 80 80 1B 02 8B  ................
0200: 0C 80 05 80 0D 00 10 00  45 61 72 74 68 00 00 00  ........Earth...
0210: 00 00 00 00 00 00 00 00  01 F3 02 02 08 00 0E 80  ................
0220: 80 3F 02 8B 0C 80 05 80  0D 00 10 00 57 61 74 65  .?..........Wate
0230: 72 00 00 00 00 00 00 00  00 00 00 00 01 F3 02 02  r...............
0240: 08 00 06 80 80 63 02 8B  0C 80 05 80 0D 00 10 00  .....c..........
0250: 57 69 6E 64 00 00 00 00  00 00 00 00 00 00 00 00  Wind............
0260: 01 F3 02 02 08 00 0F 80  80 87 02 8B 0C 80 05 80  ................
0270: 0D 00 10 00 49 63 65 00  00 00 00 00 00 00 00 00  ....Ice.........
0280: 00 00 00 00 01 F3 02 02  08 00 10 80 80 AB 02 8B  ................
0290: 0C 80 05 80 0D 00 10 00  4C 69 67 68 74 6E 69 6E  ........Lightnin
02A0: 67 00 00 00 00 00 00 00  01 F3 02 02 08 00 11 80  g...............
02B0: 80 CF 02 8B 0C 80 05 80  0D 00 10 00 4C 69 67 68  ............Ligh
02C0: 74 00 00 00 00 00 00 00  00 00 00 00 01 F3 02 02  t...............
02D0: 08 00 12 80 80 F3 02 8B  0C 80 05 80 0D 00 10 00  ................
02E0: 44 61 72 6B 00 00 00 00  00 00 00 00 00 00 00 00  Dark............
02F0: 01 F3 02 02 09 00 01 80  01 1B 04 02 09 00 05 80  ................
0300: 80 1F 03 8B 0C 80 0D 80  0D 00 11 00 46 69 72 65  ............Fire
0310: 00 00 00 00 00 00 00 00  00 00 00 00 01 1B 04 02  ................
0320: 09 00 0D 80 80 43 03 8B  0C 80 0D 80 0D 00 11 00  .....C..........
0330: 45 61 72 74 68 00 00 00  00 00 00 00 00 00 00 00  Earth...........
0340: 01 1B 04 02 09 00 0E 80  80 67 03 8B 0C 80 0D 80  .........g......
0350: 0D 00 11 00 57 61 74 65  72 00 00 00 00 00 00 00  ....Water.......
0360: 00 00 00 00 01 1B 04 02  09 00 06 80 80 8B 03 8B  ................
0370: 0C 80 0D 80 0D 00 11 00  57 69 6E 64 00 00 00 00  ........Wind....
0380: 00 00 00 00 00 00 00 00  01 1B 04 02 09 00 0F 80  ................
0390: 80 AF 03 8B 0C 80 0D 80  0D 00 11 00 49 63 65 00  ............Ice.
03A0: 00 00 00 00 00 00 00 00  00 00 00 00 01 1B 04 02  ................
03B0: 09 00 10 80 80 D3 03 8B  0C 80 0D 80 0D 00 11 00  ................
03C0: 4C 69 67 68 74 6E 69 6E  67 00 00 00 00 00 00 00  Lightning.......
03D0: 01 1B 04 02 09 00 11 80  80 F7 03 8B 0C 80 0D 80  ................
03E0: 0D 00 11 00 4C 69 67 68  74 00 00 00 00 00 00 00  ....Light.......
03F0: 00 00 00 00 01 1B 04 02  09 00 12 80 80 1B 04 8B  ................
0400: 0C 80 0D 80 0D 00 11 00  44 61 72 6B 00 00 00 00  ........Dark....
0410: 00 00 00 00 00 00 00 00  01 1B 04 02 0A 00 01 80  ................
0420: 01 43 05 02 0A 00 05 80  80 47 04 8B 0C 80 0E 80  .C.......G......
0430: 0E 00 0F 00 46 69 72 65  00 00 00 00 00 00 00 00  ....Fire........
0440: 00 00 00 00 01 43 05 02  0A 00 0D 80 80 6B 04 8B  .....C.......k..
0450: 0C 80 0E 80 0E 00 0F 00  45 61 72 74 68 00 00 00  ........Earth...
0460: 00 00 00 00 00 00 00 00  01 43 05 02 0A 00 0E 80  .........C......
0470: 80 8F 04 8B 0C 80 0E 80  0E 00 0F 00 57 61 74 65  ............Wate
0480: 72 00 00 00 00 00 00 00  00 00 00 00 01 43 05 02  r............C..
0490: 0A 00 06 80 80 B3 04 8B  0C 80 0E 80 0E 00 0F 00  ................
04A0: 57 69 6E 64 00 00 00 00  00 00 00 00 00 00 00 00  Wind............
04B0: 01 43 05 02 0A 00 0F 80  80 D7 04 8B 0C 80 0E 80  .C..............
04C0: 0E 00 0F 00 49 63 65 00  00 00 00 00 00 00 00 00  ....Ice.........
04D0: 00 00 00 00 01 43 05 02  0A 00 10 80 80 FB 04 8B  .....C..........
04E0: 0C 80 0E 80 0E 00 0F 00  4C 69 67 68 74 6E 69 6E  ........Lightnin
04F0: 67 00 00 00 00 00 00 00  01 43 05 02 0A 00 11 80  g........C......
0500: 80 1F 05 8B 0C 80 0E 80  0E 00 0F 00 4C 69 67 68  ............Ligh
0510: 74 00 00 00 00 00 00 00  00 00 00 00 01 43 05 02  t............C..
0520: 0A 00 12 80 80 43 05 8B  0C 80 0E 80 0E 00 0F 00  .....C..........
0530: 44 61 72 6B 00 00 00 00  00 00 00 00 00 00 00 00  Dark............
0540: 01 43 05 02 0B 00 01 80  01 6B 06 02 0B 00 05 80  .C.......k......
0550: 80 6F 05 8B 0C 80 06 80  0E 00 10 00 46 69 72 65  .o..........Fire
0560: 00 00 00 00 00 00 00 00  00 00 00 00 01 6B 06 02  .............k..
0570: 0B 00 0D 80 80 93 05 8B  0C 80 06 80 0E 00 10 00  ................
0580: 45 61 72 74 68 00 00 00  00 00 00 00 00 00 00 00  Earth...........
0590: 01 6B 06 02 0B 00 0E 80  80 B7 05 8B 0C 80 06 80  .k..............
05A0: 0E 00 10 00 57 61 74 65  72 00 00 00 00 00 00 00  ....Water.......
05B0: 00 00 00 00 01 6B 06 02  0B 00 06 80 80 DB 05 8B  .....k..........
05C0: 0C 80 06 80 0E 00 10 00  57 69 6E 64 00 00 00 00  ........Wind....
05D0: 00 00 00 00 00 00 00 00  01 6B 06 02 0B 00 0F 80  .........k......
05E0: 80 FF 05 8B 0C 80 06 80  0E 00 10 00 49 63 65 00  ............Ice.
05F0: 00 00 00 00 00 00 00 00  00 00 00 00 01 6B 06 02  .............k..
0600: 0B 00 10 80 80 23 06 8B  0C 80 06 80 0E 00 10 00  .....#..........
0610: 4C 69 67 68 74 6E 69 6E  67 00 00 00 00 00 00 00  Lightning.......
0620: 01 6B 06 02 0B 00 11 80  80 47 06 8B 0C 80 06 80  .k.......G......
0630: 0E 00 10 00 4C 69 67 68  74 00 00 00 00 00 00 00  ....Light.......
0640: 00 00 00 00 01 6B 06 02  0B 00 12 80 80 6B 06 8B  .....k.......k..
0650: 0C 80 06 80 0E 00 10 00  44 61 72 6B 00 00 00 00  ........Dark....
0660: 00 00 00 00 00 00 00 00  01 6B 06 02 0C 00 01 80  .........k......
0670: 01 93 07 02 0C 00 05 80  80 97 06 8B 0C 80 0F 80  ................
0680: 0E 00 11 00 46 69 72 65  00 00 00 00 00 00 00 00  ....Fire........
0690: 00 00 00 00 01 93 07 02  0C 00 0D 80 80 BB 06 8B  ................
06A0: 0C 80 0F 80 0E 00 11 00  45 61 72 74 68 00 00 00  ........Earth...
06B0: 00 00 00 00 00 00 00 00  01 93 07 02 0C 00 0E 80  ................
06C0: 80 DF 06 8B 0C 80 0F 80  0E 00 11 00 57 61 74 65  ............Wate
06D0: 72 00 00 00 00 00 00 00  00 00 00 00 01 93 07 02  r...............
06E0: 0C 00 06 80 80 03 07 8B  0C 80 0F 80 0E 00 11 00  ................
06F0: 57 69 6E 64 00 00 00 00  00 00 00 00 00 00 00 00  Wind............
0700: 01 93 07 02 0C 00 0F 80  80 27 07 8B 0C 80 0F 80  .........'......
0710: 0E 00 11 00 49 63 65 00  00 00 00 00 00 00 00 00  ....Ice.........
0720: 00 00 00 00 01 93 07 02  0C 00 10 80 80 4B 07 8B  .............K..
0730: 0C 80 0F 80 0E 00 11 00  4C 69 67 68 74 6E 69 6E  ........Lightnin
0740: 67 00 00 00 00 00 00 00  01 93 07 02 0C 00 11 80  g...............
0750: 80 6F 07 8B 0C 80 0F 80  0E 00 11 00 4C 69 67 68  .o..........Ligh
0760: 74 00 00 00 00 00 00 00  00 00 00 00 01 93 07 02  t...............
0770: 0C 00 12 80 80 93 07 8B  0C 80 0F 80 0E 00 11 00  ................
0780: 44 61 72 6B 00 00 00 00  00 00 00 00 00 00 00 00  Dark............
0790: 01 93 07 1E F0 FF FF 7F  6F 70 24 13 80 01 80 01  ........op$.....
07A0: 80 25 02 00 10 01 80 00  AE 07 21 01 D9 09 02 00  .%........!.....
07B0: 10 05 80 00 CB 07 1D 02  80 23 03 02 10 00 00 1D  .........#......
07C0: 03 80 23 1D 04 80 23 21  01 D9 09 02 00 10 0D 80  ..#...#!........
07D0: 00 8C 08 02 01 00 0D 80  80 23 08 1D 14 80 23 24  .........#....#$
07E0: 15 80 01 80 01 80 25 02  00 10 01 80 00 F3 07 21  ......%........!
07F0: 01 20 08 02 00 10 05 80  00 20 08 03 01 10 05 80  . ....... ......
0800: 43 00 43 01 02 02 00 0F  80 04 14 08 03 02 10 01  C.C.............
0810: 80 01 19 08 03 02 10 05  80 1D 16 80 23 01 20 08  ............#. .
0820: 01 89 08 02 01 00 0E 80  80 7A 08 1D 17 80 23 24  .........z....#$
0830: 18 80 01 80 01 80 25 02  00 10 01 80 00 43 08 21  ......%......C.!
0840: 01 77 08 02 00 10 05 80  00 77 08 03 01 10 0D 80  .w.......w......
0850: 43 00 43 01 3F 04 00 02  00 0D 80 02 04 00 01 80  C.C.?...........
0860: 00 6B 08 03 02 10 05 80  01 70 08 03 02 10 01 80  .k.......p......
0870: 1D 19 80 23 01 77 08 01  89 08 02 01 00 06 80 80  ...#.w..........
0880: 89 08 1D 1A 80 23 01 89  08 01 D9 09 02 00 10 0E  .....#..........
0890: 80 00 D9 09 1D 1B 80 23  24 1C 80 01 80 01 80 25  .......#$......%
08A0: 02 00 10 01 80 00 AC 08  21 01 D6 09 02 00 10 05  ........!.......
08B0: 80 00 D6 09 48 1D 80 23  71 12 05 80 05 80 71 13  ....H..#q.....q.
08C0: 03 00 03 02 10 03 00 1D  1E 80 23 24 1F 80 01 80  ..........#$....
08D0: 01 80 25 02 00 10 01 80  00 DF 08 21 01 D3 09 02  ..%........!....
08E0: 00 10 05 80 00 D3 09 03  02 10 03 00 03 03 10 05  ................
08F0: 00 1D 20 80 23 02 03 00  02 00 00 83 09 4A B2 F1  .. .#........J..
0900: 06 01 B1 F1 06 01 1C 21  80 27 80 B1 F1 06 01 02  .......!.'......
0910: 1C 22 80 4A B2 F1 06 01  F0 FF FF 7F 1C 21 80 1D  .".J.........!..
0920: 23 80 23 03 02 10 06 00  1D 24 80 23 02 01 00 0D  #.#......$.#....
0930: 80 80 4E 09 1D 25 80 23  73 26 80 B2 F1 06 01 F0  ..N..%.#s&......
0940: FF FF 7F 1C 27 80 03 01  10 0F 80 01 80 09 02 01  ....'...........
0950: 00 0E 80 80 70 09 1D 28  80 23 73 26 80 B2 F1 06  ....p..(.#s&....
0960: 01 F0 FF FF 7F 1C 27 80  03 01 10 10 80 01 80 09  ......'.........
0970: 02 01 00 06 80 80 80 09  03 01 10 11 80 01 80 09  ................
0980: 01 AC 09 4A B2 F1 06 01  B1 F1 06 01 1C 21 80 4A  ...J.........!.J
0990: B2 F1 06 01 F0 FF FF 7F  1C 22 80 03 01 10 0E 80  ........."......
09A0: 43 00 43 01 1D 29 80 23  48 2A 80 23 A8 00 0C 80  C.C..).#H*.#....
09B0: 01 80 A8 00 0C 80 05 80  A8 00 0C 80 0D 80 A8 00  ................
09C0: 0C 80 0E 80 A8 00 0C 80  06 80 A8 00 0C 80 0F 80  ................
09D0: 01 D3 09 01 D6 09 01 D9  09 21 00                 .........!.     
```

#### Opcodes

```
  0: 0x0040 [0x20] SET_CLI_EVENT_UC_FLAG: Lock player control
  1: 0x0042 [0x42] SET_CLI_EVENT_CANCEL_DATA()
  2: 0x0043 [0x1E] EventEntity looks at LocalPlayer and starts talking
  3: 0x0048 [0x6F] WAIT_FRAME_DELAY: Yield until WaitTime reaches zero
  4: 0x0049 [0x70] WAIT_ENTITY_RENDER_FLAG: Wait while EventEntity->Render.Flags3 bit 2 is set (cancel turn if not)
  5: 0x004A [0x03] ExtData[1]->WorkLocal[1] = Work_Zone[2]
  6: 0x004F [0x03] ExtData[1]->WorkLocal[2] = Work_Zone[3]
  7: 0x0054 [0x03] ExtData[1]->WorkLocal[5] = Work_Zone[4]
  8: 0x0059 [0x03] ExtData[1]->WorkLocal[6] = Work_Zone[5]
  9: 0x005E [0x03] ExtData[1]->WorkLocal[0] = Work_Zone[6]
 10: 0x0063 [0x03] Work_Zone[1] = 4*
 11: 0x0068 [0x43] SEND_EVENT_UPDATE: Send pending tag to server (packet 0x005B)
 12: 0x006A [0x43] SEND_EVENT_UPDATE: Check pending flag (skip if not pending)
 13: 0x006C [0x03] ExtData[1]->WorkLocal[7] = Work_Zone[2]
 14: 0x0071 [0x03] ExtData[1]->WorkLocal[8] = Work_Zone[3]
 15: 0x0076 [0x03] ExtData[1]->WorkLocal[9] = Work_Zone[4]
 16: 0x007B [0x03] ExtData[1]->WorkLocal[10] = Work_Zone[5]
 17: 0x0080 [0x03] ExtData[1]->WorkLocal[11] = Work_Zone[6]
 18: 0x0085 [0x03] ExtData[1]->WorkLocal[12] = Work_Zone[7]
 19: 0x008A [0x03] ExtData[1]->WorkLocal[13] = 4294877296*
 20: 0x008F [0x03] ExtData[1]->WorkLocal[14] = 10000*
 21: 0x0094 [0x03] ExtData[1]->WorkLocal[15] = 4294957296*
 22: 0x0099 [0x03] ExtData[1]->WorkLocal[16] = 4294857296*
 23: 0x009E [0x03] ExtData[1]->WorkLocal[17] = 4294757296*
 24: 0x00A3 [0x02] IF !(ExtData[1]->WorkLocal[7] == 0*) GOTO 0x01CB
 25: 0x00AB [0x02] IF !(ExtData[1]->WorkLocal[7] == 1*) GOTO 0x00CF
 26: 0x00B3 [0x8B] SET_EVENT_MARK: Add/update map marker on map 111* at (ExtData[1]->WorkLocal[13], ExtData[1]->WorkLocal[15]), index=0*, name=(no name)
 27: 0x00BC [0x46] CAMERA_CONTROL: Unknown mode 0x69
 28: 0x00BE [0x72] LOAD_EVENT_WEATHER: Unknown mode 101, weather_id=ExtData[1]->WorkLocal[0]
 29: 0x00C2 [0x00] END_REQSTACK()

SUBROUTINE_01CB:
 30: 0x01CB [0x02] IF !(ExtData[1]->WorkLocal[8] == 0*) GOTO 0x02F3
 31: 0x01D3 [0x02] IF !(ExtData[1]->WorkLocal[8] == 1*) GOTO 0x01F7
 32: 0x01DB [0x8B] SET_EVENT_MARK: Add/update map marker on map 111* at (ExtData[1]->WorkLocal[13], ExtData[1]->WorkLocal[16]), index=1*, name=(no name)
 33: 0x01E4 [0x46] CAMERA_CONTROL: Unknown mode 0x69
 34: 0x01E6 [0x72] LOAD_EVENT_WEATHER: Unknown mode 101, weather_id=ExtData[1]->WorkLocal[0]
 35: 0x01EA [0x00] END_REQSTACK()

SUBROUTINE_02F3:
 36: 0x02F3 [0x02] IF !(ExtData[1]->WorkLocal[9] == 0*) GOTO 0x041B
 37: 0x02FB [0x02] IF !(ExtData[1]->WorkLocal[9] == 1*) GOTO 0x031F
 38: 0x0303 [0x8B] SET_EVENT_MARK: Add/update map marker on map 111* at (ExtData[1]->WorkLocal[13], ExtData[1]->WorkLocal[17]), index=2*, name=(no name)
 39: 0x030C [0x46] CAMERA_CONTROL: Unknown mode 0x69
 40: 0x030E [0x72] LOAD_EVENT_WEATHER: Unknown mode 101, weather_id=ExtData[1]->WorkLocal[0]
 41: 0x0312 [0x00] END_REQSTACK()

SUBROUTINE_041B:
 42: 0x041B [0x02] IF !(ExtData[1]->WorkLocal[10] == 0*) GOTO 0x0543
 43: 0x0423 [0x02] IF !(ExtData[1]->WorkLocal[10] == 1*) GOTO 0x0447
 44: 0x042B [0x8B] SET_EVENT_MARK: Add/update map marker on map 111* at (ExtData[1]->WorkLocal[14], ExtData[1]->WorkLocal[15]), index=3*, name=(no name)
 45: 0x0434 [0x46] CAMERA_CONTROL: Unknown mode 0x69
 46: 0x0436 [0x72] LOAD_EVENT_WEATHER: Unknown mode 101, weather_id=ExtData[1]->WorkLocal[0]
 47: 0x043A [0x00] END_REQSTACK()

SUBROUTINE_0543:
 48: 0x0543 [0x02] IF !(ExtData[1]->WorkLocal[11] == 0*) GOTO 0x066B
 49: 0x054B [0x02] IF !(ExtData[1]->WorkLocal[11] == 1*) GOTO 0x056F
 50: 0x0553 [0x8B] SET_EVENT_MARK: Add/update map marker on map 111* at (ExtData[1]->WorkLocal[14], ExtData[1]->WorkLocal[16]), index=4*, name=(no name)
 51: 0x055C [0x46] CAMERA_CONTROL: Unknown mode 0x69
 52: 0x055E [0x72] LOAD_EVENT_WEATHER: Unknown mode 101, weather_id=ExtData[1]->WorkLocal[0]
 53: 0x0562 [0x00] END_REQSTACK()

SUBROUTINE_066B:
 54: 0x066B [0x02] IF !(ExtData[1]->WorkLocal[12] == 0*) GOTO 0x0793
 55: 0x0673 [0x02] IF !(ExtData[1]->WorkLocal[12] == 1*) GOTO 0x0697
 56: 0x067B [0x8B] SET_EVENT_MARK: Add/update map marker on map 111* at (ExtData[1]->WorkLocal[14], ExtData[1]->WorkLocal[17]), index=5*, name=(no name)
 57: 0x0684 [0x46] CAMERA_CONTROL: Unknown mode 0x69
 58: 0x0686 [0x72] LOAD_EVENT_WEATHER: Unknown mode 101, weather_id=ExtData[1]->WorkLocal[0]
 59: 0x068A [0x00] END_REQSTACK()

SUBROUTINE_0793:
 60: 0x0793 [0x1E] EventEntity looks at LocalPlayer and starts talking
 61: 0x0798 [0x6F] WAIT_FRAME_DELAY: Yield until WaitTime reaches zero
 62: 0x0799 [0x70] WAIT_ENTITY_RENDER_FLAG: Wait while EventEntity->Render.Flags3 bit 2 is set (cancel turn if not)
 63: 0x079A [0x24] CREATE_DIALOG(message_id=7418*, default_option=0*, option_flags=0*)
    → "Whaddaya w-w-want? [Nothing./Tell me the rules./Gimme a hint./I'm ready to open the chest.]"
 64: 0x07A1 [0x25] WAIT_DIALOG_SELECT()
 65: 0x07A2 [0x02] IF !(Work_Zone[0] == 0*) GOTO 0x07AE
 66: 0x07AA [0x21] END_EVENT

SUBROUTINE_0819:
 67: 0x0819 [0x1D] PRINT_EVENT_MESSAGE(message_id=7421*)
    → "Okay, you're the b-b-boss. The magic number is [five or h-h-higher/l-l-less than five]. If ya can c-c-count that high..."
 68: 0x081C [0x23] WAIT_FOR_DIALOG_INTERACTION
 69: 0x081D [0x01] GOTO 0x0820

SUBROUTINE_0820:
 70: 0x0820 [0x01] GOTO 0x0889
 71: 0x0823 [0x02] IF !(ExtData[1]->WorkLocal[1] == 3*) GOTO 0x087A
 72: 0x082B [0x1D] PRINT_EVENT_MESSAGE(message_id=7422*)
    → "What? Another h-h-hint? Aren't you supposed to be smarter'n us G-G-Gobbies?"
 73: 0x082E [0x23] WAIT_FOR_DIALOG_INTERACTION
 74: 0x082F [0x24] CREATE_DIALOG(message_id=7423*, default_option=0*, option_flags=0*)
    → "Ya really need another hint? [No, not really./Yes, really.]"
 75: 0x0836 [0x25] WAIT_DIALOG_SELECT()
 76: 0x0837 [0x02] IF !(Work_Zone[0] == 0*) GOTO 0x0843
 77: 0x083F [0x21] END_EVENT

SUBROUTINE_0870:
 78: 0x0870 [0x1D] PRINT_EVENT_MESSAGE(message_id=7424*)
    → "The magic number is [o-o-odd/e-e-even]."
 79: 0x0873 [0x23] WAIT_FOR_DIALOG_INTERACTION
 80: 0x0874 [0x01] GOTO 0x0877

SUBROUTINE_0877:
 81: 0x0877 [0x01] GOTO 0x0889
 82: 0x087A [0x02] IF !(ExtData[1]->WorkLocal[1] == 4*) GOTO 0x0889
 83: 0x0882 [0x1D] PRINT_EVENT_MESSAGE(message_id=7425*)
    → "I ain't g-g-got any more hints for ya. Use your own b-b-brains now...if ya got any."
 84: 0x0885 [0x23] WAIT_FOR_DIALOG_INTERACTION
 85: 0x0886 [0x01] GOTO 0x0889

SUBROUTINE_0889:
 86: 0x0889 [0x01] GOTO 0x09D9
 87: 0x088C [0x02] IF !(Work_Zone[0] == 3*) GOTO 0x09D9
 88: 0x0894 [0x1D] PRINT_EVENT_MESSAGE(message_id=7426*)
    → "Ya sure ya got the answer? Remember, ya only gets one g-g-guess."
 89: 0x0897 [0x23] WAIT_FOR_DIALOG_INTERACTION
 90: 0x0898 [0x24] CREATE_DIALOG(message_id=7427*, default_option=0*, option_flags=0*)
    → "Ready to g-g-guess? [Uh, no./Ready as I'll ever be.]"
 91: 0x089F [0x25] WAIT_DIALOG_SELECT()
 92: 0x08A0 [0x02] IF !(Work_Zone[0] == 0*) GOTO 0x08AC
 93: 0x08A8 [0x21] END_EVENT

SUBROUTINE_0980:
 94: 0x0980 [0x01] GOTO 0x09AC
 95: 0x0983 [0x4A] Goblin Grenadier (ID: 17232306/0x0106F1B2) looks at Unnamed NPC (ID: 17232305/0x0106F1B1)
 96: 0x098C [0x1C] WAIT(120* ticks)
 97: 0x098F [0x4A] Goblin Grenadier (ID: 17232306/0x0106F1B2) looks at LocalPlayer
 98: 0x0998 [0x1C] WAIT(60* ticks)
 99: 0x099B [0x03] Work_Zone[1] = 3*
100: 0x09A0 [0x43] SEND_EVENT_UPDATE: Send pending tag to server (packet 0x005B)
101: 0x09A2 [0x43] SEND_EVENT_UPDATE: Check pending flag (skip if not pending)
102: 0x09A4 [0x1D] PRINT_EVENT_MESSAGE(message_id=7436*)
    → "<Bzzzt!>...Ohhhhhh, I'm sorry! Looks like you chose p-p-poorly. As a parting gift, you get...absolutely n-n-nothing. Better luck next t-t-time!"
103: 0x09A7 [0x23] WAIT_FOR_DIALOG_INTERACTION
104: 0x09A8 [0x48] [System] [7437*]:
    → "The treasure chest remains tightly sealed."
105: 0x09AB [0x23] WAIT_FOR_DIALOG_INTERACTION

SUBROUTINE_09AC:
106: 0x09AC [0xA8] MAP_MARKER_CONTROL: Reset/unlock markers (no map display), zone=111*, marker=0*
107: 0x09B2 [0xA8] MAP_MARKER_CONTROL: Reset/unlock markers (no map display), zone=111*, marker=1*
108: 0x09B8 [0xA8] MAP_MARKER_CONTROL: Reset/unlock markers (no map display), zone=111*, marker=2*
109: 0x09BE [0xA8] MAP_MARKER_CONTROL: Reset/unlock markers (no map display), zone=111*, marker=3*
110: 0x09C4 [0xA8] MAP_MARKER_CONTROL: Reset/unlock markers (no map display), zone=111*, marker=4*
111: 0x09CA [0xA8] MAP_MARKER_CONTROL: Reset/unlock markers (no map display), zone=111*, marker=5*
112: 0x09D0 [0x01] GOTO 0x09D3

SUBROUTINE_09D3:
113: 0x09D3 [0x01] GOTO 0x09D6

SUBROUTINE_09D6:
114: 0x09D6 [0x01] GOTO 0x09D9

SUBROUTINE_09D9:
115: 0x09D9 [0x21] END_EVENT
116: 0x09DA [0x00] END_REQSTACK()
```

#### Data or dead code:

```
# Dead code (unreachable instructions):
     0x00C3 [0x00] END_REQSTACK()
     0x00C4 [0x00] END_REQSTACK()
     0x00C5 [0x00] END_REQSTACK()
     0x00C6 [0x00] END_REQSTACK()
     0x00C7 [0x00] END_REQSTACK()
     0x00C8 [0x00] END_REQSTACK()
     0x00C9 [0x00] END_REQSTACK()
     0x00CA [0x00] END_REQSTACK()
     0x00CB [0x00] END_REQSTACK()
     0x00CC [0x01] GOTO 0x01CB
     0x00F6 [0x0E] References[128] |= 0x0117
     0x00FB [0x8B] SET_EVENT_MARK: Add/update map marker on map 111* at (ExtData[1]->WorkLocal[13], ExtData[1]->WorkLocal[15]), index=0*, name=(no name)
     0x0104 [0x57] CREATE_FRAME_DELAY(delay=0x7461)
     0x0107 [0x65] CALCULATE_3D_DISTANCE(result=0x72, entity1=Unknown NPC (ID: 0/0x00000000), entity2=Unknown NPC (ID: 0/0x00000000))
     0x0112 [0x00] END_REQSTACK()
     0x0113 [0x00] END_REQSTACK()
     0x0114 [0x01] GOTO 0x01CB
     0x0137 [0x00] END_REQSTACK()
     0x0138 [0x01] GOTO 0x01CB
     0x0154 [0x00] END_REQSTACK()
     0x0155 [0x00] END_REQSTACK()
     0x0156 [0x00] END_REQSTACK()
     0x0157 [0x00] END_REQSTACK()
     0x0158 [0x00] END_REQSTACK()
     0x0159 [0x00] END_REQSTACK()
     0x015A [0x00] END_REQSTACK()
     0x015B [0x00] END_REQSTACK()
     0x015C [0x01] GOTO 0x01CB
     0x017D [0x00] END_REQSTACK()
     0x017E [0x00] END_REQSTACK()
     0x017F [0x00] END_REQSTACK()
     0x0180 [0x01] GOTO 0x01CB
     0x019A [0x00] END_REQSTACK()
     0x019B [0x00] END_REQSTACK()
     0x019C [0x00] END_REQSTACK()
     0x019D [0x00] END_REQSTACK()
     0x019E [0x00] END_REQSTACK()
     0x019F [0x00] END_REQSTACK()
     0x01A0 [0x00] END_REQSTACK()
     0x01A1 [0x00] END_REQSTACK()
     0x01A2 [0x00] END_REQSTACK()
     0x01A3 [0x00] END_REQSTACK()
     0x01A4 [0x01] GOTO 0x01CB
     0x01BE [0x00] END_REQSTACK()
     0x01BF [0x00] END_REQSTACK()
     0x01C0 [0x00] END_REQSTACK()
     0x01C1 [0x00] END_REQSTACK()
     0x01C2 [0x00] END_REQSTACK()
     0x01C3 [0x00] END_REQSTACK()
     0x01C4 [0x00] END_REQSTACK()
     0x01C5 [0x00] END_REQSTACK()
     0x01C6 [0x00] END_REQSTACK()
     0x01C7 [0x00] END_REQSTACK()
     0x01C8 [0x01] GOTO 0x01CB
# Dead code (unreachable instructions):
     0x01EB [0x00] END_REQSTACK()
     0x01EC [0x00] END_REQSTACK()
     0x01ED [0x00] END_REQSTACK()
     0x01EE [0x00] END_REQSTACK()
     0x01EF [0x00] END_REQSTACK()
     0x01F0 [0x00] END_REQSTACK()
     0x01F1 [0x00] END_REQSTACK()
     0x01F2 [0x00] END_REQSTACK()
     0x01F3 [0x00] END_REQSTACK()
     0x01F4 [0x01] GOTO 0x02F3
     0x023B [0x00] END_REQSTACK()
     0x023C [0x01] GOTO 0x02F3
     0x023F [0x02] IF !(ExtData[1]->WorkLocal[8] == 4*) GOTO 0x0263
     0x0247 [0x8B] SET_EVENT_MARK: Add/update map marker on map 111* at (ExtData[1]->WorkLocal[13], ExtData[1]->WorkLocal[16]), index=1*, name=(no name)
     0x0250 [0x57] CREATE_FRAME_DELAY(delay=0x6E69)
     0x0253 [0x64] CALCULATE_DISTANCE: ExtData[1]->WorkLocal[0] = distance between point1(ExtData[1]->WorkLocal[0], ExtData[1]->WorkLocal[0]) and point2(ExtData[1]->WorkLocal[0], ExtData[1]->WorkLocal[0])
     0x025E [0x00] END_REQSTACK()
     0x025F [0x00] END_REQSTACK()
     0x0260 [0x01] GOTO 0x02F3
     0x0263 [0x02] IF !(ExtData[1]->WorkLocal[8] == 5*) GOTO 0x0287
     0x026B [0x8B] SET_EVENT_MARK: Add/update map marker on map 111* at (ExtData[1]->WorkLocal[13], ExtData[1]->WorkLocal[16]), index=1*, name=(no name)
     0x0274 [0x49] Unknown NPC (ID: 25955/0x00006563) (No speaker name) [ExtData[1]->WorkLocal[0]]:
     0x027B [0x00] END_REQSTACK()
     0x027C [0x00] END_REQSTACK()
     0x027D [0x00] END_REQSTACK()
     0x027E [0x00] END_REQSTACK()
     0x027F [0x00] END_REQSTACK()
     0x0280 [0x00] END_REQSTACK()
     0x0281 [0x00] END_REQSTACK()
     0x0282 [0x00] END_REQSTACK()
     0x0283 [0x00] END_REQSTACK()
     0x0284 [0x01] GOTO 0x02F3
     0x0287 [0x02] IF !(ExtData[1]->WorkLocal[8] == 6*) GOTO 0x02AB
     0x028F [0x8B] SET_EVENT_MARK: Add/update map marker on map 111* at (ExtData[1]->WorkLocal[13], ExtData[1]->WorkLocal[16]), index=1*, name=(no name)
     0x0298 [0x4C] EventEntity->StatusEvent = 8 // Open door
     0x0299 [0x69] SET_SOUND_VOLUME: Mute Master
     0x029D [0x6E] Unknown NPC (ID: 6778473/0x00676E69) uses emote ExtData[1]->WorkLocal[0]
     0x02A4 [0x00] END_REQSTACK()
     0x02A5 [0x00] END_REQSTACK()
     0x02A6 [0x00] END_REQSTACK()
     0x02A7 [0x00] END_REQSTACK()
     0x02A8 [0x01] GOTO 0x02F3
     0x02AB [0x02] IF !(ExtData[1]->WorkLocal[8] == 7*) GOTO 0x02CF
     0x02B3 [0x8B] SET_EVENT_MARK: Add/update map marker on map 111* at (ExtData[1]->WorkLocal[13], ExtData[1]->WorkLocal[16]), index=1*, name=(no name)
     0x02BC [0x4C] EventEntity->StatusEvent = 8 // Open door
     0x02BD [0x69] SET_SOUND_VOLUME: Mute Master
     0x02C1 [0x00] END_REQSTACK()
     0x02C2 [0x00] END_REQSTACK()
     0x02C3 [0x00] END_REQSTACK()
     0x02C4 [0x00] END_REQSTACK()
     0x02C5 [0x00] END_REQSTACK()
     0x02C6 [0x00] END_REQSTACK()
     0x02C7 [0x00] END_REQSTACK()
     0x02C8 [0x00] END_REQSTACK()
     0x02C9 [0x00] END_REQSTACK()
     0x02CA [0x00] END_REQSTACK()
     0x02CB [0x00] END_REQSTACK()
     0x02CC [0x01] GOTO 0x02F3
     0x02CF [0x02] IF !(ExtData[1]->WorkLocal[8] == 8*) GOTO 0x02F3
     0x02D7 [0x8B] SET_EVENT_MARK: Add/update map marker on map 111* at (ExtData[1]->WorkLocal[13], ExtData[1]->WorkLocal[16]), index=1*, name=(no name)
     0x02E0 [0x44] IF_ENTITY_VALID(Unknown NPC (ID: 29281/0x00007261) valid ? continue : jump_to=0x006B)
     0x02E5 [0x00] END_REQSTACK()
     0x02E6 [0x00] END_REQSTACK()
     0x02E7 [0x00] END_REQSTACK()
     0x02E8 [0x00] END_REQSTACK()
     0x02E9 [0x00] END_REQSTACK()
     0x02EA [0x00] END_REQSTACK()
     0x02EB [0x00] END_REQSTACK()
     0x02EC [0x00] END_REQSTACK()
     0x02ED [0x00] END_REQSTACK()
     0x02EE [0x00] END_REQSTACK()
     0x02EF [0x00] END_REQSTACK()
     0x02F0 [0x01] GOTO 0x02F3
# Dead code (unreachable instructions):
     0x0313 [0x00] END_REQSTACK()
     0x0314 [0x00] END_REQSTACK()
     0x0315 [0x00] END_REQSTACK()
     0x0316 [0x00] END_REQSTACK()
     0x0317 [0x00] END_REQSTACK()
     0x0318 [0x00] END_REQSTACK()
     0x0319 [0x00] END_REQSTACK()
     0x031A [0x00] END_REQSTACK()
     0x031B [0x00] END_REQSTACK()
     0x031C [0x01] GOTO 0x041B
     0x0342 [0x04] DEPRECATED_NOP(unused=0x0902)
     0x0363 [0x00] END_REQSTACK()
     0x0364 [0x01] GOTO 0x041B
     0x0387 [0x00] END_REQSTACK()
     0x0388 [0x01] GOTO 0x041B
     0x03A4 [0x00] END_REQSTACK()
     0x03A5 [0x00] END_REQSTACK()
     0x03A6 [0x00] END_REQSTACK()
     0x03A7 [0x00] END_REQSTACK()
     0x03A8 [0x00] END_REQSTACK()
     0x03A9 [0x00] END_REQSTACK()
     0x03AA [0x00] END_REQSTACK()
     0x03AB [0x00] END_REQSTACK()
     0x03AC [0x01] GOTO 0x041B
     0x03CD [0x00] END_REQSTACK()
     0x03CE [0x00] END_REQSTACK()
     0x03CF [0x00] END_REQSTACK()
     0x03D0 [0x01] GOTO 0x041B
     0x03EA [0x00] END_REQSTACK()
     0x03EB [0x00] END_REQSTACK()
     0x03EC [0x00] END_REQSTACK()
     0x03ED [0x00] END_REQSTACK()
     0x03EE [0x00] END_REQSTACK()
     0x03EF [0x00] END_REQSTACK()
     0x03F0 [0x00] END_REQSTACK()
     0x03F1 [0x00] END_REQSTACK()
     0x03F2 [0x00] END_REQSTACK()
     0x03F3 [0x00] END_REQSTACK()
     0x03F4 [0x01] GOTO 0x041B
     0x040E [0x00] END_REQSTACK()
     0x040F [0x00] END_REQSTACK()
     0x0410 [0x00] END_REQSTACK()
     0x0411 [0x00] END_REQSTACK()
     0x0412 [0x00] END_REQSTACK()
     0x0413 [0x00] END_REQSTACK()
     0x0414 [0x00] END_REQSTACK()
     0x0415 [0x00] END_REQSTACK()
     0x0416 [0x00] END_REQSTACK()
     0x0417 [0x00] END_REQSTACK()
     0x0418 [0x01] GOTO 0x041B
# Dead code (unreachable instructions):
     0x043B [0x00] END_REQSTACK()
     0x043C [0x00] END_REQSTACK()
     0x043D [0x00] END_REQSTACK()
     0x043E [0x00] END_REQSTACK()
     0x043F [0x00] END_REQSTACK()
     0x0440 [0x00] END_REQSTACK()
     0x0441 [0x00] END_REQSTACK()
     0x0442 [0x00] END_REQSTACK()
     0x0443 [0x00] END_REQSTACK()
     0x0444 [0x01] GOTO 0x0543
     0x048B [0x00] END_REQSTACK()
     0x048C [0x01] GOTO 0x0543
     0x04AF [0x00] END_REQSTACK()
     0x04B0 [0x01] GOTO 0x0543
     0x04CC [0x00] END_REQSTACK()
     0x04CD [0x00] END_REQSTACK()
     0x04CE [0x00] END_REQSTACK()
     0x04CF [0x00] END_REQSTACK()
     0x04D0 [0x00] END_REQSTACK()
     0x04D1 [0x00] END_REQSTACK()
     0x04D2 [0x00] END_REQSTACK()
     0x04D3 [0x00] END_REQSTACK()
     0x04D4 [0x01] GOTO 0x0543
     0x04F5 [0x00] END_REQSTACK()
     0x04F6 [0x00] END_REQSTACK()
     0x04F7 [0x00] END_REQSTACK()
     0x04F8 [0x01] GOTO 0x0543
     0x0512 [0x00] END_REQSTACK()
     0x0513 [0x00] END_REQSTACK()
     0x0514 [0x00] END_REQSTACK()
     0x0515 [0x00] END_REQSTACK()
     0x0516 [0x00] END_REQSTACK()
     0x0517 [0x00] END_REQSTACK()
     0x0518 [0x00] END_REQSTACK()
     0x0519 [0x00] END_REQSTACK()
     0x051A [0x00] END_REQSTACK()
     0x051B [0x00] END_REQSTACK()
     0x051C [0x01] GOTO 0x0543
     0x0536 [0x00] END_REQSTACK()
     0x0537 [0x00] END_REQSTACK()
     0x0538 [0x00] END_REQSTACK()
     0x0539 [0x00] END_REQSTACK()
     0x053A [0x00] END_REQSTACK()
     0x053B [0x00] END_REQSTACK()
     0x053C [0x00] END_REQSTACK()
     0x053D [0x00] END_REQSTACK()
     0x053E [0x00] END_REQSTACK()
     0x053F [0x00] END_REQSTACK()
     0x0540 [0x01] GOTO 0x0543
# Dead code (unreachable instructions):
     0x0563 [0x00] END_REQSTACK()
     0x0564 [0x00] END_REQSTACK()
     0x0565 [0x00] END_REQSTACK()
     0x0566 [0x00] END_REQSTACK()
     0x0567 [0x00] END_REQSTACK()
     0x0568 [0x00] END_REQSTACK()
     0x0569 [0x00] END_REQSTACK()
     0x056A [0x00] END_REQSTACK()
     0x056B [0x00] END_REQSTACK()
     0x056C [0x01] GOTO 0x066B
     0x05B3 [0x00] END_REQSTACK()
     0x05B4 [0x01] GOTO 0x066B
     0x05B7 [0x02] IF !(ExtData[1]->WorkLocal[11] == 4*) GOTO 0x05DB
     0x05BF [0x8B] SET_EVENT_MARK: Add/update map marker on map 111* at (ExtData[1]->WorkLocal[14], ExtData[1]->WorkLocal[16]), index=4*, name=(no name)
     0x05C8 [0x57] CREATE_FRAME_DELAY(delay=0x6E69)
     0x05CB [0x64] CALCULATE_DISTANCE: ExtData[1]->WorkLocal[0] = distance between point1(ExtData[1]->WorkLocal[0], ExtData[1]->WorkLocal[0]) and point2(ExtData[1]->WorkLocal[0], ExtData[1]->WorkLocal[0])
     0x05D6 [0x00] END_REQSTACK()
     0x05D7 [0x00] END_REQSTACK()
     0x05D8 [0x01] GOTO 0x066B
     0x05DB [0x02] IF !(ExtData[1]->WorkLocal[11] == 5*) GOTO 0x05FF
     0x05E3 [0x8B] SET_EVENT_MARK: Add/update map marker on map 111* at (ExtData[1]->WorkLocal[14], ExtData[1]->WorkLocal[16]), index=4*, name=(no name)
     0x05EC [0x49] Unknown NPC (ID: 25955/0x00006563) (No speaker name) [ExtData[1]->WorkLocal[0]]:
     0x05F3 [0x00] END_REQSTACK()
     0x05F4 [0x00] END_REQSTACK()
     0x05F5 [0x00] END_REQSTACK()
     0x05F6 [0x00] END_REQSTACK()
     0x05F7 [0x00] END_REQSTACK()
     0x05F8 [0x00] END_REQSTACK()
     0x05F9 [0x00] END_REQSTACK()
     0x05FA [0x00] END_REQSTACK()
     0x05FB [0x00] END_REQSTACK()
     0x05FC [0x01] GOTO 0x066B
     0x05FF [0x02] IF !(ExtData[1]->WorkLocal[11] == 6*) GOTO 0x0623
     0x0607 [0x8B] SET_EVENT_MARK: Add/update map marker on map 111* at (ExtData[1]->WorkLocal[14], ExtData[1]->WorkLocal[16]), index=4*, name=(no name)
     0x0610 [0x4C] EventEntity->StatusEvent = 8 // Open door
     0x0611 [0x69] SET_SOUND_VOLUME: Mute Master
     0x0615 [0x6E] Unknown NPC (ID: 6778473/0x00676E69) uses emote ExtData[1]->WorkLocal[0]
     0x061C [0x00] END_REQSTACK()
     0x061D [0x00] END_REQSTACK()
     0x061E [0x00] END_REQSTACK()
     0x061F [0x00] END_REQSTACK()
     0x0620 [0x01] GOTO 0x066B
     0x0623 [0x02] IF !(ExtData[1]->WorkLocal[11] == 7*) GOTO 0x0647
     0x062B [0x8B] SET_EVENT_MARK: Add/update map marker on map 111* at (ExtData[1]->WorkLocal[14], ExtData[1]->WorkLocal[16]), index=4*, name=(no name)
     0x0634 [0x4C] EventEntity->StatusEvent = 8 // Open door
     0x0635 [0x69] SET_SOUND_VOLUME: Mute Master
     0x0639 [0x00] END_REQSTACK()
     0x063A [0x00] END_REQSTACK()
     0x063B [0x00] END_REQSTACK()
     0x063C [0x00] END_REQSTACK()
     0x063D [0x00] END_REQSTACK()
     0x063E [0x00] END_REQSTACK()
     0x063F [0x00] END_REQSTACK()
     0x0640 [0x00] END_REQSTACK()
     0x0641 [0x00] END_REQSTACK()
     0x0642 [0x00] END_REQSTACK()
     0x0643 [0x00] END_REQSTACK()
     0x0644 [0x01] GOTO 0x066B
     0x0647 [0x02] IF !(ExtData[1]->WorkLocal[11] == 8*) GOTO 0x066B
     0x064F [0x8B] SET_EVENT_MARK: Add/update map marker on map 111* at (ExtData[1]->WorkLocal[14], ExtData[1]->WorkLocal[16]), index=4*, name=(no name)
     0x0658 [0x44] IF_ENTITY_VALID(Unknown NPC (ID: 29281/0x00007261) valid ? continue : jump_to=0x006B)
     0x065D [0x00] END_REQSTACK()
     0x065E [0x00] END_REQSTACK()
     0x065F [0x00] END_REQSTACK()
     0x0660 [0x00] END_REQSTACK()
     0x0661 [0x00] END_REQSTACK()
     0x0662 [0x00] END_REQSTACK()
     0x0663 [0x00] END_REQSTACK()
     0x0664 [0x00] END_REQSTACK()
     0x0665 [0x00] END_REQSTACK()
     0x0666 [0x00] END_REQSTACK()
     0x0667 [0x00] END_REQSTACK()
     0x0668 [0x01] GOTO 0x066B
# Dead code (unreachable instructions):
     0x068B [0x00] END_REQSTACK()
     0x068C [0x00] END_REQSTACK()
     0x068D [0x00] END_REQSTACK()
     0x068E [0x00] END_REQSTACK()
     0x068F [0x00] END_REQSTACK()
     0x0690 [0x00] END_REQSTACK()
     0x0691 [0x00] END_REQSTACK()
     0x0692 [0x00] END_REQSTACK()
     0x0693 [0x00] END_REQSTACK()
     0x0694 [0x01] GOTO 0x0793
     0x06DB [0x00] END_REQSTACK()
     0x06DC [0x01] GOTO 0x0793
     0x06DF [0x02] IF !(ExtData[1]->WorkLocal[12] == 4*) GOTO 0x0703
     0x06E7 [0x8B] SET_EVENT_MARK: Add/update map marker on map 111* at (ExtData[1]->WorkLocal[14], ExtData[1]->WorkLocal[17]), index=5*, name=(no name)
     0x06F0 [0x57] CREATE_FRAME_DELAY(delay=0x6E69)
     0x06F3 [0x64] CALCULATE_DISTANCE: ExtData[1]->WorkLocal[0] = distance between point1(ExtData[1]->WorkLocal[0], ExtData[1]->WorkLocal[0]) and point2(ExtData[1]->WorkLocal[0], ExtData[1]->WorkLocal[0])
     0x06FE [0x00] END_REQSTACK()
     0x06FF [0x00] END_REQSTACK()
     0x0700 [0x01] GOTO 0x0793
     0x071C [0x00] END_REQSTACK()
     0x071D [0x00] END_REQSTACK()
     0x071E [0x00] END_REQSTACK()
     0x071F [0x00] END_REQSTACK()
     0x0720 [0x00] END_REQSTACK()
     0x0721 [0x00] END_REQSTACK()
     0x0722 [0x00] END_REQSTACK()
     0x0723 [0x00] END_REQSTACK()
     0x0724 [0x01] GOTO 0x0793
     0x0745 [0x00] END_REQSTACK()
     0x0746 [0x00] END_REQSTACK()
     0x0747 [0x00] END_REQSTACK()
     0x0748 [0x01] GOTO 0x0793
     0x0762 [0x00] END_REQSTACK()
     0x0763 [0x00] END_REQSTACK()
     0x0764 [0x00] END_REQSTACK()
     0x0765 [0x00] END_REQSTACK()
     0x0766 [0x00] END_REQSTACK()
     0x0767 [0x00] END_REQSTACK()
     0x0768 [0x00] END_REQSTACK()
     0x0769 [0x00] END_REQSTACK()
     0x076A [0x00] END_REQSTACK()
     0x076B [0x00] END_REQSTACK()
     0x076C [0x01] GOTO 0x0793
     0x0786 [0x00] END_REQSTACK()
     0x0787 [0x00] END_REQSTACK()
     0x0788 [0x00] END_REQSTACK()
     0x0789 [0x00] END_REQSTACK()
     0x078A [0x00] END_REQSTACK()
     0x078B [0x00] END_REQSTACK()
     0x078C [0x00] END_REQSTACK()
     0x078D [0x00] END_REQSTACK()
     0x078E [0x00] END_REQSTACK()
     0x078F [0x00] END_REQSTACK()
     0x0790 [0x01] GOTO 0x0793
# Dead code (unreachable instructions):
     0x07AB [0x01] GOTO 0x09D9
     0x07C8 [0x01] GOTO 0x09D9
     0x07F0 [0x01] GOTO 0x0820
# Dead code (unreachable instructions):
     0x0840 [0x01] GOTO 0x0877
# Dead code (unreachable instructions):
     0x08A9 [0x01] GOTO 0x09D6
     0x08DC [0x01] GOTO 0x09D3
```

### Event 508

#### Metadata

| Field        | Value     |
|--------------|-----------|
| Entrypoint   | 0x09DB    |
| Data Size    | 148 bytes |
| Instructions | 39        |

```
      00 01 02 03 04 05 06 07  08 09 0A 0B 0C 0D 0E 0F
      -- -- -- -- -- -- -- --  -- -- -- -- -- -- -- --
09D0:                                   03 00 00 02 10             .....
09E0: 20 01 42 43 00 43 01 1E  F0 FF FF 7F 6F 70 1D 2B   .BC.C......op.+
09F0: 80 23 24 00 80 01 80 01  80 25 02 00 10 01 80 00  .#$......%......
0A00: 3A 0A 1D 02 80 23 03 02  10 00 00 1D 03 80 23 1D  :....#........#.
0A10: 04 80 23 A8 00 0C 80 01  80 A8 00 0C 80 05 80 A8  ..#.............
0A20: 00 0C 80 0D 80 A8 00 0C  80 0E 80 A8 00 0C 80 06  ................
0A30: 80 A8 00 0C 80 0F 80 01  6D 0A 02 00 10 05 80 00  ........m.......
0A40: 6D 0A 1D 04 80 23 A8 00  0C 80 01 80 A8 00 0C 80  m....#..........
0A50: 05 80 A8 00 0C 80 0D 80  A8 00 0C 80 0E 80 A8 00  ................
0A60: 0C 80 06 80 A8 00 0C 80  0F 80 01 6D 0A 21 00     ...........m.!. 
```

#### Opcodes

```
  0: 0x09DB [0x03] ExtData[1]->WorkLocal[0] = Work_Zone[2]
  1: 0x09E0 [0x20] SET_CLI_EVENT_UC_FLAG: Lock player control
  2: 0x09E2 [0x42] SET_CLI_EVENT_CANCEL_DATA()
  3: 0x09E3 [0x43] SEND_EVENT_UPDATE: Send pending tag to server (packet 0x005B)
  4: 0x09E5 [0x43] SEND_EVENT_UPDATE: Check pending flag (skip if not pending)
  5: 0x09E7 [0x1E] EventEntity looks at LocalPlayer and starts talking
  6: 0x09EC [0x6F] WAIT_FRAME_DELAY: Yield until WaitTime reaches zero
  7: 0x09ED [0x70] WAIT_ENTITY_RENDER_FLAG: Wait while EventEntity->Render.Flags3 bit 2 is set (cancel turn if not)
  8: 0x09EE [0x1D] PRINT_EVENT_MESSAGE(message_id=7411*)
    → "Yeah, whaddaya w-w-want? You wanna tr-tr-try your hand at the tr-tr-treasure game, ya say? Step r-r-right up and I'll tell ya how it's played!"
  9: 0x09F1 [0x23] WAIT_FOR_DIALOG_INTERACTION
 10: 0x09F2 [0x24] CREATE_DIALOG(message_id=7412*, default_option=0*, option_flags=0*)
    → "Ya need'ta hear the r-r-rules? [Sure do!/Already heard 'em.]"
 11: 0x09F9 [0x25] WAIT_DIALOG_SELECT()
 12: 0x09FA [0x02] IF !(Work_Zone[0] == 0*) GOTO 0x0A3A
 13: 0x0A02 [0x1D] PRINT_EVENT_MESSAGE(message_id=7413*)
    → "Simple g-g-game, simple rules. Unlock treasure chest, get stuff inside. Bring said stuff back to the m-m-moogle emcee. Easy as Goblin pie, no?"
 14: 0x0A05 [0x23] WAIT_FOR_DIALOG_INTERACTION
 15: 0x0A06 [0x03] Work_Zone[2] = ExtData[1]->WorkLocal[0]
 16: 0x0A0B [0x1D] PRINT_EVENT_MESSAGE(message_id=7414*)
    → "But here's the c-c-catch... We've locked the chest with a super-secret m-m-magic number. Ya'll have to visit six spots s-s-scattered around this glacier. Elementals pop up, they m-m-mark the magic number on your $3."
 17: 0x0A0E [0x23] WAIT_FOR_DIALOG_INTERACTION
 18: 0x0A0F [0x1D] PRINT_EVENT_MESSAGE(message_id=7415*)
    → "Guess wrong or leave the area, and ya gotta do it all over again. Hey, nobody said this would be e-e-easy! What? I did!? Sh-sh-shut up!"
 19: 0x0A12 [0x23] WAIT_FOR_DIALOG_INTERACTION
 20: 0x0A13 [0xA8] MAP_MARKER_CONTROL: Reset/unlock markers (no map display), zone=111*, marker=0*
 21: 0x0A19 [0xA8] MAP_MARKER_CONTROL: Reset/unlock markers (no map display), zone=111*, marker=1*
 22: 0x0A1F [0xA8] MAP_MARKER_CONTROL: Reset/unlock markers (no map display), zone=111*, marker=2*
 23: 0x0A25 [0xA8] MAP_MARKER_CONTROL: Reset/unlock markers (no map display), zone=111*, marker=3*
 24: 0x0A2B [0xA8] MAP_MARKER_CONTROL: Reset/unlock markers (no map display), zone=111*, marker=4*
 25: 0x0A31 [0xA8] MAP_MARKER_CONTROL: Reset/unlock markers (no map display), zone=111*, marker=5*
 26: 0x0A37 [0x01] GOTO 0x0A6D
 27: 0x0A3A [0x02] IF !(Work_Zone[0] == 1*) GOTO 0x0A6D
 28: 0x0A42 [0x1D] PRINT_EVENT_MESSAGE(message_id=7415*)
    → "Guess wrong or leave the area, and ya gotta do it all over again. Hey, nobody said this would be e-e-easy! What? I did!? Sh-sh-shut up!"
 29: 0x0A45 [0x23] WAIT_FOR_DIALOG_INTERACTION
 30: 0x0A46 [0xA8] MAP_MARKER_CONTROL: Reset/unlock markers (no map display), zone=111*, marker=0*
 31: 0x0A4C [0xA8] MAP_MARKER_CONTROL: Reset/unlock markers (no map display), zone=111*, marker=1*
 32: 0x0A52 [0xA8] MAP_MARKER_CONTROL: Reset/unlock markers (no map display), zone=111*, marker=2*
 33: 0x0A58 [0xA8] MAP_MARKER_CONTROL: Reset/unlock markers (no map display), zone=111*, marker=3*
 34: 0x0A5E [0xA8] MAP_MARKER_CONTROL: Reset/unlock markers (no map display), zone=111*, marker=4*
 35: 0x0A64 [0xA8] MAP_MARKER_CONTROL: Reset/unlock markers (no map display), zone=111*, marker=5*
 36: 0x0A6A [0x01] GOTO 0x0A6D

SUBROUTINE_0A6D:
 37: 0x0A6D [0x21] END_EVENT
 38: 0x0A6E [0x00] END_REQSTACK()
```

### Event 509

#### Metadata

| Field        | Value    |
|--------------|----------|
| Entrypoint   | 0x0A6F   |
| Data Size    | 24 bytes |
| Instructions | 11       |

```
      00 01 02 03 04 05 06 07  08 09 0A 0B 0C 0D 0E 0F
      -- -- -- -- -- -- -- --  -- -- -- -- -- -- -- --
0A60:                                               20                  
0A70: 01 42 43 00 43 01 1E F0  FF FF 7F 6F 70 2B B2 F1  .BC.C......op+..
0A80: 06 01 2C 80 23 21 00                              ..,.#!.         
```

#### Opcodes

```
  0: 0x0A6F [0x20] SET_CLI_EVENT_UC_FLAG: Lock player control
  1: 0x0A71 [0x42] SET_CLI_EVENT_CANCEL_DATA()
  2: 0x0A72 [0x43] SEND_EVENT_UPDATE: Send pending tag to server (packet 0x005B)
  3: 0x0A74 [0x43] SEND_EVENT_UPDATE: Check pending flag (skip if not pending)
  4: 0x0A76 [0x1E] EventEntity looks at LocalPlayer and starts talking
  5: 0x0A7B [0x6F] WAIT_FRAME_DELAY: Yield until WaitTime reaches zero
  6: 0x0A7C [0x70] WAIT_ENTITY_RENDER_FLAG: Wait while EventEntity->Render.Flags3 bit 2 is set (cancel turn if not)
  7: 0x0A7D [0x2B] Goblin Grenadier (ID: 17232306/0x0106F1B2) [7410*]:
    → "Yeah? I'm a b-b-busy Gobbie. I've got better things to do than listen to your y-y-yammerin'."
  8: 0x0A84 [0x23] WAIT_FOR_DIALOG_INTERACTION
  9: 0x0A85 [0x21] END_EVENT
 10: 0x0A86 [0x00] END_REQSTACK()
```
