# 17232278

## Common Data

| Field            | Value                        |
|------------------|------------------------------|
| Zone             | Beaucedine Glacier (ID: 111) |
| Block Size       | 5288 bytes                   |
| Total Events     | 3                            |
| References Count | 103                          |

## List of Events

| Event ID              | Entrypoint   |   Size |   Instructions |
|-----------------------|--------------|--------|----------------|
| [65535](#event-65535) | 0x0000       |      1 |              1 |
| [206](#event-206)     | 0x0001       |   1519 |            221 |
| [207](#event-207)     | 0x05F0       |   3325 |            459 |

## DAT References (imed_data)

|   Index | Hex Value   |   Dec Value |
|---------|-------------|-------------|
|       0 | 0x00C8      |         200 |
|       1 | 0x0000      |           0 |
|       2 | 0x003C      |          60 |
|       3 | 0x0013      |          19 |
|       4 | 0x000C      |          12 |
|       5 | 0x0002      |           2 |
|       6 | 0x2061      |        8289 |
|       7 | 0x2062      |        8290 |
|       8 | 0x2063      |        8291 |
|       9 | 0x00A3      |         163 |
|      10 | 0x0081      |         129 |
|      11 | 0x2064      |        8292 |
|      12 | 0x2065      |        8293 |
|      13 | 0x2066      |        8294 |
|      14 | 0x0050      |          80 |
|      15 | 0x2067      |        8295 |
|      16 | 0x2068      |        8296 |
|      17 | 0x2069      |        8297 |
|      18 | 0x206A      |        8298 |
|      19 | 0x206B      |        8299 |
|      20 | 0x206C      |        8300 |
|      21 | 0x206D      |        8301 |
|      22 | 0x206E      |        8302 |
|      23 | 0x206F      |        8303 |
|      24 | 0x2070      |        8304 |
|      25 | 0x2071      |        8305 |
|      26 | 0x2072      |        8306 |
|      27 | 0x2073      |        8307 |
|      28 | 0x2074      |        8308 |
|      29 | 0x2075      |        8309 |
|      30 | 0x2076      |        8310 |
|      31 | 0x0BFB      |        3067 |
|      32 | 0x2077      |        8311 |
|      33 | 0x2078      |        8312 |
|      34 | 0x2079      |        8313 |
|      35 | 0x207A      |        8314 |
|      36 | 0x207B      |        8315 |
|      37 | 0x207C      |        8316 |
|      38 | 0x005A      |          90 |
|      39 | 0x007F      |         127 |
|      40 | 0x2090      |        8336 |
|      41 | 0x2091      |        8337 |
|      42 | 0x2092      |        8338 |
|      43 | 0x0803      |        2051 |
|      44 | 0x2093      |        8339 |
|      45 | 0x2094      |        8340 |
|      46 | 0x2095      |        8341 |
|      47 | 0x2096      |        8342 |
|      48 | 0x2097      |        8343 |
|      49 | 0x0003      |           3 |
|      50 | 0x0008      |           8 |
|      51 | 0x2098      |        8344 |
|      52 | 0x2099      |        8345 |
|      53 | 0x09FC      |        2556 |
|      54 | 0x209A      |        8346 |
|      55 | 0x209B      |        8347 |
|      56 | 0x209C      |        8348 |
|      57 | 0x209D      |        8349 |
|      58 | 0x209E      |        8350 |
|      59 | 0x209F      |        8351 |
|      60 | 0x20A0      |        8352 |
|      61 | 0x000A      |          10 |
|      62 | 0x00E7      |         231 |
|      63 | 0x20A1      |        8353 |
|      64 | 0x20A2      |        8354 |
|      65 | 0x20A3      |        8355 |
|      66 | 0x20A4      |        8356 |
|      67 | 0x20A5      |        8357 |
|      68 | 0x20A6      |        8358 |
|      69 | 0x20A7      |        8359 |
|      70 | 0x20A8      |        8360 |
|      71 | 0x20A9      |        8361 |
|      72 | 0x20AA      |        8362 |
|      73 | 0x20AC      |        8364 |
|      74 | 0x20AB      |        8363 |
|      75 | 0x20AD      |        8365 |
|      76 | 0x20AE      |        8366 |
|      77 | 0x20AF      |        8367 |
|      78 | 0x20B0      |        8368 |
|      79 | 0x20B1      |        8369 |
|      80 | 0x20B2      |        8370 |
|      81 | 0x20B3      |        8371 |
|      82 | 0x20B4      |        8372 |
|      83 | 0x20B5      |        8373 |
|      84 | 0x20B6      |        8374 |
|      85 | 0x20B7      |        8375 |
|      86 | 0x20B8      |        8376 |
|      87 | 0x20B9      |        8377 |
|      88 | 0x20BA      |        8378 |
|      89 | 0x20BB      |        8379 |
|      90 | 0x20BC      |        8380 |
|      91 | 0x0078      |         120 |
|      92 | 0x20BD      |        8381 |
|      93 | 0x20BE      |        8382 |
|      94 | 0x20BF      |        8383 |
|      95 | 0x0005      |           5 |
|      96 | 0x0006      |           6 |
|      97 | 0x20C0      |        8384 |
|      98 | 0x20C1      |        8385 |
|      99 | 0x20C2      |        8386 |
|     100 | 0x0C00      |        3072 |
|     101 | 0x20C3      |        8387 |
|     102 | 0x00C9      |         201 |

## String References

- **8295**: The $3 has been stolen!
- **8297**: The $3 was returned to you!
- **8352**: What's that about my helmet, sugarpie?

## Events

### Event 65535

#### Metadata

| Field        | Value   |
|--------------|---------|
| Entrypoint   | 0x0000  |
| Data Size    | 1 bytes |
| Instructions | 1       |

```
      00 01 02 03 04 05 06 07  08 09 0A 0B 0C 0D 0E 0F
      -- -- -- -- -- -- -- --  -- -- -- -- -- -- -- --
0000: 00                                                .               
```

#### Opcodes

```
  0: 0x0000 [0x00] END_REQSTACK()
```

### Event 206

#### Metadata

| Field        | Value      |
|--------------|------------|
| Entrypoint   | 0x0001     |
| Data Size    | 1519 bytes |
| Instructions | 221        |

```
      00 01 02 03 04 05 06 07  08 09 0A 0B 0C 0D 0E 0F
      -- -- -- -- -- -- -- --  -- -- -- -- -- -- -- --
0000:    20 01 42 46 01 45 00  80 F8 FF FF 7F F8 FF FF    .BF.E.........
0010: 7F 66 64 6F 31 01 80 1C  02 80 38 03 80 29 0B 98  .fdo1.....8..)..
0020: F1 06 01 48 29 0B 99 F1  06 01 48 29 0B 9A F1 06  ...H).....H)....
0030: 01 49 29 0B 97 F1 06 01  40 29 0B F0 FF FF 7F 2F  .I).....@)...../
0040: 43 00 43 01 29 08 F0 FF  FF 7F 2A 4E 01 97 F1 06  C.C.).....*N....
0050: 01 4E 00 98 F1 06 01 4E  00 99 F1 06 01 4E 00 9A  .N.....N.....N..
0060: F1 06 01 4E 00 F0 FF FF  7F 80 F0 FF FF 7F 80 98  ...N............
0070: F1 06 01 80 99 F1 06 01  80 9A F1 06 01 79 00 98  .............y..
0080: F1 06 01 F0 FF FF 7F 79  00 99 F1 06 01 F0 FF FF  .......y........
0090: 7F 79 00 9A F1 06 01 F0  FF FF 7F 94 01 F0 FF FF  .y..............
00A0: 7F 77 04 80 05 80 1C 02  80 29 08 F0 FF FF 7F 2D  .w.......).....-
00B0: 27 0B 9A F1 06 01 4A 2A  0B 9A F1 06 01 2B 9A F1  '.....J*.....+..
00C0: 06 01 06 80 23 27 0B 99  F1 06 01 49 2B 99 F1 06  ....#'.....I+...
00D0: 01 07 80 23 2A 0B 99 F1  06 01 27 0B 98 F1 06 01  ...#*.....'.....
00E0: 49 2B 98 F1 06 01 08 80  23 2A 0B 98 F1 06 01 5C  I+......#*.....\
00F0: 00 09 80 5C 01 09 80 45  0A 80 F8 FF FF 7F F8 FF  ...\...E........
0100: FF 7F 73 30 35 36 01 80  45 00 80 F8 FF FF 7F F8  ..s056..E.......
0110: FF FF 7F 66 64 69 31 01  80 29 08 9A F1 06 01 12  ...fdi1..)......
0120: 2B 9A F1 06 01 0B 80 23  29 08 9A F1 06 01 13 29  +......#)......)
0130: 08 99 F1 06 01 12 2B 99  F1 06 01 0C 80 23 29 08  ......+......#).
0140: 99 F1 06 01 13 52 0A 80  F8 FF FF 7F F8 FF FF 7F  .....R..........
0150: 73 30 35 36 45 0A 80 F8  FF FF 7F F8 FF FF 7F 73  s056E..........s
0160: 30 35 35 01 80 79 00 99  F1 06 01 98 F1 06 01 79  055..y.........y
0170: 00 9A F1 06 01 98 F1 06  01 27 0B 98 F1 06 01 4A  .........'.....J
0180: 2B 98 F1 06 01 0D 80 23  2A 0B 98 F1 06 01 79 00  +......#*.....y.
0190: 99 F1 06 01 F0 FF FF 7F  79 00 9A F1 06 01 F0 FF  ........y.......
01A0: FF 7F 27 0B 9A F1 06 01  4B 27 0B 99 F1 06 01 4A  ..'.....K'.....J
01B0: 2A 0B 9A F1 06 01 2A 0B  99 F1 06 01 45 00 80 F8  *.....*.....E...
01C0: FF FF 7F F8 FF FF 7F 66  64 6F 31 01 80 1C 02 80  .......fdo1.....
01D0: 1C 0E 80 52 0A 80 F8 FF  FF 7F F8 FF FF 7F 73 30  ...R..........s0
01E0: 35 35 48 0F 80 23 4E 00  97 F1 06 01 80 97 F1 06  55H..#N.........
01F0: 01 27 0B 97 F1 06 01 41  45 0A 80 F8 FF FF 7F F8  .'.....AE.......
0200: FF FF 7F 73 30 35 37 01  80 45 00 80 F8 FF FF 7F  ...s057..E......
0210: F8 FF FF 7F 66 64 69 31  01 80 2B 97 F1 06 01 10  ....fdi1..+.....
0220: 80 23 2A 0B 97 F1 06 01  48 11 80 23 27 0B 98 F1  .#*.....H..#'...
0230: 06 01 4B 27 0B 99 F1 06  01 4B 27 0B 9A F1 06 01  ..K'.....K'.....
0240: 4C 2B 98 F1 06 01 12 80  23 52 0A 80 F8 FF FF 7F  L+......#R......
0250: F8 FF FF 7F 73 30 35 37  45 0A 80 F8 FF FF 7F F8  ....s057E.......
0260: FF FF 7F 73 30 35 39 01  80 2A 0B 98 F1 06 01 29  ...s059..*.....)
0270: 08 98 F1 06 01 2B 2B 98  F1 06 01 13 80 23 29 08  .....++......#).
0280: 98 F1 06 01 2C 2A 0B 99  F1 06 01 29 08 99 F1 06  ....,*.....)....
0290: 01 2B 2B 99 F1 06 01 14  80 23 29 08 99 F1 06 01  .++......#).....
02A0: 2C 2A 0B 9A F1 06 01 29  08 9A F1 06 01 1B 2B 9A  ,*.....)......+.
02B0: F1 06 01 15 80 23 29 08  9A F1 06 01 1C 52 0A 80  .....#)......R..
02C0: F8 FF FF 7F F8 FF FF 7F  73 30 35 39 45 0A 80 F8  ........s059E...
02D0: FF FF 7F F8 FF FF 7F 73  30 36 30 01 80 27 08 9A  .......s060..'..
02E0: F1 06 01 47 27 08 99 F1  06 01 46 27 08 98 F1 06  ...G'.....F'....
02F0: 01 46 29 08 97 F1 06 01  05 2B 97 F1 06 01 16 80  .F)......+......
0300: 23 29 08 97 F1 06 01 05  29 08 97 F1 06 01 09 2B  #)......)......+
0310: 97 F1 06 01 17 80 23 29  08 97 F1 06 01 0A 2A 08  ......#)......*.
0320: 9A F1 06 01 2A 08 99 F1  06 01 2A 08 98 F1 06 01  ....*.....*.....
0330: 52 0A 80 F8 FF FF 7F F8  FF FF 7F 73 30 36 30 45  R..........s060E
0340: 0A 80 F8 FF FF 7F F8 FF  FF 7F 73 30 36 31 01 80  ..........s061..
0350: 29 08 9A F1 06 01 41 2B  9A F1 06 01 18 80 23 29  ).....A+......#)
0360: 08 9A F1 06 01 42 29 08  99 F1 06 01 16 2B 99 F1  .....B)......+..
0370: 06 01 19 80 23 29 08 99  F1 06 01 17 52 0A 80 F8  ....#)......R...
0380: FF FF 7F F8 FF FF 7F 73  30 36 31 45 0A 80 F8 FF  .......s061E....
0390: FF 7F F8 FF FF 7F 73 30  36 32 01 80 29 08 98 F1  ......s062..)...
03A0: 06 01 16 2B 98 F1 06 01  1A 80 23 29 08 98 F1 06  ...+......#)....
03B0: 01 17 29 08 97 F1 06 01  0F 2B 97 F1 06 01 1B 80  ..)......+......
03C0: 23 29 08 97 F1 06 01 10  52 0A 80 F8 FF FF 7F F8  #)......R.......
03D0: FF FF 7F 73 30 36 32 45  0A 80 F8 FF FF 7F F8 FF  ...s062E........
03E0: FF 7F 73 30 36 33 01 80  7B 97 F1 06 01 4A 9A F1  ..s063..{....J..
03F0: 06 01 98 F1 06 01 4A 99  F1 06 01 98 F1 06 01 27  ......J........'
0400: 0B 97 F1 06 01 42 2B 97  F1 06 01 1C 80 23 2A 0B  .....B+......#*.
0410: 9A F1 06 01 6F 76 9A F1  06 01 6F 76 99 F1 06 01  ....ov....ov....
0420: 52 0A 80 F8 FF FF 7F F8  FF FF 7F 73 30 36 33 45  R..........s063E
0430: 0A 80 F8 FF FF 7F F8 FF  FF 7F 73 30 36 34 01 80  ..........s064..
0440: 7B 98 F1 06 01 29 0B 97  F1 06 01 43 29 08 97 F1  {....).....C)...
0450: 06 01 15 29 08 9A F1 06  01 0A 2B 9A F1 06 01 1D  ...)......+.....
0460: 80 23 29 08 9A F1 06 01  0B 29 08 99 F1 06 01 18  .#)......)......
0470: 2B 99 F1 06 01 1E 80 23  29 08 99 F1 06 01 19 4B  +......#)......K
0480: 98 F1 06 01 1F 80 6F 76  98 F1 06 01 29 08 98 F1  ......ov....)...
0490: 06 01 18 2B 98 F1 06 01  20 80 23 29 08 98 F1 06  ...+.... .#)....
04A0: 01 19 29 08 97 F1 06 01  16 52 0A 80 F8 FF FF 7F  ..)......R......
04B0: F8 FF FF 7F 73 30 36 34  45 0A 80 F8 FF FF 7F F8  ....s064E.......
04C0: FF FF 7F 73 30 35 38 01  80 27 08 98 F1 06 01 46  ...s058..'.....F
04D0: 2B 98 F1 06 01 21 80 23  2A 08 98 F1 06 01 27 08  +....!.#*.....'.
04E0: 99 F1 06 01 46 2B 99 F1  06 01 22 80 23 2A 08 99  ....F+....".#*..
04F0: F1 06 01 27 08 9A F1 06  01 47 2B 9A F1 06 01 23  ...'.....G+....#
0500: 80 23 2A 08 9A F1 06 01  52 0A 80 F8 FF FF 7F F8  .#*.....R.......
0510: FF FF 7F 73 30 35 38 45  0A 80 F8 FF FF 7F F8 FF  ...s058E........
0520: FF 7F 73 30 36 35 01 80  29 08 98 F1 06 01 08 2B  ..s065..)......+
0530: 98 F1 06 01 24 80 23 29  08 98 F1 06 01 09 52 0A  ....$.#)......R.
0540: 80 F8 FF FF 7F F8 FF FF  7F 73 30 36 35 45 0A 80  .........s065E..
0550: F8 FF FF 7F F8 FF FF 7F  73 30 36 36 01 80 79 00  ........s066..y.
0560: 98 F1 06 01 97 F1 06 01  79 00 99 F1 06 01 97 F1  ........y.......
0570: 06 01 79 00 9A F1 06 01  97 F1 06 01 27 0B 98 F1  ..y.........'...
0580: 06 01 4D 2B 97 F1 06 01  25 80 23 27 0B 97 F1 06  ..M+....%.#'....
0590: 01 44 1C 26 80 45 00 80  F0 FF FF 7F F0 FF FF 7F  .D.&.E..........
05A0: 66 64 6F 31 01 80 1C 02  80 2A 0B 97 F1 06 01 52  fdo1.....*.....R
05B0: 0A 80 F8 FF FF 7F F8 FF  FF 7F 73 30 36 36 29 08  ..........s066).
05C0: F0 FF FF 7F 2E 78 5C 00  01 80 5C 01 01 80 4E 00  .....x\...\...N.
05D0: F0 FF FF 7F 80 F0 FF FF  7F 46 00 45 00 80 F0 FF  .........F.E....
05E0: FF 7F F0 FF FF 7F 66 64  69 31 01 80 20 00 21 00  ......fdi1.. .!.
```

#### Opcodes

```
  0: 0x0001 [0x20] SET_CLI_EVENT_UC_FLAG: Lock player control
  1: 0x0003 [0x42] SET_CLI_EVENT_CANCEL_DATA()
  2: 0x0004 [0x46] CAMERA_CONTROL: Disable user control
  3: 0x0006 [0x45] LOAD_SCHEDULED_TASK: Load scheduler "fdo1" with entities [EventEntity, EventEntity], work=[200*, 0*]
  4: 0x0017 [0x1C] WAIT(60* ticks)
  5: 0x001A [0x38] SET_CLIENT_EVENT_MODE(mode=19*)
  6: 0x001D [0x29] REQ_SET_WAIT(priority=0x0B, entity_id=Makki-Chebukki (ID: 17232280/0x0106F198), tag_num=0x48)
  7: 0x0024 [0x29] REQ_SET_WAIT(priority=0x0B, entity_id=Kukki-Chebukki (ID: 17232281/0x0106F199), tag_num=0x48)
  8: 0x002B [0x29] REQ_SET_WAIT(priority=0x0B, entity_id=Cherukiki (ID: 17232282/0x0106F19A), tag_num=0x49)
  9: 0x0032 [0x29] REQ_SET_WAIT(priority=0x0B, entity_id=Nag'molada (ID: 17232279/0x0106F197), tag_num=0x40)
 10: 0x0039 [0x29] REQ_SET_WAIT(priority=0x0B, entity_id=LocalPlayer, tag_num=0x2F)
 11: 0x0040 [0x43] SEND_EVENT_UPDATE: Send pending tag to server (packet 0x005B)
 12: 0x0042 [0x43] SEND_EVENT_UPDATE: Check pending flag (skip if not pending)
 13: 0x0044 [0x29] REQ_SET_WAIT(priority=0x08, entity_id=LocalPlayer, tag_num=0x2A)
 14: 0x004B [0x4E] SET_ENTITY_HIDE_FLAG: Hide Nag'molada (ID: 17232279/0x0106F197)
 15: 0x0051 [0x4E] SET_ENTITY_HIDE_FLAG: Show Makki-Chebukki (ID: 17232280/0x0106F198)
 16: 0x0057 [0x4E] SET_ENTITY_HIDE_FLAG: Show Kukki-Chebukki (ID: 17232281/0x0106F199)
 17: 0x005D [0x4E] SET_ENTITY_HIDE_FLAG: Show Cherukiki (ID: 17232282/0x0106F19A)
 18: 0x0063 [0x4E] SET_ENTITY_HIDE_FLAG: Show LocalPlayer
 19: 0x0069 [0x80] LOAD_WAIT(entity=LocalPlayer)
 20: 0x006E [0x80] LOAD_WAIT(entity=Makki-Chebukki (ID: 17232280/0x0106F198))
 21: 0x0073 [0x80] LOAD_WAIT(entity=Kukki-Chebukki (ID: 17232281/0x0106F199))
 22: 0x0078 [0x80] LOAD_WAIT(entity=Cherukiki (ID: 17232282/0x0106F19A))
 23: 0x007D [0x79] Makki-Chebukki (ID: 17232280/0x0106F198) looks at LocalPlayer (Basic look)
 24: 0x0087 [0x79] Kukki-Chebukki (ID: 17232281/0x0106F199) looks at LocalPlayer (Basic look)
 25: 0x0091 [0x79] Cherukiki (ID: 17232282/0x0106F19A) looks at LocalPlayer (Basic look)
 26: 0x009B [0x94] LocalPlayer->Render.Flags3 ^= 0x01
 27: 0x00A1 [0x77] SET_EVENT_TIME_WEATHER(hour=12*, weather=2*)
 28: 0x00A6 [0x1C] WAIT(60* ticks)
 29: 0x00A9 [0x29] REQ_SET_WAIT(priority=0x08, entity_id=LocalPlayer, tag_num=0x2D)
 30: 0x00B0 [0x27] REQ_SET(priority=0x0B, entity_id=Cherukiki (ID: 17232282/0x0106F19A), tag_num=0x4A)
 31: 0x00B7 [0x2A] GET_REQ_LEVEL(level=11, entity_id=Cherukiki (ID: 17232282/0x0106F19A))
 32: 0x00BD [0x2B] Cherukiki (ID: 17232282/0x0106F19A) [8289*]:
    → "Hey, I found something!"
 33: 0x00C4 [0x23] WAIT_FOR_DIALOG_INTERACTION
 34: 0x00C5 [0x27] REQ_SET(priority=0x0B, entity_id=Kukki-Chebukki (ID: 17232281/0x0106F199), tag_num=0x49)
 35: 0x00CC [0x2B] Kukki-Chebukki (ID: 17232281/0x0106F199) [8290*]:
    → "You found something?"
 36: 0x00D3 [0x23] WAIT_FOR_DIALOG_INTERACTION
 37: 0x00D4 [0x2A] GET_REQ_LEVEL(level=11, entity_id=Kukki-Chebukki (ID: 17232281/0x0106F199))
 38: 0x00DA [0x27] REQ_SET(priority=0x0B, entity_id=Makki-Chebukki (ID: 17232280/0x0106F198), tag_num=0x49)
 39: 0x00E1 [0x2B] Makki-Chebukki (ID: 17232280/0x0106F198) [8291*]:
    → "Show me, show me, show me!"
 40: 0x00E8 [0x23] WAIT_FOR_DIALOG_INTERACTION
 41: 0x00E9 [0x2A] GET_REQ_LEVEL(level=11, entity_id=Makki-Chebukki (ID: 17232280/0x0106F198))
 42: 0x00EF [0x5C] MUSIC_CONTROL: Set Idle (Day) music to song 163*
 43: 0x00F3 [0x5C] MUSIC_CONTROL: Set Idle (Night) music to song 163*
 44: 0x00F7 [0x45] LOAD_SCHEDULED_TASK: Load scheduler "s056" with entities [EventEntity, EventEntity], work=[129*, 0*]
 45: 0x0108 [0x45] LOAD_SCHEDULED_TASK: Load scheduler "fdi1" with entities [EventEntity, EventEntity], work=[200*, 0*]
 46: 0x0119 [0x29] REQ_SET_WAIT(priority=0x08, entity_id=Cherukiki (ID: 17232282/0x0106F19A), tag_num=0x12)
 47: 0x0120 [0x2B] Cherukiki (ID: 17232282/0x0106F19A) [8292*]:
    → "No, wait. It's a body!"
 48: 0x0127 [0x23] WAIT_FOR_DIALOG_INTERACTION
 49: 0x0128 [0x29] REQ_SET_WAIT(priority=0x08, entity_id=Cherukiki (ID: 17232282/0x0106F19A), tag_num=0x13)
 50: 0x012F [0x29] REQ_SET_WAIT(priority=0x08, entity_id=Kukki-Chebukki (ID: 17232281/0x0106F199), tag_num=0x12)
 51: 0x0136 [0x2B] Kukki-Chebukki (ID: 17232281/0x0106F199) [8293*]:
    → "Just a body? Why does this keep happening to us?"
 52: 0x013D [0x23] WAIT_FOR_DIALOG_INTERACTION
 53: 0x013E [0x29] REQ_SET_WAIT(priority=0x08, entity_id=Kukki-Chebukki (ID: 17232281/0x0106F199), tag_num=0x13)
 54: 0x0145 [0x52] END_LOAD_SCHEDULER: End scheduler "s056" with entities [EventEntity, EventEntity], work=129*
 55: 0x0154 [0x45] LOAD_SCHEDULED_TASK: Load scheduler "s055" with entities [EventEntity, EventEntity], work=[129*, 0*]
 56: 0x0165 [0x79] Kukki-Chebukki (ID: 17232281/0x0106F199) looks at Makki-Chebukki (ID: 17232280/0x0106F198) (Basic look)
 57: 0x016F [0x79] Cherukiki (ID: 17232282/0x0106F19A) looks at Makki-Chebukki (ID: 17232280/0x0106F198) (Basic look)
 58: 0x0179 [0x27] REQ_SET(priority=0x0B, entity_id=Makki-Chebukki (ID: 17232280/0x0106F198), tag_num=0x4A)
 59: 0x0180 [0x2B] Makki-Chebukki (ID: 17232280/0x0106F198) [8294*]:
    → "We gotta go tell someone! But before we do... <rustle, rustle>"
 60: 0x0187 [0x23] WAIT_FOR_DIALOG_INTERACTION
 61: 0x0188 [0x2A] GET_REQ_LEVEL(level=11, entity_id=Makki-Chebukki (ID: 17232280/0x0106F198))
 62: 0x018E [0x79] Kukki-Chebukki (ID: 17232281/0x0106F199) looks at LocalPlayer (Basic look)
 63: 0x0198 [0x79] Cherukiki (ID: 17232282/0x0106F19A) looks at LocalPlayer (Basic look)
 64: 0x01A2 [0x27] REQ_SET(priority=0x0B, entity_id=Cherukiki (ID: 17232282/0x0106F19A), tag_num=0x4B)
 65: 0x01A9 [0x27] REQ_SET(priority=0x0B, entity_id=Kukki-Chebukki (ID: 17232281/0x0106F199), tag_num=0x4A)
 66: 0x01B0 [0x2A] GET_REQ_LEVEL(level=11, entity_id=Cherukiki (ID: 17232282/0x0106F19A))
 67: 0x01B6 [0x2A] GET_REQ_LEVEL(level=11, entity_id=Kukki-Chebukki (ID: 17232281/0x0106F199))
 68: 0x01BC [0x45] LOAD_SCHEDULED_TASK: Load scheduler "fdo1" with entities [EventEntity, EventEntity], work=[200*, 0*]
 69: 0x01CD [0x1C] WAIT(60* ticks)
 70: 0x01D0 [0x1C] WAIT(80* ticks)
 71: 0x01D3 [0x52] END_LOAD_SCHEDULER: End scheduler "s055" with entities [EventEntity, EventEntity], work=129*
 72: 0x01E2 [0x48] [System] [8295*]:
    → "The $3 has been stolen!"
 73: 0x01E5 [0x23] WAIT_FOR_DIALOG_INTERACTION
 74: 0x01E6 [0x4E] SET_ENTITY_HIDE_FLAG: Show Nag'molada (ID: 17232279/0x0106F197)
 75: 0x01EC [0x80] LOAD_WAIT(entity=Nag'molada (ID: 17232279/0x0106F197))
 76: 0x01F1 [0x27] REQ_SET(priority=0x0B, entity_id=Nag'molada (ID: 17232279/0x0106F197), tag_num=0x41)
 77: 0x01F8 [0x45] LOAD_SCHEDULED_TASK: Load scheduler "s057" with entities [EventEntity, EventEntity], work=[129*, 0*]
 78: 0x0209 [0x45] LOAD_SCHEDULED_TASK: Load scheduler "fdi1" with entities [EventEntity, EventEntity], work=[200*, 0*]
 79: 0x021A [0x2B] Nag'molada (ID: 17232279/0x0106F197) [8296*]:
    → "You three!?"
 80: 0x0221 [0x23] WAIT_FOR_DIALOG_INTERACTION
 81: 0x0222 [0x2A] GET_REQ_LEVEL(level=11, entity_id=Nag'molada (ID: 17232279/0x0106F197))
 82: 0x0228 [0x48] [System] [8297*]:
    → "The $3 was returned to you!"
 83: 0x022B [0x23] WAIT_FOR_DIALOG_INTERACTION
 84: 0x022C [0x27] REQ_SET(priority=0x0B, entity_id=Makki-Chebukki (ID: 17232280/0x0106F198), tag_num=0x4B)
 85: 0x0233 [0x27] REQ_SET(priority=0x0B, entity_id=Kukki-Chebukki (ID: 17232281/0x0106F199), tag_num=0x4B)
 86: 0x023A [0x27] REQ_SET(priority=0x0B, entity_id=Cherukiki (ID: 17232282/0x0106F19A), tag_num=0x4C)
 87: 0x0241 [0x2B] Makki-Chebukki (ID: 17232280/0x0106F198) [8298*]:
    → "Mister Nag'molada!"
 88: 0x0248 [0x23] WAIT_FOR_DIALOG_INTERACTION
 89: 0x0249 [0x52] END_LOAD_SCHEDULER: End scheduler "s057" with entities [EventEntity, EventEntity], work=129*
 90: 0x0258 [0x45] LOAD_SCHEDULED_TASK: Load scheduler "s059" with entities [EventEntity, EventEntity], work=[129*, 0*]
 91: 0x0269 [0x2A] GET_REQ_LEVEL(level=11, entity_id=Makki-Chebukki (ID: 17232280/0x0106F198))
 92: 0x026F [0x29] REQ_SET_WAIT(priority=0x08, entity_id=Makki-Chebukki (ID: 17232280/0x0106F198), tag_num=0x2B)
 93: 0x0276 [0x2B] Makki-Chebukki (ID: 17232280/0x0106F198) [8299*]:
    → "We're glad to see you're okay!"
 94: 0x027D [0x23] WAIT_FOR_DIALOG_INTERACTION
 95: 0x027E [0x29] REQ_SET_WAIT(priority=0x08, entity_id=Makki-Chebukki (ID: 17232280/0x0106F198), tag_num=0x2C)
 96: 0x0285 [0x2A] GET_REQ_LEVEL(level=11, entity_id=Kukki-Chebukki (ID: 17232281/0x0106F199))
 97: 0x028B [0x29] REQ_SET_WAIT(priority=0x08, entity_id=Kukki-Chebukki (ID: 17232281/0x0106F199), tag_num=0x2B)
 98: 0x0292 [0x2B] Kukki-Chebukki (ID: 17232281/0x0106F199) [8300*]:
    → "Lady Esha'ntarl was s`o worried about you!"
 99: 0x0299 [0x23] WAIT_FOR_DIALOG_INTERACTION
100: 0x029A [0x29] REQ_SET_WAIT(priority=0x08, entity_id=Kukki-Chebukki (ID: 17232281/0x0106F199), tag_num=0x2C)
101: 0x02A1 [0x2A] GET_REQ_LEVEL(level=11, entity_id=Cherukiki (ID: 17232282/0x0106F19A))
102: 0x02A7 [0x29] REQ_SET_WAIT(priority=0x08, entity_id=Cherukiki (ID: 17232282/0x0106F19A), tag_num=0x1B)
103: 0x02AE [0x2B] Cherukiki (ID: 17232282/0x0106F19A) [8301*]:
    → "We were s`o worried about you, too!"
104: 0x02B5 [0x23] WAIT_FOR_DIALOG_INTERACTION
105: 0x02B6 [0x29] REQ_SET_WAIT(priority=0x08, entity_id=Cherukiki (ID: 17232282/0x0106F19A), tag_num=0x1C)
106: 0x02BD [0x52] END_LOAD_SCHEDULER: End scheduler "s059" with entities [EventEntity, EventEntity], work=129*
107: 0x02CC [0x45] LOAD_SCHEDULED_TASK: Load scheduler "s060" with entities [EventEntity, EventEntity], work=[129*, 0*]
108: 0x02DD [0x27] REQ_SET(priority=0x08, entity_id=Cherukiki (ID: 17232282/0x0106F19A), tag_num=0x47)
109: 0x02E4 [0x27] REQ_SET(priority=0x08, entity_id=Kukki-Chebukki (ID: 17232281/0x0106F199), tag_num=0x46)
110: 0x02EB [0x27] REQ_SET(priority=0x08, entity_id=Makki-Chebukki (ID: 17232280/0x0106F198), tag_num=0x46)
111: 0x02F2 [0x29] REQ_SET_WAIT(priority=0x08, entity_id=Nag'molada (ID: 17232279/0x0106F197), tag_num=0x05)
112: 0x02F9 [0x2B] Nag'molada (ID: 17232279/0x0106F197) [8302*]:
    → "I don't need your platitudes! What I need to know is why you three activated the ruins of Pso'Xja!"
113: 0x0300 [0x23] WAIT_FOR_DIALOG_INTERACTION
114: 0x0301 [0x29] REQ_SET_WAIT(priority=0x08, entity_id=Nag'molada (ID: 17232279/0x0106F197), tag_num=0x05)
115: 0x0308 [0x29] REQ_SET_WAIT(priority=0x08, entity_id=Nag'molada (ID: 17232279/0x0106F197), tag_num=0x09)
116: 0x030F [0x2B] Nag'molada (ID: 17232279/0x0106F197) [8303*]:
    → "Do you realize what you've done!? Or were you just causing trouble as usual?"
117: 0x0316 [0x23] WAIT_FOR_DIALOG_INTERACTION
118: 0x0317 [0x29] REQ_SET_WAIT(priority=0x08, entity_id=Nag'molada (ID: 17232279/0x0106F197), tag_num=0x0A)
119: 0x031E [0x2A] GET_REQ_LEVEL(level=8, entity_id=Cherukiki (ID: 17232282/0x0106F19A))
120: 0x0324 [0x2A] GET_REQ_LEVEL(level=8, entity_id=Kukki-Chebukki (ID: 17232281/0x0106F199))
121: 0x032A [0x2A] GET_REQ_LEVEL(level=8, entity_id=Makki-Chebukki (ID: 17232280/0x0106F198))
122: 0x0330 [0x52] END_LOAD_SCHEDULER: End scheduler "s060" with entities [EventEntity, EventEntity], work=129*
123: 0x033F [0x45] LOAD_SCHEDULED_TASK: Load scheduler "s061" with entities [EventEntity, EventEntity], work=[129*, 0*]
124: 0x0350 [0x29] REQ_SET_WAIT(priority=0x08, entity_id=Cherukiki (ID: 17232282/0x0106F19A), tag_num=0x41)
125: 0x0357 [0x2B] Cherukiki (ID: 17232282/0x0106F19A) [8304*]:
    → "It wasn't like that!"
126: 0x035E [0x23] WAIT_FOR_DIALOG_INTERACTION
127: 0x035F [0x29] REQ_SET_WAIT(priority=0x08, entity_id=Cherukiki (ID: 17232282/0x0106F19A), tag_num=0x42)
128: 0x0366 [0x29] REQ_SET_WAIT(priority=0x08, entity_id=Kukki-Chebukki (ID: 17232281/0x0106F199), tag_num=0x16)
129: 0x036D [0x2B] Kukki-Chebukki (ID: 17232281/0x0106F199) [8305*]:
    → "It was Lady Esha'ntarl!"
130: 0x0374 [0x23] WAIT_FOR_DIALOG_INTERACTION
131: 0x0375 [0x29] REQ_SET_WAIT(priority=0x08, entity_id=Kukki-Chebukki (ID: 17232281/0x0106F199), tag_num=0x17)
132: 0x037C [0x52] END_LOAD_SCHEDULER: End scheduler "s061" with entities [EventEntity, EventEntity], work=129*
133: 0x038B [0x45] LOAD_SCHEDULED_TASK: Load scheduler "s062" with entities [EventEntity, EventEntity], work=[129*, 0*]
134: 0x039C [0x29] REQ_SET_WAIT(priority=0x08, entity_id=Makki-Chebukki (ID: 17232280/0x0106F198), tag_num=0x16)
135: 0x03A3 [0x2B] Makki-Chebukki (ID: 17232280/0x0106F198) [8306*]:
    → "She asked the adventurers to do it!"
136: 0x03AA [0x23] WAIT_FOR_DIALOG_INTERACTION
137: 0x03AB [0x29] REQ_SET_WAIT(priority=0x08, entity_id=Makki-Chebukki (ID: 17232280/0x0106F198), tag_num=0x17)
138: 0x03B2 [0x29] REQ_SET_WAIT(priority=0x08, entity_id=Nag'molada (ID: 17232279/0x0106F197), tag_num=0x0F)
139: 0x03B9 [0x2B] Nag'molada (ID: 17232279/0x0106F197) [8307*]:
    → "This is Esha'ntarl's doing?"
140: 0x03C0 [0x23] WAIT_FOR_DIALOG_INTERACTION
141: 0x03C1 [0x29] REQ_SET_WAIT(priority=0x08, entity_id=Nag'molada (ID: 17232279/0x0106F197), tag_num=0x10)
142: 0x03C8 [0x52] END_LOAD_SCHEDULER: End scheduler "s062" with entities [EventEntity, EventEntity], work=129*
143: 0x03D7 [0x45] LOAD_SCHEDULED_TASK: Load scheduler "s063" with entities [EventEntity, EventEntity], work=[129*, 0*]
144: 0x03E8 [0x7B] Nag'molada (ID: 17232279/0x0106F197) stops talking
145: 0x03ED [0x4A] Cherukiki (ID: 17232282/0x0106F19A) looks at Makki-Chebukki (ID: 17232280/0x0106F198)
146: 0x03F6 [0x4A] Kukki-Chebukki (ID: 17232281/0x0106F199) looks at Makki-Chebukki (ID: 17232280/0x0106F198)
147: 0x03FF [0x27] REQ_SET(priority=0x0B, entity_id=Nag'molada (ID: 17232279/0x0106F197), tag_num=0x42)
148: 0x0406 [0x2B] Nag'molada (ID: 17232279/0x0106F197) [8308*]:
    → "What could she be up to? Did she activate the ruins to seal Diabolos? Or could it be...?"
149: 0x040D [0x23] WAIT_FOR_DIALOG_INTERACTION
150: 0x040E [0x2A] GET_REQ_LEVEL(level=11, entity_id=Cherukiki (ID: 17232282/0x0106F19A))
151: 0x0414 [0x6F] WAIT_FRAME_DELAY: Yield until WaitTime reaches zero
152: 0x0415 [0x76] CHECK_ENTITY_RENDER_FLAGS: Wait until Cherukiki (ID: 17232282/0x0106F19A) Render.Flags0 and Render.Flags3 conditions are met
153: 0x041A [0x6F] WAIT_FRAME_DELAY: Yield until WaitTime reaches zero
154: 0x041B [0x76] CHECK_ENTITY_RENDER_FLAGS: Wait until Kukki-Chebukki (ID: 17232281/0x0106F199) Render.Flags0 and Render.Flags3 conditions are met
155: 0x0420 [0x52] END_LOAD_SCHEDULER: End scheduler "s063" with entities [EventEntity, EventEntity], work=129*
156: 0x042F [0x45] LOAD_SCHEDULED_TASK: Load scheduler "s064" with entities [EventEntity, EventEntity], work=[129*, 0*]
157: 0x0440 [0x7B] Makki-Chebukki (ID: 17232280/0x0106F198) stops talking
158: 0x0445 [0x29] REQ_SET_WAIT(priority=0x0B, entity_id=Nag'molada (ID: 17232279/0x0106F197), tag_num=0x43)
159: 0x044C [0x29] REQ_SET_WAIT(priority=0x08, entity_id=Nag'molada (ID: 17232279/0x0106F197), tag_num=0x15)
160: 0x0453 [0x29] REQ_SET_WAIT(priority=0x08, entity_id=Cherukiki (ID: 17232282/0x0106F19A), tag_num=0x0A)
161: 0x045A [0x2B] Cherukiki (ID: 17232282/0x0106F19A) [8309*]:
    → "Mister Nag'molada was really mad!"
162: 0x0461 [0x23] WAIT_FOR_DIALOG_INTERACTION
163: 0x0462 [0x29] REQ_SET_WAIT(priority=0x08, entity_id=Cherukiki (ID: 17232282/0x0106F19A), tag_num=0x0B)
164: 0x0469 [0x29] REQ_SET_WAIT(priority=0x08, entity_id=Kukki-Chebukki (ID: 17232281/0x0106F199), tag_num=0x18)
165: 0x0470 [0x2B] Kukki-Chebukki (ID: 17232281/0x0106F199) [8310*]:
    → "Mister Nag'molada had steam coming out of his ears!"
166: 0x0477 [0x23] WAIT_FOR_DIALOG_INTERACTION
167: 0x0478 [0x29] REQ_SET_WAIT(priority=0x08, entity_id=Kukki-Chebukki (ID: 17232281/0x0106F199), tag_num=0x19)
168: 0x047F [0x4B] UPDATE_ENTITY_YAW(entity=Makki-Chebukki (ID: 17232280/0x0106F198), yaw=16.8°*)
169: 0x0486 [0x6F] WAIT_FRAME_DELAY: Yield until WaitTime reaches zero
170: 0x0487 [0x76] CHECK_ENTITY_RENDER_FLAGS: Wait until Makki-Chebukki (ID: 17232280/0x0106F198) Render.Flags0 and Render.Flags3 conditions are met
171: 0x048C [0x29] REQ_SET_WAIT(priority=0x08, entity_id=Makki-Chebukki (ID: 17232280/0x0106F198), tag_num=0x18)
172: 0x0493 [0x2B] Makki-Chebukki (ID: 17232280/0x0106F198) [8311*]:
    → "What do we do? We didn't get the chance to tell him about Prishe. She's still lying in front of that tower over there."
173: 0x049A [0x23] WAIT_FOR_DIALOG_INTERACTION
174: 0x049B [0x29] REQ_SET_WAIT(priority=0x08, entity_id=Makki-Chebukki (ID: 17232280/0x0106F198), tag_num=0x19)
175: 0x04A2 [0x29] REQ_SET_WAIT(priority=0x08, entity_id=Nag'molada (ID: 17232279/0x0106F197), tag_num=0x16)
176: 0x04A9 [0x52] END_LOAD_SCHEDULER: End scheduler "s064" with entities [EventEntity, EventEntity], work=129*
177: 0x04B8 [0x45] LOAD_SCHEDULED_TASK: Load scheduler "s058" with entities [EventEntity, EventEntity], work=[129*, 0*]
178: 0x04C9 [0x27] REQ_SET(priority=0x08, entity_id=Makki-Chebukki (ID: 17232280/0x0106F198), tag_num=0x46)
179: 0x04D0 [0x2B] Makki-Chebukki (ID: 17232280/0x0106F198) [8312*]:
    → "But even if we leave her like that, she probably won't die."
180: 0x04D7 [0x23] WAIT_FOR_DIALOG_INTERACTION
181: 0x04D8 [0x2A] GET_REQ_LEVEL(level=8, entity_id=Makki-Chebukki (ID: 17232280/0x0106F198))
182: 0x04DE [0x27] REQ_SET(priority=0x08, entity_id=Kukki-Chebukki (ID: 17232281/0x0106F199), tag_num=0x46)
183: 0x04E5 [0x2B] Kukki-Chebukki (ID: 17232281/0x0106F199) [8313*]:
    → "But if Prishe finds us, we definitely WILL die."
184: 0x04EC [0x23] WAIT_FOR_DIALOG_INTERACTION
185: 0x04ED [0x2A] GET_REQ_LEVEL(level=8, entity_id=Kukki-Chebukki (ID: 17232281/0x0106F199))
186: 0x04F3 [0x27] REQ_SET(priority=0x08, entity_id=Cherukiki (ID: 17232282/0x0106F19A), tag_num=0x47)
187: 0x04FA [0x2B] Cherukiki (ID: 17232282/0x0106F19A) [8314*]:
    → "Which means..."
188: 0x0501 [0x23] WAIT_FOR_DIALOG_INTERACTION
189: 0x0502 [0x2A] GET_REQ_LEVEL(level=8, entity_id=Cherukiki (ID: 17232282/0x0106F19A))
190: 0x0508 [0x52] END_LOAD_SCHEDULER: End scheduler "s058" with entities [EventEntity, EventEntity], work=129*
191: 0x0517 [0x45] LOAD_SCHEDULED_TASK: Load scheduler "s065" with entities [EventEntity, EventEntity], work=[129*, 0*]
192: 0x0528 [0x29] REQ_SET_WAIT(priority=0x08, entity_id=Makki-Chebukki (ID: 17232280/0x0106F198), tag_num=0x08)
193: 0x052F [0x2B] Makki-Chebukki (ID: 17232280/0x0106F198) [8315*]:
    → "We leave her like that and stay alive!"
194: 0x0536 [0x23] WAIT_FOR_DIALOG_INTERACTION
195: 0x0537 [0x29] REQ_SET_WAIT(priority=0x08, entity_id=Makki-Chebukki (ID: 17232280/0x0106F198), tag_num=0x09)
196: 0x053E [0x52] END_LOAD_SCHEDULER: End scheduler "s065" with entities [EventEntity, EventEntity], work=129*
197: 0x054D [0x45] LOAD_SCHEDULED_TASK: Load scheduler "s066" with entities [EventEntity, EventEntity], work=[129*, 0*]
198: 0x055E [0x79] Makki-Chebukki (ID: 17232280/0x0106F198) looks at Nag'molada (ID: 17232279/0x0106F197) (Basic look)
199: 0x0568 [0x79] Kukki-Chebukki (ID: 17232281/0x0106F199) looks at Nag'molada (ID: 17232279/0x0106F197) (Basic look)
200: 0x0572 [0x79] Cherukiki (ID: 17232282/0x0106F19A) looks at Nag'molada (ID: 17232279/0x0106F197) (Basic look)
201: 0x057C [0x27] REQ_SET(priority=0x0B, entity_id=Makki-Chebukki (ID: 17232280/0x0106F198), tag_num=0x4D)
202: 0x0583 [0x2B] Nag'molada (ID: 17232279/0x0106F197) [8316*]:
    → "So the fifth crystal is in Al'Taieu..."
203: 0x058A [0x23] WAIT_FOR_DIALOG_INTERACTION
204: 0x058B [0x27] REQ_SET(priority=0x0B, entity_id=Nag'molada (ID: 17232279/0x0106F197), tag_num=0x44)
205: 0x0592 [0x1C] WAIT(90* ticks)
206: 0x0595 [0x45] LOAD_SCHEDULED_TASK: Load scheduler "fdo1" with entities [LocalPlayer, LocalPlayer], work=[200*, 0*]
207: 0x05A6 [0x1C] WAIT(60* ticks)
208: 0x05A9 [0x2A] GET_REQ_LEVEL(level=11, entity_id=Nag'molada (ID: 17232279/0x0106F197))
209: 0x05AF [0x52] END_LOAD_SCHEDULER: End scheduler "s066" with entities [EventEntity, EventEntity], work=129*
210: 0x05BE [0x29] REQ_SET_WAIT(priority=0x08, entity_id=LocalPlayer, tag_num=0x2E)
211: 0x05C5 [0x78] ENABLE_GAME_TIMER_RESET_WEATHER()
212: 0x05C6 [0x5C] MUSIC_CONTROL: Set Idle (Day) music to song 0*
213: 0x05CA [0x5C] MUSIC_CONTROL: Set Idle (Night) music to song 0*
214: 0x05CE [0x4E] SET_ENTITY_HIDE_FLAG: Show LocalPlayer
215: 0x05D4 [0x80] LOAD_WAIT(entity=LocalPlayer)
216: 0x05D9 [0x46] CAMERA_CONTROL: Restore default settings
217: 0x05DB [0x45] LOAD_SCHEDULED_TASK: Load scheduler "fdi1" with entities [LocalPlayer, LocalPlayer], work=[200*, 0*]
218: 0x05EC [0x20] SET_CLI_EVENT_UC_FLAG: Unlock player control
219: 0x05EE [0x21] END_EVENT
220: 0x05EF [0x00] END_REQSTACK()
```

### Event 207

#### Metadata

| Field        | Value      |
|--------------|------------|
| Entrypoint   | 0x05F0     |
| Data Size    | 3325 bytes |
| Instructions | 459        |

```
      00 01 02 03 04 05 06 07  08 09 0A 0B 0C 0D 0E 0F
      -- -- -- -- -- -- -- --  -- -- -- -- -- -- -- --
05F0: 20 01 42 46 01 45 00 80  F8 FF FF 7F F8 FF FF 7F   .BF.E..........
0600: 66 64 6F 31 01 80 1C 02  80 38 03 80 29 08 F0 FF  fdo1.....8..)...
0610: FF 7F 2A 29 0B F0 FF FF  7F 30 29 0B 9C F1 06 01  ..*).....0).....
0620: 48 29 0B 6B F1 06 01 4E  29 0B 6C F1 06 01 4D 29  H).k...N).l...M)
0630: 0B 6A F1 06 01 59 29 0B  9B F1 06 01 30 4A 6A F1  .j...Y).....0Jj.
0640: 06 01 F0 FF FF 7F 4A F0  FF FF 7F 6A F1 06 01 4A  ......J....j...J
0650: 6B F1 06 01 F0 FF FF 7F  4A 6C F1 06 01 F0 FF FF  k.......Jl......
0660: 7F 6F 76 6A F1 06 01 6F  76 F0 FF FF 7F 6F 76 6B  .ovj...ov....ovk
0670: F1 06 01 6F 76 6C F1 06  01 4E 01 9B F1 06 01 4E  ...ovl...N.....N
0680: 00 9C F1 06 01 4E 00 6A  F1 06 01 4E 00 6B F1 06  .....N.j...N.k..
0690: 01 4E 00 6C F1 06 01 80  6A F1 06 01 80 6B F1 06  .N.l....j....k..
06A0: 01 80 6C F1 06 01 80 9C  F1 06 01 92 01 6A F1 06  ..l..........j..
06B0: 01 92 01 6B F1 06 01 92  01 6C F1 06 01 5C 00 27  ...k.....l...\.'
06C0: 80 5C 01 27 80 45 27 80  F8 FF FF 7F F8 FF FF 7F  .\.'.E'.........
06D0: 73 30 39 39 01 80 45 00  80 F8 FF FF 7F F8 FF FF  s099..E.........
06E0: 7F 66 64 69 31 01 80 29  08 6A F1 06 01 01 2B 6A  .fdi1..).j....+j
06F0: F1 06 01 28 80 23 29 08  6A F1 06 01 02 29 08 6B  ...(.#).j....).k
0700: F1 06 01 09 2B 6B F1 06  01 29 80 23 29 08 6B F1  ....+k...).#).k.
0710: 06 01 0A 4A 6C F1 06 01  9C F1 06 01 6F 76 6C F1  ...Jl.......ovl.
0720: 06 01 29 08 6C F1 06 01  0B 2B 6C F1 06 01 2A 80  ..).l....+l...*.
0730: 23 4A 6B F1 06 01 9C F1  06 01 79 00 F0 FF FF 7F  #Jk.......y.....
0740: 9C F1 06 01 4B F0 FF FF  7F 2B 80 29 08 6C F1 06  ....K....+.).l..
0750: 01 0C 52 27 80 F8 FF FF  7F F8 FF FF 7F 73 30 39  ..R'.........s09
0760: 39 45 27 80 F8 FF FF 7F  F8 FF FF 7F 73 31 30 31  9E'.........s101
0770: 01 80 27 0B 9C F1 06 01  49 2B 9C F1 06 01 2C 80  ..'.....I+....,.
0780: 23 52 27 80 F8 FF FF 7F  F8 FF FF 7F 73 31 30 31  #R'.........s101
0790: 45 00 80 F0 FF FF 7F F0  FF FF 7F 6F 76 6C 31 01  E..........ovl1.
07A0: 80 45 27 80 F8 FF FF 7F  F8 FF FF 7F 73 31 30 30  .E'.........s100
07B0: 01 80 2A 0B 9C F1 06 01  29 08 9C F1 06 01 01 2B  ..*.....)......+
07C0: 9C F1 06 01 2D 80 23 2B  9C F1 06 01 2E 80 23 29  ....-.#+......#)
07D0: 08 9C F1 06 01 02 52 27  80 F8 FF FF 7F F8 FF FF  ......R'........
07E0: 7F 73 31 30 30 45 27 80  F8 FF FF 7F F8 FF FF 7F  .s100E'.........
07F0: 73 31 30 32 01 80 29 08  6A F1 06 01 07 2B 6A F1  s102..).j....+j.
0800: 06 01 2F 80 23 29 08 6A  F1 06 01 08 29 08 6B F1  ../.#).j....).k.
0810: 06 01 1D 2B 6B F1 06 01  30 80 23 29 08 6B F1 06  ...+k...0.#).k..
0820: 01 1E 29 0B F0 FF FF 7F  31 52 27 80 F8 FF FF 7F  ..).....1R'.....
0830: F8 FF FF 7F 73 31 30 32  02 09 10 31 80 00 54 08  ....s102...1..T.
0840: 45 27 80 F8 FF FF 7F F8  FF FF 7F 73 31 32 34 01  E'.........s124.
0850: 80 01 81 08 02 09 10 32  80 00 70 08 45 27 80 F8  .......2..p.E'..
0860: FF FF 7F F8 FF FF 7F 73  31 32 34 01 80 01 81 08  .......s124.....
0870: 45 27 80 F8 FF FF 7F F8  FF FF 7F 73 31 30 33 01  E'.........s103.
0880: 80 79 00 6A F1 06 01 9C  F1 06 01 27 0B 9C F1 06  .y.j.......'....
0890: 01 4A 2B 9C F1 06 01 33  80 23 2A 0B 9C F1 06 01  .J+....3.#*.....
08A0: 29 08 6C F1 06 01 09 2B  6C F1 06 01 34 80 23 29  ).l....+l...4.#)
08B0: 08 6C F1 06 01 0A 02 09  10 31 80 00 D0 08 52 27  .l.......1....R'
08C0: 80 F8 FF FF 7F F8 FF FF  7F 73 31 32 34 01 F9 08  .........s124...
08D0: 02 09 10 32 80 00 EA 08  52 27 80 F8 FF FF 7F F8  ...2....R'......
08E0: FF FF 7F 73 31 32 34 01  F9 08 52 27 80 F8 FF FF  ...s124...R'....
08F0: 7F F8 FF FF 7F 73 31 30  33 45 27 80 F8 FF FF 7F  .....s103E'.....
0900: F8 FF FF 7F 73 31 30 34  01 80 4A F0 FF FF 7F 6A  ....s104..J....j
0910: F1 06 01 7B 6A F1 06 01  79 00 6C F1 06 01 6A F1  ...{j...y.l...j.
0920: 06 01 4A 6B F1 06 01 6A  F1 06 01 4B 6C F1 06 01  ..Jk...j...Kl...
0930: 35 80 29 08 6A F1 06 01  01 2B 6A F1 06 01 36 80  5.).j....+j...6.
0940: 23 29 08 6A F1 06 01 02  6F 76 6C F1 06 01 27 08  #).j....ovl...'.
0950: 6A F1 06 01 30 2B 6A F1  06 01 37 80 23 2A 08 6A  j...0+j...7.#*.j
0960: F1 06 01 6F 76 6B F1 06  01 6F 76 F0 FF FF 7F 52  ...ovk...ov....R
0970: 27 80 F8 FF FF 7F F8 FF  FF 7F 73 31 30 34 45 00  '.........s104E.
0980: 80 F0 FF FF 7F F0 FF FF  7F 6F 76 6C 31 01 80 45  .........ovl1..E
0990: 27 80 F8 FF FF 7F F8 FF  FF 7F 73 31 30 35 01 80  '.........s105..
09A0: 79 00 6C F1 06 01 6B F1  06 01 79 00 6A F1 06 01  y.l...k...y.j...
09B0: 6B F1 06 01 29 08 6B F1  06 01 03 2B 6B F1 06 01  k...).k....+k...
09C0: 38 80 23 29 08 6B F1 06  01 04 29 08 6B F1 06 01  8.#).k....).k...
09D0: 05 2B 6B F1 06 01 39 80  23 29 08 6B F1 06 01 06  .+k...9.#).k....
09E0: 79 00 6C F1 06 01 6A F1  06 01 7B 6A F1 06 01 29  y.l...j...{j...)
09F0: 08 6A F1 06 01 03 2B 6A  F1 06 01 3A 80 23 29 08  .j....+j...:.#).
0A00: 6A F1 06 01 04 52 27 80  F8 FF FF 7F F8 FF FF 7F  j....R'.........
0A10: 73 31 30 35 45 27 80 F8  FF FF 7F F8 FF FF 7F 73  s105E'.........s
0A20: 31 30 36 01 80 4E 00 9B  F1 06 01 29 08 6A F1 06  106..N.....).j..
0A30: 01 05 7B 6C F1 06 01 79  00 6A F1 06 01 6C F1 06  ..{l...y.j...l..
0A40: 01 79 00 6B F1 06 01 6C  F1 06 01 79 00 F0 FF FF  .y.k...l...y....
0A50: 7F 6C F1 06 01 29 08 6C  F1 06 01 1D 2B 6C F1 06  .l...).l....+l..
0A60: 01 3B 80 23 29 08 6C F1  06 01 1E 5D 01 80 02 80  .;.#).l....]....
0A70: 29 08 6A F1 06 01 06 1D  3C 80 23 80 9B F1 06 01  ).j.....<.#.....
0A80: 4A 6A F1 06 01 9B F1 06  01 4A 6C F1 06 01 9B F1  Jj.......Jl.....
0A90: 06 01 4A 6B F1 06 01 9B  F1 06 01 4A 9C F1 06 01  ..Jk.......J....
0AA0: 9B F1 06 01 4A F0 FF FF  7F 9B F1 06 01 27 0B 9B  ....J........'..
0AB0: F1 06 01 31 1C 3D 80 52  27 80 F8 FF FF 7F F8 FF  ...1.=.R'.......
0AC0: FF 7F 73 31 30 36 45 27  80 F8 FF FF 7F F8 FF FF  ..s106E'........
0AD0: 7F 73 31 30 37 01 80 5C  00 3E 80 5C 01 3E 80 1C  .s107..\.>.\.>..
0AE0: 02 80 27 0B 9C F1 06 01  4B 2B 9C F1 06 01 3F 80  ..'.....K+....?.
0AF0: 23 2A 0B 9C F1 06 01 2A  0B 9B F1 06 01 52 27 80  #*.....*.....R'.
0B00: F8 FF FF 7F F8 FF FF 7F  73 31 30 37 45 27 80 F8  ........s107E'..
0B10: FF FF 7F F8 FF FF 7F 73  31 30 38 01 80 4A 9C F1  .......s108..J..
0B20: 06 01 9B F1 06 01 4A F0  FF FF 7F 9B F1 06 01 79  ......J........y
0B30: 00 9B F1 06 01 9C F1 06  01 2B 9B F1 06 01 40 80  .........+....@.
0B40: 23 29 08 9B F1 06 01 0E  2B 9B F1 06 01 41 80 23  #)......+....A.#
0B50: 29 08 9B F1 06 01 0F 6F  76 9C F1 06 01 6F 76 F0  )......ov....ov.
0B60: FF FF 7F 52 27 80 F8 FF  FF 7F F8 FF FF 7F 73 31  ...R'.........s1
0B70: 30 38 45 00 80 F0 FF FF  7F F0 FF FF 7F 6F 76 6C  08E..........ovl
0B80: 31 01 80 45 27 80 F8 FF  FF 7F F8 FF FF 7F 73 31  1..E'.........s1
0B90: 30 39 01 80 4A 6B F1 06  01 6C F1 06 01 79 00 6A  09..Jk...l...y.j
0BA0: F1 06 01 6C F1 06 01 29  08 9B F1 06 01 10 29 08  ...l...)......).
0BB0: 6C F1 06 01 07 2B 6C F1  06 01 42 80 23 29 08 6C  l....+l...B.#).l
0BC0: F1 06 01 08 29 08 9B F1  06 01 11 52 27 80 F8 FF  ....)......R'...
0BD0: FF 7F F8 FF FF 7F 73 31  30 39 45 27 80 F8 FF FF  ......s109E'....
0BE0: 7F F8 FF FF 7F 73 31 31  30 01 80 79 00 6A F1 06  .....s110..y.j..
0BF0: 01 9B F1 06 01 4A 6B F1  06 01 9B F1 06 01 29 08  .....Jk.......).
0C00: 9C F1 06 01 0B 2B 9C F1  06 01 43 80 23 29 08 9C  .....+....C.#)..
0C10: F1 06 01 0C 29 08 9B F1  06 01 05 2B 9B F1 06 01  ....)......+....
0C20: 44 80 23 2B 9C F1 06 01  45 80 23 6F 76 6B F1 06  D.#+....E.#ovk..
0C30: 01 52 27 80 F8 FF FF 7F  F8 FF FF 7F 73 31 31 30  .R'.........s110
0C40: 45 00 80 F0 FF FF 7F F0  FF FF 7F 6F 76 6C 31 01  E..........ovl1.
0C50: 80 45 27 80 F8 FF FF 7F  F8 FF FF 7F 73 31 30 39  .E'.........s109
0C60: 01 80 29 08 6A F1 06 01  07 29 08 6B F1 06 01 07  ..).j....).k....
0C70: 29 08 6C F1 06 01 07 2B  6C F1 06 01 46 80 23 29  ).l....+l...F.#)
0C80: 08 6C F1 06 01 08 29 08  6A F1 06 01 08 29 08 6B  .l....).j....).k
0C90: F1 06 01 08 29 08 9B F1  06 01 06 52 27 80 F8 FF  ....)......R'...
0CA0: FF 7F F8 FF FF 7F 73 31  30 39 45 27 80 F8 FF FF  ......s109E'....
0CB0: 7F F8 FF FF 7F 73 31 31  31 01 80 29 08 9C F1 06  .....s111..)....
0CC0: 01 01 2B 9C F1 06 01 47  80 23 29 08 9C F1 06 01  ..+....G.#).....
0CD0: 02 02 07 10 01 80 00 F2  0C 29 08 9B F1 06 01 07  .........)......
0CE0: 2B 9B F1 06 01 48 80 23  29 08 9B F1 06 01 08 01  +....H.#).......
0CF0: 08 0D 29 08 9B F1 06 01  07 2B 9B F1 06 01 49 80  ..)......+....I.
0D00: 23 29 08 9B F1 06 01 08  52 27 80 F8 FF FF 7F F8  #)......R'......
0D10: FF FF 7F 73 31 31 31 45  27 80 F8 FF FF 7F F8 FF  ...s111E'.......
0D20: FF 7F 73 31 31 32 01 80  02 07 10 01 80 00 48 0D  ..s112........H.
0D30: 27 0B 9B F1 06 01 32 2B  9B F1 06 01 4A 80 23 2A  '.....2+....J.#*
0D40: 0B 9B F1 06 01 01 5D 0D  27 0B 9B F1 06 01 32 2B  ......].'.....2+
0D50: 9B F1 06 01 4B 80 23 2A  0B 9B F1 06 01 4A 9C F1  ....K.#*.....J..
0D60: 06 01 9B F1 06 01 6F 76  9C F1 06 01 02 07 10 01  ......ov........
0D70: 80 00 7F 0D 2B 9C F1 06  01 4C 80 23 01 87 0D 2B  ....+....L.#...+
0D80: 9C F1 06 01 4D 80 23 52  27 80 F8 FF FF 7F F8 FF  ....M.#R'.......
0D90: FF 7F 73 31 31 32 45 27  80 F8 FF FF 7F F8 FF FF  ..s112E'........
0DA0: 7F 73 31 31 33 01 80 4A  9B F1 06 01 9C F1 06 01  .s113..J........
0DB0: 6F 76 9B F1 06 01 29 08  9B F1 06 01 0E 2B 9B F1  ov....)......+..
0DC0: 06 01 4E 80 23 2B 9B F1  06 01 4F 80 23 29 08 9B  ..N.#+....O.#)..
0DD0: F1 06 01 0F 52 27 80 F8  FF FF 7F F8 FF FF 7F 73  ....R'.........s
0DE0: 31 31 33 45 27 80 F8 FF  FF 7F F8 FF FF 7F 73 31  113E'.........s1
0DF0: 31 34 01 80 29 08 9B F1  06 01 10 2B 9B F1 06 01  14..)......+....
0E00: 50 80 23 2B 9B F1 06 01  51 80 23 29 08 9B F1 06  P.#+....Q.#)....
0E10: 01 11 52 27 80 F8 FF FF  7F F8 FF FF 7F 73 31 31  ..R'.........s11
0E20: 34 45 27 80 F8 FF FF 7F  F8 FF FF 7F 73 31 31 35  4E'.........s115
0E30: 01 80 29 08 9B F1 06 01  05 29 08 9C F1 06 01 03  ..)......)......
0E40: 2B 9C F1 06 01 52 80 23  29 08 9C F1 06 01 04 29  +....R.#)......)
0E50: 08 9C F1 06 01 05 2B 9C  F1 06 01 53 80 23 29 08  ......+....S.#).
0E60: 9C F1 06 01 06 29 08 9B  F1 06 01 06 52 27 80 F8  .....)......R'..
0E70: FF FF 7F F8 FF FF 7F 73  31 31 35 45 27 80 F8 FF  .......s115E'...
0E80: FF 7F F8 FF FF 7F 73 31  31 36 01 80 2B 9B F1 06  ......s116..+...
0E90: 01 54 80 23 29 08 9B F1  06 01 07 2B 9B F1 06 01  .T.#)......+....
0EA0: 55 80 23 2B 9B F1 06 01  56 80 23 29 08 9B F1 06  U.#+....V.#)....
0EB0: 01 08 52 27 80 F8 FF FF  7F F8 FF FF 7F 73 31 31  ..R'.........s11
0EC0: 36 45 27 80 F8 FF FF 7F  F8 FF FF 7F 73 31 31 37  6E'.........s117
0ED0: 01 80 7B 9C F1 06 01 7C  00 9C F1 06 01 2B 9C F1  ..{....|.....+..
0EE0: 06 01 57 80 23 7C 01 9C  F1 06 01 52 27 80 F8 FF  ..W.#|.....R'...
0EF0: FF 7F F8 FF FF 7F 73 31  31 37 45 27 80 F8 FF FF  ......s117E'....
0F00: 7F F8 FF FF 7F 73 31 31  38 01 80 79 00 9C F1 06  .....s118..y....
0F10: 01 9B F1 06 01 27 0B 9B  F1 06 01 33 2B 9B F1 06  .....'.....3+...
0F20: 01 58 80 23 2A 0B 9B F1  06 01 4A 9B F1 06 01 9C  .X.#*.....J.....
0F30: F1 06 01 6F 76 9B F1 06  01 29 08 9B F1 06 01 01  ...ov....)......
0F40: 2B 9B F1 06 01 59 80 23  29 08 9B F1 06 01 02 29  +....Y.#)......)
0F50: 08 9B F1 06 01 03 29 08  6A F1 06 01 07 29 08 6B  ......).j....).k
0F60: F1 06 01 07 29 08 6C F1  06 01 07 2B 9C F1 06 01  ....).l....+....
0F70: 5A 80 23 29 08 6C F1 06  01 08 29 08 6A F1 06 01  Z.#).l....).j...
0F80: 08 29 08 6B F1 06 01 08  29 08 9B F1 06 01 04 52  .).k....)......R
0F90: 27 80 F8 FF FF 7F F8 FF  FF 7F 73 31 31 38 45 27  '.........s118E'
0FA0: 80 F8 FF FF 7F F8 FF FF  7F 73 31 31 39 01 80 27  .........s119..'
0FB0: 0B 9B F1 06 01 34 1C 5B  80 4A 6C F1 06 01 9B F1  .....4.[.Jl.....
0FC0: 06 01 4A 6A F1 06 01 9B  F1 06 01 4A 6B F1 06 01  ..Jj.......Jk...
0FD0: 9B F1 06 01 6F 76 6C F1  06 01 6F 76 6A F1 06 01  ....ovl...ovj...
0FE0: 6F 76 6B F1 06 01 5D 01  80 5B 80 45 00 80 F0 FF  ovk...]..[.E....
0FF0: FF 7F F0 FF FF 7F 66 64  6F 31 01 80 1C 02 80 7B  ......fdo1.....{
1000: 9C F1 06 01 29 0B 9C F1  06 01 4C 52 27 80 F8 FF  ....).....LR'...
1010: FF 7F F8 FF FF 7F 73 31  31 39 1C 02 80 45 27 80  ......s119...E'.
1020: F8 FF FF 7F F8 FF FF 7F  73 31 32 30 01 80 45 00  ........s120..E.
1030: 80 F0 FF FF 7F F0 FF FF  7F 66 64 69 31 01 80 1C  .........fdi1...
1040: 26 80 79 00 F0 FF FF 7F  9C F1 06 01 79 00 6C F1  &.y.........y.l.
1050: 06 01 9C F1 06 01 79 00  6A F1 06 01 9C F1 06 01  ......y.j.......
1060: 79 00 6B F1 06 01 9C F1  06 01 29 08 9C F1 06 01  y.k.......).....
1070: 09 2B 9C F1 06 01 5C 80  23 29 08 9C F1 06 01 0A  .+....\.#)......
1080: 52 27 80 F8 FF FF 7F F8  FF FF 7F 73 31 32 30 02  R'.........s120.
1090: 09 10 31 80 00 AB 10 45  27 80 F8 FF FF 7F F8 FF  ..1....E'.......
10A0: FF 7F 73 31 32 35 01 80  01 D8 10 02 09 10 32 80  ..s125........2.
10B0: 00 C7 10 45 27 80 F8 FF  FF 7F F8 FF FF 7F 73 31  ...E'.........s1
10C0: 32 35 01 80 01 D8 10 45  27 80 F8 FF FF 7F F8 FF  25.....E'.......
10D0: FF 7F 73 31 32 31 01 80  4A 6C F1 06 01 F0 FF FF  ..s121..Jl......
10E0: 7F 4A 6A F1 06 01 F0 FF  FF 7F 4A 6B F1 06 01 F0  .Jj.......Jk....
10F0: FF FF 7F 27 0B 9C F1 06  01 4D 2B 9C F1 06 01 5D  ...'.....M+....]
1100: 80 23 2A 0B 9C F1 06 01  4A 9C F1 06 01 F0 FF FF  .#*.....J.......
1110: 7F 6F 76 9C F1 06 01 29  08 9C F1 06 01 0D 2B 9C  .ov....)......+.
1120: F1 06 01 5E 80 23 29 08  9C F1 06 01 0E 6F 76 6C  ...^.#)......ovl
1130: F1 06 01 6F 76 6A F1 06  01 6F 76 6B F1 06 01 02  ...ovj...ovk....
1140: 09 10 31 80 00 59 11 52  27 80 F8 FF FF 7F F8 FF  ..1..Y.R'.......
1150: FF 7F 73 31 32 35 01 82  11 02 09 10 32 80 00 73  ..s125......2..s
1160: 11 52 27 80 F8 FF FF 7F  F8 FF FF 7F 73 31 32 35  .R'.........s125
1170: 01 82 11 52 27 80 F8 FF  FF 7F F8 FF FF 7F 73 31  ...R'.........s1
1180: 32 31 02 09 10 5F 80 00  9E 11 45 27 80 F8 FF FF  21..._....E'....
1190: 7F F8 FF FF 7F 73 31 32  36 01 80 01 CB 11 02 09  .....s126.......
11A0: 10 60 80 00 BA 11 45 27  80 F8 FF FF 7F F8 FF FF  .`....E'........
11B0: 7F 73 31 32 36 01 80 01  CB 11 45 27 80 F8 FF FF  .s126.....E'....
11C0: 7F F8 FF FF 7F 73 31 32  32 01 80 79 00 9C F1 06  .....s122..y....
11D0: 01 6A F1 06 01 27 0B F0  FF FF 7F 32 27 08 6A F1  .j...'.....2'.j.
11E0: 06 01 32 27 08 6B F1 06  01 32 27 08 6C F1 06 01  ..2'.k...2'.l...
11F0: 32 2B 6A F1 06 01 61 80  23 2B 6B F1 06 01 62 80  2+j...a.#+k...b.
1200: 23 2B 6C F1 06 01 63 80  23 4B 9C F1 06 01 64 80  #+l...c.#K....d.
1210: 6F 76 9C F1 06 01 02 09  10 5F 80 00 30 12 52 27  ov......._..0.R'
1220: 80 F8 FF FF 7F F8 FF FF  7F 73 31 32 36 01 59 12  .........s126.Y.
1230: 02 09 10 60 80 00 4A 12  52 27 80 F8 FF FF 7F F8  ...`..J.R'......
1240: FF FF 7F 73 31 32 36 01  59 12 52 27 80 F8 FF FF  ...s126.Y.R'....
1250: 7F F8 FF FF 7F 73 31 32  32 45 27 80 F8 FF FF 7F  .....s122E'.....
1260: F8 FF FF 7F 73 31 32 33  01 80 7B 9C F1 06 01 29  ....s123..{....)
1270: 08 9C F1 06 01 01 2B 9C  F1 06 01 65 80 23 29 08  ......+....e.#).
1280: 9C F1 06 01 02 27 0B 9C  F1 06 01 4E 1C 02 80 45  .....'.....N...E
1290: 00 80 F0 FF FF 7F F0 FF  FF 7F 66 64 6F 31 01 80  ..........fdo1..
12A0: 1C 5B 80 52 27 80 F8 FF  FF 7F F8 FF FF 7F 73 31  .[.R'.........s1
12B0: 32 33 45 66 80 F0 FF FF  7F F0 FF FF 7F 71 73 74  23Ef.........qst
12C0: 63 01 80 5C 00 01 80 5C  01 01 80 4E 00 F0 FF FF  c..\...\...N....
12D0: 7F 80 F0 FF FF 7F 46 00  45 00 80 F0 FF FF 7F F0  ......F.E.......
12E0: FF FF 7F 66 64 69 31 01  80 20 00 21 00           ...fdi1.. .!.   
```

#### Opcodes

```
  0: 0x05F0 [0x20] SET_CLI_EVENT_UC_FLAG: Lock player control
  1: 0x05F2 [0x42] SET_CLI_EVENT_CANCEL_DATA()
  2: 0x05F3 [0x46] CAMERA_CONTROL: Disable user control
  3: 0x05F5 [0x45] LOAD_SCHEDULED_TASK: Load scheduler "fdo1" with entities [EventEntity, EventEntity], work=[200*, 0*]
  4: 0x0606 [0x1C] WAIT(60* ticks)
  5: 0x0609 [0x38] SET_CLIENT_EVENT_MODE(mode=19*)
  6: 0x060C [0x29] REQ_SET_WAIT(priority=0x08, entity_id=LocalPlayer, tag_num=0x2A)
  7: 0x0613 [0x29] REQ_SET_WAIT(priority=0x0B, entity_id=LocalPlayer, tag_num=0x30)
  8: 0x061A [0x29] REQ_SET_WAIT(priority=0x0B, entity_id=Ildy-Goldy (ID: 17232284/0x0106F19C), tag_num=0x48)
  9: 0x0621 [0x29] REQ_SET_WAIT(priority=0x0B, entity_id=Potete (ID: 17232235/0x0106F16B), tag_num=0x4E)
 10: 0x0628 [0x29] REQ_SET_WAIT(priority=0x0B, entity_id=Leigon-Moigon (ID: 17232236/0x0106F16C), tag_num=0x4D)
 11: 0x062F [0x29] REQ_SET_WAIT(priority=0x0B, entity_id=Torino-Samarino (ID: 17232234/0x0106F16A), tag_num=0x59)
 12: 0x0636 [0x29] REQ_SET_WAIT(priority=0x0B, entity_id=Shikaree Y (ID: 17232283/0x0106F19B), tag_num=0x30)
 13: 0x063D [0x4A] Torino-Samarino (ID: 17232234/0x0106F16A) looks at LocalPlayer
 14: 0x0646 [0x4A] LocalPlayer looks at Torino-Samarino (ID: 17232234/0x0106F16A)
 15: 0x064F [0x4A] Potete (ID: 17232235/0x0106F16B) looks at LocalPlayer
 16: 0x0658 [0x4A] Leigon-Moigon (ID: 17232236/0x0106F16C) looks at LocalPlayer
 17: 0x0661 [0x6F] WAIT_FRAME_DELAY: Yield until WaitTime reaches zero
 18: 0x0662 [0x76] CHECK_ENTITY_RENDER_FLAGS: Wait until Torino-Samarino (ID: 17232234/0x0106F16A) Render.Flags0 and Render.Flags3 conditions are met
 19: 0x0667 [0x6F] WAIT_FRAME_DELAY: Yield until WaitTime reaches zero
 20: 0x0668 [0x76] CHECK_ENTITY_RENDER_FLAGS: Wait until LocalPlayer Render.Flags0 and Render.Flags3 conditions are met
 21: 0x066D [0x6F] WAIT_FRAME_DELAY: Yield until WaitTime reaches zero
 22: 0x066E [0x76] CHECK_ENTITY_RENDER_FLAGS: Wait until Potete (ID: 17232235/0x0106F16B) Render.Flags0 and Render.Flags3 conditions are met
 23: 0x0673 [0x6F] WAIT_FRAME_DELAY: Yield until WaitTime reaches zero
 24: 0x0674 [0x76] CHECK_ENTITY_RENDER_FLAGS: Wait until Leigon-Moigon (ID: 17232236/0x0106F16C) Render.Flags0 and Render.Flags3 conditions are met
 25: 0x0679 [0x4E] SET_ENTITY_HIDE_FLAG: Hide Shikaree Y (ID: 17232283/0x0106F19B)
 26: 0x067F [0x4E] SET_ENTITY_HIDE_FLAG: Show Ildy-Goldy (ID: 17232284/0x0106F19C)
 27: 0x0685 [0x4E] SET_ENTITY_HIDE_FLAG: Show Torino-Samarino (ID: 17232234/0x0106F16A)
 28: 0x068B [0x4E] SET_ENTITY_HIDE_FLAG: Show Potete (ID: 17232235/0x0106F16B)
 29: 0x0691 [0x4E] SET_ENTITY_HIDE_FLAG: Show Leigon-Moigon (ID: 17232236/0x0106F16C)
 30: 0x0697 [0x80] LOAD_WAIT(entity=Torino-Samarino (ID: 17232234/0x0106F16A))
 31: 0x069C [0x80] LOAD_WAIT(entity=Potete (ID: 17232235/0x0106F16B))
 32: 0x06A1 [0x80] LOAD_WAIT(entity=Leigon-Moigon (ID: 17232236/0x0106F16C))
 33: 0x06A6 [0x80] LOAD_WAIT(entity=Ildy-Goldy (ID: 17232284/0x0106F19C))
 34: 0x06AB [0x92] Torino-Samarino (ID: 17232234/0x0106F16A)->Render.Flags3 ^= 0x01
 35: 0x06B1 [0x92] Potete (ID: 17232235/0x0106F16B)->Render.Flags3 ^= 0x01
 36: 0x06B7 [0x92] Leigon-Moigon (ID: 17232236/0x0106F16C)->Render.Flags3 ^= 0x01
 37: 0x06BD [0x5C] MUSIC_CONTROL: Set Idle (Day) music to song 127*
 38: 0x06C1 [0x5C] MUSIC_CONTROL: Set Idle (Night) music to song 127*
 39: 0x06C5 [0x45] LOAD_SCHEDULED_TASK: Load scheduler "s099" with entities [EventEntity, EventEntity], work=[127*, 0*]
 40: 0x06D6 [0x45] LOAD_SCHEDULED_TASK: Load scheduler "fdi1" with entities [EventEntity, EventEntity], work=[200*, 0*]
 41: 0x06E7 [0x29] REQ_SET_WAIT(priority=0x08, entity_id=Torino-Samarino (ID: 17232234/0x0106F16A), tag_num=0x01)
 42: 0x06EE [0x2B] Torino-Samarino (ID: 17232234/0x0106F16A) [8336*]:
    → "What do you mean, you can'taru find that Mithra?"
 43: 0x06F5 [0x23] WAIT_FOR_DIALOG_INTERACTION
 44: 0x06F6 [0x29] REQ_SET_WAIT(priority=0x08, entity_id=Torino-Samarino (ID: 17232234/0x0106F16A), tag_num=0x02)
 45: 0x06FD [0x29] REQ_SET_WAIT(priority=0x08, entity_id=Potete (ID: 17232235/0x0106F16B), tag_num=0x09)
 46: 0x0704 [0x2B] Potete (ID: 17232235/0x0106F16B) [8337*]:
    → "You would think someone wearing that much black would be easy to find in all this white..."
 47: 0x070B [0x23] WAIT_FOR_DIALOG_INTERACTION
 48: 0x070C [0x29] REQ_SET_WAIT(priority=0x08, entity_id=Potete (ID: 17232235/0x0106F16B), tag_num=0x0A)
 49: 0x0713 [0x4A] Leigon-Moigon (ID: 17232236/0x0106F16C) looks at Ildy-Goldy (ID: 17232284/0x0106F19C)
 50: 0x071C [0x6F] WAIT_FRAME_DELAY: Yield until WaitTime reaches zero
 51: 0x071D [0x76] CHECK_ENTITY_RENDER_FLAGS: Wait until Leigon-Moigon (ID: 17232236/0x0106F16C) Render.Flags0 and Render.Flags3 conditions are met
 52: 0x0722 [0x29] REQ_SET_WAIT(priority=0x08, entity_id=Leigon-Moigon (ID: 17232236/0x0106F16C), tag_num=0x0B)
 53: 0x0729 [0x2B] Leigon-Moigon (ID: 17232236/0x0106F16C) [8338*]:
    → "Waitaru! A helmed figure approaches!"
 54: 0x0730 [0x23] WAIT_FOR_DIALOG_INTERACTION
 55: 0x0731 [0x4A] Potete (ID: 17232235/0x0106F16B) looks at Ildy-Goldy (ID: 17232284/0x0106F19C)
 56: 0x073A [0x79] LocalPlayer looks at Ildy-Goldy (ID: 17232284/0x0106F19C) (Basic look)
 57: 0x0744 [0x4B] UPDATE_ENTITY_YAW(entity=LocalPlayer, yaw=11.3°*)
 58: 0x074B [0x29] REQ_SET_WAIT(priority=0x08, entity_id=Leigon-Moigon (ID: 17232236/0x0106F16C), tag_num=0x0C)
 59: 0x0752 [0x52] END_LOAD_SCHEDULER: End scheduler "s099" with entities [EventEntity, EventEntity], work=127*
 60: 0x0761 [0x45] LOAD_SCHEDULED_TASK: Load scheduler "s101" with entities [EventEntity, EventEntity], work=[127*, 0*]
 61: 0x0772 [0x27] REQ_SET(priority=0x0B, entity_id=Ildy-Goldy (ID: 17232284/0x0106F19C), tag_num=0x49)
 62: 0x0779 [0x2B] Ildy-Goldy (ID: 17232284/0x0106F19C) [8339*]:
    → "Leigon-Moigon, you also vear a helmet, remember?"
 63: 0x0780 [0x23] WAIT_FOR_DIALOG_INTERACTION
 64: 0x0781 [0x52] END_LOAD_SCHEDULER: End scheduler "s101" with entities [EventEntity, EventEntity], work=127*
 65: 0x0790 [0x45] LOAD_SCHEDULED_TASK: Load scheduler "ovl1" with entities [LocalPlayer, LocalPlayer], work=[200*, 0*]
 66: 0x07A1 [0x45] LOAD_SCHEDULED_TASK: Load scheduler "s100" with entities [EventEntity, EventEntity], work=[127*, 0*]
 67: 0x07B2 [0x2A] GET_REQ_LEVEL(level=11, entity_id=Ildy-Goldy (ID: 17232284/0x0106F19C))
 68: 0x07B8 [0x29] REQ_SET_WAIT(priority=0x08, entity_id=Ildy-Goldy (ID: 17232284/0x0106F19C), tag_num=0x01)
 69: 0x07BF [0x2B] Ildy-Goldy (ID: 17232284/0x0106F19C) [8340*]:
    → "I have discovered vhere that sin hunter vas heading. This is going to be trickier than ve thought."
 70: 0x07C6 [0x23] WAIT_FOR_DIALOG_INTERACTION
 71: 0x07C7 [0x2B] Ildy-Goldy (ID: 17232284/0x0106F19C) [8341*]:
    → "The Mithra vas looking for a frozen lake that exists somevhere in the Uleguerand Range..."
 72: 0x07CE [0x23] WAIT_FOR_DIALOG_INTERACTION
 73: 0x07CF [0x29] REQ_SET_WAIT(priority=0x08, entity_id=Ildy-Goldy (ID: 17232284/0x0106F19C), tag_num=0x02)
 74: 0x07D6 [0x52] END_LOAD_SCHEDULER: End scheduler "s100" with entities [EventEntity, EventEntity], work=127*
 75: 0x07E5 [0x45] LOAD_SCHEDULED_TASK: Load scheduler "s102" with entities [EventEntity, EventEntity], work=[127*, 0*]
 76: 0x07F6 [0x29] REQ_SET_WAIT(priority=0x08, entity_id=Torino-Samarino (ID: 17232234/0x0106F16A), tag_num=0x07)
 77: 0x07FD [0x2B] Torino-Samarino (ID: 17232234/0x0106F16A) [8342*]:
    → "Whoa! Even we Rhinostery adventurers have never set foot in that place!"
 78: 0x0804 [0x23] WAIT_FOR_DIALOG_INTERACTION
 79: 0x0805 [0x29] REQ_SET_WAIT(priority=0x08, entity_id=Torino-Samarino (ID: 17232234/0x0106F16A), tag_num=0x08)
 80: 0x080C [0x29] REQ_SET_WAIT(priority=0x08, entity_id=Potete (ID: 17232235/0x0106F16B), tag_num=0x1D)
 81: 0x0813 [0x2B] Potete (ID: 17232235/0x0106F16B) [8343*]:
    → "Justaru getting through to Xarcabard is crazy-wazy enough! Traveling beyond that is absolutaru madness!"
 82: 0x081A [0x23] WAIT_FOR_DIALOG_INTERACTION
 83: 0x081B [0x29] REQ_SET_WAIT(priority=0x08, entity_id=Potete (ID: 17232235/0x0106F16B), tag_num=0x1E)
 84: 0x0822 [0x29] REQ_SET_WAIT(priority=0x0B, entity_id=LocalPlayer, tag_num=0x31)
 85: 0x0829 [0x52] END_LOAD_SCHEDULER: End scheduler "s102" with entities [EventEntity, EventEntity], work=127*
 86: 0x0838 [0x02] IF !(Work_Zone[9] == 3*) GOTO 0x0854
 87: 0x0840 [0x45] LOAD_SCHEDULED_TASK: Load scheduler "s124" with entities [EventEntity, EventEntity], work=[127*, 0*]
 88: 0x0851 [0x01] GOTO 0x0881
 89: 0x0854 [0x02] IF !(Work_Zone[9] == 8*) GOTO 0x0870
 90: 0x085C [0x45] LOAD_SCHEDULED_TASK: Load scheduler "s124" with entities [EventEntity, EventEntity], work=[127*, 0*]
 91: 0x086D [0x01] GOTO 0x0881
 92: 0x0870 [0x45] LOAD_SCHEDULED_TASK: Load scheduler "s103" with entities [EventEntity, EventEntity], work=[127*, 0*]

SUBROUTINE_0881:
 93: 0x0881 [0x79] Torino-Samarino (ID: 17232234/0x0106F16A) looks at Ildy-Goldy (ID: 17232284/0x0106F19C) (Basic look)
 94: 0x088B [0x27] REQ_SET(priority=0x0B, entity_id=Ildy-Goldy (ID: 17232284/0x0106F19C), tag_num=0x4A)
 95: 0x0892 [0x2B] Ildy-Goldy (ID: 17232284/0x0106F19C) [8344*]:
    → "The Rhinostery's research vill take us there eventually. Should ve call Minister Rukususu...?"
 96: 0x0899 [0x23] WAIT_FOR_DIALOG_INTERACTION
 97: 0x089A [0x2A] GET_REQ_LEVEL(level=11, entity_id=Ildy-Goldy (ID: 17232284/0x0106F19C))
 98: 0x08A0 [0x29] REQ_SET_WAIT(priority=0x08, entity_id=Leigon-Moigon (ID: 17232236/0x0106F16C), tag_num=0x09)
 99: 0x08A7 [0x2B] Leigon-Moigon (ID: 17232236/0x0106F16C) [8345*]:
    → "Minister Rukususu has been allergic to Mithra ever since that incidentaru with Iru-Kuiru."
100: 0x08AE [0x23] WAIT_FOR_DIALOG_INTERACTION
101: 0x08AF [0x29] REQ_SET_WAIT(priority=0x08, entity_id=Leigon-Moigon (ID: 17232236/0x0106F16C), tag_num=0x0A)
102: 0x08B6 [0x02] IF !(Work_Zone[9] == 3*) GOTO 0x08D0
103: 0x08BE [0x52] END_LOAD_SCHEDULER: End scheduler "s124" with entities [EventEntity, EventEntity], work=127*
104: 0x08CD [0x01] GOTO 0x08F9
105: 0x08D0 [0x02] IF !(Work_Zone[9] == 8*) GOTO 0x08EA
106: 0x08D8 [0x52] END_LOAD_SCHEDULER: End scheduler "s124" with entities [EventEntity, EventEntity], work=127*
107: 0x08E7 [0x01] GOTO 0x08F9
108: 0x08EA [0x52] END_LOAD_SCHEDULER: End scheduler "s103" with entities [EventEntity, EventEntity], work=127*

SUBROUTINE_08F9:
109: 0x08F9 [0x45] LOAD_SCHEDULED_TASK: Load scheduler "s104" with entities [EventEntity, EventEntity], work=[127*, 0*]
110: 0x090A [0x4A] LocalPlayer looks at Torino-Samarino (ID: 17232234/0x0106F16A)
111: 0x0913 [0x7B] Torino-Samarino (ID: 17232234/0x0106F16A) stops talking
112: 0x0918 [0x79] Leigon-Moigon (ID: 17232236/0x0106F16C) looks at Torino-Samarino (ID: 17232234/0x0106F16A) (Basic look)
113: 0x0922 [0x4A] Potete (ID: 17232235/0x0106F16B) looks at Torino-Samarino (ID: 17232234/0x0106F16A)
114: 0x092B [0x4B] UPDATE_ENTITY_YAW(entity=Leigon-Moigon (ID: 17232236/0x0106F16C), yaw=14.0°*)
115: 0x0932 [0x29] REQ_SET_WAIT(priority=0x08, entity_id=Torino-Samarino (ID: 17232234/0x0106F16A), tag_num=0x01)
116: 0x0939 [0x2B] Torino-Samarino (ID: 17232234/0x0106F16A) [8346*]:
    → "It's not just that. The Rhinostery has been having troubles with Kazham for decades."
117: 0x0940 [0x23] WAIT_FOR_DIALOG_INTERACTION
118: 0x0941 [0x29] REQ_SET_WAIT(priority=0x08, entity_id=Torino-Samarino (ID: 17232234/0x0106F16A), tag_num=0x02)
119: 0x0948 [0x6F] WAIT_FRAME_DELAY: Yield until WaitTime reaches zero
120: 0x0949 [0x76] CHECK_ENTITY_RENDER_FLAGS: Wait until Leigon-Moigon (ID: 17232236/0x0106F16C) Render.Flags0 and Render.Flags3 conditions are met
121: 0x094E [0x27] REQ_SET(priority=0x08, entity_id=Torino-Samarino (ID: 17232234/0x0106F16A), tag_num=0x30)
122: 0x0955 [0x2B] Torino-Samarino (ID: 17232234/0x0106F16A) [8347*]:
    → "It's only since Jakoh Wahcondalo became chieftainness that things have returned to normal."
123: 0x095C [0x23] WAIT_FOR_DIALOG_INTERACTION
124: 0x095D [0x2A] GET_REQ_LEVEL(level=8, entity_id=Torino-Samarino (ID: 17232234/0x0106F16A))
125: 0x0963 [0x6F] WAIT_FRAME_DELAY: Yield until WaitTime reaches zero
126: 0x0964 [0x76] CHECK_ENTITY_RENDER_FLAGS: Wait until Potete (ID: 17232235/0x0106F16B) Render.Flags0 and Render.Flags3 conditions are met
127: 0x0969 [0x6F] WAIT_FRAME_DELAY: Yield until WaitTime reaches zero
128: 0x096A [0x76] CHECK_ENTITY_RENDER_FLAGS: Wait until LocalPlayer Render.Flags0 and Render.Flags3 conditions are met
129: 0x096F [0x52] END_LOAD_SCHEDULER: End scheduler "s104" with entities [EventEntity, EventEntity], work=127*
130: 0x097E [0x45] LOAD_SCHEDULED_TASK: Load scheduler "ovl1" with entities [LocalPlayer, LocalPlayer], work=[200*, 0*]
131: 0x098F [0x45] LOAD_SCHEDULED_TASK: Load scheduler "s105" with entities [EventEntity, EventEntity], work=[127*, 0*]
132: 0x09A0 [0x79] Leigon-Moigon (ID: 17232236/0x0106F16C) looks at Potete (ID: 17232235/0x0106F16B) (Basic look)
133: 0x09AA [0x79] Torino-Samarino (ID: 17232234/0x0106F16A) looks at Potete (ID: 17232235/0x0106F16B) (Basic look)
134: 0x09B4 [0x29] REQ_SET_WAIT(priority=0x08, entity_id=Potete (ID: 17232235/0x0106F16B), tag_num=0x03)
135: 0x09BB [0x2B] Potete (ID: 17232235/0x0106F16B) [8348*]:
    → "Maybe we should leave this game of cat and mouse to the Mithra."
136: 0x09C2 [0x23] WAIT_FOR_DIALOG_INTERACTION
137: 0x09C3 [0x29] REQ_SET_WAIT(priority=0x08, entity_id=Potete (ID: 17232235/0x0106F16B), tag_num=0x04)
138: 0x09CA [0x29] REQ_SET_WAIT(priority=0x08, entity_id=Potete (ID: 17232235/0x0106F16B), tag_num=0x05)
139: 0x09D1 [0x2B] Potete (ID: 17232235/0x0106F16B) [8349*]:
    → "This is their faultaru in the first place. That sin hunter forced the Rhinostery to make an irregular tuning fork, after all..."
140: 0x09D8 [0x23] WAIT_FOR_DIALOG_INTERACTION
141: 0x09D9 [0x29] REQ_SET_WAIT(priority=0x08, entity_id=Potete (ID: 17232235/0x0106F16B), tag_num=0x06)
142: 0x09E0 [0x79] Leigon-Moigon (ID: 17232236/0x0106F16C) looks at Torino-Samarino (ID: 17232234/0x0106F16A) (Basic look)
143: 0x09EA [0x7B] Torino-Samarino (ID: 17232234/0x0106F16A) stops talking
144: 0x09EF [0x29] REQ_SET_WAIT(priority=0x08, entity_id=Torino-Samarino (ID: 17232234/0x0106F16A), tag_num=0x03)
145: 0x09F6 [0x2B] Torino-Samarino (ID: 17232234/0x0106F16A) [8350*]:
    → "Researchers from all over the place have complained about their treatmentaru at the paws of that madwoman."
146: 0x09FD [0x23] WAIT_FOR_DIALOG_INTERACTION
147: 0x09FE [0x29] REQ_SET_WAIT(priority=0x08, entity_id=Torino-Samarino (ID: 17232234/0x0106F16A), tag_num=0x04)
148: 0x0A05 [0x52] END_LOAD_SCHEDULER: End scheduler "s105" with entities [EventEntity, EventEntity], work=127*
149: 0x0A14 [0x45] LOAD_SCHEDULED_TASK: Load scheduler "s106" with entities [EventEntity, EventEntity], work=[127*, 0*]
150: 0x0A25 [0x4E] SET_ENTITY_HIDE_FLAG: Show Shikaree Y (ID: 17232283/0x0106F19B)
151: 0x0A2B [0x29] REQ_SET_WAIT(priority=0x08, entity_id=Torino-Samarino (ID: 17232234/0x0106F16A), tag_num=0x05)
152: 0x0A32 [0x7B] Leigon-Moigon (ID: 17232236/0x0106F16C) stops talking
153: 0x0A37 [0x79] Torino-Samarino (ID: 17232234/0x0106F16A) looks at Leigon-Moigon (ID: 17232236/0x0106F16C) (Basic look)
154: 0x0A41 [0x79] Potete (ID: 17232235/0x0106F16B) looks at Leigon-Moigon (ID: 17232236/0x0106F16C) (Basic look)
155: 0x0A4B [0x79] LocalPlayer looks at Leigon-Moigon (ID: 17232236/0x0106F16C) (Basic look)
156: 0x0A55 [0x29] REQ_SET_WAIT(priority=0x08, entity_id=Leigon-Moigon (ID: 17232236/0x0106F16C), tag_num=0x1D)
157: 0x0A5C [0x2B] Leigon-Moigon (ID: 17232236/0x0106F16C) [8351*]:
    → "That's rightaru! And someone should take that helm away from her! She's a black mark on all my helmet-wearing brethren!"
158: 0x0A63 [0x23] WAIT_FOR_DIALOG_INTERACTION
159: 0x0A64 [0x29] REQ_SET_WAIT(priority=0x08, entity_id=Leigon-Moigon (ID: 17232236/0x0106F16C), tag_num=0x1E)
160: 0x0A6B [0x5D] SET_MUSIC_VOLUME(volume=0*, fade_time=60*)
161: 0x0A70 [0x29] REQ_SET_WAIT(priority=0x08, entity_id=Torino-Samarino (ID: 17232234/0x0106F16A), tag_num=0x06)
162: 0x0A77 [0x1D] PRINT_EVENT_MESSAGE(message_id=8352*)
    → "What's that about my helmet, sugarpie?"
163: 0x0A7A [0x23] WAIT_FOR_DIALOG_INTERACTION
164: 0x0A7B [0x80] LOAD_WAIT(entity=Shikaree Y (ID: 17232283/0x0106F19B))
165: 0x0A80 [0x4A] Torino-Samarino (ID: 17232234/0x0106F16A) looks at Shikaree Y (ID: 17232283/0x0106F19B)
166: 0x0A89 [0x4A] Leigon-Moigon (ID: 17232236/0x0106F16C) looks at Shikaree Y (ID: 17232283/0x0106F19B)
167: 0x0A92 [0x4A] Potete (ID: 17232235/0x0106F16B) looks at Shikaree Y (ID: 17232283/0x0106F19B)
168: 0x0A9B [0x4A] Ildy-Goldy (ID: 17232284/0x0106F19C) looks at Shikaree Y (ID: 17232283/0x0106F19B)
169: 0x0AA4 [0x4A] LocalPlayer looks at Shikaree Y (ID: 17232283/0x0106F19B)
170: 0x0AAD [0x27] REQ_SET(priority=0x0B, entity_id=Shikaree Y (ID: 17232283/0x0106F19B), tag_num=0x31)
171: 0x0AB4 [0x1C] WAIT(10* ticks)
172: 0x0AB7 [0x52] END_LOAD_SCHEDULER: End scheduler "s106" with entities [EventEntity, EventEntity], work=127*
173: 0x0AC6 [0x45] LOAD_SCHEDULED_TASK: Load scheduler "s107" with entities [EventEntity, EventEntity], work=[127*, 0*]
174: 0x0AD7 [0x5C] MUSIC_CONTROL: Set Idle (Day) music to song 231*
175: 0x0ADB [0x5C] MUSIC_CONTROL: Set Idle (Night) music to song 231*
176: 0x0ADF [0x1C] WAIT(60* ticks)
177: 0x0AE2 [0x27] REQ_SET(priority=0x0B, entity_id=Ildy-Goldy (ID: 17232284/0x0106F19C), tag_num=0x4B)
178: 0x0AE9 [0x2B] Ildy-Goldy (ID: 17232284/0x0106F19C) [8353*]:
    → "Shikaree Y! You're okay!"
179: 0x0AF0 [0x23] WAIT_FOR_DIALOG_INTERACTION
180: 0x0AF1 [0x2A] GET_REQ_LEVEL(level=11, entity_id=Ildy-Goldy (ID: 17232284/0x0106F19C))
181: 0x0AF7 [0x2A] GET_REQ_LEVEL(level=11, entity_id=Shikaree Y (ID: 17232283/0x0106F19B))
182: 0x0AFD [0x52] END_LOAD_SCHEDULER: End scheduler "s107" with entities [EventEntity, EventEntity], work=127*
183: 0x0B0C [0x45] LOAD_SCHEDULED_TASK: Load scheduler "s108" with entities [EventEntity, EventEntity], work=[127*, 0*]
184: 0x0B1D [0x4A] Ildy-Goldy (ID: 17232284/0x0106F19C) looks at Shikaree Y (ID: 17232283/0x0106F19B)
185: 0x0B26 [0x4A] LocalPlayer looks at Shikaree Y (ID: 17232283/0x0106F19B)
186: 0x0B2F [0x79] Shikaree Y (ID: 17232283/0x0106F19B) looks at Ildy-Goldy (ID: 17232284/0x0106F19C) (Basic look)
187: 0x0B39 [0x2B] Shikaree Y (ID: 17232283/0x0106F19B) [8354*]:
    → "So sorry. I seem to have had your little hearts all aflutter."
188: 0x0B40 [0x23] WAIT_FOR_DIALOG_INTERACTION
189: 0x0B41 [0x29] REQ_SET_WAIT(priority=0x08, entity_id=Shikaree Y (ID: 17232283/0x0106F19B), tag_num=0x0E)
190: 0x0B48 [0x2B] Shikaree Y (ID: 17232283/0x0106F19B) [8355*]:
    → "I heard the tale from the Mithra in Kazham. Apparently some helmeted Tarutaru was rrrunning around telling everybody I had died."
191: 0x0B4F [0x23] WAIT_FOR_DIALOG_INTERACTION
192: 0x0B50 [0x29] REQ_SET_WAIT(priority=0x08, entity_id=Shikaree Y (ID: 17232283/0x0106F19B), tag_num=0x0F)
193: 0x0B57 [0x6F] WAIT_FRAME_DELAY: Yield until WaitTime reaches zero
194: 0x0B58 [0x76] CHECK_ENTITY_RENDER_FLAGS: Wait until Ildy-Goldy (ID: 17232284/0x0106F19C) Render.Flags0 and Render.Flags3 conditions are met
195: 0x0B5D [0x6F] WAIT_FRAME_DELAY: Yield until WaitTime reaches zero
196: 0x0B5E [0x76] CHECK_ENTITY_RENDER_FLAGS: Wait until LocalPlayer Render.Flags0 and Render.Flags3 conditions are met
197: 0x0B63 [0x52] END_LOAD_SCHEDULER: End scheduler "s108" with entities [EventEntity, EventEntity], work=127*
198: 0x0B72 [0x45] LOAD_SCHEDULED_TASK: Load scheduler "ovl1" with entities [LocalPlayer, LocalPlayer], work=[200*, 0*]
199: 0x0B83 [0x45] LOAD_SCHEDULED_TASK: Load scheduler "s109" with entities [EventEntity, EventEntity], work=[127*, 0*]
200: 0x0B94 [0x4A] Potete (ID: 17232235/0x0106F16B) looks at Leigon-Moigon (ID: 17232236/0x0106F16C)
201: 0x0B9D [0x79] Torino-Samarino (ID: 17232234/0x0106F16A) looks at Leigon-Moigon (ID: 17232236/0x0106F16C) (Basic look)
202: 0x0BA7 [0x29] REQ_SET_WAIT(priority=0x08, entity_id=Shikaree Y (ID: 17232283/0x0106F19B), tag_num=0x10)
203: 0x0BAE [0x29] REQ_SET_WAIT(priority=0x08, entity_id=Leigon-Moigon (ID: 17232236/0x0106F16C), tag_num=0x07)
204: 0x0BB5 [0x2B] Leigon-Moigon (ID: 17232236/0x0106F16C) [8356*]:
    → "(It wasn't me!)"
205: 0x0BBC [0x23] WAIT_FOR_DIALOG_INTERACTION
206: 0x0BBD [0x29] REQ_SET_WAIT(priority=0x08, entity_id=Leigon-Moigon (ID: 17232236/0x0106F16C), tag_num=0x08)
207: 0x0BC4 [0x29] REQ_SET_WAIT(priority=0x08, entity_id=Shikaree Y (ID: 17232283/0x0106F19B), tag_num=0x11)
208: 0x0BCB [0x52] END_LOAD_SCHEDULER: End scheduler "s109" with entities [EventEntity, EventEntity], work=127*
209: 0x0BDA [0x45] LOAD_SCHEDULED_TASK: Load scheduler "s110" with entities [EventEntity, EventEntity], work=[127*, 0*]
210: 0x0BEB [0x79] Torino-Samarino (ID: 17232234/0x0106F16A) looks at Shikaree Y (ID: 17232283/0x0106F19B) (Basic look)
211: 0x0BF5 [0x4A] Potete (ID: 17232235/0x0106F16B) looks at Shikaree Y (ID: 17232283/0x0106F19B)
212: 0x0BFE [0x29] REQ_SET_WAIT(priority=0x08, entity_id=Ildy-Goldy (ID: 17232284/0x0106F19C), tag_num=0x0B)
213: 0x0C05 [0x2B] Ildy-Goldy (ID: 17232284/0x0106F19C) [8357*]:
    → "That tuning fork had never been tested. You're free to risk your life in any vay you see fit, but I vill not have the Rhinostery blamed for your death."
214: 0x0C0C [0x23] WAIT_FOR_DIALOG_INTERACTION
215: 0x0C0D [0x29] REQ_SET_WAIT(priority=0x08, entity_id=Ildy-Goldy (ID: 17232284/0x0106F19C), tag_num=0x0C)
216: 0x0C14 [0x29] REQ_SET_WAIT(priority=0x08, entity_id=Shikaree Y (ID: 17232283/0x0106F19B), tag_num=0x05)
217: 0x0C1B [0x2B] Shikaree Y (ID: 17232283/0x0106F19B) [8358*]:
    → "You know, I was never able to use it."
218: 0x0C22 [0x23] WAIT_FOR_DIALOG_INTERACTION
219: 0x0C23 [0x2B] Ildy-Goldy (ID: 17232284/0x0106F19C) [8359*]:
    → "Vhat!?"
220: 0x0C2A [0x23] WAIT_FOR_DIALOG_INTERACTION
221: 0x0C2B [0x6F] WAIT_FRAME_DELAY: Yield until WaitTime reaches zero
222: 0x0C2C [0x76] CHECK_ENTITY_RENDER_FLAGS: Wait until Potete (ID: 17232235/0x0106F16B) Render.Flags0 and Render.Flags3 conditions are met
223: 0x0C31 [0x52] END_LOAD_SCHEDULER: End scheduler "s110" with entities [EventEntity, EventEntity], work=127*
224: 0x0C40 [0x45] LOAD_SCHEDULED_TASK: Load scheduler "ovl1" with entities [LocalPlayer, LocalPlayer], work=[200*, 0*]
225: 0x0C51 [0x45] LOAD_SCHEDULED_TASK: Load scheduler "s109" with entities [EventEntity, EventEntity], work=[127*, 0*]
226: 0x0C62 [0x29] REQ_SET_WAIT(priority=0x08, entity_id=Torino-Samarino (ID: 17232234/0x0106F16A), tag_num=0x07)
227: 0x0C69 [0x29] REQ_SET_WAIT(priority=0x08, entity_id=Potete (ID: 17232235/0x0106F16B), tag_num=0x07)
228: 0x0C70 [0x29] REQ_SET_WAIT(priority=0x08, entity_id=Leigon-Moigon (ID: 17232236/0x0106F16C), tag_num=0x07)
229: 0x0C77 [0x2B] Leigon-Moigon (ID: 17232236/0x0106F16C) [8360*]:
    → "(It wasn't our fault!)"
230: 0x0C7E [0x23] WAIT_FOR_DIALOG_INTERACTION
231: 0x0C7F [0x29] REQ_SET_WAIT(priority=0x08, entity_id=Leigon-Moigon (ID: 17232236/0x0106F16C), tag_num=0x08)
232: 0x0C86 [0x29] REQ_SET_WAIT(priority=0x08, entity_id=Torino-Samarino (ID: 17232234/0x0106F16A), tag_num=0x08)
233: 0x0C8D [0x29] REQ_SET_WAIT(priority=0x08, entity_id=Potete (ID: 17232235/0x0106F16B), tag_num=0x08)
234: 0x0C94 [0x29] REQ_SET_WAIT(priority=0x08, entity_id=Shikaree Y (ID: 17232283/0x0106F19B), tag_num=0x06)
235: 0x0C9B [0x52] END_LOAD_SCHEDULER: End scheduler "s109" with entities [EventEntity, EventEntity], work=127*
236: 0x0CAA [0x45] LOAD_SCHEDULED_TASK: Load scheduler "s111" with entities [EventEntity, EventEntity], work=[127*, 0*]
237: 0x0CBB [0x29] REQ_SET_WAIT(priority=0x08, entity_id=Ildy-Goldy (ID: 17232284/0x0106F19C), tag_num=0x01)
238: 0x0CC2 [0x2B] Ildy-Goldy (ID: 17232284/0x0106F19C) [8361*]:
    → "It vas defective?"
239: 0x0CC9 [0x23] WAIT_FOR_DIALOG_INTERACTION
240: 0x0CCA [0x29] REQ_SET_WAIT(priority=0x08, entity_id=Ildy-Goldy (ID: 17232284/0x0106F19C), tag_num=0x02)
241: 0x0CD1 [0x02] IF !(Work_Zone[7] == 0*) GOTO 0x0CF2
242: 0x0CD9 [0x29] REQ_SET_WAIT(priority=0x08, entity_id=Shikaree Y (ID: 17232283/0x0106F19B), tag_num=0x07)
243: 0x0CE0 [0x2B] Shikaree Y (ID: 17232283/0x0106F19B) [8362*]:
    → "No, nothing like that. It had nothing to do with the protocrystal."
244: 0x0CE7 [0x23] WAIT_FOR_DIALOG_INTERACTION
245: 0x0CE8 [0x29] REQ_SET_WAIT(priority=0x08, entity_id=Shikaree Y (ID: 17232283/0x0106F19B), tag_num=0x08)
246: 0x0CEF [0x01] GOTO 0x0D08
247: 0x0CF2 [0x29] REQ_SET_WAIT(priority=0x08, entity_id=Shikaree Y (ID: 17232283/0x0106F19B), tag_num=0x07)
248: 0x0CF9 [0x2B] Shikaree Y (ID: 17232283/0x0106F19B) [8364*]:
    → "No, nothing like that. The crystal of darkness was shattered."
249: 0x0D00 [0x23] WAIT_FOR_DIALOG_INTERACTION
250: 0x0D01 [0x29] REQ_SET_WAIT(priority=0x08, entity_id=Shikaree Y (ID: 17232283/0x0106F19B), tag_num=0x08)

SUBROUTINE_0D08:
251: 0x0D08 [0x52] END_LOAD_SCHEDULER: End scheduler "s111" with entities [EventEntity, EventEntity], work=127*
252: 0x0D17 [0x45] LOAD_SCHEDULED_TASK: Load scheduler "s112" with entities [EventEntity, EventEntity], work=[127*, 0*]
253: 0x0D28 [0x02] IF !(Work_Zone[7] == 0*) GOTO 0x0D48
254: 0x0D30 [0x27] REQ_SET(priority=0x0B, entity_id=Shikaree Y (ID: 17232283/0x0106F19B), tag_num=0x32)
255: 0x0D37 [0x2B] Shikaree Y (ID: 17232283/0x0106F19B) [8363*]:
    → "Some power prrrevented me from reaching the lake."
256: 0x0D3E [0x23] WAIT_FOR_DIALOG_INTERACTION
257: 0x0D3F [0x2A] GET_REQ_LEVEL(level=11, entity_id=Shikaree Y (ID: 17232283/0x0106F19B))
258: 0x0D45 [0x01] GOTO 0x0D5D
259: 0x0D48 [0x27] REQ_SET(priority=0x0B, entity_id=Shikaree Y (ID: 17232283/0x0106F19B), tag_num=0x32)
260: 0x0D4F [0x2B] Shikaree Y (ID: 17232283/0x0106F19B) [8365*]:
    → "Who would've thought things would turn out like this..."
261: 0x0D56 [0x23] WAIT_FOR_DIALOG_INTERACTION
262: 0x0D57 [0x2A] GET_REQ_LEVEL(level=11, entity_id=Shikaree Y (ID: 17232283/0x0106F19B))

SUBROUTINE_0D5D:
263: 0x0D5D [0x4A] Ildy-Goldy (ID: 17232284/0x0106F19C) looks at Shikaree Y (ID: 17232283/0x0106F19B)
264: 0x0D66 [0x6F] WAIT_FRAME_DELAY: Yield until WaitTime reaches zero
265: 0x0D67 [0x76] CHECK_ENTITY_RENDER_FLAGS: Wait until Ildy-Goldy (ID: 17232284/0x0106F19C) Render.Flags0 and Render.Flags3 conditions are met
266: 0x0D6C [0x02] IF !(Work_Zone[7] == 0*) GOTO 0x0D7F
267: 0x0D74 [0x2B] Ildy-Goldy (ID: 17232284/0x0106F19C) [8366*]:
    → "And your questions for the sleeping gods?"
268: 0x0D7B [0x23] WAIT_FOR_DIALOG_INTERACTION
269: 0x0D7C [0x01] GOTO 0x0D87
270: 0x0D7F [0x2B] Ildy-Goldy (ID: 17232284/0x0106F19C) [8367*]:
    → "Broken...!? Then vhat of the sleeping gods!?"
271: 0x0D86 [0x23] WAIT_FOR_DIALOG_INTERACTION

SUBROUTINE_0D87:
272: 0x0D87 [0x52] END_LOAD_SCHEDULER: End scheduler "s112" with entities [EventEntity, EventEntity], work=127*
273: 0x0D96 [0x45] LOAD_SCHEDULED_TASK: Load scheduler "s113" with entities [EventEntity, EventEntity], work=[127*, 0*]
274: 0x0DA7 [0x4A] Shikaree Y (ID: 17232283/0x0106F19B) looks at Ildy-Goldy (ID: 17232284/0x0106F19C)
275: 0x0DB0 [0x6F] WAIT_FRAME_DELAY: Yield until WaitTime reaches zero
276: 0x0DB1 [0x76] CHECK_ENTITY_RENDER_FLAGS: Wait until Shikaree Y (ID: 17232283/0x0106F19B) Render.Flags0 and Render.Flags3 conditions are met
277: 0x0DB6 [0x29] REQ_SET_WAIT(priority=0x08, entity_id=Shikaree Y (ID: 17232283/0x0106F19B), tag_num=0x0E)
278: 0x0DBD [0x2B] Shikaree Y (ID: 17232283/0x0106F19B) [8368*]:
    → "Surely you've figured it out, pumpkin? I wasn't able to meet them."
279: 0x0DC4 [0x23] WAIT_FOR_DIALOG_INTERACTION
280: 0x0DC5 [0x2B] Shikaree Y (ID: 17232283/0x0106F19B) [8369*]:
    → "I followed your trail to Norg where I heard some fascinating news."
281: 0x0DCC [0x23] WAIT_FOR_DIALOG_INTERACTION
282: 0x0DCD [0x29] REQ_SET_WAIT(priority=0x08, entity_id=Shikaree Y (ID: 17232283/0x0106F19B), tag_num=0x0F)
283: 0x0DD4 [0x52] END_LOAD_SCHEDULER: End scheduler "s113" with entities [EventEntity, EventEntity], work=127*
284: 0x0DE3 [0x45] LOAD_SCHEDULED_TASK: Load scheduler "s114" with entities [EventEntity, EventEntity], work=[127*, 0*]
285: 0x0DF4 [0x29] REQ_SET_WAIT(priority=0x08, entity_id=Shikaree Y (ID: 17232283/0x0106F19B), tag_num=0x10)
286: 0x0DFB [0x2B] Shikaree Y (ID: 17232283/0x0106F19B) [8370*]:
    → "The old guy must've told you that someone was asking about magicite..."
287: 0x0E02 [0x23] WAIT_FOR_DIALOG_INTERACTION
288: 0x0E03 [0x2B] Shikaree Y (ID: 17232283/0x0106F19B) [8371*]:
    → "This person has been making all sorts of inquiries in Norg and the Tenshodo. You don't happen to have any details on this, do you?"
289: 0x0E0A [0x23] WAIT_FOR_DIALOG_INTERACTION
290: 0x0E0B [0x29] REQ_SET_WAIT(priority=0x08, entity_id=Shikaree Y (ID: 17232283/0x0106F19B), tag_num=0x11)
291: 0x0E12 [0x52] END_LOAD_SCHEDULER: End scheduler "s114" with entities [EventEntity, EventEntity], work=127*
292: 0x0E21 [0x45] LOAD_SCHEDULED_TASK: Load scheduler "s115" with entities [EventEntity, EventEntity], work=[127*, 0*]
293: 0x0E32 [0x29] REQ_SET_WAIT(priority=0x08, entity_id=Shikaree Y (ID: 17232283/0x0106F19B), tag_num=0x05)
294: 0x0E39 [0x29] REQ_SET_WAIT(priority=0x08, entity_id=Ildy-Goldy (ID: 17232284/0x0106F19C), tag_num=0x03)
295: 0x0E40 [0x2B] Ildy-Goldy (ID: 17232284/0x0106F19C) [8372*]:
    → "Now that you mention it, Kamui started talking about magicite vhen ve asked for the tale of the baptismal vessel."
296: 0x0E47 [0x23] WAIT_FOR_DIALOG_INTERACTION
297: 0x0E48 [0x29] REQ_SET_WAIT(priority=0x08, entity_id=Ildy-Goldy (ID: 17232284/0x0106F19C), tag_num=0x04)
298: 0x0E4F [0x29] REQ_SET_WAIT(priority=0x08, entity_id=Ildy-Goldy (ID: 17232284/0x0106F19C), tag_num=0x05)
299: 0x0E56 [0x2B] Ildy-Goldy (ID: 17232284/0x0106F19C) [8373*]:
    → "I don't know if it's true or not, but rumors say that the stones being collected by the beastmen were called..."
300: 0x0E5D [0x23] WAIT_FOR_DIALOG_INTERACTION
301: 0x0E5E [0x29] REQ_SET_WAIT(priority=0x08, entity_id=Ildy-Goldy (ID: 17232284/0x0106F19C), tag_num=0x06)
302: 0x0E65 [0x29] REQ_SET_WAIT(priority=0x08, entity_id=Shikaree Y (ID: 17232283/0x0106F19B), tag_num=0x06)
303: 0x0E6C [0x52] END_LOAD_SCHEDULER: End scheduler "s115" with entities [EventEntity, EventEntity], work=127*
304: 0x0E7B [0x45] LOAD_SCHEDULED_TASK: Load scheduler "s116" with entities [EventEntity, EventEntity], work=[127*, 0*]
305: 0x0E8C [0x2B] Shikaree Y (ID: 17232283/0x0106F19B) [8374*]:
    → "Magicite. Fairly weak versions, as far as my rrresearch goes."
306: 0x0E93 [0x23] WAIT_FOR_DIALOG_INTERACTION
307: 0x0E94 [0x29] REQ_SET_WAIT(priority=0x08, entity_id=Shikaree Y (ID: 17232283/0x0106F19B), tag_num=0x07)
308: 0x0E9B [0x2B] Shikaree Y (ID: 17232283/0x0106F19B) [8375*]:
    → "The stone I am interested in is far stronger and calls to the darkness within you... I am speaking of black magicite."
309: 0x0EA2 [0x23] WAIT_FOR_DIALOG_INTERACTION
310: 0x0EA3 [0x2B] Shikaree Y (ID: 17232283/0x0106F19B) [8376*]:
    → "And when you mention black magicite, it means you're talking about the "Star of Tavnazia.""
311: 0x0EAA [0x23] WAIT_FOR_DIALOG_INTERACTION
312: 0x0EAB [0x29] REQ_SET_WAIT(priority=0x08, entity_id=Shikaree Y (ID: 17232283/0x0106F19B), tag_num=0x08)
313: 0x0EB2 [0x52] END_LOAD_SCHEDULER: End scheduler "s116" with entities [EventEntity, EventEntity], work=127*
314: 0x0EC1 [0x45] LOAD_SCHEDULED_TASK: Load scheduler "s117" with entities [EventEntity, EventEntity], work=[127*, 0*]
315: 0x0ED2 [0x7B] Ildy-Goldy (ID: 17232284/0x0106F19C) stops talking
316: 0x0ED7 [0x7C] Ildy-Goldy (ID: 17232284/0x0106F19C)->Render.Flags2 |= 0x00
317: 0x0EDD [0x2B] Ildy-Goldy (ID: 17232284/0x0106F19C) [8377*]:
    → "...?"
318: 0x0EE4 [0x23] WAIT_FOR_DIALOG_INTERACTION
319: 0x0EE5 [0x7C] Ildy-Goldy (ID: 17232284/0x0106F19C)->Render.Flags2 |= 0x01
320: 0x0EEB [0x52] END_LOAD_SCHEDULER: End scheduler "s117" with entities [EventEntity, EventEntity], work=127*
321: 0x0EFA [0x45] LOAD_SCHEDULED_TASK: Load scheduler "s118" with entities [EventEntity, EventEntity], work=[127*, 0*]
322: 0x0F0B [0x79] Ildy-Goldy (ID: 17232284/0x0106F19C) looks at Shikaree Y (ID: 17232283/0x0106F19B) (Basic look)
323: 0x0F15 [0x27] REQ_SET(priority=0x0B, entity_id=Shikaree Y (ID: 17232283/0x0106F19B), tag_num=0x33)
324: 0x0F1C [0x2B] Shikaree Y (ID: 17232283/0x0106F19B) [8378*]:
    → "Oh, bother. I seem to have said too much."
325: 0x0F23 [0x23] WAIT_FOR_DIALOG_INTERACTION
326: 0x0F24 [0x2A] GET_REQ_LEVEL(level=11, entity_id=Shikaree Y (ID: 17232283/0x0106F19B))
327: 0x0F2A [0x4A] Shikaree Y (ID: 17232283/0x0106F19B) looks at Ildy-Goldy (ID: 17232284/0x0106F19C)
328: 0x0F33 [0x6F] WAIT_FRAME_DELAY: Yield until WaitTime reaches zero
329: 0x0F34 [0x76] CHECK_ENTITY_RENDER_FLAGS: Wait until Shikaree Y (ID: 17232283/0x0106F19B) Render.Flags0 and Render.Flags3 conditions are met
330: 0x0F39 [0x29] REQ_SET_WAIT(priority=0x08, entity_id=Shikaree Y (ID: 17232283/0x0106F19B), tag_num=0x01)
331: 0x0F40 [0x2B] Shikaree Y (ID: 17232283/0x0106F19B) [8379*]:
    → "Why don't you just forget I said anything? If you feel you can't forget, I'll be happy to beat you until you can't remember a thing."
332: 0x0F47 [0x23] WAIT_FOR_DIALOG_INTERACTION
333: 0x0F48 [0x29] REQ_SET_WAIT(priority=0x08, entity_id=Shikaree Y (ID: 17232283/0x0106F19B), tag_num=0x02)
334: 0x0F4F [0x29] REQ_SET_WAIT(priority=0x08, entity_id=Shikaree Y (ID: 17232283/0x0106F19B), tag_num=0x03)
335: 0x0F56 [0x29] REQ_SET_WAIT(priority=0x08, entity_id=Torino-Samarino (ID: 17232234/0x0106F16A), tag_num=0x07)
336: 0x0F5D [0x29] REQ_SET_WAIT(priority=0x08, entity_id=Potete (ID: 17232235/0x0106F16B), tag_num=0x07)
337: 0x0F64 [0x29] REQ_SET_WAIT(priority=0x08, entity_id=Leigon-Moigon (ID: 17232236/0x0106F16C), tag_num=0x07)
338: 0x0F6B [0x2B] Ildy-Goldy (ID: 17232284/0x0106F19C) [8380*]:
    → "!?"
339: 0x0F72 [0x23] WAIT_FOR_DIALOG_INTERACTION
340: 0x0F73 [0x29] REQ_SET_WAIT(priority=0x08, entity_id=Leigon-Moigon (ID: 17232236/0x0106F16C), tag_num=0x08)
341: 0x0F7A [0x29] REQ_SET_WAIT(priority=0x08, entity_id=Torino-Samarino (ID: 17232234/0x0106F16A), tag_num=0x08)
342: 0x0F81 [0x29] REQ_SET_WAIT(priority=0x08, entity_id=Potete (ID: 17232235/0x0106F16B), tag_num=0x08)
343: 0x0F88 [0x29] REQ_SET_WAIT(priority=0x08, entity_id=Shikaree Y (ID: 17232283/0x0106F19B), tag_num=0x04)
344: 0x0F8F [0x52] END_LOAD_SCHEDULER: End scheduler "s118" with entities [EventEntity, EventEntity], work=127*
345: 0x0F9E [0x45] LOAD_SCHEDULED_TASK: Load scheduler "s119" with entities [EventEntity, EventEntity], work=[127*, 0*]
346: 0x0FAF [0x27] REQ_SET(priority=0x0B, entity_id=Shikaree Y (ID: 17232283/0x0106F19B), tag_num=0x34)
347: 0x0FB6 [0x1C] WAIT(120* ticks)
348: 0x0FB9 [0x4A] Leigon-Moigon (ID: 17232236/0x0106F16C) looks at Shikaree Y (ID: 17232283/0x0106F19B)
349: 0x0FC2 [0x4A] Torino-Samarino (ID: 17232234/0x0106F16A) looks at Shikaree Y (ID: 17232283/0x0106F19B)
350: 0x0FCB [0x4A] Potete (ID: 17232235/0x0106F16B) looks at Shikaree Y (ID: 17232283/0x0106F19B)
351: 0x0FD4 [0x6F] WAIT_FRAME_DELAY: Yield until WaitTime reaches zero
352: 0x0FD5 [0x76] CHECK_ENTITY_RENDER_FLAGS: Wait until Leigon-Moigon (ID: 17232236/0x0106F16C) Render.Flags0 and Render.Flags3 conditions are met
353: 0x0FDA [0x6F] WAIT_FRAME_DELAY: Yield until WaitTime reaches zero
354: 0x0FDB [0x76] CHECK_ENTITY_RENDER_FLAGS: Wait until Torino-Samarino (ID: 17232234/0x0106F16A) Render.Flags0 and Render.Flags3 conditions are met
355: 0x0FE0 [0x6F] WAIT_FRAME_DELAY: Yield until WaitTime reaches zero
356: 0x0FE1 [0x76] CHECK_ENTITY_RENDER_FLAGS: Wait until Potete (ID: 17232235/0x0106F16B) Render.Flags0 and Render.Flags3 conditions are met
357: 0x0FE6 [0x5D] SET_MUSIC_VOLUME(volume=0*, fade_time=120*)
358: 0x0FEB [0x45] LOAD_SCHEDULED_TASK: Load scheduler "fdo1" with entities [LocalPlayer, LocalPlayer], work=[200*, 0*]
359: 0x0FFC [0x1C] WAIT(60* ticks)
360: 0x0FFF [0x7B] Ildy-Goldy (ID: 17232284/0x0106F19C) stops talking
361: 0x1004 [0x29] REQ_SET_WAIT(priority=0x0B, entity_id=Ildy-Goldy (ID: 17232284/0x0106F19C), tag_num=0x4C)
362: 0x100B [0x52] END_LOAD_SCHEDULER: End scheduler "s119" with entities [EventEntity, EventEntity], work=127*
363: 0x101A [0x1C] WAIT(60* ticks)
364: 0x101D [0x45] LOAD_SCHEDULED_TASK: Load scheduler "s120" with entities [EventEntity, EventEntity], work=[127*, 0*]
365: 0x102E [0x45] LOAD_SCHEDULED_TASK: Load scheduler "fdi1" with entities [LocalPlayer, LocalPlayer], work=[200*, 0*]
366: 0x103F [0x1C] WAIT(90* ticks)
367: 0x1042 [0x79] LocalPlayer looks at Ildy-Goldy (ID: 17232284/0x0106F19C) (Basic look)
368: 0x104C [0x79] Leigon-Moigon (ID: 17232236/0x0106F16C) looks at Ildy-Goldy (ID: 17232284/0x0106F19C) (Basic look)
369: 0x1056 [0x79] Torino-Samarino (ID: 17232234/0x0106F16A) looks at Ildy-Goldy (ID: 17232284/0x0106F19C) (Basic look)
370: 0x1060 [0x79] Potete (ID: 17232235/0x0106F16B) looks at Ildy-Goldy (ID: 17232284/0x0106F19C) (Basic look)
371: 0x106A [0x29] REQ_SET_WAIT(priority=0x08, entity_id=Ildy-Goldy (ID: 17232284/0x0106F19C), tag_num=0x09)
372: 0x1071 [0x2B] Ildy-Goldy (ID: 17232284/0x0106F19C) [8381*]:
    → "Vhat vas that all about?"
373: 0x1078 [0x23] WAIT_FOR_DIALOG_INTERACTION
374: 0x1079 [0x29] REQ_SET_WAIT(priority=0x08, entity_id=Ildy-Goldy (ID: 17232284/0x0106F19C), tag_num=0x0A)
375: 0x1080 [0x52] END_LOAD_SCHEDULER: End scheduler "s120" with entities [EventEntity, EventEntity], work=127*
376: 0x108F [0x02] IF !(Work_Zone[9] == 3*) GOTO 0x10AB
377: 0x1097 [0x45] LOAD_SCHEDULED_TASK: Load scheduler "s125" with entities [EventEntity, EventEntity], work=[127*, 0*]
378: 0x10A8 [0x01] GOTO 0x10D8
379: 0x10AB [0x02] IF !(Work_Zone[9] == 8*) GOTO 0x10C7
380: 0x10B3 [0x45] LOAD_SCHEDULED_TASK: Load scheduler "s125" with entities [EventEntity, EventEntity], work=[127*, 0*]
381: 0x10C4 [0x01] GOTO 0x10D8
382: 0x10C7 [0x45] LOAD_SCHEDULED_TASK: Load scheduler "s121" with entities [EventEntity, EventEntity], work=[127*, 0*]

SUBROUTINE_10D8:
383: 0x10D8 [0x4A] Leigon-Moigon (ID: 17232236/0x0106F16C) looks at LocalPlayer
384: 0x10E1 [0x4A] Torino-Samarino (ID: 17232234/0x0106F16A) looks at LocalPlayer
385: 0x10EA [0x4A] Potete (ID: 17232235/0x0106F16B) looks at LocalPlayer
386: 0x10F3 [0x27] REQ_SET(priority=0x0B, entity_id=Ildy-Goldy (ID: 17232284/0x0106F19C), tag_num=0x4D)
387: 0x10FA [0x2B] Ildy-Goldy (ID: 17232284/0x0106F19C) [8382*]:
    → "Black magicite? The darkness vithin...?"
388: 0x1101 [0x23] WAIT_FOR_DIALOG_INTERACTION
389: 0x1102 [0x2A] GET_REQ_LEVEL(level=11, entity_id=Ildy-Goldy (ID: 17232284/0x0106F19C))
390: 0x1108 [0x4A] Ildy-Goldy (ID: 17232284/0x0106F19C) looks at LocalPlayer
391: 0x1111 [0x6F] WAIT_FRAME_DELAY: Yield until WaitTime reaches zero
392: 0x1112 [0x76] CHECK_ENTITY_RENDER_FLAGS: Wait until Ildy-Goldy (ID: 17232284/0x0106F19C) Render.Flags0 and Render.Flags3 conditions are met
393: 0x1117 [0x29] REQ_SET_WAIT(priority=0x08, entity_id=Ildy-Goldy (ID: 17232284/0x0106F19C), tag_num=0x0D)
394: 0x111E [0x2B] Ildy-Goldy (ID: 17232284/0x0106F19C) [8383*]:
    → "<Player>, thank you for assisting me vith my duties. It has been a pleasure. Please take this as compensation for all your hard vork, including the trouble you vent through acquiring the gifts for Kamui."
395: 0x1125 [0x23] WAIT_FOR_DIALOG_INTERACTION
396: 0x1126 [0x29] REQ_SET_WAIT(priority=0x08, entity_id=Ildy-Goldy (ID: 17232284/0x0106F19C), tag_num=0x0E)
397: 0x112D [0x6F] WAIT_FRAME_DELAY: Yield until WaitTime reaches zero
398: 0x112E [0x76] CHECK_ENTITY_RENDER_FLAGS: Wait until Leigon-Moigon (ID: 17232236/0x0106F16C) Render.Flags0 and Render.Flags3 conditions are met
399: 0x1133 [0x6F] WAIT_FRAME_DELAY: Yield until WaitTime reaches zero
400: 0x1134 [0x76] CHECK_ENTITY_RENDER_FLAGS: Wait until Torino-Samarino (ID: 17232234/0x0106F16A) Render.Flags0 and Render.Flags3 conditions are met
401: 0x1139 [0x6F] WAIT_FRAME_DELAY: Yield until WaitTime reaches zero
402: 0x113A [0x76] CHECK_ENTITY_RENDER_FLAGS: Wait until Potete (ID: 17232235/0x0106F16B) Render.Flags0 and Render.Flags3 conditions are met
403: 0x113F [0x02] IF !(Work_Zone[9] == 3*) GOTO 0x1159
404: 0x1147 [0x52] END_LOAD_SCHEDULER: End scheduler "s125" with entities [EventEntity, EventEntity], work=127*
405: 0x1156 [0x01] GOTO 0x1182
406: 0x1159 [0x02] IF !(Work_Zone[9] == 8*) GOTO 0x1173
407: 0x1161 [0x52] END_LOAD_SCHEDULER: End scheduler "s125" with entities [EventEntity, EventEntity], work=127*
408: 0x1170 [0x01] GOTO 0x1182
409: 0x1173 [0x52] END_LOAD_SCHEDULER: End scheduler "s121" with entities [EventEntity, EventEntity], work=127*

SUBROUTINE_1182:
410: 0x1182 [0x02] IF !(Work_Zone[9] == 5*) GOTO 0x119E
411: 0x118A [0x45] LOAD_SCHEDULED_TASK: Load scheduler "s126" with entities [EventEntity, EventEntity], work=[127*, 0*]
412: 0x119B [0x01] GOTO 0x11CB
413: 0x119E [0x02] IF !(Work_Zone[9] == 6*) GOTO 0x11BA
414: 0x11A6 [0x45] LOAD_SCHEDULED_TASK: Load scheduler "s126" with entities [EventEntity, EventEntity], work=[127*, 0*]
415: 0x11B7 [0x01] GOTO 0x11CB
416: 0x11BA [0x45] LOAD_SCHEDULED_TASK: Load scheduler "s122" with entities [EventEntity, EventEntity], work=[127*, 0*]

SUBROUTINE_11CB:
417: 0x11CB [0x79] Ildy-Goldy (ID: 17232284/0x0106F19C) looks at Torino-Samarino (ID: 17232234/0x0106F16A) (Basic look)
418: 0x11D5 [0x27] REQ_SET(priority=0x0B, entity_id=LocalPlayer, tag_num=0x32)
419: 0x11DC [0x27] REQ_SET(priority=0x08, entity_id=Torino-Samarino (ID: 17232234/0x0106F16A), tag_num=0x32)
420: 0x11E3 [0x27] REQ_SET(priority=0x08, entity_id=Potete (ID: 17232235/0x0106F16B), tag_num=0x32)
421: 0x11EA [0x27] REQ_SET(priority=0x08, entity_id=Leigon-Moigon (ID: 17232236/0x0106F16C), tag_num=0x32)
422: 0x11F1 [0x2B] Torino-Samarino (ID: 17232234/0x0106F16A) [8384*]:
    → "Wow!"
423: 0x11F8 [0x23] WAIT_FOR_DIALOG_INTERACTION
424: 0x11F9 [0x2B] Potete (ID: 17232235/0x0106F16B) [8385*]:
    → "Nice!"
425: 0x1200 [0x23] WAIT_FOR_DIALOG_INTERACTION
426: 0x1201 [0x2B] Leigon-Moigon (ID: 17232236/0x0106F16C) [8386*]:
    → "You can buy a new helmet with that!"
427: 0x1208 [0x23] WAIT_FOR_DIALOG_INTERACTION
428: 0x1209 [0x4B] UPDATE_ENTITY_YAW(entity=Ildy-Goldy (ID: 17232284/0x0106F19C), yaw=16.9°*)
429: 0x1210 [0x6F] WAIT_FRAME_DELAY: Yield until WaitTime reaches zero
430: 0x1211 [0x76] CHECK_ENTITY_RENDER_FLAGS: Wait until Ildy-Goldy (ID: 17232284/0x0106F19C) Render.Flags0 and Render.Flags3 conditions are met
431: 0x1216 [0x02] IF !(Work_Zone[9] == 5*) GOTO 0x1230
432: 0x121E [0x52] END_LOAD_SCHEDULER: End scheduler "s126" with entities [EventEntity, EventEntity], work=127*
433: 0x122D [0x01] GOTO 0x1259
434: 0x1230 [0x02] IF !(Work_Zone[9] == 6*) GOTO 0x124A
435: 0x1238 [0x52] END_LOAD_SCHEDULER: End scheduler "s126" with entities [EventEntity, EventEntity], work=127*
436: 0x1247 [0x01] GOTO 0x1259
437: 0x124A [0x52] END_LOAD_SCHEDULER: End scheduler "s122" with entities [EventEntity, EventEntity], work=127*

SUBROUTINE_1259:
438: 0x1259 [0x45] LOAD_SCHEDULED_TASK: Load scheduler "s123" with entities [EventEntity, EventEntity], work=[127*, 0*]
439: 0x126A [0x7B] Ildy-Goldy (ID: 17232284/0x0106F19C) stops talking
440: 0x126F [0x29] REQ_SET_WAIT(priority=0x08, entity_id=Ildy-Goldy (ID: 17232284/0x0106F19C), tag_num=0x01)
441: 0x1276 [0x2B] Ildy-Goldy (ID: 17232284/0x0106F19C) [8387*]:
    → "You three, keep Minister Rukususu safe from harm. I bid you farevell."
442: 0x127D [0x23] WAIT_FOR_DIALOG_INTERACTION
443: 0x127E [0x29] REQ_SET_WAIT(priority=0x08, entity_id=Ildy-Goldy (ID: 17232284/0x0106F19C), tag_num=0x02)
444: 0x1285 [0x27] REQ_SET(priority=0x0B, entity_id=Ildy-Goldy (ID: 17232284/0x0106F19C), tag_num=0x4E)
445: 0x128C [0x1C] WAIT(60* ticks)
446: 0x128F [0x45] LOAD_SCHEDULED_TASK: Load scheduler "fdo1" with entities [LocalPlayer, LocalPlayer], work=[200*, 0*]
447: 0x12A0 [0x1C] WAIT(120* ticks)
448: 0x12A3 [0x52] END_LOAD_SCHEDULER: End scheduler "s123" with entities [EventEntity, EventEntity], work=127*
449: 0x12B2 [0x45] LOAD_SCHEDULED_TASK: Load scheduler "qstc" with entities [LocalPlayer, LocalPlayer], work=[201*, 0*]
450: 0x12C3 [0x5C] MUSIC_CONTROL: Set Idle (Day) music to song 0*
451: 0x12C7 [0x5C] MUSIC_CONTROL: Set Idle (Night) music to song 0*
452: 0x12CB [0x4E] SET_ENTITY_HIDE_FLAG: Show LocalPlayer
453: 0x12D1 [0x80] LOAD_WAIT(entity=LocalPlayer)
454: 0x12D6 [0x46] CAMERA_CONTROL: Restore default settings
455: 0x12D8 [0x45] LOAD_SCHEDULED_TASK: Load scheduler "fdi1" with entities [LocalPlayer, LocalPlayer], work=[200*, 0*]
456: 0x12E9 [0x20] SET_CLI_EVENT_UC_FLAG: Unlock player control
457: 0x12EB [0x21] END_EVENT
458: 0x12EC [0x00] END_REQSTACK()
```
