# 0x7FFFFFF0 - Zone Events

## Common Data

| Field            | Value                        |
|------------------|------------------------------|
| Zone             | Beaucedine Glacier (ID: 111) |
| Block Size       | 29192 bytes                  |
| Total Events     | 80                           |
| References Count | 665                          |

## List of Events

| Event ID                   | Entrypoint   |   Size |   Instructions |
|----------------------------|--------------|--------|----------------|
| [65535](#event-65535)      | 0x0000       |      1 |              1 |
| [65534](#event-65534)      | 0x0001       |      1 |              1 |
| [65535.1](#event-655351)   | 0x0002       |     46 |             10 |
| [65535.2](#event-655352)   | 0x0030       |     10 |              2 |
| [65535.3](#event-655353)   | 0x003A       |     10 |              2 |
| [65535.4](#event-655354)   | 0x0044       |     10 |              2 |
| [65535.5](#event-655355)   | 0x004E       |     10 |              2 |
| [65535.6](#event-655356)   | 0x0058       |     10 |              2 |
| [65535.7](#event-655357)   | 0x0062       |     10 |              2 |
| [65535.8](#event-655358)   | 0x006C       |     10 |              2 |
| [65535.9](#event-655359)   | 0x0076       |     10 |              2 |
| [65535.10](#event-6553510) | 0x0080       |     10 |              2 |
| [65535.11](#event-6553511) | 0x008A       |     10 |              2 |
| [65535.12](#event-6553512) | 0x0094       |     10 |              2 |
| [65535.13](#event-6553513) | 0x009E       |     10 |              2 |
| [65535.14](#event-6553514) | 0x00A8       |     10 |              2 |
| [65535.15](#event-6553515) | 0x00B2       |     10 |              2 |
| [65535.16](#event-6553516) | 0x00BC       |     10 |              2 |
| [65535.17](#event-6553517) | 0x00C6       |     10 |              2 |
| [65535.18](#event-6553518) | 0x00D0       |     10 |              2 |
| [65535.19](#event-6553519) | 0x00DA       |     10 |              2 |
| [65535.20](#event-6553520) | 0x00E4       |     10 |              2 |
| [65535.21](#event-6553521) | 0x00EE       |     10 |              2 |
| [65535.22](#event-6553522) | 0x00F8       |     12 |              3 |
| [65535.23](#event-6553523) | 0x0104       |     10 |              2 |
| [65535.24](#event-6553524) | 0x010E       |     10 |              2 |
| [65535.25](#event-6553525) | 0x0118       |     10 |              2 |
| [65535.26](#event-6553526) | 0x0122       |     10 |              2 |
| [65535.27](#event-6553527) | 0x012C       |     10 |              2 |
| [65535.28](#event-6553528) | 0x0136       |     10 |              2 |
| [65535.29](#event-6553529) | 0x0140       |     10 |              2 |
| [65535.30](#event-6553530) | 0x014A       |     10 |              2 |
| [65535.31](#event-6553531) | 0x0154       |     10 |              2 |
| [65535.32](#event-6553532) | 0x015E       |     10 |              2 |
| [65535.33](#event-6553533) | 0x0168       |     10 |              2 |
| [65535.34](#event-6553534) | 0x0172       |     10 |              2 |
| [65535.35](#event-6553535) | 0x017C       |     10 |              2 |
| [65535.36](#event-6553536) | 0x0186       |     10 |              2 |
| [65535.37](#event-6553537) | 0x0190       |     10 |              2 |
| [65535.38](#event-6553538) | 0x019A       |     10 |              2 |
| [65535.39](#event-6553539) | 0x01A4       |      6 |              2 |
| [65535.40](#event-6553540) | 0x01AA       |      6 |              2 |
| [65535.41](#event-6553541) | 0x01B0       |      6 |              2 |
| [65535.42](#event-6553542) | 0x01B6       |      6 |              2 |
| [65535.43](#event-6553543) | 0x01BC       |      6 |              2 |
| [65535.44](#event-6553544) | 0x01C2       |     27 |              3 |
| [65535.45](#event-6553545) | 0x01DD       |     27 |              3 |
| [65535.46](#event-6553546) | 0x01F8       |    150 |             23 |
| [65535.47](#event-6553547) | 0x028E       |     10 |              2 |
| [65535.48](#event-6553548) | 0x0298       |     10 |              2 |
| [65535.49](#event-6553549) | 0x02A2       |     13 |              3 |
| [151](#event-151)          | 0x02AF       |   1130 |            197 |
| [152](#event-152)          | 0x0719       |   4898 |            868 |
| [65535.50](#event-6553550) | 0x1A3B       |      3 |              2 |
| [65535.51](#event-6553551) | 0x1A3E       |  18781 |           3208 |
| [65535.52](#event-6553552) | 0x639B       |      1 |              1 |
| [65535.53](#event-6553553) | 0x639C       |      1 |              1 |
| [65535.54](#event-6553554) | 0x639D       |     27 |              5 |
| [65535.55](#event-6553555) | 0x63B8       |      7 |              3 |
| [65535.56](#event-6553556) | 0x63BF       |      7 |              3 |
| [65535.57](#event-6553557) | 0x63C6       |     15 |              5 |
| [65535.58](#event-6553558) | 0x63D5       |     25 |              7 |
| [65535.59](#event-6553559) | 0x63EE       |     15 |              5 |
| [65535.60](#event-6553560) | 0x63FD       |     15 |              5 |
| [65535.61](#event-6553561) | 0x640C       |     22 |              8 |
| [65535.62](#event-6553562) | 0x6422       |     30 |              8 |
| [65535.63](#event-6553563) | 0x6440       |     15 |              5 |
| [65535.64](#event-6553564) | 0x644F       |     15 |              5 |
| [65535.65](#event-6553565) | 0x645E       |     15 |              5 |
| [65535.66](#event-6553566) | 0x646D       |     30 |              8 |
| [65535.67](#event-6553567) | 0x648B       |     15 |              5 |
| [65535.68](#event-6553568) | 0x649A       |    163 |             37 |
| [65535.69](#event-6553569) | 0x653D       |     24 |              4 |
| [65535.70](#event-6553570) | 0x6555       |     24 |              4 |
| [65535.71](#event-6553571) | 0x656D       |     38 |              5 |
| [65535.72](#event-6553572) | 0x6593       |     38 |              5 |
| [65535.73](#event-6553573) | 0x65B9       |     38 |              5 |
| [65535.74](#event-6553574) | 0x65DF       |     37 |              5 |
| [65535.75](#event-6553575) | 0x6604       |     37 |              5 |
| [65535.76](#event-6553576) | 0x6629       |     42 |              6 |

## DAT References (imed_data)

|   Index | Hex Value   |   Dec Value |
|---------|-------------|-------------|
|       0 | 0xFFFE8B6F  |  4294871919 |
|       1 | 0xFFF9F0B7  |  4294570167 |
|       2 | 0x02DD      |         733 |
|       3 | 0x0B66      |        2918 |
|       4 | 0x0001      |           1 |
|       5 | 0x000D      |          13 |
|       6 | 0xFFFE8847  |  4294871111 |
|       7 | 0xFFF9FB3E  |  4294572862 |
|       8 | 0x040B      |        1035 |
|       9 | 0x001E      |          30 |
|      10 | 0x0078      |         120 |
|      11 | 0x21D4A     |      138570 |
|      12 | 0x1DC79     |      121977 |
|      13 | 0xFFFFF830  |  4294965296 |
|      14 | 0x086F      |        2159 |
|      15 | 0x1807D     |       98429 |
|      16 | 0xFFFEFF25  |  4294901541 |
|      17 | 0x03E4      |         996 |
|      18 | 0x04E3      |        1251 |
|      19 | 0xFFFCB26E  |  4294750830 |
|      20 | 0xFFFE9627  |  4294874663 |
|      21 | 0xFFFFFF0B  |  4294967051 |
|      22 | 0x09F7      |        2551 |
|      23 | 0x8B2F      |       35631 |
|      24 | 0xFFFF3AAD  |  4294916781 |
|      25 | 0x2329      |        9001 |
|      26 | 0x09EC      |        2540 |
|      27 | 0x27692     |      161426 |
|      28 | 0x274F7     |      161015 |
|      29 | 0x05F8      |        1528 |
|      30 | 0x1C843     |      116803 |
|      31 | 0xFFFEE69B  |  4294895259 |
|      32 | 0x07F9      |        2041 |
|      33 | 0xFFFC8339  |  4294738745 |
|      34 | 0xFFFE2B86  |  4294847366 |
|      35 | 0xFFFFFF07  |  4294967047 |
|      36 | 0x0FFD      |        4093 |
|      37 | 0xBF7E      |       49022 |
|      38 | 0xFFFEE2B4  |  4294894260 |
|      39 | 0x2712      |       10002 |
|      40 | 0x0C0F      |        3087 |
|      41 | 0x185ED     |       99821 |
|      42 | 0xFFFEFF9F  |  4294901663 |
|      43 | 0x0312      |         786 |
|      44 | 0x21BAA     |      138154 |
|      45 | 0x1D514     |      120084 |
|      46 | 0x0E96      |        3734 |
|      47 | 0xFFFCB3AF  |  4294751151 |
|      48 | 0xFFFE90C0  |  4294873280 |
|      49 | 0xFFFFFF72  |  4294967154 |
|      50 | 0x084B      |        2123 |
|      51 | 0x8B65      |       35685 |
|      52 | 0xFFFF3C2F  |  4294917167 |
|      53 | 0x065B      |        1627 |
|      54 | 0xFFFBBF41  |  4294688577 |
|      55 | 0xFFF9A232  |  4294550066 |
|      56 | 0xFFFF641B  |  4294927387 |
|      57 | 0x0AA6      |        2726 |
|      58 | 0x8B7BE     |      571326 |
|      59 | 0xFFFBD923  |  4294695203 |
|      60 | 0xFFFFFEA3  |  4294966947 |
|      61 | 0x01A6      |         422 |
|      62 | 0xFFFBB61F  |  4294686239 |
|      63 | 0xFFF9928F  |  4294546063 |
|      64 | 0xFFFF648E  |  4294927502 |
|      65 | 0x0704      |        1796 |
|      66 | 0x88F90     |      561040 |
|      67 | 0xFFFBC607  |  4294690311 |
|      68 | 0x0000      |           0 |
|      69 | 0x06C5      |        1733 |
|      70 | 0xFFFA88AC  |  4294609068 |
|      71 | 0x4DDD      |       19933 |
|      72 | 0xFFFF7744  |  4294932292 |
|      73 | 0x0831      |        2097 |
|      74 | 0x1DA71     |      121457 |
|      75 | 0x1C391     |      115601 |
|      76 | 0xFFFFE0D3  |  4294959315 |
|      77 | 0x0DA9      |        3497 |
|      78 | 0x25BC9     |      154569 |
|      79 | 0xFFFD5734  |  4294793012 |
|      80 | 0x0227      |         551 |
|      81 | 0x091C      |        2332 |
|      82 | 0xFFFFC3F3  |  4294951923 |
|      83 | 0x19656     |      104022 |
|      84 | 0xFFFFBC6C  |  4294949996 |
|      85 | 0x0379      |         889 |
|      86 | 0x0286      |         646 |
|      87 | 0xFFFF97B9  |  4294940601 |
|      88 | 0xFFFFE43B  |  4294960187 |
|      89 | 0x0689      |        1673 |
|      90 | 0xFFFFFFD1  |  4294967249 |
|      91 | 0xFFFF80F7  |  4294934775 |
|      92 | 0xFFFFA435  |  4294943797 |
|      93 | 0x03FD      |        1021 |
|      94 | 0xFFFE6D84  |  4294864260 |
|      95 | 0x1521D     |       86557 |
|      96 | 0xFFFEE6C0  |  4294895296 |
|      97 | 0x064C      |        1612 |
|      98 | 0x9DC49     |      646217 |
|      99 | 0xFFFD6E64  |  4294798948 |
|     100 | 0x00A1      |         161 |
|     101 | 0x0C85      |        3205 |
|     102 | 0xFFFFADA3  |  4294946211 |
|     103 | 0xE9CA      |       59850 |
|     104 | 0xFFFFF799  |  4294965145 |
|     105 | 0x0D28      |        3368 |
|     106 | 0xFFFEABF4  |  4294880244 |
|     107 | 0xFFFA4EB6  |  4294594230 |
|     108 | 0x012D      |         301 |
|     109 | 0x06A4      |        1700 |
|     110 | 0xFFFDB3A7  |  4294816679 |
|     111 | 0x4EF1      |       20209 |
|     112 | 0xFFFFBFF4  |  4294950900 |
|     113 | 0x084E      |        2126 |
|     114 | 0x000A      |          10 |
|     115 | 0xFFFF6A35  |  4294928949 |
|     116 | 0x2327      |        8999 |
|     117 | 0x03ED      |        1005 |
|     118 | 0xFFFCAEE9  |  4294749929 |
|     119 | 0x70C05     |      461829 |
|     120 | 0x17BF0     |       97264 |
|     121 | 0x08E7      |        2279 |
|     122 | 0xFFFC4F0B  |  4294725387 |
|     123 | 0x51564     |      333156 |
|     124 | 0xFFFFD0E8  |  4294955240 |
|     125 | 0x0278      |         632 |
|     126 | 0xFFFA9423  |  4294612003 |
|     127 | 0xFFFE6DB2  |  4294864306 |
|     128 | 0x3C71      |       15473 |
|     129 | 0x08EC      |        2284 |
|     130 | 0x6D91F     |      448799 |
|     131 | 0xFFFF8D5B  |  4294937947 |
|     132 | 0xFFFF64E1  |  4294927585 |
|     133 | 0x0240      |         576 |
|     134 | 0xFFFFBB04  |  4294949636 |
|     135 | 0xD3E9      |       54249 |
|     136 | 0xFFFFFE47  |  4294966855 |
|     137 | 0x0AC4      |        2756 |
|     138 | 0xFFFFB53C  |  4294948156 |
|     139 | 0x4B66      |       19302 |
|     140 | 0x9EA9      |       40617 |
|     141 | 0x03A7      |         935 |
|     142 | 0x11D84     |       73092 |
|     143 | 0xFFFD607B  |  4294795387 |
|     144 | 0x0F9F      |        3999 |
|     145 | 0x0402      |        1026 |
|     146 | 0xFFFFB137  |  4294947127 |
|     147 | 0x7A43      |       31299 |
|     148 | 0xFFFFD8F2  |  4294957298 |
|     149 | 0x0D4B      |        3403 |
|     150 | 0xFFFFC860  |  4294953056 |
|     151 | 0xD01B      |       53275 |
|     152 | 0xFFFFFD7F  |  4294966655 |
|     153 | 0x0BF0      |        3056 |
|     154 | 0x0002      |           2 |
|     155 | 0xFFFACF14  |  4294627092 |
|     156 | 0x2146C     |      136300 |
|     157 | 0xFFFE7867  |  4294867047 |
|     158 | 0x041E      |        1054 |
|     159 | 0x0003      |           3 |
|     160 | 0xFFFACEBD  |  4294627005 |
|     161 | 0x214DA     |      136410 |
|     162 | 0x0966      |        2406 |
|     163 | 0x0004      |           4 |
|     164 | 0xFFFACFC6  |  4294627270 |
|     165 | 0x214E5     |      136421 |
|     166 | 0x081C      |        2076 |
|     167 | 0x0005      |           5 |
|     168 | 0xFFFAD041  |  4294627393 |
|     169 | 0x21374     |      136052 |
|     170 | 0x0740      |        1856 |
|     171 | 0x0006      |           6 |
|     172 | 0x0007      |           7 |
|     173 | 0xFFFACFE3  |  4294627299 |
|     174 | 0x214B2     |      136370 |
|     175 | 0x04DE      |        1246 |
|     176 | 0x0008      |           8 |
|     177 | 0xFFFACFC7  |  4294627271 |
|     178 | 0x217EA     |      137194 |
|     179 | 0x0458      |        1112 |
|     180 | 0xFFFAD0BF  |  4294627519 |
|     181 | 0x21521     |      136481 |
|     182 | 0x059B      |        1435 |
|     183 | 0x19DF5     |      105973 |
|     184 | 0x21FA9     |      139177 |
|     185 | 0xFFFFB0E7  |  4294947047 |
|     186 | 0x0BDF      |        3039 |
|     187 | 0x1A039     |      106553 |
|     188 | 0x21E84     |      138884 |
|     189 | 0x0896      |        2198 |
|     190 | 0x0028      |          40 |
|     191 | 0x001B      |          27 |
|     192 | 0x0011      |          17 |
|     193 | 0xFFF9BB23  |  4294556451 |
|     194 | 0xFFF9988F  |  4294547599 |
|     195 | 0xFFFF64D4  |  4294927572 |
|     196 | 0x0FDC      |        4060 |
|     197 | 0x007F      |         127 |
|     198 | 0x00B5      |         181 |
|     199 | 0x0009      |           9 |
|     200 | 0xFFF9C77A  |  4294559610 |
|     201 | 0xFFF9961E  |  4294546974 |
|     202 | 0xFFFF64D0  |  4294927568 |
|     203 | 0x00B4      |         180 |
|     204 | 0x003C      |          60 |
|     205 | 0x00C8      |         200 |
|     206 | 0x005A      |          90 |
|     207 | 0x20CD      |        8397 |
|     208 | 0x20CE      |        8398 |
|     209 | 0x20CF      |        8399 |
|     210 | 0x20D0      |        8400 |
|     211 | 0x20D1      |        8401 |
|     212 | 0x20D2      |        8402 |
|     213 | 0x20D3      |        8403 |
|     214 | 0x20D4      |        8404 |
|     215 | 0x20D5      |        8405 |
|     216 | 0x20D6      |        8406 |
|     217 | 0x20D9      |        8409 |
|     218 | 0x20DA      |        8410 |
|     219 | 0x20DB      |        8411 |
|     220 | 0x20DC      |        8412 |
|     221 | 0x20DD      |        8413 |
|     222 | 0x20D7      |        8407 |
|     223 | 0x000B      |          11 |
|     224 | 0x20D8      |        8408 |
|     225 | 0x000C      |          12 |
|     226 | 0x20DE      |        8414 |
|     227 | 0x001A      |          26 |
|     228 | 0x20DF      |        8415 |
|     229 | 0x20E0      |        8416 |
|     230 | 0x20E1      |        8417 |
|     231 | 0x20E2      |        8418 |
|     232 | 0x20E3      |        8419 |
|     233 | 0x20E6      |        8422 |
|     234 | 0x20E7      |        8423 |
|     235 | 0x20E8      |        8424 |
|     236 | 0x20E9      |        8425 |
|     237 | 0x20EA      |        8426 |
|     238 | 0x20E4      |        8420 |
|     239 | 0x20E5      |        8421 |
|     240 | 0x20EB      |        8427 |
|     241 | 0x0108      |         264 |
|     242 | 0x002D      |          45 |
|     243 | 0x0021      |          33 |
|     244 | 0x0096      |         150 |
|     245 | 0x02E0      |         736 |
|     246 | 0x02E2      |         738 |
|     247 | 0x02E1      |         737 |
|     248 | 0x217C      |        8572 |
|     249 | 0x0016      |          22 |
|     250 | 0x3C081     |      245889 |
|     251 | 0x34FCA     |      217034 |
|     252 | 0x022E      |         558 |
|     253 | 0x0D81      |        3457 |
|     254 | 0x007C      |         124 |
|     255 | 0x00D2      |         210 |
|     256 | 0x20EC      |        8428 |
|     257 | 0x20ED      |        8429 |
|     258 | 0x20EE      |        8430 |
|     259 | 0x20EF      |        8431 |
|     260 | 0x20F0      |        8432 |
|     261 | 0x20F3      |        8435 |
|     262 | 0x20F4      |        8436 |
|     263 | 0x20F5      |        8437 |
|     264 | 0x20F6      |        8438 |
|     265 | 0x20F7      |        8439 |
|     266 | 0x20F1      |        8433 |
|     267 | 0x20F2      |        8434 |
|     268 | 0x20F8      |        8440 |
|     269 | 0x20F9      |        8441 |
|     270 | 0x20FA      |        8442 |
|     271 | 0x20FB      |        8443 |
|     272 | 0x20FC      |        8444 |
|     273 | 0x20FD      |        8445 |
|     274 | 0x2100      |        8448 |
|     275 | 0x2101      |        8449 |
|     276 | 0x2102      |        8450 |
|     277 | 0x2103      |        8451 |
|     278 | 0x2104      |        8452 |
|     279 | 0x20FE      |        8446 |
|     280 | 0x20FF      |        8447 |
|     281 | 0x2105      |        8453 |
|     282 | 0x2106      |        8454 |
|     283 | 0x2107      |        8455 |
|     284 | 0x2108      |        8456 |
|     285 | 0x2109      |        8457 |
|     286 | 0x210C      |        8460 |
|     287 | 0x210D      |        8461 |
|     288 | 0x210E      |        8462 |
|     289 | 0x210F      |        8463 |
|     290 | 0x2110      |        8464 |
|     291 | 0x210A      |        8458 |
|     292 | 0x210B      |        8459 |
|     293 | 0x2111      |        8465 |
|     294 | 0x2112      |        8466 |
|     295 | 0x2113      |        8467 |
|     296 | 0x2114      |        8468 |
|     297 | 0x2115      |        8469 |
|     298 | 0x2118      |        8472 |
|     299 | 0x2119      |        8473 |
|     300 | 0x211A      |        8474 |
|     301 | 0x211B      |        8475 |
|     302 | 0x211C      |        8476 |
|     303 | 0x2116      |        8470 |
|     304 | 0x2117      |        8471 |
|     305 | 0x211D      |        8477 |
|     306 | 0x012C      |         300 |
|     307 | 0x0013      |          19 |
|     308 | 0x001D      |          29 |
|     309 | 0x0027      |          39 |
|     310 | 0x0031      |          49 |
|     311 | 0x003B      |          59 |
|     312 | 0x0045      |          69 |
|     313 | 0x211E      |        8478 |
|     314 | 0x211F      |        8479 |
|     315 | 0x2120      |        8480 |
|     316 | 0x2121      |        8481 |
|     317 | 0x2124      |        8484 |
|     318 | 0x2125      |        8485 |
|     319 | 0x2126      |        8486 |
|     320 | 0x2127      |        8487 |
|     321 | 0x2128      |        8488 |
|     322 | 0x2122      |        8482 |
|     323 | 0x2123      |        8483 |
|     324 | 0x2129      |        8489 |
|     325 | 0x212A      |        8490 |
|     326 | 0x212B      |        8491 |
|     327 | 0x212C      |        8492 |
|     328 | 0x212D      |        8493 |
|     329 | 0x212E      |        8494 |
|     330 | 0x2131      |        8497 |
|     331 | 0x2132      |        8498 |
|     332 | 0x2133      |        8499 |
|     333 | 0x2134      |        8500 |
|     334 | 0x2135      |        8501 |
|     335 | 0x212F      |        8495 |
|     336 | 0x2130      |        8496 |
|     337 | 0x2136      |        8502 |
|     338 | 0x2137      |        8503 |
|     339 | 0x2138      |        8504 |
|     340 | 0x0015      |          21 |
|     341 | 0x2139      |        8505 |
|     342 | 0x213A      |        8506 |
|     343 | 0x213B      |        8507 |
|     344 | 0x213C      |        8508 |
|     345 | 0x213F      |        8511 |
|     346 | 0x2140      |        8512 |
|     347 | 0x2141      |        8513 |
|     348 | 0x2142      |        8514 |
|     349 | 0x2143      |        8515 |
|     350 | 0x213D      |        8509 |
|     351 | 0x213E      |        8510 |
|     352 | 0x2144      |        8516 |
|     353 | 0x2145      |        8517 |
|     354 | 0x2146      |        8518 |
|     355 | 0x0050      |          80 |
|     356 | 0x000F      |          15 |
|     357 | 0x00A8      |         168 |
|     358 | 0x00A9      |         169 |
|     359 | 0x00AE      |         174 |
|     360 | 0x2147      |        8519 |
|     361 | 0x2148      |        8520 |
|     362 | 0x2149      |        8521 |
|     363 | 0x214A      |        8522 |
|     364 | 0x214D      |        8525 |
|     365 | 0x214E      |        8526 |
|     366 | 0x214F      |        8527 |
|     367 | 0x2150      |        8528 |
|     368 | 0x2151      |        8529 |
|     369 | 0x214B      |        8523 |
|     370 | 0x214C      |        8524 |
|     371 | 0x2152      |        8530 |
|     372 | 0x2153      |        8531 |
|     373 | 0x2154      |        8532 |
|     374 | 0x2155      |        8533 |
|     375 | 0x2156      |        8534 |
|     376 | 0x2157      |        8535 |
|     377 | 0x2158      |        8536 |
|     378 | 0x215B      |        8539 |
|     379 | 0x215C      |        8540 |
|     380 | 0x215D      |        8541 |
|     381 | 0x215E      |        8542 |
|     382 | 0x215F      |        8543 |
|     383 | 0x2159      |        8537 |
|     384 | 0x215A      |        8538 |
|     385 | 0x2160      |        8544 |
|     386 | 0x2161      |        8545 |
|     387 | 0x00F5      |         245 |
|     388 | 0x01C7      |         455 |
|     389 | 0x0064      |         100 |
|     390 | 0x0053      |          83 |
|     391 | 0x2162      |        8546 |
|     392 | 0x2163      |        8547 |
|     393 | 0x006F      |         111 |
|     394 | 0x0168      |         360 |
|     395 | 0x2164      |        8548 |
|     396 | 0x2165      |        8549 |
|     397 | 0x2166      |        8550 |
|     398 | 0x2167      |        8551 |
|     399 | 0x216A      |        8554 |
|     400 | 0x216B      |        8555 |
|     401 | 0x216C      |        8556 |
|     402 | 0x216D      |        8557 |
|     403 | 0x216E      |        8558 |
|     404 | 0x2168      |        8552 |
|     405 | 0x2169      |        8553 |
|     406 | 0x216F      |        8559 |
|     407 | 0x2170      |        8560 |
|     408 | 0x2171      |        8561 |
|     409 | 0x2172      |        8562 |
|     410 | 0x2173      |        8563 |
|     411 | 0x2176      |        8566 |
|     412 | 0x2177      |        8567 |
|     413 | 0x2178      |        8568 |
|     414 | 0x2179      |        8569 |
|     415 | 0x217A      |        8570 |
|     416 | 0x2174      |        8564 |
|     417 | 0x2175      |        8565 |
|     418 | 0x217B      |        8571 |
|     419 | 0x00C9      |         201 |
|     420 | 0x005F      |          95 |
|     421 | 0x0069      |         105 |
|     422 | 0x0052      |          82 |
|     423 | 0x0057      |          87 |
|     424 | 0x005C      |          92 |
|     425 | 0x0059      |          89 |
|     426 | 0x005D      |          93 |
|     427 | 0x0061      |          97 |
|     428 | 0x0060      |          96 |
|     429 | 0x0012      |          18 |
|     430 | 0x0014      |          20 |
|     431 | 0x0017      |          23 |
|     432 | 0x000E      |          14 |
|     433 | 0x0018      |          24 |
|     434 | 0x001F      |          31 |
|     435 | 0x0010      |          16 |
|     436 | 0x018D      |         397 |
|     437 | 0x0175      |         373 |
|     438 | 0x0170      |         368 |
|     439 | 0x0171      |         369 |
|     440 | 0x014C      |         332 |
|     441 | 0x01C1      |         449 |
|     442 | 0x027C      |         636 |
|     443 | 0x027B      |         635 |
|     444 | 0x027D      |         637 |
|     445 | 0x02D3      |         723 |
|     446 | 0x0321      |         801 |
|     447 | 0x0326      |         806 |
|     448 | 0x01E1      |         481 |
|     449 | 0x0343      |         835 |
|     450 | 0x0386      |         902 |
|     451 | 0x0388      |         904 |
|     452 | 0x0361      |         865 |
|     453 | 0x0387      |         903 |
|     454 | 0x038A      |         906 |
|     455 | 0x003F      |          63 |
|     456 | 0x0282      |         642 |
|     457 | 0x0283      |         643 |
|     458 | 0x0288      |         648 |
|     459 | 0x0289      |         649 |
|     460 | 0x028A      |         650 |
|     461 | 0x028B      |         651 |
|     462 | 0x029E      |         670 |
|     463 | 0x0019      |          25 |
|     464 | 0x00C6      |         198 |
|     465 | 0x0032      |          50 |
|     466 | 0x008C      |         140 |
|     467 | 0x008E      |         142 |
|     468 | 0x007A      |         122 |
|     469 | 0x014B      |         331 |
|     470 | 0x0148      |         328 |
|     471 | 0x0166      |         358 |
|     472 | 0x017A      |         378 |
|     473 | 0x0182      |         386 |
|     474 | 0x0183      |         387 |
|     475 | 0x0192      |         402 |
|     476 | 0x01DF      |         479 |
|     477 | 0x01E9      |         489 |
|     478 | 0x001C      |          28 |
|     479 | 0x00E6      |         230 |
|     480 | 0x00EB      |         235 |
|     481 | 0x007E      |         126 |
|     482 | 0x00F3      |         243 |
|     483 | 0x00F4      |         244 |
|     484 | 0x00E0      |         224 |
|     485 | 0x00E9      |         233 |
|     486 | 0x009E      |         158 |
|     487 | 0x009D      |         157 |
|     488 | 0x00E2      |         226 |
|     489 | 0x00E1      |         225 |
|     490 | 0x014F      |         335 |
|     491 | 0x014E      |         334 |
|     492 | 0x0167      |         359 |
|     493 | 0x00E5      |         229 |
|     494 | 0x0169      |         361 |
|     495 | 0x016A      |         362 |
|     496 | 0x0133      |         307 |
|     497 | 0x0174      |         372 |
|     498 | 0x018C      |         396 |
|     499 | 0x0194      |         404 |
|     500 | 0x0195      |         405 |
|     501 | 0x0178      |         376 |
|     502 | 0x0197      |         407 |
|     503 | 0x0198      |         408 |
|     504 | 0x01A3      |         419 |
|     505 | 0x019E      |         414 |
|     506 | 0x0246      |         582 |
|     507 | 0x0247      |         583 |
|     508 | 0x0248      |         584 |
|     509 | 0x024B      |         587 |
|     510 | 0x024A      |         586 |
|     511 | 0x024F      |         591 |
|     512 | 0x01C3      |         451 |
|     513 | 0x01C4      |         452 |
|     514 | 0x01EF      |         495 |
|     515 | 0x01F0      |         496 |
|     516 | 0x0095      |         149 |
|     517 | 0x0073      |         115 |
|     518 | 0x0034      |          52 |
|     519 | 0x0024      |          36 |
|     520 | 0x005E      |          94 |
|     521 | 0x0072      |         114 |
|     522 | 0x006C      |         108 |
|     523 | 0x003A      |          58 |
|     524 | 0x0035      |          53 |
|     525 | 0x0085      |         133 |
|     526 | 0x0081      |         129 |
|     527 | 0x0023      |          35 |
|     528 | 0x0033      |          51 |
|     529 | 0x0082      |         130 |
|     530 | 0x0039      |          57 |
|     531 | 0x0020      |          32 |
|     532 | 0x0038      |          56 |
|     533 | 0x0036      |          54 |
|     534 | 0x0083      |         131 |
|     535 | 0x00A2      |         162 |
|     536 | 0x0022      |          34 |
|     537 | 0x0065      |         101 |
|     538 | 0x0086      |         134 |
|     539 | 0x0062      |          98 |
|     540 | 0x008D      |         141 |
|     541 | 0x0037      |          55 |
|     542 | 0x008A      |         138 |
|     543 | 0x008B      |         139 |
|     544 | 0x002B      |          43 |
|     545 | 0x0067      |         103 |
|     546 | 0x0030      |          48 |
|     547 | 0x0066      |         102 |
|     548 | 0x0075      |         117 |
|     549 | 0x0068      |         104 |
|     550 | 0x007B      |         123 |
|     551 | 0x0077      |         119 |
|     552 | 0x01FE      |         510 |
|     553 | 0x009F      |         159 |
|     554 | 0x00A4      |         164 |
|     555 | 0x00AC      |         172 |
|     556 | 0x00B2      |         178 |
|     557 | 0x00B0      |         176 |
|     558 | 0x013D      |         317 |
|     559 | 0x010C      |         268 |
|     560 | 0x0100      |         256 |
|     561 | 0x00FB      |         251 |
|     562 | 0x00B8      |         184 |
|     563 | 0x011C      |         284 |
|     564 | 0x0041      |          65 |
|     565 | 0x0042      |          66 |
|     566 | 0x0047      |          71 |
|     567 | 0x0160      |         352 |
|     568 | 0x0043      |          67 |
|     569 | 0x0048      |          72 |
|     570 | 0x004B      |          75 |
|     571 | 0x004C      |          76 |
|     572 | 0x004D      |          77 |
|     573 | 0x005B      |          91 |
|     574 | 0x0058      |          88 |
|     575 | 0x0054      |          84 |
|     576 | 0x0161      |         353 |
|     577 | 0x015C      |         348 |
|     578 | 0x016D      |         365 |
|     579 | 0x00C5      |         197 |
|     580 | 0x00C3      |         195 |
|     581 | 0x00C7      |         199 |
|     582 | 0x015E      |         350 |
|     583 | 0x00C4      |         196 |
|     584 | 0x016E      |         366 |
|     585 | 0x00D0      |         208 |
|     586 | 0x00CD      |         205 |
|     587 | 0x00CA      |         202 |
|     588 | 0x00D8      |         216 |
|     589 | 0x00D5      |         213 |
|     590 | 0x00D6      |         214 |
|     591 | 0x013B      |         315 |
|     592 | 0x0136      |         310 |
|     593 | 0x013A      |         314 |
|     594 | 0x0137      |         311 |
|     595 | 0x016F      |         367 |
|     596 | 0x0138      |         312 |
|     597 | 0x0139      |         313 |
|     598 | 0x009A      |         154 |
|     599 | 0x0091      |         145 |
|     600 | 0x009B      |         155 |
|     601 | 0x0099      |         153 |
|     602 | 0x0093      |         147 |
|     603 | 0x0092      |         146 |
|     604 | 0x0098      |         152 |
|     605 | 0x0071      |         113 |
|     606 | 0x00E8      |         232 |
|     607 | 0x00DD      |         221 |
|     608 | 0x00F8      |         248 |
|     609 | 0x00F1      |         241 |
|     610 | 0x0124      |         292 |
|     611 | 0x012E      |         302 |
|     612 | 0x0129      |         297 |
|     613 | 0x0122      |         290 |
|     614 | 0x0132      |         306 |
|     615 | 0x0126      |         294 |
|     616 | 0x0155      |         341 |
|     617 | 0x0025      |          37 |
|     618 | 0x0029      |          41 |
|     619 | 0x007D      |         125 |
|     620 | 0x0079      |         121 |
|     621 | 0x0074      |         116 |
|     622 | 0x00EC      |         236 |
|     623 | 0x019C      |         412 |
|     624 | 0x0193      |         403 |
|     625 | 0x01C6      |         454 |
|     626 | 0xFFFFEFD9  |  4294963161 |
|     627 | 0xFFFEE55E  |  4294894942 |
|     628 | 0xFFFF164D  |  4294907469 |
|     629 | 0xFFFFB6C9  |  4294948553 |
|     630 | 0xFFFECE32  |  4294889010 |
|     631 | 0xFFFF1949  |  4294908233 |
|     632 | 0xFFFFB38E  |  4294947726 |
|     633 | 0xFFFEDE6B  |  4294893163 |
|     634 | 0xFFFF1690  |  4294907536 |
|     635 | 0xFFFFB1AF  |  4294947247 |
|     636 | 0xFFFEE579  |  4294894969 |
|     637 | 0xFFFF15CE  |  4294907342 |
|     638 | 0xFFFFB0CA  |  4294947018 |
|     639 | 0xFFFEF456  |  4294898774 |
|     640 | 0xFFFF14A7  |  4294907047 |
|     641 | 0x3A202     |      238082 |
|     642 | 0x3C3E5     |      246757 |
|     643 | 0x35B47     |      219975 |
|     644 | 0x419EE     |      268782 |
|     645 | 0xFFFF6774  |  4294928244 |
|     646 | 0x34E5A     |      216666 |
|     647 | 0x4325A     |      275034 |
|     648 | 0xFFFF66D1  |  4294928081 |
|     649 | 0x361FD     |      221693 |
|     650 | 0x3FBF7     |      261111 |
|     651 | 0xFFFF6C29  |  4294929449 |
|     652 | 0x3A959     |      239961 |
|     653 | 0x3AC87     |      240775 |
|     654 | 0x342F6     |      213750 |
|     655 | 0x41FB4     |      270260 |
|     656 | 0xFFFF64DB  |  4294927579 |
|     657 | 0x36020     |      221216 |
|     658 | 0x3FAF6     |      260854 |
|     659 | 0xFFFF6C58  |  4294929496 |
|     660 | 0x39DC2     |      236994 |
|     661 | 0x3A486     |      238726 |
|     662 | 0x0046      |          70 |
|     663 | 0x004F      |          79 |
|     664 | 0x0040      |          64 |

## String References

- **8572**: You set up the $3, the $3, and the $3, then strike up a flame...

## Events

### Event 65535

#### Metadata

| Field        | Value   |
|--------------|---------|
| Entrypoint   | 0x0000  |
| Data Size    | 1 bytes |
| Instructions | 1       |

```
      00 01 02 03 04 05 06 07  08 09 0A 0B 0C 0D 0E 0F
      -- -- -- -- -- -- -- --  -- -- -- -- -- -- -- --
0000: 00                                                .               
```

#### Opcodes

```
  0: 0x0000 [0x00] END_REQSTACK()
```

### Event 65534

#### Metadata

| Field        | Value   |
|--------------|---------|
| Entrypoint   | 0x0001  |
| Data Size    | 1 bytes |
| Instructions | 1       |

```
      00 01 02 03 04 05 06 07  08 09 0A 0B 0C 0D 0E 0F
      -- -- -- -- -- -- -- --  -- -- -- -- -- -- -- --
0000:    00                                              .              
```

#### Opcodes

```
  0: 0x0001 [0x00] END_REQSTACK()
```

### Event 65535.1

#### Metadata

| Field        | Value    |
|--------------|----------|
| Entrypoint   | 0x0002   |
| Data Size    | 46 bytes |
| Instructions | 10       |

```
      00 01 02 03 04 05 06 07  08 09 0A 0B 0C 0D 0E 0F
      -- -- -- -- -- -- -- --  -- -- -- -- -- -- -- --
0000:       37 00 80 01 80 02  80 03 80 1C 04 80 32 05    7...........2.
0010: 80 1F 00 06 80 07 80 08  80 1F 01 6F 1C 09 80 2C  ...........o...,
0020: F0 FF FF 7F F0 FF FF 7F  72 65 73 30 1C 0A 80 00  ........res0....
```

#### Opcodes

```
  0: 0x0002 [0x37] UPDATE_EVENT_POSITION_AND_DIR: x=-95.377*, z=-397.129*, y=0.733*, direction=256.5°*
  1: 0x000B [0x1C] WAIT(1* ticks)
  2: 0x000E [0x32] ExtData[1]->MainSpeed = 13* * 0.1
  3: 0x0011 [0x1F] MOVE_ENTITY: EventEntity moves to X=-96.185*, Z=-394.434*, Y=1.035*
  4: 0x0019 [0x1F] MOVE_ENTITY: Update entity position (mode=1)
  5: 0x001B [0x6F] WAIT_FRAME_DELAY: Yield until WaitTime reaches zero
  6: 0x001C [0x1C] WAIT(30* ticks)
  7: 0x001F [0x2C] CREATE_SCHEDULER_TASK: Create scheduler "res0" with entities [LocalPlayer, LocalPlayer]
  8: 0x002C [0x1C] WAIT(120* ticks)
  9: 0x002F [0x00] END_REQSTACK()
```

### Event 65535.2

#### Metadata

| Field        | Value    |
|--------------|----------|
| Entrypoint   | 0x0030   |
| Data Size    | 10 bytes |
| Instructions | 2        |

```
      00 01 02 03 04 05 06 07  08 09 0A 0B 0C 0D 0E 0F
      -- -- -- -- -- -- -- --  -- -- -- -- -- -- -- --
0030: 37 0B 80 0C 80 0D 80 0E  80 00                    7.........      
```

#### Opcodes

```
  0: 0x0030 [0x37] UPDATE_EVENT_POSITION_AND_DIR: x=138.570*, z=121.977*, y=-2.000*, direction=189.8°*
  1: 0x0039 [0x00] END_REQSTACK()
```

### Event 65535.3

#### Metadata

| Field        | Value    |
|--------------|----------|
| Entrypoint   | 0x003A   |
| Data Size    | 10 bytes |
| Instructions | 2        |

```
      00 01 02 03 04 05 06 07  08 09 0A 0B 0C 0D 0E 0F
      -- -- -- -- -- -- -- --  -- -- -- -- -- -- -- --
0030:                                37 0F 80 10 80 11            7.....
0040: 80 12 80 00                                       ....            
```

#### Opcodes

```
  0: 0x003A [0x37] UPDATE_EVENT_POSITION_AND_DIR: x=98.429*, z=-65.755*, y=0.996*, direction=109.9°*
  1: 0x0043 [0x00] END_REQSTACK()
```

### Event 65535.4

#### Metadata

| Field        | Value    |
|--------------|----------|
| Entrypoint   | 0x0044   |
| Data Size    | 10 bytes |
| Instructions | 2        |

```
      00 01 02 03 04 05 06 07  08 09 0A 0B 0C 0D 0E 0F
      -- -- -- -- -- -- -- --  -- -- -- -- -- -- -- --
0040:             37 13 80 14  80 15 80 16 80 00            7.........  
```

#### Opcodes

```
  0: 0x0044 [0x37] UPDATE_EVENT_POSITION_AND_DIR: x=-216.466*, z=-92.633*, y=-0.245*, direction=224.2°*
  1: 0x004D [0x00] END_REQSTACK()
```

### Event 65535.5

#### Metadata

| Field        | Value    |
|--------------|----------|
| Entrypoint   | 0x004E   |
| Data Size    | 10 bytes |
| Instructions | 2        |

```
      00 01 02 03 04 05 06 07  08 09 0A 0B 0C 0D 0E 0F
      -- -- -- -- -- -- -- --  -- -- -- -- -- -- -- --
0040:                                            37 17                7.
0050: 80 18 80 19 80 1A 80 00                           ........        
```

#### Opcodes

```
  0: 0x004E [0x37] UPDATE_EVENT_POSITION_AND_DIR: x=35.631*, z=-50.515*, y=9.001*, direction=223.2°*
  1: 0x0057 [0x00] END_REQSTACK()
```

### Event 65535.6

#### Metadata

| Field        | Value    |
|--------------|----------|
| Entrypoint   | 0x0058   |
| Data Size    | 10 bytes |
| Instructions | 2        |

```
      00 01 02 03 04 05 06 07  08 09 0A 0B 0C 0D 0E 0F
      -- -- -- -- -- -- -- --  -- -- -- -- -- -- -- --
0050:                          37 1B 80 1C 80 0D 80 1D          7.......
0060: 80 00                                             ..              
```

#### Opcodes

```
  0: 0x0058 [0x37] UPDATE_EVENT_POSITION_AND_DIR: x=161.426*, z=161.015*, y=-2.000*, direction=134.3°*
  1: 0x0061 [0x00] END_REQSTACK()
```

### Event 65535.7

#### Metadata

| Field        | Value    |
|--------------|----------|
| Entrypoint   | 0x0062   |
| Data Size    | 10 bytes |
| Instructions | 2        |

```
      00 01 02 03 04 05 06 07  08 09 0A 0B 0C 0D 0E 0F
      -- -- -- -- -- -- -- --  -- -- -- -- -- -- -- --
0060:       37 1E 80 1F 80 11  80 20 80 00                7...... ..    
```

#### Opcodes

```
  0: 0x0062 [0x37] UPDATE_EVENT_POSITION_AND_DIR: x=116.803*, z=-72.037*, y=0.996*, direction=179.4°*
  1: 0x006B [0x00] END_REQSTACK()
```

### Event 65535.8

#### Metadata

| Field        | Value    |
|--------------|----------|
| Entrypoint   | 0x006C   |
| Data Size    | 10 bytes |
| Instructions | 2        |

```
      00 01 02 03 04 05 06 07  08 09 0A 0B 0C 0D 0E 0F
      -- -- -- -- -- -- -- --  -- -- -- -- -- -- -- --
0060:                                      37 21 80 22              7!."
0070: 80 23 80 24 80 00                                 .#.$..          
```

#### Opcodes

```
  0: 0x006C [0x37] UPDATE_EVENT_POSITION_AND_DIR: x=-228.551*, z=-119.930*, y=-0.249*, direction=359.7°*
  1: 0x0075 [0x00] END_REQSTACK()
```

### Event 65535.9

#### Metadata

| Field        | Value    |
|--------------|----------|
| Entrypoint   | 0x0076   |
| Data Size    | 10 bytes |
| Instructions | 2        |

```
      00 01 02 03 04 05 06 07  08 09 0A 0B 0C 0D 0E 0F
      -- -- -- -- -- -- -- --  -- -- -- -- -- -- -- --
0070:                   37 25  80 26 80 27 80 28 80 00        7%.&.'.(..
```

#### Opcodes

```
  0: 0x0076 [0x37] UPDATE_EVENT_POSITION_AND_DIR: x=49.022*, z=-73.036*, y=10.002*, direction=271.3°*
  1: 0x007F [0x00] END_REQSTACK()
```

### Event 65535.10

#### Metadata

| Field        | Value    |
|--------------|----------|
| Entrypoint   | 0x0080   |
| Data Size    | 10 bytes |
| Instructions | 2        |

```
      00 01 02 03 04 05 06 07  08 09 0A 0B 0C 0D 0E 0F
      -- -- -- -- -- -- -- --  -- -- -- -- -- -- -- --
0080: 37 29 80 2A 80 11 80 2B  80 00                    7).*...+..      
```

#### Opcodes

```
  0: 0x0080 [0x37] UPDATE_EVENT_POSITION_AND_DIR: x=99.821*, z=-65.633*, y=0.996*, direction=69.1°*
  1: 0x0089 [0x00] END_REQSTACK()
```

### Event 65535.11

#### Metadata

| Field        | Value    |
|--------------|----------|
| Entrypoint   | 0x008A   |
| Data Size    | 10 bytes |
| Instructions | 2        |

```
      00 01 02 03 04 05 06 07  08 09 0A 0B 0C 0D 0E 0F
      -- -- -- -- -- -- -- --  -- -- -- -- -- -- -- --
0080:                                37 2C 80 2D 80 0D            7,.-..
0090: 80 2E 80 00                                       ....            
```

#### Opcodes

```
  0: 0x008A [0x37] UPDATE_EVENT_POSITION_AND_DIR: x=138.154*, z=120.084*, y=-2.000*, direction=328.2°*
  1: 0x0093 [0x00] END_REQSTACK()
```

### Event 65535.12

#### Metadata

| Field        | Value    |
|--------------|----------|
| Entrypoint   | 0x0094   |
| Data Size    | 10 bytes |
| Instructions | 2        |

```
      00 01 02 03 04 05 06 07  08 09 0A 0B 0C 0D 0E 0F
      -- -- -- -- -- -- -- --  -- -- -- -- -- -- -- --
0090:             37 2F 80 30  80 31 80 32 80 00            7/.0.1.2..  
```

#### Opcodes

```
  0: 0x0094 [0x37] UPDATE_EVENT_POSITION_AND_DIR: x=-216.145*, z=-94.016*, y=-0.142*, direction=186.6°*
  1: 0x009D [0x00] END_REQSTACK()
```

### Event 65535.13

#### Metadata

| Field        | Value    |
|--------------|----------|
| Entrypoint   | 0x009E   |
| Data Size    | 10 bytes |
| Instructions | 2        |

```
      00 01 02 03 04 05 06 07  08 09 0A 0B 0C 0D 0E 0F
      -- -- -- -- -- -- -- --  -- -- -- -- -- -- -- --
0090:                                            37 33                73
00A0: 80 34 80 19 80 35 80 00                           .4...5..        
```

#### Opcodes

```
  0: 0x009E [0x37] UPDATE_EVENT_POSITION_AND_DIR: x=35.685*, z=-50.129*, y=9.001*, direction=143.0°*
  1: 0x00A7 [0x00] END_REQSTACK()
```

### Event 65535.14

#### Metadata

| Field        | Value    |
|--------------|----------|
| Entrypoint   | 0x00A8   |
| Data Size    | 10 bytes |
| Instructions | 2        |

```
      00 01 02 03 04 05 06 07  08 09 0A 0B 0C 0D 0E 0F
      -- -- -- -- -- -- -- --  -- -- -- -- -- -- -- --
00A0:                          37 36 80 37 80 38 80 39          76.7.8.9
00B0: 80 00                                             ..              
```

#### Opcodes

```
  0: 0x00A8 [0x37] UPDATE_EVENT_POSITION_AND_DIR: x=-278.719*, z=-417.230*, y=-39.909*, direction=239.6°*
  1: 0x00B1 [0x00] END_REQSTACK()
```

### Event 65535.15

#### Metadata

| Field        | Value    |
|--------------|----------|
| Entrypoint   | 0x00B2   |
| Data Size    | 10 bytes |
| Instructions | 2        |

```
      00 01 02 03 04 05 06 07  08 09 0A 0B 0C 0D 0E 0F
      -- -- -- -- -- -- -- --  -- -- -- -- -- -- -- --
00B0:       37 3A 80 3B 80 3C  80 3D 80 00                7:.;.<.=..    
```

#### Opcodes

```
  0: 0x00B2 [0x37] UPDATE_EVENT_POSITION_AND_DIR: x=571.326*, z=-272.093*, y=-0.349*, direction=37.1°*
  1: 0x00BB [0x00] END_REQSTACK()
```

### Event 65535.16

#### Metadata

| Field        | Value    |
|--------------|----------|
| Entrypoint   | 0x00BC   |
| Data Size    | 10 bytes |
| Instructions | 2        |

```
      00 01 02 03 04 05 06 07  08 09 0A 0B 0C 0D 0E 0F
      -- -- -- -- -- -- -- --  -- -- -- -- -- -- -- --
00B0:                                      37 3E 80 3F              7>.?
00C0: 80 40 80 41 80 00                                 .@.A..          
```

#### Opcodes

```
  0: 0x00BC [0x37] UPDATE_EVENT_POSITION_AND_DIR: x=-281.057*, z=-421.233*, y=-39.794*, direction=157.8°*
  1: 0x00C5 [0x00] END_REQSTACK()
```

### Event 65535.17

#### Metadata

| Field        | Value    |
|--------------|----------|
| Entrypoint   | 0x00C6   |
| Data Size    | 10 bytes |
| Instructions | 2        |

```
      00 01 02 03 04 05 06 07  08 09 0A 0B 0C 0D 0E 0F
      -- -- -- -- -- -- -- --  -- -- -- -- -- -- -- --
00C0:                   37 42  80 43 80 44 80 45 80 00        7B.C.D.E..
```

#### Opcodes

```
  0: 0x00C6 [0x37] UPDATE_EVENT_POSITION_AND_DIR: x=561.040*, z=-276.985*, y=0.000*, direction=152.3°*
  1: 0x00CF [0x00] END_REQSTACK()
```

### Event 65535.18

#### Metadata

| Field        | Value    |
|--------------|----------|
| Entrypoint   | 0x00D0   |
| Data Size    | 10 bytes |
| Instructions | 2        |

```
      00 01 02 03 04 05 06 07  08 09 0A 0B 0C 0D 0E 0F
      -- -- -- -- -- -- -- --  -- -- -- -- -- -- -- --
00D0: 37 46 80 47 80 48 80 49  80 00                    7F.G.H.I..      
```

#### Opcodes

```
  0: 0x00D0 [0x37] UPDATE_EVENT_POSITION_AND_DIR: x=-358.228*, z=19.933*, y=-35.004*, direction=184.3°*
  1: 0x00D9 [0x00] END_REQSTACK()
```

### Event 65535.19

#### Metadata

| Field        | Value    |
|--------------|----------|
| Entrypoint   | 0x00DA   |
| Data Size    | 10 bytes |
| Instructions | 2        |

```
      00 01 02 03 04 05 06 07  08 09 0A 0B 0C 0D 0E 0F
      -- -- -- -- -- -- -- --  -- -- -- -- -- -- -- --
00D0:                                37 4A 80 4B 80 4C            7J.K.L
00E0: 80 4D 80 00                                       .M..            
```

#### Opcodes

```
  0: 0x00DA [0x37] UPDATE_EVENT_POSITION_AND_DIR: x=121.457*, z=115.601*, y=-7.981*, direction=307.3°*
  1: 0x00E3 [0x00] END_REQSTACK()
```

### Event 65535.20

#### Metadata

| Field        | Value    |
|--------------|----------|
| Entrypoint   | 0x00E4   |
| Data Size    | 10 bytes |
| Instructions | 2        |

```
      00 01 02 03 04 05 06 07  08 09 0A 0B 0C 0D 0E 0F
      -- -- -- -- -- -- -- --  -- -- -- -- -- -- -- --
00E0:             37 4E 80 4F  80 50 80 51 80 00            7N.O.P.Q..  
```

#### Opcodes

```
  0: 0x00E4 [0x37] UPDATE_EVENT_POSITION_AND_DIR: x=154.569*, z=-174.284*, y=0.551*, direction=205.0°*
  1: 0x00ED [0x00] END_REQSTACK()
```

### Event 65535.21

#### Metadata

| Field        | Value    |
|--------------|----------|
| Entrypoint   | 0x00EE   |
| Data Size    | 10 bytes |
| Instructions | 2        |

```
      00 01 02 03 04 05 06 07  08 09 0A 0B 0C 0D 0E 0F
      -- -- -- -- -- -- -- --  -- -- -- -- -- -- -- --
00E0:                                            37 52                7R
00F0: 80 53 80 54 80 55 80 00                           .S.T.U..        
```

#### Opcodes

```
  0: 0x00EE [0x37] UPDATE_EVENT_POSITION_AND_DIR: x=-15.373*, z=104.022*, y=-17.300*, direction=78.1°*
  1: 0x00F7 [0x00] END_REQSTACK()
```

### Event 65535.22

#### Metadata

| Field        | Value    |
|--------------|----------|
| Entrypoint   | 0x00F8   |
| Data Size    | 12 bytes |
| Instructions | 3        |

```
      00 01 02 03 04 05 06 07  08 09 0A 0B 0C 0D 0E 0F
      -- -- -- -- -- -- -- --  -- -- -- -- -- -- -- --
00F0:                          33 01 37 56 80 57 80 58          3.7V.W.X
0100: 80 59 80 00                                       .Y..            
```

#### Opcodes

```
  0: 0x00F8 [0x33] EventEntity->Render.Flags0 |= 0x200000 // Bit 21 (flag=0x01)
  1: 0x00FA [0x37] UPDATE_EVENT_POSITION_AND_DIR: x=0.646*, z=-26.695*, y=-7.109*, direction=147.0°*
  2: 0x0103 [0x00] END_REQSTACK()
```

### Event 65535.23

#### Metadata

| Field        | Value    |
|--------------|----------|
| Entrypoint   | 0x0104   |
| Data Size    | 10 bytes |
| Instructions | 2        |

```
      00 01 02 03 04 05 06 07  08 09 0A 0B 0C 0D 0E 0F
      -- -- -- -- -- -- -- --  -- -- -- -- -- -- -- --
0100:             37 5A 80 5B  80 5C 80 5D 80 00            7Z.[.\.]..  
```

#### Opcodes

```
  0: 0x0104 [0x37] UPDATE_EVENT_POSITION_AND_DIR: x=-0.047*, z=-32.521*, y=-23.499*, direction=89.7°*
  1: 0x010D [0x00] END_REQSTACK()
```

### Event 65535.24

#### Metadata

| Field        | Value    |
|--------------|----------|
| Entrypoint   | 0x010E   |
| Data Size    | 10 bytes |
| Instructions | 2        |

```
      00 01 02 03 04 05 06 07  08 09 0A 0B 0C 0D 0E 0F
      -- -- -- -- -- -- -- --  -- -- -- -- -- -- -- --
0100:                                            37 5E                7^
0110: 80 5F 80 60 80 61 80 00                           ._.`.a..        
```

#### Opcodes

```
  0: 0x010E [0x37] UPDATE_EVENT_POSITION_AND_DIR: x=-103.036*, z=86.557*, y=-72.000*, direction=141.7°*
  1: 0x0117 [0x00] END_REQSTACK()
```

### Event 65535.25

#### Metadata

| Field        | Value    |
|--------------|----------|
| Entrypoint   | 0x0118   |
| Data Size    | 10 bytes |
| Instructions | 2        |

```
      00 01 02 03 04 05 06 07  08 09 0A 0B 0C 0D 0E 0F
      -- -- -- -- -- -- -- --  -- -- -- -- -- -- -- --
0110:                          37 62 80 63 80 64 80 65          7b.c.d.e
0120: 80 00                                             ..              
```

#### Opcodes

```
  0: 0x0118 [0x37] UPDATE_EVENT_POSITION_AND_DIR: x=646.217*, z=-168.348*, y=0.161*, direction=281.7°*
  1: 0x0121 [0x00] END_REQSTACK()
```

### Event 65535.26

#### Metadata

| Field        | Value    |
|--------------|----------|
| Entrypoint   | 0x0122   |
| Data Size    | 10 bytes |
| Instructions | 2        |

```
      00 01 02 03 04 05 06 07  08 09 0A 0B 0C 0D 0E 0F
      -- -- -- -- -- -- -- --  -- -- -- -- -- -- -- --
0120:       37 66 80 67 80 68  80 69 80 00                7f.g.h.i..    
```

#### Opcodes

```
  0: 0x0122 [0x37] UPDATE_EVENT_POSITION_AND_DIR: x=-21.085*, z=59.850*, y=-2.151*, direction=296.0°*
  1: 0x012B [0x00] END_REQSTACK()
```

### Event 65535.27

#### Metadata

| Field        | Value    |
|--------------|----------|
| Entrypoint   | 0x012C   |
| Data Size    | 10 bytes |
| Instructions | 2        |

```
      00 01 02 03 04 05 06 07  08 09 0A 0B 0C 0D 0E 0F
      -- -- -- -- -- -- -- --  -- -- -- -- -- -- -- --
0120:                                      37 6A 80 6B              7j.k
0130: 80 6C 80 6D 80 00                                 .l.m..          
```

#### Opcodes

```
  0: 0x012C [0x37] UPDATE_EVENT_POSITION_AND_DIR: x=-87.052*, z=-373.066*, y=0.301*, direction=149.4°*
  1: 0x0135 [0x00] END_REQSTACK()
```

### Event 65535.28

#### Metadata

| Field        | Value    |
|--------------|----------|
| Entrypoint   | 0x0136   |
| Data Size    | 10 bytes |
| Instructions | 2        |

```
      00 01 02 03 04 05 06 07  08 09 0A 0B 0C 0D 0E 0F
      -- -- -- -- -- -- -- --  -- -- -- -- -- -- -- --
0130:                   37 6E  80 6F 80 70 80 71 80 00        7n.o.p.q..
```

#### Opcodes

```
  0: 0x0136 [0x37] UPDATE_EVENT_POSITION_AND_DIR: x=-150.617*, z=20.209*, y=-16.396*, direction=186.8°*
  1: 0x013F [0x00] END_REQSTACK()
```

### Event 65535.29

#### Metadata

| Field        | Value    |
|--------------|----------|
| Entrypoint   | 0x0140   |
| Data Size    | 10 bytes |
| Instructions | 2        |

```
      00 01 02 03 04 05 06 07  08 09 0A 0B 0C 0D 0E 0F
      -- -- -- -- -- -- -- --  -- -- -- -- -- -- -- --
0140: 37 72 80 73 80 74 80 75  80 00                    7r.s.t.u..      
```

#### Opcodes

```
  0: 0x0140 [0x37] UPDATE_EVENT_POSITION_AND_DIR: x=0.010*, z=-38.347*, y=8.999*, direction=88.3°*
  1: 0x0149 [0x00] END_REQSTACK()
```

### Event 65535.30

#### Metadata

| Field        | Value    |
|--------------|----------|
| Entrypoint   | 0x014A   |
| Data Size    | 10 bytes |
| Instructions | 2        |

```
      00 01 02 03 04 05 06 07  08 09 0A 0B 0C 0D 0E 0F
      -- -- -- -- -- -- -- --  -- -- -- -- -- -- -- --
0140:                                37 76 80 77 80 78            7v.w.x
0150: 80 79 80 00                                       .y..            
```

#### Opcodes

```
  0: 0x014A [0x37] UPDATE_EVENT_POSITION_AND_DIR: x=-217.367*, z=461.829*, y=97.264*, direction=200.3°*
  1: 0x0153 [0x00] END_REQSTACK()
```

### Event 65535.31

#### Metadata

| Field        | Value    |
|--------------|----------|
| Entrypoint   | 0x0154   |
| Data Size    | 10 bytes |
| Instructions | 2        |

```
      00 01 02 03 04 05 06 07  08 09 0A 0B 0C 0D 0E 0F
      -- -- -- -- -- -- -- --  -- -- -- -- -- -- -- --
0150:             37 7A 80 7B  80 7C 80 7D 80 00            7z.{.|.}..  
```

#### Opcodes

```
  0: 0x0154 [0x37] UPDATE_EVENT_POSITION_AND_DIR: x=-241.909*, z=333.156*, y=-12.056*, direction=55.5°*
  1: 0x015D [0x00] END_REQSTACK()
```

### Event 65535.32

#### Metadata

| Field        | Value    |
|--------------|----------|
| Entrypoint   | 0x015E   |
| Data Size    | 10 bytes |
| Instructions | 2        |

```
      00 01 02 03 04 05 06 07  08 09 0A 0B 0C 0D 0E 0F
      -- -- -- -- -- -- -- --  -- -- -- -- -- -- -- --
0150:                                            37 7E                7~
0160: 80 7F 80 80 80 81 80 00                           ........        
```

#### Opcodes

```
  0: 0x015E [0x37] UPDATE_EVENT_POSITION_AND_DIR: x=-355.293*, z=-102.990*, y=15.473*, direction=200.7°*
  1: 0x0167 [0x00] END_REQSTACK()
```

### Event 65535.33

#### Metadata

| Field        | Value    |
|--------------|----------|
| Entrypoint   | 0x0168   |
| Data Size    | 10 bytes |
| Instructions | 2        |

```
      00 01 02 03 04 05 06 07  08 09 0A 0B 0C 0D 0E 0F
      -- -- -- -- -- -- -- --  -- -- -- -- -- -- -- --
0160:                          37 82 80 83 80 84 80 85          7.......
0170: 80 00                                             ..              
```

#### Opcodes

```
  0: 0x0168 [0x37] UPDATE_EVENT_POSITION_AND_DIR: x=448.799*, z=-29.349*, y=-39.711*, direction=50.6°*
  1: 0x0171 [0x00] END_REQSTACK()
```

### Event 65535.34

#### Metadata

| Field        | Value    |
|--------------|----------|
| Entrypoint   | 0x0172   |
| Data Size    | 10 bytes |
| Instructions | 2        |

```
      00 01 02 03 04 05 06 07  08 09 0A 0B 0C 0D 0E 0F
      -- -- -- -- -- -- -- --  -- -- -- -- -- -- -- --
0170:       37 86 80 87 80 88  80 89 80 00                7.........    
```

#### Opcodes

```
  0: 0x0172 [0x37] UPDATE_EVENT_POSITION_AND_DIR: x=-17.660*, z=54.249*, y=-0.441*, direction=242.2°*
  1: 0x017B [0x00] END_REQSTACK()
```

### Event 65535.35

#### Metadata

| Field        | Value    |
|--------------|----------|
| Entrypoint   | 0x017C   |
| Data Size    | 10 bytes |
| Instructions | 2        |

```
      00 01 02 03 04 05 06 07  08 09 0A 0B 0C 0D 0E 0F
      -- -- -- -- -- -- -- --  -- -- -- -- -- -- -- --
0170:                                      37 8A 80 8B              7...
0180: 80 8C 80 8D 80 00                                 ......          
```

#### Opcodes

```
  0: 0x017C [0x37] UPDATE_EVENT_POSITION_AND_DIR: x=-19.140*, z=19.302*, y=40.617*, direction=82.2°*
  1: 0x0185 [0x00] END_REQSTACK()
```

### Event 65535.36

#### Metadata

| Field        | Value    |
|--------------|----------|
| Entrypoint   | 0x0186   |
| Data Size    | 10 bytes |
| Instructions | 2        |

```
      00 01 02 03 04 05 06 07  08 09 0A 0B 0C 0D 0E 0F
      -- -- -- -- -- -- -- --  -- -- -- -- -- -- -- --
0180:                   37 8E  80 8F 80 90 80 91 80 00        7.........
```

#### Opcodes

```
  0: 0x0186 [0x37] UPDATE_EVENT_POSITION_AND_DIR: x=73.092*, z=-171.909*, y=3.999*, direction=90.2°*
  1: 0x018F [0x00] END_REQSTACK()
```

### Event 65535.37

#### Metadata

| Field        | Value    |
|--------------|----------|
| Entrypoint   | 0x0190   |
| Data Size    | 10 bytes |
| Instructions | 2        |

```
      00 01 02 03 04 05 06 07  08 09 0A 0B 0C 0D 0E 0F
      -- -- -- -- -- -- -- --  -- -- -- -- -- -- -- --
0190: 37 92 80 93 80 94 80 95  80 00                    7.........      
```

#### Opcodes

```
  0: 0x0190 [0x37] UPDATE_EVENT_POSITION_AND_DIR: x=-20.169*, z=31.299*, y=-9.998*, direction=299.1°*
  1: 0x0199 [0x00] END_REQSTACK()
```

### Event 65535.38

#### Metadata

| Field        | Value    |
|--------------|----------|
| Entrypoint   | 0x019A   |
| Data Size    | 10 bytes |
| Instructions | 2        |

```
      00 01 02 03 04 05 06 07  08 09 0A 0B 0C 0D 0E 0F
      -- -- -- -- -- -- -- --  -- -- -- -- -- -- -- --
0190:                                37 96 80 97 80 98            7.....
01A0: 80 99 80 00                                       ....            
```

#### Opcodes

```
  0: 0x019A [0x37] UPDATE_EVENT_POSITION_AND_DIR: x=-14.240*, z=53.275*, y=-0.641*, direction=268.6°*
  1: 0x01A3 [0x00] END_REQSTACK()
```

### Event 65535.39

#### Metadata

| Field        | Value   |
|--------------|---------|
| Entrypoint   | 0x01A4  |
| Data Size    | 6 bytes |
| Instructions | 2       |

```
      00 01 02 03 04 05 06 07  08 09 0A 0B 0C 0D 0E 0F
      -- -- -- -- -- -- -- --  -- -- -- -- -- -- -- --
01A0:             03 02 10 0B  7F 00                        ......      
```

#### Opcodes

```
  0: 0x01A4 [0x03] Work_Zone[2] = (Entity->Render.Flags01 >> 25) & 1
  1: 0x01A9 [0x00] END_REQSTACK()
```

### Event 65535.40

#### Metadata

| Field        | Value   |
|--------------|---------|
| Entrypoint   | 0x01AA  |
| Data Size    | 6 bytes |
| Instructions | 2       |

```
      00 01 02 03 04 05 06 07  08 09 0A 0B 0C 0D 0E 0F
      -- -- -- -- -- -- -- --  -- -- -- -- -- -- -- --
01A0:                                03 02 10 07 7F 00            ......
```

#### Opcodes

```
  0: 0x01AA [0x03] Work_Zone[2] = Entity->Race
  1: 0x01AF [0x00] END_REQSTACK()
```

### Event 65535.41

#### Metadata

| Field        | Value   |
|--------------|---------|
| Entrypoint   | 0x01B0  |
| Data Size    | 6 bytes |
| Instructions | 2       |

```
      00 01 02 03 04 05 06 07  08 09 0A 0B 0C 0D 0E 0F
      -- -- -- -- -- -- -- --  -- -- -- -- -- -- -- --
01B0: 03 09 10 07 7F 00                                 ......          
```

#### Opcodes

```
  0: 0x01B0 [0x03] Work_Zone[9] = Entity->Race
  1: 0x01B5 [0x00] END_REQSTACK()
```

### Event 65535.42

#### Metadata

| Field        | Value   |
|--------------|---------|
| Entrypoint   | 0x01B6  |
| Data Size    | 6 bytes |
| Instructions | 2       |

```
      00 01 02 03 04 05 06 07  08 09 0A 0B 0C 0D 0E 0F
      -- -- -- -- -- -- -- --  -- -- -- -- -- -- -- --
01B0:                   03 02  10 06 7F 00                    ......    
```

#### Opcodes

```
  0: 0x01B6 [0x03] Work_Zone[2] = Entity->JobId (if LocalPlayer)
  1: 0x01BB [0x00] END_REQSTACK()
```

### Event 65535.43

#### Metadata

| Field        | Value   |
|--------------|---------|
| Entrypoint   | 0x01BC  |
| Data Size    | 6 bytes |
| Instructions | 2       |

```
      00 01 02 03 04 05 06 07  08 09 0A 0B 0C 0D 0E 0F
      -- -- -- -- -- -- -- --  -- -- -- -- -- -- -- --
01B0:                                      03 08 10 07              ....
01C0: 7F 00                                             ..              
```

#### Opcodes

```
  0: 0x01BC [0x03] Work_Zone[8] = Entity->Race
  1: 0x01C1 [0x00] END_REQSTACK()
```

### Event 65535.44

#### Metadata

| Field        | Value    |
|--------------|----------|
| Entrypoint   | 0x01C2   |
| Data Size    | 27 bytes |
| Instructions | 3        |

```
      00 01 02 03 04 05 06 07  08 09 0A 0B 0C 0D 0E 0F
      -- -- -- -- -- -- -- --  -- -- -- -- -- -- -- --
01C0:       2C F0 FF FF 7F F0  FF FF 7F 63 6F 72 70 53    ,........corpS
01D0: F0 FF FF 7F F0 FF FF 7F  63 6F 72 70 00           ........corp.   
```

#### Opcodes

```
  0: 0x01C2 [0x2C] CREATE_SCHEDULER_TASK: Create scheduler "corp" with entities [LocalPlayer, LocalPlayer]
  1: 0x01CF [0x53] WAIT_SCHEDULER_TASK: Wait for scheduler "corp" with entities [LocalPlayer, LocalPlayer]
  2: 0x01DC [0x00] END_REQSTACK()
```

### Event 65535.45

#### Metadata

| Field        | Value    |
|--------------|----------|
| Entrypoint   | 0x01DD   |
| Data Size    | 27 bytes |
| Instructions | 3        |

```
      00 01 02 03 04 05 06 07  08 09 0A 0B 0C 0D 0E 0F
      -- -- -- -- -- -- -- --  -- -- -- -- -- -- -- --
01D0:                                         2C F0 FF               ,..
01E0: FF 7F F0 FF FF 7F 72 65  73 32 53 F0 FF FF 7F F0  ......res2S.....
01F0: FF FF 7F 72 65 73 32 00                           ...res2.        
```

#### Opcodes

```
  0: 0x01DD [0x2C] CREATE_SCHEDULER_TASK: Create scheduler "res2" with entities [LocalPlayer, LocalPlayer]
  1: 0x01EA [0x53] WAIT_SCHEDULER_TASK: Wait for scheduler "res2" with entities [LocalPlayer, LocalPlayer]
  2: 0x01F7 [0x00] END_REQSTACK()
```

### Event 65535.46

#### Metadata

| Field        | Value     |
|--------------|-----------|
| Entrypoint   | 0x01F8    |
| Data Size    | 150 bytes |
| Instructions | 23        |

```
      00 01 02 03 04 05 06 07  08 09 0A 0B 0C 0D 0E 0F
      -- -- -- -- -- -- -- --  -- -- -- -- -- -- -- --
01F0:                          02 09 10 9A 80 00 0C 02          ........
0200: 37 9B 80 9C 80 9D 80 9E  80 01 8D 02 02 09 10 9F  7...............
0210: 80 00 20 02 37 A0 80 A1  80 9D 80 A2 80 01 8D 02  .. .7...........
0220: 02 09 10 A3 80 00 34 02  37 A4 80 A5 80 9D 80 A6  ......4.7.......
0230: 80 01 8D 02 02 09 10 A7  80 00 48 02 37 A8 80 A9  ..........H.7...
0240: 80 9D 80 AA 80 01 8D 02  02 09 10 AB 80 00 5C 02  ..............\.
0250: 37 A8 80 A9 80 9D 80 AA  80 01 8D 02 02 09 10 AC  7...............
0260: 80 00 70 02 37 AD 80 AE  80 9D 80 AF 80 01 8D 02  ..p.7...........
0270: 02 09 10 B0 80 00 84 02  37 B1 80 B2 80 9D 80 B3  ........7.......
0280: 80 01 8D 02 37 B4 80 B5  80 9D 80 B6 80 00        ....7.........  
```

#### Opcodes

```
  0: 0x01F8 [0x02] IF !(Work_Zone[9] == 2*) GOTO 0x020C
  1: 0x0200 [0x37] UPDATE_EVENT_POSITION_AND_DIR: x=-340.204*, z=136.300*, y=-100.249*, direction=92.6°*
  2: 0x0209 [0x01] GOTO 0x028D
  3: 0x020C [0x02] IF !(Work_Zone[9] == 3*) GOTO 0x0220
  4: 0x0214 [0x37] UPDATE_EVENT_POSITION_AND_DIR: x=-340.291*, z=136.410*, y=-100.249*, direction=211.5°*
  5: 0x021D [0x01] GOTO 0x028D
  6: 0x0220 [0x02] IF !(Work_Zone[9] == 4*) GOTO 0x0234
  7: 0x0228 [0x37] UPDATE_EVENT_POSITION_AND_DIR: x=-340.026*, z=136.421*, y=-100.249*, direction=182.5°*
  8: 0x0231 [0x01] GOTO 0x028D
  9: 0x0234 [0x02] IF !(Work_Zone[9] == 5*) GOTO 0x0248
 10: 0x023C [0x37] UPDATE_EVENT_POSITION_AND_DIR: x=-339.903*, z=136.052*, y=-100.249*, direction=163.1°*
 11: 0x0245 [0x01] GOTO 0x028D
 12: 0x0248 [0x02] IF !(Work_Zone[9] == 6*) GOTO 0x025C
 13: 0x0250 [0x37] UPDATE_EVENT_POSITION_AND_DIR: x=-339.903*, z=136.052*, y=-100.249*, direction=163.1°*
 14: 0x0259 [0x01] GOTO 0x028D
 15: 0x025C [0x02] IF !(Work_Zone[9] == 7*) GOTO 0x0270
 16: 0x0264 [0x37] UPDATE_EVENT_POSITION_AND_DIR: x=-339.997*, z=136.370*, y=-100.249*, direction=109.5°*
 17: 0x026D [0x01] GOTO 0x028D
 18: 0x0270 [0x02] IF !(Work_Zone[9] == 8*) GOTO 0x0284
 19: 0x0278 [0x37] UPDATE_EVENT_POSITION_AND_DIR: x=-340.025*, z=137.194*, y=-100.249*, direction=97.7°*
 20: 0x0281 [0x01] GOTO 0x028D
 21: 0x0284 [0x37] UPDATE_EVENT_POSITION_AND_DIR: x=-339.777*, z=136.481*, y=-100.249*, direction=126.1°*

SUBROUTINE_028D:
 22: 0x028D [0x00] END_REQSTACK()
```

### Event 65535.47

#### Metadata

| Field        | Value    |
|--------------|----------|
| Entrypoint   | 0x028E   |
| Data Size    | 10 bytes |
| Instructions | 2        |

```
      00 01 02 03 04 05 06 07  08 09 0A 0B 0C 0D 0E 0F
      -- -- -- -- -- -- -- --  -- -- -- -- -- -- -- --
0280:                                            37 B7                7.
0290: 80 B8 80 B9 80 BA 80 00                           ........        
```

#### Opcodes

```
  0: 0x028E [0x37] UPDATE_EVENT_POSITION_AND_DIR: x=105.973*, z=139.177*, y=-20.249*, direction=267.1°*
  1: 0x0297 [0x00] END_REQSTACK()
```

### Event 65535.48

#### Metadata

| Field        | Value    |
|--------------|----------|
| Entrypoint   | 0x0298   |
| Data Size    | 10 bytes |
| Instructions | 2        |

```
      00 01 02 03 04 05 06 07  08 09 0A 0B 0C 0D 0E 0F
      -- -- -- -- -- -- -- --  -- -- -- -- -- -- -- --
0290:                          37 BB 80 BC 80 B9 80 BD          7.......
02A0: 80 00                                             ..              
```

#### Opcodes

```
  0: 0x0298 [0x37] UPDATE_EVENT_POSITION_AND_DIR: x=106.553*, z=138.884*, y=-20.249*, direction=193.2°*
  1: 0x02A1 [0x00] END_REQSTACK()
```

### Event 65535.49

#### Metadata

| Field        | Value    |
|--------------|----------|
| Entrypoint   | 0x02A2   |
| Data Size    | 13 bytes |
| Instructions | 3        |

```
      00 01 02 03 04 05 06 07  08 09 0A 0B 0C 0D 0E 0F
      -- -- -- -- -- -- -- --  -- -- -- -- -- -- -- --
02A0:       1C BE 80 4A F0 FF  FF 7F 6A F1 06 01 00       ...J....j.... 
```

#### Opcodes

```
  0: 0x02A2 [0x1C] WAIT(40* ticks)
  1: 0x02A5 [0x4A] LocalPlayer looks at Torino-Samarino (ID: 17232234/0x0106F16A)
  2: 0x02AE [0x00] END_REQSTACK()
```

### Event 151

#### Metadata

| Field        | Value      |
|--------------|------------|
| Entrypoint   | 0x02AF     |
| Data Size    | 1130 bytes |
| Instructions | 197        |

```
      00 01 02 03 04 05 06 07  08 09 0A 0B 0C 0D 0E 0F
      -- -- -- -- -- -- -- --  -- -- -- -- -- -- -- --
02A0:                                               42                 B
02B0: 5D 44 80 0A 80 1A C8 1A  46 01 92 01 A1 F1 06 01  ]D......F.......
02C0: 38 BF 80 29 01 9E F1 06  01 01 29 0A 9E F1 06 01  8..)......).....
02D0: 02 22 00 4E 00 9E F1 06  01 4E 00 A1 F1 06 01 29  .".N.....N.....)
02E0: 02 A1 F1 06 01 02 80 F0  FF FF 7F 80 A1 F1 06 01  ................
02F0: 80 9E F1 06 01 77 C0 80  05 80 37 C1 80 C2 80 C3  .....w....7.....
0300: 80 C4 80 5C 00 C5 80 5C  01 C5 80 9A 45 C6 80 F8  ...\...\....E...
0310: FF FF 7F F8 FF FF 7F 73  30 30 30 44 80 66 C7 80  .......s000D.f..
0320: A1 F1 06 01 A1 F1 06 01  73 68 61 30 1C 0A 80 27  ........sha0...'
0330: 03 9E F1 06 01 04 32 05  80 1F 00 C8 80 C9 80 CA  ......2.........
0340: 80 1F 01 1A 1C 1B 1C CB  80 4A F0 FF FF 7F 9E F1  .........J......
0350: 06 01 1C CC 80 45 CD 80  F0 FF FF 7F F0 FF FF 7F  .....E..........
0360: 6F 76 6C 32 44 80 52 C6  80 F8 FF FF 7F F8 FF FF  ovl2D.R.........
0370: 7F 73 30 30 30 45 C6 80  F8 FF FF 7F F8 FF FF 7F  .s000E..........
0380: 73 30 30 31 44 80 79 00  9E F1 06 01 A1 F1 06 01  s001D.y.........
0390: 1C CE 80 79 00 F0 FF FF  7F A1 F1 06 01 1C 0A 80  ...y............
03A0: 52 C6 80 F8 FF FF 7F F8  FF FF 7F 73 30 30 31 45  R..........s001E
03B0: C6 80 F8 FF FF 7F F8 FF  FF 7F 73 30 30 32 44 80  ..........s002D.
03C0: 1C CE 80 2B A1 F1 06 01  CF 80 23 2B A1 F1 06 01  ...+......#+....
03D0: D0 80 23 66 C7 80 A1 F1  06 01 A1 F1 06 01 73 68  ..#f..........sh
03E0: 61 31 52 C6 80 F8 FF FF  7F F8 FF FF 7F 73 30 30  a1R..........s00
03F0: 32 45 C6 80 F8 FF FF 7F  F8 FF FF 7F 73 30 30 33  2E..........s003
0400: 44 80 1C CC 80 2B A1 F1  06 01 D1 80 23 66 C7 80  D....+......#f..
0410: A1 F1 06 01 A1 F1 06 01  74 68 6B 31 2B A1 F1 06  ........thk1+...
0420: 01 D2 80 23 2B A1 F1 06  01 D3 80 23 66 C7 80 A1  ...#+......#f...
0430: F1 06 01 A1 F1 06 01 74  68 6B 32 2B A1 F1 06 01  .......thk2+....
0440: D4 80 23 4A A1 F1 06 01  F0 FF FF 7F 1C 09 80 52  ..#J...........R
0450: C6 80 F8 FF FF 7F F8 FF  FF 7F 73 30 30 33 45 C6  ..........s003E.
0460: 80 F8 FF FF 7F F8 FF FF  7F 73 30 30 34 44 80 4A  .........s004D.J
0470: 9E F1 06 01 A1 F1 06 01  1C CC 80 6E 9E F1 06 01  ...........n....
0480: 44 80 99 9E F1 06 01 1C  CC 80 1A 76 30 02 08 00  D..........v0...
0490: 04 80 80 A0 04 2B 9E F1  06 01 D5 80 23 01 71 05  .....+......#.q.
04A0: 02 08 00 9A 80 80 B3 04  2B 9E F1 06 01 D6 80 23  ........+......#
04B0: 01 71 05 02 08 00 9F 80  80 C6 04 2B 9E F1 06 01  .q.........+....
04C0: D7 80 23 01 71 05 02 08  00 A3 80 80 D9 04 2B 9E  ..#.q.........+.
04D0: F1 06 01 D8 80 23 01 71  05 02 08 00 A7 80 80 EC  .....#.q........
04E0: 04 2B 9E F1 06 01 D9 80  23 01 71 05 02 08 00 AB  .+......#.q.....
04F0: 80 80 FF 04 2B 9E F1 06  01 DA 80 23 01 71 05 02  ....+......#.q..
0500: 08 00 AC 80 80 12 05 2B  9E F1 06 01 DB 80 23 01  .......+......#.
0510: 71 05 02 08 00 B0 80 80  25 05 2B 9E F1 06 01 DC  q.......%.+.....
0520: 80 23 01 71 05 02 08 00  C7 80 80 38 05 2B 9E F1  .#.q.......8.+..
0530: 06 01 DD 80 23 01 71 05  02 08 00 72 80 80 4B 05  ....#.q....r..K.
0540: 2B 9E F1 06 01 DE 80 23  01 71 05 02 08 00 DF 80  +......#.q......
0550: 80 5E 05 2B 9E F1 06 01  E0 80 23 01 71 05 02 08  .^.+......#.q...
0560: 00 E1 80 80 71 05 2B 9E  F1 06 01 E2 80 23 01 71  ....q.+......#.q
0570: 05 52 C6 80 F8 FF FF 7F  F8 FF FF 7F 73 30 30 34  .R..........s004
0580: 45 C6 80 F8 FF FF 7F F8  FF FF 7F 73 30 30 35 44  E..........s005D
0590: 80 4A A1 F1 06 01 9E F1  06 01 6E A1 F1 06 01 E3  .J........n.....
05A0: 80 99 A1 F1 06 01 2B A1  F1 06 01 E4 80 23 52 C6  ......+......#R.
05B0: 80 F8 FF FF 7F F8 FF FF  7F 73 30 30 35 45 C6 80  .........s005E..
05C0: F8 FF FF 7F F8 FF FF 7F  73 30 30 36 44 80 1A 76  ........s006D..v
05D0: 30 02 08 00 04 80 80 E4  05 2B 9E F1 06 01 E5 80  0........+......
05E0: 23 01 B5 06 02 08 00 9A  80 80 F7 05 2B 9E F1 06  #...........+...
05F0: 01 E6 80 23 01 B5 06 02  08 00 9F 80 80 0A 06 2B  ...#...........+
0600: 9E F1 06 01 E7 80 23 01  B5 06 02 08 00 A3 80 80  ......#.........
0610: 1D 06 2B 9E F1 06 01 E8  80 23 01 B5 06 02 08 00  ..+......#......
0620: A7 80 80 30 06 2B 9E F1  06 01 E9 80 23 01 B5 06  ...0.+......#...
0630: 02 08 00 AB 80 80 43 06  2B 9E F1 06 01 EA 80 23  ......C.+......#
0640: 01 B5 06 02 08 00 AC 80  80 56 06 2B 9E F1 06 01  .........V.+....
0650: EB 80 23 01 B5 06 02 08  00 B0 80 80 69 06 2B 9E  ..#.........i.+.
0660: F1 06 01 EC 80 23 01 B5  06 02 08 00 C7 80 80 7C  .....#.........|
0670: 06 2B 9E F1 06 01 ED 80  23 01 B5 06 02 08 00 72  .+......#......r
0680: 80 80 8F 06 2B 9E F1 06  01 EE 80 23 01 B5 06 02  ....+......#....
0690: 08 00 DF 80 80 A2 06 2B  9E F1 06 01 EF 80 23 01  .......+......#.
06A0: B5 06 02 08 00 E1 80 80  B5 06 2B 9E F1 06 01 F0  ..........+.....
06B0: 80 23 01 B5 06 73 F1 80  A1 F1 06 01 A1 F1 06 01  .#...s..........
06C0: 1C CC 80 27 04 9E F1 06  01 05 2A 04 9E F1 06 01  ...'......*.....
06D0: 1C CC 80 4A 9E F1 06 01  F0 FF FF 7F 1C F2 80 6E  ...J...........n
06E0: 9E F1 06 01 F3 80 99 9E  F1 06 01 1C F4 80 5D 44  ..............]D
06F0: 80 CB 80 1A C8 1A 52 C6  80 F8 FF FF 7F F8 FF FF  ......R.........
0700: 7F 73 30 30 36 78 46 00  5C 00 44 80 5C 01 44 80  .s006xF.\.D.\.D.
0710: 9A 1C 0A 80 1A 1C 1B 21  00                       .......!.       
```

#### Opcodes

```
  0: 0x02AF [0x42] SET_CLI_EVENT_CANCEL_DATA()
  1: 0x02B0 [0x5D] SET_MUSIC_VOLUME(volume=0*, fade_time=120*)
  2: 0x02B5 [0x1A] CALL_SUBROUTINE(address=0x1AC8)
  3: 0x02B8 [0x46] CAMERA_CONTROL: Disable user control
  4: 0x02BA [0x92] ??? (ID: 17232289/0x0106F1A1)->Render.Flags3 ^= 0x01
  5: 0x02C0 [0x38] SET_CLIENT_EVENT_MODE(mode=27*)
  6: 0x02C3 [0x29] REQ_SET_WAIT(priority=0x01, entity_id=Unnamed NPC (ID: 17232286/0x0106F19E), tag_num=0x01)
  7: 0x02CA [0x29] REQ_SET_WAIT(priority=0x0A, entity_id=Unnamed NPC (ID: 17232286/0x0106F19E), tag_num=0x02)
  8: 0x02D1 [0x22] ENTITY_HIDE_FLAG(enabled=0x00)
  9: 0x02D3 [0x4E] SET_ENTITY_HIDE_FLAG: Show Unnamed NPC (ID: 17232286/0x0106F19E)
 10: 0x02D9 [0x4E] SET_ENTITY_HIDE_FLAG: Show ??? (ID: 17232289/0x0106F1A1)
 11: 0x02DF [0x29] REQ_SET_WAIT(priority=0x02, entity_id=??? (ID: 17232289/0x0106F1A1), tag_num=0x02)
 12: 0x02E6 [0x80] LOAD_WAIT(entity=LocalPlayer)
 13: 0x02EB [0x80] LOAD_WAIT(entity=??? (ID: 17232289/0x0106F1A1))
 14: 0x02F0 [0x80] LOAD_WAIT(entity=Unnamed NPC (ID: 17232286/0x0106F19E))
 15: 0x02F5 [0x77] SET_EVENT_TIME_WEATHER(hour=17*, weather=13*)
 16: 0x02FA [0x37] UPDATE_EVENT_POSITION_AND_DIR: x=-410.845*, z=-419.697*, y=-39.724*, direction=356.8°*
 17: 0x0303 [0x5C] MUSIC_CONTROL: Set Idle (Day) music to song 127*
 18: 0x0307 [0x5C] MUSIC_CONTROL: Set Idle (Night) music to song 127*
 19: 0x030B [0x9A] WAIT_MUSIC_SERVER()
 20: 0x030C [0x45] LOAD_SCHEDULED_TASK: Load scheduler "s000" with entities [EventEntity, EventEntity], work=[181*, 0*]
 21: 0x031D [0x66] LOAD_EXT_SCHEDULER_MAIN: Load scheduler "sha0" with entities [??? (ID: 17232289/0x0106F1A1), ??? (ID: 17232289/0x0106F1A1)], work=9*
 22: 0x032C [0x1C] WAIT(120* ticks)
 23: 0x032F [0x27] REQ_SET(priority=0x03, entity_id=Unnamed NPC (ID: 17232286/0x0106F19E), tag_num=0x04)
 24: 0x0336 [0x32] ExtData[1]->MainSpeed = 13* * 0.1
 25: 0x0339 [0x1F] MOVE_ENTITY: EventEntity moves to X=-407.686*, Z=-420.322*, Y=-39.728*
 26: 0x0341 [0x1F] MOVE_ENTITY: Update entity position (mode=1)
 27: 0x0343 [0x1A] CALL_SUBROUTINE(address=0x1B1C)
 28: 0x0346 [0x1C] WAIT(180* ticks)
 29: 0x0349 [0x4A] LocalPlayer looks at Unnamed NPC (ID: 17232286/0x0106F19E)
 30: 0x0352 [0x1C] WAIT(60* ticks)
 31: 0x0355 [0x45] LOAD_SCHEDULED_TASK: Load scheduler "ovl2" with entities [LocalPlayer, LocalPlayer], work=[200*, 0*]
 32: 0x0366 [0x52] END_LOAD_SCHEDULER: End scheduler "s000" with entities [EventEntity, EventEntity], work=181*
 33: 0x0375 [0x45] LOAD_SCHEDULED_TASK: Load scheduler "s001" with entities [EventEntity, EventEntity], work=[181*, 0*]
 34: 0x0386 [0x79] Unnamed NPC (ID: 17232286/0x0106F19E) looks at ??? (ID: 17232289/0x0106F1A1) (Basic look)
 35: 0x0390 [0x1C] WAIT(90* ticks)
 36: 0x0393 [0x79] LocalPlayer looks at ??? (ID: 17232289/0x0106F1A1) (Basic look)
 37: 0x039D [0x1C] WAIT(120* ticks)
 38: 0x03A0 [0x52] END_LOAD_SCHEDULER: End scheduler "s001" with entities [EventEntity, EventEntity], work=181*
 39: 0x03AF [0x45] LOAD_SCHEDULED_TASK: Load scheduler "s002" with entities [EventEntity, EventEntity], work=[181*, 0*]
 40: 0x03C0 [0x1C] WAIT(90* ticks)
 41: 0x03C3 [0x2B] ??? (ID: 17232289/0x0106F1A1) [8397*]:
    → "My strength has yet to fully return..."
 42: 0x03CA [0x23] WAIT_FOR_DIALOG_INTERACTION
 43: 0x03CB [0x2B] ??? (ID: 17232289/0x0106F1A1) [8398*]:
    → "The light from that mirror... It could only be the blessed radiance..."
 44: 0x03D2 [0x23] WAIT_FOR_DIALOG_INTERACTION
 45: 0x03D3 [0x66] LOAD_EXT_SCHEDULER_MAIN: Load scheduler "sha1" with entities [??? (ID: 17232289/0x0106F1A1), ??? (ID: 17232289/0x0106F1A1)], work=9*
 46: 0x03E2 [0x52] END_LOAD_SCHEDULER: End scheduler "s002" with entities [EventEntity, EventEntity], work=181*
 47: 0x03F1 [0x45] LOAD_SCHEDULED_TASK: Load scheduler "s003" with entities [EventEntity, EventEntity], work=[181*, 0*]
 48: 0x0402 [0x1C] WAIT(60* ticks)
 49: 0x0405 [0x2B] ??? (ID: 17232289/0x0106F1A1) [8399*]:
    → "I cannot let this minor setback deter me."
 50: 0x040C [0x23] WAIT_FOR_DIALOG_INTERACTION
 51: 0x040D [0x66] LOAD_EXT_SCHEDULER_MAIN: Load scheduler "thk1" with entities [??? (ID: 17232289/0x0106F1A1), ??? (ID: 17232289/0x0106F1A1)], work=9*
 52: 0x041C [0x2B] ??? (ID: 17232289/0x0106F1A1) [8400*]:
    → "After all, this new material shell of mine should not go to waste. The Mirror of Blighted Gloom shall be mine..."
 53: 0x0423 [0x23] WAIT_FOR_DIALOG_INTERACTION
 54: 0x0424 [0x2B] ??? (ID: 17232289/0x0106F1A1) [8401*]:
    → "All I need is a little more time to heal, and then..."
 55: 0x042B [0x23] WAIT_FOR_DIALOG_INTERACTION
 56: 0x042C [0x66] LOAD_EXT_SCHEDULER_MAIN: Load scheduler "thk2" with entities [??? (ID: 17232289/0x0106F1A1), ??? (ID: 17232289/0x0106F1A1)], work=9*
 57: 0x043B [0x2B] ??? (ID: 17232289/0x0106F1A1) [8402*]:
    → "Hm...?"
 58: 0x0442 [0x23] WAIT_FOR_DIALOG_INTERACTION
 59: 0x0443 [0x4A] ??? (ID: 17232289/0x0106F1A1) looks at LocalPlayer
 60: 0x044C [0x1C] WAIT(30* ticks)
 61: 0x044F [0x52] END_LOAD_SCHEDULER: End scheduler "s003" with entities [EventEntity, EventEntity], work=181*
 62: 0x045E [0x45] LOAD_SCHEDULED_TASK: Load scheduler "s004" with entities [EventEntity, EventEntity], work=[181*, 0*]
 63: 0x046F [0x4A] Unnamed NPC (ID: 17232286/0x0106F19E) looks at ??? (ID: 17232289/0x0106F1A1)
 64: 0x0478 [0x1C] WAIT(60* ticks)
 65: 0x047B [0x6E] Unnamed NPC (ID: 17232286/0x0106F19E) uses emote 0*
 66: 0x0482 [0x99] Wait for Unnamed NPC (ID: 17232286/0x0106F19E) animation to complete
 67: 0x0487 [0x1C] WAIT(60* ticks)
 68: 0x048A [0x1A] CALL_SUBROUTINE(address=0x3076)
 69: 0x048D [0x02] IF !(ExtData[1]->WorkLocal[8] == 1*) GOTO 0x04A0
 70: 0x0495 [0x2B] Unnamed NPC (ID: 17232286/0x0106F19E) [8403*]:
    → "It's him...! The man from Jugner...!"
 71: 0x049C [0x23] WAIT_FOR_DIALOG_INTERACTION
 72: 0x049D [0x01] GOTO 0x0571
 73: 0x04A0 [0x02] IF !(ExtData[1]->WorkLocal[8] == 2*) GOTO 0x04B3
 74: 0x04A8 [0x2B] Unnamed NPC (ID: 17232286/0x0106F19E) [8404*]:
    → "It's him...! The man from Jugner...!"
 75: 0x04AF [0x23] WAIT_FOR_DIALOG_INTERACTION
 76: 0x04B0 [0x01] GOTO 0x0571
 77: 0x04B3 [0x02] IF !(ExtData[1]->WorkLocal[8] == 3*) GOTO 0x04C6
 78: 0x04BB [0x2B] Unnamed NPC (ID: 17232286/0x0106F19E) [8405*]:
    → "It's him...! The man from Jugner...!"
 79: 0x04C2 [0x23] WAIT_FOR_DIALOG_INTERACTION
 80: 0x04C3 [0x01] GOTO 0x0571
 81: 0x04C6 [0x02] IF !(ExtData[1]->WorkLocal[8] == 4*) GOTO 0x04D9
 82: 0x04CE [0x2B] Unnamed NPC (ID: 17232286/0x0106F19E) [8406*]:
    → "It's him...! The man from Jugner...!"
 83: 0x04D5 [0x23] WAIT_FOR_DIALOG_INTERACTION
 84: 0x04D6 [0x01] GOTO 0x0571
 85: 0x04D9 [0x02] IF !(ExtData[1]->WorkLocal[8] == 5*) GOTO 0x04EC
 86: 0x04E1 [0x2B] Unnamed NPC (ID: 17232286/0x0106F19E) [8409*]:
    → "It's him...! The man from Jugner...!"
 87: 0x04E8 [0x23] WAIT_FOR_DIALOG_INTERACTION
 88: 0x04E9 [0x01] GOTO 0x0571
 89: 0x04EC [0x02] IF !(ExtData[1]->WorkLocal[8] == 6*) GOTO 0x04FF
 90: 0x04F4 [0x2B] Unnamed NPC (ID: 17232286/0x0106F19E) [8410*]:
    → "It's him...! The man from Jugner...!"
 91: 0x04FB [0x23] WAIT_FOR_DIALOG_INTERACTION
 92: 0x04FC [0x01] GOTO 0x0571
 93: 0x04FF [0x02] IF !(ExtData[1]->WorkLocal[8] == 7*) GOTO 0x0512
 94: 0x0507 [0x2B] Unnamed NPC (ID: 17232286/0x0106F19E) [8411*]:
    → "It's him...! The man from Jugner...!"
 95: 0x050E [0x23] WAIT_FOR_DIALOG_INTERACTION
 96: 0x050F [0x01] GOTO 0x0571
 97: 0x0512 [0x02] IF !(ExtData[1]->WorkLocal[8] == 8*) GOTO 0x0525
 98: 0x051A [0x2B] Unnamed NPC (ID: 17232286/0x0106F19E) [8412*]:
    → "It's him...! The man from Jugner...!"
 99: 0x0521 [0x23] WAIT_FOR_DIALOG_INTERACTION
100: 0x0522 [0x01] GOTO 0x0571
101: 0x0525 [0x02] IF !(ExtData[1]->WorkLocal[8] == 9*) GOTO 0x0538
102: 0x052D [0x2B] Unnamed NPC (ID: 17232286/0x0106F19E) [8413*]:
    → "It's him...! The man from Jugner...!"
103: 0x0534 [0x23] WAIT_FOR_DIALOG_INTERACTION
104: 0x0535 [0x01] GOTO 0x0571
105: 0x0538 [0x02] IF !(ExtData[1]->WorkLocal[8] == 10*) GOTO 0x054B
106: 0x0540 [0x2B] Unnamed NPC (ID: 17232286/0x0106F19E) [8407*]:
    → "It's him...! The man from Jugner...!"
107: 0x0547 [0x23] WAIT_FOR_DIALOG_INTERACTION
108: 0x0548 [0x01] GOTO 0x0571
109: 0x054B [0x02] IF !(ExtData[1]->WorkLocal[8] == 11*) GOTO 0x055E
110: 0x0553 [0x2B] Unnamed NPC (ID: 17232286/0x0106F19E) [8408*]:
    → "It's him...! The man from Jugner...!"
111: 0x055A [0x23] WAIT_FOR_DIALOG_INTERACTION
112: 0x055B [0x01] GOTO 0x0571
113: 0x055E [0x02] IF !(ExtData[1]->WorkLocal[8] == 12*) GOTO 0x0571
114: 0x0566 [0x2B] Unnamed NPC (ID: 17232286/0x0106F19E) [8414*]:
    → "It's him...! The man from Jugner...!"
115: 0x056D [0x23] WAIT_FOR_DIALOG_INTERACTION
116: 0x056E [0x01] GOTO 0x0571

SUBROUTINE_0571:
117: 0x0571 [0x52] END_LOAD_SCHEDULER: End scheduler "s004" with entities [EventEntity, EventEntity], work=181*
118: 0x0580 [0x45] LOAD_SCHEDULED_TASK: Load scheduler "s005" with entities [EventEntity, EventEntity], work=[181*, 0*]
119: 0x0591 [0x4A] ??? (ID: 17232289/0x0106F1A1) looks at Unnamed NPC (ID: 17232286/0x0106F19E)
120: 0x059A [0x6E] ??? (ID: 17232289/0x0106F1A1) uses emote 26*
121: 0x05A1 [0x99] Wait for ??? (ID: 17232289/0x0106F1A1) animation to complete
122: 0x05A6 [0x2B] ??? (ID: 17232289/0x0106F1A1) [8415*]:
    → "<Sigh>..."
123: 0x05AD [0x23] WAIT_FOR_DIALOG_INTERACTION
124: 0x05AE [0x52] END_LOAD_SCHEDULER: End scheduler "s005" with entities [EventEntity, EventEntity], work=181*
125: 0x05BD [0x45] LOAD_SCHEDULED_TASK: Load scheduler "s006" with entities [EventEntity, EventEntity], work=[181*, 0*]
126: 0x05CE [0x1A] CALL_SUBROUTINE(address=0x3076)
127: 0x05D1 [0x02] IF !(ExtData[1]->WorkLocal[8] == 1*) GOTO 0x05E4
128: 0x05D9 [0x2B] Unnamed NPC (ID: 17232286/0x0106F19E) [8416*]:
    → "Not so fast...!"
129: 0x05E0 [0x23] WAIT_FOR_DIALOG_INTERACTION
130: 0x05E1 [0x01] GOTO 0x06B5
131: 0x05E4 [0x02] IF !(ExtData[1]->WorkLocal[8] == 2*) GOTO 0x05F7
132: 0x05EC [0x2B] Unnamed NPC (ID: 17232286/0x0106F19E) [8417*]:
    → "Not so fast...!"
133: 0x05F3 [0x23] WAIT_FOR_DIALOG_INTERACTION
134: 0x05F4 [0x01] GOTO 0x06B5
135: 0x05F7 [0x02] IF !(ExtData[1]->WorkLocal[8] == 3*) GOTO 0x060A
136: 0x05FF [0x2B] Unnamed NPC (ID: 17232286/0x0106F19E) [8418*]:
    → "Not so fast...!"
137: 0x0606 [0x23] WAIT_FOR_DIALOG_INTERACTION
138: 0x0607 [0x01] GOTO 0x06B5
139: 0x060A [0x02] IF !(ExtData[1]->WorkLocal[8] == 4*) GOTO 0x061D
140: 0x0612 [0x2B] Unnamed NPC (ID: 17232286/0x0106F19E) [8419*]:
    → "Hold on there...!"
141: 0x0619 [0x23] WAIT_FOR_DIALOG_INTERACTION
142: 0x061A [0x01] GOTO 0x06B5
143: 0x061D [0x02] IF !(ExtData[1]->WorkLocal[8] == 5*) GOTO 0x0630
144: 0x0625 [0x2B] Unnamed NPC (ID: 17232286/0x0106F19E) [8422*]:
    → "Not so fast...!"
145: 0x062C [0x23] WAIT_FOR_DIALOG_INTERACTION
146: 0x062D [0x01] GOTO 0x06B5
147: 0x0630 [0x02] IF !(ExtData[1]->WorkLocal[8] == 6*) GOTO 0x0643
148: 0x0638 [0x2B] Unnamed NPC (ID: 17232286/0x0106F19E) [8423*]:
    → "Wait!"
149: 0x063F [0x23] WAIT_FOR_DIALOG_INTERACTION
150: 0x0640 [0x01] GOTO 0x06B5
151: 0x0643 [0x02] IF !(ExtData[1]->WorkLocal[8] == 7*) GOTO 0x0656
152: 0x064B [0x2B] Unnamed NPC (ID: 17232286/0x0106F19E) [8424*]:
    → "Wait!"
153: 0x0652 [0x23] WAIT_FOR_DIALOG_INTERACTION
154: 0x0653 [0x01] GOTO 0x06B5
155: 0x0656 [0x02] IF !(ExtData[1]->WorkLocal[8] == 8*) GOTO 0x0669
156: 0x065E [0x2B] Unnamed NPC (ID: 17232286/0x0106F19E) [8425*]:
    → "Hey! You!"
157: 0x0665 [0x23] WAIT_FOR_DIALOG_INTERACTION
158: 0x0666 [0x01] GOTO 0x06B5
159: 0x0669 [0x02] IF !(ExtData[1]->WorkLocal[8] == 9*) GOTO 0x067C
160: 0x0671 [0x2B] Unnamed NPC (ID: 17232286/0x0106F19E) [8426*]:
    → "Hold on there...!"
161: 0x0678 [0x23] WAIT_FOR_DIALOG_INTERACTION
162: 0x0679 [0x01] GOTO 0x06B5
163: 0x067C [0x02] IF !(ExtData[1]->WorkLocal[8] == 10*) GOTO 0x068F
164: 0x0684 [0x2B] Unnamed NPC (ID: 17232286/0x0106F19E) [8420*]:
    → "Not so fast...!"
165: 0x068B [0x23] WAIT_FOR_DIALOG_INTERACTION
166: 0x068C [0x01] GOTO 0x06B5
167: 0x068F [0x02] IF !(ExtData[1]->WorkLocal[8] == 11*) GOTO 0x06A2
168: 0x0697 [0x2B] Unnamed NPC (ID: 17232286/0x0106F19E) [8421*]:
    → "Not so fast...!"
169: 0x069E [0x23] WAIT_FOR_DIALOG_INTERACTION
170: 0x069F [0x01] GOTO 0x06B5
171: 0x06A2 [0x02] IF !(ExtData[1]->WorkLocal[8] == 12*) GOTO 0x06B5
172: 0x06AA [0x2B] Unnamed NPC (ID: 17232286/0x0106F19E) [8427*]:
    → "Not so fast...!"
173: 0x06B1 [0x23] WAIT_FOR_DIALOG_INTERACTION
174: 0x06B2 [0x01] GOTO 0x06B5

SUBROUTINE_06B5:
175: 0x06B5 [0x73] ??? (ID: 17232289/0x0106F1A1) casts magic 264* on ??? (ID: 17232289/0x0106F1A1)
176: 0x06C0 [0x1C] WAIT(60* ticks)
177: 0x06C3 [0x27] REQ_SET(priority=0x04, entity_id=Unnamed NPC (ID: 17232286/0x0106F19E), tag_num=0x05)
178: 0x06CA [0x2A] GET_REQ_LEVEL(level=4, entity_id=Unnamed NPC (ID: 17232286/0x0106F19E))
179: 0x06D0 [0x1C] WAIT(60* ticks)
180: 0x06D3 [0x4A] Unnamed NPC (ID: 17232286/0x0106F19E) looks at LocalPlayer
181: 0x06DC [0x1C] WAIT(45* ticks)
182: 0x06DF [0x6E] Unnamed NPC (ID: 17232286/0x0106F19E) uses emote 33*
183: 0x06E6 [0x99] Wait for Unnamed NPC (ID: 17232286/0x0106F19E) animation to complete
184: 0x06EB [0x1C] WAIT(150* ticks)
185: 0x06EE [0x5D] SET_MUSIC_VOLUME(volume=0*, fade_time=180*)
186: 0x06F3 [0x1A] CALL_SUBROUTINE(address=0x1AC8)
187: 0x06F6 [0x52] END_LOAD_SCHEDULER: End scheduler "s006" with entities [EventEntity, EventEntity], work=181*
188: 0x0705 [0x78] ENABLE_GAME_TIMER_RESET_WEATHER()
189: 0x0706 [0x46] CAMERA_CONTROL: Restore default settings
190: 0x0708 [0x5C] MUSIC_CONTROL: Set Idle (Day) music to song 0*
191: 0x070C [0x5C] MUSIC_CONTROL: Set Idle (Night) music to song 0*
192: 0x0710 [0x9A] WAIT_MUSIC_SERVER()
193: 0x0711 [0x1C] WAIT(120* ticks)
194: 0x0714 [0x1A] CALL_SUBROUTINE(address=0x1B1C)
195: 0x0717 [0x21] END_EVENT
196: 0x0718 [0x00] END_REQSTACK()
```

### Event 152

#### Metadata

| Field        | Value      |
|--------------|------------|
| Entrypoint   | 0x0719     |
| Data Size    | 4898 bytes |
| Instructions | 868        |

```
      00 01 02 03 04 05 06 07  08 09 0A 0B 0C 0D 0E 0F
      -- -- -- -- -- -- -- --  -- -- -- -- -- -- -- --
0710:                             42 5D 44 80 0A 80 1A           B]D....
0720: C8 1A 1C CC 80 92 01 A3  F1 06 01 92 01 A2 F1 06  ................
0730: 01 03 02 10 F5 80 03 03  10 F6 80 03 04 10 F7 80  ................
0740: 48 F8 80 23 46 01 38 BF  80 77 F9 80 E1 80 4E 00  H..#F.8..w....N.
0750: 9E F1 06 01 29 01 9E F1  06 01 01 29 02 9E F1 06  ....)......)....
0760: 01 07 29 03 A2 F1 06 01  02 29 04 A3 F1 06 01 02  ..)......)......
0770: 29 0A 9E F1 06 01 02 37  FA 80 FB 80 FC 80 FD 80  )......7........
0780: 4E 00 9E F1 06 01 4E 00  A2 F1 06 01 4E 00 A3 F1  N.....N.....N...
0790: 06 01 80 9E F1 06 01 80  A2 F1 06 01 80 A3 F1 06  ................
07A0: 01 5C 00 FE 80 5C 01 FE  80 9A 45 C6 80 F8 FF FF  .\...\....E.....
07B0: 7F F8 FF FF 7F 73 30 30  37 44 80 1C CB 80 1A 1C  .....s007D......
07C0: 1B 27 05 9E F1 06 01 08  1C CE 80 79 00 F0 FF FF  .'.........y....
07D0: 7F 9E F1 06 01 1C FF 80  45 CD 80 F0 FF FF 7F F0  ........E.......
07E0: FF FF 7F 6F 76 6C 32 44  80 52 C6 80 F8 FF FF 7F  ...ovl2D.R......
07F0: F8 FF FF 7F 73 30 30 37  45 C6 80 F8 FF FF 7F F8  ....s007E.......
0800: FF FF 7F 73 30 30 38 44  80 1C CE 80 4A F0 FF FF  ...s008D....J...
0810: 7F A2 F1 06 01 27 05 A2  F1 06 01 03 1C CE 80 6E  .....'.........n
0820: F0 FF FF 7F 44 80 99 F0  FF FF 7F 1C CE 80 4A 9E  ....D.........J.
0830: F1 06 01 A2 F1 06 01 2A  05 A2 F1 06 01 1C CC 80  .......*........
0840: 52 C6 80 F8 FF FF 7F F8  FF FF 7F 73 30 30 38 45  R..........s008E
0850: C6 80 F8 FF FF 7F F8 FF  FF 7F 73 30 31 30 44 80  ..........s010D.
0860: 1C CC 80 79 00 A2 F1 06  01 9E F1 06 01 1C CC 80  ...y............
0870: 2B A2 F1 06 01 00 81 23  45 CD 80 F0 FF FF 7F F0  +......#E.......
0880: FF FF 7F 6F 76 6C 32 44  80 52 C6 80 F8 FF FF 7F  ...ovl2D.R......
0890: F8 FF FF 7F 73 30 31 30  29 07 9F F1 06 01 03 4E  ....s010)......N
08A0: 00 9F F1 06 01 80 9F F1  06 01 45 C6 80 F8 FF FF  ..........E.....
08B0: 7F F8 FF FF 7F 73 30 30  39 44 80 27 06 9E F1 06  .....s009D.'....
08C0: 01 09 79 00 9E F1 06 01  A2 F1 06 01 1C 09 80 1A  ..y.............
08D0: 76 30 02 08 00 04 80 80  E5 08 2B 9E F1 06 01 01  v0........+.....
08E0: 81 23 01 B6 09 02 08 00  9A 80 80 F8 08 2B 9E F1  .#...........+..
08F0: 06 01 02 81 23 01 B6 09  02 08 00 9F 80 80 0B 09  ....#...........
0900: 2B 9E F1 06 01 03 81 23  01 B6 09 02 08 00 A3 80  +......#........
0910: 80 1E 09 2B 9E F1 06 01  04 81 23 01 B6 09 02 08  ...+......#.....
0920: 00 A7 80 80 31 09 2B 9E  F1 06 01 05 81 23 01 B6  ....1.+......#..
0930: 09 02 08 00 AB 80 80 44  09 2B 9E F1 06 01 06 81  .......D.+......
0940: 23 01 B6 09 02 08 00 AC  80 80 57 09 2B 9E F1 06  #.........W.+...
0950: 01 07 81 23 01 B6 09 02  08 00 B0 80 80 6A 09 2B  ...#.........j.+
0960: 9E F1 06 01 08 81 23 01  B6 09 02 08 00 C7 80 80  ......#.........
0970: 7D 09 2B 9E F1 06 01 09  81 23 01 B6 09 02 08 00  }.+......#......
0980: 72 80 80 90 09 2B 9E F1  06 01 0A 81 23 01 B6 09  r....+......#...
0990: 02 08 00 DF 80 80 A3 09  2B 9E F1 06 01 0B 81 23  ........+......#
09A0: 01 B6 09 02 08 00 E1 80  80 B6 09 2B 9E F1 06 01  ...........+....
09B0: 0C 81 23 01 B6 09 2A 06  9E F1 06 01 1C 09 80 4A  ..#...*........J
09C0: 9E F1 06 01 A2 F1 06 01  1C CC 80 52 C6 80 F8 FF  ...........R....
09D0: FF 7F F8 FF FF 7F 73 30  30 39 45 C6 80 F8 FF FF  ......s009E.....
09E0: 7F F8 FF FF 7F 73 30 31  31 44 80 1C 09 80 4A A2  .....s011D....J.
09F0: F1 06 01 9E F1 06 01 1C  CC 80 2B A2 F1 06 01 0D  ..........+.....
0A00: 81 23 1C CC 80 62 9F 80  9F F1 06 01 9F F1 06 01  .#...b..........
0A10: 6D 61 69 6E 44 80 1C CE  80 6E 9E F1 06 01 AB 80  mainD....n......
0A20: 99 9E F1 06 01 1A 76 30  02 08 00 04 80 80 3B 0A  ......v0......;.
0A30: 2B 9E F1 06 01 0E 81 23  01 0C 0B 02 08 00 9A 80  +......#........
0A40: 80 4E 0A 2B 9E F1 06 01  0F 81 23 01 0C 0B 02 08  .N.+......#.....
0A50: 00 9F 80 80 61 0A 2B 9E  F1 06 01 10 81 23 01 0C  ....a.+......#..
0A60: 0B 02 08 00 A3 80 80 74  0A 2B 9E F1 06 01 11 81  .......t.+......
0A70: 23 01 0C 0B 02 08 00 A7  80 80 87 0A 2B 9E F1 06  #...........+...
0A80: 01 12 81 23 01 0C 0B 02  08 00 AB 80 80 9A 0A 2B  ...#...........+
0A90: 9E F1 06 01 13 81 23 01  0C 0B 02 08 00 AC 80 80  ......#.........
0AA0: AD 0A 2B 9E F1 06 01 14  81 23 01 0C 0B 02 08 00  ..+......#......
0AB0: B0 80 80 C0 0A 2B 9E F1  06 01 15 81 23 01 0C 0B  .....+......#...
0AC0: 02 08 00 C7 80 80 D3 0A  2B 9E F1 06 01 16 81 23  ........+......#
0AD0: 01 0C 0B 02 08 00 72 80  80 E6 0A 2B 9E F1 06 01  ......r....+....
0AE0: 17 81 23 01 0C 0B 02 08  00 DF 80 80 F9 0A 2B 9E  ..#...........+.
0AF0: F1 06 01 18 81 23 01 0C  0B 02 08 00 E1 80 80 0C  .....#..........
0B00: 0B 2B 9E F1 06 01 19 81  23 01 0C 0B 1A 76 30 02  .+......#....v0.
0B10: 08 00 04 80 80 22 0B 2B  9E F1 06 01 1A 81 23 01  .....".+......#.
0B20: F3 0B 02 08 00 9A 80 80  35 0B 2B 9E F1 06 01 1B  ........5.+.....
0B30: 81 23 01 F3 0B 02 08 00  9F 80 80 48 0B 2B 9E F1  .#.........H.+..
0B40: 06 01 1C 81 23 01 F3 0B  02 08 00 A3 80 80 5B 0B  ....#.........[.
0B50: 2B 9E F1 06 01 1D 81 23  01 F3 0B 02 08 00 A7 80  +......#........
0B60: 80 6E 0B 2B 9E F1 06 01  1E 81 23 01 F3 0B 02 08  .n.+......#.....
0B70: 00 AB 80 80 81 0B 2B 9E  F1 06 01 1F 81 23 01 F3  ......+......#..
0B80: 0B 02 08 00 AC 80 80 94  0B 2B 9E F1 06 01 20 81  .........+.... .
0B90: 23 01 F3 0B 02 08 00 B0  80 80 A7 0B 2B 9E F1 06  #...........+...
0BA0: 01 21 81 23 01 F3 0B 02  08 00 C7 80 80 BA 0B 2B  .!.#...........+
0BB0: 9E F1 06 01 22 81 23 01  F3 0B 02 08 00 72 80 80  ....".#......r..
0BC0: CD 0B 2B 9E F1 06 01 23  81 23 01 F3 0B 02 08 00  ..+....#.#......
0BD0: DF 80 80 E0 0B 2B 9E F1  06 01 24 81 23 01 F3 0B  .....+....$.#...
0BE0: 02 08 00 E1 80 80 F3 0B  2B 9E F1 06 01 25 81 23  ........+....%.#
0BF0: 01 F3 0B 52 C6 80 F8 FF  FF 7F F8 FF FF 7F 73 30  ...R..........s0
0C00: 31 31 45 C6 80 F8 FF FF  7F F8 FF FF 7F 73 30 31  11E..........s01
0C10: 32 44 80 1C CC 80 1A 76  30 02 08 00 04 80 80 2C  2D.....v0......,
0C20: 0C 2B 9E F1 06 01 26 81  23 01 FD 0C 02 08 00 9A  .+....&.#.......
0C30: 80 80 3F 0C 2B 9E F1 06  01 27 81 23 01 FD 0C 02  ..?.+....'.#....
0C40: 08 00 9F 80 80 52 0C 2B  9E F1 06 01 28 81 23 01  .....R.+....(.#.
0C50: FD 0C 02 08 00 A3 80 80  65 0C 2B 9E F1 06 01 29  ........e.+....)
0C60: 81 23 01 FD 0C 02 08 00  A7 80 80 78 0C 2B 9E F1  .#.........x.+..
0C70: 06 01 2A 81 23 01 FD 0C  02 08 00 AB 80 80 8B 0C  ..*.#...........
0C80: 2B 9E F1 06 01 2B 81 23  01 FD 0C 02 08 00 AC 80  +....+.#........
0C90: 80 9E 0C 2B 9E F1 06 01  2C 81 23 01 FD 0C 02 08  ...+....,.#.....
0CA0: 00 B0 80 80 B1 0C 2B 9E  F1 06 01 2D 81 23 01 FD  ......+....-.#..
0CB0: 0C 02 08 00 C7 80 80 C4  0C 2B 9E F1 06 01 2E 81  .........+......
0CC0: 23 01 FD 0C 02 08 00 72  80 80 D7 0C 2B 9E F1 06  #......r....+...
0CD0: 01 2F 81 23 01 FD 0C 02  08 00 DF 80 80 EA 0C 2B  ./.#...........+
0CE0: 9E F1 06 01 30 81 23 01  FD 0C 02 08 00 E1 80 80  ....0.#.........
0CF0: FD 0C 2B 9E F1 06 01 31  81 23 01 FD 0C 1C CE 80  ..+....1.#......
0D00: 1A E9 1A 52 C6 80 F8 FF  FF 7F F8 FF FF 7F 73 30  ...R..........s0
0D10: 31 32 1C 32 81 45 C6 80  F8 FF FF 7F F8 FF FF 7F  12.2.E..........
0D20: 73 30 31 33 44 80 1A 2E  1B 1C CC 80 1A 95 2F 02  s013D........./.
0D30: 0B 00 44 80 80 49 0D 66  C7 80 9E F1 06 01 9E F1  ..D..I.f........
0D40: 06 01 74 77 61 30 01 FF  0D 02 0B 00 04 80 80 63  ..twa0.........c
0D50: 0D 66 33 81 9E F1 06 01  9E F1 06 01 74 6C 6B 30  .f3.........tlk0
0D60: 01 FF 0D 02 0B 00 9A 80  80 7D 0D 66 34 81 9E F1  .........}.f4...
0D70: 06 01 9E F1 06 01 74 77  61 30 01 FF 0D 02 0B 00  ......twa0......
0D80: 9F 80 80 97 0D 66 35 81  9E F1 06 01 9E F1 06 01  .....f5.........
0D90: 74 6C 6B 30 01 FF 0D 02  0B 00 A3 80 80 B1 0D 66  tlk0...........f
0DA0: 36 81 9E F1 06 01 9E F1  06 01 74 6C 6B 30 01 FF  6.........tlk0..
0DB0: 0D 02 0B 00 A7 80 80 CB  0D 66 36 81 9E F1 06 01  .........f6.....
0DC0: 9E F1 06 01 74 6C 6B 30  01 FF 0D 02 0B 00 AB 80  ....tlk0........
0DD0: 80 E5 0D 66 37 81 9E F1  06 01 9E F1 06 01 74 6C  ...f7.........tl
0DE0: 6B 30 01 FF 0D 02 0B 00  AC 80 80 FF 0D 66 38 81  k0...........f8.
0DF0: 9E F1 06 01 9E F1 06 01  74 77 61 30 01 FF 0D 1C  ........twa0....
0E00: CC 80 1A 76 30 02 08 00  04 80 80 18 0E 2B 9E F1  ...v0........+..
0E10: 06 01 39 81 23 01 E9 0E  02 08 00 9A 80 80 2B 0E  ..9.#.........+.
0E20: 2B 9E F1 06 01 3A 81 23  01 E9 0E 02 08 00 9F 80  +....:.#........
0E30: 80 3E 0E 2B 9E F1 06 01  3B 81 23 01 E9 0E 02 08  .>.+....;.#.....
0E40: 00 A3 80 80 51 0E 2B 9E  F1 06 01 3C 81 23 01 E9  ....Q.+....<.#..
0E50: 0E 02 08 00 A7 80 80 64  0E 2B 9E F1 06 01 3D 81  .......d.+....=.
0E60: 23 01 E9 0E 02 08 00 AB  80 80 77 0E 2B 9E F1 06  #.........w.+...
0E70: 01 3E 81 23 01 E9 0E 02  08 00 AC 80 80 8A 0E 2B  .>.#...........+
0E80: 9E F1 06 01 3F 81 23 01  E9 0E 02 08 00 B0 80 80  ....?.#.........
0E90: 9D 0E 2B 9E F1 06 01 40  81 23 01 E9 0E 02 08 00  ..+....@.#......
0EA0: C7 80 80 B0 0E 2B 9E F1  06 01 41 81 23 01 E9 0E  .....+....A.#...
0EB0: 02 08 00 72 80 80 C3 0E  2B 9E F1 06 01 42 81 23  ...r....+....B.#
0EC0: 01 E9 0E 02 08 00 DF 80  80 D6 0E 2B 9E F1 06 01  ...........+....
0ED0: 43 81 23 01 E9 0E 02 08  00 E1 80 80 E9 0E 2B 9E  C.#...........+.
0EE0: F1 06 01 44 81 23 01 E9  0E 1C CC 80 4A A2 F1 06  ...D.#......J...
0EF0: 01 A0 F1 06 01 1C CE 80  2B A2 F1 06 01 45 81 23  ........+....E.#
0F00: 1C CC 80 1A 95 2F 02 0B  00 44 80 80 20 0F 66 C7  ...../...D.. .f.
0F10: 80 9E F1 06 01 9E F1 06  01 74 77 61 31 01 D6 0F  .........twa1...
0F20: 02 0B 00 04 80 80 3A 0F  66 33 81 9E F1 06 01 9E  ......:.f3......
0F30: F1 06 01 74 6C 6B 31 01  D6 0F 02 0B 00 9A 80 80  ...tlk1.........
0F40: 54 0F 66 34 81 9E F1 06  01 9E F1 06 01 74 77 61  T.f4.........twa
0F50: 31 01 D6 0F 02 0B 00 9F  80 80 6E 0F 66 35 81 9E  1.........n.f5..
0F60: F1 06 01 9E F1 06 01 74  6C 6B 31 01 D6 0F 02 0B  .......tlk1.....
0F70: 00 A3 80 80 88 0F 66 36  81 9E F1 06 01 9E F1 06  ......f6........
0F80: 01 74 6C 6B 31 01 D6 0F  02 0B 00 A7 80 80 A2 0F  .tlk1...........
0F90: 66 36 81 9E F1 06 01 9E  F1 06 01 74 6C 6B 31 01  f6.........tlk1.
0FA0: D6 0F 02 0B 00 AB 80 80  BC 0F 66 37 81 9E F1 06  ..........f7....
0FB0: 01 9E F1 06 01 74 6C 6B  31 01 D6 0F 02 0B 00 AC  .....tlk1.......
0FC0: 80 80 D6 0F 66 38 81 9E  F1 06 01 9E F1 06 01 74  ....f8.........t
0FD0: 77 61 31 01 D6 0F 1A 76  30 02 08 00 04 80 80 EC  wa1....v0.......
0FE0: 0F 2B 9E F1 06 01 46 81  23 01 BD 10 02 08 00 9A  .+....F.#.......
0FF0: 80 80 FF 0F 2B 9E F1 06  01 47 81 23 01 BD 10 02  ....+....G.#....
1000: 08 00 9F 80 80 12 10 2B  9E F1 06 01 48 81 23 01  .......+....H.#.
1010: BD 10 02 08 00 A3 80 80  25 10 2B 9E F1 06 01 49  ........%.+....I
1020: 81 23 01 BD 10 02 08 00  A7 80 80 38 10 2B 9E F1  .#.........8.+..
1030: 06 01 4A 81 23 01 BD 10  02 08 00 AB 80 80 4B 10  ..J.#.........K.
1040: 2B 9E F1 06 01 4B 81 23  01 BD 10 02 08 00 AC 80  +....K.#........
1050: 80 5E 10 2B 9E F1 06 01  4C 81 23 01 BD 10 02 08  .^.+....L.#.....
1060: 00 B0 80 80 71 10 2B 9E  F1 06 01 4D 81 23 01 BD  ....q.+....M.#..
1070: 10 02 08 00 C7 80 80 84  10 2B 9E F1 06 01 4E 81  .........+....N.
1080: 23 01 BD 10 02 08 00 72  80 80 97 10 2B 9E F1 06  #......r....+...
1090: 01 4F 81 23 01 BD 10 02  08 00 DF 80 80 AA 10 2B  .O.#...........+
10A0: 9E F1 06 01 50 81 23 01  BD 10 02 08 00 E1 80 80  ....P.#.........
10B0: BD 10 2B 9E F1 06 01 51  81 23 01 BD 10 52 C6 80  ..+....Q.#...R..
10C0: F8 FF FF 7F F8 FF FF 7F  73 30 31 33 45 C6 80 F8  ........s013E...
10D0: FF FF 7F F8 FF FF 7F 73  30 31 34 44 80 1C CC 80  .......s014D....
10E0: 2B A2 F1 06 01 52 81 23  4A A2 F1 06 01 9E F1 06  +....R.#J.......
10F0: 01 1C CC 80 2B A2 F1 06  01 53 81 23 52 C6 80 F8  ....+....S.#R...
1100: FF FF 7F F8 FF FF 7F 73  30 31 34 45 C6 80 F8 FF  .......s014E....
1110: FF 7F F8 FF FF 7F 73 30  31 35 44 80 1C 09 80 6E  ......s015D....n
1120: 9E F1 06 01 54 81 99 9E  F1 06 01 1A 76 30 02 08  ....T.......v0..
1130: 00 04 80 80 41 11 2B 9E  F1 06 01 55 81 23 01 12  ....A.+....U.#..
1140: 12 02 08 00 9A 80 80 54  11 2B 9E F1 06 01 56 81  .......T.+....V.
1150: 23 01 12 12 02 08 00 9F  80 80 67 11 2B 9E F1 06  #.........g.+...
1160: 01 57 81 23 01 12 12 02  08 00 A3 80 80 7A 11 2B  .W.#.........z.+
1170: 9E F1 06 01 58 81 23 01  12 12 02 08 00 A7 80 80  ....X.#.........
1180: 8D 11 2B 9E F1 06 01 59  81 23 01 12 12 02 08 00  ..+....Y.#......
1190: AB 80 80 A0 11 2B 9E F1  06 01 5A 81 23 01 12 12  .....+....Z.#...
11A0: 02 08 00 AC 80 80 B3 11  2B 9E F1 06 01 5B 81 23  ........+....[.#
11B0: 01 12 12 02 08 00 B0 80  80 C6 11 2B 9E F1 06 01  ...........+....
11C0: 5C 81 23 01 12 12 02 08  00 C7 80 80 D9 11 2B 9E  \.#...........+.
11D0: F1 06 01 5D 81 23 01 12  12 02 08 00 72 80 80 EC  ...].#......r...
11E0: 11 2B 9E F1 06 01 5E 81  23 01 12 12 02 08 00 DF  .+....^.#.......
11F0: 80 80 FF 11 2B 9E F1 06  01 5F 81 23 01 12 12 02  ....+...._.#....
1200: 08 00 E1 80 80 12 12 2B  9E F1 06 01 60 81 23 01  .......+....`.#.
1210: 12 12 6E A2 F1 06 01 AC  80 99 A2 F1 06 01 2B A2  ..n...........+.
1220: F1 06 01 61 81 23 27 08  A2 F1 06 01 04 2B A2 F1  ...a.#'......+..
1230: 06 01 62 81 23 2A 08 A2  F1 06 01 4A 9E F1 06 01  ..b.#*.....J....
1240: A2 F1 06 01 1C CC 80 1A  C8 1A 52 C6 80 F8 FF FF  ..........R.....
1250: 7F F8 FF FF 7F 73 30 31  35 29 09 A2 F1 06 01 05  .....s015)......
1260: 80 A2 F1 06 01 1C CC 80  6C A2 F1 06 01 63 81 CC  ........l....c..
1270: 80 4A A2 F1 06 01 A0 F1  06 01 29 0A 9E F1 06 01  .J........).....
1280: 0A 1C 0A 80 45 C6 80 F8  FF FF 7F F8 FF FF 7F 73  ....E..........s
1290: 30 31 36 44 80 1A 1C 1B  79 00 A2 F1 06 01 A0 F1  016D....y.......
12A0: 06 01 1C 09 80 66 9F 80  A2 F1 06 01 A2 F1 06 01  .....f..........
12B0: 66 71 30 31 1C 0A 80 66  9F 80 A2 F1 06 01 A2 F1  fq01...f........
12C0: 06 01 66 71 30 32 1C 64  81 45 CD 80 F0 FF FF 7F  ..fq02.d.E......
12D0: F0 FF FF 7F 6F 76 6C 32  44 80 52 C6 80 F8 FF FF  ....ovl2D.R.....
12E0: 7F F8 FF FF 7F 73 30 31  36 45 C6 80 F8 FF FF 7F  .....s016E......
12F0: F8 FF FF 7F 73 30 31 37  44 80 1C 09 80 9F 65 81  ....s017D.....e.
1300: F8 FF FF 7F F8 FF FF 7F  73 74 72 30 44 80 1C CB  ........str0D...
1310: 80 29 0C 9F F1 06 01 04  1C 04 80 4A 9E F1 06 01  .).........J....
1320: 9F F1 06 01 1C 0A 80 45  CD 80 F0 FF FF 7F F0 FF  .......E........
1330: FF 7F 6F 76 6C 32 44 80  52 C6 80 F8 FF FF 7F F8  ..ovl2D.R.......
1340: FF FF 7F 73 30 31 37 45  C6 80 F8 FF FF 7F F8 FF  ...s017E........
1350: FF 7F 73 30 31 38 44 80  1C 09 80 9F 66 81 9F F1  ..s018D.....f...
1360: 06 01 9F F1 06 01 73 74  72 30 44 80 29 09 A2 F1  ......str0D.)...
1370: 06 01 06 80 A2 F1 06 01  1C 04 80 6C A2 F1 06 01  ...........l....
1380: 63 81 CC 80 1C CC 80 4A  F0 FF FF 7F 9E F1 06 01  c......J........
1390: 1C 32 81 4A A2 F1 06 01  9E F1 06 01 1C 32 81 45  .2.J.........2.E
13A0: CD 80 F0 FF FF 7F F0 FF  FF 7F 6F 76 6C 31 44 80  ..........ovl1D.
13B0: 52 C6 80 F8 FF FF 7F F8  FF FF 7F 73 30 31 38 45  R..........s018E
13C0: C6 80 F8 FF FF 7F F8 FF  FF 7F 73 30 31 39 44 80  ..........s019D.
13D0: 1C 0A 80 9F 67 81 9F F1  06 01 9F F1 06 01 73 74  ....g.........st
13E0: 72 30 44 80 1C 0A 80 1A  76 30 02 08 00 04 80 80  r0D.....v0......
13F0: FD 13 2B 9E F1 06 01 68  81 23 01 CE 14 02 08 00  ..+....h.#......
1400: 9A 80 80 10 14 2B 9E F1  06 01 69 81 23 01 CE 14  .....+....i.#...
1410: 02 08 00 9F 80 80 23 14  2B 9E F1 06 01 6A 81 23  ......#.+....j.#
1420: 01 CE 14 02 08 00 A3 80  80 36 14 2B 9E F1 06 01  .........6.+....
1430: 6B 81 23 01 CE 14 02 08  00 A7 80 80 49 14 2B 9E  k.#.........I.+.
1440: F1 06 01 6C 81 23 01 CE  14 02 08 00 AB 80 80 5C  ...l.#.........\
1450: 14 2B 9E F1 06 01 6D 81  23 01 CE 14 02 08 00 AC  .+....m.#.......
1460: 80 80 6F 14 2B 9E F1 06  01 6E 81 23 01 CE 14 02  ..o.+....n.#....
1470: 08 00 B0 80 80 82 14 2B  9E F1 06 01 6F 81 23 01  .......+....o.#.
1480: CE 14 02 08 00 C7 80 80  95 14 2B 9E F1 06 01 70  ..........+....p
1490: 81 23 01 CE 14 02 08 00  72 80 80 A8 14 2B 9E F1  .#......r....+..
14A0: 06 01 71 81 23 01 CE 14  02 08 00 DF 80 80 BB 14  ..q.#...........
14B0: 2B 9E F1 06 01 72 81 23  01 CE 14 02 08 00 E1 80  +....r.#........
14C0: 80 CE 14 2B 9E F1 06 01  73 81 23 01 CE 14 66 A7  ...+....s.#...f.
