# Event 3081

## Metadata

| Field           | Value    |
|-----------------|----------|
| Event Index     | 3/8      |
| Offset          | 0x2495   |
| Data Size       | 42 bytes |
| Calculated Size | 42 bytes |
| Instructions    | 12       |

```
      00 01 02 03 04 05 06 07  08 09 0A 0B 0C 0D 0E 0F
      -- -- -- -- -- -- -- --  -- -- -- -- -- -- -- --
2490:                42 4A 5E  20 03 01 F0 FF FF 7F 6F       BJ^ ......o
24A0: 76 5E 20 03 01 2B 5E 20  03 01 07 80 23 2B 5E 20  v^ ..+^ ....#+^ 
24B0: 03 01 D4 80 23 2B 5E 20  03 01 D5 80 23 21 00     ....#+^ ....#!. 
```

## Opcodes

```
  0: 0x2495 [0x42] SET_CLI_EVENT_CANCEL_DATA()
  1: 0x2496 [0x4A] Arzizah (ID: 16982110/0x0103205E) looks at LocalPlayer
  2: 0x249F [0x6F] WAIT_FRAME_DELAY: Yield until WaitTime reaches zero
  3: 0x24A0 [0x76] CHECK_ENTITY_RENDER_FLAGS: Wait until Arzizah (ID: 16982110/0x0103205E) Render.Flags0 and Render.Flags3 conditions are met
  4: 0x24A5 [0x2B] Arzizah (ID: 16982110/0x0103205E) [8020*]:
    → "You want to know what's behind the gate?\u007F1\u0000\u0007"
  5: 0x24AC [0x23] WAIT_FOR_DIALOG_INTERACTION
  6: 0x24AD [0x2B] Arzizah (ID: 16982110/0x0103205E) [8018*]:
    → "You may very well have business within the palace, but we have our orders.\u0007Presentable attire. No weapons.\u007F1\u0000\u0007"
  7: 0x24B4 [0x23] WAIT_FOR_DIALOG_INTERACTION
  8: 0x24B5 [0x2B] Arzizah (ID: 16982110/0x0103205E) [8019*]:
    → "Be on your way.\u007F1\u0000\u0007"
  9: 0x24BC [0x23] WAIT_FOR_DIALOG_INTERACTION
 10: 0x24BD [0x21] END_EVENT
 11: 0x24BE [0x00] END_REQSTACK()
```
