# Event 3114

## Metadata

| Field           | Value    |
|-----------------|----------|
| Event Index     | 7/8      |
| Offset          | 0x8A4E   |
| Data Size       | 34 bytes |
| Calculated Size | 34 bytes |
| Instructions    | 10       |

```
      00 01 02 03 04 05 06 07  08 09 0A 0B 0C 0D 0E 0F
      -- -- -- -- -- -- -- --  -- -- -- -- -- -- -- --
8A40:                                            42 4A                BJ
8A50: 5E 20 03 01 F0 FF FF 7F  6F 76 5E 20 03 01 2B 5E  ^ ......ov^ ..+^
8A60: 20 03 01 45 83 23 2B 5E  20 03 01 D5 80 23 21 00   ..E.#+^ ....#!.
```

## Opcodes

```
  0: 0x8A4E [0x42] SET_CLI_EVENT_CANCEL_DATA()
  1: 0x8A4F [0x4A] Arzizah (ID: 16982110/0x0103205E) looks at LocalPlayer
  2: 0x8A58 [0x6F] WAIT_FRAME_DELAY: Yield until WaitTime reaches zero
  3: 0x8A59 [0x76] CHECK_ENTITY_RENDER_FLAGS: Wait until Arzizah (ID: 16982110/0x0103205E) Render.Flags0 and Render.Flags3 conditions are met
  4: 0x8A5E [0x2B] Arzizah (ID: 16982110/0x0103205E) [9041*]:
    → "I don't care what business you have in the Imperial Ward. No one bearing weapons will be allowed to pass.\u007F1\u0000\u0007"
  5: 0x8A65 [0x23] WAIT_FOR_DIALOG_INTERACTION
  6: 0x8A66 [0x2B] Arzizah (ID: 16982110/0x0103205E) [8019*]:
    → "Be on your way.\u007F1\u0000\u0007"
  7: 0x8A6D [0x23] WAIT_FOR_DIALOG_INTERACTION
  8: 0x8A6E [0x21] END_EVENT
  9: 0x8A6F [0x00] END_REQSTACK()
```
