# Event 65535

## Metadata

| Field           | Value    |
|-----------------|----------|
| Event Index     | 17/17    |
| Offset          | 0x00E1   |
| Data Size       | 60 bytes |
| Calculated Size | 60 bytes |
| Instructions    | 8        |

```
      00 01 02 03 04 05 06 07  08 09 0A 0B 0C 0D 0E 0F
      -- -- -- -- -- -- -- --  -- -- -- -- -- -- -- --
00E0:    2C CF A1 10 01 CF A1  10 01 73 68 77 68 1C 1A   ,........shwh..
00F0: 80 73 1B 80 F0 FF FF 7F  D3 A1 10 01 1C 1C 80 73  .s.............s
0100: 1D 80 D8 A1 10 01 D8 A1  10 01 1C 1A 80 66 1E 80  .............f..
0110: CF A1 10 01 CF A1 10 01  73 68 61 30 00           ........sha0.   
```

## Opcodes

```
  0: 0x00E1 [0x2C] CREATE_SCHEDULER_TASK: Create scheduler "shwh" for entities [Unnamed NPC (ID: 17867215/0x0110A1CF), Unnamed NPC (ID: 17867215/0x0110A1CF)]
  1: 0x00EE [0x1C] WAIT(30* ticks)
  2: 0x00F1 [0x73] LocalPlayer casts magic 397* on Unnamed NPC (ID: 17867219/0x0110A1D3)
  3: 0x00FC [0x1C] WAIT(50* ticks)
  4: 0x00FF [0x73] Unnamed NPC (ID: 17867224/0x0110A1D8) casts magic 904* on Unnamed NPC (ID: 17867224/0x0110A1D8)
  5: 0x010A [0x1C] WAIT(30* ticks)
  6: 0x010D [0x66] LOAD_EXT_SCHEDULER_MAIN(work_offset=19*, entity1=Unnamed NPC (ID: 17867215/0x0110A1CF), entity2=Unnamed NPC (ID: 17867215/0x0110A1CF), action="sha0")
  7: 0x011C [0x00] END_REQSTACK()
```
