# Event 45

## Metadata

| Field           | Value    |
|-----------------|----------|
| Event Index     | 8/31     |
| Offset          | 0x04C6   |
| Data Size       | 45 bytes |
| Calculated Size | 45 bytes |
| Instructions    | 13       |

```
      00 01 02 03 04 05 06 07  08 09 0A 0B 0C 0D 0E 0F
      -- -- -- -- -- -- -- --  -- -- -- -- -- -- -- --
04C0:                   1E F0  FF FF 7F 6F 70 5B 1C 80        .....op[..
04D0: F8 FF FF 7F F8 FF FF 7F  74 6C 6B 30 03 02 10 32  ........tlk0...2
04E0: 80 1D 33 80 23 1D 34 80  23 5E 69 64 6C 30 1A 20  ..3.#.4.#^idl0. 
04F0: 05 21 00                                          .!.             
```

## Opcodes

```
  0: 0x04C6 [0x1E] EventEntity looks at LocalPlayer and starts talking
  1: 0x04CB [0x6F] WAIT_FRAME_DELAY: Yield until WaitTime reaches zero
  2: 0x04CC [0x70] WAIT_ENTITY_RENDER_FLAG: Wait while EventEntity->Render.Flags3 bit 2 is set (cancel turn if not)
  3: 0x04CD [0x5B] LOAD_EXT_SCHEDULER: Load scheduler "tlk0" with entities [EventEntity, EventEntity], work=75*
  4: 0x04DC [0x03] Work_Zone[2] = 233*
  5: 0x04E1 [0x1D] PRINT_EVENT_MESSAGE(message_id=12414*)
    → "Thank you for the fishing rod! By the way, there is something else I wish to ask of you.\u007F1\u0000\u0007"
  6: 0x04E4 [0x23] WAIT_FOR_DIALOG_INTERACTION
  7: 0x04E5 [0x1D] PRINT_EVENT_MESSAGE(message_id=12416*)
    → "I need \u0001\u00056\u0002\u0000\u0000\u0000 from Ordelle's Caves. I must have it in order to sharpen a certain sword.\u007F1\u0000\u0007"
  8: 0x04E8 [0x23] WAIT_FOR_DIALOG_INTERACTION
  9: 0x04E9 [0x5E] EventEntity goes idle (kills current action) (animation: "idl0")
 10: 0x04EE [0x1A] CALL_SUBROUTINE(address=0x0520)
 11: 0x04F1 [0x21] END_EVENT
 12: 0x04F2 [0x00] END_REQSTACK()
```
