# Event 47

## Metadata

| Field           | Value    |
|-----------------|----------|
| Event Index     | 18/31    |
| Offset          | 0x0643   |
| Data Size       | 34 bytes |
| Calculated Size | 34 bytes |
| Instructions    | 11       |

```
      00 01 02 03 04 05 06 07  08 09 0A 0B 0C 0D 0E 0F
      -- -- -- -- -- -- -- --  -- -- -- -- -- -- -- --
0640:          20 01 1E F0 FF  FF 7F 6F 70 5B 1C 80 F8      ......op[...
0650: FF FF 7F F8 FF FF 7F 74  6C 6B 30 1D 43 80 23 1D  .......tlk0.C.#.
0660: 44 80 23 21 00                                    D.#!.           
```

## Opcodes

```
  0: 0x0643 [0x20] SET_CLI_EVENT_UC_FLAG: Lock player control
  1: 0x0645 [0x1E] EventEntity looks at LocalPlayer and starts talking
  2: 0x064A [0x6F] WAIT_FRAME_DELAY: Yield until WaitTime reaches zero
  3: 0x064B [0x70] WAIT_ENTITY_RENDER_FLAG: Wait while EventEntity->Render.Flags3 bit 2 is set (cancel turn if not)
  4: 0x064C [0x5B] LOAD_EXT_SCHEDULER: Load scheduler "tlk0" with entities [EventEntity, EventEntity], work=75*
  5: 0x065B [0x1D] PRINT_EVENT_MESSAGE(message_id=12478*)
    → "What? You caught the big one? Amazing! I doubt I could have done the same.\u007F1\u0000\u0007"
  6: 0x065E [0x23] WAIT_FOR_DIALOG_INTERACTION
  7: 0x065F [0x1D] PRINT_EVENT_MESSAGE(message_id=12479*)
    → "Now, hurry and get it cleaned! I have heard of an expert fisherman in Selbina. You should find him and ask him!\u007F1\u0000\u0007"
  8: 0x0662 [0x23] WAIT_FOR_DIALOG_INTERACTION
  9: 0x0663 [0x21] END_EVENT
 10: 0x0664 [0x00] END_REQSTACK()
```
