# Event 65535

## Metadata

| Field           | Value    |
|-----------------|----------|
| Event Index     | 4/31     |
| Offset          | 0x0065   |
| Data Size       | 55 bytes |
| Calculated Size | 55 bytes |
| Instructions    | 13       |

```
      00 01 02 03 04 05 06 07  08 09 0A 0B 0C 0D 0E 0F
      -- -- -- -- -- -- -- --  -- -- -- -- -- -- -- --
0060:                32 0B 80  37 0C 80 0D 80 02 80 0E       2..7.......
0070: 80 1F 00 0F 80 10 80 02  80 1F 01 1C 11 80 1F 00  ................
0080: 12 80 13 80 14 80 1F 01  1C 15 80 39 07 80 1C 16  ...........9....
0090: 80 1F 00 17 80 18 80 14  80 1F 01 00              ............    
```

## Opcodes

```
  0: 0x0065 [0x32] ExtData[1]->MainSpeed = 35* * 0.1
  1: 0x0068 [0x37] UPDATE_EVENT_POSITION_AND_DIR: x=-5.769*, z=10.650*, y=0.000*, direction=87.0°*
  2: 0x0071 [0x1F] MOVE_ENTITY: EventEntity moves to X=-10.599*, Z=20.248*, Y=0.000*
  3: 0x0079 [0x1F] MOVE_ENTITY: Update entity position (mode=1)
  4: 0x007B [0x1C] WAIT(60* ticks)
  5: 0x007E [0x1F] MOVE_ENTITY: EventEntity moves to X=-6.847*, Z=26.842*, Y=0.499*
  6: 0x0086 [0x1F] MOVE_ENTITY: Update entity position (mode=1)
  7: 0x0088 [0x1C] WAIT(30* ticks)
  8: 0x008B [0x39] SET_ENTITY_DIRECTION(direction=0.0°*)
  9: 0x008E [0x1C] WAIT(45* ticks)
 10: 0x0091 [0x1F] MOVE_ENTITY: EventEntity moves to X=-7.090*, Z=46.653*, Y=0.499*
 11: 0x0099 [0x1F] MOVE_ENTITY: Update entity position (mode=1)
 12: 0x009B [0x00] END_REQSTACK()
```
