# Event 460

## Metadata

| Field           | Value    |
|-----------------|----------|
| Event Index     | 7/10     |
| Offset          | 0x007C   |
| Data Size       | 33 bytes |
| Calculated Size | 33 bytes |
| Instructions    | 12       |

```
      00 01 02 03 04 05 06 07  08 09 0A 0B 0C 0D 0E 0F
      -- -- -- -- -- -- -- --  -- -- -- -- -- -- -- --
0070:                                      1E F0 FF FF              ....
0080: 7F 6F 70 29 08 28 10 0F  01 01 1D 05 80 23 1D 06  .op).(.......#..
0090: 80 23 29 08 28 10 0F 01  02 20 00 21 00           .#).(.... .!.   
```

## Opcodes

```
  0: 0x007C [0x1E] EventEntity looks at LocalPlayer and starts talking
  1: 0x0081 [0x6F] WAIT_FRAME_DELAY: Yield until WaitTime reaches zero
  2: 0x0082 [0x70] WAIT_ENTITY_RENDER_FLAG: Wait while EventEntity->Render.Flags3 bit 2 is set (cancel turn if not)
  3: 0x0083 [0x29] REQ_SET_WAIT(priority=0x08, entity_id=Erpolant (ID: 17764392/0x010F1028), tag_num=0x01)
  4: 0x008A [0x1D] PRINT_EVENT_MESSAGE(message_id=8611*)
    → "Now that you have completed that little mission of amity, you are just an ordinary San d'Orian citizen again. So that frees you to go to Giddeus and really give those beastmen what they deserve.\u007F1\u0000\u0007"
  5: 0x008D [0x23] WAIT_FOR_DIALOG_INTERACTION
  6: 0x008E [0x1D] PRINT_EVENT_MESSAGE(message_id=8612*)
    → "However, we shan't take responsibility if you get seriously hurt in the process.\u007F1\u0000\u0007"
  7: 0x0091 [0x23] WAIT_FOR_DIALOG_INTERACTION
  8: 0x0092 [0x29] REQ_SET_WAIT(priority=0x08, entity_id=Erpolant (ID: 17764392/0x010F1028), tag_num=0x02)
  9: 0x0099 [0x20] SET_CLI_EVENT_UC_FLAG: Unlock player control
 10: 0x009B [0x21] END_EVENT
 11: 0x009C [0x00] END_REQSTACK()
```
