# Event 93

## Metadata

| Field           | Value    |
|-----------------|----------|
| Event Index     | 4/5      |
| Offset          | 0x0027   |
| Data Size       | 33 bytes |
| Calculated Size | 33 bytes |
| Instructions    | 12       |

```
      00 01 02 03 04 05 06 07  08 09 0A 0B 0C 0D 0E 0F
      -- -- -- -- -- -- -- --  -- -- -- -- -- -- -- --
0020:                      1E  F0 FF FF 7F 6F 70 29 08         .....op).
0030: 0F A0 0F 01 01 1D 02 80  23 1D 03 80 23 29 08 0F  ........#...#)..
0040: A0 0F 01 02 20 00 21 00                           .... .!.        
```

## Opcodes

```
  0: 0x0027 [0x1E] EventEntity looks at LocalPlayer and starts talking
  1: 0x002C [0x6F] WAIT_FRAME_DELAY: Yield until WaitTime reaches zero
  2: 0x002D [0x70] WAIT_ENTITY_RENDER_FLAG: Wait while EventEntity->Render.Flags3 bit 2 is set (cancel turn if not)
  3: 0x002E [0x29] REQ_SET_WAIT(priority=0x08, entity_id=Bhi Telifahgo (ID: 17801231/0x010FA00F), tag_num=0x01)
  4: 0x0035 [0x1D] PRINT_EVENT_MESSAGE(message_id=10032*)
    → "Whenever I hearrr the sound of the ocean, I always think it sounds like someone calling \u00072slee\u0001`p, slee\u0001`p.\u00073 Can you hearrr it too, \u007F\u0005[misterrr/lady]? \u007F1\u0000\u0007"
  5: 0x0038 [0x23] WAIT_FOR_DIALOG_INTERACTION
  6: 0x0039 [0x1D] PRINT_EVENT_MESSAGE(message_id=10033*)
    → "You shouldn't fight it when you do. It's best to just lie down and...<yawn>...\u007F1\u0000\u0007"
  7: 0x003C [0x23] WAIT_FOR_DIALOG_INTERACTION
  8: 0x003D [0x29] REQ_SET_WAIT(priority=0x08, entity_id=Bhi Telifahgo (ID: 17801231/0x010FA00F), tag_num=0x02)
  9: 0x0044 [0x20] SET_CLI_EVENT_UC_FLAG: Unlock player control
 10: 0x0046 [0x21] END_EVENT
 11: 0x0047 [0x00] END_REQSTACK()
```
