# Event 65535

## Metadata

| Field           | Value    |
|-----------------|----------|
| Event Index     | 6/15     |
| Offset          | 0x01A9   |
| Data Size       | 44 bytes |
| Calculated Size | 44 bytes |
| Instructions    | 10       |

```
      00 01 02 03 04 05 06 07  08 09 0A 0B 0C 0D 0E 0F
      -- -- -- -- -- -- -- --  -- -- -- -- -- -- -- --
01A0:                             32 0A 80 1F 00 0B 80           2......
01B0: 0C 80 0D 80 1F 01 1F 00  0E 80 0F 80 0D 80 1F 01  ................
01C0: 1F 00 10 80 11 80 12 80  1F 01 1F 00 13 80 14 80  ................
01D0: 12 80 1F 01 00                                    .....           
```

## Opcodes

```
  0: 0x01A9 [0x32] ExtData[1]->MainSpeed = 80* * 0.1
  1: 0x01AC [0x1F] MOVE_ENTITY: EventEntity moves to X=100.575*, Z=-70.324*, Y=-0.649*
  2: 0x01B4 [0x1F] MOVE_ENTITY: Update entity position (mode=1)
  3: 0x01B6 [0x1F] MOVE_ENTITY: EventEntity moves to X=105.304*, Z=-77.481*, Y=-0.649*
  4: 0x01BE [0x1F] MOVE_ENTITY: Update entity position (mode=1)
  5: 0x01C0 [0x1F] MOVE_ENTITY: EventEntity moves to X=100.971*, Z=-81.321*, Y=-0.650*
  6: 0x01C8 [0x1F] MOVE_ENTITY: Update entity position (mode=1)
  7: 0x01CA [0x1F] MOVE_ENTITY: EventEntity moves to X=94.646*, Z=-80.548*, Y=-0.650*
  8: 0x01D2 [0x1F] MOVE_ENTITY: Update entity position (mode=1)
  9: 0x01D4 [0x00] END_REQSTACK()
```
