# Event 303

## Metadata

| Field           | Value    |
|-----------------|----------|
| Event Index     | 9/12     |
| Offset          | 0x012F   |
| Data Size       | 43 bytes |
| Calculated Size | 43 bytes |
| Instructions    | 10       |

```
      00 01 02 03 04 05 06 07  08 09 0A 0B 0C 0D 0E 0F
      -- -- -- -- -- -- -- --  -- -- -- -- -- -- -- --
0120:                                               20                  
0130: 01 42 2B 7B 80 0E 01 17  80 23 2B 7B 80 0E 01 18  .B+{.....#+{....
0140: 80 23 45 0B 80 F0 FF FF  7F F0 FF FF 7F 71 73 74  .#E..........qst
0150: 63 04 80 03 01 10 0E 80  21 00                    c.......!.      
```

## Opcodes

```
  0: 0x012F [0x20] SET_CLI_EVENT_UC_FLAG: Lock player control
  1: 0x0131 [0x42] SET_CLI_EVENT_CANCEL_DATA()
  2: 0x0132 [0x2B] Gallijaux (ID: 17727611/0x010E807B) [8157*]:
    → "Ah, look at what you've brought me. This'll do fine, it will. Bring more!\u007F1\u0000\u0007"
  3: 0x0139 [0x23] WAIT_FOR_DIALOG_INTERACTION
  4: 0x013A [0x2B] Gallijaux (ID: 17727611/0x010E807B) [8160*]:
    → "Well now, it seems that you've brought me more than 10,000 carps! That's worth a reward to certify your accomplishment, methinks! You keep up the good work.\u007F1\u0000\u0007"
  5: 0x0141 [0x23] WAIT_FOR_DIALOG_INTERACTION
  6: 0x0142 [0x45] LOAD_SCHEDULED_TASK(work_offset1=201*, entity1=LocalPlayer, entity2=LocalPlayer, scheduler_id="qstc", work_offset2=0*)
  7: 0x0153 [0x03] Work_Zone[1] = 702*
  8: 0x0158 [0x21] END_EVENT
  9: 0x0159 [0x00] END_REQSTACK()
```
