# Event 307

## Metadata

| Field           | Value    |
|-----------------|----------|
| Event Index     | 5/12     |
| Offset          | 0x007F   |
| Data Size       | 43 bytes |
| Calculated Size | 43 bytes |
| Instructions    | 10       |

```
      00 01 02 03 04 05 06 07  08 09 0A 0B 0C 0D 0E 0F
      -- -- -- -- -- -- -- --  -- -- -- -- -- -- -- --
0070:                                               20                  
0080: 01 42 2B 7C 80 0E 01 0A  80 23 2B 7C 80 0E 01 0D  .B+|.....#+|....
0090: 80 23 45 0B 80 F0 FF FF  7F F0 FF FF 7F 71 73 74  .#E..........qst
00A0: 63 04 80 03 01 10 0E 80  21 00                    c.......!.      
```

## Opcodes

```
  0: 0x007F [0x20] SET_CLI_EVENT_UC_FLAG: Lock player control
  1: 0x0081 [0x42] SET_CLI_EVENT_CANCEL_DATA()
  2: 0x0082 [0x2B] Joulet (ID: 17727612/0x010E807C) [8169*]:
    → "This is a fine haul you've brought! I thank you!\u007F1\u0000\u0007"
  3: 0x0089 [0x23] WAIT_FOR_DIALOG_INTERACTION
  4: 0x008A [0x2B] Joulet (ID: 17727612/0x010E807C) [8172*]:
    → "You'll be ecstatic to know that you've brought me more than 10,000 carps! I'd like to give you these tokens of my tremendous appreciation. Keep up the good work!\u007F1\u0000\u0007"
  5: 0x0091 [0x23] WAIT_FOR_DIALOG_INTERACTION
  6: 0x0092 [0x45] LOAD_SCHEDULED_TASK: Load scheduler "qstc" with entities [LocalPlayer, LocalPlayer], work=[201*, 0*]
  7: 0x00A3 [0x03] Work_Zone[1] = 702*
  8: 0x00A8 [0x21] END_EVENT
  9: 0x00A9 [0x00] END_REQSTACK()
```
