# Event 43

## Metadata

| Field           | Value    |
|-----------------|----------|
| Event Index     | 7/25     |
| Offset          | 0x004E   |
| Data Size       | 33 bytes |
| Calculated Size | 33 bytes |
| Instructions    | 12       |

```
      00 01 02 03 04 05 06 07  08 09 0A 0B 0C 0D 0E 0F
      -- -- -- -- -- -- -- --  -- -- -- -- -- -- -- --
0040:                                            1E F0                ..
0050: FF FF 7F 6F 70 1D 02 80  23 29 08 2A 00 0F 01 01  ...op...#).*....
0060: 1D 03 80 23 29 08 2A 00  0F 01 05 20 00 21 00     ...#).*.... .!. 
```

## Opcodes

```
  0: 0x004E [0x1E] EventEntity looks at LocalPlayer and starts talking
  1: 0x0053 [0x6F] WAIT_FRAME_DELAY: Yield until WaitTime reaches zero
  2: 0x0054 [0x70] WAIT_ENTITY_RENDER_FLAG: Wait while EventEntity->Render.Flags3 bit 2 is set (cancel turn if not)
  3: 0x0055 [0x1D] PRINT_EVENT_MESSAGE(message_id=3215*)
    → "......\u0007What is it you want?\u007F1\u0000\u0007"
  4: 0x0058 [0x23] WAIT_FOR_DIALOG_INTERACTION
  5: 0x0059 [0x29] REQ_SET_WAIT(priority=0x08, entity_id=Gold Skull (ID: 17760298/0x010F002A), tag_num=0x01)
  6: 0x0060 [0x1D] PRINT_EVENT_MESSAGE(message_id=3216*)
    → "Sorry, but I'm not much of a talker. If you have no business with me, then don't speak to me.\u007F1\u0000\u0007"
  7: 0x0063 [0x23] WAIT_FOR_DIALOG_INTERACTION
  8: 0x0064 [0x29] REQ_SET_WAIT(priority=0x08, entity_id=Gold Skull (ID: 17760298/0x010F002A), tag_num=0x05)
  9: 0x006B [0x20] SET_CLI_EVENT_UC_FLAG: Unlock player control
 10: 0x006D [0x21] END_EVENT
 11: 0x006E [0x00] END_REQSTACK()
```
