# Event 65535

## Metadata

| Field           | Value    |
|-----------------|----------|
| Event Index     | 22/25    |
| Offset          | 0x015A   |
| Data Size       | 27 bytes |
| Calculated Size | 27 bytes |
| Instructions    | 9        |

```
      00 01 02 03 04 05 06 07  08 09 0A 0B 0C 0D 0E 0F
      -- -- -- -- -- -- -- --  -- -- -- -- -- -- -- --
0150:                                29 08 2A 00 0F 01            ).*...
0160: 01 1D 1A 80 23 1D 1B 80  23 1D 1C 80 23 29 08 2A  ....#...#...#).*
0170: 00 0F 01 05 00                                    .....           
```

## Opcodes

```
  0: 0x015A [0x29] REQ_SET_WAIT(priority=0x08, entity_id=Gold Skull (ID: 17760298/0x010F002A), tag_num=0x01)
  1: 0x0161 [0x1D] PRINT_EVENT_MESSAGE(message_id=3271*)
    → "The mission from our comrades in Windurst entails the extermination of a giant monster that appeared in the depths of Giddeus, the borderland to the theocracy of the Yagudo beastmen.\u007F1\u0000\u0007"
  2: 0x0164 [0x23] WAIT_FOR_DIALOG_INTERACTION
  3: 0x0165 [0x1D] PRINT_EVENT_MESSAGE(message_id=3272*)
    → "You are to receive a key from Heavens Tower in the Windurst Walls district, and head to the innermost part of Giddeus.\u007F1\u0000\u0007"
  4: 0x0168 [0x23] WAIT_FOR_DIALOG_INTERACTION
  5: 0x0169 [0x1D] PRINT_EVENT_MESSAGE(message_id=3273*)
    → "Your orders are to then defeat the heinous beast that lurks there.\u007F1\u0000\u0007"
  6: 0x016C [0x23] WAIT_FOR_DIALOG_INTERACTION
  7: 0x016D [0x29] REQ_SET_WAIT(priority=0x08, entity_id=Gold Skull (ID: 17760298/0x010F002A), tag_num=0x05)
  8: 0x0174 [0x00] END_REQSTACK()
```
