# Event 65535

## Metadata

| Field           | Value    |
|-----------------|----------|
| Event Index     | 90/136   |
| Offset          | 0x0555   |
| Data Size       | 34 bytes |
| Calculated Size | 34 bytes |
| Instructions    | 10       |

```
      00 01 02 03 04 05 06 07  08 09 0A 0B 0C 0D 0E 0F
      -- -- -- -- -- -- -- --  -- -- -- -- -- -- -- --
0550:                32 97 80  1F 00 CD 80 CE 80 0E 80       2..........
0560: 1F 01 6F 1E D6 20 03 01  1C 1C 80 1F 00 CF 80 D0  ..o.. ..........
0570: 80 0E 80 1F 01 6F 00                              .....o.         
```

## Opcodes

```
  0: 0x0555 [0x32] ExtData[1]->MainSpeed = 40* * 0.1
  1: 0x0558 [0x1F] MOVE_ENTITY: EventEntity moves to X=-7.916*, Z=-59.141*, Y=0.000*
  2: 0x0560 [0x1F] MOVE_ENTITY: Update entity position (mode=1)
  3: 0x0562 [0x6F] WAIT_FRAME_DELAY: Yield until WaitTime reaches zero
  4: 0x0563 [0x1E] EventEntity looks at Karababa (ID: 16982230/0x010320D6) and starts talking
  5: 0x0568 [0x1C] WAIT(30* ticks)
  6: 0x056B [0x1F] MOVE_ENTITY: EventEntity moves to X=-4.198*, Z=-70.953*, Y=0.000*
  7: 0x0573 [0x1F] MOVE_ENTITY: Update entity position (mode=1)
  8: 0x0575 [0x6F] WAIT_FRAME_DELAY: Yield until WaitTime reaches zero
  9: 0x0576 [0x00] END_REQSTACK()
```
