# Event 65535

## Metadata

| Field           | Value    |
|-----------------|----------|
| Event Index     | 80/82    |
| Offset          | 0x0AA6   |
| Data Size       | 69 bytes |
| Calculated Size | 69 bytes |
| Instructions    | 12       |

```
      00 01 02 03 04 05 06 07  08 09 0A 0B 0C 0D 0E 0F
      -- -- -- -- -- -- -- --  -- -- -- -- -- -- -- --
0AA0:                   32 11  80 AD 02 12 80 F8 FF FF        2.........
0AB0: 7F F8 FF FF 7F 1C 13 80  39 14 80 C5 2F 80 F8 FF  ........9.../...
0AC0: FF 7F F8 FF FF 7F 73 30  30 32 0E 80 1F 00 15 80  ......s002......
0AD0: 16 80 17 80 1F 01 1F 00  70 80 71 80 17 80 1F 01  ........p.q.....
0AE0: 1F 00 72 80 73 80 0E 80  1F 01 00                 ..r.s......     
```

## Opcodes

```
  0: 0x0AA6 [0x32] ExtData[1]->MainSpeed = 200* * 0.1
  1: 0x0AA9 [0xAD] DUAL_ENTITY_SCHEDULER_HANDLER: Execute sub-case 2 with entities [EventEntity, EventEntity], work=9*
  2: 0x0AB5 [0x1C] WAIT(90* ticks)
  3: 0x0AB8 [0x39] SET_ENTITY_DIRECTION(direction=356.5°*)
  4: 0x0ABB [0xC5] LOAD_SCHEDULED_TASK_ALT3: Load scheduler 0x800E3230 for entities [EventEntity, EventEntity], work=5*, param=12403
  5: 0x0ACC [0x1F] MOVE_ENTITY: EventEntity moves to X=101.230*, Z=-108.600*, Y=2.250*
  6: 0x0AD4 [0x1F] MOVE_ENTITY: Update entity position (mode=1)
  7: 0x0AD6 [0x1F] MOVE_ENTITY: EventEntity moves to X=101.680*, Z=-106.480*, Y=2.250*
  8: 0x0ADE [0x1F] MOVE_ENTITY: Update entity position (mode=1)
  9: 0x0AE0 [0x1F] MOVE_ENTITY: EventEntity moves to X=81.900*, Z=-85.330*, Y=0.000*
 10: 0x0AE8 [0x1F] MOVE_ENTITY: Update entity position (mode=1)
 11: 0x0AEA [0x00] END_REQSTACK()
```
