# Event 65535

## Metadata

| Field           | Value    |
|-----------------|----------|
| Event Index     | 12/82    |
| Offset          | 0x012B   |
| Data Size       | 42 bytes |
| Calculated Size | 42 bytes |
| Instructions    | 9        |

```
      00 01 02 03 04 05 06 07  08 09 0A 0B 0C 0D 0E 0F
      -- -- -- -- -- -- -- --  -- -- -- -- -- -- -- --
0120:                                   32 11 80 AD 02             2....
0130: 12 80 F8 FF FF 7F F8 FF  FF 7F 1C 13 80 39 14 80  .............9..
0140: 1F 00 15 80 16 80 17 80  1F 01 1F 00 18 80 19 80  ................
0150: 1A 80 1F 01 00                                    .....           
```

## Opcodes

```
  0: 0x012B [0x32] ExtData[1]->MainSpeed = 200* * 0.1
  1: 0x012E [0xAD] DUAL_ENTITY_SCHEDULER_HANDLER: Execute sub-case 2 with entities [EventEntity, EventEntity], work=9*
  2: 0x013A [0x1C] WAIT(90* ticks)
  3: 0x013D [0x39] SET_ENTITY_DIRECTION(direction=23592956.5°*)
  4: 0x0140 [0x1F] MOVE_ENTITY: EventEntity moves to X=101.230*, Z=-108.600*, Y=2.250*
  5: 0x0148 [0x1F] MOVE_ENTITY: Update entity position (mode=1)
  6: 0x014A [0x1F] MOVE_ENTITY: EventEntity moves to X=119.200*, Z=-91.000*, Y=-0.791*
  7: 0x0152 [0x1F] MOVE_ENTITY: Update entity position (mode=1)
  8: 0x0154 [0x00] END_REQSTACK()
```
