# Event 65535

## Metadata

| Field           | Value    |
|-----------------|----------|
| Event Index     | 43/82    |
| Offset          | 0x04E2   |
| Data Size       | 59 bytes |
| Calculated Size | 59 bytes |
| Instructions    | 10       |

```
      00 01 02 03 04 05 06 07  08 09 0A 0B 0C 0D 0E 0F
      -- -- -- -- -- -- -- --  -- -- -- -- -- -- -- --
04E0:       36 3B 80 3C 80 53  80 33 00 66 06 80 F8 FF    6;.<.S.3.f....
04F0: FF 7F F8 FF FF 7F 6A 6D  70 32 53 DA 00 10 01 DA  ......jmp2S.....
0500: 00 10 01 6A 6D 70 32 1C  54 80 32 3E 80 1F 00 55  ...jmp2.T.2>...U
0510: 80 56 80 57 80 1F 01 1E  F0 FF FF 7F 00           .V.W.........   
```

## Opcodes

```
  0: 0x04E2 [0x36] SET_ENTITY_EVENT_POSITION(pos_x=93.888*, pos_z=-120.729*, pos_y=1.800*)
  1: 0x04E9 [0x33] EventEntity->Render.Flags0 &= ~ 0x200000 // Bit 21 (flag=0x00)
  2: 0x04EB [0x66] LOAD_EXT_SCHEDULER_MAIN(work_offset=40*, entity1=EventEntity, entity2=EventEntity, action="jmp2")
  3: 0x04FA [0x53] WAIT_SCHEDULER_TASK(entity1=Tuffle-Buffle (ID: 17826010/0x011000DA), entity2=Tuffle-Buffle (ID: 17826010/0x011000DA), action_id="jmp2")
  4: 0x0507 [0x1C] WAIT(15* ticks)
  5: 0x050A [0x32] ExtData[1]->MainSpeed = 13* * 0.1
  6: 0x050D [0x1F] MOVE_ENTITY: EventEntity moves to X=94.927*, Z=-121.028*, Y=2.179*
  7: 0x0515 [0x1F] MOVE_ENTITY: Update entity position (mode=1)
  8: 0x0517 [0x1E] EventEntity looks at LocalPlayer and starts talking
  9: 0x051C [0x00] END_REQSTACK()
```
