# Event 101

## Metadata

| Field           | Value    |
|-----------------|----------|
| Event Index     | 3/3      |
| Offset          | 0x0017   |
| Data Size       | 18 bytes |
| Calculated Size | 18 bytes |
| Instructions    | 10       |

```
      00 01 02 03 04 05 06 07  08 09 0A 0B 0C 0D 0E 0F
      -- -- -- -- -- -- -- --  -- -- -- -- -- -- -- --
0010:                      48  05 80 23 1D 06 80 23 1D         H..#...#.
0020: 07 80 23 1D 08 80 23 21  00                       ..#...#!.       
```

## Opcodes

```
  0: 0x0017 [0x48] [System] [7362*]:
    → "A soft voice echoes throughout the hall.\u007F1\u0000\u0007"
  1: 0x001A [0x23] WAIT_FOR_DIALOG_INTERACTION
  2: 0x001B [0x1D] PRINT_EVENT_MESSAGE(message_id=7363*)
    → "\u00072You...\u00073\u007F1\u0000\u0007"
  3: 0x001E [0x23] WAIT_FOR_DIALOG_INTERACTION
  4: 0x001F [0x1D] PRINT_EVENT_MESSAGE(message_id=7364*)
    → "\u00072You, who have proven your worth in body and spirit...\u00073\u007F1\u0000\u0007"
  5: 0x0022 [0x23] WAIT_FOR_DIALOG_INTERACTION
  6: 0x0023 [0x1D] PRINT_EVENT_MESSAGE(message_id=7365*)
    → "\u00072You, who have demonstrated that worth through your offering...\u00073\u007F1\u0000\u0007"
  7: 0x0026 [0x23] WAIT_FOR_DIALOG_INTERACTION
  8: 0x0027 [0x21] END_EVENT
  9: 0x0028 [0x00] END_REQSTACK()
```
