# 17207909

## Common Data

| Field            | Value                    |
|------------------|--------------------------|
| Zone             | Batallia Downs (ID: 105) |
| Block Size       | 380 bytes                |
| Total Events     | 23                       |
| References Count | 24                       |

## List of Events

| Event ID                   | Entrypoint   |   Size |   Instructions |
|----------------------------|--------------|--------|----------------|
| [65535](#event-65535)      | 0x0000       |      1 |              1 |
| [65535.1](#event-655351)   | 0x0001       |      1 |              1 |
| [65535.2](#event-655352)   | 0x0002       |     18 |              4 |
| [65535.3](#event-655353)   | 0x0014       |     10 |              2 |
| [65535.4](#event-655354)   | 0x001E       |      9 |              3 |
| [65535.5](#event-655355)   | 0x0027       |      9 |              3 |
| [65535.6](#event-655356)   | 0x0030       |     10 |              2 |
| [65535.7](#event-655357)   | 0x003A       |     10 |              2 |
| [504](#event-504)          | 0x0044       |      1 |              1 |
| [505](#event-505)          | 0x0045       |      1 |              1 |
| [506](#event-506)          | 0x0046       |      1 |              1 |
| [507](#event-507)          | 0x0047       |      1 |              1 |
| [508](#event-508)          | 0x0048       |      1 |              1 |
| [65535.8](#event-655358)   | 0x0049       |      4 |              2 |
| [65535.9](#event-655359)   | 0x004D       |     11 |              5 |
| [65535.10](#event-6553510) | 0x0058       |     11 |              5 |
| [65535.11](#event-6553511) | 0x0063       |     11 |              5 |
| [65535.12](#event-6553512) | 0x006E       |     11 |              5 |
| [65535.13](#event-6553513) | 0x0079       |     11 |              5 |
| [65535.14](#event-6553514) | 0x0084       |     11 |              5 |
| [65535.15](#event-6553515) | 0x008F       |     11 |              5 |
| [65535.16](#event-6553516) | 0x009A       |     11 |              5 |
| [65535.17](#event-6553517) | 0x00A5       |     11 |              5 |

## DAT References (imed_data)

|   Index | Hex Value   |   Dec Value |
|---------|-------------|-------------|
|       0 | 0x0000      |           0 |
|       1 | 0x0001      |           1 |
|       2 | 0x0080      |         128 |
|       3 | 0x0082      |         130 |
|       4 | 0x012C      |         300 |
|       5 | 0x2C21      |       11297 |
|       6 | 0x0096      |         150 |
|       7 | 0x0154      |         340 |
|       8 | 0x2C22      |       11298 |
|       9 | 0x00C8      |         200 |
|      10 | 0x2C23      |       11299 |
|      11 | 0x003C      |          60 |
|      12 | 0x0050      |          80 |
|      13 | 0x2C24      |       11300 |
|      14 | 0x010E      |         270 |
|      15 | 0x2C25      |       11301 |
|      16 | 0x00AA      |         170 |
|      17 | 0x00BE      |         190 |
|      18 | 0x2C26      |       11302 |
|      19 | 0x0028      |          40 |
|      20 | 0x2C27      |       11303 |
|      21 | 0x0064      |         100 |
|      22 | 0x2C28      |       11304 |
|      23 | 0x2C29      |       11305 |

## String References

- **11297**: Thus does this chapter of your adventures with the Young Griffons draw to a close. Their tale, however, would continue for long after the Crystal War's end.
- **11298**: Excenmille led his Cardinal Stags northward across the seas to strike at the Orcish homeland.
- **11299**: Rahal returned to San d'Oria and strove to climb to the highest echelons of the Royal Knights.
- **11300**: Cyranuce sought the power of the dragon, that he might quell the torment of Machegue's death.
- **11301**: Yearning to explore his potential, Rholont embarked on a grueling journey of self-discovery.
- **11302**: And Bistillot's talents found a place to blossom within the ranks of the Iron Ram Engineers.
- **11303**: The chosen path of each Young Griffon would be fraught with myriad hardships.
- **11304**: But come what may, the memories of the triumphs and tragedies they tasted with you beside them shall forever stand tall as their beacon of strength.
- **11305**: A guiding light that burns as brilliantly as the stars in the night sky...

## Events

### Event 65535

#### Metadata

| Field        | Value   |
|--------------|---------|
| Entrypoint   | 0x0000  |
| Data Size    | 1 bytes |
| Instructions | 1       |

```
      00 01 02 03 04 05 06 07  08 09 0A 0B 0C 0D 0E 0F
      -- -- -- -- -- -- -- --  -- -- -- -- -- -- -- --
0000: 00                                                .               
```

#### Opcodes

```
  0: 0x0000 [0x00] END_REQSTACK()
```

### Event 65535.1

#### Metadata

| Field        | Value   |
|--------------|---------|
| Entrypoint   | 0x0001  |
| Data Size    | 1 bytes |
| Instructions | 1       |

```
      00 01 02 03 04 05 06 07  08 09 0A 0B 0C 0D 0E 0F
      -- -- -- -- -- -- -- --  -- -- -- -- -- -- -- --
0000:    00                                              .              
```

#### Opcodes

```
  0: 0x0001 [0x00] END_REQSTACK()
```

### Event 65535.2

#### Metadata

| Field        | Value    |
|--------------|----------|
| Entrypoint   | 0x0002   |
| Data Size    | 18 bytes |
| Instructions | 4        |

```
      00 01 02 03 04 05 06 07  08 09 0A 0B 0C 0D 0E 0F
      -- -- -- -- -- -- -- --  -- -- -- -- -- -- -- --
0000:       22 00 2F 00 F8 FF  FF 7F 6C F8 FF FF 7F 00    "./.....l.....
0010: 80 01 80 00                                       ....            
```

#### Opcodes

```
  0: 0x0002 [0x22] ENTITY_HIDE_FLAG(enabled=0x00)
  1: 0x0004 [0x2F] EventEntity->Render.Flags0 &= ~0x80000 // Bit 19
  2: 0x000A [0x6C] FADE_ENTITY_COLOR(entity_id=EventEntity, end_alpha=0*, fade_time=1*)
  3: 0x0013 [0x00] END_REQSTACK()
```

### Event 65535.3

#### Metadata

| Field        | Value    |
|--------------|----------|
| Entrypoint   | 0x0014   |
| Data Size    | 10 bytes |
| Instructions | 2        |

```
      00 01 02 03 04 05 06 07  08 09 0A 0B 0C 0D 0E 0F
      -- -- -- -- -- -- -- --  -- -- -- -- -- -- -- --
0010:             6C F8 FF FF  7F 02 80 01 80 00            l.........  
```

#### Opcodes

```
  0: 0x0014 [0x6C] FADE_ENTITY_COLOR(entity_id=EventEntity, end_alpha=128*, fade_time=1*)
  1: 0x001D [0x00] END_REQSTACK()
```

### Event 65535.4

#### Metadata

| Field        | Value   |
|--------------|---------|
| Entrypoint   | 0x001E  |
| Data Size    | 9 bytes |
| Instructions | 3       |

```
      00 01 02 03 04 05 06 07  08 09 0A 0B 0C 0D 0E 0F
      -- -- -- -- -- -- -- --  -- -- -- -- -- -- -- --
0010:                                            22 00                ".
0020: 2F 00 F8 FF FF 7F 00                              /......         
```

#### Opcodes

```
  0: 0x001E [0x22] ENTITY_HIDE_FLAG(enabled=0x00)
  1: 0x0020 [0x2F] EventEntity->Render.Flags0 &= ~0x80000 // Bit 19
  2: 0x0026 [0x00] END_REQSTACK()
```

### Event 65535.5

#### Metadata

| Field        | Value   |
|--------------|---------|
| Entrypoint   | 0x0027  |
| Data Size    | 9 bytes |
| Instructions | 3       |

```
      00 01 02 03 04 05 06 07  08 09 0A 0B 0C 0D 0E 0F
      -- -- -- -- -- -- -- --  -- -- -- -- -- -- -- --
0020:                      22  01 2F 01 F8 FF FF 7F 00         "./......
```

#### Opcodes

```
  0: 0x0027 [0x22] ENTITY_HIDE_FLAG(enabled=0x01)
  1: 0x0029 [0x2F] EventEntity->Render.Flags0 |= 0x80000 // Bit 19
  2: 0x002F [0x00] END_REQSTACK()
```

### Event 65535.6

#### Metadata

| Field        | Value    |
|--------------|----------|
| Entrypoint   | 0x0030   |
| Data Size    | 10 bytes |
| Instructions | 2        |

```
      00 01 02 03 04 05 06 07  08 09 0A 0B 0C 0D 0E 0F
      -- -- -- -- -- -- -- --  -- -- -- -- -- -- -- --
0030: 6C F8 FF FF 7F 00 80 01  80 00                    l.........      
```

#### Opcodes

```
  0: 0x0030 [0x6C] FADE_ENTITY_COLOR(entity_id=EventEntity, end_alpha=0*, fade_time=1*)
  1: 0x0039 [0x00] END_REQSTACK()
```

### Event 65535.7

#### Metadata

| Field        | Value    |
|--------------|----------|
| Entrypoint   | 0x003A   |
| Data Size    | 10 bytes |
| Instructions | 2        |

```
      00 01 02 03 04 05 06 07  08 09 0A 0B 0C 0D 0E 0F
      -- -- -- -- -- -- -- --  -- -- -- -- -- -- -- --
0030:                                6C F8 FF FF 7F 02            l.....
0040: 80 01 80 00                                       ....            
```

#### Opcodes

```
  0: 0x003A [0x6C] FADE_ENTITY_COLOR(entity_id=EventEntity, end_alpha=128*, fade_time=1*)
  1: 0x0043 [0x00] END_REQSTACK()
```

### Event 504

#### Metadata

| Field        | Value   |
|--------------|---------|
| Entrypoint   | 0x0044  |
| Data Size    | 1 bytes |
| Instructions | 1       |

```
      00 01 02 03 04 05 06 07  08 09 0A 0B 0C 0D 0E 0F
      -- -- -- -- -- -- -- --  -- -- -- -- -- -- -- --
0040:             00                                        .           
```

#### Opcodes

```
  0: 0x0044 [0x00] END_REQSTACK()
```

### Event 505

#### Metadata

| Field        | Value   |
|--------------|---------|
| Entrypoint   | 0x0045  |
| Data Size    | 1 bytes |
| Instructions | 1       |

```
      00 01 02 03 04 05 06 07  08 09 0A 0B 0C 0D 0E 0F
      -- -- -- -- -- -- -- --  -- -- -- -- -- -- -- --
0040:                00                                      .          
```

#### Opcodes

```
  0: 0x0045 [0x00] END_REQSTACK()
```

### Event 506

#### Metadata

| Field        | Value   |
|--------------|---------|
| Entrypoint   | 0x0046  |
| Data Size    | 1 bytes |
| Instructions | 1       |

```
      00 01 02 03 04 05 06 07  08 09 0A 0B 0C 0D 0E 0F
      -- -- -- -- -- -- -- --  -- -- -- -- -- -- -- --
0040:                   00                                    .         
```

#### Opcodes

```
  0: 0x0046 [0x00] END_REQSTACK()
```

### Event 507

#### Metadata

| Field        | Value   |
|--------------|---------|
| Entrypoint   | 0x0047  |
| Data Size    | 1 bytes |
| Instructions | 1       |

```
      00 01 02 03 04 05 06 07  08 09 0A 0B 0C 0D 0E 0F
      -- -- -- -- -- -- -- --  -- -- -- -- -- -- -- --
0040:                      00                                  .        
```

#### Opcodes

```
  0: 0x0047 [0x00] END_REQSTACK()
```

### Event 508

#### Metadata

| Field        | Value   |
|--------------|---------|
| Entrypoint   | 0x0048  |
| Data Size    | 1 bytes |
| Instructions | 1       |

```
      00 01 02 03 04 05 06 07  08 09 0A 0B 0C 0D 0E 0F
      -- -- -- -- -- -- -- --  -- -- -- -- -- -- -- --
0040:                          00                               .       
```

#### Opcodes

```
  0: 0x0048 [0x00] END_REQSTACK()
```

### Event 65535.8

#### Metadata

| Field        | Value   |
|--------------|---------|
| Entrypoint   | 0x0049  |
| Data Size    | 4 bytes |
| Instructions | 2       |

```
      00 01 02 03 04 05 06 07  08 09 0A 0B 0C 0D 0E 0F
      -- -- -- -- -- -- -- --  -- -- -- -- -- -- -- --
0040:                             1C 02 10 00                    ....   
```

#### Opcodes

```
  0: 0x0049 [0x1C] WAIT(Work_Zone[2] ticks)
  1: 0x004C [0x00] END_REQSTACK()
```

### Event 65535.9

#### Metadata

| Field        | Value    |
|--------------|----------|
| Entrypoint   | 0x004D   |
| Data Size    | 11 bytes |
| Instructions | 5        |

```
      00 01 02 03 04 05 06 07  08 09 0A 0B 0C 0D 0E 0F
      -- -- -- -- -- -- -- --  -- -- -- -- -- -- -- --
0040:                                         67 03 80               g..
0050: 04 80 48 05 80 23 23 00                           ..H..##.        
```

#### Opcodes

```
  0: 0x004D [0x67] HIDE_HUD_ELEMENTS(param1=0x8003, param2=0x8004)
  1: 0x0052 [0x48] [System] [11297*]:
    → "Thus does this chapter of your adventures with the Young Griffons draw to a close. Their tale, however, would continue for long after the Crystal War's end."
  2: 0x0055 [0x23] WAIT_FOR_DIALOG_INTERACTION
  3: 0x0056 [0x23] WAIT_FOR_DIALOG_INTERACTION
  4: 0x0057 [0x00] END_REQSTACK()
```

### Event 65535.10

#### Metadata

| Field        | Value    |
|--------------|----------|
| Entrypoint   | 0x0058   |
| Data Size    | 11 bytes |
| Instructions | 5        |

```
      00 01 02 03 04 05 06 07  08 09 0A 0B 0C 0D 0E 0F
      -- -- -- -- -- -- -- --  -- -- -- -- -- -- -- --
0050:                          67 06 80 07 80 48 08 80          g....H..
0060: 23 23 00                                          ##.             
```

#### Opcodes

```
  0: 0x0058 [0x67] HIDE_HUD_ELEMENTS(param1=0x8006, param2=0x8007)
  1: 0x005D [0x48] [System] [11298*]:
    → "Excenmille led his Cardinal Stags northward across the seas to strike at the Orcish homeland."
  2: 0x0060 [0x23] WAIT_FOR_DIALOG_INTERACTION
  3: 0x0061 [0x23] WAIT_FOR_DIALOG_INTERACTION
  4: 0x0062 [0x00] END_REQSTACK()
```

### Event 65535.11

#### Metadata

| Field        | Value    |
|--------------|----------|
| Entrypoint   | 0x0063   |
| Data Size    | 11 bytes |
| Instructions | 5        |

```
      00 01 02 03 04 05 06 07  08 09 0A 0B 0C 0D 0E 0F
      -- -- -- -- -- -- -- --  -- -- -- -- -- -- -- --
0060:          67 09 80 04 80  48 0A 80 23 23 00           g....H..##.  
```

#### Opcodes

```
  0: 0x0063 [0x67] HIDE_HUD_ELEMENTS(param1=0x8009, param2=0x8004)
  1: 0x0068 [0x48] [System] [11299*]:
    → "Rahal returned to San d'Oria and strove to climb to the highest echelons of the Royal Knights."
  2: 0x006B [0x23] WAIT_FOR_DIALOG_INTERACTION
  3: 0x006C [0x23] WAIT_FOR_DIALOG_INTERACTION
  4: 0x006D [0x00] END_REQSTACK()
```

### Event 65535.12

#### Metadata

| Field        | Value    |
|--------------|----------|
| Entrypoint   | 0x006E   |
| Data Size    | 11 bytes |
| Instructions | 5        |

```
      00 01 02 03 04 05 06 07  08 09 0A 0B 0C 0D 0E 0F
      -- -- -- -- -- -- -- --  -- -- -- -- -- -- -- --
0060:                                            67 0B                g.
0070: 80 0C 80 48 0D 80 23 23  00                       ...H..##.       
```

#### Opcodes

```
  0: 0x006E [0x67] HIDE_HUD_ELEMENTS(param1=0x800B, param2=0x800C)
  1: 0x0073 [0x48] [System] [11300*]:
    → "Cyranuce sought the power of the dragon, that he might quell the torment of Machegue's death."
  2: 0x0076 [0x23] WAIT_FOR_DIALOG_INTERACTION
  3: 0x0077 [0x23] WAIT_FOR_DIALOG_INTERACTION
  4: 0x0078 [0x00] END_REQSTACK()
```

### Event 65535.13

#### Metadata

| Field        | Value    |
|--------------|----------|
| Entrypoint   | 0x0079   |
| Data Size    | 11 bytes |
| Instructions | 5        |

```
      00 01 02 03 04 05 06 07  08 09 0A 0B 0C 0D 0E 0F
      -- -- -- -- -- -- -- --  -- -- -- -- -- -- -- --
0070:                             67 0E 80 04 80 48 0F           g....H.
0080: 80 23 23 00                                       .##.            
```

#### Opcodes

```
  0: 0x0079 [0x67] HIDE_HUD_ELEMENTS(param1=0x800E, param2=0x8004)
  1: 0x007E [0x48] [System] [11301*]:
    → "Yearning to explore his potential, Rholont embarked on a grueling journey of self-discovery."
  2: 0x0081 [0x23] WAIT_FOR_DIALOG_INTERACTION
  3: 0x0082 [0x23] WAIT_FOR_DIALOG_INTERACTION
  4: 0x0083 [0x00] END_REQSTACK()
```

### Event 65535.14

#### Metadata

| Field        | Value    |
|--------------|----------|
| Entrypoint   | 0x0084   |
| Data Size    | 11 bytes |
| Instructions | 5        |

```
      00 01 02 03 04 05 06 07  08 09 0A 0B 0C 0D 0E 0F
      -- -- -- -- -- -- -- --  -- -- -- -- -- -- -- --
0080:             67 10 80 11  80 48 12 80 23 23 00         g....H..##. 
```

#### Opcodes

```
  0: 0x0084 [0x67] HIDE_HUD_ELEMENTS(param1=0x8010, param2=0x8011)
  1: 0x0089 [0x48] [System] [11302*]:
    → "And Bistillot's talents found a place to blossom within the ranks of the Iron Ram Engineers."
  2: 0x008C [0x23] WAIT_FOR_DIALOG_INTERACTION
  3: 0x008D [0x23] WAIT_FOR_DIALOG_INTERACTION
  4: 0x008E [0x00] END_REQSTACK()
```

### Event 65535.15

#### Metadata

| Field        | Value    |
|--------------|----------|
| Entrypoint   | 0x008F   |
| Data Size    | 11 bytes |
| Instructions | 5        |

```
      00 01 02 03 04 05 06 07  08 09 0A 0B 0C 0D 0E 0F
      -- -- -- -- -- -- -- --  -- -- -- -- -- -- -- --
0080:                                               67                 g
0090: 13 80 04 80 48 14 80 23  23 00                    ....H..##.      
```

#### Opcodes

```
  0: 0x008F [0x67] HIDE_HUD_ELEMENTS(param1=0x8013, param2=0x8004)
  1: 0x0094 [0x48] [System] [11303*]:
    → "The chosen path of each Young Griffon would be fraught with myriad hardships."
  2: 0x0097 [0x23] WAIT_FOR_DIALOG_INTERACTION
  3: 0x0098 [0x23] WAIT_FOR_DIALOG_INTERACTION
  4: 0x0099 [0x00] END_REQSTACK()
```

### Event 65535.16

#### Metadata

| Field        | Value    |
|--------------|----------|
| Entrypoint   | 0x009A   |
| Data Size    | 11 bytes |
| Instructions | 5        |

```
      00 01 02 03 04 05 06 07  08 09 0A 0B 0C 0D 0E 0F
      -- -- -- -- -- -- -- --  -- -- -- -- -- -- -- --
0090:                                67 15 80 09 80 48            g....H
00A0: 16 80 23 23 00                                    ..##.           
```

#### Opcodes

```
  0: 0x009A [0x67] HIDE_HUD_ELEMENTS(param1=0x8015, param2=0x8009)
  1: 0x009F [0x48] [System] [11304*]:
    → "But come what may, the memories of the triumphs and tragedies they tasted with you beside them shall forever stand tall as their beacon of strength."
  2: 0x00A2 [0x23] WAIT_FOR_DIALOG_INTERACTION
  3: 0x00A3 [0x23] WAIT_FOR_DIALOG_INTERACTION
  4: 0x00A4 [0x00] END_REQSTACK()
```

### Event 65535.17

#### Metadata

| Field        | Value    |
|--------------|----------|
| Entrypoint   | 0x00A5   |
| Data Size    | 11 bytes |
| Instructions | 5        |

```
      00 01 02 03 04 05 06 07  08 09 0A 0B 0C 0D 0E 0F
      -- -- -- -- -- -- -- --  -- -- -- -- -- -- -- --
00A0:                67 03 80  04 80 48 17 80 23 23 00       g....H..##.
```

#### Opcodes

```
  0: 0x00A5 [0x67] HIDE_HUD_ELEMENTS(param1=0x8003, param2=0x8004)
  1: 0x00AA [0x48] [System] [11305*]:
    → "A guiding light that burns as brilliantly as the stars in the night sky..."
  2: 0x00AD [0x23] WAIT_FOR_DIALOG_INTERACTION
  3: 0x00AE [0x23] WAIT_FOR_DIALOG_INTERACTION
  4: 0x00AF [0x00] END_REQSTACK()
```
