# 17207900

## Common Data

| Field            | Value                    |
|------------------|--------------------------|
| Zone             | Batallia Downs (ID: 105) |
| Block Size       | 24524 bytes              |
| Total Events     | 6                        |
| References Count | 535                      |

## List of Events

| Event ID              | Entrypoint   |   Size |   Instructions |
|-----------------------|--------------|--------|----------------|
| [65535](#event-65535) | 0x0000       |    658 |             62 |
| [504](#event-504)     | 0x0292       |  14271 |           1580 |
| [505](#event-505)     | 0x3A51       |   1578 |            227 |
| [506](#event-506)     | 0x407B       |   2701 |            358 |
| [507](#event-507)     | 0x4B08       |   1790 |            238 |
| [508](#event-508)     | 0x5206       |   1343 |            178 |

## DAT References (imed_data)

|   Index | Hex Value   |   Dec Value |
|---------|-------------|-------------|
|       0 | 0x00C8      |         200 |
|       1 | 0x0000      |           0 |
|       2 | 0x00C9      |         201 |
|       3 | 0x0001      |           1 |
|       4 | 0x002D      |          45 |
|       5 | 0x0002      |           2 |
|       6 | 0x001E      |          30 |
|       7 | 0x00D7      |         215 |
|       8 | 0x0013      |          19 |
|       9 | 0xFFFECECB  |  4294889163 |
|      10 | 0x6B5EA     |      439786 |
|      11 | 0x0063      |          99 |
|      12 | 0xFFFF3DB6  |  4294917558 |
|      13 | 0x6A8A7     |      436391 |
|      14 | 0x0112      |         274 |
|      15 | 0x0802      |        2050 |
|      16 | 0xFFFF3D41  |  4294917441 |
|      17 | 0x6ADBD     |      437693 |
|      18 | 0x0122      |         290 |
|      19 | 0x076C      |        1900 |
|      20 | 0xFFFF3CA8  |  4294917288 |
|      21 | 0x6BB75     |      441205 |
|      22 | 0x012A      |         298 |
|      23 | 0x034B      |         843 |
|      24 | 0xFFFF2FB0  |  4294913968 |
|      25 | 0x6B7E5     |      440293 |
|      26 | 0x0210      |         528 |
|      27 | 0x07D0      |        2000 |
|      28 | 0xFFFE906A  |  4294873194 |
|      29 | 0x6AF57     |      438103 |
|      30 | 0x025E      |         606 |
|      31 | 0x0FA4      |        4004 |
|      32 | 0xFFFF333F  |  4294914879 |
|      33 | 0x6A97D     |      436605 |
|      34 | 0x01B4      |         436 |
|      35 | 0x0FE8      |        4072 |
|      36 | 0x0599      |        1433 |
|      37 | 0x0BAC      |        2988 |
|      38 | 0x0014      |          20 |
|      39 | 0x0028      |          40 |
|      40 | 0x01F2      |         498 |
|      41 | 0x00B4      |         180 |
|      42 | 0x0008      |           8 |
|      43 | 0x0078      |         120 |
|      44 | 0x2BDC      |       11228 |
|      45 | 0x000A      |          10 |
|      46 | 0x0B50      |        2896 |
|      47 | 0x2BDD      |       11229 |
|      48 | 0x2BDE      |       11230 |
|      49 | 0x2BDF      |       11231 |
|      50 | 0x0003      |           3 |
|      51 | 0x0004      |           4 |
|      52 | 0x0005      |           5 |
|      53 | 0x0006      |           6 |
|      54 | 0x0007      |           7 |
|      55 | 0x00A0      |         160 |
|      56 | 0x2BE0      |       11232 |
|      57 | 0x0019      |          25 |
|      58 | 0x2BE1      |       11233 |
|      59 | 0x2BE2      |       11234 |
|      60 | 0x00FA      |         250 |
|      61 | 0x0065      |         101 |
|      62 | 0x2BE3      |       11235 |
|      63 | 0x005A      |          90 |
|      64 | 0x3DF0      |       15856 |
|      65 | 0x2BE4      |       11236 |
|      66 | 0x0027      |          39 |
|      67 | 0x2BE6      |       11238 |
|      68 | 0x2BE7      |       11239 |
|      69 | 0xFFFF228E  |  4294910606 |
|      70 | 0x6AD65     |      437605 |
|      71 | 0x0342      |         834 |
|      72 | 0x087F      |        2175 |
|      73 | 0x0032      |          50 |
|      74 | 0x0064      |         100 |
|      75 | 0xFFFF1B26  |  4294908710 |
|      76 | 0x6B2EC     |      439020 |
|      77 | 0x03A0      |         928 |
|      78 | 0x003C      |          60 |
|      79 | 0xFFFF3E25  |  4294917669 |
|      80 | 0x6B0B4     |      438452 |
|      81 | 0x0117      |         279 |
|      82 | 0x0097      |         151 |
|      83 | 0xFFFE93E5  |  4294874085 |
|      84 | 0x6AFB4     |      438196 |
|      85 | 0x0204      |         516 |
|      86 | 0x0046      |          70 |
|      87 | 0xFFFF0F09  |  4294905609 |
|      88 | 0x6B0B1     |      438449 |
|      89 | 0x0393      |         915 |
|      90 | 0x0FE1      |        4065 |
|      91 | 0x0096      |         150 |
|      92 | 0xFFFF38F3  |  4294916339 |
|      93 | 0x6A3F1     |      435185 |
|      94 | 0x00D6      |         214 |
|      95 | 0x008C      |         140 |
|      96 | 0x0054      |          84 |
|      97 | 0x00FF      |         255 |
|      98 | 0x000F      |          15 |
|      99 | 0xFFFF37C6  |  4294916038 |
|     100 | 0x6AA67     |      436839 |
|     101 | 0x0168      |         360 |
|     102 | 0x0062      |          98 |
|     103 | 0xFFFF34BF  |  4294915263 |
|     104 | 0x6B3FB     |      439291 |
|     105 | 0x018F      |         399 |
|     106 | 0x0811      |        2065 |
|     107 | 0xFFFF33B8  |  4294915000 |
|     108 | 0x6BAA6     |      440998 |
|     109 | 0x019C      |         412 |
|     110 | 0xFFFF0E3E  |  4294905406 |
|     111 | 0x6B073     |      438387 |
|     112 | 0x0389      |         905 |
|     113 | 0x05DC      |        1500 |
|     114 | 0xFFFEF68F  |  4294899343 |
|     115 | 0x6B513     |      439571 |
|     116 | 0x0408      |        1032 |
|     117 | 0xFFFF4FA5  |  4294922149 |
|     118 | 0x6AAB7     |      436919 |
|     119 | 0x0038      |          56 |
|     120 | 0x0800      |        2048 |
|     121 | 0xFFFF0286  |  4294902406 |
|     122 | 0x6ABC4     |      437188 |
|     123 | 0x02C4      |         708 |
|     124 | 0x0E99      |        3737 |
|     125 | 0xFFFEF426  |  4294898726 |
|     126 | 0x6ABDE     |      437214 |
|     127 | 0x0171      |         369 |
|     128 | 0x0C67      |        3175 |
|     129 | 0xFFFF0036  |  4294901814 |
|     130 | 0x6BE18     |      441880 |
|     131 | 0x0288      |         648 |
|     132 | 0x044C      |        1100 |
|     133 | 0xFFFEF95E  |  4294900062 |
|     134 | 0x6BF11     |      442129 |
|     135 | 0x01D8      |         472 |
|     136 | 0x03A6      |         934 |
|     137 | 0xFFFED9B9  |  4294891961 |
|     138 | 0x6A81C     |      436252 |
|     139 | 0x0020      |          32 |
|     140 | 0x0FF6      |        4086 |
|     141 | 0xFFFEE1B4  |  4294894004 |
|     142 | 0x6AC79     |      437369 |
|     143 | 0x0086      |         134 |
|     144 | 0x065A      |        1626 |
|     145 | 0xFFFEE3D0  |  4294894544 |
|     146 | 0x6A3FC     |      435196 |
|     147 | 0xFFFFFF97  |  4294967191 |
|     148 | 0x07EC      |        2028 |
|     149 | 0xFFFEED8B  |  4294897035 |
|     150 | 0x6C30F     |      443151 |
|     151 | 0x011D      |         285 |
|     152 | 0x0728      |        1832 |
|     153 | 0xFFFEE63F  |  4294895167 |
|     154 | 0x6BE4E     |      441934 |
|     155 | 0x00C0      |         192 |
|     156 | 0xFFFEC1B8  |  4294885816 |
|     157 | 0x6B880     |      440448 |
|     158 | 0x0AF0      |        2800 |
|     159 | 0xFFFEBC4B  |  4294884427 |
|     160 | 0x6C089     |      442505 |
|     161 | 0x02D8      |         728 |
|     162 | 0xFFFECAA4  |  4294888100 |
|     163 | 0x6C0B2     |      442546 |
|     164 | 0x0061      |          97 |
|     165 | 0xFFFEF2FE  |  4294898430 |
|     166 | 0x6BCF5     |      441589 |
|     167 | 0x0162      |         354 |
|     168 | 0xFFFECF1D  |  4294889245 |
|     169 | 0x6AF82     |      438146 |
|     170 | 0xFFFEC305  |  4294886149 |
|     171 | 0x6B095     |      438421 |
|     172 | 0xFFFEDD47  |  4294892871 |
|     173 | 0x6C1DF     |      442847 |
|     174 | 0x004D      |          77 |
|     175 | 0x0A28      |        2600 |
|     176 | 0xFFFED49D  |  4294890653 |
|     177 | 0x6C182     |      442754 |
|     178 | 0xFFFF0BA7  |  4294904743 |
|     179 | 0x6A90C     |      436492 |
|     180 | 0x0368      |         872 |
|     181 | 0x00CF      |         207 |
|     182 | 0x00D0      |         208 |
|     183 | 0x00FC      |         252 |
|     184 | 0x04F8      |        1272 |
|     185 | 0x001D      |          29 |
|     186 | 0x00AA      |         170 |
|     187 | 0x059E      |        1438 |
|     188 | 0x2BE8      |       11240 |
|     189 | 0x2BE9      |       11241 |
|     190 | 0x2BEA      |       11242 |
|     191 | 0xFFFF1EA1  |  4294909601 |
|     192 | 0x6B7C9     |      440265 |
|     193 | 0x0374      |         884 |
|     194 | 0xFFFF2080  |  4294910080 |
|     195 | 0x6C17F     |      442751 |
|     196 | 0x035C      |         860 |
|     197 | 0xFFFF29C0  |  4294912448 |
|     198 | 0x6C70E     |      444174 |
|     199 | 0x0237      |         567 |
|     200 | 0xFFFF1463  |  4294906979 |
|     201 | 0x6C355     |      443221 |
|     202 | 0x03D7      |         983 |
|     203 | 0xFFFF137B  |  4294906747 |
|     204 | 0x6BA80     |      440960 |
|     205 | 0x03CB      |         971 |
|     206 | 0xFFFEFE4E  |  4294901326 |
|     207 | 0x6C1F4     |      442868 |
|     208 | 0x0257      |         599 |
|     209 | 0xFFFF09D3  |  4294904275 |
|     210 | 0x6B1CF     |      438735 |
|     211 | 0x0350      |         848 |
|     212 | 0xFFFF1D68  |  4294909288 |
|     213 | 0x6C8DC     |      444636 |
|     214 | 0x01BB      |         443 |
|     215 | 0xFFFF0A02  |  4294904322 |
|     216 | 0x6C3ED     |      443373 |
|     217 | 0x0353      |         851 |
|     218 | 0xFFFF0571  |  4294903153 |
|     219 | 0x6BB45     |      441157 |
|     220 | 0x030E      |         782 |
|     221 | 0x2BEB      |       11243 |
|     222 | 0x2BEC      |       11244 |
|     223 | 0x2BED      |       11245 |
|     224 | 0x2BEE      |       11246 |
|     225 | 0x2BEF      |       11247 |
|     226 | 0x2BF0      |       11248 |
|     227 | 0x2BF1      |       11249 |
|     228 | 0x2BF2      |       11250 |
|     229 | 0x2BF3      |       11251 |
|     230 | 0x2BF4      |       11252 |
|     231 | 0x2BF5      |       11253 |
|     232 | 0x2BF6      |       11254 |
|     233 | 0x2BF7      |       11255 |
|     234 | 0x2BF8      |       11256 |
|     235 | 0x2BF9      |       11257 |
|     236 | 0xFFFF36E9  |  4294915817 |
|     237 | 0x6BE4A     |      441930 |
|     238 | 0x0173      |         371 |
|     239 | 0x2BFA      |       11258 |
|     240 | 0x2BFB      |       11259 |
|     241 | 0x0080      |         128 |
|     242 | 0x2BFC      |       11260 |
|     243 | 0x0015      |          21 |
|     244 | 0x2BFD      |       11261 |
|     245 | 0x0C5D      |        3165 |
|     246 | 0x2BFE      |       11262 |
|     247 | 0xFFFF378D  |  4294915981 |
|     248 | 0x69FC1     |      434113 |
|     249 | 0x0812      |        2066 |
|     250 | 0xFFFF2F24  |  4294913828 |
|     251 | 0x6AA39     |      436793 |
|     252 | 0x021F      |         543 |
|     253 | 0x0226      |         550 |
|     254 | 0x2BFF      |       11263 |
|     255 | 0x2C00      |       11264 |
|     256 | 0x0C5E      |        3166 |
|     257 | 0x0099      |         153 |
|     258 | 0x2C01      |       11265 |
|     259 | 0x0069      |         105 |
|     260 | 0xFFFE9BE0  |  4294876128 |
|     261 | 0x6F2E6     |      455398 |
|     262 | 0xFFFFEC4A  |  4294962250 |
|     263 | 0x0F42      |        3906 |
|     264 | 0xFFFF1579  |  4294907257 |
|     265 | 0x6AAA1     |      436897 |
|     266 | 0x03E5      |         997 |
|     267 | 0xFFFF361E  |  4294915614 |
|     268 | 0x6A8B4     |      436404 |
|     269 | 0x0176      |         374 |
|     270 | 0x08FC      |        2300 |
|     271 | 0x0597      |        1431 |
|     272 | 0x2C02      |       11266 |
|     273 | 0x2C03      |       11267 |
|     274 | 0x2C04      |       11268 |
|     275 | 0x2C05      |       11269 |
|     276 | 0x007D      |         125 |
|     277 | 0xFFFF2202  |  4294910466 |
|     278 | 0x6AC59     |      437337 |
|     279 | 0x0349      |         841 |
|     280 | 0x0C1A      |        3098 |
|     281 | 0xFFFF20E3  |  4294910179 |
|     282 | 0x6ACE5     |      437477 |
|     283 | 0x0B54      |        2900 |
|     284 | 0x2C06      |       11270 |
|     285 | 0x2C07      |       11271 |
|     286 | 0xFFFF33B9  |  4294915001 |
|     287 | 0x6A6BE     |      435902 |
|     288 | 0x0186      |         390 |
|     289 | 0x0C39      |        3129 |
|     290 | 0xFFFF37AE  |  4294916014 |
|     291 | 0x6B084     |      438404 |
|     292 | 0x0169      |         361 |
|     293 | 0xFFFF3E7B  |  4294917755 |
|     294 | 0x6BA01     |      440833 |
|     295 | 0x0113      |         275 |
|     296 | 0xFFFF2851  |  4294912081 |
|     297 | 0x6B55E     |      439646 |
|     298 | 0x02CE      |         718 |
|     299 | 0xFFFF27AA  |  4294911914 |
|     300 | 0x6BB5D     |      441181 |
|     301 | 0x02DF      |         735 |
|     302 | 0xFFFF21EA  |  4294910442 |
|     303 | 0x6ADEE     |      437742 |
|     304 | 0x034A      |         842 |
|     305 | 0x0009      |           9 |
|     306 | 0x0022      |          34 |
|     307 | 0x2C08      |       11272 |
|     308 | 0x057E      |        1406 |
|     309 | 0x2C09      |       11273 |
|     310 | 0x2C0A      |       11274 |
|     311 | 0x2C0B      |       11275 |
|     312 | 0x2C0C      |       11276 |
|     313 | 0x2C0D      |       11277 |
|     314 | 0x2C0E      |       11278 |
|     315 | 0x2C0F      |       11279 |
|     316 | 0x2C10      |       11280 |
|     317 | 0x2C11      |       11281 |
|     318 | 0x0A63      |        2659 |
|     319 | 0x2C12      |       11282 |
|     320 | 0x2C13      |       11283 |
|     321 | 0x2C14      |       11284 |
|     322 | 0x2C15      |       11285 |
|     323 | 0x2C16      |       11286 |
|     324 | 0x2C17      |       11287 |
|     325 | 0x2C18      |       11288 |
|     326 | 0x055A      |        1370 |
|     327 | 0x0BAE      |        2990 |
|     328 | 0x0513      |        1299 |
|     329 | 0x2C19      |       11289 |
|     330 | 0x2C1A      |       11290 |
|     331 | 0x04F9      |        1273 |
|     332 | 0x2C1B      |       11291 |
|     333 | 0x2C1C      |       11292 |
|     334 | 0x2C1D      |       11293 |
|     335 | 0x2C1E      |       11294 |
|     336 | 0x0BAF      |        2991 |
|     337 | 0x2C1F      |       11295 |
|     338 | 0x2C20      |       11296 |
|     339 | 0x092D      |        2349 |
|     340 | 0x012C      |         300 |
|     341 | 0x0072      |         114 |
|     342 | 0x0050      |          80 |
|     343 | 0x0012      |          18 |
|     344 | 0xFFFD20F3  |  4294779123 |
|     345 | 0xB46D      |       46189 |
|     346 | 0xFFFFFC18  |  4294966296 |
|     347 | 0x0578      |        1400 |
|     348 | 0xFFFD54D5  |  4294792405 |
|     349 | 0x7A9A      |       31386 |
|     350 | 0xFFFFFC19  |  4294966297 |
|     351 | 0x0992      |        2450 |
|     352 | 0xFFFD4A27  |  4294789671 |
|     353 | 0x738C      |       29580 |
|     354 | 0xFFFD528B  |  4294791819 |
|     355 | 0x73E5      |       29669 |
|     356 | 0xFFFD19EA  |  4294777322 |
|     357 | 0xADF8      |       44536 |
|     358 | 0x0D7A      |        3450 |
|     359 | 0x195C6     |      103878 |
|     360 | 0xFFFF5085  |  4294922373 |
|     361 | 0x03E8      |        1000 |
|     362 | 0x09C6      |        2502 |
|     363 | 0x19224     |      102948 |
|     364 | 0xFFFF3FEB  |  4294918123 |
|     365 | 0x09AD      |        2477 |
|     366 | 0x1909D     |      102557 |
|     367 | 0xFFFF5855  |  4294924373 |
|     368 | 0x09C4      |        2500 |
|     369 | 0x18873     |      100467 |
|     370 | 0xFFFF4A42  |  4294920770 |
|     371 | 0x18792     |      100242 |
|     372 | 0xFFFF5C18  |  4294925336 |
|     373 | 0x17B08     |       97032 |
|     374 | 0xFFFF5325  |  4294923045 |
|     375 | 0x1720E     |       94734 |
|     376 | 0xFFFF4688  |  4294919816 |
|     377 | 0x0DAC      |        3500 |
|     378 | 0x177D7     |       96215 |
|     379 | 0xFFFF3E73  |  4294917747 |
|     380 | 0x16C0B     |       93195 |
|     381 | 0xFFFF4C73  |  4294921331 |
|     382 | 0x00F8      |         248 |
|     383 | 0x015E      |         350 |
|     384 | 0x0089      |         137 |
|     385 | 0x000C      |          12 |
|     386 | 0x525EC     |      337388 |
|     387 | 0xFFFCCD13  |  4294757651 |
|     388 | 0x1EEC      |        7916 |
|     389 | 0x0F39      |        3897 |
|     390 | 0x51681     |      333441 |
|     391 | 0xFFFCBD87  |  4294753671 |
|     392 | 0x1D27      |        7463 |
|     393 | 0x508E7     |      329959 |
|     394 | 0xFFFCC61C  |  4294755868 |
|     395 | 0x1FCE      |        8142 |
|     396 | 0x5030C     |      328460 |
|     397 | 0xFFFCB3EF  |  4294751215 |
|     398 | 0x1CB2      |        7346 |
|     399 | 0x50660     |      329312 |
|     400 | 0xFFFCD3EF  |  4294759407 |
|     401 | 0x20D6      |        8406 |
|     402 | 0x4ED1F     |      322847 |
|     403 | 0xFFFCA75C  |  4294747996 |
|     404 | 0x1E37      |        7735 |
|     405 | 0x0F3A      |        3898 |
|     406 | 0x4E54B     |      320843 |
|     407 | 0xFFFCBBBE  |  4294753214 |
|     408 | 0x2172      |        8562 |
|     409 | 0x4EDBD     |      323005 |
|     410 | 0xFFFCD235  |  4294758965 |
|     411 | 0x2007      |        8199 |
|     412 | 0x50ADC     |      330460 |
|     413 | 0xFFFC9662  |  4294743650 |
|     414 | 0x1CE1      |        7393 |
|     415 | 0x090C      |        2316 |
|     416 | 0x098E      |        2446 |
|     417 | 0x0082      |         130 |
|     418 | 0x00F0      |         240 |
|     419 | 0x05D2      |        1490 |
|     420 | 0x05A0      |        1440 |
|     421 | 0x0051      |          81 |
|     422 | 0x21D95     |      138645 |
|     423 | 0x463FE     |      287742 |
|     424 | 0xFFFF1640  |  4294907456 |
|     425 | 0x0EAD      |        3757 |
|     426 | 0x22F6C     |      143212 |
|     427 | 0x46E41     |      290369 |
|     428 | 0xFFFF1668  |  4294907496 |
|     429 | 0x0690      |        1680 |
|     430 | 0x23E2E     |      146990 |
|     431 | 0x48774     |      296820 |
|     432 | 0xFFFF163E  |  4294907454 |
|     433 | 0x05AA      |        1450 |
|     434 | 0x1F902     |      129282 |
|     435 | 0x45A91     |      285329 |
|     436 | 0xFFFF172C  |  4294907692 |
|     437 | 0x0F45      |        3909 |
|     438 | 0x20D8C     |      134540 |
|     439 | 0x483C4     |      295876 |
|     440 | 0xFFFF15C8  |  4294907336 |
|     441 | 0x216E4     |      136932 |
|     442 | 0x472E0     |      291552 |
|     443 | 0xFFFF161D  |  4294907421 |
|     444 | 0x0F44      |        3908 |
|     445 | 0x2015E     |      131422 |
|     446 | 0x46395     |      287637 |
|     447 | 0xFFFF167A  |  4294907514 |
|     448 | 0x0F49      |        3913 |
|     449 | 0x230E8     |      143592 |
|     450 | 0x48390     |      295824 |
|     451 | 0xFFFF164F  |  4294907471 |
|     452 | 0x0258      |         600 |
|     453 | 0x0514      |        1300 |
|     454 | 0x05D6      |        1494 |
|     455 | 0x0BD9      |        3033 |
|     456 | 0x0A9F      |        2719 |
|     457 | 0x0959      |        2393 |
|     458 | 0x0900      |        2304 |
|     459 | 0x08D2      |        2258 |
|     460 | 0x00E6      |         230 |
|     461 | 0xFFFC4E0F  |  4294725135 |
|     462 | 0x62CAD     |      404653 |
|     463 | 0x6068      |       24680 |
|     464 | 0x06DB      |        1755 |
|     465 | 0xFFFC484C  |  4294723660 |
|     466 | 0x62914     |      403732 |
|     467 | 0x6039      |       24633 |
|     468 | 0x098A      |        2442 |
|     469 | 0x0010      |          16 |
|     470 | 0xFFFD392B  |  4294785323 |
|     471 | 0xE2BD      |       58045 |
|     472 | 0xFFFFF769  |  4294965097 |
|     473 | 0x0815      |        2069 |
|     474 | 0xFFFD8753  |  4294805331 |
|     475 | 0xE4E7      |       58599 |
|     476 | 0xFFFFF830  |  4294965296 |
|     477 | 0x0A50      |        2640 |
|     478 | 0xFFFD99E4  |  4294810084 |
|     479 | 0xDEF8      |       57080 |
|     480 | 0xFFFFF831  |  4294965297 |
|     481 | 0x0960      |        2400 |
|     482 | 0xFFFD8DD1  |  4294806993 |
|     483 | 0xE42E      |       58414 |
|     484 | 0xFFFD8B05  |  4294806277 |
|     485 | 0xEA1F      |       59935 |
|     486 | 0x05D7      |        1495 |
|     487 | 0xFFFD23E0  |  4294779872 |
|     488 | 0xA1A2      |       41378 |
|     489 | 0x0259      |         601 |
|     490 | 0x0190      |         400 |
|     491 | 0x0059      |          89 |
|     492 | 0xFFFE8D6D  |  4294872429 |
|     493 | 0x80C71     |      527473 |
|     494 | 0xFFFFC196  |  4294951318 |
|     495 | 0x01A3      |         419 |
|     496 | 0xFFFE909E  |  4294873246 |
|     497 | 0x7EAB1     |      518833 |
|     498 | 0xFFFFC403  |  4294951939 |
|     499 | 0x082D      |        2093 |
|     500 | 0xFFFE4CDF  |  4294855903 |
|     501 | 0x805A6     |      525734 |
|     502 | 0xFFFFC24E  |  4294951502 |
|     503 | 0x01A4      |         420 |
|     504 | 0xFFFE4D16  |  4294855958 |
|     505 | 0x7FD92     |      523666 |
|     506 | 0xFFFFC1FE  |  4294951422 |
|     507 | 0x0BF2      |        3058 |
|     508 | 0xFFFE9F4A  |  4294877002 |
|     509 | 0x7E84D     |      518221 |
|     510 | 0xFFFFC2CE  |  4294951630 |
|     511 | 0x0912      |        2322 |
|     512 | 0xFFFE91C0  |  4294873536 |
|     513 | 0x7E519     |      517401 |
|     514 | 0xFFFFC3BF  |  4294951871 |
|     515 | 0x0B32      |        2866 |
|     516 | 0xFFFEBE35  |  4294884917 |
|     517 | 0x806F1     |      526065 |
|     518 | 0xFFFFC2F8  |  4294951672 |
|     519 | 0x08DD      |        2269 |
|     520 | 0xFFFEB6B1  |  4294882993 |
|     521 | 0x7F913     |      522515 |
|     522 | 0xFFFFC180  |  4294951296 |
|     523 | 0x0D03      |        3331 |
|     524 | 0xFFFEB9AF  |  4294883759 |
|     525 | 0x7FF2C     |      524076 |
|     526 | 0x04F3      |        1267 |
|     527 | 0xFFFE5530  |  4294858032 |
|     528 | 0x81EBA     |      532154 |
|     529 | 0xFFFFC4F9  |  4294952185 |
|     530 | 0x0FF7      |        4087 |
|     531 | 0x4D015     |      315413 |
|     532 | 0xFFFC907E  |  4294742142 |
|     533 | 0x2157      |        8535 |
|     534 | 0x05E0      |        1504 |

## String References

- **11264**: Send Zogbog flying with a... [Blistering punch./Brutal kick.]

## Events

### Event 65535

#### Metadata

| Field        | Value     |
|--------------|-----------|
| Entrypoint   | 0x0000    |
| Data Size    | 658 bytes |
| Instructions | 1         |

```
      00 01 02 03 04 05 06 07  08 09 0A 0B 0C 0D 0E 0F
      -- -- -- -- -- -- -- --  -- -- -- -- -- -- -- --
0000: 00 45 00 80 F0 FF FF 7F  F0 FF FF 7F 66 64 69 30  .E..........fdi0
0010: 01 80 55 00 80 F0 FF FF  7F F0 FF FF 7F 66 64 69  ..U..........fdi
0020: 30 1B 45 00 80 F0 FF FF  7F F0 FF FF 7F 66 64 6F  0.E..........fdo
0030: 30 01 80 55 00 80 F0 FF  FF 7F F0 FF FF 7F 66 64  0..U..........fd
0040: 6F 30 1B 45 00 80 F0 FF  FF 7F F0 FF FF 7F 66 64  o0.E..........fd
0050: 69 31 01 80 55 00 80 F0  FF FF 7F F0 FF FF 7F 66  i1..U..........f
0060: 64 69 31 1B 45 00 80 F0  FF FF 7F F0 FF FF 7F 66  di1.E..........f
0070: 64 6F 31 01 80 55 00 80  F0 FF FF 7F F0 FF FF 7F  do1..U..........
0080: 66 64 6F 31 1B 45 02 80  F0 FF FF 7F F0 FF FF 7F  fdo1.E..........
0090: 77 68 69 31 01 80 55 02  80 F0 FF FF 7F F0 FF FF  whi1..U.........
00A0: 7F 77 68 69 31 1B 45 02  80 F0 FF FF 7F F0 FF FF  .whi1.E.........
00B0: 7F 77 68 6F 31 01 80 55  02 80 F0 FF FF 7F F0 FF  .who1..U........
00C0: FF 7F 77 68 6F 31 1B 45  02 80 F0 FF FF 7F F0 FF  ..who1.E........
00D0: FF 7F 77 68 6F 32 01 80  55 02 80 F0 FF FF 7F F0  ..who2..U.......
00E0: FF FF 7F 77 68 6F 32 1B  45 02 80 F0 FF FF 7F F0  ...who2.E.......
00F0: FF FF 7F 77 68 6F 33 01  80 55 02 80 F0 FF FF 7F  ...who3..U......
0100: F0 FF FF 7F 77 68 6F 33  1B 62 03 80 F0 FF FF 7F  ....who3.b......
0110: F0 FF FF 7F 6D 61 69 6E  01 80 1C 04 80 45 00 80  ....main.....E..
0120: F0 FF FF 7F F0 FF FF 7F  66 64 6F 31 01 80 55 00  ........fdo1..U.
0130: 80 F0 FF FF 7F F0 FF FF  7F 66 64 6F 31 1B 45 00  .........fdo1.E.
0140: 80 F0 FF FF 7F F0 FF FF  7F 66 64 69 31 01 80 62  .........fdi1..b
0150: 05 80 F0 FF FF 7F F0 FF  FF 7F 6D 61 69 6E 01 80  ..........main..
0160: 1C 06 80 55 00 80 F0 FF  FF 7F F0 FF FF 7F 66 64  ...U..........fd
0170: 69 31 1B 45 00 80 F0 FF  FF 7F F0 FF FF 7F 62 6C  i1.E..........bl
0180: 6F 6E 01 80 45 02 80 F0  FF FF 7F F0 FF FF 7F 62  on..E..........b
0190: 6C 6F 6E 01 80 1B 45 02  80 F0 FF FF 7F F0 FF FF  lon...E.........
01A0: 7F 77 68 69 30 01 80 55  02 80 F0 FF FF 7F F0 FF  .whi0..U........
01B0: FF 7F 77 68 69 30 1B 45  02 80 F0 FF FF 7F F0 FF  ..whi0.E........
01C0: FF 7F 77 68 6F 30 01 80  55 02 80 F0 FF FF 7F F0  ..who0..U.......
01D0: FF FF 7F 77 68 6F 30 1B  45 07 80 F0 FF FF 7F F0  ...who0.E.......
01E0: FF FF 7F 65 66 6F 6E 01  80 55 07 80 F0 FF FF 7F  ...efon..U......
01F0: F0 FF FF 7F 65 66 6F 6E  1B 45 00 80 F0 FF FF 7F  ....efon.E......
0200: F0 FF FF 7F 66 64 69 73  01 80 1B 45 00 80 F0 FF  ....fdis...E....
0210: FF 7F F0 FF FF 7F 66 64  6F 73 01 80 55 00 80 F0  ......fdos..U...
0220: FF FF 7F F0 FF FF 7F 66  64 6F 73 1B 45 00 80 F0  .......fdos.E...
0230: FF FF 7F F0 FF FF 7F 66  64 69 66 01 80 1B 45 00  .......fdif...E.
0240: 80 F0 FF FF 7F F0 FF FF  7F 66 64 6F 66 01 80 55  .........fdof..U
0250: 00 80 F0 FF FF 7F F0 FF  FF 7F 66 64 6F 66 1B 45  ..........fdof.E
0260: 00 80 F0 FF FF 7F F0 FF  FF 7F 66 64 69 70 01 80  ..........fdip..
0270: 1B 45 00 80 F0 FF FF 7F  F0 FF FF 7F 66 64 6F 70  .E..........fdop
0280: 01 80 55 00 80 F0 FF FF  7F F0 FF FF 7F 66 64 6F  ..U..........fdo
0290: 70 1B                                             p.              
```

#### Opcodes

```
  0: 0x0000 [0x00] END_REQSTACK()
```

#### Data or dead code:

```
# Dead code (unreachable instructions):
     0x0001 [0x45] LOAD_SCHEDULED_TASK: Load scheduler "fdi0" with entities [LocalPlayer, LocalPlayer], work=[200*, 0*]
     0x0012 [0x55] WAIT_LOAD_SCHEDULER: Wait for scheduler "fdi0" with entities [LocalPlayer, LocalPlayer], work=200*
     0x0021 [0x1B] RETURN
     0x0022 [0x45] LOAD_SCHEDULED_TASK: Load scheduler "fdo0" with entities [LocalPlayer, LocalPlayer], work=[200*, 0*]
     0x0033 [0x55] WAIT_LOAD_SCHEDULER: Wait for scheduler "fdo0" with entities [LocalPlayer, LocalPlayer], work=200*
     0x0042 [0x1B] RETURN
     0x0043 [0x45] LOAD_SCHEDULED_TASK: Load scheduler "fdi1" with entities [LocalPlayer, LocalPlayer], work=[200*, 0*]
     0x0054 [0x55] WAIT_LOAD_SCHEDULER: Wait for scheduler "fdi1" with entities [LocalPlayer, LocalPlayer], work=200*
     0x0063 [0x1B] RETURN
     0x0064 [0x45] LOAD_SCHEDULED_TASK: Load scheduler "fdo1" with entities [LocalPlayer, LocalPlayer], work=[200*, 0*]
     0x0075 [0x55] WAIT_LOAD_SCHEDULER: Wait for scheduler "fdo1" with entities [LocalPlayer, LocalPlayer], work=200*
     0x0084 [0x1B] RETURN
     0x0085 [0x45] LOAD_SCHEDULED_TASK: Load scheduler "whi1" with entities [LocalPlayer, LocalPlayer], work=[201*, 0*]
     0x0096 [0x55] WAIT_LOAD_SCHEDULER: Wait for scheduler "whi1" with entities [LocalPlayer, LocalPlayer], work=201*
     0x00A5 [0x1B] RETURN
     0x00A6 [0x45] LOAD_SCHEDULED_TASK: Load scheduler "who1" with entities [LocalPlayer, LocalPlayer], work=[201*, 0*]
     0x00B7 [0x55] WAIT_LOAD_SCHEDULER: Wait for scheduler "who1" with entities [LocalPlayer, LocalPlayer], work=201*
     0x00C6 [0x1B] RETURN
     0x00C7 [0x45] LOAD_SCHEDULED_TASK: Load scheduler "who2" with entities [LocalPlayer, LocalPlayer], work=[201*, 0*]
     0x00D8 [0x55] WAIT_LOAD_SCHEDULER: Wait for scheduler "who2" with entities [LocalPlayer, LocalPlayer], work=201*
     0x00E7 [0x1B] RETURN
     0x00E8 [0x45] LOAD_SCHEDULED_TASK: Load scheduler "who3" with entities [LocalPlayer, LocalPlayer], work=[201*, 0*]
     0x00F9 [0x55] WAIT_LOAD_SCHEDULER: Wait for scheduler "who3" with entities [LocalPlayer, LocalPlayer], work=201*
     0x0108 [0x1B] RETURN
     0x0109 [0x62] LOAD_EVENT_SCHEDULER: Load scheduler "main" with entities [LocalPlayer, LocalPlayer], work=[1*, 0*]
     0x011A [0x1C] WAIT(45* ticks)
     0x011D [0x45] LOAD_SCHEDULED_TASK: Load scheduler "fdo1" with entities [LocalPlayer, LocalPlayer], work=[200*, 0*]
     0x012E [0x55] WAIT_LOAD_SCHEDULER: Wait for scheduler "fdo1" with entities [LocalPlayer, LocalPlayer], work=200*
     0x013D [0x1B] RETURN
     0x013E [0x45] LOAD_SCHEDULED_TASK: Load scheduler "fdi1" with entities [LocalPlayer, LocalPlayer], work=[200*, 0*]
     0x014F [0x62] LOAD_EVENT_SCHEDULER: Load scheduler "main" with entities [LocalPlayer, LocalPlayer], work=[2*, 0*]
     0x0160 [0x1C] WAIT(30* ticks)
     0x0163 [0x55] WAIT_LOAD_SCHEDULER: Wait for scheduler "fdi1" with entities [LocalPlayer, LocalPlayer], work=200*
     0x0172 [0x1B] RETURN
     0x0173 [0x45] LOAD_SCHEDULED_TASK: Load scheduler "blon" with entities [LocalPlayer, LocalPlayer], work=[200*, 0*]
     0x0184 [0x45] LOAD_SCHEDULED_TASK: Load scheduler "blon" with entities [LocalPlayer, LocalPlayer], work=[201*, 0*]
     0x0195 [0x1B] RETURN
     0x0196 [0x45] LOAD_SCHEDULED_TASK: Load scheduler "whi0" with entities [LocalPlayer, LocalPlayer], work=[201*, 0*]
     0x01A7 [0x55] WAIT_LOAD_SCHEDULER: Wait for scheduler "whi0" with entities [LocalPlayer, LocalPlayer], work=201*
     0x01B6 [0x1B] RETURN
     0x01B7 [0x45] LOAD_SCHEDULED_TASK: Load scheduler "who0" with entities [LocalPlayer, LocalPlayer], work=[201*, 0*]
     0x01C8 [0x55] WAIT_LOAD_SCHEDULER: Wait for scheduler "who0" with entities [LocalPlayer, LocalPlayer], work=201*
     0x01D7 [0x1B] RETURN
     0x01D8 [0x45] LOAD_SCHEDULED_TASK: Load scheduler "efon" with entities [LocalPlayer, LocalPlayer], work=[215*, 0*]
     0x01E9 [0x55] WAIT_LOAD_SCHEDULER: Wait for scheduler "efon" with entities [LocalPlayer, LocalPlayer], work=215*
     0x01F8 [0x1B] RETURN
     0x01F9 [0x45] LOAD_SCHEDULED_TASK: Load scheduler "fdis" with entities [LocalPlayer, LocalPlayer], work=[200*, 0*]
     0x020A [0x1B] RETURN
     0x020B [0x45] LOAD_SCHEDULED_TASK: Load scheduler "fdos" with entities [LocalPlayer, LocalPlayer], work=[200*, 0*]
     0x021C [0x55] WAIT_LOAD_SCHEDULER: Wait for scheduler "fdos" with entities [LocalPlayer, LocalPlayer], work=200*
     0x022B [0x1B] RETURN
     0x022C [0x45] LOAD_SCHEDULED_TASK: Load scheduler "fdif" with entities [LocalPlayer, LocalPlayer], work=[200*, 0*]
     0x023D [0x1B] RETURN
     0x023E [0x45] LOAD_SCHEDULED_TASK: Load scheduler "fdof" with entities [LocalPlayer, LocalPlayer], work=[200*, 0*]
     0x024F [0x55] WAIT_LOAD_SCHEDULER: Wait for scheduler "fdof" with entities [LocalPlayer, LocalPlayer], work=200*
     0x025E [0x1B] RETURN
     0x025F [0x45] LOAD_SCHEDULED_TASK: Load scheduler "fdip" with entities [LocalPlayer, LocalPlayer], work=[200*, 0*]
     0x0270 [0x1B] RETURN
     0x0271 [0x45] LOAD_SCHEDULED_TASK: Load scheduler "fdop" with entities [LocalPlayer, LocalPlayer], work=[200*, 0*]
     0x0282 [0x55] WAIT_LOAD_SCHEDULER: Wait for scheduler "fdop" with entities [LocalPlayer, LocalPlayer], work=200*
     0x0291 [0x1B] RETURN
```

### Event 504

#### Metadata

| Field        | Value       |
|--------------|-------------|
| Entrypoint   | 0x0292      |
| Data Size    | 14271 bytes |
| Instructions | 1580        |

```
      00 01 02 03 04 05 06 07  08 09 0A 0B 0C 0D 0E 0F
      -- -- -- -- -- -- -- --  -- -- -- -- -- -- -- --
0290:       03 00 00 09 10 42  1A 64 00 46 01 38 08 80    .....B.d.F.8..
02A0: 27 10 5D 92 06 01 04 27  10 5F 92 06 01 04 27 10  '.]....'._....'.
02B0: 61 92 06 01 04 27 10 65  92 06 01 04 27 10 62 92  a....'.e....'.b.
02C0: 06 01 02 27 10 64 92 06  01 04 27 10 66 92 06 01  ...'.d....'.f...
02D0: 04 92 01 5D 92 06 01 92  01 5F 92 06 01 92 01 61  ...]....._.....a
02E0: 92 06 01 92 01 65 92 06  01 92 01 62 92 06 01 92  .....e.....b....
02F0: 01 64 92 06 01 92 01 66  92 06 01 94 01 F0 FF FF  .d.....f........
0300: 7F 94 01 5D 92 06 01 94  01 5F 92 06 01 94 01 65  ...]....._.....e
0310: 92 06 01 94 01 61 92 06  01 94 01 62 92 06 01 94  .....a.....b....
0320: 01 64 92 06 01 94 01 66  92 06 01 59 05 5D 92 06  .d.....f...Y.]..
0330: 01 01 BA F0 FF FF 7F 09  80 0A 80 01 80 0B 80 BA  ................
0340: 5D 92 06 01 0C 80 0D 80  0E 80 0F 80 BA 5F 92 06  ]............_..
0350: 01 10 80 11 80 12 80 13  80 BA 61 92 06 01 14 80  ..........a.....
0360: 15 80 16 80 17 80 BA 65  92 06 01 18 80 19 80 1A  .......e........
0370: 80 1B 80 BA 62 92 06 01  1C 80 1D 80 1E 80 1F 80  ....b...........
0380: BA 66 92 06 01 20 80 21  80 22 80 23 80 7B F0 FF  .f... .!.".#.{..
0390: FF 7F 7B 5D 92 06 01 7B  5F 92 06 01 7B 61 92 06  ..{]...{_...{a..
03A0: 01 7B 65 92 06 01 7B 62  92 06 01 7B 64 92 06 01  .{e...{b...{d...
03B0: 7B 66 92 06 01 80 F0 FF  FF 7F 80 5D 92 06 01 80  {f.........]....
03C0: 5F 92 06 01 80 61 92 06  01 80 65 92 06 01 80 62  _....a....e....b
03D0: 92 06 01 80 64 92 06 01  80 66 92 06 01 29 10 60  ....d....f...).`
03E0: 92 06 01 0E 81 00 5D 92  06 01 81 00 5F 92 06 01  ......]....._...
03F0: 5B 24 80 61 92 06 01 61  92 06 01 73 65 6E 30 5B  [$.a...a...sen0[
0400: 25 80 5D 92 06 01 5D 92  06 01 73 6C 65 30 4E 01  %.]...]...sle0N.
0410: 16 92 06 01 1C 26 80 5B  25 80 5F 92 06 01 5F 92  .....&.[%._..._.
0420: 06 01 73 6C 65 30 1C 27  80 27 10 F0 FF FF 7F 4F  ..sle0.'.'.....O
0430: 45 28 80 F0 FF FF 7F F0  FF FF 7F 73 31 30 31 01  E(.........s101.
0440: 80 1A 43 00 1C 29 80 52  28 80 F0 FF FF 7F F0 FF  ..C..).R(.......
0450: FF 7F 73 31 30 31 45 28  80 F0 FF FF 7F F0 FF FF  ..s101E(........
0460: 7F 73 31 30 32 01 80 6E  65 92 06 01 2A 80 99 65  .s102..ne...*..e
0470: 92 06 01 03 02 10 2B 80  27 10 66 92 06 01 0D 2B  ......+.'.f....+
0480: 65 92 06 01 2C 80 23 7A  00 F0 FF FF 7F 2A 10 66  e...,.#z.....*.f
0490: 92 06 01 27 10 F0 FF FF  7F 50 1C 2D 80 52 28 80  ...'.....P.-.R(.
04A0: F0 FF FF 7F F0 FF FF 7F  73 31 30 32 45 28 80 F0  ........s102E(..
04B0: FF FF 7F F0 FF FF 7F 73  31 30 33 01 80 1C 29 80  .......s103...).
04C0: 52 28 80 F0 FF FF 7F F0  FF FF 7F 73 31 30 33 45  R(.........s103E
04D0: 28 80 F0 FF FF 7F F0 FF  FF 7F 73 31 30 34 01 80  (.........s104..
04E0: 03 02 10 00 80 27 10 66  92 06 01 0D 5B 2E 80 65  .....'.f....[..e
04F0: 92 06 01 65 92 06 01 6D  65 67 30 2B 65 92 06 01  ...e...meg0+e...
0500: 2F 80 23 2B 65 92 06 01  30 80 23 2A 10 66 92 06  /.#+e...0.#*.f..
0510: 01 52 28 80 F0 FF FF 7F  F0 FF FF 7F 73 31 30 34  .R(.........s104
0520: 45 28 80 F0 FF FF 7F F0  FF FF 7F 73 31 30 35 01  E(.........s105.
0530: 80 2B 65 92 06 01 31 80  23 5B 2E 80 65 92 06 01  .+e...1.#[..e...
0540: 65 92 06 01 6D 65 67 31  29 10 F0 FF FF 7F 46 02  e...meg1).....F.
0550: 02 10 03 80 80 7A 05 52  28 80 F0 FF FF 7F F0 FF  .....z.R(.......
0560: FF 7F 73 31 30 35 45 28  80 F0 FF FF 7F F0 FF FF  ..s105E(........
0570: 7F 73 68 6D 31 01 80 01  A7 06 02 02 10 05 80 80  .shm1...........
0580: A5 05 52 28 80 F0 FF FF  7F F0 FF FF 7F 73 31 30  ..R(.........s10
0590: 35 45 28 80 F0 FF FF 7F  F0 FF FF 7F 73 68 6D 31  5E(.........shm1
05A0: 01 80 01 A7 06 02 02 10  32 80 80 D0 05 52 28 80  ........2....R(.
05B0: F0 FF FF 7F F0 FF FF 7F  73 31 30 35 45 28 80 F0  ........s105E(..
05C0: FF FF 7F F0 FF FF 7F 73  65 6D 31 01 80 01 A7 06  .......sem1.....
05D0: 02 02 10 33 80 80 FB 05  52 28 80 F0 FF FF 7F F0  ...3....R(......
05E0: FF FF 7F 73 31 30 35 45  28 80 F0 FF FF 7F F0 FF  ...s105E(.......
05F0: FF 7F 73 65 6D 31 01 80  01 A7 06 02 02 10 34 80  ..sem1........4.
0600: 80 26 06 52 28 80 F0 FF  FF 7F F0 FF FF 7F 73 31  .&.R(.........s1
0610: 30 35 45 28 80 F0 FF FF  7F F0 FF FF 7F 73 74 72  05E(.........str
0620: 31 01 80 01 A7 06 02 02  10 35 80 80 51 06 52 28  1........5..Q.R(
0630: 80 F0 FF FF 7F F0 FF FF  7F 73 31 30 35 45 28 80  .........s105E(.
0640: F0 FF FF 7F F0 FF FF 7F  73 74 72 31 01 80 01 A7  ........str1....
0650: 06 02 02 10 36 80 80 7C  06 52 28 80 F0 FF FF 7F  ....6..|.R(.....
0660: F0 FF FF 7F 73 31 30 35  45 28 80 F0 FF FF 7F F0  ....s105E(......
0670: FF FF 7F 73 6D 74 31 01  80 01 A7 06 02 02 10 2A  ...smt1........*
0680: 80 80 A7 06 52 28 80 F0  FF FF 7F F0 FF FF 7F 73  ....R(.........s
0690: 31 30 35 45 28 80 F0 FF  FF 7F F0 FF FF 7F 73 67  105E(.........sg
06A0: 6C 31 01 80 01 A7 06 79  00 F0 FF FF 7F 65 92 06  l1.....y.....e..
06B0: 01 27 10 F0 FF FF 7F 16  1C 37 80 52 28 80 F0 FF  .'.......7.R(...
06C0: FF 7F F0 FF FF 7F 73 68  6D 31 52 28 80 F0 FF FF  ......shm1R(....
06D0: 7F F0 FF FF 7F 73 65 6D  31 52 28 80 F0 FF FF 7F  .....sem1R(.....
06E0: F0 FF FF 7F 73 74 72 31  52 28 80 F0 FF FF 7F F0  ....str1R(......
06F0: FF FF 7F 73 6D 74 31 52  28 80 F0 FF FF 7F F0 FF  ...smt1R(.......
0700: FF 7F 73 67 6C 31 45 28  80 F0 FF FF 7F F0 FF FF  ..sgl1E(........
0710: 7F 73 31 30 39 01 80 79  00 F0 FF FF 7F 65 92 06  .s109..y.....e..
0720: 01 27 10 F0 FF FF 7F 17  2B 65 92 06 01 38 80 23  .'......+e...8.#
0730: 52 28 80 F0 FF FF 7F F0  FF FF 7F 73 31 30 39 45  R(.........s109E
0740: 28 80 F0 FF FF 7F F0 FF  FF 7F 73 31 30 38 01 80  (.........s108..
0750: 6E 65 92 06 01 39 80 99  65 92 06 01 2B 65 92 06  ne...9..e...+e..
0760: 01 3A 80 23 2B 65 92 06  01 3B 80 23 52 28 80 F0  .:.#+e...;.#R(..
0770: FF FF 7F F0 FF FF 7F 73  31 30 38 45 28 80 F0 FF  .......s108E(...
0780: FF 7F F0 FF FF 7F 73 31  30 36 01 80 27 10 62 92  ......s106..'.b.
0790: 06 01 0A 1C 29 80 52 28  80 F0 FF FF 7F F0 FF FF  ....).R(........
07A0: 7F 73 31 30 36 45 28 80  F0 FF FF 7F F0 FF FF 7F  .s106E(.........
07B0: 73 31 30 37 01 80 03 02  10 3C 80 27 10 66 92 06  s107.....<.'.f..
07C0: 01 0D 66 3D 80 65 92 06  01 65 92 06 01 70 61 73  ..f=.e...e...pas
07D0: 30 2B 65 92 06 01 3E 80  1C 3F 80 93 40 80 23 2A  0+e...>..?..@.#*
07E0: 10 66 92 06 01 93 01 80  1C 06 80 2B 65 92 06 01  .f.........+e...
07F0: 41 80 23 52 28 80 F0 FF  FF 7F F0 FF FF 7F 73 31  A.#R(.........s1
0800: 30 37 45 28 80 F0 FF FF  7F F0 FF FF 7F 73 31 31  07E(.........s11
0810: 31 01 80 66 42 80 65 92  06 01 65 92 06 01 74 6C  1..fB.e...e...tl
0820: 6B 30 2B 65 92 06 01 43  80 23 2B 65 92 06 01 44  k0+e...C.#+e...D
0830: 80 23 66 42 80 65 92 06  01 65 92 06 01 74 6C 6B  .#fB.e...e...tlk
0840: 31 79 00 F0 FF FF 7F 65  92 06 01 27 10 65 92 06  1y.....e...'.e..
0850: 01 09 52 28 80 F0 FF FF  7F F0 FF FF 7F 73 31 31  ..R(.........s11
0860: 31 45 28 80 F0 FF FF 7F  F0 FF FF 7F 73 31 31 32  1E(.........s112
0870: 01 80 1C 2B 80 52 28 80  F0 FF FF 7F F0 FF FF 7F  ...+.R(.........
0880: 73 31 31 32 45 28 80 F0  FF FF 7F F0 FF FF 7F 73  s112E(.........s
0890: 31 38 30 01 80 5B 24 80  61 92 06 01 61 92 06 01  180..[$.a...a...
08A0: 73 65 6E 31 1C 2D 80 BA  F0 FF FF 7F 45 80 46 80  sen1.-......E.F.
08B0: 47 80 1F 80 4E 01 65 92  06 01 1C 2B 80 52 28 80  G...N.e....+.R(.
08C0: F0 FF FF 7F F0 FF FF 7F  73 31 38 30 45 28 80 F0  ........s180E(..
08D0: FF FF 7F F0 FF FF 7F 73  31 38 31 01 80 27 10 61  .......s181..'.a
08E0: 92 06 01 0B 1C 2B 80 4B  F0 FF FF 7F 48 80 1C 49  .....+.K....H..I
08F0: 80 52 28 80 F0 FF FF 7F  F0 FF FF 7F 73 31 38 31  .R(.........s181
0900: 45 28 80 F0 FF FF 7F F0  FF FF 7F 73 31 33 34 01  E(.........s134.
0910: 80 6F 76 F0 FF FF 7F 7B  F0 FF FF 7F 1C 2B 80 52  .ov....{.....+.R
0920: 28 80 F0 FF FF 7F F0 FF  FF 7F 73 31 33 34 45 28  (.........s134E(
0930: 80 F0 FF FF 7F F0 FF FF  7F 73 31 31 30 01 80 27  .........s110..'
0940: 10 F0 FF FF 7F 51 1C 4A  80 BA 62 92 06 01 4B 80  .....Q.J..b...K.
0950: 4C 80 4D 80 1F 80 27 10  F0 FF FF 7F 51 27 10 62  L.M...'.....Q'.b
0960: 92 06 01 09 2A 10 F0 FF  FF 7F 29 10 F0 FF FF 7F  ....*.....).....
0970: 46 02 02 10 03 80 80 9C  09 52 28 80 F0 FF FF 7F  F........R(.....
0980: F0 FF FF 7F 73 31 31 30  45 28 80 F0 FF FF 7F F0  ....s110E(......
0990: FF FF 7F 73 68 6D 32 01  80 01 C9 0A 02 02 10 05  ...shm2.........
09A0: 80 80 C7 09 52 28 80 F0  FF FF 7F F0 FF FF 7F 73  ....R(.........s
09B0: 31 31 30 45 28 80 F0 FF  FF 7F F0 FF FF 7F 73 68  110E(.........sh
09C0: 6D 32 01 80 01 C9 0A 02  02 10 32 80 80 F2 09 52  m2........2....R
09D0: 28 80 F0 FF FF 7F F0 FF  FF 7F 73 31 31 30 45 28  (.........s110E(
09E0: 80 F0 FF FF 7F F0 FF FF  7F 73 65 6D 32 01 80 01  .........sem2...
09F0: C9 0A 02 02 10 33 80 80  1D 0A 52 28 80 F0 FF FF  .....3....R(....
0A00: 7F F0 FF FF 7F 73 31 31  30 45 28 80 F0 FF FF 7F  .....s110E(.....
0A10: F0 FF FF 7F 73 65 6D 32  01 80 01 C9 0A 02 02 10  ....sem2........
0A20: 34 80 80 48 0A 52 28 80  F0 FF FF 7F F0 FF FF 7F  4..H.R(.........
0A30: 73 31 31 30 45 28 80 F0  FF FF 7F F0 FF FF 7F 73  s110E(.........s
0A40: 74 72 32 01 80 01 C9 0A  02 02 10 35 80 80 73 0A  tr2........5..s.
0A50: 52 28 80 F0 FF FF 7F F0  FF FF 7F 73 31 31 30 45  R(.........s110E
0A60: 28 80 F0 FF FF 7F F0 FF  FF 7F 73 74 72 32 01 80  (.........str2..
0A70: 01 C9 0A 02 02 10 36 80  80 9E 0A 52 28 80 F0 FF  ......6....R(...
0A80: FF 7F F0 FF FF 7F 73 31  31 30 45 28 80 F0 FF FF  ......s110E(....
0A90: 7F F0 FF FF 7F 73 6D 74  32 01 80 01 C9 0A 02 02  .....smt2.......
0AA0: 10 2A 80 80 C9 0A 52 28  80 F0 FF FF 7F F0 FF FF  .*....R(........
0AB0: 7F 73 31 31 30 45 28 80  F0 FF FF 7F F0 FF FF 7F  .s110E(.........
0AC0: 73 67 6C 32 01 80 01 C9  0A 4E 01 65 92 06 01 27  sgl2.....N.e...'
0AD0: 10 F0 FF FF 7F 18 1C 4E  80 1C 4A 80 BA 5F 92 06  .......N..J.._..
0AE0: 01 4F 80 50 80 51 80 13  80 1C 2D 80 52 28 80 F0  .O.P.Q....-.R(..
0AF0: FF FF 7F F0 FF FF 7F 73  68 6D 32 52 28 80 F0 FF  .......shm2R(...
0B00: FF 7F F0 FF FF 7F 73 65  6D 32 52 28 80 F0 FF FF  ......sem2R(....
0B10: 7F F0 FF FF 7F 73 74 72  32 52 28 80 F0 FF FF 7F  .....str2R(.....
0B20: F0 FF FF 7F 73 6D 74 32  52 28 80 F0 FF FF 7F F0  ....smt2R(......
0B30: FF FF 7F 73 67 6C 32 45  28 80 F0 FF FF 7F F0 FF  ...sgl2E(.......
0B40: FF 7F 73 31 39 33 01 80  CD 49 80 66 92 06 01 66  ..s193...I.f...f
0B50: 92 06 01 73 30 30 30 01  80 1C 29 80 BB 52 80 F0  ...s000...)..R..
0B60: FF FF 7F 64 92 06 01 73  74 30 31 01 80 45 28 80  ...d...st01..E(.
0B70: F0 FF FF 7F F0 FF FF 7F  32 30 33 33 01 80 BA 62  ........2033...b
0B80: 92 06 01 53 80 54 80 55  80 23 80 27 10 62 92 06  ...S.T.U.#.'.b..
0B90: 01 0B 52 28 80 F0 FF FF  7F F0 FF FF 7F 73 31 39  ..R(.........s19
0BA0: 33 45 28 80 F0 FF FF 7F  F0 FF FF 7F 73 31 39 32  3E(.........s192
0BB0: 01 80 1C 56 80 52 28 80  F0 FF FF 7F F0 FF FF 7F  ...V.R(.........
0BC0: 73 31 39 32 7A 00 62 92  06 01 BA 62 92 06 01 57  s192z.b....b...W
0BD0: 80 58 80 59 80 5A 80 27  10 62 92 06 01 0C 45 28  .X.Y.Z.'.b....E(
0BE0: 80 F0 FF FF 7F F0 FF FF  7F 73 31 31 33 01 80 BB  .........s113...
0BF0: 52 80 5D 92 06 01 64 92  06 01 73 74 30 31 01 80  R.]...d...st01..
0C00: 45 28 80 F0 FF FF 7F F0  FF FF 7F 32 30 33 33 01  E(.........2033.
0C10: 80 1C 4A 80 CD 49 80 66  92 06 01 66 92 06 01 6B  ..J..I.f...f...k
0C20: 69 6C 30 01 80 BB 52 80  5F 92 06 01 64 92 06 01  il0...R._...d...
0C30: 73 74 30 31 01 80 45 28  80 F0 FF FF 7F F0 FF FF  st01..E(........
0C40: 7F 32 30 33 33 01 80 1C  5B 80 52 28 80 F0 FF FF  .2033...[.R(....
0C50: 7F F0 FF FF 7F 73 31 31  33 45 28 80 F0 FF FF 7F  .....s113E(.....
0C60: F0 FF FF 7F 73 31 39 34  01 80 1C 2B 80 52 28 80  ....s194...+.R(.
0C70: F0 FF FF 7F F0 FF FF 7F  73 31 39 34 45 28 80 F0  ........s194E(..
0C80: FF FF 7F F0 FF FF 7F 73  31 39 35 01 80 92 01 F0  .......s195.....
0C90: FF FF 7F 1C 2B 80 52 28  80 F0 FF FF 7F F0 FF FF  ....+.R(........
0CA0: 7F 73 31 39 35 45 28 80  F0 FF FF 7F F0 FF FF 7F  .s195E(.........
0CB0: 73 31 31 34 01 80 7A 00  62 92 06 01 1C 34 80 7A  s114..z.b....4.z
0CC0: 00 62 92 06 01 BA 62 92  06 01 5C 80 5D 80 5E 80  .b....b...\.].^.
0CD0: 23 80 1C 49 80 BB 52 80  62 92 06 01 64 92 06 01  #..I..R.b...d...
0CE0: 73 74 30 31 01 80 45 28  80 F0 FF FF 7F F0 FF FF  st01..E(........
0CF0: 7F 32 30 33 33 01 80 1C  4A 80 52 28 80 F0 FF FF  .2033...J.R(....
0D00: 7F F0 FF FF 7F 73 31 31  34 45 28 80 F0 FF FF 7F  .....s114E(.....
0D10: F0 FF FF 7F 73 31 31 35  01 80 BB 52 80 F0 FF FF  ....s115...R....
0D20: 7F 64 92 06 01 73 74 30  32 01 80 1C 29 80 52 28  .d...st02...).R(
0D30: 80 F0 FF FF 7F F0 FF FF  7F 73 31 31 35 45 28 80  .........s115E(.
0D40: F0 FF FF 7F F0 FF FF 7F  73 31 38 32 01 80 BB 52  ........s182...R
0D50: 80 F0 FF FF 7F 64 92 06  01 73 74 30 33 01 80 45  .....d...st03..E
0D60: 28 80 F0 FF FF 7F F0 FF  FF 7F 36 30 34 31 01 80  (.........6041..
0D70: 1C 2D 80 BB 52 80 5D 92  06 01 64 92 06 01 73 74  .-..R.]...d...st
0D80: 30 33 01 80 45 28 80 F0  FF FF 7F F0 FF FF 7F 36  03..E(.........6
0D90: 30 34 31 01 80 1C 2D 80  BB 52 80 5F 92 06 01 64  041...-..R._...d
0DA0: 92 06 01 73 74 30 33 01  80 45 28 80 F0 FF FF 7F  ...st03..E(.....
0DB0: F0 FF FF 7F 36 30 34 31  01 80 1C 26 80 1C 5F 80  ....6041...&.._.
0DC0: 52 28 80 F0 FF FF 7F F0  FF FF 7F 73 31 38 32 45  R(.........s182E
0DD0: 28 80 F0 FF FF 7F F0 FF  FF 7F 73 31 38 33 01 80  (.........s183..
0DE0: BB 52 80 62 92 06 01 64  92 06 01 73 74 30 33 01  .R.b...d...st03.
0DF0: 80 45 28 80 F0 FF FF 7F  F0 FF FF 7F 36 30 34 31  .E(.........6041
0E00: 01 80 1C 37 80 1A 64 00  52 28 80 F0 FF FF 7F F0  ...7..d.R(......
0E10: FF FF 7F 73 31 38 33 59  05 5D 92 06 01 00 34 60  ...s183Y.]....4`
0E20: 80 77 61 80 03 80 AB 09  1C 62 80 BB 52 80 F0 FF  .wa......b..R...
0E30: FF 7F 64 92 06 01 6B 69  6C 61 01 80 BB 52 80 5D  ..d...kila...R.]
0E40: 92 06 01 64 92 06 01 6B  69 6C 61 01 80 BB 52 80  ...d...kila...R.
0E50: 5F 92 06 01 64 92 06 01  6B 69 6C 61 01 80 BB 52  _...d...kila...R
0E60: 80 62 92 06 01 64 92 06  01 6B 69 6C 61 01 80 4E  .b...d...kila..N
0E70: 01 64 92 06 01 4E 01 65  92 06 01 27 10 5D 92 06  .d...N.e...'.]..
0E80: 01 04 27 10 5F 92 06 01  04 27 10 60 92 06 01 04  ..'._....'.`....
0E90: 27 10 5E 92 06 01 04 27  10 63 92 06 01 04 27 10  '.^....'.c....'.
0EA0: 62 92 06 01 02 27 10 68  92 06 01 04 27 10 69 92  b....'.h....'.i.
0EB0: 06 01 04 27 10 6A 92 06  01 04 27 10 6B 92 06 01  ...'.j....'.k...
0EC0: 04 27 10 6C 92 06 01 04  27 10 6D 92 06 01 04 27  .'.l....'.m....'
0ED0: 10 6E 92 06 01 04 27 10  6F 92 06 01 04 27 10 70  .n....'.o....'.p
0EE0: 92 06 01 04 27 10 71 92  06 01 04 27 10 7A 92 06  ....'.q....'.z..
0EF0: 01 04 27 10 72 92 06 01  04 27 10 73 92 06 01 04  ..'.r....'.s....
0F00: 27 10 74 92 06 01 04 27  10 75 92 06 01 04 27 10  '.t....'.u....'.
0F10: 76 92 06 01 04 27 10 77  92 06 01 04 27 10 78 92  v....'.w....'.x.
0F20: 06 01 04 27 10 79 92 06  01 04 92 01 5D 92 06 01  ...'.y......]...
0F30: 92 01 5F 92 06 01 92 01  60 92 06 01 92 01 5E 92  .._.....`.....^.
0F40: 06 01 92 01 63 92 06 01  92 01 62 92 06 01 92 01  ....c.....b.....
0F50: 7A 92 06 01 92 01 68 92  06 01 92 01 69 92 06 01  z.....h.....i...
0F60: 92 01 6A 92 06 01 92 01  6B 92 06 01 92 01 6C 92  ..j.....k.....l.
0F70: 06 01 92 01 6D 92 06 01  92 01 6E 92 06 01 92 01  ....m.....n.....
0F80: 6F 92 06 01 92 01 70 92  06 01 92 01 71 92 06 01  o.....p.....q...
0F90: 92 01 72 92 06 01 92 01  73 92 06 01 92 01 74 92  ..r.....s.....t.
0FA0: 06 01 92 01 75 92 06 01  92 01 76 92 06 01 92 01  ....u.....v.....
0FB0: 77 92 06 01 92 01 78 92  06 01 92 01 79 92 06 01  w.....x.....y...
0FC0: 94 01 F0 FF FF 7F 94 01  5D 92 06 01 94 01 5F 92  ........]....._.
0FD0: 06 01 94 01 60 92 06 01  94 01 5E 92 06 01 94 01  ....`.....^.....
0FE0: 63 92 06 01 94 01 62 92  06 01 94 01 68 92 06 01  c.....b.....h...
0FF0: 94 01 69 92 06 01 94 01  6A 92 06 01 94 01 6B 92  ..i.....j.....k.
1000: 06 01 94 01 6C 92 06 01  94 01 6D 92 06 01 94 01  ....l.....m.....
1010: 6E 92 06 01 94 01 6F 92  06 01 94 01 70 92 06 01  n.....o.....p...
1020: 94 01 71 92 06 01 94 01  72 92 06 01 94 01 73 92  ..q.....r.....s.
1030: 06 01 94 01 74 92 06 01  94 01 75 92 06 01 94 01  ....t.....u.....
1040: 76 92 06 01 94 01 77 92  06 01 94 01 78 92 06 01  v.....w.....x...
1050: 94 01 79 92 06 01 94 01  7A 92 06 01 BA F0 FF FF  ..y.....z.......
1060: 7F 63 80 64 80 65 80 66  80 BA 5D 92 06 01 67 80  .c.d.e.f..]...g.
1070: 68 80 69 80 6A 80 BA 5F  92 06 01 6B 80 6C 80 6D  h.i.j.._...k.l.m
1080: 80 13 80 BA 60 92 06 01  6E 80 6F 80 70 80 71 80  ....`...n.o.p.q.
1090: BA 5E 92 06 01 72 80 73  80 69 80 74 80 BA 62 92  .^...r.s.i.t..b.
10A0: 06 01 75 80 76 80 77 80  78 80 BA 61 92 06 01 79  ..u.v.w.x..a...y
10B0: 80 7A 80 7B 80 7C 80 BA  68 92 06 01 7D 80 7E 80  .z.{.|..h...}.~.
10C0: 7F 80 80 80 BA 69 92 06  01 81 80 82 80 83 80 84  .....i..........
10D0: 80 BA 6A 92 06 01 85 80  86 80 87 80 88 80 BA 6B  ..j............k
10E0: 92 06 01 89 80 8A 80 8B  80 8C 80 BA 6C 92 06 01  ............l...
10F0: 8D 80 8E 80 8F 80 90 80  BA 6D 92 06 01 91 80 92  .........m......
1100: 80 93 80 94 80 BA 6E 92  06 01 95 80 96 80 97 80  ......n.........
1110: 98 80 BA 6F 92 06 01 99  80 9A 80 9B 80 66 80 BA  ...o.........f..
1120: 70 92 06 01 9C 80 9D 80  01 80 9E 80 BA 71 92 06  p............q..
1130: 01 9F 80 A0 80 01 80 A1  80 BA 72 92 06 01 A2 80  ..........r.....
1140: A3 80 01 80 A4 80 BA 73  92 06 01 A2 80 A3 80 01  .......s........
1150: 80 A4 80 BA 74 92 06 01  A5 80 A6 80 A7 80 66 80  ....t.........f.
1160: BA 75 92 06 01 A5 80 A6  80 A7 80 66 80 BA 76 92  .u.........f..v.
1170: 06 01 A8 80 A9 80 01 80  66 80 BA 77 92 06 01 AA  ........f..w....
1180: 80 AB 80 01 80 5B 80 BA  78 92 06 01 AC 80 AD 80  .....[..x.......
1190: AE 80 AF 80 BA 79 92 06  01 B0 80 B1 80 01 80 66  .....y.........f
11A0: 80 BA 7A 92 06 01 B2 80  B3 80 B4 80 A4 80 4A 71  ..z...........Jq
11B0: 92 06 01 70 92 06 01 4A  70 92 06 01 71 92 06 01  ...p...Jp...q...
11C0: 4A 6F 92 06 01 6E 92 06  01 4A 6E 92 06 01 6F 92  Jo...n...Jn...o.
11D0: 06 01 4A 6B 92 06 01 6D  92 06 01 4A 6D 92 06 01  ..Jk...m...Jm...
11E0: 6B 92 06 01 4A 6C 92 06  01 6B 92 06 01 4A 68 92  k...Jl...k...Jh.
11F0: 06 01 5E 92 06 01 4A 5E  92 06 01 68 92 06 01 4A  ..^...J^...h...J
1200: 60 92 06 01 7A 92 06 01  4A 7A 92 06 01 60 92 06  `...z...Jz...`..
1210: 01 7B F0 FF FF 7F 7B 5D  92 06 01 7B 5F 92 06 01  .{....{]...{_...
1220: 7B 60 92 06 01 7B 5E 92  06 01 7B 63 92 06 01 7B  {`...{^...{c...{
1230: 62 92 06 01 80 F0 FF FF  7F 80 5D 92 06 01 80 5F  b.........]...._
1240: 92 06 01 80 60 92 06 01  80 5E 92 06 01 80 63 92  ....`....^....c.
1250: 06 01 80 62 92 06 01 80  68 92 06 01 80 69 92 06  ...b....h....i..
1260: 01 80 6A 92 06 01 80 6B  92 06 01 80 6C 92 06 01  ..j....k....l...
1270: 80 6D 92 06 01 80 6E 92  06 01 80 6F 92 06 01 80  .m....n....o....
1280: 70 92 06 01 80 71 92 06  01 80 72 92 06 01 80 73  p....q....r....s
1290: 92 06 01 80 74 92 06 01  80 75 92 06 01 80 76 92  ....t....u....v.
12A0: 06 01 80 77 92 06 01 80  78 92 06 01 80 79 92 06  ...w....x....y..
12B0: 01 80 7A 92 06 01 1C 34  80 5B 24 80 61 92 06 01  ..z....4.[$.a...
12C0: 61 92 06 01 73 65 6E 30  C5 B5 80 72 92 06 01 72  a...sen0...r...r
12D0: 92 06 01 73 30 30 30 01  80 C5 B5 80 73 92 06 01  ...s000.....s...
12E0: 73 92 06 01 73 30 30 31  01 80 C5 B5 80 74 92 06  s...s001.....t..
12F0: 01 74 92 06 01 73 30 30  30 01 80 C5 B5 80 75 92  .t...s000.....u.
1300: 06 01 75 92 06 01 73 30  30 31 01 80 C5 B6 80 76  ..u...s001.....v
1310: 92 06 01 76 92 06 01 73  30 30 30 01 80 C5 B6 80  ...v...s000.....
1320: 77 92 06 01 77 92 06 01  73 30 30 30 01 80 C5 B6  w...w...s000....
1330: 80 78 92 06 01 78 92 06  01 73 30 30 31 01 80 C5  .x...x...s001...
1340: B6 80 79 92 06 01 79 92  06 01 73 30 30 32 01 80  ..y...y...s002..
1350: 5C 00 B7 80 5C 01 B7 80  9A 81 00 5F 92 06 01 81  \...\......_....
1360: 00 5D 92 06 01 5B 25 80  5D 92 06 01 5D 92 06 01  .]...[%.]...]...
1370: 73 6C 65 30 5B B8 80 60  92 06 01 60 92 06 01 74  sle0[..`...`...t
1380: 6C 61 30 6C F0 FF FF 7F  01 80 03 80 6C 5F 92 06  la0l........l_..
1390: 01 01 80 03 80 6C 5D 92  06 01 01 80 03 80 1C 26  .....l]........&
13A0: 80 66 B9 80 69 92 06 01  69 92 06 01 73 69 74 6C  .f..i...i...sitl
13B0: 66 B9 80 6D 92 06 01 6D  92 06 01 74 6C 6B 30 5B  f..m...m...tlk0[
13C0: 25 80 5F 92 06 01 5F 92  06 01 73 6C 65 30 1C 2D  %._..._...sle0.-
13D0: 80 66 B9 80 6A 92 06 01  6A 92 06 01 73 69 74 6C  .f..j...j...sitl
13E0: 66 B9 80 71 92 06 01 71  92 06 01 74 6C 6B 30 1C  f..q...q...tlk0.
13F0: 34 80 66 B9 80 6E 92 06  01 6E 92 06 01 74 6C 6B  4.f..n...n...tlk
1400: 30 1C 34 80 45 28 80 F0  FF FF 7F F0 FF FF 7F 73  0.4.E(.........s
1410: 31 38 36 01 80 1A 43 00  1C 29 80 52 28 80 F0 FF  186...C..).R(...
1420: FF 7F F0 FF FF 7F 73 31  38 36 45 28 80 F0 FF FF  ......s186E(....
1430: 7F F0 FF FF 7F 73 31 31  37 01 80 1C 29 80 62 05  .....s117...).b.
1440: 80 F0 FF FF 7F F0 FF FF  7F 6D 61 69 6E 01 80 1C  .........main...
1450: 26 80 52 28 80 F0 FF FF  7F F0 FF FF 7F 73 31 31  &.R(.........s11
1460: 37 45 28 80 F0 FF FF 7F  F0 FF FF 7F 73 31 31 36  7E(.........s116
1470: 01 80 62 05 80 5D 92 06  01 5D 92 06 01 6D 61 69  ..b..]...]...mai
1480: 6E 01 80 1C 06 80 62 05  80 5F 92 06 01 5F 92 06  n.....b.._..._..
1490: 01 6D 61 69 6E 01 80 4A  60 92 06 01 F0 FF FF 7F  .main..J`.......
14A0: 1C BA 80 6F 76 60 92 06  01 7B 60 92 06 01 5B BB  ...ov`...{`...[.
14B0: 80 60 92 06 01 60 92 06  01 70 6E 74 30 1C 2D 80  .`...`...pnt0.-.
14C0: 52 28 80 F0 FF FF 7F F0  FF FF 7F 73 31 31 36 45  R(.........s116E
14D0: 28 80 F0 FF FF 7F F0 FF  FF 7F 73 31 39 31 01 80  (.........s191..
14E0: 27 10 7A 92 06 01 0A 1C  29 80 92 00 F0 FF FF 7F  '.z.....).......
14F0: 4E 01 7A 92 06 01 52 28  80 F0 FF FF 7F F0 FF FF  N.z...R(........
1500: 7F 73 31 39 31 45 28 80  F0 FF FF 7F F0 FF FF 7F  .s191E(.........
1510: 73 31 38 37 01 80 5B 24  80 61 92 06 01 61 92 06  s187..[$.a...a..
1520: 01 73 65 6E 31 2B 60 92  06 01 BC 80 27 10 69 92  .sen1+`.....'.i.
1530: 06 01 13 66 B9 80 6D 92  06 01 6D 92 06 01 74 6C  ...f..m...m...tl
1540: 6B 30 1C 2D 80 27 10 6A  92 06 01 13 66 B9 80 71  k0.-.'.j....f..q
1550: 92 06 01 71 92 06 01 74  6C 6B 31 1C 34 80 66 B9  ...q...tlk1.4.f.
1560: 80 6E 92 06 01 6E 92 06  01 74 6C 6B 31 1C 2B 80  .n...n...tlk1.+.
1570: 52 28 80 F0 FF FF 7F F0  FF FF 7F 73 31 38 37 03  R(.........s187.
1580: 02 10 3F 80 27 10 66 92  06 01 0D 1C 06 80 4A 68  ..?.'.f.......Jh
1590: 92 06 01 5D 92 06 01 4A  6B 92 06 01 5D 92 06 01  ...]...Jk...]...
15A0: 4A 6C 92 06 01 5D 92 06  01 4A 6D 92 06 01 5D 92  Jl...]...Jm...].
15B0: 06 01 4A 6E 92 06 01 5D  92 06 01 4A 6F 92 06 01  ..Jn...]...Jo...
15C0: 5D 92 06 01 4A 70 92 06  01 5D 92 06 01 4A 71 92  ]...Jp...]...Jq.
15D0: 06 01 5D 92 06 01 4A 5E  92 06 01 5D 92 06 01 7B  ..]...J^...]...{
15E0: 5E 92 06 01 7B 68 92 06  01 7B 69 92 06 01 7B 6A  ^...{h...{i...{j
15F0: 92 06 01 7B 6B 92 06 01  7B 6C 92 06 01 7B 6D 92  ...{k...{l...{m.
1600: 06 01 7B 6E 92 06 01 7B  6F 92 06 01 7B 70 92 06  ..{n...{o...{p..
1610: 01 7B 71 92 06 01 23 2A  10 66 92 06 01 45 28 80  .{q...#*.f...E(.
1620: F0 FF FF 7F F0 FF FF 7F  73 31 31 38 01 80 5B BB  ........s118..[.
1630: 80 60 92 06 01 60 92 06  01 70 6E 74 31 2B 5E 92  .`...`...pnt1+^.
1640: 06 01 BD 80 23 27 10 5E  92 06 01 0D 1C 2D 80 52  ....#'.^.....-.R
1650: 28 80 F0 FF FF 7F F0 FF  FF 7F 73 31 31 38 45 28  (.........s118E(
1660: 80 F0 FF FF 7F F0 FF FF  7F 73 31 31 39 01 80 4A  .........s119..J
1670: F0 FF FF 7F 61 92 06 01  7B F0 FF FF 7F 27 10 60  ....a...{....'.`
1680: 92 06 01 0B 1C 2D 80 27  10 61 92 06 01 0C 4A F0  .....-.'.a....J.
1690: FF FF 7F 61 92 06 01 6F  76 F0 FF FF 7F 7B F0 FF  ...a...ov....{..
16A0: FF 7F 4A 69 92 06 01 5D  92 06 01 4A 6A 92 06 01  ..Ji...]...Jj...
16B0: 5D 92 06 01 1C 2B 80 52  28 80 F0 FF FF 7F F0 FF  ]....+.R(.......
16C0: FF 7F 73 31 31 39 45 28  80 F0 FF FF 7F F0 FF FF  ..s119E(........
16D0: 7F 73 31 32 30 01 80 2B  61 92 06 01 BE 80 23 29  .s120..+a.....#)
16E0: 10 F0 FF FF 7F 46 02 02  10 03 80 80 11 17 52 28  .....F........R(
16F0: 80 F0 FF FF 7F F0 FF FF  7F 73 31 32 30 45 28 80  .........s120E(.
1700: F0 FF FF 7F F0 FF FF 7F  73 68 6D 35 01 80 01 3E  ........shm5...>
1710: 18 02 02 10 05 80 80 3C  17 52 28 80 F0 FF FF 7F  .......<.R(.....
1720: F0 FF FF 7F 73 31 32 30  45 28 80 F0 FF FF 7F F0  ....s120E(......
1730: FF FF 7F 73 68 6D 35 01  80 01 3E 18 02 02 10 32  ...shm5...>....2
1740: 80 80 67 17 52 28 80 F0  FF FF 7F F0 FF FF 7F 73  ..g.R(.........s
1750: 31 32 30 45 28 80 F0 FF  FF 7F F0 FF FF 7F 73 65  120E(.........se
1760: 6D 35 01 80 01 3E 18 02  02 10 33 80 80 92 17 52  m5...>....3....R
1770: 28 80 F0 FF FF 7F F0 FF  FF 7F 73 31 32 30 45 28  (.........s120E(
1780: 80 F0 FF FF 7F F0 FF FF  7F 73 65 6D 35 01 80 01  .........sem5...
1790: 3E 18 02 02 10 34 80 80  BD 17 52 28 80 F0 FF FF  >....4....R(....
17A0: 7F F0 FF FF 7F 73 31 32  30 45 28 80 F0 FF FF 7F  .....s120E(.....
17B0: F0 FF FF 7F 73 74 72 35  01 80 01 3E 18 02 02 10  ....str5...>....
17C0: 35 80 80 E8 17 52 28 80  F0 FF FF 7F F0 FF FF 7F  5....R(.........
17D0: 73 31 32 30 45 28 80 F0  FF FF 7F F0 FF FF 7F 73  s120E(.........s
17E0: 74 72 35 01 80 01 3E 18  02 02 10 36 80 80 13 18  tr5...>....6....
17F0: 52 28 80 F0 FF FF 7F F0  FF FF 7F 73 31 32 30 45  R(.........s120E
1800: 28 80 F0 FF FF 7F F0 FF  FF 7F 73 6D 74 35 01 80  (.........smt5..
1810: 01 3E 18 02 02 10 2A 80  80 3E 18 52 28 80 F0 FF  .>....*..>.R(...
1820: FF 7F F0 FF FF 7F 73 31  32 30 45 28 80 F0 FF FF  ......s120E(....
1830: 7F F0 FF FF 7F 73 67 6C  35 01 80 01 3E 18 27 10  .....sgl5...>.'.
1840: F0 FF FF 7F 16 1C 29 80  45 00 80 F0 FF FF 7F F0  ......).E.......
1850: FF FF 7F 66 64 6F 32 01  80 55 00 80 F0 FF FF 7F  ...fdo2..U......
1860: F0 FF FF 7F 66 64 6F 32  52 28 80 F0 FF FF 7F F0  ....fdo2R(......
1870: FF FF 7F 73 68 6D 35 52  28 80 F0 FF FF 7F F0 FF  ...shm5R(.......
1880: FF 7F 73 65 6D 35 52 28  80 F0 FF FF 7F F0 FF FF  ..sem5R(........
1890: 7F 73 74 72 35 52 28 80  F0 FF FF 7F F0 FF FF 7F  .str5R(.........
18A0: 73 6D 74 35 52 28 80 F0  FF FF 7F F0 FF FF 7F 73  smt5R(.........s
18B0: 67 6C 35 27 10 F0 FF FF  7F 17 BA 68 92 06 01 BF  gl5'.......h....
18C0: 80 C0 80 C1 80 A4 80 BA  69 92 06 01 C2 80 C3 80  ........i.......
18D0: C4 80 A4 80 BA 6A 92 06  01 C5 80 C6 80 C7 80 66  .....j.........f
18E0: 80 BA 6B 92 06 01 C8 80  C9 80 CA 80 A4 80 BA 6C  ..k............l
18F0: 92 06 01 CB 80 CC 80 CD  80 A4 80 BA 6D 92 06 01  ............m...
1900: CE 80 CF 80 D0 80 66 80  BA 6E 92 06 01 D1 80 D2  ......f..n......
1910: 80 D3 80 0B 80 BA 6F 92  06 01 D4 80 D5 80 D6 80  ......o.........
1920: A4 80 BA 70 92 06 01 D7  80 D8 80 D9 80 A4 80 BA  ...p............
1930: 71 92 06 01 DA 80 DB 80  DC 80 A4 80 4A 68 92 06  q...........Jh..
1940: 01 5D 92 06 01 4A 69 92  06 01 5D 92 06 01 4A 6A  .]...Ji...]...Jj
1950: 92 06 01 5D 92 06 01 4A  6B 92 06 01 5D 92 06 01  ...]...Jk...]...
1960: 4A 6C 92 06 01 5D 92 06  01 4A 6D 92 06 01 5D 92  Jl...]...Jm...].
1970: 06 01 4A 6E 92 06 01 5D  92 06 01 4A 6F 92 06 01  ..Jn...]...Jo...
1980: 5D 92 06 01 4A 70 92 06  01 5D 92 06 01 4A 71 92  ]...Jp...]...Jq.
1990: 06 01 5D 92 06 01 6B 69  64 6C 30 69 92 06 01 6B  ..]...kidl0i...k
19A0: 69 64 6C 30 6D 92 06 01  6B 69 64 6C 30 6A 92 06  idl0m...kidl0j..
19B0: 01 6B 69 64 6C 30 71 92  06 01 6B 69 64 6C 30 6E  .kidl0q...kidl0n
19C0: 92 06 01 1C 2B 80 45 28  80 F0 FF FF 7F F0 FF FF  ....+.E(........
19D0: 7F 73 31 32 31 01 80 45  00 80 F0 FF FF 7F F0 FF  .s121..E........
19E0: FF 7F 66 64 69 32 01 80  55 00 80 F0 FF FF 7F F0  ..fdi2..U.......
19F0: FF FF 7F 66 64 69 32 2B  60 92 06 01 DD 80 23 52  ...fdi2+`.....#R
1A00: 28 80 F0 FF FF 7F F0 FF  FF 7F 73 31 32 31 45 28  (.........s121E(
1A10: 80 F0 FF FF 7F F0 FF FF  7F 73 31 32 32 01 80 03  .........s122...
1A20: 02 10 5B 80 27 10 66 92  06 01 0D 5B 25 80 5D 92  ..[.'.f....[%.].
1A30: 06 01 5D 92 06 01 73 6C  65 31 2B 5D 92 06 01 DE  ..]...sle1+]....
1A40: 80 23 2A 10 66 92 06 01  52 28 80 F0 FF FF 7F F0  .#*.f...R(......
1A50: FF FF 7F 73 31 32 32 45  28 80 F0 FF FF 7F F0 FF  ...s122E(.......
1A60: FF 7F 73 31 32 33 01 80  03 02 10 5F 80 27 10 66  ..s123....._.'.f
1A70: 92 06 01 0D 5B 25 80 5F  92 06 01 5F 92 06 01 73  ....[%._..._...s
1A80: 6C 65 31 2B 5F 92 06 01  DF 80 23 2A 10 66 92 06  le1+_.....#*.f..
1A90: 01 52 28 80 F0 FF FF 7F  F0 FF FF 7F 73 31 32 33  .R(.........s123
1AA0: 45 28 80 F0 FF FF 7F F0  FF FF 7F 73 31 32 34 01  E(.........s124.
1AB0: 80 1C 2B 80 52 28 80 F0  FF FF 7F F0 FF FF 7F 73  ..+.R(.........s
1AC0: 31 32 34 45 28 80 F0 FF  FF 7F F0 FF FF 7F 73 31  124E(.........s1
1AD0: 32 35 01 80 5B 25 80 5D  92 06 01 5D 92 06 01 73  25..[%.]...]...s
1AE0: 6C 65 32 1C 06 80 03 02  10 2B 80 27 10 66 92 06  le2......+.'.f..
1AF0: 01 0D 2B 5D 92 06 01 E0  80 23 2B 5D 92 06 01 E1  ..+].....#+]....
1B00: 80 23 2A 10 66 92 06 01  52 28 80 F0 FF FF 7F F0  .#*.f...R(......
1B10: FF FF 7F 73 31 32 35 45  28 80 F0 FF FF 7F F0 FF  ...s125E(.......
1B20: FF 7F 73 31 32 36 01 80  1C 29 80 52 28 80 F0 FF  ..s126...).R(...
1B30: FF 7F F0 FF FF 7F 73 31  32 36 45 28 80 F0 FF FF  ......s126E(....
1B40: 7F F0 FF FF 7F 73 31 32  37 01 80 03 02 10 2B 80  .....s127.....+.
1B50: 27 10 66 92 06 01 0D 66  B9 80 5E 92 06 01 5E 92  '.f....f..^...^.
1B60: 06 01 74 68 6B 31 2B 5E  92 06 01 E2 80 23 2A 10  ..thk1+^.....#*.
1B70: 66 92 06 01 52 28 80 F0  FF FF 7F F0 FF FF 7F 73  f...R(.........s
1B80: 31 32 37 45 28 80 F0 FF  FF 7F F0 FF FF 7F 73 31  127E(.........s1
1B90: 32 38 01 80 66 B9 80 5E  92 06 01 5E 92 06 01 74  28..f..^...^...t
1BA0: 68 6B 32 2B 60 92 06 01  E3 80 23 52 28 80 F0 FF  hk2+`.....#R(...
1BB0: FF 7F F0 FF FF 7F 73 31  32 38 45 28 80 F0 FF FF  ......s128E(....
1BC0: 7F F0 FF FF 7F 73 31 32  39 01 80 2B 5D 92 06 01  .....s129..+]...
1BD0: E4 80 23 52 28 80 F0 FF  FF 7F F0 FF FF 7F 73 31  ..#R(.........s1
1BE0: 32 39 45 28 80 F0 FF FF  7F F0 FF FF 7F 73 31 33  29E(.........s13
1BF0: 30 01 80 2B 61 92 06 01  E5 80 23 29 10 F0 FF FF  0..+a.....#)....
1C00: 7F 46 02 02 10 03 80 80  2D 1C 52 28 80 F0 FF FF  .F......-.R(....
1C10: 7F F0 FF FF 7F 73 31 33  30 45 28 80 F0 FF FF 7F  .....s130E(.....
1C20: F0 FF FF 7F 73 68 6D 35  01 80 01 5A 1D 02 02 10  ....shm5...Z....
1C30: 05 80 80 58 1C 52 28 80  F0 FF FF 7F F0 FF FF 7F  ...X.R(.........
1C40: 73 31 33 30 45 28 80 F0  FF FF 7F F0 FF FF 7F 73  s130E(.........s
1C50: 68 6D 35 01 80 01 5A 1D  02 02 10 32 80 80 83 1C  hm5...Z....2....
1C60: 52 28 80 F0 FF FF 7F F0  FF FF 7F 73 31 33 30 45  R(.........s130E
1C70: 28 80 F0 FF FF 7F F0 FF  FF 7F 73 65 6D 35 01 80  (.........sem5..
1C80: 01 5A 1D 02 02 10 33 80  80 AE 1C 52 28 80 F0 FF  .Z....3....R(...
1C90: FF 7F F0 FF FF 7F 73 31  33 30 45 28 80 F0 FF FF  ......s130E(....
1CA0: 7F F0 FF FF 7F 73 65 6D  35 01 80 01 5A 1D 02 02  .....sem5...Z...
1CB0: 10 34 80 80 D9 1C 52 28  80 F0 FF FF 7F F0 FF FF  .4....R(........
1CC0: 7F 73 31 33 30 45 28 80  F0 FF FF 7F F0 FF FF 7F  .s130E(.........
1CD0: 73 74 72 35 01 80 01 5A  1D 02 02 10 35 80 80 04  str5...Z....5...
1CE0: 1D 52 28 80 F0 FF FF 7F  F0 FF FF 7F 73 31 33 30  .R(.........s130
1CF0: 45 28 80 F0 FF FF 7F F0  FF FF 7F 73 74 72 35 01  E(.........str5.
1D00: 80 01 5A 1D 02 02 10 36  80 80 2F 1D 52 28 80 F0  ..Z....6../.R(..
1D10: FF FF 7F F0 FF FF 7F 73  31 33 30 45 28 80 F0 FF  .......s130E(...
1D20: FF 7F F0 FF FF 7F 73 6D  74 35 01 80 01 5A 1D 02  ......smt5...Z..
1D30: 02 10 2A 80 80 5A 1D 52  28 80 F0 FF FF 7F F0 FF  ..*..Z.R(.......
1D40: FF 7F 73 31 33 30 45 28  80 F0 FF FF 7F F0 FF FF  ..s130E(........
1D50: 7F 73 67 6C 35 01 80 01  5A 1D 27 10 F0 FF FF 7F  .sgl5...Z.'.....
1D60: 16 1C 29 80 45 00 80 F0  FF FF 7F F0 FF FF 7F 66  ..).E..........f
1D70: 64 6F 32 01 80 55 00 80  F0 FF FF 7F F0 FF FF 7F  do2..U..........
1D80: 66 64 6F 32 52 28 80 F0  FF FF 7F F0 FF FF 7F 73  fdo2R(.........s
1D90: 68 6D 35 52 28 80 F0 FF  FF 7F F0 FF FF 7F 73 65  hm5R(.........se
1DA0: 6D 35 52 28 80 F0 FF FF  7F F0 FF FF 7F 73 74 72  m5R(.........str
1DB0: 35 52 28 80 F0 FF FF 7F  F0 FF FF 7F 73 6D 74 35  5R(.........smt5
1DC0: 52 28 80 F0 FF FF 7F F0  FF FF 7F 73 67 6C 35 27  R(.........sgl5'
1DD0: 10 F0 FF FF 7F 17 1C 2B  80 45 28 80 F0 FF FF 7F  .......+.E(.....
1DE0: F0 FF FF 7F 73 31 33 31  01 80 45 00 80 F0 FF FF  ....s131..E.....
1DF0: 7F F0 FF FF 7F 66 64 69  32 01 80 55 00 80 F0 FF  .....fdi2..U....
1E00: FF 7F F0 FF FF 7F 66 64  69 32 2B 61 92 06 01 E6  ......fdi2+a....
1E10: 80 23 52 28 80 F0 FF FF  7F F0 FF FF 7F 73 31 33  .#R(.........s13
1E20: 31 45 28 80 F0 FF FF 7F  F0 FF FF 7F 73 31 33 32  1E(.........s132
1E30: 01 80 2B 61 92 06 01 E7  80 23 2B 61 92 06 01 E8  ..+a.....#+a....
1E40: 80 23 52 28 80 F0 FF FF  7F F0 FF FF 7F 73 31 33  .#R(.........s13
1E50: 32 45 28 80 F0 FF FF 7F  F0 FF FF 7F 73 31 33 33  2E(.........s133
1E60: 01 80 2B 61 92 06 01 E9  80 23 52 28 80 F0 FF FF  ..+a.....#R(....
1E70: 7F F0 FF FF 7F 73 31 33  33 29 10 F0 FF FF 7F 46  .....s133).....F
1E80: 02 02 10 03 80 80 AB 1E  52 28 80 F0 FF FF 7F F0  ........R(......
1E90: FF FF 7F 73 31 33 30 45  28 80 F0 FF FF 7F F0 FF  ...s130E(.......
1EA0: FF 7F 73 68 6D 33 01 80  01 D8 1F 02 02 10 05 80  ..shm3..........
1EB0: 80 D6 1E 52 28 80 F0 FF  FF 7F F0 FF FF 7F 73 31  ...R(.........s1
1EC0: 33 30 45 28 80 F0 FF FF  7F F0 FF FF 7F 73 68 6D  30E(.........shm
1ED0: 33 01 80 01 D8 1F 02 02  10 32 80 80 01 1F 52 28  3........2....R(
1EE0: 80 F0 FF FF 7F F0 FF FF  7F 73 31 33 30 45 28 80  .........s130E(.
1EF0: F0 FF FF 7F F0 FF FF 7F  73 65 6D 33 01 80 01 D8  ........sem3....
1F00: 1F 02 02 10 33 80 80 2C  1F 52 28 80 F0 FF FF 7F  ....3..,.R(.....
1F10: F0 FF FF 7F 73 31 33 30  45 28 80 F0 FF FF 7F F0  ....s130E(......
1F20: FF FF 7F 73 65 6D 33 01  80 01 D8 1F 02 02 10 34  ...sem3........4
1F30: 80 80 57 1F 52 28 80 F0  FF FF 7F F0 FF FF 7F 73  ..W.R(.........s
1F40: 31 33 30 45 28 80 F0 FF  FF 7F F0 FF FF 7F 73 74  130E(.........st
1F50: 72 33 01 80 01 D8 1F 02  02 10 35 80 80 82 1F 52  r3........5....R
1F60: 28 80 F0 FF FF 7F F0 FF  FF 7F 73 31 33 30 45 28  (.........s130E(
1F70: 80 F0 FF FF 7F F0 FF FF  7F 73 74 72 33 01 80 01  .........str3...
1F80: D8 1F 02 02 10 36 80 80  AD 1F 52 28 80 F0 FF FF  .....6....R(....
1F90: 7F F0 FF FF 7F 73 31 33  30 45 28 80 F0 FF FF 7F  .....s130E(.....
1FA0: F0 FF FF 7F 73 6D 74 33  01 80 01 D8 1F 02 02 10  ....smt3........
1FB0: 2A 80 80 D8 1F 52 28 80  F0 FF FF 7F F0 FF FF 7F  *....R(.........
1FC0: 73 31 33 30 45 28 80 F0  FF FF 7F F0 FF FF 7F 73  s130E(.........s
1FD0: 67 6C 33 01 80 01 D8 1F  27 10 F0 FF FF 7F 18 1C  gl3.....'.......
1FE0: 29 80 52 28 80 F0 FF FF  7F F0 FF FF 7F 73 68 6D  ).R(.........shm
1FF0: 33 52 28 80 F0 FF FF 7F  F0 FF FF 7F 73 65 6D 33  3R(.........sem3
2000: 52 28 80 F0 FF FF 7F F0  FF FF 7F 73 74 72 33 52  R(.........str3R
2010: 28 80 F0 FF FF 7F F0 FF  FF 7F 73 6D 74 33 52 28  (.........smt3R(
2020: 80 F0 FF FF 7F F0 FF FF  7F 73 67 6C 33 45 28 80  .........sgl3E(.
2030: F0 FF FF 7F F0 FF FF 7F  73 31 33 35 01 80 6B 69  ........s135..ki
2040: 64 6C 30 5D 92 06 01 6B  69 64 6C 30 5F 92 06 01  dl0]...kidl0_...
2050: 81 01 5F 92 06 01 81 01  5D 92 06 01 1C 4E 80 2B  .._.....]....N.+
2060: 61 92 06 01 EA 80 23 2B  61 92 06 01 EB 80 23 BA  a.....#+a.....#.
2070: 5F 92 06 01 EC 80 ED 80  EE 80 6A 80 4A 5D 92 06  _.........j.J]..
2080: 01 5E 92 06 01 4A 5F 92  06 01 5D 92 06 01 1C 2D  .^...J_...]....-
2090: 80 52 28 80 F0 FF FF 7F  F0 FF FF 7F 73 31 33 35  .R(.........s135
20A0: 45 28 80 F0 FF FF 7F F0  FF FF 7F 73 31 33 37 01  E(.........s137.
20B0: 80 6F 76 5D 92 06 01 7B  5D 92 06 01 5B B8 80 5D  .ov]...{]...[..]
20C0: 92 06 01 5D 92 06 01 74  6C 62 30 2B 5D 92 06 01  ...]...tlb0+]...
20D0: EF 80 23 27 10 5E 92 06  01 0E 1C 2D 80 52 28 80  ..#'.^.....-.R(.
20E0: F0 FF FF 7F F0 FF FF 7F  73 31 33 37 45 28 80 F0  ........s137E(..
20F0: FF FF 7F F0 FF FF 7F 73  31 33 38 01 80 03 02 10  .......s138.....
2100: 2B 80 27 10 66 92 06 01  0D 2B 5E 92 06 01 F0 80  +.'.f....+^.....
2110: 23 2A 10 66 92 06 01 2C  63 92 06 01 63 92 06 01  #*.f...,c...c...
2120: 65 66 6F 66 52 28 80 F0  FF FF 7F F0 FF FF 7F 73  efofR(.........s
2130: 31 33 38 45 28 80 F0 FF  FF 7F F0 FF FF 7F 73 31  138E(.........s1
2140: 33 39 01 80 6C 62 92 06  01 F1 80 03 80 2B 5D 92  39..lb.......+].
2150: 06 01 F2 80 23 5B B8 80  5D 92 06 01 5D 92 06 01  ....#[..]...]...
2160: 74 6C 62 31 6E 5E 92 06  01 F3 80 99 5E 92 06 01  tlb1n^......^...
2170: 1C 34 80 52 28 80 F0 FF  FF 7F F0 FF FF 7F 73 31  .4.R(.........s1
2180: 33 39 45 28 80 F0 FF FF  7F F0 FF FF 7F 73 31 34  39E(.........s14
2190: 30 01 80 2B 5E 92 06 01  F4 80 23 5B 80 80 63 92  0..+^.....#[..c.
21A0: 06 01 63 92 06 01 00 FE  FE FE 5B F5 80 62 92 06  ..c.......[..b..
21B0: 01 62 92 06 01 00 FE FE  FE 1C 2D 80 5B 80 80 63  .b........-.[..c
21C0: 92 06 01 63 92 06 01 61  74 6D 30 5B F5 80 62 92  ...c...atm0[..b.
21D0: 06 01 62 92 06 01 61 74  6D 30 52 28 80 F0 FF FF  ..b...atm0R(....
21E0: 7F F0 FF FF 7F 73 31 34  30 45 28 80 F0 FF FF 7F  .....s140E(.....
21F0: F0 FF FF 7F 73 31 39 39  01 80 5D 06 80 2B 80 55  ....s199..]..+.U
2200: 28 80 F0 FF FF 7F F0 FF  FF 7F 73 31 39 39 45 28  (.........s199E(
2210: 80 F0 FF FF 7F F0 FF FF  7F 73 31 34 31 01 80 03  .........s141...
2220: 02 10 29 80 27 10 66 92  06 01 0D 2B 62 92 06 01  ..).'.f....+b...
2230: F6 80 4A F0 FF FF 7F 63  92 06 01 6F 76 F0 FF FF  ..J....c...ov...
2240: 7F 7B F0 FF FF 7F 5C 00  3C 80 5C 01 3C 80 2A 10  .{....\.<.\.<.*.
2250: 66 92 06 01 9A 5B 80 80  63 92 06 01 63 92 06 01  f....[..c...c...
2260: 61 74 6D 32 5B F5 80 62  92 06 01 62 92 06 01 61  atm2[..b...b...a
2270: 74 6D 31 52 28 80 F0 FF  FF 7F F0 FF FF 7F 73 31  tm1R(.........s1
2280: 34 31 45 28 80 F0 FF FF  7F F0 FF FF 7F 73 31 34  41E(.........s14
2290: 32 01 80 29 10 F0 FF FF  7F 46 6C 61 92 06 01 01  2..).....Fla....
22A0: 80 03 80 BA F0 FF FF 7F  F7 80 F8 80 56 80 F9 80  ............V...
22B0: BA 5D 92 06 01 FA 80 FB  80 FC 80 F9 80 79 02 F0  .]...........y..
22C0: FF FF 7F FD 80 01 80 2B  62 92 06 01 FE 80 55 28  .......+b.....U(
22D0: 80 F0 FF FF 7F F0 FF FF  7F 73 31 34 32 45 28 80  .........s142E(.
22E0: F0 FF FF 7F F0 FF FF 7F  73 31 39 36 01 80 5B 80  ........s196..[.
22F0: 80 63 92 06 01 63 92 06  01 61 74 6D 6A 5B F5 80  .c...c...atmj[..
2300: 62 92 06 01 62 92 06 01  61 74 6D 32 79 02 F0 FF  b...b...atm2y...
2310: FF 7F FD 80 01 80 1C 4A  80 52 28 80 F0 FF FF 7F  .......J.R(.....
2320: F0 FF FF 7F 73 31 39 36  45 28 80 F0 FF FF 7F F0  ....s196E(......
2330: FF FF 7F 62 6C 6F 6E 01  80 45 28 80 F0 FF FF 7F  ...blon..E(.....
2340: F0 FF FF 7F 73 31 39 38  01 80 27 10 F0 FF FF 7F  ....s198..'.....
2350: 52 1C 4E 80 02 02 10 03  80 80 7F 23 52 28 80 F0  R.N........#R(..
2360: FF FF 7F F0 FF FF 7F 73  31 39 38 45 28 80 F0 FF  .......s198E(...
2370: FF 7F F0 FF FF 7F 73 68  6D 34 01 80 01 AC 24 02  ......shm4....$.
2380: 02 10 05 80 80 AA 23 52  28 80 F0 FF FF 7F F0 FF  ......#R(.......
2390: FF 7F 73 31 39 38 45 28  80 F0 FF FF 7F F0 FF FF  ..s198E(........
23A0: 7F 73 68 6D 34 01 80 01  AC 24 02 02 10 32 80 80  .shm4....$...2..
23B0: D5 23 52 28 80 F0 FF FF  7F F0 FF FF 7F 73 31 39  .#R(.........s19
23C0: 38 45 28 80 F0 FF FF 7F  F0 FF FF 7F 73 65 6D 34  8E(.........sem4
23D0: 01 80 01 AC 24 02 02 10  33 80 80 00 24 52 28 80  ....$...3...$R(.
23E0: F0 FF FF 7F F0 FF FF 7F  73 31 39 38 45 28 80 F0  ........s198E(..
23F0: FF FF 7F F0 FF FF 7F 73  65 6D 34 01 80 01 AC 24  .......sem4....$
2400: 02 02 10 34 80 80 2B 24  52 28 80 F0 FF FF 7F F0  ...4..+$R(......
2410: FF FF 7F 73 31 39 38 45  28 80 F0 FF FF 7F F0 FF  ...s198E(.......
2420: FF 7F 73 74 72 34 01 80  01 AC 24 02 02 10 35 80  ..str4....$...5.
2430: 80 56 24 52 28 80 F0 FF  FF 7F F0 FF FF 7F 73 31  .V$R(.........s1
2440: 39 38 45 28 80 F0 FF FF  7F F0 FF FF 7F 73 74 72  98E(.........str
2450: 34 01 80 01 AC 24 02 02  10 36 80 80 81 24 52 28  4....$...6...$R(
2460: 80 F0 FF FF 7F F0 FF FF  7F 73 31 39 38 45 28 80  .........s198E(.
2470: F0 FF FF 7F F0 FF FF 7F  73 6D 74 34 01 80 01 AC  ........smt4....
2480: 24 02 02 10 2A 80 80 AC  24 52 28 80 F0 FF FF 7F  $...*...$R(.....
2490: F0 FF FF 7F 73 31 39 38  45 28 80 F0 FF FF 7F F0  ....s198E(......
24A0: FF FF 7F 73 67 6C 34 01  80 01 AC 24 1C 06 80 1A  ...sgl4....$....
24B0: B7 01 24 FF 80 01 80 01  80 25 02 00 10 01 80 00  ..$......%......
24C0: C5 24 01 D0 24 02 00 10  03 80 00 D0 24 01 D0 24  .$..$.......$..$
24D0: 52 28 80 F0 FF FF 7F F0  FF FF 7F 73 68 6D 34 52  R(.........shm4R
24E0: 28 80 F0 FF FF 7F F0 FF  FF 7F 73 65 6D 34 52 28  (.........sem4R(
24F0: 80 F0 FF FF 7F F0 FF FF  7F 73 74 72 34 52 28 80  .........str4R(.
2500: F0 FF FF 7F F0 FF FF 7F  73 6D 74 34 52 28 80 F0  ........smt4R(..
2510: FF FF 7F F0 FF FF 7F 73  67 6C 34 5B 00 81 62 92  .......sgl4[..b.
2520: 06 01 62 92 06 01 74 6F  62 30 1C 03 80 45 28 80  ..b...tob0...E(.
2530: F0 FF FF 7F F0 FF FF 7F  73 31 34 33 01 80 1A 96  ........s143....
2540: 01 BB 01 81 62 92 06 01  63 92 06 01 73 74 30 32  ....b...c...st02
2550: 01 80 5B 00 81 62 92 06  01 62 92 06 01 74 6F 62  ..[..b...b...tob
2560: 31 2B 62 92 06 01 02 81  55 28 80 F0 FF FF 7F F0  1+b.....U(......
2570: FF FF 7F 73 31 34 33 45  28 80 F0 FF FF 7F F0 FF  ...s143E(.......
2580: FF 7F 73 31 33 36 01 80  5D 01 80 29 80 1C 4A 80  ..s136..]..)..J.
2590: 1A 64 00 6C 61 92 06 01  F1 80 03 80 2C 63 92 06  .d.la.......,c..
25A0: 01 63 92 06 01 65 66 6F  6E 52 28 80 F0 FF FF 7F  .c...efonR(.....
25B0: F0 FF FF 7F 73 31 33 36  45 28 80 F0 FF FF 7F F0  ....s136E(......
25C0: FF FF 7F 62 6C 6F 66 01  80 C5 B5 80 72 92 06 01  ...blof.....r...
25D0: 72 92 06 01 6B 69 6C 30  01 80 C5 B5 80 73 92 06  r...kil0.....s..
25E0: 01 73 92 06 01 6B 69 6C  31 01 80 C5 B5 80 74 92  .s...kil1.....t.
25F0: 06 01 74 92 06 01 6B 69  6C 30 01 80 C5 B5 80 75  ..t...kil0.....u
2600: 92 06 01 75 92 06 01 6B  69 6C 31 01 80 C5 B6 80  ...u...kil1.....
2610: 76 92 06 01 76 92 06 01  6B 69 6C 30 01 80 C5 B6  v...v...kil0....
2620: 80 77 92 06 01 77 92 06  01 6B 69 6C 30 01 80 C5  .w...w...kil0...
2630: B6 80 78 92 06 01 78 92  06 01 6B 69 6C 31 01 80  ..x...x...kil1..
2640: C5 B6 80 79 92 06 01 79  92 06 01 6B 69 6C 32 01  ...y...y...kil2.
2650: 80 34 03 81 77 61 80 03  80 AB 09 1C 62 80 4E 01  .4..wa......b.N.
2660: 5D 92 06 01 4E 01 65 92  06 01 4E 01 61 92 06 01  ]...N.e...N.a...
2670: 4E 01 5F 92 06 01 4E 01  60 92 06 01 4E 01 5E 92  N._...N.`...N.^.
2680: 06 01 4E 01 63 92 06 01  4E 01 68 92 06 01 4E 01  ..N.c...N.h...N.
2690: 69 92 06 01 4E 01 6A 92  06 01 4E 01 6B 92 06 01  i...N.j...N.k...
26A0: 4E 01 6C 92 06 01 4E 01  6D 92 06 01 4E 01 6E 92  N.l...N.m...N.n.
26B0: 06 01 4E 01 6F 92 06 01  4E 01 70 92 06 01 4E 01  ..N.o...N.p...N.
26C0: 71 92 06 01 4E 01 72 92  06 01 4E 01 73 92 06 01  q...N.r...N.s...
26D0: 4E 01 74 92 06 01 4E 01  75 92 06 01 4E 01 76 92  N.t...N.u...N.v.
26E0: 06 01 4E 01 77 92 06 01  4E 01 78 92 06 01 4E 01  ..N.w...N.x...N.
26F0: 79 92 06 01 27 10 67 92  06 01 04 27 10 62 92 06  y...'.g....'.b..
2700: 01 04 27 10 64 92 06 01  04 92 01 67 92 06 01 92  ..'.d......g....
2710: 01 62 92 06 01 92 01 64  92 06 01 94 01 F0 FF FF  .b.....d........
2720: 7F 94 01 67 92 06 01 94  01 62 92 06 01 94 01 64  ...g.....b.....d
2730: 92 06 01 BA F0 FF FF 7F  04 81 05 81 06 81 07 81  ................
2740: BA 67 92 06 01 08 81 09  81 0A 81 07 81 BA 62 92  .g............b.
2750: 06 01 0B 81 0C 81 0D 81  0E 81 7B F0 FF FF 7F 7B  ..........{....{
2760: 67 92 06 01 7B 62 92 06  01 7B 64 92 06 01 80 F0  g...{b...{d.....
2770: FF FF 7F 80 67 92 06 01  80 62 92 06 01 80 64 92  ....g....b....d.
2780: 06 01 5B 0F 81 62 92 06  01 62 92 06 01 6F 6B 69  ..[..b...b...oki
2790: 30 1C 62 80 45 28 80 F0  FF FF 7F F0 FF FF 7F 73  0.b.E(.........s
27A0: 31 34 34 01 80 1A 43 00  1C 4E 80 2B 62 92 06 01  144...C..N.+b...
27B0: 10 81 23 2B 62 92 06 01  11 81 23 1C 4E 80 52 28  ..#+b.....#.N.R(
27C0: 80 F0 FF FF 7F F0 FF FF  7F 73 31 34 34 45 28 80  .........s144E(.
27D0: F0 FF FF 7F F0 FF FF 7F  73 31 38 35 01 80 2B 62  ........s185..+b
27E0: 92 06 01 12 81 5B 0F 81  62 92 06 01 62 92 06 01  .....[..b...b...
27F0: 6F 6B 69 31 1C 3C 80 52  28 80 F0 FF FF 7F F0 FF  oki1.<.R(.......
2800: FF 7F 73 31 38 35 45 28  80 F0 FF FF 7F F0 FF FF  ..s185E(........
2810: 7F 73 31 34 35 01 80 27  10 67 92 06 01 09 1C 5F  .s145..'.g....._
2820: 80 52 28 80 F0 FF FF 7F  F0 FF FF 7F 73 31 34 35  .R(.........s145
2830: 45 28 80 F0 FF FF 7F F0  FF FF 7F 73 31 34 36 01  E(.........s146.
2840: 80 2B 62 92 06 01 13 81  1C 4E 80 5C 00 14 81 5C  .+b......N.\...\
2850: 01 14 81 9A 52 28 80 F0  FF FF 7F F0 FF FF 7F 73  ....R(.........s
2860: 31 34 36 45 28 80 F0 FF  FF 7F F0 FF FF 7F 73 31  146E(.........s1
2870: 38 34 01 80 BA 66 92 06  01 15 81 16 81 17 81 07  84...f..........
2880: 81 2A 10 67 92 06 01 5B  18 81 66 92 06 01 66 92  .*.g...[..f...f.
2890: 06 01 62 74 6C 73 5B 18  81 67 92 06 01 67 92 06  ..btls[..g...g..
28A0: 01 62 74 6C 30 55 28 80  F0 FF FF 7F F0 FF FF 7F  .btl0U(.........
28B0: 73 31 38 34 45 28 80 F0  FF FF 7F F0 FF FF 7F 73  s184E(.........s
28C0: 31 38 38 01 80 59 05 62  92 06 01 01 5B 0F 81 62  188..Y.b....[..b
28D0: 92 06 01 62 92 06 01 75  72 6F 30 1C 2D 80 BA 62  ...b...uro0.-..b
28E0: 92 06 01 19 81 1A 81 01  80 1B 81 55 28 80 F0 FF  ...........U(...
28F0: FF 7F F0 FF FF 7F 73 31  38 38 45 28 80 F0 FF FF  ......s188E(....
2900: 7F F0 FF FF 7F 73 31 34  37 01 80 2B 62 92 06 01  .....s147..+b...
2910: 1C 81 23 52 28 80 F0 FF  FF 7F F0 FF FF 7F 73 31  ..#R(.........s1
2920: 34 37 45 28 80 F0 FF FF  7F F0 FF FF 7F 73 31 34  47E(.........s14
2930: 38 01 80 5D 01 80 2B 80  2B 62 92 06 01 1D 81 23  8..]..+.+b.....#
2940: 1A 64 00 52 28 80 F0 FF  FF 7F F0 FF FF 7F 73 31  .d.R(.........s1
2950: 34 38 34 60 80 77 61 80  03 80 AB 09 1C 62 80 4E  484`.wa......b.N
2960: 01 64 92 06 01 4E 01 67  92 06 01 4E 01 65 92 06  .d...N.g...N.e..
2970: 01 6C 62 92 06 01 01 80  03 80 27 10 5D 92 06 01  .lb.......'.]...
2980: 04 27 10 61 92 06 01 04  27 10 5F 92 06 01 04 27  .'.a....'._....'
2990: 10 60 92 06 01 04 27 10  5E 92 06 01 04 27 10 63  .`....'.^....'.c
29A0: 92 06 01 04 27 10 68 92  06 01 04 27 10 69 92 06  ....'.h....'.i..
29B0: 01 04 27 10 6A 92 06 01  04 27 10 6B 92 06 01 04  ..'.j....'.k....
29C0: 27 10 6C 92 06 01 04 27  10 6D 92 06 01 04 27 10  '.l....'.m....'.
29D0: 6E 92 06 01 04 27 10 6F  92 06 01 04 27 10 70 92  n....'.o....'.p.
29E0: 06 01 04 27 10 71 92 06  01 04 27 10 72 92 06 01  ...'.q....'.r...
29F0: 04 27 10 73 92 06 01 04  27 10 74 92 06 01 04 27  .'.s....'.t....'
2A00: 10 75 92 06 01 04 27 10  76 92 06 01 04 27 10 77  .u....'.v....'.w
2A10: 92 06 01 04 27 10 78 92  06 01 04 27 10 79 92 06  ....'.x....'.y..
2A20: 01 04 92 01 5D 92 06 01  92 01 5F 92 06 01 92 01  ....]....._.....
2A30: 60 92 06 01 92 01 5E 92  06 01 92 01 63 92 06 01  `.....^.....c...
2A40: 92 01 68 92 06 01 92 01  69 92 06 01 92 01 6A 92  ..h.....i.....j.
2A50: 06 01 92 01 6B 92 06 01  92 01 6C 92 06 01 92 01  ....k.....l.....
2A60: 6D 92 06 01 92 01 6E 92  06 01 92 01 6F 92 06 01  m.....n.....o...
2A70: 92 01 70 92 06 01 92 01  71 92 06 01 92 01 72 92  ..p.....q.....r.
2A80: 06 01 92 01 73 92 06 01  92 01 74 92 06 01 92 01  ....s.....t.....
2A90: 75 92 06 01 92 01 76 92  06 01 92 01 77 92 06 01  u.....v.....w...
2AA0: 92 01 78 92 06 01 92 01  79 92 06 01 94 01 F0 FF  ..x.....y.......
2AB0: FF 7F 94 01 5D 92 06 01  94 01 5F 92 06 01 94 01  ....]....._.....
2AC0: 60 92 06 01 94 01 5E 92  06 01 94 01 63 92 06 01  `.....^.....c...
2AD0: 94 01 62 92 06 01 94 01  68 92 06 01 94 01 69 92  ..b.....h.....i.
2AE0: 06 01 94 01 6A 92 06 01  94 01 6B 92 06 01 94 01  ....j.....k.....
2AF0: 6C 92 06 01 94 01 6D 92  06 01 94 01 6E 92 06 01  l.....m.....n...
2B00: 94 01 6F 92 06 01 94 01  70 92 06 01 94 01 71 92  ..o.....p.....q.
2B10: 06 01 94 01 72 92 06 01  94 01 73 92 06 01 94 01  ....r.....s.....
2B20: 74 92 06 01 94 01 75 92  06 01 94 01 76 92 06 01  t.....u.....v...
2B30: 94 01 77 92 06 01 94 01  78 92 06 01 94 01 79 92  ..w.....x.....y.
2B40: 06 01 BA F0 FF FF 7F 1E  81 1F 81 20 81 21 81 BA  ........... .!..
2B50: 5D 92 06 01 22 81 23 81  24 81 6A 80 BA 5F 92 06  ]...".#.$.j.._..
2B60: 01 25 81 26 81 27 81 13  80 BA 60 92 06 01 28 81  .%.&.'....`...(.
2B70: 29 81 2A 81 A4 80 BA 5E  92 06 01 2B 81 2C 81 2D  ).*....^...+.,.-
2B80: 81 A4 80 BA 61 92 06 01  2E 81 2F 81 30 81 A4 80  ....a...../.0...
2B90: BA 68 92 06 01 BF 80 C0  80 C1 80 A4 80 BA 69 92  .h............i.
2BA0: 06 01 C2 80 C3 80 C4 80  A4 80 BA 6A 92 06 01 C5  ...........j....
2BB0: 80 C6 80 C7 80 66 80 BA  6B 92 06 01 C8 80 C9 80  .....f..k.......
2BC0: CA 80 A4 80 BA 6C 92 06  01 CB 80 CC 80 CD 80 A4  .....l..........
2BD0: 80 BA 6D 92 06 01 CE 80  CF 80 D0 80 66 80 BA 6E  ..m.........f..n
2BE0: 92 06 01 D1 80 D2 80 D3  80 0B 80 BA 6F 92 06 01  ............o...
2BF0: D4 80 D5 80 D6 80 A4 80  BA 70 92 06 01 D7 80 D8  .........p......
2C00: 80 D9 80 A4 80 BA 71 92  06 01 DA 80 DB 80 DC 80  ......q.........
2C10: A4 80 BA 72 92 06 01 A2  80 A3 80 01 80 A4 80 BA  ...r............
2C20: 73 92 06 01 A2 80 A3 80  01 80 A4 80 BA 74 92 06  s............t..
2C30: 01 A5 80 A6 80 A7 80 66  80 BA 75 92 06 01 A5 80  .......f..u.....
2C40: A6 80 A7 80 66 80 BA 76  92 06 01 A8 80 A9 80 01  ....f..v........
2C50: 80 66 80 BA 77 92 06 01  AA 80 AB 80 01 80 5B 80  .f..w.........[.
2C60: BA 78 92 06 01 AC 80 AD  80 AE 80 AF 80 BA 79 92  .x............y.
2C70: 06 01 B0 80 B1 80 01 80  66 80 4A F0 FF FF 7F 5D  ........f.J....]
2C80: 92 06 01 4A 68 92 06 01  5D 92 06 01 4A 69 92 06  ...Jh...]...Ji..
2C90: 01 5D 92 06 01 4A 6A 92  06 01 5D 92 06 01 4A 6B  .]...Jj...]...Jk
2CA0: 92 06 01 5D 92 06 01 4A  6C 92 06 01 5D 92 06 01  ...]...Jl...]...
2CB0: 4A 6D 92 06 01 5D 92 06  01 4A 6E 92 06 01 5D 92  Jm...]...Jn...].
2CC0: 06 01 4A 6F 92 06 01 5D  92 06 01 4A 70 92 06 01  ..Jo...]...Jp...
2CD0: 5D 92 06 01 4A 71 92 06  01 5D 92 06 01 4A 5F 92  ]...Jq...]...J_.
2CE0: 06 01 5D 92 06 01 4A 5E  92 06 01 5D 92 06 01 4A  ..]...J^...]...J
2CF0: 60 92 06 01 5D 92 06 01  4A 61 92 06 01 5D 92 06  `...]...Ja...]..
2D00: 01 7B F0 FF FF 7F 7B 5D  92 06 01 7B 5F 92 06 01  .{....{]...{_...
2D10: 7B 60 92 06 01 7B 5E 92  06 01 7B 63 92 06 01 80  {`...{^...{c....
2D20: F0 FF FF 7F 80 5D 92 06  01 80 5F 92 06 01 80 60  .....]...._....`
2D30: 92 06 01 80 5E 92 06 01  80 63 92 06 01 80 62 92  ....^....c....b.
2D40: 06 01 80 68 92 06 01 80  69 92 06 01 80 6A 92 06  ...h....i....j..
2D50: 01 80 6B 92 06 01 80 6C  92 06 01 80 6D 92 06 01  ..k....l....m...
2D60: 80 6E 92 06 01 80 6F 92  06 01 80 70 92 06 01 80  .n....o....p....
2D70: 71 92 06 01 80 72 92 06  01 80 73 92 06 01 80 74  q....r....s....t
2D80: 92 06 01 80 75 92 06 01  80 76 92 06 01 80 77 92  ....u....v....w.
2D90: 06 01 80 78 92 06 01 80  79 92 06 01 1C 34 80 C5  ...x....y....4..
2DA0: B5 80 72 92 06 01 72 92  06 01 73 30 30 30 01 80  ..r...r...s000..
2DB0: C5 B5 80 73 92 06 01 73  92 06 01 73 30 30 31 01  ...s...s...s001.
2DC0: 80 C5 B5 80 74 92 06 01  74 92 06 01 73 30 30 30  ....t...t...s000
2DD0: 01 80 C5 B5 80 75 92 06  01 75 92 06 01 73 30 30  .....u...u...s00
2DE0: 31 01 80 C5 B6 80 76 92  06 01 76 92 06 01 73 30  1.....v...v...s0
2DF0: 30 30 01 80 C5 B6 80 77  92 06 01 77 92 06 01 73  00.....w...w...s
2E00: 30 30 30 01 80 C5 B6 80  78 92 06 01 78 92 06 01  000.....x...x...
2E10: 73 30 30 31 01 80 C5 B6  80 79 92 06 01 79 92 06  s001.....y...y..
2E20: 01 73 30 30 32 01 80 6B  69 64 6C 30 5D 92 06 01  .s002..kidl0]...
2E30: 6B 69 64 6C 30 5F 92 06  01 1C 34 80 6E 68 92 06  kidl0_....4.nh..
2E40: 01 36 80 99 68 92 06 01  6E 6A 92 06 01 2A 80 99  .6..h...nj...*..
2E50: 6A 92 06 01 6E 6C 92 06  01 35 80 99 6C 92 06 01  j...nl...5..l...
2E60: 6E 6E 92 06 01 F3 80 99  6E 92 06 01 6E 71 92 06  nn......n...nq..
2E70: 01 31 81 99 71 92 06 01  6E 68 92 06 01 26 80 99  .1..q...nh...&..
2E80: 68 92 06 01 6E 6A 92 06  01 39 80 99 6A 92 06 01  h...nj...9..j...
2E90: 6E 6C 92 06 01 32 81 99  6C 92 06 01 6E 6E 92 06  nl...2..l...nn..
2EA0: 01 B9 80 99 6E 92 06 01  6E 71 92 06 01 01 80 99  ....n...nq......
2EB0: 71 92 06 01 5C 00 B7 80  5C 01 B7 80 1C 06 80 9A  q...\...\.......
2EC0: 45 28 80 F0 FF FF 7F F0  FF FF 7F 73 31 34 39 01  E(.........s149.
2ED0: 80 1A 43 00 1C 2B 80 52  28 80 F0 FF FF 7F F0 FF  ..C..+.R(.......
2EE0: FF 7F 73 31 34 39 45 28  80 F0 FF FF 7F F0 FF FF  ..s149E(........
2EF0: 7F 73 31 35 30 01 80 66  B9 80 5E 92 06 01 5E 92  .s150..f..^...^.
2F00: 06 01 74 6C 6B 30 2B 5E  92 06 01 33 81 23 52 28  ..tlk0+^...3.#R(
2F10: 80 F0 FF FF 7F F0 FF FF  7F 73 31 35 30 45 28 80  .........s150E(.
2F20: F0 FF FF 7F F0 FF FF 7F  73 31 35 31 01 80 66 B9  ........s151..f.
2F30: 80 5E 92 06 01 5E 92 06  01 74 6C 6B 31 5B 34 81  .^...^...tlk1[4.
2F40: 5D 92 06 01 5D 92 06 01  75 64 65 30 2B 5D 92 06  ]...]...ude0+]..
2F50: 01 35 81 23 03 02 10 2B  80 27 10 66 92 06 01 0D  .5.#...+.'.f....
2F60: 2A 10 66 92 06 01 52 28  80 F0 FF FF 7F F0 FF FF  *.f...R(........
2F70: 7F 73 31 35 31 45 28 80  F0 FF FF 7F F0 FF FF 7F  .s151E(.........
2F80: 73 31 35 33 01 80 2B 5D  92 06 01 36 81 23 52 28  s153..+]...6.#R(
2F90: 80 F0 FF FF 7F F0 FF FF  7F 73 31 35 33 45 28 80  .........s153E(.
2FA0: F0 FF FF 7F F0 FF FF 7F  73 31 35 34 01 80 2B 5D  ........s154..+]
2FB0: 92 06 01 37 81 23 52 28  80 F0 FF FF 7F F0 FF FF  ...7.#R(........
2FC0: 7F 73 31 35 34 45 28 80  F0 FF FF 7F F0 FF FF 7F  .s154E(.........
2FD0: 73 31 35 35 01 80 2B 5D  92 06 01 38 81 23 5B B8  s155..+]...8.#[.
2FE0: 80 5F 92 06 01 5F 92 06  01 74 6C 62 30 52 28 80  ._..._...tlb0R(.
2FF0: F0 FF FF 7F F0 FF FF 7F  73 31 35 35 45 28 80 F0  ........s155E(..
3000: FF FF 7F F0 FF FF 7F 73  31 35 36 01 80 03 02 10  .......s156.....
3010: 2B 80 27 10 66 92 06 01  0D 2B 5F 92 06 01 39 81  +.'.f....+_...9.
3020: 23 2A 10 66 92 06 01 52  28 80 F0 FF FF 7F F0 FF  #*.f...R(.......
3030: FF 7F 73 31 35 36 45 28  80 F0 FF FF 7F F0 FF FF  ..s156E(........
3040: 7F 73 31 35 37 01 80 5B  B8 80 5F 92 06 01 5F 92  .s157..[.._..._.
3050: 06 01 74 6C 62 31 2B 5E  92 06 01 3A 81 23 5B B8  ..tlb1+^...:.#[.
3060: 80 60 92 06 01 60 92 06  01 74 6C 61 30 52 28 80  .`...`...tla0R(.
3070: F0 FF FF 7F F0 FF FF 7F  73 31 35 37 45 28 80 F0  ........s157E(..
3080: FF FF 7F F0 FF FF 7F 73  31 35 38 01 80 03 02 10  .......s158.....
3090: 2B 80 27 10 66 92 06 01  0D 2B 60 92 06 01 3B 81  +.'.f....+`...;.
30A0: 23 2A 10 66 92 06 01 52  28 80 F0 FF FF 7F F0 FF  #*.f...R(.......
30B0: FF 7F 73 31 35 38 45 28  80 F0 FF FF 7F F0 FF FF  ..s158E(........
30C0: 7F 73 31 35 39 01 80 5B  B8 80 60 92 06 01 60 92  .s159..[..`...`.
30D0: 06 01 74 6C 61 31 2B 5D  92 06 01 3C 81 23 52 28  ..tla1+]...<.#R(
30E0: 80 F0 FF FF 7F F0 FF FF  7F 73 31 35 39 45 28 80  .........s159E(.
30F0: F0 FF FF 7F F0 FF FF 7F  73 31 36 31 01 80 03 02  ........s161....
3100: 10 2B 80 27 10 66 92 06  01 0D 5B 34 81 5D 92 06  .+.'.f....[4.]..
3110: 01 5D 92 06 01 75 64 65  31 2B 5D 92 06 01 3D 81  .]...ude1+]...=.
3120: 23 2A 10 66 92 06 01 52  28 80 F0 FF FF 7F F0 FF  #*.f...R(.......
3130: FF 7F 73 31 36 31 45 28  80 F0 FF FF 7F F0 FF FF  ..s161E(........
3140: 7F 73 31 36 30 01 80 5B  3E 81 5D 92 06 01 5D 92  .s160..[>.]...].
3150: 06 01 74 6C 63 30 2B 5D  92 06 01 3F 81 23 2B 5D  ..tlc0+]...?.#+]
3160: 92 06 01 40 81 23 5C 00  5F 80 5C 01 5F 80 9A 52  ...@.#\._.\._..R
3170: 28 80 F0 FF FF 7F F0 FF  FF 7F 73 31 36 30 45 28  (.........s160E(
3180: 80 F0 FF FF 7F F0 FF FF  7F 73 31 36 32 01 80 5B  .........s162..[
3190: 3E 81 5D 92 06 01 5D 92  06 01 74 6C 63 31 6E 5E  >.]...]...tlc1n^
31A0: 92 06 01 34 80 99 5E 92  06 01 2B 5E 92 06 01 41  ...4..^...+^...A
31B0: 81 23 2B 5E 92 06 01 42  81 23 52 28 80 F0 FF FF  .#+^...B.#R(....
31C0: 7F F0 FF FF 7F 73 31 36  32 45 28 80 F0 FF FF 7F  .....s162E(.....
31D0: F0 FF FF 7F 73 31 36 33  01 80 27 10 6B 92 06 01  ....s163..'.k...
31E0: 0B 2B 6B 92 06 01 43 81  1C 4A 80 27 10 6C 92 06  .+k...C..J.'.l..
31F0: 01 0D 1C 05 80 27 10 6D  92 06 01 0D 1C 34 80 27  .....'.m.....4.'
3200: 10 6E 92 06 01 0D 1C 32  80 27 10 6F 92 06 01 0B  .n.....2.'.o....
3210: 1C 03 80 27 10 70 92 06  01 0B 1C 34 80 27 10 71  ...'.p.....4.'.q
3220: 92 06 01 0D 52 28 80 F0  FF FF 7F F0 FF FF 7F 73  ....R(.........s
3230: 31 36 33 45 28 80 F0 FF  FF 7F F0 FF FF 7F 73 31  163E(.........s1
3240: 36 34 01 80 27 10 6A 92  06 01 0D 2B 6A 92 06 01  64..'.j....+j...
3250: 44 81 1C 4E 80 27 10 69  92 06 01 0D 2B 69 92 06  D..N.'.i....+i..
3260: 01 45 81 27 10 68 92 06  01 0D BA 5D 92 06 01 25  .E.'.h.....]...%
3270: 81 26 81 27 81 46 81 6C  5D 92 06 01 01 80 03 80  .&.'.F.l].......
3280: 5B 47 81 5D 92 06 01 5D  92 06 01 61 6B 75 30 BA  [G.]...]...aku0.
3290: 60 92 06 01 22 81 23 81  24 81 6A 80 29 10 60 92  `...".#.$.j.).`.
32A0: 06 01 0D 4A 60 92 06 01  5F 92 06 01 7B 60 92 06  ...J`..._...{`..
32B0: 01 6C 63 92 06 01 01 80  03 80 2C 63 92 06 01 63  .lc.......,c...c
32C0: 92 06 01 65 66 6F 66 5B  48 81 5F 92 06 01 5F 92  ...efof[H._..._.
32D0: 06 01 66 67 30 31 BA 5F  92 06 01 25 81 26 81 27  ..fg01._...%.&.'
32E0: 81 46 81 1C 4A 80 52 28  80 F0 FF FF 7F F0 FF FF  .F..J.R(........
32F0: 7F 73 31 36 34 45 28 80  F0 FF FF 7F F0 FF FF 7F  .s164E(.........
3300: 73 31 36 36 01 80 03 02  10 2B 80 5B 48 81 5D 92  s166.....+.[H.].
3310: 06 01 5D 92 06 01 66 64  30 30 5B 48 81 60 92 06  ..]...fd00[H.`..
3320: 01 60 92 06 01 66 64 30  30 27 10 66 92 06 01 0D  .`...fd00'.f....
3330: 2B 5F 92 06 01 49 81 23  2B 5F 92 06 01 4A 81 23  +_...I.#+_...J.#
3340: 2A 10 66 92 06 01 52 28  80 F0 FF FF 7F F0 FF FF  *.f...R(........
3350: 7F 73 31 36 36 45 28 80  F0 FF FF 7F F0 FF FF 7F  .s166E(.........
3360: 73 31 36 37 01 80 1C 2D  80 5B 48 81 5F 92 06 01  s167...-.[H._...
3370: 5F 92 06 01 66 64 30 30  5B 48 81 60 92 06 01 60  _...fd00[H.`...`
3380: 92 06 01 66 64 30 31 5B  4B 81 60 92 06 01 60 92  ...fd01[K.`...`.
3390: 06 01 74 68 61 30 03 02  10 2B 80 27 10 66 92 06  ..tha0...+.'.f..
33A0: 01 0D 2B 5D 92 06 01 4C  81 23 2A 10 66 92 06 01  ..+]...L.#*.f...
33B0: 52 28 80 F0 FF FF 7F F0  FF FF 7F 73 31 36 37 45  R(.........s167E
33C0: 28 80 F0 FF FF 7F F0 FF  FF 7F 73 31 36 39 01 80  (.........s169..
33D0: 1C 2D 80 6C 5D 92 06 01  F1 80 03 80 5B 48 81 5F  .-.l].......[H._
33E0: 92 06 01 5F 92 06 01 66  30 30 30 6B 69 64 6C 30  ..._...f000kidl0
33F0: 60 92 06 01 BA 60 92 06  01 28 81 29 81 2A 81 A4  `....`...(.).*..
3400: 80 27 10 60 92 06 01 0E  4A 60 92 06 01 5D 92 06  .'.`....J`...]..
3410: 01 7B 60 92 06 01 5B 48  81 5D 92 06 01 5D 92 06  .{`...[H.]...]..
3420: 01 66 64 30 30 5B B8 80  5F 92 06 01 5F 92 06 01  .fd00[.._..._...
3430: 74 6C 61 30 2B 5F 92 06  01 4D 81 23 2B 5F 92 06  tla0+_...M.#+_..
3440: 01 4E 81 23 52 28 80 F0  FF FF 7F F0 FF FF 7F 73  .N.#R(.........s
3450: 31 36 39 45 28 80 F0 FF  FF 7F F0 FF FF 7F 73 31  169E(.........s1
3460: 36 38 01 80 5B 48 81 5F  92 06 01 5F 92 06 01 66  68..[H._..._...f
3470: 64 30 31 2B 5F 92 06 01  4F 81 23 5B 50 81 5F 92  d01+_...O.#[P._.
3480: 06 01 5F 92 06 01 61 6B  75 30 1C 4E 80 52 28 80  .._...aku0.N.R(.
3490: F0 FF FF 7F F0 FF FF 7F  73 31 36 38 45 28 80 F0  ........s168E(..
34A0: FF FF 7F F0 FF FF 7F 73  31 38 39 01 80 2B 5F 92  .......s189..+_.
34B0: 06 01 51 81 23 55 28 80  F0 FF FF 7F F0 FF FF 7F  ..Q.#U(.........
34C0: 73 31 38 39 45 28 80 F0  FF FF 7F F0 FF FF 7F 73  s189E(.........s
34D0: 31 37 30 01 80 5B 48 81  5F 92 06 01 5F 92 06 01  170..[H._..._...
34E0: 66 64 30 30 5B 48 81 5D  92 06 01 5D 92 06 01 66  fd00[H.]...]...f
34F0: 64 30 31 5B 50 81 5F 92  06 01 5F 92 06 01 61 6B  d01[P._..._...ak
3500: 75 31 5B 47 81 5D 92 06  01 5D 92 06 01 61 6B 75  u1[G.]...]...aku
3510: 31 2B 5D 92 06 01 52 81  55 28 80 F0 FF FF 7F F0  1+]...R.U(......
3520: FF FF 7F 73 31 37 30 45  28 80 F0 FF FF 7F F0 FF  ...s170E(.......
3530: FF 7F 73 31 39 30 01 80  55 28 80 F0 FF FF 7F F0  ..s190..U(......
3540: FF FF 7F 73 31 39 30 45  28 80 F0 FF FF 7F F0 FF  ...s190E(.......
3550: FF 7F 73 31 37 37 01 80  5B 48 81 5D 92 06 01 5D  ..s177..[H.]...]
3560: 92 06 01 66 64 30 30 55  28 80 F0 FF FF 7F F0 FF  ...fd00U(.......
3570: FF 7F 73 31 37 37 45 28  80 F0 FF FF 7F F0 FF FF  ..s177E(........
3580: 7F 73 31 37 36 01 80 55  28 80 F0 FF FF 7F F0 FF  .s176..U(.......
3590: FF 7F 73 31 37 36 45 28  80 F0 FF FF 7F F0 FF FF  ..s176E(........
35A0: 7F 73 31 37 38 01 80 1C  5F 80 27 10 6B 92 06 01  .s178..._.'.k...
35B0: 0B 1C 2D 80 27 10 6A 92  06 01 0D 1C 34 80 27 10  ..-.'.j.....4.'.
35C0: 69 92 06 01 0D 1C 2D 80  27 10 68 92 06 01 0D 1C  i.....-.'.h.....
35D0: 34 80 27 10 6C 92 06 01  0D 1C 2D 80 27 10 6D 92  4.'.l.....-.'.m.
35E0: 06 01 0D 1C 62 80 27 10  6E 92 06 01 0D 1C 2D 80  ....b.'.n.....-.
35F0: 27 10 6F 92 06 01 0B 1C  62 80 27 10 70 92 06 01  '.o.....b.'.p...
3600: 0B 6E 5E 92 06 01 36 80  99 5E 92 06 01 1C 2D 80  .n^...6..^....-.
3610: 27 10 71 92 06 01 0D 52  28 80 F0 FF FF 7F F0 FF  '.q....R(.......
3620: FF 7F 73 31 37 38 45 28  80 F0 FF FF 7F F0 FF FF  ..s178E(........
3630: 7F 73 31 37 33 01 80 1C  4A 80 52 28 80 F0 FF FF  .s173...J.R(....
3640: 7F F0 FF FF 7F 73 31 37  33 45 28 80 F0 FF FF 7F  .....s173E(.....
3650: F0 FF FF 7F 73 31 37 34  01 80 1C 3F 80 5B 53 81  ....s174...?.[S.
3660: 60 92 06 01 60 92 06 01  79 65 73 30 27 10 5D 92  `...`...yes0'.].
3670: 06 01 14 27 10 5F 92 06  01 10 1C 2D 80 52 28 80  ...'._.....-.R(.
3680: F0 FF FF 7F F0 FF FF 7F  73 31 37 34 45 28 80 F0  ........s174E(..
3690: FF FF 7F F0 FF FF 7F 73  31 37 31 01 80 1C 4A 80  .......s171...J.
36A0: 52 28 80 F0 FF FF 7F F0  FF FF 7F 73 31 37 31 45  R(.........s171E
36B0: 28 80 F0 FF FF 7F F0 FF  FF 7F 73 31 37 32 01 80  (.........s172..
36C0: 1C 4A 80 29 10 F0 FF FF  7F 46 02 02 10 03 80 80  .J.).....F......
36D0: F5 36 52 28 80 F0 FF FF  7F F0 FF FF 7F 73 31 37  .6R(.........s17
36E0: 32 45 28 80 F0 FF FF 7F  F0 FF FF 7F 73 68 6D 36  2E(.........shm6
36F0: 01 80 01 22 38 02 02 10  05 80 80 20 37 52 28 80  ..."8...... 7R(.
3700: F0 FF FF 7F F0 FF FF 7F  73 31 37 32 45 28 80 F0  ........s172E(..
3710: FF FF 7F F0 FF FF 7F 73  68 6D 36 01 80 01 22 38  .......shm6..."8
3720: 02 02 10 32 80 80 4B 37  52 28 80 F0 FF FF 7F F0  ...2..K7R(......
3730: FF FF 7F 73 31 37 32 45  28 80 F0 FF FF 7F F0 FF  ...s172E(.......
3740: FF 7F 73 65 6D 36 01 80  01 22 38 02 02 10 33 80  ..sem6..."8...3.
3750: 80 76 37 52 28 80 F0 FF  FF 7F F0 FF FF 7F 73 31  .v7R(.........s1
3760: 37 32 45 28 80 F0 FF FF  7F F0 FF FF 7F 73 65 6D  72E(.........sem
3770: 36 01 80 01 22 38 02 02  10 34 80 80 A1 37 52 28  6..."8...4...7R(
3780: 80 F0 FF FF 7F F0 FF FF  7F 73 31 37 32 45 28 80  .........s172E(.
3790: F0 FF FF 7F F0 FF FF 7F  73 74 72 36 01 80 01 22  ........str6..."
37A0: 38 02 02 10 35 80 80 CC  37 52 28 80 F0 FF FF 7F  8...5...7R(.....
37B0: F0 FF FF 7F 73 31 37 32  45 28 80 F0 FF FF 7F F0  ....s172E(......
37C0: FF FF 7F 73 74 72 36 01  80 01 22 38 02 02 10 36  ...str6..."8...6
37D0: 80 80 F7 37 52 28 80 F0  FF FF 7F F0 FF FF 7F 73  ...7R(.........s
37E0: 31 37 32 45 28 80 F0 FF  FF 7F F0 FF FF 7F 73 6D  172E(.........sm
37F0: 74 36 01 80 01 22 38 02  02 10 2A 80 80 22 38 52  t6..."8...*.."8R
3800: 28 80 F0 FF FF 7F F0 FF  FF 7F 73 31 37 32 45 28  (.........s172E(
3810: 80 F0 FF FF 7F F0 FF FF  7F 73 67 6C 36 01 80 01  .........sgl6...
3820: 22 38 6E F0 FF FF 7F 36  80 99 F0 FF FF 7F 1C 4A  "8n....6.......J
3830: 80 52 28 80 F0 FF FF 7F  F0 FF FF 7F 73 68 6D 36  .R(.........shm6
3840: 52 28 80 F0 FF FF 7F F0  FF FF 7F 73 65 6D 36 52  R(.........sem6R
3850: 28 80 F0 FF FF 7F F0 FF  FF 7F 73 74 72 36 52 28  (.........str6R(
3860: 80 F0 FF FF 7F F0 FF FF  7F 73 6D 74 36 52 28 80  .........smt6R(.
3870: F0 FF FF 7F F0 FF FF 7F  73 67 6C 36 45 28 80 F0  ........sgl6E(..
3880: FF FF 7F F0 FF FF 7F 73  31 37 35 01 80 1C 4A 80  .......s175...J.
3890: 52 28 80 F0 FF FF 7F F0  FF FF 7F 73 31 37 35 45  R(.........s175E
38A0: 28 80 F0 FF FF 7F F0 FF  FF 7F 73 31 37 39 01 80  (.........s179..
38B0: 1C 54 81 5D 01 80 29 80  45 00 80 F0 FF FF 7F F0  .T.]..).E.......
38C0: FF FF 7F 66 64 6F 32 01  80 55 00 80 F0 FF FF 7F  ...fdo2..U......
38D0: F0 FF FF 7F 66 64 6F 32  52 28 80 F0 FF FF 7F F0  ....fdo2R(......
38E0: FF FF 7F 73 31 37 39 4E  00 16 92 06 01 27 10 5D  ...s179N.....'.]
38F0: 92 06 01 15 27 10 5F 92  06 01 11 4E 01 67 92 06  ....'._....N.g..
3900: 01 4E 01 65 92 06 01 4E  01 7A 92 06 01 4E 01 5E  .N.e...N.z...N.^
3910: 92 06 01 4E 01 62 92 06  01 4E 01 64 92 06 01 4E  ...N.b...N.d...N
3920: 01 68 92 06 01 4E 01 69  92 06 01 4E 01 6A 92 06  .h...N.i...N.j..
3930: 01 4E 01 6B 92 06 01 4E  01 6C 92 06 01 4E 01 6D  .N.k...N.l...N.m
3940: 92 06 01 4E 01 6E 92 06  01 4E 01 6F 92 06 01 4E  ...N.n...N.o...N
3950: 01 70 92 06 01 4E 01 71  92 06 01 4E 01 72 92 06  .p...N.q...N.r..
3960: 01 4E 01 73 92 06 01 4E  01 74 92 06 01 4E 01 75  .N.s...N.t...N.u
3970: 92 06 01 4E 01 76 92 06  01 4E 01 77 92 06 01 4E  ...N.v...N.w...N
3980: 01 78 92 06 01 4E 01 79  92 06 01 C5 B5 80 72 92  .x...N.y......r.
3990: 06 01 72 92 06 01 6B 69  6C 30 01 80 C5 B5 80 73  ..r...kil0.....s
39A0: 92 06 01 73 92 06 01 6B  69 6C 31 01 80 C5 B5 80  ...s...kil1.....
39B0: 74 92 06 01 74 92 06 01  6B 69 6C 30 01 80 C5 B5  t...t...kil0....
39C0: 80 75 92 06 01 75 92 06  01 6B 69 6C 31 01 80 C5  .u...u...kil1...
39D0: B6 80 76 92 06 01 76 92  06 01 6B 69 6C 30 01 80  ..v...v...kil0..
39E0: C5 B6 80 77 92 06 01 77  92 06 01 6B 69 6C 30 01  ...w...w...kil0.
39F0: 80 C5 B6 80 78 92 06 01  78 92 06 01 6B 69 6C 31  ....x...x...kil1
3A00: 01 80 C5 B6 80 79 92 06  01 79 92 06 01 6B 69 6C  .....y...y...kil
3A10: 32 01 80 78 46 00 02 00  00 03 80 00 48 3A 34 03  2..xF.......H:4.
3A20: 81 78 AB 09 1C 62 80 AB  11 01 80 1C 03 80 5C 00  .x...b........\.
3A30: 55 81 5C 01 55 81 9A 45  00 80 F0 FF FF 7F F0 FF  U.\.U..E........
3A40: FF 7F 66 64 69 32 01 80  AB 11 01 80 78 46 00 21  ..fdi2......xF.!
3A50: 00                                                .               
```

#### Opcodes

```
  0: 0x0292 [0x03] ExtData[1]->WorkLocal[0] = Work_Zone[9]
  1: 0x0297 [0x42] SET_CLI_EVENT_CANCEL_DATA()
  2: 0x0298 [0x1A] CALL_SUBROUTINE(address=0x0064)
  3: 0x029B [0x46] CAMERA_CONTROL: Disable user control
  4: 0x029D [0x38] SET_CLIENT_EVENT_MODE(mode=19*)
  5: 0x02A0 [0x27] REQ_SET(priority=0x10, entity_id=Excenmille (ID: 17207901/0x0106925D), tag_num=0x04)
  6: 0x02A7 [0x27] REQ_SET(priority=0x10, entity_id=Rahal (ID: 17207903/0x0106925F), tag_num=0x04)
  7: 0x02AE [0x27] REQ_SET(priority=0x10, entity_id=Bistillot (ID: 17207905/0x01069261), tag_num=0x04)
  8: 0x02B5 [0x27] REQ_SET(priority=0x10, entity_id=Bostillette (ID: 17207909/0x01069265), tag_num=0x04)
  9: 0x02BC [0x27] REQ_SET(priority=0x10, entity_id=Zogbog (ID: 17207906/0x01069262), tag_num=0x02)
 10: 0x02C3 [0x27] REQ_SET(priority=0x10, entity_id=Cavernous Maw (ID: 17207908/0x01069264), tag_num=0x04)
 11: 0x02CA [0x27] REQ_SET(priority=0x10, entity_id=??? (ID: 17207910/0x01069266), tag_num=0x04)
 12: 0x02D1 [0x92] Excenmille (ID: 17207901/0x0106925D)->Render.Flags3 ^= 0x01
 13: 0x02D7 [0x92] Rahal (ID: 17207903/0x0106925F)->Render.Flags3 ^= 0x01
 14: 0x02DD [0x92] Bistillot (ID: 17207905/0x01069261)->Render.Flags3 ^= 0x01
 15: 0x02E3 [0x92] Bostillette (ID: 17207909/0x01069265)->Render.Flags3 ^= 0x01
 16: 0x02E9 [0x92] Zogbog (ID: 17207906/0x01069262)->Render.Flags3 ^= 0x01
 17: 0x02EF [0x92] Cavernous Maw (ID: 17207908/0x01069264)->Render.Flags3 ^= 0x01
 18: 0x02F5 [0x92] ??? (ID: 17207910/0x01069266)->Render.Flags3 ^= 0x01
 19: 0x02FB [0x94] LocalPlayer->Render.Flags3 ^= 0x01
 20: 0x0301 [0x94] Excenmille (ID: 17207901/0x0106925D)->Render.Flags3 ^= 0x01
 21: 0x0307 [0x94] Rahal (ID: 17207903/0x0106925F)->Render.Flags3 ^= 0x01
 22: 0x030D [0x94] Bostillette (ID: 17207909/0x01069265)->Render.Flags3 ^= 0x01
 23: 0x0313 [0x94] Bistillot (ID: 17207905/0x01069261)->Render.Flags3 ^= 0x01
 24: 0x0319 [0x94] Zogbog (ID: 17207906/0x01069262)->Render.Flags3 ^= 0x01
 25: 0x031F [0x94] Cavernous Maw (ID: 17207908/0x01069264)->Render.Flags3 ^= 0x01
 26: 0x0325 [0x94] ??? (ID: 17207910/0x01069266)->Render.Flags3 ^= 0x01
 27: 0x032B [0x59] UPDATE_ENTITY_DATA: Excenmille (ID: 17207901/0x0106925D)->Render.Flags0 |= 0x200000
 28: 0x0332 [0xBA] SET_ENTITY_POSITION(entity_id=LocalPlayer, pos_x=-78.133*, pos_z=439.786*, pos_y=0.000*, direction=8.7*)
 29: 0x033F [0xBA] SET_ENTITY_POSITION(entity_id=Excenmille (ID: 17207901/0x0106925D), pos_x=-49.738*, pos_z=436.391*, pos_y=0.274*, direction=180.2*)
 30: 0x034C [0xBA] SET_ENTITY_POSITION(entity_id=Rahal (ID: 17207903/0x0106925F), pos_x=-49.855*, pos_z=437.693*, pos_y=0.290*, direction=167.0*)
 31: 0x0359 [0xBA] SET_ENTITY_POSITION(entity_id=Bistillot (ID: 17207905/0x01069261), pos_x=-50.008*, pos_z=441.205*, pos_y=0.298*, direction=74.1*)
 32: 0x0366 [0xBA] SET_ENTITY_POSITION(entity_id=Bostillette (ID: 17207909/0x01069265), pos_x=-53.328*, pos_z=440.293*, pos_y=0.528*, direction=175.8*)
 33: 0x0373 [0xBA] SET_ENTITY_POSITION(entity_id=Zogbog (ID: 17207906/0x01069262), pos_x=-94.102*, pos_z=438.103*, pos_y=0.606*, direction=351.9*)
 34: 0x0380 [0xBA] SET_ENTITY_POSITION(entity_id=??? (ID: 17207910/0x01069266), pos_x=-52.417*, pos_z=436.605*, pos_y=0.436*, direction=357.9*)
