# 17207828 - Wolfgang

## Common Data

| Field            | Value                    |
|------------------|--------------------------|
| Zone             | Batallia Downs (ID: 105) |
| Block Size       | 784 bytes                |
| Total Events     | 21                       |
| References Count | 42                       |

## List of Events

| Event ID                   | Entrypoint   |   Size |   Instructions |
|----------------------------|--------------|--------|----------------|
| [65535](#event-65535)      | 0x0000       |      1 |              1 |
| [0](#event-0)              | 0x0001       |     13 |              3 |
| [65535.1](#event-655351)   | 0x000E       |    102 |             20 |
| [65535.2](#event-655352)   | 0x0074       |     22 |              6 |
| [65535.3](#event-655353)   | 0x008A       |     16 |              4 |
| [65535.4](#event-655354)   | 0x009A       |     44 |             10 |
| [65535.5](#event-655355)   | 0x00C6       |     19 |              5 |
| [65535.6](#event-655356)   | 0x00D9       |     31 |              9 |
| [65535.7](#event-655357)   | 0x00F8       |     14 |              4 |
| [65535.8](#event-655358)   | 0x0106       |     23 |              5 |
| [65535.9](#event-655359)   | 0x011D       |     19 |              5 |
| [65535.10](#event-6553510) | 0x0130       |     16 |              4 |
| [65535.11](#event-6553511) | 0x0140       |     16 |              4 |
| [65535.12](#event-6553512) | 0x0150       |     14 |              4 |
| [65535.13](#event-6553513) | 0x015E       |     16 |              2 |
| [65535.14](#event-6553514) | 0x016E       |     29 |              3 |
| [65535.15](#event-6553515) | 0x018B       |     29 |              3 |
| [65535.16](#event-6553516) | 0x01A8       |     16 |              2 |
| [65535.17](#event-6553517) | 0x01B8       |     29 |              3 |
| [65535.18](#event-6553518) | 0x01D5       |     16 |              2 |
| [65535.19](#event-6553519) | 0x01E5       |     29 |              3 |

## DAT References (imed_data)

|   Index | Hex Value   |   Dec Value |
|---------|-------------|-------------|
|       0 | 0x659F9     |      416249 |
|       1 | 0xFFFDB05B  |  4294815835 |
|       2 | 0x2226      |        8742 |
|       3 | 0x0048      |          72 |
|       4 | 0xFFFFF830  |  4294965296 |
|       5 | 0x07D0      |        2000 |
|       6 | 0x000D      |          13 |
|       7 | 0x67AAD     |      424621 |
|       8 | 0xFFFD87E3  |  4294805475 |
|       9 | 0x221D      |        8733 |
|      10 | 0x0078      |         120 |
|      11 | 0x0189      |         393 |
|      12 | 0xFFFFEC78  |  4294962296 |
|      13 | 0x66AF8     |      420600 |
|      14 | 0xFFFDAAE3  |  4294814435 |
|      15 | 0x226B      |        8811 |
|      16 | 0x675EF     |      423407 |
|      17 | 0xFFFDB6D4  |  4294817492 |
|      18 | 0x2145      |        8517 |
|      19 | 0x0E3C      |        3644 |
|      20 | 0x68523     |      427299 |
|      21 | 0xFFFDC5BA  |  4294821306 |
|      22 | 0x1F81      |        8065 |
|      23 | 0x69332     |      430898 |
|      24 | 0xFFFDBEE2  |  4294819554 |
|      25 | 0x1F55      |        8021 |
|      26 | 0x74B60     |      478048 |
|      27 | 0xFFFD9752  |  4294809426 |
|      28 | 0x1F3F      |        7999 |
|      29 | 0x002D      |          45 |
|      30 | 0x7619A     |      483738 |
|      31 | 0xFFFD9184  |  4294807940 |
|      32 | 0x1F19      |        7961 |
|      33 | 0x76ABD     |      486077 |
|      34 | 0xFFFD9693  |  4294809235 |
|      35 | 0x203D      |        8253 |
|      36 | 0x7EC16     |      519190 |
|      37 | 0xFFFD8521  |  4294804769 |
|      38 | 0x3E7F      |       15999 |
|      39 | 0x01E0      |         480 |
|      40 | 0x0003      |           3 |
|      41 | 0x0000      |           0 |

## Events

### Event 65535

#### Metadata

| Field        | Value   |
|--------------|---------|
| Entrypoint   | 0x0000  |
| Data Size    | 1 bytes |
| Instructions | 1       |

```
      00 01 02 03 04 05 06 07  08 09 0A 0B 0C 0D 0E 0F
      -- -- -- -- -- -- -- --  -- -- -- -- -- -- -- --
0000: 00                                                .               
```

#### Opcodes

```
  0: 0x0000 [0x00] END_REQSTACK()
```

### Event 0

#### Metadata

| Field        | Value    |
|--------------|----------|
| Entrypoint   | 0x0001   |
| Data Size    | 13 bytes |
| Instructions | 3        |

```
      00 01 02 03 04 05 06 07  08 09 0A 0B 0C 0D 0E 0F
      -- -- -- -- -- -- -- --  -- -- -- -- -- -- -- --
0000:    94 01 F8 FF FF 7F 92  01 F8 FF FF 7F 00         .............  
```

#### Opcodes

```
  0: 0x0001 [0x94] EventEntity->Render.Flags3 ^= 0x01
  1: 0x0007 [0x92] EventEntity->Render.Flags3 ^= 0x01
  2: 0x000D [0x00] END_REQSTACK()
```

### Event 65535.1

#### Metadata

| Field        | Value     |
|--------------|-----------|
| Entrypoint   | 0x000E    |
| Data Size    | 102 bytes |
| Instructions | 15        |

```
      00 01 02 03 04 05 06 07  08 09 0A 0B 0C 0D 0E 0F
      -- -- -- -- -- -- -- --  -- -- -- -- -- -- -- --
0000:                                            37 00                7.
0010: 80 01 80 02 80 03 80 1E  F0 FF FF 7F 6F 70 03 00  ............op..
0020: 00 04 80 1A 30 00 37 01  00 02 00 03 00 04 00 00  ....0.7.........
0030: 3B F8 FF FF 7F 01 00 02  00 03 00 3A F8 FF FF 7F  ;..........:....
0040: 04 00 17 05 00 04 00 00  00 16 06 00 04 00 00 00  ................
0050: 07 01 00 05 00 07 02 00  06 00 1B 17 05 00 04 00  ................
0060: 00 00 16 06 00 04 00 00  00 07 01 00 05 00 07 02  ................
0070: 00 06 00 1B                                       ....            
```

#### Opcodes

```
  0: 0x000E [0x37] UPDATE_EVENT_POSITION_AND_DIR: x=416.249*, z=-151.461*, y=8.742*, direction=6.3째*
  1: 0x0017 [0x1E] EventEntity looks at LocalPlayer and starts talking
  2: 0x001C [0x6F] WAIT_FRAME_DELAY: Yield until WaitTime reaches zero
  3: 0x001D [0x70] WAIT_ENTITY_RENDER_FLAG: Wait while EventEntity->Render.Flags3 bit 2 is set (cancel turn if not)
  4: 0x001E [0x03] ExtData[1]->WorkLocal[0] = 4294965296*
  5: 0x0023 [0x1A] CALL_SUBROUTINE(address=0x0030)
  6: 0x0026 [0x37] UPDATE_EVENT_POSITION_AND_DIR: x=ExtData[1]->WorkLocal[1], z=ExtData[1]->WorkLocal[2], y=ExtData[1]->WorkLocal[3], direction=ExtData[1]->WorkLocal[4]
  7: 0x002F [0x00] END_REQSTACK()

SUBROUTINE_0030:
  8: 0x0030 [0x3B] GET_ENTITY_POSITION(entity=EventEntity, x_destination=ExtData[1]->WorkLocal[1], y_destination=ExtData[1]->WorkLocal[2], z_destination=ExtData[1]->WorkLocal[3])
  9: 0x003B [0x3A] CONVERT_YAW_TO_BYTE(entity=EventEntity, result_destination=ExtData[1]->WorkLocal[4])
 10: 0x0042 [0x17] ExtData[1]->WorkLocal[5] = cos(ExtData[1]->WorkLocal[4]) * ExtData[1]->WorkLocal[0]
 11: 0x0049 [0x16] ExtData[1]->WorkLocal[6] = sin(ExtData[1]->WorkLocal[4]) * ExtData[1]->WorkLocal[0]
 12: 0x0050 [0x07] ExtData[1]->WorkLocal[1] += ExtData[1]->WorkLocal[5]
 13: 0x0055 [0x07] ExtData[1]->WorkLocal[2] += ExtData[1]->WorkLocal[6]
 14: 0x005A [0x1B] RETURN
```

#### Data or dead code:

```
# Dead code (unreachable instructions):
     0x005B [0x17] ExtData[1]->WorkLocal[5] = cos(ExtData[1]->WorkLocal[4]) * ExtData[1]->WorkLocal[0]
     0x0062 [0x16] ExtData[1]->WorkLocal[6] = sin(ExtData[1]->WorkLocal[4]) * ExtData[1]->WorkLocal[0]
     0x0069 [0x07] ExtData[1]->WorkLocal[1] += ExtData[1]->WorkLocal[5]
     0x006E [0x07] ExtData[1]->WorkLocal[2] += ExtData[1]->WorkLocal[6]
     0x0073 [0x1B] RETURN
```

### Event 65535.2

#### Metadata

| Field        | Value    |
|--------------|----------|
| Entrypoint   | 0x0074   |
| Data Size    | 22 bytes |
| Instructions | 6        |

```
      00 01 02 03 04 05 06 07  08 09 0A 0B 0C 0D 0E 0F
      -- -- -- -- -- -- -- --  -- -- -- -- -- -- -- --
0070:             03 00 00 05  80 1A 30 00 32 06 80 1F      ......0.2...
0080: 00 01 00 02 00 03 00 1F  01 00                    ..........      
```

#### Opcodes

```
  0: 0x0074 [0x03] ExtData[1]->WorkLocal[0] = 2000*
  1: 0x0079 [0x1A] CALL_SUBROUTINE(address=0x0030)
  2: 0x007C [0x32] ExtData[1]->MainSpeed = 13* * 0.1
  3: 0x007F [0x1F] MOVE_ENTITY: EventEntity moves to X=ExtData[1]->WorkLocal[1], Z=ExtData[1]->WorkLocal[2], Y=ExtData[1]->WorkLocal[3]
  4: 0x0087 [0x1F] MOVE_ENTITY: Update entity position (mode=1)
  5: 0x0089 [0x00] END_REQSTACK()
```

### Event 65535.3

#### Metadata

| Field        | Value    |
|--------------|----------|
| Entrypoint   | 0x008A   |
| Data Size    | 16 bytes |
| Instructions | 4        |

```
      00 01 02 03 04 05 06 07  08 09 0A 0B 0C 0D 0E 0F
      -- -- -- -- -- -- -- --  -- -- -- -- -- -- -- --
0080:                                32 06 80 31 00 07            2..1..
0090: 80 08 80 09 80 0A 80 31  01 00                    .......1..      
```

#### Opcodes

```
  0: 0x008A [0x32] ExtData[1]->MainSpeed = 13* * 0.1
  1: 0x008D [0x31] UPDATE_ENTITY_POSITION: Set EventEntity goal position to X=424.621*, Z=-161.821*, Y=8.733*, Time=120*
  2: 0x0097 [0x31] UPDATE_ENTITY_POSITION: Move EventEntity towards goal position
  3: 0x0099 [0x00] END_REQSTACK()
```

### Event 65535.4

#### Metadata

| Field        | Value    |
|--------------|----------|
| Entrypoint   | 0x009A   |
| Data Size    | 44 bytes |
| Instructions | 10       |

```
      00 01 02 03 04 05 06 07  08 09 0A 0B 0C 0D 0E 0F
      -- -- -- -- -- -- -- --  -- -- -- -- -- -- -- --
0090:                                22 01 37 07 80 08            ".7...
00A0: 80 09 80 0B 80 03 00 00  0C 80 1A 30 00 37 01 00  ...........0.7..
00B0: 02 00 03 00 04 00 22 00  32 06 80 1F 00 07 80 08  ......".2.......
00C0: 80 09 80 1F 01 00                                 ......          
```

#### Opcodes

```
  0: 0x009A [0x22] ENTITY_HIDE_FLAG(enabled=0x01)
  1: 0x009C [0x37] UPDATE_EVENT_POSITION_AND_DIR: x=424.621*, z=-161.821*, y=8.733*, direction=34.5째*
  2: 0x00A5 [0x03] ExtData[1]->WorkLocal[0] = 4294962296*
  3: 0x00AA [0x1A] CALL_SUBROUTINE(address=0x0030)
  4: 0x00AD [0x37] UPDATE_EVENT_POSITION_AND_DIR: x=ExtData[1]->WorkLocal[1], z=ExtData[1]->WorkLocal[2], y=ExtData[1]->WorkLocal[3], direction=ExtData[1]->WorkLocal[4]
  5: 0x00B6 [0x22] ENTITY_HIDE_FLAG(enabled=0x00)
  6: 0x00B8 [0x32] ExtData[1]->MainSpeed = 13* * 0.1
  7: 0x00BB [0x1F] MOVE_ENTITY: EventEntity moves to X=424.621*, Z=-161.821*, Y=8.733*
  8: 0x00C3 [0x1F] MOVE_ENTITY: Update entity position (mode=1)
  9: 0x00C5 [0x00] END_REQSTACK()
```

### Event 65535.5

#### Metadata

| Field        | Value    |
|--------------|----------|
| Entrypoint   | 0x00C6   |
| Data Size    | 19 bytes |
| Instructions | 5        |

```
      00 01 02 03 04 05 06 07  08 09 0A 0B 0C 0D 0E 0F
      -- -- -- -- -- -- -- --  -- -- -- -- -- -- -- --
00C0:                   7B F8  FF FF 7F 32 06 80 1F 00        {....2....
00D0: 0D 80 0E 80 0F 80 1F 01  00                       .........       
```

#### Opcodes

```
  0: 0x00C6 [0x7B] EventEntity stops talking
  1: 0x00CB [0x32] ExtData[1]->MainSpeed = 13* * 0.1
  2: 0x00CE [0x1F] MOVE_ENTITY: EventEntity moves to X=420.600*, Z=-152.861*, Y=8.811*
  3: 0x00D6 [0x1F] MOVE_ENTITY: Update entity position (mode=1)
  4: 0x00D8 [0x00] END_REQSTACK()
```

### Event 65535.6

#### Metadata

| Field        | Value    |
|--------------|----------|
| Entrypoint   | 0x00D9   |
| Data Size    | 31 bytes |
| Instructions | 9        |

```
      00 01 02 03 04 05 06 07  08 09 0A 0B 0C 0D 0E 0F
      -- -- -- -- -- -- -- --  -- -- -- -- -- -- -- --
00D0:                             37 10 80 11 80 12 80           7......
00E0: 13 80 32 06 80 1F 00 14  80 15 80 16 80 1F 01 6F  ..2............o
00F0: 1E F0 FF FF 7F 6F 70 00                           .....op.        
```

#### Opcodes

```
  0: 0x00D9 [0x37] UPDATE_EVENT_POSITION_AND_DIR: x=423.407*, z=-149.804*, y=8.517*, direction=320.3째*
  1: 0x00E2 [0x32] ExtData[1]->MainSpeed = 13* * 0.1
  2: 0x00E5 [0x1F] MOVE_ENTITY: EventEntity moves to X=427.299*, Z=-145.990*, Y=8.065*
  3: 0x00ED [0x1F] MOVE_ENTITY: Update entity position (mode=1)
  4: 0x00EF [0x6F] WAIT_FRAME_DELAY: Yield until WaitTime reaches zero
  5: 0x00F0 [0x1E] EventEntity looks at LocalPlayer and starts talking
  6: 0x00F5 [0x6F] WAIT_FRAME_DELAY: Yield until WaitTime reaches zero
  7: 0x00F6 [0x70] WAIT_ENTITY_RENDER_FLAG: Wait while EventEntity->Render.Flags3 bit 2 is set (cancel turn if not)
  8: 0x00F7 [0x00] END_REQSTACK()
```

### Event 65535.7

#### Metadata

| Field        | Value    |
|--------------|----------|
| Entrypoint   | 0x00F8   |
| Data Size    | 14 bytes |
| Instructions | 4        |

```
      00 01 02 03 04 05 06 07  08 09 0A 0B 0C 0D 0E 0F
      -- -- -- -- -- -- -- --  -- -- -- -- -- -- -- --
00F0:                          32 06 80 1F 00 17 80 18          2.......
0100: 80 19 80 1F 01 00                                 ......          
```

#### Opcodes

```
  0: 0x00F8 [0x32] ExtData[1]->MainSpeed = 13* * 0.1
  1: 0x00FB [0x1F] MOVE_ENTITY: EventEntity moves to X=430.898*, Z=-147.742*, Y=8.021*
  2: 0x0103 [0x1F] MOVE_ENTITY: Update entity position (mode=1)
  3: 0x0105 [0x00] END_REQSTACK()
```

### Event 65535.8

#### Metadata

| Field        | Value    |
|--------------|----------|
| Entrypoint   | 0x0106   |
| Data Size    | 23 bytes |
| Instructions | 5        |

```
      00 01 02 03 04 05 06 07  08 09 0A 0B 0C 0D 0E 0F
      -- -- -- -- -- -- -- --  -- -- -- -- -- -- -- --
0100:                   37 1A  80 1B 80 1C 80 1D 80 32        7........2
0110: 06 80 1F 00 1E 80 1F 80  20 80 1F 01 00           ........ ....   
```

#### Opcodes

```
  0: 0x0106 [0x37] UPDATE_EVENT_POSITION_AND_DIR: x=478.048*, z=-157.870*, y=7.999*, direction=4.0째*
  1: 0x010F [0x32] ExtData[1]->MainSpeed = 13* * 0.1
  2: 0x0112 [0x1F] MOVE_ENTITY: EventEntity moves to X=483.738*, Z=-159.356*, Y=7.961*
  3: 0x011A [0x1F] MOVE_ENTITY: Update entity position (mode=1)
  4: 0x011C [0x00] END_REQSTACK()
```

### Event 65535.9

#### Metadata

| Field        | Value    |
|--------------|----------|
| Entrypoint   | 0x011D   |
| Data Size    | 19 bytes |
| Instructions | 5        |

```
      00 01 02 03 04 05 06 07  08 09 0A 0B 0C 0D 0E 0F
      -- -- -- -- -- -- -- --  -- -- -- -- -- -- -- --
0110:                                         32 06 80               2..
0120: 7B F8 FF FF 7F 1F 00 21  80 22 80 23 80 1F 01 00  {......!.".#....
```

#### Opcodes

```
  0: 0x011D [0x32] ExtData[1]->MainSpeed = 13* * 0.1
  1: 0x0120 [0x7B] EventEntity stops talking
  2: 0x0125 [0x1F] MOVE_ENTITY: EventEntity moves to X=486.077*, Z=-158.061*, Y=8.253*
  3: 0x012D [0x1F] MOVE_ENTITY: Update entity position (mode=1)
  4: 0x012F [0x00] END_REQSTACK()
```

### Event 65535.10

#### Metadata

| Field        | Value    |
|--------------|----------|
| Entrypoint   | 0x0130   |
| Data Size    | 16 bytes |
| Instructions | 4        |

```
      00 01 02 03 04 05 06 07  08 09 0A 0B 0C 0D 0E 0F
      -- -- -- -- -- -- -- --  -- -- -- -- -- -- -- --
0130: 32 06 80 31 00 24 80 25  80 26 80 0A 80 31 01 00  2..1.$.%.&...1..
```

#### Opcodes

```
  0: 0x0130 [0x32] ExtData[1]->MainSpeed = 13* * 0.1
  1: 0x0133 [0x31] UPDATE_ENTITY_POSITION: Set EventEntity goal position to X=519.190*, Z=-162.527*, Y=15.999*, Time=120*
  2: 0x013D [0x31] UPDATE_ENTITY_POSITION: Move EventEntity towards goal position
  3: 0x013F [0x00] END_REQSTACK()
```

### Event 65535.11

#### Metadata

| Field        | Value    |
|--------------|----------|
| Entrypoint   | 0x0140   |
| Data Size    | 16 bytes |
| Instructions | 4        |

```
      00 01 02 03 04 05 06 07  08 09 0A 0B 0C 0D 0E 0F
      -- -- -- -- -- -- -- --  -- -- -- -- -- -- -- --
0140: 32 06 80 31 00 24 80 25  80 26 80 27 80 31 01 00  2..1.$.%.&.'.1..
```

#### Opcodes

```
  0: 0x0140 [0x32] ExtData[1]->MainSpeed = 13* * 0.1
  1: 0x0143 [0x31] UPDATE_ENTITY_POSITION: Set EventEntity goal position to X=519.190*, Z=-162.527*, Y=15.999*, Time=480*
  2: 0x014D [0x31] UPDATE_ENTITY_POSITION: Move EventEntity towards goal position
  3: 0x014F [0x00] END_REQSTACK()
```

### Event 65535.12

#### Metadata

| Field        | Value    |
|--------------|----------|
| Entrypoint   | 0x0150   |
| Data Size    | 14 bytes |
| Instructions | 4        |

```
      00 01 02 03 04 05 06 07  08 09 0A 0B 0C 0D 0E 0F
      -- -- -- -- -- -- -- --  -- -- -- -- -- -- -- --
0150: 32 06 80 1F 00 24 80 25  80 26 80 1F 01 00        2....$.%.&....  
```

#### Opcodes

```
  0: 0x0150 [0x32] ExtData[1]->MainSpeed = 13* * 0.1
  1: 0x0153 [0x1F] MOVE_ENTITY: EventEntity moves to X=519.190*, Z=-162.527*, Y=15.999*
  2: 0x015B [0x1F] MOVE_ENTITY: Update entity position (mode=1)
  3: 0x015D [0x00] END_REQSTACK()
```

### Event 65535.13

#### Metadata

| Field        | Value    |
|--------------|----------|
| Entrypoint   | 0x015E   |
| Data Size    | 16 bytes |
| Instructions | 2        |

```
      00 01 02 03 04 05 06 07  08 09 0A 0B 0C 0D 0E 0F
      -- -- -- -- -- -- -- --  -- -- -- -- -- -- -- --
0150:                                            66 28                f(
0160: 80 F8 FF FF 7F F8 FF FF  7F 73 67 6D 30 00        .........sgm0.  
```

#### Opcodes

```
  0: 0x015E [0x66] LOAD_EXT_SCHEDULER_MAIN: Load scheduler "sgm0" with entities [EventEntity, EventEntity], work=3*
  1: 0x016D [0x00] END_REQSTACK()
```

### Event 65535.14

#### Metadata

| Field        | Value    |
|--------------|----------|
| Entrypoint   | 0x016E   |
| Data Size    | 29 bytes |
| Instructions | 3        |

```
      00 01 02 03 04 05 06 07  08 09 0A 0B 0C 0D 0E 0F
      -- -- -- -- -- -- -- --  -- -- -- -- -- -- -- --
0160:                                            66 28                f(
0170: 80 F8 FF FF 7F F8 FF FF  7F 74 61 74 30 53 F8 FF  .........tat0S..
0180: FF 7F F8 FF FF 7F 74 61  74 30 00                 ......tat0.     
```

#### Opcodes

```
  0: 0x016E [0x66] LOAD_EXT_SCHEDULER_MAIN: Load scheduler "tat0" with entities [EventEntity, EventEntity], work=3*
  1: 0x017D [0x53] WAIT_SCHEDULER_TASK: Wait for scheduler "tat0" with entities [EventEntity, EventEntity]
  2: 0x018A [0x00] END_REQSTACK()
```

### Event 65535.15

#### Metadata

| Field        | Value    |
|--------------|----------|
| Entrypoint   | 0x018B   |
| Data Size    | 29 bytes |
| Instructions | 3        |

```
      00 01 02 03 04 05 06 07  08 09 0A 0B 0C 0D 0E 0F
      -- -- -- -- -- -- -- --  -- -- -- -- -- -- -- --
0180:                                   66 29 80 F8 FF             f)...
0190: FF 7F F8 FF FF 7F 64 69  73 30 53 F8 FF FF 7F F8  ......dis0S.....
01A0: FF FF 7F 74 61 74 30 00                           ...tat0.        
```

#### Opcodes

```
  0: 0x018B [0x66] LOAD_EXT_SCHEDULER_MAIN: Load scheduler "dis0" with entities [EventEntity, EventEntity], work=0*
  1: 0x019A [0x53] WAIT_SCHEDULER_TASK: Wait for scheduler "tat0" with entities [EventEntity, EventEntity]
  2: 0x01A7 [0x00] END_REQSTACK()
```

### Event 65535.16

#### Metadata

| Field        | Value    |
|--------------|----------|
| Entrypoint   | 0x01A8   |
| Data Size    | 16 bytes |
| Instructions | 2        |

```
      00 01 02 03 04 05 06 07  08 09 0A 0B 0C 0D 0E 0F
      -- -- -- -- -- -- -- --  -- -- -- -- -- -- -- --
01A0:                          66 29 80 F8 FF FF 7F F8          f)......
01B0: FF FF 7F 74 6C 6B 30 00                           ...tlk0.        
```

#### Opcodes

```
  0: 0x01A8 [0x66] LOAD_EXT_SCHEDULER_MAIN: Load scheduler "tlk0" with entities [EventEntity, EventEntity], work=0*
  1: 0x01B7 [0x00] END_REQSTACK()
```

### Event 65535.17

#### Metadata

| Field        | Value    |
|--------------|----------|
| Entrypoint   | 0x01B8   |
| Data Size    | 29 bytes |
| Instructions | 3        |

```
      00 01 02 03 04 05 06 07  08 09 0A 0B 0C 0D 0E 0F
      -- -- -- -- -- -- -- --  -- -- -- -- -- -- -- --
01B0:                          66 29 80 F8 FF FF 7F F8          f)......
01C0: FF FF 7F 74 65 6E 30 53  F8 FF FF 7F F8 FF FF 7F  ...ten0S........
01D0: 74 65 6E 30 00                                    ten0.           
```

#### Opcodes

```
  0: 0x01B8 [0x66] LOAD_EXT_SCHEDULER_MAIN: Load scheduler "ten0" with entities [EventEntity, EventEntity], work=0*
  1: 0x01C7 [0x53] WAIT_SCHEDULER_TASK: Wait for scheduler "ten0" with entities [EventEntity, EventEntity]
  2: 0x01D4 [0x00] END_REQSTACK()
```

### Event 65535.18

#### Metadata

| Field        | Value    |
|--------------|----------|
| Entrypoint   | 0x01D5   |
| Data Size    | 16 bytes |
| Instructions | 2        |

```
      00 01 02 03 04 05 06 07  08 09 0A 0B 0C 0D 0E 0F
      -- -- -- -- -- -- -- --  -- -- -- -- -- -- -- --
01D0:                66 29 80  F8 FF FF 7F F8 FF FF 7F       f).........
01E0: 74 6C 6B 31 00                                    tlk1.           
```

#### Opcodes

```
  0: 0x01D5 [0x66] LOAD_EXT_SCHEDULER_MAIN: Load scheduler "tlk1" with entities [EventEntity, EventEntity], work=0*
  1: 0x01E4 [0x00] END_REQSTACK()
```

### Event 65535.19

#### Metadata

| Field        | Value    |
|--------------|----------|
| Entrypoint   | 0x01E5   |
| Data Size    | 29 bytes |
| Instructions | 3        |

```
      00 01 02 03 04 05 06 07  08 09 0A 0B 0C 0D 0E 0F
      -- -- -- -- -- -- -- --  -- -- -- -- -- -- -- --
01E0:                66 29 80  F8 FF FF 7F F8 FF FF 7F       f).........
01F0: 74 65 6E 31 53 F8 FF FF  7F F8 FF FF 7F 74 65 6E  ten1S........ten
0200: 31 00                                             1.              
```

#### Opcodes

```
  0: 0x01E5 [0x66] LOAD_EXT_SCHEDULER_MAIN: Load scheduler "ten1" with entities [EventEntity, EventEntity], work=0*
  1: 0x01F4 [0x53] WAIT_SCHEDULER_TASK: Wait for scheduler "ten1" with entities [EventEntity, EventEntity]
  2: 0x0201 [0x00] END_REQSTACK()
```
