# 17207996

## Common Data

| Field            | Value                    |
|------------------|--------------------------|
| Zone             | Batallia Downs (ID: 105) |
| Block Size       | 11076 bytes              |
| Total Events     | 3                        |
| References Count | 151                      |

## List of Events

| Event ID              | Entrypoint   |   Size |   Instructions |
|-----------------------|--------------|--------|----------------|
| [65535](#event-65535) | 0x0000       |    658 |             62 |
| [28](#event-28)       | 0x0292       |   5563 |            683 |
| [29](#event-29)       | 0x184D       |   4220 |            570 |

## DAT References (imed_data)

|   Index | Hex Value   |   Dec Value |
|---------|-------------|-------------|
|       0 | 0x00C8      |         200 |
|       1 | 0x0000      |           0 |
|       2 | 0x00C9      |         201 |
|       3 | 0x0001      |           1 |
|       4 | 0x002D      |          45 |
|       5 | 0x0002      |           2 |
|       6 | 0x001E      |          30 |
|       7 | 0x00D7      |         215 |
|       8 | 0x0016      |          22 |
|       9 | 0x00FF      |         255 |
|      10 | 0x012C      |         300 |
|      11 | 0x0093      |         147 |
|      12 | 0x46976     |      289142 |
|      13 | 0x1500C     |       86028 |
|      14 | 0x20CE      |        8398 |
|      15 | 0x000C      |          12 |
|      16 | 0x4DDA9     |      318889 |
|      17 | 0x13430     |       78896 |
|      18 | 0x1F40      |        8000 |
|      19 | 0x0BF9      |        3065 |
|      20 | 0x4C6C9     |      313033 |
|      21 | 0x181DD     |       98781 |
|      22 | 0x2214      |        8724 |
|      23 | 0x03B2      |         946 |
|      24 | 0x4DA20     |      317984 |
|      25 | 0x13C62     |       80994 |
|      26 | 0x02B2      |         690 |
|      27 | 0x0005      |           5 |
|      28 | 0x037F      |         895 |
|      29 | 0x0006      |           6 |
|      30 | 0x0064      |         100 |
|      31 | 0x000A      |          10 |
|      32 | 0x003C      |          60 |
|      33 | 0x32D7      |       13015 |
|      34 | 0x32D8      |       13016 |
|      35 | 0x0080      |         128 |
|      36 | 0x32D9      |       13017 |
|      37 | 0x001B      |          27 |
|      38 | 0x00E3      |         227 |
|      39 | 0x007F      |         127 |
|      40 | 0x32DA      |       13018 |
|      41 | 0x0028      |          40 |
|      42 | 0x32DB      |       13019 |
|      43 | 0x0015      |          21 |
|      44 | 0x0014      |          20 |
|      45 | 0x32DC      |       13020 |
|      46 | 0x0078      |         120 |
|      47 | 0x32DD      |       13021 |
|      48 | 0x0021      |          33 |
|      49 | 0x005A      |          90 |
|      50 | 0x32DE      |       13022 |
|      51 | 0x02D8      |         728 |
|      52 | 0x0003      |           3 |
|      53 | 0x0008      |           8 |
|      54 | 0x32DF      |       13023 |
|      55 | 0x32E0      |       13024 |
|      56 | 0x0060      |          96 |
|      57 | 0x32E1      |       13025 |
|      58 | 0x0042      |          66 |
|      59 | 0x32E2      |       13026 |
|      60 | 0x062B      |        1579 |
|      61 | 0x032B      |         811 |
|      62 | 0x002B      |          43 |
|      63 | 0x042B      |        1067 |
|      64 | 0x012B      |         299 |
|      65 | 0x052B      |        1323 |
|      66 | 0x022B      |         555 |
|      67 | 0x000F      |          15 |
|      68 | 0x32E3      |       13027 |
|      69 | 0x0010      |          16 |
|      70 | 0x0046      |          70 |
|      71 | 0x32E4      |       13028 |
|      72 | 0x0019      |          25 |
|      73 | 0x32E5      |       13029 |
|      74 | 0x32E6      |       13030 |
|      75 | 0x32E7      |       13031 |
|      76 | 0x32E8      |       13032 |
|      77 | 0x0007      |           7 |
|      78 | 0x32E9      |       13033 |
|      79 | 0x000B      |          11 |
|      80 | 0x32EA      |       13034 |
|      81 | 0x32EB      |       13035 |
|      82 | 0x32EC      |       13036 |
|      83 | 0x32ED      |       13037 |
|      84 | 0x46363     |      287587 |
|      85 | 0x779A      |       30618 |
|      86 | 0x1AF4      |        6900 |
|      87 | 0x0552      |        1362 |
|      88 | 0x02DF      |         735 |
|      89 | 0x32EE      |       13038 |
|      90 | 0x0B50      |        2896 |
|      91 | 0x32EF      |       13039 |
|      92 | 0x32F0      |       13040 |
|      93 | 0x0072      |         114 |
|      94 | 0x0065      |         101 |
|      95 | 0x0067      |         103 |
|      96 | 0x4DAAD     |      318125 |
|      97 | 0x14777     |       83831 |
|      98 | 0x1F36      |        7990 |
|      99 | 0x001C      |          28 |
|     100 | 0x4E899     |      321689 |
|     101 | 0x1404B     |       81995 |
|     102 | 0x1F3F      |        7999 |
|     103 | 0x4EE20     |      323104 |
|     104 | 0x13B81     |       80769 |
|     105 | 0x0A36      |        2614 |
|     106 | 0x32F4      |       13044 |
|     107 | 0x32F5      |       13045 |
|     108 | 0x32F6      |       13046 |
|     109 | 0x00EB      |         235 |
|     110 | 0x32F7      |       13047 |
|     111 | 0x32F8      |       13048 |
|     112 | 0x00DF      |         223 |
|     113 | 0x32F9      |       13049 |
|     114 | 0x32FA      |       13050 |
|     115 | 0x32FB      |       13051 |
|     116 | 0x32FC      |       13052 |
|     117 | 0x32FD      |       13053 |
|     118 | 0x32FE      |       13054 |
|     119 | 0x32FF      |       13055 |
|     120 | 0x00FB      |         251 |
|     121 | 0x3300      |       13056 |
|     122 | 0x0050      |          80 |
|     123 | 0x0004      |           4 |
|     124 | 0x07FA      |        2042 |
|     125 | 0x3301      |       13057 |
|     126 | 0x3302      |       13058 |
|     127 | 0x4718C     |      291212 |
|     128 | 0x1455C     |       83292 |
|     129 | 0x20A6      |        8358 |
|     130 | 0x3303      |       13059 |
|     131 | 0x0C04      |        3076 |
|     132 | 0x3304      |       13060 |
|     133 | 0x0090      |         144 |
|     134 | 0x3305      |       13061 |
|     135 | 0x3306      |       13062 |
|     136 | 0x3307      |       13063 |
|     137 | 0x3308      |       13064 |
|     138 | 0x3309      |       13065 |
|     139 | 0x330A      |       13066 |
|     140 | 0x001A      |          26 |
|     141 | 0x330B      |       13067 |
|     142 | 0x330C      |       13068 |
|     143 | 0x330D      |       13069 |
|     144 | 0x330E      |       13070 |
|     145 | 0x0096      |         150 |
|     146 | 0x4E7B3     |      321459 |
|     147 | 0x133CF     |       78799 |
|     148 | 0x0BB9      |        3001 |
|     149 | 0x330F      |       13071 |
|     150 | 0x3310      |       13072 |

## String References

- **13026**: ...? [We'll dance to the abyss and back!/Lovely Miracle Waltz!!!/Laaa, laaa, la-laaa!t/...We'll sing and twist until...uh, yeah!]
- **13032**: Are you fond of the Sunbreeze Festival? [Naturally!/No, not so much.]
- **13063**: Is there more to come? [Yes, most definitely./Not likely./What are you talking about?]

## Events

### Event 65535

#### Metadata

| Field        | Value     |
|--------------|-----------|
| Entrypoint   | 0x0000    |
| Data Size    | 658 bytes |
| Instructions | 1         |

```
      00 01 02 03 04 05 06 07  08 09 0A 0B 0C 0D 0E 0F
      -- -- -- -- -- -- -- --  -- -- -- -- -- -- -- --
0000: 00 45 00 80 F0 FF FF 7F  F0 FF FF 7F 66 64 69 30  .E..........fdi0
0010: 01 80 55 00 80 F0 FF FF  7F F0 FF FF 7F 66 64 69  ..U..........fdi
0020: 30 1B 45 00 80 F0 FF FF  7F F0 FF FF 7F 66 64 6F  0.E..........fdo
0030: 30 01 80 55 00 80 F0 FF  FF 7F F0 FF FF 7F 66 64  0..U..........fd
0040: 6F 30 1B 45 00 80 F0 FF  FF 7F F0 FF FF 7F 66 64  o0.E..........fd
0050: 69 31 01 80 55 00 80 F0  FF FF 7F F0 FF FF 7F 66  i1..U..........f
0060: 64 69 31 1B 45 00 80 F0  FF FF 7F F0 FF FF 7F 66  di1.E..........f
0070: 64 6F 31 01 80 55 00 80  F0 FF FF 7F F0 FF FF 7F  do1..U..........
0080: 66 64 6F 31 1B 45 02 80  F0 FF FF 7F F0 FF FF 7F  fdo1.E..........
0090: 77 68 69 31 01 80 55 02  80 F0 FF FF 7F F0 FF FF  whi1..U.........
00A0: 7F 77 68 69 31 1B 45 02  80 F0 FF FF 7F F0 FF FF  .whi1.E.........
00B0: 7F 77 68 6F 31 01 80 55  02 80 F0 FF FF 7F F0 FF  .who1..U........
00C0: FF 7F 77 68 6F 31 1B 45  02 80 F0 FF FF 7F F0 FF  ..who1.E........
00D0: FF 7F 77 68 6F 32 01 80  55 02 80 F0 FF FF 7F F0  ..who2..U.......
00E0: FF FF 7F 77 68 6F 32 1B  45 02 80 F0 FF FF 7F F0  ...who2.E.......
00F0: FF FF 7F 77 68 6F 33 01  80 55 02 80 F0 FF FF 7F  ...who3..U......
0100: F0 FF FF 7F 77 68 6F 33  1B 62 03 80 F0 FF FF 7F  ....who3.b......
0110: F0 FF FF 7F 6D 61 69 6E  01 80 1C 04 80 45 00 80  ....main.....E..
0120: F0 FF FF 7F F0 FF FF 7F  66 64 6F 31 01 80 55 00  ........fdo1..U.
0130: 80 F0 FF FF 7F F0 FF FF  7F 66 64 6F 31 1B 45 00  .........fdo1.E.
0140: 80 F0 FF FF 7F F0 FF FF  7F 66 64 69 31 01 80 62  .........fdi1..b
0150: 05 80 F0 FF FF 7F F0 FF  FF 7F 6D 61 69 6E 01 80  ..........main..
0160: 1C 06 80 55 00 80 F0 FF  FF 7F F0 FF FF 7F 66 64  ...U..........fd
0170: 69 31 1B 45 00 80 F0 FF  FF 7F F0 FF FF 7F 62 6C  i1.E..........bl
0180: 6F 6E 01 80 45 02 80 F0  FF FF 7F F0 FF FF 7F 62  on..E..........b
0190: 6C 6F 6E 01 80 1B 45 02  80 F0 FF FF 7F F0 FF FF  lon...E.........
01A0: 7F 77 68 69 30 01 80 55  02 80 F0 FF FF 7F F0 FF  .whi0..U........
01B0: FF 7F 77 68 69 30 1B 45  02 80 F0 FF FF 7F F0 FF  ..whi0.E........
01C0: FF 7F 77 68 6F 30 01 80  55 02 80 F0 FF FF 7F F0  ..who0..U.......
01D0: FF FF 7F 77 68 6F 30 1B  45 07 80 F0 FF FF 7F F0  ...who0.E.......
01E0: FF FF 7F 65 66 6F 6E 01  80 55 07 80 F0 FF FF 7F  ...efon..U......
01F0: F0 FF FF 7F 65 66 6F 6E  1B 45 00 80 F0 FF FF 7F  ....efon.E......
0200: F0 FF FF 7F 66 64 69 73  01 80 1B 45 00 80 F0 FF  ....fdis...E....
0210: FF 7F F0 FF FF 7F 66 64  6F 73 01 80 55 00 80 F0  ......fdos..U...
0220: FF FF 7F F0 FF FF 7F 66  64 6F 73 1B 45 00 80 F0  .......fdos.E...
0230: FF FF 7F F0 FF FF 7F 66  64 69 66 01 80 1B 45 00  .......fdif...E.
0240: 80 F0 FF FF 7F F0 FF FF  7F 66 64 6F 66 01 80 55  .........fdof..U
0250: 00 80 F0 FF FF 7F F0 FF  FF 7F 66 64 6F 66 1B 45  ..........fdof.E
0260: 00 80 F0 FF FF 7F F0 FF  FF 7F 66 64 69 70 01 80  ..........fdip..
0270: 1B 45 00 80 F0 FF FF 7F  F0 FF FF 7F 66 64 6F 70  .E..........fdop
0280: 01 80 55 00 80 F0 FF FF  7F F0 FF FF 7F 66 64 6F  ..U..........fdo
0290: 70 1B                                             p.              
```

#### Opcodes

```
  0: 0x0000 [0x00] END_REQSTACK()
```

#### Data or dead code:

```
# Dead code (unreachable instructions):
     0x0001 [0x45] LOAD_SCHEDULED_TASK: Load scheduler "fdi0" with entities [LocalPlayer, LocalPlayer], work=[200*, 0*]
     0x0012 [0x55] WAIT_LOAD_SCHEDULER: Wait for scheduler "fdi0" with entities [LocalPlayer, LocalPlayer], work=200*
     0x0021 [0x1B] RETURN
     0x0022 [0x45] LOAD_SCHEDULED_TASK: Load scheduler "fdo0" with entities [LocalPlayer, LocalPlayer], work=[200*, 0*]
     0x0033 [0x55] WAIT_LOAD_SCHEDULER: Wait for scheduler "fdo0" with entities [LocalPlayer, LocalPlayer], work=200*
     0x0042 [0x1B] RETURN
     0x0043 [0x45] LOAD_SCHEDULED_TASK: Load scheduler "fdi1" with entities [LocalPlayer, LocalPlayer], work=[200*, 0*]
     0x0054 [0x55] WAIT_LOAD_SCHEDULER: Wait for scheduler "fdi1" with entities [LocalPlayer, LocalPlayer], work=200*
     0x0063 [0x1B] RETURN
     0x0064 [0x45] LOAD_SCHEDULED_TASK: Load scheduler "fdo1" with entities [LocalPlayer, LocalPlayer], work=[200*, 0*]
     0x0075 [0x55] WAIT_LOAD_SCHEDULER: Wait for scheduler "fdo1" with entities [LocalPlayer, LocalPlayer], work=200*
     0x0084 [0x1B] RETURN
     0x0085 [0x45] LOAD_SCHEDULED_TASK: Load scheduler "whi1" with entities [LocalPlayer, LocalPlayer], work=[201*, 0*]
     0x0096 [0x55] WAIT_LOAD_SCHEDULER: Wait for scheduler "whi1" with entities [LocalPlayer, LocalPlayer], work=201*
     0x00A5 [0x1B] RETURN
     0x00A6 [0x45] LOAD_SCHEDULED_TASK: Load scheduler "who1" with entities [LocalPlayer, LocalPlayer], work=[201*, 0*]
     0x00B7 [0x55] WAIT_LOAD_SCHEDULER: Wait for scheduler "who1" with entities [LocalPlayer, LocalPlayer], work=201*
     0x00C6 [0x1B] RETURN
     0x00C7 [0x45] LOAD_SCHEDULED_TASK: Load scheduler "who2" with entities [LocalPlayer, LocalPlayer], work=[201*, 0*]
     0x00D8 [0x55] WAIT_LOAD_SCHEDULER: Wait for scheduler "who2" with entities [LocalPlayer, LocalPlayer], work=201*
     0x00E7 [0x1B] RETURN
     0x00E8 [0x45] LOAD_SCHEDULED_TASK: Load scheduler "who3" with entities [LocalPlayer, LocalPlayer], work=[201*, 0*]
     0x00F9 [0x55] WAIT_LOAD_SCHEDULER: Wait for scheduler "who3" with entities [LocalPlayer, LocalPlayer], work=201*
     0x0108 [0x1B] RETURN
     0x0109 [0x62] LOAD_EVENT_SCHEDULER: Load scheduler "main" with entities [LocalPlayer, LocalPlayer], work=[1*, 0*]
     0x011A [0x1C] WAIT(45* ticks)
     0x011D [0x45] LOAD_SCHEDULED_TASK: Load scheduler "fdo1" with entities [LocalPlayer, LocalPlayer], work=[200*, 0*]
     0x012E [0x55] WAIT_LOAD_SCHEDULER: Wait for scheduler "fdo1" with entities [LocalPlayer, LocalPlayer], work=200*
     0x013D [0x1B] RETURN
     0x013E [0x45] LOAD_SCHEDULED_TASK: Load scheduler "fdi1" with entities [LocalPlayer, LocalPlayer], work=[200*, 0*]
     0x014F [0x62] LOAD_EVENT_SCHEDULER: Load scheduler "main" with entities [LocalPlayer, LocalPlayer], work=[2*, 0*]
     0x0160 [0x1C] WAIT(30* ticks)
     0x0163 [0x55] WAIT_LOAD_SCHEDULER: Wait for scheduler "fdi1" with entities [LocalPlayer, LocalPlayer], work=200*
     0x0172 [0x1B] RETURN
     0x0173 [0x45] LOAD_SCHEDULED_TASK: Load scheduler "blon" with entities [LocalPlayer, LocalPlayer], work=[200*, 0*]
     0x0184 [0x45] LOAD_SCHEDULED_TASK: Load scheduler "blon" with entities [LocalPlayer, LocalPlayer], work=[201*, 0*]
     0x0195 [0x1B] RETURN
     0x0196 [0x45] LOAD_SCHEDULED_TASK: Load scheduler "whi0" with entities [LocalPlayer, LocalPlayer], work=[201*, 0*]
     0x01A7 [0x55] WAIT_LOAD_SCHEDULER: Wait for scheduler "whi0" with entities [LocalPlayer, LocalPlayer], work=201*
     0x01B6 [0x1B] RETURN
     0x01B7 [0x45] LOAD_SCHEDULED_TASK: Load scheduler "who0" with entities [LocalPlayer, LocalPlayer], work=[201*, 0*]
     0x01C8 [0x55] WAIT_LOAD_SCHEDULER: Wait for scheduler "who0" with entities [LocalPlayer, LocalPlayer], work=201*
     0x01D7 [0x1B] RETURN
     0x01D8 [0x45] LOAD_SCHEDULED_TASK: Load scheduler "efon" with entities [LocalPlayer, LocalPlayer], work=[215*, 0*]
     0x01E9 [0x55] WAIT_LOAD_SCHEDULER: Wait for scheduler "efon" with entities [LocalPlayer, LocalPlayer], work=215*
     0x01F8 [0x1B] RETURN
     0x01F9 [0x45] LOAD_SCHEDULED_TASK: Load scheduler "fdis" with entities [LocalPlayer, LocalPlayer], work=[200*, 0*]
     0x020A [0x1B] RETURN
     0x020B [0x45] LOAD_SCHEDULED_TASK: Load scheduler "fdos" with entities [LocalPlayer, LocalPlayer], work=[200*, 0*]
     0x021C [0x55] WAIT_LOAD_SCHEDULER: Wait for scheduler "fdos" with entities [LocalPlayer, LocalPlayer], work=200*
     0x022B [0x1B] RETURN
     0x022C [0x45] LOAD_SCHEDULED_TASK: Load scheduler "fdif" with entities [LocalPlayer, LocalPlayer], work=[200*, 0*]
     0x023D [0x1B] RETURN
     0x023E [0x45] LOAD_SCHEDULED_TASK: Load scheduler "fdof" with entities [LocalPlayer, LocalPlayer], work=[200*, 0*]
     0x024F [0x55] WAIT_LOAD_SCHEDULER: Wait for scheduler "fdof" with entities [LocalPlayer, LocalPlayer], work=200*
     0x025E [0x1B] RETURN
     0x025F [0x45] LOAD_SCHEDULED_TASK: Load scheduler "fdip" with entities [LocalPlayer, LocalPlayer], work=[200*, 0*]
     0x0270 [0x1B] RETURN
     0x0271 [0x45] LOAD_SCHEDULED_TASK: Load scheduler "fdop" with entities [LocalPlayer, LocalPlayer], work=[200*, 0*]
     0x0282 [0x55] WAIT_LOAD_SCHEDULER: Wait for scheduler "fdop" with entities [LocalPlayer, LocalPlayer], work=200*
     0x0291 [0x1B] RETURN
```

### Event 28

#### Metadata

| Field        | Value      |
|--------------|------------|
| Entrypoint   | 0x0292     |
| Data Size    | 5563 bytes |
| Instructions | 683        |

```
      00 01 02 03 04 05 06 07  08 09 0A 0B 0C 0D 0E 0F
      -- -- -- -- -- -- -- --  -- -- -- -- -- -- -- --
0290:       42 03 02 00 03 10  03 03 00 06 10 03 01 00    B.............
02A0: 01 80 02 01 00 03 80 00  B4 02 77 08 80 09 80 03  ..........w.....
02B0: 02 00 03 80 5D 01 80 0A  80 1A 64 00 46 01 38 0B  ....].....d.F.8.
02C0: 80 02 09 10 03 80 00 CE  02 77 08 80 09 80 2F 00  .........w..../.
02D0: BD 92 06 01 2F 00 BE 92  06 01 2F 00 BF 92 06 01  ..../...../.....
02E0: 4E 00 BD 92 06 01 4E 00  BE 92 06 01 4E 00 BF 92  N.....N.....N...
02F0: 06 01 94 01 BD 92 06 01  94 01 BE 92 06 01 94 01  ................
0300: BF 92 06 01 94 01 F0 FF  FF 7F BA BD 92 06 01 0C  ................
0310: 80 0D 80 0E 80 0F 80 BA  BE 92 06 01 10 80 11 80  ................
0320: 12 80 13 80 BA BF 92 06  01 14 80 15 80 16 80 17  ................
0330: 80 BA F0 FF FF 7F 18 80  19 80 12 80 1A 80 80 BD  ................
0340: 92 06 01 80 BE 92 06 01  80 BF 92 06 01 80 F0 FF  ................
0350: FF 7F 6C BE 92 06 01 01  80 03 80 6C BF 92 06 01  ..l........l....
0360: 01 80 03 80 29 0F F0 FF  FF 7F 5C 29 0F F0 FF FF  ....).....\)....
0370: 7F 1A 29 0F BD 92 06 01  38 4A BD 92 06 01 F0 FF  ..).....8J......
0380: FF 7F 6F 76 BD 92 06 01  7B BD 92 06 01 02 09 10  ..ov....{.......
0390: 1B 80 00 A9 03 45 1C 80  F8 FF FF 7F F8 FF FF 7F  .....E..........
03A0: 73 30 33 30 01 80 01 D6  03 02 09 10 1D 80 00 C5  s030............
03B0: 03 45 1C 80 F8 FF FF 7F  F8 FF FF 7F 73 30 33 30  .E..........s030
03C0: 01 80 01 D6 03 45 1C 80  F8 FF FF 7F F8 FF FF 7F  .....E..........
03D0: 73 30 30 30 01 80 1A 43  00 1C 1E 80 27 0F BD 92  s000...C....'...
03E0: 06 01 3E 1C 1F 80 02 09  10 1B 80 00 00 04 52 1C  ..>...........R.
03F0: 80 F8 FF FF 7F F8 FF FF  7F 73 30 33 30 01 29 04  .........s030.).
0400: 02 09 10 1D 80 00 1A 04  52 1C 80 F8 FF FF 7F F8  ........R.......
0410: FF FF 7F 73 30 33 30 01  29 04 52 1C 80 F8 FF FF  ...s030.).R.....
0420: 7F F8 FF FF 7F 73 30 30  30 45 1C 80 F8 FF FF 7F  .....s000E......
0430: F8 FF FF 7F 73 30 30 31  01 80 1C 20 80 1C 20 80  ....s001... .. .
0440: 52 1C 80 F8 FF FF 7F F8  FF FF 7F 73 30 30 31 02  R..........s001.
0450: 09 10 1B 80 00 6B 04 45  1C 80 F8 FF FF 7F F8 FF  .....k.E........
0460: FF 7F 73 30 33 31 01 80  01 98 04 02 09 10 1D 80  ..s031..........
0470: 00 87 04 45 1C 80 F8 FF  FF 7F F8 FF FF 7F 73 30  ...E..........s0
0480: 33 31 01 80 01 98 04 45  1C 80 F8 FF FF 7F F8 FF  31.....E........
0490: FF 7F 73 30 30 32 01 80  1C 06 80 2B BD 92 06 01  ..s002.....+....
04A0: 21 80 4A F0 FF FF 7F BD  92 06 01 6F 76 F0 FF FF  !.J........ov...
04B0: 7F 1C 1E 80 02 09 10 1B  80 00 CE 04 52 1C 80 F8  ............R...
04C0: FF FF 7F F8 FF FF 7F 73  30 33 31 01 F7 04 02 09  .......s031.....
04D0: 10 1D 80 00 E8 04 52 1C  80 F8 FF FF 7F F8 FF FF  ......R.........
04E0: 7F 73 30 33 31 01 F7 04  52 1C 80 F8 FF FF 7F F8  .s031...R.......
04F0: FF FF 7F 73 30 30 32 45  1C 80 F8 FF FF 7F F8 FF  ...s002E........
0500: FF 7F 73 30 30 33 01 80  2A 0F BD 92 06 01 52 1C  ..s003..*.....R.
0510: 80 F8 FF FF 7F F8 FF FF  7F 73 30 30 33 45 1C 80  .........s003E..
0520: F8 FF FF 7F F8 FF FF 7F  73 30 31 31 01 80 29 0F  ........s011..).
0530: BD 92 06 01 01 2B BD 92  06 01 22 80 23 29 0F BD  .....+....".#)..
0540: 92 06 01 02 29 0F BD 92  06 01 03 52 1C 80 F8 FF  ....)......R....
0550: FF 7F F8 FF FF 7F 73 30  31 31 02 09 10 1B 80 00  ......s011......
0560: 76 05 45 1C 80 F8 FF FF  7F F8 FF FF 7F 73 30 33  v.E..........s03
0570: 32 01 80 01 A3 05 02 09  10 1D 80 00 92 05 45 1C  2.............E.
0580: 80 F8 FF FF 7F F8 FF FF  7F 73 30 33 32 01 80 01  .........s032...
0590: A3 05 45 1C 80 F8 FF FF  7F F8 FF FF 7F 73 30 30  ..E..........s00
05A0: 34 01 80 6E F0 FF FF 7F  1D 80 99 F0 FF FF 7F 1C  4..n............
05B0: 06 80 1C 1E 80 29 0F BD  92 06 01 04 6C BF 92 06  .....)......l...
05C0: 01 23 80 03 80 45 1C 80  F8 FF FF 7F F8 FF FF 7F  .#...E..........
05D0: 38 33 33 31 01 80 4A BD  92 06 01 BF 92 06 01 6F  8331..J........o
05E0: 76 BD 92 06 01 02 09 10  1B 80 00 FF 05 52 1C 80  v............R..
05F0: F8 FF FF 7F F8 FF FF 7F  73 30 33 32 01 28 06 02  ........s032.(..
0600: 09 10 1D 80 00 19 06 52  1C 80 F8 FF FF 7F F8 FF  .......R........
0610: FF 7F 73 30 33 32 01 28  06 52 1C 80 F8 FF FF 7F  ..s032.(.R......
0620: F8 FF FF 7F 73 30 30 34  45 1C 80 F8 FF FF 7F F8  ....s004E.......
0630: FF FF 7F 73 30 30 35 01  80 45 1C 80 F8 FF FF 7F  ...s005..E......
0640: F8 FF FF 7F 34 31 32 36  01 80 1C 06 80 2B BD 92  ....4126.....+..
0650: 06 01 24 80 1C 20 80 1C  06 80 52 1C 80 F8 FF FF  ..$.. ....R.....
0660: 7F F8 FF FF 7F 73 30 30  35 45 1C 80 F8 FF FF 7F  .....s005E......
0670: F8 FF FF 7F 73 30 30 36  01 80 45 1C 80 F8 FF FF  ....s006..E.....
0680: 7F F8 FF FF 7F 38 31 36  30 01 80 5C 00 25 80 5C  .....8160..\.%.\
0690: 01 25 80 5C 02 26 80 5C  03 26 80 9A 5D 27 80 03  .%.\.&.\.&..]'..
06A0: 80 79 00 F0 FF FF 7F BF  92 06 01 2B BD 92 06 01  .y.........+....
06B0: 28 80 23 1C 29 80 2B BD  92 06 01 2A 80 1C 20 80  (.#.).+....*.. .
06C0: 52 1C 80 F8 FF FF 7F F8  FF FF 7F 73 30 30 36 45  R..........s006E
06D0: 1C 80 F8 FF FF 7F F8 FF  FF 7F 62 72 6F 66 01 80  ..........brof..
06E0: 02 09 10 1B 80 00 FC 06  45 1C 80 F8 FF FF 7F F8  ........E.......
06F0: FF FF 7F 73 30 33 33 01  80 01 29 07 02 09 10 1D  ...s033...).....
0700: 80 00 18 07 45 1C 80 F8  FF FF 7F F8 FF FF 7F 73  ....E..........s
0710: 30 33 33 01 80 01 29 07  45 1C 80 F8 FF FF 7F F8  033...).E.......
0720: FF FF 7F 73 30 30 38 01  80 23 79 00 F0 FF FF 7F  ...s008..#y.....
0730: BD 92 06 01 6E BD 92 06  01 2B 80 99 BD 92 06 01  ....n....+......
0740: 1C 2C 80 2B BD 92 06 01  2D 80 1C 2E 80 02 09 10  .,.+....-.......
0750: 1B 80 00 67 07 52 1C 80  F8 FF FF 7F F8 FF FF 7F  ...g.R..........
0760: 73 30 33 33 01 90 07 02  09 10 1D 80 00 81 07 52  s033...........R
0770: 1C 80 F8 FF FF 7F F8 FF  FF 7F 73 30 33 33 01 90  ..........s033..
0780: 07 52 1C 80 F8 FF FF 7F  F8 FF FF 7F 73 30 30 38  .R..........s008
0790: 45 1C 80 F8 FF FF 7F F8  FF FF 7F 73 30 32 36 01  E..........s026.
07A0: 80 2B BD 92 06 01 2F 80  6E BD 92 06 01 30 80 99  .+..../.n....0..
07B0: BD 92 06 01 1C 20 80 23  29 0F BD 92 06 01 33 1C  ..... .#).....3.
07C0: 05 80 52 1C 80 F8 FF FF  7F F8 FF FF 7F 73 30 32  ..R..........s02
07D0: 36 45 1C 80 F8 FF FF 7F  F8 FF FF 7F 73 30 30 37  6E..........s007
07E0: 01 80 1C 31 80 52 1C 80  F8 FF FF 7F F8 FF FF 7F  ...1.R..........
07F0: 73 30 30 37 45 1C 80 F8  FF FF 7F F8 FF FF 7F 73  s007E..........s
0800: 30 31 30 01 80 2B BD 92  06 01 32 80 45 1C 80 F8  010..+....2.E...
0810: FF FF 7F F8 FF FF 7F 38  31 36 30 01 80 1C 06 80  .......8160.....
0820: 4A F0 FF FF 7F BF 92 06  01 1C 31 80 6F 76 F0 FF  J.........1.ov..
0830: FF 7F 29 0F BD 92 06 01  34 23 52 1C 80 F8 FF FF  ..).....4#R.....
0840: 7F F8 FF FF 7F 73 30 31  30 45 1C 80 F8 FF FF 7F  .....s010E......
0850: F8 FF FF 7F 73 30 32 30  01 80 29 0F BD 92 06 01  ....s020..).....
0860: 35 5D 01 80 0A 80 C4 02  33 80 BF 92 06 01 BD 92  5]......3.......
0870: 06 01 1C 1E 80 6E BD 92  06 01 2B 80 99 BD 92 06  .....n....+.....
0880: 01 29 0F BD 92 06 01 36  52 1C 80 F8 FF FF 7F F8  .).....6R.......
0890: FF FF 7F 73 30 32 30 45  1C 80 F8 FF FF 7F F8 FF  ...s020E........
08A0: FF 7F 73 30 30 39 01 80  1C 20 80 1C 20 80 52 1C  ..s009... .. .R.
08B0: 80 F8 FF FF 7F F8 FF FF  7F 73 30 30 39 02 09 10  .........s009...
08C0: 34 80 00 D9 08 45 1C 80  F8 FF FF 7F F8 FF FF 7F  4....E..........
08D0: 73 30 32 37 01 80 01 3E  09 02 09 10 1B 80 00 F5  s027...>........
08E0: 08 45 1C 80 F8 FF FF 7F  F8 FF FF 7F 73 30 33 34  .E..........s034
08F0: 01 80 01 3E 09 02 09 10  1D 80 00 11 09 45 1C 80  ...>.........E..
0900: F8 FF FF 7F F8 FF FF 7F  73 30 33 34 01 80 01 3E  ........s034...>
0910: 09 02 09 10 35 80 00 2D  09 45 1C 80 F8 FF FF 7F  ....5..-.E......
0920: F8 FF FF 7F 73 30 32 37  01 80 01 3E 09 45 1C 80  ....s027...>.E..
0930: F8 FF FF 7F F8 FF FF 7F  73 30 34 32 01 80 4A BD  ........s042..J.
0940: 92 06 01 F0 FF FF 7F 6F  76 BD 92 06 01 29 0F BD  .......ov....)..
0950: 92 06 01 2F 2B BD 92 06  01 36 80 1C 1F 80 4A F0  .../+....6....J.
0960: FF FF 7F BD 92 06 01 6F  76 F0 FF FF 7F 23 29 0F  .......ov....#).
0970: BD 92 06 01 30 02 09 10  34 80 00 8F 09 52 1C 80  ....0...4....R..
0980: F8 FF FF 7F F8 FF FF 7F  73 30 32 37 01 EC 09 02  ........s027....
0990: 09 10 1B 80 00 A9 09 52  1C 80 F8 FF FF 7F F8 FF  .......R........
09A0: FF 7F 73 30 33 34 01 EC  09 02 09 10 1D 80 00 C3  ..s034..........
09B0: 09 52 1C 80 F8 FF FF 7F  F8 FF FF 7F 73 30 33 34  .R..........s034
09C0: 01 EC 09 02 09 10 35 80  00 DD 09 52 1C 80 F8 FF  ......5....R....
09D0: FF 7F F8 FF FF 7F 73 30  32 37 01 EC 09 52 1C 80  ......s027...R..
09E0: F8 FF FF 7F F8 FF FF 7F  73 30 34 32 45 1C 80 F8  ........s042E...
09F0: FF FF 7F F8 FF FF 7F 73  30 32 33 01 80 5C 00 26  .......s023..\.&
0A00: 80 5C 01 26 80 9A 5D 27  80 03 80 2B BD 92 06 01  .\.&..]'...+....
0A10: 37 80 6E BD 92 06 01 0F  80 99 BD 92 06 01 45 1C  7.n...........E.
0A20: 80 F8 FF FF 7F F8 FF FF  7F 37 31 33 34 01 80 1C  .........7134...
0A30: 2E 80 1C 06 80 23 52 1C  80 F8 FF FF 7F F8 FF FF  .....#R.........
0A40: 7F 73 30 32 33 45 1C 80  F8 FF FF 7F F8 FF FF 7F  .s023E..........
0A50: 73 30 31 32 01 80 9F 38  80 BD 92 06 01 BD 92 06  s012...8........
0A60: 01 6D 61 69 6E 01 80 2B  BD 92 06 01 39 80 6E BD  .main..+....9.n.
0A70: 92 06 01 3A 80 99 BD 92  06 01 45 1C 80 F8 FF FF  ...:......E.....
0A80: 7F F8 FF FF 7F 31 31 31  38 01 80 1C 2E 80 1C 1E  .....1118.......
0A90: 80 23 52 1C 80 F8 FF FF  7F F8 FF FF 7F 73 30 31  .#R..........s01
0AA0: 32 02 09 10 34 80 00 BD  0A 45 1C 80 F8 FF FF 7F  2...4....E......
0AB0: F8 FF FF 7F 73 30 31 33  01 80 01 22 0B 02 09 10  ....s013..."....
0AC0: 1B 80 00 D9 0A 45 1C 80  F8 FF FF 7F F8 FF FF 7F  .....E..........
0AD0: 73 30 33 35 01 80 01 22  0B 02 09 10 1D 80 00 F5  s035..."........
0AE0: 0A 45 1C 80 F8 FF FF 7F  F8 FF FF 7F 73 30 33 35  .E..........s035
0AF0: 01 80 01 22 0B 02 09 10  35 80 00 11 0B 45 1C 80  ..."....5....E..
0B00: F8 FF FF 7F F8 FF FF 7F  73 30 31 33 01 80 01 22  ........s013..."
0B10: 0B 45 1C 80 F8 FF FF 7F  F8 FF FF 7F 73 30 34 33  .E..........s043
0B20: 01 80 9F 38 80 BD 92 06  01 BD 92 06 01 6B 69 6C  ...8.........kil
0B30: 6C 01 80 03 04 00 01 80  02 02 00 03 80 01 47 0B  l.............G.
0B40: 3C 04 00 34 80 03 80 24  3B 80 01 80 04 00 25 02  <..4...$;.....%.
0B50: 00 10 01 80 00 A7 0D 02  03 00 3C 80 80 69 0B 27  ..........<..i.'
0B60: 0F F0 FF FF 7F 1C 01 D5  0B 02 03 00 3D 80 80 7B  ............=..{
0B70: 0B 27 0F F0 FF FF 7F 1D  01 D5 0B 02 03 00 3E 80  .'............>.
0B80: 80 8D 0B 27 0F F0 FF FF  7F 1E 01 D5 0B 02 03 00  ...'............
0B90: 3F 80 80 9F 0B 27 0F F0  FF FF 7F 1F 01 D5 0B 02  ?....'..........
0BA0: 03 00 40 80 80 B1 0B 27  0F F0 FF FF 7F 20 01 D5  ..@....'..... ..
0BB0: 0B 02 03 00 41 80 80 C3  0B 27 0F F0 FF FF 7F 21  ....A....'.....!
0BC0: 01 D5 0B 02 03 00 42 80  80 D5 0B 27 0F F0 FF FF  ......B....'....
0BD0: 7F 22 01 D5 0B 1C 43 80  02 09 10 34 80 00 F2 0B  ."....C....4....
0BE0: 52 1C 80 F8 FF FF 7F F8  FF FF 7F 73 30 31 33 01  R..........s013.
0BF0: 4F 0C 02 09 10 1B 80 00  0C 0C 52 1C 80 F8 FF FF  O.........R.....
0C00: 7F F8 FF FF 7F 73 30 33  35 01 4F 0C 02 09 10 1D  .....s035.O.....
0C10: 80 00 26 0C 52 1C 80 F8  FF FF 7F F8 FF FF 7F 73  ..&.R..........s
0C20: 30 33 35 01 4F 0C 02 09  10 35 80 00 40 0C 52 1C  035.O....5..@.R.
0C30: 80 F8 FF FF 7F F8 FF FF  7F 73 30 31 33 01 4F 0C  .........s013.O.
0C40: 52 1C 80 F8 FF FF 7F F8  FF FF 7F 73 30 34 33 02  R..........s043.
0C50: 09 10 1B 80 00 6B 0C 45  1C 80 F8 FF FF 7F F8 FF  .....k.E........
0C60: FF 7F 73 30 33 36 01 80  01 98 0C 02 09 10 1D 80  ..s036..........
0C70: 00 87 0C 45 1C 80 F8 FF  FF 7F F8 FF FF 7F 73 30  ...E..........s0
0C80: 33 36 01 80 01 98 0C 45  1C 80 F8 FF FF 7F F8 FF  36.....E........
0C90: FF 7F 73 30 32 38 01 80  45 1C 80 F8 FF FF 7F F8  ..s028..E.......
0CA0: FF FF 7F 30 30 32 35 01  80 1C 1E 80 6E BD 92 06  ...0025.....n...
0CB0: 01 2B 80 99 BD 92 06 01  1C 20 80 1C 06 80 02 09  .+....... ......
0CC0: 10 1B 80 00 D8 0C 52 1C  80 F8 FF FF 7F F8 FF FF  ......R.........
0CD0: 7F 73 30 33 36 01 01 0D  02 09 10 1D 80 00 F2 0C  .s036...........
0CE0: 52 1C 80 F8 FF FF 7F F8  FF FF 7F 73 30 33 36 01  R..........s036.
0CF0: 01 0D 52 1C 80 F8 FF FF  7F F8 FF FF 7F 73 30 32  ..R..........s02
0D00: 38 02 09 10 1B 80 00 1D  0D 45 1C 80 F8 FF FF 7F  8........E......
0D10: F8 FF FF 7F 73 30 33 37  01 80 01 4A 0D 02 09 10  ....s037...J....
0D20: 1D 80 00 39 0D 45 1C 80  F8 FF FF 7F F8 FF FF 7F  ...9.E..........
0D30: 73 30 33 37 01 80 01 4A  0D 45 1C 80 F8 FF FF 7F  s037...J.E......
0D40: F8 FF FF 7F 73 30 31 35  01 80 2B BD 92 06 01 44  ....s015..+....D
0D50: 80 6E BD 92 06 01 45 80  99 BD 92 06 01 1C 31 80  .n....E.......1.
0D60: 23 02 09 10 1B 80 00 7B  0D 52 1C 80 F8 FF FF 7F  #......{.R......
0D70: F8 FF FF 7F 73 30 33 37  01 A4 0D 02 09 10 1D 80  ....s037........
0D80: 00 95 0D 52 1C 80 F8 FF  FF 7F F8 FF FF 7F 73 30  ...R..........s0
0D90: 33 37 01 A4 0D 52 1C 80  F8 FF FF 7F F8 FF FF 7F  37...R..........
0DA0: 73 30 31 35 01 44 13 02  00 10 03 80 00 8D 0F 02  s015.D..........
0DB0: 09 10 34 80 00 C9 0D 52  1C 80 F8 FF FF 7F F8 FF  ..4....R........
0DC0: FF 7F 73 30 31 33 01 26  0E 02 09 10 1B 80 00 E3  ..s013.&........
0DD0: 0D 52 1C 80 F8 FF FF 7F  F8 FF FF 7F 73 30 33 35  .R..........s035
0DE0: 01 26 0E 02 09 10 1D 80  00 FD 0D 52 1C 80 F8 FF  .&.........R....
0DF0: FF 7F F8 FF FF 7F 73 30  33 35 01 26 0E 02 09 10  ......s035.&....
0E00: 35 80 00 17 0E 52 1C 80  F8 FF FF 7F F8 FF FF 7F  5....R..........
0E10: 73 30 31 33 01 26 0E 52  1C 80 F8 FF FF 7F F8 FF  s013.&.R........
0E20: FF 7F 73 30 34 33 02 09  10 1B 80 00 42 0E 45 1C  ..s043......B.E.
0E30: 80 F8 FF FF 7F F8 FF FF  7F 73 30 34 31 01 80 01  .........s041...
0E40: 6F 0E 02 09 10 1D 80 00  5E 0E 45 1C 80 F8 FF FF  o.......^.E.....
0E50: 7F F8 FF FF 7F 73 30 34  31 01 80 01 6F 0E 45 1C  .....s041...o.E.
0E60: 80 F8 FF FF 7F F8 FF FF  7F 73 30 31 34 01 80 45  .........s014..E
0E70: 1C 80 F8 FF FF 7F F8 FF  FF 7F 30 30 32 36 01 80  ..........0026..
0E80: 6E F0 FF FF 7F 3A 80 99  F0 FF FF 7F 1C 2E 80 1C  n....:..........
0E90: 46 80 6E BD 92 06 01 2B  80 99 BD 92 06 01 1C 29  F.n....+.......)
0EA0: 80 02 09 10 1B 80 00 BB  0E 52 1C 80 F8 FF FF 7F  .........R......
0EB0: F8 FF FF 7F 73 30 34 31  01 E4 0E 02 09 10 1D 80  ....s041........
0EC0: 00 D5 0E 52 1C 80 F8 FF  FF 7F F8 FF FF 7F 73 30  ...R..........s0
0ED0: 34 31 01 E4 0E 52 1C 80  F8 FF FF 7F F8 FF FF 7F  41...R..........
0EE0: 73 30 31 34 02 09 10 1B  80 00 00 0F 45 1C 80 F8  s014........E...
0EF0: FF FF 7F F8 FF FF 7F 73  30 33 37 01 80 01 2D 0F  .......s037...-.
0F00: 02 09 10 1D 80 00 1C 0F  45 1C 80 F8 FF FF 7F F8  ........E.......
0F10: FF FF 7F 73 30 33 37 01  80 01 2D 0F 45 1C 80 F8  ...s037...-.E...
0F20: FF FF 7F F8 FF FF 7F 73  30 31 35 01 80 1C 06 80  .......s015.....
0F30: 2B BD 92 06 01 47 80 6E  BD 92 06 01 45 80 99 BD  +....G.n....E...
0F40: 92 06 01 1C 31 80 23 02  09 10 1B 80 00 61 0F 52  ....1.#......a.R
0F50: 1C 80 F8 FF FF 7F F8 FF  FF 7F 73 30 33 37 01 8A  ..........s037..
0F60: 0F 02 09 10 1D 80 00 7B  0F 52 1C 80 F8 FF FF 7F  .......{.R......
0F70: F8 FF FF 7F 73 30 33 37  01 8A 0F 52 1C 80 F8 FF  ....s037...R....
0F80: FF 7F F8 FF FF 7F 73 30  31 35 01 44 13 02 00 10  ......s015.D....
0F90: 05 80 00 73 11 02 09 10  34 80 00 AF 0F 52 1C 80  ...s....4....R..
0FA0: F8 FF FF 7F F8 FF FF 7F  73 30 31 33 01 0C 10 02  ........s013....
0FB0: 09 10 1B 80 00 C9 0F 52  1C 80 F8 FF FF 7F F8 FF  .......R........
0FC0: FF 7F 73 30 33 35 01 0C  10 02 09 10 1D 80 00 E3  ..s035..........
0FD0: 0F 52 1C 80 F8 FF FF 7F  F8 FF FF 7F 73 30 33 35  .R..........s035
0FE0: 01 0C 10 02 09 10 35 80  00 FD 0F 52 1C 80 F8 FF  ......5....R....
0FF0: FF 7F F8 FF FF 7F 73 30  31 33 01 0C 10 52 1C 80  ......s013...R..
1000: F8 FF FF 7F F8 FF FF 7F  73 30 34 33 02 09 10 1B  ........s043....
1010: 80 00 28 10 45 1C 80 F8  FF FF 7F F8 FF FF 7F 73  ..(.E..........s
1020: 30 34 31 01 80 01 55 10  02 09 10 1D 80 00 44 10  041...U.......D.
1030: 45 1C 80 F8 FF FF 7F F8  FF FF 7F 73 30 34 31 01  E..........s041.
1040: 80 01 55 10 45 1C 80 F8  FF FF 7F F8 FF FF 7F 73  ..U.E..........s
1050: 30 31 34 01 80 6E F0 FF  FF 7F 48 80 99 F0 FF FF  014..n....H.....
1060: 7F 1C 20 80 45 1C 80 F8  FF FF 7F F8 FF FF 7F 30  .. .E..........0
1070: 30 32 37 01 80 1C 20 80  6E BD 92 06 01 2B 80 99  027... .n....+..
1080: BD 92 06 01 1C 20 80 02  09 10 1B 80 00 A1 10 52  ..... .........R
1090: 1C 80 F8 FF FF 7F F8 FF  FF 7F 73 30 34 31 01 CA  ..........s041..
10A0: 10 02 09 10 1D 80 00 BB  10 52 1C 80 F8 FF FF 7F  .........R......
10B0: F8 FF FF 7F 73 30 34 31  01 CA 10 52 1C 80 F8 FF  ....s041...R....
10C0: FF 7F F8 FF FF 7F 73 30  31 34 02 09 10 1B 80 00  ......s014......
10D0: E6 10 45 1C 80 F8 FF FF  7F F8 FF FF 7F 73 30 33  ..E..........s03
10E0: 37 01 80 01 13 11 02 09  10 1D 80 00 02 11 45 1C  7.............E.
10F0: 80 F8 FF FF 7F F8 FF FF  7F 73 30 33 37 01 80 01  .........s037...
1100: 13 11 45 1C 80 F8 FF FF  7F F8 FF FF 7F 73 30 31  ..E..........s01
1110: 35 01 80 1C 20 80 2B BD  92 06 01 49 80 6E BD 92  5... .+....I.n..
1120: 06 01 45 80 99 BD 92 06  01 1C 31 80 23 02 09 10  ..E.......1.#...
1130: 1B 80 00 47 11 52 1C 80  F8 FF FF 7F F8 FF FF 7F  ...G.R..........
1140: 73 30 33 37 01 70 11 02  09 10 1D 80 00 61 11 52  s037.p.......a.R
1150: 1C 80 F8 FF FF 7F F8 FF  FF 7F 73 30 33 37 01 70  ..........s037.p
1160: 11 52 1C 80 F8 FF FF 7F  F8 FF FF 7F 73 30 31 35  .R..........s015
1170: 01 44 13 02 00 10 34 80  00 44 13 02 09 10 34 80  .D....4..D....4.
1180: 00 95 11 52 1C 80 F8 FF  FF 7F F8 FF FF 7F 73 30  ...R..........s0
1190: 31 33 01 F2 11 02 09 10  1B 80 00 AF 11 52 1C 80  13...........R..
11A0: F8 FF FF 7F F8 FF FF 7F  73 30 33 35 01 F2 11 02  ........s035....
11B0: 09 10 1D 80 00 C9 11 52  1C 80 F8 FF FF 7F F8 FF  .......R........
11C0: FF 7F 73 30 33 35 01 F2  11 02 09 10 35 80 00 E3  ..s035......5...
11D0: 11 52 1C 80 F8 FF FF 7F  F8 FF FF 7F 73 30 31 33  .R..........s013
11E0: 01 F2 11 52 1C 80 F8 FF  FF 7F F8 FF FF 7F 73 30  ...R..........s0
11F0: 34 33 02 09 10 1B 80 00  0E 12 45 1C 80 F8 FF FF  43........E.....
1200: 7F F8 FF FF 7F 73 30 33  36 01 80 01 3B 12 02 09  .....s036...;...
1210: 10 1D 80 00 2A 12 45 1C  80 F8 FF FF 7F F8 FF FF  ....*.E.........
1220: 7F 73 30 33 36 01 80 01  3B 12 45 1C 80 F8 FF FF  .s036...;.E.....
1230: 7F F8 FF FF 7F 73 30 32  38 01 80 45 1C 80 F8 FF  .....s028..E....
1240: FF 7F F8 FF FF 7F 30 30  32 35 01 80 6E F0 FF FF  ......0025..n...
1250: 7F 1F 80 99 F0 FF FF 7F  1C 2E 80 02 09 10 1B 80  ................
1260: 00 75 12 52 1C 80 F8 FF  FF 7F F8 FF FF 7F 73 30  .u.R..........s0
1270: 33 36 01 9E 12 02 09 10  1D 80 00 8F 12 52 1C 80  36...........R..
1280: F8 FF FF 7F F8 FF FF 7F  73 30 33 36 01 9E 12 52  ........s036...R
1290: 1C 80 F8 FF FF 7F F8 FF  FF 7F 73 30 32 38 02 09  ..........s028..
12A0: 10 1B 80 00 BA 12 45 1C  80 F8 FF FF 7F F8 FF FF  ......E.........
12B0: 7F 73 30 33 37 01 80 01  E7 12 02 09 10 1D 80 00  .s037...........
12C0: D6 12 45 1C 80 F8 FF FF  7F F8 FF FF 7F 73 30 33  ..E..........s03
12D0: 37 01 80 01 E7 12 45 1C  80 F8 FF FF 7F F8 FF FF  7.....E.........
12E0: 7F 73 30 31 35 01 80 2B  BD 92 06 01 4A 80 6E BD  .s015..+....J.n.
12F0: 92 06 01 08 80 99 BD 92  06 01 1C 31 80 23 02 09  ...........1.#..
1300: 10 1B 80 00 18 13 52 1C  80 F8 FF FF 7F F8 FF FF  ......R.........
1310: 7F 73 30 33 37 01 41 13  02 09 10 1D 80 00 32 13  .s037.A.......2.
1320: 52 1C 80 F8 FF FF 7F F8  FF FF 7F 73 30 33 37 01  R..........s037.
1330: 41 13 52 1C 80 F8 FF FF  7F F8 FF FF 7F 73 30 31  A.R..........s01
1340: 35 01 44 13 02 00 10 34  80 01 AE 15 02 09 10 1B  5.D....4........
1350: 80 00 68 13 45 1C 80 F8  FF FF 7F F8 FF FF 7F 73  ..h.E..........s
1360: 30 33 38 01 80 01 95 13  02 09 10 1D 80 00 84 13  038.............
1370: 45 1C 80 F8 FF FF 7F F8  FF FF 7F 73 30 33 38 01  E..........s038.
1380: 80 01 95 13 45 1C 80 F8  FF FF 7F F8 FF FF 7F 73  ....E..........s
1390: 30 31 36 01 80 7B BD 92  06 01 29 0F BD 92 06 01  016..{....).....
13A0: 05 2B BD 92 06 01 4B 80  23 29 0F BD 92 06 01 06  .+....K.#)......
13B0: 24 4C 80 01 80 01 80 25  02 00 10 01 80 00 5A 14  $L.....%......Z.
13C0: 29 0F BD 92 06 01 07 6E  F0 FF FF 7F 4D 80 99 F0  )......n....M...
13D0: FF FF 7F 1C 20 80 29 0F  BD 92 06 01 08 02 09 10  .... .).........
13E0: 1B 80 00 F7 13 52 1C 80  F8 FF FF 7F F8 FF FF 7F  .....R..........
13F0: 73 30 33 38 01 20 14 02  09 10 1D 80 00 11 14 52  s038. .........R
1400: 1C 80 F8 FF FF 7F F8 FF  FF 7F 73 30 33 38 01 20  ..........s038. 
1410: 14 52 1C 80 F8 FF FF 7F  F8 FF FF 7F 73 30 31 36  .R..........s016
1420: 45 1C 80 F8 FF FF 7F F8  FF FF 7F 73 30 32 34 01  E..........s024.
1430: 80 2B BD 92 06 01 4E 80  6E BD 92 06 01 4F 80 99  .+....N.n....O..
1440: BD 92 06 01 1C 31 80 23  52 1C 80 F8 FF FF 7F F8  .....1.#R.......
1450: FF FF 7F 73 30 32 34 01  FC 14 02 00 10 03 80 00  ...s024.........
1460: FC 14 29 0F BD 92 06 01  07 6E F0 FF FF 7F 1D 80  ..)......n......
1470: 99 F0 FF FF 7F 1C 20 80  29 0F BD 92 06 01 08 02  ...... .).......
1480: 09 10 1B 80 00 99 14 52  1C 80 F8 FF FF 7F F8 FF  .......R........
1490: FF 7F 73 30 33 38 01 C2  14 02 09 10 1D 80 00 B3  ..s038..........
14A0: 14 52 1C 80 F8 FF FF 7F  F8 FF FF 7F 73 30 33 38  .R..........s038
14B0: 01 C2 14 52 1C 80 F8 FF  FF 7F F8 FF FF 7F 73 30  ...R..........s0
14C0: 31 36 45 1C 80 F8 FF FF  7F F8 FF FF 7F 73 30 32  16E..........s02
14D0: 34 01 80 2B BD 92 06 01  50 80 6E BD 92 06 01 08  4..+....P.n.....
14E0: 80 99 BD 92 06 01 1C 31  80 23 52 1C 80 F8 FF FF  .......1.#R.....
14F0: 7F F8 FF FF 7F 73 30 32  34 01 FC 14 02 09 10 1B  .....s024.......
1500: 80 00 18 15 45 1C 80 F8  FF FF 7F F8 FF FF 7F 73  ....E..........s
1510: 30 33 39 01 80 01 45 15  02 09 10 1D 80 00 34 15  039...E.......4.
1520: 45 1C 80 F8 FF FF 7F F8  FF FF 7F 73 30 33 39 01  E..........s039.
1530: 80 01 45 15 45 1C 80 F8  FF FF 7F F8 FF FF 7F 73  ..E.E..........s
1540: 30 31 37 01 80 7B BD 92  06 01 29 0F BD 92 06 01  017..{....).....
1550: 05 2B BD 92 06 01 51 80  23 2B BD 92 06 01 52 80  .+....Q.#+....R.
1560: 23 29 0F BD 92 06 01 06  02 09 10 1B 80 00 82 15  #)..............
1570: 52 1C 80 F8 FF FF 7F F8  FF FF 7F 73 30 33 39 01  R..........s039.
1580: AB 15 02 09 10 1D 80 00  9C 15 52 1C 80 F8 FF FF  ..........R.....
1590: 7F F8 FF FF 7F 73 30 33  39 01 AB 15 52 1C 80 F8  .....s039...R...
15A0: FF FF 7F F8 FF FF 7F 73  30 31 37 01 E5 15 45 1C  .......s017...E.
15B0: 80 F8 FF FF 7F F8 FF FF  7F 73 30 32 34 01 80 2B  .........s024..+
15C0: BD 92 06 01 53 80 6E BD  92 06 01 4F 80 99 BD 92  ....S.n....O....
15D0: 06 01 1C 31 80 23 52 1C  80 F8 FF FF 7F F8 FF FF  ...1.#R.........
15E0: 7F 73 30 32 34 5D 01 80  0A 80 27 0F BF 92 06 01  .s024]....'.....
15F0: 06 1C 43 80 45 1C 80 F8  FF FF 7F F8 FF FF 7F 73  ..C.E..........s
1600: 30 32 35 01 80 45 1C 80  F8 FF FF 7F F8 FF FF 7F  025..E..........
1610: 38 31 36 30 01 80 4A F0  FF FF 7F BF 92 06 01 1C  8160..J.........
1620: 06 80 1C 2C 80 52 1C 80  F8 FF FF 7F F8 FF FF 7F  ...,.R..........
1630: 73 30 32 35 45 1C 80 F8  FF FF 7F F8 FF FF 7F 73  s025E..........s
1640: 30 31 38 01 80 45 1C 80  F8 FF FF 7F F8 FF FF 7F  018..E..........
1650: 34 31 32 36 01 80 6F 76  F0 FF FF 7F 4A BD 92 06  4126..ov....J...
1660: 01 BF 92 06 01 29 0F F0  FF FF 7F 19 6F 76 BD 92  .....)......ov..
1670: 06 01 29 0F BD 92 06 01  37 1C 2C 80 52 1C 80 F8  ..).....7.,.R...
1680: FF FF 7F F8 FF FF 7F 73  30 31 38 45 1C 80 F8 FF  .......s018E....
1690: FF 7F F8 FF FF 7F 73 30  34 30 01 80 BA F0 FF FF  ......s040......
16A0: 7F 54 80 55 80 56 80 57  80 2A 0F BF 92 06 01 C4  .T.U.V.W.*......
16B0: 02 58 80 BF 92 06 01 F0  FF FF 7F 1C 2C 80 52 1C  .X..........,.R.
16C0: 80 F8 FF FF 7F F8 FF FF  7F 73 30 34 30 45 1C 80  .........s040E..
16D0: F8 FF FF 7F F8 FF FF 7F  73 30 31 39 01 80 7B BD  ........s019..{.
16E0: 92 06 01 1C 29 80 29 0F  BD 92 06 01 38 1C 03 80  ....).).....8...
16F0: 29 0F BD 92 06 01 0D 52  1C 80 F8 FF FF 7F F8 FF  )......R........
1700: FF 7F 73 30 31 39 45 1C  80 F8 FF FF 7F F8 FF FF  ..s019E.........
1710: 7F 73 30 32 31 01 80 45  1C 80 F8 FF FF 7F F8 FF  .s021..E........
1720: FF 7F 36 31 32 31 01 80  2B BD 92 06 01 59 80 45  ..6121..+....Y.E
1730: 1C 80 F8 FF FF 7F F8 FF  FF 7F 34 31 32 31 01 80  ..........4121..
1740: 1C 31 80 23 52 1C 80 F8  FF FF 7F F8 FF FF 7F 73  .1.#R..........s
1750: 30 32 31 45 1C 80 F8 FF  FF 7F F8 FF FF 7F 73 30  021E..........s0
1760: 32 39 01 80 BA F0 FF FF  7F 18 80 19 80 12 80 5A  29.............Z
1770: 80 7C 00 BD 92 06 01 1C  20 80 1C 20 80 7C 01 BD  .|...... .. .|..
1780: 92 06 01 2B BD 92 06 01  5B 80 23 29 0F BD 92 06  ...+....[.#)....
1790: 01 0B 2B BD 92 06 01 5C  80 1C 29 80 52 1C 80 F8  ..+....\..).R...
17A0: FF FF 7F F8 FF FF 7F 73  30 32 39 45 1C 80 F8 FF  .......s029E....
17B0: FF 7F F8 FF FF 7F 62 72  6F 66 01 80 45 1C 80 F8  ......brof..E...
17C0: FF FF 7F F8 FF FF 7F 73  30 32 32 01 80 45 1C 80  .......s022..E..
17D0: F8 FF FF 7F F8 FF FF 7F  38 31 36 30 01 80 1C 29  ........8160...)
17E0: 80 29 0F BD 92 06 01 37  1C 2E 80 5D 01 80 0A 80  .).....7...]....
17F0: 1A B7 01 52 1C 80 F8 FF  FF 7F F8 FF FF 7F 73 30  ...R..........s0
1800: 32 32 23 29 0F F0 FF FF  7F 1A 29 0F BD 92 06 01  22#)......).....
1810: 38 1A 64 00 1A 85 00 5C  00 5D 80 5C 01 5D 80 5C  8.d....\.].\.].\
1820: 02 5E 80 5C 03 5F 80 9A  5D 27 80 03 80 1C 43 80  .^.\._..]'....C.
1830: AB 11 01 80 1C 03 80 78  46 00 45 00 80 F8 FF FF  .......xF.E.....
1840: 7F F8 FF FF 7F 66 64 69  32 01 80 21 00           .....fdi2..!.   
```

#### Opcodes

```
  0: 0x0292 [0x42] SET_CLI_EVENT_CANCEL_DATA()
  1: 0x0293 [0x03] ExtData[1]->WorkLocal[2] = Work_Zone[3]
  2: 0x0298 [0x03] ExtData[1]->WorkLocal[3] = Work_Zone[6]
  3: 0x029D [0x03] ExtData[1]->WorkLocal[1] = 0*
  4: 0x02A2 [0x02] IF !(ExtData[1]->WorkLocal[1] == 1*) GOTO 0x02B4
  5: 0x02AA [0x77] SET_EVENT_TIME_WEATHER(hour=22*, weather=255*)
  6: 0x02AF [0x03] ExtData[1]->WorkLocal[2] = 1*
  7: 0x02B4 [0x5D] SET_MUSIC_VOLUME(volume=0*, fade_time=300*)
  8: 0x02B9 [0x1A] CALL_SUBROUTINE(address=0x0064)
  9: 0x02BC [0x46] CAMERA_CONTROL: Disable user control
 10: 0x02BE [0x38] SET_CLIENT_EVENT_MODE(mode=147*)
 11: 0x02C1 [0x02] IF !(Work_Zone[9] == 1*) GOTO 0x02CE
 12: 0x02C9 [0x77] SET_EVENT_TIME_WEATHER(hour=22*, weather=255*)
 13: 0x02CE [0x2F] Mumor (ID: 17207997/0x010692BD)->Render.Flags0 &= ~0x80000 // Bit 19
 14: 0x02D4 [0x2F] Mumor (ID: 17207998/0x010692BE)->Render.Flags0 &= ~0x80000 // Bit 19
 15: 0x02DA [0x2F] Maat (ID: 17207999/0x010692BF)->Render.Flags0 &= ~0x80000 // Bit 19
 16: 0x02E0 [0x4E] SET_ENTITY_HIDE_FLAG: Show Mumor (ID: 17207997/0x010692BD)
 17: 0x02E6 [0x4E] SET_ENTITY_HIDE_FLAG: Show Mumor (ID: 17207998/0x010692BE)
 18: 0x02EC [0x4E] SET_ENTITY_HIDE_FLAG: Show Maat (ID: 17207999/0x010692BF)
 19: 0x02F2 [0x94] Mumor (ID: 17207997/0x010692BD)->Render.Flags3 ^= 0x01
 20: 0x02F8 [0x94] Mumor (ID: 17207998/0x010692BE)->Render.Flags3 ^= 0x01
 21: 0x02FE [0x94] Maat (ID: 17207999/0x010692BF)->Render.Flags3 ^= 0x01
 22: 0x0304 [0x94] LocalPlayer->Render.Flags3 ^= 0x01
 23: 0x030A [0xBA] SET_ENTITY_POSITION(entity_id=Mumor (ID: 17207997/0x010692BD), pos_x=289.142*, pos_z=86.028*, pos_y=8.398*, direction=1.1°*)
 24: 0x0317 [0xBA] SET_ENTITY_POSITION(entity_id=Mumor (ID: 17207998/0x010692BE), pos_x=318.889*, pos_z=78.896*, pos_y=8.000*, direction=269.4°*)
 25: 0x0324 [0xBA] SET_ENTITY_POSITION(entity_id=Maat (ID: 17207999/0x010692BF), pos_x=313.033*, pos_z=98.781*, pos_y=8.724*, direction=83.1°*)
 26: 0x0331 [0xBA] SET_ENTITY_POSITION(entity_id=LocalPlayer, pos_x=317.984*, pos_z=80.994*, pos_y=8.000*, direction=60.6°*)
 27: 0x033E [0x80] LOAD_WAIT(entity=Mumor (ID: 17207997/0x010692BD))
 28: 0x0343 [0x80] LOAD_WAIT(entity=Mumor (ID: 17207998/0x010692BE))
 29: 0x0348 [0x80] LOAD_WAIT(entity=Maat (ID: 17207999/0x010692BF))
 30: 0x034D [0x80] LOAD_WAIT(entity=LocalPlayer)
 31: 0x0352 [0x6C] FADE_ENTITY_COLOR(entity_id=Mumor (ID: 17207998/0x010692BE), end_alpha=0*, fade_time=1*)
 32: 0x035B [0x6C] FADE_ENTITY_COLOR(entity_id=Maat (ID: 17207999/0x010692BF), end_alpha=0*, fade_time=1*)
 33: 0x0364 [0x29] REQ_SET_WAIT(priority=0x0F, entity_id=LocalPlayer, tag_num=0x5C)
 34: 0x036B [0x29] REQ_SET_WAIT(priority=0x0F, entity_id=LocalPlayer, tag_num=0x1A)
 35: 0x0372 [0x29] REQ_SET_WAIT(priority=0x0F, entity_id=Mumor (ID: 17207997/0x010692BD), tag_num=0x38)
 36: 0x0379 [0x4A] Mumor (ID: 17207997/0x010692BD) looks at LocalPlayer
 37: 0x0382 [0x6F] WAIT_FRAME_DELAY: Yield until WaitTime reaches zero
 38: 0x0383 [0x76] CHECK_ENTITY_RENDER_FLAGS: Wait until Mumor (ID: 17207997/0x010692BD) Render.Flags0 and Render.Flags3 conditions are met
 39: 0x0388 [0x7B] Mumor (ID: 17207997/0x010692BD) stops talking
 40: 0x038D [0x02] IF !(Work_Zone[9] == 5*) GOTO 0x03A9
 41: 0x0395 [0x45] LOAD_SCHEDULED_TASK: Load scheduler "s030" with entities [EventEntity, EventEntity], work=[895*, 0*]
 42: 0x03A6 [0x01] GOTO 0x03D6
 43: 0x03A9 [0x02] IF !(Work_Zone[9] == 6*) GOTO 0x03C5
 44: 0x03B1 [0x45] LOAD_SCHEDULED_TASK: Load scheduler "s030" with entities [EventEntity, EventEntity], work=[895*, 0*]
 45: 0x03C2 [0x01] GOTO 0x03D6
 46: 0x03C5 [0x45] LOAD_SCHEDULED_TASK: Load scheduler "s000" with entities [EventEntity, EventEntity], work=[895*, 0*]

SUBROUTINE_03D6:
 47: 0x03D6 [0x1A] CALL_SUBROUTINE(address=0x0043)
 48: 0x03D9 [0x1C] WAIT(100* ticks)
 49: 0x03DC [0x27] REQ_SET(priority=0x0F, entity_id=Mumor (ID: 17207997/0x010692BD), tag_num=0x3E)
 50: 0x03E3 [0x1C] WAIT(10* ticks)
 51: 0x03E6 [0x02] IF !(Work_Zone[9] == 5*) GOTO 0x0400
 52: 0x03EE [0x52] END_LOAD_SCHEDULER: End scheduler "s030" with entities [EventEntity, EventEntity], work=895*
 53: 0x03FD [0x01] GOTO 0x0429
 54: 0x0400 [0x02] IF !(Work_Zone[9] == 6*) GOTO 0x041A
 55: 0x0408 [0x52] END_LOAD_SCHEDULER: End scheduler "s030" with entities [EventEntity, EventEntity], work=895*
 56: 0x0417 [0x01] GOTO 0x0429
 57: 0x041A [0x52] END_LOAD_SCHEDULER: End scheduler "s000" with entities [EventEntity, EventEntity], work=895*

SUBROUTINE_0429:
 58: 0x0429 [0x45] LOAD_SCHEDULED_TASK: Load scheduler "s001" with entities [EventEntity, EventEntity], work=[895*, 0*]
 59: 0x043A [0x1C] WAIT(60* ticks)
 60: 0x043D [0x1C] WAIT(60* ticks)
 61: 0x0440 [0x52] END_LOAD_SCHEDULER: End scheduler "s001" with entities [EventEntity, EventEntity], work=895*
 62: 0x044F [0x02] IF !(Work_Zone[9] == 5*) GOTO 0x046B
 63: 0x0457 [0x45] LOAD_SCHEDULED_TASK: Load scheduler "s031" with entities [EventEntity, EventEntity], work=[895*, 0*]
 64: 0x0468 [0x01] GOTO 0x0498
 65: 0x046B [0x02] IF !(Work_Zone[9] == 6*) GOTO 0x0487
 66: 0x0473 [0x45] LOAD_SCHEDULED_TASK: Load scheduler "s031" with entities [EventEntity, EventEntity], work=[895*, 0*]
 67: 0x0484 [0x01] GOTO 0x0498
 68: 0x0487 [0x45] LOAD_SCHEDULED_TASK: Load scheduler "s002" with entities [EventEntity, EventEntity], work=[895*, 0*]

SUBROUTINE_0498:
 69: 0x0498 [0x1C] WAIT(30* ticks)
 70: 0x049B [0x2B] Mumor (ID: 17207997/0x010692BD) [13015*]:
    → "<Player>!"
 71: 0x04A2 [0x4A] LocalPlayer looks at Mumor (ID: 17207997/0x010692BD)
 72: 0x04AB [0x6F] WAIT_FRAME_DELAY: Yield until WaitTime reaches zero
 73: 0x04AC [0x76] CHECK_ENTITY_RENDER_FLAGS: Wait until LocalPlayer Render.Flags0 and Render.Flags3 conditions are met
 74: 0x04B1 [0x1C] WAIT(100* ticks)
 75: 0x04B4 [0x02] IF !(Work_Zone[9] == 5*) GOTO 0x04CE
 76: 0x04BC [0x52] END_LOAD_SCHEDULER: End scheduler "s031" with entities [EventEntity, EventEntity], work=895*
 77: 0x04CB [0x01] GOTO 0x04F7
 78: 0x04CE [0x02] IF !(Work_Zone[9] == 6*) GOTO 0x04E8
 79: 0x04D6 [0x52] END_LOAD_SCHEDULER: End scheduler "s031" with entities [EventEntity, EventEntity], work=895*
 80: 0x04E5 [0x01] GOTO 0x04F7
 81: 0x04E8 [0x52] END_LOAD_SCHEDULER: End scheduler "s002" with entities [EventEntity, EventEntity], work=895*

SUBROUTINE_04F7:
 82: 0x04F7 [0x45] LOAD_SCHEDULED_TASK: Load scheduler "s003" with entities [EventEntity, EventEntity], work=[895*, 0*]
 83: 0x0508 [0x2A] GET_REQ_LEVEL(level=15, entity_id=Mumor (ID: 17207997/0x010692BD))
 84: 0x050E [0x52] END_LOAD_SCHEDULER: End scheduler "s003" with entities [EventEntity, EventEntity], work=895*
 85: 0x051D [0x45] LOAD_SCHEDULED_TASK: Load scheduler "s011" with entities [EventEntity, EventEntity], work=[895*, 0*]
 86: 0x052E [0x29] REQ_SET_WAIT(priority=0x0F, entity_id=Mumor (ID: 17207997/0x010692BD), tag_num=0x01)
 87: 0x0535 [0x2B] Mumor (ID: 17207997/0x010692BD) [13016*]:
    → "Well!? Did you find the shadow!?"
 88: 0x053C [0x23] WAIT_FOR_DIALOG_INTERACTION
 89: 0x053D [0x29] REQ_SET_WAIT(priority=0x0F, entity_id=Mumor (ID: 17207997/0x010692BD), tag_num=0x02)
 90: 0x0544 [0x29] REQ_SET_WAIT(priority=0x0F, entity_id=Mumor (ID: 17207997/0x010692BD), tag_num=0x03)
 91: 0x054B [0x52] END_LOAD_SCHEDULER: End scheduler "s011" with entities [EventEntity, EventEntity], work=895*
 92: 0x055A [0x02] IF !(Work_Zone[9] == 5*) GOTO 0x0576
 93: 0x0562 [0x45] LOAD_SCHEDULED_TASK: Load scheduler "s032" with entities [EventEntity, EventEntity], work=[895*, 0*]
 94: 0x0573 [0x01] GOTO 0x05A3
 95: 0x0576 [0x02] IF !(Work_Zone[9] == 6*) GOTO 0x0592
 96: 0x057E [0x45] LOAD_SCHEDULED_TASK: Load scheduler "s032" with entities [EventEntity, EventEntity], work=[895*, 0*]
 97: 0x058F [0x01] GOTO 0x05A3
 98: 0x0592 [0x45] LOAD_SCHEDULED_TASK: Load scheduler "s004" with entities [EventEntity, EventEntity], work=[895*, 0*]

SUBROUTINE_05A3:
 99: 0x05A3 [0x6E] LocalPlayer uses emote 6*
100: 0x05AA [0x99] Wait for LocalPlayer animation to complete
101: 0x05AF [0x1C] WAIT(30* ticks)
102: 0x05B2 [0x1C] WAIT(100* ticks)
103: 0x05B5 [0x29] REQ_SET_WAIT(priority=0x0F, entity_id=Mumor (ID: 17207997/0x010692BD), tag_num=0x04)
104: 0x05BC [0x6C] FADE_ENTITY_COLOR(entity_id=Maat (ID: 17207999/0x010692BF), end_alpha=128*, fade_time=1*)
105: 0x05C5 [0x45] LOAD_SCHEDULED_TASK: Load scheduler "8331" with entities [EventEntity, EventEntity], work=[895*, 0*]
106: 0x05D6 [0x4A] Mumor (ID: 17207997/0x010692BD) looks at Maat (ID: 17207999/0x010692BF)
107: 0x05DF [0x6F] WAIT_FRAME_DELAY: Yield until WaitTime reaches zero
108: 0x05E0 [0x76] CHECK_ENTITY_RENDER_FLAGS: Wait until Mumor (ID: 17207997/0x010692BD) Render.Flags0 and Render.Flags3 conditions are met
109: 0x05E5 [0x02] IF !(Work_Zone[9] == 5*) GOTO 0x05FF
110: 0x05ED [0x52] END_LOAD_SCHEDULER: End scheduler "s032" with entities [EventEntity, EventEntity], work=895*
111: 0x05FC [0x01] GOTO 0x0628
112: 0x05FF [0x02] IF !(Work_Zone[9] == 6*) GOTO 0x0619
113: 0x0607 [0x52] END_LOAD_SCHEDULER: End scheduler "s032" with entities [EventEntity, EventEntity], work=895*
114: 0x0616 [0x01] GOTO 0x0628
115: 0x0619 [0x52] END_LOAD_SCHEDULER: End scheduler "s004" with entities [EventEntity, EventEntity], work=895*

SUBROUTINE_0628:
116: 0x0628 [0x45] LOAD_SCHEDULED_TASK: Load scheduler "s005" with entities [EventEntity, EventEntity], work=[895*, 0*]
117: 0x0639 [0x45] LOAD_SCHEDULED_TASK: Load scheduler "4126" with entities [EventEntity, EventEntity], work=[895*, 0*]
118: 0x064A [0x1C] WAIT(30* ticks)
119: 0x064D [0x2B] Mumor (ID: 17207997/0x010692BD) [13017*]:
    → "Wait, is that..."
120: 0x0654 [0x1C] WAIT(60* ticks)
121: 0x0657 [0x1C] WAIT(30* ticks)
122: 0x065A [0x52] END_LOAD_SCHEDULER: End scheduler "s005" with entities [EventEntity, EventEntity], work=895*
123: 0x0669 [0x45] LOAD_SCHEDULED_TASK: Load scheduler "s006" with entities [EventEntity, EventEntity], work=[895*, 0*]
124: 0x067A [0x45] LOAD_SCHEDULED_TASK: Load scheduler "8160" with entities [EventEntity, EventEntity], work=[895*, 0*]
125: 0x068B [0x5C] MUSIC_CONTROL: Set Idle (Day) music to song 27*
126: 0x068F [0x5C] MUSIC_CONTROL: Set Idle (Night) music to song 27*
127: 0x0693 [0x5C] MUSIC_CONTROL: Set Combat (Solo) music to song 227*
128: 0x0697 [0x5C] MUSIC_CONTROL: Set Combat (Party) music to song 227*
129: 0x069B [0x9A] WAIT_MUSIC_SERVER()
130: 0x069C [0x5D] SET_MUSIC_VOLUME(volume=127*, fade_time=1*)
131: 0x06A1 [0x79] LocalPlayer looks at Maat (ID: 17207999/0x010692BF) (Basic look)
132: 0x06AB [0x2B] Mumor (ID: 17207997/0x010692BD) [13018*]:
    → "Maat!?"
133: 0x06B2 [0x23] WAIT_FOR_DIALOG_INTERACTION
134: 0x06B3 [0x1C] WAIT(40* ticks)
135: 0x06B6 [0x2B] Mumor (ID: 17207997/0x010692BD) [13019*]:
    → "I didn't recognize you at first!"
136: 0x06BD [0x1C] WAIT(60* ticks)
137: 0x06C0 [0x52] END_LOAD_SCHEDULER: End scheduler "s006" with entities [EventEntity, EventEntity], work=895*
138: 0x06CF [0x45] LOAD_SCHEDULED_TASK: Load scheduler "brof" with entities [EventEntity, EventEntity], work=[895*, 0*]
139: 0x06E0 [0x02] IF !(Work_Zone[9] == 5*) GOTO 0x06FC
140: 0x06E8 [0x45] LOAD_SCHEDULED_TASK: Load scheduler "s033" with entities [EventEntity, EventEntity], work=[895*, 0*]
141: 0x06F9 [0x01] GOTO 0x0729
142: 0x06FC [0x02] IF !(Work_Zone[9] == 6*) GOTO 0x0718
143: 0x0704 [0x45] LOAD_SCHEDULED_TASK: Load scheduler "s033" with entities [EventEntity, EventEntity], work=[895*, 0*]
144: 0x0715 [0x01] GOTO 0x0729
145: 0x0718 [0x45] LOAD_SCHEDULED_TASK: Load scheduler "s008" with entities [EventEntity, EventEntity], work=[895*, 0*]

SUBROUTINE_0729:
146: 0x0729 [0x23] WAIT_FOR_DIALOG_INTERACTION
147: 0x072A [0x79] LocalPlayer looks at Mumor (ID: 17207997/0x010692BD) (Basic look)
148: 0x0734 [0x6E] Mumor (ID: 17207997/0x010692BD) uses emote 21*
149: 0x073B [0x99] Wait for Mumor (ID: 17207997/0x010692BD) animation to complete
150: 0x0740 [0x1C] WAIT(20* ticks)
151: 0x0743 [0x2B] Mumor (ID: 17207997/0x010692BD) [13020*]:
    → "Huh!?"
152: 0x074A [0x1C] WAIT(120* ticks)
153: 0x074D [0x02] IF !(Work_Zone[9] == 5*) GOTO 0x0767
154: 0x0755 [0x52] END_LOAD_SCHEDULER: End scheduler "s033" with entities [EventEntity, EventEntity], work=895*
155: 0x0764 [0x01] GOTO 0x0790
156: 0x0767 [0x02] IF !(Work_Zone[9] == 6*) GOTO 0x0781
157: 0x076F [0x52] END_LOAD_SCHEDULER: End scheduler "s033" with entities [EventEntity, EventEntity], work=895*
158: 0x077E [0x01] GOTO 0x0790
159: 0x0781 [0x52] END_LOAD_SCHEDULER: End scheduler "s008" with entities [EventEntity, EventEntity], work=895*

SUBROUTINE_0790:
160: 0x0790 [0x45] LOAD_SCHEDULED_TASK: Load scheduler "s026" with entities [EventEntity, EventEntity], work=[895*, 0*]
161: 0x07A1 [0x2B] Mumor (ID: 17207997/0x010692BD) [13021*]:
    → "Ah, now I get it! That's why you refused to accept me as an idol!"
162: 0x07A8 [0x6E] Mumor (ID: 17207997/0x010692BD) uses emote 33*
163: 0x07AF [0x99] Wait for Mumor (ID: 17207997/0x010692BD) animation to complete
164: 0x07B4 [0x1C] WAIT(60* ticks)
165: 0x07B7 [0x23] WAIT_FOR_DIALOG_INTERACTION
166: 0x07B8 [0x29] REQ_SET_WAIT(priority=0x0F, entity_id=Mumor (ID: 17207997/0x010692BD), tag_num=0x33)
167: 0x07BF [0x1C] WAIT(2* ticks)
168: 0x07C2 [0x52] END_LOAD_SCHEDULER: End scheduler "s026" with entities [EventEntity, EventEntity], work=895*
169: 0x07D1 [0x45] LOAD_SCHEDULED_TASK: Load scheduler "s007" with entities [EventEntity, EventEntity], work=[895*, 0*]
170: 0x07E2 [0x1C] WAIT(90* ticks)
171: 0x07E5 [0x52] END_LOAD_SCHEDULER: End scheduler "s007" with entities [EventEntity, EventEntity], work=895*
172: 0x07F4 [0x45] LOAD_SCHEDULED_TASK: Load scheduler "s010" with entities [EventEntity, EventEntity], work=[895*, 0*]
173: 0x0805 [0x2B] Mumor (ID: 17207997/0x010692BD) [13022*]:
    → "You're one of Ullegore's minions!"
174: 0x080C [0x45] LOAD_SCHEDULED_TASK: Load scheduler "8160" with entities [EventEntity, EventEntity], work=[895*, 0*]
175: 0x081D [0x1C] WAIT(30* ticks)
176: 0x0820 [0x4A] LocalPlayer looks at Maat (ID: 17207999/0x010692BF)
177: 0x0829 [0x1C] WAIT(90* ticks)
178: 0x082C [0x6F] WAIT_FRAME_DELAY: Yield until WaitTime reaches zero
179: 0x082D [0x76] CHECK_ENTITY_RENDER_FLAGS: Wait until LocalPlayer Render.Flags0 and Render.Flags3 conditions are met
180: 0x0832 [0x29] REQ_SET_WAIT(priority=0x0F, entity_id=Mumor (ID: 17207997/0x010692BD), tag_num=0x34)
181: 0x0839 [0x23] WAIT_FOR_DIALOG_INTERACTION
182: 0x083A [0x52] END_LOAD_SCHEDULER: End scheduler "s010" with entities [EventEntity, EventEntity], work=895*
183: 0x0849 [0x45] LOAD_SCHEDULED_TASK: Load scheduler "s020" with entities [EventEntity, EventEntity], work=[895*, 0*]
184: 0x085A [0x29] REQ_SET_WAIT(priority=0x0F, entity_id=Mumor (ID: 17207997/0x010692BD), tag_num=0x35)
185: 0x0861 [0x5D] SET_MUSIC_VOLUME(volume=0*, fade_time=300*)
186: 0x0866 [0xC4] SCHEDULE_MAGIC_CASTING_ALT (arg=18): Maat (ID: 17207999/0x010692BF) casts magic 728* on Mumor (ID: 17207997/0x010692BD)
187: 0x0872 [0x1C] WAIT(100* ticks)
188: 0x0875 [0x6E] Mumor (ID: 17207997/0x010692BD) uses emote 21*
189: 0x087C [0x99] Wait for Mumor (ID: 17207997/0x010692BD) animation to complete
190: 0x0881 [0x29] REQ_SET_WAIT(priority=0x0F, entity_id=Mumor (ID: 17207997/0x010692BD), tag_num=0x36)
191: 0x0888 [0x52] END_LOAD_SCHEDULER: End scheduler "s020" with entities [EventEntity, EventEntity], work=895*
192: 0x0897 [0x45] LOAD_SCHEDULED_TASK: Load scheduler "s009" with entities [EventEntity, EventEntity], work=[895*, 0*]
193: 0x08A8 [0x1C] WAIT(60* ticks)
194: 0x08AB [0x1C] WAIT(60* ticks)
195: 0x08AE [0x52] END_LOAD_SCHEDULER: End scheduler "s009" with entities [EventEntity, EventEntity], work=895*
196: 0x08BD [0x02] IF !(Work_Zone[9] == 3*) GOTO 0x08D9
197: 0x08C5 [0x45] LOAD_SCHEDULED_TASK: Load scheduler "s027" with entities [EventEntity, EventEntity], work=[895*, 0*]
198: 0x08D6 [0x01] GOTO 0x093E
199: 0x08D9 [0x02] IF !(Work_Zone[9] == 5*) GOTO 0x08F5
200: 0x08E1 [0x45] LOAD_SCHEDULED_TASK: Load scheduler "s034" with entities [EventEntity, EventEntity], work=[895*, 0*]
201: 0x08F2 [0x01] GOTO 0x093E
202: 0x08F5 [0x02] IF !(Work_Zone[9] == 6*) GOTO 0x0911
203: 0x08FD [0x45] LOAD_SCHEDULED_TASK: Load scheduler "s034" with entities [EventEntity, EventEntity], work=[895*, 0*]
204: 0x090E [0x01] GOTO 0x093E
205: 0x0911 [0x02] IF !(Work_Zone[9] == 8*) GOTO 0x092D
206: 0x0919 [0x45] LOAD_SCHEDULED_TASK: Load scheduler "s027" with entities [EventEntity, EventEntity], work=[895*, 0*]
207: 0x092A [0x01] GOTO 0x093E
208: 0x092D [0x45] LOAD_SCHEDULED_TASK: Load scheduler "s042" with entities [EventEntity, EventEntity], work=[895*, 0*]

SUBROUTINE_093E:
209: 0x093E [0x4A] Mumor (ID: 17207997/0x010692BD) looks at LocalPlayer
210: 0x0947 [0x6F] WAIT_FRAME_DELAY: Yield until WaitTime reaches zero
211: 0x0948 [0x76] CHECK_ENTITY_RENDER_FLAGS: Wait until Mumor (ID: 17207997/0x010692BD) Render.Flags0 and Render.Flags3 conditions are met
212: 0x094D [0x29] REQ_SET_WAIT(priority=0x0F, entity_id=Mumor (ID: 17207997/0x010692BD), tag_num=0x2F)
213: 0x0954 [0x2B] Mumor (ID: 17207997/0x010692BD) [13023*]:
    → "It looks like it's time for the Delightful Damsels to show their stuff. We've got to open his eyes!"
214: 0x095B [0x1C] WAIT(10* ticks)
215: 0x095E [0x4A] LocalPlayer looks at Mumor (ID: 17207997/0x010692BD)
216: 0x0967 [0x6F] WAIT_FRAME_DELAY: Yield until WaitTime reaches zero
217: 0x0968 [0x76] CHECK_ENTITY_RENDER_FLAGS: Wait until LocalPlayer Render.Flags0 and Render.Flags3 conditions are met
218: 0x096D [0x23] WAIT_FOR_DIALOG_INTERACTION
219: 0x096E [0x29] REQ_SET_WAIT(priority=0x0F, entity_id=Mumor (ID: 17207997/0x010692BD), tag_num=0x30)
220: 0x0975 [0x02] IF !(Work_Zone[9] == 3*) GOTO 0x098F
221: 0x097D [0x52] END_LOAD_SCHEDULER: End scheduler "s027" with entities [EventEntity, EventEntity], work=895*
222: 0x098C [0x01] GOTO 0x09EC
223: 0x098F [0x02] IF !(Work_Zone[9] == 5*) GOTO 0x09A9
224: 0x0997 [0x52] END_LOAD_SCHEDULER: End scheduler "s034" with entities [EventEntity, EventEntity], work=895*
225: 0x09A6 [0x01] GOTO 0x09EC
226: 0x09A9 [0x02] IF !(Work_Zone[9] == 6*) GOTO 0x09C3
227: 0x09B1 [0x52] END_LOAD_SCHEDULER: End scheduler "s034" with entities [EventEntity, EventEntity], work=895*
228: 0x09C0 [0x01] GOTO 0x09EC
229: 0x09C3 [0x02] IF !(Work_Zone[9] == 8*) GOTO 0x09DD
230: 0x09CB [0x52] END_LOAD_SCHEDULER: End scheduler "s027" with entities [EventEntity, EventEntity], work=895*
231: 0x09DA [0x01] GOTO 0x09EC
232: 0x09DD [0x52] END_LOAD_SCHEDULER: End scheduler "s042" with entities [EventEntity, EventEntity], work=895*

SUBROUTINE_09EC:
233: 0x09EC [0x45] LOAD_SCHEDULED_TASK: Load scheduler "s023" with entities [EventEntity, EventEntity], work=[895*, 0*]
234: 0x09FD [0x5C] MUSIC_CONTROL: Set Idle (Day) music to song 227*
235: 0x0A01 [0x5C] MUSIC_CONTROL: Set Idle (Night) music to song 227*
236: 0x0A05 [0x9A] WAIT_MUSIC_SERVER()
237: 0x0A06 [0x5D] SET_MUSIC_VOLUME(volume=127*, fade_time=1*)
238: 0x0A0B [0x2B] Mumor (ID: 17207997/0x010692BD) [13024*]:
    → "Get ready, <Player>!"
239: 0x0A12 [0x6E] Mumor (ID: 17207997/0x010692BD) uses emote 12*
240: 0x0A19 [0x99] Wait for Mumor (ID: 17207997/0x010692BD) animation to complete
241: 0x0A1E [0x45] LOAD_SCHEDULED_TASK: Load scheduler "7134" with entities [EventEntity, EventEntity], work=[895*, 0*]
242: 0x0A2F [0x1C] WAIT(120* ticks)
243: 0x0A32 [0x1C] WAIT(30* ticks)
244: 0x0A35 [0x23] WAIT_FOR_DIALOG_INTERACTION
245: 0x0A36 [0x52] END_LOAD_SCHEDULER: End scheduler "s023" with entities [EventEntity, EventEntity], work=895*
246: 0x0A45 [0x45] LOAD_SCHEDULED_TASK: Load scheduler "s012" with entities [EventEntity, EventEntity], work=[895*, 0*]
247: 0x0A56 [0x9F] LOAD_SCHEDULED_TASK_ALT: Load scheduler "main" with entities [Mumor (ID: 17207997/0x010692BD), Mumor (ID: 17207997/0x010692BD)], work=[96*, 0*]
248: 0x0A67 [0x2B] Mumor (ID: 17207997/0x010692BD) [13025*]:
    → "In order to restore the rainbow of your smiling visage once more..."
249: 0x0A6E [0x6E] Mumor (ID: 17207997/0x010692BD) uses emote 66*
250: 0x0A75 [0x99] Wait for Mumor (ID: 17207997/0x010692BD) animation to complete
251: 0x0A7A [0x45] LOAD_SCHEDULED_TASK: Load scheduler "1118" with entities [EventEntity, EventEntity], work=[895*, 0*]
252: 0x0A8B [0x1C] WAIT(120* ticks)
253: 0x0A8E [0x1C] WAIT(100* ticks)
254: 0x0A91 [0x23] WAIT_FOR_DIALOG_INTERACTION
255: 0x0A92 [0x52] END_LOAD_SCHEDULER: End scheduler "s012" with entities [EventEntity, EventEntity], work=895*
256: 0x0AA1 [0x02] IF !(Work_Zone[9] == 3*) GOTO 0x0ABD
257: 0x0AA9 [0x45] LOAD_SCHEDULED_TASK: Load scheduler "s013" with entities [EventEntity, EventEntity], work=[895*, 0*]
258: 0x0ABA [0x01] GOTO 0x0B22
259: 0x0ABD [0x02] IF !(Work_Zone[9] == 5*) GOTO 0x0AD9
260: 0x0AC5 [0x45] LOAD_SCHEDULED_TASK: Load scheduler "s035" with entities [EventEntity, EventEntity], work=[895*, 0*]
261: 0x0AD6 [0x01] GOTO 0x0B22
262: 0x0AD9 [0x02] IF !(Work_Zone[9] == 6*) GOTO 0x0AF5
263: 0x0AE1 [0x45] LOAD_SCHEDULED_TASK: Load scheduler "s035" with entities [EventEntity, EventEntity], work=[895*, 0*]
264: 0x0AF2 [0x01] GOTO 0x0B22
265: 0x0AF5 [0x02] IF !(Work_Zone[9] == 8*) GOTO 0x0B11
266: 0x0AFD [0x45] LOAD_SCHEDULED_TASK: Load scheduler "s013" with entities [EventEntity, EventEntity], work=[895*, 0*]
267: 0x0B0E [0x01] GOTO 0x0B22
268: 0x0B11 [0x45] LOAD_SCHEDULED_TASK: Load scheduler "s043" with entities [EventEntity, EventEntity], work=[895*, 0*]

SUBROUTINE_0B22:
269: 0x0B22 [0x9F] LOAD_SCHEDULED_TASK_ALT: Load scheduler "kill" with entities [Mumor (ID: 17207997/0x010692BD), Mumor (ID: 17207997/0x010692BD)], work=[96*, 0*]
270: 0x0B33 [0x03] ExtData[1]->WorkLocal[4] = 0*
271: 0x0B38 [0x02] IF !(ExtData[1]->WorkLocal[2] == 1*) GOTO 0x0B47
272: 0x0B40 [0x3C] SET_BIT_FLAG_CONDITIONAL(target_work_offset=ExtData[1]->WorkLocal[4], bit_index_work_offset=3*, condition_work_offset=1*)
273: 0x0B47 [0x24] CREATE_DIALOG(message_id=13026*, default_option=0*, option_flags=ExtData[1]->WorkLocal[4])
    → "...? [We'll dance to the abyss and back!/Lovely Miracle Waltz!!!/Laaa, laaa, la-laaa!t/...We'll sing and twist until...uh, yeah!]"
274: 0x0B4E [0x25] WAIT_DIALOG_SELECT()
275: 0x0B4F [0x02] IF !(Work_Zone[0] == 0*) GOTO 0x0DA7
276: 0x0B57 [0x02] IF !(ExtData[1]->WorkLocal[3] == 1579*) GOTO 0x0B69
277: 0x0B5F [0x27] REQ_SET(priority=0x0F, entity_id=LocalPlayer, tag_num=0x1C)
278: 0x0B66 [0x01] GOTO 0x0BD5
279: 0x0B69 [0x02] IF !(ExtData[1]->WorkLocal[3] == 811*) GOTO 0x0B7B
280: 0x0B71 [0x27] REQ_SET(priority=0x0F, entity_id=LocalPlayer, tag_num=0x1D)
281: 0x0B78 [0x01] GOTO 0x0BD5
282: 0x0B7B [0x02] IF !(ExtData[1]->WorkLocal[3] == 43*) GOTO 0x0B8D
283: 0x0B83 [0x27] REQ_SET(priority=0x0F, entity_id=LocalPlayer, tag_num=0x1E)
284: 0x0B8A [0x01] GOTO 0x0BD5
285: 0x0B8D [0x02] IF !(ExtData[1]->WorkLocal[3] == 1067*) GOTO 0x0B9F
286: 0x0B95 [0x27] REQ_SET(priority=0x0F, entity_id=LocalPlayer, tag_num=0x1F)
287: 0x0B9C [0x01] GOTO 0x0BD5
288: 0x0B9F [0x02] IF !(ExtData[1]->WorkLocal[3] == 299*) GOTO 0x0BB1
289: 0x0BA7 [0x27] REQ_SET(priority=0x0F, entity_id=LocalPlayer, tag_num=0x20)
290: 0x0BAE [0x01] GOTO 0x0BD5
291: 0x0BB1 [0x02] IF !(ExtData[1]->WorkLocal[3] == 1323*) GOTO 0x0BC3
292: 0x0BB9 [0x27] REQ_SET(priority=0x0F, entity_id=LocalPlayer, tag_num=0x21)
293: 0x0BC0 [0x01] GOTO 0x0BD5
294: 0x0BC3 [0x02] IF !(ExtData[1]->WorkLocal[3] == 555*) GOTO 0x0BD5
295: 0x0BCB [0x27] REQ_SET(priority=0x0F, entity_id=LocalPlayer, tag_num=0x22)
296: 0x0BD2 [0x01] GOTO 0x0BD5

SUBROUTINE_0BD5:
297: 0x0BD5 [0x1C] WAIT(15* ticks)
298: 0x0BD8 [0x02] IF !(Work_Zone[9] == 3*) GOTO 0x0BF2
299: 0x0BE0 [0x52] END_LOAD_SCHEDULER: End scheduler "s013" with entities [EventEntity, EventEntity], work=895*
300: 0x0BEF [0x01] GOTO 0x0C4F
301: 0x0BF2 [0x02] IF !(Work_Zone[9] == 5*) GOTO 0x0C0C
302: 0x0BFA [0x52] END_LOAD_SCHEDULER: End scheduler "s035" with entities [EventEntity, EventEntity], work=895*
303: 0x0C09 [0x01] GOTO 0x0C4F
304: 0x0C0C [0x02] IF !(Work_Zone[9] == 6*) GOTO 0x0C26
305: 0x0C14 [0x52] END_LOAD_SCHEDULER: End scheduler "s035" with entities [EventEntity, EventEntity], work=895*
306: 0x0C23 [0x01] GOTO 0x0C4F
307: 0x0C26 [0x02] IF !(Work_Zone[9] == 8*) GOTO 0x0C40
308: 0x0C2E [0x52] END_LOAD_SCHEDULER: End scheduler "s013" with entities [EventEntity, EventEntity], work=895*
309: 0x0C3D [0x01] GOTO 0x0C4F
310: 0x0C40 [0x52] END_LOAD_SCHEDULER: End scheduler "s043" with entities [EventEntity, EventEntity], work=895*

SUBROUTINE_0C4F:
311: 0x0C4F [0x02] IF !(Work_Zone[9] == 5*) GOTO 0x0C6B
312: 0x0C57 [0x45] LOAD_SCHEDULED_TASK: Load scheduler "s036" with entities [EventEntity, EventEntity], work=[895*, 0*]
313: 0x0C68 [0x01] GOTO 0x0C98
314: 0x0C6B [0x02] IF !(Work_Zone[9] == 6*) GOTO 0x0C87
315: 0x0C73 [0x45] LOAD_SCHEDULED_TASK: Load scheduler "s036" with entities [EventEntity, EventEntity], work=[895*, 0*]
316: 0x0C84 [0x01] GOTO 0x0C98
317: 0x0C87 [0x45] LOAD_SCHEDULED_TASK: Load scheduler "s028" with entities [EventEntity, EventEntity], work=[895*, 0*]

SUBROUTINE_0C98:
318: 0x0C98 [0x45] LOAD_SCHEDULED_TASK: Load scheduler "0025" with entities [EventEntity, EventEntity], work=[895*, 0*]
319: 0x0CA9 [0x1C] WAIT(100* ticks)
320: 0x0CAC [0x6E] Mumor (ID: 17207997/0x010692BD) uses emote 21*
321: 0x0CB3 [0x99] Wait for Mumor (ID: 17207997/0x010692BD) animation to complete
322: 0x0CB8 [0x1C] WAIT(60* ticks)
323: 0x0CBB [0x1C] WAIT(30* ticks)
324: 0x0CBE [0x02] IF !(Work_Zone[9] == 5*) GOTO 0x0CD8
325: 0x0CC6 [0x52] END_LOAD_SCHEDULER: End scheduler "s036" with entities [EventEntity, EventEntity], work=895*
326: 0x0CD5 [0x01] GOTO 0x0D01
327: 0x0CD8 [0x02] IF !(Work_Zone[9] == 6*) GOTO 0x0CF2
328: 0x0CE0 [0x52] END_LOAD_SCHEDULER: End scheduler "s036" with entities [EventEntity, EventEntity], work=895*
329: 0x0CEF [0x01] GOTO 0x0D01
330: 0x0CF2 [0x52] END_LOAD_SCHEDULER: End scheduler "s028" with entities [EventEntity, EventEntity], work=895*

SUBROUTINE_0D01:
331: 0x0D01 [0x02] IF !(Work_Zone[9] == 5*) GOTO 0x0D1D
332: 0x0D09 [0x45] LOAD_SCHEDULED_TASK: Load scheduler "s037" with entities [EventEntity, EventEntity], work=[895*, 0*]
333: 0x0D1A [0x01] GOTO 0x0D4A
334: 0x0D1D [0x02] IF !(Work_Zone[9] == 6*) GOTO 0x0D39
335: 0x0D25 [0x45] LOAD_SCHEDULED_TASK: Load scheduler "s037" with entities [EventEntity, EventEntity], work=[895*, 0*]
336: 0x0D36 [0x01] GOTO 0x0D4A
337: 0x0D39 [0x45] LOAD_SCHEDULED_TASK: Load scheduler "s015" with entities [EventEntity, EventEntity], work=[895*, 0*]

SUBROUTINE_0D4A:
338: 0x0D4A [0x2B] Mumor (ID: 17207997/0x010692BD) [13027*]:
    → "(Hey, that's Uka's line!)"
339: 0x0D51 [0x6E] Mumor (ID: 17207997/0x010692BD) uses emote 16*
340: 0x0D58 [0x99] Wait for Mumor (ID: 17207997/0x010692BD) animation to complete
341: 0x0D5D [0x1C] WAIT(90* ticks)
342: 0x0D60 [0x23] WAIT_FOR_DIALOG_INTERACTION
343: 0x0D61 [0x02] IF !(Work_Zone[9] == 5*) GOTO 0x0D7B
344: 0x0D69 [0x52] END_LOAD_SCHEDULER: End scheduler "s037" with entities [EventEntity, EventEntity], work=895*
345: 0x0D78 [0x01] GOTO 0x0DA4
346: 0x0D7B [0x02] IF !(Work_Zone[9] == 6*) GOTO 0x0D95
347: 0x0D83 [0x52] END_LOAD_SCHEDULER: End scheduler "s037" with entities [EventEntity, EventEntity], work=895*
348: 0x0D92 [0x01] GOTO 0x0DA4
349: 0x0D95 [0x52] END_LOAD_SCHEDULER: End scheduler "s015" with entities [EventEntity, EventEntity], work=895*

SUBROUTINE_0DA4:
350: 0x0DA4 [0x01] GOTO 0x1344
351: 0x0DA7 [0x02] IF !(Work_Zone[0] == 1*) GOTO 0x0F8D
352: 0x0DAF [0x02] IF !(Work_Zone[9] == 3*) GOTO 0x0DC9
353: 0x0DB7 [0x52] END_LOAD_SCHEDULER: End scheduler "s013" with entities [EventEntity, EventEntity], work=895*
354: 0x0DC6 [0x01] GOTO 0x0E26
355: 0x0DC9 [0x02] IF !(Work_Zone[9] == 5*) GOTO 0x0DE3
356: 0x0DD1 [0x52] END_LOAD_SCHEDULER: End scheduler "s035" with entities [EventEntity, EventEntity], work=895*
357: 0x0DE0 [0x01] GOTO 0x0E26
358: 0x0DE3 [0x02] IF !(Work_Zone[9] == 6*) GOTO 0x0DFD
359: 0x0DEB [0x52] END_LOAD_SCHEDULER: End scheduler "s035" with entities [EventEntity, EventEntity], work=895*
360: 0x0DFA [0x01] GOTO 0x0E26
361: 0x0DFD [0x02] IF !(Work_Zone[9] == 8*) GOTO 0x0E17
362: 0x0E05 [0x52] END_LOAD_SCHEDULER: End scheduler "s013" with entities [EventEntity, EventEntity], work=895*
363: 0x0E14 [0x01] GOTO 0x0E26
364: 0x0E17 [0x52] END_LOAD_SCHEDULER: End scheduler "s043" with entities [EventEntity, EventEntity], work=895*

SUBROUTINE_0E26:
365: 0x0E26 [0x02] IF !(Work_Zone[9] == 5*) GOTO 0x0E42
366: 0x0E2E [0x45] LOAD_SCHEDULED_TASK: Load scheduler "s041" with entities [EventEntity, EventEntity], work=[895*, 0*]
367: 0x0E3F [0x01] GOTO 0x0E6F
368: 0x0E42 [0x02] IF !(Work_Zone[9] == 6*) GOTO 0x0E5E
369: 0x0E4A [0x45] LOAD_SCHEDULED_TASK: Load scheduler "s041" with entities [EventEntity, EventEntity], work=[895*, 0*]
370: 0x0E5B [0x01] GOTO 0x0E6F
371: 0x0E5E [0x45] LOAD_SCHEDULED_TASK: Load scheduler "s014" with entities [EventEntity, EventEntity], work=[895*, 0*]

SUBROUTINE_0E6F:
372: 0x0E6F [0x45] LOAD_SCHEDULED_TASK: Load scheduler "0026" with entities [EventEntity, EventEntity], work=[895*, 0*]
373: 0x0E80 [0x6E] LocalPlayer uses emote 66*
374: 0x0E87 [0x99] Wait for LocalPlayer animation to complete
375: 0x0E8C [0x1C] WAIT(120* ticks)
376: 0x0E8F [0x1C] WAIT(70* ticks)
377: 0x0E92 [0x6E] Mumor (ID: 17207997/0x010692BD) uses emote 21*
378: 0x0E99 [0x99] Wait for Mumor (ID: 17207997/0x010692BD) animation to complete
379: 0x0E9E [0x1C] WAIT(40* ticks)
380: 0x0EA1 [0x02] IF !(Work_Zone[9] == 5*) GOTO 0x0EBB
381: 0x0EA9 [0x52] END_LOAD_SCHEDULER: End scheduler "s041" with entities [EventEntity, EventEntity], work=895*
382: 0x0EB8 [0x01] GOTO 0x0EE4
383: 0x0EBB [0x02] IF !(Work_Zone[9] == 6*) GOTO 0x0ED5
384: 0x0EC3 [0x52] END_LOAD_SCHEDULER: End scheduler "s041" with entities [EventEntity, EventEntity], work=895*
385: 0x0ED2 [0x01] GOTO 0x0EE4
386: 0x0ED5 [0x52] END_LOAD_SCHEDULER: End scheduler "s014" with entities [EventEntity, EventEntity], work=895*

SUBROUTINE_0EE4:
387: 0x0EE4 [0x02] IF !(Work_Zone[9] == 5*) GOTO 0x0F00
388: 0x0EEC [0x45] LOAD_SCHEDULED_TASK: Load scheduler "s037" with entities [EventEntity, EventEntity], work=[895*, 0*]
389: 0x0EFD [0x01] GOTO 0x0F2D
390: 0x0F00 [0x02] IF !(Work_Zone[9] == 6*) GOTO 0x0F1C
391: 0x0F08 [0x45] LOAD_SCHEDULED_TASK: Load scheduler "s037" with entities [EventEntity, EventEntity], work=[895*, 0*]
392: 0x0F19 [0x01] GOTO 0x0F2D
393: 0x0F1C [0x45] LOAD_SCHEDULED_TASK: Load scheduler "s015" with entities [EventEntity, EventEntity], work=[895*, 0*]

SUBROUTINE_0F2D:
394: 0x0F2D [0x1C] WAIT(30* ticks)
395: 0x0F30 [0x2B] Mumor (ID: 17207997/0x010692BD) [13028*]:
    → "(Hey, that's our finishing technique!)"
396: 0x0F37 [0x6E] Mumor (ID: 17207997/0x010692BD) uses emote 16*
397: 0x0F3E [0x99] Wait for Mumor (ID: 17207997/0x010692BD) animation to complete
398: 0x0F43 [0x1C] WAIT(90* ticks)
399: 0x0F46 [0x23] WAIT_FOR_DIALOG_INTERACTION
400: 0x0F47 [0x02] IF !(Work_Zone[9] == 5*) GOTO 0x0F61
401: 0x0F4F [0x52] END_LOAD_SCHEDULER: End scheduler "s037" with entities [EventEntity, EventEntity], work=895*
402: 0x0F5E [0x01] GOTO 0x0F8A
403: 0x0F61 [0x02] IF !(Work_Zone[9] == 6*) GOTO 0x0F7B
404: 0x0F69 [0x52] END_LOAD_SCHEDULER: End scheduler "s037" with entities [EventEntity, EventEntity], work=895*
405: 0x0F78 [0x01] GOTO 0x0F8A
406: 0x0F7B [0x52] END_LOAD_SCHEDULER: End scheduler "s015" with entities [EventEntity, EventEntity], work=895*

SUBROUTINE_0F8A:
407: 0x0F8A [0x01] GOTO 0x1344
408: 0x0F8D [0x02] IF !(Work_Zone[0] == 2*) GOTO 0x1173
409: 0x0F95 [0x02] IF !(Work_Zone[9] == 3*) GOTO 0x0FAF
410: 0x0F9D [0x52] END_LOAD_SCHEDULER: End scheduler "s013" with entities [EventEntity, EventEntity], work=895*
411: 0x0FAC [0x01] GOTO 0x100C
412: 0x0FAF [0x02] IF !(Work_Zone[9] == 5*) GOTO 0x0FC9
413: 0x0FB7 [0x52] END_LOAD_SCHEDULER: End scheduler "s035" with entities [EventEntity, EventEntity], work=895*
414: 0x0FC6 [0x01] GOTO 0x100C
415: 0x0FC9 [0x02] IF !(Work_Zone[9] == 6*) GOTO 0x0FE3
416: 0x0FD1 [0x52] END_LOAD_SCHEDULER: End scheduler "s035" with entities [EventEntity, EventEntity], work=895*
417: 0x0FE0 [0x01] GOTO 0x100C
418: 0x0FE3 [0x02] IF !(Work_Zone[9] == 8*) GOTO 0x0FFD
419: 0x0FEB [0x52] END_LOAD_SCHEDULER: End scheduler "s013" with entities [EventEntity, EventEntity], work=895*
420: 0x0FFA [0x01] GOTO 0x100C
421: 0x0FFD [0x52] END_LOAD_SCHEDULER: End scheduler "s043" with entities [EventEntity, EventEntity], work=895*

SUBROUTINE_100C:
422: 0x100C [0x02] IF !(Work_Zone[9] == 5*) GOTO 0x1028
423: 0x1014 [0x45] LOAD_SCHEDULED_TASK: Load scheduler "s041" with entities [EventEntity, EventEntity], work=[895*, 0*]
424: 0x1025 [0x01] GOTO 0x1055
425: 0x1028 [0x02] IF !(Work_Zone[9] == 6*) GOTO 0x1044
426: 0x1030 [0x45] LOAD_SCHEDULED_TASK: Load scheduler "s041" with entities [EventEntity, EventEntity], work=[895*, 0*]
427: 0x1041 [0x01] GOTO 0x1055
428: 0x1044 [0x45] LOAD_SCHEDULED_TASK: Load scheduler "s014" with entities [EventEntity, EventEntity], work=[895*, 0*]

SUBROUTINE_1055:
429: 0x1055 [0x6E] LocalPlayer uses emote 25*
430: 0x105C [0x99] Wait for LocalPlayer animation to complete
431: 0x1061 [0x1C] WAIT(60* ticks)
432: 0x1064 [0x45] LOAD_SCHEDULED_TASK: Load scheduler "0027" with entities [EventEntity, EventEntity], work=[895*, 0*]
433: 0x1075 [0x1C] WAIT(60* ticks)
434: 0x1078 [0x6E] Mumor (ID: 17207997/0x010692BD) uses emote 21*
435: 0x107F [0x99] Wait for Mumor (ID: 17207997/0x010692BD) animation to complete
436: 0x1084 [0x1C] WAIT(60* ticks)
437: 0x1087 [0x02] IF !(Work_Zone[9] == 5*) GOTO 0x10A1
438: 0x108F [0x52] END_LOAD_SCHEDULER: End scheduler "s041" with entities [EventEntity, EventEntity], work=895*
439: 0x109E [0x01] GOTO 0x10CA
440: 0x10A1 [0x02] IF !(Work_Zone[9] == 6*) GOTO 0x10BB
441: 0x10A9 [0x52] END_LOAD_SCHEDULER: End scheduler "s041" with entities [EventEntity, EventEntity], work=895*
442: 0x10B8 [0x01] GOTO 0x10CA
443: 0x10BB [0x52] END_LOAD_SCHEDULER: End scheduler "s014" with entities [EventEntity, EventEntity], work=895*

SUBROUTINE_10CA:
444: 0x10CA [0x02] IF !(Work_Zone[9] == 5*) GOTO 0x10E6
445: 0x10D2 [0x45] LOAD_SCHEDULED_TASK: Load scheduler "s037" with entities [EventEntity, EventEntity], work=[895*, 0*]
446: 0x10E3 [0x01] GOTO 0x1113
447: 0x10E6 [0x02] IF !(Work_Zone[9] == 6*) GOTO 0x1102
448: 0x10EE [0x45] LOAD_SCHEDULED_TASK: Load scheduler "s037" with entities [EventEntity, EventEntity], work=[895*, 0*]
449: 0x10FF [0x01] GOTO 0x1113
450: 0x1102 [0x45] LOAD_SCHEDULED_TASK: Load scheduler "s015" with entities [EventEntity, EventEntity], work=[895*, 0*]

SUBROUTINE_1113:
451: 0x1113 [0x1C] WAIT(60* ticks)
452: 0x1116 [0x2B] Mumor (ID: 17207997/0x010692BD) [13029*]:
    → "iHey, that's Diva's song!)"
453: 0x111D [0x6E] Mumor (ID: 17207997/0x010692BD) uses emote 16*
454: 0x1124 [0x99] Wait for Mumor (ID: 17207997/0x010692BD) animation to complete
455: 0x1129 [0x1C] WAIT(90* ticks)
456: 0x112C [0x23] WAIT_FOR_DIALOG_INTERACTION
457: 0x112D [0x02] IF !(Work_Zone[9] == 5*) GOTO 0x1147
458: 0x1135 [0x52] END_LOAD_SCHEDULER: End scheduler "s037" with entities [EventEntity, EventEntity], work=895*
459: 0x1144 [0x01] GOTO 0x1170
460: 0x1147 [0x02] IF !(Work_Zone[9] == 6*) GOTO 0x1161
461: 0x114F [0x52] END_LOAD_SCHEDULER: End scheduler "s037" with entities [EventEntity, EventEntity], work=895*
462: 0x115E [0x01] GOTO 0x1170
463: 0x1161 [0x52] END_LOAD_SCHEDULER: End scheduler "s015" with entities [EventEntity, EventEntity], work=895*

SUBROUTINE_1170:
464: 0x1170 [0x01] GOTO 0x1344
465: 0x1173 [0x02] IF !(Work_Zone[0] == 3*) GOTO 0x1344
466: 0x117B [0x02] IF !(Work_Zone[9] == 3*) GOTO 0x1195
467: 0x1183 [0x52] END_LOAD_SCHEDULER: End scheduler "s013" with entities [EventEntity, EventEntity], work=895*
468: 0x1192 [0x01] GOTO 0x11F2
469: 0x1195 [0x02] IF !(Work_Zone[9] == 5*) GOTO 0x11AF
470: 0x119D [0x52] END_LOAD_SCHEDULER: End scheduler "s035" with entities [EventEntity, EventEntity], work=895*
471: 0x11AC [0x01] GOTO 0x11F2
472: 0x11AF [0x02] IF !(Work_Zone[9] == 6*) GOTO 0x11C9
473: 0x11B7 [0x52] END_LOAD_SCHEDULER: End scheduler "s035" with entities [EventEntity, EventEntity], work=895*
474: 0x11C6 [0x01] GOTO 0x11F2
475: 0x11C9 [0x02] IF !(Work_Zone[9] == 8*) GOTO 0x11E3
476: 0x11D1 [0x52] END_LOAD_SCHEDULER: End scheduler "s013" with entities [EventEntity, EventEntity], work=895*
477: 0x11E0 [0x01] GOTO 0x11F2
478: 0x11E3 [0x52] END_LOAD_SCHEDULER: End scheduler "s043" with entities [EventEntity, EventEntity], work=895*

SUBROUTINE_11F2:
479: 0x11F2 [0x02] IF !(Work_Zone[9] == 5*) GOTO 0x120E
480: 0x11FA [0x45] LOAD_SCHEDULED_TASK: Load scheduler "s036" with entities [EventEntity, EventEntity], work=[895*, 0*]
481: 0x120B [0x01] GOTO 0x123B
482: 0x120E [0x02] IF !(Work_Zone[9] == 6*) GOTO 0x122A
483: 0x1216 [0x45] LOAD_SCHEDULED_TASK: Load scheduler "s036" with entities [EventEntity, EventEntity], work=[895*, 0*]
484: 0x1227 [0x01] GOTO 0x123B
485: 0x122A [0x45] LOAD_SCHEDULED_TASK: Load scheduler "s028" with entities [EventEntity, EventEntity], work=[895*, 0*]

SUBROUTINE_123B:
486: 0x123B [0x45] LOAD_SCHEDULED_TASK: Load scheduler "0025" with entities [EventEntity, EventEntity], work=[895*, 0*]
487: 0x124C [0x6E] LocalPlayer uses emote 10*
488: 0x1253 [0x99] Wait for LocalPlayer animation to complete
489: 0x1258 [0x1C] WAIT(120* ticks)
490: 0x125B [0x02] IF !(Work_Zone[9] == 5*) GOTO 0x1275
491: 0x1263 [0x52] END_LOAD_SCHEDULER: End scheduler "s036" with entities [EventEntity, EventEntity], work=895*
492: 0x1272 [0x01] GOTO 0x129E
493: 0x1275 [0x02] IF !(Work_Zone[9] == 6*) GOTO 0x128F
494: 0x127D [0x52] END_LOAD_SCHEDULER: End scheduler "s036" with entities [EventEntity, EventEntity], work=895*
495: 0x128C [0x01] GOTO 0x129E
496: 0x128F [0x52] END_LOAD_SCHEDULER: End scheduler "s028" with entities [EventEntity, EventEntity], work=895*

SUBROUTINE_129E:
497: 0x129E [0x02] IF !(Work_Zone[9] == 5*) GOTO 0x12BA
498: 0x12A6 [0x45] LOAD_SCHEDULED_TASK: Load scheduler "s037" with entities [EventEntity, EventEntity], work=[895*, 0*]
499: 0x12B7 [0x01] GOTO 0x12E7
500: 0x12BA [0x02] IF !(Work_Zone[9] == 6*) GOTO 0x12D6
501: 0x12C2 [0x45] LOAD_SCHEDULED_TASK: Load scheduler "s037" with entities [EventEntity, EventEntity], work=[895*, 0*]
502: 0x12D3 [0x01] GOTO 0x12E7
503: 0x12D6 [0x45] LOAD_SCHEDULED_TASK: Load scheduler "s015" with entities [EventEntity, EventEntity], work=[895*, 0*]

SUBROUTINE_12E7:
504: 0x12E7 [0x2B] Mumor (ID: 17207997/0x010692BD) [13030*]:
    → "(Wait, that sounds familiar...)"
505: 0x12EE [0x6E] Mumor (ID: 17207997/0x010692BD) uses emote 22*
506: 0x12F5 [0x99] Wait for Mumor (ID: 17207997/0x010692BD) animation to complete
507: 0x12FA [0x1C] WAIT(90* ticks)
508: 0x12FD [0x23] WAIT_FOR_DIALOG_INTERACTION
509: 0x12FE [0x02] IF !(Work_Zone[9] == 5*) GOTO 0x1318
510: 0x1306 [0x52] END_LOAD_SCHEDULER: End scheduler "s037" with entities [EventEntity, EventEntity], work=895*
511: 0x1315 [0x01] GOTO 0x1341
512: 0x1318 [0x02] IF !(Work_Zone[9] == 6*) GOTO 0x1332
513: 0x1320 [0x52] END_LOAD_SCHEDULER: End scheduler "s037" with entities [EventEntity, EventEntity], work=895*
514: 0x132F [0x01] GOTO 0x1341
515: 0x1332 [0x52] END_LOAD_SCHEDULER: End scheduler "s015" with entities [EventEntity, EventEntity], work=895*

SUBROUTINE_1341:
516: 0x1341 [0x01] GOTO 0x1344

SUBROUTINE_1344:
517: 0x1344 [0x02] IF !(Work_Zone[0] == 3*) GOTO 0x15AE
518: 0x134C [0x02] IF !(Work_Zone[9] == 5*) GOTO 0x1368
519: 0x1354 [0x45] LOAD_SCHEDULED_TASK: Load scheduler "s038" with entities [EventEntity, EventEntity], work=[895*, 0*]
520: 0x1365 [0x01] GOTO 0x1395
521: 0x1368 [0x02] IF !(Work_Zone[9] == 6*) GOTO 0x1384
522: 0x1370 [0x45] LOAD_SCHEDULED_TASK: Load scheduler "s038" with entities [EventEntity, EventEntity], work=[895*, 0*]
523: 0x1381 [0x01] GOTO 0x1395
524: 0x1384 [0x45] LOAD_SCHEDULED_TASK: Load scheduler "s016" with entities [EventEntity, EventEntity], work=[895*, 0*]

SUBROUTINE_1395:
525: 0x1395 [0x7B] Mumor (ID: 17207997/0x010692BD) stops talking
526: 0x139A [0x29] REQ_SET_WAIT(priority=0x0F, entity_id=Mumor (ID: 17207997/0x010692BD), tag_num=0x05)
527: 0x13A1 [0x2B] Mumor (ID: 17207997/0x010692BD) [13031*]:
    → "Well, I know one thing for certain. You're quite fond of the Sunbreeze Festival."
528: 0x13A8 [0x23] WAIT_FOR_DIALOG_INTERACTION
529: 0x13A9 [0x29] REQ_SET_WAIT(priority=0x0F, entity_id=Mumor (ID: 17207997/0x010692BD), tag_num=0x06)
530: 0x13B0 [0x24] CREATE_DIALOG(message_id=13032*, default_option=0*, option_flags=0*)
    → "Are you fond of the Sunbreeze Festival? [Naturally!/No, not so much.]"
531: 0x13B7 [0x25] WAIT_DIALOG_SELECT()
532: 0x13B8 [0x02] IF !(Work_Zone[0] == 0*) GOTO 0x145A
533: 0x13C0 [0x29] REQ_SET_WAIT(priority=0x0F, entity_id=Mumor (ID: 17207997/0x010692BD), tag_num=0x07)
534: 0x13C7 [0x6E] LocalPlayer uses emote 7*
535: 0x13CE [0x99] Wait for LocalPlayer animation to complete
536: 0x13D3 [0x1C] WAIT(60* ticks)
537: 0x13D6 [0x29] REQ_SET_WAIT(priority=0x0F, entity_id=Mumor (ID: 17207997/0x010692BD), tag_num=0x08)
538: 0x13DD [0x02] IF !(Work_Zone[9] == 5*) GOTO 0x13F7
539: 0x13E5 [0x52] END_LOAD_SCHEDULER: End scheduler "s038" with entities [EventEntity, EventEntity], work=895*
540: 0x13F4 [0x01] GOTO 0x1420
541: 0x13F7 [0x02] IF !(Work_Zone[9] == 6*) GOTO 0x1411
542: 0x13FF [0x52] END_LOAD_SCHEDULER: End scheduler "s038" with entities [EventEntity, EventEntity], work=895*
543: 0x140E [0x01] GOTO 0x1420
544: 0x1411 [0x52] END_LOAD_SCHEDULER: End scheduler "s016" with entities [EventEntity, EventEntity], work=895*

SUBROUTINE_1420:
545: 0x1420 [0x45] LOAD_SCHEDULED_TASK: Load scheduler "s024" with entities [EventEntity, EventEntity], work=[895*, 0*]
546: 0x1431 [0x2B] Mumor (ID: 17207997/0x010692BD) [13033*]:
    → "I knew it! In that case, I'll think up a perfect catchphrase for you!"
547: 0x1438 [0x6E] Mumor (ID: 17207997/0x010692BD) uses emote 11*
548: 0x143F [0x99] Wait for Mumor (ID: 17207997/0x010692BD) animation to complete
549: 0x1444 [0x1C] WAIT(90* ticks)
550: 0x1447 [0x23] WAIT_FOR_DIALOG_INTERACTION
551: 0x1448 [0x52] END_LOAD_SCHEDULER: End scheduler "s024" with entities [EventEntity, EventEntity], work=895*
552: 0x1457 [0x01] GOTO 0x14FC
553: 0x145A [0x02] IF !(Work_Zone[0] == 1*) GOTO 0x14FC
554: 0x1462 [0x29] REQ_SET_WAIT(priority=0x0F, entity_id=Mumor (ID: 17207997/0x010692BD), tag_num=0x07)
555: 0x1469 [0x6E] LocalPlayer uses emote 6*
556: 0x1470 [0x99] Wait for LocalPlayer animation to complete
557: 0x1475 [0x1C] WAIT(60* ticks)
558: 0x1478 [0x29] REQ_SET_WAIT(priority=0x0F, entity_id=Mumor (ID: 17207997/0x010692BD), tag_num=0x08)
559: 0x147F [0x02] IF !(Work_Zone[9] == 5*) GOTO 0x1499
560: 0x1487 [0x52] END_LOAD_SCHEDULER: End scheduler "s038" with entities [EventEntity, EventEntity], work=895*
561: 0x1496 [0x01] GOTO 0x14C2
562: 0x1499 [0x02] IF !(Work_Zone[9] == 6*) GOTO 0x14B3
563: 0x14A1 [0x52] END_LOAD_SCHEDULER: End scheduler "s038" with entities [EventEntity, EventEntity], work=895*
564: 0x14B0 [0x01] GOTO 0x14C2
565: 0x14B3 [0x52] END_LOAD_SCHEDULER: End scheduler "s016" with entities [EventEntity, EventEntity], work=895*

SUBROUTINE_14C2:
566: 0x14C2 [0x45] LOAD_SCHEDULED_TASK: Load scheduler "s024" with entities [EventEntity, EventEntity], work=[895*, 0*]
567: 0x14D3 [0x2B] Mumor (ID: 17207997/0x010692BD) [13034*]:
    → "Really!? At any rate, I'll think up a perfect catchphrase for you!"
568: 0x14DA [0x6E] Mumor (ID: 17207997/0x010692BD) uses emote 22*
569: 0x14E1 [0x99] Wait for Mumor (ID: 17207997/0x010692BD) animation to complete
570: 0x14E6 [0x1C] WAIT(90* ticks)
571: 0x14E9 [0x23] WAIT_FOR_DIALOG_INTERACTION
572: 0x14EA [0x52] END_LOAD_SCHEDULER: End scheduler "s024" with entities [EventEntity, EventEntity], work=895*
573: 0x14F9 [0x01] GOTO 0x14FC

SUBROUTINE_14FC:
574: 0x14FC [0x02] IF !(Work_Zone[9] == 5*) GOTO 0x1518
575: 0x1504 [0x45] LOAD_SCHEDULED_TASK: Load scheduler "s039" with entities [EventEntity, EventEntity], work=[895*, 0*]
576: 0x1515 [0x01] GOTO 0x1545
577: 0x1518 [0x02] IF !(Work_Zone[9] == 6*) GOTO 0x1534
578: 0x1520 [0x45] LOAD_SCHEDULED_TASK: Load scheduler "s039" with entities [EventEntity, EventEntity], work=[895*, 0*]
579: 0x1531 [0x01] GOTO 0x1545
580: 0x1534 [0x45] LOAD_SCHEDULED_TASK: Load scheduler "s017" with entities [EventEntity, EventEntity], work=[895*, 0*]

SUBROUTINE_1545:
581: 0x1545 [0x7B] Mumor (ID: 17207997/0x010692BD) stops talking
582: 0x154A [0x29] REQ_SET_WAIT(priority=0x0F, entity_id=Mumor (ID: 17207997/0x010692BD), tag_num=0x05)
583: 0x1551 [0x2B] Mumor (ID: 17207997/0x010692BD) [13035*]:
    → "Hmm... "We'll twist and sing until...""
584: 0x1558 [0x23] WAIT_FOR_DIALOG_INTERACTION
585: 0x1559 [0x2B] Mumor (ID: 17207997/0x010692BD) [13036*]:
    → "Maybe I should work in something about courage..."
586: 0x1560 [0x23] WAIT_FOR_DIALOG_INTERACTION
587: 0x1561 [0x29] REQ_SET_WAIT(priority=0x0F, entity_id=Mumor (ID: 17207997/0x010692BD), tag_num=0x06)
588: 0x1568 [0x02] IF !(Work_Zone[9] == 5*) GOTO 0x1582
589: 0x1570 [0x52] END_LOAD_SCHEDULER: End scheduler "s039" with entities [EventEntity, EventEntity], work=895*
590: 0x157F [0x01] GOTO 0x15AB
591: 0x1582 [0x02] IF !(Work_Zone[9] == 6*) GOTO 0x159C
592: 0x158A [0x52] END_LOAD_SCHEDULER: End scheduler "s039" with entities [EventEntity, EventEntity], work=895*
593: 0x1599 [0x01] GOTO 0x15AB
594: 0x159C [0x52] END_LOAD_SCHEDULER: End scheduler "s017" with entities [EventEntity, EventEntity], work=895*

SUBROUTINE_15AB:
595: 0x15AB [0x01] GOTO 0x15E5
596: 0x15AE [0x45] LOAD_SCHEDULED_TASK: Load scheduler "s024" with entities [EventEntity, EventEntity], work=[895*, 0*]
597: 0x15BF [0x2B] Mumor (ID: 17207997/0x010692BD) [13037*]:
    → "Now I remember! My alter ego thought up the perfect catchphrase for you."
598: 0x15C6 [0x6E] Mumor (ID: 17207997/0x010692BD) uses emote 11*
599: 0x15CD [0x99] Wait for Mumor (ID: 17207997/0x010692BD) animation to complete
600: 0x15D2 [0x1C] WAIT(90* ticks)
601: 0x15D5 [0x23] WAIT_FOR_DIALOG_INTERACTION
602: 0x15D6 [0x52] END_LOAD_SCHEDULER: End scheduler "s024" with entities [EventEntity, EventEntity], work=895*

SUBROUTINE_15E5:
603: 0x15E5 [0x5D] SET_MUSIC_VOLUME(volume=0*, fade_time=300*)
604: 0x15EA [0x27] REQ_SET(priority=0x0F, entity_id=Maat (ID: 17207999/0x010692BF), tag_num=0x06)
605: 0x15F1 [0x1C] WAIT(15* ticks)
606: 0x15F4 [0x45] LOAD_SCHEDULED_TASK: Load scheduler "s025" with entities [EventEntity, EventEntity], work=[895*, 0*]
607: 0x1605 [0x45] LOAD_SCHEDULED_TASK: Load scheduler "8160" with entities [EventEntity, EventEntity], work=[895*, 0*]
608: 0x1616 [0x4A] LocalPlayer looks at Maat (ID: 17207999/0x010692BF)
609: 0x161F [0x1C] WAIT(30* ticks)
610: 0x1622 [0x1C] WAIT(20* ticks)
611: 0x1625 [0x52] END_LOAD_SCHEDULER: End scheduler "s025" with entities [EventEntity, EventEntity], work=895*
612: 0x1634 [0x45] LOAD_SCHEDULED_TASK: Load scheduler "s018" with entities [EventEntity, EventEntity], work=[895*, 0*]
613: 0x1645 [0x45] LOAD_SCHEDULED_TASK: Load scheduler "4126" with entities [EventEntity, EventEntity], work=[895*, 0*]
614: 0x1656 [0x6F] WAIT_FRAME_DELAY: Yield until WaitTime reaches zero
615: 0x1657 [0x76] CHECK_ENTITY_RENDER_FLAGS: Wait until LocalPlayer Render.Flags0 and Render.Flags3 conditions are met
616: 0x165C [0x4A] Mumor (ID: 17207997/0x010692BD) looks at Maat (ID: 17207999/0x010692BF)
617: 0x1665 [0x29] REQ_SET_WAIT(priority=0x0F, entity_id=LocalPlayer, tag_num=0x19)
618: 0x166C [0x6F] WAIT_FRAME_DELAY: Yield until WaitTime reaches zero
619: 0x166D [0x76] CHECK_ENTITY_RENDER_FLAGS: Wait until Mumor (ID: 17207997/0x010692BD) Render.Flags0 and Render.Flags3 conditions are met
620: 0x1672 [0x29] REQ_SET_WAIT(priority=0x0F, entity_id=Mumor (ID: 17207997/0x010692BD), tag_num=0x37)
621: 0x1679 [0x1C] WAIT(20* ticks)
622: 0x167C [0x52] END_LOAD_SCHEDULER: End scheduler "s018" with entities [EventEntity, EventEntity], work=895*
623: 0x168B [0x45] LOAD_SCHEDULED_TASK: Load scheduler "s040" with entities [EventEntity, EventEntity], work=[895*, 0*]
624: 0x169C [0xBA] SET_ENTITY_POSITION(entity_id=LocalPlayer, pos_x=287.587*, pos_z=30.618*, pos_y=6.900*, direction=119.7°*)
625: 0x16A9 [0x2A] GET_REQ_LEVEL(level=15, entity_id=Maat (ID: 17207999/0x010692BF))
626: 0x16AF [0xC4] SCHEDULE_MAGIC_CASTING_ALT (arg=18): Maat (ID: 17207999/0x010692BF) casts magic 735* on LocalPlayer
627: 0x16BB [0x1C] WAIT(20* ticks)
628: 0x16BE [0x52] END_LOAD_SCHEDULER: End scheduler "s040" with entities [EventEntity, EventEntity], work=895*
629: 0x16CD [0x45] LOAD_SCHEDULED_TASK: Load scheduler "s019" with entities [EventEntity, EventEntity], work=[895*, 0*]
630: 0x16DE [0x7B] Mumor (ID: 17207997/0x010692BD) stops talking
631: 0x16E3 [0x1C] WAIT(40* ticks)
632: 0x16E6 [0x29] REQ_SET_WAIT(priority=0x0F, entity_id=Mumor (ID: 17207997/0x010692BD), tag_num=0x38)
633: 0x16ED [0x1C] WAIT(1* ticks)
634: 0x16F0 [0x29] REQ_SET_WAIT(priority=0x0F, entity_id=Mumor (ID: 17207997/0x010692BD), tag_num=0x0D)
635: 0x16F7 [0x52] END_LOAD_SCHEDULER: End scheduler "s019" with entities [EventEntity, EventEntity], work=895*
636: 0x1706 [0x45] LOAD_SCHEDULED_TASK: Load scheduler "s021" with entities [EventEntity, EventEntity], work=[895*, 0*]
637: 0x1717 [0x45] LOAD_SCHEDULED_TASK: Load scheduler "6121" with entities [EventEntity, EventEntity], work=[895*, 0*]
638: 0x1728 [0x2B] Mumor (ID: 17207997/0x010692BD) [13038*]:
    → "Oh no!"
639: 0x172F [0x45] LOAD_SCHEDULED_TASK: Load scheduler "4121" with entities [EventEntity, EventEntity], work=[895*, 0*]
640: 0x1740 [0x1C] WAIT(90* ticks)
641: 0x1743 [0x23] WAIT_FOR_DIALOG_INTERACTION
642: 0x1744 [0x52] END_LOAD_SCHEDULER: End scheduler "s021" with entities [EventEntity, EventEntity], work=895*
643: 0x1753 [0x45] LOAD_SCHEDULED_TASK: Load scheduler "s029" with entities [EventEntity, EventEntity], work=[895*, 0*]
644: 0x1764 [0xBA] SET_ENTITY_POSITION(entity_id=LocalPlayer, pos_x=317.984*, pos_z=80.994*, pos_y=8.000*, direction=254.5°*)
645: 0x1771 [0x7C] Mumor (ID: 17207997/0x010692BD)->Render.Flags2 |= 0x00
646: 0x1777 [0x1C] WAIT(60* ticks)
647: 0x177A [0x1C] WAIT(60* ticks)
648: 0x177D [0x7C] Mumor (ID: 17207997/0x010692BD)->Render.Flags2 |= 0x01
649: 0x1783 [0x2B] Mumor (ID: 17207997/0x010692BD) [13039*]:
    → "<Gasp, wheeze> This isn't going according to plan!"
650: 0x178A [0x23] WAIT_FOR_DIALOG_INTERACTION
651: 0x178B [0x29] REQ_SET_WAIT(priority=0x0F, entity_id=Mumor (ID: 17207997/0x010692BD), tag_num=0x0B)
652: 0x1792 [0x2B] Mumor (ID: 17207997/0x010692BD) [13040*]:
    → "I-I hate going off script!"
653: 0x1799 [0x1C] WAIT(40* ticks)
654: 0x179C [0x52] END_LOAD_SCHEDULER: End scheduler "s029" with entities [EventEntity, EventEntity], work=895*
655: 0x17AB [0x45] LOAD_SCHEDULED_TASK: Load scheduler "brof" with entities [EventEntity, EventEntity], work=[895*, 0*]
656: 0x17BC [0x45] LOAD_SCHEDULED_TASK: Load scheduler "s022" with entities [EventEntity, EventEntity], work=[895*, 0*]
657: 0x17CD [0x45] LOAD_SCHEDULED_TASK: Load scheduler "8160" with entities [EventEntity, EventEntity], work=[895*, 0*]
658: 0x17DE [0x1C] WAIT(40* ticks)
659: 0x17E1 [0x29] REQ_SET_WAIT(priority=0x0F, entity_id=Mumor (ID: 17207997/0x010692BD), tag_num=0x37)
660: 0x17E8 [0x1C] WAIT(120* ticks)
661: 0x17EB [0x5D] SET_MUSIC_VOLUME(volume=0*, fade_time=300*)
662: 0x17F0 [0x1A] CALL_SUBROUTINE(address=0x01B7)
663: 0x17F3 [0x52] END_LOAD_SCHEDULER: End scheduler "s022" with entities [EventEntity, EventEntity], work=895*
664: 0x1802 [0x23] WAIT_FOR_DIALOG_INTERACTION
665: 0x1803 [0x29] REQ_SET_WAIT(priority=0x0F, entity_id=LocalPlayer, tag_num=0x1A)
666: 0x180A [0x29] REQ_SET_WAIT(priority=0x0F, entity_id=Mumor (ID: 17207997/0x010692BD), tag_num=0x38)
667: 0x1811 [0x1A] CALL_SUBROUTINE(address=0x0064)
668: 0x1814 [0x1A] CALL_SUBROUTINE(address=0x0085)
669: 0x1817 [0x5C] MUSIC_CONTROL: Set Idle (Day) music to song 114*
670: 0x181B [0x5C] MUSIC_CONTROL: Set Idle (Night) music to song 114*
671: 0x181F [0x5C] MUSIC_CONTROL: Set Combat (Solo) music to song 101*
672: 0x1823 [0x5C] MUSIC_CONTROL: Set Combat (Party) music to song 103*
673: 0x1827 [0x9A] WAIT_MUSIC_SERVER()
674: 0x1828 [0x5D] SET_MUSIC_VOLUME(volume=127*, fade_time=1*)
675: 0x182D [0x1C] WAIT(15* ticks)
676: 0x1830 [0xAB] EventEntity->DespawnValue = 0* // Set despawn value
677: 0x1834 [0x1C] WAIT(1* ticks)
678: 0x1837 [0x78] ENABLE_GAME_TIMER_RESET_WEATHER()
679: 0x1838 [0x46] CAMERA_CONTROL: Restore default settings
680: 0x183A [0x45] LOAD_SCHEDULED_TASK: Load scheduler "fdi2" with entities [EventEntity, EventEntity], work=[200*, 0*]
681: 0x184B [0x21] END_EVENT
682: 0x184C [0x00] END_REQSTACK()
```

### Event 29

#### Metadata

| Field        | Value      |
|--------------|------------|
| Entrypoint   | 0x184D     |
| Data Size    | 4220 bytes |
| Instructions | 570        |

```
      00 01 02 03 04 05 06 07  08 09 0A 0B 0C 0D 0E 0F
      -- -- -- -- -- -- -- --  -- -- -- -- -- -- -- --
1840:                                         42 03 03               B..
1850: 00 06 10 03 01 00 01 80  02 01 00 03 80 00 65 18  ..............e.
1860: 77 08 80 09 80 5D 01 80  0A 80 1A 64 00 46 01 38  w....].....d.F.8
1870: 0B 80 02 09 10 03 80 00  7F 18 77 08 80 09 80 2F  ..........w..../
1880: 00 BD 92 06 01 2F 00 BE  92 06 01 2F 00 BF 92 06  ...../...../....
1890: 01 2F 00 C0 92 06 01 4E  00 BD 92 06 01 4E 00 BE  ./.....N.....N..
18A0: 92 06 01 4E 00 BF 92 06  01 4E 00 C0 92 06 01 94  ...N.....N......
18B0: 01 BD 92 06 01 94 01 BE  92 06 01 94 01 BF 92 06  ................
18C0: 01 94 01 C0 92 06 01 94  01 F0 FF FF 7F D9 00 5C  ...............\
18D0: 00 01 80 5C 01 01 80 5C  02 01 80 5C 03 01 80 9A  ...\...\...\....
18E0: 5D 27 80 03 80 69 01 35  80 29 0F F0 FF FF 7F 1A  ]'...i.5.)......
18F0: 29 0F BD 92 06 01 38 BA  BD 92 06 01 60 80 61 80  ).....8.....`.a.
1900: 62 80 63 80 BA BE 92 06  01 64 80 65 80 66 80 63  b.c......d.e.f.c
1910: 80 BA BF 92 06 01 67 80  68 80 66 80 69 80 29 0F  ......g.h.f.i.).
1920: C0 92 06 01 02 BA F0 FF  FF 7F 18 80 19 80 12 80  ................
1930: 5A 80 80 BD 92 06 01 80  BE 92 06 01 80 BF 92 06  Z...............
1940: 01 80 C0 92 06 01 80 F0  FF FF 7F 79 02 BD 92 06  ...........y....
1950: 01 01 80 01 80 29 0F F0  FF FF 7F 5C 29 0F F0 FF  .....).....\)...
1960: FF 7F 19 29 0F BD 92 06  01 37 6C BE 92 06 01 01  ...).....7l.....
1970: 80 03 80 6C C0 92 06 01  01 80 03 80 4A F0 FF FF  ...l........J...
1980: 7F BF 92 06 01 4A BE 92  06 01 F0 FF FF 7F 4A BD  .....J........J.
1990: 92 06 01 BF 92 06 01 6F  76 BE 92 06 01 6F 76 BD  .......ov....ov.
19A0: 92 06 01 6F 76 F0 FF FF  7F 2C BF 92 06 01 BF 92  ...ov....,......
19B0: 06 01 6B 6C 65 66 69 00  35 80 1C 31 80 2C BF 92  ..klefi.5..1.,..
19C0: 06 01 BF 92 06 01 64 65  61 64 45 1C 80 F8 FF FF  ......deadE.....
19D0: 7F F8 FF FF 7F 73 30 34  35 01 80 1A 43 00 2B BF  .....s045...C.+.
19E0: 92 06 01 6A 80 53 BF 92  06 01 BF 92 06 01 64 65  ...j.S........de
19F0: 61 64 23 52 1C 80 F8 FF  FF 7F F8 FF FF 7F 73 30  ad#R..........s0
1A00: 34 35 45 1C 80 F8 FF FF  7F F8 FF FF 7F 73 30 34  45E..........s04
1A10: 34 01 80 2B BD 92 06 01  6B 80 1C 31 80 23 1C 20  4..+....k..1.#. 
1A20: 80 52 1C 80 F8 FF FF 7F  F8 FF FF 7F 73 30 34 34  .R..........s044
1A30: 45 1C 80 F8 FF FF 7F F8  FF FF 7F 73 30 34 36 01  E..........s046.
1A40: 80 2B BD 92 06 01 6C 80  23 29 0F BD 92 06 01 38  .+....l.#).....8
1A50: 27 0F BD 92 06 01 40 1C  1F 80 52 1C 80 F8 FF FF  '.....@...R.....
1A60: 7F F8 FF FF 7F 73 30 34  36 45 1C 80 F8 FF FF 7F  .....s046E......
1A70: F8 FF FF 7F 73 30 34 37  01 80 2A 0F BD 92 06 01  ....s047..*.....
1A80: 9F 6D 80 BF 92 06 01 BF  92 06 01 73 74 72 30 01  .m.........str0.
1A90: 80 2B BF 92 06 01 6E 80  1C 2E 80 23 9F 6D 80 BF  .+....n....#.m..
1AA0: 92 06 01 BF 92 06 01 73  74 6F 70 01 80 52 1C 80  .......stop..R..
1AB0: F8 FF FF 7F F8 FF FF 7F  73 30 34 37 45 1C 80 F8  ........s047E...
1AC0: FF FF 7F F8 FF FF 7F 73  30 34 39 01 80 1C 06 80  .......s049.....
1AD0: 2B BD 92 06 01 6F 80 6E  BD 92 06 01 2B 80 99 BD  +....o.n....+...
1AE0: 92 06 01 1C 20 80 23 52  1C 80 F8 FF FF 7F F8 FF  .... .#R........
1AF0: FF 7F 73 30 34 39 45 1C  80 F8 FF FF 7F F8 FF FF  ..s049E.........
1B00: 7F 73 30 35 31 01 80 27  0F F0 FF FF 7F 1A 5C 00  .s051..'......\.
1B10: 70 80 5C 01 70 80 5C 02  01 80 5C 03 01 80 9A 5D  p.\.p.\...\....]
1B20: 27 80 03 80 2B BD 92 06  01 71 80 6E BD 92 06 01  '...+....q.n....
1B30: 45 80 99 BD 92 06 01 1C  20 80 23 2A 0F F0 FF FF  E....... .#*....
1B40: 7F 52 1C 80 F8 FF FF 7F  F8 FF FF 7F 73 30 35 31  .R..........s051
1B50: 45 1C 80 F8 FF FF 7F F8  FF FF 7F 73 30 34 38 01  E..........s048.
1B60: 80 2B BF 92 06 01 72 80  23 1C 06 80 29 0F BD 92  .+....r.#...)...
1B70: 06 01 0D 1C 06 80 6C C0  92 06 01 23 80 03 80 2B  ......l....#...+
1B80: BD 92 06 01 73 80 23 29  0F BD 92 06 01 0E 79 00  ....s.#)......y.
1B90: BD 92 06 01 C0 92 06 01  79 00 F0 FF FF 7F C0 92  ........y.......
1BA0: 06 01 52 1C 80 F8 FF FF  7F F8 FF FF 7F 73 30 34  ..R..........s04
1BB0: 38 45 1C 80 F8 FF FF 7F  F8 FF FF 7F 73 30 35 30  8E..........s050
1BC0: 01 80 1C 06 80 2B BD 92  06 01 74 80 29 0F BD 92  .....+....t.)...
1BD0: 06 01 0B 29 0F BD 92 06  01 0C 4A BD 92 06 01 C0  ...)......J.....
1BE0: 92 06 01 6F 76 BD 92 06  01 7B BD 92 06 01 23 52  ...ov....{....#R
1BF0: 1C 80 F8 FF FF 7F F8 FF  FF 7F 73 30 35 30 02 09  ..........s050..
1C00: 10 34 80 00 1A 1C 45 1C  80 F8 FF FF 7F F8 FF FF  .4....E.........
1C10: 7F 73 30 35 32 01 80 01  7F 1C 02 09 10 1B 80 00  .s052...........
1C20: 36 1C 45 1C 80 F8 FF FF  7F F8 FF FF 7F 73 30 37  6.E..........s07
1C30: 32 01 80 01 7F 1C 02 09  10 1D 80 00 52 1C 45 1C  2...........R.E.
1C40: 80 F8 FF FF 7F F8 FF FF  7F 73 30 37 32 01 80 01  .........s072...
1C50: 7F 1C 02 09 10 35 80 00  6E 1C 45 1C 80 F8 FF FF  .....5..n.E.....
1C60: 7F F8 FF FF 7F 73 30 35  32 01 80 01 7F 1C 45 1C  .....s052.....E.
1C70: 80 F8 FF FF 7F F8 FF FF  7F 73 30 37 38 01 80 4A  .........s078..J
1C80: BD 92 06 01 F0 FF FF 7F  6F 76 BD 92 06 01 4A F0  ........ov....J.
1C90: FF FF 7F BD 92 06 01 79  00 F0 FF FF 7F BD 92 06  .......y........
1CA0: 01 2B BD 92 06 01 75 80  4A BD 92 06 01 F0 FF FF  .+....u.J.......
1CB0: 7F 6F 76 BD 92 06 01 23  6F 76 F0 FF FF 7F 6E BD  .ov....#ov....n.
1CC0: 92 06 01 3A 80 99 BD 92  06 01 1C 05 80 02 09 10  ...:............
1CD0: 34 80 00 E7 1C 52 1C 80  F8 FF FF 7F F8 FF FF 7F  4....R..........
1CE0: 73 30 35 32 01 44 1D 02  09 10 1B 80 00 01 1D 52  s052.D.........R
1CF0: 1C 80 F8 FF FF 7F F8 FF  FF 7F 73 30 37 32 01 44  ..........s072.D
1D00: 1D 02 09 10 1D 80 00 1B  1D 52 1C 80 F8 FF FF 7F  .........R......
1D10: F8 FF FF 7F 73 30 37 32  01 44 1D 02 09 10 35 80  ....s072.D....5.
1D20: 00 35 1D 52 1C 80 F8 FF  FF 7F F8 FF FF 7F 73 30  .5.R..........s0
1D30: 35 32 01 44 1D 52 1C 80  F8 FF FF 7F F8 FF FF 7F  52.D.R..........
