# 17207935

## Common Data

| Field            | Value                    |
|------------------|--------------------------|
| Zone             | Batallia Downs (ID: 105) |
| Block Size       | 16368 bytes              |
| Total Events     | 5                        |
| References Count | 279                      |

## List of Events

| Event ID              | Entrypoint   |   Size |   Instructions |
|-----------------------|--------------|--------|----------------|
| [65535](#event-65535) | 0x0000       |      1 |              1 |
| [3](#event-3)         | 0x0001       |   7853 |            900 |
| [4](#event-4)         | 0x1EAE       |   4627 |            532 |
| [6](#event-6)         | 0x30C1       |   2726 |            328 |
| [5](#event-5)         | 0x3B67       |      7 |              5 |

## DAT References (imed_data)

|   Index | Hex Value   |   Dec Value |
|---------|-------------|-------------|
|       0 | 0x0013      |          19 |
|       1 | 0x0000      |           0 |
|       2 | 0xFFFF31B9  |  4294914489 |
|       3 | 0x6AA5E     |      436830 |
|       4 | 0x01DC      |         476 |
|       5 | 0x0FE0      |        4064 |
|       6 | 0x0001      |           1 |
|       7 | 0xFFFCFBC1  |  4294769601 |
|       8 | 0x587B3     |      362419 |
|       9 | 0x1F3F      |        7999 |
|      10 | 0x060A      |        1546 |
|      11 | 0x0002      |           2 |
|      12 | 0x59FE4     |      368612 |
|      13 | 0xFFFC8753  |  4294739795 |
|      14 | 0x2279      |        8825 |
|      15 | 0x0E08      |        3592 |
|      16 | 0x0072      |         114 |
|      17 | 0x0076      |         118 |
|      18 | 0x009E      |         158 |
|      19 | 0x000F      |          15 |
|      20 | 0x017A      |         378 |
|      21 | 0x1EC0      |        7872 |
|      22 | 0x1EC1      |        7873 |
|      23 | 0x0078      |         120 |
|      24 | 0x0003      |           3 |
|      25 | 0x0004      |           4 |
|      26 | 0x0005      |           5 |
|      27 | 0x0006      |           6 |
|      28 | 0x0007      |           7 |
|      29 | 0x0008      |           8 |
|      30 | 0x00FA      |         250 |
|      31 | 0x003C      |          60 |
|      32 | 0x0097      |         151 |
|      33 | 0x00F0      |         240 |
|      34 | 0x012C      |         300 |
|      35 | 0x005A      |          90 |
|      36 | 0x004B      |          75 |
|      37 | 0x1EC3      |        7875 |
|      38 | 0x002D      |          45 |
|      39 | 0x00B6      |         182 |
|      40 | 0x00FF      |         255 |
|      41 | 0x001E      |          30 |
|      42 | 0x0028      |          40 |
|      43 | 0x8E3B2     |      582578 |
|      44 | 0xFFFCC4FF  |  4294755583 |
|      45 | 0x8C9F      |       35999 |
|      46 | 0x03FE      |        1022 |
|      47 | 0x8EA2C     |      584236 |
|      48 | 0xFFFCC072  |  4294754418 |
|      49 | 0x8E928     |      583976 |
|      50 | 0xFFFA39A8  |  4294588840 |
|      51 | 0xFFFFDCA9  |  4294958249 |
|      52 | 0x088E      |        2190 |
|      53 | 0x01FF      |         511 |
|      54 | 0x00D2      |         210 |
|      55 | 0x2C64      |       11364 |
|      56 | 0x2C65      |       11365 |
|      57 | 0x8D5C9     |      579017 |
|      58 | 0xFFFC8BC7  |  4294740935 |
|      59 | 0x03FB      |        1019 |
|      60 | 0x8D9FB     |      580091 |
|      61 | 0xFFFC8638  |  4294739512 |
|      62 | 0x01E0      |         480 |
|      63 | 0x88FCC     |      561100 |
|      64 | 0xFFFA7C96  |  4294605974 |
|      65 | 0x0609      |        1545 |
|      66 | 0x88DDF     |      560607 |
|      67 | 0xFFFA7552  |  4294604114 |
|      68 | 0x89331     |      561969 |
|      69 | 0xFFFA4988  |  4294592904 |
|      70 | 0x05FB      |        1531 |
|      71 | 0x8933F     |      561983 |
|      72 | 0xFFFA4410  |  4294591504 |
|      73 | 0x060B      |        1547 |
|      74 | 0x2C66      |       11366 |
|      75 | 0x0586      |        1414 |
|      76 | 0x2C67      |       11367 |
|      77 | 0x2C68      |       11368 |
|      78 | 0x2C69      |       11369 |
|      79 | 0x2C6A      |       11370 |
|      80 | 0x2C6B      |       11371 |
|      81 | 0x2C6C      |       11372 |
|      82 | 0x2C6D      |       11373 |
|      83 | 0x2C6E      |       11374 |
|      84 | 0x2C6F      |       11375 |
|      85 | 0x2C70      |       11376 |
|      86 | 0x2C71      |       11377 |
|      87 | 0x2C72      |       11378 |
|      88 | 0x051F      |        1311 |
|      89 | 0x2C73      |       11379 |
|      90 | 0x83E5E     |      540254 |
|      91 | 0xFFFA65AD  |  4294600109 |
|      92 | 0x06F2      |        1778 |
|      93 | 0x83FFF     |      540671 |
|      94 | 0xFFFA5C4D  |  4294597709 |
|      95 | 0x0726      |        1830 |
|      96 | 0x00B4      |         180 |
|      97 | 0x2C74      |       11380 |
|      98 | 0x0B28      |        2856 |
|      99 | 0x2C75      |       11381 |
|     100 | 0x00DF      |         223 |
|     101 | 0x2C77      |       11383 |
|     102 | 0x84BC8     |      543688 |
|     103 | 0xFFFA6138  |  4294598968 |
|     104 | 0x00AD      |         173 |
|     105 | 0x84A62     |      543330 |
|     106 | 0xFFFA5A3C  |  4294597180 |
|     107 | 0x00A4      |         164 |
|     108 | 0x09DF      |        2527 |
|     109 | 0x2C76      |       11382 |
|     110 | 0x84648     |      542280 |
|     111 | 0xFFFA5E54  |  4294598228 |
|     112 | 0xFFFFA39E  |  4294943646 |
|     113 | 0x087D      |        2173 |
|     114 | 0x0B0C      |        2828 |
|     115 | 0x0054      |          84 |
|     116 | 0x2C78      |       11384 |
|     117 | 0x0B29      |        2857 |
|     118 | 0x0052      |          82 |
|     119 | 0x0019      |          25 |
|     120 | 0x856C9     |      546505 |
|     121 | 0xFFFA59A4  |  4294597028 |
|     122 | 0x0E26      |        3622 |
|     123 | 0x841D9     |      541145 |
|     124 | 0xFFFA5B34  |  4294597428 |
|     125 | 0x0F3A      |        3898 |
|     126 | 0x83C8D     |      539789 |
|     127 | 0xFFFA5C17  |  4294597655 |
|     128 | 0xFFFFFED4  |  4294966996 |
|     129 | 0x0021      |          33 |
|     130 | 0x8187A     |      530554 |
|     131 | 0xFFFA5EA8  |  4294598312 |
|     132 | 0x0BB8      |        3000 |
|     133 | 0x0014      |          20 |
|     134 | 0x0053      |          83 |
|     135 | 0x81434     |      529460 |
|     136 | 0xFFFA4FCB  |  4294594507 |
|     137 | 0xFFFFFB13  |  4294966035 |
|     138 | 0x0F39      |        3897 |
|     139 | 0x2C79      |       11385 |
|     140 | 0x2C7A      |       11386 |
|     141 | 0xFFFFFC18  |  4294966296 |
|     142 | 0x2C7B      |       11387 |
|     143 | 0x005C      |          92 |
|     144 | 0x0032      |          50 |
|     145 | 0x0096      |         150 |
|     146 | 0x0058      |          88 |
|     147 | 0xFFFB7C23  |  4294671395 |
|     148 | 0xFFF8A81B  |  4294486043 |
|     149 | 0xFFFFFF5E  |  4294967134 |
|     150 | 0x0DE6      |        3558 |
|     151 | 0xFFFB8A47  |  4294675015 |
|     152 | 0xFFF8B254  |  4294488660 |
|     153 | 0x05F1      |        1521 |
|     154 | 0xFFFB9658  |  4294678104 |
|     155 | 0xFFF8B8CD  |  4294490317 |
|     156 | 0xFFFFE2CA  |  4294959818 |
|     157 | 0x0E5D      |        3677 |
|     158 | 0x0168      |         360 |
|     159 | 0x0059      |          89 |
|     160 | 0x00DB      |         219 |
|     161 | 0x007C      |         124 |
|     162 | 0xFFFB8814  |  4294674452 |
|     163 | 0xFFF8B155  |  4294488405 |
|     164 | 0x0E5F      |        3679 |
|     165 | 0xFFFB8778  |  4294674296 |
|     166 | 0xFFF8B0C9  |  4294488265 |
|     167 | 0x0E60      |        3680 |
|     168 | 0xFFFB872C  |  4294674220 |
|     169 | 0xFFF8B08D  |  4294488205 |
|     170 | 0x01A4      |         420 |
|     171 | 0x0E5C      |        3676 |
|     172 | 0x2C7C      |       11388 |
|     173 | 0xFFFB58A6  |  4294662310 |
|     174 | 0xFFF8B349  |  4294488905 |
|     175 | 0xFFFFF00C  |  4294963212 |
|     176 | 0x07EB      |        2027 |
|     177 | 0x2C7D      |       11389 |
|     178 | 0x2C7E      |       11390 |
|     179 | 0x2C7F      |       11391 |
|     180 | 0x2C80      |       11392 |
|     181 | 0x005E      |          94 |
|     182 | 0x023A      |         570 |
|     183 | 0x2C81      |       11393 |
|     184 | 0x2C82      |       11394 |
|     185 | 0x2C83      |       11395 |
|     186 | 0x0258      |         600 |
|     187 | 0x2C84      |       11396 |
|     188 | 0x0069      |         105 |
|     189 | 0x006E      |         110 |
|     190 | 0x00C8      |         200 |
|     191 | 0x8D985     |      579973 |
|     192 | 0xFFFC50A4  |  4294725796 |
|     193 | 0x0BF9      |        3065 |
|     194 | 0x8D98E     |      579982 |
|     195 | 0xFFFC7F7E  |  4294737790 |
|     196 | 0x0DAC      |        3500 |
|     197 | 0x8E453     |      582739 |
|     198 | 0xFFFCE534  |  4294763828 |
|     199 | 0x06C8      |        1736 |
|     200 | 0x0091      |         145 |
|     201 | 0x8D9B5     |      580021 |
|     202 | 0xFFFC9CD0  |  4294745296 |
|     203 | 0x0432      |        1074 |
|     204 | 0x2C85      |       11397 |
|     205 | 0x2C86      |       11398 |
|     206 | 0x010E      |         270 |
|     207 | 0x005B      |          91 |
|     208 | 0x2C87      |       11399 |
|     209 | 0x084A      |        2122 |
|     210 | 0x0300      |         768 |
|     211 | 0xFFFFFE00  |  4294966784 |
|     212 | 0x0B2B      |        2859 |
|     213 | 0x0056      |          86 |
|     214 | 0x021C      |         540 |
|     215 | 0x054D      |        1357 |
|     216 | 0x2C88      |       11400 |
|     217 | 0x00C9      |         201 |
|     218 | 0x00D7      |         215 |
|     219 | 0x24D2C     |      150828 |
|     220 | 0xFFF9F2F8  |  4294570744 |
|     221 | 0xFFFFF24F  |  4294963791 |
|     222 | 0x0ABC      |        2748 |
|     223 | 0x24FEB     |      151531 |
|     224 | 0xFFF9F088  |  4294570120 |
|     225 | 0xFFFFF346  |  4294964038 |
|     226 | 0x097E      |        2430 |
|     227 | 0x27A66     |      162406 |
|     228 | 0xFFF9FA19  |  4294572569 |
|     229 | 0xFFFFFB02  |  4294966018 |
|     230 | 0x0ABD      |        2749 |
|     231 | 0x24AC1     |      150209 |
|     232 | 0xFFF9F6C9  |  4294571721 |
|     233 | 0xFFFFF12A  |  4294963498 |
|     234 | 0x02F8      |         760 |
|     235 | 0x0226      |         550 |
|     236 | 0x2C2B      |       11307 |
|     237 | 0x0045      |          69 |
|     238 | 0x2C2C      |       11308 |
|     239 | 0x2C2D      |       11309 |
|     240 | 0x2C2E      |       11310 |
|     241 | 0x2C2F      |       11311 |
|     242 | 0x2C30      |       11312 |
|     243 | 0x2C31      |       11313 |
|     244 | 0x2C32      |       11314 |
|     245 | 0x2C33      |       11315 |
|     246 | 0x2C34      |       11316 |
|     247 | 0x001D      |          29 |
|     248 | 0x2C35      |       11317 |
|     249 | 0x2555A     |      152922 |
|     250 | 0xFFF9F7F5  |  4294572021 |
|     251 | 0xFFFFF26F  |  4294963823 |
|     252 | 0x0FB4      |        4020 |
|     253 | 0x0225      |         549 |
|     254 | 0x0B16      |        2838 |
|     255 | 0x2C36      |       11318 |
|     256 | 0x2C37      |       11319 |
|     257 | 0x2C38      |       11320 |
|     258 | 0x2C39      |       11321 |
|     259 | 0x2C3A      |       11322 |
|     260 | 0x0857      |        2135 |
|     261 | 0x2C3B      |       11323 |
|     262 | 0x0856      |        2134 |
|     263 | 0x2C3C      |       11324 |
|     264 | 0x257A3     |      153507 |
|     265 | 0xFFF9F7F0  |  4294572016 |
|     266 | 0xFFFFF2A7  |  4294963879 |
|     267 | 0xFFFFF0B3  |  4294963379 |
|     268 | 0x2C3D      |       11325 |
|     269 | 0x2C3E      |       11326 |
|     270 | 0x2C3F      |       11327 |
|     271 | 0x2C40      |       11328 |
|     272 | 0x2C41      |       11329 |
|     273 | 0x2C42      |       11330 |
|     274 | 0x2C43      |       11331 |
|     275 | 0x26A10     |      158224 |
|     276 | 0xFFF9F6C3  |  4294571715 |
|     277 | 0xFFFFF715  |  4294965013 |
|     278 | 0x2C44      |       11332 |

## String References

- **7872**: The vines covering the cavernous maw shudder violently.
- **7873**: The mottled surface of the cavernous maw shudders violently.
- **7875**: <Player> is engulfed by the cavernous maw!
- **11309**: Tell Larzos everything? [Yes./No.]
- **11332**: A withered flower lies before the tombstone. Now seems to be a good time to replace it.

## Events

### Event 65535

#### Metadata

| Field        | Value   |
|--------------|---------|
| Entrypoint   | 0x0000  |
| Data Size    | 1 bytes |
| Instructions | 1       |

```
      00 01 02 03 04 05 06 07  08 09 0A 0B 0C 0D 0E 0F
      -- -- -- -- -- -- -- --  -- -- -- -- -- -- -- --
0000: 00                                                .               
```

#### Opcodes

```
  0: 0x0000 [0x00] END_REQSTACK()
```

### Event 3

#### Metadata

| Field        | Value      |
|--------------|------------|
| Entrypoint   | 0x0001     |
| Data Size    | 7853 bytes |
| Instructions | 900        |

```
      00 01 02 03 04 05 06 07  08 09 0A 0B 0C 0D 0E 0F
      -- -- -- -- -- -- -- --  -- -- -- -- -- -- -- --
0000:    42 1A 93 2E 03 00 00  02 10 03 01 00 09 10 46   B.............F
0010: 01 29 10 F0 FF FF 7F 46  03 02 00 02 10 38 00 80  .).....F.....8..
0020: 4E 01 16 92 06 01 92 01  F0 FF FF 7F 92 01 31 92  N.............1.
0030: 06 01 94 01 F0 FF FF 7F  94 01 31 92 06 01 02 00  ..........1.....
0040: 00 01 80 80 56 00 BA F0  FF FF 7F 02 80 03 80 04  ....V...........
0050: 80 05 80 01 86 00 02 00  00 06 80 80 6E 00 BA F0  ............n...
0060: FF FF 7F 07 80 08 80 09  80 0A 80 01 86 00 02 00  ................
0070: 00 0B 80 80 86 00 BA F0  FF FF 7F 0C 80 0D 80 0E  ................
0080: 80 0F 80 01 86 00 80 F0  FF FF 7F 80 31 92 06 01  ............1...
0090: 4A F0 FF FF 7F 31 92 06  01 02 00 00 01 80 80 AC  J....1..........
00A0: 00 5C 00 10 80 5C 01 10  80 01 D2 00 02 00 00 06  .\...\..........
00B0: 80 80 BF 00 5C 00 11 80  5C 01 11 80 01 D2 00 02  ....\...\.......
00C0: 00 00 0B 80 80 D2 00 5C  00 12 80 5C 01 12 80 01  .......\...\....
00D0: D2 00 9A 1C 13 80 02 00  00 01 80 80 F2 00 45 14  ..............E.
00E0: 80 F0 FF FF 7F F0 FF FF  7F 6E 6F 31 31 01 80 01  .........no11...
00F0: 2A 01 02 00 00 06 80 80  0E 01 45 14 80 F0 FF FF  *.........E.....
0100: 7F F0 FF FF 7F 72 6F 31  31 01 80 01 2A 01 02 00  .....ro11...*...
0110: 00 0B 80 80 2A 01 45 14  80 F0 FF FF 7F F0 FF FF  ....*.E.........
0120: 7F 61 6C 31 31 01 80 01  2A 01 1A 72 2E 02 00 00  .al11...*..r....
0130: 01 80 80 3B 01 48 15 80  01 57 01 02 00 00 06 80  ...;.H...W......
0140: 80 49 01 48 15 80 01 57  01 02 00 00 0B 80 80 57  .I.H...W.......W
0150: 01 48 16 80 01 57 01 5D  01 80 17 80 1C 17 80 02  .H...W.]........
0160: 00 00 01 80 80 59 02 52  14 80 F0 FF FF 7F F0 FF  .....Y.R........
0170: FF 7F 6E 6F 31 31 02 02  00 06 80 80 92 01 45 14  ..no11........E.
0180: 80 F0 FF FF 7F F0 FF FF  7F 6E 68 6D 31 01 80 01  .........nhm1...
0190: 56 02 02 02 00 0B 80 80  AE 01 45 14 80 F0 FF FF  V.........E.....
01A0: 7F F0 FF FF 7F 6E 68 66  31 01 80 01 56 02 02 02  .....nhf1...V...
01B0: 00 18 80 80 CA 01 45 14  80 F0 FF FF 7F F0 FF FF  ......E.........
01C0: 7F 6E 65 6D 31 01 80 01  56 02 02 02 00 19 80 80  .nem1...V.......
01D0: E6 01 45 14 80 F0 FF FF  7F F0 FF FF 7F 6E 65 66  ..E..........nef
01E0: 31 01 80 01 56 02 02 02  00 1A 80 80 02 02 45 14  1...V.........E.
01F0: 80 F0 FF FF 7F F0 FF FF  7F 6E 74 72 31 01 80 01  .........ntr1...
0200: 56 02 02 02 00 1B 80 80  1E 02 45 14 80 F0 FF FF  V.........E.....
0210: 7F F0 FF FF 7F 6E 74 72  31 01 80 01 56 02 02 02  .....ntr1...V...
0220: 00 1C 80 80 3A 02 45 14  80 F0 FF FF 7F F0 FF FF  ....:.E.........
0230: 7F 6E 6D 74 31 01 80 01  56 02 02 02 00 1D 80 80  .nmt1...V.......
0240: 56 02 45 14 80 F0 FF FF  7F F0 FF FF 7F 6E 67 6C  V.E..........ngl
0250: 31 01 80 01 56 02 01 4D  04 02 00 00 06 80 80 53  1...V..M.......S
0260: 03 52 14 80 F0 FF FF 7F  F0 FF FF 7F 72 6F 31 31  .R..........ro11
0270: 02 02 00 06 80 80 8C 02  45 14 80 F0 FF FF 7F F0  ........E.......
0280: FF FF 7F 72 68 6D 31 01  80 01 50 03 02 02 00 0B  ...rhm1...P.....
0290: 80 80 A8 02 45 14 80 F0  FF FF 7F F0 FF FF 7F 72  ....E..........r
02A0: 68 66 31 01 80 01 50 03  02 02 00 18 80 80 C4 02  hf1...P.........
02B0: 45 14 80 F0 FF FF 7F F0  FF FF 7F 72 65 6D 31 01  E..........rem1.
02C0: 80 01 50 03 02 02 00 19  80 80 E0 02 45 14 80 F0  ..P.........E...
02D0: FF FF 7F F0 FF FF 7F 72  65 66 31 01 80 01 50 03  .......ref1...P.
02E0: 02 02 00 1A 80 80 FC 02  45 14 80 F0 FF FF 7F F0  ........E.......
02F0: FF FF 7F 72 74 72 31 01  80 01 50 03 02 02 00 1B  ...rtr1...P.....
0300: 80 80 18 03 45 14 80 F0  FF FF 7F F0 FF FF 7F 72  ....E..........r
0310: 74 72 31 01 80 01 50 03  02 02 00 1C 80 80 34 03  tr1...P.......4.
0320: 45 14 80 F0 FF FF 7F F0  FF FF 7F 72 6D 74 31 01  E..........rmt1.
0330: 80 01 50 03 02 02 00 1D  80 80 50 03 45 14 80 F0  ..P.......P.E...
0340: FF FF 7F F0 FF FF 7F 72  67 6C 31 01 80 01 50 03  .......rgl1...P.
0350: 01 4D 04 02 00 00 0B 80  80 4D 04 52 14 80 F0 FF  .M.......M.R....
0360: FF 7F F0 FF FF 7F 61 6C  31 31 02 02 00 06 80 80  ......al11......
0370: 86 03 45 14 80 F0 FF FF  7F F0 FF FF 7F 61 68 6D  ..E..........ahm
0380: 31 01 80 01 4A 04 02 02  00 0B 80 80 A2 03 45 14  1...J.........E.
0390: 80 F0 FF FF 7F F0 FF FF  7F 61 68 66 31 01 80 01  .........ahf1...
03A0: 4A 04 02 02 00 18 80 80  BE 03 45 14 80 F0 FF FF  J.........E.....
03B0: 7F F0 FF FF 7F 61 65 6D  31 01 80 01 4A 04 02 02  .....aem1...J...
03C0: 00 19 80 80 DA 03 45 14  80 F0 FF FF 7F F0 FF FF  ......E.........
03D0: 7F 61 65 66 31 01 80 01  4A 04 02 02 00 1A 80 80  .aef1...J.......
03E0: F6 03 45 14 80 F0 FF FF  7F F0 FF FF 7F 61 74 72  ..E..........atr
03F0: 31 01 80 01 4A 04 02 02  00 1B 80 80 12 04 45 14  1...J.........E.
0400: 80 F0 FF FF 7F F0 FF FF  7F 61 74 72 31 01 80 01  .........atr1...
0410: 4A 04 02 02 00 1C 80 80  2E 04 45 14 80 F0 FF FF  J.........E.....
0420: 7F F0 FF FF 7F 61 6D 74  31 01 80 01 4A 04 02 02  .....amt1...J...
0430: 00 1D 80 80 4A 04 45 14  80 F0 FF FF 7F F0 FF FF  ....J.E.........
0440: 7F 61 67 6C 31 01 80 01  4A 04 01 4D 04 5C 00 1E  .agl1...J..M.\..
0450: 80 5C 01 1E 80 9A 1C 1F  80 BB 20 80 F0 FF FF 7F  .\........ .....
0460: 31 92 06 01 73 74 30 31  01 80 27 10 F0 FF FF 7F  1...st01..'.....
0470: 2A 45 14 80 F0 FF FF 7F  F0 FF FF 7F 6B 69 72 61  *E..........kira
0480: 01 80 1C 21 80 02 00 00  01 80 80 71 05 02 02 00  ...!.......q....
0490: 06 80 80 A7 04 52 14 80  F0 FF FF 7F F0 FF FF 7F  .....R..........
04A0: 6E 68 6D 31 01 5D 05 02  02 00 0B 80 80 C1 04 52  nhm1.].........R
04B0: 14 80 F0 FF FF 7F F0 FF  FF 7F 6E 68 66 31 01 5D  ..........nhf1.]
04C0: 05 02 02 00 18 80 80 DB  04 52 14 80 F0 FF FF 7F  .........R......
04D0: F0 FF FF 7F 6E 65 6D 31  01 5D 05 02 02 00 19 80  ....nem1.]......
04E0: 80 F5 04 52 14 80 F0 FF  FF 7F F0 FF FF 7F 6E 65  ...R..........ne
04F0: 66 31 01 5D 05 02 02 00  1A 80 80 0F 05 52 14 80  f1.].........R..
0500: F0 FF FF 7F F0 FF FF 7F  6E 74 72 31 01 5D 05 02  ........ntr1.]..
0510: 02 00 1B 80 80 29 05 52  14 80 F0 FF FF 7F F0 FF  .....).R........
0520: FF 7F 6E 74 72 31 01 5D  05 02 02 00 1C 80 80 43  ..ntr1.].......C
0530: 05 52 14 80 F0 FF FF 7F  F0 FF FF 7F 6E 6D 74 31  .R..........nmt1
0540: 01 5D 05 02 02 00 1D 80  80 5D 05 52 14 80 F0 FF  .].......].R....
0550: FF 7F F0 FF FF 7F 6E 67  6C 31 01 5D 05 45 14 80  ......ngl1.].E..
0560: F0 FF FF 7F F0 FF FF 7F  6E 6F 31 32 01 80 01 49  ........no12...I
0570: 07 02 00 00 06 80 80 5D  06 02 02 00 06 80 80 93  .......]........
0580: 05 52 14 80 F0 FF FF 7F  F0 FF FF 7F 72 68 6D 31  .R..........rhm1
0590: 01 49 06 02 02 00 0B 80  80 AD 05 52 14 80 F0 FF  .I.........R....
05A0: FF 7F F0 FF FF 7F 72 68  66 31 01 49 06 02 02 00  ......rhf1.I....
05B0: 18 80 80 C7 05 52 14 80  F0 FF FF 7F F0 FF FF 7F  .....R..........
05C0: 72 65 6D 31 01 49 06 02  02 00 19 80 80 E1 05 52  rem1.I.........R
05D0: 14 80 F0 FF FF 7F F0 FF  FF 7F 72 65 66 31 01 49  ..........ref1.I
05E0: 06 02 02 00 1A 80 80 FB  05 52 14 80 F0 FF FF 7F  .........R......
05F0: F0 FF FF 7F 72 74 72 31  01 49 06 02 02 00 1B 80  ....rtr1.I......
0600: 80 15 06 52 14 80 F0 FF  FF 7F F0 FF FF 7F 72 74  ...R..........rt
0610: 72 31 01 49 06 02 02 00  1C 80 80 2F 06 52 14 80  r1.I......./.R..
0620: F0 FF FF 7F F0 FF FF 7F  72 6D 74 31 01 49 06 02  ........rmt1.I..
0630: 02 00 1D 80 80 49 06 52  14 80 F0 FF FF 7F F0 FF  .....I.R........
0640: FF 7F 72 67 6C 31 01 49  06 45 14 80 F0 FF FF 7F  ..rgl1.I.E......
0650: F0 FF FF 7F 72 6F 31 32  01 80 01 49 07 02 00 00  ....ro12...I....
0660: 0B 80 80 49 07 02 02 00  06 80 80 7F 06 52 14 80  ...I.........R..
0670: F0 FF FF 7F F0 FF FF 7F  61 68 6D 31 01 35 07 02  ........ahm1.5..
0680: 02 00 0B 80 80 99 06 52  14 80 F0 FF FF 7F F0 FF  .......R........
0690: FF 7F 61 68 66 31 01 35  07 02 02 00 18 80 80 B3  ..ahf1.5........
06A0: 06 52 14 80 F0 FF FF 7F  F0 FF FF 7F 61 65 6D 31  .R..........aem1
06B0: 01 35 07 02 02 00 19 80  80 CD 06 52 14 80 F0 FF  .5.........R....
06C0: FF 7F F0 FF FF 7F 61 65  66 31 01 35 07 02 02 00  ......aef1.5....
06D0: 1A 80 80 E7 06 52 14 80  F0 FF FF 7F F0 FF FF 7F  .....R..........
06E0: 61 74 72 31 01 35 07 02  02 00 1B 80 80 01 07 52  atr1.5.........R
06F0: 14 80 F0 FF FF 7F F0 FF  FF 7F 61 74 72 31 01 35  ..........atr1.5
0700: 07 02 02 00 1C 80 80 1B  07 52 14 80 F0 FF FF 7F  .........R......
0710: F0 FF FF 7F 61 6D 74 31  01 35 07 02 02 00 1D 80  ....amt1.5......
0720: 80 35 07 52 14 80 F0 FF  FF 7F F0 FF FF 7F 61 67  .5.R..........ag
0730: 6C 31 01 35 07 45 14 80  F0 FF FF 7F F0 FF FF 7F  l1.5.E..........
0740: 61 6C 31 32 01 80 01 49  07 1C 17 80 2A 10 F0 FF  al12...I....*...
0750: FF 7F BB 20 80 F0 FF FF  7F 31 92 06 01 73 74 30  ... .....1...st0
0760: 32 01 80 45 14 80 31 92  06 01 F0 FF FF 7F 36 31  2..E..1.......61
0770: 31 32 01 80 1C 21 80 02  00 00 01 80 80 C5 07 52  12...!.........R
0780: 14 80 F0 FF FF 7F F0 FF  FF 7F 6E 6F 31 32 45 14  ..........no12E.
0790: 80 F0 FF FF 7F F0 FF FF  7F 6E 6F 31 33 01 80 1C  .........no13...
07A0: 17 80 52 14 80 F0 FF FF  7F F0 FF FF 7F 6E 6F 31  ..R..........no1
07B0: 33 45 14 80 F0 FF FF 7F  F0 FF FF 7F 6E 6F 32 34  3E..........no24
07C0: 01 80 01 61 08 02 00 00  06 80 80 13 08 52 14 80  ...a.........R..
07D0: F0 FF FF 7F F0 FF FF 7F  72 6F 31 32 45 14 80 F0  ........ro12E...
07E0: FF FF 7F F0 FF FF 7F 72  6F 31 33 01 80 1C 17 80  .......ro13.....
07F0: 52 14 80 F0 FF FF 7F F0  FF FF 7F 72 6F 31 33 45  R..........ro13E
0800: 14 80 F0 FF FF 7F F0 FF  FF 7F 72 6F 32 34 01 80  ..........ro24..
0810: 01 61 08 02 00 00 0B 80  80 61 08 52 14 80 F0 FF  .a.......a.R....
0820: FF 7F F0 FF FF 7F 61 6C  31 32 45 14 80 F0 FF FF  ......al12E.....
0830: 7F F0 FF FF 7F 61 6C 31  33 01 80 1C 17 80 52 14  .....al13.....R.
0840: 80 F0 FF FF 7F F0 FF FF  7F 61 6C 31 33 45 14 80  .........al13E..
0850: F0 FF FF 7F F0 FF FF 7F  61 6C 32 34 01 80 01 61  ........al24...a
0860: 08 45 14 80 31 92 06 01  F0 FF FF 7F 6B 31 31 32  .E..1.......k112
0870: 01 80 5D 01 80 22 80 BB  20 80 F0 FF FF 7F 31 92  ..]..".. .....1.
0880: 06 01 73 74 30 33 01 80  1C 23 80 02 00 00 01 80  ..st03...#......
0890: 80 D9 08 52 14 80 F0 FF  FF 7F F0 FF FF 7F 6E 6F  ...R..........no
08A0: 32 34 45 14 80 F0 FF FF  7F F0 FF FF 7F 6E 6F 31  24E..........no1
08B0: 34 01 80 1C 24 80 52 14  80 F0 FF FF 7F F0 FF FF  4...$.R.........
08C0: 7F 6E 6F 31 34 45 14 80  F0 FF FF 7F F0 FF FF 7F  .no14E..........
08D0: 6E 6F 31 35 01 80 01 75  09 02 00 00 06 80 80 27  no15...u.......'
08E0: 09 52 14 80 F0 FF FF 7F  F0 FF FF 7F 72 6F 32 34  .R..........ro24
08F0: 45 14 80 F0 FF FF 7F F0  FF FF 7F 72 6F 31 34 01  E..........ro14.
0900: 80 1C 24 80 52 14 80 F0  FF FF 7F F0 FF FF 7F 72  ..$.R..........r
0910: 6F 31 34 45 14 80 F0 FF  FF 7F F0 FF FF 7F 72 6F  o14E..........ro
0920: 31 35 01 80 01 75 09 02  00 00 0B 80 80 75 09 52  15...u.......u.R
0930: 14 80 F0 FF FF 7F F0 FF  FF 7F 61 6C 32 34 45 14  ..........al24E.
0940: 80 F0 FF FF 7F F0 FF FF  7F 61 6C 31 34 01 80 1C  .........al14...
0950: 24 80 52 14 80 F0 FF FF  7F F0 FF FF 7F 61 6C 31  $.R..........al1
0960: 34 45 14 80 F0 FF FF 7F  F0 FF FF 7F 61 6C 31 35  4E..........al15
0970: 01 80 01 75 09 1C 17 80  48 25 80 1C 1F 80 1A D5  ...u....H%......
0980: 2E 1C 26 80 52 14 80 F0  FF FF 7F F0 FF FF 7F 6E  ..&.R..........n
0990: 6F 31 35 52 14 80 F0 FF  FF 7F F0 FF FF 7F 72 6F  o15R..........ro
09A0: 31 35 52 14 80 F0 FF FF  7F F0 FF FF 7F 61 6C 31  15R..........al1
09B0: 35 45 14 80 F0 FF FF 7F  F0 FF FF 7F 30 62 6C 66  5E..........0blf
09C0: 01 80 1C 13 80 34 27 80  77 28 80 00 80 1C 29 80  .....4'.w(....).
09D0: AB 09 2D F0 FF FF 7F F0  FF FF 7F 73 74 61 31 2D  ..-........sta1-
09E0: F0 FF FF 7F F0 FF FF 7F  73 74 61 32 2D F0 FF FF  ........sta2-...
09F0: 7F F0 FF FF 7F 73 74 61  33 2D F0 FF FF 7F F0 FF  .....sta3-......
0A00: FF 7F 73 74 61 34 5D 01  80 1F 80 4E 01 31 92 06  ..sta4]....N.1..
0A10: 01 1C 23 80 5C 00 2A 80  5C 01 2A 80 9A 27 10 3A  ..#.\.*.\.*..'.:
0A20: 92 06 01 04 27 10 3D 92  06 01 04 4E 00 3C 92 06  ....'.=....N.<..
0A30: 01 2F 00 3E 92 06 01 4E  00 3E 92 06 01 92 01 3A  ./.>...N.>.....:
0A40: 92 06 01 92 01 3D 92 06  01 92 01 3C 92 06 01 92  .....=.....<....
0A50: 01 3E 92 06 01 94 01 F0  FF FF 7F 94 01 3A 92 06  .>...........:..
0A60: 01 94 01 3D 92 06 01 94  01 3E 92 06 01 59 05 3D  ...=.....>...Y.=
0A70: 92 06 01 01 59 05 3E 92  06 01 01 59 05 3C 92 06  ....Y.>....Y.<..
0A80: 01 01 BA F0 FF FF 7F 2B  80 2C 80 2D 80 2E 80 BA  .......+.,.-....
0A90: 3A 92 06 01 2F 80 30 80  2D 80 2E 80 BA 3D 92 06  :.../.0.-....=..
0AA0: 01 31 80 32 80 33 80 34  80 BA 3E 92 06 01 01 80  .1.2.3.4..>.....
0AB0: 01 80 01 80 01 80 80 F0  FF FF 7F 80 3A 92 06 01  ............:...
0AC0: 80 3D 92 06 01 80 3E 92  06 01 7B F0 FF FF 7F 7B  .=....>...{....{
0AD0: 3A 92 06 01 7B 3D 92 06  01 7B 3E 92 06 01 1C 29  :...{=...{>....)
0AE0: 80 27 10 F0 FF FF 7F 3A  27 10 3D 92 06 01 0A 27  .'.....:'.=....'
0AF0: 10 3E 92 06 01 0C 27 10  3A 92 06 01 10 1C 26 80  .>....'.:.....&.
0B00: 27 10 F0 FF FF 7F 31 45  35 80 F0 FF FF 7F F0 FF  '.....1E5.......
0B10: FF 7F 30 30 30 30 01 80  1A B4 2E 1A 72 2E 1C 36  ..0000......r..6
0B20: 80 52 35 80 F0 FF FF 7F  F0 FF FF 7F 30 30 30 30  .R5.........0000
0B30: 45 35 80 F0 FF FF 7F F0  FF FF 7F 30 30 30 31 01  E5.........0001.
0B40: 80 2B 3A 92 06 01 37 80  23 2B 3A 92 06 01 38 80  .+:...7.#+:...8.
0B50: 23 27 10 3A 92 06 01 11  1C 26 80 27 10 F0 FF FF  #'.:.....&.'....
0B60: 7F 32 1C 1F 80 52 35 80  F0 FF FF 7F F0 FF FF 7F  .2...R5.........
0B70: 30 30 30 31 45 35 80 F0  FF FF 7F F0 FF FF 7F 30  0001E5.........0
0B80: 30 30 32 01 80 7A 00 3A  92 06 01 7A 00 F0 FF FF  002..z.:...z....
0B90: 7F BA F0 FF FF 7F 39 80  3A 80 2D 80 3B 80 BA 3A  ......9.:.-.;..:
0BA0: 92 06 01 3C 80 3D 80 2D  80 3B 80 27 10 F0 FF FF  ...<.=.-.;.'....
0BB0: 7F 33 27 10 3A 92 06 01  12 1C 3E 80 52 35 80 F0  .3'.:.....>.R5..
0BC0: FF FF 7F F0 FF FF 7F 30  30 30 32 45 35 80 F0 FF  .......0002E5...
0BD0: FF 7F F0 FF FF 7F 30 30  30 33 01 80 7A 00 3A 92  ......0003..z.:.
0BE0: 06 01 7A 00 F0 FF FF 7F  BA F0 FF FF 7F 3F 80 40  ..z..........?.@
0BF0: 80 01 80 41 80 BA 3A 92  06 01 42 80 43 80 01 80  ...A..:...B.C...
0C00: 0A 80 1C 21 80 52 35 80  F0 FF FF 7F F0 FF FF 7F  ...!.R5.........
0C10: 30 30 30 33 45 35 80 F0  FF FF 7F F0 FF FF 7F 30  0003E5.........0
0C20: 30 30 34 01 80 27 10 F0  FF FF 7F 34 29 10 3A 92  004..'.....4).:.
0C30: 06 01 13 52 35 80 F0 FF  FF 7F F0 FF FF 7F 30 30  ...R5.........00
0C40: 30 34 45 35 80 F0 FF FF  7F F0 FF FF 7F 30 30 30  04E5.........000
0C50: 35 01 80 7A 00 F0 FF FF  7F BA F0 FF FF 7F 44 80  5..z..........D.
0C60: 45 80 01 80 46 80 BA 3A  92 06 01 47 80 48 80 01  E...F..:...G.H..
0C70: 80 49 80 2B 3A 92 06 01  4A 80 23 52 35 80 F0 FF  .I.+:...J.#R5...
0C80: FF 7F F0 FF FF 7F 30 30  30 35 45 35 80 F0 FF FF  ......0005E5....
0C90: 7F F0 FF FF 7F 30 30 30  36 01 80 5B 4B 80 3A 92  .....0006..[K.:.
0CA0: 06 01 3A 92 06 01 74 6C  62 30 2B 3A 92 06 01 4C  ..:...tlb0+:...L
0CB0: 80 23 52 35 80 F0 FF FF  7F F0 FF FF 7F 30 30 30  .#R5.........000
0CC0: 36 45 35 80 F0 FF FF 7F  F0 FF FF 7F 30 30 30 37  6E5.........0007
0CD0: 01 80 2B 3A 92 06 01 4D  80 23 52 35 80 F0 FF FF  ..+:...M.#R5....
0CE0: 7F F0 FF FF 7F 30 30 30  37 45 35 80 F0 FF FF 7F  .....0007E5.....
0CF0: F0 FF FF 7F 30 30 30 38  01 80 5B 4B 80 3A 92 06  ....0008..[K.:..
0D00: 01 3A 92 06 01 74 6C 62  31 2B 3A 92 06 01 4E 80  .:...tlb1+:...N.
0D10: 23 45 35 80 F0 FF FF 7F  F0 FF FF 7F 61 74 30 30  #E5.........at00
0D20: 01 80 2B 3C 92 06 01 4F  80 23 52 35 80 F0 FF FF  ..+<...O.#R5....
0D30: 7F F0 FF FF 7F 30 30 30  38 29 10 F0 FF FF 7F 46  .....0008).....F
0D40: 02 02 10 06 80 80 5C 0D  45 35 80 F0 FF FF 7F F0  ......\.E5......
0D50: FF FF 7F 30 30 30 39 01  80 01 20 0E 02 02 10 0B  ...0009... .....
0D60: 80 80 78 0D 45 35 80 F0  FF FF 7F F0 FF FF 7F 30  ..x.E5.........0
0D70: 30 30 39 01 80 01 20 0E  02 02 10 18 80 80 94 0D  009... .........
0D80: 45 35 80 F0 FF FF 7F F0  FF FF 7F 30 30 30 39 01  E5.........0009.
0D90: 80 01 20 0E 02 02 10 19  80 80 B0 0D 45 35 80 F0  .. .........E5..
0DA0: FF FF 7F F0 FF FF 7F 30  30 30 39 01 80 01 20 0E  .......0009... .
0DB0: 02 02 10 1A 80 80 CC 0D  45 35 80 F0 FF FF 7F F0  ........E5......
0DC0: FF FF 7F 30 30 31 39 01  80 01 20 0E 02 02 10 1B  ...0019... .....
0DD0: 80 80 E8 0D 45 35 80 F0  FF FF 7F F0 FF FF 7F 30  ....E5.........0
0DE0: 30 31 39 01 80 01 20 0E  02 02 10 1C 80 80 04 0E  019... .........
0DF0: 45 35 80 F0 FF FF 7F F0  FF FF 7F 30 30 30 39 01  E5.........0009.
0E00: 80 01 20 0E 02 02 10 1D  80 80 20 0E 45 35 80 F0  .. ....... .E5..
0E10: FF FF 7F F0 FF FF 7F 30  30 30 39 01 80 01 20 0E  .......0009... .
0E20: 2B 3C 92 06 01 50 80 23  52 35 80 F0 FF FF 7F F0  +<...P.#R5......
0E30: FF FF 7F 30 30 31 39 52  35 80 F0 FF FF 7F F0 FF  ...0019R5.......
0E40: FF 7F 30 30 30 39 45 35  80 F0 FF FF 7F F0 FF FF  ..0009E5........
0E50: 7F 30 30 30 61 01 80 2B  3C 92 06 01 51 80 23 52  .000a..+<...Q.#R
0E60: 35 80 F0 FF FF 7F F0 FF  FF 7F 30 30 30 61 45 35  5.........000aE5
0E70: 80 F0 FF FF 7F F0 FF FF  7F 30 30 30 62 01 80 2B  .........000b..+
0E80: 3A 92 06 01 52 80 23 52  35 80 F0 FF FF 7F F0 FF  :...R.#R5.......
0E90: FF 7F 30 30 30 62 45 35  80 F0 FF FF 7F F0 FF FF  ..000bE5........
0EA0: 7F 30 30 31 37 01 80 2B  3A 92 06 01 53 80 23 81  .0017..+:...S.#.
0EB0: 00 3A 92 06 01 5B 4B 80  3A 92 06 01 3A 92 06 01  .:...[K.:...:...
0EC0: 74 6C 62 30 2B 3A 92 06  01 54 80 23 52 35 80 F0  tlb0+:...T.#R5..
0ED0: FF FF 7F F0 FF FF 7F 30  30 31 37 45 35 80 F0 FF  .......0017E5...
0EE0: FF 7F F0 FF FF 7F 30 30  30 63 01 80 2B 3A 92 06  ......000c..+:..
0EF0: 01 55 80 23 52 35 80 F0  FF FF 7F F0 FF FF 7F 30  .U.#R5.........0
0F00: 30 30 63 45 35 80 F0 FF  FF 7F F0 FF FF 7F 30 30  00cE5.........00
0F10: 30 64 01 80 2B 31 92 06  01 56 80 23 52 35 80 F0  0d..+1...V.#R5..
0F20: FF FF 7F F0 FF FF 7F 30  30 30 64 45 35 80 F0 FF  .......000dE5...
0F30: FF 7F F0 FF FF 7F 30 30  30 65 01 80 2B 3A 92 06  ......000e..+:..
0F40: 01 57 80 23 52 35 80 F0  FF FF 7F F0 FF FF 7F 30  .W.#R5.........0
0F50: 30 30 65 45 35 80 F0 FF  FF 7F F0 FF FF 7F 30 30  00eE5.........00
0F60: 30 66 01 80 45 35 80 F0  FF FF 7F F0 FF FF 7F 61  0f..E5.........a
0F70: 74 30 30 01 80 81 01 3A  92 06 01 5B 58 80 3A 92  t00....:...[X.:.
0F80: 06 01 3A 92 06 01 66 30  30 30 5B 4B 80 3A 92 06  ..:...f000[K.:..
0F90: 01 3A 92 06 01 74 6C 62  31 2B 3C 92 06 01 59 80  .:...tlb1+<...Y.
0FA0: 23 CD 1D 80 F0 FF FF 7F  F0 FF FF 7F 73 30 30 34  #...........s004
0FB0: 01 80 52 35 80 F0 FF FF  7F F0 FF FF 7F 30 30 30  ..R5.........000
0FC0: 66 45 35 80 F0 FF FF 7F  F0 FF FF 7F 30 30 30 67  fE5.........000g
0FD0: 01 80 BA F0 FF FF 7F 5A  80 5B 80 01 80 5C 80 BA  .......Z.[...\..
0FE0: 3A 92 06 01 5D 80 5E 80  01 80 5F 80 1C 22 80 52  :...].^..._..".R
0FF0: 35 80 F0 FF FF 7F F0 FF  FF 7F 30 30 30 67 45 35  5.........000gE5
1000: 80 F0 FF FF 7F F0 FF FF  7F 30 30 30 68 01 80 CD  .........000h...
1010: 1D 80 F0 FF FF 7F F0 FF  FF 7F 6B 69 6C 34 01 80  ..........kil4..
1020: CD 1D 80 F0 FF FF 7F F0  FF FF 7F 73 30 30 35 01  ...........s005.
1030: 80 1C 60 80 2B 3A 92 06  01 61 80 23 52 35 80 F0  ..`.+:...a.#R5..
1040: FF FF 7F F0 FF FF 7F 30  30 30 68 45 35 80 F0 FF  .......000hE5...
1050: FF 7F F0 FF FF 7F 30 30  30 69 01 80 CD 1D 80 F0  ......000i......
1060: FF FF 7F F0 FF FF 7F 6B  69 6C 35 01 80 CD 1D 80  .......kil5.....
1070: F0 FF FF 7F F0 FF FF 7F  73 30 30 33 01 80 1C 60  ........s003...`
1080: 80 52 35 80 F0 FF FF 7F  F0 FF FF 7F 30 30 30 69  .R5.........000i
1090: 45 35 80 F0 FF FF 7F F0  FF FF 7F 30 30 30 6A 01  E5.........000j.
10A0: 80 CD 1D 80 F0 FF FF 7F  F0 FF FF 7F 6B 69 6C 33  ............kil3
10B0: 01 80 5B 62 80 3A 92 06  01 3A 92 06 01 6B 79 6F  ..[b.:...:...kyo
10C0: 30 2B 3A 92 06 01 63 80  1C 21 80 23 52 35 80 F0  0+:...c..!.#R5..
10D0: FF FF 7F F0 FF FF 7F 30  30 30 6A 45 35 80 F0 FF  .......000jE5...
10E0: FF 7F F0 FF FF 7F 30 30  30 6B 01 80 4A F0 FF FF  ......000k..J...
10F0: 7F 3D 92 06 01 4A 3A 92  06 01 3D 92 06 01 BB 64  .=...J:...=....d
1100: 80 3D 92 06 01 3D 92 06  01 6F 75 74 30 01 80 2B  .=...=...out0..+
1110: 3E 92 06 01 65 80 5D 01  80 1F 80 1C 17 80 23 5C  >...e.].......#\
1120: 00 1E 80 5C 01 1E 80 9A  52 35 80 F0 FF FF 7F F0  ...\....R5......
1130: FF FF 7F 30 30 30 6B 45  35 80 F0 FF FF 7F F0 FF  ...000kE5.......
1140: FF 7F 30 30 30 6C 01 80  BA F0 FF FF 7F 66 80 67  ..000l.......f.g
1150: 80 01 80 68 80 BA 3A 92  06 01 69 80 6A 80 01 80  ...h..:...i.j...
1160: 6B 80 7B F0 FF FF 7F 5B  6C 80 3A 92 06 01 3A 92  k.{....[l.:...:.
1170: 06 01 6B 61 6D 30 2B 3A  92 06 01 6D 80 1C 1F 80  ..kam0+:...m....
1180: 27 10 F0 FF FF 7F 2B 1C  1F 80 23 52 35 80 F0 FF  '.....+...#R5...
1190: FF 7F F0 FF FF 7F 30 30  30 6C 45 35 80 F0 FF FF  ......000lE5....
11A0: 7F F0 FF FF 7F 30 30 30  6D 01 80 1C 23 80 BB 64  .....000m...#..d
11B0: 80 3D 92 06 01 3D 92 06  01 69 6E 30 30 01 80 1C  .=...=...in00...
11C0: 1F 80 BA 3D 92 06 01 6E  80 6F 80 70 80 71 80 5B  ...=...n.o.p.q.[
11D0: 72 80 3D 92 06 01 3D 92  06 01 61 74 6B 30 1C 29  r.=...=...atk0.)
11E0: 80 52 35 80 F0 FF FF 7F  F0 FF FF 7F 30 30 30 6D  .R5.........000m
11F0: 45 35 80 F0 FF FF 7F F0  FF FF 7F 30 30 30 6F 01  E5.........000o.
1200: 80 1C 23 80 BB 64 80 3D  92 06 01 3D 92 06 01 6F  ..#..d.=...=...o
1210: 75 74 30 01 80 1C 23 80  52 35 80 F0 FF FF 7F F0  ut0...#.R5......
1220: FF FF 7F 30 30 30 6E 45  35 80 F0 FF FF 7F F0 FF  ...000nE5.......
1230: FF 7F 30 30 30 70 01 80  CD 73 80 3D 92 06 01 3D  ..000p...s.=...=
1240: 92 06 01 73 30 30 30 01  80 1C 60 80 52 35 80 F0  ...s000...`.R5..
1250: FF FF 7F F0 FF FF 7F 30  30 30 70 45 35 80 F0 FF  .......000pE5...
1260: FF 7F F0 FF FF 7F 30 30  31 38 01 80 CD 73 80 3D  ......0018...s.=
1270: 92 06 01 3D 92 06 01 73  30 30 31 01 80 5B 72 80  ...=...s001..[r.
1280: 3D 92 06 01 3D 92 06 01  61 74 6B 31 1C 1F 80 52  =...=...atk1...R
1290: 35 80 F0 FF FF 7F F0 FF  FF 7F 30 30 31 38 45 35  5.........0018E5
12A0: 80 F0 FF FF 7F F0 FF FF  7F 30 30 30 76 01 80 5B  .........000v..[
12B0: 62 80 3A 92 06 01 3A 92  06 01 6B 65 69 30 1C 26  b.:...:...kei0.&
12C0: 80 52 35 80 F0 FF FF 7F  F0 FF FF 7F 30 30 30 76  .R5.........000v
12D0: 45 35 80 F0 FF FF 7F F0  FF FF 7F 30 30 30 77 01  E5.........000w.
12E0: 80 1C 23 80 52 35 80 F0  FF FF 7F F0 FF FF 7F 30  ..#.R5.........0
12F0: 30 30 77 45 35 80 F0 FF  FF 7F F0 FF FF 7F 30 30  00wE5.........00
1300: 30 71 01 80 1C 23 80 52  35 80 F0 FF FF 7F F0 FF  0q...#.R5.......
1310: FF 7F 30 30 30 71 45 35  80 F0 FF FF 7F F0 FF FF  ..000qE5........
1320: 7F 30 30 30 72 01 80 2B  3A 92 06 01 74 80 81 00  .000r..+:...t...
1330: 3A 92 06 01 81 00 3E 92  06 01 5B 75 80 3A 92 06  :.....>...[u.:..
1340: 01 3A 92 06 01 6B 65 69  31 1C 13 80 CD 76 80 3E  .:...kei1....v.>
1350: 92 06 01 3E 92 06 01 73  30 30 30 01 80 1C 77 80  ...>...s000...w.
1360: BA 3E 92 06 01 78 80 79  80 01 80 7A 80 1C 1A 80  .>...x.y...z....
1370: 52 35 80 F0 FF FF 7F F0  FF FF 7F 30 30 30 72 45  R5.........000rE
1380: 35 80 F0 FF FF 7F F0 FF  FF 7F 30 30 31 36 01 80  5.........0016..
1390: BA 3A 92 06 01 01 80 01  80 01 80 01 80 1C 29 80  .:............).
13A0: 92 01 F0 FF FF 7F 1C 36  80 1C 13 80 59 05 F0 FF  .......6....Y...
13B0: FF 7F 01 BA 3A 92 06 01  7B 80 7C 80 01 80 7D 80  ....:...{.|...}.
13C0: BA F0 FF FF 7F 7E 80 7F  80 80 80 81 80 27 10 F0  .....~.......'..
13D0: FF FF 7F 2E 1C 13 80 52  35 80 F0 FF FF 7F F0 FF  .......R5.......
13E0: FF 7F 30 30 30 73 45 35  80 F0 FF FF 7F F0 FF FF  ..000sE5........
13F0: 7F 30 30 30 74 01 80 1C  13 80 27 10 3E 92 06 01  .000t.....'.>...
1400: 0E BA 3E 92 06 01 82 80  83 80 84 80 6B 80 1C 85  ..>.........k...
1410: 80 52 35 80 F0 FF FF 7F  F0 FF FF 7F 30 30 30 74  .R5.........000t
1420: 45 35 80 F0 FF FF 7F F0  FF FF 7F 30 30 30 7A 01  E5.........000z.
1430: 80 5B 72 80 3D 92 06 01  3D 92 06 01 61 74 6B 30  .[r.=...=...atk0
1440: 5B 75 80 3A 92 06 01 3A  92 06 01 6B 65 69 32 1C  [u.:...:...kei2.
1450: 06 80 CD 86 80 3A 92 06  01 3A 92 06 01 73 30 30  .....:...:...s00
1460: 31 01 80 BA F0 FF FF 7F  01 80 01 80 01 80 01 80  1...............
1470: 27 10 F0 FF FF 7F 3E 1C  23 80 52 35 80 F0 FF FF  '.....>.#.R5....
1480: 7F F0 FF FF 7F 30 30 30  7A 45 35 80 F0 FF FF 7F  .....000zE5.....
1490: F0 FF FF 7F 30 30 30 79  01 80 1C 29 80 CD 86 80  ....000y...)....
14A0: 3A 92 06 01 3A 92 06 01  73 30 30 32 01 80 1C 23  :...:...s002...#
14B0: 80 52 35 80 F0 FF FF 7F  F0 FF FF 7F 30 30 30 79  .R5.........000y
14C0: 45 35 80 F0 FF FF 7F F0  FF FF 7F 30 30 31 6E 01  E5.........001n.
14D0: 80 1C 06 80 CD 86 80 3A  92 06 01 3A 92 06 01 73  .......:...:...s
14E0: 30 30 30 01 80 1C 60 80  52 35 80 F0 FF FF 7F F0  000...`.R5......
14F0: FF FF 7F 30 30 31 6E 45  35 80 F0 FF FF 7F F0 FF  ...001nE5.......
1500: FF 7F 30 30 31 30 01 80  BA F0 FF FF 7F 87 80 88  ..0010..........
1510: 80 89 80 8A 80 27 10 F0  FF FF 7F 30 2B 3D 92 06  .....'.....0+=..
1520: 01 8B 80 23 52 35 80 F0  FF FF 7F F0 FF FF 7F 30  ...#R5.........0
1530: 30 31 30 45 35 80 F0 FF  FF 7F F0 FF FF 7F 30 30  010E5.........00
1540: 31 31 01 80 2B 3A 92 06  01 8C 80 1C 29 80 27 10  11..+:......).'.
1550: 3D 92 06 01 0A 27 10 F0  FF FF 7F 39 1C 29 80 27  =....'.....9.).'
1560: 10 F0 FF FF 7F 3E 23 7A  00 F0 FF FF 7F BA F0 FF  .....>#z........
1570: FF 7F 87 80 88 80 8D 80  8A 80 52 35 80 F0 FF FF  ..........R5....
1580: 7F F0 FF FF 7F 30 30 31  31 45 35 80 F0 FF FF 7F  .....0011E5.....
1590: F0 FF FF 7F 30 30 31 32  01 80 2B 3A 92 06 01 8E  ....0012..+:....
15A0: 80 CD 1D 80 3E 92 06 01  3E 92 06 01 73 30 30 33  ....>...>...s003
15B0: 01 80 5D 8F 80 1F 80 1C  22 80 27 10 F0 FF FF 7F  ..].....".'.....
15C0: 30 1C 1F 80 52 35 80 F0  FF FF 7F F0 FF FF 7F 30  0...R5.........0
15D0: 30 31 32 45 35 80 F0 FF  FF 7F F0 FF FF 7F 30 30  012E5.........00
15E0: 31 66 01 80 CD 1D 80 3E  92 06 01 3E 92 06 01 6B  1f.....>...>...k
15F0: 69 6C 33 01 80 CD 1D 80  F0 FF FF 7F F0 FF FF 7F  il3.............
1600: 73 30 30 34 01 80 5D 90  80 1F 80 1C 06 80 CD 86  s004..].........
1610: 80 3A 92 06 01 3A 92 06  01 6B 69 6C 61 01 80 27  .:...:...kila..'
1620: 10 F0 FF FF 7F 3A 92 01  F0 FF FF 7F 1C 91 80 CD  .....:..........
1630: 92 80 F0 FF FF 7F F0 FF  FF 7F 73 30 30 30 01 80  ..........s000..
1640: 92 01 F0 FF FF 7F 1C 26  80 27 10 F0 FF FF 7F 43  .......&.'.....C
1650: 1C 1F 80 52 35 80 F0 FF  FF 7F F0 FF FF 7F 30 30  ...R5.........00
1660: 31 66 45 35 80 F0 FF FF  7F F0 FF FF 7F 30 30 31  1fE5.........001
1670: 67 01 80 5D 85 80 1F 80  1C 3E 80 5D 01 80 1F 80  g..].....>.]....
1680: 1A 93 2E 7A 00 F0 FF FF  7F CD 1D 80 F0 FF FF 7F  ...z............
1690: F0 FF FF 7F 6B 69 6C 34  01 80 CD 92 80 F0 FF FF  ....kil4........
16A0: 7F F0 FF FF 7F 6B 69 6C  6C 01 80 59 05 F0 FF FF  .....kill..Y....
16B0: 7F 00 59 05 3D 92 06 01  00 27 10 F0 FF FF 7F 39  ..Y.=....'.....9
16C0: 1C 23 80 81 01 3A 92 06  01 81 01 3D 92 06 01 81  .#...:.....=....
16D0: 01 3E 92 06 01 6B 69 64  6C 30 F0 FF FF 7F 6B 69  .>...kidl0....ki
16E0: 64 6C 30 3A 92 06 01 6B  69 64 6C 30 3D 92 06 01  dl0:...kidl0=...
16F0: 6B 69 64 6C 30 3E 92 06  01 92 00 F0 FF FF 7F 1C  kidl0>..........
1700: 60 80 BA F0 FF FF 7F 93  80 94 80 95 80 96 80 BA  `...............
1710: 3C 92 06 01 97 80 98 80  01 80 99 80 BA 3E 92 06  <............>..
1720: 01 9A 80 9B 80 9C 80 9D  80 1C 9E 80 CD 9F 80 3C  ...............<
1730: 92 06 01 3C 92 06 01 73  30 30 30 01 80 27 10 F0  ...<...s000..'..
1740: FF FF 7F 0B 1C 1F 80 52  35 80 F0 FF FF 7F F0 FF  .......R5.......
1750: FF 7F 30 30 31 32 45 35  80 F0 FF FF 7F F0 FF FF  ..0012E5........
1760: 7F 62 6C 6F 66 01 80 45  35 80 F0 FF FF 7F F0 FF  .blof..E5.......
1770: FF 7F 30 30 31 34 01 80  9F A0 80 F8 FF FF 7F F8  ..0014..........
1780: FF FF 7F 62 6C 30 30 01  80 1C 1F 80 1A 72 2E 1C  ...bl00......r..
1790: 17 80 9F A0 80 F8 FF FF  7F F8 FF FF 7F 6F 70 65  .............ope
17A0: 6E 01 80 1C 60 80 9F A0  80 F8 FF FF 7F F8 FF FF  n...`...........
17B0: 7F 63 6C 6F 73 01 80 1C  60 80 9F A0 80 F8 FF FF  .clos...`.......
17C0: 7F F8 FF FF 7F 6F 70 65  6E 01 80 1C 60 80 9F A0  .....open...`...
17D0: 80 F8 FF FF 7F F8 FF FF  7F 63 6C 6F 73 01 80 1C  .........clos...
17E0: 17 80 1A 93 2E 9F A0 80  F8 FF FF 7F F8 FF FF 7F  ................
17F0: 6B 69 6C 6C 01 80 27 10  F0 FF FF 7F 3A 1C 17 80  kill..'.....:...
1800: 52 35 80 F0 FF FF 7F F0  FF FF 7F 30 30 31 34 45  R5.........0014E
1810: 35 80 F0 FF FF 7F F0 FF  FF 7F 30 30 31 35 01 80  5.........0015..
1820: 79 00 F0 FF FF 7F 3C 92  06 01 1A 72 2E 1C 23 80  y.....<....r..#.
1830: 27 10 F0 FF FF 7F 0C 1C  91 80 27 10 F0 FF FF 7F  '.........'.....
1840: 35 1C 17 80 52 35 80 F0  FF FF 7F F0 FF FF 7F 30  5...R5.........0
1850: 30 31 35 45 35 80 F0 FF  FF 7F F0 FF FF 7F 30 30  015E5.........00
1860: 31 68 01 80 7A 00 F0 FF  FF 7F 5C 00 A1 80 5C 01  1h..z.....\...\.
1870: A1 80 9A 1C 1F 80 1C 17  80 52 35 80 F0 FF FF 7F  .........R5.....
1880: F0 FF FF 7F 30 30 31 68  45 35 80 F0 FF FF 7F F0  ....001hE5......
1890: FF FF 7F 30 30 31 69 01  80 7B F0 FF FF 7F 02 02  ...001i..{......
18A0: 10 06 80 80 BD 18 BA F0  FF FF 7F A2 80 A3 80 01  ................
18B0: 80 A4 80 27 10 F0 FF FF  7F 0B 01 96 19 02 02 10  ...'............
18C0: 0B 80 80 DC 18 BA F0 FF  FF 7F A2 80 A3 80 01 80  ................
18D0: A4 80 27 10 F0 FF FF 7F  0B 01 96 19 02 02 10 18  ..'.............
18E0: 80 80 FB 18 BA F0 FF FF  7F A5 80 A6 80 01 80 A7  ................
18F0: 80 27 10 F0 FF FF 7F 0B  01 96 19 02 02 10 19 80  .'..............
1900: 80 1A 19 BA F0 FF FF 7F  A5 80 A6 80 01 80 A7 80  ................
1910: 27 10 F0 FF FF 7F 0B 01  96 19 02 02 10 1A 80 80  '...............
1920: 39 19 BA F0 FF FF 7F A2  80 A3 80 01 80 A4 80 27  9..............'
1930: 10 F0 FF FF 7F 45 01 96  19 02 02 10 1B 80 80 58  .....E.........X
1940: 19 BA F0 FF FF 7F A2 80  A3 80 01 80 A4 80 27 10  ..............'.
1950: F0 FF FF 7F 45 01 96 19  02 02 10 1C 80 80 77 19  ....E.........w.
1960: BA F0 FF FF 7F A2 80 A3  80 01 80 A4 80 27 10 F0  .............'..
1970: FF FF 7F 0B 01 96 19 02  02 10 1D 80 80 96 19 BA  ................
1980: F0 FF FF 7F A8 80 A9 80  01 80 A7 80 27 10 F0 FF  ............'...
1990: FF 7F 0B 01 96 19 1C 22  80 CD 9F 80 3C 92 06 01  ......."....<...
19A0: 3C 92 06 01 73 30 30 31  01 80 1C 17 80 52 35 80  <...s001.....R5.
19B0: F0 FF FF 7F F0 FF FF 7F  30 30 31 69 45 35 80 F0  ........001iE5..
19C0: FF FF 7F F0 FF FF 7F 30  30 31 6A 01 80 79 00 F0  .......001j..y..
19D0: FF FF 7F 3E 92 06 01 1C  17 80 02 02 10 06 80 80  ...>............
19E0: EC 19 27 10 F0 FF FF 7F  0C 01 46 1A 02 02 10 0B  ..'.......F.....
19F0: 80 80 FE 19 27 10 F0 FF  FF 7F 0C 01 46 1A 02 02  ....'.......F...
1A00: 10 18 80 80 10 1A 27 10  F0 FF FF 7F 0C 01 46 1A  ......'.......F.
1A10: 02 02 10 19 80 80 22 1A  27 10 F0 FF FF 7F 0C 01  ......".'.......
1A20: 46 1A 02 02 10 1C 80 80  34 1A 27 10 F0 FF FF 7F  F.......4.'.....
1A30: 0C 01 46 1A 02 02 10 1D  80 80 46 1A 27 10 F0 FF  ..F.......F.'...
1A40: FF 7F 0C 01 46 1A 1C 17  80 52 35 80 F0 FF FF 7F  ....F....R5.....
1A50: F0 FF FF 7F 30 30 31 6A  45 35 80 F0 FF FF 7F F0  ....001jE5......
1A60: FF FF 7F 30 30 31 6C 01  80 CD 9F 80 3C 92 06 01  ...001l.....<...
1A70: 3C 92 06 01 74 6D 30 31  01 80 1C AA 80 52 35 80  <...tm01.....R5.
1A80: F0 FF FF 7F F0 FF FF 7F  30 30 31 6C 45 35 80 F0  ........001lE5..
1A90: FF FF 7F F0 FF FF 7F 30  30 31 6D 01 80 BA F0 FF  .......001m.....
1AA0: FF 7F 97 80 98 80 01 80  AB 80 1C 9E 80 52 35 80  .............R5.
1AB0: F0 FF FF 7F F0 FF FF 7F  30 30 31 6A 45 35 80 F0  ........001jE5..
1AC0: FF FF 7F F0 FF FF 7F 30  30 31 6B 01 80 1C 17 80  .......001k.....
1AD0: 45 35 80 F0 FF FF 7F F0  FF FF 7F 61 74 30 30 01  E5.........at00.
1AE0: 80 2B 3C 92 06 01 AC 80  1C 17 80 BA 3E 92 06 01  .+<.........>...
1AF0: AD 80 AE 80 AF 80 B0 80  1C 06 80 4A F0 FF FF 7F  ...........J....
1B00: 3E 92 06 01 1C 60 80 23  27 10 F0 FF FF 7F 44 1C  >....`.#'.....D.
1B10: 17 80 52 35 80 F0 FF FF  7F F0 FF FF 7F 30 30 31  ..R5.........001
1B20: 6B 45 35 80 F0 FF FF 7F  F0 FF FF 7F 30 30 31 6F  kE5.........001o
1B30: 01 80 2B 3C 92 06 01 B1  80 23 2B 3C 92 06 01 B2  ..+<.....#+<....
1B40: 80 23 52 35 80 F0 FF FF  7F F0 FF FF 7F 30 30 31  .#R5.........001
1B50: 6F 45 35 80 F0 FF FF 7F  F0 FF FF 7F 30 30 31 70  oE5.........001p
1B60: 01 80 92 01 F0 FF FF 7F  2B 3C 92 06 01 B3 80 23  ........+<.....#
1B70: 2A 10 F0 FF FF 7F 52 35  80 F0 FF FF 7F F0 FF FF  *.....R5........
1B80: 7F 30 30 31 70 29 10 F0  FF FF 7F 46 02 02 10 06  .001p).....F....
1B90: 80 80 A8 1B 45 35 80 F0  FF FF 7F F0 FF FF 7F 30  ....E5.........0
1BA0: 30 31 71 01 80 01 6C 1C  02 02 10 0B 80 80 C4 1B  01q...l.........
1BB0: 45 35 80 F0 FF FF 7F F0  FF FF 7F 30 30 31 71 01  E5.........001q.
1BC0: 80 01 6C 1C 02 02 10 18  80 80 E0 1B 45 35 80 F0  ..l.........E5..
1BD0: FF FF 7F F0 FF FF 7F 30  68 69 30 01 80 01 6C 1C  .......0hi0...l.
1BE0: 02 02 10 19 80 80 FC 1B  45 35 80 F0 FF FF 7F F0  ........E5......
1BF0: FF FF 7F 30 68 69 30 01  80 01 6C 1C 02 02 10 1A  ...0hi0...l.....
1C00: 80 80 18 1C 45 35 80 F0  FF FF 7F F0 FF FF 7F 30  ....E5.........0
1C10: 73 68 30 01 80 01 6C 1C  02 02 10 1B 80 80 34 1C  sh0...l.......4.
1C20: 45 35 80 F0 FF FF 7F F0  FF FF 7F 30 73 68 30 01  E5.........0sh0.
1C30: 80 01 6C 1C 02 02 10 1C  80 80 50 1C 45 35 80 F0  ..l.......P.E5..
1C40: FF FF 7F F0 FF FF 7F 30  30 31 71 01 80 01 6C 1C  .......001q...l.
1C50: 02 02 10 1D 80 80 6C 1C  45 35 80 F0 FF FF 7F F0  ......l.E5......
1C60: FF FF 7F 30 68 69 30 01  80 01 6C 1C 2B 3C 92 06  ...0hi0...l.+<..
1C70: 01 B4 80 23 CD B5 80 F0  FF FF 7F F0 FF FF 7F 73  ...#...........s
1C80: 30 30 30 01 80 7B F0 FF  FF 7F 27 10 F0 FF FF 7F  000..{....'.....
1C90: 2A 1C 21 80 52 35 80 F0  FF FF 7F F0 FF FF 7F 30  *.!.R5.........0
1CA0: 30 31 71 52 35 80 F0 FF  FF 7F F0 FF FF 7F 30 68  01qR5.........0h
1CB0: 69 30 52 35 80 F0 FF FF  7F F0 FF FF 7F 30 73 68  i0R5.........0sh
1CC0: 30 45 35 80 F0 FF FF 7F  F0 FF FF 7F 30 30 31 72  0E5.........001r
1CD0: 01 80 1C B6 80 52 35 80  F0 FF FF 7F F0 FF FF 7F  .....R5.........
1CE0: 30 30 31 72 45 35 80 F0  FF FF 7F F0 FF FF 7F 30  001rE5.........0
1CF0: 30 31 61 01 80 2B 3C 92  06 01 B7 80 23 2B 3C 92  01a..+<.....#+<.
1D00: 06 01 B8 80 23 52 35 80  F0 FF FF 7F F0 FF FF 7F  ....#R5.........
1D10: 30 30 31 61 45 35 80 F0  FF FF 7F F0 FF FF 7F 30  001aE5.........0
1D20: 30 31 62 01 80 2B 3C 92  06 01 B9 80 23 52 35 80  01b..+<.....#R5.
1D30: F0 FF FF 7F F0 FF FF 7F  30 30 31 62 45 35 80 F0  ........001bE5..
1D40: FF FF 7F F0 FF FF 7F 30  30 31 64 01 80 45 35 80  .......001d..E5.
1D50: F0 FF FF 7F F0 FF FF 7F  61 74 30 30 01 80 5D 01  ........at00..].
1D60: 80 BA 80 2B 3C 92 06 01  BB 80 23 1A 93 2E 59 05  ...+<.....#...Y.
1D70: F0 FF FF 7F 00 59 05 3D  92 06 01 00 59 05 3E 92  .....Y.=....Y.>.
1D80: 06 01 00 59 05 3C 92 06  01 00 27 10 F0 FF FF 7F  ...Y.<....'.....
1D90: 3A 27 10 3E 92 06 01 0F  27 10 3E 92 06 01 0D BB  :'.>....'.>.....
1DA0: 20 80 F0 FF FF 7F F0 FF  FF 7F 6B 69 6C 61 01 80   .........kila..
1DB0: 1C 23 80 81 01 3A 92 06  01 81 01 3D 92 06 01 81  .#...:.....=....
1DC0: 01 3E 92 06 01 6B 69 64  6C 30 F0 FF FF 7F 6B 69  .>...kidl0....ki
1DD0: 64 6C 30 3A 92 06 01 6B  69 64 6C 30 3D 92 06 01  dl0:...kidl0=...
1DE0: 6B 69 64 6C 30 3E 92 06  01 27 10 3E 92 06 01 0D  kidl0>...'.>....
1DF0: 1C 23 80 AB 11 01 80 1C  23 80 52 35 80 F0 FF FF  .#......#.R5....
1E00: 7F F0 FF FF 7F 30 30 31  64 45 35 80 F0 FF FF 7F  .....001dE5.....
1E10: F0 FF FF 7F 62 6C 6F 66  01 80 1C 29 80 02 00 00  ....blof...)....
1E20: 01 80 80 2B 1E 35 BC 80  01 47 1E 02 00 00 06 80  ...+.5...G......
1E30: 80 39 1E 35 BD 80 01 47  1E 02 00 00 0B 80 80 47  .9.5...G.......G
1E40: 1E 35 17 80 01 47 1E 78  1C 06 80 AB 0A 4E 00 16  .5...G.x.....N..
1E50: 92 06 01 02 01 00 01 80  00 5F 1E 30 01 AC 1E 02  ........._.0....
1E60: 00 00 01 80 80 72 1E 5C  00 10 80 5C 01 10 80 01  .....r.\...\....
1E70: 98 1E 02 00 00 06 80 80  85 1E 5C 00 11 80 5C 01  ..........\...\.
1E80: 11 80 01 98 1E 02 00 00  0B 80 80 98 1E 5C 00 12  .............\..
1E90: 80 5C 01 12 80 01 98 1E  9A 46 00 45 BE 80 F0 FF  .\.......F.E....
1EA0: FF 7F F0 FF FF 7F 66 64  69 32 01 80 21 00        ......fdi2..!.  
```

#### Opcodes

```
  0: 0x0001 [0x42] SET_CLI_EVENT_CANCEL_DATA()
  1: 0x0002 [0x1A] CALL_SUBROUTINE(address=0x2E93)
  2: 0x0005 [0x03] ExtData[1]->WorkLocal[0] = Work_Zone[2]
  3: 0x000A [0x03] ExtData[1]->WorkLocal[1] = Work_Zone[9]
  4: 0x000F [0x46] CAMERA_CONTROL: Disable user control
  5: 0x0011 [0x29] REQ_SET_WAIT(priority=0x10, entity_id=LocalPlayer, tag_num=0x46)
  6: 0x0018 [0x03] ExtData[1]->WorkLocal[2] = Work_Zone[2]
  7: 0x001D [0x38] SET_CLIENT_EVENT_MODE(mode=19*)
  8: 0x0020 [0x4E] SET_ENTITY_HIDE_FLAG: Hide Unknown NPC (ID: 17207830/0x01069216)
  9: 0x0026 [0x92] LocalPlayer->Render.Flags3 ^= 0x01
 10: 0x002C [0x92] Cavernous Maw (ID: 17207857/0x01069231)->Render.Flags3 ^= 0x01
 11: 0x0032 [0x94] LocalPlayer->Render.Flags3 ^= 0x01
 12: 0x0038 [0x94] Cavernous Maw (ID: 17207857/0x01069231)->Render.Flags3 ^= 0x01
 13: 0x003E [0x02] IF !(ExtData[1]->WorkLocal[0] == 0*) GOTO 0x0056
 14: 0x0046 [0xBA] SET_ENTITY_POSITION(entity_id=LocalPlayer, pos_x=-52.807*, pos_z=436.830*, pos_y=0.476*, direction=357.2*)
 15: 0x0053 [0x01] GOTO 0x0086
 16: 0x0056 [0x02] IF !(ExtData[1]->WorkLocal[0] == 1*) GOTO 0x006E
 17: 0x005E [0xBA] SET_ENTITY_POSITION(entity_id=LocalPlayer, pos_x=-197.695*, pos_z=362.419*, pos_y=7.999*, direction=135.9*)
 18: 0x006B [0x01] GOTO 0x0086
 19: 0x006E [0x02] IF !(ExtData[1]->WorkLocal[0] == 2*) GOTO 0x0086
 20: 0x0076 [0xBA] SET_ENTITY_POSITION(entity_id=LocalPlayer, pos_x=368.612*, pos_z=-227.501*, pos_y=8.825*, direction=315.7*)
 21: 0x0083 [0x01] GOTO 0x0086

SUBROUTINE_0086:
 22: 0x0086 [0x80] LOAD_WAIT(entity=LocalPlayer)
 23: 0x008B [0x80] LOAD_WAIT(entity=Cavernous Maw (ID: 17207857/0x01069231))
 24: 0x0090 [0x4A] LocalPlayer looks at Cavernous Maw (ID: 17207857/0x01069231)
 25: 0x0099 [0x02] IF !(ExtData[1]->WorkLocal[0] == 0*) GOTO 0x00AC
 26: 0x00A1 [0x5C] MUSIC_CONTROL: Set Idle (Day) music to song 114*
 27: 0x00A5 [0x5C] MUSIC_CONTROL: Set Idle (Night) music to song 114*
 28: 0x00A9 [0x01] GOTO 0x00D2
 29: 0x00AC [0x02] IF !(ExtData[1]->WorkLocal[0] == 1*) GOTO 0x00BF
 30: 0x00B4 [0x5C] MUSIC_CONTROL: Set Idle (Day) music to song 118*
 31: 0x00B8 [0x5C] MUSIC_CONTROL: Set Idle (Night) music to song 118*
 32: 0x00BC [0x01] GOTO 0x00D2
 33: 0x00BF [0x02] IF !(ExtData[1]->WorkLocal[0] == 2*) GOTO 0x00D2
 34: 0x00C7 [0x5C] MUSIC_CONTROL: Set Idle (Day) music to song 158*
 35: 0x00CB [0x5C] MUSIC_CONTROL: Set Idle (Night) music to song 158*
 36: 0x00CF [0x01] GOTO 0x00D2

SUBROUTINE_00D2:
 37: 0x00D2 [0x9A] WAIT_MUSIC_SERVER()
 38: 0x00D3 [0x1C] WAIT(15* ticks)
 39: 0x00D6 [0x02] IF !(ExtData[1]->WorkLocal[0] == 0*) GOTO 0x00F2
 40: 0x00DE [0x45] LOAD_SCHEDULED_TASK: Load scheduler "no11" with entities [LocalPlayer, LocalPlayer], work=[378*, 0*]
 41: 0x00EF [0x01] GOTO 0x012A
 42: 0x00F2 [0x02] IF !(ExtData[1]->WorkLocal[0] == 1*) GOTO 0x010E
 43: 0x00FA [0x45] LOAD_SCHEDULED_TASK: Load scheduler "ro11" with entities [LocalPlayer, LocalPlayer], work=[378*, 0*]
 44: 0x010B [0x01] GOTO 0x012A
 45: 0x010E [0x02] IF !(ExtData[1]->WorkLocal[0] == 2*) GOTO 0x012A
 46: 0x0116 [0x45] LOAD_SCHEDULED_TASK: Load scheduler "al11" with entities [LocalPlayer, LocalPlayer], work=[378*, 0*]
 47: 0x0127 [0x01] GOTO 0x012A

SUBROUTINE_012A:
 48: 0x012A [0x1A] CALL_SUBROUTINE(address=0x2E72)
 49: 0x012D [0x02] IF !(ExtData[1]->WorkLocal[0] == 0*) GOTO 0x013B
 50: 0x0135 [0x48] [System] [7872*]:
     "The vines covering the cavernous maw shudder violently."
 51: 0x0138 [0x01] GOTO 0x0157
 52: 0x013B [0x02] IF !(ExtData[1]->WorkLocal[0] == 1*) GOTO 0x0149
 53: 0x0143 [0x48] [System] [7872*]:
     "The vines covering the cavernous maw shudder violently."
 54: 0x0146 [0x01] GOTO 0x0157
 55: 0x0149 [0x02] IF !(ExtData[1]->WorkLocal[0] == 2*) GOTO 0x0157
 56: 0x0151 [0x48] [System] [7873*]:
     "The mottled surface of the cavernous maw shudders violently."
 57: 0x0154 [0x01] GOTO 0x0157

SUBROUTINE_0157:
 58: 0x0157 [0x5D] SET_MUSIC_VOLUME(volume=0*, fade_time=120*)
 59: 0x015C [0x1C] WAIT(120* ticks)
 60: 0x015F [0x02] IF !(ExtData[1]->WorkLocal[0] == 0*) GOTO 0x0259
 61: 0x0167 [0x52] END_LOAD_SCHEDULER: End scheduler "no11" with entities [LocalPlayer, LocalPlayer], work=378*
 62: 0x0176 [0x02] IF !(ExtData[1]->WorkLocal[2] == 1*) GOTO 0x0192
 63: 0x017E [0x45] LOAD_SCHEDULED_TASK: Load scheduler "nhm1" with entities [LocalPlayer, LocalPlayer], work=[378*, 0*]
 64: 0x018F [0x01] GOTO 0x0256
 65: 0x0192 [0x02] IF !(ExtData[1]->WorkLocal[2] == 2*) GOTO 0x01AE
 66: 0x019A [0x45] LOAD_SCHEDULED_TASK: Load scheduler "nhf1" with entities [LocalPlayer, LocalPlayer], work=[378*, 0*]
 67: 0x01AB [0x01] GOTO 0x0256
 68: 0x01AE [0x02] IF !(ExtData[1]->WorkLocal[2] == 3*) GOTO 0x01CA
 69: 0x01B6 [0x45] LOAD_SCHEDULED_TASK: Load scheduler "nem1" with entities [LocalPlayer, LocalPlayer], work=[378*, 0*]
 70: 0x01C7 [0x01] GOTO 0x0256
 71: 0x01CA [0x02] IF !(ExtData[1]->WorkLocal[2] == 4*) GOTO 0x01E6
 72: 0x01D2 [0x45] LOAD_SCHEDULED_TASK: Load scheduler "nef1" with entities [LocalPlayer, LocalPlayer], work=[378*, 0*]
 73: 0x01E3 [0x01] GOTO 0x0256
 74: 0x01E6 [0x02] IF !(ExtData[1]->WorkLocal[2] == 5*) GOTO 0x0202
 75: 0x01EE [0x45] LOAD_SCHEDULED_TASK: Load scheduler "ntr1" with entities [LocalPlayer, LocalPlayer], work=[378*, 0*]
 76: 0x01FF [0x01] GOTO 0x0256
 77: 0x0202 [0x02] IF !(ExtData[1]->WorkLocal[2] == 6*) GOTO 0x021E
 78: 0x020A [0x45] LOAD_SCHEDULED_TASK: Load scheduler "ntr1" with entities [LocalPlayer, LocalPlayer], work=[378*, 0*]
 79: 0x021B [0x01] GOTO 0x0256
 80: 0x021E [0x02] IF !(ExtData[1]->WorkLocal[2] == 7*) GOTO 0x023A
 81: 0x0226 [0x45] LOAD_SCHEDULED_TASK: Load scheduler "nmt1" with entities [LocalPlayer, LocalPlayer], work=[378*, 0*]
 82: 0x0237 [0x01] GOTO 0x0256
 83: 0x023A [0x02] IF !(ExtData[1]->WorkLocal[2] == 8*) GOTO 0x0256
 84: 0x0242 [0x45] LOAD_SCHEDULED_TASK: Load scheduler "ngl1" with entities [LocalPlayer, LocalPlayer], work=[378*, 0*]
 85: 0x0253 [0x01] GOTO 0x0256

SUBROUTINE_0256:
 86: 0x0256 [0x01] GOTO 0x044D
 87: 0x0259 [0x02] IF !(ExtData[1]->WorkLocal[0] == 1*) GOTO 0x0353
 88: 0x0261 [0x52] END_LOAD_SCHEDULER: End scheduler "ro11" with entities [LocalPlayer, LocalPlayer], work=378*
 89: 0x0270 [0x02] IF !(ExtData[1]->WorkLocal[2] == 1*) GOTO 0x028C
 90: 0x0278 [0x45] LOAD_SCHEDULED_TASK: Load scheduler "rhm1" with entities [LocalPlayer, LocalPlayer], work=[378*, 0*]
 91: 0x0289 [0x01] GOTO 0x0350
 92: 0x028C [0x02] IF !(ExtData[1]->WorkLocal[2] == 2*) GOTO 0x02A8
 93: 0x0294 [0x45] LOAD_SCHEDULED_TASK: Load scheduler "rhf1" with entities [LocalPlayer, LocalPlayer], work=[378*, 0*]
 94: 0x02A5 [0x01] GOTO 0x0350
 95: 0x02A8 [0x02] IF !(ExtData[1]->WorkLocal[2] == 3*) GOTO 0x02C4
 96: 0x02B0 [0x45] LOAD_SCHEDULED_TASK: Load scheduler "rem1" with entities [LocalPlayer, LocalPlayer], work=[378*, 0*]
 97: 0x02C1 [0x01] GOTO 0x0350
 98: 0x02C4 [0x02] IF !(ExtData[1]->WorkLocal[2] == 4*) GOTO 0x02E0
 99: 0x02CC [0x45] LOAD_SCHEDULED_TASK: Load scheduler "ref1" with entities [LocalPlayer, LocalPlayer], work=[378*, 0*]
100: 0x02DD [0x01] GOTO 0x0350
101: 0x02E0 [0x02] IF !(ExtData[1]->WorkLocal[2] == 5*) GOTO 0x02FC
102: 0x02E8 [0x45] LOAD_SCHEDULED_TASK: Load scheduler "rtr1" with entities [LocalPlayer, LocalPlayer], work=[378*, 0*]
103: 0x02F9 [0x01] GOTO 0x0350
104: 0x02FC [0x02] IF !(ExtData[1]->WorkLocal[2] == 6*) GOTO 0x0318
105: 0x0304 [0x45] LOAD_SCHEDULED_TASK: Load scheduler "rtr1" with entities [LocalPlayer, LocalPlayer], work=[378*, 0*]
106: 0x0315 [0x01] GOTO 0x0350
107: 0x0318 [0x02] IF !(ExtData[1]->WorkLocal[2] == 7*) GOTO 0x0334
108: 0x0320 [0x45] LOAD_SCHEDULED_TASK: Load scheduler "rmt1" with entities [LocalPlayer, LocalPlayer], work=[378*, 0*]
109: 0x0331 [0x01] GOTO 0x0350
110: 0x0334 [0x02] IF !(ExtData[1]->WorkLocal[2] == 8*) GOTO 0x0350
111: 0x033C [0x45] LOAD_SCHEDULED_TASK: Load scheduler "rgl1" with entities [LocalPlayer, LocalPlayer], work=[378*, 0*]
112: 0x034D [0x01] GOTO 0x0350

SUBROUTINE_0350:
113: 0x0350 [0x01] GOTO 0x044D
114: 0x0353 [0x02] IF !(ExtData[1]->WorkLocal[0] == 2*) GOTO 0x044D
115: 0x035B [0x52] END_LOAD_SCHEDULER: End scheduler "al11" with entities [LocalPlayer, LocalPlayer], work=378*
116: 0x036A [0x02] IF !(ExtData[1]->WorkLocal[2] == 1*) GOTO 0x0386
117: 0x0372 [0x45] LOAD_SCHEDULED_TASK: Load scheduler "ahm1" with entities [LocalPlayer, LocalPlayer], work=[378*, 0*]
118: 0x0383 [0x01] GOTO 0x044A
119: 0x0386 [0x02] IF !(ExtData[1]->WorkLocal[2] == 2*) GOTO 0x03A2
120: 0x038E [0x45] LOAD_SCHEDULED_TASK: Load scheduler "ahf1" with entities [LocalPlayer, LocalPlayer], work=[378*, 0*]
121: 0x039F [0x01] GOTO 0x044A
122: 0x03A2 [0x02] IF !(ExtData[1]->WorkLocal[2] == 3*) GOTO 0x03BE
123: 0x03AA [0x45] LOAD_SCHEDULED_TASK: Load scheduler "aem1" with entities [LocalPlayer, LocalPlayer], work=[378*, 0*]
124: 0x03BB [0x01] GOTO 0x044A
125: 0x03BE [0x02] IF !(ExtData[1]->WorkLocal[2] == 4*) GOTO 0x03DA
126: 0x03C6 [0x45] LOAD_SCHEDULED_TASK: Load scheduler "aef1" with entities [LocalPlayer, LocalPlayer], work=[378*, 0*]
127: 0x03D7 [0x01] GOTO 0x044A
128: 0x03DA [0x02] IF !(ExtData[1]->WorkLocal[2] == 5*) GOTO 0x03F6
129: 0x03E2 [0x45] LOAD_SCHEDULED_TASK: Load scheduler "atr1" with entities [LocalPlayer, LocalPlayer], work=[378*, 0*]
130: 0x03F3 [0x01] GOTO 0x044A
131: 0x03F6 [0x02] IF !(ExtData[1]->WorkLocal[2] == 6*) GOTO 0x0412
132: 0x03FE [0x45] LOAD_SCHEDULED_TASK: Load scheduler "atr1" with entities [LocalPlayer, LocalPlayer], work=[378*, 0*]
133: 0x040F [0x01] GOTO 0x044A
134: 0x0412 [0x02] IF !(ExtData[1]->WorkLocal[2] == 7*) GOTO 0x042E
135: 0x041A [0x45] LOAD_SCHEDULED_TASK: Load scheduler "amt1" with entities [LocalPlayer, LocalPlayer], work=[378*, 0*]
136: 0x042B [0x01] GOTO 0x044A
137: 0x042E [0x02] IF !(ExtData[1]->WorkLocal[2] == 8*) GOTO 0x044A
138: 0x0436 [0x45] LOAD_SCHEDULED_TASK: Load scheduler "agl1" with entities [LocalPlayer, LocalPlayer], work=[378*, 0*]
139: 0x0447 [0x01] GOTO 0x044A

SUBROUTINE_044A:
140: 0x044A [0x01] GOTO 0x044D

SUBROUTINE_044D:
141: 0x044D [0x5C] MUSIC_CONTROL: Set Idle (Day) music to song 250*
142: 0x0451 [0x5C] MUSIC_CONTROL: Set Idle (Night) music to song 250*
143: 0x0455 [0x9A] WAIT_MUSIC_SERVER()
144: 0x0456 [0x1C] WAIT(60* ticks)
145: 0x0459 [0xBB] LOAD_EVENT_SCHEDULER_ALT: Load scheduler "st01" with entities [LocalPlayer, Cavernous Maw (ID: 17207857/0x01069231)], work=[151*, 0*]
146: 0x046A [0x27] REQ_SET(priority=0x10, entity_id=LocalPlayer, tag_num=0x2A)
147: 0x0471 [0x45] LOAD_SCHEDULED_TASK: Load scheduler "kira" with entities [LocalPlayer, LocalPlayer], work=[378*, 0*]
148: 0x0482 [0x1C] WAIT(240* ticks)
149: 0x0485 [0x02] IF !(ExtData[1]->WorkLocal[0] == 0*) GOTO 0x0571
150: 0x048D [0x02] IF !(ExtData[1]->WorkLocal[2] == 1*) GOTO 0x04A7
151: 0x0495 [0x52] END_LOAD_SCHEDULER: End scheduler "nhm1" with entities [LocalPlayer, LocalPlayer], work=378*
152: 0x04A4 [0x01] GOTO 0x055D
153: 0x04A7 [0x02] IF !(ExtData[1]->WorkLocal[2] == 2*) GOTO 0x04C1
154: 0x04AF [0x52] END_LOAD_SCHEDULER: End scheduler "nhf1" with entities [LocalPlayer, LocalPlayer], work=378*
155: 0x04BE [0x01] GOTO 0x055D
156: 0x04C1 [0x02] IF !(ExtData[1]->WorkLocal[2] == 3*) GOTO 0x04DB
157: 0x04C9 [0x52] END_LOAD_SCHEDULER: End scheduler "nem1" with entities [LocalPlayer, LocalPlayer], work=378*
158: 0x04D8 [0x01] GOTO 0x055D
159: 0x04DB [0x02] IF !(ExtData[1]->WorkLocal[2] == 4*) GOTO 0x04F5
160: 0x04E3 [0x52] END_LOAD_SCHEDULER: End scheduler "nef1" with entities [LocalPlayer, LocalPlayer], work=378*
161: 0x04F2 [0x01] GOTO 0x055D
162: 0x04F5 [0x02] IF !(ExtData[1]->WorkLocal[2] == 5*) GOTO 0x050F
163: 0x04FD [0x52] END_LOAD_SCHEDULER: End scheduler "ntr1" with entities [LocalPlayer, LocalPlayer], work=378*
164: 0x050C [0x01] GOTO 0x055D
165: 0x050F [0x02] IF !(ExtData[1]->WorkLocal[2] == 6*) GOTO 0x0529
166: 0x0517 [0x52] END_LOAD_SCHEDULER: End scheduler "ntr1" with entities [LocalPlayer, LocalPlayer], work=378*
167: 0x0526 [0x01] GOTO 0x055D
168: 0x0529 [0x02] IF !(ExtData[1]->WorkLocal[2] == 7*) GOTO 0x0543
169: 0x0531 [0x52] END_LOAD_SCHEDULER: End scheduler "nmt1" with entities [LocalPlayer, LocalPlayer], work=378*
170: 0x0540 [0x01] GOTO 0x055D
171: 0x0543 [0x02] IF !(ExtData[1]->WorkLocal[2] == 8*) GOTO 0x055D
172: 0x054B [0x52] END_LOAD_SCHEDULER: End scheduler "ngl1" with entities [LocalPlayer, LocalPlayer], work=378*
173: 0x055A [0x01] GOTO 0x055D

SUBROUTINE_055D:
174: 0x055D [0x45] LOAD_SCHEDULED_TASK: Load scheduler "no12" with entities [LocalPlayer, LocalPlayer], work=[378*, 0*]
175: 0x056E [0x01] GOTO 0x0749
176: 0x0571 [0x02] IF !(ExtData[1]->WorkLocal[0] == 1*) GOTO 0x065D
177: 0x0579 [0x02] IF !(ExtData[1]->WorkLocal[2] == 1*) GOTO 0x0593
178: 0x0581 [0x52] END_LOAD_SCHEDULER: End scheduler "rhm1" with entities [LocalPlayer, LocalPlayer], work=378*
179: 0x0590 [0x01] GOTO 0x0649
180: 0x0593 [0x02] IF !(ExtData[1]->WorkLocal[2] == 2*) GOTO 0x05AD
181: 0x059B [0x52] END_LOAD_SCHEDULER: End scheduler "rhf1" with entities [LocalPlayer, LocalPlayer], work=378*
182: 0x05AA [0x01] GOTO 0x0649
183: 0x05AD [0x02] IF !(ExtData[1]->WorkLocal[2] == 3*) GOTO 0x05C7
184: 0x05B5 [0x52] END_LOAD_SCHEDULER: End scheduler "rem1" with entities [LocalPlayer, LocalPlayer], work=378*
185: 0x05C4 [0x01] GOTO 0x0649
186: 0x05C7 [0x02] IF !(ExtData[1]->WorkLocal[2] == 4*) GOTO 0x05E1
187: 0x05CF [0x52] END_LOAD_SCHEDULER: End scheduler "ref1" with entities [LocalPlayer, LocalPlayer], work=378*
188: 0x05DE [0x01] GOTO 0x0649
189: 0x05E1 [0x02] IF !(ExtData[1]->WorkLocal[2] == 5*) GOTO 0x05FB
190: 0x05E9 [0x52] END_LOAD_SCHEDULER: End scheduler "rtr1" with entities [LocalPlayer, LocalPlayer], work=378*
191: 0x05F8 [0x01] GOTO 0x0649
192: 0x05FB [0x02] IF !(ExtData[1]->WorkLocal[2] == 6*) GOTO 0x0615
193: 0x0603 [0x52] END_LOAD_SCHEDULER: End scheduler "rtr1" with entities [LocalPlayer, LocalPlayer], work=378*
194: 0x0612 [0x01] GOTO 0x0649
195: 0x0615 [0x02] IF !(ExtData[1]->WorkLocal[2] == 7*) GOTO 0x062F
196: 0x061D [0x52] END_LOAD_SCHEDULER: End scheduler "rmt1" with entities [LocalPlayer, LocalPlayer], work=378*
197: 0x062C [0x01] GOTO 0x0649
198: 0x062F [0x02] IF !(ExtData[1]->WorkLocal[2] == 8*) GOTO 0x0649
199: 0x0637 [0x52] END_LOAD_SCHEDULER: End scheduler "rgl1" with entities [LocalPlayer, LocalPlayer], work=378*
200: 0x0646 [0x01] GOTO 0x0649

SUBROUTINE_0649:
201: 0x0649 [0x45] LOAD_SCHEDULED_TASK: Load scheduler "ro12" with entities [LocalPlayer, LocalPlayer], work=[378*, 0*]
202: 0x065A [0x01] GOTO 0x0749
203: 0x065D [0x02] IF !(ExtData[1]->WorkLocal[0] == 2*) GOTO 0x0749
204: 0x0665 [0x02] IF !(ExtData[1]->WorkLocal[2] == 1*) GOTO 0x067F
205: 0x066D [0x52] END_LOAD_SCHEDULER: End scheduler "ahm1" with entities [LocalPlayer, LocalPlayer], work=378*
206: 0x067C [0x01] GOTO 0x0735
207: 0x067F [0x02] IF !(ExtData[1]->WorkLocal[2] == 2*) GOTO 0x0699
208: 0x0687 [0x52] END_LOAD_SCHEDULER: End scheduler "ahf1" with entities [LocalPlayer, LocalPlayer], work=378*
209: 0x0696 [0x01] GOTO 0x0735
210: 0x0699 [0x02] IF !(ExtData[1]->WorkLocal[2] == 3*) GOTO 0x06B3
211: 0x06A1 [0x52] END_LOAD_SCHEDULER: End scheduler "aem1" with entities [LocalPlayer, LocalPlayer], work=378*
212: 0x06B0 [0x01] GOTO 0x0735
213: 0x06B3 [0x02] IF !(ExtData[1]->WorkLocal[2] == 4*) GOTO 0x06CD
214: 0x06BB [0x52] END_LOAD_SCHEDULER: End scheduler "aef1" with entities [LocalPlayer, LocalPlayer], work=378*
215: 0x06CA [0x01] GOTO 0x0735
216: 0x06CD [0x02] IF !(ExtData[1]->WorkLocal[2] == 5*) GOTO 0x06E7
217: 0x06D5 [0x52] END_LOAD_SCHEDULER: End scheduler "atr1" with entities [LocalPlayer, LocalPlayer], work=378*
218: 0x06E4 [0x01] GOTO 0x0735
219: 0x06E7 [0x02] IF !(ExtData[1]->WorkLocal[2] == 6*) GOTO 0x0701
220: 0x06EF [0x52] END_LOAD_SCHEDULER: End scheduler "atr1" with entities [LocalPlayer, LocalPlayer], work=378*
221: 0x06FE [0x01] GOTO 0x0735
222: 0x0701 [0x02] IF !(ExtData[1]->WorkLocal[2] == 7*) GOTO 0x071B
223: 0x0709 [0x52] END_LOAD_SCHEDULER: End scheduler "amt1" with entities [LocalPlayer, LocalPlayer], work=378*
224: 0x0718 [0x01] GOTO 0x0735
225: 0x071B [0x02] IF !(ExtData[1]->WorkLocal[2] == 8*) GOTO 0x0735
226: 0x0723 [0x52] END_LOAD_SCHEDULER: End scheduler "agl1" with entities [LocalPlayer, LocalPlayer], work=378*
227: 0x0732 [0x01] GOTO 0x0735

SUBROUTINE_0735:
228: 0x0735 [0x45] LOAD_SCHEDULED_TASK: Load scheduler "al12" with entities [LocalPlayer, LocalPlayer], work=[378*, 0*]
229: 0x0746 [0x01] GOTO 0x0749

SUBROUTINE_0749:
230: 0x0749 [0x1C] WAIT(120* ticks)
231: 0x074C [0x2A] GET_REQ_LEVEL(level=16, entity_id=LocalPlayer)
232: 0x0752 [0xBB] LOAD_EVENT_SCHEDULER_ALT: Load scheduler "st02" with entities [LocalPlayer, Cavernous Maw (ID: 17207857/0x01069231)], work=[151*, 0*]
233: 0x0763 [0x45] LOAD_SCHEDULED_TASK: Load scheduler "6112" with entities [Cavernous Maw (ID: 17207857/0x01069231), LocalPlayer], work=[378*, 0*]
234: 0x0774 [0x1C] WAIT(240* ticks)
235: 0x0777 [0x02] IF !(ExtData[1]->WorkLocal[0] == 0*) GOTO 0x07C5
236: 0x077F [0x52] END_LOAD_SCHEDULER: End scheduler "no12" with entities [LocalPlayer, LocalPlayer], work=378*
237: 0x078E [0x45] LOAD_SCHEDULED_TASK: Load scheduler "no13" with entities [LocalPlayer, LocalPlayer], work=[378*, 0*]
238: 0x079F [0x1C] WAIT(120* ticks)
239: 0x07A2 [0x52] END_LOAD_SCHEDULER: End scheduler "no13" with entities [LocalPlayer, LocalPlayer], work=378*
240: 0x07B1 [0x45] LOAD_SCHEDULED_TASK: Load scheduler "no24" with entities [LocalPlayer, LocalPlayer], work=[378*, 0*]
241: 0x07C2 [0x01] GOTO 0x0861
242: 0x07C5 [0x02] IF !(ExtData[1]->WorkLocal[0] == 1*) GOTO 0x0813
243: 0x07CD [0x52] END_LOAD_SCHEDULER: End scheduler "ro12" with entities [LocalPlayer, LocalPlayer], work=378*
244: 0x07DC [0x45] LOAD_SCHEDULED_TASK: Load scheduler "ro13" with entities [LocalPlayer, LocalPlayer], work=[378*, 0*]
245: 0x07ED [0x1C] WAIT(120* ticks)
246: 0x07F0 [0x52] END_LOAD_SCHEDULER: End scheduler "ro13" with entities [LocalPlayer, LocalPlayer], work=378*
247: 0x07FF [0x45] LOAD_SCHEDULED_TASK: Load scheduler "ro24" with entities [LocalPlayer, LocalPlayer], work=[378*, 0*]
248: 0x0810 [0x01] GOTO 0x0861
249: 0x0813 [0x02] IF !(ExtData[1]->WorkLocal[0] == 2*) GOTO 0x0861
250: 0x081B [0x52] END_LOAD_SCHEDULER: End scheduler "al12" with entities [LocalPlayer, LocalPlayer], work=378*
251: 0x082A [0x45] LOAD_SCHEDULED_TASK: Load scheduler "al13" with entities [LocalPlayer, LocalPlayer], work=[378*, 0*]
252: 0x083B [0x1C] WAIT(120* ticks)
253: 0x083E [0x52] END_LOAD_SCHEDULER: End scheduler "al13" with entities [LocalPlayer, LocalPlayer], work=378*
254: 0x084D [0x45] LOAD_SCHEDULED_TASK: Load scheduler "al24" with entities [LocalPlayer, LocalPlayer], work=[378*, 0*]
255: 0x085E [0x01] GOTO 0x0861

SUBROUTINE_0861:
256: 0x0861 [0x45] LOAD_SCHEDULED_TASK: Load scheduler "k112" with entities [Cavernous Maw (ID: 17207857/0x01069231), LocalPlayer], work=[378*, 0*]
257: 0x0872 [0x5D] SET_MUSIC_VOLUME(volume=0*, fade_time=300*)
258: 0x0877 [0xBB] LOAD_EVENT_SCHEDULER_ALT: Load scheduler "st03" with entities [LocalPlayer, Cavernous Maw (ID: 17207857/0x01069231)], work=[151*, 0*]
259: 0x0888 [0x1C] WAIT(90* ticks)
260: 0x088B [0x02] IF !(ExtData[1]->WorkLocal[0] == 0*) GOTO 0x08D9
261: 0x0893 [0x52] END_LOAD_SCHEDULER: End scheduler "no24" with entities [LocalPlayer, LocalPlayer], work=378*
262: 0x08A2 [0x45] LOAD_SCHEDULED_TASK: Load scheduler "no14" with entities [LocalPlayer, LocalPlayer], work=[378*, 0*]
263: 0x08B3 [0x1C] WAIT(75* ticks)
264: 0x08B6 [0x52] END_LOAD_SCHEDULER: End scheduler "no14" with entities [LocalPlayer, LocalPlayer], work=378*
265: 0x08C5 [0x45] LOAD_SCHEDULED_TASK: Load scheduler "no15" with entities [LocalPlayer, LocalPlayer], work=[378*, 0*]
266: 0x08D6 [0x01] GOTO 0x0975
267: 0x08D9 [0x02] IF !(ExtData[1]->WorkLocal[0] == 1*) GOTO 0x0927
268: 0x08E1 [0x52] END_LOAD_SCHEDULER: End scheduler "ro24" with entities [LocalPlayer, LocalPlayer], work=378*
269: 0x08F0 [0x45] LOAD_SCHEDULED_TASK: Load scheduler "ro14" with entities [LocalPlayer, LocalPlayer], work=[378*, 0*]
270: 0x0901 [0x1C] WAIT(75* ticks)
271: 0x0904 [0x52] END_LOAD_SCHEDULER: End scheduler "ro14" with entities [LocalPlayer, LocalPlayer], work=378*
272: 0x0913 [0x45] LOAD_SCHEDULED_TASK: Load scheduler "ro15" with entities [LocalPlayer, LocalPlayer], work=[378*, 0*]
273: 0x0924 [0x01] GOTO 0x0975
274: 0x0927 [0x02] IF !(ExtData[1]->WorkLocal[0] == 2*) GOTO 0x0975
275: 0x092F [0x52] END_LOAD_SCHEDULER: End scheduler "al24" with entities [LocalPlayer, LocalPlayer], work=378*
276: 0x093E [0x45] LOAD_SCHEDULED_TASK: Load scheduler "al14" with entities [LocalPlayer, LocalPlayer], work=[378*, 0*]
277: 0x094F [0x1C] WAIT(75* ticks)
278: 0x0952 [0x52] END_LOAD_SCHEDULER: End scheduler "al14" with entities [LocalPlayer, LocalPlayer], work=378*
279: 0x0961 [0x45] LOAD_SCHEDULED_TASK: Load scheduler "al15" with entities [LocalPlayer, LocalPlayer], work=[378*, 0*]
280: 0x0972 [0x01] GOTO 0x0975

SUBROUTINE_0975:
281: 0x0975 [0x1C] WAIT(120* ticks)
282: 0x0978 [0x48] [System] [7875*]:
     "<Player> is engulfed by the cavernous maw!"
283: 0x097B [0x1C] WAIT(60* ticks)
284: 0x097E [0x1A] CALL_SUBROUTINE(address=0x2ED5)
285: 0x0981 [0x1C] WAIT(45* ticks)
286: 0x0984 [0x52] END_LOAD_SCHEDULER: End scheduler "no15" with entities [LocalPlayer, LocalPlayer], work=378*
287: 0x0993 [0x52] END_LOAD_SCHEDULER: End scheduler "ro15" with entities [LocalPlayer, LocalPlayer], work=378*
288: 0x09A2 [0x52] END_LOAD_SCHEDULER: End scheduler "al15" with entities [LocalPlayer, LocalPlayer], work=378*
289: 0x09B1 [0x45] LOAD_SCHEDULED_TASK: Load scheduler "0blf" with entities [LocalPlayer, LocalPlayer], work=[378*, 0*]
290: 0x09C2 [0x1C] WAIT(15* ticks)
291: 0x09C5 [0x34] LOAD_UNLOAD_ZONE(zone_id=182*)
292: 0x09C8 [0x77] SET_EVENT_TIME_WEATHER(hour=255*, weather=19*)
293: 0x09CD [0x1C] WAIT(30* ticks)
294: 0x09D0 [0xAB] EventEntity->UnknownFlag = 1 // Enable unknown flag
295: 0x09D2 [0x2D] CREATE_ZONE_SCHEDULER_TASK: Create scheduler "sta1" with entities [LocalPlayer, LocalPlayer]
296: 0x09DF [0x2D] CREATE_ZONE_SCHEDULER_TASK: Create scheduler "sta2" with entities [LocalPlayer, LocalPlayer]
297: 0x09EC [0x2D] CREATE_ZONE_SCHEDULER_TASK: Create scheduler "sta3" with entities [LocalPlayer, LocalPlayer]
298: 0x09F9 [0x2D] CREATE_ZONE_SCHEDULER_TASK: Create scheduler "sta4" with entities [LocalPlayer, LocalPlayer]
299: 0x0A06 [0x5D] SET_MUSIC_VOLUME(volume=0*, fade_time=60*)
300: 0x0A0B [0x4E] SET_ENTITY_HIDE_FLAG: Hide Cavernous Maw (ID: 17207857/0x01069231)
301: 0x0A11 [0x1C] WAIT(90* ticks)
302: 0x0A14 [0x5C] MUSIC_CONTROL: Set Idle (Day) music to song 40*
303: 0x0A18 [0x5C] MUSIC_CONTROL: Set Idle (Night) music to song 40*
304: 0x0A1C [0x9A] WAIT_MUSIC_SERVER()
305: 0x0A1D [0x27] REQ_SET(priority=0x10, entity_id=Cait Sith (ID: 17207866/0x0106923A), tag_num=0x04)
306: 0x0A24 [0x27] REQ_SET(priority=0x10, entity_id=Larzos (ID: 17207869/0x0106923D), tag_num=0x04)
307: 0x0A2B [0x4E] SET_ENTITY_HIDE_FLAG: Show Cavernous Maw (ID: 17207868/0x0106923C)
308: 0x0A31 [0x2F] ??? (ID: 17207870/0x0106923E)->Render.Flags0 &= ~0x80000 // Bit 19
309: 0x0A37 [0x4E] SET_ENTITY_HIDE_FLAG: Show ??? (ID: 17207870/0x0106923E)
310: 0x0A3D [0x92] Cait Sith (ID: 17207866/0x0106923A)->Render.Flags3 ^= 0x01
311: 0x0A43 [0x92] Larzos (ID: 17207869/0x0106923D)->Render.Flags3 ^= 0x01
312: 0x0A49 [0x92] Cavernous Maw (ID: 17207868/0x0106923C)->Render.Flags3 ^= 0x01
313: 0x0A4F [0x92] ??? (ID: 17207870/0x0106923E)->Render.Flags3 ^= 0x01
314: 0x0A55 [0x94] LocalPlayer->Render.Flags3 ^= 0x01
315: 0x0A5B [0x94] Cait Sith (ID: 17207866/0x0106923A)->Render.Flags3 ^= 0x01
316: 0x0A61 [0x94] Larzos (ID: 17207869/0x0106923D)->Render.Flags3 ^= 0x01
317: 0x0A67 [0x94] ??? (ID: 17207870/0x0106923E)->Render.Flags3 ^= 0x01
318: 0x0A6D [0x59] UPDATE_ENTITY_DATA: Larzos (ID: 17207869/0x0106923D)->Render.Flags0 |= 0x200000
319: 0x0A74 [0x59] UPDATE_ENTITY_DATA: ??? (ID: 17207870/0x0106923E)->Render.Flags0 |= 0x200000
320: 0x0A7B [0x59] UPDATE_ENTITY_DATA: Cavernous Maw (ID: 17207868/0x0106923C)->Render.Flags0 |= 0x200000
321: 0x0A82 [0xBA] SET_ENTITY_POSITION(entity_id=LocalPlayer, pos_x=582.578*, pos_z=-211.713*, pos_y=35.999*, direction=89.8*)
322: 0x0A8F [0xBA] SET_ENTITY_POSITION(entity_id=Cait Sith (ID: 17207866/0x0106923A), pos_x=584.236*, pos_z=-212.878*, pos_y=35.999*, direction=89.8*)
323: 0x0A9C [0xBA] SET_ENTITY_POSITION(entity_id=Larzos (ID: 17207869/0x0106923D), pos_x=583.976*, pos_z=-378.456*, pos_y=-9.047*, direction=192.5*)
324: 0x0AA9 [0xBA] SET_ENTITY_POSITION(entity_id=??? (ID: 17207870/0x0106923E), pos_x=0.000*, pos_z=0.000*, pos_y=0.000*, direction=0.0*)
325: 0x0AB6 [0x80] LOAD_WAIT(entity=LocalPlayer)
326: 0x0ABB [0x80] LOAD_WAIT(entity=Cait Sith (ID: 17207866/0x0106923A))
327: 0x0AC0 [0x80] LOAD_WAIT(entity=Larzos (ID: 17207869/0x0106923D))
328: 0x0AC5 [0x80] LOAD_WAIT(entity=??? (ID: 17207870/0x0106923E))
329: 0x0ACA [0x7B] LocalPlayer stops talking
330: 0x0ACF [0x7B] Cait Sith (ID: 17207866/0x0106923A) stops talking
331: 0x0AD4 [0x7B] Larzos (ID: 17207869/0x0106923D) stops talking
332: 0x0AD9 [0x7B] ??? (ID: 17207870/0x0106923E) stops talking
333: 0x0ADE [0x1C] WAIT(30* ticks)
334: 0x0AE1 [0x27] REQ_SET(priority=0x10, entity_id=LocalPlayer, tag_num=0x3A)
335: 0x0AE8 [0x27] REQ_SET(priority=0x10, entity_id=Larzos (ID: 17207869/0x0106923D), tag_num=0x0A)
336: 0x0AEF [0x27] REQ_SET(priority=0x10, entity_id=??? (ID: 17207870/0x0106923E), tag_num=0x0C)
337: 0x0AF6 [0x27] REQ_SET(priority=0x10, entity_id=Cait Sith (ID: 17207866/0x0106923A), tag_num=0x10)
338: 0x0AFD [0x1C] WAIT(45* ticks)
339: 0x0B00 [0x27] REQ_SET(priority=0x10, entity_id=LocalPlayer, tag_num=0x31)
340: 0x0B07 [0x45] LOAD_SCHEDULED_TASK: Load scheduler "0000" with entities [LocalPlayer, LocalPlayer], work=[511*, 0*]
341: 0x0B18 [0x1A] CALL_SUBROUTINE(address=0x2EB4)
342: 0x0B1B [0x1A] CALL_SUBROUTINE(address=0x2E72)
343: 0x0B1E [0x1C] WAIT(210* ticks)
344: 0x0B21 [0x52] END_LOAD_SCHEDULER: End scheduler "0000" with entities [LocalPlayer, LocalPlayer], work=511*
345: 0x0B30 [0x45] LOAD_SCHEDULED_TASK: Load scheduler "0001" with entities [LocalPlayer, LocalPlayer], work=[511*, 0*]
346: 0x0B41 [0x2B] Cait Sith (ID: 17207866/0x0106923A) [11364*]:
     "Well, here we are."
347: 0x0B48 [0x23] WAIT_FOR_DIALOG_INTERACTION
348: 0x0B49 [0x2B] Cait Sith (ID: 17207866/0x0106923A) [11365*]:
     "Mind that you conduct yourself appropriately, <Player>. Acquit yourself well."
349: 0x0B50 [0x23] WAIT_FOR_DIALOG_INTERACTION
350: 0x0B51 [0x27] REQ_SET(priority=0x10, entity_id=Cait Sith (ID: 17207866/0x0106923A), tag_num=0x11)
351: 0x0B58 [0x1C] WAIT(45* ticks)
352: 0x0B5B [0x27] REQ_SET(priority=0x10, entity_id=LocalPlayer, tag_num=0x32)
353: 0x0B62 [0x1C] WAIT(60* ticks)
354: 0x0B65 [0x52] END_LOAD_SCHEDULER: End scheduler "0001" with entities [LocalPlayer, LocalPlayer], work=511*
355: 0x0B74 [0x45] LOAD_SCHEDULED_TASK: Load scheduler "0002" with entities [LocalPlayer, LocalPlayer], work=[511*, 0*]
356: 0x0B85 [0x7A] VM_CONTROL: Reset VM for Cait Sith (ID: 17207866/0x0106923A)
357: 0x0B8B [0x7A] VM_CONTROL: Reset VM for LocalPlayer
358: 0x0B91 [0xBA] SET_ENTITY_POSITION(entity_id=LocalPlayer, pos_x=579.017*, pos_z=-226.361*, pos_y=35.999*, direction=89.6*)
359: 0x0B9E [0xBA] SET_ENTITY_POSITION(entity_id=Cait Sith (ID: 17207866/0x0106923A), pos_x=580.091*, pos_z=-227.784*, pos_y=35.999*, direction=89.6*)
360: 0x0BAB [0x27] REQ_SET(priority=0x10, entity_id=LocalPlayer, tag_num=0x33)
361: 0x0BB2 [0x27] REQ_SET(priority=0x10, entity_id=Cait Sith (ID: 17207866/0x0106923A), tag_num=0x12)
362: 0x0BB9 [0x1C] WAIT(480* ticks)
363: 0x0BBC [0x52] END_LOAD_SCHEDULER: End scheduler "0002" with entities [LocalPlayer, LocalPlayer], work=511*
364: 0x0BCB [0x45] LOAD_SCHEDULED_TASK: Load scheduler "0003" with entities [LocalPlayer, LocalPlayer], work=[511*, 0*]
365: 0x0BDC [0x7A] VM_CONTROL: Reset VM for Cait Sith (ID: 17207866/0x0106923A)
366: 0x0BE2 [0x7A] VM_CONTROL: Reset VM for LocalPlayer
367: 0x0BE8 [0xBA] SET_ENTITY_POSITION(entity_id=LocalPlayer, pos_x=561.100*, pos_z=-361.322*, pos_y=0.000*, direction=135.8*)
368: 0x0BF5 [0xBA] SET_ENTITY_POSITION(entity_id=Cait Sith (ID: 17207866/0x0106923A), pos_x=560.607*, pos_z=-363.182*, pos_y=0.000*, direction=135.9*)
369: 0x0C02 [0x1C] WAIT(240* ticks)
370: 0x0C05 [0x52] END_LOAD_SCHEDULER: End scheduler "0003" with entities [LocalPlayer, LocalPlayer], work=511*
371: 0x0C14 [0x45] LOAD_SCHEDULED_TASK: Load scheduler "0004" with entities [LocalPlayer, LocalPlayer], work=[511*, 0*]
372: 0x0C25 [0x27] REQ_SET(priority=0x10, entity_id=LocalPlayer, tag_num=0x34)
373: 0x0C2C [0x29] REQ_SET_WAIT(priority=0x10, entity_id=Cait Sith (ID: 17207866/0x0106923A), tag_num=0x13)
374: 0x0C33 [0x52] END_LOAD_SCHEDULER: End scheduler "0004" with entities [LocalPlayer, LocalPlayer], work=511*
375: 0x0C42 [0x45] LOAD_SCHEDULED_TASK: Load scheduler "0005" with entities [LocalPlayer, LocalPlayer], work=[511*, 0*]
376: 0x0C53 [0x7A] VM_CONTROL: Reset VM for LocalPlayer
377: 0x0C59 [0xBA] SET_ENTITY_POSITION(entity_id=LocalPlayer, pos_x=561.969*, pos_z=-374.392*, pos_y=0.000*, direction=134.6*)
378: 0x0C66 [0xBA] SET_ENTITY_POSITION(entity_id=Cait Sith (ID: 17207866/0x0106923A), pos_x=561.983*, pos_z=-375.792*, pos_y=0.000*, direction=136.0*)
379: 0x0C73 [0x2B] Cait Sith (ID: 17207866/0x0106923A) [11366*]:
     "O Fearsome Distorter of Time! Atomos!"
380: 0x0C7A [0x23] WAIT_FOR_DIALOG_INTERACTION
381: 0x0C7B [0x52] END_LOAD_SCHEDULER: End scheduler "0005" with entities [LocalPlayer, LocalPlayer], work=511*
382: 0x0C8A [0x45] LOAD_SCHEDULED_TASK: Load scheduler "0006" with entities [LocalPlayer, LocalPlayer], work=[511*, 0*]
383: 0x0C9B [0x5B] LOAD_EXT_SCHEDULER: Load scheduler "tlb0" with entities [Cait Sith (ID: 17207866/0x0106923A), Cait Sith (ID: 17207866/0x0106923A)], work=1414*
384: 0x0CAA [0x2B] Cait Sith (ID: 17207866/0x0106923A) [11367*]:
     "We humbly beseech your succor! A bit of help!"
385: 0x0CB1 [0x23] WAIT_FOR_DIALOG_INTERACTION
386: 0x0CB2 [0x52] END_LOAD_SCHEDULER: End scheduler "0006" with entities [LocalPlayer, LocalPlayer], work=511*
387: 0x0CC1 [0x45] LOAD_SCHEDULED_TASK: Load scheduler "0007" with entities [LocalPlayer, LocalPlayer], work=[511*, 0*]
388: 0x0CD2 [0x2B] Cait Sith (ID: 17207866/0x0106923A) [11368*]:
     "Unless the situation takes a turn for the better, the brighter future shall forever be lost. Be given to the darkness."
389: 0x0CD9 [0x23] WAIT_FOR_DIALOG_INTERACTION
390: 0x0CDA [0x52] END_LOAD_SCHEDULER: End scheduler "0007" with entities [LocalPlayer, LocalPlayer], work=511*
391: 0x0CE9 [0x45] LOAD_SCHEDULED_TASK: Load scheduler "0008" with entities [LocalPlayer, LocalPlayer], work=[511*, 0*]
392: 0x0CFA [0x5B] LOAD_EXT_SCHEDULER: Load scheduler "tlb1" with entities [Cait Sith (ID: 17207866/0x0106923A), Cait Sith (ID: 17207866/0x0106923A)], work=1414*
393: 0x0D09 [0x2B] Cait Sith (ID: 17207866/0x0106923A) [11369*]:
     "It is the divine will of Altana that this evil does not befall the world. Must avert in the Goddess's name."
394: 0x0D10 [0x23] WAIT_FOR_DIALOG_INTERACTION
395: 0x0D11 [0x45] LOAD_SCHEDULED_TASK: Load scheduler "at00" with entities [LocalPlayer, LocalPlayer], work=[511*, 0*]
396: 0x0D22 [0x2B] Cavernous Maw (ID: 17207868/0x0106923C) [11370*]:
     "GraAaAaaaAAaaAgh..."
397: 0x0D29 [0x23] WAIT_FOR_DIALOG_INTERACTION
398: 0x0D2A [0x52] END_LOAD_SCHEDULER: End scheduler "0008" with entities [LocalPlayer, LocalPlayer], work=511*
399: 0x0D39 [0x29] REQ_SET_WAIT(priority=0x10, entity_id=LocalPlayer, tag_num=0x46)
400: 0x0D40 [0x02] IF !(Work_Zone[2] == 1*) GOTO 0x0D5C
401: 0x0D48 [0x45] LOAD_SCHEDULED_TASK: Load scheduler "0009" with entities [LocalPlayer, LocalPlayer], work=[511*, 0*]
402: 0x0D59 [0x01] GOTO 0x0E20
403: 0x0D5C [0x02] IF !(Work_Zone[2] == 2*) GOTO 0x0D78
404: 0x0D64 [0x45] LOAD_SCHEDULED_TASK: Load scheduler "0009" with entities [LocalPlayer, LocalPlayer], work=[511*, 0*]
405: 0x0D75 [0x01] GOTO 0x0E20
406: 0x0D78 [0x02] IF !(Work_Zone[2] == 3*) GOTO 0x0D94
407: 0x0D80 [0x45] LOAD_SCHEDULED_TASK: Load scheduler "0009" with entities [LocalPlayer, LocalPlayer], work=[511*, 0*]
408: 0x0D91 [0x01] GOTO 0x0E20
409: 0x0D94 [0x02] IF !(Work_Zone[2] == 4*) GOTO 0x0DB0
410: 0x0D9C [0x45] LOAD_SCHEDULED_TASK: Load scheduler "0009" with entities [LocalPlayer, LocalPlayer], work=[511*, 0*]
411: 0x0DAD [0x01] GOTO 0x0E20
412: 0x0DB0 [0x02] IF !(Work_Zone[2] == 5*) GOTO 0x0DCC
413: 0x0DB8 [0x45] LOAD_SCHEDULED_TASK: Load scheduler "0019" with entities [LocalPlayer, LocalPlayer], work=[511*, 0*]
414: 0x0DC9 [0x01] GOTO 0x0E20
415: 0x0DCC [0x02] IF !(Work_Zone[2] == 6*) GOTO 0x0DE8
416: 0x0DD4 [0x45] LOAD_SCHEDULED_TASK: Load scheduler "0019" with entities [LocalPlayer, LocalPlayer], work=[511*, 0*]
417: 0x0DE5 [0x01] GOTO 0x0E20
418: 0x0DE8 [0x02] IF !(Work_Zone[2] == 7*) GOTO 0x0E04
419: 0x0DF0 [0x45] LOAD_SCHEDULED_TASK: Load scheduler "0009" with entities [LocalPlayer, LocalPlayer], work=[511*, 0*]
420: 0x0E01 [0x01] GOTO 0x0E20
421: 0x0E04 [0x02] IF !(Work_Zone[2] == 8*) GOTO 0x0E20
422: 0x0E0C [0x45] LOAD_SCHEDULED_TASK: Load scheduler "0009" with entities [LocalPlayer, LocalPlayer], work=[511*, 0*]
423: 0x0E1D [0x01] GOTO 0x0E20

SUBROUTINE_0E20:
424: 0x0E20 [0x2B] Cavernous Maw (ID: 17207868/0x0106923C) [11371*]:
     "As the one-winged bird...knows not the skies..."
425: 0x0E27 [0x23] WAIT_FOR_DIALOG_INTERACTION
426: 0x0E28 [0x52] END_LOAD_SCHEDULER: End scheduler "0019" with entities [LocalPlayer, LocalPlayer], work=511*
427: 0x0E37 [0x52] END_LOAD_SCHEDULER: End scheduler "0009" with entities [LocalPlayer, LocalPlayer], work=511*
428: 0x0E46 [0x45] LOAD_SCHEDULED_TASK: Load scheduler "000a" with entities [LocalPlayer, LocalPlayer], work=[511*, 0*]
429: 0x0E57 [0x2B] Cavernous Maw (ID: 17207868/0x0106923C) [11372*]:
     "Incomplete...the Champions of the Dawn...can ill uphold...the will of Altana..."
430: 0x0E5E [0x23] WAIT_FOR_DIALOG_INTERACTION
431: 0x0E5F [0x52] END_LOAD_SCHEDULER: End scheduler "000a" with entities [LocalPlayer, LocalPlayer], work=511*
432: 0x0E6E [0x45] LOAD_SCHEDULED_TASK: Load scheduler "000b" with entities [LocalPlayer, LocalPlayer], work=[511*, 0*]
433: 0x0E7F [0x2B] Cait Sith (ID: 17207866/0x0106923A) [11373*]:
     "We know that all too well. Are painfully aware. That's why we've come here, to recover the Goddess's lost wing."
434: 0x0E86 [0x23] WAIT_FOR_DIALOG_INTERACTION
435: 0x0E87 [0x52] END_LOAD_SCHEDULER: End scheduler "000b" with entities [LocalPlayer, LocalPlayer], work=511*
436: 0x0E96 [0x45] LOAD_SCHEDULED_TASK: Load scheduler "0017" with entities [LocalPlayer, LocalPlayer], work=[511*, 0*]
437: 0x0EA7 [0x2B] Cait Sith (ID: 17207866/0x0106923A) [11374*]:
     "You deemed Lilisette's existence dispensable, and so disposed of her memories. Consumed them to the last orb."
438: 0x0EAE [0x23] WAIT_FOR_DIALOG_INTERACTION
439: 0x0EAF [0x81] SET_ENTITY_BLINKING(blink_flag=0x00, entity=Cait Sith (ID: 17207866/0x0106923A))
440: 0x0EB5 [0x5B] LOAD_EXT_SCHEDULER: Load scheduler "tlb0" with entities [Cait Sith (ID: 17207866/0x0106923A), Cait Sith (ID: 17207866/0x0106923A)], work=1414*
441: 0x0EC4 [0x2B] Cait Sith (ID: 17207866/0x0106923A) [11375*]:
     "But we need those memories restored. We want Lilisette back."
442: 0x0ECB [0x23] WAIT_FOR_DIALOG_INTERACTION
443: 0x0ECC [0x52] END_LOAD_SCHEDULER: End scheduler "0017" with entities [LocalPlayer, LocalPlayer], work=511*
444: 0x0EDB [0x45] LOAD_SCHEDULED_TASK: Load scheduler "000c" with entities [LocalPlayer, LocalPlayer], work=[511*, 0*]
445: 0x0EEC [0x2B] Cait Sith (ID: 17207866/0x0106923A) [11376*]:
     "We implore you, Atomos, return the poor girl to us! Show pity!"
446: 0x0EF3 [0x23] WAIT_FOR_DIALOG_INTERACTION
447: 0x0EF4 [0x52] END_LOAD_SCHEDULER: End scheduler "000c" with entities [LocalPlayer, LocalPlayer], work=511*
448: 0x0F03 [0x45] LOAD_SCHEDULED_TASK: Load scheduler "000d" with entities [LocalPlayer, LocalPlayer], work=[511*, 0*]
449: 0x0F14 [0x2B] Cavernous Maw (ID: 17207857/0x01069231) [11377*]:
     "The memories...of the young girl...Atomos indeed consumed..."
450: 0x0F1B [0x23] WAIT_FOR_DIALOG_INTERACTION
451: 0x0F1C [0x52] END_LOAD_SCHEDULER: End scheduler "000d" with entities [LocalPlayer, LocalPlayer], work=511*
452: 0x0F2B [0x45] LOAD_SCHEDULED_TASK: Load scheduler "000e" with entities [LocalPlayer, LocalPlayer], work=[511*, 0*]
453: 0x0F3C [0x2B] Cait Sith (ID: 17207866/0x0106923A) [11378*]:
     "So where is Lilisette now!? You must apprise us of her whereabouts! Reveal her location!"
454: 0x0F43 [0x23] WAIT_FOR_DIALOG_INTERACTION
455: 0x0F44 [0x52] END_LOAD_SCHEDULER: End scheduler "000e" with entities [LocalPlayer, LocalPlayer], work=511*
456: 0x0F53 [0x45] LOAD_SCHEDULED_TASK: Load scheduler "000f" with entities [LocalPlayer, LocalPlayer], work=[511*, 0*]
457: 0x0F64 [0x45] LOAD_SCHEDULED_TASK: Load scheduler "at00" with entities [LocalPlayer, LocalPlayer], work=[511*, 0*]
458: 0x0F75 [0x81] SET_ENTITY_BLINKING(blink_flag=0x01, entity=Cait Sith (ID: 17207866/0x0106923A))
459: 0x0F7B [0x5B] LOAD_EXT_SCHEDULER: Load scheduler "f000" with entities [Cait Sith (ID: 17207866/0x0106923A), Cait Sith (ID: 17207866/0x0106923A)], work=1311*
460: 0x0F8A [0x5B] LOAD_EXT_SCHEDULER: Load scheduler "tlb1" with entities [Cait Sith (ID: 17207866/0x0106923A), Cait Sith (ID: 17207866/0x0106923A)], work=1414*
461: 0x0F99 [0x2B] Cavernous Maw (ID: 17207868/0x0106923C) [11379*]:
     "All memories...deemed dispensable...are deposited here...the Walk of Echoes..."
462: 0x0FA0 [0x23] WAIT_FOR_DIALOG_INTERACTION
463: 0x0FA1 [0xCD] LOAD_SCHEDULED_TASK_ALT4: Load scheduler "s004" with entities [LocalPlayer, LocalPlayer], work=[8*, 0*]
464: 0x0FB2 [0x52] END_LOAD_SCHEDULER: End scheduler "000f" with entities [LocalPlayer, LocalPlayer], work=511*
465: 0x0FC1 [0x45] LOAD_SCHEDULED_TASK: Load scheduler "000g" with entities [LocalPlayer, LocalPlayer], work=[511*, 0*]
466: 0x0FD2 [0xBA] SET_ENTITY_POSITION(entity_id=LocalPlayer, pos_x=540.254*, pos_z=-367.187*, pos_y=0.000*, direction=156.3*)
467: 0x0FDF [0xBA] SET_ENTITY_POSITION(entity_id=Cait Sith (ID: 17207866/0x0106923A), pos_x=540.671*, pos_z=-369.587*, pos_y=0.000*, direction=160.8*)
468: 0x0FEC [0x1C] WAIT(300* ticks)
469: 0x0FEF [0x52] END_LOAD_SCHEDULER: End scheduler "000g" with entities [LocalPlayer, LocalPlayer], work=511*
470: 0x0FFE [0x45] LOAD_SCHEDULED_TASK: Load scheduler "000h" with entities [LocalPlayer, LocalPlayer], work=[511*, 0*]
471: 0x100F [0xCD] LOAD_SCHEDULED_TASK_ALT4: Load scheduler "kil4" with entities [LocalPlayer, LocalPlayer], work=[8*, 0*]
472: 0x1020 [0xCD] LOAD_SCHEDULED_TASK_ALT4: Load scheduler "s005" with entities [LocalPlayer, LocalPlayer], work=[8*, 0*]
473: 0x1031 [0x1C] WAIT(180* ticks)
474: 0x1034 [0x2B] Cait Sith (ID: 17207866/0x0106923A) [11380*]:
     "Then here is where we should look? Conduct the search?"
475: 0x103B [0x23] WAIT_FOR_DIALOG_INTERACTION
476: 0x103C [0x52] END_LOAD_SCHEDULER: End scheduler "000h" with entities [LocalPlayer, LocalPlayer], work=511*
477: 0x104B [0x45] LOAD_SCHEDULED_TASK: Load scheduler "000i" with entities [LocalPlayer, LocalPlayer], work=[511*, 0*]
478: 0x105C [0xCD] LOAD_SCHEDULED_TASK_ALT4: Load scheduler "kil5" with entities [LocalPlayer, LocalPlayer], work=[8*, 0*]
479: 0x106D [0xCD] LOAD_SCHEDULED_TASK_ALT4: Load scheduler "s003" with entities [LocalPlayer, LocalPlayer], work=[8*, 0*]
480: 0x107E [0x1C] WAIT(180* ticks)
481: 0x1081 [0x52] END_LOAD_SCHEDULER: End scheduler "000i" with entities [LocalPlayer, LocalPlayer], work=511*
482: 0x1090 [0x45] LOAD_SCHEDULED_TASK: Load scheduler "000j" with entities [LocalPlayer, LocalPlayer], work=[511*, 0*]
483: 0x10A1 [0xCD] LOAD_SCHEDULED_TASK_ALT4: Load scheduler "kil3" with entities [LocalPlayer, LocalPlayer], work=[8*, 0*]
484: 0x10B2 [0x5B] LOAD_EXT_SCHEDULER: Load scheduler "kyo0" with entities [Cait Sith (ID: 17207866/0x0106923A), Cait Sith (ID: 17207866/0x0106923A)], work=2856*
485: 0x10C1 [0x2B] Cait Sith (ID: 17207866/0x0106923A) [11381*]:
     "Given the Walk's vastness, this may prove to be a time-consuming task. Take a considerable while."
486: 0x10C8 [0x1C] WAIT(240* ticks)
487: 0x10CB [0x23] WAIT_FOR_DIALOG_INTERACTION
488: 0x10CC [0x52] END_LOAD_SCHEDULER: End scheduler "000j" with entities [LocalPlayer, LocalPlayer], work=511*
489: 0x10DB [0x45] LOAD_SCHEDULED_TASK: Load scheduler "000k" with entities [LocalPlayer, LocalPlayer], work=[511*, 0*]
490: 0x10EC [0x4A] LocalPlayer looks at Larzos (ID: 17207869/0x0106923D)
491: 0x10F5 [0x4A] Cait Sith (ID: 17207866/0x0106923A) looks at Larzos (ID: 17207869/0x0106923D)
492: 0x10FE [0xBB] LOAD_EVENT_SCHEDULER_ALT: Load scheduler "out0" with entities [Larzos (ID: 17207869/0x0106923D), Larzos (ID: 17207869/0x0106923D)], work=[223*, 0*]
493: 0x110F [0x2B] ??? (ID: 17207870/0x0106923E) [11383*]:
     "Found ya at long last."
494: 0x1116 [0x5D] SET_MUSIC_VOLUME(volume=0*, fade_time=60*)
495: 0x111B [0x1C] WAIT(120* ticks)
496: 0x111E [0x23] WAIT_FOR_DIALOG_INTERACTION
497: 0x111F [0x5C] MUSIC_CONTROL: Set Idle (Day) music to song 250*
498: 0x1123 [0x5C] MUSIC_CONTROL: Set Idle (Night) music to song 250*
499: 0x1127 [0x9A] WAIT_MUSIC_SERVER()
500: 0x1128 [0x52] END_LOAD_SCHEDULER: End scheduler "000k" with entities [LocalPlayer, LocalPlayer], work=511*
501: 0x1137 [0x45] LOAD_SCHEDULED_TASK: Load scheduler "000l" with entities [LocalPlayer, LocalPlayer], work=[511*, 0*]
502: 0x1148 [0xBA] SET_ENTITY_POSITION(entity_id=LocalPlayer, pos_x=543.688*, pos_z=-368.328*, pos_y=0.000*, direction=15.2*)
503: 0x1155 [0xBA] SET_ENTITY_POSITION(entity_id=Cait Sith (ID: 17207866/0x0106923A), pos_x=543.330*, pos_z=-370.116*, pos_y=0.000*, direction=14.4*)
504: 0x1162 [0x7B] LocalPlayer stops talking
505: 0x1167 [0x5B] LOAD_EXT_SCHEDULER: Load scheduler "kam0" with entities [Cait Sith (ID: 17207866/0x0106923A), Cait Sith (ID: 17207866/0x0106923A)], work=2527*
506: 0x1176 [0x2B] Cait Sith (ID: 17207866/0x0106923A) [11382*]:
     "S-Spitewardens!"
507: 0x117D [0x1C] WAIT(60* ticks)
508: 0x1180 [0x27] REQ_SET(priority=0x10, entity_id=LocalPlayer, tag_num=0x2B)
509: 0x1187 [0x1C] WAIT(60* ticks)
510: 0x118A [0x23] WAIT_FOR_DIALOG_INTERACTION
511: 0x118B [0x52] END_LOAD_SCHEDULER: End scheduler "000l" with entities [LocalPlayer, LocalPlayer], work=511*
512: 0x119A [0x45] LOAD_SCHEDULED_TASK: Load scheduler "000m" with entities [LocalPlayer, LocalPlayer], work=[511*, 0*]
513: 0x11AB [0x1C] WAIT(90* ticks)
514: 0x11AE [0xBB] LOAD_EVENT_SCHEDULER_ALT: Load scheduler "in00" with entities [Larzos (ID: 17207869/0x0106923D), Larzos (ID: 17207869/0x0106923D)], work=[223*, 0*]
515: 0x11BF [0x1C] WAIT(60* ticks)
516: 0x11C2 [0xBA] SET_ENTITY_POSITION(entity_id=Larzos (ID: 17207869/0x0106923D), pos_x=542.280*, pos_z=-369.068*, pos_y=-23.650*, direction=191.0*)
517: 0x11CF [0x5B] LOAD_EXT_SCHEDULER: Load scheduler "atk0" with entities [Larzos (ID: 17207869/0x0106923D), Larzos (ID: 17207869/0x0106923D)], work=2828*
518: 0x11DE [0x1C] WAIT(30* ticks)
519: 0x11E1 [0x52] END_LOAD_SCHEDULER: End scheduler "000m" with entities [LocalPlayer, LocalPlayer], work=511*
520: 0x11F0 [0x45] LOAD_SCHEDULED_TASK: Load scheduler "000o" with entities [LocalPlayer, LocalPlayer], work=[511*, 0*]
521: 0x1201 [0x1C] WAIT(90* ticks)
522: 0x1204 [0xBB] LOAD_EVENT_SCHEDULER_ALT: Load scheduler "out0" with entities [Larzos (ID: 17207869/0x0106923D), Larzos (ID: 17207869/0x0106923D)], work=[223*, 0*]
523: 0x1215 [0x1C] WAIT(90* ticks)
524: 0x1218 [0x52] END_LOAD_SCHEDULER: End scheduler "000n" with entities [LocalPlayer, LocalPlayer], work=511*
525: 0x1227 [0x45] LOAD_SCHEDULED_TASK: Load scheduler "000p" with entities [LocalPlayer, LocalPlayer], work=[511*, 0*]
526: 0x1238 [0xCD] LOAD_SCHEDULED_TASK_ALT4: Load scheduler "s000" with entities [Larzos (ID: 17207869/0x0106923D), Larzos (ID: 17207869/0x0106923D)], work=[84*, 0*]
527: 0x1249 [0x1C] WAIT(180* ticks)
528: 0x124C [0x52] END_LOAD_SCHEDULER: End scheduler "000p" with entities [LocalPlayer, LocalPlayer], work=511*
529: 0x125B [0x45] LOAD_SCHEDULED_TASK: Load scheduler "0018" with entities [LocalPlayer, LocalPlayer], work=[511*, 0*]
530: 0x126C [0xCD] LOAD_SCHEDULED_TASK_ALT4: Load scheduler "s001" with entities [Larzos (ID: 17207869/0x0106923D), Larzos (ID: 17207869/0x0106923D)], work=[84*, 0*]
531: 0x127D [0x5B] LOAD_EXT_SCHEDULER: Load scheduler "atk1" with entities [Larzos (ID: 17207869/0x0106923D), Larzos (ID: 17207869/0x0106923D)], work=2828*
532: 0x128C [0x1C] WAIT(60* ticks)
533: 0x128F [0x52] END_LOAD_SCHEDULER: End scheduler "0018" with entities [LocalPlayer, LocalPlayer], work=511*
534: 0x129E [0x45] LOAD_SCHEDULED_TASK: Load scheduler "000v" with entities [LocalPlayer, LocalPlayer], work=[511*, 0*]
535: 0x12AF [0x5B] LOAD_EXT_SCHEDULER: Load scheduler "kei0" with entities [Cait Sith (ID: 17207866/0x0106923A), Cait Sith (ID: 17207866/0x0106923A)], work=2856*
536: 0x12BE [0x1C] WAIT(45* ticks)
537: 0x12C1 [0x52] END_LOAD_SCHEDULER: End scheduler "000v" with entities [LocalPlayer, LocalPlayer], work=511*
538: 0x12D0 [0x45] LOAD_SCHEDULED_TASK: Load scheduler "000w" with entities [LocalPlayer, LocalPlayer], work=[511*, 0*]
539: 0x12E1 [0x1C] WAIT(90* ticks)
540: 0x12E4 [0x52] END_LOAD_SCHEDULER: End scheduler "000w" with entities [LocalPlayer, LocalPlayer], work=511*
541: 0x12F3 [0x45] LOAD_SCHEDULED_TASK: Load scheduler "000q" with entities [LocalPlayer, LocalPlayer], work=[511*, 0*]
542: 0x1304 [0x1C] WAIT(90* ticks)
543: 0x1307 [0x52] END_LOAD_SCHEDULER: End scheduler "000q" with entities [LocalPlayer, LocalPlayer], work=511*
544: 0x1316 [0x45] LOAD_SCHEDULED_TASK: Load scheduler "000r" with entities [LocalPlayer, LocalPlayer], work=[511*, 0*]
545: 0x1327 [0x2B] Cait Sith (ID: 17207866/0x0106923A) [11384*]:
     "Watch out! Take cover!"
546: 0x132E [0x81] SET_ENTITY_BLINKING(blink_flag=0x00, entity=Cait Sith (ID: 17207866/0x0106923A))
547: 0x1334 [0x81] SET_ENTITY_BLINKING(blink_flag=0x00, entity=??? (ID: 17207870/0x0106923E))
548: 0x133A [0x5B] LOAD_EXT_SCHEDULER: Load scheduler "kei1" with entities [Cait Sith (ID: 17207866/0x0106923A), Cait Sith (ID: 17207866/0x0106923A)], work=2857*
549: 0x1349 [0x1C] WAIT(15* ticks)
550: 0x134C [0xCD] LOAD_SCHEDULED_TASK_ALT4: Load scheduler "s000" with entities [??? (ID: 17207870/0x0106923E), ??? (ID: 17207870/0x0106923E)], work=[82*, 0*]
551: 0x135D [0x1C] WAIT(25* ticks)
552: 0x1360 [0xBA] SET_ENTITY_POSITION(entity_id=??? (ID: 17207870/0x0106923E), pos_x=546.505*, pos_z=-370.268*, pos_y=0.000*, direction=318.3*)
553: 0x136D [0x1C] WAIT(5* ticks)
554: 0x1370 [0x52] END_LOAD_SCHEDULER: End scheduler "000r" with entities [LocalPlayer, LocalPlayer], work=511*
555: 0x137F [0x45] LOAD_SCHEDULED_TASK: Load scheduler "0016" with entities [LocalPlayer, LocalPlayer], work=[511*, 0*]
556: 0x1390 [0xBA] SET_ENTITY_POSITION(entity_id=Cait Sith (ID: 17207866/0x0106923A), pos_x=0.000*, pos_z=0.000*, pos_y=0.000*, direction=0.0*)
557: 0x139D [0x1C] WAIT(30* ticks)
558: 0x13A0 [0x92] LocalPlayer->Render.Flags3 ^= 0x01
559: 0x13A6 [0x1C] WAIT(210* ticks)
560: 0x13A9 [0x1C] WAIT(15* ticks)
561: 0x13AC [0x59] UPDATE_ENTITY_DATA: LocalPlayer->Render.Flags0 |= 0x200000
562: 0x13B3 [0xBA] SET_ENTITY_POSITION(entity_id=Cait Sith (ID: 17207866/0x0106923A), pos_x=541.145*, pos_z=-369.868*, pos_y=0.000*, direction=342.6*)
563: 0x13C0 [0xBA] SET_ENTITY_POSITION(entity_id=LocalPlayer, pos_x=539.789*, pos_z=-369.641*, pos_y=-0.300*, direction=2.9*)
564: 0x13CD [0x27] REQ_SET(priority=0x10, entity_id=LocalPlayer, tag_num=0x2E)
565: 0x13D4 [0x1C] WAIT(15* ticks)
566: 0x13D7 [0x52] END_LOAD_SCHEDULER: End scheduler "000s" with entities [LocalPlayer, LocalPlayer], work=511*
567: 0x13E6 [0x45] LOAD_SCHEDULED_TASK: Load scheduler "000t" with entities [LocalPlayer, LocalPlayer], work=[511*, 0*]
568: 0x13F7 [0x1C] WAIT(15* ticks)
569: 0x13FA [0x27] REQ_SET(priority=0x10, entity_id=??? (ID: 17207870/0x0106923E), tag_num=0x0E)
570: 0x1401 [0xBA] SET_ENTITY_POSITION(entity_id=??? (ID: 17207870/0x0106923E), pos_x=530.554*, pos_z=-368.984*, pos_y=3.000*, direction=14.4*)
571: 0x140E [0x1C] WAIT(20* ticks)
572: 0x1411 [0x52] END_LOAD_SCHEDULER: End scheduler "000t" with entities [LocalPlayer, LocalPlayer], work=511*
573: 0x1420 [0x45] LOAD_SCHEDULED_TASK: Load scheduler "000z" with entities [LocalPlayer, LocalPlayer], work=[511*, 0*]
574: 0x1431 [0x5B] LOAD_EXT_SCHEDULER: Load scheduler "atk0" with entities [Larzos (ID: 17207869/0x0106923D), Larzos (ID: 17207869/0x0106923D)], work=2828*
575: 0x1440 [0x5B] LOAD_EXT_SCHEDULER: Load scheduler "kei2" with entities [Cait Sith (ID: 17207866/0x0106923A), Cait Sith (ID: 17207866/0x0106923A)], work=2857*
576: 0x144F [0x1C] WAIT(1* ticks)
577: 0x1452 [0xCD] LOAD_SCHEDULED_TASK_ALT4: Load scheduler "s001" with entities [Cait Sith (ID: 17207866/0x0106923A), Cait Sith (ID: 17207866/0x0106923A)], work=[83*, 0*]
578: 0x1463 [0xBA] SET_ENTITY_POSITION(entity_id=LocalPlayer, pos_x=0.000*, pos_z=0.000*, pos_y=0.000*, direction=0.0*)
579: 0x1470 [0x27] REQ_SET(priority=0x10, entity_id=LocalPlayer, tag_num=0x3E)
580: 0x1477 [0x1C] WAIT(90* ticks)
581: 0x147A [0x52] END_LOAD_SCHEDULER: End scheduler "000z" with entities [LocalPlayer, LocalPlayer], work=511*
582: 0x1489 [0x45] LOAD_SCHEDULED_TASK: Load scheduler "000y" with entities [LocalPlayer, LocalPlayer], work=[511*, 0*]
583: 0x149A [0x1C] WAIT(30* ticks)
584: 0x149D [0xCD] LOAD_SCHEDULED_TASK_ALT4: Load scheduler "s002" with entities [Cait Sith (ID: 17207866/0x0106923A), Cait Sith (ID: 17207866/0x0106923A)], work=[83*, 0*]
585: 0x14AE [0x1C] WAIT(90* ticks)
586: 0x14B1 [0x52] END_LOAD_SCHEDULER: End scheduler "000y" with entities [LocalPlayer, LocalPlayer], work=511*
587: 0x14C0 [0x45] LOAD_SCHEDULED_TASK: Load scheduler "001n" with entities [LocalPlayer, LocalPlayer], work=[511*, 0*]
588: 0x14D1 [0x1C] WAIT(1* ticks)
589: 0x14D4 [0xCD] LOAD_SCHEDULED_TASK_ALT4: Load scheduler "s000" with entities [Cait Sith (ID: 17207866/0x0106923A), Cait Sith (ID: 17207866/0x0106923A)], work=[83*, 0*]
590: 0x14E5 [0x1C] WAIT(180* ticks)
591: 0x14E8 [0x52] END_LOAD_SCHEDULER: End scheduler "001n" with entities [LocalPlayer, LocalPlayer], work=511*
592: 0x14F7 [0x45] LOAD_SCHEDULED_TASK: Load scheduler "0010" with entities [LocalPlayer, LocalPlayer], work=[511*, 0*]
593: 0x1508 [0xBA] SET_ENTITY_POSITION(entity_id=LocalPlayer, pos_x=529.460*, pos_z=-372.789*, pos_y=-1.261*, direction=342.5*)
594: 0x1515 [0x27] REQ_SET(priority=0x10, entity_id=LocalPlayer, tag_num=0x30)
595: 0x151C [0x2B] Larzos (ID: 17207869/0x0106923D) [11385*]:
     "Bah."
596: 0x1523 [0x23] WAIT_FOR_DIALOG_INTERACTION
597: 0x1524 [0x52] END_LOAD_SCHEDULER: End scheduler "0010" with entities [LocalPlayer, LocalPlayer], work=511*
598: 0x1533 [0x45] LOAD_SCHEDULED_TASK: Load scheduler "0011" with entities [LocalPlayer, LocalPlayer], work=[511*, 0*]
599: 0x1544 [0x2B] Cait Sith (ID: 17207866/0x0106923A) [11386*]:
     "<Player>! You must track down Lilisette's memories! Find them all!"
600: 0x154B [0x1C] WAIT(30* ticks)
601: 0x154E [0x27] REQ_SET(priority=0x10, entity_id=Larzos (ID: 17207869/0x0106923D), tag_num=0x0A)
