# 17207837 - Eideialc

## Common Data

| Field            | Value                    |
|------------------|--------------------------|
| Zone             | Batallia Downs (ID: 105) |
| Block Size       | 496 bytes                |
| Total Events     | 14                       |
| References Count | 23                       |

## List of Events

| Event ID                   | Entrypoint   |   Size |   Instructions |
|----------------------------|--------------|--------|----------------|
| [65535](#event-65535)      | 0x0000       |      1 |              1 |
| [904](#event-904)          | 0x0001       |     10 |              2 |
| [65535.1](#event-655351)   | 0x000B       |     12 |              4 |
| [65535.2](#event-655352)   | 0x0017       |     17 |              5 |
| [65535.3](#event-655353)   | 0x0028       |     32 |              6 |
| [65535.4](#event-655354)   | 0x0048       |     29 |              3 |
| [65535.5](#event-655355)   | 0x0065       |     56 |              6 |
| [65535.6](#event-655356)   | 0x009D       |     42 |              6 |
| [65535.7](#event-655357)   | 0x00C7       |     12 |              3 |
| [65535.8](#event-655358)   | 0x00D3       |     19 |              5 |
| [65535.9](#event-655359)   | 0x00E6       |     15 |              5 |
| [65535.10](#event-6553510) | 0x00F5       |     29 |              3 |
| [65535.11](#event-6553511) | 0x0112       |     29 |              3 |
| [65535.12](#event-6553512) | 0x012F       |     29 |              3 |

## DAT References (imed_data)

|   Index | Hex Value   |   Dec Value |
|---------|-------------|-------------|
|       0 | 0x3408C     |      213132 |
|       1 | 0xFFF6DC5C  |  4294368348 |
|       2 | 0x3641      |       13889 |
|       3 | 0x04D9      |        1241 |
|       4 | 0x3338B     |      209803 |
|       5 | 0xFFF6C0B2  |  4294361266 |
|       6 | 0x3C1C      |       15388 |
|       7 | 0x348C2     |      215234 |
|       8 | 0xFFF6D87E  |  4294367358 |
|       9 | 0x3434      |       13364 |
|      10 | 0x0CAC      |        3244 |
|      11 | 0x0013      |          19 |
|      12 | 0x34664     |      214628 |
|      13 | 0xFFF6D3E6  |  4294366182 |
|      14 | 0x34CB      |       13515 |
|      15 | 0x02BC      |         700 |
|      16 | 0x0028      |          40 |
|      17 | 0x362B9     |      221881 |
|      18 | 0xFFF6D14A  |  4294365514 |
|      19 | 0x339D      |       13213 |
|      20 | 0x000F      |          15 |
|      21 | 0x000D      |          13 |
|      22 | 0x0027      |          39 |

## Events

### Event 65535

#### Metadata

| Field        | Value   |
|--------------|---------|
| Entrypoint   | 0x0000  |
| Data Size    | 1 bytes |
| Instructions | 1       |

```
      00 01 02 03 04 05 06 07  08 09 0A 0B 0C 0D 0E 0F
      -- -- -- -- -- -- -- --  -- -- -- -- -- -- -- --
0000: 00                                                .               
```

#### Opcodes

```
  0: 0x0000 [0x00] END_REQSTACK()
```

### Event 904

#### Metadata

| Field        | Value    |
|--------------|----------|
| Entrypoint   | 0x0001   |
| Data Size    | 10 bytes |
| Instructions | 2        |

```
      00 01 02 03 04 05 06 07  08 09 0A 0B 0C 0D 0E 0F
      -- -- -- -- -- -- -- --  -- -- -- -- -- -- -- --
0000:    37 00 80 01 80 02 80  03 80 00                  7.........     
```

#### Opcodes

```
  0: 0x0001 [0x37] UPDATE_EVENT_POSITION_AND_DIR: x=213.132*, z=-598.948*, y=13.889*, direction=109.1°*
  1: 0x000A [0x00] END_REQSTACK()
```

### Event 65535.1

#### Metadata

| Field        | Value    |
|--------------|----------|
| Entrypoint   | 0x000B   |
| Data Size    | 12 bytes |
| Instructions | 4        |

```
      00 01 02 03 04 05 06 07  08 09 0A 0B 0C 0D 0E 0F
      -- -- -- -- -- -- -- --  -- -- -- -- -- -- -- --
0000:                                   1F 00 04 80 05             .....
0010: 80 06 80 1F 01 6F 00                              .....o.         
```

#### Opcodes

```
  0: 0x000B [0x1F] MOVE_ENTITY: EventEntity moves to X=209.803*, Z=-606.030*, Y=15.388*
  1: 0x0013 [0x1F] MOVE_ENTITY: Update entity position (mode=1)
  2: 0x0015 [0x6F] WAIT_FRAME_DELAY: Yield until WaitTime reaches zero
  3: 0x0016 [0x00] END_REQSTACK()
```

### Event 65535.2

#### Metadata

| Field        | Value    |
|--------------|----------|
| Entrypoint   | 0x0017   |
| Data Size    | 17 bytes |
| Instructions | 5        |

```
      00 01 02 03 04 05 06 07  08 09 0A 0B 0C 0D 0E 0F
      -- -- -- -- -- -- -- --  -- -- -- -- -- -- -- --
0010:                      1F  00 07 80 08 80 09 80 1F         .........
0020: 01 6F 1E 19 92 06 01 00                           .o......        
```

#### Opcodes

```
  0: 0x0017 [0x1F] MOVE_ENTITY: EventEntity moves to X=215.234*, Z=-599.938*, Y=13.364*
  1: 0x001F [0x1F] MOVE_ENTITY: Update entity position (mode=1)
  2: 0x0021 [0x6F] WAIT_FRAME_DELAY: Yield until WaitTime reaches zero
  3: 0x0022 [0x1E] EventEntity looks at Coteaulepoint (ID: 17207833/0x01069219) and starts talking
  4: 0x0027 [0x00] END_REQSTACK()
```

### Event 65535.3

#### Metadata

| Field        | Value    |
|--------------|----------|
| Entrypoint   | 0x0028   |
| Data Size    | 32 bytes |
| Instructions | 6        |

```
      00 01 02 03 04 05 06 07  08 09 0A 0B 0C 0D 0E 0F
      -- -- -- -- -- -- -- --  -- -- -- -- -- -- -- --
0020:                          37 07 80 08 80 09 80 0A          7.......
0030: 80 1E 19 92 06 01 6F 70  5B 0B 80 F8 FF FF 7F F8  ......op[.......
0040: FF FF 7F 74 73 62 30 00                           ...tsb0.        
```

#### Opcodes

```
  0: 0x0028 [0x37] UPDATE_EVENT_POSITION_AND_DIR: x=215.234*, z=-599.938*, y=13.364*, direction=285.1°*
  1: 0x0031 [0x1E] EventEntity looks at Coteaulepoint (ID: 17207833/0x01069219) and starts talking
  2: 0x0036 [0x6F] WAIT_FRAME_DELAY: Yield until WaitTime reaches zero
  3: 0x0037 [0x70] WAIT_ENTITY_RENDER_FLAG: Wait while EventEntity->Render.Flags3 bit 2 is set (cancel turn if not)
  4: 0x0038 [0x5B] LOAD_EXT_SCHEDULER: Load scheduler "tsb0" with entities [EventEntity, EventEntity], work=19*
  5: 0x0047 [0x00] END_REQSTACK()
```

### Event 65535.4

#### Metadata

| Field        | Value    |
|--------------|----------|
| Entrypoint   | 0x0048   |
| Data Size    | 29 bytes |
| Instructions | 3        |

```
      00 01 02 03 04 05 06 07  08 09 0A 0B 0C 0D 0E 0F
      -- -- -- -- -- -- -- --  -- -- -- -- -- -- -- --
0040:                          5B 0B 80 F8 FF FF 7F F8          [.......
0050: FF FF 7F 74 73 62 30 53  F8 FF FF 7F F8 FF FF 7F  ...tsb0S........
0060: 74 73 62 30 00                                    tsb0.           
```

#### Opcodes

```
  0: 0x0048 [0x5B] LOAD_EXT_SCHEDULER: Load scheduler "tsb0" with entities [EventEntity, EventEntity], work=19*
  1: 0x0057 [0x53] WAIT_SCHEDULER_TASK: Wait for scheduler "tsb0" with entities [EventEntity, EventEntity]
  2: 0x0064 [0x00] END_REQSTACK()
```

### Event 65535.5

#### Metadata

| Field        | Value    |
|--------------|----------|
| Entrypoint   | 0x0065   |
| Data Size    | 56 bytes |
| Instructions | 6        |

```
      00 01 02 03 04 05 06 07  08 09 0A 0B 0C 0D 0E 0F
      -- -- -- -- -- -- -- --  -- -- -- -- -- -- -- --
0060:                3B 17 92  06 01 00 00 02 00 01 00       ;..........
0070: 3A 17 92 06 01 03 00 37  00 00 02 00 01 00 03 00  :......7........
0080: 5B 0B 80 F8 FF FF 7F F8  FF FF 7F 00 FE FE FE 53  [..............S
0090: F8 FF FF 7F F8 FF FF 7F  00 FE FE FE 00           .............   
```

#### Opcodes

```
  0: 0x0065 [0x3B] GET_ENTITY_POSITION(entity=Rochefogne (ID: 17207831/0x01069217), x_destination=ExtData[1]->WorkLocal[0], y_destination=ExtData[1]->WorkLocal[2], z_destination=ExtData[1]->WorkLocal[1])
  1: 0x0070 [0x3A] CONVERT_YAW_TO_BYTE(entity=Rochefogne (ID: 17207831/0x01069217), result_destination=ExtData[1]->WorkLocal[3])
  2: 0x0077 [0x37] UPDATE_EVENT_POSITION_AND_DIR: x=ExtData[1]->WorkLocal[0], z=ExtData[1]->WorkLocal[2], y=ExtData[1]->WorkLocal[1], direction=ExtData[1]->WorkLocal[3]
  3: 0x0080 [0x5B] LOAD_EXT_SCHEDULER: Load scheduler 0xFEFEFE00 with entities [EventEntity, EventEntity], work=19*
  4: 0x008F [0x53] WAIT_SCHEDULER_TASK: Wait for scheduler 0xFEFEFE00 with entities [EventEntity, EventEntity]
  5: 0x009C [0x00] END_REQSTACK()
```

### Event 65535.6

#### Metadata

| Field        | Value    |
|--------------|----------|
| Entrypoint   | 0x009D   |
| Data Size    | 42 bytes |
| Instructions | 6        |

```
      00 01 02 03 04 05 06 07  08 09 0A 0B 0C 0D 0E 0F
      -- -- -- -- -- -- -- --  -- -- -- -- -- -- -- --
0090:                                         5B 0B 80               [..
00A0: F8 FF FF 7F F8 FF FF 7F  68 74 62 30 53 F8 FF FF  ........htb0S...
00B0: 7F F8 FF FF 7F 68 74 62  30 22 01 5E 69 64 6C 30  .....htb0".^idl0
00C0: 92 00 F8 FF FF 7F 00                              .......         
```

#### Opcodes

```
  0: 0x009D [0x5B] LOAD_EXT_SCHEDULER: Load scheduler "htb0" with entities [EventEntity, EventEntity], work=19*
  1: 0x00AC [0x53] WAIT_SCHEDULER_TASK: Wait for scheduler "htb0" with entities [EventEntity, EventEntity]
  2: 0x00B9 [0x22] ENTITY_HIDE_FLAG(enabled=0x01)
  3: 0x00BB [0x5E] EventEntity goes idle (kills current action) (animation: "idl0")
  4: 0x00C0 [0x92] EventEntity->Render.Flags3 = Flags3  // No change (flag=0)
  5: 0x00C6 [0x00] END_REQSTACK()
```

### Event 65535.7

#### Metadata

| Field        | Value    |
|--------------|----------|
| Entrypoint   | 0x00C7   |
| Data Size    | 12 bytes |
| Instructions | 3        |

```
      00 01 02 03 04 05 06 07  08 09 0A 0B 0C 0D 0E 0F
      -- -- -- -- -- -- -- --  -- -- -- -- -- -- -- --
00C0:                      22  00 37 0C 80 0D 80 0E 80         ".7......
00D0: 0F 80 00                                          ...             
```

#### Opcodes

```
  0: 0x00C7 [0x22] ENTITY_HIDE_FLAG(enabled=0x00)
  1: 0x00C9 [0x37] UPDATE_EVENT_POSITION_AND_DIR: x=214.628*, z=-601.114*, y=13.515*, direction=61.5°*
  2: 0x00D2 [0x00] END_REQSTACK()
```

### Event 65535.8

#### Metadata

| Field        | Value    |
|--------------|----------|
| Entrypoint   | 0x00D3   |
| Data Size    | 19 bytes |
| Instructions | 5        |

```
      00 01 02 03 04 05 06 07  08 09 0A 0B 0C 0D 0E 0F
      -- -- -- -- -- -- -- --  -- -- -- -- -- -- -- --
00D0:          32 10 80 31 00  11 80 12 80 13 80 14 80     2..1.........
00E0: 31 01 32 15 80 00                                 1.2...          
```

#### Opcodes

```
  0: 0x00D3 [0x32] ExtData[1]->MainSpeed = 40* * 0.1
  1: 0x00D6 [0x31] UPDATE_ENTITY_POSITION: Set EventEntity goal position to X=221.881*, Z=-601.782*, Y=13.213*, Time=15*
  2: 0x00E0 [0x31] UPDATE_ENTITY_POSITION: Move EventEntity towards goal position
  3: 0x00E2 [0x32] ExtData[1]->MainSpeed = 13* * 0.1
  4: 0x00E5 [0x00] END_REQSTACK()
```

### Event 65535.9

#### Metadata

| Field        | Value    |
|--------------|----------|
| Entrypoint   | 0x00E6   |
| Data Size    | 15 bytes |
| Instructions | 5        |

```
      00 01 02 03 04 05 06 07  08 09 0A 0B 0C 0D 0E 0F
      -- -- -- -- -- -- -- --  -- -- -- -- -- -- -- --
00E0:                   32 15  80 1F 00 11 80 12 80 13        2.........
00F0: 80 1F 01 6F 00                                    ...o.           
```

#### Opcodes

```
  0: 0x00E6 [0x32] ExtData[1]->MainSpeed = 13* * 0.1
  1: 0x00E9 [0x1F] MOVE_ENTITY: EventEntity moves to X=221.881*, Z=-601.782*, Y=13.213*
  2: 0x00F1 [0x1F] MOVE_ENTITY: Update entity position (mode=1)
  3: 0x00F3 [0x6F] WAIT_FRAME_DELAY: Yield until WaitTime reaches zero
  4: 0x00F4 [0x00] END_REQSTACK()
```

### Event 65535.10

#### Metadata

| Field        | Value    |
|--------------|----------|
| Entrypoint   | 0x00F5   |
| Data Size    | 29 bytes |
| Instructions | 3        |

```
      00 01 02 03 04 05 06 07  08 09 0A 0B 0C 0D 0E 0F
      -- -- -- -- -- -- -- --  -- -- -- -- -- -- -- --
00F0:                66 16 80  F8 FF FF 7F F8 FF FF 7F       f..........
0100: 73 68 61 30 53 F8 FF FF  7F F8 FF FF 7F 73 68 61  sha0S........sha
0110: 30 00                                             0.              
```

#### Opcodes

```
  0: 0x00F5 [0x66] LOAD_EXT_SCHEDULER_MAIN: Load scheduler "sha0" with entities [EventEntity, EventEntity], work=39*
  1: 0x0104 [0x53] WAIT_SCHEDULER_TASK: Wait for scheduler "sha0" with entities [EventEntity, EventEntity]
  2: 0x0111 [0x00] END_REQSTACK()
```

### Event 65535.11

#### Metadata

| Field        | Value    |
|--------------|----------|
| Entrypoint   | 0x0112   |
| Data Size    | 29 bytes |
| Instructions | 3        |

```
      00 01 02 03 04 05 06 07  08 09 0A 0B 0C 0D 0E 0F
      -- -- -- -- -- -- -- --  -- -- -- -- -- -- -- --
0110:       66 16 80 F8 FF FF  7F F8 FF FF 7F 74 6C 6B    f..........tlk
0120: 30 53 F8 FF FF 7F F8 FF  FF 7F 74 6C 6B 30 00     0S........tlk0. 
```

#### Opcodes

```
  0: 0x0112 [0x66] LOAD_EXT_SCHEDULER_MAIN: Load scheduler "tlk0" with entities [EventEntity, EventEntity], work=39*
  1: 0x0121 [0x53] WAIT_SCHEDULER_TASK: Wait for scheduler "tlk0" with entities [EventEntity, EventEntity]
  2: 0x012E [0x00] END_REQSTACK()
```

### Event 65535.12

#### Metadata

| Field        | Value    |
|--------------|----------|
| Entrypoint   | 0x012F   |
| Data Size    | 29 bytes |
| Instructions | 3        |

```
      00 01 02 03 04 05 06 07  08 09 0A 0B 0C 0D 0E 0F
      -- -- -- -- -- -- -- --  -- -- -- -- -- -- -- --
0120:                                               66                 f
0130: 16 80 F8 FF FF 7F F8 FF  FF 7F 74 6C 6B 31 53 F8  ..........tlk1S.
0140: FF FF 7F F8 FF FF 7F 74  6C 6B 31 00              .......tlk1.    
```

#### Opcodes

```
  0: 0x012F [0x66] LOAD_EXT_SCHEDULER_MAIN: Load scheduler "tlk1" with entities [EventEntity, EventEntity], work=39*
  1: 0x013E [0x53] WAIT_SCHEDULER_TASK: Wait for scheduler "tlk1" with entities [EventEntity, EventEntity]
  2: 0x014B [0x00] END_REQSTACK()
```
