# 17207997 - Mumor

## Common Data

| Field            | Value                    |
|------------------|--------------------------|
| Zone             | Batallia Downs (ID: 105) |
| Block Size       | 1496 bytes               |
| Total Events     | 69                       |
| References Count | 32                       |

## List of Events

| Event ID                   | Entrypoint   |   Size |   Instructions |
|----------------------------|--------------|--------|----------------|
| [65535](#event-65535)      | 0x0000       |      1 |              1 |
| [65535.1](#event-655351)   | 0x0001       |     16 |              2 |
| [65535.2](#event-655352)   | 0x0011       |     14 |              2 |
| [65535.3](#event-655353)   | 0x001F       |     16 |              2 |
| [65535.4](#event-655354)   | 0x002F       |     14 |              2 |
| [65535.5](#event-655355)   | 0x003D       |     16 |              2 |
| [65535.6](#event-655356)   | 0x004D       |     14 |              2 |
| [65535.7](#event-655357)   | 0x005B       |     16 |              2 |
| [65535.8](#event-655358)   | 0x006B       |     14 |              2 |
| [65535.9](#event-655359)   | 0x0079       |     16 |              2 |
| [65535.10](#event-6553510) | 0x0089       |     14 |              2 |
| [65535.11](#event-6553511) | 0x0097       |     16 |              2 |
| [65535.12](#event-6553512) | 0x00A7       |     14 |              2 |
| [65535.13](#event-6553513) | 0x00B5       |     16 |              2 |
| [65535.14](#event-6553514) | 0x00C5       |     14 |              2 |
| [65535.15](#event-6553515) | 0x00D3       |     16 |              2 |
| [65535.16](#event-6553516) | 0x00E3       |     14 |              2 |
| [65535.17](#event-6553517) | 0x00F1       |     16 |              2 |
| [65535.18](#event-6553518) | 0x0101       |     14 |              2 |
| [65535.19](#event-6553519) | 0x010F       |     16 |              2 |
| [65535.20](#event-6553520) | 0x011F       |     14 |              2 |
| [65535.21](#event-6553521) | 0x012D       |     16 |              2 |
| [65535.22](#event-6553522) | 0x013D       |     14 |              2 |
| [65535.23](#event-6553523) | 0x014B       |     16 |              2 |
| [65535.24](#event-6553524) | 0x015B       |     14 |              2 |
| [65535.25](#event-6553525) | 0x0169       |     16 |              2 |
| [65535.26](#event-6553526) | 0x0179       |     14 |              2 |
| [65535.27](#event-6553527) | 0x0187       |     16 |              2 |
| [65535.28](#event-6553528) | 0x0197       |     14 |              2 |
| [65535.29](#event-6553529) | 0x01A5       |     19 |              2 |
| [65535.30](#event-6553530) | 0x01B8       |     15 |              2 |
| [65535.31](#event-6553531) | 0x01C7       |     16 |              2 |
| [65535.32](#event-6553532) | 0x01D7       |     14 |              2 |
| [65535.33](#event-6553533) | 0x01E5       |     16 |              2 |
| [65535.34](#event-6553534) | 0x01F5       |     14 |              2 |
| [65535.35](#event-6553535) | 0x0203       |     19 |              2 |
| [65535.36](#event-6553536) | 0x0216       |     15 |              2 |
| [65535.37](#event-6553537) | 0x0225       |     19 |              2 |
| [65535.38](#event-6553538) | 0x0238       |     15 |              2 |
| [65535.39](#event-6553539) | 0x0247       |     19 |              2 |
| [65535.40](#event-6553540) | 0x025A       |     15 |              2 |
| [65535.41](#event-6553541) | 0x0269       |     19 |              2 |
| [65535.42](#event-6553542) | 0x027C       |     15 |              2 |
| [65535.43](#event-6553543) | 0x028B       |     19 |              2 |
| [65535.44](#event-6553544) | 0x029E       |     15 |              2 |
| [65535.45](#event-6553545) | 0x02AD       |     19 |              2 |
| [65535.46](#event-6553546) | 0x02C0       |     15 |              2 |
| [65535.47](#event-6553547) | 0x02CF       |     19 |              2 |
| [65535.48](#event-6553548) | 0x02E2       |     15 |              2 |
| [65535.49](#event-6553549) | 0x02F1       |     19 |              2 |
| [65535.50](#event-6553550) | 0x0304       |     15 |              2 |
| [65535.51](#event-6553551) | 0x0313       |     19 |              2 |
| [65535.52](#event-6553552) | 0x0326       |     15 |              2 |
| [65535.53](#event-6553553) | 0x0335       |     19 |              2 |
| [65535.54](#event-6553554) | 0x0348       |     15 |              2 |
| [65535.55](#event-6553555) | 0x0357       |      7 |              3 |
| [65535.56](#event-6553556) | 0x035E       |      7 |              3 |
| [65535.57](#event-6553557) | 0x0365       |     29 |              3 |
| [65535.58](#event-6553558) | 0x0382       |     29 |              3 |
| [65535.59](#event-6553559) | 0x039F       |     16 |              2 |
| [65535.60](#event-6553560) | 0x03AF       |     14 |              2 |
| [28](#event-28)            | 0x03BD       |      7 |              2 |
| [65535.61](#event-6553561) | 0x03C4       |     22 |              8 |
| [29](#event-29)            | 0x03DA       |      7 |              2 |
| [65535.62](#event-6553562) | 0x03E1       |     22 |              8 |
| [65535.63](#event-6553563) | 0x03F7       |     15 |              5 |
| [65535.64](#event-6553564) | 0x0406       |     15 |              5 |
| [65535.65](#event-6553565) | 0x0415       |     15 |              5 |
| [65535.66](#event-6553566) | 0x0424       |     14 |              4 |

## DAT References (imed_data)

|   Index | Hex Value   |   Dec Value |
|---------|-------------|-------------|
|       0 | 0x0013      |          19 |
|       1 | 0x0051      |          81 |
|       2 | 0x00E6      |         230 |
|       3 | 0x009D      |         157 |
|       4 | 0x009E      |         158 |
|       5 | 0x006E      |         110 |
|       6 | 0x008C      |         140 |
|       7 | 0x0082      |         130 |
|       8 | 0x008E      |         142 |
|       9 | 0x0096      |         150 |
|      10 | 0x009F      |         159 |
|      11 | 0x0001      |           1 |
|      12 | 0x0000      |           0 |
|      13 | 0x0D4F      |        3407 |
|      14 | 0x0028      |          40 |
|      15 | 0x4CA80     |      313984 |
|      16 | 0x13D4A     |       81226 |
|      17 | 0x1FA3      |        8099 |
|      18 | 0x000D      |          13 |
|      19 | 0x4E899     |      321689 |
|      20 | 0x1404B     |       81995 |
|      21 | 0x1F3F      |        7999 |
|      22 | 0x4E14F     |      319823 |
|      23 | 0x13F14     |       81684 |
|      24 | 0x4E128     |      319784 |
|      25 | 0x1461A     |       83482 |
|      26 | 0x4C932     |      313650 |
|      27 | 0x14DDF     |       85471 |
|      28 | 0x1FFC      |        8188 |
|      29 | 0x46A13     |      289299 |
|      30 | 0x14246     |       82502 |
|      31 | 0x2047      |        8263 |

## Events

### Event 65535

#### Metadata

| Field        | Value   |
|--------------|---------|
| Entrypoint   | 0x0000  |
| Data Size    | 1 bytes |
| Instructions | 1       |

```
      00 01 02 03 04 05 06 07  08 09 0A 0B 0C 0D 0E 0F
      -- -- -- -- -- -- -- --  -- -- -- -- -- -- -- --
0000: 00                                                .               
```

#### Opcodes

```
  0: 0x0000 [0x00] END_REQSTACK()
```

### Event 65535.1

#### Metadata

| Field        | Value    |
|--------------|----------|
| Entrypoint   | 0x0001   |
| Data Size    | 16 bytes |
| Instructions | 2        |

```
      00 01 02 03 04 05 06 07  08 09 0A 0B 0C 0D 0E 0F
      -- -- -- -- -- -- -- --  -- -- -- -- -- -- -- --
0000:    66 00 80 F8 FF FF 7F  F8 FF FF 7F 74 6C 6B 30   f..........tlk0
0010: 00                                                .               
```

#### Opcodes

```
  0: 0x0001 [0x66] LOAD_EXT_SCHEDULER_MAIN: Load scheduler "tlk0" with entities [EventEntity, EventEntity], work=19*
  1: 0x0010 [0x00] END_REQSTACK()
```

### Event 65535.2

#### Metadata

| Field        | Value    |
|--------------|----------|
| Entrypoint   | 0x0011   |
| Data Size    | 14 bytes |
| Instructions | 2        |

```
      00 01 02 03 04 05 06 07  08 09 0A 0B 0C 0D 0E 0F
      -- -- -- -- -- -- -- --  -- -- -- -- -- -- -- --
0010:    53 F8 FF FF 7F F8 FF  FF 7F 74 6C 6B 30 00      S........tlk0. 
```

#### Opcodes

```
  0: 0x0011 [0x53] WAIT_SCHEDULER_TASK: Wait for scheduler "tlk0" with entities [EventEntity, EventEntity]
  1: 0x001E [0x00] END_REQSTACK()
```

### Event 65535.3

#### Metadata

| Field        | Value    |
|--------------|----------|
| Entrypoint   | 0x001F   |
| Data Size    | 16 bytes |
| Instructions | 2        |

```
      00 01 02 03 04 05 06 07  08 09 0A 0B 0C 0D 0E 0F
      -- -- -- -- -- -- -- --  -- -- -- -- -- -- -- --
0010:                                               66                 f
0020: 00 80 F8 FF FF 7F F8 FF  FF 7F 74 6C 6B 31 00     ..........tlk1. 
```

#### Opcodes

```
  0: 0x001F [0x66] LOAD_EXT_SCHEDULER_MAIN: Load scheduler "tlk1" with entities [EventEntity, EventEntity], work=19*
  1: 0x002E [0x00] END_REQSTACK()
```

### Event 65535.4

#### Metadata

| Field        | Value    |
|--------------|----------|
| Entrypoint   | 0x002F   |
| Data Size    | 14 bytes |
| Instructions | 2        |

```
      00 01 02 03 04 05 06 07  08 09 0A 0B 0C 0D 0E 0F
      -- -- -- -- -- -- -- --  -- -- -- -- -- -- -- --
0020:                                               53                 S
0030: F8 FF FF 7F F8 FF FF 7F  74 6C 6B 31 00           ........tlk1.   
```

#### Opcodes

```
  0: 0x002F [0x53] WAIT_SCHEDULER_TASK: Wait for scheduler "tlk1" with entities [EventEntity, EventEntity]
  1: 0x003C [0x00] END_REQSTACK()
```

### Event 65535.5

#### Metadata

| Field        | Value    |
|--------------|----------|
| Entrypoint   | 0x003D   |
| Data Size    | 16 bytes |
| Instructions | 2        |

```
      00 01 02 03 04 05 06 07  08 09 0A 0B 0C 0D 0E 0F
      -- -- -- -- -- -- -- --  -- -- -- -- -- -- -- --
0030:                                         66 00 80               f..
0040: F8 FF FF 7F F8 FF FF 7F  74 68 6B 31 00           ........thk1.   
```

#### Opcodes

```
  0: 0x003D [0x66] LOAD_EXT_SCHEDULER_MAIN: Load scheduler "thk1" with entities [EventEntity, EventEntity], work=19*
  1: 0x004C [0x00] END_REQSTACK()
```

### Event 65535.6

#### Metadata

| Field        | Value    |
|--------------|----------|
| Entrypoint   | 0x004D   |
| Data Size    | 14 bytes |
| Instructions | 2        |

```
      00 01 02 03 04 05 06 07  08 09 0A 0B 0C 0D 0E 0F
      -- -- -- -- -- -- -- --  -- -- -- -- -- -- -- --
0040:                                         53 F8 FF               S..
0050: FF 7F F8 FF FF 7F 74 68  6B 31 00                 ......thk1.     
```

#### Opcodes

```
  0: 0x004D [0x53] WAIT_SCHEDULER_TASK: Wait for scheduler "thk1" with entities [EventEntity, EventEntity]
  1: 0x005A [0x00] END_REQSTACK()
```

### Event 65535.7

#### Metadata

| Field        | Value    |
|--------------|----------|
| Entrypoint   | 0x005B   |
| Data Size    | 16 bytes |
| Instructions | 2        |

```
      00 01 02 03 04 05 06 07  08 09 0A 0B 0C 0D 0E 0F
      -- -- -- -- -- -- -- --  -- -- -- -- -- -- -- --
0050:                                   66 00 80 F8 FF             f....
0060: FF 7F F8 FF FF 7F 74 68  6B 32 00                 ......thk2.     
```

#### Opcodes

```
  0: 0x005B [0x66] LOAD_EXT_SCHEDULER_MAIN: Load scheduler "thk2" with entities [EventEntity, EventEntity], work=19*
  1: 0x006A [0x00] END_REQSTACK()
```

### Event 65535.8

#### Metadata

| Field        | Value    |
|--------------|----------|
| Entrypoint   | 0x006B   |
| Data Size    | 14 bytes |
| Instructions | 2        |

```
      00 01 02 03 04 05 06 07  08 09 0A 0B 0C 0D 0E 0F
      -- -- -- -- -- -- -- --  -- -- -- -- -- -- -- --
0060:                                   53 F8 FF FF 7F             S....
0070: F8 FF FF 7F 74 68 6B 32  00                       ....thk2.       
```

#### Opcodes

```
  0: 0x006B [0x53] WAIT_SCHEDULER_TASK: Wait for scheduler "thk2" with entities [EventEntity, EventEntity]
  1: 0x0078 [0x00] END_REQSTACK()
```

### Event 65535.9

#### Metadata

| Field        | Value    |
|--------------|----------|
| Entrypoint   | 0x0079   |
| Data Size    | 16 bytes |
| Instructions | 2        |

```
      00 01 02 03 04 05 06 07  08 09 0A 0B 0C 0D 0E 0F
      -- -- -- -- -- -- -- --  -- -- -- -- -- -- -- --
0070:                             66 00 80 F8 FF FF 7F           f......
0080: F8 FF FF 7F 73 68 61 30  00                       ....sha0.       
```

#### Opcodes

```
  0: 0x0079 [0x66] LOAD_EXT_SCHEDULER_MAIN: Load scheduler "sha0" with entities [EventEntity, EventEntity], work=19*
  1: 0x0088 [0x00] END_REQSTACK()
```

### Event 65535.10

#### Metadata

| Field        | Value    |
|--------------|----------|
| Entrypoint   | 0x0089   |
| Data Size    | 14 bytes |
| Instructions | 2        |

```
      00 01 02 03 04 05 06 07  08 09 0A 0B 0C 0D 0E 0F
      -- -- -- -- -- -- -- --  -- -- -- -- -- -- -- --
0080:                             53 F8 FF FF 7F F8 FF           S......
0090: FF 7F 73 68 61 30 00                              ..sha0.         
```

#### Opcodes

```
  0: 0x0089 [0x53] WAIT_SCHEDULER_TASK: Wait for scheduler "sha0" with entities [EventEntity, EventEntity]
  1: 0x0096 [0x00] END_REQSTACK()
```

### Event 65535.11

#### Metadata

| Field        | Value    |
|--------------|----------|
| Entrypoint   | 0x0097   |
| Data Size    | 16 bytes |
| Instructions | 2        |

```
      00 01 02 03 04 05 06 07  08 09 0A 0B 0C 0D 0E 0F
      -- -- -- -- -- -- -- --  -- -- -- -- -- -- -- --
0090:                      66  00 80 F8 FF FF 7F F8 FF         f........
00A0: FF 7F 73 68 61 31 00                              ..sha1.         
```

#### Opcodes

```
  0: 0x0097 [0x66] LOAD_EXT_SCHEDULER_MAIN: Load scheduler "sha1" with entities [EventEntity, EventEntity], work=19*
  1: 0x00A6 [0x00] END_REQSTACK()
```

### Event 65535.12

#### Metadata

| Field        | Value    |
|--------------|----------|
| Entrypoint   | 0x00A7   |
| Data Size    | 14 bytes |
| Instructions | 2        |

```
      00 01 02 03 04 05 06 07  08 09 0A 0B 0C 0D 0E 0F
      -- -- -- -- -- -- -- --  -- -- -- -- -- -- -- --
00A0:                      53  F8 FF FF 7F F8 FF FF 7F         S........
00B0: 73 68 61 31 00                                    sha1.           
```

#### Opcodes

```
  0: 0x00A7 [0x53] WAIT_SCHEDULER_TASK: Wait for scheduler "sha1" with entities [EventEntity, EventEntity]
  1: 0x00B4 [0x00] END_REQSTACK()
```

### Event 65535.13

#### Metadata

| Field        | Value    |
|--------------|----------|
| Entrypoint   | 0x00B5   |
| Data Size    | 16 bytes |
| Instructions | 2        |

```
      00 01 02 03 04 05 06 07  08 09 0A 0B 0C 0D 0E 0F
      -- -- -- -- -- -- -- --  -- -- -- -- -- -- -- --
00B0:                66 00 80  F8 FF FF 7F F8 FF FF 7F       f..........
00C0: 73 69 72 30 00                                    sir0.           
```

#### Opcodes

```
  0: 0x00B5 [0x66] LOAD_EXT_SCHEDULER_MAIN: Load scheduler "sir0" with entities [EventEntity, EventEntity], work=19*
  1: 0x00C4 [0x00] END_REQSTACK()
```

### Event 65535.14

#### Metadata

| Field        | Value    |
|--------------|----------|
| Entrypoint   | 0x00C5   |
| Data Size    | 14 bytes |
| Instructions | 2        |

```
      00 01 02 03 04 05 06 07  08 09 0A 0B 0C 0D 0E 0F
      -- -- -- -- -- -- -- --  -- -- -- -- -- -- -- --
00C0:                53 F8 FF  FF 7F F8 FF FF 7F 73 69       S........si
00D0: 72 30 00                                          r0.             
```

#### Opcodes

```
  0: 0x00C5 [0x53] WAIT_SCHEDULER_TASK: Wait for scheduler "sir0" with entities [EventEntity, EventEntity]
  1: 0x00D2 [0x00] END_REQSTACK()
```

### Event 65535.15

#### Metadata

| Field        | Value    |
|--------------|----------|
| Entrypoint   | 0x00D3   |
| Data Size    | 16 bytes |
| Instructions | 2        |

```
      00 01 02 03 04 05 06 07  08 09 0A 0B 0C 0D 0E 0F
      -- -- -- -- -- -- -- --  -- -- -- -- -- -- -- --
00D0:          66 00 80 F8 FF  FF 7F F8 FF FF 7F 73 69     f..........si
00E0: 72 31 00                                          r1.             
```

#### Opcodes

```
  0: 0x00D3 [0x66] LOAD_EXT_SCHEDULER_MAIN: Load scheduler "sir1" with entities [EventEntity, EventEntity], work=19*
  1: 0x00E2 [0x00] END_REQSTACK()
```

### Event 65535.16

#### Metadata

| Field        | Value    |
|--------------|----------|
| Entrypoint   | 0x00E3   |
| Data Size    | 14 bytes |
| Instructions | 2        |

```
      00 01 02 03 04 05 06 07  08 09 0A 0B 0C 0D 0E 0F
      -- -- -- -- -- -- -- --  -- -- -- -- -- -- -- --
00E0:          53 F8 FF FF 7F  F8 FF FF 7F 73 69 72 31     S........sir1
00F0: 00                                                .               
```

#### Opcodes

```
  0: 0x00E3 [0x53] WAIT_SCHEDULER_TASK: Wait for scheduler "sir1" with entities [EventEntity, EventEntity]
  1: 0x00F0 [0x00] END_REQSTACK()
```

### Event 65535.17

#### Metadata

| Field        | Value    |
|--------------|----------|
| Entrypoint   | 0x00F1   |
| Data Size    | 16 bytes |
| Instructions | 2        |

```
      00 01 02 03 04 05 06 07  08 09 0A 0B 0C 0D 0E 0F
      -- -- -- -- -- -- -- --  -- -- -- -- -- -- -- --
00F0:    66 00 80 F8 FF FF 7F  F8 FF FF 7F 72 73 74 30   f..........rst0
0100: 00                                                .               
```

#### Opcodes

```
  0: 0x00F1 [0x66] LOAD_EXT_SCHEDULER_MAIN: Load scheduler "rst0" with entities [EventEntity, EventEntity], work=19*
  1: 0x0100 [0x00] END_REQSTACK()
```

### Event 65535.18

#### Metadata

| Field        | Value    |
|--------------|----------|
| Entrypoint   | 0x0101   |
| Data Size    | 14 bytes |
| Instructions | 2        |

```
      00 01 02 03 04 05 06 07  08 09 0A 0B 0C 0D 0E 0F
      -- -- -- -- -- -- -- --  -- -- -- -- -- -- -- --
0100:    53 F8 FF FF 7F F8 FF  FF 7F 72 73 74 30 00      S........rst0. 
```

#### Opcodes

```
  0: 0x0101 [0x53] WAIT_SCHEDULER_TASK: Wait for scheduler "rst0" with entities [EventEntity, EventEntity]
  1: 0x010E [0x00] END_REQSTACK()
```

### Event 65535.19

#### Metadata

| Field        | Value    |
|--------------|----------|
| Entrypoint   | 0x010F   |
| Data Size    | 16 bytes |
| Instructions | 2        |

```
      00 01 02 03 04 05 06 07  08 09 0A 0B 0C 0D 0E 0F
      -- -- -- -- -- -- -- --  -- -- -- -- -- -- -- --
0100:                                               66                 f
0110: 00 80 F8 FF FF 7F F8 FF  FF 7F 72 73 74 31 00     ..........rst1. 
```

#### Opcodes

```
  0: 0x010F [0x66] LOAD_EXT_SCHEDULER_MAIN: Load scheduler "rst1" with entities [EventEntity, EventEntity], work=19*
  1: 0x011E [0x00] END_REQSTACK()
```

### Event 65535.20

#### Metadata

| Field        | Value    |
|--------------|----------|
| Entrypoint   | 0x011F   |
| Data Size    | 14 bytes |
| Instructions | 2        |

```
      00 01 02 03 04 05 06 07  08 09 0A 0B 0C 0D 0E 0F
      -- -- -- -- -- -- -- --  -- -- -- -- -- -- -- --
0110:                                               53                 S
0120: F8 FF FF 7F F8 FF FF 7F  72 73 74 31 00           ........rst1.   
```

#### Opcodes

```
  0: 0x011F [0x53] WAIT_SCHEDULER_TASK: Wait for scheduler "rst1" with entities [EventEntity, EventEntity]
  1: 0x012C [0x00] END_REQSTACK()
```

### Event 65535.21

#### Metadata

| Field        | Value    |
|--------------|----------|
| Entrypoint   | 0x012D   |
| Data Size    | 16 bytes |
| Instructions | 2        |

```
      00 01 02 03 04 05 06 07  08 09 0A 0B 0C 0D 0E 0F
      -- -- -- -- -- -- -- --  -- -- -- -- -- -- -- --
0120:                                         66 00 80               f..
0130: F8 FF FF 7F F8 FF FF 7F  74 6C 73 30 00           ........tls0.   
```

#### Opcodes

```
  0: 0x012D [0x66] LOAD_EXT_SCHEDULER_MAIN: Load scheduler "tls0" with entities [EventEntity, EventEntity], work=19*
  1: 0x013C [0x00] END_REQSTACK()
```

### Event 65535.22

#### Metadata

| Field        | Value    |
|--------------|----------|
| Entrypoint   | 0x013D   |
| Data Size    | 14 bytes |
| Instructions | 2        |

```
      00 01 02 03 04 05 06 07  08 09 0A 0B 0C 0D 0E 0F
      -- -- -- -- -- -- -- --  -- -- -- -- -- -- -- --
0130:                                         53 F8 FF               S..
0140: FF 7F F8 FF FF 7F 74 6C  73 30 00                 ......tls0.     
```

#### Opcodes

```
  0: 0x013D [0x53] WAIT_SCHEDULER_TASK: Wait for scheduler "tls0" with entities [EventEntity, EventEntity]
  1: 0x014A [0x00] END_REQSTACK()
```

### Event 65535.23

#### Metadata

| Field        | Value    |
|--------------|----------|
| Entrypoint   | 0x014B   |
| Data Size    | 16 bytes |
| Instructions | 2        |

```
      00 01 02 03 04 05 06 07  08 09 0A 0B 0C 0D 0E 0F
      -- -- -- -- -- -- -- --  -- -- -- -- -- -- -- --
0140:                                   66 00 80 F8 FF             f....
0150: FF 7F F8 FF FF 7F 74 6C  73 31 00                 ......tls1.     
```

#### Opcodes

```
  0: 0x014B [0x66] LOAD_EXT_SCHEDULER_MAIN: Load scheduler "tls1" with entities [EventEntity, EventEntity], work=19*
  1: 0x015A [0x00] END_REQSTACK()
```

### Event 65535.24

#### Metadata

| Field        | Value    |
|--------------|----------|
| Entrypoint   | 0x015B   |
| Data Size    | 14 bytes |
| Instructions | 2        |

```
      00 01 02 03 04 05 06 07  08 09 0A 0B 0C 0D 0E 0F
      -- -- -- -- -- -- -- --  -- -- -- -- -- -- -- --
0150:                                   53 F8 FF FF 7F             S....
0160: F8 FF FF 7F 74 6C 73 31  00                       ....tls1.       
```

#### Opcodes

```
  0: 0x015B [0x53] WAIT_SCHEDULER_TASK: Wait for scheduler "tls1" with entities [EventEntity, EventEntity]
  1: 0x0168 [0x00] END_REQSTACK()
```

### Event 65535.25

#### Metadata

| Field        | Value    |
|--------------|----------|
| Entrypoint   | 0x0169   |
| Data Size    | 16 bytes |
| Instructions | 2        |

```
      00 01 02 03 04 05 06 07  08 09 0A 0B 0C 0D 0E 0F
      -- -- -- -- -- -- -- --  -- -- -- -- -- -- -- --
0160:                             66 00 80 F8 FF FF 7F           f......
0170: F8 FF FF 7F 74 68 73 31  00                       ....ths1.       
```

#### Opcodes

```
  0: 0x0169 [0x66] LOAD_EXT_SCHEDULER_MAIN: Load scheduler "ths1" with entities [EventEntity, EventEntity], work=19*
  1: 0x0178 [0x00] END_REQSTACK()
```

### Event 65535.26

#### Metadata

| Field        | Value    |
|--------------|----------|
| Entrypoint   | 0x0179   |
| Data Size    | 14 bytes |
| Instructions | 2        |

```
      00 01 02 03 04 05 06 07  08 09 0A 0B 0C 0D 0E 0F
      -- -- -- -- -- -- -- --  -- -- -- -- -- -- -- --
0170:                             53 F8 FF FF 7F F8 FF           S......
0180: FF 7F 74 68 73 31 00                              ..ths1.         
```

#### Opcodes

```
  0: 0x0179 [0x53] WAIT_SCHEDULER_TASK: Wait for scheduler "ths1" with entities [EventEntity, EventEntity]
  1: 0x0186 [0x00] END_REQSTACK()
```

### Event 65535.27

#### Metadata

| Field        | Value    |
|--------------|----------|
| Entrypoint   | 0x0187   |
| Data Size    | 16 bytes |
| Instructions | 2        |

```
      00 01 02 03 04 05 06 07  08 09 0A 0B 0C 0D 0E 0F
      -- -- -- -- -- -- -- --  -- -- -- -- -- -- -- --
0180:                      66  00 80 F8 FF FF 7F F8 FF         f........
0190: FF 7F 74 68 73 32 00                              ..ths2.         
```

#### Opcodes

```
  0: 0x0187 [0x66] LOAD_EXT_SCHEDULER_MAIN: Load scheduler "ths2" with entities [EventEntity, EventEntity], work=19*
  1: 0x0196 [0x00] END_REQSTACK()
```

### Event 65535.28

#### Metadata

| Field        | Value    |
|--------------|----------|
| Entrypoint   | 0x0197   |
| Data Size    | 14 bytes |
| Instructions | 2        |

```
      00 01 02 03 04 05 06 07  08 09 0A 0B 0C 0D 0E 0F
      -- -- -- -- -- -- -- --  -- -- -- -- -- -- -- --
0190:                      53  F8 FF FF 7F F8 FF FF 7F         S........
01A0: 74 68 73 32 00                                    ths2.           
```

#### Opcodes

```
  0: 0x0197 [0x53] WAIT_SCHEDULER_TASK: Wait for scheduler "ths2" with entities [EventEntity, EventEntity]
  1: 0x01A4 [0x00] END_REQSTACK()
```

### Event 65535.29

#### Metadata

| Field        | Value    |
|--------------|----------|
| Entrypoint   | 0x01A5   |
| Data Size    | 19 bytes |
| Instructions | 2        |

```
      00 01 02 03 04 05 06 07  08 09 0A 0B 0C 0D 0E 0F
      -- -- -- -- -- -- -- --  -- -- -- -- -- -- -- --
01A0:                5F 06 01  80 F8 FF FF 7F F8 FF FF       _..........
01B0: 7F 70 61 73 30 02 80 00                           .pas0...        
```

#### Opcodes

```
  0: 0x01A5 [0x5F] MULTI_HANDLER_COMPLEX(mode=0x06 - Load ext scheduler with flag (OpCode 0x5B mode 1, flag 1), ref=81*, entity1=EventEntity, entity2=EventEntity, string="pas0", extra=230*)
  1: 0x01B7 [0x00] END_REQSTACK()
```

### Event 65535.30

#### Metadata

| Field        | Value    |
|--------------|----------|
| Entrypoint   | 0x01B8   |
| Data Size    | 15 bytes |
| Instructions | 2        |

```
      00 01 02 03 04 05 06 07  08 09 0A 0B 0C 0D 0E 0F
      -- -- -- -- -- -- -- --  -- -- -- -- -- -- -- --
01B0:                          5F 07 F8 FF FF 7F F8 FF          _.......
01C0: FF 7F 70 61 73 30 00                              ..pas0.         
```

#### Opcodes

```
  0: 0x01B8 [0x5F] MULTI_HANDLER_COMPLEX(mode=0x07 - Wait scheduler task (OpCode 0x53))
  1: 0x01C6 [0x00] END_REQSTACK()
```

### Event 65535.31

#### Metadata

| Field        | Value    |
|--------------|----------|
| Entrypoint   | 0x01C7   |
| Data Size    | 16 bytes |
| Instructions | 2        |

```
      00 01 02 03 04 05 06 07  08 09 0A 0B 0C 0D 0E 0F
      -- -- -- -- -- -- -- --  -- -- -- -- -- -- -- --
01C0:                      66  03 80 F8 FF FF 7F F8 FF         f........
01D0: FF 7F 63 72 79 30 00                              ..cry0.         
```

#### Opcodes

```
  0: 0x01C7 [0x66] LOAD_EXT_SCHEDULER_MAIN: Load scheduler "cry0" with entities [EventEntity, EventEntity], work=157*
  1: 0x01D6 [0x00] END_REQSTACK()
```

### Event 65535.32

#### Metadata

| Field        | Value    |
|--------------|----------|
| Entrypoint   | 0x01D7   |
| Data Size    | 14 bytes |
| Instructions | 2        |

```
      00 01 02 03 04 05 06 07  08 09 0A 0B 0C 0D 0E 0F
      -- -- -- -- -- -- -- --  -- -- -- -- -- -- -- --
01D0:                      53  F8 FF FF 7F F8 FF FF 7F         S........
01E0: 63 72 79 30 00                                    cry0.           
```

#### Opcodes

```
  0: 0x01D7 [0x53] WAIT_SCHEDULER_TASK: Wait for scheduler "cry0" with entities [EventEntity, EventEntity]
  1: 0x01E4 [0x00] END_REQSTACK()
```

### Event 65535.33

#### Metadata

| Field        | Value    |
|--------------|----------|
| Entrypoint   | 0x01E5   |
| Data Size    | 16 bytes |
| Instructions | 2        |

```
      00 01 02 03 04 05 06 07  08 09 0A 0B 0C 0D 0E 0F
      -- -- -- -- -- -- -- --  -- -- -- -- -- -- -- --
01E0:                66 03 80  F8 FF FF 7F F8 FF FF 7F       f..........
01F0: 63 72 79 31 00                                    cry1.           
```

#### Opcodes

```
  0: 0x01E5 [0x66] LOAD_EXT_SCHEDULER_MAIN: Load scheduler "cry1" with entities [EventEntity, EventEntity], work=157*
  1: 0x01F4 [0x00] END_REQSTACK()
```

### Event 65535.34

#### Metadata

| Field        | Value    |
|--------------|----------|
| Entrypoint   | 0x01F5   |
| Data Size    | 14 bytes |
| Instructions | 2        |

```
      00 01 02 03 04 05 06 07  08 09 0A 0B 0C 0D 0E 0F
      -- -- -- -- -- -- -- --  -- -- -- -- -- -- -- --
01F0:                53 F8 FF  FF 7F F8 FF FF 7F 63 72       S........cr
0200: 79 31 00                                          y1.             
```

#### Opcodes

```
  0: 0x01F5 [0x53] WAIT_SCHEDULER_TASK: Wait for scheduler "cry1" with entities [EventEntity, EventEntity]
  1: 0x0202 [0x00] END_REQSTACK()
```

### Event 65535.35

#### Metadata

| Field        | Value    |
|--------------|----------|
| Entrypoint   | 0x0203   |
| Data Size    | 19 bytes |
| Instructions | 2        |

```
      00 01 02 03 04 05 06 07  08 09 0A 0B 0C 0D 0E 0F
      -- -- -- -- -- -- -- --  -- -- -- -- -- -- -- --
0200:          5F 06 04 80 F8  FF FF 7F F8 FF FF 7F 74     _...........t
0210: 6C 6B 30 05 80 00                                 lk0...          
```

#### Opcodes

```
  0: 0x0203 [0x5F] MULTI_HANDLER_COMPLEX(mode=0x06 - Load ext scheduler with flag (OpCode 0x5B mode 1, flag 1), ref=158*, entity1=EventEntity, entity2=EventEntity, string="tlk0", extra=110*)
  1: 0x0215 [0x00] END_REQSTACK()
```

### Event 65535.36

#### Metadata

| Field        | Value    |
|--------------|----------|
| Entrypoint   | 0x0216   |
| Data Size    | 15 bytes |
| Instructions | 2        |

```
      00 01 02 03 04 05 06 07  08 09 0A 0B 0C 0D 0E 0F
      -- -- -- -- -- -- -- --  -- -- -- -- -- -- -- --
0210:                   5F 07  F8 FF FF 7F F8 FF FF 7F        _.........
0220: 74 6C 6B 30 00                                    tlk0.           
```

#### Opcodes

```
  0: 0x0216 [0x5F] MULTI_HANDLER_COMPLEX(mode=0x07 - Wait scheduler task (OpCode 0x53))
  1: 0x0224 [0x00] END_REQSTACK()
```

### Event 65535.37

#### Metadata

| Field        | Value    |
|--------------|----------|
| Entrypoint   | 0x0225   |
| Data Size    | 19 bytes |
| Instructions | 2        |

```
      00 01 02 03 04 05 06 07  08 09 0A 0B 0C 0D 0E 0F
      -- -- -- -- -- -- -- --  -- -- -- -- -- -- -- --
0220:                5F 06 04  80 F8 FF FF 7F F8 FF FF       _..........
0230: 7F 74 6C 6B 31 06 80 00                           .tlk1...        
```

#### Opcodes

```
  0: 0x0225 [0x5F] MULTI_HANDLER_COMPLEX(mode=0x06 - Load ext scheduler with flag (OpCode 0x5B mode 1, flag 1), ref=158*, entity1=EventEntity, entity2=EventEntity, string="tlk1", extra=140*)
  1: 0x0237 [0x00] END_REQSTACK()
```

### Event 65535.38

#### Metadata

| Field        | Value    |
|--------------|----------|
| Entrypoint   | 0x0238   |
| Data Size    | 15 bytes |
| Instructions | 2        |

```
      00 01 02 03 04 05 06 07  08 09 0A 0B 0C 0D 0E 0F
      -- -- -- -- -- -- -- --  -- -- -- -- -- -- -- --
0230:                          5F 07 F8 FF FF 7F F8 FF          _.......
0240: FF 7F 74 6C 6B 31 00                              ..tlk1.         
```

#### Opcodes

```
  0: 0x0238 [0x5F] MULTI_HANDLER_COMPLEX(mode=0x07 - Wait scheduler task (OpCode 0x53))
  1: 0x0246 [0x00] END_REQSTACK()
```

### Event 65535.39

#### Metadata

| Field        | Value    |
|--------------|----------|
| Entrypoint   | 0x0247   |
| Data Size    | 19 bytes |
| Instructions | 2        |

```
      00 01 02 03 04 05 06 07  08 09 0A 0B 0C 0D 0E 0F
      -- -- -- -- -- -- -- --  -- -- -- -- -- -- -- --
0240:                      5F  06 04 80 F8 FF FF 7F F8         _........
0250: FF FF 7F 74 6C 6B 32 07  80 00                    ...tlk2...      
```

#### Opcodes

```
  0: 0x0247 [0x5F] MULTI_HANDLER_COMPLEX(mode=0x06 - Load ext scheduler with flag (OpCode 0x5B mode 1, flag 1), ref=158*, entity1=EventEntity, entity2=EventEntity, string="tlk2", extra=130*)
  1: 0x0259 [0x00] END_REQSTACK()
```

### Event 65535.40

#### Metadata

| Field        | Value    |
|--------------|----------|
| Entrypoint   | 0x025A   |
| Data Size    | 15 bytes |
| Instructions | 2        |

```
      00 01 02 03 04 05 06 07  08 09 0A 0B 0C 0D 0E 0F
      -- -- -- -- -- -- -- --  -- -- -- -- -- -- -- --
0250:                                5F 07 F8 FF FF 7F            _.....
0260: F8 FF FF 7F 74 6C 6B 32  00                       ....tlk2.       
```

#### Opcodes

```
  0: 0x025A [0x5F] MULTI_HANDLER_COMPLEX(mode=0x07 - Wait scheduler task (OpCode 0x53))
  1: 0x0268 [0x00] END_REQSTACK()
```

### Event 65535.41

#### Metadata

| Field        | Value    |
|--------------|----------|
| Entrypoint   | 0x0269   |
| Data Size    | 19 bytes |
| Instructions | 2        |

```
      00 01 02 03 04 05 06 07  08 09 0A 0B 0C 0D 0E 0F
      -- -- -- -- -- -- -- --  -- -- -- -- -- -- -- --
0260:                             5F 06 04 80 F8 FF FF           _......
0270: 7F F8 FF FF 7F 74 6C 61  30 05 80 00              .....tla0...    
```

#### Opcodes

```
  0: 0x0269 [0x5F] MULTI_HANDLER_COMPLEX(mode=0x06 - Load ext scheduler with flag (OpCode 0x5B mode 1, flag 1), ref=158*, entity1=EventEntity, entity2=EventEntity, string="tla0", extra=110*)
  1: 0x027B [0x00] END_REQSTACK()
```

### Event 65535.42

#### Metadata

| Field        | Value    |
|--------------|----------|
| Entrypoint   | 0x027C   |
| Data Size    | 15 bytes |
| Instructions | 2        |

```
      00 01 02 03 04 05 06 07  08 09 0A 0B 0C 0D 0E 0F
      -- -- -- -- -- -- -- --  -- -- -- -- -- -- -- --
0270:                                      5F 07 F8 FF              _...
0280: FF 7F F8 FF FF 7F 74 6C  61 30 00                 ......tla0.     
```

#### Opcodes

```
  0: 0x027C [0x5F] MULTI_HANDLER_COMPLEX(mode=0x07 - Wait scheduler task (OpCode 0x53))
  1: 0x028A [0x00] END_REQSTACK()
```

### Event 65535.43

#### Metadata

| Field        | Value    |
|--------------|----------|
| Entrypoint   | 0x028B   |
| Data Size    | 19 bytes |
| Instructions | 2        |

```
      00 01 02 03 04 05 06 07  08 09 0A 0B 0C 0D 0E 0F
      -- -- -- -- -- -- -- --  -- -- -- -- -- -- -- --
0280:                                   5F 06 04 80 F8             _....
0290: FF FF 7F F8 FF FF 7F 74  6C 61 31 08 80 00        .......tla1...  
```

#### Opcodes

```
  0: 0x028B [0x5F] MULTI_HANDLER_COMPLEX(mode=0x06 - Load ext scheduler with flag (OpCode 0x5B mode 1, flag 1), ref=158*, entity1=EventEntity, entity2=EventEntity, string="tla1", extra=142*)
  1: 0x029D [0x00] END_REQSTACK()
```

### Event 65535.44

#### Metadata

| Field        | Value    |
|--------------|----------|
| Entrypoint   | 0x029E   |
| Data Size    | 15 bytes |
| Instructions | 2        |

```
      00 01 02 03 04 05 06 07  08 09 0A 0B 0C 0D 0E 0F
      -- -- -- -- -- -- -- --  -- -- -- -- -- -- -- --
0290:                                            5F 07                _.
02A0: F8 FF FF 7F F8 FF FF 7F  74 6C 61 31 00           ........tla1.   
```

#### Opcodes

```
  0: 0x029E [0x5F] MULTI_HANDLER_COMPLEX(mode=0x07 - Wait scheduler task (OpCode 0x53))
  1: 0x02AC [0x00] END_REQSTACK()
```

### Event 65535.45

#### Metadata

| Field        | Value    |
|--------------|----------|
| Entrypoint   | 0x02AD   |
| Data Size    | 19 bytes |
| Instructions | 2        |

```
      00 01 02 03 04 05 06 07  08 09 0A 0B 0C 0D 0E 0F
      -- -- -- -- -- -- -- --  -- -- -- -- -- -- -- --
02A0:                                         5F 06 04               _..
02B0: 80 F8 FF FF 7F F8 FF FF  7F 74 6C 61 32 09 80 00  .........tla2...
```

#### Opcodes

```
  0: 0x02AD [0x5F] MULTI_HANDLER_COMPLEX(mode=0x06 - Load ext scheduler with flag (OpCode 0x5B mode 1, flag 1), ref=158*, entity1=EventEntity, entity2=EventEntity, string="tla2", extra=150*)
  1: 0x02BF [0x00] END_REQSTACK()
```

### Event 65535.46

#### Metadata

| Field        | Value    |
|--------------|----------|
| Entrypoint   | 0x02C0   |
| Data Size    | 15 bytes |
| Instructions | 2        |

```
      00 01 02 03 04 05 06 07  08 09 0A 0B 0C 0D 0E 0F
      -- -- -- -- -- -- -- --  -- -- -- -- -- -- -- --
02C0: 5F 07 F8 FF FF 7F F8 FF  FF 7F 74 6C 61 32 00     _.........tla2. 
```

#### Opcodes

```
  0: 0x02C0 [0x5F] MULTI_HANDLER_COMPLEX(mode=0x07 - Wait scheduler task (OpCode 0x53))
  1: 0x02CE [0x00] END_REQSTACK()
```

### Event 65535.47

#### Metadata

| Field        | Value    |
|--------------|----------|
| Entrypoint   | 0x02CF   |
| Data Size    | 19 bytes |
| Instructions | 2        |

```
      00 01 02 03 04 05 06 07  08 09 0A 0B 0C 0D 0E 0F
      -- -- -- -- -- -- -- --  -- -- -- -- -- -- -- --
02C0:                                               5F                 _
02D0: 06 0A 80 F8 FF FF 7F F8  FF FF 7F 74 6C 6B 30 05  ...........tlk0.
02E0: 80 00                                             ..              
```

#### Opcodes

```
  0: 0x02CF [0x5F] MULTI_HANDLER_COMPLEX(mode=0x06 - Load ext scheduler with flag (OpCode 0x5B mode 1, flag 1), ref=159*, entity1=EventEntity, entity2=EventEntity, string="tlk0", extra=110*)
  1: 0x02E1 [0x00] END_REQSTACK()
```

### Event 65535.48

#### Metadata

| Field        | Value    |
|--------------|----------|
| Entrypoint   | 0x02E2   |
| Data Size    | 15 bytes |
| Instructions | 2        |

```
      00 01 02 03 04 05 06 07  08 09 0A 0B 0C 0D 0E 0F
      -- -- -- -- -- -- -- --  -- -- -- -- -- -- -- --
02E0:       5F 07 F8 FF FF 7F  F8 FF FF 7F 74 6C 6B 30    _.........tlk0
02F0: 00                                                .               
```

#### Opcodes

```
  0: 0x02E2 [0x5F] MULTI_HANDLER_COMPLEX(mode=0x07 - Wait scheduler task (OpCode 0x53))
  1: 0x02F0 [0x00] END_REQSTACK()
```

### Event 65535.49

#### Metadata

| Field        | Value    |
|--------------|----------|
| Entrypoint   | 0x02F1   |
| Data Size    | 19 bytes |
| Instructions | 2        |

```
      00 01 02 03 04 05 06 07  08 09 0A 0B 0C 0D 0E 0F
      -- -- -- -- -- -- -- --  -- -- -- -- -- -- -- --
02F0:    5F 06 0A 80 F8 FF FF  7F F8 FF FF 7F 74 6C 6B   _...........tlk
0300: 31 05 80 00                                       1...            
```

#### Opcodes

```
  0: 0x02F1 [0x5F] MULTI_HANDLER_COMPLEX(mode=0x06 - Load ext scheduler with flag (OpCode 0x5B mode 1, flag 1), ref=159*, entity1=EventEntity, entity2=EventEntity, string="tlk1", extra=110*)
  1: 0x0303 [0x00] END_REQSTACK()
```

### Event 65535.50

#### Metadata

| Field        | Value    |
|--------------|----------|
| Entrypoint   | 0x0304   |
| Data Size    | 15 bytes |
| Instructions | 2        |

```
      00 01 02 03 04 05 06 07  08 09 0A 0B 0C 0D 0E 0F
      -- -- -- -- -- -- -- --  -- -- -- -- -- -- -- --
0300:             5F 07 F8 FF  FF 7F F8 FF FF 7F 74 6C      _.........tl
0310: 6B 31 00                                          k1.             
```

#### Opcodes

```
  0: 0x0304 [0x5F] MULTI_HANDLER_COMPLEX(mode=0x07 - Wait scheduler task (OpCode 0x53))
  1: 0x0312 [0x00] END_REQSTACK()
```

### Event 65535.51

#### Metadata

| Field        | Value    |
|--------------|----------|
| Entrypoint   | 0x0313   |
| Data Size    | 19 bytes |
| Instructions | 2        |

```
      00 01 02 03 04 05 06 07  08 09 0A 0B 0C 0D 0E 0F
      -- -- -- -- -- -- -- --  -- -- -- -- -- -- -- --
0310:          5F 06 0A 80 F8  FF FF 7F F8 FF FF 7F 70     _...........p
0320: 6E 74 30 05 80 00                                 nt0...          
```

#### Opcodes

```
  0: 0x0313 [0x5F] MULTI_HANDLER_COMPLEX(mode=0x06 - Load ext scheduler with flag (OpCode 0x5B mode 1, flag 1), ref=159*, entity1=EventEntity, entity2=EventEntity, string="pnt0", extra=110*)
  1: 0x0325 [0x00] END_REQSTACK()
```

### Event 65535.52

#### Metadata

| Field        | Value    |
|--------------|----------|
| Entrypoint   | 0x0326   |
| Data Size    | 15 bytes |
| Instructions | 2        |

```
      00 01 02 03 04 05 06 07  08 09 0A 0B 0C 0D 0E 0F
      -- -- -- -- -- -- -- --  -- -- -- -- -- -- -- --
0320:                   5F 07  F8 FF FF 7F F8 FF FF 7F        _.........
0330: 70 6E 74 30 00                                    pnt0.           
```

#### Opcodes

```
  0: 0x0326 [0x5F] MULTI_HANDLER_COMPLEX(mode=0x07 - Wait scheduler task (OpCode 0x53))
  1: 0x0334 [0x00] END_REQSTACK()
```

### Event 65535.53

#### Metadata

| Field        | Value    |
|--------------|----------|
| Entrypoint   | 0x0335   |
| Data Size    | 19 bytes |
| Instructions | 2        |

```
      00 01 02 03 04 05 06 07  08 09 0A 0B 0C 0D 0E 0F
      -- -- -- -- -- -- -- --  -- -- -- -- -- -- -- --
0330:                5F 06 0A  80 F8 FF FF 7F F8 FF FF       _..........
0340: 7F 70 6E 74 31 05 80 00                           .pnt1...        
```

#### Opcodes

```
  0: 0x0335 [0x5F] MULTI_HANDLER_COMPLEX(mode=0x06 - Load ext scheduler with flag (OpCode 0x5B mode 1, flag 1), ref=159*, entity1=EventEntity, entity2=EventEntity, string="pnt1", extra=110*)
  1: 0x0347 [0x00] END_REQSTACK()
```

### Event 65535.54

#### Metadata

| Field        | Value    |
|--------------|----------|
| Entrypoint   | 0x0348   |
| Data Size    | 15 bytes |
| Instructions | 2        |

```
      00 01 02 03 04 05 06 07  08 09 0A 0B 0C 0D 0E 0F
      -- -- -- -- -- -- -- --  -- -- -- -- -- -- -- --
0340:                          5F 07 F8 FF FF 7F F8 FF          _.......
0350: FF 7F 70 6E 74 31 00                              ..pnt1.         
```

#### Opcodes

```
  0: 0x0348 [0x5F] MULTI_HANDLER_COMPLEX(mode=0x07 - Wait scheduler task (OpCode 0x53))
  1: 0x0356 [0x00] END_REQSTACK()
```

### Event 65535.55

#### Metadata

| Field        | Value   |
|--------------|---------|
| Entrypoint   | 0x0357  |
| Data Size    | 7 bytes |
| Instructions | 3       |

```
      00 01 02 03 04 05 06 07  08 09 0A 0B 0C 0D 0E 0F
      -- -- -- -- -- -- -- --  -- -- -- -- -- -- -- --
0350:                      AB  03 AC 01 0B 80 00               .......  
```

#### Opcodes

```
  0: 0x0357 [0xAB] EventEntity->Render.Flags0 ^= 0x20000 // Toggle bit 17
  1: 0x0359 [0xAC] EventEntity->StatusEvent = 1*
  2: 0x035D [0x00] END_REQSTACK()
```

### Event 65535.56

#### Metadata

| Field        | Value   |
|--------------|---------|
| Entrypoint   | 0x035E  |
| Data Size    | 7 bytes |
| Instructions | 3       |

```
      00 01 02 03 04 05 06 07  08 09 0A 0B 0C 0D 0E 0F
      -- -- -- -- -- -- -- --  -- -- -- -- -- -- -- --
0350:                                            AC 01                ..
0360: 0C 80 AB 04 00                                    .....           
```

#### Opcodes

```
  0: 0x035E [0xAC] EventEntity->StatusEvent = 0*
  1: 0x0362 [0xAB] EventEntity->Render.Flags0 |= 0x40000 // Set bit 18
  2: 0x0364 [0x00] END_REQSTACK()
```

### Event 65535.57

#### Metadata

| Field        | Value    |
|--------------|----------|
| Entrypoint   | 0x0365   |
| Data Size    | 29 bytes |
| Instructions | 3        |

```
      00 01 02 03 04 05 06 07  08 09 0A 0B 0C 0D 0E 0F
      -- -- -- -- -- -- -- --  -- -- -- -- -- -- -- --
0360:                66 00 80  F8 FF FF 7F F8 FF FF 7F       f..........
0370: 73 69 74 30 53 F8 FF FF  7F F8 FF FF 7F 73 69 74  sit0S........sit
0380: 30 00                                             0.              
```

#### Opcodes

```
  0: 0x0365 [0x66] LOAD_EXT_SCHEDULER_MAIN: Load scheduler "sit0" with entities [EventEntity, EventEntity], work=19*
  1: 0x0374 [0x53] WAIT_SCHEDULER_TASK: Wait for scheduler "sit0" with entities [EventEntity, EventEntity]
  2: 0x0381 [0x00] END_REQSTACK()
```

### Event 65535.58

#### Metadata

| Field        | Value    |
|--------------|----------|
| Entrypoint   | 0x0382   |
| Data Size    | 29 bytes |
| Instructions | 3        |

```
      00 01 02 03 04 05 06 07  08 09 0A 0B 0C 0D 0E 0F
      -- -- -- -- -- -- -- --  -- -- -- -- -- -- -- --
0380:       66 00 80 F8 FF FF  7F F8 FF FF 7F 73 69 74    f..........sit
0390: 31 53 F8 FF FF 7F F8 FF  FF 7F 73 69 74 31 00     1S........sit1. 
```

#### Opcodes

```
  0: 0x0382 [0x66] LOAD_EXT_SCHEDULER_MAIN: Load scheduler "sit1" with entities [EventEntity, EventEntity], work=19*
  1: 0x0391 [0x53] WAIT_SCHEDULER_TASK: Wait for scheduler "sit1" with entities [EventEntity, EventEntity]
  2: 0x039E [0x00] END_REQSTACK()
```

### Event 65535.59

#### Metadata

| Field        | Value    |
|--------------|----------|
| Entrypoint   | 0x039F   |
| Data Size    | 16 bytes |
| Instructions | 2        |

```
      00 01 02 03 04 05 06 07  08 09 0A 0B 0C 0D 0E 0F
      -- -- -- -- -- -- -- --  -- -- -- -- -- -- -- --
0390:                                               5B                 [
03A0: 0D 80 F8 FF FF 7F F8 FF  FF 7F 61 74 61 30 00     ..........ata0. 
```

#### Opcodes

```
  0: 0x039F [0x5B] LOAD_EXT_SCHEDULER: Load scheduler "ata0" with entities [EventEntity, EventEntity], work=3407*
  1: 0x03AE [0x00] END_REQSTACK()
```

### Event 65535.60

#### Metadata

| Field        | Value    |
|--------------|----------|
| Entrypoint   | 0x03AF   |
| Data Size    | 14 bytes |
| Instructions | 2        |

```
      00 01 02 03 04 05 06 07  08 09 0A 0B 0C 0D 0E 0F
      -- -- -- -- -- -- -- --  -- -- -- -- -- -- -- --
03A0:                                               53                 S
03B0: F8 FF FF 7F F8 FF FF 7F  61 74 61 30 00           ........ata0.   
```

#### Opcodes

```
  0: 0x03AF [0x53] WAIT_SCHEDULER_TASK: Wait for scheduler "ata0" with entities [EventEntity, EventEntity]
  1: 0x03BC [0x00] END_REQSTACK()
```

### Event 28

#### Metadata

| Field        | Value   |
|--------------|---------|
| Entrypoint   | 0x03BD  |
| Data Size    | 7 bytes |
| Instructions | 2       |

```
      00 01 02 03 04 05 06 07  08 09 0A 0B 0C 0D 0E 0F
      -- -- -- -- -- -- -- --  -- -- -- -- -- -- -- --
03B0:                                         92 01 F8               ...
03C0: FF FF 7F 00                                       ....            
```

#### Opcodes

```
  0: 0x03BD [0x92] EventEntity->Render.Flags3 ^= 0x01
  1: 0x03C3 [0x00] END_REQSTACK()
```

### Event 65535.61

#### Metadata

| Field        | Value    |
|--------------|----------|
| Entrypoint   | 0x03C4   |
| Data Size    | 22 bytes |
| Instructions | 8        |

```
      00 01 02 03 04 05 06 07  08 09 0A 0B 0C 0D 0E 0F
      -- -- -- -- -- -- -- --  -- -- -- -- -- -- -- --
03C0:             32 0E 80 1F  00 0F 80 10 80 11 80 1F      2...........
03D0: 01 6F 1E F0 FF FF 7F 6F  70 00                    .o.....op.      
```

#### Opcodes

```
  0: 0x03C4 [0x32] ExtData[1]->MainSpeed = 40* * 0.1
  1: 0x03C7 [0x1F] MOVE_ENTITY: EventEntity moves to X=313.984*, Z=81.226*, Y=8.099*
  2: 0x03CF [0x1F] MOVE_ENTITY: Update entity position (mode=1)
  3: 0x03D1 [0x6F] WAIT_FRAME_DELAY: Yield until WaitTime reaches zero
  4: 0x03D2 [0x1E] EventEntity looks at LocalPlayer and starts talking
  5: 0x03D7 [0x6F] WAIT_FRAME_DELAY: Yield until WaitTime reaches zero
  6: 0x03D8 [0x70] WAIT_ENTITY_RENDER_FLAG: Wait while EventEntity->Render.Flags3 bit 2 is set (cancel turn if not)
  7: 0x03D9 [0x00] END_REQSTACK()
```

### Event 29

#### Metadata

| Field        | Value   |
|--------------|---------|
| Entrypoint   | 0x03DA  |
| Data Size    | 7 bytes |
| Instructions | 2       |

```
      00 01 02 03 04 05 06 07  08 09 0A 0B 0C 0D 0E 0F
      -- -- -- -- -- -- -- --  -- -- -- -- -- -- -- --
03D0:                                92 01 F8 FF FF 7F            ......
03E0: 00                                                .               
```

#### Opcodes

```
  0: 0x03DA [0x92] EventEntity->Render.Flags3 ^= 0x01
  1: 0x03E0 [0x00] END_REQSTACK()
```

### Event 65535.62

#### Metadata

| Field        | Value    |
|--------------|----------|
| Entrypoint   | 0x03E1   |
| Data Size    | 22 bytes |
| Instructions | 8        |

```
      00 01 02 03 04 05 06 07  08 09 0A 0B 0C 0D 0E 0F
      -- -- -- -- -- -- -- --  -- -- -- -- -- -- -- --
03E0:    32 12 80 1F 00 13 80  14 80 15 80 1F 01 6F 1E   2............o.
03F0: BF 92 06 01 6F 70 00                              ....op.         
```

#### Opcodes

```
  0: 0x03E1 [0x32] ExtData[1]->MainSpeed = 13* * 0.1
  1: 0x03E4 [0x1F] MOVE_ENTITY: EventEntity moves to X=321.689*, Z=81.995*, Y=7.999*
  2: 0x03EC [0x1F] MOVE_ENTITY: Update entity position (mode=1)
  3: 0x03EE [0x6F] WAIT_FRAME_DELAY: Yield until WaitTime reaches zero
  4: 0x03EF [0x1E] EventEntity looks at Maat (ID: 17207999/0x010692BF) and starts talking
  5: 0x03F4 [0x6F] WAIT_FRAME_DELAY: Yield until WaitTime reaches zero
  6: 0x03F5 [0x70] WAIT_ENTITY_RENDER_FLAG: Wait while EventEntity->Render.Flags3 bit 2 is set (cancel turn if not)
  7: 0x03F6 [0x00] END_REQSTACK()
```

### Event 65535.63

#### Metadata

| Field        | Value    |
|--------------|----------|
| Entrypoint   | 0x03F7   |
| Data Size    | 15 bytes |
| Instructions | 5        |

```
      00 01 02 03 04 05 06 07  08 09 0A 0B 0C 0D 0E 0F
      -- -- -- -- -- -- -- --  -- -- -- -- -- -- -- --
03F0:                      32  12 80 1F 00 16 80 17 80         2........
0400: 15 80 1F 01 6F 00                                 ....o.          
```

#### Opcodes

```
  0: 0x03F7 [0x32] ExtData[1]->MainSpeed = 13* * 0.1
  1: 0x03FA [0x1F] MOVE_ENTITY: EventEntity moves to X=319.823*, Z=81.684*, Y=7.999*
  2: 0x0402 [0x1F] MOVE_ENTITY: Update entity position (mode=1)
  3: 0x0404 [0x6F] WAIT_FRAME_DELAY: Yield until WaitTime reaches zero
  4: 0x0405 [0x00] END_REQSTACK()
```

### Event 65535.64

#### Metadata

| Field        | Value    |
|--------------|----------|
| Entrypoint   | 0x0406   |
| Data Size    | 15 bytes |
| Instructions | 5        |

```
      00 01 02 03 04 05 06 07  08 09 0A 0B 0C 0D 0E 0F
      -- -- -- -- -- -- -- --  -- -- -- -- -- -- -- --
0400:                   32 12  80 1F 00 18 80 19 80 15        2.........
0410: 80 1F 01 6F 00                                    ...o.           
```

#### Opcodes

```
  0: 0x0406 [0x32] ExtData[1]->MainSpeed = 13* * 0.1
  1: 0x0409 [0x1F] MOVE_ENTITY: EventEntity moves to X=319.784*, Z=83.482*, Y=7.999*
  2: 0x0411 [0x1F] MOVE_ENTITY: Update entity position (mode=1)
  3: 0x0413 [0x6F] WAIT_FRAME_DELAY: Yield until WaitTime reaches zero
  4: 0x0414 [0x00] END_REQSTACK()
```

### Event 65535.65

#### Metadata

| Field        | Value    |
|--------------|----------|
| Entrypoint   | 0x0415   |
| Data Size    | 15 bytes |
| Instructions | 5        |

```
      00 01 02 03 04 05 06 07  08 09 0A 0B 0C 0D 0E 0F
      -- -- -- -- -- -- -- --  -- -- -- -- -- -- -- --
0410:                32 0E 80  1F 00 1A 80 1B 80 1C 80       2..........
0420: 1F 01 6F 00                                       ..o.            
```

#### Opcodes

```
  0: 0x0415 [0x32] ExtData[1]->MainSpeed = 40* * 0.1
  1: 0x0418 [0x1F] MOVE_ENTITY: EventEntity moves to X=313.650*, Z=85.471*, Y=8.188*
  2: 0x0420 [0x1F] MOVE_ENTITY: Update entity position (mode=1)
  3: 0x0422 [0x6F] WAIT_FRAME_DELAY: Yield until WaitTime reaches zero
  4: 0x0423 [0x00] END_REQSTACK()
```

### Event 65535.66

#### Metadata

| Field        | Value    |
|--------------|----------|
| Entrypoint   | 0x0424   |
| Data Size    | 14 bytes |
| Instructions | 4        |

```
      00 01 02 03 04 05 06 07  08 09 0A 0B 0C 0D 0E 0F
      -- -- -- -- -- -- -- --  -- -- -- -- -- -- -- --
0420:             32 0E 80 1F  00 1D 80 1E 80 1F 80 1F      2...........
0430: 01 00                                             ..              
```

#### Opcodes

```
  0: 0x0424 [0x32] ExtData[1]->MainSpeed = 40* * 0.1
  1: 0x0427 [0x1F] MOVE_ENTITY: EventEntity moves to X=289.299*, Z=82.502*, Y=8.263*
  2: 0x042F [0x1F] MOVE_ENTITY: Update entity position (mode=1)
  3: 0x0431 [0x00] END_REQSTACK()
```
