# 17207827

## Common Data

| Field            | Value                    |
|------------------|--------------------------|
| Zone             | Batallia Downs (ID: 105) |
| Block Size       | 2460 bytes               |
| Total Events     | 2                        |
| References Count | 64                       |

## List of Events

| Event ID              | Entrypoint   |   Size |   Instructions |
|-----------------------|--------------|--------|----------------|
| [65535](#event-65535) | 0x0000       |      1 |              1 |
| [0](#event-0)         | 0x0001       |   2178 |            293 |

## DAT References (imed_data)

|   Index | Hex Value   |   Dec Value |
|---------|-------------|-------------|
|       0 | 0x0000      |           0 |
|       1 | 0x00C8      |         200 |
|       2 | 0x0013      |          19 |
|       3 | 0x0001      |           1 |
|       4 | 0x0047      |          71 |
|       5 | 0x001E      |          30 |
|       6 | 0x0003      |           3 |
|       7 | 0x003C      |          60 |
|       8 | 0x1D4A      |        7498 |
|       9 | 0x0078      |         120 |
|      10 | 0x007C      |         124 |
|      11 | 0x1D4B      |        7499 |
|      12 | 0x005A      |          90 |
|      13 | 0x1D4C      |        7500 |
|      14 | 0x1D4D      |        7501 |
|      15 | 0x1D4E      |        7502 |
|      16 | 0x000A      |          10 |
|      17 | 0x1D4F      |        7503 |
|      18 | 0x1D50      |        7504 |
|      19 | 0x1D51      |        7505 |
|      20 | 0x012C      |         300 |
|      21 | 0x1D52      |        7506 |
|      22 | 0x1D53      |        7507 |
|      23 | 0x1D54      |        7508 |
|      24 | 0x1D55      |        7509 |
|      25 | 0x007F      |         127 |
|      26 | 0x1D56      |        7510 |
|      27 | 0x1D57      |        7511 |
|      28 | 0x016A      |         362 |
|      29 | 0x1D58      |        7512 |
|      30 | 0x1D59      |        7513 |
|      31 | 0x1D5A      |        7514 |
|      32 | 0x1D5B      |        7515 |
|      33 | 0x0CB3      |        3251 |
|      34 | 0x1D5C      |        7516 |
|      35 | 0x1D5D      |        7517 |
|      36 | 0x1D5E      |        7518 |
|      37 | 0x1D5F      |        7519 |
|      38 | 0x1D60      |        7520 |
|      39 | 0x0014      |          20 |
|      40 | 0x1D61      |        7521 |
|      41 | 0x1D62      |        7522 |
|      42 | 0x1D63      |        7523 |
|      43 | 0x1D64      |        7524 |
|      44 | 0x1D65      |        7525 |
|      45 | 0x1D66      |        7526 |
|      46 | 0x1D67      |        7527 |
|      47 | 0x1D68      |        7528 |
|      48 | 0x1D69      |        7529 |
|      49 | 0x1D6A      |        7530 |
|      50 | 0x1D6B      |        7531 |
|      51 | 0x0154      |         340 |
|      52 | 0x1D6C      |        7532 |
|      53 | 0x1D6D      |        7533 |
|      54 | 0x0064      |         100 |
|      55 | 0x1D6E      |        7534 |
|      56 | 0x1D6F      |        7535 |
|      57 | 0x1D70      |        7536 |
|      58 | 0x1D71      |        7537 |
|      59 | 0x1D72      |        7538 |
|      60 | 0x000F      |          15 |
|      61 | 0x1D73      |        7539 |
|      62 | 0x00B4      |         180 |
|      63 | 0x0072      |         114 |

## Events

### Event 65535

#### Metadata

| Field        | Value   |
|--------------|---------|
| Entrypoint   | 0x0000  |
| Data Size    | 1 bytes |
| Instructions | 1       |

```
      00 01 02 03 04 05 06 07  08 09 0A 0B 0C 0D 0E 0F
      -- -- -- -- -- -- -- --  -- -- -- -- -- -- -- --
0000: 00                                                .               
```

#### Opcodes

```
  0: 0x0000 [0x00] END_REQSTACK()
```

### Event 0

#### Metadata

| Field        | Value      |
|--------------|------------|
| Entrypoint   | 0x0001     |
| Data Size    | 2178 bytes |
| Instructions | 293        |

```
      00 01 02 03 04 05 06 07  08 09 0A 0B 0C 0D 0E 0F
      -- -- -- -- -- -- -- --  -- -- -- -- -- -- -- --
0000:    20 01 46 01 42 5D 00  80 01 80 45 01 80 F0 FF    .F.B]....E....
0010: FF 7F F0 FF FF 7F 66 64  6F 31 00 80 55 01 80 F0  ......fdo1..U...
0020: FF FF 7F F0 FF FF 7F 66  64 6F 31 38 02 80 94 01  .......fdo18....
0030: F0 FF FF 7F 94 01 F8 FF  FF 7F 97 00 80 03 80 29  ...............)
0040: 03 F0 FF FF 7F 0D 27 03  15 92 06 01 02 45 04 80  ......'......E..
0050: F8 FF FF 7F F8 FF FF 7F  78 30 30 30 00 80 55 04  ........x000..U.
0060: 80 F8 FF FF 7F F8 FF FF  7F 78 30 30 30 45 01 80  .........x000E..
0070: F8 FF FF 7F F8 FF FF 7F  66 64 69 31 00 80 55 01  ........fdi1..U.
0080: 80 F8 FF FF 7F F8 FF FF  7F 66 64 69 31 1C 05 80  .........fdi1...
0090: 62 06 80 F8 FF FF 7F F8  FF FF 7F 6D 61 69 6E 00  b..........main.
00A0: 80 1C 07 80 4E 00 15 92  06 01 79 00 15 92 06 01  ....N.....y.....
00B0: 13 92 06 01 27 03 15 92  06 01 03 45 04 80 F8 FF  ....'......E....
00C0: FF 7F F8 FF FF 7F 78 30  30 31 00 80 55 04 80 F8  ......x001..U...
00D0: FF FF 7F F8 FF FF 7F 78  30 30 31 2A 03 15 92 06  .......x001*....
00E0: 01 4A F0 FF FF 7F 15 92  06 01 2B 15 92 06 01 08  .J........+.....
00F0: 80 23 28 03 15 92 06 01  04 1C 09 80 4E 01 F0 FF  .#(.........N...
0100: FF 7F 45 04 80 F8 FF FF  7F F8 FF FF 7F 78 30 30  ..E..........x00
0110: 32 00 80 55 04 80 F8 FF  FF 7F F8 FF FF 7F 78 30  2..U..........x0
0120: 30 32 2A 03 15 92 06 01  27 03 15 92 06 01 05 1C  02*.....'.......
0130: 07 80 27 03 F0 FF FF 7F  0E 2A 03 15 92 06 01 5C  ..'......*.....\
0140: 00 0A 80 5C 01 0A 80 2B  15 92 06 01 0B 80 23 27  ...\...+......#'
0150: 03 15 92 06 01 0E 1C 0C  80 45 04 80 F8 FF FF 7F  .........E......
0160: F8 FF FF 7F 78 30 30 33  00 80 1C 05 80 2B 15 92  ....x003.....+..
0170: 06 01 0D 80 23 2B 15 92  06 01 0E 80 23 52 04 80  ....#+......#R..
0180: F8 FF FF 7F F8 FF FF 7F  78 30 30 33 45 04 80 F8  ........x003E...
0190: FF FF 7F F8 FF FF 7F 78  30 30 34 00 80 2B 15 92  .......x004..+..
01A0: 06 01 0F 80 23 55 04 80  F8 FF FF 7F F8 FF FF 7F  ....#U..........
01B0: 78 30 30 34 27 03 15 92  06 01 0F 1C 10 80 45 01  x004'.........E.
01C0: 80 F0 FF FF 7F F0 FF FF  7F 6F 76 6C 31 00 80 45  .........ovl1..E
01D0: 04 80 F8 FF FF 7F F8 FF  FF 7F 78 30 30 35 00 80  ..........x005..
01E0: 2A 03 15 92 06 01 27 03  15 92 06 01 06 2B 15 92  *.....'......+..
01F0: 06 01 11 80 1C 07 80 23  27 03 F0 FF FF 7F 0F 1C  .......#'.......
0200: 07 80 55 04 80 F8 FF FF  7F F8 FF FF 7F 78 30 30  ..U..........x00
0210: 35 2A 03 F0 FF FF 7F 2A  03 15 92 06 01 27 04 15  5*.....*.....'..
0220: 92 06 01 07 27 04 F0 FF  FF 7F 10 1C 10 80 45 04  ....'.........E.
0230: 80 F8 FF FF 7F F8 FF FF  7F 78 30 30 36 00 80 55  .........x006..U
0240: 04 80 F8 FF FF 7F F8 FF  FF 7F 78 30 30 36 1C 05  ..........x006..
0250: 80 2B 15 92 06 01 12 80  23 2A 04 15 92 06 01 2A  .+......#*.....*
0260: 04 F0 FF FF 7F 2B 15 92  06 01 13 80 23 27 03 15  .....+......#'..
0270: 92 06 01 08 1C 0C 80 27  03 F0 FF FF 7F 11 1C 09  .......'........
0280: 80 45 01 80 F0 FF FF 7F  F0 FF FF 7F 62 6C 6F 6E  .E..........blon
0290: 00 80 45 04 80 F8 FF FF  7F F8 FF FF 7F 78 30 30  ..E..........x00
02A0: 37 00 80 1C 14 80 27 03  15 92 06 01 09 1C 07 80  7.....'.........
02B0: 27 03 F0 FF FF 7F 12 55  04 80 F8 FF FF 7F F8 FF  '......U........
02C0: FF 7F 78 30 30 37 45 01  80 F0 FF FF 7F F0 FF FF  ..x007E.........
02D0: 7F 6F 76 6C 31 00 80 45  04 80 F8 FF FF 7F F8 FF  .ovl1..E........
02E0: FF 7F 78 30 30 38 00 80  45 01 80 F0 FF FF 7F F0  ..x008..E.......
02F0: FF FF 7F 62 6C 6F 66 00  80 55 04 80 F8 FF FF 7F  ...blof..U......
0300: F8 FF FF 7F 78 30 30 38  2A 03 15 92 06 01 2B 15  ....x008*.....+.
0310: 92 06 01 15 80 23 45 04  80 F8 FF FF 7F F8 FF FF  .....#E.........
0320: 7F 78 30 30 39 00 80 2B  15 92 06 01 16 80 23 4A  .x009..+......#J
0330: 15 92 06 01 F0 FF FF 7F  1C 10 80 6F 76 15 92 06  ...........ov...
0340: 01 2B 15 92 06 01 17 80  23 5D 00 80 0C 80 4E 00  .+......#]....N.
0350: 14 92 06 01 79 00 14 92  06 01 15 92 06 01 27 03  ....y.........'.
0360: 14 92 06 01 02 1C 10 80  52 04 80 F8 FF FF 7F F8  ........R.......
0370: FF FF 7F 78 30 30 39 45  04 80 F8 FF FF 7F F8 FF  ...x009E........
0380: FF 7F 77 30 30 30 00 80  55 04 80 F8 FF FF 7F F8  ..w000..U.......
0390: FF FF 7F 77 30 30 30 2A  03 14 92 06 01 79 00 F0  ...w000*.....y..
03A0: FF FF 7F 14 92 06 01 2B  14 92 06 01 18 80 23 4A  .......+......#J
03B0: 15 92 06 01 14 92 06 01  1C 10 80 45 04 80 F8 FF  ...........E....
03C0: FF 7F F8 FF FF 7F 77 30  30 31 00 80 1C 07 80 55  ......w001.....U
03D0: 04 80 F8 FF FF 7F F8 FF  FF 7F 77 30 30 31 5D 19  ..........w001].
03E0: 80 09 80 2B 15 92 06 01  1A 80 23 45 04 80 F8 FF  ...+......#E....
03F0: FF 7F F8 FF FF 7F 77 30  30 32 00 80 55 04 80 F8  ......w002..U...
0400: FF FF 7F F8 FF FF 7F 77  30 30 32 2B 14 92 06 01  .......w002+....
0410: 1B 80 23 4B 14 92 06 01  1C 80 1C 05 80 45 04 80  ..#K.........E..
0420: F8 FF FF 7F F8 FF FF 7F  77 30 30 33 00 80 1C 07  ........w003....
0430: 80 2B 14 92 06 01 1D 80  23 55 04 80 F8 FF FF 7F  .+......#U......
0440: F8 FF FF 7F 77 30 30 33  2B 15 92 06 01 1E 80 23  ....w003+......#
0450: 4A 14 92 06 01 15 92 06  01 6F 76 14 92 06 01 2B  J........ov....+
0460: 14 92 06 01 1F 80 23 45  04 80 F8 FF FF 7F F8 FF  ......#E........
0470: FF 7F 77 30 30 34 00 80  55 04 80 F8 FF FF 7F F8  ..w004..U.......
0480: FF FF 7F 77 30 30 34 1C  05 80 2B 15 92 06 01 20  ...w004...+.... 
0490: 80 23 7B 14 92 06 01 4B  14 92 06 01 21 80 1C 05  .#{....K....!...
04A0: 80 2B 14 92 06 01 22 80  23 7C 00 14 92 06 01 2B  .+....".#|.....+
04B0: 15 92 06 01 23 80 23 7C  01 14 92 06 01 27 03 14  ....#.#|.....'..
04C0: 92 06 01 07 1C 05 80 45  04 80 F8 FF FF 7F F8 FF  .......E........
04D0: FF 7F 77 30 30 35 00 80  55 04 80 F8 FF FF 7F F8  ..w005..U.......
04E0: FF FF 7F 77 30 30 35 1C  05 80 2B 14 92 06 01 24  ...w005...+....$
04F0: 80 23 1C 05 80 2B 15 92  06 01 25 80 23 2B 14 92  .#...+....%.#+..
0500: 06 01 26 80 23 45 04 80  F8 FF FF 7F F8 FF FF 7F  ..&.#E..........
0510: 77 30 30 36 00 80 1C 27  80 2B 15 92 06 01 28 80  w006...'.+....(.
0520: 23 55 04 80 F8 FF FF 7F  F8 FF FF 7F 77 30 30 36  #U..........w006
0530: 45 04 80 F8 FF FF 7F F8  FF FF 7F 77 30 30 37 00  E..........w007.
0540: 80 2B 14 92 06 01 29 80  23 1C 05 80 52 04 80 F8  .+....).#...R...
0550: FF FF 7F F8 FF FF 7F 77  30 30 37 27 03 15 92 06  .......w007'....
0560: 01 11 45 04 80 F8 FF FF  7F F8 FF FF 7F 77 30 30  ..E..........w00
0570: 38 00 80 2B 15 92 06 01  2A 80 23 27 03 15 92 06  8..+....*.#'....
0580: 01 12 29 03 14 92 06 01  08 4A 14 92 06 01 15 92  ..)......J......
0590: 06 01 6F 76 14 92 06 01  55 04 80 F8 FF FF 7F F8  ..ov....U.......
05A0: FF FF 7F 77 30 30 38 2B  14 92 06 01 2B 80 23 79  ...w008+....+.#y
05B0: 00 F0 FF FF 7F 15 92 06  01 27 03 15 92 06 01 0A  .........'......
05C0: 1C 05 80 45 04 80 F8 FF  FF 7F F8 FF FF 7F 77 30  ...E..........w0
05D0: 30 39 00 80 1C 07 80 2B  15 92 06 01 2C 80 23 2A  09.....+....,.#*
05E0: 03 15 92 06 01 4A 14 92  06 01 15 92 06 01 2B 14  .....J........+.
05F0: 92 06 01 2D 80 23 6F 76  14 92 06 01 52 04 80 F8  ...-.#ov....R...
0600: FF FF 7F F8 FF FF 7F 77  30 30 39 45 01 80 F0 FF  .......w009E....
0610: FF 7F F0 FF FF 7F 6F 76  6C 31 00 80 45 04 80 F8  ......ovl1..E...
0620: FF FF 7F F8 FF FF 7F 77  30 31 30 00 80 55 04 80  .......w010..U..
0630: F8 FF FF 7F F8 FF FF 7F  77 30 31 30 1C 07 80 27  ........w010...'
0640: 03 15 92 06 01 13 2B 15  92 06 01 2E 80 23 27 03  ......+......#'.
0650: 15 92 06 01 14 45 04 80  F8 FF FF 7F F8 FF FF 7F  .....E..........
0660: 77 30 31 31 00 80 1C 0C  80 7C 00 14 92 06 01 2B  w011.....|.....+
0670: 14 92 06 01 2F 80 23 7C  01 14 92 06 01 55 04 80  ..../.#|.....U..
0680: F8 FF FF 7F F8 FF FF 7F  77 30 31 31 2B 15 92 06  ........w011+...
0690: 01 30 80 23 2A 03 15 92  06 01 2B 15 92 06 01 31  .0.#*.....+....1
06A0: 80 23 1C 05 80 45 01 80  F0 FF FF 7F F0 FF FF 7F  .#...E..........
06B0: 6F 76 6C 31 00 80 45 04  80 F8 FF FF 7F F8 FF FF  ovl1..E.........
06C0: 7F 77 30 31 32 00 80 1C  0C 80 2B 15 92 06 01 32  .w012.....+....2
06D0: 80 23 55 04 80 F8 FF FF  7F F8 FF FF 7F 77 30 31  .#U..........w01
06E0: 32 4B 15 92 06 01 33 80  1C 05 80 2B 15 92 06 01  2K....3....+....
06F0: 34 80 23 1C 05 80 45 01  80 F0 FF FF 7F F0 FF FF  4.#...E.........
0700: 7F 6F 76 6C 31 00 80 45  04 80 F8 FF FF 7F F8 FF  .ovl1..E........
0710: FF 7F 77 30 31 33 00 80  1C 07 80 2B 15 92 06 01  ..w013.....+....
0720: 35 80 23 27 03 15 92 06  01 0B 1C 36 80 52 04 80  5.#'.......6.R..
0730: F8 FF FF 7F F8 FF FF 7F  77 30 31 33 45 04 80 F8  ........w013E...
0740: FF FF 7F F8 FF FF 7F 77  30 31 34 00 80 55 04 80  .......w014..U..
0750: F8 FF FF 7F F8 FF FF 7F  77 30 31 34 2A 03 15 92  ........w014*...
0760: 06 01 1C 05 80 2B 15 92  06 01 37 80 23 45 04 80  .....+....7.#E..
0770: F8 FF FF 7F F8 FF FF 7F  77 30 31 35 00 80 27 03  ........w015..'.
0780: 15 92 06 01 10 2B 15 92  06 01 38 80 23 2A 03 15  .....+....8.#*..
0790: 92 06 01 27 02 15 92 06  01 0C 4A F0 FF FF 7F 14  ...'......J.....
07A0: 92 06 01 2B 14 92 06 01  39 80 1C 09 80 23 52 04  ...+....9....#R.
07B0: 80 F8 FF FF 7F F8 FF FF  7F 77 30 31 35 45 04 80  .........w015E..
07C0: F8 FF FF 7F F8 FF FF 7F  77 30 31 36 00 80 55 04  ........w016..U.
07D0: 80 F8 FF FF 7F F8 FF FF  7F 77 30 31 36 79 00 F0  .........w016y..
07E0: FF FF 7F 14 92 06 01 2B  14 92 06 01 3A 80 23 4A  .......+....:.#J
07F0: 14 92 06 01 F0 FF FF 7F  6F 76 14 92 06 01 2B 14  ........ov....+.
0800: 92 06 01 3B 80 23 27 03  15 92 06 01 0D 1C 10 80  ...;.#'.........
0810: 45 04 80 F8 FF FF 7F F8  FF FF 7F 77 30 31 37 00  E..........w017.
0820: 80 1C 3C 80 2B 14 92 06  01 3D 80 1C 3E 80 45 01  ..<.+....=..>.E.
0830: 80 F8 FF FF 7F F8 FF FF  7F 66 64 6F 32 00 80 55  .........fdo2..U
0840: 01 80 F8 FF FF 7F F8 FF  FF 7F 66 64 6F 32 52 04  ..........fdo2R.
0850: 80 F8 FF FF 7F F8 FF FF  7F 77 30 31 37 5D 00 80  .........w017]..
0860: 14 80 1C 14 80 23 5C 00  3F 80 5C 01 3F 80 46 00  .....#\.?.\.?.F.
0870: 45 01 80 F8 FF FF 7F F8  FF FF 7F 66 64 69 32 00  E..........fdi2.
0880: 80 21 00                                          .!.             
```

#### Opcodes

```
  0: 0x0001 [0x20] SET_CLI_EVENT_UC_FLAG: Lock player control
  1: 0x0003 [0x46] CAMERA_CONTROL: Disable user control
  2: 0x0005 [0x42] SET_CLI_EVENT_CANCEL_DATA()
  3: 0x0006 [0x5D] SET_MUSIC_VOLUME(volume=0*, fade_time=200*)
  4: 0x000B [0x45] LOAD_SCHEDULED_TASK: Load scheduler "fdo1" with entities [LocalPlayer, LocalPlayer], work=[200*, 0*]
  5: 0x001C [0x55] WAIT_LOAD_SCHEDULER: Wait for scheduler "fdo1" with entities [LocalPlayer, LocalPlayer], work=200*
  6: 0x002B [0x38] SET_CLIENT_EVENT_MODE(mode=19*)
  7: 0x002E [0x94] LocalPlayer->Render.Flags3 ^= 0x01
  8: 0x0034 [0x94] EventEntity->Render.Flags3 ^= 0x01
  9: 0x003A [0x97] SAVE_SET_WIND_VALUES(wind_base=0x8000, wind_width=0x8003)
 10: 0x003F [0x29] REQ_SET_WAIT(priority=0x03, entity_id=LocalPlayer, tag_num=0x0D)
 11: 0x0046 [0x27] REQ_SET(priority=0x03, entity_id=Wolfgang (ID: 17207829/0x01069215), tag_num=0x02)
 12: 0x004D [0x45] LOAD_SCHEDULED_TASK: Load scheduler "x000" with entities [EventEntity, EventEntity], work=[71*, 0*]
 13: 0x005E [0x55] WAIT_LOAD_SCHEDULER: Wait for scheduler "x000" with entities [EventEntity, EventEntity], work=71*
 14: 0x006D [0x45] LOAD_SCHEDULED_TASK: Load scheduler "fdi1" with entities [EventEntity, EventEntity], work=[200*, 0*]
 15: 0x007E [0x55] WAIT_LOAD_SCHEDULER: Wait for scheduler "fdi1" with entities [EventEntity, EventEntity], work=200*
 16: 0x008D [0x1C] WAIT(30* ticks)
 17: 0x0090 [0x62] LOAD_EVENT_SCHEDULER: Load scheduler "main" with entities [EventEntity, EventEntity], work=[3*, 0*]
 18: 0x00A1 [0x1C] WAIT(60* ticks)
 19: 0x00A4 [0x4E] SET_ENTITY_HIDE_FLAG: Show Wolfgang (ID: 17207829/0x01069215)
 20: 0x00AA [0x79] Wolfgang (ID: 17207829/0x01069215) looks at ??? (ID: 17207827/0x01069213) (Basic look)
 21: 0x00B4 [0x27] REQ_SET(priority=0x03, entity_id=Wolfgang (ID: 17207829/0x01069215), tag_num=0x03)
 22: 0x00BB [0x45] LOAD_SCHEDULED_TASK: Load scheduler "x001" with entities [EventEntity, EventEntity], work=[71*, 0*]
 23: 0x00CC [0x55] WAIT_LOAD_SCHEDULER: Wait for scheduler "x001" with entities [EventEntity, EventEntity], work=71*
 24: 0x00DB [0x2A] GET_REQ_LEVEL(level=3, entity_id=Wolfgang (ID: 17207829/0x01069215))
 25: 0x00E1 [0x4A] LocalPlayer looks at Wolfgang (ID: 17207829/0x01069215)
 26: 0x00EA [0x2B] Wolfgang (ID: 17207829/0x01069215) [7498*]:
    → "You will not find anything of interest there, <Player>."
 27: 0x00F1 [0x23] WAIT_FOR_DIALOG_INTERACTION
 28: 0x00F2 [0x28] REQ_SET_WITH_CONDITIONS(priority=0x03, target_entity=Wolfgang (ID: 17207829/0x01069215), tag_num=0x04)
 29: 0x00F9 [0x1C] WAIT(120* ticks)
 30: 0x00FC [0x4E] SET_ENTITY_HIDE_FLAG: Hide LocalPlayer
 31: 0x0102 [0x45] LOAD_SCHEDULED_TASK: Load scheduler "x002" with entities [EventEntity, EventEntity], work=[71*, 0*]
 32: 0x0113 [0x55] WAIT_LOAD_SCHEDULER: Wait for scheduler "x002" with entities [EventEntity, EventEntity], work=71*
 33: 0x0122 [0x2A] GET_REQ_LEVEL(level=3, entity_id=Wolfgang (ID: 17207829/0x01069215))
 34: 0x0128 [0x27] REQ_SET(priority=0x03, entity_id=Wolfgang (ID: 17207829/0x01069215), tag_num=0x05)
 35: 0x012F [0x1C] WAIT(60* ticks)
 36: 0x0132 [0x27] REQ_SET(priority=0x03, entity_id=LocalPlayer, tag_num=0x0E)
 37: 0x0139 [0x2A] GET_REQ_LEVEL(level=3, entity_id=Wolfgang (ID: 17207829/0x01069215))
 38: 0x013F [0x5C] MUSIC_CONTROL: Set Idle (Day) music to song 124*
 39: 0x0143 [0x5C] MUSIC_CONTROL: Set Idle (Night) music to song 124*
 40: 0x0147 [0x2B] Wolfgang (ID: 17207829/0x01069215) [7499*]:
    → "This place... I..."
 41: 0x014E [0x23] WAIT_FOR_DIALOG_INTERACTION
 42: 0x014F [0x27] REQ_SET(priority=0x03, entity_id=Wolfgang (ID: 17207829/0x01069215), tag_num=0x0E)
 43: 0x0156 [0x1C] WAIT(90* ticks)
 44: 0x0159 [0x45] LOAD_SCHEDULED_TASK: Load scheduler "x003" with entities [EventEntity, EventEntity], work=[71*, 0*]
 45: 0x016A [0x1C] WAIT(30* ticks)
 46: 0x016D [0x2B] Wolfgang (ID: 17207829/0x01069215) [7500*]:
    → "A long time ago in Jeuno, there were these two boys--the best of friends--always sticking their noses into places they did not belong; fighting, getting into trouble..."
 47: 0x0174 [0x23] WAIT_FOR_DIALOG_INTERACTION
 48: 0x0175 [0x2B] Wolfgang (ID: 17207829/0x01069215) [7501*]:
    → "One day, the boys found a shard of blue glass. There was nothing special about it; it was probably just a broken bottle from one of the local pubs. However, to those boys it was a fabulous treasure."
 49: 0x017C [0x23] WAIT_FOR_DIALOG_INTERACTION
 50: 0x017D [0x52] END_LOAD_SCHEDULER: End scheduler "x003" with entities [EventEntity, EventEntity], work=71*
 51: 0x018C [0x45] LOAD_SCHEDULED_TASK: Load scheduler "x004" with entities [EventEntity, EventEntity], work=[71*, 0*]
 52: 0x019D [0x2B] Wolfgang (ID: 17207829/0x01069215) [7502*]:
    → "Looking through that glass allowed the boys to see the world in a different light--it made the town new and exciting. The two would spend hours arguing over who was to use it next."
 53: 0x01A4 [0x23] WAIT_FOR_DIALOG_INTERACTION
 54: 0x01A5 [0x55] WAIT_LOAD_SCHEDULER: Wait for scheduler "x004" with entities [EventEntity, EventEntity], work=71*
 55: 0x01B4 [0x27] REQ_SET(priority=0x03, entity_id=Wolfgang (ID: 17207829/0x01069215), tag_num=0x0F)
 56: 0x01BB [0x1C] WAIT(10* ticks)
 57: 0x01BE [0x45] LOAD_SCHEDULED_TASK: Load scheduler "ovl1" with entities [LocalPlayer, LocalPlayer], work=[200*, 0*]
 58: 0x01CF [0x45] LOAD_SCHEDULED_TASK: Load scheduler "x005" with entities [EventEntity, EventEntity], work=[71*, 0*]
 59: 0x01E0 [0x2A] GET_REQ_LEVEL(level=3, entity_id=Wolfgang (ID: 17207829/0x01069215))
 60: 0x01E6 [0x27] REQ_SET(priority=0x03, entity_id=Wolfgang (ID: 17207829/0x01069215), tag_num=0x06)
 61: 0x01ED [0x2B] Wolfgang (ID: 17207829/0x01069215) [7503*]:
    → "But in time, the buildings and the bridges began to bore them, and one day, the boys decided that they would defy their fathers' warnings and sneak out the city gates just to have a look at the rest of the world."
 62: 0x01F4 [0x1C] WAIT(60* ticks)
 63: 0x01F7 [0x23] WAIT_FOR_DIALOG_INTERACTION
 64: 0x01F8 [0x27] REQ_SET(priority=0x03, entity_id=LocalPlayer, tag_num=0x0F)
 65: 0x01FF [0x1C] WAIT(60* ticks)
 66: 0x0202 [0x55] WAIT_LOAD_SCHEDULER: Wait for scheduler "x005" with entities [EventEntity, EventEntity], work=71*
 67: 0x0211 [0x2A] GET_REQ_LEVEL(level=3, entity_id=LocalPlayer)
 68: 0x0217 [0x2A] GET_REQ_LEVEL(level=3, entity_id=Wolfgang (ID: 17207829/0x01069215))
 69: 0x021D [0x27] REQ_SET(priority=0x04, entity_id=Wolfgang (ID: 17207829/0x01069215), tag_num=0x07)
 70: 0x0224 [0x27] REQ_SET(priority=0x04, entity_id=LocalPlayer, tag_num=0x10)
 71: 0x022B [0x1C] WAIT(10* ticks)
 72: 0x022E [0x45] LOAD_SCHEDULED_TASK: Load scheduler "x006" with entities [EventEntity, EventEntity], work=[71*, 0*]
 73: 0x023F [0x55] WAIT_LOAD_SCHEDULER: Wait for scheduler "x006" with entities [EventEntity, EventEntity], work=71*
 74: 0x024E [0x1C] WAIT(30* ticks)
 75: 0x0251 [0x2B] Wolfgang (ID: 17207829/0x01069215) [7504*]:
    → "For a member of the Ducal Guard, coming this far is a simple task, but for two young boys who had never ventured beyond the borders of their hometown, their little journey was a grand adventure."
 76: 0x0258 [0x23] WAIT_FOR_DIALOG_INTERACTION
 77: 0x0259 [0x2A] GET_REQ_LEVEL(level=4, entity_id=Wolfgang (ID: 17207829/0x01069215))
 78: 0x025F [0x2A] GET_REQ_LEVEL(level=4, entity_id=LocalPlayer)
 79: 0x0265 [0x2B] Wolfgang (ID: 17207829/0x01069215) [7505*]:
    → "And on that journey they brought their treasure."
 80: 0x026C [0x23] WAIT_FOR_DIALOG_INTERACTION
 81: 0x026D [0x27] REQ_SET(priority=0x03, entity_id=Wolfgang (ID: 17207829/0x01069215), tag_num=0x08)
 82: 0x0274 [0x1C] WAIT(90* ticks)
 83: 0x0277 [0x27] REQ_SET(priority=0x03, entity_id=LocalPlayer, tag_num=0x11)
 84: 0x027E [0x1C] WAIT(120* ticks)
 85: 0x0281 [0x45] LOAD_SCHEDULED_TASK: Load scheduler "blon" with entities [LocalPlayer, LocalPlayer], work=[200*, 0*]
 86: 0x0292 [0x45] LOAD_SCHEDULED_TASK: Load scheduler "x007" with entities [EventEntity, EventEntity], work=[71*, 0*]
 87: 0x02A3 [0x1C] WAIT(300* ticks)
 88: 0x02A6 [0x27] REQ_SET(priority=0x03, entity_id=Wolfgang (ID: 17207829/0x01069215), tag_num=0x09)
 89: 0x02AD [0x1C] WAIT(60* ticks)
 90: 0x02B0 [0x27] REQ_SET(priority=0x03, entity_id=LocalPlayer, tag_num=0x12)
 91: 0x02B7 [0x55] WAIT_LOAD_SCHEDULER: Wait for scheduler "x007" with entities [EventEntity, EventEntity], work=71*
 92: 0x02C6 [0x45] LOAD_SCHEDULED_TASK: Load scheduler "ovl1" with entities [LocalPlayer, LocalPlayer], work=[200*, 0*]
 93: 0x02D7 [0x45] LOAD_SCHEDULED_TASK: Load scheduler "x008" with entities [EventEntity, EventEntity], work=[71*, 0*]
 94: 0x02E8 [0x45] LOAD_SCHEDULED_TASK: Load scheduler "blof" with entities [LocalPlayer, LocalPlayer], work=[200*, 0*]
 95: 0x02F9 [0x55] WAIT_LOAD_SCHEDULER: Wait for scheduler "x008" with entities [EventEntity, EventEntity], work=71*
 96: 0x0308 [0x2A] GET_REQ_LEVEL(level=3, entity_id=Wolfgang (ID: 17207829/0x01069215))
 97: 0x030E [0x2B] Wolfgang (ID: 17207829/0x01069215) [7506*]:
    → "And when they gazed at the towering Duchy through the soft blue glass, they realized the strength, the beauty, and the grandeur that was Jeuno."
 98: 0x0315 [0x23] WAIT_FOR_DIALOG_INTERACTION
 99: 0x0316 [0x45] LOAD_SCHEDULED_TASK: Load scheduler "x009" with entities [EventEntity, EventEntity], work=[71*, 0*]
100: 0x0327 [0x2B] Wolfgang (ID: 17207829/0x01069215) [7507*]:
    → "They were awestruck by the sight of their hometown. The excitement they felt by watching Jeuno from that spot drew them back there numerous times."
101: 0x032E [0x23] WAIT_FOR_DIALOG_INTERACTION
102: 0x032F [0x4A] Wolfgang (ID: 17207829/0x01069215) looks at LocalPlayer
103: 0x0338 [0x1C] WAIT(10* ticks)
104: 0x033B [0x6F] WAIT_FRAME_DELAY: Yield until WaitTime reaches zero
105: 0x033C [0x76] CHECK_ENTITY_RENDER_FLAGS: Wait until Wolfgang (ID: 17207829/0x01069215) Render.Flags0 and Render.Flags3 conditions are met
106: 0x0341 [0x2B] Wolfgang (ID: 17207829/0x01069215) [7508*]:
    → "However, one day, one of the boys said a strange thing..."
107: 0x0348 [0x23] WAIT_FOR_DIALOG_INTERACTION
108: 0x0349 [0x5D] SET_MUSIC_VOLUME(volume=0*, fade_time=90*)
109: 0x034E [0x4E] SET_ENTITY_HIDE_FLAG: Show Monberaux (ID: 17207828/0x01069214)
110: 0x0354 [0x79] Monberaux (ID: 17207828/0x01069214) looks at Wolfgang (ID: 17207829/0x01069215) (Basic look)
111: 0x035E [0x27] REQ_SET(priority=0x03, entity_id=Monberaux (ID: 17207828/0x01069214), tag_num=0x02)
112: 0x0365 [0x1C] WAIT(10* ticks)
113: 0x0368 [0x52] END_LOAD_SCHEDULER: End scheduler "x009" with entities [EventEntity, EventEntity], work=71*
114: 0x0377 [0x45] LOAD_SCHEDULED_TASK: Load scheduler "w000" with entities [EventEntity, EventEntity], work=[71*, 0*]
115: 0x0388 [0x55] WAIT_LOAD_SCHEDULER: Wait for scheduler "w000" with entities [EventEntity, EventEntity], work=71*
116: 0x0397 [0x2A] GET_REQ_LEVEL(level=3, entity_id=Monberaux (ID: 17207828/0x01069214))
117: 0x039D [0x79] LocalPlayer looks at Monberaux (ID: 17207828/0x01069214) (Basic look)
118: 0x03A7 [0x2B] Monberaux (ID: 17207828/0x01069214) [7509*]:
    → ""Jeuno's amazing whether you look at it through the glass or not.""
119: 0x03AE [0x23] WAIT_FOR_DIALOG_INTERACTION
120: 0x03AF [0x4A] Wolfgang (ID: 17207829/0x01069215) looks at Monberaux (ID: 17207828/0x01069214)
121: 0x03B8 [0x1C] WAIT(10* ticks)
122: 0x03BB [0x45] LOAD_SCHEDULED_TASK: Load scheduler "w001" with entities [EventEntity, EventEntity], work=[71*, 0*]
123: 0x03CC [0x1C] WAIT(60* ticks)
124: 0x03CF [0x55] WAIT_LOAD_SCHEDULER: Wait for scheduler "w001" with entities [EventEntity, EventEntity], work=71*
125: 0x03DE [0x5D] SET_MUSIC_VOLUME(volume=127*, fade_time=120*)
126: 0x03E3 [0x2B] Wolfgang (ID: 17207829/0x01069215) [7510*]:
    → "Monberaux..."
127: 0x03EA [0x23] WAIT_FOR_DIALOG_INTERACTION
128: 0x03EB [0x45] LOAD_SCHEDULED_TASK: Load scheduler "w002" with entities [EventEntity, EventEntity], work=[71*, 0*]
129: 0x03FC [0x55] WAIT_LOAD_SCHEDULER: Wait for scheduler "w002" with entities [EventEntity, EventEntity], work=71*
130: 0x040B [0x2B] Monberaux (ID: 17207828/0x01069214) [7511*]:
    → "It has been a long time since we both visited this place."
131: 0x0412 [0x23] WAIT_FOR_DIALOG_INTERACTION
132: 0x0413 [0x4B] UPDATE_ENTITY_YAW(entity=Monberaux (ID: 17207828/0x01069214), yaw=2.0°*)
133: 0x041A [0x1C] WAIT(30* ticks)
134: 0x041D [0x45] LOAD_SCHEDULED_TASK: Load scheduler "w003" with entities [EventEntity, EventEntity], work=[71*, 0*]
135: 0x042E [0x1C] WAIT(60* ticks)
136: 0x0431 [0x2B] Monberaux (ID: 17207828/0x01069214) [7512*]:
    → "Look at the city... It's just as beautiful today as it was when we were boys, wouldn't you say, Wolf?"
137: 0x0438 [0x23] WAIT_FOR_DIALOG_INTERACTION
138: 0x0439 [0x55] WAIT_LOAD_SCHEDULER: Wait for scheduler "w003" with entities [EventEntity, EventEntity], work=71*
139: 0x0448 [0x2B] Wolfgang (ID: 17207829/0x01069215) [7513*]:
    → "Why have you come here, Monberaux?"
140: 0x044F [0x23] WAIT_FOR_DIALOG_INTERACTION
141: 0x0450 [0x4A] Monberaux (ID: 17207828/0x01069214) looks at Wolfgang (ID: 17207829/0x01069215)
142: 0x0459 [0x6F] WAIT_FRAME_DELAY: Yield until WaitTime reaches zero
143: 0x045A [0x76] CHECK_ENTITY_RENDER_FLAGS: Wait until Monberaux (ID: 17207828/0x01069214) Render.Flags0 and Render.Flags3 conditions are met
144: 0x045F [0x2B] Monberaux (ID: 17207828/0x01069214) [7514*]:
    → "I have been so busy lately. I just thought I would come here to rest a spell. Why are you here?"
145: 0x0466 [0x23] WAIT_FOR_DIALOG_INTERACTION
146: 0x0467 [0x45] LOAD_SCHEDULED_TASK: Load scheduler "w004" with entities [EventEntity, EventEntity], work=[71*, 0*]
147: 0x0478 [0x55] WAIT_LOAD_SCHEDULER: Wait for scheduler "w004" with entities [EventEntity, EventEntity], work=71*
148: 0x0487 [0x1C] WAIT(30* ticks)
149: 0x048A [0x2B] Wolfgang (ID: 17207829/0x01069215) [7515*]:
    → "I... I was just patrolling the area..."
150: 0x0491 [0x23] WAIT_FOR_DIALOG_INTERACTION
151: 0x0492 [0x7B] Monberaux (ID: 17207828/0x01069214) stops talking
152: 0x0497 [0x4B] UPDATE_ENTITY_YAW(entity=Monberaux (ID: 17207828/0x01069214), yaw=17.9°*)
153: 0x049E [0x1C] WAIT(30* ticks)
154: 0x04A1 [0x2B] Monberaux (ID: 17207828/0x01069214) [7516*]:
    → "I see..."
155: 0x04A8 [0x23] WAIT_FOR_DIALOG_INTERACTION
156: 0x04A9 [0x7C] Monberaux (ID: 17207828/0x01069214)->Render.Flags2 |= 0x00
157: 0x04AF [0x2B] Wolfgang (ID: 17207829/0x01069215) [7517*]:
    → "..."
158: 0x04B6 [0x23] WAIT_FOR_DIALOG_INTERACTION
159: 0x04B7 [0x7C] Monberaux (ID: 17207828/0x01069214)->Render.Flags2 |= 0x01
160: 0x04BD [0x27] REQ_SET(priority=0x03, entity_id=Monberaux (ID: 17207828/0x01069214), tag_num=0x07)
161: 0x04C4 [0x1C] WAIT(30* ticks)
162: 0x04C7 [0x45] LOAD_SCHEDULED_TASK: Load scheduler "w005" with entities [EventEntity, EventEntity], work=[71*, 0*]
163: 0x04D8 [0x55] WAIT_LOAD_SCHEDULER: Wait for scheduler "w005" with entities [EventEntity, EventEntity], work=71*
164: 0x04E7 [0x1C] WAIT(30* ticks)
165: 0x04EA [0x2B] Monberaux (ID: 17207828/0x01069214) [7518*]:
    → "Wolfgang."
166: 0x04F1 [0x23] WAIT_FOR_DIALOG_INTERACTION
167: 0x04F2 [0x1C] WAIT(30* ticks)
168: 0x04F5 [0x2B] Wolfgang (ID: 17207829/0x01069215) [7519*]:
    → "Hm?"
169: 0x04FC [0x23] WAIT_FOR_DIALOG_INTERACTION
170: 0x04FD [0x2B] Monberaux (ID: 17207828/0x01069214) [7520*]:
    → "You know the glass is mine."
171: 0x0504 [0x23] WAIT_FOR_DIALOG_INTERACTION
172: 0x0505 [0x45] LOAD_SCHEDULED_TASK: Load scheduler "w006" with entities [EventEntity, EventEntity], work=[71*, 0*]
173: 0x0516 [0x1C] WAIT(20* ticks)
174: 0x0519 [0x2B] Wolfgang (ID: 17207829/0x01069215) [7521*]:
    → "What!?"
175: 0x0520 [0x23] WAIT_FOR_DIALOG_INTERACTION
176: 0x0521 [0x55] WAIT_LOAD_SCHEDULER: Wait for scheduler "w006" with entities [EventEntity, EventEntity], work=71*
177: 0x0530 [0x45] LOAD_SCHEDULED_TASK: Load scheduler "w007" with entities [EventEntity, EventEntity], work=[71*, 0*]
178: 0x0541 [0x2B] Monberaux (ID: 17207828/0x01069214) [7522*]:
    → "Don't you remember when we buried it? You said, "The treasure's yours. I don't need it anymore.""
179: 0x0548 [0x23] WAIT_FOR_DIALOG_INTERACTION
180: 0x0549 [0x1C] WAIT(30* ticks)
181: 0x054C [0x52] END_LOAD_SCHEDULER: End scheduler "w007" with entities [EventEntity, EventEntity], work=71*
182: 0x055B [0x27] REQ_SET(priority=0x03, entity_id=Wolfgang (ID: 17207829/0x01069215), tag_num=0x11)
183: 0x0562 [0x45] LOAD_SCHEDULED_TASK: Load scheduler "w008" with entities [EventEntity, EventEntity], work=[71*, 0*]
184: 0x0573 [0x2B] Wolfgang (ID: 17207829/0x01069215) [7523*]:
    → "I never said such a thing! Where's your proof? Do you have it in writing? Huh? I don't see any signatures!"
185: 0x057A [0x23] WAIT_FOR_DIALOG_INTERACTION
186: 0x057B [0x27] REQ_SET(priority=0x03, entity_id=Wolfgang (ID: 17207829/0x01069215), tag_num=0x12)
187: 0x0582 [0x29] REQ_SET_WAIT(priority=0x03, entity_id=Monberaux (ID: 17207828/0x01069214), tag_num=0x08)
188: 0x0589 [0x4A] Monberaux (ID: 17207828/0x01069214) looks at Wolfgang (ID: 17207829/0x01069215)
189: 0x0592 [0x6F] WAIT_FRAME_DELAY: Yield until WaitTime reaches zero
190: 0x0593 [0x76] CHECK_ENTITY_RENDER_FLAGS: Wait until Monberaux (ID: 17207828/0x01069214) Render.Flags0 and Render.Flags3 conditions are met
191: 0x0598 [0x55] WAIT_LOAD_SCHEDULER: Wait for scheduler "w008" with entities [EventEntity, EventEntity], work=71*
192: 0x05A7 [0x2B] Monberaux (ID: 17207828/0x01069214) [7524*]:
    → "Hah hah hah! Some things never change, do they, Wolf? If you want it, it's yours. The shard should still be right there where we buried it."
193: 0x05AE [0x23] WAIT_FOR_DIALOG_INTERACTION
194: 0x05AF [0x79] LocalPlayer looks at Wolfgang (ID: 17207829/0x01069215) (Basic look)
195: 0x05B9 [0x27] REQ_SET(priority=0x03, entity_id=Wolfgang (ID: 17207829/0x01069215), tag_num=0x0A)
196: 0x05C0 [0x1C] WAIT(30* ticks)
197: 0x05C3 [0x45] LOAD_SCHEDULED_TASK: Load scheduler "w009" with entities [EventEntity, EventEntity], work=[71*, 0*]
198: 0x05D4 [0x1C] WAIT(60* ticks)
199: 0x05D7 [0x2B] Wolfgang (ID: 17207829/0x01069215) [7525*]:
    → "No... That treasure was neither mine nor yours--it was ours."
200: 0x05DE [0x23] WAIT_FOR_DIALOG_INTERACTION
201: 0x05DF [0x2A] GET_REQ_LEVEL(level=3, entity_id=Wolfgang (ID: 17207829/0x01069215))
202: 0x05E5 [0x4A] Monberaux (ID: 17207828/0x01069214) looks at Wolfgang (ID: 17207829/0x01069215)
203: 0x05EE [0x2B] Monberaux (ID: 17207828/0x01069214) [7526*]:
    → "Wolf...?"
204: 0x05F5 [0x23] WAIT_FOR_DIALOG_INTERACTION
205: 0x05F6 [0x6F] WAIT_FRAME_DELAY: Yield until WaitTime reaches zero
206: 0x05F7 [0x76] CHECK_ENTITY_RENDER_FLAGS: Wait until Monberaux (ID: 17207828/0x01069214) Render.Flags0 and Render.Flags3 conditions are met
207: 0x05FC [0x52] END_LOAD_SCHEDULER: End scheduler "w009" with entities [EventEntity, EventEntity], work=71*
208: 0x060B [0x45] LOAD_SCHEDULED_TASK: Load scheduler "ovl1" with entities [LocalPlayer, LocalPlayer], work=[200*, 0*]
209: 0x061C [0x45] LOAD_SCHEDULED_TASK: Load scheduler "w010" with entities [EventEntity, EventEntity], work=[71*, 0*]
210: 0x062D [0x55] WAIT_LOAD_SCHEDULER: Wait for scheduler "w010" with entities [EventEntity, EventEntity], work=71*
211: 0x063C [0x1C] WAIT(60* ticks)
212: 0x063F [0x27] REQ_SET(priority=0x03, entity_id=Wolfgang (ID: 17207829/0x01069215), tag_num=0x13)
213: 0x0646 [0x2B] Wolfgang (ID: 17207829/0x01069215) [7527*]:
    → "The true reason I came here was to bury the glass... I guess I never told you that I dug it up and kept it in my room."
214: 0x064D [0x23] WAIT_FOR_DIALOG_INTERACTION
215: 0x064E [0x27] REQ_SET(priority=0x03, entity_id=Wolfgang (ID: 17207829/0x01069215), tag_num=0x14)
216: 0x0655 [0x45] LOAD_SCHEDULED_TASK: Load scheduler "w011" with entities [EventEntity, EventEntity], work=[71*, 0*]
217: 0x0666 [0x1C] WAIT(90* ticks)
218: 0x0669 [0x7C] Monberaux (ID: 17207828/0x01069214)->Render.Flags2 |= 0x00
219: 0x066F [0x2B] Monberaux (ID: 17207828/0x01069214) [7528*]:
    → "..."
220: 0x0676 [0x23] WAIT_FOR_DIALOG_INTERACTION
221: 0x0677 [0x7C] Monberaux (ID: 17207828/0x01069214)->Render.Flags2 |= 0x01
222: 0x067D [0x55] WAIT_LOAD_SCHEDULER: Wait for scheduler "w011" with entities [EventEntity, EventEntity], work=71*
223: 0x068C [0x2B] Wolfgang (ID: 17207829/0x01069215) [7529*]:
    → "Recently, I seem to have lost sight of what I truly need to protect in this world..."
224: 0x0693 [0x23] WAIT_FOR_DIALOG_INTERACTION
225: 0x0694 [0x2A] GET_REQ_LEVEL(level=3, entity_id=Wolfgang (ID: 17207829/0x01069215))
226: 0x069A [0x2B] Wolfgang (ID: 17207829/0x01069215) [7530*]:
    → "When I was a boy, staring at the Duchy from this hill, I thought I had finally realized what my father was risking his life to protect."
227: 0x06A1 [0x23] WAIT_FOR_DIALOG_INTERACTION
228: 0x06A2 [0x1C] WAIT(30* ticks)
229: 0x06A5 [0x45] LOAD_SCHEDULED_TASK: Load scheduler "ovl1" with entities [LocalPlayer, LocalPlayer], work=[200*, 0*]
230: 0x06B6 [0x45] LOAD_SCHEDULED_TASK: Load scheduler "w012" with entities [EventEntity, EventEntity], work=[71*, 0*]
231: 0x06C7 [0x1C] WAIT(90* ticks)
232: 0x06CA [0x2B] Wolfgang (ID: 17207829/0x01069215) [7531*]:
    → "Coming here today reminded me of that."
233: 0x06D1 [0x23] WAIT_FOR_DIALOG_INTERACTION
234: 0x06D2 [0x55] WAIT_LOAD_SCHEDULER: Wait for scheduler "w012" with entities [EventEntity, EventEntity], work=71*
235: 0x06E1 [0x4B] UPDATE_ENTITY_YAW(entity=Wolfgang (ID: 17207829/0x01069215), yaw=1.9°*)
236: 0x06E8 [0x1C] WAIT(30* ticks)
237: 0x06EB [0x2B] Wolfgang (ID: 17207829/0x01069215) [7532*]:
    → "And hopefully I will never again forget..."
238: 0x06F2 [0x23] WAIT_FOR_DIALOG_INTERACTION
239: 0x06F3 [0x1C] WAIT(30* ticks)
240: 0x06F6 [0x45] LOAD_SCHEDULED_TASK: Load scheduler "ovl1" with entities [LocalPlayer, LocalPlayer], work=[200*, 0*]
241: 0x0707 [0x45] LOAD_SCHEDULED_TASK: Load scheduler "w013" with entities [EventEntity, EventEntity], work=[71*, 0*]
242: 0x0718 [0x1C] WAIT(60* ticks)
243: 0x071B [0x2B] Wolfgang (ID: 17207829/0x01069215) [7533*]:
    → "I'll be seeing you, Beraux."
244: 0x0722 [0x23] WAIT_FOR_DIALOG_INTERACTION
245: 0x0723 [0x27] REQ_SET(priority=0x03, entity_id=Wolfgang (ID: 17207829/0x01069215), tag_num=0x0B)
246: 0x072A [0x1C] WAIT(100* ticks)
247: 0x072D [0x52] END_LOAD_SCHEDULER: End scheduler "w013" with entities [EventEntity, EventEntity], work=71*
248: 0x073C [0x45] LOAD_SCHEDULED_TASK: Load scheduler "w014" with entities [EventEntity, EventEntity], work=[71*, 0*]
249: 0x074D [0x55] WAIT_LOAD_SCHEDULER: Wait for scheduler "w014" with entities [EventEntity, EventEntity], work=71*
250: 0x075C [0x2A] GET_REQ_LEVEL(level=3, entity_id=Wolfgang (ID: 17207829/0x01069215))
251: 0x0762 [0x1C] WAIT(30* ticks)
252: 0x0765 [0x2B] Wolfgang (ID: 17207829/0x01069215) [7534*]:
    → "Now, where did I put that key... I hope I did not bury it by mistake."
253: 0x076C [0x23] WAIT_FOR_DIALOG_INTERACTION
254: 0x076D [0x45] LOAD_SCHEDULED_TASK: Load scheduler "w015" with entities [EventEntity, EventEntity], work=[71*, 0*]
255: 0x077E [0x27] REQ_SET(priority=0x03, entity_id=Wolfgang (ID: 17207829/0x01069215), tag_num=0x10)
256: 0x0785 [0x2B] Wolfgang (ID: 17207829/0x01069215) [7535*]:
    → "Oh well. What is another slap on the wrist and a cut in pay? I have a successful doctor friend to buy all the rounds the next time we go to the pub."
257: 0x078C [0x23] WAIT_FOR_DIALOG_INTERACTION
258: 0x078D [0x2A] GET_REQ_LEVEL(level=3, entity_id=Wolfgang (ID: 17207829/0x01069215))
259: 0x0793 [0x27] REQ_SET(priority=0x02, entity_id=Wolfgang (ID: 17207829/0x01069215), tag_num=0x0C)
260: 0x079A [0x4A] LocalPlayer looks at Monberaux (ID: 17207828/0x01069214)
261: 0x07A3 [0x2B] Monberaux (ID: 17207828/0x01069214) [7536*]:
    → "Hah hah. And who would that happen to be?"
262: 0x07AA [0x1C] WAIT(120* ticks)
263: 0x07AD [0x23] WAIT_FOR_DIALOG_INTERACTION
264: 0x07AE [0x52] END_LOAD_SCHEDULER: End scheduler "w015" with entities [EventEntity, EventEntity], work=71*
265: 0x07BD [0x45] LOAD_SCHEDULED_TASK: Load scheduler "w016" with entities [EventEntity, EventEntity], work=[71*, 0*]
266: 0x07CE [0x55] WAIT_LOAD_SCHEDULER: Wait for scheduler "w016" with entities [EventEntity, EventEntity], work=71*
267: 0x07DD [0x79] LocalPlayer looks at Monberaux (ID: 17207828/0x01069214) (Basic look)
268: 0x07E7 [0x2B] Monberaux (ID: 17207828/0x01069214) [7537*]:
    → "I guess I was right. My old friend hasn't changed a bit."
269: 0x07EE [0x23] WAIT_FOR_DIALOG_INTERACTION
270: 0x07EF [0x4A] Monberaux (ID: 17207828/0x01069214) looks at LocalPlayer
271: 0x07F8 [0x6F] WAIT_FRAME_DELAY: Yield until WaitTime reaches zero
272: 0x07F9 [0x76] CHECK_ENTITY_RENDER_FLAGS: Wait until Monberaux (ID: 17207828/0x01069214) Render.Flags0 and Render.Flags3 conditions are met
273: 0x07FE [0x2B] Monberaux (ID: 17207828/0x01069214) [7538*]:
    → "Ah, <Player>. If I were you, I'd see what the captain has buried over there. I have a feeling it is something that may be useful to you on your quest."
274: 0x0805 [0x23] WAIT_FOR_DIALOG_INTERACTION
275: 0x0806 [0x27] REQ_SET(priority=0x03, entity_id=Wolfgang (ID: 17207829/0x01069215), tag_num=0x0D)
276: 0x080D [0x1C] WAIT(10* ticks)
277: 0x0810 [0x45] LOAD_SCHEDULED_TASK: Load scheduler "w017" with entities [EventEntity, EventEntity], work=[71*, 0*]
278: 0x0821 [0x1C] WAIT(15* ticks)
279: 0x0824 [0x2B] Monberaux (ID: 17207828/0x01069214) [7539*]:
    → "But I request that you leave the "other" treasure where it rests. Allow the memories of two young boys to live on, even if it is for just a little while longer."
280: 0x082B [0x1C] WAIT(180* ticks)
281: 0x082E [0x45] LOAD_SCHEDULED_TASK: Load scheduler "fdo2" with entities [EventEntity, EventEntity], work=[200*, 0*]
282: 0x083F [0x55] WAIT_LOAD_SCHEDULER: Wait for scheduler "fdo2" with entities [EventEntity, EventEntity], work=200*
283: 0x084E [0x52] END_LOAD_SCHEDULER: End scheduler "w017" with entities [EventEntity, EventEntity], work=71*
284: 0x085D [0x5D] SET_MUSIC_VOLUME(volume=0*, fade_time=300*)
285: 0x0862 [0x1C] WAIT(300* ticks)
286: 0x0865 [0x23] WAIT_FOR_DIALOG_INTERACTION
287: 0x0866 [0x5C] MUSIC_CONTROL: Set Idle (Day) music to song 114*
288: 0x086A [0x5C] MUSIC_CONTROL: Set Idle (Night) music to song 114*
289: 0x086E [0x46] CAMERA_CONTROL: Restore default settings
290: 0x0870 [0x45] LOAD_SCHEDULED_TASK: Load scheduler "fdi2" with entities [EventEntity, EventEntity], work=[200*, 0*]
291: 0x0881 [0x21] END_EVENT
292: 0x0882 [0x00] END_REQSTACK()
```
