# 17207885 - Larzos

## Common Data

| Field            | Value                    |
|------------------|--------------------------|
| Zone             | Batallia Downs (ID: 105) |
| Block Size       | 532 bytes                |
| Total Events     | 14                       |
| References Count | 55                       |

## List of Events

| Event ID                   | Entrypoint   |   Size |   Instructions |
|----------------------------|--------------|--------|----------------|
| [65535](#event-65535)      | 0x0000       |      1 |              1 |
| [503](#event-503)          | 0x0001       |      3 |              2 |
| [6](#event-6)              | 0x0004       |      1 |              1 |
| [65535.1](#event-655351)   | 0x0005       |     10 |              2 |
| [65535.2](#event-655352)   | 0x000F       |     10 |              2 |
| [65535.3](#event-655353)   | 0x0019       |     10 |              2 |
| [65535.4](#event-655354)   | 0x0023       |     24 |              6 |
| [65535.5](#event-655355)   | 0x003B       |     14 |              4 |
| [65535.6](#event-655356)   | 0x0049       |     27 |              7 |
| [65535.7](#event-655357)   | 0x0064       |     21 |              2 |
| [65535.8](#event-655358)   | 0x0079       |     21 |              2 |
| [65535.9](#event-655359)   | 0x008E       |     14 |              4 |
| [65535.10](#event-6553510) | 0x009C       |     17 |              5 |
| [65535.11](#event-6553511) | 0x00AD       |     64 |             14 |

## DAT References (imed_data)

|   Index | Hex Value   |   Dec Value |
|---------|-------------|-------------|
|       0 | 0x0000      |           0 |
|       1 | 0x0001      |           1 |
|       2 | 0x0080      |         128 |
|       3 | 0x0054      |          84 |
|       4 | 0x000D      |          13 |
|       5 | 0x34187     |      213383 |
|       6 | 0xFFFB0361  |  4294640481 |
|       7 | 0x215C      |        8540 |
|       8 | 0x40C76     |      265334 |
|       9 | 0xFFFBCCA2  |  4294692002 |
|      10 | 0x1F99      |        8089 |
|      11 | 0x27F80     |      163712 |
|      12 | 0xFFF9E8AA  |  4294568106 |
|      13 | 0x0029      |          41 |
|      14 | 0x003C      |          60 |
|      15 | 0x0023      |          35 |
|      16 | 0x222DA     |      139994 |
|      17 | 0x1174E     |       71502 |
|      18 | 0xFFFFA1C9  |  4294943177 |
|      19 | 0x22220     |      139808 |
|      20 | 0x171CD     |       94669 |
|      21 | 0xFFFFA0A6  |  4294942886 |
|      22 | 0x0008      |           8 |
|      23 | 0x000B      |          11 |
|      24 | 0x00A1      |         161 |
|      25 | 0x00DE      |         222 |
|      26 | 0x0006      |           6 |
|      27 | 0x01B9      |         441 |
|      28 | 0x0060      |          96 |
|      29 | 0x000A      |          10 |
|      30 | 0x265C2     |      157122 |
|      31 | 0xFFF9F746  |  4294571846 |
|      32 | 0xFFFFF5EA  |  4294964714 |
|      33 | 0x005A      |          90 |
|      34 | 0x25956     |      153942 |
|      35 | 0xFFF9F2BC  |  4294570684 |
|      36 | 0xFFFFF44B  |  4294964299 |
|      37 | 0x26FB8     |      159672 |
|      38 | 0xFFF9F6AC  |  4294571692 |
|      39 | 0xFFFFF882  |  4294965378 |
|      40 | 0x274A5     |      160933 |
|      41 | 0xFFF9F683  |  4294571651 |
|      42 | 0xFFFFF9EA  |  4294965738 |
|      43 | 0x2798E     |      162190 |
|      44 | 0xFFF9F65C  |  4294571612 |
|      45 | 0xFFFFFB6D  |  4294966125 |
|      46 | 0x27DE0     |      163296 |
|      47 | 0xFFF9F639  |  4294571577 |
|      48 | 0xFFFFFCC2  |  4294966466 |
|      49 | 0x28836     |      165942 |
|      50 | 0xFFF9F648  |  4294571592 |
|      51 | 0x002A      |          42 |
|      52 | 0x290EC     |      168172 |
|      53 | 0xFFF9F628  |  4294571560 |
|      54 | 0x032C      |         812 |

## Events

### Event 65535

#### Metadata

| Field        | Value   |
|--------------|---------|
| Entrypoint   | 0x0000  |
| Data Size    | 1 bytes |
| Instructions | 1       |

```
      00 01 02 03 04 05 06 07  08 09 0A 0B 0C 0D 0E 0F
      -- -- -- -- -- -- -- --  -- -- -- -- -- -- -- --
0000: 00                                                .               
```

#### Opcodes

```
  0: 0x0000 [0x00] END_REQSTACK()
```

### Event 503

#### Metadata

| Field        | Value   |
|--------------|---------|
| Entrypoint   | 0x0001  |
| Data Size    | 3 bytes |
| Instructions | 2       |

```
      00 01 02 03 04 05 06 07  08 09 0A 0B 0C 0D 0E 0F
      -- -- -- -- -- -- -- --  -- -- -- -- -- -- -- --
0000:    AB 08 00                                        ...            
```

#### Opcodes

```
  0: 0x0001 [0xAB] EventEntity->Render.Flags2 |= 0x02 // Set bit 1
  1: 0x0003 [0x00] END_REQSTACK()
```

### Event 6

#### Metadata

| Field        | Value   |
|--------------|---------|
| Entrypoint   | 0x0004  |
| Data Size    | 1 bytes |
| Instructions | 1       |

```
      00 01 02 03 04 05 06 07  08 09 0A 0B 0C 0D 0E 0F
      -- -- -- -- -- -- -- --  -- -- -- -- -- -- -- --
0000:             00                                        .           
```

#### Opcodes

```
  0: 0x0004 [0x00] END_REQSTACK()
```

### Event 65535.1

#### Metadata

| Field        | Value    |
|--------------|----------|
| Entrypoint   | 0x0005   |
| Data Size    | 10 bytes |
| Instructions | 2        |

```
      00 01 02 03 04 05 06 07  08 09 0A 0B 0C 0D 0E 0F
      -- -- -- -- -- -- -- --  -- -- -- -- -- -- -- --
0000:                6C 4D 92  06 01 00 80 01 80 00          lM........ 
```

#### Opcodes

```
  0: 0x0005 [0x6C] FADE_ENTITY_COLOR(entity_id=Larzos (ID: 17207885/0x0106924D), end_alpha=0*, fade_time=1*)
  1: 0x000E [0x00] END_REQSTACK()
```

### Event 65535.2

#### Metadata

| Field        | Value    |
|--------------|----------|
| Entrypoint   | 0x000F   |
| Data Size    | 10 bytes |
| Instructions | 2        |

```
      00 01 02 03 04 05 06 07  08 09 0A 0B 0C 0D 0E 0F
      -- -- -- -- -- -- -- --  -- -- -- -- -- -- -- --
0000:                                               6C                 l
0010: 4D 92 06 01 02 80 01 80  00                       M........       
```

#### Opcodes

```
  0: 0x000F [0x6C] FADE_ENTITY_COLOR(entity_id=Larzos (ID: 17207885/0x0106924D), end_alpha=128*, fade_time=1*)
  1: 0x0018 [0x00] END_REQSTACK()
```

### Event 65535.3

#### Metadata

| Field        | Value    |
|--------------|----------|
| Entrypoint   | 0x0019   |
| Data Size    | 10 bytes |
| Instructions | 2        |

```
      00 01 02 03 04 05 06 07  08 09 0A 0B 0C 0D 0E 0F
      -- -- -- -- -- -- -- --  -- -- -- -- -- -- -- --
0010:                             6C 4D 92 06 01 03 80           lM.....
0020: 01 80 00                                          ...             
```

#### Opcodes

```
  0: 0x0019 [0x6C] FADE_ENTITY_COLOR(entity_id=Larzos (ID: 17207885/0x0106924D), end_alpha=84*, fade_time=1*)
  1: 0x0022 [0x00] END_REQSTACK()
```

### Event 65535.4

#### Metadata

| Field        | Value    |
|--------------|----------|
| Entrypoint   | 0x0023   |
| Data Size    | 24 bytes |
| Instructions | 6        |

```
      00 01 02 03 04 05 06 07  08 09 0A 0B 0C 0D 0E 0F
      -- -- -- -- -- -- -- --  -- -- -- -- -- -- -- --
0020:          32 04 80 1F 00  05 80 06 80 07 80 1F 01     2............
0030: 1F 00 08 80 09 80 0A 80  1F 01 00                 ...........     
```

#### Opcodes

```
  0: 0x0023 [0x32] ExtData[1]->MainSpeed = 13* * 0.1
  1: 0x0026 [0x1F] MOVE_ENTITY: EventEntity moves to X=213.383*, Z=-326.815*, Y=8.540*
  2: 0x002E [0x1F] MOVE_ENTITY: Update entity position (mode=1)
  3: 0x0030 [0x1F] MOVE_ENTITY: EventEntity moves to X=265.334*, Z=-275.294*, Y=8.089*
  4: 0x0038 [0x1F] MOVE_ENTITY: Update entity position (mode=1)
  5: 0x003A [0x00] END_REQSTACK()
```

### Event 65535.5

#### Metadata

| Field        | Value    |
|--------------|----------|
| Entrypoint   | 0x003B   |
| Data Size    | 14 bytes |
| Instructions | 4        |

```
      00 01 02 03 04 05 06 07  08 09 0A 0B 0C 0D 0E 0F
      -- -- -- -- -- -- -- --  -- -- -- -- -- -- -- --
0030:                                   32 04 80 1F 00             2....
0040: 0B 80 0C 80 0D 80 1F 01  00                       .........       
```

#### Opcodes

```
  0: 0x003B [0x32] ExtData[1]->MainSpeed = 13* * 0.1
  1: 0x003E [0x1F] MOVE_ENTITY: EventEntity moves to X=163.712*, Z=-399.190*, Y=0.041*
  2: 0x0046 [0x1F] MOVE_ENTITY: Update entity position (mode=1)
  3: 0x0048 [0x00] END_REQSTACK()
```

### Event 65535.6

#### Metadata

| Field        | Value    |
|--------------|----------|
| Entrypoint   | 0x0049   |
| Data Size    | 27 bytes |
| Instructions | 7        |

```
      00 01 02 03 04 05 06 07  08 09 0A 0B 0C 0D 0E 0F
      -- -- -- -- -- -- -- --  -- -- -- -- -- -- -- --
0040:                             1C 0E 80 32 0F 80 1F           ...2...
0050: 00 10 80 11 80 12 80 1F  01 1F 00 13 80 14 80 15  ................
0060: 80 1F 01 00                                       ....            
```

#### Opcodes

```
  0: 0x0049 [0x1C] WAIT(60* ticks)
  1: 0x004C [0x32] ExtData[1]->MainSpeed = 35* * 0.1
  2: 0x004F [0x1F] MOVE_ENTITY: EventEntity moves to X=139.994*, Z=71.502*, Y=-24.119*
  3: 0x0057 [0x1F] MOVE_ENTITY: Update entity position (mode=1)
  4: 0x0059 [0x1F] MOVE_ENTITY: EventEntity moves to X=139.808*, Z=94.669*, Y=-24.410*
  5: 0x0061 [0x1F] MOVE_ENTITY: Update entity position (mode=1)
  6: 0x0063 [0x00] END_REQSTACK()
```

### Event 65535.7

#### Metadata

| Field        | Value    |
|--------------|----------|
| Entrypoint   | 0x0064   |
| Data Size    | 21 bytes |
| Instructions | 2        |

```
      00 01 02 03 04 05 06 07  08 09 0A 0B 0C 0D 0E 0F
      -- -- -- -- -- -- -- --  -- -- -- -- -- -- -- --
0060:             B6 0B 16 80  17 80 18 80 19 80 01 80      ............
0070: 1A 80 01 80 1B 80 00 80  00                       .........       
```

#### Opcodes

```
  0: 0x0064 [0xB6] ENTITY_APPEARANCE_HANDLER(case=Full entity look, race=8*, hair=11*, head=161*, body=222*, hands=1*, legs=6*, feet=1*, main=441*, sub=0*)
  1: 0x0078 [0x00] END_REQSTACK()
```

### Event 65535.8

#### Metadata

| Field        | Value    |
|--------------|----------|
| Entrypoint   | 0x0079   |
| Data Size    | 21 bytes |
| Instructions | 2        |

```
      00 01 02 03 04 05 06 07  08 09 0A 0B 0C 0D 0E 0F
      -- -- -- -- -- -- -- --  -- -- -- -- -- -- -- --
0070:                             B6 0B 16 80 17 80 18           .......
0080: 80 1C 80 1C 80 18 80 18  80 00 80 00 80 00        ..............  
```

#### Opcodes

```
  0: 0x0079 [0xB6] ENTITY_APPEARANCE_HANDLER(case=Full entity look, race=8*, hair=11*, head=161*, body=96*, hands=96*, legs=161*, feet=161*, main=0*, sub=0*)
  1: 0x008D [0x00] END_REQSTACK()
```

### Event 65535.9

#### Metadata

| Field        | Value    |
|--------------|----------|
| Entrypoint   | 0x008E   |
| Data Size    | 14 bytes |
| Instructions | 4        |

```
      00 01 02 03 04 05 06 07  08 09 0A 0B 0C 0D 0E 0F
      -- -- -- -- -- -- -- --  -- -- -- -- -- -- -- --
0080:                                            32 1D                2.
0090: 80 1F 00 1E 80 1F 80 20  80 1F 01 00              ....... ....    
```

#### Opcodes

```
  0: 0x008E [0x32] ExtData[1]->MainSpeed = 10* * 0.1
  1: 0x0091 [0x1F] MOVE_ENTITY: EventEntity moves to X=157.122*, Z=-395.450*, Y=-2.582*
  2: 0x0099 [0x1F] MOVE_ENTITY: Update entity position (mode=1)
  3: 0x009B [0x00] END_REQSTACK()
```

### Event 65535.10

#### Metadata

| Field        | Value    |
|--------------|----------|
| Entrypoint   | 0x009C   |
| Data Size    | 17 bytes |
| Instructions | 5        |

```
      00 01 02 03 04 05 06 07  08 09 0A 0B 0C 0D 0E 0F
      -- -- -- -- -- -- -- --  -- -- -- -- -- -- -- --
0090:                                      1C 21 80 32              .!.2
00A0: 1D 80 1F 00 22 80 23 80  24 80 1F 01 00           ....".#.$....   
```

#### Opcodes

```
  0: 0x009C [0x1C] WAIT(90* ticks)
  1: 0x009F [0x32] ExtData[1]->MainSpeed = 10* * 0.1
  2: 0x00A2 [0x1F] MOVE_ENTITY: EventEntity moves to X=153.942*, Z=-396.612*, Y=-2.997*
  3: 0x00AA [0x1F] MOVE_ENTITY: Update entity position (mode=1)
  4: 0x00AC [0x00] END_REQSTACK()
```

### Event 65535.11

#### Metadata

| Field        | Value    |
|--------------|----------|
| Entrypoint   | 0x00AD   |
| Data Size    | 64 bytes |
| Instructions | 14       |

```
      00 01 02 03 04 05 06 07  08 09 0A 0B 0C 0D 0E 0F
      -- -- -- -- -- -- -- --  -- -- -- -- -- -- -- --
00A0:                                         32 04 80               2..
00B0: 1F 00 25 80 26 80 27 80  1F 01 1F 00 28 80 29 80  ..%.&.'.....(.).
00C0: 2A 80 1F 01 1F 00 2B 80  2C 80 2D 80 1F 01 1F 00  *.....+.,.-.....
00D0: 2E 80 2F 80 30 80 1F 01  1F 00 31 80 32 80 33 80  ../.0.....1.2.3.
00E0: 1F 01 1F 00 34 80 35 80  36 80 1F 01 00           ....4.5.6....   
```

#### Opcodes

```
  0: 0x00AD [0x32] ExtData[1]->MainSpeed = 13* * 0.1
  1: 0x00B0 [0x1F] MOVE_ENTITY: EventEntity moves to X=159.672*, Z=-395.604*, Y=-1.918*
  2: 0x00B8 [0x1F] MOVE_ENTITY: Update entity position (mode=1)
  3: 0x00BA [0x1F] MOVE_ENTITY: EventEntity moves to X=160.933*, Z=-395.645*, Y=-1.558*
  4: 0x00C2 [0x1F] MOVE_ENTITY: Update entity position (mode=1)
  5: 0x00C4 [0x1F] MOVE_ENTITY: EventEntity moves to X=162.190*, Z=-395.684*, Y=-1.171*
  6: 0x00CC [0x1F] MOVE_ENTITY: Update entity position (mode=1)
  7: 0x00CE [0x1F] MOVE_ENTITY: EventEntity moves to X=163.296*, Z=-395.719*, Y=-0.830*
  8: 0x00D6 [0x1F] MOVE_ENTITY: Update entity position (mode=1)
  9: 0x00D8 [0x1F] MOVE_ENTITY: EventEntity moves to X=165.942*, Z=-395.704*, Y=0.042*
 10: 0x00E0 [0x1F] MOVE_ENTITY: Update entity position (mode=1)
 11: 0x00E2 [0x1F] MOVE_ENTITY: EventEntity moves to X=168.172*, Z=-395.736*, Y=0.812*
 12: 0x00EA [0x1F] MOVE_ENTITY: Update entity position (mode=1)
 13: 0x00EC [0x00] END_REQSTACK()
```
