# 17207892 - Tetu01

## Common Data

| Field            | Value                    |
|------------------|--------------------------|
| Zone             | Batallia Downs (ID: 105) |
| Block Size       | 128 bytes                |
| Total Events     | 5                        |
| References Count | 7                        |

## List of Events

| Event ID                 | Entrypoint   |   Size |   Instructions |
|--------------------------|--------------|--------|----------------|
| [65535](#event-65535)    | 0x0000       |      1 |              1 |
| [503](#event-503)        | 0x0001       |      1 |              1 |
| [65535.1](#event-655351) | 0x0002       |     10 |              2 |
| [65535.2](#event-655352) | 0x000C       |     10 |              2 |
| [65535.3](#event-655353) | 0x0016       |     42 |              8 |

## DAT References (imed_data)

|   Index | Hex Value   |   Dec Value |
|---------|-------------|-------------|
|       0 | 0x0000      |           0 |
|       1 | 0x0001      |           1 |
|       2 | 0x0080      |         128 |
|       3 | 0x005A      |          90 |
|       4 | 0x0015      |          21 |
|       5 | 0x0078      |         120 |
|       6 | 0x001D      |          29 |

## Events

### Event 65535

#### Metadata

| Field        | Value   |
|--------------|---------|
| Entrypoint   | 0x0000  |
| Data Size    | 1 bytes |
| Instructions | 1       |

```
      00 01 02 03 04 05 06 07  08 09 0A 0B 0C 0D 0E 0F
      -- -- -- -- -- -- -- --  -- -- -- -- -- -- -- --
0000: 00                                                .               
```

#### Opcodes

```
  0: 0x0000 [0x00] END_REQSTACK()
```

### Event 503

#### Metadata

| Field        | Value   |
|--------------|---------|
| Entrypoint   | 0x0001  |
| Data Size    | 1 bytes |
| Instructions | 1       |

```
      00 01 02 03 04 05 06 07  08 09 0A 0B 0C 0D 0E 0F
      -- -- -- -- -- -- -- --  -- -- -- -- -- -- -- --
0000:    00                                              .              
```

#### Opcodes

```
  0: 0x0001 [0x00] END_REQSTACK()
```

### Event 65535.1

#### Metadata

| Field        | Value    |
|--------------|----------|
| Entrypoint   | 0x0002   |
| Data Size    | 10 bytes |
| Instructions | 2        |

```
      00 01 02 03 04 05 06 07  08 09 0A 0B 0C 0D 0E 0F
      -- -- -- -- -- -- -- --  -- -- -- -- -- -- -- --
0000:       6C 54 92 06 01 00  80 01 80 00                lT........    
```

#### Opcodes

```
  0: 0x0002 [0x6C] FADE_ENTITY_COLOR(entity_id=Tetu01 (ID: 17207892/0x01069254), end_alpha=0*, fade_time=1*)
  1: 0x000B [0x00] END_REQSTACK()
```

### Event 65535.2

#### Metadata

| Field        | Value    |
|--------------|----------|
| Entrypoint   | 0x000C   |
| Data Size    | 10 bytes |
| Instructions | 2        |

```
      00 01 02 03 04 05 06 07  08 09 0A 0B 0C 0D 0E 0F
      -- -- -- -- -- -- -- --  -- -- -- -- -- -- -- --
0000:                                      6C 54 92 06              lT..
0010: 01 02 80 01 80 00                                 ......          
```

#### Opcodes

```
  0: 0x000C [0x6C] FADE_ENTITY_COLOR(entity_id=Tetu01 (ID: 17207892/0x01069254), end_alpha=128*, fade_time=1*)
  1: 0x0015 [0x00] END_REQSTACK()
```

### Event 65535.3

#### Metadata

| Field        | Value    |
|--------------|----------|
| Entrypoint   | 0x0016   |
| Data Size    | 42 bytes |
| Instructions | 8        |

```
      00 01 02 03 04 05 06 07  08 09 0A 0B 0C 0D 0E 0F
      -- -- -- -- -- -- -- --  -- -- -- -- -- -- -- --
0010:                   1C 03  80 6E 54 92 06 01 04 80        ...nT.....
0020: 99 54 92 06 01 1C 03 80  1E 56 92 06 01 1C 05 80  .T.......V......
0030: 66 06 80 54 92 06 01 54  92 06 01 74 68 6B 31 00  f..T...T...thk1.
```

#### Opcodes

```
  0: 0x0016 [0x1C] WAIT(90* ticks)
  1: 0x0019 [0x6E] Tetu01 (ID: 17207892/0x01069254) uses emote 21*
  2: 0x0020 [0x99] Wait for Tetu01 (ID: 17207892/0x01069254) animation to complete
  3: 0x0025 [0x1C] WAIT(90* ticks)
  4: 0x0028 [0x1E] EventEntity looks at Tetu03 (ID: 17207894/0x01069256) and starts talking
  5: 0x002D [0x1C] WAIT(120* ticks)
  6: 0x0030 [0x66] LOAD_EXT_SCHEDULER_MAIN: Load scheduler "thk1" with entities [Tetu01 (ID: 17207892/0x01069254), Tetu01 (ID: 17207892/0x01069254)], work=29*
  7: 0x003F [0x00] END_REQSTACK()
```
