# 17207853

## Common Data

| Field            | Value                    |
|------------------|--------------------------|
| Zone             | Batallia Downs (ID: 105) |
| Block Size       | 96 bytes                 |
| Total Events     | 2                        |
| References Count | 4                        |

## List of Events

| Event ID              | Entrypoint   |   Size |   Instructions |
|-----------------------|--------------|--------|----------------|
| [65535](#event-65535) | 0x0000       |      1 |              1 |
| [2](#event-2)         | 0x0001       |     55 |             11 |

## DAT References (imed_data)

|   Index | Hex Value   |   Dec Value |
|---------|-------------|-------------|
|       0 | 0x0003      |           3 |
|       1 | 0x0000      |           0 |
|       2 | 0x0027      |          39 |
|       3 | 0x005A      |          90 |

## Events

### Event 65535

#### Metadata

| Field        | Value   |
|--------------|---------|
| Entrypoint   | 0x0000  |
| Data Size    | 1 bytes |
| Instructions | 1       |

```
      00 01 02 03 04 05 06 07  08 09 0A 0B 0C 0D 0E 0F
      -- -- -- -- -- -- -- --  -- -- -- -- -- -- -- --
0000: 00                                                .               
```

#### Opcodes

```
  0: 0x0000 [0x00] END_REQSTACK()
```

### Event 2

#### Metadata

| Field        | Value    |
|--------------|----------|
| Entrypoint   | 0x0001   |
| Data Size    | 55 bytes |
| Instructions | 11       |

```
      00 01 02 03 04 05 06 07  08 09 0A 0B 0C 0D 0E 0F
      -- -- -- -- -- -- -- --  -- -- -- -- -- -- -- --
0000:    42 4A F0 FF FF 7F F8  FF FF 7F 6F 76 F0 FF FF   BJ........ov...
0010: 7F 62 00 80 F8 FF FF 7F  F8 FF FF 7F 6D 61 69 6E  .b..........main
0020: 01 80 6E F0 FF FF 7F 02  80 99 F0 FF FF 7F 99 F0  ..n.............
0030: FF FF 7F 1C 03 80 21 00                           ......!.        
```

#### Opcodes

```
  0: 0x0001 [0x42] SET_CLI_EVENT_CANCEL_DATA()
  1: 0x0002 [0x4A] LocalPlayer looks at EventEntity
  2: 0x000B [0x6F] WAIT_FRAME_DELAY: Yield until WaitTime reaches zero
  3: 0x000C [0x76] CHECK_ENTITY_RENDER_FLAGS: Wait until LocalPlayer Render.Flags0 and Render.Flags3 conditions are met
  4: 0x0011 [0x62] LOAD_EVENT_SCHEDULER: Load scheduler "main" with entities [EventEntity, EventEntity], work=[3*, 0*]
  5: 0x0022 [0x6E] LocalPlayer uses emote 39*
  6: 0x0029 [0x99] Wait for LocalPlayer animation to complete
  7: 0x002E [0x99] Wait for LocalPlayer animation to complete
  8: 0x0033 [0x1C] WAIT(90* ticks)
  9: 0x0036 [0x21] END_EVENT
 10: 0x0037 [0x00] END_REQSTACK()
```
