# 17207995 - Raptor

## Common Data

| Field            | Value                    |
|------------------|--------------------------|
| Zone             | Batallia Downs (ID: 105) |
| Block Size       | 176 bytes                |
| Total Events     | 3                        |
| References Count | 6                        |

## List of Events

| Event ID              | Entrypoint   |   Size |   Instructions |
|-----------------------|--------------|--------|----------------|
| [65535](#event-65535) | 0x0000       |      1 |              1 |
| [27](#event-27)       | 0x0001       |     87 |             20 |
| [24](#event-24)       | 0x0058       |     36 |             10 |

## DAT References (imed_data)

|   Index | Hex Value   |   Dec Value |
|---------|-------------|-------------|
|       0 | 0x0000      |           0 |
|       1 | 0x0006      |           6 |
|       2 | 0x0001      |           1 |
|       3 | 0x0004      |           4 |
|       4 | 0x0007      |           7 |
|       5 | 0x32D5      |       13013 |

## String References

- **13013**: $4/$5 p$0$2109216t$3

## Events

### Event 65535

#### Metadata

| Field        | Value   |
|--------------|---------|
| Entrypoint   | 0x0000  |
| Data Size    | 1 bytes |
| Instructions | 1       |

```
      00 01 02 03 04 05 06 07  08 09 0A 0B 0C 0D 0E 0F
      -- -- -- -- -- -- -- --  -- -- -- -- -- -- -- --
0000: 00                                                .               
```

#### Opcodes

```
  0: 0x0000 [0x00] END_REQSTACK()
```

### Event 27

#### Metadata

| Field        | Value    |
|--------------|----------|
| Entrypoint   | 0x0001   |
| Data Size    | 87 bytes |
| Instructions | 20       |

```
      00 01 02 03 04 05 06 07  08 09 0A 0B 0C 0D 0E 0F
      -- -- -- -- -- -- -- --  -- -- -- -- -- -- -- --
0000:    03 02 00 00 80 03 03  00 00 80 03 04 00 00 80   ...............
0010: 03 05 00 01 80 02 04 00  05 00 03 56 00 71 12 02  ...........V.q..
0020: 80 02 80 71 13 00 00 71  12 02 80 02 80 71 13 01  ...q...q.....q..
0030: 00 03 01 10 00 00 40 03  80 04 80 01 10 01 00 43  ......@........C
0040: 00 43 01 03 02 00 02 10  07 03 00 02 00 1A 59 00  .C............Y.
0050: 0B 04 00 01 15 00 21 00                           ......!.        
```

#### Opcodes

```
  0: 0x0001 [0x03] ExtData[1]->WorkLocal[2] = 0*
  1: 0x0006 [0x03] ExtData[1]->WorkLocal[3] = 0*
  2: 0x000B [0x03] ExtData[1]->WorkLocal[4] = 0*
  3: 0x0010 [0x03] ExtData[1]->WorkLocal[5] = 6*
  4: 0x0015 [0x02] IF !(ExtData[1]->WorkLocal[4] >= ExtData[1]->WorkLocal[5]) GOTO 0x0056
  5: 0x001D [0x71] USER_INPUT_HANDLER: Open numerical input with params (work=[1*, 1*])
  6: 0x0023 [0x71] USER_INPUT_HANDLER: Process numerical input B (work=ExtData[1]->WorkLocal[0])
  7: 0x0027 [0x71] USER_INPUT_HANDLER: Open numerical input with params (work=[1*, 1*])
  8: 0x002D [0x71] USER_INPUT_HANDLER: Process numerical input B (work=ExtData[1]->WorkLocal[1])
  9: 0x0031 [0x03] Work_Zone[1] = ExtData[1]->WorkLocal[0]
 10: 0x0036 [0x40] SET_BIT_WORK_RANGE(start_bit=4*, end_bit=7*, target=Work_Zone[1], source=ExtData[1]->WorkLocal[1])
 11: 0x003F [0x43] SEND_EVENT_UPDATE: Send pending tag to server (packet 0x005B)
 12: 0x0041 [0x43] SEND_EVENT_UPDATE: Check pending flag (skip if not pending)
 13: 0x0043 [0x03] ExtData[1]->WorkLocal[2] = Work_Zone[2]
 14: 0x0048 [0x07] ExtData[1]->WorkLocal[3] += ExtData[1]->WorkLocal[2]
 15: 0x004D [0x1A] CALL_SUBROUTINE(address=0x0059)
 16: 0x0050 [0x0B] ExtData[1]->WorkLocal[4]++
 17: 0x0053 [0x01] GOTO 0x0015
 18: 0x0056 [0x21] END_EVENT
 19: 0x0057 [0x00] END_REQSTACK()
```

### Event 24

#### Metadata

| Field        | Value    |
|--------------|----------|
| Entrypoint   | 0x0058   |
| Data Size    | 36 bytes |
| Instructions | 1        |

```
      00 01 02 03 04 05 06 07  08 09 0A 0B 0C 0D 0E 0F
      -- -- -- -- -- -- -- --  -- -- -- -- -- -- -- --
0050:                          00 03 02 10 00 00 03 03          ........
0060: 10 01 00 03 04 10 02 00  03 05 10 03 00 03 06 10  ................
0070: 04 00 03 07 10 05 00 1D  05 80 23 1B              ..........#.    
```

#### Opcodes

```
  0: 0x0058 [0x00] END_REQSTACK()
```

#### Data or dead code:

```
# Dead code (unreachable instructions):
     0x0059 [0x03] Work_Zone[2] = ExtData[1]->WorkLocal[0]
     0x005E [0x03] Work_Zone[3] = ExtData[1]->WorkLocal[1]
     0x0063 [0x03] Work_Zone[4] = ExtData[1]->WorkLocal[2]
     0x0068 [0x03] Work_Zone[5] = ExtData[1]->WorkLocal[3]
     0x006D [0x03] Work_Zone[6] = ExtData[1]->WorkLocal[4]
     0x0072 [0x03] Work_Zone[7] = ExtData[1]->WorkLocal[5]
     0x0077 [0x1D] PRINT_EVENT_MESSAGE(message_id=13013*)
    → "$4/$5 p$0$2109216t$3"
     0x007A [0x23] WAIT_FOR_DIALOG_INTERACTION
     0x007B [0x1B] RETURN
```
