# 0x7FFFFFF0 - Zone Events

## Common Data

| Field            | Value                    |
|------------------|--------------------------|
| Zone             | Batallia Downs (ID: 105) |
| Block Size       | 5548 bytes               |
| Total Events     | 93                       |
| References Count | 220                      |

## List of Events

| Event ID                   | Entrypoint   |   Size |   Instructions |
|----------------------------|--------------|--------|----------------|
| [65535](#event-65535)      | 0x0000       |      1 |              1 |
| [65534](#event-65534)      | 0x0001       |      1 |              1 |
| [1](#event-1)              | 0x0002       |    118 |             23 |
| [65535.1](#event-655351)   | 0x0078       |     10 |              2 |
| [65535.2](#event-655352)   | 0x0082       |     15 |              5 |
| [65535.3](#event-655353)   | 0x0091       |     17 |              5 |
| [65535.4](#event-655354)   | 0x00A2       |     10 |              2 |
| [65535.5](#event-655355)   | 0x00AC       |     10 |              2 |
| [65535.6](#event-655356)   | 0x00B6       |     10 |              2 |
| [65535.7](#event-655357)   | 0x00C0       |     15 |              5 |
| [65535.8](#event-655358)   | 0x00CF       |     37 |              5 |
| [65535.9](#event-655359)   | 0x00F4       |    185 |             37 |
| [65535.10](#event-6553510) | 0x01AD       |     10 |              2 |
| [65535.11](#event-6553511) | 0x01B7       |     19 |              6 |
| [65535.12](#event-6553512) | 0x01CA       |     16 |              4 |
| [65535.13](#event-6553513) | 0x01DA       |     23 |              5 |
| [65535.14](#event-6553514) | 0x01F1       |     24 |              6 |
| [65535.15](#event-6553515) | 0x0209       |     23 |              5 |
| [65535.16](#event-6553516) | 0x0220       |     16 |              3 |
| [65535.17](#event-6553517) | 0x0230       |     41 |              5 |
| [65535.18](#event-6553518) | 0x0259       |     13 |              3 |
| [65535.19](#event-6553519) | 0x0266       |     24 |              4 |
| [65535.20](#event-6553520) | 0x027E       |     24 |              4 |
| [65535.21](#event-6553521) | 0x0296       |     42 |              6 |
| [65535.22](#event-6553522) | 0x02C0       |      7 |              3 |
| [65535.23](#event-6553523) | 0x02C7       |      7 |              3 |
| [65535.24](#event-6553524) | 0x02CE       |     16 |              4 |
| [65535.25](#event-6553525) | 0x02DE       |     13 |              3 |
| [65535.26](#event-6553526) | 0x02EB       |     13 |              3 |
| [65535.27](#event-6553527) | 0x02F8       |     13 |              3 |
| [65535.28](#event-6553528) | 0x0305       |     13 |              3 |
| [65535.29](#event-6553529) | 0x0312       |     13 |              3 |
| [65535.30](#event-6553530) | 0x031F       |     13 |              3 |
| [65535.31](#event-6553531) | 0x032C       |     13 |              3 |
| [906](#event-906)          | 0x0339       |    370 |             49 |
| [65535.32](#event-6553532) | 0x04AB       |     31 |              8 |
| [65535.33](#event-6553533) | 0x04CA       |     31 |              8 |
| [65535.34](#event-6553534) | 0x04E9       |     31 |              8 |
| [65535.35](#event-6553535) | 0x0508       |     15 |              5 |
| [65535.36](#event-6553536) | 0x0517       |     15 |              5 |
| [65535.37](#event-6553537) | 0x0526       |     15 |              5 |
| [65535.38](#event-6553538) | 0x0535       |     27 |              5 |
| [65535.39](#event-6553539) | 0x0550       |     29 |              5 |
| [65535.40](#event-6553540) | 0x056D       |     27 |              5 |
| [65535.41](#event-6553541) | 0x0588       |     15 |              5 |
| [65535.42](#event-6553542) | 0x0597       |     27 |              5 |
| [65535.43](#event-6553543) | 0x05B2       |     35 |              6 |
| [65535.44](#event-6553544) | 0x05D5       |     27 |              5 |
| [65535.45](#event-6553545) | 0x05F0       |     14 |              4 |
| [65535.46](#event-6553546) | 0x05FE       |     14 |              4 |
| [65535.47](#event-6553547) | 0x060C       |     14 |              4 |
| [65535.48](#event-6553548) | 0x061A       |     14 |              4 |
| [65535.49](#event-6553549) | 0x0628       |     14 |              4 |
| [65535.50](#event-6553550) | 0x0636       |     14 |              4 |
| [65535.51](#event-6553551) | 0x0644       |     14 |              4 |
| [65535.52](#event-6553552) | 0x0652       |     28 |              6 |
| [65535.53](#event-6553553) | 0x066E       |     16 |              3 |
| [65535.54](#event-6553554) | 0x067E       |     16 |              3 |
| [65535.55](#event-6553555) | 0x068E       |     38 |              5 |
| [65535.56](#event-6553556) | 0x06B4       |     38 |              5 |
| [65535.57](#event-6553557) | 0x06DA       |     38 |              5 |
| [65535.58](#event-6553558) | 0x0700       |    209 |             25 |
| [65535.59](#event-6553559) | 0x07D1       |    209 |             25 |
| [65535.60](#event-6553560) | 0x08A2       |    209 |             25 |
| [65535.61](#event-6553561) | 0x0973       |    209 |             25 |
| [65535.62](#event-6553562) | 0x0A44       |    209 |             25 |
| [65535.63](#event-6553563) | 0x0B15       |     48 |              9 |
| [65535.64](#event-6553564) | 0x0B45       |     11 |              3 |
| [65535.65](#event-6553565) | 0x0B50       |     16 |              4 |
| [65535.66](#event-6553566) | 0x0B60       |      6 |              2 |
| [65535.67](#event-6553567) | 0x0B66       |      6 |              2 |
| [65535.68](#event-6553568) | 0x0B6C       |     16 |              3 |
| [65535.69](#event-6553569) | 0x0B7C       |     10 |              2 |
| [65535.70](#event-6553570) | 0x0B86       |     16 |              3 |
| [65535.71](#event-6553571) | 0x0B96       |     38 |              5 |
| [65535.72](#event-6553572) | 0x0BBC       |     38 |              5 |
| [65535.73](#event-6553573) | 0x0BE2       |     38 |              5 |
| [65535.74](#event-6553574) | 0x0C08       |     19 |              5 |
| [65535.75](#event-6553575) | 0x0C1B       |     11 |              3 |
| [65535.76](#event-6553576) | 0x0C26       |     35 |              9 |
| [65535.77](#event-6553577) | 0x0C49       |     35 |              9 |
| [65535.78](#event-6553578) | 0x0C6C       |     35 |              9 |
| [5505](#event-5505)        | 0x0C8F       |    128 |             14 |
| [65535.79](#event-6553579) | 0x0D0F       |      5 |              2 |
| [65535.80](#event-6553580) | 0x0D14       |      5 |              2 |
| [65535.81](#event-6553581) | 0x0D19       |      5 |              2 |
| [65535.82](#event-6553582) | 0x0D1E       |      5 |              2 |
| [65535.83](#event-6553583) | 0x0D23       |    345 |             33 |
| [24](#event-24)            | 0x0E7C       |    249 |             35 |
| [25](#event-25)            | 0x0F75       |    152 |             25 |
| [26](#event-26)            | 0x100D       |    162 |             27 |
| [65535.84](#event-6553584) | 0x10AF       |      6 |              2 |

## DAT References (imed_data)

|   Index | Hex Value   |   Dec Value |
|---------|-------------|-------------|
|       0 | 0x003C      |          60 |
|       1 | 0x1D74      |        7540 |
|       2 | 0x0003      |           3 |
|       3 | 0x0000      |           0 |
|       4 | 0x1D75      |        7541 |
|       5 | 0x341CA     |      213450 |
|       6 | 0xFFF6AB5A  |  4294355802 |
|       7 | 0x4021      |       16417 |
|       8 | 0x059E      |        1438 |
|       9 | 0x000D      |          13 |
|      10 | 0x33C07     |      211975 |
|      11 | 0xFFF6A2CD  |  4294353613 |
|      12 | 0x41CB      |       16843 |
|      13 | 0x34052     |      213074 |
|      14 | 0xFFF6A740  |  4294354752 |
|      15 | 0x40B9      |       16569 |
|      16 | 0x33A9A     |      211610 |
|      17 | 0xFFF6B470  |  4294358128 |
|      18 | 0x3E24      |       15908 |
|      19 | 0x09A9      |        2473 |
|      20 | 0x34C9D     |      216221 |
|      21 | 0xFFF6DB0C  |  4294368012 |
|      22 | 0x3366      |       13158 |
|      23 | 0x0307      |         775 |
|      24 | 0x35F28     |      220968 |
|      25 | 0xFFF6D75B  |  4294367067 |
|      26 | 0x325B      |       12891 |
|      27 | 0x0005      |           5 |
|      28 | 0x0001      |           1 |
|      29 | 0x0002      |           2 |
|      30 | 0x000A      |          10 |
|      31 | 0x0009      |           9 |
|      32 | 0x0046      |          70 |
|      33 | 0x008C      |         140 |
|      34 | 0x00D2      |         210 |
|      35 | 0x67CC8     |      425160 |
|      36 | 0xFFFD833B  |  4294804283 |
|      37 | 0x21E7      |        8679 |
|      38 | 0x0048      |          72 |
|      39 | 0x67BCD     |      424909 |
|      40 | 0xFFFD8065  |  4294803557 |
|      41 | 0x2201      |        8705 |
|      42 | 0x0CD4      |        3284 |
|      43 | 0x66F1C     |      421660 |
|      44 | 0xFFFD9B20  |  4294810400 |
|      45 | 0x22D4      |        8916 |
|      46 | 0x00B4      |         180 |
|      47 | 0x667CA     |      419786 |
|      48 | 0xFFFDAB28  |  4294814504 |
|      49 | 0x227B      |        8827 |
|      50 | 0x0D31      |        3377 |
|      51 | 0x67AC1     |      424641 |
|      52 | 0xFFFDBFD4  |  4294819796 |
|      53 | 0x208A      |        8330 |
|      54 | 0x68594     |      427412 |
|      55 | 0xFFFDC657  |  4294821463 |
|      56 | 0x1F76      |        8054 |
|      57 | 0x68F1A     |      429850 |
|      58 | 0xFFFDC37E  |  4294820734 |
|      59 | 0x1FCA      |        8138 |
|      60 | 0x740F5     |      475381 |
|      61 | 0xFFFD915C  |  4294807900 |
|      62 | 0x1F5D      |        8029 |
|      63 | 0x0063      |          99 |
|      64 | 0x7553C     |      480572 |
|      65 | 0xFFFD8E4C  |  4294807116 |
|      66 | 0x1F40      |        8000 |
|      67 | 0xFFFF41AC  |  4294918572 |
|      68 | 0x6AACD     |      436941 |
|      69 | 0x00EA      |         234 |
|      70 | 0x0093      |         147 |
|      71 | 0x00F0      |         240 |
|      72 | 0x00C8      |         200 |
|      73 | 0xFFFA3E37  |  4294590007 |
|      74 | 0x50C8B     |      330891 |
|      75 | 0xFFFFA284  |  4294943364 |
|      76 | 0x0818      |        2072 |
|      77 | 0x002B      |          43 |
|      78 | 0x005A      |          90 |
|      79 | 0x062B      |        1579 |
|      80 | 0x032B      |         811 |
|      81 | 0x042B      |        1067 |
|      82 | 0x012B      |         299 |
|      83 | 0x052B      |        1323 |
|      84 | 0x022B      |         555 |
|      85 | 0x0013      |          19 |
|      86 | 0x0090      |         144 |
|      87 | 0x6FC66     |      457830 |
|      88 | 0xFFFD97A5  |  4294809509 |
|      89 | 0x22BA      |        8890 |
|      90 | 0x0F8D      |        3981 |
|      91 | 0x1E0F      |        7695 |
|      92 | 0x001E      |          30 |
|      93 | 0x1E10      |        7696 |
|      94 | 0x1E11      |        7697 |
|      95 | 0x1E15      |        7701 |
|      96 | 0x1E12      |        7698 |
|      97 | 0x00C9      |         201 |
|      98 | 0x000B      |          11 |
|      99 | 0xFFFCF255  |  4294767189 |
|     100 | 0x57DA0     |      359840 |
|     101 | 0x1F3F      |        7999 |
|     102 | 0xFFFF44A9  |  4294919337 |
|     103 | 0x6AA40     |      436800 |
|     104 | 0x00C4      |         196 |
|     105 | 0x5A76E     |      370542 |
|     106 | 0xFFFC8EA4  |  4294741668 |
|     107 | 0x238D      |        9101 |
|     108 | 0xFFFCFBC1  |  4294769601 |
|     109 | 0x587B3     |      362419 |
|     110 | 0xFFFF31B9  |  4294914489 |
|     111 | 0x6AA5E     |      436830 |
|     112 | 0x01DC      |         476 |
|     113 | 0x59FE4     |      368612 |
|     114 | 0xFFFC8753  |  4294739795 |
|     115 | 0x2279      |        8825 |
|     116 | 0x012C      |         300 |
|     117 | 0xFFF97BFD  |  4294540285 |
|     118 | 0xFFFC5BE4  |  4294728676 |
|     119 | 0x4E1F      |       19999 |
|     120 | 0xFFF97779  |  4294539129 |
|     121 | 0xFFFC360E  |  4294718990 |
|     122 | 0x0C1B      |        3099 |
|     123 | 0x8DB92     |      580498 |
|     124 | 0xFFFCA9CB  |  4294748619 |
|     125 | 0x8C9F      |       35999 |
|     126 | 0x8D5BB     |      579003 |
|     127 | 0xFFFC9A22  |  4294744610 |
|     128 | 0x8D55A     |      578906 |
|     129 | 0xFFFC4448  |  4294722632 |
|     130 | 0x85CA      |       34250 |
|     131 | 0x87EAE     |      556718 |
|     132 | 0xFFFA6B61  |  4294601569 |
|     133 | 0xFFFB86AA  |  4294674090 |
|     134 | 0xFFF8B006  |  4294488070 |
|     135 | 0x8E17B     |      582011 |
|     136 | 0xFFFCC75C  |  4294756188 |
|     137 | 0x8D9B5     |      580021 |
|     138 | 0xFFFC8498  |  4294739096 |
|     139 | 0x0007      |           7 |
|     140 | 0x0080      |         128 |
|     141 | 0x0008      |           8 |
|     142 | 0x0091      |         145 |
|     143 | 0x004F      |          79 |
|     144 | 0x004C      |          76 |
|     145 | 0x0106      |         262 |
|     146 | 0x0040      |          64 |
|     147 | 0x0018      |          24 |
|     148 | 0x0050      |          80 |
|     149 | 0x0004      |           4 |
|     150 | 0x0060      |          96 |
|     151 | 0x0064      |         100 |
|     152 | 0x006E      |         110 |
|     153 | 0x0006      |           6 |
|     154 | 0x0078      |         120 |
|     155 | 0x0082      |         130 |
|     156 | 0x0049      |          73 |
|     157 | 0x0053      |          83 |
|     158 | 0x005D      |          93 |
|     159 | 0x0067      |         103 |
|     160 | 0x0071      |         113 |
|     161 | 0x007B      |         123 |
|     162 | 0x0085      |         133 |
|     163 | 0xFFFFFC18  |  4294966296 |
|     164 | 0x0BB8      |        3000 |
|     165 | 0x81434     |      529460 |
|     166 | 0xFFFA4FCB  |  4294594507 |
|     167 | 0x0F39      |        3897 |
|     168 | 0xFFFB6FF7  |  4294668279 |
|     169 | 0xFFF8B223  |  4294488611 |
|     170 | 0x0014      |          20 |
|     171 | 0x0054      |          84 |
|     172 | 0x0020      |          32 |
|     173 | 0x0030      |          48 |
|     174 | 0x255FA     |      153082 |
|     175 | 0xFFF9F599  |  4294571417 |
|     176 | 0xFFFFF2E9  |  4294963945 |
|     177 | 0xFFFEE007  |  4294893575 |
|     178 | 0x6BAEF     |      441071 |
|     179 | 0x0070      |         112 |
|     180 | 0x0028      |          40 |
|     181 | 0xFFFF24EE  |  4294911214 |
|     182 | 0x6B65C     |      439900 |
|     183 | 0x0323      |         803 |
|     184 | 0xFFFF2D07  |  4294913287 |
|     185 | 0x6A96C     |      436588 |
|     186 | 0x0254      |         596 |
|     187 | 0xFFFF37C6  |  4294916038 |
|     188 | 0x6AA67     |      436839 |
|     189 | 0x0168      |         360 |
|     190 | 0x002D      |          45 |
|     191 | 0x000F      |          15 |
|     192 | 0x0057      |          87 |
|     193 | 0x008D      |         141 |
|     194 | 0x0F26      |        3878 |
|     195 | 0x0097      |         151 |
|     196 | 0x00A1      |         161 |
|     197 | 0x00AB      |         171 |
|     198 | 0x00B5      |         181 |
|     199 | 0x00BF      |         191 |
|     200 | 0xFFF839E2  |  4294457826 |
|     201 | 0x32762     |      206690 |
|     202 | 0xFFFFC1E4  |  4294951396 |
|     203 | 0x0867      |        2151 |
|     204 | 0xFFF831A4  |  4294455716 |
|     205 | 0x33194     |      209300 |
|     206 | 0xFFFFC144  |  4294951236 |
|     207 | 0x01AD      |         429 |
|     208 | 0x32C5      |       12997 |
|     209 | 0x32C6      |       12998 |
|     210 | 0x32C7      |       12999 |
|     211 | 0x32C8      |       13000 |
|     212 | 0x32C9      |       13001 |
|     213 | 0x32CA      |       13002 |
|     214 | 0x32CB      |       13003 |
|     215 | 0x32CC      |       13004 |
|     216 | 0x32D1      |       13009 |
|     217 | 0x32D3      |       13011 |
|     218 | 0x32D4      |       13012 |
|     219 | 0x32D2      |       13010 |

## String References

- **7540**: Something is buried underneath a piece of light blue glass.
- **7541**: You leave the glass where it is.
- **13009**: The raptor speeds off into the sunset...
- **13010**: Reattempt the course? [Yes, please./Yes, but at a lower difficulty./I'm done for now.]
- **13011**: At lower difficulty levels the raptor will remain in high spirits for longer and its Pep gauge will fill up easier.
- **13012**: Note that you will be unable to qualify for the best time record at a lower difficulty level.

## Events

### Event 65535

#### Metadata

| Field        | Value   |
|--------------|---------|
| Entrypoint   | 0x0000  |
| Data Size    | 1 bytes |
| Instructions | 1       |

```
      00 01 02 03 04 05 06 07  08 09 0A 0B 0C 0D 0E 0F
      -- -- -- -- -- -- -- --  -- -- -- -- -- -- -- --
0000: 00                                                .               
```

#### Opcodes

```
  0: 0x0000 [0x00] END_REQSTACK()
```

### Event 65534

#### Metadata

| Field        | Value   |
|--------------|---------|
| Entrypoint   | 0x0001  |
| Data Size    | 1 bytes |
| Instructions | 1       |

```
      00 01 02 03 04 05 06 07  08 09 0A 0B 0C 0D 0E 0F
      -- -- -- -- -- -- -- --  -- -- -- -- -- -- -- --
0000:    00                                              .              
```

#### Opcodes

```
  0: 0x0001 [0x00] END_REQSTACK()
```

### Event 1

#### Metadata

| Field        | Value     |
|--------------|-----------|
| Entrypoint   | 0x0002    |
| Data Size    | 118 bytes |
| Instructions | 23        |

```
      00 01 02 03 04 05 06 07  08 09 0A 0B 0C 0D 0E 0F
      -- -- -- -- -- -- -- --  -- -- -- -- -- -- -- --
0000:       20 01 42 1E 12 92  06 01 6F 70 03 00 00 07     .B.....op....
0010: 7F 1A 19 01 66 01 00 F0  FF FF 7F F0 FF FF 7F 73  ....f..........s
0020: 68 61 30 53 F0 FF FF 7F  F0 FF FF 7F 73 68 61 30  ha0S........sha0
0030: 1C 00 80 48 01 80 23 62  02 80 12 92 06 01 12 92  ...H..#b........
0040: 06 01 6D 61 69 6E 03 80  1C 00 80 48 04 80 23 1C  ..main.....H..#.
0050: 00 80 03 00 00 07 7F 1A  19 01 66 01 00 F0 FF FF  ..........f.....
0060: 7F F0 FF FF 7F 73 68 61  31 53 F0 FF FF 7F F0 FF  .....sha1S......
0070: FF 7F 73 68 61 31 21 00                           ..sha1!.        
```

#### Opcodes

```
  0: 0x0002 [0x20] SET_CLI_EVENT_UC_FLAG: Lock player control
  1: 0x0004 [0x42] SET_CLI_EVENT_CANCEL_DATA()
  2: 0x0005 [0x1E] EventEntity looks at ??? (ID: 17207826/0x01069212) and starts talking
  3: 0x000A [0x6F] WAIT_FRAME_DELAY: Yield until WaitTime reaches zero
  4: 0x000B [0x70] WAIT_ENTITY_RENDER_FLAG: Wait while EventEntity->Render.Flags3 bit 2 is set (cancel turn if not)
  5: 0x000C [0x03] ExtData[1]->WorkLocal[0] = Entity->Race
  6: 0x0011 [0x1A] CALL_SUBROUTINE(address=0x0119)
  7: 0x0014 [0x66] LOAD_EXT_SCHEDULER_MAIN: Load scheduler "sha0" with entities [LocalPlayer, LocalPlayer], work=ExtData[1]->WorkLocal[1]
  8: 0x0023 [0x53] WAIT_SCHEDULER_TASK: Wait for scheduler "sha0" with entities [LocalPlayer, LocalPlayer]
  9: 0x0030 [0x1C] WAIT(60* ticks)
 10: 0x0033 [0x48] [System] [7540*]:
    → "Something is buried underneath a piece of light blue glass."
 11: 0x0036 [0x23] WAIT_FOR_DIALOG_INTERACTION
 12: 0x0037 [0x62] LOAD_EVENT_SCHEDULER: Load scheduler "main" with entities [??? (ID: 17207826/0x01069212), ??? (ID: 17207826/0x01069212)], work=[3*, 0*]
 13: 0x0048 [0x1C] WAIT(60* ticks)
 14: 0x004B [0x48] [System] [7541*]:
    → "You leave the glass where it is."
 15: 0x004E [0x23] WAIT_FOR_DIALOG_INTERACTION
 16: 0x004F [0x1C] WAIT(60* ticks)
 17: 0x0052 [0x03] ExtData[1]->WorkLocal[0] = Entity->Race
 18: 0x0057 [0x1A] CALL_SUBROUTINE(address=0x0119)
 19: 0x005A [0x66] LOAD_EXT_SCHEDULER_MAIN: Load scheduler "sha1" with entities [LocalPlayer, LocalPlayer], work=ExtData[1]->WorkLocal[1]
 20: 0x0069 [0x53] WAIT_SCHEDULER_TASK: Wait for scheduler "sha1" with entities [LocalPlayer, LocalPlayer]
 21: 0x0076 [0x21] END_EVENT
 22: 0x0077 [0x00] END_REQSTACK()
```

### Event 65535.1

#### Metadata

| Field        | Value    |
|--------------|----------|
| Entrypoint   | 0x0078   |
| Data Size    | 10 bytes |
| Instructions | 2        |

```
      00 01 02 03 04 05 06 07  08 09 0A 0B 0C 0D 0E 0F
      -- -- -- -- -- -- -- --  -- -- -- -- -- -- -- --
0070:                          37 05 80 06 80 07 80 08          7.......
0080: 80 00                                             ..              
```

#### Opcodes

```
  0: 0x0078 [0x37] UPDATE_EVENT_POSITION_AND_DIR: x=213.450*, z=-611.494*, y=16.417*, direction=126.4°*
  1: 0x0081 [0x00] END_REQSTACK()
```

### Event 65535.2

#### Metadata

| Field        | Value    |
|--------------|----------|
| Entrypoint   | 0x0082   |
| Data Size    | 15 bytes |
| Instructions | 5        |

```
      00 01 02 03 04 05 06 07  08 09 0A 0B 0C 0D 0E 0F
      -- -- -- -- -- -- -- --  -- -- -- -- -- -- -- --
0080:       32 09 80 1F 00 0A  80 0B 80 0C 80 1F 01 6F    2............o
0090: 00                                                .               
```

#### Opcodes

```
  0: 0x0082 [0x32] ExtData[1]->MainSpeed = 13* * 0.1
  1: 0x0085 [0x1F] MOVE_ENTITY: EventEntity moves to X=211.975*, Z=-613.683*, Y=16.843*
  2: 0x008D [0x1F] MOVE_ENTITY: Update entity position (mode=1)
  3: 0x008F [0x6F] WAIT_FRAME_DELAY: Yield until WaitTime reaches zero
  4: 0x0090 [0x00] END_REQSTACK()
```

### Event 65535.3

#### Metadata

| Field        | Value    |
|--------------|----------|
| Entrypoint   | 0x0091   |
| Data Size    | 17 bytes |
| Instructions | 5        |

```
      00 01 02 03 04 05 06 07  08 09 0A 0B 0C 0D 0E 0F
      -- -- -- -- -- -- -- --  -- -- -- -- -- -- -- --
0090:    1F 00 0D 80 0E 80 0F  80 1F 01 6F 1E 16 92 06   ..........o....
00A0: 01 00                                             ..              
```

#### Opcodes

```
  0: 0x0091 [0x1F] MOVE_ENTITY: EventEntity moves to X=213.074*, Z=-612.544*, Y=16.569*
  1: 0x0099 [0x1F] MOVE_ENTITY: Update entity position (mode=1)
  2: 0x009B [0x6F] WAIT_FRAME_DELAY: Yield until WaitTime reaches zero
  3: 0x009C [0x1E] EventEntity looks at Rochefogne (ID: 17207830/0x01069216) and starts talking
  4: 0x00A1 [0x00] END_REQSTACK()
```

### Event 65535.4

#### Metadata

| Field        | Value    |
|--------------|----------|
| Entrypoint   | 0x00A2   |
| Data Size    | 10 bytes |
| Instructions | 2        |

```
      00 01 02 03 04 05 06 07  08 09 0A 0B 0C 0D 0E 0F
      -- -- -- -- -- -- -- --  -- -- -- -- -- -- -- --
00A0:       37 10 80 11 80 12  80 13 80 00                7.........    
```

#### Opcodes

```
  0: 0x00A2 [0x37] UPDATE_EVENT_POSITION_AND_DIR: x=211.610*, z=-609.168*, y=15.908*, direction=217.3°*
  1: 0x00AB [0x00] END_REQSTACK()
```

### Event 65535.5

#### Metadata

| Field        | Value    |
|--------------|----------|
| Entrypoint   | 0x00AC   |
| Data Size    | 10 bytes |
| Instructions | 2        |

```
      00 01 02 03 04 05 06 07  08 09 0A 0B 0C 0D 0E 0F
      -- -- -- -- -- -- -- --  -- -- -- -- -- -- -- --
00A0:                                      37 10 80 11              7...
00B0: 80 12 80 13 80 00                                 ......          
```

#### Opcodes

```
  0: 0x00AC [0x37] UPDATE_EVENT_POSITION_AND_DIR: x=211.610*, z=-609.168*, y=15.908*, direction=217.3°*
  1: 0x00B5 [0x00] END_REQSTACK()
```

### Event 65535.6

#### Metadata

| Field        | Value    |
|--------------|----------|
| Entrypoint   | 0x00B6   |
| Data Size    | 10 bytes |
| Instructions | 2        |

```
      00 01 02 03 04 05 06 07  08 09 0A 0B 0C 0D 0E 0F
      -- -- -- -- -- -- -- --  -- -- -- -- -- -- -- --
00B0:                   37 14  80 15 80 16 80 17 80 00        7.........
```

#### Opcodes

```
  0: 0x00B6 [0x37] UPDATE_EVENT_POSITION_AND_DIR: x=216.221*, z=-599.284*, y=13.158*, direction=68.1°*
  1: 0x00BF [0x00] END_REQSTACK()
```

### Event 65535.7

#### Metadata

| Field        | Value    |
|--------------|----------|
| Entrypoint   | 0x00C0   |
| Data Size    | 15 bytes |
| Instructions | 5        |

```
      00 01 02 03 04 05 06 07  08 09 0A 0B 0C 0D 0E 0F
      -- -- -- -- -- -- -- --  -- -- -- -- -- -- -- --
00C0: 32 09 80 1F 00 18 80 19  80 1A 80 1F 01 6F 00     2............o. 
```

#### Opcodes

```
  0: 0x00C0 [0x32] ExtData[1]->MainSpeed = 13* * 0.1
  1: 0x00C3 [0x1F] MOVE_ENTITY: EventEntity moves to X=220.968*, Z=-600.229*, Y=12.891*
  2: 0x00CB [0x1F] MOVE_ENTITY: Update entity position (mode=1)
  3: 0x00CD [0x6F] WAIT_FRAME_DELAY: Yield until WaitTime reaches zero
  4: 0x00CE [0x00] END_REQSTACK()
```

### Event 65535.8

#### Metadata

| Field        | Value    |
|--------------|----------|
| Entrypoint   | 0x00CF   |
| Data Size    | 37 bytes |
| Instructions | 5        |

```
      00 01 02 03 04 05 06 07  08 09 0A 0B 0C 0D 0E 0F
      -- -- -- -- -- -- -- --  -- -- -- -- -- -- -- --
00C0:                                               03                 .
00D0: 00 00 07 7F 1A 19 01 66  01 00 F0 FF FF 7F F0 FF  .......f........
00E0: FF 7F 73 68 61 30 53 F0  FF FF 7F F0 FF FF 7F 73  ..sha0S........s
00F0: 68 61 30 00                                       ha0.            
```

#### Opcodes

```
  0: 0x00CF [0x03] ExtData[1]->WorkLocal[0] = Entity->Race
  1: 0x00D4 [0x1A] CALL_SUBROUTINE(address=0x0119)
  2: 0x00D7 [0x66] LOAD_EXT_SCHEDULER_MAIN: Load scheduler "sha0" with entities [LocalPlayer, LocalPlayer], work=ExtData[1]->WorkLocal[1]
  3: 0x00E6 [0x53] WAIT_SCHEDULER_TASK: Wait for scheduler "sha0" with entities [LocalPlayer, LocalPlayer]
  4: 0x00F3 [0x00] END_REQSTACK()
```

### Event 65535.9

#### Metadata

| Field        | Value     |
|--------------|-----------|
| Entrypoint   | 0x00F4    |
| Data Size    | 185 bytes |
| Instructions | 13        |

```
      00 01 02 03 04 05 06 07  08 09 0A 0B 0C 0D 0E 0F
      -- -- -- -- -- -- -- --  -- -- -- -- -- -- -- --
00F0:             03 00 00 07  7F 1A 19 01 66 01 00 F0      ........f...
0100: FF FF 7F F0 FF FF 7F 73  68 61 31 53 F0 FF FF 7F  .......sha1S....
0110: F0 FF FF 7F 73 68 61 31  00 03 01 00 00 00 02 01  ....sha1........
0120: 00 1B 80 05 2E 01 08 01  00 1C 80 01 33 01 08 01  ............3...
0130: 00 1D 80 14 01 00 1E 80  07 01 00 1F 80 1B 03 01  ................
0140: 00 00 00 02 01 00 1B 80  05 53 01 08 01 00 1C 80  .........S......
0150: 01 58 01 08 01 00 1D 80  14 01 00 1E 80 07 01 00  .X..............
0160: 20 80 1B 03 01 00 00 00  02 01 00 1B 80 05 78 01   .............x.
0170: 08 01 00 1C 80 01 7D 01  08 01 00 1D 80 14 01 00  ......}.........
0180: 1E 80 07 01 00 21 80 1B  03 01 00 00 00 02 01 00  .....!..........
0190: 1B 80 05 9D 01 08 01 00  1C 80 01 A2 01 08 01 00  ................
01A0: 1D 80 14 01 00 1E 80 07  01 00 22 80 1B           .........."..   
```

#### Opcodes

```
  0: 0x00F4 [0x03] ExtData[1]->WorkLocal[0] = Entity->Race
  1: 0x00F9 [0x1A] CALL_SUBROUTINE(address=0x0119)
  2: 0x00FC [0x66] LOAD_EXT_SCHEDULER_MAIN: Load scheduler "sha1" with entities [LocalPlayer, LocalPlayer], work=ExtData[1]->WorkLocal[1]
  3: 0x010B [0x53] WAIT_SCHEDULER_TASK: Wait for scheduler "sha1" with entities [LocalPlayer, LocalPlayer]
  4: 0x0118 [0x00] END_REQSTACK()

SUBROUTINE_0119:
  5: 0x0119 [0x03] ExtData[1]->WorkLocal[1] = ExtData[1]->WorkLocal[0]
  6: 0x011E [0x02] IF !(ExtData[1]->WorkLocal[1] > 5*) GOTO 0x012E
  7: 0x0126 [0x08] ExtData[1]->WorkLocal[1] -= 1*
  8: 0x012B [0x01] GOTO 0x0133
  9: 0x012E [0x08] ExtData[1]->WorkLocal[1] -= 2*

SUBROUTINE_0133:
 10: 0x0133 [0x14] ExtData[1]->WorkLocal[1] *= 10*
 11: 0x0138 [0x07] ExtData[1]->WorkLocal[1] += 9*
 12: 0x013D [0x1B] RETURN
```

#### Data or dead code:

```
# Dead code (unreachable instructions):
     0x013E [0x03] ExtData[1]->WorkLocal[1] = ExtData[1]->WorkLocal[0]
     0x0143 [0x02] IF !(ExtData[1]->WorkLocal[1] > 5*) GOTO 0x0153
     0x014B [0x08] ExtData[1]->WorkLocal[1] -= 1*
     0x0150 [0x01] GOTO 0x0158
     0x0153 [0x08] ExtData[1]->WorkLocal[1] -= 2*
     0x0158 [0x14] ExtData[1]->WorkLocal[1] *= 10*
     0x015D [0x07] ExtData[1]->WorkLocal[1] += 70*
     0x0162 [0x1B] RETURN
     0x0163 [0x03] ExtData[1]->WorkLocal[1] = ExtData[1]->WorkLocal[0]
     0x0168 [0x02] IF !(ExtData[1]->WorkLocal[1] > 5*) GOTO 0x0178
     0x0170 [0x08] ExtData[1]->WorkLocal[1] -= 1*
     0x0175 [0x01] GOTO 0x017D
     0x0178 [0x08] ExtData[1]->WorkLocal[1] -= 2*
     0x017D [0x14] ExtData[1]->WorkLocal[1] *= 10*
     0x0182 [0x07] ExtData[1]->WorkLocal[1] += 140*
     0x0187 [0x1B] RETURN
     0x0188 [0x03] ExtData[1]->WorkLocal[1] = ExtData[1]->WorkLocal[0]
     0x018D [0x02] IF !(ExtData[1]->WorkLocal[1] > 5*) GOTO 0x019D
     0x0195 [0x08] ExtData[1]->WorkLocal[1] -= 1*
     0x019A [0x01] GOTO 0x01A2
     0x019D [0x08] ExtData[1]->WorkLocal[1] -= 2*
     0x01A2 [0x14] ExtData[1]->WorkLocal[1] *= 10*
     0x01A7 [0x07] ExtData[1]->WorkLocal[1] += 210*
     0x01AC [0x1B] RETURN
```

### Event 65535.10

#### Metadata

| Field        | Value    |
|--------------|----------|
| Entrypoint   | 0x01AD   |
| Data Size    | 10 bytes |
| Instructions | 2        |

```
      00 01 02 03 04 05 06 07  08 09 0A 0B 0C 0D 0E 0F
      -- -- -- -- -- -- -- --  -- -- -- -- -- -- -- --
01A0:                                         37 23 80               7#.
01B0: 24 80 25 80 26 80 00                              $.%.&..         
```

#### Opcodes

```
  0: 0x01AD [0x37] UPDATE_EVENT_POSITION_AND_DIR: x=425.160*, z=-163.013*, y=8.679*, direction=6.3°*
  1: 0x01B6 [0x00] END_REQSTACK()
```

### Event 65535.11

#### Metadata

| Field        | Value    |
|--------------|----------|
| Entrypoint   | 0x01B7   |
| Data Size    | 19 bytes |
| Instructions | 6        |

```
      00 01 02 03 04 05 06 07  08 09 0A 0B 0C 0D 0E 0F
      -- -- -- -- -- -- -- --  -- -- -- -- -- -- -- --
01B0:                      32  09 80 1F 00 27 80 28 80         2....'.(.
01C0: 29 80 1F 01 22 00 39 2A  80 00                    )...".9*..      
```

#### Opcodes

```
  0: 0x01B7 [0x32] ExtData[1]->MainSpeed = 13* * 0.1
  1: 0x01BA [0x1F] MOVE_ENTITY: EventEntity moves to X=424.909*, Z=-163.739*, Y=8.705*
  2: 0x01C2 [0x1F] MOVE_ENTITY: Update entity position (mode=1)
  3: 0x01C4 [0x22] ENTITY_HIDE_FLAG(enabled=0x00)
  4: 0x01C6 [0x39] SET_ENTITY_DIRECTION(direction=18.0°*)
  5: 0x01C9 [0x00] END_REQSTACK()
```

### Event 65535.12

#### Metadata

| Field        | Value    |
|--------------|----------|
| Entrypoint   | 0x01CA   |
| Data Size    | 16 bytes |
| Instructions | 4        |

```
      00 01 02 03 04 05 06 07  08 09 0A 0B 0C 0D 0E 0F
      -- -- -- -- -- -- -- --  -- -- -- -- -- -- -- --
01C0:                                32 09 80 31 00 2B            2..1.+
01D0: 80 2C 80 2D 80 2E 80 31  01 00                    .,.-...1..      
```

#### Opcodes

```
  0: 0x01CA [0x32] ExtData[1]->MainSpeed = 13* * 0.1
  1: 0x01CD [0x31] UPDATE_ENTITY_POSITION: Set EventEntity goal position to X=421.660*, Z=-156.896*, Y=8.916*, Time=180*
  2: 0x01D7 [0x31] UPDATE_ENTITY_POSITION: Move EventEntity towards goal position
  3: 0x01D9 [0x00] END_REQSTACK()
```

### Event 65535.13

#### Metadata

| Field        | Value    |
|--------------|----------|
| Entrypoint   | 0x01DA   |
| Data Size    | 23 bytes |
| Instructions | 5        |

```
      00 01 02 03 04 05 06 07  08 09 0A 0B 0C 0D 0E 0F
      -- -- -- -- -- -- -- --  -- -- -- -- -- -- -- --
01D0:                                37 2F 80 30 80 31            7/.0.1
01E0: 80 32 80 32 09 80 1F 00  33 80 34 80 35 80 1F 01  .2.2....3.4.5...
01F0: 00                                                .               
```

#### Opcodes

```
  0: 0x01DA [0x37] UPDATE_EVENT_POSITION_AND_DIR: x=419.786*, z=-152.792*, y=8.827*, direction=296.8°*
  1: 0x01E3 [0x32] ExtData[1]->MainSpeed = 13* * 0.1
  2: 0x01E6 [0x1F] MOVE_ENTITY: EventEntity moves to X=424.641*, Z=-147.500*, Y=8.330*
  3: 0x01EE [0x1F] MOVE_ENTITY: Update entity position (mode=1)
  4: 0x01F0 [0x00] END_REQSTACK()
```

### Event 65535.14

#### Metadata

| Field        | Value    |
|--------------|----------|
| Entrypoint   | 0x01F1   |
| Data Size    | 24 bytes |
| Instructions | 6        |

```
      00 01 02 03 04 05 06 07  08 09 0A 0B 0C 0D 0E 0F
      -- -- -- -- -- -- -- --  -- -- -- -- -- -- -- --
01F0:    32 09 80 1F 00 36 80  37 80 38 80 1F 01 1F 00   2....6.7.8.....
0200: 39 80 3A 80 3B 80 1F 01  00                       9.:.;....       
```

#### Opcodes

```
  0: 0x01F1 [0x32] ExtData[1]->MainSpeed = 13* * 0.1
  1: 0x01F4 [0x1F] MOVE_ENTITY: EventEntity moves to X=427.412*, Z=-145.833*, Y=8.054*
  2: 0x01FC [0x1F] MOVE_ENTITY: Update entity position (mode=1)
  3: 0x01FE [0x1F] MOVE_ENTITY: EventEntity moves to X=429.850*, Z=-146.562*, Y=8.138*
  4: 0x0206 [0x1F] MOVE_ENTITY: Update entity position (mode=1)
  5: 0x0208 [0x00] END_REQSTACK()
```

### Event 65535.15

#### Metadata

| Field        | Value    |
|--------------|----------|
| Entrypoint   | 0x0209   |
| Data Size    | 23 bytes |
| Instructions | 5        |

```
      00 01 02 03 04 05 06 07  08 09 0A 0B 0C 0D 0E 0F
      -- -- -- -- -- -- -- --  -- -- -- -- -- -- -- --
0200:                             37 3C 80 3D 80 3E 80           7<.=.>.
0210: 3F 80 32 09 80 1F 00 40  80 41 80 42 80 1F 01 00  ?.2....@.A.B....
```

#### Opcodes

```
  0: 0x0209 [0x37] UPDATE_EVENT_POSITION_AND_DIR: x=475.381*, z=-159.396*, y=8.029*, direction=8.7°*
  1: 0x0212 [0x32] ExtData[1]->MainSpeed = 13* * 0.1
  2: 0x0215 [0x1F] MOVE_ENTITY: EventEntity moves to X=480.572*, Z=-160.180*, Y=8.000*
  3: 0x021D [0x1F] MOVE_ENTITY: Update entity position (mode=1)
  4: 0x021F [0x00] END_REQSTACK()
```

### Event 65535.16

#### Metadata

| Field        | Value    |
|--------------|----------|
| Entrypoint   | 0x0220   |
| Data Size    | 16 bytes |
| Instructions | 3        |

```
      00 01 02 03 04 05 06 07  08 09 0A 0B 0C 0D 0E 0F
      -- -- -- -- -- -- -- --  -- -- -- -- -- -- -- --
0220: 92 01 F0 FF FF 7F 37 43  80 44 80 45 80 03 80 00  ......7C.D.E....
```

#### Opcodes

```
  0: 0x0220 [0x92] LocalPlayer->Render.Flags3 ^= 0x01
  1: 0x0226 [0x37] UPDATE_EVENT_POSITION_AND_DIR: x=-48.724*, z=436.941*, y=0.234*, direction=0.0°*
  2: 0x022F [0x00] END_REQSTACK()
```

### Event 65535.17

#### Metadata

| Field        | Value    |
|--------------|----------|
| Entrypoint   | 0x0230   |
| Data Size    | 41 bytes |
| Instructions | 5        |

```
      00 01 02 03 04 05 06 07  08 09 0A 0B 0C 0D 0E 0F
      -- -- -- -- -- -- -- --  -- -- -- -- -- -- -- --
0230: BB 46 80 F0 FF FF 7F 30  92 06 01 6D 61 69 6E 03  .F.....0...main.
0240: 80 1C 47 80 45 48 80 F0  FF FF 7F F0 FF FF 7F 66  ..G.EH.........f
0250: 64 6F 31 03 80 1C 00 80  00                       do1......       
```

#### Opcodes

```
  0: 0x0230 [0xBB] LOAD_EVENT_SCHEDULER_ALT: Load scheduler "main" with entities [LocalPlayer, Cavernous Maw (ID: 17207856/0x01069230)], work=[147*, 0*]
  1: 0x0241 [0x1C] WAIT(240* ticks)
  2: 0x0244 [0x45] LOAD_SCHEDULED_TASK: Load scheduler "fdo1" with entities [LocalPlayer, LocalPlayer], work=[200*, 0*]
  3: 0x0255 [0x1C] WAIT(60* ticks)
  4: 0x0258 [0x00] END_REQSTACK()
```

### Event 65535.18

#### Metadata

| Field        | Value    |
|--------------|----------|
| Entrypoint   | 0x0259   |
| Data Size    | 13 bytes |
| Instructions | 3        |

```
      00 01 02 03 04 05 06 07  08 09 0A 0B 0C 0D 0E 0F
      -- -- -- -- -- -- -- --  -- -- -- -- -- -- -- --
0250:                             47 00 49 80 4A 80 4B           G.I.J.K
0260: 80 4C 80 47 01 00                                 .L.G..          
```

#### Opcodes

```
  0: 0x0259 [0x47] UPDATE_PLAYER_POS(-377.289*, 330.891*, -23.932*, yaw=182.1°*)
  1: 0x0263 [0x47] WAIT_PLAYER_POS_UPDATE
  2: 0x0265 [0x00] END_REQSTACK()
```

### Event 65535.19

#### Metadata

| Field        | Value    |
|--------------|----------|
| Entrypoint   | 0x0266   |
| Data Size    | 24 bytes |
| Instructions | 4        |

```
      00 01 02 03 04 05 06 07  08 09 0A 0B 0C 0D 0E 0F
      -- -- -- -- -- -- -- --  -- -- -- -- -- -- -- --
0260:                   03 00  00 07 7F 1A 19 01 66 01        ........f.
0270: 00 F8 FF FF 7F F8 FF FF  7F 74 6C 6B 30 00        .........tlk0.  
```

#### Opcodes

```
  0: 0x0266 [0x03] ExtData[1]->WorkLocal[0] = Entity->Race
  1: 0x026B [0x1A] CALL_SUBROUTINE(address=0x0119)
  2: 0x026E [0x66] LOAD_EXT_SCHEDULER_MAIN: Load scheduler "tlk0" with entities [EventEntity, EventEntity], work=ExtData[1]->WorkLocal[1]
  3: 0x027D [0x00] END_REQSTACK()
```

### Event 65535.20

#### Metadata

| Field        | Value    |
|--------------|----------|
| Entrypoint   | 0x027E   |
| Data Size    | 24 bytes |
| Instructions | 4        |

```
      00 01 02 03 04 05 06 07  08 09 0A 0B 0C 0D 0E 0F
      -- -- -- -- -- -- -- --  -- -- -- -- -- -- -- --
0270:                                            03 00                ..
0280: 00 07 7F 1A 19 01 66 01  00 F8 FF FF 7F F8 FF FF  ......f.........
0290: 7F 74 6C 6B 31 00                                 .tlk1.          
```

#### Opcodes

```
  0: 0x027E [0x03] ExtData[1]->WorkLocal[0] = Entity->Race
  1: 0x0283 [0x1A] CALL_SUBROUTINE(address=0x0119)
  2: 0x0286 [0x66] LOAD_EXT_SCHEDULER_MAIN: Load scheduler "tlk1" with entities [EventEntity, EventEntity], work=ExtData[1]->WorkLocal[1]
  3: 0x0295 [0x00] END_REQSTACK()
```

### Event 65535.21

#### Metadata

| Field        | Value    |
|--------------|----------|
| Entrypoint   | 0x0296   |
| Data Size    | 42 bytes |
| Instructions | 6        |

```
      00 01 02 03 04 05 06 07  08 09 0A 0B 0C 0D 0E 0F
      -- -- -- -- -- -- -- --  -- -- -- -- -- -- -- --
0290:                   03 00  00 07 7F 1A 3E 01 07 01        ......>...
02A0: 00 1C 80 66 01 00 F8 FF  FF 7F F8 FF FF 7F 70 61  ...f..........pa
02B0: 73 30 53 F8 FF FF 7F F8  FF FF 7F 70 61 73 30 00  s0S........pas0.
```

#### Opcodes

```
  0: 0x0296 [0x03] ExtData[1]->WorkLocal[0] = Entity->Race
  1: 0x029B [0x1A] CALL_SUBROUTINE(address=0x013E)
  2: 0x029E [0x07] ExtData[1]->WorkLocal[1] += 1*
  3: 0x02A3 [0x66] LOAD_EXT_SCHEDULER_MAIN: Load scheduler "pas0" with entities [EventEntity, EventEntity], work=ExtData[1]->WorkLocal[1]
  4: 0x02B2 [0x53] WAIT_SCHEDULER_TASK: Wait for scheduler "pas0" with entities [EventEntity, EventEntity]
  5: 0x02BF [0x00] END_REQSTACK()
```

### Event 65535.22

#### Metadata

| Field        | Value   |
|--------------|---------|
| Entrypoint   | 0x02C0  |
| Data Size    | 7 bytes |
| Instructions | 3       |

```
      00 01 02 03 04 05 06 07  08 09 0A 0B 0C 0D 0E 0F
      -- -- -- -- -- -- -- --  -- -- -- -- -- -- -- --
02C0: AB 03 AC 01 1C 80 00                              .......         
```

#### Opcodes

```
  0: 0x02C0 [0xAB] EventEntity->Render.Flags0 ^= 0x20000 // Toggle bit 17
  1: 0x02C2 [0xAC] EventEntity->StatusEvent = 1*
  2: 0x02C6 [0x00] END_REQSTACK()
```

### Event 65535.23

#### Metadata

| Field        | Value   |
|--------------|---------|
| Entrypoint   | 0x02C7  |
| Data Size    | 7 bytes |
| Instructions | 3       |

```
      00 01 02 03 04 05 06 07  08 09 0A 0B 0C 0D 0E 0F
      -- -- -- -- -- -- -- --  -- -- -- -- -- -- -- --
02C0:                      AC  01 03 80 AB 04 00               .......  
```

#### Opcodes

```
  0: 0x02C7 [0xAC] EventEntity->StatusEvent = 0*
  1: 0x02CB [0xAB] EventEntity->Render.Flags0 |= 0x40000 // Set bit 18
  2: 0x02CD [0x00] END_REQSTACK()
```

### Event 65535.24

#### Metadata

| Field        | Value    |
|--------------|----------|
| Entrypoint   | 0x02CE   |
| Data Size    | 16 bytes |
| Instructions | 4        |

```
      00 01 02 03 04 05 06 07  08 09 0A 0B 0C 0D 0E 0F
      -- -- -- -- -- -- -- --  -- -- -- -- -- -- -- --
02C0:                                            6E F0                n.
02D0: FF FF 7F 4D 80 99 F0 FF  FF 7F 1C 4E 80 00        ...M.......N..  
```

#### Opcodes

```
  0: 0x02CE [0x6E] LocalPlayer uses emote 43*
  1: 0x02D5 [0x99] Wait for LocalPlayer animation to complete
  2: 0x02DA [0x1C] WAIT(90* ticks)
  3: 0x02DD [0x00] END_REQSTACK()
```

### Event 65535.25

#### Metadata

| Field        | Value    |
|--------------|----------|
| Entrypoint   | 0x02DE   |
| Data Size    | 13 bytes |
| Instructions | 3        |

```
      00 01 02 03 04 05 06 07  08 09 0A 0B 0C 0D 0E 0F
      -- -- -- -- -- -- -- --  -- -- -- -- -- -- -- --
02D0:                                            6E F0                n.
02E0: FF FF 7F 4F 80 99 F0 FF  FF 7F 00                 ...O.......     
```

#### Opcodes

```
  0: 0x02DE [0x6E] LocalPlayer uses emote 1579*
  1: 0x02E5 [0x99] Wait for LocalPlayer animation to complete
  2: 0x02EA [0x00] END_REQSTACK()
```

### Event 65535.26

#### Metadata

| Field        | Value    |
|--------------|----------|
| Entrypoint   | 0x02EB   |
| Data Size    | 13 bytes |
| Instructions | 3        |

```
      00 01 02 03 04 05 06 07  08 09 0A 0B 0C 0D 0E 0F
      -- -- -- -- -- -- -- --  -- -- -- -- -- -- -- --
02E0:                                   6E F0 FF FF 7F             n....
02F0: 50 80 99 F0 FF FF 7F 00                           P.......        
```

#### Opcodes

```
  0: 0x02EB [0x6E] LocalPlayer uses emote 811*
  1: 0x02F2 [0x99] Wait for LocalPlayer animation to complete
  2: 0x02F7 [0x00] END_REQSTACK()
```

### Event 65535.27

#### Metadata

| Field        | Value    |
|--------------|----------|
| Entrypoint   | 0x02F8   |
| Data Size    | 13 bytes |
| Instructions | 3        |

```
      00 01 02 03 04 05 06 07  08 09 0A 0B 0C 0D 0E 0F
      -- -- -- -- -- -- -- --  -- -- -- -- -- -- -- --
02F0:                          6E F0 FF FF 7F 4D 80 99          n....M..
0300: F0 FF FF 7F 00                                    .....           
```

#### Opcodes

```
  0: 0x02F8 [0x6E] LocalPlayer uses emote 43*
  1: 0x02FF [0x99] Wait for LocalPlayer animation to complete
  2: 0x0304 [0x00] END_REQSTACK()
```

### Event 65535.28

#### Metadata

| Field        | Value    |
|--------------|----------|
| Entrypoint   | 0x0305   |
| Data Size    | 13 bytes |
| Instructions | 3        |

```
      00 01 02 03 04 05 06 07  08 09 0A 0B 0C 0D 0E 0F
      -- -- -- -- -- -- -- --  -- -- -- -- -- -- -- --
0300:                6E F0 FF  FF 7F 51 80 99 F0 FF FF       n....Q.....
0310: 7F 00                                             ..              
```

#### Opcodes

```
  0: 0x0305 [0x6E] LocalPlayer uses emote 1067*
  1: 0x030C [0x99] Wait for LocalPlayer animation to complete
  2: 0x0311 [0x00] END_REQSTACK()
```

### Event 65535.29

#### Metadata

| Field        | Value    |
|--------------|----------|
| Entrypoint   | 0x0312   |
| Data Size    | 13 bytes |
| Instructions | 3        |

```
      00 01 02 03 04 05 06 07  08 09 0A 0B 0C 0D 0E 0F
      -- -- -- -- -- -- -- --  -- -- -- -- -- -- -- --
0310:       6E F0 FF FF 7F 52  80 99 F0 FF FF 7F 00       n....R....... 
```

#### Opcodes

```
  0: 0x0312 [0x6E] LocalPlayer uses emote 299*
  1: 0x0319 [0x99] Wait for LocalPlayer animation to complete
  2: 0x031E [0x00] END_REQSTACK()
```

### Event 65535.30

#### Metadata

| Field        | Value    |
|--------------|----------|
| Entrypoint   | 0x031F   |
| Data Size    | 13 bytes |
| Instructions | 3        |

```
      00 01 02 03 04 05 06 07  08 09 0A 0B 0C 0D 0E 0F
      -- -- -- -- -- -- -- --  -- -- -- -- -- -- -- --
0310:                                               6E                 n
0320: F0 FF FF 7F 53 80 99 F0  FF FF 7F 00              ....S.......    
```

#### Opcodes

```
  0: 0x031F [0x6E] LocalPlayer uses emote 1323*
  1: 0x0326 [0x99] Wait for LocalPlayer animation to complete
  2: 0x032B [0x00] END_REQSTACK()
```

### Event 65535.31

#### Metadata

| Field        | Value    |
|--------------|----------|
| Entrypoint   | 0x032C   |
| Data Size    | 13 bytes |
| Instructions | 3        |

```
      00 01 02 03 04 05 06 07  08 09 0A 0B 0C 0D 0E 0F
      -- -- -- -- -- -- -- --  -- -- -- -- -- -- -- --
0320:                                      6E F0 FF FF              n...
0330: 7F 54 80 99 F0 FF FF 7F  00                       .T.......       
```

#### Opcodes

```
  0: 0x032C [0x6E] LocalPlayer uses emote 555*
  1: 0x0333 [0x99] Wait for LocalPlayer animation to complete
  2: 0x0338 [0x00] END_REQSTACK()
```

### Event 906

#### Metadata

| Field        | Value     |
|--------------|-----------|
| Entrypoint   | 0x0339    |
| Data Size    | 370 bytes |
| Instructions | 49        |

```
      00 01 02 03 04 05 06 07  08 09 0A 0B 0C 0D 0E 0F
      -- -- -- -- -- -- -- --  -- -- -- -- -- -- -- --
0330:                             42 46 01 03 02 00 05           BF.....
0340: 10 45 48 80 F8 FF FF 7F  F8 FF FF 7F 66 64 6F 30  .EH.........fdo0
0350: 03 80 55 48 80 F8 FF FF  7F F8 FF FF 7F 66 64 6F  ..UH.........fdo
0360: 30 4E 00 2D 92 06 01 4E  00 2E 92 06 01 38 55 80  0N.-...N.....8U.
0370: 79 00 F0 FF FF 7F 2D 92  06 01 03 05 10 02 10 03  y.....-.........
0380: 06 10 02 10 03 07 10 02  10 15 05 10 56 80 15 06  ............V...
0390: 10 00 80 3F 07 10 07 10  00 80 37 57 80 58 80 59  ...?......7W.X.Y
03A0: 80 5A 80 45 1B 80 F8 FF  FF 7F F8 FF FF 7F 73 30  .Z.E..........s0
03B0: 30 33 03 80 4A 2D 92 06  01 F0 FF FF 7F 45 48 80  03..J-.......EH.
03C0: F8 FF FF 7F F8 FF FF 7F  66 64 69 31 03 80 2B 2D  ........fdi1..+-
03D0: 92 06 01 5B 80 23 66 5C  80 2D 92 06 01 2D 92 06  ...[.#f\.-...-..
03E0: 01 74 6C 6B 30 2B 2D 92  06 01 5D 80 23 02 04 10  .tlk0+-...].#...
03F0: 03 80 01 3F 04 66 5C 80  2D 92 06 01 2D 92 06 01  ...?.f\.-...-...
0400: 74 6C 6B 31 03 05 10 04  10 03 06 10 04 10 03 07  tlk1............
0410: 10 04 10 15 05 10 56 80  15 06 10 00 80 3F 07 10  ......V......?..
0420: 07 10 00 80 02 02 00 03  80 00 37 04 2B 2D 92 06  ..........7.+-..
0430: 01 5E 80 23 01 3F 04 2B  2D 92 06 01 5F 80 23 66  .^.#.?.+-..._.#f
0440: 5C 80 2D 92 06 01 2D 92  06 01 70 61 73 30 2B 2D  \.-...-...pas0+-
0450: 92 06 01 60 80 23 52 1B  80 F8 FF FF 7F F8 FF FF  ...`.#R.........
0460: 7F 73 30 30 33 45 48 80  F8 FF FF 7F F8 FF FF 7F  .s003EH.........
0470: 66 64 6F 31 03 80 55 48  80 F8 FF FF 7F F8 FF FF  fdo1..UH........
0480: 7F 66 64 6F 31 46 00 45  61 80 F0 FF FF 7F F0 FF  .fdo1F.Ea.......
0490: FF 7F 71 73 74 63 03 80  45 48 80 F8 FF FF 7F F8  ..qstc..EH......
04A0: FF FF 7F 66 64 69 32 03  80 21 00                 ...fdi2..!.     
```

#### Opcodes

```
  0: 0x0339 [0x42] SET_CLI_EVENT_CANCEL_DATA()
  1: 0x033A [0x46] CAMERA_CONTROL: Disable user control
  2: 0x033C [0x03] ExtData[1]->WorkLocal[2] = Work_Zone[5]
  3: 0x0341 [0x45] LOAD_SCHEDULED_TASK: Load scheduler "fdo0" with entities [EventEntity, EventEntity], work=[200*, 0*]
  4: 0x0352 [0x55] WAIT_LOAD_SCHEDULER: Wait for scheduler "fdo0" with entities [EventEntity, EventEntity], work=200*
  5: 0x0361 [0x4E] SET_ENTITY_HIDE_FLAG: Show Couvoullie (ID: 17207853/0x0106922D)
  6: 0x0367 [0x4E] SET_ENTITY_HIDE_FLAG: Show Unnamed NPC (ID: 17207854/0x0106922E)
  7: 0x036D [0x38] SET_CLIENT_EVENT_MODE(mode=19*)
  8: 0x0370 [0x79] LocalPlayer looks at Couvoullie (ID: 17207853/0x0106922D) (Basic look)
  9: 0x037A [0x03] Work_Zone[5] = Work_Zone[2]
 10: 0x037F [0x03] Work_Zone[6] = Work_Zone[2]
 11: 0x0384 [0x03] Work_Zone[7] = Work_Zone[2]
 12: 0x0389 [0x15] Work_Zone[5] /= 144*
 13: 0x038E [0x15] Work_Zone[6] /= 60*
 14: 0x0393 [0x3F] Work_Zone[7] = Work_Zone[7] % 60*
 15: 0x039A [0x37] UPDATE_EVENT_POSITION_AND_DIR: x=457.830*, z=-157.787*, y=8.890*, direction=349.9°*
 16: 0x03A3 [0x45] LOAD_SCHEDULED_TASK: Load scheduler "s003" with entities [EventEntity, EventEntity], work=[5*, 0*]
 17: 0x03B4 [0x4A] Couvoullie (ID: 17207853/0x0106922D) looks at LocalPlayer
 18: 0x03BD [0x45] LOAD_SCHEDULED_TASK: Load scheduler "fdi1" with entities [EventEntity, EventEntity], work=[200*, 0*]
 19: 0x03CE [0x2B] Couvoullie (ID: 17207853/0x0106922D) [7695*]:
    → "You've helped our poor girl find her way home! I don't know how to thank you!"
 20: 0x03D5 [0x23] WAIT_FOR_DIALOG_INTERACTION
 21: 0x03D6 [0x66] LOAD_EXT_SCHEDULER_MAIN: Load scheduler "tlk0" with entities [Couvoullie (ID: 17207853/0x0106922D), Couvoullie (ID: 17207853/0x0106922D)], work=30*
 22: 0x03E5 [0x2B] Couvoullie (ID: 17207853/0x0106922D) [7696*]:
    → "And to think you made it here in a mere $3 [hour/hours] ($4 [minute/minutes] and $5 [second/seconds] Earth time)!"
 23: 0x03EC [0x23] WAIT_FOR_DIALOG_INTERACTION
 24: 0x03ED [0x02] IF !(Work_Zone[4] == 0*) GOTO 0x043F
 25: 0x03F5 [0x66] LOAD_EXT_SCHEDULER_MAIN: Load scheduler "tlk1" with entities [Couvoullie (ID: 17207853/0x0106922D), Couvoullie (ID: 17207853/0x0106922D)], work=30*
 26: 0x0404 [0x03] Work_Zone[5] = Work_Zone[4]
 27: 0x0409 [0x03] Work_Zone[6] = Work_Zone[4]
 28: 0x040E [0x03] Work_Zone[7] = Work_Zone[4]
 29: 0x0413 [0x15] Work_Zone[5] /= 144*
 30: 0x0418 [0x15] Work_Zone[6] /= 60*
 31: 0x041D [0x3F] Work_Zone[7] = Work_Zone[7] % 60*
 32: 0x0424 [0x02] IF !(ExtData[1]->WorkLocal[2] == 0*) GOTO 0x0437
 33: 0x042C [0x2B] Couvoullie (ID: 17207853/0x0106922D) [7697*]:
    → "Oh, and by the way, the fastest adventurer to date has been %0. That talented rider traversed the same course as you in $3 [hour/hours] ($4 [minute/minutes] and $5 [second/seconds] Earth time)!"
 34: 0x0433 [0x23] WAIT_FOR_DIALOG_INTERACTION
 35: 0x0434 [0x01] GOTO 0x043F
 36: 0x0437 [0x2B] Couvoullie (ID: 17207853/0x0106922D) [7701*]:
    → "Oh, and by the way, the fastest adventurer to date has been...you! Your remarkable record of $3 [hour/hours] ($4 [minute/minutes] and $5 [second/seconds] Earth time) still stands strong!"
 37: 0x043E [0x23] WAIT_FOR_DIALOG_INTERACTION

SUBROUTINE_043F:
 38: 0x043F [0x66] LOAD_EXT_SCHEDULER_MAIN: Load scheduler "pas0" with entities [Couvoullie (ID: 17207853/0x0106922D), Couvoullie (ID: 17207853/0x0106922D)], work=30*
 39: 0x044E [0x2B] Couvoullie (ID: 17207853/0x0106922D) [7698*]:
    → "Anyway, please take this as a token of our appreciation. And stop by again sometime. We may have more work for you!"
 40: 0x0455 [0x23] WAIT_FOR_DIALOG_INTERACTION
 41: 0x0456 [0x52] END_LOAD_SCHEDULER: End scheduler "s003" with entities [EventEntity, EventEntity], work=5*
 42: 0x0465 [0x45] LOAD_SCHEDULED_TASK: Load scheduler "fdo1" with entities [EventEntity, EventEntity], work=[200*, 0*]
 43: 0x0476 [0x55] WAIT_LOAD_SCHEDULER: Wait for scheduler "fdo1" with entities [EventEntity, EventEntity], work=200*
 44: 0x0485 [0x46] CAMERA_CONTROL: Restore default settings
 45: 0x0487 [0x45] LOAD_SCHEDULED_TASK: Load scheduler "qstc" with entities [LocalPlayer, LocalPlayer], work=[201*, 0*]
 46: 0x0498 [0x45] LOAD_SCHEDULED_TASK: Load scheduler "fdi2" with entities [EventEntity, EventEntity], work=[200*, 0*]
 47: 0x04A9 [0x21] END_EVENT
 48: 0x04AA [0x00] END_REQSTACK()
```

### Event 65535.32

#### Metadata

| Field        | Value    |
|--------------|----------|
| Entrypoint   | 0x04AB   |
| Data Size    | 31 bytes |
| Instructions | 8        |

```
      00 01 02 03 04 05 06 07  08 09 0A 0B 0C 0D 0E 0F
      -- -- -- -- -- -- -- --  -- -- -- -- -- -- -- --
04A0:                                   32 62 80 1F 00             2b...
04B0: 63 80 64 80 65 80 1F 01  6F 1C 5C 80 79 00 F8 FF  c.d.e...o.\.y...
04C0: FF 7F 30 92 06 01 1C 00  80 00                    ..0.......      
```

#### Opcodes

```
  0: 0x04AB [0x32] ExtData[1]->MainSpeed = 11* * 0.1
  1: 0x04AE [0x1F] MOVE_ENTITY: EventEntity moves to X=-200.107*, Z=359.840*, Y=7.999*
  2: 0x04B6 [0x1F] MOVE_ENTITY: Update entity position (mode=1)
  3: 0x04B8 [0x6F] WAIT_FRAME_DELAY: Yield until WaitTime reaches zero
  4: 0x04B9 [0x1C] WAIT(30* ticks)
  5: 0x04BC [0x79] EventEntity looks at Cavernous Maw (ID: 17207856/0x01069230) (Basic look)
  6: 0x04C6 [0x1C] WAIT(60* ticks)
  7: 0x04C9 [0x00] END_REQSTACK()
```

### Event 65535.33

#### Metadata

| Field        | Value    |
|--------------|----------|
| Entrypoint   | 0x04CA   |
| Data Size    | 31 bytes |
| Instructions | 8        |

```
      00 01 02 03 04 05 06 07  08 09 0A 0B 0C 0D 0E 0F
      -- -- -- -- -- -- -- --  -- -- -- -- -- -- -- --
04C0:                                32 62 80 1F 00 66            2b...f
04D0: 80 67 80 68 80 1F 01 6F  1C 5C 80 79 00 F8 FF FF  .g.h...o.\.y....
04E0: 7F 30 92 06 01 1C 00 80  00                       .0.......       
```

#### Opcodes

```
  0: 0x04CA [0x32] ExtData[1]->MainSpeed = 11* * 0.1
  1: 0x04CD [0x1F] MOVE_ENTITY: EventEntity moves to X=-47.959*, Z=436.800*, Y=0.196*
  2: 0x04D5 [0x1F] MOVE_ENTITY: Update entity position (mode=1)
  3: 0x04D7 [0x6F] WAIT_FRAME_DELAY: Yield until WaitTime reaches zero
  4: 0x04D8 [0x1C] WAIT(30* ticks)
  5: 0x04DB [0x79] EventEntity looks at Cavernous Maw (ID: 17207856/0x01069230) (Basic look)
  6: 0x04E5 [0x1C] WAIT(60* ticks)
  7: 0x04E8 [0x00] END_REQSTACK()
```

### Event 65535.34

#### Metadata

| Field        | Value    |
|--------------|----------|
| Entrypoint   | 0x04E9   |
| Data Size    | 31 bytes |
| Instructions | 8        |

```
      00 01 02 03 04 05 06 07  08 09 0A 0B 0C 0D 0E 0F
      -- -- -- -- -- -- -- --  -- -- -- -- -- -- -- --
04E0:                             32 62 80 1F 00 69 80           2b...i.
04F0: 6A 80 6B 80 1F 01 6F 1C  5C 80 79 00 F8 FF FF 7F  j.k...o.\.y.....
0500: 30 92 06 01 1C 00 80 00                           0.......        
```

#### Opcodes

```
  0: 0x04E9 [0x32] ExtData[1]->MainSpeed = 11* * 0.1
  1: 0x04EC [0x1F] MOVE_ENTITY: EventEntity moves to X=370.542*, Z=-225.628*, Y=9.101*
  2: 0x04F4 [0x1F] MOVE_ENTITY: Update entity position (mode=1)
  3: 0x04F6 [0x6F] WAIT_FRAME_DELAY: Yield until WaitTime reaches zero
  4: 0x04F7 [0x1C] WAIT(30* ticks)
  5: 0x04FA [0x79] EventEntity looks at Cavernous Maw (ID: 17207856/0x01069230) (Basic look)
  6: 0x0504 [0x1C] WAIT(60* ticks)
  7: 0x0507 [0x00] END_REQSTACK()
```

### Event 65535.35

#### Metadata

| Field        | Value    |
|--------------|----------|
| Entrypoint   | 0x0508   |
| Data Size    | 15 bytes |
| Instructions | 5        |

```
      00 01 02 03 04 05 06 07  08 09 0A 0B 0C 0D 0E 0F
      -- -- -- -- -- -- -- --  -- -- -- -- -- -- -- --
0500:                          32 62 80 1F 00 6C 80 6D          2b...l.m
0510: 80 65 80 1F 01 6F 00                              .e...o.         
```

#### Opcodes

```
  0: 0x0508 [0x32] ExtData[1]->MainSpeed = 11* * 0.1
  1: 0x050B [0x1F] MOVE_ENTITY: EventEntity moves to X=-197.695*, Z=362.419*, Y=7.999*
  2: 0x0513 [0x1F] MOVE_ENTITY: Update entity position (mode=1)
  3: 0x0515 [0x6F] WAIT_FRAME_DELAY: Yield until WaitTime reaches zero
  4: 0x0516 [0x00] END_REQSTACK()
```

### Event 65535.36

#### Metadata

| Field        | Value    |
|--------------|----------|
| Entrypoint   | 0x0517   |
| Data Size    | 15 bytes |
| Instructions | 5        |

```
      00 01 02 03 04 05 06 07  08 09 0A 0B 0C 0D 0E 0F
      -- -- -- -- -- -- -- --  -- -- -- -- -- -- -- --
0510:                      32  62 80 1F 00 6E 80 6F 80         2b...n.o.
0520: 70 80 1F 01 6F 00                                 p...o.          
```

#### Opcodes

```
  0: 0x0517 [0x32] ExtData[1]->MainSpeed = 11* * 0.1
  1: 0x051A [0x1F] MOVE_ENTITY: EventEntity moves to X=-52.807*, Z=436.830*, Y=0.476*
  2: 0x0522 [0x1F] MOVE_ENTITY: Update entity position (mode=1)
  3: 0x0524 [0x6F] WAIT_FRAME_DELAY: Yield until WaitTime reaches zero
  4: 0x0525 [0x00] END_REQSTACK()
```

### Event 65535.37

#### Metadata

| Field        | Value    |
|--------------|----------|
| Entrypoint   | 0x0526   |
| Data Size    | 15 bytes |
| Instructions | 5        |

```
      00 01 02 03 04 05 06 07  08 09 0A 0B 0C 0D 0E 0F
      -- -- -- -- -- -- -- --  -- -- -- -- -- -- -- --
0520:                   32 62  80 1F 00 71 80 72 80 73        2b...q.r.s
0530: 80 1F 01 6F 00                                    ...o.           
```

#### Opcodes

```
  0: 0x0526 [0x32] ExtData[1]->MainSpeed = 11* * 0.1
  1: 0x0529 [0x1F] MOVE_ENTITY: EventEntity moves to X=368.612*, Z=-227.501*, Y=8.825*
  2: 0x0531 [0x1F] MOVE_ENTITY: Update entity position (mode=1)
  3: 0x0533 [0x6F] WAIT_FRAME_DELAY: Yield until WaitTime reaches zero
  4: 0x0534 [0x00] END_REQSTACK()
```

### Event 65535.38

#### Metadata

| Field        | Value    |
|--------------|----------|
| Entrypoint   | 0x0535   |
| Data Size    | 27 bytes |
| Instructions | 5        |

```
      00 01 02 03 04 05 06 07  08 09 0A 0B 0C 0D 0E 0F
      -- -- -- -- -- -- -- --  -- -- -- -- -- -- -- --
0530:                03 00 00  07 7F 1A 3E 01 66 01 00       ......>.f..
0540: F8 FF FF 7F F8 FF FF 7F  61 74 30 30 1C 47 80 00  ........at00.G..
```

#### Opcodes

```
  0: 0x0535 [0x03] ExtData[1]->WorkLocal[0] = Entity->Race
  1: 0x053A [0x1A] CALL_SUBROUTINE(address=0x013E)
  2: 0x053D [0x66] LOAD_EXT_SCHEDULER_MAIN: Load scheduler "at00" with entities [EventEntity, EventEntity], work=ExtData[1]->WorkLocal[1]
  3: 0x054C [0x1C] WAIT(240* ticks)
  4: 0x054F [0x00] END_REQSTACK()
```

### Event 65535.39

#### Metadata

| Field        | Value    |
|--------------|----------|
| Entrypoint   | 0x0550   |
| Data Size    | 29 bytes |
| Instructions | 5        |

```
      00 01 02 03 04 05 06 07  08 09 0A 0B 0C 0D 0E 0F
      -- -- -- -- -- -- -- --  -- -- -- -- -- -- -- --
0550: 7B F8 FF FF 7F 03 00 00  07 7F 1A 3E 01 66 01 00  {..........>.f..
0560: F8 FF FF 7F F8 FF FF 7F  61 74 70 30 00           ........atp0.   
```

#### Opcodes

```
  0: 0x0550 [0x7B] EventEntity stops talking
  1: 0x0555 [0x03] ExtData[1]->WorkLocal[0] = Entity->Race
  2: 0x055A [0x1A] CALL_SUBROUTINE(address=0x013E)
  3: 0x055D [0x66] LOAD_EXT_SCHEDULER_MAIN: Load scheduler "atp0" with entities [EventEntity, EventEntity], work=ExtData[1]->WorkLocal[1]
  4: 0x056C [0x00] END_REQSTACK()
```

### Event 65535.40

#### Metadata

| Field        | Value    |
|--------------|----------|
| Entrypoint   | 0x056D   |
| Data Size    | 27 bytes |
| Instructions | 5        |

```
      00 01 02 03 04 05 06 07  08 09 0A 0B 0C 0D 0E 0F
      -- -- -- -- -- -- -- --  -- -- -- -- -- -- -- --
0560:                                         03 00 00               ...
0570: 07 7F 1A 3E 01 66 01 00  F8 FF FF 7F F8 FF FF 7F  ...>.f..........
0580: 61 74 70 31 1C 74 80 00                           atp1.t..        
```

#### Opcodes

```
  0: 0x056D [0x03] ExtData[1]->WorkLocal[0] = Entity->Race
  1: 0x0572 [0x1A] CALL_SUBROUTINE(address=0x013E)
  2: 0x0575 [0x66] LOAD_EXT_SCHEDULER_MAIN: Load scheduler "atp1" with entities [EventEntity, EventEntity], work=ExtData[1]->WorkLocal[1]
  3: 0x0584 [0x1C] WAIT(300* ticks)
  4: 0x0587 [0x00] END_REQSTACK()
```

### Event 65535.41

#### Metadata

| Field        | Value    |
|--------------|----------|
| Entrypoint   | 0x0588   |
| Data Size    | 15 bytes |
| Instructions | 5        |

```
      00 01 02 03 04 05 06 07  08 09 0A 0B 0C 0D 0E 0F
      -- -- -- -- -- -- -- --  -- -- -- -- -- -- -- --
0580:                          32 1E 80 1F 00 75 80 76          2....u.v
0590: 80 77 80 1F 01 6F 00                              .w...o.         
```

#### Opcodes

```
  0: 0x0588 [0x32] ExtData[1]->MainSpeed = 10* * 0.1
  1: 0x058B [0x1F] MOVE_ENTITY: EventEntity moves to X=-427.011*, Z=-238.620*, Y=19.999*
  2: 0x0593 [0x1F] MOVE_ENTITY: Update entity position (mode=1)
  3: 0x0595 [0x6F] WAIT_FRAME_DELAY: Yield until WaitTime reaches zero
  4: 0x0596 [0x00] END_REQSTACK()
```

### Event 65535.42

#### Metadata

| Field        | Value    |
|--------------|----------|
| Entrypoint   | 0x0597   |
| Data Size    | 27 bytes |
| Instructions | 5        |

```
      00 01 02 03 04 05 06 07  08 09 0A 0B 0C 0D 0E 0F
      -- -- -- -- -- -- -- --  -- -- -- -- -- -- -- --
0590:                      03  00 00 07 7F 1A 3E 01 66         ......>.f
05A0: 01 00 F8 FF FF 7F F8 FF  FF 7F 65 63 30 30 1C 5C  ..........ec00.\
05B0: 80 00                                             ..              
```

#### Opcodes

```
  0: 0x0597 [0x03] ExtData[1]->WorkLocal[0] = Entity->Race
  1: 0x059C [0x1A] CALL_SUBROUTINE(address=0x013E)
  2: 0x059F [0x66] LOAD_EXT_SCHEDULER_MAIN: Load scheduler "ec00" with entities [EventEntity, EventEntity], work=ExtData[1]->WorkLocal[1]
  3: 0x05AE [0x1C] WAIT(30* ticks)
  4: 0x05B1 [0x00] END_REQSTACK()
```

### Event 65535.43

#### Metadata

| Field        | Value    |
|--------------|----------|
| Entrypoint   | 0x05B2   |
| Data Size    | 35 bytes |
| Instructions | 6        |

```
      00 01 02 03 04 05 06 07  08 09 0A 0B 0C 0D 0E 0F
      -- -- -- -- -- -- -- --  -- -- -- -- -- -- -- --
05B0:       33 01 37 78 80 79  80 77 80 7A 80 03 00 00    3.7x.y.w.z....
05C0: 07 7F 1A 3E 01 66 01 00  F8 FF FF 7F F8 FF FF 7F  ...>.f..........
05D0: 65 63 61 30 00                                    eca0.           
```

#### Opcodes

```
  0: 0x05B2 [0x33] EventEntity->Render.Flags0 |= 0x200000 // Bit 21 (flag=0x01)
  1: 0x05B4 [0x37] UPDATE_EVENT_POSITION_AND_DIR: x=-428.167*, z=-248.306*, y=19.999*, direction=272.4°*
  2: 0x05BD [0x03] ExtData[1]->WorkLocal[0] = Entity->Race
  3: 0x05C2 [0x1A] CALL_SUBROUTINE(address=0x013E)
  4: 0x05C5 [0x66] LOAD_EXT_SCHEDULER_MAIN: Load scheduler "eca0" with entities [EventEntity, EventEntity], work=ExtData[1]->WorkLocal[1]
  5: 0x05D4 [0x00] END_REQSTACK()
```

### Event 65535.44

#### Metadata

| Field        | Value    |
|--------------|----------|
| Entrypoint   | 0x05D5   |
| Data Size    | 27 bytes |
| Instructions | 5        |

```
      00 01 02 03 04 05 06 07  08 09 0A 0B 0C 0D 0E 0F
      -- -- -- -- -- -- -- --  -- -- -- -- -- -- -- --
05D0:                03 00 00  07 7F 1A 3E 01 66 01 00       ......>.f..
05E0: F8 FF FF 7F F8 FF FF 7F  65 63 61 31 1C 00 80 00  ........eca1....
```

#### Opcodes

```
  0: 0x05D5 [0x03] ExtData[1]->WorkLocal[0] = Entity->Race
  1: 0x05DA [0x1A] CALL_SUBROUTINE(address=0x013E)
  2: 0x05DD [0x66] LOAD_EXT_SCHEDULER_MAIN: Load scheduler "eca1" with entities [EventEntity, EventEntity], work=ExtData[1]->WorkLocal[1]
  3: 0x05EC [0x1C] WAIT(60* ticks)
  4: 0x05EF [0x00] END_REQSTACK()
```

### Event 65535.45

#### Metadata

| Field        | Value    |
|--------------|----------|
| Entrypoint   | 0x05F0   |
| Data Size    | 14 bytes |
| Instructions | 4        |

```
      00 01 02 03 04 05 06 07  08 09 0A 0B 0C 0D 0E 0F
      -- -- -- -- -- -- -- --  -- -- -- -- -- -- -- --
05F0: 32 09 80 1F 00 7B 80 7C  80 7D 80 1F 01 00        2....{.|.}....  
```

#### Opcodes

```
  0: 0x05F0 [0x32] ExtData[1]->MainSpeed = 13* * 0.1
  1: 0x05F3 [0x1F] MOVE_ENTITY: EventEntity moves to X=580.498*, Z=-218.677*, Y=35.999*
  2: 0x05FB [0x1F] MOVE_ENTITY: Update entity position (mode=1)
  3: 0x05FD [0x00] END_REQSTACK()
```

### Event 65535.46

#### Metadata

| Field        | Value    |
|--------------|----------|
| Entrypoint   | 0x05FE   |
| Data Size    | 14 bytes |
| Instructions | 4        |

```
      00 01 02 03 04 05 06 07  08 09 0A 0B 0C 0D 0E 0F
      -- -- -- -- -- -- -- --  -- -- -- -- -- -- -- --
05F0:                                            32 09                2.
0600: 80 1F 00 7E 80 7F 80 7D  80 1F 01 00              ...~...}....    
```

#### Opcodes

```
  0: 0x05FE [0x32] ExtData[1]->MainSpeed = 13* * 0.1
  1: 0x0601 [0x1F] MOVE_ENTITY: EventEntity moves to X=579.003*, Z=-222.686*, Y=35.999*
  2: 0x0609 [0x1F] MOVE_ENTITY: Update entity position (mode=1)
  3: 0x060B [0x00] END_REQSTACK()
```

### Event 65535.47

#### Metadata

| Field        | Value    |
|--------------|----------|
| Entrypoint   | 0x060C   |
| Data Size    | 14 bytes |
| Instructions | 4        |

```
      00 01 02 03 04 05 06 07  08 09 0A 0B 0C 0D 0E 0F
      -- -- -- -- -- -- -- --  -- -- -- -- -- -- -- --
0600:                                      32 09 80 1F              2...
0610: 00 80 80 81 80 82 80 1F  01 00                    ..........      
```

#### Opcodes

```
  0: 0x060C [0x32] ExtData[1]->MainSpeed = 13* * 0.1
  1: 0x060F [0x1F] MOVE_ENTITY: EventEntity moves to X=578.906*, Z=-244.664*, Y=34.250*
  2: 0x0617 [0x1F] MOVE_ENTITY: Update entity position (mode=1)
  3: 0x0619 [0x00] END_REQSTACK()
```

### Event 65535.48

#### Metadata

| Field        | Value    |
|--------------|----------|
| Entrypoint   | 0x061A   |
| Data Size    | 14 bytes |
| Instructions | 4        |

```
      00 01 02 03 04 05 06 07  08 09 0A 0B 0C 0D 0E 0F
      -- -- -- -- -- -- -- --  -- -- -- -- -- -- -- --
0610:                                32 09 80 1F 00 83            2.....
0620: 80 84 80 03 80 1F 01 00                           ........        
```

#### Opcodes

```
  0: 0x061A [0x32] ExtData[1]->MainSpeed = 13* * 0.1
  1: 0x061D [0x1F] MOVE_ENTITY: EventEntity moves to X=556.718*, Z=-365.727*, Y=0.000*
  2: 0x0625 [0x1F] MOVE_ENTITY: Update entity position (mode=1)
  3: 0x0627 [0x00] END_REQSTACK()
```

### Event 65535.49

#### Metadata

| Field        | Value    |
|--------------|----------|
| Entrypoint   | 0x0628   |
| Data Size    | 14 bytes |
| Instructions | 4        |

```
      00 01 02 03 04 05 06 07  08 09 0A 0B 0C 0D 0E 0F
      -- -- -- -- -- -- -- --  -- -- -- -- -- -- -- --
0620:                          32 1E 80 1F 00 85 80 86          2.......
0630: 80 03 80 1F 01 00                                 ......          
```

#### Opcodes

```
  0: 0x0628 [0x32] ExtData[1]->MainSpeed = 10* * 0.1
  1: 0x062B [0x1F] MOVE_ENTITY: EventEntity moves to X=-293.206*, Z=-479.226*, Y=0.000*
  2: 0x0633 [0x1F] MOVE_ENTITY: Update entity position (mode=1)
  3: 0x0635 [0x00] END_REQSTACK()
```

### Event 65535.50

#### Metadata

| Field        | Value    |
|--------------|----------|
| Entrypoint   | 0x0636   |
| Data Size    | 14 bytes |
| Instructions | 4        |

```
      00 01 02 03 04 05 06 07  08 09 0A 0B 0C 0D 0E 0F
      -- -- -- -- -- -- -- --  -- -- -- -- -- -- -- --
0630:                   32 09  80 1F 00 87 80 88 80 7D        2........}
0640: 80 1F 01 00                                       ....            
```

#### Opcodes

```
  0: 0x0636 [0x32] ExtData[1]->MainSpeed = 13* * 0.1
  1: 0x0639 [0x1F] MOVE_ENTITY: EventEntity moves to X=582.011*, Z=-211.108*, Y=35.999*
  2: 0x0641 [0x1F] MOVE_ENTITY: Update entity position (mode=1)
  3: 0x0643 [0x00] END_REQSTACK()
```

### Event 65535.51

#### Metadata

| Field        | Value    |
|--------------|----------|
| Entrypoint   | 0x0644   |
| Data Size    | 14 bytes |
| Instructions | 4        |

```
      00 01 02 03 04 05 06 07  08 09 0A 0B 0C 0D 0E 0F
      -- -- -- -- -- -- -- --  -- -- -- -- -- -- -- --
0640:             32 09 80 1F  00 89 80 8A 80 7D 80 1F      2........}..
0650: 01 00                                             ..              
```

#### Opcodes

```
  0: 0x0644 [0x32] ExtData[1]->MainSpeed = 13* * 0.1
  1: 0x0647 [0x1F] MOVE_ENTITY: EventEntity moves to X=580.021*, Z=-228.200*, Y=35.999*
  2: 0x064F [0x1F] MOVE_ENTITY: Update entity position (mode=1)
  3: 0x0651 [0x00] END_REQSTACK()
```

### Event 65535.52

#### Metadata

| Field        | Value    |
|--------------|----------|
| Entrypoint   | 0x0652   |
| Data Size    | 28 bytes |
| Instructions | 6        |

```
      00 01 02 03 04 05 06 07  08 09 0A 0B 0C 0D 0E 0F
      -- -- -- -- -- -- -- --  -- -- -- -- -- -- -- --
0650:       6E F0 FF FF 7F 8B  80 99 F0 FF FF 7F 1C 4E    n............N
0660: 80 6E F0 FF FF 7F 1E 80  99 F0 FF FF 7F 00        .n............  
```

#### Opcodes

```
  0: 0x0652 [0x6E] LocalPlayer uses emote 7*
  1: 0x0659 [0x99] Wait for LocalPlayer animation to complete
  2: 0x065E [0x1C] WAIT(90* ticks)
  3: 0x0661 [0x6E] LocalPlayer uses emote 10*
  4: 0x0668 [0x99] Wait for LocalPlayer animation to complete
  5: 0x066D [0x00] END_REQSTACK()
```

### Event 65535.53

#### Metadata

| Field        | Value    |
|--------------|----------|
| Entrypoint   | 0x066E   |
| Data Size    | 16 bytes |
| Instructions | 3        |

```
      00 01 02 03 04 05 06 07  08 09 0A 0B 0C 0D 0E 0F
      -- -- -- -- -- -- -- --  -- -- -- -- -- -- -- --
0660:                                            6C F0                l.
0670: FF FF 7F 03 80 1C 80 92  01 F0 FF FF 7F 00        ..............  
```

#### Opcodes

```
  0: 0x066E [0x6C] FADE_ENTITY_COLOR(entity_id=LocalPlayer, end_alpha=0*, fade_time=1*)
  1: 0x0677 [0x92] LocalPlayer->Render.Flags3 ^= 0x01
  2: 0x067D [0x00] END_REQSTACK()
```

### Event 65535.54

#### Metadata

| Field        | Value    |
|--------------|----------|
| Entrypoint   | 0x067E   |
| Data Size    | 16 bytes |
| Instructions | 3        |

```
      00 01 02 03 04 05 06 07  08 09 0A 0B 0C 0D 0E 0F
      -- -- -- -- -- -- -- --  -- -- -- -- -- -- -- --
0670:                                            6C F0                l.
0680: FF FF 7F 8C 80 1C 80 92  00 F0 FF FF 7F 00        ..............  
```

#### Opcodes

```
  0: 0x067E [0x6C] FADE_ENTITY_COLOR(entity_id=LocalPlayer, end_alpha=128*, fade_time=1*)
  1: 0x0687 [0x92] LocalPlayer->Render.Flags3 = Flags3  // No change (flag=0)
  2: 0x068D [0x00] END_REQSTACK()
```

### Event 65535.55

#### Metadata

| Field        | Value    |
|--------------|----------|
| Entrypoint   | 0x068E   |
| Data Size    | 38 bytes |
| Instructions | 5        |

```
      00 01 02 03 04 05 06 07  08 09 0A 0B 0C 0D 0E 0F
      -- -- -- -- -- -- -- --  -- -- -- -- -- -- -- --
0680:                                            22 00                ".
0690: 2F 00 F8 FF FF 7F B6 0B  8D 80 03 80 8E 80 8F 80  /...............
06A0: 90 80 90 80 90 80 61 80  91 80 6C F8 FF FF 7F 92  ......a...l.....
06B0: 80 1C 80 00                                       ....            
```

#### Opcodes

```
  0: 0x068E [0x22] ENTITY_HIDE_FLAG(enabled=0x00)
  1: 0x0690 [0x2F] EventEntity->Render.Flags0 &= ~0x80000 // Bit 19
  2: 0x0696 [0xB6] ENTITY_APPEARANCE_HANDLER(case=Full entity look, race=8*, hair=0*, head=145*, body=79*, hands=76*, legs=76*, feet=76*, main=201*, sub=262*)
  3: 0x06AA [0x6C] FADE_ENTITY_COLOR(entity_id=EventEntity, end_alpha=64*, fade_time=1*)
  4: 0x06B3 [0x00] END_REQSTACK()
```

### Event 65535.56

#### Metadata

| Field        | Value    |
|--------------|----------|
| Entrypoint   | 0x06B4   |
| Data Size    | 38 bytes |
| Instructions | 5        |

```
      00 01 02 03 04 05 06 07  08 09 0A 0B 0C 0D 0E 0F
      -- -- -- -- -- -- -- --  -- -- -- -- -- -- -- --
06B0:             22 00 2F 00  F8 FF FF 7F B6 0B 1C 80      "./.........
06C0: 03 80 8E 80 8F 80 90 80  90 80 90 80 61 80 93 80  ............a...
06D0: 6C F8 FF FF 7F 94 80 1C  80 00                    l.........      
```

#### Opcodes

```
  0: 0x06B4 [0x22] ENTITY_HIDE_FLAG(enabled=0x00)
  1: 0x06B6 [0x2F] EventEntity->Render.Flags0 &= ~0x80000 // Bit 19
  2: 0x06BC [0xB6] ENTITY_APPEARANCE_HANDLER(case=Full entity look, race=1*, hair=0*, head=145*, body=79*, hands=76*, legs=76*, feet=76*, main=201*, sub=24*)
  3: 0x06D0 [0x6C] FADE_ENTITY_COLOR(entity_id=EventEntity, end_alpha=80*, fade_time=1*)
  4: 0x06D9 [0x00] END_REQSTACK()
```

### Event 65535.57

#### Metadata

| Field        | Value    |
|--------------|----------|
| Entrypoint   | 0x06DA   |
| Data Size    | 38 bytes |
| Instructions | 5        |

```
      00 01 02 03 04 05 06 07  08 09 0A 0B 0C 0D 0E 0F
      -- -- -- -- -- -- -- --  -- -- -- -- -- -- -- --
06D0:                                22 00 2F 00 F8 FF            "./...
06E0: FF 7F B6 0B 95 80 03 80  8E 80 8F 80 90 80 90 80  ................
06F0: 90 80 61 80 93 80 6C F8  FF FF 7F 96 80 1C 80 00  ..a...l.........
```

#### Opcodes

```
  0: 0x06DA [0x22] ENTITY_HIDE_FLAG(enabled=0x00)
  1: 0x06DC [0x2F] EventEntity->Render.Flags0 &= ~0x80000 // Bit 19
  2: 0x06E2 [0xB6] ENTITY_APPEARANCE_HANDLER(case=Full entity look, race=4*, hair=0*, head=145*, body=79*, hands=76*, legs=76*, feet=76*, main=201*, sub=24*)
  3: 0x06F6 [0x6C] FADE_ENTITY_COLOR(entity_id=EventEntity, end_alpha=96*, fade_time=1*)
  4: 0x06FF [0x00] END_REQSTACK()
```

### Event 65535.58

#### Metadata

| Field        | Value     |
|--------------|-----------|
| Entrypoint   | 0x0700    |
| Data Size    | 209 bytes |
| Instructions | 25        |

```
      00 01 02 03 04 05 06 07  08 09 0A 0B 0C 0D 0E 0F
      -- -- -- -- -- -- -- --  -- -- -- -- -- -- -- --
0700: 02 02 10 1C 80 80 1A 07  66 20 80 F0 FF FF 7F F0  ........f ......
0710: FF FF 7F 65 63 61 30 01  D0 07 02 02 10 1D 80 80  ...eca0.........
0720: 34 07 66 94 80 F0 FF FF  7F F0 FF FF 7F 65 63 61  4.f..........eca
0730: 30 01 D0 07 02 02 10 02  80 80 4E 07 66 4E 80 F0  0.........N.fN..
0740: FF FF 7F F0 FF FF 7F 65  63 61 30 01 D0 07 02 02  .......eca0.....
0750: 10 95 80 80 68 07 66 97  80 F0 FF FF 7F F0 FF FF  ....h.f.........
0760: 7F 65 63 61 30 01 D0 07  02 02 10 1B 80 80 82 07  .eca0...........
0770: 66 98 80 F0 FF FF 7F F0  FF FF 7F 65 63 61 30 01  f..........eca0.
0780: D0 07 02 02 10 99 80 80  9C 07 66 98 80 F0 FF FF  ..........f.....
0790: 7F F0 FF FF 7F 65 63 61  30 01 D0 07 02 02 10 8B  .....eca0.......
07A0: 80 80 B6 07 66 9A 80 F0  FF FF 7F F0 FF FF 7F 65  ....f..........e
07B0: 63 61 30 01 D0 07 02 02  10 8D 80 80 D0 07 66 9B  ca0...........f.
07C0: 80 F0 FF FF 7F F0 FF FF  7F 65 63 61 30 01 D0 07  .........eca0...
07D0: 00                                                .               
```

#### Opcodes

```
  0: 0x0700 [0x02] IF !(Work_Zone[2] == 1*) GOTO 0x071A
  1: 0x0708 [0x66] LOAD_EXT_SCHEDULER_MAIN: Load scheduler "eca0" with entities [LocalPlayer, LocalPlayer], work=70*
  2: 0x0717 [0x01] GOTO 0x07D0
  3: 0x071A [0x02] IF !(Work_Zone[2] == 2*) GOTO 0x0734
  4: 0x0722 [0x66] LOAD_EXT_SCHEDULER_MAIN: Load scheduler "eca0" with entities [LocalPlayer, LocalPlayer], work=80*
  5: 0x0731 [0x01] GOTO 0x07D0
  6: 0x0734 [0x02] IF !(Work_Zone[2] == 3*) GOTO 0x074E
  7: 0x073C [0x66] LOAD_EXT_SCHEDULER_MAIN: Load scheduler "eca0" with entities [LocalPlayer, LocalPlayer], work=90*
  8: 0x074B [0x01] GOTO 0x07D0
  9: 0x074E [0x02] IF !(Work_Zone[2] == 4*) GOTO 0x0768
 10: 0x0756 [0x66] LOAD_EXT_SCHEDULER_MAIN: Load scheduler "eca0" with entities [LocalPlayer, LocalPlayer], work=100*
 11: 0x0765 [0x01] GOTO 0x07D0
 12: 0x0768 [0x02] IF !(Work_Zone[2] == 5*) GOTO 0x0782
 13: 0x0770 [0x66] LOAD_EXT_SCHEDULER_MAIN: Load scheduler "eca0" with entities [LocalPlayer, LocalPlayer], work=110*
 14: 0x077F [0x01] GOTO 0x07D0
 15: 0x0782 [0x02] IF !(Work_Zone[2] == 6*) GOTO 0x079C
 16: 0x078A [0x66] LOAD_EXT_SCHEDULER_MAIN: Load scheduler "eca0" with entities [LocalPlayer, LocalPlayer], work=110*
 17: 0x0799 [0x01] GOTO 0x07D0
 18: 0x079C [0x02] IF !(Work_Zone[2] == 7*) GOTO 0x07B6
 19: 0x07A4 [0x66] LOAD_EXT_SCHEDULER_MAIN: Load scheduler "eca0" with entities [LocalPlayer, LocalPlayer], work=120*
 20: 0x07B3 [0x01] GOTO 0x07D0
 21: 0x07B6 [0x02] IF !(Work_Zone[2] == 8*) GOTO 0x07D0
 22: 0x07BE [0x66] LOAD_EXT_SCHEDULER_MAIN: Load scheduler "eca0" with entities [LocalPlayer, LocalPlayer], work=130*
 23: 0x07CD [0x01] GOTO 0x07D0

SUBROUTINE_07D0:
 24: 0x07D0 [0x00] END_REQSTACK()
```

### Event 65535.59

#### Metadata

| Field        | Value     |
|--------------|-----------|
| Entrypoint   | 0x07D1    |
| Data Size    | 209 bytes |
| Instructions | 25        |

```
      00 01 02 03 04 05 06 07  08 09 0A 0B 0C 0D 0E 0F
      -- -- -- -- -- -- -- --  -- -- -- -- -- -- -- --
07D0:    02 02 10 1C 80 80 EB  07 66 20 80 F0 FF FF 7F   ........f .....
07E0: F0 FF FF 7F 61 74 70 30  01 A1 08 02 02 10 1D 80  ....atp0........
07F0: 80 05 08 66 94 80 F0 FF  FF 7F F0 FF FF 7F 61 74  ...f..........at
0800: 70 30 01 A1 08 02 02 10  02 80 80 1F 08 66 4E 80  p0...........fN.
0810: F0 FF FF 7F F0 FF FF 7F  61 74 70 30 01 A1 08 02  ........atp0....
0820: 02 10 95 80 80 39 08 66  97 80 F0 FF FF 7F F0 FF  .....9.f........
0830: FF 7F 61 74 70 30 01 A1  08 02 02 10 1B 80 80 53  ..atp0.........S
0840: 08 66 98 80 F0 FF FF 7F  F0 FF FF 7F 61 74 70 30  .f..........atp0
0850: 01 A1 08 02 02 10 99 80  80 6D 08 66 98 80 F0 FF  .........m.f....
0860: FF 7F F0 FF FF 7F 61 74  70 30 01 A1 08 02 02 10  ......atp0......
0870: 8B 80 80 87 08 66 9A 80  F0 FF FF 7F F0 FF FF 7F  .....f..........
0880: 61 74 70 30 01 A1 08 02  02 10 8D 80 80 A1 08 66  atp0...........f
0890: 9B 80 F0 FF FF 7F F0 FF  FF 7F 61 74 70 30 01 A1  ..........atp0..
08A0: 08 00                                             ..              
```

#### Opcodes

```
  0: 0x07D1 [0x02] IF !(Work_Zone[2] == 1*) GOTO 0x07EB
  1: 0x07D9 [0x66] LOAD_EXT_SCHEDULER_MAIN: Load scheduler "atp0" with entities [LocalPlayer, LocalPlayer], work=70*
  2: 0x07E8 [0x01] GOTO 0x08A1
  3: 0x07EB [0x02] IF !(Work_Zone[2] == 2*) GOTO 0x0805
  4: 0x07F3 [0x66] LOAD_EXT_SCHEDULER_MAIN: Load scheduler "atp0" with entities [LocalPlayer, LocalPlayer], work=80*
  5: 0x0802 [0x01] GOTO 0x08A1
  6: 0x0805 [0x02] IF !(Work_Zone[2] == 3*) GOTO 0x081F
  7: 0x080D [0x66] LOAD_EXT_SCHEDULER_MAIN: Load scheduler "atp0" with entities [LocalPlayer, LocalPlayer], work=90*
  8: 0x081C [0x01] GOTO 0x08A1
  9: 0x081F [0x02] IF !(Work_Zone[2] == 4*) GOTO 0x0839
 10: 0x0827 [0x66] LOAD_EXT_SCHEDULER_MAIN: Load scheduler "atp0" with entities [LocalPlayer, LocalPlayer], work=100*
 11: 0x0836 [0x01] GOTO 0x08A1
 12: 0x0839 [0x02] IF !(Work_Zone[2] == 5*) GOTO 0x0853
 13: 0x0841 [0x66] LOAD_EXT_SCHEDULER_MAIN: Load scheduler "atp0" with entities [LocalPlayer, LocalPlayer], work=110*
 14: 0x0850 [0x01] GOTO 0x08A1
 15: 0x0853 [0x02] IF !(Work_Zone[2] == 6*) GOTO 0x086D
 16: 0x085B [0x66] LOAD_EXT_SCHEDULER_MAIN: Load scheduler "atp0" with entities [LocalPlayer, LocalPlayer], work=110*
 17: 0x086A [0x01] GOTO 0x08A1
 18: 0x086D [0x02] IF !(Work_Zone[2] == 7*) GOTO 0x0887
 19: 0x0875 [0x66] LOAD_EXT_SCHEDULER_MAIN: Load scheduler "atp0" with entities [LocalPlayer, LocalPlayer], work=120*
 20: 0x0884 [0x01] GOTO 0x08A1
 21: 0x0887 [0x02] IF !(Work_Zone[2] == 8*) GOTO 0x08A1
 22: 0x088F [0x66] LOAD_EXT_SCHEDULER_MAIN: Load scheduler "atp0" with entities [LocalPlayer, LocalPlayer], work=130*
 23: 0x089E [0x01] GOTO 0x08A1

SUBROUTINE_08A1:
 24: 0x08A1 [0x00] END_REQSTACK()
```

### Event 65535.60

#### Metadata

| Field        | Value     |
|--------------|-----------|
| Entrypoint   | 0x08A2    |
| Data Size    | 209 bytes |
| Instructions | 25        |

```
      00 01 02 03 04 05 06 07  08 09 0A 0B 0C 0D 0E 0F
      -- -- -- -- -- -- -- --  -- -- -- -- -- -- -- --
08A0:       02 02 10 1C 80 80  BC 08 66 9C 80 F0 FF FF    ........f.....
08B0: 7F F0 FF FF 7F 64 61 6B  30 01 72 09 02 02 10 1D  .....dak0.r.....
08C0: 80 80 D6 08 66 9D 80 F0  FF FF 7F F0 FF FF 7F 64  ....f..........d
08D0: 61 6B 30 01 72 09 02 02  10 02 80 80 F0 08 66 9E  ak0.r.........f.
08E0: 80 F0 FF FF 7F F0 FF FF  7F 64 61 6B 30 01 72 09  .........dak0.r.
08F0: 02 02 10 95 80 80 0A 09  66 9F 80 F0 FF FF 7F F0  ........f.......
0900: FF FF 7F 64 61 6B 30 01  72 09 02 02 10 1B 80 80  ...dak0.r.......
0910: 24 09 66 A0 80 F0 FF FF  7F F0 FF FF 7F 64 61 6B  $.f..........dak
0920: 30 01 72 09 02 02 10 99  80 80 3E 09 66 A0 80 F0  0.r.......>.f...
0930: FF FF 7F F0 FF FF 7F 64  61 6B 30 01 72 09 02 02  .......dak0.r...
0940: 10 8B 80 80 58 09 66 A1  80 F0 FF FF 7F F0 FF FF  ....X.f.........
0950: 7F 64 61 6B 30 01 72 09  02 02 10 8D 80 80 72 09  .dak0.r.......r.
0960: 66 A2 80 F0 FF FF 7F F0  FF FF 7F 64 61 6B 30 01  f..........dak0.
0970: 72 09 00                                          r..             
```

#### Opcodes

```
  0: 0x08A2 [0x02] IF !(Work_Zone[2] == 1*) GOTO 0x08BC
  1: 0x08AA [0x66] LOAD_EXT_SCHEDULER_MAIN: Load scheduler "dak0" with entities [LocalPlayer, LocalPlayer], work=73*
  2: 0x08B9 [0x01] GOTO 0x0972
  3: 0x08BC [0x02] IF !(Work_Zone[2] == 2*) GOTO 0x08D6
  4: 0x08C4 [0x66] LOAD_EXT_SCHEDULER_MAIN: Load scheduler "dak0" with entities [LocalPlayer, LocalPlayer], work=83*
  5: 0x08D3 [0x01] GOTO 0x0972
  6: 0x08D6 [0x02] IF !(Work_Zone[2] == 3*) GOTO 0x08F0
  7: 0x08DE [0x66] LOAD_EXT_SCHEDULER_MAIN: Load scheduler "dak0" with entities [LocalPlayer, LocalPlayer], work=93*
  8: 0x08ED [0x01] GOTO 0x0972
  9: 0x08F0 [0x02] IF !(Work_Zone[2] == 4*) GOTO 0x090A
 10: 0x08F8 [0x66] LOAD_EXT_SCHEDULER_MAIN: Load scheduler "dak0" with entities [LocalPlayer, LocalPlayer], work=103*
 11: 0x0907 [0x01] GOTO 0x0972
 12: 0x090A [0x02] IF !(Work_Zone[2] == 5*) GOTO 0x0924
 13: 0x0912 [0x66] LOAD_EXT_SCHEDULER_MAIN: Load scheduler "dak0" with entities [LocalPlayer, LocalPlayer], work=113*
 14: 0x0921 [0x01] GOTO 0x0972
 15: 0x0924 [0x02] IF !(Work_Zone[2] == 6*) GOTO 0x093E
 16: 0x092C [0x66] LOAD_EXT_SCHEDULER_MAIN: Load scheduler "dak0" with entities [LocalPlayer, LocalPlayer], work=113*
 17: 0x093B [0x01] GOTO 0x0972
 18: 0x093E [0x02] IF !(Work_Zone[2] == 7*) GOTO 0x0958
 19: 0x0946 [0x66] LOAD_EXT_SCHEDULER_MAIN: Load scheduler "dak0" with entities [LocalPlayer, LocalPlayer], work=123*
 20: 0x0955 [0x01] GOTO 0x0972
 21: 0x0958 [0x02] IF !(Work_Zone[2] == 8*) GOTO 0x0972
 22: 0x0960 [0x66] LOAD_EXT_SCHEDULER_MAIN: Load scheduler "dak0" with entities [LocalPlayer, LocalPlayer], work=133*
 23: 0x096F [0x01] GOTO 0x0972

SUBROUTINE_0972:
 24: 0x0972 [0x00] END_REQSTACK()
```

### Event 65535.61

#### Metadata

| Field        | Value     |
|--------------|-----------|
| Entrypoint   | 0x0973    |
| Data Size    | 209 bytes |
| Instructions | 25        |

```
      00 01 02 03 04 05 06 07  08 09 0A 0B 0C 0D 0E 0F
      -- -- -- -- -- -- -- --  -- -- -- -- -- -- -- --
0970:          02 02 10 1C 80  80 8D 09 66 9C 80 F0 FF     ........f....
0980: FF 7F F0 FF FF 7F 64 61  6B 31 01 43 0A 02 02 10  ......dak1.C....
0990: 1D 80 80 A7 09 66 9D 80  F0 FF FF 7F F0 FF FF 7F  .....f..........
09A0: 64 61 6B 31 01 43 0A 02  02 10 02 80 80 C1 09 66  dak1.C.........f
09B0: 9E 80 F0 FF FF 7F F0 FF  FF 7F 64 61 6B 31 01 43  ..........dak1.C
09C0: 0A 02 02 10 95 80 80 DB  09 66 9F 80 F0 FF FF 7F  .........f......
09D0: F0 FF FF 7F 64 61 6B 31  01 43 0A 02 02 10 1B 80  ....dak1.C......
09E0: 80 F5 09 66 A0 80 F0 FF  FF 7F F0 FF FF 7F 64 61  ...f..........da
09F0: 6B 31 01 43 0A 02 02 10  99 80 80 0F 0A 66 A0 80  k1.C.........f..
0A00: F0 FF FF 7F F0 FF FF 7F  64 61 6B 31 01 43 0A 02  ........dak1.C..
0A10: 02 10 8B 80 80 29 0A 66  A1 80 F0 FF FF 7F F0 FF  .....).f........
0A20: FF 7F 64 61 6B 31 01 43  0A 02 02 10 8D 80 80 43  ..dak1.C.......C
0A30: 0A 66 A2 80 F0 FF FF 7F  F0 FF FF 7F 64 61 6B 31  .f..........dak1
0A40: 01 43 0A 00                                       .C..            
```

#### Opcodes

```
  0: 0x0973 [0x02] IF !(Work_Zone[2] == 1*) GOTO 0x098D
  1: 0x097B [0x66] LOAD_EXT_SCHEDULER_MAIN: Load scheduler "dak1" with entities [LocalPlayer, LocalPlayer], work=73*
  2: 0x098A [0x01] GOTO 0x0A43
  3: 0x098D [0x02] IF !(Work_Zone[2] == 2*) GOTO 0x09A7
  4: 0x0995 [0x66] LOAD_EXT_SCHEDULER_MAIN: Load scheduler "dak1" with entities [LocalPlayer, LocalPlayer], work=83*
  5: 0x09A4 [0x01] GOTO 0x0A43
  6: 0x09A7 [0x02] IF !(Work_Zone[2] == 3*) GOTO 0x09C1
  7: 0x09AF [0x66] LOAD_EXT_SCHEDULER_MAIN: Load scheduler "dak1" with entities [LocalPlayer, LocalPlayer], work=93*
  8: 0x09BE [0x01] GOTO 0x0A43
  9: 0x09C1 [0x02] IF !(Work_Zone[2] == 4*) GOTO 0x09DB
 10: 0x09C9 [0x66] LOAD_EXT_SCHEDULER_MAIN: Load scheduler "dak1" with entities [LocalPlayer, LocalPlayer], work=103*
 11: 0x09D8 [0x01] GOTO 0x0A43
 12: 0x09DB [0x02] IF !(Work_Zone[2] == 5*) GOTO 0x09F5
 13: 0x09E3 [0x66] LOAD_EXT_SCHEDULER_MAIN: Load scheduler "dak1" with entities [LocalPlayer, LocalPlayer], work=113*
 14: 0x09F2 [0x01] GOTO 0x0A43
 15: 0x09F5 [0x02] IF !(Work_Zone[2] == 6*) GOTO 0x0A0F
 16: 0x09FD [0x66] LOAD_EXT_SCHEDULER_MAIN: Load scheduler "dak1" with entities [LocalPlayer, LocalPlayer], work=113*
 17: 0x0A0C [0x01] GOTO 0x0A43
 18: 0x0A0F [0x02] IF !(Work_Zone[2] == 7*) GOTO 0x0A29
 19: 0x0A17 [0x66] LOAD_EXT_SCHEDULER_MAIN: Load scheduler "dak1" with entities [LocalPlayer, LocalPlayer], work=123*
 20: 0x0A26 [0x01] GOTO 0x0A43
 21: 0x0A29 [0x02] IF !(Work_Zone[2] == 8*) GOTO 0x0A43
 22: 0x0A31 [0x66] LOAD_EXT_SCHEDULER_MAIN: Load scheduler "dak1" with entities [LocalPlayer, LocalPlayer], work=133*
 23: 0x0A40 [0x01] GOTO 0x0A43

SUBROUTINE_0A43:
 24: 0x0A43 [0x00] END_REQSTACK()
```

### Event 65535.62

#### Metadata

| Field        | Value     |
|--------------|-----------|
| Entrypoint   | 0x0A44    |
| Data Size    | 209 bytes |
| Instructions | 25        |

```
      00 01 02 03 04 05 06 07  08 09 0A 0B 0C 0D 0E 0F
      -- -- -- -- -- -- -- --  -- -- -- -- -- -- -- --
0A40:             02 02 10 1C  80 80 5E 0A 66 9C 80 F0      ......^.f...
0A50: FF FF 7F F0 FF FF 7F 64  61 6B 32 01 14 0B 02 02  .......dak2.....
0A60: 10 1D 80 80 78 0A 66 9D  80 F0 FF FF 7F F0 FF FF  ....x.f.........
0A70: 7F 64 61 6B 32 01 14 0B  02 02 10 02 80 80 92 0A  .dak2...........
0A80: 66 9E 80 F0 FF FF 7F F0  FF FF 7F 64 61 6B 32 01  f..........dak2.
0A90: 14 0B 02 02 10 95 80 80  AC 0A 66 9F 80 F0 FF FF  ..........f.....
0AA0: 7F F0 FF FF 7F 64 61 6B  32 01 14 0B 02 02 10 1B  .....dak2.......
0AB0: 80 80 C6 0A 66 A0 80 F0  FF FF 7F F0 FF FF 7F 64  ....f..........d
0AC0: 61 6B 32 01 14 0B 02 02  10 99 80 80 E0 0A 66 A0  ak2...........f.
0AD0: 80 F0 FF FF 7F F0 FF FF  7F 64 61 6B 32 01 14 0B  .........dak2...
0AE0: 02 02 10 8B 80 80 FA 0A  66 A1 80 F0 FF FF 7F F0  ........f.......
0AF0: FF FF 7F 64 61 6B 32 01  14 0B 02 02 10 8D 80 80  ...dak2.........
0B00: 14 0B 66 A2 80 F0 FF FF  7F F0 FF FF 7F 64 61 6B  ..f..........dak
0B10: 32 01 14 0B 00                                    2....           
```

#### Opcodes

```
  0: 0x0A44 [0x02] IF !(Work_Zone[2] == 1*) GOTO 0x0A5E
  1: 0x0A4C [0x66] LOAD_EXT_SCHEDULER_MAIN: Load scheduler "dak2" with entities [LocalPlayer, LocalPlayer], work=73*
  2: 0x0A5B [0x01] GOTO 0x0B14
  3: 0x0A5E [0x02] IF !(Work_Zone[2] == 2*) GOTO 0x0A78
  4: 0x0A66 [0x66] LOAD_EXT_SCHEDULER_MAIN: Load scheduler "dak2" with entities [LocalPlayer, LocalPlayer], work=83*
  5: 0x0A75 [0x01] GOTO 0x0B14
  6: 0x0A78 [0x02] IF !(Work_Zone[2] == 3*) GOTO 0x0A92
  7: 0x0A80 [0x66] LOAD_EXT_SCHEDULER_MAIN: Load scheduler "dak2" with entities [LocalPlayer, LocalPlayer], work=93*
  8: 0x0A8F [0x01] GOTO 0x0B14
  9: 0x0A92 [0x02] IF !(Work_Zone[2] == 4*) GOTO 0x0AAC
 10: 0x0A9A [0x66] LOAD_EXT_SCHEDULER_MAIN: Load scheduler "dak2" with entities [LocalPlayer, LocalPlayer], work=103*
 11: 0x0AA9 [0x01] GOTO 0x0B14
 12: 0x0AAC [0x02] IF !(Work_Zone[2] == 5*) GOTO 0x0AC6
 13: 0x0AB4 [0x66] LOAD_EXT_SCHEDULER_MAIN: Load scheduler "dak2" with entities [LocalPlayer, LocalPlayer], work=113*
 14: 0x0AC3 [0x01] GOTO 0x0B14
 15: 0x0AC6 [0x02] IF !(Work_Zone[2] == 6*) GOTO 0x0AE0
 16: 0x0ACE [0x66] LOAD_EXT_SCHEDULER_MAIN: Load scheduler "dak2" with entities [LocalPlayer, LocalPlayer], work=113*
 17: 0x0ADD [0x01] GOTO 0x0B14
 18: 0x0AE0 [0x02] IF !(Work_Zone[2] == 7*) GOTO 0x0AFA
 19: 0x0AE8 [0x66] LOAD_EXT_SCHEDULER_MAIN: Load scheduler "dak2" with entities [LocalPlayer, LocalPlayer], work=123*
 20: 0x0AF7 [0x01] GOTO 0x0B14
 21: 0x0AFA [0x02] IF !(Work_Zone[2] == 8*) GOTO 0x0B14
 22: 0x0B02 [0x66] LOAD_EXT_SCHEDULER_MAIN: Load scheduler "dak2" with entities [LocalPlayer, LocalPlayer], work=133*
 23: 0x0B11 [0x01] GOTO 0x0B14

SUBROUTINE_0B14:
 24: 0x0B14 [0x00] END_REQSTACK()
```

### Event 65535.63

#### Metadata

| Field        | Value    |
|--------------|----------|
| Entrypoint   | 0x0B15   |
| Data Size    | 48 bytes |
| Instructions | 9        |

```
      00 01 02 03 04 05 06 07  08 09 0A 0B 0C 0D 0E 0F
      -- -- -- -- -- -- -- --  -- -- -- -- -- -- -- --
0B10:                03 03 00  A3 80 03 04 00 A4 80 02       ...........
0B20: 04 00 03 80 04 44 0B BA  F0 FF FF 7F A5 80 A6 80  .....D..........
0B30: 03 00 A7 80 08 04 00 1E  80 07 03 00 97 80 1C 1C  ................
0B40: 80 01 1F 0B 00                                    .....           
```

#### Opcodes

```
  0: 0x0B15 [0x03] ExtData[1]->WorkLocal[3] = 4294966296*
  1: 0x0B1A [0x03] ExtData[1]->WorkLocal[4] = 3000*
  2: 0x0B1F [0x02] IF !(ExtData[1]->WorkLocal[4] < 0*) GOTO 0x0B44
  3: 0x0B27 [0xBA] SET_ENTITY_POSITION(entity_id=LocalPlayer, pos_x=529.460*, pos_z=-372.789*, pos_y=ExtData[1]->WorkLocal[3], direction=342.5°*)
  4: 0x0B34 [0x08] ExtData[1]->WorkLocal[4] -= 10*
  5: 0x0B39 [0x07] ExtData[1]->WorkLocal[3] += 100*
  6: 0x0B3E [0x1C] WAIT(1* ticks)
  7: 0x0B41 [0x01] GOTO 0x0B1F
  8: 0x0B44 [0x00] END_REQSTACK()
```

### Event 65535.64

#### Metadata

| Field        | Value    |
|--------------|----------|
| Entrypoint   | 0x0B45   |
| Data Size    | 11 bytes |
| Instructions | 3        |

```
      00 01 02 03 04 05 06 07  08 09 0A 0B 0C 0D 0E 0F
      -- -- -- -- -- -- -- --  -- -- -- -- -- -- -- --
0B40:                1F 00 A8  80 A9 80 03 80 1F 01 00       ...........
```

#### Opcodes

```
  0: 0x0B45 [0x1F] MOVE_ENTITY: EventEntity moves to X=-299.017*, Z=-478.685*, Y=0.000*
  1: 0x0B4D [0x1F] MOVE_ENTITY: Update entity position (mode=1)
  2: 0x0B4F [0x00] END_REQSTACK()
```

### Event 65535.65

#### Metadata

| Field        | Value    |
|--------------|----------|
| Entrypoint   | 0x0B50   |
| Data Size    | 16 bytes |
| Instructions | 4        |

```
      00 01 02 03 04 05 06 07  08 09 0A 0B 0C 0D 0E 0F
      -- -- -- -- -- -- -- --  -- -- -- -- -- -- -- --
0B50: 1C 4E 80 6E F0 FF FF 7F  AA 80 99 F0 FF FF 7F 00  .N.n............
```

#### Opcodes

```
  0: 0x0B50 [0x1C] WAIT(90* ticks)
  1: 0x0B53 [0x6E] LocalPlayer uses emote 20*
  2: 0x0B5A [0x99] Wait for LocalPlayer animation to complete
  3: 0x0B5F [0x00] END_REQSTACK()
```

### Event 65535.66

#### Metadata

| Field        | Value   |
|--------------|---------|
| Entrypoint   | 0x0B60  |
| Data Size    | 6 bytes |
| Instructions | 2       |

```
      00 01 02 03 04 05 06 07  08 09 0A 0B 0C 0D 0E 0F
      -- -- -- -- -- -- -- --  -- -- -- -- -- -- -- --
0B60: 03 02 10 07 7F 00                                 ......          
```

#### Opcodes

```
  0: 0x0B60 [0x03] Work_Zone[2] = Entity->Race
  1: 0x0B65 [0x00] END_REQSTACK()
```

### Event 65535.67

#### Metadata

| Field        | Value   |
|--------------|---------|
| Entrypoint   | 0x0B66  |
| Data Size    | 6 bytes |
| Instructions | 2       |

```
      00 01 02 03 04 05 06 07  08 09 0A 0B 0C 0D 0E 0F
      -- -- -- -- -- -- -- --  -- -- -- -- -- -- -- --
0B60:                   03 02  10 0B 7F 00                    ......    
```

#### Opcodes

```
  0: 0x0B66 [0x03] Work_Zone[2] = (Entity->Render.Flags01 >> 25) & 1
  1: 0x0B6B [0x00] END_REQSTACK()
```

### Event 65535.68

#### Metadata

| Field        | Value    |
|--------------|----------|
| Entrypoint   | 0x0B6C   |
| Data Size    | 16 bytes |
| Instructions | 3        |

```
      00 01 02 03 04 05 06 07  08 09 0A 0B 0C 0D 0E 0F
      -- -- -- -- -- -- -- --  -- -- -- -- -- -- -- --
0B60:                                      6C F0 FF FF              l...
0B70: 7F 03 80 1C 80 92 01 F0  FF FF 7F 00              ............    
```

#### Opcodes

```
  0: 0x0B6C [0x6C] FADE_ENTITY_COLOR(entity_id=LocalPlayer, end_alpha=0*, fade_time=1*)
  1: 0x0B75 [0x92] LocalPlayer->Render.Flags3 ^= 0x01
  2: 0x0B7B [0x00] END_REQSTACK()
```

### Event 65535.69

#### Metadata

| Field        | Value    |
|--------------|----------|
| Entrypoint   | 0x0B7C   |
| Data Size    | 10 bytes |
| Instructions | 2        |

```
      00 01 02 03 04 05 06 07  08 09 0A 0B 0C 0D 0E 0F
      -- -- -- -- -- -- -- --  -- -- -- -- -- -- -- --
0B70:                                      6C F0 FF FF              l...
0B80: 7F AB 80 1C 80 00                                 ......          
```

#### Opcodes

```
  0: 0x0B7C [0x6C] FADE_ENTITY_COLOR(entity_id=LocalPlayer, end_alpha=84*, fade_time=1*)
  1: 0x0B85 [0x00] END_REQSTACK()
```

### Event 65535.70

#### Metadata

| Field        | Value    |
|--------------|----------|
| Entrypoint   | 0x0B86   |
| Data Size    | 16 bytes |
| Instructions | 3        |

```
      00 01 02 03 04 05 06 07  08 09 0A 0B 0C 0D 0E 0F
      -- -- -- -- -- -- -- --  -- -- -- -- -- -- -- --
0B80:                   6C F0  FF FF 7F 8C 80 1C 80 92        l.........
0B90: 00 F0 FF FF 7F 00                                 ......          
```

#### Opcodes

```
  0: 0x0B86 [0x6C] FADE_ENTITY_COLOR(entity_id=LocalPlayer, end_alpha=128*, fade_time=1*)
  1: 0x0B8F [0x92] LocalPlayer->Render.Flags3 = Flags3  // No change (flag=0)
  2: 0x0B95 [0x00] END_REQSTACK()
```

### Event 65535.71

#### Metadata

| Field        | Value    |
|--------------|----------|
| Entrypoint   | 0x0B96   |
| Data Size    | 38 bytes |
| Instructions | 5        |

```
      00 01 02 03 04 05 06 07  08 09 0A 0B 0C 0D 0E 0F
      -- -- -- -- -- -- -- --  -- -- -- -- -- -- -- --
0B90:                   22 00  2F 00 F8 FF FF 7F B6 0B        "./.......
0BA0: 1C 80 03 80 8E 80 8F 80  90 80 90 80 90 80 61 80  ..............a.
0BB0: 91 80 6C F8 FF FF 7F AC  80 1C 80 00              ..l.........    
```

#### Opcodes

```
  0: 0x0B96 [0x22] ENTITY_HIDE_FLAG(enabled=0x00)
  1: 0x0B98 [0x2F] EventEntity->Render.Flags0 &= ~0x80000 // Bit 19
  2: 0x0B9E [0xB6] ENTITY_APPEARANCE_HANDLER(case=Full entity look, race=1*, hair=0*, head=145*, body=79*, hands=76*, legs=76*, feet=76*, main=201*, sub=262*)
  3: 0x0BB2 [0x6C] FADE_ENTITY_COLOR(entity_id=EventEntity, end_alpha=32*, fade_time=1*)
  4: 0x0BBB [0x00] END_REQSTACK()
```

### Event 65535.72

#### Metadata

| Field        | Value    |
|--------------|----------|
| Entrypoint   | 0x0BBC   |
| Data Size    | 38 bytes |
| Instructions | 5        |

```
      00 01 02 03 04 05 06 07  08 09 0A 0B 0C 0D 0E 0F
      -- -- -- -- -- -- -- --  -- -- -- -- -- -- -- --
0BB0:                                      22 00 2F 00              "./.
0BC0: F8 FF FF 7F B6 0B 1B 80  03 80 8E 80 8F 80 90 80  ................
0BD0: 90 80 90 80 61 80 93 80  6C F8 FF FF 7F AD 80 1C  ....a...l.......
0BE0: 80 00                                             ..              
```

#### Opcodes

```
  0: 0x0BBC [0x22] ENTITY_HIDE_FLAG(enabled=0x00)
  1: 0x0BBE [0x2F] EventEntity->Render.Flags0 &= ~0x80000 // Bit 19
  2: 0x0BC4 [0xB6] ENTITY_APPEARANCE_HANDLER(case=Full entity look, race=5*, hair=0*, head=145*, body=79*, hands=76*, legs=76*, feet=76*, main=201*, sub=24*)
  3: 0x0BD8 [0x6C] FADE_ENTITY_COLOR(entity_id=EventEntity, end_alpha=48*, fade_time=1*)
  4: 0x0BE1 [0x00] END_REQSTACK()
```

### Event 65535.73

#### Metadata

| Field        | Value    |
|--------------|----------|
| Entrypoint   | 0x0BE2   |
| Data Size    | 38 bytes |
| Instructions | 5        |

```
      00 01 02 03 04 05 06 07  08 09 0A 0B 0C 0D 0E 0F
      -- -- -- -- -- -- -- --  -- -- -- -- -- -- -- --
0BE0:       22 00 2F 00 F8 FF  FF 7F B6 0B 8B 80 03 80    "./...........
0BF0: 8E 80 8F 80 90 80 90 80  90 80 61 80 93 80 6C F8  ..........a...l.
0C00: FF FF 7F 92 80 1C 80 00                           ........        
```

#### Opcodes

```
  0: 0x0BE2 [0x22] ENTITY_HIDE_FLAG(enabled=0x00)
  1: 0x0BE4 [0x2F] EventEntity->Render.Flags0 &= ~0x80000 // Bit 19
  2: 0x0BEA [0xB6] ENTITY_APPEARANCE_HANDLER(case=Full entity look, race=7*, hair=0*, head=145*, body=79*, hands=76*, legs=76*, feet=76*, main=201*, sub=24*)
  3: 0x0BFE [0x6C] FADE_ENTITY_COLOR(entity_id=EventEntity, end_alpha=64*, fade_time=1*)
  4: 0x0C07 [0x00] END_REQSTACK()
```

### Event 65535.74

#### Metadata

| Field        | Value    |
|--------------|----------|
| Entrypoint   | 0x0C08   |
| Data Size    | 19 bytes |
| Instructions | 5        |

```
      00 01 02 03 04 05 06 07  08 09 0A 0B 0C 0D 0E 0F
      -- -- -- -- -- -- -- --  -- -- -- -- -- -- -- --
0C00:                          32 1E 80 1F 00 AE 80 AF          2.......
0C10: 80 B0 80 1F 01 1E 4D 92  06 01 00                 ......M....     
```

#### Opcodes

```
  0: 0x0C08 [0x32] ExtData[1]->MainSpeed = 10* * 0.1
  1: 0x0C0B [0x1F] MOVE_ENTITY: EventEntity moves to X=153.082*, Z=-395.879*, Y=-3.351*
  2: 0x0C13 [0x1F] MOVE_ENTITY: Update entity position (mode=1)
  3: 0x0C15 [0x1E] EventEntity looks at Larzos (ID: 17207885/0x0106924D) and starts talking
  4: 0x0C1A [0x00] END_REQSTACK()
```

### Event 65535.75

#### Metadata

| Field        | Value    |
|--------------|----------|
| Entrypoint   | 0x0C1B   |
| Data Size    | 11 bytes |
| Instructions | 3        |

```
      00 01 02 03 04 05 06 07  08 09 0A 0B 0C 0D 0E 0F
      -- -- -- -- -- -- -- --  -- -- -- -- -- -- -- --
0C10:                                   1F 00 B1 80 B2             .....
0C20: 80 B3 80 1F 01 00                                 ......          
```

#### Opcodes

```
  0: 0x0C1B [0x1F] MOVE_ENTITY: EventEntity moves to X=-73.721*, Z=441.071*, Y=0.112*
  1: 0x0C23 [0x1F] MOVE_ENTITY: Update entity position (mode=1)
  2: 0x0C25 [0x00] END_REQSTACK()
```

### Event 65535.76

#### Metadata

| Field        | Value    |
|--------------|----------|
| Entrypoint   | 0x0C26   |
| Data Size    | 35 bytes |
| Instructions | 9        |

```
      00 01 02 03 04 05 06 07  08 09 0A 0B 0C 0D 0E 0F
      -- -- -- -- -- -- -- --  -- -- -- -- -- -- -- --
0C20:                   32 B4  80 1F 00 B5 80 B6 80 B7        2.........
0C30: 80 1F 01 6F 4A F0 FF FF  7F 64 92 06 01 6F 76 F0  ...oJ....d...ov.
0C40: FF FF 7F 7B F0 FF FF 7F  00                       ...{.....       
```

#### Opcodes

```
  0: 0x0C26 [0x32] ExtData[1]->MainSpeed = 40* * 0.1
  1: 0x0C29 [0x1F] MOVE_ENTITY: EventEntity moves to X=-56.082*, Z=439.900*, Y=0.803*
  2: 0x0C31 [0x1F] MOVE_ENTITY: Update entity position (mode=1)
  3: 0x0C33 [0x6F] WAIT_FRAME_DELAY: Yield until WaitTime reaches zero
  4: 0x0C34 [0x4A] LocalPlayer looks at Bostillette (ID: 17207908/0x01069264)
  5: 0x0C3D [0x6F] WAIT_FRAME_DELAY: Yield until WaitTime reaches zero
  6: 0x0C3E [0x76] CHECK_ENTITY_RENDER_FLAGS: Wait until LocalPlayer Render.Flags0 and Render.Flags3 conditions are met
  7: 0x0C43 [0x7B] LocalPlayer stops talking
  8: 0x0C48 [0x00] END_REQSTACK()
```

### Event 65535.77

#### Metadata

| Field        | Value    |
|--------------|----------|
| Entrypoint   | 0x0C49   |
| Data Size    | 35 bytes |
| Instructions | 9        |

```
      00 01 02 03 04 05 06 07  08 09 0A 0B 0C 0D 0E 0F
      -- -- -- -- -- -- -- --  -- -- -- -- -- -- -- --
0C40:                             32 09 80 1F 00 B8 80           2......
0C50: B9 80 BA 80 1F 01 6F 4A  F0 FF FF 7F 63 92 06 01  ......oJ....c...
0C60: 6F 76 F0 FF FF 7F 7B F0  FF FF 7F 00              ov....{.....    
```

#### Opcodes

```
  0: 0x0C49 [0x32] ExtData[1]->MainSpeed = 13* * 0.1
  1: 0x0C4C [0x1F] MOVE_ENTITY: EventEntity moves to X=-54.009*, Z=436.588*, Y=0.596*
  2: 0x0C54 [0x1F] MOVE_ENTITY: Update entity position (mode=1)
  3: 0x0C56 [0x6F] WAIT_FRAME_DELAY: Yield until WaitTime reaches zero
  4: 0x0C57 [0x4A] LocalPlayer looks at Cavernous Maw (ID: 17207907/0x01069263)
  5: 0x0C60 [0x6F] WAIT_FRAME_DELAY: Yield until WaitTime reaches zero
  6: 0x0C61 [0x76] CHECK_ENTITY_RENDER_FLAGS: Wait until LocalPlayer Render.Flags0 and Render.Flags3 conditions are met
  7: 0x0C66 [0x7B] LocalPlayer stops talking
  8: 0x0C6B [0x00] END_REQSTACK()
```

### Event 65535.78

#### Metadata

| Field        | Value    |
|--------------|----------|
| Entrypoint   | 0x0C6C   |
| Data Size    | 35 bytes |
| Instructions | 9        |

```
      00 01 02 03 04 05 06 07  08 09 0A 0B 0C 0D 0E 0F
      -- -- -- -- -- -- -- --  -- -- -- -- -- -- -- --
0C60:                                      32 B4 80 1F              2...
0C70: 00 BB 80 BC 80 BD 80 1F  01 6F 4A F0 FF FF 7F 63  .........oJ....c
0C80: 92 06 01 6F 76 F0 FF FF  7F 7B F0 FF FF 7F 00     ...ov....{..... 
```

#### Opcodes

```
  0: 0x0C6C [0x32] ExtData[1]->MainSpeed = 40* * 0.1
  1: 0x0C6F [0x1F] MOVE_ENTITY: EventEntity moves to X=-51.258*, Z=436.839*, Y=0.360*
  2: 0x0C77 [0x1F] MOVE_ENTITY: Update entity position (mode=1)
  3: 0x0C79 [0x6F] WAIT_FRAME_DELAY: Yield until WaitTime reaches zero
  4: 0x0C7A [0x4A] LocalPlayer looks at Cavernous Maw (ID: 17207907/0x01069263)
  5: 0x0C83 [0x6F] WAIT_FRAME_DELAY: Yield until WaitTime reaches zero
  6: 0x0C84 [0x76] CHECK_ENTITY_RENDER_FLAGS: Wait until LocalPlayer Render.Flags0 and Render.Flags3 conditions are met
  7: 0x0C89 [0x7B] LocalPlayer stops talking
  8: 0x0C8E [0x00] END_REQSTACK()
```

### Event 5505

#### Metadata

| Field        | Value     |
|--------------|-----------|
| Entrypoint   | 0x0C8F    |
| Data Size    | 128 bytes |
| Instructions | 14        |

```
      00 01 02 03 04 05 06 07  08 09 0A 0B 0C 0D 0E 0F
      -- -- -- -- -- -- -- --  -- -- -- -- -- -- -- --
0C80:                                               42                 B
