# 17134158 - Mariette

## Common Data

| Field            | Value                       |
|------------------|-----------------------------|
| Zone             | Bastok Markets [S] (ID: 87) |
| Block Size       | 324 bytes                   |
| Total Events     | 2                           |
| References Count | 18                          |

## List of Events

| Event ID              | Entrypoint   |   Size |   Instructions |
|-----------------------|--------------|--------|----------------|
| [65535](#event-65535) | 0x0000       |      1 |              1 |
| [325](#event-325)     | 0x0001       |    226 |             59 |

## DAT References (imed_data)

|   Index | Hex Value   |   Dec Value |
|---------|-------------|-------------|
|       0 | 0x00D8      |         216 |
|       1 | 0x00D9      |         217 |
|       2 | 0x00DA      |         218 |
|       3 | 0x00DB      |         219 |
|       4 | 0x00DC      |         220 |
|       5 | 0x3225      |       12837 |
|       6 | 0x0ADF      |        2783 |
|       7 | 0x0000      |           0 |
|       8 | 0x321B      |       12827 |
|       9 | 0x321D      |       12829 |
|      10 | 0x321E      |       12830 |
|      11 | 0x321F      |       12831 |
|      12 | 0x3220      |       12832 |
|      13 | 0x0001      |           1 |
|      14 | 0x3221      |       12833 |
|      15 | 0x3223      |       12835 |
|      16 | 0x0003      |           3 |
|      17 | 0x3224      |       12836 |

## String References

- **12827**: You there, soldier. You've been sent up from the scouts division, yes? Well, let's not waste any time. Here, take this.
- **12829**: Do you know what that fiendtrapper is for? [ A fiend what?/I'm good, thanks.]
- **12830**: Essentially, it's just a miniature recording device currently in the early stages of experimental use by the scouts division.
- **12831**: When used in conjuction with a scout's blank fiend plate, it allows for the automatic and hassle-free storage of surveillance data.
- **12832**: That about covers it. Your mission, should you choose to accept it, is to take this fiendtrapper and go and get the goods on those darn Quadav!
- **12833**: I expected no less from an knowledgable scout such as yourself. Your mission, should you choose to accept it, is to take this device and find out what those Quadav are up to!
- **12835**: What is it? Were you able to capture some helpful footage of the enemy? In times such as these, surveillance can be the difference between victory or defeat.
- **12836**: Since I have confirmed your findings, it is now on you to proceed directly to Hieronymus with that intel and report the particulars.
- **12837**: I apologize for my frankness, but I am on duty. If your query is in regards to anything other than Campaign Ops, please direct it elsewhere.

## Events

### Event 65535

#### Metadata

| Field        | Value   |
|--------------|---------|
| Entrypoint   | 0x0000  |
| Data Size    | 1 bytes |
| Instructions | 1       |

```
      00 01 02 03 04 05 06 07  08 09 0A 0B 0C 0D 0E 0F
      -- -- -- -- -- -- -- --  -- -- -- -- -- -- -- --
0000: 00                                                .               
```

#### Opcodes

```
  0: 0x0000 [0x00] END_REQSTACK()
```

### Event 325

#### Metadata

| Field        | Value     |
|--------------|-----------|
| Entrypoint   | 0x0001    |
| Data Size    | 226 bytes |
| Instructions | 59        |

```
      00 01 02 03 04 05 06 07  08 09 0A 0B 0C 0D 0E 0F
      -- -- -- -- -- -- -- --  -- -- -- -- -- -- -- --
0000:    20 01 42 4A 4E 72 05  01 F0 FF FF 7F 6F 70 79    .BJNr......opy
0010: 00 4E 72 05 01 F0 FF FF  7F 03 00 00 03 10 02 00  .Nr.............
0020: 00 00 80 80 2C 00 1A 78  00 01 68 00 02 00 00 01  ....,..x..h.....
0030: 80 80 3A 00 1A 78 00 01  68 00 02 00 00 02 80 80  ..:..x..h.......
0040: 48 00 1A 78 00 01 68 00  02 00 00 03 80 80 56 00  H..x..h.......V.
0050: 1A 78 00 01 68 00 02 00  00 04 80 80 64 00 1A 78  .x..h.......d..x
0060: 00 01 68 00 1D 05 80 23  7B 4E 72 05 01 4B 4E 72  ..h....#{Nr..KNr
0070: 05 01 06 80 20 00 21 00  02 02 10 07 80 80 BA 00  .... .!.........
0080: 1D 08 80 23 24 09 80 07  80 07 80 25 02 00 10 07  ...#$......%....
0090: 80 00 A3 00 1D 0A 80 23  1D 0B 80 23 1D 0C 80 23  .......#...#...#
00A0: 01 B2 00 02 00 10 0D 80  00 B2 00 1D 0E 80 23 01  ..............#.
00B0: B2 00 03 01 10 0D 80 01  E2 00 02 02 10 0D 80 80  ................
00C0: CE 00 1D 0F 80 23 03 01  10 07 80 01 E2 00 02 02  .....#..........
00D0: 10 10 80 80 E2 00 1D 11  80 23 03 01 10 07 80 01  .........#......
00E0: E2 00 1B                                          ...             
```

#### Opcodes

```
  0: 0x0001 [0x20] SET_CLI_EVENT_UC_FLAG: Lock player control
  1: 0x0003 [0x42] SET_CLI_EVENT_CANCEL_DATA()
  2: 0x0004 [0x4A] Mariette (ID: 17134158/0x0105724E) looks at LocalPlayer
  3: 0x000D [0x6F] WAIT_FRAME_DELAY: Yield until WaitTime reaches zero
  4: 0x000E [0x70] WAIT_ENTITY_RENDER_FLAG: Wait while EventEntity->Render.Flags3 bit 2 is set (cancel turn if not)
  5: 0x000F [0x79] Mariette (ID: 17134158/0x0105724E) looks at LocalPlayer (Basic look)
  6: 0x0019 [0x03] ExtData[1]->WorkLocal[0] = Work_Zone[3]
  7: 0x001E [0x02] IF !(ExtData[1]->WorkLocal[0] == 216*) GOTO 0x002C
  8: 0x0026 [0x1A] CALL_SUBROUTINE(address=0x0078)
  9: 0x0029 [0x01] GOTO 0x0068
 10: 0x002C [0x02] IF !(ExtData[1]->WorkLocal[0] == 217*) GOTO 0x003A
 11: 0x0034 [0x1A] CALL_SUBROUTINE(address=0x0078)
 12: 0x0037 [0x01] GOTO 0x0068
 13: 0x003A [0x02] IF !(ExtData[1]->WorkLocal[0] == 218*) GOTO 0x0048
 14: 0x0042 [0x1A] CALL_SUBROUTINE(address=0x0078)
 15: 0x0045 [0x01] GOTO 0x0068
 16: 0x0048 [0x02] IF !(ExtData[1]->WorkLocal[0] == 219*) GOTO 0x0056
 17: 0x0050 [0x1A] CALL_SUBROUTINE(address=0x0078)
 18: 0x0053 [0x01] GOTO 0x0068
 19: 0x0056 [0x02] IF !(ExtData[1]->WorkLocal[0] == 220*) GOTO 0x0064
 20: 0x005E [0x1A] CALL_SUBROUTINE(address=0x0078)
 21: 0x0061 [0x01] GOTO 0x0068
 22: 0x0064 [0x1D] PRINT_EVENT_MESSAGE(message_id=12837*)
    → "I apologize for my frankness, but I am on duty. If your query is in regards to anything other than Campaign Ops, please direct it elsewhere."
 23: 0x0067 [0x23] WAIT_FOR_DIALOG_INTERACTION

SUBROUTINE_0068:
 24: 0x0068 [0x7B] Mariette (ID: 17134158/0x0105724E) stops talking
 25: 0x006D [0x4B] UPDATE_ENTITY_YAW(entity=Mariette (ID: 17134158/0x0105724E), yaw=15.3°*)
 26: 0x0074 [0x20] SET_CLI_EVENT_UC_FLAG: Unlock player control
 27: 0x0076 [0x21] END_EVENT
 28: 0x0077 [0x00] END_REQSTACK()

SUBROUTINE_0078:
 29: 0x0078 [0x02] IF !(Work_Zone[2] == 0*) GOTO 0x00BA
 30: 0x0080 [0x1D] PRINT_EVENT_MESSAGE(message_id=12827*)
    → "You there, soldier. You've been sent up from the scouts division, yes? Well, let's not waste any time. Here, take this."
 31: 0x0083 [0x23] WAIT_FOR_DIALOG_INTERACTION
 32: 0x0084 [0x24] CREATE_DIALOG(message_id=12829*, default_option=0*, option_flags=0*)
    → "Do you know what that fiendtrapper is for? [ A fiend what?/I'm good, thanks.]"
 33: 0x008B [0x25] WAIT_DIALOG_SELECT()
 34: 0x008C [0x02] IF !(Work_Zone[0] == 0*) GOTO 0x00A3
 35: 0x0094 [0x1D] PRINT_EVENT_MESSAGE(message_id=12830*)
    → "Essentially, it's just a miniature recording device currently in the early stages of experimental use by the scouts division."
 36: 0x0097 [0x23] WAIT_FOR_DIALOG_INTERACTION
 37: 0x0098 [0x1D] PRINT_EVENT_MESSAGE(message_id=12831*)
    → "When used in conjuction with a scout's blank fiend plate, it allows for the automatic and hassle-free storage of surveillance data."
 38: 0x009B [0x23] WAIT_FOR_DIALOG_INTERACTION
 39: 0x009C [0x1D] PRINT_EVENT_MESSAGE(message_id=12832*)
    → "That about covers it. Your mission, should you choose to accept it, is to take this fiendtrapper and go and get the goods on those darn Quadav!"
 40: 0x009F [0x23] WAIT_FOR_DIALOG_INTERACTION
 41: 0x00A0 [0x01] GOTO 0x00B2
 42: 0x00A3 [0x02] IF !(Work_Zone[0] == 1*) GOTO 0x00B2
 43: 0x00AB [0x1D] PRINT_EVENT_MESSAGE(message_id=12833*)
    → "I expected no less from an knowledgable scout such as yourself. Your mission, should you choose to accept it, is to take this device and find out what those Quadav are up to!"
 44: 0x00AE [0x23] WAIT_FOR_DIALOG_INTERACTION
 45: 0x00AF [0x01] GOTO 0x00B2

SUBROUTINE_00B2:
 46: 0x00B2 [0x03] Work_Zone[1] = 1*
 47: 0x00B7 [0x01] GOTO 0x00E2
 48: 0x00BA [0x02] IF !(Work_Zone[2] == 1*) GOTO 0x00CE
 49: 0x00C2 [0x1D] PRINT_EVENT_MESSAGE(message_id=12835*)
    → "What is it? Were you able to capture some helpful footage of the enemy? In times such as these, surveillance can be the difference between victory or defeat."
 50: 0x00C5 [0x23] WAIT_FOR_DIALOG_INTERACTION
 51: 0x00C6 [0x03] Work_Zone[1] = 0*
 52: 0x00CB [0x01] GOTO 0x00E2
 53: 0x00CE [0x02] IF !(Work_Zone[2] == 3*) GOTO 0x00E2
 54: 0x00D6 [0x1D] PRINT_EVENT_MESSAGE(message_id=12836*)
    → "Since I have confirmed your findings, it is now on you to proceed directly to Hieronymus with that intel and report the particulars."
 55: 0x00D9 [0x23] WAIT_FOR_DIALOG_INTERACTION
 56: 0x00DA [0x03] Work_Zone[1] = 0*
 57: 0x00DF [0x01] GOTO 0x00E2

SUBROUTINE_00E2:
 58: 0x00E2 [0x1B] RETURN
```
