# 17134109 - Melina

## Common Data

| Field            | Value                       |
|------------------|-----------------------------|
| Zone             | Bastok Markets [S] (ID: 87) |
| Block Size       | 516 bytes                   |
| Total Events     | 4                           |
| References Count | 26                          |

## List of Events

| Event ID              | Entrypoint   |   Size |   Instructions |
|-----------------------|--------------|--------|----------------|
| [65535](#event-65535) | 0x0000       |      1 |              1 |
| [6](#event-6)         | 0x0001       |    346 |             80 |
| [7](#event-7)         | 0x015B       |     16 |              6 |
| [8](#event-8)         | 0x016B       |     17 |              7 |

## DAT References (imed_data)

|   Index | Hex Value   |   Dec Value |
|---------|-------------|-------------|
|       0 | 0xFFFFFFFC  |  4294967292 |
|       1 | 0x2BEE      |       11246 |
|       2 | 0xFFFFFFFD  |  4294967293 |
|       3 | 0xFFFFFFFF  |  4294967295 |
|       4 | 0x00C8      |         200 |
|       5 | 0x0000      |           0 |
|       6 | 0x0020      |          32 |
|       7 | 0x005A      |          90 |
|       8 | 0x003C      |          60 |
|       9 | 0x00C9      |         201 |
|      10 | 0xFFFFFFFB  |  4294967291 |
|      11 | 0x2BF2      |       11250 |
|      12 | 0x2BF3      |       11251 |
|      13 | 0x2BF5      |       11253 |
|      14 | 0x0004      |           4 |
|      15 | 0x2BF8      |       11256 |
|      16 | 0x0001      |           1 |
|      17 | 0x0002      |           2 |
|      18 | 0x0003      |           3 |
|      19 | 0x40000000  |  1073741824 |
|      20 | 0x008A      |         138 |
|      21 | 0x2BF0      |       11248 |
|      22 | 0x2BEB      |       11243 |
|      23 | 0x2BF1      |       11249 |
|      24 | 0x2BEF      |       11247 |
|      25 | 0x2F2B      |       12075 |

## String References

- **11243**: Do you wish to rent a chocobo? [Yes, I do./No, thank you.]
- **11246**: Would you be so kind as to deliver her to [the entrance to the Gustav Tunnel (B-8)/Bibiki Bay (G-10)/the entrance of Uggalepih Temple (J-11)]?
- **11247**: Only those fulfilling both requirements set forth by the alliance may ride a chocobo. First, you must be a soldier of a respectable level in the Allied Forces. Secondly, you must be in possession of $6.
- **11248**: Any of our fine birds here will bear you directly to the frontlines of battle. We charge a service fee of $0 Allied Notes, which goes towards seeing that the chocobos are well taken care of. My records indicate that you currently have $1 Allied Notes.
- **11249**: Hmmm... It looks like you don't have enough Allied Notes. Sorry, but these birds aren't going to feed and groom themselves.
- **11250**: <Player>, if I'm not mistaken. We appreciate your assistance in the expansion of our provision storehouses.
- **11251**: Your chocobo is already saddled up and loaded with the construction materials. To which stronghold will you be delivering?
- **11253**: Deliver to which stronghold? [North Gustaberg./Grauberg./Pashhow Marshlands./Rolanberry Fields./I need to replan.]
- **11256**: Our troops at the stronghold in [North Gustaberg/Grauberg/Pashhow Marshlands/Rolanberry Fields] will be informed of your coming. Luck ride with you!
- **12075**: I'm terribly sorry, but chocobo services are currently unavailable.

## Events

### Event 65535

#### Metadata

| Field        | Value   |
|--------------|---------|
| Entrypoint   | 0x0000  |
| Data Size    | 1 bytes |
| Instructions | 1       |

```
      00 01 02 03 04 05 06 07  08 09 0A 0B 0C 0D 0E 0F
      -- -- -- -- -- -- -- --  -- -- -- -- -- -- -- --
0000: 00                                                .               
```

#### Opcodes

```
  0: 0x0000 [0x00] END_REQSTACK()
```

### Event 6

#### Metadata

| Field        | Value     |
|--------------|-----------|
| Entrypoint   | 0x0001    |
| Data Size    | 346 bytes |
| Instructions | 53        |

```
      00 01 02 03 04 05 06 07  08 09 0A 0B 0C 0D 0E 0F
      -- -- -- -- -- -- -- --  -- -- -- -- -- -- -- --
0000:    02 02 10 00 80 00 10  00 42 1D 01 80 23 21 00   ........B...#!.
0010: 02 02 10 02 80 00 1D 00  1E F0 FF FF 7F 02 02 10  ................
0020: 03 80 00 5A 00 42 45 04  80 F8 FF FF 7F F8 FF FF  ...Z.BE.........
0030: 7F 66 64 6F 32 05 80 02  04 10 05 80 00 58 00 5D  .fdo2........X.]
0040: 06 80 07 80 1C 08 80 45  09 80 F8 FF FF 7F F8 FF  .......E........
0050: FF 7F 63 68 63 6F 05 80  21 00 02 02 10 0A 80 00  ..chco..!.......
0060: EE 00 1E F0 FF FF 7F 1D  0B 80 23 1D 0C 80 23 24  ..........#...#$
0070: 0D 80 0E 80 03 10 25 02  00 10 05 80 00 93 00 03  ......%.........
0080: 05 10 05 80 1D 0F 80 23  03 01 10 05 10 01 25 00  .......#......%.
0090: 01 EE 00 02 00 10 10 80  00 AF 00 03 05 10 10 80  ................
00A0: 1D 0F 80 23 03 01 10 05  10 01 25 00 01 EE 00 02  ...#......%.....
00B0: 00 10 11 80 00 CB 00 03  05 10 11 80 1D 0F 80 23  ...............#
00C0: 03 01 10 05 10 01 25 00  01 EE 00 02 00 10 12 80  ......%.........
00D0: 00 E7 00 03 05 10 12 80  1D 0F 80 23 03 01 10 05  ...........#....
00E0: 10 01 25 00 01 EE 00 03  01 10 13 80 21 00 03 09  ..%.........!...
00F0: 10 14 80 1E F0 FF FF 7F  1D 15 80 23 24 16 80 10  ...........#$...
0100: 80 05 80 25 02 00 10 05  80 00 54 01 02 03 10 02  ...%......T.....
0110: 10 04 46 01 43 00 43 01  42 45 04 80 F8 FF FF 7F  ..F.C.C.BE......
0120: F8 FF FF 7F 66 64 6F 31  05 80 02 04 10 05 80 00  ....fdo1........
0130: 43 01 45 09 80 F8 FF FF  7F F8 FF FF 7F 63 68 63  C.E..........chc
0140: 6F 05 80 01 4F 01 1D 17  80 23 03 01 10 13 80 21  o...O....#.....!
0150: 00 01 59 01 03 01 10 13  80 21 00                 ..Y......!.     
```

#### Opcodes

```
  0: 0x0001 [0x02] IF !(Work_Zone[2] == 4294967292*) GOTO 0x0010
  1: 0x0009 [0x42] SET_CLI_EVENT_CANCEL_DATA()
  2: 0x000A [0x1D] PRINT_EVENT_MESSAGE(message_id=11246*)
    → "Would you be so kind as to deliver her to [the entrance to the Gustav Tunnel (B-8)/Bibiki Bay (G-10)/the entrance of Uggalepih Temple (J-11)]?"
  3: 0x000D [0x23] WAIT_FOR_DIALOG_INTERACTION
  4: 0x000E [0x21] END_EVENT
  5: 0x000F [0x00] END_REQSTACK()
  6: 0x0010 [0x02] IF !(Work_Zone[2] == 4294967293*) GOTO 0x001D
  7: 0x0018 [0x1E] EventEntity looks at LocalPlayer and starts talking
  8: 0x001D [0x02] IF !(Work_Zone[2] == 4294967295*) GOTO 0x005A

SUBROUTINE_0025:
  9: 0x0025 [0x42] SET_CLI_EVENT_CANCEL_DATA()
 10: 0x0026 [0x45] LOAD_SCHEDULED_TASK: Load scheduler "fdo2" with entities [EventEntity, EventEntity], work=[200*, 0*]
 11: 0x0037 [0x02] IF !(Work_Zone[4] == 0*) GOTO 0x0058
 12: 0x003F [0x5D] SET_MUSIC_VOLUME(volume=32*, fade_time=90*)
 13: 0x0044 [0x1C] WAIT(60* ticks)
 14: 0x0047 [0x45] LOAD_SCHEDULED_TASK: Load scheduler "chco" with entities [EventEntity, EventEntity], work=[201*, 0*]
 15: 0x0058 [0x21] END_EVENT
 16: 0x0059 [0x00] END_REQSTACK()
 17: 0x005A [0x02] IF !(Work_Zone[2] == 4294967291*) GOTO 0x00EE
 18: 0x0062 [0x1E] EventEntity looks at LocalPlayer and starts talking
 19: 0x0067 [0x1D] PRINT_EVENT_MESSAGE(message_id=11250*)
    → "<Player>, if I'm not mistaken. We appreciate your assistance in the expansion of our provision storehouses."
 20: 0x006A [0x23] WAIT_FOR_DIALOG_INTERACTION
 21: 0x006B [0x1D] PRINT_EVENT_MESSAGE(message_id=11251*)
    → "Your chocobo is already saddled up and loaded with the construction materials. To which stronghold will you be delivering?"
 22: 0x006E [0x23] WAIT_FOR_DIALOG_INTERACTION
 23: 0x006F [0x24] CREATE_DIALOG(message_id=11253*, default_option=4*, option_flags=Work_Zone[3])
    → "Deliver to which stronghold? [North Gustaberg./Grauberg./Pashhow Marshlands./Rolanberry Fields./I need to replan.]"
 24: 0x0076 [0x25] WAIT_DIALOG_SELECT()
 25: 0x0077 [0x02] IF !(Work_Zone[0] == 0*) GOTO 0x0093
 26: 0x007F [0x03] Work_Zone[5] = 0*
 27: 0x0084 [0x1D] PRINT_EVENT_MESSAGE(message_id=11256*)
    → "Our troops at the stronghold in [North Gustaberg/Grauberg/Pashhow Marshlands/Rolanberry Fields] will be informed of your coming. Luck ride with you!"
 28: 0x0087 [0x23] WAIT_FOR_DIALOG_INTERACTION
 29: 0x0088 [0x03] Work_Zone[1] = Work_Zone[5]
 30: 0x008D [0x01] GOTO 0x0025

SUBROUTINE_00EE:
 31: 0x00EE [0x03] Work_Zone[9] = 138*
 32: 0x00F3 [0x1E] EventEntity looks at LocalPlayer and starts talking
 33: 0x00F8 [0x1D] PRINT_EVENT_MESSAGE(message_id=11248*)
    → "Any of our fine birds here will bear you directly to the frontlines of battle. We charge a service fee of $0 Allied Notes, which goes towards seeing that the chocobos are well taken care of. My records indicate that you currently have $1 Allied Notes."
 34: 0x00FB [0x23] WAIT_FOR_DIALOG_INTERACTION
 35: 0x00FC [0x24] CREATE_DIALOG(message_id=11243*, default_option=1*, option_flags=0*)
    → "Do you wish to rent a chocobo? [Yes, I do./No, thank you.]"
 36: 0x0103 [0x25] WAIT_DIALOG_SELECT()
 37: 0x0104 [0x02] IF !(Work_Zone[0] == 0*) GOTO 0x0154
 38: 0x010C [0x02] IF !(Work_Zone[3] < Work_Zone[2]) GOTO 0x0146
 39: 0x0114 [0x43] SEND_EVENT_UPDATE: Send pending tag to server (packet 0x005B)
 40: 0x0116 [0x43] SEND_EVENT_UPDATE: Check pending flag (skip if not pending)
 41: 0x0118 [0x42] SET_CLI_EVENT_CANCEL_DATA()
 42: 0x0119 [0x45] LOAD_SCHEDULED_TASK: Load scheduler "fdo1" with entities [EventEntity, EventEntity], work=[200*, 0*]
 43: 0x012A [0x02] IF !(Work_Zone[4] == 0*) GOTO 0x0143
 44: 0x0132 [0x45] LOAD_SCHEDULED_TASK: Load scheduler "chco" with entities [EventEntity, EventEntity], work=[201*, 0*]
 45: 0x0143 [0x01] GOTO 0x014F
 46: 0x0146 [0x1D] PRINT_EVENT_MESSAGE(message_id=11249*)
    → "Hmmm... It looks like you don't have enough Allied Notes. Sorry, but these birds aren't going to feed and groom themselves."
 47: 0x0149 [0x23] WAIT_FOR_DIALOG_INTERACTION
 48: 0x014A [0x03] Work_Zone[1] = 1073741824*

SUBROUTINE_014F:
 49: 0x014F [0x21] END_EVENT
 50: 0x0150 [0x00] END_REQSTACK()

SUBROUTINE_0159:
 51: 0x0159 [0x21] END_EVENT
 52: 0x015A [0x00] END_REQSTACK()
```

#### Data or dead code:

```
# Dead code (unreachable instructions):
     0x0090 [0x01] GOTO 0x00EE
     0x00AC [0x01] GOTO 0x00EE
     0x00C8 [0x01] GOTO 0x00EE
     0x00E4 [0x01] GOTO 0x00EE
# Dead code (unreachable instructions):
     0x0151 [0x01] GOTO 0x0159
```

### Event 7

#### Metadata

| Field        | Value    |
|--------------|----------|
| Entrypoint   | 0x015B   |
| Data Size    | 16 bytes |
| Instructions | 6        |

```
      00 01 02 03 04 05 06 07  08 09 0A 0B 0C 0D 0E 0F
      -- -- -- -- -- -- -- --  -- -- -- -- -- -- -- --
0150:                                   03 09 10 14 80             .....
0160: 1E F0 FF FF 7F 1D 18 80  23 21 00                 ........#!.     
```

#### Opcodes

```
  0: 0x015B [0x03] Work_Zone[9] = 138*
  1: 0x0160 [0x1E] EventEntity looks at LocalPlayer and starts talking
  2: 0x0165 [0x1D] PRINT_EVENT_MESSAGE(message_id=11247*)
    → "Only those fulfilling both requirements set forth by the alliance may ride a chocobo. First, you must be a soldier of a respectable level in the Allied Forces. Secondly, you must be in possession of $6."
  3: 0x0168 [0x23] WAIT_FOR_DIALOG_INTERACTION
  4: 0x0169 [0x21] END_EVENT
  5: 0x016A [0x00] END_REQSTACK()
```

### Event 8

#### Metadata

| Field        | Value    |
|--------------|----------|
| Entrypoint   | 0x016B   |
| Data Size    | 17 bytes |
| Instructions | 7        |

```
      00 01 02 03 04 05 06 07  08 09 0A 0B 0C 0D 0E 0F
      -- -- -- -- -- -- -- --  -- -- -- -- -- -- -- --
0160:                                   1E F0 FF FF 7F             .....
0170: 6F 76 F8 FF FF 7F 1D 19  80 23 21 00              ov.......#!.    
```

#### Opcodes

```
  0: 0x016B [0x1E] EventEntity looks at LocalPlayer and starts talking
  1: 0x0170 [0x6F] WAIT_FRAME_DELAY: Yield until WaitTime reaches zero
  2: 0x0171 [0x76] CHECK_ENTITY_RENDER_FLAGS: Wait until EventEntity Render.Flags0 and Render.Flags3 conditions are met
  3: 0x0176 [0x1D] PRINT_EVENT_MESSAGE(message_id=12075*)
    → "I'm terribly sorry, but chocobo services are currently unavailable."
  4: 0x0179 [0x23] WAIT_FOR_DIALOG_INTERACTION
  5: 0x017A [0x21] END_EVENT
  6: 0x017B [0x00] END_REQSTACK()
```
