# 17134254

## Common Data

| Field            | Value                       |
|------------------|-----------------------------|
| Zone             | Bastok Markets [S] (ID: 87) |
| Block Size       | 528 bytes                   |
| Total Events     | 18                          |
| References Count | 24                          |

## List of Events

| Event ID                   | Entrypoint   |   Size |   Instructions |
|----------------------------|--------------|--------|----------------|
| [65535](#event-65535)      | 0x0000       |      1 |              1 |
| [175](#event-175)          | 0x0001       |      1 |              1 |
| [176](#event-176)          | 0x0002       |      1 |              1 |
| [65535.1](#event-655351)   | 0x0003       |     42 |              5 |
| [65535.2](#event-655352)   | 0x002D       |     15 |              3 |
| [65535.3](#event-655353)   | 0x003C       |     16 |              4 |
| [65535.4](#event-655354)   | 0x004C       |     16 |              4 |
| [65535.5](#event-655355)   | 0x005C       |     17 |              4 |
| [65535.6](#event-655356)   | 0x006D       |     20 |              5 |
| [65535.7](#event-655357)   | 0x0081       |     30 |              6 |
| [65535.8](#event-655358)   | 0x009F       |     16 |              4 |
| [65535.9](#event-655359)   | 0x00AF       |     19 |              5 |
| [65535.10](#event-6553510) | 0x00C2       |     47 |             10 |
| [65535.11](#event-6553511) | 0x00F1       |     16 |              4 |
| [65535.12](#event-6553512) | 0x0101       |     16 |              4 |
| [65535.13](#event-6553513) | 0x0111       |     17 |              4 |
| [65535.14](#event-6553514) | 0x0122       |     32 |              7 |
| [65535.15](#event-6553515) | 0x0142       |     19 |              3 |

## DAT References (imed_data)

|   Index | Hex Value   |   Dec Value |
|---------|-------------|-------------|
|       0 | 0x0002      |           2 |
|       1 | 0x0032      |          50 |
|       2 | 0x000A      |          10 |
|       3 | 0x0078      |         120 |
|       4 | 0x0025      |          37 |
|       5 | 0x0096      |         150 |
|       6 | 0x001E      |          30 |
|       7 | 0x00A0      |         160 |
|       8 | 0xFFFFFE70  |  4294966896 |
|       9 | 0xFFFFFED4  |  4294966996 |
|      10 | 0x0050      |          80 |
|      11 | 0x0007      |           7 |
|      12 | 0x0082      |         130 |
|      13 | 0x003C      |          60 |
|      14 | 0x0000      |           0 |
|      15 | 0x0041      |          65 |
|      16 | 0x0ED8      |        3800 |
|      17 | 0x000F      |          15 |
|      18 | 0x0E74      |        3700 |
|      19 | 0x0004      |           4 |
|      20 | 0x00AA      |         170 |
|      21 | 0x00D2      |         210 |
|      22 | 0x0024      |          36 |
|      23 | 0x0088      |         136 |

## Events

### Event 65535

#### Metadata

| Field        | Value   |
|--------------|---------|
| Entrypoint   | 0x0000  |
| Data Size    | 1 bytes |
| Instructions | 1       |

```
      00 01 02 03 04 05 06 07  08 09 0A 0B 0C 0D 0E 0F
      -- -- -- -- -- -- -- --  -- -- -- -- -- -- -- --
0000: 00                                                .               
```

#### Opcodes

```
  0: 0x0000 [0x00] END_REQSTACK()
```

### Event 175

#### Metadata

| Field        | Value   |
|--------------|---------|
| Entrypoint   | 0x0001  |
| Data Size    | 1 bytes |
| Instructions | 1       |

```
      00 01 02 03 04 05 06 07  08 09 0A 0B 0C 0D 0E 0F
      -- -- -- -- -- -- -- --  -- -- -- -- -- -- -- --
0000:    00                                              .              
```

#### Opcodes

```
  0: 0x0001 [0x00] END_REQSTACK()
```

### Event 176

#### Metadata

| Field        | Value   |
|--------------|---------|
| Entrypoint   | 0x0002  |
| Data Size    | 1 bytes |
| Instructions | 1       |

```
      00 01 02 03 04 05 06 07  08 09 0A 0B 0C 0D 0E 0F
      -- -- -- -- -- -- -- --  -- -- -- -- -- -- -- --
0000:       00                                            .             
```

#### Opcodes

```
  0: 0x0002 [0x00] END_REQSTACK()
```

### Event 65535.1

#### Metadata

| Field        | Value    |
|--------------|----------|
| Entrypoint   | 0x0003   |
| Data Size    | 42 bytes |
| Instructions | 5        |

```
      00 01 02 03 04 05 06 07  08 09 0A 0B 0C 0D 0E 0F
      -- -- -- -- -- -- -- --  -- -- -- -- -- -- -- --
0000:          66 00 80 A3 72  05 01 A3 72 05 01 6B 73     f...r...r..ks
0010: 6B 30 53 A3 72 05 01 A3  72 05 01 6B 73 6B 30 79  k0S.r...r..ksk0y
0020: 00 A3 72 05 01 A5 72 05  01 1C 01 80 00           ..r...r......   
```

#### Opcodes

```
  0: 0x0003 [0x66] LOAD_EXT_SCHEDULER_MAIN: Load scheduler "ksk0" with entities [Radford (ID: 17134243/0x010572A3), Radford (ID: 17134243/0x010572A3)], work=2*
  1: 0x0012 [0x53] WAIT_SCHEDULER_TASK: Wait for scheduler "ksk0" with entities [Radford (ID: 17134243/0x010572A3), Radford (ID: 17134243/0x010572A3)]
  2: 0x001F [0x79] Radford (ID: 17134243/0x010572A3) looks at Lilisette (ID: 17134245/0x010572A5) (Basic look)
  3: 0x0029 [0x1C] WAIT(50* ticks)
  4: 0x002C [0x00] END_REQSTACK()
```

### Event 65535.2

#### Metadata

| Field        | Value    |
|--------------|----------|
| Entrypoint   | 0x002D   |
| Data Size    | 15 bytes |
| Instructions | 3        |

```
      00 01 02 03 04 05 06 07  08 09 0A 0B 0C 0D 0E 0F
      -- -- -- -- -- -- -- --  -- -- -- -- -- -- -- --
0020:                                         29 10 A3               )..
0030: 72 05 01 0A 27 0F 42 72  05 01 04 00              r...'.Br....    
```

#### Opcodes

```
  0: 0x002D [0x29] REQ_SET_WAIT(priority=0x10, entity_id=Radford (ID: 17134243/0x010572A3), tag_num=0x0A)
  1: 0x0034 [0x27] REQ_SET(priority=0x0F, entity_id=Unnamed NPC (ID: 17134146/0x01057242), tag_num=0x04)
  2: 0x003B [0x00] END_REQSTACK()
```

### Event 65535.3

#### Metadata

| Field        | Value    |
|--------------|----------|
| Entrypoint   | 0x003C   |
| Data Size    | 16 bytes |
| Instructions | 4        |

```
      00 01 02 03 04 05 06 07  08 09 0A 0B 0C 0D 0E 0F
      -- -- -- -- -- -- -- --  -- -- -- -- -- -- -- --
0030:                                      6E F1 71 05              n.q.
0040: 01 02 80 99 F1 71 05 01  1C 03 80 00              .....q......    
```

#### Opcodes

```
  0: 0x003C [0x6E] Prien (ID: 17134065/0x010571F1) uses emote 10*
  1: 0x0043 [0x99] Wait for Prien (ID: 17134065/0x010571F1) animation to complete
  2: 0x0048 [0x1C] WAIT(120* ticks)
  3: 0x004B [0x00] END_REQSTACK()
```

### Event 65535.4

#### Metadata

| Field        | Value    |
|--------------|----------|
| Entrypoint   | 0x004C   |
| Data Size    | 16 bytes |
| Instructions | 4        |

```
      00 01 02 03 04 05 06 07  08 09 0A 0B 0C 0D 0E 0F
      -- -- -- -- -- -- -- --  -- -- -- -- -- -- -- --
0040:                                      6E F1 71 05              n.q.
0050: 01 04 80 99 F1 71 05 01  1C 05 80 00              .....q......    
```

#### Opcodes

```
  0: 0x004C [0x6E] Prien (ID: 17134065/0x010571F1) uses emote 37*
  1: 0x0053 [0x99] Wait for Prien (ID: 17134065/0x010571F1) animation to complete
  2: 0x0058 [0x1C] WAIT(150* ticks)
  3: 0x005B [0x00] END_REQSTACK()
```

### Event 65535.5

#### Metadata

| Field        | Value    |
|--------------|----------|
| Entrypoint   | 0x005C   |
| Data Size    | 17 bytes |
| Instructions | 4        |

```
      00 01 02 03 04 05 06 07  08 09 0A 0B 0C 0D 0E 0F
      -- -- -- -- -- -- -- --  -- -- -- -- -- -- -- --
0050:                                      1C 06 80 79              ...y
0060: 00 F1 71 05 01 A9 72 05  01 1C 01 80 00           ..q...r......   
```

#### Opcodes

```
  0: 0x005C [0x1C] WAIT(30* ticks)
  1: 0x005F [0x79] Prien (ID: 17134065/0x010571F1) looks at Ludwig Eichberg (ID: 17134249/0x010572A9) (Basic look)
  2: 0x0069 [0x1C] WAIT(50* ticks)
  3: 0x006C [0x00] END_REQSTACK()
```

### Event 65535.6

#### Metadata

| Field        | Value    |
|--------------|----------|
| Entrypoint   | 0x006D   |
| Data Size    | 20 bytes |
| Instructions | 5        |

```
      00 01 02 03 04 05 06 07  08 09 0A 0B 0C 0D 0E 0F
      -- -- -- -- -- -- -- --  -- -- -- -- -- -- -- --
0060:                                         1C 01 80               ...
0070: 79 00 A9 72 05 01 A7 72  05 01 1C 01 80 1C 03 80  y..r...r........
0080: 00                                                .               
```

#### Opcodes

```
  0: 0x006D [0x1C] WAIT(50* ticks)
  1: 0x0070 [0x79] Ludwig Eichberg (ID: 17134249/0x010572A9) looks at Maximilian Berger (ID: 17134247/0x010572A7) (Basic look)
  2: 0x007A [0x1C] WAIT(50* ticks)
  3: 0x007D [0x1C] WAIT(120* ticks)
  4: 0x0080 [0x00] END_REQSTACK()
```

### Event 65535.7

#### Metadata

| Field        | Value    |
|--------------|----------|
| Entrypoint   | 0x0081   |
| Data Size    | 30 bytes |
| Instructions | 6        |

```
      00 01 02 03 04 05 06 07  08 09 0A 0B 0C 0D 0E 0F
      -- -- -- -- -- -- -- --  -- -- -- -- -- -- -- --
0080:    1C 01 80 79 00 F1 71  05 01 AB 72 05 01 1C 07   ...y..q...r....
0090: 80 79 02 AB 72 05 01 08  80 09 80 1C 0A 80 00     .y..r.......... 
```

#### Opcodes

```
  0: 0x0081 [0x1C] WAIT(50* ticks)
  1: 0x0084 [0x79] Prien (ID: 17134065/0x010571F1) looks at Invincible Shield (ID: 17134251/0x010572AB) (Basic look)
  2: 0x008E [0x1C] WAIT(160* ticks)
  3: 0x0091 [0x79] Invincible Shield (ID: 17134251/0x010572AB) looks at Unknown NPC (ID: 2148106248/0x80098008) (Direct axis set)
  4: 0x009B [0x1C] WAIT(80* ticks)
  5: 0x009E [0x00] END_REQSTACK()
```

### Event 65535.8

#### Metadata

| Field        | Value    |
|--------------|----------|
| Entrypoint   | 0x009F   |
| Data Size    | 16 bytes |
| Instructions | 4        |

```
      00 01 02 03 04 05 06 07  08 09 0A 0B 0C 0D 0E 0F
      -- -- -- -- -- -- -- --  -- -- -- -- -- -- -- --
0090:                                               6E                 n
00A0: A6 72 05 01 0B 80 99 A6  72 05 01 1C 0C 80 00     .r......r...... 
```

#### Opcodes

```
  0: 0x009F [0x6E] Halver M Borel (ID: 17134246/0x010572A6) uses emote 7*
  1: 0x00A6 [0x99] Wait for Halver M Borel (ID: 17134246/0x010572A6) animation to complete
  2: 0x00AB [0x1C] WAIT(130* ticks)
  3: 0x00AE [0x00] END_REQSTACK()
```

### Event 65535.9

#### Metadata

| Field        | Value    |
|--------------|----------|
| Entrypoint   | 0x00AF   |
| Data Size    | 19 bytes |
| Instructions | 5        |

```
      00 01 02 03 04 05 06 07  08 09 0A 0B 0C 0D 0E 0F
      -- -- -- -- -- -- -- --  -- -- -- -- -- -- -- --
00A0:                                               1C                 .
00B0: 0D 80 6E A7 72 05 01 0E  80 99 A7 72 05 01 1C 0C  ..n.r......r....
00C0: 80 00                                             ..              
```

#### Opcodes

```
  0: 0x00AF [0x1C] WAIT(60* ticks)
  1: 0x00B2 [0x6E] Maximilian Berger (ID: 17134247/0x010572A7) uses emote 0*
  2: 0x00B9 [0x99] Wait for Maximilian Berger (ID: 17134247/0x010572A7) animation to complete
  3: 0x00BE [0x1C] WAIT(130* ticks)
  4: 0x00C1 [0x00] END_REQSTACK()
```

### Event 65535.10

#### Metadata

| Field        | Value    |
|--------------|----------|
| Entrypoint   | 0x00C2   |
| Data Size    | 47 bytes |
| Instructions | 10       |

```
      00 01 02 03 04 05 06 07  08 09 0A 0B 0C 0D 0E 0F
      -- -- -- -- -- -- -- --  -- -- -- -- -- -- -- --
00C0:       27 10 AC 72 05 01  0C 1C 0F 80 4B A6 72 05    '..r......K.r.
00D0: 01 10 80 1C 11 80 4B F0  FF FF 7F 12 80 1C 02 80  ......K.........
00E0: 4B A5 72 05 01 10 80 1C  06 80 2A 10 AC 72 05 01  K.r.......*..r..
00F0: 00                                                .               
```

#### Opcodes

```
  0: 0x00C2 [0x27] REQ_SET(priority=0x10, entity_id=Zazarg (ID: 17134252/0x010572AC), tag_num=0x0C)
  1: 0x00C9 [0x1C] WAIT(65* ticks)
  2: 0x00CC [0x4B] UPDATE_ENTITY_YAW(entity=Halver M Borel (ID: 17134246/0x010572A6), yaw=20.9°*)
  3: 0x00D3 [0x1C] WAIT(15* ticks)
  4: 0x00D6 [0x4B] UPDATE_ENTITY_YAW(entity=LocalPlayer, yaw=20.3°*)
  5: 0x00DD [0x1C] WAIT(10* ticks)
  6: 0x00E0 [0x4B] UPDATE_ENTITY_YAW(entity=Lilisette (ID: 17134245/0x010572A5), yaw=20.9°*)
  7: 0x00E7 [0x1C] WAIT(30* ticks)
  8: 0x00EA [0x2A] GET_REQ_LEVEL(level=16, entity_id=Zazarg (ID: 17134252/0x010572AC))
  9: 0x00F0 [0x00] END_REQSTACK()
```

### Event 65535.11

#### Metadata

| Field        | Value    |
|--------------|----------|
| Entrypoint   | 0x00F1   |
| Data Size    | 16 bytes |
| Instructions | 4        |

```
      00 01 02 03 04 05 06 07  08 09 0A 0B 0C 0D 0E 0F
      -- -- -- -- -- -- -- --  -- -- -- -- -- -- -- --
00F0:    6E A7 72 05 01 0E 80  99 A7 72 05 01 1C 0C 80   n.r......r.....
0100: 00                                                .               
```

#### Opcodes

```
  0: 0x00F1 [0x6E] Maximilian Berger (ID: 17134247/0x010572A7) uses emote 0*
  1: 0x00F8 [0x99] Wait for Maximilian Berger (ID: 17134247/0x010572A7) animation to complete
  2: 0x00FD [0x1C] WAIT(130* ticks)
  3: 0x0100 [0x00] END_REQSTACK()
```

### Event 65535.12

#### Metadata

| Field        | Value    |
|--------------|----------|
| Entrypoint   | 0x0101   |
| Data Size    | 16 bytes |
| Instructions | 4        |

```
      00 01 02 03 04 05 06 07  08 09 0A 0B 0C 0D 0E 0F
      -- -- -- -- -- -- -- --  -- -- -- -- -- -- -- --
0100:    6E AC 72 05 01 13 80  99 AC 72 05 01 1C 14 80   n.r......r.....
0110: 00                                                .               
```

#### Opcodes

```
  0: 0x0101 [0x6E] Zazarg (ID: 17134252/0x010572AC) uses emote 4*
  1: 0x0108 [0x99] Wait for Zazarg (ID: 17134252/0x010572AC) animation to complete
  2: 0x010D [0x1C] WAIT(170* ticks)
  3: 0x0110 [0x00] END_REQSTACK()
```

### Event 65535.13

#### Metadata

| Field        | Value    |
|--------------|----------|
| Entrypoint   | 0x0111   |
| Data Size    | 17 bytes |
| Instructions | 4        |

```
      00 01 02 03 04 05 06 07  08 09 0A 0B 0C 0D 0E 0F
      -- -- -- -- -- -- -- --  -- -- -- -- -- -- -- --
0110:    1C 01 80 79 00 AC 72  05 01 AB 72 05 01 1C 15   ...y..r...r....
0120: 80 00                                             ..              
```

#### Opcodes

```
  0: 0x0111 [0x1C] WAIT(50* ticks)
  1: 0x0114 [0x79] Zazarg (ID: 17134252/0x010572AC) looks at Invincible Shield (ID: 17134251/0x010572AB) (Basic look)
  2: 0x011E [0x1C] WAIT(210* ticks)
  3: 0x0121 [0x00] END_REQSTACK()
```

### Event 65535.14

#### Metadata

| Field        | Value    |
|--------------|----------|
| Entrypoint   | 0x0122   |
| Data Size    | 32 bytes |
| Instructions | 7        |

```
      00 01 02 03 04 05 06 07  08 09 0A 0B 0C 0D 0E 0F
      -- -- -- -- -- -- -- --  -- -- -- -- -- -- -- --
0120:       1C 01 80 79 00 AC  72 05 01 F0 FF FF 7F 1C    ...y..r.......
0130: 05 80 6E F0 FF FF 7F 16  80 99 F0 FF FF 7F 1C 03  ..n.............
0140: 80 00                                             ..              
```

#### Opcodes

```
  0: 0x0122 [0x1C] WAIT(50* ticks)
  1: 0x0125 [0x79] Zazarg (ID: 17134252/0x010572AC) looks at LocalPlayer (Basic look)
  2: 0x012F [0x1C] WAIT(150* ticks)
  3: 0x0132 [0x6E] LocalPlayer uses emote 36*
  4: 0x0139 [0x99] Wait for LocalPlayer animation to complete
  5: 0x013E [0x1C] WAIT(120* ticks)
  6: 0x0141 [0x00] END_REQSTACK()
```

### Event 65535.15

#### Metadata

| Field        | Value    |
|--------------|----------|
| Entrypoint   | 0x0142   |
| Data Size    | 19 bytes |
| Instructions | 3        |

```
      00 01 02 03 04 05 06 07  08 09 0A 0B 0C 0D 0E 0F
      -- -- -- -- -- -- -- --  -- -- -- -- -- -- -- --
0140:       66 17 80 AC 72 05  01 AC 72 05 01 67 61 74    f...r...r..gat
0150: 30 1C 03 80 00                                    0....           
```

#### Opcodes

```
  0: 0x0142 [0x66] LOAD_EXT_SCHEDULER_MAIN: Load scheduler "gat0" with entities [Zazarg (ID: 17134252/0x010572AC), Zazarg (ID: 17134252/0x010572AC)], work=136*
  1: 0x0151 [0x1C] WAIT(120* ticks)
  2: 0x0154 [0x00] END_REQSTACK()
```
