# 17134217 - Geldav

## Common Data

| Field            | Value                       |
|------------------|-----------------------------|
| Zone             | Bastok Markets [S] (ID: 87) |
| Block Size       | 292 bytes                   |
| Total Events     | 8                           |
| References Count | 26                          |

## List of Events

| Event ID                 | Entrypoint   |   Size |   Instructions |
|--------------------------|--------------|--------|----------------|
| [65535](#event-65535)    | 0x0000       |      1 |              1 |
| [62](#event-62)          | 0x0001       |      7 |              2 |
| [78](#event-78)          | 0x0008       |      7 |              2 |
| [65535.1](#event-655351) | 0x000F       |     64 |             14 |
| [65535.2](#event-655352) | 0x004F       |     21 |              5 |
| [65535.3](#event-655353) | 0x0064       |     19 |              5 |
| [347](#event-347)        | 0x0077       |      1 |              1 |
| [65535.4](#event-655354) | 0x0078       |     19 |              5 |

## DAT References (imed_data)

|   Index | Hex Value   |   Dec Value |
|---------|-------------|-------------|
|       0 | 0x0028      |          40 |
|       1 | 0xFFFC35CA  |  4294718922 |
|       2 | 0x78E1      |       30945 |
|       3 | 0xFFFFF2BA  |  4294963898 |
|       4 | 0xFFFC289C  |  4294715548 |
|       5 | 0x7E35      |       32309 |
|       6 | 0xFFFFF510  |  4294964496 |
|       7 | 0xFFFC1D18  |  4294712600 |
|       8 | 0x87F0      |       34800 |
|       9 | 0xFFFFF830  |  4294965296 |
|      10 | 0xFFFC19E9  |  4294711785 |
|      11 | 0x9F57      |       40791 |
|      12 | 0xFFFFFC18  |  4294966296 |
|      13 | 0xFFFC245A  |  4294714458 |
|      14 | 0xBDA4      |       48548 |
|      15 | 0xFFFC39B7  |  4294719927 |
|      16 | 0xDA5D      |       55901 |
|      17 | 0xFFFC9411  |  4294743057 |
|      18 | 0xF9CA      |       63946 |
|      19 | 0xFFFFF831  |  4294965297 |
|      20 | 0x0B6B      |        2923 |
|      21 | 0x000D      |          13 |
|      22 | 0xFFFC8F6F  |  4294741871 |
|      23 | 0xF388      |       62344 |
|      24 | 0x00B4      |         180 |
|      25 | 0x000C      |          12 |

## Events

### Event 65535

#### Metadata

| Field        | Value   |
|--------------|---------|
| Entrypoint   | 0x0000  |
| Data Size    | 1 bytes |
| Instructions | 1       |

```
      00 01 02 03 04 05 06 07  08 09 0A 0B 0C 0D 0E 0F
      -- -- -- -- -- -- -- --  -- -- -- -- -- -- -- --
0000: 00                                                .               
```

#### Opcodes

```
  0: 0x0000 [0x00] END_REQSTACK()
```

### Event 62

#### Metadata

| Field        | Value   |
|--------------|---------|
| Entrypoint   | 0x0001  |
| Data Size    | 7 bytes |
| Instructions | 2       |

```
      00 01 02 03 04 05 06 07  08 09 0A 0B 0C 0D 0E 0F
      -- -- -- -- -- -- -- --  -- -- -- -- -- -- -- --
0000:    92 01 F8 FF FF 7F 00                            .......        
```

#### Opcodes

```
  0: 0x0001 [0x92] EventEntity->Render.Flags3 ^= 0x01
  1: 0x0007 [0x00] END_REQSTACK()
```

### Event 78

#### Metadata

| Field        | Value   |
|--------------|---------|
| Entrypoint   | 0x0008  |
| Data Size    | 7 bytes |
| Instructions | 2       |

```
      00 01 02 03 04 05 06 07  08 09 0A 0B 0C 0D 0E 0F
      -- -- -- -- -- -- -- --  -- -- -- -- -- -- -- --
0000:                          92 01 F8 FF FF 7F 00             ....... 
```

#### Opcodes

```
  0: 0x0008 [0x92] EventEntity->Render.Flags3 ^= 0x01
  1: 0x000E [0x00] END_REQSTACK()
```

### Event 65535.1

#### Metadata

| Field        | Value    |
|--------------|----------|
| Entrypoint   | 0x000F   |
| Data Size    | 64 bytes |
| Instructions | 14       |

```
      00 01 02 03 04 05 06 07  08 09 0A 0B 0C 0D 0E 0F
      -- -- -- -- -- -- -- --  -- -- -- -- -- -- -- --
0000:                                               32                 2
0010: 00 80 1F 00 01 80 02 80  03 80 1F 01 1F 00 04 80  ................
0020: 05 80 06 80 1F 01 1F 00  07 80 08 80 09 80 1F 01  ................
0030: 1F 00 0A 80 0B 80 0C 80  1F 01 1F 00 0D 80 0E 80  ................
0040: 0C 80 1F 01 1F 00 0F 80  10 80 0C 80 1F 01 00     ............... 
```

#### Opcodes

```
  0: 0x000F [0x32] ExtData[1]->MainSpeed = 40* * 0.1
  1: 0x0012 [0x1F] MOVE_ENTITY: EventEntity moves to X=-248.374*, Z=30.945*, Y=-3.398*
  2: 0x001A [0x1F] MOVE_ENTITY: Update entity position (mode=1)
  3: 0x001C [0x1F] MOVE_ENTITY: EventEntity moves to X=-251.748*, Z=32.309*, Y=-2.800*
  4: 0x0024 [0x1F] MOVE_ENTITY: Update entity position (mode=1)
  5: 0x0026 [0x1F] MOVE_ENTITY: EventEntity moves to X=-254.696*, Z=34.800*, Y=-2.000*
  6: 0x002E [0x1F] MOVE_ENTITY: Update entity position (mode=1)
  7: 0x0030 [0x1F] MOVE_ENTITY: EventEntity moves to X=-255.511*, Z=40.791*, Y=-1.000*
  8: 0x0038 [0x1F] MOVE_ENTITY: Update entity position (mode=1)
  9: 0x003A [0x1F] MOVE_ENTITY: EventEntity moves to X=-252.838*, Z=48.548*, Y=-1.000*
 10: 0x0042 [0x1F] MOVE_ENTITY: Update entity position (mode=1)
 11: 0x0044 [0x1F] MOVE_ENTITY: EventEntity moves to X=-247.369*, Z=55.901*, Y=-1.000*
 12: 0x004C [0x1F] MOVE_ENTITY: Update entity position (mode=1)
 13: 0x004E [0x00] END_REQSTACK()
```

### Event 65535.2

#### Metadata

| Field        | Value    |
|--------------|----------|
| Entrypoint   | 0x004F   |
| Data Size    | 21 bytes |
| Instructions | 5        |

```
      00 01 02 03 04 05 06 07  08 09 0A 0B 0C 0D 0E 0F
      -- -- -- -- -- -- -- --  -- -- -- -- -- -- -- --
0040:                                               32                 2
0050: 00 80 1F 00 11 80 12 80  13 80 1F 01 4B F8 FF FF  ............K...
0060: 7F 14 80 00                                       ....            
```

#### Opcodes

```
  0: 0x004F [0x32] ExtData[1]->MainSpeed = 40* * 0.1
  1: 0x0052 [0x1F] MOVE_ENTITY: EventEntity moves to X=-224.239*, Z=63.946*, Y=-1.999*
  2: 0x005A [0x1F] MOVE_ENTITY: Update entity position (mode=1)
  3: 0x005C [0x4B] UPDATE_ENTITY_YAW(entity=EventEntity, yaw=16.1°*)
  4: 0x0063 [0x00] END_REQSTACK()
```

### Event 65535.3

#### Metadata

| Field        | Value    |
|--------------|----------|
| Entrypoint   | 0x0064   |
| Data Size    | 19 bytes |
| Instructions | 5        |

```
      00 01 02 03 04 05 06 07  08 09 0A 0B 0C 0D 0E 0F
      -- -- -- -- -- -- -- --  -- -- -- -- -- -- -- --
0060:             32 15 80 1F  00 16 80 17 80 09 80 1F      2...........
0070: 01 1E F5 71 05 01 00                              ...q...         
```

#### Opcodes

```
  0: 0x0064 [0x32] ExtData[1]->MainSpeed = 13* * 0.1
  1: 0x0067 [0x1F] MOVE_ENTITY: EventEntity moves to X=-225.425*, Z=62.344*, Y=-2.000*
  2: 0x006F [0x1F] MOVE_ENTITY: Update entity position (mode=1)
  3: 0x0071 [0x1E] EventEntity looks at Dieter (ID: 17134069/0x010571F5) and starts talking
  4: 0x0076 [0x00] END_REQSTACK()
```

### Event 347

#### Metadata

| Field        | Value   |
|--------------|---------|
| Entrypoint   | 0x0077  |
| Data Size    | 1 bytes |
| Instructions | 1       |

```
      00 01 02 03 04 05 06 07  08 09 0A 0B 0C 0D 0E 0F
      -- -- -- -- -- -- -- --  -- -- -- -- -- -- -- --
0070:                      00                                  .        
```

#### Opcodes

```
  0: 0x0077 [0x00] END_REQSTACK()
```

### Event 65535.4

#### Metadata

| Field        | Value    |
|--------------|----------|
| Entrypoint   | 0x0078   |
| Data Size    | 19 bytes |
| Instructions | 4        |

```
      00 01 02 03 04 05 06 07  08 09 0A 0B 0C 0D 0E 0F
      -- -- -- -- -- -- -- --  -- -- -- -- -- -- -- --
0070:                          1C 18 80 6E 89 72 05 01          ...n.r..
0080: 19 80 99 89 72 05 01 01  78 00 00                 ....r...x..     
```

#### Opcodes

```
  0: 0x0078 [0x1C] WAIT(180* ticks)
  1: 0x007B [0x6E] Geldav (ID: 17134217/0x01057289) uses emote 12*
  2: 0x0082 [0x99] Wait for Geldav (ID: 17134217/0x01057289) animation to complete
  3: 0x0087 [0x01] GOTO 0x0078
```

#### Data or dead code:

```
# Dead code (unreachable instructions):
     0x008A [0x00] END_REQSTACK()
```
