# 17134130

## Common Data

| Field            | Value                       |
|------------------|-----------------------------|
| Zone             | Bastok Markets [S] (ID: 87) |
| Block Size       | 500 bytes                   |
| Total Events     | 22                          |
| References Count | 16                          |

## List of Events

| Event ID                   | Entrypoint   |   Size |   Instructions |
|----------------------------|--------------|--------|----------------|
| [65535](#event-65535)      | 0x0000       |      1 |              1 |
| [65535.1](#event-655351)   | 0x0001       |      1 |              1 |
| [65535.2](#event-655352)   | 0x0002       |     18 |              4 |
| [65535.3](#event-655353)   | 0x0014       |     10 |              2 |
| [65535.4](#event-655354)   | 0x001E       |      9 |              3 |
| [65535.5](#event-655355)   | 0x0027       |      9 |              3 |
| [65535.6](#event-655356)   | 0x0030       |     10 |              2 |
| [65535.7](#event-655357)   | 0x003A       |     10 |              2 |
| [180](#event-180)          | 0x0044       |      1 |              1 |
| [181](#event-181)          | 0x0045       |      1 |              1 |
| [182](#event-182)          | 0x0046       |      1 |              1 |
| [65535.8](#event-655358)   | 0x0047       |     17 |              4 |
| [65535.9](#event-655359)   | 0x0058       |     14 |              3 |
| [65535.10](#event-6553510) | 0x0066       |     14 |              3 |
| [65535.11](#event-6553511) | 0x0074       |     14 |              3 |
| [65535.12](#event-6553512) | 0x0082       |     46 |              9 |
| [65535.13](#event-6553513) | 0x00B0       |     16 |              4 |
| [65535.14](#event-6553514) | 0x00C0       |     30 |              6 |
| [65535.15](#event-6553515) | 0x00DE       |     13 |              3 |
| [65535.16](#event-6553516) | 0x00EB       |     16 |              4 |
| [65535.17](#event-6553517) | 0x00FB       |     38 |              5 |
| [65535.18](#event-6553518) | 0x0121       |     41 |              6 |

## DAT References (imed_data)

|   Index | Hex Value   |   Dec Value |
|---------|-------------|-------------|
|       0 | 0x0000      |           0 |
|       1 | 0x0001      |           1 |
|       2 | 0x0080      |         128 |
|       3 | 0x0050      |          80 |
|       4 | 0x0064      |         100 |
|       5 | 0xFFFFFF7E  |  4294967166 |
|       6 | 0x000A      |          10 |
|       7 | 0x0005      |           5 |
|       8 | 0x0008      |           8 |
|       9 | 0x0032      |          50 |
|      10 | 0x0007      |           7 |
|      11 | 0x0096      |         150 |
|      12 | 0x003C      |          60 |
|      13 | 0x0102      |         258 |
|      14 | 0x0015      |          21 |
|      15 | 0x006E      |         110 |

## Events

### Event 65535

#### Metadata

| Field        | Value   |
|--------------|---------|
| Entrypoint   | 0x0000  |
| Data Size    | 1 bytes |
| Instructions | 1       |

```
      00 01 02 03 04 05 06 07  08 09 0A 0B 0C 0D 0E 0F
      -- -- -- -- -- -- -- --  -- -- -- -- -- -- -- --
0000: 00                                                .               
```

#### Opcodes

```
  0: 0x0000 [0x00] END_REQSTACK()
```

### Event 65535.1

#### Metadata

| Field        | Value   |
|--------------|---------|
| Entrypoint   | 0x0001  |
| Data Size    | 1 bytes |
| Instructions | 1       |

```
      00 01 02 03 04 05 06 07  08 09 0A 0B 0C 0D 0E 0F
      -- -- -- -- -- -- -- --  -- -- -- -- -- -- -- --
0000:    00                                              .              
```

#### Opcodes

```
  0: 0x0001 [0x00] END_REQSTACK()
```

### Event 65535.2

#### Metadata

| Field        | Value    |
|--------------|----------|
| Entrypoint   | 0x0002   |
| Data Size    | 18 bytes |
| Instructions | 4        |

```
      00 01 02 03 04 05 06 07  08 09 0A 0B 0C 0D 0E 0F
      -- -- -- -- -- -- -- --  -- -- -- -- -- -- -- --
0000:       22 00 2F 00 F8 FF  FF 7F 6C F8 FF FF 7F 00    "./.....l.....
0010: 80 01 80 00                                       ....            
```

#### Opcodes

```
  0: 0x0002 [0x22] ENTITY_HIDE_FLAG(enabled=0x00)
  1: 0x0004 [0x2F] EventEntity->Render.Flags0 &= ~0x80000 // Bit 19
  2: 0x000A [0x6C] FADE_ENTITY_COLOR(entity_id=EventEntity, end_alpha=0*, fade_time=1*)
  3: 0x0013 [0x00] END_REQSTACK()
```

### Event 65535.3

#### Metadata

| Field        | Value    |
|--------------|----------|
| Entrypoint   | 0x0014   |
| Data Size    | 10 bytes |
| Instructions | 2        |

```
      00 01 02 03 04 05 06 07  08 09 0A 0B 0C 0D 0E 0F
      -- -- -- -- -- -- -- --  -- -- -- -- -- -- -- --
0010:             6C F8 FF FF  7F 02 80 01 80 00            l.........  
```

#### Opcodes

```
  0: 0x0014 [0x6C] FADE_ENTITY_COLOR(entity_id=EventEntity, end_alpha=128*, fade_time=1*)
  1: 0x001D [0x00] END_REQSTACK()
```

### Event 65535.4

#### Metadata

| Field        | Value   |
|--------------|---------|
| Entrypoint   | 0x001E  |
| Data Size    | 9 bytes |
| Instructions | 3       |

```
      00 01 02 03 04 05 06 07  08 09 0A 0B 0C 0D 0E 0F
      -- -- -- -- -- -- -- --  -- -- -- -- -- -- -- --
0010:                                            22 00                ".
0020: 2F 00 F8 FF FF 7F 00                              /......         
```

#### Opcodes

```
  0: 0x001E [0x22] ENTITY_HIDE_FLAG(enabled=0x00)
  1: 0x0020 [0x2F] EventEntity->Render.Flags0 &= ~0x80000 // Bit 19
  2: 0x0026 [0x00] END_REQSTACK()
```

### Event 65535.5

#### Metadata

| Field        | Value   |
|--------------|---------|
| Entrypoint   | 0x0027  |
| Data Size    | 9 bytes |
| Instructions | 3       |

```
      00 01 02 03 04 05 06 07  08 09 0A 0B 0C 0D 0E 0F
      -- -- -- -- -- -- -- --  -- -- -- -- -- -- -- --
0020:                      22  01 2F 01 F8 FF FF 7F 00         "./......
```

#### Opcodes

```
  0: 0x0027 [0x22] ENTITY_HIDE_FLAG(enabled=0x01)
  1: 0x0029 [0x2F] EventEntity->Render.Flags0 |= 0x80000 // Bit 19
  2: 0x002F [0x00] END_REQSTACK()
```

### Event 65535.6

#### Metadata

| Field        | Value    |
|--------------|----------|
| Entrypoint   | 0x0030   |
| Data Size    | 10 bytes |
| Instructions | 2        |

```
      00 01 02 03 04 05 06 07  08 09 0A 0B 0C 0D 0E 0F
      -- -- -- -- -- -- -- --  -- -- -- -- -- -- -- --
0030: 6C F8 FF FF 7F 00 80 01  80 00                    l.........      
```

#### Opcodes

```
  0: 0x0030 [0x6C] FADE_ENTITY_COLOR(entity_id=EventEntity, end_alpha=0*, fade_time=1*)
  1: 0x0039 [0x00] END_REQSTACK()
```

### Event 65535.7

#### Metadata

| Field        | Value    |
|--------------|----------|
| Entrypoint   | 0x003A   |
| Data Size    | 10 bytes |
| Instructions | 2        |

```
      00 01 02 03 04 05 06 07  08 09 0A 0B 0C 0D 0E 0F
      -- -- -- -- -- -- -- --  -- -- -- -- -- -- -- --
0030:                                6C F8 FF FF 7F 02            l.....
0040: 80 01 80 00                                       ....            
```

#### Opcodes

```
  0: 0x003A [0x6C] FADE_ENTITY_COLOR(entity_id=EventEntity, end_alpha=128*, fade_time=1*)
  1: 0x0043 [0x00] END_REQSTACK()
```

### Event 180

#### Metadata

| Field        | Value   |
|--------------|---------|
| Entrypoint   | 0x0044  |
| Data Size    | 1 bytes |
| Instructions | 1       |

```
      00 01 02 03 04 05 06 07  08 09 0A 0B 0C 0D 0E 0F
      -- -- -- -- -- -- -- --  -- -- -- -- -- -- -- --
0040:             00                                        .           
```

#### Opcodes

```
  0: 0x0044 [0x00] END_REQSTACK()
```

### Event 181

#### Metadata

| Field        | Value   |
|--------------|---------|
| Entrypoint   | 0x0045  |
| Data Size    | 1 bytes |
| Instructions | 1       |

```
      00 01 02 03 04 05 06 07  08 09 0A 0B 0C 0D 0E 0F
      -- -- -- -- -- -- -- --  -- -- -- -- -- -- -- --
0040:                00                                      .          
```

#### Opcodes

```
  0: 0x0045 [0x00] END_REQSTACK()
```

### Event 182

#### Metadata

| Field        | Value   |
|--------------|---------|
| Entrypoint   | 0x0046  |
| Data Size    | 1 bytes |
| Instructions | 1       |

```
      00 01 02 03 04 05 06 07  08 09 0A 0B 0C 0D 0E 0F
      -- -- -- -- -- -- -- --  -- -- -- -- -- -- -- --
0040:                   00                                    .         
```

#### Opcodes

```
  0: 0x0046 [0x00] END_REQSTACK()
```

### Event 65535.8

#### Metadata

| Field        | Value    |
|--------------|----------|
| Entrypoint   | 0x0047   |
| Data Size    | 17 bytes |
| Instructions | 4        |

```
      00 01 02 03 04 05 06 07  08 09 0A 0B 0C 0D 0E 0F
      -- -- -- -- -- -- -- --  -- -- -- -- -- -- -- --
0040:                      1C  03 80 79 00 30 72 05 01         ...y.0r..
0050: 2E 72 05 01 1C 04 80 00                           .r......        
```

#### Opcodes

```
  0: 0x0047 [0x1C] WAIT(80* ticks)
  1: 0x004A [0x79] Five Moons (ID: 17134128/0x01057230) looks at Volker (ID: 17134126/0x0105722E) (Basic look)
  2: 0x0054 [0x1C] WAIT(100* ticks)
  3: 0x0057 [0x00] END_REQSTACK()
```

### Event 65535.9

#### Metadata

| Field        | Value    |
|--------------|----------|
| Entrypoint   | 0x0058   |
| Data Size    | 14 bytes |
| Instructions | 3        |

```
      00 01 02 03 04 05 06 07  08 09 0A 0B 0C 0D 0E 0F
      -- -- -- -- -- -- -- --  -- -- -- -- -- -- -- --
0050:                          79 02 30 72 05 01 05 80          y.0r....
0060: 00 80 1C 03 80 00                                 ......          
```

#### Opcodes

```
  0: 0x0058 [0x79] Five Moons (ID: 17134128/0x01057230) looks at Unknown NPC (ID: 2147516421/0x80008005) (Direct axis set)
  1: 0x0062 [0x1C] WAIT(80* ticks)
  2: 0x0065 [0x00] END_REQSTACK()
```

### Event 65535.10

#### Metadata

| Field        | Value    |
|--------------|----------|
| Entrypoint   | 0x0066   |
| Data Size    | 14 bytes |
| Instructions | 3        |

```
      00 01 02 03 04 05 06 07  08 09 0A 0B 0C 0D 0E 0F
      -- -- -- -- -- -- -- --  -- -- -- -- -- -- -- --
0060:                   79 00  2E 72 05 01 30 72 05 01        y..r..0r..
0070: 1C 04 80 00                                       ....            
```

#### Opcodes

```
  0: 0x0066 [0x79] Volker (ID: 17134126/0x0105722E) looks at Five Moons (ID: 17134128/0x01057230) (Basic look)
  1: 0x0070 [0x1C] WAIT(100* ticks)
  2: 0x0073 [0x00] END_REQSTACK()
```

### Event 65535.11

#### Metadata

| Field        | Value    |
|--------------|----------|
| Entrypoint   | 0x0074   |
| Data Size    | 14 bytes |
| Instructions | 3        |

```
      00 01 02 03 04 05 06 07  08 09 0A 0B 0C 0D 0E 0F
      -- -- -- -- -- -- -- --  -- -- -- -- -- -- -- --
0070:             79 00 30 72  05 01 2E 72 05 01 1C 04      y.0r...r....
0080: 80 00                                             ..              
```

#### Opcodes

```
  0: 0x0074 [0x79] Five Moons (ID: 17134128/0x01057230) looks at Volker (ID: 17134126/0x0105722E) (Basic look)
  1: 0x007E [0x1C] WAIT(100* ticks)
  2: 0x0081 [0x00] END_REQSTACK()
```

### Event 65535.12

#### Metadata

| Field        | Value    |
|--------------|----------|
| Entrypoint   | 0x0082   |
| Data Size    | 46 bytes |
| Instructions | 9        |

```
      00 01 02 03 04 05 06 07  08 09 0A 0B 0C 0D 0E 0F
      -- -- -- -- -- -- -- --  -- -- -- -- -- -- -- --
0080:       79 00 2F 72 05 01  2C 72 05 01 1C 06 80 1C    y./r..,r......
0090: 07 80 79 00 F0 FF FF 7F  2C 72 05 01 1C 07 80 79  ..y.....,r.....y
00A0: 00 2D 72 05 01 2C 72 05  01 1C 08 80 1C 09 80 00  .-r..,r.........
```

#### Opcodes

```
  0: 0x0082 [0x79] Nicolaus (ID: 17134127/0x0105722F) looks at Klara (ID: 17134124/0x0105722C) (Basic look)
  1: 0x008C [0x1C] WAIT(10* ticks)
  2: 0x008F [0x1C] WAIT(5* ticks)
  3: 0x0092 [0x79] LocalPlayer looks at Klara (ID: 17134124/0x0105722C) (Basic look)
  4: 0x009C [0x1C] WAIT(5* ticks)
  5: 0x009F [0x79] Zeid (ID: 17134125/0x0105722D) looks at Klara (ID: 17134124/0x0105722C) (Basic look)
  6: 0x00A9 [0x1C] WAIT(8* ticks)
  7: 0x00AC [0x1C] WAIT(50* ticks)
  8: 0x00AF [0x00] END_REQSTACK()
```

### Event 65535.13

#### Metadata

| Field        | Value    |
|--------------|----------|
| Entrypoint   | 0x00B0   |
| Data Size    | 16 bytes |
| Instructions | 4        |

```
      00 01 02 03 04 05 06 07  08 09 0A 0B 0C 0D 0E 0F
      -- -- -- -- -- -- -- --  -- -- -- -- -- -- -- --
00B0: 6E 30 72 05 01 0A 80 99  30 72 05 01 1C 0B 80 00  n0r.....0r......
```

#### Opcodes

```
  0: 0x00B0 [0x6E] Five Moons (ID: 17134128/0x01057230) uses emote 7*
  1: 0x00B7 [0x99] Wait for Five Moons (ID: 17134128/0x01057230) animation to complete
  2: 0x00BC [0x1C] WAIT(150* ticks)
  3: 0x00BF [0x00] END_REQSTACK()
```

### Event 65535.14

#### Metadata

| Field        | Value    |
|--------------|----------|
| Entrypoint   | 0x00C0   |
| Data Size    | 30 bytes |
| Instructions | 6        |

```
      00 01 02 03 04 05 06 07  08 09 0A 0B 0C 0D 0E 0F
      -- -- -- -- -- -- -- --  -- -- -- -- -- -- -- --
00C0: 1C 0C 80 79 00 30 72 05  01 2C 72 05 01 1C 08 80  ...y.0r..,r.....
00D0: 79 00 F0 FF FF 7F 2C 72  05 01 1C 04 80 00        y.....,r......  
```

#### Opcodes

```
  0: 0x00C0 [0x1C] WAIT(60* ticks)
  1: 0x00C3 [0x79] Five Moons (ID: 17134128/0x01057230) looks at Klara (ID: 17134124/0x0105722C) (Basic look)
  2: 0x00CD [0x1C] WAIT(8* ticks)
  3: 0x00D0 [0x79] LocalPlayer looks at Klara (ID: 17134124/0x0105722C) (Basic look)
  4: 0x00DA [0x1C] WAIT(100* ticks)
  5: 0x00DD [0x00] END_REQSTACK()
```

### Event 65535.15

#### Metadata

| Field        | Value    |
|--------------|----------|
| Entrypoint   | 0x00DE   |
| Data Size    | 13 bytes |
| Instructions | 3        |

```
      00 01 02 03 04 05 06 07  08 09 0A 0B 0C 0D 0E 0F
      -- -- -- -- -- -- -- --  -- -- -- -- -- -- -- --
00D0:                                            6E 30                n0
00E0: 72 05 01 0D 80 99 30 72  05 01 00                 r.....0r...     
```

#### Opcodes

```
  0: 0x00DE [0x6E] Five Moons (ID: 17134128/0x01057230) uses emote 258*
  1: 0x00E5 [0x99] Wait for Five Moons (ID: 17134128/0x01057230) animation to complete
  2: 0x00EA [0x00] END_REQSTACK()
```

### Event 65535.16

#### Metadata

| Field        | Value    |
|--------------|----------|
| Entrypoint   | 0x00EB   |
| Data Size    | 16 bytes |
| Instructions | 4        |

```
      00 01 02 03 04 05 06 07  08 09 0A 0B 0C 0D 0E 0F
      -- -- -- -- -- -- -- --  -- -- -- -- -- -- -- --
00E0:                                   6E 2B 72 05 01             n+r..
00F0: 0E 80 99 2B 72 05 01 1C  0B 80 00                 ...+r......     
```

#### Opcodes

```
  0: 0x00EB [0x6E] Gentle Tiger (ID: 17134123/0x0105722B) uses emote 21*
  1: 0x00F2 [0x99] Wait for Gentle Tiger (ID: 17134123/0x0105722B) animation to complete
  2: 0x00F7 [0x1C] WAIT(150* ticks)
  3: 0x00FA [0x00] END_REQSTACK()
```

### Event 65535.17

#### Metadata

| Field        | Value    |
|--------------|----------|
| Entrypoint   | 0x00FB   |
| Data Size    | 38 bytes |
| Instructions | 5        |

```
      00 01 02 03 04 05 06 07  08 09 0A 0B 0C 0D 0E 0F
      -- -- -- -- -- -- -- --  -- -- -- -- -- -- -- --
00F0:                                   1C 04 80 81 00             .....
0100: 2F 72 05 01 66 00 80 2F  72 05 01 2F 72 05 01 74  /r..f../r../r..t
0110: 68 6B 31 53 2F 72 05 01  2F 72 05 01 74 68 6B 31  hk1S/r../r..thk1
0120: 00                                                .               
```

#### Opcodes

```
  0: 0x00FB [0x1C] WAIT(100* ticks)
  1: 0x00FE [0x81] SET_ENTITY_BLINKING(blink_flag=0x00, entity=Nicolaus (ID: 17134127/0x0105722F))
  2: 0x0104 [0x66] LOAD_EXT_SCHEDULER_MAIN: Load scheduler "thk1" with entities [Nicolaus (ID: 17134127/0x0105722F), Nicolaus (ID: 17134127/0x0105722F)], work=0*
  3: 0x0113 [0x53] WAIT_SCHEDULER_TASK: Wait for scheduler "thk1" with entities [Nicolaus (ID: 17134127/0x0105722F), Nicolaus (ID: 17134127/0x0105722F)]
  4: 0x0120 [0x00] END_REQSTACK()
```

### Event 65535.18

#### Metadata

| Field        | Value    |
|--------------|----------|
| Entrypoint   | 0x0121   |
| Data Size    | 41 bytes |
| Instructions | 6        |

```
      00 01 02 03 04 05 06 07  08 09 0A 0B 0C 0D 0E 0F
      -- -- -- -- -- -- -- --  -- -- -- -- -- -- -- --
0120:    1C 0F 80 66 00 80 2F  72 05 01 2F 72 05 01 74   ...f../r../r..t
0130: 68 6B 32 81 01 2F 72 05  01 53 2F 72 05 01 2F 72  hk2../r..S/r../r
0140: 05 01 74 68 6B 32 1C 0C  80 00                    ..thk2....      
```

#### Opcodes

```
  0: 0x0121 [0x1C] WAIT(110* ticks)
  1: 0x0124 [0x66] LOAD_EXT_SCHEDULER_MAIN: Load scheduler "thk2" with entities [Nicolaus (ID: 17134127/0x0105722F), Nicolaus (ID: 17134127/0x0105722F)], work=0*
  2: 0x0133 [0x81] SET_ENTITY_BLINKING(blink_flag=0x01, entity=Nicolaus (ID: 17134127/0x0105722F))
  3: 0x0139 [0x53] WAIT_SCHEDULER_TASK: Wait for scheduler "thk2" with entities [Nicolaus (ID: 17134127/0x0105722F), Nicolaus (ID: 17134127/0x0105722F)]
  4: 0x0146 [0x1C] WAIT(60* ticks)
  5: 0x0149 [0x00] END_REQSTACK()
```
