# 17134039 - Gentle Tiger

## Common Data

| Field            | Value                       |
|------------------|-----------------------------|
| Zone             | Bastok Markets [S] (ID: 87) |
| Block Size       | 1996 bytes                  |
| Total Events     | 77                          |
| References Count | 64                          |

## List of Events

| Event ID                   | Entrypoint   |   Size |   Instructions |
|----------------------------|--------------|--------|----------------|
| [65535](#event-65535)      | 0x0000       |      1 |              1 |
| [109](#event-109)          | 0x0001       |     29 |              7 |
| [160](#event-160)          | 0x001E       |      1 |              1 |
| [161](#event-161)          | 0x001F       |     42 |             12 |
| [16](#event-16)            | 0x0049       |      1 |              1 |
| [17](#event-17)            | 0x004A       |     29 |              7 |
| [27](#event-27)            | 0x0067       |      1 |              1 |
| [28](#event-28)            | 0x0068       |     29 |              7 |
| [30](#event-30)            | 0x0085       |      1 |              1 |
| [31](#event-31)            | 0x0086       |     14 |              6 |
| [34](#event-34)            | 0x0094       |      1 |              1 |
| [35](#event-35)            | 0x0095       |     29 |              7 |
| [57](#event-57)            | 0x00B2       |      1 |              1 |
| [58](#event-58)            | 0x00B3       |     14 |              6 |
| [59](#event-59)            | 0x00C1       |     33 |              9 |
| [61](#event-61)            | 0x00E2       |     29 |              7 |
| [63](#event-63)            | 0x00FF       |      1 |              1 |
| [65](#event-65)            | 0x0100       |      1 |              1 |
| [64](#event-64)            | 0x0101       |     29 |              7 |
| [46](#event-46)            | 0x011E       |      1 |              1 |
| [47](#event-47)            | 0x011F       |     22 |             10 |
| [176](#event-176)          | 0x0135       |      1 |              1 |
| [186](#event-186)          | 0x0136       |     33 |              9 |
| [187](#event-187)          | 0x0157       |     29 |              7 |
| [190](#event-190)          | 0x0174       |     29 |              7 |
| [191](#event-191)          | 0x0191       |     29 |              7 |
| [184](#event-184)          | 0x01AE       |      1 |              1 |
| [67](#event-67)            | 0x01AF       |     29 |              7 |
| [68](#event-68)            | 0x01CC       |     70 |             16 |
| [69](#event-69)            | 0x0212       |     34 |              8 |
| [70](#event-70)            | 0x0234       |     35 |              9 |
| [71](#event-71)            | 0x0257       |      1 |              1 |
| [72](#event-72)            | 0x0258       |     29 |              7 |
| [66](#event-66)            | 0x0275       |      1 |              1 |
| [351](#event-351)          | 0x0276       |     29 |              7 |
| [352](#event-352)          | 0x0293       |     29 |              7 |
| [353](#event-353)          | 0x02B0       |     33 |              9 |
| [354](#event-354)          | 0x02D1       |     29 |              7 |
| [355](#event-355)          | 0x02EE       |     29 |              7 |
| [356](#event-356)          | 0x030B       |     29 |              7 |
| [357](#event-357)          | 0x0328       |     39 |             11 |
| [212](#event-212)          | 0x034F       |     33 |              9 |
| [213](#event-213)          | 0x0370       |      7 |              2 |
| [216](#event-216)          | 0x0377       |      7 |              2 |
| [214](#event-214)          | 0x037E       |     33 |              9 |
| [65535.1](#event-655351)   | 0x039F       |     16 |              2 |
| [65535.2](#event-655352)   | 0x03AF       |     14 |              2 |
| [65535.3](#event-655353)   | 0x03BD       |     16 |              2 |
| [65535.4](#event-655354)   | 0x03CD       |     14 |              2 |
| [65535.5](#event-655355)   | 0x03DB       |     16 |              2 |
| [65535.6](#event-655356)   | 0x03EB       |     14 |              2 |
| [65535.7](#event-655357)   | 0x03F9       |     16 |              2 |
| [65535.8](#event-655358)   | 0x0409       |     14 |              2 |
| [65535.9](#event-655359)   | 0x0417       |     16 |              2 |
| [65535.10](#event-6553510) | 0x0427       |     14 |              2 |
| [65535.11](#event-6553511) | 0x0435       |     16 |              4 |
| [65535.12](#event-6553512) | 0x0445       |     16 |              4 |
| [65535.13](#event-6553513) | 0x0455       |     16 |              4 |
| [65535.14](#event-6553514) | 0x0465       |     16 |              4 |
| [65535.15](#event-6553515) | 0x0475       |     16 |              4 |
| [65535.16](#event-6553516) | 0x0485       |     16 |              4 |
| [65535.17](#event-6553517) | 0x0495       |     16 |              4 |
| [65535.18](#event-6553518) | 0x04A5       |     16 |              4 |
| [65535.19](#event-6553519) | 0x04B5       |     16 |              4 |
| [65535.20](#event-6553520) | 0x04C5       |     16 |              4 |
| [65535.21](#event-6553521) | 0x04D5       |      9 |              3 |
| [65535.22](#event-6553522) | 0x04DE       |     16 |              2 |
| [65535.23](#event-6553523) | 0x04EE       |     14 |              2 |
| [65535.24](#event-6553524) | 0x04FC       |     16 |              2 |
| [65535.25](#event-6553525) | 0x050C       |     14 |              2 |
| [65535.26](#event-6553526) | 0x051A       |      1 |              1 |
| [65535.27](#event-6553527) | 0x051B       |      1 |              1 |
| [65535.28](#event-6553528) | 0x051C       |     31 |              7 |
| [606](#event-606)          | 0x053B       |     34 |              8 |
| [607](#event-607)          | 0x055D       |     29 |              7 |
| [608](#event-608)          | 0x057A       |      1 |              1 |
| [65535.29](#event-6553529) | 0x057B       |     10 |              2 |

## DAT References (imed_data)

|   Index | Hex Value   |   Dec Value |
|---------|-------------|-------------|
|       0 | 0x001E      |          30 |
|       1 | 0x0045      |          69 |
|       2 | 0x3033      |       12339 |
|       3 | 0x0013      |          19 |
|       4 | 0x2EDF      |       11999 |
|       5 | 0x0000      |           0 |
|       6 | 0x2EE0      |       12000 |
|       7 | 0x30E9      |       12521 |
|       8 | 0x3152      |       12626 |
|       9 | 0x3175      |       12661 |
|      10 | 0x31C6      |       12742 |
|      11 | 0x32C3      |       12995 |
|      12 | 0x32C4      |       12996 |
|      13 | 0x32C5      |       12997 |
|      14 | 0x32FE      |       13054 |
|      15 | 0x335B      |       13147 |
|      16 | 0x2FA8      |       12200 |
|      17 | 0x2FA9      |       12201 |
|      18 | 0x337F      |       13183 |
|      19 | 0x3380      |       13184 |
|      20 | 0x3381      |       13185 |
|      21 | 0x3384      |       13188 |
|      22 | 0x3385      |       13189 |
|      23 | 0x3409      |       13321 |
|      24 | 0x340A      |       13322 |
|      25 | 0x042D      |        1069 |
|      26 | 0x340B      |       13323 |
|      27 | 0x340C      |       13324 |
|      28 | 0x340D      |       13325 |
|      29 | 0x340E      |       13326 |
|      30 | 0x344A      |       13386 |
|      31 | 0x34BF      |       13503 |
|      32 | 0x34C0      |       13504 |
|      33 | 0x34C1      |       13505 |
|      34 | 0x34C2      |       13506 |
|      35 | 0x34C3      |       13507 |
|      36 | 0x34C4      |       13508 |
|      37 | 0x34C7      |       13511 |
|      38 | 0x0494      |        1172 |
|      39 | 0x34C5      |       13509 |
|      40 | 0x34C6      |       13510 |
|      41 | 0x34DE      |       13534 |
|      42 | 0x34DF      |       13535 |
|      43 | 0x34FF      |       13567 |
|      44 | 0x3500      |       13568 |
|      45 | 0x0083      |         131 |
|      46 | 0x0015      |          21 |
|      47 | 0x003C      |          60 |
|      48 | 0x0007      |           7 |
|      49 | 0x0006      |           6 |
|      50 | 0x000B      |          11 |
|      51 | 0x000E      |          14 |
|      52 | 0x0004      |           4 |
|      53 | 0x000C      |          12 |
|      54 | 0x001D      |          29 |
|      55 | 0x00D1      |         209 |
|      56 | 0x005A      |          90 |
|      57 | 0x09CE      |        2510 |
|      58 | 0x39B0      |       14768 |
|      59 | 0x39B1      |       14769 |
|      60 | 0xFFFCEA30  |  4294765104 |
|      61 | 0x046E      |        1134 |
|      62 | 0xFFFFD8F2  |  4294957298 |
|      63 | 0x0131      |         305 |

## String References

- **11999**: They're going to do more than cut my pay for letting that informant slip through a security lockdown...
- **12000**: You! Don't think you'll pass by me twice!
- **12200**: Has the professor been located?
- **12201**: What was that about Rolanberry...? And Pashhow...?
- **12339**: The Metalworks have been placed under the jurisdiction of the military in order to develop and produce arms for the war. Neither townspeople nor low-ranking soldiers are permitted to enter.
- **12521**: I've been alert the entire time. How did he get in there...?
- **12626**: That child crawled in through the ventilation shaft!? Well, at least my pay won't suffer this time...
- **12661**: Who would've thought that the music shop owner belonged to some secret mercenary organization...?
- **12742**: How could Chairman Pale Eagle be a suspect in the assassination case? What is this nation coming to?
- **12995**: If you're looking for Senator Karst, he's already left for his meeting with Chairman Pale Eagle at Zegham Hill in North Gustaberg.
- **12996**: Terrible news! Five Moons has broken out of jail!
- **12997**: I hate to imagine what would happen if we don't find him before the military police do. We're counting on you, Detective <Player>!
- **13054**: If you're looking for the Mythril Musketeers, they've left to see to the deployment of the Special Ops crew. The captain is expecting you at the Ruhotz Silvermines, so off you go now.
- **13147**: I've never seen Captain Klara in such a run-down state before. I hope it's nothing serious...
- **13183**: So, Darksteel Hurricane is responsible for the serial killings...
- **13184**: <Player>, it's fallen to you and the Mythril Musketeers once again to bring him to justice before any more lives are lost!
- **13185**: You've already been briefed by Nicolaus, correct? Talk to the Goblin, Blatherix, and see if you can glean anything on the whereabouts of our suspect.
- **13188**: I hear you're taking part in the large-scale manhunt for Darksteel Hurricane out at the Vunkerl Inlet. You'd better keep your eyes peeled and your ears open if want to come back with your limbs intact--errr...I mean, you be careful out there, <Player>!
- **13189**: So the intelligence provided by that Goblin--Limpears, was it?--proved to be the real deal. If you run into the little fella again, tell him I apologize for my churlishness the other day.
- **13321**: You're looking for Five Moons and Nicolaus? The two of them departed for the Vunkerl Inlet a short while ago in utter silence. I wonder why they'd want to go back there...
- **13322**: Oh, hello there, <Player>. Is there something I can help you with?
- **13323**: Nicolaus has asked you to fetch $6, you say?
- **13324**: Well, you're in luck, because I was issued one of these babies just yesterday for use in riot control. You can have it, as long as you promise to think of your friend Gentle Tiger when tossing it into an unsuspecting swarm of hostiles.
- **13325**: Don't keep Nicolaus waiting for the $3, now. Off you go.
- **13326**: What? You want another $3? I suppose I could give you my spare, but then, how am I supposed to keep myself entertained during those long, tedious night shifts? <Sigh>... Alright, alright! I'll let you have it! Just stop staring at me like that!
- **13386**: <Player>! You're the Republic's only hope! Please don't abandon us in this hour of need!
- **13503**: Nicolaus and Five Moons have already left for Beadeaux. Weren't you going to join them?
- **13504**: Your comrades just left for the Eldieme Necropolis. Said they had urgent business with Captain Herbert?
- **13505**: Nicolaus said he and Five Moons were headed for Beaucedine! What errand calls them to such a dangerous place?
- **13506**: What? You're going too!? Take care of yourself, <Player>. The monsters prowling that Goddess-forsaken glacier are something fierce!
- **13507**: How can you just stroll around here while Zeid rots away in Benedikt Watchtower? Have a heart, <Player>!
- **13508**: The President--no, the whole Republic--is counting on you, <Player>. You must make for Xarcabard!
- **13509**: What!? You've lost your $3? I'd expected better of you, <Player>!
- **13510**: If it were me, sure, I'm dropping and fumbling things all the time--why do you think I'm still a doorman after all these years?--but you... Anyway, here's a spare copy for you. Try to hold on to this one!
- **13511**: We may have driven the beastmen back, but their advance will not be stayed so easily. Stay wary, <Player>!
- **13534**: You're still here, <Player>? Zeid and the others have already left for Castle Zvahl.
- **13535**: If only I could join you! Why, I'd have that Shadow Lord crying for mercy before he could so much as raise that twisted, towering blade of his...sharp enough to, uh...cleave a full-grown Galka c-clean in... Er, ah...on second thought, never mind that. Safe travels!
- **13567**: With the Mythril Musketeers back in action, the Republic truly has nothing to fear!
- **13568**: I was holdin' out that my efforts might've warranted a decoration from the President as well. Hey, keepin' this door here safe from the beastman onslaught isn't easy, you know! Ah, well. There's always next time.
- **14768**: What's that little bundle you've got there? $6? Never heard of it. Don't know, don't care.
- **14769**: <Player>! Or should I say, "Mythril Musketeer Zero"! It's good to see you looking so well.

## Events

### Event 65535

#### Metadata

| Field        | Value   |
|--------------|---------|
| Entrypoint   | 0x0000  |
| Data Size    | 1 bytes |
| Instructions | 1       |

```
      00 01 02 03 04 05 06 07  08 09 0A 0B 0C 0D 0E 0F
      -- -- -- -- -- -- -- --  -- -- -- -- -- -- -- --
0000: 00                                                .               
```

#### Opcodes

```
  0: 0x0000 [0x00] END_REQSTACK()
```

### Event 109

#### Metadata

| Field        | Value    |
|--------------|----------|
| Entrypoint   | 0x0001   |
| Data Size    | 29 bytes |
| Instructions | 7        |

```
      00 01 02 03 04 05 06 07  08 09 0A 0B 0C 0D 0E 0F
      -- -- -- -- -- -- -- --  -- -- -- -- -- -- -- --
0000:    1E F0 FF FF 7F 1C 00  80 66 01 80 F8 FF FF 7F   ........f......
0010: F8 FF FF 7F 74 6C 6B 30  1D 02 80 23 21 00        ....tlk0...#!.  
```

#### Opcodes

```
  0: 0x0001 [0x1E] EventEntity looks at LocalPlayer and starts talking
  1: 0x0006 [0x1C] WAIT(30* ticks)
  2: 0x0009 [0x66] LOAD_EXT_SCHEDULER_MAIN: Load scheduler "tlk0" with entities [EventEntity, EventEntity], work=69*
  3: 0x0018 [0x1D] PRINT_EVENT_MESSAGE(message_id=12339*)
    → "The Metalworks have been placed under the jurisdiction of the military in order to develop and produce arms for the war. Neither townspeople nor low-ranking soldiers are permitted to enter."
  4: 0x001B [0x23] WAIT_FOR_DIALOG_INTERACTION
  5: 0x001C [0x21] END_EVENT
  6: 0x001D [0x00] END_REQSTACK()
```

### Event 160

#### Metadata

| Field        | Value   |
|--------------|---------|
| Entrypoint   | 0x001E  |
| Data Size    | 1 bytes |
| Instructions | 1       |

```
      00 01 02 03 04 05 06 07  08 09 0A 0B 0C 0D 0E 0F
      -- -- -- -- -- -- -- --  -- -- -- -- -- -- -- --
0010:                                            00                   . 
```

#### Opcodes

```
  0: 0x001E [0x00] END_REQSTACK()
```

### Event 161

#### Metadata

| Field        | Value    |
|--------------|----------|
| Entrypoint   | 0x001F   |
| Data Size    | 42 bytes |
| Instructions | 12       |

```
      00 01 02 03 04 05 06 07  08 09 0A 0B 0C 0D 0E 0F
      -- -- -- -- -- -- -- --  -- -- -- -- -- -- -- --
0010:                                               6E                 n
0020: D7 71 05 01 03 80 99 D7  71 05 01 1D 04 80 23 1E  .q......q.....#.
0030: F0 FF FF 7F 1C 00 80 6E  D7 71 05 01 05 80 99 D7  .......n.q......
0040: 71 05 01 1D 06 80 23 21  00                       q.....#!.       
```

#### Opcodes

```
  0: 0x001F [0x6E] Gentle Tiger (ID: 17134039/0x010571D7) uses emote 19*
  1: 0x0026 [0x99] Wait for Gentle Tiger (ID: 17134039/0x010571D7) animation to complete
  2: 0x002B [0x1D] PRINT_EVENT_MESSAGE(message_id=11999*)
    → "They're going to do more than cut my pay for letting that informant slip through a security lockdown..."
  3: 0x002E [0x23] WAIT_FOR_DIALOG_INTERACTION
  4: 0x002F [0x1E] EventEntity looks at LocalPlayer and starts talking
  5: 0x0034 [0x1C] WAIT(30* ticks)
  6: 0x0037 [0x6E] Gentle Tiger (ID: 17134039/0x010571D7) uses emote 0*
  7: 0x003E [0x99] Wait for Gentle Tiger (ID: 17134039/0x010571D7) animation to complete
  8: 0x0043 [0x1D] PRINT_EVENT_MESSAGE(message_id=12000*)
    → "You! Don't think you'll pass by me twice!"
  9: 0x0046 [0x23] WAIT_FOR_DIALOG_INTERACTION
 10: 0x0047 [0x21] END_EVENT
 11: 0x0048 [0x00] END_REQSTACK()
```

### Event 16

#### Metadata

| Field        | Value   |
|--------------|---------|
| Entrypoint   | 0x0049  |
| Data Size    | 1 bytes |
| Instructions | 1       |

```
      00 01 02 03 04 05 06 07  08 09 0A 0B 0C 0D 0E 0F
      -- -- -- -- -- -- -- --  -- -- -- -- -- -- -- --
0040:                             00                             .      
```

#### Opcodes

```
  0: 0x0049 [0x00] END_REQSTACK()
```

### Event 17

#### Metadata

| Field        | Value    |
|--------------|----------|
| Entrypoint   | 0x004A   |
| Data Size    | 29 bytes |
| Instructions | 7        |

```
      00 01 02 03 04 05 06 07  08 09 0A 0B 0C 0D 0E 0F
      -- -- -- -- -- -- -- --  -- -- -- -- -- -- -- --
0040:                                1E F0 FF FF 7F 1C            ......
0050: 00 80 66 01 80 D7 71 05  01 D7 71 05 01 74 68 6B  ..f...q...q..thk
0060: 31 1D 07 80 23 21 00                              1...#!.         
```

#### Opcodes

```
  0: 0x004A [0x1E] EventEntity looks at LocalPlayer and starts talking
  1: 0x004F [0x1C] WAIT(30* ticks)
  2: 0x0052 [0x66] LOAD_EXT_SCHEDULER_MAIN: Load scheduler "thk1" with entities [Gentle Tiger (ID: 17134039/0x010571D7), Gentle Tiger (ID: 17134039/0x010571D7)], work=69*
  3: 0x0061 [0x1D] PRINT_EVENT_MESSAGE(message_id=12521*)
    → "I've been alert the entire time. How did he get in there...?"
  4: 0x0064 [0x23] WAIT_FOR_DIALOG_INTERACTION
  5: 0x0065 [0x21] END_EVENT
  6: 0x0066 [0x00] END_REQSTACK()
```

### Event 27

#### Metadata

| Field        | Value   |
|--------------|---------|
| Entrypoint   | 0x0067  |
| Data Size    | 1 bytes |
| Instructions | 1       |

```
      00 01 02 03 04 05 06 07  08 09 0A 0B 0C 0D 0E 0F
      -- -- -- -- -- -- -- --  -- -- -- -- -- -- -- --
0060:                      00                                  .        
```

#### Opcodes

```
  0: 0x0067 [0x00] END_REQSTACK()
```

### Event 28

#### Metadata

| Field        | Value    |
|--------------|----------|
| Entrypoint   | 0x0068   |
| Data Size    | 29 bytes |
| Instructions | 7        |

```
      00 01 02 03 04 05 06 07  08 09 0A 0B 0C 0D 0E 0F
      -- -- -- -- -- -- -- --  -- -- -- -- -- -- -- --
0060:                          1E F0 FF FF 7F 1C 00 80          ........
0070: 66 01 80 D7 71 05 01 D7  71 05 01 74 6C 6B 30 1D  f...q...q..tlk0.
0080: 08 80 23 21 00                                    ..#!.           
```

#### Opcodes

```
  0: 0x0068 [0x1E] EventEntity looks at LocalPlayer and starts talking
  1: 0x006D [0x1C] WAIT(30* ticks)
  2: 0x0070 [0x66] LOAD_EXT_SCHEDULER_MAIN: Load scheduler "tlk0" with entities [Gentle Tiger (ID: 17134039/0x010571D7), Gentle Tiger (ID: 17134039/0x010571D7)], work=69*
  3: 0x007F [0x1D] PRINT_EVENT_MESSAGE(message_id=12626*)
    → "That child crawled in through the ventilation shaft!? Well, at least my pay won't suffer this time..."
  4: 0x0082 [0x23] WAIT_FOR_DIALOG_INTERACTION
  5: 0x0083 [0x21] END_EVENT
  6: 0x0084 [0x00] END_REQSTACK()
```

### Event 30

#### Metadata

| Field        | Value   |
|--------------|---------|
| Entrypoint   | 0x0085  |
| Data Size    | 1 bytes |
| Instructions | 1       |

```
      00 01 02 03 04 05 06 07  08 09 0A 0B 0C 0D 0E 0F
      -- -- -- -- -- -- -- --  -- -- -- -- -- -- -- --
0080:                00                                      .          
```

#### Opcodes

```
  0: 0x0085 [0x00] END_REQSTACK()
```

### Event 31

#### Metadata

| Field        | Value    |
|--------------|----------|
| Entrypoint   | 0x0086   |
| Data Size    | 14 bytes |
| Instructions | 6        |

```
      00 01 02 03 04 05 06 07  08 09 0A 0B 0C 0D 0E 0F
      -- -- -- -- -- -- -- --  -- -- -- -- -- -- -- --
0080:                   1E F0  FF FF 7F 1C 00 80 1D 09        ..........
0090: 80 23 21 00                                       .#!.            
```

#### Opcodes

```
  0: 0x0086 [0x1E] EventEntity looks at LocalPlayer and starts talking
  1: 0x008B [0x1C] WAIT(30* ticks)
  2: 0x008E [0x1D] PRINT_EVENT_MESSAGE(message_id=12661*)
    → "Who would've thought that the music shop owner belonged to some secret mercenary organization...?"
  3: 0x0091 [0x23] WAIT_FOR_DIALOG_INTERACTION
  4: 0x0092 [0x21] END_EVENT
  5: 0x0093 [0x00] END_REQSTACK()
```

### Event 34

#### Metadata

| Field        | Value   |
|--------------|---------|
| Entrypoint   | 0x0094  |
| Data Size    | 1 bytes |
| Instructions | 1       |

```
      00 01 02 03 04 05 06 07  08 09 0A 0B 0C 0D 0E 0F
      -- -- -- -- -- -- -- --  -- -- -- -- -- -- -- --
0090:             00                                        .           
```

#### Opcodes

```
  0: 0x0094 [0x00] END_REQSTACK()
```

### Event 35

#### Metadata

| Field        | Value    |
|--------------|----------|
| Entrypoint   | 0x0095   |
| Data Size    | 29 bytes |
| Instructions | 7        |

```
      00 01 02 03 04 05 06 07  08 09 0A 0B 0C 0D 0E 0F
      -- -- -- -- -- -- -- --  -- -- -- -- -- -- -- --
0090:                1E F0 FF  FF 7F 1C 00 80 66 01 80       ........f..
00A0: D7 71 05 01 D7 71 05 01  74 6C 6B 30 1D 0A 80 23  .q...q..tlk0...#
00B0: 21 00                                             !.              
```

#### Opcodes

```
  0: 0x0095 [0x1E] EventEntity looks at LocalPlayer and starts talking
  1: 0x009A [0x1C] WAIT(30* ticks)
  2: 0x009D [0x66] LOAD_EXT_SCHEDULER_MAIN: Load scheduler "tlk0" with entities [Gentle Tiger (ID: 17134039/0x010571D7), Gentle Tiger (ID: 17134039/0x010571D7)], work=69*
  3: 0x00AC [0x1D] PRINT_EVENT_MESSAGE(message_id=12742*)
    → "How could Chairman Pale Eagle be a suspect in the assassination case? What is this nation coming to?"
  4: 0x00AF [0x23] WAIT_FOR_DIALOG_INTERACTION
  5: 0x00B0 [0x21] END_EVENT
  6: 0x00B1 [0x00] END_REQSTACK()
```

### Event 57

#### Metadata

| Field        | Value   |
|--------------|---------|
| Entrypoint   | 0x00B2  |
| Data Size    | 1 bytes |
| Instructions | 1       |

```
      00 01 02 03 04 05 06 07  08 09 0A 0B 0C 0D 0E 0F
      -- -- -- -- -- -- -- --  -- -- -- -- -- -- -- --
00B0:       00                                            .             
```

#### Opcodes

```
  0: 0x00B2 [0x00] END_REQSTACK()
```

### Event 58

#### Metadata

| Field        | Value    |
|--------------|----------|
| Entrypoint   | 0x00B3   |
| Data Size    | 14 bytes |
| Instructions | 6        |

```
      00 01 02 03 04 05 06 07  08 09 0A 0B 0C 0D 0E 0F
      -- -- -- -- -- -- -- --  -- -- -- -- -- -- -- --
00B0:          1E F0 FF FF 7F  1C 00 80 1D 0B 80 23 21     ...........#!
00C0: 00                                                .               
```

#### Opcodes

```
  0: 0x00B3 [0x1E] EventEntity looks at LocalPlayer and starts talking
  1: 0x00B8 [0x1C] WAIT(30* ticks)
  2: 0x00BB [0x1D] PRINT_EVENT_MESSAGE(message_id=12995*)
    → "If you're looking for Senator Karst, he's already left for his meeting with Chairman Pale Eagle at Zegham Hill in North Gustaberg."
  3: 0x00BE [0x23] WAIT_FOR_DIALOG_INTERACTION
  4: 0x00BF [0x21] END_EVENT
  5: 0x00C0 [0x00] END_REQSTACK()
```

### Event 59

#### Metadata

| Field        | Value    |
|--------------|----------|
| Entrypoint   | 0x00C1   |
| Data Size    | 33 bytes |
| Instructions | 9        |

```
      00 01 02 03 04 05 06 07  08 09 0A 0B 0C 0D 0E 0F
      -- -- -- -- -- -- -- --  -- -- -- -- -- -- -- --
00C0:    1E F0 FF FF 7F 1C 00  80 66 01 80 D7 71 05 01   ........f...q..
00D0: D7 71 05 01 74 6C 6B 30  1D 0C 80 23 1D 0D 80 23  .q..tlk0...#...#
00E0: 21 00                                             !.              
```

#### Opcodes

```
  0: 0x00C1 [0x1E] EventEntity looks at LocalPlayer and starts talking
  1: 0x00C6 [0x1C] WAIT(30* ticks)
  2: 0x00C9 [0x66] LOAD_EXT_SCHEDULER_MAIN: Load scheduler "tlk0" with entities [Gentle Tiger (ID: 17134039/0x010571D7), Gentle Tiger (ID: 17134039/0x010571D7)], work=69*
  3: 0x00D8 [0x1D] PRINT_EVENT_MESSAGE(message_id=12996*)
    → "Terrible news! Five Moons has broken out of jail!"
  4: 0x00DB [0x23] WAIT_FOR_DIALOG_INTERACTION
  5: 0x00DC [0x1D] PRINT_EVENT_MESSAGE(message_id=12997*)
    → "I hate to imagine what would happen if we don't find him before the military police do. We're counting on you, Detective <Player>!"
  6: 0x00DF [0x23] WAIT_FOR_DIALOG_INTERACTION
  7: 0x00E0 [0x21] END_EVENT
  8: 0x00E1 [0x00] END_REQSTACK()
```

### Event 61

#### Metadata

| Field        | Value    |
|--------------|----------|
| Entrypoint   | 0x00E2   |
| Data Size    | 29 bytes |
| Instructions | 7        |

```
      00 01 02 03 04 05 06 07  08 09 0A 0B 0C 0D 0E 0F
      -- -- -- -- -- -- -- --  -- -- -- -- -- -- -- --
00E0:       1E F0 FF FF 7F 1C  00 80 66 01 80 D7 71 05    ........f...q.
00F0: 01 D7 71 05 01 74 6C 6B  30 1D 0E 80 23 21 00     ..q..tlk0...#!. 
```

#### Opcodes

```
  0: 0x00E2 [0x1E] EventEntity looks at LocalPlayer and starts talking
  1: 0x00E7 [0x1C] WAIT(30* ticks)
  2: 0x00EA [0x66] LOAD_EXT_SCHEDULER_MAIN: Load scheduler "tlk0" with entities [Gentle Tiger (ID: 17134039/0x010571D7), Gentle Tiger (ID: 17134039/0x010571D7)], work=69*
  3: 0x00F9 [0x1D] PRINT_EVENT_MESSAGE(message_id=13054*)
    → "If you're looking for the Mythril Musketeers, they've left to see to the deployment of the Special Ops crew. The captain is expecting you at the Ruhotz Silvermines, so off you go now."
  4: 0x00FC [0x23] WAIT_FOR_DIALOG_INTERACTION
  5: 0x00FD [0x21] END_EVENT
  6: 0x00FE [0x00] END_REQSTACK()
```

### Event 63

#### Metadata

| Field        | Value   |
|--------------|---------|
| Entrypoint   | 0x00FF  |
| Data Size    | 1 bytes |
| Instructions | 1       |

```
      00 01 02 03 04 05 06 07  08 09 0A 0B 0C 0D 0E 0F
      -- -- -- -- -- -- -- --  -- -- -- -- -- -- -- --
00F0:                                               00                 .
```

#### Opcodes

```
  0: 0x00FF [0x00] END_REQSTACK()
```

### Event 65

#### Metadata

| Field        | Value   |
|--------------|---------|
| Entrypoint   | 0x0100  |
| Data Size    | 1 bytes |
| Instructions | 1       |

```
      00 01 02 03 04 05 06 07  08 09 0A 0B 0C 0D 0E 0F
      -- -- -- -- -- -- -- --  -- -- -- -- -- -- -- --
0100: 00                                                .               
```

#### Opcodes

```
  0: 0x0100 [0x00] END_REQSTACK()
```

### Event 64

#### Metadata

| Field        | Value    |
|--------------|----------|
| Entrypoint   | 0x0101   |
| Data Size    | 29 bytes |
| Instructions | 7        |

```
      00 01 02 03 04 05 06 07  08 09 0A 0B 0C 0D 0E 0F
      -- -- -- -- -- -- -- --  -- -- -- -- -- -- -- --
0100:    1E F0 FF FF 7F 1C 00  80 66 01 80 D7 71 05 01   ........f...q..
0110: D7 71 05 01 74 6C 6B 30  1D 0F 80 23 21 00        .q..tlk0...#!.  
```

#### Opcodes

```
  0: 0x0101 [0x1E] EventEntity looks at LocalPlayer and starts talking
  1: 0x0106 [0x1C] WAIT(30* ticks)
  2: 0x0109 [0x66] LOAD_EXT_SCHEDULER_MAIN: Load scheduler "tlk0" with entities [Gentle Tiger (ID: 17134039/0x010571D7), Gentle Tiger (ID: 17134039/0x010571D7)], work=69*
  3: 0x0118 [0x1D] PRINT_EVENT_MESSAGE(message_id=13147*)
    → "I've never seen Captain Klara in such a run-down state before. I hope it's nothing serious..."
  4: 0x011B [0x23] WAIT_FOR_DIALOG_INTERACTION
  5: 0x011C [0x21] END_EVENT
  6: 0x011D [0x00] END_REQSTACK()
```

### Event 46

#### Metadata

| Field        | Value   |
|--------------|---------|
| Entrypoint   | 0x011E  |
| Data Size    | 1 bytes |
| Instructions | 1       |

```
      00 01 02 03 04 05 06 07  08 09 0A 0B 0C 0D 0E 0F
      -- -- -- -- -- -- -- --  -- -- -- -- -- -- -- --
0110:                                            00                   . 
```

#### Opcodes

```
  0: 0x011E [0x00] END_REQSTACK()
```

### Event 47

#### Metadata

| Field        | Value    |
|--------------|----------|
| Entrypoint   | 0x011F   |
| Data Size    | 22 bytes |
| Instructions | 10       |

```
      00 01 02 03 04 05 06 07  08 09 0A 0B 0C 0D 0E 0F
      -- -- -- -- -- -- -- --  -- -- -- -- -- -- -- --
0110:                                               42                 B
0120: 1E F0 FF FF 7F 6F 76 F8  FF FF 7F 1D 10 80 23 1D  .....ov.......#.
0130: 11 80 23 21 00                                    ..#!.           
```

#### Opcodes

```
  0: 0x011F [0x42] SET_CLI_EVENT_CANCEL_DATA()
  1: 0x0120 [0x1E] EventEntity looks at LocalPlayer and starts talking
  2: 0x0125 [0x6F] WAIT_FRAME_DELAY: Yield until WaitTime reaches zero
  3: 0x0126 [0x76] CHECK_ENTITY_RENDER_FLAGS: Wait until EventEntity Render.Flags0 and Render.Flags3 conditions are met
  4: 0x012B [0x1D] PRINT_EVENT_MESSAGE(message_id=12200*)
    → "Has the professor been located?"
  5: 0x012E [0x23] WAIT_FOR_DIALOG_INTERACTION
  6: 0x012F [0x1D] PRINT_EVENT_MESSAGE(message_id=12201*)
    → "What was that about Rolanberry...? And Pashhow...?"
  7: 0x0132 [0x23] WAIT_FOR_DIALOG_INTERACTION
  8: 0x0133 [0x21] END_EVENT
  9: 0x0134 [0x00] END_REQSTACK()
```

### Event 176

#### Metadata

| Field        | Value   |
|--------------|---------|
| Entrypoint   | 0x0135  |
| Data Size    | 1 bytes |
| Instructions | 1       |

```
      00 01 02 03 04 05 06 07  08 09 0A 0B 0C 0D 0E 0F
      -- -- -- -- -- -- -- --  -- -- -- -- -- -- -- --
0130:                00                                      .          
```

#### Opcodes

```
  0: 0x0135 [0x00] END_REQSTACK()
```

### Event 186

#### Metadata

| Field        | Value    |
|--------------|----------|
| Entrypoint   | 0x0136   |
| Data Size    | 33 bytes |
| Instructions | 9        |

```
      00 01 02 03 04 05 06 07  08 09 0A 0B 0C 0D 0E 0F
      -- -- -- -- -- -- -- --  -- -- -- -- -- -- -- --
0130:                   1E F0  FF FF 7F 1C 00 80 1D 12        ..........
0140: 80 23 66 01 80 F8 FF FF  7F F8 FF FF 7F 74 6C 6B  .#f..........tlk
0150: 30 1D 13 80 23 21 00                              0...#!.         
```

#### Opcodes

```
  0: 0x0136 [0x1E] EventEntity looks at LocalPlayer and starts talking
  1: 0x013B [0x1C] WAIT(30* ticks)
  2: 0x013E [0x1D] PRINT_EVENT_MESSAGE(message_id=13183*)
    → "So, Darksteel Hurricane is responsible for the serial killings..."
  3: 0x0141 [0x23] WAIT_FOR_DIALOG_INTERACTION
  4: 0x0142 [0x66] LOAD_EXT_SCHEDULER_MAIN: Load scheduler "tlk0" with entities [EventEntity, EventEntity], work=69*
  5: 0x0151 [0x1D] PRINT_EVENT_MESSAGE(message_id=13184*)
    → "<Player>, it's fallen to you and the Mythril Musketeers once again to bring him to justice before any more lives are lost!"
  6: 0x0154 [0x23] WAIT_FOR_DIALOG_INTERACTION
  7: 0x0155 [0x21] END_EVENT
  8: 0x0156 [0x00] END_REQSTACK()
```

### Event 187

#### Metadata

| Field        | Value    |
|--------------|----------|
| Entrypoint   | 0x0157   |
| Data Size    | 29 bytes |
| Instructions | 7        |

```
      00 01 02 03 04 05 06 07  08 09 0A 0B 0C 0D 0E 0F
      -- -- -- -- -- -- -- --  -- -- -- -- -- -- -- --
0150:                      1E  F0 FF FF 7F 1C 00 80 66         ........f
0160: 01 80 F8 FF FF 7F F8 FF  FF 7F 74 6C 6B 30 1D 14  ..........tlk0..
0170: 80 23 21 00                                       .#!.            
```

#### Opcodes

```
  0: 0x0157 [0x1E] EventEntity looks at LocalPlayer and starts talking
  1: 0x015C [0x1C] WAIT(30* ticks)
  2: 0x015F [0x66] LOAD_EXT_SCHEDULER_MAIN: Load scheduler "tlk0" with entities [EventEntity, EventEntity], work=69*
  3: 0x016E [0x1D] PRINT_EVENT_MESSAGE(message_id=13185*)
    → "You've already been briefed by Nicolaus, correct? Talk to the Goblin, Blatherix, and see if you can glean anything on the whereabouts of our suspect."
  4: 0x0171 [0x23] WAIT_FOR_DIALOG_INTERACTION
  5: 0x0172 [0x21] END_EVENT
  6: 0x0173 [0x00] END_REQSTACK()
```

### Event 190

#### Metadata

| Field        | Value    |
|--------------|----------|
| Entrypoint   | 0x0174   |
| Data Size    | 29 bytes |
| Instructions | 7        |

```
      00 01 02 03 04 05 06 07  08 09 0A 0B 0C 0D 0E 0F
      -- -- -- -- -- -- -- --  -- -- -- -- -- -- -- --
0170:             1E F0 FF FF  7F 1C 00 80 66 01 80 F8      ........f...
0180: FF FF 7F F8 FF FF 7F 74  6C 6B 30 1D 15 80 23 21  .......tlk0...#!
0190: 00                                                .               
```

#### Opcodes

```
  0: 0x0174 [0x1E] EventEntity looks at LocalPlayer and starts talking
  1: 0x0179 [0x1C] WAIT(30* ticks)
  2: 0x017C [0x66] LOAD_EXT_SCHEDULER_MAIN: Load scheduler "tlk0" with entities [EventEntity, EventEntity], work=69*
  3: 0x018B [0x1D] PRINT_EVENT_MESSAGE(message_id=13188*)
    → "I hear you're taking part in the large-scale manhunt for Darksteel Hurricane out at the Vunkerl Inlet. You'd better keep your eyes peeled and your ears open if want to come back with your limbs intact--errr...I mean, you be careful out there, <Player>!"
  4: 0x018E [0x23] WAIT_FOR_DIALOG_INTERACTION
  5: 0x018F [0x21] END_EVENT
  6: 0x0190 [0x00] END_REQSTACK()
```

### Event 191

#### Metadata

| Field        | Value    |
|--------------|----------|
| Entrypoint   | 0x0191   |
| Data Size    | 29 bytes |
| Instructions | 7        |

```
      00 01 02 03 04 05 06 07  08 09 0A 0B 0C 0D 0E 0F
      -- -- -- -- -- -- -- --  -- -- -- -- -- -- -- --
0190:    1E F0 FF FF 7F 1C 00  80 66 01 80 F8 FF FF 7F   ........f......
01A0: F8 FF FF 7F 74 6C 6B 30  1D 16 80 23 21 00        ....tlk0...#!.  
```

#### Opcodes

```
  0: 0x0191 [0x1E] EventEntity looks at LocalPlayer and starts talking
  1: 0x0196 [0x1C] WAIT(30* ticks)
  2: 0x0199 [0x66] LOAD_EXT_SCHEDULER_MAIN: Load scheduler "tlk0" with entities [EventEntity, EventEntity], work=69*
  3: 0x01A8 [0x1D] PRINT_EVENT_MESSAGE(message_id=13189*)
    → "So the intelligence provided by that Goblin--Limpears, was it?--proved to be the real deal. If you run into the little fella again, tell him I apologize for my churlishness the other day."
  4: 0x01AB [0x23] WAIT_FOR_DIALOG_INTERACTION
  5: 0x01AC [0x21] END_EVENT
  6: 0x01AD [0x00] END_REQSTACK()
```

### Event 184

#### Metadata

| Field        | Value   |
|--------------|---------|
| Entrypoint   | 0x01AE  |
| Data Size    | 1 bytes |
| Instructions | 1       |

```
      00 01 02 03 04 05 06 07  08 09 0A 0B 0C 0D 0E 0F
      -- -- -- -- -- -- -- --  -- -- -- -- -- -- -- --
01A0:                                            00                   . 
```

#### Opcodes

```
  0: 0x01AE [0x00] END_REQSTACK()
```

### Event 67

#### Metadata

| Field        | Value    |
|--------------|----------|
| Entrypoint   | 0x01AF   |
| Data Size    | 29 bytes |
| Instructions | 7        |

```
      00 01 02 03 04 05 06 07  08 09 0A 0B 0C 0D 0E 0F
      -- -- -- -- -- -- -- --  -- -- -- -- -- -- -- --
01A0:                                               1E                 .
01B0: F0 FF FF 7F 1C 00 80 66  01 80 F8 FF FF 7F F8 FF  .......f........
01C0: FF 7F 74 6C 6B 30 1D 17  80 23 21 00              ..tlk0...#!.    
```

#### Opcodes

```
  0: 0x01AF [0x1E] EventEntity looks at LocalPlayer and starts talking
  1: 0x01B4 [0x1C] WAIT(30* ticks)
  2: 0x01B7 [0x66] LOAD_EXT_SCHEDULER_MAIN: Load scheduler "tlk0" with entities [EventEntity, EventEntity], work=69*
  3: 0x01C6 [0x1D] PRINT_EVENT_MESSAGE(message_id=13321*)
    → "You're looking for Five Moons and Nicolaus? The two of them departed for the Vunkerl Inlet a short while ago in utter silence. I wonder why they'd want to go back there..."
  4: 0x01C9 [0x23] WAIT_FOR_DIALOG_INTERACTION
  5: 0x01CA [0x21] END_EVENT
  6: 0x01CB [0x00] END_REQSTACK()
```

### Event 68

#### Metadata

| Field        | Value    |
|--------------|----------|
| Entrypoint   | 0x01CC   |
| Data Size    | 70 bytes |
| Instructions | 16       |

```
      00 01 02 03 04 05 06 07  08 09 0A 0B 0C 0D 0E 0F
      -- -- -- -- -- -- -- --  -- -- -- -- -- -- -- --
01C0:                                      42 1E F0 FF              B...
01D0: FF 7F 1C 00 80 1D 18 80  23 66 01 80 F8 FF FF 7F  ........#f......
01E0: F8 FF FF 7F 74 6C 6B 30  03 02 10 19 80 1D 1A 80  ....tlk0........
01F0: 23 66 01 80 F8 FF FF 7F  F8 FF FF 7F 74 6C 6B 31  #f..........tlk1
0200: 6E F8 FF FF 7F 05 80 99  F8 FF FF 7F 1D 1B 80 23  n..............#
0210: 21 00                                             !.              
```

#### Opcodes

```
  0: 0x01CC [0x42] SET_CLI_EVENT_CANCEL_DATA()
  1: 0x01CD [0x1E] EventEntity looks at LocalPlayer and starts talking
  2: 0x01D2 [0x1C] WAIT(30* ticks)
  3: 0x01D5 [0x1D] PRINT_EVENT_MESSAGE(message_id=13322*)
    → "Oh, hello there, <Player>. Is there something I can help you with?"
  4: 0x01D8 [0x23] WAIT_FOR_DIALOG_INTERACTION
  5: 0x01D9 [0x66] LOAD_EXT_SCHEDULER_MAIN: Load scheduler "tlk0" with entities [EventEntity, EventEntity], work=69*
  6: 0x01E8 [0x03] Work_Zone[2] = 1069*
  7: 0x01ED [0x1D] PRINT_EVENT_MESSAGE(message_id=13323*)
    → "Nicolaus has asked you to fetch $6, you say?"
  8: 0x01F0 [0x23] WAIT_FOR_DIALOG_INTERACTION
  9: 0x01F1 [0x66] LOAD_EXT_SCHEDULER_MAIN: Load scheduler "tlk1" with entities [EventEntity, EventEntity], work=69*
 10: 0x0200 [0x6E] EventEntity uses emote 0*
 11: 0x0207 [0x99] Wait for EventEntity animation to complete
 12: 0x020C [0x1D] PRINT_EVENT_MESSAGE(message_id=13324*)
    → "Well, you're in luck, because I was issued one of these babies just yesterday for use in riot control. You can have it, as long as you promise to think of your friend Gentle Tiger when tossing it into an unsuspecting swarm of hostiles."
 13: 0x020F [0x23] WAIT_FOR_DIALOG_INTERACTION
 14: 0x0210 [0x21] END_EVENT
 15: 0x0211 [0x00] END_REQSTACK()
```

### Event 69

#### Metadata

| Field        | Value    |
|--------------|----------|
| Entrypoint   | 0x0212   |
| Data Size    | 34 bytes |
| Instructions | 8        |

```
      00 01 02 03 04 05 06 07  08 09 0A 0B 0C 0D 0E 0F
      -- -- -- -- -- -- -- --  -- -- -- -- -- -- -- --
0210:       1E F0 FF FF 7F 1C  00 80 66 01 80 F8 FF FF    ........f.....
0220: 7F F8 FF FF 7F 74 6C 6B  30 03 02 10 19 80 1D 1C  .....tlk0.......
0230: 80 23 21 00                                       .#!.            
```

#### Opcodes

```
  0: 0x0212 [0x1E] EventEntity looks at LocalPlayer and starts talking
  1: 0x0217 [0x1C] WAIT(30* ticks)
  2: 0x021A [0x66] LOAD_EXT_SCHEDULER_MAIN: Load scheduler "tlk0" with entities [EventEntity, EventEntity], work=69*
  3: 0x0229 [0x03] Work_Zone[2] = 1069*
  4: 0x022E [0x1D] PRINT_EVENT_MESSAGE(message_id=13325*)
    → "Don't keep Nicolaus waiting for the $3, now. Off you go."
  5: 0x0231 [0x23] WAIT_FOR_DIALOG_INTERACTION
  6: 0x0232 [0x21] END_EVENT
  7: 0x0233 [0x00] END_REQSTACK()
```

### Event 70

#### Metadata

| Field        | Value    |
|--------------|----------|
| Entrypoint   | 0x0234   |
| Data Size    | 35 bytes |
| Instructions | 9        |

```
      00 01 02 03 04 05 06 07  08 09 0A 0B 0C 0D 0E 0F
      -- -- -- -- -- -- -- --  -- -- -- -- -- -- -- --
0230:             42 1E F0 FF  FF 7F 1C 00 80 66 01 80      B........f..
0240: F8 FF FF 7F F8 FF FF 7F  74 6C 6B 30 03 02 10 19  ........tlk0....
0250: 80 1D 1D 80 23 21 00                              ....#!.         
```

#### Opcodes

```
  0: 0x0234 [0x42] SET_CLI_EVENT_CANCEL_DATA()
  1: 0x0235 [0x1E] EventEntity looks at LocalPlayer and starts talking
  2: 0x023A [0x1C] WAIT(30* ticks)
  3: 0x023D [0x66] LOAD_EXT_SCHEDULER_MAIN: Load scheduler "tlk0" with entities [EventEntity, EventEntity], work=69*
  4: 0x024C [0x03] Work_Zone[2] = 1069*
  5: 0x0251 [0x1D] PRINT_EVENT_MESSAGE(message_id=13326*)
    → "What? You want another $3? I suppose I could give you my spare, but then, how am I supposed to keep myself entertained during those long, tedious night shifts? <Sigh>... Alright, alright! I'll let you have it! Just stop staring at me like that!"
  6: 0x0254 [0x23] WAIT_FOR_DIALOG_INTERACTION
  7: 0x0255 [0x21] END_EVENT
  8: 0x0256 [0x00] END_REQSTACK()
```

### Event 71

#### Metadata

| Field        | Value   |
|--------------|---------|
| Entrypoint   | 0x0257  |
| Data Size    | 1 bytes |
| Instructions | 1       |

```
      00 01 02 03 04 05 06 07  08 09 0A 0B 0C 0D 0E 0F
      -- -- -- -- -- -- -- --  -- -- -- -- -- -- -- --
0250:                      00                                  .        
```

#### Opcodes

```
  0: 0x0257 [0x00] END_REQSTACK()
```

### Event 72

#### Metadata

| Field        | Value    |
|--------------|----------|
| Entrypoint   | 0x0258   |
| Data Size    | 29 bytes |
| Instructions | 7        |

```
      00 01 02 03 04 05 06 07  08 09 0A 0B 0C 0D 0E 0F
      -- -- -- -- -- -- -- --  -- -- -- -- -- -- -- --
0250:                          1E F0 FF FF 7F 1C 00 80          ........
0260: 66 01 80 F8 FF FF 7F F8  FF FF 7F 74 6C 6B 30 1D  f..........tlk0.
0270: 1E 80 23 21 00                                    ..#!.           
```

#### Opcodes

```
  0: 0x0258 [0x1E] EventEntity looks at LocalPlayer and starts talking
  1: 0x025D [0x1C] WAIT(30* ticks)
  2: 0x0260 [0x66] LOAD_EXT_SCHEDULER_MAIN: Load scheduler "tlk0" with entities [EventEntity, EventEntity], work=69*
  3: 0x026F [0x1D] PRINT_EVENT_MESSAGE(message_id=13386*)
    → "<Player>! You're the Republic's only hope! Please don't abandon us in this hour of need!"
  4: 0x0272 [0x23] WAIT_FOR_DIALOG_INTERACTION
  5: 0x0273 [0x21] END_EVENT
  6: 0x0274 [0x00] END_REQSTACK()
```

### Event 66

#### Metadata

| Field        | Value   |
|--------------|---------|
| Entrypoint   | 0x0275  |
| Data Size    | 1 bytes |
| Instructions | 1       |

```
      00 01 02 03 04 05 06 07  08 09 0A 0B 0C 0D 0E 0F
      -- -- -- -- -- -- -- --  -- -- -- -- -- -- -- --
0270:                00                                      .          
```

#### Opcodes

```
  0: 0x0275 [0x00] END_REQSTACK()
```

### Event 351

#### Metadata

| Field        | Value    |
|--------------|----------|
| Entrypoint   | 0x0276   |
| Data Size    | 29 bytes |
| Instructions | 7        |

```
      00 01 02 03 04 05 06 07  08 09 0A 0B 0C 0D 0E 0F
      -- -- -- -- -- -- -- --  -- -- -- -- -- -- -- --
0270:                   1E F0  FF FF 7F 1C 00 80 66 01        ........f.
0280: 80 F8 FF FF 7F F8 FF FF  7F 74 6C 6B 30 1D 1F 80  .........tlk0...
0290: 23 21 00                                          #!.             
```

#### Opcodes

```
  0: 0x0276 [0x1E] EventEntity looks at LocalPlayer and starts talking
  1: 0x027B [0x1C] WAIT(30* ticks)
  2: 0x027E [0x66] LOAD_EXT_SCHEDULER_MAIN: Load scheduler "tlk0" with entities [EventEntity, EventEntity], work=69*
  3: 0x028D [0x1D] PRINT_EVENT_MESSAGE(message_id=13503*)
    → "Nicolaus and Five Moons have already left for Beadeaux. Weren't you going to join them?"
  4: 0x0290 [0x23] WAIT_FOR_DIALOG_INTERACTION
  5: 0x0291 [0x21] END_EVENT
  6: 0x0292 [0x00] END_REQSTACK()
```

### Event 352

#### Metadata

| Field        | Value    |
|--------------|----------|
| Entrypoint   | 0x0293   |
| Data Size    | 29 bytes |
| Instructions | 7        |

```
      00 01 02 03 04 05 06 07  08 09 0A 0B 0C 0D 0E 0F
      -- -- -- -- -- -- -- --  -- -- -- -- -- -- -- --
0290:          1E F0 FF FF 7F  1C 00 80 66 01 80 F8 FF     ........f....
02A0: FF 7F F8 FF FF 7F 74 6C  6B 30 1D 20 80 23 21 00  ......tlk0. .#!.
```

#### Opcodes

```
  0: 0x0293 [0x1E] EventEntity looks at LocalPlayer and starts talking
  1: 0x0298 [0x1C] WAIT(30* ticks)
  2: 0x029B [0x66] LOAD_EXT_SCHEDULER_MAIN: Load scheduler "tlk0" with entities [EventEntity, EventEntity], work=69*
  3: 0x02AA [0x1D] PRINT_EVENT_MESSAGE(message_id=13504*)
    → "Your comrades just left for the Eldieme Necropolis. Said they had urgent business with Captain Herbert?"
  4: 0x02AD [0x23] WAIT_FOR_DIALOG_INTERACTION
  5: 0x02AE [0x21] END_EVENT
  6: 0x02AF [0x00] END_REQSTACK()
```

### Event 353

#### Metadata

| Field        | Value    |
|--------------|----------|
| Entrypoint   | 0x02B0   |
| Data Size    | 33 bytes |
| Instructions | 9        |

```
      00 01 02 03 04 05 06 07  08 09 0A 0B 0C 0D 0E 0F
      -- -- -- -- -- -- -- --  -- -- -- -- -- -- -- --
02B0: 1E F0 FF FF 7F 1C 00 80  66 01 80 F8 FF FF 7F F8  ........f.......
02C0: FF FF 7F 74 6C 6B 30 1D  21 80 23 1D 22 80 23 21  ...tlk0.!.#.".#!
02D0: 00                                                .               
```

#### Opcodes

```
  0: 0x02B0 [0x1E] EventEntity looks at LocalPlayer and starts talking
  1: 0x02B5 [0x1C] WAIT(30* ticks)
  2: 0x02B8 [0x66] LOAD_EXT_SCHEDULER_MAIN: Load scheduler "tlk0" with entities [EventEntity, EventEntity], work=69*
  3: 0x02C7 [0x1D] PRINT_EVENT_MESSAGE(message_id=13505*)
    → "Nicolaus said he and Five Moons were headed for Beaucedine! What errand calls them to such a dangerous place?"
  4: 0x02CA [0x23] WAIT_FOR_DIALOG_INTERACTION
  5: 0x02CB [0x1D] PRINT_EVENT_MESSAGE(message_id=13506*)
    → "What? You're going too!? Take care of yourself, <Player>. The monsters prowling that Goddess-forsaken glacier are something fierce!"
  6: 0x02CE [0x23] WAIT_FOR_DIALOG_INTERACTION
  7: 0x02CF [0x21] END_EVENT
  8: 0x02D0 [0x00] END_REQSTACK()
```

### Event 354

#### Metadata

| Field        | Value    |
|--------------|----------|
| Entrypoint   | 0x02D1   |
| Data Size    | 29 bytes |
| Instructions | 7        |

```
      00 01 02 03 04 05 06 07  08 09 0A 0B 0C 0D 0E 0F
      -- -- -- -- -- -- -- --  -- -- -- -- -- -- -- --
02D0:    1E F0 FF FF 7F 1C 00  80 66 01 80 F8 FF FF 7F   ........f......
02E0: F8 FF FF 7F 74 6C 6B 30  1D 23 80 23 21 00        ....tlk0.#.#!.  
```

#### Opcodes

```
  0: 0x02D1 [0x1E] EventEntity looks at LocalPlayer and starts talking
  1: 0x02D6 [0x1C] WAIT(30* ticks)
  2: 0x02D9 [0x66] LOAD_EXT_SCHEDULER_MAIN: Load scheduler "tlk0" with entities [EventEntity, EventEntity], work=69*
  3: 0x02E8 [0x1D] PRINT_EVENT_MESSAGE(message_id=13507*)
    → "How can you just stroll around here while Zeid rots away in Benedikt Watchtower? Have a heart, <Player>!"
  4: 0x02EB [0x23] WAIT_FOR_DIALOG_INTERACTION
  5: 0x02EC [0x21] END_EVENT
  6: 0x02ED [0x00] END_REQSTACK()
```

### Event 355

#### Metadata

| Field        | Value    |
|--------------|----------|
| Entrypoint   | 0x02EE   |
| Data Size    | 29 bytes |
| Instructions | 7        |

```
      00 01 02 03 04 05 06 07  08 09 0A 0B 0C 0D 0E 0F
      -- -- -- -- -- -- -- --  -- -- -- -- -- -- -- --
02E0:                                            1E F0                ..
02F0: FF FF 7F 1C 00 80 66 01  80 F8 FF FF 7F F8 FF FF  ......f.........
0300: 7F 74 6C 6B 30 1D 24 80  23 21 00                 .tlk0.$.#!.     
```

#### Opcodes

```
  0: 0x02EE [0x1E] EventEntity looks at LocalPlayer and starts talking
  1: 0x02F3 [0x1C] WAIT(30* ticks)
  2: 0x02F6 [0x66] LOAD_EXT_SCHEDULER_MAIN: Load scheduler "tlk0" with entities [EventEntity, EventEntity], work=69*
  3: 0x0305 [0x1D] PRINT_EVENT_MESSAGE(message_id=13508*)
    → "The President--no, the whole Republic--is counting on you, <Player>. You must make for Xarcabard!"
  4: 0x0308 [0x23] WAIT_FOR_DIALOG_INTERACTION
  5: 0x0309 [0x21] END_EVENT
  6: 0x030A [0x00] END_REQSTACK()
```

### Event 356

#### Metadata

| Field        | Value    |
|--------------|----------|
| Entrypoint   | 0x030B   |
| Data Size    | 29 bytes |
| Instructions | 7        |

```
      00 01 02 03 04 05 06 07  08 09 0A 0B 0C 0D 0E 0F
      -- -- -- -- -- -- -- --  -- -- -- -- -- -- -- --
0300:                                   1E F0 FF FF 7F             .....
0310: 1C 00 80 66 01 80 F8 FF  FF 7F F8 FF FF 7F 74 6C  ...f..........tl
0320: 6B 30 1D 25 80 23 21 00                           k0.%.#!.        
```

#### Opcodes

```
  0: 0x030B [0x1E] EventEntity looks at LocalPlayer and starts talking
  1: 0x0310 [0x1C] WAIT(30* ticks)
  2: 0x0313 [0x66] LOAD_EXT_SCHEDULER_MAIN: Load scheduler "tlk0" with entities [EventEntity, EventEntity], work=69*
  3: 0x0322 [0x1D] PRINT_EVENT_MESSAGE(message_id=13511*)
    → "We may have driven the beastmen back, but their advance will not be stayed so easily. Stay wary, <Player>!"
  4: 0x0325 [0x23] WAIT_FOR_DIALOG_INTERACTION
  5: 0x0326 [0x21] END_EVENT
  6: 0x0327 [0x00] END_REQSTACK()
```

### Event 357

#### Metadata

| Field        | Value    |
|--------------|----------|
| Entrypoint   | 0x0328   |
| Data Size    | 39 bytes |
| Instructions | 11       |

```
      00 01 02 03 04 05 06 07  08 09 0A 0B 0C 0D 0E 0F
      -- -- -- -- -- -- -- --  -- -- -- -- -- -- -- --
0320:                          42 1E F0 FF FF 7F 1C 00          B.......
0330: 80 66 01 80 F8 FF FF 7F  F8 FF FF 7F 74 6C 6B 30  .f..........tlk0
0340: 03 02 10 26 80 1D 27 80  23 1D 28 80 23 21 00     ...&..'.#.(.#!. 
```

#### Opcodes

```
  0: 0x0328 [0x42] SET_CLI_EVENT_CANCEL_DATA()
  1: 0x0329 [0x1E] EventEntity looks at LocalPlayer and starts talking
  2: 0x032E [0x1C] WAIT(30* ticks)
  3: 0x0331 [0x66] LOAD_EXT_SCHEDULER_MAIN: Load scheduler "tlk0" with entities [EventEntity, EventEntity], work=69*
  4: 0x0340 [0x03] Work_Zone[2] = 1172*
  5: 0x0345 [0x1D] PRINT_EVENT_MESSAGE(message_id=13509*)
    → "What!? You've lost your $3? I'd expected better of you, <Player>!"
  6: 0x0348 [0x23] WAIT_FOR_DIALOG_INTERACTION
  7: 0x0349 [0x1D] PRINT_EVENT_MESSAGE(message_id=13510*)
    → "If it were me, sure, I'm dropping and fumbling things all the time--why do you think I'm still a doorman after all these years?--but you... Anyway, here's a spare copy for you. Try to hold on to this one!"
  8: 0x034C [0x23] WAIT_FOR_DIALOG_INTERACTION
  9: 0x034D [0x21] END_EVENT
 10: 0x034E [0x00] END_REQSTACK()
```

### Event 212

#### Metadata

| Field        | Value    |
|--------------|----------|
| Entrypoint   | 0x034F   |
| Data Size    | 33 bytes |
| Instructions | 9        |

```
      00 01 02 03 04 05 06 07  08 09 0A 0B 0C 0D 0E 0F
      -- -- -- -- -- -- -- --  -- -- -- -- -- -- -- --
0340:                                               1E                 .
0350: F0 FF FF 7F 1C 00 80 66  01 80 F8 FF FF 7F F8 FF  .......f........
0360: FF 7F 74 6C 6B 30 1D 29  80 23 1D 2A 80 23 21 00  ..tlk0.).#.*.#!.
```

#### Opcodes

```
  0: 0x034F [0x1E] EventEntity looks at LocalPlayer and starts talking
  1: 0x0354 [0x1C] WAIT(30* ticks)
  2: 0x0357 [0x66] LOAD_EXT_SCHEDULER_MAIN: Load scheduler "tlk0" with entities [EventEntity, EventEntity], work=69*
  3: 0x0366 [0x1D] PRINT_EVENT_MESSAGE(message_id=13534*)
    → "You're still here, <Player>? Zeid and the others have already left for Castle Zvahl."
  4: 0x0369 [0x23] WAIT_FOR_DIALOG_INTERACTION
  5: 0x036A [0x1D] PRINT_EVENT_MESSAGE(message_id=13535*)
    → "If only I could join you! Why, I'd have that Shadow Lord crying for mercy before he could so much as raise that twisted, towering blade of his...sharp enough to, uh...cleave a full-grown Galka c-clean in... Er, ah...on second thought, never mind that. Safe travels!"
  6: 0x036D [0x23] WAIT_FOR_DIALOG_INTERACTION
  7: 0x036E [0x21] END_EVENT
  8: 0x036F [0x00] END_REQSTACK()
```

### Event 213

#### Metadata

| Field        | Value   |
|--------------|---------|
| Entrypoint   | 0x0370  |
| Data Size    | 7 bytes |
| Instructions | 2       |

```
      00 01 02 03 04 05 06 07  08 09 0A 0B 0C 0D 0E 0F
      -- -- -- -- -- -- -- --  -- -- -- -- -- -- -- --
0370: 92 01 F8 FF FF 7F 00                              .......         
```

#### Opcodes

```
  0: 0x0370 [0x92] EventEntity->Render.Flags3 ^= 0x01
  1: 0x0376 [0x00] END_REQSTACK()
```

### Event 216

#### Metadata

| Field        | Value   |
|--------------|---------|
| Entrypoint   | 0x0377  |
| Data Size    | 7 bytes |
| Instructions | 2       |

```
      00 01 02 03 04 05 06 07  08 09 0A 0B 0C 0D 0E 0F
      -- -- -- -- -- -- -- --  -- -- -- -- -- -- -- --
0370:                      92  01 F8 FF FF 7F 00               .......  
```

#### Opcodes

```
  0: 0x0377 [0x92] EventEntity->Render.Flags3 ^= 0x01
  1: 0x037D [0x00] END_REQSTACK()
```

### Event 214

#### Metadata

| Field        | Value    |
|--------------|----------|
| Entrypoint   | 0x037E   |
| Data Size    | 33 bytes |
| Instructions | 9        |

```
      00 01 02 03 04 05 06 07  08 09 0A 0B 0C 0D 0E 0F
      -- -- -- -- -- -- -- --  -- -- -- -- -- -- -- --
0370:                                            1E F0                ..
0380: FF FF 7F 1C 00 80 66 01  80 F8 FF FF 7F F8 FF FF  ......f.........
0390: 7F 74 6C 6B 30 1D 2B 80  23 1D 2C 80 23 21 00     .tlk0.+.#.,.#!. 
```

#### Opcodes

```
  0: 0x037E [0x1E] EventEntity looks at LocalPlayer and starts talking
  1: 0x0383 [0x1C] WAIT(30* ticks)
  2: 0x0386 [0x66] LOAD_EXT_SCHEDULER_MAIN: Load scheduler "tlk0" with entities [EventEntity, EventEntity], work=69*
  3: 0x0395 [0x1D] PRINT_EVENT_MESSAGE(message_id=13567*)
    → "With the Mythril Musketeers back in action, the Republic truly has nothing to fear!"
  4: 0x0398 [0x23] WAIT_FOR_DIALOG_INTERACTION
  5: 0x0399 [0x1D] PRINT_EVENT_MESSAGE(message_id=13568*)
    → "I was holdin' out that my efforts might've warranted a decoration from the President as well. Hey, keepin' this door here safe from the beastman onslaught isn't easy, you know! Ah, well. There's always next time."
  6: 0x039C [0x23] WAIT_FOR_DIALOG_INTERACTION
  7: 0x039D [0x21] END_EVENT
  8: 0x039E [0x00] END_REQSTACK()
```

### Event 65535.1

#### Metadata

| Field        | Value    |
|--------------|----------|
| Entrypoint   | 0x039F   |
| Data Size    | 16 bytes |
| Instructions | 2        |

```
      00 01 02 03 04 05 06 07  08 09 0A 0B 0C 0D 0E 0F
      -- -- -- -- -- -- -- --  -- -- -- -- -- -- -- --
0390:                                               66                 f
03A0: 01 80 F8 FF FF 7F F8 FF  FF 7F 74 6C 6B 30 00     ..........tlk0. 
```

#### Opcodes

```
  0: 0x039F [0x66] LOAD_EXT_SCHEDULER_MAIN: Load scheduler "tlk0" with entities [EventEntity, EventEntity], work=69*
  1: 0x03AE [0x00] END_REQSTACK()
```

### Event 65535.2

#### Metadata

| Field        | Value    |
|--------------|----------|
| Entrypoint   | 0x03AF   |
| Data Size    | 14 bytes |
| Instructions | 2        |

```
      00 01 02 03 04 05 06 07  08 09 0A 0B 0C 0D 0E 0F
      -- -- -- -- -- -- -- --  -- -- -- -- -- -- -- --
03A0:                                               53                 S
03B0: F8 FF FF 7F F8 FF FF 7F  74 6C 6B 30 00           ........tlk0.   
```

#### Opcodes

```
  0: 0x03AF [0x53] WAIT_SCHEDULER_TASK: Wait for scheduler "tlk0" with entities [EventEntity, EventEntity]
  1: 0x03BC [0x00] END_REQSTACK()
```

### Event 65535.3

#### Metadata

| Field        | Value    |
|--------------|----------|
| Entrypoint   | 0x03BD   |
| Data Size    | 16 bytes |
| Instructions | 2        |

```
      00 01 02 03 04 05 06 07  08 09 0A 0B 0C 0D 0E 0F
      -- -- -- -- -- -- -- --  -- -- -- -- -- -- -- --
03B0:                                         66 01 80               f..
03C0: F8 FF FF 7F F8 FF FF 7F  74 6C 6B 31 00           ........tlk1.   
```

#### Opcodes

```
  0: 0x03BD [0x66] LOAD_EXT_SCHEDULER_MAIN: Load scheduler "tlk1" with entities [EventEntity, EventEntity], work=69*
  1: 0x03CC [0x00] END_REQSTACK()
```

### Event 65535.4

#### Metadata

| Field        | Value    |
|--------------|----------|
| Entrypoint   | 0x03CD   |
| Data Size    | 14 bytes |
| Instructions | 2        |

```
      00 01 02 03 04 05 06 07  08 09 0A 0B 0C 0D 0E 0F
      -- -- -- -- -- -- -- --  -- -- -- -- -- -- -- --
03C0:                                         53 F8 FF               S..
03D0: FF 7F F8 FF FF 7F 74 6C  6B 31 00                 ......tlk1.     
```

#### Opcodes

```
  0: 0x03CD [0x53] WAIT_SCHEDULER_TASK: Wait for scheduler "tlk1" with entities [EventEntity, EventEntity]
  1: 0x03DA [0x00] END_REQSTACK()
```

### Event 65535.5

#### Metadata

| Field        | Value    |
|--------------|----------|
| Entrypoint   | 0x03DB   |
| Data Size    | 16 bytes |
| Instructions | 2        |

```
      00 01 02 03 04 05 06 07  08 09 0A 0B 0C 0D 0E 0F
      -- -- -- -- -- -- -- --  -- -- -- -- -- -- -- --
03D0:                                   66 2D 80 F8 FF             f-...
03E0: FF 7F F8 FF FF 7F 70 61  73 30 00                 ......pas0.     
```

#### Opcodes

```
  0: 0x03DB [0x66] LOAD_EXT_SCHEDULER_MAIN: Load scheduler "pas0" with entities [EventEntity, EventEntity], work=131*
  1: 0x03EA [0x00] END_REQSTACK()
```

### Event 65535.6

#### Metadata

| Field        | Value    |
|--------------|----------|
| Entrypoint   | 0x03EB   |
| Data Size    | 14 bytes |
| Instructions | 2        |

```
      00 01 02 03 04 05 06 07  08 09 0A 0B 0C 0D 0E 0F
      -- -- -- -- -- -- -- --  -- -- -- -- -- -- -- --
03E0:                                   53 F8 FF FF 7F             S....
03F0: F8 FF FF 7F 70 61 73 30  00                       ....pas0.       
```

#### Opcodes

```
  0: 0x03EB [0x53] WAIT_SCHEDULER_TASK: Wait for scheduler "pas0" with entities [EventEntity, EventEntity]
  1: 0x03F8 [0x00] END_REQSTACK()
```

### Event 65535.7

#### Metadata

| Field        | Value    |
|--------------|----------|
| Entrypoint   | 0x03F9   |
| Data Size    | 16 bytes |
| Instructions | 2        |

```
      00 01 02 03 04 05 06 07  08 09 0A 0B 0C 0D 0E 0F
      -- -- -- -- -- -- -- --  -- -- -- -- -- -- -- --
03F0:                             66 01 80 F8 FF FF 7F           f......
0400: F8 FF FF 7F 74 68 6B 31  00                       ....thk1.       
```

#### Opcodes

```
  0: 0x03F9 [0x66] LOAD_EXT_SCHEDULER_MAIN: Load scheduler "thk1" with entities [EventEntity, EventEntity], work=69*
  1: 0x0408 [0x00] END_REQSTACK()
```

### Event 65535.8

#### Metadata

| Field        | Value    |
|--------------|----------|
| Entrypoint   | 0x0409   |
| Data Size    | 14 bytes |
| Instructions | 2        |

```
      00 01 02 03 04 05 06 07  08 09 0A 0B 0C 0D 0E 0F
      -- -- -- -- -- -- -- --  -- -- -- -- -- -- -- --
0400:                             53 F8 FF FF 7F F8 FF           S......
0410: FF 7F 74 68 6B 31 00                              ..thk1.         
```

#### Opcodes

```
  0: 0x0409 [0x53] WAIT_SCHEDULER_TASK: Wait for scheduler "thk1" with entities [EventEntity, EventEntity]
  1: 0x0416 [0x00] END_REQSTACK()
```

### Event 65535.9

#### Metadata

| Field        | Value    |
|--------------|----------|
| Entrypoint   | 0x0417   |
| Data Size    | 16 bytes |
| Instructions | 2        |

```
      00 01 02 03 04 05 06 07  08 09 0A 0B 0C 0D 0E 0F
      -- -- -- -- -- -- -- --  -- -- -- -- -- -- -- --
0410:                      66  01 80 F8 FF FF 7F F8 FF         f........
0420: FF 7F 74 68 6B 32 00                              ..thk2.         
```

#### Opcodes

```
  0: 0x0417 [0x66] LOAD_EXT_SCHEDULER_MAIN: Load scheduler "thk2" with entities [EventEntity, EventEntity], work=69*
  1: 0x0426 [0x00] END_REQSTACK()
```

### Event 65535.10

#### Metadata

| Field        | Value    |
|--------------|----------|
| Entrypoint   | 0x0427   |
| Data Size    | 14 bytes |
| Instructions | 2        |

```
      00 01 02 03 04 05 06 07  08 09 0A 0B 0C 0D 0E 0F
      -- -- -- -- -- -- -- --  -- -- -- -- -- -- -- --
0420:                      53  F8 FF FF 7F F8 FF FF 7F         S........
0430: 74 68 6B 32 00                                    thk2.           
```

#### Opcodes

```
  0: 0x0427 [0x53] WAIT_SCHEDULER_TASK: Wait for scheduler "thk2" with entities [EventEntity, EventEntity]
  1: 0x0434 [0x00] END_REQSTACK()
```

### Event 65535.11

#### Metadata

| Field        | Value    |
|--------------|----------|
| Entrypoint   | 0x0435   |
| Data Size    | 16 bytes |
| Instructions | 4        |

```
      00 01 02 03 04 05 06 07  08 09 0A 0B 0C 0D 0E 0F
      -- -- -- -- -- -- -- --  -- -- -- -- -- -- -- --
0430:                6E F8 FF  FF 7F 2E 80 99 F8 FF FF       n..........
0440: 7F 1C 2F 80 00                                    ../..           
```

#### Opcodes

```
  0: 0x0435 [0x6E] EventEntity uses emote 21*
  1: 0x043C [0x99] Wait for EventEntity animation to complete
  2: 0x0441 [0x1C] WAIT(60* ticks)
  3: 0x0444 [0x00] END_REQSTACK()
```

### Event 65535.12

#### Metadata

| Field        | Value    |
|--------------|----------|
| Entrypoint   | 0x0445   |
| Data Size    | 16 bytes |
| Instructions | 4        |

```
      00 01 02 03 04 05 06 07  08 09 0A 0B 0C 0D 0E 0F
      -- -- -- -- -- -- -- --  -- -- -- -- -- -- -- --
0440:                6E F8 FF  FF 7F 30 80 99 F8 FF FF       n....0.....
0450: 7F 1C 2F 80 00                                    ../..           
```

#### Opcodes

```
  0: 0x0445 [0x6E] EventEntity uses emote 7*
  1: 0x044C [0x99] Wait for EventEntity animation to complete
  2: 0x0451 [0x1C] WAIT(60* ticks)
  3: 0x0454 [0x00] END_REQSTACK()
```

### Event 65535.13

#### Metadata

| Field        | Value    |
|--------------|----------|
| Entrypoint   | 0x0455   |
| Data Size    | 16 bytes |
| Instructions | 4        |

```
      00 01 02 03 04 05 06 07  08 09 0A 0B 0C 0D 0E 0F
      -- -- -- -- -- -- -- --  -- -- -- -- -- -- -- --
0450:                6E F8 FF  FF 7F 31 80 99 F8 FF FF       n....1.....
0460: 7F 1C 2F 80 00                                    ../..           
```

#### Opcodes

```
  0: 0x0455 [0x6E] EventEntity uses emote 6*
  1: 0x045C [0x99] Wait for EventEntity animation to complete
  2: 0x0461 [0x1C] WAIT(60* ticks)
  3: 0x0464 [0x00] END_REQSTACK()
```

### Event 65535.14

#### Metadata

| Field        | Value    |
|--------------|----------|
| Entrypoint   | 0x0465   |
| Data Size    | 16 bytes |
| Instructions | 4        |

```
      00 01 02 03 04 05 06 07  08 09 0A 0B 0C 0D 0E 0F
      -- -- -- -- -- -- -- --  -- -- -- -- -- -- -- --
0460:                6E F8 FF  FF 7F 32 80 99 F8 FF FF       n....2.....
0470: 7F 1C 2F 80 00                                    ../..           
```

#### Opcodes

```
  0: 0x0465 [0x6E] EventEntity uses emote 11*
  1: 0x046C [0x99] Wait for EventEntity animation to complete
  2: 0x0471 [0x1C] WAIT(60* ticks)
  3: 0x0474 [0x00] END_REQSTACK()
```

### Event 65535.15

#### Metadata

| Field        | Value    |
|--------------|----------|
| Entrypoint   | 0x0475   |
| Data Size    | 16 bytes |
| Instructions | 4        |

```
      00 01 02 03 04 05 06 07  08 09 0A 0B 0C 0D 0E 0F
      -- -- -- -- -- -- -- --  -- -- -- -- -- -- -- --
0470:                6E F8 FF  FF 7F 33 80 99 F8 FF FF       n....3.....
0480: 7F 1C 2F 80 00                                    ../..           
```

#### Opcodes

```
  0: 0x0475 [0x6E] EventEntity uses emote 14*
  1: 0x047C [0x99] Wait for EventEntity animation to complete
  2: 0x0481 [0x1C] WAIT(60* ticks)
  3: 0x0484 [0x00] END_REQSTACK()
```

### Event 65535.16

#### Metadata

| Field        | Value    |
|--------------|----------|
| Entrypoint   | 0x0485   |
| Data Size    | 16 bytes |
| Instructions | 4        |

```
      00 01 02 03 04 05 06 07  08 09 0A 0B 0C 0D 0E 0F
      -- -- -- -- -- -- -- --  -- -- -- -- -- -- -- --
0480:                6E F8 FF  FF 7F 34 80 99 F8 FF FF       n....4.....
0490: 7F 1C 2F 80 00                                    ../..           
```

#### Opcodes

```
  0: 0x0485 [0x6E] EventEntity uses emote 4*
  1: 0x048C [0x99] Wait for EventEntity animation to complete
  2: 0x0491 [0x1C] WAIT(60* ticks)
  3: 0x0494 [0x00] END_REQSTACK()
```

### Event 65535.17

#### Metadata

| Field        | Value    |
|--------------|----------|
| Entrypoint   | 0x0495   |
| Data Size    | 16 bytes |
| Instructions | 4        |

```
      00 01 02 03 04 05 06 07  08 09 0A 0B 0C 0D 0E 0F
      -- -- -- -- -- -- -- --  -- -- -- -- -- -- -- --
0490:                6E F8 FF  FF 7F 03 80 99 F8 FF FF       n..........
04A0: 7F 1C 2F 80 00                                    ../..           
```

#### Opcodes

```
  0: 0x0495 [0x6E] EventEntity uses emote 19*
  1: 0x049C [0x99] Wait for EventEntity animation to complete
  2: 0x04A1 [0x1C] WAIT(60* ticks)
  3: 0x04A4 [0x00] END_REQSTACK()
```

### Event 65535.18

#### Metadata

| Field        | Value    |
|--------------|----------|
| Entrypoint   | 0x04A5   |
| Data Size    | 16 bytes |
| Instructions | 4        |

```
      00 01 02 03 04 05 06 07  08 09 0A 0B 0C 0D 0E 0F
      -- -- -- -- -- -- -- --  -- -- -- -- -- -- -- --
04A0:                6E F8 FF  FF 7F 35 80 99 F8 FF FF       n....5.....
04B0: 7F 1C 2F 80 00                                    ../..           
```

#### Opcodes

```
  0: 0x04A5 [0x6E] EventEntity uses emote 12*
  1: 0x04AC [0x99] Wait for EventEntity animation to complete
  2: 0x04B1 [0x1C] WAIT(60* ticks)
  3: 0x04B4 [0x00] END_REQSTACK()
```

### Event 65535.19

#### Metadata

| Field        | Value    |
|--------------|----------|
| Entrypoint   | 0x04B5   |
| Data Size    | 16 bytes |
| Instructions | 4        |

```
      00 01 02 03 04 05 06 07  08 09 0A 0B 0C 0D 0E 0F
      -- -- -- -- -- -- -- --  -- -- -- -- -- -- -- --
04B0:                6E F8 FF  FF 7F 35 80 99 F8 FF FF       n....5.....
04C0: 7F 1C 2F 80 00                                    ../..           
```

#### Opcodes

```
  0: 0x04B5 [0x6E] EventEntity uses emote 12*
  1: 0x04BC [0x99] Wait for EventEntity animation to complete
  2: 0x04C1 [0x1C] WAIT(60* ticks)
  3: 0x04C4 [0x00] END_REQSTACK()
```

### Event 65535.20

#### Metadata

| Field        | Value    |
|--------------|----------|
| Entrypoint   | 0x04C5   |
| Data Size    | 16 bytes |
| Instructions | 4        |

```
      00 01 02 03 04 05 06 07  08 09 0A 0B 0C 0D 0E 0F
      -- -- -- -- -- -- -- --  -- -- -- -- -- -- -- --
04C0:                6E F8 FF  FF 7F 36 80 99 F8 FF FF       n....6.....
04D0: 7F 1C 2F 80 00                                    ../..           
```

#### Opcodes

```
  0: 0x04C5 [0x6E] EventEntity uses emote 29*
  1: 0x04CC [0x99] Wait for EventEntity animation to complete
  2: 0x04D1 [0x1C] WAIT(60* ticks)
  3: 0x04D4 [0x00] END_REQSTACK()
```

### Event 65535.21

#### Metadata

| Field        | Value   |
|--------------|---------|
| Entrypoint   | 0x04D5  |
| Data Size    | 9 bytes |
| Instructions | 3       |

```
      00 01 02 03 04 05 06 07  08 09 0A 0B 0C 0D 0E 0F
      -- -- -- -- -- -- -- --  -- -- -- -- -- -- -- --
04D0:                5E 69 64  6C 30 1C 2F 80 00             ^idl0./..  
```

#### Opcodes

```
  0: 0x04D5 [0x5E] EventEntity goes idle (kills current action) (animation: "idl0")
  1: 0x04DA [0x1C] WAIT(60* ticks)
  2: 0x04DD [0x00] END_REQSTACK()
```

### Event 65535.22

#### Metadata

| Field        | Value    |
|--------------|----------|
| Entrypoint   | 0x04DE   |
| Data Size    | 16 bytes |
| Instructions | 2        |

```
      00 01 02 03 04 05 06 07  08 09 0A 0B 0C 0D 0E 0F
      -- -- -- -- -- -- -- --  -- -- -- -- -- -- -- --
04D0:                                            66 37                f7
04E0: 80 F8 FF FF 7F F8 FF FF  7F 74 6C 6B 30 00        .........tlk0.  
```

#### Opcodes

```
  0: 0x04DE [0x66] LOAD_EXT_SCHEDULER_MAIN: Load scheduler "tlk0" with entities [EventEntity, EventEntity], work=209*
  1: 0x04ED [0x00] END_REQSTACK()
```

### Event 65535.23

#### Metadata

| Field        | Value    |
|--------------|----------|
| Entrypoint   | 0x04EE   |
| Data Size    | 14 bytes |
| Instructions | 2        |

```
      00 01 02 03 04 05 06 07  08 09 0A 0B 0C 0D 0E 0F
      -- -- -- -- -- -- -- --  -- -- -- -- -- -- -- --
04E0:                                            53 F8                S.
04F0: FF FF 7F F8 FF FF 7F 74  6C 6B 30 00              .......tlk0.    
```

#### Opcodes

```
  0: 0x04EE [0x53] WAIT_SCHEDULER_TASK: Wait for scheduler "tlk0" with entities [EventEntity, EventEntity]
  1: 0x04FB [0x00] END_REQSTACK()
```

### Event 65535.24

#### Metadata

| Field        | Value    |
|--------------|----------|
| Entrypoint   | 0x04FC   |
| Data Size    | 16 bytes |
| Instructions | 2        |

```
      00 01 02 03 04 05 06 07  08 09 0A 0B 0C 0D 0E 0F
      -- -- -- -- -- -- -- --  -- -- -- -- -- -- -- --
04F0:                                      66 37 80 F8              f7..
0500: FF FF 7F F8 FF FF 7F 74  6C 6B 31 00              .......tlk1.    
```

#### Opcodes

```
  0: 0x04FC [0x66] LOAD_EXT_SCHEDULER_MAIN: Load scheduler "tlk1" with entities [EventEntity, EventEntity], work=209*
  1: 0x050B [0x00] END_REQSTACK()
```

### Event 65535.25

#### Metadata

| Field        | Value    |
|--------------|----------|
| Entrypoint   | 0x050C   |
| Data Size    | 14 bytes |
| Instructions | 2        |

```
      00 01 02 03 04 05 06 07  08 09 0A 0B 0C 0D 0E 0F
      -- -- -- -- -- -- -- --  -- -- -- -- -- -- -- --
0500:                                      53 F8 FF FF              S...
0510: 7F F8 FF FF 7F 74 6C 6B  31 00                    .....tlk1.      
```

#### Opcodes

```
  0: 0x050C [0x53] WAIT_SCHEDULER_TASK: Wait for scheduler "tlk1" with entities [EventEntity, EventEntity]
  1: 0x0519 [0x00] END_REQSTACK()
```

### Event 65535.26

#### Metadata

| Field        | Value   |
|--------------|---------|
| Entrypoint   | 0x051A  |
| Data Size    | 1 bytes |
| Instructions | 1       |

```
      00 01 02 03 04 05 06 07  08 09 0A 0B 0C 0D 0E 0F
      -- -- -- -- -- -- -- --  -- -- -- -- -- -- -- --
0510:                                00                           .     
```

#### Opcodes

```
  0: 0x051A [0x00] END_REQSTACK()
```

### Event 65535.27

#### Metadata

| Field        | Value   |
|--------------|---------|
| Entrypoint   | 0x051B  |
| Data Size    | 1 bytes |
| Instructions | 1       |

```
      00 01 02 03 04 05 06 07  08 09 0A 0B 0C 0D 0E 0F
      -- -- -- -- -- -- -- --  -- -- -- -- -- -- -- --
0510:                                   00                         .    
```

#### Opcodes

```
  0: 0x051B [0x00] END_REQSTACK()
```

### Event 65535.28

#### Metadata

| Field        | Value    |
|--------------|----------|
| Entrypoint   | 0x051C   |
| Data Size    | 31 bytes |
| Instructions | 7        |

```
      00 01 02 03 04 05 06 07  08 09 0A 0B 0C 0D 0E 0F
      -- -- -- -- -- -- -- --  -- -- -- -- -- -- -- --
0510:                                      6E F8 FF FF              n...
0520: 7F 2E 80 99 F8 FF FF 7F  1C 38 80 6E F8 FF FF 7F  .........8.n....
0530: 36 80 99 F8 FF FF 7F 1C  2F 80 00                 6......./..     
```

#### Opcodes

```
  0: 0x051C [0x6E] EventEntity uses emote 21*
  1: 0x0523 [0x99] Wait for EventEntity animation to complete
  2: 0x0528 [0x1C] WAIT(90* ticks)
  3: 0x052B [0x6E] EventEntity uses emote 29*
  4: 0x0532 [0x99] Wait for EventEntity animation to complete
  5: 0x0537 [0x1C] WAIT(60* ticks)
  6: 0x053A [0x00] END_REQSTACK()
```

### Event 606

#### Metadata

| Field        | Value    |
|--------------|----------|
| Entrypoint   | 0x053B   |
| Data Size    | 34 bytes |
| Instructions | 8        |

```
      00 01 02 03 04 05 06 07  08 09 0A 0B 0C 0D 0E 0F
      -- -- -- -- -- -- -- --  -- -- -- -- -- -- -- --
0530:                                   1E F0 FF FF 7F             .....
0540: 1C 00 80 03 03 10 39 80  66 01 80 F8 FF FF 7F F8  ......9.f.......
0550: FF FF 7F 74 6C 6B 30 1D  3A 80 23 21 00           ...tlk0.:.#!.   
```

#### Opcodes

```
  0: 0x053B [0x1E] EventEntity looks at LocalPlayer and starts talking
  1: 0x0540 [0x1C] WAIT(30* ticks)
  2: 0x0543 [0x03] Work_Zone[3] = 2510*
  3: 0x0548 [0x66] LOAD_EXT_SCHEDULER_MAIN: Load scheduler "tlk0" with entities [EventEntity, EventEntity], work=69*
  4: 0x0557 [0x1D] PRINT_EVENT_MESSAGE(message_id=14768*)
    → "What's that little bundle you've got there? $6? Never heard of it. Don't know, don't care."
  5: 0x055A [0x23] WAIT_FOR_DIALOG_INTERACTION
  6: 0x055B [0x21] END_EVENT
  7: 0x055C [0x00] END_REQSTACK()
```

### Event 607

#### Metadata

| Field        | Value    |
|--------------|----------|
| Entrypoint   | 0x055D   |
| Data Size    | 29 bytes |
| Instructions | 7        |

```
      00 01 02 03 04 05 06 07  08 09 0A 0B 0C 0D 0E 0F
      -- -- -- -- -- -- -- --  -- -- -- -- -- -- -- --
0550:                                         1E F0 FF               ...
0560: FF 7F 1C 00 80 66 01 80  F8 FF FF 7F F8 FF FF 7F  .....f..........
0570: 74 6C 6B 30 1D 3B 80 23  21 00                    tlk0.;.#!.      
```

#### Opcodes

```
  0: 0x055D [0x1E] EventEntity looks at LocalPlayer and starts talking
  1: 0x0562 [0x1C] WAIT(30* ticks)
  2: 0x0565 [0x66] LOAD_EXT_SCHEDULER_MAIN: Load scheduler "tlk0" with entities [EventEntity, EventEntity], work=69*
  3: 0x0574 [0x1D] PRINT_EVENT_MESSAGE(message_id=14769*)
    → "<Player>! Or should I say, "Mythril Musketeer Zero"! It's good to see you looking so well."
  4: 0x0577 [0x23] WAIT_FOR_DIALOG_INTERACTION
  5: 0x0578 [0x21] END_EVENT
  6: 0x0579 [0x00] END_REQSTACK()
```

### Event 608

#### Metadata

| Field        | Value   |
|--------------|---------|
| Entrypoint   | 0x057A  |
| Data Size    | 1 bytes |
| Instructions | 1       |

```
      00 01 02 03 04 05 06 07  08 09 0A 0B 0C 0D 0E 0F
      -- -- -- -- -- -- -- --  -- -- -- -- -- -- -- --
0570:                                00                           .     
```

#### Opcodes

```
  0: 0x057A [0x00] END_REQSTACK()
```

### Event 65535.29

#### Metadata

| Field        | Value    |
|--------------|----------|
| Entrypoint   | 0x057B   |
| Data Size    | 10 bytes |
| Instructions | 2        |

```
      00 01 02 03 04 05 06 07  08 09 0A 0B 0C 0D 0E 0F
      -- -- -- -- -- -- -- --  -- -- -- -- -- -- -- --
0570:                                   37 3C 80 3D 80             7<.=.
0580: 3E 80 3F 80 00                                    >.?..           
```

#### Opcodes

```
  0: 0x057B [0x37] UPDATE_EVENT_POSITION_AND_DIR: x=-202.192*, z=1.134*, y=-9.998*, direction=26.8°*
  1: 0x0584 [0x00] END_REQSTACK()
```
