# 17134206

## Common Data

| Field            | Value                       |
|------------------|-----------------------------|
| Zone             | Bastok Markets [S] (ID: 87) |
| Block Size       | 300 bytes                   |
| Total Events     | 8                           |
| References Count | 29                          |

## List of Events

| Event ID                 | Entrypoint   |   Size |   Instructions |
|--------------------------|--------------|--------|----------------|
| [65535](#event-65535)    | 0x0000       |      1 |              1 |
| [77](#event-77)          | 0x0001       |      1 |              1 |
| [65535.1](#event-655351) | 0x0002       |     14 |              4 |
| [78](#event-78)          | 0x0010       |      1 |              1 |
| [65535.2](#event-655352) | 0x0011       |     47 |             11 |
| [65535.3](#event-655353) | 0x0040       |     34 |              8 |
| [65535.4](#event-655354) | 0x0062       |     14 |              4 |
| [65535.5](#event-655355) | 0x0070       |     24 |              6 |

## DAT References (imed_data)

|   Index | Hex Value   |   Dec Value |
|---------|-------------|-------------|
|       0 | 0x0028      |          40 |
|       1 | 0x5CF82     |      380802 |
|       2 | 0x2BEB1     |      179889 |
|       3 | 0x08F6      |        2294 |
|       4 | 0xFFFC6D1F  |  4294733087 |
|       5 | 0x172A7     |       94887 |
|       6 | 0x0000      |           0 |
|       7 | 0x0032      |          50 |
|       8 | 0xFFFC68A0  |  4294731936 |
|       9 | 0x167A9     |       92073 |
|      10 | 0xFFFC6391  |  4294730641 |
|      11 | 0x15D96     |       89494 |
|      12 | 0xFFFC5E78  |  4294729336 |
|      13 | 0x14F0F     |       85775 |
|      14 | 0xFFFC24B1  |  4294714545 |
|      15 | 0x9041      |       36929 |
|      16 | 0xFFFFF8F8  |  4294965496 |
|      17 | 0xFFFC2E9E  |  4294717086 |
|      18 | 0x8A34      |       35380 |
|      19 | 0xFFFFF6A2  |  4294964898 |
|      20 | 0x00E1      |         225 |
|      21 | 0x003C      |          60 |
|      22 | 0xFFFCA975  |  4294748533 |
|      23 | 0x15750     |       87888 |
|      24 | 0xFFFC76DD  |  4294735581 |
|      25 | 0x168A2     |       92322 |
|      26 | 0xFFFC6EDA  |  4294733530 |
|      27 | 0x1A75B     |      108379 |
|      28 | 0xFFFFFDA7  |  4294966695 |

## Events

### Event 65535

#### Metadata

| Field        | Value   |
|--------------|---------|
| Entrypoint   | 0x0000  |
| Data Size    | 1 bytes |
| Instructions | 1       |

```
      00 01 02 03 04 05 06 07  08 09 0A 0B 0C 0D 0E 0F
      -- -- -- -- -- -- -- --  -- -- -- -- -- -- -- --
0000: 00                                                .               
```

#### Opcodes

```
  0: 0x0000 [0x00] END_REQSTACK()
```

### Event 77

#### Metadata

| Field        | Value   |
|--------------|---------|
| Entrypoint   | 0x0001  |
| Data Size    | 1 bytes |
| Instructions | 1       |

```
      00 01 02 03 04 05 06 07  08 09 0A 0B 0C 0D 0E 0F
      -- -- -- -- -- -- -- --  -- -- -- -- -- -- -- --
0000:    00                                              .              
```

#### Opcodes

```
  0: 0x0001 [0x00] END_REQSTACK()
```

### Event 65535.1

#### Metadata

| Field        | Value    |
|--------------|----------|
| Entrypoint   | 0x0002   |
| Data Size    | 14 bytes |
| Instructions | 4        |

```
      00 01 02 03 04 05 06 07  08 09 0A 0B 0C 0D 0E 0F
      -- -- -- -- -- -- -- --  -- -- -- -- -- -- -- --
0000:       32 00 80 1F 00 01  80 02 80 03 80 1F 01 00    2.............
```

#### Opcodes

```
  0: 0x0002 [0x32] ExtData[1]->MainSpeed = 40* * 0.1
  1: 0x0005 [0x1F] MOVE_ENTITY: EventEntity moves to X=380.802*, Z=179.889*, Y=2.294*
  2: 0x000D [0x1F] MOVE_ENTITY: Update entity position (mode=1)
  3: 0x000F [0x00] END_REQSTACK()
```

### Event 78

#### Metadata

| Field        | Value   |
|--------------|---------|
| Entrypoint   | 0x0010  |
| Data Size    | 1 bytes |
| Instructions | 1       |

```
      00 01 02 03 04 05 06 07  08 09 0A 0B 0C 0D 0E 0F
      -- -- -- -- -- -- -- --  -- -- -- -- -- -- -- --
0010: 00                                                .               
```

#### Opcodes

```
  0: 0x0010 [0x00] END_REQSTACK()
```

### Event 65535.2

#### Metadata

| Field        | Value    |
|--------------|----------|
| Entrypoint   | 0x0011   |
| Data Size    | 47 bytes |
| Instructions | 11       |

```
      00 01 02 03 04 05 06 07  08 09 0A 0B 0C 0D 0E 0F
      -- -- -- -- -- -- -- --  -- -- -- -- -- -- -- --
0010:    32 00 80 1F 00 04 80  05 80 06 80 1F 01 32 07   2............2.
0020: 80 1F 00 08 80 09 80 06  80 1F 01 1F 00 0A 80 0B  ................
0030: 80 06 80 1F 01 1F 00 0C  80 0D 80 06 80 1F 01 00  ................
```

#### Opcodes

```
  0: 0x0011 [0x32] ExtData[1]->MainSpeed = 40* * 0.1
  1: 0x0014 [0x1F] MOVE_ENTITY: EventEntity moves to X=-234.209*, Z=94.887*, Y=0.000*
  2: 0x001C [0x1F] MOVE_ENTITY: Update entity position (mode=1)
  3: 0x001E [0x32] ExtData[1]->MainSpeed = 50* * 0.1
  4: 0x0021 [0x1F] MOVE_ENTITY: EventEntity moves to X=-235.360*, Z=92.073*, Y=0.000*
  5: 0x0029 [0x1F] MOVE_ENTITY: Update entity position (mode=1)
  6: 0x002B [0x1F] MOVE_ENTITY: EventEntity moves to X=-236.655*, Z=89.494*, Y=0.000*
  7: 0x0033 [0x1F] MOVE_ENTITY: Update entity position (mode=1)
  8: 0x0035 [0x1F] MOVE_ENTITY: EventEntity moves to X=-237.960*, Z=85.775*, Y=0.000*
  9: 0x003D [0x1F] MOVE_ENTITY: Update entity position (mode=1)
 10: 0x003F [0x00] END_REQSTACK()
```

### Event 65535.3

#### Metadata

| Field        | Value    |
|--------------|----------|
| Entrypoint   | 0x0040   |
| Data Size    | 34 bytes |
| Instructions | 8        |

```
      00 01 02 03 04 05 06 07  08 09 0A 0B 0C 0D 0E 0F
      -- -- -- -- -- -- -- --  -- -- -- -- -- -- -- --
0040: 32 00 80 1F 00 0E 80 0F  80 10 80 1F 01 1F 00 11  2...............
0050: 80 12 80 13 80 1F 01 4B  F8 FF FF 7F 14 80 1C 15  .......K........
0060: 80 00                                             ..              
```

#### Opcodes

```
  0: 0x0040 [0x32] ExtData[1]->MainSpeed = 40* * 0.1
  1: 0x0043 [0x1F] MOVE_ENTITY: EventEntity moves to X=-252.751*, Z=36.929*, Y=-1.800*
  2: 0x004B [0x1F] MOVE_ENTITY: Update entity position (mode=1)
  3: 0x004D [0x1F] MOVE_ENTITY: EventEntity moves to X=-250.210*, Z=35.380*, Y=-2.398*
  4: 0x0055 [0x1F] MOVE_ENTITY: Update entity position (mode=1)
  5: 0x0057 [0x4B] UPDATE_ENTITY_YAW(entity=EventEntity, yaw=1.2°*)
  6: 0x005E [0x1C] WAIT(60* ticks)
  7: 0x0061 [0x00] END_REQSTACK()
```

### Event 65535.4

#### Metadata

| Field        | Value    |
|--------------|----------|
| Entrypoint   | 0x0062   |
| Data Size    | 14 bytes |
| Instructions | 4        |

```
      00 01 02 03 04 05 06 07  08 09 0A 0B 0C 0D 0E 0F
      -- -- -- -- -- -- -- --  -- -- -- -- -- -- -- --
0060:       32 15 80 1F 00 16  80 17 80 06 80 1F 01 00    2.............
```

#### Opcodes

```
  0: 0x0062 [0x32] ExtData[1]->MainSpeed = 60* * 0.1
  1: 0x0065 [0x1F] MOVE_ENTITY: EventEntity moves to X=-218.763*, Z=87.888*, Y=0.000*
  2: 0x006D [0x1F] MOVE_ENTITY: Update entity position (mode=1)
  3: 0x006F [0x00] END_REQSTACK()
```

### Event 65535.5

#### Metadata

| Field        | Value    |
|--------------|----------|
| Entrypoint   | 0x0070   |
| Data Size    | 24 bytes |
| Instructions | 6        |

```
      00 01 02 03 04 05 06 07  08 09 0A 0B 0C 0D 0E 0F
      -- -- -- -- -- -- -- --  -- -- -- -- -- -- -- --
0070: 32 15 80 1F 00 18 80 19  80 06 80 1F 01 1F 00 1A  2...............
0080: 80 1B 80 1C 80 1F 01 00                           ........        
```

#### Opcodes

```
  0: 0x0070 [0x32] ExtData[1]->MainSpeed = 60* * 0.1
  1: 0x0073 [0x1F] MOVE_ENTITY: EventEntity moves to X=-231.715*, Z=92.322*, Y=0.000*
  2: 0x007B [0x1F] MOVE_ENTITY: Update entity position (mode=1)
  3: 0x007D [0x1F] MOVE_ENTITY: EventEntity moves to X=-233.766*, Z=108.379*, Y=-0.601*
  4: 0x0085 [0x1F] MOVE_ENTITY: Update entity position (mode=1)
  5: 0x0087 [0x00] END_REQSTACK()
```
