# 17134257

## Common Data

| Field            | Value                       |
|------------------|-----------------------------|
| Zone             | Bastok Markets [S] (ID: 87) |
| Block Size       | 13052 bytes                 |
| Total Events     | 7                           |
| References Count | 281                         |

## List of Events

| Event ID              | Entrypoint   |   Size |   Instructions |
|-----------------------|--------------|--------|----------------|
| [65535](#event-65535) | 0x0000       |      1 |              1 |
| [345](#event-345)     | 0x0001       |   2087 |            253 |
| [346](#event-346)     | 0x0828       |   1067 |            148 |
| [347](#event-347)     | 0x0C53       |   3577 |            478 |
| [348](#event-348)     | 0x1A4C       |   2055 |            281 |
| [349](#event-349)     | 0x2253       |   1980 |            248 |
| [350](#event-350)     | 0x2A0F       |   1115 |            122 |

## DAT References (imed_data)

|   Index | Hex Value   |   Dec Value |
|---------|-------------|-------------|
|       0 | 0x0013      |          19 |
|       1 | 0xFFFCF0D6  |  4294766806 |
|       2 | 0x087D      |        2173 |
|       3 | 0xFFFFD8F2  |  4294957298 |
|       4 | 0x085E      |        2142 |
|       5 | 0xFFFD0F8A  |  4294774666 |
|       6 | 0x3D30      |       15664 |
|       7 | 0xFFFFD8F1  |  4294957297 |
|       8 | 0x04F7      |        1271 |
|       9 | 0xFFFCF59F  |  4294768031 |
|      10 | 0xFFFFE8F3  |  4294961395 |
|      11 | 0x0BB8      |        3000 |
|      12 | 0xFFFCEF5F  |  4294766431 |
|      13 | 0xFFFFE84C  |  4294961228 |
|      14 | 0xFFFCE698  |  4294764184 |
|      15 | 0x09D1      |        2513 |
|      16 | 0x01C2      |         450 |
|      17 | 0x000F      |          15 |
|      18 | 0x01F6      |         502 |
|      19 | 0x0000      |           0 |
|      20 | 0x003C      |          60 |
|      21 | 0x005A      |          90 |
|      22 | 0x344B      |       13387 |
|      23 | 0x0045      |          69 |
|      24 | 0x344C      |       13388 |
|      25 | 0x344D      |       13389 |
|      26 | 0x344E      |       13390 |
|      27 | 0x344F      |       13391 |
|      28 | 0x0096      |         150 |
|      29 | 0x3450      |       13392 |
|      30 | 0x001E      |          30 |
|      31 | 0x3451      |       13393 |
|      32 | 0x3452      |       13394 |
|      33 | 0x3453      |       13395 |
|      34 | 0x001D      |          29 |
|      35 | 0x0078      |         120 |
|      36 | 0x3454      |       13396 |
|      37 | 0xFFFCF7DF  |  4294768607 |
|      38 | 0x2158      |        8536 |
|      39 | 0x04F8      |        1272 |
|      40 | 0x3455      |       13397 |
|      41 | 0x3456      |       13398 |
|      42 | 0x3457      |       13399 |
|      43 | 0x3458      |       13400 |
|      44 | 0x00D2      |         210 |
|      45 | 0x3459      |       13401 |
|      46 | 0x345A      |       13402 |
|      47 | 0x007F      |         127 |
|      48 | 0x0064      |         100 |
|      49 | 0x345B      |       13403 |
|      50 | 0x345C      |       13404 |
|      51 | 0x345D      |       13405 |
|      52 | 0x345E      |       13406 |
|      53 | 0x345F      |       13407 |
|      54 | 0x002D      |          45 |
|      55 | 0x3460      |       13408 |
|      56 | 0x3461      |       13409 |
|      57 | 0x3462      |       13410 |
|      58 | 0x3463      |       13411 |
|      59 | 0x3464      |       13412 |
|      60 | 0x3465      |       13413 |
|      61 | 0x3466      |       13414 |
|      62 | 0x3467      |       13415 |
|      63 | 0x0007      |           7 |
|      64 | 0x3468      |       13416 |
|      65 | 0x00F0      |         240 |
|      66 | 0x00C8      |         200 |
|      67 | 0xFFFCED2A  |  4294765866 |
|      68 | 0x0A2F      |        2607 |
|      69 | 0x3469      |       13417 |
|      70 | 0x346A      |       13418 |
|      71 | 0x00ED      |         237 |
|      72 | 0x00FF      |         255 |
|      73 | 0x0001      |           1 |
|      74 | 0x0131      |         305 |
|      75 | 0x167CF     |       92111 |
|      76 | 0x3068      |       12392 |
|      77 | 0xFFFFB127  |  4294947111 |
|      78 | 0x0EA6      |        3750 |
|      79 | 0x15C3F     |       89151 |
|      80 | 0x169D      |        5789 |
|      81 | 0xFFFFB138  |  4294947128 |
|      82 | 0x0BF2      |        3058 |
|      83 | 0x159B2     |       88498 |
|      84 | 0x1085      |        4229 |
|      85 | 0xFFFFB2DD  |  4294947549 |
|      86 | 0x176F5     |       95989 |
|      87 | 0x3908      |       14600 |
|      88 | 0x06D0      |        1744 |
|      89 | 0x346B      |       13419 |
|      90 | 0x001A      |          26 |
|      91 | 0x346C      |       13420 |
|      92 | 0x346D      |       13421 |
|      93 | 0x0009      |           9 |
|      94 | 0x346E      |       13422 |
|      95 | 0x346F      |       13423 |
|      96 | 0x3470      |       13424 |
|      97 | 0x3471      |       13425 |
|      98 | 0x3472      |       13426 |
|      99 | 0x1594B     |       88395 |
|     100 | 0x1513      |        5395 |
|     101 | 0x04A4      |        1188 |
|     102 | 0x160D7     |       90327 |
|     103 | 0x062D      |        1581 |
|     104 | 0xFFFFB3B4  |  4294947764 |
|     105 | 0x09E4      |        2532 |
|     106 | 0x15FF6     |       90102 |
|     107 | 0x0BC8      |        3016 |
|     108 | 0x05E3      |        1507 |
|     109 | 0x3473      |       13427 |
|     110 | 0x3474      |       13428 |
|     111 | 0x0057      |          87 |
|     112 | 0x3475      |       13429 |
|     113 | 0x3476      |       13430 |
|     114 | 0x00B4      |         180 |
|     115 | 0x17075     |       94325 |
|     116 | 0x294C      |       10572 |
|     117 | 0x0BAD      |        2989 |
|     118 | 0x174A9     |       95401 |
|     119 | 0x3937      |       14647 |
|     120 | 0x0473      |        1139 |
|     121 | 0x1791C     |       96540 |
|     122 | 0x28B0      |       10416 |
|     123 | 0xFFFFB128  |  4294947112 |
|     124 | 0x0BAF      |        2991 |
|     125 | 0x3477      |       13431 |
|     126 | 0x3478      |       13432 |
|     127 | 0x3479      |       13433 |
|     128 | 0x347A      |       13434 |
|     129 | 0x347B      |       13435 |
|     130 | 0x347C      |       13436 |
|     131 | 0x0002      |           2 |
|     132 | 0x0003      |           3 |
|     133 | 0x0004      |           4 |
|     134 | 0x0005      |           5 |
|     135 | 0x0006      |           6 |
|     136 | 0x0008      |           8 |
|     137 | 0x0015      |          21 |
|     138 | 0x347D      |       13437 |
|     139 | 0x347E      |       13438 |
|     140 | 0x347F      |       13439 |
|     141 | 0x01FA      |         506 |
|     142 | 0x3480      |       13440 |
|     143 | 0x3481      |       13441 |
|     144 | 0x3482      |       13442 |
|     145 | 0xFFFC6F1C  |  4294733596 |
|     146 | 0x1656C     |       91500 |
|     147 | 0x0BDD      |        3037 |
|     148 | 0xFFFC7304  |  4294734596 |
|     149 | 0x157C0     |       88000 |
|     150 | 0xFFFC6B34  |  4294732596 |
|     151 | 0x14FF0     |       86000 |
|     152 | 0x14820     |       84000 |
|     153 | 0x14050     |       82000 |
|     154 | 0x13880     |       80000 |
|     155 | 0xFFFC5E79  |  4294729337 |
|     156 | 0x128BD     |       75965 |
|     157 | 0x0CF8      |        3320 |
|     158 | 0xFFFC57D2  |  4294727634 |
|     159 | 0x12CBD     |       76989 |
|     160 | 0xFFFC6268  |  4294730344 |
|     161 | 0x12536     |       75062 |
|     162 | 0xFFFC58C6  |  4294727878 |
|     163 | 0x1259D     |       75165 |
|     164 | 0x0CF9      |        3321 |
|     165 | 0xFFFC8C97  |  4294741143 |
|     166 | 0x152AF     |       86703 |
|     167 | 0x0762      |        1890 |
|     168 | 0xFFFC5D46  |  4294729030 |
|     169 | 0x11EF3     |       73459 |
|     170 | 0xFFFC80B3  |  4294738099 |
|     171 | 0x12010     |       73744 |
|     172 | 0x0A9B      |        2715 |
|     173 | 0xFFFC84F3  |  4294739187 |
|     174 | 0x1203F     |       73791 |
|     175 | 0x0A35      |        2613 |
|     176 | 0xFFFC8BBB  |  4294740923 |
|     177 | 0x14A5D     |       84573 |
|     178 | 0x077C      |        1916 |
|     179 | 0x09BA      |        2490 |
|     180 | 0x3483      |       13443 |
|     181 | 0x0981      |        2433 |
|     182 | 0x3484      |       13444 |
|     183 | 0x0A03      |        2563 |
|     184 | 0x097E      |        2430 |
|     185 | 0x3485      |       13445 |
|     186 | 0x3486      |       13446 |
|     187 | 0x3487      |       13447 |
|     188 | 0x3488      |       13448 |
|     189 | 0xFFFCF15C  |  4294766940 |
|     190 | 0x093C      |        2364 |
|     191 | 0x009D      |         157 |
|     192 | 0x3489      |       13449 |
|     193 | 0x348A      |       13450 |
|     194 | 0x0977      |        2423 |
|     195 | 0x007B      |         123 |
|     196 | 0x0FFF      |        4095 |
|     197 | 0x348B      |       13451 |
|     198 | 0x348C      |       13452 |
|     199 | 0x171CE     |       94670 |
|     200 | 0x38DC      |       14556 |
|     201 | 0x0CA9      |        3241 |
|     202 | 0x177E2     |       96226 |
|     203 | 0x3B63      |       15203 |
|     204 | 0xFFFFB136  |  4294947126 |
|     205 | 0x0C39      |        3129 |
|     206 | 0x15AA7     |       88743 |
|     207 | 0x254D      |        9549 |
|     208 | 0x348D      |       13453 |
|     209 | 0x348E      |       13454 |
|     210 | 0x348F      |       13455 |
|     211 | 0x3490      |       13456 |
|     212 | 0x3491      |       13457 |
|     213 | 0x0400      |        1024 |
|     214 | 0x3492      |       13458 |
|     215 | 0x3493      |       13459 |
|     216 | 0x3494      |       13460 |
|     217 | 0x3495      |       13461 |
|     218 | 0x3496      |       13462 |
|     219 | 0x3497      |       13463 |
|     220 | 0x3498      |       13464 |
|     221 | 0x3499      |       13465 |
|     222 | 0xFFFCEFE8  |  4294766568 |
|     223 | 0x041C      |        1052 |
|     224 | 0x0AF8      |        2808 |
|     225 | 0x349A      |       13466 |
|     226 | 0x349B      |       13467 |
|     227 | 0x349C      |       13468 |
|     228 | 0x349D      |       13469 |
|     229 | 0x349E      |       13470 |
|     230 | 0x349F      |       13471 |
|     231 | 0x00A1      |         161 |
|     232 | 0x34A0      |       13472 |
|     233 | 0x34A1      |       13473 |
|     234 | 0x34A2      |       13474 |
|     235 | 0x34A3      |       13475 |
|     236 | 0xFFFCDB61  |  4294761313 |
|     237 | 0xFFFFFE85  |  4294966917 |
|     238 | 0xFFFCD622  |  4294759970 |
|     239 | 0xFFFFF886  |  4294965382 |
|     240 | 0x34A4      |       13476 |
|     241 | 0x34A5      |       13477 |
|     242 | 0xFFFCE905  |  4294764805 |
|     243 | 0xFFFFFC61  |  4294966369 |
|     244 | 0x0BEA      |        3050 |
|     245 | 0xFFFCEE4B  |  4294766155 |
|     246 | 0xFFFFFBC9  |  4294966217 |
|     247 | 0xFFFCE6DA  |  4294764250 |
|     248 | 0x075D      |        1885 |
|     249 | 0x05AD      |        1453 |
|     250 | 0x34A6      |       13478 |
|     251 | 0x34A7      |       13479 |
|     252 | 0x34A8      |       13480 |
|     253 | 0x34A9      |       13481 |
|     254 | 0x34AA      |       13482 |
|     255 | 0x34AB      |       13483 |
|     256 | 0x34AC      |       13484 |
|     257 | 0x34AD      |       13485 |
|     258 | 0x00D9      |         217 |
|     259 | 0x34AE      |       13486 |
|     260 | 0x0954      |        2388 |
|     261 | 0x34AF      |       13487 |
|     262 | 0x0A5A      |        2650 |
|     263 | 0x34B0      |       13488 |
|     264 | 0x34B1      |       13489 |
|     265 | 0x34B2      |       13490 |
|     266 | 0x34B3      |       13491 |
|     267 | 0x34B4      |       13492 |
|     268 | 0x34B5      |       13493 |
|     269 | 0x0494      |        1172 |
|     270 | 0x34B6      |       13494 |
|     271 | 0x34B7      |       13495 |
|     272 | 0x34B8      |       13496 |
|     273 | 0x34B9      |       13497 |
|     274 | 0x34BA      |       13498 |
|     275 | 0x34BB      |       13499 |
|     276 | 0x34BC      |       13500 |
|     277 | 0x34BD      |       13501 |
|     278 | 0x34BE      |       13502 |
|     279 | 0x00C9      |         201 |
|     280 | 0x00D7      |         215 |

## Events

### Event 65535

#### Metadata

| Field        | Value   |
|--------------|---------|
| Entrypoint   | 0x0000  |
| Data Size    | 1 bytes |
| Instructions | 1       |

```
      00 01 02 03 04 05 06 07  08 09 0A 0B 0C 0D 0E 0F
      -- -- -- -- -- -- -- --  -- -- -- -- -- -- -- --
0000: 00                                                .               
```

#### Opcodes

```
  0: 0x0000 [0x00] END_REQSTACK()
```

### Event 345

#### Metadata

| Field        | Value      |
|--------------|------------|
| Entrypoint   | 0x0001     |
| Data Size    | 2087 bytes |
| Instructions | 253        |

```
      00 01 02 03 04 05 06 07  08 09 0A 0B 0C 0D 0E 0F
      -- -- -- -- -- -- -- --  -- -- -- -- -- -- -- --
0000:    42 1A 3C 2C 46 01 38  00 80 4E 00 F0 FF FF 7F   B.<,F.8..N.....
0010: 2F 00 B2 72 05 01 2F 00  30 72 05 01 2F 00 2F 72  /..r../.0r.././r
0020: 05 01 2F 00 2B 72 05 01  4E 00 B2 72 05 01 4E 00  ../.+r..N..r..N.
0030: 30 72 05 01 4E 00 2F 72  05 01 4E 00 2B 72 05 01  0r..N./r..N.+r..
0040: 4E 00 F0 FF FF 7F 92 01  30 72 05 01 92 01 2F 72  N.......0r..../r
0050: 05 01 92 01 2B 72 05 01  92 01 B2 72 05 01 94 01  ....+r.....r....
0060: F0 FF FF 7F 94 01 30 72  05 01 94 01 2F 72 05 01  ......0r..../r..
0070: 94 01 2B 72 05 01 94 01  B2 72 05 01 BA F0 FF FF  ..+r.....r......
0080: 7F 01 80 02 80 03 80 04  80 BA B2 72 05 01 05 80  ...........r....
0090: 06 80 07 80 08 80 BA 30  72 05 01 09 80 0A 80 03  .......0r.......
00A0: 80 0B 80 BA 2F 72 05 01  0C 80 0D 80 03 80 0B 80  ..../r..........
00B0: BA 2B 72 05 01 0E 80 0F  80 03 80 10 80 80 F0 FF  .+r.............
00C0: FF 7F 80 B2 72 05 01 80  30 72 05 01 80 2F 72 05  ....r...0r.../r.
00D0: 01 80 2B 72 05 01 7C 00  2B 72 05 01 1C 11 80 45  ..+r..|.+r.....E
00E0: 12 80 F0 FF FF 7F F0 FF  FF 7F 73 30 34 61 13 80  ..........s04a..
00F0: 79 00 F0 FF FF 7F 2B 72  05 01 1A 1B 2C 1C 14 80  y.....+r....,...
0100: 29 10 F0 FF FF 7F 54 1C  15 80 52 12 80 F0 FF FF  ).....T...R.....
0110: 7F F0 FF FF 7F 73 30 34  61 45 12 80 F0 FF FF 7F  .....s04aE......
0120: F0 FF FF 7F 73 30 34 62  13 80 2B 2B 72 05 01 16  ....s04b..++r...
0130: 80 23 4A 2B 72 05 01 F0  FF FF 7F 7C 01 2B 72 05  .#J+r......|.+r.
0140: 01 1C 15 80 66 17 80 2B  72 05 01 2B 72 05 01 74  ....f..+r..+r..t
0150: 6C 6B 30 2B 2B 72 05 01  18 80 23 66 17 80 2B 72  lk0++r....#f..+r
0160: 05 01 2B 72 05 01 74 6C  6B 31 2B 2B 72 05 01 19  ..+r..tlk1++r...
0170: 80 23 52 12 80 F0 FF FF  7F F0 FF FF 7F 73 30 34  .#R..........s04
0180: 62 45 12 80 F0 FF FF 7F  F0 FF FF 7F 73 30 34 63  bE..........s04c
0190: 13 80 2B 2B 72 05 01 1A  80 23 2B 19 72 05 01 1B  ..++r....#+.r...
01A0: 80 23 52 12 80 F0 FF FF  7F F0 FF FF 7F 73 30 34  .#R..........s04
01B0: 63 45 12 80 F0 FF FF 7F  F0 FF FF 7F 73 30 34 64  cE..........s04d
01C0: 13 80 7B F0 FF FF 7F 27  10 30 72 05 01 11 27 10  ..{....'.0r...'.
01D0: 2F 72 05 01 13 4A 2B 72  05 01 30 72 05 01 4A F0  /r...J+r..0r..J.
01E0: FF FF 7F 30 72 05 01 1C  1C 80 52 12 80 F0 FF FF  ...0r.....R.....
01F0: 7F F0 FF FF 7F 73 30 34  64 45 12 80 F0 FF FF 7F  .....s04dE......
0200: F0 FF FF 7F 73 30 34 65  13 80 2B 2B 72 05 01 1D  ....s04e..++r...
0210: 80 23 2A 10 2F 72 05 01  2A 10 30 72 05 01 1C 1E  .#*./r..*.0r....
0220: 80 66 13 80 2F 72 05 01  2F 72 05 01 74 6C 6B 30  .f../r../r..tlk0
0230: 2B 2F 72 05 01 1F 80 23  2B 2F 72 05 01 20 80 23  +/r....#+/r.. .#
0240: 66 13 80 2F 72 05 01 2F  72 05 01 74 65 6E 30 1C  f../r../r..ten0.
0250: 14 80 52 12 80 F0 FF FF  7F F0 FF FF 7F 73 30 34  ..R..........s04
0260: 65 45 12 80 F0 FF FF 7F  F0 FF FF 7F 73 30 34 66  eE..........s04f
0270: 13 80 4A F0 FF FF 7F 2F  72 05 01 4A 2F 72 05 01  ..J..../r..J/r..
0280: F0 FF FF 7F 2B 2F 72 05  01 21 80 23 6E F0 FF FF  ....+/r..!.#n...
0290: 7F 22 80 99 F0 FF FF 7F  1C 23 80 52 12 80 F0 FF  .".......#.R....
02A0: FF 7F F0 FF FF 7F 73 30  34 66 45 12 80 F0 FF FF  ......s04fE.....
02B0: 7F F0 FF FF 7F 73 30 34  67 13 80 4A 30 72 05 01  .....s04g..J0r..
02C0: 2F 72 05 01 2B 30 72 05  01 24 80 23 BA B2 72 05  /r..+0r..$.#..r.
02D0: 01 25 80 26 80 03 80 27  80 66 13 80 2F 72 05 01  .%.&...'.f../r..
02E0: 2F 72 05 01 74 68 6B 31  7B 2F 72 05 01 2B 2F 72  /r..thk1{/r..+/r
02F0: 05 01 28 80 23 66 13 80  2F 72 05 01 2F 72 05 01  ..(.#f../r../r..
0300: 74 68 6B 32 1C 14 80 4A  2F 72 05 01 30 72 05 01  thk2...J/r..0r..
0310: 52 12 80 F0 FF FF 7F F0  FF FF 7F 73 30 34 67 45  R..........s04gE
0320: 12 80 F0 FF FF 7F F0 FF  FF 7F 73 30 34 68 13 80  ..........s04h..
0330: 1C 14 80 66 13 80 2F 72  05 01 2F 72 05 01 74 6C  ...f../r../r..tl
0340: 6B 31 2B 2F 72 05 01 29  80 23 66 13 80 2F 72 05  k1+/r..).#f../r.
0350: 01 2F 72 05 01 74 65 6E  31 1C 14 80 52 12 80 F0  ./r..ten1...R...
0360: FF FF 7F F0 FF FF 7F 73  30 34 68 45 12 80 F0 FF  .......s04hE....
0370: FF 7F F0 FF FF 7F 73 30  34 69 13 80 4A 2F 72 05  ......s04i..J/r.
0380: 01 F0 FF FF 7F 4A 30 72  05 01 F0 FF FF 7F 1C 14  .....J0r........
0390: 80 66 13 80 2F 72 05 01  2F 72 05 01 74 6C 6B 30  .f../r../r..tlk0
03A0: 2B 2F 72 05 01 2A 80 23  66 13 80 2F 72 05 01 2F  +/r..*.#f../r../
03B0: 72 05 01 74 65 6E 30 2B  19 72 05 01 2B 80 23 52  r..ten0+.r..+.#R
03C0: 12 80 F0 FF FF 7F F0 FF  FF 7F 73 30 34 69 45 12  ..........s04iE.
03D0: 80 F0 FF FF 7F F0 FF FF  7F 73 30 34 6A 13 80 4A  .........s04j..J
03E0: F0 FF FF 7F B2 72 05 01  4A 2B 72 05 01 B2 72 05  .....r..J+r...r.
03F0: 01 4A 2F 72 05 01 B2 72  05 01 4A 30 72 05 01 B2  .J/r...r..J0r...
0400: 72 05 01 27 10 B2 72 05  01 02 1C 1C 80 94 01 F0  r..'..r.........
0410: FF FF 7F 27 10 F0 FF FF  7F 55 1C 14 80 52 12 80  ...'.....U...R..
0420: F0 FF FF 7F F0 FF FF 7F  73 30 34 6A 45 12 80 F0  ........s04jE...
0430: FF FF 7F F0 FF FF 7F 73  30 34 74 13 80 2A 10 B2  .......s04t..*..
0440: 72 05 01 4A 2B 72 05 01  B2 72 05 01 1C 2C 80 52  r..J+r...r...,.R
0450: 12 80 F0 FF FF 7F F0 FF  FF 7F 73 30 34 74 45 12  ..........s04tE.
0460: 80 F0 FF FF 7F F0 FF FF  7F 73 30 34 6B 13 80 27  .........s04k..'
0470: 10 2F 72 05 01 15 27 10  30 72 05 01 13 2B 2F 72  ./r...'.0r...+/r
0480: 05 01 2D 80 23 2A 10 2F  72 05 01 2A 10 30 72 05  ..-.#*./r..*.0r.
0490: 01 52 12 80 F0 FF FF 7F  F0 FF FF 7F 73 30 34 6B  .R..........s04k
04A0: 45 12 80 F0 FF FF 7F F0  FF FF 7F 73 30 34 6C 13  E..........s04l.
04B0: 80 2B B2 72 05 01 2E 80  5D 13 80 15 80 1C 15 80  .+.r....].......
04C0: 23 52 12 80 F0 FF FF 7F  F0 FF FF 7F 73 30 34 6C  #R..........s04l
04D0: 5C 00 2F 80 5C 01 2F 80  5D 30 80 23 80 52 12 80  \./.\./.]0.#.R..
04E0: F0 FF FF 7F F0 FF FF 7F  73 30 34 30 45 12 80 F0  ........s040E...
04F0: FF FF 7F F0 FF FF 7F 73  30 34 6D 13 80 27 10 30  .......s04m..'.0
0500: 72 05 01 15 2B 2F 72 05  01 31 80 23 9A 52 12 80  r...+/r..1.#.R..
0510: F0 FF FF 7F F0 FF FF 7F  73 30 34 6D 45 12 80 F0  ........s04mE...
0520: FF FF 7F F0 FF FF 7F 62  6C 6F 66 13 80 45 12 80  .......blof..E..
0530: F0 FF FF 7F F0 FF FF 7F  73 30 34 6E 13 80 2B B2  ........s04n..+.
0540: 72 05 01 32 80 23 2B B2  72 05 01 33 80 23 27 10  r..2.#+.r..3.#'.
0550: 2F 72 05 01 15 2B 2F 72  05 01 34 80 23 2A 10 2F  /r...+/r..4.#*./
0560: 72 05 01 52 12 80 F0 FF  FF 7F F0 FF FF 7F 73 30  r..R..........s0
0570: 34 6E 45 12 80 F0 FF FF  7F F0 FF FF 7F 73 30 34  4nE..........s04
0580: 6F 13 80 2B B2 72 05 01  35 80 23 52 12 80 F0 FF  o..+.r..5.#R....
0590: FF 7F F0 FF FF 7F 73 30  34 6F 45 12 80 F0 FF FF  ......s04oE.....
05A0: 7F F0 FF FF 7F 73 30 34  73 13 80 27 10 B2 72 05  .....s04s..'..r.
05B0: 01 03 94 01 F0 FF FF 7F  27 10 F0 FF FF 7F 56 1C  ........'.....V.
05C0: 36 80 4A 2B 72 05 01 B2  72 05 01 2A 10 F0 FF FF  6.J+r...r..*....
05D0: 7F 1C 23 80 52 12 80 F0  FF FF 7F F0 FF FF 7F 73  ..#.R..........s
05E0: 30 34 73 45 12 80 F0 FF  FF 7F F0 FF FF 7F 73 30  04sE..........s0
05F0: 34 75 13 80 2B 30 72 05  01 37 80 23 52 12 80 F0  4u..+0r..7.#R...
0600: FF FF 7F F0 FF FF 7F 73  30 34 75 45 12 80 F0 FF  .......s04uE....
0610: FF 7F F0 FF FF 7F 73 30  34 76 13 80 66 13 80 2F  ......s04v..f../
0620: 72 05 01 2F 72 05 01 74  68 6B 31 2B 2F 72 05 01  r../r..thk1+/r..
0630: 38 80 23 52 12 80 F0 FF  FF 7F F0 FF FF 7F 73 30  8.#R..........s0
0640: 34 76 45 12 80 F0 FF FF  7F F0 FF FF 7F 73 30 34  4vE..........s04
0650: 71 13 80 7A 00 B2 72 05  01 BA B2 72 05 01 05 80  q..z..r....r....
0660: 06 80 07 80 08 80 4A 30  72 05 01 2F 72 05 01 2B  ......J0r../r..+
0670: 30 72 05 01 39 80 23 66  13 80 2F 72 05 01 2F 72  0r..9.#f../r../r
0680: 05 01 74 68 6B 32 2B 2F  72 05 01 3A 80 23 4A 2F  ..thk2+/r..:.#J/
0690: 72 05 01 30 72 05 01 52  12 80 F0 FF FF 7F F0 FF  r..0r..R........
06A0: FF 7F 73 30 34 71 45 12  80 F0 FF FF 7F F0 FF FF  ..s04qE.........
06B0: 7F 73 30 34 72 13 80 66  17 80 30 72 05 01 30 72  .s04r..f..0r..0r
06C0: 05 01 74 6C 6B 30 4A F0  FF FF 7F 2F 72 05 01 4A  ..tlk0J..../r..J
06D0: 2B 72 05 01 2F 72 05 01  2B 30 72 05 01 3B 80 23  +r../r..+0r..;.#
06E0: 66 17 80 30 72 05 01 30  72 05 01 74 6C 6B 31 66  f..0r..0r..tlk1f
06F0: 13 80 2F 72 05 01 2F 72  05 01 74 68 6B 31 4A 30  ../r../r..thk1J0
0700: 72 05 01 2F 72 05 01 2B  2F 72 05 01 3C 80 23 66  r../r..+/r..<.#f
0710: 13 80 2F 72 05 01 2F 72  05 01 74 68 6B 32 2B 2F  ../r../r..thk2+/
0720: 72 05 01 3D 80 23 52 12  80 F0 FF FF 7F F0 FF FF  r..=.#R.........
0730: 7F 73 30 34 72 45 12 80  F0 FF FF 7F F0 FF FF 7F  .s04rE..........
0740: 73 30 34 79 13 80 4A 2F  72 05 01 F0 FF FF 7F 4A  s04y..J/r......J
0750: 30 72 05 01 F0 FF FF 7F  2B 2F 72 05 01 3E 80 23  0r......+/r..>.#
0760: 6E F0 FF FF 7F 3F 80 99  F0 FF FF 7F 1C 15 80 52  n....?.........R
0770: 12 80 F0 FF FF 7F F0 FF  FF 7F 73 30 34 79 45 12  ..........s04yE.
0780: 80 F0 FF FF 7F F0 FF FF  7F 73 30 34 7A 13 80 2B  .........s04z..+
0790: 2F 72 05 01 40 80 23 52  12 80 F0 FF FF 7F F0 FF  /r..@.#R........
07A0: FF 7F 73 30 34 7A 45 12  80 F0 FF FF 7F F0 FF FF  ..s04zE.........
07B0: 7F 73 30 34 77 13 80 94  01 30 72 05 01 94 01 2F  .s04w....0r..../
07C0: 72 05 01 27 10 2F 72 05  01 16 27 10 30 72 05 01  r..'./r...'.0r..
07D0: 16 27 10 F0 FF FF 7F 58  1C 15 80 52 12 80 F0 FF  .'.....X...R....
07E0: FF 7F F0 FF FF 7F 73 30  34 77 45 12 80 F0 FF FF  ......s04wE.....
07F0: 7F F0 FF FF 7F 73 30 34  78 13 80 1C 41 80 1A 3C  .....s04x...A..<
0800: 2C 1C 1E 80 52 12 80 F0  FF FF 7F F0 FF FF 7F 73  ,...R..........s
0810: 30 34 78 46 00 45 42 80  F0 FF FF 7F F0 FF FF 7F  04xF.EB.........
0820: 66 64 69 32 13 80 21 00                           fdi2..!.        
```

#### Opcodes

```
  0: 0x0001 [0x42] SET_CLI_EVENT_CANCEL_DATA()
  1: 0x0002 [0x1A] CALL_SUBROUTINE(address=0x2C3C)
  2: 0x0005 [0x46] CAMERA_CONTROL: Disable user control
  3: 0x0007 [0x38] SET_CLIENT_EVENT_MODE(mode=19*)
  4: 0x000A [0x4E] SET_ENTITY_HIDE_FLAG: Show LocalPlayer
  5: 0x0010 [0x2F] Herbert (ID: 17134258/0x010572B2)->Render.Flags0 &= ~0x80000 // Bit 19
  6: 0x0016 [0x2F] Five Moons (ID: 17134128/0x01057230)->Render.Flags0 &= ~0x80000 // Bit 19
  7: 0x001C [0x2F] Nicolaus (ID: 17134127/0x0105722F)->Render.Flags0 &= ~0x80000 // Bit 19
  8: 0x0022 [0x2F] Gentle Tiger (ID: 17134123/0x0105722B)->Render.Flags0 &= ~0x80000 // Bit 19
  9: 0x0028 [0x4E] SET_ENTITY_HIDE_FLAG: Show Herbert (ID: 17134258/0x010572B2)
 10: 0x002E [0x4E] SET_ENTITY_HIDE_FLAG: Show Five Moons (ID: 17134128/0x01057230)
 11: 0x0034 [0x4E] SET_ENTITY_HIDE_FLAG: Show Nicolaus (ID: 17134127/0x0105722F)
 12: 0x003A [0x4E] SET_ENTITY_HIDE_FLAG: Show Gentle Tiger (ID: 17134123/0x0105722B)
 13: 0x0040 [0x4E] SET_ENTITY_HIDE_FLAG: Show LocalPlayer
 14: 0x0046 [0x92] Five Moons (ID: 17134128/0x01057230)->Render.Flags3 ^= 0x01
 15: 0x004C [0x92] Nicolaus (ID: 17134127/0x0105722F)->Render.Flags3 ^= 0x01
 16: 0x0052 [0x92] Gentle Tiger (ID: 17134123/0x0105722B)->Render.Flags3 ^= 0x01
 17: 0x0058 [0x92] Herbert (ID: 17134258/0x010572B2)->Render.Flags3 ^= 0x01
 18: 0x005E [0x94] LocalPlayer->Render.Flags3 ^= 0x01
 19: 0x0064 [0x94] Five Moons (ID: 17134128/0x01057230)->Render.Flags3 ^= 0x01
 20: 0x006A [0x94] Nicolaus (ID: 17134127/0x0105722F)->Render.Flags3 ^= 0x01
 21: 0x0070 [0x94] Gentle Tiger (ID: 17134123/0x0105722B)->Render.Flags3 ^= 0x01
 22: 0x0076 [0x94] Herbert (ID: 17134258/0x010572B2)->Render.Flags3 ^= 0x01
 23: 0x007C [0xBA] SET_ENTITY_POSITION(entity_id=LocalPlayer, pos_x=-200.490*, pos_z=2.173*, pos_y=-9.998*, direction=188.3°*)
 24: 0x0089 [0xBA] SET_ENTITY_POSITION(entity_id=Herbert (ID: 17134258/0x010572B2), pos_x=-192.630*, pos_z=15.664*, pos_y=-9.999*, direction=111.7°*)
 25: 0x0096 [0xBA] SET_ENTITY_POSITION(entity_id=Five Moons (ID: 17134128/0x01057230), pos_x=-199.265*, pos_z=-5.901*, pos_y=-9.998*, direction=263.7°*)
 26: 0x00A3 [0xBA] SET_ENTITY_POSITION(entity_id=Nicolaus (ID: 17134127/0x0105722F), pos_x=-200.865*, pos_z=-6.068*, pos_y=-9.998*, direction=263.7°*)
 27: 0x00B0 [0xBA] SET_ENTITY_POSITION(entity_id=Gentle Tiger (ID: 17134123/0x0105722B), pos_x=-203.112*, pos_z=2.513*, pos_y=-9.998*, direction=39.5°*)
 28: 0x00BD [0x80] LOAD_WAIT(entity=LocalPlayer)
 29: 0x00C2 [0x80] LOAD_WAIT(entity=Herbert (ID: 17134258/0x010572B2))
 30: 0x00C7 [0x80] LOAD_WAIT(entity=Five Moons (ID: 17134128/0x01057230))
 31: 0x00CC [0x80] LOAD_WAIT(entity=Nicolaus (ID: 17134127/0x0105722F))
 32: 0x00D1 [0x80] LOAD_WAIT(entity=Gentle Tiger (ID: 17134123/0x0105722B))
 33: 0x00D6 [0x7C] Gentle Tiger (ID: 17134123/0x0105722B)->Render.Flags2 |= 0x00
 34: 0x00DC [0x1C] WAIT(15* ticks)
 35: 0x00DF [0x45] LOAD_SCHEDULED_TASK: Load scheduler "s04a" with entities [LocalPlayer, LocalPlayer], work=[502*, 0*]
 36: 0x00F0 [0x79] LocalPlayer looks at Gentle Tiger (ID: 17134123/0x0105722B) (Basic look)
 37: 0x00FA [0x1A] CALL_SUBROUTINE(address=0x2C1B)
 38: 0x00FD [0x1C] WAIT(60* ticks)
 39: 0x0100 [0x29] REQ_SET_WAIT(priority=0x10, entity_id=LocalPlayer, tag_num=0x54)
 40: 0x0107 [0x1C] WAIT(90* ticks)
 41: 0x010A [0x52] END_LOAD_SCHEDULER: End scheduler "s04a" with entities [LocalPlayer, LocalPlayer], work=502*
 42: 0x0119 [0x45] LOAD_SCHEDULED_TASK: Load scheduler "s04b" with entities [LocalPlayer, LocalPlayer], work=[502*, 0*]
 43: 0x012A [0x2B] Gentle Tiger (ID: 17134123/0x0105722B) [13387*]:
    → "(Mmm, Galkan sausages...pumpkin pie...om nom nom nom...) ...Hm?"
 44: 0x0131 [0x23] WAIT_FOR_DIALOG_INTERACTION
 45: 0x0132 [0x4A] Gentle Tiger (ID: 17134123/0x0105722B) looks at LocalPlayer
 46: 0x013B [0x7C] Gentle Tiger (ID: 17134123/0x0105722B)->Render.Flags2 |= 0x01
 47: 0x0141 [0x1C] WAIT(90* ticks)
 48: 0x0144 [0x66] LOAD_EXT_SCHEDULER_MAIN: Load scheduler "tlk0" with entities [Gentle Tiger (ID: 17134123/0x0105722B), Gentle Tiger (ID: 17134123/0x0105722B)], work=69*
 49: 0x0153 [0x2B] Gentle Tiger (ID: 17134123/0x0105722B) [13388*]:
    → "Oh, it's you, <Player>. Forgive me. Ever since the attempt on the president's life, I haven't been sleeping so well at night."
 50: 0x015A [0x23] WAIT_FOR_DIALOG_INTERACTION
 51: 0x015B [0x66] LOAD_EXT_SCHEDULER_MAIN: Load scheduler "tlk1" with entities [Gentle Tiger (ID: 17134123/0x0105722B), Gentle Tiger (ID: 17134123/0x0105722B)], work=69*
 52: 0x016A [0x2B] Gentle Tiger (ID: 17134123/0x0105722B) [13389*]:
    → "A guardsman like me's got plenty of time to ponder. No matter how much I rack my brains, though, I can't believe that Captain Klara was behind the heinous deed."
 53: 0x0171 [0x23] WAIT_FOR_DIALOG_INTERACTION
 54: 0x0172 [0x52] END_LOAD_SCHEDULER: End scheduler "s04b" with entities [LocalPlayer, LocalPlayer], work=502*
 55: 0x0181 [0x45] LOAD_SCHEDULED_TASK: Load scheduler "s04c" with entities [LocalPlayer, LocalPlayer], work=[502*, 0*]
 56: 0x0192 [0x2B] Gentle Tiger (ID: 17134123/0x0105722B) [13390*]:
    → "'Course, all the official announcements from the president's office are claiming it to be the work of a Tonberry, so's not to cause a public stir. Ah, were it only so!"
 57: 0x0199 [0x23] WAIT_FOR_DIALOG_INTERACTION
 58: 0x019A [0x2B] ??? (ID: 17134105/0x01057219) [13391*]:
    → "You can say that again, friend."
 59: 0x01A1 [0x23] WAIT_FOR_DIALOG_INTERACTION
 60: 0x01A2 [0x52] END_LOAD_SCHEDULER: End scheduler "s04c" with entities [LocalPlayer, LocalPlayer], work=502*
 61: 0x01B1 [0x45] LOAD_SCHEDULED_TASK: Load scheduler "s04d" with entities [LocalPlayer, LocalPlayer], work=[502*, 0*]
 62: 0x01C2 [0x7B] LocalPlayer stops talking
 63: 0x01C7 [0x27] REQ_SET(priority=0x10, entity_id=Five Moons (ID: 17134128/0x01057230), tag_num=0x11)
 64: 0x01CE [0x27] REQ_SET(priority=0x10, entity_id=Nicolaus (ID: 17134127/0x0105722F), tag_num=0x13)
 65: 0x01D5 [0x4A] Gentle Tiger (ID: 17134123/0x0105722B) looks at Five Moons (ID: 17134128/0x01057230)
 66: 0x01DE [0x4A] LocalPlayer looks at Five Moons (ID: 17134128/0x01057230)
 67: 0x01E7 [0x1C] WAIT(150* ticks)
 68: 0x01EA [0x52] END_LOAD_SCHEDULER: End scheduler "s04d" with entities [LocalPlayer, LocalPlayer], work=502*
 69: 0x01F9 [0x45] LOAD_SCHEDULED_TASK: Load scheduler "s04e" with entities [LocalPlayer, LocalPlayer], work=[502*, 0*]
 70: 0x020A [0x2B] Gentle Tiger (ID: 17134123/0x0105722B) [13392*]:
    → "Why, if it isn't Nicolaus and Five Moons! How fare the Mythril Musketeers?"
 71: 0x0211 [0x23] WAIT_FOR_DIALOG_INTERACTION
 72: 0x0212 [0x2A] GET_REQ_LEVEL(level=16, entity_id=Nicolaus (ID: 17134127/0x0105722F))
 73: 0x0218 [0x2A] GET_REQ_LEVEL(level=16, entity_id=Five Moons (ID: 17134128/0x01057230))
 74: 0x021E [0x1C] WAIT(30* ticks)
 75: 0x0221 [0x66] LOAD_EXT_SCHEDULER_MAIN: Load scheduler "tlk0" with entities [Nicolaus (ID: 17134127/0x0105722F), Nicolaus (ID: 17134127/0x0105722F)], work=0*
 76: 0x0230 [0x2B] Nicolaus (ID: 17134127/0x0105722F) [13393*]:
    → "They fare not at all, I'm afraid. Thanks to our erstwhile captain's foray into the field of presidential assassination, our glorious unit has been disbanded, and its members relegated to penal duty."
 77: 0x0237 [0x23] WAIT_FOR_DIALOG_INTERACTION
 78: 0x0238 [0x2B] Nicolaus (ID: 17134127/0x0105722F) [13394*]:
    → "We proudly stand before you as Nicolaus and Five Moons of Disciplinary Company Skink. Zeid was sent to the field with Company Jackal, no doubt to perform some suitably arduous and trivial task."
 79: 0x023F [0x23] WAIT_FOR_DIALOG_INTERACTION
 80: 0x0240 [0x66] LOAD_EXT_SCHEDULER_MAIN: Load scheduler "ten0" with entities [Nicolaus (ID: 17134127/0x0105722F), Nicolaus (ID: 17134127/0x0105722F)], work=0*
 81: 0x024F [0x1C] WAIT(60* ticks)
 82: 0x0252 [0x52] END_LOAD_SCHEDULER: End scheduler "s04e" with entities [LocalPlayer, LocalPlayer], work=502*
 83: 0x0261 [0x45] LOAD_SCHEDULED_TASK: Load scheduler "s04f" with entities [LocalPlayer, LocalPlayer], work=[502*, 0*]
 84: 0x0272 [0x4A] LocalPlayer looks at Nicolaus (ID: 17134127/0x0105722F)
 85: 0x027B [0x4A] Nicolaus (ID: 17134127/0x0105722F) looks at LocalPlayer
 86: 0x0284 [0x2B] Nicolaus (ID: 17134127/0x0105722F) [13395*]:
    → "Consider yourself lucky you were only an honorary member of our squad, <Player>. Were you a full-fledged Musketeer, you'd surely have suffered the same fate."
 87: 0x028B [0x23] WAIT_FOR_DIALOG_INTERACTION
 88: 0x028C [0x6E] LocalPlayer uses emote 29*
 89: 0x0293 [0x99] Wait for LocalPlayer animation to complete
 90: 0x0298 [0x1C] WAIT(120* ticks)
 91: 0x029B [0x52] END_LOAD_SCHEDULER: End scheduler "s04f" with entities [LocalPlayer, LocalPlayer], work=502*
 92: 0x02AA [0x45] LOAD_SCHEDULED_TASK: Load scheduler "s04g" with entities [LocalPlayer, LocalPlayer], work=[502*, 0*]
 93: 0x02BB [0x4A] Five Moons (ID: 17134128/0x01057230) looks at Nicolaus (ID: 17134127/0x0105722F)
 94: 0x02C4 [0x2B] Five Moons (ID: 17134128/0x01057230) [13396*]:
    → "I just can't make sense of it, Nicolaus. What unholy madness could have driven an honorable soldier to such treachery?"
 95: 0x02CB [0x23] WAIT_FOR_DIALOG_INTERACTION
 96: 0x02CC [0xBA] SET_ENTITY_POSITION(entity_id=Herbert (ID: 17134258/0x010572B2), pos_x=-198.689*, pos_z=8.536*, pos_y=-9.998*, direction=111.8°*)
 97: 0x02D9 [0x66] LOAD_EXT_SCHEDULER_MAIN: Load scheduler "thk1" with entities [Nicolaus (ID: 17134127/0x0105722F), Nicolaus (ID: 17134127/0x0105722F)], work=0*
 98: 0x02E8 [0x7B] Nicolaus (ID: 17134127/0x0105722F) stops talking
 99: 0x02ED [0x2B] Nicolaus (ID: 17134127/0x0105722F) [13397*]:
    → "I wish I had answers, Five Moons, but my deductive powers fail me this time. There's simply no logical motive that could account for the captain of the Mythril Musketeers drawing steel against the very man she was sworn to protect."
100: 0x02F4 [0x23] WAIT_FOR_DIALOG_INTERACTION
101: 0x02F5 [0x66] LOAD_EXT_SCHEDULER_MAIN: Load scheduler "thk2" with entities [Nicolaus (ID: 17134127/0x0105722F), Nicolaus (ID: 17134127/0x0105722F)], work=0*
102: 0x0304 [0x1C] WAIT(60* ticks)
103: 0x0307 [0x4A] Nicolaus (ID: 17134127/0x0105722F) looks at Five Moons (ID: 17134128/0x01057230)
104: 0x0310 [0x52] END_LOAD_SCHEDULER: End scheduler "s04g" with entities [LocalPlayer, LocalPlayer], work=502*
105: 0x031F [0x45] LOAD_SCHEDULED_TASK: Load scheduler "s04h" with entities [LocalPlayer, LocalPlayer], work=[502*, 0*]
106: 0x0330 [0x1C] WAIT(60* ticks)
107: 0x0333 [0x66] LOAD_EXT_SCHEDULER_MAIN: Load scheduler "tlk1" with entities [Nicolaus (ID: 17134127/0x0105722F), Nicolaus (ID: 17134127/0x0105722F)], work=0*
108: 0x0342 [0x2B] Nicolaus (ID: 17134127/0x0105722F) [13398*]:
    → "...And yet that's exactly what she did. Even Volker was made to feel the wrath of her treasonous blade."
109: 0x0349 [0x23] WAIT_FOR_DIALOG_INTERACTION
110: 0x034A [0x66] LOAD_EXT_SCHEDULER_MAIN: Load scheduler "ten1" with entities [Nicolaus (ID: 17134127/0x0105722F), Nicolaus (ID: 17134127/0x0105722F)], work=0*
111: 0x0359 [0x1C] WAIT(60* ticks)
112: 0x035C [0x52] END_LOAD_SCHEDULER: End scheduler "s04h" with entities [LocalPlayer, LocalPlayer], work=502*
113: 0x036B [0x45] LOAD_SCHEDULED_TASK: Load scheduler "s04i" with entities [LocalPlayer, LocalPlayer], work=[502*, 0*]
114: 0x037C [0x4A] Nicolaus (ID: 17134127/0x0105722F) looks at LocalPlayer
115: 0x0385 [0x4A] Five Moons (ID: 17134128/0x01057230) looks at LocalPlayer
116: 0x038E [0x1C] WAIT(60* ticks)
117: 0x0391 [0x66] LOAD_EXT_SCHEDULER_MAIN: Load scheduler "tlk0" with entities [Nicolaus (ID: 17134127/0x0105722F), Nicolaus (ID: 17134127/0x0105722F)], work=0*
118: 0x03A0 [0x2B] Nicolaus (ID: 17134127/0x0105722F) [13399*]:
    → "Thankfully, he suffered only graze wounds. Still, one thing remains clear. Captain Klara must be tracked down and made to answer for her crimes."
119: 0x03A7 [0x23] WAIT_FOR_DIALOG_INTERACTION
120: 0x03A8 [0x66] LOAD_EXT_SCHEDULER_MAIN: Load scheduler "ten0" with entities [Nicolaus (ID: 17134127/0x0105722F), Nicolaus (ID: 17134127/0x0105722F)], work=0*
121: 0x03B7 [0x2B] ??? (ID: 17134105/0x01057219) [13400*]:
    → "So this is where you slithery Skinks scurried off to! We've got a situation on our hands!"
122: 0x03BE [0x23] WAIT_FOR_DIALOG_INTERACTION
123: 0x03BF [0x52] END_LOAD_SCHEDULER: End scheduler "s04i" with entities [LocalPlayer, LocalPlayer], work=502*
124: 0x03CE [0x45] LOAD_SCHEDULED_TASK: Load scheduler "s04j" with entities [LocalPlayer, LocalPlayer], work=[502*, 0*]
125: 0x03DF [0x4A] LocalPlayer looks at Herbert (ID: 17134258/0x010572B2)
126: 0x03E8 [0x4A] Gentle Tiger (ID: 17134123/0x0105722B) looks at Herbert (ID: 17134258/0x010572B2)
127: 0x03F1 [0x4A] Nicolaus (ID: 17134127/0x0105722F) looks at Herbert (ID: 17134258/0x010572B2)
128: 0x03FA [0x4A] Five Moons (ID: 17134128/0x01057230) looks at Herbert (ID: 17134258/0x010572B2)
129: 0x0403 [0x27] REQ_SET(priority=0x10, entity_id=Herbert (ID: 17134258/0x010572B2), tag_num=0x02)
130: 0x040A [0x1C] WAIT(150* ticks)
131: 0x040D [0x94] LocalPlayer->Render.Flags3 ^= 0x01
132: 0x0413 [0x27] REQ_SET(priority=0x10, entity_id=LocalPlayer, tag_num=0x55)
133: 0x041A [0x1C] WAIT(60* ticks)
134: 0x041D [0x52] END_LOAD_SCHEDULER: End scheduler "s04j" with entities [LocalPlayer, LocalPlayer], work=502*
135: 0x042C [0x45] LOAD_SCHEDULED_TASK: Load scheduler "s04t" with entities [LocalPlayer, LocalPlayer], work=[502*, 0*]
136: 0x043D [0x2A] GET_REQ_LEVEL(level=16, entity_id=Herbert (ID: 17134258/0x010572B2))
137: 0x0443 [0x4A] Gentle Tiger (ID: 17134123/0x0105722B) looks at Herbert (ID: 17134258/0x010572B2)
138: 0x044C [0x1C] WAIT(210* ticks)
139: 0x044F [0x52] END_LOAD_SCHEDULER: End scheduler "s04t" with entities [LocalPlayer, LocalPlayer], work=502*
140: 0x045E [0x45] LOAD_SCHEDULED_TASK: Load scheduler "s04k" with entities [LocalPlayer, LocalPlayer], work=[502*, 0*]
141: 0x046F [0x27] REQ_SET(priority=0x10, entity_id=Nicolaus (ID: 17134127/0x0105722F), tag_num=0x15)
142: 0x0476 [0x27] REQ_SET(priority=0x10, entity_id=Five Moons (ID: 17134128/0x01057230), tag_num=0x13)
143: 0x047D [0x2B] Nicolaus (ID: 17134127/0x0105722F) [13401*]:
    → "Disciplinary Captain Herbert! Whatever is the matter?"
144: 0x0484 [0x23] WAIT_FOR_DIALOG_INTERACTION
145: 0x0485 [0x2A] GET_REQ_LEVEL(level=16, entity_id=Nicolaus (ID: 17134127/0x0105722F))
146: 0x048B [0x2A] GET_REQ_LEVEL(level=16, entity_id=Five Moons (ID: 17134128/0x01057230))
147: 0x0491 [0x52] END_LOAD_SCHEDULER: End scheduler "s04k" with entities [LocalPlayer, LocalPlayer], work=502*
148: 0x04A0 [0x45] LOAD_SCHEDULED_TASK: Load scheduler "s04l" with entities [LocalPlayer, LocalPlayer], work=[502*, 0*]
149: 0x04B1 [0x2B] Herbert (ID: 17134258/0x010572B2) [13402*]:
    → "Ahem. Whatever is the matter, "sir." I'm your superior now, and you'd best not be forgetting! It's that masked meddler Zeid...he's deserted his unit!"
150: 0x04B8 [0x5D] SET_MUSIC_VOLUME(volume=0*, fade_time=90*)
151: 0x04BD [0x1C] WAIT(90* ticks)
152: 0x04C0 [0x23] WAIT_FOR_DIALOG_INTERACTION
153: 0x04C1 [0x52] END_LOAD_SCHEDULER: End scheduler "s04l" with entities [LocalPlayer, LocalPlayer], work=502*
154: 0x04D0 [0x5C] MUSIC_CONTROL: Set Idle (Day) music to song 127*
155: 0x04D4 [0x5C] MUSIC_CONTROL: Set Idle (Night) music to song 127*
156: 0x04D8 [0x5D] SET_MUSIC_VOLUME(volume=100*, fade_time=120*)
157: 0x04DD [0x52] END_LOAD_SCHEDULER: End scheduler "s040" with entities [LocalPlayer, LocalPlayer], work=502*
158: 0x04EC [0x45] LOAD_SCHEDULED_TASK: Load scheduler "s04m" with entities [LocalPlayer, LocalPlayer], work=[502*, 0*]
159: 0x04FD [0x27] REQ_SET(priority=0x10, entity_id=Five Moons (ID: 17134128/0x01057230), tag_num=0x15)
160: 0x0504 [0x2B] Nicolaus (ID: 17134127/0x0105722F) [13403*]:
    → "What!?"
161: 0x050B [0x23] WAIT_FOR_DIALOG_INTERACTION
162: 0x050C [0x9A] WAIT_MUSIC_SERVER()
163: 0x050D [0x52] END_LOAD_SCHEDULER: End scheduler "s04m" with entities [LocalPlayer, LocalPlayer], work=502*
164: 0x051C [0x45] LOAD_SCHEDULED_TASK: Load scheduler "blof" with entities [LocalPlayer, LocalPlayer], work=[502*, 0*]
165: 0x052D [0x45] LOAD_SCHEDULED_TASK: Load scheduler "s04n" with entities [LocalPlayer, LocalPlayer], work=[502*, 0*]
166: 0x053E [0x2B] Herbert (ID: 17134258/0x010572B2) [13404*]:
    → "You heard me, I said he deserted! An emergency dispatch just came in from the Jackal sergeant in Beadeaux. He says your surly comrade went off on a survey of Quadav territory, and failed to return with his squad."
167: 0x0545 [0x23] WAIT_FOR_DIALOG_INTERACTION
168: 0x0546 [0x2B] Herbert (ID: 17134258/0x010572B2) [13405*]:
    → "I've ordered a handful of men to join the search effort, and it's time you got off your pampered posteriors and joined them. You hear me, Skinks? That's an order!"
169: 0x054D [0x23] WAIT_FOR_DIALOG_INTERACTION
170: 0x054E [0x27] REQ_SET(priority=0x10, entity_id=Nicolaus (ID: 17134127/0x0105722F), tag_num=0x15)
171: 0x0555 [0x2B] Nicolaus (ID: 17134127/0x0105722F) [13406*]:
    → "Y-yes sir! Incidentally, would you happen to have any insight into his destination? Any potential leads at all would be most--"
172: 0x055C [0x23] WAIT_FOR_DIALOG_INTERACTION
173: 0x055D [0x2A] GET_REQ_LEVEL(level=16, entity_id=Nicolaus (ID: 17134127/0x0105722F))
174: 0x0563 [0x52] END_LOAD_SCHEDULER: End scheduler "s04n" with entities [LocalPlayer, LocalPlayer], work=502*
175: 0x0572 [0x45] LOAD_SCHEDULED_TASK: Load scheduler "s04o" with entities [LocalPlayer, LocalPlayer], work=[502*, 0*]
176: 0x0583 [0x2B] Herbert (ID: 17134258/0x010572B2) [13407*]:
    → "What do I look like, a Goblin tipster? I haven't the time or interest to keep up with every half-baked rumor brought to me! Besides, I've business in Eldieme. If you're going to bother someone, make it Sergeant Rainer of the Jackals. Now get lost! And next time I see you scrubs, that overgrown loafer had better be with you!"
177: 0x058A [0x23] WAIT_FOR_DIALOG_INTERACTION
178: 0x058B [0x52] END_LOAD_SCHEDULER: End scheduler "s04o" with entities [LocalPlayer, LocalPlayer], work=502*
179: 0x059A [0x45] LOAD_SCHEDULED_TASK: Load scheduler "s04s" with entities [LocalPlayer, LocalPlayer], work=[502*, 0*]
180: 0x05AB [0x27] REQ_SET(priority=0x10, entity_id=Herbert (ID: 17134258/0x010572B2), tag_num=0x03)
181: 0x05B2 [0x94] LocalPlayer->Render.Flags3 ^= 0x01
182: 0x05B8 [0x27] REQ_SET(priority=0x10, entity_id=LocalPlayer, tag_num=0x56)
183: 0x05BF [0x1C] WAIT(45* ticks)
184: 0x05C2 [0x4A] Gentle Tiger (ID: 17134123/0x0105722B) looks at Herbert (ID: 17134258/0x010572B2)
185: 0x05CB [0x2A] GET_REQ_LEVEL(level=16, entity_id=LocalPlayer)
186: 0x05D1 [0x1C] WAIT(120* ticks)
187: 0x05D4 [0x52] END_LOAD_SCHEDULER: End scheduler "s04s" with entities [LocalPlayer, LocalPlayer], work=502*
188: 0x05E3 [0x45] LOAD_SCHEDULED_TASK: Load scheduler "s04u" with entities [LocalPlayer, LocalPlayer], work=[502*, 0*]
189: 0x05F4 [0x2B] Five Moons (ID: 17134128/0x01057230) [13408*]:
    → "Desertion? That doesn't sound at all like the Zeid I know..."
190: 0x05FB [0x23] WAIT_FOR_DIALOG_INTERACTION
191: 0x05FC [0x52] END_LOAD_SCHEDULER: End scheduler "s04u" with entities [LocalPlayer, LocalPlayer], work=502*
192: 0x060B [0x45] LOAD_SCHEDULED_TASK: Load scheduler "s04v" with entities [LocalPlayer, LocalPlayer], work=[502*, 0*]
193: 0x061C [0x66] LOAD_EXT_SCHEDULER_MAIN: Load scheduler "thk1" with entities [Nicolaus (ID: 17134127/0x0105722F), Nicolaus (ID: 17134127/0x0105722F)], work=0*
194: 0x062B [0x2B] Nicolaus (ID: 17134127/0x0105722F) [13409*]:
    → "As if we hadn't suffered enough indignity, now he flouts our superiors further? What could the man possibly be thinking? But I'm afraid we haven't the luxury to ponder his motives. If we don't find him, and soon, we can prepare for the worst..."
195: 0x0632 [0x23] WAIT_FOR_DIALOG_INTERACTION
196: 0x0633 [0x52] END_LOAD_SCHEDULER: End scheduler "s04v" with entities [LocalPlayer, LocalPlayer], work=502*
197: 0x0642 [0x45] LOAD_SCHEDULED_TASK: Load scheduler "s04q" with entities [LocalPlayer, LocalPlayer], work=[502*, 0*]
198: 0x0653 [0x7A] VM_CONTROL: Reset VM for Herbert (ID: 17134258/0x010572B2)
199: 0x0659 [0xBA] SET_ENTITY_POSITION(entity_id=Herbert (ID: 17134258/0x010572B2), pos_x=-192.630*, pos_z=15.664*, pos_y=-9.999*, direction=111.7°*)
200: 0x0666 [0x4A] Five Moons (ID: 17134128/0x01057230) looks at Nicolaus (ID: 17134127/0x0105722F)
201: 0x066F [0x2B] Five Moons (ID: 17134128/0x01057230) [13410*]:
    → "The worst, you say?"
202: 0x0676 [0x23] WAIT_FOR_DIALOG_INTERACTION
203: 0x0677 [0x66] LOAD_EXT_SCHEDULER_MAIN: Load scheduler "thk2" with entities [Nicolaus (ID: 17134127/0x0105722F), Nicolaus (ID: 17134127/0x0105722F)], work=0*
204: 0x0686 [0x2B] Nicolaus (ID: 17134127/0x0105722F) [13411*]:
    → "The maximum penalty for desertion during wartime is death, after all...and there are plenty of loose cannons in the disciplinary regiments looking to impress their superiors. If one of them were to find him, why, his sentence just might be carried out on the spot..."
205: 0x068D [0x23] WAIT_FOR_DIALOG_INTERACTION
206: 0x068E [0x4A] Nicolaus (ID: 17134127/0x0105722F) looks at Five Moons (ID: 17134128/0x01057230)
207: 0x0697 [0x52] END_LOAD_SCHEDULER: End scheduler "s04q" with entities [LocalPlayer, LocalPlayer], work=502*
208: 0x06A6 [0x45] LOAD_SCHEDULED_TASK: Load scheduler "s04r" with entities [LocalPlayer, LocalPlayer], work=[502*, 0*]
209: 0x06B7 [0x66] LOAD_EXT_SCHEDULER_MAIN: Load scheduler "tlk0" with entities [Five Moons (ID: 17134128/0x01057230), Five Moons (ID: 17134128/0x01057230)], work=69*
210: 0x06C6 [0x4A] LocalPlayer looks at Nicolaus (ID: 17134127/0x0105722F)
211: 0x06CF [0x4A] Gentle Tiger (ID: 17134123/0x0105722B) looks at Nicolaus (ID: 17134127/0x0105722F)
212: 0x06D8 [0x2B] Five Moons (ID: 17134128/0x01057230) [13412*]:
    → "Then we must find him before the others do!"
213: 0x06DF [0x23] WAIT_FOR_DIALOG_INTERACTION
214: 0x06E0 [0x66] LOAD_EXT_SCHEDULER_MAIN: Load scheduler "tlk1" with entities [Five Moons (ID: 17134128/0x01057230), Five Moons (ID: 17134128/0x01057230)], work=69*
215: 0x06EF [0x66] LOAD_EXT_SCHEDULER_MAIN: Load scheduler "thk1" with entities [Nicolaus (ID: 17134127/0x0105722F), Nicolaus (ID: 17134127/0x0105722F)], work=0*
216: 0x06FE [0x4A] Five Moons (ID: 17134128/0x01057230) looks at Nicolaus (ID: 17134127/0x0105722F)
217: 0x0707 [0x2B] Nicolaus (ID: 17134127/0x0105722F) [13413*]:
    → "Yes. If we can convince him to return of his own accord, there's still hope. But it'll be no small task to track him down without knowing his true intentions..."
218: 0x070E [0x23] WAIT_FOR_DIALOG_INTERACTION
219: 0x070F [0x66] LOAD_EXT_SCHEDULER_MAIN: Load scheduler "thk2" with entities [Nicolaus (ID: 17134127/0x0105722F), Nicolaus (ID: 17134127/0x0105722F)], work=0*
220: 0x071E [0x2B] Nicolaus (ID: 17134127/0x0105722F) [13414*]:
    → "In any event, there's nothing to be gained standing around here. Let's make for Beadeaux and see what clues this Sergeant Rainer may have for us."
221: 0x0725 [0x23] WAIT_FOR_DIALOG_INTERACTION
222: 0x0726 [0x52] END_LOAD_SCHEDULER: End scheduler "s04r" with entities [LocalPlayer, LocalPlayer], work=502*
223: 0x0735 [0x45] LOAD_SCHEDULED_TASK: Load scheduler "s04y" with entities [LocalPlayer, LocalPlayer], work=[502*, 0*]
224: 0x0746 [0x4A] Nicolaus (ID: 17134127/0x0105722F) looks at LocalPlayer
225: 0x074F [0x4A] Five Moons (ID: 17134128/0x01057230) looks at LocalPlayer
226: 0x0758 [0x2B] Nicolaus (ID: 17134127/0x0105722F) [13415*]:
    → "I trust you're up to the task as well, <Player>?"
227: 0x075F [0x23] WAIT_FOR_DIALOG_INTERACTION
228: 0x0760 [0x6E] LocalPlayer uses emote 7*
229: 0x0767 [0x99] Wait for LocalPlayer animation to complete
230: 0x076C [0x1C] WAIT(90* ticks)
231: 0x076F [0x52] END_LOAD_SCHEDULER: End scheduler "s04y" with entities [LocalPlayer, LocalPlayer], work=502*
232: 0x077E [0x45] LOAD_SCHEDULED_TASK: Load scheduler "s04z" with entities [LocalPlayer, LocalPlayer], work=[502*, 0*]
233: 0x078F [0x2B] Nicolaus (ID: 17134127/0x0105722F) [13416*]:
    → "Excellent! With our three heads together, we're bound to come up with something. Very well then, let's be off!"
234: 0x0796 [0x23] WAIT_FOR_DIALOG_INTERACTION
235: 0x0797 [0x52] END_LOAD_SCHEDULER: End scheduler "s04z" with entities [LocalPlayer, LocalPlayer], work=502*
236: 0x07A6 [0x45] LOAD_SCHEDULED_TASK: Load scheduler "s04w" with entities [LocalPlayer, LocalPlayer], work=[502*, 0*]
237: 0x07B7 [0x94] Five Moons (ID: 17134128/0x01057230)->Render.Flags3 ^= 0x01
238: 0x07BD [0x94] Nicolaus (ID: 17134127/0x0105722F)->Render.Flags3 ^= 0x01
239: 0x07C3 [0x27] REQ_SET(priority=0x10, entity_id=Nicolaus (ID: 17134127/0x0105722F), tag_num=0x16)
240: 0x07CA [0x27] REQ_SET(priority=0x10, entity_id=Five Moons (ID: 17134128/0x01057230), tag_num=0x16)
241: 0x07D1 [0x27] REQ_SET(priority=0x10, entity_id=LocalPlayer, tag_num=0x58)
242: 0x07D8 [0x1C] WAIT(90* ticks)
243: 0x07DB [0x52] END_LOAD_SCHEDULER: End scheduler "s04w" with entities [LocalPlayer, LocalPlayer], work=502*
244: 0x07EA [0x45] LOAD_SCHEDULED_TASK: Load scheduler "s04x" with entities [LocalPlayer, LocalPlayer], work=[502*, 0*]
245: 0x07FB [0x1C] WAIT(240* ticks)
246: 0x07FE [0x1A] CALL_SUBROUTINE(address=0x2C3C)
247: 0x0801 [0x1C] WAIT(30* ticks)
248: 0x0804 [0x52] END_LOAD_SCHEDULER: End scheduler "s04x" with entities [LocalPlayer, LocalPlayer], work=502*
249: 0x0813 [0x46] CAMERA_CONTROL: Restore default settings
250: 0x0815 [0x45] LOAD_SCHEDULED_TASK: Load scheduler "fdi2" with entities [LocalPlayer, LocalPlayer], work=[200*, 0*]
251: 0x0826 [0x21] END_EVENT
252: 0x0827 [0x00] END_REQSTACK()
```

### Event 346

#### Metadata

| Field        | Value      |
|--------------|------------|
| Entrypoint   | 0x0828     |
| Data Size    | 1067 bytes |
| Instructions | 148        |

```
      00 01 02 03 04 05 06 07  08 09 0A 0B 0C 0D 0E 0F
      -- -- -- -- -- -- -- --  -- -- -- -- -- -- -- --
0820:                          42 1A 3C 2C 46 01 38 00          B.<,F.8.
0830: 80 4E 00 F0 FF FF 7F 2F  00 2B 72 05 01 4E 00 2B  .N...../.+r..N.+
0840: 72 05 01 92 01 2B 72 05  01 94 01 F0 FF FF 7F 94  r....+r.........
0850: 01 2B 72 05 01 BA F0 FF  FF 7F 43 80 44 80 03 80  .+r.......C.D...
0860: 04 80 BA 2B 72 05 01 0E  80 0F 80 03 80 13 80 80  ...+r...........
0870: F0 FF FF 7F 80 2B 72 05  01 1C 11 80 45 12 80 F0  .....+r.....E...
0880: FF FF 7F F0 FF FF 7F 30  36 30 61 13 80 79 00 F0  .......060a..y..
0890: FF FF 7F 2B 72 05 01 79  00 2B 72 05 01 F0 FF FF  ...+r..y.+r.....
08A0: 7F 1A 1B 2C 2B 2B 72 05  01 45 80 23 2B 2B 72 05  ...,++r..E.#++r.
08B0: 01 46 80 23 27 10 F0 FF  FF 7F 59 1C 2C 80 1A 3C  .F.#'.....Y.,..<
08C0: 2C 52 12 80 F0 FF FF 7F  F0 FF FF 7F 30 36 30 61  ,R..........060a
08D0: 7A 00 F0 FF FF 7F 34 47  80 77 48 80 49 80 1C 1E  z.....4G.wH.I...
08E0: 80 AB 09 75 00 4A 80 75  01 2F 00 2F 72 05 01 2F  ...u.J.u././r../
08F0: 00 30 72 05 01 2F 00 96  72 05 01 4E 00 2F 72 05  .0r../..r..N./r.
0900: 01 4E 00 30 72 05 01 4E  00 96 72 05 01 92 01 2F  .N.0r..N..r..../
0910: 72 05 01 92 01 30 72 05  01 92 01 96 72 05 01 94  r....0r.....r...
0920: 01 F0 FF FF 7F 94 01 2F  72 05 01 94 01 30 72 05  ......./r....0r.
0930: 01 94 01 96 72 05 01 BA  F0 FF FF 7F 4B 80 4C 80  ....r.......K.L.
0940: 4D 80 4E 80 BA 2F 72 05  01 4F 80 50 80 51 80 52  M.N../r..O.P.Q.R
0950: 80 BA 30 72 05 01 53 80  54 80 55 80 52 80 BA 96  ..0r..S.T.U.R...
0960: 72 05 01 56 80 57 80 4D  80 58 80 80 F0 FF FF 7F  r..V.W.M.X......
0970: 80 2F 72 05 01 80 30 72  05 01 80 96 72 05 01 1C  ./r...0r....r...
0980: 11 80 45 12 80 F0 FF FF  7F F0 FF FF 7F 30 36 30  ..E..........060
0990: 62 13 80 1A 1B 2C 2B 96  72 05 01 59 80 23 52 12  b....,+.r..Y.#R.
09A0: 80 F0 FF FF 7F F0 FF FF  7F 30 36 30 62 45 12 80  .........060bE..
09B0: F0 FF FF 7F F0 FF FF 7F  30 36 30 63 13 80 6E 96  ........060c..n.
09C0: 72 05 01 5A 80 99 96 72  05 01 2B 96 72 05 01 5B  r..Z...r..+.r..[
09D0: 80 23 52 12 80 F0 FF FF  7F F0 FF FF 7F 30 36 30  .#R..........060
09E0: 63 45 12 80 F0 FF FF 7F  F0 FF FF 7F 30 36 30 65  cE..........060e
09F0: 13 80 27 10 41 72 05 01  03 2A 10 41 72 05 01 2B  ..'.Ar...*.Ar..+
0A00: 2F 72 05 01 5C 80 23 27  10 2F 72 05 01 17 27 10  /r..\.#'./r...'.
0A10: 30 72 05 01 17 1C 15 80  52 12 80 F0 FF FF 7F F0  0r......R.......
0A20: FF FF 7F 30 36 30 65 45  12 80 F0 FF FF 7F F0 FF  ...060eE........
0A30: FF 7F 30 36 30 64 13 80  4A F0 FF FF 7F 2F 72 05  ..060d..J..../r.
0A40: 01 4A 96 72 05 01 2F 72  05 01 1C 15 80 66 5D 80  .J.r../r.....f].
0A50: 96 72 05 01 96 72 05 01  74 6C 6B 30 2B 96 72 05  .r...r..tlk0+.r.
0A60: 01 5E 80 23 2A 10 2F 72  05 01 2A 10 30 72 05 01  .^.#*./r..*.0r..
0A70: 27 10 2F 72 05 01 18 27  10 30 72 05 01 18 27 10  './r...'.0r...'.
0A80: 41 72 05 01 04 1C 23 80  29 10 F0 FF FF 7F 67 52  Ar....#.).....gR
0A90: 12 80 F0 FF FF 7F F0 FF  FF 7F 30 36 30 64 45 12  ..........060dE.
0AA0: 80 F0 FF FF 7F F0 FF FF  7F 30 36 30 66 13 80 66  .........060f..f
0AB0: 5D 80 96 72 05 01 96 72  05 01 74 6C 6B 31 2B 96  ]..r...r..tlk1+.
0AC0: 72 05 01 5F 80 23 2A 10  2F 72 05 01 2A 10 30 72  r.._.#*./r..*.0r
0AD0: 05 01 52 12 80 F0 FF FF  7F F0 FF FF 7F 30 36 30  ..R..........060
0AE0: 66 45 12 80 F0 FF FF 7F  F0 FF FF 7F 30 36 30 67  fE..........060g
0AF0: 13 80 2B 96 72 05 01 60  80 23 2B 96 72 05 01 61  ..+.r..`.#+.r..a
0B00: 80 23 52 12 80 F0 FF FF  7F F0 FF FF 7F 30 36 30  .#R..........060
0B10: 67 45 12 80 F0 FF FF 7F  F0 FF FF 7F 30 36 30 68  gE..........060h
0B20: 13 80 2B 96 72 05 01 62  80 23 1A 3C 2C BA F0 FF  ..+.r..b.#.<,...
0B30: FF 7F 63 80 64 80 51 80  65 80 BA 2F 72 05 01 66  ..c.d.Q.e../r..f
0B40: 80 67 80 68 80 69 80 BA  30 72 05 01 6A 80 6B 80  .g.h.i..0r..j.k.
0B50: 68 80 6C 80 27 10 41 72  05 01 03 2A 10 41 72 05  h.l.'.Ar...*.Ar.
0B60: 01 1C 1C 80 4A 2F 72 05  01 F0 FF FF 7F 4A 30 72  ....J/r......J0r
0B70: 05 01 F0 FF FF 7F 1C 14  80 52 12 80 F0 FF FF 7F  .........R......
0B80: F0 FF FF 7F 30 36 30 68  45 12 80 F0 FF FF 7F F0  ....060hE.......
0B90: FF FF 7F 30 36 30 69 13  80 27 10 F0 FF FF 7F 5C  ...060i..'.....\
0BA0: 1A 1B 2C 2A 10 F0 FF FF  7F 27 10 41 72 05 01 04  ..,*.....'.Ar...
0BB0: 4A 2F 72 05 01 F0 FF FF  7F 4A 30 72 05 01 F0 FF  J/r......J0r....
0BC0: FF 7F 66 13 80 2F 72 05  01 2F 72 05 01 74 68 6B  ..f../r../r..thk
0BD0: 31 2B 2F 72 05 01 6D 80  23 66 13 80 2F 72 05 01  1+/r..m.#f../r..
0BE0: 2F 72 05 01 74 68 6B 32  66 17 80 30 72 05 01 30  /r..thk2f..0r..0
0BF0: 72 05 01 74 6C 6B 30 2B  30 72 05 01 6E 80 23 66  r..tlk0+0r..n.#f
0C00: 17 80 30 72 05 01 30 72  05 01 74 6C 6B 31 6E F0  ..0r..0r..tlk1n.
0C10: FF FF 7F 3F 80 99 F0 FF  FF 7F 1C 15 80 1A 3C 2C  ...?..........<,
0C20: 1C 1E 80 52 12 80 F0 FF  FF 7F F0 FF FF 7F 30 36  ...R..........06
0C30: 30 69 1C 49 80 35 6F 80  78 1C 49 80 AB 0A 46 00  0i.I.5o.x.I...F.
0C40: 45 42 80 F0 FF FF 7F F0  FF FF 7F 66 64 69 32 13  EB.........fdi2.
0C50: 80 21 00                                          .!.             
```

#### Opcodes

```
  0: 0x0828 [0x42] SET_CLI_EVENT_CANCEL_DATA()
  1: 0x0829 [0x1A] CALL_SUBROUTINE(address=0x2C3C)
  2: 0x082C [0x46] CAMERA_CONTROL: Disable user control
  3: 0x082E [0x38] SET_CLIENT_EVENT_MODE(mode=19*)
  4: 0x0831 [0x4E] SET_ENTITY_HIDE_FLAG: Show LocalPlayer
  5: 0x0837 [0x2F] Gentle Tiger (ID: 17134123/0x0105722B)->Render.Flags0 &= ~0x80000 // Bit 19
  6: 0x083D [0x4E] SET_ENTITY_HIDE_FLAG: Show Gentle Tiger (ID: 17134123/0x0105722B)
  7: 0x0843 [0x92] Gentle Tiger (ID: 17134123/0x0105722B)->Render.Flags3 ^= 0x01
  8: 0x0849 [0x94] LocalPlayer->Render.Flags3 ^= 0x01
  9: 0x084F [0x94] Gentle Tiger (ID: 17134123/0x0105722B)->Render.Flags3 ^= 0x01
 10: 0x0855 [0xBA] SET_ENTITY_POSITION(entity_id=LocalPlayer, pos_x=-201.430*, pos_z=2.607*, pos_y=-9.998*, direction=188.3°*)
 11: 0x0862 [0xBA] SET_ENTITY_POSITION(entity_id=Gentle Tiger (ID: 17134123/0x0105722B), pos_x=-203.112*, pos_z=2.513*, pos_y=-9.998*, direction=0.0°*)
 12: 0x086F [0x80] LOAD_WAIT(entity=LocalPlayer)
 13: 0x0874 [0x80] LOAD_WAIT(entity=Gentle Tiger (ID: 17134123/0x0105722B))
 14: 0x0879 [0x1C] WAIT(15* ticks)
 15: 0x087C [0x45] LOAD_SCHEDULED_TASK: Load scheduler "060a" with entities [LocalPlayer, LocalPlayer], work=[502*, 0*]
 16: 0x088D [0x79] LocalPlayer looks at Gentle Tiger (ID: 17134123/0x0105722B) (Basic look)
 17: 0x0897 [0x79] Gentle Tiger (ID: 17134123/0x0105722B) looks at LocalPlayer (Basic look)
 18: 0x08A1 [0x1A] CALL_SUBROUTINE(address=0x2C1B)
 19: 0x08A4 [0x2B] Gentle Tiger (ID: 17134123/0x0105722B) [13417*]:
    → "Captain Bartholomaus, you say? Why, he was in the briefing room, last I saw."
 20: 0x08AB [0x23] WAIT_FOR_DIALOG_INTERACTION
 21: 0x08AC [0x2B] Gentle Tiger (ID: 17134123/0x0105722B) [13418*]:
    → "I'll warn you, though--he seemed to be in an especially prickly mood. It would seem the investigation has taken a toll on us all..."
 22: 0x08B3 [0x23] WAIT_FOR_DIALOG_INTERACTION
 23: 0x08B4 [0x27] REQ_SET(priority=0x10, entity_id=LocalPlayer, tag_num=0x59)
 24: 0x08BB [0x1C] WAIT(210* ticks)
 25: 0x08BE [0x1A] CALL_SUBROUTINE(address=0x2C3C)
 26: 0x08C1 [0x52] END_LOAD_SCHEDULER: End scheduler "060a" with entities [LocalPlayer, LocalPlayer], work=502*
 27: 0x08D0 [0x7A] VM_CONTROL: Reset VM for LocalPlayer
 28: 0x08D6 [0x34] LOAD_UNLOAD_ZONE(zone_id=237*)
 29: 0x08D9 [0x77] SET_EVENT_TIME_WEATHER(hour=255*, weather=1*)
 30: 0x08DE [0x1C] WAIT(30* ticks)
 31: 0x08E1 [0xAB] EventEntity->UnknownFlag = 1 // Enable unknown flag
 32: 0x08E3 [0x75] LOAD_ROOM(Load indoor room, room=305*)
 33: 0x08E7 [0x75] LOAD_ROOM(No action)
 34: 0x08E9 [0x2F] Nicolaus (ID: 17134127/0x0105722F)->Render.Flags0 &= ~0x80000 // Bit 19
 35: 0x08EF [0x2F] Five Moons (ID: 17134128/0x01057230)->Render.Flags0 &= ~0x80000 // Bit 19
 36: 0x08F5 [0x2F] Bartholomaus (ID: 17134230/0x01057296)->Render.Flags0 &= ~0x80000 // Bit 19
 37: 0x08FB [0x4E] SET_ENTITY_HIDE_FLAG: Show Nicolaus (ID: 17134127/0x0105722F)
 38: 0x0901 [0x4E] SET_ENTITY_HIDE_FLAG: Show Five Moons (ID: 17134128/0x01057230)
 39: 0x0907 [0x4E] SET_ENTITY_HIDE_FLAG: Show Bartholomaus (ID: 17134230/0x01057296)
 40: 0x090D [0x92] Nicolaus (ID: 17134127/0x0105722F)->Render.Flags3 ^= 0x01
 41: 0x0913 [0x92] Five Moons (ID: 17134128/0x01057230)->Render.Flags3 ^= 0x01
 42: 0x0919 [0x92] Bartholomaus (ID: 17134230/0x01057296)->Render.Flags3 ^= 0x01
 43: 0x091F [0x94] LocalPlayer->Render.Flags3 ^= 0x01
 44: 0x0925 [0x94] Nicolaus (ID: 17134127/0x0105722F)->Render.Flags3 ^= 0x01
 45: 0x092B [0x94] Five Moons (ID: 17134128/0x01057230)->Render.Flags3 ^= 0x01
 46: 0x0931 [0x94] Bartholomaus (ID: 17134230/0x01057296)->Render.Flags3 ^= 0x01
 47: 0x0937 [0xBA] SET_ENTITY_POSITION(entity_id=LocalPlayer, pos_x=92.111*, pos_z=12.392*, pos_y=-20.185*, direction=329.6°*)
 48: 0x0944 [0xBA] SET_ENTITY_POSITION(entity_id=Nicolaus (ID: 17134127/0x0105722F), pos_x=89.151*, pos_z=5.789*, pos_y=-20.168*, direction=268.8°*)
 49: 0x0951 [0xBA] SET_ENTITY_POSITION(entity_id=Five Moons (ID: 17134128/0x01057230), pos_x=88.498*, pos_z=4.229*, pos_y=-19.747*, direction=268.8°*)
 50: 0x095E [0xBA] SET_ENTITY_POSITION(entity_id=Bartholomaus (ID: 17134230/0x01057296), pos_x=95.989*, pos_z=14.600*, pos_y=-20.185*, direction=153.3°*)
 51: 0x096B [0x80] LOAD_WAIT(entity=LocalPlayer)
 52: 0x0970 [0x80] LOAD_WAIT(entity=Nicolaus (ID: 17134127/0x0105722F))
 53: 0x0975 [0x80] LOAD_WAIT(entity=Five Moons (ID: 17134128/0x01057230))
 54: 0x097A [0x80] LOAD_WAIT(entity=Bartholomaus (ID: 17134230/0x01057296))
 55: 0x097F [0x1C] WAIT(15* ticks)
 56: 0x0982 [0x45] LOAD_SCHEDULED_TASK: Load scheduler "060b" with entities [LocalPlayer, LocalPlayer], work=[502*, 0*]
 57: 0x0993 [0x1A] CALL_SUBROUTINE(address=0x2C1B)
 58: 0x0996 [0x2B] Bartholomaus (ID: 17134230/0x01057296) [13419*]:
    → "The enrollment records? And what business would you have with those, hmm?"
 59: 0x099D [0x23] WAIT_FOR_DIALOG_INTERACTION
 60: 0x099E [0x52] END_LOAD_SCHEDULER: End scheduler "060b" with entities [LocalPlayer, LocalPlayer], work=502*
 61: 0x09AD [0x45] LOAD_SCHEDULED_TASK: Load scheduler "060c" with entities [LocalPlayer, LocalPlayer], work=[502*, 0*]
 62: 0x09BE [0x6E] Bartholomaus (ID: 17134230/0x01057296) uses emote 26*
 63: 0x09C5 [0x99] Wait for Bartholomaus (ID: 17134230/0x01057296) animation to complete
 64: 0x09CA [0x2B] Bartholomaus (ID: 17134230/0x01057296) [13420*]:
    → "For all I know, you could be scheming with those treasonous friends of yours."
 65: 0x09D1 [0x23] WAIT_FOR_DIALOG_INTERACTION
 66: 0x09D2 [0x52] END_LOAD_SCHEDULER: End scheduler "060c" with entities [LocalPlayer, LocalPlayer], work=502*
 67: 0x09E1 [0x45] LOAD_SCHEDULED_TASK: Load scheduler "060e" with entities [LocalPlayer, LocalPlayer], work=[502*, 0*]
 68: 0x09F2 [0x27] REQ_SET(priority=0x10, entity_id=Unnamed NPC (ID: 17134145/0x01057241), tag_num=0x03)
 69: 0x09F9 [0x2A] GET_REQ_LEVEL(level=16, entity_id=Unnamed NPC (ID: 17134145/0x01057241))
 70: 0x09FF [0x2B] Nicolaus (ID: 17134127/0x0105722F) [13421*]:
    → "And what if [he/she] were, Bartholomaus?"
 71: 0x0A06 [0x23] WAIT_FOR_DIALOG_INTERACTION
 72: 0x0A07 [0x27] REQ_SET(priority=0x10, entity_id=Nicolaus (ID: 17134127/0x0105722F), tag_num=0x17)
 73: 0x0A0E [0x27] REQ_SET(priority=0x10, entity_id=Five Moons (ID: 17134128/0x01057230), tag_num=0x17)
 74: 0x0A15 [0x1C] WAIT(90* ticks)
 75: 0x0A18 [0x52] END_LOAD_SCHEDULER: End scheduler "060e" with entities [LocalPlayer, LocalPlayer], work=502*
 76: 0x0A27 [0x45] LOAD_SCHEDULED_TASK: Load scheduler "060d" with entities [LocalPlayer, LocalPlayer], work=[502*, 0*]
 77: 0x0A38 [0x4A] LocalPlayer looks at Nicolaus (ID: 17134127/0x0105722F)
 78: 0x0A41 [0x4A] Bartholomaus (ID: 17134230/0x01057296) looks at Nicolaus (ID: 17134127/0x0105722F)
 79: 0x0A4A [0x1C] WAIT(90* ticks)
 80: 0x0A4D [0x66] LOAD_EXT_SCHEDULER_MAIN: Load scheduler "tlk0" with entities [Bartholomaus (ID: 17134230/0x01057296), Bartholomaus (ID: 17134230/0x01057296)], work=9*
 81: 0x0A5C [0x2B] Bartholomaus (ID: 17134230/0x01057296) [13422*]:
    → "Well, well...if it isn't the Mythril Skinks. To what do I owe the honor?"
 82: 0x0A63 [0x23] WAIT_FOR_DIALOG_INTERACTION
 83: 0x0A64 [0x2A] GET_REQ_LEVEL(level=16, entity_id=Nicolaus (ID: 17134127/0x0105722F))
 84: 0x0A6A [0x2A] GET_REQ_LEVEL(level=16, entity_id=Five Moons (ID: 17134128/0x01057230))
 85: 0x0A70 [0x27] REQ_SET(priority=0x10, entity_id=Nicolaus (ID: 17134127/0x0105722F), tag_num=0x18)
 86: 0x0A77 [0x27] REQ_SET(priority=0x10, entity_id=Five Moons (ID: 17134128/0x01057230), tag_num=0x18)
 87: 0x0A7E [0x27] REQ_SET(priority=0x10, entity_id=Unnamed NPC (ID: 17134145/0x01057241), tag_num=0x04)
 88: 0x0A85 [0x1C] WAIT(120* ticks)
 89: 0x0A88 [0x29] REQ_SET_WAIT(priority=0x10, entity_id=LocalPlayer, tag_num=0x67)
 90: 0x0A8F [0x52] END_LOAD_SCHEDULER: End scheduler "060d" with entities [LocalPlayer, LocalPlayer], work=502*
 91: 0x0A9E [0x45] LOAD_SCHEDULED_TASK: Load scheduler "060f" with entities [LocalPlayer, LocalPlayer], work=[502*, 0*]
 92: 0x0AAF [0x66] LOAD_EXT_SCHEDULER_MAIN: Load scheduler "tlk1" with entities [Bartholomaus (ID: 17134230/0x01057296), Bartholomaus (ID: 17134230/0x01057296)], work=9*
 93: 0x0ABE [0x2B] Bartholomaus (ID: 17134230/0x01057296) [13423*]:
    → "I was simply offering your colleague a piece of honest advice: if [he/she] wishes to stay on the right side of the law, it'd behoove [him/her] to stay away from the likes of you."
 94: 0x0AC5 [0x23] WAIT_FOR_DIALOG_INTERACTION
 95: 0x0AC6 [0x2A] GET_REQ_LEVEL(level=16, entity_id=Nicolaus (ID: 17134127/0x0105722F))
 96: 0x0ACC [0x2A] GET_REQ_LEVEL(level=16, entity_id=Five Moons (ID: 17134128/0x01057230))
 97: 0x0AD2 [0x52] END_LOAD_SCHEDULER: End scheduler "060f" with entities [LocalPlayer, LocalPlayer], work=502*
 98: 0x0AE1 [0x45] LOAD_SCHEDULED_TASK: Load scheduler "060g" with entities [LocalPlayer, LocalPlayer], work=[502*, 0*]
 99: 0x0AF2 [0x2B] Bartholomaus (ID: 17134230/0x01057296) [13424*]:
    → "Anyhow, your request is as futile as it is foolish. All records pertaining to your ignoble unit have been seized and locked away until the investigation is over."
100: 0x0AF9 [0x23] WAIT_FOR_DIALOG_INTERACTION
101: 0x0AFA [0x2B] Bartholomaus (ID: 17134230/0x01057296) [13425*]:
    → "Not even my own loyal men are allowed access, let alone a couple of misfits deemed unfit for duty by virtue of their connection to the very incident they now poke their meddling noses into."
102: 0x0B01 [0x23] WAIT_FOR_DIALOG_INTERACTION
103: 0x0B02 [0x52] END_LOAD_SCHEDULER: End scheduler "060g" with entities [LocalPlayer, LocalPlayer], work=502*
104: 0x0B11 [0x45] LOAD_SCHEDULED_TASK: Load scheduler "060h" with entities [LocalPlayer, LocalPlayer], work=[502*, 0*]
105: 0x0B22 [0x2B] Bartholomaus (ID: 17134230/0x01057296) [13426*]:
    → "Why, nothing short of authorization from Disciplinary Captain Herbert could convince me otherwise. But don't despair. I'm sure he'd be simply thrilled to make such a request on behalf of a pair of Skinks as...distinguished...as you two. Ha ha ha!"
106: 0x0B29 [0x23] WAIT_FOR_DIALOG_INTERACTION
107: 0x0B2A [0x1A] CALL_SUBROUTINE(address=0x2C3C)
108: 0x0B2D [0xBA] SET_ENTITY_POSITION(entity_id=LocalPlayer, pos_x=88.395*, pos_z=5.395*, pos_y=-20.168*, direction=104.4°*)
109: 0x0B3A [0xBA] SET_ENTITY_POSITION(entity_id=Nicolaus (ID: 17134127/0x0105722F), pos_x=90.327*, pos_z=1.581*, pos_y=-19.532*, direction=222.5°*)
110: 0x0B47 [0xBA] SET_ENTITY_POSITION(entity_id=Five Moons (ID: 17134128/0x01057230), pos_x=90.102*, pos_z=3.016*, pos_y=-19.532*, direction=132.4°*)
111: 0x0B54 [0x27] REQ_SET(priority=0x10, entity_id=Unnamed NPC (ID: 17134145/0x01057241), tag_num=0x03)
112: 0x0B5B [0x2A] GET_REQ_LEVEL(level=16, entity_id=Unnamed NPC (ID: 17134145/0x01057241))
113: 0x0B61 [0x1C] WAIT(150* ticks)
114: 0x0B64 [0x4A] Nicolaus (ID: 17134127/0x0105722F) looks at LocalPlayer
115: 0x0B6D [0x4A] Five Moons (ID: 17134128/0x01057230) looks at LocalPlayer
116: 0x0B76 [0x1C] WAIT(60* ticks)
117: 0x0B79 [0x52] END_LOAD_SCHEDULER: End scheduler "060h" with entities [LocalPlayer, LocalPlayer], work=502*
118: 0x0B88 [0x45] LOAD_SCHEDULED_TASK: Load scheduler "060i" with entities [LocalPlayer, LocalPlayer], work=[502*, 0*]
119: 0x0B99 [0x27] REQ_SET(priority=0x10, entity_id=LocalPlayer, tag_num=0x5C)
120: 0x0BA0 [0x1A] CALL_SUBROUTINE(address=0x2C1B)
121: 0x0BA3 [0x2A] GET_REQ_LEVEL(level=16, entity_id=LocalPlayer)
122: 0x0BA9 [0x27] REQ_SET(priority=0x10, entity_id=Unnamed NPC (ID: 17134145/0x01057241), tag_num=0x04)
123: 0x0BB0 [0x4A] Nicolaus (ID: 17134127/0x0105722F) looks at LocalPlayer
124: 0x0BB9 [0x4A] Five Moons (ID: 17134128/0x01057230) looks at LocalPlayer
125: 0x0BC2 [0x66] LOAD_EXT_SCHEDULER_MAIN: Load scheduler "thk1" with entities [Nicolaus (ID: 17134127/0x0105722F), Nicolaus (ID: 17134127/0x0105722F)], work=0*
126: 0x0BD1 [0x2B] Nicolaus (ID: 17134127/0x0105722F) [13427*]:
    → "There's one man who hasn't lost his knack for adding insult to injury."
127: 0x0BD8 [0x23] WAIT_FOR_DIALOG_INTERACTION
128: 0x0BD9 [0x66] LOAD_EXT_SCHEDULER_MAIN: Load scheduler "thk2" with entities [Nicolaus (ID: 17134127/0x0105722F), Nicolaus (ID: 17134127/0x0105722F)], work=0*
129: 0x0BE8 [0x66] LOAD_EXT_SCHEDULER_MAIN: Load scheduler "tlk0" with entities [Five Moons (ID: 17134128/0x01057230), Five Moons (ID: 17134128/0x01057230)], work=69*
130: 0x0BF7 [0x2B] Five Moons (ID: 17134128/0x01057230) [13428*]:
    → "Still, we mustn't give in! Captain Herbert said he had business at the Eldieme Necropolis. We can only hope that he takes pity on our plight."
131: 0x0BFE [0x23] WAIT_FOR_DIALOG_INTERACTION
132: 0x0BFF [0x66] LOAD_EXT_SCHEDULER_MAIN: Load scheduler "tlk1" with entities [Five Moons (ID: 17134128/0x01057230), Five Moons (ID: 17134128/0x01057230)], work=69*
133: 0x0C0E [0x6E] LocalPlayer uses emote 7*
134: 0x0C15 [0x99] Wait for LocalPlayer animation to complete
135: 0x0C1A [0x1C] WAIT(90* ticks)
136: 0x0C1D [0x1A] CALL_SUBROUTINE(address=0x2C3C)
137: 0x0C20 [0x1C] WAIT(30* ticks)
138: 0x0C23 [0x52] END_LOAD_SCHEDULER: End scheduler "060i" with entities [LocalPlayer, LocalPlayer], work=502*
139: 0x0C32 [0x1C] WAIT(1* ticks)
140: 0x0C35 [0x35] LOAD_ZONE_NO_CLOSE(zone_id=87*)
141: 0x0C38 [0x78] ENABLE_GAME_TIMER_RESET_WEATHER()
142: 0x0C39 [0x1C] WAIT(1* ticks)
143: 0x0C3C [0xAB] EventEntity->UnknownFlag = 0 // Disable unknown flag
144: 0x0C3E [0x46] CAMERA_CONTROL: Restore default settings
145: 0x0C40 [0x45] LOAD_SCHEDULED_TASK: Load scheduler "fdi2" with entities [LocalPlayer, LocalPlayer], work=[200*, 0*]
146: 0x0C51 [0x21] END_EVENT
147: 0x0C52 [0x00] END_REQSTACK()
```

### Event 347

#### Metadata

| Field        | Value      |
|--------------|------------|
| Entrypoint   | 0x0C53     |
| Data Size    | 3577 bytes |
| Instructions | 478        |

```
      00 01 02 03 04 05 06 07  08 09 0A 0B 0C 0D 0E 0F
      -- -- -- -- -- -- -- --  -- -- -- -- -- -- -- --
0C50:          42 1A 3C 2C 46  01 38 00 80 4E 00 F0 FF     B.<,F.8..N...
0C60: FF 7F 2F 00 2B 72 05 01  4E 00 2B 72 05 01 92 01  ../.+r..N.+r....
0C70: 2B 72 05 01 94 01 F0 FF  FF 7F 94 01 2B 72 05 01  +r..........+r..
0C80: BA F0 FF FF 7F 43 80 44  80 03 80 04 80 BA 2B 72  .....C.D......+r
0C90: 05 01 0E 80 0F 80 03 80  13 80 80 F0 FF FF 7F 80  ................
0CA0: 2B 72 05 01 81 00 2B 72  05 01 1C 11 80 45 12 80  +r....+r.....E..
0CB0: F0 FF FF 7F F0 FF FF 7F  30 61 30 61 13 80 79 00  ........0a0a..y.
0CC0: F0 FF FF 7F 2B 72 05 01  79 00 2B 72 05 01 F0 FF  ....+r..y.+r....
0CD0: FF 7F 1A 1B 2C 2B 2B 72  05 01 70 80 23 2B 2B 72  ....,++r..p.#++r
0CE0: 05 01 71 80 23 27 10 F0  FF FF 7F 59 1C 15 80 1C  ..q.#'.....Y....
0CF0: 72 80 1A 3C 2C 52 12 80  F0 FF FF 7F F0 FF FF 7F  r..<,R..........
0D00: 30 61 30 61 7A 00 F0 FF  FF 7F 34 47 80 77 48 80  0a0az.....4G.wH.
0D10: 49 80 1C 1E 80 AB 09 75  00 4A 80 75 01 2F 01 2B  I......u.J.u./.+
0D20: 72 05 01 4E 01 2B 72 05  01 2F 00 2F 72 05 01 2F  r..N.+r.././r../
0D30: 00 30 72 05 01 4E 00 2F  72 05 01 4E 00 30 72 05  .0r..N./r..N.0r.
0D40: 01 92 01 2F 72 05 01 92  01 30 72 05 01 94 01 F0  .../r....0r.....
0D50: FF FF 7F 94 01 2F 72 05  01 94 01 30 72 05 01 BA  ...../r....0r...
0D60: F0 FF FF 7F 73 80 74 80  4D 80 75 80 BA 2F 72 05  ....s.t.M.u../r.
0D70: 01 76 80 77 80 4D 80 78  80 BA 30 72 05 01 79 80  .v.w.M.x..0r..y.
0D80: 7A 80 7B 80 7C 80 80 F0  FF FF 7F 80 2F 72 05 01  z.{.|......./r..
0D90: 80 30 72 05 01 4A 30 72  05 01 2F 72 05 01 4A F0  .0r..J0r../r..J.
0DA0: FF FF 7F 2F 72 05 01 5D  13 80 14 80 1C 14 80 5C  .../r..].......\
0DB0: 00 2F 80 5C 01 2F 80 5D  30 80 23 80 9A 45 12 80  ./.\./.]0.#..E..
0DC0: F0 FF FF 7F F0 FF FF 7F  30 61 30 62 13 80 1A 1B  ........0a0b....
0DD0: 2C 2B 2F 72 05 01 7D 80  23 52 12 80 F0 FF FF 7F  ,+/r..}.#R......
0DE0: F0 FF FF 7F 30 61 30 62  45 12 80 F0 FF FF 7F F0  ....0a0bE.......
0DF0: FF FF 7F 30 61 30 77 13  80 2B 2F 72 05 01 7E 80  ...0a0w..+/r..~.
0E00: 23 52 12 80 F0 FF FF 7F  F0 FF FF 7F 30 61 30 77  #R..........0a0w
0E10: 45 12 80 F0 FF FF 7F F0  FF FF 7F 30 61 30 76 13  E..........0a0v.
0E20: 80 2B 2F 72 05 01 7F 80  23 66 17 80 30 72 05 01  .+/r....#f..0r..
0E30: 30 72 05 01 74 6C 6B 30  79 00 2F 72 05 01 30 72  0r..tlk0y./r..0r
0E40: 05 01 2B 30 72 05 01 80  80 1C 14 80 23 66 17 80  ..+0r.......#f..
0E50: 30 72 05 01 30 72 05 01  74 6C 6B 31 66 13 80 2F  0r..0r..tlk1f../
0E60: 72 05 01 2F 72 05 01 74  68 6B 31 7B 2F 72 05 01  r../r..thk1{/r..
0E70: 2B 2F 72 05 01 81 80 1C  14 80 23 52 12 80 F0 FF  +/r.......#R....
0E80: FF 7F F0 FF FF 7F 30 61  30 76 45 12 80 F0 FF FF  ......0a0vE.....
0E90: 7F F0 FF FF 7F 30 61 30  63 13 80 66 13 80 2F 72  .....0a0c..f../r
0EA0: 05 01 2F 72 05 01 74 68  6B 32 2B 2F 72 05 01 82  ../r..thk2+/r...
0EB0: 80 23 52 12 80 F0 FF FF  7F F0 FF FF 7F 30 61 30  .#R..........0a0
0EC0: 63 29 10 F0 FF FF 7F 48  02 02 10 49 80 80 E4 0E  c).....H...I....
0ED0: 45 12 80 F0 FF FF 7F F0  FF FF 7F 30 61 68 6D 13  E..........0ahm.
0EE0: 80 01 A8 0F 02 02 10 83  80 80 00 0F 45 12 80 F0  ............E...
0EF0: FF FF 7F F0 FF FF 7F 30  61 68 66 13 80 01 A8 0F  .......0ahf.....
0F00: 02 02 10 84 80 80 1C 0F  45 12 80 F0 FF FF 7F F0  ........E.......
0F10: FF FF 7F 30 61 65 6D 13  80 01 A8 0F 02 02 10 85  ...0aem.........
0F20: 80 80 38 0F 45 12 80 F0  FF FF 7F F0 FF FF 7F 30  ..8.E..........0
0F30: 61 65 66 13 80 01 A8 0F  02 02 10 86 80 80 54 0F  aef...........T.
0F40: 45 12 80 F0 FF FF 7F F0  FF FF 7F 30 61 74 72 13  E..........0atr.
0F50: 80 01 A8 0F 02 02 10 87  80 80 70 0F 45 12 80 F0  ..........p.E...
0F60: FF FF 7F F0 FF FF 7F 30  61 74 72 13 80 01 A8 0F  .......0atr.....
0F70: 02 02 10 3F 80 80 8C 0F  45 12 80 F0 FF FF 7F F0  ...?....E.......
0F80: FF FF 7F 30 61 6D 74 13  80 01 A8 0F 02 02 10 88  ...0amt.........
0F90: 80 80 A8 0F 45 12 80 F0  FF FF 7F F0 FF FF 7F 30  ....E..........0
0FA0: 61 67 6C 13 80 01 A8 0F  1C 86 80 66 17 80 30 72  agl........f..0r
0FB0: 05 01 30 72 05 01 74 6C  6B 30 1C 86 80 6E F0 FF  ..0r..tlk0...n..
0FC0: FF 7F 89 80 99 F0 FF FF  7F 2B 30 72 05 01 8A 80  .........+0r....
0FD0: 23 52 12 80 F0 FF FF 7F  F0 FF FF 7F 30 61 30 64  #R..........0a0d
0FE0: 45 12 80 F0 FF FF 7F F0  FF FF 7F 30 61 30 69 13  E..........0a0i.
0FF0: 80 66 17 80 30 72 05 01  30 72 05 01 74 6C 6B 31  .f..0r..0r..tlk1
1000: 27 10 2F 72 05 01 1A 2B  2F 72 05 01 8B 80 2A 10  './r...+/r....*.
1010: 2F 72 05 01 1C 15 80 23  7B 30 72 05 01 66 13 80  /r.....#{0r..f..
1020: 2F 72 05 01 2F 72 05 01  74 68 6B 32 2B 30 72 05  /r../r..thk2+0r.
1030: 01 8C 80 1C 15 80 4A 2F  72 05 01 30 72 05 01 66  ......J/r..0r..f
1040: 17 80 30 72 05 01 30 72  05 01 74 68 6B 31 23 52  ..0r..0r..thk1#R
1050: 12 80 F0 FF FF 7F F0 FF  FF 7F 30 61 30 69 45 12  ..........0a0iE.
1060: 80 F0 FF FF 7F F0 FF FF  7F 30 61 30 65 13 80 7C  .........0a0e..|
1070: 00 30 72 05 01 1C 41 80  52 12 80 F0 FF FF 7F F0  .0r...A.R.......
1080: FF FF 7F 30 61 30 65 45  8D 80 30 72 05 01 30 72  ...0a0eE..0r..0r
1090: 05 01 34 30 33 36 13 80  45 12 80 F0 FF FF 7F F0  ..4036..E.......
10A0: FF FF 7F 30 61 30 6D 13  80 66 17 80 30 72 05 01  ...0a0m..f..0r..
10B0: 30 72 05 01 74 68 6B 32  2B 30 72 05 01 8E 80 1C  0r..thk2+0r.....
10C0: 15 80 7C 01 30 72 05 01  52 12 80 F0 FF FF 7F F0  ..|.0r..R.......
10D0: FF FF 7F 30 61 30 6D 45  8D 80 F0 FF FF 7F F0 FF  ...0a0mE........
10E0: FF 7F 34 30 32 32 13 80  45 12 80 F0 FF FF 7F F0  ..4022..E.......
10F0: FF FF 7F 30 61 30 6A 13  80 4A 30 72 05 01 2F 72  ...0a0j..J0r../r
1100: 05 01 66 17 80 30 72 05  01 30 72 05 01 74 6C 6B  ..f..0r..0r..tlk
1110: 30 2B 30 72 05 01 8F 80  1C 15 80 23 52 12 80 F0  0+0r.......#R...
1120: FF FF 7F F0 FF FF 7F 30  61 30 6A 45 12 80 F0 FF  .......0a0jE....
1130: FF 7F F0 FF FF 7F 62 6C  6F 66 13 80 45 12 80 F0  ......blof..E...
1140: FF FF 7F F0 FF FF 7F 30  61 30 6B 13 80 66 17 80  .......0a0k..f..
1150: 30 72 05 01 30 72 05 01  74 6C 6B 31 2B 2F 72 05  0r..0r..tlk1+/r.
1160: 01 90 80 1C 15 80 23 1A  3C 2C 34 6F 80 77 48 80  ......#.<,4o.wH.
1170: 49 80 1C 1E 80 AB 09 2F  00 B3 72 05 01 2F 00 B4  I....../..r../..
1180: 72 05 01 2F 00 B5 72 05  01 2F 00 B6 72 05 01 2F  r../..r../..r../
1190: 00 B7 72 05 01 2F 00 B8  72 05 01 2F 00 B9 72 05  ..r../..r../..r.
11A0: 01 2F 00 BA 72 05 01 2F  00 BB 72 05 01 2F 00 BC  ./..r../..r../..
11B0: 72 05 01 2F 00 BD 72 05  01 2F 00 BE 72 05 01 2F  r../..r../..r../
11C0: 00 58 72 05 01 2F 00 59  72 05 01 2F 00 5A 72 05  .Xr../.Yr../.Zr.
11D0: 01 2F 00 60 72 05 01 2F  00 61 72 05 01 2F 00 62  ./.`r../.ar../.b
11E0: 72 05 01 2F 00 6E 72 05  01 2F 00 89 72 05 01 2F  r../.nr../..r../
11F0: 00 BF 72 05 01 4E 00 B3  72 05 01 4E 00 B4 72 05  ..r..N..r..N..r.
1200: 01 4E 00 B5 72 05 01 4E  00 B6 72 05 01 4E 00 B7  .N..r..N..r..N..
1210: 72 05 01 4E 00 B8 72 05  01 4E 00 B9 72 05 01 4E  r..N..r..N..r..N
1220: 00 BA 72 05 01 4E 00 BB  72 05 01 4E 00 BC 72 05  ..r..N..r..N..r.
1230: 01 4E 00 BD 72 05 01 4E  00 BE 72 05 01 4E 00 BF  .N..r..N..r..N..
1240: 72 05 01 4E 00 58 72 05  01 4E 00 59 72 05 01 4E  r..N.Xr..N.Yr..N
1250: 00 5A 72 05 01 4E 00 60  72 05 01 4E 00 61 72 05  .Zr..N.`r..N.ar.
1260: 01 4E 00 62 72 05 01 4E  00 6E 72 05 01 4E 00 89  .N.br..N.nr..N..
1270: 72 05 01 92 01 F0 FF FF  7F 92 01 B3 72 05 01 92  r...........r...
1280: 01 B4 72 05 01 92 01 B5  72 05 01 92 01 B6 72 05  ..r.....r.....r.
1290: 01 92 01 B7 72 05 01 92  01 B8 72 05 01 92 01 B9  ....r.....r.....
12A0: 72 05 01 92 01 BA 72 05  01 92 01 BB 72 05 01 92  r.....r.....r...
12B0: 01 BC 72 05 01 92 01 BD  72 05 01 92 01 BE 72 05  ..r.....r.....r.
12C0: 01 92 01 BF 72 05 01 92  01 58 72 05 01 92 01 59  ....r....Xr....Y
12D0: 72 05 01 92 01 5A 72 05  01 92 01 60 72 05 01 92  r....Zr....`r...
12E0: 01 61 72 05 01 92 01 62  72 05 01 92 01 6E 72 05  .ar....br....nr.
12F0: 01 92 01 89 72 05 01 94  01 F0 FF FF 7F 94 01 B3  ....r...........
1300: 72 05 01 94 01 B4 72 05  01 94 01 B5 72 05 01 94  r.....r.....r...
1310: 01 B6 72 05 01 94 01 B7  72 05 01 94 01 B8 72 05  ..r.....r.....r.
1320: 01 94 01 B9 72 05 01 94  01 BA 72 05 01 94 01 BB  ....r.....r.....
1330: 72 05 01 94 01 BC 72 05  01 94 01 BD 72 05 01 94  r.....r.....r...
1340: 01 BE 72 05 01 94 01 BF  72 05 01 94 01 58 72 05  ..r.....r....Xr.
1350: 01 94 01 59 72 05 01 94  01 5A 72 05 01 94 01 60  ...Yr....Zr....`
1360: 72 05 01 94 01 61 72 05  01 94 01 62 72 05 01 94  r....ar....br...
1370: 01 6E 72 05 01 94 01 89  72 05 01 BA B3 72 05 01  .nr.....r....r..
1380: 91 80 92 80 13 80 93 80  BA B4 72 05 01 91 80 92  ..........r.....
1390: 80 13 80 93 80 BA B5 72  05 01 94 80 95 80 13 80  .......r........
13A0: 93 80 BA B6 72 05 01 96  80 95 80 13 80 93 80 BA  ....r...........
13B0: B7 72 05 01 94 80 97 80  13 80 93 80 BA B8 72 05  .r............r.
13C0: 01 96 80 97 80 13 80 93  80 BA B9 72 05 01 94 80  ...........r....
13D0: 98 80 13 80 93 80 BA BA  72 05 01 96 80 98 80 13  ........r.......
13E0: 80 93 80 BA BB 72 05 01  94 80 99 80 13 80 93 80  .....r..........
13F0: BA BC 72 05 01 96 80 99  80 13 80 93 80 BA BD 72  ..r............r
1400: 05 01 96 80 9A 80 13 80  93 80 BA BE 72 05 01 94  ............r...
1410: 80 9A 80 13 80 93 80 BA  BF 72 05 01 9B 80 9C 80  .........r......
1420: 13 80 9D 80 BA 58 72 05  01 9E 80 9F 80 13 80 9D  .....Xr.........
1430: 80 BA 59 72 05 01 A0 80  A1 80 13 80 9D 80 BA 5A  ..Yr...........Z
1440: 72 05 01 A2 80 A3 80 13  80 A4 80 BA 60 72 05 01  r...........`r..
1450: A5 80 A6 80 13 80 A7 80  BA 61 72 05 01 A8 80 A9  .........ar.....
1460: 80 13 80 9D 80 BA 62 72  05 01 AA 80 AB 80 13 80  ......br........
1470: AC 80 BA 6E 72 05 01 AD  80 AE 80 13 80 AF 80 BA  ...nr...........
1480: 89 72 05 01 B0 80 B1 80  13 80 B2 80 80 B3 72 05  .r............r.
1490: 01 80 B5 72 05 01 80 B6  72 05 01 80 B7 72 05 01  ...r....r....r..
14A0: 80 B8 72 05 01 80 B9 72  05 01 80 BA 72 05 01 80  ..r....r....r...
14B0: BB 72 05 01 80 BC 72 05  01 80 BD 72 05 01 80 BE  .r....r....r....
14C0: 72 05 01 80 BF 72 05 01  80 58 72 05 01 80 59 72  r....r...Xr...Yr
14D0: 05 01 80 5A 72 05 01 80  60 72 05 01 80 61 72 05  ...Zr...`r...ar.
14E0: 01 80 62 72 05 01 80 6E  72 05 01 80 89 72 05 01  ..br...nr....r..
14F0: 1C 1E 80 4A BF 72 05 01  BD 72 05 01 5B B3 80 B3  ...J.r...r..[...
1500: 72 05 01 B3 72 05 01 63  68 6F 30 52 12 80 F0 FF  r...r..cho0R....
1510: FF 7F F0 FF FF 7F 30 61  30 6B 45 12 80 F0 FF FF  ......0a0kE.....
1520: 7F F0 FF FF 7F 30 61 30  66 13 80 1A B0 2D 27 10  .....0a0f....-'.
1530: FA 71 05 01 03 2B 2F 72  05 01 B4 80 1C 72 80 52  .q...+/r.....r.R
1540: 12 80 F0 FF FF 7F F0 FF  FF 7F 30 61 30 66 45 12  ..........0a0fE.
1550: 80 F0 FF FF 7F F0 FF FF  7F 30 61 30 6F 13 80 1C  .........0a0o...
1560: 72 80 23 5B B3 80 B3 72  05 01 B3 72 05 01 63 68  r.#[...r...r..ch
1570: 6F 31 5B B5 80 B4 72 05  01 B4 72 05 01 63 68 6F  o1[...r...r..cho
1580: 31 1C 23 80 27 10 58 72  05 01 03 27 10 59 72 05  1.#.'.Xr...'.Yr.
1590: 01 03 27 10 5A 72 05 01  03 27 10 60 72 05 01 08  ..'.Zr...'.`r...
15A0: 27 10 61 72 05 01 07 27  10 62 72 05 01 09 27 10  '.ar...'.br...'.
15B0: 6E 72 05 01 0A 27 10 89  72 05 01 07 52 12 80 F0  nr...'..r...R...
15C0: FF FF 7F F0 FF FF 7F 30  61 30 6F 45 8D 80 F0 FF  .......0a0oE....
15D0: FF 7F F0 FF FF 7F 31 30  33 32 13 80 45 12 80 F0  ......1032..E...
15E0: FF FF 7F F0 FF FF 7F 30  61 30 70 13 80 27 10 B4  .......0a0p..'..
15F0: 72 05 01 02 29 10 B3 72  05 01 02 2B 2F 72 05 01  r...)..r...+/r..
1600: B6 80 1C 14 80 23 52 12  80 F0 FF FF 7F F0 FF FF  .....#R.........
1610: 7F 30 61 30 70 45 8D 80  F0 FF FF 7F F0 FF FF 7F  .0a0pE..........
1620: 31 30 33 32 13 80 45 12  80 F0 FF FF 7F F0 FF FF  1032..E.........
1630: 7F 30 61 30 75 13 80 27  10 B3 72 05 01 04 27 10  .0a0u..'..r...'.
1640: B5 72 05 01 02 27 10 B6  72 05 01 02 27 10 B7 72  .r...'..r...'..r
1650: 05 01 02 27 10 B8 72 05  01 02 27 10 B9 72 05 01  ...'..r...'..r..
1660: 02 27 10 BA 72 05 01 02  27 10 BB 72 05 01 02 27  .'..r...'..r...'
1670: 10 BC 72 05 01 02 27 10  BD 72 05 01 02 27 10 BE  ..r...'..r...'..
1680: 72 05 01 02 1C 41 80 52  12 80 F0 FF FF 7F F0 FF  r....A.R........
1690: FF 7F 30 61 30 70 45 8D  80 F0 FF FF 7F F0 FF FF  ..0a0pE.........
16A0: 7F 31 30 33 32 13 80 45  12 80 F0 FF FF 7F F0 FF  .1032..E........
16B0: FF 7F 30 61 30 67 13 80  1C 1E 80 5B B7 80 BF 72  ..0a0g.....[...r
16C0: 05 01 BF 72 05 01 63 68  72 30 1C 72 80 52 12 80  ...r..chr0.r.R..
16D0: F0 FF FF 7F F0 FF FF 7F  30 61 30 67 45 8D 80 F0  ........0a0gE...
16E0: FF FF 7F F0 FF FF 7F 31  30 33 32 13 80 45 12 80  .......1032..E..
16F0: F0 FF FF 7F F0 FF FF 7F  30 61 30 71 13 80 5B B7  ........0a0q..[.
1700: 80 BF 72 05 01 BF 72 05  01 63 68 72 31 5B B8 80  ..r...r..chr1[..
1710: BD 72 05 01 BD 72 05 01  67 74 73 30 1C 14 80 52  .r...r..gts0...R
1720: 12 80 F0 FF FF 7F F0 FF  FF 7F 30 61 30 70 45 8D  ..........0a0pE.
1730: 80 F0 FF FF 7F F0 FF FF  7F 31 30 33 32 13 80 45  .........1032..E
1740: 12 80 F0 FF FF 7F F0 FF  FF 7F 30 61 30 72 13 80  ..........0a0r..
1750: 1C 2C 80 1C 1E 80 52 12  80 F0 FF FF 7F F0 FF FF  .,....R.........
1760: 7F 30 61 30 72 45 12 80  F0 FF FF 7F F0 FF FF 7F  .0a0rE..........
1770: 30 61 30 73 13 80 45 8D  80 F0 FF FF 7F F0 FF FF  0a0s..E.........
1780: 7F 31 30 33 32 13 80 1C  23 80 2B 2F 72 05 01 B9  .1032...#.+/r...
1790: 80 1C 41 80 1A 3C 2C 7A  00 B3 72 05 01 7A 00 B5  ..A..<,z..r..z..
17A0: 72 05 01 7A 00 B6 72 05  01 7A 00 B7 72 05 01 7A  r..z..r..z..r..z
17B0: 00 B8 72 05 01 7A 00 B9  72 05 01 7A 00 BA 72 05  ..r..z..r..z..r.
17C0: 01 7A 00 BB 72 05 01 7A  00 BC 72 05 01 7A 00 BD  .z..r..z..r..z..
17D0: 72 05 01 7A 00 BE 72 05  01 7A 00 58 72 05 01 7A  r..z..r..z.Xr..z
17E0: 00 59 72 05 01 7A 00 5A  72 05 01 7A 00 60 72 05  .Yr..z.Zr..z.`r.
17F0: 01 7A 00 61 72 05 01 7A  00 62 72 05 01 7A 00 6E  .z.ar..z.br..z.n
1800: 72 05 01 7A 00 89 72 05  01 23 29 10 B3 72 05 01  r..z..r..#)..r..
1810: 03 2F 01 B3 72 05 01 2F  01 B5 72 05 01 2F 01 B6  ./..r../..r../..
1820: 72 05 01 2F 01 B7 72 05  01 2F 01 B8 72 05 01 2F  r../..r../..r../
1830: 01 B9 72 05 01 2F 01 BA  72 05 01 2F 01 BB 72 05  ..r../..r../..r.
1840: 01 2F 01 BC 72 05 01 2F  01 BD 72 05 01 2F 01 BE  ./..r../..r../..
1850: 72 05 01 2F 01 BF 72 05  01 2F 01 58 72 05 01 2F  r../..r../.Xr../
1860: 01 59 72 05 01 2F 01 5A  72 05 01 2F 01 60 72 05  .Yr../.Zr../.`r.
1870: 01 2F 01 61 72 05 01 2F  01 62 72 05 01 2F 01 6E  ./.ar../.br../.n
1880: 72 05 01 2F 01 89 72 05  01 4E 01 B3 72 05 01 4E  r../..r..N..r..N
1890: 01 B5 72 05 01 4E 01 B6  72 05 01 4E 01 B7 72 05  ..r..N..r..N..r.
18A0: 01 4E 01 B8 72 05 01 4E  01 B9 72 05 01 4E 01 BA  .N..r..N..r..N..
18B0: 72 05 01 4E 01 BB 72 05  01 4E 01 BC 72 05 01 4E  r..N..r..N..r..N
18C0: 01 BD 72 05 01 4E 01 BE  72 05 01 4E 01 BF 72 05  ..r..N..r..N..r.
18D0: 01 4E 01 58 72 05 01 4E  01 59 72 05 01 4E 01 5A  .N.Xr..N.Yr..N.Z
18E0: 72 05 01 4E 01 60 72 05  01 4E 01 61 72 05 01 4E  r..N.`r..N.ar..N
18F0: 01 62 72 05 01 4E 01 6E  72 05 01 4E 01 89 72 05  .br..N.nr..N..r.
1900: 01 52 12 80 F0 FF FF 7F  F0 FF FF 7F 30 61 30 61  .R..........0a0a
1910: 34 47 80 77 48 80 49 80  1C 1E 80 AB 09 75 00 4A  4G.wH.I......u.J
1920: 80 75 01 BA F0 FF FF 7F  73 80 74 80 4D 80 75 80  .u......s.t.M.u.
1930: 92 00 F0 FF FF 7F 80 F0  FF FF 7F 80 2F 72 05 01  ............/r..
1940: 80 30 72 05 01 4A 2F 72  05 01 30 72 05 01 4A 30  .0r..J/r..0r..J0
1950: 72 05 01 2F 72 05 01 4A  F0 FF FF 7F 2F 72 05 01  r../r..J..../r..
1960: 52 12 80 F0 FF FF 7F F0  FF FF 7F 30 61 30 67 45  R..........0a0gE
1970: 12 80 F0 FF FF 7F F0 FF  FF 7F 30 61 30 68 13 80  ..........0a0h..
1980: 1A 1B 2C 79 00 2F 72 05  01 30 72 05 01 66 17 80  ..,y./r..0r..f..
1990: 30 72 05 01 30 72 05 01  74 6C 6B 30 2B 30 72 05  0r..0r..tlk0+0r.
19A0: 01 BA 80 1C 14 80 23 52  12 80 F0 FF FF 7F F0 FF  ......#R........
19B0: FF 7F 30 61 30 68 45 12  80 F0 FF FF 7F F0 FF FF  ..0a0hE.........
19C0: 7F 30 61 30 6E 13 80 66  17 80 30 72 05 01 30 72  .0a0n..f..0r..0r
19D0: 05 01 74 6C 6B 31 66 13  80 2F 72 05 01 2F 72 05  ..tlk1f../r../r.
19E0: 01 74 6C 6B 30 2B 2F 72  05 01 BB 80 1C 14 80 23  .tlk0+/r.......#
19F0: 66 13 80 2F 72 05 01 2F  72 05 01 74 65 6E 30 6E  f../r../r..ten0n
1A00: 30 72 05 01 3F 80 99 30  72 05 01 2B 30 72 05 01  0r..?..0r..+0r..
1A10: BC 80 1C 14 80 23 5D 13  80 41 80 1A 3C 2C 1C 1E  .....#]..A..<,..
1A20: 80 1C 49 80 35 6F 80 78  1C 49 80 AB 0A 1C 1E 80  ..I.5o.x.I......
1A30: AB 11 13 80 1C 49 80 46  00 45 42 80 F0 FF FF 7F  .....I.F.EB.....
1A40: F0 FF FF 7F 66 64 69 32  13 80 21 00              ....fdi2..!.    
```

#### Opcodes

```
  0: 0x0C53 [0x42] SET_CLI_EVENT_CANCEL_DATA()
  1: 0x0C54 [0x1A] CALL_SUBROUTINE(address=0x2C3C)
  2: 0x0C57 [0x46] CAMERA_CONTROL: Disable user control
  3: 0x0C59 [0x38] SET_CLIENT_EVENT_MODE(mode=19*)
  4: 0x0C5C [0x4E] SET_ENTITY_HIDE_FLAG: Show LocalPlayer
  5: 0x0C62 [0x2F] Gentle Tiger (ID: 17134123/0x0105722B)->Render.Flags0 &= ~0x80000 // Bit 19
  6: 0x0C68 [0x4E] SET_ENTITY_HIDE_FLAG: Show Gentle Tiger (ID: 17134123/0x0105722B)
  7: 0x0C6E [0x92] Gentle Tiger (ID: 17134123/0x0105722B)->Render.Flags3 ^= 0x01
  8: 0x0C74 [0x94] LocalPlayer->Render.Flags3 ^= 0x01
  9: 0x0C7A [0x94] Gentle Tiger (ID: 17134123/0x0105722B)->Render.Flags3 ^= 0x01
 10: 0x0C80 [0xBA] SET_ENTITY_POSITION(entity_id=LocalPlayer, pos_x=-201.430*, pos_z=2.607*, pos_y=-9.998*, direction=188.3°*)
 11: 0x0C8D [0xBA] SET_ENTITY_POSITION(entity_id=Gentle Tiger (ID: 17134123/0x0105722B), pos_x=-203.112*, pos_z=2.513*, pos_y=-9.998*, direction=0.0°*)
 12: 0x0C9A [0x80] LOAD_WAIT(entity=LocalPlayer)
 13: 0x0C9F [0x80] LOAD_WAIT(entity=Gentle Tiger (ID: 17134123/0x0105722B))
 14: 0x0CA4 [0x81] SET_ENTITY_BLINKING(blink_flag=0x00, entity=Gentle Tiger (ID: 17134123/0x0105722B))
 15: 0x0CAA [0x1C] WAIT(15* ticks)
 16: 0x0CAD [0x45] LOAD_SCHEDULED_TASK: Load scheduler "0a0a" with entities [LocalPlayer, LocalPlayer], work=[502*, 0*]
 17: 0x0CBE [0x79] LocalPlayer looks at Gentle Tiger (ID: 17134123/0x0105722B) (Basic look)
 18: 0x0CC8 [0x79] Gentle Tiger (ID: 17134123/0x0105722B) looks at LocalPlayer (Basic look)
 19: 0x0CD2 [0x1A] CALL_SUBROUTINE(address=0x2C1B)
 20: 0x0CD5 [0x2B] Gentle Tiger (ID: 17134123/0x0105722B) [13429*]:
    → "Oh, <Player>. Nicolaus just came rushing through here like a rabid fledermaus."
 21: 0x0CDC [0x23] WAIT_FOR_DIALOG_INTERACTION
 22: 0x0CDD [0x2B] Gentle Tiger (ID: 17134123/0x0105722B) [13430*]:
    → "Whatever do you suppose has gotten into him? At any rate, go on in. He should be right inside."
 23: 0x0CE4 [0x23] WAIT_FOR_DIALOG_INTERACTION
 24: 0x0CE5 [0x27] REQ_SET(priority=0x10, entity_id=LocalPlayer, tag_num=0x59)
 25: 0x0CEC [0x1C] WAIT(90* ticks)
 26: 0x0CEF [0x1C] WAIT(180* ticks)
 27: 0x0CF2 [0x1A] CALL_SUBROUTINE(address=0x2C3C)
 28: 0x0CF5 [0x52] END_LOAD_SCHEDULER: End scheduler "0a0a" with entities [LocalPlayer, LocalPlayer], work=502*
 29: 0x0D04 [0x7A] VM_CONTROL: Reset VM for LocalPlayer
 30: 0x0D0A [0x34] LOAD_UNLOAD_ZONE(zone_id=237*)
 31: 0x0D0D [0x77] SET_EVENT_TIME_WEATHER(hour=255*, weather=1*)
 32: 0x0D12 [0x1C] WAIT(30* ticks)
 33: 0x0D15 [0xAB] EventEntity->UnknownFlag = 1 // Enable unknown flag
 34: 0x0D17 [0x75] LOAD_ROOM(Load indoor room, room=305*)
 35: 0x0D1B [0x75] LOAD_ROOM(No action)
 36: 0x0D1D [0x2F] Gentle Tiger (ID: 17134123/0x0105722B)->Render.Flags0 |= 0x80000 // Bit 19
 37: 0x0D23 [0x4E] SET_ENTITY_HIDE_FLAG: Hide Gentle Tiger (ID: 17134123/0x0105722B)
 38: 0x0D29 [0x2F] Nicolaus (ID: 17134127/0x0105722F)->Render.Flags0 &= ~0x80000 // Bit 19
 39: 0x0D2F [0x2F] Five Moons (ID: 17134128/0x01057230)->Render.Flags0 &= ~0x80000 // Bit 19
 40: 0x0D35 [0x4E] SET_ENTITY_HIDE_FLAG: Show Nicolaus (ID: 17134127/0x0105722F)
 41: 0x0D3B [0x4E] SET_ENTITY_HIDE_FLAG: Show Five Moons (ID: 17134128/0x01057230)
 42: 0x0D41 [0x92] Nicolaus (ID: 17134127/0x0105722F)->Render.Flags3 ^= 0x01
 43: 0x0D47 [0x92] Five Moons (ID: 17134128/0x01057230)->Render.Flags3 ^= 0x01
 44: 0x0D4D [0x94] LocalPlayer->Render.Flags3 ^= 0x01
 45: 0x0D53 [0x94] Nicolaus (ID: 17134127/0x0105722F)->Render.Flags3 ^= 0x01
 46: 0x0D59 [0x94] Five Moons (ID: 17134128/0x01057230)->Render.Flags3 ^= 0x01
 47: 0x0D5F [0xBA] SET_ENTITY_POSITION(entity_id=LocalPlayer, pos_x=94.325*, pos_z=10.572*, pos_y=-20.185*, direction=262.7°*)
 48: 0x0D6C [0xBA] SET_ENTITY_POSITION(entity_id=Nicolaus (ID: 17134127/0x0105722F), pos_x=95.401*, pos_z=14.647*, pos_y=-20.185*, direction=100.1°*)
 49: 0x0D79 [0xBA] SET_ENTITY_POSITION(entity_id=Five Moons (ID: 17134128/0x01057230), pos_x=96.540*, pos_z=10.416*, pos_y=-20.184*, direction=262.9°*)
 50: 0x0D86 [0x80] LOAD_WAIT(entity=LocalPlayer)
 51: 0x0D8B [0x80] LOAD_WAIT(entity=Nicolaus (ID: 17134127/0x0105722F))
 52: 0x0D90 [0x80] LOAD_WAIT(entity=Five Moons (ID: 17134128/0x01057230))
 53: 0x0D95 [0x4A] Five Moons (ID: 17134128/0x01057230) looks at Nicolaus (ID: 17134127/0x0105722F)
 54: 0x0D9E [0x4A] LocalPlayer looks at Nicolaus (ID: 17134127/0x0105722F)
 55: 0x0DA7 [0x5D] SET_MUSIC_VOLUME(volume=0*, fade_time=60*)
 56: 0x0DAC [0x1C] WAIT(60* ticks)
 57: 0x0DAF [0x5C] MUSIC_CONTROL: Set Idle (Day) music to song 127*
 58: 0x0DB3 [0x5C] MUSIC_CONTROL: Set Idle (Night) music to song 127*
 59: 0x0DB7 [0x5D] SET_MUSIC_VOLUME(volume=100*, fade_time=120*)
 60: 0x0DBC [0x9A] WAIT_MUSIC_SERVER()
 61: 0x0DBD [0x45] LOAD_SCHEDULED_TASK: Load scheduler "0a0b" with entities [LocalPlayer, LocalPlayer], work=[502*, 0*]
 62: 0x0DCE [0x1A] CALL_SUBROUTINE(address=0x2C1B)
 63: 0x0DD1 [0x2B] Nicolaus (ID: 17134127/0x0105722F) [13431*]:
    → "Ah, <Player>, Five Moons! Took the scenic route, did you?"
 64: 0x0DD8 [0x23] WAIT_FOR_DIALOG_INTERACTION
 65: 0x0DD9 [0x52] END_LOAD_SCHEDULER: End scheduler "0a0b" with entities [LocalPlayer, LocalPlayer], work=502*
 66: 0x0DE8 [0x45] LOAD_SCHEDULED_TASK: Load scheduler "0a0w" with entities [LocalPlayer, LocalPlayer], work=[502*, 0*]
 67: 0x0DF9 [0x2B] Nicolaus (ID: 17134127/0x0105722F) [13432*]:
    → "Forgive me. I simply couldn't bear the wait, so I took it upon myself to peruse the records on my own."
 68: 0x0E00 [0x23] WAIT_FOR_DIALOG_INTERACTION
 69: 0x0E01 [0x52] END_LOAD_SCHEDULER: End scheduler "0a0w" with entities [LocalPlayer, LocalPlayer], work=502*
 70: 0x0E10 [0x45] LOAD_SCHEDULED_TASK: Load scheduler "0a0v" with entities [LocalPlayer, LocalPlayer], work=[502*, 0*]
 71: 0x0E21 [0x2B] Nicolaus (ID: 17134127/0x0105722F) [13433*]:
    → "Little to my surprise, it didn't take long to come across a most...intriguing...passage."
 72: 0x0E28 [0x23] WAIT_FOR_DIALOG_INTERACTION
 73: 0x0E29 [0x66] LOAD_EXT_SCHEDULER_MAIN: Load scheduler "tlk0" with entities [Five Moons (ID: 17134128/0x01057230), Five Moons (ID: 17134128/0x01057230)], work=69*
 74: 0x0E38 [0x79] Nicolaus (ID: 17134127/0x0105722F) looks at Five Moons (ID: 17134128/0x01057230) (Basic look)
 75: 0x0E42 [0x2B] Five Moons (ID: 17134128/0x01057230) [13434*]:
    → "You've found a clue!?"
 76: 0x0E49 [0x1C] WAIT(60* ticks)
 77: 0x0E4C [0x23] WAIT_FOR_DIALOG_INTERACTION
 78: 0x0E4D [0x66] LOAD_EXT_SCHEDULER_MAIN: Load scheduler "tlk1" with entities [Five Moons (ID: 17134128/0x01057230), Five Moons (ID: 17134128/0x01057230)], work=69*
 79: 0x0E5C [0x66] LOAD_EXT_SCHEDULER_MAIN: Load scheduler "thk1" with entities [Nicolaus (ID: 17134127/0x0105722F), Nicolaus (ID: 17134127/0x0105722F)], work=0*
 80: 0x0E6B [0x7B] Nicolaus (ID: 17134127/0x0105722F) stops talking
 81: 0x0E70 [0x2B] Nicolaus (ID: 17134127/0x0105722F) [13435*]:
    → "The entry in question is dated C.E. 858, or roughly six years ago. It reads..."
 82: 0x0E77 [0x1C] WAIT(60* ticks)
 83: 0x0E7A [0x23] WAIT_FOR_DIALOG_INTERACTION
 84: 0x0E7B [0x52] END_LOAD_SCHEDULER: End scheduler "0a0v" with entities [LocalPlayer, LocalPlayer], work=502*
 85: 0x0E8A [0x45] LOAD_SCHEDULED_TASK: Load scheduler "0a0c" with entities [LocalPlayer, LocalPlayer], work=[502*, 0*]
 86: 0x0E9B [0x66] LOAD_EXT_SCHEDULER_MAIN: Load scheduler "thk2" with entities [Nicolaus (ID: 17134127/0x0105722F), Nicolaus (ID: 17134127/0x0105722F)], work=0*
 87: 0x0EAA [0x2B] Nicolaus (ID: 17134127/0x0105722F) [13436*]:
    → "<Ahem> "...In the vicinity of Hoarfang Keep in Beaucedine, Captain Klara Bester of the Mythril Musketeers captured and took into custody the Galka War Cloud...""
 88: 0x0EB1 [0x23] WAIT_FOR_DIALOG_INTERACTION
 89: 0x0EB2 [0x52] END_LOAD_SCHEDULER: End scheduler "0a0c" with entities [LocalPlayer, LocalPlayer], work=502*
 90: 0x0EC1 [0x29] REQ_SET_WAIT(priority=0x10, entity_id=LocalPlayer, tag_num=0x48)
 91: 0x0EC8 [0x02] IF !(Work_Zone[2] == 1*) GOTO 0x0EE4
 92: 0x0ED0 [0x45] LOAD_SCHEDULED_TASK: Load scheduler "0ahm" with entities [LocalPlayer, LocalPlayer], work=[502*, 0*]
 93: 0x0EE1 [0x01] GOTO 0x0FA8
 94: 0x0EE4 [0x02] IF !(Work_Zone[2] == 2*) GOTO 0x0F00
 95: 0x0EEC [0x45] LOAD_SCHEDULED_TASK: Load scheduler "0ahf" with entities [LocalPlayer, LocalPlayer], work=[502*, 0*]
 96: 0x0EFD [0x01] GOTO 0x0FA8
 97: 0x0F00 [0x02] IF !(Work_Zone[2] == 3*) GOTO 0x0F1C
 98: 0x0F08 [0x45] LOAD_SCHEDULED_TASK: Load scheduler "0aem" with entities [LocalPlayer, LocalPlayer], work=[502*, 0*]
 99: 0x0F19 [0x01] GOTO 0x0FA8
100: 0x0F1C [0x02] IF !(Work_Zone[2] == 4*) GOTO 0x0F38
101: 0x0F24 [0x45] LOAD_SCHEDULED_TASK: Load scheduler "0aef" with entities [LocalPlayer, LocalPlayer], work=[502*, 0*]
102: 0x0F35 [0x01] GOTO 0x0FA8
103: 0x0F38 [0x02] IF !(Work_Zone[2] == 5*) GOTO 0x0F54
104: 0x0F40 [0x45] LOAD_SCHEDULED_TASK: Load scheduler "0atr" with entities [LocalPlayer, LocalPlayer], work=[502*, 0*]
105: 0x0F51 [0x01] GOTO 0x0FA8
106: 0x0F54 [0x02] IF !(Work_Zone[2] == 6*) GOTO 0x0F70
107: 0x0F5C [0x45] LOAD_SCHEDULED_TASK: Load scheduler "0atr" with entities [LocalPlayer, LocalPlayer], work=[502*, 0*]
108: 0x0F6D [0x01] GOTO 0x0FA8
109: 0x0F70 [0x02] IF !(Work_Zone[2] == 7*) GOTO 0x0F8C
110: 0x0F78 [0x45] LOAD_SCHEDULED_TASK: Load scheduler "0amt" with entities [LocalPlayer, LocalPlayer], work=[502*, 0*]
111: 0x0F89 [0x01] GOTO 0x0FA8
112: 0x0F8C [0x02] IF !(Work_Zone[2] == 8*) GOTO 0x0FA8
113: 0x0F94 [0x45] LOAD_SCHEDULED_TASK: Load scheduler "0agl" with entities [LocalPlayer, LocalPlayer], work=[502*, 0*]
114: 0x0FA5 [0x01] GOTO 0x0FA8

SUBROUTINE_0FA8:
115: 0x0FA8 [0x1C] WAIT(5* ticks)
116: 0x0FAB [0x66] LOAD_EXT_SCHEDULER_MAIN: Load scheduler "tlk0" with entities [Five Moons (ID: 17134128/0x01057230), Five Moons (ID: 17134128/0x01057230)], work=69*
117: 0x0FBA [0x1C] WAIT(5* ticks)
118: 0x0FBD [0x6E] LocalPlayer uses emote 21*
119: 0x0FC4 [0x99] Wait for LocalPlayer animation to complete
120: 0x0FC9 [0x2B] Five Moons (ID: 17134128/0x01057230) [13437*]:
    → ""Captured"...!? What could this mean? What could Zeid possibly have done that would call for his "capture!?" Who...was he?"
121: 0x0FD0 [0x23] WAIT_FOR_DIALOG_INTERACTION
122: 0x0FD1 [0x52] END_LOAD_SCHEDULER: End scheduler "0a0d" with entities [LocalPlayer, LocalPlayer], work=502*
123: 0x0FE0 [0x45] LOAD_SCHEDULED_TASK: Load scheduler "0a0i" with entities [LocalPlayer, LocalPlayer], work=[502*, 0*]
124: 0x0FF1 [0x66] LOAD_EXT_SCHEDULER_MAIN: Load scheduler "tlk1" with entities [Five Moons (ID: 17134128/0x01057230), Five Moons (ID: 17134128/0x01057230)], work=69*
125: 0x1000 [0x27] REQ_SET(priority=0x10, entity_id=Nicolaus (ID: 17134127/0x0105722F), tag_num=0x1A)
126: 0x1007 [0x2B] Nicolaus (ID: 17134127/0x0105722F) [13438*]:
    → "I'm afraid the report goes into no further detail. Still, to be chased out to the far reaches of such savage territory, it's clear enough he was up to no good."
127: 0x100E [0x2A] GET_REQ_LEVEL(level=16, entity_id=Nicolaus (ID: 17134127/0x0105722F))
128: 0x1014 [0x1C] WAIT(90* ticks)
129: 0x1017 [0x23] WAIT_FOR_DIALOG_INTERACTION
130: 0x1018 [0x7B] Five Moons (ID: 17134128/0x01057230) stops talking
131: 0x101D [0x66] LOAD_EXT_SCHEDULER_MAIN: Load scheduler "thk2" with entities [Nicolaus (ID: 17134127/0x0105722F), Nicolaus (ID: 17134127/0x0105722F)], work=0*
132: 0x102C [0x2B] Five Moons (ID: 17134128/0x01057230) [13439*]:
    → "Wait...Hoarfang? Why does that name ring so familiar to me...?"
133: 0x1033 [0x1C] WAIT(90* ticks)
134: 0x1036 [0x4A] Nicolaus (ID: 17134127/0x0105722F) looks at Five Moons (ID: 17134128/0x01057230)
135: 0x103F [0x66] LOAD_EXT_SCHEDULER_MAIN: Load scheduler "thk1" with entities [Five Moons (ID: 17134128/0x01057230), Five Moons (ID: 17134128/0x01057230)], work=69*
136: 0x104E [0x23] WAIT_FOR_DIALOG_INTERACTION
137: 0x104F [0x52] END_LOAD_SCHEDULER: End scheduler "0a0i" with entities [LocalPlayer, LocalPlayer], work=502*
138: 0x105E [0x45] LOAD_SCHEDULED_TASK: Load scheduler "0a0e" with entities [LocalPlayer, LocalPlayer], work=[502*, 0*]
139: 0x106F [0x7C] Five Moons (ID: 17134128/0x01057230)->Render.Flags2 |= 0x00
140: 0x1075 [0x1C] WAIT(240* ticks)
141: 0x1078 [0x52] END_LOAD_SCHEDULER: End scheduler "0a0e" with entities [LocalPlayer, LocalPlayer], work=502*
142: 0x1087 [0x45] LOAD_SCHEDULED_TASK: Load scheduler "4036" with entities [Five Moons (ID: 17134128/0x01057230), Five Moons (ID: 17134128/0x01057230)], work=[506*, 0*]
143: 0x1098 [0x45] LOAD_SCHEDULED_TASK: Load scheduler "0a0m" with entities [LocalPlayer, LocalPlayer], work=[502*, 0*]
144: 0x10A9 [0x66] LOAD_EXT_SCHEDULER_MAIN: Load scheduler "thk2" with entities [Five Moons (ID: 17134128/0x01057230), Five Moons (ID: 17134128/0x01057230)], work=69*
145: 0x10B8 [0x2B] Five Moons (ID: 17134128/0x01057230) [13440*]:
    → "...Yes! Yes, of course!"
146: 0x10BF [0x1C] WAIT(90* ticks)
147: 0x10C2 [0x7C] Five Moons (ID: 17134128/0x01057230)->Render.Flags2 |= 0x01
148: 0x10C8 [0x52] END_LOAD_SCHEDULER: End scheduler "0a0m" with entities [LocalPlayer, LocalPlayer], work=502*
149: 0x10D7 [0x45] LOAD_SCHEDULED_TASK: Load scheduler "4022" with entities [LocalPlayer, LocalPlayer], work=[506*, 0*]
150: 0x10E8 [0x45] LOAD_SCHEDULED_TASK: Load scheduler "0a0j" with entities [LocalPlayer, LocalPlayer], work=[502*, 0*]
151: 0x10F9 [0x4A] Five Moons (ID: 17134128/0x01057230) looks at Nicolaus (ID: 17134127/0x0105722F)
152: 0x1102 [0x66] LOAD_EXT_SCHEDULER_MAIN: Load scheduler "tlk0" with entities [Five Moons (ID: 17134128/0x01057230), Five Moons (ID: 17134128/0x01057230)], work=69*
153: 0x1111 [0x2B] Five Moons (ID: 17134128/0x01057230) [13441*]:
    → "That was the site of the Galkan massacre!"
154: 0x1118 [0x1C] WAIT(90* ticks)
155: 0x111B [0x23] WAIT_FOR_DIALOG_INTERACTION
156: 0x111C [0x52] END_LOAD_SCHEDULER: End scheduler "0a0j" with entities [LocalPlayer, LocalPlayer], work=502*
157: 0x112B [0x45] LOAD_SCHEDULED_TASK: Load scheduler "blof" with entities [LocalPlayer, LocalPlayer], work=[502*, 0*]
158: 0x113C [0x45] LOAD_SCHEDULED_TASK: Load scheduler "0a0k" with entities [LocalPlayer, LocalPlayer], work=[502*, 0*]
159: 0x114D [0x66] LOAD_EXT_SCHEDULER_MAIN: Load scheduler "tlk1" with entities [Five Moons (ID: 17134128/0x01057230), Five Moons (ID: 17134128/0x01057230)], work=69*
160: 0x115C [0x2B] Nicolaus (ID: 17134127/0x0105722F) [13442*]:
    → "The Galkan...massacre? Ah, you speak of the Thirteenth!"
161: 0x1163 [0x1C] WAIT(90* ticks)
162: 0x1166 [0x23] WAIT_FOR_DIALOG_INTERACTION
163: 0x1167 [0x1A] CALL_SUBROUTINE(address=0x2C3C)
164: 0x116A [0x34] LOAD_UNLOAD_ZONE(zone_id=87*)
165: 0x116D [0x77] SET_EVENT_TIME_WEATHER(hour=255*, weather=1*)
166: 0x1172 [0x1C] WAIT(30* ticks)
167: 0x1175 [0xAB] EventEntity->UnknownFlag = 1 // Enable unknown flag
168: 0x1177 [0x2F] Chocobo (ID: 17134259/0x010572B3)->Render.Flags0 &= ~0x80000 // Bit 19
169: 0x117D [0x2F] Unnamed NPC (ID: 17134260/0x010572B4)->Render.Flags0 &= ~0x80000 // Bit 19
170: 0x1183 [0x2F] A (ID: 17134261/0x010572B5)->Render.Flags0 &= ~0x80000 // Bit 19
171: 0x1189 [0x2F] B (ID: 17134262/0x010572B6)->Render.Flags0 &= ~0x80000 // Bit 19
172: 0x118F [0x2F] C (ID: 17134263/0x010572B7)->Render.Flags0 &= ~0x80000 // Bit 19
173: 0x1195 [0x2F] D (ID: 17134264/0x010572B8)->Render.Flags0 &= ~0x80000 // Bit 19
174: 0x119B [0x2F] E (ID: 17134265/0x010572B9)->Render.Flags0 &= ~0x80000 // Bit 19
175: 0x11A1 [0x2F] F (ID: 17134266/0x010572BA)->Render.Flags0 &= ~0x80000 // Bit 19
176: 0x11A7 [0x2F] G (ID: 17134267/0x010572BB)->Render.Flags0 &= ~0x80000 // Bit 19
177: 0x11AD [0x2F] H (ID: 17134268/0x010572BC)->Render.Flags0 &= ~0x80000 // Bit 19
178: 0x11B3 [0x2F] I (ID: 17134269/0x010572BD)->Render.Flags0 &= ~0x80000 // Bit 19
179: 0x11B9 [0x2F] J (ID: 17134270/0x010572BE)->Render.Flags0 &= ~0x80000 // Bit 19
180: 0x11BF [0x2F] Unnamed NPC (ID: 17134168/0x01057258)->Render.Flags0 &= ~0x80000 // Bit 19
181: 0x11C5 [0x2F] Unnamed NPC (ID: 17134169/0x01057259)->Render.Flags0 &= ~0x80000 // Bit 19
182: 0x11CB [0x2F] Unnamed NPC (ID: 17134170/0x0105725A)->Render.Flags0 &= ~0x80000 // Bit 19
183: 0x11D1 [0x2F] Unnamed NPC (ID: 17134176/0x01057260)->Render.Flags0 &= ~0x80000 // Bit 19
184: 0x11D7 [0x2F] Unnamed NPC (ID: 17134177/0x01057261)->Render.Flags0 &= ~0x80000 // Bit 19
