# 17134240 - Norbert

## Common Data

| Field            | Value                       |
|------------------|-----------------------------|
| Zone             | Bastok Markets [S] (ID: 87) |
| Block Size       | 252 bytes                   |
| Total Events     | 6                           |
| References Count | 21                          |

## List of Events

| Event ID                 | Entrypoint   |   Size |   Instructions |
|--------------------------|--------------|--------|----------------|
| [65535](#event-65535)    | 0x0000       |      1 |              1 |
| [179](#event-179)        | 0x0001       |      7 |              2 |
| [65535.1](#event-655351) | 0x0008       |     34 |              8 |
| [65535.2](#event-655352) | 0x002A       |     22 |              6 |
| [65535.3](#event-655353) | 0x0040       |     50 |              8 |
| [65535.4](#event-655354) | 0x0072       |     14 |              4 |

## DAT References (imed_data)

|   Index | Hex Value   |   Dec Value |
|---------|-------------|-------------|
|       0 | 0x0028      |          40 |
|       1 | 0xFFFC8A85  |  4294740613 |
|       2 | 0x11F47     |       73543 |
|       3 | 0x0000      |           0 |
|       4 | 0xFFFC94FB  |  4294743291 |
|       5 | 0x1198E     |       72078 |
|       6 | 0xFFFFFF93  |  4294967187 |
|       7 | 0xFFFC9EC6  |  4294745798 |
|       8 | 0x1117A     |       70010 |
|       9 | 0xFFFFFD04  |  4294966532 |
|      10 | 0xFFFD2665  |  4294780517 |
|      11 | 0x12238     |       74296 |
|      12 | 0xFFFFF061  |  4294963297 |
|      13 | 0x001E      |          30 |
|      14 | 0x000D      |          13 |
|      15 | 0xFFFD5EEB  |  4294794987 |
|      16 | 0x12C33     |       76851 |
|      17 | 0xFFFFF060  |  4294963296 |
|      18 | 0x0009      |           9 |
|      19 | 0xFFFD38E8  |  4294785256 |
|      20 | 0x12D91     |       77201 |

## Events

### Event 65535

#### Metadata

| Field        | Value   |
|--------------|---------|
| Entrypoint   | 0x0000  |
| Data Size    | 1 bytes |
| Instructions | 1       |

```
      00 01 02 03 04 05 06 07  08 09 0A 0B 0C 0D 0E 0F
      -- -- -- -- -- -- -- --  -- -- -- -- -- -- -- --
0000: 00                                                .               
```

#### Opcodes

```
  0: 0x0000 [0x00] END_REQSTACK()
```

### Event 179

#### Metadata

| Field        | Value   |
|--------------|---------|
| Entrypoint   | 0x0001  |
| Data Size    | 7 bytes |
| Instructions | 2       |

```
      00 01 02 03 04 05 06 07  08 09 0A 0B 0C 0D 0E 0F
      -- -- -- -- -- -- -- --  -- -- -- -- -- -- -- --
0000:    92 01 F8 FF FF 7F 00                            .......        
```

#### Opcodes

```
  0: 0x0001 [0x92] EventEntity->Render.Flags3 ^= 0x01
  1: 0x0007 [0x00] END_REQSTACK()
```

### Event 65535.1

#### Metadata

| Field        | Value    |
|--------------|----------|
| Entrypoint   | 0x0008   |
| Data Size    | 34 bytes |
| Instructions | 8        |

```
      00 01 02 03 04 05 06 07  08 09 0A 0B 0C 0D 0E 0F
      -- -- -- -- -- -- -- --  -- -- -- -- -- -- -- --
0000:                          32 00 80 1F 00 01 80 02          2.......
0010: 80 03 80 1F 01 1F 00 04  80 05 80 06 80 1F 01 1F  ................
0020: 00 07 80 08 80 09 80 1F  01 00                    ..........      
```

#### Opcodes

```
  0: 0x0008 [0x32] ExtData[1]->MainSpeed = 40* * 0.1
  1: 0x000B [0x1F] MOVE_ENTITY: EventEntity moves to X=-226.683*, Z=73.543*, Y=0.000*
  2: 0x0013 [0x1F] MOVE_ENTITY: Update entity position (mode=1)
  3: 0x0015 [0x1F] MOVE_ENTITY: EventEntity moves to X=-224.005*, Z=72.078*, Y=-0.109*
  4: 0x001D [0x1F] MOVE_ENTITY: Update entity position (mode=1)
  5: 0x001F [0x1F] MOVE_ENTITY: EventEntity moves to X=-221.498*, Z=70.010*, Y=-0.764*
  6: 0x0027 [0x1F] MOVE_ENTITY: Update entity position (mode=1)
  7: 0x0029 [0x00] END_REQSTACK()
```

### Event 65535.2

#### Metadata

| Field        | Value    |
|--------------|----------|
| Entrypoint   | 0x002A   |
| Data Size    | 22 bytes |
| Instructions | 6        |

```
      00 01 02 03 04 05 06 07  08 09 0A 0B 0C 0D 0E 0F
      -- -- -- -- -- -- -- --  -- -- -- -- -- -- -- --
0020:                                32 00 80 1F 00 0A            2.....
0030: 80 0B 80 0C 80 1F 01 1E  9F 72 05 01 1C 0D 80 00  .........r......
```

#### Opcodes

```
  0: 0x002A [0x32] ExtData[1]->MainSpeed = 40* * 0.1
  1: 0x002D [0x1F] MOVE_ENTITY: EventEntity moves to X=-186.779*, Z=74.296*, Y=-3.999*
  2: 0x0035 [0x1F] MOVE_ENTITY: Update entity position (mode=1)
  3: 0x0037 [0x1E] EventEntity looks at Lieselotte (ID: 17134239/0x0105729F) and starts talking
  4: 0x003C [0x1C] WAIT(30* ticks)
  5: 0x003F [0x00] END_REQSTACK()
```

### Event 65535.3

#### Metadata

| Field        | Value    |
|--------------|----------|
| Entrypoint   | 0x0040   |
| Data Size    | 50 bytes |
| Instructions | 8        |

```
      00 01 02 03 04 05 06 07  08 09 0A 0B 0C 0D 0E 0F
      -- -- -- -- -- -- -- --  -- -- -- -- -- -- -- --
0040: 32 0E 80 1F 00 0F 80 10  80 11 80 1F 01 1E CC 71  2..............q
0050: 05 01 1C 0D 80 66 12 80  F8 FF FF 7F F8 FF FF 7F  .....f..........
0060: 73 68 61 30 53 F8 FF FF  7F F8 FF FF 7F 73 68 61  sha0S........sha
0070: 30 00                                             0.              
```

#### Opcodes

```
  0: 0x0040 [0x32] ExtData[1]->MainSpeed = 13* * 0.1
  1: 0x0043 [0x1F] MOVE_ENTITY: EventEntity moves to X=-172.309*, Z=76.851*, Y=-4.000*
  2: 0x004B [0x1F] MOVE_ENTITY: Update entity position (mode=1)
  3: 0x004D [0x1E] EventEntity looks at Werner (ID: 17134028/0x010571CC) and starts talking
  4: 0x0052 [0x1C] WAIT(30* ticks)
  5: 0x0055 [0x66] LOAD_EXT_SCHEDULER_MAIN: Load scheduler "sha0" with entities [EventEntity, EventEntity], work=9*
  6: 0x0064 [0x53] WAIT_SCHEDULER_TASK: Wait for scheduler "sha0" with entities [EventEntity, EventEntity]
  7: 0x0071 [0x00] END_REQSTACK()
```

### Event 65535.4

#### Metadata

| Field        | Value    |
|--------------|----------|
| Entrypoint   | 0x0072   |
| Data Size    | 14 bytes |
| Instructions | 4        |

```
      00 01 02 03 04 05 06 07  08 09 0A 0B 0C 0D 0E 0F
      -- -- -- -- -- -- -- --  -- -- -- -- -- -- -- --
0070:       32 00 80 1F 00 13  80 14 80 11 80 1F 01 00    2.............
```

#### Opcodes

```
  0: 0x0072 [0x32] ExtData[1]->MainSpeed = 40* * 0.1
  1: 0x0075 [0x1F] MOVE_ENTITY: EventEntity moves to X=-182.040*, Z=77.201*, Y=-4.000*
  2: 0x007D [0x1F] MOVE_ENTITY: Update entity position (mode=1)
  3: 0x007F [0x00] END_REQSTACK()
```
