# 17134127 - Nicolaus

## Common Data

| Field            | Value                       |
|------------------|-----------------------------|
| Zone             | Bastok Markets [S] (ID: 87) |
| Block Size       | 768 bytes                   |
| Total Events     | 31                          |
| References Count | 48                          |

## List of Events

| Event ID                   | Entrypoint   |   Size |   Instructions |
|----------------------------|--------------|--------|----------------|
| [65535](#event-65535)      | 0x0000       |      1 |              1 |
| [65535.1](#event-655351)   | 0x0001       |      1 |              1 |
| [65535.2](#event-655352)   | 0x0002       |     18 |              4 |
| [65535.3](#event-655353)   | 0x0014       |     10 |              2 |
| [65535.4](#event-655354)   | 0x001E       |      9 |              3 |
| [65535.5](#event-655355)   | 0x0027       |      9 |              3 |
| [65535.6](#event-655356)   | 0x0030       |     10 |              2 |
| [65535.7](#event-655357)   | 0x003A       |     10 |              2 |
| [180](#event-180)          | 0x0044       |      1 |              1 |
| [181](#event-181)          | 0x0045       |      1 |              1 |
| [182](#event-182)          | 0x0046       |      1 |              1 |
| [65535.8](#event-655358)   | 0x0047       |     45 |              7 |
| [65535.9](#event-655359)   | 0x0074       |     39 |              8 |
| [345](#event-345)          | 0x009B       |      1 |              1 |
| [346](#event-346)          | 0x009C       |      1 |              1 |
| [347](#event-347)          | 0x009D       |      1 |              1 |
| [348](#event-348)          | 0x009E       |      1 |              1 |
| [349](#event-349)          | 0x009F       |      1 |              1 |
| [211](#event-211)          | 0x00A0       |      1 |              1 |
| [65535.10](#event-6553510) | 0x00A1       |     21 |              5 |
| [65535.11](#event-6553511) | 0x00B6       |     22 |              6 |
| [65535.12](#event-6553512) | 0x00CC       |     19 |              3 |
| [65535.13](#event-6553513) | 0x00DF       |     28 |              8 |
| [65535.14](#event-6553514) | 0x00FB       |     19 |              5 |
| [65535.15](#event-6553515) | 0x010E       |     19 |              5 |
| [65535.16](#event-6553516) | 0x0121       |     19 |              5 |
| [65535.17](#event-6553517) | 0x0134       |     30 |              6 |
| [65535.18](#event-6553518) | 0x0152       |     19 |              5 |
| [65535.19](#event-6553519) | 0x0165       |     14 |              4 |
| [65535.20](#event-6553520) | 0x0173       |     31 |              7 |
| [65535.21](#event-6553521) | 0x0192       |     33 |              7 |

## DAT References (imed_data)

|   Index | Hex Value   |   Dec Value |
|---------|-------------|-------------|
|       0 | 0x0000      |           0 |
|       1 | 0x0001      |           1 |
|       2 | 0x0080      |         128 |
|       3 | 0x000A      |          10 |
|       4 | 0x17A8F     |       96911 |
|       5 | 0x29AB      |       10667 |
|       6 | 0xFFFFB127  |  4294947111 |
|       7 | 0x000D      |          13 |
|       8 | 0xFFFCE4AB  |  4294763691 |
|       9 | 0xFFFFFD78  |  4294966648 |
|      10 | 0xFFFFD8F2  |  4294957298 |
|      11 | 0xFFFCE905  |  4294764805 |
|      12 | 0xFFFFFC61  |  4294966369 |
|      13 | 0x0BB8      |        3000 |
|      14 | 0xFFFCE90C  |  4294764812 |
|      15 | 0xFFFFFE6B  |  4294966891 |
|      16 | 0x0BB9      |        3001 |
|      17 | 0x0002      |           2 |
|      18 | 0x0078      |         120 |
|      19 | 0x001E      |          30 |
|      20 | 0x0028      |          40 |
|      21 | 0xFFFCF672  |  4294768242 |
|      22 | 0x04C7      |        1223 |
|      23 | 0xFFFCFB51  |  4294769489 |
|      24 | 0x2BC6      |       11206 |
|      25 | 0x15C10     |       89104 |
|      26 | 0x28DD      |       10461 |
|      27 | 0xFFFFB136  |  4294947126 |
|      28 | 0x17487     |       95367 |
|      29 | 0x2800      |       10240 |
|      30 | 0x15B6A     |       88938 |
|      31 | 0x26B4      |        9908 |
|      32 | 0x16C73     |       93299 |
|      33 | 0x37DA      |       14298 |
|      34 | 0x15B83     |       88963 |
|      35 | 0x2FAC      |       12204 |
|      36 | 0x15F65     |       89957 |
|      37 | 0x2843      |       10307 |
|      38 | 0x15D6B     |       89451 |
|      39 | 0x248C      |        9356 |
|      40 | 0x15A80     |       88704 |
|      41 | 0x21A7      |        8615 |
|      42 | 0x041A      |        1050 |
|      43 | 0x15A6E     |       88686 |
|      44 | 0x21AF      |        8623 |
|      45 | 0x15AC8     |       88776 |
|      46 | 0x0A8C      |        2700 |
|      47 | 0xFFFFB3B4  |  4294947764 |

## Events

### Event 65535

#### Metadata

| Field        | Value   |
|--------------|---------|
| Entrypoint   | 0x0000  |
| Data Size    | 1 bytes |
| Instructions | 1       |

```
      00 01 02 03 04 05 06 07  08 09 0A 0B 0C 0D 0E 0F
      -- -- -- -- -- -- -- --  -- -- -- -- -- -- -- --
0000: 00                                                .               
```

#### Opcodes

```
  0: 0x0000 [0x00] END_REQSTACK()
```

### Event 65535.1

#### Metadata

| Field        | Value   |
|--------------|---------|
| Entrypoint   | 0x0001  |
| Data Size    | 1 bytes |
| Instructions | 1       |

```
      00 01 02 03 04 05 06 07  08 09 0A 0B 0C 0D 0E 0F
      -- -- -- -- -- -- -- --  -- -- -- -- -- -- -- --
0000:    00                                              .              
```

#### Opcodes

```
  0: 0x0001 [0x00] END_REQSTACK()
```

### Event 65535.2

#### Metadata

| Field        | Value    |
|--------------|----------|
| Entrypoint   | 0x0002   |
| Data Size    | 18 bytes |
| Instructions | 4        |

```
      00 01 02 03 04 05 06 07  08 09 0A 0B 0C 0D 0E 0F
      -- -- -- -- -- -- -- --  -- -- -- -- -- -- -- --
0000:       22 00 2F 00 F8 FF  FF 7F 6C F8 FF FF 7F 00    "./.....l.....
0010: 80 01 80 00                                       ....            
```

#### Opcodes

```
  0: 0x0002 [0x22] ENTITY_HIDE_FLAG(enabled=0x00)
  1: 0x0004 [0x2F] EventEntity->Render.Flags0 &= ~0x80000 // Bit 19
  2: 0x000A [0x6C] FADE_ENTITY_COLOR(entity_id=EventEntity, end_alpha=0*, fade_time=1*)
  3: 0x0013 [0x00] END_REQSTACK()
```

### Event 65535.3

#### Metadata

| Field        | Value    |
|--------------|----------|
| Entrypoint   | 0x0014   |
| Data Size    | 10 bytes |
| Instructions | 2        |

```
      00 01 02 03 04 05 06 07  08 09 0A 0B 0C 0D 0E 0F
      -- -- -- -- -- -- -- --  -- -- -- -- -- -- -- --
0010:             6C F8 FF FF  7F 02 80 01 80 00            l.........  
```

#### Opcodes

```
  0: 0x0014 [0x6C] FADE_ENTITY_COLOR(entity_id=EventEntity, end_alpha=128*, fade_time=1*)
  1: 0x001D [0x00] END_REQSTACK()
```

### Event 65535.4

#### Metadata

| Field        | Value   |
|--------------|---------|
| Entrypoint   | 0x001E  |
| Data Size    | 9 bytes |
| Instructions | 3       |

```
      00 01 02 03 04 05 06 07  08 09 0A 0B 0C 0D 0E 0F
      -- -- -- -- -- -- -- --  -- -- -- -- -- -- -- --
0010:                                            22 00                ".
0020: 2F 00 F8 FF FF 7F 00                              /......         
```

#### Opcodes

```
  0: 0x001E [0x22] ENTITY_HIDE_FLAG(enabled=0x00)
  1: 0x0020 [0x2F] EventEntity->Render.Flags0 &= ~0x80000 // Bit 19
  2: 0x0026 [0x00] END_REQSTACK()
```

### Event 65535.5

#### Metadata

| Field        | Value   |
|--------------|---------|
| Entrypoint   | 0x0027  |
| Data Size    | 9 bytes |
| Instructions | 3       |

```
      00 01 02 03 04 05 06 07  08 09 0A 0B 0C 0D 0E 0F
      -- -- -- -- -- -- -- --  -- -- -- -- -- -- -- --
0020:                      22  01 2F 01 F8 FF FF 7F 00         "./......
```

#### Opcodes

```
  0: 0x0027 [0x22] ENTITY_HIDE_FLAG(enabled=0x01)
  1: 0x0029 [0x2F] EventEntity->Render.Flags0 |= 0x80000 // Bit 19
  2: 0x002F [0x00] END_REQSTACK()
```

### Event 65535.6

#### Metadata

| Field        | Value    |
|--------------|----------|
| Entrypoint   | 0x0030   |
| Data Size    | 10 bytes |
| Instructions | 2        |

```
      00 01 02 03 04 05 06 07  08 09 0A 0B 0C 0D 0E 0F
      -- -- -- -- -- -- -- --  -- -- -- -- -- -- -- --
0030: 6C F8 FF FF 7F 00 80 01  80 00                    l.........      
```

#### Opcodes

```
  0: 0x0030 [0x6C] FADE_ENTITY_COLOR(entity_id=EventEntity, end_alpha=0*, fade_time=1*)
  1: 0x0039 [0x00] END_REQSTACK()
```

### Event 65535.7

#### Metadata

| Field        | Value    |
|--------------|----------|
| Entrypoint   | 0x003A   |
| Data Size    | 10 bytes |
| Instructions | 2        |

```
      00 01 02 03 04 05 06 07  08 09 0A 0B 0C 0D 0E 0F
      -- -- -- -- -- -- -- --  -- -- -- -- -- -- -- --
0030:                                6C F8 FF FF 7F 02            l.....
0040: 80 01 80 00                                       ....            
```

#### Opcodes

```
  0: 0x003A [0x6C] FADE_ENTITY_COLOR(entity_id=EventEntity, end_alpha=128*, fade_time=1*)
  1: 0x0043 [0x00] END_REQSTACK()
```

### Event 180

#### Metadata

| Field        | Value   |
|--------------|---------|
| Entrypoint   | 0x0044  |
| Data Size    | 1 bytes |
| Instructions | 1       |

```
      00 01 02 03 04 05 06 07  08 09 0A 0B 0C 0D 0E 0F
      -- -- -- -- -- -- -- --  -- -- -- -- -- -- -- --
0040:             00                                        .           
```

#### Opcodes

```
  0: 0x0044 [0x00] END_REQSTACK()
```

### Event 181

#### Metadata

| Field        | Value   |
|--------------|---------|
| Entrypoint   | 0x0045  |
| Data Size    | 1 bytes |
| Instructions | 1       |

```
      00 01 02 03 04 05 06 07  08 09 0A 0B 0C 0D 0E 0F
      -- -- -- -- -- -- -- --  -- -- -- -- -- -- -- --
0040:                00                                      .          
```

#### Opcodes

```
  0: 0x0045 [0x00] END_REQSTACK()
```

### Event 182

#### Metadata

| Field        | Value   |
|--------------|---------|
| Entrypoint   | 0x0046  |
| Data Size    | 1 bytes |
| Instructions | 1       |

```
      00 01 02 03 04 05 06 07  08 09 0A 0B 0C 0D 0E 0F
      -- -- -- -- -- -- -- --  -- -- -- -- -- -- -- --
0040:                   00                                    .         
```

#### Opcodes

```
  0: 0x0046 [0x00] END_REQSTACK()
```

### Event 65535.8

#### Metadata

| Field        | Value    |
|--------------|----------|
| Entrypoint   | 0x0047   |
| Data Size    | 45 bytes |
| Instructions | 7        |

```
      00 01 02 03 04 05 06 07  08 09 0A 0B 0C 0D 0E 0F
      -- -- -- -- -- -- -- --  -- -- -- -- -- -- -- --
0040:                      59  04 2F 72 05 01 03 80 1F         Y./r.....
0050: 00 04 80 05 80 06 80 1F  01 6F 79 00 2F 72 05 01  .........oy./r..
0060: 2C 72 05 01 66 00 80 2F  72 05 01 2F 72 05 01 74  ,r..f../r../r..t
0070: 6C 6B 30 00                                       lk0.            
```

#### Opcodes

```
  0: 0x0047 [0x59] UPDATE_ENTITY_DATA: Set Nicolaus (ID: 17134127/0x0105722F) main speed = 10* * 0.1
  1: 0x004F [0x1F] MOVE_ENTITY: EventEntity moves to X=96.911*, Z=10.667*, Y=-20.185*
  2: 0x0057 [0x1F] MOVE_ENTITY: Update entity position (mode=1)
  3: 0x0059 [0x6F] WAIT_FRAME_DELAY: Yield until WaitTime reaches zero
  4: 0x005A [0x79] Nicolaus (ID: 17134127/0x0105722F) looks at Klara (ID: 17134124/0x0105722C) (Basic look)
  5: 0x0064 [0x66] LOAD_EXT_SCHEDULER_MAIN: Load scheduler "tlk0" with entities [Nicolaus (ID: 17134127/0x0105722F), Nicolaus (ID: 17134127/0x0105722F)], work=0*
  6: 0x0073 [0x00] END_REQSTACK()
```

### Event 65535.9

#### Metadata

| Field        | Value    |
|--------------|----------|
| Entrypoint   | 0x0074   |
| Data Size    | 39 bytes |
| Instructions | 8        |

```
      00 01 02 03 04 05 06 07  08 09 0A 0B 0C 0D 0E 0F
      -- -- -- -- -- -- -- --  -- -- -- -- -- -- -- --
0070:             59 04 2F 72  05 01 07 80 1F 00 08 80      Y./r........
0080: 09 80 0A 80 1F 01 4A 2F  72 05 01 F0 FF FF 7F 7B  ......J/r......{
0090: 2F 72 05 01 6F 76 2F 72  05 01 00                 /r..ov/r...     
```

#### Opcodes

```
  0: 0x0074 [0x59] UPDATE_ENTITY_DATA: Set Nicolaus (ID: 17134127/0x0105722F) main speed = 13* * 0.1
  1: 0x007C [0x1F] MOVE_ENTITY: EventEntity moves to X=-203.605*, Z=-0.648*, Y=-9.998*
  2: 0x0084 [0x1F] MOVE_ENTITY: Update entity position (mode=1)
  3: 0x0086 [0x4A] Nicolaus (ID: 17134127/0x0105722F) looks at LocalPlayer
  4: 0x008F [0x7B] Nicolaus (ID: 17134127/0x0105722F) stops talking
  5: 0x0094 [0x6F] WAIT_FRAME_DELAY: Yield until WaitTime reaches zero
  6: 0x0095 [0x76] CHECK_ENTITY_RENDER_FLAGS: Wait until Nicolaus (ID: 17134127/0x0105722F) Render.Flags0 and Render.Flags3 conditions are met
  7: 0x009A [0x00] END_REQSTACK()
```

### Event 345

#### Metadata

| Field        | Value   |
|--------------|---------|
| Entrypoint   | 0x009B  |
| Data Size    | 1 bytes |
| Instructions | 1       |

```
      00 01 02 03 04 05 06 07  08 09 0A 0B 0C 0D 0E 0F
      -- -- -- -- -- -- -- --  -- -- -- -- -- -- -- --
0090:                                   00                         .    
```

#### Opcodes

```
  0: 0x009B [0x00] END_REQSTACK()
```

### Event 346

#### Metadata

| Field        | Value   |
|--------------|---------|
| Entrypoint   | 0x009C  |
| Data Size    | 1 bytes |
| Instructions | 1       |

```
      00 01 02 03 04 05 06 07  08 09 0A 0B 0C 0D 0E 0F
      -- -- -- -- -- -- -- --  -- -- -- -- -- -- -- --
0090:                                      00                       .   
```

#### Opcodes

```
  0: 0x009C [0x00] END_REQSTACK()
```

### Event 347

#### Metadata

| Field        | Value   |
|--------------|---------|
| Entrypoint   | 0x009D  |
| Data Size    | 1 bytes |
| Instructions | 1       |

```
      00 01 02 03 04 05 06 07  08 09 0A 0B 0C 0D 0E 0F
      -- -- -- -- -- -- -- --  -- -- -- -- -- -- -- --
0090:                                         00                     .  
```

#### Opcodes

```
  0: 0x009D [0x00] END_REQSTACK()
```

### Event 348

#### Metadata

| Field        | Value   |
|--------------|---------|
| Entrypoint   | 0x009E  |
| Data Size    | 1 bytes |
| Instructions | 1       |

```
      00 01 02 03 04 05 06 07  08 09 0A 0B 0C 0D 0E 0F
      -- -- -- -- -- -- -- --  -- -- -- -- -- -- -- --
0090:                                            00                   . 
```

#### Opcodes

```
  0: 0x009E [0x00] END_REQSTACK()
```

### Event 349

#### Metadata

| Field        | Value   |
|--------------|---------|
| Entrypoint   | 0x009F  |
| Data Size    | 1 bytes |
| Instructions | 1       |

```
      00 01 02 03 04 05 06 07  08 09 0A 0B 0C 0D 0E 0F
      -- -- -- -- -- -- -- --  -- -- -- -- -- -- -- --
0090:                                               00                 .
```

#### Opcodes

```
  0: 0x009F [0x00] END_REQSTACK()
```

### Event 211

#### Metadata

| Field        | Value   |
|--------------|---------|
| Entrypoint   | 0x00A0  |
| Data Size    | 1 bytes |
| Instructions | 1       |

```
      00 01 02 03 04 05 06 07  08 09 0A 0B 0C 0D 0E 0F
      -- -- -- -- -- -- -- --  -- -- -- -- -- -- -- --
00A0: 00                                                .               
```

#### Opcodes

```
  0: 0x00A0 [0x00] END_REQSTACK()
```

### Event 65535.10

#### Metadata

| Field        | Value    |
|--------------|----------|
| Entrypoint   | 0x00A1   |
| Data Size    | 21 bytes |
| Instructions | 5        |

```
      00 01 02 03 04 05 06 07  08 09 0A 0B 0C 0D 0E 0F
      -- -- -- -- -- -- -- --  -- -- -- -- -- -- -- --
00A0:    32 07 80 1F 00 0B 80  0C 80 0A 80 1F 01 4B 2F   2............K/
00B0: 72 05 01 0D 80 00                                 r.....          
```

#### Opcodes

```
  0: 0x00A1 [0x32] ExtData[1]->MainSpeed = 13* * 0.1
  1: 0x00A4 [0x1F] MOVE_ENTITY: EventEntity moves to X=-202.491*, Z=-0.927*, Y=-9.998*
  2: 0x00AC [0x1F] MOVE_ENTITY: Update entity position (mode=1)
  3: 0x00AE [0x4B] UPDATE_ENTITY_YAW(entity=Nicolaus (ID: 17134127/0x0105722F), yaw=16.5°*)
  4: 0x00B5 [0x00] END_REQSTACK()
```

### Event 65535.11

#### Metadata

| Field        | Value    |
|--------------|----------|
| Entrypoint   | 0x00B6   |
| Data Size    | 22 bytes |
| Instructions | 6        |

```
      00 01 02 03 04 05 06 07  08 09 0A 0B 0C 0D 0E 0F
      -- -- -- -- -- -- -- --  -- -- -- -- -- -- -- --
00B0:                   32 03  80 1F 00 0E 80 0F 80 0A        2.........
00C0: 80 1F 01 6F 4B 2F 72 05  01 10 80 00              ...oK/r.....    
```

#### Opcodes

```
  0: 0x00B6 [0x32] ExtData[1]->MainSpeed = 10* * 0.1
  1: 0x00B9 [0x1F] MOVE_ENTITY: EventEntity moves to X=-202.484*, Z=-0.405*, Y=-9.998*
  2: 0x00C1 [0x1F] MOVE_ENTITY: Update entity position (mode=1)
  3: 0x00C3 [0x6F] WAIT_FRAME_DELAY: Yield until WaitTime reaches zero
  4: 0x00C4 [0x4B] UPDATE_ENTITY_YAW(entity=Nicolaus (ID: 17134127/0x0105722F), yaw=16.5°*)
  5: 0x00CB [0x00] END_REQSTACK()
```

### Event 65535.12

#### Metadata

| Field        | Value    |
|--------------|----------|
| Entrypoint   | 0x00CC   |
| Data Size    | 19 bytes |
| Instructions | 3        |

```
      00 01 02 03 04 05 06 07  08 09 0A 0B 0C 0D 0E 0F
      -- -- -- -- -- -- -- --  -- -- -- -- -- -- -- --
00C0:                                      66 11 80 2F              f../
00D0: 72 05 01 2F 72 05 01 6B  62 61 32 1C 12 80 00     r../r..kba2.... 
```

#### Opcodes

```
  0: 0x00CC [0x66] LOAD_EXT_SCHEDULER_MAIN: Load scheduler "kba2" with entities [Nicolaus (ID: 17134127/0x0105722F), Nicolaus (ID: 17134127/0x0105722F)], work=2*
  1: 0x00DB [0x1C] WAIT(120* ticks)
  2: 0x00DE [0x00] END_REQSTACK()
```

### Event 65535.13

#### Metadata

| Field        | Value    |
|--------------|----------|
| Entrypoint   | 0x00DF   |
| Data Size    | 28 bytes |
| Instructions | 8        |

```
      00 01 02 03 04 05 06 07  08 09 0A 0B 0C 0D 0E 0F
      -- -- -- -- -- -- -- --  -- -- -- -- -- -- -- --
00D0:                                               1C                 .
00E0: 13 80 32 14 80 1F 00 15  80 16 80 0A 80 1F 01 1F  ..2.............
00F0: 00 17 80 18 80 0A 80 1F  01 6F 00                 .........o.     
```

#### Opcodes

```
  0: 0x00DF [0x1C] WAIT(30* ticks)
  1: 0x00E2 [0x32] ExtData[1]->MainSpeed = 40* * 0.1
  2: 0x00E5 [0x1F] MOVE_ENTITY: EventEntity moves to X=-199.054*, Z=1.223*, Y=-9.998*
  3: 0x00ED [0x1F] MOVE_ENTITY: Update entity position (mode=1)
  4: 0x00EF [0x1F] MOVE_ENTITY: EventEntity moves to X=-197.807*, Z=11.206*, Y=-9.998*
  5: 0x00F7 [0x1F] MOVE_ENTITY: Update entity position (mode=1)
  6: 0x00F9 [0x6F] WAIT_FRAME_DELAY: Yield until WaitTime reaches zero
  7: 0x00FA [0x00] END_REQSTACK()
```

### Event 65535.14

#### Metadata

| Field        | Value    |
|--------------|----------|
| Entrypoint   | 0x00FB   |
| Data Size    | 19 bytes |
| Instructions | 5        |

```
      00 01 02 03 04 05 06 07  08 09 0A 0B 0C 0D 0E 0F
      -- -- -- -- -- -- -- --  -- -- -- -- -- -- -- --
00F0:                                   32 07 80 1F 00             2....
0100: 19 80 1A 80 1B 80 1F 01  1E 96 72 05 01 00        ..........r...  
```

#### Opcodes

```
  0: 0x00FB [0x32] ExtData[1]->MainSpeed = 13* * 0.1
  1: 0x00FE [0x1F] MOVE_ENTITY: EventEntity moves to X=89.104*, Z=10.461*, Y=-20.170*
  2: 0x0106 [0x1F] MOVE_ENTITY: Update entity position (mode=1)
  3: 0x0108 [0x1E] EventEntity looks at Bartholomaus (ID: 17134230/0x01057296) and starts talking
  4: 0x010D [0x00] END_REQSTACK()
```

### Event 65535.15

#### Metadata

| Field        | Value    |
|--------------|----------|
| Entrypoint   | 0x010E   |
| Data Size    | 19 bytes |
| Instructions | 5        |

```
      00 01 02 03 04 05 06 07  08 09 0A 0B 0C 0D 0E 0F
      -- -- -- -- -- -- -- --  -- -- -- -- -- -- -- --
0100:                                            32 07                2.
0110: 80 1F 00 1C 80 1D 80 1B  80 1F 01 1E 96 72 05 01  .............r..
0120: 00                                                .               
```

#### Opcodes

```
  0: 0x010E [0x32] ExtData[1]->MainSpeed = 13* * 0.1
  1: 0x0111 [0x1F] MOVE_ENTITY: EventEntity moves to X=95.367*, Z=10.240*, Y=-20.170*
  2: 0x0119 [0x1F] MOVE_ENTITY: Update entity position (mode=1)
  3: 0x011B [0x1E] EventEntity looks at Bartholomaus (ID: 17134230/0x01057296) and starts talking
  4: 0x0120 [0x00] END_REQSTACK()
```

### Event 65535.16

#### Metadata

| Field        | Value    |
|--------------|----------|
| Entrypoint   | 0x0121   |
| Data Size    | 19 bytes |
| Instructions | 5        |

```
      00 01 02 03 04 05 06 07  08 09 0A 0B 0C 0D 0E 0F
      -- -- -- -- -- -- -- --  -- -- -- -- -- -- -- --
0120:    7B 2F 72 05 01 32 07  80 1F 00 1E 80 1F 80 1B   {/r..2.........
0130: 80 1F 01 00                                       ....            
```

#### Opcodes

```
  0: 0x0121 [0x7B] Nicolaus (ID: 17134127/0x0105722F) stops talking
  1: 0x0126 [0x32] ExtData[1]->MainSpeed = 13* * 0.1
  2: 0x0129 [0x1F] MOVE_ENTITY: EventEntity moves to X=88.938*, Z=9.908*, Y=-20.170*
  3: 0x0131 [0x1F] MOVE_ENTITY: Update entity position (mode=1)
  4: 0x0133 [0x00] END_REQSTACK()
```

### Event 65535.17

#### Metadata

| Field        | Value    |
|--------------|----------|
| Entrypoint   | 0x0134   |
| Data Size    | 30 bytes |
| Instructions | 6        |

```
      00 01 02 03 04 05 06 07  08 09 0A 0B 0C 0D 0E 0F
      -- -- -- -- -- -- -- --  -- -- -- -- -- -- -- --
0130:             32 07 80 1F  00 20 80 21 80 06 80 1F      2.... .!....
0140: 01 6F 66 00 80 2F 72 05  01 2F 72 05 01 74 68 6B  .of../r../r..thk
0150: 31 00                                             1.              
```

#### Opcodes

```
  0: 0x0134 [0x32] ExtData[1]->MainSpeed = 13* * 0.1
  1: 0x0137 [0x1F] MOVE_ENTITY: EventEntity moves to X=93.299*, Z=14.298*, Y=-20.185*
  2: 0x013F [0x1F] MOVE_ENTITY: Update entity position (mode=1)
  3: 0x0141 [0x6F] WAIT_FRAME_DELAY: Yield until WaitTime reaches zero
  4: 0x0142 [0x66] LOAD_EXT_SCHEDULER_MAIN: Load scheduler "thk1" with entities [Nicolaus (ID: 17134127/0x0105722F), Nicolaus (ID: 17134127/0x0105722F)], work=0*
  5: 0x0151 [0x00] END_REQSTACK()
```

### Event 65535.18

#### Metadata

| Field        | Value    |
|--------------|----------|
| Entrypoint   | 0x0152   |
| Data Size    | 19 bytes |
| Instructions | 5        |

```
      00 01 02 03 04 05 06 07  08 09 0A 0B 0C 0D 0E 0F
      -- -- -- -- -- -- -- --  -- -- -- -- -- -- -- --
0150:       7B 2F 72 05 01 32  07 80 1F 00 22 80 23 80    {/r..2....".#.
0160: 1B 80 1F 01 00                                    .....           
```

#### Opcodes

```
  0: 0x0152 [0x7B] Nicolaus (ID: 17134127/0x0105722F) stops talking
  1: 0x0157 [0x32] ExtData[1]->MainSpeed = 13* * 0.1
  2: 0x015A [0x1F] MOVE_ENTITY: EventEntity moves to X=88.963*, Z=12.204*, Y=-20.170*
  3: 0x0162 [0x1F] MOVE_ENTITY: Update entity position (mode=1)
  4: 0x0164 [0x00] END_REQSTACK()
```

### Event 65535.19

#### Metadata

| Field        | Value    |
|--------------|----------|
| Entrypoint   | 0x0165   |
| Data Size    | 14 bytes |
| Instructions | 4        |

```
      00 01 02 03 04 05 06 07  08 09 0A 0B 0C 0D 0E 0F
      -- -- -- -- -- -- -- --  -- -- -- -- -- -- -- --
0160:                32 07 80  1F 00 24 80 25 80 1B 80       2....$.%...
0170: 1F 01 00                                          ...             
```

#### Opcodes

```
  0: 0x0165 [0x32] ExtData[1]->MainSpeed = 13* * 0.1
  1: 0x0168 [0x1F] MOVE_ENTITY: EventEntity moves to X=89.957*, Z=10.307*, Y=-20.170*
  2: 0x0170 [0x1F] MOVE_ENTITY: Update entity position (mode=1)
  3: 0x0172 [0x00] END_REQSTACK()
```

### Event 65535.20

#### Metadata

| Field        | Value    |
|--------------|----------|
| Entrypoint   | 0x0173   |
| Data Size    | 31 bytes |
| Instructions | 7        |

```
      00 01 02 03 04 05 06 07  08 09 0A 0B 0C 0D 0E 0F
      -- -- -- -- -- -- -- --  -- -- -- -- -- -- -- --
0170:          32 07 80 1F 00  26 80 27 80 1B 80 1F 01     2....&.'.....
0180: 1F 00 28 80 29 80 1B 80  1F 01 4B 2F 72 05 01 2A  ..(.).....K/r..*
0190: 80 00                                             ..              
```

#### Opcodes

```
  0: 0x0173 [0x32] ExtData[1]->MainSpeed = 13* * 0.1
  1: 0x0176 [0x1F] MOVE_ENTITY: EventEntity moves to X=89.451*, Z=9.356*, Y=-20.170*
  2: 0x017E [0x1F] MOVE_ENTITY: Update entity position (mode=1)
  3: 0x0180 [0x1F] MOVE_ENTITY: EventEntity moves to X=88.704*, Z=8.615*, Y=-20.170*
  4: 0x0188 [0x1F] MOVE_ENTITY: Update entity position (mode=1)
  5: 0x018A [0x4B] UPDATE_ENTITY_YAW(entity=Nicolaus (ID: 17134127/0x0105722F), yaw=5.8°*)
  6: 0x0191 [0x00] END_REQSTACK()
```

### Event 65535.21

#### Metadata

| Field        | Value    |
|--------------|----------|
| Entrypoint   | 0x0192   |
| Data Size    | 33 bytes |
| Instructions | 7        |

```
      00 01 02 03 04 05 06 07  08 09 0A 0B 0C 0D 0E 0F
      -- -- -- -- -- -- -- --  -- -- -- -- -- -- -- --
0190:       32 07 80 1F 00 2B  80 2C 80 1B 80 1F 01 4A    2....+.,.....J
01A0: F0 FF FF 7F 2F 72 05 01  1F 00 2D 80 2E 80 2F 80  ..../r....-.../.
01B0: 1F 01 00                                          ...             
```

#### Opcodes

```
  0: 0x0192 [0x32] ExtData[1]->MainSpeed = 13* * 0.1
  1: 0x0195 [0x1F] MOVE_ENTITY: EventEntity moves to X=88.686*, Z=8.623*, Y=-20.170*
  2: 0x019D [0x1F] MOVE_ENTITY: Update entity position (mode=1)
  3: 0x019F [0x4A] LocalPlayer looks at Nicolaus (ID: 17134127/0x0105722F)
  4: 0x01A8 [0x1F] MOVE_ENTITY: EventEntity moves to X=88.776*, Z=2.700*, Y=-19.532*
  5: 0x01B0 [0x1F] MOVE_ENTITY: Update entity position (mode=1)
  6: 0x01B2 [0x00] END_REQSTACK()
```
