# 17134004 - Volker

## Common Data

| Field            | Value                       |
|------------------|-----------------------------|
| Zone             | Bastok Markets [S] (ID: 87) |
| Block Size       | 916 bytes                   |
| Total Events     | 36                          |
| References Count | 57                          |

## List of Events

| Event ID                   | Entrypoint   |   Size |   Instructions |
|----------------------------|--------------|--------|----------------|
| [65535](#event-65535)      | 0x0000       |      1 |              1 |
| [101](#event-101)          | 0x0001       |      1 |              1 |
| [160](#event-160)          | 0x0002       |      7 |              2 |
| [65535.1](#event-655351)   | 0x0009       |     22 |              6 |
| [65535.2](#event-655352)   | 0x001F       |     14 |              4 |
| [65535.3](#event-655353)   | 0x002D       |     22 |              6 |
| [65535.4](#event-655354)   | 0x0043       |     19 |              5 |
| [16](#event-16)            | 0x0056       |      1 |              1 |
| [19](#event-19)            | 0x0057       |      1 |              1 |
| [65535.5](#event-655355)   | 0x0058       |     14 |              4 |
| [65535.6](#event-655356)   | 0x0066       |     41 |              5 |
| [65535.7](#event-655357)   | 0x008F       |     22 |              6 |
| [65535.8](#event-655358)   | 0x00A5       |     14 |              4 |
| [27](#event-27)            | 0x00B3       |      1 |              1 |
| [34](#event-34)            | 0x00B4       |      1 |              1 |
| [65535.9](#event-655359)   | 0x00B5       |     30 |              6 |
| [65535.10](#event-6553510) | 0x00D3       |     24 |              6 |
| [57](#event-57)            | 0x00EB       |      7 |              2 |
| [65535.11](#event-6553511) | 0x00F2       |     65 |             11 |
| [65535.12](#event-6553512) | 0x0133       |     14 |              4 |
| [60](#event-60)            | 0x0141       |      7 |              2 |
| [77](#event-77)            | 0x0148       |      7 |              2 |
| [65535.13](#event-6553513) | 0x014F       |     14 |              4 |
| [65535.14](#event-6553514) | 0x015D       |     14 |              4 |
| [65535.15](#event-6553515) | 0x016B       |     14 |              4 |
| [78](#event-78)            | 0x0179       |      7 |              2 |
| [65](#event-65)            | 0x0180       |      7 |              2 |
| [65535.16](#event-6553516) | 0x0187       |     50 |              8 |
| [184](#event-184)          | 0x01B9       |      1 |              1 |
| [71](#event-71)            | 0x01BA       |      7 |              2 |
| [65535.17](#event-6553517) | 0x01C1       |     25 |              7 |
| [211](#event-211)          | 0x01DA       |      5 |              2 |
| [65535.18](#event-6553518) | 0x01DF       |     14 |              4 |
| [65535.19](#event-6553519) | 0x01ED       |      5 |              2 |
| [216](#event-216)          | 0x01F2       |     11 |              3 |
| [65535.20](#event-6553520) | 0x01FD       |     19 |              5 |

## DAT References (imed_data)

|   Index | Hex Value   |   Dec Value |
|---------|-------------|-------------|
|       0 | 0x0028      |          40 |
|       1 | 0xFFFCEA60  |  4294765152 |
|       2 | 0xFFFFFE7B  |  4294966907 |
|       3 | 0xFFFFD8F2  |  4294957298 |
|       4 | 0x001E      |          30 |
|       5 | 0x000D      |          13 |
|       6 | 0xFFFCD302  |  4294759170 |
|       7 | 0xFFFFFFBF  |  4294967231 |
|       8 | 0xFFFFD814  |  4294957076 |
|       9 | 0xFFFFA7CE  |  4294944718 |
|      10 | 0xFFFFFAEF  |  4294965999 |
|      11 | 0xFFFFD8F1  |  4294957297 |
|      12 | 0xFFFFA54B  |  4294944075 |
|      13 | 0xFFFFF470  |  4294964336 |
|      14 | 0xFFFFD8F0  |  4294957296 |
|      15 | 0xFFFCF6C8  |  4294768328 |
|      16 | 0xFFFE76BC  |  4294866620 |
|      17 | 0xFFFFE891  |  4294961297 |
|      18 | 0x0574      |        1396 |
|      19 | 0xFFFCFA60  |  4294769248 |
|      20 | 0xFFFE7C09  |  4294867977 |
|      21 | 0xFFFCD86D  |  4294760557 |
|      22 | 0xFFFE5F77  |  4294860663 |
|      23 | 0x157F8     |       88056 |
|      24 | 0x0B17      |        2839 |
|      25 | 0xFFFFB3B4  |  4294947764 |
|      26 | 0x0575      |        1397 |
|      27 | 0x15B36     |       88886 |
|      28 | 0x270F      |        9999 |
|      29 | 0xFFFFB136  |  4294947126 |
|      30 | 0x0E05      |        3589 |
|      31 | 0x15AB7     |       88759 |
|      32 | 0x294C      |       10572 |
|      33 | 0x15A90     |       88720 |
|      34 | 0x23A3      |        9123 |
|      35 | 0xFFFC313F  |  4294717759 |
|      36 | 0xFFFEAF54  |  4294881108 |
|      37 | 0xFFFFD120  |  4294955296 |
|      38 | 0xFFFCF25C  |  4294767196 |
|      39 | 0xFFFFE72C  |  4294960940 |
|      40 | 0xFFFCF007  |  4294766599 |
|      41 | 0xFFFFBB6C  |  4294949740 |
|      42 | 0x1619A     |       90522 |
|      43 | 0x2B88      |       11144 |
|      44 | 0x00C8      |         200 |
|      45 | 0x1ACBB     |      109755 |
|      46 | 0xFFFFDA68  |  4294957672 |
|      47 | 0x1A7F8     |      108536 |
|      48 | 0xFFFFD47A  |  4294956154 |
|      49 | 0xFFFFB12E  |  4294947118 |
|      50 | 0x0963      |        2403 |
|      51 | 0x16035     |       90165 |
|      52 | 0x29ED      |       10733 |
|      53 | 0x08CC      |        2252 |
|      54 | 0x18753     |      100179 |
|      55 | 0x00B7      |         183 |
|      56 | 0xFFFFB12B  |  4294947115 |

## Events

### Event 65535

#### Metadata

| Field        | Value   |
|--------------|---------|
| Entrypoint   | 0x0000  |
| Data Size    | 1 bytes |
| Instructions | 1       |

```
      00 01 02 03 04 05 06 07  08 09 0A 0B 0C 0D 0E 0F
      -- -- -- -- -- -- -- --  -- -- -- -- -- -- -- --
0000: 00                                                .               
```

#### Opcodes

```
  0: 0x0000 [0x00] END_REQSTACK()
```

### Event 101

#### Metadata

| Field        | Value   |
|--------------|---------|
| Entrypoint   | 0x0001  |
| Data Size    | 1 bytes |
| Instructions | 1       |

```
      00 01 02 03 04 05 06 07  08 09 0A 0B 0C 0D 0E 0F
      -- -- -- -- -- -- -- --  -- -- -- -- -- -- -- --
0000:    00                                              .              
```

#### Opcodes

```
  0: 0x0001 [0x00] END_REQSTACK()
```

### Event 160

#### Metadata

| Field        | Value   |
|--------------|---------|
| Entrypoint   | 0x0002  |
| Data Size    | 7 bytes |
| Instructions | 2       |

```
      00 01 02 03 04 05 06 07  08 09 0A 0B 0C 0D 0E 0F
      -- -- -- -- -- -- -- --  -- -- -- -- -- -- -- --
0000:       92 01 F8 FF FF 7F  00                         .......       
```

#### Opcodes

```
  0: 0x0002 [0x92] EventEntity->Render.Flags3 ^= 0x01
  1: 0x0008 [0x00] END_REQSTACK()
```

### Event 65535.1

#### Metadata

| Field        | Value    |
|--------------|----------|
| Entrypoint   | 0x0009   |
| Data Size    | 22 bytes |
| Instructions | 6        |

```
      00 01 02 03 04 05 06 07  08 09 0A 0B 0C 0D 0E 0F
      -- -- -- -- -- -- -- --  -- -- -- -- -- -- -- --
0000:                             32 00 80 1F 00 01 80           2......
0010: 02 80 03 80 1F 01 1E D7  71 05 01 1C 04 80 00     ........q...... 
```

#### Opcodes

```
  0: 0x0009 [0x32] ExtData[1]->MainSpeed = 40* * 0.1
  1: 0x000C [0x1F] MOVE_ENTITY: EventEntity moves to X=-202.144*, Z=-0.389*, Y=-9.998*
  2: 0x0014 [0x1F] MOVE_ENTITY: Update entity position (mode=1)
  3: 0x0016 [0x1E] EventEntity looks at Gentle Tiger (ID: 17134039/0x010571D7) and starts talking
  4: 0x001B [0x1C] WAIT(30* ticks)
  5: 0x001E [0x00] END_REQSTACK()
```

### Event 65535.2

#### Metadata

| Field        | Value    |
|--------------|----------|
| Entrypoint   | 0x001F   |
| Data Size    | 14 bytes |
| Instructions | 4        |

```
      00 01 02 03 04 05 06 07  08 09 0A 0B 0C 0D 0E 0F
      -- -- -- -- -- -- -- --  -- -- -- -- -- -- -- --
0010:                                               32                 2
0020: 05 80 1F 00 06 80 07 80  08 80 1F 01 00           .............   
```

#### Opcodes

```
  0: 0x001F [0x32] ExtData[1]->MainSpeed = 13* * 0.1
  1: 0x0022 [0x1F] MOVE_ENTITY: EventEntity moves to X=-208.126*, Z=-0.065*, Y=-10.220*
  2: 0x002A [0x1F] MOVE_ENTITY: Update entity position (mode=1)
  3: 0x002C [0x00] END_REQSTACK()
```

### Event 65535.3

#### Metadata

| Field        | Value    |
|--------------|----------|
| Entrypoint   | 0x002D   |
| Data Size    | 22 bytes |
| Instructions | 6        |

```
      00 01 02 03 04 05 06 07  08 09 0A 0B 0C 0D 0E 0F
      -- -- -- -- -- -- -- --  -- -- -- -- -- -- -- --
0020:                                         32 00 80               2..
0030: 1F 00 09 80 0A 80 0B 80  1F 01 1E CC 71 05 01 1C  ............q...
0040: 04 80 00                                          ...             
```

#### Opcodes

```
  0: 0x002D [0x32] ExtData[1]->MainSpeed = 40* * 0.1
  1: 0x0030 [0x1F] MOVE_ENTITY: EventEntity moves to X=-22.578*, Z=-1.297*, Y=-9.999*
  2: 0x0038 [0x1F] MOVE_ENTITY: Update entity position (mode=1)
  3: 0x003A [0x1E] EventEntity looks at Werner (ID: 17134028/0x010571CC) and starts talking
  4: 0x003F [0x1C] WAIT(30* ticks)
  5: 0x0042 [0x00] END_REQSTACK()
```

### Event 65535.4

#### Metadata

| Field        | Value    |
|--------------|----------|
| Entrypoint   | 0x0043   |
| Data Size    | 19 bytes |
| Instructions | 5        |

```
      00 01 02 03 04 05 06 07  08 09 0A 0B 0C 0D 0E 0F
      -- -- -- -- -- -- -- --  -- -- -- -- -- -- -- --
0040:          32 05 80 1F 00  0C 80 0D 80 0E 80 1F 01     2............
0050: 1E F2 71 05 01 00                                 ..q...          
```

#### Opcodes

```
  0: 0x0043 [0x32] ExtData[1]->MainSpeed = 13* * 0.1
  1: 0x0046 [0x1F] MOVE_ENTITY: EventEntity moves to X=-23.221*, Z=-2.960*, Y=-10.000*
  2: 0x004E [0x1F] MOVE_ENTITY: Update entity position (mode=1)
  3: 0x0050 [0x1E] EventEntity looks at Klara (ID: 17134066/0x010571F2) and starts talking
  4: 0x0055 [0x00] END_REQSTACK()
```

### Event 16

#### Metadata

| Field        | Value   |
|--------------|---------|
| Entrypoint   | 0x0056  |
| Data Size    | 1 bytes |
| Instructions | 1       |

```
      00 01 02 03 04 05 06 07  08 09 0A 0B 0C 0D 0E 0F
      -- -- -- -- -- -- -- --  -- -- -- -- -- -- -- --
0050:                   00                                    .         
```

#### Opcodes

```
  0: 0x0056 [0x00] END_REQSTACK()
```

### Event 19

#### Metadata

| Field        | Value   |
|--------------|---------|
| Entrypoint   | 0x0057  |
| Data Size    | 1 bytes |
| Instructions | 1       |

```
      00 01 02 03 04 05 06 07  08 09 0A 0B 0C 0D 0E 0F
      -- -- -- -- -- -- -- --  -- -- -- -- -- -- -- --
0050:                      00                                  .        
```

#### Opcodes

```
  0: 0x0057 [0x00] END_REQSTACK()
```

### Event 65535.5

#### Metadata

| Field        | Value    |
|--------------|----------|
| Entrypoint   | 0x0058   |
| Data Size    | 14 bytes |
| Instructions | 4        |

```
      00 01 02 03 04 05 06 07  08 09 0A 0B 0C 0D 0E 0F
      -- -- -- -- -- -- -- --  -- -- -- -- -- -- -- --
0050:                          32 05 80 1F 00 0F 80 10          2.......
0060: 80 11 80 1F 01 00                                 ......          
```

#### Opcodes

```
  0: 0x0058 [0x32] ExtData[1]->MainSpeed = 13* * 0.1
  1: 0x005B [0x1F] MOVE_ENTITY: EventEntity moves to X=-198.968*, Z=-100.676*, Y=-5.999*
  2: 0x0063 [0x1F] MOVE_ENTITY: Update entity position (mode=1)
  3: 0x0065 [0x00] END_REQSTACK()
```

### Event 65535.6

#### Metadata

| Field        | Value    |
|--------------|----------|
| Entrypoint   | 0x0066   |
| Data Size    | 41 bytes |
| Instructions | 5        |

```
      00 01 02 03 04 05 06 07  08 09 0A 0B 0C 0D 0E 0F
      -- -- -- -- -- -- -- --  -- -- -- -- -- -- -- --
0060:                   5B 12  80 B4 71 05 01 B4 71 05        [...q...q.
0070: 01 72 65 69 31 53 B4 71  05 01 B4 71 05 01 72 65  .rei1S.q...q..re
0080: 69 31 4A B4 71 05 01 F0  FF FF 7F 1C 04 80 00     i1J.q.......... 
```

#### Opcodes

```
  0: 0x0066 [0x5B] LOAD_EXT_SCHEDULER: Load scheduler "rei1" with entities [Volker (ID: 17134004/0x010571B4), Volker (ID: 17134004/0x010571B4)], work=1396*
  1: 0x0075 [0x53] WAIT_SCHEDULER_TASK: Wait for scheduler "rei1" with entities [Volker (ID: 17134004/0x010571B4), Volker (ID: 17134004/0x010571B4)]
  2: 0x0082 [0x4A] Volker (ID: 17134004/0x010571B4) looks at LocalPlayer
  3: 0x008B [0x1C] WAIT(30* ticks)
  4: 0x008E [0x00] END_REQSTACK()
```

### Event 65535.7

#### Metadata

| Field        | Value    |
|--------------|----------|
| Entrypoint   | 0x008F   |
| Data Size    | 22 bytes |
| Instructions | 6        |

```
      00 01 02 03 04 05 06 07  08 09 0A 0B 0C 0D 0E 0F
      -- -- -- -- -- -- -- --  -- -- -- -- -- -- -- --
0080:                                               32                 2
0090: 05 80 1F 00 13 80 14 80  11 80 1F 01 1E F0 FF FF  ................
00A0: 7F 1C 04 80 00                                    .....           
```

#### Opcodes

```
  0: 0x008F [0x32] ExtData[1]->MainSpeed = 13* * 0.1
  1: 0x0092 [0x1F] MOVE_ENTITY: EventEntity moves to X=-198.048*, Z=-99.319*, Y=-5.999*
  2: 0x009A [0x1F] MOVE_ENTITY: Update entity position (mode=1)
  3: 0x009C [0x1E] EventEntity looks at LocalPlayer and starts talking
  4: 0x00A1 [0x1C] WAIT(30* ticks)
  5: 0x00A4 [0x00] END_REQSTACK()
```

### Event 65535.8

#### Metadata

| Field        | Value    |
|--------------|----------|
| Entrypoint   | 0x00A5   |
| Data Size    | 14 bytes |
| Instructions | 4        |

```
      00 01 02 03 04 05 06 07  08 09 0A 0B 0C 0D 0E 0F
      -- -- -- -- -- -- -- --  -- -- -- -- -- -- -- --
00A0:                32 00 80  1F 00 15 80 16 80 11 80       2..........
00B0: 1F 01 00                                          ...             
```

#### Opcodes

```
  0: 0x00A5 [0x32] ExtData[1]->MainSpeed = 40* * 0.1
  1: 0x00A8 [0x1F] MOVE_ENTITY: EventEntity moves to X=-206.739*, Z=-106.633*, Y=-5.999*
  2: 0x00B0 [0x1F] MOVE_ENTITY: Update entity position (mode=1)
  3: 0x00B2 [0x00] END_REQSTACK()
```

### Event 27

#### Metadata

| Field        | Value   |
|--------------|---------|
| Entrypoint   | 0x00B3  |
| Data Size    | 1 bytes |
| Instructions | 1       |

```
      00 01 02 03 04 05 06 07  08 09 0A 0B 0C 0D 0E 0F
      -- -- -- -- -- -- -- --  -- -- -- -- -- -- -- --
00B0:          00                                          .            
```

#### Opcodes

```
  0: 0x00B3 [0x00] END_REQSTACK()
```

### Event 34

#### Metadata

| Field        | Value   |
|--------------|---------|
| Entrypoint   | 0x00B4  |
| Data Size    | 1 bytes |
| Instructions | 1       |

```
      00 01 02 03 04 05 06 07  08 09 0A 0B 0C 0D 0E 0F
      -- -- -- -- -- -- -- --  -- -- -- -- -- -- -- --
00B0:             00                                        .           
```

#### Opcodes

```
  0: 0x00B4 [0x00] END_REQSTACK()
```

### Event 65535.9

#### Metadata

| Field        | Value    |
|--------------|----------|
| Entrypoint   | 0x00B5   |
| Data Size    | 30 bytes |
| Instructions | 6        |

```
      00 01 02 03 04 05 06 07  08 09 0A 0B 0C 0D 0E 0F
      -- -- -- -- -- -- -- --  -- -- -- -- -- -- -- --
00B0:                32 05 80  1F 00 17 80 18 80 19 80       2..........
00C0: 1F 01 6F 5B 1A 80 B4 71  05 01 B4 71 05 01 74 73  ..o[...q...q..ts
00D0: 6B 31 00                                          k1.             
```

#### Opcodes

```
  0: 0x00B5 [0x32] ExtData[1]->MainSpeed = 13* * 0.1
  1: 0x00B8 [0x1F] MOVE_ENTITY: EventEntity moves to X=88.056*, Z=2.839*, Y=-19.532*
  2: 0x00C0 [0x1F] MOVE_ENTITY: Update entity position (mode=1)
  3: 0x00C2 [0x6F] WAIT_FRAME_DELAY: Yield until WaitTime reaches zero
  4: 0x00C3 [0x5B] LOAD_EXT_SCHEDULER: Load scheduler "tsk1" with entities [Volker (ID: 17134004/0x010571B4), Volker (ID: 17134004/0x010571B4)], work=1397*
  5: 0x00D2 [0x00] END_REQSTACK()
```

### Event 65535.10

#### Metadata

| Field        | Value    |
|--------------|----------|
| Entrypoint   | 0x00D3   |
| Data Size    | 24 bytes |
| Instructions | 6        |

```
      00 01 02 03 04 05 06 07  08 09 0A 0B 0C 0D 0E 0F
      -- -- -- -- -- -- -- --  -- -- -- -- -- -- -- --
00D0:          32 05 80 1F 00  1B 80 1C 80 1D 80 1F 01     2............
00E0: 1C 04 80 4B B4 71 05 01  1E 80 00                 ...K.q.....     
```

#### Opcodes

```
  0: 0x00D3 [0x32] ExtData[1]->MainSpeed = 13* * 0.1
  1: 0x00D6 [0x1F] MOVE_ENTITY: EventEntity moves to X=88.886*, Z=9.999*, Y=-20.170*
  2: 0x00DE [0x1F] MOVE_ENTITY: Update entity position (mode=1)
  3: 0x00E0 [0x1C] WAIT(30* ticks)
  4: 0x00E3 [0x4B] UPDATE_ENTITY_YAW(entity=Volker (ID: 17134004/0x010571B4), yaw=19.7°*)
  5: 0x00EA [0x00] END_REQSTACK()
```

### Event 57

#### Metadata

| Field        | Value   |
|--------------|---------|
| Entrypoint   | 0x00EB  |
| Data Size    | 7 bytes |
| Instructions | 2       |

```
      00 01 02 03 04 05 06 07  08 09 0A 0B 0C 0D 0E 0F
      -- -- -- -- -- -- -- --  -- -- -- -- -- -- -- --
00E0:                                   92 01 F8 FF FF             .....
00F0: 7F 00                                             ..              
```

#### Opcodes

```
  0: 0x00EB [0x92] EventEntity->Render.Flags3 ^= 0x01
  1: 0x00F1 [0x00] END_REQSTACK()
```

### Event 65535.11

#### Metadata

| Field        | Value    |
|--------------|----------|
| Entrypoint   | 0x00F2   |
| Data Size    | 65 bytes |
| Instructions | 11       |

```
      00 01 02 03 04 05 06 07  08 09 0A 0B 0C 0D 0E 0F
      -- -- -- -- -- -- -- --  -- -- -- -- -- -- -- --
00F0:       32 00 80 1F 00 1F  80 20 80 1D 80 1F 01 27    2...... .....'
0100: 05 41 72 05 01 04 1E F2  71 05 01 4A F2 71 05 01  .Ar.....q..J.q..
0110: B4 71 05 01 4A F3 71 05  01 B4 71 05 01 4A B3 71  .q..J.q...q..J.q
0120: 05 01 B4 71 05 01 4A F0  FF FF 7F B4 71 05 01 1C  ...q..J.....q...
0130: 04 80 00                                          ...             
```

#### Opcodes

```
  0: 0x00F2 [0x32] ExtData[1]->MainSpeed = 40* * 0.1
  1: 0x00F5 [0x1F] MOVE_ENTITY: EventEntity moves to X=88.759*, Z=10.572*, Y=-20.170*
  2: 0x00FD [0x1F] MOVE_ENTITY: Update entity position (mode=1)
  3: 0x00FF [0x27] REQ_SET(priority=0x05, entity_id=Unnamed NPC (ID: 17134145/0x01057241), tag_num=0x04)
  4: 0x0106 [0x1E] EventEntity looks at Klara (ID: 17134066/0x010571F2) and starts talking
  5: 0x010B [0x4A] Klara (ID: 17134066/0x010571F2) looks at Volker (ID: 17134004/0x010571B4)
  6: 0x0114 [0x4A] Nicolaus (ID: 17134067/0x010571F3) looks at Volker (ID: 17134004/0x010571B4)
  7: 0x011D [0x4A] Zeid (ID: 17134003/0x010571B3) looks at Volker (ID: 17134004/0x010571B4)
  8: 0x0126 [0x4A] LocalPlayer looks at Volker (ID: 17134004/0x010571B4)
  9: 0x012F [0x1C] WAIT(30* ticks)
 10: 0x0132 [0x00] END_REQSTACK()
```

### Event 65535.12

#### Metadata

| Field        | Value    |
|--------------|----------|
| Entrypoint   | 0x0133   |
| Data Size    | 14 bytes |
| Instructions | 4        |

```
      00 01 02 03 04 05 06 07  08 09 0A 0B 0C 0D 0E 0F
      -- -- -- -- -- -- -- --  -- -- -- -- -- -- -- --
0130:          32 00 80 1F 00  21 80 22 80 1D 80 1F 01     2....!.".....
0140: 00                                                .               
```

#### Opcodes

```
  0: 0x0133 [0x32] ExtData[1]->MainSpeed = 40* * 0.1
  1: 0x0136 [0x1F] MOVE_ENTITY: EventEntity moves to X=88.720*, Z=9.123*, Y=-20.170*
  2: 0x013E [0x1F] MOVE_ENTITY: Update entity position (mode=1)
  3: 0x0140 [0x00] END_REQSTACK()
```

### Event 60

#### Metadata

| Field        | Value   |
|--------------|---------|
| Entrypoint   | 0x0141  |
| Data Size    | 7 bytes |
| Instructions | 2       |

```
      00 01 02 03 04 05 06 07  08 09 0A 0B 0C 0D 0E 0F
      -- -- -- -- -- -- -- --  -- -- -- -- -- -- -- --
0140:    92 01 F8 FF FF 7F 00                            .......        
```

#### Opcodes

```
  0: 0x0141 [0x92] EventEntity->Render.Flags3 ^= 0x01
  1: 0x0147 [0x00] END_REQSTACK()
```

### Event 77

#### Metadata

| Field        | Value   |
|--------------|---------|
| Entrypoint   | 0x0148  |
| Data Size    | 7 bytes |
| Instructions | 2       |

```
      00 01 02 03 04 05 06 07  08 09 0A 0B 0C 0D 0E 0F
      -- -- -- -- -- -- -- --  -- -- -- -- -- -- -- --
0140:                          92 01 F8 FF FF 7F 00             ....... 
```

#### Opcodes

```
  0: 0x0148 [0x92] EventEntity->Render.Flags3 ^= 0x01
  1: 0x014E [0x00] END_REQSTACK()
```

### Event 65535.13

#### Metadata

| Field        | Value    |
|--------------|----------|
| Entrypoint   | 0x014F   |
| Data Size    | 14 bytes |
| Instructions | 4        |

```
      00 01 02 03 04 05 06 07  08 09 0A 0B 0C 0D 0E 0F
      -- -- -- -- -- -- -- --  -- -- -- -- -- -- -- --
0140:                                               32                 2
0150: 00 80 1F 00 23 80 24 80  25 80 1F 01 00           ....#.$.%....   
```

#### Opcodes

```
  0: 0x014F [0x32] ExtData[1]->MainSpeed = 40* * 0.1
  1: 0x0152 [0x1F] MOVE_ENTITY: EventEntity moves to X=-249.537*, Z=-86.188*, Y=-12.000*
  2: 0x015A [0x1F] MOVE_ENTITY: Update entity position (mode=1)
  3: 0x015C [0x00] END_REQSTACK()
```

### Event 65535.14

#### Metadata

| Field        | Value    |
|--------------|----------|
| Entrypoint   | 0x015D   |
| Data Size    | 14 bytes |
| Instructions | 4        |

```
      00 01 02 03 04 05 06 07  08 09 0A 0B 0C 0D 0E 0F
      -- -- -- -- -- -- -- --  -- -- -- -- -- -- -- --
0150:                                         32 00 80               2..
0160: 1F 00 26 80 27 80 03 80  1F 01 00                 ..&.'......     
```

#### Opcodes

```
  0: 0x015D [0x32] ExtData[1]->MainSpeed = 40* * 0.1
  1: 0x0160 [0x1F] MOVE_ENTITY: EventEntity moves to X=-200.100*, Z=-6.356*, Y=-9.998*
  2: 0x0168 [0x1F] MOVE_ENTITY: Update entity position (mode=1)
  3: 0x016A [0x00] END_REQSTACK()
```

### Event 65535.15

#### Metadata

| Field        | Value    |
|--------------|----------|
| Entrypoint   | 0x016B   |
| Data Size    | 14 bytes |
| Instructions | 4        |

```
      00 01 02 03 04 05 06 07  08 09 0A 0B 0C 0D 0E 0F
      -- -- -- -- -- -- -- --  -- -- -- -- -- -- -- --
0160:                                   32 00 80 1F 00             2....
0170: 28 80 29 80 0B 80 1F 01  00                       (.)......       
```

#### Opcodes

```
  0: 0x016B [0x32] ExtData[1]->MainSpeed = 40* * 0.1
  1: 0x016E [0x1F] MOVE_ENTITY: EventEntity moves to X=-200.697*, Z=-17.556*, Y=-9.999*
  2: 0x0176 [0x1F] MOVE_ENTITY: Update entity position (mode=1)
  3: 0x0178 [0x00] END_REQSTACK()
```

### Event 78

#### Metadata

| Field        | Value   |
|--------------|---------|
| Entrypoint   | 0x0179  |
| Data Size    | 7 bytes |
| Instructions | 2       |

```
      00 01 02 03 04 05 06 07  08 09 0A 0B 0C 0D 0E 0F
      -- -- -- -- -- -- -- --  -- -- -- -- -- -- -- --
0170:                             92 01 F8 FF FF 7F 00           .......
```

#### Opcodes

```
  0: 0x0179 [0x92] EventEntity->Render.Flags3 ^= 0x01
  1: 0x017F [0x00] END_REQSTACK()
```

### Event 65

#### Metadata

| Field        | Value   |
|--------------|---------|
| Entrypoint   | 0x0180  |
| Data Size    | 7 bytes |
| Instructions | 2       |

```
      00 01 02 03 04 05 06 07  08 09 0A 0B 0C 0D 0E 0F
      -- -- -- -- -- -- -- --  -- -- -- -- -- -- -- --
0180: 92 01 F8 FF FF 7F 00                              .......         
```

#### Opcodes

```
  0: 0x0180 [0x92] EventEntity->Render.Flags3 ^= 0x01
  1: 0x0186 [0x00] END_REQSTACK()
```

### Event 65535.16

#### Metadata

| Field        | Value    |
|--------------|----------|
| Entrypoint   | 0x0187   |
| Data Size    | 50 bytes |
| Instructions | 8        |

```
      00 01 02 03 04 05 06 07  08 09 0A 0B 0C 0D 0E 0F
      -- -- -- -- -- -- -- --  -- -- -- -- -- -- -- --
0180:                      32  05 80 1F 00 2A 80 2B 80         2....*.+.
0190: 1D 80 1F 01 1E F0 FF FF  7F 1C 04 80 5B 2C 80 B4  ............[,..
01A0: 71 05 01 B4 71 05 01 74  73 61 30 53 B4 71 05 01  q...q..tsa0S.q..
01B0: B4 71 05 01 74 73 61 30  00                       .q..tsa0.       
```

#### Opcodes

```
  0: 0x0187 [0x32] ExtData[1]->MainSpeed = 13* * 0.1
  1: 0x018A [0x1F] MOVE_ENTITY: EventEntity moves to X=90.522*, Z=11.144*, Y=-20.170*
  2: 0x0192 [0x1F] MOVE_ENTITY: Update entity position (mode=1)
  3: 0x0194 [0x1E] EventEntity looks at LocalPlayer and starts talking
  4: 0x0199 [0x1C] WAIT(30* ticks)
  5: 0x019C [0x5B] LOAD_EXT_SCHEDULER: Load scheduler "tsa0" with entities [Volker (ID: 17134004/0x010571B4), Volker (ID: 17134004/0x010571B4)], work=200*
  6: 0x01AB [0x53] WAIT_SCHEDULER_TASK: Wait for scheduler "tsa0" with entities [Volker (ID: 17134004/0x010571B4), Volker (ID: 17134004/0x010571B4)]
  7: 0x01B8 [0x00] END_REQSTACK()
```

### Event 184

#### Metadata

| Field        | Value   |
|--------------|---------|
| Entrypoint   | 0x01B9  |
| Data Size    | 1 bytes |
| Instructions | 1       |

```
      00 01 02 03 04 05 06 07  08 09 0A 0B 0C 0D 0E 0F
      -- -- -- -- -- -- -- --  -- -- -- -- -- -- -- --
01B0:                             00                             .      
```

#### Opcodes

```
  0: 0x01B9 [0x00] END_REQSTACK()
```

### Event 71

#### Metadata

| Field        | Value   |
|--------------|---------|
| Entrypoint   | 0x01BA  |
| Data Size    | 7 bytes |
| Instructions | 2       |

```
      00 01 02 03 04 05 06 07  08 09 0A 0B 0C 0D 0E 0F
      -- -- -- -- -- -- -- --  -- -- -- -- -- -- -- --
01B0:                                92 01 F8 FF FF 7F            ......
01C0: 00                                                .               
```

#### Opcodes

```
  0: 0x01BA [0x92] EventEntity->Render.Flags3 ^= 0x01
  1: 0x01C0 [0x00] END_REQSTACK()
```

### Event 65535.17

#### Metadata

| Field        | Value    |
|--------------|----------|
| Entrypoint   | 0x01C1   |
| Data Size    | 25 bytes |
| Instructions | 7        |

```
      00 01 02 03 04 05 06 07  08 09 0A 0B 0C 0D 0E 0F
      -- -- -- -- -- -- -- --  -- -- -- -- -- -- -- --
01C0:    32 00 80 1F 00 2D 80  2E 80 1D 80 1F 01 1F 00   2....-.........
01D0: 2F 80 30 80 31 80 1F 01  6F 00                    /.0.1...o.      
```

#### Opcodes

```
  0: 0x01C1 [0x32] ExtData[1]->MainSpeed = 40* * 0.1
  1: 0x01C4 [0x1F] MOVE_ENTITY: EventEntity moves to X=109.755*, Z=-9.624*, Y=-20.170*
  2: 0x01CC [0x1F] MOVE_ENTITY: Update entity position (mode=1)
  3: 0x01CE [0x1F] MOVE_ENTITY: EventEntity moves to X=108.536*, Z=-11.142*, Y=-20.178*
  4: 0x01D6 [0x1F] MOVE_ENTITY: Update entity position (mode=1)
  5: 0x01D8 [0x6F] WAIT_FRAME_DELAY: Yield until WaitTime reaches zero
  6: 0x01D9 [0x00] END_REQSTACK()
```

### Event 211

#### Metadata

| Field        | Value   |
|--------------|---------|
| Entrypoint   | 0x01DA  |
| Data Size    | 5 bytes |
| Instructions | 2       |

```
      00 01 02 03 04 05 06 07  08 09 0A 0B 0C 0D 0E 0F
      -- -- -- -- -- -- -- --  -- -- -- -- -- -- -- --
01D0:                                B6 00 32 80 00               ..2.. 
```

#### Opcodes

```
  0: 0x01DA [0xB6] ENTITY_APPEARANCE_HANDLER(case=Hair style, value=2403*)
  1: 0x01DE [0x00] END_REQSTACK()
```

### Event 65535.18

#### Metadata

| Field        | Value    |
|--------------|----------|
| Entrypoint   | 0x01DF   |
| Data Size    | 14 bytes |
| Instructions | 4        |

```
      00 01 02 03 04 05 06 07  08 09 0A 0B 0C 0D 0E 0F
      -- -- -- -- -- -- -- --  -- -- -- -- -- -- -- --
01D0:                                               32                 2
01E0: 05 80 1F 00 33 80 34 80  1D 80 1F 01 00           ....3.4......   
```

#### Opcodes

```
  0: 0x01DF [0x32] ExtData[1]->MainSpeed = 13* * 0.1
  1: 0x01E2 [0x1F] MOVE_ENTITY: EventEntity moves to X=90.165*, Z=10.733*, Y=-20.170*
  2: 0x01EA [0x1F] MOVE_ENTITY: Update entity position (mode=1)
  3: 0x01EC [0x00] END_REQSTACK()
```

### Event 65535.19

#### Metadata

| Field        | Value   |
|--------------|---------|
| Entrypoint   | 0x01ED  |
| Data Size    | 5 bytes |
| Instructions | 2       |

```
      00 01 02 03 04 05 06 07  08 09 0A 0B 0C 0D 0E 0F
      -- -- -- -- -- -- -- --  -- -- -- -- -- -- -- --
01E0:                                         B6 00 35               ..5
01F0: 80 00                                             ..              
```

#### Opcodes

```
  0: 0x01ED [0xB6] ENTITY_APPEARANCE_HANDLER(case=Hair style, value=2252*)
  1: 0x01F1 [0x00] END_REQSTACK()
```

### Event 216

#### Metadata

| Field        | Value    |
|--------------|----------|
| Entrypoint   | 0x01F2   |
| Data Size    | 11 bytes |
| Instructions | 3        |

```
      00 01 02 03 04 05 06 07  08 09 0A 0B 0C 0D 0E 0F
      -- -- -- -- -- -- -- --  -- -- -- -- -- -- -- --
01F0:       92 01 F8 FF FF 7F  B6 00 32 80 00             ........2..   
```

#### Opcodes

```
  0: 0x01F2 [0x92] EventEntity->Render.Flags3 ^= 0x01
  1: 0x01F8 [0xB6] ENTITY_APPEARANCE_HANDLER(case=Hair style, value=2403*)
  2: 0x01FC [0x00] END_REQSTACK()
```

### Event 65535.20

#### Metadata

| Field        | Value    |
|--------------|----------|
| Entrypoint   | 0x01FD   |
| Data Size    | 19 bytes |
| Instructions | 5        |

```
      00 01 02 03 04 05 06 07  08 09 0A 0B 0C 0D 0E 0F
      -- -- -- -- -- -- -- --  -- -- -- -- -- -- -- --
01F0:                                         32 05 80               2..
0200: 1F 00 36 80 37 80 38 80  1F 01 1E F1 71 05 01 00  ..6.7.8.....q...
```

#### Opcodes

```
  0: 0x01FD [0x32] ExtData[1]->MainSpeed = 13* * 0.1
  1: 0x0200 [0x1F] MOVE_ENTITY: EventEntity moves to X=100.179*, Z=0.183*, Y=-20.181*
  2: 0x0208 [0x1F] MOVE_ENTITY: Update entity position (mode=1)
  3: 0x020A [0x1E] EventEntity looks at Prien (ID: 17134065/0x010571F1) and starts talking
  4: 0x020F [0x00] END_REQSTACK()
```
