# 17134002 - TGS_087

## Common Data

| Field            | Value                       |
|------------------|-----------------------------|
| Zone             | Bastok Markets [S] (ID: 87) |
| Block Size       | 204 bytes                   |
| Total Events     | 2                           |
| References Count | 9                           |

## List of Events

| Event ID              | Entrypoint   |   Size |   Instructions |
|-----------------------|--------------|--------|----------------|
| [65535](#event-65535) | 0x0000       |      1 |              1 |
| [100](#event-100)     | 0x0001       |    142 |             24 |

## DAT References (imed_data)

|   Index | Hex Value   |   Dec Value |
|---------|-------------|-------------|
|       0 | 0x00C8      |         200 |
|       1 | 0x0000      |           0 |
|       2 | 0x003C      |          60 |
|       3 | 0x0011      |          17 |
|       4 | 0x0001      |           1 |
|       5 | 0x0013      |          19 |
|       6 | 0x2A50      |       10832 |
|       7 | 0x0155      |         341 |
|       8 | 0x0384      |         900 |

## String References

- **10832**: Prest confirm button to start.

## Events

### Event 65535

#### Metadata

| Field        | Value   |
|--------------|---------|
| Entrypoint   | 0x0000  |
| Data Size    | 1 bytes |
| Instructions | 1       |

```
      00 01 02 03 04 05 06 07  08 09 0A 0B 0C 0D 0E 0F
      -- -- -- -- -- -- -- --  -- -- -- -- -- -- -- --
0000: 00                                                .               
```

#### Opcodes

```
  0: 0x0000 [0x00] END_REQSTACK()
```

### Event 100

#### Metadata

| Field        | Value     |
|--------------|-----------|
| Entrypoint   | 0x0001    |
| Data Size    | 142 bytes |
| Instructions | 24        |

```
      00 01 02 03 04 05 06 07  08 09 0A 0B 0C 0D 0E 0F
      -- -- -- -- -- -- -- --  -- -- -- -- -- -- -- --
0000:    20 01 42 46 01 45 00  80 F0 FF FF 7F F0 FF FF    .BF.E.........
0010: 7F 66 64 6F 31 01 80 1C  02 80 77 03 80 04 80 38  .fdo1.....w....8
0020: 05 80 45 00 80 F0 FF FF  7F F0 FF FF 7F 66 64 69  ..E..........fdi
0030: 31 01 80 1C 02 80 48 06  80 23 67 01 80 01 80 45  1.....H..#g....E
0040: 07 80 F0 FF FF 7F F0 FF  FF 7F 74 67 73 37 01 80  ..........tgs7..
0050: 1C 08 80 45 00 80 F0 FF  FF 7F F0 FF FF 7F 66 64  ...E..........fd
0060: 6F 31 01 80 1C 02 80 52  07 80 F0 FF FF 7F F0 FF  o1.....R........
0070: FF 7F 74 67 73 37 78 68  46 00 45 00 80 F0 FF FF  ..tgs7xhF.E.....
0080: 7F F0 FF FF 7F 66 64 69  31 01 80 20 00 21 00     .....fdi1.. .!. 
```

#### Opcodes

```
  0: 0x0001 [0x20] SET_CLI_EVENT_UC_FLAG: Lock player control
  1: 0x0003 [0x42] SET_CLI_EVENT_CANCEL_DATA()
  2: 0x0004 [0x46] CAMERA_CONTROL: Disable user control
  3: 0x0006 [0x45] LOAD_SCHEDULED_TASK: Load scheduler "fdo1" with entities [LocalPlayer, LocalPlayer], work=[200*, 0*]
  4: 0x0017 [0x1C] WAIT(60* ticks)
  5: 0x001A [0x77] SET_EVENT_TIME_WEATHER(hour=17*, weather=1*)
  6: 0x001F [0x38] SET_CLIENT_EVENT_MODE(mode=19*)
  7: 0x0022 [0x45] LOAD_SCHEDULED_TASK: Load scheduler "fdi1" with entities [LocalPlayer, LocalPlayer], work=[200*, 0*]
  8: 0x0033 [0x1C] WAIT(60* ticks)
  9: 0x0036 [0x48] [System] [10832*]:
    → "Prest confirm button to start."
 10: 0x0039 [0x23] WAIT_FOR_DIALOG_INTERACTION
 11: 0x003A [0x67] HIDE_HUD_ELEMENTS(param1=0x8001, param2=0x8001)
 12: 0x003F [0x45] LOAD_SCHEDULED_TASK: Load scheduler "tgs7" with entities [LocalPlayer, LocalPlayer], work=[341*, 0*]
 13: 0x0050 [0x1C] WAIT(900* ticks)
 14: 0x0053 [0x45] LOAD_SCHEDULED_TASK: Load scheduler "fdo1" with entities [LocalPlayer, LocalPlayer], work=[200*, 0*]
 15: 0x0064 [0x1C] WAIT(60* ticks)
 16: 0x0067 [0x52] END_LOAD_SCHEDULER: End scheduler "tgs7" with entities [LocalPlayer, LocalPlayer], work=341*
 17: 0x0076 [0x78] ENABLE_GAME_TIMER_RESET_WEATHER()
 18: 0x0077 [0x68] SHOW_HUD_ELEMENTS()
 19: 0x0078 [0x46] CAMERA_CONTROL: Restore default settings
 20: 0x007A [0x45] LOAD_SCHEDULED_TASK: Load scheduler "fdi1" with entities [LocalPlayer, LocalPlayer], work=[200*, 0*]
 21: 0x008B [0x20] SET_CLI_EVENT_UC_FLAG: Unlock player control
 22: 0x008D [0x21] END_EVENT
 23: 0x008E [0x00] END_REQSTACK()
```
