# 17134241 - Egon

## Common Data

| Field            | Value                       |
|------------------|-----------------------------|
| Zone             | Bastok Markets [S] (ID: 87) |
| Block Size       | 280 bytes                   |
| Total Events     | 7                           |
| References Count | 21                          |

## List of Events

| Event ID                 | Entrypoint   |   Size |   Instructions |
|--------------------------|--------------|--------|----------------|
| [65535](#event-65535)    | 0x0000       |      1 |              1 |
| [179](#event-179)        | 0x0001       |      7 |              2 |
| [65535.1](#event-655351) | 0x0008       |     52 |              6 |
| [65535.2](#event-655352) | 0x003C       |     24 |              6 |
| [65535.3](#event-655353) | 0x0054       |     22 |              6 |
| [65535.4](#event-655354) | 0x006A       |     22 |              6 |
| [65535.5](#event-655355) | 0x0080       |     24 |              6 |

## DAT References (imed_data)

|   Index | Hex Value   |   Dec Value |
|---------|-------------|-------------|
|       0 | 0x0009      |           9 |
|       1 | 0x005A      |          90 |
|       2 | 0x001E      |          30 |
|       3 | 0x0028      |          40 |
|       4 | 0xFFFC982F  |  4294744111 |
|       5 | 0x11FC2     |       73666 |
|       6 | 0x0000      |           0 |
|       7 | 0xFFFCAC0C  |  4294749196 |
|       8 | 0x10ACA     |       68298 |
|       9 | 0xFFFFFAE6  |  4294965990 |
|      10 | 0xFFFD1F41  |  4294778689 |
|      11 | 0x11EBA     |       73402 |
|      12 | 0xFFFFF061  |  4294963297 |
|      13 | 0x000D      |          13 |
|      14 | 0xFFFD55D2  |  4294792658 |
|      15 | 0x12727     |       75559 |
|      16 | 0xFFFFF060  |  4294963296 |
|      17 | 0xFFFD434D  |  4294787917 |
|      18 | 0x1283F     |       75839 |
|      19 | 0xFFFD2FAE  |  4294782894 |
|      20 | 0x12834     |       75828 |

## Events

### Event 65535

#### Metadata

| Field        | Value   |
|--------------|---------|
| Entrypoint   | 0x0000  |
| Data Size    | 1 bytes |
| Instructions | 1       |

```
      00 01 02 03 04 05 06 07  08 09 0A 0B 0C 0D 0E 0F
      -- -- -- -- -- -- -- --  -- -- -- -- -- -- -- --
0000: 00                                                .               
```

#### Opcodes

```
  0: 0x0000 [0x00] END_REQSTACK()
```

### Event 179

#### Metadata

| Field        | Value   |
|--------------|---------|
| Entrypoint   | 0x0001  |
| Data Size    | 7 bytes |
| Instructions | 2       |

```
      00 01 02 03 04 05 06 07  08 09 0A 0B 0C 0D 0E 0F
      -- -- -- -- -- -- -- --  -- -- -- -- -- -- -- --
0000:    92 01 F8 FF FF 7F 00                            .......        
```

#### Opcodes

```
  0: 0x0001 [0x92] EventEntity->Render.Flags3 ^= 0x01
  1: 0x0007 [0x00] END_REQSTACK()
```

### Event 65535.1

#### Metadata

| Field        | Value    |
|--------------|----------|
| Entrypoint   | 0x0008   |
| Data Size    | 52 bytes |
| Instructions | 6        |

```
      00 01 02 03 04 05 06 07  08 09 0A 0B 0C 0D 0E 0F
      -- -- -- -- -- -- -- --  -- -- -- -- -- -- -- --
0000:                          66 00 80 A1 72 05 01 A1          f...r...
0010: 72 05 01 74 6C 6B 30 1C  01 80 66 00 80 A0 72 05  r..tlk0...f...r.
0020: 01 A0 72 05 01 74 68 6B  32 1C 02 80 66 00 80 A1  ..r..thk2...f...
0030: 72 05 01 A1 72 05 01 74  6C 6B 31 00              r...r..tlk1.    
```

#### Opcodes

```
  0: 0x0008 [0x66] LOAD_EXT_SCHEDULER_MAIN: Load scheduler "tlk0" with entities [Egon (ID: 17134241/0x010572A1), Egon (ID: 17134241/0x010572A1)], work=9*
  1: 0x0017 [0x1C] WAIT(90* ticks)
  2: 0x001A [0x66] LOAD_EXT_SCHEDULER_MAIN: Load scheduler "thk2" with entities [Norbert (ID: 17134240/0x010572A0), Norbert (ID: 17134240/0x010572A0)], work=9*
  3: 0x0029 [0x1C] WAIT(30* ticks)
  4: 0x002C [0x66] LOAD_EXT_SCHEDULER_MAIN: Load scheduler "tlk1" with entities [Egon (ID: 17134241/0x010572A1), Egon (ID: 17134241/0x010572A1)], work=9*
  5: 0x003B [0x00] END_REQSTACK()
```

### Event 65535.2

#### Metadata

| Field        | Value    |
|--------------|----------|
| Entrypoint   | 0x003C   |
| Data Size    | 24 bytes |
| Instructions | 6        |

```
      00 01 02 03 04 05 06 07  08 09 0A 0B 0C 0D 0E 0F
      -- -- -- -- -- -- -- --  -- -- -- -- -- -- -- --
0030:                                      32 03 80 1F              2...
0040: 00 04 80 05 80 06 80 1F  01 1F 00 07 80 08 80 09  ................
0050: 80 1F 01 00                                       ....            
```

#### Opcodes

```
  0: 0x003C [0x32] ExtData[1]->MainSpeed = 40* * 0.1
  1: 0x003F [0x1F] MOVE_ENTITY: EventEntity moves to X=-223.185*, Z=73.666*, Y=0.000*
  2: 0x0047 [0x1F] MOVE_ENTITY: Update entity position (mode=1)
  3: 0x0049 [0x1F] MOVE_ENTITY: EventEntity moves to X=-218.100*, Z=68.298*, Y=-1.306*
  4: 0x0051 [0x1F] MOVE_ENTITY: Update entity position (mode=1)
  5: 0x0053 [0x00] END_REQSTACK()
```

### Event 65535.3

#### Metadata

| Field        | Value    |
|--------------|----------|
| Entrypoint   | 0x0054   |
| Data Size    | 22 bytes |
| Instructions | 6        |

```
      00 01 02 03 04 05 06 07  08 09 0A 0B 0C 0D 0E 0F
      -- -- -- -- -- -- -- --  -- -- -- -- -- -- -- --
0050:             32 03 80 1F  00 0A 80 0B 80 0C 80 1F      2...........
0060: 01 1E 9F 72 05 01 1C 02  80 00                    ...r......      
```

#### Opcodes

```
  0: 0x0054 [0x32] ExtData[1]->MainSpeed = 40* * 0.1
  1: 0x0057 [0x1F] MOVE_ENTITY: EventEntity moves to X=-188.607*, Z=73.402*, Y=-3.999*
  2: 0x005F [0x1F] MOVE_ENTITY: Update entity position (mode=1)
  3: 0x0061 [0x1E] EventEntity looks at Lieselotte (ID: 17134239/0x0105729F) and starts talking
  4: 0x0066 [0x1C] WAIT(30* ticks)
  5: 0x0069 [0x00] END_REQSTACK()
```

### Event 65535.4

#### Metadata

| Field        | Value    |
|--------------|----------|
| Entrypoint   | 0x006A   |
| Data Size    | 22 bytes |
| Instructions | 6        |

```
      00 01 02 03 04 05 06 07  08 09 0A 0B 0C 0D 0E 0F
      -- -- -- -- -- -- -- --  -- -- -- -- -- -- -- --
0060:                                32 0D 80 1F 00 0E            2.....
0070: 80 0F 80 10 80 1F 01 1E  CC 71 05 01 1C 02 80 00  .........q......
```

#### Opcodes

```
  0: 0x006A [0x32] ExtData[1]->MainSpeed = 13* * 0.1
  1: 0x006D [0x1F] MOVE_ENTITY: EventEntity moves to X=-174.638*, Z=75.559*, Y=-4.000*
  2: 0x0075 [0x1F] MOVE_ENTITY: Update entity position (mode=1)
  3: 0x0077 [0x1E] EventEntity looks at Werner (ID: 17134028/0x010571CC) and starts talking
  4: 0x007C [0x1C] WAIT(30* ticks)
  5: 0x007F [0x00] END_REQSTACK()
```

### Event 65535.5

#### Metadata

| Field        | Value    |
|--------------|----------|
| Entrypoint   | 0x0080   |
| Data Size    | 24 bytes |
| Instructions | 6        |

```
      00 01 02 03 04 05 06 07  08 09 0A 0B 0C 0D 0E 0F
      -- -- -- -- -- -- -- --  -- -- -- -- -- -- -- --
0080: 32 03 80 1F 00 11 80 12  80 10 80 1F 01 1F 00 13  2...............
0090: 80 14 80 10 80 1F 01 00                           ........        
```

#### Opcodes

```
  0: 0x0080 [0x32] ExtData[1]->MainSpeed = 40* * 0.1
  1: 0x0083 [0x1F] MOVE_ENTITY: EventEntity moves to X=-179.379*, Z=75.839*, Y=-4.000*
  2: 0x008B [0x1F] MOVE_ENTITY: Update entity position (mode=1)
  3: 0x008D [0x1F] MOVE_ENTITY: EventEntity moves to X=-184.402*, Z=75.828*, Y=-4.000*
  4: 0x0095 [0x1F] MOVE_ENTITY: Update entity position (mode=1)
  5: 0x0097 [0x00] END_REQSTACK()
```
