# 17134154 - Wahid

## Common Data

| Field            | Value                       |
|------------------|-----------------------------|
| Zone             | Bastok Markets [S] (ID: 87) |
| Block Size       | 6976 bytes                  |
| Total Events     | 11                          |
| References Count | 153                         |

## List of Events

| Event ID              | Entrypoint   |   Size |   Instructions |
|-----------------------|--------------|--------|----------------|
| [65535](#event-65535) | 0x0000       |      1 |              1 |
| [335](#event-335)     | 0x0001       |    613 |             72 |
| [336](#event-336)     | 0x0266       |     71 |             13 |
| [337](#event-337)     | 0x02AD       |   1683 |            225 |
| [338](#event-338)     | 0x0940       |     77 |             15 |
| [339](#event-339)     | 0x098D       |    320 |             46 |
| [340](#event-340)     | 0x0ACD       |     43 |              9 |
| [341](#event-341)     | 0x0AF8       |   3052 |            406 |
| [342](#event-342)     | 0x16E4       |     30 |             10 |
| [343](#event-343)     | 0x1702       |    365 |             49 |
| [344](#event-344)     | 0x186F       |     47 |             11 |

## DAT References (imed_data)

|   Index | Hex Value   |   Dec Value |
|---------|-------------|-------------|
|       0 | 0x00C8      |         200 |
|       1 | 0x0000      |           0 |
|       2 | 0x003C      |          60 |
|       3 | 0x0013      |          19 |
|       4 | 0xFFFDD05A  |  4294824026 |
|       5 | 0xFFFE9A8A  |  4294875786 |
|       6 | 0xFFFFF060  |  4294963296 |
|       7 | 0x0C34      |        3124 |
|       8 | 0x01C8      |         456 |
|       9 | 0x1DC7      |        7623 |
|      10 | 0x1DC8      |        7624 |
|      11 | 0x0323      |         803 |
|      12 | 0x0317      |         791 |
|      13 | 0x0310      |         784 |
|      14 | 0x1DC9      |        7625 |
|      15 | 0x0016      |          22 |
|      16 | 0x0096      |         150 |
|      17 | 0x1DCA      |        7626 |
|      18 | 0x1DCB      |        7627 |
|      19 | 0x0006      |           6 |
|      20 | 0x1DCC      |        7628 |
|      21 | 0x1DCD      |        7629 |
|      22 | 0x1DCE      |        7630 |
|      23 | 0xFFFDD40D  |  4294824973 |
|      24 | 0xFFFEA5FD  |  4294878717 |
|      25 | 0x0CE4      |        3300 |
|      26 | 0xFFFDBC62  |  4294818914 |
|      27 | 0xFFFEA9F6  |  4294879734 |
|      28 | 0x0FFF      |        4095 |
|      29 | 0x000B      |          11 |
|      30 | 0x1DCF      |        7631 |
|      31 | 0x0004      |           4 |
|      32 | 0x1DD0      |        7632 |
|      33 | 0x1DD1      |        7633 |
|      34 | 0x1DD2      |        7634 |
|      35 | 0x0007      |           7 |
|      36 | 0x0078      |         120 |
|      37 | 0x0001      |           1 |
|      38 | 0x1DD3      |        7635 |
|      39 | 0x1DD4      |        7636 |
|      40 | 0x1DD5      |        7637 |
|      41 | 0x005A      |          90 |
|      42 | 0x1DD6      |        7638 |
|      43 | 0x007F      |         127 |
|      44 | 0x1DD7      |        7639 |
|      45 | 0x1DD8      |        7640 |
|      46 | 0x1DD9      |        7641 |
|      47 | 0x1DDA      |        7642 |
|      48 | 0x000A      |          10 |
|      49 | 0x1DDB      |        7643 |
|      50 | 0x1DDC      |        7644 |
|      51 | 0x1DDD      |        7645 |
|      52 | 0x1DDE      |        7646 |
|      53 | 0x1DDF      |        7647 |
|      54 | 0x1DE0      |        7648 |
|      55 | 0x1DE1      |        7649 |
|      56 | 0x1DE2      |        7650 |
|      57 | 0x1DE3      |        7651 |
|      58 | 0x0021      |          33 |
|      59 | 0x0015      |          21 |
|      60 | 0x1DE4      |        7652 |
|      61 | 0x0019      |          25 |
|      62 | 0x1DE5      |        7653 |
|      63 | 0x0005      |           5 |
|      64 | 0x00F0      |         240 |
|      65 | 0x001E      |          30 |
|      66 | 0x00B4      |         180 |
|      67 | 0x001A      |          26 |
|      68 | 0x1DE6      |        7654 |
|      69 | 0x1DE7      |        7655 |
|      70 | 0x1DE8      |        7656 |
|      71 | 0x1DE9      |        7657 |
|      72 | 0x1DEA      |        7658 |
|      73 | 0x1DEB      |        7659 |
|      74 | 0x0009      |           9 |
|      75 | 0x1DEC      |        7660 |
|      76 | 0x1DED      |        7661 |
|      77 | 0x1DEE      |        7662 |
|      78 | 0x1DEF      |        7663 |
|      79 | 0x1DF0      |        7664 |
|      80 | 0x1DF1      |        7665 |
|      81 | 0x1DF2      |        7666 |
|      82 | 0x1DF3      |        7667 |
|      83 | 0x1DF4      |        7668 |
|      84 | 0x1DF5      |        7669 |
|      85 | 0x1DF6      |        7670 |
|      86 | 0x1DF7      |        7671 |
|      87 | 0x1DF8      |        7672 |
|      88 | 0x1DF9      |        7673 |
|      89 | 0xFFFDD745  |  4294825797 |
|      90 | 0xFFFEA948  |  4294879560 |
|      91 | 0x0A1A      |        2586 |
|      92 | 0x0028      |          40 |
|      93 | 0x1DFB      |        7675 |
|      94 | 0x1DFC      |        7676 |
|      95 | 0x0020      |          32 |
|      96 | 0x1DFD      |        7677 |
|      97 | 0x1DFE      |        7678 |
|      98 | 0x1DFF      |        7679 |
|      99 | 0x1E00      |        7680 |
|     100 | 0x1E01      |        7681 |
|     101 | 0x1E02      |        7682 |
|     102 | 0x1E03      |        7683 |
|     103 | 0x1E04      |        7684 |
|     104 | 0x1E05      |        7685 |
|     105 | 0x1E06      |        7686 |
|     106 | 0x1E07      |        7687 |
|     107 | 0x0464      |        1124 |
|     108 | 0x1E08      |        7688 |
|     109 | 0x1E09      |        7689 |
|     110 | 0x1E0A      |        7690 |
|     111 | 0x1E0B      |        7691 |
|     112 | 0x0022      |          34 |
|     113 | 0x1E0C      |        7692 |
|     114 | 0x1E0D      |        7693 |
|     115 | 0xFFFDCA3F  |  4294822463 |
|     116 | 0xFFFEADC8  |  4294880712 |
|     117 | 0x00E1      |         225 |
|     118 | 0xFFFDC654  |  4294821460 |
|     119 | 0xFFFEAB6C  |  4294880108 |
|     120 | 0x0099      |         153 |
|     121 | 0x3264      |       12900 |
|     122 | 0x1E0E      |        7694 |
|     123 | 0x000F      |          15 |
|     124 | 0x1E0F      |        7695 |
|     125 | 0x1E10      |        7696 |
|     126 | 0x1E11      |        7697 |
|     127 | 0x1E12      |        7698 |
|     128 | 0x00C9      |         201 |
|     129 | 0x0003      |           3 |
|     130 | 0x1E13      |        7699 |
|     131 | 0x1E14      |        7700 |
|     132 | 0x1E15      |        7701 |
|     133 | 0x0002      |           2 |
|     134 | 0x09E3      |        2531 |
|     135 | 0x1E16      |        7702 |
|     136 | 0x009F      |         159 |
|     137 | 0x1E17      |        7703 |
|     138 | 0x1E18      |        7704 |
|     139 | 0x1E19      |        7705 |
|     140 | 0x1E1A      |        7706 |
|     141 | 0x1E1B      |        7707 |
|     142 | 0x1E1C      |        7708 |
|     143 | 0x002D      |          45 |
|     144 | 0x0140      |         320 |
|     145 | 0x1E1D      |        7709 |
|     146 | 0x1E1E      |        7710 |
|     147 | 0x1E1F      |        7711 |
|     148 | 0x1E20      |        7712 |
|     149 | 0x4B4A      |       19274 |
|     150 | 0x1E21      |        7713 |
|     151 | 0x0024      |          36 |
|     152 | 0x1E22      |        7714 |

## String References

- **7623**: Well met! I am Wahid, a gem dealer of some repute. If you're a [man/woman] of class--<ahem!>--you've doubtless already heard of me.
- **7624**: Despite my copious wealth, I am a simple man of simple pleasures. Sell jewels by the cartload, and use the ample proceeds to wine and dine on the Republic's finest fare...I ask for little else. Sadly, this accursed war has cut off my supply line, putting a dent in my profits and forcing me to subside on--<gasp!>--commoner's fare.
- **7625**: Alas! 'Tis a fate worse than death. But you seem the capable sort, so perhaps you could lend me a hand. Recently, I'm suffering from a shortage of product--$0, $1, and $2, to be exact.
- **7626**: What's that? Where lies the market for gems in the midst of a war, you say?
- **7627**: Oh ho! Allow me to let you in on the secret of my success. My loyal wife, you see, is a goldsmith of unparalleled skill. She fashions the gemstones I procure into rings so breathtaking that it is said mothers have let their children go hungry just to own one!
- **7628**: Ah-ha-ha! Oh-ho-ho-<cough, hack> Ahem! But I jest.
- **7629**: At any rate, see if you can locate the three stones I seek. Rest assured that I can make it very much worth your while.
- **7630**: You haven't come across any $0, $1, or $2 in your travels, have you? Acquire one of each and I will purchase the set from you at a handsome price.
- **7631**: Oho! I knew I could count on you! After all, my sterling character judgment is quite renowned in the Bastokan merchant circle.
- **7632**: Ah, yes! Splendiferous! Magnificent! I need only sell these, and I'll have wine enough to bathe in!
- **7633**: What say you to 50,000 gil for the lot of them? You see? My far-famed generosity knows no bounds!
- **7634**: Sell the three gems for 50,000 gil? [Show me the money!/On second thought...]
- **7636**: Oh, there you are, my dear! You couldn't have picked a finer time to come.
- **7637**: This is my wife Swantje, of whom I spoke. And this, my dear, is the industrious young [man/woman] who has brought the gems that will make me--<ahem!>, I mean us--rich beyond our wildest dreams!
- **7638**: So hop to it, honey. Work your magic on these beauties!
- **7642**: Ahahaha! Bwahahaha--<cough, hack>. Please stop, my dear, lest I bust a gut from laughter!
- **7643**: 'Tis precisely because our lives may end at any moment that I choose to make the most of the time I have. If some vainglorious goodwife is willing to lighten her purse to that end, who am I to stand in the way? Would you deny me that?
- **7649**: Mystic stones? Good-luck charms? Bwahahahahahaha!
- **7650**: You're quite the jokester today, my dear! Even if such things existed--which I doubt they do--why should I break my back hunting down pebbles that would bring but a pittance in return?
- **7651**: You may have talent, but let us not forget that it's me and my prodigious gem acquisition skills that put the food on our table.
- **7652**: Hopes? Dreams? Courage? P'shaw! I'm a businessman--a successful one at that--and I intend to stay that way.
- **7653**: If the mushy sentiments of the rabble are of such concern to you, maybe you should go find your precious "mystic stones" yourself!
- **7654**: There she goes again. Oh well, can't say I didn't try to talk some sense into her.
- **7655**: I'm afraid we'll have to put our little transaction on hold.
- **7656**: She's a willful one, but without her skills, those stones won't sell for a tenth of what I offered you.
- **7657**: But worry not, friend! She'll come around, as she always does. My infallible merchant's instincts tell me so.
- **7658**: It won't be long before we're all rolling in gil. Ahahaha! Bwahahahahahaha--<cough, hack>.
- **7659**: Oh ho! There you are! Sorry you had to witness our little lovers' spat the other day. Hohoho...
- **7660**: Actually, speaking of my wife... You haven't perchance seen her around, have you?
- **7661**: It pains me to say this, but she hasn't been back home since that day.
- **7662**: Wherever could she have run off to?
- **7663**: I don't mean to turn you into my errand [boy/girl], but perhaps you could take a look around for her?
- **7664**: It appears my infallible merchant's instincts aren't quite what they used to be. Ahahaha!
- **7665**: Please do let me know if you find any word of my wife. Hahaha, what's gotten into me? A businessman like me should have nerves of darksteel...
- **7666**: Oh, it's you. Pray tell, have you any news of Swantje?
- **7667**: Break the news to Wahid? [Yes./Not yet.]
- **7668**: What's that you say!? You expect me to believe such nonsense?
- **7669**: After all, it's not as if you have any proof, correct? No, a shrewd businessman trusts no eyes but his own!
- **7670**: Ah...'tis a shame.
- **7671**: Should you uncover any word of Swantje--anything at all!--come back at once. I beg of you!
- **7672**: Ah, I've been waiting for you! Have a look at this letter. I found it as I was searching my house just a moment ago.
- **7673**: Here, you can read it along with me. Perhaps it might offer us a clue as to Swantje's whereabouts.
- **7675**: @@My dearest husband, @@ @@Forgive me for running off in a huff like that...sometimes I allow my emotions to get the better of me. @@
- **7676**: @@I imagine you're asking yourself where I came up with that far-fetched notion of mystic stones. @@
- **7677**: @@I meant not to anger you. @@Still, I fear that if I were to say this face-to-face, I would succeed only in incurring your ire once more. @@And so, I put ink to parchment. @@
- **7678**: @@Do you remember the ring you gave me on our wedding day? @@
- **7679**: @@So unique, so lovely...it piqued my curiosity from the start. @@Recently I learned that it was one of the early works of a highly celebrated goldsmith. @@
- **7680**: @@The story has it that this goldsmith intended to set the ring with one of the stones of legend. @@Though they do not shine as bright as diamonds--nor any other precious gem--it is said that they @@would bring lifelong happiness to any couple.
- **7681**: @@Did you know? @@Ever the businessman, you were doubtless more concerned with its glitter than its history... @@
- **7682**: @@Still, in these dark times...I thought we could work together to provide that same hope and @@happiness to the disheartened populace. @@I wanted this with all my heart. @@
- **7683**: @@Call me a sentimental little girl, but this is why I sought your aid in finding the stones. @@And why I now go in search of them...on my own... @@
- **7684**: @@I know you are still angry at me. But I promise you... @@I will find the stone and fashion the most beautiful ring the three nations have ever seen. @@That day, I hope you can forgive me. @@
- **7685**: @@@@@@@@@@@@@@@Yours, @@@@@@@@@@@@@@@Swantje @@
- **7686**: What is that woman thinking!? She's always been pigheaded, but to think she was actually serious about going on that wild crystal chase! And alone, to boot!
- **7687**: Hmmm? What was that look on your face just now? Is there something you're not telling me?
- **7688**: Show Wahid the $3? [Yes./Not yet.]
- **7689**: You can't pull one over on old Wahid. There's something you're not telling me. Now, out with it!
- **7690**: Why, this...this is the wedding ring I gave Swantje!
- **7691**: What were you doing with it?
- **7692**: Where did you find this, I say!?
- **7693**: You're hiding something from me, I know it! Out with it before I lose my patience!
- **7694**: No...it can't... D-damn you! You're...you're trying to trick me... You--
- **7699**: No...it can't be true... Oh, Goddess! Why do you forsake me so? How could you lead her into harm's way! M-my...my Swantje...<sob>
- **7702**: Could it be...? $0!
- **7703**: Back in the days when I was but a fledgling shop owner, without the resources to procure precious gems, Swantje would bring these home, and polish them until they sparkled like the starlit night sky...
- **7705**: Ah, to return to those days! Our store was but a shack, these stones bringing in barely enough coin to afford the ramshackle roof over our heads...
- **7706**: And yet, our travails brought us closer than we had ever been before...or have been since. Looking back...those were probably the happiest years of our lives.
- **7707**: Swantje...
- **7709**: Oh...it's you again. Please forgive me for the other day...the grief was too much to bear.
- **7710**: Since that day, this $0 has never left my hand. It's worth no more than a pebble, and isn't even much to look at. But I shall cherish it more than the most precious diamond.
- **7711**: I've decided to take it upon myself to realize Swantje's unfulfilled dream. I shall collect stones like the one she gave her life to find, and do what I can to bring hope and good fortune to the people.
- **7712**: Such is the least I can do to honor her memory. And when the day comes that I leave this world to rejoin her side, I can only hope she will forgive me...
- **7713**: This $0 was one of her most beloved tools.
- **7714**: Please take it. You're far more of a goldsmith than I. Perhaps someday, when you become a master, you can fashion Swantje's stone into a ring worthy of her memory.
- **12900**: @@

## Events

### Event 65535

#### Metadata

| Field        | Value   |
|--------------|---------|
| Entrypoint   | 0x0000  |
| Data Size    | 1 bytes |
| Instructions | 1       |

```
      00 01 02 03 04 05 06 07  08 09 0A 0B 0C 0D 0E 0F
      -- -- -- -- -- -- -- --  -- -- -- -- -- -- -- --
0000: 00                                                .               
```

#### Opcodes

```
  0: 0x0000 [0x00] END_REQSTACK()
```

### Event 335

#### Metadata

| Field        | Value     |
|--------------|-----------|
| Entrypoint   | 0x0001    |
| Data Size    | 613 bytes |
| Instructions | 72        |

```
      00 01 02 03 04 05 06 07  08 09 0A 0B 0C 0D 0E 0F
      -- -- -- -- -- -- -- --  -- -- -- -- -- -- -- --
0000:    42 20 01 46 01 45 00  80 F0 FF FF 7F F0 FF FF   B .F.E.........
0010: 7F 66 64 6F 31 01 80 1C  02 80 38 03 80 BA F0 FF  .fdo1.....8.....
0020: FF 7F 04 80 05 80 06 80  07 80 80 F0 FF FF 7F 80  ................
0030: 4A 72 05 01 92 01 4A 72  05 01 45 08 80 F0 FF FF  Jr....Jr..E.....
0040: 7F F0 FF FF 7F 77 68 32  33 01 80 27 0F F0 FF FF  .....wh23..'....
0050: 7F 03 45 00 80 F0 FF FF  7F F0 FF FF 7F 66 64 69  ..E..........fdi
0060: 31 01 80 1E F0 FF FF 7F  55 08 80 F0 FF FF 7F F0  1.......U.......
0070: FF FF 7F 77 68 32 33 66  01 80 F8 FF FF 7F F8 FF  ...wh23f........
0080: FF 7F 74 6C 6B 31 1D 09  80 23 52 08 80 F0 FF FF  ..tlk1...#R.....
0090: 7F F0 FF FF 7F 77 68 32  33 45 08 80 F0 FF FF 7F  .....wh23E......
00A0: F0 FF FF 7F 77 68 32 34  01 80 1D 0A 80 23 66 01  ....wh24.....#f.
00B0: 80 F8 FF FF 7F F8 FF FF  7F 74 65 6E 31 66 01 80  .........ten1f..
00C0: F8 FF FF 7F F8 FF FF 7F  74 68 6B 31 03 02 10 0B  ........thk1....
00D0: 80 03 03 10 0C 80 03 04  10 0D 80 1D 0E 80 23 66  ..............#f
00E0: 01 80 F8 FF FF 7F F8 FF  FF 7F 74 68 6B 32 53 F8  ..........thk2S.
00F0: FF FF 7F F8 FF FF 7F 74  68 6B 32 52 08 80 F0 FF  .......thk2R....
0100: FF 7F F0 FF FF 7F 77 68  32 34 45 08 80 F0 FF FF  ......wh24E.....
0110: 7F F0 FF FF 7F 77 68 31  39 01 80 6E F0 FF FF 7F  .....wh19..n....
0120: 0F 80 99 F0 FF FF 7F 99  F0 FF FF 7F 1C 10 80 6E  ...............n
0130: 4A 72 05 01 0F 80 99 4A  72 05 01 1D 11 80 23 99  Jr.....Jr.....#.
0140: 4A 72 05 01 52 08 80 F0  FF FF 7F F0 FF FF 7F 77  Jr..R..........w
0150: 68 31 39 45 00 80 F0 FF  FF 7F F0 FF FF 7F 6F 76  h19E..........ov
0160: 6C 31 01 80 45 08 80 F0  FF FF 7F F0 FF FF 7F 77  l1..E..........w
0170: 68 32 30 01 80 7B 4A 72  05 01 66 01 80 F8 FF FF  h20..{Jr..f.....
0180: 7F F8 FF FF 7F 74 6C 6B  30 1D 12 80 23 66 01 80  .....tlk0...#f..
0190: F8 FF FF 7F F8 FF FF 7F  74 65 6E 30 52 08 80 F0  ........ten0R...
01A0: FF FF 7F F0 FF FF 7F 77  68 32 30 45 00 80 F0 FF  .......wh20E....
01B0: FF 7F F0 FF FF 7F 6F 76  6C 31 01 80 45 08 80 F0  ......ovl1..E...
01C0: FF FF 7F F0 FF FF 7F 77  68 32 31 01 80 6E 4A 72  .......wh21..nJr
01D0: 05 01 13 80 99 4A 72 05  01 1D 14 80 23 99 4A 72  .....Jr.....#.Jr
01E0: 05 01 52 08 80 F0 FF FF  7F F0 FF FF 7F 77 68 32  ..R..........wh2
01F0: 31 45 08 80 F0 FF FF 7F  F0 FF FF 7F 77 68 32 32  1E..........wh22
0200: 01 80 79 00 4A 72 05 01  F0 FF FF 7F 66 01 80 F8  ..y.Jr......f...
0210: FF FF 7F F8 FF FF 7F 74  6C 6B 31 1D 15 80 23 66  .......tlk1...#f
0220: 01 80 F8 FF FF 7F F8 FF  FF 7F 74 65 6E 31 45 00  ..........ten1E.
0230: 80 F0 FF FF 7F F0 FF FF  7F 66 64 6F 31 01 80 1C  .........fdo1...
0240: 02 80 52 08 80 F0 FF FF  7F F0 FF FF 7F 77 68 32  ..R..........wh2
0250: 32 46 00 45 00 80 F0 FF  FF 7F F0 FF FF 7F 66 64  2F.E..........fd
0260: 69 31 01 80 21 00                                 i1..!.          
```

#### Opcodes

```
  0: 0x0001 [0x42] SET_CLI_EVENT_CANCEL_DATA()
  1: 0x0002 [0x20] SET_CLI_EVENT_UC_FLAG: Lock player control
  2: 0x0004 [0x46] CAMERA_CONTROL: Disable user control
  3: 0x0006 [0x45] LOAD_SCHEDULED_TASK: Load scheduler "fdo1" with entities [LocalPlayer, LocalPlayer], work=[200*, 0*]
  4: 0x0017 [0x1C] WAIT(60* ticks)
  5: 0x001A [0x38] SET_CLIENT_EVENT_MODE(mode=19*)
  6: 0x001D [0xBA] SET_ENTITY_POSITION(entity_id=LocalPlayer, pos_x=-143.270*, pos_z=-91.510*, pos_y=-4.000*, direction=274.6°*)
  7: 0x002A [0x80] LOAD_WAIT(entity=LocalPlayer)
  8: 0x002F [0x80] LOAD_WAIT(entity=Wahid (ID: 17134154/0x0105724A))
  9: 0x0034 [0x92] Wahid (ID: 17134154/0x0105724A)->Render.Flags3 ^= 0x01
 10: 0x003A [0x45] LOAD_SCHEDULED_TASK: Load scheduler "wh23" with entities [LocalPlayer, LocalPlayer], work=[456*, 0*]
 11: 0x004B [0x27] REQ_SET(priority=0x0F, entity_id=LocalPlayer, tag_num=0x03)
 12: 0x0052 [0x45] LOAD_SCHEDULED_TASK: Load scheduler "fdi1" with entities [LocalPlayer, LocalPlayer], work=[200*, 0*]
 13: 0x0063 [0x1E] EventEntity looks at LocalPlayer and starts talking
 14: 0x0068 [0x55] WAIT_LOAD_SCHEDULER: Wait for scheduler "wh23" with entities [LocalPlayer, LocalPlayer], work=456*
 15: 0x0077 [0x66] LOAD_EXT_SCHEDULER_MAIN: Load scheduler "tlk1" with entities [EventEntity, EventEntity], work=0*
 16: 0x0086 [0x1D] PRINT_EVENT_MESSAGE(message_id=7623*)
    → "Well met! I am Wahid, a gem dealer of some repute. If you're a [man/woman] of class--<ahem!>--you've doubtless already heard of me."
 17: 0x0089 [0x23] WAIT_FOR_DIALOG_INTERACTION
 18: 0x008A [0x52] END_LOAD_SCHEDULER: End scheduler "wh23" with entities [LocalPlayer, LocalPlayer], work=456*
 19: 0x0099 [0x45] LOAD_SCHEDULED_TASK: Load scheduler "wh24" with entities [LocalPlayer, LocalPlayer], work=[456*, 0*]
 20: 0x00AA [0x1D] PRINT_EVENT_MESSAGE(message_id=7624*)
    → "Despite my copious wealth, I am a simple man of simple pleasures. Sell jewels by the cartload, and use the ample proceeds to wine and dine on the Republic's finest fare...I ask for little else. Sadly, this accursed war has cut off my supply line, putting a dent in my profits and forcing me to subside on--<gasp!>--commoner's fare."
 21: 0x00AD [0x23] WAIT_FOR_DIALOG_INTERACTION
 22: 0x00AE [0x66] LOAD_EXT_SCHEDULER_MAIN: Load scheduler "ten1" with entities [EventEntity, EventEntity], work=0*
 23: 0x00BD [0x66] LOAD_EXT_SCHEDULER_MAIN: Load scheduler "thk1" with entities [EventEntity, EventEntity], work=0*
 24: 0x00CC [0x03] Work_Zone[2] = 803*
 25: 0x00D1 [0x03] Work_Zone[3] = 791*
 26: 0x00D6 [0x03] Work_Zone[4] = 784*
 27: 0x00DB [0x1D] PRINT_EVENT_MESSAGE(message_id=7625*)
    → "Alas! 'Tis a fate worse than death. But you seem the capable sort, so perhaps you could lend me a hand. Recently, I'm suffering from a shortage of product--$0, $1, and $2, to be exact."
 28: 0x00DE [0x23] WAIT_FOR_DIALOG_INTERACTION
 29: 0x00DF [0x66] LOAD_EXT_SCHEDULER_MAIN: Load scheduler "thk2" with entities [EventEntity, EventEntity], work=0*
 30: 0x00EE [0x53] WAIT_SCHEDULER_TASK: Wait for scheduler "thk2" with entities [EventEntity, EventEntity]
 31: 0x00FB [0x52] END_LOAD_SCHEDULER: End scheduler "wh24" with entities [LocalPlayer, LocalPlayer], work=456*
 32: 0x010A [0x45] LOAD_SCHEDULED_TASK: Load scheduler "wh19" with entities [LocalPlayer, LocalPlayer], work=[456*, 0*]
 33: 0x011B [0x6E] LocalPlayer uses emote 22*
 34: 0x0122 [0x99] Wait for LocalPlayer animation to complete
 35: 0x0127 [0x99] Wait for LocalPlayer animation to complete
 36: 0x012C [0x1C] WAIT(150* ticks)
 37: 0x012F [0x6E] Wahid (ID: 17134154/0x0105724A) uses emote 22*
 38: 0x0136 [0x99] Wait for Wahid (ID: 17134154/0x0105724A) animation to complete
 39: 0x013B [0x1D] PRINT_EVENT_MESSAGE(message_id=7626*)
    → "What's that? Where lies the market for gems in the midst of a war, you say?"
 40: 0x013E [0x23] WAIT_FOR_DIALOG_INTERACTION
 41: 0x013F [0x99] Wait for Wahid (ID: 17134154/0x0105724A) animation to complete
 42: 0x0144 [0x52] END_LOAD_SCHEDULER: End scheduler "wh19" with entities [LocalPlayer, LocalPlayer], work=456*
 43: 0x0153 [0x45] LOAD_SCHEDULED_TASK: Load scheduler "ovl1" with entities [LocalPlayer, LocalPlayer], work=[200*, 0*]
 44: 0x0164 [0x45] LOAD_SCHEDULED_TASK: Load scheduler "wh20" with entities [LocalPlayer, LocalPlayer], work=[456*, 0*]
 45: 0x0175 [0x7B] Wahid (ID: 17134154/0x0105724A) stops talking
 46: 0x017A [0x66] LOAD_EXT_SCHEDULER_MAIN: Load scheduler "tlk0" with entities [EventEntity, EventEntity], work=0*
 47: 0x0189 [0x1D] PRINT_EVENT_MESSAGE(message_id=7627*)
    → "Oh ho! Allow me to let you in on the secret of my success. My loyal wife, you see, is a goldsmith of unparalleled skill. She fashions the gemstones I procure into rings so breathtaking that it is said mothers have let their children go hungry just to own one!"
 48: 0x018C [0x23] WAIT_FOR_DIALOG_INTERACTION
 49: 0x018D [0x66] LOAD_EXT_SCHEDULER_MAIN: Load scheduler "ten0" with entities [EventEntity, EventEntity], work=0*
 50: 0x019C [0x52] END_LOAD_SCHEDULER: End scheduler "wh20" with entities [LocalPlayer, LocalPlayer], work=456*
 51: 0x01AB [0x45] LOAD_SCHEDULED_TASK: Load scheduler "ovl1" with entities [LocalPlayer, LocalPlayer], work=[200*, 0*]
 52: 0x01BC [0x45] LOAD_SCHEDULED_TASK: Load scheduler "wh21" with entities [LocalPlayer, LocalPlayer], work=[456*, 0*]
 53: 0x01CD [0x6E] Wahid (ID: 17134154/0x0105724A) uses emote 6*
 54: 0x01D4 [0x99] Wait for Wahid (ID: 17134154/0x0105724A) animation to complete
 55: 0x01D9 [0x1D] PRINT_EVENT_MESSAGE(message_id=7628*)
    → "Ah-ha-ha! Oh-ho-ho-<cough, hack> Ahem! But I jest."
 56: 0x01DC [0x23] WAIT_FOR_DIALOG_INTERACTION
 57: 0x01DD [0x99] Wait for Wahid (ID: 17134154/0x0105724A) animation to complete
 58: 0x01E2 [0x52] END_LOAD_SCHEDULER: End scheduler "wh21" with entities [LocalPlayer, LocalPlayer], work=456*
 59: 0x01F1 [0x45] LOAD_SCHEDULED_TASK: Load scheduler "wh22" with entities [LocalPlayer, LocalPlayer], work=[456*, 0*]
 60: 0x0202 [0x79] Wahid (ID: 17134154/0x0105724A) looks at LocalPlayer (Basic look)
 61: 0x020C [0x66] LOAD_EXT_SCHEDULER_MAIN: Load scheduler "tlk1" with entities [EventEntity, EventEntity], work=0*
 62: 0x021B [0x1D] PRINT_EVENT_MESSAGE(message_id=7629*)
    → "At any rate, see if you can locate the three stones I seek. Rest assured that I can make it very much worth your while."
 63: 0x021E [0x23] WAIT_FOR_DIALOG_INTERACTION
 64: 0x021F [0x66] LOAD_EXT_SCHEDULER_MAIN: Load scheduler "ten1" with entities [EventEntity, EventEntity], work=0*
 65: 0x022E [0x45] LOAD_SCHEDULED_TASK: Load scheduler "fdo1" with entities [LocalPlayer, LocalPlayer], work=[200*, 0*]
 66: 0x023F [0x1C] WAIT(60* ticks)
 67: 0x0242 [0x52] END_LOAD_SCHEDULER: End scheduler "wh22" with entities [LocalPlayer, LocalPlayer], work=456*
 68: 0x0251 [0x46] CAMERA_CONTROL: Restore default settings
 69: 0x0253 [0x45] LOAD_SCHEDULED_TASK: Load scheduler "fdi1" with entities [LocalPlayer, LocalPlayer], work=[200*, 0*]
 70: 0x0264 [0x21] END_EVENT
 71: 0x0265 [0x00] END_REQSTACK()
```

### Event 336

#### Metadata

| Field        | Value    |
|--------------|----------|
| Entrypoint   | 0x0266   |
| Data Size    | 71 bytes |
| Instructions | 13       |

```
      00 01 02 03 04 05 06 07  08 09 0A 0B 0C 0D 0E 0F
      -- -- -- -- -- -- -- --  -- -- -- -- -- -- -- --
0260:                   1E F0  FF FF 7F 6F 70 66 01 80        .....opf..
0270: F8 FF FF 7F F8 FF FF 7F  74 6C 6B 31 03 02 10 0B  ........tlk1....
0280: 80 03 03 10 0C 80 03 04  10 0D 80 1D 16 80 23 66  ..............#f
0290: 01 80 F8 FF FF 7F F8 FF  FF 7F 74 65 6E 31 53 F8  ..........ten1S.
02A0: FF FF 7F F8 FF FF 7F 74  65 6E 31 21 00           .......ten1!.   
```

#### Opcodes

```
  0: 0x0266 [0x1E] EventEntity looks at LocalPlayer and starts talking
  1: 0x026B [0x6F] WAIT_FRAME_DELAY: Yield until WaitTime reaches zero
  2: 0x026C [0x70] WAIT_ENTITY_RENDER_FLAG: Wait while EventEntity->Render.Flags3 bit 2 is set (cancel turn if not)
  3: 0x026D [0x66] LOAD_EXT_SCHEDULER_MAIN: Load scheduler "tlk1" with entities [EventEntity, EventEntity], work=0*
  4: 0x027C [0x03] Work_Zone[2] = 803*
  5: 0x0281 [0x03] Work_Zone[3] = 791*
  6: 0x0286 [0x03] Work_Zone[4] = 784*
  7: 0x028B [0x1D] PRINT_EVENT_MESSAGE(message_id=7630*)
    → "You haven't come across any $0, $1, or $2 in your travels, have you? Acquire one of each and I will purchase the set from you at a handsome price."
  8: 0x028E [0x23] WAIT_FOR_DIALOG_INTERACTION
  9: 0x028F [0x66] LOAD_EXT_SCHEDULER_MAIN: Load scheduler "ten1" with entities [EventEntity, EventEntity], work=0*
 10: 0x029E [0x53] WAIT_SCHEDULER_TASK: Wait for scheduler "ten1" with entities [EventEntity, EventEntity]
 11: 0x02AB [0x21] END_EVENT
 12: 0x02AC [0x00] END_REQSTACK()
```

### Event 337

#### Metadata

| Field        | Value      |
|--------------|------------|
| Entrypoint   | 0x02AD     |
| Data Size    | 1683 bytes |
| Instructions | 218        |

```
      00 01 02 03 04 05 06 07  08 09 0A 0B 0C 0D 0E 0F
      -- -- -- -- -- -- -- --  -- -- -- -- -- -- -- --
02A0:                                         42 20 01               B .
02B0: 46 01 45 00 80 F0 FF FF  7F F0 FF FF 7F 66 64 6F  F.E..........fdo
02C0: 31 01 80 1C 02 80 38 03  80 BA F0 FF FF 7F 17 80  1.....8.........
02D0: 18 80 06 80 19 80 80 F0  FF FF 7F 80 4A 72 05 01  ............Jr..
02E0: 92 01 4A 72 05 01 1E F0  FF FF 7F BA 4B 72 05 01  ..Jr........Kr..
02F0: 1A 80 1B 80 06 80 1C 80  2F 00 4B 72 05 01 4E 00  ......../.Kr..N.
0300: 4B 72 05 01 80 4B 72 05  01 92 01 4B 72 05 01 45  Kr...Kr....Kr..E
0310: 08 80 F0 FF FF 7F F0 FF  FF 7F 77 68 30 31 01 80  ..........wh01..
0320: 45 00 80 F0 FF FF 7F F0  FF FF 7F 66 64 69 31 01  E..........fdi1.
0330: 80 1C 02 80 6E 4A 72 05  01 1D 80 99 4A 72 05 01  ....nJr.....Jr..
0340: 1D 1E 80 23 99 4A 72 05  01 52 08 80 F0 FF FF 7F  ...#.Jr..R......
0350: F0 FF FF 7F 77 68 30 31  45 08 80 F0 FF FF 7F F0  ....wh01E.......
0360: FF FF 7F 77 68 30 32 01  80 6E 4A 72 05 01 1F 80  ...wh02..nJr....
0370: 99 4A 72 05 01 1D 20 80  23 99 4A 72 05 01 52 08  .Jr... .#.Jr..R.
0380: 80 F0 FF FF 7F F0 FF FF  7F 77 68 30 32 45 08 80  .........wh02E..
0390: F0 FF FF 7F F0 FF FF 7F  77 68 31 37 01 80 66 01  ........wh17..f.
03A0: 80 F8 FF FF 7F F8 FF FF  7F 74 6C 6B 31 1D 21 80  .........tlk1.!.
03B0: 23 24 22 80 01 80 01 80  25 02 00 10 01 80 00 D6  #$".....%.......
03C0: 03 6E F0 FF FF 7F 23 80  99 F0 FF FF 7F 1C 24 80  .n....#.......$.
03D0: 01 F3 03 01 F3 03 02 00  10 25 80 00 F3 03 6E F0  .........%....n.
03E0: FF FF 7F 13 80 99 F0 FF  FF 7F 1C 24 80 01 F3 03  ...........$....
03F0: 01 F3 03 66 01 80 F8 FF  FF 7F F8 FF FF 7F 74 65  ...f..........te
0400: 6E 31 53 F8 FF FF 7F F8  FF FF 7F 74 65 6E 31 2B  n1S........ten1+
0410: 19 72 05 01 26 80 23 1E  4B 72 05 01 6F 70 4A F0  .r..&.#.Kr..opJ.
0420: FF FF 7F 4B 72 05 01 52  08 80 F0 FF FF 7F F0 FF  ...Kr..R........
0430: FF 7F 77 68 31 37 45 08  80 F0 FF FF 7F F0 FF FF  ..wh17E.........
0440: 7F 77 68 30 33 01 80 29  0F 4B 72 05 01 02 4A 4B  .wh03..).Kr...JK
0450: 72 05 01 4A 72 05 01 66  01 80 F8 FF FF 7F F8 FF  r..Jr..f........
0460: FF 7F 74 6C 6B 31 1D 27  80 23 1E F0 FF FF 7F 6F  ..tlk1.'.#.....o
0470: 70 4A F0 FF FF 7F 4A 72  05 01 66 01 80 F8 FF FF  pJ....Jr..f.....
0480: 7F F8 FF FF 7F 74 6C 6B  30 1D 28 80 23 52 08 80  .....tlk0.(.#R..
0490: F0 FF FF 7F F0 FF FF 7F  77 68 30 33 45 08 80 F0  ........wh03E...
04A0: FF FF 7F F0 FF FF 7F 77  68 30 34 01 80 55 08 80  .......wh04..U..
04B0: F0 FF FF 7F F0 FF FF 7F  77 68 30 34 1C 29 80 45  ........wh04.).E
04C0: 08 80 F0 FF FF 7F F0 FF  FF 7F 77 68 30 35 01 80  ..........wh05..
04D0: 4A 4A 72 05 01 4B 72 05  01 66 01 80 F8 FF FF 7F  JJr..Kr..f......
04E0: F8 FF FF 7F 74 6C 6B 30  1D 2A 80 23 66 01 80 F8  ....tlk0.*.#f...
04F0: FF FF 7F F8 FF FF 7F 74  65 6E 30 53 F8 FF FF 7F  .......ten0S....
0500: F8 FF FF 7F 74 65 6E 30  52 08 80 F0 FF FF 7F F0  ....ten0R.......
0510: FF FF 7F 77 68 30 35 45  08 80 F0 FF FF 7F F0 FF  ...wh05E........
0520: FF 7F 77 68 30 36 01 80  5C 00 2B 80 5C 01 2B 80  ..wh06..\.+.\.+.
0530: 9A 66 1D 80 4B 72 05 01  4B 72 05 01 61 69 67 30  .f..Kr..Kr..aig0
0540: 2B 4B 72 05 01 2C 80 23  2B 4B 72 05 01 2D 80 23  +Kr..,.#+Kr..-.#
0550: 6E 4B 72 05 01 0F 80 99  4B 72 05 01 2B 4B 72 05  nKr.....Kr..+Kr.
0560: 01 2E 80 23 99 4B 72 05  01 45 08 80 F0 FF FF 7F  ...#.Kr..E......
0570: F0 FF FF 7F 77 68 30 37  01 80 6E 4A 72 05 01 1F  ....wh07..nJr...
0580: 80 99 4A 72 05 01 1D 2F  80 23 99 4A 72 05 01 6E  ..Jr.../.#.Jr..n
0590: 4A 72 05 01 30 80 99 4A  72 05 01 1D 31 80 23 99  Jr..0..Jr...1.#.
05A0: 4A 72 05 01 52 08 80 F0  FF FF 7F F0 FF FF 7F 77  Jr..R..........w
05B0: 68 30 37 45 08 80 F0 FF  FF 7F F0 FF FF 7F 77 68  h07E..........wh
05C0: 30 38 01 80 66 1D 80 4B  72 05 01 4B 72 05 01 75  08..f..Kr..Kr..u
05D0: 74 6C 30 2B 4B 72 05 01  32 80 23 6E 4B 72 05 01  tl0+Kr..2.#nKr..
05E0: 0F 80 99 4B 72 05 01 2B  4B 72 05 01 33 80 23 99  ...Kr..+Kr..3.#.
05F0: 4B 72 05 01 52 08 80 F0  FF FF 7F F0 FF FF 7F 77  Kr..R..........w
0600: 68 30 38 45 00 80 F0 FF  FF 7F F0 FF FF 7F 6F 76  h08E..........ov
0610: 6C 31 01 80 45 08 80 F0  FF FF 7F F0 FF FF 7F 77  l1..E..........w
0620: 68 30 39 01 80 66 1D 80  4B 72 05 01 4B 72 05 01  h09..f..Kr..Kr..
0630: 61 69 67 30 2B 4B 72 05  01 34 80 23 66 1D 80 4B  aig0+Kr..4.#f..K
0640: 72 05 01 4B 72 05 01 75  74 6C 30 2B 4B 72 05 01  r..Kr..utl0+Kr..
0650: 35 80 23 52 08 80 F0 FF  FF 7F F0 FF FF 7F 77 68  5.#R..........wh
0660: 30 39 45 00 80 F0 FF FF  7F F0 FF FF 7F 6F 76 6C  09E..........ovl
0670: 31 01 80 45 08 80 F0 FF  FF 7F F0 FF FF 7F 77 68  1..E..........wh
0680: 31 30 01 80 66 1D 80 4B  72 05 01 4B 72 05 01 6E  10..f..Kr..Kr..n
0690: 74 6C 30 2B 4B 72 05 01  36 80 23 66 1D 80 4B 72  tl0+Kr..6.#f..Kr
06A0: 05 01 4B 72 05 01 6E 74  6C 31 53 4B 72 05 01 4B  ..Kr..ntl1SKr..K
06B0: 72 05 01 6E 74 6C 31 52  08 80 F0 FF FF 7F F0 FF  r..ntl1R........
06C0: FF 7F 77 68 31 30 45 08  80 F0 FF FF 7F F0 FF FF  ..wh10E.........
06D0: 7F 77 68 31 31 01 80 66  01 80 F8 FF FF 7F F8 FF  .wh11..f........
06E0: FF 7F 74 6C 6B 31 1D 37  80 23 4A F0 FF FF 7F 4A  ..tlk1.7.#J....J
06F0: 72 05 01 1D 38 80 23 52  08 80 F0 FF FF 7F F0 FF  r...8.#R........
0700: FF 7F 77 68 31 31 45 08  80 F0 FF FF 7F F0 FF FF  ..wh11E.........
0710: 7F 77 68 31 32 01 80 6E  4A 72 05 01 03 80 99 4A  .wh12..nJr.....J
0720: 72 05 01 1D 39 80 23 99  4A 72 05 01 6E 4A 72 05  r...9.#.Jr..nJr.
0730: 01 3A 80 99 4A 72 05 01  99 4A 72 05 01 6E 4B 72  .:..Jr...Jr..nKr
0740: 05 01 3B 80 99 4B 72 05  01 1D 3C 80 23 6E 4A 72  ..;..Kr...<.#nJr
0750: 05 01 3D 80 99 4A 72 05  01 1D 3E 80 23 99 4A 72  ..=..Jr...>.#.Jr
0760: 05 01 52 08 80 F0 FF FF  7F F0 FF FF 7F 77 68 31  ..R..........wh1
0770: 32 45 08 80 F0 FF FF 7F  F0 FF FF 7F 77 68 31 38  2E..........wh18
0780: 01 80 4A F0 FF FF 7F 4B  72 05 01 6E 4B 72 05 01  ..J....Kr..nKr..
0790: 3F 80 99 4B 72 05 01 99  4B 72 05 01 1C 40 80 52  ?..Kr...Kr...@.R
07A0: 08 80 F0 FF FF 7F F0 FF  FF 7F 77 68 31 38 45 00  ..........wh18E.
07B0: 80 F0 FF FF 7F F0 FF FF  7F 6F 76 6C 31 01 80 45  .........ovl1..E
07C0: 08 80 F0 FF FF 7F F0 FF  FF 7F 77 68 31 33 01 80  ..........wh13..
07D0: 1C 41 80 27 0F 4B 72 05  01 03 55 08 80 F0 FF FF  .A.'.Kr...U.....
07E0: 7F F0 FF FF 7F 77 68 31  33 45 08 80 F0 FF FF 7F  .....wh13E......
07F0: F0 FF FF 7F 77 68 31 34  01 80 4E 01 4B 72 05 01  ....wh14..N.Kr..
0800: 5C 00 42 80 5C 01 42 80  9A 1C 02 80 6E 4A 72 05  \.B.\.B.....nJr.
0810: 01 43 80 99 4A 72 05 01  1D 44 80 23 99 4A 72 05  .C..Jr...D.#.Jr.
0820: 01 1E F0 FF FF 7F 6F 70  4A F0 FF FF 7F 4A 72 05  ......opJ....Jr.
0830: 01 52 08 80 F0 FF FF 7F  F0 FF FF 7F 77 68 31 34  .R..........wh14
0840: 45 08 80 F0 FF FF 7F F0  FF FF 7F 77 68 31 35 01  E..........wh15.
0850: 80 66 01 80 F8 FF FF 7F  F8 FF FF 7F 74 6C 6B 31  .f..........tlk1
0860: 1D 45 80 23 66 01 80 F8  FF FF 7F F8 FF FF 7F 74  .E.#f..........t
0870: 65 6E 31 53 F8 FF FF 7F  F8 FF FF 7F 74 65 6E 31  en1S........ten1
0880: 6E F0 FF FF 7F 3B 80 99  F0 FF FF 7F 1C 10 80 52  n....;.........R
0890: 08 80 F0 FF FF 7F F0 FF  FF 7F 77 68 31 35 45 08  ..........wh15E.
08A0: 80 F0 FF FF 7F F0 FF FF  7F 77 68 31 36 01 80 66  .........wh16..f
08B0: 01 80 F8 FF FF 7F F8 FF  FF 7F 74 6C 6B 30 1D 46  ..........tlk0.F
08C0: 80 23 66 01 80 F8 FF FF  7F F8 FF FF 7F 70 61 73  .#f..........pas
08D0: 30 1C 40 80 66 01 80 F8  FF FF 7F F8 FF FF 7F 74  0.@.f..........t
08E0: 6C 6B 30 1D 47 80 23 6E  4A 72 05 01 1F 80 99 4A  lk0.G.#nJr.....J
08F0: 72 05 01 1D 48 80 23 99  4A 72 05 01 6E 4A 72 05  r...H.#.Jr..nJr.
0900: 01 1F 80 99 4A 72 05 01  45 00 80 F0 FF FF 7F F0  ....Jr..E.......
0910: FF FF 7F 66 64 6F 31 01  80 1C 02 80 52 08 80 F0  ...fdo1.....R...
0920: FF FF 7F F0 FF FF 7F 77  68 31 36 46 00 45 00 80  .......wh16F.E..
0930: F0 FF FF 7F F0 FF FF 7F  66 64 69 31 01 80 21 00  ........fdi1..!.
```

#### Opcodes

```
  0: 0x02AD [0x42] SET_CLI_EVENT_CANCEL_DATA()
  1: 0x02AE [0x20] SET_CLI_EVENT_UC_FLAG: Lock player control
  2: 0x02B0 [0x46] CAMERA_CONTROL: Disable user control
  3: 0x02B2 [0x45] LOAD_SCHEDULED_TASK: Load scheduler "fdo1" with entities [LocalPlayer, LocalPlayer], work=[200*, 0*]
  4: 0x02C3 [0x1C] WAIT(60* ticks)
  5: 0x02C6 [0x38] SET_CLIENT_EVENT_MODE(mode=19*)
  6: 0x02C9 [0xBA] SET_ENTITY_POSITION(entity_id=LocalPlayer, pos_x=-142.323*, pos_z=-88.579*, pos_y=-4.000*, direction=290.0°*)
  7: 0x02D6 [0x80] LOAD_WAIT(entity=LocalPlayer)
  8: 0x02DB [0x80] LOAD_WAIT(entity=Wahid (ID: 17134154/0x0105724A))
  9: 0x02E0 [0x92] Wahid (ID: 17134154/0x0105724A)->Render.Flags3 ^= 0x01
 10: 0x02E6 [0x1E] EventEntity looks at LocalPlayer and starts talking
 11: 0x02EB [0xBA] SET_ENTITY_POSITION(entity_id=Swantje (ID: 17134155/0x0105724B), pos_x=-148.382*, pos_z=-87.562*, pos_y=-4.000*, direction=359.9°*)
 12: 0x02F8 [0x2F] Swantje (ID: 17134155/0x0105724B)->Render.Flags0 &= ~0x80000 // Bit 19
 13: 0x02FE [0x4E] SET_ENTITY_HIDE_FLAG: Show Swantje (ID: 17134155/0x0105724B)
 14: 0x0304 [0x80] LOAD_WAIT(entity=Swantje (ID: 17134155/0x0105724B))
 15: 0x0309 [0x92] Swantje (ID: 17134155/0x0105724B)->Render.Flags3 ^= 0x01
 16: 0x030F [0x45] LOAD_SCHEDULED_TASK: Load scheduler "wh01" with entities [LocalPlayer, LocalPlayer], work=[456*, 0*]
 17: 0x0320 [0x45] LOAD_SCHEDULED_TASK: Load scheduler "fdi1" with entities [LocalPlayer, LocalPlayer], work=[200*, 0*]
 18: 0x0331 [0x1C] WAIT(60* ticks)
 19: 0x0334 [0x6E] Wahid (ID: 17134154/0x0105724A) uses emote 11*
 20: 0x033B [0x99] Wait for Wahid (ID: 17134154/0x0105724A) animation to complete
 21: 0x0340 [0x1D] PRINT_EVENT_MESSAGE(message_id=7631*)
    → "Oho! I knew I could count on you! After all, my sterling character judgment is quite renowned in the Bastokan merchant circle."
 22: 0x0343 [0x23] WAIT_FOR_DIALOG_INTERACTION
 23: 0x0344 [0x99] Wait for Wahid (ID: 17134154/0x0105724A) animation to complete
 24: 0x0349 [0x52] END_LOAD_SCHEDULER: End scheduler "wh01" with entities [LocalPlayer, LocalPlayer], work=456*
 25: 0x0358 [0x45] LOAD_SCHEDULED_TASK: Load scheduler "wh02" with entities [LocalPlayer, LocalPlayer], work=[456*, 0*]
 26: 0x0369 [0x6E] Wahid (ID: 17134154/0x0105724A) uses emote 4*
 27: 0x0370 [0x99] Wait for Wahid (ID: 17134154/0x0105724A) animation to complete
 28: 0x0375 [0x1D] PRINT_EVENT_MESSAGE(message_id=7632*)
    → "Ah, yes! Splendiferous! Magnificent! I need only sell these, and I'll have wine enough to bathe in!"
 29: 0x0378 [0x23] WAIT_FOR_DIALOG_INTERACTION
 30: 0x0379 [0x99] Wait for Wahid (ID: 17134154/0x0105724A) animation to complete
 31: 0x037E [0x52] END_LOAD_SCHEDULER: End scheduler "wh02" with entities [LocalPlayer, LocalPlayer], work=456*
 32: 0x038D [0x45] LOAD_SCHEDULED_TASK: Load scheduler "wh17" with entities [LocalPlayer, LocalPlayer], work=[456*, 0*]
 33: 0x039E [0x66] LOAD_EXT_SCHEDULER_MAIN: Load scheduler "tlk1" with entities [EventEntity, EventEntity], work=0*
 34: 0x03AD [0x1D] PRINT_EVENT_MESSAGE(message_id=7633*)
    → "What say you to 50,000 gil for the lot of them? You see? My far-famed generosity knows no bounds!"
 35: 0x03B0 [0x23] WAIT_FOR_DIALOG_INTERACTION
 36: 0x03B1 [0x24] CREATE_DIALOG(message_id=7634*, default_option=0*, option_flags=0*)
    → "Sell the three gems for 50,000 gil? [Show me the money!/On second thought...]"
 37: 0x03B8 [0x25] WAIT_DIALOG_SELECT()
 38: 0x03B9 [0x02] IF !(Work_Zone[0] == 0*) GOTO 0x03D6
 39: 0x03C1 [0x6E] LocalPlayer uses emote 7*
 40: 0x03C8 [0x99] Wait for LocalPlayer animation to complete
 41: 0x03CD [0x1C] WAIT(120* ticks)
 42: 0x03D0 [0x01] GOTO 0x03F3

SUBROUTINE_03F3:
 43: 0x03F3 [0x66] LOAD_EXT_SCHEDULER_MAIN: Load scheduler "ten1" with entities [EventEntity, EventEntity], work=0*
 44: 0x0402 [0x53] WAIT_SCHEDULER_TASK: Wait for scheduler "ten1" with entities [EventEntity, EventEntity]
 45: 0x040F [0x2B] ??? (ID: 17134105/0x01057219) [7635*]:
    → "Wahid! What's all this hubbub? I could hear your blathering all the way from my studio!"
 46: 0x0416 [0x23] WAIT_FOR_DIALOG_INTERACTION
 47: 0x0417 [0x1E] EventEntity looks at Swantje (ID: 17134155/0x0105724B) and starts talking
 48: 0x041C [0x6F] WAIT_FRAME_DELAY: Yield until WaitTime reaches zero
 49: 0x041D [0x70] WAIT_ENTITY_RENDER_FLAG: Wait while EventEntity->Render.Flags3 bit 2 is set (cancel turn if not)
 50: 0x041E [0x4A] LocalPlayer looks at Swantje (ID: 17134155/0x0105724B)
 51: 0x0427 [0x52] END_LOAD_SCHEDULER: End scheduler "wh17" with entities [LocalPlayer, LocalPlayer], work=456*
 52: 0x0436 [0x45] LOAD_SCHEDULED_TASK: Load scheduler "wh03" with entities [LocalPlayer, LocalPlayer], work=[456*, 0*]
 53: 0x0447 [0x29] REQ_SET_WAIT(priority=0x0F, entity_id=Swantje (ID: 17134155/0x0105724B), tag_num=0x02)
 54: 0x044E [0x4A] Swantje (ID: 17134155/0x0105724B) looks at Wahid (ID: 17134154/0x0105724A)
 55: 0x0457 [0x66] LOAD_EXT_SCHEDULER_MAIN: Load scheduler "tlk1" with entities [EventEntity, EventEntity], work=0*
 56: 0x0466 [0x1D] PRINT_EVENT_MESSAGE(message_id=7636*)
    → "Oh, there you are, my dear! You couldn't have picked a finer time to come."
 57: 0x0469 [0x23] WAIT_FOR_DIALOG_INTERACTION
 58: 0x046A [0x1E] EventEntity looks at LocalPlayer and starts talking
 59: 0x046F [0x6F] WAIT_FRAME_DELAY: Yield until WaitTime reaches zero
 60: 0x0470 [0x70] WAIT_ENTITY_RENDER_FLAG: Wait while EventEntity->Render.Flags3 bit 2 is set (cancel turn if not)
 61: 0x0471 [0x4A] LocalPlayer looks at Wahid (ID: 17134154/0x0105724A)
 62: 0x047A [0x66] LOAD_EXT_SCHEDULER_MAIN: Load scheduler "tlk0" with entities [EventEntity, EventEntity], work=0*
 63: 0x0489 [0x1D] PRINT_EVENT_MESSAGE(message_id=7637*)
    → "This is my wife Swantje, of whom I spoke. And this, my dear, is the industrious young [man/woman] who has brought the gems that will make me--<ahem!>, I mean us--rich beyond our wildest dreams!"
 64: 0x048C [0x23] WAIT_FOR_DIALOG_INTERACTION
 65: 0x048D [0x52] END_LOAD_SCHEDULER: End scheduler "wh03" with entities [LocalPlayer, LocalPlayer], work=456*
 66: 0x049C [0x45] LOAD_SCHEDULED_TASK: Load scheduler "wh04" with entities [LocalPlayer, LocalPlayer], work=[456*, 0*]
 67: 0x04AD [0x55] WAIT_LOAD_SCHEDULER: Wait for scheduler "wh04" with entities [LocalPlayer, LocalPlayer], work=456*
 68: 0x04BC [0x1C] WAIT(90* ticks)
 69: 0x04BF [0x45] LOAD_SCHEDULED_TASK: Load scheduler "wh05" with entities [LocalPlayer, LocalPlayer], work=[456*, 0*]
 70: 0x04D0 [0x4A] Wahid (ID: 17134154/0x0105724A) looks at Swantje (ID: 17134155/0x0105724B)
 71: 0x04D9 [0x66] LOAD_EXT_SCHEDULER_MAIN: Load scheduler "tlk0" with entities [EventEntity, EventEntity], work=0*
 72: 0x04E8 [0x1D] PRINT_EVENT_MESSAGE(message_id=7638*)
    → "So hop to it, honey. Work your magic on these beauties!"
 73: 0x04EB [0x23] WAIT_FOR_DIALOG_INTERACTION
 74: 0x04EC [0x66] LOAD_EXT_SCHEDULER_MAIN: Load scheduler "ten0" with entities [EventEntity, EventEntity], work=0*
 75: 0x04FB [0x53] WAIT_SCHEDULER_TASK: Wait for scheduler "ten0" with entities [EventEntity, EventEntity]
 76: 0x0508 [0x52] END_LOAD_SCHEDULER: End scheduler "wh05" with entities [LocalPlayer, LocalPlayer], work=456*
 77: 0x0517 [0x45] LOAD_SCHEDULED_TASK: Load scheduler "wh06" with entities [LocalPlayer, LocalPlayer], work=[456*, 0*]
 78: 0x0528 [0x5C] MUSIC_CONTROL: Set Idle (Day) music to song 127*
 79: 0x052C [0x5C] MUSIC_CONTROL: Set Idle (Night) music to song 127*
 80: 0x0530 [0x9A] WAIT_MUSIC_SERVER()
 81: 0x0531 [0x66] LOAD_EXT_SCHEDULER_MAIN: Load scheduler "aig0" with entities [Swantje (ID: 17134155/0x0105724B), Swantje (ID: 17134155/0x0105724B)], work=11*
 82: 0x0540 [0x2B] Swantje (ID: 17134155/0x0105724B) [7639*]:
    → "Wahid... Must you truly go on with this?"
 83: 0x0547 [0x23] WAIT_FOR_DIALOG_INTERACTION
 84: 0x0548 [0x2B] Swantje (ID: 17134155/0x0105724B) [7640*]:
    → "Even the most precious gem that never leaves its jewel casket is naught but a lonely rock."
 85: 0x054F [0x23] WAIT_FOR_DIALOG_INTERACTION
 86: 0x0550 [0x6E] Swantje (ID: 17134155/0x0105724B) uses emote 22*
 87: 0x0557 [0x99] Wait for Swantje (ID: 17134155/0x0105724B) animation to complete
 88: 0x055C [0x2B] Swantje (ID: 17134155/0x0105724B) [7641*]:
    → "Bastok is at war...or haven't you noticed? In these hard times, it is all folk like us can do to get through each day with food on our tables and our loved ones' lives intact. Still you look only to profit off the sale of these luxuries?"
 89: 0x0563 [0x23] WAIT_FOR_DIALOG_INTERACTION
 90: 0x0564 [0x99] Wait for Swantje (ID: 17134155/0x0105724B) animation to complete
 91: 0x0569 [0x45] LOAD_SCHEDULED_TASK: Load scheduler "wh07" with entities [LocalPlayer, LocalPlayer], work=[456*, 0*]
 92: 0x057A [0x6E] Wahid (ID: 17134154/0x0105724A) uses emote 4*
 93: 0x0581 [0x99] Wait for Wahid (ID: 17134154/0x0105724A) animation to complete
 94: 0x0586 [0x1D] PRINT_EVENT_MESSAGE(message_id=7642*)
    → "Ahahaha! Bwahahaha--<cough, hack>. Please stop, my dear, lest I bust a gut from laughter!"
 95: 0x0589 [0x23] WAIT_FOR_DIALOG_INTERACTION
 96: 0x058A [0x99] Wait for Wahid (ID: 17134154/0x0105724A) animation to complete
 97: 0x058F [0x6E] Wahid (ID: 17134154/0x0105724A) uses emote 10*
 98: 0x0596 [0x99] Wait for Wahid (ID: 17134154/0x0105724A) animation to complete
 99: 0x059B [0x1D] PRINT_EVENT_MESSAGE(message_id=7643*)
    → "'Tis precisely because our lives may end at any moment that I choose to make the most of the time I have. If some vainglorious goodwife is willing to lighten her purse to that end, who am I to stand in the way? Would you deny me that?"
100: 0x059E [0x23] WAIT_FOR_DIALOG_INTERACTION
101: 0x059F [0x99] Wait for Wahid (ID: 17134154/0x0105724A) animation to complete
102: 0x05A4 [0x52] END_LOAD_SCHEDULER: End scheduler "wh07" with entities [LocalPlayer, LocalPlayer], work=456*
103: 0x05B3 [0x45] LOAD_SCHEDULED_TASK: Load scheduler "wh08" with entities [LocalPlayer, LocalPlayer], work=[456*, 0*]
104: 0x05C4 [0x66] LOAD_EXT_SCHEDULER_MAIN: Load scheduler "utl0" with entities [Swantje (ID: 17134155/0x0105724B), Swantje (ID: 17134155/0x0105724B)], work=11*
105: 0x05D3 [0x2B] Swantje (ID: 17134155/0x0105724B) [7644*]:
    → "But Wahid...is there not a greater good we could be serving?"
106: 0x05DA [0x23] WAIT_FOR_DIALOG_INTERACTION
107: 0x05DB [0x6E] Swantje (ID: 17134155/0x0105724B) uses emote 22*
108: 0x05E2 [0x99] Wait for Swantje (ID: 17134155/0x0105724B) animation to complete
109: 0x05E7 [0x2B] Swantje (ID: 17134155/0x0105724B) [7645*]:
    → "A truer cause that calls for our aid?"
110: 0x05EE [0x23] WAIT_FOR_DIALOG_INTERACTION
111: 0x05EF [0x99] Wait for Swantje (ID: 17134155/0x0105724B) animation to complete
112: 0x05F4 [0x52] END_LOAD_SCHEDULER: End scheduler "wh08" with entities [LocalPlayer, LocalPlayer], work=456*
113: 0x0603 [0x45] LOAD_SCHEDULED_TASK: Load scheduler "ovl1" with entities [LocalPlayer, LocalPlayer], work=[200*, 0*]
114: 0x0614 [0x45] LOAD_SCHEDULED_TASK: Load scheduler "wh09" with entities [LocalPlayer, LocalPlayer], work=[456*, 0*]
115: 0x0625 [0x66] LOAD_EXT_SCHEDULER_MAIN: Load scheduler "aig0" with entities [Swantje (ID: 17134155/0x0105724B), Swantje (ID: 17134155/0x0105724B)], work=11*
116: 0x0634 [0x2B] Swantje (ID: 17134155/0x0105724B) [7646*]:
    → "In these trying times, it is not lavish baubles that renew people's spirits, but hopes and dreams of a brighter future!"
117: 0x063B [0x23] WAIT_FOR_DIALOG_INTERACTION
118: 0x063C [0x66] LOAD_EXT_SCHEDULER_MAIN: Load scheduler "utl0" with entities [Swantje (ID: 17134155/0x0105724B), Swantje (ID: 17134155/0x0105724B)], work=11*
119: 0x064B [0x2B] Swantje (ID: 17134155/0x0105724B) [7647*]:
    → "Here is what I propose. Forget precious gems. We can fashion a new line of goods to sell at a more modest price."
120: 0x0652 [0x23] WAIT_FOR_DIALOG_INTERACTION
121: 0x0653 [0x52] END_LOAD_SCHEDULER: End scheduler "wh09" with entities [LocalPlayer, LocalPlayer], work=456*
122: 0x0662 [0x45] LOAD_SCHEDULED_TASK: Load scheduler "ovl1" with entities [LocalPlayer, LocalPlayer], work=[200*, 0*]
123: 0x0673 [0x45] LOAD_SCHEDULED_TASK: Load scheduler "wh10" with entities [LocalPlayer, LocalPlayer], work=[456*, 0*]
124: 0x0684 [0x66] LOAD_EXT_SCHEDULER_MAIN: Load scheduler "ntl0" with entities [Swantje (ID: 17134155/0x0105724B), Swantje (ID: 17134155/0x0105724B)], work=11*
125: 0x0693 [0x2B] Swantje (ID: 17134155/0x0105724B) [7648*]:
    → "What if you could find...yes, the mystic stones spoken of in the old legends. I could fashion them into good-luck charms. Anything to give the fearful townsfolk a dose of hope and courage."
126: 0x069A [0x23] WAIT_FOR_DIALOG_INTERACTION
127: 0x069B [0x66] LOAD_EXT_SCHEDULER_MAIN: Load scheduler "ntl1" with entities [Swantje (ID: 17134155/0x0105724B), Swantje (ID: 17134155/0x0105724B)], work=11*
128: 0x06AA [0x53] WAIT_SCHEDULER_TASK: Wait for scheduler "ntl1" with entities [Swantje (ID: 17134155/0x0105724B), Swantje (ID: 17134155/0x0105724B)]
129: 0x06B7 [0x52] END_LOAD_SCHEDULER: End scheduler "wh10" with entities [LocalPlayer, LocalPlayer], work=456*
130: 0x06C6 [0x45] LOAD_SCHEDULED_TASK: Load scheduler "wh11" with entities [LocalPlayer, LocalPlayer], work=[456*, 0*]
131: 0x06D7 [0x66] LOAD_EXT_SCHEDULER_MAIN: Load scheduler "tlk1" with entities [EventEntity, EventEntity], work=0*
132: 0x06E6 [0x1D] PRINT_EVENT_MESSAGE(message_id=7649*)
    → "Mystic stones? Good-luck charms? Bwahahahahahaha!"
133: 0x06E9 [0x23] WAIT_FOR_DIALOG_INTERACTION
134: 0x06EA [0x4A] LocalPlayer looks at Wahid (ID: 17134154/0x0105724A)
135: 0x06F3 [0x1D] PRINT_EVENT_MESSAGE(message_id=7650*)
    → "You're quite the jokester today, my dear! Even if such things existed--which I doubt they do--why should I break my back hunting down pebbles that would bring but a pittance in return?"
136: 0x06F6 [0x23] WAIT_FOR_DIALOG_INTERACTION
137: 0x06F7 [0x52] END_LOAD_SCHEDULER: End scheduler "wh11" with entities [LocalPlayer, LocalPlayer], work=456*
138: 0x0706 [0x45] LOAD_SCHEDULED_TASK: Load scheduler "wh12" with entities [LocalPlayer, LocalPlayer], work=[456*, 0*]
139: 0x0717 [0x6E] Wahid (ID: 17134154/0x0105724A) uses emote 19*
140: 0x071E [0x99] Wait for Wahid (ID: 17134154/0x0105724A) animation to complete
141: 0x0723 [0x1D] PRINT_EVENT_MESSAGE(message_id=7651*)
    → "You may have talent, but let us not forget that it's me and my prodigious gem acquisition skills that put the food on our table."
142: 0x0726 [0x23] WAIT_FOR_DIALOG_INTERACTION
143: 0x0727 [0x99] Wait for Wahid (ID: 17134154/0x0105724A) animation to complete
144: 0x072C [0x6E] Wahid (ID: 17134154/0x0105724A) uses emote 33*
145: 0x0733 [0x99] Wait for Wahid (ID: 17134154/0x0105724A) animation to complete
146: 0x0738 [0x99] Wait for Wahid (ID: 17134154/0x0105724A) animation to complete
147: 0x073D [0x6E] Swantje (ID: 17134155/0x0105724B) uses emote 21*
148: 0x0744 [0x99] Wait for Swantje (ID: 17134155/0x0105724B) animation to complete
149: 0x0749 [0x1D] PRINT_EVENT_MESSAGE(message_id=7652*)
    → "Hopes? Dreams? Courage? P'shaw! I'm a businessman--a successful one at that--and I intend to stay that way."
150: 0x074C [0x23] WAIT_FOR_DIALOG_INTERACTION
151: 0x074D [0x6E] Wahid (ID: 17134154/0x0105724A) uses emote 25*
152: 0x0754 [0x99] Wait for Wahid (ID: 17134154/0x0105724A) animation to complete
153: 0x0759 [0x1D] PRINT_EVENT_MESSAGE(message_id=7653*)
    → "If the mushy sentiments of the rabble are of such concern to you, maybe you should go find your precious "mystic stones" yourself!"
154: 0x075C [0x23] WAIT_FOR_DIALOG_INTERACTION
155: 0x075D [0x99] Wait for Wahid (ID: 17134154/0x0105724A) animation to complete
156: 0x0762 [0x52] END_LOAD_SCHEDULER: End scheduler "wh12" with entities [LocalPlayer, LocalPlayer], work=456*
157: 0x0771 [0x45] LOAD_SCHEDULED_TASK: Load scheduler "wh18" with entities [LocalPlayer, LocalPlayer], work=[456*, 0*]
158: 0x0782 [0x4A] LocalPlayer looks at Swantje (ID: 17134155/0x0105724B)
159: 0x078B [0x6E] Swantje (ID: 17134155/0x0105724B) uses emote 5*
160: 0x0792 [0x99] Wait for Swantje (ID: 17134155/0x0105724B) animation to complete
161: 0x0797 [0x99] Wait for Swantje (ID: 17134155/0x0105724B) animation to complete
162: 0x079C [0x1C] WAIT(240* ticks)
163: 0x079F [0x52] END_LOAD_SCHEDULER: End scheduler "wh18" with entities [LocalPlayer, LocalPlayer], work=456*
164: 0x07AE [0x45] LOAD_SCHEDULED_TASK: Load scheduler "ovl1" with entities [LocalPlayer, LocalPlayer], work=[200*, 0*]
165: 0x07BF [0x45] LOAD_SCHEDULED_TASK: Load scheduler "wh13" with entities [LocalPlayer, LocalPlayer], work=[456*, 0*]
166: 0x07D0 [0x1C] WAIT(30* ticks)
167: 0x07D3 [0x27] REQ_SET(priority=0x0F, entity_id=Swantje (ID: 17134155/0x0105724B), tag_num=0x03)
168: 0x07DA [0x55] WAIT_LOAD_SCHEDULER: Wait for scheduler "wh13" with entities [LocalPlayer, LocalPlayer], work=456*
169: 0x07E9 [0x45] LOAD_SCHEDULED_TASK: Load scheduler "wh14" with entities [LocalPlayer, LocalPlayer], work=[456*, 0*]
170: 0x07FA [0x4E] SET_ENTITY_HIDE_FLAG: Hide Swantje (ID: 17134155/0x0105724B)
171: 0x0800 [0x5C] MUSIC_CONTROL: Set Idle (Day) music to song 180*
172: 0x0804 [0x5C] MUSIC_CONTROL: Set Idle (Night) music to song 180*
173: 0x0808 [0x9A] WAIT_MUSIC_SERVER()
174: 0x0809 [0x1C] WAIT(60* ticks)
175: 0x080C [0x6E] Wahid (ID: 17134154/0x0105724A) uses emote 26*
176: 0x0813 [0x99] Wait for Wahid (ID: 17134154/0x0105724A) animation to complete
177: 0x0818 [0x1D] PRINT_EVENT_MESSAGE(message_id=7654*)
    → "There she goes again. Oh well, can't say I didn't try to talk some sense into her."
178: 0x081B [0x23] WAIT_FOR_DIALOG_INTERACTION
179: 0x081C [0x99] Wait for Wahid (ID: 17134154/0x0105724A) animation to complete
180: 0x0821 [0x1E] EventEntity looks at LocalPlayer and starts talking
181: 0x0826 [0x6F] WAIT_FRAME_DELAY: Yield until WaitTime reaches zero
182: 0x0827 [0x70] WAIT_ENTITY_RENDER_FLAG: Wait while EventEntity->Render.Flags3 bit 2 is set (cancel turn if not)
183: 0x0828 [0x4A] LocalPlayer looks at Wahid (ID: 17134154/0x0105724A)
184: 0x0831 [0x52] END_LOAD_SCHEDULER: End scheduler "wh14" with entities [LocalPlayer, LocalPlayer], work=456*
185: 0x0840 [0x45] LOAD_SCHEDULED_TASK: Load scheduler "wh15" with entities [LocalPlayer, LocalPlayer], work=[456*, 0*]
186: 0x0851 [0x66] LOAD_EXT_SCHEDULER_MAIN: Load scheduler "tlk1" with entities [EventEntity, EventEntity], work=0*
187: 0x0860 [0x1D] PRINT_EVENT_MESSAGE(message_id=7655*)
    → "I'm afraid we'll have to put our little transaction on hold."
188: 0x0863 [0x23] WAIT_FOR_DIALOG_INTERACTION
189: 0x0864 [0x66] LOAD_EXT_SCHEDULER_MAIN: Load scheduler "ten1" with entities [EventEntity, EventEntity], work=0*
190: 0x0873 [0x53] WAIT_SCHEDULER_TASK: Wait for scheduler "ten1" with entities [EventEntity, EventEntity]
191: 0x0880 [0x6E] LocalPlayer uses emote 21*
192: 0x0887 [0x99] Wait for LocalPlayer animation to complete
193: 0x088C [0x1C] WAIT(150* ticks)
194: 0x088F [0x52] END_LOAD_SCHEDULER: End scheduler "wh15" with entities [LocalPlayer, LocalPlayer], work=456*
195: 0x089E [0x45] LOAD_SCHEDULED_TASK: Load scheduler "wh16" with entities [LocalPlayer, LocalPlayer], work=[456*, 0*]
196: 0x08AF [0x66] LOAD_EXT_SCHEDULER_MAIN: Load scheduler "tlk0" with entities [EventEntity, EventEntity], work=0*
197: 0x08BE [0x1D] PRINT_EVENT_MESSAGE(message_id=7656*)
    → "She's a willful one, but without her skills, those stones won't sell for a tenth of what I offered you."
198: 0x08C1 [0x23] WAIT_FOR_DIALOG_INTERACTION
199: 0x08C2 [0x66] LOAD_EXT_SCHEDULER_MAIN: Load scheduler "pas0" with entities [EventEntity, EventEntity], work=0*
200: 0x08D1 [0x1C] WAIT(240* ticks)
201: 0x08D4 [0x66] LOAD_EXT_SCHEDULER_MAIN: Load scheduler "tlk0" with entities [EventEntity, EventEntity], work=0*
202: 0x08E3 [0x1D] PRINT_EVENT_MESSAGE(message_id=7657*)
    → "But worry not, friend! She'll come around, as she always does. My infallible merchant's instincts tell me so."
203: 0x08E6 [0x23] WAIT_FOR_DIALOG_INTERACTION
204: 0x08E7 [0x6E] Wahid (ID: 17134154/0x0105724A) uses emote 4*
205: 0x08EE [0x99] Wait for Wahid (ID: 17134154/0x0105724A) animation to complete
206: 0x08F3 [0x1D] PRINT_EVENT_MESSAGE(message_id=7658*)
    → "It won't be long before we're all rolling in gil. Ahahaha! Bwahahahahahaha--<cough, hack>."
207: 0x08F6 [0x23] WAIT_FOR_DIALOG_INTERACTION
208: 0x08F7 [0x99] Wait for Wahid (ID: 17134154/0x0105724A) animation to complete
209: 0x08FC [0x6E] Wahid (ID: 17134154/0x0105724A) uses emote 4*
210: 0x0903 [0x99] Wait for Wahid (ID: 17134154/0x0105724A) animation to complete
211: 0x0908 [0x45] LOAD_SCHEDULED_TASK: Load scheduler "fdo1" with entities [LocalPlayer, LocalPlayer], work=[200*, 0*]
212: 0x0919 [0x1C] WAIT(60* ticks)
213: 0x091C [0x52] END_LOAD_SCHEDULER: End scheduler "wh16" with entities [LocalPlayer, LocalPlayer], work=456*
214: 0x092B [0x46] CAMERA_CONTROL: Restore default settings
215: 0x092D [0x45] LOAD_SCHEDULED_TASK: Load scheduler "fdi1" with entities [LocalPlayer, LocalPlayer], work=[200*, 0*]
216: 0x093E [0x21] END_EVENT
217: 0x093F [0x00] END_REQSTACK()
```

#### Data or dead code:

```
# Dead code (unreachable instructions):
     0x03D3 [0x01] GOTO 0x03F3
     0x03F0 [0x01] GOTO 0x03F3
```

### Event 338

#### Metadata

| Field        | Value    |
|--------------|----------|
| Entrypoint   | 0x0940   |
| Data Size    | 77 bytes |
| Instructions | 15       |

```
      00 01 02 03 04 05 06 07  08 09 0A 0B 0C 0D 0E 0F
      -- -- -- -- -- -- -- --  -- -- -- -- -- -- -- --
0940: 1E F0 FF FF 7F 6F 70 66  01 80 F8 FF FF 7F F8 FF  .....opf........
0950: FF 7F 74 6C 6B 30 1D 47  80 23 66 01 80 F8 FF FF  ..tlk0.G.#f.....
0960: 7F F8 FF FF 7F 74 65 6E  30 53 F8 FF FF 7F F8 FF  .....ten0S......
0970: FF 7F 74 65 6E 31 6E 4A  72 05 01 1F 80 99 4A 72  ..ten1nJr.....Jr
0980: 05 01 1D 48 80 23 99 4A  72 05 01 21 00           ...H.#.Jr..!.   
```

#### Opcodes

```
  0: 0x0940 [0x1E] EventEntity looks at LocalPlayer and starts talking
  1: 0x0945 [0x6F] WAIT_FRAME_DELAY: Yield until WaitTime reaches zero
  2: 0x0946 [0x70] WAIT_ENTITY_RENDER_FLAG: Wait while EventEntity->Render.Flags3 bit 2 is set (cancel turn if not)
  3: 0x0947 [0x66] LOAD_EXT_SCHEDULER_MAIN: Load scheduler "tlk0" with entities [EventEntity, EventEntity], work=0*
  4: 0x0956 [0x1D] PRINT_EVENT_MESSAGE(message_id=7657*)
    → "But worry not, friend! She'll come around, as she always does. My infallible merchant's instincts tell me so."
  5: 0x0959 [0x23] WAIT_FOR_DIALOG_INTERACTION
  6: 0x095A [0x66] LOAD_EXT_SCHEDULER_MAIN: Load scheduler "ten0" with entities [EventEntity, EventEntity], work=0*
  7: 0x0969 [0x53] WAIT_SCHEDULER_TASK: Wait for scheduler "ten1" with entities [EventEntity, EventEntity]
  8: 0x0976 [0x6E] Wahid (ID: 17134154/0x0105724A) uses emote 4*
  9: 0x097D [0x99] Wait for Wahid (ID: 17134154/0x0105724A) animation to complete
 10: 0x0982 [0x1D] PRINT_EVENT_MESSAGE(message_id=7658*)
    → "It won't be long before we're all rolling in gil. Ahahaha! Bwahahahahahaha--<cough, hack>."
 11: 0x0985 [0x23] WAIT_FOR_DIALOG_INTERACTION
 12: 0x0986 [0x99] Wait for Wahid (ID: 17134154/0x0105724A) animation to complete
 13: 0x098B [0x21] END_EVENT
 14: 0x098C [0x00] END_REQSTACK()
```

### Event 339

#### Metadata

| Field        | Value     |
|--------------|-----------|
| Entrypoint   | 0x098D    |
| Data Size    | 320 bytes |
| Instructions | 46        |

```
      00 01 02 03 04 05 06 07  08 09 0A 0B 0C 0D 0E 0F
      -- -- -- -- -- -- -- --  -- -- -- -- -- -- -- --
0980:                                         42 20 01               B .
0990: 46 01 45 00 80 F0 FF FF  7F F0 FF FF 7F 66 64 6F  F.E..........fdo
09A0: 31 01 80 1C 02 80 38 03  80 BA F0 FF FF 7F 17 80  1.....8.........
09B0: 18 80 06 80 19 80 80 F0  FF FF 7F 80 4A 72 05 01  ............Jr..
09C0: 92 01 4A 72 05 01 1E F0  FF FF 7F 45 08 80 F0 FF  ..Jr.......E....
09D0: FF 7F F0 FF FF 7F 77 68  31 39 01 80 45 00 80 F0  ......wh19..E...
09E0: FF FF 7F F0 FF FF 7F 66  64 69 31 01 80 1C 02 80  .......fdi1.....
09F0: 6E 4A 72 05 01 30 80 99  4A 72 05 01 1D 49 80 23  nJr..0..Jr...I.#
0A00: 99 4A 72 05 01 66 4A 80  F8 FF FF 7F F8 FF FF 7F  .Jr..fJ.........
0A10: 74 6C 6B 30 1D 4B 80 23  52 08 80 F0 FF FF 7F F0  tlk0.K.#R.......
0A20: FF FF 7F 77 68 31 39 45  08 80 F0 FF FF 7F F0 FF  ...wh19E........
0A30: FF 7F 77 68 32 35 01 80  1D 4C 80 23 1D 4D 80 23  ..wh25...L.#.M.#
0A40: 52 08 80 F0 FF FF 7F F0  FF FF 7F 77 68 32 35 45  R..........wh25E
0A50: 08 80 F0 FF FF 7F F0 FF  FF 7F 77 68 32 32 01 80  ..........wh22..
0A60: 1D 4E 80 23 66 4A 80 F8  FF FF 7F F8 FF FF 7F 74  .N.#fJ.........t
0A70: 6C 6B 31 53 F8 FF FF 7F  F8 FF FF 7F 74 6C 6B 31  lk1S........tlk1
0A80: 6E 4A 72 05 01 0F 80 99  4A 72 05 01 1D 4F 80 23  nJr.....Jr...O.#
0A90: 99 4A 72 05 01 45 00 80  F0 FF FF 7F F0 FF FF 7F  .Jr..E..........
0AA0: 66 64 6F 31 01 80 1C 02  80 52 08 80 F0 FF FF 7F  fdo1.....R......
0AB0: F0 FF FF 7F 77 68 32 32  46 00 45 00 80 F0 FF FF  ....wh22F.E.....
0AC0: 7F F0 FF FF 7F 66 64 69  31 01 80 21 00           .....fdi1..!.   
```

#### Opcodes

```
  0: 0x098D [0x42] SET_CLI_EVENT_CANCEL_DATA()
  1: 0x098E [0x20] SET_CLI_EVENT_UC_FLAG: Lock player control
  2: 0x0990 [0x46] CAMERA_CONTROL: Disable user control
  3: 0x0992 [0x45] LOAD_SCHEDULED_TASK: Load scheduler "fdo1" with entities [LocalPlayer, LocalPlayer], work=[200*, 0*]
  4: 0x09A3 [0x1C] WAIT(60* ticks)
  5: 0x09A6 [0x38] SET_CLIENT_EVENT_MODE(mode=19*)
  6: 0x09A9 [0xBA] SET_ENTITY_POSITION(entity_id=LocalPlayer, pos_x=-142.323*, pos_z=-88.579*, pos_y=-4.000*, direction=290.0°*)
  7: 0x09B6 [0x80] LOAD_WAIT(entity=LocalPlayer)
  8: 0x09BB [0x80] LOAD_WAIT(entity=Wahid (ID: 17134154/0x0105724A))
  9: 0x09C0 [0x92] Wahid (ID: 17134154/0x0105724A)->Render.Flags3 ^= 0x01
 10: 0x09C6 [0x1E] EventEntity looks at LocalPlayer and starts talking
 11: 0x09CB [0x45] LOAD_SCHEDULED_TASK: Load scheduler "wh19" with entities [LocalPlayer, LocalPlayer], work=[456*, 0*]
 12: 0x09DC [0x45] LOAD_SCHEDULED_TASK: Load scheduler "fdi1" with entities [LocalPlayer, LocalPlayer], work=[200*, 0*]
 13: 0x09ED [0x1C] WAIT(60* ticks)
 14: 0x09F0 [0x6E] Wahid (ID: 17134154/0x0105724A) uses emote 10*
 15: 0x09F7 [0x99] Wait for Wahid (ID: 17134154/0x0105724A) animation to complete
 16: 0x09FC [0x1D] PRINT_EVENT_MESSAGE(message_id=7659*)
    → "Oh ho! There you are! Sorry you had to witness our little lovers' spat the other day. Hohoho..."
 17: 0x09FF [0x23] WAIT_FOR_DIALOG_INTERACTION
 18: 0x0A00 [0x99] Wait for Wahid (ID: 17134154/0x0105724A) animation to complete
 19: 0x0A05 [0x66] LOAD_EXT_SCHEDULER_MAIN: Load scheduler "tlk0" with entities [EventEntity, EventEntity], work=9*
 20: 0x0A14 [0x1D] PRINT_EVENT_MESSAGE(message_id=7660*)
    → "Actually, speaking of my wife... You haven't perchance seen her around, have you?"
 21: 0x0A17 [0x23] WAIT_FOR_DIALOG_INTERACTION
 22: 0x0A18 [0x52] END_LOAD_SCHEDULER: End scheduler "wh19" with entities [LocalPlayer, LocalPlayer], work=456*
 23: 0x0A27 [0x45] LOAD_SCHEDULED_TASK: Load scheduler "wh25" with entities [LocalPlayer, LocalPlayer], work=[456*, 0*]
 24: 0x0A38 [0x1D] PRINT_EVENT_MESSAGE(message_id=7661*)
    → "It pains me to say this, but she hasn't been back home since that day."
 25: 0x0A3B [0x23] WAIT_FOR_DIALOG_INTERACTION
 26: 0x0A3C [0x1D] PRINT_EVENT_MESSAGE(message_id=7662*)
    → "Wherever could she have run off to?"
 27: 0x0A3F [0x23] WAIT_FOR_DIALOG_INTERACTION
 28: 0x0A40 [0x52] END_LOAD_SCHEDULER: End scheduler "wh25" with entities [LocalPlayer, LocalPlayer], work=456*
 29: 0x0A4F [0x45] LOAD_SCHEDULED_TASK: Load scheduler "wh22" with entities [LocalPlayer, LocalPlayer], work=[456*, 0*]
 30: 0x0A60 [0x1D] PRINT_EVENT_MESSAGE(message_id=7663*)
    → "I don't mean to turn you into my errand [boy/girl], but perhaps you could take a look around for her?"
 31: 0x0A63 [0x23] WAIT_FOR_DIALOG_INTERACTION
 32: 0x0A64 [0x66] LOAD_EXT_SCHEDULER_MAIN: Load scheduler "tlk1" with entities [EventEntity, EventEntity], work=9*
 33: 0x0A73 [0x53] WAIT_SCHEDULER_TASK: Wait for scheduler "tlk1" with entities [EventEntity, EventEntity]
 34: 0x0A80 [0x6E] Wahid (ID: 17134154/0x0105724A) uses emote 22*
 35: 0x0A87 [0x99] Wait for Wahid (ID: 17134154/0x0105724A) animation to complete
 36: 0x0A8C [0x1D] PRINT_EVENT_MESSAGE(message_id=7664*)
    → "It appears my infallible merchant's instincts aren't quite what they used to be. Ahahaha!"
 37: 0x0A8F [0x23] WAIT_FOR_DIALOG_INTERACTION
 38: 0x0A90 [0x99] Wait for Wahid (ID: 17134154/0x0105724A) animation to complete
 39: 0x0A95 [0x45] LOAD_SCHEDULED_TASK: Load scheduler "fdo1" with entities [LocalPlayer, LocalPlayer], work=[200*, 0*]
 40: 0x0AA6 [0x1C] WAIT(60* ticks)
 41: 0x0AA9 [0x52] END_LOAD_SCHEDULER: End scheduler "wh22" with entities [LocalPlayer, LocalPlayer], work=456*
 42: 0x0AB8 [0x46] CAMERA_CONTROL: Restore default settings
 43: 0x0ABA [0x45] LOAD_SCHEDULED_TASK: Load scheduler "fdi1" with entities [LocalPlayer, LocalPlayer], work=[200*, 0*]
 44: 0x0ACB [0x21] END_EVENT
 45: 0x0ACC [0x00] END_REQSTACK()
```

### Event 340

#### Metadata

| Field        | Value    |
|--------------|----------|
| Entrypoint   | 0x0ACD   |
| Data Size    | 43 bytes |
| Instructions | 9        |

```
      00 01 02 03 04 05 06 07  08 09 0A 0B 0C 0D 0E 0F
      -- -- -- -- -- -- -- --  -- -- -- -- -- -- -- --
0AC0:                                         1E F0 FF               ...
0AD0: FF 7F 6F 70 66 4A 80 F8  FF FF 7F F8 FF FF 7F 74  ..opfJ.........t
0AE0: 6C 6B 30 1D 50 80 23 66  4A 80 F8 FF FF 7F F8 FF  lk0.P.#fJ.......
0AF0: FF 7F 74 6C 6B 31 21 00                           ..tlk1!.        
```

#### Opcodes

```
  0: 0x0ACD [0x1E] EventEntity looks at LocalPlayer and starts talking
  1: 0x0AD2 [0x6F] WAIT_FRAME_DELAY: Yield until WaitTime reaches zero
  2: 0x0AD3 [0x70] WAIT_ENTITY_RENDER_FLAG: Wait while EventEntity->Render.Flags3 bit 2 is set (cancel turn if not)
  3: 0x0AD4 [0x66] LOAD_EXT_SCHEDULER_MAIN: Load scheduler "tlk0" with entities [EventEntity, EventEntity], work=9*
  4: 0x0AE3 [0x1D] PRINT_EVENT_MESSAGE(message_id=7665*)
    → "Please do let me know if you find any word of my wife. Hahaha, what's gotten into me? A businessman like me should have nerves of darksteel..."
  5: 0x0AE6 [0x23] WAIT_FOR_DIALOG_INTERACTION
  6: 0x0AE7 [0x66] LOAD_EXT_SCHEDULER_MAIN: Load scheduler "tlk1" with entities [EventEntity, EventEntity], work=9*
  7: 0x0AF6 [0x21] END_EVENT
  8: 0x0AF7 [0x00] END_REQSTACK()
```

### Event 341

#### Metadata

| Field        | Value      |
|--------------|------------|
| Entrypoint   | 0x0AF8     |
| Data Size    | 3052 bytes |
| Instructions | 354        |

```
      00 01 02 03 04 05 06 07  08 09 0A 0B 0C 0D 0E 0F
      -- -- -- -- -- -- -- --  -- -- -- -- -- -- -- --
0AF0:                          42 20 01 46 01 03 00 00          B .F....
0B00: 02 10 02 00 00 01 80 80  10 0B 01 1E 0B 01 1E 0B  ................
0B10: 02 00 00 25 80 80 1E 0B  01 0C 0D 01 1E 0B 45 00  ...%..........E.
0B20: 80 F0 FF FF 7F F0 FF FF  7F 66 64 6F 31 01 80 1C  .........fdo1...
0B30: 02 80 38 03 80 BA F0 FF  FF 7F 17 80 18 80 06 80  ..8.............
0B40: 19 80 80 F0 FF FF 7F 80  4A 72 05 01 92 01 4A 72  ........Jr....Jr
0B50: 05 01 1E F0 FF FF 7F 45  08 80 F0 FF FF 7F F0 FF  .......E........
0B60: FF 7F 77 68 31 36 01 80  45 00 80 F0 FF FF 7F F0  ..wh16..E.......
0B70: FF FF 7F 66 64 69 31 01  80 1C 02 80 66 4A 80 F8  ...fdi1.....fJ..
0B80: FF FF 7F F8 FF FF 7F 74  6C 6B 30 1D 51 80 23 66  .......tlk0.Q.#f
0B90: 4A 80 F8 FF FF 7F F8 FF  FF 7F 74 6C 6B 31 52 08  J.........tlk1R.
0BA0: 80 F0 FF FF 7F F0 FF FF  7F 77 68 31 36 45 08 80  .........wh16E..
0BB0: F0 FF FF 7F F0 FF FF 7F  77 68 31 37 01 80 24 52  ........wh17..$R
0BC0: 80 01 80 01 80 25 02 00  10 01 80 00 75 0C 6E F0  .....%......u.n.
0BD0: FF FF 7F 23 80 99 F0 FF  FF 7F 1C 24 80 45 00 80  ...#.......$.E..
0BE0: F0 FF FF 7F F0 FF FF 7F  66 64 6F 31 01 80 1C 42  ........fdo1...B
0BF0: 80 52 08 80 F0 FF FF 7F  F0 FF FF 7F 77 68 31 37  .R..........wh17
0C00: 45 08 80 F0 FF FF 7F F0  FF FF 7F 77 68 32 36 01  E..........wh26.
0C10: 80 45 00 80 F0 FF FF 7F  F0 FF FF 7F 66 64 69 31  .E..........fdi1
0C20: 01 80 6E 4A 72 05 01 03  80 99 4A 72 05 01 1D 53  ..nJr.....Jr...S
0C30: 80 23 99 4A 72 05 01 6E  4A 72 05 01 3D 80 99 4A  .#.Jr..nJr..=..J
0C40: 72 05 01 1D 54 80 23 99  4A 72 05 01 45 00 80 F0  r...T.#.Jr..E...
0C50: FF FF 7F F0 FF FF 7F 66  64 6F 31 01 80 1C 02 80  .......fdo1.....
0C60: 52 08 80 F0 FF FF 7F F0  FF FF 7F 77 68 32 36 01  R..........wh26.
0C70: C6 16 01 0C 0D 02 00 10  25 80 00 0C 0D 6E F0 FF  ........%....n..
0C80: FF 7F 13 80 99 F0 FF FF  7F 1C 24 80 52 08 80 F0  ..........$.R...
0C90: FF FF 7F F0 FF FF 7F 77  68 31 37 45 08 80 F0 FF  .......wh17E....
0CA0: FF 7F F0 FF FF 7F 77 68  32 37 01 80 6E 4A 72 05  ......wh27..nJr.
0CB0: 01 13 80 99 4A 72 05 01  1D 55 80 23 99 4A 72 05  ....Jr...U.#.Jr.
0CC0: 01 66 4A 80 F8 FF FF 7F  F8 FF FF 7F 74 6C 6B 30  .fJ.........tlk0
0CD0: 1D 56 80 23 66 4A 80 F8  FF FF 7F F8 FF FF 7F 74  .V.#fJ.........t
0CE0: 6C 6B 31 45 00 80 F0 FF  FF 7F F0 FF FF 7F 66 64  lk1E..........fd
0CF0: 6F 31 01 80 1C 02 80 52  08 80 F0 FF FF 7F F0 FF  o1.....R........
0D00: FF 7F 77 68 32 37 01 C6  16 01 0C 0D 03 01 10 25  ..wh27.........%
0D10: 80 45 00 80 F0 FF FF 7F  F0 FF FF 7F 66 64 6F 31  .E..........fdo1
0D20: 01 80 1C 02 80 38 03 80  BA F0 FF FF 7F 17 80 18  .....8..........
0D30: 80 06 80 19 80 80 F0 FF  FF 7F 80 4A 72 05 01 92  ...........Jr...
0D40: 01 4A 72 05 01 1E F0 FF  FF 7F 2F 00 4C 72 05 01  .Jr......./.Lr..
0D50: 4E 00 4C 72 05 01 80 4C  72 05 01 92 01 4C 72 05  N.Lr...Lr....Lr.
0D60: 01 2F 00 4D 72 05 01 4E  00 4D 72 05 01 80 4D 72  ./.Mr..N.Mr...Mr
0D70: 05 01 92 01 4D 72 05 01  45 08 80 F0 FF FF 7F F0  ....Mr..E.......
0D80: FF FF 7F 77 68 31 36 01  80 45 00 80 F0 FF FF 7F  ...wh16..E......
0D90: F0 FF FF 7F 66 64 69 31  01 80 1C 02 80 66 4A 80  ....fdi1.....fJ.
0DA0: F8 FF FF 7F F8 FF FF 7F  74 6C 6B 30 1D 57 80 23  ........tlk0.W.#
0DB0: 66 4A 80 F8 FF FF 7F F8  FF FF 7F 74 6C 6B 31 53  fJ.........tlk1S
0DC0: F8 FF FF 7F F8 FF FF 7F  74 6C 6B 31 66 01 80 F8  ........tlk1f...
0DD0: FF FF 7F F8 FF FF 7F 70  61 73 30 1C 40 80 52 08  .......pas0.@.R.
0DE0: 80 F0 FF FF 7F F0 FF FF  7F 77 68 31 36 45 08 80  .........wh16E..
0DF0: F0 FF FF 7F F0 FF FF 7F  77 68 35 32 01 80 66 4A  ........wh52..fJ
0E00: 80 F8 FF FF 7F F8 FF FF  7F 74 6C 6B 30 1D 58 80  .........tlk0.X.
0E10: 23 66 4A 80 F8 FF FF 7F  F8 FF FF 7F 74 6C 6B 31  #fJ.........tlk1
0E20: 45 00 80 F0 FF FF 7F F0  FF FF 7F 66 64 6F 31 01  E..........fdo1.
0E30: 80 1C 02 80 BA F0 FF FF  7F 59 80 5A 80 06 80 5B  .........Y.Z...[
0E40: 80 7B 4A 72 05 01 5C 00  5C 80 5C 01 5C 80 9A 52  .{Jr..\.\.\.\..R
0E50: 08 80 F0 FF FF 7F F0 FF  FF 7F 77 68 35 32 45 08  ..........wh52E.
0E60: 80 F0 FF FF 7F F0 FF FF  7F 77 68 32 38 01 80 45  .........wh28..E
0E70: 00 80 F0 FF FF 7F F0 FF  FF 7F 66 64 69 31 01 80  ..........fdi1..
0E80: 1C 02 80 48 5D 80 23 48  5E 80 23 6E 4A 72 05 01  ...H].#H^.#nJr..
0E90: 5F 80 99 4A 72 05 01 48  60 80 23 52 08 80 F0 FF  _..Jr..H`.#R....
0EA0: FF 7F F0 FF FF 7F 77 68  32 38 45 00 80 F0 FF FF  ......wh28E.....
0EB0: 7F F0 FF FF 7F 6F 76 6C  31 01 80 45 08 80 F0 FF  .....ovl1..E....
0EC0: FF 7F F0 FF FF 7F 77 68  33 30 01 80 48 61 80 23  ......wh30..Ha.#
0ED0: 48 62 80 23 48 63 80 23  52 08 80 F0 FF FF 7F F0  Hb.#Hc.#R.......
0EE0: FF FF 7F 77 68 33 30 45  00 80 F0 FF FF 7F F0 FF  ...wh30E........
0EF0: FF 7F 6F 76 6C 31 01 80  45 08 80 F0 FF FF 7F F0  ..ovl1..E.......
0F00: FF FF 7F 77 68 33 31 01  80 48 64 80 23 48 65 80  ...wh31..Hd.#He.
0F10: 23 52 08 80 F0 FF FF 7F  F0 FF FF 7F 77 68 33 31  #R..........wh31
0F20: 45 00 80 F0 FF FF 7F F0  FF FF 7F 6F 76 6C 31 01  E..........ovl1.
0F30: 80 45 08 80 F0 FF FF 7F  F0 FF FF 7F 77 68 33 36  .E..........wh36
0F40: 01 80 48 66 80 23 48 67  80 23 52 08 80 F0 FF FF  ..Hf.#Hg.#R.....
0F50: 7F F0 FF FF 7F 77 68 33  36 45 00 80 F0 FF FF 7F  .....wh36E......
0F60: F0 FF FF 7F 6F 76 6C 31  01 80 45 08 80 F0 FF FF  ....ovl1..E.....
0F70: 7F F0 FF FF 7F 77 68 32  39 01 80 48 68 80 23 52  .....wh29..Hh.#R
0F80: 08 80 F0 FF FF 7F F0 FF  FF 7F 77 68 32 39 5C 00  ..........wh29\.
0F90: 42 80 5C 01 42 80 9A 45  08 80 F0 FF FF 7F F0 FF  B.\.B..E........
0FA0: FF 7F 77 68 31 35 01 80  79 00 F0 FF FF 7F 4A 72  ..wh15..y.....Jr
0FB0: 05 01 66 01 80 F8 FF FF  7F F8 FF FF 7F 74 68 6B  ..f..........thk
0FC0: 31 1D 69 80 23 66 01 80  F8 FF FF 7F F8 FF FF 7F  1.i.#f..........
0FD0: 74 68 6B 32 53 F8 FF FF  7F F8 FF FF 7F 74 68 6B  thk2S........thk
0FE0: 32 1E F0 FF FF 7F 79 00  4A 72 05 01 F0 FF FF 7F  2.....y.Jr......
0FF0: 6E F0 FF FF 7F 13 80 99  F0 FF FF 7F 99 F0 FF FF  n...............
1000: 7F 1C 10 80 52 08 80 F0  FF FF 7F F0 FF FF 7F 77  ....R..........w
1010: 68 31 35 45 08 80 F0 FF  FF 7F F0 FF FF 7F 77 68  h15E..........wh
1020: 31 36 01 80 6E 4A 72 05  01 0F 80 99 4A 72 05 01  16..nJr.....Jr..
1030: 1D 6A 80 23 99 4A 72 05  01 03 02 10 6B 80 24 6C  .j.#.Jr.....k.$l
1040: 80 01 80 01 80 25 02 00  10 01 80 00 54 10 01 CB  .....%......T...
1050: 10 01 CB 10 02 00 10 25  80 00 CB 10 52 08 80 F0  .......%....R...
1060: FF FF 7F F0 FF FF 7F 77  68 31 36 45 08 80 F0 FF  .......wh16E....
1070: FF 7F F0 FF FF 7F 77 68  33 32 01 80 6E F0 FF FF  ......wh32..n...
1080: 7F 13 80 99 F0 FF FF 7F  99 F0 FF FF 7F 1C 02 80  ................
1090: 52 08 80 F0 FF FF 7F F0  FF FF 7F 77 68 33 32 45  R..........wh32E
10A0: 08 80 F0 FF FF 7F F0 FF  FF 7F 77 68 31 36 01 80  ..........wh16..
10B0: 6E 4A 72 05 01 13 80 99  4A 72 05 01 1D 6D 80 23  nJr.....Jr...m.#
10C0: 99 4A 72 05 01 01 39 10  01 CB 10 52 08 80 F0 FF  .Jr...9....R....
10D0: FF 7F F0 FF FF 7F 77 68  31 36 45 08 80 F0 FF FF  ......wh16E.....
10E0: 7F F0 FF FF 7F 77 68 33  32 01 80 6E F0 FF FF 7F  .....wh32..n....
10F0: 01 80 99 F0 FF FF 7F 99  F0 FF FF 7F 1C 10 80 52  ...............R
1100: 08 80 F0 FF FF 7F F0 FF  FF 7F 77 68 33 32 45 00  ..........wh32E.
1110: 80 F0 FF FF 7F F0 FF FF  7F 6F 76 6C 31 01 80 45  .........ovl1..E
1120: 08 80 F0 FF FF 7F F0 FF  FF 7F 77 68 31 36 01 80  ..........wh16..
1130: 6E 4A 72 05 01 01 80 99  4A 72 05 01 99 4A 72 05  nJr.....Jr...Jr.
1140: 01 1C 24 80 7B 4A 72 05  01 52 08 80 F0 FF FF 7F  ..$.{Jr..R......
1150: F0 FF FF 7F 77 68 31 36  45 08 80 F0 FF FF 7F F0  ....wh16E.......
1160: FF FF 7F 77 68 33 33 01  80 6E 4A 72 05 01 5F 80  ...wh33..nJr.._.
1170: 99 4A 72 05 01 99 4A 72  05 01 1C 24 80 52 08 80  .Jr...Jr...$.R..
1180: F0 FF FF 7F F0 FF FF 7F  77 68 33 33 45 08 80 F0  ........wh33E...
1190: FF FF 7F F0 FF FF 7F 77  68 33 34 01 80 6E 4A 72  .......wh34..nJr
11A0: 05 01 3B 80 99 4A 72 05  01 1D 6E 80 23 99 4A 72  ..;..Jr...n.#.Jr
11B0: 05 01 79 00 4A 72 05 01  F0 FF FF 7F 66 4A 80 F8  ..y.Jr......fJ..
11C0: FF FF 7F F8 FF FF 7F 74  6C 6B 30 1D 6F 80 23 66  .......tlk0.o.#f
11D0: 4A 80 F8 FF FF 7F F8 FF  FF 7F 74 6C 6B 31 6E 4A  J.........tlk1nJ
11E0: 72 05 01 70 80 99 4A 72  05 01 1D 71 80 23 99 4A  r..p..Jr...q.#.J
11F0: 72 05 01 52 08 80 F0 FF  FF 7F F0 FF FF 7F 77 68  r..R..........wh
1200: 33 34 45 08 80 F0 FF FF  7F F0 FF FF 7F 77 68 33  34E..........wh3
1210: 35 01 80 6E 4A 72 05 01  3D 80 99 4A 72 05 01 1D  5..nJr..=..Jr...
1220: 72 80 23 99 4A 72 05 01  24 52 80 01 80 01 80 25  r.#.Jr..$R.....%
1230: 02 00 10 01 80 00 5C 12  6E F0 FF FF 7F 23 80 99  ......\.n....#..
1240: F0 FF FF 7F 1C 24 80 52  08 80 F0 FF FF 7F F0 FF  .....$.R........
1250: FF 7F 77 68 33 35 01 A8  12 01 A8 12 02 00 10 25  ..wh35.........%
1260: 80 00 A8 12 52 08 80 F0  FF FF 7F F0 FF FF 7F 77  ....R..........w
1270: 68 33 35 45 08 80 F0 FF  FF 7F F0 FF FF 7F 77 68  h35E..........wh
1280: 33 32 01 80 6E F0 FF FF  7F 13 80 99 F0 FF FF 7F  32..n...........
1290: 1C 24 80 52 08 80 F0 FF  FF 7F F0 FF FF 7F 77 68  .$.R..........wh
12A0: 33 32 01 02 12 01 A8 12  45 00 80 F0 FF FF 7F F0  32......E.......
12B0: FF FF 7F 66 64 6F 31 01  80 1C 02 80 45 08 80 F0  ...fdo1.....E...
12C0: FF FF 7F F0 FF FF 7F 77  68 33 33 01 80 BA 4C 72  .......wh33...Lr
12D0: 05 01 73 80 74 80 06 80  75 80 BA 4D 72 05 01 76  ..s.t...u..Mr..v
12E0: 80 77 80 06 80 78 80 1C  24 80 45 00 80 F0 FF FF  .w...x..$.E.....
12F0: 7F F0 FF FF 7F 66 64 69  31 01 80 1C 02 80 48 79  .....fdi1.....Hy
1300: 80 23 6E 4A 72 05 01 3A  80 99 4A 72 05 01 1D 7A  .#nJr..:..Jr...z
1310: 80 23 99 4A 72 05 01 27  0F 4C 72 05 01 02 1C 41  .#.Jr..'.Lr....A
1320: 80 29 0F 4D 72 05 01 02  52 08 80 F0 FF FF 7F F0  .).Mr...R.......
1330: FF FF 7F 77 68 33 33 45  08 80 F0 FF FF 7F F0 FF  ...wh33E........
1340: FF 7F 77 68 33 37 01 80  4A 4C 72 05 01 4A 72 05  ..wh37..JLr..Jr.
1350: 01 1C 7B 80 4A 4D 72 05  01 4A 72 05 01 66 3F 80  ..{.JMr..Jr..f?.
1360: 4C 72 05 01 4C 72 05 01  74 6C 62 30 4A F0 FF FF  Lr..Lr..tlb0J...
1370: 7F 4C 72 05 01 2B 4C 72  05 01 7C 80 23 1E 4C 72  .Lr..+Lr..|.#.Lr
1380: 05 01 1C 24 80 2B 4C 72  05 01 7D 80 23 2B 4C 72  ...$.+Lr..}.#+Lr
1390: 05 01 7E 80 23 2B 4C 72  05 01 7F 80 23 66 3F 80  ..~.#+Lr....#f?.
13A0: 4C 72 05 01 4C 72 05 01  74 6C 62 31 52 08 80 F0  Lr..Lr..tlb1R...
13B0: FF FF 7F F0 FF FF 7F 77  68 33 37 5C 00 01 80 5C  .......wh37\...\
13C0: 01 01 80 9A 45 08 80 F0  FF FF 7F F0 FF FF 7F 77  ....E..........w
13D0: 68 33 38 01 80 45 00 80  F0 FF FF 7F F0 FF FF 7F  h38..E..........
13E0: 62 6C 6F 6E 01 80 45 80  80 F0 FF FF 7F F0 FF FF  blon..E.........
13F0: 7F 62 6C 6F 6E 01 80 66  81 80 F8 FF FF 7F F8 FF  .blon..f........
1400: FF 7F 73 67 6D 30 4A F0  FF FF 7F 4A 72 05 01 6E  ..sgm0J....Jr..n
1410: F0 FF FF 7F 3B 80 99 F0  FF FF 7F 1D 82 80 23 52  ....;.........#R
1420: 08 80 F0 FF FF 7F F0 FF  FF 7F 77 68 33 38 45 00  ..........wh38E.
1430: 80 F0 FF FF 7F F0 FF FF  7F 62 6C 6F 66 01 80 45  .........blof..E
1440: 08 80 F0 FF FF 7F F0 FF  FF 7F 77 68 33 37 01 80  ..........wh37..
1450: 29 0F 4D 72 05 01 03 4A  4D 72 05 01 4A 72 05 01  ).Mr...JMr..Jr..
1460: 6F 70 2B 4D 72 05 01 83  80 23 6E 4D 72 05 01 23  op+Mr....#nMr..#
1470: 80 99 4D 72 05 01 2B 4D  72 05 01 84 80 23 99 4D  ..Mr..+Mr....#.M
1480: 72 05 01 66 81 80 F8 FF  FF 7F F8 FF FF 7F 74 61  r..f..........ta
1490: 74 30 1C 24 80 6E 4A 72  05 01 13 80 99 4A 72 05  t0.$.nJr.....Jr.
14A0: 01 99 4A 72 05 01 1C 24  80 1E 4D 72 05 01 6F 70  ..Jr...$..Mr..op
14B0: 66 30 80 4D 72 05 01 4D  72 05 01 70 61 73 30 1C  f0.Mr..Mr..pas0.
14C0: 24 80 52 08 80 F0 FF FF  7F F0 FF FF 7F 77 68 33  $.R..........wh3
14D0: 37 45 00 80 F0 FF FF 7F  F0 FF FF 7F 6F 76 6C 31  7E..........ovl1
14E0: 01 80 45 08 80 F0 FF FF  7F F0 FF FF 7F 77 68 33  ..E..........wh3
14F0: 39 01 80 6E 4A 72 05 01  01 80 99 4A 72 05 01 99  9..nJr.....Jr...
1500: 4A 72 05 01 1C 24 80 7B  4A 72 05 01 66 85 80 F8  Jr...$.{Jr..f...
1510: FF FF 7F F8 FF FF 7F 74  68 62 31 27 0F 4D 72 05  .......thb1'.Mr.
1520: 01 04 1C 10 80 03 02 10  86 80 1D 87 80 23 66 85  .............#f.
1530: 80 F8 FF FF 7F F8 FF FF  7F 74 68 62 32 5C 00 88  .........thb2\..
1540: 80 5C 01 88 80 9A 52 08  80 F0 FF FF 7F F0 FF FF  .\....R.........
1550: 7F 77 68 33 39 45 00 80  F0 FF FF 7F F0 FF FF 7F  .wh39E..........
1560: 6F 76 6C 31 01 80 45 08  80 F0 FF FF 7F F0 FF FF  ovl1..E.........
1570: 7F 77 68 34 30 01 80 1D  89 80 23 66 30 80 4D 72  .wh40.....#f0.Mr
1580: 05 01 4D 72 05 01 74 6C  6B 30 2B 4D 72 05 01 8A  ..Mr..tlk0+Mr...
1590: 80 23 52 08 80 F0 FF FF  7F F0 FF FF 7F 77 68 34  .#R..........wh4
15A0: 30 45 00 80 F0 FF FF 7F  F0 FF FF 7F 6F 76 6C 31  0E..........ovl1
15B0: 01 80 45 08 80 F0 FF FF  7F F0 FF FF 7F 77 68 34  ..E..........wh4
15C0: 31 01 80 66 81 80 F8 FF  FF 7F F8 FF FF 7F 73 64  1..f..........sd
15D0: 6F 30 1D 8B 80 23 1D 8C  80 23 1D 8D 80 23 66 30  o0...#...#...#f0
15E0: 80 4D 72 05 01 4D 72 05  01 74 6C 6B 31 52 08 80  .Mr..Mr..tlk1R..
15F0: F0 FF FF 7F F0 FF FF 7F  77 68 34 31 45 08 80 F0  ........wh41E...
1600: FF FF 7F F0 FF FF 7F 77  68 33 37 01 80 2B 4C 72  .......wh37..+Lr
1610: 05 01 8E 80 23 6E 4C 72  05 01 25 80 99 4C 72 05  ....#nLr..%..Lr.
1620: 01 1C 24 80 52 08 80 F0  FF FF 7F F0 FF FF 7F 77  ..$.R..........w
1630: 68 33 37 45 00 80 F0 FF  FF 7F F0 FF FF 7F 6F 76  h37E..........ov
1640: 6C 31 01 80 45 08 80 F0  FF FF 7F F0 FF FF 7F 77  l1..E..........w
1650: 68 34 32 01 80 66 1D 80  4D 72 05 01 4D 72 05 01  h42..f..Mr..Mr..
1660: 6B 61 73 30 1C 42 80 27  0F 4C 72 05 01 03 1C 8F  kas0.B.'.Lr.....
1670: 80 27 0F 4D 72 05 01 05  1C 41 80 6E 4A 72 05 01  .'.Mr....A.nJr..
1680: 3F 80 99 4A 72 05 01 1C  02 80 27 0F F0 FF FF 7F  ?..Jr.....'.....
1690: 04 6E 4A 72 05 01 3F 80  99 4A 72 05 01 1C 90 80  .nJr..?..Jr.....
16A0: 45 00 80 F0 FF FF 7F F0  FF FF 7F 66 64 6F 31 01  E..........fdo1.
16B0: 80 1C 02 80 52 08 80 F0  FF FF 7F F0 FF FF 7F 77  ....R..........w
16C0: 68 34 32 01 C6 16 46 00  5C 00 42 80 5C 01 42 80  h42...F.\.B.\.B.
16D0: 9A 45 00 80 F0 FF FF 7F  F0 FF FF 7F 66 64 69 31  .E..........fdi1
16E0: 01 80 21 00                                       ..!.            
```

#### Opcodes

```
  0: 0x0AF8 [0x42] SET_CLI_EVENT_CANCEL_DATA()
  1: 0x0AF9 [0x20] SET_CLI_EVENT_UC_FLAG: Lock player control
  2: 0x0AFB [0x46] CAMERA_CONTROL: Disable user control
  3: 0x0AFD [0x03] ExtData[1]->WorkLocal[0] = Work_Zone[2]
  4: 0x0B02 [0x02] IF !(ExtData[1]->WorkLocal[0] == 0*) GOTO 0x0B10
  5: 0x0B0A [0x01] GOTO 0x0B1E

SUBROUTINE_0B1E:
  6: 0x0B1E [0x45] LOAD_SCHEDULED_TASK: Load scheduler "fdo1" with entities [LocalPlayer, LocalPlayer], work=[200*, 0*]
  7: 0x0B2F [0x1C] WAIT(60* ticks)
  8: 0x0B32 [0x38] SET_CLIENT_EVENT_MODE(mode=19*)
  9: 0x0B35 [0xBA] SET_ENTITY_POSITION(entity_id=LocalPlayer, pos_x=-142.323*, pos_z=-88.579*, pos_y=-4.000*, direction=290.0°*)
 10: 0x0B42 [0x80] LOAD_WAIT(entity=LocalPlayer)
 11: 0x0B47 [0x80] LOAD_WAIT(entity=Wahid (ID: 17134154/0x0105724A))
 12: 0x0B4C [0x92] Wahid (ID: 17134154/0x0105724A)->Render.Flags3 ^= 0x01
 13: 0x0B52 [0x1E] EventEntity looks at LocalPlayer and starts talking
 14: 0x0B57 [0x45] LOAD_SCHEDULED_TASK: Load scheduler "wh16" with entities [LocalPlayer, LocalPlayer], work=[456*, 0*]
 15: 0x0B68 [0x45] LOAD_SCHEDULED_TASK: Load scheduler "fdi1" with entities [LocalPlayer, LocalPlayer], work=[200*, 0*]
 16: 0x0B79 [0x1C] WAIT(60* ticks)
 17: 0x0B7C [0x66] LOAD_EXT_SCHEDULER_MAIN: Load scheduler "tlk0" with entities [EventEntity, EventEntity], work=9*
 18: 0x0B8B [0x1D] PRINT_EVENT_MESSAGE(message_id=7666*)
    → "Oh, it's you. Pray tell, have you any news of Swantje?"
 19: 0x0B8E [0x23] WAIT_FOR_DIALOG_INTERACTION
 20: 0x0B8F [0x66] LOAD_EXT_SCHEDULER_MAIN: Load scheduler "tlk1" with entities [EventEntity, EventEntity], work=9*
 21: 0x0B9E [0x52] END_LOAD_SCHEDULER: End scheduler "wh16" with entities [LocalPlayer, LocalPlayer], work=456*
 22: 0x0BAD [0x45] LOAD_SCHEDULED_TASK: Load scheduler "wh17" with entities [LocalPlayer, LocalPlayer], work=[456*, 0*]
 23: 0x0BBE [0x24] CREATE_DIALOG(message_id=7667*, default_option=0*, option_flags=0*)
    → "Break the news to Wahid? [Yes./Not yet.]"
 24: 0x0BC5 [0x25] WAIT_DIALOG_SELECT()
 25: 0x0BC6 [0x02] IF !(Work_Zone[0] == 0*) GOTO 0x0C75
 26: 0x0BCE [0x6E] LocalPlayer uses emote 7*
 27: 0x0BD5 [0x99] Wait for LocalPlayer animation to complete
 28: 0x0BDA [0x1C] WAIT(120* ticks)
 29: 0x0BDD [0x45] LOAD_SCHEDULED_TASK: Load scheduler "fdo1" with entities [LocalPlayer, LocalPlayer], work=[200*, 0*]
 30: 0x0BEE [0x1C] WAIT(180* ticks)
 31: 0x0BF1 [0x52] END_LOAD_SCHEDULER: End scheduler "wh17" with entities [LocalPlayer, LocalPlayer], work=456*
 32: 0x0C00 [0x45] LOAD_SCHEDULED_TASK: Load scheduler "wh26" with entities [LocalPlayer, LocalPlayer], work=[456*, 0*]
 33: 0x0C11 [0x45] LOAD_SCHEDULED_TASK: Load scheduler "fdi1" with entities [LocalPlayer, LocalPlayer], work=[200*, 0*]
 34: 0x0C22 [0x6E] Wahid (ID: 17134154/0x0105724A) uses emote 19*
 35: 0x0C29 [0x99] Wait for Wahid (ID: 17134154/0x0105724A) animation to complete
 36: 0x0C2E [0x1D] PRINT_EVENT_MESSAGE(message_id=7668*)
    → "What's that you say!? You expect me to believe such nonsense?"
 37: 0x0C31 [0x23] WAIT_FOR_DIALOG_INTERACTION
 38: 0x0C32 [0x99] Wait for Wahid (ID: 17134154/0x0105724A) animation to complete
 39: 0x0C37 [0x6E] Wahid (ID: 17134154/0x0105724A) uses emote 25*
 40: 0x0C3E [0x99] Wait for Wahid (ID: 17134154/0x0105724A) animation to complete
 41: 0x0C43 [0x1D] PRINT_EVENT_MESSAGE(message_id=7669*)
    → "After all, it's not as if you have any proof, correct? No, a shrewd businessman trusts no eyes but his own!"
 42: 0x0C46 [0x23] WAIT_FOR_DIALOG_INTERACTION
 43: 0x0C47 [0x99] Wait for Wahid (ID: 17134154/0x0105724A) animation to complete
 44: 0x0C4C [0x45] LOAD_SCHEDULED_TASK: Load scheduler "fdo1" with entities [LocalPlayer, LocalPlayer], work=[200*, 0*]
 45: 0x0C5D [0x1C] WAIT(60* ticks)
 46: 0x0C60 [0x52] END_LOAD_SCHEDULER: End scheduler "wh26" with entities [LocalPlayer, LocalPlayer], work=456*
 47: 0x0C6F [0x01] GOTO 0x16C6

SUBROUTINE_0D0C:
 48: 0x0D0C [0x03] Work_Zone[1] = 1*
 49: 0x0D11 [0x45] LOAD_SCHEDULED_TASK: Load scheduler "fdo1" with entities [LocalPlayer, LocalPlayer], work=[200*, 0*]
 50: 0x0D22 [0x1C] WAIT(60* ticks)
 51: 0x0D25 [0x38] SET_CLIENT_EVENT_MODE(mode=19*)
 52: 0x0D28 [0xBA] SET_ENTITY_POSITION(entity_id=LocalPlayer, pos_x=-142.323*, pos_z=-88.579*, pos_y=-4.000*, direction=290.0°*)
 53: 0x0D35 [0x80] LOAD_WAIT(entity=LocalPlayer)
 54: 0x0D3A [0x80] LOAD_WAIT(entity=Wahid (ID: 17134154/0x0105724A))
 55: 0x0D3F [0x92] Wahid (ID: 17134154/0x0105724A)->Render.Flags3 ^= 0x01
 56: 0x0D45 [0x1E] EventEntity looks at LocalPlayer and starts talking
 57: 0x0D4A [0x2F] Eckbert Hain (ID: 17134156/0x0105724C)->Render.Flags0 &= ~0x80000 // Bit 19
 58: 0x0D50 [0x4E] SET_ENTITY_HIDE_FLAG: Show Eckbert Hain (ID: 17134156/0x0105724C)
 59: 0x0D56 [0x80] LOAD_WAIT(entity=Eckbert Hain (ID: 17134156/0x0105724C))
 60: 0x0D5B [0x92] Eckbert Hain (ID: 17134156/0x0105724C)->Render.Flags3 ^= 0x01
 61: 0x0D61 [0x2F] Gabriele (ID: 17134157/0x0105724D)->Render.Flags0 &= ~0x80000 // Bit 19
 62: 0x0D67 [0x4E] SET_ENTITY_HIDE_FLAG: Show Gabriele (ID: 17134157/0x0105724D)
 63: 0x0D6D [0x80] LOAD_WAIT(entity=Gabriele (ID: 17134157/0x0105724D))
 64: 0x0D72 [0x92] Gabriele (ID: 17134157/0x0105724D)->Render.Flags3 ^= 0x01
 65: 0x0D78 [0x45] LOAD_SCHEDULED_TASK: Load scheduler "wh16" with entities [LocalPlayer, LocalPlayer], work=[456*, 0*]
 66: 0x0D89 [0x45] LOAD_SCHEDULED_TASK: Load scheduler "fdi1" with entities [LocalPlayer, LocalPlayer], work=[200*, 0*]
 67: 0x0D9A [0x1C] WAIT(60* ticks)
 68: 0x0D9D [0x66] LOAD_EXT_SCHEDULER_MAIN: Load scheduler "tlk0" with entities [EventEntity, EventEntity], work=9*
 69: 0x0DAC [0x1D] PRINT_EVENT_MESSAGE(message_id=7672*)
    → "Ah, I've been waiting for you! Have a look at this letter. I found it as I was searching my house just a moment ago."
 70: 0x0DAF [0x23] WAIT_FOR_DIALOG_INTERACTION
 71: 0x0DB0 [0x66] LOAD_EXT_SCHEDULER_MAIN: Load scheduler "tlk1" with entities [EventEntity, EventEntity], work=9*
 72: 0x0DBF [0x53] WAIT_SCHEDULER_TASK: Wait for scheduler "tlk1" with entities [EventEntity, EventEntity]
 73: 0x0DCC [0x66] LOAD_EXT_SCHEDULER_MAIN: Load scheduler "pas0" with entities [EventEntity, EventEntity], work=0*
 74: 0x0DDB [0x1C] WAIT(240* ticks)
 75: 0x0DDE [0x52] END_LOAD_SCHEDULER: End scheduler "wh16" with entities [LocalPlayer, LocalPlayer], work=456*
 76: 0x0DED [0x45] LOAD_SCHEDULED_TASK: Load scheduler "wh52" with entities [LocalPlayer, LocalPlayer], work=[456*, 0*]
 77: 0x0DFE [0x66] LOAD_EXT_SCHEDULER_MAIN: Load scheduler "tlk0" with entities [EventEntity, EventEntity], work=9*
 78: 0x0E0D [0x1D] PRINT_EVENT_MESSAGE(message_id=7673*)
    → "Here, you can read it along with me. Perhaps it might offer us a clue as to Swantje's whereabouts."
 79: 0x0E10 [0x23] WAIT_FOR_DIALOG_INTERACTION
 80: 0x0E11 [0x66] LOAD_EXT_SCHEDULER_MAIN: Load scheduler "tlk1" with entities [EventEntity, EventEntity], work=9*
 81: 0x0E20 [0x45] LOAD_SCHEDULED_TASK: Load scheduler "fdo1" with entities [LocalPlayer, LocalPlayer], work=[200*, 0*]
 82: 0x0E31 [0x1C] WAIT(60* ticks)
 83: 0x0E34 [0xBA] SET_ENTITY_POSITION(entity_id=LocalPlayer, pos_x=-141.499*, pos_z=-87.736*, pos_y=-4.000*, direction=227.3°*)
 84: 0x0E41 [0x7B] Wahid (ID: 17134154/0x0105724A) stops talking
 85: 0x0E46 [0x5C] MUSIC_CONTROL: Set Idle (Day) music to song 40*
 86: 0x0E4A [0x5C] MUSIC_CONTROL: Set Idle (Night) music to song 40*
 87: 0x0E4E [0x9A] WAIT_MUSIC_SERVER()
 88: 0x0E4F [0x52] END_LOAD_SCHEDULER: End scheduler "wh52" with entities [LocalPlayer, LocalPlayer], work=456*
 89: 0x0E5E [0x45] LOAD_SCHEDULED_TASK: Load scheduler "wh28" with entities [LocalPlayer, LocalPlayer], work=[456*, 0*]
 90: 0x0E6F [0x45] LOAD_SCHEDULED_TASK: Load scheduler "fdi1" with entities [LocalPlayer, LocalPlayer], work=[200*, 0*]
 91: 0x0E80 [0x1C] WAIT(60* ticks)
 92: 0x0E83 [0x48] [System] [7675*]:
    → "@@My dearest husband, @@ @@Forgive me for running off in a huff like that...sometimes I allow my emotions to get the better of me. @@"
 93: 0x0E86 [0x23] WAIT_FOR_DIALOG_INTERACTION
 94: 0x0E87 [0x48] [System] [7676*]:
    → "@@I imagine you're asking yourself where I came up with that far-fetched notion of mystic stones. @@"
 95: 0x0E8A [0x23] WAIT_FOR_DIALOG_INTERACTION
 96: 0x0E8B [0x6E] Wahid (ID: 17134154/0x0105724A) uses emote 32*
 97: 0x0E92 [0x99] Wait for Wahid (ID: 17134154/0x0105724A) animation to complete
 98: 0x0E97 [0x48] [System] [7677*]:
    → "@@I meant not to anger you. @@Still, I fear that if I were to say this face-to-face, I would succeed only in incurring your ire once more. @@And so, I put ink to parchment. @@"
 99: 0x0E9A [0x23] WAIT_FOR_DIALOG_INTERACTION
100: 0x0E9B [0x52] END_LOAD_SCHEDULER: End scheduler "wh28" with entities [LocalPlayer, LocalPlayer], work=456*
101: 0x0EAA [0x45] LOAD_SCHEDULED_TASK: Load scheduler "ovl1" with entities [LocalPlayer, LocalPlayer], work=[200*, 0*]
102: 0x0EBB [0x45] LOAD_SCHEDULED_TASK: Load scheduler "wh30" with entities [LocalPlayer, LocalPlayer], work=[456*, 0*]
103: 0x0ECC [0x48] [System] [7678*]:
    → "@@Do you remember the ring you gave me on our wedding day? @@"
104: 0x0ECF [0x23] WAIT_FOR_DIALOG_INTERACTION
105: 0x0ED0 [0x48] [System] [7679*]:
    → "@@So unique, so lovely...it piqued my curiosity from the start. @@Recently I learned that it was one of the early works of a highly celebrated goldsmith. @@"
106: 0x0ED3 [0x23] WAIT_FOR_DIALOG_INTERACTION
107: 0x0ED4 [0x48] [System] [7680*]:
    → "@@The story has it that this goldsmith intended to set the ring with one of the stones of legend. @@Though they do not shine as bright as diamonds--nor any other precious gem--it is said that they @@would bring lifelong happiness to any couple."
108: 0x0ED7 [0x23] WAIT_FOR_DIALOG_INTERACTION
109: 0x0ED8 [0x52] END_LOAD_SCHEDULER: End scheduler "wh30" with entities [LocalPlayer, LocalPlayer], work=456*
110: 0x0EE7 [0x45] LOAD_SCHEDULED_TASK: Load scheduler "ovl1" with entities [LocalPlayer, LocalPlayer], work=[200*, 0*]
111: 0x0EF8 [0x45] LOAD_SCHEDULED_TASK: Load scheduler "wh31" with entities [LocalPlayer, LocalPlayer], work=[456*, 0*]
112: 0x0F09 [0x48] [System] [7681*]:
    → "@@Did you know? @@Ever the businessman, you were doubtless more concerned with its glitter than its history... @@"
113: 0x0F0C [0x23] WAIT_FOR_DIALOG_INTERACTION
114: 0x0F0D [0x48] [System] [7682*]:
    → "@@Still, in these dark times...I thought we could work together to provide that same hope and @@happiness to the disheartened populace. @@I wanted this with all my heart. @@"
115: 0x0F10 [0x23] WAIT_FOR_DIALOG_INTERACTION
116: 0x0F11 [0x52] END_LOAD_SCHEDULER: End scheduler "wh31" with entities [LocalPlayer, LocalPlayer], work=456*
117: 0x0F20 [0x45] LOAD_SCHEDULED_TASK: Load scheduler "ovl1" with entities [LocalPlayer, LocalPlayer], work=[200*, 0*]
118: 0x0F31 [0x45] LOAD_SCHEDULED_TASK: Load scheduler "wh36" with entities [LocalPlayer, LocalPlayer], work=[456*, 0*]
119: 0x0F42 [0x48] [System] [7683*]:
    → "@@Call me a sentimental little girl, but this is why I sought your aid in finding the stones. @@And why I now go in search of them...on my own... @@"
120: 0x0F45 [0x23] WAIT_FOR_DIALOG_INTERACTION
121: 0x0F46 [0x48] [System] [7684*]:
    → "@@I know you are still angry at me. But I promise you... @@I will find the stone and fashion the most beautiful ring the three nations have ever seen. @@That day, I hope you can forgive me. @@"
122: 0x0F49 [0x23] WAIT_FOR_DIALOG_INTERACTION
123: 0x0F4A [0x52] END_LOAD_SCHEDULER: End scheduler "wh36" with entities [LocalPlayer, LocalPlayer], work=456*
124: 0x0F59 [0x45] LOAD_SCHEDULED_TASK: Load scheduler "ovl1" with entities [LocalPlayer, LocalPlayer], work=[200*, 0*]
125: 0x0F6A [0x45] LOAD_SCHEDULED_TASK: Load scheduler "wh29" with entities [LocalPlayer, LocalPlayer], work=[456*, 0*]
126: 0x0F7B [0x48] [System] [7685*]:
    → "@@@@@@@@@@@@@@@Yours, @@@@@@@@@@@@@@@Swantje @@"
127: 0x0F7E [0x23] WAIT_FOR_DIALOG_INTERACTION
128: 0x0F7F [0x52] END_LOAD_SCHEDULER: End scheduler "wh29" with entities [LocalPlayer, LocalPlayer], work=456*
129: 0x0F8E [0x5C] MUSIC_CONTROL: Set Idle (Day) music to song 180*
130: 0x0F92 [0x5C] MUSIC_CONTROL: Set Idle (Night) music to song 180*
131: 0x0F96 [0x9A] WAIT_MUSIC_SERVER()
132: 0x0F97 [0x45] LOAD_SCHEDULED_TASK: Load scheduler "wh15" with entities [LocalPlayer, LocalPlayer], work=[456*, 0*]
133: 0x0FA8 [0x79] LocalPlayer looks at Wahid (ID: 17134154/0x0105724A) (Basic look)
134: 0x0FB2 [0x66] LOAD_EXT_SCHEDULER_MAIN: Load scheduler "thk1" with entities [EventEntity, EventEntity], work=0*
135: 0x0FC1 [0x1D] PRINT_EVENT_MESSAGE(message_id=7686*)
    → "What is that woman thinking!? She's always been pigheaded, but to think she was actually serious about going on that wild crystal chase! And alone, to boot!"
136: 0x0FC4 [0x23] WAIT_FOR_DIALOG_INTERACTION
137: 0x0FC5 [0x66] LOAD_EXT_SCHEDULER_MAIN: Load scheduler "thk2" with entities [EventEntity, EventEntity], work=0*
138: 0x0FD4 [0x53] WAIT_SCHEDULER_TASK: Wait for scheduler "thk2" with entities [EventEntity, EventEntity]
139: 0x0FE1 [0x1E] EventEntity looks at LocalPlayer and starts talking
140: 0x0FE6 [0x79] Wahid (ID: 17134154/0x0105724A) looks at LocalPlayer (Basic look)
141: 0x0FF0 [0x6E] LocalPlayer uses emote 6*
142: 0x0FF7 [0x99] Wait for LocalPlayer animation to complete
143: 0x0FFC [0x99] Wait for LocalPlayer animation to complete
144: 0x1001 [0x1C] WAIT(150* ticks)
145: 0x1004 [0x52] END_LOAD_SCHEDULER: End scheduler "wh15" with entities [LocalPlayer, LocalPlayer], work=456*
146: 0x1013 [0x45] LOAD_SCHEDULED_TASK: Load scheduler "wh16" with entities [LocalPlayer, LocalPlayer], work=[456*, 0*]
147: 0x1024 [0x6E] Wahid (ID: 17134154/0x0105724A) uses emote 22*
148: 0x102B [0x99] Wait for Wahid (ID: 17134154/0x0105724A) animation to complete
149: 0x1030 [0x1D] PRINT_EVENT_MESSAGE(message_id=7687*)
    → "Hmmm? What was that look on your face just now? Is there something you're not telling me?"
150: 0x1033 [0x23] WAIT_FOR_DIALOG_INTERACTION
151: 0x1034 [0x99] Wait for Wahid (ID: 17134154/0x0105724A) animation to complete

SUBROUTINE_1039:
152: 0x1039 [0x03] Work_Zone[2] = 1124*
153: 0x103E [0x24] CREATE_DIALOG(message_id=7688*, default_option=0*, option_flags=0*)
    → "Show Wahid the $3? [Yes./Not yet.]"
154: 0x1045 [0x25] WAIT_DIALOG_SELECT()
155: 0x1046 [0x02] IF !(Work_Zone[0] == 0*) GOTO 0x1054
156: 0x104E [0x01] GOTO 0x10CB

SUBROUTINE_10CB:
157: 0x10CB [0x52] END_LOAD_SCHEDULER: End scheduler "wh16" with entities [LocalPlayer, LocalPlayer], work=456*
158: 0x10DA [0x45] LOAD_SCHEDULED_TASK: Load scheduler "wh32" with entities [LocalPlayer, LocalPlayer], work=[456*, 0*]
159: 0x10EB [0x6E] LocalPlayer uses emote 0*
160: 0x10F2 [0x99] Wait for LocalPlayer animation to complete
161: 0x10F7 [0x99] Wait for LocalPlayer animation to complete
162: 0x10FC [0x1C] WAIT(150* ticks)
163: 0x10FF [0x52] END_LOAD_SCHEDULER: End scheduler "wh32" with entities [LocalPlayer, LocalPlayer], work=456*
164: 0x110E [0x45] LOAD_SCHEDULED_TASK: Load scheduler "ovl1" with entities [LocalPlayer, LocalPlayer], work=[200*, 0*]
165: 0x111F [0x45] LOAD_SCHEDULED_TASK: Load scheduler "wh16" with entities [LocalPlayer, LocalPlayer], work=[456*, 0*]
166: 0x1130 [0x6E] Wahid (ID: 17134154/0x0105724A) uses emote 0*
167: 0x1137 [0x99] Wait for Wahid (ID: 17134154/0x0105724A) animation to complete
168: 0x113C [0x99] Wait for Wahid (ID: 17134154/0x0105724A) animation to complete
169: 0x1141 [0x1C] WAIT(120* ticks)
170: 0x1144 [0x7B] Wahid (ID: 17134154/0x0105724A) stops talking
171: 0x1149 [0x52] END_LOAD_SCHEDULER: End scheduler "wh16" with entities [LocalPlayer, LocalPlayer], work=456*
172: 0x1158 [0x45] LOAD_SCHEDULED_TASK: Load scheduler "wh33" with entities [LocalPlayer, LocalPlayer], work=[456*, 0*]
173: 0x1169 [0x6E] Wahid (ID: 17134154/0x0105724A) uses emote 32*
174: 0x1170 [0x99] Wait for Wahid (ID: 17134154/0x0105724A) animation to complete
175: 0x1175 [0x99] Wait for Wahid (ID: 17134154/0x0105724A) animation to complete
176: 0x117A [0x1C] WAIT(120* ticks)
177: 0x117D [0x52] END_LOAD_SCHEDULER: End scheduler "wh33" with entities [LocalPlayer, LocalPlayer], work=456*
178: 0x118C [0x45] LOAD_SCHEDULED_TASK: Load scheduler "wh34" with entities [LocalPlayer, LocalPlayer], work=[456*, 0*]
179: 0x119D [0x6E] Wahid (ID: 17134154/0x0105724A) uses emote 21*
180: 0x11A4 [0x99] Wait for Wahid (ID: 17134154/0x0105724A) animation to complete
181: 0x11A9 [0x1D] PRINT_EVENT_MESSAGE(message_id=7690*)
    → "Why, this...this is the wedding ring I gave Swantje!"
182: 0x11AC [0x23] WAIT_FOR_DIALOG_INTERACTION
183: 0x11AD [0x99] Wait for Wahid (ID: 17134154/0x0105724A) animation to complete
184: 0x11B2 [0x79] Wahid (ID: 17134154/0x0105724A) looks at LocalPlayer (Basic look)
185: 0x11BC [0x66] LOAD_EXT_SCHEDULER_MAIN: Load scheduler "tlk0" with entities [EventEntity, EventEntity], work=9*
186: 0x11CB [0x1D] PRINT_EVENT_MESSAGE(message_id=7691*)
    → "What were you doing with it?"
187: 0x11CE [0x23] WAIT_FOR_DIALOG_INTERACTION
188: 0x11CF [0x66] LOAD_EXT_SCHEDULER_MAIN: Load scheduler "tlk1" with entities [EventEntity, EventEntity], work=9*
189: 0x11DE [0x6E] Wahid (ID: 17134154/0x0105724A) uses emote 34*
190: 0x11E5 [0x99] Wait for Wahid (ID: 17134154/0x0105724A) animation to complete
191: 0x11EA [0x1D] PRINT_EVENT_MESSAGE(message_id=7692*)
    → "Where did you find this, I say!?"
192: 0x11ED [0x23] WAIT_FOR_DIALOG_INTERACTION
193: 0x11EE [0x99] Wait for Wahid (ID: 17134154/0x0105724A) animation to complete
194: 0x11F3 [0x52] END_LOAD_SCHEDULER: End scheduler "wh34" with entities [LocalPlayer, LocalPlayer], work=456*

SUBROUTINE_1202:
195: 0x1202 [0x45] LOAD_SCHEDULED_TASK: Load scheduler "wh35" with entities [LocalPlayer, LocalPlayer], work=[456*, 0*]
196: 0x1213 [0x6E] Wahid (ID: 17134154/0x0105724A) uses emote 25*
197: 0x121A [0x99] Wait for Wahid (ID: 17134154/0x0105724A) animation to complete
198: 0x121F [0x1D] PRINT_EVENT_MESSAGE(message_id=7693*)
    → "You're hiding something from me, I know it! Out with it before I lose my patience!"
199: 0x1222 [0x23] WAIT_FOR_DIALOG_INTERACTION
200: 0x1223 [0x99] Wait for Wahid (ID: 17134154/0x0105724A) animation to complete
201: 0x1228 [0x24] CREATE_DIALOG(message_id=7667*, default_option=0*, option_flags=0*)
    → "Break the news to Wahid? [Yes./Not yet.]"
