# 17134031 - Adelbrecht

## Common Data

| Field            | Value                       |
|------------------|-----------------------------|
| Zone             | Bastok Markets [S] (ID: 87) |
| Block Size       | 808 bytes                   |
| Total Events     | 20                          |
| References Count | 27                          |

## List of Events

| Event ID                 | Entrypoint   |   Size |   Instructions |
|--------------------------|--------------|--------|----------------|
| [65535](#event-65535)    | 0x0000       |      1 |              1 |
| [65535.1](#event-655351) | 0x0001       |     16 |              4 |
| [139](#event-139)        | 0x0011       |      1 |              1 |
| [140](#event-140)        | 0x0012       |    141 |             29 |
| [141](#event-141)        | 0x009F       |    144 |             32 |
| [142](#event-142)        | 0x012F       |    140 |             30 |
| [143](#event-143)        | 0x01BB       |      1 |              1 |
| [162](#event-162)        | 0x01BC       |     44 |             11 |
| [63](#event-63)          | 0x01E8       |      7 |              2 |
| [65535.2](#event-655352) | 0x01EF       |     13 |              3 |
| [361](#event-361)        | 0x01FC       |     26 |              8 |
| [359](#event-359)        | 0x0216       |      1 |              1 |
| [360](#event-360)        | 0x0217       |      1 |              1 |
| [65535.3](#event-655353) | 0x0218       |      1 |              1 |
| [65535.4](#event-655354) | 0x0219       |     18 |              4 |
| [65535.5](#event-655355) | 0x022B       |     10 |              2 |
| [65535.6](#event-655356) | 0x0235       |      9 |              3 |
| [65535.7](#event-655357) | 0x023E       |      9 |              3 |
| [65535.8](#event-655358) | 0x0247       |     10 |              2 |
| [65535.9](#event-655359) | 0x0251       |     10 |              2 |

## DAT References (imed_data)

|   Index | Hex Value   |   Dec Value |
|---------|-------------|-------------|
|       0 | 0x0102      |         258 |
|       1 | 0x0064      |         100 |
|       2 | 0x0000      |           0 |
|       3 | 0x001E      |          30 |
|       4 | 0x0395      |         917 |
|       5 | 0x0009      |           9 |
|       6 | 0x2D19      |       11545 |
|       7 | 0x2D1A      |       11546 |
|       8 | 0x2D1B      |       11547 |
|       9 | 0x0001      |           1 |
|      10 | 0x2D1C      |       11548 |
|      11 | 0x2D1D      |       11549 |
|      12 | 0x2D20      |       11552 |
|      13 | 0x2D21      |       11553 |
|      14 | 0x2D22      |       11554 |
|      15 | 0x2D23      |       11555 |
|      16 | 0x2D24      |       11556 |
|      17 | 0x2D25      |       11557 |
|      18 | 0x2D26      |       11558 |
|      19 | 0x2D27      |       11559 |
|      20 | 0x2D28      |       11560 |
|      21 | 0x2D2F      |       11567 |
|      22 | 0x2D30      |       11568 |
|      23 | 0x002B      |          43 |
|      24 | 0x3539      |       13625 |
|      25 | 0x3548      |       13640 |
|      26 | 0x0080      |         128 |

## String References

- **11545**: I thought you didn't have any questions! Alright, I'll try to make myself a little clearer this time. Take those $3 to the Eduard Watchtower in North Gustaberg and give them to Centurion Gebhardt. Got it?
- **11546**: Or...maybe you're thinking of throwing in the towel.
- **11547**: Well, are you? [Sir, yes sir.../Sir, no sir!]
- **11548**: Maybe I didn't hear you right! [Sir, I'm sorry, sir.../Sir, no sir!!!]
- **11549**: Having second thoughts, eh? The life of a soldier too tough for a coward like you? Ready to run back home to Momma!? Go on then! The Fighting Fourth is no place for pond scum like you.
- **11552**: That's what I thought. Now get those rations to the watchtower, double-time!
- **11553**: Good work, rookie. You've passed the test with flying colors!
- **11554**: ...Or at least that's what I'd say if you had passed the test with flying colors...which you haven't.
- **11555**: I heard from Centurion Gebhardt that he asked you a small favor. Are you suggesting that your initiation test is more important than a direct order from a superior?
- **11556**: Well then, it seems you have a lot more to learn about teamwork and honor. Now if you'll just move along, civilian, I have things to do.
- **11557**: Good. Now get your butt over to the Benedikt Watchtower if you know what's good for you, rookie!
- **11558**: I heard the news about the ambush.
- **11559**: Now, in a situation like this, a civilian would probably just run back to his Mog House and hide under the covers until the turtlebacks decided in their infinite wisdom to kindly return the stolen communication. But I ask you, rookie, what would a soldier do?
- **11560**: So the kitchen starts to heat up, and you head for the door, eh? Well, that's good to know now, ain't it. On your way, civilian.
- **11567**: What are you doing, soldier? Head over to the next window and speak with Legion Engineer Aurelius on the double!
- **11568**: So, you've finally come to your senses and decided to return to the Fighting Fourth? March on over to Centurion Fridolin and get your papers sorted out, soldier.

## Events

### Event 65535

#### Metadata

| Field        | Value   |
|--------------|---------|
| Entrypoint   | 0x0000  |
| Data Size    | 1 bytes |
| Instructions | 1       |

```
      00 01 02 03 04 05 06 07  08 09 0A 0B 0C 0D 0E 0F
      -- -- -- -- -- -- -- --  -- -- -- -- -- -- -- --
0000: 00                                                .               
```

#### Opcodes

```
  0: 0x0000 [0x00] END_REQSTACK()
```

### Event 65535.1

#### Metadata

| Field        | Value    |
|--------------|----------|
| Entrypoint   | 0x0001   |
| Data Size    | 16 bytes |
| Instructions | 4        |

```
      00 01 02 03 04 05 06 07  08 09 0A 0B 0C 0D 0E 0F
      -- -- -- -- -- -- -- --  -- -- -- -- -- -- -- --
0000:    6E F8 FF FF 7F 00 80  99 F8 FF FF 7F 1C 01 80   n..............
0010: 00                                                .               
```

#### Opcodes

```
  0: 0x0001 [0x6E] EventEntity uses emote 258*
  1: 0x0008 [0x99] Wait for EventEntity animation to complete
  2: 0x000D [0x1C] WAIT(100* ticks)
  3: 0x0010 [0x00] END_REQSTACK()
```

### Event 139

#### Metadata

| Field        | Value   |
|--------------|---------|
| Entrypoint   | 0x0011  |
| Data Size    | 1 bytes |
| Instructions | 1       |

```
      00 01 02 03 04 05 06 07  08 09 0A 0B 0C 0D 0E 0F
      -- -- -- -- -- -- -- --  -- -- -- -- -- -- -- --
0010:    00                                              .              
```

#### Opcodes

```
  0: 0x0011 [0x00] END_REQSTACK()
```

### Event 140

#### Metadata

| Field        | Value     |
|--------------|-----------|
| Entrypoint   | 0x0012    |
| Data Size    | 141 bytes |
| Instructions | 28        |

```
      00 01 02 03 04 05 06 07  08 09 0A 0B 0C 0D 0E 0F
      -- -- -- -- -- -- -- --  -- -- -- -- -- -- -- --
0010:       03 01 10 02 80 1E  F0 FF FF 7F 1C 03 80 03    ..............
0020: 02 10 04 80 66 05 80 F8  FF FF 7F F8 FF FF 7F 74  ....f..........t
0030: 77 62 30 1D 06 80 23 1D  07 80 23 66 05 80 F8 FF  wb0...#...#f....
0040: FF 7F F8 FF FF 7F 74 77  62 31 24 08 80 09 80 02  ......twb1$.....
0050: 80 25 02 00 10 02 80 00  8A 00 24 0A 80 09 80 02  .%........$.....
0060: 80 25 02 00 10 02 80 00  87 00 66 05 80 F8 FF FF  .%........f.....
0070: 7F F8 FF FF 7F 74 77 62  30 1D 0B 80 23 03 01 10  .....twb0...#...
0080: 09 80 21 00 01 87 00 01  8A 00 66 05 80 F8 FF FF  ..!.......f.....
0090: 7F F8 FF FF 7F 74 77 61  30 1D 0C 80 23 21 00     .....twa0...#!. 
```

#### Opcodes

```
  0: 0x0012 [0x03] Work_Zone[1] = 0*
  1: 0x0017 [0x1E] EventEntity looks at LocalPlayer and starts talking
  2: 0x001C [0x1C] WAIT(30* ticks)
  3: 0x001F [0x03] Work_Zone[2] = 917*
  4: 0x0024 [0x66] LOAD_EXT_SCHEDULER_MAIN: Load scheduler "twb0" with entities [EventEntity, EventEntity], work=9*
  5: 0x0033 [0x1D] PRINT_EVENT_MESSAGE(message_id=11545*)
    → "I thought you didn't have any questions! Alright, I'll try to make myself a little clearer this time. Take those $3 to the Eduard Watchtower in North Gustaberg and give them to Centurion Gebhardt. Got it?"
  6: 0x0036 [0x23] WAIT_FOR_DIALOG_INTERACTION
  7: 0x0037 [0x1D] PRINT_EVENT_MESSAGE(message_id=11546*)
    → "Or...maybe you're thinking of throwing in the towel."
  8: 0x003A [0x23] WAIT_FOR_DIALOG_INTERACTION
  9: 0x003B [0x66] LOAD_EXT_SCHEDULER_MAIN: Load scheduler "twb1" with entities [EventEntity, EventEntity], work=9*
 10: 0x004A [0x24] CREATE_DIALOG(message_id=11547*, default_option=1*, option_flags=0*)
    → "Well, are you? [Sir, yes sir.../Sir, no sir!]"
 11: 0x0051 [0x25] WAIT_DIALOG_SELECT()
 12: 0x0052 [0x02] IF !(Work_Zone[0] == 0*) GOTO 0x008A
 13: 0x005A [0x24] CREATE_DIALOG(message_id=11548*, default_option=1*, option_flags=0*)
    → "Maybe I didn't hear you right! [Sir, I'm sorry, sir.../Sir, no sir!!!]"
 14: 0x0061 [0x25] WAIT_DIALOG_SELECT()
 15: 0x0062 [0x02] IF !(Work_Zone[0] == 0*) GOTO 0x0087
 16: 0x006A [0x66] LOAD_EXT_SCHEDULER_MAIN: Load scheduler "twb0" with entities [EventEntity, EventEntity], work=9*
 17: 0x0079 [0x1D] PRINT_EVENT_MESSAGE(message_id=11549*)
    → "Having second thoughts, eh? The life of a soldier too tough for a coward like you? Ready to run back home to Momma!? Go on then! The Fighting Fourth is no place for pond scum like you."
 18: 0x007C [0x23] WAIT_FOR_DIALOG_INTERACTION
 19: 0x007D [0x03] Work_Zone[1] = 1*
 20: 0x0082 [0x21] END_EVENT
 21: 0x0083 [0x00] END_REQSTACK()

SUBROUTINE_0087:
 22: 0x0087 [0x01] GOTO 0x008A

SUBROUTINE_008A:
 23: 0x008A [0x66] LOAD_EXT_SCHEDULER_MAIN: Load scheduler "twa0" with entities [EventEntity, EventEntity], work=9*
 24: 0x0099 [0x1D] PRINT_EVENT_MESSAGE(message_id=11552*)
    → "That's what I thought. Now get those rations to the watchtower, double-time!"
 25: 0x009C [0x23] WAIT_FOR_DIALOG_INTERACTION
 26: 0x009D [0x21] END_EVENT
 27: 0x009E [0x00] END_REQSTACK()
```

#### Data or dead code:

```
# Dead code (unreachable instructions):
     0x0084 [0x01] GOTO 0x0087
```

### Event 141

#### Metadata

| Field        | Value     |
|--------------|-----------|
| Entrypoint   | 0x009F    |
| Data Size    | 144 bytes |
| Instructions | 31        |

```
      00 01 02 03 04 05 06 07  08 09 0A 0B 0C 0D 0E 0F
      -- -- -- -- -- -- -- --  -- -- -- -- -- -- -- --
0090:                                               03                 .
00A0: 01 10 02 80 1E F0 FF FF  7F 1C 03 80 1D 0D 80 23  ...............#
00B0: 66 05 80 F8 FF FF 7F F8  FF FF 7F 74 77 62 30 1D  f..........twb0.
00C0: 0E 80 23 1D 0F 80 23 66  05 80 F8 FF FF 7F F8 FF  ..#...#f........
00D0: FF 7F 74 77 62 31 1D 07  80 23 24 08 80 09 80 02  ..twb1...#$.....
00E0: 80 25 02 00 10 02 80 00  1A 01 24 0A 80 09 80 02  .%........$.....
00F0: 80 25 02 00 10 02 80 00  17 01 66 05 80 F8 FF FF  .%........f.....
0100: 7F F8 FF FF 7F 74 77 62  30 1D 10 80 23 03 01 10  .....twb0...#...
0110: 09 80 21 00 01 17 01 01  1A 01 66 05 80 F8 FF FF  ..!.......f.....
0120: 7F F8 FF FF 7F 74 77 61  30 1D 11 80 23 21 00     .....twa0...#!. 
```

#### Opcodes

```
  0: 0x009F [0x03] Work_Zone[1] = 0*
  1: 0x00A4 [0x1E] EventEntity looks at LocalPlayer and starts talking
  2: 0x00A9 [0x1C] WAIT(30* ticks)
  3: 0x00AC [0x1D] PRINT_EVENT_MESSAGE(message_id=11553*)
    → "Good work, rookie. You've passed the test with flying colors!"
  4: 0x00AF [0x23] WAIT_FOR_DIALOG_INTERACTION
  5: 0x00B0 [0x66] LOAD_EXT_SCHEDULER_MAIN: Load scheduler "twb0" with entities [EventEntity, EventEntity], work=9*
  6: 0x00BF [0x1D] PRINT_EVENT_MESSAGE(message_id=11554*)
    → "...Or at least that's what I'd say if you had passed the test with flying colors...which you haven't."
  7: 0x00C2 [0x23] WAIT_FOR_DIALOG_INTERACTION
  8: 0x00C3 [0x1D] PRINT_EVENT_MESSAGE(message_id=11555*)
    → "I heard from Centurion Gebhardt that he asked you a small favor. Are you suggesting that your initiation test is more important than a direct order from a superior?"
  9: 0x00C6 [0x23] WAIT_FOR_DIALOG_INTERACTION
 10: 0x00C7 [0x66] LOAD_EXT_SCHEDULER_MAIN: Load scheduler "twb1" with entities [EventEntity, EventEntity], work=9*
 11: 0x00D6 [0x1D] PRINT_EVENT_MESSAGE(message_id=11546*)
    → "Or...maybe you're thinking of throwing in the towel."
 12: 0x00D9 [0x23] WAIT_FOR_DIALOG_INTERACTION
 13: 0x00DA [0x24] CREATE_DIALOG(message_id=11547*, default_option=1*, option_flags=0*)
    → "Well, are you? [Sir, yes sir.../Sir, no sir!]"
 14: 0x00E1 [0x25] WAIT_DIALOG_SELECT()
 15: 0x00E2 [0x02] IF !(Work_Zone[0] == 0*) GOTO 0x011A
 16: 0x00EA [0x24] CREATE_DIALOG(message_id=11548*, default_option=1*, option_flags=0*)
    → "Maybe I didn't hear you right! [Sir, I'm sorry, sir.../Sir, no sir!!!]"
 17: 0x00F1 [0x25] WAIT_DIALOG_SELECT()
 18: 0x00F2 [0x02] IF !(Work_Zone[0] == 0*) GOTO 0x0117
 19: 0x00FA [0x66] LOAD_EXT_SCHEDULER_MAIN: Load scheduler "twb0" with entities [EventEntity, EventEntity], work=9*
 20: 0x0109 [0x1D] PRINT_EVENT_MESSAGE(message_id=11556*)
    → "Well then, it seems you have a lot more to learn about teamwork and honor. Now if you'll just move along, civilian, I have things to do."
 21: 0x010C [0x23] WAIT_FOR_DIALOG_INTERACTION
 22: 0x010D [0x03] Work_Zone[1] = 1*
 23: 0x0112 [0x21] END_EVENT
 24: 0x0113 [0x00] END_REQSTACK()

SUBROUTINE_0117:
 25: 0x0117 [0x01] GOTO 0x011A

SUBROUTINE_011A:
 26: 0x011A [0x66] LOAD_EXT_SCHEDULER_MAIN: Load scheduler "twa0" with entities [EventEntity, EventEntity], work=9*
 27: 0x0129 [0x1D] PRINT_EVENT_MESSAGE(message_id=11557*)
    → "Good. Now get your butt over to the Benedikt Watchtower if you know what's good for you, rookie!"
 28: 0x012C [0x23] WAIT_FOR_DIALOG_INTERACTION
 29: 0x012D [0x21] END_EVENT
 30: 0x012E [0x00] END_REQSTACK()
```

#### Data or dead code:

```
# Dead code (unreachable instructions):
     0x0114 [0x01] GOTO 0x0117
```

### Event 142

#### Metadata

| Field        | Value     |
|--------------|-----------|
| Entrypoint   | 0x012F    |
| Data Size    | 140 bytes |
| Instructions | 29        |

```
      00 01 02 03 04 05 06 07  08 09 0A 0B 0C 0D 0E 0F
      -- -- -- -- -- -- -- --  -- -- -- -- -- -- -- --
0120:                                               03                 .
0130: 01 10 02 80 1E F0 FF FF  7F 1C 03 80 66 05 80 F8  ............f...
0140: FF FF 7F F8 FF FF 7F 74  77 62 30 1D 12 80 23 1D  .......twb0...#.
0150: 13 80 23 1D 07 80 23 66  05 80 F8 FF FF 7F F8 FF  ..#...#f........
0160: FF 7F 74 77 62 31 24 08  80 09 80 02 80 25 02 00  ..twb1$......%..
0170: 10 02 80 00 A6 01 24 0A  80 09 80 02 80 25 02 00  ......$......%..
0180: 10 02 80 00 A3 01 66 05  80 F8 FF FF 7F F8 FF FF  ......f.........
0190: 7F 74 77 62 30 1D 14 80  23 03 01 10 09 80 21 00  .twb0...#.....!.
01A0: 01 A3 01 01 A6 01 66 05  80 F8 FF FF 7F F8 FF FF  ......f.........
01B0: 7F 74 77 61 30 1D 11 80  23 21 00                 .twa0...#!.     
```

#### Opcodes

```
  0: 0x012F [0x03] Work_Zone[1] = 0*
  1: 0x0134 [0x1E] EventEntity looks at LocalPlayer and starts talking
  2: 0x0139 [0x1C] WAIT(30* ticks)
  3: 0x013C [0x66] LOAD_EXT_SCHEDULER_MAIN: Load scheduler "twb0" with entities [EventEntity, EventEntity], work=9*
  4: 0x014B [0x1D] PRINT_EVENT_MESSAGE(message_id=11558*)
    → "I heard the news about the ambush."
  5: 0x014E [0x23] WAIT_FOR_DIALOG_INTERACTION
  6: 0x014F [0x1D] PRINT_EVENT_MESSAGE(message_id=11559*)
    → "Now, in a situation like this, a civilian would probably just run back to his Mog House and hide under the covers until the turtlebacks decided in their infinite wisdom to kindly return the stolen communication. But I ask you, rookie, what would a soldier do?"
  7: 0x0152 [0x23] WAIT_FOR_DIALOG_INTERACTION
  8: 0x0153 [0x1D] PRINT_EVENT_MESSAGE(message_id=11546*)
    → "Or...maybe you're thinking of throwing in the towel."
  9: 0x0156 [0x23] WAIT_FOR_DIALOG_INTERACTION
 10: 0x0157 [0x66] LOAD_EXT_SCHEDULER_MAIN: Load scheduler "twb1" with entities [EventEntity, EventEntity], work=9*
 11: 0x0166 [0x24] CREATE_DIALOG(message_id=11547*, default_option=1*, option_flags=0*)
    → "Well, are you? [Sir, yes sir.../Sir, no sir!]"
 12: 0x016D [0x25] WAIT_DIALOG_SELECT()
 13: 0x016E [0x02] IF !(Work_Zone[0] == 0*) GOTO 0x01A6
 14: 0x0176 [0x24] CREATE_DIALOG(message_id=11548*, default_option=1*, option_flags=0*)
    → "Maybe I didn't hear you right! [Sir, I'm sorry, sir.../Sir, no sir!!!]"
 15: 0x017D [0x25] WAIT_DIALOG_SELECT()
 16: 0x017E [0x02] IF !(Work_Zone[0] == 0*) GOTO 0x01A3
 17: 0x0186 [0x66] LOAD_EXT_SCHEDULER_MAIN: Load scheduler "twb0" with entities [EventEntity, EventEntity], work=9*
 18: 0x0195 [0x1D] PRINT_EVENT_MESSAGE(message_id=11560*)
    → "So the kitchen starts to heat up, and you head for the door, eh? Well, that's good to know now, ain't it. On your way, civilian."
 19: 0x0198 [0x23] WAIT_FOR_DIALOG_INTERACTION
 20: 0x0199 [0x03] Work_Zone[1] = 1*
 21: 0x019E [0x21] END_EVENT
 22: 0x019F [0x00] END_REQSTACK()

SUBROUTINE_01A3:
 23: 0x01A3 [0x01] GOTO 0x01A6

SUBROUTINE_01A6:
 24: 0x01A6 [0x66] LOAD_EXT_SCHEDULER_MAIN: Load scheduler "twa0" with entities [EventEntity, EventEntity], work=9*
 25: 0x01B5 [0x1D] PRINT_EVENT_MESSAGE(message_id=11557*)
    → "Good. Now get your butt over to the Benedikt Watchtower if you know what's good for you, rookie!"
 26: 0x01B8 [0x23] WAIT_FOR_DIALOG_INTERACTION
 27: 0x01B9 [0x21] END_EVENT
 28: 0x01BA [0x00] END_REQSTACK()
```

#### Data or dead code:

```
# Dead code (unreachable instructions):
     0x01A0 [0x01] GOTO 0x01A3
```

### Event 143

#### Metadata

| Field        | Value   |
|--------------|---------|
| Entrypoint   | 0x01BB  |
| Data Size    | 1 bytes |
| Instructions | 1       |

```
      00 01 02 03 04 05 06 07  08 09 0A 0B 0C 0D 0E 0F
      -- -- -- -- -- -- -- --  -- -- -- -- -- -- -- --
01B0:                                   00                         .    
```

#### Opcodes

```
  0: 0x01BB [0x00] END_REQSTACK()
```

### Event 162

#### Metadata

| Field        | Value    |
|--------------|----------|
| Entrypoint   | 0x01BC   |
| Data Size    | 44 bytes |
| Instructions | 11       |

```
      00 01 02 03 04 05 06 07  08 09 0A 0B 0C 0D 0E 0F
      -- -- -- -- -- -- -- --  -- -- -- -- -- -- -- --
01B0:                                      1E F0 FF FF              ....
01C0: 7F 1C 03 80 66 05 80 F8  FF FF 7F F8 FF FF 7F 74  ....f..........t
01D0: 77 62 30 02 02 10 02 80  00 E2 01 1D 15 80 23 01  wb0...........#.
01E0: E6 01 1D 16 80 23 21 00                           .....#!.        
```

#### Opcodes

```
  0: 0x01BC [0x1E] EventEntity looks at LocalPlayer and starts talking
  1: 0x01C1 [0x1C] WAIT(30* ticks)
  2: 0x01C4 [0x66] LOAD_EXT_SCHEDULER_MAIN: Load scheduler "twb0" with entities [EventEntity, EventEntity], work=9*
  3: 0x01D3 [0x02] IF !(Work_Zone[2] == 0*) GOTO 0x01E2
  4: 0x01DB [0x1D] PRINT_EVENT_MESSAGE(message_id=11567*)
    → "What are you doing, soldier? Head over to the next window and speak with Legion Engineer Aurelius on the double!"
  5: 0x01DE [0x23] WAIT_FOR_DIALOG_INTERACTION
  6: 0x01DF [0x01] GOTO 0x01E6
  7: 0x01E2 [0x1D] PRINT_EVENT_MESSAGE(message_id=11568*)
    → "So, you've finally come to your senses and decided to return to the Fighting Fourth? March on over to Centurion Fridolin and get your papers sorted out, soldier."
  8: 0x01E5 [0x23] WAIT_FOR_DIALOG_INTERACTION

SUBROUTINE_01E6:
  9: 0x01E6 [0x21] END_EVENT
 10: 0x01E7 [0x00] END_REQSTACK()
```

### Event 63

#### Metadata

| Field        | Value   |
|--------------|---------|
| Entrypoint   | 0x01E8  |
| Data Size    | 7 bytes |
| Instructions | 2       |

```
      00 01 02 03 04 05 06 07  08 09 0A 0B 0C 0D 0E 0F
      -- -- -- -- -- -- -- --  -- -- -- -- -- -- -- --
01E0:                          92 01 F8 FF FF 7F 00             ....... 
```

#### Opcodes

```
  0: 0x01E8 [0x92] EventEntity->Render.Flags3 ^= 0x01
  1: 0x01EE [0x00] END_REQSTACK()
```

### Event 65535.2

#### Metadata

| Field        | Value    |
|--------------|----------|
| Entrypoint   | 0x01EF   |
| Data Size    | 13 bytes |
| Instructions | 3        |

```
      00 01 02 03 04 05 06 07  08 09 0A 0B 0C 0D 0E 0F
      -- -- -- -- -- -- -- --  -- -- -- -- -- -- -- --
01E0:                                               6E                 n
01F0: F8 FF FF 7F 17 80 99 F8  FF FF 7F 00              ............    
```

#### Opcodes

```
  0: 0x01EF [0x6E] EventEntity uses emote 43*
  1: 0x01F6 [0x99] Wait for EventEntity animation to complete
  2: 0x01FB [0x00] END_REQSTACK()
```

### Event 361

#### Metadata

| Field        | Value    |
|--------------|----------|
| Entrypoint   | 0x01FC   |
| Data Size    | 26 bytes |
| Instructions | 8        |

```
      00 01 02 03 04 05 06 07  08 09 0A 0B 0C 0D 0E 0F
      -- -- -- -- -- -- -- --  -- -- -- -- -- -- -- --
01F0:                                      1E F0 FF FF              ....
0200: 7F 1C 03 80 2B F8 FF FF  7F 18 80 23 2B F8 FF FF  ....+......#+...
0210: 7F 19 80 23 21 00                                 ...#!.          
```

#### Opcodes

```
  0: 0x01FC [0x1E] EventEntity looks at LocalPlayer and starts talking
  1: 0x0201 [0x1C] WAIT(30* ticks)
  2: 0x0204 [0x2B] EventEntity [13625*]:
    → "Looking for a half-Elvaan, half-Hume lass with a shock of red hair, eh? Sorry, but I've seen no one around here fitting that description."
  3: 0x020B [0x23] WAIT_FOR_DIALOG_INTERACTION
  4: 0x020C [0x2B] EventEntity [13640*]:
    → "If she ever comes by, though, I'll be sure to let you know."
  5: 0x0213 [0x23] WAIT_FOR_DIALOG_INTERACTION
  6: 0x0214 [0x21] END_EVENT
  7: 0x0215 [0x00] END_REQSTACK()
```

### Event 359

#### Metadata

| Field        | Value   |
|--------------|---------|
| Entrypoint   | 0x0216  |
| Data Size    | 1 bytes |
| Instructions | 1       |

```
      00 01 02 03 04 05 06 07  08 09 0A 0B 0C 0D 0E 0F
      -- -- -- -- -- -- -- --  -- -- -- -- -- -- -- --
0210:                   00                                    .         
```

#### Opcodes

```
  0: 0x0216 [0x00] END_REQSTACK()
```

### Event 360

#### Metadata

| Field        | Value   |
|--------------|---------|
| Entrypoint   | 0x0217  |
| Data Size    | 1 bytes |
| Instructions | 1       |

```
      00 01 02 03 04 05 06 07  08 09 0A 0B 0C 0D 0E 0F
      -- -- -- -- -- -- -- --  -- -- -- -- -- -- -- --
0210:                      00                                  .        
```

#### Opcodes

```
  0: 0x0217 [0x00] END_REQSTACK()
```

### Event 65535.3

#### Metadata

| Field        | Value   |
|--------------|---------|
| Entrypoint   | 0x0218  |
| Data Size    | 1 bytes |
| Instructions | 1       |

```
      00 01 02 03 04 05 06 07  08 09 0A 0B 0C 0D 0E 0F
      -- -- -- -- -- -- -- --  -- -- -- -- -- -- -- --
0210:                          00                               .       
```

#### Opcodes

```
  0: 0x0218 [0x00] END_REQSTACK()
```

### Event 65535.4

#### Metadata

| Field        | Value    |
|--------------|----------|
| Entrypoint   | 0x0219   |
| Data Size    | 18 bytes |
| Instructions | 4        |

```
      00 01 02 03 04 05 06 07  08 09 0A 0B 0C 0D 0E 0F
      -- -- -- -- -- -- -- --  -- -- -- -- -- -- -- --
0210:                             22 00 2F 00 F8 FF FF           "./....
0220: 7F 6C F8 FF FF 7F 02 80  09 80 00                 .l.........     
```

#### Opcodes

```
  0: 0x0219 [0x22] ENTITY_HIDE_FLAG(enabled=0x00)
  1: 0x021B [0x2F] EventEntity->Render.Flags0 &= ~0x80000 // Bit 19
  2: 0x0221 [0x6C] FADE_ENTITY_COLOR(entity_id=EventEntity, end_alpha=0*, fade_time=1*)
  3: 0x022A [0x00] END_REQSTACK()
```

### Event 65535.5

#### Metadata

| Field        | Value    |
|--------------|----------|
| Entrypoint   | 0x022B   |
| Data Size    | 10 bytes |
| Instructions | 2        |

```
      00 01 02 03 04 05 06 07  08 09 0A 0B 0C 0D 0E 0F
      -- -- -- -- -- -- -- --  -- -- -- -- -- -- -- --
0220:                                   6C F8 FF FF 7F             l....
0230: 1A 80 09 80 00                                    .....           
```

#### Opcodes

```
  0: 0x022B [0x6C] FADE_ENTITY_COLOR(entity_id=EventEntity, end_alpha=128*, fade_time=1*)
  1: 0x0234 [0x00] END_REQSTACK()
```

### Event 65535.6

#### Metadata

| Field        | Value   |
|--------------|---------|
| Entrypoint   | 0x0235  |
| Data Size    | 9 bytes |
| Instructions | 3       |

```
      00 01 02 03 04 05 06 07  08 09 0A 0B 0C 0D 0E 0F
      -- -- -- -- -- -- -- --  -- -- -- -- -- -- -- --
0230:                22 00 2F  00 F8 FF FF 7F 00             "./......  
```

#### Opcodes

```
  0: 0x0235 [0x22] ENTITY_HIDE_FLAG(enabled=0x00)
  1: 0x0237 [0x2F] EventEntity->Render.Flags0 &= ~0x80000 // Bit 19
  2: 0x023D [0x00] END_REQSTACK()
```

### Event 65535.7

#### Metadata

| Field        | Value   |
|--------------|---------|
| Entrypoint   | 0x023E  |
| Data Size    | 9 bytes |
| Instructions | 3       |

```
      00 01 02 03 04 05 06 07  08 09 0A 0B 0C 0D 0E 0F
      -- -- -- -- -- -- -- --  -- -- -- -- -- -- -- --
0230:                                            22 01                ".
0240: 2F 01 F8 FF FF 7F 00                              /......         
```

#### Opcodes

```
  0: 0x023E [0x22] ENTITY_HIDE_FLAG(enabled=0x01)
  1: 0x0240 [0x2F] EventEntity->Render.Flags0 |= 0x80000 // Bit 19
  2: 0x0246 [0x00] END_REQSTACK()
```

### Event 65535.8

#### Metadata

| Field        | Value    |
|--------------|----------|
| Entrypoint   | 0x0247   |
| Data Size    | 10 bytes |
| Instructions | 2        |

```
      00 01 02 03 04 05 06 07  08 09 0A 0B 0C 0D 0E 0F
      -- -- -- -- -- -- -- --  -- -- -- -- -- -- -- --
0240:                      6C  F8 FF FF 7F 02 80 09 80         l........
0250: 00                                                .               
```

#### Opcodes

```
  0: 0x0247 [0x6C] FADE_ENTITY_COLOR(entity_id=EventEntity, end_alpha=0*, fade_time=1*)
  1: 0x0250 [0x00] END_REQSTACK()
```

### Event 65535.9

#### Metadata

| Field        | Value    |
|--------------|----------|
| Entrypoint   | 0x0251   |
| Data Size    | 10 bytes |
| Instructions | 2        |

```
      00 01 02 03 04 05 06 07  08 09 0A 0B 0C 0D 0E 0F
      -- -- -- -- -- -- -- --  -- -- -- -- -- -- -- --
0250:    6C F8 FF FF 7F 1A 80  09 80 00                  l.........     
```

#### Opcodes

```
  0: 0x0251 [0x6C] FADE_ENTITY_COLOR(entity_id=EventEntity, end_alpha=128*, fade_time=1*)
  1: 0x025A [0x00] END_REQSTACK()
```
