# 17134066 - Klara

## Common Data

| Field            | Value                       |
|------------------|-----------------------------|
| Zone             | Bastok Markets [S] (ID: 87) |
| Block Size       | 1644 bytes                  |
| Total Events     | 67                          |
| References Count | 90                          |

## List of Events

| Event ID                   | Entrypoint   |   Size |   Instructions |
|----------------------------|--------------|--------|----------------|
| [65535](#event-65535)      | 0x0000       |      1 |              1 |
| [160](#event-160)          | 0x0001       |      7 |              2 |
| [65535.1](#event-655351)   | 0x0008       |     22 |              6 |
| [65535.2](#event-655352)   | 0x001E       |     50 |              8 |
| [65535.3](#event-655353)   | 0x0050       |     14 |              4 |
| [65535.4](#event-655354)   | 0x005E       |     14 |              4 |
| [16](#event-16)            | 0x006C       |      1 |              1 |
| [65535.5](#event-655355)   | 0x006D       |     15 |              5 |
| [65535.6](#event-655356)   | 0x007C       |     22 |              6 |
| [65535.7](#event-655357)   | 0x0092       |     14 |              4 |
| [27](#event-27)            | 0x00A0       |      1 |              1 |
| [30](#event-30)            | 0x00A1       |      1 |              1 |
| [65535.8](#event-655358)   | 0x00A2       |     22 |              6 |
| [34](#event-34)            | 0x00B8       |      1 |              1 |
| [65535.9](#event-655359)   | 0x00B9       |     14 |              4 |
| [65535.10](#event-6553510) | 0x00C7       |     42 |             10 |
| [57](#event-57)            | 0x00F1       |      7 |              2 |
| [65535.11](#event-6553511) | 0x00F8       |     14 |              4 |
| [60](#event-60)            | 0x0106       |      7 |              2 |
| [77](#event-77)            | 0x010D       |      7 |              2 |
| [65535.12](#event-6553512) | 0x0114       |     19 |              5 |
| [65535.13](#event-6553513) | 0x0127       |     15 |              5 |
| [65535.14](#event-6553514) | 0x0136       |     14 |              4 |
| [78](#event-78)            | 0x0144       |      7 |              2 |
| [63](#event-63)            | 0x014B       |      7 |              2 |
| [65](#event-65)            | 0x0152       |      7 |              2 |
| [65535.15](#event-6553515) | 0x0159       |     15 |              5 |
| [65535.16](#event-6553516) | 0x0168       |     54 |             12 |
| [184](#event-184)          | 0x019E       |      1 |              1 |
| [66](#event-66)            | 0x019F       |      1 |              1 |
| [65535.17](#event-6553517) | 0x01A0       |     11 |              3 |
| [65535.18](#event-6553518) | 0x01AB       |     11 |              3 |
| [65535.19](#event-6553519) | 0x01B6       |     44 |             10 |
| [65535.20](#event-6553520) | 0x01E2       |     24 |              6 |
| [65535.21](#event-6553521) | 0x01FA       |     11 |              3 |
| [71](#event-71)            | 0x0205       |      9 |              3 |
| [65535.22](#event-6553522) | 0x020E       |     14 |              4 |
| [65535.23](#event-6553523) | 0x021C       |     34 |              8 |
| [216](#event-216)          | 0x023E       |      7 |              2 |
| [65535.24](#event-6553524) | 0x0245       |     16 |              2 |
| [65535.25](#event-6553525) | 0x0255       |     14 |              2 |
| [65535.26](#event-6553526) | 0x0263       |     16 |              2 |
| [65535.27](#event-6553527) | 0x0273       |     14 |              2 |
| [65535.28](#event-6553528) | 0x0281       |     16 |              2 |
| [65535.29](#event-6553529) | 0x0291       |     14 |              2 |
| [65535.30](#event-6553530) | 0x029F       |     16 |              2 |
| [65535.31](#event-6553531) | 0x02AF       |     14 |              2 |
| [65535.32](#event-6553532) | 0x02BD       |     16 |              2 |
| [65535.33](#event-6553533) | 0x02CD       |     14 |              2 |
| [65535.34](#event-6553534) | 0x02DB       |     16 |              2 |
| [65535.35](#event-6553535) | 0x02EB       |     14 |              2 |
| [65535.36](#event-6553536) | 0x02F9       |     16 |              2 |
| [65535.37](#event-6553537) | 0x0309       |     14 |              2 |
| [65535.38](#event-6553538) | 0x0317       |     16 |              2 |
| [65535.39](#event-6553539) | 0x0327       |     14 |              2 |
| [65535.40](#event-6553540) | 0x0335       |     16 |              2 |
| [65535.41](#event-6553541) | 0x0345       |     14 |              2 |
| [65535.42](#event-6553542) | 0x0353       |     16 |              2 |
| [65535.43](#event-6553543) | 0x0363       |     14 |              2 |
| [65535.44](#event-6553544) | 0x0371       |     16 |              2 |
| [65535.45](#event-6553545) | 0x0381       |     14 |              2 |
| [608](#event-608)          | 0x038F       |      1 |              1 |
| [65535.46](#event-6553546) | 0x0390       |     10 |              2 |
| [65535.47](#event-6553547) | 0x039A       |     14 |              4 |
| [65535.48](#event-6553548) | 0x03A8       |     14 |              4 |
| [65535.49](#event-6553549) | 0x03B6       |     14 |              4 |
| [65535.50](#event-6553550) | 0x03C4       |     34 |              8 |

## DAT References (imed_data)

|   Index | Hex Value   |   Dec Value |
|---------|-------------|-------------|
|       0 | 0x000D      |          13 |
|       1 | 0xFFFCF878  |  4294768760 |
|       2 | 0x0537      |        1335 |
|       3 | 0xFFFFD8F2  |  4294957298 |
|       4 | 0x001E      |          30 |
|       5 | 0xFFFFA6AE  |  4294944430 |
|       6 | 0xFFFFF939  |  4294965561 |
|       7 | 0xFFFFD8F0  |  4294957296 |
|       8 | 0x0542      |        1346 |
|       9 | 0xFFFFA04E  |  4294942798 |
|      10 | 0xFFFFFDE5  |  4294966757 |
|      11 | 0xFFFF8FF3  |  4294938611 |
|      12 | 0xFFFFFDFB  |  4294966779 |
|      13 | 0xFFFFD21B  |  4294955547 |
|      14 | 0xFFFFF5D5  |  4294964693 |
|      15 | 0xFFFFD514  |  4294956308 |
|      16 | 0xFFFCE4DF  |  4294763743 |
|      17 | 0xFFFFFE5D  |  4294966877 |
|      18 | 0xFFFCD3E6  |  4294759398 |
|      19 | 0xFFFFFE8E  |  4294966926 |
|      20 | 0x18127     |       98599 |
|      21 | 0x2E38      |       11832 |
|      22 | 0xFFFFB127  |  4294947111 |
|      23 | 0x15A51     |       88657 |
|      24 | 0x1630      |        5680 |
|      25 | 0xFFFFB138  |  4294947128 |
|      26 | 0x15A5A     |       88666 |
|      27 | 0x183D      |        6205 |
|      28 | 0xFFFFB136  |  4294947126 |
|      29 | 0x15B36     |       88886 |
|      30 | 0x270F      |        9999 |
|      31 | 0x16453     |       91219 |
|      32 | 0x3012      |       12306 |
|      33 | 0x16CFF     |       93439 |
|      34 | 0x2995      |       10645 |
|      35 | 0x0028      |          40 |
|      36 | 0xFFFCF4EE  |  4294767854 |
|      37 | 0xFFFFF2E5  |  4294963941 |
|      38 | 0xFFFCF82E  |  4294768686 |
|      39 | 0xFFFFE7F0  |  4294961136 |
|      40 | 0xFFFCF459  |  4294767705 |
|      41 | 0xFFFFB327  |  4294947623 |
|      42 | 0xFFFFD8F1  |  4294957297 |
|      43 | 0x1608C     |       90252 |
|      44 | 0x2ED9      |       11993 |
|      45 | 0x15A7E     |       88702 |
|      46 | 0x2242      |        8770 |
|      47 | 0x02CE      |         718 |
|      48 | 0x003C      |          60 |
|      49 | 0x005A      |          90 |
|      50 | 0x159DF     |       88543 |
|      51 | 0x0E50      |        3664 |
|      52 | 0xFFFFB3B4  |  4294947764 |
|      53 | 0x17EF5     |       98037 |
|      54 | 0x20BD      |        8381 |
|      55 | 0x16B08     |       92936 |
|      56 | 0x22FC      |        8956 |
|      57 | 0x15A1A     |       88602 |
|      58 | 0x22B8      |        8888 |
|      59 | 0x0014      |          20 |
|      60 | 0x0050      |          80 |
|      61 | 0x15956     |       88406 |
|      62 | 0x106E      |        4206 |
|      63 | 0xFFFEDC71  |  4294892657 |
|      64 | 0xFFFFF92E  |  4294965550 |
|      65 | 0x07CF      |        1999 |
|      66 | 0xFFFEC229  |  4294885929 |
|      67 | 0xFFFFFFD4  |  4294967252 |
|      68 | 0x1BD21     |      113953 |
|      69 | 0xFFFFDED5  |  4294958805 |
|      70 | 0x1ACBB     |      109755 |
|      71 | 0xFFFFDA68  |  4294957672 |
|      72 | 0x1A1DF     |      106975 |
|      73 | 0xFFFFD50A  |  4294956298 |
|      74 | 0xFFFFB12E  |  4294947118 |
|      75 | 0x04D1      |        1233 |
|      76 | 0x0543      |        1347 |
|      77 | 0x0544      |        1348 |
|      78 | 0xFFFCEDC0  |  4294766016 |
|      79 | 0xFFFFE3DD  |  4294960093 |
|      80 | 0x0BA8      |        2984 |
|      81 | 0xFFFFF8D0  |  4294965456 |
|      82 | 0xFFFCF0A9  |  4294766761 |
|      83 | 0xFFFFF25A  |  4294963802 |
|      84 | 0xFFFFC4A0  |  4294952096 |
|      85 | 0xFFFFE0C0  |  4294959296 |
|      86 | 0xFFFCEDE4  |  4294766052 |
|      87 | 0xFFFF8E45  |  4294938181 |
|      88 | 0xFFFCB7C3  |  4294752195 |
|      89 | 0xFFFF8CAA  |  4294937770 |

## Events

### Event 65535

#### Metadata

| Field        | Value   |
|--------------|---------|
| Entrypoint   | 0x0000  |
| Data Size    | 1 bytes |
| Instructions | 1       |

```
      00 01 02 03 04 05 06 07  08 09 0A 0B 0C 0D 0E 0F
      -- -- -- -- -- -- -- --  -- -- -- -- -- -- -- --
0000: 00                                                .               
```

#### Opcodes

```
  0: 0x0000 [0x00] END_REQSTACK()
```

### Event 160

#### Metadata

| Field        | Value   |
|--------------|---------|
| Entrypoint   | 0x0001  |
| Data Size    | 7 bytes |
| Instructions | 2       |

```
      00 01 02 03 04 05 06 07  08 09 0A 0B 0C 0D 0E 0F
      -- -- -- -- -- -- -- --  -- -- -- -- -- -- -- --
0000:    92 01 F8 FF FF 7F 00                            .......        
```

#### Opcodes

```
  0: 0x0001 [0x92] EventEntity->Render.Flags3 ^= 0x01
  1: 0x0007 [0x00] END_REQSTACK()
```

### Event 65535.1

#### Metadata

| Field        | Value    |
|--------------|----------|
| Entrypoint   | 0x0008   |
| Data Size    | 22 bytes |
| Instructions | 6        |

```
      00 01 02 03 04 05 06 07  08 09 0A 0B 0C 0D 0E 0F
      -- -- -- -- -- -- -- --  -- -- -- -- -- -- -- --
0000:                          32 00 80 1F 00 01 80 02          2.......
0010: 80 03 80 1F 01 1E D7 71  05 01 1C 04 80 00        .......q......  
```

#### Opcodes

```
  0: 0x0008 [0x32] ExtData[1]->MainSpeed = 13* * 0.1
  1: 0x000B [0x1F] MOVE_ENTITY: EventEntity moves to X=-198.536*, Z=1.335*, Y=-9.998*
  2: 0x0013 [0x1F] MOVE_ENTITY: Update entity position (mode=1)
  3: 0x0015 [0x1E] EventEntity looks at Gentle Tiger (ID: 17134039/0x010571D7) and starts talking
  4: 0x001A [0x1C] WAIT(30* ticks)
  5: 0x001D [0x00] END_REQSTACK()
```

### Event 65535.2

#### Metadata

| Field        | Value    |
|--------------|----------|
| Entrypoint   | 0x001E   |
| Data Size    | 50 bytes |
| Instructions | 8        |

```
      00 01 02 03 04 05 06 07  08 09 0A 0B 0C 0D 0E 0F
      -- -- -- -- -- -- -- --  -- -- -- -- -- -- -- --
0010:                                            32 00                2.
0020: 80 1F 00 05 80 06 80 07  80 1F 01 1E CC 71 05 01  .............q..
0030: 1C 04 80 5B 08 80 F8 FF  FF 7F F8 FF FF 7F 75 64  ...[..........ud
0040: 65 30 53 F8 FF FF 7F F8  FF FF 7F 75 64 65 30 00  e0S........ude0.
```

#### Opcodes

```
  0: 0x001E [0x32] ExtData[1]->MainSpeed = 13* * 0.1
  1: 0x0021 [0x1F] MOVE_ENTITY: EventEntity moves to X=-22.866*, Z=-1.735*, Y=-10.000*
  2: 0x0029 [0x1F] MOVE_ENTITY: Update entity position (mode=1)
  3: 0x002B [0x1E] EventEntity looks at Werner (ID: 17134028/0x010571CC) and starts talking
  4: 0x0030 [0x1C] WAIT(30* ticks)
  5: 0x0033 [0x5B] LOAD_EXT_SCHEDULER: Load scheduler "ude0" with entities [EventEntity, EventEntity], work=1346*
  6: 0x0042 [0x53] WAIT_SCHEDULER_TASK: Wait for scheduler "ude0" with entities [EventEntity, EventEntity]
  7: 0x004F [0x00] END_REQSTACK()
```

### Event 65535.3

#### Metadata

| Field        | Value    |
|--------------|----------|
| Entrypoint   | 0x0050   |
| Data Size    | 14 bytes |
| Instructions | 4        |

```
      00 01 02 03 04 05 06 07  08 09 0A 0B 0C 0D 0E 0F
      -- -- -- -- -- -- -- --  -- -- -- -- -- -- -- --
0050: 32 00 80 1F 00 09 80 0A  80 07 80 1F 01 00        2.............  
```

#### Opcodes

```
  0: 0x0050 [0x32] ExtData[1]->MainSpeed = 13* * 0.1
  1: 0x0053 [0x1F] MOVE_ENTITY: EventEntity moves to X=-24.498*, Z=-0.539*, Y=-10.000*
  2: 0x005B [0x1F] MOVE_ENTITY: Update entity position (mode=1)
  3: 0x005D [0x00] END_REQSTACK()
```

### Event 65535.4

#### Metadata

| Field        | Value    |
|--------------|----------|
| Entrypoint   | 0x005E   |
| Data Size    | 14 bytes |
| Instructions | 4        |

```
      00 01 02 03 04 05 06 07  08 09 0A 0B 0C 0D 0E 0F
      -- -- -- -- -- -- -- --  -- -- -- -- -- -- -- --
0050:                                            32 00                2.
0060: 80 1F 00 0B 80 0C 80 07  80 1F 01 00              ............    
```

#### Opcodes

```
  0: 0x005E [0x32] ExtData[1]->MainSpeed = 13* * 0.1
  1: 0x0061 [0x1F] MOVE_ENTITY: EventEntity moves to X=-28.685*, Z=-0.517*, Y=-10.000*
  2: 0x0069 [0x1F] MOVE_ENTITY: Update entity position (mode=1)
  3: 0x006B [0x00] END_REQSTACK()
```

### Event 16

#### Metadata

| Field        | Value   |
|--------------|---------|
| Entrypoint   | 0x006C  |
| Data Size    | 1 bytes |
| Instructions | 1       |

```
      00 01 02 03 04 05 06 07  08 09 0A 0B 0C 0D 0E 0F
      -- -- -- -- -- -- -- --  -- -- -- -- -- -- -- --
0060:                                      00                       .   
```

#### Opcodes

```
  0: 0x006C [0x00] END_REQSTACK()
```

### Event 65535.5

#### Metadata

| Field        | Value    |
|--------------|----------|
| Entrypoint   | 0x006D   |
| Data Size    | 15 bytes |
| Instructions | 5        |

```
      00 01 02 03 04 05 06 07  08 09 0A 0B 0C 0D 0E 0F
      -- -- -- -- -- -- -- --  -- -- -- -- -- -- -- --
0060:                                         32 00 80               2..
0070: 1F 00 0D 80 0E 80 0F 80  1F 01 6F 00              ..........o.    
```

#### Opcodes

```
  0: 0x006D [0x32] ExtData[1]->MainSpeed = 13* * 0.1
  1: 0x0070 [0x1F] MOVE_ENTITY: EventEntity moves to X=-11.749*, Z=-2.603*, Y=-10.988*
  2: 0x0078 [0x1F] MOVE_ENTITY: Update entity position (mode=1)
  3: 0x007A [0x6F] WAIT_FRAME_DELAY: Yield until WaitTime reaches zero
  4: 0x007B [0x00] END_REQSTACK()
```

### Event 65535.6

#### Metadata

| Field        | Value    |
|--------------|----------|
| Entrypoint   | 0x007C   |
| Data Size    | 22 bytes |
| Instructions | 6        |

```
      00 01 02 03 04 05 06 07  08 09 0A 0B 0C 0D 0E 0F
      -- -- -- -- -- -- -- --  -- -- -- -- -- -- -- --
0070:                                      32 00 80 1F              2...
0080: 00 10 80 11 80 03 80 1F  01 1E D4 71 05 01 1C 04  ...........q....
0090: 80 00                                             ..              
```

#### Opcodes

```
  0: 0x007C [0x32] ExtData[1]->MainSpeed = 13* * 0.1
  1: 0x007F [0x1F] MOVE_ENTITY: EventEntity moves to X=-203.553*, Z=-0.419*, Y=-9.998*
  2: 0x0087 [0x1F] MOVE_ENTITY: Update entity position (mode=1)
  3: 0x0089 [0x1E] EventEntity looks at Pagdako (ID: 17134036/0x010571D4) and starts talking
  4: 0x008E [0x1C] WAIT(30* ticks)
  5: 0x0091 [0x00] END_REQSTACK()
```

### Event 65535.7

#### Metadata

| Field        | Value    |
|--------------|----------|
| Entrypoint   | 0x0092   |
| Data Size    | 14 bytes |
| Instructions | 4        |

```
      00 01 02 03 04 05 06 07  08 09 0A 0B 0C 0D 0E 0F
      -- -- -- -- -- -- -- --  -- -- -- -- -- -- -- --
0090:       32 00 80 1F 00 12  80 13 80 03 80 1F 01 00    2.............
```

#### Opcodes

```
  0: 0x0092 [0x32] ExtData[1]->MainSpeed = 13* * 0.1
  1: 0x0095 [0x1F] MOVE_ENTITY: EventEntity moves to X=-207.898*, Z=-0.370*, Y=-9.998*
  2: 0x009D [0x1F] MOVE_ENTITY: Update entity position (mode=1)
  3: 0x009F [0x00] END_REQSTACK()
```

### Event 27

#### Metadata

| Field        | Value   |
|--------------|---------|
| Entrypoint   | 0x00A0  |
| Data Size    | 1 bytes |
| Instructions | 1       |

```
      00 01 02 03 04 05 06 07  08 09 0A 0B 0C 0D 0E 0F
      -- -- -- -- -- -- -- --  -- -- -- -- -- -- -- --
00A0: 00                                                .               
```

#### Opcodes

```
  0: 0x00A0 [0x00] END_REQSTACK()
```

### Event 30

#### Metadata

| Field        | Value   |
|--------------|---------|
| Entrypoint   | 0x00A1  |
| Data Size    | 1 bytes |
| Instructions | 1       |

```
      00 01 02 03 04 05 06 07  08 09 0A 0B 0C 0D 0E 0F
      -- -- -- -- -- -- -- --  -- -- -- -- -- -- -- --
00A0:    00                                              .              
```

#### Opcodes

```
  0: 0x00A1 [0x00] END_REQSTACK()
```

### Event 65535.8

#### Metadata

| Field        | Value    |
|--------------|----------|
| Entrypoint   | 0x00A2   |
| Data Size    | 22 bytes |
| Instructions | 6        |

```
      00 01 02 03 04 05 06 07  08 09 0A 0B 0C 0D 0E 0F
      -- -- -- -- -- -- -- --  -- -- -- -- -- -- -- --
00A0:       32 00 80 1F 00 14  80 15 80 16 80 1F 01 1E    2.............
00B0: F0 FF FF 7F 1C 04 80 00                           ........        
```

#### Opcodes

```
  0: 0x00A2 [0x32] ExtData[1]->MainSpeed = 13* * 0.1
  1: 0x00A5 [0x1F] MOVE_ENTITY: EventEntity moves to X=98.599*, Z=11.832*, Y=-20.185*
  2: 0x00AD [0x1F] MOVE_ENTITY: Update entity position (mode=1)
  3: 0x00AF [0x1E] EventEntity looks at LocalPlayer and starts talking
  4: 0x00B4 [0x1C] WAIT(30* ticks)
  5: 0x00B7 [0x00] END_REQSTACK()
```

### Event 34

#### Metadata

| Field        | Value   |
|--------------|---------|
| Entrypoint   | 0x00B8  |
| Data Size    | 1 bytes |
| Instructions | 1       |

```
      00 01 02 03 04 05 06 07  08 09 0A 0B 0C 0D 0E 0F
      -- -- -- -- -- -- -- --  -- -- -- -- -- -- -- --
00B0:                          00                               .       
```

#### Opcodes

```
  0: 0x00B8 [0x00] END_REQSTACK()
```

### Event 65535.9

#### Metadata

| Field        | Value    |
|--------------|----------|
| Entrypoint   | 0x00B9   |
| Data Size    | 14 bytes |
| Instructions | 4        |

```
      00 01 02 03 04 05 06 07  08 09 0A 0B 0C 0D 0E 0F
      -- -- -- -- -- -- -- --  -- -- -- -- -- -- -- --
00B0:                             32 00 80 1F 00 17 80           2......
00C0: 18 80 19 80 1F 01 00                              .......         
```

#### Opcodes

```
  0: 0x00B9 [0x32] ExtData[1]->MainSpeed = 13* * 0.1
  1: 0x00BC [0x1F] MOVE_ENTITY: EventEntity moves to X=88.657*, Z=5.680*, Y=-20.168*
  2: 0x00C4 [0x1F] MOVE_ENTITY: Update entity position (mode=1)
  3: 0x00C6 [0x00] END_REQSTACK()
```

### Event 65535.10

#### Metadata

| Field        | Value    |
|--------------|----------|
| Entrypoint   | 0x00C7   |
| Data Size    | 42 bytes |
| Instructions | 10       |

```
      00 01 02 03 04 05 06 07  08 09 0A 0B 0C 0D 0E 0F
      -- -- -- -- -- -- -- --  -- -- -- -- -- -- -- --
00C0:                      32  00 80 1F 00 1A 80 1B 80         2........
00D0: 1C 80 1F 01 1F 00 1D 80  1E 80 1C 80 1F 01 1F 00  ................
00E0: 1F 80 20 80 16 80 1F 01  1C 04 80 1E F1 71 05 01  .. ..........q..
00F0: 00                                                .               
```

#### Opcodes

```
  0: 0x00C7 [0x32] ExtData[1]->MainSpeed = 13* * 0.1
  1: 0x00CA [0x1F] MOVE_ENTITY: EventEntity moves to X=88.666*, Z=6.205*, Y=-20.170*
  2: 0x00D2 [0x1F] MOVE_ENTITY: Update entity position (mode=1)
  3: 0x00D4 [0x1F] MOVE_ENTITY: EventEntity moves to X=88.886*, Z=9.999*, Y=-20.170*
  4: 0x00DC [0x1F] MOVE_ENTITY: Update entity position (mode=1)
  5: 0x00DE [0x1F] MOVE_ENTITY: EventEntity moves to X=91.219*, Z=12.306*, Y=-20.185*
  6: 0x00E6 [0x1F] MOVE_ENTITY: Update entity position (mode=1)
  7: 0x00E8 [0x1C] WAIT(30* ticks)
  8: 0x00EB [0x1E] EventEntity looks at Prien (ID: 17134065/0x010571F1) and starts talking
  9: 0x00F0 [0x00] END_REQSTACK()
```

### Event 57

#### Metadata

| Field        | Value   |
|--------------|---------|
| Entrypoint   | 0x00F1  |
| Data Size    | 7 bytes |
| Instructions | 2       |

```
      00 01 02 03 04 05 06 07  08 09 0A 0B 0C 0D 0E 0F
      -- -- -- -- -- -- -- --  -- -- -- -- -- -- -- --
00F0:    92 01 F8 FF FF 7F 00                            .......        
```

#### Opcodes

```
  0: 0x00F1 [0x92] EventEntity->Render.Flags3 ^= 0x01
  1: 0x00F7 [0x00] END_REQSTACK()
```

### Event 65535.11

#### Metadata

| Field        | Value    |
|--------------|----------|
| Entrypoint   | 0x00F8   |
| Data Size    | 14 bytes |
| Instructions | 4        |

```
      00 01 02 03 04 05 06 07  08 09 0A 0B 0C 0D 0E 0F
      -- -- -- -- -- -- -- --  -- -- -- -- -- -- -- --
00F0:                          32 00 80 1F 00 21 80 22          2....!."
0100: 80 16 80 1F 01 00                                 ......          
```

#### Opcodes

```
  0: 0x00F8 [0x32] ExtData[1]->MainSpeed = 13* * 0.1
  1: 0x00FB [0x1F] MOVE_ENTITY: EventEntity moves to X=93.439*, Z=10.645*, Y=-20.185*
  2: 0x0103 [0x1F] MOVE_ENTITY: Update entity position (mode=1)
  3: 0x0105 [0x00] END_REQSTACK()
```

### Event 60

#### Metadata

| Field        | Value   |
|--------------|---------|
| Entrypoint   | 0x0106  |
| Data Size    | 7 bytes |
| Instructions | 2       |

```
      00 01 02 03 04 05 06 07  08 09 0A 0B 0C 0D 0E 0F
      -- -- -- -- -- -- -- --  -- -- -- -- -- -- -- --
0100:                   92 01  F8 FF FF 7F 00                 .......   
```

#### Opcodes

```
  0: 0x0106 [0x92] EventEntity->Render.Flags3 ^= 0x01
  1: 0x010C [0x00] END_REQSTACK()
```

### Event 77

#### Metadata

| Field        | Value   |
|--------------|---------|
| Entrypoint   | 0x010D  |
| Data Size    | 7 bytes |
| Instructions | 2       |

```
      00 01 02 03 04 05 06 07  08 09 0A 0B 0C 0D 0E 0F
      -- -- -- -- -- -- -- --  -- -- -- -- -- -- -- --
0100:                                         92 01 F8               ...
0110: FF FF 7F 00                                       ....            
```

#### Opcodes

```
  0: 0x010D [0x92] EventEntity->Render.Flags3 ^= 0x01
  1: 0x0113 [0x00] END_REQSTACK()
```

### Event 65535.12

#### Metadata

| Field        | Value    |
|--------------|----------|
| Entrypoint   | 0x0114   |
| Data Size    | 19 bytes |
| Instructions | 5        |

```
      00 01 02 03 04 05 06 07  08 09 0A 0B 0C 0D 0E 0F
      -- -- -- -- -- -- -- --  -- -- -- -- -- -- -- --
0110:             32 23 80 1F  00 24 80 25 80 03 80 1F      2#...$.%....
0120: 01 1E B4 71 05 01 00                              ...q...         
```

#### Opcodes

```
  0: 0x0114 [0x32] ExtData[1]->MainSpeed = 40* * 0.1
  1: 0x0117 [0x1F] MOVE_ENTITY: EventEntity moves to X=-199.442*, Z=-3.355*, Y=-9.998*
  2: 0x011F [0x1F] MOVE_ENTITY: Update entity position (mode=1)
  3: 0x0121 [0x1E] EventEntity looks at Volker (ID: 17134004/0x010571B4) and starts talking
  4: 0x0126 [0x00] END_REQSTACK()
```

### Event 65535.13

#### Metadata

| Field        | Value    |
|--------------|----------|
| Entrypoint   | 0x0127   |
| Data Size    | 15 bytes |
| Instructions | 5        |

```
      00 01 02 03 04 05 06 07  08 09 0A 0B 0C 0D 0E 0F
      -- -- -- -- -- -- -- --  -- -- -- -- -- -- -- --
0120:                      32  00 80 1F 00 26 80 27 80         2....&.'.
0130: 03 80 1F 01 6F 00                                 ....o.          
```

#### Opcodes

```
  0: 0x0127 [0x32] ExtData[1]->MainSpeed = 13* * 0.1
  1: 0x012A [0x1F] MOVE_ENTITY: EventEntity moves to X=-198.610*, Z=-6.160*, Y=-9.998*
  2: 0x0132 [0x1F] MOVE_ENTITY: Update entity position (mode=1)
  3: 0x0134 [0x6F] WAIT_FRAME_DELAY: Yield until WaitTime reaches zero
  4: 0x0135 [0x00] END_REQSTACK()
```

### Event 65535.14

#### Metadata

| Field        | Value    |
|--------------|----------|
| Entrypoint   | 0x0136   |
| Data Size    | 14 bytes |
| Instructions | 4        |

```
      00 01 02 03 04 05 06 07  08 09 0A 0B 0C 0D 0E 0F
      -- -- -- -- -- -- -- --  -- -- -- -- -- -- -- --
0130:                   32 23  80 1F 00 28 80 29 80 2A        2#...(.).*
0140: 80 1F 01 00                                       ....            
```

#### Opcodes

```
  0: 0x0136 [0x32] ExtData[1]->MainSpeed = 40* * 0.1
  1: 0x0139 [0x1F] MOVE_ENTITY: EventEntity moves to X=-199.591*, Z=-19.673*, Y=-9.999*
  2: 0x0141 [0x1F] MOVE_ENTITY: Update entity position (mode=1)
  3: 0x0143 [0x00] END_REQSTACK()
```

### Event 78

#### Metadata

| Field        | Value   |
|--------------|---------|
| Entrypoint   | 0x0144  |
| Data Size    | 7 bytes |
| Instructions | 2       |

```
      00 01 02 03 04 05 06 07  08 09 0A 0B 0C 0D 0E 0F
      -- -- -- -- -- -- -- --  -- -- -- -- -- -- -- --
0140:             92 01 F8 FF  FF 7F 00                     .......     
```

#### Opcodes

```
  0: 0x0144 [0x92] EventEntity->Render.Flags3 ^= 0x01
  1: 0x014A [0x00] END_REQSTACK()
```

### Event 63

#### Metadata

| Field        | Value   |
|--------------|---------|
| Entrypoint   | 0x014B  |
| Data Size    | 7 bytes |
| Instructions | 2       |

```
      00 01 02 03 04 05 06 07  08 09 0A 0B 0C 0D 0E 0F
      -- -- -- -- -- -- -- --  -- -- -- -- -- -- -- --
0140:                                   92 01 F8 FF FF             .....
0150: 7F 00                                             ..              
```

#### Opcodes

```
  0: 0x014B [0x92] EventEntity->Render.Flags3 ^= 0x01
  1: 0x0151 [0x00] END_REQSTACK()
```

### Event 65

#### Metadata

| Field        | Value   |
|--------------|---------|
| Entrypoint   | 0x0152  |
| Data Size    | 7 bytes |
| Instructions | 2       |

```
      00 01 02 03 04 05 06 07  08 09 0A 0B 0C 0D 0E 0F
      -- -- -- -- -- -- -- --  -- -- -- -- -- -- -- --
0150:       92 01 F8 FF FF 7F  00                         .......       
```

#### Opcodes

```
  0: 0x0152 [0x92] EventEntity->Render.Flags3 ^= 0x01
  1: 0x0158 [0x00] END_REQSTACK()
```

### Event 65535.15

#### Metadata

| Field        | Value    |
|--------------|----------|
| Entrypoint   | 0x0159   |
| Data Size    | 15 bytes |
| Instructions | 5        |

```
      00 01 02 03 04 05 06 07  08 09 0A 0B 0C 0D 0E 0F
      -- -- -- -- -- -- -- --  -- -- -- -- -- -- -- --
0150:                             32 00 80 1F 00 2B 80           2....+.
0160: 2C 80 1C 80 1F 01 6F 00                           ,.....o.        
```

#### Opcodes

```
  0: 0x0159 [0x32] ExtData[1]->MainSpeed = 13* * 0.1
  1: 0x015C [0x1F] MOVE_ENTITY: EventEntity moves to X=90.252*, Z=11.993*, Y=-20.170*
  2: 0x0164 [0x1F] MOVE_ENTITY: Update entity position (mode=1)
  3: 0x0166 [0x6F] WAIT_FRAME_DELAY: Yield until WaitTime reaches zero
  4: 0x0167 [0x00] END_REQSTACK()
```

### Event 65535.16

#### Metadata

| Field        | Value    |
|--------------|----------|
| Entrypoint   | 0x0168   |
| Data Size    | 54 bytes |
| Instructions | 12       |

```
      00 01 02 03 04 05 06 07  08 09 0A 0B 0C 0D 0E 0F
      -- -- -- -- -- -- -- --  -- -- -- -- -- -- -- --
0160:                          32 00 80 1F 00 2D 80 2E          2....-..
0170: 80 1C 80 1F 01 4B F8 FF  FF 7F 2F 80 1C 30 80 27  .....K..../..0.'
0180: 05 41 72 05 01 03 1C 31  80 1F 00 32 80 33 80 34  .Ar....1...2.3.4
0190: 80 1F 01 27 05 41 72 05  01 04 1C 31 80 00        ...'.Ar....1..  
```

#### Opcodes

```
  0: 0x0168 [0x32] ExtData[1]->MainSpeed = 13* * 0.1
  1: 0x016B [0x1F] MOVE_ENTITY: EventEntity moves to X=88.702*, Z=8.770*, Y=-20.170*
  2: 0x0173 [0x1F] MOVE_ENTITY: Update entity position (mode=1)
  3: 0x0175 [0x4B] UPDATE_ENTITY_YAW(entity=EventEntity, yaw=3.9°*)
  4: 0x017C [0x1C] WAIT(60* ticks)
  5: 0x017F [0x27] REQ_SET(priority=0x05, entity_id=Unnamed NPC (ID: 17134145/0x01057241), tag_num=0x03)
  6: 0x0186 [0x1C] WAIT(90* ticks)
  7: 0x0189 [0x1F] MOVE_ENTITY: EventEntity moves to X=88.543*, Z=3.664*, Y=-19.532*
  8: 0x0191 [0x1F] MOVE_ENTITY: Update entity position (mode=1)
  9: 0x0193 [0x27] REQ_SET(priority=0x05, entity_id=Unnamed NPC (ID: 17134145/0x01057241), tag_num=0x04)
 10: 0x019A [0x1C] WAIT(90* ticks)
 11: 0x019D [0x00] END_REQSTACK()
```

### Event 184

#### Metadata

| Field        | Value   |
|--------------|---------|
| Entrypoint   | 0x019E  |
| Data Size    | 1 bytes |
| Instructions | 1       |

```
      00 01 02 03 04 05 06 07  08 09 0A 0B 0C 0D 0E 0F
      -- -- -- -- -- -- -- --  -- -- -- -- -- -- -- --
0190:                                            00                   . 
```

#### Opcodes

```
  0: 0x019E [0x00] END_REQSTACK()
```

### Event 66

#### Metadata

| Field        | Value   |
|--------------|---------|
| Entrypoint   | 0x019F  |
| Data Size    | 1 bytes |
| Instructions | 1       |

```
      00 01 02 03 04 05 06 07  08 09 0A 0B 0C 0D 0E 0F
      -- -- -- -- -- -- -- --  -- -- -- -- -- -- -- --
0190:                                               00                 .
```

#### Opcodes

```
  0: 0x019F [0x00] END_REQSTACK()
```

### Event 65535.17

#### Metadata

| Field        | Value    |
|--------------|----------|
| Entrypoint   | 0x01A0   |
| Data Size    | 11 bytes |
| Instructions | 3        |

```
      00 01 02 03 04 05 06 07  08 09 0A 0B 0C 0D 0E 0F
      -- -- -- -- -- -- -- --  -- -- -- -- -- -- -- --
01A0: 1F 00 35 80 36 80 1C 80  1F 01 00                 ..5.6......     
```

#### Opcodes

```
  0: 0x01A0 [0x1F] MOVE_ENTITY: EventEntity moves to X=98.037*, Z=8.381*, Y=-20.170*
  1: 0x01A8 [0x1F] MOVE_ENTITY: Update entity position (mode=1)
  2: 0x01AA [0x00] END_REQSTACK()
```

### Event 65535.18

#### Metadata

| Field        | Value    |
|--------------|----------|
| Entrypoint   | 0x01AB   |
| Data Size    | 11 bytes |
| Instructions | 3        |

```
      00 01 02 03 04 05 06 07  08 09 0A 0B 0C 0D 0E 0F
      -- -- -- -- -- -- -- --  -- -- -- -- -- -- -- --
01A0:                                   1F 00 37 80 38             ..7.8
01B0: 80 1C 80 1F 01 00                                 ......          
```

#### Opcodes

```
  0: 0x01AB [0x1F] MOVE_ENTITY: EventEntity moves to X=92.936*, Z=8.956*, Y=-20.170*
  1: 0x01B3 [0x1F] MOVE_ENTITY: Update entity position (mode=1)
  2: 0x01B5 [0x00] END_REQSTACK()
```

### Event 65535.19

#### Metadata

| Field        | Value    |
|--------------|----------|
| Entrypoint   | 0x01B6   |
| Data Size    | 44 bytes |
| Instructions | 10       |

```
      00 01 02 03 04 05 06 07  08 09 0A 0B 0C 0D 0E 0F
      -- -- -- -- -- -- -- --  -- -- -- -- -- -- -- --
01B0:                   1F 00  39 80 3A 80 1C 80 1F 01        ..9.:.....
01C0: 6F 4A F2 71 05 01 41 72  05 01 1C 3B 80 27 10 41  oJ.q..Ar...;.'.A
01D0: 72 05 01 03 1C 3C 80 1F  00 3D 80 3E 80 1C 80 1F  r....<...=.>....
01E0: 01 00                                             ..              
```

#### Opcodes

```
  0: 0x01B6 [0x1F] MOVE_ENTITY: EventEntity moves to X=88.602*, Z=8.888*, Y=-20.170*
  1: 0x01BE [0x1F] MOVE_ENTITY: Update entity position (mode=1)
  2: 0x01C0 [0x6F] WAIT_FRAME_DELAY: Yield until WaitTime reaches zero
  3: 0x01C1 [0x4A] Klara (ID: 17134066/0x010571F2) looks at Unnamed NPC (ID: 17134145/0x01057241)
  4: 0x01CA [0x1C] WAIT(20* ticks)
  5: 0x01CD [0x27] REQ_SET(priority=0x10, entity_id=Unnamed NPC (ID: 17134145/0x01057241), tag_num=0x03)
  6: 0x01D4 [0x1C] WAIT(80* ticks)
  7: 0x01D7 [0x1F] MOVE_ENTITY: EventEntity moves to X=88.406*, Z=4.206*, Y=-20.170*
  8: 0x01DF [0x1F] MOVE_ENTITY: Update entity position (mode=1)
  9: 0x01E1 [0x00] END_REQSTACK()
```

### Event 65535.20

#### Metadata

| Field        | Value    |
|--------------|----------|
| Entrypoint   | 0x01E2   |
| Data Size    | 24 bytes |
| Instructions | 6        |

```
      00 01 02 03 04 05 06 07  08 09 0A 0B 0C 0D 0E 0F
      -- -- -- -- -- -- -- --  -- -- -- -- -- -- -- --
01E0:       1F 00 3F 80 40 80  41 80 1F 01 6F 1C 04 80    ..?.@.A...o...
01F0: 4A F2 71 05 01 B3 71 05  01 00                    J.q...q...      
```

#### Opcodes

```
  0: 0x01E2 [0x1F] MOVE_ENTITY: EventEntity moves to X=-74.639*, Z=-1.746*, Y=1.999*
  1: 0x01EA [0x1F] MOVE_ENTITY: Update entity position (mode=1)
  2: 0x01EC [0x6F] WAIT_FRAME_DELAY: Yield until WaitTime reaches zero
  3: 0x01ED [0x1C] WAIT(30* ticks)
  4: 0x01F0 [0x4A] Klara (ID: 17134066/0x010571F2) looks at Zeid (ID: 17134003/0x010571B3)
  5: 0x01F9 [0x00] END_REQSTACK()
```

### Event 65535.21

#### Metadata

| Field        | Value    |
|--------------|----------|
| Entrypoint   | 0x01FA   |
| Data Size    | 11 bytes |
| Instructions | 3        |

```
      00 01 02 03 04 05 06 07  08 09 0A 0B 0C 0D 0E 0F
      -- -- -- -- -- -- -- --  -- -- -- -- -- -- -- --
01F0:                                1F 00 42 80 43 80            ..B.C.
0200: 41 80 1F 01 00                                    A....           
```

#### Opcodes

```
  0: 0x01FA [0x1F] MOVE_ENTITY: EventEntity moves to X=-81.367*, Z=-0.044*, Y=1.999*
  1: 0x0202 [0x1F] MOVE_ENTITY: Update entity position (mode=1)
  2: 0x0204 [0x00] END_REQSTACK()
```

### Event 71

#### Metadata

| Field        | Value   |
|--------------|---------|
| Entrypoint   | 0x0205  |
| Data Size    | 9 bytes |
| Instructions | 3       |

```
      00 01 02 03 04 05 06 07  08 09 0A 0B 0C 0D 0E 0F
      -- -- -- -- -- -- -- --  -- -- -- -- -- -- -- --
0200:                92 01 F8  FF FF 7F A4 01 00             .........  
```

#### Opcodes

```
  0: 0x0205 [0x92] EventEntity->Render.Flags3 ^= 0x01
  1: 0x020B [0xA4] EventEntity->Flags3.unknown_3_2 = 1
  2: 0x020D [0x00] END_REQSTACK()
```

### Event 65535.22

#### Metadata

| Field        | Value    |
|--------------|----------|
| Entrypoint   | 0x020E   |
| Data Size    | 14 bytes |
| Instructions | 4        |

```
      00 01 02 03 04 05 06 07  08 09 0A 0B 0C 0D 0E 0F
      -- -- -- -- -- -- -- --  -- -- -- -- -- -- -- --
0200:                                            32 00                2.
0210: 80 1F 00 44 80 45 80 1C  80 1F 01 00              ...D.E......    
```

#### Opcodes

```
  0: 0x020E [0x32] ExtData[1]->MainSpeed = 13* * 0.1
  1: 0x0211 [0x1F] MOVE_ENTITY: EventEntity moves to X=113.953*, Z=-8.491*, Y=-20.170*
  2: 0x0219 [0x1F] MOVE_ENTITY: Update entity position (mode=1)
  3: 0x021B [0x00] END_REQSTACK()
```

### Event 65535.23

#### Metadata

| Field        | Value    |
|--------------|----------|
| Entrypoint   | 0x021C   |
| Data Size    | 34 bytes |
| Instructions | 8        |

```
      00 01 02 03 04 05 06 07  08 09 0A 0B 0C 0D 0E 0F
      -- -- -- -- -- -- -- --  -- -- -- -- -- -- -- --
0210:                                      32 00 80 1F              2...
0220: 00 46 80 47 80 1C 80 1F  01 1F 00 48 80 49 80 4A  .F.G.......H.I.J
0230: 80 1F 01 4B F8 FF FF 7F  4B 80 1C 30 80 00        ...K....K..0..  
```

#### Opcodes

```
  0: 0x021C [0x32] ExtData[1]->MainSpeed = 13* * 0.1
  1: 0x021F [0x1F] MOVE_ENTITY: EventEntity moves to X=109.755*, Z=-9.624*, Y=-20.170*
  2: 0x0227 [0x1F] MOVE_ENTITY: Update entity position (mode=1)
  3: 0x0229 [0x1F] MOVE_ENTITY: EventEntity moves to X=106.975*, Z=-10.998*, Y=-20.178*
  4: 0x0231 [0x1F] MOVE_ENTITY: Update entity position (mode=1)
  5: 0x0233 [0x4B] UPDATE_ENTITY_YAW(entity=EventEntity, yaw=6.8°*)
  6: 0x023A [0x1C] WAIT(60* ticks)
  7: 0x023D [0x00] END_REQSTACK()
```

### Event 216

#### Metadata

| Field        | Value   |
|--------------|---------|
| Entrypoint   | 0x023E  |
| Data Size    | 7 bytes |
| Instructions | 2       |

```
      00 01 02 03 04 05 06 07  08 09 0A 0B 0C 0D 0E 0F
      -- -- -- -- -- -- -- --  -- -- -- -- -- -- -- --
0230:                                            92 01                ..
0240: F8 FF FF 7F 00                                    .....           
```

#### Opcodes

```
  0: 0x023E [0x92] EventEntity->Render.Flags3 ^= 0x01
  1: 0x0244 [0x00] END_REQSTACK()
```

### Event 65535.24

#### Metadata

| Field        | Value    |
|--------------|----------|
| Entrypoint   | 0x0245   |
| Data Size    | 16 bytes |
| Instructions | 2        |

```
      00 01 02 03 04 05 06 07  08 09 0A 0B 0C 0D 0E 0F
      -- -- -- -- -- -- -- --  -- -- -- -- -- -- -- --
0240:                5B 08 80  F8 FF FF 7F F8 FF FF 7F       [..........
0250: 74 6C 6B 30 00                                    tlk0.           
```

#### Opcodes

```
  0: 0x0245 [0x5B] LOAD_EXT_SCHEDULER: Load scheduler "tlk0" with entities [EventEntity, EventEntity], work=1346*
  1: 0x0254 [0x00] END_REQSTACK()
```

### Event 65535.25

#### Metadata

| Field        | Value    |
|--------------|----------|
| Entrypoint   | 0x0255   |
| Data Size    | 14 bytes |
| Instructions | 2        |

```
      00 01 02 03 04 05 06 07  08 09 0A 0B 0C 0D 0E 0F
      -- -- -- -- -- -- -- --  -- -- -- -- -- -- -- --
0250:                53 F8 FF  FF 7F F8 FF FF 7F 74 6C       S........tl
0260: 6B 30 00                                          k0.             
```

#### Opcodes

```
  0: 0x0255 [0x53] WAIT_SCHEDULER_TASK: Wait for scheduler "tlk0" with entities [EventEntity, EventEntity]
  1: 0x0262 [0x00] END_REQSTACK()
```

### Event 65535.26

#### Metadata

| Field        | Value    |
|--------------|----------|
| Entrypoint   | 0x0263   |
| Data Size    | 16 bytes |
| Instructions | 2        |

```
      00 01 02 03 04 05 06 07  08 09 0A 0B 0C 0D 0E 0F
      -- -- -- -- -- -- -- --  -- -- -- -- -- -- -- --
0260:          5B 08 80 F8 FF  FF 7F F8 FF FF 7F 74 6C     [..........tl
0270: 6B 31 00                                          k1.             
```

#### Opcodes

```
  0: 0x0263 [0x5B] LOAD_EXT_SCHEDULER: Load scheduler "tlk1" with entities [EventEntity, EventEntity], work=1346*
  1: 0x0272 [0x00] END_REQSTACK()
```

### Event 65535.27

#### Metadata

| Field        | Value    |
|--------------|----------|
| Entrypoint   | 0x0273   |
| Data Size    | 14 bytes |
| Instructions | 2        |

```
      00 01 02 03 04 05 06 07  08 09 0A 0B 0C 0D 0E 0F
      -- -- -- -- -- -- -- --  -- -- -- -- -- -- -- --
0270:          53 F8 FF FF 7F  F8 FF FF 7F 74 6C 6B 31     S........tlk1
0280: 00                                                .               
```

#### Opcodes

```
  0: 0x0273 [0x53] WAIT_SCHEDULER_TASK: Wait for scheduler "tlk1" with entities [EventEntity, EventEntity]
  1: 0x0280 [0x00] END_REQSTACK()
```

### Event 65535.28

#### Metadata

| Field        | Value    |
|--------------|----------|
| Entrypoint   | 0x0281   |
| Data Size    | 16 bytes |
| Instructions | 2        |

```
      00 01 02 03 04 05 06 07  08 09 0A 0B 0C 0D 0E 0F
      -- -- -- -- -- -- -- --  -- -- -- -- -- -- -- --
0280:    5B 08 80 F8 FF FF 7F  F8 FF FF 7F 74 68 6B 30   [..........thk0
0290: 00                                                .               
```

#### Opcodes

```
  0: 0x0281 [0x5B] LOAD_EXT_SCHEDULER: Load scheduler "thk0" with entities [EventEntity, EventEntity], work=1346*
  1: 0x0290 [0x00] END_REQSTACK()
```

### Event 65535.29

#### Metadata

| Field        | Value    |
|--------------|----------|
| Entrypoint   | 0x0291   |
| Data Size    | 14 bytes |
| Instructions | 2        |

```
      00 01 02 03 04 05 06 07  08 09 0A 0B 0C 0D 0E 0F
      -- -- -- -- -- -- -- --  -- -- -- -- -- -- -- --
0290:    53 F8 FF FF 7F F8 FF  FF 7F 74 68 6B 30 00      S........thk0. 
```

#### Opcodes

```
  0: 0x0291 [0x53] WAIT_SCHEDULER_TASK: Wait for scheduler "thk0" with entities [EventEntity, EventEntity]
  1: 0x029E [0x00] END_REQSTACK()
```

### Event 65535.30

#### Metadata

| Field        | Value    |
|--------------|----------|
| Entrypoint   | 0x029F   |
| Data Size    | 16 bytes |
| Instructions | 2        |

```
      00 01 02 03 04 05 06 07  08 09 0A 0B 0C 0D 0E 0F
      -- -- -- -- -- -- -- --  -- -- -- -- -- -- -- --
0290:                                               5B                 [
02A0: 08 80 F8 FF FF 7F F8 FF  FF 7F 74 68 6B 31 00     ..........thk1. 
```

#### Opcodes

```
  0: 0x029F [0x5B] LOAD_EXT_SCHEDULER: Load scheduler "thk1" with entities [EventEntity, EventEntity], work=1346*
  1: 0x02AE [0x00] END_REQSTACK()
```

### Event 65535.31

#### Metadata

| Field        | Value    |
|--------------|----------|
| Entrypoint   | 0x02AF   |
| Data Size    | 14 bytes |
| Instructions | 2        |

```
      00 01 02 03 04 05 06 07  08 09 0A 0B 0C 0D 0E 0F
      -- -- -- -- -- -- -- --  -- -- -- -- -- -- -- --
02A0:                                               53                 S
02B0: F8 FF FF 7F F8 FF FF 7F  74 68 6B 31 00           ........thk1.   
```

#### Opcodes

```
  0: 0x02AF [0x53] WAIT_SCHEDULER_TASK: Wait for scheduler "thk1" with entities [EventEntity, EventEntity]
  1: 0x02BC [0x00] END_REQSTACK()
```

### Event 65535.32

#### Metadata

| Field        | Value    |
|--------------|----------|
| Entrypoint   | 0x02BD   |
| Data Size    | 16 bytes |
| Instructions | 2        |

```
      00 01 02 03 04 05 06 07  08 09 0A 0B 0C 0D 0E 0F
      -- -- -- -- -- -- -- --  -- -- -- -- -- -- -- --
02B0:                                         5B 08 80               [..
02C0: F8 FF FF 7F F8 FF FF 7F  75 64 65 30 00           ........ude0.   
```

#### Opcodes

```
  0: 0x02BD [0x5B] LOAD_EXT_SCHEDULER: Load scheduler "ude0" with entities [EventEntity, EventEntity], work=1346*
  1: 0x02CC [0x00] END_REQSTACK()
```

### Event 65535.33

#### Metadata

| Field        | Value    |
|--------------|----------|
| Entrypoint   | 0x02CD   |
| Data Size    | 14 bytes |
| Instructions | 2        |

```
      00 01 02 03 04 05 06 07  08 09 0A 0B 0C 0D 0E 0F
      -- -- -- -- -- -- -- --  -- -- -- -- -- -- -- --
02C0:                                         53 F8 FF               S..
02D0: FF 7F F8 FF FF 7F 75 64  65 30 00                 ......ude0.     
```

#### Opcodes

```
  0: 0x02CD [0x53] WAIT_SCHEDULER_TASK: Wait for scheduler "ude0" with entities [EventEntity, EventEntity]
  1: 0x02DA [0x00] END_REQSTACK()
```

### Event 65535.34

#### Metadata

| Field        | Value    |
|--------------|----------|
| Entrypoint   | 0x02DB   |
| Data Size    | 16 bytes |
| Instructions | 2        |

```
      00 01 02 03 04 05 06 07  08 09 0A 0B 0C 0D 0E 0F
      -- -- -- -- -- -- -- --  -- -- -- -- -- -- -- --
02D0:                                   5B 08 80 F8 FF             [....
02E0: FF 7F F8 FF FF 7F 75 64  65 31 00                 ......ude1.     
```

#### Opcodes

```
  0: 0x02DB [0x5B] LOAD_EXT_SCHEDULER: Load scheduler "ude1" with entities [EventEntity, EventEntity], work=1346*
  1: 0x02EA [0x00] END_REQSTACK()
```

### Event 65535.35

#### Metadata

| Field        | Value    |
|--------------|----------|
| Entrypoint   | 0x02EB   |
| Data Size    | 14 bytes |
| Instructions | 2        |

```
      00 01 02 03 04 05 06 07  08 09 0A 0B 0C 0D 0E 0F
      -- -- -- -- -- -- -- --  -- -- -- -- -- -- -- --
02E0:                                   53 F8 FF FF 7F             S....
02F0: F8 FF FF 7F 75 64 65 31  00                       ....ude1.       
```

#### Opcodes

```
  0: 0x02EB [0x53] WAIT_SCHEDULER_TASK: Wait for scheduler "ude1" with entities [EventEntity, EventEntity]
  1: 0x02F8 [0x00] END_REQSTACK()
```

### Event 65535.36

#### Metadata

| Field        | Value    |
|--------------|----------|
| Entrypoint   | 0x02F9   |
| Data Size    | 16 bytes |
| Instructions | 2        |

```
      00 01 02 03 04 05 06 07  08 09 0A 0B 0C 0D 0E 0F
      -- -- -- -- -- -- -- --  -- -- -- -- -- -- -- --
02F0:                             5B 08 80 F8 FF FF 7F           [......
0300: F8 FF FF 7F 70 61 73 30  00                       ....pas0.       
```

#### Opcodes

```
  0: 0x02F9 [0x5B] LOAD_EXT_SCHEDULER: Load scheduler "pas0" with entities [EventEntity, EventEntity], work=1346*
  1: 0x0308 [0x00] END_REQSTACK()
```

### Event 65535.37

#### Metadata

| Field        | Value    |
|--------------|----------|
| Entrypoint   | 0x0309   |
| Data Size    | 14 bytes |
| Instructions | 2        |

```
      00 01 02 03 04 05 06 07  08 09 0A 0B 0C 0D 0E 0F
      -- -- -- -- -- -- -- --  -- -- -- -- -- -- -- --
0300:                             53 F8 FF FF 7F F8 FF           S......
0310: FF 7F 70 61 73 30 00                              ..pas0.         
```

#### Opcodes

```
  0: 0x0309 [0x53] WAIT_SCHEDULER_TASK: Wait for scheduler "pas0" with entities [EventEntity, EventEntity]
  1: 0x0316 [0x00] END_REQSTACK()
```

### Event 65535.38

#### Metadata

| Field        | Value    |
|--------------|----------|
| Entrypoint   | 0x0317   |
| Data Size    | 16 bytes |
| Instructions | 2        |

```
      00 01 02 03 04 05 06 07  08 09 0A 0B 0C 0D 0E 0F
      -- -- -- -- -- -- -- --  -- -- -- -- -- -- -- --
0310:                      5B  4C 80 F8 FF FF 7F F8 FF         [L.......
0320: FF 7F 73 68 61 30 00                              ..sha0.         
```

#### Opcodes

```
  0: 0x0317 [0x5B] LOAD_EXT_SCHEDULER: Load scheduler "sha0" with entities [EventEntity, EventEntity], work=1347*
  1: 0x0326 [0x00] END_REQSTACK()
```

### Event 65535.39

#### Metadata

| Field        | Value    |
|--------------|----------|
| Entrypoint   | 0x0327   |
| Data Size    | 14 bytes |
| Instructions | 2        |

```
      00 01 02 03 04 05 06 07  08 09 0A 0B 0C 0D 0E 0F
      -- -- -- -- -- -- -- --  -- -- -- -- -- -- -- --
0320:                      53  F8 FF FF 7F F8 FF FF 7F         S........
0330: 73 68 61 30 00                                    sha0.           
```

#### Opcodes

```
  0: 0x0327 [0x53] WAIT_SCHEDULER_TASK: Wait for scheduler "sha0" with entities [EventEntity, EventEntity]
  1: 0x0334 [0x00] END_REQSTACK()
```

### Event 65535.40

#### Metadata

| Field        | Value    |
|--------------|----------|
| Entrypoint   | 0x0335   |
| Data Size    | 16 bytes |
| Instructions | 2        |

```
      00 01 02 03 04 05 06 07  08 09 0A 0B 0C 0D 0E 0F
      -- -- -- -- -- -- -- --  -- -- -- -- -- -- -- --
0330:                5B 4C 80  F8 FF FF 7F F8 FF FF 7F       [L.........
0340: 73 68 61 31 00                                    sha1.           
```

#### Opcodes

```
  0: 0x0335 [0x5B] LOAD_EXT_SCHEDULER: Load scheduler "sha1" with entities [EventEntity, EventEntity], work=1347*
  1: 0x0344 [0x00] END_REQSTACK()
```

### Event 65535.41

#### Metadata

| Field        | Value    |
|--------------|----------|
| Entrypoint   | 0x0345   |
| Data Size    | 14 bytes |
| Instructions | 2        |

```
      00 01 02 03 04 05 06 07  08 09 0A 0B 0C 0D 0E 0F
      -- -- -- -- -- -- -- --  -- -- -- -- -- -- -- --
0340:                53 F8 FF  FF 7F F8 FF FF 7F 73 68       S........sh
0350: 61 31 00                                          a1.             
```

#### Opcodes

```
  0: 0x0345 [0x53] WAIT_SCHEDULER_TASK: Wait for scheduler "sha1" with entities [EventEntity, EventEntity]
  1: 0x0352 [0x00] END_REQSTACK()
```

### Event 65535.42

#### Metadata

| Field        | Value    |
|--------------|----------|
| Entrypoint   | 0x0353   |
| Data Size    | 16 bytes |
| Instructions | 2        |

```
      00 01 02 03 04 05 06 07  08 09 0A 0B 0C 0D 0E 0F
      -- -- -- -- -- -- -- --  -- -- -- -- -- -- -- --
0350:          5B 4D 80 F8 FF  FF 7F F8 FF FF 7F 6D 65     [M.........me
0360: 69 30 00                                          i0.             
```

#### Opcodes

```
  0: 0x0353 [0x5B] LOAD_EXT_SCHEDULER: Load scheduler "mei0" with entities [EventEntity, EventEntity], work=1348*
  1: 0x0362 [0x00] END_REQSTACK()
```

### Event 65535.43

#### Metadata

| Field        | Value    |
|--------------|----------|
| Entrypoint   | 0x0363   |
| Data Size    | 14 bytes |
| Instructions | 2        |

```
      00 01 02 03 04 05 06 07  08 09 0A 0B 0C 0D 0E 0F
      -- -- -- -- -- -- -- --  -- -- -- -- -- -- -- --
0360:          53 F8 FF FF 7F  F8 FF FF 7F 6D 65 69 30     S........mei0
0370: 00                                                .               
```

#### Opcodes

```
  0: 0x0363 [0x53] WAIT_SCHEDULER_TASK: Wait for scheduler "mei0" with entities [EventEntity, EventEntity]
  1: 0x0370 [0x00] END_REQSTACK()
```

### Event 65535.44

#### Metadata

| Field        | Value    |
|--------------|----------|
| Entrypoint   | 0x0371   |
| Data Size    | 16 bytes |
| Instructions | 2        |

```
      00 01 02 03 04 05 06 07  08 09 0A 0B 0C 0D 0E 0F
      -- -- -- -- -- -- -- --  -- -- -- -- -- -- -- --
0370:    5B 4D 80 F8 FF FF 7F  F8 FF FF 7F 6D 65 69 31   [M.........mei1
0380: 00                                                .               
```

#### Opcodes

```
  0: 0x0371 [0x5B] LOAD_EXT_SCHEDULER: Load scheduler "mei1" with entities [EventEntity, EventEntity], work=1348*
  1: 0x0380 [0x00] END_REQSTACK()
```

### Event 65535.45

#### Metadata

| Field        | Value    |
|--------------|----------|
| Entrypoint   | 0x0381   |
| Data Size    | 14 bytes |
| Instructions | 2        |

```
      00 01 02 03 04 05 06 07  08 09 0A 0B 0C 0D 0E 0F
      -- -- -- -- -- -- -- --  -- -- -- -- -- -- -- --
0380:    53 F8 FF FF 7F F8 FF  FF 7F 6D 65 69 31 00      S........mei1. 
```

#### Opcodes

```
  0: 0x0381 [0x53] WAIT_SCHEDULER_TASK: Wait for scheduler "mei1" with entities [EventEntity, EventEntity]
  1: 0x038E [0x00] END_REQSTACK()
```

### Event 608

#### Metadata

| Field        | Value   |
|--------------|---------|
| Entrypoint   | 0x038F  |
| Data Size    | 1 bytes |
| Instructions | 1       |

```
      00 01 02 03 04 05 06 07  08 09 0A 0B 0C 0D 0E 0F
      -- -- -- -- -- -- -- --  -- -- -- -- -- -- -- --
0380:                                               00                 .
```

#### Opcodes

```
  0: 0x038F [0x00] END_REQSTACK()
```

### Event 65535.46

#### Metadata

| Field        | Value    |
|--------------|----------|
| Entrypoint   | 0x0390   |
| Data Size    | 10 bytes |
| Instructions | 2        |

```
      00 01 02 03 04 05 06 07  08 09 0A 0B 0C 0D 0E 0F
      -- -- -- -- -- -- -- --  -- -- -- -- -- -- -- --
0390: 37 4E 80 4F 80 03 80 50  80 00                    7N.O...P..      
```

#### Opcodes

```
  0: 0x0390 [0x37] UPDATE_EVENT_POSITION_AND_DIR: x=-201.280*, z=-7.203*, y=-9.998*, direction=262.3°*
  1: 0x0399 [0x00] END_REQSTACK()
```

### Event 65535.47

#### Metadata

| Field        | Value    |
|--------------|----------|
| Entrypoint   | 0x039A   |
| Data Size    | 14 bytes |
| Instructions | 4        |

```
      00 01 02 03 04 05 06 07  08 09 0A 0B 0C 0D 0E 0F
      -- -- -- -- -- -- -- --  -- -- -- -- -- -- -- --
0390:                                32 00 80 1F 00 4E            2....N
03A0: 80 51 80 03 80 1F 01 00                           .Q......        
```

#### Opcodes

```
  0: 0x039A [0x32] ExtData[1]->MainSpeed = 13* * 0.1
  1: 0x039D [0x1F] MOVE_ENTITY: EventEntity moves to X=-201.280*, Z=-1.840*, Y=-9.998*
  2: 0x03A5 [0x1F] MOVE_ENTITY: Update entity position (mode=1)
  3: 0x03A7 [0x00] END_REQSTACK()
```

### Event 65535.48

#### Metadata

| Field        | Value    |
|--------------|----------|
| Entrypoint   | 0x03A8   |
| Data Size    | 14 bytes |
| Instructions | 4        |

```
      00 01 02 03 04 05 06 07  08 09 0A 0B 0C 0D 0E 0F
      -- -- -- -- -- -- -- --  -- -- -- -- -- -- -- --
03A0:                          32 00 80 1F 00 52 80 53          2....R.S
03B0: 80 03 80 1F 01 00                                 ......          
```

#### Opcodes

```
  0: 0x03A8 [0x32] ExtData[1]->MainSpeed = 13* * 0.1
  1: 0x03AB [0x1F] MOVE_ENTITY: EventEntity moves to X=-200.535*, Z=-3.494*, Y=-9.998*
  2: 0x03B3 [0x1F] MOVE_ENTITY: Update entity position (mode=1)
  3: 0x03B5 [0x00] END_REQSTACK()
```

### Event 65535.49

#### Metadata

| Field        | Value    |
|--------------|----------|
| Entrypoint   | 0x03B6   |
| Data Size    | 14 bytes |
| Instructions | 4        |

```
      00 01 02 03 04 05 06 07  08 09 0A 0B 0C 0D 0E 0F
      -- -- -- -- -- -- -- --  -- -- -- -- -- -- -- --
03B0:                   32 00  80 1F 00 52 80 54 80 55        2....R.T.U
03C0: 80 1F 01 00                                       ....            
```

#### Opcodes

```
  0: 0x03B6 [0x32] ExtData[1]->MainSpeed = 13* * 0.1
  1: 0x03B9 [0x1F] MOVE_ENTITY: EventEntity moves to X=-200.535*, Z=-15.200*, Y=-8.000*
  2: 0x03C1 [0x1F] MOVE_ENTITY: Update entity position (mode=1)
  3: 0x03C3 [0x00] END_REQSTACK()
```

### Event 65535.50

#### Metadata

| Field        | Value    |
|--------------|----------|
| Entrypoint   | 0x03C4   |
| Data Size    | 34 bytes |
| Instructions | 8        |

```
      00 01 02 03 04 05 06 07  08 09 0A 0B 0C 0D 0E 0F
      -- -- -- -- -- -- -- --  -- -- -- -- -- -- -- --
03C0:             32 00 80 1F  00 56 80 57 80 55 80 1F      2....V.W.U..
03D0: 01 1F 00 56 80 57 80 55  80 1F 01 1F 00 58 80 59  ...V.W.U.....X.Y
03E0: 80 55 80 1F 01 00                                 .U....          
```

#### Opcodes

```
  0: 0x03C4 [0x32] ExtData[1]->MainSpeed = 13* * 0.1
  1: 0x03C7 [0x1F] MOVE_ENTITY: EventEntity moves to X=-201.244*, Z=-29.115*, Y=-8.000*
  2: 0x03CF [0x1F] MOVE_ENTITY: Update entity position (mode=1)
  3: 0x03D1 [0x1F] MOVE_ENTITY: EventEntity moves to X=-201.244*, Z=-29.115*, Y=-8.000*
  4: 0x03D9 [0x1F] MOVE_ENTITY: Update entity position (mode=1)
  5: 0x03DB [0x1F] MOVE_ENTITY: EventEntity moves to X=-215.101*, Z=-29.526*, Y=-8.000*
  6: 0x03E3 [0x1F] MOVE_ENTITY: Update entity position (mode=1)
  7: 0x03E5 [0x00] END_REQSTACK()
```
