# 17134122

## Common Data

| Field            | Value                       |
|------------------|-----------------------------|
| Zone             | Bastok Markets [S] (ID: 87) |
| Block Size       | 10292 bytes                 |
| Total Events     | 4                           |
| References Count | 198                         |

## List of Events

| Event ID              | Entrypoint   |   Size |   Instructions |
|-----------------------|--------------|--------|----------------|
| [65535](#event-65535) | 0x0000       |      1 |              1 |
| [180](#event-180)     | 0x0001       |   4323 |            505 |
| [181](#event-181)     | 0x10E4       |   1848 |            222 |
| [182](#event-182)     | 0x181C       |   3294 |            367 |

## DAT References (imed_data)

|   Index | Hex Value   |   Dec Value |
|---------|-------------|-------------|
|       0 | 0x0013      |          19 |
|       1 | 0x0000      |           0 |
|       2 | 0x0050      |          80 |
|       3 | 0x007B      |         123 |
|       4 | 0xFFFCEB7A  |  4294765434 |
|       5 | 0x02A4      |         676 |
|       6 | 0xFFFFD8F2  |  4294957298 |
|       7 | 0x0989      |        2441 |
|       8 | 0xFFFCE364  |  4294763364 |
|       9 | 0x08BD      |        2237 |
|      10 | 0x008A      |         138 |
|      11 | 0x0045      |          69 |
|      12 | 0x01B9      |         441 |
|      13 | 0x2FD1      |       12241 |
|      14 | 0x001E      |          30 |
|      15 | 0x2FD2      |       12242 |
|      16 | 0x2FD3      |       12243 |
|      17 | 0x0007      |           7 |
|      18 | 0x006E      |         110 |
|      19 | 0x0096      |         150 |
|      20 | 0x00ED      |         237 |
|      21 | 0x00FF      |         255 |
|      22 | 0x0001      |           1 |
|      23 | 0x0131      |         305 |
|      24 | 0x167CF     |       92111 |
|      25 | 0x3068      |       12392 |
|      26 | 0xFFFFB127  |  4294947111 |
|      27 | 0x0EA6      |        3750 |
|      28 | 0x176E5     |       95973 |
|      29 | 0x2A11      |       10769 |
|      30 | 0x0B54      |        2900 |
|      31 | 0x18085     |       98437 |
|      32 | 0x2D1A      |       11546 |
|      33 | 0x09F6      |        2550 |
|      34 | 0x17209     |       94729 |
|      35 | 0x2A21      |       10785 |
|      36 | 0x0C80      |        3200 |
|      37 | 0x17B36     |       97078 |
|      38 | 0x2AEB      |       10987 |
|      39 | 0x0A8C      |        2700 |
|      40 | 0x16C78     |       93304 |
|      41 | 0x2B23      |       11043 |
|      42 | 0x0D48      |        3400 |
|      43 | 0x174DC     |       95452 |
|      44 | 0x38C8      |       14536 |
|      45 | 0x0384      |         900 |
|      46 | 0x17B56     |       97110 |
|      47 | 0x3777      |       14199 |
|      48 | 0x047E      |        1150 |
|      49 | 0x16EAF     |       93871 |
|      50 | 0x37BD      |       14269 |
|      51 | 0x0320      |         800 |
|      52 | 0x3264      |       12900 |
|      53 | 0x00F4      |         244 |
|      54 | 0x00B4      |         180 |
|      55 | 0x0009      |           9 |
|      56 | 0x2FD4      |       12244 |
|      57 | 0x0542      |        1346 |
|      58 | 0x2FD5      |       12245 |
|      59 | 0x0028      |          40 |
|      60 | 0x2FD6      |       12246 |
|      61 | 0x2FD7      |       12247 |
|      62 | 0x2FD8      |       12248 |
|      63 | 0x0021      |          33 |
|      64 | 0x2FD9      |       12249 |
|      65 | 0x2FDA      |       12250 |
|      66 | 0x2FDB      |       12251 |
|      67 | 0x2FDC      |       12252 |
|      68 | 0x000F      |          15 |
|      69 | 0x2FDD      |       12253 |
|      70 | 0x2FDE      |       12254 |
|      71 | 0x2FDF      |       12255 |
|      72 | 0x2FE0      |       12256 |
|      73 | 0x2FE1      |       12257 |
|      74 | 0x2FE2      |       12258 |
|      75 | 0x2FE3      |       12259 |
|      76 | 0x0032      |          50 |
|      77 | 0x2FE4      |       12260 |
|      78 | 0x003C      |          60 |
|      79 | 0x2FE5      |       12261 |
|      80 | 0x2FE6      |       12262 |
|      81 | 0x2FE7      |       12263 |
|      82 | 0x2FE8      |       12264 |
|      83 | 0x0064      |         100 |
|      84 | 0x00C8      |         200 |
|      85 | 0x163A1     |       91041 |
|      86 | 0x370D      |       14093 |
|      87 | 0xFFFFB136  |  4294947126 |
|      88 | 0x015D      |         349 |
|      89 | 0x1771F     |       96031 |
|      90 | 0x2614      |        9748 |
|      91 | 0x0BB8      |        3000 |
|      92 | 0x1813C     |       98620 |
|      93 | 0x2F40      |       12096 |
|      94 | 0x076C      |        1900 |
|      95 | 0x16D6D     |       93549 |
|      96 | 0x2742      |       10050 |
|      97 | 0x0DDE      |        3550 |
|      98 | 0x17CDF     |       97503 |
|      99 | 0x288E      |       10382 |
|     100 | 0x1682E     |       92206 |
|     101 | 0x2D86      |       11654 |
|     102 | 0x0078      |         120 |
|     103 | 0x2FE9      |       12265 |
|     104 | 0x2FEA      |       12266 |
|     105 | 0x0960      |        2400 |
|     106 | 0x2FEB      |       12267 |
|     107 | 0x2FEC      |       12268 |
|     108 | 0x2FED      |       12269 |
|     109 | 0x002D      |          45 |
|     110 | 0x0005      |           5 |
|     111 | 0x2FEE      |       12270 |
|     112 | 0x2FEF      |       12271 |
|     113 | 0x2FF0      |       12272 |
|     114 | 0x2FF1      |       12273 |
|     115 | 0x2FF2      |       12274 |
|     116 | 0x33FD      |       13309 |
|     117 | 0x007F      |         127 |
|     118 | 0x0CB2      |        3250 |
|     119 | 0x2FF3      |       12275 |
|     120 | 0x2FF4      |       12276 |
|     121 | 0x3400      |       13312 |
|     122 | 0x2FF5      |       12277 |
|     123 | 0x2FF6      |       12278 |
|     124 | 0x2FF7      |       12279 |
|     125 | 0x0B22      |        2850 |
|     126 | 0x0E74      |        3700 |
|     127 | 0x179EF     |       96751 |
|     128 | 0x2A04      |       10756 |
|     129 | 0x0575      |        1397 |
|     130 | 0x2FF8      |       12280 |
|     131 | 0x0014      |          20 |
|     132 | 0x2FF9      |       12281 |
|     133 | 0x2FFA      |       12282 |
|     134 | 0x0544      |        1348 |
|     135 | 0x2FFB      |       12283 |
|     136 | 0x0002      |           2 |
|     137 | 0x0574      |        1396 |
|     138 | 0x2FFC      |       12284 |
|     139 | 0x2FFD      |       12285 |
|     140 | 0x0057      |          87 |
|     141 | 0x00A3      |         163 |
|     142 | 0xFFFCEE09  |  4294766089 |
|     143 | 0x16A9      |        5801 |
|     144 | 0x03E5      |         997 |
|     145 | 0xFFFCD96D  |  4294760813 |
|     146 | 0x08CE      |        2254 |
|     147 | 0x098A      |        2442 |
|     148 | 0xFFFCED31  |  4294765873 |
|     149 | 0xFFFFF4B7  |  4294964407 |
|     150 | 0x0AD7      |        2775 |
|     151 | 0x000A      |          10 |
|     152 | 0x008C      |         140 |
|     153 | 0x2FFF      |       12287 |
|     154 | 0x3000      |       12288 |
|     155 | 0x001A      |          26 |
|     156 | 0x009B      |         155 |
|     157 | 0x3001      |       12289 |
|     158 | 0x0080      |         128 |
|     159 | 0x06D5      |        1749 |
|     160 | 0x00FA      |         250 |
|     161 | 0x3002      |       12290 |
|     162 | 0x3003      |       12291 |
|     163 | 0x0016      |          22 |
|     164 | 0x0003      |           3 |
|     165 | 0x0004      |           4 |
|     166 | 0x0006      |           6 |
|     167 | 0x0008      |           8 |
|     168 | 0x3004      |       12292 |
|     169 | 0x3005      |       12293 |
|     170 | 0x3006      |       12294 |
|     171 | 0xFFFB47DC  |  4294658012 |
|     172 | 0xFFFF4C82  |  4294921346 |
|     173 | 0xFFFFD121  |  4294955297 |
|     174 | 0x0B52      |        2898 |
|     175 | 0xFFFB45C0  |  4294657472 |
|     176 | 0xFFFF58D9  |  4294924505 |
|     177 | 0x03E0      |         992 |
|     178 | 0x00D7      |         215 |
|     179 | 0x3115      |       12565 |
|     180 | 0x3007      |       12295 |
|     181 | 0x0037      |          55 |
|     182 | 0x3008      |       12296 |
|     183 | 0x3009      |       12297 |
|     184 | 0x300A      |       12298 |
|     185 | 0x300B      |       12299 |
|     186 | 0x300C      |       12300 |
|     187 | 0x0087      |         135 |
|     188 | 0x00D8      |         216 |
|     189 | 0x300D      |       12301 |
|     190 | 0x300E      |       12302 |
|     191 | 0x09EE      |        2542 |
|     192 | 0x11BF      |        4543 |
|     193 | 0x04D9      |        1241 |
|     194 | 0x300F      |       12303 |
|     195 | 0x0023      |          35 |
|     196 | 0x0082      |         130 |
|     197 | 0x00C9      |         201 |

## String References

- **12900**: @@

## Events

### Event 65535

#### Metadata

| Field        | Value   |
|--------------|---------|
| Entrypoint   | 0x0000  |
| Data Size    | 1 bytes |
| Instructions | 1       |

```
      00 01 02 03 04 05 06 07  08 09 0A 0B 0C 0D 0E 0F
      -- -- -- -- -- -- -- --  -- -- -- -- -- -- -- --
0000: 00                                                .               
```

#### Opcodes

```
  0: 0x0000 [0x00] END_REQSTACK()
```

### Event 180

#### Metadata

| Field        | Value      |
|--------------|------------|
| Entrypoint   | 0x0001     |
| Data Size    | 4323 bytes |
| Instructions | 505        |

```
      00 01 02 03 04 05 06 07  08 09 0A 0B 0C 0D 0E 0F
      -- -- -- -- -- -- -- --  -- -- -- -- -- -- -- --
0000:    42 1A CC 22 46 01 38  00 80 5D 01 80 02 80 1C   B.."F.8..].....
0010: 02 80 5C 00 03 80 5C 01  03 80 9A 92 01 2B 72 05  ..\...\......+r.
0020: 01 92 01 2C 72 05 01 92  01 2D 72 05 01 92 01 2E  ...,r....-r.....
0030: 72 05 01 92 01 2F 72 05  01 92 01 30 72 05 01 92  r..../r....0r...
0040: 01 96 72 05 01 92 01 97  72 05 01 92 01 98 72 05  ..r.....r.....r.
0050: 01 94 01 F0 FF FF 7F 94  01 2B 72 05 01 94 01 2C  .........+r....,
0060: 72 05 01 94 01 2D 72 05  01 94 01 2E 72 05 01 94  r....-r.....r...
0070: 01 2F 72 05 01 94 01 30  72 05 01 94 01 96 72 05  ./r....0r.....r.
0080: 01 94 01 97 72 05 01 94  01 98 72 05 01 4E 00 F0  ....r.....r..N..
0090: FF FF 7F 27 10 2B 72 05  01 04 27 10 2C 72 05 01  ...'.+r...'.,r..
00A0: 04 27 10 2D 72 05 01 04  27 10 2E 72 05 01 04 27  .'.-r...'..r...'
00B0: 10 2F 72 05 01 04 27 10  30 72 05 01 04 27 10 96  ./r...'.0r...'..
00C0: 72 05 01 08 27 10 97 72  05 01 08 27 10 98 72 05  r...'..r...'..r.
00D0: 01 08 BA F0 FF FF 7F 04  80 05 80 06 80 07 80 BA  ................
00E0: 2B 72 05 01 08 80 09 80  06 80 0A 80 80 F0 FF FF  +r..............
00F0: 7F 80 2B 72 05 01 4A F0  FF FF 7F 2B 72 05 01 4A  ..+r..J....+r..J
0100: 2B 72 05 01 F0 FF FF 7F  79 00 F0 FF FF 7F F0 FF  +r......y.......
0110: FF 7F 7B 2B 72 05 01 1C  02 80 79 00 F0 FF FF 7F  ..{+r.....y.....
0120: 2B 72 05 01 66 0B 80 2B  72 05 01 2B 72 05 01 74  +r..f..+r..+r..t
0130: 6C 6B 30 53 2B 72 05 01  2B 72 05 01 74 6C 6B 30  lk0S+r..+r..tlk0
0140: 45 0C 80 F0 FF FF 7F F0  FF FF 7F 73 61 30 30 01  E..........sa00.
0150: 80 1A AB 22 2B 2B 72 05  01 0D 80 23 1C 0E 80 52  ..."++r....#...R
0160: 0C 80 F0 FF FF 7F F0 FF  FF 7F 73 61 30 30 45 0C  ..........sa00E.
0170: 80 F0 FF FF 7F F0 FF FF  7F 73 30 30 31 01 80 2B  .........s001..+
0180: 2B 72 05 01 0F 80 23 52  0C 80 F0 FF FF 7F F0 FF  +r....#R........
0190: FF 7F 73 30 30 31 45 0C  80 F0 FF FF 7F F0 FF FF  ..s001E.........
01A0: 7F 73 61 30 31 01 80 2B  2B 72 05 01 10 80 23 66  .sa01..++r....#f
01B0: 0B 80 2B 72 05 01 2B 72  05 01 74 6C 6B 31 7B F0  ..+r..+r..tlk1{.
01C0: FF FF 7F 6E F0 FF FF 7F  11 80 99 F0 FF FF 7F 1C  ...n............
01D0: 12 80 52 0C 80 F0 FF FF  7F F0 FF FF 7F 73 61 30  ..R..........sa0
01E0: 31 45 0C 80 F0 FF FF 7F  F0 FF FF 7F 73 61 34 39  1E..........sa49
01F0: 01 80 1C 0E 80 27 10 F0  FF FF 7F 45 1C 13 80 1A  .....'.....E....
0200: CC 22 52 0C 80 F0 FF FF  7F F0 FF FF 7F 73 61 34  ."R..........sa4
0210: 39 7A 00 F0 FF FF 7F 34  14 80 77 15 80 16 80 1C  9z.....4..w.....
0220: 0E 80 AB 09 75 00 17 80  75 01 BA F0 FF FF 7F 18  ....u...u.......
0230: 80 19 80 1A 80 1B 80 BA  2C 72 05 01 1C 80 1D 80  ........,r......
0240: 1A 80 1E 80 BA 2D 72 05  01 1F 80 20 80 1A 80 21  .....-r.... ...!
0250: 80 BA 2E 72 05 01 22 80  23 80 1A 80 24 80 BA 2F  ...r..".#...$../
0260: 72 05 01 25 80 26 80 1A  80 27 80 BA 30 72 05 01  r..%.&...'..0r..
0270: 28 80 29 80 1A 80 2A 80  BA 96 72 05 01 2B 80 2C  (.)...*...r..+.,
0280: 80 1A 80 2D 80 BA 97 72  05 01 2E 80 2F 80 1A 80  ...-...r..../...
0290: 30 80 BA 98 72 05 01 31  80 32 80 1A 80 33 80 48  0...r..1.2...3.H
02A0: 34 80 23 80 F0 FF FF 7F  80 2B 72 05 01 80 2C 72  4.#......+r...,r
02B0: 05 01 80 2D 72 05 01 80  2E 72 05 01 80 2F 72 05  ...-r....r.../r.
02C0: 01 80 30 72 05 01 80 96  72 05 01 80 97 72 05 01  ..0r....r....r..
02D0: 80 98 72 05 01 79 00 F0  FF FF 7F F0 FF FF 7F 7B  ..r..y.........{
02E0: 2B 72 05 01 7B 2C 72 05  01 7B 2D 72 05 01 7B 2E  +r..{,r..{-r..{.
02F0: 72 05 01 7B 2F 72 05 01  7B 30 72 05 01 79 00 96  r..{/r..{0r..y..
0300: 72 05 01 2C 72 05 01 79  00 97 72 05 01 2C 72 05  r..,r..y..r..,r.
0310: 01 79 00 98 72 05 01 2C  72 05 01 5B 35 80 2D 72  .y..r..,r..[5.-r
0320: 05 01 2D 72 05 01 75 64  73 30 53 2D 72 05 01 2D  ..-r..uds0S-r..-
0330: 72 05 01 75 64 73 30 45  0C 80 F0 FF FF 7F F0 FF  r..uds0E........
0340: FF 7F 73 61 30 32 01 80  1A AB 22 1C 36 80 52 0C  ..sa02....".6.R.
0350: 80 F0 FF FF 7F F0 FF FF  7F 73 61 30 32 45 0C 80  .........sa02E..
0360: F0 FF FF 7F F0 FF FF 7F  73 61 30 33 01 80 66 37  ........sa03..f7
0370: 80 96 72 05 01 96 72 05  01 74 77 62 30 2B 96 72  ..r...r..twb0+.r
0380: 05 01 38 80 23 1C 0E 80  66 37 80 96 72 05 01 96  ..8.#...f7..r...
0390: 72 05 01 74 77 62 31 52  0C 80 F0 FF FF 7F F0 FF  r..twb1R........
03A0: FF 7F 73 61 30 33 45 0C  80 F0 FF FF 7F F0 FF FF  ..sa03E.........
03B0: 7F 73 61 30 34 01 80 5B  39 80 2C 72 05 01 2C 72  .sa04..[9.,r..,r
03C0: 05 01 74 6C 6B 30 2B 2C  72 05 01 3A 80 23 1C 0E  ..tlk0+,r..:.#..
03D0: 80 5B 39 80 2C 72 05 01  2C 72 05 01 74 6C 6B 31  .[9.,r..,r..tlk1
03E0: 1C 3B 80 52 0C 80 F0 FF  FF 7F F0 FF FF 7F 73 61  .;.R..........sa
03F0: 30 34 45 0C 80 F0 FF FF  7F F0 FF FF 7F 73 61 30  04E..........sa0
0400: 35 01 80 53 2C 72 05 01  2C 72 05 01 74 6C 6B 31  5..S,r..,r..tlk1
0410: 5B 39 80 2C 72 05 01 2C  72 05 01 74 68 6B 30 2B  [9.,r..,r..thk0+
0420: 2C 72 05 01 3C 80 23 1C  0E 80 5B 39 80 2C 72 05  ,r..<.#...[9.,r.
0430: 01 2C 72 05 01 74 68 6B  31 1C 0E 80 52 0C 80 F0  .,r..thk1...R...
0440: FF FF 7F F0 FF FF 7F 73  61 30 35 45 0C 80 F0 FF  .......sa05E....
0450: FF 7F F0 FF FF 7F 73 61  30 36 01 80 53 2C 72 05  ......sa06..S,r.
0460: 01 2C 72 05 01 74 68 6B  31 5B 39 80 2C 72 05 01  .,r..thk1[9.,r..
0470: 2C 72 05 01 74 6C 6B 30  2B 2C 72 05 01 3D 80 23  ,r..tlk0+,r..=.#
0480: 1C 0E 80 52 0C 80 F0 FF  FF 7F F0 FF FF 7F 73 61  ...R..........sa
0490: 30 36 45 0C 80 F0 FF FF  7F F0 FF FF 7F 73 61 30  06E..........sa0
04A0: 37 01 80 2B 2C 72 05 01  3E 80 23 1C 0E 80 5B 39  7..+,r..>.#...[9
04B0: 80 2C 72 05 01 2C 72 05  01 74 6C 6B 31 52 0C 80  .,r..,r..tlk1R..
04C0: F0 FF FF 7F F0 FF FF 7F  73 61 30 37 45 0C 80 F0  ........sa07E...
04D0: FF FF 7F F0 FF FF 7F 73  61 30 38 01 80 6E 96 72  .......sa08..n.r
04E0: 05 01 3F 80 99 96 72 05  01 2B 96 72 05 01 40 80  ..?...r..+.r..@.
04F0: 23 1C 0E 80 5B 39 80 2C  72 05 01 2C 72 05 01 74  #...[9.,r..,r..t
0500: 6C 6B 30 2B 2C 72 05 01  41 80 23 5B 39 80 2C 72  lk0+,r..A.#[9.,r
0510: 05 01 2C 72 05 01 74 6C  6B 31 52 0C 80 F0 FF FF  ..,r..tlk1R.....
0520: 7F F0 FF FF 7F 73 61 30  38 45 0C 80 F0 FF FF 7F  .....sa08E......
0530: F0 FF FF 7F 73 61 31 31  01 80 1C 0E 80 4E 01 F0  ....sa11.....N..
0540: FF FF 7F 66 37 80 96 72  05 01 96 72 05 01 74 77  ...f7..r...r..tw
0550: 62 30 2B 96 72 05 01 42  80 23 1C 0E 80 66 37 80  b0+.r..B.#...f7.
0560: 96 72 05 01 96 72 05 01  74 77 62 31 52 0C 80 F0  .r...r..twb1R...
0570: FF FF 7F F0 FF FF 7F 73  61 31 31 45 0C 80 F0 FF  .......sa11E....
0580: FF 7F F0 FF FF 7F 73 61  31 32 01 80 5B 39 80 2C  ......sa12..[9.,
0590: 72 05 01 2C 72 05 01 74  6C 6B 30 2B 2C 72 05 01  r..,r..tlk0+,r..
05A0: 43 80 23 53 2C 72 05 01  2C 72 05 01 74 6C 6B 30  C.#S,r..,r..tlk0
05B0: 1C 0E 80 5B 39 80 2C 72  05 01 2C 72 05 01 74 6C  ...[9.,r..,r..tl
05C0: 6B 31 52 0C 80 F0 FF FF  7F F0 FF FF 7F 73 61 31  k1R..........sa1
05D0: 32 45 0C 80 F0 FF FF 7F  F0 FF FF 7F 73 61 31 33  2E..........sa13
05E0: 01 80 1C 44 80 4E 00 F0  FF FF 7F 53 96 72 05 01  ...D.N.....S.r..
05F0: 96 72 05 01 74 77 62 31  66 37 80 96 72 05 01 96  .r..twb1f7..r...
0600: 72 05 01 74 77 62 30 2B  96 72 05 01 45 80 23 52  r..twb0+.r..E.#R
0610: 0C 80 F0 FF FF 7F F0 FF  FF 7F 73 61 31 33 45 0C  ..........sa13E.
0620: 80 F0 FF FF 7F F0 FF FF  7F 73 61 31 34 01 80 79  .........sa14..y
0630: 00 96 72 05 01 30 72 05  01 2B 96 72 05 01 46 80  ..r..0r..+.r..F.
0640: 23 55 0C 80 F0 FF FF 7F  F0 FF FF 7F 73 61 31 34  #U..........sa14
0650: 45 0C 80 F0 FF FF 7F F0  FF FF 7F 73 61 31 35 01  E..........sa15.
0660: 80 1C 0E 80 79 00 96 72  05 01 2C 72 05 01 1C 44  ....y..r..,r...D
0670: 80 2B 96 72 05 01 47 80  23 53 96 72 05 01 96 72  .+.r..G.#S.r...r
0680: 05 01 74 77 62 30 1C 0E  80 66 37 80 96 72 05 01  ..twb0...f7..r..
0690: 96 72 05 01 74 77 62 31  1C 0E 80 52 0C 80 F0 FF  .r..twb1...R....
06A0: FF 7F F0 FF FF 7F 73 61  31 35 45 0C 80 F0 FF FF  ......sa15E.....
06B0: 7F F0 FF FF 7F 73 61 31  36 01 80 7C 00 2C 72 05  .....sa16..|.,r.
06C0: 01 2B 2C 72 05 01 48 80  23 7C 01 2C 72 05 01 1C  .+,r..H.#|.,r...
06D0: 0E 80 52 0C 80 F0 FF FF  7F F0 FF FF 7F 73 61 31  ..R..........sa1
06E0: 36 45 0C 80 F0 FF FF 7F  F0 FF FF 7F 30 30 30 30  6E..........0000
06F0: 01 80 55 0C 80 F0 FF FF  7F F0 FF FF 7F 30 30 30  ..U..........000
0700: 30 52 0C 80 F0 FF FF 7F  F0 FF FF 7F 30 30 30 30  0R..........0000
0710: 45 0C 80 F0 FF FF 7F F0  FF FF 7F 73 61 31 37 01  E..........sa17.
0720: 80 5B 39 80 2C 72 05 01  2C 72 05 01 74 6C 6B 30  .[9.,r..,r..tlk0
0730: 2B 2C 72 05 01 49 80 23  1C 0E 80 52 0C 80 F0 FF  +,r..I.#...R....
0740: FF 7F F0 FF FF 7F 73 61  31 37 45 0C 80 F0 FF FF  ......sa17E.....
0750: 7F F0 FF FF 7F 73 74 30  37 01 80 53 96 72 05 01  .....st07..S.r..
0760: 96 72 05 01 74 77 62 31  66 37 80 96 72 05 01 96  .r..twb1f7..r...
0770: 72 05 01 74 77 62 30 2B  96 72 05 01 4A 80 23 53  r..twb0+.r..J.#S
0780: 96 72 05 01 96 72 05 01  74 77 62 30 1C 0E 80 66  .r...r..twb0...f
0790: 37 80 96 72 05 01 96 72  05 01 74 77 62 31 52 0C  7..r...r..twb1R.
07A0: 80 F0 FF FF 7F F0 FF FF  7F 73 74 30 37 45 0C 80  .........st07E..
07B0: F0 FF FF 7F F0 FF FF 7F  73 61 34 31 01 80 2B 2C  ........sa41..+,
07C0: 72 05 01 4B 80 23 52 0C  80 F0 FF FF 7F F0 FF FF  r..K.#R.........
07D0: 7F 73 61 34 31 45 0C 80  F0 FF FF 7F F0 FF FF 7F  .sa41E..........
07E0: 73 61 32 30 01 80 79 00  96 72 05 01 30 72 05 01  sa20..y..r..0r..
07F0: 1C 4C 80 2B 96 72 05 01  4D 80 23 1C 0E 80 52 0C  .L.+.r..M.#...R.
0800: 80 F0 FF FF 7F F0 FF FF  7F 73 61 32 30 45 0C 80  .........sa20E..
0810: F0 FF FF 7F F0 FF FF 7F  73 61 32 32 01 80 7B 96  ........sa22..{.
0820: 72 05 01 1C 4E 80 66 37  80 96 72 05 01 96 72 05  r...N.f7..r...r.
0830: 01 74 77 61 30 2B 96 72  05 01 4F 80 23 2B 96 72  .twa0+.r..O.#+.r
0840: 05 01 50 80 23 66 37 80  96 72 05 01 96 72 05 01  ..P.#f7..r...r..
0850: 74 77 61 31 52 0C 80 F0  FF FF 7F F0 FF FF 7F 73  twa1R..........s
0860: 61 32 32 45 0C 80 F0 FF  FF 7F F0 FF FF 7F 73 61  a22E..........sa
0870: 30 39 01 80 5B 39 80 2C  72 05 01 2C 72 05 01 74  09..[9.,r..,r..t
0880: 6C 6B 30 2B 2C 72 05 01  51 80 23 5B 39 80 2C 72  lk0+,r..Q.#[9.,r
0890: 05 01 2C 72 05 01 74 6C  6B 31 52 0C 80 F0 FF FF  ..,r..tlk1R.....
08A0: 7F F0 FF FF 7F 73 61 30  39 45 0C 80 F0 FF FF 7F  .....sa09E......
08B0: F0 FF FF 7F 73 30 30 30  01 80 66 37 80 96 72 05  ....s000..f7..r.
08C0: 01 96 72 05 01 74 77 61  30 2B 96 72 05 01 52 80  ..r..twa0+.r..R.
08D0: 23 66 37 80 96 72 05 01  96 72 05 01 74 77 61 31  #f7..r...r..twa1
08E0: 52 0C 80 F0 FF FF 7F F0  FF FF 7F 73 30 30 30 45  R..........s000E
08F0: 0C 80 F0 FF FF 7F F0 FF  FF 7F 73 61 32 33 01 80  ..........sa23..
0900: 7B 98 72 05 01 27 10 98  72 05 01 0F 1C 4E 80 7B  {.r..'..r....N.{
0910: 96 72 05 01 53 96 72 05  01 96 72 05 01 74 77 61  .r..S.r...r..twa
0920: 31 27 10 96 72 05 01 0F  1C 4C 80 7B 97 72 05 01  1'..r....L.{.r..
0930: 27 10 97 72 05 01 0F 1C  53 80 1A CC 22 52 0C 80  '..r....S..."R..
0940: F0 FF FF 7F F0 FF FF 7F  73 61 32 33 7A 00 96 72  ........sa23z..r
0950: 05 01 7A 00 97 72 05 01  7A 00 98 72 05 01 4E 01  ..z..r..z..r..N.
0960: 96 72 05 01 4E 01 97 72  05 01 4E 01 98 72 05 01  .r..N..r..N..r..
0970: 1C 54 80 5D 02 80 53 80  BA F0 FF FF 7F 55 80 56  .T.]..S......U.V
0980: 80 57 80 58 80 BA 2C 72  05 01 59 80 5A 80 57 80  .W.X..,r..Y.Z.W.
0990: 5B 80 BA 2D 72 05 01 5C  80 5D 80 1A 80 5E 80 BA  [..-r..\.]...^..
09A0: 2E 72 05 01 5F 80 60 80  57 80 61 80 BA 2F 72 05  .r.._.`.W.a../r.
09B0: 01 62 80 63 80 1A 80 5E  80 BA 30 72 05 01 64 80  .b.c...^..0r..d.
09C0: 65 80 1A 80 66 80 48 34  80 23 80 F0 FF FF 7F 80  e...f.H4.#......
09D0: 2C 72 05 01 80 2D 72 05  01 80 2E 72 05 01 80 2F  ,r...-r....r.../
09E0: 72 05 01 80 30 72 05 01  79 00 F0 FF FF 7F 2F 72  r...0r..y...../r
09F0: 05 01 79 00 2C 72 05 01  2F 72 05 01 79 00 2D 72  ..y.,r../r..y.-r
0A00: 05 01 2F 72 05 01 7B 2F  72 05 01 79 00 30 72 05  ../r..{/r..y.0r.
0A10: 01 2F 72 05 01 27 10 32  72 05 01 0D 1C 53 80 45  ./r..'.2r....S.E
0A20: 0C 80 F0 FF FF 7F F0 FF  FF 7F 73 61 32 34 01 80  ..........sa24..
0A30: 1A AB 22 66 01 80 2F 72  05 01 2F 72 05 01 64 69  .."f../r../r..di
0A40: 73 30 2B 2F 72 05 01 67  80 23 53 2F 72 05 01 2F  s0+/r..g.#S/r../
0A50: 72 05 01 64 69 73 30 1C  0E 80 52 0C 80 F0 FF FF  r..dis0...R.....
0A60: 7F F0 FF FF 7F 73 61 32  34 45 0C 80 F0 FF FF 7F  .....sa24E......
0A70: F0 FF FF 7F 73 61 32 35  01 80 27 10 32 72 05 01  ....sa25..'.2r..
0A80: 0C 2B 30 72 05 01 68 80  23 1C 0E 80 BA 2F 72 05  .+0r..h.#..../r.
0A90: 01 62 80 63 80 1A 80 69  80 2A 10 32 72 05 01 52  .b.c...i.*.2r..R
0AA0: 0C 80 F0 FF FF 7F F0 FF  FF 7F 73 61 32 35 45 0C  ..........sa25E.
0AB0: 80 F0 FF FF 7F F0 FF FF  7F 73 61 32 36 01 80 79  .........sa26..y
0AC0: 00 F0 FF FF 7F 2E 72 05  01 79 00 2C 72 05 01 30  ......r..y.,r..0
0AD0: 72 05 01 79 00 2D 72 05  01 2E 72 05 01 79 00 2F  r..y.-r...r..y./
0AE0: 72 05 01 2E 72 05 01 5B  54 80 2E 72 05 01 2E 72  r...r..[T..r...r
0AF0: 05 01 74 73 61 30 2B 2E  72 05 01 6A 80 23 5B 54  ..tsa0+.r..j.#[T
0B00: 80 2E 72 05 01 2E 72 05  01 74 73 61 31 52 0C 80  ..r...r..tsa1R..
0B10: F0 FF FF 7F F0 FF FF 7F  73 61 32 36 45 0C 80 F0  ........sa26E...
0B20: FF FF 7F F0 FF FF 7F 73  61 32 37 01 80 27 10 32  .......sa27..'.2
0B30: 72 05 01 0E 2B 30 72 05  01 6B 80 23 5B 54 80 2E  r...+0r..k.#[T..
0B40: 72 05 01 2E 72 05 01 74  73 61 30 2B 2E 72 05 01  r...r..tsa0+.r..
0B50: 6C 80 23 5B 54 80 2E 72  05 01 2E 72 05 01 74 73  l.#[T..r...r..ts
0B60: 61 31 27 10 32 72 05 01  0F 1C 6D 80 79 00 2E 72  a1'.2r....m.y..r
0B70: 05 01 2C 72 05 01 79 00  30 72 05 01 2C 72 05 01  ..,r..y.0r..,r..
0B80: 52 0C 80 F0 FF FF 7F F0  FF FF 7F 73 61 32 37 45  R..........sa27E
0B90: 0C 80 F0 FF FF 7F F0 FF  FF 7F 73 61 32 38 01 80  ..........sa28..
0BA0: 66 6E 80 2F 72 05 01 2F  72 05 01 74 6C 62 30 2B  fn./r../r..tlb0+
0BB0: 2F 72 05 01 6F 80 23 1C  0E 80 2A 10 32 72 05 01  /r..o.#...*.2r..
0BC0: 66 6E 80 2F 72 05 01 2F  72 05 01 74 6C 62 31 79  fn./r../r..tlb1y
0BD0: 00 2C 72 05 01 2F 72 05  01 52 0C 80 F0 FF FF 7F  .,r../r..R......
0BE0: F0 FF FF 7F 73 61 32 38  45 0C 80 F0 FF FF 7F F0  ....sa28E.......
0BF0: FF FF 7F 73 61 32 39 01  80 5B 39 80 2C 72 05 01  ...sa29..[9.,r..
0C00: 2C 72 05 01 75 64 65 30  2B 2C 72 05 01 70 80 23  ,r..ude0+,r..p.#
0C10: 1C 0E 80 5B 39 80 2C 72  05 01 2C 72 05 01 75 64  ...[9.,r..,r..ud
0C20: 65 31 53 2C 72 05 01 2C  72 05 01 75 64 65 31 52  e1S,r..,r..ude1R
0C30: 0C 80 F0 FF FF 7F F0 FF  FF 7F 73 61 32 39 45 0C  ..........sa29E.
0C40: 80 F0 FF FF 7F F0 FF FF  7F 73 61 33 31 01 80 79  .........sa31..y
0C50: 00 2C 72 05 01 30 72 05  01 5B 39 80 2C 72 05 01  .,r..0r..[9.,r..
0C60: 2C 72 05 01 74 6C 6B 30  2B 2C 72 05 01 71 80 23  ,r..tlk0+,r..q.#
0C70: 1C 0E 80 52 0C 80 F0 FF  FF 7F F0 FF FF 7F 73 61  ...R..........sa
0C80: 33 31 45 0C 80 F0 FF FF  7F F0 FF FF 7F 73 61 33  31E..........sa3
0C90: 30 01 80 7B 2C 72 05 01  2B 2C 72 05 01 72 80 23  0..{,r..+,r..r.#
0CA0: 1C 0E 80 4A 2F 72 05 01  2C 72 05 01 1C 0E 80 5B  ...J/r..,r.....[
0CB0: 39 80 2C 72 05 01 2C 72  05 01 74 6C 6B 31 5D 01  9.,r..,r..tlk1].
0CC0: 80 66 80 52 0C 80 F0 FF  FF 7F F0 FF FF 7F 73 61  .f.R..........sa
0CD0: 33 30 45 0C 80 F0 FF FF  7F F0 FF FF 7F 73 61 33  30E..........sa3
0CE0: 34 01 80 66 01 80 2F 72  05 01 2F 72 05 01 74 6C  4..f../r../r..tl
0CF0: 6B 30 2B 2F 72 05 01 73  80 23 1C 0E 80 66 01 80  k0+/r..s.#...f..
0D00: 2F 72 05 01 2F 72 05 01  74 65 6E 30 52 0C 80 F0  /r../r..ten0R...
0D10: FF FF 7F F0 FF FF 7F 73  61 33 34 45 0C 80 F0 FF  .......sa34E....
0D20: FF 7F F0 FF FF 7F 73 61  33 33 01 80 79 00 2C 72  ......sa33..y.,r
0D30: 05 01 2F 72 05 01 5B 39  80 2C 72 05 01 2C 72 05  ../r..[9.,r..,r.
0D40: 01 75 64 65 30 1C 3B 80  2B 2C 72 05 01 74 80 23  .ude0.;.+,r..t.#
0D50: 5C 00 75 80 5C 01 75 80  9A 52 0C 80 F0 FF FF 7F  \.u.\.u..R......
0D60: F0 FF FF 7F 73 61 33 33  45 0C 80 F0 FF FF 7F F0  ....sa33E.......
0D70: FF FF 7F 73 61 33 35 01  80 1C 44 80 4B 2C 72 05  ...sa35...D.K,r.
0D80: 01 76 80 4A 30 72 05 01  2C 72 05 01 79 00 F0 FF  .v.J0r..,r..y...
0D90: FF 7F 2F 72 05 01 7B 2C  72 05 01 66 01 80 2F 72  ../r..{,r..f../r
0DA0: 05 01 2F 72 05 01 74 6C  6B 30 2B 2F 72 05 01 77  ../r..tlk0+/r..w
0DB0: 80 23 1C 0E 80 2B 2F 72  05 01 78 80 23 53 2F 72  .#...+/r..x.#S/r
0DC0: 05 01 2F 72 05 01 74 77  61 30 1C 0E 80 66 01 80  ../r..twa0...f..
0DD0: 2F 72 05 01 2F 72 05 01  74 65 6E 30 52 0C 80 F0  /r../r..ten0R...
0DE0: FF FF 7F F0 FF FF 7F 73  61 33 35 45 0C 80 F0 FF  .......sa35E....
0DF0: FF 7F F0 FF FF 7F 73 61  33 38 01 80 7C 00 2D 72  ......sa38..|.-r
0E00: 05 01 2B 2D 72 05 01 79  80 23 52 0C 80 F0 FF FF  ..+-r..y.#R.....
0E10: 7F F0 FF FF 7F 73 61 33  38 45 0C 80 F0 FF FF 7F  .....sa38E......
0E20: F0 FF FF 7F 73 61 35 32  01 80 79 00 2C 72 05 01  ....sa52..y.,r..
0E30: 30 72 05 01 66 0B 80 30  72 05 01 30 72 05 01 74  0r..f..0r..0r..t
0E40: 6C 6B 30 2B 30 72 05 01  7A 80 23 52 0C 80 F0 FF  lk0+0r..z.#R....
0E50: FF 7F F0 FF FF 7F 73 61  35 32 45 0C 80 F0 FF FF  ......sa52E.....
0E60: 7F F0 FF FF 7F 73 61 33  39 01 80 2B 30 72 05 01  .....sa39..+0r..
0E70: 7B 80 23 2B 30 72 05 01  7C 80 23 66 0B 80 30 72  {.#+0r..|.#f..0r
0E80: 05 01 30 72 05 01 74 6C  6B 31 4B 2C 72 05 01 7D  ..0r..tlk1K,r..}
0E90: 80 4B 2E 72 05 01 7E 80  7B 2C 72 05 01 7B 2E 72  .K.r..~.{,r..{.r
0EA0: 05 01 BA 2F 72 05 01 7F  80 80 80 1A 80 58 80 1C  .../r........X..
0EB0: 4E 80 4A 2F 72 05 01 30  72 05 01 79 00 2F 72 05  N.J/r..0r..y./r.
0EC0: 01 2E 72 05 01 5B 81 80  2E 72 05 01 2E 72 05 01  ..r..[...r...r..
0ED0: 74 73 6B 31 52 0C 80 F0  FF FF 7F F0 FF FF 7F 73  tsk1R..........s
0EE0: 61 33 39 45 0C 80 F0 FF  FF 7F F0 FF FF 7F 73 61  a39E..........sa
0EF0: 34 32 01 80 7C 00 2E 72  05 01 2B 2E 72 05 01 82  42..|..r..+.r...
0F00: 80 23 53 2E 72 05 01 2E  72 05 01 74 73 6B 31 7C  .#S.r...r..tsk1|
0F10: 01 2E 72 05 01 1C 0E 80  5B 81 80 2E 72 05 01 2E  ..r.....[...r...
0F20: 72 05 01 74 68 6B 32 1C  83 80 52 0C 80 F0 FF FF  r..thk2...R.....
0F30: 7F F0 FF FF 7F 73 61 34  32 45 0C 80 F0 FF FF 7F  .....sa42E......
0F40: F0 FF FF 7F 73 61 34 33  01 80 53 2E 72 05 01 2E  ....sa43..S.r...
0F50: 72 05 01 74 68 6B 32 27  10 32 72 05 01 11 79 00  r..thk2'.2r...y.
0F60: 2E 72 05 01 2C 72 05 01  1C 4C 80 2B 2E 72 05 01  .r..,r...L.+.r..
0F70: 84 80 23 1C 0E 80 2A 10  32 72 05 01 79 00 2C 72  ..#...*.2r..y.,r
0F80: 05 01 2E 72 05 01 1C 0E  80 52 0C 80 F0 FF FF 7F  ...r.....R......
0F90: F0 FF FF 7F 73 61 34 33  45 0C 80 F0 FF FF 7F F0  ....sa43E.......
0FA0: FF FF 7F 73 61 34 35 01  80 5B 39 80 2C 72 05 01  ...sa45..[9.,r..
0FB0: 2C 72 05 01 75 64 65 31  2B 2C 72 05 01 85 80 23  ,r..ude1+,r....#
0FC0: 53 2C 72 05 01 2C 72 05  01 75 64 65 31 7B 2C 72  S,r..,r..ude1{,r
0FD0: 05 01 5B 86 80 2C 72 05  01 2C 72 05 01 6D 65 69  ..[..,r..,r..mei
0FE0: 30 1C 44 80 52 0C 80 F0  FF FF 7F F0 FF FF 7F 73  0.D.R..........s
0FF0: 61 34 35 45 0C 80 F0 FF  FF 7F F0 FF FF 7F 73 61  a45E..........sa
1000: 35 30 01 80 7B 2F 72 05  01 2B 2C 72 05 01 87 80  50..{/r..+,r....
1010: 23 1C 0E 80 5B 86 80 2C  72 05 01 2C 72 05 01 6D  #...[..,r..,r..m
1020: 65 69 31 52 0C 80 F0 FF  FF 7F F0 FF FF 7F 73 61  ei1R..........sa
1030: 35 30 45 0C 80 F0 FF FF  7F F0 FF FF 7F 73 61 34  50E..........sa4
1040: 36 01 80 27 10 32 72 05  01 12 66 88 80 2F 72 05  6..'.2r...f../r.
1050: 01 2F 72 05 01 6B 62 61  32 27 10 F0 FF FF 7F 46  ./r..kba2'.....F
1060: 5B 89 80 2E 72 05 01 2E  72 05 01 6B 65 69 30 2B  [...r...r..kei0+
1070: 2E 72 05 01 8A 80 23 1C  0E 80 52 0C 80 F0 FF FF  .r....#...R.....
1080: 7F F0 FF FF 7F 73 61 34  36 45 0C 80 F0 FF FF 7F  .....sa46E......
1090: F0 FF FF 7F 73 61 34 37  01 80 7C 00 2D 72 05 01  ....sa47..|.-r..
10A0: 2B 2D 72 05 01 8B 80 23  7C 01 2D 72 05 01 1C 0E  +-r....#|.-r....
10B0: 80 1A CC 22 1C 0E 80 52  0C 80 F0 FF FF 7F F0 FF  ..."...R........
10C0: FF 7F 73 61 34 37 35 8C  80 78 1C 44 80 AB 0A 46  ..sa475..x.D...F
10D0: 00 45 54 80 F0 FF FF 7F  F0 FF FF 7F 66 64 69 32  .ET.........fdi2
10E0: 01 80 21 00                                       ..!.            
```

#### Opcodes

```
  0: 0x0001 [0x42] SET_CLI_EVENT_CANCEL_DATA()
  1: 0x0002 [0x1A] CALL_SUBROUTINE(address=0x22CC)
  2: 0x0005 [0x46] CAMERA_CONTROL: Disable user control
  3: 0x0007 [0x38] SET_CLIENT_EVENT_MODE(mode=19*)
  4: 0x000A [0x5D] SET_MUSIC_VOLUME(volume=0*, fade_time=80*)
  5: 0x000F [0x1C] WAIT(80* ticks)
  6: 0x0012 [0x5C] MUSIC_CONTROL: Set Idle (Day) music to song 123*
  7: 0x0016 [0x5C] MUSIC_CONTROL: Set Idle (Night) music to song 123*
  8: 0x001A [0x9A] WAIT_MUSIC_SERVER()
  9: 0x001B [0x92] Gentle Tiger (ID: 17134123/0x0105722B)->Render.Flags3 ^= 0x01
 10: 0x0021 [0x92] Klara (ID: 17134124/0x0105722C)->Render.Flags3 ^= 0x01
 11: 0x0027 [0x92] Zeid (ID: 17134125/0x0105722D)->Render.Flags3 ^= 0x01
 12: 0x002D [0x92] Volker (ID: 17134126/0x0105722E)->Render.Flags3 ^= 0x01
 13: 0x0033 [0x92] Nicolaus (ID: 17134127/0x0105722F)->Render.Flags3 ^= 0x01
 14: 0x0039 [0x92] Five Moons (ID: 17134128/0x01057230)->Render.Flags3 ^= 0x01
 15: 0x003F [0x92] Bartholomaus (ID: 17134230/0x01057296)->Render.Flags3 ^= 0x01
 16: 0x0045 [0x92] kou1 (ID: 17134231/0x01057297)->Render.Flags3 ^= 0x01
 17: 0x004B [0x92] kou2 (ID: 17134232/0x01057298)->Render.Flags3 ^= 0x01
 18: 0x0051 [0x94] LocalPlayer->Render.Flags3 ^= 0x01
 19: 0x0057 [0x94] Gentle Tiger (ID: 17134123/0x0105722B)->Render.Flags3 ^= 0x01
 20: 0x005D [0x94] Klara (ID: 17134124/0x0105722C)->Render.Flags3 ^= 0x01
 21: 0x0063 [0x94] Zeid (ID: 17134125/0x0105722D)->Render.Flags3 ^= 0x01
 22: 0x0069 [0x94] Volker (ID: 17134126/0x0105722E)->Render.Flags3 ^= 0x01
 23: 0x006F [0x94] Nicolaus (ID: 17134127/0x0105722F)->Render.Flags3 ^= 0x01
 24: 0x0075 [0x94] Five Moons (ID: 17134128/0x01057230)->Render.Flags3 ^= 0x01
 25: 0x007B [0x94] Bartholomaus (ID: 17134230/0x01057296)->Render.Flags3 ^= 0x01
 26: 0x0081 [0x94] kou1 (ID: 17134231/0x01057297)->Render.Flags3 ^= 0x01
 27: 0x0087 [0x94] kou2 (ID: 17134232/0x01057298)->Render.Flags3 ^= 0x01
 28: 0x008D [0x4E] SET_ENTITY_HIDE_FLAG: Show LocalPlayer
 29: 0x0093 [0x27] REQ_SET(priority=0x10, entity_id=Gentle Tiger (ID: 17134123/0x0105722B), tag_num=0x04)
 30: 0x009A [0x27] REQ_SET(priority=0x10, entity_id=Klara (ID: 17134124/0x0105722C), tag_num=0x04)
 31: 0x00A1 [0x27] REQ_SET(priority=0x10, entity_id=Zeid (ID: 17134125/0x0105722D), tag_num=0x04)
 32: 0x00A8 [0x27] REQ_SET(priority=0x10, entity_id=Volker (ID: 17134126/0x0105722E), tag_num=0x04)
 33: 0x00AF [0x27] REQ_SET(priority=0x10, entity_id=Nicolaus (ID: 17134127/0x0105722F), tag_num=0x04)
 34: 0x00B6 [0x27] REQ_SET(priority=0x10, entity_id=Five Moons (ID: 17134128/0x01057230), tag_num=0x04)
 35: 0x00BD [0x27] REQ_SET(priority=0x10, entity_id=Bartholomaus (ID: 17134230/0x01057296), tag_num=0x08)
 36: 0x00C4 [0x27] REQ_SET(priority=0x10, entity_id=kou1 (ID: 17134231/0x01057297), tag_num=0x08)
 37: 0x00CB [0x27] REQ_SET(priority=0x10, entity_id=kou2 (ID: 17134232/0x01057298), tag_num=0x08)
 38: 0x00D2 [0xBA] SET_ENTITY_POSITION(entity_id=LocalPlayer, pos_x=-201.862*, pos_z=0.676*, pos_y=-9.998*, direction=214.5°*)
 39: 0x00DF [0xBA] SET_ENTITY_POSITION(entity_id=Gentle Tiger (ID: 17134123/0x0105722B), pos_x=-203.932*, pos_z=2.237*, pos_y=-9.998*, direction=12.1°*)
 40: 0x00EC [0x80] LOAD_WAIT(entity=LocalPlayer)
 41: 0x00F1 [0x80] LOAD_WAIT(entity=Gentle Tiger (ID: 17134123/0x0105722B))
 42: 0x00F6 [0x4A] LocalPlayer looks at Gentle Tiger (ID: 17134123/0x0105722B)
 43: 0x00FF [0x4A] Gentle Tiger (ID: 17134123/0x0105722B) looks at LocalPlayer
 44: 0x0108 [0x79] LocalPlayer looks at LocalPlayer (Basic look)
 45: 0x0112 [0x7B] Gentle Tiger (ID: 17134123/0x0105722B) stops talking
 46: 0x0117 [0x1C] WAIT(80* ticks)
 47: 0x011A [0x79] LocalPlayer looks at Gentle Tiger (ID: 17134123/0x0105722B) (Basic look)
 48: 0x0124 [0x66] LOAD_EXT_SCHEDULER_MAIN: Load scheduler "tlk0" with entities [Gentle Tiger (ID: 17134123/0x0105722B), Gentle Tiger (ID: 17134123/0x0105722B)], work=69*
 49: 0x0133 [0x53] WAIT_SCHEDULER_TASK: Wait for scheduler "tlk0" with entities [Gentle Tiger (ID: 17134123/0x0105722B), Gentle Tiger (ID: 17134123/0x0105722B)]
 50: 0x0140 [0x45] LOAD_SCHEDULED_TASK: Load scheduler "sa00" with entities [LocalPlayer, LocalPlayer], work=[441*, 0*]
 51: 0x0151 [0x1A] CALL_SUBROUTINE(address=0x22AB)
 52: 0x0154 [0x2B] Gentle Tiger (ID: 17134123/0x0105722B) [12241*]:
    → "Long time no see, <Player>. No doubt, news of the serial killings has already reached your ears. The victims number four, and counting..."
 53: 0x015B [0x23] WAIT_FOR_DIALOG_INTERACTION
 54: 0x015C [0x1C] WAIT(30* ticks)
 55: 0x015F [0x52] END_LOAD_SCHEDULER: End scheduler "sa00" with entities [LocalPlayer, LocalPlayer], work=441*
 56: 0x016E [0x45] LOAD_SCHEDULED_TASK: Load scheduler "s001" with entities [LocalPlayer, LocalPlayer], work=[441*, 0*]
 57: 0x017F [0x2B] Gentle Tiger (ID: 17134123/0x0105722B) [12242*]:
    → "That is, of course, unless the Mythril Musketeers have anything to say about it. Orders to conduct an investigation have already been issued from above, or so I'm told."
 58: 0x0186 [0x23] WAIT_FOR_DIALOG_INTERACTION
 59: 0x0187 [0x52] END_LOAD_SCHEDULER: End scheduler "s001" with entities [LocalPlayer, LocalPlayer], work=441*
 60: 0x0196 [0x45] LOAD_SCHEDULED_TASK: Load scheduler "sa01" with entities [LocalPlayer, LocalPlayer], work=[441*, 0*]
 61: 0x01A7 [0x2B] Gentle Tiger (ID: 17134123/0x0105722B) [12243*]:
    → "But to be honest, the Mythril Musketeers are a little short-handed at the moment. They could certainly do with your help again, <Player>."
 62: 0x01AE [0x23] WAIT_FOR_DIALOG_INTERACTION
 63: 0x01AF [0x66] LOAD_EXT_SCHEDULER_MAIN: Load scheduler "tlk1" with entities [Gentle Tiger (ID: 17134123/0x0105722B), Gentle Tiger (ID: 17134123/0x0105722B)], work=69*
 64: 0x01BE [0x7B] LocalPlayer stops talking
 65: 0x01C3 [0x6E] LocalPlayer uses emote 7*
 66: 0x01CA [0x99] Wait for LocalPlayer animation to complete
 67: 0x01CF [0x1C] WAIT(110* ticks)
 68: 0x01D2 [0x52] END_LOAD_SCHEDULER: End scheduler "sa01" with entities [LocalPlayer, LocalPlayer], work=441*
 69: 0x01E1 [0x45] LOAD_SCHEDULED_TASK: Load scheduler "sa49" with entities [LocalPlayer, LocalPlayer], work=[441*, 0*]
 70: 0x01F2 [0x1C] WAIT(30* ticks)
 71: 0x01F5 [0x27] REQ_SET(priority=0x10, entity_id=LocalPlayer, tag_num=0x45)
 72: 0x01FC [0x1C] WAIT(150* ticks)
 73: 0x01FF [0x1A] CALL_SUBROUTINE(address=0x22CC)
 74: 0x0202 [0x52] END_LOAD_SCHEDULER: End scheduler "sa49" with entities [LocalPlayer, LocalPlayer], work=441*
 75: 0x0211 [0x7A] VM_CONTROL: Reset VM for LocalPlayer
 76: 0x0217 [0x34] LOAD_UNLOAD_ZONE(zone_id=237*)
 77: 0x021A [0x77] SET_EVENT_TIME_WEATHER(hour=255*, weather=1*)
 78: 0x021F [0x1C] WAIT(30* ticks)
 79: 0x0222 [0xAB] EventEntity->UnknownFlag = 1 // Enable unknown flag
 80: 0x0224 [0x75] LOAD_ROOM(Load indoor room, room=305*)
 81: 0x0228 [0x75] LOAD_ROOM(No action)
 82: 0x022A [0xBA] SET_ENTITY_POSITION(entity_id=LocalPlayer, pos_x=92.111*, pos_z=12.392*, pos_y=-20.185*, direction=329.6°*)
 83: 0x0237 [0xBA] SET_ENTITY_POSITION(entity_id=Klara (ID: 17134124/0x0105722C), pos_x=95.973*, pos_z=10.769*, pos_y=-20.185*, direction=254.9°*)
 84: 0x0244 [0xBA] SET_ENTITY_POSITION(entity_id=Zeid (ID: 17134125/0x0105722D), pos_x=98.437*, pos_z=11.546*, pos_y=-20.185*, direction=224.1°*)
 85: 0x0251 [0xBA] SET_ENTITY_POSITION(entity_id=Volker (ID: 17134126/0x0105722E), pos_x=94.729*, pos_z=10.785*, pos_y=-20.185*, direction=281.2°*)
 86: 0x025E [0xBA] SET_ENTITY_POSITION(entity_id=Nicolaus (ID: 17134127/0x0105722F), pos_x=97.078*, pos_z=10.987*, pos_y=-20.185*, direction=237.3°*)
 87: 0x026B [0xBA] SET_ENTITY_POSITION(entity_id=Five Moons (ID: 17134128/0x01057230), pos_x=93.304*, pos_z=11.043*, pos_y=-20.185*, direction=298.8°*)
 88: 0x0278 [0xBA] SET_ENTITY_POSITION(entity_id=Bartholomaus (ID: 17134230/0x01057296), pos_x=95.452*, pos_z=14.536*, pos_y=-20.185*, direction=79.1°*)
 89: 0x0285 [0xBA] SET_ENTITY_POSITION(entity_id=kou1 (ID: 17134231/0x01057297), pos_x=97.110*, pos_z=14.199*, pos_y=-20.185*, direction=101.1°*)
 90: 0x0292 [0xBA] SET_ENTITY_POSITION(entity_id=kou2 (ID: 17134232/0x01057298), pos_x=93.871*, pos_z=14.269*, pos_y=-20.185*, direction=70.3°*)
 91: 0x029F [0x48] [System] [12900*]:
    → "@@"
 92: 0x02A2 [0x23] WAIT_FOR_DIALOG_INTERACTION
 93: 0x02A3 [0x80] LOAD_WAIT(entity=LocalPlayer)
 94: 0x02A8 [0x80] LOAD_WAIT(entity=Gentle Tiger (ID: 17134123/0x0105722B))
 95: 0x02AD [0x80] LOAD_WAIT(entity=Klara (ID: 17134124/0x0105722C))
 96: 0x02B2 [0x80] LOAD_WAIT(entity=Zeid (ID: 17134125/0x0105722D))
 97: 0x02B7 [0x80] LOAD_WAIT(entity=Volker (ID: 17134126/0x0105722E))
 98: 0x02BC [0x80] LOAD_WAIT(entity=Nicolaus (ID: 17134127/0x0105722F))
 99: 0x02C1 [0x80] LOAD_WAIT(entity=Five Moons (ID: 17134128/0x01057230))
100: 0x02C6 [0x80] LOAD_WAIT(entity=Bartholomaus (ID: 17134230/0x01057296))
101: 0x02CB [0x80] LOAD_WAIT(entity=kou1 (ID: 17134231/0x01057297))
102: 0x02D0 [0x80] LOAD_WAIT(entity=kou2 (ID: 17134232/0x01057298))
103: 0x02D5 [0x79] LocalPlayer looks at LocalPlayer (Basic look)
104: 0x02DF [0x7B] Gentle Tiger (ID: 17134123/0x0105722B) stops talking
105: 0x02E4 [0x7B] Klara (ID: 17134124/0x0105722C) stops talking
106: 0x02E9 [0x7B] Zeid (ID: 17134125/0x0105722D) stops talking
107: 0x02EE [0x7B] Volker (ID: 17134126/0x0105722E) stops talking
108: 0x02F3 [0x7B] Nicolaus (ID: 17134127/0x0105722F) stops talking
109: 0x02F8 [0x7B] Five Moons (ID: 17134128/0x01057230) stops talking
110: 0x02FD [0x79] Bartholomaus (ID: 17134230/0x01057296) looks at Klara (ID: 17134124/0x0105722C) (Basic look)
111: 0x0307 [0x79] kou1 (ID: 17134231/0x01057297) looks at Klara (ID: 17134124/0x0105722C) (Basic look)
112: 0x0311 [0x79] kou2 (ID: 17134232/0x01057298) looks at Klara (ID: 17134124/0x0105722C) (Basic look)
113: 0x031B [0x5B] LOAD_EXT_SCHEDULER: Load scheduler "uds0" with entities [Zeid (ID: 17134125/0x0105722D), Zeid (ID: 17134125/0x0105722D)], work=244*
114: 0x032A [0x53] WAIT_SCHEDULER_TASK: Wait for scheduler "uds0" with entities [Zeid (ID: 17134125/0x0105722D), Zeid (ID: 17134125/0x0105722D)]
115: 0x0337 [0x45] LOAD_SCHEDULED_TASK: Load scheduler "sa02" with entities [LocalPlayer, LocalPlayer], work=[441*, 0*]
116: 0x0348 [0x1A] CALL_SUBROUTINE(address=0x22AB)
117: 0x034B [0x1C] WAIT(180* ticks)
118: 0x034E [0x52] END_LOAD_SCHEDULER: End scheduler "sa02" with entities [LocalPlayer, LocalPlayer], work=441*
119: 0x035D [0x45] LOAD_SCHEDULED_TASK: Load scheduler "sa03" with entities [LocalPlayer, LocalPlayer], work=[441*, 0*]
120: 0x036E [0x66] LOAD_EXT_SCHEDULER_MAIN: Load scheduler "twb0" with entities [Bartholomaus (ID: 17134230/0x01057296), Bartholomaus (ID: 17134230/0x01057296)], work=9*
121: 0x037D [0x2B] Bartholomaus (ID: 17134230/0x01057296) [12244*]:
    → "...Darksteel Hurricane? Are you absolutely positive?"
122: 0x0384 [0x23] WAIT_FOR_DIALOG_INTERACTION
123: 0x0385 [0x1C] WAIT(30* ticks)
124: 0x0388 [0x66] LOAD_EXT_SCHEDULER_MAIN: Load scheduler "twb1" with entities [Bartholomaus (ID: 17134230/0x01057296), Bartholomaus (ID: 17134230/0x01057296)], work=9*
125: 0x0397 [0x52] END_LOAD_SCHEDULER: End scheduler "sa03" with entities [LocalPlayer, LocalPlayer], work=441*
126: 0x03A6 [0x45] LOAD_SCHEDULED_TASK: Load scheduler "sa04" with entities [LocalPlayer, LocalPlayer], work=[441*, 0*]
127: 0x03B7 [0x5B] LOAD_EXT_SCHEDULER: Load scheduler "tlk0" with entities [Klara (ID: 17134124/0x0105722C), Klara (ID: 17134124/0x0105722C)], work=1346*
128: 0x03C6 [0x2B] Klara (ID: 17134124/0x0105722C) [12245*]:
    → "The most recent victim's post in the Department of Industry..."
129: 0x03CD [0x23] WAIT_FOR_DIALOG_INTERACTION
130: 0x03CE [0x1C] WAIT(30* ticks)
131: 0x03D1 [0x5B] LOAD_EXT_SCHEDULER: Load scheduler "tlk1" with entities [Klara (ID: 17134124/0x0105722C), Klara (ID: 17134124/0x0105722C)], work=1346*
132: 0x03E0 [0x1C] WAIT(40* ticks)
133: 0x03E3 [0x52] END_LOAD_SCHEDULER: End scheduler "sa04" with entities [LocalPlayer, LocalPlayer], work=441*
134: 0x03F2 [0x45] LOAD_SCHEDULED_TASK: Load scheduler "sa05" with entities [LocalPlayer, LocalPlayer], work=[441*, 0*]
135: 0x0403 [0x53] WAIT_SCHEDULER_TASK: Wait for scheduler "tlk1" with entities [Klara (ID: 17134124/0x0105722C), Klara (ID: 17134124/0x0105722C)]
136: 0x0410 [0x5B] LOAD_EXT_SCHEDULER: Load scheduler "thk0" with entities [Klara (ID: 17134124/0x0105722C), Klara (ID: 17134124/0x0105722C)], work=1346*
137: 0x041F [0x2B] Klara (ID: 17134124/0x0105722C) [12246*]:
    → "The cruelly methodical manner in which he was slain..."
138: 0x0426 [0x23] WAIT_FOR_DIALOG_INTERACTION
139: 0x0427 [0x1C] WAIT(30* ticks)
140: 0x042A [0x5B] LOAD_EXT_SCHEDULER: Load scheduler "thk1" with entities [Klara (ID: 17134124/0x0105722C), Klara (ID: 17134124/0x0105722C)], work=1346*
141: 0x0439 [0x1C] WAIT(30* ticks)
142: 0x043C [0x52] END_LOAD_SCHEDULER: End scheduler "sa05" with entities [LocalPlayer, LocalPlayer], work=441*
143: 0x044B [0x45] LOAD_SCHEDULED_TASK: Load scheduler "sa06" with entities [LocalPlayer, LocalPlayer], work=[441*, 0*]
144: 0x045C [0x53] WAIT_SCHEDULER_TASK: Wait for scheduler "thk1" with entities [Klara (ID: 17134124/0x0105722C), Klara (ID: 17134124/0x0105722C)]
145: 0x0469 [0x5B] LOAD_EXT_SCHEDULER: Load scheduler "tlk0" with entities [Klara (ID: 17134124/0x0105722C), Klara (ID: 17134124/0x0105722C)], work=1346*
146: 0x0478 [0x2B] Klara (ID: 17134124/0x0105722C) [12247*]:
    → "And lastly, the mark carved into his forehead."
147: 0x047F [0x23] WAIT_FOR_DIALOG_INTERACTION
148: 0x0480 [0x1C] WAIT(30* ticks)
149: 0x0483 [0x52] END_LOAD_SCHEDULER: End scheduler "sa06" with entities [LocalPlayer, LocalPlayer], work=441*
150: 0x0492 [0x45] LOAD_SCHEDULED_TASK: Load scheduler "sa07" with entities [LocalPlayer, LocalPlayer], work=[441*, 0*]
151: 0x04A3 [0x2B] Klara (ID: 17134124/0x0105722C) [12248*]:
    → "All of this strongly suggests Darksteel Hurricane's involvement."
152: 0x04AA [0x23] WAIT_FOR_DIALOG_INTERACTION
153: 0x04AB [0x1C] WAIT(30* ticks)
154: 0x04AE [0x5B] LOAD_EXT_SCHEDULER: Load scheduler "tlk1" with entities [Klara (ID: 17134124/0x0105722C), Klara (ID: 17134124/0x0105722C)], work=1346*
155: 0x04BD [0x52] END_LOAD_SCHEDULER: End scheduler "sa07" with entities [LocalPlayer, LocalPlayer], work=441*
156: 0x04CC [0x45] LOAD_SCHEDULED_TASK: Load scheduler "sa08" with entities [LocalPlayer, LocalPlayer], work=[441*, 0*]
157: 0x04DD [0x6E] Bartholomaus (ID: 17134230/0x01057296) uses emote 33*
158: 0x04E4 [0x99] Wait for Bartholomaus (ID: 17134230/0x01057296) animation to complete
159: 0x04E9 [0x2B] Bartholomaus (ID: 17134230/0x01057296) [12249*]:
    → "Curses! But nothing has been heard of that cold-blooded killer for years!"
160: 0x04F0 [0x23] WAIT_FOR_DIALOG_INTERACTION
161: 0x04F1 [0x1C] WAIT(30* ticks)
162: 0x04F4 [0x5B] LOAD_EXT_SCHEDULER: Load scheduler "tlk0" with entities [Klara (ID: 17134124/0x0105722C), Klara (ID: 17134124/0x0105722C)], work=1346*
163: 0x0503 [0x2B] Klara (ID: 17134124/0x0105722C) [12250*]:
    → "It's not uncommon for criminals to go into hiding for a time, waiting for the authorities to slip into complacency."
164: 0x050A [0x23] WAIT_FOR_DIALOG_INTERACTION
165: 0x050B [0x5B] LOAD_EXT_SCHEDULER: Load scheduler "tlk1" with entities [Klara (ID: 17134124/0x0105722C), Klara (ID: 17134124/0x0105722C)], work=1346*
166: 0x051A [0x52] END_LOAD_SCHEDULER: End scheduler "sa08" with entities [LocalPlayer, LocalPlayer], work=441*
167: 0x0529 [0x45] LOAD_SCHEDULED_TASK: Load scheduler "sa11" with entities [LocalPlayer, LocalPlayer], work=[441*, 0*]
168: 0x053A [0x1C] WAIT(30* ticks)
169: 0x053D [0x4E] SET_ENTITY_HIDE_FLAG: Hide LocalPlayer
170: 0x0543 [0x66] LOAD_EXT_SCHEDULER_MAIN: Load scheduler "twb0" with entities [Bartholomaus (ID: 17134230/0x01057296), Bartholomaus (ID: 17134230/0x01057296)], work=9*
171: 0x0552 [0x2B] Bartholomaus (ID: 17134230/0x01057296) [12251*]:
    → "Hm... How fares the investigation?"
172: 0x0559 [0x23] WAIT_FOR_DIALOG_INTERACTION
173: 0x055A [0x1C] WAIT(30* ticks)
174: 0x055D [0x66] LOAD_EXT_SCHEDULER_MAIN: Load scheduler "twb1" with entities [Bartholomaus (ID: 17134230/0x01057296), Bartholomaus (ID: 17134230/0x01057296)], work=9*
175: 0x056C [0x52] END_LOAD_SCHEDULER: End scheduler "sa11" with entities [LocalPlayer, LocalPlayer], work=441*
176: 0x057B [0x45] LOAD_SCHEDULED_TASK: Load scheduler "sa12" with entities [LocalPlayer, LocalPlayer], work=[441*, 0*]
177: 0x058C [0x5B] LOAD_EXT_SCHEDULER: Load scheduler "tlk0" with entities [Klara (ID: 17134124/0x0105722C), Klara (ID: 17134124/0x0105722C)], work=1346*
178: 0x059B [0x2B] Klara (ID: 17134124/0x0105722C) [12252*]:
    → "...I fear there is little to report at present. Time has scarcely elapsed since the investigation orders were issued."
179: 0x05A2 [0x23] WAIT_FOR_DIALOG_INTERACTION
180: 0x05A3 [0x53] WAIT_SCHEDULER_TASK: Wait for scheduler "tlk0" with entities [Klara (ID: 17134124/0x0105722C), Klara (ID: 17134124/0x0105722C)]
181: 0x05B0 [0x1C] WAIT(30* ticks)
182: 0x05B3 [0x5B] LOAD_EXT_SCHEDULER: Load scheduler "tlk1" with entities [Klara (ID: 17134124/0x0105722C), Klara (ID: 17134124/0x0105722C)], work=1346*
183: 0x05C2 [0x52] END_LOAD_SCHEDULER: End scheduler "sa12" with entities [LocalPlayer, LocalPlayer], work=441*
184: 0x05D1 [0x45] LOAD_SCHEDULED_TASK: Load scheduler "sa13" with entities [LocalPlayer, LocalPlayer], work=[441*, 0*]
185: 0x05E2 [0x1C] WAIT(15* ticks)
186: 0x05E5 [0x4E] SET_ENTITY_HIDE_FLAG: Show LocalPlayer
187: 0x05EB [0x53] WAIT_SCHEDULER_TASK: Wait for scheduler "twb1" with entities [Bartholomaus (ID: 17134230/0x01057296), Bartholomaus (ID: 17134230/0x01057296)]
188: 0x05F8 [0x66] LOAD_EXT_SCHEDULER_MAIN: Load scheduler "twb0" with entities [Bartholomaus (ID: 17134230/0x01057296), Bartholomaus (ID: 17134230/0x01057296)], work=9*
189: 0x0607 [0x2B] Bartholomaus (ID: 17134230/0x01057296) [12253*]:
    → "Is that so...? I'm inclined to believe differently."
190: 0x060E [0x23] WAIT_FOR_DIALOG_INTERACTION
191: 0x060F [0x52] END_LOAD_SCHEDULER: End scheduler "sa13" with entities [LocalPlayer, LocalPlayer], work=441*
192: 0x061E [0x45] LOAD_SCHEDULED_TASK: Load scheduler "sa14" with entities [LocalPlayer, LocalPlayer], work=[441*, 0*]
193: 0x062F [0x79] Bartholomaus (ID: 17134230/0x01057296) looks at Five Moons (ID: 17134128/0x01057230) (Basic look)
194: 0x0639 [0x2B] Bartholomaus (ID: 17134230/0x01057296) [12254*]:
    → "Well do I know of the circumstances which led to the Mythril Musketeers being relieved of its customary role as the president's personal escort, and truly do I empathize with your desire to rid your unit of the burden of ignominy."
195: 0x0640 [0x23] WAIT_FOR_DIALOG_INTERACTION
196: 0x0641 [0x55] WAIT_LOAD_SCHEDULER: Wait for scheduler "sa14" with entities [LocalPlayer, LocalPlayer], work=441*
197: 0x0650 [0x45] LOAD_SCHEDULED_TASK: Load scheduler "sa15" with entities [LocalPlayer, LocalPlayer], work=[441*, 0*]
198: 0x0661 [0x1C] WAIT(30* ticks)
199: 0x0664 [0x79] Bartholomaus (ID: 17134230/0x01057296) looks at Klara (ID: 17134124/0x0105722C) (Basic look)
200: 0x066E [0x1C] WAIT(15* ticks)
201: 0x0671 [0x2B] Bartholomaus (ID: 17134230/0x01057296) [12255*]:
    → "But it cannot be denied that your unit is severely undermanned for an undertaking of this magnitude. Therefore, I offer you the full cooperation of my First Brigade."
202: 0x0678 [0x23] WAIT_FOR_DIALOG_INTERACTION
203: 0x0679 [0x53] WAIT_SCHEDULER_TASK: Wait for scheduler "twb0" with entities [Bartholomaus (ID: 17134230/0x01057296), Bartholomaus (ID: 17134230/0x01057296)]
204: 0x0686 [0x1C] WAIT(30* ticks)
205: 0x0689 [0x66] LOAD_EXT_SCHEDULER_MAIN: Load scheduler "twb1" with entities [Bartholomaus (ID: 17134230/0x01057296), Bartholomaus (ID: 17134230/0x01057296)], work=9*
206: 0x0698 [0x1C] WAIT(30* ticks)
207: 0x069B [0x52] END_LOAD_SCHEDULER: End scheduler "sa15" with entities [LocalPlayer, LocalPlayer], work=441*
208: 0x06AA [0x45] LOAD_SCHEDULED_TASK: Load scheduler "sa16" with entities [LocalPlayer, LocalPlayer], work=[441*, 0*]
209: 0x06BB [0x7C] Klara (ID: 17134124/0x0105722C)->Render.Flags2 |= 0x00
210: 0x06C1 [0x2B] Klara (ID: 17134124/0x0105722C) [12256*]:
    → "..."
211: 0x06C8 [0x23] WAIT_FOR_DIALOG_INTERACTION
212: 0x06C9 [0x7C] Klara (ID: 17134124/0x0105722C)->Render.Flags2 |= 0x01
213: 0x06CF [0x1C] WAIT(30* ticks)
214: 0x06D2 [0x52] END_LOAD_SCHEDULER: End scheduler "sa16" with entities [LocalPlayer, LocalPlayer], work=441*
215: 0x06E1 [0x45] LOAD_SCHEDULED_TASK: Load scheduler "0000" with entities [LocalPlayer, LocalPlayer], work=[441*, 0*]
216: 0x06F2 [0x55] WAIT_LOAD_SCHEDULER: Wait for scheduler "0000" with entities [LocalPlayer, LocalPlayer], work=441*
217: 0x0701 [0x52] END_LOAD_SCHEDULER: End scheduler "0000" with entities [LocalPlayer, LocalPlayer], work=441*
218: 0x0710 [0x45] LOAD_SCHEDULED_TASK: Load scheduler "sa17" with entities [LocalPlayer, LocalPlayer], work=[441*, 0*]
219: 0x0721 [0x5B] LOAD_EXT_SCHEDULER: Load scheduler "tlk0" with entities [Klara (ID: 17134124/0x0105722C), Klara (ID: 17134124/0x0105722C)], work=1346*
220: 0x0730 [0x2B] Klara (ID: 17134124/0x0105722C) [12257*]:
    → "I was under the impression that the First Brigade had been assigned the security of His Excellency the President in our stead."
221: 0x0737 [0x23] WAIT_FOR_DIALOG_INTERACTION
222: 0x0738 [0x1C] WAIT(30* ticks)
223: 0x073B [0x52] END_LOAD_SCHEDULER: End scheduler "sa17" with entities [LocalPlayer, LocalPlayer], work=441*
224: 0x074A [0x45] LOAD_SCHEDULED_TASK: Load scheduler "st07" with entities [LocalPlayer, LocalPlayer], work=[441*, 0*]
225: 0x075B [0x53] WAIT_SCHEDULER_TASK: Wait for scheduler "twb1" with entities [Bartholomaus (ID: 17134230/0x01057296), Bartholomaus (ID: 17134230/0x01057296)]
226: 0x0768 [0x66] LOAD_EXT_SCHEDULER_MAIN: Load scheduler "twb0" with entities [Bartholomaus (ID: 17134230/0x01057296), Bartholomaus (ID: 17134230/0x01057296)], work=9*
227: 0x0777 [0x2B] Bartholomaus (ID: 17134230/0x01057296) [12258*]:
    → "A superfluous concern. A good half of my forty soldiers can easily be spared for the investigative effort without compromising the president's safety."
228: 0x077E [0x23] WAIT_FOR_DIALOG_INTERACTION
229: 0x077F [0x53] WAIT_SCHEDULER_TASK: Wait for scheduler "twb0" with entities [Bartholomaus (ID: 17134230/0x01057296), Bartholomaus (ID: 17134230/0x01057296)]
230: 0x078C [0x1C] WAIT(30* ticks)
231: 0x078F [0x66] LOAD_EXT_SCHEDULER_MAIN: Load scheduler "twb1" with entities [Bartholomaus (ID: 17134230/0x01057296), Bartholomaus (ID: 17134230/0x01057296)], work=9*
232: 0x079E [0x52] END_LOAD_SCHEDULER: End scheduler "st07" with entities [LocalPlayer, LocalPlayer], work=441*
233: 0x07AD [0x45] LOAD_SCHEDULED_TASK: Load scheduler "sa41" with entities [LocalPlayer, LocalPlayer], work=[441*, 0*]
234: 0x07BE [0x2B] Klara (ID: 17134124/0x0105722C) [12259*]:
    → "...We are grateful for your offer."
235: 0x07C5 [0x23] WAIT_FOR_DIALOG_INTERACTION
236: 0x07C6 [0x52] END_LOAD_SCHEDULER: End scheduler "sa41" with entities [LocalPlayer, LocalPlayer], work=441*
237: 0x07D5 [0x45] LOAD_SCHEDULED_TASK: Load scheduler "sa20" with entities [LocalPlayer, LocalPlayer], work=[441*, 0*]
238: 0x07E6 [0x79] Bartholomaus (ID: 17134230/0x01057296) looks at Five Moons (ID: 17134128/0x01057230) (Basic look)
239: 0x07F0 [0x1C] WAIT(50* ticks)
240: 0x07F3 [0x2B] Bartholomaus (ID: 17134230/0x01057296) [12260*]:
    → "One more thing."
241: 0x07FA [0x23] WAIT_FOR_DIALOG_INTERACTION
242: 0x07FB [0x1C] WAIT(30* ticks)
243: 0x07FE [0x52] END_LOAD_SCHEDULER: End scheduler "sa20" with entities [LocalPlayer, LocalPlayer], work=441*
244: 0x080D [0x45] LOAD_SCHEDULED_TASK: Load scheduler "sa22" with entities [LocalPlayer, LocalPlayer], work=[441*, 0*]
245: 0x081E [0x7B] Bartholomaus (ID: 17134230/0x01057296) stops talking
246: 0x0823 [0x1C] WAIT(60* ticks)
247: 0x0826 [0x66] LOAD_EXT_SCHEDULER_MAIN: Load scheduler "twa0" with entities [Bartholomaus (ID: 17134230/0x01057296), Bartholomaus (ID: 17134230/0x01057296)], work=9*
248: 0x0835 [0x2B] Bartholomaus (ID: 17134230/0x01057296) [12261*]:
    → "There is a theory which explains how Darksteel Hurricane was able to evade capture during his previous reign of terror. That is, the presence of an informant--a traitor within our ranks."
249: 0x083C [0x23] WAIT_FOR_DIALOG_INTERACTION
250: 0x083D [0x2B] Bartholomaus (ID: 17134230/0x01057296) [12262*]:
    → "Be careful whom you privilege with access to classified information."
251: 0x0844 [0x23] WAIT_FOR_DIALOG_INTERACTION
252: 0x0845 [0x66] LOAD_EXT_SCHEDULER_MAIN: Load scheduler "twa1" with entities [Bartholomaus (ID: 17134230/0x01057296), Bartholomaus (ID: 17134230/0x01057296)], work=9*
253: 0x0854 [0x52] END_LOAD_SCHEDULER: End scheduler "sa22" with entities [LocalPlayer, LocalPlayer], work=441*
254: 0x0863 [0x45] LOAD_SCHEDULED_TASK: Load scheduler "sa09" with entities [LocalPlayer, LocalPlayer], work=[441*, 0*]
255: 0x0874 [0x5B] LOAD_EXT_SCHEDULER: Load scheduler "tlk0" with entities [Klara (ID: 17134124/0x0105722C), Klara (ID: 17134124/0x0105722C)], work=1346*
256: 0x0883 [0x2B] Klara (ID: 17134124/0x0105722C) [12263*]:
    → "Your concern couldn't be more misplaced. The bond of mythril my people share is stronger than that of any steel. I trust each and every one of them with my life."
257: 0x088A [0x23] WAIT_FOR_DIALOG_INTERACTION
258: 0x088B [0x5B] LOAD_EXT_SCHEDULER: Load scheduler "tlk1" with entities [Klara (ID: 17134124/0x0105722C), Klara (ID: 17134124/0x0105722C)], work=1346*
259: 0x089A [0x52] END_LOAD_SCHEDULER: End scheduler "sa09" with entities [LocalPlayer, LocalPlayer], work=441*
260: 0x08A9 [0x45] LOAD_SCHEDULED_TASK: Load scheduler "s000" with entities [LocalPlayer, LocalPlayer], work=[441*, 0*]
261: 0x08BA [0x66] LOAD_EXT_SCHEDULER_MAIN: Load scheduler "twa0" with entities [Bartholomaus (ID: 17134230/0x01057296), Bartholomaus (ID: 17134230/0x01057296)], work=9*
262: 0x08C9 [0x2B] Bartholomaus (ID: 17134230/0x01057296) [12264*]:
    → "Hahaha, that is most reassuring. Very well then. I will set my people to work at once."
263: 0x08D0 [0x23] WAIT_FOR_DIALOG_INTERACTION
264: 0x08D1 [0x66] LOAD_EXT_SCHEDULER_MAIN: Load scheduler "twa1" with entities [Bartholomaus (ID: 17134230/0x01057296), Bartholomaus (ID: 17134230/0x01057296)], work=9*
265: 0x08E0 [0x52] END_LOAD_SCHEDULER: End scheduler "s000" with entities [LocalPlayer, LocalPlayer], work=441*
266: 0x08EF [0x45] LOAD_SCHEDULED_TASK: Load scheduler "sa23" with entities [LocalPlayer, LocalPlayer], work=[441*, 0*]
267: 0x0900 [0x7B] kou2 (ID: 17134232/0x01057298) stops talking
268: 0x0905 [0x27] REQ_SET(priority=0x10, entity_id=kou2 (ID: 17134232/0x01057298), tag_num=0x0F)
269: 0x090C [0x1C] WAIT(60* ticks)
270: 0x090F [0x7B] Bartholomaus (ID: 17134230/0x01057296) stops talking
271: 0x0914 [0x53] WAIT_SCHEDULER_TASK: Wait for scheduler "twa1" with entities [Bartholomaus (ID: 17134230/0x01057296), Bartholomaus (ID: 17134230/0x01057296)]
272: 0x0921 [0x27] REQ_SET(priority=0x10, entity_id=Bartholomaus (ID: 17134230/0x01057296), tag_num=0x0F)
273: 0x0928 [0x1C] WAIT(50* ticks)
274: 0x092B [0x7B] kou1 (ID: 17134231/0x01057297) stops talking
275: 0x0930 [0x27] REQ_SET(priority=0x10, entity_id=kou1 (ID: 17134231/0x01057297), tag_num=0x0F)
276: 0x0937 [0x1C] WAIT(100* ticks)
277: 0x093A [0x1A] CALL_SUBROUTINE(address=0x22CC)
278: 0x093D [0x52] END_LOAD_SCHEDULER: End scheduler "sa23" with entities [LocalPlayer, LocalPlayer], work=441*
279: 0x094C [0x7A] VM_CONTROL: Reset VM for Bartholomaus (ID: 17134230/0x01057296)
280: 0x0952 [0x7A] VM_CONTROL: Reset VM for kou1 (ID: 17134231/0x01057297)
281: 0x0958 [0x7A] VM_CONTROL: Reset VM for kou2 (ID: 17134232/0x01057298)
282: 0x095E [0x4E] SET_ENTITY_HIDE_FLAG: Hide Bartholomaus (ID: 17134230/0x01057296)
283: 0x0964 [0x4E] SET_ENTITY_HIDE_FLAG: Hide kou1 (ID: 17134231/0x01057297)
284: 0x096A [0x4E] SET_ENTITY_HIDE_FLAG: Hide kou2 (ID: 17134232/0x01057298)
285: 0x0970 [0x1C] WAIT(200* ticks)
286: 0x0973 [0x5D] SET_MUSIC_VOLUME(volume=80*, fade_time=100*)
287: 0x0978 [0xBA] SET_ENTITY_POSITION(entity_id=LocalPlayer, pos_x=91.041*, pos_z=14.093*, pos_y=-20.170*, direction=30.7°*)
288: 0x0985 [0xBA] SET_ENTITY_POSITION(entity_id=Klara (ID: 17134124/0x0105722C), pos_x=96.031*, pos_z=9.748*, pos_y=-20.170*, direction=263.7°*)
289: 0x0992 [0xBA] SET_ENTITY_POSITION(entity_id=Zeid (ID: 17134125/0x0105722D), pos_x=98.620*, pos_z=12.096*, pos_y=-20.185*, direction=167.0°*)
290: 0x099F [0xBA] SET_ENTITY_POSITION(entity_id=Volker (ID: 17134126/0x0105722E), pos_x=93.549*, pos_z=10.050*, pos_y=-20.170*, direction=312.0°*)
291: 0x09AC [0xBA] SET_ENTITY_POSITION(entity_id=Nicolaus (ID: 17134127/0x0105722F), pos_x=97.503*, pos_z=10.382*, pos_y=-20.185*, direction=167.0°*)
292: 0x09B9 [0xBA] SET_ENTITY_POSITION(entity_id=Five Moons (ID: 17134128/0x01057230), pos_x=92.206*, pos_z=11.654*, pos_y=-20.185*, direction=10.5°*)
293: 0x09C6 [0x48] [System] [12900*]:
    → "@@"
294: 0x09C9 [0x23] WAIT_FOR_DIALOG_INTERACTION
295: 0x09CA [0x80] LOAD_WAIT(entity=LocalPlayer)
296: 0x09CF [0x80] LOAD_WAIT(entity=Klara (ID: 17134124/0x0105722C))
297: 0x09D4 [0x80] LOAD_WAIT(entity=Zeid (ID: 17134125/0x0105722D))
298: 0x09D9 [0x80] LOAD_WAIT(entity=Volker (ID: 17134126/0x0105722E))
299: 0x09DE [0x80] LOAD_WAIT(entity=Nicolaus (ID: 17134127/0x0105722F))
300: 0x09E3 [0x80] LOAD_WAIT(entity=Five Moons (ID: 17134128/0x01057230))
301: 0x09E8 [0x79] LocalPlayer looks at Nicolaus (ID: 17134127/0x0105722F) (Basic look)
302: 0x09F2 [0x79] Klara (ID: 17134124/0x0105722C) looks at Nicolaus (ID: 17134127/0x0105722F) (Basic look)
303: 0x09FC [0x79] Zeid (ID: 17134125/0x0105722D) looks at Nicolaus (ID: 17134127/0x0105722F) (Basic look)
304: 0x0A06 [0x7B] Nicolaus (ID: 17134127/0x0105722F) stops talking
305: 0x0A0B [0x79] Five Moons (ID: 17134128/0x01057230) looks at Nicolaus (ID: 17134127/0x0105722F) (Basic look)
306: 0x0A15 [0x27] REQ_SET(priority=0x10, entity_id=??? (ID: 17134130/0x01057232), tag_num=0x0D)
307: 0x0A1C [0x1C] WAIT(100* ticks)
308: 0x0A1F [0x45] LOAD_SCHEDULED_TASK: Load scheduler "sa24" with entities [LocalPlayer, LocalPlayer], work=[441*, 0*]
309: 0x0A30 [0x1A] CALL_SUBROUTINE(address=0x22AB)
310: 0x0A33 [0x66] LOAD_EXT_SCHEDULER_MAIN: Load scheduler "dis0" with entities [Nicolaus (ID: 17134127/0x0105722F), Nicolaus (ID: 17134127/0x0105722F)], work=0*
311: 0x0A42 [0x2B] Nicolaus (ID: 17134127/0x0105722F) [12265*]:
    → ""Full cooperation"? Pshaw... That's one thinly veiled war declaration if you ask my humble opinion."
312: 0x0A49 [0x23] WAIT_FOR_DIALOG_INTERACTION
313: 0x0A4A [0x53] WAIT_SCHEDULER_TASK: Wait for scheduler "dis0" with entities [Nicolaus (ID: 17134127/0x0105722F), Nicolaus (ID: 17134127/0x0105722F)]
314: 0x0A57 [0x1C] WAIT(30* ticks)
315: 0x0A5A [0x52] END_LOAD_SCHEDULER: End scheduler "sa24" with entities [LocalPlayer, LocalPlayer], work=441*
316: 0x0A69 [0x45] LOAD_SCHEDULED_TASK: Load scheduler "sa25" with entities [LocalPlayer, LocalPlayer], work=[441*, 0*]
317: 0x0A7A [0x27] REQ_SET(priority=0x10, entity_id=??? (ID: 17134130/0x01057232), tag_num=0x0C)
318: 0x0A81 [0x2B] Five Moons (ID: 17134128/0x01057230) [12266*]:
    → "I'm sorry... All of this is my doing..."
319: 0x0A88 [0x23] WAIT_FOR_DIALOG_INTERACTION
320: 0x0A89 [0x1C] WAIT(30* ticks)
321: 0x0A8C [0xBA] SET_ENTITY_POSITION(entity_id=Nicolaus (ID: 17134127/0x0105722F), pos_x=97.503*, pos_z=10.382*, pos_y=-20.185*, direction=210.9°*)
322: 0x0A99 [0x2A] GET_REQ_LEVEL(level=16, entity_id=??? (ID: 17134130/0x01057232))
323: 0x0A9F [0x52] END_LOAD_SCHEDULER: End scheduler "sa25" with entities [LocalPlayer, LocalPlayer], work=441*
324: 0x0AAE [0x45] LOAD_SCHEDULED_TASK: Load scheduler "sa26" with entities [LocalPlayer, LocalPlayer], work=[441*, 0*]
325: 0x0ABF [0x79] LocalPlayer looks at Volker (ID: 17134126/0x0105722E) (Basic look)
326: 0x0AC9 [0x79] Klara (ID: 17134124/0x0105722C) looks at Five Moons (ID: 17134128/0x01057230) (Basic look)
327: 0x0AD3 [0x79] Zeid (ID: 17134125/0x0105722D) looks at Volker (ID: 17134126/0x0105722E) (Basic look)
328: 0x0ADD [0x79] Nicolaus (ID: 17134127/0x0105722F) looks at Volker (ID: 17134126/0x0105722E) (Basic look)
329: 0x0AE7 [0x5B] LOAD_EXT_SCHEDULER: Load scheduler "tsa0" with entities [Volker (ID: 17134126/0x0105722E), Volker (ID: 17134126/0x0105722E)], work=200*
330: 0x0AF6 [0x2B] Volker (ID: 17134126/0x0105722E) [12267*]:
    → "Don't pay it any mind, Five Moons. All we have to do is locate and apprehend the killer before those novice investigators do--as simple an operation as they come."
331: 0x0AFD [0x23] WAIT_FOR_DIALOG_INTERACTION
332: 0x0AFE [0x5B] LOAD_EXT_SCHEDULER: Load scheduler "tsa1" with entities [Volker (ID: 17134126/0x0105722E), Volker (ID: 17134126/0x0105722E)], work=200*
333: 0x0B0D [0x52] END_LOAD_SCHEDULER: End scheduler "sa26" with entities [LocalPlayer, LocalPlayer], work=441*
334: 0x0B1C [0x45] LOAD_SCHEDULED_TASK: Load scheduler "sa27" with entities [LocalPlayer, LocalPlayer], work=[441*, 0*]
335: 0x0B2D [0x27] REQ_SET(priority=0x10, entity_id=??? (ID: 17134130/0x01057232), tag_num=0x0E)
336: 0x0B34 [0x2B] Five Moons (ID: 17134128/0x01057230) [12268*]:
    → "You're right. It's the least I can do to repay the president for the kindness he showed me."
337: 0x0B3B [0x23] WAIT_FOR_DIALOG_INTERACTION
338: 0x0B3C [0x5B] LOAD_EXT_SCHEDULER: Load scheduler "tsa0" with entities [Volker (ID: 17134126/0x0105722E), Volker (ID: 17134126/0x0105722E)], work=200*
339: 0x0B4B [0x2B] Volker (ID: 17134126/0x0105722E) [12269*]:
    → "That's more like the old Five Moons! Let's go knock that Iron Musketeers captain off his gilded saddle!"
340: 0x0B52 [0x23] WAIT_FOR_DIALOG_INTERACTION
341: 0x0B53 [0x5B] LOAD_EXT_SCHEDULER: Load scheduler "tsa1" with entities [Volker (ID: 17134126/0x0105722E), Volker (ID: 17134126/0x0105722E)], work=200*
342: 0x0B62 [0x27] REQ_SET(priority=0x10, entity_id=??? (ID: 17134130/0x01057232), tag_num=0x0F)
343: 0x0B69 [0x1C] WAIT(45* ticks)
344: 0x0B6C [0x79] Volker (ID: 17134126/0x0105722E) looks at Klara (ID: 17134124/0x0105722C) (Basic look)
345: 0x0B76 [0x79] Five Moons (ID: 17134128/0x01057230) looks at Klara (ID: 17134124/0x0105722C) (Basic look)
346: 0x0B80 [0x52] END_LOAD_SCHEDULER: End scheduler "sa27" with entities [LocalPlayer, LocalPlayer], work=441*
347: 0x0B8F [0x45] LOAD_SCHEDULED_TASK: Load scheduler "sa28" with entities [LocalPlayer, LocalPlayer], work=[441*, 0*]
348: 0x0BA0 [0x66] LOAD_EXT_SCHEDULER_MAIN: Load scheduler "tlb0" with entities [Nicolaus (ID: 17134127/0x0105722F), Nicolaus (ID: 17134127/0x0105722F)], work=5*
349: 0x0BAF [0x2B] Nicolaus (ID: 17134127/0x0105722F) [12270*]:
    → "Captain, I've been meaning to ask you about your ailment. Have your bouts of dizziness abated?"
350: 0x0BB6 [0x23] WAIT_FOR_DIALOG_INTERACTION
351: 0x0BB7 [0x1C] WAIT(30* ticks)
352: 0x0BBA [0x2A] GET_REQ_LEVEL(level=16, entity_id=??? (ID: 17134130/0x01057232))
353: 0x0BC0 [0x66] LOAD_EXT_SCHEDULER_MAIN: Load scheduler "tlb1" with entities [Nicolaus (ID: 17134127/0x0105722F), Nicolaus (ID: 17134127/0x0105722F)], work=5*
354: 0x0BCF [0x79] Klara (ID: 17134124/0x0105722C) looks at Nicolaus (ID: 17134127/0x0105722F) (Basic look)
355: 0x0BD9 [0x52] END_LOAD_SCHEDULER: End scheduler "sa28" with entities [LocalPlayer, LocalPlayer], work=441*
356: 0x0BE8 [0x45] LOAD_SCHEDULED_TASK: Load scheduler "sa29" with entities [LocalPlayer, LocalPlayer], work=[441*, 0*]
357: 0x0BF9 [0x5B] LOAD_EXT_SCHEDULER: Load scheduler "ude0" with entities [Klara (ID: 17134124/0x0105722C), Klara (ID: 17134124/0x0105722C)], work=1346*
358: 0x0C08 [0x2B] Klara (ID: 17134124/0x0105722C) [12271*]:
    → "I stand before you, don't I? There'll be time enough later to fret over my health."
359: 0x0C0F [0x23] WAIT_FOR_DIALOG_INTERACTION
360: 0x0C10 [0x1C] WAIT(30* ticks)
361: 0x0C13 [0x5B] LOAD_EXT_SCHEDULER: Load scheduler "ude1" with entities [Klara (ID: 17134124/0x0105722C), Klara (ID: 17134124/0x0105722C)], work=1346*
362: 0x0C22 [0x53] WAIT_SCHEDULER_TASK: Wait for scheduler "ude1" with entities [Klara (ID: 17134124/0x0105722C), Klara (ID: 17134124/0x0105722C)]
363: 0x0C2F [0x52] END_LOAD_SCHEDULER: End scheduler "sa29" with entities [LocalPlayer, LocalPlayer], work=441*
364: 0x0C3E [0x45] LOAD_SCHEDULED_TASK: Load scheduler "sa31" with entities [LocalPlayer, LocalPlayer], work=[441*, 0*]
365: 0x0C4F [0x79] Klara (ID: 17134124/0x0105722C) looks at Five Moons (ID: 17134128/0x01057230) (Basic look)
366: 0x0C59 [0x5B] LOAD_EXT_SCHEDULER: Load scheduler "tlk0" with entities [Klara (ID: 17134124/0x0105722C), Klara (ID: 17134124/0x0105722C)], work=1346*
367: 0x0C68 [0x2B] Klara (ID: 17134124/0x0105722C) [12272*]:
    → "Best we focus all our efforts now on capturing our man before the First Division can get their ambitious hands on him."
368: 0x0C6F [0x23] WAIT_FOR_DIALOG_INTERACTION
369: 0x0C70 [0x1C] WAIT(30* ticks)
370: 0x0C73 [0x52] END_LOAD_SCHEDULER: End scheduler "sa31" with entities [LocalPlayer, LocalPlayer], work=441*
371: 0x0C82 [0x45] LOAD_SCHEDULED_TASK: Load scheduler "sa30" with entities [LocalPlayer, LocalPlayer], work=[441*, 0*]
372: 0x0C93 [0x7B] Klara (ID: 17134124/0x0105722C) stops talking
373: 0x0C98 [0x2B] Klara (ID: 17134124/0x0105722C) [12273*]:
    → "Exploit all information networks to the fullest extent, be it underworld or beastman, and spare no coin to procure the intelligence we need. The operation is commenced!"
374: 0x0C9F [0x23] WAIT_FOR_DIALOG_INTERACTION
375: 0x0CA0 [0x1C] WAIT(30* ticks)
376: 0x0CA3 [0x4A] Nicolaus (ID: 17134127/0x0105722F) looks at Klara (ID: 17134124/0x0105722C)
377: 0x0CAC [0x1C] WAIT(30* ticks)
378: 0x0CAF [0x5B] LOAD_EXT_SCHEDULER: Load scheduler "tlk1" with entities [Klara (ID: 17134124/0x0105722C), Klara (ID: 17134124/0x0105722C)], work=1346*
379: 0x0CBE [0x5D] SET_MUSIC_VOLUME(volume=0*, fade_time=120*)
380: 0x0CC3 [0x52] END_LOAD_SCHEDULER: End scheduler "sa30" with entities [LocalPlayer, LocalPlayer], work=441*
381: 0x0CD2 [0x45] LOAD_SCHEDULED_TASK: Load scheduler "sa34" with entities [LocalPlayer, LocalPlayer], work=[441*, 0*]
382: 0x0CE3 [0x66] LOAD_EXT_SCHEDULER_MAIN: Load scheduler "tlk0" with entities [Nicolaus (ID: 17134127/0x0105722F), Nicolaus (ID: 17134127/0x0105722F)], work=0*
383: 0x0CF2 [0x2B] Nicolaus (ID: 17134127/0x0105722F) [12274*]:
    → "A moment, Captain. There's one thing I'd like to ascertain before our investigation begins in earnest."
384: 0x0CF9 [0x23] WAIT_FOR_DIALOG_INTERACTION
385: 0x0CFA [0x1C] WAIT(30* ticks)
386: 0x0CFD [0x66] LOAD_EXT_SCHEDULER_MAIN: Load scheduler "ten0" with entities [Nicolaus (ID: 17134127/0x0105722F), Nicolaus (ID: 17134127/0x0105722F)], work=0*
387: 0x0D0C [0x52] END_LOAD_SCHEDULER: End scheduler "sa34" with entities [LocalPlayer, LocalPlayer], work=441*
388: 0x0D1B [0x45] LOAD_SCHEDULED_TASK: Load scheduler "sa33" with entities [LocalPlayer, LocalPlayer], work=[441*, 0*]
389: 0x0D2C [0x79] Klara (ID: 17134124/0x0105722C) looks at Nicolaus (ID: 17134127/0x0105722F) (Basic look)
390: 0x0D36 [0x5B] LOAD_EXT_SCHEDULER: Load scheduler "ude0" with entities [Klara (ID: 17134124/0x0105722C), Klara (ID: 17134124/0x0105722C)], work=1346*
391: 0x0D45 [0x1C] WAIT(40* ticks)
392: 0x0D48 [0x2B] Klara (ID: 17134124/0x0105722C) [13309*]:
    → "What is it?"
393: 0x0D4F [0x23] WAIT_FOR_DIALOG_INTERACTION
394: 0x0D50 [0x5C] MUSIC_CONTROL: Set Idle (Day) music to song 127*
395: 0x0D54 [0x5C] MUSIC_CONTROL: Set Idle (Night) music to song 127*
396: 0x0D58 [0x9A] WAIT_MUSIC_SERVER()
397: 0x0D59 [0x52] END_LOAD_SCHEDULER: End scheduler "sa33" with entities [LocalPlayer, LocalPlayer], work=441*
398: 0x0D68 [0x45] LOAD_SCHEDULED_TASK: Load scheduler "sa35" with entities [LocalPlayer, LocalPlayer], work=[441*, 0*]
399: 0x0D79 [0x1C] WAIT(15* ticks)
400: 0x0D7C [0x4B] UPDATE_ENTITY_YAW(entity=Klara (ID: 17134124/0x0105722C), yaw=17.9°*)
401: 0x0D83 [0x4A] Five Moons (ID: 17134128/0x01057230) looks at Klara (ID: 17134124/0x0105722C)
402: 0x0D8C [0x79] LocalPlayer looks at Nicolaus (ID: 17134127/0x0105722F) (Basic look)
403: 0x0D96 [0x7B] Klara (ID: 17134124/0x0105722C) stops talking
404: 0x0D9B [0x66] LOAD_EXT_SCHEDULER_MAIN: Load scheduler "tlk0" with entities [Nicolaus (ID: 17134127/0x0105722F), Nicolaus (ID: 17134127/0x0105722F)], work=0*
405: 0x0DAA [0x2B] Nicolaus (ID: 17134127/0x0105722F) [12275*]:
    → "As Captain Bartholomaus mentioned earlier, no incident linked to Darksteel Hurricane has occurred in years."
406: 0x0DB1 [0x23] WAIT_FOR_DIALOG_INTERACTION
407: 0x0DB2 [0x1C] WAIT(30* ticks)
408: 0x0DB5 [0x2B] Nicolaus (ID: 17134127/0x0105722F) [12276*]:
    → "So, why now? Why make a return to the fray now, when the climate of discontent during the recent Galkan uprising would've been infinitely more auspicious to his cause?"
409: 0x0DBC [0x23] WAIT_FOR_DIALOG_INTERACTION
410: 0x0DBD [0x53] WAIT_SCHEDULER_TASK: Wait for scheduler "twa0" with entities [Nicolaus (ID: 17134127/0x0105722F), Nicolaus (ID: 17134127/0x0105722F)]
411: 0x0DCA [0x1C] WAIT(30* ticks)
412: 0x0DCD [0x66] LOAD_EXT_SCHEDULER_MAIN: Load scheduler "ten0" with entities [Nicolaus (ID: 17134127/0x0105722F), Nicolaus (ID: 17134127/0x0105722F)], work=0*
413: 0x0DDC [0x52] END_LOAD_SCHEDULER: End scheduler "sa35" with entities [LocalPlayer, LocalPlayer], work=441*
414: 0x0DEB [0x45] LOAD_SCHEDULED_TASK: Load scheduler "sa38" with entities [LocalPlayer, LocalPlayer], work=[441*, 0*]
415: 0x0DFC [0x7C] Zeid (ID: 17134125/0x0105722D)->Render.Flags2 |= 0x00
416: 0x0E02 [0x2B] Zeid (ID: 17134125/0x0105722D) [13312*]:
    → "..."
417: 0x0E09 [0x23] WAIT_FOR_DIALOG_INTERACTION
418: 0x0E0A [0x52] END_LOAD_SCHEDULER: End scheduler "sa38" with entities [LocalPlayer, LocalPlayer], work=441*
419: 0x0E19 [0x45] LOAD_SCHEDULED_TASK: Load scheduler "sa52" with entities [LocalPlayer, LocalPlayer], work=[441*, 0*]
420: 0x0E2A [0x79] Klara (ID: 17134124/0x0105722C) looks at Five Moons (ID: 17134128/0x01057230) (Basic look)
421: 0x0E34 [0x66] LOAD_EXT_SCHEDULER_MAIN: Load scheduler "tlk0" with entities [Five Moons (ID: 17134128/0x01057230), Five Moons (ID: 17134128/0x01057230)], work=69*
422: 0x0E43 [0x2B] Five Moons (ID: 17134128/0x01057230) [12277*]:
    → "Captain... I must confess to being plagued with similar doubts."
423: 0x0E4A [0x23] WAIT_FOR_DIALOG_INTERACTION
424: 0x0E4B [0x52] END_LOAD_SCHEDULER: End scheduler "sa52" with entities [LocalPlayer, LocalPlayer], work=441*
425: 0x0E5A [0x45] LOAD_SCHEDULED_TASK: Load scheduler "sa39" with entities [LocalPlayer, LocalPlayer], work=[441*, 0*]
426: 0x0E6B [0x2B] Five Moons (ID: 17134128/0x01057230) [12278*]:
    → "The Darksteel Hurricane of old exclusively targeted high-ranking officials--those who'd only dare travel in the company of a small army."
427: 0x0E72 [0x23] WAIT_FOR_DIALOG_INTERACTION
428: 0x0E73 [0x2B] Five Moons (ID: 17134128/0x01057230) [12279*]:
    → "But this time, among the victims are government officers of no notable standing and even family members who were unfortunate enough to witness the unspeakable deed. This indiscriminate slaughter of innocent citizens tells me that something is sorely amiss."
429: 0x0E7A [0x23] WAIT_FOR_DIALOG_INTERACTION
430: 0x0E7B [0x66] LOAD_EXT_SCHEDULER_MAIN: Load scheduler "tlk1" with entities [Five Moons (ID: 17134128/0x01057230), Five Moons (ID: 17134128/0x01057230)], work=69*
431: 0x0E8A [0x4B] UPDATE_ENTITY_YAW(entity=Klara (ID: 17134124/0x0105722C), yaw=15.7°*)
432: 0x0E91 [0x4B] UPDATE_ENTITY_YAW(entity=Volker (ID: 17134126/0x0105722E), yaw=20.3°*)
433: 0x0E98 [0x7B] Klara (ID: 17134124/0x0105722C) stops talking
434: 0x0E9D [0x7B] Volker (ID: 17134126/0x0105722E) stops talking
435: 0x0EA2 [0xBA] SET_ENTITY_POSITION(entity_id=Nicolaus (ID: 17134127/0x0105722F), pos_x=96.751*, pos_z=10.756*, pos_y=-20.185*, direction=30.7°*)
436: 0x0EAF [0x1C] WAIT(60* ticks)
437: 0x0EB2 [0x4A] Nicolaus (ID: 17134127/0x0105722F) looks at Five Moons (ID: 17134128/0x01057230)
438: 0x0EBB [0x79] Nicolaus (ID: 17134127/0x0105722F) looks at Volker (ID: 17134126/0x0105722E) (Basic look)
439: 0x0EC5 [0x5B] LOAD_EXT_SCHEDULER: Load scheduler "tsk1" with entities [Volker (ID: 17134126/0x0105722E), Volker (ID: 17134126/0x0105722E)], work=1397*
440: 0x0ED4 [0x52] END_LOAD_SCHEDULER: End scheduler "sa39" with entities [LocalPlayer, LocalPlayer], work=441*
441: 0x0EE3 [0x45] LOAD_SCHEDULED_TASK: Load scheduler "sa42" with entities [LocalPlayer, LocalPlayer], work=[441*, 0*]
442: 0x0EF4 [0x7C] Volker (ID: 17134126/0x0105722E)->Render.Flags2 |= 0x00
443: 0x0EFA [0x2B] Volker (ID: 17134126/0x0105722E) [12280*]:
    → "..."
444: 0x0F01 [0x23] WAIT_FOR_DIALOG_INTERACTION
445: 0x0F02 [0x53] WAIT_SCHEDULER_TASK: Wait for scheduler "tsk1" with entities [Volker (ID: 17134126/0x0105722E), Volker (ID: 17134126/0x0105722E)]
446: 0x0F0F [0x7C] Volker (ID: 17134126/0x0105722E)->Render.Flags2 |= 0x01
447: 0x0F15 [0x1C] WAIT(30* ticks)
448: 0x0F18 [0x5B] LOAD_EXT_SCHEDULER: Load scheduler "thk2" with entities [Volker (ID: 17134126/0x0105722E), Volker (ID: 17134126/0x0105722E)], work=1397*
449: 0x0F27 [0x1C] WAIT(20* ticks)
450: 0x0F2A [0x52] END_LOAD_SCHEDULER: End scheduler "sa42" with entities [LocalPlayer, LocalPlayer], work=441*
451: 0x0F39 [0x45] LOAD_SCHEDULED_TASK: Load scheduler "sa43" with entities [LocalPlayer, LocalPlayer], work=[441*, 0*]
452: 0x0F4A [0x53] WAIT_SCHEDULER_TASK: Wait for scheduler "thk2" with entities [Volker (ID: 17134126/0x0105722E), Volker (ID: 17134126/0x0105722E)]
453: 0x0F57 [0x27] REQ_SET(priority=0x10, entity_id=??? (ID: 17134130/0x01057232), tag_num=0x11)
454: 0x0F5E [0x79] Volker (ID: 17134126/0x0105722E) looks at Klara (ID: 17134124/0x0105722C) (Basic look)
455: 0x0F68 [0x1C] WAIT(50* ticks)
456: 0x0F6B [0x2B] Volker (ID: 17134126/0x0105722E) [12281*]:
    → "Captain, could our suspect in fact be a copycat, rather than the real Darksteel Hurricane?"
457: 0x0F72 [0x23] WAIT_FOR_DIALOG_INTERACTION
458: 0x0F73 [0x1C] WAIT(30* ticks)
459: 0x0F76 [0x2A] GET_REQ_LEVEL(level=16, entity_id=??? (ID: 17134130/0x01057232))
460: 0x0F7C [0x79] Klara (ID: 17134124/0x0105722C) looks at Volker (ID: 17134126/0x0105722E) (Basic look)
461: 0x0F86 [0x1C] WAIT(30* ticks)
462: 0x0F89 [0x52] END_LOAD_SCHEDULER: End scheduler "sa43" with entities [LocalPlayer, LocalPlayer], work=441*
463: 0x0F98 [0x45] LOAD_SCHEDULED_TASK: Load scheduler "sa45" with entities [LocalPlayer, LocalPlayer], work=[441*, 0*]
464: 0x0FA9 [0x5B] LOAD_EXT_SCHEDULER: Load scheduler "ude1" with entities [Klara (ID: 17134124/0x0105722C), Klara (ID: 17134124/0x0105722C)], work=1346*
465: 0x0FB8 [0x2B] Klara (ID: 17134124/0x0105722C) [12282*]:
    → "All possibilities must be taken into consideration."
466: 0x0FBF [0x23] WAIT_FOR_DIALOG_INTERACTION
467: 0x0FC0 [0x53] WAIT_SCHEDULER_TASK: Wait for scheduler "ude1" with entities [Klara (ID: 17134124/0x0105722C), Klara (ID: 17134124/0x0105722C)]
468: 0x0FCD [0x7B] Klara (ID: 17134124/0x0105722C) stops talking
469: 0x0FD2 [0x5B] LOAD_EXT_SCHEDULER: Load scheduler "mei0" with entities [Klara (ID: 17134124/0x0105722C), Klara (ID: 17134124/0x0105722C)], work=1348*
470: 0x0FE1 [0x1C] WAIT(15* ticks)
471: 0x0FE4 [0x52] END_LOAD_SCHEDULER: End scheduler "sa45" with entities [LocalPlayer, LocalPlayer], work=441*
472: 0x0FF3 [0x45] LOAD_SCHEDULED_TASK: Load scheduler "sa50" with entities [LocalPlayer, LocalPlayer], work=[441*, 0*]
473: 0x1004 [0x7B] Nicolaus (ID: 17134127/0x0105722F) stops talking
474: 0x1009 [0x2B] Klara (ID: 17134124/0x0105722C) [12283*]:
    → "But now is the time for action, not speculation. Lives may be lost while we stand here dwelling on inconsequential details."
475: 0x1010 [0x23] WAIT_FOR_DIALOG_INTERACTION
476: 0x1011 [0x1C] WAIT(30* ticks)
477: 0x1014 [0x5B] LOAD_EXT_SCHEDULER: Load scheduler "mei1" with entities [Klara (ID: 17134124/0x0105722C), Klara (ID: 17134124/0x0105722C)], work=1348*
478: 0x1023 [0x52] END_LOAD_SCHEDULER: End scheduler "sa50" with entities [LocalPlayer, LocalPlayer], work=441*
479: 0x1032 [0x45] LOAD_SCHEDULED_TASK: Load scheduler "sa46" with entities [LocalPlayer, LocalPlayer], work=[441*, 0*]
480: 0x1043 [0x27] REQ_SET(priority=0x10, entity_id=??? (ID: 17134130/0x01057232), tag_num=0x12)
481: 0x104A [0x66] LOAD_EXT_SCHEDULER_MAIN: Load scheduler "kba2" with entities [Nicolaus (ID: 17134127/0x0105722F), Nicolaus (ID: 17134127/0x0105722F)], work=2*
482: 0x1059 [0x27] REQ_SET(priority=0x10, entity_id=LocalPlayer, tag_num=0x46)
483: 0x1060 [0x5B] LOAD_EXT_SCHEDULER: Load scheduler "kei0" with entities [Volker (ID: 17134126/0x0105722E), Volker (ID: 17134126/0x0105722E)], work=1396*
484: 0x106F [0x2B] Volker (ID: 17134126/0x0105722E) [12284*]:
    → "Yes, ma'am!"
485: 0x1076 [0x23] WAIT_FOR_DIALOG_INTERACTION
486: 0x1077 [0x1C] WAIT(30* ticks)
487: 0x107A [0x52] END_LOAD_SCHEDULER: End scheduler "sa46" with entities [LocalPlayer, LocalPlayer], work=441*
488: 0x1089 [0x45] LOAD_SCHEDULED_TASK: Load scheduler "sa47" with entities [LocalPlayer, LocalPlayer], work=[441*, 0*]
489: 0x109A [0x7C] Zeid (ID: 17134125/0x0105722D)->Render.Flags2 |= 0x00
490: 0x10A0 [0x2B] Zeid (ID: 17134125/0x0105722D) [12285*]:
    → "..."
491: 0x10A7 [0x23] WAIT_FOR_DIALOG_INTERACTION
492: 0x10A8 [0x7C] Zeid (ID: 17134125/0x0105722D)->Render.Flags2 |= 0x01
493: 0x10AE [0x1C] WAIT(30* ticks)
494: 0x10B1 [0x1A] CALL_SUBROUTINE(address=0x22CC)
495: 0x10B4 [0x1C] WAIT(30* ticks)
496: 0x10B7 [0x52] END_LOAD_SCHEDULER: End scheduler "sa47" with entities [LocalPlayer, LocalPlayer], work=441*
497: 0x10C6 [0x35] LOAD_ZONE_NO_CLOSE(zone_id=87*)
498: 0x10C9 [0x78] ENABLE_GAME_TIMER_RESET_WEATHER()
499: 0x10CA [0x1C] WAIT(15* ticks)
500: 0x10CD [0xAB] EventEntity->UnknownFlag = 0 // Disable unknown flag
501: 0x10CF [0x46] CAMERA_CONTROL: Restore default settings
502: 0x10D1 [0x45] LOAD_SCHEDULED_TASK: Load scheduler "fdi2" with entities [LocalPlayer, LocalPlayer], work=[200*, 0*]
503: 0x10E2 [0x21] END_EVENT
504: 0x10E3 [0x00] END_REQSTACK()
```

### Event 181

#### Metadata

| Field        | Value      |
|--------------|------------|
| Entrypoint   | 0x10E4     |
| Data Size    | 1848 bytes |
| Instructions | 222        |

```
      00 01 02 03 04 05 06 07  08 09 0A 0B 0C 0D 0E 0F
      -- -- -- -- -- -- -- --  -- -- -- -- -- -- -- --
10E0:             42 1A CC 22  46 01 38 00 80 5D 01 80      B.."F.8..]..
10F0: 02 80 1C 02 80 5C 00 8D  80 5C 01 8D 80 9A 92 01  .....\...\......
1100: 2B 72 05 01 92 01 2F 72  05 01 94 01 F0 FF FF 7F  +r..../r........
1110: 94 01 2B 72 05 01 94 01  2F 72 05 01 4E 00 F0 FF  ..+r..../r..N...
1120: FF 7F 27 10 2B 72 05 01  04 27 10 2F 72 05 01 04  ..'.+r...'./r...
1130: BA F0 FF FF 7F 8E 80 8F  80 06 80 90 80 BA 2B 72  ..............+r
1140: 05 01 91 80 92 80 06 80  93 80 BA 2F 72 05 01 94  .........../r...
1150: 80 95 80 06 80 96 80 6C  2F 72 05 01 01 80 16 80  .......l/r......
1160: 80 F0 FF FF 7F 80 2B 72  05 01 80 2F 72 05 01 79  ......+r.../r..y
1170: 00 F0 FF FF 7F F0 FF FF  7F 7B 2B 72 05 01 7B 2F  .........{+r..{/
1180: 72 05 01 45 0C 80 F0 FF  FF 7F F0 FF FF 7F 73 62  r..E..........sb
1190: 30 32 01 80 1A AB 22 1C  15 80 27 10 F0 FF FF 7F  02...."...'.....
11A0: 47 1C 97 80 52 0C 80 F0  FF FF 7F F0 FF FF 7F 73  G...R..........s
11B0: 62 30 32 45 0C 80 F0 FF  FF 7F F0 FF FF 7F 73 62  b02E..........sb
11C0: 30 30 01 80 1C 98 80 52  0C 80 F0 FF FF 7F F0 FF  00.....R........
11D0: FF 7F 73 62 30 30 45 0C  80 F0 FF FF 7F F0 FF FF  ..sb00E.........
11E0: 7F 73 62 30 31 01 80 2A  10 F0 FF FF 7F 1C 0E 80  .sb01..*........
11F0: 6E F0 FF FF 7F 01 80 99  F0 FF FF 7F 1C 13 80 52  n..............R
1200: 0C 80 F0 FF FF 7F F0 FF  FF 7F 73 62 30 31 45 0C  ..........sb01E.
1210: 80 F0 FF FF 7F F0 FF FF  7F 73 62 32 32 01 80 27  .........sb22..'
1220: 10 32 72 05 01 13 2B 2B  72 05 01 99 80 23 2A 10  .2r...++r....#*.
1230: 32 72 05 01 1C 0E 80 52  0C 80 F0 FF FF 7F F0 FF  2r.....R........
1240: FF 7F 73 62 32 32 45 0C  80 F0 FF FF 7F F0 FF FF  ..sb22E.........
1250: 7F 73 62 30 33 01 80 4A  2B 72 05 01 F0 FF FF 7F  .sb03..J+r......
1260: 79 00 2B 72 05 01 F0 FF  FF 7F 6F 76 2B 72 05 01  y.+r......ov+r..
1270: 66 0B 80 2B 72 05 01 2B  72 05 01 74 6C 6B 30 2B  f..+r..+r..tlk0+
1280: 2B 72 05 01 9A 80 23 53  2B 72 05 01 2B 72 05 01  +r....#S+r..+r..
1290: 74 6C 6B 30 1C 0E 80 66  0B 80 2B 72 05 01 2B 72  tlk0...f..+r..+r
12A0: 05 01 74 6C 6B 31 1C 0E  80 52 0C 80 F0 FF FF 7F  ..tlk1...R......
12B0: F0 FF FF 7F 73 62 30 33  45 0C 80 F0 FF FF 7F F0  ....sb03E.......
12C0: FF FF 7F 73 62 32 31 01  80 6E F0 FF FF 7F 9B 80  ...sb21..n......
12D0: 99 F0 FF FF 7F 1C 9C 80  52 0C 80 F0 FF FF 7F F0  ........R.......
12E0: FF FF 7F 73 62 32 31 45  0C 80 F0 FF FF 7F F0 FF  ...sb21E........
12F0: FF 7F 73 62 30 34 01 80  53 2B 72 05 01 2B 72 05  ..sb04..S+r..+r.
1300: 01 74 6C 6B 31 66 0B 80  2B 72 05 01 2B 72 05 01  .tlk1f..+r..+r..
1310: 74 6C 6B 30 2B 2B 72 05  01 9D 80 23 1C 0E 80 53  tlk0++r....#...S
1320: 2B 72 05 01 2B 72 05 01  74 6C 6B 30 66 0B 80 2B  +r..+r..tlk0f..+
1330: 72 05 01 2B 72 05 01 74  6C 6B 31 5D 01 80 98 80  r..+r..tlk1]....
1340: 1C 4E 80 79 00 2B 72 05  01 2F 72 05 01 1C 02 80  .N.y.+r../r.....
1350: 5C 00 36 80 5C 01 36 80  9A 6C 2F 72 05 01 9E 80  \.6.\.6..l/r....
1360: 16 80 27 10 2F 72 05 01  0C 1C 97 80 52 0C 80 F0  ..'./r......R...
1370: FF FF 7F F0 FF FF 7F 73  62 30 34 45 0C 80 F0 FF  .......sb04E....
1380: FF 7F F0 FF FF 7F 73 62  30 35 01 80 4B F0 FF FF  ......sb05..K...
1390: 7F 9F 80 79 00 F0 FF FF  7F 2F 72 05 01 1C A0 80  ...y...../r.....
13A0: 52 0C 80 F0 FF FF 7F F0  FF FF 7F 73 62 30 35 45  R..........sb05E
13B0: 0C 80 F0 FF FF 7F F0 FF  FF 7F 73 62 30 36 01 80  ..........sb06..
13C0: 2A 10 2F 72 05 01 66 01  80 2F 72 05 01 2F 72 05  *./r..f../r../r.
13D0: 01 74 6C 6B 30 2B 2F 72  05 01 A1 80 23 53 2F 72  .tlk0+/r....#S/r
13E0: 05 01 2F 72 05 01 74 6C  6B 30 1C 0E 80 66 01 80  ../r..tlk0...f..
13F0: 2F 72 05 01 2F 72 05 01  74 65 6E 30 52 0C 80 F0  /r../r..ten0R...
1400: FF FF 7F F0 FF FF 7F 73  62 30 36 45 0C 80 F0 FF  .......sb06E....
1410: FF 7F F0 FF FF 7F 73 62  30 37 01 80 27 10 F0 FF  ......sb07..'...
1420: FF 7F 3E 1C 36 80 1A CC  22 52 0C 80 F0 FF FF 7F  ..>.6..."R......
1430: F0 FF FF 7F 73 62 30 37  27 10 F0 FF FF 7F 3F 2A  ....sb07'.....?*
1440: 10 F0 FF FF 7F 1C 4E 80  48 34 80 23 1C 4E 80 45  ......N.H4.#.N.E
1450: 0C 80 F0 FF FF 7F F0 FF  FF 7F 73 62 30 38 01 80  ..........sb08..
1460: 1A AB 22 27 10 32 72 05  01 14 2B 2F 72 05 01 A2  .."'.2r...+/r...
1470: 80 23 2A 10 32 72 05 01  1C 02 80 29 10 F0 FF FF  .#*.2r.....)....
1480: 7F 48 02 02 10 16 80 80  CB 14 52 0C 80 F0 FF FF  .H........R.....
1490: 7F F0 FF FF 7F 73 62 30  38 45 0C 80 F0 FF FF 7F  .....sb08E......
14A0: F0 FF FF 7F 73 62 30 39  01 80 6E F0 FF FF 7F A3  ....sb09..n.....
14B0: 80 99 F0 FF FF 7F 1C 36  80 52 0C 80 F0 FF FF 7F  .......6.R......
14C0: F0 FF FF 7F 73 62 30 39  01 CA 16 02 02 10 88 80  ....sb09........
14D0: 80 14 15 52 0C 80 F0 FF  FF 7F F0 FF FF 7F 73 62  ...R..........sb
14E0: 30 38 45 0C 80 F0 FF FF  7F F0 FF FF 7F 73 62 31  08E..........sb1
14F0: 30 01 80 6E F0 FF FF 7F  A3 80 99 F0 FF FF 7F 1C  0..n............
1500: 36 80 52 0C 80 F0 FF FF  7F F0 FF FF 7F 73 62 31  6.R..........sb1
1510: 30 01 CA 16 02 02 10 A4  80 80 5D 15 52 0C 80 F0  0.........].R...
1520: FF FF 7F F0 FF FF 7F 73  62 30 38 45 0C 80 F0 FF  .......sb08E....
1530: FF 7F F0 FF FF 7F 73 62  31 31 01 80 6E F0 FF FF  ......sb11..n...
1540: 7F A3 80 99 F0 FF FF 7F  1C 36 80 52 0C 80 F0 FF  .........6.R....
1550: FF 7F F0 FF FF 7F 73 62  31 31 01 CA 16 02 02 10  ......sb11......
1560: A5 80 80 A6 15 52 0C 80  F0 FF FF 7F F0 FF FF 7F  .....R..........
1570: 73 62 30 38 45 0C 80 F0  FF FF 7F F0 FF FF 7F 73  sb08E..........s
1580: 62 31 32 01 80 6E F0 FF  FF 7F A3 80 99 F0 FF FF  b12..n..........
1590: 7F 1C 36 80 52 0C 80 F0  FF FF 7F F0 FF FF 7F 73  ..6.R..........s
15A0: 62 31 32 01 CA 16 02 02  10 6E 80 80 EF 15 52 0C  b12......n....R.
15B0: 80 F0 FF FF 7F F0 FF FF  7F 73 62 30 38 45 0C 80  .........sb08E..
15C0: F0 FF FF 7F F0 FF FF 7F  73 62 31 33 01 80 6E F0  ........sb13..n.
15D0: FF FF 7F A3 80 99 F0 FF  FF 7F 1C 36 80 52 0C 80  ...........6.R..
15E0: F0 FF FF 7F F0 FF FF 7F  73 62 31 33 01 CA 16 02  ........sb13....
15F0: 02 10 A6 80 80 38 16 52  0C 80 F0 FF FF 7F F0 FF  .....8.R........
1600: FF 7F 73 62 30 38 45 0C  80 F0 FF FF 7F F0 FF FF  ..sb08E.........
1610: 7F 73 62 31 34 01 80 6E  F0 FF FF 7F A3 80 99 F0  .sb14..n........
1620: FF FF 7F 1C 36 80 52 0C  80 F0 FF FF 7F F0 FF FF  ....6.R.........
1630: 7F 73 62 31 34 01 CA 16  02 02 10 11 80 80 81 16  .sb14...........
1640: 52 0C 80 F0 FF FF 7F F0  FF FF 7F 73 62 30 38 45  R..........sb08E
1650: 0C 80 F0 FF FF 7F F0 FF  FF 7F 73 62 31 35 01 80  ..........sb15..
1660: 6E F0 FF FF 7F A3 80 99  F0 FF FF 7F 1C 36 80 52  n............6.R
1670: 0C 80 F0 FF FF 7F F0 FF  FF 7F 73 62 31 35 01 CA  ..........sb15..
1680: 16 02 02 10 A7 80 80 CA  16 52 0C 80 F0 FF FF 7F  .........R......
1690: F0 FF FF 7F 73 62 30 38  45 0C 80 F0 FF FF 7F F0  ....sb08E.......
16A0: FF FF 7F 73 62 31 36 01  80 6E F0 FF FF 7F A3 80  ...sb16..n......
16B0: 99 F0 FF FF 7F 1C 36 80  52 0C 80 F0 FF FF 7F F0  ......6.R.......
16C0: FF FF 7F 73 62 31 36 01  CA 16 45 0C 80 F0 FF FF  ...sb16...E.....
16D0: 7F F0 FF FF 7F 73 62 31  37 01 80 66 01 80 2F 72  .....sb17..f../r
16E0: 05 01 2F 72 05 01 74 68  6B 32 81 01 2F 72 05 01  ../r..thk2../r..
16F0: 2B 2F 72 05 01 A8 80 23  53 2F 72 05 01 2F 72 05  +/r....#S/r../r.
1700: 01 74 68 6B 32 52 0C 80  F0 FF FF 7F F0 FF FF 7F  .thk2R..........
1710: 73 62 31 37 45 0C 80 F0  FF FF 7F F0 FF FF 7F 73  sb17E..........s
1720: 62 31 38 01 80 66 01 80  2F 72 05 01 2F 72 05 01  b18..f../r../r..
1730: 74 6C 6B 31 2B 2F 72 05  01 A9 80 23 1C 0E 80 66  tlk1+/r....#...f
1740: 01 80 2F 72 05 01 2F 72  05 01 74 65 6E 31 6E F0  ../r../r..ten1n.
1750: FF FF 7F 11 80 99 F0 FF  FF 7F 1C 66 80 52 0C 80  ...........f.R..
1760: F0 FF FF 7F F0 FF FF 7F  73 62 31 38 45 0C 80 F0  ........sb18E...
1770: FF FF 7F F0 FF FF 7F 73  62 31 39 01 80 53 2F 72  .......sb19..S/r
1780: 05 01 2F 72 05 01 74 65  6E 31 66 01 80 2F 72 05  ../r..ten1f../r.
1790: 01 2F 72 05 01 74 6C 6B  30 2B 2F 72 05 01 AA 80  ./r..tlk0+/r....
17A0: 23 53 2F 72 05 01 2F 72  05 01 74 6C 6B 30 1C 0E  #S/r../r..tlk0..
17B0: 80 66 01 80 2F 72 05 01  2F 72 05 01 74 65 6E 30  .f../r../r..ten0
17C0: 52 0C 80 F0 FF FF 7F F0  FF FF 7F 73 62 31 39 45  R..........sb19E
17D0: 0C 80 F0 FF FF 7F F0 FF  FF 7F 73 62 32 30 01 80  ..........sb20..
17E0: 1C 4C 80 6E F0 FF FF 7F  11 80 99 F0 FF FF 7F 1C  .L.n............
17F0: 13 80 1A CC 22 1C 0E 80  52 0C 80 F0 FF FF 7F F0  ...."...R.......
1800: FF FF 7F 73 62 32 30 46  00 45 54 80 F0 FF FF 7F  ...sb20F.ET.....
1810: F0 FF FF 7F 66 64 69 32  01 80 21 00              ....fdi2..!.    
```

#### Opcodes

```
  0: 0x10E4 [0x42] SET_CLI_EVENT_CANCEL_DATA()
  1: 0x10E5 [0x1A] CALL_SUBROUTINE(address=0x22CC)
  2: 0x10E8 [0x46] CAMERA_CONTROL: Disable user control
  3: 0x10EA [0x38] SET_CLIENT_EVENT_MODE(mode=19*)
  4: 0x10ED [0x5D] SET_MUSIC_VOLUME(volume=0*, fade_time=80*)
  5: 0x10F2 [0x1C] WAIT(80* ticks)
  6: 0x10F5 [0x5C] MUSIC_CONTROL: Set Idle (Day) music to song 163*
  7: 0x10F9 [0x5C] MUSIC_CONTROL: Set Idle (Night) music to song 163*
  8: 0x10FD [0x9A] WAIT_MUSIC_SERVER()
  9: 0x10FE [0x92] Gentle Tiger (ID: 17134123/0x0105722B)->Render.Flags3 ^= 0x01
 10: 0x1104 [0x92] Nicolaus (ID: 17134127/0x0105722F)->Render.Flags3 ^= 0x01
 11: 0x110A [0x94] LocalPlayer->Render.Flags3 ^= 0x01
 12: 0x1110 [0x94] Gentle Tiger (ID: 17134123/0x0105722B)->Render.Flags3 ^= 0x01
 13: 0x1116 [0x94] Nicolaus (ID: 17134127/0x0105722F)->Render.Flags3 ^= 0x01
 14: 0x111C [0x4E] SET_ENTITY_HIDE_FLAG: Show LocalPlayer
 15: 0x1122 [0x27] REQ_SET(priority=0x10, entity_id=Gentle Tiger (ID: 17134123/0x0105722B), tag_num=0x04)
 16: 0x1129 [0x27] REQ_SET(priority=0x10, entity_id=Nicolaus (ID: 17134127/0x0105722F), tag_num=0x04)
 17: 0x1130 [0xBA] SET_ENTITY_POSITION(entity_id=LocalPlayer, pos_x=-201.207*, pos_z=5.801*, pos_y=-9.998*, direction=87.6°*)
 18: 0x113D [0xBA] SET_ENTITY_POSITION(entity_id=Gentle Tiger (ID: 17134123/0x0105722B), pos_x=-206.483*, pos_z=2.254*, pos_y=-9.998*, direction=214.6°*)
 19: 0x114A [0xBA] SET_ENTITY_POSITION(entity_id=Nicolaus (ID: 17134127/0x0105722F), pos_x=-201.423*, pos_z=-2.889*, pos_y=-9.998*, direction=243.9°*)
 20: 0x1157 [0x6C] FADE_ENTITY_COLOR(entity_id=Nicolaus (ID: 17134127/0x0105722F), end_alpha=0*, fade_time=1*)
 21: 0x1160 [0x80] LOAD_WAIT(entity=LocalPlayer)
 22: 0x1165 [0x80] LOAD_WAIT(entity=Gentle Tiger (ID: 17134123/0x0105722B))
 23: 0x116A [0x80] LOAD_WAIT(entity=Nicolaus (ID: 17134127/0x0105722F))
 24: 0x116F [0x79] LocalPlayer looks at LocalPlayer (Basic look)
 25: 0x1179 [0x7B] Gentle Tiger (ID: 17134123/0x0105722B) stops talking
 26: 0x117E [0x7B] Nicolaus (ID: 17134127/0x0105722F) stops talking
 27: 0x1183 [0x45] LOAD_SCHEDULED_TASK: Load scheduler "sb02" with entities [LocalPlayer, LocalPlayer], work=[441*, 0*]
 28: 0x1194 [0x1A] CALL_SUBROUTINE(address=0x22AB)
 29: 0x1197 [0x1C] WAIT(255* ticks)
 30: 0x119A [0x27] REQ_SET(priority=0x10, entity_id=LocalPlayer, tag_num=0x47)
 31: 0x11A1 [0x1C] WAIT(10* ticks)
 32: 0x11A4 [0x52] END_LOAD_SCHEDULER: End scheduler "sb02" with entities [LocalPlayer, LocalPlayer], work=441*
 33: 0x11B3 [0x45] LOAD_SCHEDULED_TASK: Load scheduler "sb00" with entities [LocalPlayer, LocalPlayer], work=[441*, 0*]
 34: 0x11C4 [0x1C] WAIT(140* ticks)
 35: 0x11C7 [0x52] END_LOAD_SCHEDULER: End scheduler "sb00" with entities [LocalPlayer, LocalPlayer], work=441*
 36: 0x11D6 [0x45] LOAD_SCHEDULED_TASK: Load scheduler "sb01" with entities [LocalPlayer, LocalPlayer], work=[441*, 0*]
 37: 0x11E7 [0x2A] GET_REQ_LEVEL(level=16, entity_id=LocalPlayer)
 38: 0x11ED [0x1C] WAIT(30* ticks)
 39: 0x11F0 [0x6E] LocalPlayer uses emote 0*
 40: 0x11F7 [0x99] Wait for LocalPlayer animation to complete
 41: 0x11FC [0x1C] WAIT(150* ticks)
 42: 0x11FF [0x52] END_LOAD_SCHEDULER: End scheduler "sb01" with entities [LocalPlayer, LocalPlayer], work=441*
 43: 0x120E [0x45] LOAD_SCHEDULED_TASK: Load scheduler "sb22" with entities [LocalPlayer, LocalPlayer], work=[441*, 0*]
 44: 0x121F [0x27] REQ_SET(priority=0x10, entity_id=??? (ID: 17134130/0x01057232), tag_num=0x13)
 45: 0x1226 [0x2B] Gentle Tiger (ID: 17134123/0x0105722B) [12287*]:
    → "Uwaaah! Goddess have mercy!"
 46: 0x122D [0x23] WAIT_FOR_DIALOG_INTERACTION
 47: 0x122E [0x2A] GET_REQ_LEVEL(level=16, entity_id=??? (ID: 17134130/0x01057232))
 48: 0x1234 [0x1C] WAIT(30* ticks)
 49: 0x1237 [0x52] END_LOAD_SCHEDULER: End scheduler "sb22" with entities [LocalPlayer, LocalPlayer], work=441*
 50: 0x1246 [0x45] LOAD_SCHEDULED_TASK: Load scheduler "sb03" with entities [LocalPlayer, LocalPlayer], work=[441*, 0*]
 51: 0x1257 [0x4A] Gentle Tiger (ID: 17134123/0x0105722B) looks at LocalPlayer
 52: 0x1260 [0x79] Gentle Tiger (ID: 17134123/0x0105722B) looks at LocalPlayer (Basic look)
 53: 0x126A [0x6F] WAIT_FRAME_DELAY: Yield until WaitTime reaches zero
 54: 0x126B [0x76] CHECK_ENTITY_RENDER_FLAGS: Wait until Gentle Tiger (ID: 17134123/0x0105722B) Render.Flags0 and Render.Flags3 conditions are met
 55: 0x1270 [0x66] LOAD_EXT_SCHEDULER_MAIN: Load scheduler "tlk0" with entities [Gentle Tiger (ID: 17134123/0x0105722B), Gentle Tiger (ID: 17134123/0x0105722B)], work=69*
 56: 0x127F [0x2B] Gentle Tiger (ID: 17134123/0x0105722B) [12288*]:
    → "Oh, it's just you, <Player>... Don't sneak up on me like that."
 57: 0x1286 [0x23] WAIT_FOR_DIALOG_INTERACTION
 58: 0x1287 [0x53] WAIT_SCHEDULER_TASK: Wait for scheduler "tlk0" with entities [Gentle Tiger (ID: 17134123/0x0105722B), Gentle Tiger (ID: 17134123/0x0105722B)]
 59: 0x1294 [0x1C] WAIT(30* ticks)
 60: 0x1297 [0x66] LOAD_EXT_SCHEDULER_MAIN: Load scheduler "tlk1" with entities [Gentle Tiger (ID: 17134123/0x0105722B), Gentle Tiger (ID: 17134123/0x0105722B)], work=69*
 61: 0x12A6 [0x1C] WAIT(30* ticks)
 62: 0x12A9 [0x52] END_LOAD_SCHEDULER: End scheduler "sb03" with entities [LocalPlayer, LocalPlayer], work=441*
 63: 0x12B8 [0x45] LOAD_SCHEDULED_TASK: Load scheduler "sb21" with entities [LocalPlayer, LocalPlayer], work=[441*, 0*]
 64: 0x12C9 [0x6E] LocalPlayer uses emote 26*
 65: 0x12D0 [0x99] Wait for LocalPlayer animation to complete
 66: 0x12D5 [0x1C] WAIT(155* ticks)
 67: 0x12D8 [0x52] END_LOAD_SCHEDULER: End scheduler "sb21" with entities [LocalPlayer, LocalPlayer], work=441*
 68: 0x12E7 [0x45] LOAD_SCHEDULED_TASK: Load scheduler "sb04" with entities [LocalPlayer, LocalPlayer], work=[441*, 0*]
 69: 0x12F8 [0x53] WAIT_SCHEDULER_TASK: Wait for scheduler "tlk1" with entities [Gentle Tiger (ID: 17134123/0x0105722B), Gentle Tiger (ID: 17134123/0x0105722B)]
 70: 0x1305 [0x66] LOAD_EXT_SCHEDULER_MAIN: Load scheduler "tlk0" with entities [Gentle Tiger (ID: 17134123/0x0105722B), Gentle Tiger (ID: 17134123/0x0105722B)], work=69*
 71: 0x1314 [0x2B] Gentle Tiger (ID: 17134123/0x0105722B) [12289*]:
    → "H-hey, don't get the wrong idea now. It's not like I'm afraid of having a run-in with Darksteel Hurricane or anything. As a matter of fact, I'd welcome the opportunity to bump into that despicable fiend in a dark alley. Y-yeah...that's right. A-and when I do, I'll send him to dreamland with an authentic Galkan chokehold. He'll be down for the count before he even has a chance to fumble for the hilt of his razor-sharp, blood-stained blade that's rumored to slice through limbs as if they were pumpkin pie... Ahaha...ha... <Ulp>..."
 72: 0x131B [0x23] WAIT_FOR_DIALOG_INTERACTION
 73: 0x131C [0x1C] WAIT(30* ticks)
 74: 0x131F [0x53] WAIT_SCHEDULER_TASK: Wait for scheduler "tlk0" with entities [Gentle Tiger (ID: 17134123/0x0105722B), Gentle Tiger (ID: 17134123/0x0105722B)]
 75: 0x132C [0x66] LOAD_EXT_SCHEDULER_MAIN: Load scheduler "tlk1" with entities [Gentle Tiger (ID: 17134123/0x0105722B), Gentle Tiger (ID: 17134123/0x0105722B)], work=69*
 76: 0x133B [0x5D] SET_MUSIC_VOLUME(volume=0*, fade_time=140*)
 77: 0x1340 [0x1C] WAIT(60* ticks)
 78: 0x1343 [0x79] Gentle Tiger (ID: 17134123/0x0105722B) looks at Nicolaus (ID: 17134127/0x0105722F) (Basic look)
 79: 0x134D [0x1C] WAIT(80* ticks)
 80: 0x1350 [0x5C] MUSIC_CONTROL: Set Idle (Day) music to song 180*
 81: 0x1354 [0x5C] MUSIC_CONTROL: Set Idle (Night) music to song 180*
 82: 0x1358 [0x9A] WAIT_MUSIC_SERVER()
 83: 0x1359 [0x6C] FADE_ENTITY_COLOR(entity_id=Nicolaus (ID: 17134127/0x0105722F), end_alpha=128*, fade_time=1*)
 84: 0x1362 [0x27] REQ_SET(priority=0x10, entity_id=Nicolaus (ID: 17134127/0x0105722F), tag_num=0x0C)
 85: 0x1369 [0x1C] WAIT(10* ticks)
 86: 0x136C [0x52] END_LOAD_SCHEDULER: End scheduler "sb04" with entities [LocalPlayer, LocalPlayer], work=441*
 87: 0x137B [0x45] LOAD_SCHEDULED_TASK: Load scheduler "sb05" with entities [LocalPlayer, LocalPlayer], work=[441*, 0*]
 88: 0x138C [0x4B] UPDATE_ENTITY_YAW(entity=LocalPlayer, yaw=9.6°*)
 89: 0x1393 [0x79] LocalPlayer looks at Nicolaus (ID: 17134127/0x0105722F) (Basic look)
 90: 0x139D [0x1C] WAIT(250* ticks)
 91: 0x13A0 [0x52] END_LOAD_SCHEDULER: End scheduler "sb05" with entities [LocalPlayer, LocalPlayer], work=441*
 92: 0x13AF [0x45] LOAD_SCHEDULED_TASK: Load scheduler "sb06" with entities [LocalPlayer, LocalPlayer], work=[441*, 0*]
 93: 0x13C0 [0x2A] GET_REQ_LEVEL(level=16, entity_id=Nicolaus (ID: 17134127/0x0105722F))
 94: 0x13C6 [0x66] LOAD_EXT_SCHEDULER_MAIN: Load scheduler "tlk0" with entities [Nicolaus (ID: 17134127/0x0105722F), Nicolaus (ID: 17134127/0x0105722F)], work=0*
 95: 0x13D5 [0x2B] Nicolaus (ID: 17134127/0x0105722F) [12290*]:
    → "Ah, <Player>. How goes the investigation? Were you able to unearth any clues pointing towards Darksteel Hurricane?"
 96: 0x13DC [0x23] WAIT_FOR_DIALOG_INTERACTION
 97: 0x13DD [0x53] WAIT_SCHEDULER_TASK: Wait for scheduler "tlk0" with entities [Nicolaus (ID: 17134127/0x0105722F), Nicolaus (ID: 17134127/0x0105722F)]
 98: 0x13EA [0x1C] WAIT(30* ticks)
 99: 0x13ED [0x66] LOAD_EXT_SCHEDULER_MAIN: Load scheduler "ten0" with entities [Nicolaus (ID: 17134127/0x0105722F), Nicolaus (ID: 17134127/0x0105722F)], work=0*
100: 0x13FC [0x52] END_LOAD_SCHEDULER: End scheduler "sb06" with entities [LocalPlayer, LocalPlayer], work=441*
101: 0x140B [0x45] LOAD_SCHEDULED_TASK: Load scheduler "sb07" with entities [LocalPlayer, LocalPlayer], work=[441*, 0*]
102: 0x141C [0x27] REQ_SET(priority=0x10, entity_id=LocalPlayer, tag_num=0x3E)
103: 0x1423 [0x1C] WAIT(180* ticks)
104: 0x1426 [0x1A] CALL_SUBROUTINE(address=0x22CC)
105: 0x1429 [0x52] END_LOAD_SCHEDULER: End scheduler "sb07" with entities [LocalPlayer, LocalPlayer], work=441*
106: 0x1438 [0x27] REQ_SET(priority=0x10, entity_id=LocalPlayer, tag_num=0x3F)
107: 0x143F [0x2A] GET_REQ_LEVEL(level=16, entity_id=LocalPlayer)
108: 0x1445 [0x1C] WAIT(60* ticks)
109: 0x1448 [0x48] [System] [12900*]:
    → "@@"
110: 0x144B [0x23] WAIT_FOR_DIALOG_INTERACTION
111: 0x144C [0x1C] WAIT(60* ticks)
112: 0x144F [0x45] LOAD_SCHEDULED_TASK: Load scheduler "sb08" with entities [LocalPlayer, LocalPlayer], work=[441*, 0*]
113: 0x1460 [0x1A] CALL_SUBROUTINE(address=0x22AB)
114: 0x1463 [0x27] REQ_SET(priority=0x10, entity_id=??? (ID: 17134130/0x01057232), tag_num=0x14)
115: 0x146A [0x2B] Nicolaus (ID: 17134127/0x0105722F) [12291*]:
    → "I see. Impressive detective work as always, <Player>. Now, contingent upon the manner of intelligence we acquire from Blatherix..."
116: 0x1471 [0x23] WAIT_FOR_DIALOG_INTERACTION
117: 0x1472 [0x2A] GET_REQ_LEVEL(level=16, entity_id=??? (ID: 17134130/0x01057232))
118: 0x1478 [0x1C] WAIT(80* ticks)
119: 0x147B [0x29] REQ_SET_WAIT(priority=0x10, entity_id=LocalPlayer, tag_num=0x48)
120: 0x1482 [0x02] IF !(Work_Zone[2] == 1*) GOTO 0x14CB
121: 0x148A [0x52] END_LOAD_SCHEDULER: End scheduler "sb08" with entities [LocalPlayer, LocalPlayer], work=441*
122: 0x1499 [0x45] LOAD_SCHEDULED_TASK: Load scheduler "sb09" with entities [LocalPlayer, LocalPlayer], work=[441*, 0*]
123: 0x14AA [0x6E] LocalPlayer uses emote 22*
124: 0x14B1 [0x99] Wait for LocalPlayer animation to complete
125: 0x14B6 [0x1C] WAIT(180* ticks)
126: 0x14B9 [0x52] END_LOAD_SCHEDULER: End scheduler "sb09" with entities [LocalPlayer, LocalPlayer], work=441*
127: 0x14C8 [0x01] GOTO 0x16CA
128: 0x14CB [0x02] IF !(Work_Zone[2] == 2*) GOTO 0x1514
129: 0x14D3 [0x52] END_LOAD_SCHEDULER: End scheduler "sb08" with entities [LocalPlayer, LocalPlayer], work=441*
130: 0x14E2 [0x45] LOAD_SCHEDULED_TASK: Load scheduler "sb10" with entities [LocalPlayer, LocalPlayer], work=[441*, 0*]
131: 0x14F3 [0x6E] LocalPlayer uses emote 22*
132: 0x14FA [0x99] Wait for LocalPlayer animation to complete
133: 0x14FF [0x1C] WAIT(180* ticks)
134: 0x1502 [0x52] END_LOAD_SCHEDULER: End scheduler "sb10" with entities [LocalPlayer, LocalPlayer], work=441*
135: 0x1511 [0x01] GOTO 0x16CA
136: 0x1514 [0x02] IF !(Work_Zone[2] == 3*) GOTO 0x155D
137: 0x151C [0x52] END_LOAD_SCHEDULER: End scheduler "sb08" with entities [LocalPlayer, LocalPlayer], work=441*
