# 17134070 - Ole

## Common Data

| Field            | Value                       |
|------------------|-----------------------------|
| Zone             | Bastok Markets [S] (ID: 87) |
| Block Size       | 596 bytes                   |
| Total Events     | 21                          |
| References Count | 41                          |

## List of Events

| Event ID                   | Entrypoint   |   Size |   Instructions |
|----------------------------|--------------|--------|----------------|
| [65535](#event-65535)      | 0x0000       |      1 |              1 |
| [160](#event-160)          | 0x0001       |      7 |              2 |
| [65535.1](#event-655351)   | 0x0008       |     25 |              7 |
| [65535.2](#event-655352)   | 0x0021       |     17 |              5 |
| [65535.3](#event-655353)   | 0x0032       |     25 |              7 |
| [65535.4](#event-655354)   | 0x004B       |     19 |              5 |
| [30](#event-30)            | 0x005E       |      7 |              2 |
| [56](#event-56)            | 0x0065       |      9 |              3 |
| [65535.5](#event-655355)   | 0x006E       |     14 |              4 |
| [65535.6](#event-655356)   | 0x007C       |     22 |              6 |
| [65535.7](#event-655357)   | 0x0092       |     31 |              7 |
| [60](#event-60)            | 0x00B1       |      7 |              2 |
| [62](#event-62)            | 0x00B8       |      7 |              2 |
| [78](#event-78)            | 0x00BF       |      7 |              2 |
| [65535.8](#event-655358)   | 0x00C6       |     54 |             12 |
| [65535.9](#event-655359)   | 0x00FC       |      5 |              2 |
| [65535.10](#event-6553510) | 0x0101       |      5 |              2 |
| [65535.11](#event-6553511) | 0x0106       |     13 |              3 |
| [65](#event-65)            | 0x0113       |      7 |              2 |
| [179](#event-179)          | 0x011A       |      7 |              2 |
| [65535.12](#event-6553512) | 0x0121       |     41 |              5 |

## DAT References (imed_data)

|   Index | Hex Value   |   Dec Value |
|---------|-------------|-------------|
|       0 | 0x0032      |          50 |
|       1 | 0x0028      |          40 |
|       2 | 0xFFFCEC9C  |  4294765724 |
|       3 | 0xFFFFF93D  |  4294965565 |
|       4 | 0xFFFFD8F2  |  4294957298 |
|       5 | 0x001E      |          30 |
|       6 | 0x000D      |          13 |
|       7 | 0xFFFCD708  |  4294760200 |
|       8 | 0xFFFFFDBB  |  4294966715 |
|       9 | 0x0019      |          25 |
|      10 | 0xFFFFA2F1  |  4294943473 |
|      11 | 0xFFFFF75D  |  4294965085 |
|      12 | 0xFFFFD8F1  |  4294957297 |
|      13 | 0xFFFFA3F7  |  4294943735 |
|      14 | 0x07EB      |        2027 |
|      15 | 0xFFFB8CE0  |  4294675680 |
|      16 | 0xFFFE4A03  |  4294855171 |
|      17 | 0xFFFFD8EB  |  4294957291 |
|      18 | 0xFFFB9E77  |  4294680183 |
|      19 | 0xFFFE6B23  |  4294863651 |
|      20 | 0xFFFFD8F0  |  4294957296 |
|      21 | 0x000F      |          15 |
|      22 | 0x0015      |          21 |
|      23 | 0xFFFC3B06  |  4294720262 |
|      24 | 0x8433      |       33843 |
|      25 | 0xFFFFF2BA  |  4294963898 |
|      26 | 0xFFFC3404  |  4294718468 |
|      27 | 0x896F      |       35183 |
|      28 | 0xFFFFF510  |  4294964496 |
|      29 | 0xFFFC2E58  |  4294717016 |
|      30 | 0x92ED      |       37613 |
|      31 | 0xFFFFF831  |  4294965297 |
|      32 | 0xFFFC2AE0  |  4294716128 |
|      33 | 0x9E1C      |       40476 |
|      34 | 0xFFFFFC18  |  4294966296 |
|      35 | 0xFFFC275B  |  4294715227 |
|      36 | 0xCEDE      |       52958 |
|      37 | 0x010E      |         270 |
|      38 | 0x00CA      |         202 |
|      39 | 0x002B      |          43 |
|      40 | 0x0009      |           9 |

## Events

### Event 65535

#### Metadata

| Field        | Value   |
|--------------|---------|
| Entrypoint   | 0x0000  |
| Data Size    | 1 bytes |
| Instructions | 1       |

```
      00 01 02 03 04 05 06 07  08 09 0A 0B 0C 0D 0E 0F
      -- -- -- -- -- -- -- --  -- -- -- -- -- -- -- --
0000: 00                                                .               
```

#### Opcodes

```
  0: 0x0000 [0x00] END_REQSTACK()
```

### Event 160

#### Metadata

| Field        | Value   |
|--------------|---------|
| Entrypoint   | 0x0001  |
| Data Size    | 7 bytes |
| Instructions | 2       |

```
      00 01 02 03 04 05 06 07  08 09 0A 0B 0C 0D 0E 0F
      -- -- -- -- -- -- -- --  -- -- -- -- -- -- -- --
0000:    92 01 F8 FF FF 7F 00                            .......        
```

#### Opcodes

```
  0: 0x0001 [0x92] EventEntity->Render.Flags3 ^= 0x01
  1: 0x0007 [0x00] END_REQSTACK()
```

### Event 65535.1

#### Metadata

| Field        | Value    |
|--------------|----------|
| Entrypoint   | 0x0008   |
| Data Size    | 25 bytes |
| Instructions | 7        |

```
      00 01 02 03 04 05 06 07  08 09 0A 0B 0C 0D 0E 0F
      -- -- -- -- -- -- -- --  -- -- -- -- -- -- -- --
0000:                          1C 00 80 32 01 80 1F 00          ...2....
0010: 02 80 03 80 04 80 1F 01  1E D7 71 05 01 1C 05 80  ..........q.....
0020: 00                                                .               
```

#### Opcodes

```
  0: 0x0008 [0x1C] WAIT(50* ticks)
  1: 0x000B [0x32] ExtData[1]->MainSpeed = 40* * 0.1
  2: 0x000E [0x1F] MOVE_ENTITY: EventEntity moves to X=-201.572*, Z=-1.731*, Y=-9.998*
  3: 0x0016 [0x1F] MOVE_ENTITY: Update entity position (mode=1)
  4: 0x0018 [0x1E] EventEntity looks at Gentle Tiger (ID: 17134039/0x010571D7) and starts talking
  5: 0x001D [0x1C] WAIT(30* ticks)
  6: 0x0020 [0x00] END_REQSTACK()
```

### Event 65535.2

#### Metadata

| Field        | Value    |
|--------------|----------|
| Entrypoint   | 0x0021   |
| Data Size    | 17 bytes |
| Instructions | 5        |

```
      00 01 02 03 04 05 06 07  08 09 0A 0B 0C 0D 0E 0F
      -- -- -- -- -- -- -- --  -- -- -- -- -- -- -- --
0020:    1C 05 80 32 06 80 1F  00 07 80 08 80 04 80 1F   ...2...........
0030: 01 00                                             ..              
```

#### Opcodes

```
  0: 0x0021 [0x1C] WAIT(30* ticks)
  1: 0x0024 [0x32] ExtData[1]->MainSpeed = 13* * 0.1
  2: 0x0027 [0x1F] MOVE_ENTITY: EventEntity moves to X=-207.096*, Z=-0.581*, Y=-9.998*
  3: 0x002F [0x1F] MOVE_ENTITY: Update entity position (mode=1)
  4: 0x0031 [0x00] END_REQSTACK()
```

### Event 65535.3

#### Metadata

| Field        | Value    |
|--------------|----------|
| Entrypoint   | 0x0032   |
| Data Size    | 25 bytes |
| Instructions | 7        |

```
      00 01 02 03 04 05 06 07  08 09 0A 0B 0C 0D 0E 0F
      -- -- -- -- -- -- -- --  -- -- -- -- -- -- -- --
0030:       1C 09 80 32 01 80  1F 00 0A 80 0B 80 0C 80    ...2..........
0040: 1F 01 1E CC 71 05 01 1C  05 80 00                 ....q......     
```

#### Opcodes

```
  0: 0x0032 [0x1C] WAIT(25* ticks)
  1: 0x0035 [0x32] ExtData[1]->MainSpeed = 40* * 0.1
  2: 0x0038 [0x1F] MOVE_ENTITY: EventEntity moves to X=-23.823*, Z=-2.211*, Y=-9.999*
  3: 0x0040 [0x1F] MOVE_ENTITY: Update entity position (mode=1)
  4: 0x0042 [0x1E] EventEntity looks at Werner (ID: 17134028/0x010571CC) and starts talking
  5: 0x0047 [0x1C] WAIT(30* ticks)
  6: 0x004A [0x00] END_REQSTACK()
```

### Event 65535.4

#### Metadata

| Field        | Value    |
|--------------|----------|
| Entrypoint   | 0x004B   |
| Data Size    | 19 bytes |
| Instructions | 5        |

```
      00 01 02 03 04 05 06 07  08 09 0A 0B 0C 0D 0E 0F
      -- -- -- -- -- -- -- --  -- -- -- -- -- -- -- --
0040:                                   32 06 80 1F 00             2....
0050: 0D 80 0E 80 0C 80 1F 01  1E F1 71 05 01 00        ..........q...  
```

#### Opcodes

```
  0: 0x004B [0x32] ExtData[1]->MainSpeed = 13* * 0.1
  1: 0x004E [0x1F] MOVE_ENTITY: EventEntity moves to X=-23.561*, Z=2.027*, Y=-9.999*
  2: 0x0056 [0x1F] MOVE_ENTITY: Update entity position (mode=1)
  3: 0x0058 [0x1E] EventEntity looks at Prien (ID: 17134065/0x010571F1) and starts talking
  4: 0x005D [0x00] END_REQSTACK()
```

### Event 30

#### Metadata

| Field        | Value   |
|--------------|---------|
| Entrypoint   | 0x005E  |
| Data Size    | 7 bytes |
| Instructions | 2       |

```
      00 01 02 03 04 05 06 07  08 09 0A 0B 0C 0D 0E 0F
      -- -- -- -- -- -- -- --  -- -- -- -- -- -- -- --
0050:                                            92 01                ..
0060: F8 FF FF 7F 00                                    .....           
```

#### Opcodes

```
  0: 0x005E [0x92] EventEntity->Render.Flags3 ^= 0x01
  1: 0x0064 [0x00] END_REQSTACK()
```

### Event 56

#### Metadata

| Field        | Value   |
|--------------|---------|
| Entrypoint   | 0x0065  |
| Data Size    | 9 bytes |
| Instructions | 3       |

```
      00 01 02 03 04 05 06 07  08 09 0A 0B 0C 0D 0E 0F
      -- -- -- -- -- -- -- --  -- -- -- -- -- -- -- --
0060:                92 01 F8  FF FF 7F A4 01 00             .........  
```

#### Opcodes

```
  0: 0x0065 [0x92] EventEntity->Render.Flags3 ^= 0x01
  1: 0x006B [0xA4] EventEntity->Flags3.unknown_3_2 = 1
  2: 0x006D [0x00] END_REQSTACK()
```

### Event 65535.5

#### Metadata

| Field        | Value    |
|--------------|----------|
| Entrypoint   | 0x006E   |
| Data Size    | 14 bytes |
| Instructions | 4        |

```
      00 01 02 03 04 05 06 07  08 09 0A 0B 0C 0D 0E 0F
      -- -- -- -- -- -- -- --  -- -- -- -- -- -- -- --
0060:                                            32 01                2.
0070: 80 1F 00 0F 80 10 80 11  80 1F 01 00              ............    
```

#### Opcodes

```
  0: 0x006E [0x32] ExtData[1]->MainSpeed = 40* * 0.1
  1: 0x0071 [0x1F] MOVE_ENTITY: EventEntity moves to X=-291.616*, Z=-112.125*, Y=-10.005*
  2: 0x0079 [0x1F] MOVE_ENTITY: Update entity position (mode=1)
  3: 0x007B [0x00] END_REQSTACK()
```

### Event 65535.6

#### Metadata

| Field        | Value    |
|--------------|----------|
| Entrypoint   | 0x007C   |
| Data Size    | 22 bytes |
| Instructions | 6        |

```
      00 01 02 03 04 05 06 07  08 09 0A 0B 0C 0D 0E 0F
      -- -- -- -- -- -- -- --  -- -- -- -- -- -- -- --
0070:                                      32 01 80 1F              2...
0080: 00 12 80 13 80 14 80 1F  01 1E F4 71 05 01 1C 05  ...........q....
0090: 80 00                                             ..              
```

#### Opcodes

```
  0: 0x007C [0x32] ExtData[1]->MainSpeed = 40* * 0.1
  1: 0x007F [0x1F] MOVE_ENTITY: EventEntity moves to X=-287.113*, Z=-103.645*, Y=-10.000*
  2: 0x0087 [0x1F] MOVE_ENTITY: Update entity position (mode=1)
  3: 0x0089 [0x1E] EventEntity looks at Five Moons (ID: 17134068/0x010571F4) and starts talking
  4: 0x008E [0x1C] WAIT(30* ticks)
  5: 0x0091 [0x00] END_REQSTACK()
```

### Event 65535.7

#### Metadata

| Field        | Value    |
|--------------|----------|
| Entrypoint   | 0x0092   |
| Data Size    | 31 bytes |
| Instructions | 7        |

```
      00 01 02 03 04 05 06 07  08 09 0A 0B 0C 0D 0E 0F
      -- -- -- -- -- -- -- --  -- -- -- -- -- -- -- --
0090:       1C 15 80 6E F6 71  05 01 16 80 99 F6 71 05    ...n.q......q.
00A0: 01 1C 05 80 6E F7 71 05  01 16 80 99 F7 71 05 01  ....n.q......q..
00B0: 00                                                .               
```

#### Opcodes

```
  0: 0x0092 [0x1C] WAIT(15* ticks)
  1: 0x0095 [0x6E] Ole (ID: 17134070/0x010571F6) uses emote 21*
  2: 0x009C [0x99] Wait for Ole (ID: 17134070/0x010571F6) animation to complete
  3: 0x00A1 [0x1C] WAIT(30* ticks)
  4: 0x00A4 [0x6E] Unnamed NPC (ID: 17134071/0x010571F7) uses emote 21*
  5: 0x00AB [0x99] Wait for Unnamed NPC (ID: 17134071/0x010571F7) animation to complete
  6: 0x00B0 [0x00] END_REQSTACK()
```

### Event 60

#### Metadata

| Field        | Value   |
|--------------|---------|
| Entrypoint   | 0x00B1  |
| Data Size    | 7 bytes |
| Instructions | 2       |

```
      00 01 02 03 04 05 06 07  08 09 0A 0B 0C 0D 0E 0F
      -- -- -- -- -- -- -- --  -- -- -- -- -- -- -- --
00B0:    92 01 F8 FF FF 7F 00                            .......        
```

#### Opcodes

```
  0: 0x00B1 [0x92] EventEntity->Render.Flags3 ^= 0x01
  1: 0x00B7 [0x00] END_REQSTACK()
```

### Event 62

#### Metadata

| Field        | Value   |
|--------------|---------|
| Entrypoint   | 0x00B8  |
| Data Size    | 7 bytes |
| Instructions | 2       |

```
      00 01 02 03 04 05 06 07  08 09 0A 0B 0C 0D 0E 0F
      -- -- -- -- -- -- -- --  -- -- -- -- -- -- -- --
00B0:                          92 01 F8 FF FF 7F 00             ....... 
```

#### Opcodes

```
  0: 0x00B8 [0x92] EventEntity->Render.Flags3 ^= 0x01
  1: 0x00BE [0x00] END_REQSTACK()
```

### Event 78

#### Metadata

| Field        | Value   |
|--------------|---------|
| Entrypoint   | 0x00BF  |
| Data Size    | 7 bytes |
| Instructions | 2       |

```
      00 01 02 03 04 05 06 07  08 09 0A 0B 0C 0D 0E 0F
      -- -- -- -- -- -- -- --  -- -- -- -- -- -- -- --
00B0:                                               92                 .
00C0: 01 F8 FF FF 7F 00                                 ......          
```

#### Opcodes

```
  0: 0x00BF [0x92] EventEntity->Render.Flags3 ^= 0x01
  1: 0x00C5 [0x00] END_REQSTACK()
```

### Event 65535.8

#### Metadata

| Field        | Value    |
|--------------|----------|
| Entrypoint   | 0x00C6   |
| Data Size    | 54 bytes |
| Instructions | 12       |

```
      00 01 02 03 04 05 06 07  08 09 0A 0B 0C 0D 0E 0F
      -- -- -- -- -- -- -- --  -- -- -- -- -- -- -- --
00C0:                   32 01  80 1F 00 17 80 18 80 19        2.........
00D0: 80 1F 01 1F 00 1A 80 1B  80 1C 80 1F 01 1F 00 1D  ................
00E0: 80 1E 80 1F 80 1F 01 1F  00 20 80 21 80 22 80 1F  ......... .!."..
00F0: 01 1F 00 23 80 24 80 22  80 1F 01 00              ...#.$."....    
```

#### Opcodes

```
  0: 0x00C6 [0x32] ExtData[1]->MainSpeed = 40* * 0.1
  1: 0x00C9 [0x1F] MOVE_ENTITY: EventEntity moves to X=-247.034*, Z=33.843*, Y=-3.398*
  2: 0x00D1 [0x1F] MOVE_ENTITY: Update entity position (mode=1)
  3: 0x00D3 [0x1F] MOVE_ENTITY: EventEntity moves to X=-248.828*, Z=35.183*, Y=-2.800*
  4: 0x00DB [0x1F] MOVE_ENTITY: Update entity position (mode=1)
  5: 0x00DD [0x1F] MOVE_ENTITY: EventEntity moves to X=-250.280*, Z=37.613*, Y=-1.999*
  6: 0x00E5 [0x1F] MOVE_ENTITY: Update entity position (mode=1)
  7: 0x00E7 [0x1F] MOVE_ENTITY: EventEntity moves to X=-251.168*, Z=40.476*, Y=-1.000*
  8: 0x00EF [0x1F] MOVE_ENTITY: Update entity position (mode=1)
  9: 0x00F1 [0x1F] MOVE_ENTITY: EventEntity moves to X=-252.069*, Z=52.958*, Y=-1.000*
 10: 0x00F9 [0x1F] MOVE_ENTITY: Update entity position (mode=1)
 11: 0x00FB [0x00] END_REQSTACK()
```

### Event 65535.9

#### Metadata

| Field        | Value   |
|--------------|---------|
| Entrypoint   | 0x00FC  |
| Data Size    | 5 bytes |
| Instructions | 2       |

```
      00 01 02 03 04 05 06 07  08 09 0A 0B 0C 0D 0E 0F
      -- -- -- -- -- -- -- --  -- -- -- -- -- -- -- --
00F0:                                      B6 08 25 80              ..%.
0100: 00                                                .               
```

#### Opcodes

```
  0: 0x00FC [0xB6] ENTITY_APPEARANCE_HANDLER(case=Main, value=270*)
  1: 0x0100 [0x00] END_REQSTACK()
```

### Event 65535.10

#### Metadata

| Field        | Value   |
|--------------|---------|
| Entrypoint   | 0x0101  |
| Data Size    | 5 bytes |
| Instructions | 2       |

```
      00 01 02 03 04 05 06 07  08 09 0A 0B 0C 0D 0E 0F
      -- -- -- -- -- -- -- --  -- -- -- -- -- -- -- --
0100:    B6 08 26 80 00                                  ..&..          
```

#### Opcodes

```
  0: 0x0101 [0xB6] ENTITY_APPEARANCE_HANDLER(case=Main, value=202*)
  1: 0x0105 [0x00] END_REQSTACK()
```

### Event 65535.11

#### Metadata

| Field        | Value    |
|--------------|----------|
| Entrypoint   | 0x0106   |
| Data Size    | 13 bytes |
| Instructions | 3        |

```
      00 01 02 03 04 05 06 07  08 09 0A 0B 0C 0D 0E 0F
      -- -- -- -- -- -- -- --  -- -- -- -- -- -- -- --
0100:                   6E F8  FF FF 7F 27 80 99 F8 FF        n....'....
0110: FF 7F 00                                          ...             
```

#### Opcodes

```
  0: 0x0106 [0x6E] EventEntity uses emote 43*
  1: 0x010D [0x99] Wait for EventEntity animation to complete
  2: 0x0112 [0x00] END_REQSTACK()
```

### Event 65

#### Metadata

| Field        | Value   |
|--------------|---------|
| Entrypoint   | 0x0113  |
| Data Size    | 7 bytes |
| Instructions | 2       |

```
      00 01 02 03 04 05 06 07  08 09 0A 0B 0C 0D 0E 0F
      -- -- -- -- -- -- -- --  -- -- -- -- -- -- -- --
0110:          92 01 F8 FF FF  7F 00                       .......      
```

#### Opcodes

```
  0: 0x0113 [0x92] EventEntity->Render.Flags3 ^= 0x01
  1: 0x0119 [0x00] END_REQSTACK()
```

### Event 179

#### Metadata

| Field        | Value   |
|--------------|---------|
| Entrypoint   | 0x011A  |
| Data Size    | 7 bytes |
| Instructions | 2       |

```
      00 01 02 03 04 05 06 07  08 09 0A 0B 0C 0D 0E 0F
      -- -- -- -- -- -- -- --  -- -- -- -- -- -- -- --
0110:                                92 01 F8 FF FF 7F            ......
0120: 00                                                .               
```

#### Opcodes

```
  0: 0x011A [0x92] EventEntity->Render.Flags3 ^= 0x01
  1: 0x0120 [0x00] END_REQSTACK()
```

### Event 65535.12

#### Metadata

| Field        | Value    |
|--------------|----------|
| Entrypoint   | 0x0121   |
| Data Size    | 41 bytes |
| Instructions | 5        |

```
      00 01 02 03 04 05 06 07  08 09 0A 0B 0C 0D 0E 0F
      -- -- -- -- -- -- -- --  -- -- -- -- -- -- -- --
0120:    66 28 80 F6 71 05 01  F6 71 05 01 73 68 61 31   f(..q...q..sha1
0130: 53 F6 71 05 01 F6 71 05  01 73 68 61 31 4A F6 71  S.q...q..sha1J.q
0140: 05 01 F5 71 05 01 1C 05  80 00                    ...q......      
```

#### Opcodes

```
  0: 0x0121 [0x66] LOAD_EXT_SCHEDULER_MAIN: Load scheduler "sha1" with entities [Ole (ID: 17134070/0x010571F6), Ole (ID: 17134070/0x010571F6)], work=9*
  1: 0x0130 [0x53] WAIT_SCHEDULER_TASK: Wait for scheduler "sha1" with entities [Ole (ID: 17134070/0x010571F6), Ole (ID: 17134070/0x010571F6)]
  2: 0x013D [0x4A] Ole (ID: 17134070/0x010571F6) looks at Dieter (ID: 17134069/0x010571F5)
  3: 0x0146 [0x1C] WAIT(30* ticks)
  4: 0x0149 [0x00] END_REQSTACK()
```
