# 17134069 - Dieter

## Common Data

| Field            | Value                       |
|------------------|-----------------------------|
| Zone             | Bastok Markets [S] (ID: 87) |
| Block Size       | 756 bytes                   |
| Total Events     | 24                          |
| References Count | 57                          |

## List of Events

| Event ID                   | Entrypoint   |   Size |   Instructions |
|----------------------------|--------------|--------|----------------|
| [65535](#event-65535)      | 0x0000       |      1 |              1 |
| [160](#event-160)          | 0x0001       |      7 |              2 |
| [65535.1](#event-655351)   | 0x0008       |     25 |              7 |
| [65535.2](#event-655352)   | 0x0021       |     22 |              6 |
| [65535.3](#event-655353)   | 0x0037       |     17 |              5 |
| [65535.4](#event-655354)   | 0x0048       |     25 |              7 |
| [65535.5](#event-655355)   | 0x0061       |     19 |              5 |
| [30](#event-30)            | 0x0074       |      1 |              1 |
| [56](#event-56)            | 0x0075       |      9 |              3 |
| [65535.6](#event-655356)   | 0x007E       |     14 |              4 |
| [65535.7](#event-655357)   | 0x008C       |     37 |              9 |
| [65535.8](#event-655358)   | 0x00B1       |     22 |              6 |
| [65535.9](#event-655359)   | 0x00C7       |     40 |              8 |
| [65535.10](#event-6553510) | 0x00EF       |     14 |              4 |
| [60](#event-60)            | 0x00FD       |      9 |              3 |
| [62](#event-62)            | 0x0106       |      7 |              2 |
| [78](#event-78)            | 0x010D       |      7 |              2 |
| [65535.11](#event-6553511) | 0x0114       |     54 |             12 |
| [65535.12](#event-6553512) | 0x014A       |     14 |              4 |
| [65535.13](#event-6553513) | 0x0158       |     22 |              6 |
| [65535.14](#event-6553514) | 0x016E       |     13 |              3 |
| [65](#event-65)            | 0x017B       |      7 |              2 |
| [179](#event-179)          | 0x0182       |      7 |              2 |
| [65535.15](#event-6553515) | 0x0189       |     21 |              3 |

## DAT References (imed_data)

|   Index | Hex Value   |   Dec Value |
|---------|-------------|-------------|
|       0 | 0x0019      |          25 |
|       1 | 0x0028      |          40 |
|       2 | 0xFFFCEF87  |  4294766471 |
|       3 | 0xFFFFFC72  |  4294966386 |
|       4 | 0xFFFFD8F2  |  4294957298 |
|       5 | 0x001E      |          30 |
|       6 | 0x000D      |          13 |
|       7 | 0xFFFCF017  |  4294766615 |
|       8 | 0x01D5      |         469 |
|       9 | 0x0005      |           5 |
|      10 | 0xFFFCD5D6  |  4294759894 |
|      11 | 0x0219      |         537 |
|      12 | 0x000A      |          10 |
|      13 | 0xFFFFA3BA  |  4294943674 |
|      14 | 0xFFFFFD2C  |  4294966572 |
|      15 | 0xFFFFD8F1  |  4294957297 |
|      16 | 0xFFFFA013  |  4294942739 |
|      17 | 0x0799      |        1945 |
|      18 | 0xFFFB9552  |  4294677842 |
|      19 | 0xFFFE4C49  |  4294855753 |
|      20 | 0xFFFFD8F0  |  4294957296 |
|      21 | 0xFFFBA466  |  4294681702 |
|      22 | 0xFFFE6C14  |  4294863892 |
|      23 | 0x0000      |           0 |
|      24 | 0x005A      |          90 |
|      25 | 0xFFFBB4FF  |  4294685951 |
|      26 | 0xFFFE8EDB  |  4294872795 |
|      27 | 0xFFFFD120  |  4294955296 |
|      28 | 0xFFFBB3F8  |  4294685688 |
|      29 | 0xFFFE9384  |  4294873988 |
|      30 | 0xFFFFD121  |  4294955297 |
|      31 | 0x0009      |           9 |
|      32 | 0x003C      |          60 |
|      33 | 0xFFFB9656  |  4294678102 |
|      34 | 0xFFFEA7EC  |  4294879212 |
|      35 | 0xFFFC39AF  |  4294719919 |
|      36 | 0x7E0F      |       32271 |
|      37 | 0xFFFFF2BA  |  4294963898 |
|      38 | 0xFFFC2F28  |  4294717224 |
|      39 | 0x8565      |       34149 |
|      40 | 0xFFFFF510  |  4294964496 |
|      41 | 0xFFFC2704  |  4294715140 |
|      42 | 0x9103      |       37123 |
|      43 | 0xFFFFF8F8  |  4294965496 |
|      44 | 0xFFFC2755  |  4294715221 |
|      45 | 0x9F29      |       40745 |
|      46 | 0xFFFFFC18  |  4294966296 |
|      47 | 0xFFFC2432  |  4294714418 |
|      48 | 0xD05D      |       53341 |
|      49 | 0xFFFC9420  |  4294743072 |
|      50 | 0x10AD5     |       68309 |
|      51 | 0xFFFFFAF1  |  4294966001 |
|      52 | 0xFFFC9634  |  4294743604 |
|      53 | 0xF719      |       63257 |
|      54 | 0xFFFFF830  |  4294965296 |
|      55 | 0x002B      |          43 |
|      56 | 0x00C8      |         200 |

## Events

### Event 65535

#### Metadata

| Field        | Value   |
|--------------|---------|
| Entrypoint   | 0x0000  |
| Data Size    | 1 bytes |
| Instructions | 1       |

```
      00 01 02 03 04 05 06 07  08 09 0A 0B 0C 0D 0E 0F
      -- -- -- -- -- -- -- --  -- -- -- -- -- -- -- --
0000: 00                                                .               
```

#### Opcodes

```
  0: 0x0000 [0x00] END_REQSTACK()
```

### Event 160

#### Metadata

| Field        | Value   |
|--------------|---------|
| Entrypoint   | 0x0001  |
| Data Size    | 7 bytes |
| Instructions | 2       |

```
      00 01 02 03 04 05 06 07  08 09 0A 0B 0C 0D 0E 0F
      -- -- -- -- -- -- -- --  -- -- -- -- -- -- -- --
0000:    92 01 F8 FF FF 7F 00                            .......        
```

#### Opcodes

```
  0: 0x0001 [0x92] EventEntity->Render.Flags3 ^= 0x01
  1: 0x0007 [0x00] END_REQSTACK()
```

### Event 65535.1

#### Metadata

| Field        | Value    |
|--------------|----------|
| Entrypoint   | 0x0008   |
| Data Size    | 25 bytes |
| Instructions | 7        |

```
      00 01 02 03 04 05 06 07  08 09 0A 0B 0C 0D 0E 0F
      -- -- -- -- -- -- -- --  -- -- -- -- -- -- -- --
0000:                          1C 00 80 32 01 80 1F 00          ...2....
0010: 02 80 03 80 04 80 1F 01  1E D7 71 05 01 1C 05 80  ..........q.....
0020: 00                                                .               
```

#### Opcodes

```
  0: 0x0008 [0x1C] WAIT(25* ticks)
  1: 0x000B [0x32] ExtData[1]->MainSpeed = 40* * 0.1
  2: 0x000E [0x1F] MOVE_ENTITY: EventEntity moves to X=-200.825*, Z=-0.910*, Y=-9.998*
  3: 0x0016 [0x1F] MOVE_ENTITY: Update entity position (mode=1)
  4: 0x0018 [0x1E] EventEntity looks at Gentle Tiger (ID: 17134039/0x010571D7) and starts talking
  5: 0x001D [0x1C] WAIT(30* ticks)
  6: 0x0020 [0x00] END_REQSTACK()
```

### Event 65535.2

#### Metadata

| Field        | Value    |
|--------------|----------|
| Entrypoint   | 0x0021   |
| Data Size    | 22 bytes |
| Instructions | 6        |

```
      00 01 02 03 04 05 06 07  08 09 0A 0B 0C 0D 0E 0F
      -- -- -- -- -- -- -- --  -- -- -- -- -- -- -- --
0020:    32 06 80 1F 00 07 80  08 80 04 80 1F 01 1E F0   2..............
0030: FF FF 7F 1C 05 80 00                              .......         
```

#### Opcodes

```
  0: 0x0021 [0x32] ExtData[1]->MainSpeed = 13* * 0.1
  1: 0x0024 [0x1F] MOVE_ENTITY: EventEntity moves to X=-200.681*, Z=0.469*, Y=-9.998*
  2: 0x002C [0x1F] MOVE_ENTITY: Update entity position (mode=1)
  3: 0x002E [0x1E] EventEntity looks at LocalPlayer and starts talking
  4: 0x0033 [0x1C] WAIT(30* ticks)
  5: 0x0036 [0x00] END_REQSTACK()
```

### Event 65535.3

#### Metadata

| Field        | Value    |
|--------------|----------|
| Entrypoint   | 0x0037   |
| Data Size    | 17 bytes |
| Instructions | 5        |

```
      00 01 02 03 04 05 06 07  08 09 0A 0B 0C 0D 0E 0F
      -- -- -- -- -- -- -- --  -- -- -- -- -- -- -- --
0030:                      1C  09 80 32 06 80 1F 00 0A         ...2.....
0040: 80 0B 80 04 80 1F 01 00                           ........        
```

#### Opcodes

```
  0: 0x0037 [0x1C] WAIT(5* ticks)
  1: 0x003A [0x32] ExtData[1]->MainSpeed = 13* * 0.1
  2: 0x003D [0x1F] MOVE_ENTITY: EventEntity moves to X=-207.402*, Z=0.537*, Y=-9.998*
  3: 0x0045 [0x1F] MOVE_ENTITY: Update entity position (mode=1)
  4: 0x0047 [0x00] END_REQSTACK()
```

### Event 65535.4

#### Metadata

| Field        | Value    |
|--------------|----------|
| Entrypoint   | 0x0048   |
| Data Size    | 25 bytes |
| Instructions | 7        |

```
      00 01 02 03 04 05 06 07  08 09 0A 0B 0C 0D 0E 0F
      -- -- -- -- -- -- -- --  -- -- -- -- -- -- -- --
0040:                          1C 0C 80 32 01 80 1F 00          ...2....
0050: 0D 80 0E 80 0F 80 1F 01  1E CC 71 05 01 1C 05 80  ..........q.....
0060: 00                                                .               
```

#### Opcodes

```
  0: 0x0048 [0x1C] WAIT(10* ticks)
  1: 0x004B [0x32] ExtData[1]->MainSpeed = 40* * 0.1
  2: 0x004E [0x1F] MOVE_ENTITY: EventEntity moves to X=-23.622*, Z=-0.724*, Y=-9.999*
  3: 0x0056 [0x1F] MOVE_ENTITY: Update entity position (mode=1)
  4: 0x0058 [0x1E] EventEntity looks at Werner (ID: 17134028/0x010571CC) and starts talking
  5: 0x005D [0x1C] WAIT(30* ticks)
  6: 0x0060 [0x00] END_REQSTACK()
```

### Event 65535.5

#### Metadata

| Field        | Value    |
|--------------|----------|
| Entrypoint   | 0x0061   |
| Data Size    | 19 bytes |
| Instructions | 5        |

```
      00 01 02 03 04 05 06 07  08 09 0A 0B 0C 0D 0E 0F
      -- -- -- -- -- -- -- --  -- -- -- -- -- -- -- --
0060:    32 06 80 1F 00 10 80  11 80 0F 80 1F 01 1E F1   2..............
0070: 71 05 01 00                                       q...            
```

#### Opcodes

```
  0: 0x0061 [0x32] ExtData[1]->MainSpeed = 13* * 0.1
  1: 0x0064 [0x1F] MOVE_ENTITY: EventEntity moves to X=-24.557*, Z=1.945*, Y=-9.999*
  2: 0x006C [0x1F] MOVE_ENTITY: Update entity position (mode=1)
  3: 0x006E [0x1E] EventEntity looks at Prien (ID: 17134065/0x010571F1) and starts talking
  4: 0x0073 [0x00] END_REQSTACK()
```

### Event 30

#### Metadata

| Field        | Value   |
|--------------|---------|
| Entrypoint   | 0x0074  |
| Data Size    | 1 bytes |
| Instructions | 1       |

```
      00 01 02 03 04 05 06 07  08 09 0A 0B 0C 0D 0E 0F
      -- -- -- -- -- -- -- --  -- -- -- -- -- -- -- --
0070:             00                                        .           
```

#### Opcodes

```
  0: 0x0074 [0x00] END_REQSTACK()
```

### Event 56

#### Metadata

| Field        | Value   |
|--------------|---------|
| Entrypoint   | 0x0075  |
| Data Size    | 9 bytes |
| Instructions | 3       |

```
      00 01 02 03 04 05 06 07  08 09 0A 0B 0C 0D 0E 0F
      -- -- -- -- -- -- -- --  -- -- -- -- -- -- -- --
0070:                92 01 F8  FF FF 7F A4 01 00             .........  
```

#### Opcodes

```
  0: 0x0075 [0x92] EventEntity->Render.Flags3 ^= 0x01
  1: 0x007B [0xA4] EventEntity->Flags3.unknown_3_2 = 1
  2: 0x007D [0x00] END_REQSTACK()
```

### Event 65535.6

#### Metadata

| Field        | Value    |
|--------------|----------|
| Entrypoint   | 0x007E   |
| Data Size    | 14 bytes |
| Instructions | 4        |

```
      00 01 02 03 04 05 06 07  08 09 0A 0B 0C 0D 0E 0F
      -- -- -- -- -- -- -- --  -- -- -- -- -- -- -- --
0070:                                            32 01                2.
0080: 80 1F 00 12 80 13 80 14  80 1F 01 00              ............    
```

#### Opcodes

```
  0: 0x007E [0x32] ExtData[1]->MainSpeed = 40* * 0.1
  1: 0x0081 [0x1F] MOVE_ENTITY: EventEntity moves to X=-289.454*, Z=-111.543*, Y=-10.000*
  2: 0x0089 [0x1F] MOVE_ENTITY: Update entity position (mode=1)
  3: 0x008B [0x00] END_REQSTACK()
```

### Event 65535.7

#### Metadata

| Field        | Value    |
|--------------|----------|
| Entrypoint   | 0x008C   |
| Data Size    | 37 bytes |
| Instructions | 9        |

```
      00 01 02 03 04 05 06 07  08 09 0A 0B 0C 0D 0E 0F
      -- -- -- -- -- -- -- --  -- -- -- -- -- -- -- --
0080:                                      32 01 80 1F              2...
0090: 00 15 80 16 80 14 80 1F  01 1E F4 71 05 01 1C 05  ...........q....
00A0: 80 6E F5 71 05 01 17 80  99 F5 71 05 01 1C 18 80  .n.q......q.....
00B0: 00                                                .               
```

#### Opcodes

```
  0: 0x008C [0x32] ExtData[1]->MainSpeed = 40* * 0.1
  1: 0x008F [0x1F] MOVE_ENTITY: EventEntity moves to X=-285.594*, Z=-103.404*, Y=-10.000*
  2: 0x0097 [0x1F] MOVE_ENTITY: Update entity position (mode=1)
  3: 0x0099 [0x1E] EventEntity looks at Five Moons (ID: 17134068/0x010571F4) and starts talking
  4: 0x009E [0x1C] WAIT(30* ticks)
  5: 0x00A1 [0x6E] Dieter (ID: 17134069/0x010571F5) uses emote 0*
  6: 0x00A8 [0x99] Wait for Dieter (ID: 17134069/0x010571F5) animation to complete
  7: 0x00AD [0x1C] WAIT(90* ticks)
  8: 0x00B0 [0x00] END_REQSTACK()
```

### Event 65535.8

#### Metadata

| Field        | Value    |
|--------------|----------|
| Entrypoint   | 0x00B1   |
| Data Size    | 22 bytes |
| Instructions | 6        |

```
      00 01 02 03 04 05 06 07  08 09 0A 0B 0C 0D 0E 0F
      -- -- -- -- -- -- -- --  -- -- -- -- -- -- -- --
00B0:    32 06 80 1F 00 19 80  1A 80 1B 80 1F 01 1E F3   2..............
00C0: 71 05 01 1C 05 80 00                              q......         
```

#### Opcodes

```
  0: 0x00B1 [0x32] ExtData[1]->MainSpeed = 13* * 0.1
  1: 0x00B4 [0x1F] MOVE_ENTITY: EventEntity moves to X=-281.345*, Z=-94.501*, Y=-12.000*
  2: 0x00BC [0x1F] MOVE_ENTITY: Update entity position (mode=1)
  3: 0x00BE [0x1E] EventEntity looks at Nicolaus (ID: 17134067/0x010571F3) and starts talking
  4: 0x00C3 [0x1C] WAIT(30* ticks)
  5: 0x00C6 [0x00] END_REQSTACK()
```

### Event 65535.9

#### Metadata

| Field        | Value    |
|--------------|----------|
| Entrypoint   | 0x00C7   |
| Data Size    | 40 bytes |
| Instructions | 8        |

```
      00 01 02 03 04 05 06 07  08 09 0A 0B 0C 0D 0E 0F
      -- -- -- -- -- -- -- --  -- -- -- -- -- -- -- --
00C0:                      32  06 80 1F 00 1C 80 1D 80         2........
00D0: 1E 80 1F 01 1E 57 72 05  01 1C 05 80 66 1F 80 F5  .....Wr.....f...
00E0: 71 05 01 F5 71 05 01 74  6C 6B 30 1C 20 80 00     q...q..tlk0. .. 
```

#### Opcodes

```
  0: 0x00C7 [0x32] ExtData[1]->MainSpeed = 13* * 0.1
  1: 0x00CA [0x1F] MOVE_ENTITY: EventEntity moves to X=-281.608*, Z=-93.308*, Y=-11.999*
  2: 0x00D2 [0x1F] MOVE_ENTITY: Update entity position (mode=1)
  3: 0x00D4 [0x1E] EventEntity looks at Derek Karst (ID: 17134167/0x01057257) and starts talking
  4: 0x00D9 [0x1C] WAIT(30* ticks)
  5: 0x00DC [0x66] LOAD_EXT_SCHEDULER_MAIN: Load scheduler "tlk0" with entities [Dieter (ID: 17134069/0x010571F5), Dieter (ID: 17134069/0x010571F5)], work=9*
  6: 0x00EB [0x1C] WAIT(60* ticks)
  7: 0x00EE [0x00] END_REQSTACK()
```

### Event 65535.10

#### Metadata

| Field        | Value    |
|--------------|----------|
| Entrypoint   | 0x00EF   |
| Data Size    | 14 bytes |
| Instructions | 4        |

```
      00 01 02 03 04 05 06 07  08 09 0A 0B 0C 0D 0E 0F
      -- -- -- -- -- -- -- --  -- -- -- -- -- -- -- --
00E0:                                               32                 2
00F0: 06 80 1F 00 21 80 22 80  1B 80 1F 01 00           ....!."......   
```

#### Opcodes

```
  0: 0x00EF [0x32] ExtData[1]->MainSpeed = 13* * 0.1
  1: 0x00F2 [0x1F] MOVE_ENTITY: EventEntity moves to X=-289.194*, Z=-88.084*, Y=-12.000*
  2: 0x00FA [0x1F] MOVE_ENTITY: Update entity position (mode=1)
  3: 0x00FC [0x00] END_REQSTACK()
```

### Event 60

#### Metadata

| Field        | Value   |
|--------------|---------|
| Entrypoint   | 0x00FD  |
| Data Size    | 9 bytes |
| Instructions | 3       |

```
      00 01 02 03 04 05 06 07  08 09 0A 0B 0C 0D 0E 0F
      -- -- -- -- -- -- -- --  -- -- -- -- -- -- -- --
00F0:                                         92 01 F8               ...
0100: FF FF 7F A4 01 00                                 ......          
```

#### Opcodes

```
  0: 0x00FD [0x92] EventEntity->Render.Flags3 ^= 0x01
  1: 0x0103 [0xA4] EventEntity->Flags3.unknown_3_2 = 1
  2: 0x0105 [0x00] END_REQSTACK()
```

### Event 62

#### Metadata

| Field        | Value   |
|--------------|---------|
| Entrypoint   | 0x0106  |
| Data Size    | 7 bytes |
| Instructions | 2       |

```
      00 01 02 03 04 05 06 07  08 09 0A 0B 0C 0D 0E 0F
      -- -- -- -- -- -- -- --  -- -- -- -- -- -- -- --
0100:                   92 01  F8 FF FF 7F 00                 .......   
```

#### Opcodes

```
  0: 0x0106 [0x92] EventEntity->Render.Flags3 ^= 0x01
  1: 0x010C [0x00] END_REQSTACK()
```

### Event 78

#### Metadata

| Field        | Value   |
|--------------|---------|
| Entrypoint   | 0x010D  |
| Data Size    | 7 bytes |
| Instructions | 2       |

```
      00 01 02 03 04 05 06 07  08 09 0A 0B 0C 0D 0E 0F
      -- -- -- -- -- -- -- --  -- -- -- -- -- -- -- --
0100:                                         92 01 F8               ...
0110: FF FF 7F 00                                       ....            
```

#### Opcodes

```
  0: 0x010D [0x92] EventEntity->Render.Flags3 ^= 0x01
  1: 0x0113 [0x00] END_REQSTACK()
```

### Event 65535.11

#### Metadata

| Field        | Value    |
|--------------|----------|
| Entrypoint   | 0x0114   |
| Data Size    | 54 bytes |
| Instructions | 12       |

```
      00 01 02 03 04 05 06 07  08 09 0A 0B 0C 0D 0E 0F
      -- -- -- -- -- -- -- --  -- -- -- -- -- -- -- --
0110:             32 01 80 1F  00 23 80 24 80 25 80 1F      2....#.$.%..
0120: 01 1F 00 26 80 27 80 28  80 1F 01 1F 00 29 80 2A  ...&.'.(.....).*
0130: 80 2B 80 1F 01 1F 00 2C  80 2D 80 2E 80 1F 01 1F  .+.....,.-......
0140: 00 2F 80 30 80 2E 80 1F  01 00                    ./.0......      
```

#### Opcodes

```
  0: 0x0114 [0x32] ExtData[1]->MainSpeed = 40* * 0.1
  1: 0x0117 [0x1F] MOVE_ENTITY: EventEntity moves to X=-247.377*, Z=32.271*, Y=-3.398*
  2: 0x011F [0x1F] MOVE_ENTITY: Update entity position (mode=1)
  3: 0x0121 [0x1F] MOVE_ENTITY: EventEntity moves to X=-250.072*, Z=34.149*, Y=-2.800*
  4: 0x0129 [0x1F] MOVE_ENTITY: Update entity position (mode=1)
  5: 0x012B [0x1F] MOVE_ENTITY: EventEntity moves to X=-252.156*, Z=37.123*, Y=-1.800*
  6: 0x0133 [0x1F] MOVE_ENTITY: Update entity position (mode=1)
  7: 0x0135 [0x1F] MOVE_ENTITY: EventEntity moves to X=-252.075*, Z=40.745*, Y=-1.000*
  8: 0x013D [0x1F] MOVE_ENTITY: Update entity position (mode=1)
  9: 0x013F [0x1F] MOVE_ENTITY: EventEntity moves to X=-252.878*, Z=53.341*, Y=-1.000*
 10: 0x0147 [0x1F] MOVE_ENTITY: Update entity position (mode=1)
 11: 0x0149 [0x00] END_REQSTACK()
```

### Event 65535.12

#### Metadata

| Field        | Value    |
|--------------|----------|
| Entrypoint   | 0x014A   |
| Data Size    | 14 bytes |
| Instructions | 4        |

```
      00 01 02 03 04 05 06 07  08 09 0A 0B 0C 0D 0E 0F
      -- -- -- -- -- -- -- --  -- -- -- -- -- -- -- --
0140:                                32 06 80 1F 00 31            2....1
0150: 80 32 80 33 80 1F 01 00                           .2.3....        
```

#### Opcodes

```
  0: 0x014A [0x32] ExtData[1]->MainSpeed = 13* * 0.1
  1: 0x014D [0x1F] MOVE_ENTITY: EventEntity moves to X=-224.224*, Z=68.309*, Y=-1.295*
  2: 0x0155 [0x1F] MOVE_ENTITY: Update entity position (mode=1)
  3: 0x0157 [0x00] END_REQSTACK()
```

### Event 65535.13

#### Metadata

| Field        | Value    |
|--------------|----------|
| Entrypoint   | 0x0158   |
| Data Size    | 22 bytes |
| Instructions | 6        |

```
      00 01 02 03 04 05 06 07  08 09 0A 0B 0C 0D 0E 0F
      -- -- -- -- -- -- -- --  -- -- -- -- -- -- -- --
0150:                          32 06 80 1F 00 34 80 35          2....4.5
0160: 80 36 80 1F 01 1E C4 71  05 01 1C 20 80 00        .6.....q... ..  
```

#### Opcodes

```
  0: 0x0158 [0x32] ExtData[1]->MainSpeed = 13* * 0.1
  1: 0x015B [0x1F] MOVE_ENTITY: EventEntity moves to X=-223.692*, Z=63.257*, Y=-2.000*
  2: 0x0163 [0x1F] MOVE_ENTITY: Update entity position (mode=1)
  3: 0x0165 [0x1E] EventEntity looks at Werei (ID: 17134020/0x010571C4) and starts talking
  4: 0x016A [0x1C] WAIT(60* ticks)
  5: 0x016D [0x00] END_REQSTACK()
```

### Event 65535.14

#### Metadata

| Field        | Value    |
|--------------|----------|
| Entrypoint   | 0x016E   |
| Data Size    | 13 bytes |
| Instructions | 3        |

```
      00 01 02 03 04 05 06 07  08 09 0A 0B 0C 0D 0E 0F
      -- -- -- -- -- -- -- --  -- -- -- -- -- -- -- --
0160:                                            6E F8                n.
0170: FF FF 7F 37 80 99 F8 FF  FF 7F 00                 ...7.......     
```

#### Opcodes

```
  0: 0x016E [0x6E] EventEntity uses emote 43*
  1: 0x0175 [0x99] Wait for EventEntity animation to complete
  2: 0x017A [0x00] END_REQSTACK()
```

### Event 65

#### Metadata

| Field        | Value   |
|--------------|---------|
| Entrypoint   | 0x017B  |
| Data Size    | 7 bytes |
| Instructions | 2       |

```
      00 01 02 03 04 05 06 07  08 09 0A 0B 0C 0D 0E 0F
      -- -- -- -- -- -- -- --  -- -- -- -- -- -- -- --
0170:                                   92 01 F8 FF FF             .....
0180: 7F 00                                             ..              
```

#### Opcodes

```
  0: 0x017B [0x92] EventEntity->Render.Flags3 ^= 0x01
  1: 0x0181 [0x00] END_REQSTACK()
```

### Event 179

#### Metadata

| Field        | Value   |
|--------------|---------|
| Entrypoint   | 0x0182  |
| Data Size    | 7 bytes |
| Instructions | 2       |

```
      00 01 02 03 04 05 06 07  08 09 0A 0B 0C 0D 0E 0F
      -- -- -- -- -- -- -- --  -- -- -- -- -- -- -- --
0180:       92 01 F8 FF FF 7F  00                         .......       
```

#### Opcodes

```
  0: 0x0182 [0x92] EventEntity->Render.Flags3 ^= 0x01
  1: 0x0188 [0x00] END_REQSTACK()
```

### Event 65535.15

#### Metadata

| Field        | Value    |
|--------------|----------|
| Entrypoint   | 0x0189   |
| Data Size    | 21 bytes |
| Instructions | 3        |

```
      00 01 02 03 04 05 06 07  08 09 0A 0B 0C 0D 0E 0F
      -- -- -- -- -- -- -- --  -- -- -- -- -- -- -- --
0180:                             1C 18 80 45 38 80 F8           ...E8..
0190: FF FF 7F F8 FF FF 7F 66  64 6F 31 17 80 00        .......fdo1...  
```

#### Opcodes

```
  0: 0x0189 [0x1C] WAIT(90* ticks)
  1: 0x018C [0x45] LOAD_SCHEDULED_TASK: Load scheduler "fdo1" with entities [EventEntity, EventEntity], work=[200*, 0*]
  2: 0x019D [0x00] END_REQSTACK()
```
