# 17134149

## Common Data

| Field            | Value                       |
|------------------|-----------------------------|
| Zone             | Bastok Markets [S] (ID: 87) |
| Block Size       | 148 bytes                   |
| Total Events     | 4                           |
| References Count | 8                           |

## List of Events

| Event ID                 | Entrypoint   |   Size |   Instructions |
|--------------------------|--------------|--------|----------------|
| [65535](#event-65535)    | 0x0000       |      1 |              1 |
| [27](#event-27)          | 0x0001       |      1 |              1 |
| [65535.1](#event-655351) | 0x0002       |     56 |             10 |
| [65535.2](#event-655352) | 0x003A       |     24 |              6 |

## DAT References (imed_data)

|   Index | Hex Value   |   Dec Value |
|---------|-------------|-------------|
|       0 | 0x0015      |          21 |
|       1 | 0x005A      |          90 |
|       2 | 0x014E      |         334 |
|       3 | 0x0000      |           0 |
|       4 | 0x0028      |          40 |
|       5 | 0xFFFF7A78  |  4294933112 |
|       6 | 0xFFFFF9F1  |  4294965745 |
|       7 | 0xFFFFD8F0  |  4294957296 |

## Events

### Event 65535

#### Metadata

| Field        | Value   |
|--------------|---------|
| Entrypoint   | 0x0000  |
| Data Size    | 1 bytes |
| Instructions | 1       |

```
      00 01 02 03 04 05 06 07  08 09 0A 0B 0C 0D 0E 0F
      -- -- -- -- -- -- -- --  -- -- -- -- -- -- -- --
0000: 00                                                .               
```

#### Opcodes

```
  0: 0x0000 [0x00] END_REQSTACK()
```

### Event 27

#### Metadata

| Field        | Value   |
|--------------|---------|
| Entrypoint   | 0x0001  |
| Data Size    | 1 bytes |
| Instructions | 1       |

```
      00 01 02 03 04 05 06 07  08 09 0A 0B 0C 0D 0E 0F
      -- -- -- -- -- -- -- --  -- -- -- -- -- -- -- --
0000:    00                                              .              
```

#### Opcodes

```
  0: 0x0001 [0x00] END_REQSTACK()
```

### Event 65535.1

#### Metadata

| Field        | Value    |
|--------------|----------|
| Entrypoint   | 0x0002   |
| Data Size    | 56 bytes |
| Instructions | 10       |

```
      00 01 02 03 04 05 06 07  08 09 0A 0B 0C 0D 0E 0F
      -- -- -- -- -- -- -- --  -- -- -- -- -- -- -- --
0000:       6E 45 72 05 01 00  80 99 45 72 05 01 1C 01    nEr.....Er....
0010: 80 27 05 F9 71 05 01 03  45 02 80 F8 FF FF 7F F8  .'..q...E.......
0020: FF FF 7F 64 6F 6F 72 03  80 1C 01 80 32 04 80 1F  ...door.....2...
0030: 00 05 80 06 80 07 80 1F  01 00                    ..........      
```

#### Opcodes

```
  0: 0x0002 [0x6E] Unnamed NPC (ID: 17134149/0x01057245) uses emote 21*
  1: 0x0009 [0x99] Wait for Unnamed NPC (ID: 17134149/0x01057245) animation to complete
  2: 0x000E [0x1C] WAIT(90* ticks)
  3: 0x0011 [0x27] REQ_SET(priority=0x05, entity_id=Door:Cid's Lab (ID: 17134073/0x010571F9), tag_num=0x03)
  4: 0x0018 [0x45] LOAD_SCHEDULED_TASK: Load scheduler "door" with entities [EventEntity, EventEntity], work=[334*, 0*]
  5: 0x0029 [0x1C] WAIT(90* ticks)
  6: 0x002C [0x32] ExtData[1]->MainSpeed = 40* * 0.1
  7: 0x002F [0x1F] MOVE_ENTITY: EventEntity moves to X=-34.184*, Z=-1.551*, Y=-10.000*
  8: 0x0037 [0x1F] MOVE_ENTITY: Update entity position (mode=1)
  9: 0x0039 [0x00] END_REQSTACK()
```

### Event 65535.2

#### Metadata

| Field        | Value    |
|--------------|----------|
| Entrypoint   | 0x003A   |
| Data Size    | 24 bytes |
| Instructions | 6        |

```
      00 01 02 03 04 05 06 07  08 09 0A 0B 0C 0D 0E 0F
      -- -- -- -- -- -- -- --  -- -- -- -- -- -- -- --
0030:                                1C 01 80 32 04 80            ...2..
0040: 1F 00 05 80 06 80 07 80  1F 01 27 05 46 72 05 01  ..........'.Fr..
0050: 02 00                                             ..              
```

#### Opcodes

```
  0: 0x003A [0x1C] WAIT(90* ticks)
  1: 0x003D [0x32] ExtData[1]->MainSpeed = 40* * 0.1
  2: 0x0040 [0x1F] MOVE_ENTITY: EventEntity moves to X=-34.184*, Z=-1.551*, Y=-10.000*
  3: 0x0048 [0x1F] MOVE_ENTITY: Update entity position (mode=1)
  4: 0x004A [0x27] REQ_SET(priority=0x05, entity_id=Unnamed NPC (ID: 17134150/0x01057246), tag_num=0x02)
  5: 0x0051 [0x00] END_REQSTACK()
```
