# 17134232 - kou2

## Common Data

| Field            | Value                       |
|------------------|-----------------------------|
| Zone             | Bastok Markets [S] (ID: 87) |
| Block Size       | 8880 bytes                  |
| Total Events     | 22                          |
| References Count | 206                         |

## List of Events

| Event ID                   | Entrypoint   |   Size |   Instructions |
|----------------------------|--------------|--------|----------------|
| [65535](#event-65535)      | 0x0000       |      1 |              1 |
| [184](#event-184)          | 0x0001       |      1 |              1 |
| [65535.1](#event-655351)   | 0x0002       |     32 |              8 |
| [65535.2](#event-655352)   | 0x0022       |     21 |              5 |
| [65535.3](#event-655353)   | 0x0037       |     44 |             10 |
| [65535.4](#event-655354)   | 0x0063       |      1 |              1 |
| [65535.5](#event-655355)   | 0x0064       |     18 |              4 |
| [65535.6](#event-655356)   | 0x0076       |     10 |              2 |
| [65535.7](#event-655357)   | 0x0080       |      9 |              3 |
| [65535.8](#event-655358)   | 0x0089       |      9 |              3 |
| [65535.9](#event-655359)   | 0x0092       |     10 |              2 |
| [65535.10](#event-6553510) | 0x009C       |     10 |              2 |
| [180](#event-180)          | 0x00A6       |      1 |              1 |
| [181](#event-181)          | 0x00A7       |      1 |              1 |
| [182](#event-182)          | 0x00A8       |      1 |              1 |
| [65535.11](#event-6553511) | 0x00A9       |     29 |              6 |
| [71](#event-71)            | 0x00C6       |      7 |              2 |
| [65535.12](#event-6553512) | 0x00CD       |     41 |              9 |
| [65535.13](#event-6553513) | 0x00F6       |     24 |              6 |
| [65535.14](#event-6553514) | 0x010E       |     24 |              6 |
| [66](#event-66)            | 0x0126       |   4669 |            517 |
| [211](#event-211)          | 0x1363       |   2988 |            344 |

## DAT References (imed_data)

|   Index | Hex Value   |   Dec Value |
|---------|-------------|-------------|
|       0 | 0x15961     |       88417 |
|       1 | 0x1FD0      |        8144 |
|       2 | 0xFFFFB136  |  4294947126 |
|       3 | 0x17347     |       95047 |
|       4 | 0x2814      |       10260 |
|       5 | 0x158C2     |       88258 |
|       6 | 0x287F      |       10367 |
|       7 | 0x0014      |          20 |
|       8 | 0x0064      |         100 |
|       9 | 0x15956     |       88406 |
|      10 | 0x106E      |        4206 |
|      11 | 0x0000      |           0 |
|      12 | 0x0001      |           1 |
|      13 | 0x0080      |         128 |
|      14 | 0x000D      |          13 |
|      15 | 0x159D5     |       88533 |
|      16 | 0x34B2      |       13490 |
|      17 | 0x15A10     |       88592 |
|      18 | 0x2367      |        9063 |
|      19 | 0x15CA7     |       89255 |
|      20 | 0x155F      |        5471 |
|      21 | 0xFFFFB138  |  4294947128 |
|      22 | 0x15C94     |       89236 |
|      23 | 0x0EF2      |        3826 |
|      24 | 0xFFFFB3B4  |  4294947764 |
|      25 | 0x0320      |         800 |
|      26 | 0x001E      |          30 |
|      27 | 0x0028      |          40 |
|      28 | 0x168A2     |       92322 |
|      29 | 0x0070      |         112 |
|      30 | 0x16EF8     |       93944 |
|      31 | 0x001D      |          29 |
|      32 | 0x1B113     |      110867 |
|      33 | 0xFFFFDB63  |  4294957923 |
|      34 | 0x05B9      |        1465 |
|      35 | 0x00C8      |         200 |
|      36 | 0x0013      |          19 |
|      37 | 0xFFFCECCA  |  4294765770 |
|      38 | 0xFFFFFF39  |  4294967097 |
|      39 | 0xFFFFD8F2  |  4294957298 |
|      40 | 0x09C7      |        2503 |
|      41 | 0x000F      |          15 |
|      42 | 0x01C3      |         451 |
|      43 | 0x0045      |          69 |
|      44 | 0x33E5      |       13285 |
|      45 | 0x33E6      |       13286 |
|      46 | 0x0078      |         120 |
|      47 | 0x00ED      |         237 |
|      48 | 0x0011      |          17 |
|      49 | 0x0131      |         305 |
|      50 | 0x16FD3     |       94163 |
|      51 | 0x27EA      |       10218 |
|      52 | 0x013A      |         314 |
|      53 | 0x18051     |       98385 |
|      54 | 0x31EC      |       12780 |
|      55 | 0xFFFFB127  |  4294947111 |
|      56 | 0x07D0      |        2000 |
|      57 | 0x17868     |       96360 |
|      58 | 0x27CD      |       10189 |
|      59 | 0x0E9D      |        3741 |
|      60 | 0x16EDF     |       93919 |
|      61 | 0x396E      |       14702 |
|      62 | 0x1784E     |       96334 |
|      63 | 0x3A56      |       14934 |
|      64 | 0x00F4      |         244 |
|      65 | 0x0091      |         145 |
|      66 | 0x00B4      |         180 |
|      67 | 0x33E7      |       13287 |
|      68 | 0x0009      |           9 |
|      69 | 0x33E8      |       13288 |
|      70 | 0x0542      |        1346 |
|      71 | 0x33E9      |       13289 |
|      72 | 0x33EA      |       13290 |
|      73 | 0x33EB      |       13291 |
|      74 | 0x00F6      |         246 |
|      75 | 0x33EC      |       13292 |
|      76 | 0x33ED      |       13293 |
|      77 | 0x33EE      |       13294 |
|      78 | 0x003C      |          60 |
|      79 | 0x33EF      |       13295 |
|      80 | 0x33F0      |       13296 |
|      81 | 0x0007      |           7 |
|      82 | 0x0002      |           2 |
|      83 | 0x0003      |           3 |
|      84 | 0x0004      |           4 |
|      85 | 0x0005      |           5 |
|      86 | 0x0006      |           6 |
|      87 | 0x0008      |           8 |
|      88 | 0x0024      |          36 |
|      89 | 0x17FED     |       98285 |
|      90 | 0x23D5      |        9173 |
|      91 | 0x076A      |        1898 |
|      92 | 0x165EC     |       91628 |
|      93 | 0x235A      |        9050 |
|      94 | 0x07FB      |        2043 |
|      95 | 0x1680B     |       92171 |
|      96 | 0x2827      |       10279 |
|      97 | 0x07F9      |        2041 |
|      98 | 0x0155      |         341 |
|      99 | 0x009A      |         154 |
|     100 | 0x005A      |          90 |
|     101 | 0x33F1      |       13297 |
|     102 | 0x33F2      |       13298 |
|     103 | 0x33F3      |       13299 |
|     104 | 0x33F4      |       13300 |
|     105 | 0x33F5      |       13301 |
|     106 | 0x33F6      |       13302 |
|     107 | 0x33F7      |       13303 |
|     108 | 0x33F8      |       13304 |
|     109 | 0x33F9      |       13305 |
|     110 | 0x16D45     |       93509 |
|     111 | 0x2632      |        9778 |
|     112 | 0x0BDD      |        3037 |
|     113 | 0x33FA      |       13306 |
|     114 | 0x15D1C     |       89372 |
|     115 | 0x31BE      |       12734 |
|     116 | 0x03F1      |        1009 |
|     117 | 0x00FA      |         250 |
|     118 | 0x0652      |        1618 |
|     119 | 0x33FB      |       13307 |
|     120 | 0x1605C     |       90204 |
|     121 | 0x2D40      |       11584 |
|     122 | 0x0651      |        1617 |
|     123 | 0x0C8D      |        3213 |
|     124 | 0x000C      |          12 |
|     125 | 0xFFFF3229  |  4294914601 |
|     126 | 0xFFFFFC9F  |  4294966431 |
|     127 | 0x07CF      |        1999 |
|     128 | 0x07D7      |        2007 |
|     129 | 0xFFFEF48E  |  4294898830 |
|     130 | 0xFFFFF94B  |  4294965579 |
|     131 | 0x082B      |        2091 |
|     132 | 0xFFFEFA64  |  4294900324 |
|     133 | 0xFFFFF341  |  4294964033 |
|     134 | 0x082C      |        2092 |
|     135 | 0xFFFEE9CF  |  4294896079 |
|     136 | 0x30BD      |       12477 |
|     137 | 0x0BC0      |        3008 |
|     138 | 0x0050      |          80 |
|     139 | 0x33FC      |       13308 |
|     140 | 0x33FD      |       13309 |
|     141 | 0xFFFEE1F7  |  4294894071 |
|     142 | 0xFFFFF918  |  4294965528 |
|     143 | 0x014C      |         332 |
|     144 | 0x33FE      |       13310 |
|     145 | 0x3401      |       13313 |
|     146 | 0x3402      |       13314 |
|     147 | 0x3403      |       13315 |
|     148 | 0x3404      |       13316 |
|     149 | 0x007F      |         127 |
|     150 | 0x3405      |       13317 |
|     151 | 0x3406      |       13318 |
|     152 | 0x3427      |       13351 |
|     153 | 0x3407      |       13319 |
|     154 | 0x3408      |       13320 |
|     155 | 0x0096      |         150 |
|     156 | 0x3400      |       13312 |
|     157 | 0x0057      |          87 |
|     158 | 0x000A      |          10 |
|     159 | 0xFFFCF15C  |  4294766940 |
|     160 | 0x08BD      |        2237 |
|     161 | 0x085E      |        2142 |
|     162 | 0xFFFCE708  |  4294764296 |
|     163 | 0x01FD      |         509 |
|     164 | 0x34C8      |       13512 |
|     165 | 0x34C9      |       13513 |
|     166 | 0x010E      |         270 |
|     167 | 0x00FF      |         255 |
|     168 | 0x15A78     |       88696 |
|     169 | 0x009B      |         155 |
|     170 | 0x0BF2      |        3058 |
|     171 | 0x163A6     |       91046 |
|     172 | 0x2A4C      |       10828 |
|     173 | 0x0CB2      |        3250 |
|     174 | 0x16041     |       90177 |
|     175 | 0x319A      |       12698 |
|     176 | 0x168F8     |       92408 |
|     177 | 0x2FA5      |       12197 |
|     178 | 0x076C      |        1900 |
|     179 | 0x16833     |       92211 |
|     180 | 0x37A1      |       14241 |
|     181 | 0x05DC      |        1500 |
|     182 | 0x0032      |          50 |
|     183 | 0x34CA      |       13514 |
|     184 | 0x34CB      |       13515 |
|     185 | 0x34CC      |       13516 |
|     186 | 0x03E8      |        1000 |
|     187 | 0x004E      |          78 |
|     188 | 0x34CD      |       13517 |
|     189 | 0x34CE      |       13518 |
|     190 | 0x34CF      |       13519 |
|     191 | 0x34D0      |       13520 |
|     192 | 0x34D1      |       13521 |
|     193 | 0x34D2      |       13522 |
|     194 | 0x34D3      |       13523 |
|     195 | 0x34D4      |       13524 |
|     196 | 0x0578      |        1400 |
|     197 | 0x34D5      |       13525 |
|     198 | 0x34D6      |       13526 |
|     199 | 0x34D7      |       13527 |
|     200 | 0x34D8      |       13528 |
|     201 | 0x34D9      |       13529 |
|     202 | 0x34DA      |       13530 |
|     203 | 0x34DB      |       13531 |
|     204 | 0x34DC      |       13532 |
|     205 | 0x34DD      |       13533 |

## String References

- **13523**: Will you stand with us? [Until the end./I am sorry...]

## Events

### Event 65535

#### Metadata

| Field        | Value   |
|--------------|---------|
| Entrypoint   | 0x0000  |
| Data Size    | 1 bytes |
| Instructions | 1       |

```
      00 01 02 03 04 05 06 07  08 09 0A 0B 0C 0D 0E 0F
      -- -- -- -- -- -- -- --  -- -- -- -- -- -- -- --
0000: 00                                                .               
```

#### Opcodes

```
  0: 0x0000 [0x00] END_REQSTACK()
```

### Event 184

#### Metadata

| Field        | Value   |
|--------------|---------|
| Entrypoint   | 0x0001  |
| Data Size    | 1 bytes |
| Instructions | 1       |

```
      00 01 02 03 04 05 06 07  08 09 0A 0B 0C 0D 0E 0F
      -- -- -- -- -- -- -- --  -- -- -- -- -- -- -- --
0000:    00                                              .              
```

#### Opcodes

```
  0: 0x0001 [0x00] END_REQSTACK()
```

### Event 65535.1

#### Metadata

| Field        | Value    |
|--------------|----------|
| Entrypoint   | 0x0002   |
| Data Size    | 32 bytes |
| Instructions | 8        |

```
      00 01 02 03 04 05 06 07  08 09 0A 0B 0C 0D 0E 0F
      -- -- -- -- -- -- -- --  -- -- -- -- -- -- -- --
0000:       1F 00 00 80 01 80  02 80 1F 01 6F 1F 00 03    ..........o...
0010: 80 04 80 02 80 1F 01 6F  4A 98 72 05 01 F2 71 05  .......oJ.r...q.
0020: 01 00                                             ..              
```

#### Opcodes

```
  0: 0x0002 [0x1F] MOVE_ENTITY: EventEntity moves to X=88.417*, Z=8.144*, Y=-20.170*
  1: 0x000A [0x1F] MOVE_ENTITY: Update entity position (mode=1)
  2: 0x000C [0x6F] WAIT_FRAME_DELAY: Yield until WaitTime reaches zero
  3: 0x000D [0x1F] MOVE_ENTITY: EventEntity moves to X=95.047*, Z=10.260*, Y=-20.170*
  4: 0x0015 [0x1F] MOVE_ENTITY: Update entity position (mode=1)
  5: 0x0017 [0x6F] WAIT_FRAME_DELAY: Yield until WaitTime reaches zero
  6: 0x0018 [0x4A] kou2 (ID: 17134232/0x01057298) looks at Klara (ID: 17134066/0x010571F2)
  7: 0x0021 [0x00] END_REQSTACK()
```

### Event 65535.2

#### Metadata

| Field        | Value    |
|--------------|----------|
| Entrypoint   | 0x0022   |
| Data Size    | 21 bytes |
| Instructions | 5        |

```
      00 01 02 03 04 05 06 07  08 09 0A 0B 0C 0D 0E 0F
      -- -- -- -- -- -- -- --  -- -- -- -- -- -- -- --
0020:       1F 00 03 80 04 80  02 80 1F 01 6F 4A 98 72    ..........oJ.r
0030: 05 01 F2 71 05 01 00                              ...q...         
```

#### Opcodes

```
  0: 0x0022 [0x1F] MOVE_ENTITY: EventEntity moves to X=95.047*, Z=10.260*, Y=-20.170*
  1: 0x002A [0x1F] MOVE_ENTITY: Update entity position (mode=1)
  2: 0x002C [0x6F] WAIT_FRAME_DELAY: Yield until WaitTime reaches zero
  3: 0x002D [0x4A] kou2 (ID: 17134232/0x01057298) looks at Klara (ID: 17134066/0x010571F2)
  4: 0x0036 [0x00] END_REQSTACK()
```

### Event 65535.3

#### Metadata

| Field        | Value    |
|--------------|----------|
| Entrypoint   | 0x0037   |
| Data Size    | 44 bytes |
| Instructions | 10       |

```
      00 01 02 03 04 05 06 07  08 09 0A 0B 0C 0D 0E 0F
      -- -- -- -- -- -- -- --  -- -- -- -- -- -- -- --
0030:                      1F  00 05 80 06 80 02 80 1F         .........
0040: 01 6F 4A 98 72 05 01 41  72 05 01 1C 07 80 27 10  .oJ.r..Ar.....'.
0050: 41 72 05 01 03 1C 08 80  1F 00 09 80 0A 80 02 80  Ar..............
0060: 1F 01 00                                          ...             
```

#### Opcodes

```
  0: 0x0037 [0x1F] MOVE_ENTITY: EventEntity moves to X=88.258*, Z=10.367*, Y=-20.170*
  1: 0x003F [0x1F] MOVE_ENTITY: Update entity position (mode=1)
  2: 0x0041 [0x6F] WAIT_FRAME_DELAY: Yield until WaitTime reaches zero
  3: 0x0042 [0x4A] kou2 (ID: 17134232/0x01057298) looks at Unnamed NPC (ID: 17134145/0x01057241)
  4: 0x004B [0x1C] WAIT(20* ticks)
  5: 0x004E [0x27] REQ_SET(priority=0x10, entity_id=Unnamed NPC (ID: 17134145/0x01057241), tag_num=0x03)
  6: 0x0055 [0x1C] WAIT(100* ticks)
  7: 0x0058 [0x1F] MOVE_ENTITY: EventEntity moves to X=88.406*, Z=4.206*, Y=-20.170*
  8: 0x0060 [0x1F] MOVE_ENTITY: Update entity position (mode=1)
  9: 0x0062 [0x00] END_REQSTACK()
```

### Event 65535.4

#### Metadata

| Field        | Value   |
|--------------|---------|
| Entrypoint   | 0x0063  |
| Data Size    | 1 bytes |
| Instructions | 1       |

```
      00 01 02 03 04 05 06 07  08 09 0A 0B 0C 0D 0E 0F
      -- -- -- -- -- -- -- --  -- -- -- -- -- -- -- --
0060:          00                                          .            
```

#### Opcodes

```
  0: 0x0063 [0x00] END_REQSTACK()
```

### Event 65535.5

#### Metadata

| Field        | Value    |
|--------------|----------|
| Entrypoint   | 0x0064   |
| Data Size    | 18 bytes |
| Instructions | 4        |

```
      00 01 02 03 04 05 06 07  08 09 0A 0B 0C 0D 0E 0F
      -- -- -- -- -- -- -- --  -- -- -- -- -- -- -- --
0060:             22 00 2F 00  F8 FF FF 7F 6C F8 FF FF      "./.....l...
0070: 7F 0B 80 0C 80 00                                 ......          
```

#### Opcodes

```
  0: 0x0064 [0x22] ENTITY_HIDE_FLAG(enabled=0x00)
  1: 0x0066 [0x2F] EventEntity->Render.Flags0 &= ~0x80000 // Bit 19
  2: 0x006C [0x6C] FADE_ENTITY_COLOR(entity_id=EventEntity, end_alpha=0*, fade_time=1*)
  3: 0x0075 [0x00] END_REQSTACK()
```

### Event 65535.6

#### Metadata

| Field        | Value    |
|--------------|----------|
| Entrypoint   | 0x0076   |
| Data Size    | 10 bytes |
| Instructions | 2        |

```
      00 01 02 03 04 05 06 07  08 09 0A 0B 0C 0D 0E 0F
      -- -- -- -- -- -- -- --  -- -- -- -- -- -- -- --
0070:                   6C F8  FF FF 7F 0D 80 0C 80 00        l.........
```

#### Opcodes

```
  0: 0x0076 [0x6C] FADE_ENTITY_COLOR(entity_id=EventEntity, end_alpha=128*, fade_time=1*)
  1: 0x007F [0x00] END_REQSTACK()
```

### Event 65535.7

#### Metadata

| Field        | Value   |
|--------------|---------|
| Entrypoint   | 0x0080  |
| Data Size    | 9 bytes |
| Instructions | 3       |

```
      00 01 02 03 04 05 06 07  08 09 0A 0B 0C 0D 0E 0F
      -- -- -- -- -- -- -- --  -- -- -- -- -- -- -- --
0080: 22 00 2F 00 F8 FF FF 7F  00                       "./......       
```

#### Opcodes

```
  0: 0x0080 [0x22] ENTITY_HIDE_FLAG(enabled=0x00)
  1: 0x0082 [0x2F] EventEntity->Render.Flags0 &= ~0x80000 // Bit 19
  2: 0x0088 [0x00] END_REQSTACK()
```

### Event 65535.8

#### Metadata

| Field        | Value   |
|--------------|---------|
| Entrypoint   | 0x0089  |
| Data Size    | 9 bytes |
| Instructions | 3       |

```
      00 01 02 03 04 05 06 07  08 09 0A 0B 0C 0D 0E 0F
      -- -- -- -- -- -- -- --  -- -- -- -- -- -- -- --
0080:                             22 01 2F 01 F8 FF FF           "./....
0090: 7F 00                                             ..              
```

#### Opcodes

```
  0: 0x0089 [0x22] ENTITY_HIDE_FLAG(enabled=0x01)
  1: 0x008B [0x2F] EventEntity->Render.Flags0 |= 0x80000 // Bit 19
  2: 0x0091 [0x00] END_REQSTACK()
```

### Event 65535.9

#### Metadata

| Field        | Value    |
|--------------|----------|
| Entrypoint   | 0x0092   |
| Data Size    | 10 bytes |
| Instructions | 2        |

```
      00 01 02 03 04 05 06 07  08 09 0A 0B 0C 0D 0E 0F
      -- -- -- -- -- -- -- --  -- -- -- -- -- -- -- --
0090:       6C F8 FF FF 7F 0B  80 0C 80 00                l.........    
```

#### Opcodes

```
  0: 0x0092 [0x6C] FADE_ENTITY_COLOR(entity_id=EventEntity, end_alpha=0*, fade_time=1*)
  1: 0x009B [0x00] END_REQSTACK()
```

### Event 65535.10

#### Metadata

| Field        | Value    |
|--------------|----------|
| Entrypoint   | 0x009C   |
| Data Size    | 10 bytes |
| Instructions | 2        |

```
      00 01 02 03 04 05 06 07  08 09 0A 0B 0C 0D 0E 0F
      -- -- -- -- -- -- -- --  -- -- -- -- -- -- -- --
0090:                                      6C F8 FF FF              l...
00A0: 7F 0D 80 0C 80 00                                 ......          
```

#### Opcodes

```
  0: 0x009C [0x6C] FADE_ENTITY_COLOR(entity_id=EventEntity, end_alpha=128*, fade_time=1*)
  1: 0x00A5 [0x00] END_REQSTACK()
```

### Event 180

#### Metadata

| Field        | Value   |
|--------------|---------|
| Entrypoint   | 0x00A6  |
| Data Size    | 1 bytes |
| Instructions | 1       |

```
      00 01 02 03 04 05 06 07  08 09 0A 0B 0C 0D 0E 0F
      -- -- -- -- -- -- -- --  -- -- -- -- -- -- -- --
00A0:                   00                                    .         
```

#### Opcodes

```
  0: 0x00A6 [0x00] END_REQSTACK()
```

### Event 181

#### Metadata

| Field        | Value   |
|--------------|---------|
| Entrypoint   | 0x00A7  |
| Data Size    | 1 bytes |
| Instructions | 1       |

```
      00 01 02 03 04 05 06 07  08 09 0A 0B 0C 0D 0E 0F
      -- -- -- -- -- -- -- --  -- -- -- -- -- -- -- --
00A0:                      00                                  .        
```

#### Opcodes

```
  0: 0x00A7 [0x00] END_REQSTACK()
```

### Event 182

#### Metadata

| Field        | Value   |
|--------------|---------|
| Entrypoint   | 0x00A8  |
| Data Size    | 1 bytes |
| Instructions | 1       |

```
      00 01 02 03 04 05 06 07  08 09 0A 0B 0C 0D 0E 0F
      -- -- -- -- -- -- -- --  -- -- -- -- -- -- -- --
00A0:                          00                               .       
```

#### Opcodes

```
  0: 0x00A8 [0x00] END_REQSTACK()
```

### Event 65535.11

#### Metadata

| Field        | Value    |
|--------------|----------|
| Entrypoint   | 0x00A9   |
| Data Size    | 29 bytes |
| Instructions | 6        |

```
      00 01 02 03 04 05 06 07  08 09 0A 0B 0C 0D 0E 0F
      -- -- -- -- -- -- -- --  -- -- -- -- -- -- -- --
00A0:                             59 04 98 72 05 01 0E           Y..r...
00B0: 80 1F 00 0F 80 10 80 02  80 1F 01 1F 00 11 80 12  ................
00C0: 80 02 80 1F 01 00                                 ......          
```

#### Opcodes

```
  0: 0x00A9 [0x59] UPDATE_ENTITY_DATA: Set kou2 (ID: 17134232/0x01057298) main speed = 13* * 0.1
  1: 0x00B1 [0x1F] MOVE_ENTITY: EventEntity moves to X=88.533*, Z=13.490*, Y=-20.170*
  2: 0x00B9 [0x1F] MOVE_ENTITY: Update entity position (mode=1)
  3: 0x00BB [0x1F] MOVE_ENTITY: EventEntity moves to X=88.592*, Z=9.063*, Y=-20.170*
  4: 0x00C3 [0x1F] MOVE_ENTITY: Update entity position (mode=1)
  5: 0x00C5 [0x00] END_REQSTACK()
```

### Event 71

#### Metadata

| Field        | Value   |
|--------------|---------|
| Entrypoint   | 0x00C6  |
| Data Size    | 7 bytes |
| Instructions | 2       |

```
      00 01 02 03 04 05 06 07  08 09 0A 0B 0C 0D 0E 0F
      -- -- -- -- -- -- -- --  -- -- -- -- -- -- -- --
00C0:                   92 01  F8 FF FF 7F 00                 .......   
```

#### Opcodes

```
  0: 0x00C6 [0x92] EventEntity->Render.Flags3 ^= 0x01
  1: 0x00CC [0x00] END_REQSTACK()
```

### Event 65535.12

#### Metadata

| Field        | Value    |
|--------------|----------|
| Entrypoint   | 0x00CD   |
| Data Size    | 41 bytes |
| Instructions | 9        |

```
      00 01 02 03 04 05 06 07  08 09 0A 0B 0C 0D 0E 0F
      -- -- -- -- -- -- -- --  -- -- -- -- -- -- -- --
00C0:                                         32 0E 80               2..
00D0: 5A 00 13 80 14 80 15 80  5A 01 27 05 41 72 05 01  Z.......Z.'.Ar..
00E0: 04 5A 00 16 80 17 80 18  80 5A 01 4B F8 FF FF 7F  .Z.......Z.K....
00F0: 19 80 1C 1A 80 00                                 ......          
```

#### Opcodes

```
  0: 0x00CD [0x32] ExtData[1]->MainSpeed = 13* * 0.1
  1: 0x00D0 [0x5A] UPDATE_EVENT_POSITION: Set EventEntity MovePosition to X=89.255*, Z=5.471*, Y=-20.168*
  2: 0x00D8 [0x5A] UPDATE_EVENT_POSITION: Move EventEntity incrementally towards MovePosition
  3: 0x00DA [0x27] REQ_SET(priority=0x05, entity_id=Unnamed NPC (ID: 17134145/0x01057241), tag_num=0x04)
  4: 0x00E1 [0x5A] UPDATE_EVENT_POSITION: Set EventEntity MovePosition to X=89.236*, Z=3.826*, Y=-19.532*
  5: 0x00E9 [0x5A] UPDATE_EVENT_POSITION: Move EventEntity incrementally towards MovePosition
  6: 0x00EB [0x4B] UPDATE_ENTITY_YAW(entity=EventEntity, yaw=4.4°*)
  7: 0x00F2 [0x1C] WAIT(30* ticks)
  8: 0x00F5 [0x00] END_REQSTACK()
```

### Event 65535.13

#### Metadata

| Field        | Value    |
|--------------|----------|
| Entrypoint   | 0x00F6   |
| Data Size    | 24 bytes |
| Instructions | 6        |

```
      00 01 02 03 04 05 06 07  08 09 0A 0B 0C 0D 0E 0F
      -- -- -- -- -- -- -- --  -- -- -- -- -- -- -- --
00F0:                   32 1B  80 5A 00 1C 80 1D 80 18        2..Z......
0100: 80 5A 01 5A 00 1E 80 1F  80 15 80 5A 01 00        .Z.Z.......Z..  
```

#### Opcodes

```
  0: 0x00F6 [0x32] ExtData[1]->MainSpeed = 40* * 0.1
  1: 0x00F9 [0x5A] UPDATE_EVENT_POSITION: Set EventEntity MovePosition to X=92.322*, Z=0.112*, Y=-19.532*
  2: 0x0101 [0x5A] UPDATE_EVENT_POSITION: Move EventEntity incrementally towards MovePosition
  3: 0x0103 [0x5A] UPDATE_EVENT_POSITION: Set EventEntity MovePosition to X=93.944*, Z=0.029*, Y=-20.168*
  4: 0x010B [0x5A] UPDATE_EVENT_POSITION: Move EventEntity incrementally towards MovePosition
  5: 0x010D [0x00] END_REQSTACK()
```

### Event 65535.14

#### Metadata

| Field        | Value    |
|--------------|----------|
| Entrypoint   | 0x010E   |
| Data Size    | 24 bytes |
| Instructions | 6        |

```
      00 01 02 03 04 05 06 07  08 09 0A 0B 0C 0D 0E 0F
      -- -- -- -- -- -- -- --  -- -- -- -- -- -- -- --
0100:                                            32 1B                2.
0110: 80 5A 00 20 80 21 80 02  80 5A 01 4B F8 FF FF 7F  .Z. .!...Z.K....
0120: 22 80 1C 1A 80 00                                 ".....          
```

#### Opcodes

```
  0: 0x010E [0x32] ExtData[1]->MainSpeed = 40* * 0.1
  1: 0x0111 [0x5A] UPDATE_EVENT_POSITION: Set EventEntity MovePosition to X=110.867*, Z=-9.373*, Y=-20.170*
  2: 0x0119 [0x5A] UPDATE_EVENT_POSITION: Move EventEntity incrementally towards MovePosition
  3: 0x011B [0x4B] UPDATE_ENTITY_YAW(entity=EventEntity, yaw=8.0°*)
  4: 0x0122 [0x1C] WAIT(30* ticks)
  5: 0x0125 [0x00] END_REQSTACK()
```

### Event 66

#### Metadata

| Field        | Value      |
|--------------|------------|
| Entrypoint   | 0x0126     |
| Data Size    | 4669 bytes |
| Instructions | 517        |

```
      00 01 02 03 04 05 06 07  08 09 0A 0B 0C 0D 0E 0F
      -- -- -- -- -- -- -- --  -- -- -- -- -- -- -- --
0120:                   42 45  23 80 F8 FF FF 7F F8 FF        BE#.......
0130: FF 7F 66 64 6F 31 0B 80  55 23 80 F8 FF FF 7F F8  ..fdo1..U#......
0140: FF FF 7F 66 64 6F 31 46  01 38 24 80 20 01 2F 00  ...fdo1F.8$. ./.
0150: D7 71 05 01 4E 00 D7 71  05 01 92 01 D7 71 05 01  .q..N..q.....q..
0160: 94 01 F0 FF FF 7F 94 01  D7 71 05 01 BA F0 FF FF  .........q......
0170: 7F 25 80 26 80 27 80 28  80 80 F0 FF FF 7F 80 D7  .%.&.'.(........
0180: 71 05 01 4A F0 FF FF 7F  D7 71 05 01 4A D7 71 05  q..J.....q..J.q.
0190: 01 F0 FF FF 7F 1C 29 80  45 2A 80 F0 FF FF 7F F0  ......).E*......
01A0: FF FF 7F 71 31 30 32 0B  80 45 23 80 F8 FF FF 7F  ...q102..E#.....
01B0: F8 FF FF 7F 66 64 69 31  0B 80 55 23 80 F8 FF FF  ....fdi1..U#....
01C0: 7F F8 FF FF 7F 66 64 69  31 66 2B 80 D7 71 05 01  .....fdi1f+..q..
01D0: D7 71 05 01 74 6C 6B 30  2B D7 71 05 01 2C 80 23  .q..tlk0+.q..,.#
01E0: 52 2A 80 F0 FF FF 7F F0  FF FF 7F 71 31 30 32 45  R*.........q102E
01F0: 2A 80 F0 FF FF 7F F0 FF  FF 7F 71 31 30 33 0B 80  *.........q103..
0200: 2B D7 71 05 01 2D 80 23  66 2B 80 D7 71 05 01 D7  +.q..-.#f+..q...
0210: 71 05 01 74 6C 6B 31 1C  2E 80 45 23 80 F0 FF FF  q..tlk1...E#....
0220: 7F F0 FF FF 7F 66 64 6F  32 0B 80 55 23 80 F0 FF  .....fdo2..U#...
0230: FF 7F F0 FF FF 7F 66 64  6F 32 52 2A 80 F0 FF FF  ......fdo2R*....
0240: 7F F0 FF FF 7F 71 31 30  33 1C 0C 80 34 2F 80 77  .....q103...4/.w
0250: 30 80 0B 80 1C 0C 80 75  00 31 80 75 01 2F 00 F2  0......u.1.u./..
0260: 71 05 01 2F 00 B3 71 05  01 2F 00 F4 71 05 01 2F  q../..q../..q../
0270: 00 F3 71 05 01 2F 00 41  72 05 01 4E 00 F2 71 05  ..q../.Ar..N..q.
0280: 01 4E 00 B3 71 05 01 4E  00 F4 71 05 01 4E 00 F3  .N..q..N..q..N..
0290: 71 05 01 4E 00 41 72 05  01 92 01 F2 71 05 01 92  q..N.Ar.....q...
02A0: 01 B3 71 05 01 92 01 F4  71 05 01 92 01 F3 71 05  ..q.....q.....q.
02B0: 01 94 01 F2 71 05 01 94  01 B3 71 05 01 94 01 F4  ....q.....q.....
02C0: 71 05 01 94 01 F3 71 05  01 94 01 41 72 05 01 BA  q.....q....Ar...
02D0: F0 FF FF 7F 32 80 33 80  02 80 34 80 BA F2 71 05  ....2.3...4...q.
02E0: 01 35 80 36 80 37 80 38  80 BA B3 71 05 01 39 80  .5.6.7.8...q..9.
02F0: 3A 80 02 80 3B 80 BA F4  71 05 01 3C 80 3D 80 37  :...;...q..<.=.7
0300: 80 3B 80 BA F3 71 05 01  3E 80 3F 80 37 80 3B 80  .;...q..>.?.7.;.
0310: 4A F0 FF FF 7F F2 71 05  01 4A B3 71 05 01 F2 71  J.....q..J.q...q
0320: 05 01 4A F4 71 05 01 F2  71 05 01 4A F3 71 05 01  ..J.q...q..J.q..
0330: F2 71 05 01 80 F2 71 05  01 80 B3 71 05 01 80 F4  .q....q....q....
0340: 71 05 01 80 F3 71 05 01  5B 40 80 B3 71 05 01 B3  q....q..[@..q...
0350: 71 05 01 75 64 65 30 5C  00 41 80 5C 01 41 80 9A  q..ude0\.A.\.A..
0360: 1C 1A 80 45 2A 80 F0 FF  FF 7F F0 FF FF 7F 71 32  ...E*.........q2
0370: 30 31 0B 80 45 23 80 F0  FF FF 7F F0 FF FF 7F 66  01..E#.........f
0380: 64 69 32 0B 80 55 23 80  F0 FF FF 7F F0 FF FF 7F  di2..U#.........
0390: 66 64 69 32 1C 42 80 52  2A 80 F0 FF FF 7F F0 FF  fdi2.B.R*.......
03A0: FF 7F 71 32 30 31 45 2A  80 F0 FF FF 7F F0 FF FF  ..q201E*........
03B0: 7F 71 32 30 32 0B 80 6E  F4 71 05 01 24 80 99 F4  .q202..n.q..$...
03C0: 71 05 01 2B F4 71 05 01  43 80 23 52 2A 80 F0 FF  q..+.q..C.#R*...
03D0: FF 7F F0 FF FF 7F 71 32  30 32 45 2A 80 F0 FF FF  ......q202E*....
03E0: 7F F0 FF FF 7F 71 32 30  33 0B 80 66 44 80 F3 71  .....q203..fD..q
03F0: 05 01 F3 71 05 01 74 68  6B 31 2B F3 71 05 01 45  ...q..thk1+.q..E
0400: 80 23 52 2A 80 F0 FF FF  7F F0 FF FF 7F 71 32 30  .#R*.........q20
0410: 33 45 2A 80 F0 FF FF 7F  F0 FF FF 7F 71 32 30 34  3E*.........q204
0420: 0B 80 66 44 80 F3 71 05  01 F3 71 05 01 74 68 6B  ..fD..q...q..thk
0430: 32 79 00 F2 71 05 01 F3  71 05 01 5B 46 80 F2 71  2y..q...q..[F..q
0440: 05 01 F2 71 05 01 74 6C  6B 30 2B F2 71 05 01 47  ...q..tlk0+.q..G
0450: 80 23 52 2A 80 F0 FF FF  7F F0 FF FF 7F 71 32 30  .#R*.........q20
0460: 34 45 2A 80 F0 FF FF 7F  F0 FF FF 7F 71 32 30 35  4E*.........q205
0470: 0B 80 5B 46 80 F2 71 05  01 F2 71 05 01 74 6C 6B  ..[F..q...q..tlk
0480: 31 7C 00 F3 71 05 01 2B  F3 71 05 01 48 80 23 7C  1|..q..+.q..H.#|
0490: 01 F3 71 05 01 52 2A 80  F0 FF FF 7F F0 FF FF 7F  ..q..R*.........
04A0: 71 32 30 35 45 2A 80 F0  FF FF 7F F0 FF FF 7F 71  q205E*.........q
04B0: 32 30 36 0B 80 5D 0B 80  42 80 7B F2 71 05 01 5B  206..]..B.{.q..[
04C0: 46 80 F2 71 05 01 F2 71  05 01 75 64 65 30 2B F2  F..q...q..ude0+.
04D0: 71 05 01 49 80 23 5C 00  4A 80 5C 01 4A 80 9A 52  q..I.#\.J.\.J..R
04E0: 2A 80 F0 FF FF 7F F0 FF  FF 7F 71 32 30 36 45 2A  *.........q206E*
04F0: 80 F0 FF FF 7F F0 FF FF  7F 71 32 32 36 0B 80 2B  .........q226..+
0500: F2 71 05 01 4B 80 23 52  2A 80 F0 FF FF 7F F0 FF  .q..K.#R*.......
0510: FF 7F 71 32 32 36 45 2A  80 F0 FF FF 7F F0 FF FF  ..q226E*........
0520: 7F 71 32 30 37 0B 80 66  44 80 F3 71 05 01 F3 71  .q207..fD..q...q
0530: 05 01 74 6C 6B 30 4E 01  F0 FF FF 7F 2B F3 71 05  ..tlk0N.....+.q.
0540: 01 4C 80 23 52 2A 80 F0  FF FF 7F F0 FF FF 7F 71  .L.#R*.........q
0550: 32 30 37 45 2A 80 F0 FF  FF 7F F0 FF FF 7F 71 32  207E*.........q2
0560: 30 38 0B 80 66 44 80 F3  71 05 01 F3 71 05 01 74  08..fD..q...q..t
0570: 6C 6B 31 5B 46 80 F2 71  05 01 F2 71 05 01 75 64  lk1[F..q...q..ud
0580: 65 31 2B F2 71 05 01 4D  80 23 1C 4E 80 2B F2 71  e1+.q..M.#.N.+.q
0590: 05 01 4F 80 23 52 2A 80  F0 FF FF 7F F0 FF FF 7F  ..O.#R*.........
05A0: 71 32 30 38 45 2A 80 F0  FF FF 7F F0 FF FF 7F 71  q208E*.........q
05B0: 32 30 39 0B 80 4E 00 F0  FF FF 7F 1C 4E 80 2B F2  209..N......N.+.
05C0: 71 05 01 50 80 23 6E F4  71 05 01 51 80 99 F4 71  q..P.#n.q..Q...q
05D0: 05 01 52 2A 80 F0 FF FF  7F F0 FF FF 7F 71 32 30  ..R*.........q20
05E0: 39 45 2A 80 F0 FF FF 7F  F0 FF FF 7F 71 32 32 32  9E*.........q222
05F0: 0B 80 6E F3 71 05 01 0C  80 99 F3 71 05 01 1C 2E  ..n.q......q....
0600: 80 29 10 F0 FF FF 7F 48  02 02 10 0C 80 80 33 06  .).....H......3.
0610: 52 2A 80 F0 FF FF 7F F0  FF FF 7F 71 32 32 32 45  R*.........q222E
0620: 2A 80 F0 FF FF 7F F0 FF  FF 7F 71 68 6D 31 0B 80  *.........qhm1..
0630: 01 60 07 02 02 10 52 80  80 5E 06 52 2A 80 F0 FF  .`....R..^.R*...
0640: FF 7F F0 FF FF 7F 71 32  32 32 45 2A 80 F0 FF FF  ......q222E*....
0650: 7F F0 FF FF 7F 71 68 6D  31 0B 80 01 60 07 02 02  .....qhm1...`...
0660: 10 53 80 80 89 06 52 2A  80 F0 FF FF 7F F0 FF FF  .S....R*........
0670: 7F 71 32 32 32 45 2A 80  F0 FF FF 7F F0 FF FF 7F  .q222E*.........
0680: 71 68 6D 31 0B 80 01 60  07 02 02 10 54 80 80 B4  qhm1...`....T...
0690: 06 52 2A 80 F0 FF FF 7F  F0 FF FF 7F 71 32 32 32  .R*.........q222
06A0: 45 2A 80 F0 FF FF 7F F0  FF FF 7F 71 68 6D 31 0B  E*.........qhm1.
06B0: 80 01 60 07 02 02 10 55  80 80 DF 06 52 2A 80 F0  ..`....U....R*..
06C0: FF FF 7F F0 FF FF 7F 71  32 32 32 45 2A 80 F0 FF  .......q222E*...
06D0: FF 7F F0 FF FF 7F 71 74  72 31 0B 80 01 60 07 02  ......qtr1...`..
06E0: 02 10 56 80 80 0A 07 52  2A 80 F0 FF FF 7F F0 FF  ..V....R*.......
06F0: FF 7F 71 32 32 32 45 2A  80 F0 FF FF 7F F0 FF FF  ..q222E*........
0700: 7F 71 74 72 31 0B 80 01  60 07 02 02 10 51 80 80  .qtr1...`....Q..
0710: 35 07 52 2A 80 F0 FF FF  7F F0 FF FF 7F 71 32 32  5.R*.........q22
0720: 32 45 2A 80 F0 FF FF 7F  F0 FF FF 7F 71 68 6D 31  2E*.........qhm1
0730: 0B 80 01 60 07 02 02 10  57 80 80 60 07 52 2A 80  ...`....W..`.R*.
0740: F0 FF FF 7F F0 FF FF 7F  71 32 32 32 45 2A 80 F0  ........q222E*..
0750: FF FF 7F F0 FF FF 7F 71  67 6C 31 0B 80 01 60 07  .......qgl1...`.
0760: 6E F0 FF FF 7F 58 80 99  F0 FF FF 7F 1C 2E 80 52  n....X.........R
0770: 2A 80 F0 FF FF 7F F0 FF  FF 7F 71 68 6D 31 52 2A  *.........qhm1R*
0780: 80 F0 FF FF 7F F0 FF FF  7F 71 68 6D 31 52 2A 80  .........qhm1R*.
0790: F0 FF FF 7F F0 FF FF 7F  71 65 6D 31 52 2A 80 F0  ........qem1R*..
07A0: FF FF 7F F0 FF FF 7F 71  65 6D 31 52 2A 80 F0 FF  .......qem1R*...
07B0: FF 7F F0 FF FF 7F 71 74  72 31 52 2A 80 F0 FF FF  ......qtr1R*....
07C0: 7F F0 FF FF 7F 71 6D 74  31 52 2A 80 F0 FF FF 7F  .....qmt1R*.....
07D0: F0 FF FF 7F 71 67 6C 31  45 2A 80 F0 FF FF 7F F0  ....qgl1E*......
07E0: FF FF 7F 71 32 31 30 0B  80 7B F2 71 05 01 7B B3  ...q210..{.q..{.
07F0: 71 05 01 7B F0 FF FF 7F  59 04 F2 71 05 01 29 80  q..{....Y..q..).
0800: 27 10 F2 71 05 01 1E 1C  4E 80 52 2A 80 F0 FF FF  '..q....N.R*....
0810: 7F F0 FF FF 7F 71 32 31  30 45 2A 80 F0 FF FF 7F  .....q210E*.....
0820: F0 FF FF 7F 71 32 32 34  0B 80 7A 00 F2 71 05 01  ....q224..z..q..
0830: BA F2 71 05 01 59 80 5A  80 02 80 5B 80 27 10 F2  ..q..Y.Z...[.'..
0840: 71 05 01 1F 5B 40 80 B3  71 05 01 B3 71 05 01 75  q...[@..q...q..u
0850: 64 65 31 53 B3 71 05 01  B3 71 05 01 75 64 65 31  de1S.q...q..ude1
0860: 59 04 B3 71 05 01 0E 80  27 10 B3 71 05 01 18 1C  Y..q....'..q....
0870: 4E 80 52 2A 80 F0 FF FF  7F F0 FF FF 7F 71 32 32  N.R*.........q22
0880: 34 45 2A 80 F0 FF FF 7F  F0 FF FF 7F 71 32 32 35  4E*.........q225
0890: 0B 80 7A 00 F2 71 05 01  7A 00 B3 71 05 01 BA F2  ..z..q..z..q....
08A0: 71 05 01 5C 80 5D 80 02  80 5E 80 BA B3 71 05 01  q..\.]...^...q..
08B0: 5F 80 60 80 02 80 61 80  27 10 F2 71 05 01 20 27  _.`...a.'..q.. '
08C0: 10 B3 71 05 01 19 1C 4E  80 1C 42 80 5D 0B 80 42  ..q....N..B.]..B
08D0: 80 45 23 80 F0 FF FF 7F  F0 FF FF 7F 66 64 6F 32  .E#.........fdo2
08E0: 0B 80 55 23 80 F0 FF FF  7F F0 FF FF 7F 66 64 6F  ..U#.........fdo
08F0: 32 52 2A 80 F0 FF FF 7F  F0 FF FF 7F 71 32 32 35  2R*.........q225
0900: 5D 0B 80 42 80 4A F3 71  05 01 F2 71 05 01 4A F4  ]..B.J.q...q..J.
0910: 71 05 01 F2 71 05 01 4A  F0 FF FF 7F F2 71 05 01  q...q..J.....q..
0920: 7B F3 71 05 01 7B F4 71  05 01 7B F0 FF FF 7F 1C  {.q..{.q..{.....
0930: 1A 80 45 62 80 F8 FF FF  7F F8 FF FF 7F 64 63 6C  ..Eb.........dcl
0940: 73 0B 80 4E 01 F2 71 05  01 4E 01 B3 71 05 01 27  s..N..q..N..q..'
0950: 10 41 72 05 01 04 5C 00  63 80 5C 01 63 80 1C 64  .Ar...\.c.\.c..d
0960: 80 9A 45 2A 80 F0 FF FF  7F F0 FF FF 7F 71 32 31  ..E*.........q21
0970: 31 0B 80 45 23 80 F0 FF  FF 7F F0 FF FF 7F 66 64  1..E#.........fd
0980: 69 32 0B 80 55 23 80 F0  FF FF 7F F0 FF FF 7F 66  i2..U#.........f
0990: 64 69 32 2B F3 71 05 01  65 80 23 52 2A 80 F0 FF  di2+.q..e.#R*...
09A0: FF 7F F0 FF FF 7F 71 32  31 31 45 2A 80 F0 FF FF  ......q211E*....
09B0: 7F F0 FF FF 7F 71 32 31  32 0B 80 2B F4 71 05 01  .....q212..+.q..
09C0: 66 80 23 52 2A 80 F0 FF  FF 7F F0 FF FF 7F 71 32  f.#R*.........q2
09D0: 31 32 45 2A 80 F0 FF FF  7F F0 FF FF 7F 71 32 31  12E*.........q21
09E0: 33 0B 80 4A F0 FF FF 7F  F4 71 05 01 4A F3 71 05  3..J.....q..J.q.
09F0: 01 F4 71 05 01 6F 76 F3  71 05 01 2B F3 71 05 01  ..q..ov.q..+.q..
0A00: 67 80 23 52 2A 80 F0 FF  FF 7F F0 FF FF 7F 71 32  g.#R*.........q2
0A10: 31 33 45 2A 80 F0 FF FF  7F F0 FF FF 7F 71 32 31  13E*.........q21
0A20: 34 0B 80 4A F4 71 05 01  F3 71 05 01 6F 76 F4 71  4..J.q...q..ov.q
0A30: 05 01 2B F4 71 05 01 68  80 23 52 2A 80 F0 FF FF  ..+.q..h.#R*....
0A40: 7F F0 FF FF 7F 71 32 31  34 45 2A 80 F0 FF FF 7F  .....q214E*.....
0A50: F0 FF FF 7F 71 32 31 35  0B 80 2B F4 71 05 01 69  ....q215..+.q..i
0A60: 80 23 52 2A 80 F0 FF FF  7F F0 FF FF 7F 71 32 31  .#R*.........q21
0A70: 35 45 2A 80 F0 FF FF 7F  F0 FF FF 7F 71 32 31 36  5E*.........q216
0A80: 0B 80 7C 00 F3 71 05 01  2B F3 71 05 01 6A 80 23  ..|..q..+.q..j.#
0A90: 7C 01 F3 71 05 01 52 2A  80 F0 FF FF 7F F0 FF FF  |..q..R*........
0AA0: 7F 71 32 31 36 45 2A 80  F0 FF FF 7F F0 FF FF 7F  .q216E*.........
0AB0: 71 32 32 39 0B 80 6E F4  71 05 01 24 80 99 F4 71  q229..n.q..$...q
0AC0: 05 01 2B F4 71 05 01 6B  80 23 52 2A 80 F0 FF FF  ..+.q..k.#R*....
0AD0: 7F F0 FF FF 7F 71 32 32  39 45 2A 80 F0 FF FF 7F  .....q229E*.....
0AE0: F0 FF FF 7F 71 32 31 38  0B 80 2B F4 71 05 01 6C  ....q218..+.q..l
0AF0: 80 23 2B F4 71 05 01 6D  80 23 59 04 F4 71 05 01  .#+.q..m.#Y..q..
0B00: 0E 80 27 10 F4 71 05 01  19 1C 2E 80 52 2A 80 F0  ..'..q......R*..
0B10: FF FF 7F F0 FF FF 7F 71  32 31 38 45 2A 80 F0 FF  .......q218E*...
0B20: FF 7F F0 FF FF 7F 71 32  32 30 0B 80 BA F0 FF FF  ......q220......
0B30: 7F 6E 80 6F 80 02 80 70  80 59 04 F3 71 05 01 0E  .n.o...p.Y..q...
0B40: 80 27 10 F3 71 05 01 21  2B F3 71 05 01 71 80 23  .'..q..!+.q..q.#
0B50: 1C 4E 80 4A F0 FF FF 7F  41 72 05 01 7B F0 FF FF  .N.J....Ar..{...
0B60: 7F 52 2A 80 F0 FF FF 7F  F0 FF FF 7F 71 32 32 30  .R*.........q220
0B70: 45 2A 80 F0 FF FF 7F F0  FF FF 7F 71 32 32 38 0B  E*.........q228.
0B80: 80 BA F4 71 05 01 72 80  73 80 02 80 74 80 27 10  ...q..r.s...t.'.
0B90: F4 71 05 01 1A 1C 75 80  1C 42 80 52 2A 80 F0 FF  .q....u..B.R*...
0BA0: FF 7F F0 FF FF 7F 71 32  32 38 45 2A 80 F0 FF FF  ......q228E*....
0BB0: 7F F0 FF FF 7F 71 32 32  31 0B 80 BA F0 FF FF 7F  .....q221.......
0BC0: 32 80 33 80 02 80 76 80  27 10 41 72 05 01 04 4A  2.3...v.'.Ar...J
0BD0: F3 71 05 01 F0 FF FF 7F  6F 76 F3 71 05 01 66 44  .q......ov.q..fD
0BE0: 80 F3 71 05 01 F3 71 05  01 74 6C 6B 30 2B F3 71  ..q...q..tlk0+.q
0BF0: 05 01 77 80 23 52 2A 80  F0 FF FF 7F F0 FF FF 7F  ..w.#R*.........
0C00: 71 32 32 31 29 10 F0 FF  FF 7F 48 02 02 10 0C 80  q221).....H.....
0C10: 80 36 0C 52 2A 80 F0 FF  FF 7F F0 FF FF 7F 71 32  .6.R*.........q2
0C20: 32 32 45 2A 80 F0 FF FF  7F F0 FF FF 7F 71 68 6D  22E*.........qhm
0C30: 32 0B 80 01 63 0D 02 02  10 52 80 80 61 0C 52 2A  2...c....R..a.R*
0C40: 80 F0 FF FF 7F F0 FF FF  7F 71 32 32 32 45 2A 80  .........q222E*.
0C50: F0 FF FF 7F F0 FF FF 7F  71 68 6D 32 0B 80 01 63  ........qhm2...c
0C60: 0D 02 02 10 53 80 80 8C  0C 52 2A 80 F0 FF FF 7F  ....S....R*.....
0C70: F0 FF FF 7F 71 32 32 32  45 2A 80 F0 FF FF 7F F0  ....q222E*......
0C80: FF FF 7F 71 65 6D 32 0B  80 01 63 0D 02 02 10 54  ...qem2...c....T
0C90: 80 80 B7 0C 52 2A 80 F0  FF FF 7F F0 FF FF 7F 71  ....R*.........q
0CA0: 32 32 32 45 2A 80 F0 FF  FF 7F F0 FF FF 7F 71 65  222E*.........qe
0CB0: 6D 32 0B 80 01 63 0D 02  02 10 55 80 80 E2 0C 52  m2...c....U....R
0CC0: 2A 80 F0 FF FF 7F F0 FF  FF 7F 71 32 32 32 45 2A  *.........q222E*
0CD0: 80 F0 FF FF 7F F0 FF FF  7F 71 74 72 32 0B 80 01  .........qtr2...
0CE0: 63 0D 02 02 10 56 80 80  0D 0D 52 2A 80 F0 FF FF  c....V....R*....
0CF0: 7F F0 FF FF 7F 71 32 32  32 45 2A 80 F0 FF FF 7F  .....q222E*.....
0D00: F0 FF FF 7F 71 74 72 32  0B 80 01 63 0D 02 02 10  ....qtr2...c....
0D10: 51 80 80 38 0D 52 2A 80  F0 FF FF 7F F0 FF FF 7F  Q..8.R*.........
0D20: 71 32 32 32 45 2A 80 F0  FF FF 7F F0 FF FF 7F 71  q222E*.........q
0D30: 6D 74 32 0B 80 01 63 0D  02 02 10 57 80 80 63 0D  mt2...c....W..c.
0D40: 52 2A 80 F0 FF FF 7F F0  FF FF 7F 71 32 32 32 45  R*.........q222E
0D50: 2A 80 F0 FF FF 7F F0 FF  FF 7F 71 67 6C 32 0B 80  *.........qgl2..
0D60: 01 63 0D 66 44 80 F3 71  05 01 F3 71 05 01 74 6C  .c.fD..q...q..tl
0D70: 6B 31 BA F3 71 05 01 78  80 79 80 02 80 7A 80 4A  k1..q..x.y...z.J
0D80: F3 71 05 01 41 72 05 01  4B F0 FF FF 7F 7B 80 6F  .q..Ar..K....{.o
0D90: 76 F0 FF FF 7F 6E F0 FF  FF 7F 51 80 99 F0 FF FF  v....n....Q.....
0DA0: 7F 1C 2E 80 59 04 F0 FF  FF 7F 7C 80 27 10 F0 FF  ....Y.....|.'...
0DB0: FF 7F 53 1C 1A 80 59 04  F3 71 05 01 0E 80 27 10  ..S...Y..q....'.
0DC0: F3 71 05 01 22 52 2A 80  F0 FF FF 7F F0 FF FF 7F  .q.."R*.........
0DD0: 71 68 6D 32 52 2A 80 F0  FF FF 7F F0 FF FF 7F 71  qhm2R*.........q
0DE0: 68 6D 32 52 2A 80 F0 FF  FF 7F F0 FF FF 7F 71 65  hm2R*.........qe
0DF0: 6D 32 52 2A 80 F0 FF FF  7F F0 FF FF 7F 71 65 6D  m2R*.........qem
0E00: 32 52 2A 80 F0 FF FF 7F  F0 FF FF 7F 71 74 72 32  2R*.........qtr2
0E10: 52 2A 80 F0 FF FF 7F F0  FF FF 7F 71 6D 74 32 52  R*.........qmt2R
0E20: 2A 80 F0 FF FF 7F F0 FF  FF 7F 71 67 6C 32 45 2A  *.........qgl2E*
0E30: 80 F0 FF FF 7F F0 FF FF  7F 71 32 32 37 0B 80 1C  .........q227...
0E40: 08 80 45 62 80 F8 FF FF  7F F8 FF FF 7F 64 6F 70  ..Eb.........dop
0E50: 6E 0B 80 27 10 41 72 05  01 03 1C 07 80 45 23 80  n..'.Ar......E#.
0E60: F0 FF FF 7F F0 FF FF 7F  66 64 6F 32 0B 80 55 23  ........fdo2..U#
0E70: 80 F0 FF FF 7F F0 FF FF  7F 66 64 6F 32 52 2A 80  .........fdo2R*.
0E80: F0 FF FF 7F F0 FF FF 7F  71 32 32 37 27 10 41 72  ........q227'.Ar
0E90: 05 01 04 5D 0B 80 42 80  1C 2E 80 4E 00 F2 71 05  ...]..B....N..q.
0EA0: 01 4E 00 B3 71 05 01 BA  F0 FF FF 7F 7D 80 7E 80  .N..q.......}.~.
0EB0: 7F 80 80 80 7A 00 F0 FF  FF 7F 7A 00 F2 71 05 01  ....z.....z..q..
0EC0: 7A 00 B3 71 05 01 BA F2  71 05 01 81 80 82 80 38  z..q....q......8
0ED0: 80 83 80 BA B3 71 05 01  84 80 85 80 7F 80 86 80  .....q..........
0EE0: 5C 00 42 80 5C 01 42 80  9A 1C 1A 80 BA F0 FF FF  \.B.\.B.........
0EF0: 7F 87 80 88 80 38 80 89  80 1C 1A 80 45 2A 80 F0  .....8......E*..
0F00: FF FF 7F F0 FF FF 7F 71  33 31 39 0B 80 45 23 80  .......q319..E#.
0F10: F0 FF FF 7F F0 FF FF 7F  66 64 69 32 0B 80 55 23  ........fdi2..U#
0F20: 80 F0 FF FF 7F F0 FF FF  7F 66 64 69 32 1C 2E 80  .........fdi2...
0F30: 59 04 F2 71 05 01 0E 80  59 04 B3 71 05 01 0E 80  Y..q....Y..q....
0F40: 27 10 F2 71 05 01 21 27  10 B3 71 05 01 1A 1C 55  '..q..!'..q....U
0F50: 80 52 2A 80 F0 FF FF 7F  F0 FF FF 7F 71 33 31 39  .R*.........q319
0F60: 45 2A 80 F0 FF FF 7F F0  FF FF 7F 71 33 30 31 0B  E*.........q301.
0F70: 80 45 23 80 F0 FF FF 7F  F0 FF FF 7F 66 64 69 32  .E#.........fdi2
0F80: 0B 80 55 23 80 F0 FF FF  7F F0 FF FF 7F 66 64 69  ..U#.........fdi
0F90: 32 1C 8A 80 52 2A 80 F0  FF FF 7F F0 FF FF 7F 71  2...R*.........q
0FA0: 33 30 31 45 2A 80 F0 FF  FF 7F F0 FF FF 7F 71 33  301E*.........q3
0FB0: 30 32 0B 80 7A 00 B3 71  05 01 4A B3 71 05 01 F2  02..z..q..J.q...
0FC0: 71 05 01 6F 76 B3 71 05  01 2B B3 71 05 01 8B 80  q..ov.q..+.q....
0FD0: 23 52 2A 80 F0 FF FF 7F  F0 FF FF 7F 71 33 30 32  #R*.........q302
0FE0: 45 2A 80 F0 FF FF 7F F0  FF FF 7F 71 33 30 33 0B  E*.........q303.
0FF0: 80 1C 1A 80 2B F2 71 05  01 8C 80 23 52 2A 80 F0  ....+.q....#R*..
1000: FF FF 7F F0 FF FF 7F 71  33 30 33 45 2A 80 F0 FF  .......q303E*...
1010: FF 7F F0 FF FF 7F 71 33  30 34 0B 80 5B 40 80 B3  ......q304..[@..
1020: 71 05 01 B3 71 05 01 74  6B 62 30 BA F2 71 05 01  q...q..tkb0..q..
1030: 8D 80 8E 80 7F 80 8F 80  4A F2 71 05 01 B3 71 05  ........J.q...q.
1040: 01 2B B3 71 05 01 90 80  23 52 2A 80 F0 FF FF 7F  .+.q....#R*.....
1050: F0 FF FF 7F 71 33 30 34  45 2A 80 F0 FF FF 7F F0  ....q304E*......
1060: FF FF 7F 71 33 30 37 0B  80 5B 40 80 B3 71 05 01  ...q307..[@..q..
1070: B3 71 05 01 74 6B 62 31  5B 46 80 F2 71 05 01 F2  .q..tkb1[F..q...
1080: 71 05 01 75 64 65 30 2B  F2 71 05 01 91 80 23 52  q..ude0+.q....#R
1090: 2A 80 F0 FF FF 7F F0 FF  FF 7F 71 33 30 37 45 2A  *.........q307E*
10A0: 80 F0 FF FF 7F F0 FF FF  7F 71 33 30 38 0B 80 5B  .........q308..[
10B0: 40 80 B3 71 05 01 B3 71  05 01 74 6B 62 30 5D 0B  @..q...q..tkb0].
10C0: 80 64 80 2B B3 71 05 01  92 80 23 5B 40 80 B3 71  .d.+.q....#[@..q
10D0: 05 01 B3 71 05 01 74 6B  62 31 1C 4E 80 52 2A 80  ...q..tkb1.N.R*.
10E0: F0 FF FF 7F F0 FF FF 7F  71 33 30 38 45 2A 80 F0  ........q308E*..
10F0: FF FF 7F F0 FF FF 7F 71  33 32 30 0B 80 1C 4E 80  .......q320...N.
1100: 2B B3 71 05 01 93 80 23  7C 00 F2 71 05 01 2B F2  +.q....#|..q..+.
1110: 71 05 01 94 80 23 7C 01  F2 71 05 01 5C 00 95 80  q....#|..q..\...
1120: 5C 01 95 80 9A 52 2A 80  F0 FF FF 7F F0 FF FF 7F  \....R*.........
1130: 71 33 32 30 45 2A 80 F0  FF FF 7F F0 FF FF 7F 71  q320E*.........q
1140: 33 31 30 0B 80 5B 40 80  B3 71 05 01 B3 71 05 01  310..[@..q...q..
1150: 74 6B 62 30 2B B3 71 05  01 96 80 23 52 2A 80 F0  tkb0+.q....#R*..
1160: FF FF 7F F0 FF FF 7F 71  33 31 30 45 2A 80 F0 FF  .......q310E*...
1170: FF 7F F0 FF FF 7F 71 33  31 31 0B 80 5B 40 80 B3  ......q311..[@..
1180: 71 05 01 B3 71 05 01 74  6B 62 31 1C 42 80 52 2A  q...q..tkb1.B.R*
1190: 80 F0 FF FF 7F F0 FF FF  7F 71 33 31 31 45 2A 80  .........q311E*.
11A0: F0 FF FF 7F F0 FF FF 7F  71 33 31 32 0B 80 1C 42  ........q312...B
11B0: 80 52 2A 80 F0 FF FF 7F  F0 FF FF 7F 71 33 31 32  .R*.........q312
11C0: 45 2A 80 F0 FF FF 7F F0  FF FF 7F 71 33 31 33 0B  E*.........q313.
11D0: 80 1C 1A 80 2B F2 71 05  01 97 80 23 52 2A 80 F0  ....+.q....#R*..
11E0: FF FF 7F F0 FF FF 7F 71  33 31 33 45 2A 80 F0 FF  .......q313E*...
11F0: FF 7F F0 FF FF 7F 71 33  30 39 0B 80 7C 00 B3 71  ......q309..|..q
1200: 05 01 2B B3 71 05 01 98  80 23 7C 01 B3 71 05 01  ..+.q....#|..q..
1210: 52 2A 80 F0 FF FF 7F F0  FF FF 7F 71 33 30 39 45  R*.........q309E
1220: 2A 80 F0 FF FF 7F F0 FF  FF 7F 71 33 31 34 0B 80  *.........q314..
1230: 5B 46 80 F2 71 05 01 F2  71 05 01 75 64 65 31 2B  [F..q...q..ude1+
1240: F2 71 05 01 99 80 23 2B  F2 71 05 01 9A 80 23 1C  .q....#+.q....#.
1250: 1A 80 27 10 F2 71 05 01  22 1C 1A 80 52 2A 80 F0  ..'..q.."...R*..
1260: FF FF 7F F0 FF FF 7F 71  33 31 34 45 2A 80 F0 FF  .......q314E*...
1270: FF 7F F0 FF FF 7F 71 33  31 35 0B 80 1C 9B 80 52  ......q315.....R
1280: 2A 80 F0 FF FF 7F F0 FF  FF 7F 71 33 31 35 45 2A  *.........q315E*
1290: 80 F0 FF FF 7F F0 FF FF  7F 71 33 32 31 0B 80 1C  .........q321...
12A0: 9B 80 52 2A 80 F0 FF FF  7F F0 FF FF 7F 71 33 32  ..R*.........q32
12B0: 31 45 2A 80 F0 FF FF 7F  F0 FF FF 7F 71 33 31 36  1E*.........q316
12C0: 0B 80 4E 01 F2 71 05 01  7C 00 B3 71 05 01 2B B3  ..N..q..|..q..+.
12D0: 71 05 01 9C 80 23 7C 01  B3 71 05 01 27 10 B3 71  q....#|..q..'..q
12E0: 05 01 1B 1C 1A 80 52 2A  80 F0 FF FF 7F F0 FF FF  ......R*........
12F0: 7F 71 33 31 36 45 2A 80  F0 FF FF 7F F0 FF FF 7F  .q316E*.........
1300: 71 33 31 37 0B 80 1C 2E  80 45 23 80 F8 FF FF 7F  q317.....E#.....
1310: F8 FF FF 7F 66 64 6F 31  0B 80 55 23 80 F8 FF FF  ....fdo1..U#....
1320: 7F F8 FF FF 7F 66 64 6F  31 52 2A 80 F0 FF FF 7F  .....fdo1R*.....
1330: F0 FF FF 7F 71 33 31 37  1C 0C 80 35 9D 80 78 1C  ....q317...5..x.
1340: 0C 80 5C 00 42 80 5C 01  42 80 9A 46 00 1C 9E 80  ..\.B.\.B..F....
1350: 45 23 80 F8 FF FF 7F F8  FF FF 7F 66 64 69 31 0B  E#.........fdi1.
1360: 80 21 00                                          .!.             
```

#### Opcodes

```
  0: 0x0126 [0x42] SET_CLI_EVENT_CANCEL_DATA()
  1: 0x0127 [0x45] LOAD_SCHEDULED_TASK: Load scheduler "fdo1" with entities [EventEntity, EventEntity], work=[200*, 0*]
  2: 0x0138 [0x55] WAIT_LOAD_SCHEDULER: Wait for scheduler "fdo1" with entities [EventEntity, EventEntity], work=200*
  3: 0x0147 [0x46] CAMERA_CONTROL: Disable user control
  4: 0x0149 [0x38] SET_CLIENT_EVENT_MODE(mode=19*)
  5: 0x014C [0x20] SET_CLI_EVENT_UC_FLAG: Lock player control
  6: 0x014E [0x2F] Gentle Tiger (ID: 17134039/0x010571D7)->Render.Flags0 &= ~0x80000 // Bit 19
  7: 0x0154 [0x4E] SET_ENTITY_HIDE_FLAG: Show Gentle Tiger (ID: 17134039/0x010571D7)
  8: 0x015A [0x92] Gentle Tiger (ID: 17134039/0x010571D7)->Render.Flags3 ^= 0x01
  9: 0x0160 [0x94] LocalPlayer->Render.Flags3 ^= 0x01
 10: 0x0166 [0x94] Gentle Tiger (ID: 17134039/0x010571D7)->Render.Flags3 ^= 0x01
 11: 0x016C [0xBA] SET_ENTITY_POSITION(entity_id=LocalPlayer, pos_x=-201.526*, pos_z=-0.199*, pos_y=-9.998*, direction=220.0°*)
 12: 0x0179 [0x80] LOAD_WAIT(entity=LocalPlayer)
 13: 0x017E [0x80] LOAD_WAIT(entity=Gentle Tiger (ID: 17134039/0x010571D7))
 14: 0x0183 [0x4A] LocalPlayer looks at Gentle Tiger (ID: 17134039/0x010571D7)
 15: 0x018C [0x4A] Gentle Tiger (ID: 17134039/0x010571D7) looks at LocalPlayer
 16: 0x0195 [0x1C] WAIT(15* ticks)
 17: 0x0198 [0x45] LOAD_SCHEDULED_TASK: Load scheduler "q102" with entities [LocalPlayer, LocalPlayer], work=[451*, 0*]
 18: 0x01A9 [0x45] LOAD_SCHEDULED_TASK: Load scheduler "fdi1" with entities [EventEntity, EventEntity], work=[200*, 0*]
 19: 0x01BA [0x55] WAIT_LOAD_SCHEDULER: Wait for scheduler "fdi1" with entities [EventEntity, EventEntity], work=200*
 20: 0x01C9 [0x66] LOAD_EXT_SCHEDULER_MAIN: Load scheduler "tlk0" with entities [Gentle Tiger (ID: 17134039/0x010571D7), Gentle Tiger (ID: 17134039/0x010571D7)], work=69*
 21: 0x01D8 [0x2B] Gentle Tiger (ID: 17134039/0x010571D7) [13285*]:
    → "<Player>! I've heard all about the great news: Darksteel Hurricane is no more!"
 22: 0x01DF [0x23] WAIT_FOR_DIALOG_INTERACTION
 23: 0x01E0 [0x52] END_LOAD_SCHEDULER: End scheduler "q102" with entities [LocalPlayer, LocalPlayer], work=451*
 24: 0x01EF [0x45] LOAD_SCHEDULED_TASK: Load scheduler "q103" with entities [LocalPlayer, LocalPlayer], work=[451*, 0*]
 25: 0x0200 [0x2B] Gentle Tiger (ID: 17134039/0x010571D7) [13286*]:
    → "Now all citizens of Bastok--excluding myself, of course, because I was never intimidated--won't have to live in fear anymore! Hurrah!"
 26: 0x0207 [0x23] WAIT_FOR_DIALOG_INTERACTION
 27: 0x0208 [0x66] LOAD_EXT_SCHEDULER_MAIN: Load scheduler "tlk1" with entities [Gentle Tiger (ID: 17134039/0x010571D7), Gentle Tiger (ID: 17134039/0x010571D7)], work=69*
 28: 0x0217 [0x1C] WAIT(120* ticks)
 29: 0x021A [0x45] LOAD_SCHEDULED_TASK: Load scheduler "fdo2" with entities [LocalPlayer, LocalPlayer], work=[200*, 0*]
 30: 0x022B [0x55] WAIT_LOAD_SCHEDULER: Wait for scheduler "fdo2" with entities [LocalPlayer, LocalPlayer], work=200*
 31: 0x023A [0x52] END_LOAD_SCHEDULER: End scheduler "q103" with entities [LocalPlayer, LocalPlayer], work=451*
 32: 0x0249 [0x1C] WAIT(1* ticks)
 33: 0x024C [0x34] LOAD_UNLOAD_ZONE(zone_id=237*)
 34: 0x024F [0x77] SET_EVENT_TIME_WEATHER(hour=17*, weather=0*)
 35: 0x0254 [0x1C] WAIT(1* ticks)
 36: 0x0257 [0x75] LOAD_ROOM(Load indoor room, room=305*)
 37: 0x025B [0x75] LOAD_ROOM(No action)
 38: 0x025D [0x2F] Klara (ID: 17134066/0x010571F2)->Render.Flags0 &= ~0x80000 // Bit 19
 39: 0x0263 [0x2F] Zeid (ID: 17134003/0x010571B3)->Render.Flags0 &= ~0x80000 // Bit 19
 40: 0x0269 [0x2F] Five Moons (ID: 17134068/0x010571F4)->Render.Flags0 &= ~0x80000 // Bit 19
 41: 0x026F [0x2F] Nicolaus (ID: 17134067/0x010571F3)->Render.Flags0 &= ~0x80000 // Bit 19
 42: 0x0275 [0x2F] Unnamed NPC (ID: 17134145/0x01057241)->Render.Flags0 &= ~0x80000 // Bit 19
 43: 0x027B [0x4E] SET_ENTITY_HIDE_FLAG: Show Klara (ID: 17134066/0x010571F2)
 44: 0x0281 [0x4E] SET_ENTITY_HIDE_FLAG: Show Zeid (ID: 17134003/0x010571B3)
 45: 0x0287 [0x4E] SET_ENTITY_HIDE_FLAG: Show Five Moons (ID: 17134068/0x010571F4)
 46: 0x028D [0x4E] SET_ENTITY_HIDE_FLAG: Show Nicolaus (ID: 17134067/0x010571F3)
 47: 0x0293 [0x4E] SET_ENTITY_HIDE_FLAG: Show Unnamed NPC (ID: 17134145/0x01057241)
 48: 0x0299 [0x92] Klara (ID: 17134066/0x010571F2)->Render.Flags3 ^= 0x01
 49: 0x029F [0x92] Zeid (ID: 17134003/0x010571B3)->Render.Flags3 ^= 0x01
 50: 0x02A5 [0x92] Five Moons (ID: 17134068/0x010571F4)->Render.Flags3 ^= 0x01
 51: 0x02AB [0x92] Nicolaus (ID: 17134067/0x010571F3)->Render.Flags3 ^= 0x01
 52: 0x02B1 [0x94] Klara (ID: 17134066/0x010571F2)->Render.Flags3 ^= 0x01
 53: 0x02B7 [0x94] Zeid (ID: 17134003/0x010571B3)->Render.Flags3 ^= 0x01
 54: 0x02BD [0x94] Five Moons (ID: 17134068/0x010571F4)->Render.Flags3 ^= 0x01
 55: 0x02C3 [0x94] Nicolaus (ID: 17134067/0x010571F3)->Render.Flags3 ^= 0x01
 56: 0x02C9 [0x94] Unnamed NPC (ID: 17134145/0x01057241)->Render.Flags3 ^= 0x01
 57: 0x02CF [0xBA] SET_ENTITY_POSITION(entity_id=LocalPlayer, pos_x=94.163*, pos_z=10.218*, pos_y=-20.170*, direction=27.6°*)
 58: 0x02DC [0xBA] SET_ENTITY_POSITION(entity_id=Klara (ID: 17134066/0x010571F2), pos_x=98.385*, pos_z=12.780*, pos_y=-20.185*, direction=175.8°*)
 59: 0x02E9 [0xBA] SET_ENTITY_POSITION(entity_id=Zeid (ID: 17134003/0x010571B3), pos_x=96.360*, pos_z=10.189*, pos_y=-20.170*, direction=328.8°*)
 60: 0x02F6 [0xBA] SET_ENTITY_POSITION(entity_id=Five Moons (ID: 17134068/0x010571F4), pos_x=93.919*, pos_z=14.702*, pos_y=-20.185*, direction=328.8°*)
 61: 0x0303 [0xBA] SET_ENTITY_POSITION(entity_id=Nicolaus (ID: 17134067/0x010571F3), pos_x=96.334*, pos_z=14.934*, pos_y=-20.185*, direction=328.8°*)
 62: 0x0310 [0x4A] LocalPlayer looks at Klara (ID: 17134066/0x010571F2)
 63: 0x0319 [0x4A] Zeid (ID: 17134003/0x010571B3) looks at Klara (ID: 17134066/0x010571F2)
 64: 0x0322 [0x4A] Five Moons (ID: 17134068/0x010571F4) looks at Klara (ID: 17134066/0x010571F2)
 65: 0x032B [0x4A] Nicolaus (ID: 17134067/0x010571F3) looks at Klara (ID: 17134066/0x010571F2)
 66: 0x0334 [0x80] LOAD_WAIT(entity=Klara (ID: 17134066/0x010571F2))
 67: 0x0339 [0x80] LOAD_WAIT(entity=Zeid (ID: 17134003/0x010571B3))
 68: 0x033E [0x80] LOAD_WAIT(entity=Five Moons (ID: 17134068/0x010571F4))
 69: 0x0343 [0x80] LOAD_WAIT(entity=Nicolaus (ID: 17134067/0x010571F3))
 70: 0x0348 [0x5B] LOAD_EXT_SCHEDULER: Load scheduler "ude0" with entities [Zeid (ID: 17134003/0x010571B3), Zeid (ID: 17134003/0x010571B3)], work=244*
 71: 0x0357 [0x5C] MUSIC_CONTROL: Set Idle (Day) music to song 145*
 72: 0x035B [0x5C] MUSIC_CONTROL: Set Idle (Night) music to song 145*
 73: 0x035F [0x9A] WAIT_MUSIC_SERVER()
 74: 0x0360 [0x1C] WAIT(30* ticks)
 75: 0x0363 [0x45] LOAD_SCHEDULED_TASK: Load scheduler "q201" with entities [LocalPlayer, LocalPlayer], work=[451*, 0*]
 76: 0x0374 [0x45] LOAD_SCHEDULED_TASK: Load scheduler "fdi2" with entities [LocalPlayer, LocalPlayer], work=[200*, 0*]
 77: 0x0385 [0x55] WAIT_LOAD_SCHEDULER: Wait for scheduler "fdi2" with entities [LocalPlayer, LocalPlayer], work=200*
 78: 0x0394 [0x1C] WAIT(180* ticks)
 79: 0x0397 [0x52] END_LOAD_SCHEDULER: End scheduler "q201" with entities [LocalPlayer, LocalPlayer], work=451*
 80: 0x03A6 [0x45] LOAD_SCHEDULED_TASK: Load scheduler "q202" with entities [LocalPlayer, LocalPlayer], work=[451*, 0*]
 81: 0x03B7 [0x6E] Five Moons (ID: 17134068/0x010571F4) uses emote 19*
 82: 0x03BE [0x99] Wait for Five Moons (ID: 17134068/0x010571F4) animation to complete
 83: 0x03C3 [0x2B] Five Moons (ID: 17134068/0x010571F4) [13287*]:
    → "I see... So that was how the legend of Darksteel Hurricane came to an end..."
 84: 0x03CA [0x23] WAIT_FOR_DIALOG_INTERACTION
 85: 0x03CB [0x52] END_LOAD_SCHEDULER: End scheduler "q202" with entities [LocalPlayer, LocalPlayer], work=451*
 86: 0x03DA [0x45] LOAD_SCHEDULED_TASK: Load scheduler "q203" with entities [LocalPlayer, LocalPlayer], work=[451*, 0*]
 87: 0x03EB [0x66] LOAD_EXT_SCHEDULER_MAIN: Load scheduler "thk1" with entities [Nicolaus (ID: 17134067/0x010571F3), Nicolaus (ID: 17134067/0x010571F3)], work=9*
 88: 0x03FA [0x2B] Nicolaus (ID: 17134067/0x010571F3) [13288*]:
    → "Unfortunately, the man's motives for choosing this particular juncture to resume his bloody reign went with him to the grave. For me, at least, this spells several sleepless nights to come."
 89: 0x0401 [0x23] WAIT_FOR_DIALOG_INTERACTION
 90: 0x0402 [0x52] END_LOAD_SCHEDULER: End scheduler "q203" with entities [LocalPlayer, LocalPlayer], work=451*
 91: 0x0411 [0x45] LOAD_SCHEDULED_TASK: Load scheduler "q204" with entities [LocalPlayer, LocalPlayer], work=[451*, 0*]
 92: 0x0422 [0x66] LOAD_EXT_SCHEDULER_MAIN: Load scheduler "thk2" with entities [Nicolaus (ID: 17134067/0x010571F3), Nicolaus (ID: 17134067/0x010571F3)], work=9*
 93: 0x0431 [0x79] Klara (ID: 17134066/0x010571F2) looks at Nicolaus (ID: 17134067/0x010571F3) (Basic look)
 94: 0x043B [0x5B] LOAD_EXT_SCHEDULER: Load scheduler "tlk0" with entities [Klara (ID: 17134066/0x010571F2), Klara (ID: 17134066/0x010571F2)], work=1346*
 95: 0x044A [0x2B] Klara (ID: 17134066/0x010571F2) [13289*]:
    → "Be that as it may, we have to content ourselves with the knowledge that no more innocent blood will be shed. Besides, with the new responsibilities that have been entrusted to our unit, you won't have the luxury of time to dwell on such matters."
 96: 0x0451 [0x23] WAIT_FOR_DIALOG_INTERACTION
 97: 0x0452 [0x52] END_LOAD_SCHEDULER: End scheduler "q204" with entities [LocalPlayer, LocalPlayer], work=451*
 98: 0x0461 [0x45] LOAD_SCHEDULED_TASK: Load scheduler "q205" with entities [LocalPlayer, LocalPlayer], work=[451*, 0*]
 99: 0x0472 [0x5B] LOAD_EXT_SCHEDULER: Load scheduler "tlk1" with entities [Klara (ID: 17134066/0x010571F2), Klara (ID: 17134066/0x010571F2)], work=1346*
100: 0x0481 [0x7C] Nicolaus (ID: 17134067/0x010571F3)->Render.Flags2 |= 0x00
101: 0x0487 [0x2B] Nicolaus (ID: 17134067/0x010571F3) [13290*]:
    → "...?"
102: 0x048E [0x23] WAIT_FOR_DIALOG_INTERACTION
103: 0x048F [0x7C] Nicolaus (ID: 17134067/0x010571F3)->Render.Flags2 |= 0x01
104: 0x0495 [0x52] END_LOAD_SCHEDULER: End scheduler "q205" with entities [LocalPlayer, LocalPlayer], work=451*
105: 0x04A4 [0x45] LOAD_SCHEDULED_TASK: Load scheduler "q206" with entities [LocalPlayer, LocalPlayer], work=[451*, 0*]
106: 0x04B5 [0x5D] SET_MUSIC_VOLUME(volume=0*, fade_time=180*)
107: 0x04BA [0x7B] Klara (ID: 17134066/0x010571F2) stops talking
108: 0x04BF [0x5B] LOAD_EXT_SCHEDULER: Load scheduler "ude0" with entities [Klara (ID: 17134066/0x010571F2), Klara (ID: 17134066/0x010571F2)], work=1346*
109: 0x04CE [0x2B] Klara (ID: 17134066/0x010571F2) [13291*]:
    → "I received a message from Chairman Pale Eagle just moments ago."
110: 0x04D5 [0x23] WAIT_FOR_DIALOG_INTERACTION
111: 0x04D6 [0x5C] MUSIC_CONTROL: Set Idle (Day) music to song 246*
112: 0x04DA [0x5C] MUSIC_CONTROL: Set Idle (Night) music to song 246*
113: 0x04DE [0x9A] WAIT_MUSIC_SERVER()
114: 0x04DF [0x52] END_LOAD_SCHEDULER: End scheduler "q206" with entities [LocalPlayer, LocalPlayer], work=451*
115: 0x04EE [0x45] LOAD_SCHEDULED_TASK: Load scheduler "q226" with entities [LocalPlayer, LocalPlayer], work=[451*, 0*]
116: 0x04FF [0x2B] Klara (ID: 17134066/0x010571F2) [13292*]:
    → "The Senate has passed a motion to reappoint the Mythril Musketeers to its customary post by the president's side."
117: 0x0506 [0x23] WAIT_FOR_DIALOG_INTERACTION
118: 0x0507 [0x52] END_LOAD_SCHEDULER: End scheduler "q226" with entities [LocalPlayer, LocalPlayer], work=451*
119: 0x0516 [0x45] LOAD_SCHEDULED_TASK: Load scheduler "q207" with entities [LocalPlayer, LocalPlayer], work=[451*, 0*]
120: 0x0527 [0x66] LOAD_EXT_SCHEDULER_MAIN: Load scheduler "tlk0" with entities [Nicolaus (ID: 17134067/0x010571F3), Nicolaus (ID: 17134067/0x010571F3)], work=9*
121: 0x0536 [0x4E] SET_ENTITY_HIDE_FLAG: Hide LocalPlayer
122: 0x053C [0x2B] Nicolaus (ID: 17134067/0x010571F3) [13293*]:
    → "Truly, Captain!?"
123: 0x0543 [0x23] WAIT_FOR_DIALOG_INTERACTION
124: 0x0544 [0x52] END_LOAD_SCHEDULER: End scheduler "q207" with entities [LocalPlayer, LocalPlayer], work=451*
125: 0x0553 [0x45] LOAD_SCHEDULED_TASK: Load scheduler "q208" with entities [LocalPlayer, LocalPlayer], work=[451*, 0*]
126: 0x0564 [0x66] LOAD_EXT_SCHEDULER_MAIN: Load scheduler "tlk1" with entities [Nicolaus (ID: 17134067/0x010571F3), Nicolaus (ID: 17134067/0x010571F3)], work=9*
127: 0x0573 [0x5B] LOAD_EXT_SCHEDULER: Load scheduler "ude1" with entities [Klara (ID: 17134066/0x010571F2), Klara (ID: 17134066/0x010571F2)], work=1346*
128: 0x0582 [0x2B] Klara (ID: 17134066/0x010571F2) [13294*]:
    → "I am pleased to say so. It would appear the powers that be recognized our contribution towards solving these latest incidents."
129: 0x0589 [0x23] WAIT_FOR_DIALOG_INTERACTION
130: 0x058A [0x1C] WAIT(60* ticks)
131: 0x058D [0x2B] Klara (ID: 17134066/0x010571F2) [13295*]:
    → "A ceremony will take place in the President's Office shortly. Zeid and I have been invited to attend as representatives of our unit."
132: 0x0594 [0x23] WAIT_FOR_DIALOG_INTERACTION
133: 0x0595 [0x52] END_LOAD_SCHEDULER: End scheduler "q208" with entities [LocalPlayer, LocalPlayer], work=451*
134: 0x05A4 [0x45] LOAD_SCHEDULED_TASK: Load scheduler "q209" with entities [LocalPlayer, LocalPlayer], work=[451*, 0*]
135: 0x05B5 [0x4E] SET_ENTITY_HIDE_FLAG: Show LocalPlayer
136: 0x05BB [0x1C] WAIT(60* ticks)
137: 0x05BE [0x2B] Klara (ID: 17134066/0x010571F2) [13296*]:
    → "Nicolaus, prepare the report to be filed to the Security Office. I will be making my rounds to the Department of Industry in the meantime."
138: 0x05C5 [0x23] WAIT_FOR_DIALOG_INTERACTION
139: 0x05C6 [0x6E] Five Moons (ID: 17134068/0x010571F4) uses emote 7*
140: 0x05CD [0x99] Wait for Five Moons (ID: 17134068/0x010571F4) animation to complete
141: 0x05D2 [0x52] END_LOAD_SCHEDULER: End scheduler "q209" with entities [LocalPlayer, LocalPlayer], work=451*
142: 0x05E1 [0x45] LOAD_SCHEDULED_TASK: Load scheduler "q222" with entities [LocalPlayer, LocalPlayer], work=[451*, 0*]
143: 0x05F2 [0x6E] Nicolaus (ID: 17134067/0x010571F3) uses emote 1*
144: 0x05F9 [0x99] Wait for Nicolaus (ID: 17134067/0x010571F3) animation to complete
145: 0x05FE [0x1C] WAIT(120* ticks)
146: 0x0601 [0x29] REQ_SET_WAIT(priority=0x10, entity_id=LocalPlayer, tag_num=0x48)
147: 0x0608 [0x02] IF !(Work_Zone[2] == 1*) GOTO 0x0633
148: 0x0610 [0x52] END_LOAD_SCHEDULER: End scheduler "q222" with entities [LocalPlayer, LocalPlayer], work=451*
149: 0x061F [0x45] LOAD_SCHEDULED_TASK: Load scheduler "qhm1" with entities [LocalPlayer, LocalPlayer], work=[451*, 0*]
150: 0x0630 [0x01] GOTO 0x0760
151: 0x0633 [0x02] IF !(Work_Zone[2] == 2*) GOTO 0x065E
152: 0x063B [0x52] END_LOAD_SCHEDULER: End scheduler "q222" with entities [LocalPlayer, LocalPlayer], work=451*
153: 0x064A [0x45] LOAD_SCHEDULED_TASK: Load scheduler "qhm1" with entities [LocalPlayer, LocalPlayer], work=[451*, 0*]
154: 0x065B [0x01] GOTO 0x0760
155: 0x065E [0x02] IF !(Work_Zone[2] == 3*) GOTO 0x0689
156: 0x0666 [0x52] END_LOAD_SCHEDULER: End scheduler "q222" with entities [LocalPlayer, LocalPlayer], work=451*
157: 0x0675 [0x45] LOAD_SCHEDULED_TASK: Load scheduler "qhm1" with entities [LocalPlayer, LocalPlayer], work=[451*, 0*]
158: 0x0686 [0x01] GOTO 0x0760
159: 0x0689 [0x02] IF !(Work_Zone[2] == 4*) GOTO 0x06B4
160: 0x0691 [0x52] END_LOAD_SCHEDULER: End scheduler "q222" with entities [LocalPlayer, LocalPlayer], work=451*
161: 0x06A0 [0x45] LOAD_SCHEDULED_TASK: Load scheduler "qhm1" with entities [LocalPlayer, LocalPlayer], work=[451*, 0*]
162: 0x06B1 [0x01] GOTO 0x0760
163: 0x06B4 [0x02] IF !(Work_Zone[2] == 5*) GOTO 0x06DF
164: 0x06BC [0x52] END_LOAD_SCHEDULER: End scheduler "q222" with entities [LocalPlayer, LocalPlayer], work=451*
165: 0x06CB [0x45] LOAD_SCHEDULED_TASK: Load scheduler "qtr1" with entities [LocalPlayer, LocalPlayer], work=[451*, 0*]
166: 0x06DC [0x01] GOTO 0x0760
167: 0x06DF [0x02] IF !(Work_Zone[2] == 6*) GOTO 0x070A
168: 0x06E7 [0x52] END_LOAD_SCHEDULER: End scheduler "q222" with entities [LocalPlayer, LocalPlayer], work=451*
169: 0x06F6 [0x45] LOAD_SCHEDULED_TASK: Load scheduler "qtr1" with entities [LocalPlayer, LocalPlayer], work=[451*, 0*]
170: 0x0707 [0x01] GOTO 0x0760
171: 0x070A [0x02] IF !(Work_Zone[2] == 7*) GOTO 0x0735
172: 0x0712 [0x52] END_LOAD_SCHEDULER: End scheduler "q222" with entities [LocalPlayer, LocalPlayer], work=451*
173: 0x0721 [0x45] LOAD_SCHEDULED_TASK: Load scheduler "qhm1" with entities [LocalPlayer, LocalPlayer], work=[451*, 0*]
174: 0x0732 [0x01] GOTO 0x0760
175: 0x0735 [0x02] IF !(Work_Zone[2] == 8*) GOTO 0x0760
176: 0x073D [0x52] END_LOAD_SCHEDULER: End scheduler "q222" with entities [LocalPlayer, LocalPlayer], work=451*
177: 0x074C [0x45] LOAD_SCHEDULED_TASK: Load scheduler "qgl1" with entities [LocalPlayer, LocalPlayer], work=[451*, 0*]
178: 0x075D [0x01] GOTO 0x0760

SUBROUTINE_0760:
179: 0x0760 [0x6E] LocalPlayer uses emote 36*
180: 0x0767 [0x99] Wait for LocalPlayer animation to complete
181: 0x076C [0x1C] WAIT(120* ticks)
182: 0x076F [0x52] END_LOAD_SCHEDULER: End scheduler "qhm1" with entities [LocalPlayer, LocalPlayer], work=451*
183: 0x077E [0x52] END_LOAD_SCHEDULER: End scheduler "qhm1" with entities [LocalPlayer, LocalPlayer], work=451*
184: 0x078D [0x52] END_LOAD_SCHEDULER: End scheduler "qem1" with entities [LocalPlayer, LocalPlayer], work=451*
185: 0x079C [0x52] END_LOAD_SCHEDULER: End scheduler "qem1" with entities [LocalPlayer, LocalPlayer], work=451*
186: 0x07AB [0x52] END_LOAD_SCHEDULER: End scheduler "qtr1" with entities [LocalPlayer, LocalPlayer], work=451*
187: 0x07BA [0x52] END_LOAD_SCHEDULER: End scheduler "qmt1" with entities [LocalPlayer, LocalPlayer], work=451*
188: 0x07C9 [0x52] END_LOAD_SCHEDULER: End scheduler "qgl1" with entities [LocalPlayer, LocalPlayer], work=451*
189: 0x07D8 [0x45] LOAD_SCHEDULED_TASK: Load scheduler "q210" with entities [LocalPlayer, LocalPlayer], work=[451*, 0*]
190: 0x07E9 [0x7B] Klara (ID: 17134066/0x010571F2) stops talking
191: 0x07EE [0x7B] Zeid (ID: 17134003/0x010571B3) stops talking
192: 0x07F3 [0x7B] LocalPlayer stops talking
193: 0x07F8 [0x59] UPDATE_ENTITY_DATA: Set Klara (ID: 17134066/0x010571F2) main speed = 15* * 0.1
194: 0x0800 [0x27] REQ_SET(priority=0x10, entity_id=Klara (ID: 17134066/0x010571F2), tag_num=0x1E)
195: 0x0807 [0x1C] WAIT(60* ticks)
196: 0x080A [0x52] END_LOAD_SCHEDULER: End scheduler "q210" with entities [LocalPlayer, LocalPlayer], work=451*
197: 0x0819 [0x45] LOAD_SCHEDULED_TASK: Load scheduler "q224" with entities [LocalPlayer, LocalPlayer], work=[451*, 0*]
198: 0x082A [0x7A] VM_CONTROL: Reset VM for Klara (ID: 17134066/0x010571F2)
199: 0x0830 [0xBA] SET_ENTITY_POSITION(entity_id=Klara (ID: 17134066/0x010571F2), pos_x=98.285*, pos_z=9.173*, pos_y=-20.170*, direction=166.8°*)
200: 0x083D [0x27] REQ_SET(priority=0x10, entity_id=Klara (ID: 17134066/0x010571F2), tag_num=0x1F)
201: 0x0844 [0x5B] LOAD_EXT_SCHEDULER: Load scheduler "ude1" with entities [Zeid (ID: 17134003/0x010571B3), Zeid (ID: 17134003/0x010571B3)], work=244*
202: 0x0853 [0x53] WAIT_SCHEDULER_TASK: Wait for scheduler "ude1" with entities [Zeid (ID: 17134003/0x010571B3), Zeid (ID: 17134003/0x010571B3)]
203: 0x0860 [0x59] UPDATE_ENTITY_DATA: Set Zeid (ID: 17134003/0x010571B3) main speed = 13* * 0.1
204: 0x0868 [0x27] REQ_SET(priority=0x10, entity_id=Zeid (ID: 17134003/0x010571B3), tag_num=0x18)
205: 0x086F [0x1C] WAIT(60* ticks)
206: 0x0872 [0x52] END_LOAD_SCHEDULER: End scheduler "q224" with entities [LocalPlayer, LocalPlayer], work=451*
207: 0x0881 [0x45] LOAD_SCHEDULED_TASK: Load scheduler "q225" with entities [LocalPlayer, LocalPlayer], work=[451*, 0*]
208: 0x0892 [0x7A] VM_CONTROL: Reset VM for Klara (ID: 17134066/0x010571F2)
209: 0x0898 [0x7A] VM_CONTROL: Reset VM for Zeid (ID: 17134003/0x010571B3)
210: 0x089E [0xBA] SET_ENTITY_POSITION(entity_id=Klara (ID: 17134066/0x010571F2), pos_x=91.628*, pos_z=9.050*, pos_y=-20.170*, direction=179.6°*)
211: 0x08AB [0xBA] SET_ENTITY_POSITION(entity_id=Zeid (ID: 17134003/0x010571B3), pos_x=92.171*, pos_z=10.279*, pos_y=-20.170*, direction=179.4°*)
212: 0x08B8 [0x27] REQ_SET(priority=0x10, entity_id=Klara (ID: 17134066/0x010571F2), tag_num=0x20)
213: 0x08BF [0x27] REQ_SET(priority=0x10, entity_id=Zeid (ID: 17134003/0x010571B3), tag_num=0x19)
214: 0x08C6 [0x1C] WAIT(60* ticks)
215: 0x08C9 [0x1C] WAIT(180* ticks)
216: 0x08CC [0x5D] SET_MUSIC_VOLUME(volume=0*, fade_time=180*)
217: 0x08D1 [0x45] LOAD_SCHEDULED_TASK: Load scheduler "fdo2" with entities [LocalPlayer, LocalPlayer], work=[200*, 0*]
218: 0x08E2 [0x55] WAIT_LOAD_SCHEDULER: Wait for scheduler "fdo2" with entities [LocalPlayer, LocalPlayer], work=200*
219: 0x08F1 [0x52] END_LOAD_SCHEDULER: End scheduler "q225" with entities [LocalPlayer, LocalPlayer], work=451*
220: 0x0900 [0x5D] SET_MUSIC_VOLUME(volume=0*, fade_time=180*)
221: 0x0905 [0x4A] Nicolaus (ID: 17134067/0x010571F3) looks at Klara (ID: 17134066/0x010571F2)
222: 0x090E [0x4A] Five Moons (ID: 17134068/0x010571F4) looks at Klara (ID: 17134066/0x010571F2)
223: 0x0917 [0x4A] LocalPlayer looks at Klara (ID: 17134066/0x010571F2)
224: 0x0920 [0x7B] Nicolaus (ID: 17134067/0x010571F3) stops talking
225: 0x0925 [0x7B] Five Moons (ID: 17134068/0x010571F4) stops talking
226: 0x092A [0x7B] LocalPlayer stops talking
227: 0x092F [0x1C] WAIT(30* ticks)
228: 0x0932 [0x45] LOAD_SCHEDULED_TASK: Load scheduler "dcls" with entities [EventEntity, EventEntity], work=[341*, 0*]
229: 0x0943 [0x4E] SET_ENTITY_HIDE_FLAG: Hide Klara (ID: 17134066/0x010571F2)
230: 0x0949 [0x4E] SET_ENTITY_HIDE_FLAG: Hide Zeid (ID: 17134003/0x010571B3)
231: 0x094F [0x27] REQ_SET(priority=0x10, entity_id=Unnamed NPC (ID: 17134145/0x01057241), tag_num=0x04)
232: 0x0956 [0x5C] MUSIC_CONTROL: Set Idle (Day) music to song 154*
233: 0x095A [0x5C] MUSIC_CONTROL: Set Idle (Night) music to song 154*
234: 0x095E [0x1C] WAIT(90* ticks)
235: 0x0961 [0x9A] WAIT_MUSIC_SERVER()
236: 0x0962 [0x45] LOAD_SCHEDULED_TASK: Load scheduler "q211" with entities [LocalPlayer, LocalPlayer], work=[451*, 0*]
237: 0x0973 [0x45] LOAD_SCHEDULED_TASK: Load scheduler "fdi2" with entities [LocalPlayer, LocalPlayer], work=[200*, 0*]
238: 0x0984 [0x55] WAIT_LOAD_SCHEDULER: Wait for scheduler "fdi2" with entities [LocalPlayer, LocalPlayer], work=200*
239: 0x0993 [0x2B] Nicolaus (ID: 17134067/0x010571F3) [13297*]:
    → "Phew. Looks like we managed to come out on top in this little in-house tussle with the First Brigade."
240: 0x099A [0x23] WAIT_FOR_DIALOG_INTERACTION
241: 0x099B [0x52] END_LOAD_SCHEDULER: End scheduler "q211" with entities [LocalPlayer, LocalPlayer], work=451*
242: 0x09AA [0x45] LOAD_SCHEDULED_TASK: Load scheduler "q212" with entities [LocalPlayer, LocalPlayer], work=[451*, 0*]
243: 0x09BB [0x2B] Five Moons (ID: 17134068/0x010571F4) [13298*]:
    → "Yeah..."
244: 0x09C2 [0x23] WAIT_FOR_DIALOG_INTERACTION
245: 0x09C3 [0x52] END_LOAD_SCHEDULER: End scheduler "q212" with entities [LocalPlayer, LocalPlayer], work=451*
246: 0x09D2 [0x45] LOAD_SCHEDULED_TASK: Load scheduler "q213" with entities [LocalPlayer, LocalPlayer], work=[451*, 0*]
247: 0x09E3 [0x4A] LocalPlayer looks at Five Moons (ID: 17134068/0x010571F4)
248: 0x09EC [0x4A] Nicolaus (ID: 17134067/0x010571F3) looks at Five Moons (ID: 17134068/0x010571F4)
249: 0x09F5 [0x6F] WAIT_FRAME_DELAY: Yield until WaitTime reaches zero
250: 0x09F6 [0x76] CHECK_ENTITY_RENDER_FLAGS: Wait until Nicolaus (ID: 17134067/0x010571F3) Render.Flags0 and Render.Flags3 conditions are met
251: 0x09FB [0x2B] Nicolaus (ID: 17134067/0x010571F3) [13299*]:
    → "Is something troubling you, Five Moons?"
252: 0x0A02 [0x23] WAIT_FOR_DIALOG_INTERACTION
253: 0x0A03 [0x52] END_LOAD_SCHEDULER: End scheduler "q213" with entities [LocalPlayer, LocalPlayer], work=451*
254: 0x0A12 [0x45] LOAD_SCHEDULED_TASK: Load scheduler "q214" with entities [LocalPlayer, LocalPlayer], work=[451*, 0*]
255: 0x0A23 [0x4A] Five Moons (ID: 17134068/0x010571F4) looks at Nicolaus (ID: 17134067/0x010571F3)
256: 0x0A2C [0x6F] WAIT_FRAME_DELAY: Yield until WaitTime reaches zero
257: 0x0A2D [0x76] CHECK_ENTITY_RENDER_FLAGS: Wait until Five Moons (ID: 17134068/0x010571F4) Render.Flags0 and Render.Flags3 conditions are met
258: 0x0A32 [0x2B] Five Moons (ID: 17134068/0x010571F4) [13300*]:
    → "Don't misunderstand me--I'm as relieved as any of us here that the citizens can live in peace once more."
259: 0x0A39 [0x23] WAIT_FOR_DIALOG_INTERACTION
260: 0x0A3A [0x52] END_LOAD_SCHEDULER: End scheduler "q214" with entities [LocalPlayer, LocalPlayer], work=451*
261: 0x0A49 [0x45] LOAD_SCHEDULED_TASK: Load scheduler "q215" with entities [LocalPlayer, LocalPlayer], work=[451*, 0*]
262: 0x0A5A [0x2B] Five Moons (ID: 17134068/0x010571F4) [13301*]:
    → "Yet, a part of me struggles to come to terms with Darksteel Hurricane's death."
263: 0x0A61 [0x23] WAIT_FOR_DIALOG_INTERACTION
264: 0x0A62 [0x52] END_LOAD_SCHEDULER: End scheduler "q215" with entities [LocalPlayer, LocalPlayer], work=451*
265: 0x0A71 [0x45] LOAD_SCHEDULED_TASK: Load scheduler "q216" with entities [LocalPlayer, LocalPlayer], work=[451*, 0*]
266: 0x0A82 [0x7C] Nicolaus (ID: 17134067/0x010571F3)->Render.Flags2 |= 0x00
267: 0x0A88 [0x2B] Nicolaus (ID: 17134067/0x010571F3) [13302*]:
    → "..."
268: 0x0A8F [0x23] WAIT_FOR_DIALOG_INTERACTION
269: 0x0A90 [0x7C] Nicolaus (ID: 17134067/0x010571F3)->Render.Flags2 |= 0x01
270: 0x0A96 [0x52] END_LOAD_SCHEDULER: End scheduler "q216" with entities [LocalPlayer, LocalPlayer], work=451*
271: 0x0AA5 [0x45] LOAD_SCHEDULED_TASK: Load scheduler "q229" with entities [LocalPlayer, LocalPlayer], work=[451*, 0*]
272: 0x0AB6 [0x6E] Five Moons (ID: 17134068/0x010571F4) uses emote 19*
273: 0x0ABD [0x99] Wait for Five Moons (ID: 17134068/0x010571F4) animation to complete
274: 0x0AC2 [0x2B] Five Moons (ID: 17134068/0x010571F4) [13303*]:
    → "It's silly, I know."
275: 0x0AC9 [0x23] WAIT_FOR_DIALOG_INTERACTION
276: 0x0ACA [0x52] END_LOAD_SCHEDULER: End scheduler "q229" with entities [LocalPlayer, LocalPlayer], work=451*
277: 0x0AD9 [0x45] LOAD_SCHEDULED_TASK: Load scheduler "q218" with entities [LocalPlayer, LocalPlayer], work=[451*, 0*]
278: 0x0AEA [0x2B] Five Moons (ID: 17134068/0x010571F4) [13304*]:
    → "I will go to the Vunkerl Inlet."
279: 0x0AF1 [0x23] WAIT_FOR_DIALOG_INTERACTION
280: 0x0AF2 [0x2B] Five Moons (ID: 17134068/0x010571F4) [13305*]:
    → "As both Galka and Mythril Musketeer, I must confirm with my own eyes the death of a man who had once ruled my existence. Or else I fear there will be no closure for me in this lifetime."
281: 0x0AF9 [0x23] WAIT_FOR_DIALOG_INTERACTION
282: 0x0AFA [0x59] UPDATE_ENTITY_DATA: Set Five Moons (ID: 17134068/0x010571F4) main speed = 13* * 0.1
283: 0x0B02 [0x27] REQ_SET(priority=0x10, entity_id=Five Moons (ID: 17134068/0x010571F4), tag_num=0x19)
284: 0x0B09 [0x1C] WAIT(120* ticks)
285: 0x0B0C [0x52] END_LOAD_SCHEDULER: End scheduler "q218" with entities [LocalPlayer, LocalPlayer], work=451*
286: 0x0B1B [0x45] LOAD_SCHEDULED_TASK: Load scheduler "q220" with entities [LocalPlayer, LocalPlayer], work=[451*, 0*]
287: 0x0B2C [0xBA] SET_ENTITY_POSITION(entity_id=LocalPlayer, pos_x=93.509*, pos_z=9.778*, pos_y=-20.170*, direction=266.9°*)
288: 0x0B39 [0x59] UPDATE_ENTITY_DATA: Set Nicolaus (ID: 17134067/0x010571F3) main speed = 13* * 0.1
289: 0x0B41 [0x27] REQ_SET(priority=0x10, entity_id=Nicolaus (ID: 17134067/0x010571F3), tag_num=0x21)
290: 0x0B48 [0x2B] Nicolaus (ID: 17134067/0x010571F3) [13306*]:
    → "F-Five Moons, wait--"
291: 0x0B4F [0x23] WAIT_FOR_DIALOG_INTERACTION
292: 0x0B50 [0x1C] WAIT(60* ticks)
293: 0x0B53 [0x4A] LocalPlayer looks at Unnamed NPC (ID: 17134145/0x01057241)
294: 0x0B5C [0x7B] LocalPlayer stops talking
295: 0x0B61 [0x52] END_LOAD_SCHEDULER: End scheduler "q220" with entities [LocalPlayer, LocalPlayer], work=451*
296: 0x0B70 [0x45] LOAD_SCHEDULED_TASK: Load scheduler "q228" with entities [LocalPlayer, LocalPlayer], work=[451*, 0*]
297: 0x0B81 [0xBA] SET_ENTITY_POSITION(entity_id=Five Moons (ID: 17134068/0x010571F4), pos_x=89.372*, pos_z=12.734*, pos_y=-20.170*, direction=88.7°*)
298: 0x0B8E [0x27] REQ_SET(priority=0x10, entity_id=Five Moons (ID: 17134068/0x010571F4), tag_num=0x1A)
299: 0x0B95 [0x1C] WAIT(250* ticks)
300: 0x0B98 [0x1C] WAIT(180* ticks)
301: 0x0B9B [0x52] END_LOAD_SCHEDULER: End scheduler "q228" with entities [LocalPlayer, LocalPlayer], work=451*
302: 0x0BAA [0x45] LOAD_SCHEDULED_TASK: Load scheduler "q221" with entities [LocalPlayer, LocalPlayer], work=[451*, 0*]
303: 0x0BBB [0xBA] SET_ENTITY_POSITION(entity_id=LocalPlayer, pos_x=94.163*, pos_z=10.218*, pos_y=-20.170*, direction=142.2°*)
304: 0x0BC8 [0x27] REQ_SET(priority=0x10, entity_id=Unnamed NPC (ID: 17134145/0x01057241), tag_num=0x04)
305: 0x0BCF [0x4A] Nicolaus (ID: 17134067/0x010571F3) looks at LocalPlayer
306: 0x0BD8 [0x6F] WAIT_FRAME_DELAY: Yield until WaitTime reaches zero
307: 0x0BD9 [0x76] CHECK_ENTITY_RENDER_FLAGS: Wait until Nicolaus (ID: 17134067/0x010571F3) Render.Flags0 and Render.Flags3 conditions are met
308: 0x0BDE [0x66] LOAD_EXT_SCHEDULER_MAIN: Load scheduler "tlk0" with entities [Nicolaus (ID: 17134067/0x010571F3), Nicolaus (ID: 17134067/0x010571F3)], work=9*
309: 0x0BED [0x2B] Nicolaus (ID: 17134067/0x010571F3) [13307*]:
    → "Let us accompany him, <Player>. It's the least we can do for a comrade in this period of internal turmoil."
310: 0x0BF4 [0x23] WAIT_FOR_DIALOG_INTERACTION
311: 0x0BF5 [0x52] END_LOAD_SCHEDULER: End scheduler "q221" with entities [LocalPlayer, LocalPlayer], work=451*
312: 0x0C04 [0x29] REQ_SET_WAIT(priority=0x10, entity_id=LocalPlayer, tag_num=0x48)
313: 0x0C0B [0x02] IF !(Work_Zone[2] == 1*) GOTO 0x0C36
314: 0x0C13 [0x52] END_LOAD_SCHEDULER: End scheduler "q222" with entities [LocalPlayer, LocalPlayer], work=451*
315: 0x0C22 [0x45] LOAD_SCHEDULED_TASK: Load scheduler "qhm2" with entities [LocalPlayer, LocalPlayer], work=[451*, 0*]
316: 0x0C33 [0x01] GOTO 0x0D63
317: 0x0C36 [0x02] IF !(Work_Zone[2] == 2*) GOTO 0x0C61
318: 0x0C3E [0x52] END_LOAD_SCHEDULER: End scheduler "q222" with entities [LocalPlayer, LocalPlayer], work=451*
319: 0x0C4D [0x45] LOAD_SCHEDULED_TASK: Load scheduler "qhm2" with entities [LocalPlayer, LocalPlayer], work=[451*, 0*]
320: 0x0C5E [0x01] GOTO 0x0D63
321: 0x0C61 [0x02] IF !(Work_Zone[2] == 3*) GOTO 0x0C8C
322: 0x0C69 [0x52] END_LOAD_SCHEDULER: End scheduler "q222" with entities [LocalPlayer, LocalPlayer], work=451*
323: 0x0C78 [0x45] LOAD_SCHEDULED_TASK: Load scheduler "qem2" with entities [LocalPlayer, LocalPlayer], work=[451*, 0*]
324: 0x0C89 [0x01] GOTO 0x0D63
325: 0x0C8C [0x02] IF !(Work_Zone[2] == 4*) GOTO 0x0CB7
326: 0x0C94 [0x52] END_LOAD_SCHEDULER: End scheduler "q222" with entities [LocalPlayer, LocalPlayer], work=451*
327: 0x0CA3 [0x45] LOAD_SCHEDULED_TASK: Load scheduler "qem2" with entities [LocalPlayer, LocalPlayer], work=[451*, 0*]
328: 0x0CB4 [0x01] GOTO 0x0D63
329: 0x0CB7 [0x02] IF !(Work_Zone[2] == 5*) GOTO 0x0CE2
330: 0x0CBF [0x52] END_LOAD_SCHEDULER: End scheduler "q222" with entities [LocalPlayer, LocalPlayer], work=451*
331: 0x0CCE [0x45] LOAD_SCHEDULED_TASK: Load scheduler "qtr2" with entities [LocalPlayer, LocalPlayer], work=[451*, 0*]
332: 0x0CDF [0x01] GOTO 0x0D63
333: 0x0CE2 [0x02] IF !(Work_Zone[2] == 6*) GOTO 0x0D0D
334: 0x0CEA [0x52] END_LOAD_SCHEDULER: End scheduler "q222" with entities [LocalPlayer, LocalPlayer], work=451*
335: 0x0CF9 [0x45] LOAD_SCHEDULED_TASK: Load scheduler "qtr2" with entities [LocalPlayer, LocalPlayer], work=[451*, 0*]
336: 0x0D0A [0x01] GOTO 0x0D63
337: 0x0D0D [0x02] IF !(Work_Zone[2] == 7*) GOTO 0x0D38
338: 0x0D15 [0x52] END_LOAD_SCHEDULER: End scheduler "q222" with entities [LocalPlayer, LocalPlayer], work=451*
339: 0x0D24 [0x45] LOAD_SCHEDULED_TASK: Load scheduler "qmt2" with entities [LocalPlayer, LocalPlayer], work=[451*, 0*]
340: 0x0D35 [0x01] GOTO 0x0D63
341: 0x0D38 [0x02] IF !(Work_Zone[2] == 8*) GOTO 0x0D63
342: 0x0D40 [0x52] END_LOAD_SCHEDULER: End scheduler "q222" with entities [LocalPlayer, LocalPlayer], work=451*
343: 0x0D4F [0x45] LOAD_SCHEDULED_TASK: Load scheduler "qgl2" with entities [LocalPlayer, LocalPlayer], work=[451*, 0*]
344: 0x0D60 [0x01] GOTO 0x0D63

SUBROUTINE_0D63:
345: 0x0D63 [0x66] LOAD_EXT_SCHEDULER_MAIN: Load scheduler "tlk1" with entities [Nicolaus (ID: 17134067/0x010571F3), Nicolaus (ID: 17134067/0x010571F3)], work=9*
346: 0x0D72 [0xBA] SET_ENTITY_POSITION(entity_id=Nicolaus (ID: 17134067/0x010571F3), pos_x=90.204*, pos_z=11.584*, pos_y=-20.170*, direction=142.1°*)
347: 0x0D7F [0x4A] Nicolaus (ID: 17134067/0x010571F3) looks at Unnamed NPC (ID: 17134145/0x01057241)
348: 0x0D88 [0x4B] UPDATE_ENTITY_YAW(entity=LocalPlayer, yaw=17.6°*)
349: 0x0D8F [0x6F] WAIT_FRAME_DELAY: Yield until WaitTime reaches zero
350: 0x0D90 [0x76] CHECK_ENTITY_RENDER_FLAGS: Wait until LocalPlayer Render.Flags0 and Render.Flags3 conditions are met
351: 0x0D95 [0x6E] LocalPlayer uses emote 7*
352: 0x0D9C [0x99] Wait for LocalPlayer animation to complete
353: 0x0DA1 [0x1C] WAIT(120* ticks)
354: 0x0DA4 [0x59] UPDATE_ENTITY_DATA: Set LocalPlayer main speed = 12* * 0.1
355: 0x0DAC [0x27] REQ_SET(priority=0x10, entity_id=LocalPlayer, tag_num=0x53)
356: 0x0DB3 [0x1C] WAIT(30* ticks)
357: 0x0DB6 [0x59] UPDATE_ENTITY_DATA: Set Nicolaus (ID: 17134067/0x010571F3) main speed = 13* * 0.1
358: 0x0DBE [0x27] REQ_SET(priority=0x10, entity_id=Nicolaus (ID: 17134067/0x010571F3), tag_num=0x22)
359: 0x0DC5 [0x52] END_LOAD_SCHEDULER: End scheduler "qhm2" with entities [LocalPlayer, LocalPlayer], work=451*
360: 0x0DD4 [0x52] END_LOAD_SCHEDULER: End scheduler "qhm2" with entities [LocalPlayer, LocalPlayer], work=451*
361: 0x0DE3 [0x52] END_LOAD_SCHEDULER: End scheduler "qem2" with entities [LocalPlayer, LocalPlayer], work=451*
362: 0x0DF2 [0x52] END_LOAD_SCHEDULER: End scheduler "qem2" with entities [LocalPlayer, LocalPlayer], work=451*
363: 0x0E01 [0x52] END_LOAD_SCHEDULER: End scheduler "qtr2" with entities [LocalPlayer, LocalPlayer], work=451*
364: 0x0E10 [0x52] END_LOAD_SCHEDULER: End scheduler "qmt2" with entities [LocalPlayer, LocalPlayer], work=451*
365: 0x0E1F [0x52] END_LOAD_SCHEDULER: End scheduler "qgl2" with entities [LocalPlayer, LocalPlayer], work=451*
366: 0x0E2E [0x45] LOAD_SCHEDULED_TASK: Load scheduler "q227" with entities [LocalPlayer, LocalPlayer], work=[451*, 0*]
367: 0x0E3F [0x1C] WAIT(100* ticks)
368: 0x0E42 [0x45] LOAD_SCHEDULED_TASK: Load scheduler "dopn" with entities [EventEntity, EventEntity], work=[341*, 0*]
369: 0x0E53 [0x27] REQ_SET(priority=0x10, entity_id=Unnamed NPC (ID: 17134145/0x01057241), tag_num=0x03)
370: 0x0E5A [0x1C] WAIT(20* ticks)
371: 0x0E5D [0x45] LOAD_SCHEDULED_TASK: Load scheduler "fdo2" with entities [LocalPlayer, LocalPlayer], work=[200*, 0*]
372: 0x0E6E [0x55] WAIT_LOAD_SCHEDULER: Wait for scheduler "fdo2" with entities [LocalPlayer, LocalPlayer], work=200*
373: 0x0E7D [0x52] END_LOAD_SCHEDULER: End scheduler "q227" with entities [LocalPlayer, LocalPlayer], work=451*
374: 0x0E8C [0x27] REQ_SET(priority=0x10, entity_id=Unnamed NPC (ID: 17134145/0x01057241), tag_num=0x04)
375: 0x0E93 [0x5D] SET_MUSIC_VOLUME(volume=0*, fade_time=180*)
376: 0x0E98 [0x1C] WAIT(120* ticks)
377: 0x0E9B [0x4E] SET_ENTITY_HIDE_FLAG: Show Klara (ID: 17134066/0x010571F2)
378: 0x0EA1 [0x4E] SET_ENTITY_HIDE_FLAG: Show Zeid (ID: 17134003/0x010571B3)
379: 0x0EA7 [0xBA] SET_ENTITY_POSITION(entity_id=LocalPlayer, pos_x=-52.695*, pos_z=-0.865*, pos_y=1.999*, direction=176.4°*)
380: 0x0EB4 [0x7A] VM_CONTROL: Reset VM for LocalPlayer
381: 0x0EBA [0x7A] VM_CONTROL: Reset VM for Klara (ID: 17134066/0x010571F2)
382: 0x0EC0 [0x7A] VM_CONTROL: Reset VM for Zeid (ID: 17134003/0x010571B3)
383: 0x0EC6 [0xBA] SET_ENTITY_POSITION(entity_id=Klara (ID: 17134066/0x010571F2), pos_x=-68.466*, pos_z=-1.717*, pos_y=2.000*, direction=183.8°*)
384: 0x0ED3 [0xBA] SET_ENTITY_POSITION(entity_id=Zeid (ID: 17134003/0x010571B3), pos_x=-66.972*, pos_z=-3.263*, pos_y=1.999*, direction=183.9°*)
385: 0x0EE0 [0x5C] MUSIC_CONTROL: Set Idle (Day) music to song 180*
386: 0x0EE4 [0x5C] MUSIC_CONTROL: Set Idle (Night) music to song 180*
387: 0x0EE8 [0x9A] WAIT_MUSIC_SERVER()
388: 0x0EE9 [0x1C] WAIT(30* ticks)
389: 0x0EEC [0xBA] SET_ENTITY_POSITION(entity_id=LocalPlayer, pos_x=-71.217*, pos_z=12.477*, pos_y=2.000*, direction=264.4°*)
390: 0x0EF9 [0x1C] WAIT(30* ticks)
391: 0x0EFC [0x45] LOAD_SCHEDULED_TASK: Load scheduler "q319" with entities [LocalPlayer, LocalPlayer], work=[451*, 0*]
392: 0x0F0D [0x45] LOAD_SCHEDULED_TASK: Load scheduler "fdi2" with entities [LocalPlayer, LocalPlayer], work=[200*, 0*]
393: 0x0F1E [0x55] WAIT_LOAD_SCHEDULER: Wait for scheduler "fdi2" with entities [LocalPlayer, LocalPlayer], work=200*
394: 0x0F2D [0x1C] WAIT(120* ticks)
395: 0x0F30 [0x59] UPDATE_ENTITY_DATA: Set Klara (ID: 17134066/0x010571F2) main speed = 13* * 0.1
396: 0x0F38 [0x59] UPDATE_ENTITY_DATA: Set Zeid (ID: 17134003/0x010571B3) main speed = 13* * 0.1
397: 0x0F40 [0x27] REQ_SET(priority=0x10, entity_id=Klara (ID: 17134066/0x010571F2), tag_num=0x21)
398: 0x0F47 [0x27] REQ_SET(priority=0x10, entity_id=Zeid (ID: 17134003/0x010571B3), tag_num=0x1A)
399: 0x0F4E [0x1C] WAIT(5* ticks)
400: 0x0F51 [0x52] END_LOAD_SCHEDULER: End scheduler "q319" with entities [LocalPlayer, LocalPlayer], work=451*
401: 0x0F60 [0x45] LOAD_SCHEDULED_TASK: Load scheduler "q301" with entities [LocalPlayer, LocalPlayer], work=[451*, 0*]
402: 0x0F71 [0x45] LOAD_SCHEDULED_TASK: Load scheduler "fdi2" with entities [LocalPlayer, LocalPlayer], work=[200*, 0*]
403: 0x0F82 [0x55] WAIT_LOAD_SCHEDULER: Wait for scheduler "fdi2" with entities [LocalPlayer, LocalPlayer], work=200*
404: 0x0F91 [0x1C] WAIT(80* ticks)
405: 0x0F94 [0x52] END_LOAD_SCHEDULER: End scheduler "q301" with entities [LocalPlayer, LocalPlayer], work=451*
406: 0x0FA3 [0x45] LOAD_SCHEDULED_TASK: Load scheduler "q302" with entities [LocalPlayer, LocalPlayer], work=[451*, 0*]
407: 0x0FB4 [0x7A] VM_CONTROL: Reset VM for Zeid (ID: 17134003/0x010571B3)
408: 0x0FBA [0x4A] Zeid (ID: 17134003/0x010571B3) looks at Klara (ID: 17134066/0x010571F2)
409: 0x0FC3 [0x6F] WAIT_FRAME_DELAY: Yield until WaitTime reaches zero
410: 0x0FC4 [0x76] CHECK_ENTITY_RENDER_FLAGS: Wait until Zeid (ID: 17134003/0x010571B3) Render.Flags0 and Render.Flags3 conditions are met
411: 0x0FC9 [0x2B] Zeid (ID: 17134003/0x010571B3) [13308*]:
    → "Captain."
412: 0x0FD0 [0x23] WAIT_FOR_DIALOG_INTERACTION
413: 0x0FD1 [0x52] END_LOAD_SCHEDULER: End scheduler "q302" with entities [LocalPlayer, LocalPlayer], work=451*
414: 0x0FE0 [0x45] LOAD_SCHEDULED_TASK: Load scheduler "q303" with entities [LocalPlayer, LocalPlayer], work=[451*, 0*]
415: 0x0FF1 [0x1C] WAIT(30* ticks)
416: 0x0FF4 [0x2B] Klara (ID: 17134066/0x010571F2) [13309*]:
    → "What is it?"
417: 0x0FFB [0x23] WAIT_FOR_DIALOG_INTERACTION
418: 0x0FFC [0x52] END_LOAD_SCHEDULER: End scheduler "q303" with entities [LocalPlayer, LocalPlayer], work=451*
419: 0x100B [0x45] LOAD_SCHEDULED_TASK: Load scheduler "q304" with entities [LocalPlayer, LocalPlayer], work=[451*, 0*]
420: 0x101C [0x5B] LOAD_EXT_SCHEDULER: Load scheduler "tkb0" with entities [Zeid (ID: 17134003/0x010571B3), Zeid (ID: 17134003/0x010571B3)], work=244*
421: 0x102B [0xBA] SET_ENTITY_POSITION(entity_id=Klara (ID: 17134066/0x010571F2), pos_x=-73.225*, pos_z=-1.768*, pos_y=1.999*, direction=29.2°*)
422: 0x1038 [0x4A] Klara (ID: 17134066/0x010571F2) looks at Zeid (ID: 17134003/0x010571B3)
423: 0x1041 [0x2B] Zeid (ID: 17134003/0x010571B3) [13310*]:
    → "The encounter at the Vunkerl Inlet..."
424: 0x1048 [0x23] WAIT_FOR_DIALOG_INTERACTION
425: 0x1049 [0x52] END_LOAD_SCHEDULER: End scheduler "q304" with entities [LocalPlayer, LocalPlayer], work=451*
426: 0x1058 [0x45] LOAD_SCHEDULED_TASK: Load scheduler "q307" with entities [LocalPlayer, LocalPlayer], work=[451*, 0*]
427: 0x1069 [0x5B] LOAD_EXT_SCHEDULER: Load scheduler "tkb1" with entities [Zeid (ID: 17134003/0x010571B3), Zeid (ID: 17134003/0x010571B3)], work=244*
428: 0x1078 [0x5B] LOAD_EXT_SCHEDULER: Load scheduler "ude0" with entities [Klara (ID: 17134066/0x010571F2), Klara (ID: 17134066/0x010571F2)], work=1346*
429: 0x1087 [0x2B] Klara (ID: 17134066/0x010571F2) [13313*]:
    → "What of it? Darksteel Hurricane lies dead and all blemishes have been cleansed from the Mythril Musketeers' name. We could not have hoped for a more ideal ending to a messy affair. Do you not agree?"
430: 0x108E [0x23] WAIT_FOR_DIALOG_INTERACTION
431: 0x108F [0x52] END_LOAD_SCHEDULER: End scheduler "q307" with entities [LocalPlayer, LocalPlayer], work=451*
432: 0x109E [0x45] LOAD_SCHEDULED_TASK: Load scheduler "q308" with entities [LocalPlayer, LocalPlayer], work=[451*, 0*]
433: 0x10AF [0x5B] LOAD_EXT_SCHEDULER: Load scheduler "tkb0" with entities [Zeid (ID: 17134003/0x010571B3), Zeid (ID: 17134003/0x010571B3)], work=244*
434: 0x10BE [0x5D] SET_MUSIC_VOLUME(volume=0*, fade_time=90*)
435: 0x10C3 [0x2B] Zeid (ID: 17134003/0x010571B3) [13314*]:
    → "Spare me the deception, Captain!"
436: 0x10CA [0x23] WAIT_FOR_DIALOG_INTERACTION
437: 0x10CB [0x5B] LOAD_EXT_SCHEDULER: Load scheduler "tkb1" with entities [Zeid (ID: 17134003/0x010571B3), Zeid (ID: 17134003/0x010571B3)], work=244*
438: 0x10DA [0x1C] WAIT(60* ticks)
439: 0x10DD [0x52] END_LOAD_SCHEDULER: End scheduler "q308" with entities [LocalPlayer, LocalPlayer], work=451*
440: 0x10EC [0x45] LOAD_SCHEDULED_TASK: Load scheduler "q320" with entities [LocalPlayer, LocalPlayer], work=[451*, 0*]
441: 0x10FD [0x1C] WAIT(60* ticks)
442: 0x1100 [0x2B] Zeid (ID: 17134003/0x010571B3) [13315*]:
    → "Who was it that you crossed swords with on the bridge?"
443: 0x1107 [0x23] WAIT_FOR_DIALOG_INTERACTION
444: 0x1108 [0x7C] Klara (ID: 17134066/0x010571F2)->Render.Flags2 |= 0x00
445: 0x110E [0x2B] Klara (ID: 17134066/0x010571F2) [13316*]:
    → "..."
446: 0x1115 [0x23] WAIT_FOR_DIALOG_INTERACTION
447: 0x1116 [0x7C] Klara (ID: 17134066/0x010571F2)->Render.Flags2 |= 0x01
448: 0x111C [0x5C] MUSIC_CONTROL: Set Idle (Day) music to song 127*
449: 0x1120 [0x5C] MUSIC_CONTROL: Set Idle (Night) music to song 127*
450: 0x1124 [0x9A] WAIT_MUSIC_SERVER()
451: 0x1125 [0x52] END_LOAD_SCHEDULER: End scheduler "q320" with entities [LocalPlayer, LocalPlayer], work=451*
452: 0x1134 [0x45] LOAD_SCHEDULED_TASK: Load scheduler "q310" with entities [LocalPlayer, LocalPlayer], work=[451*, 0*]
453: 0x1145 [0x5B] LOAD_EXT_SCHEDULER: Load scheduler "tkb0" with entities [Zeid (ID: 17134003/0x010571B3), Zeid (ID: 17134003/0x010571B3)], work=244*
454: 0x1154 [0x2B] Zeid (ID: 17134003/0x010571B3) [13317*]:
    → "That Galka was not Darksteel Hurricane! You know this to be true above any other!"
455: 0x115B [0x23] WAIT_FOR_DIALOG_INTERACTION
456: 0x115C [0x52] END_LOAD_SCHEDULER: End scheduler "q310" with entities [LocalPlayer, LocalPlayer], work=451*
457: 0x116B [0x45] LOAD_SCHEDULED_TASK: Load scheduler "q311" with entities [LocalPlayer, LocalPlayer], work=[451*, 0*]
458: 0x117C [0x5B] LOAD_EXT_SCHEDULER: Load scheduler "tkb1" with entities [Zeid (ID: 17134003/0x010571B3), Zeid (ID: 17134003/0x010571B3)], work=244*
459: 0x118B [0x1C] WAIT(180* ticks)
460: 0x118E [0x52] END_LOAD_SCHEDULER: End scheduler "q311" with entities [LocalPlayer, LocalPlayer], work=451*
461: 0x119D [0x45] LOAD_SCHEDULED_TASK: Load scheduler "q312" with entities [LocalPlayer, LocalPlayer], work=[451*, 0*]
462: 0x11AE [0x1C] WAIT(180* ticks)
463: 0x11B1 [0x52] END_LOAD_SCHEDULER: End scheduler "q312" with entities [LocalPlayer, LocalPlayer], work=451*
464: 0x11C0 [0x45] LOAD_SCHEDULED_TASK: Load scheduler "q313" with entities [LocalPlayer, LocalPlayer], work=[451*, 0*]
465: 0x11D1 [0x1C] WAIT(30* ticks)
466: 0x11D4 [0x2B] Klara (ID: 17134066/0x010571F2) [13318*]:
    → "Hah... For a fleeting moment, I thought the old you had returned, Zeid."
467: 0x11DB [0x23] WAIT_FOR_DIALOG_INTERACTION
468: 0x11DC [0x52] END_LOAD_SCHEDULER: End scheduler "q313" with entities [LocalPlayer, LocalPlayer], work=451*
469: 0x11EB [0x45] LOAD_SCHEDULED_TASK: Load scheduler "q309" with entities [LocalPlayer, LocalPlayer], work=[451*, 0*]
470: 0x11FC [0x7C] Zeid (ID: 17134003/0x010571B3)->Render.Flags2 |= 0x00
471: 0x1202 [0x2B] Zeid (ID: 17134003/0x010571B3) [13351*]:
    → "...!?"
472: 0x1209 [0x23] WAIT_FOR_DIALOG_INTERACTION
473: 0x120A [0x7C] Zeid (ID: 17134003/0x010571B3)->Render.Flags2 |= 0x01
474: 0x1210 [0x52] END_LOAD_SCHEDULER: End scheduler "q309" with entities [LocalPlayer, LocalPlayer], work=451*
475: 0x121F [0x45] LOAD_SCHEDULED_TASK: Load scheduler "q314" with entities [LocalPlayer, LocalPlayer], work=[451*, 0*]
476: 0x1230 [0x5B] LOAD_EXT_SCHEDULER: Load scheduler "ude1" with entities [Klara (ID: 17134066/0x010571F2), Klara (ID: 17134066/0x010571F2)], work=1346*
477: 0x123F [0x2B] Klara (ID: 17134066/0x010571F2) [13319*]:
    → "Simmer down, soldier."
478: 0x1246 [0x23] WAIT_FOR_DIALOG_INTERACTION
479: 0x1247 [0x2B] Klara (ID: 17134066/0x010571F2) [13320*]:
    → "Mind that you acquit yourself well while we're in the President's Office."
480: 0x124E [0x23] WAIT_FOR_DIALOG_INTERACTION
481: 0x124F [0x1C] WAIT(30* ticks)
482: 0x1252 [0x27] REQ_SET(priority=0x10, entity_id=Klara (ID: 17134066/0x010571F2), tag_num=0x22)
483: 0x1259 [0x1C] WAIT(30* ticks)
484: 0x125C [0x52] END_LOAD_SCHEDULER: End scheduler "q314" with entities [LocalPlayer, LocalPlayer], work=451*
485: 0x126B [0x45] LOAD_SCHEDULED_TASK: Load scheduler "q315" with entities [LocalPlayer, LocalPlayer], work=[451*, 0*]
486: 0x127C [0x1C] WAIT(150* ticks)
487: 0x127F [0x52] END_LOAD_SCHEDULER: End scheduler "q315" with entities [LocalPlayer, LocalPlayer], work=451*
488: 0x128E [0x45] LOAD_SCHEDULED_TASK: Load scheduler "q321" with entities [LocalPlayer, LocalPlayer], work=[451*, 0*]
489: 0x129F [0x1C] WAIT(150* ticks)
490: 0x12A2 [0x52] END_LOAD_SCHEDULER: End scheduler "q321" with entities [LocalPlayer, LocalPlayer], work=451*
491: 0x12B1 [0x45] LOAD_SCHEDULED_TASK: Load scheduler "q316" with entities [LocalPlayer, LocalPlayer], work=[451*, 0*]
492: 0x12C2 [0x4E] SET_ENTITY_HIDE_FLAG: Hide Klara (ID: 17134066/0x010571F2)
493: 0x12C8 [0x7C] Zeid (ID: 17134003/0x010571B3)->Render.Flags2 |= 0x00
494: 0x12CE [0x2B] Zeid (ID: 17134003/0x010571B3) [13312*]:
    → "..."
495: 0x12D5 [0x23] WAIT_FOR_DIALOG_INTERACTION
496: 0x12D6 [0x7C] Zeid (ID: 17134003/0x010571B3)->Render.Flags2 |= 0x01
497: 0x12DC [0x27] REQ_SET(priority=0x10, entity_id=Zeid (ID: 17134003/0x010571B3), tag_num=0x1B)
498: 0x12E3 [0x1C] WAIT(30* ticks)
499: 0x12E6 [0x52] END_LOAD_SCHEDULER: End scheduler "q316" with entities [LocalPlayer, LocalPlayer], work=451*
500: 0x12F5 [0x45] LOAD_SCHEDULED_TASK: Load scheduler "q317" with entities [LocalPlayer, LocalPlayer], work=[451*, 0*]
501: 0x1306 [0x1C] WAIT(120* ticks)
502: 0x1309 [0x45] LOAD_SCHEDULED_TASK: Load scheduler "fdo1" with entities [EventEntity, EventEntity], work=[200*, 0*]
503: 0x131A [0x55] WAIT_LOAD_SCHEDULER: Wait for scheduler "fdo1" with entities [EventEntity, EventEntity], work=200*
504: 0x1329 [0x52] END_LOAD_SCHEDULER: End scheduler "q317" with entities [LocalPlayer, LocalPlayer], work=451*
505: 0x1338 [0x1C] WAIT(1* ticks)
506: 0x133B [0x35] LOAD_ZONE_NO_CLOSE(zone_id=87*)
507: 0x133E [0x78] ENABLE_GAME_TIMER_RESET_WEATHER()
508: 0x133F [0x1C] WAIT(1* ticks)
509: 0x1342 [0x5C] MUSIC_CONTROL: Set Idle (Day) music to song 180*
510: 0x1346 [0x5C] MUSIC_CONTROL: Set Idle (Night) music to song 180*
511: 0x134A [0x9A] WAIT_MUSIC_SERVER()
512: 0x134B [0x46] CAMERA_CONTROL: Restore default settings
513: 0x134D [0x1C] WAIT(10* ticks)
514: 0x1350 [0x45] LOAD_SCHEDULED_TASK: Load scheduler "fdi1" with entities [EventEntity, EventEntity], work=[200*, 0*]
515: 0x1361 [0x21] END_EVENT
516: 0x1362 [0x00] END_REQSTACK()
```

### Event 211

#### Metadata

| Field        | Value      |
|--------------|------------|
| Entrypoint   | 0x1363     |
| Data Size    | 2988 bytes |
| Instructions | 343        |

```
      00 01 02 03 04 05 06 07  08 09 0A 0B 0C 0D 0E 0F
      -- -- -- -- -- -- -- --  -- -- -- -- -- -- -- --
1360:          42 45 23 80 F8  FF FF 7F F8 FF FF 7F 66     BE#.........f
1370: 64 6F 31 0B 80 55 23 80  F8 FF FF 7F F8 FF FF 7F  do1..U#.........
1380: 66 64 6F 31 46 01 38 24  80 4E 00 F0 FF FF 7F 4E  fdo1F.8$.N.....N
1390: 00 2B 72 05 01 92 01 2B  72 05 01 BA F0 FF FF 7F  .+r....+r.......
13A0: 9F 80 A0 80 27 80 A1 80  BA 2B 72 05 01 A2 80 A0  ....'....+r.....
13B0: 80 27 80 0B 80 80 2B 72  05 01 80 F0 FF FF 7F 4A  .'....+r.......J
13C0: 2B 72 05 01 F0 FF FF 7F  4A F0 FF FF 7F 2B 72 05  +r......J....+r.
13D0: 01 1C 1A 80 45 A3 80 F0  FF FF 7F F0 FF FF 7F 30  ....E..........0
13E0: 39 30 30 0B 80 45 23 80  F8 FF FF 7F F8 FF FF 7F  900..E#.........
13F0: 66 64 69 31 0B 80 55 23  80 F8 FF FF 7F F8 FF FF  fdi1..U#........
1400: 7F 66 64 69 31 2B 2B 72  05 01 A4 80 23 52 A3 80  .fdi1++r....#R..
1410: F0 FF FF 7F F0 FF FF 7F  30 39 30 30 45 A3 80 F0  ........0900E...
1420: FF FF 7F F0 FF FF 7F 30  39 30 31 0B 80 66 2B 80  .......0901..f+.
1430: 2B 72 05 01 2B 72 05 01  74 6C 6B 30 2B 2B 72 05  +r..+r..tlk0++r.
1440: 01 A5 80 1C 4E 80 23 66  2B 80 2B 72 05 01 2B 72  ....N.#f+.+r..+r
1450: 05 01 74 6C 6B 31 27 10  F0 FF FF 7F 59 1C A6 80  ..tlk1'.....Y...
1460: 45 23 80 F8 FF FF 7F F8  FF FF 7F 66 64 6F 31 0B  E#.........fdo1.
1470: 80 55 23 80 F8 FF FF 7F  F8 FF FF 7F 66 64 6F 31  .U#.........fdo1
1480: 7A 00 F0 FF FF 7F 1C 0C  80 34 2F 80 77 A7 80 0B  z........4/.w...
1490: 80 1C 0C 80 75 00 31 80  75 01 2F 00 B3 71 05 01  ....u.1.u./..q..
14A0: 2F 00 B4 71 05 01 2F 00  2F 72 05 01 2F 00 30 72  /..q.././r../.0r
14B0: 05 01 4E 00 B3 71 05 01  4E 00 B4 71 05 01 4E 00  ..N..q..N..q..N.
14C0: 2F 72 05 01 4E 00 30 72  05 01 92 01 B3 71 05 01  /r..N.0r.....q..
14D0: 92 01 B4 71 05 01 92 01  2F 72 05 01 92 01 30 72  ...q..../r....0r
14E0: 05 01 BA F0 FF FF 7F A8  80 A9 80 18 80 AA 80 BA  ................
14F0: B3 71 05 01 AB 80 AC 80  02 80 AD 80 BA B4 71 05  .q............q.
1500: 01 AE 80 AF 80 02 80 0B  80 BA 2F 72 05 01 B0 80  ........../r....
1510: B1 80 37 80 B2 80 BA 30  72 05 01 B3 80 B4 80 37  ..7....0r......7
1520: 80 B5 80 80 B3 71 05 01  80 B4 71 05 01 80 2F 72  .....q....q.../r
1530: 05 01 80 30 72 05 01 1C  4E 80 27 10 F0 FF FF 7F  ...0r...N.'.....
1540: 5D 52 A3 80 F0 FF FF 7F  F0 FF FF 7F 30 39 30 31  ]R..........0901
1550: 45 A3 80 F0 FF FF 7F F0  FF FF 7F 30 39 30 32 0B  E..........0902.
1560: 80 45 23 80 F8 FF FF 7F  F8 FF FF 7F 66 64 69 31  .E#.........fdi1
1570: 0B 80 55 23 80 F8 FF FF  7F F8 FF FF 7F 66 64 69  ..U#.........fdi
1580: 31 2A 10 F0 FF FF 7F 1C  4E 80 27 10 41 72 05 01  1*......N.'.Ar..
1590: 03 2A 10 41 72 05 01 1C  2E 80 27 10 F0 FF FF 7F  .*.Ar.....'.....
15A0: 5E 1C 64 80 52 A3 80 F0  FF FF 7F F0 FF FF 7F 30  ^.d.R..........0
15B0: 39 30 32 45 A3 80 F0 FF  FF 7F F0 FF FF 7F 30 39  902E..........09
15C0: 30 33 0B 80 27 10 41 72  05 01 04 2A 10 F0 FF FF  03..'.Ar...*....
15D0: 7F 4A B4 71 05 01 F0 FF  FF 7F 1C 55 80 4A B3 71  .J.q.......U.J.q
15E0: 05 01 F0 FF FF 7F 1C 55  80 4A 2F 72 05 01 F0 FF  .......U.J/r....
15F0: FF 7F 79 00 30 72 05 01  F0 FF FF 7F 1C B6 80 2B  ..y.0r.........+
1600: B4 71 05 01 B7 80 23 52  A3 80 F0 FF FF 7F F0 FF  .q....#R........
1610: FF 7F 30 39 30 33 45 A3  80 F0 FF FF 7F F0 FF FF  ..0903E.........
1620: 7F 30 39 30 34 0B 80 5B  23 80 B4 71 05 01 B4 71  .0904..[#..q...q
1630: 05 01 74 73 61 30 2B B4  71 05 01 B8 80 1C 4E 80  ..tsa0+.q.....N.
1640: 23 52 A3 80 F0 FF FF 7F  F0 FF FF 7F 30 39 30 34  #R..........0904
1650: 45 A3 80 F0 FF FF 7F F0  FF FF 7F 30 39 30 35 0B  E..........0905.
1660: 80 2B B4 71 05 01 B9 80  23 52 A3 80 F0 FF FF 7F  .+.q....#R......
1670: F0 FF FF 7F 30 39 30 35  45 A3 80 F0 FF FF 7F F0  ....0905E.......
1680: FF FF 7F 30 39 30 36 0B  80 5B 23 80 B4 71 05 01  ...0906..[#..q..
1690: B4 71 05 01 74 73 61 31  4B B4 71 05 01 BA 80 79  .q..tsa1K.q....y
16A0: 00 B4 71 05 01 2F 72 05  01 79 00 2F 72 05 01 B4  ..q../r..y./r...
16B0: 71 05 01 1C 4E 80 66 BB  80 2F 72 05 01 2F 72 05  q...N.f../r../r.
16C0: 01 79 65 73 30 2B 2F 72  05 01 BC 80 4A F0 FF FF  .yes0+/r....J...
16D0: 7F 2F 72 05 01 1C 64 80  79 00 2F 72 05 01 F0 FF  ./r...d.y./r....
16E0: FF 7F 1C 64 80 23 52 A3  80 F0 FF FF 7F F0 FF FF  ...d.#R.........
16F0: 7F 30 39 30 36 45 A3 80  F0 FF FF 7F F0 FF FF 7F  .0906E..........
1700: 30 39 30 68 0B 80 66 0B  80 2F 72 05 01 2F 72 05  090h..f../r../r.
1710: 01 74 6C 6B 30 2B 2F 72  05 01 BD 80 1C 4E 80 23  .tlk0+/r.....N.#
1720: 52 A3 80 F0 FF FF 7F F0  FF FF 7F 30 39 30 68 29  R..........090h)
1730: 10 F0 FF FF 7F 48 02 02  10 0C 80 80 52 17 45 A3  .....H......R.E.
1740: 80 F0 FF FF 7F F0 FF FF  7F 30 39 30 37 0B 80 01  .........0907...
1750: 16 18 02 02 10 52 80 80  6E 17 45 A3 80 F0 FF FF  .....R..n.E.....
1760: 7F F0 FF FF 7F 30 39 30  37 0B 80 01 16 18 02 02  .....0907.......
1770: 10 53 80 80 8A 17 45 A3  80 F0 FF FF 7F F0 FF FF  .S....E.........
1780: 7F 39 68 69 30 0B 80 01  16 18 02 02 10 54 80 80  .9hi0........T..
1790: A6 17 45 A3 80 F0 FF FF  7F F0 FF FF 7F 39 68 69  ..E..........9hi
17A0: 30 0B 80 01 16 18 02 02  10 55 80 80 C2 17 45 A3  0........U....E.
17B0: 80 F0 FF FF 7F F0 FF FF  7F 39 73 68 30 0B 80 01  .........9sh0...
17C0: 16 18 02 02 10 56 80 80  DE 17 45 A3 80 F0 FF FF  .....V....E.....
17D0: 7F F0 FF FF 7F 39 73 68  30 0B 80 01 16 18 02 02  .....9sh0.......
17E0: 10 51 80 80 FA 17 45 A3  80 F0 FF FF 7F F0 FF FF  .Q....E.........
17F0: 7F 30 39 30 37 0B 80 01  16 18 02 02 10 57 80 80  .0907........W..
1800: 16 18 45 A3 80 F0 FF FF  7F F0 FF FF 7F 39 68 69  ..E..........9hi
1810: 30 0B 80 01 16 18 79 00  B4 71 05 01 F0 FF FF 7F  0.....y..q......
1820: 2B 2F 72 05 01 BE 80 23  66 0B 80 2F 72 05 01 2F  +/r....#f../r../
1830: 72 05 01 74 65 6E 30 5B  23 80 B4 71 05 01 B4 71  r..ten0[#..q...q
1840: 05 01 74 73 61 30 79 00  F0 FF FF 7F B4 71 05 01  ..tsa0y......q..
1850: 2B B4 71 05 01 BF 80 1C  4E 80 23 2B B4 71 05 01  +.q.....N.#+.q..
1860: C0 80 23 52 A3 80 F0 FF  FF 7F F0 FF FF 7F 30 39  ..#R..........09
1870: 30 37 52 A3 80 F0 FF FF  7F F0 FF FF 7F 39 73 68  07R..........9sh
1880: 30 52 A3 80 F0 FF FF 7F  F0 FF FF 7F 39 68 69 30  0R..........9hi0
1890: 02 02 10 0C 80 80 AC 18  45 A3 80 F0 FF FF 7F F0  ........E.......
