# 17134107

## Common Data

| Field            | Value                       |
|------------------|-----------------------------|
| Zone             | Bastok Markets [S] (ID: 87) |
| Block Size       | 8332 bytes                  |
| Total Events     | 6                           |
| References Count | 140                         |

## List of Events

| Event ID              | Entrypoint   |   Size |   Instructions |
|-----------------------|--------------|--------|----------------|
| [65535](#event-65535) | 0x0000       |      1 |              1 |
| [46](#event-46)       | 0x0001       |   1944 |            260 |
| [49](#event-49)       | 0x0799       |   2469 |            359 |
| [53](#event-53)       | 0x113E       |   1219 |            182 |
| [51](#event-51)       | 0x1601       |    569 |             88 |
| [54](#event-54)       | 0x183A       |   1530 |            186 |

## DAT References (imed_data)

|   Index | Hex Value   |   Dec Value |
|---------|-------------|-------------|
|       0 | 0x0013      |          19 |
|       1 | 0xFFFCEB82  |  4294765442 |
|       2 | 0x0647      |        1607 |
|       3 | 0xFFFFD8F2  |  4294957298 |
|       4 | 0x08C0      |        2240 |
|       5 | 0xFFFCEF5A  |  4294766426 |
|       6 | 0xFFFFEAB4  |  4294961844 |
|       7 | 0x0B74      |        2932 |
|       8 | 0x000F      |          15 |
|       9 | 0x017D      |         381 |
|      10 | 0x0000      |           0 |
|      11 | 0x002D      |          45 |
|      12 | 0x2F93      |       12179 |
|      13 | 0x0014      |          20 |
|      14 | 0x0001      |           1 |
|      15 | 0x2F94      |       12180 |
|      16 | 0x2F95      |       12181 |
|      17 | 0x2F96      |       12182 |
|      18 | 0x001E      |          30 |
|      19 | 0x2F97      |       12183 |
|      20 | 0xFFFD05D2  |  4294772178 |
|      21 | 0x0C9C      |        3228 |
|      22 | 0x0400      |        1024 |
|      23 | 0xFFFD0571  |  4294772081 |
|      24 | 0x048F      |        1167 |
|      25 | 0x0C00      |        3072 |
|      26 | 0x003C      |          60 |
|      27 | 0x3264      |       12900 |
|      28 | 0x00C8      |         200 |
|      29 | 0x0078      |         120 |
|      30 | 0x2F98      |       12184 |
|      31 | 0x2F99      |       12185 |
|      32 | 0x2F9A      |       12186 |
|      33 | 0x2F9B      |       12187 |
|      34 | 0x2F9C      |       12188 |
|      35 | 0x00EB      |         235 |
|      36 | 0x0010      |          16 |
|      37 | 0x011F      |         287 |
|      38 | 0xFFFB2C74  |  4294650996 |
|      39 | 0xFFFD671A  |  4294797082 |
|      40 | 0xFFFFC041  |  4294950977 |
|      41 | 0x05D9      |        1497 |
|      42 | 0xFFFB21F4  |  4294648308 |
|      43 | 0xFFFD54C6  |  4294792390 |
|      44 | 0xFFFFC1A4  |  4294951332 |
|      45 | 0x00D3      |         211 |
|      46 | 0xFFFB1568  |  4294645096 |
|      47 | 0xFFFD64BB  |  4294796475 |
|      48 | 0xFFFFC1AB  |  4294951339 |
|      49 | 0x0E00      |        3584 |
|      50 | 0xFFFB16F8  |  4294645496 |
|      51 | 0xFFFD66E4  |  4294797028 |
|      52 | 0x007B      |         123 |
|      53 | 0x05B2      |        1458 |
|      54 | 0x0009      |           9 |
|      55 | 0x2F9D      |       12189 |
|      56 | 0x2F9E      |       12190 |
|      57 | 0x0C6D      |        3181 |
|      58 | 0x0003      |           3 |
|      59 | 0x2F9F      |       12191 |
|      60 | 0x2FA0      |       12192 |
|      61 | 0x012C      |         300 |
|      62 | 0x0096      |         150 |
|      63 | 0x001A      |          26 |
|      64 | 0x0057      |          87 |
|      65 | 0x0091      |         145 |
|      66 | 0x2FA1      |       12193 |
|      67 | 0x0002      |           2 |
|      68 | 0x2FA2      |       12194 |
|      69 | 0x2FA3      |       12195 |
|      70 | 0x2FA4      |       12196 |
|      71 | 0x2FA5      |       12197 |
|      72 | 0x2FA6      |       12198 |
|      73 | 0x2FA7      |       12199 |
|      74 | 0x2FB8      |       12216 |
|      75 | 0x2FB6      |       12214 |
|      76 | 0x2FB7      |       12215 |
|      77 | 0x001D      |          29 |
|      78 | 0x2FB9      |       12217 |
|      79 | 0xFFFC365C  |  4294719068 |
|      80 | 0xFFFE1C44  |  4294843460 |
|      81 | 0xFFFFDEB5  |  4294958773 |
|      82 | 0x046F      |        1135 |
|      83 | 0xFFFC349B  |  4294718619 |
|      84 | 0xFFFE14DA  |  4294841562 |
|      85 | 0x0435      |        1077 |
|      86 | 0x017C      |         380 |
|      87 | 0x2FAA      |       12202 |
|      88 | 0x0015      |          21 |
|      89 | 0x2FAB      |       12203 |
|      90 | 0x00A3      |         163 |
|      91 | 0x2FAC      |       12204 |
|      92 | 0x2FAD      |       12205 |
|      93 | 0x2FAE      |       12206 |
|      94 | 0x0018      |          24 |
|      95 | 0x2FAF      |       12207 |
|      96 | 0x0024      |          36 |
|      97 | 0x2FB0      |       12208 |
|      98 | 0x2FB1      |       12209 |
|      99 | 0x2FB3      |       12211 |
|     100 | 0x2FB2      |       12210 |
|     101 | 0x2FB4      |       12212 |
|     102 | 0x2FB5      |       12213 |
|     103 | 0x0006      |           6 |
|     104 | 0x0023      |          35 |
|     105 | 0x2FBA      |       12218 |
|     106 | 0x0007      |           7 |
|     107 | 0x3D84      |       15748 |
|     108 | 0x3FB7      |       16311 |
|     109 | 0x38F4      |       14580 |
|     110 | 0x2FBB      |       12219 |
|     111 | 0x2FBC      |       12220 |
|     112 | 0x2FBD      |       12221 |
|     113 | 0x2FBE      |       12222 |
|     114 | 0x2FBF      |       12223 |
|     115 | 0x0004      |           4 |
|     116 | 0x0005      |           5 |
|     117 | 0x2FD0      |       12240 |
|     118 | 0x2FC0      |       12224 |
|     119 | 0x000A      |          10 |
|     120 | 0x2FC9      |       12233 |
|     121 | 0x2FCA      |       12234 |
|     122 | 0x000B      |          11 |
|     123 | 0x2FC4      |       12228 |
|     124 | 0x0008      |           8 |
|     125 | 0x2FC5      |       12229 |
|     126 | 0x2FC6      |       12230 |
|     127 | 0x2FC7      |       12231 |
|     128 | 0x2FC8      |       12232 |
|     129 | 0x00C9      |         201 |
|     130 | 0x00F6      |         246 |
|     131 | 0x2FCB      |       12235 |
|     132 | 0x2FCC      |       12236 |
|     133 | 0x2FCF      |       12239 |
|     134 | 0x000D      |          13 |
|     135 | 0x000C      |          12 |
|     136 | 0x0258      |         600 |
|     137 | 0x2FCD      |       12237 |
|     138 | 0x2FCE      |       12238 |
|     139 | 0x00D7      |         215 |

## String References

- **12214**: What will you do? [Accept the offer./Decline the offer.]
- **12219**: Which item are you interested in? [$0./$1./$2./Give me some time to mull it over.]
- **12223**: Are you sureH [Beyond a doubt./On second thought...]
- **12900**: @@

## Events

### Event 65535

#### Metadata

| Field        | Value   |
|--------------|---------|
| Entrypoint   | 0x0000  |
| Data Size    | 1 bytes |
| Instructions | 1       |

```
      00 01 02 03 04 05 06 07  08 09 0A 0B 0C 0D 0E 0F
      -- -- -- -- -- -- -- --  -- -- -- -- -- -- -- --
0000: 00                                                .               
```

#### Opcodes

```
  0: 0x0000 [0x00] END_REQSTACK()
```

### Event 46

#### Metadata

| Field        | Value      |
|--------------|------------|
| Entrypoint   | 0x0001     |
| Data Size    | 1944 bytes |
| Instructions | 260        |

```
      00 01 02 03 04 05 06 07  08 09 0A 0B 0C 0D 0E 0F
      -- -- -- -- -- -- -- --  -- -- -- -- -- -- -- --
0000:    42 03 00 00 09 10 1A  06 1C 46 01 38 00 80 2F   B........F.8../
0010: 00 F3 71 05 01 92 01 D7  71 05 01 92 01 F3 71 05  ..q.....q.....q.
0020: 01 94 01 F0 FF FF 7F 94  01 D7 71 05 01 94 01 F3  ..........q.....
0030: 71 05 01 BA F0 FF FF 7F  01 80 02 80 03 80 04 80  q...............
0040: BA F3 71 05 01 05 80 06  80 03 80 07 80 80 F0 FF  ..q.............
0050: FF 7F 80 D7 71 05 01 80  F3 71 05 01 79 00 F0 FF  ....q....q..y...
0060: FF 7F D7 71 05 01 4A D7  71 05 01 F0 FF FF 7F 1C  ...q..J.q.......
0070: 08 80 45 09 80 F0 FF FF  7F F0 FF FF 7F 61 63 30  ..E..........ac0
0080: 30 0A 80 1A E5 1B 1C 0B  80 29 10 F0 FF FF 7F 40  0........).....@
0090: 2B D7 71 05 01 0C 80 23  79 00 D7 71 05 01 F3 71  +.q....#y..q...q
00A0: 05 01 4E 00 F3 71 05 01  27 10 F3 71 05 01 1D 1C  ..N..q..'..q....
00B0: 0D 80 52 09 80 F0 FF FF  7F F0 FF FF 7F 61 63 30  ..R..........ac0
00C0: 30 45 09 80 F0 FF FF 7F  F0 FF FF 7F 61 63 30 31  0E..........ac01
00D0: 0A 80 27 10 F0 FF FF 7F  44 1C 08 80 02 00 00 0E  ..'.....D.......
00E0: 80 00 3D 01 79 00 F3 71  05 01 F0 FF FF 7F 2A 10  ..=.y..q......*.
00F0: F3 71 05 01 4A F3 71 05  01 F0 FF FF 7F 6F 76 F3  .q..J.q......ov.
0100: 71 05 01 2B F3 71 05 01  0F 80 23 52 09 80 F0 FF  q..+.q....#R....
0110: FF 7F F0 FF FF 7F 61 63  30 31 45 09 80 F0 FF FF  ......ac01E.....
0120: 7F F0 FF FF 7F 61 63 33  30 0A 80 29 10 F0 FF FF  .....ac30..)....
0130: 7F 40 2B F3 71 05 01 10  80 23 01 8A 01 1C 0B 80  .@+.q....#......
0140: 2B F3 71 05 01 11 80 23  2A 10 F3 71 05 01 52 09  +.q....#*..q..R.
0150: 80 F0 FF FF 7F F0 FF FF  7F 61 63 30 31 45 09 80  .........ac01E..
0160: F0 FF FF 7F F0 FF FF 7F  61 63 30 33 0A 80 29 10  ........ac03..).
0170: F0 FF FF 7F 40 79 00 F3  71 05 01 F0 FF FF 7F 1C  ....@y..q.......
0180: 12 80 2B F3 71 05 01 13  80 23 1A 06 1C 1C 08 80  ..+.q....#......
0190: 7B F3 71 05 01 7B D7 71  05 01 52 09 80 F0 FF FF  {.q..{.q..R.....
01A0: 7F F0 FF FF 7F 61 63 33  30 52 09 80 F0 FF FF 7F  .....ac30R......
01B0: F0 FF FF 7F 61 63 30 33  BA F0 FF FF 7F 14 80 15  ....ac03........
01C0: 80 03 80 16 80 BA F3 71  05 01 17 80 18 80 03 80  .......q........
01D0: 19 80 1C 1A 80 66 0A 80  F3 71 05 01 F3 71 05 01  .....f...q...q..
01E0: 74 68 6B 31 53 F3 71 05  01 F3 71 05 01 74 68 6B  thk1S.q...q..thk
01F0: 31 48 1B 80 23 45 09 80  F0 FF FF 7F F0 FF FF 7F  1H..#E..........
0200: 61 63 30 34 0A 80 45 1C  80 F0 FF FF 7F F0 FF FF  ac04..E.........
0210: 7F 66 64 69 32 0A 80 1C  1D 80 2B F3 71 05 01 1E  .fdi2.....+.q...
0220: 80 23 66 0A 80 F3 71 05  01 F3 71 05 01 74 68 6B  .#f...q...q..thk
0230: 32 1C 12 80 52 09 80 F0  FF FF 7F F0 FF FF 7F 61  2...R..........a
0240: 63 30 34 45 09 80 F0 FF  FF 7F F0 FF FF 7F 61 63  c04E..........ac
0250: 30 35 0A 80 2B F3 71 05  01 1F 80 23 2B F3 71 05  05..+.q....#+.q.
0260: 01 20 80 23 52 09 80 F0  FF FF 7F F0 FF FF 7F 61  . .#R..........a
0270: 63 30 35 45 09 80 F0 FF  FF 7F F0 FF FF 7F 61 63  c05E..........ac
0280: 30 36 0A 80 1C 12 80 66  0A 80 F3 71 05 01 F3 71  06.....f...q...q
0290: 05 01 74 6C 6B 30 2B F3  71 05 01 21 80 23 66 0A  ..tlk0+.q..!.#f.
02A0: 80 F3 71 05 01 F3 71 05  01 74 65 6E 30 1C 12 80  ..q...q..ten0...
02B0: 52 09 80 F0 FF FF 7F F0  FF FF 7F 61 63 30 36 45  R..........ac06E
02C0: 09 80 F0 FF FF 7F F0 FF  FF 7F 61 63 30 37 0A 80  ..........ac07..
02D0: 2B F3 71 05 01 22 80 23  5D 0A 80 1D 80 1A 06 1C  +.q..".#].......
02E0: 1C 12 80 53 F3 71 05 01  F3 71 05 01 74 65 6E 30  ...S.q...q..ten0
02F0: 52 09 80 F0 FF FF 7F F0  FF FF 7F 61 63 30 37 1C  R..........ac07.
0300: 08 80 34 23 80 77 24 80  0E 80 1C 12 80 75 00 25  ..4#.w$......u.%
0310: 80 75 01 AB 09 27 10 28  72 05 01 02 27 10 29 72  .u...'.(r...'.)r
0320: 05 01 02 92 01 F0 FF FF  7F 92 01 F3 71 05 01 92  ............q...
0330: 01 28 72 05 01 94 01 F0  FF FF 7F 94 01 F3 71 05  .(r...........q.
0340: 01 94 01 28 72 05 01 94  01 29 72 05 01 BA F0 FF  ...(r....)r.....
0350: FF 7F 26 80 27 80 28 80  29 80 BA F3 71 05 01 2A  ..&.'.(.)...q..*
0360: 80 2B 80 2C 80 2D 80 BA  28 72 05 01 2E 80 2F 80  .+.,.-..(r..../.
0370: 30 80 31 80 BA 29 72 05  01 32 80 33 80 30 80 19  0.1..)r..2.3.0..
0380: 80 80 F3 71 05 01 80 28  72 05 01 80 29 72 05 01  ...q...(r...)r..
0390: 4E 01 F0 FF FF 7F 48 1B  80 23 5C 00 34 80 5C 01  N.....H..#\.4.\.
03A0: 34 80 9A 1C 08 80 5B 35  80 29 72 05 01 29 72 05  4.....[5.)r..)r.
03B0: 01 63 68 65 73 66 36 80  28 72 05 01 28 72 05 01  .chesf6.(r..(r..
03C0: 73 69 74 30 66 0A 80 F3  71 05 01 F3 71 05 01 74  sit0f...q...q..t
03D0: 68 6B 31 45 09 80 F0 FF  FF 7F F0 FF FF 7F 61 63  hk1E..........ac
03E0: 30 38 0A 80 1A 7A 1D 1C  1A 80 7C 00 F3 71 05 01  08...z....|..q..
03F0: 2B F3 71 05 01 37 80 23  52 09 80 F0 FF FF 7F F0  +.q..7.#R.......
0400: FF FF 7F 61 63 30 38 45  09 80 F0 FF FF 7F F0 FF  ...ac08E........
0410: FF 7F 61 63 30 39 0A 80  1C 1A 80 66 0A 80 F3 71  ..ac09.....f...q
0420: 05 01 F3 71 05 01 74 68  6B 32 53 F3 71 05 01 F3  ...q..thk2S.q...
0430: 71 05 01 74 68 6B 32 2B  F3 71 05 01 38 80 23 27  q..thk2+.q..8.#'
0440: 10 F3 71 05 01 1E 1C 12  80 52 09 80 F0 FF FF 7F  ..q......R......
0450: F0 FF FF 7F 61 63 30 39  45 09 80 F0 FF FF 7F F0  ....ac09E.......
0460: FF FF 7F 61 63 31 30 0A  80 2A 10 F3 71 05 01 1C  ...ac10..*..q...
0470: 1D 80 4B F3 71 05 01 39  80 52 09 80 F0 FF FF 7F  ..K.q..9.R......
0480: F0 FF FF 7F 61 63 31 30  45 09 80 F0 FF FF 7F F0  ....ac10E.......
0490: FF FF 7F 61 63 31 31 0A  80 6F 76 F3 71 05 01 66  ...ac11..ov.q..f
04A0: 3A 80 F3 71 05 01 F3 71  05 01 73 64 6F 30 1C 08  :..q...q..sdo0..
04B0: 80 2B F3 71 05 01 3B 80  23 52 09 80 F0 FF FF 7F  .+.q..;.#R......
04C0: F0 FF FF 7F 61 63 31 31  45 09 80 F0 FF FF 7F F0  ....ac11E.......
04D0: FF FF 7F 61 63 31 32 0A  80 27 10 1A 72 05 01 02  ...ac12..'..r...
04E0: 27 10 19 72 05 01 03 1C  1A 80 66 3A 80 F3 71 05  '..r......f:..q.
04F0: 01 F3 71 05 01 73 64 6F  31 79 00 F3 71 05 01 28  ..q..sdo1y..q..(
0500: 72 05 01 1C 0B 80 2B F3  71 05 01 3C 80 23 7C 01  r.....+.q..<.#|.
0510: F3 71 05 01 5D 0A 80 3D  80 66 36 80 28 72 05 01  .q..]..=.f6.(r..
0520: 28 72 05 01 73 69 74 31  1C 08 80 52 09 80 F0 FF  (r..sit1...R....
0530: FF 7F F0 FF FF 7F 61 63  31 32 45 09 80 F0 FF FF  ......ac12E.....
0540: 7F F0 FF FF 7F 61 63 31  33 0A 80 1C 3E 80 4A 28  .....ac13...>.J(
0550: 72 05 01 F3 71 05 01 6F  76 28 72 05 01 6E 28 72  r...q..ov(r..n(r
0560: 05 01 3F 80 99 28 72 05  01 1C 1D 80 1A 06 1C 1C  ..?..(r.........
0570: 12 80 35 40 80 78 1C 0E  80 AB 0A 4E 01 28 72 05  ..5@.x.....N.(r.
0580: 01 4E 00 F0 FF FF 7F 92  01 D7 71 05 01 92 01 F3  .N........q.....
0590: 71 05 01 94 01 F0 FF FF  7F 94 01 D7 71 05 01 94  q...........q...
05A0: 01 F3 71 05 01 BA F0 FF  FF 7F 14 80 15 80 03 80  ..q.............
05B0: 16 80 BA F3 71 05 01 17  80 18 80 03 80 19 80 80  ....q...........
05C0: F0 FF FF 7F 80 D7 71 05  01 80 F3 71 05 01 48 1B  ......q....q..H.
05D0: 80 23 5C 00 41 80 5C 01  41 80 9A 1C 08 80 52 09  .#\.A.\.A.....R.
05E0: 80 F0 FF FF 7F F0 FF FF  7F 00 FE FE FE 45 09 80  .............E..
05F0: F0 FF FF 7F F0 FF FF 7F  61 63 32 30 0A 80 1A E5  ........ac20....
0600: 1B 1C 12 80 66 0A 80 F3  71 05 01 F3 71 05 01 74  ....f...q...q..t
0610: 6C 6B 30 2B F3 71 05 01  42 80 23 66 0A 80 F3 71  lk0+.q..B.#f...q
0620: 05 01 F3 71 05 01 74 65  6E 30 29 10 F0 FF FF 7F  ...q..ten0).....
0630: 40 1C 0B 80 81 00 F3 71  05 01 66 43 80 F3 71 05  @......q..fC..q.
0640: 01 F3 71 05 01 74 68 62  31 52 09 80 F0 FF FF 7F  ..q..thb1R......
0650: F0 FF FF 7F 61 63 32 30  45 09 80 F0 FF FF 7F F0  ....ac20E.......
0660: FF FF 7F 61 63 32 31 0A  80 53 F3 71 05 01 F3 71  ...ac21..S.q...q
0670: 05 01 74 68 62 31 2B F3  71 05 01 44 80 23 2B F3  ..thb1+.q..D.#+.
0680: 71 05 01 45 80 23 81 01  F3 71 05 01 66 43 80 F3  q..E.#...q..fC..
0690: 71 05 01 F3 71 05 01 74  68 62 32 1C 08 80 52 09  q...q..thb2...R.
06A0: 80 F0 FF FF 7F F0 FF FF  7F 61 63 32 31 45 09 80  .........ac21E..
06B0: F0 FF FF 7F F0 FF FF 7F  61 63 32 32 0A 80 2B F3  ........ac22..+.
06C0: 71 05 01 46 80 23 2B F3  71 05 01 47 80 23 52 09  q..F.#+.q..G.#R.
06D0: 80 F0 FF FF 7F F0 FF FF  7F 61 63 32 32 45 09 80  .........ac22E..
06E0: F0 FF FF 7F F0 FF FF 7F  61 63 32 33 0A 80 66 0A  ........ac23..f.
06F0: 80 F3 71 05 01 F3 71 05  01 74 6C 6B 31 2B F3 71  ..q...q..tlk1+.q
0700: 05 01 48 80 23 2B F3 71  05 01 49 80 23 52 09 80  ..H.#+.q..I.#R..
0710: F0 FF FF 7F F0 FF FF 7F  61 63 32 33 45 09 80 F0  ........ac23E...
0720: FF FF 7F F0 FF FF 7F 61  63 32 34 0A 80 5D 0A 80  .......ac24..]..
0730: 3D 80 66 0A 80 F3 71 05  01 F3 71 05 01 74 65 6E  =.f...q...q..ten
0740: 31 53 F3 71 05 01 F3 71  05 01 74 65 6E 31 27 10  1S.q...q..ten1'.
0750: F3 71 05 01 1F 1C 1D 80  1A 06 1C 1C 12 80 7A 00  .q............z.
0760: F3 71 05 01 52 09 80 F0  FF FF 7F F0 FF FF 7F 61  .q..R..........a
0770: 63 32 34 45 09 80 F0 FF  FF 7F F0 FF FF 7F 30 62  c24E..........0b
0780: 6C 66 0A 80 46 00 45 1C  80 F0 FF FF 7F F0 FF FF  lf..F.E.........
0790: 7F 66 64 69 32 0A 80 21  00                       .fdi2..!.       
```

#### Opcodes

```
  0: 0x0001 [0x42] SET_CLI_EVENT_CANCEL_DATA()
  1: 0x0002 [0x03] ExtData[1]->WorkLocal[0] = Work_Zone[9]
  2: 0x0007 [0x1A] CALL_SUBROUTINE(address=0x1C06)
  3: 0x000A [0x46] CAMERA_CONTROL: Disable user control
  4: 0x000C [0x38] SET_CLIENT_EVENT_MODE(mode=19*)
  5: 0x000F [0x2F] Nicolaus (ID: 17134067/0x010571F3)->Render.Flags0 &= ~0x80000 // Bit 19
  6: 0x0015 [0x92] Gentle Tiger (ID: 17134039/0x010571D7)->Render.Flags3 ^= 0x01
  7: 0x001B [0x92] Nicolaus (ID: 17134067/0x010571F3)->Render.Flags3 ^= 0x01
  8: 0x0021 [0x94] LocalPlayer->Render.Flags3 ^= 0x01
  9: 0x0027 [0x94] Gentle Tiger (ID: 17134039/0x010571D7)->Render.Flags3 ^= 0x01
 10: 0x002D [0x94] Nicolaus (ID: 17134067/0x010571F3)->Render.Flags3 ^= 0x01
 11: 0x0033 [0xBA] SET_ENTITY_POSITION(entity_id=LocalPlayer, pos_x=-201.854*, pos_z=1.607*, pos_y=-9.998*, direction=196.9°*)
 12: 0x0040 [0xBA] SET_ENTITY_POSITION(entity_id=Nicolaus (ID: 17134067/0x010571F3), pos_x=-200.870*, pos_z=-5.452*, pos_y=-9.998*, direction=257.7°*)
 13: 0x004D [0x80] LOAD_WAIT(entity=LocalPlayer)
 14: 0x0052 [0x80] LOAD_WAIT(entity=Gentle Tiger (ID: 17134039/0x010571D7))
 15: 0x0057 [0x80] LOAD_WAIT(entity=Nicolaus (ID: 17134067/0x010571F3))
 16: 0x005C [0x79] LocalPlayer looks at Gentle Tiger (ID: 17134039/0x010571D7) (Basic look)
 17: 0x0066 [0x4A] Gentle Tiger (ID: 17134039/0x010571D7) looks at LocalPlayer
 18: 0x006F [0x1C] WAIT(15* ticks)
 19: 0x0072 [0x45] LOAD_SCHEDULED_TASK: Load scheduler "ac00" with entities [LocalPlayer, LocalPlayer], work=[381*, 0*]
 20: 0x0083 [0x1A] CALL_SUBROUTINE(address=0x1BE5)
 21: 0x0086 [0x1C] WAIT(45* ticks)
 22: 0x0089 [0x29] REQ_SET_WAIT(priority=0x10, entity_id=LocalPlayer, tag_num=0x40)
 23: 0x0090 [0x2B] Gentle Tiger (ID: 17134039/0x010571D7) [12179*]:
    → "Hm? Business with Nicolaus of the Mythril Musketeers, you say?"
 24: 0x0097 [0x23] WAIT_FOR_DIALOG_INTERACTION
 25: 0x0098 [0x79] Gentle Tiger (ID: 17134039/0x010571D7) looks at Nicolaus (ID: 17134067/0x010571F3) (Basic look)
 26: 0x00A2 [0x4E] SET_ENTITY_HIDE_FLAG: Show Nicolaus (ID: 17134067/0x010571F3)
 27: 0x00A8 [0x27] REQ_SET(priority=0x10, entity_id=Nicolaus (ID: 17134067/0x010571F3), tag_num=0x1D)
 28: 0x00AF [0x1C] WAIT(20* ticks)
 29: 0x00B2 [0x52] END_LOAD_SCHEDULER: End scheduler "ac00" with entities [LocalPlayer, LocalPlayer], work=381*
 30: 0x00C1 [0x45] LOAD_SCHEDULED_TASK: Load scheduler "ac01" with entities [LocalPlayer, LocalPlayer], work=[381*, 0*]
 31: 0x00D2 [0x27] REQ_SET(priority=0x10, entity_id=LocalPlayer, tag_num=0x44)
 32: 0x00D9 [0x1C] WAIT(15* ticks)
 33: 0x00DC [0x02] IF !(ExtData[1]->WorkLocal[0] == 1*) GOTO 0x013D
 34: 0x00E4 [0x79] Nicolaus (ID: 17134067/0x010571F3) looks at LocalPlayer (Basic look)
 35: 0x00EE [0x2A] GET_REQ_LEVEL(level=16, entity_id=Nicolaus (ID: 17134067/0x010571F3))
 36: 0x00F4 [0x4A] Nicolaus (ID: 17134067/0x010571F3) looks at LocalPlayer
 37: 0x00FD [0x6F] WAIT_FRAME_DELAY: Yield until WaitTime reaches zero
 38: 0x00FE [0x76] CHECK_ENTITY_RENDER_FLAGS: Wait until Nicolaus (ID: 17134067/0x010571F3) Render.Flags0 and Render.Flags3 conditions are met
 39: 0x0103 [0x2B] Nicolaus (ID: 17134067/0x010571F3) [12180*]:
    → "Well, if it isn't <Player>. How may I be of service to you today?"
 40: 0x010A [0x23] WAIT_FOR_DIALOG_INTERACTION
 41: 0x010B [0x52] END_LOAD_SCHEDULER: End scheduler "ac01" with entities [LocalPlayer, LocalPlayer], work=381*
 42: 0x011A [0x45] LOAD_SCHEDULED_TASK: Load scheduler "ac30" with entities [LocalPlayer, LocalPlayer], work=[381*, 0*]
 43: 0x012B [0x29] REQ_SET_WAIT(priority=0x10, entity_id=LocalPlayer, tag_num=0x40)
 44: 0x0132 [0x2B] Nicolaus (ID: 17134067/0x010571F3) [12181*]:
    → "You wished to see me about something?"
 45: 0x0139 [0x23] WAIT_FOR_DIALOG_INTERACTION
 46: 0x013A [0x01] GOTO 0x018A
 47: 0x013D [0x1C] WAIT(45* ticks)
 48: 0x0140 [0x2B] Nicolaus (ID: 17134067/0x010571F3) [12182*]:
    → "It's alright, Gentle Tiger. Please, leave us."
 49: 0x0147 [0x23] WAIT_FOR_DIALOG_INTERACTION
 50: 0x0148 [0x2A] GET_REQ_LEVEL(level=16, entity_id=Nicolaus (ID: 17134067/0x010571F3))
 51: 0x014E [0x52] END_LOAD_SCHEDULER: End scheduler "ac01" with entities [LocalPlayer, LocalPlayer], work=381*
 52: 0x015D [0x45] LOAD_SCHEDULED_TASK: Load scheduler "ac03" with entities [LocalPlayer, LocalPlayer], work=[381*, 0*]
 53: 0x016E [0x29] REQ_SET_WAIT(priority=0x10, entity_id=LocalPlayer, tag_num=0x40)
 54: 0x0175 [0x79] Nicolaus (ID: 17134067/0x010571F3) looks at LocalPlayer (Basic look)
 55: 0x017F [0x1C] WAIT(30* ticks)
 56: 0x0182 [0x2B] Nicolaus (ID: 17134067/0x010571F3) [12183*]:
    → "Hmmm... Erlene..."
 57: 0x0189 [0x23] WAIT_FOR_DIALOG_INTERACTION

SUBROUTINE_018A:
 58: 0x018A [0x1A] CALL_SUBROUTINE(address=0x1C06)
 59: 0x018D [0x1C] WAIT(15* ticks)
 60: 0x0190 [0x7B] Nicolaus (ID: 17134067/0x010571F3) stops talking
 61: 0x0195 [0x7B] Gentle Tiger (ID: 17134039/0x010571D7) stops talking
 62: 0x019A [0x52] END_LOAD_SCHEDULER: End scheduler "ac30" with entities [LocalPlayer, LocalPlayer], work=381*
 63: 0x01A9 [0x52] END_LOAD_SCHEDULER: End scheduler "ac03" with entities [LocalPlayer, LocalPlayer], work=381*
 64: 0x01B8 [0xBA] SET_ENTITY_POSITION(entity_id=LocalPlayer, pos_x=-195.118*, pos_z=3.228*, pos_y=-9.998*, direction=90.0°*)
 65: 0x01C5 [0xBA] SET_ENTITY_POSITION(entity_id=Nicolaus (ID: 17134067/0x010571F3), pos_x=-195.215*, pos_z=1.167*, pos_y=-9.998*, direction=270.0°*)
 66: 0x01D2 [0x1C] WAIT(60* ticks)
 67: 0x01D5 [0x66] LOAD_EXT_SCHEDULER_MAIN: Load scheduler "thk1" with entities [Nicolaus (ID: 17134067/0x010571F3), Nicolaus (ID: 17134067/0x010571F3)], work=0*
 68: 0x01E4 [0x53] WAIT_SCHEDULER_TASK: Wait for scheduler "thk1" with entities [Nicolaus (ID: 17134067/0x010571F3), Nicolaus (ID: 17134067/0x010571F3)]
 69: 0x01F1 [0x48] [System] [12900*]:
    → "@@"
 70: 0x01F4 [0x23] WAIT_FOR_DIALOG_INTERACTION
 71: 0x01F5 [0x45] LOAD_SCHEDULED_TASK: Load scheduler "ac04" with entities [LocalPlayer, LocalPlayer], work=[381*, 0*]
 72: 0x0206 [0x45] LOAD_SCHEDULED_TASK: Load scheduler "fdi2" with entities [LocalPlayer, LocalPlayer], work=[200*, 0*]
 73: 0x0217 [0x1C] WAIT(120* ticks)
 74: 0x021A [0x2B] Nicolaus (ID: 17134067/0x010571F3) [12184*]:
    → "So Professor Schultz has gone and disappeared unannounced yet again, has he?"
 75: 0x0221 [0x23] WAIT_FOR_DIALOG_INTERACTION
 76: 0x0222 [0x66] LOAD_EXT_SCHEDULER_MAIN: Load scheduler "thk2" with entities [Nicolaus (ID: 17134067/0x010571F3), Nicolaus (ID: 17134067/0x010571F3)], work=0*
 77: 0x0231 [0x1C] WAIT(30* ticks)
 78: 0x0234 [0x52] END_LOAD_SCHEDULER: End scheduler "ac04" with entities [LocalPlayer, LocalPlayer], work=381*
 79: 0x0243 [0x45] LOAD_SCHEDULED_TASK: Load scheduler "ac05" with entities [LocalPlayer, LocalPlayer], work=[381*, 0*]
 80: 0x0254 [0x2B] Nicolaus (ID: 17134067/0x010571F3) [12185*]:
    → "He has always been quite the enthusiast for trying out new techniques in private. Why, I still recall one of his previous disappearing acts. One moment he was standing right before my eyes and the next he was gone, after calling forth one of those "storms" of his."
 81: 0x025B [0x23] WAIT_FOR_DIALOG_INTERACTION
 82: 0x025C [0x2B] Nicolaus (ID: 17134067/0x010571F3) [12186*]:
    → "The march of time must have been somehow different in...well, wherever he was."
 83: 0x0263 [0x23] WAIT_FOR_DIALOG_INTERACTION
 84: 0x0264 [0x52] END_LOAD_SCHEDULER: End scheduler "ac05" with entities [LocalPlayer, LocalPlayer], work=381*
 85: 0x0273 [0x45] LOAD_SCHEDULED_TASK: Load scheduler "ac06" with entities [LocalPlayer, LocalPlayer], work=[381*, 0*]
 86: 0x0284 [0x1C] WAIT(30* ticks)
 87: 0x0287 [0x66] LOAD_EXT_SCHEDULER_MAIN: Load scheduler "tlk0" with entities [Nicolaus (ID: 17134067/0x010571F3), Nicolaus (ID: 17134067/0x010571F3)], work=0*
 88: 0x0296 [0x2B] Nicolaus (ID: 17134067/0x010571F3) [12187*]:
    → "He claims he intended to be gone for only a short while. And yet some three weeks passed with no sign of his return. Caused quite the ruckus among the people here, it did."
 89: 0x029D [0x23] WAIT_FOR_DIALOG_INTERACTION
 90: 0x029E [0x66] LOAD_EXT_SCHEDULER_MAIN: Load scheduler "ten0" with entities [Nicolaus (ID: 17134067/0x010571F3), Nicolaus (ID: 17134067/0x010571F3)], work=0*
 91: 0x02AD [0x1C] WAIT(30* ticks)
 92: 0x02B0 [0x52] END_LOAD_SCHEDULER: End scheduler "ac06" with entities [LocalPlayer, LocalPlayer], work=381*
 93: 0x02BF [0x45] LOAD_SCHEDULED_TASK: Load scheduler "ac07" with entities [LocalPlayer, LocalPlayer], work=[381*, 0*]
 94: 0x02D0 [0x2B] Nicolaus (ID: 17134067/0x010571F3) [12188*]:
    → "As Erlene properly informed you, in the end it was I who stumbled upon the professor."
 95: 0x02D7 [0x23] WAIT_FOR_DIALOG_INTERACTION
 96: 0x02D8 [0x5D] SET_MUSIC_VOLUME(volume=0*, fade_time=120*)
 97: 0x02DD [0x1A] CALL_SUBROUTINE(address=0x1C06)
 98: 0x02E0 [0x1C] WAIT(30* ticks)
 99: 0x02E3 [0x53] WAIT_SCHEDULER_TASK: Wait for scheduler "ten0" with entities [Nicolaus (ID: 17134067/0x010571F3), Nicolaus (ID: 17134067/0x010571F3)]
100: 0x02F0 [0x52] END_LOAD_SCHEDULER: End scheduler "ac07" with entities [LocalPlayer, LocalPlayer], work=381*
101: 0x02FF [0x1C] WAIT(15* ticks)
102: 0x0302 [0x34] LOAD_UNLOAD_ZONE(zone_id=235*)
103: 0x0305 [0x77] SET_EVENT_TIME_WEATHER(hour=16*, weather=1*)
104: 0x030A [0x1C] WAIT(30* ticks)
105: 0x030D [0x75] LOAD_ROOM(Load indoor room, room=287*)
106: 0x0311 [0x75] LOAD_ROOM(No action)
107: 0x0313 [0xAB] EventEntity->UnknownFlag = 1 // Enable unknown flag
108: 0x0315 [0x27] REQ_SET(priority=0x10, entity_id=Schultz (ID: 17134120/0x01057228), tag_num=0x02)
109: 0x031C [0x27] REQ_SET(priority=0x10, entity_id=Unnamed NPC (ID: 17134121/0x01057229), tag_num=0x02)
110: 0x0323 [0x92] LocalPlayer->Render.Flags3 ^= 0x01
111: 0x0329 [0x92] Nicolaus (ID: 17134067/0x010571F3)->Render.Flags3 ^= 0x01
112: 0x032F [0x92] Schultz (ID: 17134120/0x01057228)->Render.Flags3 ^= 0x01
113: 0x0335 [0x94] LocalPlayer->Render.Flags3 ^= 0x01
114: 0x033B [0x94] Nicolaus (ID: 17134067/0x010571F3)->Render.Flags3 ^= 0x01
115: 0x0341 [0x94] Schultz (ID: 17134120/0x01057228)->Render.Flags3 ^= 0x01
116: 0x0347 [0x94] Unnamed NPC (ID: 17134121/0x01057229)->Render.Flags3 ^= 0x01
117: 0x034D [0xBA] SET_ENTITY_POSITION(entity_id=LocalPlayer, pos_x=-316.300*, pos_z=-170.214*, pos_y=-16.319*, direction=131.6°*)
118: 0x035A [0xBA] SET_ENTITY_POSITION(entity_id=Nicolaus (ID: 17134067/0x010571F3), pos_x=-318.988*, pos_z=-174.906*, pos_y=-15.964*, direction=18.5°*)
119: 0x0367 [0xBA] SET_ENTITY_POSITION(entity_id=Schultz (ID: 17134120/0x01057228), pos_x=-322.200*, pos_z=-170.821*, pos_y=-15.957*, direction=315.0°*)
120: 0x0374 [0xBA] SET_ENTITY_POSITION(entity_id=Unnamed NPC (ID: 17134121/0x01057229), pos_x=-321.800*, pos_z=-170.268*, pos_y=-15.957*, direction=270.0°*)
121: 0x0381 [0x80] LOAD_WAIT(entity=Nicolaus (ID: 17134067/0x010571F3))
122: 0x0386 [0x80] LOAD_WAIT(entity=Schultz (ID: 17134120/0x01057228))
123: 0x038B [0x80] LOAD_WAIT(entity=Unnamed NPC (ID: 17134121/0x01057229))
124: 0x0390 [0x4E] SET_ENTITY_HIDE_FLAG: Hide LocalPlayer
125: 0x0396 [0x48] [System] [12900*]:
    → "@@"
126: 0x0399 [0x23] WAIT_FOR_DIALOG_INTERACTION
127: 0x039A [0x5C] MUSIC_CONTROL: Set Idle (Day) music to song 123*
128: 0x039E [0x5C] MUSIC_CONTROL: Set Idle (Night) music to song 123*
129: 0x03A2 [0x9A] WAIT_MUSIC_SERVER()
130: 0x03A3 [0x1C] WAIT(15* ticks)
131: 0x03A6 [0x5B] LOAD_EXT_SCHEDULER: Load scheduler "ches" with entities [Unnamed NPC (ID: 17134121/0x01057229), Unnamed NPC (ID: 17134121/0x01057229)], work=1458*
132: 0x03B5 [0x66] LOAD_EXT_SCHEDULER_MAIN: Load scheduler "sit0" with entities [Schultz (ID: 17134120/0x01057228), Schultz (ID: 17134120/0x01057228)], work=9*
133: 0x03C4 [0x66] LOAD_EXT_SCHEDULER_MAIN: Load scheduler "thk1" with entities [Nicolaus (ID: 17134067/0x010571F3), Nicolaus (ID: 17134067/0x010571F3)], work=0*
134: 0x03D3 [0x45] LOAD_SCHEDULED_TASK: Load scheduler "ac08" with entities [LocalPlayer, LocalPlayer], work=[381*, 0*]
135: 0x03E4 [0x1A] CALL_SUBROUTINE(address=0x1D7A)
136: 0x03E7 [0x1C] WAIT(60* ticks)
137: 0x03EA [0x7C] Nicolaus (ID: 17134067/0x010571F3)->Render.Flags2 |= 0x00
138: 0x03F0 [0x2B] Nicolaus (ID: 17134067/0x010571F3) [12189*]:
    → "I simply visited his residence to search for some clue as to his whereabouts."
139: 0x03F7 [0x23] WAIT_FOR_DIALOG_INTERACTION
140: 0x03F8 [0x52] END_LOAD_SCHEDULER: End scheduler "ac08" with entities [LocalPlayer, LocalPlayer], work=381*
141: 0x0407 [0x45] LOAD_SCHEDULED_TASK: Load scheduler "ac09" with entities [LocalPlayer, LocalPlayer], work=[381*, 0*]
142: 0x0418 [0x1C] WAIT(60* ticks)
143: 0x041B [0x66] LOAD_EXT_SCHEDULER_MAIN: Load scheduler "thk2" with entities [Nicolaus (ID: 17134067/0x010571F3), Nicolaus (ID: 17134067/0x010571F3)], work=0*
144: 0x042A [0x53] WAIT_SCHEDULER_TASK: Wait for scheduler "thk2" with entities [Nicolaus (ID: 17134067/0x010571F3), Nicolaus (ID: 17134067/0x010571F3)]
145: 0x0437 [0x2B] Nicolaus (ID: 17134067/0x010571F3) [12190*]:
    → "It was then that I saw the "storm" formulation posted out on the wall. And I became convinced that he had never even left the comfort of his own quarters."
146: 0x043E [0x23] WAIT_FOR_DIALOG_INTERACTION
147: 0x043F [0x27] REQ_SET(priority=0x10, entity_id=Nicolaus (ID: 17134067/0x010571F3), tag_num=0x1E)
148: 0x0446 [0x1C] WAIT(30* ticks)
149: 0x0449 [0x52] END_LOAD_SCHEDULER: End scheduler "ac09" with entities [LocalPlayer, LocalPlayer], work=381*
150: 0x0458 [0x45] LOAD_SCHEDULED_TASK: Load scheduler "ac10" with entities [LocalPlayer, LocalPlayer], work=[381*, 0*]
151: 0x0469 [0x2A] GET_REQ_LEVEL(level=16, entity_id=Nicolaus (ID: 17134067/0x010571F3))
152: 0x046F [0x1C] WAIT(120* ticks)
153: 0x0472 [0x4B] UPDATE_ENTITY_YAW(entity=Nicolaus (ID: 17134067/0x010571F3), yaw=17.5°*)
154: 0x0479 [0x52] END_LOAD_SCHEDULER: End scheduler "ac10" with entities [LocalPlayer, LocalPlayer], work=381*
155: 0x0488 [0x45] LOAD_SCHEDULED_TASK: Load scheduler "ac11" with entities [LocalPlayer, LocalPlayer], work=[381*, 0*]
156: 0x0499 [0x6F] WAIT_FRAME_DELAY: Yield until WaitTime reaches zero
157: 0x049A [0x76] CHECK_ENTITY_RENDER_FLAGS: Wait until Nicolaus (ID: 17134067/0x010571F3) Render.Flags0 and Render.Flags3 conditions are met
158: 0x049F [0x66] LOAD_EXT_SCHEDULER_MAIN: Load scheduler "sdo0" with entities [Nicolaus (ID: 17134067/0x010571F3), Nicolaus (ID: 17134067/0x010571F3)], work=3*
159: 0x04AE [0x1C] WAIT(15* ticks)
160: 0x04B1 [0x2B] Nicolaus (ID: 17134067/0x010571F3) [12191*]:
    → "I proceeded to call out his name, not hiding my agitation."
161: 0x04B8 [0x23] WAIT_FOR_DIALOG_INTERACTION
162: 0x04B9 [0x52] END_LOAD_SCHEDULER: End scheduler "ac11" with entities [LocalPlayer, LocalPlayer], work=381*
163: 0x04C8 [0x45] LOAD_SCHEDULED_TASK: Load scheduler "ac12" with entities [LocalPlayer, LocalPlayer], work=[381*, 0*]
164: 0x04D9 [0x27] REQ_SET(priority=0x10, entity_id=Unnamed NPC (ID: 17134106/0x0105721A), tag_num=0x02)
165: 0x04E0 [0x27] REQ_SET(priority=0x10, entity_id=??? (ID: 17134105/0x01057219), tag_num=0x03)
166: 0x04E7 [0x1C] WAIT(60* ticks)
167: 0x04EA [0x66] LOAD_EXT_SCHEDULER_MAIN: Load scheduler "sdo1" with entities [Nicolaus (ID: 17134067/0x010571F3), Nicolaus (ID: 17134067/0x010571F3)], work=3*
168: 0x04F9 [0x79] Nicolaus (ID: 17134067/0x010571F3) looks at Schultz (ID: 17134120/0x01057228) (Basic look)
169: 0x0503 [0x1C] WAIT(45* ticks)
170: 0x0506 [0x2B] Nicolaus (ID: 17134067/0x010571F3) [12192*]:
    → "And sure enough, the good professor materialized right there, in quiet contemplation before his chessboard."
171: 0x050D [0x23] WAIT_FOR_DIALOG_INTERACTION
172: 0x050E [0x7C] Nicolaus (ID: 17134067/0x010571F3)->Render.Flags2 |= 0x01
173: 0x0514 [0x5D] SET_MUSIC_VOLUME(volume=0*, fade_time=300*)
174: 0x0519 [0x66] LOAD_EXT_SCHEDULER_MAIN: Load scheduler "sit1" with entities [Schultz (ID: 17134120/0x01057228), Schultz (ID: 17134120/0x01057228)], work=9*
175: 0x0528 [0x1C] WAIT(15* ticks)
176: 0x052B [0x52] END_LOAD_SCHEDULER: End scheduler "ac12" with entities [LocalPlayer, LocalPlayer], work=381*
177: 0x053A [0x45] LOAD_SCHEDULED_TASK: Load scheduler "ac13" with entities [LocalPlayer, LocalPlayer], work=[381*, 0*]
178: 0x054B [0x1C] WAIT(150* ticks)
179: 0x054E [0x4A] Schultz (ID: 17134120/0x01057228) looks at Nicolaus (ID: 17134067/0x010571F3)
180: 0x0557 [0x6F] WAIT_FRAME_DELAY: Yield until WaitTime reaches zero
181: 0x0558 [0x76] CHECK_ENTITY_RENDER_FLAGS: Wait until Schultz (ID: 17134120/0x01057228) Render.Flags0 and Render.Flags3 conditions are met
182: 0x055D [0x6E] Schultz (ID: 17134120/0x01057228) uses emote 26*
183: 0x0564 [0x99] Wait for Schultz (ID: 17134120/0x01057228) animation to complete
184: 0x0569 [0x1C] WAIT(120* ticks)
185: 0x056C [0x1A] CALL_SUBROUTINE(address=0x1C06)
186: 0x056F [0x1C] WAIT(30* ticks)
187: 0x0572 [0x35] LOAD_ZONE_NO_CLOSE(zone_id=87*)
188: 0x0575 [0x78] ENABLE_GAME_TIMER_RESET_WEATHER()
189: 0x0576 [0x1C] WAIT(1* ticks)
190: 0x0579 [0xAB] EventEntity->UnknownFlag = 0 // Disable unknown flag
191: 0x057B [0x4E] SET_ENTITY_HIDE_FLAG: Hide Schultz (ID: 17134120/0x01057228)
192: 0x0581 [0x4E] SET_ENTITY_HIDE_FLAG: Show LocalPlayer
193: 0x0587 [0x92] Gentle Tiger (ID: 17134039/0x010571D7)->Render.Flags3 ^= 0x01
194: 0x058D [0x92] Nicolaus (ID: 17134067/0x010571F3)->Render.Flags3 ^= 0x01
195: 0x0593 [0x94] LocalPlayer->Render.Flags3 ^= 0x01
196: 0x0599 [0x94] Gentle Tiger (ID: 17134039/0x010571D7)->Render.Flags3 ^= 0x01
197: 0x059F [0x94] Nicolaus (ID: 17134067/0x010571F3)->Render.Flags3 ^= 0x01
198: 0x05A5 [0xBA] SET_ENTITY_POSITION(entity_id=LocalPlayer, pos_x=-195.118*, pos_z=3.228*, pos_y=-9.998*, direction=90.0°*)
199: 0x05B2 [0xBA] SET_ENTITY_POSITION(entity_id=Nicolaus (ID: 17134067/0x010571F3), pos_x=-195.215*, pos_z=1.167*, pos_y=-9.998*, direction=270.0°*)
200: 0x05BF [0x80] LOAD_WAIT(entity=LocalPlayer)
201: 0x05C4 [0x80] LOAD_WAIT(entity=Gentle Tiger (ID: 17134039/0x010571D7))
202: 0x05C9 [0x80] LOAD_WAIT(entity=Nicolaus (ID: 17134067/0x010571F3))
203: 0x05CE [0x48] [System] [12900*]:
    → "@@"
204: 0x05D1 [0x23] WAIT_FOR_DIALOG_INTERACTION
205: 0x05D2 [0x5C] MUSIC_CONTROL: Set Idle (Day) music to song 145*
206: 0x05D6 [0x5C] MUSIC_CONTROL: Set Idle (Night) music to song 145*
207: 0x05DA [0x9A] WAIT_MUSIC_SERVER()
208: 0x05DB [0x1C] WAIT(15* ticks)
209: 0x05DE [0x52] END_LOAD_SCHEDULER: End scheduler 0xFEFEFE00 with entities [LocalPlayer, LocalPlayer], work=381*
210: 0x05ED [0x45] LOAD_SCHEDULED_TASK: Load scheduler "ac20" with entities [LocalPlayer, LocalPlayer], work=[381*, 0*]
211: 0x05FE [0x1A] CALL_SUBROUTINE(address=0x1BE5)
212: 0x0601 [0x1C] WAIT(30* ticks)
213: 0x0604 [0x66] LOAD_EXT_SCHEDULER_MAIN: Load scheduler "tlk0" with entities [Nicolaus (ID: 17134067/0x010571F3), Nicolaus (ID: 17134067/0x010571F3)], work=0*
214: 0x0613 [0x2B] Nicolaus (ID: 17134067/0x010571F3) [12193*]:
    → "Did Erlene happen to mention anything else in regards to Professor Schultz?"
215: 0x061A [0x23] WAIT_FOR_DIALOG_INTERACTION
216: 0x061B [0x66] LOAD_EXT_SCHEDULER_MAIN: Load scheduler "ten0" with entities [Nicolaus (ID: 17134067/0x010571F3), Nicolaus (ID: 17134067/0x010571F3)], work=0*
217: 0x062A [0x29] REQ_SET_WAIT(priority=0x10, entity_id=LocalPlayer, tag_num=0x40)
218: 0x0631 [0x1C] WAIT(45* ticks)
219: 0x0634 [0x81] SET_ENTITY_BLINKING(blink_flag=0x00, entity=Nicolaus (ID: 17134067/0x010571F3))
220: 0x063A [0x66] LOAD_EXT_SCHEDULER_MAIN: Load scheduler "thb1" with entities [Nicolaus (ID: 17134067/0x010571F3), Nicolaus (ID: 17134067/0x010571F3)], work=2*
221: 0x0649 [0x52] END_LOAD_SCHEDULER: End scheduler "ac20" with entities [LocalPlayer, LocalPlayer], work=381*
222: 0x0658 [0x45] LOAD_SCHEDULED_TASK: Load scheduler "ac21" with entities [LocalPlayer, LocalPlayer], work=[381*, 0*]
223: 0x0669 [0x53] WAIT_SCHEDULER_TASK: Wait for scheduler "thb1" with entities [Nicolaus (ID: 17134067/0x010571F3), Nicolaus (ID: 17134067/0x010571F3)]
224: 0x0676 [0x2B] Nicolaus (ID: 17134067/0x010571F3) [12194*]:
    → "Reconnaissance, eh? So then, he seeks to gather intelligence on the Beastman Confederate's movements."
225: 0x067D [0x23] WAIT_FOR_DIALOG_INTERACTION
226: 0x067E [0x2B] Nicolaus (ID: 17134067/0x010571F3) [12195*]:
    → "It is no doubt the Quadav Shieldwarriors that have stirred his concern."
227: 0x0685 [0x23] WAIT_FOR_DIALOG_INTERACTION
228: 0x0686 [0x81] SET_ENTITY_BLINKING(blink_flag=0x01, entity=Nicolaus (ID: 17134067/0x010571F3))
229: 0x068C [0x66] LOAD_EXT_SCHEDULER_MAIN: Load scheduler "thb2" with entities [Nicolaus (ID: 17134067/0x010571F3), Nicolaus (ID: 17134067/0x010571F3)], work=2*
230: 0x069B [0x1C] WAIT(15* ticks)
231: 0x069E [0x52] END_LOAD_SCHEDULER: End scheduler "ac21" with entities [LocalPlayer, LocalPlayer], work=381*
232: 0x06AD [0x45] LOAD_SCHEDULED_TASK: Load scheduler "ac22" with entities [LocalPlayer, LocalPlayer], work=[381*, 0*]
233: 0x06BE [0x2B] Nicolaus (ID: 17134067/0x010571F3) [12196*]:
    → "In which case, it is most probable that he has headed for the Derfland Front."
234: 0x06C5 [0x23] WAIT_FOR_DIALOG_INTERACTION
235: 0x06C6 [0x2B] Nicolaus (ID: 17134067/0x010571F3) [12197*]:
    → "That front extends northeast from Pashhow Marshlands to the Rolanberry Fields, and then farther north still to Vunkerl Inlet."
236: 0x06CD [0x23] WAIT_FOR_DIALOG_INTERACTION
237: 0x06CE [0x52] END_LOAD_SCHEDULER: End scheduler "ac22" with entities [LocalPlayer, LocalPlayer], work=381*
238: 0x06DD [0x45] LOAD_SCHEDULED_TASK: Load scheduler "ac23" with entities [LocalPlayer, LocalPlayer], work=[381*, 0*]
239: 0x06EE [0x66] LOAD_EXT_SCHEDULER_MAIN: Load scheduler "tlk1" with entities [Nicolaus (ID: 17134067/0x010571F3), Nicolaus (ID: 17134067/0x010571F3)], work=0*
240: 0x06FD [0x2B] Nicolaus (ID: 17134067/0x010571F3) [12198*]:
    → "But that is just my best guess... Using his art to conceal himself when he seeks privacy is one thing, but to be surrounded by enemies deep within hostile territory... That is truly a matter for grave concern."
241: 0x0704 [0x23] WAIT_FOR_DIALOG_INTERACTION
242: 0x0705 [0x2B] Nicolaus (ID: 17134067/0x010571F3) [12199*]:
    → "Perhaps it would be prudent to go and search for one of the professor's "storms." Under the strictest of caution, naturally."
243: 0x070C [0x23] WAIT_FOR_DIALOG_INTERACTION
244: 0x070D [0x52] END_LOAD_SCHEDULER: End scheduler "ac23" with entities [LocalPlayer, LocalPlayer], work=381*
245: 0x071C [0x45] LOAD_SCHEDULED_TASK: Load scheduler "ac24" with entities [LocalPlayer, LocalPlayer], work=[381*, 0*]
246: 0x072D [0x5D] SET_MUSIC_VOLUME(volume=0*, fade_time=300*)
247: 0x0732 [0x66] LOAD_EXT_SCHEDULER_MAIN: Load scheduler "ten1" with entities [Nicolaus (ID: 17134067/0x010571F3), Nicolaus (ID: 17134067/0x010571F3)], work=0*
248: 0x0741 [0x53] WAIT_SCHEDULER_TASK: Wait for scheduler "ten1" with entities [Nicolaus (ID: 17134067/0x010571F3), Nicolaus (ID: 17134067/0x010571F3)]
249: 0x074E [0x27] REQ_SET(priority=0x10, entity_id=Nicolaus (ID: 17134067/0x010571F3), tag_num=0x1F)
250: 0x0755 [0x1C] WAIT(120* ticks)
251: 0x0758 [0x1A] CALL_SUBROUTINE(address=0x1C06)
252: 0x075B [0x1C] WAIT(30* ticks)
253: 0x075E [0x7A] VM_CONTROL: Reset VM for Nicolaus (ID: 17134067/0x010571F3)
254: 0x0764 [0x52] END_LOAD_SCHEDULER: End scheduler "ac24" with entities [LocalPlayer, LocalPlayer], work=381*
255: 0x0773 [0x45] LOAD_SCHEDULED_TASK: Load scheduler "0blf" with entities [LocalPlayer, LocalPlayer], work=[381*, 0*]
256: 0x0784 [0x46] CAMERA_CONTROL: Restore default settings
257: 0x0786 [0x45] LOAD_SCHEDULED_TASK: Load scheduler "fdi2" with entities [LocalPlayer, LocalPlayer], work=[200*, 0*]
258: 0x0797 [0x21] END_EVENT
259: 0x0798 [0x00] END_REQSTACK()
```

### Event 49

#### Metadata

| Field        | Value      |
|--------------|------------|
| Entrypoint   | 0x0799     |
| Data Size    | 2469 bytes |
| Instructions | 353        |

```
      00 01 02 03 04 05 06 07  08 09 0A 0B 0C 0D 0E 0F
      -- -- -- -- -- -- -- --  -- -- -- -- -- -- -- --
0790:                             42 03 00 00 09 10 02           B......
07A0: 00 00 0E 80 00 3E 08 4A  27 72 05 01 F0 FF FF 7F  .....>.J'r......
07B0: 6F 76 27 72 05 01 2B 27  72 05 01 4A 80 23 24 4B  ov'r..+'r..J.#$K
07C0: 80 0A 80 0A 80 25 02 00  10 0E 80 00 E0 07 2B 27  .....%........+'
07D0: 72 05 01 4C 80 23 03 01  10 0E 80 21 00 01 E0 07  r..L.#.....!....
07E0: 6E 27 72 05 01 4D 80 99  27 72 05 01 2B 27 72 05  n'r..M..'r..+'r.
07F0: 01 4E 80 23 1A 06 1C 46  01 38 00 80 92 01 27 72  .N.#...F.8....'r
0800: 05 01 94 01 F0 FF FF 7F  94 01 27 72 05 01 BA F0  ..........'r....
0810: FF FF 7F 4F 80 50 80 51  80 52 80 80 F0 FF FF 7F  ...O.P.Q.R......
0820: 80 27 72 05 01 79 00 F0  FF FF 7F 27 72 05 01 4A  .'r..y.....'r..J
0830: 27 72 05 01 F0 FF FF 7F  1C 08 80 01 9F 0C 1A 06  'r..............
0840: 1C 46 01 38 00 80 92 01  27 72 05 01 94 01 F0 FF  .F.8....'r......
0850: FF 7F 94 01 27 72 05 01  BA F0 FF FF 7F 4F 80 50  ....'r.......O.P
0860: 80 51 80 52 80 80 F0 FF  FF 7F 80 27 72 05 01 79  .Q.R.......'r..y
0870: 00 F0 FF FF 7F 27 72 05  01 1C 08 80 02 00 00 43  .....'r........C
0880: 80 00 A6 08 BA 27 72 05  01 53 80 54 80 51 80 55  .....'r..S.T.Q.U
0890: 80 4A 27 72 05 01 F0 FF  FF 7F 6F 76 27 72 05 01  .J'r......ov'r..
08A0: 1C 08 80 01 9F 0C 66 4D  80 27 72 05 01 27 72 05  ......fM.'r..'r.
08B0: 01 74 68 6B 31 45 56 80  F0 FF FF 7F F0 FF FF 7F  .thk1EV.........
08C0: 73 62 30 31 0A 80 1A E5  1B 1C 3E 80 52 56 80 F0  sb01......>.RV..
08D0: FF FF 7F F0 FF FF 7F 73  62 30 31 45 56 80 F0 FF  .......sb01EV...
08E0: FF 7F F0 FF FF 7F 73 62  30 30 0A 80 2B 27 72 05  ......sb00..+'r.
08F0: 01 57 80 23 5D 0A 80 3D  80 52 56 80 F0 FF FF 7F  .W.#]..=.RV.....
0900: F0 FF FF 7F 73 62 30 30  45 56 80 F0 FF FF 7F F0  ....sb00EV......
0910: FF FF 7F 73 62 30 32 0A  80 66 4D 80 27 72 05 01  ...sb02..fM.'r..
0920: 27 72 05 01 74 68 6B 32  53 27 72 05 01 27 72 05  'r..thk2S'r..'r.
0930: 01 74 68 6B 32 1C 12 80  4A 27 72 05 01 F0 FF FF  .thk2...J'r.....
0940: 7F 6F 76 27 72 05 01 6E  27 72 05 01 58 80 99 27  .ov'r..n'r..X..'
0950: 72 05 01 99 27 72 05 01  2B 27 72 05 01 59 80 23  r...'r..+'r..Y.#
0960: 7B 27 72 05 01 5C 00 5A  80 5C 01 5A 80 9A 52 56  {'r..\.Z.\.Z..RV
0970: 80 F0 FF FF 7F F0 FF FF  7F 73 62 30 32 45 56 80  .........sb02EV.
0980: F0 FF FF 7F F0 FF FF 7F  73 62 30 33 0A 80 1C 12  ........sb03....
0990: 80 66 4D 80 27 72 05 01  27 72 05 01 74 68 6B 31  .fM.'r..'r..thk1
09A0: 53 27 72 05 01 27 72 05  01 74 68 6B 31 1C 1A 80  S'r..'r..thk1...
09B0: 2B 27 72 05 01 5B 80 23  7C 00 27 72 05 01 52 56  +'r..[.#|.'r..RV
09C0: 80 F0 FF FF 7F F0 FF FF  7F 73 62 30 33 45 56 80  .........sb03EV.
09D0: F0 FF FF 7F F0 FF FF 7F  73 62 30 34 0A 80 1C 08  ........sb04....
09E0: 80 2B 27 72 05 01 5C 80  23 7C 01 27 72 05 01 66  .+'r..\.#|.'r..f
09F0: 4D 80 27 72 05 01 27 72  05 01 74 68 6B 32 52 56  M.'r..'r..thk2RV
0A00: 80 F0 FF FF 7F F0 FF FF  7F 73 62 30 34 45 56 80  .........sb04EV.
0A10: F0 FF FF 7F F0 FF FF 7F  73 62 30 35 0A 80 2B 27  ........sb05..+'
0A20: 72 05 01 5D 80 23 52 56  80 F0 FF FF 7F F0 FF FF  r..].#RV........
0A30: 7F 73 62 30 35 45 56 80  F0 FF FF 7F F0 FF FF 7F  .sb05EV.........
0A40: 73 62 30 36 0A 80 6E 27  72 05 01 5E 80 99 27 72  sb06..n'r..^..'r
0A50: 05 01 99 27 72 05 01 2B  27 72 05 01 5F 80 23 52  ...'r..+'r.._.#R
0A60: 56 80 F0 FF FF 7F F0 FF  FF 7F 73 62 30 36 45 56  V.........sb06EV
0A70: 80 F0 FF FF 7F F0 FF FF  7F 73 62 30 37 0A 80 6E  .........sb07..n
0A80: 27 72 05 01 60 80 99 27  72 05 01 99 27 72 05 01  'r..`..'r...'r..
0A90: 2B 27 72 05 01 61 80 23  66 4D 80 27 72 05 01 27  +'r..a.#fM.'r..'
0AA0: 72 05 01 74 77 62 30 2B  27 72 05 01 62 80 23 52  r..twb0+'r..b.#R
0AB0: 56 80 F0 FF FF 7F F0 FF  FF 7F 73 62 30 37 45 56  V.........sb07EV
0AC0: 80 F0 FF FF 7F F0 FF FF  7F 73 62 30 38 0A 80 2B  .........sb08..+
0AD0: 27 72 05 01 63 80 23 66  4D 80 27 72 05 01 27 72  'r..c.#fM.'r..'r
0AE0: 05 01 74 77 62 31 2B 27  72 05 01 64 80 23 53 27  ..twb1+'r..d.#S'
0AF0: 72 05 01 27 72 05 01 74  77 62 31 52 56 80 F0 FF  r..'r..twb1RV...
0B00: FF 7F F0 FF FF 7F 73 62  30 38 45 56 80 F0 FF FF  ......sb08EV....
0B10: 7F F0 FF FF 7F 73 62 30  39 0A 80 6E 27 72 05 01  .....sb09..n'r..
0B20: 24 80 99 27 72 05 01 99  27 72 05 01 2B 27 72 05  $..'r...'r..+'r.
0B30: 01 65 80 23 52 56 80 F0  FF FF 7F F0 FF FF 7F 73  .e.#RV.........s
0B40: 62 30 39 45 56 80 F0 FF  FF 7F F0 FF FF 7F 73 62  b09EV.........sb
0B50: 31 30 0A 80 2B 27 72 05  01 66 80 23 24 4B 80 0A  10..+'r..f.#$K..
0B60: 80 0A 80 25 02 00 10 0E  80 00 DC 0B 5D 0A 80 3D  ...%........]..=
0B70: 80 6E F0 FF FF 7F 67 80  99 F0 FF FF 7F 99 F0 FF  .n....g.........
0B80: FF 7F 1C 1A 80 2B 27 72  05 01 4C 80 23 52 56 80  .....+'r..L.#RV.
0B90: F0 FF FF 7F F0 FF FF 7F  73 62 31 30 45 56 80 F0  ........sb10EV..
0BA0: FF FF 7F F0 FF FF 7F 73  62 31 31 0A 80 4B 27 72  .......sb11..K'r
0BB0: 05 01 55 80 6F 76 27 72  05 01 1C 12 80 6E 27 72  ..U.ov'r.....n'r
0BC0: 05 01 68 80 99 27 72 05  01 99 27 72 05 01 1C 1D  ..h..'r...'r....
0BD0: 80 03 01 10 0E 80 01 E5  10 01 DC 0B 5C 00 1D 80  ............\...
0BE0: 5C 01 1D 80 9A 6E F0 FF  FF 7F 60 80 99 F0 FF FF  \....n....`.....
0BF0: 7F 99 F0 FF FF 7F 1C 1A  80 52 56 80 F0 FF FF 7F  .........RV.....
0C00: F0 FF FF 7F 73 62 31 30  45 56 80 F0 FF FF 7F F0  ....sb10EV......
0C10: FF FF 7F 73 62 31 32 0A  80 6E 27 72 05 01 4D 80  ...sb12..n'r..M.
0C20: 99 27 72 05 01 99 27 72  05 01 1C 0B 80 2B 27 72  .'r...'r.....+'r
0C30: 05 01 4E 80 23 52 56 80  F0 FF FF 7F F0 FF FF 7F  ..N.#RV.........
0C40: 73 62 31 32 45 56 80 F0  FF FF 7F F0 FF FF 7F 73  sb12EV.........s
0C50: 62 31 33 0A 80 27 10 27  72 05 01 09 1C 1A 80 5D  b13..'.'r......]
0C60: 0A 80 3D 80 1C 1D 80 1A  06 1C 1C 1A 80 7A 00 27  ..=..........z.'
0C70: 72 05 01 BA F0 FF FF 7F  4F 80 50 80 51 80 52 80  r.......O.P.Q.R.
0C80: BA 27 72 05 01 53 80 54  80 51 80 55 80 4A 27 72  .'r..S.T.Q.U.J'r
0C90: 05 01 F0 FF FF 7F 6F 76  27 72 05 01 1C 08 80 7B  ......ov'r.....{
0CA0: 27 72 05 01 29 10 27 72  05 01 0A 48 1B 80 23 5C  'r..).'r...H..#\
0CB0: 00 41 80 5C 01 41 80 9A  52 56 80 F0 FF FF 7F F0  .A.\.A..RV......
0CC0: FF FF 7F 73 62 31 33 45  56 80 F0 FF FF 7F F0 FF  ...sb13EV.......
0CD0: FF 7F 73 62 31 34 0A 80  1A E5 1B 1C 1D 80 52 56  ..sb14........RV
0CE0: 80 F0 FF FF 7F F0 FF FF  7F 73 62 31 34 45 56 80  .........sb14EV.
0CF0: F0 FF FF 7F F0 FF FF 7F  73 62 31 35 0A 80 1C 12  ........sb15....
0D00: 80 2B 27 72 05 01 69 80  23 27 10 27 72 05 01 0B  .+'r..i.#'.'r...
0D10: 1C 12 80 52 56 80 F0 FF  FF 7F F0 FF FF 7F 73 62  ...RV.........sb
0D20: 31 35 45 56 80 F0 FF FF  7F F0 FF FF 7F 73 62 31  15EV.........sb1
0D30: 36 0A 80 2A 10 27 72 05  01 03 01 10 6A 80 43 00  6..*.'r.....j.C.
0D40: 43 01 03 01 00 02 10 03  02 10 6B 80 03 03 10 6C  C.........k....l
0D50: 80 03 04 10 6D 80 24 6E  80 0A 80 01 00 25 02 00  ....m.$n.....%..
0D60: 10 0A 80 00 46 0E 93 6B  80 03 02 10 6B 80 2B 27  ....F..k....k.+'
0D70: 72 05 01 6F 80 23 93 0A  80 52 56 80 F0 FF FF 7F  r..o.#...RV.....
0D80: F0 FF FF 7F 73 62 31 36  45 56 80 F0 FF FF 7F F0  ....sb16EV......
0D90: FF FF 7F 73 62 31 37 0A  80 66 4D 80 27 72 05 01  ...sb17..fM.'r..
0DA0: 27 72 05 01 74 6C 6B 30  03 01 10 43 80 43 00 43  'r..tlk0...C.C.C
0DB0: 01 2B 27 72 05 01 70 80  23 66 4D 80 27 72 05 01  .+'r..p.#fM.'r..
0DC0: 27 72 05 01 74 6C 6B 31  93 6B 80 03 02 10 6B 80  'r..tlk1.k....k.
0DD0: 2B 27 72 05 01 71 80 23  93 0A 80 52 56 80 F0 FF  +'r..q.#...RV...
0DE0: FF 7F F0 FF FF 7F 73 62  31 37 45 56 80 F0 FF FF  ......sb17EV....
0DF0: 7F F0 FF FF 7F 73 62 31  38 0A 80 24 72 80 0E 80  .....sb18..$r...
0E00: 0A 80 25 02 00 10 0A 80  00 15 0E 05 01 10 43 00  ..%...........C.
0E10: 43 01 01 43 0E 02 00 10  0E 80 00 43 0E 52 56 80  C..C.......C.RV.
0E20: F0 FF FF 7F F0 FF FF 7F  73 62 31 38 45 56 80 F0  ........sb18EV..
0E30: FF FF 7F F0 FF FF 7F 73  62 31 36 0A 80 01 47 0D  .......sb16...G.
0E40: 01 43 0E 01 2D 10 02 00  10 0E 80 00 30 0F 93 6C  .C..-.......0..l
0E50: 80 03 02 10 6C 80 2B 27  72 05 01 6F 80 23 93 0A  ....l.+'r..o.#..
0E60: 80 52 56 80 F0 FF FF 7F  F0 FF FF 7F 73 62 31 36  .RV.........sb16
0E70: 45 56 80 F0 FF FF 7F F0  FF FF 7F 73 62 31 39 0A  EV.........sb19.
0E80: 80 66 4D 80 27 72 05 01  27 72 05 01 74 77 61 30  .fM.'r..'r..twa0
0E90: 03 01 10 73 80 43 00 43  01 2B 27 72 05 01 70 80  ...s.C.C.+'r..p.
0EA0: 23 66 4D 80 27 72 05 01  27 72 05 01 74 77 61 31  #fM.'r..'r..twa1
0EB0: 93 6C 80 03 02 10 6C 80  2B 27 72 05 01 71 80 23  .l....l.+'r..q.#
0EC0: 93 0A 80 52 56 80 F0 FF  FF 7F F0 FF FF 7F 73 62  ...RV.........sb
0ED0: 31 39 45 56 80 F0 FF FF  7F F0 FF FF 7F 73 62 31  19EV.........sb1
0EE0: 38 0A 80 24 72 80 0E 80  0A 80 25 02 00 10 0A 80  8..$r.....%.....
0EF0: 00 FF 0E 03 01 10 3A 80  43 00 43 01 01 2D 0F 02  ......:.C.C..-..
0F00: 00 10 0E 80 00 2D 0F 52  56 80 F0 FF FF 7F F0 FF  .....-.RV.......
0F10: FF 7F 73 62 31 38 45 56  80 F0 FF FF 7F F0 FF FF  ..sb18EV........
0F20: 7F 73 62 31 36 0A 80 01  47 0D 01 2D 0F 01 2D 10  .sb16...G..-..-.
0F30: 02 00 10 43 80 00 1A 10  93 6D 80 03 02 10 6D 80  ...C.....m....m.
0F40: 2B 27 72 05 01 6F 80 23  93 0A 80 52 56 80 F0 FF  +'r..o.#...RV...
0F50: FF 7F F0 FF FF 7F 73 62  31 36 45 56 80 F0 FF FF  ......sb16EV....
0F60: 7F F0 FF FF 7F 73 62 32  30 0A 80 66 4D 80 27 72  .....sb20..fM.'r
0F70: 05 01 27 72 05 01 74 77  62 30 03 01 10 67 80 43  ..'r..twb0...g.C
0F80: 00 43 01 2B 27 72 05 01  70 80 23 66 4D 80 27 72  .C.+'r..p.#fM.'r
0F90: 05 01 27 72 05 01 74 77  62 31 93 6D 80 03 02 10  ..'r..twb1.m....
0FA0: 6D 80 2B 27 72 05 01 71  80 23 52 56 80 F0 FF FF  m.+'r..q.#RV....
0FB0: 7F F0 FF FF 7F 73 62 32  30 45 56 80 F0 FF FF 7F  .....sb20EV.....
0FC0: F0 FF FF 7F 73 62 31 38  0A 80 93 0A 80 24 72 80  ....sb18.....$r.
0FD0: 0E 80 0A 80 25 02 00 10  0A 80 00 E9 0F 03 01 10  ....%...........
0FE0: 74 80 43 00 43 01 01 17  10 02 00 10 0E 80 00 17  t.C.C...........
0FF0: 10 52 56 80 F0 FF FF 7F  F0 FF FF 7F 73 62 31 38  .RV.........sb18
1000: 45 56 80 F0 FF FF 7F F0  FF FF 7F 73 62 31 36 0A  EV.........sb16.
1010: 80 01 47 0D 01 17 10 01  2D 10 02 00 10 3A 80 00  ..G.....-....:..
1020: 2D 10 03 01 10 43 80 01  E5 10 01 2D 10 6E F0 FF  -....C.....-.n..
1030: FF 7F 6A 80 99 F0 FF FF  7F 99 F0 FF FF 7F 1C 1A  ..j.............
1040: 80 7B 27 72 05 01 66 4D  80 27 72 05 01 27 72 05  .{'r..fM.'r..'r.
1050: 01 74 68 6B 31 1C 08 80  52 56 80 F0 FF FF 7F F0  .thk1...RV......
1060: FF FF 7F 73 62 31 38 45  56 80 F0 FF FF 7F F0 FF  ...sb18EV.......
1070: FF 7F 73 62 32 31 0A 80  1C 0B 80 2B 27 72 05 01  ..sb21.....+'r..
1080: 75 80 23 66 4D 80 27 72  05 01 27 72 05 01 74 68  u.#fM.'r..'r..th
1090: 6B 32 53 27 72 05 01 27  72 05 01 74 68 6B 32 79  k2S'r..'r..thk2y
10A0: 00 27 72 05 01 F0 FF FF  7F 52 56 80 F0 FF FF 7F  .'r......RV.....
10B0: F0 FF FF 7F 73 62 32 31  45 56 80 F0 FF FF 7F F0  ....sb21EV......
10C0: FF FF 7F 73 62 32 32 0A  80 6E 27 72 05 01 60 80  ...sb22..n'r..`.
10D0: 99 27 72 05 01 99 27 72  05 01 2B 27 72 05 01 76  .'r...'r..+'r..v
10E0: 80 23 06 01 10 1A 06 1C  1C 12 80 52 56 80 F0 FF  .#.........RV...
10F0: FF 7F F0 FF FF 7F 73 62  31 31 52 56 80 F0 FF FF  ......sb11RV....
1100: 7F F0 FF FF 7F 73 62 31  36 52 56 80 F0 FF FF 7F  .....sb16RV.....
1110: F0 FF FF 7F 73 62 32 32  45 56 80 F0 FF FF 7F F0  ....sb22EV......
1120: FF FF 7F 30 62 6C 66 0A  80 46 00 45 1C 80 F0 FF  ...0blf..F.E....
1130: FF 7F F0 FF FF 7F 66 64  69 32 0A 80 21 00        ......fdi2..!.  
```

#### Opcodes

```
  0: 0x0799 [0x42] SET_CLI_EVENT_CANCEL_DATA()
  1: 0x079A [0x03] ExtData[1]->WorkLocal[0] = Work_Zone[9]
  2: 0x079F [0x02] IF !(ExtData[1]->WorkLocal[0] == 1*) GOTO 0x083E
  3: 0x07A7 [0x4A] Loussaire (ID: 17134119/0x01057227) looks at LocalPlayer
  4: 0x07B0 [0x6F] WAIT_FRAME_DELAY: Yield until WaitTime reaches zero
  5: 0x07B1 [0x76] CHECK_ENTITY_RENDER_FLAGS: Wait until Loussaire (ID: 17134119/0x01057227) Render.Flags0 and Render.Flags3 conditions are met
  6: 0x07B6 [0x2B] Loussaire (ID: 17134119/0x01057227) [12216*]:
    → "Oh! Did somebody have a change of heart? Have you given some further consideration to my offer?"
  7: 0x07BD [0x23] WAIT_FOR_DIALOG_INTERACTION
  8: 0x07BE [0x24] CREATE_DIALOG(message_id=12214*, default_option=0*, option_flags=0*)
    → "What will you do? [Accept the offer./Decline the offer.]"
  9: 0x07C5 [0x25] WAIT_DIALOG_SELECT()
 10: 0x07C6 [0x02] IF !(Work_Zone[0] == 1*) GOTO 0x07E0
 11: 0x07CE [0x2B] Loussaire (ID: 17134119/0x01057227) [12215*]:
    → "I see. That is most...unfortunate. I suppose I will have to do it myself after all."
 12: 0x07D5 [0x23] WAIT_FOR_DIALOG_INTERACTION
 13: 0x07D6 [0x03] Work_Zone[1] = 1*
 14: 0x07DB [0x21] END_EVENT
 15: 0x07DC [0x00] END_REQSTACK()

SUBROUTINE_07E0:
 16: 0x07E0 [0x6E] Loussaire (ID: 17134119/0x01057227) uses emote 29*
 17: 0x07E7 [0x99] Wait for Loussaire (ID: 17134119/0x01057227) animation to complete
 18: 0x07EC [0x2B] Loussaire (ID: 17134119/0x01057227) [12217*]:
    → "Most delightful! Please, wait here. Just a moment!"
 19: 0x07F3 [0x23] WAIT_FOR_DIALOG_INTERACTION
 20: 0x07F4 [0x1A] CALL_SUBROUTINE(address=0x1C06)
 21: 0x07F7 [0x46] CAMERA_CONTROL: Disable user control
 22: 0x07F9 [0x38] SET_CLIENT_EVENT_MODE(mode=19*)
 23: 0x07FC [0x92] Loussaire (ID: 17134119/0x01057227)->Render.Flags3 ^= 0x01
 24: 0x0802 [0x94] LocalPlayer->Render.Flags3 ^= 0x01
 25: 0x0808 [0x94] Loussaire (ID: 17134119/0x01057227)->Render.Flags3 ^= 0x01
 26: 0x080E [0xBA] SET_ENTITY_POSITION(entity_id=LocalPlayer, pos_x=-248.228*, pos_z=-123.836*, pos_y=-8.523*, direction=99.8°*)
 27: 0x081B [0x80] LOAD_WAIT(entity=LocalPlayer)
 28: 0x0820 [0x80] LOAD_WAIT(entity=Loussaire (ID: 17134119/0x01057227))
 29: 0x0825 [0x79] LocalPlayer looks at Loussaire (ID: 17134119/0x01057227) (Basic look)
 30: 0x082F [0x4A] Loussaire (ID: 17134119/0x01057227) looks at LocalPlayer
 31: 0x0838 [0x1C] WAIT(15* ticks)
 32: 0x083B [0x01] GOTO 0x0C9F
 33: 0x083E [0x1A] CALL_SUBROUTINE(address=0x1C06)
 34: 0x0841 [0x46] CAMERA_CONTROL: Disable user control
 35: 0x0843 [0x38] SET_CLIENT_EVENT_MODE(mode=19*)
 36: 0x0846 [0x92] Loussaire (ID: 17134119/0x01057227)->Render.Flags3 ^= 0x01
 37: 0x084C [0x94] LocalPlayer->Render.Flags3 ^= 0x01
 38: 0x0852 [0x94] Loussaire (ID: 17134119/0x01057227)->Render.Flags3 ^= 0x01
 39: 0x0858 [0xBA] SET_ENTITY_POSITION(entity_id=LocalPlayer, pos_x=-248.228*, pos_z=-123.836*, pos_y=-8.523*, direction=99.8°*)
 40: 0x0865 [0x80] LOAD_WAIT(entity=LocalPlayer)
 41: 0x086A [0x80] LOAD_WAIT(entity=Loussaire (ID: 17134119/0x01057227))
 42: 0x086F [0x79] LocalPlayer looks at Loussaire (ID: 17134119/0x01057227) (Basic look)
 43: 0x0879 [0x1C] WAIT(15* ticks)
 44: 0x087C [0x02] IF !(ExtData[1]->WorkLocal[0] == 2*) GOTO 0x08A6
 45: 0x0884 [0xBA] SET_ENTITY_POSITION(entity_id=Loussaire (ID: 17134119/0x01057227), pos_x=-248.677*, pos_z=-125.734*, pos_y=-8.523*, direction=94.7°*)
 46: 0x0891 [0x4A] Loussaire (ID: 17134119/0x01057227) looks at LocalPlayer
 47: 0x089A [0x6F] WAIT_FRAME_DELAY: Yield until WaitTime reaches zero
 48: 0x089B [0x76] CHECK_ENTITY_RENDER_FLAGS: Wait until Loussaire (ID: 17134119/0x01057227) Render.Flags0 and Render.Flags3 conditions are met
 49: 0x08A0 [0x1C] WAIT(15* ticks)
 50: 0x08A3 [0x01] GOTO 0x0C9F
 51: 0x08A6 [0x66] LOAD_EXT_SCHEDULER_MAIN: Load scheduler "thk1" with entities [Loussaire (ID: 17134119/0x01057227), Loussaire (ID: 17134119/0x01057227)], work=29*
 52: 0x08B5 [0x45] LOAD_SCHEDULED_TASK: Load scheduler "sb01" with entities [LocalPlayer, LocalPlayer], work=[380*, 0*]
 53: 0x08C6 [0x1A] CALL_SUBROUTINE(address=0x1BE5)
 54: 0x08C9 [0x1C] WAIT(150* ticks)
 55: 0x08CC [0x52] END_LOAD_SCHEDULER: End scheduler "sb01" with entities [LocalPlayer, LocalPlayer], work=380*
 56: 0x08DB [0x45] LOAD_SCHEDULED_TASK: Load scheduler "sb00" with entities [LocalPlayer, LocalPlayer], work=[380*, 0*]
 57: 0x08EC [0x2B] Loussaire (ID: 17134119/0x01057227) [12202*]:
    → "Oh, what ever shall I do... The deadline for my discourse draws near and I have yet to even gather the proper materials."
 58: 0x08F3 [0x23] WAIT_FOR_DIALOG_INTERACTION
 59: 0x08F4 [0x5D] SET_MUSIC_VOLUME(volume=0*, fade_time=300*)
 60: 0x08F9 [0x52] END_LOAD_SCHEDULER: End scheduler "sb00" with entities [LocalPlayer, LocalPlayer], work=380*
 61: 0x0908 [0x45] LOAD_SCHEDULED_TASK: Load scheduler "sb02" with entities [LocalPlayer, LocalPlayer], work=[380*, 0*]
 62: 0x0919 [0x66] LOAD_EXT_SCHEDULER_MAIN: Load scheduler "thk2" with entities [Loussaire (ID: 17134119/0x01057227), Loussaire (ID: 17134119/0x01057227)], work=29*
 63: 0x0928 [0x53] WAIT_SCHEDULER_TASK: Wait for scheduler "thk2" with entities [Loussaire (ID: 17134119/0x01057227), Loussaire (ID: 17134119/0x01057227)]
 64: 0x0935 [0x1C] WAIT(30* ticks)
 65: 0x0938 [0x4A] Loussaire (ID: 17134119/0x01057227) looks at LocalPlayer
 66: 0x0941 [0x6F] WAIT_FRAME_DELAY: Yield until WaitTime reaches zero
 67: 0x0942 [0x76] CHECK_ENTITY_RENDER_FLAGS: Wait until Loussaire (ID: 17134119/0x01057227) Render.Flags0 and Render.Flags3 conditions are met
 68: 0x0947 [0x6E] Loussaire (ID: 17134119/0x01057227) uses emote 21*
 69: 0x094E [0x99] Wait for Loussaire (ID: 17134119/0x01057227) animation to complete
 70: 0x0953 [0x99] Wait for Loussaire (ID: 17134119/0x01057227) animation to complete
 71: 0x0958 [0x2B] Loussaire (ID: 17134119/0x01057227) [12203*]:
    → "Greetings. May I help you? Ah, a pupil of the Schultz school, I see."
 72: 0x095F [0x23] WAIT_FOR_DIALOG_INTERACTION
 73: 0x0960 [0x7B] Loussaire (ID: 17134119/0x01057227) stops talking
 74: 0x0965 [0x5C] MUSIC_CONTROL: Set Idle (Day) music to song 163*
 75: 0x0969 [0x5C] MUSIC_CONTROL: Set Idle (Night) music to song 163*
 76: 0x096D [0x9A] WAIT_MUSIC_SERVER()
 77: 0x096E [0x52] END_LOAD_SCHEDULER: End scheduler "sb02" with entities [LocalPlayer, LocalPlayer], work=380*
 78: 0x097D [0x45] LOAD_SCHEDULED_TASK: Load scheduler "sb03" with entities [LocalPlayer, LocalPlayer], work=[380*, 0*]
 79: 0x098E [0x1C] WAIT(30* ticks)
 80: 0x0991 [0x66] LOAD_EXT_SCHEDULER_MAIN: Load scheduler "thk1" with entities [Loussaire (ID: 17134119/0x01057227), Loussaire (ID: 17134119/0x01057227)], work=29*
 81: 0x09A0 [0x53] WAIT_SCHEDULER_TASK: Wait for scheduler "thk1" with entities [Loussaire (ID: 17134119/0x01057227), Loussaire (ID: 17134119/0x01057227)]
 82: 0x09AD [0x1C] WAIT(60* ticks)
 83: 0x09B0 [0x2B] Loussaire (ID: 17134119/0x01057227) [12204*]:
    → "In which case, may I be so bold as to inquire why you are dressed in such a manner? You would do well to consider the reputation of your school and fellow students before donning such garb in public."
 84: 0x09B7 [0x23] WAIT_FOR_DIALOG_INTERACTION
 85: 0x09B8 [0x7C] Loussaire (ID: 17134119/0x01057227)->Render.Flags2 |= 0x00
 86: 0x09BE [0x52] END_LOAD_SCHEDULER: End scheduler "sb03" with entities [LocalPlayer, LocalPlayer], work=380*
 87: 0x09CD [0x45] LOAD_SCHEDULED_TASK: Load scheduler "sb04" with entities [LocalPlayer, LocalPlayer], work=[380*, 0*]
 88: 0x09DE [0x1C] WAIT(15* ticks)
 89: 0x09E1 [0x2B] Loussaire (ID: 17134119/0x01057227) [12205*]:
    → "Actually..."
 90: 0x09E8 [0x23] WAIT_FOR_DIALOG_INTERACTION
 91: 0x09E9 [0x7C] Loussaire (ID: 17134119/0x01057227)->Render.Flags2 |= 0x01
 92: 0x09EF [0x66] LOAD_EXT_SCHEDULER_MAIN: Load scheduler "thk2" with entities [Loussaire (ID: 17134119/0x01057227), Loussaire (ID: 17134119/0x01057227)], work=29*
 93: 0x09FE [0x52] END_LOAD_SCHEDULER: End scheduler "sb04" with entities [LocalPlayer, LocalPlayer], work=380*
 94: 0x0A0D [0x45] LOAD_SCHEDULED_TASK: Load scheduler "sb05" with entities [LocalPlayer, LocalPlayer], work=[380*, 0*]
 95: 0x0A1E [0x2B] Loussaire (ID: 17134119/0x01057227) [12206*]:
    → "Would you perhaps be interested in obtaining some appropriate attire for yourself? It just so happens that I have quite some influence in such matters."
 96: 0x0A25 [0x23] WAIT_FOR_DIALOG_INTERACTION
 97: 0x0A26 [0x52] END_LOAD_SCHEDULER: End scheduler "sb05" with entities [LocalPlayer, LocalPlayer], work=380*
 98: 0x0A35 [0x45] LOAD_SCHEDULED_TASK: Load scheduler "sb06" with entities [LocalPlayer, LocalPlayer], work=[380*, 0*]
 99: 0x0A46 [0x6E] Loussaire (ID: 17134119/0x01057227) uses emote 24*
100: 0x0A4D [0x99] Wait for Loussaire (ID: 17134119/0x01057227) animation to complete
101: 0x0A52 [0x99] Wait for Loussaire (ID: 17134119/0x01057227) animation to complete
102: 0x0A57 [0x2B] Loussaire (ID: 17134119/0x01057227) [12207*]:
    → "I regret, however, that I cannot offer up my services entirely free of charge. I'm sure in the course of your studies you've become familiar with the "Give and Take" school of economics."
103: 0x0A5E [0x23] WAIT_FOR_DIALOG_INTERACTION
104: 0x0A5F [0x52] END_LOAD_SCHEDULER: End scheduler "sb06" with entities [LocalPlayer, LocalPlayer], work=380*
105: 0x0A6E [0x45] LOAD_SCHEDULED_TASK: Load scheduler "sb07" with entities [LocalPlayer, LocalPlayer], work=[380*, 0*]
106: 0x0A7F [0x6E] Loussaire (ID: 17134119/0x01057227) uses emote 36*
107: 0x0A86 [0x99] Wait for Loussaire (ID: 17134119/0x01057227) animation to complete
108: 0x0A8B [0x99] Wait for Loussaire (ID: 17134119/0x01057227) animation to complete
109: 0x0A90 [0x2B] Loussaire (ID: 17134119/0x01057227) [12208*]:
    → "It is decided, then. I shall procure the garments for you. In return, I would ask that you assist me with my current assignment."
110: 0x0A97 [0x23] WAIT_FOR_DIALOG_INTERACTION
111: 0x0A98 [0x66] LOAD_EXT_SCHEDULER_MAIN: Load scheduler "twb0" with entities [Loussaire (ID: 17134119/0x01057227), Loussaire (ID: 17134119/0x01057227)], work=29*
112: 0x0AA7 [0x2B] Loussaire (ID: 17134119/0x01057227) [12209*]:
    → "I say assignment, but I assure you it is no significant charge. Simply one of those trivial and menial tasks which form the underpinnings of our beloved scholasticism."
113: 0x0AAE [0x23] WAIT_FOR_DIALOG_INTERACTION
114: 0x0AAF [0x52] END_LOAD_SCHEDULER: End scheduler "sb07" with entities [LocalPlayer, LocalPlayer], work=380*
115: 0x0ABE [0x45] LOAD_SCHEDULED_TASK: Load scheduler "sb08" with entities [LocalPlayer, LocalPlayer], work=[380*, 0*]
116: 0x0ACF [0x2B] Loussaire (ID: 17134119/0x01057227) [12211*]:
    → "No, no. It wouldn't be cheating, I assure you. There are no rules governing methods of acquisition."
117: 0x0AD6 [0x23] WAIT_FOR_DIALOG_INTERACTION
118: 0x0AD7 [0x66] LOAD_EXT_SCHEDULER_MAIN: Load scheduler "twb1" with entities [Loussaire (ID: 17134119/0x01057227), Loussaire (ID: 17134119/0x01057227)], work=29*
119: 0x0AE6 [0x2B] Loussaire (ID: 17134119/0x01057227) [12210*]:
    → "It's just that given the ever-worsening state of affairs with the ongoing war and all, this assignment has become considerably more difficult than when the senior pupils were required to complete it."
120: 0x0AED [0x23] WAIT_FOR_DIALOG_INTERACTION
121: 0x0AEE [0x53] WAIT_SCHEDULER_TASK: Wait for scheduler "twb1" with entities [Loussaire (ID: 17134119/0x01057227), Loussaire (ID: 17134119/0x01057227)]
122: 0x0AFB [0x52] END_LOAD_SCHEDULER: End scheduler "sb08" with entities [LocalPlayer, LocalPlayer], work=380*
123: 0x0B0A [0x45] LOAD_SCHEDULED_TASK: Load scheduler "sb09" with entities [LocalPlayer, LocalPlayer], work=[380*, 0*]
124: 0x0B1B [0x6E] Loussaire (ID: 17134119/0x01057227) uses emote 16*
125: 0x0B22 [0x99] Wait for Loussaire (ID: 17134119/0x01057227) animation to complete
126: 0x0B27 [0x99] Wait for Loussaire (ID: 17134119/0x01057227) animation to complete
127: 0x0B2C [0x2B] Loussaire (ID: 17134119/0x01057227) [12212*]:
    → "It is just as the old texts teach us, and as the professor always says. "One hundred victories in as many battles does not a sage make. He who gains victory without confrontation is the true sage." To obtain one's objective through minimum effort is most sublime!"
128: 0x0B33 [0x23] WAIT_FOR_DIALOG_INTERACTION
129: 0x0B34 [0x52] END_LOAD_SCHEDULER: End scheduler "sb09" with entities [LocalPlayer, LocalPlayer], work=380*
130: 0x0B43 [0x45] LOAD_SCHEDULED_TASK: Load scheduler "sb10" with entities [LocalPlayer, LocalPlayer], work=[380*, 0*]
131: 0x0B54 [0x2B] Loussaire (ID: 17134119/0x01057227) [12213*]:
    → "It sounds like a reasonable enough offer to me. So what do you say?"
132: 0x0B5B [0x23] WAIT_FOR_DIALOG_INTERACTION
133: 0x0B5C [0x24] CREATE_DIALOG(message_id=12214*, default_option=0*, option_flags=0*)
    → "What will you do? [Accept the offer./Decline the offer.]"
134: 0x0B63 [0x25] WAIT_DIALOG_SELECT()
135: 0x0B64 [0x02] IF !(Work_Zone[0] == 1*) GOTO 0x0BDC
136: 0x0B6C [0x5D] SET_MUSIC_VOLUME(volume=0*, fade_time=300*)
137: 0x0B71 [0x6E] LocalPlayer uses emote 6*
138: 0x0B78 [0x99] Wait for LocalPlayer animation to complete
139: 0x0B7D [0x99] Wait for LocalPlayer animation to complete
140: 0x0B82 [0x1C] WAIT(60* ticks)
141: 0x0B85 [0x2B] Loussaire (ID: 17134119/0x01057227) [12215*]:
    → "I see. That is most...unfortunate. I suppose I will have to do it myself after all."
142: 0x0B8C [0x23] WAIT_FOR_DIALOG_INTERACTION
143: 0x0B8D [0x52] END_LOAD_SCHEDULER: End scheduler "sb10" with entities [LocalPlayer, LocalPlayer], work=380*
144: 0x0B9C [0x45] LOAD_SCHEDULED_TASK: Load scheduler "sb11" with entities [LocalPlayer, LocalPlayer], work=[380*, 0*]
145: 0x0BAD [0x4B] UPDATE_ENTITY_YAW(entity=Loussaire (ID: 17134119/0x01057227), yaw=5.9°*)
146: 0x0BB4 [0x6F] WAIT_FRAME_DELAY: Yield until WaitTime reaches zero
147: 0x0BB5 [0x76] CHECK_ENTITY_RENDER_FLAGS: Wait until Loussaire (ID: 17134119/0x01057227) Render.Flags0 and Render.Flags3 conditions are met
148: 0x0BBA [0x1C] WAIT(30* ticks)
149: 0x0BBD [0x6E] Loussaire (ID: 17134119/0x01057227) uses emote 35*
150: 0x0BC4 [0x99] Wait for Loussaire (ID: 17134119/0x01057227) animation to complete
151: 0x0BC9 [0x99] Wait for Loussaire (ID: 17134119/0x01057227) animation to complete
152: 0x0BCE [0x1C] WAIT(120* ticks)
153: 0x0BD1 [0x03] Work_Zone[1] = 1*
154: 0x0BD6 [0x01] GOTO 0x10E5

SUBROUTINE_0BDC:
155: 0x0BDC [0x5C] MUSIC_CONTROL: Set Idle (Day) music to song 120*
156: 0x0BE0 [0x5C] MUSIC_CONTROL: Set Idle (Night) music to song 120*
157: 0x0BE4 [0x9A] WAIT_MUSIC_SERVER()
158: 0x0BE5 [0x6E] LocalPlayer uses emote 36*
159: 0x0BEC [0x99] Wait for LocalPlayer animation to complete
160: 0x0BF1 [0x99] Wait for LocalPlayer animation to complete
161: 0x0BF6 [0x1C] WAIT(60* ticks)
162: 0x0BF9 [0x52] END_LOAD_SCHEDULER: End scheduler "sb10" with entities [LocalPlayer, LocalPlayer], work=380*
163: 0x0C08 [0x45] LOAD_SCHEDULED_TASK: Load scheduler "sb12" with entities [LocalPlayer, LocalPlayer], work=[380*, 0*]
164: 0x0C19 [0x6E] Loussaire (ID: 17134119/0x01057227) uses emote 29*
165: 0x0C20 [0x99] Wait for Loussaire (ID: 17134119/0x01057227) animation to complete
166: 0x0C25 [0x99] Wait for Loussaire (ID: 17134119/0x01057227) animation to complete
167: 0x0C2A [0x1C] WAIT(45* ticks)
168: 0x0C2D [0x2B] Loussaire (ID: 17134119/0x01057227) [12217*]:
    → "Most delightful! Please, wait here. Just a moment!"
169: 0x0C34 [0x23] WAIT_FOR_DIALOG_INTERACTION
170: 0x0C35 [0x52] END_LOAD_SCHEDULER: End scheduler "sb12" with entities [LocalPlayer, LocalPlayer], work=380*
171: 0x0C44 [0x45] LOAD_SCHEDULED_TASK: Load scheduler "sb13" with entities [LocalPlayer, LocalPlayer], work=[380*, 0*]
172: 0x0C55 [0x27] REQ_SET(priority=0x10, entity_id=Loussaire (ID: 17134119/0x01057227), tag_num=0x09)
173: 0x0C5C [0x1C] WAIT(60* ticks)
174: 0x0C5F [0x5D] SET_MUSIC_VOLUME(volume=0*, fade_time=300*)
175: 0x0C64 [0x1C] WAIT(120* ticks)
176: 0x0C67 [0x1A] CALL_SUBROUTINE(address=0x1C06)
177: 0x0C6A [0x1C] WAIT(60* ticks)
178: 0x0C6D [0x7A] VM_CONTROL: Reset VM for Loussaire (ID: 17134119/0x01057227)
179: 0x0C73 [0xBA] SET_ENTITY_POSITION(entity_id=LocalPlayer, pos_x=-248.228*, pos_z=-123.836*, pos_y=-8.523*, direction=99.8°*)
180: 0x0C80 [0xBA] SET_ENTITY_POSITION(entity_id=Loussaire (ID: 17134119/0x01057227), pos_x=-248.677*, pos_z=-125.734*, pos_y=-8.523*, direction=94.7°*)
181: 0x0C8D [0x4A] Loussaire (ID: 17134119/0x01057227) looks at LocalPlayer
182: 0x0C96 [0x6F] WAIT_FRAME_DELAY: Yield until WaitTime reaches zero
183: 0x0C97 [0x76] CHECK_ENTITY_RENDER_FLAGS: Wait until Loussaire (ID: 17134119/0x01057227) Render.Flags0 and Render.Flags3 conditions are met
184: 0x0C9C [0x1C] WAIT(15* ticks)

SUBROUTINE_0C9F:
185: 0x0C9F [0x7B] Loussaire (ID: 17134119/0x01057227) stops talking
186: 0x0CA4 [0x29] REQ_SET_WAIT(priority=0x10, entity_id=Loussaire (ID: 17134119/0x01057227), tag_num=0x0A)
187: 0x0CAB [0x48] [System] [12900*]:
    → "@@"
188: 0x0CAE [0x23] WAIT_FOR_DIALOG_INTERACTION
189: 0x0CAF [0x5C] MUSIC_CONTROL: Set Idle (Day) music to song 145*
190: 0x0CB3 [0x5C] MUSIC_CONTROL: Set Idle (Night) music to song 145*
191: 0x0CB7 [0x9A] WAIT_MUSIC_SERVER()
192: 0x0CB8 [0x52] END_LOAD_SCHEDULER: End scheduler "sb13" with entities [LocalPlayer, LocalPlayer], work=380*
193: 0x0CC7 [0x45] LOAD_SCHEDULED_TASK: Load scheduler "sb14" with entities [LocalPlayer, LocalPlayer], work=[380*, 0*]
194: 0x0CD8 [0x1A] CALL_SUBROUTINE(address=0x1BE5)
195: 0x0CDB [0x1C] WAIT(120* ticks)
196: 0x0CDE [0x52] END_LOAD_SCHEDULER: End scheduler "sb14" with entities [LocalPlayer, LocalPlayer], work=380*
197: 0x0CED [0x45] LOAD_SCHEDULED_TASK: Load scheduler "sb15" with entities [LocalPlayer, LocalPlayer], work=[380*, 0*]
198: 0x0CFE [0x1C] WAIT(30* ticks)
199: 0x0D01 [0x2B] Loussaire (ID: 17134119/0x01057227) [12218*]:
    → "<Pant, pant>... Here we are, then. Now, if you would be so kind as to select one of the following."
200: 0x0D08 [0x23] WAIT_FOR_DIALOG_INTERACTION
201: 0x0D09 [0x27] REQ_SET(priority=0x10, entity_id=Loussaire (ID: 17134119/0x01057227), tag_num=0x0B)
202: 0x0D10 [0x1C] WAIT(30* ticks)
203: 0x0D13 [0x52] END_LOAD_SCHEDULER: End scheduler "sb15" with entities [LocalPlayer, LocalPlayer], work=380*
204: 0x0D22 [0x45] LOAD_SCHEDULED_TASK: Load scheduler "sb16" with entities [LocalPlayer, LocalPlayer], work=[380*, 0*]
205: 0x0D33 [0x2A] GET_REQ_LEVEL(level=16, entity_id=Loussaire (ID: 17134119/0x01057227))
206: 0x0D39 [0x03] Work_Zone[1] = 7*
207: 0x0D3E [0x43] SEND_EVENT_UPDATE: Send pending tag to server (packet 0x005B)
208: 0x0D40 [0x43] SEND_EVENT_UPDATE: Check pending flag (skip if not pending)
209: 0x0D42 [0x03] ExtData[1]->WorkLocal[1] = Work_Zone[2]

SUBROUTINE_0D47:
210: 0x0D47 [0x03] Work_Zone[2] = 15748*
211: 0x0D4C [0x03] Work_Zone[3] = 16311*
212: 0x0D51 [0x03] Work_Zone[4] = 14580*
213: 0x0D56 [0x24] CREATE_DIALOG(message_id=12219*, default_option=0*, option_flags=ExtData[1]->WorkLocal[1])
    → "Which item are you interested in? [$0./$1./$2./Give me some time to mull it over.]"
214: 0x0D5D [0x25] WAIT_DIALOG_SELECT()
215: 0x0D5E [0x02] IF !(Work_Zone[0] == 0*) GOTO 0x0E46
216: 0x0D66 [0x93] DISPLAY_ITEM_INFO(item_id=15748*)
217: 0x0D69 [0x03] Work_Zone[2] = 15748*
218: 0x0D6E [0x2B] Loussaire (ID: 17134119/0x01057227) [12220*]:
    → "Ahhh, $0. Classic! In that case, I must ask this of you. Listen carefully."
219: 0x0D75 [0x23] WAIT_FOR_DIALOG_INTERACTION
220: 0x0D76 [0x93] DISPLAY_ITEM_INFO(item_id=0*)
221: 0x0D79 [0x52] END_LOAD_SCHEDULER: End scheduler "sb16" with entities [LocalPlayer, LocalPlayer], work=380*
222: 0x0D88 [0x45] LOAD_SCHEDULED_TASK: Load scheduler "sb17" with entities [LocalPlayer, LocalPlayer], work=[380*, 0*]
223: 0x0D99 [0x66] LOAD_EXT_SCHEDULER_MAIN: Load scheduler "tlk0" with entities [Loussaire (ID: 17134119/0x01057227), Loussaire (ID: 17134119/0x01057227)], work=29*
224: 0x0DA8 [0x03] Work_Zone[1] = 2*
225: 0x0DAD [0x43] SEND_EVENT_UPDATE: Send pending tag to server (packet 0x005B)
226: 0x0DAF [0x43] SEND_EVENT_UPDATE: Check pending flag (skip if not pending)
227: 0x0DB1 [0x2B] Loussaire (ID: 17134119/0x01057227) [12221*]:
    → "I will require you to obtain and bring me $6 and... Oh yes! $6. That should do it."
228: 0x0DB8 [0x23] WAIT_FOR_DIALOG_INTERACTION
229: 0x0DB9 [0x66] LOAD_EXT_SCHEDULER_MAIN: Load scheduler "tlk1" with entities [Loussaire (ID: 17134119/0x01057227), Loussaire (ID: 17134119/0x01057227)], work=29*
230: 0x0DC8 [0x93] DISPLAY_ITEM_INFO(item_id=15748*)
231: 0x0DCB [0x03] Work_Zone[2] = 15748*
232: 0x0DD0 [0x2B] Loussaire (ID: 17134119/0x01057227) [12222*]:
    → "Are you sure it is $0 that you would like?"
233: 0x0DD7 [0x23] WAIT_FOR_DIALOG_INTERACTION
234: 0x0DD8 [0x93] DISPLAY_ITEM_INFO(item_id=0*)
235: 0x0DDB [0x52] END_LOAD_SCHEDULER: End scheduler "sb17" with entities [LocalPlayer, LocalPlayer], work=380*
236: 0x0DEA [0x45] LOAD_SCHEDULED_TASK: Load scheduler "sb18" with entities [LocalPlayer, LocalPlayer], work=[380*, 0*]
237: 0x0DFB [0x24] CREATE_DIALOG(message_id=12223*, default_option=1*, option_flags=0*)
    → "Are you sureH [Beyond a doubt./On second thought...]"
238: 0x0E02 [0x25] WAIT_DIALOG_SELECT()
239: 0x0E03 [0x02] IF !(Work_Zone[0] == 0*) GOTO 0x0E15
240: 0x0E0B [0x05] Work_Zone[1] = 1
241: 0x0E0E [0x43] SEND_EVENT_UPDATE: Send pending tag to server (packet 0x005B)
242: 0x0E10 [0x43] SEND_EVENT_UPDATE: Check pending flag (skip if not pending)
243: 0x0E12 [0x01] GOTO 0x0E43
244: 0x0E15 [0x02] IF !(Work_Zone[0] == 1*) GOTO 0x0E43
245: 0x0E1D [0x52] END_LOAD_SCHEDULER: End scheduler "sb18" with entities [LocalPlayer, LocalPlayer], work=380*
246: 0x0E2C [0x45] LOAD_SCHEDULED_TASK: Load scheduler "sb16" with entities [LocalPlayer, LocalPlayer], work=[380*, 0*]
247: 0x0E3D [0x01] GOTO 0x0D47

SUBROUTINE_0E43:
248: 0x0E43 [0x01] GOTO 0x102D
249: 0x0E46 [0x02] IF !(Work_Zone[0] == 1*) GOTO 0x0F30
250: 0x0E4E [0x93] DISPLAY_ITEM_INFO(item_id=16311*)
251: 0x0E51 [0x03] Work_Zone[2] = 16311*
252: 0x0E56 [0x2B] Loussaire (ID: 17134119/0x01057227) [12220*]:
    → "Ahhh, $0. Classic! In that case, I must ask this of you. Listen carefully."
253: 0x0E5D [0x23] WAIT_FOR_DIALOG_INTERACTION
254: 0x0E5E [0x93] DISPLAY_ITEM_INFO(item_id=0*)
255: 0x0E61 [0x52] END_LOAD_SCHEDULER: End scheduler "sb16" with entities [LocalPlayer, LocalPlayer], work=380*
256: 0x0E70 [0x45] LOAD_SCHEDULED_TASK: Load scheduler "sb19" with entities [LocalPlayer, LocalPlayer], work=[380*, 0*]
257: 0x0E81 [0x66] LOAD_EXT_SCHEDULER_MAIN: Load scheduler "twa0" with entities [Loussaire (ID: 17134119/0x01057227), Loussaire (ID: 17134119/0x01057227)], work=29*
258: 0x0E90 [0x03] Work_Zone[1] = 4*
259: 0x0E95 [0x43] SEND_EVENT_UPDATE: Send pending tag to server (packet 0x005B)
260: 0x0E97 [0x43] SEND_EVENT_UPDATE: Check pending flag (skip if not pending)
261: 0x0E99 [0x2B] Loussaire (ID: 17134119/0x01057227) [12221*]:
    → "I will require you to obtain and bring me $6 and... Oh yes! $6. That should do it."
262: 0x0EA0 [0x23] WAIT_FOR_DIALOG_INTERACTION
263: 0x0EA1 [0x66] LOAD_EXT_SCHEDULER_MAIN: Load scheduler "twa1" with entities [Loussaire (ID: 17134119/0x01057227), Loussaire (ID: 17134119/0x01057227)], work=29*
264: 0x0EB0 [0x93] DISPLAY_ITEM_INFO(item_id=16311*)
265: 0x0EB3 [0x03] Work_Zone[2] = 16311*
266: 0x0EB8 [0x2B] Loussaire (ID: 17134119/0x01057227) [12222*]:
    → "Are you sure it is $0 that you would like?"
267: 0x0EBF [0x23] WAIT_FOR_DIALOG_INTERACTION
268: 0x0EC0 [0x93] DISPLAY_ITEM_INFO(item_id=0*)
269: 0x0EC3 [0x52] END_LOAD_SCHEDULER: End scheduler "sb19" with entities [LocalPlayer, LocalPlayer], work=380*
270: 0x0ED2 [0x45] LOAD_SCHEDULED_TASK: Load scheduler "sb18" with entities [LocalPlayer, LocalPlayer], work=[380*, 0*]
271: 0x0EE3 [0x24] CREATE_DIALOG(message_id=12223*, default_option=1*, option_flags=0*)
    → "Are you sureH [Beyond a doubt./On second thought...]"
272: 0x0EEA [0x25] WAIT_DIALOG_SELECT()
273: 0x0EEB [0x02] IF !(Work_Zone[0] == 0*) GOTO 0x0EFF
274: 0x0EF3 [0x03] Work_Zone[1] = 3*
275: 0x0EF8 [0x43] SEND_EVENT_UPDATE: Send pending tag to server (packet 0x005B)
276: 0x0EFA [0x43] SEND_EVENT_UPDATE: Check pending flag (skip if not pending)
277: 0x0EFC [0x01] GOTO 0x0F2D
278: 0x0EFF [0x02] IF !(Work_Zone[0] == 1*) GOTO 0x0F2D
279: 0x0F07 [0x52] END_LOAD_SCHEDULER: End scheduler "sb18" with entities [LocalPlayer, LocalPlayer], work=380*
280: 0x0F16 [0x45] LOAD_SCHEDULED_TASK: Load scheduler "sb16" with entities [LocalPlayer, LocalPlayer], work=[380*, 0*]
281: 0x0F27 [0x01] GOTO 0x0D47

SUBROUTINE_0F2D:
282: 0x0F2D [0x01] GOTO 0x102D
283: 0x0F30 [0x02] IF !(Work_Zone[0] == 2*) GOTO 0x101A
284: 0x0F38 [0x93] DISPLAY_ITEM_INFO(item_id=14580*)
285: 0x0F3B [0x03] Work_Zone[2] = 14580*
286: 0x0F40 [0x2B] Loussaire (ID: 17134119/0x01057227) [12220*]:
    → "Ahhh, $0. Classic! In that case, I must ask this of you. Listen carefully."
287: 0x0F47 [0x23] WAIT_FOR_DIALOG_INTERACTION
288: 0x0F48 [0x93] DISPLAY_ITEM_INFO(item_id=0*)
289: 0x0F4B [0x52] END_LOAD_SCHEDULER: End scheduler "sb16" with entities [LocalPlayer, LocalPlayer], work=380*
290: 0x0F5A [0x45] LOAD_SCHEDULED_TASK: Load scheduler "sb20" with entities [LocalPlayer, LocalPlayer], work=[380*, 0*]
291: 0x0F6B [0x66] LOAD_EXT_SCHEDULER_MAIN: Load scheduler "twb0" with entities [Loussaire (ID: 17134119/0x01057227), Loussaire (ID: 17134119/0x01057227)], work=29*
292: 0x0F7A [0x03] Work_Zone[1] = 6*
293: 0x0F7F [0x43] SEND_EVENT_UPDATE: Send pending tag to server (packet 0x005B)
294: 0x0F81 [0x43] SEND_EVENT_UPDATE: Check pending flag (skip if not pending)
295: 0x0F83 [0x2B] Loussaire (ID: 17134119/0x01057227) [12221*]:
    → "I will require you to obtain and bring me $6 and... Oh yes! $6. That should do it."
296: 0x0F8A [0x23] WAIT_FOR_DIALOG_INTERACTION
297: 0x0F8B [0x66] LOAD_EXT_SCHEDULER_MAIN: Load scheduler "twb1" with entities [Loussaire (ID: 17134119/0x01057227), Loussaire (ID: 17134119/0x01057227)], work=29*
298: 0x0F9A [0x93] DISPLAY_ITEM_INFO(item_id=14580*)
299: 0x0F9D [0x03] Work_Zone[2] = 14580*
300: 0x0FA2 [0x2B] Loussaire (ID: 17134119/0x01057227) [12222*]:
    → "Are you sure it is $0 that you would like?"
301: 0x0FA9 [0x23] WAIT_FOR_DIALOG_INTERACTION
302: 0x0FAA [0x52] END_LOAD_SCHEDULER: End scheduler "sb20" with entities [LocalPlayer, LocalPlayer], work=380*
303: 0x0FB9 [0x45] LOAD_SCHEDULED_TASK: Load scheduler "sb18" with entities [LocalPlayer, LocalPlayer], work=[380*, 0*]
304: 0x0FCA [0x93] DISPLAY_ITEM_INFO(item_id=0*)
305: 0x0FCD [0x24] CREATE_DIALOG(message_id=12223*, default_option=1*, option_flags=0*)
    → "Are you sureH [Beyond a doubt./On second thought...]"
306: 0x0FD4 [0x25] WAIT_DIALOG_SELECT()
307: 0x0FD5 [0x02] IF !(Work_Zone[0] == 0*) GOTO 0x0FE9
308: 0x0FDD [0x03] Work_Zone[1] = 5*
309: 0x0FE2 [0x43] SEND_EVENT_UPDATE: Send pending tag to server (packet 0x005B)
310: 0x0FE4 [0x43] SEND_EVENT_UPDATE: Check pending flag (skip if not pending)
311: 0x0FE6 [0x01] GOTO 0x1017
312: 0x0FE9 [0x02] IF !(Work_Zone[0] == 1*) GOTO 0x1017
313: 0x0FF1 [0x52] END_LOAD_SCHEDULER: End scheduler "sb18" with entities [LocalPlayer, LocalPlayer], work=380*
314: 0x1000 [0x45] LOAD_SCHEDULED_TASK: Load scheduler "sb16" with entities [LocalPlayer, LocalPlayer], work=[380*, 0*]
315: 0x1011 [0x01] GOTO 0x0D47

SUBROUTINE_1017:
316: 0x1017 [0x01] GOTO 0x102D
317: 0x101A [0x02] IF !(Work_Zone[0] == 3*) GOTO 0x102D
318: 0x1022 [0x03] Work_Zone[1] = 2*
319: 0x1027 [0x01] GOTO 0x10E5

SUBROUTINE_102D:
320: 0x102D [0x6E] LocalPlayer uses emote 7*
321: 0x1034 [0x99] Wait for LocalPlayer animation to complete
322: 0x1039 [0x99] Wait for LocalPlayer animation to complete
323: 0x103E [0x1C] WAIT(60* ticks)
324: 0x1041 [0x7B] Loussaire (ID: 17134119/0x01057227) stops talking
325: 0x1046 [0x66] LOAD_EXT_SCHEDULER_MAIN: Load scheduler "thk1" with entities [Loussaire (ID: 17134119/0x01057227), Loussaire (ID: 17134119/0x01057227)], work=29*
326: 0x1055 [0x1C] WAIT(15* ticks)
327: 0x1058 [0x52] END_LOAD_SCHEDULER: End scheduler "sb18" with entities [LocalPlayer, LocalPlayer], work=380*
328: 0x1067 [0x45] LOAD_SCHEDULED_TASK: Load scheduler "sb21" with entities [LocalPlayer, LocalPlayer], work=[380*, 0*]
329: 0x1078 [0x1C] WAIT(45* ticks)
330: 0x107B [0x2B] Loussaire (ID: 17134119/0x01057227) [12240*]:
    → "By the way, there is a certain type of material that cannot be obtained without fulfilling certain...requirements, first. Keep an eye out!"
331: 0x1082 [0x23] WAIT_FOR_DIALOG_INTERACTION
332: 0x1083 [0x66] LOAD_EXT_SCHEDULER_MAIN: Load scheduler "thk2" with entities [Loussaire (ID: 17134119/0x01057227), Loussaire (ID: 17134119/0x01057227)], work=29*
333: 0x1092 [0x53] WAIT_SCHEDULER_TASK: Wait for scheduler "thk2" with entities [Loussaire (ID: 17134119/0x01057227), Loussaire (ID: 17134119/0x01057227)]
334: 0x109F [0x79] Loussaire (ID: 17134119/0x01057227) looks at LocalPlayer (Basic look)
335: 0x10A9 [0x52] END_LOAD_SCHEDULER: End scheduler "sb21" with entities [LocalPlayer, LocalPlayer], work=380*
336: 0x10B8 [0x45] LOAD_SCHEDULED_TASK: Load scheduler "sb22" with entities [LocalPlayer, LocalPlayer], work=[380*, 0*]
337: 0x10C9 [0x6E] Loussaire (ID: 17134119/0x01057227) uses emote 36*
338: 0x10D0 [0x99] Wait for Loussaire (ID: 17134119/0x01057227) animation to complete
339: 0x10D5 [0x99] Wait for Loussaire (ID: 17134119/0x01057227) animation to complete
340: 0x10DA [0x2B] Loussaire (ID: 17134119/0x01057227) [12224*]:
    → "No need to worry. I shall produce the attire, as per our agreement. You just see to getting those items we talked about."
341: 0x10E1 [0x23] WAIT_FOR_DIALOG_INTERACTION
342: 0x10E2 [0x06] Work_Zone[1] = 0

SUBROUTINE_10E5:
343: 0x10E5 [0x1A] CALL_SUBROUTINE(address=0x1C06)
344: 0x10E8 [0x1C] WAIT(30* ticks)
345: 0x10EB [0x52] END_LOAD_SCHEDULER: End scheduler "sb11" with entities [LocalPlayer, LocalPlayer], work=380*
346: 0x10FA [0x52] END_LOAD_SCHEDULER: End scheduler "sb16" with entities [LocalPlayer, LocalPlayer], work=380*
347: 0x1109 [0x52] END_LOAD_SCHEDULER: End scheduler "sb22" with entities [LocalPlayer, LocalPlayer], work=380*
348: 0x1118 [0x45] LOAD_SCHEDULED_TASK: Load scheduler "0blf" with entities [LocalPlayer, LocalPlayer], work=[380*, 0*]
349: 0x1129 [0x46] CAMERA_CONTROL: Restore default settings
350: 0x112B [0x45] LOAD_SCHEDULED_TASK: Load scheduler "fdi2" with entities [LocalPlayer, LocalPlayer], work=[200*, 0*]
351: 0x113C [0x21] END_EVENT
352: 0x113D [0x00] END_REQSTACK()
```

#### Data or dead code:

```
# Dead code (unreachable instructions):
     0x07DD [0x01] GOTO 0x07E0
# Dead code (unreachable instructions):
     0x0BD9 [0x01] GOTO 0x0BDC
# Dead code (unreachable instructions):
     0x0E40 [0x01] GOTO 0x0E43
# Dead code (unreachable instructions):
     0x0F2A [0x01] GOTO 0x0F2D
# Dead code (unreachable instructions):
     0x1014 [0x01] GOTO 0x1017
# Dead code (unreachable instructions):
     0x102A [0x01] GOTO 0x102D
```

### Event 53

#### Metadata

| Field        | Value      |
|--------------|------------|
| Entrypoint   | 0x113E     |
| Data Size    | 1219 bytes |
| Instructions | 178        |

```
      00 01 02 03 04 05 06 07  08 09 0A 0B 0C 0D 0E 0F
      -- -- -- -- -- -- -- --  -- -- -- -- -- -- -- --
1130:                                            42 03                B.
1140: 00 00 09 10 1A 06 1C 46  01 38 00 80 92 01 27 72  .......F.8....'r
1150: 05 01 94 01 F0 FF FF 7F  94 01 27 72 05 01 BA F0  ..........'r....
1160: FF FF 7F 4F 80 50 80 51  80 52 80 80 F0 FF FF 7F  ...O.P.Q.R......
1170: 80 27 72 05 01 79 00 F0  FF FF 7F 27 72 05 01 4A  .'r..y.....'r..J
1180: 27 72 05 01 F0 FF FF 7F  5C 00 41 80 5C 01 41 80  'r......\.A.\.A.
1190: 9A 1C 08 80 45 56 80 F0  FF FF 7F F0 FF FF 7F 73  ....EV.........s
11A0: 62 31 36 0A 80 1A E5 1B  02 00 00 43 80 01 C9 11  b16........C....
11B0: 6E 27 72 05 01 77 80 99  27 72 05 01 99 27 72 05  n'r..w..'r...'r.
11C0: 01 2B 27 72 05 01 78 80  23 7B 27 72 05 01 66 4D  .+'r..x.#{'r..fM
11D0: 80 27 72 05 01 27 72 05  01 74 68 6B 31 53 27 72  .'r..'r..thk1S'r
11E0: 05 01 27 72 05 01 74 68  6B 31 2B 27 72 05 01 79  ..'r..thk1+'r..y
11F0: 80 23 03 01 10 6A 80 43  00 43 01 03 01 00 02 10  .#...j.C.C......
1200: 66 4D 80 27 72 05 01 27  72 05 01 74 68 6B 32 79  fM.'r..'r..thk2y
1210: 00 27 72 05 01 F0 FF FF  7F 03 02 10 6B 80 03 03  .'r.........k...
1220: 10 6C 80 03 04 10 6D 80  24 6E 80 0A 80 01 00 25  .l....m.$n.....%
1230: 02 00 10 0A 80 00 18 13  93 6B 80 03 02 10 6B 80  .........k....k.
1240: 2B 27 72 05 01 6F 80 23  93 0A 80 52 56 80 F0 FF  +'r..o.#...RV...
1250: FF 7F F0 FF FF 7F 73 62  31 36 45 56 80 F0 FF FF  ......sb16EV....
1260: 7F F0 FF FF 7F 73 62 31  37 0A 80 66 4D 80 27 72  .....sb17..fM.'r
1270: 05 01 27 72 05 01 74 6C  6B 30 03 01 10 43 80 43  ..'r..tlk0...C.C
1280: 00 43 01 2B 27 72 05 01  70 80 23 66 4D 80 27 72  .C.+'r..p.#fM.'r
1290: 05 01 27 72 05 01 74 6C  6B 31 93 6B 80 03 02 10  ..'r..tlk1.k....
12A0: 6B 80 2B 27 72 05 01 71  80 23 52 56 80 F0 FF FF  k.+'r..q.#RV....
12B0: 7F F0 FF FF 7F 73 62 31  37 45 56 80 F0 FF FF 7F  .....sb17EV.....
12C0: F0 FF FF 7F 73 62 31 38  0A 80 93 0A 80 24 72 80  ....sb18.....$r.
12D0: 0E 80 0A 80 25 02 00 10  0A 80 00 E7 12 05 01 10  ....%...........
12E0: 43 00 43 01 01 15 13 02  00 10 0E 80 00 15 13 52  C.C............R
12F0: 56 80 F0 FF FF 7F F0 FF  FF 7F 73 62 31 38 45 56  V.........sb18EV
1300: 80 F0 FF FF 7F F0 FF FF  7F 73 62 31 36 0A 80 01  .........sb16...
1310: 19 12 01 15 13 01 FF 14  02 00 10 0E 80 00 02 14  ................
1320: 93 6C 80 03 02 10 6C 80  2B 27 72 05 01 6F 80 23  .l....l.+'r..o.#
1330: 93 0A 80 52 56 80 F0 FF  FF 7F F0 FF FF 7F 73 62  ...RV.........sb
1340: 31 36 45 56 80 F0 FF FF  7F F0 FF FF 7F 73 62 31  16EV.........sb1
1350: 39 0A 80 66 4D 80 27 72  05 01 27 72 05 01 74 77  9..fM.'r..'r..tw
1360: 61 30 03 01 10 73 80 43  00 43 01 2B 27 72 05 01  a0...s.C.C.+'r..
1370: 70 80 23 66 4D 80 27 72  05 01 27 72 05 01 74 77  p.#fM.'r..'r..tw
1380: 61 31 93 6C 80 03 02 10  6C 80 2B 27 72 05 01 71  a1.l....l.+'r..q
1390: 80 23 93 0A 80 52 56 80  F0 FF FF 7F F0 FF FF 7F  .#...RV.........
13A0: 73 62 31 39 45 56 80 F0  FF FF 7F F0 FF FF 7F 73  sb19EV.........s
13B0: 62 31 38 0A 80 24 72 80  0E 80 0A 80 25 02 00 10  b18..$r.....%...
13C0: 0A 80 00 D1 13 03 01 10  3A 80 43 00 43 01 01 FF  ........:.C.C...
13D0: 13 02 00 10 0E 80 00 FF  13 52 56 80 F0 FF FF 7F  .........RV.....
13E0: F0 FF FF 7F 73 62 31 38  45 56 80 F0 FF FF 7F F0  ....sb18EV......
13F0: FF FF 7F 73 62 31 36 0A  80 01 19 12 01 FF 13 01  ...sb16.........
1400: FF 14 02 00 10 43 80 00  EC 14 93 6D 80 03 02 10  .....C.....m....
1410: 6D 80 2B 27 72 05 01 6F  80 23 93 0A 80 52 56 80  m.+'r..o.#...RV.
1420: F0 FF FF 7F F0 FF FF 7F  73 62 31 36 45 56 80 F0  ........sb16EV..
1430: FF FF 7F F0 FF FF 7F 73  62 32 30 0A 80 66 4D 80  .......sb20..fM.
1440: 27 72 05 01 27 72 05 01  74 77 62 30 03 01 10 67  'r..'r..twb0...g
1450: 80 43 00 43 01 2B 27 72  05 01 70 80 23 66 4D 80  .C.C.+'r..p.#fM.
1460: 27 72 05 01 27 72 05 01  74 77 62 31 93 6D 80 03  'r..'r..twb1.m..
1470: 02 10 6D 80 2B 27 72 05  01 71 80 23 52 56 80 F0  ..m.+'r..q.#RV..
1480: FF FF 7F F0 FF FF 7F 73  62 32 30 45 56 80 F0 FF  .......sb20EV...
1490: FF 7F F0 FF FF 7F 73 62  31 38 0A 80 93 0A 80 24  ......sb18.....$
14A0: 72 80 0E 80 0A 80 25 02  00 10 0A 80 00 BB 14 03  r.....%.........
14B0: 01 10 74 80 43 00 43 01  01 E9 14 02 00 10 0E 80  ..t.C.C.........
14C0: 00 E9 14 52 56 80 F0 FF  FF 7F F0 FF FF 7F 73 62  ...RV.........sb
14D0: 31 38 45 56 80 F0 FF FF  7F F0 FF FF 7F 73 62 31  18EV.........sb1
14E0: 36 0A 80 01 19 12 01 E9  14 01 FF 14 02 00 10 3A  6..............:
14F0: 80 00 FF 14 03 01 10 43  80 01 B7 15 01 FF 14 6E  .......C.......n
1500: F0 FF FF 7F 6A 80 99 F0  FF FF 7F 99 F0 FF FF 7F  ....j...........
1510: 1C 1A 80 7B 27 72 05 01  66 4D 80 27 72 05 01 27  ...{'r..fM.'r..'
1520: 72 05 01 74 68 6B 31 1C  08 80 52 56 80 F0 FF FF  r..thk1...RV....
1530: 7F F0 FF FF 7F 73 62 31  38 45 56 80 F0 FF FF 7F  .....sb18EV.....
1540: F0 FF FF 7F 73 62 32 31  0A 80 1C 0B 80 2B 27 72  ....sb21.....+'r
1550: 05 01 75 80 23 66 4D 80  27 72 05 01 27 72 05 01  ..u.#fM.'r..'r..
1560: 74 68 6B 32 53 27 72 05  01 27 72 05 01 74 68 6B  thk2S'r..'r..thk
1570: 32 79 00 27 72 05 01 F0  FF FF 7F 52 56 80 F0 FF  2y.'r......RV...
1580: FF 7F F0 FF FF 7F 73 62  32 31 45 56 80 F0 FF FF  ......sb21EV....
1590: 7F F0 FF FF 7F 73 62 32  32 0A 80 6E 27 72 05 01  .....sb22..n'r..
15A0: 60 80 99 27 72 05 01 99  27 72 05 01 2B 27 72 05  `..'r...'r..+'r.
15B0: 01 76 80 23 06 01 10 1A  06 1C 1C 12 80 52 56 80  .v.#.........RV.
15C0: F0 FF FF 7F F0 FF FF 7F  73 62 31 36 52 56 80 F0  ........sb16RV..
15D0: FF FF 7F F0 FF FF 7F 73  62 32 32 45 56 80 F0 FF  .......sb22EV...
15E0: FF 7F F0 FF FF 7F 30 62  6C 66 0A 80 46 00 45 1C  ......0blf..F.E.
15F0: 80 F0 FF FF 7F F0 FF FF  7F 66 64 69 32 0A 80 21  .........fdi2..!
1600: 00                                                .               
```

#### Opcodes

```
  0: 0x113E [0x42] SET_CLI_EVENT_CANCEL_DATA()
  1: 0x113F [0x03] ExtData[1]->WorkLocal[0] = Work_Zone[9]
  2: 0x1144 [0x1A] CALL_SUBROUTINE(address=0x1C06)
  3: 0x1147 [0x46] CAMERA_CONTROL: Disable user control
  4: 0x1149 [0x38] SET_CLIENT_EVENT_MODE(mode=19*)
  5: 0x114C [0x92] Loussaire (ID: 17134119/0x01057227)->Render.Flags3 ^= 0x01
  6: 0x1152 [0x94] LocalPlayer->Render.Flags3 ^= 0x01
  7: 0x1158 [0x94] Loussaire (ID: 17134119/0x01057227)->Render.Flags3 ^= 0x01
  8: 0x115E [0xBA] SET_ENTITY_POSITION(entity_id=LocalPlayer, pos_x=-248.228*, pos_z=-123.836*, pos_y=-8.523*, direction=99.8°*)
  9: 0x116B [0x80] LOAD_WAIT(entity=LocalPlayer)
 10: 0x1170 [0x80] LOAD_WAIT(entity=Loussaire (ID: 17134119/0x01057227))
 11: 0x1175 [0x79] LocalPlayer looks at Loussaire (ID: 17134119/0x01057227) (Basic look)
 12: 0x117F [0x4A] Loussaire (ID: 17134119/0x01057227) looks at LocalPlayer
 13: 0x1188 [0x5C] MUSIC_CONTROL: Set Idle (Day) music to song 145*
 14: 0x118C [0x5C] MUSIC_CONTROL: Set Idle (Night) music to song 145*
 15: 0x1190 [0x9A] WAIT_MUSIC_SERVER()
 16: 0x1191 [0x1C] WAIT(15* ticks)
 17: 0x1194 [0x45] LOAD_SCHEDULED_TASK: Load scheduler "sb16" with entities [LocalPlayer, LocalPlayer], work=[380*, 0*]
 18: 0x11A5 [0x1A] CALL_SUBROUTINE(address=0x1BE5)
 19: 0x11A8 [0x02] IF !(ExtData[1]->WorkLocal[0] == 2*) GOTO 0x11C9
 20: 0x11B0 [0x6E] Loussaire (ID: 17134119/0x01057227) uses emote 10*
 21: 0x11B7 [0x99] Wait for Loussaire (ID: 17134119/0x01057227) animation to complete
 22: 0x11BC [0x99] Wait for Loussaire (ID: 17134119/0x01057227) animation to complete
 23: 0x11C1 [0x2B] Loussaire (ID: 17134119/0x01057227) [12233*]:
    → "Uh-oh, I know that look! Somebody wants some more clothes. Am I right? Which means somebody wants to help me with my research! Right?"
 24: 0x11C8 [0x23] WAIT_FOR_DIALOG_INTERACTION
 25: 0x11C9 [0x7B] Loussaire (ID: 17134119/0x01057227) stops talking
 26: 0x11CE [0x66] LOAD_EXT_SCHEDULER_MAIN: Load scheduler "thk1" with entities [Loussaire (ID: 17134119/0x01057227), Loussaire (ID: 17134119/0x01057227)], work=29*
 27: 0x11DD [0x53] WAIT_SCHEDULER_TASK: Wait for scheduler "thk1" with entities [Loussaire (ID: 17134119/0x01057227), Loussaire (ID: 17134119/0x01057227)]
 28: 0x11EA [0x2B] Loussaire (ID: 17134119/0x01057227) [12234*]:
    → "I know, I know. I haven't gotten to where I am today by not being able to read people. So, what will it be this time, <Player>?"
 29: 0x11F1 [0x23] WAIT_FOR_DIALOG_INTERACTION
 30: 0x11F2 [0x03] Work_Zone[1] = 7*
 31: 0x11F7 [0x43] SEND_EVENT_UPDATE: Send pending tag to server (packet 0x005B)
 32: 0x11F9 [0x43] SEND_EVENT_UPDATE: Check pending flag (skip if not pending)
 33: 0x11FB [0x03] ExtData[1]->WorkLocal[1] = Work_Zone[2]
 34: 0x1200 [0x66] LOAD_EXT_SCHEDULER_MAIN: Load scheduler "thk2" with entities [Loussaire (ID: 17134119/0x01057227), Loussaire (ID: 17134119/0x01057227)], work=29*
 35: 0x120F [0x79] Loussaire (ID: 17134119/0x01057227) looks at LocalPlayer (Basic look)
 36: 0x1219 [0x03] Work_Zone[2] = 15748*
 37: 0x121E [0x03] Work_Zone[3] = 16311*
 38: 0x1223 [0x03] Work_Zone[4] = 14580*
 39: 0x1228 [0x24] CREATE_DIALOG(message_id=12219*, default_option=0*, option_flags=ExtData[1]->WorkLocal[1])
    → "Which item are you interested in? [$0./$1./$2./Give me some time to mull it over.]"
 40: 0x122F [0x25] WAIT_DIALOG_SELECT()
 41: 0x1230 [0x02] IF !(Work_Zone[0] == 0*) GOTO 0x1318
 42: 0x1238 [0x93] DISPLAY_ITEM_INFO(item_id=15748*)
 43: 0x123B [0x03] Work_Zone[2] = 15748*
 44: 0x1240 [0x2B] Loussaire (ID: 17134119/0x01057227) [12220*]:
    → "Ahhh, $0. Classic! In that case, I must ask this of you. Listen carefully."
 45: 0x1247 [0x23] WAIT_FOR_DIALOG_INTERACTION
 46: 0x1248 [0x93] DISPLAY_ITEM_INFO(item_id=0*)
 47: 0x124B [0x52] END_LOAD_SCHEDULER: End scheduler "sb16" with entities [LocalPlayer, LocalPlayer], work=380*
 48: 0x125A [0x45] LOAD_SCHEDULED_TASK: Load scheduler "sb17" with entities [LocalPlayer, LocalPlayer], work=[380*, 0*]
 49: 0x126B [0x66] LOAD_EXT_SCHEDULER_MAIN: Load scheduler "tlk0" with entities [Loussaire (ID: 17134119/0x01057227), Loussaire (ID: 17134119/0x01057227)], work=29*
 50: 0x127A [0x03] Work_Zone[1] = 2*
 51: 0x127F [0x43] SEND_EVENT_UPDATE: Send pending tag to server (packet 0x005B)
 52: 0x1281 [0x43] SEND_EVENT_UPDATE: Check pending flag (skip if not pending)
 53: 0x1283 [0x2B] Loussaire (ID: 17134119/0x01057227) [12221*]:
    → "I will require you to obtain and bring me $6 and... Oh yes! $6. That should do it."
 54: 0x128A [0x23] WAIT_FOR_DIALOG_INTERACTION
 55: 0x128B [0x66] LOAD_EXT_SCHEDULER_MAIN: Load scheduler "tlk1" with entities [Loussaire (ID: 17134119/0x01057227), Loussaire (ID: 17134119/0x01057227)], work=29*
 56: 0x129A [0x93] DISPLAY_ITEM_INFO(item_id=15748*)
 57: 0x129D [0x03] Work_Zone[2] = 15748*
 58: 0x12A2 [0x2B] Loussaire (ID: 17134119/0x01057227) [12222*]:
    → "Are you sure it is $0 that you would like?"
 59: 0x12A9 [0x23] WAIT_FOR_DIALOG_INTERACTION
 60: 0x12AA [0x52] END_LOAD_SCHEDULER: End scheduler "sb17" with entities [LocalPlayer, LocalPlayer], work=380*
 61: 0x12B9 [0x45] LOAD_SCHEDULED_TASK: Load scheduler "sb18" with entities [LocalPlayer, LocalPlayer], work=[380*, 0*]
 62: 0x12CA [0x93] DISPLAY_ITEM_INFO(item_id=0*)
 63: 0x12CD [0x24] CREATE_DIALOG(message_id=12223*, default_option=1*, option_flags=0*)
    → "Are you sureH [Beyond a doubt./On second thought...]"
 64: 0x12D4 [0x25] WAIT_DIALOG_SELECT()
 65: 0x12D5 [0x02] IF !(Work_Zone[0] == 0*) GOTO 0x12E7
 66: 0x12DD [0x05] Work_Zone[1] = 1
 67: 0x12E0 [0x43] SEND_EVENT_UPDATE: Send pending tag to server (packet 0x005B)
 68: 0x12E2 [0x43] SEND_EVENT_UPDATE: Check pending flag (skip if not pending)
 69: 0x12E4 [0x01] GOTO 0x1315
 70: 0x12E7 [0x02] IF !(Work_Zone[0] == 1*) GOTO 0x1315
 71: 0x12EF [0x52] END_LOAD_SCHEDULER: End scheduler "sb18" with entities [LocalPlayer, LocalPlayer], work=380*
 72: 0x12FE [0x45] LOAD_SCHEDULED_TASK: Load scheduler "sb16" with entities [LocalPlayer, LocalPlayer], work=[380*, 0*]
 73: 0x130F [0x01] GOTO 0x1219

SUBROUTINE_1315:
 74: 0x1315 [0x01] GOTO 0x14FF
 75: 0x1318 [0x02] IF !(Work_Zone[0] == 1*) GOTO 0x1402
 76: 0x1320 [0x93] DISPLAY_ITEM_INFO(item_id=16311*)
 77: 0x1323 [0x03] Work_Zone[2] = 16311*
 78: 0x1328 [0x2B] Loussaire (ID: 17134119/0x01057227) [12220*]:
    → "Ahhh, $0. Classic! In that case, I must ask this of you. Listen carefully."
 79: 0x132F [0x23] WAIT_FOR_DIALOG_INTERACTION
 80: 0x1330 [0x93] DISPLAY_ITEM_INFO(item_id=0*)
 81: 0x1333 [0x52] END_LOAD_SCHEDULER: End scheduler "sb16" with entities [LocalPlayer, LocalPlayer], work=380*
 82: 0x1342 [0x45] LOAD_SCHEDULED_TASK: Load scheduler "sb19" with entities [LocalPlayer, LocalPlayer], work=[380*, 0*]
 83: 0x1353 [0x66] LOAD_EXT_SCHEDULER_MAIN: Load scheduler "twa0" with entities [Loussaire (ID: 17134119/0x01057227), Loussaire (ID: 17134119/0x01057227)], work=29*
 84: 0x1362 [0x03] Work_Zone[1] = 4*
 85: 0x1367 [0x43] SEND_EVENT_UPDATE: Send pending tag to server (packet 0x005B)
 86: 0x1369 [0x43] SEND_EVENT_UPDATE: Check pending flag (skip if not pending)
 87: 0x136B [0x2B] Loussaire (ID: 17134119/0x01057227) [12221*]:
    → "I will require you to obtain and bring me $6 and... Oh yes! $6. That should do it."
 88: 0x1372 [0x23] WAIT_FOR_DIALOG_INTERACTION
 89: 0x1373 [0x66] LOAD_EXT_SCHEDULER_MAIN: Load scheduler "twa1" with entities [Loussaire (ID: 17134119/0x01057227), Loussaire (ID: 17134119/0x01057227)], work=29*
 90: 0x1382 [0x93] DISPLAY_ITEM_INFO(item_id=16311*)
 91: 0x1385 [0x03] Work_Zone[2] = 16311*
 92: 0x138A [0x2B] Loussaire (ID: 17134119/0x01057227) [12222*]:
    → "Are you sure it is $0 that you would like?"
 93: 0x1391 [0x23] WAIT_FOR_DIALOG_INTERACTION
 94: 0x1392 [0x93] DISPLAY_ITEM_INFO(item_id=0*)
 95: 0x1395 [0x52] END_LOAD_SCHEDULER: End scheduler "sb19" with entities [LocalPlayer, LocalPlayer], work=380*
 96: 0x13A4 [0x45] LOAD_SCHEDULED_TASK: Load scheduler "sb18" with entities [LocalPlayer, LocalPlayer], work=[380*, 0*]
 97: 0x13B5 [0x24] CREATE_DIALOG(message_id=12223*, default_option=1*, option_flags=0*)
    → "Are you sureH [Beyond a doubt./On second thought...]"
 98: 0x13BC [0x25] WAIT_DIALOG_SELECT()
 99: 0x13BD [0x02] IF !(Work_Zone[0] == 0*) GOTO 0x13D1
100: 0x13C5 [0x03] Work_Zone[1] = 3*
101: 0x13CA [0x43] SEND_EVENT_UPDATE: Send pending tag to server (packet 0x005B)
102: 0x13CC [0x43] SEND_EVENT_UPDATE: Check pending flag (skip if not pending)
103: 0x13CE [0x01] GOTO 0x13FF
104: 0x13D1 [0x02] IF !(Work_Zone[0] == 1*) GOTO 0x13FF
105: 0x13D9 [0x52] END_LOAD_SCHEDULER: End scheduler "sb18" with entities [LocalPlayer, LocalPlayer], work=380*
106: 0x13E8 [0x45] LOAD_SCHEDULED_TASK: Load scheduler "sb16" with entities [LocalPlayer, LocalPlayer], work=[380*, 0*]
107: 0x13F9 [0x01] GOTO 0x1219

SUBROUTINE_13FF:
108: 0x13FF [0x01] GOTO 0x14FF
109: 0x1402 [0x02] IF !(Work_Zone[0] == 2*) GOTO 0x14EC
110: 0x140A [0x93] DISPLAY_ITEM_INFO(item_id=14580*)
111: 0x140D [0x03] Work_Zone[2] = 14580*
112: 0x1412 [0x2B] Loussaire (ID: 17134119/0x01057227) [12220*]:
    → "Ahhh, $0. Classic! In that case, I must ask this of you. Listen carefully."
113: 0x1419 [0x23] WAIT_FOR_DIALOG_INTERACTION
114: 0x141A [0x93] DISPLAY_ITEM_INFO(item_id=0*)
115: 0x141D [0x52] END_LOAD_SCHEDULER: End scheduler "sb16" with entities [LocalPlayer, LocalPlayer], work=380*
116: 0x142C [0x45] LOAD_SCHEDULED_TASK: Load scheduler "sb20" with entities [LocalPlayer, LocalPlayer], work=[380*, 0*]
117: 0x143D [0x66] LOAD_EXT_SCHEDULER_MAIN: Load scheduler "twb0" with entities [Loussaire (ID: 17134119/0x01057227), Loussaire (ID: 17134119/0x01057227)], work=29*
118: 0x144C [0x03] Work_Zone[1] = 6*
119: 0x1451 [0x43] SEND_EVENT_UPDATE: Send pending tag to server (packet 0x005B)
120: 0x1453 [0x43] SEND_EVENT_UPDATE: Check pending flag (skip if not pending)
121: 0x1455 [0x2B] Loussaire (ID: 17134119/0x01057227) [12221*]:
    → "I will require you to obtain and bring me $6 and... Oh yes! $6. That should do it."
122: 0x145C [0x23] WAIT_FOR_DIALOG_INTERACTION
123: 0x145D [0x66] LOAD_EXT_SCHEDULER_MAIN: Load scheduler "twb1" with entities [Loussaire (ID: 17134119/0x01057227), Loussaire (ID: 17134119/0x01057227)], work=29*
124: 0x146C [0x93] DISPLAY_ITEM_INFO(item_id=14580*)
125: 0x146F [0x03] Work_Zone[2] = 14580*
126: 0x1474 [0x2B] Loussaire (ID: 17134119/0x01057227) [12222*]:
    → "Are you sure it is $0 that you would like?"
127: 0x147B [0x23] WAIT_FOR_DIALOG_INTERACTION
128: 0x147C [0x52] END_LOAD_SCHEDULER: End scheduler "sb20" with entities [LocalPlayer, LocalPlayer], work=380*
129: 0x148B [0x45] LOAD_SCHEDULED_TASK: Load scheduler "sb18" with entities [LocalPlayer, LocalPlayer], work=[380*, 0*]
130: 0x149C [0x93] DISPLAY_ITEM_INFO(item_id=0*)
131: 0x149F [0x24] CREATE_DIALOG(message_id=12223*, default_option=1*, option_flags=0*)
    → "Are you sureH [Beyond a doubt./On second thought...]"
132: 0x14A6 [0x25] WAIT_DIALOG_SELECT()
133: 0x14A7 [0x02] IF !(Work_Zone[0] == 0*) GOTO 0x14BB
134: 0x14AF [0x03] Work_Zone[1] = 5*
135: 0x14B4 [0x43] SEND_EVENT_UPDATE: Send pending tag to server (packet 0x005B)
136: 0x14B6 [0x43] SEND_EVENT_UPDATE: Check pending flag (skip if not pending)
137: 0x14B8 [0x01] GOTO 0x14E9
138: 0x14BB [0x02] IF !(Work_Zone[0] == 1*) GOTO 0x14E9
139: 0x14C3 [0x52] END_LOAD_SCHEDULER: End scheduler "sb18" with entities [LocalPlayer, LocalPlayer], work=380*
