# 17134047 - Scarred Shark

## Common Data

| Field            | Value                       |
|------------------|-----------------------------|
| Zone             | Bastok Markets [S] (ID: 87) |
| Block Size       | 3944 bytes                  |
| Total Events     | 10                          |
| References Count | 128                         |

## List of Events

| Event ID                 | Entrypoint   |   Size |   Instructions |
|--------------------------|--------------|--------|----------------|
| [65535](#event-65535)    | 0x0000       |      1 |              1 |
| [358](#event-358)        | 0x0001       |      1 |              1 |
| [148](#event-148)        | 0x0002       |     37 |             11 |
| [40](#event-40)          | 0x0027       |   1621 |            227 |
| [65535.1](#event-655351) | 0x067C       |     23 |              5 |
| [43](#event-43)          | 0x0693       |     28 |             10 |
| [41](#event-41)          | 0x06AF       |     29 |             11 |
| [44](#event-44)          | 0x06CC       |     14 |              6 |
| [42](#event-42)          | 0x06DA       |   1442 |            226 |
| [45](#event-45)          | 0x0C7C       |    179 |             27 |

## DAT References (imed_data)

|   Index | Hex Value   |   Dec Value |
|---------|-------------|-------------|
|       0 | 0x001E      |          30 |
|       1 | 0x3036      |       12342 |
|       2 | 0x0045      |          69 |
|       3 | 0x3037      |       12343 |
|       4 | 0x3038      |       12344 |
|       5 | 0x0013      |          19 |
|       6 | 0xFFFC6AEB  |  4294732523 |
|       7 | 0xF7C0      |       63424 |
|       8 | 0xFFFFF831  |  4294965297 |
|       9 | 0x0C84      |        3204 |
|      10 | 0xFFFC3BC9  |  4294720457 |
|      11 | 0xC500      |       50432 |
|      12 | 0xFFFFFC18  |  4294966296 |
|      13 | 0x0EF3      |        3827 |
|      14 | 0xFFFC3631  |  4294719025 |
|      15 | 0xCBBB      |       52155 |
|      16 | 0x0C85      |        3205 |
|      17 | 0x0146      |         326 |
|      18 | 0x0000      |           0 |
|      19 | 0x31D5      |       12757 |
|      20 | 0x31D6      |       12758 |
|      21 | 0x31D7      |       12759 |
|      22 | 0x00C8      |         200 |
|      23 | 0x0078      |         120 |
|      24 | 0x003C      |          60 |
|      25 | 0x31D9      |       12761 |
|      26 | 0xFFFC764B  |  4294735435 |
|      27 | 0xFFB9      |       65465 |
|      28 | 0xFFFFF830  |  4294965296 |
|      29 | 0x0937      |        2359 |
|      30 | 0x31DA      |       12762 |
|      31 | 0x0007      |           7 |
|      32 | 0x001A      |          26 |
|      33 | 0x31DB      |       12763 |
|      34 | 0x005A      |          90 |
|      35 | 0x31DC      |       12764 |
|      36 | 0x31DD      |       12765 |
|      37 | 0x0004      |           4 |
|      38 | 0x31DE      |       12766 |
|      39 | 0x31DF      |       12767 |
|      40 | 0x000E      |          14 |
|      41 | 0x31E0      |       12768 |
|      42 | 0x31E1      |       12769 |
|      43 | 0x31E2      |       12770 |
|      44 | 0x31E3      |       12771 |
|      45 | 0x09C8      |        2504 |
|      46 | 0x09C9      |        2505 |
|      47 | 0x31E4      |       12772 |
|      48 | 0x31E5      |       12773 |
|      49 | 0x31E6      |       12774 |
|      50 | 0x31E7      |       12775 |
|      51 | 0x0016      |          22 |
|      52 | 0x31E8      |       12776 |
|      53 | 0x31E9      |       12777 |
|      54 | 0x31EA      |       12778 |
|      55 | 0x31EB      |       12779 |
|      56 | 0x0020      |          32 |
|      57 | 0x31EC      |       12780 |
|      58 | 0x0015      |          21 |
|      59 | 0x31ED      |       12781 |
|      60 | 0x0006      |           6 |
|      61 | 0x31EE      |       12782 |
|      62 | 0x31EF      |       12783 |
|      63 | 0x31F0      |       12784 |
|      64 | 0x31F1      |       12785 |
|      65 | 0x0001      |           1 |
|      66 | 0x31F2      |       12786 |
|      67 | 0x0096      |         150 |
|      68 | 0x31D8      |       12760 |
|      69 | 0x31F3      |       12787 |
|      70 | 0x31F4      |       12788 |
|      71 | 0x31F5      |       12789 |
|      72 | 0x31F6      |       12790 |
|      73 | 0x31F7      |       12791 |
|      74 | 0xFFFC699C  |  4294732188 |
|      75 | 0x1023F     |       66111 |
|      76 | 0x0D31      |        3377 |
|      77 | 0x31F8      |       12792 |
|      78 | 0x000D      |          13 |
|      79 | 0xFFFC71F1  |  4294734321 |
|      80 | 0xF87D      |       63613 |
|      81 | 0x0028      |          40 |
|      82 | 0xFFFC5664  |  4294727268 |
|      83 | 0xD9CD      |       55757 |
|      84 | 0xFFFFF821  |  4294965281 |
|      85 | 0xFFFC75D2  |  4294735314 |
|      86 | 0xF436      |       62518 |
|      87 | 0x0BF5      |        3061 |
|      88 | 0xFFFC77AA  |  4294735786 |
|      89 | 0xFDD2      |       64978 |
|      90 | 0x31F9      |       12793 |
|      91 | 0x31FA      |       12794 |
|      92 | 0x31FB      |       12795 |
|      93 | 0x31FC      |       12796 |
|      94 | 0x31FD      |       12797 |
|      95 | 0x31FE      |       12798 |
|      96 | 0x31FF      |       12799 |
|      97 | 0x3200      |       12800 |
|      98 | 0x3201      |       12801 |
|      99 | 0x3202      |       12802 |
|     100 | 0x3203      |       12803 |
|     101 | 0x0024      |          36 |
|     102 | 0x3204      |       12804 |
|     103 | 0x3205      |       12805 |
|     104 | 0x3206      |       12806 |
|     105 | 0x3207      |       12807 |
|     106 | 0x3208      |       12808 |
|     107 | 0x3209      |       12809 |
|     108 | 0x320A      |       12810 |
|     109 | 0x320B      |       12811 |
|     110 | 0x320C      |       12812 |
|     111 | 0x0019      |          25 |
|     112 | 0x320D      |       12813 |
|     113 | 0x320E      |       12814 |
|     114 | 0x320F      |       12815 |
|     115 | 0x3210      |       12816 |
|     116 | 0x3211      |       12817 |
|     117 | 0x3212      |       12818 |
|     118 | 0x3213      |       12819 |
|     119 | 0xFFFC6DFB  |  4294733307 |
|     120 | 0x10836     |       67638 |
|     121 | 0x3214      |       12820 |
|     122 | 0x3215      |       12821 |
|     123 | 0x3216      |       12822 |
|     124 | 0x3217      |       12823 |
|     125 | 0x00C9      |         201 |
|     126 | 0x3218      |       12824 |
|     127 | 0x3219      |       12825 |

## String References

- **12342**: Do you know what a Sahagin is?
- **12343**: You know, those fish-like beastmen. Their demolition tactics have reduced Port Bastok to a shadow of its former glory. The Third Division of the Republican Legion is working tirelessly to rebuild it.
- **12344**: And the crushing defeat at Grauberg left even the Fourth Division nearly annihilated. At this rate, who knows what will become of our republic...
- **12757**: Hey, have you heard? Some Quadavs have begun equipping a new type of armor that has our army completely baffled.
- **12758**: It's supposed to be bulletproof. If this new armor were to be mass produced by the Quadav, we'd be in quite a tight spot. The issue's been causing mayhem in the Allied War Council.
- **12759**: How do I know all this?
- **12760**: I got the info through Ghemp, a mercenary mate of mine. He's got heavy connections in the military.
- **12765**: Things are well, thanks. No exciting developments to report, really, but that's nothing to complain about. In our line of work, you have to count your stars just to be alive.
- **12768**: That's great news! This means you can finally put your smithing expertise to use, right?
- **12770**: That's still wonderful news all the same. With all the advancements in weaponry being made by the beastmen, it's reassuring to have you two in charge.
- **12771**: Actually, me and <Player> were talking about the new armor being used by the Quadav just now.
- **12784**: Go find the armor pieces for Ghemp? [I could do with another soul.../Nah, not interested.]
- **12787**: Ghemp wants you to bring $0 and $1.
- **12788**: Bring the items to me as soon as you acquire them, and I'll personally make the delivery to Ghemp, rain, hail, or shine.
- **12789**: Oof! The weight is incredible! These are exactly what Ghemp wanted. Thank you so much.
- **12790**: I'll deliver them to Ghemp immediately, and accept the reward on your behalf. Be sure to come back to collect it from me in a little while.
- **12791**: Ghemp will be ecstatic to have these armor pieces. I'll be back with your reward soon, so come back here in a little while.
- **12792**: Oh, you're back, <Player>. Ghemp said he wanted to give the reward to you in person, so please wait here while I go fetch him.
- **12799**: B-but, how are we to fight an enemy that is impervious to bullets?
- **12810**: Garbenn, this matter is too serious to make decisions based on personal preferences!
- **12814**: Who would have thought...
- **12819**: ...
- **12820**: Those two are always carrying on like that.
- **12821**: But I know that beneath their cheerful exterior, they are dead serious about smithing.
- **12822**: Ghemp and Garbenn chose to become smiths because they couldn't bear to see their mercenary friends fall in battle for want of decent armor.
- **12823**: Armor made by soldiers for soldiers--that's the way it should be. I wonder if they'd be willing to take me on as an apprentice...
- **12824**: I came here because I wanted to help in some way.
- **12825**: I'm not in it for the gil, if that's what you're thinking. I want to become someone who is dependable and respected...like Ghemp and Garbenn.

## Events

### Event 65535

#### Metadata

| Field        | Value   |
|--------------|---------|
| Entrypoint   | 0x0000  |
| Data Size    | 1 bytes |
| Instructions | 1       |

```
      00 01 02 03 04 05 06 07  08 09 0A 0B 0C 0D 0E 0F
      -- -- -- -- -- -- -- --  -- -- -- -- -- -- -- --
0000: 00                                                .               
```

#### Opcodes

```
  0: 0x0000 [0x00] END_REQSTACK()
```

### Event 358

#### Metadata

| Field        | Value   |
|--------------|---------|
| Entrypoint   | 0x0001  |
| Data Size    | 1 bytes |
| Instructions | 1       |

```
      00 01 02 03 04 05 06 07  08 09 0A 0B 0C 0D 0E 0F
      -- -- -- -- -- -- -- --  -- -- -- -- -- -- -- --
0000:    00                                              .              
```

#### Opcodes

```
  0: 0x0001 [0x00] END_REQSTACK()
```

### Event 148

#### Metadata

| Field        | Value    |
|--------------|----------|
| Entrypoint   | 0x0002   |
| Data Size    | 37 bytes |
| Instructions | 11       |

```
      00 01 02 03 04 05 06 07  08 09 0A 0B 0C 0D 0E 0F
      -- -- -- -- -- -- -- --  -- -- -- -- -- -- -- --
0000:       1E F0 FF FF 7F 1C  00 80 1D 01 80 23 66 02    ...........#f.
0010: 80 F8 FF FF 7F F8 FF FF  7F 74 6C 6B 30 1D 03 80  .........tlk0...
0020: 23 1D 04 80 23 21 00                              #...#!.         
```

#### Opcodes

```
  0: 0x0002 [0x1E] EventEntity looks at LocalPlayer and starts talking
  1: 0x0007 [0x1C] WAIT(30* ticks)
  2: 0x000A [0x1D] PRINT_EVENT_MESSAGE(message_id=12342*)
    → "Do you know what a Sahagin is?"
  3: 0x000D [0x23] WAIT_FOR_DIALOG_INTERACTION
  4: 0x000E [0x66] LOAD_EXT_SCHEDULER_MAIN: Load scheduler "tlk0" with entities [EventEntity, EventEntity], work=69*
  5: 0x001D [0x1D] PRINT_EVENT_MESSAGE(message_id=12343*)
    → "You know, those fish-like beastmen. Their demolition tactics have reduced Port Bastok to a shadow of its former glory. The Third Division of the Republican Legion is working tirelessly to rebuild it."
  6: 0x0020 [0x23] WAIT_FOR_DIALOG_INTERACTION
  7: 0x0021 [0x1D] PRINT_EVENT_MESSAGE(message_id=12344*)
    → "And the crushing defeat at Grauberg left even the Fourth Division nearly annihilated. At this rate, who knows what will become of our republic..."
  8: 0x0024 [0x23] WAIT_FOR_DIALOG_INTERACTION
  9: 0x0025 [0x21] END_EVENT
 10: 0x0026 [0x00] END_REQSTACK()
```

### Event 40

#### Metadata

| Field        | Value      |
|--------------|------------|
| Entrypoint   | 0x0027     |
| Data Size    | 1621 bytes |
| Instructions | 227        |

```
      00 01 02 03 04 05 06 07  08 09 0A 0B 0C 0D 0E 0F
      -- -- -- -- -- -- -- --  -- -- -- -- -- -- -- --
0020:                      42  1A B7 0C 46 01 38 05 80         B...F.8..
0030: 4E 00 F8 FF FF 7F 2F 00  E0 71 05 01 4E 00 E0 71  N...../..q..N..q
0040: 05 01 2F 00 E1 71 05 01  4E 00 E1 71 05 01 92 01  ../..q..N..q....
0050: F0 FF FF 7F 92 01 DF 71  05 01 92 01 E0 71 05 01  .......q.....q..
0060: 92 01 E1 71 05 01 94 01  F0 FF FF 7F 94 01 DF 71  ...q...........q
0070: 05 01 94 01 E0 71 05 01  94 01 E1 71 05 01 BA F0  .....q.....q....
0080: FF FF 7F 06 80 07 80 08  80 09 80 BA E0 71 05 01  .............q..
0090: 0A 80 0B 80 0C 80 0D 80  BA E1 71 05 01 0E 80 0F  ..........q.....
00A0: 80 0C 80 10 80 80 F0 FF  FF 7F 80 E0 71 05 01 80  ............q...
00B0: E1 71 05 01 45 11 80 F0  FF FF 7F F0 FF FF 7F 73  .q..E..........s
00C0: 31 30 30 12 80 1E F0 FF  FF 7F 6F 70 1C 00 80 1A  100.......op....
00D0: 0B 0D 1D 13 80 23 66 02  80 DF 71 05 01 DF 71 05  .....#f...q...q.
00E0: 01 74 77 61 30 1D 14 80  23 52 11 80 F0 FF FF 7F  .twa0...#R......
00F0: F0 FF FF 7F 73 31 30 30  45 11 80 F0 FF FF 7F F0  ....s100E.......
0100: FF FF 7F 73 30 39 39 12  80 1D 15 80 23 27 05 DF  ...s099.....#'..
0110: 71 05 01 04 1C 00 80 45  16 80 F8 FF FF 7F F8 FF  q......E........
0120: FF 7F 6F 76 6C 31 12 80  52 11 80 F0 FF FF 7F F0  ..ovl1..R.......
0130: FF FF 7F 73 30 39 39 66  02 80 DF 71 05 01 DF 71  ...s099f...q...q
0140: 05 01 74 77 61 31 45 11  80 F0 FF FF 7F F0 FF FF  ..twa1E.........
0150: 7F 73 30 39 38 12 80 27  14 E0 71 05 01 03 1C 17  .s098..'..q.....
0160: 80 27 19 E1 71 05 01 03  1C 18 80 2B E0 71 05 01  .'..q......+.q..
0170: 19 80 23 1C 18 80 52 11  80 F0 FF FF 7F F0 FF FF  ..#...R.........
0180: 7F 73 30 39 38 BA F0 FF  FF 7F 1A 80 1B 80 1C 80  .s098...........
0190: 1D 80 45 11 80 F0 FF FF  7F F0 FF FF 7F 73 30 39  ..E..........s09
01A0: 37 12 80 1C 18 80 79 00  E1 71 05 01 E0 71 05 01  7.....y..q...q..
01B0: 2A 14 E0 71 05 01 2B E1  71 05 01 1E 80 23 4A E0  *..q..+.q....#J.
01C0: 71 05 01 E1 71 05 01 6F  76 E0 71 05 01 1C 18 80  q...q..ov.q.....
01D0: 2A 19 E1 71 05 01 6E E0  71 05 01 1F 80 99 E0 71  *..q..n.q......q
01E0: 05 01 99 E0 71 05 01 1C  18 80 6E E1 71 05 01 20  ....q.....n.q.. 
01F0: 80 99 E1 71 05 01 99 E1  71 05 01 2B E1 71 05 01  ...q....q..+.q..
0200: 21 80 23 1C 18 80 27 14  E0 71 05 01 04 52 11 80  !.#...'..q...R..
0210: F0 FF FF 7F F0 FF FF 7F  73 30 39 37 45 11 80 F0  ........s097E...
0220: FF FF 7F F0 FF FF 7F 73  30 39 36 12 80 7B E1 71  .......s096..{.q
0230: 05 01 1C 22 80 27 19 E1  71 05 01 04 2B E0 71 05  ...".'..q...+.q.
0240: 01 23 80 23 66 02 80 DF  71 05 01 DF 71 05 01 74  .#.#f...q...q..t
0250: 77 61 30 1C 17 80 1D 24  80 23 2A 19 E1 71 05 01  wa0....$.#*..q..
0260: 52 11 80 F0 FF FF 7F F0  FF FF 7F 73 30 39 36 66  R..........s096f
0270: 02 80 DF 71 05 01 DF 71  05 01 74 77 61 31 45 11  ...q...q..twa1E.
0280: 80 F0 FF FF 7F F0 FF FF  7F 73 30 39 35 12 80 4A  .........s095..J
0290: E1 71 05 01 DF 71 05 01  6F 76 E1 71 05 01 1C 00  .q...q..ov.q....
02A0: 80 6E E1 71 05 01 25 80  99 E1 71 05 01 99 E1 71  .n.q..%...q....q
02B0: 05 01 1C 18 80 2B E1 71  05 01 26 80 23 66 02 80  .....+.q..&.#f..
02C0: E1 71 05 01 E1 71 05 01  74 6C 6B 30 2B E1 71 05  .q...q..tlk0+.q.
02D0: 01 27 80 23 52 11 80 F0  FF FF 7F F0 FF FF 7F 73  .'.#R..........s
02E0: 30 39 35 66 02 80 E1 71  05 01 E1 71 05 01 74 6C  095f...q...q..tl
02F0: 6B 31 45 11 80 F0 FF FF  7F F0 FF FF 7F 73 30 39  k1E..........s09
0300: 34 12 80 6E DF 71 05 01  28 80 99 DF 71 05 01 99  4..n.q..(...q...
0310: DF 71 05 01 1C 18 80 1D  29 80 23 66 02 80 E1 71  .q......).#f...q
0320: 05 01 E1 71 05 01 74 77  61 30 2B E1 71 05 01 2A  ...q..twa0+.q..*
0330: 80 23 66 02 80 E1 71 05  01 E1 71 05 01 74 77 61  .#f...q...q..twa
0340: 31 66 02 80 DF 71 05 01  DF 71 05 01 74 77 61 30  1f...q...q..twa0
0350: 1D 2B 80 23 79 00 DF 71  05 01 F0 FF FF 7F 52 11  .+.#y..q......R.
0360: 80 F0 FF FF 7F F0 FF FF  7F 73 30 39 34 45 11 80  .........s094E..
0370: F0 FF FF 7F F0 FF FF 7F  73 30 39 33 12 80 1C 18  ........s093....
0380: 80 1D 2C 80 23 66 02 80  DF 71 05 01 DF 71 05 01  ..,.#f...q...q..
0390: 74 77 61 31 4A E0 71 05  01 F0 FF FF 7F 6F 76 E0  twa1J.q......ov.
03A0: 71 05 01 1C 00 80 03 02  10 2D 80 03 03 10 2E 80  q........-......
03B0: 79 00 F0 FF FF 7F E0 71  05 01 2B E0 71 05 01 2F  y......q..+.q../
03C0: 80 23 52 11 80 F0 FF FF  7F F0 FF FF 7F 73 30 39  .#R..........s09
03D0: 33 45 11 80 F0 FF FF 7F  F0 FF FF 7F 73 30 39 32  3E..........s092
03E0: 12 80 66 02 80 E1 71 05  01 E1 71 05 01 74 77 61  ..f...q...q..twa
03F0: 30 1C 00 80 79 00 E0 71  05 01 E1 71 05 01 2B E1  0...y..q...q..+.
0400: 71 05 01 30 80 23 79 00  F0 FF FF 7F E0 71 05 01  q..0.#y......q..
0410: 2B E0 71 05 01 31 80 23  66 02 80 E1 71 05 01 E1  +.q..1.#f...q...
0420: 71 05 01 74 77 61 31 4A  E1 71 05 01 E0 71 05 01  q..twa1J.q...q..
0430: 6F 76 E1 71 05 01 2B E1  71 05 01 32 80 23 52 11  ov.q..+.q..2.#R.
0440: 80 F0 FF FF 7F F0 FF FF  7F 73 30 39 32 45 11 80  .........s092E..
0450: F0 FF FF 7F F0 FF FF 7F  73 30 39 31 12 80 6E E0  ........s091..n.
0460: 71 05 01 33 80 99 E0 71  05 01 99 E0 71 05 01 2B  q..3...q....q..+
0470: E0 71 05 01 34 80 23 52  11 80 F0 FF FF 7F F0 FF  .q..4.#R........
0480: FF 7F 73 30 39 31 45 11  80 F0 FF FF 7F F0 FF FF  ..s091E.........
0490: 7F 73 30 38 36 12 80 79  00 E1 71 05 01 E0 71 05  .s086..y..q...q.
04A0: 01 1C 18 80 2B E1 71 05  01 35 80 23 66 02 80 E0  ....+.q..5.#f...
04B0: 71 05 01 E0 71 05 01 74  77 61 30 1C 00 80 2B E0  q...q..twa0...+.
04C0: 71 05 01 36 80 23 52 11  80 F0 FF FF 7F F0 FF FF  q..6.#R.........
04D0: 7F 73 30 38 36 45 11 80  F0 FF FF 7F F0 FF FF 7F  .s086E..........
04E0: 73 30 39 30 12 80 79 00  E0 71 05 01 F0 FF FF 7F  s090..y..q......
04F0: 03 02 10 2D 80 03 03 10  2E 80 2B E0 71 05 01 37  ...-......+.q..7
0500: 80 23 66 02 80 E0 71 05  01 E0 71 05 01 74 77 61  .#f...q...q..twa
0510: 31 52 11 80 F0 FF FF 7F  F0 FF FF 7F 73 30 39 30  1R..........s090
0520: 45 11 80 F0 FF FF 7F F0  FF FF 7F 73 30 38 39 12  E..........s089.
0530: 80 6E E0 71 05 01 38 80  99 E0 71 05 01 99 E0 71  .n.q..8...q....q
0540: 05 01 2B E0 71 05 01 39  80 23 79 00 E1 71 05 01  ..+.q..9.#y..q..
0550: E0 71 05 01 6E E1 71 05  01 3A 80 99 E1 71 05 01  .q..n.q..:...q..
0560: 99 E1 71 05 01 1C 00 80  2B E1 71 05 01 3B 80 23  ..q.....+.q..;.#
0570: 6E E0 71 05 01 3C 80 99  E0 71 05 01 99 E0 71 05  n.q..<...q....q.
0580: 01 2B E0 71 05 01 3D 80  23 66 02 80 E0 71 05 01  .+.q..=.#f...q..
0590: E0 71 05 01 74 77 61 30  2B E0 71 05 01 3E 80 23  .q..twa0+.q..>.#
05A0: 52 11 80 F0 FF FF 7F F0  FF FF 7F 73 30 38 39 45  R..........s089E
05B0: 11 80 F0 FF FF 7F F0 FF  FF 7F 73 30 38 38 12 80  ..........s088..
05C0: 24 3F 80 12 80 12 80 25  02 00 10 12 80 00 0A 06  $?.....%........
05D0: 66 02 80 E0 71 05 01 E0  71 05 01 74 77 61 31 2B  f...q...q..twa1+
05E0: E0 71 05 01 40 80 23 52  11 80 F0 FF FF 7F F0 FF  .q..@.#R........
05F0: FF 7F 73 30 38 38 45 11  80 F0 FF FF 7F F0 FF FF  ..s088E.........
0600: 7F 73 30 38 37 12 80 01  4C 06 02 00 10 41 80 00  .s087...L....A..
0610: 4C 06 66 02 80 E0 71 05  01 E0 71 05 01 74 77 61  L.f...q...q..twa
0620: 31 2B E0 71 05 01 42 80  23 52 11 80 F0 FF FF 7F  1+.q..B.#R......
0630: F0 FF FF 7F 73 30 38 38  45 11 80 F0 FF FF 7F F0  ....s088E.......
0640: FF FF 7F 73 30 38 37 12  80 01 4C 06 27 14 E0 71  ...s087...L.'..q
0650: 05 01 05 1C 22 80 27 19  E1 71 05 01 05 1C 43 80  ....".'..q....C.
0660: 1A B7 0C 1C 00 80 52 11  80 F0 FF FF 7F F0 FF FF  ......R.........
0670: 7F 73 30 38 37 46 00 1A  0B 0D 21 00              .s087F....!.    
```

#### Opcodes

```
  0: 0x0027 [0x42] SET_CLI_EVENT_CANCEL_DATA()
  1: 0x0028 [0x1A] CALL_SUBROUTINE(address=0x0CB7)
  2: 0x002B [0x46] CAMERA_CONTROL: Disable user control
  3: 0x002D [0x38] SET_CLIENT_EVENT_MODE(mode=19*)
  4: 0x0030 [0x4E] SET_ENTITY_HIDE_FLAG: Show EventEntity
  5: 0x0036 [0x2F] Ghemp (ID: 17134048/0x010571E0)->Render.Flags0 &= ~0x80000 // Bit 19
  6: 0x003C [0x4E] SET_ENTITY_HIDE_FLAG: Show Ghemp (ID: 17134048/0x010571E0)
  7: 0x0042 [0x2F] Wise Owl (ID: 17134049/0x010571E1)->Render.Flags0 &= ~0x80000 // Bit 19
  8: 0x0048 [0x4E] SET_ENTITY_HIDE_FLAG: Show Wise Owl (ID: 17134049/0x010571E1)
  9: 0x004E [0x92] LocalPlayer->Render.Flags3 ^= 0x01
 10: 0x0054 [0x92] Scarred Shark (ID: 17134047/0x010571DF)->Render.Flags3 ^= 0x01
 11: 0x005A [0x92] Ghemp (ID: 17134048/0x010571E0)->Render.Flags3 ^= 0x01
 12: 0x0060 [0x92] Wise Owl (ID: 17134049/0x010571E1)->Render.Flags3 ^= 0x01
 13: 0x0066 [0x94] LocalPlayer->Render.Flags3 ^= 0x01
 14: 0x006C [0x94] Scarred Shark (ID: 17134047/0x010571DF)->Render.Flags3 ^= 0x01
 15: 0x0072 [0x94] Ghemp (ID: 17134048/0x010571E0)->Render.Flags3 ^= 0x01
 16: 0x0078 [0x94] Wise Owl (ID: 17134049/0x010571E1)->Render.Flags3 ^= 0x01
 17: 0x007E [0xBA] SET_ENTITY_POSITION(entity_id=LocalPlayer, pos_x=-234.773*, pos_z=63.424*, pos_y=-1.999*, direction=281.6°*)
 18: 0x008B [0xBA] SET_ENTITY_POSITION(entity_id=Ghemp (ID: 17134048/0x010571E0), pos_x=-246.839*, pos_z=50.432*, pos_y=-1.000*, direction=336.3°*)
 19: 0x0098 [0xBA] SET_ENTITY_POSITION(entity_id=Wise Owl (ID: 17134049/0x010571E1), pos_x=-248.271*, pos_z=52.155*, pos_y=-1.000*, direction=281.7°*)
 20: 0x00A5 [0x80] LOAD_WAIT(entity=LocalPlayer)
 21: 0x00AA [0x80] LOAD_WAIT(entity=Ghemp (ID: 17134048/0x010571E0))
 22: 0x00AF [0x80] LOAD_WAIT(entity=Wise Owl (ID: 17134049/0x010571E1))
 23: 0x00B4 [0x45] LOAD_SCHEDULED_TASK: Load scheduler "s100" with entities [LocalPlayer, LocalPlayer], work=[326*, 0*]
 24: 0x00C5 [0x1E] EventEntity looks at LocalPlayer and starts talking
 25: 0x00CA [0x6F] WAIT_FRAME_DELAY: Yield until WaitTime reaches zero
 26: 0x00CB [0x70] WAIT_ENTITY_RENDER_FLAG: Wait while EventEntity->Render.Flags3 bit 2 is set (cancel turn if not)
 27: 0x00CC [0x1C] WAIT(30* ticks)
 28: 0x00CF [0x1A] CALL_SUBROUTINE(address=0x0D0B)
 29: 0x00D2 [0x1D] PRINT_EVENT_MESSAGE(message_id=12757*)
    → "Hey, have you heard? Some Quadavs have begun equipping a new type of armor that has our army completely baffled."
 30: 0x00D5 [0x23] WAIT_FOR_DIALOG_INTERACTION
 31: 0x00D6 [0x66] LOAD_EXT_SCHEDULER_MAIN: Load scheduler "twa0" with entities [Scarred Shark (ID: 17134047/0x010571DF), Scarred Shark (ID: 17134047/0x010571DF)], work=69*
 32: 0x00E5 [0x1D] PRINT_EVENT_MESSAGE(message_id=12758*)
    → "It's supposed to be bulletproof. If this new armor were to be mass produced by the Quadav, we'd be in quite a tight spot. The issue's been causing mayhem in the Allied War Council."
 33: 0x00E8 [0x23] WAIT_FOR_DIALOG_INTERACTION
 34: 0x00E9 [0x52] END_LOAD_SCHEDULER: End scheduler "s100" with entities [LocalPlayer, LocalPlayer], work=326*
 35: 0x00F8 [0x45] LOAD_SCHEDULED_TASK: Load scheduler "s099" with entities [LocalPlayer, LocalPlayer], work=[326*, 0*]
 36: 0x0109 [0x1D] PRINT_EVENT_MESSAGE(message_id=12759*)
    → "How do I know all this?"
 37: 0x010C [0x23] WAIT_FOR_DIALOG_INTERACTION
 38: 0x010D [0x27] REQ_SET(priority=0x05, entity_id=Scarred Shark (ID: 17134047/0x010571DF), tag_num=0x04)
 39: 0x0114 [0x1C] WAIT(30* ticks)
 40: 0x0117 [0x45] LOAD_SCHEDULED_TASK: Load scheduler "ovl1" with entities [EventEntity, EventEntity], work=[200*, 0*]
 41: 0x0128 [0x52] END_LOAD_SCHEDULER: End scheduler "s099" with entities [LocalPlayer, LocalPlayer], work=326*
 42: 0x0137 [0x66] LOAD_EXT_SCHEDULER_MAIN: Load scheduler "twa1" with entities [Scarred Shark (ID: 17134047/0x010571DF), Scarred Shark (ID: 17134047/0x010571DF)], work=69*
 43: 0x0146 [0x45] LOAD_SCHEDULED_TASK: Load scheduler "s098" with entities [LocalPlayer, LocalPlayer], work=[326*, 0*]
 44: 0x0157 [0x27] REQ_SET(priority=0x14, entity_id=Ghemp (ID: 17134048/0x010571E0), tag_num=0x03)
 45: 0x015E [0x1C] WAIT(120* ticks)
 46: 0x0161 [0x27] REQ_SET(priority=0x19, entity_id=Wise Owl (ID: 17134049/0x010571E1), tag_num=0x03)
 47: 0x0168 [0x1C] WAIT(60* ticks)
 48: 0x016B [0x2B] Ghemp (ID: 17134048/0x010571E0) [12761*]:
    → "There's no doubt about it. The marks left on the bullets recovered from the site show telltale signs of deflection. I hate to admit it, but those turtles now have the upper hand..."
 49: 0x0172 [0x23] WAIT_FOR_DIALOG_INTERACTION
 50: 0x0173 [0x1C] WAIT(60* ticks)
 51: 0x0176 [0x52] END_LOAD_SCHEDULER: End scheduler "s098" with entities [LocalPlayer, LocalPlayer], work=326*
 52: 0x0185 [0xBA] SET_ENTITY_POSITION(entity_id=LocalPlayer, pos_x=-231.861*, pos_z=65.465*, pos_y=-2.000*, direction=207.3°*)
 53: 0x0192 [0x45] LOAD_SCHEDULED_TASK: Load scheduler "s097" with entities [LocalPlayer, LocalPlayer], work=[326*, 0*]
 54: 0x01A3 [0x1C] WAIT(60* ticks)
 55: 0x01A6 [0x79] Wise Owl (ID: 17134049/0x010571E1) looks at Ghemp (ID: 17134048/0x010571E0) (Basic look)
 56: 0x01B0 [0x2A] GET_REQ_LEVEL(level=20, entity_id=Ghemp (ID: 17134048/0x010571E0))
 57: 0x01B6 [0x2B] Wise Owl (ID: 17134049/0x010571E1) [12762*]:
    → "If the army hadn't rejected your request for funding, you would have developed your own bulletproof armor by now. I thought your theory on shape being a factor in repelling bullets rather compelling..."
 58: 0x01BD [0x23] WAIT_FOR_DIALOG_INTERACTION
 59: 0x01BE [0x4A] Ghemp (ID: 17134048/0x010571E0) looks at Wise Owl (ID: 17134049/0x010571E1)
 60: 0x01C7 [0x6F] WAIT_FRAME_DELAY: Yield until WaitTime reaches zero
 61: 0x01C8 [0x76] CHECK_ENTITY_RENDER_FLAGS: Wait until Ghemp (ID: 17134048/0x010571E0) Render.Flags0 and Render.Flags3 conditions are met
 62: 0x01CD [0x1C] WAIT(60* ticks)
 63: 0x01D0 [0x2A] GET_REQ_LEVEL(level=25, entity_id=Wise Owl (ID: 17134049/0x010571E1))
 64: 0x01D6 [0x6E] Ghemp (ID: 17134048/0x010571E0) uses emote 7*
 65: 0x01DD [0x99] Wait for Ghemp (ID: 17134048/0x010571E0) animation to complete
 66: 0x01E2 [0x99] Wait for Ghemp (ID: 17134048/0x010571E0) animation to complete
 67: 0x01E7 [0x1C] WAIT(60* ticks)
 68: 0x01EA [0x6E] Wise Owl (ID: 17134049/0x010571E1) uses emote 26*
 69: 0x01F1 [0x99] Wait for Wise Owl (ID: 17134049/0x010571E1) animation to complete
 70: 0x01F6 [0x99] Wait for Wise Owl (ID: 17134049/0x010571E1) animation to complete
 71: 0x01FB [0x2B] Wise Owl (ID: 17134049/0x010571E1) [12763*]:
    → "The council is filled with hard-headed fossils."
 72: 0x0202 [0x23] WAIT_FOR_DIALOG_INTERACTION
 73: 0x0203 [0x1C] WAIT(60* ticks)
 74: 0x0206 [0x27] REQ_SET(priority=0x14, entity_id=Ghemp (ID: 17134048/0x010571E0), tag_num=0x04)
 75: 0x020D [0x52] END_LOAD_SCHEDULER: End scheduler "s097" with entities [LocalPlayer, LocalPlayer], work=326*
 76: 0x021C [0x45] LOAD_SCHEDULED_TASK: Load scheduler "s096" with entities [LocalPlayer, LocalPlayer], work=[326*, 0*]
 77: 0x022D [0x7B] Wise Owl (ID: 17134049/0x010571E1) stops talking
 78: 0x0232 [0x1C] WAIT(90* ticks)
 79: 0x0235 [0x27] REQ_SET(priority=0x19, entity_id=Wise Owl (ID: 17134049/0x010571E1), tag_num=0x04)
 80: 0x023C [0x2B] Ghemp (ID: 17134048/0x010571E0) [12764*]:
    → "Hey, Vareggo! How's work been?"
 81: 0x0243 [0x23] WAIT_FOR_DIALOG_INTERACTION
 82: 0x0244 [0x66] LOAD_EXT_SCHEDULER_MAIN: Load scheduler "twa0" with entities [Scarred Shark (ID: 17134047/0x010571DF), Scarred Shark (ID: 17134047/0x010571DF)], work=69*
 83: 0x0253 [0x1C] WAIT(120* ticks)
 84: 0x0256 [0x1D] PRINT_EVENT_MESSAGE(message_id=12765*)
    → "Things are well, thanks. No exciting developments to report, really, but that's nothing to complain about. In our line of work, you have to count your stars just to be alive."
 85: 0x0259 [0x23] WAIT_FOR_DIALOG_INTERACTION
 86: 0x025A [0x2A] GET_REQ_LEVEL(level=25, entity_id=Wise Owl (ID: 17134049/0x010571E1))
 87: 0x0260 [0x52] END_LOAD_SCHEDULER: End scheduler "s096" with entities [LocalPlayer, LocalPlayer], work=326*
 88: 0x026F [0x66] LOAD_EXT_SCHEDULER_MAIN: Load scheduler "twa1" with entities [Scarred Shark (ID: 17134047/0x010571DF), Scarred Shark (ID: 17134047/0x010571DF)], work=69*
 89: 0x027E [0x45] LOAD_SCHEDULED_TASK: Load scheduler "s095" with entities [LocalPlayer, LocalPlayer], work=[326*, 0*]
 90: 0x028F [0x4A] Wise Owl (ID: 17134049/0x010571E1) looks at Scarred Shark (ID: 17134047/0x010571DF)
 91: 0x0298 [0x6F] WAIT_FRAME_DELAY: Yield until WaitTime reaches zero
 92: 0x0299 [0x76] CHECK_ENTITY_RENDER_FLAGS: Wait until Wise Owl (ID: 17134049/0x010571E1) Render.Flags0 and Render.Flags3 conditions are met
 93: 0x029E [0x1C] WAIT(30* ticks)
 94: 0x02A1 [0x6E] Wise Owl (ID: 17134049/0x010571E1) uses emote 4*
 95: 0x02A8 [0x99] Wait for Wise Owl (ID: 17134049/0x010571E1) animation to complete
 96: 0x02AD [0x99] Wait for Wise Owl (ID: 17134049/0x010571E1) animation to complete
 97: 0x02B2 [0x1C] WAIT(60* ticks)
 98: 0x02B5 [0x2B] Wise Owl (ID: 17134049/0x010571E1) [12766*]:
    → "That's the spirit! Say, if you're not busy, we'd like your help with our work."
 99: 0x02BC [0x23] WAIT_FOR_DIALOG_INTERACTION
100: 0x02BD [0x66] LOAD_EXT_SCHEDULER_MAIN: Load scheduler "tlk0" with entities [Wise Owl (ID: 17134049/0x010571E1), Wise Owl (ID: 17134049/0x010571E1)], work=69*
101: 0x02CC [0x2B] Wise Owl (ID: 17134049/0x010571E1) [12767*]:
    → "We've recently been commissioned by the army to oversee production at the munitions factory, and need more hands."
102: 0x02D3 [0x23] WAIT_FOR_DIALOG_INTERACTION
103: 0x02D4 [0x52] END_LOAD_SCHEDULER: End scheduler "s095" with entities [LocalPlayer, LocalPlayer], work=326*
104: 0x02E3 [0x66] LOAD_EXT_SCHEDULER_MAIN: Load scheduler "tlk1" with entities [Wise Owl (ID: 17134049/0x010571E1), Wise Owl (ID: 17134049/0x010571E1)], work=69*
105: 0x02F2 [0x45] LOAD_SCHEDULED_TASK: Load scheduler "s094" with entities [LocalPlayer, LocalPlayer], work=[326*, 0*]
106: 0x0303 [0x6E] Scarred Shark (ID: 17134047/0x010571DF) uses emote 14*
107: 0x030A [0x99] Wait for Scarred Shark (ID: 17134047/0x010571DF) animation to complete
108: 0x030F [0x99] Wait for Scarred Shark (ID: 17134047/0x010571DF) animation to complete
109: 0x0314 [0x1C] WAIT(60* ticks)
110: 0x0317 [0x1D] PRINT_EVENT_MESSAGE(message_id=12768*)
    → "That's great news! This means you can finally put your smithing expertise to use, right?"
111: 0x031A [0x23] WAIT_FOR_DIALOG_INTERACTION
112: 0x031B [0x66] LOAD_EXT_SCHEDULER_MAIN: Load scheduler "twa0" with entities [Wise Owl (ID: 17134049/0x010571E1), Wise Owl (ID: 17134049/0x010571E1)], work=69*
113: 0x032A [0x2B] Wise Owl (ID: 17134049/0x010571E1) [12769*]:
    → "I suppose you could put it that way. The pay's nothing fancy, though."
114: 0x0331 [0x23] WAIT_FOR_DIALOG_INTERACTION
115: 0x0332 [0x66] LOAD_EXT_SCHEDULER_MAIN: Load scheduler "twa1" with entities [Wise Owl (ID: 17134049/0x010571E1), Wise Owl (ID: 17134049/0x010571E1)], work=69*
116: 0x0341 [0x66] LOAD_EXT_SCHEDULER_MAIN: Load scheduler "twa0" with entities [Scarred Shark (ID: 17134047/0x010571DF), Scarred Shark (ID: 17134047/0x010571DF)], work=69*
117: 0x0350 [0x1D] PRINT_EVENT_MESSAGE(message_id=12770*)
    → "That's still wonderful news all the same. With all the advancements in weaponry being made by the beastmen, it's reassuring to have you two in charge."
118: 0x0353 [0x23] WAIT_FOR_DIALOG_INTERACTION
119: 0x0354 [0x79] Scarred Shark (ID: 17134047/0x010571DF) looks at LocalPlayer (Basic look)
120: 0x035E [0x52] END_LOAD_SCHEDULER: End scheduler "s094" with entities [LocalPlayer, LocalPlayer], work=326*
121: 0x036D [0x45] LOAD_SCHEDULED_TASK: Load scheduler "s093" with entities [LocalPlayer, LocalPlayer], work=[326*, 0*]
122: 0x037E [0x1C] WAIT(60* ticks)
123: 0x0381 [0x1D] PRINT_EVENT_MESSAGE(message_id=12771*)
    → "Actually, me and <Player> were talking about the new armor being used by the Quadav just now."
124: 0x0384 [0x23] WAIT_FOR_DIALOG_INTERACTION
125: 0x0385 [0x66] LOAD_EXT_SCHEDULER_MAIN: Load scheduler "twa1" with entities [Scarred Shark (ID: 17134047/0x010571DF), Scarred Shark (ID: 17134047/0x010571DF)], work=69*
126: 0x0394 [0x4A] Ghemp (ID: 17134048/0x010571E0) looks at LocalPlayer
127: 0x039D [0x6F] WAIT_FRAME_DELAY: Yield until WaitTime reaches zero
128: 0x039E [0x76] CHECK_ENTITY_RENDER_FLAGS: Wait until Ghemp (ID: 17134048/0x010571E0) Render.Flags0 and Render.Flags3 conditions are met
129: 0x03A3 [0x1C] WAIT(30* ticks)
130: 0x03A6 [0x03] Work_Zone[2] = 2504*
131: 0x03AB [0x03] Work_Zone[3] = 2505*
132: 0x03B0 [0x79] LocalPlayer looks at Ghemp (ID: 17134048/0x010571E0) (Basic look)
133: 0x03BA [0x2B] Ghemp (ID: 17134048/0x010571E0) [12772*]:
    → "Hmmm... You mean the $0 and the $1."
134: 0x03C1 [0x23] WAIT_FOR_DIALOG_INTERACTION
135: 0x03C2 [0x52] END_LOAD_SCHEDULER: End scheduler "s093" with entities [LocalPlayer, LocalPlayer], work=326*
136: 0x03D1 [0x45] LOAD_SCHEDULED_TASK: Load scheduler "s092" with entities [LocalPlayer, LocalPlayer], work=[326*, 0*]
137: 0x03E2 [0x66] LOAD_EXT_SCHEDULER_MAIN: Load scheduler "twa0" with entities [Wise Owl (ID: 17134049/0x010571E1), Wise Owl (ID: 17134049/0x010571E1)], work=69*
138: 0x03F1 [0x1C] WAIT(30* ticks)
139: 0x03F4 [0x79] Ghemp (ID: 17134048/0x010571E0) looks at Wise Owl (ID: 17134049/0x010571E1) (Basic look)
140: 0x03FE [0x2B] Wise Owl (ID: 17134049/0x010571E1) [12773*]:
    → "What a coincidence! Ghemp and I were having the exact same conversation."
141: 0x0405 [0x23] WAIT_FOR_DIALOG_INTERACTION
142: 0x0406 [0x79] LocalPlayer looks at Ghemp (ID: 17134048/0x010571E0) (Basic look)
143: 0x0410 [0x2B] Ghemp (ID: 17134048/0x010571E0) [12774*]:
    → "The armor's strength does not rely on thickness or material alone--I'm convinced it's the contour that holds the key to its ability to deflect bullets..."
144: 0x0417 [0x23] WAIT_FOR_DIALOG_INTERACTION
145: 0x0418 [0x66] LOAD_EXT_SCHEDULER_MAIN: Load scheduler "twa1" with entities [Wise Owl (ID: 17134049/0x010571E1), Wise Owl (ID: 17134049/0x010571E1)], work=69*
146: 0x0427 [0x4A] Wise Owl (ID: 17134049/0x010571E1) looks at Ghemp (ID: 17134048/0x010571E0)
147: 0x0430 [0x6F] WAIT_FRAME_DELAY: Yield until WaitTime reaches zero
148: 0x0431 [0x76] CHECK_ENTITY_RENDER_FLAGS: Wait until Wise Owl (ID: 17134049/0x010571E1) Render.Flags0 and Render.Flags3 conditions are met
149: 0x0436 [0x2B] Wise Owl (ID: 17134049/0x010571E1) [12775*]:
    → "Excuse me if I'm wrong, but haven't we already had this conversation five times today? This is beginning to become an unhealthy obsession, Ghemp."
150: 0x043D [0x23] WAIT_FOR_DIALOG_INTERACTION
151: 0x043E [0x52] END_LOAD_SCHEDULER: End scheduler "s092" with entities [LocalPlayer, LocalPlayer], work=326*
152: 0x044D [0x45] LOAD_SCHEDULED_TASK: Load scheduler "s091" with entities [LocalPlayer, LocalPlayer], work=[326*, 0*]
153: 0x045E [0x6E] Ghemp (ID: 17134048/0x010571E0) uses emote 22*
154: 0x0465 [0x99] Wait for Ghemp (ID: 17134048/0x010571E0) animation to complete
155: 0x046A [0x99] Wait for Ghemp (ID: 17134048/0x010571E0) animation to complete
156: 0x046F [0x2B] Ghemp (ID: 17134048/0x010571E0) [12776*]:
    → "It...it's a matter of grave importance to the security of the nation! If I could just get my hands on a sample, it'd be possible to analyze it and prove my bulletproofing theory correct..."
157: 0x0476 [0x23] WAIT_FOR_DIALOG_INTERACTION
158: 0x0477 [0x52] END_LOAD_SCHEDULER: End scheduler "s091" with entities [LocalPlayer, LocalPlayer], work=326*
159: 0x0486 [0x45] LOAD_SCHEDULED_TASK: Load scheduler "s086" with entities [LocalPlayer, LocalPlayer], work=[326*, 0*]
160: 0x0497 [0x79] Wise Owl (ID: 17134049/0x010571E1) looks at Ghemp (ID: 17134048/0x010571E0) (Basic look)
161: 0x04A1 [0x1C] WAIT(60* ticks)
162: 0x04A4 [0x2B] Wise Owl (ID: 17134049/0x010571E1) [12777*]:
    → "That's all well and good, but I reckon there's better gil to be had by developing a new weapon that'll penetrate the armor and selling the design to the army."
163: 0x04AB [0x23] WAIT_FOR_DIALOG_INTERACTION
164: 0x04AC [0x66] LOAD_EXT_SCHEDULER_MAIN: Load scheduler "twa0" with entities [Ghemp (ID: 17134048/0x010571E0), Ghemp (ID: 17134048/0x010571E0)], work=69*
165: 0x04BB [0x1C] WAIT(30* ticks)
166: 0x04BE [0x2B] Ghemp (ID: 17134048/0x010571E0) [12778*]:
    → "Well, well, looks like I'm not the only one with an obsession..."
167: 0x04C5 [0x23] WAIT_FOR_DIALOG_INTERACTION
168: 0x04C6 [0x52] END_LOAD_SCHEDULER: End scheduler "s086" with entities [LocalPlayer, LocalPlayer], work=326*
169: 0x04D5 [0x45] LOAD_SCHEDULED_TASK: Load scheduler "s090" with entities [LocalPlayer, LocalPlayer], work=[326*, 0*]
170: 0x04E6 [0x79] Ghemp (ID: 17134048/0x010571E0) looks at LocalPlayer (Basic look)
171: 0x04F0 [0x03] Work_Zone[2] = 2504*
172: 0x04F5 [0x03] Work_Zone[3] = 2505*
173: 0x04FA [0x2B] Ghemp (ID: 17134048/0x010571E0) [12779*]:
    → "So, how about it? Would you be interested in finding me $0 and $1? I'll make sure you're rewarded."
174: 0x0501 [0x23] WAIT_FOR_DIALOG_INTERACTION
175: 0x0502 [0x66] LOAD_EXT_SCHEDULER_MAIN: Load scheduler "twa1" with entities [Ghemp (ID: 17134048/0x010571E0), Ghemp (ID: 17134048/0x010571E0)], work=69*
176: 0x0511 [0x52] END_LOAD_SCHEDULER: End scheduler "s090" with entities [LocalPlayer, LocalPlayer], work=326*
177: 0x0520 [0x45] LOAD_SCHEDULED_TASK: Load scheduler "s089" with entities [LocalPlayer, LocalPlayer], work=[326*, 0*]
178: 0x0531 [0x6E] Ghemp (ID: 17134048/0x010571E0) uses emote 32*
179: 0x0538 [0x99] Wait for Ghemp (ID: 17134048/0x010571E0) animation to complete
180: 0x053D [0x99] Wait for Ghemp (ID: 17134048/0x010571E0) animation to complete
181: 0x0542 [0x2B] Ghemp (ID: 17134048/0x010571E0) [12780*]:
    → "I want the armor pieces so badly, I'm willing to part with my soul."
182: 0x0549 [0x23] WAIT_FOR_DIALOG_INTERACTION
183: 0x054A [0x79] Wise Owl (ID: 17134049/0x010571E1) looks at Ghemp (ID: 17134048/0x010571E0) (Basic look)
184: 0x0554 [0x6E] Wise Owl (ID: 17134049/0x010571E1) uses emote 21*
185: 0x055B [0x99] Wait for Wise Owl (ID: 17134049/0x010571E1) animation to complete
186: 0x0560 [0x99] Wait for Wise Owl (ID: 17134049/0x010571E1) animation to complete
187: 0x0565 [0x1C] WAIT(30* ticks)
188: 0x0568 [0x2B] Wise Owl (ID: 17134049/0x010571E1) [12781*]:
    → "Hey hey, hold your chocobos there, Ghemp! Y-you can't be serious about giving your soul away..."
189: 0x056F [0x23] WAIT_FOR_DIALOG_INTERACTION
190: 0x0570 [0x6E] Ghemp (ID: 17134048/0x010571E0) uses emote 6*
191: 0x0577 [0x99] Wait for Ghemp (ID: 17134048/0x010571E0) animation to complete
192: 0x057C [0x99] Wait for Ghemp (ID: 17134048/0x010571E0) animation to complete
193: 0x0581 [0x2B] Ghemp (ID: 17134048/0x010571E0) [12782*]:
    → "Sure I can. I don't need it anymore."
194: 0x0588 [0x23] WAIT_FOR_DIALOG_INTERACTION
195: 0x0589 [0x66] LOAD_EXT_SCHEDULER_MAIN: Load scheduler "twa0" with entities [Ghemp (ID: 17134048/0x010571E0), Ghemp (ID: 17134048/0x010571E0)], work=69*
196: 0x0598 [0x2B] Ghemp (ID: 17134048/0x010571E0) [12783*]:
    → "So, what do you say? Things could get a bit rough, but I would really appreciate your help."
197: 0x059F [0x23] WAIT_FOR_DIALOG_INTERACTION
198: 0x05A0 [0x52] END_LOAD_SCHEDULER: End scheduler "s089" with entities [LocalPlayer, LocalPlayer], work=326*
199: 0x05AF [0x45] LOAD_SCHEDULED_TASK: Load scheduler "s088" with entities [LocalPlayer, LocalPlayer], work=[326*, 0*]
200: 0x05C0 [0x24] CREATE_DIALOG(message_id=12784*, default_option=0*, option_flags=0*)
    → "Go find the armor pieces for Ghemp? [I could do with another soul.../Nah, not interested.]"
201: 0x05C7 [0x25] WAIT_DIALOG_SELECT()
202: 0x05C8 [0x02] IF !(Work_Zone[0] == 0*) GOTO 0x060A
203: 0x05D0 [0x66] LOAD_EXT_SCHEDULER_MAIN: Load scheduler "twa1" with entities [Ghemp (ID: 17134048/0x010571E0), Ghemp (ID: 17134048/0x010571E0)], work=69*
204: 0x05DF [0x2B] Ghemp (ID: 17134048/0x010571E0) [12785*]:
    → "I knew I could count on you! I'll be waiting."
205: 0x05E6 [0x23] WAIT_FOR_DIALOG_INTERACTION
206: 0x05E7 [0x52] END_LOAD_SCHEDULER: End scheduler "s088" with entities [LocalPlayer, LocalPlayer], work=326*
207: 0x05F6 [0x45] LOAD_SCHEDULED_TASK: Load scheduler "s087" with entities [LocalPlayer, LocalPlayer], work=[326*, 0*]
208: 0x0607 [0x01] GOTO 0x064C
209: 0x060A [0x02] IF !(Work_Zone[0] == 1*) GOTO 0x064C
210: 0x0612 [0x66] LOAD_EXT_SCHEDULER_MAIN: Load scheduler "twa1" with entities [Ghemp (ID: 17134048/0x010571E0), Ghemp (ID: 17134048/0x010571E0)], work=69*
211: 0x0621 [0x2B] Ghemp (ID: 17134048/0x010571E0) [12786*]:
    → "That's a shame... I can't blame you for fearing for your own safety. But let me know if you change your mind."
212: 0x0628 [0x23] WAIT_FOR_DIALOG_INTERACTION
213: 0x0629 [0x52] END_LOAD_SCHEDULER: End scheduler "s088" with entities [LocalPlayer, LocalPlayer], work=326*
214: 0x0638 [0x45] LOAD_SCHEDULED_TASK: Load scheduler "s087" with entities [LocalPlayer, LocalPlayer], work=[326*, 0*]
215: 0x0649 [0x01] GOTO 0x064C

SUBROUTINE_064C:
216: 0x064C [0x27] REQ_SET(priority=0x14, entity_id=Ghemp (ID: 17134048/0x010571E0), tag_num=0x05)
217: 0x0653 [0x1C] WAIT(90* ticks)
218: 0x0656 [0x27] REQ_SET(priority=0x19, entity_id=Wise Owl (ID: 17134049/0x010571E1), tag_num=0x05)
219: 0x065D [0x1C] WAIT(150* ticks)
220: 0x0660 [0x1A] CALL_SUBROUTINE(address=0x0CB7)
221: 0x0663 [0x1C] WAIT(30* ticks)
222: 0x0666 [0x52] END_LOAD_SCHEDULER: End scheduler "s087" with entities [LocalPlayer, LocalPlayer], work=326*
223: 0x0675 [0x46] CAMERA_CONTROL: Restore default settings
224: 0x0677 [0x1A] CALL_SUBROUTINE(address=0x0D0B)
225: 0x067A [0x21] END_EVENT
226: 0x067B [0x00] END_REQSTACK()
```

### Event 65535.1

#### Metadata

| Field        | Value    |
|--------------|----------|
| Entrypoint   | 0x067C   |
| Data Size    | 23 bytes |
| Instructions | 5        |

```
      00 01 02 03 04 05 06 07  08 09 0A 0B 0C 0D 0E 0F
      -- -- -- -- -- -- -- --  -- -- -- -- -- -- -- --
0670:                                      1D 44 80 23              .D.#
0680: 66 02 80 DF 71 05 01 DF  71 05 01 74 77 61 31 1C  f...q...q..twa1.
0690: 18 80 00                                          ...             
```

#### Opcodes

```
  0: 0x067C [0x1D] PRINT_EVENT_MESSAGE(message_id=12760*)
    → "I got the info through Ghemp, a mercenary mate of mine. He's got heavy connections in the military."
  1: 0x067F [0x23] WAIT_FOR_DIALOG_INTERACTION
  2: 0x0680 [0x66] LOAD_EXT_SCHEDULER_MAIN: Load scheduler "twa1" with entities [Scarred Shark (ID: 17134047/0x010571DF), Scarred Shark (ID: 17134047/0x010571DF)], work=69*
  3: 0x068F [0x1C] WAIT(60* ticks)
  4: 0x0692 [0x00] END_REQSTACK()
```

### Event 43

#### Metadata

| Field        | Value    |
|--------------|----------|
| Entrypoint   | 0x0693   |
| Data Size    | 28 bytes |
| Instructions | 10       |

```
      00 01 02 03 04 05 06 07  08 09 0A 0B 0C 0D 0E 0F
      -- -- -- -- -- -- -- --  -- -- -- -- -- -- -- --
0690:          03 02 10 2D 80  03 03 10 2E 80 1E F0 FF     ...-.........
06A0: FF 7F 1C 00 80 1D 45 80  23 1D 46 80 23 21 00     ......E.#.F.#!. 
```

#### Opcodes

```
  0: 0x0693 [0x03] Work_Zone[2] = 2504*
  1: 0x0698 [0x03] Work_Zone[3] = 2505*
  2: 0x069D [0x1E] EventEntity looks at LocalPlayer and starts talking
  3: 0x06A2 [0x1C] WAIT(30* ticks)
  4: 0x06A5 [0x1D] PRINT_EVENT_MESSAGE(message_id=12787*)
    → "Ghemp wants you to bring $0 and $1."
  5: 0x06A8 [0x23] WAIT_FOR_DIALOG_INTERACTION
  6: 0x06A9 [0x1D] PRINT_EVENT_MESSAGE(message_id=12788*)
    → "Bring the items to me as soon as you acquire them, and I'll personally make the delivery to Ghemp, rain, hail, or shine."
  7: 0x06AC [0x23] WAIT_FOR_DIALOG_INTERACTION
  8: 0x06AD [0x21] END_EVENT
  9: 0x06AE [0x00] END_REQSTACK()
```

### Event 41

#### Metadata

| Field        | Value    |
|--------------|----------|
| Entrypoint   | 0x06AF   |
| Data Size    | 29 bytes |
| Instructions | 11       |

```
      00 01 02 03 04 05 06 07  08 09 0A 0B 0C 0D 0E 0F
      -- -- -- -- -- -- -- --  -- -- -- -- -- -- -- --
06A0:                                               42                 B
06B0: 1E F0 FF FF 7F 1C 00 80  03 02 10 2D 80 03 03 10  ...........-....
06C0: 2E 80 1D 47 80 23 1D 48  80 23 21 00              ...G.#.H.#!.    
```

#### Opcodes

```
  0: 0x06AF [0x42] SET_CLI_EVENT_CANCEL_DATA()
  1: 0x06B0 [0x1E] EventEntity looks at LocalPlayer and starts talking
  2: 0x06B5 [0x1C] WAIT(30* ticks)
  3: 0x06B8 [0x03] Work_Zone[2] = 2504*
  4: 0x06BD [0x03] Work_Zone[3] = 2505*
  5: 0x06C2 [0x1D] PRINT_EVENT_MESSAGE(message_id=12789*)
    → "Oof! The weight is incredible! These are exactly what Ghemp wanted. Thank you so much."
  6: 0x06C5 [0x23] WAIT_FOR_DIALOG_INTERACTION
  7: 0x06C6 [0x1D] PRINT_EVENT_MESSAGE(message_id=12790*)
    → "I'll deliver them to Ghemp immediately, and accept the reward on your behalf. Be sure to come back to collect it from me in a little while."
  8: 0x06C9 [0x23] WAIT_FOR_DIALOG_INTERACTION
  9: 0x06CA [0x21] END_EVENT
 10: 0x06CB [0x00] END_REQSTACK()
```

### Event 44

#### Metadata

| Field        | Value    |
|--------------|----------|
| Entrypoint   | 0x06CC   |
| Data Size    | 14 bytes |
| Instructions | 6        |

```
      00 01 02 03 04 05 06 07  08 09 0A 0B 0C 0D 0E 0F
      -- -- -- -- -- -- -- --  -- -- -- -- -- -- -- --
06C0:                                      1E F0 FF FF              ....
06D0: 7F 1C 00 80 1D 49 80 23  21 00                    .....I.#!.      
```

#### Opcodes

```
  0: 0x06CC [0x1E] EventEntity looks at LocalPlayer and starts talking
  1: 0x06D1 [0x1C] WAIT(30* ticks)
  2: 0x06D4 [0x1D] PRINT_EVENT_MESSAGE(message_id=12791*)
    → "Ghemp will be ecstatic to have these armor pieces. I'll be back with your reward soon, so come back here in a little while."
  3: 0x06D7 [0x23] WAIT_FOR_DIALOG_INTERACTION
  4: 0x06D8 [0x21] END_EVENT
  5: 0x06D9 [0x00] END_REQSTACK()
```

### Event 42

#### Metadata

| Field        | Value      |
|--------------|------------|
| Entrypoint   | 0x06DA     |
| Data Size    | 1442 bytes |
| Instructions | 226        |

```
      00 01 02 03 04 05 06 07  08 09 0A 0B 0C 0D 0E 0F
      -- -- -- -- -- -- -- --  -- -- -- -- -- -- -- --
06D0:                                42 1A B7 0C 46 01            B...F.
06E0: 38 05 80 4E 00 F8 FF FF  7F 92 01 F0 FF FF 7F 92  8..N............
06F0: 01 DF 71 05 01 92 01 E0  71 05 01 92 01 E1 71 05  ..q.....q.....q.
0700: 01 94 01 F0 FF FF 7F 94  01 DF 71 05 01 94 01 E0  ..........q.....
0710: 71 05 01 94 01 E1 71 05  01 BA F0 FF FF 7F 4A 80  q.....q.......J.
0720: 4B 80 1C 80 4C 80 80 F0  FF FF 7F 1E F0 FF FF 7F  K...L...........
0730: 6F 70 45 11 80 F0 FF FF  7F F0 FF FF 7F 73 30 38  opE..........s08
0740: 35 12 80 1C 00 80 1A 0B  0D 1C 18 80 1D 4D 80 23  5............M.#
0750: 32 4E 80 1F 00 4F 80 50  80 08 80 1F 01 6F 4A F0  2N...O.P.....oJ.
0760: FF FF 7F DF 71 05 01 6F  76 F0 FF FF 7F 32 51 80  ....q..ov....2Q.
0770: 1F 00 52 80 53 80 54 80  1F 01 1A B7 0C 52 11 80  ..R.S.T......R..
0780: F0 FF FF 7F F0 FF FF 7F  73 30 38 35 2F 00 E0 71  ........s085/..q
0790: 05 01 4E 00 E0 71 05 01  2F 00 E1 71 05 01 4E 00  ..N..q../..q..N.
07A0: E1 71 05 01 80 E0 71 05  01 80 E1 71 05 01 37 55  .q....q....q..7U
07B0: 80 56 80 1C 80 57 80 32  4E 80 1F 00 58 80 59 80  .V...W.2N...X.Y.
07C0: 1C 80 1F 01 4A DF 71 05  01 F0 FF FF 7F 6F 76 DF  ....J.q......ov.
07D0: 71 05 01 1C 00 80 27 14  E1 71 05 01 06 1C 00 80  q.....'..q......
07E0: 27 0F E0 71 05 01 06 45  11 80 F0 FF FF 7F F0 FF  '..q...E........
07F0: FF 7F 73 30 38 34 12 80  1A 0B 0D 1C 18 80 4A F0  ..s084........J.
0800: FF FF 7F E0 71 05 01 6F  76 F0 FF FF 7F 1C 18 80  ....q..ov.......
0810: 66 18 80 E0 71 05 01 E0  71 05 01 70 61 73 30 2B  f...q...q..pas0+
0820: E0 71 05 01 5A 80 23 2B  E0 71 05 01 5B 80 23 52  .q..Z.#+.q..[.#R
0830: 11 80 F0 FF FF 7F F0 FF  FF 7F 73 30 38 34 45 11  ..........s084E.
0840: 80 F0 FF FF 7F F0 FF FF  7F 73 30 38 33 12 80 66  .........s083..f
0850: 02 80 E0 71 05 01 E0 71  05 01 74 77 61 30 1C 00  ...q...q..twa0..
0860: 80 2B E0 71 05 01 5C 80  23 66 02 80 E0 71 05 01  .+.q..\.#f...q..
0870: E0 71 05 01 74 77 61 31  52 11 80 F0 FF FF 7F F0  .q..twa1R.......
0880: FF FF 7F 73 30 38 33 45  11 80 F0 FF FF 7F F0 FF  ...s083E........
0890: FF 7F 73 30 38 32 12 80  66 02 80 E0 71 05 01 E0  ..s082..f...q...
08A0: 71 05 01 74 68 6B 31 2B  E0 71 05 01 5D 80 23 2B  q..thk1+.q..].#+
08B0: E0 71 05 01 5E 80 23 66  02 80 E0 71 05 01 E0 71  .q..^.#f...q...q
08C0: 05 01 74 68 6B 32 1C 17  80 79 00 E0 71 05 01 E1  ..thk2...y..q...
08D0: 71 05 01 2B E1 71 05 01  5F 80 23 52 11 80 F0 FF  q..+.q.._.#R....
08E0: FF 7F F0 FF FF 7F 73 30  38 32 45 11 80 F0 FF FF  ......s082E.....
08F0: 7F F0 FF FF 7F 73 30 38  31 12 80 6E DF 71 05 01  .....s081..n.q..
0900: 3A 80 99 DF 71 05 01 99  DF 71 05 01 1D 60 80 23  :...q....q...`.#
0910: 4A E0 71 05 01 DF 71 05  01 6F 76 E0 71 05 01 52  J.q...q..ov.q..R
0920: 11 80 F0 FF FF 7F F0 FF  FF 7F 73 30 38 31 45 11  ..........s081E.
0930: 80 F0 FF FF 7F F0 FF FF  7F 73 30 38 30 12 80 6E  .........s080..n
0940: E0 71 05 01 1F 80 99 E0  71 05 01 99 E0 71 05 01  .q......q....q..
0950: 2B E0 71 05 01 61 80 23  4A E0 71 05 01 E1 71 05  +.q..a.#J.q...q.
0960: 01 6F 76 E0 71 05 01 2B  E0 71 05 01 62 80 23 52  .ov.q..+.q..b.#R
0970: 11 80 F0 FF FF 7F F0 FF  FF 7F 73 30 38 30 45 11  ..........s080E.
0980: 80 F0 FF FF 7F F0 FF FF  7F 73 30 37 39 12 80 6E  .........s079..n
0990: E1 71 05 01 1F 80 99 E1  71 05 01 99 E1 71 05 01  .q......q....q..
09A0: 2B E1 71 05 01 63 80 23  66 02 80 E0 71 05 01 E0  +.q..c.#f...q...
09B0: 71 05 01 74 77 61 30 2B  E0 71 05 01 64 80 23 66  q..twa0+.q..d.#f
09C0: 02 80 E0 71 05 01 E0 71  05 01 74 77 61 31 6E E1  ...q...q..twa1n.
09D0: 71 05 01 65 80 99 E1 71  05 01 99 E1 71 05 01 2B  q..e...q....q..+
09E0: E1 71 05 01 66 80 23 2B  E1 71 05 01 67 80 23 6E  .q..f.#+.q..g.#n
09F0: E1 71 05 01 25 80 99 E1  71 05 01 99 E1 71 05 01  .q..%...q....q..
0A00: 2B E1 71 05 01 68 80 23  66 02 80 E0 71 05 01 E0  +.q..h.#f...q...
0A10: 71 05 01 74 68 6B 31 2B  E0 71 05 01 69 80 23 2B  q..thk1+.q..i.#+
0A20: E1 71 05 01 6A 80 23 6E  E1 71 05 01 3C 80 99 E1  .q..j.#n.q..<...
0A30: 71 05 01 99 E1 71 05 01  2B E1 71 05 01 6B 80 23  q....q..+.q..k.#
0A40: 66 02 80 E0 71 05 01 E0  71 05 01 74 68 6B 32 52  f...q...q..thk2R
0A50: 11 80 F0 FF FF 7F F0 FF  FF 7F 73 30 37 39 45 11  ..........s079E.
0A60: 80 F0 FF FF 7F F0 FF FF  7F 73 30 37 38 12 80 6E  .........s078..n
0A70: DF 71 05 01 20 80 99 DF  71 05 01 99 DF 71 05 01  .q.. ...q....q..
0A80: 1D 6C 80 23 79 00 F0 FF  FF 7F DF 71 05 01 1C 18  .l.#y......q....
0A90: 80 52 11 80 F0 FF FF 7F  F0 FF FF 7F 73 30 37 38  .R..........s078
0AA0: 45 11 80 F0 FF FF 7F F0  FF FF 7F 73 30 37 37 12  E..........s077.
0AB0: 80 2B E0 71 05 01 6D 80  23 66 02 80 E0 71 05 01  .+.q..m.#f...q..
0AC0: E0 71 05 01 74 68 6B 31  79 00 E1 71 05 01 E0 71  .q..thk1y..q...q
0AD0: 05 01 2B E0 71 05 01 6E  80 23 66 02 80 E0 71 05  ..+.q..n.#f...q.
0AE0: 01 E0 71 05 01 74 68 6B  32 1C 18 80 6E E1 71 05  ..q..thk2...n.q.
0AF0: 01 6F 80 99 E1 71 05 01  99 E1 71 05 01 2B E1 71  .o...q....q..+.q
0B00: 05 01 70 80 23 52 11 80  F0 FF FF 7F F0 FF FF 7F  ..p.#R..........
0B10: 73 30 37 37 45 11 80 F0  FF FF 7F F0 FF FF 7F 73  s077E..........s
0B20: 30 37 36 12 80 4A DF 71  05 01 E1 71 05 01 6F 76  076..J.q...q..ov
0B30: DF 71 05 01 6E DF 71 05  01 20 80 99 DF 71 05 01  .q..n.q.. ...q..
0B40: 99 DF 71 05 01 1D 71 80  23 52 11 80 F0 FF FF 7F  ..q...q.#R......
0B50: F0 FF FF 7F 73 30 37 36  45 11 80 F0 FF FF 7F F0  ....s076E.......
0B60: FF FF 7F 73 30 37 35 12  80 6E E1 71 05 01 20 80  ...s075..n.q.. .
0B70: 99 E1 71 05 01 99 E1 71  05 01 2B E0 71 05 01 72  ..q....q..+.q..r
0B80: 80 23 2B E1 71 05 01 73  80 23 2B E0 71 05 01 74  .#+.q..s.#+.q..t
0B90: 80 23 2B E1 71 05 01 75  80 23 1D 76 80 23 1A B7  .#+.q..u.#.v.#..
0BA0: 0C 1C 00 80 52 11 80 F0  FF FF 7F F0 FF FF 7F 73  ....R..........s
0BB0: 30 37 35 4E 01 E0 71 05  01 4E 01 E1 71 05 01 4A  075N..q..N..q..J
0BC0: F0 FF FF 7F DF 71 05 01  6F 76 F0 FF FF 7F 1C 00  .....q..ov......
0BD0: 80 45 11 80 F0 FF FF 7F  F0 FF FF 7F 73 30 37 34  .E..........s074
0BE0: 12 80 32 4E 80 1F 00 77  80 78 80 1C 80 1F 01 1A  ..2N...w.x......
0BF0: 0B 0D 4A DF 71 05 01 F0  FF FF 7F 6F 76 DF 71 05  ..J.q......ov.q.
0C00: 01 1D 79 80 23 52 11 80  F0 FF FF 7F F0 FF FF 7F  ..y.#R..........
0C10: 73 30 37 34 45 11 80 F0  FF FF 7F F0 FF FF 7F 73  s074E..........s
0C20: 30 37 33 12 80 66 02 80  DF 71 05 01 DF 71 05 01  073..f...q...q..
0C30: 74 77 61 30 1D 7A 80 23  1D 7B 80 23 66 02 80 DF  twa0.z.#.{.#f...
0C40: 71 05 01 DF 71 05 01 74  77 61 30 1D 7C 80 23 1A  q...q..twa0.|.#.
0C50: B7 0C 1C 00 80 45 7D 80  F8 FF FF 7F F8 FF FF 7F  .....E}.........
0C60: 71 73 74 63 12 80 52 11  80 F0 FF FF 7F F0 FF FF  qstc..R.........
0C70: 7F 73 30 37 33 46 00 1A  0B 0D 21 00              .s073F....!.    
```

#### Opcodes

```
  0: 0x06DA [0x42] SET_CLI_EVENT_CANCEL_DATA()
  1: 0x06DB [0x1A] CALL_SUBROUTINE(address=0x0CB7)
  2: 0x06DE [0x46] CAMERA_CONTROL: Disable user control
  3: 0x06E0 [0x38] SET_CLIENT_EVENT_MODE(mode=19*)
  4: 0x06E3 [0x4E] SET_ENTITY_HIDE_FLAG: Show EventEntity
  5: 0x06E9 [0x92] LocalPlayer->Render.Flags3 ^= 0x01
  6: 0x06EF [0x92] Scarred Shark (ID: 17134047/0x010571DF)->Render.Flags3 ^= 0x01
  7: 0x06F5 [0x92] Ghemp (ID: 17134048/0x010571E0)->Render.Flags3 ^= 0x01
  8: 0x06FB [0x92] Wise Owl (ID: 17134049/0x010571E1)->Render.Flags3 ^= 0x01
  9: 0x0701 [0x94] LocalPlayer->Render.Flags3 ^= 0x01
 10: 0x0707 [0x94] Scarred Shark (ID: 17134047/0x010571DF)->Render.Flags3 ^= 0x01
 11: 0x070D [0x94] Ghemp (ID: 17134048/0x010571E0)->Render.Flags3 ^= 0x01
 12: 0x0713 [0x94] Wise Owl (ID: 17134049/0x010571E1)->Render.Flags3 ^= 0x01
 13: 0x0719 [0xBA] SET_ENTITY_POSITION(entity_id=LocalPlayer, pos_x=-235.108*, pos_z=66.111*, pos_y=-2.000*, direction=296.8°*)
 14: 0x0726 [0x80] LOAD_WAIT(entity=LocalPlayer)
 15: 0x072B [0x1E] EventEntity looks at LocalPlayer and starts talking
 16: 0x0730 [0x6F] WAIT_FRAME_DELAY: Yield until WaitTime reaches zero
 17: 0x0731 [0x70] WAIT_ENTITY_RENDER_FLAG: Wait while EventEntity->Render.Flags3 bit 2 is set (cancel turn if not)
 18: 0x0732 [0x45] LOAD_SCHEDULED_TASK: Load scheduler "s085" with entities [LocalPlayer, LocalPlayer], work=[326*, 0*]
 19: 0x0743 [0x1C] WAIT(30* ticks)
 20: 0x0746 [0x1A] CALL_SUBROUTINE(address=0x0D0B)
 21: 0x0749 [0x1C] WAIT(60* ticks)
 22: 0x074C [0x1D] PRINT_EVENT_MESSAGE(message_id=12792*)
    → "Oh, you're back, <Player>. Ghemp said he wanted to give the reward to you in person, so please wait here while I go fetch him."
 23: 0x074F [0x23] WAIT_FOR_DIALOG_INTERACTION
 24: 0x0750 [0x32] ExtData[1]->MainSpeed = 13* * 0.1
 25: 0x0753 [0x1F] MOVE_ENTITY: EventEntity moves to X=-232.975*, Z=63.613*, Y=-1.999*
 26: 0x075B [0x1F] MOVE_ENTITY: Update entity position (mode=1)
 27: 0x075D [0x6F] WAIT_FRAME_DELAY: Yield until WaitTime reaches zero
 28: 0x075E [0x4A] LocalPlayer looks at Scarred Shark (ID: 17134047/0x010571DF)
 29: 0x0767 [0x6F] WAIT_FRAME_DELAY: Yield until WaitTime reaches zero
 30: 0x0768 [0x76] CHECK_ENTITY_RENDER_FLAGS: Wait until LocalPlayer Render.Flags0 and Render.Flags3 conditions are met
 31: 0x076D [0x32] ExtData[1]->MainSpeed = 40* * 0.1
 32: 0x0770 [0x1F] MOVE_ENTITY: EventEntity moves to X=-240.028*, Z=55.757*, Y=-2.015*
 33: 0x0778 [0x1F] MOVE_ENTITY: Update entity position (mode=1)
 34: 0x077A [0x1A] CALL_SUBROUTINE(address=0x0CB7)
 35: 0x077D [0x52] END_LOAD_SCHEDULER: End scheduler "s085" with entities [LocalPlayer, LocalPlayer], work=326*
 36: 0x078C [0x2F] Ghemp (ID: 17134048/0x010571E0)->Render.Flags0 &= ~0x80000 // Bit 19
 37: 0x0792 [0x4E] SET_ENTITY_HIDE_FLAG: Show Ghemp (ID: 17134048/0x010571E0)
 38: 0x0798 [0x2F] Wise Owl (ID: 17134049/0x010571E1)->Render.Flags0 &= ~0x80000 // Bit 19
 39: 0x079E [0x4E] SET_ENTITY_HIDE_FLAG: Show Wise Owl (ID: 17134049/0x010571E1)
 40: 0x07A4 [0x80] LOAD_WAIT(entity=Ghemp (ID: 17134048/0x010571E0))
 41: 0x07A9 [0x80] LOAD_WAIT(entity=Wise Owl (ID: 17134049/0x010571E1))
 42: 0x07AE [0x37] UPDATE_EVENT_POSITION_AND_DIR: x=-231.982*, z=62.518*, y=-2.000*, direction=269.0°*
 43: 0x07B7 [0x32] ExtData[1]->MainSpeed = 13* * 0.1
 44: 0x07BA [0x1F] MOVE_ENTITY: EventEntity moves to X=-231.510*, Z=64.978*, Y=-2.000*
 45: 0x07C2 [0x1F] MOVE_ENTITY: Update entity position (mode=1)
 46: 0x07C4 [0x4A] Scarred Shark (ID: 17134047/0x010571DF) looks at LocalPlayer
 47: 0x07CD [0x6F] WAIT_FRAME_DELAY: Yield until WaitTime reaches zero
 48: 0x07CE [0x76] CHECK_ENTITY_RENDER_FLAGS: Wait until Scarred Shark (ID: 17134047/0x010571DF) Render.Flags0 and Render.Flags3 conditions are met
 49: 0x07D3 [0x1C] WAIT(30* ticks)
 50: 0x07D6 [0x27] REQ_SET(priority=0x14, entity_id=Wise Owl (ID: 17134049/0x010571E1), tag_num=0x06)
 51: 0x07DD [0x1C] WAIT(30* ticks)
 52: 0x07E0 [0x27] REQ_SET(priority=0x0F, entity_id=Ghemp (ID: 17134048/0x010571E0), tag_num=0x06)
 53: 0x07E7 [0x45] LOAD_SCHEDULED_TASK: Load scheduler "s084" with entities [LocalPlayer, LocalPlayer], work=[326*, 0*]
 54: 0x07F8 [0x1A] CALL_SUBROUTINE(address=0x0D0B)
 55: 0x07FB [0x1C] WAIT(60* ticks)
 56: 0x07FE [0x4A] LocalPlayer looks at Ghemp (ID: 17134048/0x010571E0)
 57: 0x0807 [0x6F] WAIT_FRAME_DELAY: Yield until WaitTime reaches zero
 58: 0x0808 [0x76] CHECK_ENTITY_RENDER_FLAGS: Wait until LocalPlayer Render.Flags0 and Render.Flags3 conditions are met
 59: 0x080D [0x1C] WAIT(60* ticks)
 60: 0x0810 [0x66] LOAD_EXT_SCHEDULER_MAIN: Load scheduler "pas0" with entities [Ghemp (ID: 17134048/0x010571E0), Ghemp (ID: 17134048/0x010571E0)], work=60*
 61: 0x081F [0x2B] Ghemp (ID: 17134048/0x010571E0) [12793*]:
    → "You're a lifesaver, <Player>. The armor pieces are exactly what I was looking for...and in such great condition, too! Here, this is my soul as promised."
 62: 0x0826 [0x23] WAIT_FOR_DIALOG_INTERACTION
 63: 0x0827 [0x2B] Ghemp (ID: 17134048/0x010571E0) [12794*]:
    → "It's a smithing instrument that was made for me by a traveling tool vendor who taught me my craft."
 64: 0x082E [0x23] WAIT_FOR_DIALOG_INTERACTION
 65: 0x082F [0x52] END_LOAD_SCHEDULER: End scheduler "s084" with entities [LocalPlayer, LocalPlayer], work=326*
 66: 0x083E [0x45] LOAD_SCHEDULED_TASK: Load scheduler "s083" with entities [LocalPlayer, LocalPlayer], work=[326*, 0*]
 67: 0x084F [0x66] LOAD_EXT_SCHEDULER_MAIN: Load scheduler "twa0" with entities [Ghemp (ID: 17134048/0x010571E0), Ghemp (ID: 17134048/0x010571E0)], work=69*
 68: 0x085E [0x1C] WAIT(30* ticks)
 69: 0x0861 [0x2B] Ghemp (ID: 17134048/0x010571E0) [12795*]:
    → "But it does its job too well, almost to a fault. Relying too much on it jeopardizes my integrity as a master blacksmith. That's why I've decided to give it away."
 70: 0x0868 [0x23] WAIT_FOR_DIALOG_INTERACTION
 71: 0x0869 [0x66] LOAD_EXT_SCHEDULER_MAIN: Load scheduler "twa1" with entities [Ghemp (ID: 17134048/0x010571E0), Ghemp (ID: 17134048/0x010571E0)], work=69*
 72: 0x0878 [0x52] END_LOAD_SCHEDULER: End scheduler "s083" with entities [LocalPlayer, LocalPlayer], work=326*
 73: 0x0887 [0x45] LOAD_SCHEDULED_TASK: Load scheduler "s082" with entities [LocalPlayer, LocalPlayer], work=[326*, 0*]
 74: 0x0898 [0x66] LOAD_EXT_SCHEDULER_MAIN: Load scheduler "thk1" with entities [Ghemp (ID: 17134048/0x010571E0), Ghemp (ID: 17134048/0x010571E0)], work=69*
 75: 0x08A7 [0x2B] Ghemp (ID: 17134048/0x010571E0) [12796*]:
    → "Oh, and one more thing. I examined the Quadav armor, and it's as I expected--a makeshift construction that deflects bullets."
 76: 0x08AE [0x23] WAIT_FOR_DIALOG_INTERACTION
 77: 0x08AF [0x2B] Ghemp (ID: 17134048/0x010571E0) [12797*]:
    → "What we don't know, though, is whether it was accident or intent that made the armor bulletproof..."
 78: 0x08B6 [0x23] WAIT_FOR_DIALOG_INTERACTION
 79: 0x08B7 [0x66] LOAD_EXT_SCHEDULER_MAIN: Load scheduler "thk2" with entities [Ghemp (ID: 17134048/0x010571E0), Ghemp (ID: 17134048/0x010571E0)], work=69*
 80: 0x08C6 [0x1C] WAIT(120* ticks)
 81: 0x08C9 [0x79] Ghemp (ID: 17134048/0x010571E0) looks at Wise Owl (ID: 17134049/0x010571E1) (Basic look)
 82: 0x08D3 [0x2B] Wise Owl (ID: 17134049/0x010571E1) [12798*]:
    → "Either way, nothing changes the fact that the Quadav now pose a greater threat than ever before."
 83: 0x08DA [0x23] WAIT_FOR_DIALOG_INTERACTION
 84: 0x08DB [0x52] END_LOAD_SCHEDULER: End scheduler "s082" with entities [LocalPlayer, LocalPlayer], work=326*
 85: 0x08EA [0x45] LOAD_SCHEDULED_TASK: Load scheduler "s081" with entities [LocalPlayer, LocalPlayer], work=[326*, 0*]
 86: 0x08FB [0x6E] Scarred Shark (ID: 17134047/0x010571DF) uses emote 21*
 87: 0x0902 [0x99] Wait for Scarred Shark (ID: 17134047/0x010571DF) animation to complete
 88: 0x0907 [0x99] Wait for Scarred Shark (ID: 17134047/0x010571DF) animation to complete
 89: 0x090C [0x1D] PRINT_EVENT_MESSAGE(message_id=12799*)
    → "B-but, how are we to fight an enemy that is impervious to bullets?"
 90: 0x090F [0x23] WAIT_FOR_DIALOG_INTERACTION
 91: 0x0910 [0x4A] Ghemp (ID: 17134048/0x010571E0) looks at Scarred Shark (ID: 17134047/0x010571DF)
 92: 0x0919 [0x6F] WAIT_FRAME_DELAY: Yield until WaitTime reaches zero
 93: 0x091A [0x76] CHECK_ENTITY_RENDER_FLAGS: Wait until Ghemp (ID: 17134048/0x010571E0) Render.Flags0 and Render.Flags3 conditions are met
 94: 0x091F [0x52] END_LOAD_SCHEDULER: End scheduler "s081" with entities [LocalPlayer, LocalPlayer], work=326*
 95: 0x092E [0x45] LOAD_SCHEDULED_TASK: Load scheduler "s080" with entities [LocalPlayer, LocalPlayer], work=[326*, 0*]
 96: 0x093F [0x6E] Ghemp (ID: 17134048/0x010571E0) uses emote 7*
 97: 0x0946 [0x99] Wait for Ghemp (ID: 17134048/0x010571E0) animation to complete
 98: 0x094B [0x99] Wait for Ghemp (ID: 17134048/0x010571E0) animation to complete
 99: 0x0950 [0x2B] Ghemp (ID: 17134048/0x010571E0) [12800*]:
    → "There's no reason for panic. After all, there's no such thing as impenetrable armor..."
100: 0x0957 [0x23] WAIT_FOR_DIALOG_INTERACTION
101: 0x0958 [0x4A] Ghemp (ID: 17134048/0x010571E0) looks at Wise Owl (ID: 17134049/0x010571E1)
102: 0x0961 [0x6F] WAIT_FRAME_DELAY: Yield until WaitTime reaches zero
103: 0x0962 [0x76] CHECK_ENTITY_RENDER_FLAGS: Wait until Ghemp (ID: 17134048/0x010571E0) Render.Flags0 and Render.Flags3 conditions are met
104: 0x0967 [0x2B] Ghemp (ID: 17134048/0x010571E0) [12801*]:
    → "At least not for our Garbenn! You've already thought up ways to make a gun shoot through the new Quadav armor, right?"
105: 0x096E [0x23] WAIT_FOR_DIALOG_INTERACTION
106: 0x096F [0x52] END_LOAD_SCHEDULER: End scheduler "s080" with entities [LocalPlayer, LocalPlayer], work=326*
107: 0x097E [0x45] LOAD_SCHEDULED_TASK: Load scheduler "s079" with entities [LocalPlayer, LocalPlayer], work=[326*, 0*]
108: 0x098F [0x6E] Wise Owl (ID: 17134049/0x010571E1) uses emote 7*
109: 0x0996 [0x99] Wait for Wise Owl (ID: 17134049/0x010571E1) animation to complete
110: 0x099B [0x99] Wait for Wise Owl (ID: 17134049/0x010571E1) animation to complete
111: 0x09A0 [0x2B] Wise Owl (ID: 17134049/0x010571E1) [12802*]:
    → "Yeah, it's possible to increase firepower by tweaking charge and bullet. After that, penetrating the turtle armor would be like poking a rapier into a yogurt cake. But..."
112: 0x09A7 [0x23] WAIT_FOR_DIALOG_INTERACTION
113: 0x09A8 [0x66] LOAD_EXT_SCHEDULER_MAIN: Load scheduler "twa0" with entities [Ghemp (ID: 17134048/0x010571E0), Ghemp (ID: 17134048/0x010571E0)], work=69*
114: 0x09B7 [0x2B] Ghemp (ID: 17134048/0x010571E0) [12803*]:
    → "But...what?"
115: 0x09BE [0x23] WAIT_FOR_DIALOG_INTERACTION
116: 0x09BF [0x66] LOAD_EXT_SCHEDULER_MAIN: Load scheduler "twa1" with entities [Ghemp (ID: 17134048/0x010571E0), Ghemp (ID: 17134048/0x010571E0)], work=69*
117: 0x09CE [0x6E] Wise Owl (ID: 17134049/0x010571E1) uses emote 36*
118: 0x09D5 [0x99] Wait for Wise Owl (ID: 17134049/0x010571E1) animation to complete
119: 0x09DA [0x99] Wait for Wise Owl (ID: 17134049/0x010571E1) animation to complete
120: 0x09DF [0x2B] Wise Owl (ID: 17134049/0x010571E1) [12804*]:
    → "I've been developing something else--a tempered steel axe that will slice right through entire ranks of Quadav! Well, that's exaggerating things a little..."
121: 0x09E6 [0x23] WAIT_FOR_DIALOG_INTERACTION
122: 0x09E7 [0x2B] Wise Owl (ID: 17134049/0x010571E1) [12805*]:
    → "A well-aimed blow with a heavy, well-weighted axe head should smash apart rivets that hold together plates of armor, turning it into a dismantled heap on the ground."
123: 0x09EE [0x23] WAIT_FOR_DIALOG_INTERACTION
124: 0x09EF [0x6E] Wise Owl (ID: 17134049/0x010571E1) uses emote 4*
125: 0x09F6 [0x99] Wait for Wise Owl (ID: 17134049/0x010571E1) animation to complete
126: 0x09FB [0x99] Wait for Wise Owl (ID: 17134049/0x010571E1) animation to complete
127: 0x0A00 [0x2B] Wise Owl (ID: 17134049/0x010571E1) [12806*]:
    → "Even if the armor holds, the sheer force of the blow will not leave the wearer unscathed."
128: 0x0A07 [0x23] WAIT_FOR_DIALOG_INTERACTION
129: 0x0A08 [0x66] LOAD_EXT_SCHEDULER_MAIN: Load scheduler "thk1" with entities [Ghemp (ID: 17134048/0x010571E0), Ghemp (ID: 17134048/0x010571E0)], work=69*
130: 0x0A17 [0x2B] Ghemp (ID: 17134048/0x010571E0) [12807*]:
    → "Hmmm... Galkan soldiers like ourselves can wield battle axes with ease, so the idea is not without merit. But, why axes and not guns?"
131: 0x0A1E [0x23] WAIT_FOR_DIALOG_INTERACTION
132: 0x0A1F [0x2B] Wise Owl (ID: 17134049/0x010571E1) [12808*]:
    → "You see..."
133: 0x0A26 [0x23] WAIT_FOR_DIALOG_INTERACTION
134: 0x0A27 [0x6E] Wise Owl (ID: 17134049/0x010571E1) uses emote 6*
135: 0x0A2E [0x99] Wait for Wise Owl (ID: 17134049/0x010571E1) animation to complete
136: 0x0A33 [0x99] Wait for Wise Owl (ID: 17134049/0x010571E1) animation to complete
137: 0x0A38 [0x2B] Wise Owl (ID: 17134049/0x010571E1) [12809*]:
    → "I detest projectile weapons."
138: 0x0A3F [0x23] WAIT_FOR_DIALOG_INTERACTION
139: 0x0A40 [0x66] LOAD_EXT_SCHEDULER_MAIN: Load scheduler "thk2" with entities [Ghemp (ID: 17134048/0x010571E0), Ghemp (ID: 17134048/0x010571E0)], work=69*
140: 0x0A4F [0x52] END_LOAD_SCHEDULER: End scheduler "s079" with entities [LocalPlayer, LocalPlayer], work=326*
141: 0x0A5E [0x45] LOAD_SCHEDULED_TASK: Load scheduler "s078" with entities [LocalPlayer, LocalPlayer], work=[326*, 0*]
142: 0x0A6F [0x6E] Scarred Shark (ID: 17134047/0x010571DF) uses emote 26*
143: 0x0A76 [0x99] Wait for Scarred Shark (ID: 17134047/0x010571DF) animation to complete
144: 0x0A7B [0x99] Wait for Scarred Shark (ID: 17134047/0x010571DF) animation to complete
145: 0x0A80 [0x1D] PRINT_EVENT_MESSAGE(message_id=12810*)
    → "Garbenn, this matter is too serious to make decisions based on personal preferences!"
146: 0x0A83 [0x23] WAIT_FOR_DIALOG_INTERACTION
147: 0x0A84 [0x79] LocalPlayer looks at Scarred Shark (ID: 17134047/0x010571DF) (Basic look)
148: 0x0A8E [0x1C] WAIT(60* ticks)
149: 0x0A91 [0x52] END_LOAD_SCHEDULER: End scheduler "s078" with entities [LocalPlayer, LocalPlayer], work=326*
150: 0x0AA0 [0x45] LOAD_SCHEDULED_TASK: Load scheduler "s077" with entities [LocalPlayer, LocalPlayer], work=[326*, 0*]
151: 0x0AB1 [0x2B] Ghemp (ID: 17134048/0x010571E0) [12811*]:
    → "No... There is sense in what Garbenn is saying."
152: 0x0AB8 [0x23] WAIT_FOR_DIALOG_INTERACTION
153: 0x0AB9 [0x66] LOAD_EXT_SCHEDULER_MAIN: Load scheduler "thk1" with entities [Ghemp (ID: 17134048/0x010571E0), Ghemp (ID: 17134048/0x010571E0)], work=69*
154: 0x0AC8 [0x79] Wise Owl (ID: 17134049/0x010571E1) looks at Ghemp (ID: 17134048/0x010571E0) (Basic look)
155: 0x0AD2 [0x2B] Ghemp (ID: 17134048/0x010571E0) [12812*]:
    → "Only a handful of Quadav will have the strength to don such heavy armor. In that case, if we let the strongest in their ranks weigh themselves down..."
156: 0x0AD9 [0x23] WAIT_FOR_DIALOG_INTERACTION
157: 0x0ADA [0x66] LOAD_EXT_SCHEDULER_MAIN: Load scheduler "thk2" with entities [Ghemp (ID: 17134048/0x010571E0), Ghemp (ID: 17134048/0x010571E0)], work=69*
158: 0x0AE9 [0x1C] WAIT(60* ticks)
159: 0x0AEC [0x6E] Wise Owl (ID: 17134049/0x010571E1) uses emote 25*
160: 0x0AF3 [0x99] Wait for Wise Owl (ID: 17134049/0x010571E1) animation to complete
161: 0x0AF8 [0x99] Wait for Wise Owl (ID: 17134049/0x010571E1) animation to complete
162: 0x0AFD [0x2B] Wise Owl (ID: 17134049/0x010571E1) [12813*]:
    → "And mobilize a Galkan strike team armed with enhanced battle axes to eliminate them as soon as they are sighted... Problem solved!"
163: 0x0B04 [0x23] WAIT_FOR_DIALOG_INTERACTION
164: 0x0B05 [0x52] END_LOAD_SCHEDULER: End scheduler "s077" with entities [LocalPlayer, LocalPlayer], work=326*
165: 0x0B14 [0x45] LOAD_SCHEDULED_TASK: Load scheduler "s076" with entities [LocalPlayer, LocalPlayer], work=[326*, 0*]
166: 0x0B25 [0x4A] Scarred Shark (ID: 17134047/0x010571DF) looks at Wise Owl (ID: 17134049/0x010571E1)
167: 0x0B2E [0x6F] WAIT_FRAME_DELAY: Yield until WaitTime reaches zero
168: 0x0B2F [0x76] CHECK_ENTITY_RENDER_FLAGS: Wait until Scarred Shark (ID: 17134047/0x010571DF) Render.Flags0 and Render.Flags3 conditions are met
169: 0x0B34 [0x6E] Scarred Shark (ID: 17134047/0x010571DF) uses emote 26*
170: 0x0B3B [0x99] Wait for Scarred Shark (ID: 17134047/0x010571DF) animation to complete
171: 0x0B40 [0x99] Wait for Scarred Shark (ID: 17134047/0x010571DF) animation to complete
172: 0x0B45 [0x1D] PRINT_EVENT_MESSAGE(message_id=12814*)
    → "Who would have thought..."
173: 0x0B48 [0x23] WAIT_FOR_DIALOG_INTERACTION
174: 0x0B49 [0x52] END_LOAD_SCHEDULER: End scheduler "s076" with entities [LocalPlayer, LocalPlayer], work=326*
175: 0x0B58 [0x45] LOAD_SCHEDULED_TASK: Load scheduler "s075" with entities [LocalPlayer, LocalPlayer], work=[326*, 0*]
176: 0x0B69 [0x6E] Wise Owl (ID: 17134049/0x010571E1) uses emote 26*
177: 0x0B70 [0x99] Wait for Wise Owl (ID: 17134049/0x010571E1) animation to complete
178: 0x0B75 [0x99] Wait for Wise Owl (ID: 17134049/0x010571E1) animation to complete
179: 0x0B7A [0x2B] Ghemp (ID: 17134048/0x010571E0) [12815*]:
    → "Then it's decided! Garbenn, you continue developing those tempered steel battle axes, and I'll start working on a lightweight bulletproof armor that'll surpass anything those turtles have."
180: 0x0B81 [0x23] WAIT_FOR_DIALOG_INTERACTION
181: 0x0B82 [0x2B] Wise Owl (ID: 17134049/0x010571E1) [12816*]:
    → "Leave it to me, Ghemp. Just don't be too shocked when my axe pulverizes your armor like a chunk of rock salt!"
182: 0x0B89 [0x23] WAIT_FOR_DIALOG_INTERACTION
183: 0x0B8A [0x2B] Ghemp (ID: 17134048/0x010571E0) [12817*]:
    → "Haaa! We'll see who has the last laugh. My armor will stand up to all your pickaxes."
184: 0x0B91 [0x23] WAIT_FOR_DIALOG_INTERACTION
185: 0x0B92 [0x2B] Wise Owl (ID: 17134049/0x010571E1) [12818*]:
    → "Oooh, I bet you're planning to use that "revolutionary" shock-absorbing material of yours. A refresher course in introductory physics should be your first priority, my misguided friend!"
186: 0x0B99 [0x23] WAIT_FOR_DIALOG_INTERACTION
187: 0x0B9A [0x1D] PRINT_EVENT_MESSAGE(message_id=12819*)
    → "..."
188: 0x0B9D [0x23] WAIT_FOR_DIALOG_INTERACTION
189: 0x0B9E [0x1A] CALL_SUBROUTINE(address=0x0CB7)
190: 0x0BA1 [0x1C] WAIT(30* ticks)
191: 0x0BA4 [0x52] END_LOAD_SCHEDULER: End scheduler "s075" with entities [LocalPlayer, LocalPlayer], work=326*
192: 0x0BB3 [0x4E] SET_ENTITY_HIDE_FLAG: Hide Ghemp (ID: 17134048/0x010571E0)
193: 0x0BB9 [0x4E] SET_ENTITY_HIDE_FLAG: Hide Wise Owl (ID: 17134049/0x010571E1)
194: 0x0BBF [0x4A] LocalPlayer looks at Scarred Shark (ID: 17134047/0x010571DF)
195: 0x0BC8 [0x6F] WAIT_FRAME_DELAY: Yield until WaitTime reaches zero
196: 0x0BC9 [0x76] CHECK_ENTITY_RENDER_FLAGS: Wait until LocalPlayer Render.Flags0 and Render.Flags3 conditions are met
197: 0x0BCE [0x1C] WAIT(30* ticks)
198: 0x0BD1 [0x45] LOAD_SCHEDULED_TASK: Load scheduler "s074" with entities [LocalPlayer, LocalPlayer], work=[326*, 0*]
199: 0x0BE2 [0x32] ExtData[1]->MainSpeed = 13* * 0.1
200: 0x0BE5 [0x1F] MOVE_ENTITY: EventEntity moves to X=-233.989*, Z=67.638*, Y=-2.000*
201: 0x0BED [0x1F] MOVE_ENTITY: Update entity position (mode=1)
202: 0x0BEF [0x1A] CALL_SUBROUTINE(address=0x0D0B)
203: 0x0BF2 [0x4A] Scarred Shark (ID: 17134047/0x010571DF) looks at LocalPlayer
204: 0x0BFB [0x6F] WAIT_FRAME_DELAY: Yield until WaitTime reaches zero
205: 0x0BFC [0x76] CHECK_ENTITY_RENDER_FLAGS: Wait until Scarred Shark (ID: 17134047/0x010571DF) Render.Flags0 and Render.Flags3 conditions are met
206: 0x0C01 [0x1D] PRINT_EVENT_MESSAGE(message_id=12820*)
    → "Those two are always carrying on like that."
207: 0x0C04 [0x23] WAIT_FOR_DIALOG_INTERACTION
208: 0x0C05 [0x52] END_LOAD_SCHEDULER: End scheduler "s074" with entities [LocalPlayer, LocalPlayer], work=326*
209: 0x0C14 [0x45] LOAD_SCHEDULED_TASK: Load scheduler "s073" with entities [LocalPlayer, LocalPlayer], work=[326*, 0*]
210: 0x0C25 [0x66] LOAD_EXT_SCHEDULER_MAIN: Load scheduler "twa0" with entities [Scarred Shark (ID: 17134047/0x010571DF), Scarred Shark (ID: 17134047/0x010571DF)], work=69*
211: 0x0C34 [0x1D] PRINT_EVENT_MESSAGE(message_id=12821*)
    → "But I know that beneath their cheerful exterior, they are dead serious about smithing."
212: 0x0C37 [0x23] WAIT_FOR_DIALOG_INTERACTION
213: 0x0C38 [0x1D] PRINT_EVENT_MESSAGE(message_id=12822*)
    → "Ghemp and Garbenn chose to become smiths because they couldn't bear to see their mercenary friends fall in battle for want of decent armor."
214: 0x0C3B [0x23] WAIT_FOR_DIALOG_INTERACTION
215: 0x0C3C [0x66] LOAD_EXT_SCHEDULER_MAIN: Load scheduler "twa0" with entities [Scarred Shark (ID: 17134047/0x010571DF), Scarred Shark (ID: 17134047/0x010571DF)], work=69*
216: 0x0C4B [0x1D] PRINT_EVENT_MESSAGE(message_id=12823*)
    → "Armor made by soldiers for soldiers--that's the way it should be. I wonder if they'd be willing to take me on as an apprentice..."
217: 0x0C4E [0x23] WAIT_FOR_DIALOG_INTERACTION
218: 0x0C4F [0x1A] CALL_SUBROUTINE(address=0x0CB7)
219: 0x0C52 [0x1C] WAIT(30* ticks)
220: 0x0C55 [0x45] LOAD_SCHEDULED_TASK: Load scheduler "qstc" with entities [EventEntity, EventEntity], work=[201*, 0*]
221: 0x0C66 [0x52] END_LOAD_SCHEDULER: End scheduler "s073" with entities [LocalPlayer, LocalPlayer], work=326*
222: 0x0C75 [0x46] CAMERA_CONTROL: Restore default settings
223: 0x0C77 [0x1A] CALL_SUBROUTINE(address=0x0D0B)
224: 0x0C7A [0x21] END_EVENT
225: 0x0C7B [0x00] END_REQSTACK()
```

### Event 45

#### Metadata

| Field        | Value     |
|--------------|-----------|
| Entrypoint   | 0x0C7C    |
| Data Size    | 179 bytes |
| Instructions | 12        |

```
      00 01 02 03 04 05 06 07  08 09 0A 0B 0C 0D 0E 0F
      -- -- -- -- -- -- -- --  -- -- -- -- -- -- -- --
0C70:                                      1E F0 FF FF              ....
0C80: 7F 1C 00 80 1D 01 80 23  1D 03 80 23 1D 7E 80 23  .......#...#.~.#
0C90: 1D 7F 80 23 21 00 45 16  80 F8 FF FF 7F F8 FF FF  ...#!.E.........
0CA0: 7F 66 64 6F 30 12 80 55  16 80 F8 FF FF 7F F8 FF  .fdo0..U........
0CB0: FF 7F 66 64 6F 30 1B 45  16 80 F8 FF FF 7F F8 FF  ..fdo0.E........
0CC0: FF 7F 66 64 6F 31 12 80  55 16 80 F8 FF FF 7F F8  ..fdo1..U.......
0CD0: FF FF 7F 66 64 6F 31 1B  45 16 80 F8 FF FF 7F F8  ...fdo1.E.......
0CE0: FF FF 7F 66 64 6F 32 12  80 55 16 80 F8 FF FF 7F  ...fdo2..U......
0CF0: F8 FF FF 7F 66 64 6F 32  1B 45 16 80 F8 FF FF 7F  ....fdo2.E......
0D00: F8 FF FF 7F 66 64 69 30  12 80 1B 45 16 80 F8 FF  ....fdi0...E....
0D10: FF 7F F8 FF FF 7F 66 64  69 31 12 80 1B 45 16 80  ......fdi1...E..
0D20: F8 FF FF 7F F8 FF FF 7F  66 64 69 32 12 80 1B     ........fdi2... 
```

#### Opcodes

```
  0: 0x0C7C [0x1E] EventEntity looks at LocalPlayer and starts talking
  1: 0x0C81 [0x1C] WAIT(30* ticks)
  2: 0x0C84 [0x1D] PRINT_EVENT_MESSAGE(message_id=12342*)
    → "Do you know what a Sahagin is?"
  3: 0x0C87 [0x23] WAIT_FOR_DIALOG_INTERACTION
  4: 0x0C88 [0x1D] PRINT_EVENT_MESSAGE(message_id=12343*)
    → "You know, those fish-like beastmen. Their demolition tactics have reduced Port Bastok to a shadow of its former glory. The Third Division of the Republican Legion is working tirelessly to rebuild it."
  5: 0x0C8B [0x23] WAIT_FOR_DIALOG_INTERACTION
  6: 0x0C8C [0x1D] PRINT_EVENT_MESSAGE(message_id=12824*)
    → "I came here because I wanted to help in some way."
  7: 0x0C8F [0x23] WAIT_FOR_DIALOG_INTERACTION
  8: 0x0C90 [0x1D] PRINT_EVENT_MESSAGE(message_id=12825*)
    → "I'm not in it for the gil, if that's what you're thinking. I want to become someone who is dependable and respected...like Ghemp and Garbenn."
  9: 0x0C93 [0x23] WAIT_FOR_DIALOG_INTERACTION
 10: 0x0C94 [0x21] END_EVENT
 11: 0x0C95 [0x00] END_REQSTACK()
```

#### Data or dead code:

```
# Dead code (unreachable instructions):
     0x0C96 [0x45] LOAD_SCHEDULED_TASK: Load scheduler "fdo0" with entities [EventEntity, EventEntity], work=[200*, 0*]
     0x0CA7 [0x55] WAIT_LOAD_SCHEDULER: Wait for scheduler "fdo0" with entities [EventEntity, EventEntity], work=200*
     0x0CB6 [0x1B] RETURN
     0x0CB7 [0x45] LOAD_SCHEDULED_TASK: Load scheduler "fdo1" with entities [EventEntity, EventEntity], work=[200*, 0*]
     0x0CC8 [0x55] WAIT_LOAD_SCHEDULER: Wait for scheduler "fdo1" with entities [EventEntity, EventEntity], work=200*
     0x0CD7 [0x1B] RETURN
     0x0CD8 [0x45] LOAD_SCHEDULED_TASK: Load scheduler "fdo2" with entities [EventEntity, EventEntity], work=[200*, 0*]
     0x0CE9 [0x55] WAIT_LOAD_SCHEDULER: Wait for scheduler "fdo2" with entities [EventEntity, EventEntity], work=200*
     0x0CF8 [0x1B] RETURN
     0x0CF9 [0x45] LOAD_SCHEDULED_TASK: Load scheduler "fdi0" with entities [EventEntity, EventEntity], work=[200*, 0*]
     0x0D0A [0x1B] RETURN
     0x0D0B [0x45] LOAD_SCHEDULED_TASK: Load scheduler "fdi1" with entities [EventEntity, EventEntity], work=[200*, 0*]
     0x0D1C [0x1B] RETURN
     0x0D1D [0x45] LOAD_SCHEDULED_TASK: Load scheduler "fdi2" with entities [EventEntity, EventEntity], work=[200*, 0*]
     0x0D2E [0x1B] RETURN
```
