# 17134243 - Radford

## Common Data

| Field            | Value                       |
|------------------|-----------------------------|
| Zone             | Bastok Markets [S] (ID: 87) |
| Block Size       | 412 bytes                   |
| Total Events     | 12                          |
| References Count | 24                          |

## List of Events

| Event ID                 | Entrypoint   |   Size |   Instructions |
|--------------------------|--------------|--------|----------------|
| [65535](#event-65535)    | 0x0000       |      1 |              1 |
| [175](#event-175)        | 0x0001       |      1 |              1 |
| [176](#event-176)        | 0x0002       |      1 |              1 |
| [174](#event-174)        | 0x0003       |     18 |              6 |
| [177](#event-177)        | 0x0015       |     26 |              8 |
| [178](#event-178)        | 0x002F       |     18 |              6 |
| [65535.1](#event-655351) | 0x0041       |     19 |              4 |
| [65535.2](#event-655352) | 0x0054       |     42 |              9 |
| [65535.3](#event-655353) | 0x007E       |     44 |              8 |
| [65535.4](#event-655354) | 0x00AA       |     26 |              5 |
| [65535.5](#event-655355) | 0x00C4       |     34 |              7 |
| [65535.6](#event-655356) | 0x00E6       |     19 |              4 |

## DAT References (imed_data)

|   Index | Hex Value   |   Dec Value |
|---------|-------------|-------------|
|       0 | 0x001E      |          30 |
|       1 | 0x3535      |       13621 |
|       2 | 0x3536      |       13622 |
|       3 | 0x3537      |       13623 |
|       4 | 0x3538      |       13624 |
|       5 | 0x000D      |          13 |
|       6 | 0xFFFCED1E  |  4294765854 |
|       7 | 0x55D5      |       21973 |
|       8 | 0xFFFFDBE0  |  4294958048 |
|       9 | 0x15A8A     |       88714 |
|      10 | 0xFFFFFEEE  |  4294967022 |
|      11 | 0xFFFFB3B4  |  4294947764 |
|      12 | 0x17114     |       94484 |
|      13 | 0x002A      |          42 |
|      14 | 0xFFFFB138  |  4294947128 |
|      15 | 0x0000      |           0 |
|      16 | 0x18061     |       98401 |
|      17 | 0xFFFFB136  |  4294947126 |
|      18 | 0x0D3A      |        3386 |
|      19 | 0x03EF      |        1007 |
|      20 | 0x0098      |         152 |
|      21 | 0xFFFCF450  |  4294767696 |
|      22 | 0x4B59      |       19289 |
|      23 | 0xFFFFD8F1  |  4294957297 |

## Events

### Event 65535

#### Metadata

| Field        | Value   |
|--------------|---------|
| Entrypoint   | 0x0000  |
| Data Size    | 1 bytes |
| Instructions | 1       |

```
      00 01 02 03 04 05 06 07  08 09 0A 0B 0C 0D 0E 0F
      -- -- -- -- -- -- -- --  -- -- -- -- -- -- -- --
0000: 00                                                .               
```

#### Opcodes

```
  0: 0x0000 [0x00] END_REQSTACK()
```

### Event 175

#### Metadata

| Field        | Value   |
|--------------|---------|
| Entrypoint   | 0x0001  |
| Data Size    | 1 bytes |
| Instructions | 1       |

```
      00 01 02 03 04 05 06 07  08 09 0A 0B 0C 0D 0E 0F
      -- -- -- -- -- -- -- --  -- -- -- -- -- -- -- --
0000:    00                                              .              
```

#### Opcodes

```
  0: 0x0001 [0x00] END_REQSTACK()
```

### Event 176

#### Metadata

| Field        | Value   |
|--------------|---------|
| Entrypoint   | 0x0002  |
| Data Size    | 1 bytes |
| Instructions | 1       |

```
      00 01 02 03 04 05 06 07  08 09 0A 0B 0C 0D 0E 0F
      -- -- -- -- -- -- -- --  -- -- -- -- -- -- -- --
0000:       00                                            .             
```

#### Opcodes

```
  0: 0x0002 [0x00] END_REQSTACK()
```

### Event 174

#### Metadata

| Field        | Value    |
|--------------|----------|
| Entrypoint   | 0x0003   |
| Data Size    | 18 bytes |
| Instructions | 6        |

```
      00 01 02 03 04 05 06 07  08 09 0A 0B 0C 0D 0E 0F
      -- -- -- -- -- -- -- --  -- -- -- -- -- -- -- --
0000:          1E F0 FF FF 7F  1C 00 80 2B F8 FF FF 7F     ........+....
0010: 01 80 23 21 00                                    ..#!.           
```

#### Opcodes

```
  0: 0x0003 [0x1E] EventEntity looks at LocalPlayer and starts talking
  1: 0x0008 [0x1C] WAIT(30* ticks)
  2: 0x000B [0x2B] EventEntity [13621*]:
    → "What is it? I'm buried up to my ears in duties right now. It'll have to wait."
  3: 0x0012 [0x23] WAIT_FOR_DIALOG_INTERACTION
  4: 0x0013 [0x21] END_EVENT
  5: 0x0014 [0x00] END_REQSTACK()
```

### Event 177

#### Metadata

| Field        | Value    |
|--------------|----------|
| Entrypoint   | 0x0015   |
| Data Size    | 26 bytes |
| Instructions | 8        |

```
      00 01 02 03 04 05 06 07  08 09 0A 0B 0C 0D 0E 0F
      -- -- -- -- -- -- -- --  -- -- -- -- -- -- -- --
0010:                1E F0 FF  FF 7F 1C 00 80 2B F8 FF       ........+..
0020: FF 7F 02 80 23 2B F8 FF  FF 7F 03 80 23 21 00     ....#+......#!. 
```

#### Opcodes

```
  0: 0x0015 [0x1E] EventEntity looks at LocalPlayer and starts talking
  1: 0x001A [0x1C] WAIT(30* ticks)
  2: 0x001D [0x2B] EventEntity [13622*]:
    → "During wartime, nations tend to become fixated only on the happenings within their borders, blinding themselves to the bigger picture. We hope your mission to recruit Windurst's aid will be fruitful."
  3: 0x0024 [0x23] WAIT_FOR_DIALOG_INTERACTION
  4: 0x0025 [0x2B] EventEntity [13623*]:
    → "We wish the Seventh Cohors every success on their mission. Perhaps we should strap some explosives onto Zazarg, as a precautionary measure."
  5: 0x002C [0x23] WAIT_FOR_DIALOG_INTERACTION
  6: 0x002D [0x21] END_EVENT
  7: 0x002E [0x00] END_REQSTACK()
```

### Event 178

#### Metadata

| Field        | Value    |
|--------------|----------|
| Entrypoint   | 0x002F   |
| Data Size    | 18 bytes |
| Instructions | 6        |

```
      00 01 02 03 04 05 06 07  08 09 0A 0B 0C 0D 0E 0F
      -- -- -- -- -- -- -- --  -- -- -- -- -- -- -- --
0020:                                               1E                 .
0030: F0 FF FF 7F 1C 00 80 2B  F8 FF FF 7F 04 80 23 21  .......+......#!
0040: 00                                                .               
```

#### Opcodes

```
  0: 0x002F [0x1E] EventEntity looks at LocalPlayer and starts talking
  1: 0x0034 [0x1C] WAIT(30* ticks)
  2: 0x0037 [0x2B] EventEntity [13624*]:
    → "With supplies running dangerously low and fewer and fewer soldiers returning from the battlefield each day, the situation is indeed grim. It would seem that shortages are the only things we have in abundance..."
  3: 0x003E [0x23] WAIT_FOR_DIALOG_INTERACTION
  4: 0x003F [0x21] END_EVENT
  5: 0x0040 [0x00] END_REQSTACK()
```

### Event 65535.1

#### Metadata

| Field        | Value    |
|--------------|----------|
| Entrypoint   | 0x0041   |
| Data Size    | 19 bytes |
| Instructions | 4        |

```
      00 01 02 03 04 05 06 07  08 09 0A 0B 0C 0D 0E 0F
      -- -- -- -- -- -- -- --  -- -- -- -- -- -- -- --
0040:    59 04 A3 72 05 01 05  80 1F 00 06 80 07 80 08   Y..r...........
0050: 80 1F 01 00                                       ....            
```

#### Opcodes

```
  0: 0x0041 [0x59] UPDATE_ENTITY_DATA: Set Radford (ID: 17134243/0x010572A3) main speed = 13* * 0.1
  1: 0x0049 [0x1F] MOVE_ENTITY: EventEntity moves to X=-201.442*, Z=21.973*, Y=-9.248*
  2: 0x0051 [0x1F] MOVE_ENTITY: Update entity position (mode=1)
  3: 0x0053 [0x00] END_REQSTACK()
```

### Event 65535.2

#### Metadata

| Field        | Value    |
|--------------|----------|
| Entrypoint   | 0x0054   |
| Data Size    | 42 bytes |
| Instructions | 9        |

```
      00 01 02 03 04 05 06 07  08 09 0A 0B 0C 0D 0E 0F
      -- -- -- -- -- -- -- --  -- -- -- -- -- -- -- --
0050:             59 04 A3 72  05 01 05 80 1F 00 09 80      Y..r........
0060: 0A 80 0B 80 1F 01 1F 00  0C 80 0D 80 0E 80 1F 01  ................
0070: 4B A3 72 05 01 0F 80 6F  76 A3 72 05 01 00        K.r....ov.r...  
```

#### Opcodes

```
  0: 0x0054 [0x59] UPDATE_ENTITY_DATA: Set Radford (ID: 17134243/0x010572A3) main speed = 13* * 0.1
  1: 0x005C [0x1F] MOVE_ENTITY: EventEntity moves to X=88.714*, Z=-0.274*, Y=-19.532*
  2: 0x0064 [0x1F] MOVE_ENTITY: Update entity position (mode=1)
  3: 0x0066 [0x1F] MOVE_ENTITY: EventEntity moves to X=94.484*, Z=0.042*, Y=-20.168*
  4: 0x006E [0x1F] MOVE_ENTITY: Update entity position (mode=1)
  5: 0x0070 [0x4B] UPDATE_ENTITY_YAW(entity=Radford (ID: 17134243/0x010572A3), yaw=0.0°*)
  6: 0x0077 [0x6F] WAIT_FRAME_DELAY: Yield until WaitTime reaches zero
  7: 0x0078 [0x76] CHECK_ENTITY_RENDER_FLAGS: Wait until Radford (ID: 17134243/0x010572A3) Render.Flags0 and Render.Flags3 conditions are met
  8: 0x007D [0x00] END_REQSTACK()
```

### Event 65535.3

#### Metadata

| Field        | Value    |
|--------------|----------|
| Entrypoint   | 0x007E   |
| Data Size    | 44 bytes |
| Instructions | 8        |

```
      00 01 02 03 04 05 06 07  08 09 0A 0B 0C 0D 0E 0F
      -- -- -- -- -- -- -- --  -- -- -- -- -- -- -- --
0070:                                            59 04                Y.
0080: A3 72 05 01 05 80 1F 00  10 80 0F 80 11 80 1F 01  .r..............
0090: 4A A3 72 05 01 F1 71 05  01 79 00 A3 72 05 01 F1  J.r...q..y..r...
00A0: 71 05 01 6F 76 A3 72 05  01 00                    q..ov.r...      
```

#### Opcodes

```
  0: 0x007E [0x59] UPDATE_ENTITY_DATA: Set Radford (ID: 17134243/0x010572A3) main speed = 13* * 0.1
  1: 0x0086 [0x1F] MOVE_ENTITY: EventEntity moves to X=98.401*, Z=0.000*, Y=-20.170*
  2: 0x008E [0x1F] MOVE_ENTITY: Update entity position (mode=1)
  3: 0x0090 [0x4A] Radford (ID: 17134243/0x010572A3) looks at Prien (ID: 17134065/0x010571F1)
  4: 0x0099 [0x79] Radford (ID: 17134243/0x010572A3) looks at Prien (ID: 17134065/0x010571F1) (Basic look)
  5: 0x00A3 [0x6F] WAIT_FRAME_DELAY: Yield until WaitTime reaches zero
  6: 0x00A4 [0x76] CHECK_ENTITY_RENDER_FLAGS: Wait until Radford (ID: 17134243/0x010572A3) Render.Flags0 and Render.Flags3 conditions are met
  7: 0x00A9 [0x00] END_REQSTACK()
```

### Event 65535.4

#### Metadata

| Field        | Value    |
|--------------|----------|
| Entrypoint   | 0x00AA   |
| Data Size    | 26 bytes |
| Instructions | 5        |

```
      00 01 02 03 04 05 06 07  08 09 0A 0B 0C 0D 0E 0F
      -- -- -- -- -- -- -- --  -- -- -- -- -- -- -- --
00A0:                                59 04 A3 72 05 01            Y..r..
00B0: 05 80 1F 00 10 80 12 80  11 80 1F 01 4B A3 72 05  ............K.r.
00C0: 01 13 80 00                                       ....            
```

#### Opcodes

```
  0: 0x00AA [0x59] UPDATE_ENTITY_DATA: Set Radford (ID: 17134243/0x010572A3) main speed = 13* * 0.1
  1: 0x00B2 [0x1F] MOVE_ENTITY: EventEntity moves to X=98.401*, Z=3.386*, Y=-20.170*
  2: 0x00BA [0x1F] MOVE_ENTITY: Update entity position (mode=1)
  3: 0x00BC [0x4B] UPDATE_ENTITY_YAW(entity=Radford (ID: 17134243/0x010572A3), yaw=5.5°*)
  4: 0x00C3 [0x00] END_REQSTACK()
```

### Event 65535.5

#### Metadata

| Field        | Value    |
|--------------|----------|
| Entrypoint   | 0x00C4   |
| Data Size    | 34 bytes |
| Instructions | 7        |

```
      00 01 02 03 04 05 06 07  08 09 0A 0B 0C 0D 0E 0F
      -- -- -- -- -- -- -- --  -- -- -- -- -- -- -- --
00C0:             7B A3 72 05  01 59 04 A3 72 05 01 05      {.r..Y..r...
00D0: 80 1F 00 10 80 14 80 11  80 1F 01 1F 00 0C 80 0D  ................
00E0: 80 0E 80 1F 01 00                                 ......          
```

#### Opcodes

```
  0: 0x00C4 [0x7B] Radford (ID: 17134243/0x010572A3) stops talking
  1: 0x00C9 [0x59] UPDATE_ENTITY_DATA: Set Radford (ID: 17134243/0x010572A3) main speed = 13* * 0.1
  2: 0x00D1 [0x1F] MOVE_ENTITY: EventEntity moves to X=98.401*, Z=0.152*, Y=-20.170*
  3: 0x00D9 [0x1F] MOVE_ENTITY: Update entity position (mode=1)
  4: 0x00DB [0x1F] MOVE_ENTITY: EventEntity moves to X=94.484*, Z=0.042*, Y=-20.168*
  5: 0x00E3 [0x1F] MOVE_ENTITY: Update entity position (mode=1)
  6: 0x00E5 [0x00] END_REQSTACK()
```

### Event 65535.6

#### Metadata

| Field        | Value    |
|--------------|----------|
| Entrypoint   | 0x00E6   |
| Data Size    | 19 bytes |
| Instructions | 4        |

```
      00 01 02 03 04 05 06 07  08 09 0A 0B 0C 0D 0E 0F
      -- -- -- -- -- -- -- --  -- -- -- -- -- -- -- --
00E0:                   59 04  A3 72 05 01 05 80 1F 00        Y..r......
00F0: 15 80 16 80 17 80 1F 01  00                       .........       
```

#### Opcodes

```
  0: 0x00E6 [0x59] UPDATE_ENTITY_DATA: Set Radford (ID: 17134243/0x010572A3) main speed = 13* * 0.1
  1: 0x00EE [0x1F] MOVE_ENTITY: EventEntity moves to X=-199.600*, Z=19.289*, Y=-9.999*
  2: 0x00F6 [0x1F] MOVE_ENTITY: Update entity position (mode=1)
  3: 0x00F8 [0x00] END_REQSTACK()
```
