# 17134244

## Common Data

| Field            | Value                       |
|------------------|-----------------------------|
| Zone             | Bastok Markets [S] (ID: 87) |
| Block Size       | 15424 bytes                 |
| Total Events     | 6                           |
| References Count | 266                         |

## List of Events

| Event ID              | Entrypoint   |   Size |   Instructions |
|-----------------------|--------------|--------|----------------|
| [65535](#event-65535) | 0x0000       |      1 |              1 |
| [175](#event-175)     | 0x0001       |   5288 |            647 |
| [176](#event-176)     | 0x14A9       |   1962 |            245 |
| [358](#event-358)     | 0x1C53       |   1732 |            187 |
| [359](#event-359)     | 0x2317       |   2095 |            242 |
| [360](#event-360)     | 0x2B46       |   3239 |            337 |

## DAT References (imed_data)

|   Index | Hex Value   |   Dec Value |
|---------|-------------|-------------|
|       0 | 0x0013      |          19 |
|       1 | 0xFFFCBA88  |  4294752904 |
|       2 | 0x70B4      |       28852 |
|       3 | 0xFFFFE0C1  |  4294959297 |
|       4 | 0x004B      |          75 |
|       5 | 0xFFFCB7B0  |  4294752176 |
|       6 | 0x7BCE      |       31694 |
|       7 | 0x00A7      |         167 |
|       8 | 0xFFFCC3C5  |  4294755269 |
|       9 | 0x76BD      |       30397 |
|      10 | 0x00C1      |         193 |
|      11 | 0xFFFCDE09  |  4294761993 |
|      12 | 0x68FA      |       26874 |
|      13 | 0xFFFFE0C0  |  4294959296 |
|      14 | 0x0AE8      |        2792 |
|      15 | 0xFFFCD681  |  4294760065 |
|      16 | 0x6F80      |       28544 |
|      17 | 0x001E      |          30 |
|      18 | 0x01B8      |         440 |
|      19 | 0x0000      |           0 |
|      20 | 0x0050      |          80 |
|      21 | 0x000A      |          10 |
|      22 | 0x000F      |          15 |
|      23 | 0x0002      |           2 |
|      24 | 0x3508      |       13576 |
|      25 | 0x3509      |       13577 |
|      26 | 0x001D      |          29 |
|      27 | 0x350A      |       13578 |
|      28 | 0x350B      |       13579 |
|      29 | 0x02A2      |         674 |
|      30 | 0x003C      |          60 |
|      31 | 0x00ED      |         237 |
|      32 | 0x00FF      |         255 |
|      33 | 0x0001      |           1 |
|      34 | 0x012F      |         303 |
|      35 | 0x110BD     |       69821 |
|      36 | 0xFFFFFCEB  |  4294966507 |
|      37 | 0xFFFFC39F  |  4294951839 |
|      38 | 0x114B7     |       70839 |
|      39 | 0x03C8      |         968 |
|      40 | 0xFFFFC107  |  4294951175 |
|      41 | 0x11AA1     |       72353 |
|      42 | 0xFFFFFF36  |  4294967094 |
|      43 | 0xFFFFBD33  |  4294950195 |
|      44 | 0x12746     |       75590 |
|      45 | 0xFFFFFF78  |  4294967160 |
|      46 | 0xFFFFB9B4  |  4294949300 |
|      47 | 0x1A167     |      106855 |
|      48 | 0xFFFFB0D7  |  4294947031 |
|      49 | 0x07D0      |        2000 |
|      50 | 0x1AC4B     |      109643 |
|      51 | 0x06AA      |        1706 |
|      52 | 0xFFFFB0BE  |  4294947006 |
|      53 | 0x0BA2      |        2978 |
|      54 | 0xFFFFB136  |  4294947126 |
|      55 | 0xFFFFF817  |  4294965271 |
|      56 | 0xFFFFF1F0  |  4294963696 |
|      57 | 0x1257      |        4695 |
|      58 | 0x18FBD     |      102333 |
|      59 | 0x3264      |       12900 |
|      60 | 0x00C8      |         200 |
|      61 | 0x013B      |         315 |
|      62 | 0x0028      |          40 |
|      63 | 0x15C55     |       89173 |
|      64 | 0xFFFFFC89  |  4294966409 |
|      65 | 0xFFFFB3B4  |  4294947764 |
|      66 | 0x15F1F     |       89887 |
|      67 | 0x046D      |        1133 |
|      68 | 0x166E0     |       91872 |
|      69 | 0x0033      |          51 |
|      70 | 0x17114     |       94484 |
|      71 | 0x002A      |          42 |
|      72 | 0xFFFFB138  |  4294947128 |
|      73 | 0x0032      |          50 |
|      74 | 0x0007      |           7 |
|      75 | 0x0082      |         130 |
|      76 | 0x350C      |       13580 |
|      77 | 0x350D      |       13581 |
|      78 | 0x350E      |       13582 |
|      79 | 0x00A0      |         160 |
|      80 | 0x00BE      |         190 |
|      81 | 0x350F      |       13583 |
|      82 | 0x0009      |           9 |
|      83 | 0x3510      |       13584 |
|      84 | 0x3511      |       13585 |
|      85 | 0x3512      |       13586 |
|      86 | 0x3513      |       13587 |
|      87 | 0x3514      |       13588 |
|      88 | 0x3515      |       13589 |
|      89 | 0x3516      |       13590 |
|      90 | 0x0857      |        2135 |
|      91 | 0x0859      |        2137 |
|      92 | 0x3517      |       13591 |
|      93 | 0x0045      |          69 |
|      94 | 0x3518      |       13592 |
|      95 | 0x3519      |       13593 |
|      96 | 0x351A      |       13594 |
|      97 | 0x00FA      |         250 |
|      98 | 0x1549F     |       87199 |
|      99 | 0x00D2      |         210 |
|     100 | 0x351B      |       13595 |
|     101 | 0x351C      |       13596 |
|     102 | 0x351D      |       13597 |
|     103 | 0x351E      |       13598 |
|     104 | 0x351F      |       13599 |
|     105 | 0x3520      |       13600 |
|     106 | 0x3521      |       13601 |
|     107 | 0x3522      |       13602 |
|     108 | 0x0014      |          20 |
|     109 | 0x3523      |       13603 |
|     110 | 0x3524      |       13604 |
|     111 | 0x3525      |       13605 |
|     112 | 0x3526      |       13606 |
|     113 | 0x3527      |       13607 |
|     114 | 0x3528      |       13608 |
|     115 | 0x3529      |       13609 |
|     116 | 0x352A      |       13610 |
|     117 | 0x0023      |          35 |
|     118 | 0x352B      |       13611 |
|     119 | 0x352C      |       13612 |
|     120 | 0x352D      |       13613 |
|     121 | 0x352E      |       13614 |
|     122 | 0x352F      |       13615 |
|     123 | 0x3530      |       13616 |
|     124 | 0x0850      |        2128 |
|     125 | 0x3531      |       13617 |
|     126 | 0x0320      |         800 |
|     127 | 0x3532      |       13618 |
|     128 | 0x3533      |       13619 |
|     129 | 0x085B      |        2139 |
|     130 | 0x3534      |       13620 |
|     131 | 0x0057      |          87 |
|     132 | 0xFFFCF518  |  4294767896 |
|     133 | 0x01F6      |         502 |
|     134 | 0xFFFFD8F2  |  4294957298 |
|     135 | 0x0C07      |        3079 |
|     136 | 0xFFFCEE5B  |  4294766171 |
|     137 | 0x0721      |        1825 |
|     138 | 0xFFFCF15E  |  4294766942 |
|     139 | 0x0B5D      |        2909 |
|     140 | 0xFFFCF450  |  4294767696 |
|     141 | 0x204F      |        8271 |
|     142 | 0xFFFCE364  |  4294763364 |
|     143 | 0x08BD      |        2237 |
|     144 | 0x008A      |         138 |
|     145 | 0x0005      |           5 |
|     146 | 0x017C      |         380 |
|     147 | 0xFFFCA85C  |  4294748252 |
|     148 | 0x80E0      |       32992 |
|     149 | 0x06B9      |        1721 |
|     150 | 0xFFFCA505  |  4294747397 |
|     151 | 0x7912      |       30994 |
|     152 | 0x08F3      |        2291 |
|     153 | 0xFFFC9ECF  |  4294745807 |
|     154 | 0x7D4C      |       32076 |
|     155 | 0x05B3      |        1459 |
|     156 | 0x0096      |         150 |
|     157 | 0x355C      |       13660 |
|     158 | 0x355D      |       13661 |
|     159 | 0x355E      |       13662 |
|     160 | 0x355F      |       13663 |
|     161 | 0x3560      |       13664 |
|     162 | 0x08FE      |        2302 |
|     163 | 0x3561      |       13665 |
|     164 | 0x3562      |       13666 |
|     165 | 0x08C7      |        2247 |
|     166 | 0x3563      |       13667 |
|     167 | 0x0024      |          36 |
|     168 | 0x0003      |           3 |
|     169 | 0x0004      |           4 |
|     170 | 0x0006      |           6 |
|     171 | 0x0008      |           8 |
|     172 | 0x00B4      |         180 |
|     173 | 0xFFFC54A9  |  4294726825 |
|     174 | 0xFFFFF060  |  4294963296 |
|     175 | 0x3564      |       13668 |
|     176 | 0xFFFC7212  |  4294734354 |
|     177 | 0x176B5     |       95925 |
|     178 | 0x0450      |        1104 |
|     179 | 0xFFFC6F35  |  4294733621 |
|     180 | 0x1748E     |       95374 |
|     181 | 0x03F9      |        1017 |
|     182 | 0xFFFC6D92  |  4294733202 |
|     183 | 0x15CF3     |       89331 |
|     184 | 0xFFFFF254  |  4294963796 |
|     185 | 0x044B      |        1099 |
|     186 | 0x0224      |         548 |
|     187 | 0x005A      |          90 |
|     188 | 0x0223      |         547 |
|     189 | 0x0020      |          32 |
|     190 | 0x0080      |         128 |
|     191 | 0x0854      |        2132 |
|     192 | 0x0046      |          70 |
|     193 | 0x08C5      |        2245 |
|     194 | 0x008C      |         140 |
|     195 | 0xFFFC7990  |  4294736272 |
|     196 | 0xFFFF8B8D  |  4294937485 |
|     197 | 0xFFFFD122  |  4294955298 |
|     198 | 0x06D8      |        1752 |
|     199 | 0xFFFC2022  |  4294713378 |
|     200 | 0xFFFF5D20  |  4294925600 |
|     201 | 0xFFFFD121  |  4294955297 |
|     202 | 0x0312      |         786 |
|     203 | 0xFFFB1432  |  4294644786 |
|     204 | 0xFFFED377  |  4294890359 |
|     205 | 0xFFFFCEC7  |  4294954695 |
|     206 | 0x07FF      |        2047 |
|     207 | 0xFFFB13A8  |  4294644648 |
|     208 | 0xFFFED2FB  |  4294890235 |
|     209 | 0x07F8      |        2040 |
|     210 | 0xFFFB2C71  |  4294650993 |
|     211 | 0xFFFECC8A  |  4294888586 |
|     212 | 0xFFFFD120  |  4294955296 |
|     213 | 0x07F7      |        2039 |
|     214 | 0x3539      |       13625 |
|     215 | 0x353A      |       13626 |
|     216 | 0x353B      |       13627 |
|     217 | 0x353C      |       13628 |
|     218 | 0x353D      |       13629 |
|     219 | 0x353E      |       13630 |
|     220 | 0x353F      |       13631 |
|     221 | 0x0010      |          16 |
|     222 | 0x3540      |       13632 |
|     223 | 0x3541      |       13633 |
|     224 | 0x0015      |          21 |
|     225 | 0x3542      |       13634 |
|     226 | 0x3543      |       13635 |
|     227 | 0x0083      |         131 |
|     228 | 0x3544      |       13636 |
|     229 | 0x08C2      |        2242 |
|     230 | 0x3545      |       13637 |
|     231 | 0x0078      |         120 |
|     232 | 0x3546      |       13638 |
|     233 | 0x3547      |       13639 |
|     234 | 0xFFFB1365  |  4294644581 |
|     235 | 0xFFFECBFB  |  4294888443 |
|     236 | 0x3549      |       13641 |
|     237 | 0x354A      |       13642 |
|     238 | 0x03BE      |         958 |
|     239 | 0x354B      |       13643 |
|     240 | 0x354C      |       13644 |
|     241 | 0x354D      |       13645 |
|     242 | 0x354E      |       13646 |
|     243 | 0x354F      |       13647 |
|     244 | 0x3550      |       13648 |
|     245 | 0x3551      |       13649 |
|     246 | 0x0064      |         100 |
|     247 | 0x3552      |       13650 |
|     248 | 0x3553      |       13651 |
|     249 | 0x3554      |       13652 |
|     250 | 0x3555      |       13653 |
|     251 | 0x3556      |       13654 |
|     252 | 0x3557      |       13655 |
|     253 | 0x3558      |       13656 |
|     254 | 0x3559      |       13657 |
|     255 | 0xFFFB1C62  |  4294646882 |
|     256 | 0xFFFED338  |  4294890296 |
|     257 | 0xFFFFCFF4  |  4294954996 |
|     258 | 0x0896      |        2198 |
|     259 | 0xFFFB1595  |  4294645141 |
|     260 | 0xFFFED43C  |  4294890556 |
|     261 | 0x0849      |        2121 |
|     262 | 0xFFFFCA18  |  4294953496 |
|     263 | 0x00C9      |         201 |
|     264 | 0x002D      |          45 |
|     265 | 0x00D7      |         215 |

## String References

- **12900**: @@

## Events

### Event 65535

#### Metadata

| Field        | Value   |
|--------------|---------|
| Entrypoint   | 0x0000  |
| Data Size    | 1 bytes |
| Instructions | 1       |

```
      00 01 02 03 04 05 06 07  08 09 0A 0B 0C 0D 0E 0F
      -- -- -- -- -- -- -- --  -- -- -- -- -- -- -- --
0000: 00                                                .               
```

#### Opcodes

```
  0: 0x0000 [0x00] END_REQSTACK()
```

### Event 175

#### Metadata

| Field        | Value      |
|--------------|------------|
| Entrypoint   | 0x0001     |
| Data Size    | 5288 bytes |
| Instructions | 647        |

```
      00 01 02 03 04 05 06 07  08 09 0A 0B 0C 0D 0E 0F
      -- -- -- -- -- -- -- --  -- -- -- -- -- -- -- --
0000:    42 1A BF 35 03 00 00  02 10 03 01 00 04 10 03   B..5...........
0010: 00 00 02 10 46 01 38 00  80 92 01 A5 72 05 01 92  ....F.8.....r...
0020: 01 A6 72 05 01 92 01 A3  72 05 01 92 01 F1 71 05  ..r.....r.....q.
0030: 01 92 01 A7 72 05 01 92  01 A8 72 05 01 92 01 A9  ....r.....r.....
0040: 72 05 01 92 01 AA 72 05  01 92 01 AB 72 05 01 92  r.....r.....r...
0050: 01 AC 72 05 01 94 01 F0  FF FF 7F 94 01 A5 72 05  ..r...........r.
0060: 01 94 01 A6 72 05 01 94  01 A3 72 05 01 94 01 F1  ....r.....r.....
0070: 71 05 01 94 01 A7 72 05  01 94 01 A8 72 05 01 94  q.....r.....r...
0080: 01 A9 72 05 01 94 01 AA  72 05 01 94 01 AB 72 05  ..r.....r.....r.
0090: 01 94 01 AC 72 05 01 4E  00 F0 FF FF 7F 27 10 A5  ....r..N.....'..
00A0: 72 05 01 04 27 10 A6 72  05 01 04 4E 00 F1 71 05  r...'..r...N..q.
00B0: 01 4E 00 A7 72 05 01 4E  00 A8 72 05 01 4E 00 A9  .N..r..N..r..N..
00C0: 72 05 01 4E 00 AA 72 05  01 4E 00 AB 72 05 01 4E  r..N..r..N..r..N
00D0: 00 AC 72 05 01 BA F0 FF  FF 7F 01 80 02 80 03 80  ..r.............
00E0: 04 80 BA A5 72 05 01 05  80 06 80 03 80 07 80 BA  ....r...........
00F0: A6 72 05 01 08 80 09 80  03 80 0A 80 BA A3 72 05  .r............r.
0100: 01 0B 80 0C 80 0D 80 0E  80 BA AE 72 05 01 0F 80  ...........r....
0110: 10 80 0D 80 0A 80 80 F0  FF FF 7F 80 A5 72 05 01  .............r..
0120: 80 A6 72 05 01 80 A3 72  05 01 1C 11 80 4E 00 A3  ..r....r.....N..
0130: 72 05 01 79 00 F0 FF FF  7F F0 FF FF 7F 7B A5 72  r..y.........{.r
0140: 05 01 7B A6 72 05 01 7B  A3 72 05 01 4A A3 72 05  ..{.r..{.r..J.r.
0150: 01 AE 72 05 01 6F 76 A3  72 05 01 45 12 80 F0 FF  ..r..ov.r..E....
0160: FF 7F F0 FF FF 7F 73 61  30 30 13 80 1A 9E 35 1C  ......sa00....5.
0170: 14 80 27 10 A6 72 05 01  0A 1C 15 80 27 10 F0 FF  ..'..r......'...
0180: FF 7F 49 1C 16 80 27 10  A5 72 05 01 13 1C 15 80  ..I...'..r......
0190: 52 12 80 F0 FF FF 7F F0  FF FF 7F 73 61 30 30 45  R..........sa00E
01A0: 12 80 F0 FF FF 7F F0 FF  FF 7F 73 61 30 31 13 80  ..........sa01..
01B0: 1C 14 80 79 00 A3 72 05  01 A6 72 05 01 6F 76 A3  ...y..r...r..ov.
01C0: 72 05 01 66 17 80 A3 72  05 01 A3 72 05 01 6B 62  r..f...r...r..kb
01D0: 61 32 2B A3 72 05 01 18  80 23 1C 11 80 53 A3 72  a2+.r....#...S.r
01E0: 05 01 A3 72 05 01 6B 62  61 32 52 12 80 F0 FF FF  ...r..kba2R.....
01F0: 7F F0 FF FF 7F 73 61 30  31 45 12 80 F0 FF FF 7F  .....sa01E......
0200: F0 FF FF 7F 73 61 30 32  13 80 6F 76 A3 72 05 01  ....sa02..ov.r..
0210: 2B A3 72 05 01 19 80 23  1C 11 80 52 12 80 F0 FF  +.r....#...R....
0220: FF 7F F0 FF FF 7F 73 61  30 32 45 12 80 F0 FF FF  ......sa02E.....
0230: 7F F0 FF FF 7F 73 61 30  33 13 80 66 1A 80 A6 72  .....sa03..f...r
0240: 05 01 A6 72 05 01 74 6C  6B 30 2B A6 72 05 01 1B  ...r..tlk0+.r...
0250: 80 23 1C 11 80 66 1A 80  A6 72 05 01 A6 72 05 01  .#...f...r...r..
0260: 74 6C 6B 31 52 12 80 F0  FF FF 7F F0 FF FF 7F 73  tlk1R..........s
0270: 61 30 33 45 12 80 F0 FF  FF 7F F0 FF FF 7F 73 61  a03E..........sa
0280: 30 34 13 80 66 17 80 A3  72 05 01 A3 72 05 01 6B  04..f...r...r..k
0290: 73 6B 30 2B A3 72 05 01  1C 80 23 1C 11 80 53 A3  sk0+.r....#...S.
02A0: 72 05 01 A3 72 05 01 6B  73 6B 30 52 12 80 F0 FF  r...r..ksk0R....
02B0: FF 7F F0 FF FF 7F 73 61  30 34 45 12 80 F0 FF FF  ......sa04E.....
02C0: 7F F0 FF FF 7F 73 61 30  35 13 80 4B A3 72 05 01  .....sa05..K.r..
02D0: 1D 80 7B A3 72 05 01 6F  76 A3 72 05 01 27 10 A3  ..{.r..ov.r..'..
02E0: 72 05 01 06 7B A6 72 05  01 27 10 A6 72 05 01 0B  r...{.r..'..r...
02F0: 1C 15 80 7B F0 FF FF 7F  27 10 F0 FF FF 7F 4A 1C  ...{....'.....J.
0300: 16 80 7B A5 72 05 01 27  10 A5 72 05 01 14 1C 15  ..{.r..'..r.....
0310: 80 1C 1E 80 1A BF 35 52  12 80 F0 FF FF 7F F0 FF  ......5R........
0320: FF 7F 73 61 30 35 2A 10  A3 72 05 01 2A 10 A6 72  ..sa05*..r..*..r
0330: 05 01 2A 10 F0 FF FF 7F  2A 10 A5 72 05 01 34 1F  ..*.....*..r..4.
0340: 80 77 20 80 21 80 1C 11  80 AB 09 75 00 22 80 75  .w .!......u.".u
0350: 01 BA F0 FF FF 7F 23 80  24 80 25 80 13 80 BA A5  ......#.$.%.....
0360: 72 05 01 26 80 27 80 28  80 13 80 BA A6 72 05 01  r..&.'.(.....r..
0370: 29 80 2A 80 2B 80 13 80  BA A3 72 05 01 2C 80 2D  ).*.+.....r..,.-
0380: 80 2E 80 13 80 BA F1 71  05 01 2F 80 13 80 30 80  .......q../...0.
0390: 31 80 BA A7 72 05 01 32  80 33 80 34 80 31 80 BA  1...r..2.3.4.1..
03A0: A8 72 05 01 32 80 35 80  36 80 31 80 BA A9 72 05  .r..2.5.6.1...r.
03B0: 01 32 80 37 80 34 80 31  80 BA AA 72 05 01 32 80  .2.7.4.1...r..2.
03C0: 38 80 34 80 31 80 BA AB  72 05 01 32 80 39 80 34  8.4.1...r..2.9.4
03D0: 80 31 80 BA AE 72 05 01  3A 80 13 80 36 80 13 80  .1...r..:...6...
03E0: 48 3B 80 23 80 F0 FF FF  7F 80 A5 72 05 01 80 A6  H;.#.......r....
03F0: 72 05 01 80 A3 72 05 01  80 F1 71 05 01 80 A7 72  r....r....q....r
0400: 05 01 80 A8 72 05 01 80  A9 72 05 01 80 AA 72 05  ....r....r....r.
0410: 01 80 AB 72 05 01 4A A7  72 05 01 AE 72 05 01 4A  ...r..J.r...r..J
0420: A8 72 05 01 AE 72 05 01  4A A9 72 05 01 AE 72 05  .r...r..J.r...r.
0430: 01 4A AA 72 05 01 AE 72  05 01 4A AB 72 05 01 AE  .J.r...r..J.r...
0440: 72 05 01 79 00 F0 FF FF  7F F0 FF FF 7F 7B A5 72  r..y.........{.r
0450: 05 01 7B A6 72 05 01 7B  A3 72 05 01 7B F1 71 05  ..{.r..{.r..{.q.
0460: 01 7B A7 72 05 01 7B A8  72 05 01 7B A9 72 05 01  .{.r..{.r..{.r..
0470: 7B AA 72 05 01 7B AB 72  05 01 45 12 80 F0 FF FF  {.r..{.r..E.....
0480: 7F F0 FF FF 7F 73 61 30  36 13 80 1A 9E 35 1C 3C  .....sa06....5.<
0490: 80 27 10 A3 72 05 01 07  1C 15 80 27 10 A6 72 05  .'..r......'..r.
04A0: 01 0C 1C 15 80 27 10 F0  FF FF 7F 4B 1C 16 80 27  .....'.....K...'
04B0: 10 A5 72 05 01 15 1C 3D  80 1C 3E 80 52 12 80 F0  ..r....=..>.R...
04C0: FF FF 7F F0 FF FF 7F 73  61 30 36 45 12 80 F0 FF  .......sa06E....
04D0: FF 7F F0 FF FF 7F 73 61  30 38 13 80 7A 00 A3 72  ......sa08..z..r
04E0: 05 01 7A 00 A6 72 05 01  7A 00 F0 FF FF 7F 7A 00  ..z..r..z.....z.
04F0: A5 72 05 01 BA F0 FF FF  7F 3F 80 40 80 41 80 13  .r.......?.@.A..
0500: 80 BA A5 72 05 01 42 80  43 80 41 80 13 80 BA A6  ...r..B.C.A.....
0510: 72 05 01 44 80 45 80 41  80 13 80 BA A3 72 05 01  r..D.E.A.....r..
0520: 46 80 47 80 48 80 13 80  80 F0 FF FF 7F 80 A5 72  F.G.H..........r
0530: 05 01 80 A6 72 05 01 80  A3 72 05 01 1C 11 80 27  ....r....r.....'
0540: 0F 42 72 05 01 03 1C 49  80 2A 0F 42 72 05 01 27  .Br....I.*.Br..'
0550: 10 A3 72 05 01 08 2A 10  A3 72 05 01 66 17 80 A3  ..r...*..r..f...
0560: 72 05 01 A3 72 05 01 6B  62 61 32 79 00 F1 71 05  r...r..kba2y..q.
0570: 01 AE 72 05 01 53 A3 72  05 01 A3 72 05 01 6B 62  ..r..S.r...r..kb
0580: 61 32 52 12 80 F0 FF FF  7F F0 FF FF 7F 73 61 30  a2R..........sa0
0590: 38 45 12 80 F0 FF FF 7F  F0 FF FF 7F 73 61 30 39  8E..........sa09
05A0: 13 80 1C 3C 80 6E F1 71  05 01 4A 80 99 F1 71 05  ...<.n.q..J...q.
05B0: 01 1C 4B 80 52 12 80 F0  FF FF 7F F0 FF FF 7F 73  ..K.R..........s
05C0: 61 30 39 45 12 80 F0 FF  FF 7F F0 FF FF 7F 73 61  a09E..........sa
05D0: 31 31 13 80 7B A3 72 05  01 27 10 A3 72 05 01 09  11..{.r..'..r...
05E0: 1C 14 80 4A F1 71 05 01  AE 72 05 01 1C 49 80 52  ...J.q...r...I.R
05F0: 12 80 F0 FF FF 7F F0 FF  FF 7F 73 61 31 31 45 12  ..........sa11E.
0600: 80 F0 FF FF 7F F0 FF FF  7F 73 61 31 32 13 80 27  .........sa12..'
0610: 10 A6 72 05 01 0D 1C 11  80 27 10 A5 72 05 01 16  ..r......'..r...
0620: 1C 49 80 27 10 F0 FF FF  7F 4C 2A 10 A6 72 05 01  .I.'.....L*..r..
0630: 1C 1E 80 27 10 AE 72 05  01 04 1C 11 80 52 12 80  ...'..r......R..
0640: F0 FF FF 7F F0 FF FF 7F  73 61 31 32 45 12 80 F0  ........sa12E...
0650: FF FF 7F F0 FF FF 7F 73  61 31 33 13 80 2B F1 71  .......sa13..+.q
0660: 05 01 4C 80 23 1C 11 80  52 12 80 F0 FF FF 7F F0  ..L.#...R.......
0670: FF FF 7F 73 61 31 33 45  12 80 F0 FF FF 7F F0 FF  ...sa13E........
0680: FF 7F 73 61 31 34 13 80  2B F1 71 05 01 4D 80 23  ..sa14..+.q..M.#
0690: 1C 11 80 2A 10 AE 72 05  01 55 12 80 F0 FF FF 7F  ...*..r..U......
06A0: F0 FF FF 7F 73 61 31 34  52 12 80 F0 FF FF 7F F0  ....sa14R.......
06B0: FF FF 7F 73 61 31 34 45  12 80 F0 FF FF 7F F0 FF  ...sa14E........
06C0: FF 7F 73 61 31 35 13 80  27 10 AE 72 05 01 0A 2B  ..sa15..'..r...+
06D0: A6 72 05 01 4E 80 23 1C  11 80 2A 10 AE 72 05 01  .r..N.#...*..r..
06E0: 1A BF 35 52 12 80 F0 FF  FF 7F F0 FF FF 7F 73 61  ..5R..........sa
06F0: 31 35 4E 01 A3 72 05 01  1C 4F 80 48 3B 80 23 1C  15N..r...O.H;.#.
0700: 50 80 45 12 80 F0 FF FF  7F F0 FF FF 7F 73 61 31  P.E..........sa1
0710: 36 13 80 1A 9E 35 27 10  AE 72 05 01 06 2B F1 71  6....5'..r...+.q
0720: 05 01 51 80 23 7B F1 71  05 01 1C 11 80 2A 10 AE  ..Q.#{.q.....*..
0730: 72 05 01 52 12 80 F0 FF  FF 7F F0 FF FF 7F 73 61  r..R..........sa
0740: 31 36 45 12 80 F0 FF FF  7F F0 FF FF 7F 73 61 31  16E..........sa1
0750: 37 13 80 66 52 80 F1 71  05 01 F1 71 05 01 74 68  7..fR..q...q..th
0760: 6B 31 2B F1 71 05 01 53  80 23 1C 11 80 66 52 80  k1+.q..S.#...fR.
0770: F1 71 05 01 F1 71 05 01  74 68 6B 32 52 12 80 F0  .q...q..thk2R...
0780: FF FF 7F F0 FF FF 7F 73  61 31 37 45 12 80 F0 FF  .......sa17E....
0790: FF 7F F0 FF FF 7F 73 61  31 38 13 80 66 1A 80 A6  ......sa18..f...
07A0: 72 05 01 A6 72 05 01 74  6C 6B 30 2B A6 72 05 01  r...r..tlk0+.r..
07B0: 54 80 23 79 00 F1 71 05  01 A6 72 05 01 1C 11 80  T.#y..q...r.....
07C0: 66 1A 80 A6 72 05 01 A6  72 05 01 74 6C 6B 31 52  f...r...r..tlk1R
07D0: 12 80 F0 FF FF 7F F0 FF  FF 7F 73 61 31 38 45 12  ..........sa18E.
07E0: 80 F0 FF FF 7F F0 FF FF  7F 73 61 31 39 13 80 66  .........sa19..f
07F0: 52 80 F1 71 05 01 F1 71  05 01 74 77 62 30 2B F1  R..q...q..twb0+.
0800: 71 05 01 55 80 23 1C 11  80 66 52 80 F1 71 05 01  q..U.#...fR..q..
0810: F1 71 05 01 74 77 62 31  52 12 80 F0 FF FF 7F F0  .q..twb1R.......
0820: FF FF 7F 73 61 31 39 45  12 80 F0 FF FF 7F F0 FF  ...sa19E........
0830: FF 7F 73 61 32 30 13 80  2B A6 72 05 01 56 80 23  ..sa20..+.r..V.#
0840: 79 00 A7 72 05 01 F1 71  05 01 79 00 A8 72 05 01  y..r...q..y..r..
0850: F1 71 05 01 79 00 A9 72  05 01 F1 71 05 01 79 00  .q..y..r...q..y.
0860: AA 72 05 01 F1 71 05 01  79 00 AB 72 05 01 F1 71  .r...q..y..r...q
0870: 05 01 4A A7 72 05 01 F1  71 05 01 4A A8 72 05 01  ..J.r...q..J.r..
0880: F1 71 05 01 4A A9 72 05  01 F1 71 05 01 4A AA 72  .q..J.r...q..J.r
0890: 05 01 F1 71 05 01 4A AB  72 05 01 F1 71 05 01 1C  ...q..J.r...q...
08A0: 49 80 52 12 80 F0 FF FF  7F F0 FF FF 7F 73 61 32  I.R..........sa2
08B0: 30 45 12 80 F0 FF FF 7F  F0 FF FF 7F 73 61 32 31  0E..........sa21
08C0: 13 80 1C 11 80 7B F1 71  05 01 4B F1 71 05 01 13  .....{.q..K.q...
08D0: 80 6F 76 F1 71 05 01 1C  14 80 66 52 80 F1 71 05  .ov.q.....fR..q.
08E0: 01 F1 71 05 01 74 77 62  30 2B F1 71 05 01 57 80  ..q..twb0+.q..W.
08F0: 23 1C 11 80 66 52 80 F1  71 05 01 F1 71 05 01 74  #...fR..q...q..t
0900: 77 62 31 6F 76 AB 72 05  01 52 12 80 F0 FF FF 7F  wb1ov.r..R......
0910: F0 FF FF 7F 73 61 32 31  45 12 80 F0 FF FF 7F F0  ....sa21E.......
0920: FF FF 7F 73 61 32 32 13  80 27 10 AE 72 05 01 07  ...sa22..'..r...
0930: 66 52 80 A9 72 05 01 A9  72 05 01 74 77 61 30 2B  fR..r...r..twa0+
0940: A9 72 05 01 58 80 23 1C  11 80 2A 10 AE 72 05 01  .r..X.#...*..r..
0950: 66 52 80 A9 72 05 01 A9  72 05 01 74 77 61 31 52  fR..r...r..twa1R
0960: 12 80 F0 FF FF 7F F0 FF  FF 7F 73 61 32 32 45 12  ..........sa22E.
0970: 80 F0 FF FF 7F F0 FF FF  7F 73 61 32 33 13 80 1C  .........sa23...
0980: 16 80 79 00 A7 72 05 01  A9 72 05 01 1C 1E 80 27  ..y..r...r.....'
0990: 10 AE 72 05 01 08 79 00  F1 71 05 01 A7 72 05 01  ..r...y..q...r..
09A0: 2B A7 72 05 01 59 80 23  5B 5A 80 A5 72 05 01 A5  +.r..Y.#[Z..r...
09B0: 72 05 01 66 68 30 31 5B  5B 80 A5 72 05 01 A5 72  r..fh01[[..r...r
09C0: 05 01 75 74 75 30 1C 11  80 2A 10 AE 72 05 01 52  ..utu0...*..r..R
09D0: 12 80 F0 FF FF 7F F0 FF  FF 7F 73 61 32 33 45 12  ..........sa23E.
09E0: 80 F0 FF FF 7F F0 FF FF  7F 73 61 32 34 13 80 79  .........sa24..y
09F0: 00 A7 72 05 01 F1 71 05  01 79 00 A9 72 05 01 F1  ..r...q..y..r...
0A00: 71 05 01 2B A5 72 05 01  5C 80 23 53 A5 72 05 01  q..+.r..\.#S.r..
0A10: A5 72 05 01 75 74 75 30  5B 5A 80 A5 72 05 01 A5  .r..utu0[Z..r...
0A20: 72 05 01 66 68 30 30 1C  11 80 52 12 80 F0 FF FF  r..fh00...R.....
0A30: 7F F0 FF FF 7F 73 61 32  34 45 12 80 F0 FF FF 7F  .....sa24E......
0A40: F0 FF FF 7F 73 61 32 35  13 80 5B 5A 80 A5 72 05  ....sa25..[Z..r.
0A50: 01 A5 72 05 01 66 30 30  30 5B 5B 80 A5 72 05 01  ..r..f000[[..r..
0A60: A5 72 05 01 75 74 75 31  27 10 AE 72 05 01 09 66  .r..utu1'..r...f
0A70: 5D 80 AB 72 05 01 AB 72  05 01 74 6C 6B 30 2B AB  ]..r...r..tlk0+.
0A80: 72 05 01 5E 80 23 1C 11  80 2A 10 AE 72 05 01 66  r..^.#...*..r..f
0A90: 5D 80 AB 72 05 01 AB 72  05 01 74 6C 6B 31 52 12  ]..r...r..tlk1R.
0AA0: 80 F0 FF FF 7F F0 FF FF  7F 73 61 32 35 45 12 80  .........sa25E..
0AB0: F0 FF FF 7F F0 FF FF 7F  73 61 32 36 13 80 79 00  ........sa26..y.
0AC0: F1 71 05 01 A6 72 05 01  4A F1 71 05 01 A6 72 05  .q...r..J.q...r.
0AD0: 01 79 00 A7 72 05 01 A6  72 05 01 79 00 A8 72 05  .y..r...r..y..r.
0AE0: 01 A6 72 05 01 79 00 A9  72 05 01 A6 72 05 01 79  ..r..y..r...r..y
0AF0: 00 AA 72 05 01 A6 72 05  01 79 00 AB 72 05 01 A6  ..r...r..y..r...
0B00: 72 05 01 6F 76 F1 71 05  01 2B F1 71 05 01 5F 80  r..ov.q..+.q.._.
0B10: 23 1C 11 80 52 12 80 F0  FF FF 7F F0 FF FF 7F 73  #...R..........s
0B20: 61 32 36 45 12 80 F0 FF  FF 7F F0 FF FF 7F 73 61  a26E..........sa
0B30: 32 37 13 80 2B F1 71 05  01 60 80 23 1C 11 80 52  27..+.q..`.#...R
0B40: 12 80 F0 FF FF 7F F0 FF  FF 7F 73 61 32 37 45 12  ..........sa27E.
0B50: 80 F0 FF FF 7F F0 FF FF  7F 73 61 32 38 13 80 1C  .........sa28...
0B60: 61 80 BA AC 72 05 01 62  80 13 80 41 80 13 80 80  a...r..b...A....
0B70: AC 72 05 01 7B AC 72 05  01 27 10 AC 72 05 01 0A  .r..{.r..'..r...
0B80: 1C 15 80 52 12 80 F0 FF  FF 7F F0 FF FF 7F 73 61  ...R..........sa
0B90: 32 38 45 12 80 F0 FF FF  7F F0 FF FF 7F 73 61 32  28E..........sa2
0BA0: 39 13 80 4A A7 72 05 01  A6 72 05 01 4A A8 72 05  9..J.r...r..J.r.
0BB0: 01 A6 72 05 01 4A A9 72  05 01 A6 72 05 01 4A AA  ..r..J.r...r..J.
0BC0: 72 05 01 A6 72 05 01 4A  AB 72 05 01 A6 72 05 01  r...r..J.r...r..
0BD0: 1C 63 80 52 12 80 F0 FF  FF 7F F0 FF FF 7F 73 61  .c.R..........sa
0BE0: 32 39 45 12 80 F0 FF FF  7F F0 FF FF 7F 73 61 33  29E..........sa3
0BF0: 30 13 80 2A 10 AC 72 05  01 1C 14 80 27 0F 42 72  0..*..r.....'.Br
0C00: 05 01 03 79 00 A6 72 05  01 AC 72 05 01 1C 16 80  ...y..r...r.....
0C10: 79 00 F0 FF FF 7F AC 72  05 01 1C 15 80 79 00 A5  y......r.....y..
0C20: 72 05 01 AC 72 05 01 1C  11 80 2A 0F 42 72 05 01  r...r.....*.Br..
0C30: 1C 14 80 79 00 F1 71 05  01 AC 72 05 01 79 00 A8  ...y..q...r..y..
0C40: 72 05 01 AC 72 05 01 79  00 A9 72 05 01 AC 72 05  r...r..y..r...r.
0C50: 01 79 00 AA 72 05 01 AC  72 05 01 52 12 80 F0 FF  .y..r...r..R....
0C60: FF 7F F0 FF FF 7F 73 61  33 30 45 12 80 F0 FF FF  ......sa30E.....
0C70: 7F F0 FF FF 7F 73 61 33  31 13 80 29 10 AC 72 05  .....sa31..)..r.
0C80: 01 0B 1C 1E 80 52 12 80  F0 FF FF 7F F0 FF FF 7F  .....R..........
0C90: 73 61 33 31 45 12 80 F0  FF FF 7F F0 FF FF 7F 73  sa31E..........s
0CA0: 61 33 32 13 80 1C 3C 80  2B AC 72 05 01 64 80 23  a32...<.+.r..d.#
0CB0: 1C 11 80 55 12 80 F0 FF  FF 7F F0 FF FF 7F 73 61  ...U..........sa
0CC0: 33 32 52 12 80 F0 FF FF  7F F0 FF FF 7F 73 61 33  32R..........sa3
0CD0: 32 45 12 80 F0 FF FF 7F  F0 FF FF 7F 73 61 33 33  2E..........sa33
0CE0: 13 80 27 0F 42 72 05 01  04 2A 10 AE 72 05 01 27  ..'.Br...*..r..'
0CF0: 10 AE 72 05 01 0B 2B A7  72 05 01 65 80 23 1C 11  ..r...+.r..e.#..
0D00: 80 2A 10 AE 72 05 01 52  12 80 F0 FF FF 7F F0 FF  .*..r..R........
0D10: FF 7F 73 61 33 33 45 12  80 F0 FF FF 7F F0 FF FF  ..sa33E.........
0D20: 7F 73 61 33 34 13 80 79  00 AB 72 05 01 A7 72 05  .sa34..y..r...r.
0D30: 01 1C 11 80 2B AB 72 05  01 66 80 23 1C 11 80 52  ....+.r..f.#...R
0D40: 12 80 F0 FF FF 7F F0 FF  FF 7F 73 61 33 34 45 12  ..........sa34E.
0D50: 80 F0 FF FF 7F F0 FF FF  7F 73 61 33 35 13 80 7B  .........sa35..{
0D60: AB 72 05 01 27 10 AE 72  05 01 0C 1C 11 80 2B AC  .r..'..r......+.
0D70: 72 05 01 67 80 23 1C 11  80 2A 10 AE 72 05 01 52  r..g.#...*..r..R
0D80: 12 80 F0 FF FF 7F F0 FF  FF 7F 73 61 33 35 45 12  ..........sa35E.
0D90: 80 F0 FF FF 7F F0 FF FF  7F 73 61 33 36 13 80 66  .........sa36..f
0DA0: 5D 80 AC 72 05 01 AC 72  05 01 74 6C 6B 30 2B AC  ]..r...r..tlk0+.
0DB0: 72 05 01 68 80 23 1C 11  80 66 5D 80 AC 72 05 01  r..h.#...f]..r..
0DC0: AC 72 05 01 74 6C 6B 31  52 12 80 F0 FF FF 7F F0  .r..tlk1R.......
0DD0: FF FF 7F 73 61 33 36 45  12 80 F0 FF FF 7F F0 FF  ...sa36E........
0DE0: FF 7F 73 61 33 37 13 80  53 AC 72 05 01 AC 72 05  ..sa37..S.r...r.
0DF0: 01 74 6C 6B 31 7C 00 F1  71 05 01 2B F1 71 05 01  .tlk1|..q..+.q..
0E00: 69 80 23 1C 11 80 7C 01  F1 71 05 01 52 12 80 F0  i.#...|..q..R...
0E10: FF FF 7F F0 FF FF 7F 73  61 33 37 45 12 80 F0 FF  .......sa37E....
0E20: FF 7F F0 FF FF 7F 73 61  33 38 13 80 79 00 A7 72  ......sa38..y..r
0E30: 05 01 AC 72 05 01 4A A7  72 05 01 AC 72 05 01 66  ...r..J.r...r..f
0E40: 5D 80 AC 72 05 01 AC 72  05 01 74 77 61 30 2B AC  ]..r...r..twa0+.
0E50: 72 05 01 6A 80 23 1C 11  80 66 5D 80 AC 72 05 01  r..j.#...f]..r..
0E60: AC 72 05 01 74 77 61 31  52 12 80 F0 FF FF 7F F0  .r..twa1R.......
0E70: FF FF 7F 73 61 33 38 45  12 80 F0 FF FF 7F F0 FF  ...sa38E........
0E80: FF 7F 73 61 33 39 13 80  27 10 AE 72 05 01 0D 2B  ..sa39..'..r...+
0E90: A7 72 05 01 6B 80 23 1C  11 80 2A 10 AE 72 05 01  .r..k.#...*..r..
0EA0: 79 00 AC 72 05 01 A7 72  05 01 4A AC 72 05 01 A7  y..r...r..J.r...
0EB0: 72 05 01 27 10 AE 72 05  01 0E 1C 6C 80 52 12 80  r..'..r....l.R..
0EC0: F0 FF FF 7F F0 FF FF 7F  73 61 33 39 45 12 80 F0  ........sa39E...
0ED0: FF FF 7F F0 FF FF 7F 73  61 34 30 13 80 7C 00 AC  .......sa40..|..
0EE0: 72 05 01 2B AC 72 05 01  6D 80 23 1C 11 80 7C 01  r..+.r..m.#...|.
0EF0: AC 72 05 01 2A 10 AE 72  05 01 52 12 80 F0 FF FF  .r..*..r..R.....
0F00: 7F F0 FF FF 7F 73 61 34  30 45 12 80 F0 FF FF 7F  .....sa40E......
0F10: F0 FF FF 7F 73 61 34 31  13 80 1C 11 80 66 5D 80  ....sa41.....f].
0F20: AC 72 05 01 AC 72 05 01  74 77 62 30 2B AC 72 05  .r...r..twb0+.r.
0F30: 01 6E 80 23 1C 11 80 66  5D 80 AC 72 05 01 AC 72  .n.#...f]..r...r
0F40: 05 01 74 77 62 31 52 12  80 F0 FF FF 7F F0 FF FF  ..twb1R.........
0F50: 7F 73 61 34 31 45 12 80  F0 FF FF 7F F0 FF FF 7F  .sa41E..........
0F60: 73 61 34 32 13 80 79 00  AB 72 05 01 A7 72 05 01  sa42..y..r...r..
0F70: 27 10 AE 72 05 01 0F 66  5D 80 AB 72 05 01 AB 72  '..r...f]..r...r
0F80: 05 01 74 6C 6B 30 2B AB  72 05 01 6F 80 23 1C 11  ..tlk0+.r..o.#..
0F90: 80 2A 10 AE 72 05 01 4A  AC 72 05 01 F1 71 05 01  .*..r..J.r...q..
0FA0: 6F 76 AC 72 05 01 66 5D  80 AB 72 05 01 AB 72 05  ov.r..f]..r...r.
0FB0: 01 74 6C 6B 31 52 12 80  F0 FF FF 7F F0 FF FF 7F  .tlk1R..........
0FC0: 73 61 34 32 02 02 10 17  80 00 41 10 45 12 80 F0  sa42......A.E...
0FD0: FF FF 7F F0 FF FF 7F 73  61 34 33 13 80 7B AB 72  .......sa43..{.r
0FE0: 05 01 1C 3E 80 27 10 AE  72 05 01 10 2B AC 72 05  ...>.'..r...+.r.
0FF0: 01 70 80 23 1C 11 80 2A  10 AE 72 05 01 52 12 80  .p.#...*..r..R..
1000: F0 FF FF 7F F0 FF FF 7F  73 61 34 33 45 12 80 F0  ........sa43E...
1010: FF FF 7F F0 FF FF 7F 73  61 34 34 13 80 79 00 AC  .......sa44..y..
1020: 72 05 01 F1 71 05 01 2B  AC 72 05 01 71 80 23 1C  r...q..+.r..q.#.
1030: 11 80 52 12 80 F0 FF FF  7F F0 FF FF 7F 73 61 34  ..R..........sa4
1040: 34 45 12 80 F0 FF FF 7F  F0 FF FF 7F 73 61 34 35  4E..........sa45
1050: 13 80 7B AB 72 05 01 66  5D 80 AC 72 05 01 AC 72  ..{.r..f]..r...r
1060: 05 01 74 6C 6B 30 2B AC  72 05 01 72 80 23 1C 11  ..tlk0+.r..r.#..
1070: 80 52 12 80 F0 FF FF 7F  F0 FF FF 7F 73 61 34 35  .R..........sa45
1080: 45 12 80 F0 FF FF 7F F0  FF FF 7F 73 61 34 36 13  E..........sa46.
1090: 80 2B AC 72 05 01 73 80  23 1C 11 80 66 5D 80 AC  .+.r..s.#...f]..
10A0: 72 05 01 AC 72 05 01 74  6C 6B 31 52 12 80 F0 FF  r...r..tlk1R....
10B0: FF 7F F0 FF FF 7F 73 61  34 36 45 12 80 F0 FF FF  ......sa46E.....
10C0: 7F F0 FF FF 7F 73 61 34  37 13 80 53 AC 72 05 01  .....sa47..S.r..
10D0: AC 72 05 01 74 6C 6B 31  66 5D 80 AC 72 05 01 AC  .r..tlk1f]..r...
10E0: 72 05 01 74 68 6B 31 2B  AC 72 05 01 74 80 23 1C  r..thk1+.r..t.#.
10F0: 11 80 66 5D 80 AC 72 05  01 AC 72 05 01 74 68 6B  ..f]..r...r..thk
1100: 32 53 AC 72 05 01 AC 72  05 01 74 68 6B 32 27 10  2S.r...r..thk2'.
1110: AE 72 05 01 11 1C 75 80  52 12 80 F0 FF FF 7F F0  .r....u.R.......
1120: FF FF 7F 73 61 34 37 45  12 80 F0 FF FF 7F F0 FF  ...sa47E........
1130: FF 7F 73 61 34 38 13 80  2B AC 72 05 01 76 80 23  ..sa48..+.r..v.#
1140: 1C 11 80 2A 10 AE 72 05  01 52 12 80 F0 FF FF 7F  ...*..r..R......
1150: F0 FF FF 7F 73 61 34 38  45 12 80 F0 FF FF 7F F0  ....sa48E.......
1160: FF FF 7F 73 61 34 39 13  80 6B 69 64 6C 30 AC 72  ...sa49..kidl0.r
1170: 05 01 79 00 AB 72 05 01  F1 71 05 01 66 5D 80 AB  ..y..r...q..f]..
1180: 72 05 01 AB 72 05 01 74  6C 6B 30 2B AB 72 05 01  r...r..tlk0+.r..
1190: 77 80 23 66 5D 80 AB 72  05 01 AB 72 05 01 74 6C  w.#f]..r...r..tl
11A0: 6B 31 27 10 AE 72 05 01  0E 1C 11 80 52 12 80 F0  k1'..r......R...
11B0: FF FF 7F F0 FF FF 7F 73  61 34 39 45 12 80 F0 FF  .......sa49E....
11C0: FF 7F F0 FF FF 7F 73 61  35 30 13 80 7C 00 AC 72  ......sa50..|..r
11D0: 05 01 2B AC 72 05 01 78  80 23 1C 11 80 7C 01 AC  ..+.r..x.#...|..
11E0: 72 05 01 2A 10 AE 72 05  01 52 12 80 F0 FF FF 7F  r..*..r..R......
11F0: F0 FF FF 7F 73 61 35 30  45 12 80 F0 FF FF 7F F0  ....sa50E.......
1200: FF FF 7F 73 61 35 31 13  80 2B F1 71 05 01 79 80  ...sa51..+.q..y.
1210: 23 1C 11 80 79 00 AB 72  05 01 AC 72 05 01 52 12  #...y..r...r..R.
1220: 80 F0 FF FF 7F F0 FF FF  7F 73 61 35 31 45 12 80  .........sa51E..
1230: F0 FF FF 7F F0 FF FF 7F  73 61 35 32 13 80 2B AC  ........sa52..+.
1240: 72 05 01 7A 80 23 1C 11  80 52 12 80 F0 FF FF 7F  r..z.#...R......
1250: F0 FF FF 7F 73 61 35 32  45 12 80 F0 FF FF 7F F0  ....sa52E.......
1260: FF FF 7F 73 61 35 33 13  80 66 5D 80 AC 72 05 01  ...sa53..f]..r..
1270: AC 72 05 01 74 77 62 30  2B AC 72 05 01 7B 80 23  .r..twb0+.r..{.#
1280: 1C 11 80 66 5D 80 AC 72  05 01 AC 72 05 01 74 77  ...f]..r...r..tw
1290: 62 31 6E F1 71 05 01 4A  80 99 F1 71 05 01 4A A5  b1n.q..J...q..J.
12A0: 72 05 01 AC 72 05 01 79  00 A5 72 05 01 AC 72 05  r...r..y..r...r.
12B0: 01 1C 4B 80 53 AC 72 05  01 AC 72 05 01 74 77 62  ..K.S.r...r..twb
12C0: 31 52 12 80 F0 FF FF 7F  F0 FF FF 7F 73 61 35 33  1R..........sa53
12D0: 45 12 80 F0 FF FF 7F F0  FF FF 7F 73 61 35 34 13  E..........sa54.
12E0: 80 1C 11 80 5B 5A 80 A5  72 05 01 A5 72 05 01 66  ....[Z..r...r..f
12F0: 64 30 31 5B 7C 80 A5 72  05 01 A5 72 05 01 68 64  d01[|..r...r..hd
1300: 62 30 81 00 A5 72 05 01  2B A5 72 05 01 7D 80 23  b0...r..+.r..}.#
1310: 53 A5 72 05 01 A5 72 05  01 68 64 62 30 5B 5A 80  S.r...r..hdb0[Z.
1320: A5 72 05 01 A5 72 05 01  66 64 30 30 81 01 A5 72  .r...r..fd00...r
1330: 05 01 79 00 AC 72 05 01  A5 72 05 01 4B AC 72 05  ..y..r...r..K.r.
1340: 01 7E 80 27 10 AE 72 05  01 0E 1C 11 80 52 12 80  .~.'..r......R..
1350: F0 FF FF 7F F0 FF FF 7F  73 61 35 34 45 12 80 F0  ........sa54E...
1360: FF FF 7F F0 FF FF 7F 73  61 35 35 13 80 79 00 A5  .......sa55..y..
1370: 72 05 01 AC 72 05 01 5B  7C 80 A5 72 05 01 A5 72  r...r..[|..r...r
1380: 05 01 68 64 62 31 7C 00  AC 72 05 01 2B AC 72 05  ..hdb1|..r..+.r.
1390: 01 7F 80 23 1C 11 80 7C  01 AC 72 05 01 2A 10 AE  ...#...|..r..*..
13A0: 72 05 01 52 12 80 F0 FF  FF 7F F0 FF FF 7F 73 61  r..R..........sa
13B0: 35 35 45 12 80 F0 FF FF  7F F0 FF FF 7F 73 61 35  55E..........sa5
13C0: 36 13 80 66 5D 80 AC 72  05 01 AC 72 05 01 74 77  6..f]..r...r..tw
13D0: 61 30 2B AC 72 05 01 80  80 23 1C 11 80 66 5D 80  a0+.r....#...f].
13E0: AC 72 05 01 AC 72 05 01  74 77 61 31 52 12 80 F0  .r...r..twa1R...
13F0: FF FF 7F F0 FF FF 7F 73  61 35 36 45 12 80 F0 FF  .......sa56E....
1400: FF 7F F0 FF FF 7F 73 61  35 37 13 80 53 A5 72 05  ......sa57..S.r.
1410: 01 A5 72 05 01 68 64 62  31 5B 5A 80 A5 72 05 01  ..r..hdb1[Z..r..
1420: A5 72 05 01 66 64 30 31  5B 81 80 A5 72 05 01 A5  .r..fd01[...r...
1430: 72 05 01 79 65 73 30 2B  A5 72 05 01 82 80 23 53  r..yes0+.r....#S
1440: A5 72 05 01 A5 72 05 01  79 65 73 30 5B 5A 80 A5  .r...r..yes0[Z..
1450: 72 05 01 A5 72 05 01 66  64 30 30 1C 14 80 1A BF  r...r..fd00.....
1460: 35 1C 11 80 52 12 80 F0  FF FF 7F F0 FF FF 7F 73  5...R..........s
1470: 61 35 37 5B 5A 80 A5 72  05 01 A5 72 05 01 66 30  a57[Z..r...r..f0
1480: 30 30 35 83 80 78 1C 16  80 AB 0A 02 01 00 21 80  005..x........!.
1490: 00 94 14 1B 46 00 45 3C  80 F0 FF FF 7F F0 FF FF  ....F.E<........
14A0: 7F 66 64 69 32 13 80 21  00                       .fdi2..!.       
```

#### Opcodes

```
  0: 0x0001 [0x42] SET_CLI_EVENT_CANCEL_DATA()
  1: 0x0002 [0x1A] CALL_SUBROUTINE(address=0x35BF)
  2: 0x0005 [0x03] ExtData[1]->WorkLocal[0] = Work_Zone[2]
  3: 0x000A [0x03] ExtData[1]->WorkLocal[1] = Work_Zone[4]
  4: 0x000F [0x03] ExtData[1]->WorkLocal[0] = Work_Zone[2]
  5: 0x0014 [0x46] CAMERA_CONTROL: Disable user control
  6: 0x0016 [0x38] SET_CLIENT_EVENT_MODE(mode=19*)
  7: 0x0019 [0x92] Lilisette (ID: 17134245/0x010572A5)->Render.Flags3 ^= 0x01
  8: 0x001F [0x92] Halver M Borel (ID: 17134246/0x010572A6)->Render.Flags3 ^= 0x01
  9: 0x0025 [0x92] Radford (ID: 17134243/0x010572A3)->Render.Flags3 ^= 0x01
 10: 0x002B [0x92] Prien (ID: 17134065/0x010571F1)->Render.Flags3 ^= 0x01
 11: 0x0031 [0x92] Maximilian Berger (ID: 17134247/0x010572A7)->Render.Flags3 ^= 0x01
 12: 0x0037 [0x92] Else (ID: 17134248/0x010572A8)->Render.Flags3 ^= 0x01
 13: 0x003D [0x92] Ludwig Eichberg (ID: 17134249/0x010572A9)->Render.Flags3 ^= 0x01
 14: 0x0043 [0x92] Striking Bull (ID: 17134250/0x010572AA)->Render.Flags3 ^= 0x01
 15: 0x0049 [0x92] Invincible Shield (ID: 17134251/0x010572AB)->Render.Flags3 ^= 0x01
 16: 0x004F [0x92] Zazarg (ID: 17134252/0x010572AC)->Render.Flags3 ^= 0x01
 17: 0x0055 [0x94] LocalPlayer->Render.Flags3 ^= 0x01
 18: 0x005B [0x94] Lilisette (ID: 17134245/0x010572A5)->Render.Flags3 ^= 0x01
 19: 0x0061 [0x94] Halver M Borel (ID: 17134246/0x010572A6)->Render.Flags3 ^= 0x01
 20: 0x0067 [0x94] Radford (ID: 17134243/0x010572A3)->Render.Flags3 ^= 0x01
 21: 0x006D [0x94] Prien (ID: 17134065/0x010571F1)->Render.Flags3 ^= 0x01
 22: 0x0073 [0x94] Maximilian Berger (ID: 17134247/0x010572A7)->Render.Flags3 ^= 0x01
 23: 0x0079 [0x94] Else (ID: 17134248/0x010572A8)->Render.Flags3 ^= 0x01
 24: 0x007F [0x94] Ludwig Eichberg (ID: 17134249/0x010572A9)->Render.Flags3 ^= 0x01
 25: 0x0085 [0x94] Striking Bull (ID: 17134250/0x010572AA)->Render.Flags3 ^= 0x01
 26: 0x008B [0x94] Invincible Shield (ID: 17134251/0x010572AB)->Render.Flags3 ^= 0x01
 27: 0x0091 [0x94] Zazarg (ID: 17134252/0x010572AC)->Render.Flags3 ^= 0x01
 28: 0x0097 [0x4E] SET_ENTITY_HIDE_FLAG: Show LocalPlayer
 29: 0x009D [0x27] REQ_SET(priority=0x10, entity_id=Lilisette (ID: 17134245/0x010572A5), tag_num=0x04)
 30: 0x00A4 [0x27] REQ_SET(priority=0x10, entity_id=Halver M Borel (ID: 17134246/0x010572A6), tag_num=0x04)
 31: 0x00AB [0x4E] SET_ENTITY_HIDE_FLAG: Show Prien (ID: 17134065/0x010571F1)
 32: 0x00B1 [0x4E] SET_ENTITY_HIDE_FLAG: Show Maximilian Berger (ID: 17134247/0x010572A7)
 33: 0x00B7 [0x4E] SET_ENTITY_HIDE_FLAG: Show Else (ID: 17134248/0x010572A8)
 34: 0x00BD [0x4E] SET_ENTITY_HIDE_FLAG: Show Ludwig Eichberg (ID: 17134249/0x010572A9)
 35: 0x00C3 [0x4E] SET_ENTITY_HIDE_FLAG: Show Striking Bull (ID: 17134250/0x010572AA)
 36: 0x00C9 [0x4E] SET_ENTITY_HIDE_FLAG: Show Invincible Shield (ID: 17134251/0x010572AB)
 37: 0x00CF [0x4E] SET_ENTITY_HIDE_FLAG: Show Zazarg (ID: 17134252/0x010572AC)
 38: 0x00D5 [0xBA] SET_ENTITY_POSITION(entity_id=LocalPlayer, pos_x=-214.392*, pos_z=28.852*, pos_y=-7.999*, direction=6.6°*)
 39: 0x00E2 [0xBA] SET_ENTITY_POSITION(entity_id=Lilisette (ID: 17134245/0x010572A5), pos_x=-215.120*, pos_z=31.694*, pos_y=-7.999*, direction=14.7°*)
 40: 0x00EF [0xBA] SET_ENTITY_POSITION(entity_id=Halver M Borel (ID: 17134246/0x010572A6), pos_x=-212.027*, pos_z=30.397*, pos_y=-7.999*, direction=17.0°*)
 41: 0x00FC [0xBA] SET_ENTITY_POSITION(entity_id=Radford (ID: 17134243/0x010572A3), pos_x=-205.303*, pos_z=26.874*, pos_y=-8.000*, direction=245.4°*)
 42: 0x0109 [0xBA] SET_ENTITY_POSITION(entity_id=??? (ID: 17134254/0x010572AE), pos_x=-207.231*, pos_z=28.544*, pos_y=-8.000*, direction=17.0°*)
 43: 0x0116 [0x80] LOAD_WAIT(entity=LocalPlayer)
 44: 0x011B [0x80] LOAD_WAIT(entity=Lilisette (ID: 17134245/0x010572A5))
 45: 0x0120 [0x80] LOAD_WAIT(entity=Halver M Borel (ID: 17134246/0x010572A6))
 46: 0x0125 [0x80] LOAD_WAIT(entity=Radford (ID: 17134243/0x010572A3))
 47: 0x012A [0x1C] WAIT(30* ticks)
 48: 0x012D [0x4E] SET_ENTITY_HIDE_FLAG: Show Radford (ID: 17134243/0x010572A3)
 49: 0x0133 [0x79] LocalPlayer looks at LocalPlayer (Basic look)
 50: 0x013D [0x7B] Lilisette (ID: 17134245/0x010572A5) stops talking
 51: 0x0142 [0x7B] Halver M Borel (ID: 17134246/0x010572A6) stops talking
 52: 0x0147 [0x7B] Radford (ID: 17134243/0x010572A3) stops talking
 53: 0x014C [0x4A] Radford (ID: 17134243/0x010572A3) looks at ??? (ID: 17134254/0x010572AE)
 54: 0x0155 [0x6F] WAIT_FRAME_DELAY: Yield until WaitTime reaches zero
 55: 0x0156 [0x76] CHECK_ENTITY_RENDER_FLAGS: Wait until Radford (ID: 17134243/0x010572A3) Render.Flags0 and Render.Flags3 conditions are met
 56: 0x015B [0x45] LOAD_SCHEDULED_TASK: Load scheduler "sa00" with entities [LocalPlayer, LocalPlayer], work=[440*, 0*]
 57: 0x016C [0x1A] CALL_SUBROUTINE(address=0x359E)
 58: 0x016F [0x1C] WAIT(80* ticks)
 59: 0x0172 [0x27] REQ_SET(priority=0x10, entity_id=Halver M Borel (ID: 17134246/0x010572A6), tag_num=0x0A)
 60: 0x0179 [0x1C] WAIT(10* ticks)
 61: 0x017C [0x27] REQ_SET(priority=0x10, entity_id=LocalPlayer, tag_num=0x49)
 62: 0x0183 [0x1C] WAIT(15* ticks)
 63: 0x0186 [0x27] REQ_SET(priority=0x10, entity_id=Lilisette (ID: 17134245/0x010572A5), tag_num=0x13)
 64: 0x018D [0x1C] WAIT(10* ticks)
 65: 0x0190 [0x52] END_LOAD_SCHEDULER: End scheduler "sa00" with entities [LocalPlayer, LocalPlayer], work=440*
 66: 0x019F [0x45] LOAD_SCHEDULED_TASK: Load scheduler "sa01" with entities [LocalPlayer, LocalPlayer], work=[440*, 0*]
 67: 0x01B0 [0x1C] WAIT(80* ticks)
 68: 0x01B3 [0x79] Radford (ID: 17134243/0x010572A3) looks at Halver M Borel (ID: 17134246/0x010572A6) (Basic look)
 69: 0x01BD [0x6F] WAIT_FRAME_DELAY: Yield until WaitTime reaches zero
 70: 0x01BE [0x76] CHECK_ENTITY_RENDER_FLAGS: Wait until Radford (ID: 17134243/0x010572A3) Render.Flags0 and Render.Flags3 conditions are met
 71: 0x01C3 [0x66] LOAD_EXT_SCHEDULER_MAIN: Load scheduler "kba2" with entities [Radford (ID: 17134243/0x010572A3), Radford (ID: 17134243/0x010572A3)], work=2*
 72: 0x01D2 [0x2B] Radford (ID: 17134243/0x010572A3) [13576*]:
    → "My dear Count Borel, it is good to see you again!"
 73: 0x01D9 [0x23] WAIT_FOR_DIALOG_INTERACTION
 74: 0x01DA [0x1C] WAIT(30* ticks)
 75: 0x01DD [0x53] WAIT_SCHEDULER_TASK: Wait for scheduler "kba2" with entities [Radford (ID: 17134243/0x010572A3), Radford (ID: 17134243/0x010572A3)]
 76: 0x01EA [0x52] END_LOAD_SCHEDULER: End scheduler "sa01" with entities [LocalPlayer, LocalPlayer], work=440*
 77: 0x01F9 [0x45] LOAD_SCHEDULED_TASK: Load scheduler "sa02" with entities [LocalPlayer, LocalPlayer], work=[440*, 0*]
 78: 0x020A [0x6F] WAIT_FRAME_DELAY: Yield until WaitTime reaches zero
 79: 0x020B [0x76] CHECK_ENTITY_RENDER_FLAGS: Wait until Radford (ID: 17134243/0x010572A3) Render.Flags0 and Render.Flags3 conditions are met
 80: 0x0210 [0x2B] Radford (ID: 17134243/0x010572A3) [13577*]:
    → "We had received word that you would be coming."
 81: 0x0217 [0x23] WAIT_FOR_DIALOG_INTERACTION
 82: 0x0218 [0x1C] WAIT(30* ticks)
 83: 0x021B [0x52] END_LOAD_SCHEDULER: End scheduler "sa02" with entities [LocalPlayer, LocalPlayer], work=440*
 84: 0x022A [0x45] LOAD_SCHEDULED_TASK: Load scheduler "sa03" with entities [LocalPlayer, LocalPlayer], work=[440*, 0*]
 85: 0x023B [0x66] LOAD_EXT_SCHEDULER_MAIN: Load scheduler "tlk0" with entities [Halver M Borel (ID: 17134246/0x010572A6), Halver M Borel (ID: 17134246/0x010572A6)], work=29*
 86: 0x024A [0x2B] Halver M Borel (ID: 17134246/0x010572A6) [13578*]:
    → "Good to see you also, Radford. My apologies for the late notice. And pray excuse my brashness, but time is of the essence. How soon may we present ourselves to His Excellency?"
 87: 0x0251 [0x23] WAIT_FOR_DIALOG_INTERACTION
 88: 0x0252 [0x1C] WAIT(30* ticks)
 89: 0x0255 [0x66] LOAD_EXT_SCHEDULER_MAIN: Load scheduler "tlk1" with entities [Halver M Borel (ID: 17134246/0x010572A6), Halver M Borel (ID: 17134246/0x010572A6)], work=29*
 90: 0x0264 [0x52] END_LOAD_SCHEDULER: End scheduler "sa03" with entities [LocalPlayer, LocalPlayer], work=440*
 91: 0x0273 [0x45] LOAD_SCHEDULED_TASK: Load scheduler "sa04" with entities [LocalPlayer, LocalPlayer], work=[440*, 0*]
 92: 0x0284 [0x66] LOAD_EXT_SCHEDULER_MAIN: Load scheduler "ksk0" with entities [Radford (ID: 17134243/0x010572A3), Radford (ID: 17134243/0x010572A3)], work=2*
 93: 0x0293 [0x2B] Radford (ID: 17134243/0x010572A3) [13579*]:
    → "Word of your arrival has already reached the president's ears. This way, please."
 94: 0x029A [0x23] WAIT_FOR_DIALOG_INTERACTION
 95: 0x029B [0x1C] WAIT(30* ticks)
 96: 0x029E [0x53] WAIT_SCHEDULER_TASK: Wait for scheduler "ksk0" with entities [Radford (ID: 17134243/0x010572A3), Radford (ID: 17134243/0x010572A3)]
 97: 0x02AB [0x52] END_LOAD_SCHEDULER: End scheduler "sa04" with entities [LocalPlayer, LocalPlayer], work=440*
 98: 0x02BA [0x45] LOAD_SCHEDULED_TASK: Load scheduler "sa05" with entities [LocalPlayer, LocalPlayer], work=[440*, 0*]
 99: 0x02CB [0x4B] UPDATE_ENTITY_YAW(entity=Radford (ID: 17134243/0x010572A3), yaw=3.7°*)
100: 0x02D2 [0x7B] Radford (ID: 17134243/0x010572A3) stops talking
101: 0x02D7 [0x6F] WAIT_FRAME_DELAY: Yield until WaitTime reaches zero
102: 0x02D8 [0x76] CHECK_ENTITY_RENDER_FLAGS: Wait until Radford (ID: 17134243/0x010572A3) Render.Flags0 and Render.Flags3 conditions are met
103: 0x02DD [0x27] REQ_SET(priority=0x10, entity_id=Radford (ID: 17134243/0x010572A3), tag_num=0x06)
104: 0x02E4 [0x7B] Halver M Borel (ID: 17134246/0x010572A6) stops talking
105: 0x02E9 [0x27] REQ_SET(priority=0x10, entity_id=Halver M Borel (ID: 17134246/0x010572A6), tag_num=0x0B)
106: 0x02F0 [0x1C] WAIT(10* ticks)
107: 0x02F3 [0x7B] LocalPlayer stops talking
108: 0x02F8 [0x27] REQ_SET(priority=0x10, entity_id=LocalPlayer, tag_num=0x4A)
109: 0x02FF [0x1C] WAIT(15* ticks)
110: 0x0302 [0x7B] Lilisette (ID: 17134245/0x010572A5) stops talking
111: 0x0307 [0x27] REQ_SET(priority=0x10, entity_id=Lilisette (ID: 17134245/0x010572A5), tag_num=0x14)
112: 0x030E [0x1C] WAIT(10* ticks)
113: 0x0311 [0x1C] WAIT(60* ticks)
114: 0x0314 [0x1A] CALL_SUBROUTINE(address=0x35BF)
115: 0x0317 [0x52] END_LOAD_SCHEDULER: End scheduler "sa05" with entities [LocalPlayer, LocalPlayer], work=440*
116: 0x0326 [0x2A] GET_REQ_LEVEL(level=16, entity_id=Radford (ID: 17134243/0x010572A3))
117: 0x032C [0x2A] GET_REQ_LEVEL(level=16, entity_id=Halver M Borel (ID: 17134246/0x010572A6))
118: 0x0332 [0x2A] GET_REQ_LEVEL(level=16, entity_id=LocalPlayer)
119: 0x0338 [0x2A] GET_REQ_LEVEL(level=16, entity_id=Lilisette (ID: 17134245/0x010572A5))
120: 0x033E [0x34] LOAD_UNLOAD_ZONE(zone_id=237*)
121: 0x0341 [0x77] SET_EVENT_TIME_WEATHER(hour=255*, weather=1*)
122: 0x0346 [0x1C] WAIT(30* ticks)
123: 0x0349 [0xAB] EventEntity->UnknownFlag = 1 // Enable unknown flag
124: 0x034B [0x75] LOAD_ROOM(Load indoor room, room=303*)
125: 0x034F [0x75] LOAD_ROOM(No action)
126: 0x0351 [0xBA] SET_ENTITY_POSITION(entity_id=LocalPlayer, pos_x=69.821*, pos_z=-0.789*, pos_y=-15.457*, direction=0.0°*)
127: 0x035E [0xBA] SET_ENTITY_POSITION(entity_id=Lilisette (ID: 17134245/0x010572A5), pos_x=70.839*, pos_z=0.968*, pos_y=-16.121*, direction=0.0°*)
128: 0x036B [0xBA] SET_ENTITY_POSITION(entity_id=Halver M Borel (ID: 17134246/0x010572A6), pos_x=72.353*, pos_z=-0.202*, pos_y=-17.101*, direction=0.0°*)
129: 0x0378 [0xBA] SET_ENTITY_POSITION(entity_id=Radford (ID: 17134243/0x010572A3), pos_x=75.590*, pos_z=-0.136*, pos_y=-17.996*, direction=0.0°*)
130: 0x0385 [0xBA] SET_ENTITY_POSITION(entity_id=Prien (ID: 17134065/0x010571F1), pos_x=106.855*, pos_z=0.000*, pos_y=-20.265*, direction=175.8°*)
131: 0x0392 [0xBA] SET_ENTITY_POSITION(entity_id=Maximilian Berger (ID: 17134247/0x010572A7), pos_x=109.643*, pos_z=1.706*, pos_y=-20.290*, direction=175.8°*)
132: 0x039F [0xBA] SET_ENTITY_POSITION(entity_id=Else (ID: 17134248/0x010572A8), pos_x=109.643*, pos_z=2.978*, pos_y=-20.170*, direction=175.8°*)
133: 0x03AC [0xBA] SET_ENTITY_POSITION(entity_id=Ludwig Eichberg (ID: 17134249/0x010572A9), pos_x=109.643*, pos_z=-2.025*, pos_y=-20.290*, direction=175.8°*)
134: 0x03B9 [0xBA] SET_ENTITY_POSITION(entity_id=Striking Bull (ID: 17134250/0x010572AA), pos_x=109.643*, pos_z=-3.600*, pos_y=-20.290*, direction=175.8°*)
135: 0x03C6 [0xBA] SET_ENTITY_POSITION(entity_id=Invincible Shield (ID: 17134251/0x010572AB), pos_x=109.643*, pos_z=4.695*, pos_y=-20.290*, direction=175.8°*)
136: 0x03D3 [0xBA] SET_ENTITY_POSITION(entity_id=??? (ID: 17134254/0x010572AE), pos_x=102.333*, pos_z=0.000*, pos_y=-20.170*, direction=0.0°*)
137: 0x03E0 [0x48] [System] [12900*]:
    → "@@"
138: 0x03E3 [0x23] WAIT_FOR_DIALOG_INTERACTION
139: 0x03E4 [0x80] LOAD_WAIT(entity=LocalPlayer)
140: 0x03E9 [0x80] LOAD_WAIT(entity=Lilisette (ID: 17134245/0x010572A5))
141: 0x03EE [0x80] LOAD_WAIT(entity=Halver M Borel (ID: 17134246/0x010572A6))
142: 0x03F3 [0x80] LOAD_WAIT(entity=Radford (ID: 17134243/0x010572A3))
143: 0x03F8 [0x80] LOAD_WAIT(entity=Prien (ID: 17134065/0x010571F1))
144: 0x03FD [0x80] LOAD_WAIT(entity=Maximilian Berger (ID: 17134247/0x010572A7))
145: 0x0402 [0x80] LOAD_WAIT(entity=Else (ID: 17134248/0x010572A8))
146: 0x0407 [0x80] LOAD_WAIT(entity=Ludwig Eichberg (ID: 17134249/0x010572A9))
147: 0x040C [0x80] LOAD_WAIT(entity=Striking Bull (ID: 17134250/0x010572AA))
148: 0x0411 [0x80] LOAD_WAIT(entity=Invincible Shield (ID: 17134251/0x010572AB))
149: 0x0416 [0x4A] Maximilian Berger (ID: 17134247/0x010572A7) looks at ??? (ID: 17134254/0x010572AE)
150: 0x041F [0x4A] Else (ID: 17134248/0x010572A8) looks at ??? (ID: 17134254/0x010572AE)
151: 0x0428 [0x4A] Ludwig Eichberg (ID: 17134249/0x010572A9) looks at ??? (ID: 17134254/0x010572AE)
152: 0x0431 [0x4A] Striking Bull (ID: 17134250/0x010572AA) looks at ??? (ID: 17134254/0x010572AE)
153: 0x043A [0x4A] Invincible Shield (ID: 17134251/0x010572AB) looks at ??? (ID: 17134254/0x010572AE)
154: 0x0443 [0x79] LocalPlayer looks at LocalPlayer (Basic look)
155: 0x044D [0x7B] Lilisette (ID: 17134245/0x010572A5) stops talking
156: 0x0452 [0x7B] Halver M Borel (ID: 17134246/0x010572A6) stops talking
157: 0x0457 [0x7B] Radford (ID: 17134243/0x010572A3) stops talking
158: 0x045C [0x7B] Prien (ID: 17134065/0x010571F1) stops talking
159: 0x0461 [0x7B] Maximilian Berger (ID: 17134247/0x010572A7) stops talking
160: 0x0466 [0x7B] Else (ID: 17134248/0x010572A8) stops talking
161: 0x046B [0x7B] Ludwig Eichberg (ID: 17134249/0x010572A9) stops talking
162: 0x0470 [0x7B] Striking Bull (ID: 17134250/0x010572AA) stops talking
163: 0x0475 [0x7B] Invincible Shield (ID: 17134251/0x010572AB) stops talking
164: 0x047A [0x45] LOAD_SCHEDULED_TASK: Load scheduler "sa06" with entities [LocalPlayer, LocalPlayer], work=[440*, 0*]
165: 0x048B [0x1A] CALL_SUBROUTINE(address=0x359E)
166: 0x048E [0x1C] WAIT(200* ticks)
167: 0x0491 [0x27] REQ_SET(priority=0x10, entity_id=Radford (ID: 17134243/0x010572A3), tag_num=0x07)
168: 0x0498 [0x1C] WAIT(10* ticks)
169: 0x049B [0x27] REQ_SET(priority=0x10, entity_id=Halver M Borel (ID: 17134246/0x010572A6), tag_num=0x0C)
170: 0x04A2 [0x1C] WAIT(10* ticks)
171: 0x04A5 [0x27] REQ_SET(priority=0x10, entity_id=LocalPlayer, tag_num=0x4B)
172: 0x04AC [0x1C] WAIT(15* ticks)
173: 0x04AF [0x27] REQ_SET(priority=0x10, entity_id=Lilisette (ID: 17134245/0x010572A5), tag_num=0x15)
174: 0x04B6 [0x1C] WAIT(315* ticks)
175: 0x04B9 [0x1C] WAIT(40* ticks)
176: 0x04BC [0x52] END_LOAD_SCHEDULER: End scheduler "sa06" with entities [LocalPlayer, LocalPlayer], work=440*
177: 0x04CB [0x45] LOAD_SCHEDULED_TASK: Load scheduler "sa08" with entities [LocalPlayer, LocalPlayer], work=[440*, 0*]
178: 0x04DC [0x7A] VM_CONTROL: Reset VM for Radford (ID: 17134243/0x010572A3)
179: 0x04E2 [0x7A] VM_CONTROL: Reset VM for Halver M Borel (ID: 17134246/0x010572A6)
180: 0x04E8 [0x7A] VM_CONTROL: Reset VM for LocalPlayer
181: 0x04EE [0x7A] VM_CONTROL: Reset VM for Lilisette (ID: 17134245/0x010572A5)
182: 0x04F4 [0xBA] SET_ENTITY_POSITION(entity_id=LocalPlayer, pos_x=89.173*, pos_z=-0.887*, pos_y=-19.532*, direction=0.0°*)
183: 0x0501 [0xBA] SET_ENTITY_POSITION(entity_id=Lilisette (ID: 17134245/0x010572A5), pos_x=89.887*, pos_z=1.133*, pos_y=-19.532*, direction=0.0°*)
184: 0x050E [0xBA] SET_ENTITY_POSITION(entity_id=Halver M Borel (ID: 17134246/0x010572A6), pos_x=91.872*, pos_z=0.051*, pos_y=-19.532*, direction=0.0°*)
185: 0x051B [0xBA] SET_ENTITY_POSITION(entity_id=Radford (ID: 17134243/0x010572A3), pos_x=94.484*, pos_z=0.042*, pos_y=-20.168*, direction=0.0°*)
186: 0x0528 [0x80] LOAD_WAIT(entity=LocalPlayer)
187: 0x052D [0x80] LOAD_WAIT(entity=Lilisette (ID: 17134245/0x010572A5))
188: 0x0532 [0x80] LOAD_WAIT(entity=Halver M Borel (ID: 17134246/0x010572A6))
189: 0x0537 [0x80] LOAD_WAIT(entity=Radford (ID: 17134243/0x010572A3))
190: 0x053C [0x1C] WAIT(30* ticks)
191: 0x053F [0x27] REQ_SET(priority=0x0F, entity_id=Unnamed NPC (ID: 17134146/0x01057242), tag_num=0x03)
192: 0x0546 [0x1C] WAIT(50* ticks)
193: 0x0549 [0x2A] GET_REQ_LEVEL(level=15, entity_id=Unnamed NPC (ID: 17134146/0x01057242))
194: 0x054F [0x27] REQ_SET(priority=0x10, entity_id=Radford (ID: 17134243/0x010572A3), tag_num=0x08)
195: 0x0556 [0x2A] GET_REQ_LEVEL(level=16, entity_id=Radford (ID: 17134243/0x010572A3))
196: 0x055C [0x66] LOAD_EXT_SCHEDULER_MAIN: Load scheduler "kba2" with entities [Radford (ID: 17134243/0x010572A3), Radford (ID: 17134243/0x010572A3)], work=2*
197: 0x056B [0x79] Prien (ID: 17134065/0x010571F1) looks at ??? (ID: 17134254/0x010572AE) (Basic look)
198: 0x0575 [0x53] WAIT_SCHEDULER_TASK: Wait for scheduler "kba2" with entities [Radford (ID: 17134243/0x010572A3), Radford (ID: 17134243/0x010572A3)]
199: 0x0582 [0x52] END_LOAD_SCHEDULER: End scheduler "sa08" with entities [LocalPlayer, LocalPlayer], work=440*
200: 0x0591 [0x45] LOAD_SCHEDULED_TASK: Load scheduler "sa09" with entities [LocalPlayer, LocalPlayer], work=[440*, 0*]
201: 0x05A2 [0x1C] WAIT(200* ticks)
202: 0x05A5 [0x6E] Prien (ID: 17134065/0x010571F1) uses emote 7*
203: 0x05AC [0x99] Wait for Prien (ID: 17134065/0x010571F1) animation to complete
204: 0x05B1 [0x1C] WAIT(130* ticks)
205: 0x05B4 [0x52] END_LOAD_SCHEDULER: End scheduler "sa09" with entities [LocalPlayer, LocalPlayer], work=440*
206: 0x05C3 [0x45] LOAD_SCHEDULED_TASK: Load scheduler "sa11" with entities [LocalPlayer, LocalPlayer], work=[440*, 0*]
207: 0x05D4 [0x7B] Radford (ID: 17134243/0x010572A3) stops talking
208: 0x05D9 [0x27] REQ_SET(priority=0x10, entity_id=Radford (ID: 17134243/0x010572A3), tag_num=0x09)
209: 0x05E0 [0x1C] WAIT(80* ticks)
210: 0x05E3 [0x4A] Prien (ID: 17134065/0x010571F1) looks at ??? (ID: 17134254/0x010572AE)
211: 0x05EC [0x1C] WAIT(50* ticks)
212: 0x05EF [0x52] END_LOAD_SCHEDULER: End scheduler "sa11" with entities [LocalPlayer, LocalPlayer], work=440*
213: 0x05FE [0x45] LOAD_SCHEDULED_TASK: Load scheduler "sa12" with entities [LocalPlayer, LocalPlayer], work=[440*, 0*]
214: 0x060F [0x27] REQ_SET(priority=0x10, entity_id=Halver M Borel (ID: 17134246/0x010572A6), tag_num=0x0D)
215: 0x0616 [0x1C] WAIT(30* ticks)
216: 0x0619 [0x27] REQ_SET(priority=0x10, entity_id=Lilisette (ID: 17134245/0x010572A5), tag_num=0x16)
217: 0x0620 [0x1C] WAIT(50* ticks)
218: 0x0623 [0x27] REQ_SET(priority=0x10, entity_id=LocalPlayer, tag_num=0x4C)
219: 0x062A [0x2A] GET_REQ_LEVEL(level=16, entity_id=Halver M Borel (ID: 17134246/0x010572A6))
220: 0x0630 [0x1C] WAIT(60* ticks)
221: 0x0633 [0x27] REQ_SET(priority=0x10, entity_id=??? (ID: 17134254/0x010572AE), tag_num=0x04)
222: 0x063A [0x1C] WAIT(30* ticks)
223: 0x063D [0x52] END_LOAD_SCHEDULER: End scheduler "sa12" with entities [LocalPlayer, LocalPlayer], work=440*
224: 0x064C [0x45] LOAD_SCHEDULED_TASK: Load scheduler "sa13" with entities [LocalPlayer, LocalPlayer], work=[440*, 0*]
225: 0x065D [0x2B] Prien (ID: 17134065/0x010571F1) [13580*]:
    → "Welcome to our fair republic."
226: 0x0664 [0x23] WAIT_FOR_DIALOG_INTERACTION
227: 0x0665 [0x1C] WAIT(30* ticks)
228: 0x0668 [0x52] END_LOAD_SCHEDULER: End scheduler "sa13" with entities [LocalPlayer, LocalPlayer], work=440*
229: 0x0677 [0x45] LOAD_SCHEDULED_TASK: Load scheduler "sa14" with entities [LocalPlayer, LocalPlayer], work=[440*, 0*]
230: 0x0688 [0x2B] Prien (ID: 17134065/0x010571F1) [13581*]:
    → "It is my understanding that you bring a matter of grave importance to this discussion table. I hope you don't mind my legati taking part."
231: 0x068F [0x23] WAIT_FOR_DIALOG_INTERACTION
232: 0x0690 [0x1C] WAIT(30* ticks)
233: 0x0693 [0x2A] GET_REQ_LEVEL(level=16, entity_id=??? (ID: 17134254/0x010572AE))
234: 0x0699 [0x55] WAIT_LOAD_SCHEDULER: Wait for scheduler "sa14" with entities [LocalPlayer, LocalPlayer], work=440*
235: 0x06A8 [0x52] END_LOAD_SCHEDULER: End scheduler "sa14" with entities [LocalPlayer, LocalPlayer], work=440*
236: 0x06B7 [0x45] LOAD_SCHEDULED_TASK: Load scheduler "sa15" with entities [LocalPlayer, LocalPlayer], work=[440*, 0*]
237: 0x06C8 [0x27] REQ_SET(priority=0x10, entity_id=??? (ID: 17134254/0x010572AE), tag_num=0x0A)
238: 0x06CF [0x2B] Halver M Borel (ID: 17134246/0x010572A6) [13582*]:
    → "No, not at all, Your Excellency. Now, if you'll allow me to explain the events which have led to this sudden visit..."
239: 0x06D6 [0x23] WAIT_FOR_DIALOG_INTERACTION
240: 0x06D7 [0x1C] WAIT(30* ticks)
241: 0x06DA [0x2A] GET_REQ_LEVEL(level=16, entity_id=??? (ID: 17134254/0x010572AE))
242: 0x06E0 [0x1A] CALL_SUBROUTINE(address=0x35BF)
243: 0x06E3 [0x52] END_LOAD_SCHEDULER: End scheduler "sa15" with entities [LocalPlayer, LocalPlayer], work=440*
244: 0x06F2 [0x4E] SET_ENTITY_HIDE_FLAG: Hide Radford (ID: 17134243/0x010572A3)
245: 0x06F8 [0x1C] WAIT(160* ticks)
246: 0x06FB [0x48] [System] [12900*]:
    → "@@"
247: 0x06FE [0x23] WAIT_FOR_DIALOG_INTERACTION
248: 0x06FF [0x1C] WAIT(190* ticks)
249: 0x0702 [0x45] LOAD_SCHEDULED_TASK: Load scheduler "sa16" with entities [LocalPlayer, LocalPlayer], work=[440*, 0*]
250: 0x0713 [0x1A] CALL_SUBROUTINE(address=0x359E)
251: 0x0716 [0x27] REQ_SET(priority=0x10, entity_id=??? (ID: 17134254/0x010572AE), tag_num=0x06)
252: 0x071D [0x2B] Prien (ID: 17134065/0x010571F1) [13583*]:
    → "...Jeuno is to surrender?"
253: 0x0724 [0x23] WAIT_FOR_DIALOG_INTERACTION
254: 0x0725 [0x7B] Prien (ID: 17134065/0x010571F1) stops talking
255: 0x072A [0x1C] WAIT(30* ticks)
256: 0x072D [0x2A] GET_REQ_LEVEL(level=16, entity_id=??? (ID: 17134254/0x010572AE))
257: 0x0733 [0x52] END_LOAD_SCHEDULER: End scheduler "sa16" with entities [LocalPlayer, LocalPlayer], work=440*
258: 0x0742 [0x45] LOAD_SCHEDULED_TASK: Load scheduler "sa17" with entities [LocalPlayer, LocalPlayer], work=[440*, 0*]
259: 0x0753 [0x66] LOAD_EXT_SCHEDULER_MAIN: Load scheduler "thk1" with entities [Prien (ID: 17134065/0x010571F1), Prien (ID: 17134065/0x010571F1)], work=9*
260: 0x0762 [0x2B] Prien (ID: 17134065/0x010571F1) [13584*]:
    → "That the very architect of the alliance could have had such a drastic change of heart is inconceivable..."
261: 0x0769 [0x23] WAIT_FOR_DIALOG_INTERACTION
262: 0x076A [0x1C] WAIT(30* ticks)
263: 0x076D [0x66] LOAD_EXT_SCHEDULER_MAIN: Load scheduler "thk2" with entities [Prien (ID: 17134065/0x010571F1), Prien (ID: 17134065/0x010571F1)], work=9*
264: 0x077C [0x52] END_LOAD_SCHEDULER: End scheduler "sa17" with entities [LocalPlayer, LocalPlayer], work=440*
265: 0x078B [0x45] LOAD_SCHEDULED_TASK: Load scheduler "sa18" with entities [LocalPlayer, LocalPlayer], work=[440*, 0*]
266: 0x079C [0x66] LOAD_EXT_SCHEDULER_MAIN: Load scheduler "tlk0" with entities [Halver M Borel (ID: 17134246/0x010572A6), Halver M Borel (ID: 17134246/0x010572A6)], work=29*
267: 0x07AB [0x2B] Halver M Borel (ID: 17134246/0x010572A6) [13585*]:
    → "On delivering the news to King Destin, Sir Nag'molada appended that the three nations, too, should make ready for unconditional surrender. Throwing down our swords, however, is the last thing on the mind of San d'Orians."
268: 0x07B2 [0x23] WAIT_FOR_DIALOG_INTERACTION
269: 0x07B3 [0x79] Prien (ID: 17134065/0x010571F1) looks at Halver M Borel (ID: 17134246/0x010572A6) (Basic look)
270: 0x07BD [0x1C] WAIT(30* ticks)
271: 0x07C0 [0x66] LOAD_EXT_SCHEDULER_MAIN: Load scheduler "tlk1" with entities [Halver M Borel (ID: 17134246/0x010572A6), Halver M Borel (ID: 17134246/0x010572A6)], work=29*
272: 0x07CF [0x52] END_LOAD_SCHEDULER: End scheduler "sa18" with entities [LocalPlayer, LocalPlayer], work=440*
273: 0x07DE [0x45] LOAD_SCHEDULED_TASK: Load scheduler "sa19" with entities [LocalPlayer, LocalPlayer], work=[440*, 0*]
274: 0x07EF [0x66] LOAD_EXT_SCHEDULER_MAIN: Load scheduler "twb0" with entities [Prien (ID: 17134065/0x010571F1), Prien (ID: 17134065/0x010571F1)], work=9*
275: 0x07FE [0x2B] Prien (ID: 17134065/0x010571F1) [13586*]:
    → "As it is ours."
276: 0x0805 [0x23] WAIT_FOR_DIALOG_INTERACTION
277: 0x0806 [0x1C] WAIT(30* ticks)
278: 0x0809 [0x66] LOAD_EXT_SCHEDULER_MAIN: Load scheduler "twb1" with entities [Prien (ID: 17134065/0x010571F1), Prien (ID: 17134065/0x010571F1)], work=9*
279: 0x0818 [0x52] END_LOAD_SCHEDULER: End scheduler "sa19" with entities [LocalPlayer, LocalPlayer], work=440*
280: 0x0827 [0x45] LOAD_SCHEDULED_TASK: Load scheduler "sa20" with entities [LocalPlayer, LocalPlayer], work=[440*, 0*]
281: 0x0838 [0x2B] Halver M Borel (ID: 17134246/0x010572A6) [13587*]:
    → "A Jeunoan surrender would have a calamitous effect on the war, and must be avoided no matter the cost. To this end, San d'Oria will dispatch a contingent of knights to aid in the Duchy's defense. And now, the Kingdom humbly asks that our ally, Bastok, too, lends soldiers to this most worthy of causes."
282: 0x083F [0x23] WAIT_FOR_DIALOG_INTERACTION
283: 0x0840 [0x79] Maximilian Berger (ID: 17134247/0x010572A7) looks at Prien (ID: 17134065/0x010571F1) (Basic look)
284: 0x084A [0x79] Else (ID: 17134248/0x010572A8) looks at Prien (ID: 17134065/0x010571F1) (Basic look)
285: 0x0854 [0x79] Ludwig Eichberg (ID: 17134249/0x010572A9) looks at Prien (ID: 17134065/0x010571F1) (Basic look)
286: 0x085E [0x79] Striking Bull (ID: 17134250/0x010572AA) looks at Prien (ID: 17134065/0x010571F1) (Basic look)
287: 0x0868 [0x79] Invincible Shield (ID: 17134251/0x010572AB) looks at Prien (ID: 17134065/0x010571F1) (Basic look)
288: 0x0872 [0x4A] Maximilian Berger (ID: 17134247/0x010572A7) looks at Prien (ID: 17134065/0x010571F1)
289: 0x087B [0x4A] Else (ID: 17134248/0x010572A8) looks at Prien (ID: 17134065/0x010571F1)
290: 0x0884 [0x4A] Ludwig Eichberg (ID: 17134249/0x010572A9) looks at Prien (ID: 17134065/0x010571F1)
291: 0x088D [0x4A] Striking Bull (ID: 17134250/0x010572AA) looks at Prien (ID: 17134065/0x010571F1)
292: 0x0896 [0x4A] Invincible Shield (ID: 17134251/0x010572AB) looks at Prien (ID: 17134065/0x010571F1)
293: 0x089F [0x1C] WAIT(50* ticks)
294: 0x08A2 [0x52] END_LOAD_SCHEDULER: End scheduler "sa20" with entities [LocalPlayer, LocalPlayer], work=440*
295: 0x08B1 [0x45] LOAD_SCHEDULED_TASK: Load scheduler "sa21" with entities [LocalPlayer, LocalPlayer], work=[440*, 0*]
296: 0x08C2 [0x1C] WAIT(30* ticks)
297: 0x08C5 [0x7B] Prien (ID: 17134065/0x010571F1) stops talking
298: 0x08CA [0x4B] UPDATE_ENTITY_YAW(entity=Prien (ID: 17134065/0x010571F1), yaw=0.0°*)
299: 0x08D1 [0x6F] WAIT_FRAME_DELAY: Yield until WaitTime reaches zero
300: 0x08D2 [0x76] CHECK_ENTITY_RENDER_FLAGS: Wait until Prien (ID: 17134065/0x010571F1) Render.Flags0 and Render.Flags3 conditions are met
301: 0x08D7 [0x1C] WAIT(80* ticks)
302: 0x08DA [0x66] LOAD_EXT_SCHEDULER_MAIN: Load scheduler "twb0" with entities [Prien (ID: 17134065/0x010571F1), Prien (ID: 17134065/0x010571F1)], work=9*
303: 0x08E9 [0x2B] Prien (ID: 17134065/0x010571F1) [13588*]:
    → "What say you all?"
304: 0x08F0 [0x23] WAIT_FOR_DIALOG_INTERACTION
305: 0x08F1 [0x1C] WAIT(30* ticks)
306: 0x08F4 [0x66] LOAD_EXT_SCHEDULER_MAIN: Load scheduler "twb1" with entities [Prien (ID: 17134065/0x010571F1), Prien (ID: 17134065/0x010571F1)], work=9*
307: 0x0903 [0x6F] WAIT_FRAME_DELAY: Yield until WaitTime reaches zero
308: 0x0904 [0x76] CHECK_ENTITY_RENDER_FLAGS: Wait until Invincible Shield (ID: 17134251/0x010572AB) Render.Flags0 and Render.Flags3 conditions are met
309: 0x0909 [0x52] END_LOAD_SCHEDULER: End scheduler "sa21" with entities [LocalPlayer, LocalPlayer], work=440*
310: 0x0918 [0x45] LOAD_SCHEDULED_TASK: Load scheduler "sa22" with entities [LocalPlayer, LocalPlayer], work=[440*, 0*]
311: 0x0929 [0x27] REQ_SET(priority=0x10, entity_id=??? (ID: 17134254/0x010572AE), tag_num=0x07)
312: 0x0930 [0x66] LOAD_EXT_SCHEDULER_MAIN: Load scheduler "twa0" with entities [Ludwig Eichberg (ID: 17134249/0x010572A9), Ludwig Eichberg (ID: 17134249/0x010572A9)], work=9*
313: 0x093F [0x2B] Ludwig Eichberg (ID: 17134249/0x010572A9) [13589*]:
    → "As much as we'd like to rush to Jeuno's aid, to put it bluntly, we haven't the capacity to do so. We've incurred heavy losses over the course of this accursed war. Any further dints to our rank, and we'd have no choice but to consider conscripting civilians."
314: 0x0946 [0x23] WAIT_FOR_DIALOG_INTERACTION
315: 0x0947 [0x1C] WAIT(30* ticks)
316: 0x094A [0x2A] GET_REQ_LEVEL(level=16, entity_id=??? (ID: 17134254/0x010572AE))
317: 0x0950 [0x66] LOAD_EXT_SCHEDULER_MAIN: Load scheduler "twa1" with entities [Ludwig Eichberg (ID: 17134249/0x010572A9), Ludwig Eichberg (ID: 17134249/0x010572A9)], work=9*
318: 0x095F [0x52] END_LOAD_SCHEDULER: End scheduler "sa22" with entities [LocalPlayer, LocalPlayer], work=440*
319: 0x096E [0x45] LOAD_SCHEDULED_TASK: Load scheduler "sa23" with entities [LocalPlayer, LocalPlayer], work=[440*, 0*]
320: 0x097F [0x1C] WAIT(15* ticks)
321: 0x0982 [0x79] Maximilian Berger (ID: 17134247/0x010572A7) looks at Ludwig Eichberg (ID: 17134249/0x010572A9) (Basic look)
322: 0x098C [0x1C] WAIT(60* ticks)
323: 0x098F [0x27] REQ_SET(priority=0x10, entity_id=??? (ID: 17134254/0x010572AE), tag_num=0x08)
324: 0x0996 [0x79] Prien (ID: 17134065/0x010571F1) looks at Maximilian Berger (ID: 17134247/0x010572A7) (Basic look)
325: 0x09A0 [0x2B] Maximilian Berger (ID: 17134247/0x010572A7) [13590*]:
    → "I must concur. In our current state, sending away even a small contingent of soldiers would be tantamount to cutting off our own sword arms on the eve of battle."
326: 0x09A7 [0x23] WAIT_FOR_DIALOG_INTERACTION
327: 0x09A8 [0x5B] LOAD_EXT_SCHEDULER: Load scheduler "fh01" with entities [Lilisette (ID: 17134245/0x010572A5), Lilisette (ID: 17134245/0x010572A5)], work=2135*
328: 0x09B7 [0x5B] LOAD_EXT_SCHEDULER: Load scheduler "utu0" with entities [Lilisette (ID: 17134245/0x010572A5), Lilisette (ID: 17134245/0x010572A5)], work=2137*
329: 0x09C6 [0x1C] WAIT(30* ticks)
330: 0x09C9 [0x2A] GET_REQ_LEVEL(level=16, entity_id=??? (ID: 17134254/0x010572AE))
331: 0x09CF [0x52] END_LOAD_SCHEDULER: End scheduler "sa23" with entities [LocalPlayer, LocalPlayer], work=440*
332: 0x09DE [0x45] LOAD_SCHEDULED_TASK: Load scheduler "sa24" with entities [LocalPlayer, LocalPlayer], work=[440*, 0*]
333: 0x09EF [0x79] Maximilian Berger (ID: 17134247/0x010572A7) looks at Prien (ID: 17134065/0x010571F1) (Basic look)
334: 0x09F9 [0x79] Ludwig Eichberg (ID: 17134249/0x010572A9) looks at Prien (ID: 17134065/0x010571F1) (Basic look)
335: 0x0A03 [0x2B] Lilisette (ID: 17134245/0x010572A5) [13591*]:
    → "But, but..."
336: 0x0A0A [0x23] WAIT_FOR_DIALOG_INTERACTION
337: 0x0A0B [0x53] WAIT_SCHEDULER_TASK: Wait for scheduler "utu0" with entities [Lilisette (ID: 17134245/0x010572A5), Lilisette (ID: 17134245/0x010572A5)]
338: 0x0A18 [0x5B] LOAD_EXT_SCHEDULER: Load scheduler "fh00" with entities [Lilisette (ID: 17134245/0x010572A5), Lilisette (ID: 17134245/0x010572A5)], work=2135*
339: 0x0A27 [0x1C] WAIT(30* ticks)
340: 0x0A2A [0x52] END_LOAD_SCHEDULER: End scheduler "sa24" with entities [LocalPlayer, LocalPlayer], work=440*
341: 0x0A39 [0x45] LOAD_SCHEDULED_TASK: Load scheduler "sa25" with entities [LocalPlayer, LocalPlayer], work=[440*, 0*]
342: 0x0A4A [0x5B] LOAD_EXT_SCHEDULER: Load scheduler "f000" with entities [Lilisette (ID: 17134245/0x010572A5), Lilisette (ID: 17134245/0x010572A5)], work=2135*
343: 0x0A59 [0x5B] LOAD_EXT_SCHEDULER: Load scheduler "utu1" with entities [Lilisette (ID: 17134245/0x010572A5), Lilisette (ID: 17134245/0x010572A5)], work=2137*
344: 0x0A68 [0x27] REQ_SET(priority=0x10, entity_id=??? (ID: 17134254/0x010572AE), tag_num=0x09)
345: 0x0A6F [0x66] LOAD_EXT_SCHEDULER_MAIN: Load scheduler "tlk0" with entities [Invincible Shield (ID: 17134251/0x010572AB), Invincible Shield (ID: 17134251/0x010572AB)], work=69*
346: 0x0A7E [0x2B] Invincible Shield (ID: 17134251/0x010572AB) [13592*]:
    → "The Fourth Division, too, suffers from a severe shortage of hands. Countless Republican soldiers--good men and women--were felled at the Battle of Grauberg. Grave though the situation in Jeuno may be, I fear we have no soldiers to spare. However..."
347: 0x0A85 [0x23] WAIT_FOR_DIALOG_INTERACTION
348: 0x0A86 [0x1C] WAIT(30* ticks)
349: 0x0A89 [0x2A] GET_REQ_LEVEL(level=16, entity_id=??? (ID: 17134254/0x010572AE))
350: 0x0A8F [0x66] LOAD_EXT_SCHEDULER_MAIN: Load scheduler "tlk1" with entities [Invincible Shield (ID: 17134251/0x010572AB), Invincible Shield (ID: 17134251/0x010572AB)], work=69*
351: 0x0A9E [0x52] END_LOAD_SCHEDULER: End scheduler "sa25" with entities [LocalPlayer, LocalPlayer], work=440*
352: 0x0AAD [0x45] LOAD_SCHEDULED_TASK: Load scheduler "sa26" with entities [LocalPlayer, LocalPlayer], work=[440*, 0*]
353: 0x0ABE [0x79] Prien (ID: 17134065/0x010571F1) looks at Halver M Borel (ID: 17134246/0x010572A6) (Basic look)
354: 0x0AC8 [0x4A] Prien (ID: 17134065/0x010571F1) looks at Halver M Borel (ID: 17134246/0x010572A6)
355: 0x0AD1 [0x79] Maximilian Berger (ID: 17134247/0x010572A7) looks at Halver M Borel (ID: 17134246/0x010572A6) (Basic look)
356: 0x0ADB [0x79] Else (ID: 17134248/0x010572A8) looks at Halver M Borel (ID: 17134246/0x010572A6) (Basic look)
357: 0x0AE5 [0x79] Ludwig Eichberg (ID: 17134249/0x010572A9) looks at Halver M Borel (ID: 17134246/0x010572A6) (Basic look)
358: 0x0AEF [0x79] Striking Bull (ID: 17134250/0x010572AA) looks at Halver M Borel (ID: 17134246/0x010572A6) (Basic look)
359: 0x0AF9 [0x79] Invincible Shield (ID: 17134251/0x010572AB) looks at Halver M Borel (ID: 17134246/0x010572A6) (Basic look)
360: 0x0B03 [0x6F] WAIT_FRAME_DELAY: Yield until WaitTime reaches zero
361: 0x0B04 [0x76] CHECK_ENTITY_RENDER_FLAGS: Wait until Prien (ID: 17134065/0x010571F1) Render.Flags0 and Render.Flags3 conditions are met
362: 0x0B09 [0x2B] Prien (ID: 17134065/0x010571F1) [13593*]:
    → "It pains me to have to say this, Count Borel. But given the circumstances, Bastok cannot answer the call."
363: 0x0B10 [0x23] WAIT_FOR_DIALOG_INTERACTION
364: 0x0B11 [0x1C] WAIT(30* ticks)
365: 0x0B14 [0x52] END_LOAD_SCHEDULER: End scheduler "sa26" with entities [LocalPlayer, LocalPlayer], work=440*
366: 0x0B23 [0x45] LOAD_SCHEDULED_TASK: Load scheduler "sa27" with entities [LocalPlayer, LocalPlayer], work=[440*, 0*]
367: 0x0B34 [0x2B] Prien (ID: 17134065/0x010571F1) [13594*]:
    → "We ask for your understanding. In better times, such a discussion would not even have been necessary."
368: 0x0B3B [0x23] WAIT_FOR_DIALOG_INTERACTION
369: 0x0B3C [0x1C] WAIT(30* ticks)
370: 0x0B3F [0x52] END_LOAD_SCHEDULER: End scheduler "sa27" with entities [LocalPlayer, LocalPlayer], work=440*
371: 0x0B4E [0x45] LOAD_SCHEDULED_TASK: Load scheduler "sa28" with entities [LocalPlayer, LocalPlayer], work=[440*, 0*]
372: 0x0B5F [0x1C] WAIT(250* ticks)
373: 0x0B62 [0xBA] SET_ENTITY_POSITION(entity_id=Zazarg (ID: 17134252/0x010572AC), pos_x=87.199*, pos_z=0.000*, pos_y=-19.532*, direction=0.0°*)
374: 0x0B6F [0x80] LOAD_WAIT(entity=Zazarg (ID: 17134252/0x010572AC))
375: 0x0B74 [0x7B] Zazarg (ID: 17134252/0x010572AC) stops talking
376: 0x0B79 [0x27] REQ_SET(priority=0x10, entity_id=Zazarg (ID: 17134252/0x010572AC), tag_num=0x0A)
377: 0x0B80 [0x1C] WAIT(10* ticks)
378: 0x0B83 [0x52] END_LOAD_SCHEDULER: End scheduler "sa28" with entities [LocalPlayer, LocalPlayer], work=440*
379: 0x0B92 [0x45] LOAD_SCHEDULED_TASK: Load scheduler "sa29" with entities [LocalPlayer, LocalPlayer], work=[440*, 0*]
380: 0x0BA3 [0x4A] Maximilian Berger (ID: 17134247/0x010572A7) looks at Halver M Borel (ID: 17134246/0x010572A6)
381: 0x0BAC [0x4A] Else (ID: 17134248/0x010572A8) looks at Halver M Borel (ID: 17134246/0x010572A6)
382: 0x0BB5 [0x4A] Ludwig Eichberg (ID: 17134249/0x010572A9) looks at Halver M Borel (ID: 17134246/0x010572A6)
383: 0x0BBE [0x4A] Striking Bull (ID: 17134250/0x010572AA) looks at Halver M Borel (ID: 17134246/0x010572A6)
384: 0x0BC7 [0x4A] Invincible Shield (ID: 17134251/0x010572AB) looks at Halver M Borel (ID: 17134246/0x010572A6)
385: 0x0BD0 [0x1C] WAIT(210* ticks)
386: 0x0BD3 [0x52] END_LOAD_SCHEDULER: End scheduler "sa29" with entities [LocalPlayer, LocalPlayer], work=440*
387: 0x0BE2 [0x45] LOAD_SCHEDULED_TASK: Load scheduler "sa30" with entities [LocalPlayer, LocalPlayer], work=[440*, 0*]
388: 0x0BF3 [0x2A] GET_REQ_LEVEL(level=16, entity_id=Zazarg (ID: 17134252/0x010572AC))
389: 0x0BF9 [0x1C] WAIT(80* ticks)
390: 0x0BFC [0x27] REQ_SET(priority=0x0F, entity_id=Unnamed NPC (ID: 17134146/0x01057242), tag_num=0x03)
391: 0x0C03 [0x79] Halver M Borel (ID: 17134246/0x010572A6) looks at Zazarg (ID: 17134252/0x010572AC) (Basic look)
392: 0x0C0D [0x1C] WAIT(15* ticks)
393: 0x0C10 [0x79] LocalPlayer looks at Zazarg (ID: 17134252/0x010572AC) (Basic look)
394: 0x0C1A [0x1C] WAIT(10* ticks)
395: 0x0C1D [0x79] Lilisette (ID: 17134245/0x010572A5) looks at Zazarg (ID: 17134252/0x010572AC) (Basic look)
396: 0x0C27 [0x1C] WAIT(30* ticks)
397: 0x0C2A [0x2A] GET_REQ_LEVEL(level=15, entity_id=Unnamed NPC (ID: 17134146/0x01057242))
398: 0x0C30 [0x1C] WAIT(80* ticks)
399: 0x0C33 [0x79] Prien (ID: 17134065/0x010571F1) looks at Zazarg (ID: 17134252/0x010572AC) (Basic look)
400: 0x0C3D [0x79] Else (ID: 17134248/0x010572A8) looks at Zazarg (ID: 17134252/0x010572AC) (Basic look)
401: 0x0C47 [0x79] Ludwig Eichberg (ID: 17134249/0x010572A9) looks at Zazarg (ID: 17134252/0x010572AC) (Basic look)
402: 0x0C51 [0x79] Striking Bull (ID: 17134250/0x010572AA) looks at Zazarg (ID: 17134252/0x010572AC) (Basic look)
403: 0x0C5B [0x52] END_LOAD_SCHEDULER: End scheduler "sa30" with entities [LocalPlayer, LocalPlayer], work=440*
404: 0x0C6A [0x45] LOAD_SCHEDULED_TASK: Load scheduler "sa31" with entities [LocalPlayer, LocalPlayer], work=[440*, 0*]
405: 0x0C7B [0x29] REQ_SET_WAIT(priority=0x10, entity_id=Zazarg (ID: 17134252/0x010572AC), tag_num=0x0B)
406: 0x0C82 [0x1C] WAIT(60* ticks)
407: 0x0C85 [0x52] END_LOAD_SCHEDULER: End scheduler "sa31" with entities [LocalPlayer, LocalPlayer], work=440*
408: 0x0C94 [0x45] LOAD_SCHEDULED_TASK: Load scheduler "sa32" with entities [LocalPlayer, LocalPlayer], work=[440*, 0*]
409: 0x0CA5 [0x1C] WAIT(200* ticks)
410: 0x0CA8 [0x2B] Zazarg (ID: 17134252/0x010572AC) [13595*]:
    → "Fourth Division, Seventh Cohors Praefectus, Zazarg, reporting!"
411: 0x0CAF [0x23] WAIT_FOR_DIALOG_INTERACTION
412: 0x0CB0 [0x1C] WAIT(30* ticks)
413: 0x0CB3 [0x55] WAIT_LOAD_SCHEDULER: Wait for scheduler "sa32" with entities [LocalPlayer, LocalPlayer], work=440*
414: 0x0CC2 [0x52] END_LOAD_SCHEDULER: End scheduler "sa32" with entities [LocalPlayer, LocalPlayer], work=440*
415: 0x0CD1 [0x45] LOAD_SCHEDULED_TASK: Load scheduler "sa33" with entities [LocalPlayer, LocalPlayer], work=[440*, 0*]
416: 0x0CE2 [0x27] REQ_SET(priority=0x0F, entity_id=Unnamed NPC (ID: 17134146/0x01057242), tag_num=0x04)
417: 0x0CE9 [0x2A] GET_REQ_LEVEL(level=16, entity_id=??? (ID: 17134254/0x010572AE))
418: 0x0CEF [0x27] REQ_SET(priority=0x10, entity_id=??? (ID: 17134254/0x010572AE), tag_num=0x0B)
419: 0x0CF6 [0x2B] Maximilian Berger (ID: 17134247/0x010572A7) [13596*]:
    → "Zazarg, what is the meaning of this intrusion?"
420: 0x0CFD [0x23] WAIT_FOR_DIALOG_INTERACTION
421: 0x0CFE [0x1C] WAIT(30* ticks)
422: 0x0D01 [0x2A] GET_REQ_LEVEL(level=16, entity_id=??? (ID: 17134254/0x010572AE))
423: 0x0D07 [0x52] END_LOAD_SCHEDULER: End scheduler "sa33" with entities [LocalPlayer, LocalPlayer], work=440*
424: 0x0D16 [0x45] LOAD_SCHEDULED_TASK: Load scheduler "sa34" with entities [LocalPlayer, LocalPlayer], work=[440*, 0*]
425: 0x0D27 [0x79] Invincible Shield (ID: 17134251/0x010572AB) looks at Maximilian Berger (ID: 17134247/0x010572A7) (Basic look)
426: 0x0D31 [0x1C] WAIT(30* ticks)
427: 0x0D34 [0x2B] Invincible Shield (ID: 17134251/0x010572AB) [13597*]:
    → "My apologies. As the head of the Fourth Division, it was I who called upon the praefectus."
428: 0x0D3B [0x23] WAIT_FOR_DIALOG_INTERACTION
429: 0x0D3C [0x1C] WAIT(30* ticks)
430: 0x0D3F [0x52] END_LOAD_SCHEDULER: End scheduler "sa34" with entities [LocalPlayer, LocalPlayer], work=440*
431: 0x0D4E [0x45] LOAD_SCHEDULED_TASK: Load scheduler "sa35" with entities [LocalPlayer, LocalPlayer], work=[440*, 0*]
432: 0x0D5F [0x7B] Invincible Shield (ID: 17134251/0x010572AB) stops talking
433: 0x0D64 [0x27] REQ_SET(priority=0x10, entity_id=??? (ID: 17134254/0x010572AE), tag_num=0x0C)
434: 0x0D6B [0x1C] WAIT(30* ticks)
435: 0x0D6E [0x2B] Zazarg (ID: 17134252/0x010572AC) [13598*]:
    → "Yes, and my apologies for gatecrashing this little party, and eavesdropping and whatnot..."
436: 0x0D75 [0x23] WAIT_FOR_DIALOG_INTERACTION
437: 0x0D76 [0x1C] WAIT(30* ticks)
438: 0x0D79 [0x2A] GET_REQ_LEVEL(level=16, entity_id=??? (ID: 17134254/0x010572AE))
439: 0x0D7F [0x52] END_LOAD_SCHEDULER: End scheduler "sa35" with entities [LocalPlayer, LocalPlayer], work=440*
440: 0x0D8E [0x45] LOAD_SCHEDULED_TASK: Load scheduler "sa36" with entities [LocalPlayer, LocalPlayer], work=[440*, 0*]
441: 0x0D9F [0x66] LOAD_EXT_SCHEDULER_MAIN: Load scheduler "tlk0" with entities [Zazarg (ID: 17134252/0x010572AC), Zazarg (ID: 17134252/0x010572AC)], work=69*
442: 0x0DAE [0x2B] Zazarg (ID: 17134252/0x010572AC) [13599*]:
    → "But, enough beating around the bush. Ahem! Mister President, sir! Requesting permission to lead the Seventh Cohors in Jeuno's defense, sir!"
443: 0x0DB5 [0x23] WAIT_FOR_DIALOG_INTERACTION
444: 0x0DB6 [0x1C] WAIT(30* ticks)
445: 0x0DB9 [0x66] LOAD_EXT_SCHEDULER_MAIN: Load scheduler "tlk1" with entities [Zazarg (ID: 17134252/0x010572AC), Zazarg (ID: 17134252/0x010572AC)], work=69*
446: 0x0DC8 [0x52] END_LOAD_SCHEDULER: End scheduler "sa36" with entities [LocalPlayer, LocalPlayer], work=440*
447: 0x0DD7 [0x45] LOAD_SCHEDULED_TASK: Load scheduler "sa37" with entities [LocalPlayer, LocalPlayer], work=[440*, 0*]
448: 0x0DE8 [0x53] WAIT_SCHEDULER_TASK: Wait for scheduler "tlk1" with entities [Zazarg (ID: 17134252/0x010572AC), Zazarg (ID: 17134252/0x010572AC)]
449: 0x0DF5 [0x7C] Prien (ID: 17134065/0x010571F1)->Render.Flags2 |= 0x00
450: 0x0DFB [0x2B] Prien (ID: 17134065/0x010571F1) [13600*]:
    → "..."
451: 0x0E02 [0x23] WAIT_FOR_DIALOG_INTERACTION
452: 0x0E03 [0x1C] WAIT(30* ticks)
453: 0x0E06 [0x7C] Prien (ID: 17134065/0x010571F1)->Render.Flags2 |= 0x01
454: 0x0E0C [0x52] END_LOAD_SCHEDULER: End scheduler "sa37" with entities [LocalPlayer, LocalPlayer], work=440*
455: 0x0E1B [0x45] LOAD_SCHEDULED_TASK: Load scheduler "sa38" with entities [LocalPlayer, LocalPlayer], work=[440*, 0*]
456: 0x0E2C [0x79] Maximilian Berger (ID: 17134247/0x010572A7) looks at Zazarg (ID: 17134252/0x010572AC) (Basic look)
457: 0x0E36 [0x4A] Maximilian Berger (ID: 17134247/0x010572A7) looks at Zazarg (ID: 17134252/0x010572AC)
458: 0x0E3F [0x66] LOAD_EXT_SCHEDULER_MAIN: Load scheduler "twa0" with entities [Zazarg (ID: 17134252/0x010572AC), Zazarg (ID: 17134252/0x010572AC)], work=69*
459: 0x0E4E [0x2B] Zazarg (ID: 17134252/0x010572AC) [13601*]:
    → "You don't need to worry about manpower, if that's what's on your mind. As of late, my unit's received a generous injection of young blood raring to prove themselves on the battlefield."
460: 0x0E55 [0x23] WAIT_FOR_DIALOG_INTERACTION
461: 0x0E56 [0x1C] WAIT(30* ticks)
462: 0x0E59 [0x66] LOAD_EXT_SCHEDULER_MAIN: Load scheduler "twa1" with entities [Zazarg (ID: 17134252/0x010572AC), Zazarg (ID: 17134252/0x010572AC)], work=69*
463: 0x0E68 [0x52] END_LOAD_SCHEDULER: End scheduler "sa38" with entities [LocalPlayer, LocalPlayer], work=440*
464: 0x0E77 [0x45] LOAD_SCHEDULED_TASK: Load scheduler "sa39" with entities [LocalPlayer, LocalPlayer], work=[440*, 0*]
465: 0x0E88 [0x27] REQ_SET(priority=0x10, entity_id=??? (ID: 17134254/0x010572AE), tag_num=0x0D)
466: 0x0E8F [0x2B] Maximilian Berger (ID: 17134247/0x010572A7) [13602*]:
    → "You're joking, surely? The Seventh Cohors are more akin to a basket of rotten eggs than a military unit. What can a bunch of untried social misfits hope to achieve?"
467: 0x0E96 [0x23] WAIT_FOR_DIALOG_INTERACTION
468: 0x0E97 [0x1C] WAIT(30* ticks)
469: 0x0E9A [0x2A] GET_REQ_LEVEL(level=16, entity_id=??? (ID: 17134254/0x010572AE))
470: 0x0EA0 [0x79] Zazarg (ID: 17134252/0x010572AC) looks at Maximilian Berger (ID: 17134247/0x010572A7) (Basic look)
471: 0x0EAA [0x4A] Zazarg (ID: 17134252/0x010572AC) looks at Maximilian Berger (ID: 17134247/0x010572A7)
472: 0x0EB3 [0x27] REQ_SET(priority=0x10, entity_id=??? (ID: 17134254/0x010572AE), tag_num=0x0E)
473: 0x0EBA [0x1C] WAIT(20* ticks)
474: 0x0EBD [0x52] END_LOAD_SCHEDULER: End scheduler "sa39" with entities [LocalPlayer, LocalPlayer], work=440*
475: 0x0ECC [0x45] LOAD_SCHEDULED_TASK: Load scheduler "sa40" with entities [LocalPlayer, LocalPlayer], work=[440*, 0*]
476: 0x0EDD [0x7C] Zazarg (ID: 17134252/0x010572AC)->Render.Flags2 |= 0x00
477: 0x0EE3 [0x2B] Zazarg (ID: 17134252/0x010572AC) [13603*]:
    → "Gahahahaha! Legatus Berger, if you don't mind sparing a bit of your precious time, it'd be my pleasure to give you an inspection tour of the Seventh Cohors."
478: 0x0EEA [0x23] WAIT_FOR_DIALOG_INTERACTION
479: 0x0EEB [0x1C] WAIT(30* ticks)
480: 0x0EEE [0x7C] Zazarg (ID: 17134252/0x010572AC)->Render.Flags2 |= 0x01
481: 0x0EF4 [0x2A] GET_REQ_LEVEL(level=16, entity_id=??? (ID: 17134254/0x010572AE))
482: 0x0EFA [0x52] END_LOAD_SCHEDULER: End scheduler "sa40" with entities [LocalPlayer, LocalPlayer], work=440*
483: 0x0F09 [0x45] LOAD_SCHEDULED_TASK: Load scheduler "sa41" with entities [LocalPlayer, LocalPlayer], work=[440*, 0*]
484: 0x0F1A [0x1C] WAIT(30* ticks)
485: 0x0F1D [0x66] LOAD_EXT_SCHEDULER_MAIN: Load scheduler "twb0" with entities [Zazarg (ID: 17134252/0x010572AC), Zazarg (ID: 17134252/0x010572AC)], work=69*
486: 0x0F2C [0x2B] Zazarg (ID: 17134252/0x010572AC) [13604*]:
    → "See the lads and lasses with your own eyes, and even you will be compelled to retract your "rotten eggs" comment. And that comes with the Zazarg guarantee!"
487: 0x0F33 [0x23] WAIT_FOR_DIALOG_INTERACTION
488: 0x0F34 [0x1C] WAIT(30* ticks)
489: 0x0F37 [0x66] LOAD_EXT_SCHEDULER_MAIN: Load scheduler "twb1" with entities [Zazarg (ID: 17134252/0x010572AC), Zazarg (ID: 17134252/0x010572AC)], work=69*
490: 0x0F46 [0x52] END_LOAD_SCHEDULER: End scheduler "sa41" with entities [LocalPlayer, LocalPlayer], work=440*
491: 0x0F55 [0x45] LOAD_SCHEDULED_TASK: Load scheduler "sa42" with entities [LocalPlayer, LocalPlayer], work=[440*, 0*]
492: 0x0F66 [0x79] Invincible Shield (ID: 17134251/0x010572AB) looks at Maximilian Berger (ID: 17134247/0x010572A7) (Basic look)
493: 0x0F70 [0x27] REQ_SET(priority=0x10, entity_id=??? (ID: 17134254/0x010572AE), tag_num=0x0F)
494: 0x0F77 [0x66] LOAD_EXT_SCHEDULER_MAIN: Load scheduler "tlk0" with entities [Invincible Shield (ID: 17134251/0x010572AB), Invincible Shield (ID: 17134251/0x010572AB)], work=69*
495: 0x0F86 [0x2B] Invincible Shield (ID: 17134251/0x010572AB) [13605*]:
    → "It's quite the mystery, but all who join the Seventh Cohors--even the disagreeable types abandoned by society as lost causes--undergo a transformation and are reborn as disciplined soldiers."
496: 0x0F8D [0x23] WAIT_FOR_DIALOG_INTERACTION
497: 0x0F8E [0x1C] WAIT(30* ticks)
498: 0x0F91 [0x2A] GET_REQ_LEVEL(level=16, entity_id=??? (ID: 17134254/0x010572AE))
499: 0x0F97 [0x4A] Zazarg (ID: 17134252/0x010572AC) looks at Prien (ID: 17134065/0x010571F1)
500: 0x0FA0 [0x6F] WAIT_FRAME_DELAY: Yield until WaitTime reaches zero
501: 0x0FA1 [0x76] CHECK_ENTITY_RENDER_FLAGS: Wait until Zazarg (ID: 17134252/0x010572AC) Render.Flags0 and Render.Flags3 conditions are met
502: 0x0FA6 [0x66] LOAD_EXT_SCHEDULER_MAIN: Load scheduler "tlk1" with entities [Invincible Shield (ID: 17134251/0x010572AB), Invincible Shield (ID: 17134251/0x010572AB)], work=69*
503: 0x0FB5 [0x52] END_LOAD_SCHEDULER: End scheduler "sa42" with entities [LocalPlayer, LocalPlayer], work=440*
504: 0x0FC4 [0x02] IF !(Work_Zone[2] == 2*) GOTO 0x1041
505: 0x0FCC [0x45] LOAD_SCHEDULED_TASK: Load scheduler "sa43" with entities [LocalPlayer, LocalPlayer], work=[440*, 0*]
506: 0x0FDD [0x7B] Invincible Shield (ID: 17134251/0x010572AB) stops talking
507: 0x0FE2 [0x1C] WAIT(40* ticks)
508: 0x0FE5 [0x27] REQ_SET(priority=0x10, entity_id=??? (ID: 17134254/0x010572AE), tag_num=0x10)
509: 0x0FEC [0x2B] Zazarg (ID: 17134252/0x010572AC) [13606*]:
    → "They sure are, with <Player> over there being one of my more notable achievements. Who'd believe that the fine soldier standing before you now used to be a foul-mouthed hellraiser?"
510: 0x0FF3 [0x23] WAIT_FOR_DIALOG_INTERACTION
511: 0x0FF4 [0x1C] WAIT(30* ticks)
512: 0x0FF7 [0x2A] GET_REQ_LEVEL(level=16, entity_id=??? (ID: 17134254/0x010572AE))
513: 0x0FFD [0x52] END_LOAD_SCHEDULER: End scheduler "sa43" with entities [LocalPlayer, LocalPlayer], work=440*
514: 0x100C [0x45] LOAD_SCHEDULED_TASK: Load scheduler "sa44" with entities [LocalPlayer, LocalPlayer], work=[440*, 0*]
515: 0x101D [0x79] Zazarg (ID: 17134252/0x010572AC) looks at Prien (ID: 17134065/0x010571F1) (Basic look)
516: 0x1027 [0x2B] Zazarg (ID: 17134252/0x010572AC) [13607*]:
    → "The young'uns in my unit are eager and prepared to suit up at a moment's notice. All they need is for me to give the word."
517: 0x102E [0x23] WAIT_FOR_DIALOG_INTERACTION
518: 0x102F [0x1C] WAIT(30* ticks)
519: 0x1032 [0x52] END_LOAD_SCHEDULER: End scheduler "sa44" with entities [LocalPlayer, LocalPlayer], work=440*
520: 0x1041 [0x45] LOAD_SCHEDULED_TASK: Load scheduler "sa45" with entities [LocalPlayer, LocalPlayer], work=[440*, 0*]
521: 0x1052 [0x7B] Invincible Shield (ID: 17134251/0x010572AB) stops talking
522: 0x1057 [0x66] LOAD_EXT_SCHEDULER_MAIN: Load scheduler "tlk0" with entities [Zazarg (ID: 17134252/0x010572AC), Zazarg (ID: 17134252/0x010572AC)], work=69*
523: 0x1066 [0x2B] Zazarg (ID: 17134252/0x010572AC) [13608*]:
    → "And as an added convenience, it appears that a sizeable chunk of the beastman force camping out about Jeuno is made up of Quadav--our specialty!"
524: 0x106D [0x23] WAIT_FOR_DIALOG_INTERACTION
525: 0x106E [0x1C] WAIT(30* ticks)
526: 0x1071 [0x52] END_LOAD_SCHEDULER: End scheduler "sa45" with entities [LocalPlayer, LocalPlayer], work=440*
527: 0x1080 [0x45] LOAD_SCHEDULED_TASK: Load scheduler "sa46" with entities [LocalPlayer, LocalPlayer], work=[440*, 0*]
528: 0x1091 [0x2B] Zazarg (ID: 17134252/0x010572AC) [13609*]:
    → "Unlike us, though, the folks over in Jeuno haven't had much experience dealing with the turtlemen and their thick shells. That's why they've been having it rough all this time."
529: 0x1098 [0x23] WAIT_FOR_DIALOG_INTERACTION
530: 0x1099 [0x1C] WAIT(30* ticks)
531: 0x109C [0x66] LOAD_EXT_SCHEDULER_MAIN: Load scheduler "tlk1" with entities [Zazarg (ID: 17134252/0x010572AC), Zazarg (ID: 17134252/0x010572AC)], work=69*
532: 0x10AB [0x52] END_LOAD_SCHEDULER: End scheduler "sa46" with entities [LocalPlayer, LocalPlayer], work=440*
533: 0x10BA [0x45] LOAD_SCHEDULED_TASK: Load scheduler "sa47" with entities [LocalPlayer, LocalPlayer], work=[440*, 0*]
534: 0x10CB [0x53] WAIT_SCHEDULER_TASK: Wait for scheduler "tlk1" with entities [Zazarg (ID: 17134252/0x010572AC), Zazarg (ID: 17134252/0x010572AC)]
535: 0x10D8 [0x66] LOAD_EXT_SCHEDULER_MAIN: Load scheduler "thk1" with entities [Zazarg (ID: 17134252/0x010572AC), Zazarg (ID: 17134252/0x010572AC)], work=69*
536: 0x10E7 [0x2B] Zazarg (ID: 17134252/0x010572AC) [13610*]:
    → "Nobody here discounts the Duchy's strategic importance, that much we've established. If she were to fall to the beastmen, it'd only be a matter of time before the three nations follow suit."
537: 0x10EE [0x23] WAIT_FOR_DIALOG_INTERACTION
538: 0x10EF [0x1C] WAIT(30* ticks)
539: 0x10F2 [0x66] LOAD_EXT_SCHEDULER_MAIN: Load scheduler "thk2" with entities [Zazarg (ID: 17134252/0x010572AC), Zazarg (ID: 17134252/0x010572AC)], work=69*
540: 0x1101 [0x53] WAIT_SCHEDULER_TASK: Wait for scheduler "thk2" with entities [Zazarg (ID: 17134252/0x010572AC), Zazarg (ID: 17134252/0x010572AC)]
541: 0x110E [0x27] REQ_SET(priority=0x10, entity_id=??? (ID: 17134254/0x010572AE), tag_num=0x11)
542: 0x1115 [0x1C] WAIT(35* ticks)
543: 0x1118 [0x52] END_LOAD_SCHEDULER: End scheduler "sa47" with entities [LocalPlayer, LocalPlayer], work=440*
544: 0x1127 [0x45] LOAD_SCHEDULED_TASK: Load scheduler "sa48" with entities [LocalPlayer, LocalPlayer], work=[440*, 0*]
545: 0x1138 [0x2B] Zazarg (ID: 17134252/0x010572AC) [13611*]:
    → "Let us go and lend a hand to our Jeunoan brothers and sisters, I say!"
546: 0x113F [0x23] WAIT_FOR_DIALOG_INTERACTION
547: 0x1140 [0x1C] WAIT(30* ticks)
548: 0x1143 [0x2A] GET_REQ_LEVEL(level=16, entity_id=??? (ID: 17134254/0x010572AE))
549: 0x1149 [0x52] END_LOAD_SCHEDULER: End scheduler "sa48" with entities [LocalPlayer, LocalPlayer], work=440*
550: 0x1158 [0x45] LOAD_SCHEDULED_TASK: Load scheduler "sa49" with entities [LocalPlayer, LocalPlayer], work=[440*, 0*]
551: 0x1169 [0x6B] STOP_AND_IDLE: Zazarg (ID: 17134252/0x010572AC) stops current action and resets to idle (animation="idl0")
552: 0x1172 [0x79] Invincible Shield (ID: 17134251/0x010572AB) looks at Prien (ID: 17134065/0x010571F1) (Basic look)
553: 0x117C [0x66] LOAD_EXT_SCHEDULER_MAIN: Load scheduler "tlk0" with entities [Invincible Shield (ID: 17134251/0x010572AB), Invincible Shield (ID: 17134251/0x010572AB)], work=69*
554: 0x118B [0x2B] Invincible Shield (ID: 17134251/0x010572AB) [13612*]:
    → "I beg you to consider, Mister President. Rough-mannered as Zazarg is, I can attest to his leadership and prowess on the battlefield."
555: 0x1192 [0x23] WAIT_FOR_DIALOG_INTERACTION
556: 0x1193 [0x66] LOAD_EXT_SCHEDULER_MAIN: Load scheduler "tlk1" with entities [Invincible Shield (ID: 17134251/0x010572AB), Invincible Shield (ID: 17134251/0x010572AB)], work=69*
557: 0x11A2 [0x27] REQ_SET(priority=0x10, entity_id=??? (ID: 17134254/0x010572AE), tag_num=0x0E)
558: 0x11A9 [0x1C] WAIT(30* ticks)
559: 0x11AC [0x52] END_LOAD_SCHEDULER: End scheduler "sa49" with entities [LocalPlayer, LocalPlayer], work=440*
560: 0x11BB [0x45] LOAD_SCHEDULED_TASK: Load scheduler "sa50" with entities [LocalPlayer, LocalPlayer], work=[440*, 0*]
561: 0x11CC [0x7C] Zazarg (ID: 17134252/0x010572AC)->Render.Flags2 |= 0x00
562: 0x11D2 [0x2B] Zazarg (ID: 17134252/0x010572AC) [13613*]:
    → "Gahahahaha!"
563: 0x11D9 [0x23] WAIT_FOR_DIALOG_INTERACTION
564: 0x11DA [0x1C] WAIT(30* ticks)
565: 0x11DD [0x7C] Zazarg (ID: 17134252/0x010572AC)->Render.Flags2 |= 0x01
566: 0x11E3 [0x2A] GET_REQ_LEVEL(level=16, entity_id=??? (ID: 17134254/0x010572AE))
567: 0x11E9 [0x52] END_LOAD_SCHEDULER: End scheduler "sa50" with entities [LocalPlayer, LocalPlayer], work=440*
568: 0x11F8 [0x45] LOAD_SCHEDULED_TASK: Load scheduler "sa51" with entities [LocalPlayer, LocalPlayer], work=[440*, 0*]
569: 0x1209 [0x2B] Prien (ID: 17134065/0x010571F1) [13614*]:
    → "Very well... Praefectus Zazarg, have your unit mobilized. I leave the matter in your hands."
570: 0x1210 [0x23] WAIT_FOR_DIALOG_INTERACTION
571: 0x1211 [0x1C] WAIT(30* ticks)
572: 0x1214 [0x79] Invincible Shield (ID: 17134251/0x010572AB) looks at Zazarg (ID: 17134252/0x010572AC) (Basic look)
573: 0x121E [0x52] END_LOAD_SCHEDULER: End scheduler "sa51" with entities [LocalPlayer, LocalPlayer], work=440*
574: 0x122D [0x45] LOAD_SCHEDULED_TASK: Load scheduler "sa52" with entities [LocalPlayer, LocalPlayer], work=[440*, 0*]
575: 0x123E [0x2B] Zazarg (ID: 17134252/0x010572AC) [13615*]:
    → "Now we're talking! Thank you, sir, Mister President, sir!"
576: 0x1245 [0x23] WAIT_FOR_DIALOG_INTERACTION
577: 0x1246 [0x1C] WAIT(30* ticks)
578: 0x1249 [0x52] END_LOAD_SCHEDULER: End scheduler "sa52" with entities [LocalPlayer, LocalPlayer], work=440*
579: 0x1258 [0x45] LOAD_SCHEDULED_TASK: Load scheduler "sa53" with entities [LocalPlayer, LocalPlayer], work=[440*, 0*]
580: 0x1269 [0x66] LOAD_EXT_SCHEDULER_MAIN: Load scheduler "twb0" with entities [Zazarg (ID: 17134252/0x010572AC), Zazarg (ID: 17134252/0x010572AC)], work=69*
581: 0x1278 [0x2B] Zazarg (ID: 17134252/0x010572AC) [13616*]:
    → "The Seventh Cohors will strike out for Jeuno without delay."
582: 0x127F [0x23] WAIT_FOR_DIALOG_INTERACTION
583: 0x1280 [0x1C] WAIT(30* ticks)
584: 0x1283 [0x66] LOAD_EXT_SCHEDULER_MAIN: Load scheduler "twb1" with entities [Zazarg (ID: 17134252/0x010572AC), Zazarg (ID: 17134252/0x010572AC)], work=69*
585: 0x1292 [0x6E] Prien (ID: 17134065/0x010571F1) uses emote 7*
586: 0x1299 [0x99] Wait for Prien (ID: 17134065/0x010571F1) animation to complete
587: 0x129E [0x4A] Lilisette (ID: 17134245/0x010572A5) looks at Zazarg (ID: 17134252/0x010572AC)
588: 0x12A7 [0x79] Lilisette (ID: 17134245/0x010572A5) looks at Zazarg (ID: 17134252/0x010572AC) (Basic look)
589: 0x12B1 [0x1C] WAIT(130* ticks)
590: 0x12B4 [0x53] WAIT_SCHEDULER_TASK: Wait for scheduler "twb1" with entities [Zazarg (ID: 17134252/0x010572AC), Zazarg (ID: 17134252/0x010572AC)]
591: 0x12C1 [0x52] END_LOAD_SCHEDULER: End scheduler "sa53" with entities [LocalPlayer, LocalPlayer], work=440*
592: 0x12D0 [0x45] LOAD_SCHEDULED_TASK: Load scheduler "sa54" with entities [LocalPlayer, LocalPlayer], work=[440*, 0*]
593: 0x12E1 [0x1C] WAIT(30* ticks)
594: 0x12E4 [0x5B] LOAD_EXT_SCHEDULER: Load scheduler "fd01" with entities [Lilisette (ID: 17134245/0x010572A5), Lilisette (ID: 17134245/0x010572A5)], work=2135*
595: 0x12F3 [0x5B] LOAD_EXT_SCHEDULER: Load scheduler "hdb0" with entities [Lilisette (ID: 17134245/0x010572A5), Lilisette (ID: 17134245/0x010572A5)], work=2128*
596: 0x1302 [0x81] SET_ENTITY_BLINKING(blink_flag=0x00, entity=Lilisette (ID: 17134245/0x010572A5))
597: 0x1308 [0x2B] Lilisette (ID: 17134245/0x010572A5) [13617*]:
    → "Th-thank you, sir!"
598: 0x130F [0x23] WAIT_FOR_DIALOG_INTERACTION
599: 0x1310 [0x53] WAIT_SCHEDULER_TASK: Wait for scheduler "hdb0" with entities [Lilisette (ID: 17134245/0x010572A5), Lilisette (ID: 17134245/0x010572A5)]
600: 0x131D [0x5B] LOAD_EXT_SCHEDULER: Load scheduler "fd00" with entities [Lilisette (ID: 17134245/0x010572A5), Lilisette (ID: 17134245/0x010572A5)], work=2135*
601: 0x132C [0x81] SET_ENTITY_BLINKING(blink_flag=0x01, entity=Lilisette (ID: 17134245/0x010572A5))
602: 0x1332 [0x79] Zazarg (ID: 17134252/0x010572AC) looks at Lilisette (ID: 17134245/0x010572A5) (Basic look)
603: 0x133C [0x4B] UPDATE_ENTITY_YAW(entity=Zazarg (ID: 17134252/0x010572AC), yaw=4.4°*)
604: 0x1343 [0x27] REQ_SET(priority=0x10, entity_id=??? (ID: 17134254/0x010572AE), tag_num=0x0E)
605: 0x134A [0x1C] WAIT(30* ticks)
606: 0x134D [0x52] END_LOAD_SCHEDULER: End scheduler "sa54" with entities [LocalPlayer, LocalPlayer], work=440*
607: 0x135C [0x45] LOAD_SCHEDULED_TASK: Load scheduler "sa55" with entities [LocalPlayer, LocalPlayer], work=[440*, 0*]
608: 0x136D [0x79] Lilisette (ID: 17134245/0x010572A5) looks at Zazarg (ID: 17134252/0x010572AC) (Basic look)
609: 0x1377 [0x5B] LOAD_EXT_SCHEDULER: Load scheduler "hdb1" with entities [Lilisette (ID: 17134245/0x010572A5), Lilisette (ID: 17134245/0x010572A5)], work=2128*
610: 0x1386 [0x7C] Zazarg (ID: 17134252/0x010572AC)->Render.Flags2 |= 0x00
611: 0x138C [0x2B] Zazarg (ID: 17134252/0x010572AC) [13618*]:
    → "Gahahaha! Now, now, lil' missy. I haven't done anything deserving of such an enthusiastic display of gratitude."
612: 0x1393 [0x23] WAIT_FOR_DIALOG_INTERACTION
613: 0x1394 [0x1C] WAIT(30* ticks)
614: 0x1397 [0x7C] Zazarg (ID: 17134252/0x010572AC)->Render.Flags2 |= 0x01
615: 0x139D [0x2A] GET_REQ_LEVEL(level=16, entity_id=??? (ID: 17134254/0x010572AE))
616: 0x13A3 [0x52] END_LOAD_SCHEDULER: End scheduler "sa55" with entities [LocalPlayer, LocalPlayer], work=440*
617: 0x13B2 [0x45] LOAD_SCHEDULED_TASK: Load scheduler "sa56" with entities [LocalPlayer, LocalPlayer], work=[440*, 0*]
618: 0x13C3 [0x66] LOAD_EXT_SCHEDULER_MAIN: Load scheduler "twa0" with entities [Zazarg (ID: 17134252/0x010572AC), Zazarg (ID: 17134252/0x010572AC)], work=69*
619: 0x13D2 [0x2B] Zazarg (ID: 17134252/0x010572AC) [13619*]:
    → "There's nothing special about helping out friends in need. And nationality sure as hell's got nothing to do with it, either. Am I right?"
620: 0x13D9 [0x23] WAIT_FOR_DIALOG_INTERACTION
621: 0x13DA [0x1C] WAIT(30* ticks)
622: 0x13DD [0x66] LOAD_EXT_SCHEDULER_MAIN: Load scheduler "twa1" with entities [Zazarg (ID: 17134252/0x010572AC), Zazarg (ID: 17134252/0x010572AC)], work=69*
623: 0x13EC [0x52] END_LOAD_SCHEDULER: End scheduler "sa56" with entities [LocalPlayer, LocalPlayer], work=440*
624: 0x13FB [0x45] LOAD_SCHEDULED_TASK: Load scheduler "sa57" with entities [LocalPlayer, LocalPlayer], work=[440*, 0*]
625: 0x140C [0x53] WAIT_SCHEDULER_TASK: Wait for scheduler "hdb1" with entities [Lilisette (ID: 17134245/0x010572A5), Lilisette (ID: 17134245/0x010572A5)]
626: 0x1419 [0x5B] LOAD_EXT_SCHEDULER: Load scheduler "fd01" with entities [Lilisette (ID: 17134245/0x010572A5), Lilisette (ID: 17134245/0x010572A5)], work=2135*
627: 0x1428 [0x5B] LOAD_EXT_SCHEDULER: Load scheduler "yes0" with entities [Lilisette (ID: 17134245/0x010572A5), Lilisette (ID: 17134245/0x010572A5)], work=2139*
628: 0x1437 [0x2B] Lilisette (ID: 17134245/0x010572A5) [13620*]:
    → "Yes, sir!"
629: 0x143E [0x23] WAIT_FOR_DIALOG_INTERACTION
630: 0x143F [0x53] WAIT_SCHEDULER_TASK: Wait for scheduler "yes0" with entities [Lilisette (ID: 17134245/0x010572A5), Lilisette (ID: 17134245/0x010572A5)]
631: 0x144C [0x5B] LOAD_EXT_SCHEDULER: Load scheduler "fd00" with entities [Lilisette (ID: 17134245/0x010572A5), Lilisette (ID: 17134245/0x010572A5)], work=2135*
632: 0x145B [0x1C] WAIT(80* ticks)
633: 0x145E [0x1A] CALL_SUBROUTINE(address=0x35BF)
634: 0x1461 [0x1C] WAIT(30* ticks)
635: 0x1464 [0x52] END_LOAD_SCHEDULER: End scheduler "sa57" with entities [LocalPlayer, LocalPlayer], work=440*
636: 0x1473 [0x5B] LOAD_EXT_SCHEDULER: Load scheduler "f000" with entities [Lilisette (ID: 17134245/0x010572A5), Lilisette (ID: 17134245/0x010572A5)], work=2135*
637: 0x1482 [0x35] LOAD_ZONE_NO_CLOSE(zone_id=87*)
638: 0x1485 [0x78] ENABLE_GAME_TIMER_RESET_WEATHER()
639: 0x1486 [0x1C] WAIT(15* ticks)
640: 0x1489 [0xAB] EventEntity->UnknownFlag = 0 // Disable unknown flag
641: 0x148B [0x02] IF !(ExtData[1]->WorkLocal[1] == 1*) GOTO 0x1494
642: 0x1493 [0x1B] RETURN
643: 0x1494 [0x46] CAMERA_CONTROL: Restore default settings
644: 0x1496 [0x45] LOAD_SCHEDULED_TASK: Load scheduler "fdi2" with entities [LocalPlayer, LocalPlayer], work=[200*, 0*]
645: 0x14A7 [0x21] END_EVENT
646: 0x14A8 [0x00] END_REQSTACK()
```

### Event 176

#### Metadata

| Field        | Value      |
|--------------|------------|
| Entrypoint   | 0x14A9     |
| Data Size    | 1962 bytes |
| Instructions | 245        |

```
      00 01 02 03 04 05 06 07  08 09 0A 0B 0C 0D 0E 0F
      -- -- -- -- -- -- -- --  -- -- -- -- -- -- -- --
14A0:                             42 1A BF 35 03 00 00           B..5...
14B0: 02 10 03 01 00 04 10 46  01 38 00 80 02 01 00 21  .......F.8.....!
14C0: 80 00 C7 14 1A 19 00 92  01 A5 72 05 01 92 01 A6  ..........r.....
14D0: 72 05 01 92 01 A3 72 05  01 92 01 D7 71 05 01 92  r.....r.....q...
14E0: 01 AF 72 05 01 94 01 F0  FF FF 7F 94 01 A5 72 05  ..r...........r.
14F0: 01 94 01 A6 72 05 01 94  01 A3 72 05 01 94 01 D7  ....r.....r.....
1500: 71 05 01 94 01 AF 72 05  01 4E 00 F0 FF FF 7F 27  q.....r..N.....'
