# 17134150

## Common Data

| Field            | Value                       |
|------------------|-----------------------------|
| Zone             | Bastok Markets [S] (ID: 87) |
| Block Size       | 116 bytes                   |
| Total Events     | 3                           |
| References Count | 10                          |

## List of Events

| Event ID                 | Entrypoint   |   Size |   Instructions |
|--------------------------|--------------|--------|----------------|
| [65535](#event-65535)    | 0x0000       |      1 |              1 |
| [27](#event-27)          | 0x0001       |      1 |              1 |
| [65535.1](#event-655351) | 0x0002       |     44 |             10 |

## DAT References (imed_data)

|   Index | Hex Value   |   Dec Value |
|---------|-------------|-------------|
|       0 | 0x0028      |          40 |
|       1 | 0xFFFF6758  |  4294928216 |
|       2 | 0x048D      |        1165 |
|       3 | 0xFFFFD8F0  |  4294957296 |
|       4 | 0xFFFF6935  |  4294928693 |
|       5 | 0xFFFFFF8C  |  4294967180 |
|       6 | 0xFFFF6D5A  |  4294929754 |
|       7 | 0xFFFFFB76  |  4294966134 |
|       8 | 0xFFFF7A78  |  4294933112 |
|       9 | 0xFFFFF9F1  |  4294965745 |

## Events

### Event 65535

#### Metadata

| Field        | Value   |
|--------------|---------|
| Entrypoint   | 0x0000  |
| Data Size    | 1 bytes |
| Instructions | 1       |

```
      00 01 02 03 04 05 06 07  08 09 0A 0B 0C 0D 0E 0F
      -- -- -- -- -- -- -- --  -- -- -- -- -- -- -- --
0000: 00                                                .               
```

#### Opcodes

```
  0: 0x0000 [0x00] END_REQSTACK()
```

### Event 27

#### Metadata

| Field        | Value   |
|--------------|---------|
| Entrypoint   | 0x0001  |
| Data Size    | 1 bytes |
| Instructions | 1       |

```
      00 01 02 03 04 05 06 07  08 09 0A 0B 0C 0D 0E 0F
      -- -- -- -- -- -- -- --  -- -- -- -- -- -- -- --
0000:    00                                              .              
```

#### Opcodes

```
  0: 0x0001 [0x00] END_REQSTACK()
```

### Event 65535.1

#### Metadata

| Field        | Value    |
|--------------|----------|
| Entrypoint   | 0x0002   |
| Data Size    | 44 bytes |
| Instructions | 10       |

```
      00 01 02 03 04 05 06 07  08 09 0A 0B 0C 0D 0E 0F
      -- -- -- -- -- -- -- --  -- -- -- -- -- -- -- --
0000:       32 00 80 1F 00 01  80 02 80 03 80 1F 01 1F    2.............
0010: 00 04 80 05 80 03 80 1F  01 1F 00 06 80 07 80 03  ................
0020: 80 1F 01 1F 00 08 80 09  80 03 80 1F 01 00        ..............  
```

#### Opcodes

```
  0: 0x0002 [0x32] ExtData[1]->MainSpeed = 40* * 0.1
  1: 0x0005 [0x1F] MOVE_ENTITY: EventEntity moves to X=-39.080*, Z=1.165*, Y=-10.000*
  2: 0x000D [0x1F] MOVE_ENTITY: Update entity position (mode=1)
  3: 0x000F [0x1F] MOVE_ENTITY: EventEntity moves to X=-38.603*, Z=-0.116*, Y=-10.000*
  4: 0x0017 [0x1F] MOVE_ENTITY: Update entity position (mode=1)
  5: 0x0019 [0x1F] MOVE_ENTITY: EventEntity moves to X=-37.542*, Z=-1.162*, Y=-10.000*
  6: 0x0021 [0x1F] MOVE_ENTITY: Update entity position (mode=1)
  7: 0x0023 [0x1F] MOVE_ENTITY: EventEntity moves to X=-34.184*, Z=-1.551*, Y=-10.000*
  8: 0x002B [0x1F] MOVE_ENTITY: Update entity position (mode=1)
  9: 0x002D [0x00] END_REQSTACK()
```
