# 17134112 - Annabelle

## Common Data

| Field            | Value                       |
|------------------|-----------------------------|
| Zone             | Bastok Markets [S] (ID: 87) |
| Block Size       | 5340 bytes                  |
| Total Events     | 5                           |
| References Count | 180                         |

## List of Events

| Event ID              | Entrypoint   |   Size |   Instructions |
|-----------------------|--------------|--------|----------------|
| [65535](#event-65535) | 0x0000       |      1 |              1 |
| [10](#event-10)       | 0x0001       |    307 |             99 |
| [11](#event-11)       | 0x0134       |   3376 |            709 |
| [12](#event-12)       | 0x0E64       |    674 |             68 |
| [15](#event-15)       | 0x1106       |    226 |             66 |

## DAT References (imed_data)

|   Index | Hex Value   |   Dec Value |
|---------|-------------|-------------|
|       0 | 0x15180     |       86400 |
|       1 | 0x2F49      |       12105 |
|       2 | 0x0E10      |        3600 |
|       3 | 0x0001      |           1 |
|       4 | 0x2F4B      |       12107 |
|       5 | 0x2F4A      |       12106 |
|       6 | 0x2F4C      |       12108 |
|       7 | 0x0002      |           2 |
|       8 | 0x2F30      |       12080 |
|       9 | 0x0000      |           0 |
|      10 | 0x40000000  |  1073741824 |
|      11 | 0x2F64      |       12132 |
|      12 | 0x2F63      |       12131 |
|      13 | 0x2F62      |       12130 |
|      14 | 0x0003      |           3 |
|      15 | 0x2F31      |       12081 |
|      16 | 0x2F32      |       12082 |
|      17 | 0x2F33      |       12083 |
|      18 | 0x2F34      |       12084 |
|      19 | 0x2F35      |       12085 |
|      20 | 0x2F36      |       12086 |
|      21 | 0x0004      |           4 |
|      22 | 0x2F3F      |       12095 |
|      23 | 0x2F40      |       12096 |
|      24 | 0x2F41      |       12097 |
|      25 | 0x2F42      |       12098 |
|      26 | 0x0005      |           5 |
|      27 | 0x2F43      |       12099 |
|      28 | 0x2F44      |       12100 |
|      29 | 0x2F45      |       12101 |
|      30 | 0x2F46      |       12102 |
|      31 | 0x2F47      |       12103 |
|      32 | 0x2F48      |       12104 |
|      33 | 0x0006      |           6 |
|      34 | 0x2F38      |       12088 |
|      35 | 0x2F39      |       12089 |
|      36 | 0x2F3A      |       12090 |
|      37 | 0x2F3B      |       12091 |
|      38 | 0x2F3C      |       12092 |
|      39 | 0x2F3D      |       12093 |
|      40 | 0x2F37      |       12087 |
|      41 | 0x2F3E      |       12094 |
|      42 | 0x2F2D      |       12077 |
|      43 | 0x2F2E      |       12078 |
|      44 | 0x2F2F      |       12079 |
|      45 | 0x2F4E      |       12110 |
|      46 | 0x2F4F      |       12111 |
|      47 | 0x2F86      |       12166 |
|      48 | 0x2F87      |       12167 |
|      49 | 0x2F88      |       12168 |
|      50 | 0x0010      |          16 |
|      51 | 0x2F65      |       12133 |
|      52 | 0x2F66      |       12134 |
|      53 | 0x2F67      |       12135 |
|      54 | 0x2F68      |       12136 |
|      55 | 0x2F69      |       12137 |
|      56 | 0x2F6A      |       12138 |
|      57 | 0x2F6B      |       12139 |
|      58 | 0x2F6C      |       12140 |
|      59 | 0x2F6D      |       12141 |
|      60 | 0x0007      |           7 |
|      61 | 0x000E      |          14 |
|      62 | 0x2F50      |       12112 |
|      63 | 0x2F51      |       12113 |
|      64 | 0x2F5E      |       12126 |
|      65 | 0x2F5F      |       12127 |
|      66 | 0x2F60      |       12128 |
|      67 | 0x2F52      |       12114 |
|      68 | 0x2F53      |       12115 |
|      69 | 0x0078      |         120 |
|      70 | 0x001E      |          30 |
|      71 | 0x0013      |          19 |
|      72 | 0x039D      |         925 |
|      73 | 0x039E      |         926 |
|      74 | 0x039F      |         927 |
|      75 | 0x03A0      |         928 |
|      76 | 0x03A1      |         929 |
|      77 | 0x03A2      |         930 |
|      78 | 0x03A3      |         931 |
|      79 | 0x0008      |           8 |
|      80 | 0x03A4      |         932 |
|      81 | 0x0009      |           9 |
|      82 | 0x03A5      |         933 |
|      83 | 0x000A      |          10 |
|      84 | 0x03A6      |         934 |
|      85 | 0x000B      |          11 |
|      86 | 0x03A7      |         935 |
|      87 | 0x000C      |          12 |
|      88 | 0x03A8      |         936 |
|      89 | 0x000D      |          13 |
|      90 | 0x03A9      |         937 |
|      91 | 0x03AA      |         938 |
|      92 | 0x000F      |          15 |
|      93 | 0x03AB      |         939 |
|      94 | 0x03AC      |         940 |
|      95 | 0x0011      |          17 |
|      96 | 0x03AD      |         941 |
|      97 | 0x0012      |          18 |
|      98 | 0x03AE      |         942 |
|      99 | 0x03AF      |         943 |
|     100 | 0x16C5A     |       93274 |
|     101 | 0xFFFF208F  |  4294910095 |
|     102 | 0x03E8      |        1000 |
|     103 | 0x022A      |         554 |
|     104 | 0x171D1     |       94673 |
|     105 | 0xFFFF38C8  |  4294916296 |
|     106 | 0x03E7      |         999 |
|     107 | 0x00F6      |         246 |
|     108 | 0x017B      |         379 |
|     109 | 0x2F54      |       12116 |
|     110 | 0x002D      |          45 |
|     111 | 0x2F55      |       12117 |
|     112 | 0x0019      |          25 |
|     113 | 0x2F56      |       12118 |
|     114 | 0xFFFB7A80  |  4294670976 |
|     115 | 0xFFFEE67B  |  4294895227 |
|     116 | 0xFFFFD121  |  4294955297 |
|     117 | 0x0FB7      |        4023 |
|     118 | 0xFFFB855C  |  4294673756 |
|     119 | 0xFFFF00C2  |  4294901954 |
|     120 | 0x04B6      |        1206 |
|     121 | 0x2F57      |       12119 |
|     122 | 0x2F58      |       12120 |
|     123 | 0x0478      |        1144 |
|     124 | 0x2F59      |       12121 |
|     125 | 0xFFFFEC5F  |  4294962271 |
|     126 | 0xA6DD      |       42717 |
|     127 | 0xFFFFFC18  |  4294966296 |
|     128 | 0x0809      |        2057 |
|     129 | 0xFFFFE891  |  4294961297 |
|     130 | 0x8D8F      |       36239 |
|     131 | 0x080A      |        2058 |
|     132 | 0x2F5A      |       12122 |
|     133 | 0x003B      |          59 |
|     134 | 0x2F5B      |       12123 |
|     135 | 0x2F5C      |       12124 |
|     136 | 0x2F5D      |       12125 |
|     137 | 0x00FE      |         254 |
|     138 | 0x00B4      |         180 |
|     139 | 0x00B6      |         182 |
|     140 | 0x00C9      |         201 |
|     141 | 0x00C8      |         200 |
|     142 | 0x2F61      |       12129 |
|     143 | 0x2F6E      |       12142 |
|     144 | 0x2F6F      |       12143 |
|     145 | 0x2F70      |       12144 |
|     146 | 0x2F73      |       12147 |
|     147 | 0x2F72      |       12146 |
|     148 | 0x2F71      |       12145 |
|     149 | 0x2F74      |       12148 |
|     150 | 0x2F75      |       12149 |
|     151 | 0x2F77      |       12151 |
|     152 | 0x2F76      |       12150 |
|     153 | 0x2F78      |       12152 |
|     154 | 0x2F79      |       12153 |
|     155 | 0x2F7A      |       12154 |
|     156 | 0x2F7B      |       12155 |
|     157 | 0x2F7E      |       12158 |
|     158 | 0x2F7D      |       12157 |
|     159 | 0x2F7C      |       12156 |
|     160 | 0x2F7F      |       12159 |
|     161 | 0x2F80      |       12160 |
|     162 | 0x2F81      |       12161 |
|     163 | 0x2F82      |       12162 |
|     164 | 0x2F83      |       12163 |
|     165 | 0x2F84      |       12164 |
|     166 | 0x2F85      |       12165 |
|     167 | 0x2F89      |       12169 |
|     168 | 0x2F4D      |       12109 |
|     169 | 0x00D7      |         215 |
|     170 | 0x2F8A      |       12170 |
|     171 | 0x2F8B      |       12171 |
|     172 | 0x001F      |          31 |
|     173 | 0x2F8C      |       12172 |
|     174 | 0x2F8D      |       12173 |
|     175 | 0x2F8E      |       12174 |
|     176 | 0x2F8F      |       12175 |
|     177 | 0x2F90      |       12176 |
|     178 | 0x2F91      |       12177 |
|     179 | 0x2F92      |       12178 |

## String References

- **12077**: Salutations, I am Campaign Evaluation Official Alfred. How might I be of assistance?
- **12078**: Greetings, I am Campaign Evaluation Official Annabelle. How can I help you today?
- **12079**: Hello, I'm Campaign Evaluation Official Llewellyn. How can I help you today?
- **12080**: What do you require? [Nothing./An evaluation./Info on the duration of my medal./An overview of evaluations./Info on medals./Info on the benefits of medals./Info on evaluation process.]
- **12081**: Evaluations are conducted on all participants of the Allied Campaign. Individual data is collected by the Allied War Council from various sources, such as Campaign Arbiters and the leaders of the armies in which the soldiers serve. This data is then used to determine whether or not a decoration is to be conferred.
- **12082**: Some of the areas that are considered in this evaluation are performance in campaign operations, as well as valor shown during campaign battles.
- **12083**: The more an individual is decorated, the more responsibility he or she will be given within the Allied Forces. And with more responsibility comes the promise of larger compensation in exchange for services.
- **12084**: However, the prestige that accompanies the medals also carries with it a great weight. To maintain one's status, he or she must continue to exceed previous expectations. If a soldier fails to fulfill the duties that are required of all those who possess a certain medal, then the Allied War Council will be forced to confiscate that decoration.
- **12085**: To put it simply, only those who fight with fervor and precision...only those who put the glory of the Allied Campaign above all else...will be allowed to reap the benefits that come with victory.
- **12086**: If you wish to learn more of the Allied Campaign, please speak with [/Lady Fiaudie/Centurion Aurelius/Kolin-Olin].
- **12087**: There are two more things of note.
- **12088**: Once an evaluation has been requested, the Allied War Council will require [five days/one hour] (Earth time) to come to a conclusion.
- **12089**: During that time, individuals may join as many operations or battles as they wish, but will only be considered for a single medal.
- **12090**: However, the same rules apply for an inadequate performance. No matter how low one scores, the maximum number of decorations that can be confiscated is one.
- **12091**: Also, individuals must not forget that all medals come with expiration dates. While an extremely unorthodox practice, this measure was deemed necessary to prevent the forgery of allied decorations by those persons with dubious intentions.
- **12092**: Upon conferral, all medals are marked with a magical seal that dissipates after a period of thirty days (Earth time). Once the seal has vanished, the medal will become void and its owner will no longer be able to participate in campaign operations or battles, among other things.
- **12093**: It is highly recommended that you keep track of the time remaining on your medal and apply for evaluations regularly.
- **12094**: Is there anything else you wish to ask?
- **12095**: Campaign medals are official rewards given to those individuals who perform exemplary deeds for the Allied Forces.
- **12096**: These decorations are internationally recognized as symbols of strength, loyalty, and honor. They not only garner respect, but provide their bearers with privileges not offered civilians.
- **12097**: Those who have been decorated with the more prestigious medals will also be highly regarded among their army's ranks, and thus entrusted with increasingly difficult and important missions.
- **12098**: On the other hand, disloyalty to one's nation is highly frowned upon. If, for any reason, an individual wishes to leave their current army of employment and pledge allegiance to another, they will be required to return their two most distinguished medals.
- **12099**: To the point, are we? Very well, I shall list the merits those in the possession of medals may receive.
- **12100**: Firstly, the more prestigious an individual's medal, the more weight [his/her] army's [/curate/supply commander/Morale Manager] will grant [his/her] opinion.
- **12101**: Secondly, the types of Campaign Ops available to an individual will increase based on the medals that [he/she] has in [his/her] possession. More advanced operations will earn participants increased amounts of EXP and Allied Notes, as well as have a heavier influence on performance evaluations.
- **12102**: Thirdly, benefits received during campaign battles will vary depending on the variety of medals an individual carries. The better the medals, the larger the opportunity to earn EXP, Allied Notes, and reputation. The selection of temporary items available for purchase will also improve.
- **12103**: However, the more prestigious the medal, the more that will be expected of its bearer. The Campaign Arbiters will not go easy on those who have already proven themselves.
- **12104**: Understood?
- **12105**: Greetings, <Player>. My ledger states that the earliest you can apply for an evaluation is in $0 day[/s].
- **12106**: Greetings, <Player>. My ledger states that the earliest you can apply for an evaluation is in $0 hour[/s].
- **12107**: Greetings, <Player>. My ledger states that the earliest you can apply for an evaluation is...any moment now.
- **12108**: Is there something I can help you with in the meantime?
- **12109**: Greetings, soldier. Unfortunately, I cannot authorize the evaluations of those individuals who have not pledged their allegiance to this nation's forces.
- **12110**: Understood. I shall prepare the proper documents and deliver them to the Allied War Council Evaluation Board in Jeuno.
- **12111**: ......
- **12112**: Congratulations, <Player>! Your recent performance has been evaluated, and the Allied War Council has deemed you worthy of a new medal!
- **12113**: Accept the honors? [Yes./No.]
- **12114**: Are you sure? [Yes./No.]
- **12115**: One moment, please, while I prepare your award.
- **12125**: That is all. Please note that you will not be eligible for another evaluation for [five days/one hour] (Earth time). Good luck, <Player>.
- **12126**: Are you certain, <Player>? You know there is no need to be humble.
- **12127**: Or perhaps you have forgotten that it doesn't matter how much you contribute to the Allied Campaign, you can only receive one medal per evaluation.
- **12128**: I cannot force you to accept the medal, but...
- **12129**: While the Allied War Council was pleased with your work, it was determined that your performance did not warrant the conferral of further decoration.
- **12130**: You still have $2 day[/s] (Earth time) until your current campaign medal expires.
- **12131**: Your current campaign medal will expire in less than a day (Earth time).
- **12132**: Your current campaign medal has already expired.
- **12133**: Would you like to continue this month's evaluation in a further attempt to receive the next medal, or would you rather end the evaluation and maintain your current honors?
- **12134**: End the evaluation? [Yes./No.]
- **12135**: Excellent. Speak with me again when you are ready to submit your next application. Good luck, <Player>.
- **12136**: By ending the evaluation, you will have accepted the war council's decision to maintain your current rank, and be granted another thirty-day seal on your current medal.
- **12137**: However, any work you have done during the past evaluation period towards the procurement of the next medal will become null and void.
- **12138**: Please consider carefully your options before making this important decision.
- **12139**: Are you absolutely sure? [Yes./No.]
- **12140**: Done. Your medal has been given a new magic seal.
- **12141**: Please note that you will be eligible for your next evaluation in [five days/one hour] (Earth time).
- **12142**: ...... I am sorry, <Player>, but the war council was not at all pleased with your performance, and has deemed you unworthy of your highest-ranking medal.
- **12143**: It shall be confiscated the moment its magic seal expires.
- **12144**: You have two choices left, <Player>. You may either accept the council's decision, or, if your medal's seal still holds, you may continue your efforts to improve your evaluation.
- **12145**: It retains $2 day[/s] (Earth time) of power.
- **12146**: However, it retains less than a day's power (Earth time).
- **12147**: Unfortunately, it no longer retains any power...
- **12148**: What is your decision?
- **12149**: You can... [Return the medal at once./Continue your efforts.]
- **12150**: Are you certain? [Yes./No.]
- **12151**: Excellent. Speak with me again when you are ready to submit your next application. Good luck, <Player>.
- **12152**: Understood. Perhaps the weight of this medal was a bit too much for you, <Player>.
- **12153**: If you wish to submit another application for evaluation, please visit me again in [five days'/one hour's] time.
- **12154**: ...... I regret to inform you, <Player>, that your performance this term fell a measure short of the council's expectations. Admittedly high expectations, but nevertheless...
- **12155**: Still, you have proven your worth to our nation on many an occasion. In light of your past services, the council has seen fit to exempt you from demotion at this time.
- **12156**: Incidentally, your seal will remain effective for $2 more day[/s] (Earth time).
- **12157**: Incidentally, your seal retains less than a day's power (Earth time).
- **12158**: Incidentally, your seal is no longer effective.
- **12159**: You may end your evaluation here, or press on. What say you?
- **12160**: Very well. We will be following your continued efforts with interest.
- **12161**: By ending the evaluation, you will have accepted the war council's decision to maintain your current rank, and be granted another thirty-day seal on your current medal.
- **12162**: However, any work you have done during the past evaluation period towards the procurement of the next medal will become null and void.
- **12163**: Please consider carefully your options before making this important decision.
- **12164**: Done. Your medal has been given a new magic seal.
- **12165**: Oh yes, and please note that you will not be eligible for another evaluation for [five days/one hour] (Earth time).
- **12166**: You are currently in possession of the most prestigious Campaign medal we have to offer. The Kingdom of San d'Oria has the utmost faith in you, and shall support you in any endeavor you choose to undertake.
- **12167**: You are currently in possession of the most prestigious Campaign medal we have to offer. The Republic of Bastok has the utmost faith in you, and shall support you in any endeavor you choose to undertake.
- **12168**: You are currently in possession of the most prestigious Campaign medal we have to offer. The Federation of Windurst has the utmost faith in you, and shall support you in any endeavor you choose to undertake.
- **12169**: You are a true hero to our nation. Though you may be exempt from demotion, we ask that you do not let up in the fight. Our hopes rest with you, <Player>!
- **12170**: Choose wisely. [Set days./Rank Points $0./Rank $1/Reset to default./Quit.]
- **12171**: Push forward how many hours?
- **12172**: Time has been pushed forward $0 hour(s).
- **12173**: Set the amount of points.
- **12174**: Points have been set at $0.
- **12175**: Set rank, please.
- **12176**: Rank has been set at $0.
- **12177**: Reset to default settings? [Yes./No.]
- **12178**: Reset complete.

## Events

### Event 65535

#### Metadata

| Field        | Value   |
|--------------|---------|
| Entrypoint   | 0x0000  |
| Data Size    | 1 bytes |
| Instructions | 1       |

```
      00 01 02 03 04 05 06 07  08 09 0A 0B 0C 0D 0E 0F
      -- -- -- -- -- -- -- --  -- -- -- -- -- -- -- --
0000: 00                                                .               
```

#### Opcodes

```
  0: 0x0000 [0x00] END_REQSTACK()
```

### Event 10

#### Metadata

| Field        | Value     |
|--------------|-----------|
| Entrypoint   | 0x0001    |
| Data Size    | 307 bytes |
| Instructions | 84        |

```
      00 01 02 03 04 05 06 07  08 09 0A 0B 0C 0D 0E 0F
      -- -- -- -- -- -- -- --  -- -- -- -- -- -- -- --
0000:    03 02 00 02 10 03 03  00 09 10 1E F0 FF FF 7F   ...............
0010: 6F 76 F8 FF FF 7F 02 02  00 00 80 02 2F 00 03 02  ov........../...
0020: 10 02 00 15 02 10 00 80  1D 01 80 23 01 4C 00 03  ...........#.L..
0030: 02 10 02 00 15 02 10 02  80 02 02 10 03 80 03 48  ...............H
0040: 00 1D 04 80 23 01 4C 00  1D 05 80 23 1D 06 80 23  ....#.L....#...#
0050: 03 01 00 07 80 24 08 80  09 80 01 00 25 02 00 10  .....$......%...
0060: 09 80 00 70 00 03 01 10  0A 80 01 32 01 01 2F 01  ...p.......2../.
0070: 02 00 10 07 80 00 A6 00  03 01 10 03 80 43 00 43  .............C.C
0080: 01 02 04 10 03 80 03 90  00 1D 0B 80 23 01 A3 00  ............#...
0090: 02 04 10 03 80 00 9F 00  1D 0C 80 23 01 A3 00 1D  ...........#....
00A0: 0D 80 23 01 2F 01 02 00  10 0E 80 00 C9 00 1D 0F  ..#./...........
00B0: 80 23 1D 10 80 23 1D 11  80 23 1D 12 80 23 1D 13  .#...#...#...#..
00C0: 80 23 1D 14 80 23 01 2F  01 02 00 10 15 80 00 E4  .#...#./........
00D0: 00 1D 16 80 23 1D 17 80  23 1D 18 80 23 1D 19 80  ....#...#...#...
00E0: 23 01 2F 01 02 00 10 1A  80 00 07 01 1D 1B 80 23  #./............#
00F0: 1D 1C 80 23 1D 1D 80 23  1D 1E 80 23 1D 1F 80 23  ...#...#...#...#
0100: 1D 20 80 23 01 2F 01 02  00 10 21 80 00 2F 01 03  . .#./....!../..
0110: 02 10 03 00 1D 22 80 23  1D 23 80 23 1D 24 80 23  .....".#.#.#.$.#
0120: 1D 25 80 23 1D 26 80 23  1D 27 80 23 01 2F 01 01  .%.#.&.#.'.#./..
0130: 55 00 21 00                                       U.!.            
```

#### Opcodes

```
  0: 0x0001 [0x03] ExtData[1]->WorkLocal[2] = Work_Zone[2]
  1: 0x0006 [0x03] ExtData[1]->WorkLocal[3] = Work_Zone[9]
  2: 0x000B [0x1E] EventEntity looks at LocalPlayer and starts talking
  3: 0x0010 [0x6F] WAIT_FRAME_DELAY: Yield until WaitTime reaches zero
  4: 0x0011 [0x76] CHECK_ENTITY_RENDER_FLAGS: Wait until EventEntity Render.Flags0 and Render.Flags3 conditions are met
  5: 0x0016 [0x02] IF !(ExtData[1]->WorkLocal[2] <= 86400*) GOTO 0x002F
  6: 0x001E [0x03] Work_Zone[2] = ExtData[1]->WorkLocal[2]
  7: 0x0023 [0x15] Work_Zone[2] /= 86400*
  8: 0x0028 [0x1D] PRINT_EVENT_MESSAGE(message_id=12105*)
    → "Greetings, <Player>. My ledger states that the earliest you can apply for an evaluation is in $0 day[/s]."
  9: 0x002B [0x23] WAIT_FOR_DIALOG_INTERACTION
 10: 0x002C [0x01] GOTO 0x004C
 11: 0x002F [0x03] Work_Zone[2] = ExtData[1]->WorkLocal[2]
 12: 0x0034 [0x15] Work_Zone[2] /= 3600*
 13: 0x0039 [0x02] IF !(Work_Zone[2] >= 1*) GOTO 0x0048
 14: 0x0041 [0x1D] PRINT_EVENT_MESSAGE(message_id=12107*)
    → "Greetings, <Player>. My ledger states that the earliest you can apply for an evaluation is...any moment now."
 15: 0x0044 [0x23] WAIT_FOR_DIALOG_INTERACTION
 16: 0x0045 [0x01] GOTO 0x004C
 17: 0x0048 [0x1D] PRINT_EVENT_MESSAGE(message_id=12106*)
    → "Greetings, <Player>. My ledger states that the earliest you can apply for an evaluation is in $0 hour[/s]."
 18: 0x004B [0x23] WAIT_FOR_DIALOG_INTERACTION

SUBROUTINE_004C:
 19: 0x004C [0x1D] PRINT_EVENT_MESSAGE(message_id=12108*)
    → "Is there something I can help you with in the meantime?"
 20: 0x004F [0x23] WAIT_FOR_DIALOG_INTERACTION
 21: 0x0050 [0x03] ExtData[1]->WorkLocal[1] = 2*

SUBROUTINE_0055:
 22: 0x0055 [0x24] CREATE_DIALOG(message_id=12080*, default_option=0*, option_flags=ExtData[1]->WorkLocal[1])
    → "What do you require? [Nothing./An evaluation./Info on the duration of my medal./An overview of evaluations./Info on medals./Info on the benefits of medals./Info on evaluation process.]"
 23: 0x005C [0x25] WAIT_DIALOG_SELECT()
 24: 0x005D [0x02] IF !(Work_Zone[0] == 0*) GOTO 0x0070
 25: 0x0065 [0x03] Work_Zone[1] = 1073741824*
 26: 0x006A [0x01] GOTO 0x0132

SUBROUTINE_00A3:
 27: 0x00A3 [0x01] GOTO 0x012F
 28: 0x00A6 [0x02] IF !(Work_Zone[0] == 3*) GOTO 0x00C9
 29: 0x00AE [0x1D] PRINT_EVENT_MESSAGE(message_id=12081*)
    → "Evaluations are conducted on all participants of the Allied Campaign. Individual data is collected by the Allied War Council from various sources, such as Campaign Arbiters and the leaders of the armies in which the soldiers serve. This data is then used to determine whether or not a decoration is to be conferred."
 30: 0x00B1 [0x23] WAIT_FOR_DIALOG_INTERACTION
 31: 0x00B2 [0x1D] PRINT_EVENT_MESSAGE(message_id=12082*)
    → "Some of the areas that are considered in this evaluation are performance in campaign operations, as well as valor shown during campaign battles."
 32: 0x00B5 [0x23] WAIT_FOR_DIALOG_INTERACTION
 33: 0x00B6 [0x1D] PRINT_EVENT_MESSAGE(message_id=12083*)
    → "The more an individual is decorated, the more responsibility he or she will be given within the Allied Forces. And with more responsibility comes the promise of larger compensation in exchange for services."
 34: 0x00B9 [0x23] WAIT_FOR_DIALOG_INTERACTION
 35: 0x00BA [0x1D] PRINT_EVENT_MESSAGE(message_id=12084*)
    → "However, the prestige that accompanies the medals also carries with it a great weight. To maintain one's status, he or she must continue to exceed previous expectations. If a soldier fails to fulfill the duties that are required of all those who possess a certain medal, then the Allied War Council will be forced to confiscate that decoration."
 36: 0x00BD [0x23] WAIT_FOR_DIALOG_INTERACTION
 37: 0x00BE [0x1D] PRINT_EVENT_MESSAGE(message_id=12085*)
    → "To put it simply, only those who fight with fervor and precision...only those who put the glory of the Allied Campaign above all else...will be allowed to reap the benefits that come with victory."
 38: 0x00C1 [0x23] WAIT_FOR_DIALOG_INTERACTION
 39: 0x00C2 [0x1D] PRINT_EVENT_MESSAGE(message_id=12086*)
    → "If you wish to learn more of the Allied Campaign, please speak with [/Lady Fiaudie/Centurion Aurelius/Kolin-Olin]."
 40: 0x00C5 [0x23] WAIT_FOR_DIALOG_INTERACTION
 41: 0x00C6 [0x01] GOTO 0x012F
 42: 0x00C9 [0x02] IF !(Work_Zone[0] == 4*) GOTO 0x00E4
 43: 0x00D1 [0x1D] PRINT_EVENT_MESSAGE(message_id=12095*)
    → "Campaign medals are official rewards given to those individuals who perform exemplary deeds for the Allied Forces."
 44: 0x00D4 [0x23] WAIT_FOR_DIALOG_INTERACTION
 45: 0x00D5 [0x1D] PRINT_EVENT_MESSAGE(message_id=12096*)
    → "These decorations are internationally recognized as symbols of strength, loyalty, and honor. They not only garner respect, but provide their bearers with privileges not offered civilians."
 46: 0x00D8 [0x23] WAIT_FOR_DIALOG_INTERACTION
 47: 0x00D9 [0x1D] PRINT_EVENT_MESSAGE(message_id=12097*)
    → "Those who have been decorated with the more prestigious medals will also be highly regarded among their army's ranks, and thus entrusted with increasingly difficult and important missions."
 48: 0x00DC [0x23] WAIT_FOR_DIALOG_INTERACTION
 49: 0x00DD [0x1D] PRINT_EVENT_MESSAGE(message_id=12098*)
    → "On the other hand, disloyalty to one's nation is highly frowned upon. If, for any reason, an individual wishes to leave their current army of employment and pledge allegiance to another, they will be required to return their two most distinguished medals."
 50: 0x00E0 [0x23] WAIT_FOR_DIALOG_INTERACTION
 51: 0x00E1 [0x01] GOTO 0x012F
 52: 0x00E4 [0x02] IF !(Work_Zone[0] == 5*) GOTO 0x0107
 53: 0x00EC [0x1D] PRINT_EVENT_MESSAGE(message_id=12099*)
    → "To the point, are we? Very well, I shall list the merits those in the possession of medals may receive."
 54: 0x00EF [0x23] WAIT_FOR_DIALOG_INTERACTION
 55: 0x00F0 [0x1D] PRINT_EVENT_MESSAGE(message_id=12100*)
    → "Firstly, the more prestigious an individual's medal, the more weight [his/her] army's [/curate/supply commander/Morale Manager] will grant [his/her] opinion."
 56: 0x00F3 [0x23] WAIT_FOR_DIALOG_INTERACTION
 57: 0x00F4 [0x1D] PRINT_EVENT_MESSAGE(message_id=12101*)
    → "Secondly, the types of Campaign Ops available to an individual will increase based on the medals that [he/she] has in [his/her] possession. More advanced operations will earn participants increased amounts of EXP and Allied Notes, as well as have a heavier influence on performance evaluations."
 58: 0x00F7 [0x23] WAIT_FOR_DIALOG_INTERACTION
 59: 0x00F8 [0x1D] PRINT_EVENT_MESSAGE(message_id=12102*)
    → "Thirdly, benefits received during campaign battles will vary depending on the variety of medals an individual carries. The better the medals, the larger the opportunity to earn EXP, Allied Notes, and reputation. The selection of temporary items available for purchase will also improve."
 60: 0x00FB [0x23] WAIT_FOR_DIALOG_INTERACTION
 61: 0x00FC [0x1D] PRINT_EVENT_MESSAGE(message_id=12103*)
    → "However, the more prestigious the medal, the more that will be expected of its bearer. The Campaign Arbiters will not go easy on those who have already proven themselves."
 62: 0x00FF [0x23] WAIT_FOR_DIALOG_INTERACTION
 63: 0x0100 [0x1D] PRINT_EVENT_MESSAGE(message_id=12104*)
    → "Understood?"
 64: 0x0103 [0x23] WAIT_FOR_DIALOG_INTERACTION
 65: 0x0104 [0x01] GOTO 0x012F
 66: 0x0107 [0x02] IF !(Work_Zone[0] == 6*) GOTO 0x012F
 67: 0x010F [0x03] Work_Zone[2] = ExtData[1]->WorkLocal[3]
 68: 0x0114 [0x1D] PRINT_EVENT_MESSAGE(message_id=12088*)
    → "Once an evaluation has been requested, the Allied War Council will require [five days/one hour] (Earth time) to come to a conclusion."
 69: 0x0117 [0x23] WAIT_FOR_DIALOG_INTERACTION
 70: 0x0118 [0x1D] PRINT_EVENT_MESSAGE(message_id=12089*)
    → "During that time, individuals may join as many operations or battles as they wish, but will only be considered for a single medal."
 71: 0x011B [0x23] WAIT_FOR_DIALOG_INTERACTION
 72: 0x011C [0x1D] PRINT_EVENT_MESSAGE(message_id=12090*)
    → "However, the same rules apply for an inadequate performance. No matter how low one scores, the maximum number of decorations that can be confiscated is one."
 73: 0x011F [0x23] WAIT_FOR_DIALOG_INTERACTION
 74: 0x0120 [0x1D] PRINT_EVENT_MESSAGE(message_id=12091*)
    → "Also, individuals must not forget that all medals come with expiration dates. While an extremely unorthodox practice, this measure was deemed necessary to prevent the forgery of allied decorations by those persons with dubious intentions."
 75: 0x0123 [0x23] WAIT_FOR_DIALOG_INTERACTION
 76: 0x0124 [0x1D] PRINT_EVENT_MESSAGE(message_id=12092*)
    → "Upon conferral, all medals are marked with a magical seal that dissipates after a period of thirty days (Earth time). Once the seal has vanished, the medal will become void and its owner will no longer be able to participate in campaign operations or battles, among other things."
 77: 0x0127 [0x23] WAIT_FOR_DIALOG_INTERACTION
 78: 0x0128 [0x1D] PRINT_EVENT_MESSAGE(message_id=12093*)
    → "It is highly recommended that you keep track of the time remaining on your medal and apply for evaluations regularly."
 79: 0x012B [0x23] WAIT_FOR_DIALOG_INTERACTION
 80: 0x012C [0x01] GOTO 0x012F

SUBROUTINE_012F:
 81: 0x012F [0x01] GOTO 0x0055

SUBROUTINE_0132:
 82: 0x0132 [0x21] END_EVENT
 83: 0x0133 [0x00] END_REQSTACK()
```

#### Data or dead code:

```
# Dead code (unreachable instructions):
     0x006D [0x01] GOTO 0x012F
```

### Event 11

#### Metadata

| Field        | Value      |
|--------------|------------|
| Entrypoint   | 0x0134     |
| Data Size    | 3376 bytes |
| Instructions | 678        |

```
      00 01 02 03 04 05 06 07  08 09 0A 0B 0C 0D 0E 0F
      -- -- -- -- -- -- -- --  -- -- -- -- -- -- -- --
0130:             42 1E F0 FF  FF 7F 6F 76 F8 FF FF 7F      B.....ov....
0140: 03 00 00 02 10 02 00 00  09 80 00 8D 01 1D 0F 80  ................
0150: 23 1D 10 80 23 1D 11 80  23 1D 12 80 23 1D 13 80  #...#...#...#...
0160: 23 1D 14 80 23 1D 28 80  23 1D 22 80 23 1D 23 80  #...#.(.#.".#.#.
0170: 23 1D 24 80 23 1D 25 80  23 1D 26 80 23 1D 27 80  #.$.#.%.#.&.#.'.
0180: 23 1D 29 80 23 03 01 00  07 80 01 BD 01 02 05 10  #.).#...........
0190: 03 80 80 9C 01 1D 2A 80  23 01 BA 01 02 05 10 07  ......*.#.......
01A0: 80 80 AB 01 1D 2B 80 23  01 BA 01 02 05 10 0E 80  .....+.#........
01B0: 80 BA 01 1D 2C 80 23 01  BA 01 06 01 00 24 08 80  ....,.#......$..
01C0: 09 80 01 00 25 02 00 10  09 80 00 D8 01 03 01 10  ....%...........
01D0: 0A 80 01 62 0E 01 A0 02  02 00 10 03 80 00 E6 01  ...b............
01E0: 01 A3 02 01 A0 02 02 00  10 07 80 00 1C 02 03 01  ................
01F0: 10 03 80 43 00 43 01 02  04 10 03 80 03 06 02 1D  ...C.C..........
0200: 0B 80 23 01 19 02 02 04  10 03 80 00 15 02 1D 0C  ..#.............
0210: 80 23 01 19 02 1D 0D 80  23 01 A0 02 02 00 10 0E  .#......#.......
0220: 80 00 3F 02 1D 0F 80 23  1D 10 80 23 1D 11 80 23  ..?....#...#...#
0230: 1D 12 80 23 1D 13 80 23  1D 14 80 23 01 A0 02 02  ...#...#...#....
0240: 00 10 15 80 00 5A 02 1D  16 80 23 1D 17 80 23 1D  .....Z....#...#.
0250: 18 80 23 1D 19 80 23 01  A0 02 02 00 10 1A 80 00  ..#...#.........
0260: 7D 02 1D 1B 80 23 1D 1C  80 23 1D 1D 80 23 1D 1E  }....#...#...#..
0270: 80 23 1D 1F 80 23 1D 20  80 23 01 A0 02 02 00 10  .#...#. .#......
0280: 21 80 00 A0 02 1D 22 80  23 1D 23 80 23 1D 24 80  !.....".#.#.#.$.
0290: 23 1D 25 80 23 1D 26 80  23 1D 27 80 23 01 A0 02  #.%.#.&.#.'.#...
02A0: 01 BD 01 1D 2D 80 23 1D  2E 80 23 03 01 10 03 80  ....-.#...#.....
02B0: 43 00 43 01 02 02 10 09  80 00 62 0E 02 03 10 15  C.C.......b.....
02C0: 80 80 86 03 02 05 10 03  80 80 D3 02 1D 2F 80 23  ............./.#
02D0: 01 F1 02 02 05 10 07 80  80 E2 02 1D 30 80 23 01  ............0.#.
02E0: F1 02 02 05 10 0E 80 80  F1 02 1D 31 80 23 01 F1  ...........1.#..
02F0: 02 06 01 00 02 04 10 03  80 03 08 03 1D 0B 80 23  ...............#
0300: 03 01 00 32 80 01 1B 03  02 04 10 03 80 00 17 03  ...2............
0310: 1D 0C 80 23 01 1B 03 1D  0D 80 23 1D 33 80 23 24  ...#......#.3.#$
0320: 34 80 03 80 01 00 25 02  00 10 03 80 00 3E 03 1D  4.....%......>..
0330: 35 80 23 03 01 10 0A 80  01 62 0E 01 3E 03 1D 36  5.#......b..>..6
0340: 80 23 1D 37 80 23 1D 38  80 23 24 39 80 03 80 01  .#.7.#.8.#$9....
0350: 00 25 02 00 10 03 80 00  69 03 1D 35 80 23 03 01  .%......i..5.#..
0360: 10 0A 80 01 62 0E 01 69  03 1D 3A 80 23 1D 3B 80  ....b..i..:.#.;.
0370: 23 03 01 10 07 80 40 15  80 3C 80 01 10 15 80 43  #.....@..<.....C
0380: 00 43 01 01 5F 0E 02 03  10 0E 80 80 6D 0B 6E F8  .C.._.......m.n.
0390: FF FF 7F 3D 80 99 F8 FF  FF 7F 1D 3E 80 23 24 3F  ...=.......>.#$?
03A0: 80 03 80 09 80 25 02 00  10 03 80 00 C5 03 1D 40  .....%.........@
03B0: 80 23 1D 41 80 23 1D 42  80 23 03 01 10 0A 80 01  .#.A.#.B.#......
03C0: 62 0E 01 C5 03 24 43 80  03 80 09 80 25 02 00 10  b....$C.....%...
03D0: 03 80 00 EC 03 1D 40 80  23 1D 41 80 23 1D 42 80  ......@.#.A.#.B.
03E0: 23 03 01 10 0A 80 01 62  0E 01 EC 03 6E F8 FF FF  #......b....n...
03F0: 7F 3C 80 99 F8 FF FF 7F  1D 44 80 23 5D 09 80 45  .<.......D.#]..E
0400: 80 1A D8 0E 1C 46 80 46  01 38 47 80 02 06 10 03  .....F.F.8G.....
0410: 80 80 1C 04 03 07 10 48  80 01 3C 05 02 06 10 07  .......H..<.....
0420: 80 80 2C 04 03 07 10 49  80 01 3C 05 02 06 10 0E  ..,....I..<.....
0430: 80 80 3C 04 03 07 10 4A  80 01 3C 05 02 06 10 15  ..<....J..<.....
0440: 80 80 4C 04 03 07 10 4B  80 01 3C 05 02 06 10 1A  ..L....K..<.....
0450: 80 80 5C 04 03 07 10 4C  80 01 3C 05 02 06 10 21  ..\....L..<....!
0460: 80 80 6C 04 03 07 10 4D  80 01 3C 05 02 06 10 3C  ..l....M..<....<
0470: 80 80 7C 04 03 07 10 4E  80 01 3C 05 02 06 10 4F  ..|....N..<....O
0480: 80 80 8C 04 03 07 10 50  80 01 3C 05 02 06 10 51  .......P..<....Q
0490: 80 80 9C 04 03 07 10 52  80 01 3C 05 02 06 10 53  .......R..<....S
04A0: 80 80 AC 04 03 07 10 54  80 01 3C 05 02 06 10 55  .......T..<....U
04B0: 80 80 BC 04 03 07 10 56  80 01 3C 05 02 06 10 57  .......V..<....W
04C0: 80 80 CC 04 03 07 10 58  80 01 3C 05 02 06 10 59  .......X..<....Y
04D0: 80 80 DC 04 03 07 10 5A  80 01 3C 05 02 06 10 3D  .......Z..<....=
04E0: 80 80 EC 04 03 07 10 5B  80 01 3C 05 02 06 10 5C  .......[..<....\
04F0: 80 80 FC 04 03 07 10 5D  80 01 3C 05 02 06 10 32  .......]..<....2
0500: 80 80 0C 05 03 07 10 5E  80 01 3C 05 02 06 10 5F  .......^..<...._
0510: 80 80 1C 05 03 07 10 60  80 01 3C 05 02 06 10 61  .......`..<....a
0520: 80 80 2C 05 03 07 10 62  80 01 3C 05 02 06 10 47  ..,....b..<....G
0530: 80 80 3C 05 03 07 10 63  80 01 3C 05 02 05 10 03  ..<....c..<.....
0540: 80 80 FA 06 27 10 21 72  05 01 04 92 01 21 72 05  ....'.!r.....!r.
0550: 01 92 01 20 72 05 01 94  01 F0 FF FF 7F 94 01 21  ... r..........!
0560: 72 05 01 94 01 20 72 05  01 BA F0 FF FF 7F 64 80  r.... r.......d.
0570: 65 80 66 80 67 80 BA 21  72 05 01 68 80 69 80 6A  e.f.g..!r..h.i.j
0580: 80 67 80 80 F0 FF FF 7F  80 21 72 05 01 80 20 72  .g.......!r... r
0590: 05 01 4A 20 72 05 01 F0  FF FF 7F 79 00 F0 FF FF  ..J r......y....
05A0: 7F 20 72 05 01 5C 00 6B  80 5C 01 6B 80 9A 1C 5C  . r..\.k.\.k...\
05B0: 80 27 10 21 72 05 01 09  45 6C 80 F0 FF FF 7F F0  .'.!r...El......
05C0: FF FF 7F 6B 73 30 30 09  80 1A B7 0E 2A 10 21 72  ...ks00.....*.!r
05D0: 05 01 79 00 F8 FF FF 7F  21 72 05 01 2B 21 72 05  ..y.....!r..+!r.
05E0: 01 6D 80 23 4A F0 FF FF  7F 21 72 05 01 1C 5C 80  .m.#J....!r...\.
05F0: 52 6C 80 F0 FF FF 7F F0  FF FF 7F 6B 73 30 30 45  Rl.........ks00E
0600: 6C 80 F0 FF FF 7F F0 FF  FF 7F 6B 73 30 31 09 80  l.........ks01..
0610: 1C 45 80 27 10 21 72 05  01 0A 52 6C 80 F0 FF FF  .E.'.!r...Rl....
0620: 7F F0 FF FF 7F 6B 73 30  31 45 6C 80 F0 FF FF 7F  .....ks01El.....
0630: F0 FF FF 7F 6B 73 30 32  09 80 2A 10 21 72 05 01  ....ks02..*.!r..
0640: 4A F0 FF FF 7F 21 72 05  01 1C 6E 80 52 6C 80 F0  J....!r...n.Rl..
0650: FF FF 7F F0 FF FF 7F 6B  73 30 32 45 6C 80 F0 FF  .......ks02El...
0660: FF 7F F0 FF FF 7F 6B 73  30 33 09 80 2B 21 72 05  ......ks03..+!r.
0670: 01 6F 80 23 52 6C 80 F0  FF FF 7F F0 FF FF 7F 6B  .o.#Rl.........k
0680: 73 30 33 45 6C 80 F0 FF  FF 7F F0 FF FF 7F 6B 73  s03El.........ks
0690: 30 34 09 80 6E 21 72 05  01 70 80 99 21 72 05 01  04..n!r..p..!r..
06A0: 2B 21 72 05 01 71 80 23  99 21 72 05 01 52 6C 80  +!r..q.#.!r..Rl.
06B0: F0 FF FF 7F F0 FF FF 7F  6B 73 30 34 45 6C 80 F0  ........ks04El..
06C0: FF FF 7F F0 FF FF 7F 6B  73 30 35 09 80 27 10 21  .......ks05..'.!
06D0: 72 05 01 0B 1C 45 80 52  6C 80 F0 FF FF 7F F0 FF  r....E.Rl.......
06E0: FF 7F 6B 73 30 35 45 6C  80 F0 FF FF 7F F0 FF FF  ..ks05El........
06F0: 7F 6B 73 30 36 09 80 01  81 0A 02 05 10 07 80 80  .ks06...........
0700: B6 08 27 10 22 72 05 01  04 92 01 22 72 05 01 92  ..'."r....."r...
0710: 01 20 72 05 01 94 01 F0  FF FF 7F 94 01 22 72 05  . r.........."r.
0720: 01 94 01 20 72 05 01 BA  F0 FF FF 7F 72 80 73 80  ... r.......r.s.
0730: 74 80 75 80 BA 22 72 05  01 76 80 77 80 74 80 78  t.u.."r..v.w.t.x
0740: 80 80 F0 FF FF 7F 80 22  72 05 01 80 20 72 05 01  ......."r... r..
0750: 4A 20 72 05 01 F0 FF FF  7F 79 00 F0 FF FF 7F 20  J r......y..... 
0760: 72 05 01 5C 00 6B 80 5C  01 6B 80 9A 1C 5C 80 27  r..\.k.\.k...\.'
0770: 10 22 72 05 01 09 45 6C  80 F0 FF FF 7F F0 FF FF  ."r...El........
0780: 7F 6B 62 30 30 09 80 1A  B7 0E 2A 10 22 72 05 01  .kb00.....*."r..
0790: 79 00 F8 FF FF 7F 22 72  05 01 2B 22 72 05 01 79  y....."r..+"r..y
07A0: 80 23 4A F0 FF FF 7F 22  72 05 01 1C 5C 80 52 6C  .#J...."r...\.Rl
07B0: 80 F0 FF FF 7F F0 FF FF  7F 6B 62 30 30 45 6C 80  .........kb00El.
07C0: F0 FF FF 7F F0 FF FF 7F  6B 62 30 31 09 80 1C 45  ........kb01...E
07D0: 80 27 10 22 72 05 01 0A  52 6C 80 F0 FF FF 7F F0  .'."r...Rl......
07E0: FF FF 7F 6B 62 30 31 45  6C 80 F0 FF FF 7F F0 FF  ...kb01El.......
07F0: FF 7F 6B 62 30 32 09 80  2A 10 22 72 05 01 4A F0  ..kb02..*."r..J.
0800: FF FF 7F 22 72 05 01 1C  6E 80 52 6C 80 F0 FF FF  ..."r...n.Rl....
0810: 7F F0 FF FF 7F 6B 62 30  32 45 6C 80 F0 FF FF 7F  .....kb02El.....
0820: F0 FF FF 7F 6B 62 30 33  09 80 2B 22 72 05 01 7A  ....kb03..+"r..z
0830: 80 23 52 6C 80 F0 FF FF  7F F0 FF FF 7F 6B 62 30  .#Rl.........kb0
0840: 33 45 6C 80 F0 FF FF 7F  F0 FF FF 7F 6B 62 30 34  3El.........kb04
0850: 09 80 5B 7B 80 22 72 05  01 22 72 05 01 67 61 68  ..[{."r.."r..gah
0860: 30 2B 22 72 05 01 7C 80  23 52 6C 80 F0 FF FF 7F  0+"r..|.#Rl.....
0870: F0 FF FF 7F 6B 62 30 34  45 6C 80 F0 FF FF 7F F0  ....kb04El......
0880: FF FF 7F 6B 62 30 35 09  80 27 10 22 72 05 01 0B  ...kb05..'."r...
0890: 1C 45 80 52 6C 80 F0 FF  FF 7F F0 FF FF 7F 6B 62  .E.Rl.........kb
08A0: 30 35 45 6C 80 F0 FF FF  7F F0 FF FF 7F 6B 62 30  05El.........kb0
08B0: 36 09 80 01 81 0A 02 05  10 0E 80 80 81 0A 27 10  6.............'.
08C0: 23 72 05 01 04 92 01 23  72 05 01 92 01 20 72 05  #r.....#r.... r.
08D0: 01 94 01 F0 FF FF 7F 94  01 23 72 05 01 94 01 20  .........#r.... 
08E0: 72 05 01 BA F0 FF FF 7F  7D 80 7E 80 7F 80 80 80  r.......}.~.....
08F0: BA 23 72 05 01 81 80 82  80 7F 80 83 80 80 F0 FF  .#r.............
0900: FF 7F 80 23 72 05 01 80  20 72 05 01 4A 20 72 05  ...#r... r..J r.
0910: 01 F0 FF FF 7F 79 00 F0  FF FF 7F 20 72 05 01 5C  .....y..... r..\
0920: 00 6B 80 5C 01 6B 80 9A  1C 5C 80 27 10 23 72 05  .k.\.k...\.'.#r.
0930: 01 09 45 6C 80 F0 FF FF  7F F0 FF FF 7F 6B 77 30  ..El.........kw0
0940: 30 09 80 1A B7 0E 2A 10  23 72 05 01 79 00 F8 FF  0.....*.#r..y...
0950: FF 7F 23 72 05 01 2B 23  72 05 01 84 80 23 4A F0  ..#r..+#r....#J.
0960: FF FF 7F 23 72 05 01 1C  5C 80 52 6C 80 F0 FF FF  ...#r...\.Rl....
0970: 7F F0 FF FF 7F 6B 77 30  30 45 6C 80 F0 FF FF 7F  .....kw00El.....
0980: F0 FF FF 7F 6B 77 30 31  09 80 1C 45 80 27 10 23  ....kw01...E.'.#
0990: 72 05 01 0A 52 6C 80 F0  FF FF 7F F0 FF FF 7F 6B  r...Rl.........k
09A0: 77 30 31 45 6C 80 F0 FF  FF 7F F0 FF FF 7F 6B 77  w01El.........kw
09B0: 30 32 09 80 2A 10 23 72  05 01 4A F0 FF FF 7F 23  02..*.#r..J....#
09C0: 72 05 01 1C 6E 80 52 6C  80 F0 FF FF 7F F0 FF FF  r...n.Rl........
09D0: 7F 6B 77 30 32 45 6C 80  F0 FF FF 7F F0 FF FF 7F  .kw02El.........
09E0: 6B 77 30 33 09 80 66 85  80 23 72 05 01 23 72 05  kw03..f..#r..#r.
09F0: 01 74 6C 6B 30 2B 23 72  05 01 86 80 23 52 6C 80  .tlk0+#r....#Rl.
0A00: F0 FF FF 7F F0 FF FF 7F  6B 77 30 33 45 6C 80 F0  ........kw03El..
0A10: FF FF 7F F0 FF FF 7F 6B  77 30 34 09 80 66 85 80  .......kw04..f..
0A20: 23 72 05 01 23 72 05 01  74 6C 6B 31 2B 23 72 05  #r..#r..tlk1+#r.
0A30: 01 87 80 23 52 6C 80 F0  FF FF 7F F0 FF FF 7F 6B  ...#Rl.........k
0A40: 77 30 34 45 6C 80 F0 FF  FF 7F F0 FF FF 7F 6B 77  w04El.........kw
0A50: 30 35 09 80 27 10 23 72  05 01 0B 1C 45 80 52 6C  05..'.#r....E.Rl
0A60: 80 F0 FF FF 7F F0 FF FF  7F 6B 77 30 35 45 6C 80  .........kw05El.
0A70: F0 FF FF 7F F0 FF FF 7F  6B 77 30 36 09 80 01 81  ........kw06....
0A80: 0A 7B F8 FF FF 7F 1C 46  80 1D 88 80 23 5D 09 80  .{.....F....#]..
0A90: 45 80 1A D8 0E 1C 46 80  52 6C 80 F0 FF FF 7F F0  E.....F.Rl......
0AA0: FF FF 7F 6B 73 30 36 52  6C 80 F0 FF FF 7F F0 FF  ...ks06Rl.......
0AB0: FF 7F 6B 62 30 36 52 6C  80 F0 FF FF 7F F0 FF FF  ..kb06Rl........
0AC0: 7F 6B 77 30 36 45 6C 80  F0 FF FF 7F F0 FF FF 7F  .kw06El.........
0AD0: 30 62 6C 66 09 80 7A 00  21 72 05 01 7A 00 22 72  0blf..z.!r..z."r
0AE0: 05 01 7A 00 23 72 05 01  4E 01 21 72 05 01 4E 01  ..z.#r..N.!r..N.
0AF0: 22 72 05 01 4E 01 23 72  05 01 02 05 10 03 80 80  "r..N.#r........
0B00: 0D 0B 5C 00 89 80 5C 01  89 80 01 33 0B 02 05 10  ..\...\....3....
0B10: 07 80 80 20 0B 5C 00 8A  80 5C 01 8A 80 01 33 0B  ... .\...\....3.
0B20: 02 05 10 0E 80 80 33 0B  5C 00 8B 80 5C 01 8B 80  ......3.\...\...
0B30: 01 33 0B 9A 46 00 45 8C  80 F8 FF FF 7F F8 FF FF  .3..F.E.........
0B40: 7F 71 73 74 63 09 80 03  01 10 07 80 40 15 80 3C  .qstc.......@..<
0B50: 80 01 10 0E 80 43 00 43  01 45 8D 80 F0 FF FF 7F  .....C.C.E......
0B60: F0 FF FF 7F 66 64 69 32  09 80 01 5F 0E 02 03 10  ....fdi2..._....
0B70: 07 80 80 0A 0C 1D 8E 80  23 06 01 00 02 04 10 03  ........#.......
0B80: 80 03 90 0B 1D 0B 80 23  03 01 00 07 80 01 A3 0B  .......#........
0B90: 02 04 10 03 80 00 9F 0B  1D 0C 80 23 01 A3 0B 1D  ...........#....
0BA0: 0D 80 23 1D 33 80 23 24  34 80 03 80 01 00 25 02  ..#.3.#$4.....%.
0BB0: 00 10 03 80 00 C6 0B 1D  35 80 23 03 01 10 0A 80  ........5.#.....
0BC0: 01 62 0E 01 C6 0B 1D 36  80 23 1D 37 80 23 1D 38  .b.....6.#.7.#.8
0BD0: 80 23 24 39 80 03 80 01  00 25 02 00 10 03 80 00  .#$9.....%......
0BE0: F1 0B 1D 35 80 23 03 01  10 0A 80 01 62 0E 01 F1  ...5.#......b...
0BF0: 0B 1D 3A 80 23 03 01 10  07 80 40 15 80 3C 80 01  ..:.#.....@..<..
0C00: 10 07 80 43 00 43 01 01  5F 0E 02 03 10 03 80 80  ...C.C.._.......
0C10: A7 0C 1D 8F 80 23 1D 90  80 23 1D 91 80 23 06 01  .....#...#...#..
0C20: 00 02 04 10 03 80 03 35  0C 1D 92 80 23 03 01 00  .......5....#...
0C30: 07 80 01 48 0C 02 04 10  03 80 00 44 0C 1D 93 80  ...H.......D....
0C40: 23 01 48 0C 1D 94 80 23  1D 95 80 23 24 96 80 03  #.H....#...#$...
0C50: 80 01 00 25 02 00 10 03  80 00 6B 0C 1D 97 80 23  ...%......k....#
0C60: 03 01 10 0A 80 01 62 0E  01 6B 0C 24 98 80 03 80  ......b..k.$....
0C70: 01 00 25 02 00 10 03 80  00 8A 0C 1D 97 80 23 03  ..%...........#.
0C80: 01 10 0A 80 01 62 0E 01  8A 0C 1D 99 80 23 1D 9A  .....b.......#..
0C90: 80 23 03 01 10 07 80 40  15 80 3C 80 01 10 03 80  .#.....@..<.....
0CA0: 43 00 43 01 01 5F 0E 02  03 10 1A 80 80 4C 0D 1D  C.C.._.......L..
0CB0: 9B 80 23 1D 9C 80 23 06  01 00 02 04 10 03 80 03  ..#...#.........
0CC0: CE 0C 1D 9D 80 23 03 01  00 07 80 01 E1 0C 02 04  .....#..........
0CD0: 10 03 80 00 DD 0C 1D 9E  80 23 01 E1 0C 1D 9F 80  .........#......
0CE0: 23 1D A0 80 23 24 34 80  03 80 01 00 25 02 00 10  #...#$4.....%...
0CF0: 03 80 00 04 0D 1D A1 80  23 03 01 10 0A 80 01 62  ........#......b
0D00: 0E 01 04 0D 1D A2 80 23  1D A3 80 23 1D A4 80 23  .......#...#...#
0D10: 24 39 80 03 80 01 00 25  02 00 10 03 80 00 2F 0D  $9.....%....../.
0D20: 1D A1 80 23 03 01 10 0A  80 01 62 0E 01 2F 0D 1D  ...#......b../..
0D30: A5 80 23 1D A6 80 23 03  01 10 07 80 40 15 80 3C  ..#...#.....@..<
0D40: 80 01 10 1A 80 43 00 43  01 01 5F 0E 02 03 10 21  .....C.C.._....!
0D50: 80 80 C2 0D 1D 9B 80 23  1D 9C 80 23 06 01 00 02  .......#...#....
0D60: 04 10 03 80 03 73 0D 1D  9D 80 23 03 01 00 07 80  .....s....#.....
0D70: 01 86 0D 02 04 10 03 80  00 82 0D 1D 9E 80 23 01  ..............#.
0D80: 86 0D 1D 9F 80 23 1D 33  80 23 24 34 80 03 80 01  .....#.3.#$4....
0D90: 00 25 02 00 10 03 80 00  A9 0D 1D A1 80 23 03 01  .%...........#..
0DA0: 10 0A 80 01 62 0E 01 A9  0D 1D A7 80 23 03 01 10  ....b.......#...
0DB0: 07 80 40 15 80 3C 80 01  10 21 80 43 00 43 01 01  ..@..<...!.C.C..
0DC0: 5F 0E 02 03 10 09 80 80  5F 0E 1D 8E 80 23 06 01  _......._....#..
0DD0: 00 02 04 10 03 80 03 E5  0D 1D 0B 80 23 03 01 00  ............#...
0DE0: 07 80 01 F8 0D 02 04 10  03 80 00 F4 0D 1D 0C 80  ................
0DF0: 23 01 F8 0D 1D 0D 80 23  1D 33 80 23 24 34 80 03  #......#.3.#$4..
0E00: 80 01 00 25 02 00 10 03  80 00 1B 0E 1D 35 80 23  ...%.........5.#
0E10: 03 01 10 0A 80 01 62 0E  01 1B 0E 1D 36 80 23 1D  ......b.....6.#.
0E20: 37 80 23 1D 38 80 23 24  39 80 03 80 01 00 25 02  7.#.8.#$9.....%.
0E30: 00 10 03 80 00 46 0E 1D  35 80 23 03 01 10 0A 80  .....F..5.#.....
0E40: 01 62 0E 01 46 0E 1D 3A  80 23 03 01 10 07 80 40  .b..F..:.#.....@
0E50: 15 80 3C 80 01 10 07 80  43 00 43 01 01 5F 0E 01  ..<.....C.C.._..
0E60: 62 0E 21 00                                       b.!.            
```

#### Opcodes

```
  0: 0x0134 [0x42] SET_CLI_EVENT_CANCEL_DATA()
  1: 0x0135 [0x1E] EventEntity looks at LocalPlayer and starts talking
  2: 0x013A [0x6F] WAIT_FRAME_DELAY: Yield until WaitTime reaches zero
  3: 0x013B [0x76] CHECK_ENTITY_RENDER_FLAGS: Wait until EventEntity Render.Flags0 and Render.Flags3 conditions are met
  4: 0x0140 [0x03] ExtData[1]->WorkLocal[0] = Work_Zone[2]
  5: 0x0145 [0x02] IF !(ExtData[1]->WorkLocal[0] == 0*) GOTO 0x018D
  6: 0x014D [0x1D] PRINT_EVENT_MESSAGE(message_id=12081*)
    → "Evaluations are conducted on all participants of the Allied Campaign. Individual data is collected by the Allied War Council from various sources, such as Campaign Arbiters and the leaders of the armies in which the soldiers serve. This data is then used to determine whether or not a decoration is to be conferred."
  7: 0x0150 [0x23] WAIT_FOR_DIALOG_INTERACTION
  8: 0x0151 [0x1D] PRINT_EVENT_MESSAGE(message_id=12082*)
    → "Some of the areas that are considered in this evaluation are performance in campaign operations, as well as valor shown during campaign battles."
  9: 0x0154 [0x23] WAIT_FOR_DIALOG_INTERACTION
 10: 0x0155 [0x1D] PRINT_EVENT_MESSAGE(message_id=12083*)
    → "The more an individual is decorated, the more responsibility he or she will be given within the Allied Forces. And with more responsibility comes the promise of larger compensation in exchange for services."
 11: 0x0158 [0x23] WAIT_FOR_DIALOG_INTERACTION
 12: 0x0159 [0x1D] PRINT_EVENT_MESSAGE(message_id=12084*)
    → "However, the prestige that accompanies the medals also carries with it a great weight. To maintain one's status, he or she must continue to exceed previous expectations. If a soldier fails to fulfill the duties that are required of all those who possess a certain medal, then the Allied War Council will be forced to confiscate that decoration."
 13: 0x015C [0x23] WAIT_FOR_DIALOG_INTERACTION
 14: 0x015D [0x1D] PRINT_EVENT_MESSAGE(message_id=12085*)
    → "To put it simply, only those who fight with fervor and precision...only those who put the glory of the Allied Campaign above all else...will be allowed to reap the benefits that come with victory."
 15: 0x0160 [0x23] WAIT_FOR_DIALOG_INTERACTION
 16: 0x0161 [0x1D] PRINT_EVENT_MESSAGE(message_id=12086*)
    → "If you wish to learn more of the Allied Campaign, please speak with [/Lady Fiaudie/Centurion Aurelius/Kolin-Olin]."
 17: 0x0164 [0x23] WAIT_FOR_DIALOG_INTERACTION
 18: 0x0165 [0x1D] PRINT_EVENT_MESSAGE(message_id=12087*)
    → "There are two more things of note."
 19: 0x0168 [0x23] WAIT_FOR_DIALOG_INTERACTION
 20: 0x0169 [0x1D] PRINT_EVENT_MESSAGE(message_id=12088*)
    → "Once an evaluation has been requested, the Allied War Council will require [five days/one hour] (Earth time) to come to a conclusion."
 21: 0x016C [0x23] WAIT_FOR_DIALOG_INTERACTION
 22: 0x016D [0x1D] PRINT_EVENT_MESSAGE(message_id=12089*)
    → "During that time, individuals may join as many operations or battles as they wish, but will only be considered for a single medal."
 23: 0x0170 [0x23] WAIT_FOR_DIALOG_INTERACTION
 24: 0x0171 [0x1D] PRINT_EVENT_MESSAGE(message_id=12090*)
    → "However, the same rules apply for an inadequate performance. No matter how low one scores, the maximum number of decorations that can be confiscated is one."
 25: 0x0174 [0x23] WAIT_FOR_DIALOG_INTERACTION
 26: 0x0175 [0x1D] PRINT_EVENT_MESSAGE(message_id=12091*)
    → "Also, individuals must not forget that all medals come with expiration dates. While an extremely unorthodox practice, this measure was deemed necessary to prevent the forgery of allied decorations by those persons with dubious intentions."
 27: 0x0178 [0x23] WAIT_FOR_DIALOG_INTERACTION
 28: 0x0179 [0x1D] PRINT_EVENT_MESSAGE(message_id=12092*)
    → "Upon conferral, all medals are marked with a magical seal that dissipates after a period of thirty days (Earth time). Once the seal has vanished, the medal will become void and its owner will no longer be able to participate in campaign operations or battles, among other things."
 29: 0x017C [0x23] WAIT_FOR_DIALOG_INTERACTION
 30: 0x017D [0x1D] PRINT_EVENT_MESSAGE(message_id=12093*)
    → "It is highly recommended that you keep track of the time remaining on your medal and apply for evaluations regularly."
 31: 0x0180 [0x23] WAIT_FOR_DIALOG_INTERACTION
 32: 0x0181 [0x1D] PRINT_EVENT_MESSAGE(message_id=12094*)
    → "Is there anything else you wish to ask?"
 33: 0x0184 [0x23] WAIT_FOR_DIALOG_INTERACTION
 34: 0x0185 [0x03] ExtData[1]->WorkLocal[1] = 2*
 35: 0x018A [0x01] GOTO 0x01BD
 36: 0x018D [0x02] IF !(Work_Zone[5] == 1*) GOTO 0x019C
 37: 0x0195 [0x1D] PRINT_EVENT_MESSAGE(message_id=12077*)
    → "Salutations, I am Campaign Evaluation Official Alfred. How might I be of assistance?"
 38: 0x0198 [0x23] WAIT_FOR_DIALOG_INTERACTION
 39: 0x0199 [0x01] GOTO 0x01BA
 40: 0x019C [0x02] IF !(Work_Zone[5] == 2*) GOTO 0x01AB
 41: 0x01A4 [0x1D] PRINT_EVENT_MESSAGE(message_id=12078*)
    → "Greetings, I am Campaign Evaluation Official Annabelle. How can I help you today?"
 42: 0x01A7 [0x23] WAIT_FOR_DIALOG_INTERACTION
 43: 0x01A8 [0x01] GOTO 0x01BA
 44: 0x01AB [0x02] IF !(Work_Zone[5] == 3*) GOTO 0x01BA
 45: 0x01B3 [0x1D] PRINT_EVENT_MESSAGE(message_id=12079*)
    → "Hello, I'm Campaign Evaluation Official Llewellyn. How can I help you today?"
 46: 0x01B6 [0x23] WAIT_FOR_DIALOG_INTERACTION
 47: 0x01B7 [0x01] GOTO 0x01BA

SUBROUTINE_01BA:
 48: 0x01BA [0x06] ExtData[1]->WorkLocal[1] = 0

SUBROUTINE_01BD:
 49: 0x01BD [0x24] CREATE_DIALOG(message_id=12080*, default_option=0*, option_flags=ExtData[1]->WorkLocal[1])
    → "What do you require? [Nothing./An evaluation./Info on the duration of my medal./An overview of evaluations./Info on medals./Info on the benefits of medals./Info on evaluation process.]"
 50: 0x01C4 [0x25] WAIT_DIALOG_SELECT()
 51: 0x01C5 [0x02] IF !(Work_Zone[0] == 0*) GOTO 0x01D8
 52: 0x01CD [0x03] Work_Zone[1] = 1073741824*
 53: 0x01D2 [0x01] GOTO 0x0E62

SUBROUTINE_0219:
 54: 0x0219 [0x01] GOTO 0x02A0
 55: 0x021C [0x02] IF !(Work_Zone[0] == 3*) GOTO 0x023F
 56: 0x0224 [0x1D] PRINT_EVENT_MESSAGE(message_id=12081*)
    → "Evaluations are conducted on all participants of the Allied Campaign. Individual data is collected by the Allied War Council from various sources, such as Campaign Arbiters and the leaders of the armies in which the soldiers serve. This data is then used to determine whether or not a decoration is to be conferred."
 57: 0x0227 [0x23] WAIT_FOR_DIALOG_INTERACTION
 58: 0x0228 [0x1D] PRINT_EVENT_MESSAGE(message_id=12082*)
    → "Some of the areas that are considered in this evaluation are performance in campaign operations, as well as valor shown during campaign battles."
 59: 0x022B [0x23] WAIT_FOR_DIALOG_INTERACTION
 60: 0x022C [0x1D] PRINT_EVENT_MESSAGE(message_id=12083*)
    → "The more an individual is decorated, the more responsibility he or she will be given within the Allied Forces. And with more responsibility comes the promise of larger compensation in exchange for services."
 61: 0x022F [0x23] WAIT_FOR_DIALOG_INTERACTION
 62: 0x0230 [0x1D] PRINT_EVENT_MESSAGE(message_id=12084*)
    → "However, the prestige that accompanies the medals also carries with it a great weight. To maintain one's status, he or she must continue to exceed previous expectations. If a soldier fails to fulfill the duties that are required of all those who possess a certain medal, then the Allied War Council will be forced to confiscate that decoration."
 63: 0x0233 [0x23] WAIT_FOR_DIALOG_INTERACTION
 64: 0x0234 [0x1D] PRINT_EVENT_MESSAGE(message_id=12085*)
    → "To put it simply, only those who fight with fervor and precision...only those who put the glory of the Allied Campaign above all else...will be allowed to reap the benefits that come with victory."
 65: 0x0237 [0x23] WAIT_FOR_DIALOG_INTERACTION
 66: 0x0238 [0x1D] PRINT_EVENT_MESSAGE(message_id=12086*)
    → "If you wish to learn more of the Allied Campaign, please speak with [/Lady Fiaudie/Centurion Aurelius/Kolin-Olin]."
 67: 0x023B [0x23] WAIT_FOR_DIALOG_INTERACTION
 68: 0x023C [0x01] GOTO 0x02A0
 69: 0x023F [0x02] IF !(Work_Zone[0] == 4*) GOTO 0x025A
 70: 0x0247 [0x1D] PRINT_EVENT_MESSAGE(message_id=12095*)
    → "Campaign medals are official rewards given to those individuals who perform exemplary deeds for the Allied Forces."
 71: 0x024A [0x23] WAIT_FOR_DIALOG_INTERACTION
 72: 0x024B [0x1D] PRINT_EVENT_MESSAGE(message_id=12096*)
    → "These decorations are internationally recognized as symbols of strength, loyalty, and honor. They not only garner respect, but provide their bearers with privileges not offered civilians."
 73: 0x024E [0x23] WAIT_FOR_DIALOG_INTERACTION
 74: 0x024F [0x1D] PRINT_EVENT_MESSAGE(message_id=12097*)
    → "Those who have been decorated with the more prestigious medals will also be highly regarded among their army's ranks, and thus entrusted with increasingly difficult and important missions."
 75: 0x0252 [0x23] WAIT_FOR_DIALOG_INTERACTION
 76: 0x0253 [0x1D] PRINT_EVENT_MESSAGE(message_id=12098*)
    → "On the other hand, disloyalty to one's nation is highly frowned upon. If, for any reason, an individual wishes to leave their current army of employment and pledge allegiance to another, they will be required to return their two most distinguished medals."
 77: 0x0256 [0x23] WAIT_FOR_DIALOG_INTERACTION
 78: 0x0257 [0x01] GOTO 0x02A0
 79: 0x025A [0x02] IF !(Work_Zone[0] == 5*) GOTO 0x027D
 80: 0x0262 [0x1D] PRINT_EVENT_MESSAGE(message_id=12099*)
    → "To the point, are we? Very well, I shall list the merits those in the possession of medals may receive."
 81: 0x0265 [0x23] WAIT_FOR_DIALOG_INTERACTION
 82: 0x0266 [0x1D] PRINT_EVENT_MESSAGE(message_id=12100*)
    → "Firstly, the more prestigious an individual's medal, the more weight [his/her] army's [/curate/supply commander/Morale Manager] will grant [his/her] opinion."
 83: 0x0269 [0x23] WAIT_FOR_DIALOG_INTERACTION
 84: 0x026A [0x1D] PRINT_EVENT_MESSAGE(message_id=12101*)
    → "Secondly, the types of Campaign Ops available to an individual will increase based on the medals that [he/she] has in [his/her] possession. More advanced operations will earn participants increased amounts of EXP and Allied Notes, as well as have a heavier influence on performance evaluations."
 85: 0x026D [0x23] WAIT_FOR_DIALOG_INTERACTION
 86: 0x026E [0x1D] PRINT_EVENT_MESSAGE(message_id=12102*)
    → "Thirdly, benefits received during campaign battles will vary depending on the variety of medals an individual carries. The better the medals, the larger the opportunity to earn EXP, Allied Notes, and reputation. The selection of temporary items available for purchase will also improve."
 87: 0x0271 [0x23] WAIT_FOR_DIALOG_INTERACTION
 88: 0x0272 [0x1D] PRINT_EVENT_MESSAGE(message_id=12103*)
    → "However, the more prestigious the medal, the more that will be expected of its bearer. The Campaign Arbiters will not go easy on those who have already proven themselves."
 89: 0x0275 [0x23] WAIT_FOR_DIALOG_INTERACTION
 90: 0x0276 [0x1D] PRINT_EVENT_MESSAGE(message_id=12104*)
    → "Understood?"
 91: 0x0279 [0x23] WAIT_FOR_DIALOG_INTERACTION
 92: 0x027A [0x01] GOTO 0x02A0
 93: 0x027D [0x02] IF !(Work_Zone[0] == 6*) GOTO 0x02A0
 94: 0x0285 [0x1D] PRINT_EVENT_MESSAGE(message_id=12088*)
    → "Once an evaluation has been requested, the Allied War Council will require [five days/one hour] (Earth time) to come to a conclusion."
 95: 0x0288 [0x23] WAIT_FOR_DIALOG_INTERACTION
 96: 0x0289 [0x1D] PRINT_EVENT_MESSAGE(message_id=12089*)
    → "During that time, individuals may join as many operations or battles as they wish, but will only be considered for a single medal."
 97: 0x028C [0x23] WAIT_FOR_DIALOG_INTERACTION
 98: 0x028D [0x1D] PRINT_EVENT_MESSAGE(message_id=12090*)
    → "However, the same rules apply for an inadequate performance. No matter how low one scores, the maximum number of decorations that can be confiscated is one."
 99: 0x0290 [0x23] WAIT_FOR_DIALOG_INTERACTION
100: 0x0291 [0x1D] PRINT_EVENT_MESSAGE(message_id=12091*)
    → "Also, individuals must not forget that all medals come with expiration dates. While an extremely unorthodox practice, this measure was deemed necessary to prevent the forgery of allied decorations by those persons with dubious intentions."
101: 0x0294 [0x23] WAIT_FOR_DIALOG_INTERACTION
102: 0x0295 [0x1D] PRINT_EVENT_MESSAGE(message_id=12092*)
    → "Upon conferral, all medals are marked with a magical seal that dissipates after a period of thirty days (Earth time). Once the seal has vanished, the medal will become void and its owner will no longer be able to participate in campaign operations or battles, among other things."
103: 0x0298 [0x23] WAIT_FOR_DIALOG_INTERACTION
104: 0x0299 [0x1D] PRINT_EVENT_MESSAGE(message_id=12093*)
    → "It is highly recommended that you keep track of the time remaining on your medal and apply for evaluations regularly."
105: 0x029C [0x23] WAIT_FOR_DIALOG_INTERACTION
106: 0x029D [0x01] GOTO 0x02A0

SUBROUTINE_02A0:
107: 0x02A0 [0x01] GOTO 0x01BD

SUBROUTINE_02A3:
108: 0x02A3 [0x1D] PRINT_EVENT_MESSAGE(message_id=12110*)
    → "Understood. I shall prepare the proper documents and deliver them to the Allied War Council Evaluation Board in Jeuno."
109: 0x02A6 [0x23] WAIT_FOR_DIALOG_INTERACTION
110: 0x02A7 [0x1D] PRINT_EVENT_MESSAGE(message_id=12111*)
    → "......"
111: 0x02AA [0x23] WAIT_FOR_DIALOG_INTERACTION
112: 0x02AB [0x03] Work_Zone[1] = 1*
113: 0x02B0 [0x43] SEND_EVENT_UPDATE: Send pending tag to server (packet 0x005B)
114: 0x02B2 [0x43] SEND_EVENT_UPDATE: Check pending flag (skip if not pending)
115: 0x02B4 [0x02] IF !(Work_Zone[2] == 0*) GOTO 0x0E62
116: 0x02BC [0x02] IF !(Work_Zone[3] == 4*) GOTO 0x0386
117: 0x02C4 [0x02] IF !(Work_Zone[5] == 1*) GOTO 0x02D3
118: 0x02CC [0x1D] PRINT_EVENT_MESSAGE(message_id=12166*)
    → "You are currently in possession of the most prestigious Campaign medal we have to offer. The Kingdom of San d'Oria has the utmost faith in you, and shall support you in any endeavor you choose to undertake."
119: 0x02CF [0x23] WAIT_FOR_DIALOG_INTERACTION
120: 0x02D0 [0x01] GOTO 0x02F1
121: 0x02D3 [0x02] IF !(Work_Zone[5] == 2*) GOTO 0x02E2
122: 0x02DB [0x1D] PRINT_EVENT_MESSAGE(message_id=12167*)
    → "You are currently in possession of the most prestigious Campaign medal we have to offer. The Republic of Bastok has the utmost faith in you, and shall support you in any endeavor you choose to undertake."
123: 0x02DE [0x23] WAIT_FOR_DIALOG_INTERACTION
124: 0x02DF [0x01] GOTO 0x02F1
125: 0x02E2 [0x02] IF !(Work_Zone[5] == 3*) GOTO 0x02F1
126: 0x02EA [0x1D] PRINT_EVENT_MESSAGE(message_id=12168*)
    → "You are currently in possession of the most prestigious Campaign medal we have to offer. The Federation of Windurst has the utmost faith in you, and shall support you in any endeavor you choose to undertake."
127: 0x02ED [0x23] WAIT_FOR_DIALOG_INTERACTION
128: 0x02EE [0x01] GOTO 0x02F1

SUBROUTINE_02F1:
129: 0x02F1 [0x06] ExtData[1]->WorkLocal[1] = 0
130: 0x02F4 [0x02] IF !(Work_Zone[4] >= 1*) GOTO 0x0308
131: 0x02FC [0x1D] PRINT_EVENT_MESSAGE(message_id=12132*)
    → "Your current campaign medal has already expired."
132: 0x02FF [0x23] WAIT_FOR_DIALOG_INTERACTION
133: 0x0300 [0x03] ExtData[1]->WorkLocal[1] = 16*
134: 0x0305 [0x01] GOTO 0x031B
135: 0x0308 [0x02] IF !(Work_Zone[4] == 1*) GOTO 0x0317
136: 0x0310 [0x1D] PRINT_EVENT_MESSAGE(message_id=12131*)
    → "Your current campaign medal will expire in less than a day (Earth time)."
137: 0x0313 [0x23] WAIT_FOR_DIALOG_INTERACTION
138: 0x0314 [0x01] GOTO 0x031B
139: 0x0317 [0x1D] PRINT_EVENT_MESSAGE(message_id=12130*)
    → "You still have $2 day[/s] (Earth time) until your current campaign medal expires."
140: 0x031A [0x23] WAIT_FOR_DIALOG_INTERACTION

SUBROUTINE_031B:
141: 0x031B [0x1D] PRINT_EVENT_MESSAGE(message_id=12133*)
    → "Would you like to continue this month's evaluation in a further attempt to receive the next medal, or would you rather end the evaluation and maintain your current honors?"
142: 0x031E [0x23] WAIT_FOR_DIALOG_INTERACTION
143: 0x031F [0x24] CREATE_DIALOG(message_id=12134*, default_option=1*, option_flags=ExtData[1]->WorkLocal[1])
    → "End the evaluation? [Yes./No.]"
144: 0x0326 [0x25] WAIT_DIALOG_SELECT()
145: 0x0327 [0x02] IF !(Work_Zone[0] == 1*) GOTO 0x033E
146: 0x032F [0x1D] PRINT_EVENT_MESSAGE(message_id=12135*)
    → "Excellent. Speak with me again when you are ready to submit your next application. Good luck, <Player>."
147: 0x0332 [0x23] WAIT_FOR_DIALOG_INTERACTION
148: 0x0333 [0x03] Work_Zone[1] = 1073741824*
149: 0x0338 [0x01] GOTO 0x0E62

SUBROUTINE_033E:
150: 0x033E [0x1D] PRINT_EVENT_MESSAGE(message_id=12136*)
    → "By ending the evaluation, you will have accepted the war council's decision to maintain your current rank, and be granted another thirty-day seal on your current medal."
151: 0x0341 [0x23] WAIT_FOR_DIALOG_INTERACTION
152: 0x0342 [0x1D] PRINT_EVENT_MESSAGE(message_id=12137*)
    → "However, any work you have done during the past evaluation period towards the procurement of the next medal will become null and void."
153: 0x0345 [0x23] WAIT_FOR_DIALOG_INTERACTION
154: 0x0346 [0x1D] PRINT_EVENT_MESSAGE(message_id=12138*)
    → "Please consider carefully your options before making this important decision."
155: 0x0349 [0x23] WAIT_FOR_DIALOG_INTERACTION
156: 0x034A [0x24] CREATE_DIALOG(message_id=12139*, default_option=1*, option_flags=ExtData[1]->WorkLocal[1])
    → "Are you absolutely sure? [Yes./No.]"
157: 0x0351 [0x25] WAIT_DIALOG_SELECT()
158: 0x0352 [0x02] IF !(Work_Zone[0] == 1*) GOTO 0x0369
159: 0x035A [0x1D] PRINT_EVENT_MESSAGE(message_id=12135*)
    → "Excellent. Speak with me again when you are ready to submit your next application. Good luck, <Player>."
160: 0x035D [0x23] WAIT_FOR_DIALOG_INTERACTION
161: 0x035E [0x03] Work_Zone[1] = 1073741824*
162: 0x0363 [0x01] GOTO 0x0E62

SUBROUTINE_0369:
163: 0x0369 [0x1D] PRINT_EVENT_MESSAGE(message_id=12140*)
    → "Done. Your medal has been given a new magic seal."
164: 0x036C [0x23] WAIT_FOR_DIALOG_INTERACTION
165: 0x036D [0x1D] PRINT_EVENT_MESSAGE(message_id=12141*)
    → "Please note that you will be eligible for your next evaluation in [five days/one hour] (Earth time)."
166: 0x0370 [0x23] WAIT_FOR_DIALOG_INTERACTION
167: 0x0371 [0x03] Work_Zone[1] = 2*
168: 0x0376 [0x40] SET_BIT_WORK_RANGE(start_bit=4*, end_bit=7*, target=Work_Zone[1], source=4*)
169: 0x037F [0x43] SEND_EVENT_UPDATE: Send pending tag to server (packet 0x005B)
170: 0x0381 [0x43] SEND_EVENT_UPDATE: Check pending flag (skip if not pending)
171: 0x0383 [0x01] GOTO 0x0E5F
172: 0x0386 [0x02] IF !(Work_Zone[3] == 3*) GOTO 0x0B6D
173: 0x038E [0x6E] EventEntity uses emote 14*
174: 0x0395 [0x99] Wait for EventEntity animation to complete
175: 0x039A [0x1D] PRINT_EVENT_MESSAGE(message_id=12112*)
    → "Congratulations, <Player>! Your recent performance has been evaluated, and the Allied War Council has deemed you worthy of a new medal!"
176: 0x039D [0x23] WAIT_FOR_DIALOG_INTERACTION
177: 0x039E [0x24] CREATE_DIALOG(message_id=12113*, default_option=1*, option_flags=0*)
    → "Accept the honors? [Yes./No.]"
178: 0x03A5 [0x25] WAIT_DIALOG_SELECT()
179: 0x03A6 [0x02] IF !(Work_Zone[0] == 1*) GOTO 0x03C5
180: 0x03AE [0x1D] PRINT_EVENT_MESSAGE(message_id=12126*)
    → "Are you certain, <Player>? You know there is no need to be humble."
181: 0x03B1 [0x23] WAIT_FOR_DIALOG_INTERACTION
182: 0x03B2 [0x1D] PRINT_EVENT_MESSAGE(message_id=12127*)
    → "Or perhaps you have forgotten that it doesn't matter how much you contribute to the Allied Campaign, you can only receive one medal per evaluation."
183: 0x03B5 [0x23] WAIT_FOR_DIALOG_INTERACTION
184: 0x03B6 [0x1D] PRINT_EVENT_MESSAGE(message_id=12128*)
    → "I cannot force you to accept the medal, but..."
185: 0x03B9 [0x23] WAIT_FOR_DIALOG_INTERACTION
186: 0x03BA [0x03] Work_Zone[1] = 1073741824*
187: 0x03BF [0x01] GOTO 0x0E62

SUBROUTINE_03C5:
188: 0x03C5 [0x24] CREATE_DIALOG(message_id=12114*, default_option=1*, option_flags=0*)
    → "Are you sure? [Yes./No.]"
189: 0x03CC [0x25] WAIT_DIALOG_SELECT()
190: 0x03CD [0x02] IF !(Work_Zone[0] == 1*) GOTO 0x03EC
191: 0x03D5 [0x1D] PRINT_EVENT_MESSAGE(message_id=12126*)
    → "Are you certain, <Player>? You know there is no need to be humble."
192: 0x03D8 [0x23] WAIT_FOR_DIALOG_INTERACTION
193: 0x03D9 [0x1D] PRINT_EVENT_MESSAGE(message_id=12127*)
    → "Or perhaps you have forgotten that it doesn't matter how much you contribute to the Allied Campaign, you can only receive one medal per evaluation."
194: 0x03DC [0x23] WAIT_FOR_DIALOG_INTERACTION
195: 0x03DD [0x1D] PRINT_EVENT_MESSAGE(message_id=12128*)
    → "I cannot force you to accept the medal, but..."
196: 0x03E0 [0x23] WAIT_FOR_DIALOG_INTERACTION
197: 0x03E1 [0x03] Work_Zone[1] = 1073741824*
198: 0x03E6 [0x01] GOTO 0x0E62

SUBROUTINE_03EC:
199: 0x03EC [0x6E] EventEntity uses emote 7*
200: 0x03F3 [0x99] Wait for EventEntity animation to complete
201: 0x03F8 [0x1D] PRINT_EVENT_MESSAGE(message_id=12115*)
    → "One moment, please, while I prepare your award."
202: 0x03FB [0x23] WAIT_FOR_DIALOG_INTERACTION
203: 0x03FC [0x5D] SET_MUSIC_VOLUME(volume=0*, fade_time=120*)
204: 0x0401 [0x1A] CALL_SUBROUTINE(address=0x0ED8)
205: 0x0404 [0x1C] WAIT(30* ticks)
206: 0x0407 [0x46] CAMERA_CONTROL: Disable user control
207: 0x0409 [0x38] SET_CLIENT_EVENT_MODE(mode=19*)
208: 0x040C [0x02] IF !(Work_Zone[6] == 1*) GOTO 0x041C
209: 0x0414 [0x03] Work_Zone[7] = 925*
210: 0x0419 [0x01] GOTO 0x053C
211: 0x041C [0x02] IF !(Work_Zone[6] == 2*) GOTO 0x042C
212: 0x0424 [0x03] Work_Zone[7] = 926*
213: 0x0429 [0x01] GOTO 0x053C
214: 0x042C [0x02] IF !(Work_Zone[6] == 3*) GOTO 0x043C
215: 0x0434 [0x03] Work_Zone[7] = 927*
216: 0x0439 [0x01] GOTO 0x053C
217: 0x043C [0x02] IF !(Work_Zone[6] == 4*) GOTO 0x044C
218: 0x0444 [0x03] Work_Zone[7] = 928*
219: 0x0449 [0x01] GOTO 0x053C
220: 0x044C [0x02] IF !(Work_Zone[6] == 5*) GOTO 0x045C
221: 0x0454 [0x03] Work_Zone[7] = 929*
222: 0x0459 [0x01] GOTO 0x053C
223: 0x045C [0x02] IF !(Work_Zone[6] == 6*) GOTO 0x046C
224: 0x0464 [0x03] Work_Zone[7] = 930*
225: 0x0469 [0x01] GOTO 0x053C
226: 0x046C [0x02] IF !(Work_Zone[6] == 7*) GOTO 0x047C
227: 0x0474 [0x03] Work_Zone[7] = 931*
228: 0x0479 [0x01] GOTO 0x053C
229: 0x047C [0x02] IF !(Work_Zone[6] == 8*) GOTO 0x048C
230: 0x0484 [0x03] Work_Zone[7] = 932*
231: 0x0489 [0x01] GOTO 0x053C
232: 0x048C [0x02] IF !(Work_Zone[6] == 9*) GOTO 0x049C
233: 0x0494 [0x03] Work_Zone[7] = 933*
234: 0x0499 [0x01] GOTO 0x053C
235: 0x049C [0x02] IF !(Work_Zone[6] == 10*) GOTO 0x04AC
236: 0x04A4 [0x03] Work_Zone[7] = 934*
237: 0x04A9 [0x01] GOTO 0x053C
238: 0x04AC [0x02] IF !(Work_Zone[6] == 11*) GOTO 0x04BC
239: 0x04B4 [0x03] Work_Zone[7] = 935*
240: 0x04B9 [0x01] GOTO 0x053C
241: 0x04BC [0x02] IF !(Work_Zone[6] == 12*) GOTO 0x04CC
242: 0x04C4 [0x03] Work_Zone[7] = 936*
243: 0x04C9 [0x01] GOTO 0x053C
244: 0x04CC [0x02] IF !(Work_Zone[6] == 13*) GOTO 0x04DC
245: 0x04D4 [0x03] Work_Zone[7] = 937*
246: 0x04D9 [0x01] GOTO 0x053C
247: 0x04DC [0x02] IF !(Work_Zone[6] == 14*) GOTO 0x04EC
248: 0x04E4 [0x03] Work_Zone[7] = 938*
249: 0x04E9 [0x01] GOTO 0x053C
250: 0x04EC [0x02] IF !(Work_Zone[6] == 15*) GOTO 0x04FC
251: 0x04F4 [0x03] Work_Zone[7] = 939*
252: 0x04F9 [0x01] GOTO 0x053C
253: 0x04FC [0x02] IF !(Work_Zone[6] == 16*) GOTO 0x050C
254: 0x0504 [0x03] Work_Zone[7] = 940*
255: 0x0509 [0x01] GOTO 0x053C
256: 0x050C [0x02] IF !(Work_Zone[6] == 17*) GOTO 0x051C
257: 0x0514 [0x03] Work_Zone[7] = 941*
258: 0x0519 [0x01] GOTO 0x053C
259: 0x051C [0x02] IF !(Work_Zone[6] == 18*) GOTO 0x052C
260: 0x0524 [0x03] Work_Zone[7] = 942*
261: 0x0529 [0x01] GOTO 0x053C
262: 0x052C [0x02] IF !(Work_Zone[6] == 19*) GOTO 0x053C
263: 0x0534 [0x03] Work_Zone[7] = 943*
264: 0x0539 [0x01] GOTO 0x053C

SUBROUTINE_053C:
265: 0x053C [0x02] IF !(Work_Zone[5] == 1*) GOTO 0x06FA
266: 0x0544 [0x27] REQ_SET(priority=0x10, entity_id=Rongelouts (ID: 17134113/0x01057221), tag_num=0x04)
267: 0x054B [0x92] Rongelouts (ID: 17134113/0x01057221)->Render.Flags3 ^= 0x01
268: 0x0551 [0x92] Annabelle (ID: 17134112/0x01057220)->Render.Flags3 ^= 0x01
269: 0x0557 [0x94] LocalPlayer->Render.Flags3 ^= 0x01
270: 0x055D [0x94] Rongelouts (ID: 17134113/0x01057221)->Render.Flags3 ^= 0x01
271: 0x0563 [0x94] Annabelle (ID: 17134112/0x01057220)->Render.Flags3 ^= 0x01
272: 0x0569 [0xBA] SET_ENTITY_POSITION(entity_id=LocalPlayer, pos_x=93.274*, pos_z=-57.201*, pos_y=1.000*, direction=48.7°*)
273: 0x0576 [0xBA] SET_ENTITY_POSITION(entity_id=Rongelouts (ID: 17134113/0x01057221), pos_x=94.673*, pos_z=-51.000*, pos_y=0.999*, direction=48.7°*)
274: 0x0583 [0x80] LOAD_WAIT(entity=LocalPlayer)
275: 0x0588 [0x80] LOAD_WAIT(entity=Rongelouts (ID: 17134113/0x01057221))
276: 0x058D [0x80] LOAD_WAIT(entity=Annabelle (ID: 17134112/0x01057220))
277: 0x0592 [0x4A] Annabelle (ID: 17134112/0x01057220) looks at LocalPlayer
278: 0x059B [0x79] LocalPlayer looks at Annabelle (ID: 17134112/0x01057220) (Basic look)
279: 0x05A5 [0x5C] MUSIC_CONTROL: Set Idle (Day) music to song 246*
280: 0x05A9 [0x5C] MUSIC_CONTROL: Set Idle (Night) music to song 246*
281: 0x05AD [0x9A] WAIT_MUSIC_SERVER()
282: 0x05AE [0x1C] WAIT(15* ticks)
283: 0x05B1 [0x27] REQ_SET(priority=0x10, entity_id=Rongelouts (ID: 17134113/0x01057221), tag_num=0x09)
284: 0x05B8 [0x45] LOAD_SCHEDULED_TASK: Load scheduler "ks00" with entities [LocalPlayer, LocalPlayer], work=[379*, 0*]
285: 0x05C9 [0x1A] CALL_SUBROUTINE(address=0x0EB7)
286: 0x05CC [0x2A] GET_REQ_LEVEL(level=16, entity_id=Rongelouts (ID: 17134113/0x01057221))
287: 0x05D2 [0x79] EventEntity looks at Rongelouts (ID: 17134113/0x01057221) (Basic look)
288: 0x05DC [0x2B] Rongelouts (ID: 17134113/0x01057221) [12116*]:
    → "That will be enough, officer. I shall complete the ceremony."
289: 0x05E3 [0x23] WAIT_FOR_DIALOG_INTERACTION
290: 0x05E4 [0x4A] LocalPlayer looks at Rongelouts (ID: 17134113/0x01057221)
291: 0x05ED [0x1C] WAIT(15* ticks)
292: 0x05F0 [0x52] END_LOAD_SCHEDULER: End scheduler "ks00" with entities [LocalPlayer, LocalPlayer], work=379*
293: 0x05FF [0x45] LOAD_SCHEDULED_TASK: Load scheduler "ks01" with entities [LocalPlayer, LocalPlayer], work=[379*, 0*]
294: 0x0610 [0x1C] WAIT(120* ticks)
295: 0x0613 [0x27] REQ_SET(priority=0x10, entity_id=Rongelouts (ID: 17134113/0x01057221), tag_num=0x0A)
296: 0x061A [0x52] END_LOAD_SCHEDULER: End scheduler "ks01" with entities [LocalPlayer, LocalPlayer], work=379*
297: 0x0629 [0x45] LOAD_SCHEDULED_TASK: Load scheduler "ks02" with entities [LocalPlayer, LocalPlayer], work=[379*, 0*]
298: 0x063A [0x2A] GET_REQ_LEVEL(level=16, entity_id=Rongelouts (ID: 17134113/0x01057221))
299: 0x0640 [0x4A] LocalPlayer looks at Rongelouts (ID: 17134113/0x01057221)
300: 0x0649 [0x1C] WAIT(45* ticks)
301: 0x064C [0x52] END_LOAD_SCHEDULER: End scheduler "ks02" with entities [LocalPlayer, LocalPlayer], work=379*
302: 0x065B [0x45] LOAD_SCHEDULED_TASK: Load scheduler "ks03" with entities [LocalPlayer, LocalPlayer], work=[379*, 0*]
303: 0x066C [0x2B] Rongelouts (ID: 17134113/0x01057221) [12117*]:
    → "[Sir/Lady] <Player>, I commend you on your service to the Kingdom!"
304: 0x0673 [0x23] WAIT_FOR_DIALOG_INTERACTION
305: 0x0674 [0x52] END_LOAD_SCHEDULER: End scheduler "ks03" with entities [LocalPlayer, LocalPlayer], work=379*
306: 0x0683 [0x45] LOAD_SCHEDULED_TASK: Load scheduler "ks04" with entities [LocalPlayer, LocalPlayer], work=[379*, 0*]
307: 0x0694 [0x6E] Rongelouts (ID: 17134113/0x01057221) uses emote 25*
308: 0x069B [0x99] Wait for Rongelouts (ID: 17134113/0x01057221) animation to complete
309: 0x06A0 [0x2B] Rongelouts (ID: 17134113/0x01057221) [12118*]:
    → "But remember, as you accept this $3, the path before you grows ever more perilous. Succumb not to the evils of lethargy, lest you find yourself stripped bare of your past honors."
310: 0x06A7 [0x23] WAIT_FOR_DIALOG_INTERACTION
311: 0x06A8 [0x99] Wait for Rongelouts (ID: 17134113/0x01057221) animation to complete
312: 0x06AD [0x52] END_LOAD_SCHEDULER: End scheduler "ks04" with entities [LocalPlayer, LocalPlayer], work=379*
313: 0x06BC [0x45] LOAD_SCHEDULED_TASK: Load scheduler "ks05" with entities [LocalPlayer, LocalPlayer], work=[379*, 0*]
314: 0x06CD [0x27] REQ_SET(priority=0x10, entity_id=Rongelouts (ID: 17134113/0x01057221), tag_num=0x0B)
315: 0x06D4 [0x1C] WAIT(120* ticks)
316: 0x06D7 [0x52] END_LOAD_SCHEDULER: End scheduler "ks05" with entities [LocalPlayer, LocalPlayer], work=379*
317: 0x06E6 [0x45] LOAD_SCHEDULED_TASK: Load scheduler "ks06" with entities [LocalPlayer, LocalPlayer], work=[379*, 0*]
318: 0x06F7 [0x01] GOTO 0x0A81
319: 0x06FA [0x02] IF !(Work_Zone[5] == 2*) GOTO 0x08B6
320: 0x0702 [0x27] REQ_SET(priority=0x10, entity_id=Zazarg (ID: 17134114/0x01057222), tag_num=0x04)
321: 0x0709 [0x92] Zazarg (ID: 17134114/0x01057222)->Render.Flags3 ^= 0x01
322: 0x070F [0x92] Annabelle (ID: 17134112/0x01057220)->Render.Flags3 ^= 0x01
323: 0x0715 [0x94] LocalPlayer->Render.Flags3 ^= 0x01
324: 0x071B [0x94] Zazarg (ID: 17134114/0x01057222)->Render.Flags3 ^= 0x01
325: 0x0721 [0x94] Annabelle (ID: 17134112/0x01057220)->Render.Flags3 ^= 0x01
326: 0x0727 [0xBA] SET_ENTITY_POSITION(entity_id=LocalPlayer, pos_x=-296.320*, pos_z=-72.069*, pos_y=-11.999*, direction=353.6°*)
327: 0x0734 [0xBA] SET_ENTITY_POSITION(entity_id=Zazarg (ID: 17134114/0x01057222), pos_x=-293.540*, pos_z=-65.342*, pos_y=-11.999*, direction=106.0°*)
328: 0x0741 [0x80] LOAD_WAIT(entity=LocalPlayer)
329: 0x0746 [0x80] LOAD_WAIT(entity=Zazarg (ID: 17134114/0x01057222))
330: 0x074B [0x80] LOAD_WAIT(entity=Annabelle (ID: 17134112/0x01057220))
331: 0x0750 [0x4A] Annabelle (ID: 17134112/0x01057220) looks at LocalPlayer
332: 0x0759 [0x79] LocalPlayer looks at Annabelle (ID: 17134112/0x01057220) (Basic look)
333: 0x0763 [0x5C] MUSIC_CONTROL: Set Idle (Day) music to song 246*
334: 0x0767 [0x5C] MUSIC_CONTROL: Set Idle (Night) music to song 246*
335: 0x076B [0x9A] WAIT_MUSIC_SERVER()
336: 0x076C [0x1C] WAIT(15* ticks)
337: 0x076F [0x27] REQ_SET(priority=0x10, entity_id=Zazarg (ID: 17134114/0x01057222), tag_num=0x09)
338: 0x0776 [0x45] LOAD_SCHEDULED_TASK: Load scheduler "kb00" with entities [LocalPlayer, LocalPlayer], work=[379*, 0*]
339: 0x0787 [0x1A] CALL_SUBROUTINE(address=0x0EB7)
340: 0x078A [0x2A] GET_REQ_LEVEL(level=16, entity_id=Zazarg (ID: 17134114/0x01057222))
341: 0x0790 [0x79] EventEntity looks at Zazarg (ID: 17134114/0x01057222) (Basic look)
342: 0x079A [0x2B] Zazarg (ID: 17134114/0x01057222) [12119*]:
    → "That will be enough. I'll take it from here, soldier."
343: 0x07A1 [0x23] WAIT_FOR_DIALOG_INTERACTION
344: 0x07A2 [0x4A] LocalPlayer looks at Zazarg (ID: 17134114/0x01057222)
345: 0x07AB [0x1C] WAIT(15* ticks)
346: 0x07AE [0x52] END_LOAD_SCHEDULER: End scheduler "kb00" with entities [LocalPlayer, LocalPlayer], work=379*
347: 0x07BD [0x45] LOAD_SCHEDULED_TASK: Load scheduler "kb01" with entities [LocalPlayer, LocalPlayer], work=[379*, 0*]
348: 0x07CE [0x1C] WAIT(120* ticks)
349: 0x07D1 [0x27] REQ_SET(priority=0x10, entity_id=Zazarg (ID: 17134114/0x01057222), tag_num=0x0A)
350: 0x07D8 [0x52] END_LOAD_SCHEDULER: End scheduler "kb01" with entities [LocalPlayer, LocalPlayer], work=379*
351: 0x07E7 [0x45] LOAD_SCHEDULED_TASK: Load scheduler "kb02" with entities [LocalPlayer, LocalPlayer], work=[379*, 0*]
352: 0x07F8 [0x2A] GET_REQ_LEVEL(level=16, entity_id=Zazarg (ID: 17134114/0x01057222))
353: 0x07FE [0x4A] LocalPlayer looks at Zazarg (ID: 17134114/0x01057222)
354: 0x0807 [0x1C] WAIT(45* ticks)
355: 0x080A [0x52] END_LOAD_SCHEDULER: End scheduler "kb02" with entities [LocalPlayer, LocalPlayer], work=379*
356: 0x0819 [0x45] LOAD_SCHEDULED_TASK: Load scheduler "kb03" with entities [LocalPlayer, LocalPlayer], work=[379*, 0*]
357: 0x082A [0x2B] Zazarg (ID: 17134114/0x01057222) [12120*]:
    → "Ahem! <Player>, for exemplary service to the Republic of Bastok, I present you with the $3! Dismissed!"
358: 0x0831 [0x23] WAIT_FOR_DIALOG_INTERACTION
359: 0x0832 [0x52] END_LOAD_SCHEDULER: End scheduler "kb03" with entities [LocalPlayer, LocalPlayer], work=379*
360: 0x0841 [0x45] LOAD_SCHEDULED_TASK: Load scheduler "kb04" with entities [LocalPlayer, LocalPlayer], work=[379*, 0*]
361: 0x0852 [0x5B] LOAD_EXT_SCHEDULER: Load scheduler "gah0" with entities [Zazarg (ID: 17134114/0x01057222), Zazarg (ID: 17134114/0x01057222)], work=1144*
362: 0x0861 [0x2B] Zazarg (ID: 17134114/0x01057222) [12121*]:
    → "... Why are you still here, soldier!? There are beastmen to be pummeled! Now, march!"
363: 0x0868 [0x23] WAIT_FOR_DIALOG_INTERACTION
364: 0x0869 [0x52] END_LOAD_SCHEDULER: End scheduler "kb04" with entities [LocalPlayer, LocalPlayer], work=379*
365: 0x0878 [0x45] LOAD_SCHEDULED_TASK: Load scheduler "kb05" with entities [LocalPlayer, LocalPlayer], work=[379*, 0*]
366: 0x0889 [0x27] REQ_SET(priority=0x10, entity_id=Zazarg (ID: 17134114/0x01057222), tag_num=0x0B)
367: 0x0890 [0x1C] WAIT(120* ticks)
368: 0x0893 [0x52] END_LOAD_SCHEDULER: End scheduler "kb05" with entities [LocalPlayer, LocalPlayer], work=379*
369: 0x08A2 [0x45] LOAD_SCHEDULED_TASK: Load scheduler "kb06" with entities [LocalPlayer, LocalPlayer], work=[379*, 0*]
370: 0x08B3 [0x01] GOTO 0x0A81
371: 0x08B6 [0x02] IF !(Work_Zone[5] == 3*) GOTO 0x0A81
372: 0x08BE [0x27] REQ_SET(priority=0x10, entity_id=Romaa Mihgo (ID: 17134115/0x01057223), tag_num=0x04)
373: 0x08C5 [0x92] Romaa Mihgo (ID: 17134115/0x01057223)->Render.Flags3 ^= 0x01
374: 0x08CB [0x92] Annabelle (ID: 17134112/0x01057220)->Render.Flags3 ^= 0x01
375: 0x08D1 [0x94] LocalPlayer->Render.Flags3 ^= 0x01
376: 0x08D7 [0x94] Romaa Mihgo (ID: 17134115/0x01057223)->Render.Flags3 ^= 0x01
377: 0x08DD [0x94] Annabelle (ID: 17134112/0x01057220)->Render.Flags3 ^= 0x01
378: 0x08E3 [0xBA] SET_ENTITY_POSITION(entity_id=LocalPlayer, pos_x=-5.025*, pos_z=42.717*, pos_y=-1.000*, direction=180.8°*)
379: 0x08F0 [0xBA] SET_ENTITY_POSITION(entity_id=Romaa Mihgo (ID: 17134115/0x01057223), pos_x=-5.999*, pos_z=36.239*, pos_y=-1.000*, direction=180.9°*)
380: 0x08FD [0x80] LOAD_WAIT(entity=LocalPlayer)
381: 0x0902 [0x80] LOAD_WAIT(entity=Romaa Mihgo (ID: 17134115/0x01057223))
382: 0x0907 [0x80] LOAD_WAIT(entity=Annabelle (ID: 17134112/0x01057220))
383: 0x090C [0x4A] Annabelle (ID: 17134112/0x01057220) looks at LocalPlayer
384: 0x0915 [0x79] LocalPlayer looks at Annabelle (ID: 17134112/0x01057220) (Basic look)
385: 0x091F [0x5C] MUSIC_CONTROL: Set Idle (Day) music to song 246*
386: 0x0923 [0x5C] MUSIC_CONTROL: Set Idle (Night) music to song 246*
387: 0x0927 [0x9A] WAIT_MUSIC_SERVER()
388: 0x0928 [0x1C] WAIT(15* ticks)
389: 0x092B [0x27] REQ_SET(priority=0x10, entity_id=Romaa Mihgo (ID: 17134115/0x01057223), tag_num=0x09)
390: 0x0932 [0x45] LOAD_SCHEDULED_TASK: Load scheduler "kw00" with entities [LocalPlayer, LocalPlayer], work=[379*, 0*]
391: 0x0943 [0x1A] CALL_SUBROUTINE(address=0x0EB7)
392: 0x0946 [0x2A] GET_REQ_LEVEL(level=16, entity_id=Romaa Mihgo (ID: 17134115/0x01057223))
393: 0x094C [0x79] EventEntity looks at Romaa Mihgo (ID: 17134115/0x01057223) (Basic look)
394: 0x0956 [0x2B] Romaa Mihgo (ID: 17134115/0x01057223) [12122*]:
    → "Hold on a minute. I'll take it from herrre."
395: 0x095D [0x23] WAIT_FOR_DIALOG_INTERACTION
396: 0x095E [0x4A] LocalPlayer looks at Romaa Mihgo (ID: 17134115/0x01057223)
397: 0x0967 [0x1C] WAIT(15* ticks)
398: 0x096A [0x52] END_LOAD_SCHEDULER: End scheduler "kw00" with entities [LocalPlayer, LocalPlayer], work=379*
399: 0x0979 [0x45] LOAD_SCHEDULED_TASK: Load scheduler "kw01" with entities [LocalPlayer, LocalPlayer], work=[379*, 0*]
400: 0x098A [0x1C] WAIT(120* ticks)
401: 0x098D [0x27] REQ_SET(priority=0x10, entity_id=Romaa Mihgo (ID: 17134115/0x01057223), tag_num=0x0A)
402: 0x0994 [0x52] END_LOAD_SCHEDULER: End scheduler "kw01" with entities [LocalPlayer, LocalPlayer], work=379*
403: 0x09A3 [0x45] LOAD_SCHEDULED_TASK: Load scheduler "kw02" with entities [LocalPlayer, LocalPlayer], work=[379*, 0*]
404: 0x09B4 [0x2A] GET_REQ_LEVEL(level=16, entity_id=Romaa Mihgo (ID: 17134115/0x01057223))
405: 0x09BA [0x4A] LocalPlayer looks at Romaa Mihgo (ID: 17134115/0x01057223)
406: 0x09C3 [0x1C] WAIT(45* ticks)
407: 0x09C6 [0x52] END_LOAD_SCHEDULER: End scheduler "kw02" with entities [LocalPlayer, LocalPlayer], work=379*
408: 0x09D5 [0x45] LOAD_SCHEDULED_TASK: Load scheduler "kw03" with entities [LocalPlayer, LocalPlayer], work=[379*, 0*]
409: 0x09E6 [0x66] LOAD_EXT_SCHEDULER_MAIN: Load scheduler "tlk0" with entities [Romaa Mihgo (ID: 17134115/0x01057223), Romaa Mihgo (ID: 17134115/0x01057223)], work=59*
410: 0x09F5 [0x2B] Romaa Mihgo (ID: 17134115/0x01057223) [12123*]:
    → "<Player>! ... ... Good work. Here's your $3."
411: 0x09FC [0x23] WAIT_FOR_DIALOG_INTERACTION
412: 0x09FD [0x52] END_LOAD_SCHEDULER: End scheduler "kw03" with entities [LocalPlayer, LocalPlayer], work=379*
413: 0x0A0C [0x45] LOAD_SCHEDULED_TASK: Load scheduler "kw04" with entities [LocalPlayer, LocalPlayer], work=[379*, 0*]
414: 0x0A1D [0x66] LOAD_EXT_SCHEDULER_MAIN: Load scheduler "tlk1" with entities [Romaa Mihgo (ID: 17134115/0x01057223), Romaa Mihgo (ID: 17134115/0x01057223)], work=59*
415: 0x0A2C [0x2B] Romaa Mihgo (ID: 17134115/0x01057223) [12124*]:
    → "Oh, and don't go getting the wrrrong idea. The reason you're wearing that medal isn't because "you" are a fine soldier, it's because you're backed by the best damn unit in the Federation. Dismissed!"
416: 0x0A33 [0x23] WAIT_FOR_DIALOG_INTERACTION
417: 0x0A34 [0x52] END_LOAD_SCHEDULER: End scheduler "kw04" with entities [LocalPlayer, LocalPlayer], work=379*
418: 0x0A43 [0x45] LOAD_SCHEDULED_TASK: Load scheduler "kw05" with entities [LocalPlayer, LocalPlayer], work=[379*, 0*]
419: 0x0A54 [0x27] REQ_SET(priority=0x10, entity_id=Romaa Mihgo (ID: 17134115/0x01057223), tag_num=0x0B)
420: 0x0A5B [0x1C] WAIT(120* ticks)
421: 0x0A5E [0x52] END_LOAD_SCHEDULER: End scheduler "kw05" with entities [LocalPlayer, LocalPlayer], work=379*
422: 0x0A6D [0x45] LOAD_SCHEDULED_TASK: Load scheduler "kw06" with entities [LocalPlayer, LocalPlayer], work=[379*, 0*]
423: 0x0A7E [0x01] GOTO 0x0A81

SUBROUTINE_0A81:
424: 0x0A81 [0x7B] EventEntity stops talking
425: 0x0A86 [0x1C] WAIT(30* ticks)
426: 0x0A89 [0x1D] PRINT_EVENT_MESSAGE(message_id=12125*)
    → "That is all. Please note that you will not be eligible for another evaluation for [five days/one hour] (Earth time). Good luck, <Player>."
427: 0x0A8C [0x23] WAIT_FOR_DIALOG_INTERACTION
428: 0x0A8D [0x5D] SET_MUSIC_VOLUME(volume=0*, fade_time=120*)
429: 0x0A92 [0x1A] CALL_SUBROUTINE(address=0x0ED8)
430: 0x0A95 [0x1C] WAIT(30* ticks)
431: 0x0A98 [0x52] END_LOAD_SCHEDULER: End scheduler "ks06" with entities [LocalPlayer, LocalPlayer], work=379*
432: 0x0AA7 [0x52] END_LOAD_SCHEDULER: End scheduler "kb06" with entities [LocalPlayer, LocalPlayer], work=379*
433: 0x0AB6 [0x52] END_LOAD_SCHEDULER: End scheduler "kw06" with entities [LocalPlayer, LocalPlayer], work=379*
434: 0x0AC5 [0x45] LOAD_SCHEDULED_TASK: Load scheduler "0blf" with entities [LocalPlayer, LocalPlayer], work=[379*, 0*]
435: 0x0AD6 [0x7A] VM_CONTROL: Reset VM for Rongelouts (ID: 17134113/0x01057221)
436: 0x0ADC [0x7A] VM_CONTROL: Reset VM for Zazarg (ID: 17134114/0x01057222)
437: 0x0AE2 [0x7A] VM_CONTROL: Reset VM for Romaa Mihgo (ID: 17134115/0x01057223)
438: 0x0AE8 [0x4E] SET_ENTITY_HIDE_FLAG: Hide Rongelouts (ID: 17134113/0x01057221)
439: 0x0AEE [0x4E] SET_ENTITY_HIDE_FLAG: Hide Zazarg (ID: 17134114/0x01057222)
440: 0x0AF4 [0x4E] SET_ENTITY_HIDE_FLAG: Hide Romaa Mihgo (ID: 17134115/0x01057223)
441: 0x0AFA [0x02] IF !(Work_Zone[5] == 1*) GOTO 0x0B0D
442: 0x0B02 [0x5C] MUSIC_CONTROL: Set Idle (Day) music to song 254*
443: 0x0B06 [0x5C] MUSIC_CONTROL: Set Idle (Night) music to song 254*
444: 0x0B0A [0x01] GOTO 0x0B33
445: 0x0B0D [0x02] IF !(Work_Zone[5] == 2*) GOTO 0x0B20
446: 0x0B15 [0x5C] MUSIC_CONTROL: Set Idle (Day) music to song 180*
447: 0x0B19 [0x5C] MUSIC_CONTROL: Set Idle (Night) music to song 180*
448: 0x0B1D [0x01] GOTO 0x0B33
449: 0x0B20 [0x02] IF !(Work_Zone[5] == 3*) GOTO 0x0B33
450: 0x0B28 [0x5C] MUSIC_CONTROL: Set Idle (Day) music to song 182*
451: 0x0B2C [0x5C] MUSIC_CONTROL: Set Idle (Night) music to song 182*
452: 0x0B30 [0x01] GOTO 0x0B33

SUBROUTINE_0B33:
453: 0x0B33 [0x9A] WAIT_MUSIC_SERVER()
454: 0x0B34 [0x46] CAMERA_CONTROL: Restore default settings
455: 0x0B36 [0x45] LOAD_SCHEDULED_TASK: Load scheduler "qstc" with entities [EventEntity, EventEntity], work=[201*, 0*]
456: 0x0B47 [0x03] Work_Zone[1] = 2*
457: 0x0B4C [0x40] SET_BIT_WORK_RANGE(start_bit=4*, end_bit=7*, target=Work_Zone[1], source=3*)
458: 0x0B55 [0x43] SEND_EVENT_UPDATE: Send pending tag to server (packet 0x005B)
459: 0x0B57 [0x43] SEND_EVENT_UPDATE: Check pending flag (skip if not pending)
460: 0x0B59 [0x45] LOAD_SCHEDULED_TASK: Load scheduler "fdi2" with entities [LocalPlayer, LocalPlayer], work=[200*, 0*]
461: 0x0B6A [0x01] GOTO 0x0E5F
462: 0x0B6D [0x02] IF !(Work_Zone[3] == 2*) GOTO 0x0C0A
463: 0x0B75 [0x1D] PRINT_EVENT_MESSAGE(message_id=12129*)
    → "While the Allied War Council was pleased with your work, it was determined that your performance did not warrant the conferral of further decoration."
464: 0x0B78 [0x23] WAIT_FOR_DIALOG_INTERACTION
465: 0x0B79 [0x06] ExtData[1]->WorkLocal[1] = 0
466: 0x0B7C [0x02] IF !(Work_Zone[4] >= 1*) GOTO 0x0B90
467: 0x0B84 [0x1D] PRINT_EVENT_MESSAGE(message_id=12132*)
    → "Your current campaign medal has already expired."
468: 0x0B87 [0x23] WAIT_FOR_DIALOG_INTERACTION
469: 0x0B88 [0x03] ExtData[1]->WorkLocal[1] = 2*
470: 0x0B8D [0x01] GOTO 0x0BA3
471: 0x0B90 [0x02] IF !(Work_Zone[4] == 1*) GOTO 0x0B9F
472: 0x0B98 [0x1D] PRINT_EVENT_MESSAGE(message_id=12131*)
    → "Your current campaign medal will expire in less than a day (Earth time)."
473: 0x0B9B [0x23] WAIT_FOR_DIALOG_INTERACTION
474: 0x0B9C [0x01] GOTO 0x0BA3
475: 0x0B9F [0x1D] PRINT_EVENT_MESSAGE(message_id=12130*)
    → "You still have $2 day[/s] (Earth time) until your current campaign medal expires."
476: 0x0BA2 [0x23] WAIT_FOR_DIALOG_INTERACTION

SUBROUTINE_0BA3:
477: 0x0BA3 [0x1D] PRINT_EVENT_MESSAGE(message_id=12133*)
    → "Would you like to continue this month's evaluation in a further attempt to receive the next medal, or would you rather end the evaluation and maintain your current honors?"
478: 0x0BA6 [0x23] WAIT_FOR_DIALOG_INTERACTION
479: 0x0BA7 [0x24] CREATE_DIALOG(message_id=12134*, default_option=1*, option_flags=ExtData[1]->WorkLocal[1])
    → "End the evaluation? [Yes./No.]"
480: 0x0BAE [0x25] WAIT_DIALOG_SELECT()
481: 0x0BAF [0x02] IF !(Work_Zone[0] == 1*) GOTO 0x0BC6
482: 0x0BB7 [0x1D] PRINT_EVENT_MESSAGE(message_id=12135*)
    → "Excellent. Speak with me again when you are ready to submit your next application. Good luck, <Player>."
483: 0x0BBA [0x23] WAIT_FOR_DIALOG_INTERACTION
484: 0x0BBB [0x03] Work_Zone[1] = 1073741824*
485: 0x0BC0 [0x01] GOTO 0x0E62

SUBROUTINE_0BC6:
486: 0x0BC6 [0x1D] PRINT_EVENT_MESSAGE(message_id=12136*)
    → "By ending the evaluation, you will have accepted the war council's decision to maintain your current rank, and be granted another thirty-day seal on your current medal."
487: 0x0BC9 [0x23] WAIT_FOR_DIALOG_INTERACTION
488: 0x0BCA [0x1D] PRINT_EVENT_MESSAGE(message_id=12137*)
    → "However, any work you have done during the past evaluation period towards the procurement of the next medal will become null and void."
489: 0x0BCD [0x23] WAIT_FOR_DIALOG_INTERACTION
490: 0x0BCE [0x1D] PRINT_EVENT_MESSAGE(message_id=12138*)
    → "Please consider carefully your options before making this important decision."
491: 0x0BD1 [0x23] WAIT_FOR_DIALOG_INTERACTION
492: 0x0BD2 [0x24] CREATE_DIALOG(message_id=12139*, default_option=1*, option_flags=ExtData[1]->WorkLocal[1])
    → "Are you absolutely sure? [Yes./No.]"
493: 0x0BD9 [0x25] WAIT_DIALOG_SELECT()
494: 0x0BDA [0x02] IF !(Work_Zone[0] == 1*) GOTO 0x0BF1
495: 0x0BE2 [0x1D] PRINT_EVENT_MESSAGE(message_id=12135*)
    → "Excellent. Speak with me again when you are ready to submit your next application. Good luck, <Player>."
496: 0x0BE5 [0x23] WAIT_FOR_DIALOG_INTERACTION
497: 0x0BE6 [0x03] Work_Zone[1] = 1073741824*
498: 0x0BEB [0x01] GOTO 0x0E62

SUBROUTINE_0BF1:
499: 0x0BF1 [0x1D] PRINT_EVENT_MESSAGE(message_id=12140*)
    → "Done. Your medal has been given a new magic seal."
500: 0x0BF4 [0x23] WAIT_FOR_DIALOG_INTERACTION
501: 0x0BF5 [0x03] Work_Zone[1] = 2*
502: 0x0BFA [0x40] SET_BIT_WORK_RANGE(start_bit=4*, end_bit=7*, target=Work_Zone[1], source=2*)
503: 0x0C03 [0x43] SEND_EVENT_UPDATE: Send pending tag to server (packet 0x005B)
504: 0x0C05 [0x43] SEND_EVENT_UPDATE: Check pending flag (skip if not pending)
505: 0x0C07 [0x01] GOTO 0x0E5F
506: 0x0C0A [0x02] IF !(Work_Zone[3] == 1*) GOTO 0x0CA7
507: 0x0C12 [0x1D] PRINT_EVENT_MESSAGE(message_id=12142*)
    → "...... I am sorry, <Player>, but the war council was not at all pleased with your performance, and has deemed you unworthy of your highest-ranking medal."
508: 0x0C15 [0x23] WAIT_FOR_DIALOG_INTERACTION
509: 0x0C16 [0x1D] PRINT_EVENT_MESSAGE(message_id=12143*)
    → "It shall be confiscated the moment its magic seal expires."
510: 0x0C19 [0x23] WAIT_FOR_DIALOG_INTERACTION
511: 0x0C1A [0x1D] PRINT_EVENT_MESSAGE(message_id=12144*)
    → "You have two choices left, <Player>. You may either accept the council's decision, or, if your medal's seal still holds, you may continue your efforts to improve your evaluation."
512: 0x0C1D [0x23] WAIT_FOR_DIALOG_INTERACTION
513: 0x0C1E [0x06] ExtData[1]->WorkLocal[1] = 0
514: 0x0C21 [0x02] IF !(Work_Zone[4] >= 1*) GOTO 0x0C35
515: 0x0C29 [0x1D] PRINT_EVENT_MESSAGE(message_id=12147*)
    → "Unfortunately, it no longer retains any power..."
516: 0x0C2C [0x23] WAIT_FOR_DIALOG_INTERACTION
517: 0x0C2D [0x03] ExtData[1]->WorkLocal[1] = 2*
518: 0x0C32 [0x01] GOTO 0x0C48
519: 0x0C35 [0x02] IF !(Work_Zone[4] == 1*) GOTO 0x0C44
520: 0x0C3D [0x1D] PRINT_EVENT_MESSAGE(message_id=12146*)
    → "However, it retains less than a day's power (Earth time)."
521: 0x0C40 [0x23] WAIT_FOR_DIALOG_INTERACTION
522: 0x0C41 [0x01] GOTO 0x0C48
523: 0x0C44 [0x1D] PRINT_EVENT_MESSAGE(message_id=12145*)
    → "It retains $2 day[/s] (Earth time) of power."
524: 0x0C47 [0x23] WAIT_FOR_DIALOG_INTERACTION

SUBROUTINE_0C48:
525: 0x0C48 [0x1D] PRINT_EVENT_MESSAGE(message_id=12148*)
    → "What is your decision?"
526: 0x0C4B [0x23] WAIT_FOR_DIALOG_INTERACTION
527: 0x0C4C [0x24] CREATE_DIALOG(message_id=12149*, default_option=1*, option_flags=ExtData[1]->WorkLocal[1])
    → "You can... [Return the medal at once./Continue your efforts.]"
528: 0x0C53 [0x25] WAIT_DIALOG_SELECT()
529: 0x0C54 [0x02] IF !(Work_Zone[0] == 1*) GOTO 0x0C6B
530: 0x0C5C [0x1D] PRINT_EVENT_MESSAGE(message_id=12151*)
    → "Excellent. Speak with me again when you are ready to submit your next application. Good luck, <Player>."
531: 0x0C5F [0x23] WAIT_FOR_DIALOG_INTERACTION
532: 0x0C60 [0x03] Work_Zone[1] = 1073741824*
533: 0x0C65 [0x01] GOTO 0x0E62

SUBROUTINE_0C6B:
534: 0x0C6B [0x24] CREATE_DIALOG(message_id=12150*, default_option=1*, option_flags=ExtData[1]->WorkLocal[1])
    → "Are you certain? [Yes./No.]"
535: 0x0C72 [0x25] WAIT_DIALOG_SELECT()
536: 0x0C73 [0x02] IF !(Work_Zone[0] == 1*) GOTO 0x0C8A
537: 0x0C7B [0x1D] PRINT_EVENT_MESSAGE(message_id=12151*)
    → "Excellent. Speak with me again when you are ready to submit your next application. Good luck, <Player>."
538: 0x0C7E [0x23] WAIT_FOR_DIALOG_INTERACTION
539: 0x0C7F [0x03] Work_Zone[1] = 1073741824*
540: 0x0C84 [0x01] GOTO 0x0E62

SUBROUTINE_0C8A:
541: 0x0C8A [0x1D] PRINT_EVENT_MESSAGE(message_id=12152*)
    → "Understood. Perhaps the weight of this medal was a bit too much for you, <Player>."
542: 0x0C8D [0x23] WAIT_FOR_DIALOG_INTERACTION
543: 0x0C8E [0x1D] PRINT_EVENT_MESSAGE(message_id=12153*)
    → "If you wish to submit another application for evaluation, please visit me again in [five days'/one hour's] time."
544: 0x0C91 [0x23] WAIT_FOR_DIALOG_INTERACTION
545: 0x0C92 [0x03] Work_Zone[1] = 2*
546: 0x0C97 [0x40] SET_BIT_WORK_RANGE(start_bit=4*, end_bit=7*, target=Work_Zone[1], source=1*)
547: 0x0CA0 [0x43] SEND_EVENT_UPDATE: Send pending tag to server (packet 0x005B)
548: 0x0CA2 [0x43] SEND_EVENT_UPDATE: Check pending flag (skip if not pending)
549: 0x0CA4 [0x01] GOTO 0x0E5F
550: 0x0CA7 [0x02] IF !(Work_Zone[3] == 5*) GOTO 0x0D4C
551: 0x0CAF [0x1D] PRINT_EVENT_MESSAGE(message_id=12154*)
    → "...... I regret to inform you, <Player>, that your performance this term fell a measure short of the council's expectations. Admittedly high expectations, but nevertheless..."
552: 0x0CB2 [0x23] WAIT_FOR_DIALOG_INTERACTION
553: 0x0CB3 [0x1D] PRINT_EVENT_MESSAGE(message_id=12155*)
    → "Still, you have proven your worth to our nation on many an occasion. In light of your past services, the council has seen fit to exempt you from demotion at this time."
554: 0x0CB6 [0x23] WAIT_FOR_DIALOG_INTERACTION
555: 0x0CB7 [0x06] ExtData[1]->WorkLocal[1] = 0
556: 0x0CBA [0x02] IF !(Work_Zone[4] >= 1*) GOTO 0x0CCE
557: 0x0CC2 [0x1D] PRINT_EVENT_MESSAGE(message_id=12158*)
    → "Incidentally, your seal is no longer effective."
558: 0x0CC5 [0x23] WAIT_FOR_DIALOG_INTERACTION
559: 0x0CC6 [0x03] ExtData[1]->WorkLocal[1] = 2*
560: 0x0CCB [0x01] GOTO 0x0CE1
561: 0x0CCE [0x02] IF !(Work_Zone[4] == 1*) GOTO 0x0CDD
562: 0x0CD6 [0x1D] PRINT_EVENT_MESSAGE(message_id=12157*)
    → "Incidentally, your seal retains less than a day's power (Earth time)."
563: 0x0CD9 [0x23] WAIT_FOR_DIALOG_INTERACTION
564: 0x0CDA [0x01] GOTO 0x0CE1
565: 0x0CDD [0x1D] PRINT_EVENT_MESSAGE(message_id=12156*)
    → "Incidentally, your seal will remain effective for $2 more day[/s] (Earth time)."
566: 0x0CE0 [0x23] WAIT_FOR_DIALOG_INTERACTION

SUBROUTINE_0CE1:
567: 0x0CE1 [0x1D] PRINT_EVENT_MESSAGE(message_id=12159*)
    → "You may end your evaluation here, or press on. What say you?"
568: 0x0CE4 [0x23] WAIT_FOR_DIALOG_INTERACTION
569: 0x0CE5 [0x24] CREATE_DIALOG(message_id=12134*, default_option=1*, option_flags=ExtData[1]->WorkLocal[1])
    → "End the evaluation? [Yes./No.]"
570: 0x0CEC [0x25] WAIT_DIALOG_SELECT()
571: 0x0CED [0x02] IF !(Work_Zone[0] == 1*) GOTO 0x0D04
572: 0x0CF5 [0x1D] PRINT_EVENT_MESSAGE(message_id=12160*)
    → "Very well. We will be following your continued efforts with interest."
573: 0x0CF8 [0x23] WAIT_FOR_DIALOG_INTERACTION
574: 0x0CF9 [0x03] Work_Zone[1] = 1073741824*
575: 0x0CFE [0x01] GOTO 0x0E62

SUBROUTINE_0D04:
576: 0x0D04 [0x1D] PRINT_EVENT_MESSAGE(message_id=12161*)
    → "By ending the evaluation, you will have accepted the war council's decision to maintain your current rank, and be granted another thirty-day seal on your current medal."
577: 0x0D07 [0x23] WAIT_FOR_DIALOG_INTERACTION
578: 0x0D08 [0x1D] PRINT_EVENT_MESSAGE(message_id=12162*)
    → "However, any work you have done during the past evaluation period towards the procurement of the next medal will become null and void."
579: 0x0D0B [0x23] WAIT_FOR_DIALOG_INTERACTION
580: 0x0D0C [0x1D] PRINT_EVENT_MESSAGE(message_id=12163*)
    → "Please consider carefully your options before making this important decision."
581: 0x0D0F [0x23] WAIT_FOR_DIALOG_INTERACTION
582: 0x0D10 [0x24] CREATE_DIALOG(message_id=12139*, default_option=1*, option_flags=ExtData[1]->WorkLocal[1])
    → "Are you absolutely sure? [Yes./No.]"
583: 0x0D17 [0x25] WAIT_DIALOG_SELECT()
584: 0x0D18 [0x02] IF !(Work_Zone[0] == 1*) GOTO 0x0D2F
585: 0x0D20 [0x1D] PRINT_EVENT_MESSAGE(message_id=12160*)
    → "Very well. We will be following your continued efforts with interest."
586: 0x0D23 [0x23] WAIT_FOR_DIALOG_INTERACTION
587: 0x0D24 [0x03] Work_Zone[1] = 1073741824*
588: 0x0D29 [0x01] GOTO 0x0E62

SUBROUTINE_0D2F:
589: 0x0D2F [0x1D] PRINT_EVENT_MESSAGE(message_id=12164*)
    → "Done. Your medal has been given a new magic seal."
590: 0x0D32 [0x23] WAIT_FOR_DIALOG_INTERACTION
591: 0x0D33 [0x1D] PRINT_EVENT_MESSAGE(message_id=12165*)
    → "Oh yes, and please note that you will not be eligible for another evaluation for [five days/one hour] (Earth time)."
592: 0x0D36 [0x23] WAIT_FOR_DIALOG_INTERACTION
593: 0x0D37 [0x03] Work_Zone[1] = 2*
594: 0x0D3C [0x40] SET_BIT_WORK_RANGE(start_bit=4*, end_bit=7*, target=Work_Zone[1], source=5*)
595: 0x0D45 [0x43] SEND_EVENT_UPDATE: Send pending tag to server (packet 0x005B)
596: 0x0D47 [0x43] SEND_EVENT_UPDATE: Check pending flag (skip if not pending)
597: 0x0D49 [0x01] GOTO 0x0E5F
598: 0x0D4C [0x02] IF !(Work_Zone[3] == 6*) GOTO 0x0DC2
599: 0x0D54 [0x1D] PRINT_EVENT_MESSAGE(message_id=12154*)
    → "...... I regret to inform you, <Player>, that your performance this term fell a measure short of the council's expectations. Admittedly high expectations, but nevertheless..."
600: 0x0D57 [0x23] WAIT_FOR_DIALOG_INTERACTION
601: 0x0D58 [0x1D] PRINT_EVENT_MESSAGE(message_id=12155*)
