# 17134230 - Bartholomaus

## Common Data

| Field            | Value                       |
|------------------|-----------------------------|
| Zone             | Bastok Markets [S] (ID: 87) |
| Block Size       | 540 bytes                   |
| Total Events     | 21                          |
| References Count | 38                          |

## List of Events

| Event ID                   | Entrypoint   |   Size |   Instructions |
|----------------------------|--------------|--------|----------------|
| [65535](#event-65535)      | 0x0000       |      1 |              1 |
| [184](#event-184)          | 0x0001       |      1 |              1 |
| [65535.1](#event-655351)   | 0x0002       |     32 |              8 |
| [65535.2](#event-655352)   | 0x0022       |     21 |              5 |
| [65535.3](#event-655353)   | 0x0037       |     34 |              8 |
| [65535.4](#event-655354)   | 0x0059       |      1 |              1 |
| [65535.5](#event-655355)   | 0x005A       |     18 |              4 |
| [65535.6](#event-655356)   | 0x006C       |     10 |              2 |
| [65535.7](#event-655357)   | 0x0076       |      9 |              3 |
| [65535.8](#event-655358)   | 0x007F       |      9 |              3 |
| [65535.9](#event-655359)   | 0x0088       |     10 |              2 |
| [65535.10](#event-6553510) | 0x0092       |     10 |              2 |
| [180](#event-180)          | 0x009C       |      1 |              1 |
| [181](#event-181)          | 0x009D       |      1 |              1 |
| [182](#event-182)          | 0x009E       |      1 |              1 |
| [65535.11](#event-6553511) | 0x009F       |     29 |              6 |
| [71](#event-71)            | 0x00BC       |      7 |              2 |
| [65535.12](#event-6553512) | 0x00C3       |     34 |              8 |
| [65535.13](#event-6553513) | 0x00E5       |     24 |              6 |
| [65535.14](#event-6553514) | 0x00FD       |     34 |              8 |
| [346](#event-346)          | 0x011F       |      1 |              1 |

## DAT References (imed_data)

|   Index | Hex Value   |   Dec Value |
|---------|-------------|-------------|
|       0 | 0x15BA9     |       89001 |
|       1 | 0x21F9      |        8697 |
|       2 | 0xFFFFB136  |  4294947126 |
|       3 | 0x1769D     |       95901 |
|       4 | 0x2994      |       10644 |
|       5 | 0xFFFFB127  |  4294947111 |
|       6 | 0x1619F     |       90527 |
|       7 | 0x26B9      |        9913 |
|       8 | 0x00FA      |         250 |
|       9 | 0x15956     |       88406 |
|      10 | 0x106E      |        4206 |
|      11 | 0x0000      |           0 |
|      12 | 0x0001      |           1 |
|      13 | 0x0080      |         128 |
|      14 | 0x000D      |          13 |
|      15 | 0x159D5     |       88533 |
|      16 | 0x34B2      |       13490 |
|      17 | 0x15A10     |       88592 |
|      18 | 0x2367      |        9063 |
|      19 | 0x15A85     |       88709 |
|      20 | 0x0F74      |        3956 |
|      21 | 0xFFFFB2DD  |  4294947549 |
|      22 | 0x15DD3     |       89555 |
|      23 | 0x0883      |        2179 |
|      24 | 0xFFFFB3B4  |  4294947764 |
|      25 | 0x0320      |         800 |
|      26 | 0x001E      |          30 |
|      27 | 0x0028      |          40 |
|      28 | 0x168A2     |       92322 |
|      29 | 0x0070      |         112 |
|      30 | 0x16EF8     |       93944 |
|      31 | 0x001D      |          29 |
|      32 | 0xFFFFB138  |  4294947128 |
|      33 | 0x1B039     |      110649 |
|      34 | 0xFFFFDB43  |  4294957891 |
|      35 | 0x1AC69     |      109673 |
|      36 | 0xFFFFD7A0  |  4294956960 |
|      37 | 0x05B9      |        1465 |

## Events

### Event 65535

#### Metadata

| Field        | Value   |
|--------------|---------|
| Entrypoint   | 0x0000  |
| Data Size    | 1 bytes |
| Instructions | 1       |

```
      00 01 02 03 04 05 06 07  08 09 0A 0B 0C 0D 0E 0F
      -- -- -- -- -- -- -- --  -- -- -- -- -- -- -- --
0000: 00                                                .               
```

#### Opcodes

```
  0: 0x0000 [0x00] END_REQSTACK()
```

### Event 184

#### Metadata

| Field        | Value   |
|--------------|---------|
| Entrypoint   | 0x0001  |
| Data Size    | 1 bytes |
| Instructions | 1       |

```
      00 01 02 03 04 05 06 07  08 09 0A 0B 0C 0D 0E 0F
      -- -- -- -- -- -- -- --  -- -- -- -- -- -- -- --
0000:    00                                              .              
```

#### Opcodes

```
  0: 0x0001 [0x00] END_REQSTACK()
```

### Event 65535.1

#### Metadata

| Field        | Value    |
|--------------|----------|
| Entrypoint   | 0x0002   |
| Data Size    | 32 bytes |
| Instructions | 8        |

```
      00 01 02 03 04 05 06 07  08 09 0A 0B 0C 0D 0E 0F
      -- -- -- -- -- -- -- --  -- -- -- -- -- -- -- --
0000:       1F 00 00 80 01 80  02 80 1F 01 6F 1F 00 03    ..........o...
0010: 80 04 80 05 80 1F 01 6F  4A 96 72 05 01 F2 71 05  .......oJ.r...q.
0020: 01 00                                             ..              
```

#### Opcodes

```
  0: 0x0002 [0x1F] MOVE_ENTITY: EventEntity moves to X=89.001*, Z=8.697*, Y=-20.170*
  1: 0x000A [0x1F] MOVE_ENTITY: Update entity position (mode=1)
  2: 0x000C [0x6F] WAIT_FRAME_DELAY: Yield until WaitTime reaches zero
  3: 0x000D [0x1F] MOVE_ENTITY: EventEntity moves to X=95.901*, Z=10.644*, Y=-20.185*
  4: 0x0015 [0x1F] MOVE_ENTITY: Update entity position (mode=1)
  5: 0x0017 [0x6F] WAIT_FRAME_DELAY: Yield until WaitTime reaches zero
  6: 0x0018 [0x4A] Bartholomaus (ID: 17134230/0x01057296) looks at Klara (ID: 17134066/0x010571F2)
  7: 0x0021 [0x00] END_REQSTACK()
```

### Event 65535.2

#### Metadata

| Field        | Value    |
|--------------|----------|
| Entrypoint   | 0x0022   |
| Data Size    | 21 bytes |
| Instructions | 5        |

```
      00 01 02 03 04 05 06 07  08 09 0A 0B 0C 0D 0E 0F
      -- -- -- -- -- -- -- --  -- -- -- -- -- -- -- --
0020:       1F 00 03 80 04 80  05 80 1F 01 6F 4A 96 72    ..........oJ.r
0030: 05 01 F2 71 05 01 00                              ...q...         
```

#### Opcodes

```
  0: 0x0022 [0x1F] MOVE_ENTITY: EventEntity moves to X=95.901*, Z=10.644*, Y=-20.185*
  1: 0x002A [0x1F] MOVE_ENTITY: Update entity position (mode=1)
  2: 0x002C [0x6F] WAIT_FRAME_DELAY: Yield until WaitTime reaches zero
  3: 0x002D [0x4A] Bartholomaus (ID: 17134230/0x01057296) looks at Klara (ID: 17134066/0x010571F2)
  4: 0x0036 [0x00] END_REQSTACK()
```

### Event 65535.3

#### Metadata

| Field        | Value    |
|--------------|----------|
| Entrypoint   | 0x0037   |
| Data Size    | 34 bytes |
| Instructions | 8        |

```
      00 01 02 03 04 05 06 07  08 09 0A 0B 0C 0D 0E 0F
      -- -- -- -- -- -- -- --  -- -- -- -- -- -- -- --
0030:                      1F  00 06 80 07 80 02 80 1F         .........
0040: 01 6F 4A 96 72 05 01 41  72 05 01 1C 08 80 1F 00  .oJ.r..Ar.......
0050: 09 80 0A 80 02 80 1F 01  00                       .........       
```

#### Opcodes

```
  0: 0x0037 [0x1F] MOVE_ENTITY: EventEntity moves to X=90.527*, Z=9.913*, Y=-20.170*
  1: 0x003F [0x1F] MOVE_ENTITY: Update entity position (mode=1)
  2: 0x0041 [0x6F] WAIT_FRAME_DELAY: Yield until WaitTime reaches zero
  3: 0x0042 [0x4A] Bartholomaus (ID: 17134230/0x01057296) looks at Unnamed NPC (ID: 17134145/0x01057241)
  4: 0x004B [0x1C] WAIT(250* ticks)
  5: 0x004E [0x1F] MOVE_ENTITY: EventEntity moves to X=88.406*, Z=4.206*, Y=-20.170*
  6: 0x0056 [0x1F] MOVE_ENTITY: Update entity position (mode=1)
  7: 0x0058 [0x00] END_REQSTACK()
```

### Event 65535.4

#### Metadata

| Field        | Value   |
|--------------|---------|
| Entrypoint   | 0x0059  |
| Data Size    | 1 bytes |
| Instructions | 1       |

```
      00 01 02 03 04 05 06 07  08 09 0A 0B 0C 0D 0E 0F
      -- -- -- -- -- -- -- --  -- -- -- -- -- -- -- --
0050:                             00                             .      
```

#### Opcodes

```
  0: 0x0059 [0x00] END_REQSTACK()
```

### Event 65535.5

#### Metadata

| Field        | Value    |
|--------------|----------|
| Entrypoint   | 0x005A   |
| Data Size    | 18 bytes |
| Instructions | 4        |

```
      00 01 02 03 04 05 06 07  08 09 0A 0B 0C 0D 0E 0F
      -- -- -- -- -- -- -- --  -- -- -- -- -- -- -- --
0050:                                22 00 2F 00 F8 FF            "./...
0060: FF 7F 6C F8 FF FF 7F 0B  80 0C 80 00              ..l.........    
```

#### Opcodes

```
  0: 0x005A [0x22] ENTITY_HIDE_FLAG(enabled=0x00)
  1: 0x005C [0x2F] EventEntity->Render.Flags0 &= ~0x80000 // Bit 19
  2: 0x0062 [0x6C] FADE_ENTITY_COLOR(entity_id=EventEntity, end_alpha=0*, fade_time=1*)
  3: 0x006B [0x00] END_REQSTACK()
```

### Event 65535.6

#### Metadata

| Field        | Value    |
|--------------|----------|
| Entrypoint   | 0x006C   |
| Data Size    | 10 bytes |
| Instructions | 2        |

```
      00 01 02 03 04 05 06 07  08 09 0A 0B 0C 0D 0E 0F
      -- -- -- -- -- -- -- --  -- -- -- -- -- -- -- --
0060:                                      6C F8 FF FF              l...
0070: 7F 0D 80 0C 80 00                                 ......          
```

#### Opcodes

```
  0: 0x006C [0x6C] FADE_ENTITY_COLOR(entity_id=EventEntity, end_alpha=128*, fade_time=1*)
  1: 0x0075 [0x00] END_REQSTACK()
```

### Event 65535.7

#### Metadata

| Field        | Value   |
|--------------|---------|
| Entrypoint   | 0x0076  |
| Data Size    | 9 bytes |
| Instructions | 3       |

```
      00 01 02 03 04 05 06 07  08 09 0A 0B 0C 0D 0E 0F
      -- -- -- -- -- -- -- --  -- -- -- -- -- -- -- --
0070:                   22 00  2F 00 F8 FF FF 7F 00           "./...... 
```

#### Opcodes

```
  0: 0x0076 [0x22] ENTITY_HIDE_FLAG(enabled=0x00)
  1: 0x0078 [0x2F] EventEntity->Render.Flags0 &= ~0x80000 // Bit 19
  2: 0x007E [0x00] END_REQSTACK()
```

### Event 65535.8

#### Metadata

| Field        | Value   |
|--------------|---------|
| Entrypoint   | 0x007F  |
| Data Size    | 9 bytes |
| Instructions | 3       |

```
      00 01 02 03 04 05 06 07  08 09 0A 0B 0C 0D 0E 0F
      -- -- -- -- -- -- -- --  -- -- -- -- -- -- -- --
0070:                                               22                 "
0080: 01 2F 01 F8 FF FF 7F 00                           ./......        
```

#### Opcodes

```
  0: 0x007F [0x22] ENTITY_HIDE_FLAG(enabled=0x01)
  1: 0x0081 [0x2F] EventEntity->Render.Flags0 |= 0x80000 // Bit 19
  2: 0x0087 [0x00] END_REQSTACK()
```

### Event 65535.9

#### Metadata

| Field        | Value    |
|--------------|----------|
| Entrypoint   | 0x0088   |
| Data Size    | 10 bytes |
| Instructions | 2        |

```
      00 01 02 03 04 05 06 07  08 09 0A 0B 0C 0D 0E 0F
      -- -- -- -- -- -- -- --  -- -- -- -- -- -- -- --
0080:                          6C F8 FF FF 7F 0B 80 0C          l.......
0090: 80 00                                             ..              
```

#### Opcodes

```
  0: 0x0088 [0x6C] FADE_ENTITY_COLOR(entity_id=EventEntity, end_alpha=0*, fade_time=1*)
  1: 0x0091 [0x00] END_REQSTACK()
```

### Event 65535.10

#### Metadata

| Field        | Value    |
|--------------|----------|
| Entrypoint   | 0x0092   |
| Data Size    | 10 bytes |
| Instructions | 2        |

```
      00 01 02 03 04 05 06 07  08 09 0A 0B 0C 0D 0E 0F
      -- -- -- -- -- -- -- --  -- -- -- -- -- -- -- --
0090:       6C F8 FF FF 7F 0D  80 0C 80 00                l.........    
```

#### Opcodes

```
  0: 0x0092 [0x6C] FADE_ENTITY_COLOR(entity_id=EventEntity, end_alpha=128*, fade_time=1*)
  1: 0x009B [0x00] END_REQSTACK()
```

### Event 180

#### Metadata

| Field        | Value   |
|--------------|---------|
| Entrypoint   | 0x009C  |
| Data Size    | 1 bytes |
| Instructions | 1       |

```
      00 01 02 03 04 05 06 07  08 09 0A 0B 0C 0D 0E 0F
      -- -- -- -- -- -- -- --  -- -- -- -- -- -- -- --
0090:                                      00                       .   
```

#### Opcodes

```
  0: 0x009C [0x00] END_REQSTACK()
```

### Event 181

#### Metadata

| Field        | Value   |
|--------------|---------|
| Entrypoint   | 0x009D  |
| Data Size    | 1 bytes |
| Instructions | 1       |

```
      00 01 02 03 04 05 06 07  08 09 0A 0B 0C 0D 0E 0F
      -- -- -- -- -- -- -- --  -- -- -- -- -- -- -- --
0090:                                         00                     .  
```

#### Opcodes

```
  0: 0x009D [0x00] END_REQSTACK()
```

### Event 182

#### Metadata

| Field        | Value   |
|--------------|---------|
| Entrypoint   | 0x009E  |
| Data Size    | 1 bytes |
| Instructions | 1       |

```
      00 01 02 03 04 05 06 07  08 09 0A 0B 0C 0D 0E 0F
      -- -- -- -- -- -- -- --  -- -- -- -- -- -- -- --
0090:                                            00                   . 
```

#### Opcodes

```
  0: 0x009E [0x00] END_REQSTACK()
```

### Event 65535.11

#### Metadata

| Field        | Value    |
|--------------|----------|
| Entrypoint   | 0x009F   |
| Data Size    | 29 bytes |
| Instructions | 6        |

```
      00 01 02 03 04 05 06 07  08 09 0A 0B 0C 0D 0E 0F
      -- -- -- -- -- -- -- --  -- -- -- -- -- -- -- --
0090:                                               59                 Y
00A0: 04 96 72 05 01 0E 80 1F  00 0F 80 10 80 02 80 1F  ..r.............
00B0: 01 1F 00 11 80 12 80 02  80 1F 01 00              ............    
```

#### Opcodes

```
  0: 0x009F [0x59] UPDATE_ENTITY_DATA: Set Bartholomaus (ID: 17134230/0x01057296) main speed = 13* * 0.1
  1: 0x00A7 [0x1F] MOVE_ENTITY: EventEntity moves to X=88.533*, Z=13.490*, Y=-20.170*
  2: 0x00AF [0x1F] MOVE_ENTITY: Update entity position (mode=1)
  3: 0x00B1 [0x1F] MOVE_ENTITY: EventEntity moves to X=88.592*, Z=9.063*, Y=-20.170*
  4: 0x00B9 [0x1F] MOVE_ENTITY: Update entity position (mode=1)
  5: 0x00BB [0x00] END_REQSTACK()
```

### Event 71

#### Metadata

| Field        | Value   |
|--------------|---------|
| Entrypoint   | 0x00BC  |
| Data Size    | 7 bytes |
| Instructions | 2       |

```
      00 01 02 03 04 05 06 07  08 09 0A 0B 0C 0D 0E 0F
      -- -- -- -- -- -- -- --  -- -- -- -- -- -- -- --
00B0:                                      92 01 F8 FF              ....
00C0: FF 7F 00                                          ...             
```

#### Opcodes

```
  0: 0x00BC [0x92] EventEntity->Render.Flags3 ^= 0x01
  1: 0x00C2 [0x00] END_REQSTACK()
```

### Event 65535.12

#### Metadata

| Field        | Value    |
|--------------|----------|
| Entrypoint   | 0x00C3   |
| Data Size    | 34 bytes |
| Instructions | 8        |

```
      00 01 02 03 04 05 06 07  08 09 0A 0B 0C 0D 0E 0F
      -- -- -- -- -- -- -- --  -- -- -- -- -- -- -- --
00C0:          32 0E 80 1F 00  13 80 14 80 15 80 1F 01     2............
00D0: 1F 00 16 80 17 80 18 80  1F 01 4B F8 FF FF 7F 19  ..........K.....
00E0: 80 1C 1A 80 00                                    .....           
```

#### Opcodes

```
  0: 0x00C3 [0x32] ExtData[1]->MainSpeed = 13* * 0.1
  1: 0x00C6 [0x1F] MOVE_ENTITY: EventEntity moves to X=88.709*, Z=3.956*, Y=-19.747*
  2: 0x00CE [0x1F] MOVE_ENTITY: Update entity position (mode=1)
  3: 0x00D0 [0x1F] MOVE_ENTITY: EventEntity moves to X=89.555*, Z=2.179*, Y=-19.532*
  4: 0x00D8 [0x1F] MOVE_ENTITY: Update entity position (mode=1)
  5: 0x00DA [0x4B] UPDATE_ENTITY_YAW(entity=EventEntity, yaw=4.4°*)
  6: 0x00E1 [0x1C] WAIT(30* ticks)
  7: 0x00E4 [0x00] END_REQSTACK()
```

### Event 65535.13

#### Metadata

| Field        | Value    |
|--------------|----------|
| Entrypoint   | 0x00E5   |
| Data Size    | 24 bytes |
| Instructions | 6        |

```
      00 01 02 03 04 05 06 07  08 09 0A 0B 0C 0D 0E 0F
      -- -- -- -- -- -- -- --  -- -- -- -- -- -- -- --
00E0:                32 1B 80  5A 00 1C 80 1D 80 18 80       2..Z.......
00F0: 5A 01 5A 00 1E 80 1F 80  20 80 5A 01 00           Z.Z..... .Z..   
```

#### Opcodes

```
  0: 0x00E5 [0x32] ExtData[1]->MainSpeed = 40* * 0.1
  1: 0x00E8 [0x5A] UPDATE_EVENT_POSITION: Set EventEntity MovePosition to X=92.322*, Z=0.112*, Y=-19.532*
  2: 0x00F0 [0x5A] UPDATE_EVENT_POSITION: Move EventEntity incrementally towards MovePosition
  3: 0x00F2 [0x5A] UPDATE_EVENT_POSITION: Set EventEntity MovePosition to X=93.944*, Z=0.029*, Y=-20.168*
  4: 0x00FA [0x5A] UPDATE_EVENT_POSITION: Move EventEntity incrementally towards MovePosition
  5: 0x00FC [0x00] END_REQSTACK()
```

### Event 65535.14

#### Metadata

| Field        | Value    |
|--------------|----------|
| Entrypoint   | 0x00FD   |
| Data Size    | 34 bytes |
| Instructions | 8        |

```
      00 01 02 03 04 05 06 07  08 09 0A 0B 0C 0D 0E 0F
      -- -- -- -- -- -- -- --  -- -- -- -- -- -- -- --
00F0:                                         32 1B 80               2..
0100: 5A 00 21 80 22 80 02 80  5A 01 5A 00 23 80 24 80  Z.!."...Z.Z.#.$.
0110: 02 80 5A 01 4B F8 FF FF  7F 25 80 1C 1A 80 00     ..Z.K....%..... 
```

#### Opcodes

```
  0: 0x00FD [0x32] ExtData[1]->MainSpeed = 40* * 0.1
  1: 0x0100 [0x5A] UPDATE_EVENT_POSITION: Set EventEntity MovePosition to X=110.649*, Z=-9.405*, Y=-20.170*
  2: 0x0108 [0x5A] UPDATE_EVENT_POSITION: Move EventEntity incrementally towards MovePosition
  3: 0x010A [0x5A] UPDATE_EVENT_POSITION: Set EventEntity MovePosition to X=109.673*, Z=-10.336*, Y=-20.170*
  4: 0x0112 [0x5A] UPDATE_EVENT_POSITION: Move EventEntity incrementally towards MovePosition
  5: 0x0114 [0x4B] UPDATE_ENTITY_YAW(entity=EventEntity, yaw=8.0°*)
  6: 0x011B [0x1C] WAIT(30* ticks)
  7: 0x011E [0x00] END_REQSTACK()
```

### Event 346

#### Metadata

| Field        | Value   |
|--------------|---------|
| Entrypoint   | 0x011F  |
| Data Size    | 1 bytes |
| Instructions | 1       |

```
      00 01 02 03 04 05 06 07  08 09 0A 0B 0C 0D 0E 0F
      -- -- -- -- -- -- -- --  -- -- -- -- -- -- -- --
0110:                                               00                 .
```

#### Opcodes

```
  0: 0x011F [0x00] END_REQSTACK()
```
