# 17134020 - Werei

## Common Data

| Field            | Value                       |
|------------------|-----------------------------|
| Zone             | Bastok Markets [S] (ID: 87) |
| Block Size       | 496 bytes                   |
| Total Events     | 18                          |
| References Count | 38                          |

## List of Events

| Event ID                   | Entrypoint   |   Size |   Instructions |
|----------------------------|--------------|--------|----------------|
| [65535](#event-65535)      | 0x0000       |      1 |              1 |
| [101](#event-101)          | 0x0001       |      1 |              1 |
| [120](#event-120)          | 0x0002       |      7 |              2 |
| [65535.1](#event-655351)   | 0x0009       |     28 |              6 |
| [65535.2](#event-655352)   | 0x0025       |     22 |              6 |
| [122](#event-122)          | 0x003B       |      7 |              2 |
| [65535.3](#event-655353)   | 0x0042       |     31 |              7 |
| [65535.4](#event-655354)   | 0x0061       |     14 |              4 |
| [19](#event-19)            | 0x006F       |      1 |              1 |
| [65535.5](#event-655355)   | 0x0070       |     14 |              4 |
| [65535.6](#event-655356)   | 0x007E       |     14 |              4 |
| [65535.7](#event-655357)   | 0x008C       |     14 |              4 |
| [62](#event-62)            | 0x009A       |      7 |              2 |
| [78](#event-78)            | 0x00A1       |      7 |              2 |
| [65535.8](#event-655358)   | 0x00A8       |     64 |             14 |
| [65535.9](#event-655359)   | 0x00E8       |     14 |              4 |
| [65535.10](#event-6553510) | 0x00F6       |      5 |              2 |
| [65535.11](#event-6553511) | 0x00FB       |      5 |              2 |

## DAT References (imed_data)

|   Index | Hex Value   |   Dec Value |
|---------|-------------|-------------|
|       0 | 0x001E      |          30 |
|       1 | 0x0007      |           7 |
|       2 | 0x003C      |          60 |
|       3 | 0x000D      |          13 |
|       4 | 0xFFFCF5D2  |  4294768082 |
|       5 | 0xFFFE8AEB  |  4294871787 |
|       6 | 0xFFFFE891  |  4294961297 |
|       7 | 0xFFFD0411  |  4294771729 |
|       8 | 0xFFFE8390  |  4294869904 |
|       9 | 0xFFFCFC4A  |  4294769738 |
|      10 | 0xFFFE7CA6  |  4294868134 |
|      11 | 0xFFFCE943  |  4294764867 |
|      12 | 0xFFFE7338  |  4294865720 |
|      13 | 0xFFFFE890  |  4294961296 |
|      14 | 0xFFFCD861  |  4294760545 |
|      15 | 0xFFFE7453  |  4294866003 |
|      16 | 0x0028      |          40 |
|      17 | 0xFFFC39AF  |  4294719919 |
|      18 | 0x7E0F      |       32271 |
|      19 | 0xFFFFF2BA  |  4294963898 |
|      20 | 0xFFFC2F28  |  4294717224 |
|      21 | 0x8565      |       34149 |
|      22 | 0xFFFFF510  |  4294964496 |
|      23 | 0xFFFC2704  |  4294715140 |
|      24 | 0x9103      |       37123 |
|      25 | 0xFFFFF8F8  |  4294965496 |
|      26 | 0xFFFC2755  |  4294715221 |
|      27 | 0x9F29      |       40745 |
|      28 | 0xFFFFFC18  |  4294966296 |
|      29 | 0xFFFC2A30  |  4294715952 |
|      30 | 0xBE23      |       48675 |
|      31 | 0xFFFC3C25  |  4294720549 |
|      32 | 0xD7D9      |       55257 |
|      33 | 0xFFFC9F68  |  4294745960 |
|      34 | 0xF887      |       63623 |
|      35 | 0xFFFFF831  |  4294965297 |
|      36 | 0x0048      |          72 |
|      37 | 0x0000      |           0 |

## Events

### Event 65535

#### Metadata

| Field        | Value   |
|--------------|---------|
| Entrypoint   | 0x0000  |
| Data Size    | 1 bytes |
| Instructions | 1       |

```
      00 01 02 03 04 05 06 07  08 09 0A 0B 0C 0D 0E 0F
      -- -- -- -- -- -- -- --  -- -- -- -- -- -- -- --
0000: 00                                                .               
```

#### Opcodes

```
  0: 0x0000 [0x00] END_REQSTACK()
```

### Event 101

#### Metadata

| Field        | Value   |
|--------------|---------|
| Entrypoint   | 0x0001  |
| Data Size    | 1 bytes |
| Instructions | 1       |

```
      00 01 02 03 04 05 06 07  08 09 0A 0B 0C 0D 0E 0F
      -- -- -- -- -- -- -- --  -- -- -- -- -- -- -- --
0000:    00                                              .              
```

#### Opcodes

```
  0: 0x0001 [0x00] END_REQSTACK()
```

### Event 120

#### Metadata

| Field        | Value   |
|--------------|---------|
| Entrypoint   | 0x0002  |
| Data Size    | 7 bytes |
| Instructions | 2       |

```
      00 01 02 03 04 05 06 07  08 09 0A 0B 0C 0D 0E 0F
      -- -- -- -- -- -- -- --  -- -- -- -- -- -- -- --
0000:       92 01 F8 FF FF 7F  00                         .......       
```

#### Opcodes

```
  0: 0x0002 [0x92] EventEntity->Render.Flags3 ^= 0x01
  1: 0x0008 [0x00] END_REQSTACK()
```

### Event 65535.1

#### Metadata

| Field        | Value    |
|--------------|----------|
| Entrypoint   | 0x0009   |
| Data Size    | 28 bytes |
| Instructions | 6        |

```
      00 01 02 03 04 05 06 07  08 09 0A 0B 0C 0D 0E 0F
      -- -- -- -- -- -- -- --  -- -- -- -- -- -- -- --
0000:                             1C 00 80 6E C4 71 05           ...n.q.
0010: 01 01 80 99 C4 71 05 01  1C 02 80 4A C4 71 05 01  .....q.....J.q..
0020: F0 71 05 01 00                                    .q...           
```

#### Opcodes

```
  0: 0x0009 [0x1C] WAIT(30* ticks)
  1: 0x000C [0x6E] Werei (ID: 17134020/0x010571C4) uses emote 7*
  2: 0x0013 [0x99] Wait for Werei (ID: 17134020/0x010571C4) animation to complete
  3: 0x0018 [0x1C] WAIT(60* ticks)
  4: 0x001B [0x4A] Werei (ID: 17134020/0x010571C4) looks at Pale Eagle (ID: 17134064/0x010571F0)
  5: 0x0024 [0x00] END_REQSTACK()
```

### Event 65535.2

#### Metadata

| Field        | Value    |
|--------------|----------|
| Entrypoint   | 0x0025   |
| Data Size    | 22 bytes |
| Instructions | 6        |

```
      00 01 02 03 04 05 06 07  08 09 0A 0B 0C 0D 0E 0F
      -- -- -- -- -- -- -- --  -- -- -- -- -- -- -- --
0020:                32 03 80  1F 00 04 80 05 80 06 80       2..........
0030: 1F 01 1E D4 71 05 01 1C  00 80 00                 ....q......     
```

#### Opcodes

```
  0: 0x0025 [0x32] ExtData[1]->MainSpeed = 13* * 0.1
  1: 0x0028 [0x1F] MOVE_ENTITY: EventEntity moves to X=-199.214*, Z=-95.509*, Y=-5.999*
  2: 0x0030 [0x1F] MOVE_ENTITY: Update entity position (mode=1)
  3: 0x0032 [0x1E] EventEntity looks at Pagdako (ID: 17134036/0x010571D4) and starts talking
  4: 0x0037 [0x1C] WAIT(30* ticks)
  5: 0x003A [0x00] END_REQSTACK()
```

### Event 122

#### Metadata

| Field        | Value   |
|--------------|---------|
| Entrypoint   | 0x003B  |
| Data Size    | 7 bytes |
| Instructions | 2       |

```
      00 01 02 03 04 05 06 07  08 09 0A 0B 0C 0D 0E 0F
      -- -- -- -- -- -- -- --  -- -- -- -- -- -- -- --
0030:                                   92 01 F8 FF FF             .....
0040: 7F 00                                             ..              
```

#### Opcodes

```
  0: 0x003B [0x92] EventEntity->Render.Flags3 ^= 0x01
  1: 0x0041 [0x00] END_REQSTACK()
```

### Event 65535.3

#### Metadata

| Field        | Value    |
|--------------|----------|
| Entrypoint   | 0x0042   |
| Data Size    | 31 bytes |
| Instructions | 7        |

```
      00 01 02 03 04 05 06 07  08 09 0A 0B 0C 0D 0E 0F
      -- -- -- -- -- -- -- --  -- -- -- -- -- -- -- --
0040:       32 03 80 1F 00 04  80 05 80 06 80 1F 01 1E    2.............
0050: F0 FF FF 7F 4A F0 FF FF  7F C4 71 05 01 1C 00 80  ....J.....q.....
0060: 00                                                .               
```

#### Opcodes

```
  0: 0x0042 [0x32] ExtData[1]->MainSpeed = 13* * 0.1
  1: 0x0045 [0x1F] MOVE_ENTITY: EventEntity moves to X=-199.214*, Z=-95.509*, Y=-5.999*
  2: 0x004D [0x1F] MOVE_ENTITY: Update entity position (mode=1)
  3: 0x004F [0x1E] EventEntity looks at LocalPlayer and starts talking
  4: 0x0054 [0x4A] LocalPlayer looks at Werei (ID: 17134020/0x010571C4)
  5: 0x005D [0x1C] WAIT(30* ticks)
  6: 0x0060 [0x00] END_REQSTACK()
```

### Event 65535.4

#### Metadata

| Field        | Value    |
|--------------|----------|
| Entrypoint   | 0x0061   |
| Data Size    | 14 bytes |
| Instructions | 4        |

```
      00 01 02 03 04 05 06 07  08 09 0A 0B 0C 0D 0E 0F
      -- -- -- -- -- -- -- --  -- -- -- -- -- -- -- --
0060:    32 03 80 1F 00 07 80  08 80 06 80 1F 01 00      2............. 
```

#### Opcodes

```
  0: 0x0061 [0x32] ExtData[1]->MainSpeed = 13* * 0.1
  1: 0x0064 [0x1F] MOVE_ENTITY: EventEntity moves to X=-195.567*, Z=-97.392*, Y=-5.999*
  2: 0x006C [0x1F] MOVE_ENTITY: Update entity position (mode=1)
  3: 0x006E [0x00] END_REQSTACK()
```

### Event 19

#### Metadata

| Field        | Value   |
|--------------|---------|
| Entrypoint   | 0x006F  |
| Data Size    | 1 bytes |
| Instructions | 1       |

```
      00 01 02 03 04 05 06 07  08 09 0A 0B 0C 0D 0E 0F
      -- -- -- -- -- -- -- --  -- -- -- -- -- -- -- --
0060:                                               00                 .
```

#### Opcodes

```
  0: 0x006F [0x00] END_REQSTACK()
```

### Event 65535.5

#### Metadata

| Field        | Value    |
|--------------|----------|
| Entrypoint   | 0x0070   |
| Data Size    | 14 bytes |
| Instructions | 4        |

```
      00 01 02 03 04 05 06 07  08 09 0A 0B 0C 0D 0E 0F
      -- -- -- -- -- -- -- --  -- -- -- -- -- -- -- --
0070: 32 03 80 1F 00 09 80 0A  80 06 80 1F 01 00        2.............  
```

#### Opcodes

```
  0: 0x0070 [0x32] ExtData[1]->MainSpeed = 13* * 0.1
  1: 0x0073 [0x1F] MOVE_ENTITY: EventEntity moves to X=-197.558*, Z=-99.162*, Y=-5.999*
  2: 0x007B [0x1F] MOVE_ENTITY: Update entity position (mode=1)
  3: 0x007D [0x00] END_REQSTACK()
```

### Event 65535.6

#### Metadata

| Field        | Value    |
|--------------|----------|
| Entrypoint   | 0x007E   |
| Data Size    | 14 bytes |
| Instructions | 4        |

```
      00 01 02 03 04 05 06 07  08 09 0A 0B 0C 0D 0E 0F
      -- -- -- -- -- -- -- --  -- -- -- -- -- -- -- --
0070:                                            32 03                2.
0080: 80 1F 00 0B 80 0C 80 0D  80 1F 01 00              ............    
```

#### Opcodes

```
  0: 0x007E [0x32] ExtData[1]->MainSpeed = 13* * 0.1
  1: 0x0081 [0x1F] MOVE_ENTITY: EventEntity moves to X=-202.429*, Z=-101.576*, Y=-6.000*
  2: 0x0089 [0x1F] MOVE_ENTITY: Update entity position (mode=1)
  3: 0x008B [0x00] END_REQSTACK()
```

### Event 65535.7

#### Metadata

| Field        | Value    |
|--------------|----------|
| Entrypoint   | 0x008C   |
| Data Size    | 14 bytes |
| Instructions | 4        |

```
      00 01 02 03 04 05 06 07  08 09 0A 0B 0C 0D 0E 0F
      -- -- -- -- -- -- -- --  -- -- -- -- -- -- -- --
0080:                                      32 03 80 1F              2...
0090: 00 0E 80 0F 80 06 80 1F  01 00                    ..........      
```

#### Opcodes

```
  0: 0x008C [0x32] ExtData[1]->MainSpeed = 13* * 0.1
  1: 0x008F [0x1F] MOVE_ENTITY: EventEntity moves to X=-206.751*, Z=-101.293*, Y=-5.999*
  2: 0x0097 [0x1F] MOVE_ENTITY: Update entity position (mode=1)
  3: 0x0099 [0x00] END_REQSTACK()
```

### Event 62

#### Metadata

| Field        | Value   |
|--------------|---------|
| Entrypoint   | 0x009A  |
| Data Size    | 7 bytes |
| Instructions | 2       |

```
      00 01 02 03 04 05 06 07  08 09 0A 0B 0C 0D 0E 0F
      -- -- -- -- -- -- -- --  -- -- -- -- -- -- -- --
0090:                                92 01 F8 FF FF 7F            ......
00A0: 00                                                .               
```

#### Opcodes

```
  0: 0x009A [0x92] EventEntity->Render.Flags3 ^= 0x01
  1: 0x00A0 [0x00] END_REQSTACK()
```

### Event 78

#### Metadata

| Field        | Value   |
|--------------|---------|
| Entrypoint   | 0x00A1  |
| Data Size    | 7 bytes |
| Instructions | 2       |

```
      00 01 02 03 04 05 06 07  08 09 0A 0B 0C 0D 0E 0F
      -- -- -- -- -- -- -- --  -- -- -- -- -- -- -- --
00A0:    92 01 F8 FF FF 7F 00                            .......        
```

#### Opcodes

```
  0: 0x00A1 [0x92] EventEntity->Render.Flags3 ^= 0x01
  1: 0x00A7 [0x00] END_REQSTACK()
```

### Event 65535.8

#### Metadata

| Field        | Value    |
|--------------|----------|
| Entrypoint   | 0x00A8   |
| Data Size    | 64 bytes |
| Instructions | 14       |

```
      00 01 02 03 04 05 06 07  08 09 0A 0B 0C 0D 0E 0F
      -- -- -- -- -- -- -- --  -- -- -- -- -- -- -- --
00A0:                          32 10 80 1F 00 11 80 12          2.......
00B0: 80 13 80 1F 01 1F 00 14  80 15 80 16 80 1F 01 1F  ................
00C0: 00 17 80 18 80 19 80 1F  01 1F 00 1A 80 1B 80 1C  ................
00D0: 80 1F 01 1F 00 1D 80 1E  80 1C 80 1F 01 1F 00 1F  ................
00E0: 80 20 80 1C 80 1F 01 00                           . ......        
```

#### Opcodes

```
  0: 0x00A8 [0x32] ExtData[1]->MainSpeed = 40* * 0.1
  1: 0x00AB [0x1F] MOVE_ENTITY: EventEntity moves to X=-247.377*, Z=32.271*, Y=-3.398*
  2: 0x00B3 [0x1F] MOVE_ENTITY: Update entity position (mode=1)
  3: 0x00B5 [0x1F] MOVE_ENTITY: EventEntity moves to X=-250.072*, Z=34.149*, Y=-2.800*
  4: 0x00BD [0x1F] MOVE_ENTITY: Update entity position (mode=1)
  5: 0x00BF [0x1F] MOVE_ENTITY: EventEntity moves to X=-252.156*, Z=37.123*, Y=-1.800*
  6: 0x00C7 [0x1F] MOVE_ENTITY: Update entity position (mode=1)
  7: 0x00C9 [0x1F] MOVE_ENTITY: EventEntity moves to X=-252.075*, Z=40.745*, Y=-1.000*
  8: 0x00D1 [0x1F] MOVE_ENTITY: Update entity position (mode=1)
  9: 0x00D3 [0x1F] MOVE_ENTITY: EventEntity moves to X=-251.344*, Z=48.675*, Y=-1.000*
 10: 0x00DB [0x1F] MOVE_ENTITY: Update entity position (mode=1)
 11: 0x00DD [0x1F] MOVE_ENTITY: EventEntity moves to X=-246.747*, Z=55.257*, Y=-1.000*
 12: 0x00E5 [0x1F] MOVE_ENTITY: Update entity position (mode=1)
 13: 0x00E7 [0x00] END_REQSTACK()
```

### Event 65535.9

#### Metadata

| Field        | Value    |
|--------------|----------|
| Entrypoint   | 0x00E8   |
| Data Size    | 14 bytes |
| Instructions | 4        |

```
      00 01 02 03 04 05 06 07  08 09 0A 0B 0C 0D 0E 0F
      -- -- -- -- -- -- -- --  -- -- -- -- -- -- -- --
00E0:                          32 10 80 1F 00 21 80 22          2....!."
00F0: 80 23 80 1F 01 00                                 .#....          
```

#### Opcodes

```
  0: 0x00E8 [0x32] ExtData[1]->MainSpeed = 40* * 0.1
  1: 0x00EB [0x1F] MOVE_ENTITY: EventEntity moves to X=-221.336*, Z=63.623*, Y=-1.999*
  2: 0x00F3 [0x1F] MOVE_ENTITY: Update entity position (mode=1)
  3: 0x00F5 [0x00] END_REQSTACK()
```

### Event 65535.10

#### Metadata

| Field        | Value   |
|--------------|---------|
| Entrypoint   | 0x00F6  |
| Data Size    | 5 bytes |
| Instructions | 2       |

```
      00 01 02 03 04 05 06 07  08 09 0A 0B 0C 0D 0E 0F
      -- -- -- -- -- -- -- --  -- -- -- -- -- -- -- --
00F0:                   B6 08  24 80 00                       ..$..     
```

#### Opcodes

```
  0: 0x00F6 [0xB6] ENTITY_APPEARANCE_HANDLER(case=Main, value=72*)
  1: 0x00FA [0x00] END_REQSTACK()
```

### Event 65535.11

#### Metadata

| Field        | Value   |
|--------------|---------|
| Entrypoint   | 0x00FB  |
| Data Size    | 5 bytes |
| Instructions | 2       |

```
      00 01 02 03 04 05 06 07  08 09 0A 0B 0C 0D 0E 0F
      -- -- -- -- -- -- -- --  -- -- -- -- -- -- -- --
00F0:                                   B6 08 25 80 00             ..%..
```

#### Opcodes

```
  0: 0x00FB [0xB6] ENTITY_APPEARANCE_HANDLER(case=Main, value=0*)
  1: 0x00FF [0x00] END_REQSTACK()
```
