# 17134067 - Nicolaus

## Common Data

| Field            | Value                       |
|------------------|-----------------------------|
| Zone             | Bastok Markets [S] (ID: 87) |
| Block Size       | 1016 bytes                  |
| Total Events     | 40                          |
| References Count | 64                          |

## List of Events

| Event ID                   | Entrypoint   |   Size |   Instructions |
|----------------------------|--------------|--------|----------------|
| [65535](#event-65535)      | 0x0000       |      1 |              1 |
| [160](#event-160)          | 0x0001       |      7 |              2 |
| [16](#event-16)            | 0x0008       |      1 |              1 |
| [65535.1](#event-655351)   | 0x0009       |     80 |             12 |
| [65535.2](#event-655352)   | 0x0059       |     14 |              4 |
| [27](#event-27)            | 0x0067       |      1 |              1 |
| [65535.3](#event-655353)   | 0x0068       |     19 |              5 |
| [30](#event-30)            | 0x007B       |      1 |              1 |
| [65535.4](#event-655354)   | 0x007C       |     22 |              6 |
| [65535.5](#event-655355)   | 0x0092       |     22 |              6 |
| [34](#event-34)            | 0x00A8       |      1 |              1 |
| [65535.6](#event-655356)   | 0x00A9       |     22 |              6 |
| [65535.7](#event-655357)   | 0x00BF       |      4 |              2 |
| [65535.8](#event-655358)   | 0x00C3       |      2 |              2 |
| [56](#event-56)            | 0x00C5       |      7 |              2 |
| [65535.9](#event-655359)   | 0x00CC       |     14 |              4 |
| [65535.10](#event-6553510) | 0x00DA       |     23 |              7 |
| [65535.11](#event-6553511) | 0x00F1       |     22 |              6 |
| [65535.12](#event-6553512) | 0x0107       |     37 |              5 |
| [65535.13](#event-6553513) | 0x012C       |     14 |              4 |
| [57](#event-57)            | 0x013A       |      7 |              2 |
| [60](#event-60)            | 0x0141       |      7 |              2 |
| [77](#event-77)            | 0x0148       |      7 |              2 |
| [65535.14](#event-6553514) | 0x014F       |     19 |              5 |
| [65535.15](#event-6553515) | 0x0162       |     30 |              6 |
| [65535.16](#event-6553516) | 0x0180       |     14 |              4 |
| [78](#event-78)            | 0x018E       |      7 |              2 |
| [65](#event-65)            | 0x0195       |      7 |              2 |
| [46](#event-46)            | 0x019C       |      1 |              1 |
| [65535.17](#event-6553517) | 0x019D       |     15 |              5 |
| [65535.18](#event-6553518) | 0x01AC       |     15 |              5 |
| [65535.19](#event-6553519) | 0x01BB       |     15 |              5 |
| [66](#event-66)            | 0x01CA       |      1 |              1 |
| [65535.20](#event-6553520) | 0x01CB       |     12 |              4 |
| [65535.21](#event-6553521) | 0x01D7       |     25 |              7 |
| [71](#event-71)            | 0x01F0       |     10 |              3 |
| [65535.22](#event-6553522) | 0x01FA       |     14 |              4 |
| [65535.23](#event-6553523) | 0x0208       |     52 |             10 |
| [65535.24](#event-6553524) | 0x023C       |      2 |              2 |
| [216](#event-216)          | 0x023E       |      7 |              2 |

## DAT References (imed_data)

|   Index | Hex Value   |   Dec Value |
|---------|-------------|-------------|
|       0 | 0x000D      |          13 |
|       1 | 0xFFFF8027  |  4294934567 |
|       2 | 0x0221      |         545 |
|       3 | 0xFFFFD8F1  |  4294957297 |
|       4 | 0x003C      |          60 |
|       5 | 0x0005      |           5 |
|       6 | 0xFFFFB34C  |  4294947660 |
|       7 | 0xFFFFFBCA  |  4294966218 |
|       8 | 0xFFFF9E54  |  4294942292 |
|       9 | 0x047B      |        1147 |
|      10 | 0xFFFFD8F0  |  4294957296 |
|      11 | 0xFFFCE291  |  4294763153 |
|      12 | 0x01DE      |         478 |
|      13 | 0xFFFFD8F2  |  4294957298 |
|      14 | 0x001E      |          30 |
|      15 | 0x17633     |       95795 |
|      16 | 0x29FB      |       10747 |
|      17 | 0xFFFFB127  |  4294947111 |
|      18 | 0x0028      |          40 |
|      19 | 0x15B0B     |       88843 |
|      20 | 0x2DBF      |       11711 |
|      21 | 0xFFFFB136  |  4294947126 |
|      22 | 0x0000      |           0 |
|      23 | 0xFFFBB9C3  |  4294687171 |
|      24 | 0xFFFE98F4  |  4294875380 |
|      25 | 0xFFFFD120  |  4294955296 |
|      26 | 0xFFFBC2D0  |  4294689488 |
|      27 | 0xFFFE8E31  |  4294872625 |
|      28 | 0xFFFBC27C  |  4294689404 |
|      29 | 0xFFFE96FC  |  4294874876 |
|      30 | 0xFFFBAC1B  |  4294683675 |
|      31 | 0xFFFEA3A3  |  4294878115 |
|      32 | 0xFFFFD121  |  4294955297 |
|      33 | 0xFFFCF9AA  |  4294769066 |
|      34 | 0xFFFFF907  |  4294965511 |
|      35 | 0xFFFCF9B0  |  4294769072 |
|      36 | 0xFFFFF2B2  |  4294963890 |
|      37 | 0xFFFCF730  |  4294768432 |
|      38 | 0xFFFFBA34  |  4294949428 |
|      39 | 0x000B      |          11 |
|      40 | 0xFFFCEB13  |  4294765331 |
|      41 | 0xFFFFFB01  |  4294966017 |
|      42 | 0x000A      |          10 |
|      43 | 0xFFFB22DD  |  4294648541 |
|      44 | 0xFFFD4B11  |  4294789905 |
|      45 | 0xFFFFC1B4  |  4294951348 |
|      46 | 0xFFFCE83E  |  4294764606 |
|      47 | 0x01A4      |         420 |
|      48 | 0x173BE     |       95166 |
|      49 | 0x39DB      |       14811 |
|      50 | 0x15E4A     |       89674 |
|      51 | 0x2675      |        9845 |
|      52 | 0x0050      |          80 |
|      53 | 0x15956     |       88406 |
|      54 | 0x106E      |        4206 |
|      55 | 0x1B7FE     |      112638 |
|      56 | 0xFFFFDC67  |  4294958183 |
|      57 | 0x1AD12     |      109842 |
|      58 | 0xFFFFD8D7  |  4294957271 |
|      59 | 0x1A81F     |      108575 |
|      60 | 0xFFFFDD2E  |  4294958382 |
|      61 | 0xFFFFB11F  |  4294947103 |
|      62 | 0x0F5D      |        3933 |
|      63 | 0x0009      |           9 |

## Events

### Event 65535

#### Metadata

| Field        | Value   |
|--------------|---------|
| Entrypoint   | 0x0000  |
| Data Size    | 1 bytes |
| Instructions | 1       |

```
      00 01 02 03 04 05 06 07  08 09 0A 0B 0C 0D 0E 0F
      -- -- -- -- -- -- -- --  -- -- -- -- -- -- -- --
0000: 00                                                .               
```

#### Opcodes

```
  0: 0x0000 [0x00] END_REQSTACK()
```

### Event 160

#### Metadata

| Field        | Value   |
|--------------|---------|
| Entrypoint   | 0x0001  |
| Data Size    | 7 bytes |
| Instructions | 2       |

```
      00 01 02 03 04 05 06 07  08 09 0A 0B 0C 0D 0E 0F
      -- -- -- -- -- -- -- --  -- -- -- -- -- -- -- --
0000:    92 01 F8 FF FF 7F 00                            .......        
```

#### Opcodes

```
  0: 0x0001 [0x92] EventEntity->Render.Flags3 ^= 0x01
  1: 0x0007 [0x00] END_REQSTACK()
```

### Event 16

#### Metadata

| Field        | Value   |
|--------------|---------|
| Entrypoint   | 0x0008  |
| Data Size    | 1 bytes |
| Instructions | 1       |

```
      00 01 02 03 04 05 06 07  08 09 0A 0B 0C 0D 0E 0F
      -- -- -- -- -- -- -- --  -- -- -- -- -- -- -- --
0000:                          00                               .       
```

#### Opcodes

```
  0: 0x0008 [0x00] END_REQSTACK()
```

### Event 65535.1

#### Metadata

| Field        | Value    |
|--------------|----------|
| Entrypoint   | 0x0009   |
| Data Size    | 80 bytes |
| Instructions | 12       |

```
      00 01 02 03 04 05 06 07  08 09 0A 0B 0C 0D 0E 0F
      -- -- -- -- -- -- -- --  -- -- -- -- -- -- -- --
0000:                             32 00 80 1F 00 01 80           2......
0010: 02 80 03 80 1F 01 4A B4  71 05 01 F3 71 05 01 1C  ......J.q...q...
0020: 04 80 1E B4 71 05 01 1C  04 80 66 05 80 F3 71 05  ....q.....f...q.
0030: 01 F3 71 05 01 74 6C 62  30 1C 04 80 66 05 80 F3  ..q..tlb0...f...
0040: 71 05 01 F3 71 05 01 74  6C 62 31 53 F3 71 05 01  q...q..tlb1S.q..
0050: F3 71 05 01 74 6C 62 31  00                       .q..tlb1.       
```

#### Opcodes

```
  0: 0x0009 [0x32] ExtData[1]->MainSpeed = 13* * 0.1
  1: 0x000C [0x1F] MOVE_ENTITY: EventEntity moves to X=-32.729*, Z=0.545*, Y=-9.999*
  2: 0x0014 [0x1F] MOVE_ENTITY: Update entity position (mode=1)
  3: 0x0016 [0x4A] Volker (ID: 17134004/0x010571B4) looks at Nicolaus (ID: 17134067/0x010571F3)
  4: 0x001F [0x1C] WAIT(60* ticks)
  5: 0x0022 [0x1E] EventEntity looks at Volker (ID: 17134004/0x010571B4) and starts talking
  6: 0x0027 [0x1C] WAIT(60* ticks)
  7: 0x002A [0x66] LOAD_EXT_SCHEDULER_MAIN: Load scheduler "tlb0" with entities [Nicolaus (ID: 17134067/0x010571F3), Nicolaus (ID: 17134067/0x010571F3)], work=5*
  8: 0x0039 [0x1C] WAIT(60* ticks)
  9: 0x003C [0x66] LOAD_EXT_SCHEDULER_MAIN: Load scheduler "tlb1" with entities [Nicolaus (ID: 17134067/0x010571F3), Nicolaus (ID: 17134067/0x010571F3)], work=5*
 10: 0x004B [0x53] WAIT_SCHEDULER_TASK: Wait for scheduler "tlb1" with entities [Nicolaus (ID: 17134067/0x010571F3), Nicolaus (ID: 17134067/0x010571F3)]
 11: 0x0058 [0x00] END_REQSTACK()
```

### Event 65535.2

#### Metadata

| Field        | Value    |
|--------------|----------|
| Entrypoint   | 0x0059   |
| Data Size    | 14 bytes |
| Instructions | 4        |

```
      00 01 02 03 04 05 06 07  08 09 0A 0B 0C 0D 0E 0F
      -- -- -- -- -- -- -- --  -- -- -- -- -- -- -- --
0050:                             32 00 80 1F 00 06 80           2......
0060: 07 80 03 80 1F 01 00                              .......         
```

#### Opcodes

```
  0: 0x0059 [0x32] ExtData[1]->MainSpeed = 13* * 0.1
  1: 0x005C [0x1F] MOVE_ENTITY: EventEntity moves to X=-19.636*, Z=-1.078*, Y=-9.999*
  2: 0x0064 [0x1F] MOVE_ENTITY: Update entity position (mode=1)
  3: 0x0066 [0x00] END_REQSTACK()
```

### Event 27

#### Metadata

| Field        | Value   |
|--------------|---------|
| Entrypoint   | 0x0067  |
| Data Size    | 1 bytes |
| Instructions | 1       |

```
      00 01 02 03 04 05 06 07  08 09 0A 0B 0C 0D 0E 0F
      -- -- -- -- -- -- -- --  -- -- -- -- -- -- -- --
0060:                      00                                  .        
```

#### Opcodes

```
  0: 0x0067 [0x00] END_REQSTACK()
```

### Event 65535.3

#### Metadata

| Field        | Value    |
|--------------|----------|
| Entrypoint   | 0x0068   |
| Data Size    | 19 bytes |
| Instructions | 5        |

```
      00 01 02 03 04 05 06 07  08 09 0A 0B 0C 0D 0E 0F
      -- -- -- -- -- -- -- --  -- -- -- -- -- -- -- --
0060:                          32 00 80 1F 00 08 80 09          2.......
0070: 80 0A 80 1F 01 1E F0 FF  FF 7F 00                 ...........     
```

#### Opcodes

```
  0: 0x0068 [0x32] ExtData[1]->MainSpeed = 13* * 0.1
  1: 0x006B [0x1F] MOVE_ENTITY: EventEntity moves to X=-25.004*, Z=1.147*, Y=-10.000*
  2: 0x0073 [0x1F] MOVE_ENTITY: Update entity position (mode=1)
  3: 0x0075 [0x1E] EventEntity looks at LocalPlayer and starts talking
  4: 0x007A [0x00] END_REQSTACK()
```

### Event 30

#### Metadata

| Field        | Value   |
|--------------|---------|
| Entrypoint   | 0x007B  |
| Data Size    | 1 bytes |
| Instructions | 1       |

```
      00 01 02 03 04 05 06 07  08 09 0A 0B 0C 0D 0E 0F
      -- -- -- -- -- -- -- --  -- -- -- -- -- -- -- --
0070:                                   00                         .    
```

#### Opcodes

```
  0: 0x007B [0x00] END_REQSTACK()
```

### Event 65535.4

#### Metadata

| Field        | Value    |
|--------------|----------|
| Entrypoint   | 0x007C   |
| Data Size    | 22 bytes |
| Instructions | 6        |

```
      00 01 02 03 04 05 06 07  08 09 0A 0B 0C 0D 0E 0F
      -- -- -- -- -- -- -- --  -- -- -- -- -- -- -- --
0070:                                      32 00 80 1F              2...
0080: 00 0B 80 0C 80 0D 80 1F  01 1E F0 FF FF 7F 1C 0E  ................
0090: 80 00                                             ..              
```

#### Opcodes

```
  0: 0x007C [0x32] ExtData[1]->MainSpeed = 13* * 0.1
  1: 0x007F [0x1F] MOVE_ENTITY: EventEntity moves to X=-204.143*, Z=0.478*, Y=-9.998*
  2: 0x0087 [0x1F] MOVE_ENTITY: Update entity position (mode=1)
  3: 0x0089 [0x1E] EventEntity looks at LocalPlayer and starts talking
  4: 0x008E [0x1C] WAIT(30* ticks)
  5: 0x0091 [0x00] END_REQSTACK()
```

### Event 65535.5

#### Metadata

| Field        | Value    |
|--------------|----------|
| Entrypoint   | 0x0092   |
| Data Size    | 22 bytes |
| Instructions | 6        |

```
      00 01 02 03 04 05 06 07  08 09 0A 0B 0C 0D 0E 0F
      -- -- -- -- -- -- -- --  -- -- -- -- -- -- -- --
0090:       32 00 80 1F 00 0F  80 10 80 11 80 1F 01 1E    2.............
00A0: F2 71 05 01 1C 0E 80 00                           .q......        
```

#### Opcodes

```
  0: 0x0092 [0x32] ExtData[1]->MainSpeed = 13* * 0.1
  1: 0x0095 [0x1F] MOVE_ENTITY: EventEntity moves to X=95.795*, Z=10.747*, Y=-20.185*
  2: 0x009D [0x1F] MOVE_ENTITY: Update entity position (mode=1)
  3: 0x009F [0x1E] EventEntity looks at Klara (ID: 17134066/0x010571F2) and starts talking
  4: 0x00A4 [0x1C] WAIT(30* ticks)
  5: 0x00A7 [0x00] END_REQSTACK()
```

### Event 34

#### Metadata

| Field        | Value   |
|--------------|---------|
| Entrypoint   | 0x00A8  |
| Data Size    | 1 bytes |
| Instructions | 1       |

```
      00 01 02 03 04 05 06 07  08 09 0A 0B 0C 0D 0E 0F
      -- -- -- -- -- -- -- --  -- -- -- -- -- -- -- --
00A0:                          00                               .       
```

#### Opcodes

```
  0: 0x00A8 [0x00] END_REQSTACK()
```

### Event 65535.6

#### Metadata

| Field        | Value    |
|--------------|----------|
| Entrypoint   | 0x00A9   |
| Data Size    | 22 bytes |
| Instructions | 6        |

```
      00 01 02 03 04 05 06 07  08 09 0A 0B 0C 0D 0E 0F
      -- -- -- -- -- -- -- --  -- -- -- -- -- -- -- --
00A0:                             32 12 80 1F 00 13 80           2......
00B0: 14 80 15 80 1F 01 1E F1  71 05 01 1C 0E 80 00     ........q...... 
```

#### Opcodes

```
  0: 0x00A9 [0x32] ExtData[1]->MainSpeed = 40* * 0.1
  1: 0x00AC [0x1F] MOVE_ENTITY: EventEntity moves to X=88.843*, Z=11.711*, Y=-20.170*
  2: 0x00B4 [0x1F] MOVE_ENTITY: Update entity position (mode=1)
  3: 0x00B6 [0x1E] EventEntity looks at Prien (ID: 17134065/0x010571F1) and starts talking
  4: 0x00BB [0x1C] WAIT(30* ticks)
  5: 0x00BE [0x00] END_REQSTACK()
```

### Event 65535.7

#### Metadata

| Field        | Value   |
|--------------|---------|
| Entrypoint   | 0x00BF  |
| Data Size    | 4 bytes |
| Instructions | 2       |

```
      00 01 02 03 04 05 06 07  08 09 0A 0B 0C 0D 0E 0F
      -- -- -- -- -- -- -- --  -- -- -- -- -- -- -- --
00B0:                                               95                 .
00C0: 16 80 00                                          ...             
```

#### Opcodes

```
  0: 0x00BF [0x95] SETUP_EVENT_NPC: Prepare NPC for event (Render.Flags3 = 0*)
  1: 0x00C2 [0x00] END_REQSTACK()
```

### Event 65535.8

#### Metadata

| Field        | Value   |
|--------------|---------|
| Entrypoint   | 0x00C3  |
| Data Size    | 2 bytes |
| Instructions | 2       |

```
      00 01 02 03 04 05 06 07  08 09 0A 0B 0C 0D 0E 0F
      -- -- -- -- -- -- -- --  -- -- -- -- -- -- -- --
00C0:          96 00                                       ..           
```

#### Opcodes

```
  0: 0x00C3 [0x96] UNSET_EVENT_NPC: Restore NPC after event (removes event NPC status)
  1: 0x00C4 [0x00] END_REQSTACK()
```

### Event 56

#### Metadata

| Field        | Value   |
|--------------|---------|
| Entrypoint   | 0x00C5  |
| Data Size    | 7 bytes |
| Instructions | 2       |

```
      00 01 02 03 04 05 06 07  08 09 0A 0B 0C 0D 0E 0F
      -- -- -- -- -- -- -- --  -- -- -- -- -- -- -- --
00C0:                92 01 F8  FF FF 7F 00                   .......    
```

#### Opcodes

```
  0: 0x00C5 [0x92] EventEntity->Render.Flags3 ^= 0x01
  1: 0x00CB [0x00] END_REQSTACK()
```

### Event 65535.9

#### Metadata

| Field        | Value    |
|--------------|----------|
| Entrypoint   | 0x00CC   |
| Data Size    | 14 bytes |
| Instructions | 4        |

```
      00 01 02 03 04 05 06 07  08 09 0A 0B 0C 0D 0E 0F
      -- -- -- -- -- -- -- --  -- -- -- -- -- -- -- --
00C0:                                      32 00 80 1F              2...
00D0: 00 17 80 18 80 19 80 1F  01 00                    ..........      
```

#### Opcodes

```
  0: 0x00CC [0x32] ExtData[1]->MainSpeed = 13* * 0.1
  1: 0x00CF [0x1F] MOVE_ENTITY: EventEntity moves to X=-280.125*, Z=-91.916*, Y=-12.000*
  2: 0x00D7 [0x1F] MOVE_ENTITY: Update entity position (mode=1)
  3: 0x00D9 [0x00] END_REQSTACK()
```

### Event 65535.10

#### Metadata

| Field        | Value    |
|--------------|----------|
| Entrypoint   | 0x00DA   |
| Data Size    | 23 bytes |
| Instructions | 7        |

```
      00 01 02 03 04 05 06 07  08 09 0A 0B 0C 0D 0E 0F
      -- -- -- -- -- -- -- --  -- -- -- -- -- -- -- --
00D0:                                32 00 80 1F 00 1A            2.....
00E0: 80 1B 80 19 80 1F 01 6F  1E F4 71 05 01 1C 0E 80  .......o..q.....
00F0: 00                                                .               
```

#### Opcodes

```
  0: 0x00DA [0x32] ExtData[1]->MainSpeed = 13* * 0.1
  1: 0x00DD [0x1F] MOVE_ENTITY: EventEntity moves to X=-277.808*, Z=-94.671*, Y=-12.000*
  2: 0x00E5 [0x1F] MOVE_ENTITY: Update entity position (mode=1)
  3: 0x00E7 [0x6F] WAIT_FRAME_DELAY: Yield until WaitTime reaches zero
  4: 0x00E8 [0x1E] EventEntity looks at Five Moons (ID: 17134068/0x010571F4) and starts talking
  5: 0x00ED [0x1C] WAIT(30* ticks)
  6: 0x00F0 [0x00] END_REQSTACK()
```

### Event 65535.11

#### Metadata

| Field        | Value    |
|--------------|----------|
| Entrypoint   | 0x00F1   |
| Data Size    | 22 bytes |
| Instructions | 6        |

```
      00 01 02 03 04 05 06 07  08 09 0A 0B 0C 0D 0E 0F
      -- -- -- -- -- -- -- --  -- -- -- -- -- -- -- --
00F0:    32 00 80 1F 00 1C 80  1D 80 19 80 1F 01 1E F0   2..............
0100: FF FF 7F 1C 0E 80 00                              .......         
```

#### Opcodes

```
  0: 0x00F1 [0x32] ExtData[1]->MainSpeed = 13* * 0.1
  1: 0x00F4 [0x1F] MOVE_ENTITY: EventEntity moves to X=-277.892*, Z=-92.420*, Y=-12.000*
  2: 0x00FC [0x1F] MOVE_ENTITY: Update entity position (mode=1)
  3: 0x00FE [0x1E] EventEntity looks at LocalPlayer and starts talking
  4: 0x0103 [0x1C] WAIT(30* ticks)
  5: 0x0106 [0x00] END_REQSTACK()
```

### Event 65535.12

#### Metadata

| Field        | Value    |
|--------------|----------|
| Entrypoint   | 0x0107   |
| Data Size    | 37 bytes |
| Instructions | 5        |

```
      00 01 02 03 04 05 06 07  08 09 0A 0B 0C 0D 0E 0F
      -- -- -- -- -- -- -- --  -- -- -- -- -- -- -- --
0100:                      66  16 80 F3 71 05 01 F3 71         f...q...q
0110: 05 01 74 65 6E 30 53 F3  71 05 01 F3 71 05 01 74  ..ten0S.q...q..t
0120: 65 6E 30 1E B3 71 05 01  1C 0E 80 00              en0..q......    
```

#### Opcodes

```
  0: 0x0107 [0x66] LOAD_EXT_SCHEDULER_MAIN: Load scheduler "ten0" with entities [Nicolaus (ID: 17134067/0x010571F3), Nicolaus (ID: 17134067/0x010571F3)], work=0*
  1: 0x0116 [0x53] WAIT_SCHEDULER_TASK: Wait for scheduler "ten0" with entities [Nicolaus (ID: 17134067/0x010571F3), Nicolaus (ID: 17134067/0x010571F3)]
  2: 0x0123 [0x1E] EventEntity looks at Zeid (ID: 17134003/0x010571B3) and starts talking
  3: 0x0128 [0x1C] WAIT(30* ticks)
  4: 0x012B [0x00] END_REQSTACK()
```

### Event 65535.13

#### Metadata

| Field        | Value    |
|--------------|----------|
| Entrypoint   | 0x012C   |
| Data Size    | 14 bytes |
| Instructions | 4        |

```
      00 01 02 03 04 05 06 07  08 09 0A 0B 0C 0D 0E 0F
      -- -- -- -- -- -- -- --  -- -- -- -- -- -- -- --
0120:                                      32 00 80 1F              2...
0130: 00 1E 80 1F 80 20 80 1F  01 00                    ..... ....      
```

#### Opcodes

```
  0: 0x012C [0x32] ExtData[1]->MainSpeed = 13* * 0.1
  1: 0x012F [0x1F] MOVE_ENTITY: EventEntity moves to X=-283.621*, Z=-89.181*, Y=-11.999*
  2: 0x0137 [0x1F] MOVE_ENTITY: Update entity position (mode=1)
  3: 0x0139 [0x00] END_REQSTACK()
```

### Event 57

#### Metadata

| Field        | Value   |
|--------------|---------|
| Entrypoint   | 0x013A  |
| Data Size    | 7 bytes |
| Instructions | 2       |

```
      00 01 02 03 04 05 06 07  08 09 0A 0B 0C 0D 0E 0F
      -- -- -- -- -- -- -- --  -- -- -- -- -- -- -- --
0130:                                92 01 F8 FF FF 7F            ......
0140: 00                                                .               
```

#### Opcodes

```
  0: 0x013A [0x92] EventEntity->Render.Flags3 ^= 0x01
  1: 0x0140 [0x00] END_REQSTACK()
```

### Event 60

#### Metadata

| Field        | Value   |
|--------------|---------|
| Entrypoint   | 0x0141  |
| Data Size    | 7 bytes |
| Instructions | 2       |

```
      00 01 02 03 04 05 06 07  08 09 0A 0B 0C 0D 0E 0F
      -- -- -- -- -- -- -- --  -- -- -- -- -- -- -- --
0140:    92 01 F8 FF FF 7F 00                            .......        
```

#### Opcodes

```
  0: 0x0141 [0x92] EventEntity->Render.Flags3 ^= 0x01
  1: 0x0147 [0x00] END_REQSTACK()
```

### Event 77

#### Metadata

| Field        | Value   |
|--------------|---------|
| Entrypoint   | 0x0148  |
| Data Size    | 7 bytes |
| Instructions | 2       |

```
      00 01 02 03 04 05 06 07  08 09 0A 0B 0C 0D 0E 0F
      -- -- -- -- -- -- -- --  -- -- -- -- -- -- -- --
0140:                          92 01 F8 FF FF 7F 00             ....... 
```

#### Opcodes

```
  0: 0x0148 [0x92] EventEntity->Render.Flags3 ^= 0x01
  1: 0x014E [0x00] END_REQSTACK()
```

### Event 65535.14

#### Metadata

| Field        | Value    |
|--------------|----------|
| Entrypoint   | 0x014F   |
| Data Size    | 19 bytes |
| Instructions | 5        |

```
      00 01 02 03 04 05 06 07  08 09 0A 0B 0C 0D 0E 0F
      -- -- -- -- -- -- -- --  -- -- -- -- -- -- -- --
0140:                                               32                 2
0150: 12 80 1F 00 21 80 22 80  0D 80 1F 01 1E B4 71 05  ....!.".......q.
0160: 01 00                                             ..              
```

#### Opcodes

```
  0: 0x014F [0x32] ExtData[1]->MainSpeed = 40* * 0.1
  1: 0x0152 [0x1F] MOVE_ENTITY: EventEntity moves to X=-198.230*, Z=-1.785*, Y=-9.998*
  2: 0x015A [0x1F] MOVE_ENTITY: Update entity position (mode=1)
  3: 0x015C [0x1E] EventEntity looks at Volker (ID: 17134004/0x010571B4) and starts talking
  4: 0x0161 [0x00] END_REQSTACK()
```

### Event 65535.15

#### Metadata

| Field        | Value    |
|--------------|----------|
| Entrypoint   | 0x0162   |
| Data Size    | 30 bytes |
| Instructions | 6        |

```
      00 01 02 03 04 05 06 07  08 09 0A 0B 0C 0D 0E 0F
      -- -- -- -- -- -- -- --  -- -- -- -- -- -- -- --
0160:       32 00 80 1F 00 23  80 24 80 0D 80 1F 01 6F    2....#.$.....o
0170: 66 16 80 F3 71 05 01 F3  71 05 01 74 6C 6B 30 00  f...q...q..tlk0.
```

#### Opcodes

```
  0: 0x0162 [0x32] ExtData[1]->MainSpeed = 13* * 0.1
  1: 0x0165 [0x1F] MOVE_ENTITY: EventEntity moves to X=-198.224*, Z=-3.406*, Y=-9.998*
  2: 0x016D [0x1F] MOVE_ENTITY: Update entity position (mode=1)
  3: 0x016F [0x6F] WAIT_FRAME_DELAY: Yield until WaitTime reaches zero
  4: 0x0170 [0x66] LOAD_EXT_SCHEDULER_MAIN: Load scheduler "tlk0" with entities [Nicolaus (ID: 17134067/0x010571F3), Nicolaus (ID: 17134067/0x010571F3)], work=0*
  5: 0x017F [0x00] END_REQSTACK()
```

### Event 65535.16

#### Metadata

| Field        | Value    |
|--------------|----------|
| Entrypoint   | 0x0180   |
| Data Size    | 14 bytes |
| Instructions | 4        |

```
      00 01 02 03 04 05 06 07  08 09 0A 0B 0C 0D 0E 0F
      -- -- -- -- -- -- -- --  -- -- -- -- -- -- -- --
0180: 32 12 80 1F 00 25 80 26  80 03 80 1F 01 00        2....%.&......  
```

#### Opcodes

```
  0: 0x0180 [0x32] ExtData[1]->MainSpeed = 40* * 0.1
  1: 0x0183 [0x1F] MOVE_ENTITY: EventEntity moves to X=-198.864*, Z=-17.868*, Y=-9.999*
  2: 0x018B [0x1F] MOVE_ENTITY: Update entity position (mode=1)
  3: 0x018D [0x00] END_REQSTACK()
```

### Event 78

#### Metadata

| Field        | Value   |
|--------------|---------|
| Entrypoint   | 0x018E  |
| Data Size    | 7 bytes |
| Instructions | 2       |

```
      00 01 02 03 04 05 06 07  08 09 0A 0B 0C 0D 0E 0F
      -- -- -- -- -- -- -- --  -- -- -- -- -- -- -- --
0180:                                            92 01                ..
0190: F8 FF FF 7F 00                                    .....           
```

#### Opcodes

```
  0: 0x018E [0x92] EventEntity->Render.Flags3 ^= 0x01
  1: 0x0194 [0x00] END_REQSTACK()
```

### Event 65

#### Metadata

| Field        | Value   |
|--------------|---------|
| Entrypoint   | 0x0195  |
| Data Size    | 7 bytes |
| Instructions | 2       |

```
      00 01 02 03 04 05 06 07  08 09 0A 0B 0C 0D 0E 0F
      -- -- -- -- -- -- -- --  -- -- -- -- -- -- -- --
0190:                92 01 F8  FF FF 7F 00                   .......    
```

#### Opcodes

```
  0: 0x0195 [0x92] EventEntity->Render.Flags3 ^= 0x01
  1: 0x019B [0x00] END_REQSTACK()
```

### Event 46

#### Metadata

| Field        | Value   |
|--------------|---------|
| Entrypoint   | 0x019C  |
| Data Size    | 1 bytes |
| Instructions | 1       |

```
      00 01 02 03 04 05 06 07  08 09 0A 0B 0C 0D 0E 0F
      -- -- -- -- -- -- -- --  -- -- -- -- -- -- -- --
0190:                                      00                       .   
```

#### Opcodes

```
  0: 0x019C [0x00] END_REQSTACK()
```

### Event 65535.17

#### Metadata

| Field        | Value    |
|--------------|----------|
| Entrypoint   | 0x019D   |
| Data Size    | 15 bytes |
| Instructions | 5        |

```
      00 01 02 03 04 05 06 07  08 09 0A 0B 0C 0D 0E 0F
      -- -- -- -- -- -- -- --  -- -- -- -- -- -- -- --
0190:                                         32 27 80               2'.
01A0: 1F 00 28 80 29 80 0D 80  1F 01 6F 00              ..(.).....o.    
```

#### Opcodes

```
  0: 0x019D [0x32] ExtData[1]->MainSpeed = 11* * 0.1
  1: 0x01A0 [0x1F] MOVE_ENTITY: EventEntity moves to X=-201.965*, Z=-1.279*, Y=-9.998*
  2: 0x01A8 [0x1F] MOVE_ENTITY: Update entity position (mode=1)
  3: 0x01AA [0x6F] WAIT_FRAME_DELAY: Yield until WaitTime reaches zero
  4: 0x01AB [0x00] END_REQSTACK()
```

### Event 65535.18

#### Metadata

| Field        | Value    |
|--------------|----------|
| Entrypoint   | 0x01AC   |
| Data Size    | 15 bytes |
| Instructions | 5        |

```
      00 01 02 03 04 05 06 07  08 09 0A 0B 0C 0D 0E 0F
      -- -- -- -- -- -- -- --  -- -- -- -- -- -- -- --
01A0:                                      32 2A 80 1F              2*..
01B0: 00 2B 80 2C 80 2D 80 1F  01 6F 00                 .+.,.-...o.     
```

#### Opcodes

```
  0: 0x01AC [0x32] ExtData[1]->MainSpeed = 10* * 0.1
  1: 0x01AF [0x1F] MOVE_ENTITY: EventEntity moves to X=-318.755*, Z=-177.391*, Y=-15.948*
  2: 0x01B7 [0x1F] MOVE_ENTITY: Update entity position (mode=1)
  3: 0x01B9 [0x6F] WAIT_FRAME_DELAY: Yield until WaitTime reaches zero
  4: 0x01BA [0x00] END_REQSTACK()
```

### Event 65535.19

#### Metadata

| Field        | Value    |
|--------------|----------|
| Entrypoint   | 0x01BB   |
| Data Size    | 15 bytes |
| Instructions | 5        |

```
      00 01 02 03 04 05 06 07  08 09 0A 0B 0C 0D 0E 0F
      -- -- -- -- -- -- -- --  -- -- -- -- -- -- -- --
01B0:                                   32 2A 80 1F 00             2*...
01C0: 2E 80 2F 80 0D 80 1F 01  6F 00                    ../.....o.      
```

#### Opcodes

```
  0: 0x01BB [0x32] ExtData[1]->MainSpeed = 10* * 0.1
  1: 0x01BE [0x1F] MOVE_ENTITY: EventEntity moves to X=-202.690*, Z=0.420*, Y=-9.998*
  2: 0x01C6 [0x1F] MOVE_ENTITY: Update entity position (mode=1)
  3: 0x01C8 [0x6F] WAIT_FRAME_DELAY: Yield until WaitTime reaches zero
  4: 0x01C9 [0x00] END_REQSTACK()
```

### Event 66

#### Metadata

| Field        | Value   |
|--------------|---------|
| Entrypoint   | 0x01CA  |
| Data Size    | 1 bytes |
| Instructions | 1       |

```
      00 01 02 03 04 05 06 07  08 09 0A 0B 0C 0D 0E 0F
      -- -- -- -- -- -- -- --  -- -- -- -- -- -- -- --
01C0:                                00                           .     
```

#### Opcodes

```
  0: 0x01CA [0x00] END_REQSTACK()
```

### Event 65535.20

#### Metadata

| Field        | Value    |
|--------------|----------|
| Entrypoint   | 0x01CB   |
| Data Size    | 12 bytes |
| Instructions | 4        |

```
      00 01 02 03 04 05 06 07  08 09 0A 0B 0C 0D 0E 0F
      -- -- -- -- -- -- -- --  -- -- -- -- -- -- -- --
01C0:                                   1F 00 30 80 31             ..0.1
01D0: 80 11 80 1F 01 6F 00                              .....o.         
```

#### Opcodes

```
  0: 0x01CB [0x1F] MOVE_ENTITY: EventEntity moves to X=95.166*, Z=14.811*, Y=-20.185*
  1: 0x01D3 [0x1F] MOVE_ENTITY: Update entity position (mode=1)
  2: 0x01D5 [0x6F] WAIT_FRAME_DELAY: Yield until WaitTime reaches zero
  3: 0x01D6 [0x00] END_REQSTACK()
```

### Event 65535.21

#### Metadata

| Field        | Value    |
|--------------|----------|
| Entrypoint   | 0x01D7   |
| Data Size    | 25 bytes |
| Instructions | 7        |

```
      00 01 02 03 04 05 06 07  08 09 0A 0B 0C 0D 0E 0F
      -- -- -- -- -- -- -- --  -- -- -- -- -- -- -- --
01D0:                      1F  00 32 80 33 80 15 80 1F         ..2.3....
01E0: 01 6F 1C 34 80 1F 00 35  80 36 80 15 80 1F 01 00  .o.4...5.6......
```

#### Opcodes

```
  0: 0x01D7 [0x1F] MOVE_ENTITY: EventEntity moves to X=89.674*, Z=9.845*, Y=-20.170*
  1: 0x01DF [0x1F] MOVE_ENTITY: Update entity position (mode=1)
  2: 0x01E1 [0x6F] WAIT_FRAME_DELAY: Yield until WaitTime reaches zero
  3: 0x01E2 [0x1C] WAIT(80* ticks)
  4: 0x01E5 [0x1F] MOVE_ENTITY: EventEntity moves to X=88.406*, Z=4.206*, Y=-20.170*
  5: 0x01ED [0x1F] MOVE_ENTITY: Update entity position (mode=1)
  6: 0x01EF [0x00] END_REQSTACK()
```

### Event 71

#### Metadata

| Field        | Value    |
|--------------|----------|
| Entrypoint   | 0x01F0   |
| Data Size    | 10 bytes |
| Instructions | 3        |

```
      00 01 02 03 04 05 06 07  08 09 0A 0B 0C 0D 0E 0F
      -- -- -- -- -- -- -- --  -- -- -- -- -- -- -- --
01F0: 92 01 F8 FF FF 7F 95 16  80 00                    ..........      
```

#### Opcodes

```
  0: 0x01F0 [0x92] EventEntity->Render.Flags3 ^= 0x01
  1: 0x01F6 [0x95] SETUP_EVENT_NPC: Prepare NPC for event (Render.Flags3 = 0*)
  2: 0x01F9 [0x00] END_REQSTACK()
```

### Event 65535.22

#### Metadata

| Field        | Value    |
|--------------|----------|
| Entrypoint   | 0x01FA   |
| Data Size    | 14 bytes |
| Instructions | 4        |

```
      00 01 02 03 04 05 06 07  08 09 0A 0B 0C 0D 0E 0F
      -- -- -- -- -- -- -- --  -- -- -- -- -- -- -- --
01F0:                                32 12 80 1F 00 37            2....7
0200: 80 38 80 15 80 1F 01 00                           .8......        
```

#### Opcodes

```
  0: 0x01FA [0x32] ExtData[1]->MainSpeed = 40* * 0.1
  1: 0x01FD [0x1F] MOVE_ENTITY: EventEntity moves to X=112.638*, Z=-9.113*, Y=-20.170*
  2: 0x0205 [0x1F] MOVE_ENTITY: Update entity position (mode=1)
  3: 0x0207 [0x00] END_REQSTACK()
```

### Event 65535.23

#### Metadata

| Field        | Value    |
|--------------|----------|
| Entrypoint   | 0x0208   |
| Data Size    | 52 bytes |
| Instructions | 10       |

```
      00 01 02 03 04 05 06 07  08 09 0A 0B 0C 0D 0E 0F
      -- -- -- -- -- -- -- --  -- -- -- -- -- -- -- --
0200:                          32 12 80 1F 00 39 80 3A          2....9.:
0210: 80 15 80 1F 01 1F 00 3B  80 3C 80 3D 80 1F 01 4B  .......;.<.=...K
0220: F8 FF FF 7F 3E 80 1C 0E  80 66 3F 80 F8 FF FF 7F  ....>....f?.....
0230: F8 FF FF 7F 73 68 61 30  1C 0E 80 00              ....sha0....    
```

#### Opcodes

```
  0: 0x0208 [0x32] ExtData[1]->MainSpeed = 40* * 0.1
  1: 0x020B [0x1F] MOVE_ENTITY: EventEntity moves to X=109.842*, Z=-10.025*, Y=-20.170*
  2: 0x0213 [0x1F] MOVE_ENTITY: Update entity position (mode=1)
  3: 0x0215 [0x1F] MOVE_ENTITY: EventEntity moves to X=108.575*, Z=-8.914*, Y=-20.193*
  4: 0x021D [0x1F] MOVE_ENTITY: Update entity position (mode=1)
  5: 0x021F [0x4B] UPDATE_ENTITY_YAW(entity=EventEntity, yaw=21.6°*)
  6: 0x0226 [0x1C] WAIT(30* ticks)
  7: 0x0229 [0x66] LOAD_EXT_SCHEDULER_MAIN: Load scheduler "sha0" with entities [EventEntity, EventEntity], work=9*
  8: 0x0238 [0x1C] WAIT(30* ticks)
  9: 0x023B [0x00] END_REQSTACK()
```

### Event 65535.24

#### Metadata

| Field        | Value   |
|--------------|---------|
| Entrypoint   | 0x023C  |
| Data Size    | 2 bytes |
| Instructions | 2       |

```
      00 01 02 03 04 05 06 07  08 09 0A 0B 0C 0D 0E 0F
      -- -- -- -- -- -- -- --  -- -- -- -- -- -- -- --
0230:                                      96 00                    ..  
```

#### Opcodes

```
  0: 0x023C [0x96] UNSET_EVENT_NPC: Restore NPC after event (removes event NPC status)
  1: 0x023D [0x00] END_REQSTACK()
```

### Event 216

#### Metadata

| Field        | Value   |
|--------------|---------|
| Entrypoint   | 0x023E  |
| Data Size    | 7 bytes |
| Instructions | 2       |

```
      00 01 02 03 04 05 06 07  08 09 0A 0B 0C 0D 0E 0F
      -- -- -- -- -- -- -- --  -- -- -- -- -- -- -- --
0230:                                            92 01                ..
0240: F8 FF FF 7F 00                                    .....           
```

#### Opcodes

```
  0: 0x023E [0x92] EventEntity->Render.Flags3 ^= 0x01
  1: 0x0244 [0x00] END_REQSTACK()
```
