# 17134054 - Paul

## Common Data

| Field            | Value                       |
|------------------|-----------------------------|
| Zone             | Bastok Markets [S] (ID: 87) |
| Block Size       | 240 bytes                   |
| Total Events     | 4                           |
| References Count | 13                          |

## List of Events

| Event ID              | Entrypoint   |   Size |   Instructions |
|-----------------------|--------------|--------|----------------|
| [65535](#event-65535) | 0x0000       |      1 |              1 |
| [153](#event-153)     | 0x0001       |     37 |             11 |
| [193](#event-193)     | 0x0026       |     82 |             22 |
| [196](#event-196)     | 0x0078       |     33 |              9 |

## DAT References (imed_data)

|   Index | Hex Value   |   Dec Value |
|---------|-------------|-------------|
|       0 | 0x001E      |          30 |
|       1 | 0x0009      |           9 |
|       2 | 0x3026      |       12326 |
|       3 | 0x3027      |       12327 |
|       4 | 0x3028      |       12328 |
|       5 | 0x0015      |          21 |
|       6 | 0x3375      |       13173 |
|       7 | 0x001D      |          29 |
|       8 | 0x3376      |       13174 |
|       9 | 0x0000      |           0 |
|      10 | 0x3377      |       13175 |
|      11 | 0x3378      |       13176 |
|      12 | 0x3379      |       13177 |

## String References

- **12326**: You've heard what they say, that the heat of combat will make you see things you've never seen before?
- **12327**: It's true... In battle I saw a...horrific monster. Not like any of the other beastmen. Covered in mangy black and white fur...
- **12328**: At first, I thought it some kind of wicked Mithra. But no... That was no Mithra!
- **13173**: D-did I hear you right!? You're asking me what I know about Darksteel Hurricane!?
- **13174**: Wh-what's the big idea, inviting death to my door with a conversation topic like that!? "Sorry" won't cut it if I end up being the next to lie in a pool of my own blood!
- **13175**: What? You promise to catch him before he can lay a finger on me, you say? A-alright then... But you didn't hear this from me, are we clear?
- **13176**: He is said to wield a great sword with fearsome proficiency.
- **13177**: I dare not imagine how much blood has been spilt in order to quench his blade's insatiable thirst...

## Events

### Event 65535

#### Metadata

| Field        | Value   |
|--------------|---------|
| Entrypoint   | 0x0000  |
| Data Size    | 1 bytes |
| Instructions | 1       |

```
      00 01 02 03 04 05 06 07  08 09 0A 0B 0C 0D 0E 0F
      -- -- -- -- -- -- -- --  -- -- -- -- -- -- -- --
0000: 00                                                .               
```

#### Opcodes

```
  0: 0x0000 [0x00] END_REQSTACK()
```

### Event 153

#### Metadata

| Field        | Value    |
|--------------|----------|
| Entrypoint   | 0x0001   |
| Data Size    | 37 bytes |
| Instructions | 11       |

```
      00 01 02 03 04 05 06 07  08 09 0A 0B 0C 0D 0E 0F
      -- -- -- -- -- -- -- --  -- -- -- -- -- -- -- --
0000:    1E F0 FF FF 7F 1C 00  80 66 01 80 F8 FF FF 7F   ........f......
0010: F8 FF FF 7F 74 6C 6B 30  1D 02 80 23 1D 03 80 23  ....tlk0...#...#
0020: 1D 04 80 23 21 00                                 ...#!.          
```

#### Opcodes

```
  0: 0x0001 [0x1E] EventEntity looks at LocalPlayer and starts talking
  1: 0x0006 [0x1C] WAIT(30* ticks)
  2: 0x0009 [0x66] LOAD_EXT_SCHEDULER_MAIN: Load scheduler "tlk0" with entities [EventEntity, EventEntity], work=9*
  3: 0x0018 [0x1D] PRINT_EVENT_MESSAGE(message_id=12326*)
    → "You've heard what they say, that the heat of combat will make you see things you've never seen before?"
  4: 0x001B [0x23] WAIT_FOR_DIALOG_INTERACTION
  5: 0x001C [0x1D] PRINT_EVENT_MESSAGE(message_id=12327*)
    → "It's true... In battle I saw a...horrific monster. Not like any of the other beastmen. Covered in mangy black and white fur..."
  6: 0x001F [0x23] WAIT_FOR_DIALOG_INTERACTION
  7: 0x0020 [0x1D] PRINT_EVENT_MESSAGE(message_id=12328*)
    → "At first, I thought it some kind of wicked Mithra. But no... That was no Mithra!"
  8: 0x0023 [0x23] WAIT_FOR_DIALOG_INTERACTION
  9: 0x0024 [0x21] END_EVENT
 10: 0x0025 [0x00] END_REQSTACK()
```

### Event 193

#### Metadata

| Field        | Value    |
|--------------|----------|
| Entrypoint   | 0x0026   |
| Data Size    | 82 bytes |
| Instructions | 22       |

```
      00 01 02 03 04 05 06 07  08 09 0A 0B 0C 0D 0E 0F
      -- -- -- -- -- -- -- --  -- -- -- -- -- -- -- --
0020:                   42 1E  F0 FF FF 7F 1C 00 80 6E        B........n
0030: F8 FF FF 7F 05 80 99 F8  FF FF 7F 1D 06 80 23 6E  ..............#n
0040: F8 FF FF 7F 07 80 99 F8  FF FF 7F 1D 08 80 23 6E  ..............#n
0050: F8 FF FF 7F 09 80 99 F8  FF FF 7F 1D 0A 80 23 66  ..............#f
0060: 01 80 F8 FF FF 7F F8 FF  FF 7F 74 6C 6B 30 1D 0B  ..........tlk0..
0070: 80 23 1D 0C 80 23 21 00                           .#...#!.        
```

#### Opcodes

```
  0: 0x0026 [0x42] SET_CLI_EVENT_CANCEL_DATA()
  1: 0x0027 [0x1E] EventEntity looks at LocalPlayer and starts talking
  2: 0x002C [0x1C] WAIT(30* ticks)
  3: 0x002F [0x6E] EventEntity uses emote 21*
  4: 0x0036 [0x99] Wait for EventEntity animation to complete
  5: 0x003B [0x1D] PRINT_EVENT_MESSAGE(message_id=13173*)
    → "D-did I hear you right!? You're asking me what I know about Darksteel Hurricane!?"
  6: 0x003E [0x23] WAIT_FOR_DIALOG_INTERACTION
  7: 0x003F [0x6E] EventEntity uses emote 29*
  8: 0x0046 [0x99] Wait for EventEntity animation to complete
  9: 0x004B [0x1D] PRINT_EVENT_MESSAGE(message_id=13174*)
    → "Wh-what's the big idea, inviting death to my door with a conversation topic like that!? "Sorry" won't cut it if I end up being the next to lie in a pool of my own blood!"
 10: 0x004E [0x23] WAIT_FOR_DIALOG_INTERACTION
 11: 0x004F [0x6E] EventEntity uses emote 0*
 12: 0x0056 [0x99] Wait for EventEntity animation to complete
 13: 0x005B [0x1D] PRINT_EVENT_MESSAGE(message_id=13175*)
    → "What? You promise to catch him before he can lay a finger on me, you say? A-alright then... But you didn't hear this from me, are we clear?"
 14: 0x005E [0x23] WAIT_FOR_DIALOG_INTERACTION
 15: 0x005F [0x66] LOAD_EXT_SCHEDULER_MAIN: Load scheduler "tlk0" with entities [EventEntity, EventEntity], work=9*
 16: 0x006E [0x1D] PRINT_EVENT_MESSAGE(message_id=13176*)
    → "He is said to wield a great sword with fearsome proficiency."
 17: 0x0071 [0x23] WAIT_FOR_DIALOG_INTERACTION
 18: 0x0072 [0x1D] PRINT_EVENT_MESSAGE(message_id=13177*)
    → "I dare not imagine how much blood has been spilt in order to quench his blade's insatiable thirst..."
 19: 0x0075 [0x23] WAIT_FOR_DIALOG_INTERACTION
 20: 0x0076 [0x21] END_EVENT
 21: 0x0077 [0x00] END_REQSTACK()
```

### Event 196

#### Metadata

| Field        | Value    |
|--------------|----------|
| Entrypoint   | 0x0078   |
| Data Size    | 33 bytes |
| Instructions | 9        |

```
      00 01 02 03 04 05 06 07  08 09 0A 0B 0C 0D 0E 0F
      -- -- -- -- -- -- -- --  -- -- -- -- -- -- -- --
0070:                          1E F0 FF FF 7F 1C 00 80          ........
0080: 66 01 80 F8 FF FF 7F F8  FF FF 7F 74 6C 6B 30 1D  f..........tlk0.
0090: 0B 80 23 1D 0C 80 23 21  00                       ..#...#!.       
```

#### Opcodes

```
  0: 0x0078 [0x1E] EventEntity looks at LocalPlayer and starts talking
  1: 0x007D [0x1C] WAIT(30* ticks)
  2: 0x0080 [0x66] LOAD_EXT_SCHEDULER_MAIN: Load scheduler "tlk0" with entities [EventEntity, EventEntity], work=9*
  3: 0x008F [0x1D] PRINT_EVENT_MESSAGE(message_id=13176*)
    → "He is said to wield a great sword with fearsome proficiency."
  4: 0x0092 [0x23] WAIT_FOR_DIALOG_INTERACTION
  5: 0x0093 [0x1D] PRINT_EVENT_MESSAGE(message_id=13177*)
    → "I dare not imagine how much blood has been spilt in order to quench his blade's insatiable thirst..."
  6: 0x0096 [0x23] WAIT_FOR_DIALOG_INTERACTION
  7: 0x0097 [0x21] END_EVENT
  8: 0x0098 [0x00] END_REQSTACK()
```
