# 17134220

## Common Data

| Field            | Value                       |
|------------------|-----------------------------|
| Zone             | Bastok Markets [S] (ID: 87) |
| Block Size       | 23968 bytes                 |
| Total Events     | 8                           |
| References Count | 493                         |

## List of Events

| Event ID                 | Entrypoint   |   Size |   Instructions |
|--------------------------|--------------|--------|----------------|
| [65535](#event-65535)    | 0x0000       |      1 |              1 |
| [78](#event-78)          | 0x0001       |      3 |              2 |
| [65535.1](#event-655351) | 0x0004       |     40 |              7 |
| [65535.2](#event-655352) | 0x002C       |      6 |              2 |
| [71](#event-71)          | 0x0032       |   7321 |            756 |
| [179](#event-179)        | 0x1CCB       |   2312 |            274 |
| [183](#event-183)        | 0x25D3       |   6320 |            648 |
| [184](#event-184)        | 0x3E83       |   5942 |            638 |

## DAT References (imed_data)

|   Index | Hex Value   |   Dec Value |
|---------|-------------|-------------|
|       0 | 0x0046      |          70 |
|       1 | 0x0000      |           0 |
|       2 | 0x016C      |         364 |
|       3 | 0x008C      |         140 |
|       4 | 0x0001      |           1 |
|       5 | 0x00B4      |         180 |
|       6 | 0x00C8      |         200 |
|       7 | 0x001B      |          27 |
|       8 | 0xFFFCF0F2  |  4294766834 |
|       9 | 0x2B82      |       11138 |
|      10 | 0xFFFFD8F2  |  4294957298 |
|      11 | 0x03CD      |         973 |
|      12 | 0x0190      |         400 |
|      13 | 0x000F      |          15 |
|      14 | 0x0064      |         100 |
|      15 | 0x001E      |          30 |
|      16 | 0x340F      |       13327 |
|      17 | 0x0050      |          80 |
|      18 | 0x0028      |          40 |
|      19 | 0x0045      |          69 |
|      20 | 0x3410      |       13328 |
|      21 | 0x00ED      |         237 |
|      22 | 0x00FF      |         255 |
|      23 | 0x0130      |         304 |
|      24 | 0x1C09B     |      114843 |
|      25 | 0xFFFFF5B7  |  4294964663 |
|      26 | 0xFFFFB136  |  4294947126 |
|      27 | 0x045D      |        1117 |
|      28 | 0x1BE04     |      114180 |
|      29 | 0xFFFFFB95  |  4294966165 |
|      30 | 0x042D      |        1069 |
|      31 | 0x19E56     |      106070 |
|      32 | 0xFFFFCA62  |  4294953570 |
|      33 | 0xFFFFB12E  |  4294947118 |
|      34 | 0x0C44      |        3140 |
|      35 | 0x007F      |         127 |
|      36 | 0x0512      |        1298 |
|      37 | 0x0843      |        2115 |
|      38 | 0x05DA      |        1498 |
|      39 | 0x006D      |         109 |
|      40 | 0x006E      |         110 |
|      41 | 0x0005      |           5 |
|      42 | 0x0078      |         120 |
|      43 | 0x3411      |       13329 |
|      44 | 0x00F4      |         244 |
|      45 | 0x3412      |       13330 |
|      46 | 0x3414      |       13332 |
|      47 | 0x0542      |        1346 |
|      48 | 0x3415      |       13333 |
|      49 | 0x3416      |       13334 |
|      50 | 0x3417      |       13335 |
|      51 | 0x3418      |       13336 |
|      52 | 0x3419      |       13337 |
|      53 | 0x3400      |       13312 |
|      54 | 0x341A      |       13338 |
|      55 | 0x341B      |       13339 |
|      56 | 0x341C      |       13340 |
|      57 | 0x341D      |       13341 |
|      58 | 0x0543      |        1347 |
|      59 | 0x00F3      |         243 |
|      60 | 0x341E      |       13342 |
|      61 | 0x341F      |       13343 |
|      62 | 0x3420      |       13344 |
|      63 | 0x3421      |       13345 |
|      64 | 0x3422      |       13346 |
|      65 | 0x1A1DF     |      106975 |
|      66 | 0xFFFFD50A  |  4294956298 |
|      67 | 0x04D1      |        1233 |
|      68 | 0x3423      |       13347 |
|      69 | 0x0CCA      |        3274 |
|      70 | 0x3424      |       13348 |
|      71 | 0x0842      |        2114 |
|      72 | 0x3425      |       13349 |
|      73 | 0x004B      |          75 |
|      74 | 0x3426      |       13350 |
|      75 | 0x00FA      |         250 |
|      76 | 0x3427      |       13351 |
|      77 | 0x1A18C     |      106892 |
|      78 | 0xFFFFDFB5  |  4294959029 |
|      79 | 0xFFFFB11F  |  4294947103 |
|      80 | 0x03E4      |         996 |
|      81 | 0x3428      |       13352 |
|      82 | 0x0910      |        2320 |
|      83 | 0x000A      |          10 |
|      84 | 0x3429      |       13353 |
|      85 | 0x30CC      |       12492 |
|      86 | 0x342A      |       13354 |
|      87 | 0x003C      |          60 |
|      88 | 0x327E      |       12926 |
|      89 | 0x0953      |        2387 |
|      90 | 0x0096      |         150 |
|      91 | 0x1BD21     |      113953 |
|      92 | 0xFFFFDED5  |  4294958805 |
|      93 | 0x06A9      |        1705 |
|      94 | 0x00CA      |         202 |
|      95 | 0x342B      |       13355 |
|      96 | 0x0829      |        2089 |
|      97 | 0x0023      |          35 |
|      98 | 0x005A      |          90 |
|      99 | 0x0014      |          20 |
|     100 | 0x342C      |       13356 |
|     101 | 0x0844      |        2116 |
|     102 | 0x342D      |       13357 |
|     103 | 0x09D6      |        2518 |
|     104 | 0x0015      |          21 |
|     105 | 0x1A426     |      107558 |
|     106 | 0xFFFFDF20  |  4294958880 |
|     107 | 0x0F5D      |        3933 |
|     108 | 0x342F      |       13359 |
|     109 | 0x3430      |       13360 |
|     110 | 0x3431      |       13361 |
|     111 | 0x0845      |        2117 |
|     112 | 0x3432      |       13362 |
|     113 | 0x3433      |       13363 |
|     114 | 0x0032      |          50 |
|     115 | 0x00C9      |         201 |
|     116 | 0x1A1F9     |      107001 |
|     117 | 0xFFFFD5BD  |  4294956477 |
|     118 | 0x1BCE0     |      113888 |
|     119 | 0xFFFFEFB1  |  4294963121 |
|     120 | 0x03FF      |        1023 |
|     121 | 0x1C1E1     |      115169 |
|     122 | 0xFFFFF7D1  |  4294965201 |
|     123 | 0x3434      |       13364 |
|     124 | 0x3435      |       13365 |
|     125 | 0x3436      |       13366 |
|     126 | 0x3437      |       13367 |
|     127 | 0x097D      |        2429 |
|     128 | 0x3438      |       13368 |
|     129 | 0x3439      |       13369 |
|     130 | 0x0A79      |        2681 |
|     131 | 0x343A      |       13370 |
|     132 | 0x343B      |       13371 |
|     133 | 0x343C      |       13372 |
|     134 | 0x343D      |       13373 |
|     135 | 0x343E      |       13374 |
|     136 | 0x0911      |        2321 |
|     137 | 0x19CB8     |      105656 |
|     138 | 0xFFFFC9D9  |  4294953433 |
|     139 | 0x043B      |        1083 |
|     140 | 0x1A552     |      107858 |
|     141 | 0xFFFFCEC6  |  4294954694 |
|     142 | 0x19AFE     |      105214 |
|     143 | 0xFFFFD443  |  4294956099 |
|     144 | 0x1A26F     |      107119 |
|     145 | 0xFFFFDB65  |  4294957925 |
|     146 | 0x0CED      |        3309 |
|     147 | 0x19C51     |      105553 |
|     148 | 0xFFFFE0AD  |  4294959277 |
|     149 | 0x0010      |          16 |
|     150 | 0x15242     |       86594 |
|     151 | 0x007B      |         123 |
|     152 | 0xFFFFB3B4  |  4294947764 |
|     153 | 0x00B8      |         184 |
|     154 | 0x15A81     |       88705 |
|     155 | 0x161B      |        5659 |
|     156 | 0xFFFFB138  |  4294947128 |
|     157 | 0x037A      |         890 |
|     158 | 0x15948     |       88392 |
|     159 | 0x1D6A      |        7530 |
|     160 | 0x0503      |        1283 |
|     161 | 0x15C66     |       89190 |
|     162 | 0x1EB3      |        7859 |
|     163 | 0x047E      |        1150 |
|     164 | 0x343F      |       13375 |
|     165 | 0x3440      |       13376 |
|     166 | 0x3441      |       13377 |
|     167 | 0x0903      |        2307 |
|     168 | 0x3442      |       13378 |
|     169 | 0x3443      |       13379 |
|     170 | 0x1B8E3     |      112867 |
|     171 | 0xFFFFDC82  |  4294958210 |
|     172 | 0x082A      |        2090 |
|     173 | 0x1BC7B     |      113787 |
|     174 | 0xFFFFDE7D  |  4294958717 |
|     175 | 0x1BC6E     |      113774 |
|     176 | 0xFFFFDA9B  |  4294957723 |
|     177 | 0x3444      |       13380 |
|     178 | 0x00A1      |         161 |
|     179 | 0x3445      |       13381 |
|     180 | 0x035E      |         862 |
|     181 | 0x3446      |       13382 |
|     182 | 0x0057      |          87 |
|     183 | 0xFFFCEE8E  |  4294766222 |
|     184 | 0x0372      |         882 |
|     185 | 0x08A3      |        2211 |
|     186 | 0x3447      |       13383 |
|     187 | 0x3448      |       13384 |
|     188 | 0x3449      |       13385 |
|     189 | 0x344A      |       13386 |
|     190 | 0xFFFD246E  |  4294780014 |
|     191 | 0x12B4B     |       76619 |
|     192 | 0xFFFFF061  |  4294963297 |
|     193 | 0xFFFD6783  |  4294797187 |
|     194 | 0x12991     |       76177 |
|     195 | 0x0818      |        2072 |
|     196 | 0xFFFC6DF2  |  4294733298 |
|     197 | 0x16C12     |       93202 |
|     198 | 0x03FC      |        1020 |
|     199 | 0xFFFC7C77  |  4294737015 |
|     200 | 0x11FF8     |       73720 |
|     201 | 0x0E52      |        3666 |
|     202 | 0xFFFC83D0  |  4294738896 |
|     203 | 0x1230B     |       74507 |
|     204 | 0x064E      |        1614 |
|     205 | 0x04F6      |        1270 |
|     206 | 0x08F5      |        2293 |
|     207 | 0x0009      |           9 |
|     208 | 0x018F      |         399 |
|     209 | 0x335E      |       13150 |
|     210 | 0x001D      |          29 |
|     211 | 0x335F      |       13151 |
|     212 | 0x0007      |           7 |
|     213 | 0x3360      |       13152 |
|     214 | 0xFFFD1EE2  |  4294778594 |
|     215 | 0x10310     |       66320 |
|     216 | 0x0C9C      |        3228 |
|     217 | 0xFFFD252F  |  4294780207 |
|     218 | 0x10B09     |       68361 |
|     219 | 0x0C39      |        3129 |
|     220 | 0xFFFD1CBC  |  4294778044 |
|     221 | 0x10907     |       67847 |
|     222 | 0x0BF4      |        3060 |
|     223 | 0x3361      |       13153 |
|     224 | 0x3362      |       13154 |
|     225 | 0x3363      |       13155 |
|     226 | 0x00F0      |         240 |
|     227 | 0xFFFD4722  |  4294788898 |
|     228 | 0x12E7D     |       77437 |
|     229 | 0xFFFFF060  |  4294963296 |
|     230 | 0x007E      |         126 |
|     231 | 0xFFFD44C9  |  4294788297 |
|     232 | 0x126BB     |       75451 |
|     233 | 0x00D2      |         210 |
|     234 | 0x3364      |       13156 |
|     235 | 0x3365      |       13157 |
|     236 | 0x3366      |       13158 |
|     237 | 0x3367      |       13159 |
|     238 | 0x3368      |       13160 |
|     239 | 0xFFFD56F2  |  4294792946 |
|     240 | 0x12992     |       76178 |
|     241 | 0x0C9D      |        3229 |
|     242 | 0xFFFD5FFA  |  4294795258 |
|     243 | 0x12681     |       75393 |
|     244 | 0xFFFD5CFF  |  4294794495 |
|     245 | 0x12E9E     |       77470 |
|     246 | 0xFFFD3068  |  4294783080 |
|     247 | 0x12044     |       73796 |
|     248 | 0x0876      |        2166 |
|     249 | 0xFFFD283C  |  4294780988 |
|     250 | 0x11D59     |       73049 |
|     251 | 0x0087      |         135 |
|     252 | 0xFFFD276A  |  4294780778 |
|     253 | 0x11922     |       71970 |
|     254 | 0x0E4C      |        3660 |
|     255 | 0xFFFD1C87  |  4294777991 |
|     256 | 0x11A7D     |       72317 |
|     257 | 0x0F36      |        3894 |
|     258 | 0xFFFD2700  |  4294780672 |
|     259 | 0x1317B     |       78203 |
|     260 | 0xFFFD2F22  |  4294782754 |
|     261 | 0x1242E     |       74798 |
|     262 | 0xFFFD20AC  |  4294779052 |
|     263 | 0x1253D     |       75069 |
|     264 | 0xFFFD2084  |  4294779012 |
|     265 | 0x1209F     |       73887 |
|     266 | 0xFFFD2D56  |  4294782294 |
|     267 | 0x12CBA     |       76986 |
|     268 | 0xFFFD2FB8  |  4294782904 |
|     269 | 0x128F4     |       76020 |
|     270 | 0x0069      |         105 |
|     271 | 0x000E      |          14 |
|     272 | 0x3369      |       13161 |
|     273 | 0x336A      |       13162 |
|     274 | 0x336B      |       13163 |
|     275 | 0x07FF      |        2047 |
|     276 | 0x336C      |       13164 |
|     277 | 0x0021      |          33 |
|     278 | 0x336D      |       13165 |
|     279 | 0x0F8A      |        3978 |
|     280 | 0x336E      |       13166 |
|     281 | 0x0102      |         258 |
|     282 | 0x336F      |       13167 |
|     283 | 0x0013      |          19 |
|     284 | 0xFFFB45A5  |  4294657445 |
|     285 | 0xFFFF4C9F  |  4294921375 |
|     286 | 0xFFFFD121  |  4294955297 |
|     287 | 0x0BF7      |        3063 |
|     288 | 0xFFFB45C0  |  4294657472 |
|     289 | 0xFFFF58D9  |  4294924505 |
|     290 | 0x03E0      |         992 |
|     291 | 0xFFFB4536  |  4294657334 |
|     292 | 0xFFFF6185  |  4294926725 |
|     293 | 0x0BF8      |        3064 |
|     294 | 0xFFFF41D6  |  4294918614 |
|     295 | 0xFFFF39D3  |  4294916563 |
|     296 | 0xFFFFE890  |  4294961296 |
|     297 | 0x05DE      |        1502 |
|     298 | 0xFFFF36E4  |  4294915812 |
|     299 | 0xFFFF3A9E  |  4294916766 |
|     300 | 0x03CB      |         971 |
|     301 | 0xFFFF40A4  |  4294918308 |
|     302 | 0xFFFF2F37  |  4294913847 |
|     303 | 0x0848      |        2120 |
|     304 | 0x00A3      |         163 |
|     305 | 0x01C3      |         451 |
|     306 | 0x09EE      |        2542 |
|     307 | 0x11BF      |        4543 |
|     308 | 0x04D9      |        1241 |
|     309 | 0x0866      |        2150 |
|     310 | 0x338C      |       13196 |
|     311 | 0x000C      |          12 |
|     312 | 0x338D      |       13197 |
|     313 | 0x0BB8      |        3000 |
|     314 | 0x00D7      |         215 |
|     315 | 0x0060      |          96 |
|     316 | 0x338E      |       13198 |
|     317 | 0x00A0      |         160 |
|     318 | 0x00D8      |         216 |
|     319 | 0x338F      |       13199 |
|     320 | 0x3390      |       13200 |
|     321 | 0x3391      |       13201 |
|     322 | 0x3392      |       13202 |
|     323 | 0x007D      |         125 |
|     324 | 0x012C      |         300 |
|     325 | 0x3393      |       13203 |
|     326 | 0x0044      |          68 |
|     327 | 0x0002      |           2 |
|     328 | 0x0003      |           3 |
|     329 | 0x0004      |           4 |
|     330 | 0x0006      |           6 |
|     331 | 0x0008      |           8 |
|     332 | 0x006F      |         111 |
|     333 | 0x00DB      |         219 |
|     334 | 0x0080      |         128 |
|     335 | 0x3394      |       13204 |
|     336 | 0x000D      |          13 |
|     337 | 0xFFFF224A  |  4294910538 |
|     338 | 0xFFFF10AE  |  4294906030 |
|     339 | 0x0621      |        1569 |
|     340 | 0xFFFF3292  |  4294914706 |
|     341 | 0xFFFF3056  |  4294914134 |
|     342 | 0x0E56      |        3670 |
|     343 | 0xFFFF3338  |  4294914872 |
|     344 | 0xFFFF280E  |  4294912014 |
|     345 | 0x3395      |       13205 |
|     346 | 0x3396      |       13206 |
|     347 | 0x3397      |       13207 |
|     348 | 0x3398      |       13208 |
|     349 | 0x3399      |       13209 |
|     350 | 0x339A      |       13210 |
|     351 | 0x339B      |       13211 |
|     352 | 0x339C      |       13212 |
|     353 | 0x339D      |       13213 |
|     354 | 0x339E      |       13214 |
|     355 | 0x339F      |       13215 |
|     356 | 0x33A0      |       13216 |
|     357 | 0x33A1      |       13217 |
|     358 | 0x33A2      |       13218 |
|     359 | 0x33A3      |       13219 |
|     360 | 0x33A4      |       13220 |
|     361 | 0xFFFF3B10  |  4294916880 |
|     362 | 0xFFFF3B75  |  4294916981 |
|     363 | 0x0514      |        1300 |
|     364 | 0x33A5      |       13221 |
|     365 | 0x33A6      |       13222 |
|     366 | 0x33A7      |       13223 |
|     367 | 0x33A8      |       13224 |
|     368 | 0x33A9      |       13225 |
|     369 | 0x33AA      |       13226 |
|     370 | 0x33AB      |       13227 |
|     371 | 0x33AC      |       13228 |
|     372 | 0x33AD      |       13229 |
|     373 | 0x33AE      |       13230 |
|     374 | 0x33AF      |       13231 |
|     375 | 0x33B0      |       13232 |
|     376 | 0x33B1      |       13233 |
|     377 | 0x33B2      |       13234 |
|     378 | 0x33B3      |       13235 |
|     379 | 0x33B4      |       13236 |
|     380 | 0x33B5      |       13237 |
|     381 | 0x33B6      |       13238 |
|     382 | 0x33B7      |       13239 |
|     383 | 0x33B8      |       13240 |
|     384 | 0x33B9      |       13241 |
|     385 | 0x33BA      |       13242 |
|     386 | 0xFFFF3E2D  |  4294917677 |
|     387 | 0xFFFF38F3  |  4294916339 |
|     388 | 0x0500      |        1280 |
|     389 | 0xFFFF3C92  |  4294917266 |
|     390 | 0xFFFF2BA5  |  4294912933 |
|     391 | 0xFFFFE891  |  4294961297 |
|     392 | 0x0CF3      |        3315 |
|     393 | 0x33BB      |       13243 |
|     394 | 0x33BC      |       13244 |
|     395 | 0x33BD      |       13245 |
|     396 | 0x000B      |          11 |
|     397 | 0xFFFCF298  |  4294767256 |
|     398 | 0xFFFFF600  |  4294964736 |
|     399 | 0x09DD      |        2525 |
|     400 | 0xFFFCF1F0  |  4294767088 |
|     401 | 0xFFFFEE9E  |  4294962846 |
|     402 | 0x33BE      |       13246 |
|     403 | 0x0027      |          39 |
|     404 | 0x0031      |          49 |
|     405 | 0x003B      |          59 |
|     406 | 0x33BF      |       13247 |
|     407 | 0x0020      |          32 |
|     408 | 0x33C0      |       13248 |
|     409 | 0x0011      |          17 |
|     410 | 0x0131      |         305 |
|     411 | 0x15F62     |       89954 |
|     412 | 0x2435      |        9269 |
|     413 | 0x013B      |         315 |
|     414 | 0x15BBC     |       89020 |
|     415 | 0x2050      |        8272 |
|     416 | 0x013C      |         316 |
|     417 | 0x18051     |       98385 |
|     418 | 0x31EC      |       12780 |
|     419 | 0xFFFFB127  |  4294947111 |
|     420 | 0x07D0      |        2000 |
|     421 | 0x1849C     |       99484 |
|     422 | 0x3909      |       14601 |
|     423 | 0x05DC      |        1500 |
|     424 | 0x15A64     |       88676 |
|     425 | 0x16A2      |        5794 |
|     426 | 0x0B94      |        2964 |
|     427 | 0x15C48     |       89160 |
|     428 | 0x129D      |        4765 |
|     429 | 0x15909     |       88329 |
|     430 | 0x10A2      |        4258 |
|     431 | 0xFFFFB2DD  |  4294947549 |
|     432 | 0x18954     |      100692 |
|     433 | 0x2E87      |       11911 |
|     434 | 0x062A      |        1578 |
|     435 | 0x17A40     |       96832 |
|     436 | 0x25FD      |        9725 |
|     437 | 0x33C1      |       13249 |
|     438 | 0x33C2      |       13250 |
|     439 | 0x33C3      |       13251 |
|     440 | 0x33C4      |       13252 |
|     441 | 0x33C5      |       13253 |
|     442 | 0x33C6      |       13254 |
|     443 | 0x0053      |          83 |
|     444 | 0x33C7      |       13255 |
|     445 | 0x33C8      |       13256 |
|     446 | 0x33C9      |       13257 |
|     447 | 0x188B9     |      100537 |
|     448 | 0x32B5      |       12981 |
|     449 | 0x0533      |        1331 |
|     450 | 0x33CB      |       13259 |
|     451 | 0x33CC      |       13260 |
|     452 | 0x33CD      |       13261 |
|     453 | 0x33CE      |       13262 |
|     454 | 0x33CF      |       13263 |
|     455 | 0x33D0      |       13264 |
|     456 | 0x0155      |         341 |
|     457 | 0x1682D     |       92205 |
|     458 | 0x2709      |        9993 |
|     459 | 0x0F43      |        3907 |
|     460 | 0x160A3     |       90275 |
|     461 | 0x243F      |        9279 |
|     462 | 0x06CF      |        1743 |
|     463 | 0x15562     |       87394 |
|     464 | 0x2A9E      |       10910 |
|     465 | 0x33D1      |       13265 |
|     466 | 0x33D2      |       13266 |
|     467 | 0x33D3      |       13267 |
|     468 | 0x33D4      |       13268 |
|     469 | 0x33D5      |       13269 |
|     470 | 0x33D6      |       13270 |
|     471 | 0x33D7      |       13271 |
|     472 | 0x33D8      |       13272 |
|     473 | 0x33D9      |       13273 |
|     474 | 0x33DA      |       13274 |
|     475 | 0x33DB      |       13275 |
|     476 | 0x33DC      |       13276 |
|     477 | 0x33DD      |       13277 |
|     478 | 0x16A68     |       92776 |
|     479 | 0x26A4      |        9892 |
|     480 | 0x07C3      |        1987 |
|     481 | 0x1665B     |       91739 |
|     482 | 0x2320      |        8992 |
|     483 | 0x16337     |       90935 |
|     484 | 0x2560      |        9568 |
|     485 | 0x33DE      |       13278 |
|     486 | 0x33E0      |       13280 |
|     487 | 0x33E1      |       13281 |
|     488 | 0x0544      |        1348 |
|     489 | 0x33E2      |       13282 |
|     490 | 0x0574      |        1396 |
|     491 | 0x0024      |          36 |
|     492 | 0x33E4      |       13284 |

## String References

- **13201**: Blatherix plucks out a single strand of hair from inside his ear!

## Events

### Event 65535

#### Metadata

| Field        | Value   |
|--------------|---------|
| Entrypoint   | 0x0000  |
| Data Size    | 1 bytes |
| Instructions | 1       |

```
      00 01 02 03 04 05 06 07  08 09 0A 0B 0C 0D 0E 0F
      -- -- -- -- -- -- -- --  -- -- -- -- -- -- -- --
0000: 00                                                .               
```

#### Opcodes

```
  0: 0x0000 [0x00] END_REQSTACK()
```

### Event 78

#### Metadata

| Field        | Value   |
|--------------|---------|
| Entrypoint   | 0x0001  |
| Data Size    | 3 bytes |
| Instructions | 2       |

```
      00 01 02 03 04 05 06 07  08 09 0A 0B 0C 0D 0E 0F
      -- -- -- -- -- -- -- --  -- -- -- -- -- -- -- --
0000:    33 01 00                                        3..            
```

#### Opcodes

```
  0: 0x0001 [0x33] EventEntity->Render.Flags0 |= 0x200000 // Bit 21 (flag=0x01)
  1: 0x0003 [0x00] END_REQSTACK()
```

### Event 65535.1

#### Metadata

| Field        | Value    |
|--------------|----------|
| Entrypoint   | 0x0004   |
| Data Size    | 40 bytes |
| Instructions | 7        |

```
      00 01 02 03 04 05 06 07  08 09 0A 0B 0C 0D 0E 0F
      -- -- -- -- -- -- -- --  -- -- -- -- -- -- -- --
0000:             1C 00 80 03  00 00 01 80 02 00 00 01      ............
0010: 80 00 2B 00 45 02 80 F8  FF FF 7F F8 FF FF 7F 6B  ..+.E..........k
0020: 65 6E 33 01 80 1C 03 80  01 0C 00 00              en3.........    
```

#### Opcodes

```
  0: 0x0004 [0x1C] WAIT(70* ticks)
  1: 0x0007 [0x03] ExtData[1]->WorkLocal[0] = 0*
  2: 0x000C [0x02] IF !(ExtData[1]->WorkLocal[0] == 0*) GOTO 0x002B
  3: 0x0014 [0x45] LOAD_SCHEDULED_TASK: Load scheduler "ken3" with entities [EventEntity, EventEntity], work=[364*, 0*]
  4: 0x0025 [0x1C] WAIT(140* ticks)
  5: 0x0028 [0x01] GOTO 0x000C
  6: 0x002B [0x00] END_REQSTACK()
```

### Event 65535.2

#### Metadata

| Field        | Value   |
|--------------|---------|
| Entrypoint   | 0x002C  |
| Data Size    | 6 bytes |
| Instructions | 2       |

```
      00 01 02 03 04 05 06 07  08 09 0A 0B 0C 0D 0E 0F
      -- -- -- -- -- -- -- --  -- -- -- -- -- -- -- --
0020:                                      03 00 00 04              ....
0030: 80 00                                             ..              
```

#### Opcodes

```
  0: 0x002C [0x03] ExtData[1]->WorkLocal[0] = 1*
  1: 0x0031 [0x00] END_REQSTACK()
```

### Event 71

#### Metadata

| Field        | Value      |
|--------------|------------|
| Entrypoint   | 0x0032     |
| Data Size    | 7321 bytes |
| Instructions | 756        |

```
      00 01 02 03 04 05 06 07  08 09 0A 0B 0C 0D 0E 0F
      -- -- -- -- -- -- -- --  -- -- -- -- -- -- -- --
0030:       42 5D 01 80 05 80  45 06 80 F8 FF FF 7F F8    B]....E.......
0040: FF FF 7F 66 64 6F 31 01  80 55 06 80 F8 FF FF 7F  ...fdo1..U......
0050: F8 FF FF 7F 66 64 6F 31  46 01 38 07 80 92 01 D7  ....fdo1F.8.....
0060: 71 05 01 BA F0 FF FF 7F  08 80 09 80 0A 80 0B 80  q...............
0070: 80 F0 FF FF 7F 80 D7 71  05 01 27 05 F0 FF FF 7F  .......q..'.....
0080: 3A 45 0C 80 F8 FF FF 7F  F8 FF FF 7F 73 30 32 37  :E..........s027
0090: 01 80 1C 0D 80 45 06 80  F8 FF FF 7F F8 FF FF 7F  .....E..........
00A0: 66 64 69 31 01 80 1C 0E  80 52 0C 80 F8 FF FF 7F  fdi1.....R......
00B0: F8 FF FF 7F 73 30 32 37  45 0C 80 F8 FF FF 7F F8  ....s027E.......
00C0: FF FF 7F 73 30 32 38 01  80 4A D7 71 05 01 F0 FF  ...s028..J.q....
00D0: FF 7F 1C 0F 80 2B D7 71  05 01 10 80 23 2A 05 F0  .....+.q....#*..
00E0: FF FF 7F 52 0C 80 F8 FF  FF 7F F8 FF FF 7F 73 30  ...R..........s0
00F0: 32 38 45 0C 80 F8 FF FF  7F F8 FF FF 7F 73 30 32  28E..........s02
0100: 39 01 80 27 03 F0 FF FF  7F 3E 1C 11 80 27 05 F0  9..'.....>...'..
0110: FF FF 7F 3F 1C 12 80 52  0C 80 F8 FF FF 7F F8 FF  ...?...R........
0120: FF 7F 73 30 32 39 45 0C  80 F8 FF FF 7F F8 FF FF  ..s029E.........
0130: 7F 73 30 33 30 01 80 66  13 80 D7 71 05 01 D7 71  .s030..f...q...q
0140: 05 01 74 6C 6B 30 2B D7  71 05 01 14 80 23 45 06  ..tlk0+.q....#E.
0150: 80 F8 FF FF 7F F8 FF FF  7F 66 64 6F 31 01 80 55  .........fdo1..U
0160: 06 80 F8 FF FF 7F F8 FF  FF 7F 66 64 6F 31 52 0C  ..........fdo1R.
0170: 80 F8 FF FF 7F F8 FF FF  7F 73 30 33 30 1C 04 80  .........s030...
0180: 34 15 80 77 16 80 04 80  1C 04 80 75 00 17 80 75  4..w.......u...u
0190: 01 2F 00 F2 71 05 01 2F  00 B3 71 05 01 2F 00 F1  ./..q../..q../..
01A0: 71 05 01 2F 00 44 72 05  01 4E 00 F2 71 05 01 4E  q../.Dr..N..q..N
01B0: 00 B3 71 05 01 4E 00 F1  71 05 01 BA F2 71 05 01  ..q..N..q....q..
01C0: 18 80 19 80 1A 80 1B 80  BA B3 71 05 01 1C 80 1D  ..........q.....
01D0: 80 1A 80 1E 80 BA F1 71  05 01 1F 80 20 80 21 80  .......q.... .!.
01E0: 22 80 80 F2 71 05 01 80  B3 71 05 01 80 F1 71 05  "...q....q....q.
01F0: 01 5C 00 23 80 5C 01 23  80 9A 5B 24 80 F1 71 05  .\.#.\.#..[$..q.
0200: 01 F1 71 05 01 64 61 69  30 5B 25 80 F2 71 05 01  ..q..dai0[%..q..
0210: F2 71 05 01 00 FE FE FE  5B 26 80 B4 71 05 01 B4  .q......[&..q...
0220: 71 05 01 00 FE FE FE C5  27 80 F2 71 05 01 F2 71  q.......'..q...q
0230: 05 01 00 FE FE FE 01 80  C5 28 80 B4 71 05 01 B4  .........(..q...
0240: 71 05 01 00 FE FE FE 01  80 27 05 F2 71 05 01 24  q........'..q..$
0250: 1C 29 80 27 05 B3 71 05  01 1D 45 0C 80 F8 FF FF  .).'..q...E.....
0260: 7F F8 FF FF 7F 73 30 33  31 01 80 1C 0D 80 45 06  .....s031.....E.
0270: 80 F8 FF FF 7F F8 FF FF  7F 66 64 69 31 01 80 55  .........fdi1..U
0280: 06 80 F8 FF FF 7F F8 FF  FF 7F 66 64 69 31 1C 2A  ..........fdi1.*
0290: 80 52 0C 80 F8 FF FF 7F  F8 FF FF 7F 73 30 33 31  .R..........s031
02A0: 45 0C 80 F8 FF FF 7F F8  FF FF 7F 73 30 33 32 01  E..........s032.
02B0: 80 2A 05 F2 71 05 01 2B  F2 71 05 01 2B 80 23 2A  .*..q..+.q..+.#*
02C0: 05 B3 71 05 01 52 0C 80  F8 FF FF 7F F8 FF FF 7F  ..q..R..........
02D0: 73 30 33 32 45 0C 80 F8  FF FF 7F F8 FF FF 7F 73  s032E..........s
02E0: 30 33 33 01 80 5B 2C 80  B3 71 05 01 B3 71 05 01  033..[,..q...q..
02F0: 74 73 62 30 2B B3 71 05  01 2D 80 23 5B 2C 80 B3  tsb0+.q..-.#[,..
0300: 71 05 01 B3 71 05 01 74  6B 62 31 1C 0D 80 4A F2  q...q..tkb1...J.
0310: 71 05 01 B3 71 05 01 1C  0F 80 52 0C 80 F8 FF FF  q...q.....R.....
0320: 7F F8 FF FF 7F 73 30 33  33 45 0C 80 F8 FF FF 7F  .....s033E......
0330: F8 FF FF 7F 73 30 33 34  01 80 2B B3 71 05 01 2E  ....s034..+.q...
0340: 80 23 5B 2F 80 F2 71 05  01 F2 71 05 01 74 6C 6B  .#[/..q...q..tlk
0350: 30 2B F2 71 05 01 30 80  23 5B 2F 80 F2 71 05 01  0+.q..0.#[/..q..
0360: F2 71 05 01 74 6C 6B 31  52 0C 80 F8 FF FF 7F F8  .q..tlk1R.......
0370: FF FF 7F 73 30 33 34 45  0C 80 F8 FF FF 7F F8 FF  ...s034E........
0380: FF 7F 73 30 33 35 01 80  2B F2 71 05 01 31 80 23  ..s035..+.q..1.#
0390: 52 0C 80 F8 FF FF 7F F8  FF FF 7F 73 30 33 35 45  R..........s035E
03A0: 0C 80 F8 FF FF 7F F8 FF  FF 7F 73 30 33 36 01 80  ..........s036..
03B0: 5B 2C 80 B3 71 05 01 B3  71 05 01 74 73 62 30 2B  [,..q...q..tsb0+
03C0: B3 71 05 01 32 80 23 2B  B3 71 05 01 33 80 23 5B  .q..2.#+.q..3.#[
03D0: 2C 80 B3 71 05 01 B3 71  05 01 74 6B 62 31 52 0C  ,..q...q..tkb1R.
03E0: 80 F8 FF FF 7F F8 FF FF  7F 73 30 33 36 45 0C 80  .........s036E..
03F0: F8 FF FF 7F F8 FF FF 7F  73 30 33 37 01 80 5B 2F  ........s037..[/
0400: 80 F2 71 05 01 F2 71 05  01 74 6C 6B 30 2B F2 71  ..q...q..tlk0+.q
0410: 05 01 34 80 23 52 0C 80  F8 FF FF 7F F8 FF FF 7F  ..4.#R..........
0420: 73 30 33 37 45 0C 80 F8  FF FF 7F F8 FF FF 7F 73  s037E..........s
0430: 30 33 38 01 80 1C 0F 80  7C 00 B3 71 05 01 2B B3  038.....|..q..+.
0440: 71 05 01 35 80 23 7C 01  B3 71 05 01 52 0C 80 F8  q..5.#|..q..R...
0450: FF FF 7F F8 FF FF 7F 73  30 33 38 45 0C 80 F8 FF  .......s038E....
0460: FF 7F F8 FF FF 7F 73 30  33 39 01 80 2B F2 71 05  ......s039..+.q.
0470: 01 36 80 23 52 0C 80 F8  FF FF 7F F8 FF FF 7F 73  .6.#R..........s
0480: 30 33 39 45 0C 80 F8 FF  FF 7F F8 FF FF 7F 73 30  039E..........s0
0490: 34 30 01 80 2B B3 71 05  01 37 80 23 52 0C 80 F8  40..+.q..7.#R...
04A0: FF FF 7F F8 FF FF 7F 73  30 34 30 45 0C 80 F8 FF  .......s040E....
04B0: FF 7F F8 FF FF 7F 73 30  34 31 01 80 27 03 A2 72  ......s041..'..r
04C0: 05 01 02 7B B3 71 05 01  7B F2 71 05 01 1C 0F 80  ...{.q..{.q.....
04D0: 27 05 F1 71 05 01 10 27  05 F2 71 05 01 25 1C 29  '..q...'..q..%.)
04E0: 80 27 05 B3 71 05 01 1E  2B F2 71 05 01 38 80 23  .'..q...+.q..8.#
04F0: 2A 05 F1 71 05 01 27 05  A2 72 05 01 03 2B F1 71  *..q..'..r...+.q
0500: 05 01 39 80 23 2A 05 B3  71 05 01 2A 05 F2 71 05  ..9.#*..q..*..q.
0510: 01 52 0C 80 F8 FF FF 7F  F8 FF FF 7F 73 30 34 32  .R..........s042
0520: 45 0C 80 F8 FF FF 7F F8  FF FF 7F 73 30 34 33 01  E..........s043.
0530: 80 5B 3A 80 F2 71 05 01  F2 71 05 01 73 68 61 30  .[:..q...q..sha0
0540: 5B 3B 80 B3 71 05 01 B3  71 05 01 68 69 7A 30 2B  [;..q...q..hiz0+
0550: F2 71 05 01 3C 80 23 5B  24 80 F1 71 05 01 F1 71  .q..<.#[$..q...q
0560: 05 01 64 61 69 32 2B F1  71 05 01 3D 80 23 53 F2  ..dai2+.q..=.#S.
0570: 71 05 01 F2 71 05 01 73  68 61 30 53 B3 71 05 01  q...q..sha0S.q..
0580: B3 71 05 01 68 69 7A 30  52 0C 80 F8 FF FF 7F F8  .q..hiz0R.......
0590: FF FF 7F 73 30 34 33 45  0C 80 F8 FF FF 7F F8 FF  ...s043E........
05A0: FF 7F 73 30 34 34 01 80  5B 3A 80 F2 71 05 01 F2  ..s044..[:..q...
05B0: 71 05 01 73 68 61 31 2B  F1 71 05 01 3E 80 23 53  q..sha1+.q..>.#S
05C0: F1 71 05 01 F1 71 05 01  64 61 69 32 53 F2 71 05  .q...q..dai2S.q.
05D0: 01 F2 71 05 01 73 68 61  31 6B 69 64 6C 30 B3 71  ..q..sha1kidl0.q
05E0: 05 01 1C 0D 80 52 0C 80  F8 FF FF 7F F8 FF FF 7F  .....R..........
05F0: 73 30 34 34 45 0C 80 F8  FF FF 7F F8 FF FF 7F 73  s044E..........s
0600: 31 34 30 01 80 2B F1 71  05 01 3F 80 23 52 0C 80  140..+.q..?.#R..
0610: F8 FF FF 7F F8 FF FF 7F  73 31 34 30 45 0C 80 F8  ........s140E...
0620: FF FF 7F F8 FF FF 7F 73  31 34 31 01 80 5B 24 80  .......s141..[$.
0630: F1 71 05 01 F1 71 05 01  64 61 69 33 2B F2 71 05  .q...q..dai3+.q.
0640: 01 40 80 23 53 F1 71 05  01 F1 71 05 01 64 61 69  .@.#S.q...q..dai
0650: 33 52 0C 80 F8 FF FF 7F  F8 FF FF 7F 73 31 34 31  3R..........s141
0660: 45 0C 80 F8 FF FF 7F F8  FF FF 7F 73 30 34 35 01  E..........s045.
0670: 80 5B 24 80 F1 71 05 01  F1 71 05 01 64 61 69 32  .[$..q...q..dai2
0680: 1C 0D 80 BA F2 71 05 01  41 80 42 80 21 80 43 80  .....q..A.B.!.C.
0690: 2B F1 71 05 01 44 80 23  80 F2 71 05 01 94 01 F2  +.q..D.#..q.....
06A0: 71 05 01 53 F1 71 05 01  F1 71 05 01 64 61 69 32  q..S.q...q..dai2
06B0: 52 0C 80 F8 FF FF 7F F8  FF FF 7F 73 30 34 35 45  R..........s045E
06C0: 0C 80 F8 FF FF 7F F8 FF  FF 7F 73 30 34 36 01 80  ..........s046..
06D0: 1C 0D 80 BA F1 71 05 01  1F 80 20 80 21 80 45 80  .....q.... .!.E.
06E0: 2B F2 71 05 01 46 80 23  80 F1 71 05 01 5B 47 80  +.q..F.#..q..[G.
06F0: F2 71 05 01 F2 71 05 01  72 61 6E 30 1C 0D 80 5D  .q...q..ran0...]
0700: 01 80 2A 80 52 0C 80 F8  FF FF 7F F8 FF FF 7F 73  ..*.R..........s
0710: 30 34 36 45 0C 80 F8 FF  FF 7F F8 FF FF 7F 73 30  046E..........s0
0720: 34 37 01 80 2B F2 71 05  01 48 80 1C 2A 80 52 0C  47..+.q..H..*.R.
0730: 80 F8 FF FF 7F F8 FF FF  7F 73 30 34 37 45 0C 80  .........s047E..
0740: F8 FF FF 7F F8 FF FF 7F  73 30 37 33 01 80 1C 49  ........s073...I
0750: 80 52 0C 80 F8 FF FF 7F  F8 FF FF 7F 73 30 37 33  .R..........s073
0760: 45 0C 80 F8 FF FF 7F F8  FF FF 7F 73 30 34 38 01  E..........s048.
0770: 80 2B F2 71 05 01 4A 80  23 53 F2 71 05 01 F2 71  .+.q..J.#S.q...q
0780: 05 01 72 61 6E 30 5C 00  4B 80 5C 01 4B 80 9A 52  ..ran0\.K.\.K..R
0790: 0C 80 F8 FF FF 7F F8 FF  FF 7F 73 30 34 38 45 0C  ..........s048E.
07A0: 80 F8 FF FF 7F F8 FF FF  7F 73 30 34 39 01 80 7C  .........s049..|
07B0: 00 B3 71 05 01 2B B3 71  05 01 4C 80 23 5B 24 80  ..q..+.q..L.#[$.
07C0: F1 71 05 01 F1 71 05 01  64 61 69 33 52 0C 80 F8  .q...q..dai3R...
07D0: FF FF 7F F8 FF FF 7F 73  30 34 39 45 0C 80 F8 FF  .......s049E....
07E0: FF 7F F8 FF FF 7F 73 30  35 30 01 80 1C 0D 80 BA  ......s050......
07F0: B3 71 05 01 4D 80 4E 80  4F 80 50 80 2B F1 71 05  .q..M.N.O.P.+.q.
0800: 01 51 80 23 80 B3 71 05  01 94 01 B3 71 05 01 5B  .Q.#..q.....q..[
0810: 52 80 B3 71 05 01 B3 71  05 01 72 61 6E 30 1C 53  R..q...q..ran0.S
0820: 80 52 0C 80 F8 FF FF 7F  F8 FF FF 7F 73 30 35 30  .R..........s050
0830: 45 0C 80 F8 FF FF 7F F8  FF FF 7F 73 30 35 31 01  E..........s051.
0840: 80 1C 12 80 52 0C 80 F8  FF FF 7F F8 FF FF 7F 73  ....R..........s
0850: 30 35 31 45 0C 80 F8 FF  FF 7F F8 FF FF 7F 73 30  051E..........s0
0860: 35 32 01 80 2B F2 71 05  01 54 80 1C 0F 80 2B B3  52..+.q..T....+.
0870: 71 05 01 55 80 23 52 0C  80 F8 FF FF 7F F8 FF FF  q..U.#R.........
0880: 7F 73 30 35 32 45 0C 80  F8 FF FF 7F F8 FF FF 7F  .s052E..........
0890: 73 30 35 33 01 80 2B F2  71 05 01 56 80 23 52 0C  s053..+.q..V.#R.
08A0: 80 F8 FF FF 7F F8 FF FF  7F 73 30 35 33 45 0C 80  .........s053E..
08B0: F8 FF FF 7F F8 FF FF 7F  73 30 35 34 01 80 1C 2A  ........s054...*
08C0: 80 52 0C 80 F8 FF FF 7F  F8 FF FF 7F 73 30 35 34  .R..........s054
08D0: 45 0C 80 F8 FF FF 7F F8  FF FF 7F 73 30 35 35 01  E..........s055.
08E0: 80 5B 52 80 B3 71 05 01  B3 71 05 01 72 61 6E 31  .[R..q...q..ran1
08F0: 1C 57 80 2B B3 71 05 01  58 80 23 53 B3 71 05 01  .W.+.q..X.#S.q..
0900: B3 71 05 01 72 61 6E 31  52 0C 80 F8 FF FF 7F F8  .q..ran1R.......
0910: FF FF 7F 73 30 35 35 45  0C 80 F8 FF FF 7F F8 FF  ...s055E........
0920: FF 7F 73 30 35 36 01 80  5B 47 80 F2 71 05 01 F2  ..s056..[G..q...
0930: 71 05 01 72 61 6E 31 5B  59 80 F1 71 05 01 F1 71  q..ran1[Y..q...q
0940: 05 01 72 61 6E 30 1C 5A  80 52 0C 80 F8 FF FF 7F  ..ran0.Z.R......
0950: F8 FF FF 7F 73 30 35 36  45 0C 80 F8 FF FF 7F F8  ....s056E.......
0960: FF FF 7F 73 30 35 37 01  80 2F 00 B4 71 05 01 4E  ...s057../..q..N
0970: 00 B4 71 05 01 BA B4 71  05 01 5B 80 5C 80 1A 80  ..q....q..[.\...
0980: 5D 80 1C 5A 80 52 0C 80  F8 FF FF 7F F8 FF FF 7F  ]..Z.R..........
0990: 73 30 35 37 45 0C 80 F8  FF FF 7F F8 FF FF 7F 73  s057E..........s
09A0: 31 30 33 01 80 27 05 A2  72 05 01 02 1C 0F 80 29  103..'..r......)
09B0: 05 B4 71 05 01 1E 5B 5E  80 B4 71 05 01 B4 71 05  ..q...[^..q...q.
09C0: 01 68 67 73 30 1C 0D 80  52 0C 80 F8 FF FF 7F F8  .hgs0...R.......
09D0: FF FF 7F 73 31 30 33 45  0C 80 F8 FF FF 7F F8 FF  ...s103E........
09E0: FF 7F 73 30 35 38 01 80  27 05 A2 72 05 01 03 2B  ..s058..'..r...+
09F0: B4 71 05 01 5F 80 23 53  B4 71 05 01 B4 71 05 01  .q.._.#S.q...q..
0A00: 68 67 73 30 52 0C 80 F8  FF FF 7F F8 FF FF 7F 73  hgs0R..........s
0A10: 30 35 38 45 0C 80 F8 FF  FF 7F F8 FF FF 7F 73 30  058E..........s0
0A20: 35 39 01 80 1C 0D 80 6B  69 64 6C 30 B4 71 05 01  59.....kidl0.q..
0A30: 1C 53 80 5B 26 80 B4 71  05 01 B4 71 05 01 72 61  .S.[&..q...q..ra
0A40: 6E 30 5B 59 80 F1 71 05  01 F1 71 05 01 72 61 6E  n0[Y..q...q..ran
0A50: 31 1C 0D 80 27 05 F1 71  05 01 0F BA B4 71 05 01  1...'..q.....q..
0A60: 41 80 42 80 21 80 43 80  BA F1 71 05 01 41 80 42  A.B.!.C...q..A.B
0A70: 80 21 80 43 80 BA F0 FF  FF 7F 5B 80 5C 80 1A 80  .!.C......[.\...
0A80: 60 80 80 B4 71 05 01 94  01 B4 71 05 01 94 01 F1  `...q.....q.....
0A90: 71 05 01 1C 49 80 5B 25  80 F2 71 05 01 F2 71 05  q...I.[%..q...q.
0AA0: 01 72 61 6E 32 5B 26 80  B4 71 05 01 B4 71 05 01  .ran2[&..q...q..
0AB0: 72 61 6E 31 C5 27 80 F2  71 05 01 F2 71 05 01 73  ran1.'..q...q..s
0AC0: 30 30 30 01 80 1C 29 80  52 0C 80 F8 FF FF 7F F8  000...).R.......
0AD0: FF FF 7F 73 30 35 39 45  0C 80 F8 FF FF 7F F8 FF  ...s059E........
0AE0: FF 7F 73 31 33 31 01 80  1C 61 80 52 0C 80 F8 FF  ..s131...a.R....
0AF0: FF 7F F8 FF FF 7F 73 31  33 31 45 0C 80 F8 FF FF  ......s131E.....
0B00: 7F F8 FF FF 7F 73 31 33  32 01 80 1C 2A 80 52 0C  .....s132...*.R.
0B10: 80 F8 FF FF 7F F8 FF FF  7F 73 31 33 32 45 0C 80  .........s132E..
0B20: F8 FF FF 7F F8 FF FF 7F  73 30 36 32 01 80 1C 62  ........s062...b
0B30: 80 52 0C 80 F8 FF FF 7F  F8 FF FF 7F 73 30 36 32  .R..........s062
0B40: 45 0C 80 F8 FF FF 7F F8  FF FF 7F 73 30 37 34 01  E..........s074.
0B50: 80 1C 12 80 52 0C 80 F8  FF FF 7F F8 FF FF 7F 73  ....R..........s
0B60: 30 37 34 45 0C 80 F8 FF  FF 7F F8 FF FF 7F 73 30  074E..........s0
0B70: 36 34 01 80 1C 4B 80 C5  28 80 B4 71 05 01 B4 71  64...K..(..q...q
0B80: 05 01 73 30 30 30 01 80  5B 25 80 F2 71 05 01 F2  ..s000..[%..q...
0B90: 71 05 01 72 61 6E 34 C5  27 80 F2 71 05 01 F2 71  q..ran4.'..q...q
0BA0: 05 01 73 30 30 31 01 80  1C 53 80 52 0C 80 F8 FF  ..s001...S.R....
0BB0: FF 7F F8 FF FF 7F 73 30  36 34 45 0C 80 F8 FF FF  ......s064E.....
0BC0: 7F F8 FF FF 7F 73 30 36  33 01 80 1C 12 80 52 0C  .....s063.....R.
0BD0: 80 F8 FF FF 7F F8 FF FF  7F 73 30 36 33 45 0C 80  .........s063E..
0BE0: F8 FF FF 7F F8 FF FF 7F  73 30 36 36 01 80 1C 12  ........s066....
0BF0: 80 52 0C 80 F8 FF FF 7F  F8 FF FF 7F 73 30 36 36  .R..........s066
0C00: 45 0C 80 F8 FF FF 7F F8  FF FF 7F 73 30 36 35 01  E..........s065.
0C10: 80 1C 0F 80 9F 23 80 F8  FF FF 7F F8 FF FF 7F 73  .....#.........s
0C20: 74 72 30 01 80 1C 63 80  9F 23 80 F8 FF FF 7F F8  tr0...c..#......
0C30: FF FF 7F 6B 69 6C 6C 01  80 1C 12 80 52 0C 80 F8  ...kill.....R...
0C40: FF FF 7F F8 FF FF 7F 73  30 36 35 45 0C 80 F8 FF  .......s065E....
0C50: FF 7F F8 FF FF 7F 73 30  38 33 01 80 1C 62 80 79  ......s083...b.y
0C60: 00 B3 71 05 01 F2 71 05  01 1C 0F 80 52 0C 80 F8  ..q...q.....R...
0C70: FF FF 7F F8 FF FF 7F 73  30 38 33 45 0C 80 F8 FF  .......s083E....
0C80: FF 7F F8 FF FF 7F 73 30  36 37 01 80 2B B3 71 05  ......s067..+.q.
0C90: 01 64 80 23 7C 01 B3 71  05 01 52 0C 80 F8 FF FF  .d.#|..q..R.....
0CA0: 7F F8 FF FF 7F 73 30 36  37 45 0C 80 F8 FF FF 7F  .....s067E......
0CB0: F8 FF FF 7F 73 30 36 38  01 80 5B 65 80 F2 71 05  ....s068..[e..q.
0CC0: 01 F2 71 05 01 72 61 6E  35 7B B3 71 05 01 2B F2  ..q..ran5{.q..+.
0CD0: 71 05 01 66 80 23 53 F2  71 05 01 F2 71 05 01 72  q..f.#S.q...q..r
0CE0: 61 6E 35 52 0C 80 F8 FF  FF 7F F8 FF FF 7F 73 30  an5R..........s0
0CF0: 36 38 45 0C 80 F8 FF FF  7F F8 FF FF 7F 73 30 36  68E..........s06
0D00: 39 01 80 1C 2A 80 52 0C  80 F8 FF FF 7F F8 FF FF  9...*.R.........
0D10: 7F 73 30 36 39 45 0C 80  F8 FF FF 7F F8 FF FF 7F  .s069E..........
0D20: 73 30 37 30 01 80 27 05  A2 72 05 01 02 1C 0F 80  s070..'..r......
0D30: 29 05 F0 FF FF 7F 3B 4B  F0 FF FF 7F 67 80 79 00  ).....;K....g.y.
0D40: F0 FF FF 7F B4 71 05 01  1C 0F 80 6E F0 FF FF 7F  .....q.....n....
0D50: 68 80 99 F0 FF FF 7F 1C  0E 80 52 0C 80 F8 FF FF  h.........R.....
0D60: 7F F8 FF FF 7F 73 30 37  30 45 0C 80 F8 FF FF 7F  .....s070E......
0D70: F8 FF FF 7F 73 30 37 31  01 80 5B 65 80 F2 71 05  ....s071..[e..q.
0D80: 01 F2 71 05 01 72 61 6E  36 1C 0E 80 5B 59 80 F1  ..q..ran6...[Y..
0D90: 71 05 01 F1 71 05 01 72  61 6E 32 1C 11 80 52 0C  q...q..ran2...R.
0DA0: 80 F8 FF FF 7F F8 FF FF  7F 73 30 37 31 45 0C 80  .........s071E..
0DB0: F8 FF FF 7F F8 FF FF 7F  73 30 37 32 01 80 27 05  ........s072..'.
0DC0: A2 72 05 01 03 1C 0D 80  BA F0 FF FF 7F 69 80 6A  .r...........i.j
0DD0: 80 4F 80 6B 80 27 05 F0  FF FF 7F 14 5B 65 80 F2  .O.k.'......[e..
0DE0: 71 05 01 F2 71 05 01 72  61 6E 37 2B F1 71 05 01  q...q..ran7+.q..
0DF0: 6C 80 23 53 F1 71 05 01  F1 71 05 01 72 61 6E 32  l.#S.q...q..ran2
0E00: 52 0C 80 F8 FF FF 7F F8  FF FF 7F 73 30 37 32 45  R..........s072E
0E10: 0C 80 F8 FF FF 7F F8 FF  FF 7F 73 30 37 35 01 80  ..........s075..
0E20: 5B 59 80 F1 71 05 01 F1  71 05 01 72 61 61 32 1C  [Y..q...q..raa2.
0E30: 0D 80 2B F1 71 05 01 6D  80 1C 0E 80 5B 65 80 F2  ..+.q..m....[e..
0E40: 71 05 01 F2 71 05 01 72  61 6E 38 5B 59 80 F1 71  q...q..ran8[Y..q
0E50: 05 01 F1 71 05 01 72 61  6E 33 1C 0F 80 52 0C 80  ...q..ran3...R..
0E60: F8 FF FF 7F F8 FF FF 7F  73 30 37 35 45 0C 80 F8  ........s075E...
0E70: FF FF 7F F8 FF FF 7F 73  30 37 36 01 80 1C 0F 80  .......s076.....
0E80: 2B F1 71 05 01 6E 80 1C  0F 80 45 0C 80 F8 FF FF  +.q..n....E.....
0E90: 7F F8 FF FF 7F 73 30 37  37 01 80 1C 62 80 52 0C  .....s077...b.R.
0EA0: 80 F8 FF FF 7F F8 FF FF  7F 73 30 37 36 45 0C 80  .........s076E..
0EB0: F8 FF FF 7F F8 FF FF 7F  73 30 39 37 01 80 53 F1  ........s097..S.
0EC0: 71 05 01 F1 71 05 01 72  61 6E 33 52 0C 80 F8 FF  q...q..ran3R....
0ED0: FF 7F F8 FF FF 7F 73 30  39 37 45 0C 80 F8 FF FF  ......s097E.....
0EE0: 7F F8 FF FF 7F 73 30 37  38 01 80 5B 6F 80 F2 71  .....s078..[o..q
0EF0: 05 01 F2 71 05 01 72 61  6E 39 5B 59 80 F1 71 05  ...q..ran9[Y..q.
0F00: 01 F1 71 05 01 72 61 6E  34 1C 2A 80 5B 59 80 F1  ..q..ran4.*.[Y..
0F10: 71 05 01 F1 71 05 01 72  61 6E 35 52 0C 80 F8 FF  q...q..ran5R....
0F20: FF 7F F8 FF FF 7F 73 30  37 38 45 0C 80 F8 FF FF  ......s078E.....
0F30: 7F F8 FF FF 7F 73 30 37  39 01 80 2B F2 71 05 01  .....s079..+.q..
0F40: 70 80 23 53 F1 71 05 01  F1 71 05 01 72 61 6E 35  p.#S.q...q..ran5
0F50: 5B 6F 80 F2 71 05 01 F2  71 05 01 72 61 6E 61 1C  [o..q...q..rana.
0F60: 57 80 52 0C 80 F8 FF FF  7F F8 FF FF 7F 73 30 37  W.R..........s07
0F70: 39 45 0C 80 F8 FF FF 7F  F8 FF FF 7F 73 30 38 30  9E..........s080
0F80: 01 80 2B F2 71 05 01 71  80 23 53 F2 71 05 01 F2  ..+.q..q.#S.q...
0F90: 71 05 01 72 61 6E 61 5B  6F 80 F2 71 05 01 F2 71  q..rana[o..q...q
0FA0: 05 01 72 61 6E 62 1C 53  80 52 0C 80 F8 FF FF 7F  ..ranb.S.R......
0FB0: F8 FF FF 7F 73 30 38 30  45 0C 80 F8 FF FF 7F F8  ....s080E.......
0FC0: FF FF 7F 73 30 38 31 01  80 1C 72 80 52 0C 80 F8  ...s081...r.R...
0FD0: FF FF 7F F8 FF FF 7F 73  30 38 31 45 0C 80 F8 FF  .......s081E....
0FE0: FF 7F F8 FF FF 7F 73 30  38 32 01 80 4E 01 F2 71  ......s082..N..q
0FF0: 05 01 5B 59 80 F1 71 05  01 F1 71 05 01 72 61 6E  ..[Y..q...q..ran
1000: 36 1C 63 80 45 73 80 F8  FF FF 7F F8 FF FF 7F 77  6.c.Es.........w
1010: 68 6F 30 01 80 45 0C 80  F8 FF FF 7F F8 FF FF 7F  ho0..E..........
1020: 73 31 34 32 01 80 55 73  80 F8 FF FF 7F F8 FF FF  s142..Us........
1030: 7F 77 68 6F 30 52 0C 80  F8 FF FF 7F F8 FF FF 7F  .who0R..........
1040: 73 30 38 32 2F 00 F3 71  05 01 2F 00 F4 71 05 01  s082/..q../..q..
1050: 4E 00 F3 71 05 01 4E 00  F4 71 05 01 4E 00 F2 71  N..q..N..q..N..q
1060: 05 01 BA F2 71 05 01 74  80 75 80 21 80 43 80 BA  ....q..t.u.!.C..
1070: B3 71 05 01 41 80 42 80  21 80 43 80 BA F3 71 05  .q..A.B.!.C...q.
1080: 01 76 80 77 80 1A 80 78  80 BA F4 71 05 01 79 80  .v.w...x...q..y.
1090: 7A 80 1A 80 78 80 80 B3  71 05 01 80 F3 71 05 01  z...x...q....q..
10A0: 80 F4 71 05 01 80 F2 71  05 01 94 01 F2 71 05 01  ..q....q.....q..
10B0: 1C 57 80 5B 59 80 F1 71  05 01 F1 71 05 01 72 61  .W.[Y..q...q..ra
10C0: 6E 37 5B 52 80 B3 71 05  01 B3 71 05 01 72 61 6E  n7[R..q...q..ran
10D0: 32 5B 6F 80 F2 71 05 01  F2 71 05 01 72 61 6E 63  2[o..q...q..ranc
10E0: 45 0C 80 F8 FF FF 7F F8  FF FF 7F 73 31 31 32 01  E..........s112.
10F0: 80 1C 0D 80 45 73 80 F0  FF FF 7F F0 FF FF 7F 77  ....Es.........w
1100: 68 69 31 01 80 55 73 80  F0 FF FF 7F F0 FF FF 7F  hi1..Us.........
1110: 77 68 69 31 1C 2A 80 52  0C 80 F8 FF FF 7F F8 FF  whi1.*.R........
1120: FF 7F 73 31 31 32 45 0C  80 F8 FF FF 7F F8 FF FF  ..s112E.........
1130: 7F 73 30 38 34 01 80 1C  2A 80 52 0C 80 F8 FF FF  .s084...*.R.....
1140: 7F F8 FF FF 7F 73 30 38  34 45 0C 80 F8 FF FF 7F  .....s084E......
1150: F8 FF FF 7F 73 30 38 36  01 80 2B F2 71 05 01 7B  ....s086..+.q..{
1160: 80 23 52 0C 80 F8 FF FF  7F F8 FF FF 7F 73 30 38  .#R..........s08
1170: 36 45 0C 80 F8 FF FF 7F  F8 FF FF 7F 73 30 38 35  6E..........s085
1180: 01 80 2B B3 71 05 01 7C  80 23 27 05 F3 71 05 01  ..+.q..|.#'..q..
1190: 24 1C 29 80 27 05 F4 71  05 01 1C 1C 29 80 52 0C  $.).'..q....).R.
11A0: 80 F8 FF FF 7F F8 FF FF  7F 73 30 38 35 45 0C 80  .........s085E..
11B0: F8 FF FF 7F F8 FF FF 7F  73 30 38 37 01 80 2B 44  ........s087..+D
11C0: 72 05 01 7D 80 23 2A 05  F3 71 05 01 2A 05 F4 71  r..}.#*..q..*..q
11D0: 05 01 52 0C 80 F8 FF FF  7F F8 FF FF 7F 73 30 38  ..R..........s08
11E0: 37 45 0C 80 F8 FF FF 7F  F8 FF FF 7F 73 30 38 38  7E..........s088
11F0: 01 80 27 05 A2 72 05 01  02 4B F3 71 05 01 60 80  ..'..r...K.q..`.
1200: 4B F4 71 05 01 60 80 1C  2A 80 79 00 F3 71 05 01  K.q..`..*.y..q..
1210: B4 71 05 01 1C 0D 80 52  0C 80 F8 FF FF 7F F8 FF  .q.....R........
1220: FF 7F 73 30 38 38 45 0C  80 F8 FF FF 7F F8 FF FF  ..s088E.........
1230: 7F 73 30 38 39 01 80 1C  0D 80 2B F3 71 05 01 7E  .s089.....+.q..~
1240: 80 23 52 0C 80 F8 FF FF  7F F8 FF FF 7F 73 30 38  .#R..........s08
1250: 39 45 0C 80 F8 FF FF 7F  F8 FF FF 7F 73 30 39 32  9E..........s092
1260: 01 80 27 05 F3 71 05 01  25 1C 29 80 27 05 F4 71  ..'..q..%.).'..q
1270: 05 01 1D 2A 05 F3 71 05  01 52 0C 80 F8 FF FF 7F  ...*..q..R......
1280: F8 FF FF 7F 73 30 39 32  45 0C 80 F8 FF FF 7F F8  ....s092E.......
1290: FF FF 7F 73 30 39 30 01  80 1C 0D 80 7A 00 F4 71  ...s090.....z..q
12A0: 05 01 5B 7F 80 F4 71 05  01 F4 71 05 01 72 61 6E  ..[...q...q..ran
12B0: 30 BA F4 71 05 01 41 80  42 80 21 80 43 80 80 F4  0..q..A.B.!.C...
12C0: 71 05 01 94 01 F4 71 05  01 27 05 A2 72 05 01 03  q.....q..'..r...
12D0: 1C 2A 80 52 0C 80 F8 FF  FF 7F F8 FF FF 7F 73 30  .*.R..........s0
12E0: 39 30 45 0C 80 F8 FF FF  7F F8 FF FF 7F 73 30 39  90E..........s09
12F0: 31 01 80 2B F4 71 05 01  80 80 23 1C 11 80 5B 7F  1..+.q....#...[.
1300: 80 F4 71 05 01 F4 71 05  01 72 61 6E 31 52 0C 80  ..q...q..ran1R..
1310: F8 FF FF 7F F8 FF FF 7F  73 30 39 31 45 0C 80 F8  ........s091E...
1320: FF FF 7F F8 FF FF 7F 73  30 39 34 01 80 2B F4 71  .......s094..+.q
1330: 05 01 81 80 1C 62 80 52  0C 80 F8 FF FF 7F F8 FF  .....b.R........
1340: FF 7F 73 30 39 34 45 0C  80 F8 FF FF 7F F8 FF FF  ..s094E.........
1350: 7F 73 30 39 33 01 80 1C  57 80 5B 6F 80 F2 71 05  .s093...W.[o..q.
1360: 01 F2 71 05 01 72 61 6E  64 52 0C 80 F8 FF FF 7F  ..q..randR......
1370: F8 FF FF 7F 73 30 39 33  45 0C 80 F8 FF FF 7F F8  ....s093E.......
1380: FF FF 7F 73 30 39 35 01  80 4E 01 F4 71 05 01 1C  ...s095..N..q...
1390: 57 80 52 0C 80 F8 FF FF  7F F8 FF FF 7F 73 30 39  W.R..........s09
13A0: 35 45 0C 80 F8 FF FF 7F  F8 FF FF 7F 73 31 33 33  5E..........s133
13B0: 01 80 1C 57 80 1C 0D 80  5D 01 80 2A 80 45 73 80  ...W....]..*.Es.
13C0: F8 FF FF 7F F8 FF FF 7F  77 68 6F 30 01 80 55 73  ........who0..Us
13D0: 80 F8 FF FF 7F F8 FF FF  7F 77 68 6F 30 52 0C 80  .........who0R..
13E0: F8 FF FF 7F F8 FF FF 7F  73 31 33 33 81 00 F2 71  ........s133...q
13F0: 05 01 4E 00 F4 71 05 01  BA F2 71 05 01 41 80 42  ..N..q....q..A.B
1400: 80 21 80 43 80 80 F4 71  05 01 80 F2 71 05 01 1C  .!.C...q....q...
1410: 57 80 5B 52 80 B3 71 05  01 B3 71 05 01 72 61 6E  W.[R..q...q..ran
1420: 33 5B 7F 80 F4 71 05 01  F4 71 05 01 72 61 6E 32  3[...q...q..ran2
1430: 5B 82 80 F2 71 05 01 F2  71 05 01 72 61 6E 65 45  [...q...q..raneE
1440: 0C 80 F8 FF FF 7F F8 FF  FF 7F 73 30 39 38 01 80  ..........s098..
1450: 1C 0D 80 45 73 80 F0 FF  FF 7F F0 FF FF 7F 77 68  ...Es.........wh
1460: 69 31 01 80 55 73 80 F0  FF FF 7F F0 FF FF 7F 77  i1..Us.........w
1470: 68 69 31 1C 2A 80 52 0C  80 F8 FF FF 7F F8 FF FF  hi1.*.R.........
1480: 7F 73 30 39 38 45 0C 80  F8 FF FF 7F F8 FF FF 7F  .s098E..........
1490: 73 30 39 39 01 80 1C 2A  80 52 0C 80 F8 FF FF 7F  s099...*.R......
14A0: F8 FF FF 7F 73 30 39 39  45 0C 80 F8 FF FF 7F F8  ....s099E.......
14B0: FF FF 7F 73 31 30 30 01  80 1C 2A 80 52 0C 80 F8  ...s100...*.R...
14C0: FF FF 7F F8 FF FF 7F 73  31 30 30 45 0C 80 F8 FF  .......s100E....
14D0: FF 7F F8 FF FF 7F 73 31  34 33 01 80 4E 01 F1 71  ......s143..N..q
14E0: 05 01 1C 2A 80 52 0C 80  F8 FF FF 7F F8 FF FF 7F  ...*.R..........
14F0: 73 31 34 33 45 0C 80 F8  FF FF 7F F8 FF FF 7F 73  s143E..........s
1500: 31 31 30 01 80 5B 82 80  F2 71 05 01 F2 71 05 01  110..[...q...q..
1510: 72 61 6E 66 5B 52 80 B3  71 05 01 B3 71 05 01 72  ranf[R..q...q..r
1520: 61 6E 34 1C 0F 80 2B F2  71 05 01 83 80 1C 2A 80  an4...+.q.....*.
1530: 52 0C 80 F8 FF FF 7F F8  FF FF 7F 73 31 31 30 45  R..........s110E
1540: 0C 80 F8 FF FF 7F F8 FF  FF 7F 73 31 30 31 01 80  ..........s101..
1550: 1C 5A 80 52 0C 80 F8 FF  FF 7F F8 FF FF 7F 73 31  .Z.R..........s1
1560: 30 31 45 0C 80 F8 FF FF  7F F8 FF FF 7F 73 31 30  01E..........s10
1570: 32 01 80 53 F2 71 05 01  F2 71 05 01 72 61 6E 66  2..S.q...q..ranf
1580: 52 0C 80 F8 FF FF 7F F8  FF FF 7F 73 31 30 32 45  R..........s102E
1590: 0C 80 F8 FF FF 7F F8 FF  FF 7F 73 31 30 34 01 80  ..........s104..
15A0: 2B F4 71 05 01 84 80 23  52 0C 80 F8 FF FF 7F F8  +.q....#R.......
15B0: FF FF 7F 73 31 30 34 45  0C 80 F8 FF FF 7F F8 FF  ...s104E........
15C0: FF 7F 73 31 30 35 01 80  1C 0F 80 2B F2 71 05 01  ..s105.....+.q..
15D0: 85 80 23 52 0C 80 F8 FF  FF 7F F8 FF FF 7F 73 31  ..#R..........s1
15E0: 30 35 45 0C 80 F8 FF FF  7F F8 FF FF 7F 73 31 30  05E..........s10
15F0: 36 01 80 1C 0D 80 4E 00  F1 71 05 01 81 01 F2 71  6.....N..q.....q
1600: 05 01 5B 82 80 F2 71 05  01 F2 71 05 01 72 61 6E  ..[...q...q..ran
1610: 67 2B B3 71 05 01 86 80  23 80 F1 71 05 01 52 0C  g+.q....#..q..R.
1620: 80 F8 FF FF 7F F8 FF FF  7F 73 31 30 36 45 0C 80  .........s106E..
1630: F8 FF FF 7F F8 FF FF 7F  73 31 30 37 01 80 2B F2  ........s107..+.
1640: 71 05 01 87 80 23 52 0C  80 F8 FF FF 7F F8 FF FF  q....#R.........
1650: 7F 73 31 30 37 45 0C 80  F8 FF FF 7F F8 FF FF 7F  .s107E..........
1660: 73 31 30 38 01 80 5B 82  80 F2 71 05 01 F2 71 05  s108..[...q...q.
1670: 01 72 61 6E 68 5B 88 80  B3 71 05 01 B3 71 05 01  .ranh[...q...q..
1680: 72 61 6E 35 5B 7F 80 F4  71 05 01 F4 71 05 01 72  ran5[...q...q..r
1690: 61 6E 33 1C 2A 80 52 0C  80 F8 FF FF 7F F8 FF FF  an3.*.R.........
16A0: 7F 73 31 30 38 45 0C 80  F8 FF FF 7F F8 FF FF 7F  .s108E..........
16B0: 73 31 30 39 01 80 1C 62  80 45 06 80 F8 FF FF 7F  s109...b.E......
16C0: F8 FF FF 7F 66 64 6F 30  01 80 55 06 80 F8 FF FF  ....fdo0..U.....
16D0: 7F F8 FF FF 7F 66 64 6F  30 52 0C 80 F8 FF FF 7F  .....fdo0R......
16E0: F8 FF FF 7F 73 31 30 39  27 05 F0 FF FF 7F 15 27  ....s109'......'
16F0: 05 41 72 05 01 03 6B 69  64 6C 30 F2 71 05 01 6B  .Ar...kidl0.q..k
1700: 69 64 6C 30 B3 71 05 01  6B 69 64 6C 30 F4 71 05  idl0.q..kidl0.q.
1710: 01 7B F3 71 05 01 2F 00  96 72 05 01 2F 00 97 72  .{.q../..r../..r
1720: 05 01 2F 00 98 72 05 01  BA F4 71 05 01 89 80 8A  ../..r....q.....
1730: 80 21 80 8B 80 BA B3 71  05 01 8C 80 8D 80 21 80  .!.....q......!.
1740: 6B 80 BA B4 71 05 01 8E  80 8F 80 21 80 43 80 BA  k...q......!.C..
1750: F3 71 05 01 90 80 91 80  4F 80 92 80 BA F0 FF FF  .q......O.......
1760: 7F 93 80 94 80 1A 80 95  80 BA F2 71 05 01 96 80  ...........q....
1770: 97 80 98 80 99 80 4E 00  96 72 05 01 4E 00 97 72  ......N..r..N..r
1780: 05 01 4E 00 98 72 05 01  BA 96 72 05 01 9A 80 9B  ..N..r....r.....
1790: 80 9C 80 9D 80 BA 97 72  05 01 9E 80 9F 80 1A 80  .......r........
17A0: A0 80 BA 98 72 05 01 A1  80 A2 80 1A 80 A3 80 80  ....r...........
17B0: F2 71 05 01 80 96 72 05  01 80 97 72 05 01 80 98  .q....r....r....
17C0: 72 05 01 79 00 F0 FF FF  7F B4 71 05 01 1C 57 80  r..y......q...W.
17D0: 66 13 80 F4 71 05 01 F4  71 05 01 73 68 61 30 5B  f...q...q..sha0[
17E0: 82 80 F2 71 05 01 F2 71  05 01 72 61 6E 67 5B 88  ...q...q..rang[.
17F0: 80 B3 71 05 01 B3 71 05  01 72 61 6E 36 27 05 96  ..q...q..ran6'..
1800: 72 05 01 11 1C 29 80 27  05 97 72 05 01 11 1C 29  r....).'..r....)
1810: 80 27 05 98 72 05 01 11  45 0C 80 F8 FF FF 7F F8  .'..r...E.......
1820: FF FF 7F 73 31 31 35 01  80 1C 0D 80 45 06 80 F8  ...s115.....E...
1830: FF FF 7F F8 FF FF 7F 66  64 69 31 01 80 55 06 80  .......fdi1..U..
1840: F8 FF FF 7F F8 FF FF 7F  66 64 69 31 2B 96 72 05  ........fdi1+.r.
1850: 01 A4 80 23 2A 05 96 72  05 01 52 0C 80 F8 FF FF  ...#*..r..R.....
1860: 7F F8 FF FF 7F 73 31 31  35 45 0C 80 F8 FF FF 7F  .....s115E......
1870: F8 FF FF 7F 73 31 31 36  01 80 7C 00 96 72 05 01  ....s116..|..r..
1880: 2B 96 72 05 01 A5 80 23  7C 01 96 72 05 01 52 0C  +.r....#|..r..R.
1890: 80 F8 FF FF 7F F8 FF FF  7F 73 31 31 36 45 0C 80  .........s116E..
18A0: F8 FF FF 7F F8 FF FF 7F  73 31 31 37 01 80 2B 96  ........s117..+.
18B0: 72 05 01 A6 80 23 55 0C  80 F8 FF FF 7F F8 FF FF  r....#U.........
18C0: 7F 73 31 31 37 45 0C 80  F8 FF FF 7F F8 FF FF 7F  .s117E..........
18D0: 73 31 32 32 01 80 5B 82  80 F2 71 05 01 F2 71 05  s122..[...q...q.
18E0: 01 72 61 6E 68 1C 2A 80  52 0C 80 F8 FF FF 7F F8  .ranh.*.R.......
18F0: FF FF 7F 73 31 32 32 45  0C 80 F8 FF FF 7F F8 FF  ...s122E........
1900: FF 7F 73 31 31 38 01 80  1C 57 80 4B 96 72 05 01  ..s118...W.K.r..
1910: A7 80 1C 0F 80 2B 96 72  05 01 A8 80 23 53 F2 71  .....+.r....#S.q
1920: 05 01 F2 71 05 01 72 61  6E 68 4E 01 F2 71 05 01  ...q..ranhN..q..
1930: 52 0C 80 F8 FF FF 7F F8  FF FF 7F 73 31 31 38 45  R..........s118E
1940: 0C 80 F8 FF FF 7F F8 FF  FF 7F 73 31 31 39 01 80  ..........s119..
1950: 2B 96 72 05 01 A9 80 23  52 0C 80 F8 FF FF 7F F8  +.r....#R.......
1960: FF FF 7F 73 31 31 39 45  0C 80 F8 FF FF 7F F8 FF  ...s119E........
1970: FF 7F 73 31 32 30 01 80  27 05 96 72 05 01 12 1C  ..s120..'..r....
1980: 29 80 27 05 98 72 05 01  12 1C 29 80 27 05 97 72  ).'..r....).'..r
1990: 05 01 12 1C 62 80 45 06  80 F8 FF FF 7F F8 FF FF  ....b.E.........
19A0: 7F 66 64 6F 31 01 80 55  06 80 F8 FF FF 7F F8 FF  .fdo1..U........
19B0: FF 7F 66 64 6F 31 52 0C  80 F8 FF FF 7F F8 FF FF  ..fdo1R.........
19C0: 7F 73 31 32 30 7A 00 96  72 05 01 7A 00 97 72 05  .s120z..r..z..r.
19D0: 01 7A 00 98 72 05 01 BA  96 72 05 01 AA 80 AB 80  .z..r....r......
19E0: 1A 80 AC 80 BA 97 72 05  01 AD 80 AE 80 1A 80 AC  ......r.........
19F0: 80 BA 98 72 05 01 AF 80  B0 80 1A 80 AC 80 80 96  ...r............
1A00: 72 05 01 80 97 72 05 01  80 98 72 05 01 1C 57 80  r....r....r...W.
1A10: 27 05 A2 72 05 01 02 1C  0F 80 45 0C 80 F8 FF FF  '..r......E.....
1A20: 7F F8 FF FF 7F 73 31 32  31 01 80 27 05 96 72 05  .....s121..'..r.
1A30: 01 13 1C 29 80 27 05 97  72 05 01 13 1C 29 80 27  ...).'..r....).'
1A40: 05 98 72 05 01 13 45 06  80 F8 FF FF 7F F8 FF FF  ..r...E.........
1A50: 7F 66 64 69 31 01 80 55  06 80 F8 FF FF 7F F8 FF  .fdi1..U........
1A60: FF 7F 66 64 69 31 2B 96  72 05 01 B1 80 23 5C 00  ..fdi1+.r....#\.
1A70: B2 80 5C 01 B2 80 9A 52  0C 80 F8 FF FF 7F F8 FF  ..\....R........
1A80: FF 7F 73 31 32 31 45 0C  80 F8 FF FF 7F F8 FF FF  ..s121E.........
1A90: 7F 73 31 32 33 01 80 1C  5A 80 52 0C 80 F8 FF FF  .s123...Z.R.....
1AA0: 7F F8 FF FF 7F 73 31 32  33 45 0C 80 F8 FF FF 7F  .....s123E......
1AB0: F8 FF FF 7F 73 31 32 34  01 80 1C 5A 80 52 0C 80  ....s124...Z.R..
1AC0: F8 FF FF 7F F8 FF FF 7F  73 31 32 34 45 0C 80 F8  ........s124E...
1AD0: FF FF 7F F8 FF FF 7F 73  31 32 35 01 80 2B 96 72  .......s125..+.r
1AE0: 05 01 B3 80 23 5B B4 80  96 72 05 01 96 72 05 01  ....#[...r...r..
1AF0: 63 72 73 30 1C 57 80 52  0C 80 F8 FF FF 7F F8 FF  crs0.W.R........
1B00: FF 7F 73 31 32 35 45 0C  80 F8 FF FF 7F F8 FF FF  ..s125E.........
1B10: 7F 73 31 32 36 01 80 2B  96 72 05 01 B5 80 23 53  .s126..+.r....#S
1B20: 96 72 05 01 96 72 05 01  63 72 73 30 45 06 80 F8  .r...r..crs0E...
1B30: FF FF 7F F8 FF FF 7F 66  64 6F 31 01 80 55 06 80  .......fdo1..U..
1B40: F8 FF FF 7F F8 FF FF 7F  66 64 6F 31 52 0C 80 F8  ........fdo1R...
1B50: FF FF 7F F8 FF FF 7F 73  31 32 36 27 05 F3 71 05  .......s126'..q.
1B60: 01 26 35 B6 80 78 1C 04  80 BA F0 FF FF 7F B7 80  .&5..x..........
1B70: B8 80 0A 80 B9 80 80 F0  FF FF 7F 4A F0 FF FF 7F  ...........J....
1B80: D7 71 05 01 4A D7 71 05  01 F0 FF FF 7F 45 0C 80  .q..J.q......E..
1B90: F8 FF FF 7F F8 FF FF 7F  73 31 32 37 01 80 1C 0D  ........s127....
1BA0: 80 45 06 80 F8 FF FF 7F  F8 FF FF 7F 66 64 69 31  .E..........fdi1
1BB0: 01 80 55 06 80 F8 FF FF  7F F8 FF FF 7F 66 64 69  ..U..........fdi
1BC0: 31 66 13 80 D7 71 05 01  D7 71 05 01 74 6C 6B 30  1f...q...q..tlk0
1BD0: 2B D7 71 05 01 BA 80 23  52 0C 80 F8 FF FF 7F F8  +.q....#R.......
1BE0: FF FF 7F 73 31 32 37 45  0C 80 F8 FF FF 7F F8 FF  ...s127E........
1BF0: FF 7F 73 31 32 38 01 80  2B D7 71 05 01 BB 80 23  ..s128..+.q....#
1C00: 52 0C 80 F8 FF FF 7F F8  FF FF 7F 73 31 32 38 45  R..........s128E
1C10: 0C 80 F8 FF FF 7F F8 FF  FF 7F 73 31 32 39 01 80  ..........s129..
1C20: 66 13 80 D7 71 05 01 D7  71 05 01 74 6C 6B 31 2B  f...q...q..tlk1+
1C30: D7 71 05 01 BC 80 23 52  0C 80 F8 FF FF 7F F8 FF  .q....#R........
1C40: FF 7F 73 31 32 39 45 0C  80 F8 FF FF 7F F8 FF FF  ..s129E.........
1C50: 7F 73 31 33 30 01 80 66  13 80 D7 71 05 01 D7 71  .s130..f...q...q
1C60: 05 01 74 6C 6B 30 2B D7  71 05 01 BD 80 23 5D 01  ..tlk0+.q....#].
1C70: 80 05 80 45 06 80 F8 FF  FF 7F F8 FF FF 7F 66 64  ...E..........fd
1C80: 6F 31 01 80 55 06 80 F8  FF FF 7F F8 FF FF 7F 66  o1..U..........f
1C90: 64 6F 31 52 0C 80 F8 FF  FF 7F F8 FF FF 7F 73 31  do1R..........s1
1CA0: 33 30 45 73 80 F0 FF FF  7F F0 FF FF 7F 71 73 74  30Es.........qst
1CB0: 63 01 80 46 00 1C 57 80  45 06 80 F8 FF FF 7F F8  c..F..W.E.......
1CC0: FF FF 7F 66 64 69 31 01  80 21 00                 ...fdi1..!.     
```

#### Opcodes

```
  0: 0x0032 [0x42] SET_CLI_EVENT_CANCEL_DATA()
  1: 0x0033 [0x5D] SET_MUSIC_VOLUME(volume=0*, fade_time=180*)
  2: 0x0038 [0x45] LOAD_SCHEDULED_TASK: Load scheduler "fdo1" with entities [EventEntity, EventEntity], work=[200*, 0*]
  3: 0x0049 [0x55] WAIT_LOAD_SCHEDULER: Wait for scheduler "fdo1" with entities [EventEntity, EventEntity], work=200*
  4: 0x0058 [0x46] CAMERA_CONTROL: Disable user control
  5: 0x005A [0x38] SET_CLIENT_EVENT_MODE(mode=27*)
  6: 0x005D [0x92] Gentle Tiger (ID: 17134039/0x010571D7)->Render.Flags3 ^= 0x01
  7: 0x0063 [0xBA] SET_ENTITY_POSITION(entity_id=LocalPlayer, pos_x=-200.462*, pos_z=11.138*, pos_y=-9.998*, direction=85.5*)
  8: 0x0070 [0x80] LOAD_WAIT(entity=LocalPlayer)
  9: 0x0075 [0x80] LOAD_WAIT(entity=Gentle Tiger (ID: 17134039/0x010571D7))
 10: 0x007A [0x27] REQ_SET(priority=0x05, entity_id=LocalPlayer, tag_num=0x3A)
 11: 0x0081 [0x45] LOAD_SCHEDULED_TASK: Load scheduler "s027" with entities [EventEntity, EventEntity], work=[400*, 0*]
 12: 0x0092 [0x1C] WAIT(15* ticks)
 13: 0x0095 [0x45] LOAD_SCHEDULED_TASK: Load scheduler "fdi1" with entities [EventEntity, EventEntity], work=[200*, 0*]
 14: 0x00A6 [0x1C] WAIT(100* ticks)
 15: 0x00A9 [0x52] END_LOAD_SCHEDULER: End scheduler "s027" with entities [EventEntity, EventEntity], work=400*
 16: 0x00B8 [0x45] LOAD_SCHEDULED_TASK: Load scheduler "s028" with entities [EventEntity, EventEntity], work=[400*, 0*]
 17: 0x00C9 [0x4A] Gentle Tiger (ID: 17134039/0x010571D7) looks at LocalPlayer
 18: 0x00D2 [0x1C] WAIT(30* ticks)
 19: 0x00D5 [0x2B] Gentle Tiger (ID: 17134039/0x010571D7) [13327*]:
     "Hm? What's the matter, <Player>? You look like you've seen a Tonberry. Uh...not that I'm afraid of those cute little critters, of course..."
 20: 0x00DC [0x23] WAIT_FOR_DIALOG_INTERACTION
 21: 0x00DD [0x2A] GET_REQ_LEVEL(level=5, entity_id=LocalPlayer)
 22: 0x00E3 [0x52] END_LOAD_SCHEDULER: End scheduler "s028" with entities [EventEntity, EventEntity], work=400*
 23: 0x00F2 [0x45] LOAD_SCHEDULED_TASK: Load scheduler "s029" with entities [EventEntity, EventEntity], work=[400*, 0*]
 24: 0x0103 [0x27] REQ_SET(priority=0x03, entity_id=LocalPlayer, tag_num=0x3E)
 25: 0x010A [0x1C] WAIT(80* ticks)
 26: 0x010D [0x27] REQ_SET(priority=0x05, entity_id=LocalPlayer, tag_num=0x3F)
 27: 0x0114 [0x1C] WAIT(40* ticks)
 28: 0x0117 [0x52] END_LOAD_SCHEDULER: End scheduler "s029" with entities [EventEntity, EventEntity], work=400*
 29: 0x0126 [0x45] LOAD_SCHEDULED_TASK: Load scheduler "s030" with entities [EventEntity, EventEntity], work=[400*, 0*]
 30: 0x0137 [0x66] LOAD_EXT_SCHEDULER_MAIN: Load scheduler "tlk0" with entities [Gentle Tiger (ID: 17134039/0x010571D7), Gentle Tiger (ID: 17134039/0x010571D7)], work=69*
 31: 0x0146 [0x2B] Gentle Tiger (ID: 17134039/0x010571D7) [13328*]:
     "Oh, Captain Klara and Zeid? The two of them should be on their way to the President's Office as we speak."
 32: 0x014D [0x23] WAIT_FOR_DIALOG_INTERACTION
 33: 0x014E [0x45] LOAD_SCHEDULED_TASK: Load scheduler "fdo1" with entities [EventEntity, EventEntity], work=[200*, 0*]
 34: 0x015F [0x55] WAIT_LOAD_SCHEDULER: Wait for scheduler "fdo1" with entities [EventEntity, EventEntity], work=200*
 35: 0x016E [0x52] END_LOAD_SCHEDULER: End scheduler "s030" with entities [EventEntity, EventEntity], work=400*
 36: 0x017D [0x1C] WAIT(1* ticks)
 37: 0x0180 [0x34] LOAD_UNLOAD_ZONE(zone_id=237*)
 38: 0x0183 [0x77] SET_EVENT_TIME_WEATHER(hour=255*, weather=1*)
 39: 0x0188 [0x1C] WAIT(1* ticks)
 40: 0x018B [0x75] LOAD_ROOM(Load indoor room, room=304*)
 41: 0x018F [0x75] LOAD_ROOM(No action)
 42: 0x0191 [0x2F] Klara (ID: 17134066/0x010571F2)->Render.Flags0 &= ~0x80000 // Bit 19
 43: 0x0197 [0x2F] Zeid (ID: 17134003/0x010571B3)->Render.Flags0 &= ~0x80000 // Bit 19
 44: 0x019D [0x2F] Prien (ID: 17134065/0x010571F1)->Render.Flags0 &= ~0x80000 // Bit 19
 45: 0x01A3 [0x2F] ??? (ID: 17134148/0x01057244)->Render.Flags0 &= ~0x80000 // Bit 19
 46: 0x01A9 [0x4E] SET_ENTITY_HIDE_FLAG: Show Klara (ID: 17134066/0x010571F2)
 47: 0x01AF [0x4E] SET_ENTITY_HIDE_FLAG: Show Zeid (ID: 17134003/0x010571B3)
 48: 0x01B5 [0x4E] SET_ENTITY_HIDE_FLAG: Show Prien (ID: 17134065/0x010571F1)
 49: 0x01BB [0xBA] SET_ENTITY_POSITION(entity_id=Klara (ID: 17134066/0x010571F2), pos_x=114.843*, pos_z=-2.633*, pos_y=-20.170*, direction=98.2*)
 50: 0x01C8 [0xBA] SET_ENTITY_POSITION(entity_id=Zeid (ID: 17134003/0x010571B3), pos_x=114.180*, pos_z=-1.131*, pos_y=-20.170*, direction=94.0*)
 51: 0x01D5 [0xBA] SET_ENTITY_POSITION(entity_id=Prien (ID: 17134065/0x010571F1), pos_x=106.070*, pos_z=-13.726*, pos_y=-20.178*, direction=276.0*)
 52: 0x01E2 [0x80] LOAD_WAIT(entity=Klara (ID: 17134066/0x010571F2))
 53: 0x01E7 [0x80] LOAD_WAIT(entity=Zeid (ID: 17134003/0x010571B3))
 54: 0x01EC [0x80] LOAD_WAIT(entity=Prien (ID: 17134065/0x010571F1))
 55: 0x01F1 [0x5C] MUSIC_CONTROL: Set Idle (Day) music to song 127*
 56: 0x01F5 [0x5C] MUSIC_CONTROL: Set Idle (Night) music to song 127*
 57: 0x01F9 [0x9A] WAIT_MUSIC_SERVER()
 58: 0x01FA [0x5B] LOAD_EXT_SCHEDULER: Load scheduler "dai0" with entities [Prien (ID: 17134065/0x010571F1), Prien (ID: 17134065/0x010571F1)], work=1298*
 59: 0x0209 [0x5B] LOAD_EXT_SCHEDULER: Load scheduler 0xFEFEFE00 with entities [Klara (ID: 17134066/0x010571F2), Klara (ID: 17134066/0x010571F2)], work=2115*
 60: 0x0218 [0x5B] LOAD_EXT_SCHEDULER: Load scheduler 0xFEFEFE00 with entities [Volker (ID: 17134004/0x010571B4), Volker (ID: 17134004/0x010571B4)], work=1498*
 61: 0x0227 [0xC5] LOAD_SCHEDULED_TASK_ALT3: Load scheduler 0x8001FEFE for entities [Klara (ID: 17134066/0x010571F2), Klara (ID: 17134066/0x010571F2)], work=109*, param=65024
 62: 0x0238 [0xC5] LOAD_SCHEDULED_TASK_ALT3: Load scheduler 0x8001FEFE for entities [Volker (ID: 17134004/0x010571B4), Volker (ID: 17134004/0x010571B4)], work=110*, param=65024
 63: 0x0249 [0x27] REQ_SET(priority=0x05, entity_id=Klara (ID: 17134066/0x010571F2), tag_num=0x24)
 64: 0x0250 [0x1C] WAIT(5* ticks)
 65: 0x0253 [0x27] REQ_SET(priority=0x05, entity_id=Zeid (ID: 17134003/0x010571B3), tag_num=0x1D)
 66: 0x025A [0x45] LOAD_SCHEDULED_TASK: Load scheduler "s031" with entities [EventEntity, EventEntity], work=[400*, 0*]
 67: 0x026B [0x1C] WAIT(15* ticks)
 68: 0x026E [0x45] LOAD_SCHEDULED_TASK: Load scheduler "fdi1" with entities [EventEntity, EventEntity], work=[200*, 0*]
 69: 0x027F [0x55] WAIT_LOAD_SCHEDULER: Wait for scheduler "fdi1" with entities [EventEntity, EventEntity], work=200*
 70: 0x028E [0x1C] WAIT(120* ticks)
 71: 0x0291 [0x52] END_LOAD_SCHEDULER: End scheduler "s031" with entities [EventEntity, EventEntity], work=400*
 72: 0x02A0 [0x45] LOAD_SCHEDULED_TASK: Load scheduler "s032" with entities [EventEntity, EventEntity], work=[400*, 0*]
 73: 0x02B1 [0x2A] GET_REQ_LEVEL(level=5, entity_id=Klara (ID: 17134066/0x010571F2))
 74: 0x02B7 [0x2B] Klara (ID: 17134066/0x010571F2) [13329*]:
     "Zeid. Do you recall my words to you the day you joined the Mythril Musketeers?"
 75: 0x02BE [0x23] WAIT_FOR_DIALOG_INTERACTION
 76: 0x02BF [0x2A] GET_REQ_LEVEL(level=5, entity_id=Zeid (ID: 17134003/0x010571B3))
 77: 0x02C5 [0x52] END_LOAD_SCHEDULER: End scheduler "s032" with entities [EventEntity, EventEntity], work=400*
 78: 0x02D4 [0x45] LOAD_SCHEDULED_TASK: Load scheduler "s033" with entities [EventEntity, EventEntity], work=[400*, 0*]
 79: 0x02E5 [0x5B] LOAD_EXT_SCHEDULER: Load scheduler "tsb0" with entities [Zeid (ID: 17134003/0x010571B3), Zeid (ID: 17134003/0x010571B3)], work=244*
 80: 0x02F4 [0x2B] Zeid (ID: 17134003/0x010571B3) [13330*]:
     "As clear as if it were yesterday, Captain. You said to me that to forward the peace and prosperity of the Republic, one must be prepared to overcome unimaginable hardships."
 81: 0x02FB [0x23] WAIT_FOR_DIALOG_INTERACTION
 82: 0x02FC [0x5B] LOAD_EXT_SCHEDULER: Load scheduler "tkb1" with entities [Zeid (ID: 17134003/0x010571B3), Zeid (ID: 17134003/0x010571B3)], work=244*
 83: 0x030B [0x1C] WAIT(15* ticks)
 84: 0x030E [0x4A] Klara (ID: 17134066/0x010571F2) looks at Zeid (ID: 17134003/0x010571B3)
 85: 0x0317 [0x1C] WAIT(30* ticks)
 86: 0x031A [0x52] END_LOAD_SCHEDULER: End scheduler "s033" with entities [EventEntity, EventEntity], work=400*
 87: 0x0329 [0x45] LOAD_SCHEDULED_TASK: Load scheduler "s034" with entities [EventEntity, EventEntity], work=[400*, 0*]
 88: 0x033A [0x2B] Zeid (ID: 17134003/0x010571B3) [13332*]:
     "And for the sake of this cause, one must not scruple to employ whatever means necessary, be they fair or foul."
 89: 0x0341 [0x23] WAIT_FOR_DIALOG_INTERACTION
 90: 0x0342 [0x5B] LOAD_EXT_SCHEDULER: Load scheduler "tlk0" with entities [Klara (ID: 17134066/0x010571F2), Klara (ID: 17134066/0x010571F2)], work=1346*
 91: 0x0351 [0x2B] Klara (ID: 17134066/0x010571F2) [13333*]:
     "These words stand resolute to this day."
 92: 0x0358 [0x23] WAIT_FOR_DIALOG_INTERACTION
 93: 0x0359 [0x5B] LOAD_EXT_SCHEDULER: Load scheduler "tlk1" with entities [Klara (ID: 17134066/0x010571F2), Klara (ID: 17134066/0x010571F2)], work=1346*
 94: 0x0368 [0x52] END_LOAD_SCHEDULER: End scheduler "s034" with entities [EventEntity, EventEntity], work=400*
 95: 0x0377 [0x45] LOAD_SCHEDULED_TASK: Load scheduler "s035" with entities [EventEntity, EventEntity], work=[400*, 0*]
 96: 0x0388 [0x2B] Klara (ID: 17134066/0x010571F2) [13334*]:
     "Do you still share this belief with me, Zeid?"
 97: 0x038F [0x23] WAIT_FOR_DIALOG_INTERACTION
 98: 0x0390 [0x52] END_LOAD_SCHEDULER: End scheduler "s035" with entities [EventEntity, EventEntity], work=400*
 99: 0x039F [0x45] LOAD_SCHEDULED_TASK: Load scheduler "s036" with entities [EventEntity, EventEntity], work=[400*, 0*]
100: 0x03B0 [0x5B] LOAD_EXT_SCHEDULER: Load scheduler "tsb0" with entities [Zeid (ID: 17134003/0x010571B3), Zeid (ID: 17134003/0x010571B3)], work=244*
101: 0x03BF [0x2B] Zeid (ID: 17134003/0x010571B3) [13335*]:
     "I have never believed otherwise, Captain. Were it not for you, I would have been condemned to live out the rest of my wretched life as a creature lesser than a beast."
102: 0x03C6 [0x23] WAIT_FOR_DIALOG_INTERACTION
103: 0x03C7 [0x2B] Zeid (ID: 17134003/0x010571B3) [13336*]:
     "Come what may, I will follow you to the end."
104: 0x03CE [0x23] WAIT_FOR_DIALOG_INTERACTION
105: 0x03CF [0x5B] LOAD_EXT_SCHEDULER: Load scheduler "tkb1" with entities [Zeid (ID: 17134003/0x010571B3), Zeid (ID: 17134003/0x010571B3)], work=244*
106: 0x03DE [0x52] END_LOAD_SCHEDULER: End scheduler "s036" with entities [EventEntity, EventEntity], work=400*
107: 0x03ED [0x45] LOAD_SCHEDULED_TASK: Load scheduler "s037" with entities [EventEntity, EventEntity], work=[400*, 0*]
108: 0x03FE [0x5B] LOAD_EXT_SCHEDULER: Load scheduler "tlk0" with entities [Klara (ID: 17134066/0x010571F2), Klara (ID: 17134066/0x010571F2)], work=1346*
109: 0x040D [0x2B] Klara (ID: 17134066/0x010571F2) [13337*]:
     "Then swear me this, Zeid."
110: 0x0414 [0x23] WAIT_FOR_DIALOG_INTERACTION
111: 0x0415 [0x52] END_LOAD_SCHEDULER: End scheduler "s037" with entities [EventEntity, EventEntity], work=400*
112: 0x0424 [0x45] LOAD_SCHEDULED_TASK: Load scheduler "s038" with entities [EventEntity, EventEntity], work=[400*, 0*]
113: 0x0435 [0x1C] WAIT(30* ticks)
114: 0x0438 [0x7C] Zeid (ID: 17134003/0x010571B3)->Render.Flags2 |= 0x00
115: 0x043E [0x2B] Zeid (ID: 17134003/0x010571B3) [13312*]:
     "..."
116: 0x0445 [0x23] WAIT_FOR_DIALOG_INTERACTION
117: 0x0446 [0x7C] Zeid (ID: 17134003/0x010571B3)->Render.Flags2 |= 0x01
118: 0x044C [0x52] END_LOAD_SCHEDULER: End scheduler "s038" with entities [EventEntity, EventEntity], work=400*
119: 0x045B [0x45] LOAD_SCHEDULED_TASK: Load scheduler "s039" with entities [EventEntity, EventEntity], work=[400*, 0*]
120: 0x046C [0x2B] Klara (ID: 17134066/0x010571F2) [13338*]:
     "That whatever you may witness from this point onwards, you will never cease to believe in me."
121: 0x0473 [0x23] WAIT_FOR_DIALOG_INTERACTION
122: 0x0474 [0x52] END_LOAD_SCHEDULER: End scheduler "s039" with entities [EventEntity, EventEntity], work=400*
123: 0x0483 [0x45] LOAD_SCHEDULED_TASK: Load scheduler "s040" with entities [EventEntity, EventEntity], work=[400*, 0*]
124: 0x0494 [0x2B] Zeid (ID: 17134003/0x010571B3) [13339*]:
     "I swear, Captain."
125: 0x049B [0x23] WAIT_FOR_DIALOG_INTERACTION
126: 0x049C [0x52] END_LOAD_SCHEDULER: End scheduler "s040" with entities [EventEntity, EventEntity], work=400*
127: 0x04AB [0x45] LOAD_SCHEDULED_TASK: Load scheduler "s041" with entities [EventEntity, EventEntity], work=[400*, 0*]
128: 0x04BC [0x27] REQ_SET(priority=0x03, entity_id=Unnamed NPC (ID: 17134242/0x010572A2), tag_num=0x02)
129: 0x04C3 [0x7B] Zeid (ID: 17134003/0x010571B3) stops talking
130: 0x04C8 [0x7B] Klara (ID: 17134066/0x010571F2) stops talking
131: 0x04CD [0x1C] WAIT(30* ticks)
132: 0x04D0 [0x27] REQ_SET(priority=0x05, entity_id=Prien (ID: 17134065/0x010571F1), tag_num=0x10)
133: 0x04D7 [0x27] REQ_SET(priority=0x05, entity_id=Klara (ID: 17134066/0x010571F2), tag_num=0x25)
134: 0x04DE [0x1C] WAIT(5* ticks)
135: 0x04E1 [0x27] REQ_SET(priority=0x05, entity_id=Zeid (ID: 17134003/0x010571B3), tag_num=0x1E)
136: 0x04E8 [0x2B] Klara (ID: 17134066/0x010571F2) [13340*]:
     "Mythril Musketeers Captain Klara Bester and Mythril Musketeer Zeid reporting."
137: 0x04EF [0x23] WAIT_FOR_DIALOG_INTERACTION
138: 0x04F0 [0x2A] GET_REQ_LEVEL(level=5, entity_id=Prien (ID: 17134065/0x010571F1))
139: 0x04F6 [0x27] REQ_SET(priority=0x05, entity_id=Unnamed NPC (ID: 17134242/0x010572A2), tag_num=0x03)
140: 0x04FD [0x2B] Prien (ID: 17134065/0x010571F1) [13341*]:
     "Ah, Klara, Zeid. It has simply been too long. I thank you for coming."
141: 0x0504 [0x23] WAIT_FOR_DIALOG_INTERACTION
142: 0x0505 [0x2A] GET_REQ_LEVEL(level=5, entity_id=Zeid (ID: 17134003/0x010571B3))
143: 0x050B [0x2A] GET_REQ_LEVEL(level=5, entity_id=Klara (ID: 17134066/0x010571F2))
144: 0x0511 [0x52] END_LOAD_SCHEDULER: End scheduler "s042" with entities [EventEntity, EventEntity], work=400*
145: 0x0520 [0x45] LOAD_SCHEDULED_TASK: Load scheduler "s043" with entities [EventEntity, EventEntity], work=[400*, 0*]
146: 0x0531 [0x5B] LOAD_EXT_SCHEDULER: Load scheduler "sha0" with entities [Klara (ID: 17134066/0x010571F2), Klara (ID: 17134066/0x010571F2)], work=1347*
147: 0x0540 [0x5B] LOAD_EXT_SCHEDULER: Load scheduler "hiz0" with entities [Zeid (ID: 17134003/0x010571B3), Zeid (ID: 17134003/0x010571B3)], work=243*
148: 0x054F [0x2B] Klara (ID: 17134066/0x010571F2) [13342*]:
     "It is we who are deeply honored by your invitation, Your Excellency."
149: 0x0556 [0x23] WAIT_FOR_DIALOG_INTERACTION
150: 0x0557 [0x5B] LOAD_EXT_SCHEDULER: Load scheduler "dai2" with entities [Prien (ID: 17134065/0x010571F1), Prien (ID: 17134065/0x010571F1)], work=1298*
151: 0x0566 [0x2B] Prien (ID: 17134065/0x010571F1) [13343*]:
     "Hahaha, let's do away with the pomp and ceremony, shall we? On your feet, the both of you."
152: 0x056D [0x23] WAIT_FOR_DIALOG_INTERACTION
153: 0x056E [0x53] WAIT_SCHEDULER_TASK: Wait for scheduler "sha0" with entities [Klara (ID: 17134066/0x010571F2), Klara (ID: 17134066/0x010571F2)]
154: 0x057B [0x53] WAIT_SCHEDULER_TASK: Wait for scheduler "hiz0" with entities [Zeid (ID: 17134003/0x010571B3), Zeid (ID: 17134003/0x010571B3)]
155: 0x0588 [0x52] END_LOAD_SCHEDULER: End scheduler "s043" with entities [EventEntity, EventEntity], work=400*
156: 0x0597 [0x45] LOAD_SCHEDULED_TASK: Load scheduler "s044" with entities [EventEntity, EventEntity], work=[400*, 0*]
157: 0x05A8 [0x5B] LOAD_EXT_SCHEDULER: Load scheduler "sha1" with entities [Klara (ID: 17134066/0x010571F2), Klara (ID: 17134066/0x010571F2)], work=1347*
158: 0x05B7 [0x2B] Prien (ID: 17134065/0x010571F1) [13344*]:
     "Truth be told, none was more troubled than I over the Mythril Musketeers' dismissal from its post."
159: 0x05BE [0x23] WAIT_FOR_DIALOG_INTERACTION
160: 0x05BF [0x53] WAIT_SCHEDULER_TASK: Wait for scheduler "dai2" with entities [Prien (ID: 17134065/0x010571F1), Prien (ID: 17134065/0x010571F1)]
161: 0x05CC [0x53] WAIT_SCHEDULER_TASK: Wait for scheduler "sha1" with entities [Klara (ID: 17134066/0x010571F2), Klara (ID: 17134066/0x010571F2)]
162: 0x05D9 [0x6B] STOP_AND_IDLE: Zeid (ID: 17134003/0x010571B3) stops current action and resets to idle (animation="idl0")
163: 0x05E2 [0x1C] WAIT(15* ticks)
164: 0x05E5 [0x52] END_LOAD_SCHEDULER: End scheduler "s044" with entities [EventEntity, EventEntity], work=400*
165: 0x05F4 [0x45] LOAD_SCHEDULED_TASK: Load scheduler "s140" with entities [EventEntity, EventEntity], work=[400*, 0*]
166: 0x0605 [0x2B] Prien (ID: 17134065/0x010571F1) [13345*]:
     "But loath as I was to be bereft of your unit's reassuring presence, regrettably, there were those of influence who weren't so favorably inclined following that incident. I fear I had little choice but to appease their demands."
167: 0x060C [0x23] WAIT_FOR_DIALOG_INTERACTION
168: 0x060D [0x52] END_LOAD_SCHEDULER: End scheduler "s140" with entities [EventEntity, EventEntity], work=400*
169: 0x061C [0x45] LOAD_SCHEDULED_TASK: Load scheduler "s141" with entities [EventEntity, EventEntity], work=[400*, 0*]
170: 0x062D [0x5B] LOAD_EXT_SCHEDULER: Load scheduler "dai3" with entities [Prien (ID: 17134065/0x010571F1), Prien (ID: 17134065/0x010571F1)], work=1298*
171: 0x063C [0x2B] Klara (ID: 17134066/0x010571F2) [13346*]:
     "I fervently apologize for the distress my unit has caused."
172: 0x0643 [0x23] WAIT_FOR_DIALOG_INTERACTION
173: 0x0644 [0x53] WAIT_SCHEDULER_TASK: Wait for scheduler "dai3" with entities [Prien (ID: 17134065/0x010571F1), Prien (ID: 17134065/0x010571F1)]
174: 0x0651 [0x52] END_LOAD_SCHEDULER: End scheduler "s141" with entities [EventEntity, EventEntity], work=400*
175: 0x0660 [0x45] LOAD_SCHEDULED_TASK: Load scheduler "s045" with entities [EventEntity, EventEntity], work=[400*, 0*]
176: 0x0671 [0x5B] LOAD_EXT_SCHEDULER: Load scheduler "dai2" with entities [Prien (ID: 17134065/0x010571F1), Prien (ID: 17134065/0x010571F1)], work=1298*
177: 0x0680 [0x1C] WAIT(15* ticks)
178: 0x0683 [0xBA] SET_ENTITY_POSITION(entity_id=Klara (ID: 17134066/0x010571F2), pos_x=106.975*, pos_z=-10.998*, pos_y=-20.178*, direction=108.4*)
179: 0x0690 [0x2B] Prien (ID: 17134065/0x010571F1) [13347*]:
     "No matter. It's all in the past now. Besides, true to your reputation, you have found a way back to my side again, and not a moment too soon."
180: 0x0697 [0x23] WAIT_FOR_DIALOG_INTERACTION
181: 0x0698 [0x80] LOAD_WAIT(entity=Klara (ID: 17134066/0x010571F2))
182: 0x069D [0x94] Klara (ID: 17134066/0x010571F2)->Render.Flags3 ^= 0x01
183: 0x06A3 [0x53] WAIT_SCHEDULER_TASK: Wait for scheduler "dai2" with entities [Prien (ID: 17134065/0x010571F1), Prien (ID: 17134065/0x010571F1)]
184: 0x06B0 [0x52] END_LOAD_SCHEDULER: End scheduler "s045" with entities [EventEntity, EventEntity], work=400*
185: 0x06BF [0x45] LOAD_SCHEDULED_TASK: Load scheduler "s046" with entities [EventEntity, EventEntity], work=[400*, 0*]
186: 0x06D0 [0x1C] WAIT(15* ticks)
187: 0x06D3 [0xBA] SET_ENTITY_POSITION(entity_id=Prien (ID: 17134065/0x010571F1), pos_x=106.070*, pos_z=-13.726*, pos_y=-20.178*, direction=287.7*)
188: 0x06E0 [0x2B] Klara (ID: 17134066/0x010571F2) [13348*]:
     "You are too kind, Your Excellency. I, too, have waited long for this moment."
189: 0x06E7 [0x23] WAIT_FOR_DIALOG_INTERACTION
190: 0x06E8 [0x80] LOAD_WAIT(entity=Prien (ID: 17134065/0x010571F1))
191: 0x06ED [0x5B] LOAD_EXT_SCHEDULER: Load scheduler "ran0" with entities [Klara (ID: 17134066/0x010571F2), Klara (ID: 17134066/0x010571F2)], work=2114*
192: 0x06FC [0x1C] WAIT(15* ticks)
193: 0x06FF [0x5D] SET_MUSIC_VOLUME(volume=0*, fade_time=120*)
194: 0x0704 [0x52] END_LOAD_SCHEDULER: End scheduler "s046" with entities [EventEntity, EventEntity], work=400*
195: 0x0713 [0x45] LOAD_SCHEDULED_TASK: Load scheduler "s047" with entities [EventEntity, EventEntity], work=[400*, 0*]
196: 0x0724 [0x2B] Klara (ID: 17134066/0x010571F2) [13349*]:
     "For today..."
197: 0x072B [0x1C] WAIT(120* ticks)
198: 0x072E [0x52] END_LOAD_SCHEDULER: End scheduler "s047" with entities [EventEntity, EventEntity], work=400*
199: 0x073D [0x45] LOAD_SCHEDULED_TASK: Load scheduler "s073" with entities [EventEntity, EventEntity], work=[400*, 0*]
200: 0x074E [0x1C] WAIT(75* ticks)
201: 0x0751 [0x52] END_LOAD_SCHEDULER: End scheduler "s073" with entities [EventEntity, EventEntity], work=400*
202: 0x0760 [0x45] LOAD_SCHEDULED_TASK: Load scheduler "s048" with entities [EventEntity, EventEntity], work=[400*, 0*]
203: 0x0771 [0x2B] Klara (ID: 17134066/0x010571F2) [13350*]:
     "Is the day I bathe my blade in your blood!"
204: 0x0778 [0x23] WAIT_FOR_DIALOG_INTERACTION
205: 0x0779 [0x53] WAIT_SCHEDULER_TASK: Wait for scheduler "ran0" with entities [Klara (ID: 17134066/0x010571F2), Klara (ID: 17134066/0x010571F2)]
206: 0x0786 [0x5C] MUSIC_CONTROL: Set Idle (Day) music to song 250*
207: 0x078A [0x5C] MUSIC_CONTROL: Set Idle (Night) music to song 250*
208: 0x078E [0x9A] WAIT_MUSIC_SERVER()
209: 0x078F [0x52] END_LOAD_SCHEDULER: End scheduler "s048" with entities [EventEntity, EventEntity], work=400*
210: 0x079E [0x45] LOAD_SCHEDULED_TASK: Load scheduler "s049" with entities [EventEntity, EventEntity], work=[400*, 0*]
211: 0x07AF [0x7C] Zeid (ID: 17134003/0x010571B3)->Render.Flags2 |= 0x00
212: 0x07B5 [0x2B] Zeid (ID: 17134003/0x010571B3) [13351*]:
     "...!?"
213: 0x07BC [0x23] WAIT_FOR_DIALOG_INTERACTION
214: 0x07BD [0x5B] LOAD_EXT_SCHEDULER: Load scheduler "dai3" with entities [Prien (ID: 17134065/0x010571F1), Prien (ID: 17134065/0x010571F1)], work=1298*
215: 0x07CC [0x52] END_LOAD_SCHEDULER: End scheduler "s049" with entities [EventEntity, EventEntity], work=400*
216: 0x07DB [0x45] LOAD_SCHEDULED_TASK: Load scheduler "s050" with entities [EventEntity, EventEntity], work=[400*, 0*]
217: 0x07EC [0x1C] WAIT(15* ticks)
218: 0x07EF [0xBA] SET_ENTITY_POSITION(entity_id=Zeid (ID: 17134003/0x010571B3), pos_x=106.892*, pos_z=-8.267*, pos_y=-20.193*, direction=87.5*)
219: 0x07FC [0x2B] Prien (ID: 17134065/0x010571F1) [13352*]:
     "K-Klara? I am not seeing the humor in this..."
220: 0x0803 [0x23] WAIT_FOR_DIALOG_INTERACTION
221: 0x0804 [0x80] LOAD_WAIT(entity=Zeid (ID: 17134003/0x010571B3))
222: 0x0809 [0x94] Zeid (ID: 17134003/0x010571B3)->Render.Flags3 ^= 0x01
223: 0x080F [0x5B] LOAD_EXT_SCHEDULER: Load scheduler "ran0" with entities [Zeid (ID: 17134003/0x010571B3), Zeid (ID: 17134003/0x010571B3)], work=2320*
224: 0x081E [0x1C] WAIT(10* ticks)
225: 0x0821 [0x52] END_LOAD_SCHEDULER: End scheduler "s050" with entities [EventEntity, EventEntity], work=400*
226: 0x0830 [0x45] LOAD_SCHEDULED_TASK: Load scheduler "s051" with entities [EventEntity, EventEntity], work=[400*, 0*]
227: 0x0841 [0x1C] WAIT(40* ticks)
228: 0x0844 [0x52] END_LOAD_SCHEDULER: End scheduler "s051" with entities [EventEntity, EventEntity], work=400*
229: 0x0853 [0x45] LOAD_SCHEDULED_TASK: Load scheduler "s052" with entities [EventEntity, EventEntity], work=[400*, 0*]
230: 0x0864 [0x2B] Klara (ID: 17134066/0x010571F2) [13353*]:
     "Zeid."
231: 0x086B [0x1C] WAIT(30* ticks)
232: 0x086E [0x2B] Zeid (ID: 17134003/0x010571B3) [12492*]:
     "...!"
233: 0x0875 [0x23] WAIT_FOR_DIALOG_INTERACTION
234: 0x0876 [0x52] END_LOAD_SCHEDULER: End scheduler "s052" with entities [EventEntity, EventEntity], work=400*
235: 0x0885 [0x45] LOAD_SCHEDULED_TASK: Load scheduler "s053" with entities [EventEntity, EventEntity], work=[400*, 0*]
236: 0x0896 [0x2B] Klara (ID: 17134066/0x010571F2) [13354*]:
     "Don't forget the oath you swore."
237: 0x089D [0x23] WAIT_FOR_DIALOG_INTERACTION
238: 0x089E [0x52] END_LOAD_SCHEDULER: End scheduler "s053" with entities [EventEntity, EventEntity], work=400*
239: 0x08AD [0x45] LOAD_SCHEDULED_TASK: Load scheduler "s054" with entities [EventEntity, EventEntity], work=[400*, 0*]
240: 0x08BE [0x1C] WAIT(120* ticks)
241: 0x08C1 [0x52] END_LOAD_SCHEDULER: End scheduler "s054" with entities [EventEntity, EventEntity], work=400*
242: 0x08D0 [0x45] LOAD_SCHEDULED_TASK: Load scheduler "s055" with entities [EventEntity, EventEntity], work=[400*, 0*]
243: 0x08E1 [0x5B] LOAD_EXT_SCHEDULER: Load scheduler "ran1" with entities [Zeid (ID: 17134003/0x010571B3), Zeid (ID: 17134003/0x010571B3)], work=2320*
244: 0x08F0 [0x1C] WAIT(60* ticks)
245: 0x08F3 [0x2B] Zeid (ID: 17134003/0x010571B3) [12926*]:
     "..."
246: 0x08FA [0x23] WAIT_FOR_DIALOG_INTERACTION
247: 0x08FB [0x53] WAIT_SCHEDULER_TASK: Wait for scheduler "ran1" with entities [Zeid (ID: 17134003/0x010571B3), Zeid (ID: 17134003/0x010571B3)]
248: 0x0908 [0x52] END_LOAD_SCHEDULER: End scheduler "s055" with entities [EventEntity, EventEntity], work=400*
249: 0x0917 [0x45] LOAD_SCHEDULED_TASK: Load scheduler "s056" with entities [EventEntity, EventEntity], work=[400*, 0*]
250: 0x0928 [0x5B] LOAD_EXT_SCHEDULER: Load scheduler "ran1" with entities [Klara (ID: 17134066/0x010571F2), Klara (ID: 17134066/0x010571F2)], work=2114*
251: 0x0937 [0x5B] LOAD_EXT_SCHEDULER: Load scheduler "ran0" with entities [Prien (ID: 17134065/0x010571F1), Prien (ID: 17134065/0x010571F1)], work=2387*
252: 0x0946 [0x1C] WAIT(150* ticks)
253: 0x0949 [0x52] END_LOAD_SCHEDULER: End scheduler "s056" with entities [EventEntity, EventEntity], work=400*
254: 0x0958 [0x45] LOAD_SCHEDULED_TASK: Load scheduler "s057" with entities [EventEntity, EventEntity], work=[400*, 0*]
255: 0x0969 [0x2F] Volker (ID: 17134004/0x010571B4)->Render.Flags0 &= ~0x80000 // Bit 19
256: 0x096F [0x4E] SET_ENTITY_HIDE_FLAG: Show Volker (ID: 17134004/0x010571B4)
257: 0x0975 [0xBA] SET_ENTITY_POSITION(entity_id=Volker (ID: 17134004/0x010571B4), pos_x=113.953*, pos_z=-8.491*, pos_y=-20.170*, direction=149.8*)
258: 0x0982 [0x1C] WAIT(150* ticks)
259: 0x0985 [0x52] END_LOAD_SCHEDULER: End scheduler "s057" with entities [EventEntity, EventEntity], work=400*
260: 0x0994 [0x45] LOAD_SCHEDULED_TASK: Load scheduler "s103" with entities [EventEntity, EventEntity], work=[400*, 0*]
261: 0x09A5 [0x27] REQ_SET(priority=0x05, entity_id=Unnamed NPC (ID: 17134242/0x010572A2), tag_num=0x02)
262: 0x09AC [0x1C] WAIT(30* ticks)
263: 0x09AF [0x29] REQ_SET_WAIT(priority=0x05, entity_id=Volker (ID: 17134004/0x010571B4), tag_num=0x1E)
264: 0x09B6 [0x5B] LOAD_EXT_SCHEDULER: Load scheduler "hgs0" with entities [Volker (ID: 17134004/0x010571B4), Volker (ID: 17134004/0x010571B4)], work=202*
265: 0x09C5 [0x1C] WAIT(15* ticks)
266: 0x09C8 [0x52] END_LOAD_SCHEDULER: End scheduler "s103" with entities [EventEntity, EventEntity], work=400*
267: 0x09D7 [0x45] LOAD_SCHEDULED_TASK: Load scheduler "s058" with entities [EventEntity, EventEntity], work=[400*, 0*]
268: 0x09E8 [0x27] REQ_SET(priority=0x05, entity_id=Unnamed NPC (ID: 17134242/0x010572A2), tag_num=0x03)
269: 0x09EF [0x2B] Volker (ID: 17134004/0x010571B4) [13355*]:
     "C-Captain! What are you doing!?"
270: 0x09F6 [0x23] WAIT_FOR_DIALOG_INTERACTION
271: 0x09F7 [0x53] WAIT_SCHEDULER_TASK: Wait for scheduler "hgs0" with entities [Volker (ID: 17134004/0x010571B4), Volker (ID: 17134004/0x010571B4)]
272: 0x0A04 [0x52] END_LOAD_SCHEDULER: End scheduler "s058" with entities [EventEntity, EventEntity], work=400*
273: 0x0A13 [0x45] LOAD_SCHEDULED_TASK: Load scheduler "s059" with entities [EventEntity, EventEntity], work=[400*, 0*]
274: 0x0A24 [0x1C] WAIT(15* ticks)
275: 0x0A27 [0x6B] STOP_AND_IDLE: Volker (ID: 17134004/0x010571B4) stops current action and resets to idle (animation="idl0")
276: 0x0A30 [0x1C] WAIT(10* ticks)
277: 0x0A33 [0x5B] LOAD_EXT_SCHEDULER: Load scheduler "ran0" with entities [Volker (ID: 17134004/0x010571B4), Volker (ID: 17134004/0x010571B4)], work=1498*
278: 0x0A42 [0x5B] LOAD_EXT_SCHEDULER: Load scheduler "ran1" with entities [Prien (ID: 17134065/0x010571F1), Prien (ID: 17134065/0x010571F1)], work=2387*
279: 0x0A51 [0x1C] WAIT(15* ticks)
280: 0x0A54 [0x27] REQ_SET(priority=0x05, entity_id=Prien (ID: 17134065/0x010571F1), tag_num=0x0F)
281: 0x0A5B [0xBA] SET_ENTITY_POSITION(entity_id=Volker (ID: 17134004/0x010571B4), pos_x=106.975*, pos_z=-10.998*, pos_y=-20.178*, direction=108.4*)
282: 0x0A68 [0xBA] SET_ENTITY_POSITION(entity_id=Prien (ID: 17134065/0x010571F1), pos_x=106.975*, pos_z=-10.998*, pos_y=-20.178*, direction=108.4*)
283: 0x0A75 [0xBA] SET_ENTITY_POSITION(entity_id=LocalPlayer, pos_x=113.953*, pos_z=-8.491*, pos_y=-20.170*, direction=183.6*)
284: 0x0A82 [0x80] LOAD_WAIT(entity=Volker (ID: 17134004/0x010571B4))
285: 0x0A87 [0x94] Volker (ID: 17134004/0x010571B4)->Render.Flags3 ^= 0x01
286: 0x0A8D [0x94] Prien (ID: 17134065/0x010571F1)->Render.Flags3 ^= 0x01
287: 0x0A93 [0x1C] WAIT(75* ticks)
288: 0x0A96 [0x5B] LOAD_EXT_SCHEDULER: Load scheduler "ran2" with entities [Klara (ID: 17134066/0x010571F2), Klara (ID: 17134066/0x010571F2)], work=2115*
289: 0x0AA5 [0x5B] LOAD_EXT_SCHEDULER: Load scheduler "ran1" with entities [Volker (ID: 17134004/0x010571B4), Volker (ID: 17134004/0x010571B4)], work=1498*
290: 0x0AB4 [0xC5] LOAD_SCHEDULED_TASK_ALT3: Load scheduler 0x80013030 for entities [Klara (ID: 17134066/0x010571F2), Klara (ID: 17134066/0x010571F2)], work=109*, param=12403
291: 0x0AC5 [0x1C] WAIT(5* ticks)
292: 0x0AC8 [0x52] END_LOAD_SCHEDULER: End scheduler "s059" with entities [EventEntity, EventEntity], work=400*
293: 0x0AD7 [0x45] LOAD_SCHEDULED_TASK: Load scheduler "s131" with entities [EventEntity, EventEntity], work=[400*, 0*]
294: 0x0AE8 [0x1C] WAIT(35* ticks)
295: 0x0AEB [0x52] END_LOAD_SCHEDULER: End scheduler "s131" with entities [EventEntity, EventEntity], work=400*
296: 0x0AFA [0x45] LOAD_SCHEDULED_TASK: Load scheduler "s132" with entities [EventEntity, EventEntity], work=[400*, 0*]
297: 0x0B0B [0x1C] WAIT(120* ticks)
298: 0x0B0E [0x52] END_LOAD_SCHEDULER: End scheduler "s132" with entities [EventEntity, EventEntity], work=400*
299: 0x0B1D [0x45] LOAD_SCHEDULED_TASK: Load scheduler "s062" with entities [EventEntity, EventEntity], work=[400*, 0*]
300: 0x0B2E [0x1C] WAIT(90* ticks)
301: 0x0B31 [0x52] END_LOAD_SCHEDULER: End scheduler "s062" with entities [EventEntity, EventEntity], work=400*
302: 0x0B40 [0x45] LOAD_SCHEDULED_TASK: Load scheduler "s074" with entities [EventEntity, EventEntity], work=[400*, 0*]
303: 0x0B51 [0x1C] WAIT(40* ticks)
304: 0x0B54 [0x52] END_LOAD_SCHEDULER: End scheduler "s074" with entities [EventEntity, EventEntity], work=400*
305: 0x0B63 [0x45] LOAD_SCHEDULED_TASK: Load scheduler "s064" with entities [EventEntity, EventEntity], work=[400*, 0*]
306: 0x0B74 [0x1C] WAIT(250* ticks)
307: 0x0B77 [0xC5] LOAD_SCHEDULED_TASK_ALT3: Load scheduler 0x80013030 for entities [Volker (ID: 17134004/0x010571B4), Volker (ID: 17134004/0x010571B4)], work=110*, param=12403
308: 0x0B88 [0x5B] LOAD_EXT_SCHEDULER: Load scheduler "ran4" with entities [Klara (ID: 17134066/0x010571F2), Klara (ID: 17134066/0x010571F2)], work=2115*
309: 0x0B97 [0xC5] LOAD_SCHEDULED_TASK_ALT3: Load scheduler 0x80013130 for entities [Klara (ID: 17134066/0x010571F2), Klara (ID: 17134066/0x010571F2)], work=109*, param=12403
310: 0x0BA8 [0x1C] WAIT(10* ticks)
311: 0x0BAB [0x52] END_LOAD_SCHEDULER: End scheduler "s064" with entities [EventEntity, EventEntity], work=400*
312: 0x0BBA [0x45] LOAD_SCHEDULED_TASK: Load scheduler "s063" with entities [EventEntity, EventEntity], work=[400*, 0*]
313: 0x0BCB [0x1C] WAIT(40* ticks)
314: 0x0BCE [0x52] END_LOAD_SCHEDULER: End scheduler "s063" with entities [EventEntity, EventEntity], work=400*
315: 0x0BDD [0x45] LOAD_SCHEDULED_TASK: Load scheduler "s066" with entities [EventEntity, EventEntity], work=[400*, 0*]
316: 0x0BEE [0x1C] WAIT(40* ticks)
317: 0x0BF1 [0x52] END_LOAD_SCHEDULER: End scheduler "s066" with entities [EventEntity, EventEntity], work=400*
318: 0x0C00 [0x45] LOAD_SCHEDULED_TASK: Load scheduler "s065" with entities [EventEntity, EventEntity], work=[400*, 0*]
319: 0x0C11 [0x1C] WAIT(30* ticks)
320: 0x0C14 [0x9F] LOAD_SCHEDULED_TASK_ALT: Load scheduler "str0" with entities [EventEntity, EventEntity], work=[127*, 0*]
321: 0x0C25 [0x1C] WAIT(20* ticks)
322: 0x0C28 [0x9F] LOAD_SCHEDULED_TASK_ALT: Load scheduler "kill" with entities [EventEntity, EventEntity], work=[127*, 0*]
323: 0x0C39 [0x1C] WAIT(40* ticks)
324: 0x0C3C [0x52] END_LOAD_SCHEDULER: End scheduler "s065" with entities [EventEntity, EventEntity], work=400*
325: 0x0C4B [0x45] LOAD_SCHEDULED_TASK: Load scheduler "s083" with entities [EventEntity, EventEntity], work=[400*, 0*]
326: 0x0C5C [0x1C] WAIT(90* ticks)
327: 0x0C5F [0x79] Zeid (ID: 17134003/0x010571B3) looks at Klara (ID: 17134066/0x010571F2) (Basic look)
328: 0x0C69 [0x1C] WAIT(30* ticks)
329: 0x0C6C [0x52] END_LOAD_SCHEDULER: End scheduler "s083" with entities [EventEntity, EventEntity], work=400*
330: 0x0C7B [0x45] LOAD_SCHEDULED_TASK: Load scheduler "s067" with entities [EventEntity, EventEntity], work=[400*, 0*]
331: 0x0C8C [0x2B] Zeid (ID: 17134003/0x010571B3) [13356*]:
     "!!!"
332: 0x0C93 [0x23] WAIT_FOR_DIALOG_INTERACTION
333: 0x0C94 [0x7C] Zeid (ID: 17134003/0x010571B3)->Render.Flags2 |= 0x01
334: 0x0C9A [0x52] END_LOAD_SCHEDULER: End scheduler "s067" with entities [EventEntity, EventEntity], work=400*
335: 0x0CA9 [0x45] LOAD_SCHEDULED_TASK: Load scheduler "s068" with entities [EventEntity, EventEntity], work=[400*, 0*]
336: 0x0CBA [0x5B] LOAD_EXT_SCHEDULER: Load scheduler "ran5" with entities [Klara (ID: 17134066/0x010571F2), Klara (ID: 17134066/0x010571F2)], work=2116*
337: 0x0CC9 [0x7B] Zeid (ID: 17134003/0x010571B3) stops talking
338: 0x0CCE [0x2B] Klara (ID: 17134066/0x010571F2) [13357*]:
     "I had expected better of you, Volker. I will not tolerate insubordination in any shape or form."
339: 0x0CD5 [0x23] WAIT_FOR_DIALOG_INTERACTION
340: 0x0CD6 [0x53] WAIT_SCHEDULER_TASK: Wait for scheduler "ran5" with entities [Klara (ID: 17134066/0x010571F2), Klara (ID: 17134066/0x010571F2)]
341: 0x0CE3 [0x52] END_LOAD_SCHEDULER: End scheduler "s068" with entities [EventEntity, EventEntity], work=400*
342: 0x0CF2 [0x45] LOAD_SCHEDULED_TASK: Load scheduler "s069" with entities [EventEntity, EventEntity], work=[400*, 0*]
343: 0x0D03 [0x1C] WAIT(120* ticks)
344: 0x0D06 [0x52] END_LOAD_SCHEDULER: End scheduler "s069" with entities [EventEntity, EventEntity], work=400*
345: 0x0D15 [0x45] LOAD_SCHEDULED_TASK: Load scheduler "s070" with entities [EventEntity, EventEntity], work=[400*, 0*]
346: 0x0D26 [0x27] REQ_SET(priority=0x05, entity_id=Unnamed NPC (ID: 17134242/0x010572A2), tag_num=0x02)
347: 0x0D2D [0x1C] WAIT(30* ticks)
348: 0x0D30 [0x29] REQ_SET_WAIT(priority=0x05, entity_id=LocalPlayer, tag_num=0x3B)
349: 0x0D37 [0x4B] UPDATE_ENTITY_YAW(entity=LocalPlayer, yaw=13.8*)
350: 0x0D3E [0x79] LocalPlayer looks at Volker (ID: 17134004/0x010571B4) (Basic look)
351: 0x0D48 [0x1C] WAIT(30* ticks)
352: 0x0D4B [0x6E] LocalPlayer uses emote 21*
353: 0x0D52 [0x99] Wait for LocalPlayer animation to complete
354: 0x0D57 [0x1C] WAIT(100* ticks)
355: 0x0D5A [0x52] END_LOAD_SCHEDULER: End scheduler "s070" with entities [EventEntity, EventEntity], work=400*
356: 0x0D69 [0x45] LOAD_SCHEDULED_TASK: Load scheduler "s071" with entities [EventEntity, EventEntity], work=[400*, 0*]
357: 0x0D7A [0x5B] LOAD_EXT_SCHEDULER: Load scheduler "ran6" with entities [Klara (ID: 17134066/0x010571F2), Klara (ID: 17134066/0x010571F2)], work=2116*
358: 0x0D89 [0x1C] WAIT(100* ticks)
359: 0x0D8C [0x5B] LOAD_EXT_SCHEDULER: Load scheduler "ran2" with entities [Prien (ID: 17134065/0x010571F1), Prien (ID: 17134065/0x010571F1)], work=2387*
360: 0x0D9B [0x1C] WAIT(80* ticks)
361: 0x0D9E [0x52] END_LOAD_SCHEDULER: End scheduler "s071" with entities [EventEntity, EventEntity], work=400*
362: 0x0DAD [0x45] LOAD_SCHEDULED_TASK: Load scheduler "s072" with entities [EventEntity, EventEntity], work=[400*, 0*]
363: 0x0DBE [0x27] REQ_SET(priority=0x05, entity_id=Unnamed NPC (ID: 17134242/0x010572A2), tag_num=0x03)
364: 0x0DC5 [0x1C] WAIT(15* ticks)
365: 0x0DC8 [0xBA] SET_ENTITY_POSITION(entity_id=LocalPlayer, pos_x=107.558*, pos_z=-8.416*, pos_y=-20.193*, direction=345.7*)
366: 0x0DD5 [0x27] REQ_SET(priority=0x05, entity_id=LocalPlayer, tag_num=0x14)
367: 0x0DDC [0x5B] LOAD_EXT_SCHEDULER: Load scheduler "ran7" with entities [Klara (ID: 17134066/0x010571F2), Klara (ID: 17134066/0x010571F2)], work=2116*
368: 0x0DEB [0x2B] Prien (ID: 17134065/0x010571F1) [13359*]:
     "Taking a blade to one of your own..."
369: 0x0DF2 [0x23] WAIT_FOR_DIALOG_INTERACTION
370: 0x0DF3 [0x53] WAIT_SCHEDULER_TASK: Wait for scheduler "ran2" with entities [Prien (ID: 17134065/0x010571F1), Prien (ID: 17134065/0x010571F1)]
371: 0x0E00 [0x52] END_LOAD_SCHEDULER: End scheduler "s072" with entities [EventEntity, EventEntity], work=400*
372: 0x0E0F [0x45] LOAD_SCHEDULED_TASK: Load scheduler "s075" with entities [EventEntity, EventEntity], work=[400*, 0*]
373: 0x0E20 [0x5B] LOAD_EXT_SCHEDULER: Load scheduler "raa2" with entities [Prien (ID: 17134065/0x010571F1), Prien (ID: 17134065/0x010571F1)], work=2387*
374: 0x0E2F [0x1C] WAIT(15* ticks)
375: 0x0E32 [0x2B] Prien (ID: 17134065/0x010571F1) [13360*]:
     "What madness has taken you, Klara!?"
376: 0x0E39 [0x1C] WAIT(100* ticks)
377: 0x0E3C [0x5B] LOAD_EXT_SCHEDULER: Load scheduler "ran8" with entities [Klara (ID: 17134066/0x010571F2), Klara (ID: 17134066/0x010571F2)], work=2116*
378: 0x0E4B [0x5B] LOAD_EXT_SCHEDULER: Load scheduler "ran3" with entities [Prien (ID: 17134065/0x010571F1), Prien (ID: 17134065/0x010571F1)], work=2387*
379: 0x0E5A [0x1C] WAIT(30* ticks)
380: 0x0E5D [0x52] END_LOAD_SCHEDULER: End scheduler "s075" with entities [EventEntity, EventEntity], work=400*
381: 0x0E6C [0x45] LOAD_SCHEDULED_TASK: Load scheduler "s076" with entities [EventEntity, EventEntity], work=[400*, 0*]
382: 0x0E7D [0x1C] WAIT(30* ticks)
383: 0x0E80 [0x2B] Prien (ID: 17134065/0x010571F1) [13361*]:
     "Ugh!"
384: 0x0E87 [0x1C] WAIT(30* ticks)
385: 0x0E8A [0x45] LOAD_SCHEDULED_TASK: Load scheduler "s077" with entities [EventEntity, EventEntity], work=[400*, 0*]
386: 0x0E9B [0x1C] WAIT(90* ticks)
387: 0x0E9E [0x52] END_LOAD_SCHEDULER: End scheduler "s076" with entities [EventEntity, EventEntity], work=400*
388: 0x0EAD [0x45] LOAD_SCHEDULED_TASK: Load scheduler "s097" with entities [EventEntity, EventEntity], work=[400*, 0*]
389: 0x0EBE [0x53] WAIT_SCHEDULER_TASK: Wait for scheduler "ran3" with entities [Prien (ID: 17134065/0x010571F1), Prien (ID: 17134065/0x010571F1)]
390: 0x0ECB [0x52] END_LOAD_SCHEDULER: End scheduler "s097" with entities [EventEntity, EventEntity], work=400*
391: 0x0EDA [0x45] LOAD_SCHEDULED_TASK: Load scheduler "s078" with entities [EventEntity, EventEntity], work=[400*, 0*]
392: 0x0EEB [0x5B] LOAD_EXT_SCHEDULER: Load scheduler "ran9" with entities [Klara (ID: 17134066/0x010571F2), Klara (ID: 17134066/0x010571F2)], work=2117*
393: 0x0EFA [0x5B] LOAD_EXT_SCHEDULER: Load scheduler "ran4" with entities [Prien (ID: 17134065/0x010571F1), Prien (ID: 17134065/0x010571F1)], work=2387*
394: 0x0F09 [0x1C] WAIT(120* ticks)
395: 0x0F0C [0x5B] LOAD_EXT_SCHEDULER: Load scheduler "ran5" with entities [Prien (ID: 17134065/0x010571F1), Prien (ID: 17134065/0x010571F1)], work=2387*
396: 0x0F1B [0x52] END_LOAD_SCHEDULER: End scheduler "s078" with entities [EventEntity, EventEntity], work=400*
397: 0x0F2A [0x45] LOAD_SCHEDULED_TASK: Load scheduler "s079" with entities [EventEntity, EventEntity], work=[400*, 0*]
398: 0x0F3B [0x2B] Klara (ID: 17134066/0x010571F2) [13362*]:
     "He who would call himself the leader of a nation must learn to be gracious in defeat."
399: 0x0F42 [0x23] WAIT_FOR_DIALOG_INTERACTION
400: 0x0F43 [0x53] WAIT_SCHEDULER_TASK: Wait for scheduler "ran5" with entities [Prien (ID: 17134065/0x010571F1), Prien (ID: 17134065/0x010571F1)]
401: 0x0F50 [0x5B] LOAD_EXT_SCHEDULER: Load scheduler "rana" with entities [Klara (ID: 17134066/0x010571F2), Klara (ID: 17134066/0x010571F2)], work=2117*
402: 0x0F5F [0x1C] WAIT(60* ticks)
403: 0x0F62 [0x52] END_LOAD_SCHEDULER: End scheduler "s079" with entities [EventEntity, EventEntity], work=400*
404: 0x0F71 [0x45] LOAD_SCHEDULED_TASK: Load scheduler "s080" with entities [EventEntity, EventEntity], work=[400*, 0*]
405: 0x0F82 [0x2B] Klara (ID: 17134066/0x010571F2) [13363*]:
     "The time of parting is come. Farewell, President Prien of the Republic of Bastok!"
406: 0x0F89 [0x23] WAIT_FOR_DIALOG_INTERACTION
407: 0x0F8A [0x53] WAIT_SCHEDULER_TASK: Wait for scheduler "rana" with entities [Klara (ID: 17134066/0x010571F2), Klara (ID: 17134066/0x010571F2)]
408: 0x0F97 [0x5B] LOAD_EXT_SCHEDULER: Load scheduler "ranb" with entities [Klara (ID: 17134066/0x010571F2), Klara (ID: 17134066/0x010571F2)], work=2117*
409: 0x0FA6 [0x1C] WAIT(10* ticks)
410: 0x0FA9 [0x52] END_LOAD_SCHEDULER: End scheduler "s080" with entities [EventEntity, EventEntity], work=400*
411: 0x0FB8 [0x45] LOAD_SCHEDULED_TASK: Load scheduler "s081" with entities [EventEntity, EventEntity], work=[400*, 0*]
412: 0x0FC9 [0x1C] WAIT(50* ticks)
413: 0x0FCC [0x52] END_LOAD_SCHEDULER: End scheduler "s081" with entities [EventEntity, EventEntity], work=400*
414: 0x0FDB [0x45] LOAD_SCHEDULED_TASK: Load scheduler "s082" with entities [EventEntity, EventEntity], work=[400*, 0*]
415: 0x0FEC [0x4E] SET_ENTITY_HIDE_FLAG: Hide Klara (ID: 17134066/0x010571F2)
416: 0x0FF2 [0x5B] LOAD_EXT_SCHEDULER: Load scheduler "ran6" with entities [Prien (ID: 17134065/0x010571F1), Prien (ID: 17134065/0x010571F1)], work=2387*
417: 0x1001 [0x1C] WAIT(20* ticks)
418: 0x1004 [0x45] LOAD_SCHEDULED_TASK: Load scheduler "who0" with entities [EventEntity, EventEntity], work=[201*, 0*]
419: 0x1015 [0x45] LOAD_SCHEDULED_TASK: Load scheduler "s142" with entities [EventEntity, EventEntity], work=[400*, 0*]
420: 0x1026 [0x55] WAIT_LOAD_SCHEDULER: Wait for scheduler "who0" with entities [EventEntity, EventEntity], work=201*
421: 0x1035 [0x52] END_LOAD_SCHEDULER: End scheduler "s082" with entities [EventEntity, EventEntity], work=400*
422: 0x1044 [0x2F] Nicolaus (ID: 17134067/0x010571F3)->Render.Flags0 &= ~0x80000 // Bit 19
423: 0x104A [0x2F] Five Moons (ID: 17134068/0x010571F4)->Render.Flags0 &= ~0x80000 // Bit 19
424: 0x1050 [0x4E] SET_ENTITY_HIDE_FLAG: Show Nicolaus (ID: 17134067/0x010571F3)
425: 0x1056 [0x4E] SET_ENTITY_HIDE_FLAG: Show Five Moons (ID: 17134068/0x010571F4)
426: 0x105C [0x4E] SET_ENTITY_HIDE_FLAG: Show Klara (ID: 17134066/0x010571F2)
427: 0x1062 [0xBA] SET_ENTITY_POSITION(entity_id=Klara (ID: 17134066/0x010571F2), pos_x=107.001*, pos_z=-10.819*, pos_y=-20.178*, direction=108.4*)
428: 0x106F [0xBA] SET_ENTITY_POSITION(entity_id=Zeid (ID: 17134003/0x010571B3), pos_x=106.975*, pos_z=-10.998*, pos_y=-20.178*, direction=108.4*)
429: 0x107C [0xBA] SET_ENTITY_POSITION(entity_id=Nicolaus (ID: 17134067/0x010571F3), pos_x=113.888*, pos_z=-4.175*, pos_y=-20.170*, direction=89.9*)
430: 0x1089 [0xBA] SET_ENTITY_POSITION(entity_id=Five Moons (ID: 17134068/0x010571F4), pos_x=115.169*, pos_z=-2.095*, pos_y=-20.170*, direction=89.9*)
431: 0x1096 [0x80] LOAD_WAIT(entity=Zeid (ID: 17134003/0x010571B3))
432: 0x109B [0x80] LOAD_WAIT(entity=Nicolaus (ID: 17134067/0x010571F3))
433: 0x10A0 [0x80] LOAD_WAIT(entity=Five Moons (ID: 17134068/0x010571F4))
434: 0x10A5 [0x80] LOAD_WAIT(entity=Klara (ID: 17134066/0x010571F2))
