# 17134128 - Five Moons

## Common Data

| Field            | Value                       |
|------------------|-----------------------------|
| Zone             | Bastok Markets [S] (ID: 87) |
| Block Size       | 588 bytes                   |
| Total Events     | 28                          |
| References Count | 36                          |

## List of Events

| Event ID                   | Entrypoint   |   Size |   Instructions |
|----------------------------|--------------|--------|----------------|
| [65535](#event-65535)      | 0x0000       |      1 |              1 |
| [65535.1](#event-655351)   | 0x0001       |      1 |              1 |
| [65535.2](#event-655352)   | 0x0002       |     18 |              4 |
| [65535.3](#event-655353)   | 0x0014       |     10 |              2 |
| [65535.4](#event-655354)   | 0x001E       |      9 |              3 |
| [65535.5](#event-655355)   | 0x0027       |      9 |              3 |
| [65535.6](#event-655356)   | 0x0030       |     10 |              2 |
| [65535.7](#event-655357)   | 0x003A       |     10 |              2 |
| [180](#event-180)          | 0x0044       |      1 |              1 |
| [181](#event-181)          | 0x0045       |      1 |              1 |
| [182](#event-182)          | 0x0046       |      1 |              1 |
| [345](#event-345)          | 0x0047       |      1 |              1 |
| [346](#event-346)          | 0x0048       |      1 |              1 |
| [347](#event-347)          | 0x0049       |      1 |              1 |
| [348](#event-348)          | 0x004A       |      1 |              1 |
| [349](#event-349)          | 0x004B       |      1 |              1 |
| [211](#event-211)          | 0x004C       |      1 |              1 |
| [65535.8](#event-655358)   | 0x004D       |     21 |              5 |
| [65535.9](#event-655359)   | 0x0062       |     21 |              5 |
| [65535.10](#event-6553510) | 0x0077       |     19 |              5 |
| [65535.11](#event-6553511) | 0x008A       |     16 |              4 |
| [65535.12](#event-6553512) | 0x009A       |     13 |              3 |
| [65535.13](#event-6553513) | 0x00A7       |     25 |              7 |
| [65535.14](#event-6553514) | 0x00C0       |     32 |              8 |
| [65535.15](#event-6553515) | 0x00E0       |     22 |              6 |
| [65535.16](#event-6553516) | 0x00F6       |     22 |              6 |
| [65535.17](#event-6553517) | 0x010C       |     28 |              6 |
| [65535.18](#event-6553518) | 0x0128       |     19 |              5 |

## DAT References (imed_data)

|   Index | Hex Value   |   Dec Value |
|---------|-------------|-------------|
|       0 | 0x0000      |           0 |
|       1 | 0x0001      |           1 |
|       2 | 0x0080      |         128 |
|       3 | 0x000D      |          13 |
|       4 | 0xFFFCEE4B  |  4294766155 |
|       5 | 0xFFFFFBC9  |  4294966217 |
|       6 | 0xFFFFD8F2  |  4294957298 |
|       7 | 0x0A5A      |        2650 |
|       8 | 0x000C      |          12 |
|       9 | 0xFFFCED02  |  4294765826 |
|      10 | 0xFFFFFB8F  |  4294966159 |
|      11 | 0x0BB8      |        3000 |
|      12 | 0x001E      |          30 |
|      13 | 0x0102      |         258 |
|      14 | 0x0078      |         120 |
|      15 | 0x003C      |          60 |
|      16 | 0x0015      |          21 |
|      17 | 0x0028      |          40 |
|      18 | 0xFFFCF966  |  4294768998 |
|      19 | 0x06F7      |        1783 |
|      20 | 0xFFFD00B0  |  4294770864 |
|      21 | 0x2D2D      |       11565 |
|      22 | 0x15AD2     |       88786 |
|      23 | 0x17C1      |        6081 |
|      24 | 0xFFFFB136  |  4294947126 |
|      25 | 0x15A76     |       88694 |
|      26 | 0x23EC      |        9196 |
|      27 | 0x16FA8     |       94120 |
|      28 | 0x23BD      |        9149 |
|      29 | 0x15B92     |       88978 |
|      30 | 0x2BB7      |       11191 |
|      31 | 0x15CD1     |       89297 |
|      32 | 0x355C      |       13660 |
|      33 | 0x16497     |       91287 |
|      34 | 0x2D3F      |       11583 |
|      35 | 0xFFFFB127  |  4294947111 |

## Events

### Event 65535

#### Metadata

| Field        | Value   |
|--------------|---------|
| Entrypoint   | 0x0000  |
| Data Size    | 1 bytes |
| Instructions | 1       |

```
      00 01 02 03 04 05 06 07  08 09 0A 0B 0C 0D 0E 0F
      -- -- -- -- -- -- -- --  -- -- -- -- -- -- -- --
0000: 00                                                .               
```

#### Opcodes

```
  0: 0x0000 [0x00] END_REQSTACK()
```

### Event 65535.1

#### Metadata

| Field        | Value   |
|--------------|---------|
| Entrypoint   | 0x0001  |
| Data Size    | 1 bytes |
| Instructions | 1       |

```
      00 01 02 03 04 05 06 07  08 09 0A 0B 0C 0D 0E 0F
      -- -- -- -- -- -- -- --  -- -- -- -- -- -- -- --
0000:    00                                              .              
```

#### Opcodes

```
  0: 0x0001 [0x00] END_REQSTACK()
```

### Event 65535.2

#### Metadata

| Field        | Value    |
|--------------|----------|
| Entrypoint   | 0x0002   |
| Data Size    | 18 bytes |
| Instructions | 4        |

```
      00 01 02 03 04 05 06 07  08 09 0A 0B 0C 0D 0E 0F
      -- -- -- -- -- -- -- --  -- -- -- -- -- -- -- --
0000:       22 00 2F 00 F8 FF  FF 7F 6C F8 FF FF 7F 00    "./.....l.....
0010: 80 01 80 00                                       ....            
```

#### Opcodes

```
  0: 0x0002 [0x22] ENTITY_HIDE_FLAG(enabled=0x00)
  1: 0x0004 [0x2F] EventEntity->Render.Flags0 &= ~0x80000 // Bit 19
  2: 0x000A [0x6C] FADE_ENTITY_COLOR(entity_id=EventEntity, end_alpha=0*, fade_time=1*)
  3: 0x0013 [0x00] END_REQSTACK()
```

### Event 65535.3

#### Metadata

| Field        | Value    |
|--------------|----------|
| Entrypoint   | 0x0014   |
| Data Size    | 10 bytes |
| Instructions | 2        |

```
      00 01 02 03 04 05 06 07  08 09 0A 0B 0C 0D 0E 0F
      -- -- -- -- -- -- -- --  -- -- -- -- -- -- -- --
0010:             6C F8 FF FF  7F 02 80 01 80 00            l.........  
```

#### Opcodes

```
  0: 0x0014 [0x6C] FADE_ENTITY_COLOR(entity_id=EventEntity, end_alpha=128*, fade_time=1*)
  1: 0x001D [0x00] END_REQSTACK()
```

### Event 65535.4

#### Metadata

| Field        | Value   |
|--------------|---------|
| Entrypoint   | 0x001E  |
| Data Size    | 9 bytes |
| Instructions | 3       |

```
      00 01 02 03 04 05 06 07  08 09 0A 0B 0C 0D 0E 0F
      -- -- -- -- -- -- -- --  -- -- -- -- -- -- -- --
0010:                                            22 00                ".
0020: 2F 00 F8 FF FF 7F 00                              /......         
```

#### Opcodes

```
  0: 0x001E [0x22] ENTITY_HIDE_FLAG(enabled=0x00)
  1: 0x0020 [0x2F] EventEntity->Render.Flags0 &= ~0x80000 // Bit 19
  2: 0x0026 [0x00] END_REQSTACK()
```

### Event 65535.5

#### Metadata

| Field        | Value   |
|--------------|---------|
| Entrypoint   | 0x0027  |
| Data Size    | 9 bytes |
| Instructions | 3       |

```
      00 01 02 03 04 05 06 07  08 09 0A 0B 0C 0D 0E 0F
      -- -- -- -- -- -- -- --  -- -- -- -- -- -- -- --
0020:                      22  01 2F 01 F8 FF FF 7F 00         "./......
```

#### Opcodes

```
  0: 0x0027 [0x22] ENTITY_HIDE_FLAG(enabled=0x01)
  1: 0x0029 [0x2F] EventEntity->Render.Flags0 |= 0x80000 // Bit 19
  2: 0x002F [0x00] END_REQSTACK()
```

### Event 65535.6

#### Metadata

| Field        | Value    |
|--------------|----------|
| Entrypoint   | 0x0030   |
| Data Size    | 10 bytes |
| Instructions | 2        |

```
      00 01 02 03 04 05 06 07  08 09 0A 0B 0C 0D 0E 0F
      -- -- -- -- -- -- -- --  -- -- -- -- -- -- -- --
0030: 6C F8 FF FF 7F 00 80 01  80 00                    l.........      
```

#### Opcodes

```
  0: 0x0030 [0x6C] FADE_ENTITY_COLOR(entity_id=EventEntity, end_alpha=0*, fade_time=1*)
  1: 0x0039 [0x00] END_REQSTACK()
```

### Event 65535.7

#### Metadata

| Field        | Value    |
|--------------|----------|
| Entrypoint   | 0x003A   |
| Data Size    | 10 bytes |
| Instructions | 2        |

```
      00 01 02 03 04 05 06 07  08 09 0A 0B 0C 0D 0E 0F
      -- -- -- -- -- -- -- --  -- -- -- -- -- -- -- --
0030:                                6C F8 FF FF 7F 02            l.....
0040: 80 01 80 00                                       ....            
```

#### Opcodes

```
  0: 0x003A [0x6C] FADE_ENTITY_COLOR(entity_id=EventEntity, end_alpha=128*, fade_time=1*)
  1: 0x0043 [0x00] END_REQSTACK()
```

### Event 180

#### Metadata

| Field        | Value   |
|--------------|---------|
| Entrypoint   | 0x0044  |
| Data Size    | 1 bytes |
| Instructions | 1       |

```
      00 01 02 03 04 05 06 07  08 09 0A 0B 0C 0D 0E 0F
      -- -- -- -- -- -- -- --  -- -- -- -- -- -- -- --
0040:             00                                        .           
```

#### Opcodes

```
  0: 0x0044 [0x00] END_REQSTACK()
```

### Event 181

#### Metadata

| Field        | Value   |
|--------------|---------|
| Entrypoint   | 0x0045  |
| Data Size    | 1 bytes |
| Instructions | 1       |

```
      00 01 02 03 04 05 06 07  08 09 0A 0B 0C 0D 0E 0F
      -- -- -- -- -- -- -- --  -- -- -- -- -- -- -- --
0040:                00                                      .          
```

#### Opcodes

```
  0: 0x0045 [0x00] END_REQSTACK()
```

### Event 182

#### Metadata

| Field        | Value   |
|--------------|---------|
| Entrypoint   | 0x0046  |
| Data Size    | 1 bytes |
| Instructions | 1       |

```
      00 01 02 03 04 05 06 07  08 09 0A 0B 0C 0D 0E 0F
      -- -- -- -- -- -- -- --  -- -- -- -- -- -- -- --
0040:                   00                                    .         
```

#### Opcodes

```
  0: 0x0046 [0x00] END_REQSTACK()
```

### Event 345

#### Metadata

| Field        | Value   |
|--------------|---------|
| Entrypoint   | 0x0047  |
| Data Size    | 1 bytes |
| Instructions | 1       |

```
      00 01 02 03 04 05 06 07  08 09 0A 0B 0C 0D 0E 0F
      -- -- -- -- -- -- -- --  -- -- -- -- -- -- -- --
0040:                      00                                  .        
```

#### Opcodes

```
  0: 0x0047 [0x00] END_REQSTACK()
```

### Event 346

#### Metadata

| Field        | Value   |
|--------------|---------|
| Entrypoint   | 0x0048  |
| Data Size    | 1 bytes |
| Instructions | 1       |

```
      00 01 02 03 04 05 06 07  08 09 0A 0B 0C 0D 0E 0F
      -- -- -- -- -- -- -- --  -- -- -- -- -- -- -- --
0040:                          00                               .       
```

#### Opcodes

```
  0: 0x0048 [0x00] END_REQSTACK()
```

### Event 347

#### Metadata

| Field        | Value   |
|--------------|---------|
| Entrypoint   | 0x0049  |
| Data Size    | 1 bytes |
| Instructions | 1       |

```
      00 01 02 03 04 05 06 07  08 09 0A 0B 0C 0D 0E 0F
      -- -- -- -- -- -- -- --  -- -- -- -- -- -- -- --
0040:                             00                             .      
```

#### Opcodes

```
  0: 0x0049 [0x00] END_REQSTACK()
```

### Event 348

#### Metadata

| Field        | Value   |
|--------------|---------|
| Entrypoint   | 0x004A  |
| Data Size    | 1 bytes |
| Instructions | 1       |

```
      00 01 02 03 04 05 06 07  08 09 0A 0B 0C 0D 0E 0F
      -- -- -- -- -- -- -- --  -- -- -- -- -- -- -- --
0040:                                00                           .     
```

#### Opcodes

```
  0: 0x004A [0x00] END_REQSTACK()
```

### Event 349

#### Metadata

| Field        | Value   |
|--------------|---------|
| Entrypoint   | 0x004B  |
| Data Size    | 1 bytes |
| Instructions | 1       |

```
      00 01 02 03 04 05 06 07  08 09 0A 0B 0C 0D 0E 0F
      -- -- -- -- -- -- -- --  -- -- -- -- -- -- -- --
0040:                                   00                         .    
```

#### Opcodes

```
  0: 0x004B [0x00] END_REQSTACK()
```

### Event 211

#### Metadata

| Field        | Value   |
|--------------|---------|
| Entrypoint   | 0x004C  |
| Data Size    | 1 bytes |
| Instructions | 1       |

```
      00 01 02 03 04 05 06 07  08 09 0A 0B 0C 0D 0E 0F
      -- -- -- -- -- -- -- --  -- -- -- -- -- -- -- --
0040:                                      00                       .   
```

#### Opcodes

```
  0: 0x004C [0x00] END_REQSTACK()
```

### Event 65535.8

#### Metadata

| Field        | Value    |
|--------------|----------|
| Entrypoint   | 0x004D   |
| Data Size    | 21 bytes |
| Instructions | 5        |

```
      00 01 02 03 04 05 06 07  08 09 0A 0B 0C 0D 0E 0F
      -- -- -- -- -- -- -- --  -- -- -- -- -- -- -- --
0040:                                         32 03 80               2..
0050: 1F 00 04 80 05 80 06 80  1F 01 4B 30 72 05 01 07  ..........K0r...
0060: 80 00                                             ..              
```

#### Opcodes

```
  0: 0x004D [0x32] ExtData[1]->MainSpeed = 13* * 0.1
  1: 0x0050 [0x1F] MOVE_ENTITY: EventEntity moves to X=-201.141*, Z=-1.079*, Y=-9.998*
  2: 0x0058 [0x1F] MOVE_ENTITY: Update entity position (mode=1)
  3: 0x005A [0x4B] UPDATE_ENTITY_YAW(entity=Five Moons (ID: 17134128/0x01057230), yaw=14.6°*)
  4: 0x0061 [0x00] END_REQSTACK()
```

### Event 65535.9

#### Metadata

| Field        | Value    |
|--------------|----------|
| Entrypoint   | 0x0062   |
| Data Size    | 21 bytes |
| Instructions | 5        |

```
      00 01 02 03 04 05 06 07  08 09 0A 0B 0C 0D 0E 0F
      -- -- -- -- -- -- -- --  -- -- -- -- -- -- -- --
0060:       32 08 80 1F 00 09  80 0A 80 06 80 1F 01 4B    2............K
0070: 30 72 05 01 0B 80 00                              0r.....         
```

#### Opcodes

```
  0: 0x0062 [0x32] ExtData[1]->MainSpeed = 12* * 0.1
  1: 0x0065 [0x1F] MOVE_ENTITY: EventEntity moves to X=-201.470*, Z=-1.137*, Y=-9.998*
  2: 0x006D [0x1F] MOVE_ENTITY: Update entity position (mode=1)
  3: 0x006F [0x4B] UPDATE_ENTITY_YAW(entity=Five Moons (ID: 17134128/0x01057230), yaw=16.5°*)
  4: 0x0076 [0x00] END_REQSTACK()
```

### Event 65535.10

#### Metadata

| Field        | Value    |
|--------------|----------|
| Entrypoint   | 0x0077   |
| Data Size    | 19 bytes |
| Instructions | 5        |

```
      00 01 02 03 04 05 06 07  08 09 0A 0B 0C 0D 0E 0F
      -- -- -- -- -- -- -- --  -- -- -- -- -- -- -- --
0070:                      1C  0C 80 6E 30 72 05 01 0D         ...n0r...
0080: 80 99 30 72 05 01 1C 0E  80 00                    ..0r......      
```

#### Opcodes

```
  0: 0x0077 [0x1C] WAIT(30* ticks)
  1: 0x007A [0x6E] Five Moons (ID: 17134128/0x01057230) uses emote 258*
  2: 0x0081 [0x99] Wait for Five Moons (ID: 17134128/0x01057230) animation to complete
  3: 0x0086 [0x1C] WAIT(120* ticks)
  4: 0x0089 [0x00] END_REQSTACK()
```

### Event 65535.11

#### Metadata

| Field        | Value    |
|--------------|----------|
| Entrypoint   | 0x008A   |
| Data Size    | 16 bytes |
| Instructions | 4        |

```
      00 01 02 03 04 05 06 07  08 09 0A 0B 0C 0D 0E 0F
      -- -- -- -- -- -- -- --  -- -- -- -- -- -- -- --
0080:                                1C 0F 80 6E 30 72            ...n0r
0090: 05 01 10 80 99 30 72 05  01 00                    .....0r...      
```

#### Opcodes

```
  0: 0x008A [0x1C] WAIT(60* ticks)
  1: 0x008D [0x6E] Five Moons (ID: 17134128/0x01057230) uses emote 21*
  2: 0x0094 [0x99] Wait for Five Moons (ID: 17134128/0x01057230) animation to complete
  3: 0x0099 [0x00] END_REQSTACK()
```

### Event 65535.12

#### Metadata

| Field        | Value    |
|--------------|----------|
| Entrypoint   | 0x009A   |
| Data Size    | 13 bytes |
| Instructions | 3        |

```
      00 01 02 03 04 05 06 07  08 09 0A 0B 0C 0D 0E 0F
      -- -- -- -- -- -- -- --  -- -- -- -- -- -- -- --
0090:                                6E 30 72 05 01 10            n0r...
00A0: 80 99 30 72 05 01 00                              ..0r...         
```

#### Opcodes

```
  0: 0x009A [0x6E] Five Moons (ID: 17134128/0x01057230) uses emote 21*
  1: 0x00A1 [0x99] Wait for Five Moons (ID: 17134128/0x01057230) animation to complete
  2: 0x00A6 [0x00] END_REQSTACK()
```

### Event 65535.13

#### Metadata

| Field        | Value    |
|--------------|----------|
| Entrypoint   | 0x00A7   |
| Data Size    | 25 bytes |
| Instructions | 7        |

```
      00 01 02 03 04 05 06 07  08 09 0A 0B 0C 0D 0E 0F
      -- -- -- -- -- -- -- --  -- -- -- -- -- -- -- --
00A0:                      32  11 80 1F 00 12 80 13 80         2........
00B0: 06 80 1F 01 1F 00 14 80  15 80 06 80 1F 01 6F 00  ..............o.
```

#### Opcodes

```
  0: 0x00A7 [0x32] ExtData[1]->MainSpeed = 40* * 0.1
  1: 0x00AA [0x1F] MOVE_ENTITY: EventEntity moves to X=-198.298*, Z=1.783*, Y=-9.998*
  2: 0x00B2 [0x1F] MOVE_ENTITY: Update entity position (mode=1)
  3: 0x00B4 [0x1F] MOVE_ENTITY: EventEntity moves to X=-196.432*, Z=11.565*, Y=-9.998*
  4: 0x00BC [0x1F] MOVE_ENTITY: Update entity position (mode=1)
  5: 0x00BE [0x6F] WAIT_FRAME_DELAY: Yield until WaitTime reaches zero
  6: 0x00BF [0x00] END_REQSTACK()
```

### Event 65535.14

#### Metadata

| Field        | Value    |
|--------------|----------|
| Entrypoint   | 0x00C0   |
| Data Size    | 32 bytes |
| Instructions | 8        |

```
      00 01 02 03 04 05 06 07  08 09 0A 0B 0C 0D 0E 0F
      -- -- -- -- -- -- -- --  -- -- -- -- -- -- -- --
00C0: 1C 0C 80 32 03 80 1F 00  16 80 17 80 18 80 1F 01  ...2............
00D0: 1F 00 19 80 1A 80 18 80  1F 01 1E 96 72 05 01 00  ............r...
```

#### Opcodes

```
  0: 0x00C0 [0x1C] WAIT(30* ticks)
  1: 0x00C3 [0x32] ExtData[1]->MainSpeed = 13* * 0.1
  2: 0x00C6 [0x1F] MOVE_ENTITY: EventEntity moves to X=88.786*, Z=6.081*, Y=-20.170*
  3: 0x00CE [0x1F] MOVE_ENTITY: Update entity position (mode=1)
  4: 0x00D0 [0x1F] MOVE_ENTITY: EventEntity moves to X=88.694*, Z=9.196*, Y=-20.170*
  5: 0x00D8 [0x1F] MOVE_ENTITY: Update entity position (mode=1)
  6: 0x00DA [0x1E] EventEntity looks at Bartholomaus (ID: 17134230/0x01057296) and starts talking
  7: 0x00DF [0x00] END_REQSTACK()
```

### Event 65535.15

#### Metadata

| Field        | Value    |
|--------------|----------|
| Entrypoint   | 0x00E0   |
| Data Size    | 22 bytes |
| Instructions | 6        |

```
      00 01 02 03 04 05 06 07  08 09 0A 0B 0C 0D 0E 0F
      -- -- -- -- -- -- -- --  -- -- -- -- -- -- -- --
00E0: 1C 0C 80 32 03 80 1F 00  1B 80 1C 80 18 80 1F 01  ...2............
00F0: 1E 96 72 05 01 00                                 ..r...          
```

#### Opcodes

```
  0: 0x00E0 [0x1C] WAIT(30* ticks)
  1: 0x00E3 [0x32] ExtData[1]->MainSpeed = 13* * 0.1
  2: 0x00E6 [0x1F] MOVE_ENTITY: EventEntity moves to X=94.120*, Z=9.149*, Y=-20.170*
  3: 0x00EE [0x1F] MOVE_ENTITY: Update entity position (mode=1)
  4: 0x00F0 [0x1E] EventEntity looks at Bartholomaus (ID: 17134230/0x01057296) and starts talking
  5: 0x00F5 [0x00] END_REQSTACK()
```

### Event 65535.16

#### Metadata

| Field        | Value    |
|--------------|----------|
| Entrypoint   | 0x00F6   |
| Data Size    | 22 bytes |
| Instructions | 6        |

```
      00 01 02 03 04 05 06 07  08 09 0A 0B 0C 0D 0E 0F
      -- -- -- -- -- -- -- --  -- -- -- -- -- -- -- --
00F0:                   1C 0C  80 7B 30 72 05 01 32 03        ...{0r..2.
0100: 80 1F 00 1D 80 1E 80 18  80 1F 01 00              ............    
```

#### Opcodes

```
  0: 0x00F6 [0x1C] WAIT(30* ticks)
  1: 0x00F9 [0x7B] Five Moons (ID: 17134128/0x01057230) stops talking
  2: 0x00FE [0x32] ExtData[1]->MainSpeed = 13* * 0.1
  3: 0x0101 [0x1F] MOVE_ENTITY: EventEntity moves to X=88.978*, Z=11.191*, Y=-20.170*
  4: 0x0109 [0x1F] MOVE_ENTITY: Update entity position (mode=1)
  5: 0x010B [0x00] END_REQSTACK()
```

### Event 65535.17

#### Metadata

| Field        | Value    |
|--------------|----------|
| Entrypoint   | 0x010C   |
| Data Size    | 28 bytes |
| Instructions | 6        |

```
      00 01 02 03 04 05 06 07  08 09 0A 0B 0C 0D 0E 0F
      -- -- -- -- -- -- -- --  -- -- -- -- -- -- -- --
0100:                                      7B 30 72 05              {0r.
0110: 01 32 03 80 1F 00 1F 80  20 80 18 80 1F 01 4A 30  .2...... .....J0
0120: 72 05 01 F0 FF FF 7F 00                           r.......        
```

#### Opcodes

```
  0: 0x010C [0x7B] Five Moons (ID: 17134128/0x01057230) stops talking
  1: 0x0111 [0x32] ExtData[1]->MainSpeed = 13* * 0.1
  2: 0x0114 [0x1F] MOVE_ENTITY: EventEntity moves to X=89.297*, Z=13.660*, Y=-20.170*
  3: 0x011C [0x1F] MOVE_ENTITY: Update entity position (mode=1)
  4: 0x011E [0x4A] Five Moons (ID: 17134128/0x01057230) looks at LocalPlayer
  5: 0x0127 [0x00] END_REQSTACK()
```

### Event 65535.18

#### Metadata

| Field        | Value    |
|--------------|----------|
| Entrypoint   | 0x0128   |
| Data Size    | 19 bytes |
| Instructions | 5        |

```
      00 01 02 03 04 05 06 07  08 09 0A 0B 0C 0D 0E 0F
      -- -- -- -- -- -- -- --  -- -- -- -- -- -- -- --
0120:                          32 03 80 1F 00 21 80 22          2....!."
0130: 80 23 80 1F 01 1E F0 FF  FF 7F 00                 .#.........     
```

#### Opcodes

```
  0: 0x0128 [0x32] ExtData[1]->MainSpeed = 13* * 0.1
  1: 0x012B [0x1F] MOVE_ENTITY: EventEntity moves to X=91.287*, Z=11.583*, Y=-20.185*
  2: 0x0133 [0x1F] MOVE_ENTITY: Update entity position (mode=1)
  3: 0x0135 [0x1E] EventEntity looks at LocalPlayer and starts talking
  4: 0x013A [0x00] END_REQSTACK()
```
