# 17134179

## Common Data

| Field            | Value                       |
|------------------|-----------------------------|
| Zone             | Bastok Markets [S] (ID: 87) |
| Block Size       | 164 bytes                   |
| Total Events     | 11                          |
| References Count | 7                           |

## List of Events

| Event ID                 | Entrypoint   |   Size |   Instructions |
|--------------------------|--------------|--------|----------------|
| [65535](#event-65535)    | 0x0000       |      1 |              1 |
| [60](#event-60)          | 0x0001       |      1 |              1 |
| [62](#event-62)          | 0x0002       |      1 |              1 |
| [78](#event-78)          | 0x0003       |      1 |              1 |
| [65535.1](#event-655351) | 0x0004       |     24 |              6 |
| [65535.2](#event-655352) | 0x001C       |     13 |              3 |
| [65535.3](#event-655353) | 0x0029       |      3 |              2 |
| [65535.4](#event-655354) | 0x002C       |      5 |              2 |
| [65535.5](#event-655355) | 0x0031       |      5 |              2 |
| [347](#event-347)        | 0x0036       |      1 |              1 |
| [65535.6](#event-655356) | 0x0037       |     19 |              5 |

## DAT References (imed_data)

|   Index | Hex Value   |   Dec Value |
|---------|-------------|-------------|
|       0 | 0x003C      |          60 |
|       1 | 0x001E      |          30 |
|       2 | 0x002B      |          43 |
|       3 | 0x010E      |         270 |
|       4 | 0x0129      |         297 |
|       5 | 0x000B      |          11 |
|       6 | 0x00B4      |         180 |

## Events

### Event 65535

#### Metadata

| Field        | Value   |
|--------------|---------|
| Entrypoint   | 0x0000  |
| Data Size    | 1 bytes |
| Instructions | 1       |

```
      00 01 02 03 04 05 06 07  08 09 0A 0B 0C 0D 0E 0F
      -- -- -- -- -- -- -- --  -- -- -- -- -- -- -- --
0000: 00                                                .               
```

#### Opcodes

```
  0: 0x0000 [0x00] END_REQSTACK()
```

### Event 60

#### Metadata

| Field        | Value   |
|--------------|---------|
| Entrypoint   | 0x0001  |
| Data Size    | 1 bytes |
| Instructions | 1       |

```
      00 01 02 03 04 05 06 07  08 09 0A 0B 0C 0D 0E 0F
      -- -- -- -- -- -- -- --  -- -- -- -- -- -- -- --
0000:    00                                              .              
```

#### Opcodes

```
  0: 0x0001 [0x00] END_REQSTACK()
```

### Event 62

#### Metadata

| Field        | Value   |
|--------------|---------|
| Entrypoint   | 0x0002  |
| Data Size    | 1 bytes |
| Instructions | 1       |

```
      00 01 02 03 04 05 06 07  08 09 0A 0B 0C 0D 0E 0F
      -- -- -- -- -- -- -- --  -- -- -- -- -- -- -- --
0000:       00                                            .             
```

#### Opcodes

```
  0: 0x0002 [0x00] END_REQSTACK()
```

### Event 78

#### Metadata

| Field        | Value   |
|--------------|---------|
| Entrypoint   | 0x0003  |
| Data Size    | 1 bytes |
| Instructions | 1       |

```
      00 01 02 03 04 05 06 07  08 09 0A 0B 0C 0D 0E 0F
      -- -- -- -- -- -- -- --  -- -- -- -- -- -- -- --
0000:          00                                          .            
```

#### Opcodes

```
  0: 0x0003 [0x00] END_REQSTACK()
```

### Event 65535.1

#### Metadata

| Field        | Value    |
|--------------|----------|
| Entrypoint   | 0x0004   |
| Data Size    | 24 bytes |
| Instructions | 6        |

```
      00 01 02 03 04 05 06 07  08 09 0A 0B 0C 0D 0E 0F
      -- -- -- -- -- -- -- --  -- -- -- -- -- -- -- --
0000:             1C 00 80 4A  62 72 05 01 C4 71 05 01      ...Jbr...q..
0010: 1C 01 80 1E C4 71 05 01  1C 00 80 00              .....q......    
```

#### Opcodes

```
  0: 0x0004 [0x1C] WAIT(60* ticks)
  1: 0x0007 [0x4A] Unnamed NPC (ID: 17134178/0x01057262) looks at Werei (ID: 17134020/0x010571C4)
  2: 0x0010 [0x1C] WAIT(30* ticks)
  3: 0x0013 [0x1E] EventEntity looks at Werei (ID: 17134020/0x010571C4) and starts talking
  4: 0x0018 [0x1C] WAIT(60* ticks)
  5: 0x001B [0x00] END_REQSTACK()
```

### Event 65535.2

#### Metadata

| Field        | Value    |
|--------------|----------|
| Entrypoint   | 0x001C   |
| Data Size    | 13 bytes |
| Instructions | 3        |

```
      00 01 02 03 04 05 06 07  08 09 0A 0B 0C 0D 0E 0F
      -- -- -- -- -- -- -- --  -- -- -- -- -- -- -- --
0010:                                      6E F8 FF FF              n...
0020: 7F 02 80 99 F8 FF FF 7F  00                       .........       
```

#### Opcodes

```
  0: 0x001C [0x6E] EventEntity uses emote 43*
  1: 0x0023 [0x99] Wait for EventEntity animation to complete
  2: 0x0028 [0x00] END_REQSTACK()
```

### Event 65535.3

#### Metadata

| Field        | Value   |
|--------------|---------|
| Entrypoint   | 0x0029  |
| Data Size    | 3 bytes |
| Instructions | 2       |

```
      00 01 02 03 04 05 06 07  08 09 0A 0B 0C 0D 0E 0F
      -- -- -- -- -- -- -- --  -- -- -- -- -- -- -- --
0020:                             A5 01 00                       ...    
```

#### Opcodes

```
  0: 0x0029 [0xA5] EventEntity->Flags3.BallistaTeam |= 0x08  // Set bit 3 of BallistaTeam
  1: 0x002B [0x00] END_REQSTACK()
```

### Event 65535.4

#### Metadata

| Field        | Value   |
|--------------|---------|
| Entrypoint   | 0x002C  |
| Data Size    | 5 bytes |
| Instructions | 2       |

```
      00 01 02 03 04 05 06 07  08 09 0A 0B 0C 0D 0E 0F
      -- -- -- -- -- -- -- --  -- -- -- -- -- -- -- --
0020:                                      B6 08 03 80              ....
0030: 00                                                .               
```

#### Opcodes

```
  0: 0x002C [0xB6] ENTITY_APPEARANCE_HANDLER(case=Main, value=270*)
  1: 0x0030 [0x00] END_REQSTACK()
```

### Event 65535.5

#### Metadata

| Field        | Value   |
|--------------|---------|
| Entrypoint   | 0x0031  |
| Data Size    | 5 bytes |
| Instructions | 2       |

```
      00 01 02 03 04 05 06 07  08 09 0A 0B 0C 0D 0E 0F
      -- -- -- -- -- -- -- --  -- -- -- -- -- -- -- --
0030:    B6 08 04 80 00                                  .....          
```

#### Opcodes

```
  0: 0x0031 [0xB6] ENTITY_APPEARANCE_HANDLER(case=Main, value=297*)
  1: 0x0035 [0x00] END_REQSTACK()
```

### Event 347

#### Metadata

| Field        | Value   |
|--------------|---------|
| Entrypoint   | 0x0036  |
| Data Size    | 1 bytes |
| Instructions | 1       |

```
      00 01 02 03 04 05 06 07  08 09 0A 0B 0C 0D 0E 0F
      -- -- -- -- -- -- -- --  -- -- -- -- -- -- -- --
0030:                   00                                    .         
```

#### Opcodes

```
  0: 0x0036 [0x00] END_REQSTACK()
```

### Event 65535.6

#### Metadata

| Field        | Value    |
|--------------|----------|
| Entrypoint   | 0x0037   |
| Data Size    | 19 bytes |
| Instructions | 4        |

```
      00 01 02 03 04 05 06 07  08 09 0A 0B 0C 0D 0E 0F
      -- -- -- -- -- -- -- --  -- -- -- -- -- -- -- --
0030:                      6E  63 72 05 01 05 80 99 63         ncr.....c
0040: 72 05 01 1C 06 80 01 37  00 00                    r......7..      
```

#### Opcodes

```
  0: 0x0037 [0x6E] Unnamed NPC (ID: 17134179/0x01057263) uses emote 11*
  1: 0x003E [0x99] Wait for Unnamed NPC (ID: 17134179/0x01057263) animation to complete
  2: 0x0043 [0x1C] WAIT(180* ticks)
  3: 0x0046 [0x01] GOTO 0x0037
```

#### Data or dead code:

```
# Dead code (unreachable instructions):
     0x0049 [0x00] END_REQSTACK()
```
