# 17134185

## Common Data

| Field            | Value                       |
|------------------|-----------------------------|
| Zone             | Bastok Markets [S] (ID: 87) |
| Block Size       | 304 bytes                   |
| Total Events     | 11                          |
| References Count | 25                          |

## List of Events

| Event ID                 | Entrypoint   |   Size |   Instructions |
|--------------------------|--------------|--------|----------------|
| [65535](#event-65535)    | 0x0000       |      1 |              1 |
| [60](#event-60)          | 0x0001       |      1 |              1 |
| [62](#event-62)          | 0x0002       |      1 |              1 |
| [78](#event-78)          | 0x0003       |      1 |              1 |
| [65535.1](#event-655351) | 0x0004       |     13 |              4 |
| [65535.2](#event-655352) | 0x0011       |     13 |              4 |
| [65535.3](#event-655353) | 0x001E       |     54 |             12 |
| [65535.4](#event-655354) | 0x0054       |     40 |              7 |
| [65535.5](#event-655355) | 0x007C       |      6 |              2 |
| [65535.6](#event-655356) | 0x0082       |     13 |              3 |
| [347](#event-347)        | 0x008F       |      1 |              1 |

## DAT References (imed_data)

|   Index | Hex Value   |   Dec Value |
|---------|-------------|-------------|
|       0 | 0x00DE      |         222 |
|       1 | 0x0107      |         263 |
|       2 | 0x0018      |          24 |
|       3 | 0x0000      |           0 |
|       4 | 0x0028      |          40 |
|       5 | 0xFFFC40ED  |  4294721773 |
|       6 | 0x85F0      |       34288 |
|       7 | 0xFFFFF128  |  4294963496 |
|       8 | 0xFFFC3768  |  4294719336 |
|       9 | 0x8B05      |       35589 |
|      10 | 0xFFFFF510  |  4294964496 |
|      11 | 0xFFFC326B  |  4294718059 |
|      12 | 0x9162      |       37218 |
|      13 | 0xFFFFF769  |  4294965097 |
|      14 | 0xFFFC2E06  |  4294716934 |
|      15 | 0x9D9B      |       40347 |
|      16 | 0xFFFFFB51  |  4294966097 |
|      17 | 0xFFFC29CC  |  4294715852 |
|      18 | 0xCB03      |       51971 |
|      19 | 0xFFFFFC18  |  4294966296 |
|      20 | 0x006E      |         110 |
|      21 | 0x016C      |         364 |
|      22 | 0x0091      |         145 |
|      23 | 0x0001      |           1 |
|      24 | 0x002B      |          43 |

## Events

### Event 65535

#### Metadata

| Field        | Value   |
|--------------|---------|
| Entrypoint   | 0x0000  |
| Data Size    | 1 bytes |
| Instructions | 1       |

```
      00 01 02 03 04 05 06 07  08 09 0A 0B 0C 0D 0E 0F
      -- -- -- -- -- -- -- --  -- -- -- -- -- -- -- --
0000: 00                                                .               
```

#### Opcodes

```
  0: 0x0000 [0x00] END_REQSTACK()
```

### Event 60

#### Metadata

| Field        | Value   |
|--------------|---------|
| Entrypoint   | 0x0001  |
| Data Size    | 1 bytes |
| Instructions | 1       |

```
      00 01 02 03 04 05 06 07  08 09 0A 0B 0C 0D 0E 0F
      -- -- -- -- -- -- -- --  -- -- -- -- -- -- -- --
0000:    00                                              .              
```

#### Opcodes

```
  0: 0x0001 [0x00] END_REQSTACK()
```

### Event 62

#### Metadata

| Field        | Value   |
|--------------|---------|
| Entrypoint   | 0x0002  |
| Data Size    | 1 bytes |
| Instructions | 1       |

```
      00 01 02 03 04 05 06 07  08 09 0A 0B 0C 0D 0E 0F
      -- -- -- -- -- -- -- --  -- -- -- -- -- -- -- --
0000:       00                                            .             
```

#### Opcodes

```
  0: 0x0002 [0x00] END_REQSTACK()
```

### Event 78

#### Metadata

| Field        | Value   |
|--------------|---------|
| Entrypoint   | 0x0003  |
| Data Size    | 1 bytes |
| Instructions | 1       |

```
      00 01 02 03 04 05 06 07  08 09 0A 0B 0C 0D 0E 0F
      -- -- -- -- -- -- -- --  -- -- -- -- -- -- -- --
0000:          00                                          .            
```

#### Opcodes

```
  0: 0x0003 [0x00] END_REQSTACK()
```

### Event 65535.1

#### Metadata

| Field        | Value    |
|--------------|----------|
| Entrypoint   | 0x0004   |
| Data Size    | 13 bytes |
| Instructions | 4        |

```
      00 01 02 03 04 05 06 07  08 09 0A 0B 0C 0D 0E 0F
      -- -- -- -- -- -- -- --  -- -- -- -- -- -- -- --
0000:             B6 03 00 80  B6 08 01 80 B6 09 02 80      ............
0010: 00                                                .               
```

#### Opcodes

```
  0: 0x0004 [0xB6] ENTITY_APPEARANCE_HANDLER(case=Head, value=222*)
  1: 0x0008 [0xB6] ENTITY_APPEARANCE_HANDLER(case=Main, value=263*)
  2: 0x000C [0xB6] ENTITY_APPEARANCE_HANDLER(case=Sub, value=24*)
  3: 0x0010 [0x00] END_REQSTACK()
```

### Event 65535.2

#### Metadata

| Field        | Value    |
|--------------|----------|
| Entrypoint   | 0x0011   |
| Data Size    | 13 bytes |
| Instructions | 4        |

```
      00 01 02 03 04 05 06 07  08 09 0A 0B 0C 0D 0E 0F
      -- -- -- -- -- -- -- --  -- -- -- -- -- -- -- --
0010:    B6 03 03 80 B6 08 03  80 B6 09 03 80 00         .............  
```

#### Opcodes

```
  0: 0x0011 [0xB6] ENTITY_APPEARANCE_HANDLER(case=Head, value=0*)
  1: 0x0015 [0xB6] ENTITY_APPEARANCE_HANDLER(case=Main, value=0*)
  2: 0x0019 [0xB6] ENTITY_APPEARANCE_HANDLER(case=Sub, value=0*)
  3: 0x001D [0x00] END_REQSTACK()
```

### Event 65535.3

#### Metadata

| Field        | Value    |
|--------------|----------|
| Entrypoint   | 0x001E   |
| Data Size    | 54 bytes |
| Instructions | 12       |

```
      00 01 02 03 04 05 06 07  08 09 0A 0B 0C 0D 0E 0F
      -- -- -- -- -- -- -- --  -- -- -- -- -- -- -- --
0010:                                            32 04                2.
0020: 80 1F 00 05 80 06 80 07  80 1F 01 1F 00 08 80 09  ................
0030: 80 0A 80 1F 01 1F 00 0B  80 0C 80 0D 80 1F 01 1F  ................
0040: 00 0E 80 0F 80 10 80 1F  01 1F 00 11 80 12 80 13  ................
0050: 80 1F 01 00                                       ....            
```

#### Opcodes

```
  0: 0x001E [0x32] ExtData[1]->MainSpeed = 40* * 0.1
  1: 0x0021 [0x1F] MOVE_ENTITY: EventEntity moves to X=-245.523*, Z=34.288*, Y=-3.800*
  2: 0x0029 [0x1F] MOVE_ENTITY: Update entity position (mode=1)
  3: 0x002B [0x1F] MOVE_ENTITY: EventEntity moves to X=-247.960*, Z=35.589*, Y=-2.800*
  4: 0x0033 [0x1F] MOVE_ENTITY: Update entity position (mode=1)
  5: 0x0035 [0x1F] MOVE_ENTITY: EventEntity moves to X=-249.237*, Z=37.218*, Y=-2.199*
  6: 0x003D [0x1F] MOVE_ENTITY: Update entity position (mode=1)
  7: 0x003F [0x1F] MOVE_ENTITY: EventEntity moves to X=-250.362*, Z=40.347*, Y=-1.199*
  8: 0x0047 [0x1F] MOVE_ENTITY: Update entity position (mode=1)
  9: 0x0049 [0x1F] MOVE_ENTITY: EventEntity moves to X=-251.444*, Z=51.971*, Y=-1.000*
 10: 0x0051 [0x1F] MOVE_ENTITY: Update entity position (mode=1)
 11: 0x0053 [0x00] END_REQSTACK()
```

### Event 65535.4

#### Metadata

| Field        | Value    |
|--------------|----------|
| Entrypoint   | 0x0054   |
| Data Size    | 40 bytes |
| Instructions | 7        |

```
      00 01 02 03 04 05 06 07  08 09 0A 0B 0C 0D 0E 0F
      -- -- -- -- -- -- -- --  -- -- -- -- -- -- -- --
0050:             1C 14 80 03  00 00 03 80 02 00 00 03      ............
0060: 80 00 7B 00 45 15 80 F8  FF FF 7F F8 FF FF 7F 6B  ..{.E..........k
0070: 65 6E 34 03 80 1C 16 80  01 5C 00 00              en4......\..    
```

#### Opcodes

```
  0: 0x0054 [0x1C] WAIT(110* ticks)
  1: 0x0057 [0x03] ExtData[1]->WorkLocal[0] = 0*
  2: 0x005C [0x02] IF !(ExtData[1]->WorkLocal[0] == 0*) GOTO 0x007B
  3: 0x0064 [0x45] LOAD_SCHEDULED_TASK: Load scheduler "ken4" with entities [EventEntity, EventEntity], work=[364*, 0*]
  4: 0x0075 [0x1C] WAIT(145* ticks)
  5: 0x0078 [0x01] GOTO 0x005C
  6: 0x007B [0x00] END_REQSTACK()
```

### Event 65535.5

#### Metadata

| Field        | Value   |
|--------------|---------|
| Entrypoint   | 0x007C  |
| Data Size    | 6 bytes |
| Instructions | 2       |

```
      00 01 02 03 04 05 06 07  08 09 0A 0B 0C 0D 0E 0F
      -- -- -- -- -- -- -- --  -- -- -- -- -- -- -- --
0070:                                      03 00 00 17              ....
0080: 80 00                                             ..              
```

#### Opcodes

```
  0: 0x007C [0x03] ExtData[1]->WorkLocal[0] = 1*
  1: 0x0081 [0x00] END_REQSTACK()
```

### Event 65535.6

#### Metadata

| Field        | Value    |
|--------------|----------|
| Entrypoint   | 0x0082   |
| Data Size    | 13 bytes |
| Instructions | 3        |

```
      00 01 02 03 04 05 06 07  08 09 0A 0B 0C 0D 0E 0F
      -- -- -- -- -- -- -- --  -- -- -- -- -- -- -- --
0080:       6E F8 FF FF 7F 18  80 99 F8 FF FF 7F 00       n............ 
```

#### Opcodes

```
  0: 0x0082 [0x6E] EventEntity uses emote 43*
  1: 0x0089 [0x99] Wait for EventEntity animation to complete
  2: 0x008E [0x00] END_REQSTACK()
```

### Event 347

#### Metadata

| Field        | Value   |
|--------------|---------|
| Entrypoint   | 0x008F  |
| Data Size    | 1 bytes |
| Instructions | 1       |

```
      00 01 02 03 04 05 06 07  08 09 0A 0B 0C 0D 0E 0F
      -- -- -- -- -- -- -- --  -- -- -- -- -- -- -- --
0080:                                               00                 .
```

#### Opcodes

```
  0: 0x008F [0x00] END_REQSTACK()
```
