# 17134207

## Common Data

| Field            | Value                       |
|------------------|-----------------------------|
| Zone             | Bastok Markets [S] (ID: 87) |
| Block Size       | 316 bytes                   |
| Total Events     | 8                           |
| References Count | 32                          |

## List of Events

| Event ID                 | Entrypoint   |   Size |   Instructions |
|--------------------------|--------------|--------|----------------|
| [65535](#event-65535)    | 0x0000       |      1 |              1 |
| [77](#event-77)          | 0x0001       |      1 |              1 |
| [65535.1](#event-655351) | 0x0002       |     14 |              4 |
| [78](#event-78)          | 0x0010       |      1 |              1 |
| [65535.2](#event-655352) | 0x0011       |     44 |             10 |
| [65535.3](#event-655353) | 0x003D       |     34 |              8 |
| [65535.4](#event-655354) | 0x005F       |     24 |              6 |
| [65535.5](#event-655355) | 0x0077       |     21 |              5 |

## DAT References (imed_data)

|   Index | Hex Value   |   Dec Value |
|---------|-------------|-------------|
|       0 | 0x0028      |          40 |
|       1 | 0x5D94F     |      383311 |
|       2 | 0x2C04B     |      180299 |
|       3 | 0x07C0      |        1984 |
|       4 | 0x003C      |          60 |
|       5 | 0xFFFC6EF3  |  4294733555 |
|       6 | 0x172F5     |       94965 |
|       7 | 0x0000      |           0 |
|       8 | 0xFFFC72EB  |  4294734571 |
|       9 | 0x163AF     |       91055 |
|      10 | 0xFFFC78F4  |  4294736116 |
|      11 | 0x15987     |       88455 |
|      12 | 0xFFFC7E43  |  4294737475 |
|      13 | 0x14FBF     |       85951 |
|      14 | 0xFFFC2E6C  |  4294717036 |
|      15 | 0x8A01      |       35329 |
|      16 | 0xFFFFF6A2  |  4294964898 |
|      17 | 0xFFFC38FD  |  4294719741 |
|      18 | 0x860B      |       34315 |
|      19 | 0xFFFFF381  |  4294964097 |
|      20 | 0xFFFC4F85  |  4294725509 |
|      21 | 0x83C4      |       33732 |
|      22 | 0xFFFFF060  |  4294963296 |
|      23 | 0xFFFC735F  |  4294734687 |
|      24 | 0x170FB     |       94459 |
|      25 | 0xFFFC72D8  |  4294734552 |
|      26 | 0x19741     |      104257 |
|      27 | 0xFFFFFDA7  |  4294966695 |
|      28 | 0xFFFCE82D  |  4294764589 |
|      29 | 0xECCF      |       60623 |
|      30 | 0xFFFFF830  |  4294965296 |
|      31 | 0x0D4E      |        3406 |

## Events

### Event 65535

#### Metadata

| Field        | Value   |
|--------------|---------|
| Entrypoint   | 0x0000  |
| Data Size    | 1 bytes |
| Instructions | 1       |

```
      00 01 02 03 04 05 06 07  08 09 0A 0B 0C 0D 0E 0F
      -- -- -- -- -- -- -- --  -- -- -- -- -- -- -- --
0000: 00                                                .               
```

#### Opcodes

```
  0: 0x0000 [0x00] END_REQSTACK()
```

### Event 77

#### Metadata

| Field        | Value   |
|--------------|---------|
| Entrypoint   | 0x0001  |
| Data Size    | 1 bytes |
| Instructions | 1       |

```
      00 01 02 03 04 05 06 07  08 09 0A 0B 0C 0D 0E 0F
      -- -- -- -- -- -- -- --  -- -- -- -- -- -- -- --
0000:    00                                              .              
```

#### Opcodes

```
  0: 0x0001 [0x00] END_REQSTACK()
```

### Event 65535.1

#### Metadata

| Field        | Value    |
|--------------|----------|
| Entrypoint   | 0x0002   |
| Data Size    | 14 bytes |
| Instructions | 4        |

```
      00 01 02 03 04 05 06 07  08 09 0A 0B 0C 0D 0E 0F
      -- -- -- -- -- -- -- --  -- -- -- -- -- -- -- --
0000:       32 00 80 1F 00 01  80 02 80 03 80 1F 01 00    2.............
```

#### Opcodes

```
  0: 0x0002 [0x32] ExtData[1]->MainSpeed = 40* * 0.1
  1: 0x0005 [0x1F] MOVE_ENTITY: EventEntity moves to X=383.311*, Z=180.299*, Y=1.984*
  2: 0x000D [0x1F] MOVE_ENTITY: Update entity position (mode=1)
  3: 0x000F [0x00] END_REQSTACK()
```

### Event 78

#### Metadata

| Field        | Value   |
|--------------|---------|
| Entrypoint   | 0x0010  |
| Data Size    | 1 bytes |
| Instructions | 1       |

```
      00 01 02 03 04 05 06 07  08 09 0A 0B 0C 0D 0E 0F
      -- -- -- -- -- -- -- --  -- -- -- -- -- -- -- --
0010: 00                                                .               
```

#### Opcodes

```
  0: 0x0010 [0x00] END_REQSTACK()
```

### Event 65535.2

#### Metadata

| Field        | Value    |
|--------------|----------|
| Entrypoint   | 0x0011   |
| Data Size    | 44 bytes |
| Instructions | 10       |

```
      00 01 02 03 04 05 06 07  08 09 0A 0B 0C 0D 0E 0F
      -- -- -- -- -- -- -- --  -- -- -- -- -- -- -- --
0010:    32 04 80 1F 00 05 80  06 80 07 80 1F 01 1F 00   2..............
0020: 08 80 09 80 07 80 1F 01  1F 00 0A 80 0B 80 07 80  ................
0030: 1F 01 1F 00 0C 80 0D 80  07 80 1F 01 00           .............   
```

#### Opcodes

```
  0: 0x0011 [0x32] ExtData[1]->MainSpeed = 60* * 0.1
  1: 0x0014 [0x1F] MOVE_ENTITY: EventEntity moves to X=-233.741*, Z=94.965*, Y=0.000*
  2: 0x001C [0x1F] MOVE_ENTITY: Update entity position (mode=1)
  3: 0x001E [0x1F] MOVE_ENTITY: EventEntity moves to X=-232.725*, Z=91.055*, Y=0.000*
  4: 0x0026 [0x1F] MOVE_ENTITY: Update entity position (mode=1)
  5: 0x0028 [0x1F] MOVE_ENTITY: EventEntity moves to X=-231.180*, Z=88.455*, Y=0.000*
  6: 0x0030 [0x1F] MOVE_ENTITY: Update entity position (mode=1)
  7: 0x0032 [0x1F] MOVE_ENTITY: EventEntity moves to X=-229.821*, Z=85.951*, Y=0.000*
  8: 0x003A [0x1F] MOVE_ENTITY: Update entity position (mode=1)
  9: 0x003C [0x00] END_REQSTACK()
```

### Event 65535.3

#### Metadata

| Field        | Value    |
|--------------|----------|
| Entrypoint   | 0x003D   |
| Data Size    | 34 bytes |
| Instructions | 8        |

```
      00 01 02 03 04 05 06 07  08 09 0A 0B 0C 0D 0E 0F
      -- -- -- -- -- -- -- --  -- -- -- -- -- -- -- --
0030:                                         32 00 80               2..
0040: 1F 00 0E 80 0F 80 10 80  1F 01 1F 00 11 80 12 80  ................
0050: 13 80 1F 01 1F 00 14 80  15 80 16 80 1F 01 00     ............... 
```

#### Opcodes

```
  0: 0x003D [0x32] ExtData[1]->MainSpeed = 40* * 0.1
  1: 0x0040 [0x1F] MOVE_ENTITY: EventEntity moves to X=-250.260*, Z=35.329*, Y=-2.398*
  2: 0x0048 [0x1F] MOVE_ENTITY: Update entity position (mode=1)
  3: 0x004A [0x1F] MOVE_ENTITY: EventEntity moves to X=-247.555*, Z=34.315*, Y=-3.199*
  4: 0x0052 [0x1F] MOVE_ENTITY: Update entity position (mode=1)
  5: 0x0054 [0x1F] MOVE_ENTITY: EventEntity moves to X=-241.787*, Z=33.732*, Y=-4.000*
  6: 0x005C [0x1F] MOVE_ENTITY: Update entity position (mode=1)
  7: 0x005E [0x00] END_REQSTACK()
```

### Event 65535.4

#### Metadata

| Field        | Value    |
|--------------|----------|
| Entrypoint   | 0x005F   |
| Data Size    | 24 bytes |
| Instructions | 6        |

```
      00 01 02 03 04 05 06 07  08 09 0A 0B 0C 0D 0E 0F
      -- -- -- -- -- -- -- --  -- -- -- -- -- -- -- --
0050:                                               32                 2
0060: 00 80 1F 00 17 80 18 80  07 80 1F 01 1F 00 19 80  ................
0070: 1A 80 1B 80 1F 01 00                              .......         
```

#### Opcodes

```
  0: 0x005F [0x32] ExtData[1]->MainSpeed = 40* * 0.1
  1: 0x0062 [0x1F] MOVE_ENTITY: EventEntity moves to X=-232.609*, Z=94.459*, Y=0.000*
  2: 0x006A [0x1F] MOVE_ENTITY: Update entity position (mode=1)
  3: 0x006C [0x1F] MOVE_ENTITY: EventEntity moves to X=-232.744*, Z=104.257*, Y=-0.601*
  4: 0x0074 [0x1F] MOVE_ENTITY: Update entity position (mode=1)
  5: 0x0076 [0x00] END_REQSTACK()
```

### Event 65535.5

#### Metadata

| Field        | Value    |
|--------------|----------|
| Entrypoint   | 0x0077   |
| Data Size    | 21 bytes |
| Instructions | 5        |

```
      00 01 02 03 04 05 06 07  08 09 0A 0B 0C 0D 0E 0F
      -- -- -- -- -- -- -- --  -- -- -- -- -- -- -- --
0070:                      32  00 80 1F 00 1C 80 1D 80         2........
0080: 1E 80 1F 01 4B F8 FF FF  7F 1F 80 00              ....K.......    
```

#### Opcodes

```
  0: 0x0077 [0x32] ExtData[1]->MainSpeed = 40* * 0.1
  1: 0x007A [0x1F] MOVE_ENTITY: EventEntity moves to X=-202.707*, Z=60.623*, Y=-2.000*
  2: 0x0082 [0x1F] MOVE_ENTITY: Update entity position (mode=1)
  3: 0x0084 [0x4B] UPDATE_ENTITY_YAW(entity=EventEntity, yaw=18.7°*)
  4: 0x008B [0x00] END_REQSTACK()
```
