# 17134119 - Loussaire

## Common Data

| Field            | Value                       |
|------------------|-----------------------------|
| Zone             | Bastok Markets [S] (ID: 87) |
| Block Size       | 992 bytes                   |
| Total Events     | 12                          |
| References Count | 41                          |

## List of Events

| Event ID                 | Entrypoint   |   Size |   Instructions |
|--------------------------|--------------|--------|----------------|
| [65535](#event-65535)    | 0x0000       |      1 |              1 |
| [49](#event-49)          | 0x0001       |      1 |              1 |
| [51](#event-51)          | 0x0002       |      1 |              1 |
| [53](#event-53)          | 0x0003       |      1 |              1 |
| [54](#event-54)          | 0x0004       |      1 |              1 |
| [48](#event-48)          | 0x0005       |     66 |              8 |
| [50](#event-50)          | 0x0047       |    297 |             65 |
| [52](#event-52)          | 0x0170       |     67 |             15 |
| [55](#event-55)          | 0x01B3       |     61 |             14 |
| [65535.1](#event-655351) | 0x01F0       |     44 |             10 |
| [65535.2](#event-655352) | 0x021C       |     37 |              5 |
| [65535.3](#event-655353) | 0x0241       |    185 |             37 |

## DAT References (imed_data)

|   Index | Hex Value   |   Dec Value |
|---------|-------------|-------------|
|       0 | 0x001D      |          29 |
|       1 | 0x2FAA      |       12202 |
|       2 | 0x2FC0      |       12224 |
|       3 | 0x0008      |           8 |
|       4 | 0x0001      |           1 |
|       5 | 0x3D84      |       15748 |
|       6 | 0x2FC1      |       12225 |
|       7 | 0x0000      |           0 |
|       8 | 0x0002      |           2 |
|       9 | 0x3FB7      |       16311 |
|      10 | 0x0004      |           4 |
|      11 | 0x0003      |           3 |
|      12 | 0x38F4      |       14580 |
|      13 | 0x0006      |           6 |
|      14 | 0x2FC2      |       12226 |
|      15 | 0x2FD0      |       12240 |
|      16 | 0x000C      |          12 |
|      17 | 0x2FC3      |       12227 |
|      18 | 0x0024      |          36 |
|      19 | 0x2FC7      |       12231 |
|      20 | 0x0010      |          16 |
|      21 | 0x2FC8      |       12232 |
|      22 | 0x2FCF      |       12239 |
|      23 | 0x0020      |          32 |
|      24 | 0x2FCD      |       12237 |
|      25 | 0x0028      |          40 |
|      26 | 0xFFFC282E  |  4294715438 |
|      27 | 0xFFFE1A13  |  4294842899 |
|      28 | 0xFFFFDD62  |  4294958434 |
|      29 | 0xFFFC1502  |  4294710530 |
|      30 | 0xFFFE2435  |  4294845493 |
|      31 | 0xFFFFDB6A  |  4294957930 |
|      32 | 0xFFFBF576  |  4294702454 |
|      33 | 0xFFFE393B  |  4294850875 |
|      34 | 0xFFFFD8EF  |  4294957295 |
|      35 | 0x0005      |           5 |
|      36 | 0x000A      |          10 |
|      37 | 0x0009      |           9 |
|      38 | 0x0046      |          70 |
|      39 | 0x008C      |         140 |
|      40 | 0x00D2      |         210 |

## Events

### Event 65535

#### Metadata

| Field        | Value   |
|--------------|---------|
| Entrypoint   | 0x0000  |
| Data Size    | 1 bytes |
| Instructions | 1       |

```
      00 01 02 03 04 05 06 07  08 09 0A 0B 0C 0D 0E 0F
      -- -- -- -- -- -- -- --  -- -- -- -- -- -- -- --
0000: 00                                                .               
```

#### Opcodes

```
  0: 0x0000 [0x00] END_REQSTACK()
```

### Event 49

#### Metadata

| Field        | Value   |
|--------------|---------|
| Entrypoint   | 0x0001  |
| Data Size    | 1 bytes |
| Instructions | 1       |

```
      00 01 02 03 04 05 06 07  08 09 0A 0B 0C 0D 0E 0F
      -- -- -- -- -- -- -- --  -- -- -- -- -- -- -- --
0000:    00                                              .              
```

#### Opcodes

```
  0: 0x0001 [0x00] END_REQSTACK()
```

### Event 51

#### Metadata

| Field        | Value   |
|--------------|---------|
| Entrypoint   | 0x0002  |
| Data Size    | 1 bytes |
| Instructions | 1       |

```
      00 01 02 03 04 05 06 07  08 09 0A 0B 0C 0D 0E 0F
      -- -- -- -- -- -- -- --  -- -- -- -- -- -- -- --
0000:       00                                            .             
```

#### Opcodes

```
  0: 0x0002 [0x00] END_REQSTACK()
```

### Event 53

#### Metadata

| Field        | Value   |
|--------------|---------|
| Entrypoint   | 0x0003  |
| Data Size    | 1 bytes |
| Instructions | 1       |

```
      00 01 02 03 04 05 06 07  08 09 0A 0B 0C 0D 0E 0F
      -- -- -- -- -- -- -- --  -- -- -- -- -- -- -- --
0000:          00                                          .            
```

#### Opcodes

```
  0: 0x0003 [0x00] END_REQSTACK()
```

### Event 54

#### Metadata

| Field        | Value   |
|--------------|---------|
| Entrypoint   | 0x0004  |
| Data Size    | 1 bytes |
| Instructions | 1       |

```
      00 01 02 03 04 05 06 07  08 09 0A 0B 0C 0D 0E 0F
      -- -- -- -- -- -- -- --  -- -- -- -- -- -- -- --
0000:             00                                        .           
```

#### Opcodes

```
  0: 0x0004 [0x00] END_REQSTACK()
```

### Event 48

#### Metadata

| Field        | Value    |
|--------------|----------|
| Entrypoint   | 0x0005   |
| Data Size    | 66 bytes |
| Instructions | 8        |

```
      00 01 02 03 04 05 06 07  08 09 0A 0B 0C 0D 0E 0F
      -- -- -- -- -- -- -- --  -- -- -- -- -- -- -- --
0000:                66 00 80  F8 FF FF 7F F8 FF FF 7F       f..........
0010: 74 68 6B 31 53 F8 FF FF  7F F8 FF FF 7F 74 68 6B  thk1S........thk
0020: 31 2B 27 72 05 01 01 80  23 66 00 80 F8 FF FF 7F  1+'r....#f......
0030: F8 FF FF 7F 74 68 6B 32  53 F8 FF FF 7F F8 FF FF  ....thk2S.......
0040: 7F 74 68 6B 32 21 00                              .thk2!.         
```

#### Opcodes

```
  0: 0x0005 [0x66] LOAD_EXT_SCHEDULER_MAIN: Load scheduler "thk1" with entities [EventEntity, EventEntity], work=29*
  1: 0x0014 [0x53] WAIT_SCHEDULER_TASK: Wait for scheduler "thk1" with entities [EventEntity, EventEntity]
  2: 0x0021 [0x2B] Loussaire (ID: 17134119/0x01057227) [12202*]:
    → "Oh, what ever shall I do... The deadline for my discourse draws near and I have yet to even gather the proper materials."
  3: 0x0028 [0x23] WAIT_FOR_DIALOG_INTERACTION
  4: 0x0029 [0x66] LOAD_EXT_SCHEDULER_MAIN: Load scheduler "thk2" with entities [EventEntity, EventEntity], work=29*
  5: 0x0038 [0x53] WAIT_SCHEDULER_TASK: Wait for scheduler "thk2" with entities [EventEntity, EventEntity]
  6: 0x0045 [0x21] END_EVENT
  7: 0x0046 [0x00] END_REQSTACK()
```

### Event 50

#### Metadata

| Field        | Value     |
|--------------|-----------|
| Entrypoint   | 0x0047    |
| Data Size    | 297 bytes |
| Instructions | 65        |

```
      00 01 02 03 04 05 06 07  08 09 0A 0B 0C 0D 0E 0F
      -- -- -- -- -- -- -- --  -- -- -- -- -- -- -- --
0040:                      4A  F0 FF FF 7F F8 FF FF 7F         J........
0050: 1E F0 FF FF 7F 6F 76 F8  FF FF 7F 66 00 80 F8 FF  .....ov....f....
0060: FF 7F F8 FF FF 7F 74 6C  6B 30 2B 27 72 05 01 02  ......tlk0+'r...
0070: 80 23 03 01 10 03 80 43  00 43 01 02 09 10 04 80  .#.....C.C......
0080: 80 A2 00 93 05 80 03 02  10 05 80 2B 27 72 05 01  ...........+'r..
0090: 06 80 23 93 07 80 03 01  10 08 80 43 00 43 01 01  ..#........C.C..
00A0: F0 00 02 09 10 08 80 80  C9 00 93 09 80 03 02 10  ................
00B0: 09 80 2B 27 72 05 01 06  80 23 93 07 80 03 01 10  ..+'r....#......
00C0: 0A 80 43 00 43 01 01 F0  00 02 09 10 0B 80 80 F0  ..C.C...........
00D0: 00 93 0C 80 03 02 10 0C  80 2B 27 72 05 01 06 80  .........+'r....
00E0: 23 93 07 80 03 01 10 0D  80 43 00 43 01 01 F0 00  #........C.C....
00F0: 66 00 80 F8 FF FF 7F F8  FF FF 7F 74 6C 6B 31 2B  f..........tlk1+
0100: 27 72 05 01 0E 80 23 2B  27 72 05 01 0F 80 23 53  'r....#+'r....#S
0110: F8 FF FF 7F F8 FF FF 7F  74 6C 6B 31 6E F8 FF FF  ........tlk1n...
0120: 7F 10 80 99 F8 FF FF 7F  99 F8 FF FF 7F 03 01 10  ................
0130: 03 80 43 00 43 01 02 09  10 04 80 80 46 01 03 02  ..C.C.......F...
0140: 10 05 80 01 66 01 02 09  10 08 80 80 56 01 03 02  ....f.......V...
0150: 10 09 80 01 66 01 02 09  10 0B 80 80 66 01 03 02  ....f.......f...
0160: 10 0C 80 01 66 01 2B 27  72 05 01 11 80 23 21 00  ....f.+'r....#!.
```

#### Opcodes

```
  0: 0x0047 [0x4A] LocalPlayer looks at EventEntity
  1: 0x0050 [0x1E] EventEntity looks at LocalPlayer and starts talking
  2: 0x0055 [0x6F] WAIT_FRAME_DELAY: Yield until WaitTime reaches zero
  3: 0x0056 [0x76] CHECK_ENTITY_RENDER_FLAGS: Wait until EventEntity Render.Flags0 and Render.Flags3 conditions are met
  4: 0x005B [0x66] LOAD_EXT_SCHEDULER_MAIN: Load scheduler "tlk0" with entities [EventEntity, EventEntity], work=29*
  5: 0x006A [0x2B] Loussaire (ID: 17134119/0x01057227) [12224*]:
    → "No need to worry. I shall produce the attire, as per our agreement. You just see to getting those items we talked about."
  6: 0x0071 [0x23] WAIT_FOR_DIALOG_INTERACTION
  7: 0x0072 [0x03] Work_Zone[1] = 8*
  8: 0x0077 [0x43] SEND_EVENT_UPDATE: Send pending tag to server (packet 0x005B)
  9: 0x0079 [0x43] SEND_EVENT_UPDATE: Check pending flag (skip if not pending)
 10: 0x007B [0x02] IF !(Work_Zone[9] == 1*) GOTO 0x00A2
 11: 0x0083 [0x93] DISPLAY_ITEM_INFO(item_id=15748*)
 12: 0x0086 [0x03] Work_Zone[2] = 15748*
 13: 0x008B [0x2B] Loussaire (ID: 17134119/0x01057227) [12225*]:
    → "It was $0 you were after, correct?"
 14: 0x0092 [0x23] WAIT_FOR_DIALOG_INTERACTION
 15: 0x0093 [0x93] DISPLAY_ITEM_INFO(item_id=0*)
 16: 0x0096 [0x03] Work_Zone[1] = 2*
 17: 0x009B [0x43] SEND_EVENT_UPDATE: Send pending tag to server (packet 0x005B)
 18: 0x009D [0x43] SEND_EVENT_UPDATE: Check pending flag (skip if not pending)
 19: 0x009F [0x01] GOTO 0x00F0
 20: 0x00A2 [0x02] IF !(Work_Zone[9] == 2*) GOTO 0x00C9
 21: 0x00AA [0x93] DISPLAY_ITEM_INFO(item_id=16311*)
 22: 0x00AD [0x03] Work_Zone[2] = 16311*
 23: 0x00B2 [0x2B] Loussaire (ID: 17134119/0x01057227) [12225*]:
    → "It was $0 you were after, correct?"
 24: 0x00B9 [0x23] WAIT_FOR_DIALOG_INTERACTION
 25: 0x00BA [0x93] DISPLAY_ITEM_INFO(item_id=0*)
 26: 0x00BD [0x03] Work_Zone[1] = 4*
 27: 0x00C2 [0x43] SEND_EVENT_UPDATE: Send pending tag to server (packet 0x005B)
 28: 0x00C4 [0x43] SEND_EVENT_UPDATE: Check pending flag (skip if not pending)
 29: 0x00C6 [0x01] GOTO 0x00F0
 30: 0x00C9 [0x02] IF !(Work_Zone[9] == 3*) GOTO 0x00F0
 31: 0x00D1 [0x93] DISPLAY_ITEM_INFO(item_id=14580*)
 32: 0x00D4 [0x03] Work_Zone[2] = 14580*
 33: 0x00D9 [0x2B] Loussaire (ID: 17134119/0x01057227) [12225*]:
    → "It was $0 you were after, correct?"
 34: 0x00E0 [0x23] WAIT_FOR_DIALOG_INTERACTION
 35: 0x00E1 [0x93] DISPLAY_ITEM_INFO(item_id=0*)
 36: 0x00E4 [0x03] Work_Zone[1] = 6*
 37: 0x00E9 [0x43] SEND_EVENT_UPDATE: Send pending tag to server (packet 0x005B)
 38: 0x00EB [0x43] SEND_EVENT_UPDATE: Check pending flag (skip if not pending)
 39: 0x00ED [0x01] GOTO 0x00F0

SUBROUTINE_00F0:
 40: 0x00F0 [0x66] LOAD_EXT_SCHEDULER_MAIN: Load scheduler "tlk1" with entities [EventEntity, EventEntity], work=29*
 41: 0x00FF [0x2B] Loussaire (ID: 17134119/0x01057227) [12226*]:
    → "To complete my assignment I will need $6 and $6. Deliver those to me and that new garment is as good as yours!"
 42: 0x0106 [0x23] WAIT_FOR_DIALOG_INTERACTION
 43: 0x0107 [0x2B] Loussaire (ID: 17134119/0x01057227) [12240*]:
    → "By the way, there is a certain type of material that cannot be obtained without fulfilling certain...requirements, first. Keep an eye out!"
 44: 0x010E [0x23] WAIT_FOR_DIALOG_INTERACTION
 45: 0x010F [0x53] WAIT_SCHEDULER_TASK: Wait for scheduler "tlk1" with entities [EventEntity, EventEntity]
 46: 0x011C [0x6E] EventEntity uses emote 12*
 47: 0x0123 [0x99] Wait for EventEntity animation to complete
 48: 0x0128 [0x99] Wait for EventEntity animation to complete
 49: 0x012D [0x03] Work_Zone[1] = 8*
 50: 0x0132 [0x43] SEND_EVENT_UPDATE: Send pending tag to server (packet 0x005B)
 51: 0x0134 [0x43] SEND_EVENT_UPDATE: Check pending flag (skip if not pending)
 52: 0x0136 [0x02] IF !(Work_Zone[9] == 1*) GOTO 0x0146
 53: 0x013E [0x03] Work_Zone[2] = 15748*
 54: 0x0143 [0x01] GOTO 0x0166
 55: 0x0146 [0x02] IF !(Work_Zone[9] == 2*) GOTO 0x0156
 56: 0x014E [0x03] Work_Zone[2] = 16311*
 57: 0x0153 [0x01] GOTO 0x0166
 58: 0x0156 [0x02] IF !(Work_Zone[9] == 3*) GOTO 0x0166
 59: 0x015E [0x03] Work_Zone[2] = 14580*
 60: 0x0163 [0x01] GOTO 0x0166

SUBROUTINE_0166:
 61: 0x0166 [0x2B] Loussaire (ID: 17134119/0x01057227) [12227*]:
    → "I'll get my hands on $0 while you are busying yourself rounding up those items. Go along, now. We both have some work to do."
 62: 0x016D [0x23] WAIT_FOR_DIALOG_INTERACTION
 63: 0x016E [0x21] END_EVENT
 64: 0x016F [0x00] END_REQSTACK()
```

### Event 52

#### Metadata

| Field        | Value    |
|--------------|----------|
| Entrypoint   | 0x0170   |
| Data Size    | 67 bytes |
| Instructions | 15       |

```
      00 01 02 03 04 05 06 07  08 09 0A 0B 0C 0D 0E 0F
      -- -- -- -- -- -- -- --  -- -- -- -- -- -- -- --
0170: 4A F0 FF FF 7F F8 FF FF  7F 6E F8 FF FF 7F 12 80  J........n......
0180: 99 F8 FF FF 7F 99 F8 FF  FF 7F 2B 27 72 05 01 13  ..........+'r...
0190: 80 23 1E F0 FF FF 7F 6F  76 F8 FF FF 7F 6E F8 FF  .#.....ov....n..
01A0: FF 7F 14 80 99 F8 FF FF  7F 2B 27 72 05 01 15 80  .........+'r....
01B0: 23 21 00                                          #!.             
```

#### Opcodes

```
  0: 0x0170 [0x4A] LocalPlayer looks at EventEntity
  1: 0x0179 [0x6E] EventEntity uses emote 36*
  2: 0x0180 [0x99] Wait for EventEntity animation to complete
  3: 0x0185 [0x99] Wait for EventEntity animation to complete
  4: 0x018A [0x2B] Loussaire (ID: 17134119/0x01057227) [12231*]:
    → "Superb! Well, that takes care of one assignment."
  5: 0x0191 [0x23] WAIT_FOR_DIALOG_INTERACTION
  6: 0x0192 [0x1E] EventEntity looks at LocalPlayer and starts talking
  7: 0x0197 [0x6F] WAIT_FRAME_DELAY: Yield until WaitTime reaches zero
  8: 0x0198 [0x76] CHECK_ENTITY_RENDER_FLAGS: Wait until EventEntity Render.Flags0 and Render.Flags3 conditions are met
  9: 0x019D [0x6E] EventEntity uses emote 16*
 10: 0x01A4 [0x99] Wait for EventEntity animation to complete
 11: 0x01A9 [0x2B] Loussaire (ID: 17134119/0x01057227) [12232*]:
    → "Just to let you know. I have several assignments which I would be more than happy to receive your able assistance with. If you ever want to see about getting some more attire, just let me know."
 12: 0x01B0 [0x23] WAIT_FOR_DIALOG_INTERACTION
 13: 0x01B1 [0x21] END_EVENT
 14: 0x01B2 [0x00] END_REQSTACK()
```

### Event 55

#### Metadata

| Field        | Value    |
|--------------|----------|
| Entrypoint   | 0x01B3   |
| Data Size    | 61 bytes |
| Instructions | 14       |

```
      00 01 02 03 04 05 06 07  08 09 0A 0B 0C 0D 0E 0F
      -- -- -- -- -- -- -- --  -- -- -- -- -- -- -- --
01B0:          4A F0 FF FF 7F  F8 FF FF 7F 1E F0 FF FF     J............
01C0: 7F 6F 76 F8 FF FF 7F 02  09 10 04 80 00 DA 01 2B  .ov............+
01D0: 27 72 05 01 16 80 23 01  EE 01 6E F8 FF FF 7F 17  'r....#...n.....
01E0: 80 99 F8 FF FF 7F 2B 27  72 05 01 18 80 23 21 00  ......+'r....#!.
```

#### Opcodes

```
  0: 0x01B3 [0x4A] LocalPlayer looks at EventEntity
  1: 0x01BC [0x1E] EventEntity looks at LocalPlayer and starts talking
  2: 0x01C1 [0x6F] WAIT_FRAME_DELAY: Yield until WaitTime reaches zero
  3: 0x01C2 [0x76] CHECK_ENTITY_RENDER_FLAGS: Wait until EventEntity Render.Flags0 and Render.Flags3 conditions are met
  4: 0x01C7 [0x02] IF !(Work_Zone[9] == 1*) GOTO 0x01DA
  5: 0x01CF [0x2B] Loussaire (ID: 17134119/0x01057227) [12239*]:
    → "Well, I was able to get through all of my assignments without any major hang-ups. I expect cleeear sailing from here on out. All thanks to you. I truly am most grateful!"
  6: 0x01D6 [0x23] WAIT_FOR_DIALOG_INTERACTION
  7: 0x01D7 [0x01] GOTO 0x01EE
  8: 0x01DA [0x6E] EventEntity uses emote 32*
  9: 0x01E1 [0x99] Wait for EventEntity animation to complete
 10: 0x01E6 [0x2B] Loussaire (ID: 17134119/0x01057227) [12237*]:
    → "Hmmm... You don't quite seem...complete, yet. Something is still missing, to be sure. Unfortunately, I am fresh out of assignments for you to help me with."
 11: 0x01ED [0x23] WAIT_FOR_DIALOG_INTERACTION

SUBROUTINE_01EE:
 12: 0x01EE [0x21] END_EVENT
 13: 0x01EF [0x00] END_REQSTACK()
```

### Event 65535.1

#### Metadata

| Field        | Value    |
|--------------|----------|
| Entrypoint   | 0x01F0   |
| Data Size    | 44 bytes |
| Instructions | 10       |

```
      00 01 02 03 04 05 06 07  08 09 0A 0B 0C 0D 0E 0F
      -- -- -- -- -- -- -- --  -- -- -- -- -- -- -- --
01F0: 32 19 80 1F 00 1A 80 1B  80 1C 80 1F 01 1F 00 1D  2...............
0200: 80 1E 80 1F 80 1F 01 4A  F0 FF FF 7F F8 FF FF 7F  .......J........
0210: 1F 00 20 80 21 80 22 80  1F 01 6F 00              .. .!."...o.    
```

#### Opcodes

```
  0: 0x01F0 [0x32] ExtData[1]->MainSpeed = 40* * 0.1
  1: 0x01F3 [0x1F] MOVE_ENTITY: EventEntity moves to X=-251.858*, Z=-124.397*, Y=-8.862*
  2: 0x01FB [0x1F] MOVE_ENTITY: Update entity position (mode=1)
  3: 0x01FD [0x1F] MOVE_ENTITY: EventEntity moves to X=-256.766*, Z=-121.803*, Y=-9.366*
  4: 0x0205 [0x1F] MOVE_ENTITY: Update entity position (mode=1)
  5: 0x0207 [0x4A] LocalPlayer looks at EventEntity
  6: 0x0210 [0x1F] MOVE_ENTITY: EventEntity moves to X=-264.842*, Z=-116.421*, Y=-10.001*
  7: 0x0218 [0x1F] MOVE_ENTITY: Update entity position (mode=1)
  8: 0x021A [0x6F] WAIT_FRAME_DELAY: Yield until WaitTime reaches zero
  9: 0x021B [0x00] END_REQSTACK()
```

### Event 65535.2

#### Metadata

| Field        | Value    |
|--------------|----------|
| Entrypoint   | 0x021C   |
| Data Size    | 37 bytes |
| Instructions | 5        |

```
      00 01 02 03 04 05 06 07  08 09 0A 0B 0C 0D 0E 0F
      -- -- -- -- -- -- -- --  -- -- -- -- -- -- -- --
0210:                                      03 00 00 07              ....
0220: 7F 1A 66 02 66 01 00 F8  FF FF 7F F8 FF FF 7F 73  ..f.f..........s
0230: 68 61 30 53 F8 FF FF 7F  F8 FF FF 7F 73 68 61 30  ha0S........sha0
0240: 00                                                .               
```

#### Opcodes

```
  0: 0x021C [0x03] ExtData[1]->WorkLocal[0] = Entity->Race
  1: 0x0221 [0x1A] CALL_SUBROUTINE(address=0x0266)
  2: 0x0224 [0x66] LOAD_EXT_SCHEDULER_MAIN: Load scheduler "sha0" with entities [EventEntity, EventEntity], work=ExtData[1]->WorkLocal[1]
  3: 0x0233 [0x53] WAIT_SCHEDULER_TASK: Wait for scheduler "sha0" with entities [EventEntity, EventEntity]
  4: 0x0240 [0x00] END_REQSTACK()
```

### Event 65535.3

#### Metadata

| Field        | Value     |
|--------------|-----------|
| Entrypoint   | 0x0241    |
| Data Size    | 185 bytes |
| Instructions | 13        |

```
      00 01 02 03 04 05 06 07  08 09 0A 0B 0C 0D 0E 0F
      -- -- -- -- -- -- -- --  -- -- -- -- -- -- -- --
0240:    03 00 00 07 7F 1A 66  02 66 01 00 F8 FF FF 7F   ......f.f......
0250: F8 FF FF 7F 73 68 61 31  53 F8 FF FF 7F F8 FF FF  ....sha1S.......
0260: 7F 73 68 61 31 00 03 01  00 00 00 02 01 00 23 80  .sha1.........#.
0270: 05 7B 02 08 01 00 04 80  01 80 02 08 01 00 08 80  .{..............
0280: 14 01 00 24 80 07 01 00  25 80 1B 03 01 00 00 00  ...$....%.......
0290: 02 01 00 23 80 05 A0 02  08 01 00 04 80 01 A5 02  ...#............
02A0: 08 01 00 08 80 14 01 00  24 80 07 01 00 26 80 1B  ........$....&..
02B0: 03 01 00 00 00 02 01 00  23 80 05 C5 02 08 01 00  ........#.......
02C0: 04 80 01 CA 02 08 01 00  08 80 14 01 00 24 80 07  .............$..
02D0: 01 00 27 80 1B 03 01 00  00 00 02 01 00 23 80 05  ..'..........#..
02E0: EA 02 08 01 00 04 80 01  EF 02 08 01 00 08 80 14  ................
02F0: 01 00 24 80 07 01 00 28  80 1B                    ..$....(..      
```

#### Opcodes

```
  0: 0x0241 [0x03] ExtData[1]->WorkLocal[0] = Entity->Race
  1: 0x0246 [0x1A] CALL_SUBROUTINE(address=0x0266)
  2: 0x0249 [0x66] LOAD_EXT_SCHEDULER_MAIN: Load scheduler "sha1" with entities [EventEntity, EventEntity], work=ExtData[1]->WorkLocal[1]
  3: 0x0258 [0x53] WAIT_SCHEDULER_TASK: Wait for scheduler "sha1" with entities [EventEntity, EventEntity]
  4: 0x0265 [0x00] END_REQSTACK()

SUBROUTINE_0266:
  5: 0x0266 [0x03] ExtData[1]->WorkLocal[1] = ExtData[1]->WorkLocal[0]
  6: 0x026B [0x02] IF !(ExtData[1]->WorkLocal[1] > 5*) GOTO 0x027B
  7: 0x0273 [0x08] ExtData[1]->WorkLocal[1] -= 1*
  8: 0x0278 [0x01] GOTO 0x0280
  9: 0x027B [0x08] ExtData[1]->WorkLocal[1] -= 2*

SUBROUTINE_0280:
 10: 0x0280 [0x14] ExtData[1]->WorkLocal[1] *= 10*
 11: 0x0285 [0x07] ExtData[1]->WorkLocal[1] += 9*
 12: 0x028A [0x1B] RETURN
```

#### Data or dead code:

```
# Dead code (unreachable instructions):
     0x028B [0x03] ExtData[1]->WorkLocal[1] = ExtData[1]->WorkLocal[0]
     0x0290 [0x02] IF !(ExtData[1]->WorkLocal[1] > 5*) GOTO 0x02A0
     0x0298 [0x08] ExtData[1]->WorkLocal[1] -= 1*
     0x029D [0x01] GOTO 0x02A5
     0x02A0 [0x08] ExtData[1]->WorkLocal[1] -= 2*
     0x02A5 [0x14] ExtData[1]->WorkLocal[1] *= 10*
     0x02AA [0x07] ExtData[1]->WorkLocal[1] += 70*
     0x02AF [0x1B] RETURN
     0x02B0 [0x03] ExtData[1]->WorkLocal[1] = ExtData[1]->WorkLocal[0]
     0x02B5 [0x02] IF !(ExtData[1]->WorkLocal[1] > 5*) GOTO 0x02C5
     0x02BD [0x08] ExtData[1]->WorkLocal[1] -= 1*
     0x02C2 [0x01] GOTO 0x02CA
     0x02C5 [0x08] ExtData[1]->WorkLocal[1] -= 2*
     0x02CA [0x14] ExtData[1]->WorkLocal[1] *= 10*
     0x02CF [0x07] ExtData[1]->WorkLocal[1] += 140*
     0x02D4 [0x1B] RETURN
     0x02D5 [0x03] ExtData[1]->WorkLocal[1] = ExtData[1]->WorkLocal[0]
     0x02DA [0x02] IF !(ExtData[1]->WorkLocal[1] > 5*) GOTO 0x02EA
     0x02E2 [0x08] ExtData[1]->WorkLocal[1] -= 1*
     0x02E7 [0x01] GOTO 0x02EF
     0x02EA [0x08] ExtData[1]->WorkLocal[1] -= 2*
     0x02EF [0x14] ExtData[1]->WorkLocal[1] *= 10*
     0x02F4 [0x07] ExtData[1]->WorkLocal[1] += 210*
     0x02F9 [0x1B] RETURN
```
