# 17134148

## Common Data

| Field            | Value                       |
|------------------|-----------------------------|
| Zone             | Bastok Markets [S] (ID: 87) |
| Block Size       | 176 bytes                   |
| Total Events     | 8                           |
| References Count | 7                           |

## List of Events

| Event ID                 | Entrypoint   |   Size |   Instructions |
|--------------------------|--------------|--------|----------------|
| [65535](#event-65535)    | 0x0000       |      1 |              1 |
| [16](#event-16)          | 0x0001       |      1 |              1 |
| [56](#event-56)          | 0x0002       |      1 |              1 |
| [77](#event-77)          | 0x0003       |      7 |              2 |
| [65535.1](#event-655351) | 0x000A       |     37 |              6 |
| [65535.2](#event-655352) | 0x002F       |     40 |              7 |
| [65535.3](#event-655353) | 0x0057       |      6 |              2 |
| [71](#event-71)          | 0x005D       |      7 |              2 |

## DAT References (imed_data)

|   Index | Hex Value   |   Dec Value |
|---------|-------------|-------------|
|       0 | 0x0000      |           0 |
|       1 | 0x016B      |         363 |
|       2 | 0x0064      |         100 |
|       3 | 0x0037      |          55 |
|       4 | 0x016C      |         364 |
|       5 | 0x0087      |         135 |
|       6 | 0x0001      |           1 |

## Events

### Event 65535

#### Metadata

| Field        | Value   |
|--------------|---------|
| Entrypoint   | 0x0000  |
| Data Size    | 1 bytes |
| Instructions | 1       |

```
      00 01 02 03 04 05 06 07  08 09 0A 0B 0C 0D 0E 0F
      -- -- -- -- -- -- -- --  -- -- -- -- -- -- -- --
0000: 00                                                .               
```

#### Opcodes

```
  0: 0x0000 [0x00] END_REQSTACK()
```

### Event 16

#### Metadata

| Field        | Value   |
|--------------|---------|
| Entrypoint   | 0x0001  |
| Data Size    | 1 bytes |
| Instructions | 1       |

```
      00 01 02 03 04 05 06 07  08 09 0A 0B 0C 0D 0E 0F
      -- -- -- -- -- -- -- --  -- -- -- -- -- -- -- --
0000:    00                                              .              
```

#### Opcodes

```
  0: 0x0001 [0x00] END_REQSTACK()
```

### Event 56

#### Metadata

| Field        | Value   |
|--------------|---------|
| Entrypoint   | 0x0002  |
| Data Size    | 1 bytes |
| Instructions | 1       |

```
      00 01 02 03 04 05 06 07  08 09 0A 0B 0C 0D 0E 0F
      -- -- -- -- -- -- -- --  -- -- -- -- -- -- -- --
0000:       00                                            .             
```

#### Opcodes

```
  0: 0x0002 [0x00] END_REQSTACK()
```

### Event 77

#### Metadata

| Field        | Value   |
|--------------|---------|
| Entrypoint   | 0x0003  |
| Data Size    | 7 bytes |
| Instructions | 2       |

```
      00 01 02 03 04 05 06 07  08 09 0A 0B 0C 0D 0E 0F
      -- -- -- -- -- -- -- --  -- -- -- -- -- -- -- --
0000:          92 01 F8 FF FF  7F 00                       .......      
```

#### Opcodes

```
  0: 0x0003 [0x92] EventEntity->Render.Flags3 ^= 0x01
  1: 0x0009 [0x00] END_REQSTACK()
```

### Event 65535.1

#### Metadata

| Field        | Value    |
|--------------|----------|
| Entrypoint   | 0x000A   |
| Data Size    | 37 bytes |
| Instructions | 6        |

```
      00 01 02 03 04 05 06 07  08 09 0A 0B 0C 0D 0E 0F
      -- -- -- -- -- -- -- --  -- -- -- -- -- -- -- --
0000:                                03 00 00 00 80 02            ......
0010: 00 00 00 80 00 2E 00 45  01 80 F8 FF FF 7F F8 FF  .......E........
0020: FF 7F 6B 65 6E 34 00 80  1C 02 80 01 0F 00 00     ..ken4......... 
```

#### Opcodes

```
  0: 0x000A [0x03] ExtData[1]->WorkLocal[0] = 0*
  1: 0x000F [0x02] IF !(ExtData[1]->WorkLocal[0] == 0*) GOTO 0x002E
  2: 0x0017 [0x45] LOAD_SCHEDULED_TASK: Load scheduler "ken4" with entities [EventEntity, EventEntity], work=[363*, 0*]
  3: 0x0028 [0x1C] WAIT(100* ticks)
  4: 0x002B [0x01] GOTO 0x000F
  5: 0x002E [0x00] END_REQSTACK()
```

### Event 65535.2

#### Metadata

| Field        | Value    |
|--------------|----------|
| Entrypoint   | 0x002F   |
| Data Size    | 40 bytes |
| Instructions | 7        |

```
      00 01 02 03 04 05 06 07  08 09 0A 0B 0C 0D 0E 0F
      -- -- -- -- -- -- -- --  -- -- -- -- -- -- -- --
0020:                                               1C                 .
0030: 03 80 03 00 00 00 80 02  00 00 00 80 00 56 00 45  .............V.E
0040: 04 80 F8 FF FF 7F F8 FF  FF 7F 6B 65 6E 31 00 80  ..........ken1..
0050: 1C 05 80 01 37 00 00                              ....7..         
```

#### Opcodes

```
  0: 0x002F [0x1C] WAIT(55* ticks)
  1: 0x0032 [0x03] ExtData[1]->WorkLocal[0] = 0*
  2: 0x0037 [0x02] IF !(ExtData[1]->WorkLocal[0] == 0*) GOTO 0x0056
  3: 0x003F [0x45] LOAD_SCHEDULED_TASK: Load scheduler "ken1" with entities [EventEntity, EventEntity], work=[364*, 0*]
  4: 0x0050 [0x1C] WAIT(135* ticks)
  5: 0x0053 [0x01] GOTO 0x0037
  6: 0x0056 [0x00] END_REQSTACK()
```

### Event 65535.3

#### Metadata

| Field        | Value   |
|--------------|---------|
| Entrypoint   | 0x0057  |
| Data Size    | 6 bytes |
| Instructions | 2       |

```
      00 01 02 03 04 05 06 07  08 09 0A 0B 0C 0D 0E 0F
      -- -- -- -- -- -- -- --  -- -- -- -- -- -- -- --
0050:                      03  00 00 06 80 00                  ......   
```

#### Opcodes

```
  0: 0x0057 [0x03] ExtData[1]->WorkLocal[0] = 1*
  1: 0x005C [0x00] END_REQSTACK()
```

### Event 71

#### Metadata

| Field        | Value   |
|--------------|---------|
| Entrypoint   | 0x005D  |
| Data Size    | 7 bytes |
| Instructions | 2       |

```
      00 01 02 03 04 05 06 07  08 09 0A 0B 0C 0D 0E 0F
      -- -- -- -- -- -- -- --  -- -- -- -- -- -- -- --
0050:                                         92 01 F8               ...
0060: FF FF 7F 00                                       ....            
```

#### Opcodes

```
  0: 0x005D [0x92] EventEntity->Render.Flags3 ^= 0x01
  1: 0x0063 [0x00] END_REQSTACK()
```
