# 17134231 - kou1

## Common Data

| Field            | Value                       |
|------------------|-----------------------------|
| Zone             | Bastok Markets [S] (ID: 87) |
| Block Size       | 552 bytes                   |
| Total Events     | 20                          |
| References Count | 39                          |

## List of Events

| Event ID                   | Entrypoint   |   Size |   Instructions |
|----------------------------|--------------|--------|----------------|
| [65535](#event-65535)      | 0x0000       |      1 |              1 |
| [184](#event-184)          | 0x0001       |      1 |              1 |
| [65535.1](#event-655351)   | 0x0002       |     32 |              8 |
| [65535.2](#event-655352)   | 0x0022       |     21 |              5 |
| [65535.3](#event-655353)   | 0x0037       |     34 |              8 |
| [65535.4](#event-655354)   | 0x0059       |      1 |              1 |
| [65535.5](#event-655355)   | 0x005A       |     18 |              4 |
| [65535.6](#event-655356)   | 0x006C       |     10 |              2 |
| [65535.7](#event-655357)   | 0x0076       |      9 |              3 |
| [65535.8](#event-655358)   | 0x007F       |      9 |              3 |
| [65535.9](#event-655359)   | 0x0088       |     10 |              2 |
| [65535.10](#event-6553510) | 0x0092       |     10 |              2 |
| [180](#event-180)          | 0x009C       |      1 |              1 |
| [181](#event-181)          | 0x009D       |      1 |              1 |
| [182](#event-182)          | 0x009E       |      1 |              1 |
| [65535.11](#event-6553511) | 0x009F       |     39 |              8 |
| [71](#event-71)            | 0x00C6       |      7 |              2 |
| [65535.12](#event-6553512) | 0x00CD       |     34 |              8 |
| [65535.13](#event-6553513) | 0x00EF       |     34 |              8 |
| [65535.14](#event-6553514) | 0x0111       |     24 |              6 |

## DAT References (imed_data)

|   Index | Hex Value   |   Dec Value |
|---------|-------------|-------------|
|       0 | 0x15CBB     |       89275 |
|       1 | 0x214B      |        8523 |
|       2 | 0xFFFFB136  |  4294947126 |
|       3 | 0x17514     |       95508 |
|       4 | 0x23DD      |        9181 |
|       5 | 0x15C74     |       89204 |
|       6 | 0x2257      |        8791 |
|       7 | 0x0064      |         100 |
|       8 | 0x15956     |       88406 |
|       9 | 0x106E      |        4206 |
|      10 | 0x0000      |           0 |
|      11 | 0x0001      |           1 |
|      12 | 0x0080      |         128 |
|      13 | 0x000D      |          13 |
|      14 | 0x16822     |       92194 |
|      15 | 0x3861      |       14433 |
|      16 | 0xFFFFB127  |  4294947111 |
|      17 | 0x159D5     |       88533 |
|      18 | 0x34B2      |       13490 |
|      19 | 0x15A10     |       88592 |
|      20 | 0x2367      |        9063 |
|      21 | 0x158CA     |       88266 |
|      22 | 0x1583      |        5507 |
|      23 | 0xFFFFB138  |  4294947128 |
|      24 | 0x15897     |       88215 |
|      25 | 0x0EBE      |        3774 |
|      26 | 0xFFFFB3B4  |  4294947764 |
|      27 | 0x0320      |         800 |
|      28 | 0x001E      |          30 |
|      29 | 0x0028      |          40 |
|      30 | 0x15DD3     |       89555 |
|      31 | 0x0883      |        2179 |
|      32 | 0x168A2     |       92322 |
|      33 | 0x0070      |         112 |
|      34 | 0x16EF8     |       93944 |
|      35 | 0x001D      |          29 |
|      36 | 0x1AC72     |      109682 |
|      37 | 0xFFFFDC69  |  4294958185 |
|      38 | 0x05B9      |        1465 |

## Events

### Event 65535

#### Metadata

| Field        | Value   |
|--------------|---------|
| Entrypoint   | 0x0000  |
| Data Size    | 1 bytes |
| Instructions | 1       |

```
      00 01 02 03 04 05 06 07  08 09 0A 0B 0C 0D 0E 0F
      -- -- -- -- -- -- -- --  -- -- -- -- -- -- -- --
0000: 00                                                .               
```

#### Opcodes

```
  0: 0x0000 [0x00] END_REQSTACK()
```

### Event 184

#### Metadata

| Field        | Value   |
|--------------|---------|
| Entrypoint   | 0x0001  |
| Data Size    | 1 bytes |
| Instructions | 1       |

```
      00 01 02 03 04 05 06 07  08 09 0A 0B 0C 0D 0E 0F
      -- -- -- -- -- -- -- --  -- -- -- -- -- -- -- --
0000:    00                                              .              
```

#### Opcodes

```
  0: 0x0001 [0x00] END_REQSTACK()
```

### Event 65535.1

#### Metadata

| Field        | Value    |
|--------------|----------|
| Entrypoint   | 0x0002   |
| Data Size    | 32 bytes |
| Instructions | 8        |

```
      00 01 02 03 04 05 06 07  08 09 0A 0B 0C 0D 0E 0F
      -- -- -- -- -- -- -- --  -- -- -- -- -- -- -- --
0000:       1F 00 00 80 01 80  02 80 1F 01 6F 1F 00 03    ..........o...
0010: 80 04 80 02 80 1F 01 6F  4A 97 72 05 01 F2 71 05  .......oJ.r...q.
0020: 01 00                                             ..              
```

#### Opcodes

```
  0: 0x0002 [0x1F] MOVE_ENTITY: EventEntity moves to X=89.275*, Z=8.523*, Y=-20.170*
  1: 0x000A [0x1F] MOVE_ENTITY: Update entity position (mode=1)
  2: 0x000C [0x6F] WAIT_FRAME_DELAY: Yield until WaitTime reaches zero
  3: 0x000D [0x1F] MOVE_ENTITY: EventEntity moves to X=95.508*, Z=9.181*, Y=-20.170*
  4: 0x0015 [0x1F] MOVE_ENTITY: Update entity position (mode=1)
  5: 0x0017 [0x6F] WAIT_FRAME_DELAY: Yield until WaitTime reaches zero
  6: 0x0018 [0x4A] kou1 (ID: 17134231/0x01057297) looks at Klara (ID: 17134066/0x010571F2)
  7: 0x0021 [0x00] END_REQSTACK()
```

### Event 65535.2

#### Metadata

| Field        | Value    |
|--------------|----------|
| Entrypoint   | 0x0022   |
| Data Size    | 21 bytes |
| Instructions | 5        |

```
      00 01 02 03 04 05 06 07  08 09 0A 0B 0C 0D 0E 0F
      -- -- -- -- -- -- -- --  -- -- -- -- -- -- -- --
0020:       1F 00 03 80 04 80  02 80 1F 01 6F 4A 97 72    ..........oJ.r
0030: 05 01 F2 71 05 01 00                              ...q...         
```

#### Opcodes

```
  0: 0x0022 [0x1F] MOVE_ENTITY: EventEntity moves to X=95.508*, Z=9.181*, Y=-20.170*
  1: 0x002A [0x1F] MOVE_ENTITY: Update entity position (mode=1)
  2: 0x002C [0x6F] WAIT_FRAME_DELAY: Yield until WaitTime reaches zero
  3: 0x002D [0x4A] kou1 (ID: 17134231/0x01057297) looks at Klara (ID: 17134066/0x010571F2)
  4: 0x0036 [0x00] END_REQSTACK()
```

### Event 65535.3

#### Metadata

| Field        | Value    |
|--------------|----------|
| Entrypoint   | 0x0037   |
| Data Size    | 34 bytes |
| Instructions | 8        |

```
      00 01 02 03 04 05 06 07  08 09 0A 0B 0C 0D 0E 0F
      -- -- -- -- -- -- -- --  -- -- -- -- -- -- -- --
0030:                      1F  00 05 80 06 80 02 80 1F         .........
0040: 01 6F 4A 97 72 05 01 41  72 05 01 1C 07 80 1F 00  .oJ.r..Ar.......
0050: 08 80 09 80 02 80 1F 01  00                       .........       
```

#### Opcodes

```
  0: 0x0037 [0x1F] MOVE_ENTITY: EventEntity moves to X=89.204*, Z=8.791*, Y=-20.170*
  1: 0x003F [0x1F] MOVE_ENTITY: Update entity position (mode=1)
  2: 0x0041 [0x6F] WAIT_FRAME_DELAY: Yield until WaitTime reaches zero
  3: 0x0042 [0x4A] kou1 (ID: 17134231/0x01057297) looks at Unnamed NPC (ID: 17134145/0x01057241)
  4: 0x004B [0x1C] WAIT(100* ticks)
  5: 0x004E [0x1F] MOVE_ENTITY: EventEntity moves to X=88.406*, Z=4.206*, Y=-20.170*
  6: 0x0056 [0x1F] MOVE_ENTITY: Update entity position (mode=1)
  7: 0x0058 [0x00] END_REQSTACK()
```

### Event 65535.4

#### Metadata

| Field        | Value   |
|--------------|---------|
| Entrypoint   | 0x0059  |
| Data Size    | 1 bytes |
| Instructions | 1       |

```
      00 01 02 03 04 05 06 07  08 09 0A 0B 0C 0D 0E 0F
      -- -- -- -- -- -- -- --  -- -- -- -- -- -- -- --
0050:                             00                             .      
```

#### Opcodes

```
  0: 0x0059 [0x00] END_REQSTACK()
```

### Event 65535.5

#### Metadata

| Field        | Value    |
|--------------|----------|
| Entrypoint   | 0x005A   |
| Data Size    | 18 bytes |
| Instructions | 4        |

```
      00 01 02 03 04 05 06 07  08 09 0A 0B 0C 0D 0E 0F
      -- -- -- -- -- -- -- --  -- -- -- -- -- -- -- --
0050:                                22 00 2F 00 F8 FF            "./...
0060: FF 7F 6C F8 FF FF 7F 0A  80 0B 80 00              ..l.........    
```

#### Opcodes

```
  0: 0x005A [0x22] ENTITY_HIDE_FLAG(enabled=0x00)
  1: 0x005C [0x2F] EventEntity->Render.Flags0 &= ~0x80000 // Bit 19
  2: 0x0062 [0x6C] FADE_ENTITY_COLOR(entity_id=EventEntity, end_alpha=0*, fade_time=1*)
  3: 0x006B [0x00] END_REQSTACK()
```

### Event 65535.6

#### Metadata

| Field        | Value    |
|--------------|----------|
| Entrypoint   | 0x006C   |
| Data Size    | 10 bytes |
| Instructions | 2        |

```
      00 01 02 03 04 05 06 07  08 09 0A 0B 0C 0D 0E 0F
      -- -- -- -- -- -- -- --  -- -- -- -- -- -- -- --
0060:                                      6C F8 FF FF              l...
0070: 7F 0C 80 0B 80 00                                 ......          
```

#### Opcodes

```
  0: 0x006C [0x6C] FADE_ENTITY_COLOR(entity_id=EventEntity, end_alpha=128*, fade_time=1*)
  1: 0x0075 [0x00] END_REQSTACK()
```

### Event 65535.7

#### Metadata

| Field        | Value   |
|--------------|---------|
| Entrypoint   | 0x0076  |
| Data Size    | 9 bytes |
| Instructions | 3       |

```
      00 01 02 03 04 05 06 07  08 09 0A 0B 0C 0D 0E 0F
      -- -- -- -- -- -- -- --  -- -- -- -- -- -- -- --
0070:                   22 00  2F 00 F8 FF FF 7F 00           "./...... 
```

#### Opcodes

```
  0: 0x0076 [0x22] ENTITY_HIDE_FLAG(enabled=0x00)
  1: 0x0078 [0x2F] EventEntity->Render.Flags0 &= ~0x80000 // Bit 19
  2: 0x007E [0x00] END_REQSTACK()
```

### Event 65535.8

#### Metadata

| Field        | Value   |
|--------------|---------|
| Entrypoint   | 0x007F  |
| Data Size    | 9 bytes |
| Instructions | 3       |

```
      00 01 02 03 04 05 06 07  08 09 0A 0B 0C 0D 0E 0F
      -- -- -- -- -- -- -- --  -- -- -- -- -- -- -- --
0070:                                               22                 "
0080: 01 2F 01 F8 FF FF 7F 00                           ./......        
```

#### Opcodes

```
  0: 0x007F [0x22] ENTITY_HIDE_FLAG(enabled=0x01)
  1: 0x0081 [0x2F] EventEntity->Render.Flags0 |= 0x80000 // Bit 19
  2: 0x0087 [0x00] END_REQSTACK()
```

### Event 65535.9

#### Metadata

| Field        | Value    |
|--------------|----------|
| Entrypoint   | 0x0088   |
| Data Size    | 10 bytes |
| Instructions | 2        |

```
      00 01 02 03 04 05 06 07  08 09 0A 0B 0C 0D 0E 0F
      -- -- -- -- -- -- -- --  -- -- -- -- -- -- -- --
0080:                          6C F8 FF FF 7F 0A 80 0B          l.......
0090: 80 00                                             ..              
```

#### Opcodes

```
  0: 0x0088 [0x6C] FADE_ENTITY_COLOR(entity_id=EventEntity, end_alpha=0*, fade_time=1*)
  1: 0x0091 [0x00] END_REQSTACK()
```

### Event 65535.10

#### Metadata

| Field        | Value    |
|--------------|----------|
| Entrypoint   | 0x0092   |
| Data Size    | 10 bytes |
| Instructions | 2        |

```
      00 01 02 03 04 05 06 07  08 09 0A 0B 0C 0D 0E 0F
      -- -- -- -- -- -- -- --  -- -- -- -- -- -- -- --
0090:       6C F8 FF FF 7F 0C  80 0B 80 00                l.........    
```

#### Opcodes

```
  0: 0x0092 [0x6C] FADE_ENTITY_COLOR(entity_id=EventEntity, end_alpha=128*, fade_time=1*)
  1: 0x009B [0x00] END_REQSTACK()
```

### Event 180

#### Metadata

| Field        | Value   |
|--------------|---------|
| Entrypoint   | 0x009C  |
| Data Size    | 1 bytes |
| Instructions | 1       |

```
      00 01 02 03 04 05 06 07  08 09 0A 0B 0C 0D 0E 0F
      -- -- -- -- -- -- -- --  -- -- -- -- -- -- -- --
0090:                                      00                       .   
```

#### Opcodes

```
  0: 0x009C [0x00] END_REQSTACK()
```

### Event 181

#### Metadata

| Field        | Value   |
|--------------|---------|
| Entrypoint   | 0x009D  |
| Data Size    | 1 bytes |
| Instructions | 1       |

```
      00 01 02 03 04 05 06 07  08 09 0A 0B 0C 0D 0E 0F
      -- -- -- -- -- -- -- --  -- -- -- -- -- -- -- --
0090:                                         00                     .  
```

#### Opcodes

```
  0: 0x009D [0x00] END_REQSTACK()
```

### Event 182

#### Metadata

| Field        | Value   |
|--------------|---------|
| Entrypoint   | 0x009E  |
| Data Size    | 1 bytes |
| Instructions | 1       |

```
      00 01 02 03 04 05 06 07  08 09 0A 0B 0C 0D 0E 0F
      -- -- -- -- -- -- -- --  -- -- -- -- -- -- -- --
0090:                                            00                   . 
```

#### Opcodes

```
  0: 0x009E [0x00] END_REQSTACK()
```

### Event 65535.11

#### Metadata

| Field        | Value    |
|--------------|----------|
| Entrypoint   | 0x009F   |
| Data Size    | 39 bytes |
| Instructions | 8        |

```
      00 01 02 03 04 05 06 07  08 09 0A 0B 0C 0D 0E 0F
      -- -- -- -- -- -- -- --  -- -- -- -- -- -- -- --
0090:                                               59                 Y
00A0: 04 97 72 05 01 0D 80 1F  00 0E 80 0F 80 10 80 1F  ..r.............
00B0: 01 1F 00 11 80 12 80 02  80 1F 01 1F 00 13 80 14  ................
00C0: 80 02 80 1F 01 00                                 ......          
```

#### Opcodes

```
  0: 0x009F [0x59] UPDATE_ENTITY_DATA: Set kou1 (ID: 17134231/0x01057297) main speed = 13* * 0.1
  1: 0x00A7 [0x1F] MOVE_ENTITY: EventEntity moves to X=92.194*, Z=14.433*, Y=-20.185*
  2: 0x00AF [0x1F] MOVE_ENTITY: Update entity position (mode=1)
  3: 0x00B1 [0x1F] MOVE_ENTITY: EventEntity moves to X=88.533*, Z=13.490*, Y=-20.170*
  4: 0x00B9 [0x1F] MOVE_ENTITY: Update entity position (mode=1)
  5: 0x00BB [0x1F] MOVE_ENTITY: EventEntity moves to X=88.592*, Z=9.063*, Y=-20.170*
  6: 0x00C3 [0x1F] MOVE_ENTITY: Update entity position (mode=1)
  7: 0x00C5 [0x00] END_REQSTACK()
```

### Event 71

#### Metadata

| Field        | Value   |
|--------------|---------|
| Entrypoint   | 0x00C6  |
| Data Size    | 7 bytes |
| Instructions | 2       |

```
      00 01 02 03 04 05 06 07  08 09 0A 0B 0C 0D 0E 0F
      -- -- -- -- -- -- -- --  -- -- -- -- -- -- -- --
00C0:                   92 01  F8 FF FF 7F 00                 .......   
```

#### Opcodes

```
  0: 0x00C6 [0x92] EventEntity->Render.Flags3 ^= 0x01
  1: 0x00CC [0x00] END_REQSTACK()
```

### Event 65535.12

#### Metadata

| Field        | Value    |
|--------------|----------|
| Entrypoint   | 0x00CD   |
| Data Size    | 34 bytes |
| Instructions | 8        |

```
      00 01 02 03 04 05 06 07  08 09 0A 0B 0C 0D 0E 0F
      -- -- -- -- -- -- -- --  -- -- -- -- -- -- -- --
00C0:                                         32 0D 80               2..
00D0: 5A 00 15 80 16 80 17 80  5A 01 5A 00 18 80 19 80  Z.......Z.Z.....
00E0: 1A 80 5A 01 4B F8 FF FF  7F 1B 80 1C 1C 80 00     ..Z.K.......... 
```

#### Opcodes

```
  0: 0x00CD [0x32] ExtData[1]->MainSpeed = 13* * 0.1
  1: 0x00D0 [0x5A] UPDATE_EVENT_POSITION: Set EventEntity MovePosition to X=88.266*, Z=5.507*, Y=-20.168*
  2: 0x00D8 [0x5A] UPDATE_EVENT_POSITION: Move EventEntity incrementally towards MovePosition
  3: 0x00DA [0x5A] UPDATE_EVENT_POSITION: Set EventEntity MovePosition to X=88.215*, Z=3.774*, Y=-19.532*
  4: 0x00E2 [0x5A] UPDATE_EVENT_POSITION: Move EventEntity incrementally towards MovePosition
  5: 0x00E4 [0x4B] UPDATE_ENTITY_YAW(entity=EventEntity, yaw=4.4°*)
  6: 0x00EB [0x1C] WAIT(30* ticks)
  7: 0x00EE [0x00] END_REQSTACK()
```

### Event 65535.13

#### Metadata

| Field        | Value    |
|--------------|----------|
| Entrypoint   | 0x00EF   |
| Data Size    | 34 bytes |
| Instructions | 8        |

```
      00 01 02 03 04 05 06 07  08 09 0A 0B 0C 0D 0E 0F
      -- -- -- -- -- -- -- --  -- -- -- -- -- -- -- --
00E0:                                               32                 2
00F0: 1D 80 5A 00 1E 80 1F 80  1A 80 5A 01 5A 00 20 80  ..Z.......Z.Z. .
0100: 21 80 1A 80 5A 01 5A 00  22 80 23 80 17 80 5A 01  !...Z.Z.".#...Z.
0110: 00                                                .               
```

#### Opcodes

```
  0: 0x00EF [0x32] ExtData[1]->MainSpeed = 40* * 0.1
  1: 0x00F2 [0x5A] UPDATE_EVENT_POSITION: Set EventEntity MovePosition to X=89.555*, Z=2.179*, Y=-19.532*
  2: 0x00FA [0x5A] UPDATE_EVENT_POSITION: Move EventEntity incrementally towards MovePosition
  3: 0x00FC [0x5A] UPDATE_EVENT_POSITION: Set EventEntity MovePosition to X=92.322*, Z=0.112*, Y=-19.532*
  4: 0x0104 [0x5A] UPDATE_EVENT_POSITION: Move EventEntity incrementally towards MovePosition
  5: 0x0106 [0x5A] UPDATE_EVENT_POSITION: Set EventEntity MovePosition to X=93.944*, Z=0.029*, Y=-20.168*
  6: 0x010E [0x5A] UPDATE_EVENT_POSITION: Move EventEntity incrementally towards MovePosition
  7: 0x0110 [0x00] END_REQSTACK()
```

### Event 65535.14

#### Metadata

| Field        | Value    |
|--------------|----------|
| Entrypoint   | 0x0111   |
| Data Size    | 24 bytes |
| Instructions | 6        |

```
      00 01 02 03 04 05 06 07  08 09 0A 0B 0C 0D 0E 0F
      -- -- -- -- -- -- -- --  -- -- -- -- -- -- -- --
0110:    32 1D 80 5A 00 24 80  25 80 02 80 5A 01 4B F8   2..Z.$.%...Z.K.
0120: FF FF 7F 26 80 1C 1C 80  00                       ...&.....       
```

#### Opcodes

```
  0: 0x0111 [0x32] ExtData[1]->MainSpeed = 40* * 0.1
  1: 0x0114 [0x5A] UPDATE_EVENT_POSITION: Set EventEntity MovePosition to X=109.682*, Z=-9.111*, Y=-20.170*
  2: 0x011C [0x5A] UPDATE_EVENT_POSITION: Move EventEntity incrementally towards MovePosition
  3: 0x011E [0x4B] UPDATE_ENTITY_YAW(entity=EventEntity, yaw=8.0°*)
  4: 0x0125 [0x1C] WAIT(30* ticks)
  5: 0x0128 [0x00] END_REQSTACK()
```
