# 17134087 - Hieronymus

## Common Data

| Field            | Value                       |
|------------------|-----------------------------|
| Zone             | Bastok Markets [S] (ID: 87) |
| Block Size       | 6332 bytes                  |
| Total Events     | 10                          |
| References Count | 272                         |

## List of Events

| Event ID              | Entrypoint   |   Size |   Instructions |
|-----------------------|--------------|--------|----------------|
| [65535](#event-65535) | 0x0000       |      1 |              1 |
| [324](#event-324)     | 0x0001       |     58 |             17 |
| [321](#event-321)     | 0x003B       |     19 |              7 |
| [320](#event-320)     | 0x004E       |     19 |              7 |
| [317](#event-317)     | 0x0061       |     80 |             24 |
| [318](#event-318)     | 0x00B1       |    101 |             25 |
| [319](#event-319)     | 0x0116       |    160 |             36 |
| [316](#event-316)     | 0x01B6       |   4746 |            998 |
| [359](#event-359)     | 0x1440       |      1 |              1 |
| [360](#event-360)     | 0x1441       |      1 |              1 |

## DAT References (imed_data)

|   Index | Hex Value   |   Dec Value |
|---------|-------------|-------------|
|       0 | 0x09F8      |        2552 |
|       1 | 0x2C9A      |       11418 |
|       2 | 0x2C9B      |       11419 |
|       3 | 0x0000      |           0 |
|       4 | 0x2C9C      |       11420 |
|       5 | 0x0006      |           6 |
|       6 | 0x2C9D      |       11421 |
|       7 | 0x0007      |           7 |
|       8 | 0x2C7D      |       11389 |
|       9 | 0x2C7E      |       11390 |
|      10 | 0x2C32      |       11314 |
|      11 | 0x2C33      |       11315 |
|      12 | 0x2C73      |       11379 |
|      13 | 0x2C74      |       11380 |
|      14 | 0x0001      |           1 |
|      15 | 0x2C76      |       11382 |
|      16 | 0x2C77      |       11383 |
|      17 | 0x0002      |           2 |
|      18 | 0x2C75      |       11381 |
|      19 | 0x2C78      |       11384 |
|      20 | 0x00C8      |         200 |
|      21 | 0x003C      |          60 |
|      22 | 0x2C79      |       11385 |
|      23 | 0x2C7C      |       11388 |
|      24 | 0x0003      |           3 |
|      25 | 0x0004      |           4 |
|      26 | 0x0005      |           5 |
|      27 | 0x0063      |          99 |
|      28 | 0x2C7A      |       11386 |
|      29 | 0x2C7B      |       11387 |
|      30 | 0x1C42      |        7234 |
|      31 | 0x2C34      |       11316 |
|      32 | 0x2C35      |       11317 |
|      33 | 0x2C36      |       11318 |
|      34 | 0x2C72      |       11378 |
|      35 | 0x2C99      |       11417 |
|      36 | 0x2C98      |       11416 |
|      37 | 0x2C37      |       11319 |
|      38 | 0x2C38      |       11320 |
|      39 | 0x2C3D      |       11325 |
|      40 | 0x2C3F      |       11327 |
|      41 | 0x0009      |           9 |
|      42 | 0x2C40      |       11328 |
|      43 | 0x2C39      |       11321 |
|      44 | 0x2C3A      |       11322 |
|      45 | 0x2C3B      |       11323 |
|      46 | 0x2C3C      |       11324 |
|      47 | 0x0008      |           8 |
|      48 | 0x2CA1      |       11425 |
|      49 | 0x2CA2      |       11426 |
|      50 | 0x000B      |          11 |
|      51 | 0x000C      |          12 |
|      52 | 0x000F      |          15 |
|      53 | 0x0010      |          16 |
|      54 | 0x0013      |          19 |
|      55 | 0x0014      |          20 |
|      56 | 0x0017      |          23 |
|      57 | 0x0018      |          24 |
|      58 | 0x001B      |          27 |
|      59 | 0x001C      |          28 |
|      60 | 0x001F      |          31 |
|      61 | 0x2C45      |       11333 |
|      62 | 0x2C5E      |       11358 |
|      63 | 0x000A      |          10 |
|      64 | 0x2C5D      |       11357 |
|      65 | 0x000D      |          13 |
|      66 | 0x000E      |          14 |
|      67 | 0x2C5F      |       11359 |
|      68 | 0x0011      |          17 |
|      69 | 0x0012      |          18 |
|      70 | 0x2C46      |       11334 |
|      71 | 0x2C60      |       11360 |
|      72 | 0x2C6B      |       11371 |
|      73 | 0x2C6C      |       11372 |
|      74 | 0x2C61      |       11361 |
|      75 | 0x2C62      |       11362 |
|      76 | 0x2C48      |       11336 |
|      77 | 0x2C63      |       11363 |
|      78 | 0x2C64      |       11364 |
|      79 | 0x2C65      |       11365 |
|      80 | 0x2C66      |       11366 |
|      81 | 0x2C67      |       11367 |
|      82 | 0x2C47      |       11335 |
|      83 | 0x2C68      |       11368 |
|      84 | 0x2C69      |       11369 |
|      85 | 0x2C41      |       11329 |
|      86 | 0x2C4A      |       11338 |
|      87 | 0x2C4D      |       11341 |
|      88 | 0x2C4E      |       11342 |
|      89 | 0x2C4F      |       11343 |
|      90 | 0x2C50      |       11344 |
|      91 | 0x2C4B      |       11339 |
|      92 | 0x2C42      |       11330 |
|      93 | 0x2C51      |       11345 |
|      94 | 0x2C52      |       11346 |
|      95 | 0x2C43      |       11331 |
|      96 | 0x2C53      |       11347 |
|      97 | 0x2C58      |       11352 |
|      98 | 0x2C55      |       11349 |
|      99 | 0x2C54      |       11348 |
|     100 | 0x2C57      |       11351 |
|     101 | 0x2C59      |       11353 |
|     102 | 0x2C44      |       11332 |
|     103 | 0x2C5A      |       11354 |
|     104 | 0x2C5B      |       11355 |
|     105 | 0x2C6D      |       11373 |
|     106 | 0x2C6E      |       11374 |
|     107 | 0x2C6F      |       11375 |
|     108 | 0x2C70      |       11376 |
|     109 | 0xFFFFFFFF  |  4294967295 |
|     110 | 0x2C71      |       11377 |
|     111 | 0xFFFFFFFE  |  4294967294 |
|     112 | 0x2C3E      |       11326 |
|     113 | 0x00AB      |         171 |
|     114 | 0x00AC      |         172 |
|     115 | 0x00AD      |         173 |
|     116 | 0x00AE      |         174 |
|     117 | 0x00AF      |         175 |
|     118 | 0x00B0      |         176 |
|     119 | 0x00B1      |         177 |
|     120 | 0x00B2      |         178 |
|     121 | 0x00B3      |         179 |
|     122 | 0x00B4      |         180 |
|     123 | 0x00B5      |         181 |
|     124 | 0x00B6      |         182 |
|     125 | 0x00B7      |         183 |
|     126 | 0x00B8      |         184 |
|     127 | 0x00B9      |         185 |
|     128 | 0x00BA      |         186 |
|     129 | 0x00BB      |         187 |
|     130 | 0x00BC      |         188 |
|     131 | 0x00BD      |         189 |
|     132 | 0x00BE      |         190 |
|     133 | 0x00BF      |         191 |
|     134 | 0x00C0      |         192 |
|     135 | 0x00C1      |         193 |
|     136 | 0x00C2      |         194 |
|     137 | 0x00C3      |         195 |
|     138 | 0x00C4      |         196 |
|     139 | 0x00C5      |         197 |
|     140 | 0x00C6      |         198 |
|     141 | 0x00C7      |         199 |
|     142 | 0x00C9      |         201 |
|     143 | 0x00CA      |         202 |
|     144 | 0x00CB      |         203 |
|     145 | 0x00CC      |         204 |
|     146 | 0x00CD      |         205 |
|     147 | 0x00CE      |         206 |
|     148 | 0x00CF      |         207 |
|     149 | 0x00D0      |         208 |
|     150 | 0x00D1      |         209 |
|     151 | 0x00D2      |         210 |
|     152 | 0x00D3      |         211 |
|     153 | 0x00D4      |         212 |
|     154 | 0x00D5      |         213 |
|     155 | 0x00D7      |         215 |
|     156 | 0x00D6      |         214 |
|     157 | 0x00DB      |         219 |
|     158 | 0x00D8      |         216 |
|     159 | 0x00D9      |         217 |
|     160 | 0x00DA      |         218 |
|     161 | 0x00DC      |         220 |
|     162 | 0x00DD      |         221 |
|     163 | 0x00DE      |         222 |
|     164 | 0x00DF      |         223 |
|     165 | 0x00E0      |         224 |
|     166 | 0x00E1      |         225 |
|     167 | 0x00E2      |         226 |
|     168 | 0x00E3      |         227 |
|     169 | 0x00E4      |         228 |
|     170 | 0x00E5      |         229 |
|     171 | 0x00E6      |         230 |
|     172 | 0x00E7      |         231 |
|     173 | 0x00E8      |         232 |
|     174 | 0x00E9      |         233 |
|     175 | 0x00EA      |         234 |
|     176 | 0x00EB      |         235 |
|     177 | 0x00EC      |         236 |
|     178 | 0x00ED      |         237 |
|     179 | 0x00EE      |         238 |
|     180 | 0x00EF      |         239 |
|     181 | 0x00F0      |         240 |
|     182 | 0x00F1      |         241 |
|     183 | 0x00F2      |         242 |
|     184 | 0x00F3      |         243 |
|     185 | 0x00F4      |         244 |
|     186 | 0x00F5      |         245 |
|     187 | 0x00F6      |         246 |
|     188 | 0x00F7      |         247 |
|     189 | 0x00F8      |         248 |
|     190 | 0x00F9      |         249 |
|     191 | 0x00FA      |         250 |
|     192 | 0x00FB      |         251 |
|     193 | 0x00FC      |         252 |
|     194 | 0x00FD      |         253 |
|     195 | 0x00FE      |         254 |
|     196 | 0x00FF      |         255 |
|     197 | 0x0100      |         256 |
|     198 | 0x0101      |         257 |
|     199 | 0x0102      |         258 |
|     200 | 0x0103      |         259 |
|     201 | 0x0104      |         260 |
|     202 | 0x0105      |         261 |
|     203 | 0x0106      |         262 |
|     204 | 0x0107      |         263 |
|     205 | 0x0108      |         264 |
|     206 | 0x0109      |         265 |
|     207 | 0x010A      |         266 |
|     208 | 0x010B      |         267 |
|     209 | 0x010C      |         268 |
|     210 | 0x010D      |         269 |
|     211 | 0x010E      |         270 |
|     212 | 0x010F      |         271 |
|     213 | 0x0110      |         272 |
|     214 | 0x0111      |         273 |
|     215 | 0x0112      |         274 |
|     216 | 0x0113      |         275 |
|     217 | 0x0114      |         276 |
|     218 | 0x0115      |         277 |
|     219 | 0x0116      |         278 |
|     220 | 0x0117      |         279 |
|     221 | 0x0118      |         280 |
|     222 | 0x0119      |         281 |
|     223 | 0x011A      |         282 |
|     224 | 0x011B      |         283 |
|     225 | 0x011D      |         285 |
|     226 | 0x011C      |         284 |
|     227 | 0x011E      |         286 |
|     228 | 0x011F      |         287 |
|     229 | 0x0120      |         288 |
|     230 | 0x0121      |         289 |
|     231 | 0x0122      |         290 |
|     232 | 0x0123      |         291 |
|     233 | 0x0124      |         292 |
|     234 | 0x0125      |         293 |
|     235 | 0x0126      |         294 |
|     236 | 0x0127      |         295 |
|     237 | 0x0128      |         296 |
|     238 | 0x0129      |         297 |
|     239 | 0x012A      |         298 |
|     240 | 0x012B      |         299 |
|     241 | 0x012C      |         300 |
|     242 | 0x012D      |         301 |
|     243 | 0x012E      |         302 |
|     244 | 0x012F      |         303 |
|     245 | 0x0130      |         304 |
|     246 | 0x0131      |         305 |
|     247 | 0x0132      |         306 |
|     248 | 0x0133      |         307 |
|     249 | 0x0134      |         308 |
|     250 | 0x0135      |         309 |
|     251 | 0x0136      |         310 |
|     252 | 0x0137      |         311 |
|     253 | 0x0138      |         312 |
|     254 | 0x0139      |         313 |
|     255 | 0x013A      |         314 |
|     256 | 0x013B      |         315 |
|     257 | 0x013C      |         316 |
|     258 | 0x013D      |         317 |
|     259 | 0x013E      |         318 |
|     260 | 0x013F      |         319 |
|     261 | 0x0140      |         320 |
|     262 | 0x0141      |         321 |
|     263 | 0x0142      |         322 |
|     264 | 0x0143      |         323 |
|     265 | 0x0144      |         324 |
|     266 | 0x0145      |         325 |
|     267 | 0x0146      |         326 |
|     268 | 0x0147      |         327 |
|     269 | 0x0148      |         328 |
|     270 | 0x0149      |         329 |
|     271 | 0x014A      |         330 |

## String References

- **7234**: You have earned $0 Allied Note[/s]!
- **11314**: You need to know somethin' 'bout Allied Campaign operations, Hieronymus's your man!
- **11315**: Hold on one stinkin' minute... You're not one of us! Scram! The president doesn't have time to wipe drool off the mugs of any Taru or Elf lovers!
- **11316**: Wait... Don't tell me you're one of the Fourth's new recruits. Pshhh. That means I'll probably have to hold your hand while I explain about Op Credits, eh?
- **11317**: Learn about Op Credits? [No./Yes.]
- **11318**: Oh, [big mister smart boy/little miss smarty-pants], are we now?
- **11319**: Let's see... <Player>--Fourth Division, Seventh Cohors. It says here you got $0 [Op Credit/Op Credits].
- **11320**: Participate in an operation? [Sign me up!/Tell me more about Op Credits./View your nation's information./Not today.]
- **11321**: Alright, rookie, listen up. To make sure everything is fair and square during the campaign, a bunch of important types have come up with a system that's supposed to regulate everybody's participation in operations.
- **11322**: Every soldier in the legion is given a single Op Credit that they can either redeem, save up, or wipe themselves with, for all I care.
- **11323**: At least one credit is needed to join most campaign operations. More advanced missions will cost you extra, with one coming every [day/ten minutes].
- **11324**: Just remember, once you hand over that credit, it ain't never coming back, no matter if you break your knee or lose your breeches.
- **11325**: Hmph. Then stop wasting my time, rookie!
- **11326**: Well, look at this. There's not a single operation available to you, rookie. Better luck next time, eh?
- **11327**: You've been cleared for service in the following operations:
- **11328**: Please select a category. [Resource procurement./Supply transport./Security./Supply manufacture./Offensive operations./Defensive operations./Intel gathering./Military training./Quit.]
- **11329**: Please select an operation. [Smokescreen I. ([$26/$26$26/$26$26$26/$26$26$26$26/$26$26$26$26$26])/Smokescreen II. ([$26/$26$26/$26$26$26/$26$26$26$26/$26$26$26$26$26])/Smokescreen III. ([$26/$26$26/$26$26$26/$26$26$26$26/$26$26$26$26$26])/Smokescreen IV. ([$26/$26$26/$26$26$26/$26$26$26$26/$26$26$26$26$26])/Smokescreen V. ([$26/$26$26/$26$26$26/$26$26$26$26/$26$26$26$26$26])/Cracking Shells. ([$26/$26$26/$26$26$26/$26$26$26$26/$26$26$26$26$26])/Kinslayer: Baileys. ([$26/$26$26/$26$26$26/$26$26$26$26/$26$26$26$26$26])/Kinslayer: Keep. ([$26/$26$26/$26$26$26/$26$26$26$26/$26$26$26$26$26])/Fiat Lux. ([$26/$26$26/$26$26$26/$26$26$26$26/$26$26$26$26$26])/Top Secret Operation X. ([$26/$26$26/$26$26$26/$26$26$26$26/$26$26$26$26$26])/Pit Spider I. ([$26/$26$26/$26$26$26/$26$26$26$26/$26$26$26$26$26])/Pit Spider II. ([$26/$26$26/$26$26$26/$26$26$26$26/$26$26$26$26$26])/Pit Spider III. ([$26/$26$26/$26$26$26/$26$26$26$26/$26$26$26$26$26])/By Light of Fire I. ([$26/$26$26/$26$26$26/$26$26$26$26/$26$26$26$26$26])/Top Secret Operation X. ([$26/$26$26/$26$26$26/$26$26$26$26/$26$26$26$26$26])/Top Secret Operation X. ([$26/$26$26/$26$26$26/$26$26$26$26/$26$26$26$26$26])/Top Secret Operation X. ([$26/$26$26/$26$26$26/$26$26$26$26/$26$26$26$26$26])/Top Secret Operation X. ([$26/$26$26/$26$26$26/$26$26$26$26/$26$26$26$26$26])/Top Secret Operation X. ([$26/$26$26/$26$26$26/$26$26$26$26/$26$26$26$26$26])/Top Secret Operation X. ([$26/$26$26/$26$26$26/$26$26$26$26/$26$26$26$26$26])/Quit.]
- **11330**: Please select an operation. [Aegis Scream I. ([$26/$26$26/$26$26$26/$26$26$26$26/$26$26$26$26$26])/Aegis Scream II. ([$26/$26$26/$26$26$26/$26$26$26$26/$26$26$26$26$26])/Aegis Scream III. ([$26/$26$26/$26$26$26/$26$26$26$26/$26$26$26$26$26])/Aegis Scream IV. ([$26/$26$26/$26$26$26/$26$26$26$26/$26$26$26$26$26])/Aegis Scream V. ([$26/$26$26/$26$26$26/$26$26$26$26/$26$26$26$26$26])/Top Secret Operation X. ([$26/$26$26/$26$26$26/$26$26$26$26/$26$26$26$26$26])/Top Secret Operation X. ([$26/$26$26/$26$26$26/$26$26$26$26/$26$26$26$26$26])/Top Secret Operation X. ([$26/$26$26/$26$26$26/$26$26$26$26/$26$26$26$26$26])/Top Secret Operation X. ([$26/$26$26/$26$26$26/$26$26$26$26/$26$26$26$26$26])/Top Secret Operation X. ([$26/$26$26/$26$26$26/$26$26$26$26/$26$26$26$26$26])/Granite Rose I. ([$26/$26$26/$26$26$26/$26$26$26$26/$26$26$26$26$26])/Granite Rose II. ([$26/$26$26/$26$26$26/$26$26$26$26/$26$26$26$26$26])/Granite Rose III. ([$26/$26$26/$26$26$26/$26$26$26$26/$26$26$26$26$26])/Top Secret Operation X. ([$26/$26$26/$26$26$26/$26$26$26$26/$26$26$26$26$26])/Top Secret Operation X. ([$26/$26$26/$26$26$26/$26$26$26$26/$26$26$26$26$26])/Top Secret Operation X. ([$26/$26$26/$26$26$26/$26$26$26$26/$26$26$26$26$26])/Top Secret Operation X. ([$26/$26$26/$26$26$26/$26$26$26$26/$26$26$26$26$26])/Top Secret Operation X. ([$26/$26$26/$26$26$26/$26$26$26$26/$26$26$26$26$26])/Top Secret Operation X. ([$26/$26$26/$26$26$26/$26$26$26$26/$26$26$26$26$26])/Top Secret Operation X. ([$26/$26$26/$26$26$26/$26$26$26$26/$26$26$26$26$26])/Quit.]
- **11331**: Please select an operation. [Hawk Eye I. ([$26/$26$26/$26$26$26/$26$26$26$26/$26$26$26$26$26])/Hawk Eye II. ([$26/$26$26/$26$26$26/$26$26$26$26/$26$26$26$26$26])/Hawk Eye III. ([$26/$26$26/$26$26$26/$26$26$26$26/$26$26$26$26$26])/Hawk Eye IV. ([$26/$26$26/$26$26$26/$26$26$26$26/$26$26$26$26$26])/Prying Eyes I. ([$26/$26$26/$26$26$26/$26$26$26$26/$26$26$26$26$26])/Prying Eyes II. ([$26/$26$26/$26$26$26/$26$26$26$26/$26$26$26$26$26])/Deep Cover I. ([$26/$26$26/$26$26$26/$26$26$26$26/$26$26$26$26$26])/Deep Cover II. ([$26/$26$26/$26$26$26/$26$26$26$26/$26$26$26$26$26])/Deep Cover III. ([$26/$26$26/$26$26$26/$26$26$26$26/$26$26$26$26$26])/Top Secret Operation X. ([$26/$26$26/$26$26$26/$26$26$26$26/$26$26$26$26$26])/Slaughterhouse I. ([$26/$26$26/$26$26$26/$26$26$26$26/$26$26$26$26$26])/Slaughterhouse II. ([$26/$26$26/$26$26$26/$26$26$26$26/$26$26$26$26$26])/Slaughterhouse III. ([$26/$26$26/$26$26$26/$26$26$26$26/$26$26$26$26$26])/Slaughterhouse IV. ([$26/$26$26/$26$26$26/$26$26$26$26/$26$26$26$26$26])/Frozen Flame. ([$26/$26$26/$26$26$26/$26$26$26$26/$26$26$26$26$26])/Bailey Borer. ([$26/$26$26/$26$26$26/$26$26$26$26/$26$26$26$26$26])/Top Secret Operation X. ([$26/$26$26/$26$26$26/$26$26$26$26/$26$26$26$26$26])/Top Secret Operation X. ([$26/$26$26/$26$26$26/$26$26$26$26/$26$26$26$26$26])/Top Secret Operation X. ([$26/$26$26/$26$26$26/$26$26$26$26/$26$26$26$26$26])/Top Secret Operation X. ([$26/$26$26/$26$26$26/$26$26$26$26/$26$26$26$26$26])/Quit.]
- **11332**: Please select an operation. [Brave Dawn I. ([$26/$26$26/$26$26$26/$26$26$26$26/$26$26$26$26$26])/Brave Dawn II. ([$26/$26$26/$26$26$26/$26$26$26$26/$26$26$26$26$26])/Brave Dawn III. ([$26/$26$26/$26$26$26/$26$26$26$26/$26$26$26$26$26])/Top Secret Operation X. ([$26/$26$26/$26$26$26/$26$26$26$26/$26$26$26$26$26])/Top Secret Operation X. ([$26/$26$26/$26$26$26/$26$26$26$26/$26$26$26$26$26])/Top Secret Operation X. ([$26/$26$26/$26$26$26/$26$26$26$26/$26$26$26$26$26])/Top Secret Operation X. ([$26/$26$26/$26$26$26/$26$26$26$26/$26$26$26$26$26])/Top Secret Operation X. ([$26/$26$26/$26$26$26/$26$26$26$26/$26$26$26$26$26])/Top Secret Operation X. ([$26/$26$26/$26$26$26/$26$26$26$26/$26$26$26$26$26])/Top Secret Operation X. ([$26/$26$26/$26$26$26/$26$26$26$26/$26$26$26$26$26])/Cut and Cauterize I. ([$26/$26$26/$26$26$26/$26$26$26$26/$26$26$26$26$26])/Cut and Cauterize II. ([$26/$26$26/$26$26$26/$26$26$26$26/$26$26$26$26$26])/Cut and Cauterize III. ([$26/$26$26/$26$26$26/$26$26$26$26/$26$26$26$26$26])/Top Secret Operation X. ([$26/$26$26/$26$26$26/$26$26$26$26/$26$26$26$26$26])/Top Secret Operation X. ([$26/$26$26/$26$26$26/$26$26$26$26/$26$26$26$26$26])/Top Secret Operation X. ([$26/$26$26/$26$26$26/$26$26$26$26/$26$26$26$26$26])/Top Secret Operation X. ([$26/$26$26/$26$26$26/$26$26$26$26/$26$26$26$26$26])/Top Secret Operation X. ([$26/$26$26/$26$26$26/$26$26$26$26/$26$26$26$26$26])/Top Secret Operation X. ([$26/$26$26/$26$26$26/$26$26$26$26/$26$26$26$26$26])/Top Secret Operation X. ([$26/$26$26/$26$26$26/$26$26$26$26/$26$26$26$26$26])/Quit.]
- **11333**: Please select an operation. [Stock and Awe I. ([$26/$26$26/$26$26$26/$26$26$26$26/$26$26$26$26$26])/Stock and Awe II. ([$26/$26$26/$26$26$26/$26$26$26$26/$26$26$26$26$26])/Stock and Awe III. ([$26/$26$26/$26$26$26/$26$26$26$26/$26$26$26$26$26])/Stock and Awe IV. ([$26/$26$26/$26$26$26/$26$26$26$26/$26$26$26$26$26])/Top Secret Operation X. ([$26/$26$26/$26$26$26/$26$26$26$26/$26$26$26$26$26])/Top Secret Operation X. ([$26/$26$26/$26$26$26/$26$26$26$26/$26$26$26$26$26])/Top Secret Operation X. ([$26/$26$26/$26$26$26/$26$26$26$26/$26$26$26$26$26])/Top Secret Operation X. ([$26/$26$26/$26$26$26/$26$26$26$26/$26$26$26$26$26])/Top Secret Operation X. ([$26/$26$26/$26$26$26/$26$26$26$26/$26$26$26$26$26])/Top Secret Operation X. ([$26/$26$26/$26$26$26/$26$26$26$26/$26$26$26$26$26])/Materiel Storm I. ([$26/$26$26/$26$26$26/$26$26$26$26/$26$26$26$26$26])/Materiel Storm II. ([$26/$26$26/$26$26$26/$26$26$26$26/$26$26$26$26$26])/Materiel Storm III. ([$26/$26$26/$26$26$26/$26$26$26$26/$26$26$26$26$26])/Materiel Storm IV. ([$26/$26$26/$26$26$26/$26$26$26$26/$26$26$26$26$26])/Top Secret Operation X. ([$26/$26$26/$26$26$26/$26$26$26$26/$26$26$26$26$26])/Search and Seizure I. ([$26/$26$26/$26$26$26/$26$26$26$26/$26$26$26$26$26])/Top Secret Operation X. ([$26/$26$26/$26$26$26/$26$26$26$26/$26$26$26$26$26])/Top Secret Operation X. ([$26/$26$26/$26$26$26/$26$26$26$26/$26$26$26$26$26])/Top Secret Operation X. ([$26/$26$26/$26$26$26/$26$26$26$26/$26$26$26$26$26])/Top Secret Operation X. ([$26/$26$26/$26$26$26/$26$26$26$26/$26$26$26$26$26])/Quit.]
- **11334**: Please select an operation. [Vanguard-X I. ([$26/$26$26/$26$26$26/$26$26$26$26/$26$26$26$26$26])/Vanguard-X II. ([$26/$26$26/$26$26$26/$26$26$26$26/$26$26$26$26$26])/Vanguard-X III. ([$26/$26$26/$26$26$26/$26$26$26$26/$26$26$26$26$26])/Vanguard-X IV. ([$26/$26$26/$26$26$26/$26$26$26$26/$26$26$26$26$26])/Top Secret Operation X. ([$26/$26$26/$26$26$26/$26$26$26$26/$26$26$26$26$26])/Top Secret Operation X. ([$26/$26$26/$26$26$26/$26$26$26$26/$26$26$26$26$26])/Top Secret Operation X. ([$26/$26$26/$26$26$26/$26$26$26$26/$26$26$26$26$26])/Top Secret Operation X. ([$26/$26$26/$26$26$26/$26$26$26$26/$26$26$26$26$26])/Top Secret Operation X. ([$26/$26$26/$26$26$26/$26$26$26$26/$26$26$26$26$26])/Top Secret Operation X. ([$26/$26$26/$26$26$26/$26$26$26$26/$26$26$26$26$26])/Crimson Domino I. ([$26/$26$26/$26$26$26/$26$26$26$26/$26$26$26$26$26])/Crimson Domino II. ([$26/$26$26/$26$26$26/$26$26$26$26/$26$26$26$26$26])/Crimson Domino III. ([$26/$26$26/$26$26$26/$26$26$26$26/$26$26$26$26$26])/Crimson Domino IV. ([$26/$26$26/$26$26$26/$26$26$26$26/$26$26$26$26$26])/Bridge Too Far I. ([$26/$26$26/$26$26$26/$26$26$26$26/$26$26$26$26$26])/Top Secret Operation X. ([$26/$26$26/$26$26$26/$26$26$26$26/$26$26$26$26$26])/Top Secret Operation X. ([$26/$26$26/$26$26$26/$26$26$26$26/$26$26$26$26$26])/Top Secret Operation X. ([$26/$26$26/$26$26$26/$26$26$26$26/$26$26$26$26$26])/Top Secret Operation X. ([$26/$26$26/$26$26$26/$26$26$26$26/$26$26$26$26$26])/Top Secret Operation X. ([$26/$26$26/$26$26$26/$26$26$26$26/$26$26$26$26$26])/Quit.]
- **11335**: Please select an operation. [Crystal Fist I. ([$26/$26$26/$26$26$26/$26$26$26$26/$26$26$26$26$26])/Crystal Fist II. ([$26/$26$26/$26$26$26/$26$26$26$26/$26$26$26$26$26])/Crystal Fist III. ([$26/$26$26/$26$26$26/$26$26$26$26/$26$26$26$26$26])/Crystal Fist IV. ([$26/$26$26/$26$26$26/$26$26$26$26/$26$26$26$26$26])/Top Secret Operation X. ([$26/$26$26/$26$26$26/$26$26$26$26/$26$26$26$26$26])/Top Secret Operation X. ([$26/$26$26/$26$26$26/$26$26$26$26/$26$26$26$26$26])/Top Secret Operation X. ([$26/$26$26/$26$26$26/$26$26$26$26/$26$26$26$26$26])/Top Secret Operation X. ([$26/$26$26/$26$26$26/$26$26$26$26/$26$26$26$26$26])/Top Secret Operation X. ([$26/$26$26/$26$26$26/$26$26$26$26/$26$26$26$26$26])/Top Secret Operation X. ([$26/$26$26/$26$26$26/$26$26$26$26/$26$26$26$26$26])/Iron Anvil I. ([$26/$26$26/$26$26$26/$26$26$26$26/$26$26$26$26$26])/Iron Anvil II. ([$26/$26$26/$26$26$26/$26$26$26$26/$26$26$26$26$26])/Iron Anvil III. ([$26/$26$26/$26$26$26/$26$26$26$26/$26$26$26$26$26])/Iron Anvil IV. ([$26/$26$26/$26$26$26/$26$26$26$26/$26$26$26$26$26])/Top Secret Operation X. ([$26/$26$26/$26$26$26/$26$26$26$26/$26$26$26$26$26])/Top Secret Operation X. ([$26/$26$26/$26$26$26/$26$26$26$26/$26$26$26$26$26])/Top Secret Operation X. ([$26/$26$26/$26$26$26/$26$26$26$26/$26$26$26$26$26])/Top Secret Operation X. ([$26/$26$26/$26$26$26/$26$26$26$26/$26$26$26$26$26])/Top Secret Operation X. ([$26/$26$26/$26$26$26/$26$26$26$26/$26$26$26$26$26])/Top Secret Operation X. ([$26/$26$26/$26$26$26/$26$26$26$26/$26$26$26$26$26])/Quit.]
- **11336**: Please select an operation. [Streetsweeper I. ([$26/$26$26/$26$26$26/$26$26$26$26/$26$26$26$26$26])/Streetsweeper II. ([$26/$26$26/$26$26$26/$26$26$26$26/$26$26$26$26$26])/Streetsweeper III. ([$26/$26$26/$26$26$26/$26$26$26$26/$26$26$26$26$26])/Top Secret Operation X. ([$26/$26$26/$26$26$26/$26$26$26$26/$26$26$26$26$26])/Top Secret Operation X. ([$26/$26$26/$26$26$26/$26$26$26$26/$26$26$26$26$26])/Delta Strike I. ([$26/$26$26/$26$26$26/$26$26$26$26/$26$26$26$26$26])/Delta Strike II. ([$26/$26$26/$26$26$26/$26$26$26$26/$26$26$26$26$26])/Delta Strike III. ([$26/$26$26/$26$26$26/$26$26$26$26/$26$26$26$26$26])/Top Secret Operation X. ([$26/$26$26/$26$26$26/$26$26$26$26/$26$26$26$26$26])/Top Secret Operation X. ([$26/$26$26/$26$26$26/$26$26$26$26/$26$26$26$26$26])/Steel Resolve I. ([$26/$26$26/$26$26$26/$26$26$26$26/$26$26$26$26$26])/Steel Resolve II. ([$26/$26$26/$26$26$26/$26$26$26$26/$26$26$26$26$26])/Steel Resolve III. ([$26/$26$26/$26$26$26/$26$26$26$26/$26$26$26$26$26])/Steel Resolve IV. ([$26/$26$26/$26$26$26/$26$26$26$26/$26$26$26$26$26])/Top Secret Operation X. ([$26/$26$26/$26$26$26/$26$26$26$26/$26$26$26$26$26])/Magna Cache I. ([$26/$26$26/$26$26$26/$26$26$26$26/$26$26$26$26$26])/Magna Cache II. ([$26/$26$26/$26$26$26/$26$26$26$26/$26$26$26$26$26])/Magna Cache III. ([$26/$26$26/$26$26$26/$26$26$26$26/$26$26$26$26$26])/Hazardous Materials. ([$26/$26$26/$26$26$26/$26$26$26$26/$26$26$26$26$26])/Top Secret Operation X. ([$26/$26$26/$26$26$26/$26$26$26$26/$26$26$26$26$26])/Quit.]
- **11338**: For this operation, you'll have to cross over into beastmen territory and launch an offensive on one of their strongholds.
- **11339**: For this operation, you'll have to ambush an enemy supply caravan and wipe out everyone traveling with it.
- **11341**: This operation requires that you eliminate the commander of the Quadav Shieldwarriors, Za'Dha Adamantking.
- **11342**: This operation requires you to eliminate the Dark Kindred stationed in the Castle Zvahl Baileys.
- **11343**: This operation requires you to eliminate the Dark Kindred stationed in the Castle Zvahl Keep.
- **11344**: This operation requires you to do no less than strike down the Shadow Lord himself. Goddess be with you, soldier!
- **11345**: For this operation, you'll have to defend one of our strongholds against a beastman assault.
- **11346**: For this operation, you'll have to help the garrison soldiers fight off an enemy siege on one of our outposts.
- **11347**: For this operation, you'll have to infiltrate an enemy stronghold and gather intel.
- **11348**: For this operation, you'll have to infiltrate an enemy stronghold and blow the hell out of the place.
- **11349**: This operation requires that you infiltrate enemy territory and gather intel on their equipment.
- **11351**: For this operation, you'll have to infiltrate the enemy's northern stronghold, commandeer their prototype weapon, and use it to raze the place to the ground.
- **11352**: This operation requires that you infiltrate Castle Zvahl and gather intel on the unidentified devices enhancing our enemy's defensive capabilities.
- **11353**: This operation requires you to seek out and destroy the source of the magical barrier protecting Castle Zvahl's walls.
- **11354**: For this operation, you'll have to head over to the training grounds and teach a nugget what side of the axe to hold.
- **11355**: This operation requires you to assist in the medical training of some new recruits. See if you can't make some tough-as-nails woundpatchers out of them!
- **11357**: For this operation, you'll have to round up supplies for delivery to the frontlines.
- **11358**: For this operation, you'll have to help resupply our nation's dwindlin' munitions stockpiles.
- **11359**: This operation requires that you locate an enemy supply convoy and secure any valuable supplies possible.
- **11360**: For this operation, you'll have to escort a reinforcement soldier to his destination on the frontlines.
- **11361**: For this operation, you'll have to deliver supplies to our outposts.
- **11362**: This operation requires that you serve your army by offering strategies to best ensure the safe transport of precious cargo.
- **11363**: For this operation, you'll have to locate and remove any suspicious objects lyin' round the capital.
- **11364**: For this operation, you'll have to patrol Republic territory and wipe out any threats to our nation's citizens.
- **11365**: This operation requires that you take part in the fortification of one of your nation's strongholds.
- **11366**: This operation requires that you contribute to the expansion of the provision storehouse of one of your nation's strongholds.
- **11367**: This operation requires you to deliver a vital shipment of powerfully magicked supplies to our northern stronghold, preferably without getting yourself killed in the process.
- **11368**: For this operation, you'll have to help out the Republic's various guildmasters in training initiates.
- **11369**: For this operation, you'll have to teach fancy-schmansy synthesis techniques to the adepts of our nation's guilds.
- **11371**: And mind you, targets up on the northern front are bein' handled under a separate operation altogether. Don't go wastin' your strength where you won't be recognized for it!
- **11372**: Only efforts in the north will count toward this operation's objectives, so make sure you're fightin' in the right place!
- **11373**: So, are you sure this is the one you want?
- **11374**: Join the operation? [Yes./No.]
- **11375**: Good. Now get out there and don't come back until you're ready to report! Dismissed!
- **11376**: Select Campaign Ops within the Missions menu to view operation orders.
- **11377**: Too bad, <Player>, but while you were off pickin' your nose, some other volunteers signed up in your place. Maybe next time you should learn to move your feet instead of flappin' your gums!
- **11378**: Hey, wait! You ain't got no Op Credits! I like your enthusiasm, <Player>, but rules are rules. I'll see you back here tomorrow.
- **11379**: What in Atomos's name are you doin' here? Aren't you supposed to be on duty? Or...
- **11380**: Maybe you've somethin' to say... [I've had enough of this operation./Nothing at all, sir!]
- **11381**: Good. Now get back to work, soldier!
- **11382**: Huh!? I don't think I heard you right.
- **11383**: Unbelievable! The praefectus would be crying in his grave...if he were a dead sissy like the worthless excuse for a soldier still standing here in front of me! Dismissed!
- **11384**: Welcome back, soldier. Now let's hear your report.
- **11385**: [......What!?/...Hmmm.../......Well......]
- **11386**: I knew we could count on you, <Player>! Praefectus Zazarg will be pleased.
- **11387**: You never can tell what'll happen out there. Sometimes things just don't go the way we plan them. But at least you were able to pull through. Good work, soldier.
- **11388**: I expected more from you, soldier... Any more failures will only hurt your brothers and sisters in the Seventh Cohors. Think about that before accepting your next mission.
- **11389**: Hold, soldier. It looks like your campaign medal is expired. You know you can't sign up for operations without proper clearance.
- **11390**: Get your butt over to the Campaign Evaluation Official right now, soldier!
- **11416**: You will be issued a new Op Credit in approximately $0 [hour/hours] (Earth time).
- **11417**: You will be issued a new Op Credit in less than an hour (Earth time).
- **11418**: Well, look whose got $0! You want to put it with the others?
- **11419**: What will you do? [Add it to your other Op Credits./Nevermind.]
- **11420**: Consider it done! Your $0 has been placed in safekeeping.
- **11421**: Have it your way. Here, take it back.
- **11425**: Current nation status: Funds: [UNKNOWN/$25/$25$25/$25$25$25/$25$25$25$25/$25$25$25$25$25/$25$25$25$25$25$25/$25$25$25$25$25$25$25/$25$25$25$25$25$25$25$25/$25$25$25$25$25$25$25$25$25/$25$25$25$25$25$25$25$25$25$25] Supplies: [UNKNOWN/$25/$25$25/$25$25$25/$25$25$25$25/$25$25$25$25$25/$25$25$25$25$25$25/$25$25$25$25$25$25$25/$25$25$25$25$25$25$25$25/$25$25$25$25$25$25$25$25$25/$25$25$25$25$25$25$25$25$25$25] Tactics: [UNKNOWN/$25/$25$25/$25$25$25/$25$25$25$25/$25$25$25$25$25/$25$25$25$25$25$25/$25$25$25$25$25$25$25/$25$25$25$25$25$25$25$25/$25$25$25$25$25$25$25$25$25/$25$25$25$25$25$25$25$25$25$25]
- **11426**: Skill: [UNKNOWN/$25/$25$25/$25$25$25/$25$25$25$25/$25$25$25$25$25/$25$25$25$25$25$25/$25$25$25$25$25$25$25/$25$25$25$25$25$25$25$25/$25$25$25$25$25$25$25$25$25/$25$25$25$25$25$25$25$25$25$25] Production: [UNKNOWN/$25/$25$25/$25$25$25/$25$25$25$25/$25$25$25$25$25/$25$25$25$25$25$25/$25$25$25$25$25$25$25/$25$25$25$25$25$25$25$25/$25$25$25$25$25$25$25$25$25/$25$25$25$25$25$25$25$25$25$25]

## Events

### Event 65535

#### Metadata

| Field        | Value   |
|--------------|---------|
| Entrypoint   | 0x0000  |
| Data Size    | 1 bytes |
| Instructions | 1       |

```
      00 01 02 03 04 05 06 07  08 09 0A 0B 0C 0D 0E 0F
      -- -- -- -- -- -- -- --  -- -- -- -- -- -- -- --
0000: 00                                                .               
```

#### Opcodes

```
  0: 0x0000 [0x00] END_REQSTACK()
```

### Event 324

#### Metadata

| Field        | Value    |
|--------------|----------|
| Entrypoint   | 0x0001   |
| Data Size    | 58 bytes |
| Instructions | 17       |

```
      00 01 02 03 04 05 06 07  08 09 0A 0B 0C 0D 0E 0F
      -- -- -- -- -- -- -- --  -- -- -- -- -- -- -- --
0000:    42 4A F8 FF FF 7F F0  FF FF 7F 03 02 10 00 80   BJ.............
0010: 1D 01 80 23 24 02 80 03  80 03 80 25 02 00 10 03  ...#$......%....
0020: 80 00 30 00 1D 04 80 23  03 01 10 05 80 01 39 00  ..0....#......9.
0030: 1D 06 80 23 03 01 10 07  80 21 00                 ...#.....!.     
```

#### Opcodes

```
  0: 0x0001 [0x42] SET_CLI_EVENT_CANCEL_DATA()
  1: 0x0002 [0x4A] EventEntity looks at LocalPlayer
  2: 0x000B [0x03] Work_Zone[2] = 2552*
  3: 0x0010 [0x1D] PRINT_EVENT_MESSAGE(message_id=11418*)
    → "Well, look whose got $0! You want to put it with the others?"
  4: 0x0013 [0x23] WAIT_FOR_DIALOG_INTERACTION
  5: 0x0014 [0x24] CREATE_DIALOG(message_id=11419*, default_option=0*, option_flags=0*)
    → "What will you do? [Add it to your other Op Credits./Nevermind.]"
  6: 0x001B [0x25] WAIT_DIALOG_SELECT()
  7: 0x001C [0x02] IF !(Work_Zone[0] == 0*) GOTO 0x0030
  8: 0x0024 [0x1D] PRINT_EVENT_MESSAGE(message_id=11420*)
    → "Consider it done! Your $0 has been placed in safekeeping."
  9: 0x0027 [0x23] WAIT_FOR_DIALOG_INTERACTION
 10: 0x0028 [0x03] Work_Zone[1] = 6*
 11: 0x002D [0x01] GOTO 0x0039
 12: 0x0030 [0x1D] PRINT_EVENT_MESSAGE(message_id=11421*)
    → "Have it your way. Here, take it back."
 13: 0x0033 [0x23] WAIT_FOR_DIALOG_INTERACTION
 14: 0x0034 [0x03] Work_Zone[1] = 7*

SUBROUTINE_0039:
 15: 0x0039 [0x21] END_EVENT
 16: 0x003A [0x00] END_REQSTACK()
```

### Event 321

#### Metadata

| Field        | Value    |
|--------------|----------|
| Entrypoint   | 0x003B   |
| Data Size    | 19 bytes |
| Instructions | 7        |

```
      00 01 02 03 04 05 06 07  08 09 0A 0B 0C 0D 0E 0F
      -- -- -- -- -- -- -- --  -- -- -- -- -- -- -- --
0030:                                   4A F8 FF FF 7F             J....
0040: F0 FF FF 7F 1D 08 80 23  1D 09 80 23 21 00        .......#...#!.  
```

#### Opcodes

```
  0: 0x003B [0x4A] EventEntity looks at LocalPlayer
  1: 0x0044 [0x1D] PRINT_EVENT_MESSAGE(message_id=11389*)
    → "Hold, soldier. It looks like your campaign medal is expired. You know you can't sign up for operations without proper clearance."
  2: 0x0047 [0x23] WAIT_FOR_DIALOG_INTERACTION
  3: 0x0048 [0x1D] PRINT_EVENT_MESSAGE(message_id=11390*)
    → "Get your butt over to the Campaign Evaluation Official right now, soldier!"
  4: 0x004B [0x23] WAIT_FOR_DIALOG_INTERACTION
  5: 0x004C [0x21] END_EVENT
  6: 0x004D [0x00] END_REQSTACK()
```

### Event 320

#### Metadata

| Field        | Value    |
|--------------|----------|
| Entrypoint   | 0x004E   |
| Data Size    | 19 bytes |
| Instructions | 7        |

```
      00 01 02 03 04 05 06 07  08 09 0A 0B 0C 0D 0E 0F
      -- -- -- -- -- -- -- --  -- -- -- -- -- -- -- --
0040:                                            4A F8                J.
0050: FF FF 7F F0 FF FF 7F 1D  0A 80 23 1D 0B 80 23 21  ..........#...#!
0060: 00                                                .               
```

#### Opcodes

```
  0: 0x004E [0x4A] EventEntity looks at LocalPlayer
  1: 0x0057 [0x1D] PRINT_EVENT_MESSAGE(message_id=11314*)
    → "You need to know somethin' 'bout Allied Campaign operations, Hieronymus's your man!"
  2: 0x005A [0x23] WAIT_FOR_DIALOG_INTERACTION
  3: 0x005B [0x1D] PRINT_EVENT_MESSAGE(message_id=11315*)
    → "Hold on one stinkin' minute... You're not one of us! Scram! The president doesn't have time to wipe drool off the mugs of any Taru or Elf lovers!"
  4: 0x005E [0x23] WAIT_FOR_DIALOG_INTERACTION
  5: 0x005F [0x21] END_EVENT
  6: 0x0060 [0x00] END_REQSTACK()
```

### Event 317

#### Metadata

| Field        | Value    |
|--------------|----------|
| Entrypoint   | 0x0061   |
| Data Size    | 80 bytes |
| Instructions | 24       |

```
      00 01 02 03 04 05 06 07  08 09 0A 0B 0C 0D 0E 0F
      -- -- -- -- -- -- -- --  -- -- -- -- -- -- -- --
0060:    4A F8 FF FF 7F F0 FF  FF 7F 1D 0C 80 23 24 0D   J...........#$.
0070: 80 0E 80 03 80 25 02 00  10 03 80 00 A8 00 1D 0F  .....%..........
0080: 80 23 24 0D 80 0E 80 03  80 25 02 00 10 03 80 00  .#$......%......
0090: 9E 00 1D 10 80 23 03 01  10 11 80 01 A5 00 1D 12  .....#..........
00A0: 80 23 06 01 10 01 AF 00  1D 12 80 23 06 01 10 21  .#.........#...!
00B0: 00                                                .               
```

#### Opcodes

```
  0: 0x0061 [0x4A] EventEntity looks at LocalPlayer
  1: 0x006A [0x1D] PRINT_EVENT_MESSAGE(message_id=11379*)
    → "What in Atomos's name are you doin' here? Aren't you supposed to be on duty? Or..."
  2: 0x006D [0x23] WAIT_FOR_DIALOG_INTERACTION
  3: 0x006E [0x24] CREATE_DIALOG(message_id=11380*, default_option=1*, option_flags=0*)
    → "Maybe you've somethin' to say... [I've had enough of this operation./Nothing at all, sir!]"
  4: 0x0075 [0x25] WAIT_DIALOG_SELECT()
  5: 0x0076 [0x02] IF !(Work_Zone[0] == 0*) GOTO 0x00A8
  6: 0x007E [0x1D] PRINT_EVENT_MESSAGE(message_id=11382*)
    → "Huh!? I don't think I heard you right."
  7: 0x0081 [0x23] WAIT_FOR_DIALOG_INTERACTION
  8: 0x0082 [0x24] CREATE_DIALOG(message_id=11380*, default_option=1*, option_flags=0*)
    → "Maybe you've somethin' to say... [I've had enough of this operation./Nothing at all, sir!]"
  9: 0x0089 [0x25] WAIT_DIALOG_SELECT()
 10: 0x008A [0x02] IF !(Work_Zone[0] == 0*) GOTO 0x009E
 11: 0x0092 [0x1D] PRINT_EVENT_MESSAGE(message_id=11383*)
    → "Unbelievable! The praefectus would be crying in his grave...if he were a dead sissy like the worthless excuse for a soldier still standing here in front of me! Dismissed!"
 12: 0x0095 [0x23] WAIT_FOR_DIALOG_INTERACTION
 13: 0x0096 [0x03] Work_Zone[1] = 2*
 14: 0x009B [0x01] GOTO 0x00A5
 15: 0x009E [0x1D] PRINT_EVENT_MESSAGE(message_id=11381*)
    → "Good. Now get back to work, soldier!"
 16: 0x00A1 [0x23] WAIT_FOR_DIALOG_INTERACTION
 17: 0x00A2 [0x06] Work_Zone[1] = 0

SUBROUTINE_00A5:
 18: 0x00A5 [0x01] GOTO 0x00AF
 19: 0x00A8 [0x1D] PRINT_EVENT_MESSAGE(message_id=11381*)
    → "Good. Now get back to work, soldier!"
 20: 0x00AB [0x23] WAIT_FOR_DIALOG_INTERACTION
 21: 0x00AC [0x06] Work_Zone[1] = 0

SUBROUTINE_00AF:
 22: 0x00AF [0x21] END_EVENT
 23: 0x00B0 [0x00] END_REQSTACK()
```

### Event 318

#### Metadata

| Field        | Value     |
|--------------|-----------|
| Entrypoint   | 0x00B1    |
| Data Size    | 101 bytes |
| Instructions | 25        |

```
      00 01 02 03 04 05 06 07  08 09 0A 0B 0C 0D 0E 0F
      -- -- -- -- -- -- -- --  -- -- -- -- -- -- -- --
00B0:    42 4A F8 FF FF 7F F0  FF FF 7F 1D 13 80 23 45   BJ...........#E
00C0: 14 80 F0 FF FF 7F F0 FF  FF 7F 66 64 6F 31 03 80  ..........fdo1..
00D0: 1C 15 80 13 02 10 11 80  1D 16 80 23 1C 15 80 13  ...........#....
00E0: 02 10 11 80 1D 16 80 23  1C 15 80 13 02 10 11 80  .......#........
00F0: 1D 16 80 23 1C 15 80 45  14 80 F0 FF FF 7F F0 FF  ...#...E........
0100: FF 7F 66 64 69 31 03 80  1C 15 80 1D 17 80 23 03  ..fdi1........#.
0110: 01 10 18 80 21 00                                 ....!.          
```

#### Opcodes

```
  0: 0x00B1 [0x42] SET_CLI_EVENT_CANCEL_DATA()
  1: 0x00B2 [0x4A] EventEntity looks at LocalPlayer
  2: 0x00BB [0x1D] PRINT_EVENT_MESSAGE(message_id=11384*)
    → "Welcome back, soldier. Now let's hear your report."
  3: 0x00BE [0x23] WAIT_FOR_DIALOG_INTERACTION
  4: 0x00BF [0x45] LOAD_SCHEDULED_TASK: Load scheduler "fdo1" with entities [LocalPlayer, LocalPlayer], work=[200*, 0*]
  5: 0x00D0 [0x1C] WAIT(60* ticks)
  6: 0x00D3 [0x13] Work_Zone[2] = rand() % 2*
  7: 0x00D8 [0x1D] PRINT_EVENT_MESSAGE(message_id=11385*)
    → "[......What!?/...Hmmm.../......Well......]"
  8: 0x00DB [0x23] WAIT_FOR_DIALOG_INTERACTION
  9: 0x00DC [0x1C] WAIT(60* ticks)
 10: 0x00DF [0x13] Work_Zone[2] = rand() % 2*
 11: 0x00E4 [0x1D] PRINT_EVENT_MESSAGE(message_id=11385*)
    → "[......What!?/...Hmmm.../......Well......]"
 12: 0x00E7 [0x23] WAIT_FOR_DIALOG_INTERACTION
 13: 0x00E8 [0x1C] WAIT(60* ticks)
 14: 0x00EB [0x13] Work_Zone[2] = rand() % 2*
 15: 0x00F0 [0x1D] PRINT_EVENT_MESSAGE(message_id=11385*)
    → "[......What!?/...Hmmm.../......Well......]"
 16: 0x00F3 [0x23] WAIT_FOR_DIALOG_INTERACTION
 17: 0x00F4 [0x1C] WAIT(60* ticks)
 18: 0x00F7 [0x45] LOAD_SCHEDULED_TASK: Load scheduler "fdi1" with entities [LocalPlayer, LocalPlayer], work=[200*, 0*]
 19: 0x0108 [0x1C] WAIT(60* ticks)
 20: 0x010B [0x1D] PRINT_EVENT_MESSAGE(message_id=11388*)
    → "I expected more from you, soldier... Any more failures will only hurt your brothers and sisters in the Seventh Cohors. Think about that before accepting your next mission."
 21: 0x010E [0x23] WAIT_FOR_DIALOG_INTERACTION
 22: 0x010F [0x03] Work_Zone[1] = 3*
 23: 0x0114 [0x21] END_EVENT
 24: 0x0115 [0x00] END_REQSTACK()
```

### Event 319

#### Metadata

| Field        | Value     |
|--------------|-----------|
| Entrypoint   | 0x0116    |
| Data Size    | 160 bytes |
| Instructions | 36        |

```
      00 01 02 03 04 05 06 07  08 09 0A 0B 0C 0D 0E 0F
      -- -- -- -- -- -- -- --  -- -- -- -- -- -- -- --
0110:                   42 03  04 00 02 10 03 05 00 03        B.........
0120: 10 03 06 00 04 10 03 08  00 05 10 4A F8 FF FF 7F  ...........J....
0130: F0 FF FF 7F 1D 13 80 23  45 14 80 F0 FF FF 7F F0  .......#E.......
0140: FF FF 7F 66 64 6F 31 03  80 1C 15 80 41 03 80 0E  ...fdo1.....A...
0150: 80 08 00 02 10 1D 16 80  23 1C 15 80 41 11 80 18  ........#...A...
0160: 80 08 00 02 10 1D 16 80  23 1C 15 80 41 19 80 1A  ........#...A...
0170: 80 08 00 02 10 1D 16 80  23 1C 15 80 45 14 80 F0  ........#...E...
0180: FF FF 7F F0 FF FF 7F 66  64 69 31 03 80 1C 15 80  .......fdi1.....
0190: 02 06 00 1B 80 02 9F 01  1D 1C 80 23 01 A3 01 1D  ...........#....
01A0: 1D 80 23 02 04 00 03 80  02 B4 01 03 02 10 04 00  ..#.............
01B0: 48 1E 80 23 21 00                                 H..#!.          
```

#### Opcodes

```
  0: 0x0116 [0x42] SET_CLI_EVENT_CANCEL_DATA()
  1: 0x0117 [0x03] ExtData[1]->WorkLocal[4] = Work_Zone[2]
  2: 0x011C [0x03] ExtData[1]->WorkLocal[5] = Work_Zone[3]
  3: 0x0121 [0x03] ExtData[1]->WorkLocal[6] = Work_Zone[4]
  4: 0x0126 [0x03] ExtData[1]->WorkLocal[8] = Work_Zone[5]
  5: 0x012B [0x4A] EventEntity looks at LocalPlayer
  6: 0x0134 [0x1D] PRINT_EVENT_MESSAGE(message_id=11384*)
    → "Welcome back, soldier. Now let's hear your report."
  7: 0x0137 [0x23] WAIT_FOR_DIALOG_INTERACTION
  8: 0x0138 [0x45] LOAD_SCHEDULED_TASK: Load scheduler "fdo1" with entities [LocalPlayer, LocalPlayer], work=[200*, 0*]
  9: 0x0149 [0x1C] WAIT(60* ticks)
 10: 0x014C [0x41] Work_Zone[2] = ExtData[1]->WorkLocal[8] (bits 0*-1*)
 11: 0x0155 [0x1D] PRINT_EVENT_MESSAGE(message_id=11385*)
    → "[......What!?/...Hmmm.../......Well......]"
 12: 0x0158 [0x23] WAIT_FOR_DIALOG_INTERACTION
 13: 0x0159 [0x1C] WAIT(60* ticks)
 14: 0x015C [0x41] Work_Zone[2] = ExtData[1]->WorkLocal[8] (bits 2*-3*)
 15: 0x0165 [0x1D] PRINT_EVENT_MESSAGE(message_id=11385*)
    → "[......What!?/...Hmmm.../......Well......]"
 16: 0x0168 [0x23] WAIT_FOR_DIALOG_INTERACTION
 17: 0x0169 [0x1C] WAIT(60* ticks)
 18: 0x016C [0x41] Work_Zone[2] = ExtData[1]->WorkLocal[8] (bits 4*-5*)
 19: 0x0175 [0x1D] PRINT_EVENT_MESSAGE(message_id=11385*)
    → "[......What!?/...Hmmm.../......Well......]"
 20: 0x0178 [0x23] WAIT_FOR_DIALOG_INTERACTION
 21: 0x0179 [0x1C] WAIT(60* ticks)
 22: 0x017C [0x45] LOAD_SCHEDULED_TASK: Load scheduler "fdi1" with entities [LocalPlayer, LocalPlayer], work=[200*, 0*]
 23: 0x018D [0x1C] WAIT(60* ticks)
 24: 0x0190 [0x02] IF !(ExtData[1]->WorkLocal[6] <= 99*) GOTO 0x019F
 25: 0x0198 [0x1D] PRINT_EVENT_MESSAGE(message_id=11386*)
    → "I knew we could count on you, <Player>! Praefectus Zazarg will be pleased."
 26: 0x019B [0x23] WAIT_FOR_DIALOG_INTERACTION
 27: 0x019C [0x01] GOTO 0x01A3
 28: 0x019F [0x1D] PRINT_EVENT_MESSAGE(message_id=11387*)
    → "You never can tell what'll happen out there. Sometimes things just don't go the way we plan them. But at least you were able to pull through. Good work, soldier."
 29: 0x01A2 [0x23] WAIT_FOR_DIALOG_INTERACTION

SUBROUTINE_01A3:
 30: 0x01A3 [0x02] IF !(ExtData[1]->WorkLocal[4] <= 0*) GOTO 0x01B4
 31: 0x01AB [0x03] Work_Zone[2] = ExtData[1]->WorkLocal[4]
 32: 0x01B0 [0x48] [System] [7234*]:
    → "You have earned $0 Allied Note[/s]!"
 33: 0x01B3 [0x23] WAIT_FOR_DIALOG_INTERACTION
 34: 0x01B4 [0x21] END_EVENT
 35: 0x01B5 [0x00] END_REQSTACK()
```

### Event 316

#### Metadata

| Field        | Value      |
|--------------|------------|
| Entrypoint   | 0x01B6     |
| Data Size    | 4746 bytes |
| Instructions | 976        |

```
      00 01 02 03 04 05 06 07  08 09 0A 0B 0C 0D 0E 0F
      -- -- -- -- -- -- -- --  -- -- -- -- -- -- -- --
01B0:                   03 02  00 02 10 03 01 00 03 10        ..........
01C0: 03 07 00 04 10 03 0E 00  05 10 4A F8 FF FF 7F F0  ..........J.....
01D0: FF FF 7F 1D 0A 80 23 02  01 00 03 80 00 00 02 1D  ......#.........
01E0: 1F 80 23 24 20 80 0E 80  03 80 25 02 00 10 03 80  ..#$ .....%.....
01F0: 00 FA 01 1D 21 80 23 01  FD 01 1A 21 03 01 00 02  ....!.#....!....
0200: 02 02 00 03 80 05 29 02  1D 22 80 23 03 02 10 07  ......)..".#....
0210: 00 02 02 10 0E 80 03 20  02 48 23 80 23 01 24 02  ....... .H#.#.$.
0220: 48 24 80 23 21 00 01 32  02 03 02 10 02 00 1D 25  H$.#!..2.......%
0230: 80 23 24 26 80 03 80 03  80 25 02 00 10 0E 80 00  .#$&.....%......
0240: 4B 02 1A 21 03 01 32 02  01 85 02 02 00 10 11 80  K..!..2.........
0250: 00 5C 02 1A 37 03 01 32  02 01 85 02 02 00 10 03  .\..7..2........
0260: 80 00 67 02 01 85 02 1D  27 80 23 03 02 10 07 00  ..g.....'.#.....
0270: 02 02 10 0E 80 03 7F 02  48 23 80 23 01 83 02 48  ........H#.#...H
0280: 24 80 23 21 00 06 00 00  02 00 00 03 80 04 1F 03  $.#!............
0290: 1D 28 80 23 03 01 10 29  80 43 00 43 01 24 2A 80  .(.#...).C.C.$*.
02A0: 03 80 03 80 25 02 00 10  03 80 00 B3 02 1A 0D 04  ....%...........
02B0: 01 1C 03 02 00 10 0E 80  00 C1 02 1A 9F 05 01 1C  ................
02C0: 03 02 00 10 11 80 00 CF  02 1A 7A 07 01 1C 03 02  ..........z.....
02D0: 00 10 18 80 00 DD 02 1A  73 09 01 1C 03 02 00 10  ........s.......
02E0: 19 80 00 EB 02 1A F6 0A  01 1C 03 02 00 10 1A 80  ................
02F0: 00 F9 02 1A D8 0C 01 1C  03 02 00 10 05 80 00 07  ................
0300: 03 1A 6F 0E 01 1C 03 02  00 10 07 80 00 15 03 1A  ..o.............
0310: EC 10 01 1C 03 1D 27 80  23 0C 00 00 01 88 02 21  ......'.#......!
0320: 00 1D 2B 80 23 1D 2C 80  23 03 02 10 0E 00 1D 2D  ..+.#.,.#......-
0330: 80 23 1D 2E 80 23 1B 03  01 10 2F 80 43 00 43 01  .#...#..../.C.C.
0340: 48 30 80 23 48 31 80 23  1B 03 09 00 03 10 03 0A  H0.#H1.#........
0350: 00 04 10 03 0B 00 05 10  41 03 80 18 80 09 00 03  ........A.......
0360: 10 41 19 80 07 80 09 00  04 10 41 2F 80 32 80 09  .A........A/.2..
0370: 00 05 10 41 33 80 34 80  09 00 06 10 41 35 80 36  ...A3.4.....A5.6
0380: 80 09 00 07 10 41 37 80  38 80 09 00 08 10 41 39  .....A7.8.....A9
0390: 80 3A 80 09 00 09 10 41  3B 80 3C 80 09 00 00 17  .:.....A;.<.....
03A0: 41 03 80 18 80 0A 00 01  17 41 19 80 07 80 0A 00  A........A......
03B0: 02 17 41 2F 80 32 80 0A  00 03 17 41 33 80 34 80  ..A/.2.....A3.4.
03C0: 0A 00 04 17 41 35 80 36  80 0A 00 05 17 41 37 80  ....A5.6.....A7.
03D0: 38 80 0A 00 06 17 41 39  80 3A 80 0A 00 07 17 41  8.....A9.:.....A
03E0: 3B 80 3C 80 0A 00 08 17  41 03 80 18 80 0B 00 09  ;.<.....A.......
03F0: 17 41 19 80 07 80 0B 00  0A 17 41 2F 80 32 80 0B  .A........A/.2..
0400: 00 0B 17 41 33 80 34 80  0B 00 0C 17 1B 0B 00 00  ...A3.4.........
0410: 02 00 00 0E 80 04 9E 05  03 01 10 1A 80 40 2F 80  .............@/.
0420: 3C 80 01 10 1A 80 43 00  43 01 1A 49 03 24 3D 80  <.....C.C..I.$=.
0430: 03 80 02 10 25 02 00 10  03 80 00 4F 04 9D 00 80  ....%......O....
0440: 13 03 00 00 10 48 3E 80  23 1A 52 12 01 9B 05 02  .....H>.#.R.....
0450: 00 10 0E 80 00 69 04 9D  00 80 13 03 00 00 10 48  .....i.........H
0460: 3E 80 23 1A 52 12 01 9B  05 02 00 10 11 80 00 83  >.#.R...........
0470: 04 9D 00 80 13 03 00 00  10 48 3E 80 23 1A 52 12  .........H>.#.R.
0480: 01 9B 05 02 00 10 18 80  00 9D 04 9D 00 80 13 03  ................
0490: 00 00 10 48 3E 80 23 1A  52 12 01 9B 05 02 00 10  ...H>.#.R.......
04A0: 19 80 00 A8 04 01 9B 05  02 00 10 1A 80 00 B3 04  ................
04B0: 01 9B 05 02 00 10 05 80  00 BE 04 01 9B 05 02 00  ................
04C0: 10 07 80 00 C9 04 01 9B  05 02 00 10 2F 80 00 D4  ............/...
04D0: 04 01 9B 05 02 00 10 29  80 00 DF 04 01 9B 05 02  .......)........
04E0: 00 10 3F 80 00 F9 04 9D  00 80 13 03 00 00 10 48  ..?............H
04F0: 40 80 23 1A 52 12 01 9B  05 02 00 10 32 80 00 13  @.#.R.......2...
0500: 05 9D 00 80 13 03 00 00  10 48 40 80 23 1A 52 12  .........H@.#.R.
0510: 01 9B 05 02 00 10 33 80  00 2D 05 9D 00 80 13 03  ......3..-......
0520: 00 00 10 48 40 80 23 1A  52 12 01 9B 05 02 00 10  ...H@.#.R.......
0530: 41 80 00 47 05 9D 00 80  13 03 00 00 10 48 40 80  A..G.........H@.
0540: 23 1A 52 12 01 9B 05 02  00 10 42 80 00 52 05 01  #.R.......B..R..
0550: 9B 05 02 00 10 34 80 00  6C 05 9D 00 80 13 03 00  .....4..l.......
0560: 00 10 48 43 80 23 1A 52  12 01 9B 05 02 00 10 35  ..HC.#.R.......5
0570: 80 00 77 05 01 9B 05 02  00 10 44 80 00 82 05 01  ..w.......D.....
0580: 9B 05 02 00 10 45 80 00  8D 05 01 9B 05 02 00 10  .....E..........
0590: 36 80 00 98 05 01 9B 05  0C 00 00 01 10 04 1B 0B  6...............
05A0: 00 00 02 00 00 0E 80 04  79 07 03 01 10 1A 80 40  ........y......@
05B0: 2F 80 3C 80 01 10 05 80  43 00 43 01 1A 49 03 03  /.<.....C.C..I..
05C0: 0C 00 02 10 41 42 80 42  80 0C 00 0D 00 40 41 80  ....AB.B.....@A.
05D0: 41 80 02 10 0D 00 41 41  80 41 80 0C 00 0D 00 40  A.....AA.A.....@
05E0: 42 80 42 80 02 10 0D 00  24 46 80 03 80 02 10 25  B.B.....$F.....%
05F0: 02 00 10 03 80 00 0E 06  9D 00 B0 13 03 00 00 10  ................
0600: 48 47 80 23 48 48 80 23  1A 52 12 01 76 07 02 00  HG.#HH.#.R..v...
0610: 10 0E 80 00 2C 06 9D 00  B0 13 03 00 00 10 48 47  ....,.........HG
0620: 80 23 48 48 80 23 1A 52  12 01 76 07 02 00 10 11  .#HH.#.R..v.....
0630: 80 00 4A 06 9D 00 B0 13  03 00 00 10 48 47 80 23  ..J.........HG.#
0640: 48 48 80 23 1A 52 12 01  76 07 02 00 10 18 80 00  HH.#.R..v.......
0650: 68 06 9D 00 B0 13 03 00  00 10 48 47 80 23 48 49  h.........HG.#HI
0660: 80 23 1A 52 12 01 76 07  02 00 10 19 80 00 73 06  .#.R..v.......s.
0670: 01 76 07 02 00 10 1A 80  00 7E 06 01 76 07 02 00  .v.......~..v...
0680: 10 05 80 00 89 06 01 76  07 02 00 10 07 80 00 94  .......v........
0690: 06 01 76 07 02 00 10 2F  80 00 9F 06 01 76 07 02  ..v..../.....v..
06A0: 00 10 29 80 00 AA 06 01  76 07 02 00 10 3F 80 00  ..).....v....?..
06B0: C8 06 9D 00 B0 13 03 00  00 10 48 4A 80 23 48 48  ..........HJ.#HH
06C0: 80 23 1A 52 12 01 76 07  02 00 10 32 80 00 E6 06  .#.R..v....2....
06D0: 9D 00 B0 13 03 00 00 10  48 4A 80 23 48 48 80 23  ........HJ.#HH.#
06E0: 1A 52 12 01 76 07 02 00  10 33 80 00 04 07 9D 00  .R..v....3......
06F0: B0 13 03 00 00 10 48 4A  80 23 48 48 80 23 1A 52  ......HJ.#HH.#.R
0700: 12 01 76 07 02 00 10 41  80 00 22 07 9D 00 B0 13  ..v....A..".....
0710: 03 00 00 10 48 4A 80 23  48 49 80 23 1A 52 12 01  ....HJ.#HI.#.R..
0720: 76 07 02 00 10 42 80 00  3C 07 9D 00 B0 13 03 00  v....B..<.......
0730: 00 10 48 4B 80 23 1A 52  12 01 76 07 02 00 10 34  ..HK.#.R..v....4
0740: 80 00 47 07 01 76 07 02  00 10 35 80 00 52 07 01  ..G..v....5..R..
0750: 76 07 02 00 10 44 80 00  5D 07 01 76 07 02 00 10  v....D..]..v....
0760: 45 80 00 68 07 01 76 07  02 00 10 36 80 00 73 07  E..h..v....6..s.
0770: 01 76 07 0C 00 00 01 A2  05 1B 0B 00 00 02 00 00  .v..............
0780: 0E 80 04 72 09 03 01 10  1A 80 40 2F 80 3C 80 01  ...r......@/.<..
0790: 10 2F 80 43 00 43 01 1A  49 03 24 4C 80 03 80 02  ./.C.C..I.$L....
07A0: 10 25 02 00 10 03 80 00  BC 07 9D 00 10 14 03 00  .%..............
07B0: 00 10 48 4D 80 23 1A 52  12 01 6F 09 02 00 10 0E  ..HM.#.R..o.....
07C0: 80 00 D6 07 9D 00 10 14  03 00 00 10 48 4D 80 23  ............HM.#
07D0: 1A 52 12 01 6F 09 02 00  10 11 80 00 F0 07 9D 00  .R..o...........
07E0: 10 14 03 00 00 10 48 4D  80 23 1A 52 12 01 6F 09  ......HM.#.R..o.
07F0: 02 00 10 18 80 00 FB 07  01 6F 09 02 00 10 19 80  .........o......
0800: 00 06 08 01 6F 09 02 00  10 1A 80 00 20 08 9D 00  ....o....... ...
0810: 10 14 03 00 00 10 48 4E  80 23 1A 52 12 01 6F 09  ......HN.#.R..o.
0820: 02 00 10 05 80 00 3A 08  9D 00 10 14 03 00 00 10  ......:.........
0830: 48 4E 80 23 1A 52 12 01  6F 09 02 00 10 07 80 00  HN.#.R..o.......
0840: 54 08 9D 00 10 14 03 00  00 10 48 4E 80 23 1A 52  T.........HN.#.R
0850: 12 01 6F 09 02 00 10 2F  80 00 5F 08 01 6F 09 02  ..o..../.._..o..
0860: 00 10 29 80 00 6A 08 01  6F 09 02 00 10 3F 80 00  ..)..j..o....?..
0870: 88 08 9D 00 10 14 03 00  00 10 48 4F 80 23 48 48  ..........HO.#HH
0880: 80 23 1A 52 12 01 6F 09  02 00 10 32 80 00 A6 08  .#.R..o....2....
0890: 9D 00 10 14 03 00 00 10  48 4F 80 23 48 48 80 23  ........HO.#HH.#
08A0: 1A 52 12 01 6F 09 02 00  10 33 80 00 C4 08 9D 00  .R..o....3......
08B0: 10 14 03 00 00 10 48 4F  80 23 48 48 80 23 1A 52  ......HO.#HH.#.R
08C0: 12 01 6F 09 02 00 10 41  80 00 E2 08 9D 00 10 14  ..o....A........
08D0: 03 00 00 10 48 4F 80 23  48 49 80 23 1A 52 12 01  ....HO.#HI.#.R..
08E0: 6F 09 02 00 10 42 80 00  ED 08 01 6F 09 02 00 10  o....B.....o....
08F0: 34 80 00 0B 09 9D 00 10  14 03 00 00 10 48 50 80  4............HP.
0900: 23 48 48 80 23 1A 52 12  01 6F 09 02 00 10 35 80  #HH.#.R..o....5.
0910: 00 29 09 9D 00 10 14 03  00 00 10 48 50 80 23 48  .).........HP.#H
0920: 48 80 23 1A 52 12 01 6F  09 02 00 10 44 80 00 47  H.#.R..o....D..G
0930: 09 9D 00 10 14 03 00 00  10 48 50 80 23 48 48 80  .........HP.#HH.
0940: 23 1A 52 12 01 6F 09 02  00 10 45 80 00 61 09 9D  #.R..o....E..a..
0950: 00 10 14 03 00 00 10 48  51 80 23 1A 52 12 01 6F  .......HQ.#.R..o
0960: 09 02 00 10 36 80 00 6C  09 01 6F 09 0C 00 00 01  ....6..l..o.....
0970: 7D 07 1B 0B 00 00 02 00  00 0E 80 04 F5 0A 03 01  }...............
0980: 10 1A 80 40 2F 80 3C 80  01 10 07 80 43 00 43 01  ...@/.<.....C.C.
0990: 1A 49 03 24 52 80 03 80  02 10 25 02 00 10 03 80  .I.$R.....%.....
09A0: 00 B5 09 9D 00 E0 13 03  00 00 10 48 53 80 23 1A  ...........HS.#.
09B0: 52 12 01 F2 0A 02 00 10  0E 80 00 CF 09 9D 00 E0  R...............
09C0: 13 03 00 00 10 48 53 80  23 1A 52 12 01 F2 0A 02  .....HS.#.R.....
09D0: 00 10 11 80 00 E9 09 9D  00 E0 13 03 00 00 10 48  ...............H
09E0: 53 80 23 1A 52 12 01 F2  0A 02 00 10 18 80 00 03  S.#.R...........
09F0: 0A 9D 00 E0 13 03 00 00  10 48 53 80 23 1A 52 12  .........HS.#.R.
0A00: 01 F2 0A 02 00 10 19 80  00 0E 0A 01 F2 0A 02 00  ................
0A10: 10 1A 80 00 19 0A 01 F2  0A 02 00 10 05 80 00 24  ...............$
0A20: 0A 01 F2 0A 02 00 10 07  80 00 2F 0A 01 F2 0A 02  ........../.....
0A30: 00 10 2F 80 00 3A 0A 01  F2 0A 02 00 10 29 80 00  ../..:.......)..
0A40: 45 0A 01 F2 0A 02 00 10  3F 80 00 5F 0A 9D 00 E0  E.......?.._....
0A50: 13 03 00 00 10 48 54 80  23 1A 52 12 01 F2 0A 02  .....HT.#.R.....
0A60: 00 10 32 80 00 79 0A 9D  00 E0 13 03 00 00 10 48  ..2..y.........H
0A70: 54 80 23 1A 52 12 01 F2  0A 02 00 10 33 80 00 93  T.#.R.......3...
0A80: 0A 9D 00 E0 13 03 00 00  10 48 54 80 23 1A 52 12  .........HT.#.R.
0A90: 01 F2 0A 02 00 10 41 80  00 AD 0A 9D 00 E0 13 03  ......A.........
0AA0: 00 00 10 48 54 80 23 1A  52 12 01 F2 0A 02 00 10  ...HT.#.R.......
0AB0: 42 80 00 B8 0A 01 F2 0A  02 00 10 34 80 00 C3 0A  B..........4....
0AC0: 01 F2 0A 02 00 10 35 80  00 CE 0A 01 F2 0A 02 00  ......5.........
0AD0: 10 44 80 00 D9 0A 01 F2  0A 02 00 10 45 80 00 E4  .D..........E...
0AE0: 0A 01 F2 0A 02 00 10 36  80 00 EF 0A 01 F2 0A 0C  .......6........
0AF0: 00 00 01 76 09 1B 0B 00  00 02 00 00 0E 80 04 D7  ...v............
0B00: 0C 03 01 10 1A 80 40 2F  80 3C 80 01 10 0E 80 43  ......@/.<.....C
0B10: 00 43 01 1A 49 03 24 55  80 03 80 02 10 25 02 00  .C..I.$U.....%..
0B20: 10 03 80 00 3C 0B 9D 00  C0 12 03 00 00 10 48 56  ....<.........HV
0B30: 80 23 48 48 80 23 1A 52  12 01 D4 0C 02 00 10 0E  .#HH.#.R........
0B40: 80 00 5A 0B 9D 00 C0 12  03 00 00 10 48 56 80 23  ..Z.........HV.#
0B50: 48 48 80 23 1A 52 12 01  D4 0C 02 00 10 11 80 00  HH.#.R..........
0B60: 78 0B 9D 00 C0 12 03 00  00 10 48 56 80 23 48 48  x.........HV.#HH
0B70: 80 23 1A 52 12 01 D4 0C  02 00 10 18 80 00 96 0B  .#.R............
0B80: 9D 00 C0 12 03 00 00 10  48 56 80 23 48 48 80 23  ........HV.#HH.#
0B90: 1A 52 12 01 D4 0C 02 00  10 19 80 00 B4 0B 9D 00  .R..............
0BA0: C0 12 03 00 00 10 48 56  80 23 48 49 80 23 1A 52  ......HV.#HI.#.R
0BB0: 12 01 D4 0C 02 00 10 1A  80 00 CE 0B 9D 00 C0 12  ................
0BC0: 03 00 00 10 48 57 80 23  1A 52 12 01 D4 0C 02 00  ....HW.#.R......
0BD0: 10 05 80 00 E8 0B 9D 00  C0 12 03 00 00 10 48 58  ..............HX
0BE0: 80 23 1A 52 12 01 D4 0C  02 00 10 07 80 00 02 0C  .#.R............
0BF0: 9D 00 C0 12 03 00 00 10  48 59 80 23 1A 52 12 01  ........HY.#.R..
0C00: D4 0C 02 00 10 2F 80 00  1C 0C 9D 00 C0 12 03 00  ...../..........
0C10: 00 10 48 5A 80 23 1A 52  12 01 D4 0C 02 00 10 29  ..HZ.#.R.......)
0C20: 80 00 27 0C 01 D4 0C 02  00 10 3F 80 00 41 0C 9D  ..'.......?..A..
0C30: 00 C0 12 03 00 00 10 48  5B 80 23 1A 52 12 01 D4  .......H[.#.R...
0C40: 0C 02 00 10 32 80 00 5B  0C 9D 00 C0 12 03 00 00  ....2..[........
0C50: 10 48 5B 80 23 1A 52 12  01 D4 0C 02 00 10 33 80  .H[.#.R.......3.
0C60: 00 75 0C 9D 00 C0 12 03  00 00 10 48 5B 80 23 1A  .u.........H[.#.
0C70: 52 12 01 D4 0C 02 00 10  41 80 00 8F 0C 9D 00 C0  R.......A.......
0C80: 12 03 00 00 10 48 5B 80  23 1A 52 12 01 D4 0C 02  .....H[.#.R.....
0C90: 00 10 42 80 00 9A 0C 01  D4 0C 02 00 10 34 80 00  ..B..........4..
0CA0: A5 0C 01 D4 0C 02 00 10  35 80 00 B0 0C 01 D4 0C  ........5.......
0CB0: 02 00 10 44 80 00 BB 0C  01 D4 0C 02 00 10 45 80  ...D..........E.
0CC0: 00 C6 0C 01 D4 0C 02 00  10 36 80 00 D1 0C 01 D4  .........6......
0CD0: 0C 0C 00 00 01 F9 0A 1B  0B 00 00 02 00 00 0E 80  ................
0CE0: 04 6E 0E 03 01 10 1A 80  40 2F 80 3C 80 01 10 11  .n......@/.<....
0CF0: 80 43 00 43 01 1A 49 03  24 5C 80 03 80 02 10 25  .C.C..I.$\.....%
0D00: 02 00 10 03 80 00 1E 0D  9D 00 F0 12 03 00 00 10  ................
0D10: 48 5D 80 23 48 48 80 23  1A 52 12 01 6B 0E 02 00  H].#HH.#.R..k...
0D20: 10 0E 80 00 3C 0D 9D 00  F0 12 03 00 00 10 48 5D  ....<.........H]
0D30: 80 23 48 48 80 23 1A 52  12 01 6B 0E 02 00 10 11  .#HH.#.R..k.....
0D40: 80 00 5A 0D 9D 00 F0 12  03 00 00 10 48 5D 80 23  ..Z.........H].#
0D50: 48 48 80 23 1A 52 12 01  6B 0E 02 00 10 18 80 00  HH.#.R..k.......
0D60: 78 0D 9D 00 F0 12 03 00  00 10 48 5D 80 23 48 48  x.........H].#HH
0D70: 80 23 1A 52 12 01 6B 0E  02 00 10 19 80 00 96 0D  .#.R..k.........
0D80: 9D 00 F0 12 03 00 00 10  48 5D 80 23 48 49 80 23  ........H].#HI.#
0D90: 1A 52 12 01 6B 0E 02 00  10 1A 80 00 A1 0D 01 6B  .R..k..........k
0DA0: 0E 02 00 10 05 80 00 AC  0D 01 6B 0E 02 00 10 07  ..........k.....
0DB0: 80 00 B7 0D 01 6B 0E 02  00 10 2F 80 00 C2 0D 01  .....k..../.....
0DC0: 6B 0E 02 00 10 29 80 00  CD 0D 01 6B 0E 02 00 10  k....).....k....
0DD0: 3F 80 00 E7 0D 9D 00 F0  12 03 00 00 10 48 5E 80  ?............H^.
0DE0: 23 1A 52 12 01 6B 0E 02  00 10 32 80 00 01 0E 9D  #.R..k....2.....
0DF0: 00 F0 12 03 00 00 10 48  5E 80 23 1A 52 12 01 6B  .......H^.#.R..k
0E00: 0E 02 00 10 33 80 00 1B  0E 9D 00 F0 12 03 00 00  ....3...........
0E10: 10 48 5E 80 23 1A 52 12  01 6B 0E 02 00 10 41 80  .H^.#.R..k....A.
0E20: 00 26 0E 01 6B 0E 02 00  10 42 80 00 31 0E 01 6B  .&..k....B..1..k
0E30: 0E 02 00 10 34 80 00 3C  0E 01 6B 0E 02 00 10 35  ....4..<..k....5
0E40: 80 00 47 0E 01 6B 0E 02  00 10 44 80 00 52 0E 01  ..G..k....D..R..
0E50: 6B 0E 02 00 10 45 80 00  5D 0E 01 6B 0E 02 00 10  k....E..]..k....
0E60: 36 80 00 68 0E 01 6B 0E  0C 00 00 01 DB 0C 1B 0B  6..h..k.........
0E70: 00 00 02 00 00 0E 80 04  EB 10 03 01 10 1A 80 40  ...............@
0E80: 2F 80 3C 80 01 10 18 80  43 00 43 01 1A 49 03 03  /.<.....C.C..I..
0E90: 0C 00 02 10 41 19 80 19  80 0C 00 0D 00 40 18 80  ....A........@..
0EA0: 18 80 02 10 0D 00 41 18  80 18 80 0C 00 0D 00 40  ......A........@
0EB0: 19 80 19 80 02 10 0D 00  41 2F 80 2F 80 0C 00 0D  ........A/./....
0EC0: 00 40 1A 80 1A 80 02 10  0D 00 41 1A 80 1A 80 0C  .@........A.....
0ED0: 00 0D 00 40 05 80 05 80  02 10 0D 00 41 05 80 05  ...@........A...
0EE0: 80 0C 00 0D 00 40 07 80  07 80 02 10 0D 00 41 07  .....@........A.
0EF0: 80 07 80 0C 00 0D 00 40  2F 80 2F 80 02 10 0D 00  .......@/./.....
0F00: 24 5F 80 03 80 02 10 25  02 00 10 03 80 00 26 0F  $_.....%......&.
0F10: 9D 00 20 13 03 00 00 10  48 60 80 23 48 48 80 23  .. .....H`.#HH.#
0F20: 1A 52 12 01 E8 10 02 00  10 0E 80 00 44 0F 9D 00  .R..........D...
0F30: 20 13 03 00 00 10 48 60  80 23 48 48 80 23 1A 52   .....H`.#HH.#.R
0F40: 12 01 E8 10 02 00 10 11  80 00 62 0F 9D 00 20 13  ..........b... .
0F50: 03 00 00 10 48 60 80 23  48 48 80 23 1A 52 12 01  ....H`.#HH.#.R..
0F60: E8 10 02 00 10 18 80 00  80 0F 9D 00 20 13 03 00  ............ ...
0F70: 00 10 48 60 80 23 48 49  80 23 1A 52 12 01 E8 10  ..H`.#HI.#.R....
0F80: 02 00 10 19 80 00 9A 0F  9D 00 20 13 03 00 00 10  .......... .....
0F90: 48 60 80 23 1A 52 12 01  E8 10 02 00 10 1A 80 00  H`.#.R..........
0FA0: B4 0F 9D 00 20 13 03 00  00 10 48 61 80 23 1A 52  .... .....Ha.#.R
0FB0: 12 01 E8 10 02 00 10 05  80 00 CE 0F 9D 00 20 13  .............. .
0FC0: 03 00 00 10 48 62 80 23  1A 52 12 01 E8 10 02 00  ....Hb.#.R......
0FD0: 10 07 80 00 E8 0F 9D 00  20 13 03 00 00 10 48 62  ........ .....Hb
0FE0: 80 23 1A 52 12 01 E8 10  02 00 10 2F 80 00 02 10  .#.R......./....
0FF0: 9D 00 20 13 03 00 00 10  48 62 80 23 1A 52 12 01  .. .....Hb.#.R..
1000: E8 10 02 00 10 29 80 00  0D 10 01 E8 10 02 00 10  .....)..........
1010: 3F 80 00 2B 10 9D 00 20  13 03 00 00 10 48 63 80  ?..+... .....Hc.
1020: 23 48 48 80 23 1A 52 12  01 E8 10 02 00 10 32 80  #HH.#.R.......2.
1030: 00 49 10 9D 00 20 13 03  00 00 10 48 63 80 23 48  .I... .....Hc.#H
1040: 48 80 23 1A 52 12 01 E8  10 02 00 10 33 80 00 67  H.#.R.......3..g
1050: 10 9D 00 20 13 03 00 00  10 48 63 80 23 48 48 80  ... .....Hc.#HH.
1060: 23 1A 52 12 01 E8 10 02  00 10 41 80 00 85 10 9D  #.R.......A.....
1070: 00 20 13 03 00 00 10 48  63 80 23 48 49 80 23 1A  . .....Hc.#HI.#.
1080: 52 12 01 E8 10 02 00 10  42 80 00 9F 10 9D 00 20  R.......B...... 
1090: 13 03 00 00 10 48 64 80  23 1A 52 12 01 E8 10 02  .....Hd.#.R.....
10A0: 00 10 34 80 00 B9 10 9D  00 20 13 03 00 00 10 48  ..4...... .....H
10B0: 65 80 23 1A 52 12 01 E8  10 02 00 10 35 80 00 C4  e.#.R.......5...
10C0: 10 01 E8 10 02 00 10 44  80 00 CF 10 01 E8 10 02  .......D........
10D0: 00 10 45 80 00 DA 10 01  E8 10 02 00 10 36 80 00  ..E..........6..
10E0: E5 10 01 E8 10 0C 00 00  01 72 0E 1B 0B 00 00 02  .........r......
10F0: 00 00 0E 80 04 50 12 03  01 10 1A 80 40 2F 80 3C  .....P......@/.<
1100: 80 01 10 19 80 43 00 43  01 1A 49 03 24 66 80 03  .....C.C..I.$f..
1110: 80 02 10 25 02 00 10 03  80 00 2E 11 9D 00 50 13  ...%..........P.
1120: 03 00 00 10 48 67 80 23  1A 52 12 01 4D 12 02 00  ....Hg.#.R..M...
1130: 10 0E 80 00 48 11 9D 00  50 13 03 00 00 10 48 67  ....H...P.....Hg
1140: 80 23 1A 52 12 01 4D 12  02 00 10 11 80 00 62 11  .#.R..M.......b.
1150: 9D 00 50 13 03 00 00 10  48 67 80 23 1A 52 12 01  ..P.....Hg.#.R..
1160: 4D 12 02 00 10 18 80 00  6D 11 01 4D 12 02 00 10  M.......m..M....
1170: 19 80 00 78 11 01 4D 12  02 00 10 1A 80 00 83 11  ...x..M.........
1180: 01 4D 12 02 00 10 05 80  00 8E 11 01 4D 12 02 00  .M..........M...
1190: 10 07 80 00 99 11 01 4D  12 02 00 10 2F 80 00 A4  .......M..../...
11A0: 11 01 4D 12 02 00 10 29  80 00 AF 11 01 4D 12 02  ..M....).....M..
11B0: 00 10 3F 80 00 C9 11 9D  00 50 13 03 00 00 10 48  ..?......P.....H
11C0: 68 80 23 1A 52 12 01 4D  12 02 00 10 32 80 00 E3  h.#.R..M....2...
11D0: 11 9D 00 50 13 03 00 00  10 48 68 80 23 1A 52 12  ...P.....Hh.#.R.
11E0: 01 4D 12 02 00 10 33 80  00 FD 11 9D 00 50 13 03  .M....3......P..
11F0: 00 00 10 48 68 80 23 1A  52 12 01 4D 12 02 00 10  ...Hh.#.R..M....
1200: 41 80 00 08 12 01 4D 12  02 00 10 42 80 00 13 12  A.....M....B....
1210: 01 4D 12 02 00 10 34 80  00 1E 12 01 4D 12 02 00  .M....4.....M...
1220: 10 35 80 00 29 12 01 4D  12 02 00 10 44 80 00 34  .5..)..M....D..4
1230: 12 01 4D 12 02 00 10 45  80 00 3F 12 01 4D 12 02  ..M....E..?..M..
1240: 00 10 36 80 00 4A 12 01  4D 12 0C 00 00 01 EF 10  ..6..J..M.......
1250: 1B 1B 1D 69 80 23 24 6A  80 0E 80 03 80 25 02 00  ...i.#$j.....%..
1260: 10 03 80 00 BF 12 03 01  10 0E 80 40 35 80 3C 80  ...........@5.<.
1270: 01 10 03 00 43 00 43 01  02 09 10 03 80 80 90 12  ....C.C.........
1280: 1D 6B 80 23 48 6C 80 23  08 00 00 11 80 01 BC 12  .k.#Hl.#........
1290: 02 09 10 6D 80 80 9F 12  1D 6E 80 23 01 BC 12 02  ...m.....n.#....
12A0: 09 10 6F 80 80 B3 12 1D  22 80 23 08 00 00 11 80  ..o.....".#.....
12B0: 01 BC 12 1D 70 80 23 08  00 00 11 80 01 BF 12 1B  ....p.#.........
12C0: 71 80 72 80 73 80 74 80  75 80 76 80 77 80 78 80  q.r.s.t.u.v.w.x.
12D0: 79 80 7A 80 7B 80 7C 80  7D 80 7E 80 7F 80 80 80  y.z.{.|.}.~.....
12E0: 81 80 82 80 83 80 84 80  03 80 03 80 03 80 03 80  ................
12F0: 85 80 86 80 87 80 88 80  89 80 8A 80 8B 80 8C 80  ................
1300: 8D 80 14 80 8E 80 8F 80  90 80 91 80 92 80 93 80  ................
1310: 94 80 95 80 96 80 97 80  03 80 03 80 03 80 03 80  ................
1320: 98 80 99 80 9A 80 9B 80  9C 80 9D 80 9E 80 9F 80  ................
1330: A0 80 A1 80 A2 80 A3 80  A4 80 A5 80 A6 80 A7 80  ................
1340: A8 80 A9 80 AA 80 AB 80  03 80 03 80 03 80 03 80  ................
1350: AC 80 AD 80 AE 80 AF 80  B0 80 B1 80 B2 80 B3 80  ................
1360: B4 80 B5 80 B6 80 B7 80  B8 80 B9 80 BA 80 BB 80  ................
1370: BC 80 BD 80 BE 80 BF 80  03 80 03 80 03 80 03 80  ................
1380: C0 80 C1 80 C2 80 C3 80  C4 80 C5 80 C6 80 C7 80  ................
1390: C8 80 C9 80 CA 80 CB 80  CC 80 CD 80 CE 80 CF 80  ................
13A0: D0 80 D1 80 D2 80 D3 80  03 80 03 80 03 80 03 80  ................
13B0: D4 80 D5 80 D6 80 D7 80  D8 80 D9 80 DA 80 DB 80  ................
13C0: DC 80 DD 80 DE 80 DF 80  E0 80 E1 80 E2 80 E3 80  ................
13D0: E4 80 E5 80 E6 80 E7 80  03 80 03 80 03 80 03 80  ................
13E0: E8 80 E9 80 EA 80 EB 80  EC 80 ED 80 EE 80 EF 80  ................
13F0: F0 80 F1 80 F2 80 F3 80  F4 80 F5 80 F6 80 F7 80  ................
1400: F8 80 F9 80 FA 80 FB 80  03 80 03 80 03 80 03 80  ................
1410: FC 80 FD 80 FE 80 FF 80  00 81 01 81 02 81 03 81  ................
1420: 04 81 05 81 06 81 07 81  08 81 09 81 0A 81 0B 81  ................
1430: 0C 81 0D 81 0E 81 0F 81  03 80 03 80 03 80 03 80  ................
```

#### Opcodes

```
  0: 0x01B6 [0x03] ExtData[1]->WorkLocal[2] = Work_Zone[2]
  1: 0x01BB [0x03] ExtData[1]->WorkLocal[1] = Work_Zone[3]
  2: 0x01C0 [0x03] ExtData[1]->WorkLocal[7] = Work_Zone[4]
  3: 0x01C5 [0x03] ExtData[1]->WorkLocal[14] = Work_Zone[5]
  4: 0x01CA [0x4A] EventEntity looks at LocalPlayer
  5: 0x01D3 [0x1D] PRINT_EVENT_MESSAGE(message_id=11314*)
    → "You need to know somethin' 'bout Allied Campaign operations, Hieronymus's your man!"
  6: 0x01D6 [0x23] WAIT_FOR_DIALOG_INTERACTION
  7: 0x01D7 [0x02] IF !(ExtData[1]->WorkLocal[1] == 0*) GOTO 0x0200
  8: 0x01DF [0x1D] PRINT_EVENT_MESSAGE(message_id=11316*)
    → "Wait... Don't tell me you're one of the Fourth's new recruits. Pshhh. That means I'll probably have to hold your hand while I explain about Op Credits, eh?"
  9: 0x01E2 [0x23] WAIT_FOR_DIALOG_INTERACTION
 10: 0x01E3 [0x24] CREATE_DIALOG(message_id=11317*, default_option=1*, option_flags=0*)
    → "Learn about Op Credits? [No./Yes.]"
 11: 0x01EA [0x25] WAIT_DIALOG_SELECT()
 12: 0x01EB [0x02] IF !(Work_Zone[0] == 0*) GOTO 0x01FA
 13: 0x01F3 [0x1D] PRINT_EVENT_MESSAGE(message_id=11318*)
    → "Oh, [big mister smart boy/little miss smarty-pants], are we now?"
 14: 0x01F6 [0x23] WAIT_FOR_DIALOG_INTERACTION
 15: 0x01F7 [0x01] GOTO 0x01FD
 16: 0x01FA [0x1A] CALL_SUBROUTINE(address=0x0321)

SUBROUTINE_01FD:
 17: 0x01FD [0x01] GOTO 0x0200

SUBROUTINE_0200:
 18: 0x0200 [0x02] IF !(ExtData[1]->WorkLocal[2] > 0*) GOTO 0x0229
 19: 0x0208 [0x1D] PRINT_EVENT_MESSAGE(message_id=11378*)
    → "Hey, wait! You ain't got no Op Credits! I like your enthusiasm, <Player>, but rules are rules. I'll see you back here tomorrow."
 20: 0x020B [0x23] WAIT_FOR_DIALOG_INTERACTION
 21: 0x020C [0x03] Work_Zone[2] = ExtData[1]->WorkLocal[7]
 22: 0x0211 [0x02] IF !(Work_Zone[2] >= 1*) GOTO 0x0220
 23: 0x0219 [0x48] [System] [11417*]:
    → "You will be issued a new Op Credit in less than an hour (Earth time)."
 24: 0x021C [0x23] WAIT_FOR_DIALOG_INTERACTION
 25: 0x021D [0x01] GOTO 0x0224
 26: 0x0220 [0x48] [System] [11416*]:
    → "You will be issued a new Op Credit in approximately $0 [hour/hours] (Earth time)."
 27: 0x0223 [0x23] WAIT_FOR_DIALOG_INTERACTION

SUBROUTINE_0224:
 28: 0x0224 [0x21] END_EVENT
 29: 0x0225 [0x00] END_REQSTACK()

SUBROUTINE_0232:
 30: 0x0232 [0x24] CREATE_DIALOG(message_id=11320*, default_option=0*, option_flags=0*)
    → "Participate in an operation? [Sign me up!/Tell me more about Op Credits./View your nation's information./Not today.]"
 31: 0x0239 [0x25] WAIT_DIALOG_SELECT()
 32: 0x023A [0x02] IF !(Work_Zone[0] == 1*) GOTO 0x024B
 33: 0x0242 [0x1A] CALL_SUBROUTINE(address=0x0321)
 34: 0x0245 [0x01] GOTO 0x0232

SUBROUTINE_0283:
 35: 0x0283 [0x21] END_EVENT
 36: 0x0284 [0x00] END_REQSTACK()

SUBROUTINE_0285:
 37: 0x0285 [0x06] ExtData[1]->WorkLocal[0] = 0

SUBROUTINE_0288:
 38: 0x0288 [0x02] IF !(ExtData[1]->WorkLocal[0] < 0*) GOTO 0x031F
 39: 0x0290 [0x1D] PRINT_EVENT_MESSAGE(message_id=11327*)
    → "You've been cleared for service in the following operations:"
 40: 0x0293 [0x23] WAIT_FOR_DIALOG_INTERACTION
 41: 0x0294 [0x03] Work_Zone[1] = 9*
 42: 0x0299 [0x43] SEND_EVENT_UPDATE: Send pending tag to server (packet 0x005B)
 43: 0x029B [0x43] SEND_EVENT_UPDATE: Check pending flag (skip if not pending)
 44: 0x029D [0x24] CREATE_DIALOG(message_id=11328*, default_option=0*, option_flags=0*)
    → "Please select a category. [Resource procurement./Supply transport./Security./Supply manufacture./Offensive operations./Defensive operations./Intel gathering./Military training./Quit.]"
 45: 0x02A4 [0x25] WAIT_DIALOG_SELECT()
 46: 0x02A5 [0x02] IF !(Work_Zone[0] == 0*) GOTO 0x02B3
 47: 0x02AD [0x1A] CALL_SUBROUTINE(address=0x040D)
 48: 0x02B0 [0x01] GOTO 0x031C
 49: 0x02B3 [0x02] IF !(Work_Zone[0] == 1*) GOTO 0x02C1
 50: 0x02BB [0x1A] CALL_SUBROUTINE(address=0x059F)
 51: 0x02BE [0x01] GOTO 0x031C
 52: 0x02C1 [0x02] IF !(Work_Zone[0] == 2*) GOTO 0x02CF
 53: 0x02C9 [0x1A] CALL_SUBROUTINE(address=0x077A)
 54: 0x02CC [0x01] GOTO 0x031C
 55: 0x02CF [0x02] IF !(Work_Zone[0] == 3*) GOTO 0x02DD
 56: 0x02D7 [0x1A] CALL_SUBROUTINE(address=0x0973)
 57: 0x02DA [0x01] GOTO 0x031C
 58: 0x02DD [0x02] IF !(Work_Zone[0] == 4*) GOTO 0x02EB
 59: 0x02E5 [0x1A] CALL_SUBROUTINE(address=0x0AF6)
 60: 0x02E8 [0x01] GOTO 0x031C
 61: 0x02EB [0x02] IF !(Work_Zone[0] == 5*) GOTO 0x02F9
 62: 0x02F3 [0x1A] CALL_SUBROUTINE(address=0x0CD8)
 63: 0x02F6 [0x01] GOTO 0x031C
 64: 0x02F9 [0x02] IF !(Work_Zone[0] == 6*) GOTO 0x0307
 65: 0x0301 [0x1A] CALL_SUBROUTINE(address=0x0E6F)
 66: 0x0304 [0x01] GOTO 0x031C
 67: 0x0307 [0x02] IF !(Work_Zone[0] == 7*) GOTO 0x0315
 68: 0x030F [0x1A] CALL_SUBROUTINE(address=0x10EC)
 69: 0x0312 [0x01] GOTO 0x031C
 70: 0x0315 [0x1D] PRINT_EVENT_MESSAGE(message_id=11325*)
    → "Hmph. Then stop wasting my time, rookie!"
 71: 0x0318 [0x23] WAIT_FOR_DIALOG_INTERACTION
 72: 0x0319 [0x0C] ExtData[1]->WorkLocal[0]--

SUBROUTINE_031C:
 73: 0x031C [0x01] GOTO 0x0288
 74: 0x031F [0x21] END_EVENT
 75: 0x0320 [0x00] END_REQSTACK()

SUBROUTINE_0321:
 76: 0x0321 [0x1D] PRINT_EVENT_MESSAGE(message_id=11321*)
    → "Alright, rookie, listen up. To make sure everything is fair and square during the campaign, a bunch of important types have come up with a system that's supposed to regulate everybody's participation in operations."
 77: 0x0324 [0x23] WAIT_FOR_DIALOG_INTERACTION
 78: 0x0325 [0x1D] PRINT_EVENT_MESSAGE(message_id=11322*)
    → "Every soldier in the legion is given a single Op Credit that they can either redeem, save up, or wipe themselves with, for all I care."
 79: 0x0328 [0x23] WAIT_FOR_DIALOG_INTERACTION
 80: 0x0329 [0x03] Work_Zone[2] = ExtData[1]->WorkLocal[14]
 81: 0x032E [0x1D] PRINT_EVENT_MESSAGE(message_id=11323*)
    → "At least one credit is needed to join most campaign operations. More advanced missions will cost you extra, with one coming every [day/ten minutes]."
 82: 0x0331 [0x23] WAIT_FOR_DIALOG_INTERACTION
 83: 0x0332 [0x1D] PRINT_EVENT_MESSAGE(message_id=11324*)
    → "Just remember, once you hand over that credit, it ain't never coming back, no matter if you break your knee or lose your breeches."
 84: 0x0335 [0x23] WAIT_FOR_DIALOG_INTERACTION
 85: 0x0336 [0x1B] RETURN

SUBROUTINE_0337:
 86: 0x0337 [0x03] Work_Zone[1] = 8*
 87: 0x033C [0x43] SEND_EVENT_UPDATE: Send pending tag to server (packet 0x005B)
 88: 0x033E [0x43] SEND_EVENT_UPDATE: Check pending flag (skip if not pending)
 89: 0x0340 [0x48] [System] [11425*]:
    → "Current nation status: Funds: [UNKNOWN/$25/$25$25/$25$25$25/$25$25$25$25/$25$25$25$25$25/$25$25$25$25$25$25/$25$25$25$25$25$25$25/$25$25$25$25$25$25$25$25/$25$25$25$25$25$25$25$25$25/$25$25$25$25$25$25$25$25$25$25] Supplies: [UNKNOWN/$25/$25$25/$25$25$25/$25$25$25$25/$25$25$25$25$25/$25$25$25$25$25$25/$25$25$25$25$25$25$25/$25$25$25$25$25$25$25$25/$25$25$25$25$25$25$25$25$25/$25$25$25$25$25$25$25$25$25$25] Tactics: [UNKNOWN/$25/$25$25/$25$25$25/$25$25$25$25/$25$25$25$25$25/$25$25$25$25$25$25/$25$25$25$25$25$25$25/$25$25$25$25$25$25$25$25/$25$25$25$25$25$25$25$25$25/$25$25$25$25$25$25$25$25$25$25]"
 90: 0x0343 [0x23] WAIT_FOR_DIALOG_INTERACTION
 91: 0x0344 [0x48] [System] [11426*]:
    → "Skill: [UNKNOWN/$25/$25$25/$25$25$25/$25$25$25$25/$25$25$25$25$25/$25$25$25$25$25$25/$25$25$25$25$25$25$25/$25$25$25$25$25$25$25$25/$25$25$25$25$25$25$25$25$25/$25$25$25$25$25$25$25$25$25$25] Production: [UNKNOWN/$25/$25$25/$25$25$25/$25$25$25$25/$25$25$25$25$25/$25$25$25$25$25$25/$25$25$25$25$25$25$25/$25$25$25$25$25$25$25$25/$25$25$25$25$25$25$25$25$25/$25$25$25$25$25$25$25$25$25$25]"
 92: 0x0347 [0x23] WAIT_FOR_DIALOG_INTERACTION
 93: 0x0348 [0x1B] RETURN

SUBROUTINE_0349:
 94: 0x0349 [0x03] ExtData[1]->WorkLocal[9] = Work_Zone[3]
 95: 0x034E [0x03] ExtData[1]->WorkLocal[10] = Work_Zone[4]
 96: 0x0353 [0x03] ExtData[1]->WorkLocal[11] = Work_Zone[5]
 97: 0x0358 [0x41] Work_Zone[3] = ExtData[1]->WorkLocal[9] (bits 0*-3*)
 98: 0x0361 [0x41] Work_Zone[4] = ExtData[1]->WorkLocal[9] (bits 4*-7*)
 99: 0x036A [0x41] Work_Zone[5] = ExtData[1]->WorkLocal[9] (bits 8*-11*)
100: 0x0373 [0x41] Work_Zone[6] = ExtData[1]->WorkLocal[9] (bits 12*-15*)
101: 0x037C [0x41] Work_Zone[7] = ExtData[1]->WorkLocal[9] (bits 16*-19*)
102: 0x0385 [0x41] Work_Zone[8] = ExtData[1]->WorkLocal[9] (bits 20*-23*)
103: 0x038E [0x41] Work_Zone[9] = ExtData[1]->WorkLocal[9] (bits 24*-27*)
104: 0x0397 [0x41] Work_Zone_1700[0] = ExtData[1]->WorkLocal[9] (bits 28*-31*)
105: 0x03A0 [0x41] Work_Zone_1700[1] = ExtData[1]->WorkLocal[10] (bits 0*-3*)
106: 0x03A9 [0x41] Work_Zone_1700[2] = ExtData[1]->WorkLocal[10] (bits 4*-7*)
107: 0x03B2 [0x41] Work_Zone_1700[3] = ExtData[1]->WorkLocal[10] (bits 8*-11*)
108: 0x03BB [0x41] Work_Zone_1700[4] = ExtData[1]->WorkLocal[10] (bits 12*-15*)
109: 0x03C4 [0x41] Work_Zone_1700[5] = ExtData[1]->WorkLocal[10] (bits 16*-19*)
110: 0x03CD [0x41] Work_Zone_1700[6] = ExtData[1]->WorkLocal[10] (bits 20*-23*)
111: 0x03D6 [0x41] Work_Zone_1700[7] = ExtData[1]->WorkLocal[10] (bits 24*-27*)
112: 0x03DF [0x41] Work_Zone_1700[8] = ExtData[1]->WorkLocal[10] (bits 28*-31*)
113: 0x03E8 [0x41] Work_Zone_1700[9] = ExtData[1]->WorkLocal[11] (bits 0*-3*)
114: 0x03F1 [0x41] Work_Zone_1700[10] = ExtData[1]->WorkLocal[11] (bits 4*-7*)
115: 0x03FA [0x41] Work_Zone_1700[11] = ExtData[1]->WorkLocal[11] (bits 8*-11*)
116: 0x0403 [0x41] Work_Zone_1700[12] = ExtData[1]->WorkLocal[11] (bits 12*-15*)
117: 0x040C [0x1B] RETURN

SUBROUTINE_040D:
118: 0x040D [0x0B] ExtData[1]->WorkLocal[0]++

SUBROUTINE_0410:
119: 0x0410 [0x02] IF !(ExtData[1]->WorkLocal[0] < 1*) GOTO 0x059E
120: 0x0418 [0x03] Work_Zone[1] = 5*
121: 0x041D [0x40] SET_BIT_WORK_RANGE(start_bit=8*, end_bit=31*, target=Work_Zone[1], source=5*)
122: 0x0426 [0x43] SEND_EVENT_UPDATE: Send pending tag to server (packet 0x005B)
123: 0x0428 [0x43] SEND_EVENT_UPDATE: Check pending flag (skip if not pending)
124: 0x042A [0x1A] CALL_SUBROUTINE(address=0x0349)
125: 0x042D [0x24] CREATE_DIALOG(message_id=11333*, default_option=0*, option_flags=Work_Zone[2])
    → "Please select an operation. [Stock and Awe I. ([$26/$26$26/$26$26$26/$26$26$26$26/$26$26$26$26$26])/Stock and Awe II. ([$26/$26$26/$26$26$26/$26$26$26$26/$26$26$26$26$26])/Stock and Awe III. ([$26/$26$26/$26$26$26/$26$26$26$26/$26$26$26$26$26])/Stock and Awe IV. ([$26/$26$26/$26$26$26/$26$26$26$26/$26$26$26$26$26])/Top Secret Operation X. ([$26/$26$26/$26$26$26/$26$26$26$26/$26$26$26$26$26])/Top Secret Operation X. ([$26/$26$26/$26$26$26/$26$26$26$26/$26$26$26$26$26])/Top Secret Operation X. ([$26/$26$26/$26$26$26/$26$26$26$26/$26$26$26$26$26])/Top Secret Operation X. ([$26/$26$26/$26$26$26/$26$26$26$26/$26$26$26$26$26])/Top Secret Operation X. ([$26/$26$26/$26$26$26/$26$26$26$26/$26$26$26$26$26])/Top Secret Operation X. ([$26/$26$26/$26$26$26/$26$26$26$26/$26$26$26$26$26])/Materiel Storm I. ([$26/$26$26/$26$26$26/$26$26$26$26/$26$26$26$26$26])/Materiel Storm II. ([$26/$26$26/$26$26$26/$26$26$26$26/$26$26$26$26$26])/Materiel Storm III. ([$26/$26$26/$26$26$26/$26$26$26$26/$26$26$26$26$26])/Materiel Storm IV. ([$26/$26$26/$26$26$26/$26$26$26$26/$26$26$26$26$26])/Top Secret Operation X. ([$26/$26$26/$26$26$26/$26$26$26$26/$26$26$26$26$26])/Search and Seizure I. ([$26/$26$26/$26$26$26/$26$26$26$26/$26$26$26$26$26])/Top Secret Operation X. ([$26/$26$26/$26$26$26/$26$26$26$26/$26$26$26$26$26])/Top Secret Operation X. ([$26/$26$26/$26$26$26/$26$26$26$26/$26$26$26$26$26])/Top Secret Operation X. ([$26/$26$26/$26$26$26/$26$26$26$26/$26$26$26$26$26])/Top Secret Operation X. ([$26/$26$26/$26$26$26/$26$26$26$26/$26$26$26$26$26])/Quit.]"
126: 0x0434 [0x25] WAIT_DIALOG_SELECT()
127: 0x0435 [0x02] IF !(Work_Zone[0] == 0*) GOTO 0x044F
128: 0x043D [0x9D] ExtData[1]->WorkLocal[3] = 0x1380[Work_Zone[0]] // Read WORD
129: 0x0445 [0x48] [System] [11358*]:
    → "For this operation, you'll have to help resupply our nation's dwindlin' munitions stockpiles."
130: 0x0448 [0x23] WAIT_FOR_DIALOG_INTERACTION
131: 0x0449 [0x1A] CALL_SUBROUTINE(address=0x1252)
132: 0x044C [0x01] GOTO 0x059B
133: 0x044F [0x02] IF !(Work_Zone[0] == 1*) GOTO 0x0469
134: 0x0457 [0x9D] ExtData[1]->WorkLocal[3] = 0x1380[Work_Zone[0]] // Read WORD
135: 0x045F [0x48] [System] [11358*]:
    → "For this operation, you'll have to help resupply our nation's dwindlin' munitions stockpiles."
136: 0x0462 [0x23] WAIT_FOR_DIALOG_INTERACTION
137: 0x0463 [0x1A] CALL_SUBROUTINE(address=0x1252)
138: 0x0466 [0x01] GOTO 0x059B
139: 0x0469 [0x02] IF !(Work_Zone[0] == 2*) GOTO 0x0483
140: 0x0471 [0x9D] ExtData[1]->WorkLocal[3] = 0x1380[Work_Zone[0]] // Read WORD
141: 0x0479 [0x48] [System] [11358*]:
    → "For this operation, you'll have to help resupply our nation's dwindlin' munitions stockpiles."
142: 0x047C [0x23] WAIT_FOR_DIALOG_INTERACTION
143: 0x047D [0x1A] CALL_SUBROUTINE(address=0x1252)
144: 0x0480 [0x01] GOTO 0x059B
145: 0x0483 [0x02] IF !(Work_Zone[0] == 3*) GOTO 0x049D
146: 0x048B [0x9D] ExtData[1]->WorkLocal[3] = 0x1380[Work_Zone[0]] // Read WORD
147: 0x0493 [0x48] [System] [11358*]:
    → "For this operation, you'll have to help resupply our nation's dwindlin' munitions stockpiles."
148: 0x0496 [0x23] WAIT_FOR_DIALOG_INTERACTION
149: 0x0497 [0x1A] CALL_SUBROUTINE(address=0x1252)
150: 0x049A [0x01] GOTO 0x059B
151: 0x049D [0x02] IF !(Work_Zone[0] == 4*) GOTO 0x04A8
152: 0x04A5 [0x01] GOTO 0x059B
153: 0x04A8 [0x02] IF !(Work_Zone[0] == 5*) GOTO 0x04B3
154: 0x04B0 [0x01] GOTO 0x059B
155: 0x04B3 [0x02] IF !(Work_Zone[0] == 6*) GOTO 0x04BE
156: 0x04BB [0x01] GOTO 0x059B
157: 0x04BE [0x02] IF !(Work_Zone[0] == 7*) GOTO 0x04C9
158: 0x04C6 [0x01] GOTO 0x059B
159: 0x04C9 [0x02] IF !(Work_Zone[0] == 8*) GOTO 0x04D4
160: 0x04D1 [0x01] GOTO 0x059B
161: 0x04D4 [0x02] IF !(Work_Zone[0] == 9*) GOTO 0x04DF
162: 0x04DC [0x01] GOTO 0x059B
163: 0x04DF [0x02] IF !(Work_Zone[0] == 10*) GOTO 0x04F9
164: 0x04E7 [0x9D] ExtData[1]->WorkLocal[3] = 0x1380[Work_Zone[0]] // Read WORD
165: 0x04EF [0x48] [System] [11357*]:
    → "For this operation, you'll have to round up supplies for delivery to the frontlines."
166: 0x04F2 [0x23] WAIT_FOR_DIALOG_INTERACTION
167: 0x04F3 [0x1A] CALL_SUBROUTINE(address=0x1252)
168: 0x04F6 [0x01] GOTO 0x059B
169: 0x04F9 [0x02] IF !(Work_Zone[0] == 11*) GOTO 0x0513
170: 0x0501 [0x9D] ExtData[1]->WorkLocal[3] = 0x1380[Work_Zone[0]] // Read WORD
171: 0x0509 [0x48] [System] [11357*]:
    → "For this operation, you'll have to round up supplies for delivery to the frontlines."
172: 0x050C [0x23] WAIT_FOR_DIALOG_INTERACTION
173: 0x050D [0x1A] CALL_SUBROUTINE(address=0x1252)
174: 0x0510 [0x01] GOTO 0x059B
175: 0x0513 [0x02] IF !(Work_Zone[0] == 12*) GOTO 0x052D
176: 0x051B [0x9D] ExtData[1]->WorkLocal[3] = 0x1380[Work_Zone[0]] // Read WORD
177: 0x0523 [0x48] [System] [11357*]:
    → "For this operation, you'll have to round up supplies for delivery to the frontlines."
178: 0x0526 [0x23] WAIT_FOR_DIALOG_INTERACTION
179: 0x0527 [0x1A] CALL_SUBROUTINE(address=0x1252)
180: 0x052A [0x01] GOTO 0x059B
181: 0x052D [0x02] IF !(Work_Zone[0] == 13*) GOTO 0x0547
182: 0x0535 [0x9D] ExtData[1]->WorkLocal[3] = 0x1380[Work_Zone[0]] // Read WORD
183: 0x053D [0x48] [System] [11357*]:
    → "For this operation, you'll have to round up supplies for delivery to the frontlines."
184: 0x0540 [0x23] WAIT_FOR_DIALOG_INTERACTION
185: 0x0541 [0x1A] CALL_SUBROUTINE(address=0x1252)
186: 0x0544 [0x01] GOTO 0x059B
187: 0x0547 [0x02] IF !(Work_Zone[0] == 14*) GOTO 0x0552
188: 0x054F [0x01] GOTO 0x059B
189: 0x0552 [0x02] IF !(Work_Zone[0] == 15*) GOTO 0x056C
190: 0x055A [0x9D] ExtData[1]->WorkLocal[3] = 0x1380[Work_Zone[0]] // Read WORD
191: 0x0562 [0x48] [System] [11359*]:
    → "This operation requires that you locate an enemy supply convoy and secure any valuable supplies possible."
192: 0x0565 [0x23] WAIT_FOR_DIALOG_INTERACTION
193: 0x0566 [0x1A] CALL_SUBROUTINE(address=0x1252)
194: 0x0569 [0x01] GOTO 0x059B
195: 0x056C [0x02] IF !(Work_Zone[0] == 16*) GOTO 0x0577
196: 0x0574 [0x01] GOTO 0x059B
197: 0x0577 [0x02] IF !(Work_Zone[0] == 17*) GOTO 0x0582
198: 0x057F [0x01] GOTO 0x059B
199: 0x0582 [0x02] IF !(Work_Zone[0] == 18*) GOTO 0x058D
200: 0x058A [0x01] GOTO 0x059B
201: 0x058D [0x02] IF !(Work_Zone[0] == 19*) GOTO 0x0598
202: 0x0595 [0x01] GOTO 0x059B
203: 0x0598 [0x0C] ExtData[1]->WorkLocal[0]--

SUBROUTINE_059B:
204: 0x059B [0x01] GOTO 0x0410
205: 0x059E [0x1B] RETURN

SUBROUTINE_059F:
206: 0x059F [0x0B] ExtData[1]->WorkLocal[0]++

SUBROUTINE_05A2:
207: 0x05A2 [0x02] IF !(ExtData[1]->WorkLocal[0] < 1*) GOTO 0x0779
208: 0x05AA [0x03] Work_Zone[1] = 5*
209: 0x05AF [0x40] SET_BIT_WORK_RANGE(start_bit=8*, end_bit=31*, target=Work_Zone[1], source=6*)
210: 0x05B8 [0x43] SEND_EVENT_UPDATE: Send pending tag to server (packet 0x005B)
211: 0x05BA [0x43] SEND_EVENT_UPDATE: Check pending flag (skip if not pending)
212: 0x05BC [0x1A] CALL_SUBROUTINE(address=0x0349)
213: 0x05BF [0x03] ExtData[1]->WorkLocal[12] = Work_Zone[2]
214: 0x05C4 [0x41] ExtData[1]->WorkLocal[13] = ExtData[1]->WorkLocal[12] (bits 14*-14*)
215: 0x05CD [0x40] SET_BIT_WORK_RANGE(start_bit=13*, end_bit=13*, target=Work_Zone[2], source=ExtData[1]->WorkLocal[13])
216: 0x05D6 [0x41] ExtData[1]->WorkLocal[13] = ExtData[1]->WorkLocal[12] (bits 13*-13*)
217: 0x05DF [0x40] SET_BIT_WORK_RANGE(start_bit=14*, end_bit=14*, target=Work_Zone[2], source=ExtData[1]->WorkLocal[13])
218: 0x05E8 [0x24] CREATE_DIALOG(message_id=11334*, default_option=0*, option_flags=Work_Zone[2])
    → "Please select an operation. [Vanguard-X I. ([$26/$26$26/$26$26$26/$26$26$26$26/$26$26$26$26$26])/Vanguard-X II. ([$26/$26$26/$26$26$26/$26$26$26$26/$26$26$26$26$26])/Vanguard-X III. ([$26/$26$26/$26$26$26/$26$26$26$26/$26$26$26$26$26])/Vanguard-X IV. ([$26/$26$26/$26$26$26/$26$26$26$26/$26$26$26$26$26])/Top Secret Operation X. ([$26/$26$26/$26$26$26/$26$26$26$26/$26$26$26$26$26])/Top Secret Operation X. ([$26/$26$26/$26$26$26/$26$26$26$26/$26$26$26$26$26])/Top Secret Operation X. ([$26/$26$26/$26$26$26/$26$26$26$26/$26$26$26$26$26])/Top Secret Operation X. ([$26/$26$26/$26$26$26/$26$26$26$26/$26$26$26$26$26])/Top Secret Operation X. ([$26/$26$26/$26$26$26/$26$26$26$26/$26$26$26$26$26])/Top Secret Operation X. ([$26/$26$26/$26$26$26/$26$26$26$26/$26$26$26$26$26])/Crimson Domino I. ([$26/$26$26/$26$26$26/$26$26$26$26/$26$26$26$26$26])/Crimson Domino II. ([$26/$26$26/$26$26$26/$26$26$26$26/$26$26$26$26$26])/Crimson Domino III. ([$26/$26$26/$26$26$26/$26$26$26$26/$26$26$26$26$26])/Crimson Domino IV. ([$26/$26$26/$26$26$26/$26$26$26$26/$26$26$26$26$26])/Bridge Too Far I. ([$26/$26$26/$26$26$26/$26$26$26$26/$26$26$26$26$26])/Top Secret Operation X. ([$26/$26$26/$26$26$26/$26$26$26$26/$26$26$26$26$26])/Top Secret Operation X. ([$26/$26$26/$26$26$26/$26$26$26$26/$26$26$26$26$26])/Top Secret Operation X. ([$26/$26$26/$26$26$26/$26$26$26$26/$26$26$26$26$26])/Top Secret Operation X. ([$26/$26$26/$26$26$26/$26$26$26$26/$26$26$26$26$26])/Top Secret Operation X. ([$26/$26$26/$26$26$26/$26$26$26$26/$26$26$26$26$26])/Quit.]"
219: 0x05EF [0x25] WAIT_DIALOG_SELECT()
220: 0x05F0 [0x02] IF !(Work_Zone[0] == 0*) GOTO 0x060E
221: 0x05F8 [0x9D] ExtData[1]->WorkLocal[3] = 0x13B0[Work_Zone[0]] // Read WORD
222: 0x0600 [0x48] [System] [11360*]:
    → "For this operation, you'll have to escort a reinforcement soldier to his destination on the frontlines."
223: 0x0603 [0x23] WAIT_FOR_DIALOG_INTERACTION
224: 0x0604 [0x48] [System] [11371*]:
    → "And mind you, targets up on the northern front are bein' handled under a separate operation altogether. Don't go wastin' your strength where you won't be recognized for it!"
225: 0x0607 [0x23] WAIT_FOR_DIALOG_INTERACTION
226: 0x0608 [0x1A] CALL_SUBROUTINE(address=0x1252)
227: 0x060B [0x01] GOTO 0x0776
228: 0x060E [0x02] IF !(Work_Zone[0] == 1*) GOTO 0x062C
229: 0x0616 [0x9D] ExtData[1]->WorkLocal[3] = 0x13B0[Work_Zone[0]] // Read WORD
230: 0x061E [0x48] [System] [11360*]:
    → "For this operation, you'll have to escort a reinforcement soldier to his destination on the frontlines."
231: 0x0621 [0x23] WAIT_FOR_DIALOG_INTERACTION
232: 0x0622 [0x48] [System] [11371*]:
    → "And mind you, targets up on the northern front are bein' handled under a separate operation altogether. Don't go wastin' your strength where you won't be recognized for it!"
233: 0x0625 [0x23] WAIT_FOR_DIALOG_INTERACTION
234: 0x0626 [0x1A] CALL_SUBROUTINE(address=0x1252)
235: 0x0629 [0x01] GOTO 0x0776
236: 0x062C [0x02] IF !(Work_Zone[0] == 2*) GOTO 0x064A
237: 0x0634 [0x9D] ExtData[1]->WorkLocal[3] = 0x13B0[Work_Zone[0]] // Read WORD
238: 0x063C [0x48] [System] [11360*]:
    → "For this operation, you'll have to escort a reinforcement soldier to his destination on the frontlines."
239: 0x063F [0x23] WAIT_FOR_DIALOG_INTERACTION
240: 0x0640 [0x48] [System] [11371*]:
    → "And mind you, targets up on the northern front are bein' handled under a separate operation altogether. Don't go wastin' your strength where you won't be recognized for it!"
241: 0x0643 [0x23] WAIT_FOR_DIALOG_INTERACTION
242: 0x0644 [0x1A] CALL_SUBROUTINE(address=0x1252)
243: 0x0647 [0x01] GOTO 0x0776
244: 0x064A [0x02] IF !(Work_Zone[0] == 3*) GOTO 0x0668
245: 0x0652 [0x9D] ExtData[1]->WorkLocal[3] = 0x13B0[Work_Zone[0]] // Read WORD
246: 0x065A [0x48] [System] [11360*]:
    → "For this operation, you'll have to escort a reinforcement soldier to his destination on the frontlines."
247: 0x065D [0x23] WAIT_FOR_DIALOG_INTERACTION
248: 0x065E [0x48] [System] [11372*]:
    → "Only efforts in the north will count toward this operation's objectives, so make sure you're fightin' in the right place!"
249: 0x0661 [0x23] WAIT_FOR_DIALOG_INTERACTION
250: 0x0662 [0x1A] CALL_SUBROUTINE(address=0x1252)
251: 0x0665 [0x01] GOTO 0x0776
252: 0x0668 [0x02] IF !(Work_Zone[0] == 4*) GOTO 0x0673
253: 0x0670 [0x01] GOTO 0x0776
254: 0x0673 [0x02] IF !(Work_Zone[0] == 5*) GOTO 0x067E
255: 0x067B [0x01] GOTO 0x0776
256: 0x067E [0x02] IF !(Work_Zone[0] == 6*) GOTO 0x0689
257: 0x0686 [0x01] GOTO 0x0776
258: 0x0689 [0x02] IF !(Work_Zone[0] == 7*) GOTO 0x0694
259: 0x0691 [0x01] GOTO 0x0776
260: 0x0694 [0x02] IF !(Work_Zone[0] == 8*) GOTO 0x069F
261: 0x069C [0x01] GOTO 0x0776
262: 0x069F [0x02] IF !(Work_Zone[0] == 9*) GOTO 0x06AA
263: 0x06A7 [0x01] GOTO 0x0776
264: 0x06AA [0x02] IF !(Work_Zone[0] == 10*) GOTO 0x06C8
265: 0x06B2 [0x9D] ExtData[1]->WorkLocal[3] = 0x13B0[Work_Zone[0]] // Read WORD
266: 0x06BA [0x48] [System] [11361*]:
    → "For this operation, you'll have to deliver supplies to our outposts."
267: 0x06BD [0x23] WAIT_FOR_DIALOG_INTERACTION
268: 0x06BE [0x48] [System] [11371*]:
    → "And mind you, targets up on the northern front are bein' handled under a separate operation altogether. Don't go wastin' your strength where you won't be recognized for it!"
269: 0x06C1 [0x23] WAIT_FOR_DIALOG_INTERACTION
270: 0x06C2 [0x1A] CALL_SUBROUTINE(address=0x1252)
271: 0x06C5 [0x01] GOTO 0x0776
272: 0x06C8 [0x02] IF !(Work_Zone[0] == 11*) GOTO 0x06E6
273: 0x06D0 [0x9D] ExtData[1]->WorkLocal[3] = 0x13B0[Work_Zone[0]] // Read WORD
274: 0x06D8 [0x48] [System] [11361*]:
    → "For this operation, you'll have to deliver supplies to our outposts."
275: 0x06DB [0x23] WAIT_FOR_DIALOG_INTERACTION
276: 0x06DC [0x48] [System] [11371*]:
    → "And mind you, targets up on the northern front are bein' handled under a separate operation altogether. Don't go wastin' your strength where you won't be recognized for it!"
277: 0x06DF [0x23] WAIT_FOR_DIALOG_INTERACTION
278: 0x06E0 [0x1A] CALL_SUBROUTINE(address=0x1252)
279: 0x06E3 [0x01] GOTO 0x0776
280: 0x06E6 [0x02] IF !(Work_Zone[0] == 12*) GOTO 0x0704
281: 0x06EE [0x9D] ExtData[1]->WorkLocal[3] = 0x13B0[Work_Zone[0]] // Read WORD
282: 0x06F6 [0x48] [System] [11361*]:
    → "For this operation, you'll have to deliver supplies to our outposts."
283: 0x06F9 [0x23] WAIT_FOR_DIALOG_INTERACTION
284: 0x06FA [0x48] [System] [11371*]:
    → "And mind you, targets up on the northern front are bein' handled under a separate operation altogether. Don't go wastin' your strength where you won't be recognized for it!"
285: 0x06FD [0x23] WAIT_FOR_DIALOG_INTERACTION
286: 0x06FE [0x1A] CALL_SUBROUTINE(address=0x1252)
287: 0x0701 [0x01] GOTO 0x0776
288: 0x0704 [0x02] IF !(Work_Zone[0] == 13*) GOTO 0x0722
289: 0x070C [0x9D] ExtData[1]->WorkLocal[3] = 0x13B0[Work_Zone[0]] // Read WORD
290: 0x0714 [0x48] [System] [11361*]:
    → "For this operation, you'll have to deliver supplies to our outposts."
291: 0x0717 [0x23] WAIT_FOR_DIALOG_INTERACTION
292: 0x0718 [0x48] [System] [11372*]:
    → "Only efforts in the north will count toward this operation's objectives, so make sure you're fightin' in the right place!"
293: 0x071B [0x23] WAIT_FOR_DIALOG_INTERACTION
294: 0x071C [0x1A] CALL_SUBROUTINE(address=0x1252)
295: 0x071F [0x01] GOTO 0x0776
296: 0x0722 [0x02] IF !(Work_Zone[0] == 14*) GOTO 0x073C
297: 0x072A [0x9D] ExtData[1]->WorkLocal[3] = 0x13B0[Work_Zone[0]] // Read WORD
298: 0x0732 [0x48] [System] [11362*]:
    → "This operation requires that you serve your army by offering strategies to best ensure the safe transport of precious cargo."
299: 0x0735 [0x23] WAIT_FOR_DIALOG_INTERACTION
300: 0x0736 [0x1A] CALL_SUBROUTINE(address=0x1252)
301: 0x0739 [0x01] GOTO 0x0776
302: 0x073C [0x02] IF !(Work_Zone[0] == 15*) GOTO 0x0747
303: 0x0744 [0x01] GOTO 0x0776
304: 0x0747 [0x02] IF !(Work_Zone[0] == 16*) GOTO 0x0752
305: 0x074F [0x01] GOTO 0x0776
306: 0x0752 [0x02] IF !(Work_Zone[0] == 17*) GOTO 0x075D
307: 0x075A [0x01] GOTO 0x0776
308: 0x075D [0x02] IF !(Work_Zone[0] == 18*) GOTO 0x0768
309: 0x0765 [0x01] GOTO 0x0776
310: 0x0768 [0x02] IF !(Work_Zone[0] == 19*) GOTO 0x0773
311: 0x0770 [0x01] GOTO 0x0776
312: 0x0773 [0x0C] ExtData[1]->WorkLocal[0]--

SUBROUTINE_0776:
313: 0x0776 [0x01] GOTO 0x05A2
314: 0x0779 [0x1B] RETURN

SUBROUTINE_077A:
315: 0x077A [0x0B] ExtData[1]->WorkLocal[0]++

SUBROUTINE_077D:
316: 0x077D [0x02] IF !(ExtData[1]->WorkLocal[0] < 1*) GOTO 0x0972
317: 0x0785 [0x03] Work_Zone[1] = 5*
318: 0x078A [0x40] SET_BIT_WORK_RANGE(start_bit=8*, end_bit=31*, target=Work_Zone[1], source=8*)
319: 0x0793 [0x43] SEND_EVENT_UPDATE: Send pending tag to server (packet 0x005B)
320: 0x0795 [0x43] SEND_EVENT_UPDATE: Check pending flag (skip if not pending)
321: 0x0797 [0x1A] CALL_SUBROUTINE(address=0x0349)
322: 0x079A [0x24] CREATE_DIALOG(message_id=11336*, default_option=0*, option_flags=Work_Zone[2])
    → "Please select an operation. [Streetsweeper I. ([$26/$26$26/$26$26$26/$26$26$26$26/$26$26$26$26$26])/Streetsweeper II. ([$26/$26$26/$26$26$26/$26$26$26$26/$26$26$26$26$26])/Streetsweeper III. ([$26/$26$26/$26$26$26/$26$26$26$26/$26$26$26$26$26])/Top Secret Operation X. ([$26/$26$26/$26$26$26/$26$26$26$26/$26$26$26$26$26])/Top Secret Operation X. ([$26/$26$26/$26$26$26/$26$26$26$26/$26$26$26$26$26])/Delta Strike I. ([$26/$26$26/$26$26$26/$26$26$26$26/$26$26$26$26$26])/Delta Strike II. ([$26/$26$26/$26$26$26/$26$26$26$26/$26$26$26$26$26])/Delta Strike III. ([$26/$26$26/$26$26$26/$26$26$26$26/$26$26$26$26$26])/Top Secret Operation X. ([$26/$26$26/$26$26$26/$26$26$26$26/$26$26$26$26$26])/Top Secret Operation X. ([$26/$26$26/$26$26$26/$26$26$26$26/$26$26$26$26$26])/Steel Resolve I. ([$26/$26$26/$26$26$26/$26$26$26$26/$26$26$26$26$26])/Steel Resolve II. ([$26/$26$26/$26$26$26/$26$26$26$26/$26$26$26$26$26])/Steel Resolve III. ([$26/$26$26/$26$26$26/$26$26$26$26/$26$26$26$26$26])/Steel Resolve IV. ([$26/$26$26/$26$26$26/$26$26$26$26/$26$26$26$26$26])/Top Secret Operation X. ([$26/$26$26/$26$26$26/$26$26$26$26/$26$26$26$26$26])/Magna Cache I. ([$26/$26$26/$26$26$26/$26$26$26$26/$26$26$26$26$26])/Magna Cache II. ([$26/$26$26/$26$26$26/$26$26$26$26/$26$26$26$26$26])/Magna Cache III. ([$26/$26$26/$26$26$26/$26$26$26$26/$26$26$26$26$26])/Hazardous Materials. ([$26/$26$26/$26$26$26/$26$26$26$26/$26$26$26$26$26])/Top Secret Operation X. ([$26/$26$26/$26$26$26/$26$26$26$26/$26$26$26$26$26])/Quit.]"
323: 0x07A1 [0x25] WAIT_DIALOG_SELECT()
324: 0x07A2 [0x02] IF !(Work_Zone[0] == 0*) GOTO 0x07BC
325: 0x07AA [0x9D] ExtData[1]->WorkLocal[3] = 0x1410[Work_Zone[0]] // Read WORD
326: 0x07B2 [0x48] [System] [11363*]:
    → "For this operation, you'll have to locate and remove any suspicious objects lyin' round the capital."
327: 0x07B5 [0x23] WAIT_FOR_DIALOG_INTERACTION
328: 0x07B6 [0x1A] CALL_SUBROUTINE(address=0x1252)
329: 0x07B9 [0x01] GOTO 0x096F
330: 0x07BC [0x02] IF !(Work_Zone[0] == 1*) GOTO 0x07D6
331: 0x07C4 [0x9D] ExtData[1]->WorkLocal[3] = 0x1410[Work_Zone[0]] // Read WORD
332: 0x07CC [0x48] [System] [11363*]:
    → "For this operation, you'll have to locate and remove any suspicious objects lyin' round the capital."
333: 0x07CF [0x23] WAIT_FOR_DIALOG_INTERACTION
334: 0x07D0 [0x1A] CALL_SUBROUTINE(address=0x1252)
335: 0x07D3 [0x01] GOTO 0x096F
336: 0x07D6 [0x02] IF !(Work_Zone[0] == 2*) GOTO 0x07F0
337: 0x07DE [0x9D] ExtData[1]->WorkLocal[3] = 0x1410[Work_Zone[0]] // Read WORD
338: 0x07E6 [0x48] [System] [11363*]:
    → "For this operation, you'll have to locate and remove any suspicious objects lyin' round the capital."
339: 0x07E9 [0x23] WAIT_FOR_DIALOG_INTERACTION
340: 0x07EA [0x1A] CALL_SUBROUTINE(address=0x1252)
341: 0x07ED [0x01] GOTO 0x096F
342: 0x07F0 [0x02] IF !(Work_Zone[0] == 3*) GOTO 0x07FB
343: 0x07F8 [0x01] GOTO 0x096F
344: 0x07FB [0x02] IF !(Work_Zone[0] == 4*) GOTO 0x0806
345: 0x0803 [0x01] GOTO 0x096F
346: 0x0806 [0x02] IF !(Work_Zone[0] == 5*) GOTO 0x0820
347: 0x080E [0x9D] ExtData[1]->WorkLocal[3] = 0x1410[Work_Zone[0]] // Read WORD
348: 0x0816 [0x48] [System] [11364*]:
    → "For this operation, you'll have to patrol Republic territory and wipe out any threats to our nation's citizens."
349: 0x0819 [0x23] WAIT_FOR_DIALOG_INTERACTION
350: 0x081A [0x1A] CALL_SUBROUTINE(address=0x1252)
351: 0x081D [0x01] GOTO 0x096F
352: 0x0820 [0x02] IF !(Work_Zone[0] == 6*) GOTO 0x083A
353: 0x0828 [0x9D] ExtData[1]->WorkLocal[3] = 0x1410[Work_Zone[0]] // Read WORD
354: 0x0830 [0x48] [System] [11364*]:
    → "For this operation, you'll have to patrol Republic territory and wipe out any threats to our nation's citizens."
355: 0x0833 [0x23] WAIT_FOR_DIALOG_INTERACTION
356: 0x0834 [0x1A] CALL_SUBROUTINE(address=0x1252)
357: 0x0837 [0x01] GOTO 0x096F
358: 0x083A [0x02] IF !(Work_Zone[0] == 7*) GOTO 0x0854
359: 0x0842 [0x9D] ExtData[1]->WorkLocal[3] = 0x1410[Work_Zone[0]] // Read WORD
360: 0x084A [0x48] [System] [11364*]:
    → "For this operation, you'll have to patrol Republic territory and wipe out any threats to our nation's citizens."
361: 0x084D [0x23] WAIT_FOR_DIALOG_INTERACTION
362: 0x084E [0x1A] CALL_SUBROUTINE(address=0x1252)
363: 0x0851 [0x01] GOTO 0x096F
364: 0x0854 [0x02] IF !(Work_Zone[0] == 8*) GOTO 0x085F
365: 0x085C [0x01] GOTO 0x096F
366: 0x085F [0x02] IF !(Work_Zone[0] == 9*) GOTO 0x086A
367: 0x0867 [0x01] GOTO 0x096F
368: 0x086A [0x02] IF !(Work_Zone[0] == 10*) GOTO 0x0888
369: 0x0872 [0x9D] ExtData[1]->WorkLocal[3] = 0x1410[Work_Zone[0]] // Read WORD
370: 0x087A [0x48] [System] [11365*]:
    → "This operation requires that you take part in the fortification of one of your nation's strongholds."
371: 0x087D [0x23] WAIT_FOR_DIALOG_INTERACTION
372: 0x087E [0x48] [System] [11371*]:
    → "And mind you, targets up on the northern front are bein' handled under a separate operation altogether. Don't go wastin' your strength where you won't be recognized for it!"
373: 0x0881 [0x23] WAIT_FOR_DIALOG_INTERACTION
374: 0x0882 [0x1A] CALL_SUBROUTINE(address=0x1252)
375: 0x0885 [0x01] GOTO 0x096F
