# 17134085 - Isabella

## Common Data

| Field            | Value                       |
|------------------|-----------------------------|
| Zone             | Bastok Markets [S] (ID: 87) |
| Block Size       | 4336 bytes                  |
| Total Events     | 9                           |
| References Count | 96                          |

## List of Events

| Event ID                 | Entrypoint   |   Size |   Instructions |
|--------------------------|--------------|--------|----------------|
| [65535](#event-65535)    | 0x0000       |      1 |              1 |
| [300](#event-300)        | 0x0001       |   2042 |            526 |
| [301](#event-301)        | 0x07FB       |     15 |              7 |
| [302](#event-302)        | 0x080A       |   1812 |            365 |
| [139](#event-139)        | 0x0F1E       |      7 |              2 |
| [143](#event-143)        | 0x0F25       |      7 |              2 |
| [359](#event-359)        | 0x0F2C       |      1 |              1 |
| [360](#event-360)        | 0x0F2D       |      1 |              1 |
| [65535.1](#event-655351) | 0x0F2E       |     13 |              3 |

## DAT References (imed_data)

|   Index | Hex Value   |   Dec Value |
|---------|-------------|-------------|
|       0 | 0x2CA3      |       11427 |
|       1 | 0x2CA4      |       11428 |
|       2 | 0x0000      |           0 |
|       3 | 0x0004      |           4 |
|       4 | 0x2CA5      |       11429 |
|       5 | 0x2CA6      |       11430 |
|       6 | 0x2CA7      |       11431 |
|       7 | 0x2CA8      |       11432 |
|       8 | 0x2CA9      |       11433 |
|       9 | 0x2CAA      |       11434 |
|      10 | 0x0001      |           1 |
|      11 | 0x0002      |           2 |
|      12 | 0x0003      |           3 |
|      13 | 0x2CAC      |       11436 |
|      14 | 0x2CAB      |       11435 |
|      15 | 0x2CAF      |       11439 |
|      16 | 0x2CB0      |       11440 |
|      17 | 0xFFFFFFFF  |  4294967295 |
|      18 | 0x2CB1      |       11441 |
|      19 | 0x2CB2      |       11442 |
|      20 | 0x2CB3      |       11443 |
|      21 | 0x2CBC      |       11452 |
|      22 | 0x2CBD      |       11453 |
|      23 | 0x001F      |          31 |
|      24 | 0x2CB4      |       11444 |
|      25 | 0x2CB5      |       11445 |
|      26 | 0x2CB6      |       11446 |
|      27 | 0x2CB7      |       11447 |
|      28 | 0x0005      |           5 |
|      29 | 0x2CB8      |       11448 |
|      30 | 0x2CBE      |       11454 |
|      31 | 0x2CBF      |       11455 |
|      32 | 0x2CC0      |       11456 |
|      33 | 0x2CC1      |       11457 |
|      34 | 0x2CC2      |       11458 |
|      35 | 0x0020      |          32 |
|      36 | 0x2CC3      |       11459 |
|      37 | 0x2CCB      |       11467 |
|      38 | 0x2CC4      |       11460 |
|      39 | 0x2CC5      |       11461 |
|      40 | 0x2CC6      |       11462 |
|      41 | 0x2CC7      |       11463 |
|      42 | 0x0006      |           6 |
|      43 | 0x2CC9      |       11465 |
|      44 | 0x0007      |           7 |
|      45 | 0x2CCA      |       11466 |
|      46 | 0x2CCC      |       11468 |
|      47 | 0x2CCD      |       11469 |
|      48 | 0x2CCE      |       11470 |
|      49 | 0x2CCF      |       11471 |
|      50 | 0x2CD0      |       11472 |
|      51 | 0x2CD1      |       11473 |
|      52 | 0x2CD9      |       11481 |
|      53 | 0x2CD2      |       11474 |
|      54 | 0x2CD3      |       11475 |
|      55 | 0x2CD4      |       11476 |
|      56 | 0x2CD5      |       11477 |
|      57 | 0x2CD6      |       11478 |
|      58 | 0x2CD7      |       11479 |
|      59 | 0x2CD8      |       11480 |
|      60 | 0x2CDA      |       11482 |
|      61 | 0x2CDB      |       11483 |
|      62 | 0x2CAD      |       11437 |
|      63 | 0x2CAE      |       11438 |
|      64 | 0x2CDD      |       11485 |
|      65 | 0x0009      |           9 |
|      66 | 0x0008      |           8 |
|      67 | 0x000B      |          11 |
|      68 | 0x000C      |          12 |
|      69 | 0x000F      |          15 |
|      70 | 0x0010      |          16 |
|      71 | 0x0013      |          19 |
|      72 | 0x0014      |          20 |
|      73 | 0x0017      |          23 |
|      74 | 0x0018      |          24 |
|      75 | 0x001B      |          27 |
|      76 | 0x001C      |          28 |
|      77 | 0x2CE1      |       11489 |
|      78 | 0x000A      |          10 |
|      79 | 0x000D      |          13 |
|      80 | 0x000E      |          14 |
|      81 | 0x0011      |          17 |
|      82 | 0x0012      |          18 |
|      83 | 0x2CE2      |       11490 |
|      84 | 0x2CE3      |       11491 |
|      85 | 0x2CE6      |       11494 |
|      86 | 0x2CDE      |       11486 |
|      87 | 0x2CDF      |       11487 |
|      88 | 0x2CE0      |       11488 |
|      89 | 0x2CE4      |       11492 |
|      90 | 0x2CE5      |       11493 |
|      91 | 0x0015      |          21 |
|      92 | 0x0016      |          22 |
|      93 | 0x0019      |          25 |
|      94 | 0x001A      |          26 |
|      95 | 0x0102      |         258 |

## String References

- **11427**: Greetings. I serve as supply commander for the Fourth Division's Seventh Cohors.
- **11428**: One of my many duties is to ensure stability among our ranks by gathering opinions and suggestions and relaying them to the proper authorities.
- **11429**: Perhaps you have a comment I can pass on to the praefectus.
- **11430**: My concerns extend to... [Privacy issues./Our commanders./Our battle strategies./Our internal policies./Nothing.]
- **11431**: You need not worry, <Player>. As per Bastokan law, I am required to maintain the confidentiality of your identity.
- **11432**: Only your opinion will be reported to the praefectus.
- **11433**: While all opinions will be considered by our leaders, this does not necessarily guarantee that your suggestions will be reflected in our nation's strategies.
- **11434**: The Bastokan Republic takes pride in the democracy established by our forefathers, and any new direction must first be approved by the majority.
- **11435**: Understood. Your opinion has been noted and will be delivered to the praefectus shortly. Thank you, soldier.
- **11436**: Understood. If you ever have a suggestion, I will be here waiting. Good day, soldier.
- **11437**: 600 loaves of iron bread...check. 15,000 copper bullets...check. Ah--
- **11438**: I am sorry, soldier, but my hands are tied at the moment. Could you return at a later date?
- **11439**: Ah, so you wish to comment on our leaders.
- **11440**: Very well. Praefectus Zazarg is eager to learn how his soldiers view the actions of the Republic's commanders.
- **11441**: Would you mind telling me in who you place the most trust?
- **11442**: Who do you believe the most competent? [1st Div. Legatus Berger./2nd Div. Legatus Eichberg./3rd Div. Legatus Invincible Shield./Republic Chief of Staff Sturm./Iron Musketeer Commander Krueger./Gold Musketeer Commander Gogol./Quit.]
- **11443**: Maximilian Berger--since the Republic's numbing defeat at the Battle of Grauberg, the First Division legatus has been vocal in promoting aggressive battlefield tactics.
- **11444**: Ludwig Eichberg--a cautious leader who specializes in extended campaigns, the legatus is known for his fervor in the areas of stronghold defense and fortification.
- **11445**: Invincible Shield--an extremely versatile leader, the Galkan legatus has become a living legend for his numerous victories on land and sea.
- **11446**: Adelheid Sturm--a shrewd strategist, the Operations Division's chief of staff is well versed in the teachings of Schultz martial theory and employs efficient tactics when gathering intelligence on the enemy.
- **11447**: Bartholomaus Krueger--not known to blindly rush his troops into battle, the legatus believes our nation should first focus on strengthening its forces before engaging the enemy.
- **11448**: Elivira Gogol--a strong proponent of preemptive blitzkrieg tactics, the Gold Musketeer commander is known for her aggressiveness on the battlefield.
- **11452**: Well...? [Absolutely./I need more time to think.]
- **11453**: Alright.
- **11454**: Wait... I seem to recall recently recording your opinion on our commanders.
- **11455**: I believe you said our nation should heed the strategies of [First Division Legatus Berger/Second Division Legatus Eichberg/Third Division Legatus Invincible Shield/Republic Chief of Staff Sturm/Iron Musketeer Commander Krueger/Gold Musketeer Commander Gogol].
- **11456**: Ah, so you wish to comment on our current battle strategies.
- **11457**: What tactics do you believe our leaders should employ?
- **11458**: Our current situation requires... [A preemptive strike./Diversionary tactics./Battleline preservation./Stronghold defenses./Troop conditioning./Troop training./Reconnaissance./Sabotage./Nothing.]
- **11459**: Quite an aggressive tactic... On the other hand, a preemptive strike can be the quickest way to bring new regions under Bastokan control, even if it results in heavier losses.
- **11460**: Deploying a small unit of elite forces to distract the enemy while another cuts off vital supply lines... Excellent thinking!
- **11461**: Reinforce defenses in order to maintain battlelines, thus gradually draining the enemy of its influence... A wise decision.
- **11462**: Reinforce stronghold defenses in order to prevent enemy ambushes and stabilize supply routes. Sound thinking, <Player>.
- **11463**: Back to basics... So simple, it might be just what our forces need.
- **11465**: Ah, a fine tactic... The more intelligence we have on the hordes, the more successful we are in our future campaigns.
- **11466**: A dangerous tactic... However, if a special unit is able to infiltrate our enemies' strongholds undetected and succeed in sabotaging their lifelines, the tides of battle would most definitely turn in our favor.
- **11467**: Is this what you recommend? [Absolutely!/On second thought...]
- **11468**: I have already delivered to the praefectus your most recent opinion regarding our battle strategies.
- **11469**: I believe you suggested [a preemptive strike/diversionary tactics/battleline preservation/stronghold fortification/troop conditioning/troop training/reconnaissance/sabotage].
- **11470**: Ah, so you wish to offer a comment regarding the Republic's internal policies.
- **11471**: What exactly do you suggest?
- **11472**: Bastok should focus on... [Resource procurement./Military supply procurement./Logistics./Stronghold outfitting./Weapons production./Weapons development./Public security./Stronghold fortification./I require more time to consider.]
- **11473**: Interesting... Preparation for an extended campaign through the acquisition of large quantities of resources...
- **11474**: An army cannot be successful without first obtaining sufficient quantities of supplies. You take after my own heart, soldier.
- **11475**: Supplies are worthless if they do not arrive to their intended destination safely, and in times of war, supply line ambushes are frequent. By fortifying the routes, we can ensure prompt delivery and in turn increase our nation's defenses.
- **11476**: Stabilization of supply flows to our strongholds will help in improving our basic defenses.
- **11477**: Improved management of the Republic's guilds will ensure our soldiers aren't underequipped on the battlefield.
- **11478**: Spoken like a true Bastoker. The Republic was built on ingenuity, and with improved weapons developed by those great minds in the Metalworks, our forces will cause even more havoc on the battlefield.
- **11479**: A nation is only as strong as her people. The safety of the citizens should always come first.
- **11480**: Ah, strong walls to fend off an enemy siege. A sound suggestion, soldier.
- **11481**: Shall I record your opinion? [Yes./No.]
- **11482**: I seem to recall recently delivering your opinion to the praefectus.
- **11483**: I believe you suggested [the procurement of resources/the procurement of additional military supplies/improving logistics/better outfitting our strongholds/increased weapons production/advanced weapons development/improving public security/additional stronghold fortifications].
- **11485**: Choose! [Reset answers./Suggestion data./Vote data./Quit.]
- **11486**: Answers RESET!
- **11487**: Randomize? [Yes./No.]
- **11488**: Randomization complete.
- **11489**: Select area to change: [Randomize./Clear results./$26Battle Strategies$26/@Preemptive strike: $0/@Battleline preservation: $1/@Diversionary tactics: $2/@Stronghold reinforcement: $3/@Reconnaissance: $4/@Sabotage: $5/@Troop conditioning: $6/@Troop training: $7/$26Internal Strategies$26/@Resource procurement: $8/@Military supplies: $9/@Logistics: $10/@Stronghold outfitting: $11/@Public security: $12/@Fortification: $13/@Weapons production: $14/@Weapons development: $15/$26Generals$26/General A: $16/General B: $17/General C: $18/General D: $19/General E: $20/General F: $21/Quit.]
- **11490**: Select Value: [0 (Low)/1""/4/5/6/7/8/9/10 (High)/Quit.]
- **11491**: [Preemptive strike/Battleline preservation/Diversionary tactics/Stronghold reinforcement/Reconnaissance/Sabotage/Troop conditioning/Troop training/Resource procurement/Military supplies/Logistics/Stronghold outfitting/Public security/Stronghold fortification/Weapons production/Weapons development/General A/General B/General C/General D/General E/General F] set to $1.
- **11492**: Are you sure? [Yeah./No.]
- **11493**: All cleared!
- **11494**: Error! ($0j

## Events

### Event 65535

#### Metadata

| Field        | Value   |
|--------------|---------|
| Entrypoint   | 0x0000  |
| Data Size    | 1 bytes |
| Instructions | 1       |

```
      00 01 02 03 04 05 06 07  08 09 0A 0B 0C 0D 0E 0F
      -- -- -- -- -- -- -- --  -- -- -- -- -- -- -- --
0000: 00                                                .               
```

#### Opcodes

```
  0: 0x0000 [0x00] END_REQSTACK()
```

### Event 300

#### Metadata

| Field        | Value      |
|--------------|------------|
| Entrypoint   | 0x0001     |
| Data Size    | 2042 bytes |
| Instructions | 526        |

```
      00 01 02 03 04 05 06 07  08 09 0A 0B 0C 0D 0E 0F
      -- -- -- -- -- -- -- --  -- -- -- -- -- -- -- --
0000:    03 03 00 02 10 03 04  00 03 10 03 05 00 04 10   ...............
0010: 03 06 00 05 10 1E F0 FF  FF 7F 1D 00 80 23 1D 01  .............#..
0020: 80 23 06 02 10 06 02 00  03 00 00 02 80 02 00 00  .#..............
0030: 02 80 04 E8 00 03 01 10  03 80 43 00 43 01 03 03  ..........C.C...
0040: 00 02 10 03 04 00 03 10  03 05 00 04 10 03 06 00  ................
0050: 05 10 1D 04 80 23 24 05  80 02 80 02 80 25 02 00  .....#$......%..
0060: 10 02 80 00 79 00 1D 06  80 23 1D 07 80 23 1D 08  ....y....#...#..
0070: 80 23 1D 09 80 23 01 E0  00 02 00 10 0A 80 00 94  .#...#..........
0080: 00 3E 03 00 02 80 8E 00  1A E9 02 01 91 00 1A EA  .>..............
0090: 00 01 E0 00 02 00 10 0B  80 00 AF 00 3E 03 00 0A  ............>...
00A0: 80 A9 00 1A 4A 05 01 AC  00 1A F7 02 01 E0 00 02  ....J...........
00B0: 00 10 0C 80 00 CA 00 3E  03 00 0B 80 C4 00 1A ED  .......>........
00C0: 07 01 C7 00 1A 58 05 01  E0 00 02 02 00 02 80 00  .....X..........
00D0: D9 00 1D 0D 80 23 01 DD  00 1D 0E 80 23 0C 00 00  .....#......#...
00E0: 03 02 10 0A 80 01 2D 00  21 00 1D 0F 80 23 1D 10  ......-.!....#..
00F0: 80 23 0B 00 00 03 01 00  11 80 02 00 00 0A 80 04  .#..............
0100: E8 02 2E 1D 12 80 23 24  13 80 02 80 02 80 25 02  ......#$......%.
0110: 00 10 02 80 00 5C 01 1D  14 80 23 24 15 80 0A 80  .....\....#$....
0120: 02 80 25 02 00 10 02 80  00 59 01 42 03 01 00 02  ..%......Y.B....
0130: 80 1D 16 80 23 3C 02 00  02 80 0A 80 0C 00 00 03  ....#<..........
0140: 01 10 0A 80 40 03 80 17  80 01 10 01 00 43 00 43  ....@........C.C
0150: 01 03 03 00 02 10 01 59  01 01 E5 02 02 00 10 0A  .......Y........
0160: 80 00 A9 01 1D 18 80 23  24 15 80 0A 80 02 80 25  .......#$......%
0170: 02 00 10 02 80 00 A6 01  42 03 01 00 0A 80 1D 16  ........B.......
0180: 80 23 3C 02 00 02 80 0A  80 0C 00 00 03 01 10 0A  .#<.............
0190: 80 40 03 80 17 80 01 10  01 00 43 00 43 01 03 03  .@........C.C...
01A0: 00 02 10 01 A6 01 01 E5  02 02 00 10 0B 80 00 F6  ................
01B0: 01 1D 19 80 23 24 15 80  0A 80 02 80 25 02 00 10  ....#$......%...
01C0: 02 80 00 F3 01 42 03 01  00 0B 80 1D 16 80 23 3C  .....B........#<
01D0: 02 00 02 80 0A 80 0C 00  00 03 01 10 0A 80 40 03  ..............@.
01E0: 80 17 80 01 10 01 00 43  00 43 01 03 03 00 02 10  .......C.C......
01F0: 01 F3 01 01 E5 02 02 00  10 0C 80 00 43 02 1D 1A  ............C...
0200: 80 23 24 15 80 0A 80 02  80 25 02 00 10 02 80 00  .#$......%......
0210: 40 02 42 03 01 00 0C 80  1D 16 80 23 3C 02 00 02  @.B........#<...
0220: 80 0A 80 0C 00 00 03 01  10 0A 80 40 03 80 17 80  ...........@....
0230: 01 10 01 00 43 00 43 01  03 03 00 02 10 01 40 02  ....C.C.......@.
0240: 01 E5 02 02 00 10 03 80  00 90 02 1D 1B 80 23 24  ..............#$
0250: 15 80 0A 80 02 80 25 02  00 10 02 80 00 8D 02 42  ......%........B
0260: 03 01 00 03 80 1D 16 80  23 3C 02 00 02 80 0A 80  ........#<......
0270: 0C 00 00 03 01 10 0A 80  40 03 80 17 80 01 10 01  ........@.......
0280: 00 43 00 43 01 03 03 00  02 10 01 8D 02 01 E5 02  .C.C............
0290: 02 00 10 1C 80 00 DD 02  1D 1D 80 23 24 15 80 0A  ...........#$...
02A0: 80 02 80 25 02 00 10 02  80 00 DA 02 42 03 01 00  ...%........B...
02B0: 1C 80 1D 16 80 23 3C 02  00 02 80 0A 80 0C 00 00  .....#<.........
02C0: 03 01 10 0A 80 40 03 80  17 80 01 10 01 00 43 00  .....@........C.
02D0: 43 01 03 03 00 02 10 01  DA 02 01 E5 02 03 01 00  C...............
02E0: 11 80 0C 00 00 01 FA 00  1B 1D 1E 80 23 03 03 10  ............#...
02F0: 04 00 1D 1F 80 23 1B 1D  20 80 23 0B 00 00 03 01  .....#.. .#.....
0300: 00 11 80 02 00 00 0A 80  04 49 05 2E 1D 21 80 23  .........I...!.#
0310: 24 22 80 02 80 23 80 25  02 00 10 02 80 00 65 03  $"...#.%......e.
0320: 1D 24 80 23 24 25 80 0A  80 02 80 25 02 00 10 02  .$.#$%.....%....
0330: 80 00 62 03 42 03 01 00  02 80 1D 16 80 23 3C 02  ..b.B........#<.
0340: 00 02 80 0A 80 0C 00 00  03 01 10 0B 80 40 03 80  .............@..
0350: 17 80 01 10 01 00 43 00  43 01 03 03 00 02 10 01  ......C.C.......
0360: 62 03 01 46 05 02 00 10  0A 80 00 B2 03 1D 26 80  b..F..........&.
0370: 23 24 25 80 0A 80 02 80  25 02 00 10 02 80 00 AF  #$%.....%.......
0380: 03 42 03 01 00 0A 80 1D  16 80 23 3C 02 00 02 80  .B........#<....
0390: 0A 80 0C 00 00 03 01 10  0B 80 40 03 80 17 80 01  ..........@.....
03A0: 10 01 00 43 00 43 01 03  03 00 02 10 01 AF 03 01  ...C.C..........
03B0: 46 05 02 00 10 0B 80 00  FF 03 1D 27 80 23 24 25  F..........'.#$%
03C0: 80 0A 80 02 80 25 02 00  10 02 80 00 FC 03 42 03  .....%........B.
03D0: 01 00 0B 80 1D 16 80 23  3C 02 00 02 80 0A 80 0C  .......#<.......
03E0: 00 00 03 01 10 0B 80 40  03 80 17 80 01 10 01 00  .......@........
03F0: 43 00 43 01 03 03 00 02  10 01 FC 03 01 46 05 02  C.C..........F..
0400: 00 10 0C 80 00 4C 04 1D  28 80 23 24 25 80 0A 80  .....L..(.#$%...
0410: 02 80 25 02 00 10 02 80  00 49 04 42 03 01 00 0C  ..%......I.B....
0420: 80 1D 16 80 23 3C 02 00  02 80 0A 80 0C 00 00 03  ....#<..........
0430: 01 10 0B 80 40 03 80 17  80 01 10 01 00 43 00 43  ....@........C.C
0440: 01 03 03 00 02 10 01 49  04 01 46 05 02 00 10 03  .......I..F.....
0450: 80 00 99 04 1D 29 80 23  24 25 80 0A 80 02 80 25  .....).#$%.....%
0460: 02 00 10 02 80 00 96 04  42 03 01 00 03 80 1D 16  ........B.......
0470: 80 23 3C 02 00 02 80 0A  80 0C 00 00 03 01 10 0B  .#<.............
0480: 80 40 03 80 17 80 01 10  01 00 43 00 43 01 03 03  .@........C.C...
0490: 00 02 10 01 96 04 01 46  05 02 00 10 1C 80 00 A4  .......F........
04A0: 04 01 46 05 02 00 10 2A  80 00 F1 04 1D 2B 80 23  ..F....*.....+.#
04B0: 24 25 80 0A 80 02 80 25  02 00 10 02 80 00 EE 04  $%.....%........
04C0: 42 03 01 00 2A 80 1D 16  80 23 3C 02 00 02 80 0A  B...*....#<.....
04D0: 80 0C 00 00 03 01 10 0B  80 40 03 80 17 80 01 10  .........@......
04E0: 01 00 43 00 43 01 03 03  00 02 10 01 EE 04 01 46  ..C.C..........F
04F0: 05 02 00 10 2C 80 00 3E  05 1D 2D 80 23 24 25 80  ....,..>..-.#$%.
0500: 0A 80 02 80 25 02 00 10  02 80 00 3B 05 42 03 01  ....%......;.B..
0510: 00 2C 80 1D 16 80 23 3C  02 00 02 80 0A 80 0C 00  .,....#<........
0520: 00 03 01 10 0B 80 40 03  80 17 80 01 10 01 00 43  ......@........C
0530: 00 43 01 03 03 00 02 10  01 3B 05 01 46 05 03 01  .C.......;..F...
0540: 00 11 80 0C 00 00 01 03  03 1B 03 03 10 05 00 1D  ................
0550: 2E 80 23 1D 2F 80 23 1B  1D 30 80 23 0B 00 00 03  ..#./.#..0.#....
0560: 01 00 11 80 02 00 00 0A  80 04 EC 07 2E 1D 31 80  ..............1.
0570: 23 24 32 80 02 80 02 80  25 02 00 10 02 80 00 C6  #$2.....%.......
0580: 05 1D 33 80 23 24 34 80  0A 80 02 80 25 02 00 10  ..3.#$4.....%...
0590: 02 80 00 C3 05 42 03 01  00 02 80 1D 16 80 23 3C  .....B........#<
05A0: 02 00 02 80 0A 80 0C 00  00 03 01 10 0C 80 40 03  ..............@.
05B0: 80 17 80 01 10 01 00 43  00 43 01 03 03 00 02 10  .......C.C......
05C0: 01 C3 05 01 E9 07 02 00  10 0A 80 00 13 06 1D 35  ...............5
05D0: 80 23 24 34 80 0A 80 02  80 25 02 00 10 02 80 00  .#$4.....%......
05E0: 10 06 42 03 01 00 0A 80  1D 16 80 23 3C 02 00 02  ..B........#<...
05F0: 80 0A 80 0C 00 00 03 01  10 0C 80 40 03 80 17 80  ...........@....
0600: 01 10 01 00 43 00 43 01  03 03 00 02 10 01 10 06  ....C.C.........
0610: 01 E9 07 02 00 10 0B 80  00 60 06 1D 36 80 23 24  .........`..6.#$
0620: 34 80 0A 80 02 80 25 02  00 10 02 80 00 5D 06 42  4.....%......].B
0630: 03 01 00 0B 80 1D 16 80  23 3C 02 00 02 80 0A 80  ........#<......
0640: 0C 00 00 03 01 10 0C 80  40 03 80 17 80 01 10 01  ........@.......
0650: 00 43 00 43 01 03 03 00  02 10 01 5D 06 01 E9 07  .C.C.......]....
0660: 02 00 10 0C 80 00 AD 06  1D 37 80 23 24 34 80 0A  .........7.#$4..
0670: 80 02 80 25 02 00 10 02  80 00 AA 06 42 03 01 00  ...%........B...
0680: 0C 80 1D 16 80 23 3C 02  00 02 80 0A 80 0C 00 00  .....#<.........
0690: 03 01 10 0C 80 40 03 80  17 80 01 10 01 00 43 00  .....@........C.
06A0: 43 01 03 03 00 02 10 01  AA 06 01 E9 07 02 00 10  C...............
06B0: 03 80 00 FA 06 1D 38 80  23 24 34 80 0A 80 02 80  ......8.#$4.....
06C0: 25 02 00 10 02 80 00 F7  06 42 03 01 00 03 80 1D  %........B......
06D0: 16 80 23 3C 02 00 02 80  0A 80 0C 00 00 03 01 10  ..#<............
06E0: 0C 80 40 03 80 17 80 01  10 01 00 43 00 43 01 03  ..@........C.C..
06F0: 03 00 02 10 01 F7 06 01  E9 07 02 00 10 1C 80 00  ................
0700: 47 07 1D 39 80 23 24 34  80 0A 80 02 80 25 02 00  G..9.#$4.....%..
0710: 10 02 80 00 44 07 42 03  01 00 1C 80 1D 16 80 23  ....D.B........#
0720: 3C 02 00 02 80 0A 80 0C  00 00 03 01 10 0C 80 40  <..............@
0730: 03 80 17 80 01 10 01 00  43 00 43 01 03 03 00 02  ........C.C.....
0740: 10 01 44 07 01 E9 07 02  00 10 2A 80 00 94 07 1D  ..D.......*.....
0750: 3A 80 23 24 34 80 0A 80  02 80 25 02 00 10 02 80  :.#$4.....%.....
0760: 00 91 07 42 03 01 00 2A  80 1D 16 80 23 3C 02 00  ...B...*....#<..
0770: 02 80 0A 80 0C 00 00 03  01 10 0C 80 40 03 80 17  ............@...
0780: 80 01 10 01 00 43 00 43  01 03 03 00 02 10 01 91  .....C.C........
0790: 07 01 E9 07 02 00 10 2C  80 00 E1 07 1D 3B 80 23  .......,.....;.#
07A0: 24 34 80 0A 80 02 80 25  02 00 10 02 80 00 DE 07  $4.....%........
07B0: 42 03 01 00 2C 80 1D 16  80 23 3C 02 00 02 80 0A  B...,....#<.....
07C0: 80 0C 00 00 03 01 10 0C  80 40 03 80 17 80 01 10  .........@......
07D0: 01 00 43 00 43 01 03 03  00 02 10 01 DE 07 01 E9  ..C.C...........
07E0: 07 03 01 00 11 80 0C 00  00 01 64 05 1B 03 03 10  ..........d.....
07F0: 06 00 1D 3C 80 23 1D 3D  80 23 1B                 ...<.#.=.#.     
```

#### Opcodes

```
  0: 0x0001 [0x03] ExtData[1]->WorkLocal[3] = Work_Zone[2]
  1: 0x0006 [0x03] ExtData[1]->WorkLocal[4] = Work_Zone[3]
  2: 0x000B [0x03] ExtData[1]->WorkLocal[5] = Work_Zone[4]
  3: 0x0010 [0x03] ExtData[1]->WorkLocal[6] = Work_Zone[5]
  4: 0x0015 [0x1E] EventEntity looks at LocalPlayer and starts talking
  5: 0x001A [0x1D] PRINT_EVENT_MESSAGE(message_id=11427*)
    → "Greetings. I serve as supply commander for the Fourth Division's Seventh Cohors."
  6: 0x001D [0x23] WAIT_FOR_DIALOG_INTERACTION
  7: 0x001E [0x1D] PRINT_EVENT_MESSAGE(message_id=11428*)
    → "One of my many duties is to ensure stability among our ranks by gathering opinions and suggestions and relaying them to the proper authorities."
  8: 0x0021 [0x23] WAIT_FOR_DIALOG_INTERACTION
  9: 0x0022 [0x06] Work_Zone[2] = 0
 10: 0x0025 [0x06] ExtData[1]->WorkLocal[2] = 0
 11: 0x0028 [0x03] ExtData[1]->WorkLocal[0] = 0*
 12: 0x002D [0x02] IF !(ExtData[1]->WorkLocal[0] < 0*) GOTO 0x00E8
 13: 0x0035 [0x03] Work_Zone[1] = 4*
 14: 0x003A [0x43] SEND_EVENT_UPDATE: Send pending tag to server (packet 0x005B)
 15: 0x003C [0x43] SEND_EVENT_UPDATE: Check pending flag (skip if not pending)
 16: 0x003E [0x03] ExtData[1]->WorkLocal[3] = Work_Zone[2]
 17: 0x0043 [0x03] ExtData[1]->WorkLocal[4] = Work_Zone[3]
 18: 0x0048 [0x03] ExtData[1]->WorkLocal[5] = Work_Zone[4]
 19: 0x004D [0x03] ExtData[1]->WorkLocal[6] = Work_Zone[5]
 20: 0x0052 [0x1D] PRINT_EVENT_MESSAGE(message_id=11429*)
    → "Perhaps you have a comment I can pass on to the praefectus."
 21: 0x0055 [0x23] WAIT_FOR_DIALOG_INTERACTION
 22: 0x0056 [0x24] CREATE_DIALOG(message_id=11430*, default_option=0*, option_flags=0*)
    → "My concerns extend to... [Privacy issues./Our commanders./Our battle strategies./Our internal policies./Nothing.]"
 23: 0x005D [0x25] WAIT_DIALOG_SELECT()
 24: 0x005E [0x02] IF !(Work_Zone[0] == 0*) GOTO 0x0079
 25: 0x0066 [0x1D] PRINT_EVENT_MESSAGE(message_id=11431*)
    → "You need not worry, <Player>. As per Bastokan law, I am required to maintain the confidentiality of your identity."
 26: 0x0069 [0x23] WAIT_FOR_DIALOG_INTERACTION
 27: 0x006A [0x1D] PRINT_EVENT_MESSAGE(message_id=11432*)
    → "Only your opinion will be reported to the praefectus."
 28: 0x006D [0x23] WAIT_FOR_DIALOG_INTERACTION
 29: 0x006E [0x1D] PRINT_EVENT_MESSAGE(message_id=11433*)
    → "While all opinions will be considered by our leaders, this does not necessarily guarantee that your suggestions will be reflected in our nation's strategies."
 30: 0x0071 [0x23] WAIT_FOR_DIALOG_INTERACTION
 31: 0x0072 [0x1D] PRINT_EVENT_MESSAGE(message_id=11434*)
    → "The Bastokan Republic takes pride in the democracy established by our forefathers, and any new direction must first be approved by the majority."
 32: 0x0075 [0x23] WAIT_FOR_DIALOG_INTERACTION
 33: 0x0076 [0x01] GOTO 0x00E0
 34: 0x0079 [0x02] IF !(Work_Zone[0] == 1*) GOTO 0x0094
 35: 0x0081 [0x3E] IF !(ExtData[1]->WorkLocal[3] bit 0*) GOTO 0x008E
 36: 0x0088 [0x1A] CALL_SUBROUTINE(address=0x02E9)
 37: 0x008B [0x01] GOTO 0x0091
 38: 0x008E [0x1A] CALL_SUBROUTINE(address=0x00EA)

SUBROUTINE_0091:
 39: 0x0091 [0x01] GOTO 0x00E0
 40: 0x0094 [0x02] IF !(Work_Zone[0] == 2*) GOTO 0x00AF
 41: 0x009C [0x3E] IF !(ExtData[1]->WorkLocal[3] bit 1*) GOTO 0x00A9
 42: 0x00A3 [0x1A] CALL_SUBROUTINE(address=0x054A)
 43: 0x00A6 [0x01] GOTO 0x00AC
 44: 0x00A9 [0x1A] CALL_SUBROUTINE(address=0x02F7)

SUBROUTINE_00AC:
 45: 0x00AC [0x01] GOTO 0x00E0
 46: 0x00AF [0x02] IF !(Work_Zone[0] == 3*) GOTO 0x00CA
 47: 0x00B7 [0x3E] IF !(ExtData[1]->WorkLocal[3] bit 2*) GOTO 0x00C4
 48: 0x00BE [0x1A] CALL_SUBROUTINE(address=0x07ED)
 49: 0x00C1 [0x01] GOTO 0x00C7
 50: 0x00C4 [0x1A] CALL_SUBROUTINE(address=0x0558)

SUBROUTINE_00C7:
 51: 0x00C7 [0x01] GOTO 0x00E0
 52: 0x00CA [0x02] IF !(ExtData[1]->WorkLocal[2] == 0*) GOTO 0x00D9
 53: 0x00D2 [0x1D] PRINT_EVENT_MESSAGE(message_id=11436*)
    → "Understood. If you ever have a suggestion, I will be here waiting. Good day, soldier."
 54: 0x00D5 [0x23] WAIT_FOR_DIALOG_INTERACTION
 55: 0x00D6 [0x01] GOTO 0x00DD
 56: 0x00D9 [0x1D] PRINT_EVENT_MESSAGE(message_id=11435*)
    → "Understood. Your opinion has been noted and will be delivered to the praefectus shortly. Thank you, soldier."
 57: 0x00DC [0x23] WAIT_FOR_DIALOG_INTERACTION

SUBROUTINE_00DD:
 58: 0x00DD [0x0C] ExtData[1]->WorkLocal[0]--

SUBROUTINE_00E0:
 59: 0x00E0 [0x03] Work_Zone[2] = 1*
 60: 0x00E5 [0x01] GOTO 0x002D
 61: 0x00E8 [0x21] END_EVENT
 62: 0x00E9 [0x00] END_REQSTACK()

SUBROUTINE_00EA:
 63: 0x00EA [0x1D] PRINT_EVENT_MESSAGE(message_id=11439*)
    → "Ah, so you wish to comment on our leaders."
 64: 0x00ED [0x23] WAIT_FOR_DIALOG_INTERACTION
 65: 0x00EE [0x1D] PRINT_EVENT_MESSAGE(message_id=11440*)
    → "Very well. Praefectus Zazarg is eager to learn how his soldiers view the actions of the Republic's commanders."
 66: 0x00F1 [0x23] WAIT_FOR_DIALOG_INTERACTION
 67: 0x00F2 [0x0B] ExtData[1]->WorkLocal[0]++
 68: 0x00F5 [0x03] ExtData[1]->WorkLocal[1] = 4294967295*

SUBROUTINE_00FA:
 69: 0x00FA [0x02] IF !(ExtData[1]->WorkLocal[0] < 1*) GOTO 0x02E8
 70: 0x0102 [0x2E] SET_CLI_EVENT_CANCEL_FLAGS()
 71: 0x0103 [0x1D] PRINT_EVENT_MESSAGE(message_id=11441*)
    → "Would you mind telling me in who you place the most trust?"
 72: 0x0106 [0x23] WAIT_FOR_DIALOG_INTERACTION
 73: 0x0107 [0x24] CREATE_DIALOG(message_id=11442*, default_option=0*, option_flags=0*)
    → "Who do you believe the most competent? [1st Div. Legatus Berger./2nd Div. Legatus Eichberg./3rd Div. Legatus Invincible Shield./Republic Chief of Staff Sturm./Iron Musketeer Commander Krueger./Gold Musketeer Commander Gogol./Quit.]"
 74: 0x010E [0x25] WAIT_DIALOG_SELECT()
 75: 0x010F [0x02] IF !(Work_Zone[0] == 0*) GOTO 0x015C
 76: 0x0117 [0x1D] PRINT_EVENT_MESSAGE(message_id=11443*)
    → "Maximilian Berger--since the Republic's numbing defeat at the Battle of Grauberg, the First Division legatus has been vocal in promoting aggressive battlefield tactics."
 77: 0x011A [0x23] WAIT_FOR_DIALOG_INTERACTION
 78: 0x011B [0x24] CREATE_DIALOG(message_id=11452*, default_option=1*, option_flags=0*)
    → "Well...? [Absolutely./I need more time to think.]"
 79: 0x0122 [0x25] WAIT_DIALOG_SELECT()
 80: 0x0123 [0x02] IF !(Work_Zone[0] == 0*) GOTO 0x0159
 81: 0x012B [0x42] SET_CLI_EVENT_CANCEL_DATA()
 82: 0x012C [0x03] ExtData[1]->WorkLocal[1] = 0*
 83: 0x0131 [0x1D] PRINT_EVENT_MESSAGE(message_id=11453*)
    → "Alright."
 84: 0x0134 [0x23] WAIT_FOR_DIALOG_INTERACTION
 85: 0x0135 [0x3C] SET_BIT_FLAG_CONDITIONAL(target_work_offset=ExtData[1]->WorkLocal[2], bit_index_work_offset=0*, condition_work_offset=1*)
 86: 0x013C [0x0C] ExtData[1]->WorkLocal[0]--
 87: 0x013F [0x03] Work_Zone[1] = 1*
 88: 0x0144 [0x40] SET_BIT_WORK_RANGE(start_bit=4*, end_bit=31*, target=Work_Zone[1], source=ExtData[1]->WorkLocal[1])
 89: 0x014D [0x43] SEND_EVENT_UPDATE: Send pending tag to server (packet 0x005B)
 90: 0x014F [0x43] SEND_EVENT_UPDATE: Check pending flag (skip if not pending)
 91: 0x0151 [0x03] ExtData[1]->WorkLocal[3] = Work_Zone[2]
 92: 0x0156 [0x01] GOTO 0x0159

SUBROUTINE_0159:
 93: 0x0159 [0x01] GOTO 0x02E5
 94: 0x015C [0x02] IF !(Work_Zone[0] == 1*) GOTO 0x01A9
 95: 0x0164 [0x1D] PRINT_EVENT_MESSAGE(message_id=11444*)
    → "Ludwig Eichberg--a cautious leader who specializes in extended campaigns, the legatus is known for his fervor in the areas of stronghold defense and fortification."
 96: 0x0167 [0x23] WAIT_FOR_DIALOG_INTERACTION
 97: 0x0168 [0x24] CREATE_DIALOG(message_id=11452*, default_option=1*, option_flags=0*)
    → "Well...? [Absolutely./I need more time to think.]"
 98: 0x016F [0x25] WAIT_DIALOG_SELECT()
 99: 0x0170 [0x02] IF !(Work_Zone[0] == 0*) GOTO 0x01A6
100: 0x0178 [0x42] SET_CLI_EVENT_CANCEL_DATA()
101: 0x0179 [0x03] ExtData[1]->WorkLocal[1] = 1*
102: 0x017E [0x1D] PRINT_EVENT_MESSAGE(message_id=11453*)
    → "Alright."
103: 0x0181 [0x23] WAIT_FOR_DIALOG_INTERACTION
104: 0x0182 [0x3C] SET_BIT_FLAG_CONDITIONAL(target_work_offset=ExtData[1]->WorkLocal[2], bit_index_work_offset=0*, condition_work_offset=1*)
105: 0x0189 [0x0C] ExtData[1]->WorkLocal[0]--
106: 0x018C [0x03] Work_Zone[1] = 1*
107: 0x0191 [0x40] SET_BIT_WORK_RANGE(start_bit=4*, end_bit=31*, target=Work_Zone[1], source=ExtData[1]->WorkLocal[1])
108: 0x019A [0x43] SEND_EVENT_UPDATE: Send pending tag to server (packet 0x005B)
109: 0x019C [0x43] SEND_EVENT_UPDATE: Check pending flag (skip if not pending)
110: 0x019E [0x03] ExtData[1]->WorkLocal[3] = Work_Zone[2]
111: 0x01A3 [0x01] GOTO 0x01A6

SUBROUTINE_01A6:
112: 0x01A6 [0x01] GOTO 0x02E5
113: 0x01A9 [0x02] IF !(Work_Zone[0] == 2*) GOTO 0x01F6
114: 0x01B1 [0x1D] PRINT_EVENT_MESSAGE(message_id=11445*)
    → "Invincible Shield--an extremely versatile leader, the Galkan legatus has become a living legend for his numerous victories on land and sea."
115: 0x01B4 [0x23] WAIT_FOR_DIALOG_INTERACTION
116: 0x01B5 [0x24] CREATE_DIALOG(message_id=11452*, default_option=1*, option_flags=0*)
    → "Well...? [Absolutely./I need more time to think.]"
117: 0x01BC [0x25] WAIT_DIALOG_SELECT()
118: 0x01BD [0x02] IF !(Work_Zone[0] == 0*) GOTO 0x01F3
119: 0x01C5 [0x42] SET_CLI_EVENT_CANCEL_DATA()
120: 0x01C6 [0x03] ExtData[1]->WorkLocal[1] = 2*
121: 0x01CB [0x1D] PRINT_EVENT_MESSAGE(message_id=11453*)
    → "Alright."
122: 0x01CE [0x23] WAIT_FOR_DIALOG_INTERACTION
123: 0x01CF [0x3C] SET_BIT_FLAG_CONDITIONAL(target_work_offset=ExtData[1]->WorkLocal[2], bit_index_work_offset=0*, condition_work_offset=1*)
124: 0x01D6 [0x0C] ExtData[1]->WorkLocal[0]--
125: 0x01D9 [0x03] Work_Zone[1] = 1*
126: 0x01DE [0x40] SET_BIT_WORK_RANGE(start_bit=4*, end_bit=31*, target=Work_Zone[1], source=ExtData[1]->WorkLocal[1])
127: 0x01E7 [0x43] SEND_EVENT_UPDATE: Send pending tag to server (packet 0x005B)
128: 0x01E9 [0x43] SEND_EVENT_UPDATE: Check pending flag (skip if not pending)
129: 0x01EB [0x03] ExtData[1]->WorkLocal[3] = Work_Zone[2]
130: 0x01F0 [0x01] GOTO 0x01F3

SUBROUTINE_01F3:
131: 0x01F3 [0x01] GOTO 0x02E5
132: 0x01F6 [0x02] IF !(Work_Zone[0] == 3*) GOTO 0x0243
133: 0x01FE [0x1D] PRINT_EVENT_MESSAGE(message_id=11446*)
    → "Adelheid Sturm--a shrewd strategist, the Operations Division's chief of staff is well versed in the teachings of Schultz martial theory and employs efficient tactics when gathering intelligence on the enemy."
134: 0x0201 [0x23] WAIT_FOR_DIALOG_INTERACTION
135: 0x0202 [0x24] CREATE_DIALOG(message_id=11452*, default_option=1*, option_flags=0*)
    → "Well...? [Absolutely./I need more time to think.]"
136: 0x0209 [0x25] WAIT_DIALOG_SELECT()
137: 0x020A [0x02] IF !(Work_Zone[0] == 0*) GOTO 0x0240
138: 0x0212 [0x42] SET_CLI_EVENT_CANCEL_DATA()
139: 0x0213 [0x03] ExtData[1]->WorkLocal[1] = 3*
140: 0x0218 [0x1D] PRINT_EVENT_MESSAGE(message_id=11453*)
    → "Alright."
141: 0x021B [0x23] WAIT_FOR_DIALOG_INTERACTION
142: 0x021C [0x3C] SET_BIT_FLAG_CONDITIONAL(target_work_offset=ExtData[1]->WorkLocal[2], bit_index_work_offset=0*, condition_work_offset=1*)
143: 0x0223 [0x0C] ExtData[1]->WorkLocal[0]--
144: 0x0226 [0x03] Work_Zone[1] = 1*
145: 0x022B [0x40] SET_BIT_WORK_RANGE(start_bit=4*, end_bit=31*, target=Work_Zone[1], source=ExtData[1]->WorkLocal[1])
146: 0x0234 [0x43] SEND_EVENT_UPDATE: Send pending tag to server (packet 0x005B)
147: 0x0236 [0x43] SEND_EVENT_UPDATE: Check pending flag (skip if not pending)
148: 0x0238 [0x03] ExtData[1]->WorkLocal[3] = Work_Zone[2]
149: 0x023D [0x01] GOTO 0x0240

SUBROUTINE_0240:
150: 0x0240 [0x01] GOTO 0x02E5
151: 0x0243 [0x02] IF !(Work_Zone[0] == 4*) GOTO 0x0290
152: 0x024B [0x1D] PRINT_EVENT_MESSAGE(message_id=11447*)
    → "Bartholomaus Krueger--not known to blindly rush his troops into battle, the legatus believes our nation should first focus on strengthening its forces before engaging the enemy."
153: 0x024E [0x23] WAIT_FOR_DIALOG_INTERACTION
154: 0x024F [0x24] CREATE_DIALOG(message_id=11452*, default_option=1*, option_flags=0*)
    → "Well...? [Absolutely./I need more time to think.]"
155: 0x0256 [0x25] WAIT_DIALOG_SELECT()
156: 0x0257 [0x02] IF !(Work_Zone[0] == 0*) GOTO 0x028D
157: 0x025F [0x42] SET_CLI_EVENT_CANCEL_DATA()
158: 0x0260 [0x03] ExtData[1]->WorkLocal[1] = 4*
159: 0x0265 [0x1D] PRINT_EVENT_MESSAGE(message_id=11453*)
    → "Alright."
160: 0x0268 [0x23] WAIT_FOR_DIALOG_INTERACTION
161: 0x0269 [0x3C] SET_BIT_FLAG_CONDITIONAL(target_work_offset=ExtData[1]->WorkLocal[2], bit_index_work_offset=0*, condition_work_offset=1*)
162: 0x0270 [0x0C] ExtData[1]->WorkLocal[0]--
163: 0x0273 [0x03] Work_Zone[1] = 1*
164: 0x0278 [0x40] SET_BIT_WORK_RANGE(start_bit=4*, end_bit=31*, target=Work_Zone[1], source=ExtData[1]->WorkLocal[1])
165: 0x0281 [0x43] SEND_EVENT_UPDATE: Send pending tag to server (packet 0x005B)
166: 0x0283 [0x43] SEND_EVENT_UPDATE: Check pending flag (skip if not pending)
167: 0x0285 [0x03] ExtData[1]->WorkLocal[3] = Work_Zone[2]
168: 0x028A [0x01] GOTO 0x028D

SUBROUTINE_028D:
169: 0x028D [0x01] GOTO 0x02E5
170: 0x0290 [0x02] IF !(Work_Zone[0] == 5*) GOTO 0x02DD
171: 0x0298 [0x1D] PRINT_EVENT_MESSAGE(message_id=11448*)
    → "Elivira Gogol--a strong proponent of preemptive blitzkrieg tactics, the Gold Musketeer commander is known for her aggressiveness on the battlefield."
172: 0x029B [0x23] WAIT_FOR_DIALOG_INTERACTION
173: 0x029C [0x24] CREATE_DIALOG(message_id=11452*, default_option=1*, option_flags=0*)
    → "Well...? [Absolutely./I need more time to think.]"
174: 0x02A3 [0x25] WAIT_DIALOG_SELECT()
175: 0x02A4 [0x02] IF !(Work_Zone[0] == 0*) GOTO 0x02DA
176: 0x02AC [0x42] SET_CLI_EVENT_CANCEL_DATA()
177: 0x02AD [0x03] ExtData[1]->WorkLocal[1] = 5*
178: 0x02B2 [0x1D] PRINT_EVENT_MESSAGE(message_id=11453*)
    → "Alright."
179: 0x02B5 [0x23] WAIT_FOR_DIALOG_INTERACTION
180: 0x02B6 [0x3C] SET_BIT_FLAG_CONDITIONAL(target_work_offset=ExtData[1]->WorkLocal[2], bit_index_work_offset=0*, condition_work_offset=1*)
181: 0x02BD [0x0C] ExtData[1]->WorkLocal[0]--
182: 0x02C0 [0x03] Work_Zone[1] = 1*
183: 0x02C5 [0x40] SET_BIT_WORK_RANGE(start_bit=4*, end_bit=31*, target=Work_Zone[1], source=ExtData[1]->WorkLocal[1])
184: 0x02CE [0x43] SEND_EVENT_UPDATE: Send pending tag to server (packet 0x005B)
185: 0x02D0 [0x43] SEND_EVENT_UPDATE: Check pending flag (skip if not pending)
186: 0x02D2 [0x03] ExtData[1]->WorkLocal[3] = Work_Zone[2]
187: 0x02D7 [0x01] GOTO 0x02DA

SUBROUTINE_02DA:
188: 0x02DA [0x01] GOTO 0x02E5
189: 0x02DD [0x03] ExtData[1]->WorkLocal[1] = 4294967295*
190: 0x02E2 [0x0C] ExtData[1]->WorkLocal[0]--

SUBROUTINE_02E5:
191: 0x02E5 [0x01] GOTO 0x00FA
192: 0x02E8 [0x1B] RETURN

SUBROUTINE_02E9:
193: 0x02E9 [0x1D] PRINT_EVENT_MESSAGE(message_id=11454*)
    → "Wait... I seem to recall recently recording your opinion on our commanders."
194: 0x02EC [0x23] WAIT_FOR_DIALOG_INTERACTION
195: 0x02ED [0x03] Work_Zone[3] = ExtData[1]->WorkLocal[4]
196: 0x02F2 [0x1D] PRINT_EVENT_MESSAGE(message_id=11455*)
    → "I believe you said our nation should heed the strategies of [First Division Legatus Berger/Second Division Legatus Eichberg/Third Division Legatus Invincible Shield/Republic Chief of Staff Sturm/Iron Musketeer Commander Krueger/Gold Musketeer Commander Gogol]."
197: 0x02F5 [0x23] WAIT_FOR_DIALOG_INTERACTION
198: 0x02F6 [0x1B] RETURN

SUBROUTINE_02F7:
199: 0x02F7 [0x1D] PRINT_EVENT_MESSAGE(message_id=11456*)
    → "Ah, so you wish to comment on our current battle strategies."
200: 0x02FA [0x23] WAIT_FOR_DIALOG_INTERACTION
201: 0x02FB [0x0B] ExtData[1]->WorkLocal[0]++
202: 0x02FE [0x03] ExtData[1]->WorkLocal[1] = 4294967295*

SUBROUTINE_0303:
203: 0x0303 [0x02] IF !(ExtData[1]->WorkLocal[0] < 1*) GOTO 0x0549
204: 0x030B [0x2E] SET_CLI_EVENT_CANCEL_FLAGS()
205: 0x030C [0x1D] PRINT_EVENT_MESSAGE(message_id=11457*)
    → "What tactics do you believe our leaders should employ?"
206: 0x030F [0x23] WAIT_FOR_DIALOG_INTERACTION
207: 0x0310 [0x24] CREATE_DIALOG(message_id=11458*, default_option=0*, option_flags=32*)
    → "Our current situation requires... [A preemptive strike./Diversionary tactics./Battleline preservation./Stronghold defenses./Troop conditioning./Troop training./Reconnaissance./Sabotage./Nothing.]"
208: 0x0317 [0x25] WAIT_DIALOG_SELECT()
209: 0x0318 [0x02] IF !(Work_Zone[0] == 0*) GOTO 0x0365
210: 0x0320 [0x1D] PRINT_EVENT_MESSAGE(message_id=11459*)
    → "Quite an aggressive tactic... On the other hand, a preemptive strike can be the quickest way to bring new regions under Bastokan control, even if it results in heavier losses."
211: 0x0323 [0x23] WAIT_FOR_DIALOG_INTERACTION
212: 0x0324 [0x24] CREATE_DIALOG(message_id=11467*, default_option=1*, option_flags=0*)
    → "Is this what you recommend? [Absolutely!/On second thought...]"
213: 0x032B [0x25] WAIT_DIALOG_SELECT()
214: 0x032C [0x02] IF !(Work_Zone[0] == 0*) GOTO 0x0362
215: 0x0334 [0x42] SET_CLI_EVENT_CANCEL_DATA()
216: 0x0335 [0x03] ExtData[1]->WorkLocal[1] = 0*
217: 0x033A [0x1D] PRINT_EVENT_MESSAGE(message_id=11453*)
    → "Alright."
218: 0x033D [0x23] WAIT_FOR_DIALOG_INTERACTION
219: 0x033E [0x3C] SET_BIT_FLAG_CONDITIONAL(target_work_offset=ExtData[1]->WorkLocal[2], bit_index_work_offset=0*, condition_work_offset=1*)
220: 0x0345 [0x0C] ExtData[1]->WorkLocal[0]--
221: 0x0348 [0x03] Work_Zone[1] = 2*
222: 0x034D [0x40] SET_BIT_WORK_RANGE(start_bit=4*, end_bit=31*, target=Work_Zone[1], source=ExtData[1]->WorkLocal[1])
223: 0x0356 [0x43] SEND_EVENT_UPDATE: Send pending tag to server (packet 0x005B)
224: 0x0358 [0x43] SEND_EVENT_UPDATE: Check pending flag (skip if not pending)
225: 0x035A [0x03] ExtData[1]->WorkLocal[3] = Work_Zone[2]
226: 0x035F [0x01] GOTO 0x0362

SUBROUTINE_0362:
227: 0x0362 [0x01] GOTO 0x0546
228: 0x0365 [0x02] IF !(Work_Zone[0] == 1*) GOTO 0x03B2
229: 0x036D [0x1D] PRINT_EVENT_MESSAGE(message_id=11460*)
    → "Deploying a small unit of elite forces to distract the enemy while another cuts off vital supply lines... Excellent thinking!"
230: 0x0370 [0x23] WAIT_FOR_DIALOG_INTERACTION
231: 0x0371 [0x24] CREATE_DIALOG(message_id=11467*, default_option=1*, option_flags=0*)
    → "Is this what you recommend? [Absolutely!/On second thought...]"
232: 0x0378 [0x25] WAIT_DIALOG_SELECT()
233: 0x0379 [0x02] IF !(Work_Zone[0] == 0*) GOTO 0x03AF
234: 0x0381 [0x42] SET_CLI_EVENT_CANCEL_DATA()
235: 0x0382 [0x03] ExtData[1]->WorkLocal[1] = 1*
236: 0x0387 [0x1D] PRINT_EVENT_MESSAGE(message_id=11453*)
    → "Alright."
237: 0x038A [0x23] WAIT_FOR_DIALOG_INTERACTION
238: 0x038B [0x3C] SET_BIT_FLAG_CONDITIONAL(target_work_offset=ExtData[1]->WorkLocal[2], bit_index_work_offset=0*, condition_work_offset=1*)
239: 0x0392 [0x0C] ExtData[1]->WorkLocal[0]--
240: 0x0395 [0x03] Work_Zone[1] = 2*
241: 0x039A [0x40] SET_BIT_WORK_RANGE(start_bit=4*, end_bit=31*, target=Work_Zone[1], source=ExtData[1]->WorkLocal[1])
242: 0x03A3 [0x43] SEND_EVENT_UPDATE: Send pending tag to server (packet 0x005B)
243: 0x03A5 [0x43] SEND_EVENT_UPDATE: Check pending flag (skip if not pending)
244: 0x03A7 [0x03] ExtData[1]->WorkLocal[3] = Work_Zone[2]
245: 0x03AC [0x01] GOTO 0x03AF

SUBROUTINE_03AF:
246: 0x03AF [0x01] GOTO 0x0546
247: 0x03B2 [0x02] IF !(Work_Zone[0] == 2*) GOTO 0x03FF
248: 0x03BA [0x1D] PRINT_EVENT_MESSAGE(message_id=11461*)
    → "Reinforce defenses in order to maintain battlelines, thus gradually draining the enemy of its influence... A wise decision."
249: 0x03BD [0x23] WAIT_FOR_DIALOG_INTERACTION
250: 0x03BE [0x24] CREATE_DIALOG(message_id=11467*, default_option=1*, option_flags=0*)
    → "Is this what you recommend? [Absolutely!/On second thought...]"
251: 0x03C5 [0x25] WAIT_DIALOG_SELECT()
252: 0x03C6 [0x02] IF !(Work_Zone[0] == 0*) GOTO 0x03FC
253: 0x03CE [0x42] SET_CLI_EVENT_CANCEL_DATA()
254: 0x03CF [0x03] ExtData[1]->WorkLocal[1] = 2*
255: 0x03D4 [0x1D] PRINT_EVENT_MESSAGE(message_id=11453*)
    → "Alright."
256: 0x03D7 [0x23] WAIT_FOR_DIALOG_INTERACTION
257: 0x03D8 [0x3C] SET_BIT_FLAG_CONDITIONAL(target_work_offset=ExtData[1]->WorkLocal[2], bit_index_work_offset=0*, condition_work_offset=1*)
258: 0x03DF [0x0C] ExtData[1]->WorkLocal[0]--
259: 0x03E2 [0x03] Work_Zone[1] = 2*
260: 0x03E7 [0x40] SET_BIT_WORK_RANGE(start_bit=4*, end_bit=31*, target=Work_Zone[1], source=ExtData[1]->WorkLocal[1])
261: 0x03F0 [0x43] SEND_EVENT_UPDATE: Send pending tag to server (packet 0x005B)
262: 0x03F2 [0x43] SEND_EVENT_UPDATE: Check pending flag (skip if not pending)
263: 0x03F4 [0x03] ExtData[1]->WorkLocal[3] = Work_Zone[2]
264: 0x03F9 [0x01] GOTO 0x03FC

SUBROUTINE_03FC:
265: 0x03FC [0x01] GOTO 0x0546
266: 0x03FF [0x02] IF !(Work_Zone[0] == 3*) GOTO 0x044C
267: 0x0407 [0x1D] PRINT_EVENT_MESSAGE(message_id=11462*)
    → "Reinforce stronghold defenses in order to prevent enemy ambushes and stabilize supply routes. Sound thinking, <Player>."
268: 0x040A [0x23] WAIT_FOR_DIALOG_INTERACTION
269: 0x040B [0x24] CREATE_DIALOG(message_id=11467*, default_option=1*, option_flags=0*)
    → "Is this what you recommend? [Absolutely!/On second thought...]"
270: 0x0412 [0x25] WAIT_DIALOG_SELECT()
271: 0x0413 [0x02] IF !(Work_Zone[0] == 0*) GOTO 0x0449
272: 0x041B [0x42] SET_CLI_EVENT_CANCEL_DATA()
273: 0x041C [0x03] ExtData[1]->WorkLocal[1] = 3*
274: 0x0421 [0x1D] PRINT_EVENT_MESSAGE(message_id=11453*)
    → "Alright."
275: 0x0424 [0x23] WAIT_FOR_DIALOG_INTERACTION
276: 0x0425 [0x3C] SET_BIT_FLAG_CONDITIONAL(target_work_offset=ExtData[1]->WorkLocal[2], bit_index_work_offset=0*, condition_work_offset=1*)
277: 0x042C [0x0C] ExtData[1]->WorkLocal[0]--
278: 0x042F [0x03] Work_Zone[1] = 2*
279: 0x0434 [0x40] SET_BIT_WORK_RANGE(start_bit=4*, end_bit=31*, target=Work_Zone[1], source=ExtData[1]->WorkLocal[1])
280: 0x043D [0x43] SEND_EVENT_UPDATE: Send pending tag to server (packet 0x005B)
281: 0x043F [0x43] SEND_EVENT_UPDATE: Check pending flag (skip if not pending)
282: 0x0441 [0x03] ExtData[1]->WorkLocal[3] = Work_Zone[2]
283: 0x0446 [0x01] GOTO 0x0449

SUBROUTINE_0449:
284: 0x0449 [0x01] GOTO 0x0546
285: 0x044C [0x02] IF !(Work_Zone[0] == 4*) GOTO 0x0499
286: 0x0454 [0x1D] PRINT_EVENT_MESSAGE(message_id=11463*)
    → "Back to basics... So simple, it might be just what our forces need."
287: 0x0457 [0x23] WAIT_FOR_DIALOG_INTERACTION
288: 0x0458 [0x24] CREATE_DIALOG(message_id=11467*, default_option=1*, option_flags=0*)
    → "Is this what you recommend? [Absolutely!/On second thought...]"
289: 0x045F [0x25] WAIT_DIALOG_SELECT()
290: 0x0460 [0x02] IF !(Work_Zone[0] == 0*) GOTO 0x0496
291: 0x0468 [0x42] SET_CLI_EVENT_CANCEL_DATA()
292: 0x0469 [0x03] ExtData[1]->WorkLocal[1] = 4*
293: 0x046E [0x1D] PRINT_EVENT_MESSAGE(message_id=11453*)
    → "Alright."
294: 0x0471 [0x23] WAIT_FOR_DIALOG_INTERACTION
295: 0x0472 [0x3C] SET_BIT_FLAG_CONDITIONAL(target_work_offset=ExtData[1]->WorkLocal[2], bit_index_work_offset=0*, condition_work_offset=1*)
296: 0x0479 [0x0C] ExtData[1]->WorkLocal[0]--
297: 0x047C [0x03] Work_Zone[1] = 2*
298: 0x0481 [0x40] SET_BIT_WORK_RANGE(start_bit=4*, end_bit=31*, target=Work_Zone[1], source=ExtData[1]->WorkLocal[1])
299: 0x048A [0x43] SEND_EVENT_UPDATE: Send pending tag to server (packet 0x005B)
300: 0x048C [0x43] SEND_EVENT_UPDATE: Check pending flag (skip if not pending)
301: 0x048E [0x03] ExtData[1]->WorkLocal[3] = Work_Zone[2]
302: 0x0493 [0x01] GOTO 0x0496

SUBROUTINE_0496:
303: 0x0496 [0x01] GOTO 0x0546
304: 0x0499 [0x02] IF !(Work_Zone[0] == 5*) GOTO 0x04A4
305: 0x04A1 [0x01] GOTO 0x0546
306: 0x04A4 [0x02] IF !(Work_Zone[0] == 6*) GOTO 0x04F1
307: 0x04AC [0x1D] PRINT_EVENT_MESSAGE(message_id=11465*)
    → "Ah, a fine tactic... The more intelligence we have on the hordes, the more successful we are in our future campaigns."
308: 0x04AF [0x23] WAIT_FOR_DIALOG_INTERACTION
309: 0x04B0 [0x24] CREATE_DIALOG(message_id=11467*, default_option=1*, option_flags=0*)
    → "Is this what you recommend? [Absolutely!/On second thought...]"
310: 0x04B7 [0x25] WAIT_DIALOG_SELECT()
311: 0x04B8 [0x02] IF !(Work_Zone[0] == 0*) GOTO 0x04EE
312: 0x04C0 [0x42] SET_CLI_EVENT_CANCEL_DATA()
313: 0x04C1 [0x03] ExtData[1]->WorkLocal[1] = 6*
314: 0x04C6 [0x1D] PRINT_EVENT_MESSAGE(message_id=11453*)
    → "Alright."
315: 0x04C9 [0x23] WAIT_FOR_DIALOG_INTERACTION
316: 0x04CA [0x3C] SET_BIT_FLAG_CONDITIONAL(target_work_offset=ExtData[1]->WorkLocal[2], bit_index_work_offset=0*, condition_work_offset=1*)
317: 0x04D1 [0x0C] ExtData[1]->WorkLocal[0]--
318: 0x04D4 [0x03] Work_Zone[1] = 2*
319: 0x04D9 [0x40] SET_BIT_WORK_RANGE(start_bit=4*, end_bit=31*, target=Work_Zone[1], source=ExtData[1]->WorkLocal[1])
320: 0x04E2 [0x43] SEND_EVENT_UPDATE: Send pending tag to server (packet 0x005B)
321: 0x04E4 [0x43] SEND_EVENT_UPDATE: Check pending flag (skip if not pending)
322: 0x04E6 [0x03] ExtData[1]->WorkLocal[3] = Work_Zone[2]
323: 0x04EB [0x01] GOTO 0x04EE

SUBROUTINE_04EE:
324: 0x04EE [0x01] GOTO 0x0546
325: 0x04F1 [0x02] IF !(Work_Zone[0] == 7*) GOTO 0x053E
326: 0x04F9 [0x1D] PRINT_EVENT_MESSAGE(message_id=11466*)
    → "A dangerous tactic... However, if a special unit is able to infiltrate our enemies' strongholds undetected and succeed in sabotaging their lifelines, the tides of battle would most definitely turn in our favor."
327: 0x04FC [0x23] WAIT_FOR_DIALOG_INTERACTION
328: 0x04FD [0x24] CREATE_DIALOG(message_id=11467*, default_option=1*, option_flags=0*)
    → "Is this what you recommend? [Absolutely!/On second thought...]"
329: 0x0504 [0x25] WAIT_DIALOG_SELECT()
330: 0x0505 [0x02] IF !(Work_Zone[0] == 0*) GOTO 0x053B
331: 0x050D [0x42] SET_CLI_EVENT_CANCEL_DATA()
332: 0x050E [0x03] ExtData[1]->WorkLocal[1] = 7*
333: 0x0513 [0x1D] PRINT_EVENT_MESSAGE(message_id=11453*)
    → "Alright."
334: 0x0516 [0x23] WAIT_FOR_DIALOG_INTERACTION
335: 0x0517 [0x3C] SET_BIT_FLAG_CONDITIONAL(target_work_offset=ExtData[1]->WorkLocal[2], bit_index_work_offset=0*, condition_work_offset=1*)
336: 0x051E [0x0C] ExtData[1]->WorkLocal[0]--
337: 0x0521 [0x03] Work_Zone[1] = 2*
338: 0x0526 [0x40] SET_BIT_WORK_RANGE(start_bit=4*, end_bit=31*, target=Work_Zone[1], source=ExtData[1]->WorkLocal[1])
339: 0x052F [0x43] SEND_EVENT_UPDATE: Send pending tag to server (packet 0x005B)
340: 0x0531 [0x43] SEND_EVENT_UPDATE: Check pending flag (skip if not pending)
341: 0x0533 [0x03] ExtData[1]->WorkLocal[3] = Work_Zone[2]
342: 0x0538 [0x01] GOTO 0x053B

SUBROUTINE_053B:
343: 0x053B [0x01] GOTO 0x0546
344: 0x053E [0x03] ExtData[1]->WorkLocal[1] = 4294967295*
345: 0x0543 [0x0C] ExtData[1]->WorkLocal[0]--

SUBROUTINE_0546:
346: 0x0546 [0x01] GOTO 0x0303
347: 0x0549 [0x1B] RETURN

SUBROUTINE_054A:
348: 0x054A [0x03] Work_Zone[3] = ExtData[1]->WorkLocal[5]
349: 0x054F [0x1D] PRINT_EVENT_MESSAGE(message_id=11468*)
    → "I have already delivered to the praefectus your most recent opinion regarding our battle strategies."
350: 0x0552 [0x23] WAIT_FOR_DIALOG_INTERACTION
351: 0x0553 [0x1D] PRINT_EVENT_MESSAGE(message_id=11469*)
    → "I believe you suggested [a preemptive strike/diversionary tactics/battleline preservation/stronghold fortification/troop conditioning/troop training/reconnaissance/sabotage]."
352: 0x0556 [0x23] WAIT_FOR_DIALOG_INTERACTION
353: 0x0557 [0x1B] RETURN

SUBROUTINE_0558:
354: 0x0558 [0x1D] PRINT_EVENT_MESSAGE(message_id=11470*)
    → "Ah, so you wish to offer a comment regarding the Republic's internal policies."
355: 0x055B [0x23] WAIT_FOR_DIALOG_INTERACTION
356: 0x055C [0x0B] ExtData[1]->WorkLocal[0]++
357: 0x055F [0x03] ExtData[1]->WorkLocal[1] = 4294967295*

SUBROUTINE_0564:
358: 0x0564 [0x02] IF !(ExtData[1]->WorkLocal[0] < 1*) GOTO 0x07EC
359: 0x056C [0x2E] SET_CLI_EVENT_CANCEL_FLAGS()
360: 0x056D [0x1D] PRINT_EVENT_MESSAGE(message_id=11471*)
    → "What exactly do you suggest?"
361: 0x0570 [0x23] WAIT_FOR_DIALOG_INTERACTION
362: 0x0571 [0x24] CREATE_DIALOG(message_id=11472*, default_option=0*, option_flags=0*)
    → "Bastok should focus on... [Resource procurement./Military supply procurement./Logistics./Stronghold outfitting./Weapons production./Weapons development./Public security./Stronghold fortification./I require more time to consider.]"
363: 0x0578 [0x25] WAIT_DIALOG_SELECT()
364: 0x0579 [0x02] IF !(Work_Zone[0] == 0*) GOTO 0x05C6
365: 0x0581 [0x1D] PRINT_EVENT_MESSAGE(message_id=11473*)
    → "Interesting... Preparation for an extended campaign through the acquisition of large quantities of resources..."
366: 0x0584 [0x23] WAIT_FOR_DIALOG_INTERACTION
367: 0x0585 [0x24] CREATE_DIALOG(message_id=11481*, default_option=1*, option_flags=0*)
    → "Shall I record your opinion? [Yes./No.]"
368: 0x058C [0x25] WAIT_DIALOG_SELECT()
369: 0x058D [0x02] IF !(Work_Zone[0] == 0*) GOTO 0x05C3
370: 0x0595 [0x42] SET_CLI_EVENT_CANCEL_DATA()
371: 0x0596 [0x03] ExtData[1]->WorkLocal[1] = 0*
372: 0x059B [0x1D] PRINT_EVENT_MESSAGE(message_id=11453*)
    → "Alright."
373: 0x059E [0x23] WAIT_FOR_DIALOG_INTERACTION
374: 0x059F [0x3C] SET_BIT_FLAG_CONDITIONAL(target_work_offset=ExtData[1]->WorkLocal[2], bit_index_work_offset=0*, condition_work_offset=1*)
375: 0x05A6 [0x0C] ExtData[1]->WorkLocal[0]--
376: 0x05A9 [0x03] Work_Zone[1] = 3*
377: 0x05AE [0x40] SET_BIT_WORK_RANGE(start_bit=4*, end_bit=31*, target=Work_Zone[1], source=ExtData[1]->WorkLocal[1])
378: 0x05B7 [0x43] SEND_EVENT_UPDATE: Send pending tag to server (packet 0x005B)
379: 0x05B9 [0x43] SEND_EVENT_UPDATE: Check pending flag (skip if not pending)
380: 0x05BB [0x03] ExtData[1]->WorkLocal[3] = Work_Zone[2]
381: 0x05C0 [0x01] GOTO 0x05C3

SUBROUTINE_05C3:
382: 0x05C3 [0x01] GOTO 0x07E9
383: 0x05C6 [0x02] IF !(Work_Zone[0] == 1*) GOTO 0x0613
384: 0x05CE [0x1D] PRINT_EVENT_MESSAGE(message_id=11474*)
    → "An army cannot be successful without first obtaining sufficient quantities of supplies. You take after my own heart, soldier."
385: 0x05D1 [0x23] WAIT_FOR_DIALOG_INTERACTION
386: 0x05D2 [0x24] CREATE_DIALOG(message_id=11481*, default_option=1*, option_flags=0*)
    → "Shall I record your opinion? [Yes./No.]"
387: 0x05D9 [0x25] WAIT_DIALOG_SELECT()
388: 0x05DA [0x02] IF !(Work_Zone[0] == 0*) GOTO 0x0610
389: 0x05E2 [0x42] SET_CLI_EVENT_CANCEL_DATA()
390: 0x05E3 [0x03] ExtData[1]->WorkLocal[1] = 1*
391: 0x05E8 [0x1D] PRINT_EVENT_MESSAGE(message_id=11453*)
    → "Alright."
392: 0x05EB [0x23] WAIT_FOR_DIALOG_INTERACTION
393: 0x05EC [0x3C] SET_BIT_FLAG_CONDITIONAL(target_work_offset=ExtData[1]->WorkLocal[2], bit_index_work_offset=0*, condition_work_offset=1*)
394: 0x05F3 [0x0C] ExtData[1]->WorkLocal[0]--
395: 0x05F6 [0x03] Work_Zone[1] = 3*
396: 0x05FB [0x40] SET_BIT_WORK_RANGE(start_bit=4*, end_bit=31*, target=Work_Zone[1], source=ExtData[1]->WorkLocal[1])
397: 0x0604 [0x43] SEND_EVENT_UPDATE: Send pending tag to server (packet 0x005B)
398: 0x0606 [0x43] SEND_EVENT_UPDATE: Check pending flag (skip if not pending)
399: 0x0608 [0x03] ExtData[1]->WorkLocal[3] = Work_Zone[2]
400: 0x060D [0x01] GOTO 0x0610

SUBROUTINE_0610:
401: 0x0610 [0x01] GOTO 0x07E9
402: 0x0613 [0x02] IF !(Work_Zone[0] == 2*) GOTO 0x0660
403: 0x061B [0x1D] PRINT_EVENT_MESSAGE(message_id=11475*)
    → "Supplies are worthless if they do not arrive to their intended destination safely, and in times of war, supply line ambushes are frequent. By fortifying the routes, we can ensure prompt delivery and in turn increase our nation's defenses."
404: 0x061E [0x23] WAIT_FOR_DIALOG_INTERACTION
405: 0x061F [0x24] CREATE_DIALOG(message_id=11481*, default_option=1*, option_flags=0*)
    → "Shall I record your opinion? [Yes./No.]"
406: 0x0626 [0x25] WAIT_DIALOG_SELECT()
407: 0x0627 [0x02] IF !(Work_Zone[0] == 0*) GOTO 0x065D
408: 0x062F [0x42] SET_CLI_EVENT_CANCEL_DATA()
409: 0x0630 [0x03] ExtData[1]->WorkLocal[1] = 2*
410: 0x0635 [0x1D] PRINT_EVENT_MESSAGE(message_id=11453*)
    → "Alright."
411: 0x0638 [0x23] WAIT_FOR_DIALOG_INTERACTION
412: 0x0639 [0x3C] SET_BIT_FLAG_CONDITIONAL(target_work_offset=ExtData[1]->WorkLocal[2], bit_index_work_offset=0*, condition_work_offset=1*)
413: 0x0640 [0x0C] ExtData[1]->WorkLocal[0]--
414: 0x0643 [0x03] Work_Zone[1] = 3*
415: 0x0648 [0x40] SET_BIT_WORK_RANGE(start_bit=4*, end_bit=31*, target=Work_Zone[1], source=ExtData[1]->WorkLocal[1])
416: 0x0651 [0x43] SEND_EVENT_UPDATE: Send pending tag to server (packet 0x005B)
417: 0x0653 [0x43] SEND_EVENT_UPDATE: Check pending flag (skip if not pending)
418: 0x0655 [0x03] ExtData[1]->WorkLocal[3] = Work_Zone[2]
419: 0x065A [0x01] GOTO 0x065D

SUBROUTINE_065D:
420: 0x065D [0x01] GOTO 0x07E9
421: 0x0660 [0x02] IF !(Work_Zone[0] == 3*) GOTO 0x06AD
422: 0x0668 [0x1D] PRINT_EVENT_MESSAGE(message_id=11476*)
    → "Stabilization of supply flows to our strongholds will help in improving our basic defenses."
423: 0x066B [0x23] WAIT_FOR_DIALOG_INTERACTION
424: 0x066C [0x24] CREATE_DIALOG(message_id=11481*, default_option=1*, option_flags=0*)
    → "Shall I record your opinion? [Yes./No.]"
425: 0x0673 [0x25] WAIT_DIALOG_SELECT()
426: 0x0674 [0x02] IF !(Work_Zone[0] == 0*) GOTO 0x06AA
427: 0x067C [0x42] SET_CLI_EVENT_CANCEL_DATA()
428: 0x067D [0x03] ExtData[1]->WorkLocal[1] = 3*
429: 0x0682 [0x1D] PRINT_EVENT_MESSAGE(message_id=11453*)
    → "Alright."
430: 0x0685 [0x23] WAIT_FOR_DIALOG_INTERACTION
431: 0x0686 [0x3C] SET_BIT_FLAG_CONDITIONAL(target_work_offset=ExtData[1]->WorkLocal[2], bit_index_work_offset=0*, condition_work_offset=1*)
432: 0x068D [0x0C] ExtData[1]->WorkLocal[0]--
433: 0x0690 [0x03] Work_Zone[1] = 3*
434: 0x0695 [0x40] SET_BIT_WORK_RANGE(start_bit=4*, end_bit=31*, target=Work_Zone[1], source=ExtData[1]->WorkLocal[1])
435: 0x069E [0x43] SEND_EVENT_UPDATE: Send pending tag to server (packet 0x005B)
436: 0x06A0 [0x43] SEND_EVENT_UPDATE: Check pending flag (skip if not pending)
437: 0x06A2 [0x03] ExtData[1]->WorkLocal[3] = Work_Zone[2]
438: 0x06A7 [0x01] GOTO 0x06AA

SUBROUTINE_06AA:
439: 0x06AA [0x01] GOTO 0x07E9
440: 0x06AD [0x02] IF !(Work_Zone[0] == 4*) GOTO 0x06FA
441: 0x06B5 [0x1D] PRINT_EVENT_MESSAGE(message_id=11477*)
    → "Improved management of the Republic's guilds will ensure our soldiers aren't underequipped on the battlefield."
442: 0x06B8 [0x23] WAIT_FOR_DIALOG_INTERACTION
443: 0x06B9 [0x24] CREATE_DIALOG(message_id=11481*, default_option=1*, option_flags=0*)
    → "Shall I record your opinion? [Yes./No.]"
444: 0x06C0 [0x25] WAIT_DIALOG_SELECT()
445: 0x06C1 [0x02] IF !(Work_Zone[0] == 0*) GOTO 0x06F7
446: 0x06C9 [0x42] SET_CLI_EVENT_CANCEL_DATA()
447: 0x06CA [0x03] ExtData[1]->WorkLocal[1] = 4*
448: 0x06CF [0x1D] PRINT_EVENT_MESSAGE(message_id=11453*)
    → "Alright."
449: 0x06D2 [0x23] WAIT_FOR_DIALOG_INTERACTION
450: 0x06D3 [0x3C] SET_BIT_FLAG_CONDITIONAL(target_work_offset=ExtData[1]->WorkLocal[2], bit_index_work_offset=0*, condition_work_offset=1*)
451: 0x06DA [0x0C] ExtData[1]->WorkLocal[0]--
452: 0x06DD [0x03] Work_Zone[1] = 3*
453: 0x06E2 [0x40] SET_BIT_WORK_RANGE(start_bit=4*, end_bit=31*, target=Work_Zone[1], source=ExtData[1]->WorkLocal[1])
454: 0x06EB [0x43] SEND_EVENT_UPDATE: Send pending tag to server (packet 0x005B)
455: 0x06ED [0x43] SEND_EVENT_UPDATE: Check pending flag (skip if not pending)
456: 0x06EF [0x03] ExtData[1]->WorkLocal[3] = Work_Zone[2]
457: 0x06F4 [0x01] GOTO 0x06F7

SUBROUTINE_06F7:
458: 0x06F7 [0x01] GOTO 0x07E9
459: 0x06FA [0x02] IF !(Work_Zone[0] == 5*) GOTO 0x0747
460: 0x0702 [0x1D] PRINT_EVENT_MESSAGE(message_id=11478*)
    → "Spoken like a true Bastoker. The Republic was built on ingenuity, and with improved weapons developed by those great minds in the Metalworks, our forces will cause even more havoc on the battlefield."
461: 0x0705 [0x23] WAIT_FOR_DIALOG_INTERACTION
462: 0x0706 [0x24] CREATE_DIALOG(message_id=11481*, default_option=1*, option_flags=0*)
    → "Shall I record your opinion? [Yes./No.]"
463: 0x070D [0x25] WAIT_DIALOG_SELECT()
464: 0x070E [0x02] IF !(Work_Zone[0] == 0*) GOTO 0x0744
465: 0x0716 [0x42] SET_CLI_EVENT_CANCEL_DATA()
466: 0x0717 [0x03] ExtData[1]->WorkLocal[1] = 5*
467: 0x071C [0x1D] PRINT_EVENT_MESSAGE(message_id=11453*)
    → "Alright."
468: 0x071F [0x23] WAIT_FOR_DIALOG_INTERACTION
469: 0x0720 [0x3C] SET_BIT_FLAG_CONDITIONAL(target_work_offset=ExtData[1]->WorkLocal[2], bit_index_work_offset=0*, condition_work_offset=1*)
470: 0x0727 [0x0C] ExtData[1]->WorkLocal[0]--
471: 0x072A [0x03] Work_Zone[1] = 3*
472: 0x072F [0x40] SET_BIT_WORK_RANGE(start_bit=4*, end_bit=31*, target=Work_Zone[1], source=ExtData[1]->WorkLocal[1])
473: 0x0738 [0x43] SEND_EVENT_UPDATE: Send pending tag to server (packet 0x005B)
474: 0x073A [0x43] SEND_EVENT_UPDATE: Check pending flag (skip if not pending)
475: 0x073C [0x03] ExtData[1]->WorkLocal[3] = Work_Zone[2]
476: 0x0741 [0x01] GOTO 0x0744

SUBROUTINE_0744:
477: 0x0744 [0x01] GOTO 0x07E9
478: 0x0747 [0x02] IF !(Work_Zone[0] == 6*) GOTO 0x0794
479: 0x074F [0x1D] PRINT_EVENT_MESSAGE(message_id=11479*)
    → "A nation is only as strong as her people. The safety of the citizens should always come first."
480: 0x0752 [0x23] WAIT_FOR_DIALOG_INTERACTION
481: 0x0753 [0x24] CREATE_DIALOG(message_id=11481*, default_option=1*, option_flags=0*)
    → "Shall I record your opinion? [Yes./No.]"
482: 0x075A [0x25] WAIT_DIALOG_SELECT()
483: 0x075B [0x02] IF !(Work_Zone[0] == 0*) GOTO 0x0791
484: 0x0763 [0x42] SET_CLI_EVENT_CANCEL_DATA()
485: 0x0764 [0x03] ExtData[1]->WorkLocal[1] = 6*
486: 0x0769 [0x1D] PRINT_EVENT_MESSAGE(message_id=11453*)
    → "Alright."
487: 0x076C [0x23] WAIT_FOR_DIALOG_INTERACTION
488: 0x076D [0x3C] SET_BIT_FLAG_CONDITIONAL(target_work_offset=ExtData[1]->WorkLocal[2], bit_index_work_offset=0*, condition_work_offset=1*)
489: 0x0774 [0x0C] ExtData[1]->WorkLocal[0]--
490: 0x0777 [0x03] Work_Zone[1] = 3*
491: 0x077C [0x40] SET_BIT_WORK_RANGE(start_bit=4*, end_bit=31*, target=Work_Zone[1], source=ExtData[1]->WorkLocal[1])
492: 0x0785 [0x43] SEND_EVENT_UPDATE: Send pending tag to server (packet 0x005B)
493: 0x0787 [0x43] SEND_EVENT_UPDATE: Check pending flag (skip if not pending)
494: 0x0789 [0x03] ExtData[1]->WorkLocal[3] = Work_Zone[2]
495: 0x078E [0x01] GOTO 0x0791

SUBROUTINE_0791:
496: 0x0791 [0x01] GOTO 0x07E9
497: 0x0794 [0x02] IF !(Work_Zone[0] == 7*) GOTO 0x07E1
498: 0x079C [0x1D] PRINT_EVENT_MESSAGE(message_id=11480*)
    → "Ah, strong walls to fend off an enemy siege. A sound suggestion, soldier."
499: 0x079F [0x23] WAIT_FOR_DIALOG_INTERACTION
500: 0x07A0 [0x24] CREATE_DIALOG(message_id=11481*, default_option=1*, option_flags=0*)
    → "Shall I record your opinion? [Yes./No.]"
501: 0x07A7 [0x25] WAIT_DIALOG_SELECT()
502: 0x07A8 [0x02] IF !(Work_Zone[0] == 0*) GOTO 0x07DE
503: 0x07B0 [0x42] SET_CLI_EVENT_CANCEL_DATA()
504: 0x07B1 [0x03] ExtData[1]->WorkLocal[1] = 7*
505: 0x07B6 [0x1D] PRINT_EVENT_MESSAGE(message_id=11453*)
    → "Alright."
506: 0x07B9 [0x23] WAIT_FOR_DIALOG_INTERACTION
507: 0x07BA [0x3C] SET_BIT_FLAG_CONDITIONAL(target_work_offset=ExtData[1]->WorkLocal[2], bit_index_work_offset=0*, condition_work_offset=1*)
508: 0x07C1 [0x0C] ExtData[1]->WorkLocal[0]--
509: 0x07C4 [0x03] Work_Zone[1] = 3*
510: 0x07C9 [0x40] SET_BIT_WORK_RANGE(start_bit=4*, end_bit=31*, target=Work_Zone[1], source=ExtData[1]->WorkLocal[1])
511: 0x07D2 [0x43] SEND_EVENT_UPDATE: Send pending tag to server (packet 0x005B)
512: 0x07D4 [0x43] SEND_EVENT_UPDATE: Check pending flag (skip if not pending)
513: 0x07D6 [0x03] ExtData[1]->WorkLocal[3] = Work_Zone[2]
514: 0x07DB [0x01] GOTO 0x07DE

SUBROUTINE_07DE:
515: 0x07DE [0x01] GOTO 0x07E9
516: 0x07E1 [0x03] ExtData[1]->WorkLocal[1] = 4294967295*
517: 0x07E6 [0x0C] ExtData[1]->WorkLocal[0]--

SUBROUTINE_07E9:
518: 0x07E9 [0x01] GOTO 0x0564
519: 0x07EC [0x1B] RETURN

SUBROUTINE_07ED:
520: 0x07ED [0x03] Work_Zone[3] = ExtData[1]->WorkLocal[6]
521: 0x07F2 [0x1D] PRINT_EVENT_MESSAGE(message_id=11482*)
    → "I seem to recall recently delivering your opinion to the praefectus."
522: 0x07F5 [0x23] WAIT_FOR_DIALOG_INTERACTION
523: 0x07F6 [0x1D] PRINT_EVENT_MESSAGE(message_id=11483*)
    → "I believe you suggested [the procurement of resources/the procurement of additional military supplies/improving logistics/better outfitting our strongholds/increased weapons production/advanced weapons development/improving public security/additional stronghold fortifications]."
524: 0x07F9 [0x23] WAIT_FOR_DIALOG_INTERACTION
525: 0x07FA [0x1B] RETURN
```

### Event 301

#### Metadata

| Field        | Value    |
|--------------|----------|
| Entrypoint   | 0x07FB   |
| Data Size    | 15 bytes |
| Instructions | 7        |

```
      00 01 02 03 04 05 06 07  08 09 0A 0B 0C 0D 0E 0F
      -- -- -- -- -- -- -- --  -- -- -- -- -- -- -- --
07F0:                                   1E F0 FF FF 7F             .....
0800: 1D 3E 80 23 1D 3F 80 23  21 00                    .>.#.?.#!.      
```

#### Opcodes

```
  0: 0x07FB [0x1E] EventEntity looks at LocalPlayer and starts talking
  1: 0x0800 [0x1D] PRINT_EVENT_MESSAGE(message_id=11437*)
    → "600 loaves of iron bread...check. 15,000 copper bullets...check. Ah--"
  2: 0x0803 [0x23] WAIT_FOR_DIALOG_INTERACTION
  3: 0x0804 [0x1D] PRINT_EVENT_MESSAGE(message_id=11438*)
    → "I am sorry, soldier, but my hands are tied at the moment. Could you return at a later date?"
  4: 0x0807 [0x23] WAIT_FOR_DIALOG_INTERACTION
  5: 0x0808 [0x21] END_EVENT
  6: 0x0809 [0x00] END_REQSTACK()
```

### Event 302

#### Metadata

| Field        | Value      |
|--------------|------------|
| Entrypoint   | 0x080A     |
| Data Size    | 1812 bytes |
| Instructions | 365        |

```
      00 01 02 03 04 05 06 07  08 09 0A 0B 0C 0D 0E 0F
      -- -- -- -- -- -- -- --  -- -- -- -- -- -- -- --
0800:                                1E F0 FF FF 7F 02            ......
0810: 0A 80 0A 80 00 4F 08 24  40 80 02 80 02 80 25 02  .....O.$@.....%.
0820: 00 10 02 80 00 2D 08 1A  07 0B 01 4C 08 02 00 10  .....-.....L....
0830: 0A 80 00 3B 08 1A 51 08  01 4C 08 02 00 10 0B 80  ...;..Q..L......
0840: 00 49 08 1A 57 0B 01 4C  08 01 4F 08 01 0F 08 21  .I..W..L..O....!
0850: 00 02 0A 80 0A 80 00 B7  0A 03 01 10 41 80 43 00  ............A.C.
0860: 43 01 03 07 00 02 10 03  08 00 03 10 03 09 00 04  C...............
0870: 10 41 02 80 0C 80 07 00  02 10 41 03 80 2C 80 07  .A........A..,..
0880: 00 03 10 41 42 80 43 80  07 00 04 10 41 44 80 45  ...AB.C.....AD.E
0890: 80 07 00 05 10 41 46 80  47 80 07 00 06 10 41 48  .....AF.G.....AH
08A0: 80 49 80 07 00 07 10 41  4A 80 4B 80 07 00 08 10  .I.....AJ.K.....
08B0: 41 4C 80 17 80 07 00 09  10 41 02 80 0C 80 08 00  AL.......A......
08C0: 00 17 41 03 80 2C 80 08  00 01 17 41 42 80 43 80  ..A..,.....AB.C.
08D0: 08 00 02 17 41 44 80 45  80 08 00 03 17 41 46 80  ....AD.E.....AF.
08E0: 47 80 08 00 04 17 41 48  80 49 80 08 00 05 17 41  G.....AH.I.....A
08F0: 4A 80 4B 80 08 00 06 17  41 4C 80 17 80 08 00 07  J.K.....AL......
0900: 17 41 02 80 0C 80 09 00  08 17 41 03 80 2C 80 09  .A........A..,..
0910: 00 09 17 41 42 80 43 80  09 00 0A 17 41 44 80 45  ...AB.C.....AD.E
0920: 80 09 00 0B 17 41 46 80  47 80 09 00 0C 17 41 48  .....AF.G.....AH
0930: 80 49 80 09 00 0D 17 41  4A 80 4B 80 09 00 0E 17  .I.....AJ.K.....
0940: 41 4C 80 17 80 09 00 0F  17 24 4D 80 02 80 02 80  AL.......$M.....
0950: 25 02 00 10 02 80 00 5F  09 1A 15 0B 01 B4 0A 02  %......_........
0960: 00 10 0A 80 00 6D 09 1A  36 0B 01 B4 0A 02 00 10  .....m..6.......
0970: 0B 80 00 78 09 01 B4 0A  02 00 10 0C 80 00 8B 09  ...x............
0980: 03 02 10 02 80 1A B8 0A  01 B4 0A 02 00 10 03 80  ................
0990: 00 9E 09 03 02 10 0A 80  1A B8 0A 01 B4 0A 02 00  ................
09A0: 10 1C 80 00 B1 09 03 02  10 0B 80 1A B8 0A 01 B4  ................
09B0: 0A 02 00 10 2A 80 00 C4  09 03 02 10 0C 80 1A B8  ....*...........
09C0: 0A 01 B4 0A 02 00 10 2C  80 00 D7 09 03 02 10 03  .......,........
09D0: 80 1A B8 0A 01 B4 0A 02  00 10 42 80 00 EA 09 03  ..........B.....
09E0: 02 10 1C 80 1A B8 0A 01  B4 0A 02 00 10 41 80 00  .............A..
09F0: FD 09 03 02 10 2A 80 1A  B8 0A 01 B4 0A 02 00 10  .....*..........
0A00: 4E 80 00 10 0A 03 02 10  2C 80 1A B8 0A 01 B4 0A  N.......,.......
0A10: 02 00 10 43 80 00 1B 0A  01 B4 0A 02 00 10 44 80  ...C..........D.
0A20: 00 2E 0A 03 02 10 42 80  1A B8 0A 01 B4 0A 02 00  ......B.........
0A30: 10 4F 80 00 41 0A 03 02  10 41 80 1A B8 0A 01 B4  .O..A....A......
0A40: 0A 02 00 10 50 80 00 54  0A 03 02 10 4E 80 1A B8  ....P..T....N...
0A50: 0A 01 B4 0A 02 00 10 45  80 00 67 0A 03 02 10 43  .......E..g....C
0A60: 80 1A B8 0A 01 B4 0A 02  00 10 46 80 00 7A 0A 03  ..........F..z..
0A70: 02 10 44 80 1A B8 0A 01  B4 0A 02 00 10 51 80 00  ..D..........Q..
0A80: 8D 0A 03 02 10 4F 80 1A  B8 0A 01 B4 0A 02 00 10  .....O..........
0A90: 52 80 00 A0 0A 03 02 10  50 80 1A B8 0A 01 B4 0A  R.......P.......
0AA0: 02 00 10 47 80 00 B3 0A  03 02 10 45 80 1A B8 0A  ...G.......E....
0AB0: 01 B4 0A 1B 01 51 08 1B  24 53 80 02 80 02 80 25  .....Q..$S.....%
0AC0: 02 00 10 02 80 00 CB 0A  01 CB 0A 02 00 10 4E 80  ..............N.
0AD0: 05 06 0B 03 01 10 2A 80  40 03 80 2C 80 01 10 02  ......*.@..,....
0AE0: 10 40 42 80 17 80 01 10  00 10 43 00 43 01 02 09  .@B.......C.C...
0AF0: 10 02 80 00 FD 0A 1D 54  80 23 01 06 0B 03 02 10  .......T.#......
0B00: 09 10 1D 55 80 23 1B 03  01 10 1C 80 43 00 43 01  ...U.#......C.C.
0B10: 1D 56 80 23 1B 24 57 80  02 80 02 80 25 02 00 10  .V.#.$W.....%...
0B20: 02 80 00 35 0B 03 01 10  2C 80 43 00 43 01 1D 58  ...5....,.C.C..X
0B30: 80 23 01 35 0B 1B 24 59  80 02 80 02 80 25 02 00  .#.5..$Y.....%..
0B40: 10 02 80 00 56 0B 03 01  10 42 80 43 00 43 01 1D  ....V....B.C.C..
0B50: 5A 80 23 01 56 0B 1B 02  0A 80 0A 80 00 9F 0E 03  Z.#.V...........
0B60: 01 10 4F 80 43 00 43 01  03 0A 00 02 10 03 0B 00  ..O.C.C.........
0B70: 03 10 03 0C 00 04 10 03  0D 00 05 10 03 01 10 50  ...............P
0B80: 80 43 00 43 01 03 0E 00  02 10 03 0F 00 03 10 03  .C.C............
0B90: 10 00 04 10 03 11 00 05  10 03 01 10 45 80 43 00  ............E.C.
0BA0: 43 01 03 12 00 02 10 03  13 00 03 10 03 14 00 04  C...............
0BB0: 10 03 15 00 05 10 41 02  80 45 80 0A 00 02 10 41  ......A..E.....A
0BC0: 46 80 17 80 0A 00 03 10  41 02 80 45 80 0B 00 04  F.......A..E....
0BD0: 10 41 46 80 17 80 0B 00  05 10 41 02 80 45 80 0C  .AF.......A..E..
0BE0: 00 06 10 41 46 80 17 80  0C 00 07 10 41 02 80 45  ...AF.......A..E
0BF0: 80 0D 00 08 10 41 46 80  17 80 0D 00 09 10 41 02  .....AF.......A.
0C00: 80 45 80 0E 00 00 17 41  46 80 17 80 0E 00 01 17  .E.....AF.......
0C10: 41 02 80 45 80 0F 00 02  17 41 46 80 17 80 0F 00  A..E.....AF.....
0C20: 03 17 41 02 80 45 80 10  00 04 17 41 46 80 17 80  ..A..E.....AF...
0C30: 10 00 05 17 41 02 80 45  80 11 00 06 17 41 46 80  ....A..E.....AF.
0C40: 17 80 11 00 07 17 41 02  80 45 80 12 00 08 17 41  ......A..E.....A
0C50: 46 80 17 80 12 00 09 17  41 02 80 45 80 13 00 0A  F.......A..E....
0C60: 17 41 46 80 17 80 13 00  0B 17 41 02 80 45 80 14  .AF.......A..E..
0C70: 00 0C 17 41 46 80 17 80  14 00 0D 17 41 02 80 45  ...AF.......A..E
0C80: 80 15 00 0E 17 41 46 80  17 80 15 00 0F 17 24 4D  .....AF.......$M
0C90: 80 02 80 02 80 25 02 00  10 02 80 00 A4 0C 1A DC  .....%..........
0CA0: 0E 01 9C 0E 02 00 10 0A  80 00 B2 0C 1A FD 0E 01  ................
0CB0: 9C 0E 02 00 10 0B 80 00  BD 0C 01 9C 0E 02 00 10  ................
0CC0: 0C 80 00 D0 0C 03 02 10  02 80 1A A0 0E 01 9C 0E  ................
0CD0: 02 00 10 03 80 00 E3 0C  03 02 10 0A 80 1A A0 0E  ................
0CE0: 01 9C 0E 02 00 10 1C 80  00 F6 0C 03 02 10 0B 80  ................
0CF0: 1A A0 0E 01 9C 0E 02 00  10 2A 80 00 09 0D 03 02  .........*......
0D00: 10 0C 80 1A A0 0E 01 9C  0E 02 00 10 2C 80 00 1C  ............,...
0D10: 0D 03 02 10 03 80 1A A0  0E 01 9C 0E 02 00 10 42  ...............B
0D20: 80 00 2F 0D 03 02 10 1C  80 1A A0 0E 01 9C 0E 02  ../.............
0D30: 00 10 41 80 00 42 0D 03  02 10 2A 80 1A A0 0E 01  ..A..B....*.....
0D40: 9C 0E 02 00 10 4E 80 00  55 0D 03 02 10 2C 80 1A  .....N..U....,..
0D50: A0 0E 01 9C 0E 02 00 10  43 80 00 60 0D 01 9C 0E  ........C..`....
0D60: 02 00 10 44 80 00 73 0D  03 02 10 42 80 1A A0 0E  ...D..s....B....
0D70: 01 9C 0E 02 00 10 4F 80  00 86 0D 03 02 10 41 80  ......O.......A.
0D80: 1A A0 0E 01 9C 0E 02 00  10 50 80 00 99 0D 03 02  .........P......
0D90: 10 4E 80 1A A0 0E 01 9C  0E 02 00 10 45 80 00 AC  .N..........E...
0DA0: 0D 03 02 10 43 80 1A A0  0E 01 9C 0E 02 00 10 46  ....C..........F
0DB0: 80 00 BF 0D 03 02 10 44  80 1A A0 0E 01 9C 0E 02  .......D........
0DC0: 00 10 51 80 00 D2 0D 03  02 10 4F 80 1A A0 0E 01  ..Q.......O.....
0DD0: 9C 0E 02 00 10 52 80 00  E5 0D 03 02 10 50 80 1A  .....R.......P..
0DE0: A0 0E 01 9C 0E 02 00 10  47 80 00 F8 0D 03 02 10  ........G.......
0DF0: 45 80 1A A0 0E 01 9C 0E  02 00 10 48 80 00 03 0E  E..........H....
0E00: 01 9C 0E 02 00 10 5B 80  00 16 0E 03 02 10 46 80  ......[.......F.
0E10: 1A A0 0E 01 9C 0E 02 00  10 5C 80 00 29 0E 03 02  .........\..)...
0E20: 10 51 80 1A A0 0E 01 9C  0E 02 00 10 49 80 00 3C  .Q..........I..<
0E30: 0E 03 02 10 52 80 1A A0  0E 01 9C 0E 02 00 10 4A  ....R..........J
0E40: 80 00 4F 0E 03 02 10 47  80 1A A0 0E 01 9C 0E 02  ..O....G........
0E50: 00 10 5D 80 00 62 0E 03  02 10 48 80 1A A0 0E 01  ..]..b....H.....
0E60: 9C 0E 02 00 10 5E 80 00  75 0E 03 02 10 5B 80 1A  .....^..u....[..
0E70: A0 0E 01 9C 0E 02 00 10  4B 80 00 88 0E 03 02 10  ........K.......
0E80: 5C 80 1A A0 0E 01 9C 0E  02 00 10 4C 80 00 9B 0E  \..........L....
0E90: 03 02 10 49 80 1A A0 0E  01 9C 0E 1B 01 57 0B 1B  ...I.........W..
0EA0: 71 10 0A 80 71 11 03 10  03 01 10 4E 80 40 03 80  q...q......N.@..
0EB0: 42 80 01 10 02 10 40 41  80 17 80 01 10 03 10 43  B.....@A.......C
0EC0: 00 43 01 02 09 10 02 80  00 D2 0E 1D 54 80 23 01  .C..........T.#.
0ED0: DB 0E 03 02 10 09 10 1D  55 80 23 1B 24 57 80 02  ........U.#.$W..
0EE0: 80 02 80 25 02 00 10 02  80 00 FC 0E 03 01 10 43  ...%...........C
0EF0: 80 43 00 43 01 1D 58 80  23 01 FC 0E 1B 24 59 80  .C.C..X.#....$Y.
0F00: 02 80 02 80 25 02 00 10  02 80 00 1D 0F 03 01 10  ....%...........
0F10: 44 80 43 00 43 01 1D 5A  80 23 01 1D 0F 1B        D.C.C..Z.#....  
```

#### Opcodes

```
  0: 0x080A [0x1E] EventEntity looks at LocalPlayer and starts talking
  1: 0x080F [0x02] IF !(1* == 1*) GOTO 0x084F
  2: 0x0817 [0x24] CREATE_DIALOG(message_id=11485*, default_option=0*, option_flags=0*)
    → "Choose! [Reset answers./Suggestion data./Vote data./Quit.]"
  3: 0x081E [0x25] WAIT_DIALOG_SELECT()
  4: 0x081F [0x02] IF !(Work_Zone[0] == 0*) GOTO 0x082D
  5: 0x0827 [0x1A] CALL_SUBROUTINE(address=0x0B07)
  6: 0x082A [0x01] GOTO 0x084C
  7: 0x082D [0x02] IF !(Work_Zone[0] == 1*) GOTO 0x083B
  8: 0x0835 [0x1A] CALL_SUBROUTINE(address=0x0851)
  9: 0x0838 [0x01] GOTO 0x084C
 10: 0x083B [0x02] IF !(Work_Zone[0] == 2*) GOTO 0x0849
 11: 0x0843 [0x1A] CALL_SUBROUTINE(address=0x0B57)
 12: 0x0846 [0x01] GOTO 0x084C
 13: 0x0849 [0x01] GOTO 0x084F

SUBROUTINE_084C:
 14: 0x084C [0x01] GOTO 0x080F

SUBROUTINE_084F:
 15: 0x084F [0x21] END_EVENT
 16: 0x0850 [0x00] END_REQSTACK()

SUBROUTINE_0851:
 17: 0x0851 [0x02] IF !(1* == 1*) GOTO 0x0AB7
 18: 0x0859 [0x03] Work_Zone[1] = 9*
 19: 0x085E [0x43] SEND_EVENT_UPDATE: Send pending tag to server (packet 0x005B)
 20: 0x0860 [0x43] SEND_EVENT_UPDATE: Check pending flag (skip if not pending)
 21: 0x0862 [0x03] ExtData[1]->WorkLocal[7] = Work_Zone[2]
 22: 0x0867 [0x03] ExtData[1]->WorkLocal[8] = Work_Zone[3]
 23: 0x086C [0x03] ExtData[1]->WorkLocal[9] = Work_Zone[4]
 24: 0x0871 [0x41] Work_Zone[2] = ExtData[1]->WorkLocal[7] (bits 0*-3*)
 25: 0x087A [0x41] Work_Zone[3] = ExtData[1]->WorkLocal[7] (bits 4*-7*)
 26: 0x0883 [0x41] Work_Zone[4] = ExtData[1]->WorkLocal[7] (bits 8*-11*)
 27: 0x088C [0x41] Work_Zone[5] = ExtData[1]->WorkLocal[7] (bits 12*-15*)
 28: 0x0895 [0x41] Work_Zone[6] = ExtData[1]->WorkLocal[7] (bits 16*-19*)
 29: 0x089E [0x41] Work_Zone[7] = ExtData[1]->WorkLocal[7] (bits 20*-23*)
 30: 0x08A7 [0x41] Work_Zone[8] = ExtData[1]->WorkLocal[7] (bits 24*-27*)
 31: 0x08B0 [0x41] Work_Zone[9] = ExtData[1]->WorkLocal[7] (bits 28*-31*)
 32: 0x08B9 [0x41] Work_Zone_1700[0] = ExtData[1]->WorkLocal[8] (bits 0*-3*)
 33: 0x08C2 [0x41] Work_Zone_1700[1] = ExtData[1]->WorkLocal[8] (bits 4*-7*)
 34: 0x08CB [0x41] Work_Zone_1700[2] = ExtData[1]->WorkLocal[8] (bits 8*-11*)
 35: 0x08D4 [0x41] Work_Zone_1700[3] = ExtData[1]->WorkLocal[8] (bits 12*-15*)
 36: 0x08DD [0x41] Work_Zone_1700[4] = ExtData[1]->WorkLocal[8] (bits 16*-19*)
 37: 0x08E6 [0x41] Work_Zone_1700[5] = ExtData[1]->WorkLocal[8] (bits 20*-23*)
 38: 0x08EF [0x41] Work_Zone_1700[6] = ExtData[1]->WorkLocal[8] (bits 24*-27*)
 39: 0x08F8 [0x41] Work_Zone_1700[7] = ExtData[1]->WorkLocal[8] (bits 28*-31*)
 40: 0x0901 [0x41] Work_Zone_1700[8] = ExtData[1]->WorkLocal[9] (bits 0*-3*)
 41: 0x090A [0x41] Work_Zone_1700[9] = ExtData[1]->WorkLocal[9] (bits 4*-7*)
 42: 0x0913 [0x41] Work_Zone_1700[10] = ExtData[1]->WorkLocal[9] (bits 8*-11*)
 43: 0x091C [0x41] Work_Zone_1700[11] = ExtData[1]->WorkLocal[9] (bits 12*-15*)
 44: 0x0925 [0x41] Work_Zone_1700[12] = ExtData[1]->WorkLocal[9] (bits 16*-19*)
 45: 0x092E [0x41] Work_Zone_1700[13] = ExtData[1]->WorkLocal[9] (bits 20*-23*)
 46: 0x0937 [0x41] Work_Zone_1700[14] = ExtData[1]->WorkLocal[9] (bits 24*-27*)
 47: 0x0940 [0x41] Work_Zone_1700[15] = ExtData[1]->WorkLocal[9] (bits 28*-31*)
 48: 0x0949 [0x24] CREATE_DIALOG(message_id=11489*, default_option=0*, option_flags=0*)
    → "Select area to change: [Randomize./Clear results./$26Battle Strategies$26/@Preemptive strike: $0/@Battleline preservation: $1/@Diversionary tactics: $2/@Stronghold reinforcement: $3/@Reconnaissance: $4/@Sabotage: $5/@Troop conditioning: $6/@Troop training: $7/$26Internal Strategies$26/@Resource procurement: $8/@Military supplies: $9/@Logistics: $10/@Stronghold outfitting: $11/@Public security: $12/@Fortification: $13/@Weapons production: $14/@Weapons development: $15/$26Generals$26/General A: $16/General B: $17/General C: $18/General D: $19/General E: $20/General F: $21/Quit.]"
 49: 0x0950 [0x25] WAIT_DIALOG_SELECT()
 50: 0x0951 [0x02] IF !(Work_Zone[0] == 0*) GOTO 0x095F
 51: 0x0959 [0x1A] CALL_SUBROUTINE(address=0x0B15)
 52: 0x095C [0x01] GOTO 0x0AB4
 53: 0x095F [0x02] IF !(Work_Zone[0] == 1*) GOTO 0x096D
 54: 0x0967 [0x1A] CALL_SUBROUTINE(address=0x0B36)
 55: 0x096A [0x01] GOTO 0x0AB4
 56: 0x096D [0x02] IF !(Work_Zone[0] == 2*) GOTO 0x0978
 57: 0x0975 [0x01] GOTO 0x0AB4
 58: 0x0978 [0x02] IF !(Work_Zone[0] == 3*) GOTO 0x098B
 59: 0x0980 [0x03] Work_Zone[2] = 0*
 60: 0x0985 [0x1A] CALL_SUBROUTINE(address=0x0AB8)
 61: 0x0988 [0x01] GOTO 0x0AB4
 62: 0x098B [0x02] IF !(Work_Zone[0] == 4*) GOTO 0x099E
 63: 0x0993 [0x03] Work_Zone[2] = 1*
 64: 0x0998 [0x1A] CALL_SUBROUTINE(address=0x0AB8)
 65: 0x099B [0x01] GOTO 0x0AB4
 66: 0x099E [0x02] IF !(Work_Zone[0] == 5*) GOTO 0x09B1
 67: 0x09A6 [0x03] Work_Zone[2] = 2*
 68: 0x09AB [0x1A] CALL_SUBROUTINE(address=0x0AB8)
 69: 0x09AE [0x01] GOTO 0x0AB4
 70: 0x09B1 [0x02] IF !(Work_Zone[0] == 6*) GOTO 0x09C4
 71: 0x09B9 [0x03] Work_Zone[2] = 3*
 72: 0x09BE [0x1A] CALL_SUBROUTINE(address=0x0AB8)
 73: 0x09C1 [0x01] GOTO 0x0AB4
 74: 0x09C4 [0x02] IF !(Work_Zone[0] == 7*) GOTO 0x09D7
 75: 0x09CC [0x03] Work_Zone[2] = 4*
 76: 0x09D1 [0x1A] CALL_SUBROUTINE(address=0x0AB8)
 77: 0x09D4 [0x01] GOTO 0x0AB4
 78: 0x09D7 [0x02] IF !(Work_Zone[0] == 8*) GOTO 0x09EA
 79: 0x09DF [0x03] Work_Zone[2] = 5*
 80: 0x09E4 [0x1A] CALL_SUBROUTINE(address=0x0AB8)
 81: 0x09E7 [0x01] GOTO 0x0AB4
 82: 0x09EA [0x02] IF !(Work_Zone[0] == 9*) GOTO 0x09FD
 83: 0x09F2 [0x03] Work_Zone[2] = 6*
 84: 0x09F7 [0x1A] CALL_SUBROUTINE(address=0x0AB8)
 85: 0x09FA [0x01] GOTO 0x0AB4
 86: 0x09FD [0x02] IF !(Work_Zone[0] == 10*) GOTO 0x0A10
 87: 0x0A05 [0x03] Work_Zone[2] = 7*
 88: 0x0A0A [0x1A] CALL_SUBROUTINE(address=0x0AB8)
 89: 0x0A0D [0x01] GOTO 0x0AB4
 90: 0x0A10 [0x02] IF !(Work_Zone[0] == 11*) GOTO 0x0A1B
 91: 0x0A18 [0x01] GOTO 0x0AB4
 92: 0x0A1B [0x02] IF !(Work_Zone[0] == 12*) GOTO 0x0A2E
 93: 0x0A23 [0x03] Work_Zone[2] = 8*
 94: 0x0A28 [0x1A] CALL_SUBROUTINE(address=0x0AB8)
 95: 0x0A2B [0x01] GOTO 0x0AB4
 96: 0x0A2E [0x02] IF !(Work_Zone[0] == 13*) GOTO 0x0A41
 97: 0x0A36 [0x03] Work_Zone[2] = 9*
 98: 0x0A3B [0x1A] CALL_SUBROUTINE(address=0x0AB8)
 99: 0x0A3E [0x01] GOTO 0x0AB4
100: 0x0A41 [0x02] IF !(Work_Zone[0] == 14*) GOTO 0x0A54
101: 0x0A49 [0x03] Work_Zone[2] = 10*
102: 0x0A4E [0x1A] CALL_SUBROUTINE(address=0x0AB8)
103: 0x0A51 [0x01] GOTO 0x0AB4
104: 0x0A54 [0x02] IF !(Work_Zone[0] == 15*) GOTO 0x0A67
105: 0x0A5C [0x03] Work_Zone[2] = 11*
106: 0x0A61 [0x1A] CALL_SUBROUTINE(address=0x0AB8)
107: 0x0A64 [0x01] GOTO 0x0AB4
108: 0x0A67 [0x02] IF !(Work_Zone[0] == 16*) GOTO 0x0A7A
109: 0x0A6F [0x03] Work_Zone[2] = 12*
110: 0x0A74 [0x1A] CALL_SUBROUTINE(address=0x0AB8)
111: 0x0A77 [0x01] GOTO 0x0AB4
112: 0x0A7A [0x02] IF !(Work_Zone[0] == 17*) GOTO 0x0A8D
113: 0x0A82 [0x03] Work_Zone[2] = 13*
114: 0x0A87 [0x1A] CALL_SUBROUTINE(address=0x0AB8)
115: 0x0A8A [0x01] GOTO 0x0AB4
116: 0x0A8D [0x02] IF !(Work_Zone[0] == 18*) GOTO 0x0AA0
117: 0x0A95 [0x03] Work_Zone[2] = 14*
118: 0x0A9A [0x1A] CALL_SUBROUTINE(address=0x0AB8)
119: 0x0A9D [0x01] GOTO 0x0AB4
120: 0x0AA0 [0x02] IF !(Work_Zone[0] == 19*) GOTO 0x0AB3
121: 0x0AA8 [0x03] Work_Zone[2] = 15*
122: 0x0AAD [0x1A] CALL_SUBROUTINE(address=0x0AB8)
123: 0x0AB0 [0x01] GOTO 0x0AB4
124: 0x0AB3 [0x1B] RETURN

SUBROUTINE_0AB4:
125: 0x0AB4 [0x01] GOTO 0x0851
126: 0x0AB7 [0x1B] RETURN

SUBROUTINE_0AB8:
127: 0x0AB8 [0x24] CREATE_DIALOG(message_id=11490*, default_option=0*, option_flags=0*)
    → "Select Value: [0 (Low)/1""/4/5/6/7/8/9/10 (High)/Quit.]"
128: 0x0ABF [0x25] WAIT_DIALOG_SELECT()
129: 0x0AC0 [0x02] IF !(Work_Zone[0] == 0*) GOTO 0x0ACB
130: 0x0AC8 [0x01] GOTO 0x0ACB

SUBROUTINE_0ACB:
131: 0x0ACB [0x02] IF !(Work_Zone[0] > 10*) GOTO 0x0B06
132: 0x0AD3 [0x03] Work_Zone[1] = 6*
133: 0x0AD8 [0x40] SET_BIT_WORK_RANGE(start_bit=4*, end_bit=7*, target=Work_Zone[1], source=Work_Zone[2])
134: 0x0AE1 [0x40] SET_BIT_WORK_RANGE(start_bit=8*, end_bit=31*, target=Work_Zone[1], source=Work_Zone[0])
135: 0x0AEA [0x43] SEND_EVENT_UPDATE: Send pending tag to server (packet 0x005B)
136: 0x0AEC [0x43] SEND_EVENT_UPDATE: Check pending flag (skip if not pending)
137: 0x0AEE [0x02] IF !(Work_Zone[9] == 0*) GOTO 0x0AFD
138: 0x0AF6 [0x1D] PRINT_EVENT_MESSAGE(message_id=11491*)
    → "[Preemptive strike/Battleline preservation/Diversionary tactics/Stronghold reinforcement/Reconnaissance/Sabotage/Troop conditioning/Troop training/Resource procurement/Military supplies/Logistics/Stronghold outfitting/Public security/Stronghold fortification/Weapons production/Weapons development/General A/General B/General C/General D/General E/General F] set to $1."
139: 0x0AF9 [0x23] WAIT_FOR_DIALOG_INTERACTION
140: 0x0AFA [0x01] GOTO 0x0B06
141: 0x0AFD [0x03] Work_Zone[2] = Work_Zone[9]
142: 0x0B02 [0x1D] PRINT_EVENT_MESSAGE(message_id=11494*)
    → "Error! ($0j"
143: 0x0B05 [0x23] WAIT_FOR_DIALOG_INTERACTION

SUBROUTINE_0B06:
144: 0x0B06 [0x1B] RETURN

SUBROUTINE_0B07:
145: 0x0B07 [0x03] Work_Zone[1] = 5*
146: 0x0B0C [0x43] SEND_EVENT_UPDATE: Send pending tag to server (packet 0x005B)
147: 0x0B0E [0x43] SEND_EVENT_UPDATE: Check pending flag (skip if not pending)
148: 0x0B10 [0x1D] PRINT_EVENT_MESSAGE(message_id=11486*)
    → "Answers RESET!"
149: 0x0B13 [0x23] WAIT_FOR_DIALOG_INTERACTION
150: 0x0B14 [0x1B] RETURN

SUBROUTINE_0B15:
151: 0x0B15 [0x24] CREATE_DIALOG(message_id=11487*, default_option=0*, option_flags=0*)
    → "Randomize? [Yes./No.]"
152: 0x0B1C [0x25] WAIT_DIALOG_SELECT()
153: 0x0B1D [0x02] IF !(Work_Zone[0] == 0*) GOTO 0x0B35
154: 0x0B25 [0x03] Work_Zone[1] = 7*
155: 0x0B2A [0x43] SEND_EVENT_UPDATE: Send pending tag to server (packet 0x005B)
156: 0x0B2C [0x43] SEND_EVENT_UPDATE: Check pending flag (skip if not pending)
157: 0x0B2E [0x1D] PRINT_EVENT_MESSAGE(message_id=11488*)
    → "Randomization complete."
158: 0x0B31 [0x23] WAIT_FOR_DIALOG_INTERACTION
159: 0x0B32 [0x01] GOTO 0x0B35

SUBROUTINE_0B35:
160: 0x0B35 [0x1B] RETURN

SUBROUTINE_0B36:
161: 0x0B36 [0x24] CREATE_DIALOG(message_id=11492*, default_option=0*, option_flags=0*)
    → "Are you sure? [Yeah./No.]"
162: 0x0B3D [0x25] WAIT_DIALOG_SELECT()
163: 0x0B3E [0x02] IF !(Work_Zone[0] == 0*) GOTO 0x0B56
164: 0x0B46 [0x03] Work_Zone[1] = 8*
165: 0x0B4B [0x43] SEND_EVENT_UPDATE: Send pending tag to server (packet 0x005B)
166: 0x0B4D [0x43] SEND_EVENT_UPDATE: Check pending flag (skip if not pending)
167: 0x0B4F [0x1D] PRINT_EVENT_MESSAGE(message_id=11493*)
    → "All cleared!"
168: 0x0B52 [0x23] WAIT_FOR_DIALOG_INTERACTION
169: 0x0B53 [0x01] GOTO 0x0B56

SUBROUTINE_0B56:
170: 0x0B56 [0x1B] RETURN

SUBROUTINE_0B57:
171: 0x0B57 [0x02] IF !(1* == 1*) GOTO 0x0E9F
172: 0x0B5F [0x03] Work_Zone[1] = 13*
173: 0x0B64 [0x43] SEND_EVENT_UPDATE: Send pending tag to server (packet 0x005B)
174: 0x0B66 [0x43] SEND_EVENT_UPDATE: Check pending flag (skip if not pending)
175: 0x0B68 [0x03] ExtData[1]->WorkLocal[10] = Work_Zone[2]
176: 0x0B6D [0x03] ExtData[1]->WorkLocal[11] = Work_Zone[3]
177: 0x0B72 [0x03] ExtData[1]->WorkLocal[12] = Work_Zone[4]
178: 0x0B77 [0x03] ExtData[1]->WorkLocal[13] = Work_Zone[5]
179: 0x0B7C [0x03] Work_Zone[1] = 14*
180: 0x0B81 [0x43] SEND_EVENT_UPDATE: Send pending tag to server (packet 0x005B)
181: 0x0B83 [0x43] SEND_EVENT_UPDATE: Check pending flag (skip if not pending)
182: 0x0B85 [0x03] ExtData[1]->WorkLocal[14] = Work_Zone[2]
183: 0x0B8A [0x03] ExtData[1]->WorkLocal[15] = Work_Zone[3]
184: 0x0B8F [0x03] ExtData[1]->WorkLocal[16] = Work_Zone[4]
185: 0x0B94 [0x03] ExtData[1]->WorkLocal[17] = Work_Zone[5]
186: 0x0B99 [0x03] Work_Zone[1] = 15*
187: 0x0B9E [0x43] SEND_EVENT_UPDATE: Send pending tag to server (packet 0x005B)
188: 0x0BA0 [0x43] SEND_EVENT_UPDATE: Check pending flag (skip if not pending)
189: 0x0BA2 [0x03] ExtData[1]->WorkLocal[18] = Work_Zone[2]
190: 0x0BA7 [0x03] ExtData[1]->WorkLocal[19] = Work_Zone[3]
191: 0x0BAC [0x03] ExtData[1]->WorkLocal[20] = Work_Zone[4]
192: 0x0BB1 [0x03] ExtData[1]->WorkLocal[21] = Work_Zone[5]
193: 0x0BB6 [0x41] Work_Zone[2] = ExtData[1]->WorkLocal[10] (bits 0*-15*)
194: 0x0BBF [0x41] Work_Zone[3] = ExtData[1]->WorkLocal[10] (bits 16*-31*)
195: 0x0BC8 [0x41] Work_Zone[4] = ExtData[1]->WorkLocal[11] (bits 0*-15*)
196: 0x0BD1 [0x41] Work_Zone[5] = ExtData[1]->WorkLocal[11] (bits 16*-31*)
197: 0x0BDA [0x41] Work_Zone[6] = ExtData[1]->WorkLocal[12] (bits 0*-15*)
198: 0x0BE3 [0x41] Work_Zone[7] = ExtData[1]->WorkLocal[12] (bits 16*-31*)
199: 0x0BEC [0x41] Work_Zone[8] = ExtData[1]->WorkLocal[13] (bits 0*-15*)
200: 0x0BF5 [0x41] Work_Zone[9] = ExtData[1]->WorkLocal[13] (bits 16*-31*)
201: 0x0BFE [0x41] Work_Zone_1700[0] = ExtData[1]->WorkLocal[14] (bits 0*-15*)
202: 0x0C07 [0x41] Work_Zone_1700[1] = ExtData[1]->WorkLocal[14] (bits 16*-31*)
203: 0x0C10 [0x41] Work_Zone_1700[2] = ExtData[1]->WorkLocal[15] (bits 0*-15*)
204: 0x0C19 [0x41] Work_Zone_1700[3] = ExtData[1]->WorkLocal[15] (bits 16*-31*)
205: 0x0C22 [0x41] Work_Zone_1700[4] = ExtData[1]->WorkLocal[16] (bits 0*-15*)
206: 0x0C2B [0x41] Work_Zone_1700[5] = ExtData[1]->WorkLocal[16] (bits 16*-31*)
207: 0x0C34 [0x41] Work_Zone_1700[6] = ExtData[1]->WorkLocal[17] (bits 0*-15*)
208: 0x0C3D [0x41] Work_Zone_1700[7] = ExtData[1]->WorkLocal[17] (bits 16*-31*)
209: 0x0C46 [0x41] Work_Zone_1700[8] = ExtData[1]->WorkLocal[18] (bits 0*-15*)
210: 0x0C4F [0x41] Work_Zone_1700[9] = ExtData[1]->WorkLocal[18] (bits 16*-31*)
211: 0x0C58 [0x41] Work_Zone_1700[10] = ExtData[1]->WorkLocal[19] (bits 0*-15*)
212: 0x0C61 [0x41] Work_Zone_1700[11] = ExtData[1]->WorkLocal[19] (bits 16*-31*)
213: 0x0C6A [0x41] Work_Zone_1700[12] = ExtData[1]->WorkLocal[20] (bits 0*-15*)
214: 0x0C73 [0x41] Work_Zone_1700[13] = ExtData[1]->WorkLocal[20] (bits 16*-31*)
215: 0x0C7C [0x41] Work_Zone_1700[14] = ExtData[1]->WorkLocal[21] (bits 0*-15*)
216: 0x0C85 [0x41] Work_Zone_1700[15] = ExtData[1]->WorkLocal[21] (bits 16*-31*)
217: 0x0C8E [0x24] CREATE_DIALOG(message_id=11489*, default_option=0*, option_flags=0*)
    → "Select area to change: [Randomize./Clear results./$26Battle Strategies$26/@Preemptive strike: $0/@Battleline preservation: $1/@Diversionary tactics: $2/@Stronghold reinforcement: $3/@Reconnaissance: $4/@Sabotage: $5/@Troop conditioning: $6/@Troop training: $7/$26Internal Strategies$26/@Resource procurement: $8/@Military supplies: $9/@Logistics: $10/@Stronghold outfitting: $11/@Public security: $12/@Fortification: $13/@Weapons production: $14/@Weapons development: $15/$26Generals$26/General A: $16/General B: $17/General C: $18/General D: $19/General E: $20/General F: $21/Quit.]"
218: 0x0C95 [0x25] WAIT_DIALOG_SELECT()
219: 0x0C96 [0x02] IF !(Work_Zone[0] == 0*) GOTO 0x0CA4
220: 0x0C9E [0x1A] CALL_SUBROUTINE(address=0x0EDC)
221: 0x0CA1 [0x01] GOTO 0x0E9C
222: 0x0CA4 [0x02] IF !(Work_Zone[0] == 1*) GOTO 0x0CB2
223: 0x0CAC [0x1A] CALL_SUBROUTINE(address=0x0EFD)
224: 0x0CAF [0x01] GOTO 0x0E9C
225: 0x0CB2 [0x02] IF !(Work_Zone[0] == 2*) GOTO 0x0CBD
226: 0x0CBA [0x01] GOTO 0x0E9C
227: 0x0CBD [0x02] IF !(Work_Zone[0] == 3*) GOTO 0x0CD0
228: 0x0CC5 [0x03] Work_Zone[2] = 0*
229: 0x0CCA [0x1A] CALL_SUBROUTINE(address=0x0EA0)
230: 0x0CCD [0x01] GOTO 0x0E9C
231: 0x0CD0 [0x02] IF !(Work_Zone[0] == 4*) GOTO 0x0CE3
232: 0x0CD8 [0x03] Work_Zone[2] = 1*
233: 0x0CDD [0x1A] CALL_SUBROUTINE(address=0x0EA0)
234: 0x0CE0 [0x01] GOTO 0x0E9C
235: 0x0CE3 [0x02] IF !(Work_Zone[0] == 5*) GOTO 0x0CF6
236: 0x0CEB [0x03] Work_Zone[2] = 2*
237: 0x0CF0 [0x1A] CALL_SUBROUTINE(address=0x0EA0)
238: 0x0CF3 [0x01] GOTO 0x0E9C
239: 0x0CF6 [0x02] IF !(Work_Zone[0] == 6*) GOTO 0x0D09
240: 0x0CFE [0x03] Work_Zone[2] = 3*
241: 0x0D03 [0x1A] CALL_SUBROUTINE(address=0x0EA0)
242: 0x0D06 [0x01] GOTO 0x0E9C
243: 0x0D09 [0x02] IF !(Work_Zone[0] == 7*) GOTO 0x0D1C
244: 0x0D11 [0x03] Work_Zone[2] = 4*
245: 0x0D16 [0x1A] CALL_SUBROUTINE(address=0x0EA0)
246: 0x0D19 [0x01] GOTO 0x0E9C
247: 0x0D1C [0x02] IF !(Work_Zone[0] == 8*) GOTO 0x0D2F
248: 0x0D24 [0x03] Work_Zone[2] = 5*
249: 0x0D29 [0x1A] CALL_SUBROUTINE(address=0x0EA0)
250: 0x0D2C [0x01] GOTO 0x0E9C
251: 0x0D2F [0x02] IF !(Work_Zone[0] == 9*) GOTO 0x0D42
252: 0x0D37 [0x03] Work_Zone[2] = 6*
253: 0x0D3C [0x1A] CALL_SUBROUTINE(address=0x0EA0)
254: 0x0D3F [0x01] GOTO 0x0E9C
255: 0x0D42 [0x02] IF !(Work_Zone[0] == 10*) GOTO 0x0D55
256: 0x0D4A [0x03] Work_Zone[2] = 7*
257: 0x0D4F [0x1A] CALL_SUBROUTINE(address=0x0EA0)
258: 0x0D52 [0x01] GOTO 0x0E9C
259: 0x0D55 [0x02] IF !(Work_Zone[0] == 11*) GOTO 0x0D60
260: 0x0D5D [0x01] GOTO 0x0E9C
261: 0x0D60 [0x02] IF !(Work_Zone[0] == 12*) GOTO 0x0D73
262: 0x0D68 [0x03] Work_Zone[2] = 8*
263: 0x0D6D [0x1A] CALL_SUBROUTINE(address=0x0EA0)
264: 0x0D70 [0x01] GOTO 0x0E9C
265: 0x0D73 [0x02] IF !(Work_Zone[0] == 13*) GOTO 0x0D86
266: 0x0D7B [0x03] Work_Zone[2] = 9*
267: 0x0D80 [0x1A] CALL_SUBROUTINE(address=0x0EA0)
268: 0x0D83 [0x01] GOTO 0x0E9C
269: 0x0D86 [0x02] IF !(Work_Zone[0] == 14*) GOTO 0x0D99
270: 0x0D8E [0x03] Work_Zone[2] = 10*
271: 0x0D93 [0x1A] CALL_SUBROUTINE(address=0x0EA0)
272: 0x0D96 [0x01] GOTO 0x0E9C
273: 0x0D99 [0x02] IF !(Work_Zone[0] == 15*) GOTO 0x0DAC
274: 0x0DA1 [0x03] Work_Zone[2] = 11*
275: 0x0DA6 [0x1A] CALL_SUBROUTINE(address=0x0EA0)
276: 0x0DA9 [0x01] GOTO 0x0E9C
277: 0x0DAC [0x02] IF !(Work_Zone[0] == 16*) GOTO 0x0DBF
278: 0x0DB4 [0x03] Work_Zone[2] = 12*
279: 0x0DB9 [0x1A] CALL_SUBROUTINE(address=0x0EA0)
280: 0x0DBC [0x01] GOTO 0x0E9C
281: 0x0DBF [0x02] IF !(Work_Zone[0] == 17*) GOTO 0x0DD2
282: 0x0DC7 [0x03] Work_Zone[2] = 13*
283: 0x0DCC [0x1A] CALL_SUBROUTINE(address=0x0EA0)
284: 0x0DCF [0x01] GOTO 0x0E9C
285: 0x0DD2 [0x02] IF !(Work_Zone[0] == 18*) GOTO 0x0DE5
286: 0x0DDA [0x03] Work_Zone[2] = 14*
287: 0x0DDF [0x1A] CALL_SUBROUTINE(address=0x0EA0)
288: 0x0DE2 [0x01] GOTO 0x0E9C
289: 0x0DE5 [0x02] IF !(Work_Zone[0] == 19*) GOTO 0x0DF8
290: 0x0DED [0x03] Work_Zone[2] = 15*
291: 0x0DF2 [0x1A] CALL_SUBROUTINE(address=0x0EA0)
292: 0x0DF5 [0x01] GOTO 0x0E9C
293: 0x0DF8 [0x02] IF !(Work_Zone[0] == 20*) GOTO 0x0E03
294: 0x0E00 [0x01] GOTO 0x0E9C
295: 0x0E03 [0x02] IF !(Work_Zone[0] == 21*) GOTO 0x0E16
296: 0x0E0B [0x03] Work_Zone[2] = 16*
297: 0x0E10 [0x1A] CALL_SUBROUTINE(address=0x0EA0)
298: 0x0E13 [0x01] GOTO 0x0E9C
299: 0x0E16 [0x02] IF !(Work_Zone[0] == 22*) GOTO 0x0E29
300: 0x0E1E [0x03] Work_Zone[2] = 17*
301: 0x0E23 [0x1A] CALL_SUBROUTINE(address=0x0EA0)
302: 0x0E26 [0x01] GOTO 0x0E9C
303: 0x0E29 [0x02] IF !(Work_Zone[0] == 23*) GOTO 0x0E3C
304: 0x0E31 [0x03] Work_Zone[2] = 18*
305: 0x0E36 [0x1A] CALL_SUBROUTINE(address=0x0EA0)
306: 0x0E39 [0x01] GOTO 0x0E9C
307: 0x0E3C [0x02] IF !(Work_Zone[0] == 24*) GOTO 0x0E4F
308: 0x0E44 [0x03] Work_Zone[2] = 19*
309: 0x0E49 [0x1A] CALL_SUBROUTINE(address=0x0EA0)
310: 0x0E4C [0x01] GOTO 0x0E9C
311: 0x0E4F [0x02] IF !(Work_Zone[0] == 25*) GOTO 0x0E62
312: 0x0E57 [0x03] Work_Zone[2] = 20*
313: 0x0E5C [0x1A] CALL_SUBROUTINE(address=0x0EA0)
314: 0x0E5F [0x01] GOTO 0x0E9C
315: 0x0E62 [0x02] IF !(Work_Zone[0] == 26*) GOTO 0x0E75
316: 0x0E6A [0x03] Work_Zone[2] = 21*
317: 0x0E6F [0x1A] CALL_SUBROUTINE(address=0x0EA0)
318: 0x0E72 [0x01] GOTO 0x0E9C
319: 0x0E75 [0x02] IF !(Work_Zone[0] == 27*) GOTO 0x0E88
320: 0x0E7D [0x03] Work_Zone[2] = 22*
321: 0x0E82 [0x1A] CALL_SUBROUTINE(address=0x0EA0)
322: 0x0E85 [0x01] GOTO 0x0E9C
323: 0x0E88 [0x02] IF !(Work_Zone[0] == 28*) GOTO 0x0E9B
324: 0x0E90 [0x03] Work_Zone[2] = 23*
325: 0x0E95 [0x1A] CALL_SUBROUTINE(address=0x0EA0)
326: 0x0E98 [0x01] GOTO 0x0E9C
327: 0x0E9B [0x1B] RETURN

SUBROUTINE_0E9C:
328: 0x0E9C [0x01] GOTO 0x0B57
329: 0x0E9F [0x1B] RETURN

SUBROUTINE_0EA0:
330: 0x0EA0 [0x71] USER_INPUT_HANDLER: Open numerical input dialog (work=1*)
331: 0x0EA4 [0x71] USER_INPUT_HANDLER: Process numerical input A (work=Work_Zone[3])
332: 0x0EA8 [0x03] Work_Zone[1] = 10*
333: 0x0EAD [0x40] SET_BIT_WORK_RANGE(start_bit=4*, end_bit=8*, target=Work_Zone[1], source=Work_Zone[2])
334: 0x0EB6 [0x40] SET_BIT_WORK_RANGE(start_bit=9*, end_bit=31*, target=Work_Zone[1], source=Work_Zone[3])
335: 0x0EBF [0x43] SEND_EVENT_UPDATE: Send pending tag to server (packet 0x005B)
336: 0x0EC1 [0x43] SEND_EVENT_UPDATE: Check pending flag (skip if not pending)
337: 0x0EC3 [0x02] IF !(Work_Zone[9] == 0*) GOTO 0x0ED2
338: 0x0ECB [0x1D] PRINT_EVENT_MESSAGE(message_id=11491*)
    → "[Preemptive strike/Battleline preservation/Diversionary tactics/Stronghold reinforcement/Reconnaissance/Sabotage/Troop conditioning/Troop training/Resource procurement/Military supplies/Logistics/Stronghold outfitting/Public security/Stronghold fortification/Weapons production/Weapons development/General A/General B/General C/General D/General E/General F] set to $1."
339: 0x0ECE [0x23] WAIT_FOR_DIALOG_INTERACTION
340: 0x0ECF [0x01] GOTO 0x0EDB
341: 0x0ED2 [0x03] Work_Zone[2] = Work_Zone[9]
342: 0x0ED7 [0x1D] PRINT_EVENT_MESSAGE(message_id=11494*)
    → "Error! ($0j"
343: 0x0EDA [0x23] WAIT_FOR_DIALOG_INTERACTION

SUBROUTINE_0EDB:
344: 0x0EDB [0x1B] RETURN

SUBROUTINE_0EDC:
345: 0x0EDC [0x24] CREATE_DIALOG(message_id=11487*, default_option=0*, option_flags=0*)
    → "Randomize? [Yes./No.]"
346: 0x0EE3 [0x25] WAIT_DIALOG_SELECT()
347: 0x0EE4 [0x02] IF !(Work_Zone[0] == 0*) GOTO 0x0EFC
348: 0x0EEC [0x03] Work_Zone[1] = 11*
349: 0x0EF1 [0x43] SEND_EVENT_UPDATE: Send pending tag to server (packet 0x005B)
350: 0x0EF3 [0x43] SEND_EVENT_UPDATE: Check pending flag (skip if not pending)
351: 0x0EF5 [0x1D] PRINT_EVENT_MESSAGE(message_id=11488*)
    → "Randomization complete."
352: 0x0EF8 [0x23] WAIT_FOR_DIALOG_INTERACTION
353: 0x0EF9 [0x01] GOTO 0x0EFC

SUBROUTINE_0EFC:
354: 0x0EFC [0x1B] RETURN

SUBROUTINE_0EFD:
355: 0x0EFD [0x24] CREATE_DIALOG(message_id=11492*, default_option=0*, option_flags=0*)
    → "Are you sure? [Yeah./No.]"
356: 0x0F04 [0x25] WAIT_DIALOG_SELECT()
357: 0x0F05 [0x02] IF !(Work_Zone[0] == 0*) GOTO 0x0F1D
358: 0x0F0D [0x03] Work_Zone[1] = 12*
359: 0x0F12 [0x43] SEND_EVENT_UPDATE: Send pending tag to server (packet 0x005B)
360: 0x0F14 [0x43] SEND_EVENT_UPDATE: Check pending flag (skip if not pending)
361: 0x0F16 [0x1D] PRINT_EVENT_MESSAGE(message_id=11493*)
    → "All cleared!"
362: 0x0F19 [0x23] WAIT_FOR_DIALOG_INTERACTION
363: 0x0F1A [0x01] GOTO 0x0F1D

SUBROUTINE_0F1D:
364: 0x0F1D [0x1B] RETURN
```

### Event 139

#### Metadata

| Field        | Value   |
|--------------|---------|
| Entrypoint   | 0x0F1E  |
| Data Size    | 7 bytes |
| Instructions | 2       |

```
      00 01 02 03 04 05 06 07  08 09 0A 0B 0C 0D 0E 0F
      -- -- -- -- -- -- -- --  -- -- -- -- -- -- -- --
0F10:                                            92 01                ..
0F20: F8 FF FF 7F 00                                    .....           
```

#### Opcodes

```
  0: 0x0F1E [0x92] EventEntity->Render.Flags3 ^= 0x01
  1: 0x0F24 [0x00] END_REQSTACK()
```

### Event 143

#### Metadata

| Field        | Value   |
|--------------|---------|
| Entrypoint   | 0x0F25  |
| Data Size    | 7 bytes |
| Instructions | 2       |

```
      00 01 02 03 04 05 06 07  08 09 0A 0B 0C 0D 0E 0F
      -- -- -- -- -- -- -- --  -- -- -- -- -- -- -- --
0F20:                92 01 F8  FF FF 7F 00                   .......    
```

#### Opcodes

```
  0: 0x0F25 [0x92] EventEntity->Render.Flags3 ^= 0x01
  1: 0x0F2B [0x00] END_REQSTACK()
```

### Event 359

#### Metadata

| Field        | Value   |
|--------------|---------|
| Entrypoint   | 0x0F2C  |
| Data Size    | 1 bytes |
| Instructions | 1       |

```
      00 01 02 03 04 05 06 07  08 09 0A 0B 0C 0D 0E 0F
      -- -- -- -- -- -- -- --  -- -- -- -- -- -- -- --
0F20:                                      00                       .   
```

#### Opcodes

```
  0: 0x0F2C [0x00] END_REQSTACK()
```

### Event 360

#### Metadata

| Field        | Value   |
|--------------|---------|
| Entrypoint   | 0x0F2D  |
| Data Size    | 1 bytes |
| Instructions | 1       |

```
      00 01 02 03 04 05 06 07  08 09 0A 0B 0C 0D 0E 0F
      -- -- -- -- -- -- -- --  -- -- -- -- -- -- -- --
0F20:                                         00                     .  
```

#### Opcodes

```
  0: 0x0F2D [0x00] END_REQSTACK()
```

### Event 65535.1

#### Metadata

| Field        | Value    |
|--------------|----------|
| Entrypoint   | 0x0F2E   |
| Data Size    | 13 bytes |
| Instructions | 3        |

```
      00 01 02 03 04 05 06 07  08 09 0A 0B 0C 0D 0E 0F
      -- -- -- -- -- -- -- --  -- -- -- -- -- -- -- --
0F20:                                            6E F8                n.
0F30: FF FF 7F 5F 80 99 F8 FF  FF 7F 00                 ..._.......     
```

#### Opcodes

```
  0: 0x0F2E [0x6E] EventEntity uses emote 258*
  1: 0x0F35 [0x99] Wait for EventEntity animation to complete
  2: 0x0F3A [0x00] END_REQSTACK()
```
