# 17134245 - Lilisette

## Common Data

| Field            | Value                       |
|------------------|-----------------------------|
| Zone             | Bastok Markets [S] (ID: 87) |
| Block Size       | 652 bytes                   |
| Total Events     | 25                          |
| References Count | 41                          |

## List of Events

| Event ID                   | Entrypoint   |   Size |   Instructions |
|----------------------------|--------------|--------|----------------|
| [65535](#event-65535)      | 0x0000       |      1 |              1 |
| [65535.1](#event-655351)   | 0x0001       |      1 |              1 |
| [65535.2](#event-655352)   | 0x0002       |     18 |              4 |
| [65535.3](#event-655353)   | 0x0014       |     10 |              2 |
| [65535.4](#event-655354)   | 0x001E       |      9 |              3 |
| [65535.5](#event-655355)   | 0x0027       |      9 |              3 |
| [65535.6](#event-655356)   | 0x0030       |     10 |              2 |
| [65535.7](#event-655357)   | 0x003A       |     10 |              2 |
| [175](#event-175)          | 0x0044       |      1 |              1 |
| [176](#event-176)          | 0x0045       |      1 |              1 |
| [358](#event-358)          | 0x0046       |      1 |              1 |
| [359](#event-359)          | 0x0047       |      1 |              1 |
| [360](#event-360)          | 0x0048       |      1 |              1 |
| [65535.8](#event-655358)   | 0x0049       |     10 |              2 |
| [65535.9](#event-655359)   | 0x0053       |     10 |              2 |
| [65535.10](#event-6553510) | 0x005D       |     15 |              5 |
| [65535.11](#event-6553511) | 0x006C       |     24 |              6 |
| [65535.12](#event-6553512) | 0x0084       |     14 |              4 |
| [65535.13](#event-6553513) | 0x0092       |     24 |              6 |
| [65535.14](#event-6553514) | 0x00AA       |     38 |              6 |
| [65535.15](#event-6553515) | 0x00D0       |     19 |              4 |
| [65535.16](#event-6553516) | 0x00E3       |     42 |              9 |
| [65535.17](#event-6553517) | 0x010D       |     54 |             10 |
| [65535.18](#event-6553518) | 0x0143       |     19 |              4 |
| [65535.19](#event-6553519) | 0x0156       |     29 |              5 |

## DAT References (imed_data)

|   Index | Hex Value   |   Dec Value |
|---------|-------------|-------------|
|       0 | 0x0000      |           0 |
|       1 | 0x0001      |           1 |
|       2 | 0x0080      |         128 |
|       3 | 0x0026      |          38 |
|       4 | 0xFFFC730A  |  4294734602 |
|       5 | 0x15B75     |       88949 |
|       6 | 0xFFFC65FE  |  4294731262 |
|       7 | 0x151E4     |       86500 |
|       8 | 0xFFFC431C  |  4294722332 |
|       9 | 0x1390F     |       80143 |
|      10 | 0xFFFC1627  |  4294710823 |
|      11 | 0xFFFF62A8  |  4294927016 |
|      12 | 0xFFFFD121  |  4294955297 |
|      13 | 0xFFFB2332  |  4294648626 |
|      14 | 0xFFFED6BB  |  4294891195 |
|      15 | 0xFFFFD120  |  4294955296 |
|      16 | 0xFFFB4DC8  |  4294659528 |
|      17 | 0xFFFEF669  |  4294899305 |
|      18 | 0x000D      |          13 |
|      19 | 0xFFFCD575  |  4294759797 |
|      20 | 0x74F9      |       29945 |
|      21 | 0xFFFFE0C1  |  4294959297 |
|      22 | 0x000C      |          12 |
|      23 | 0xFFFCED14  |  4294765844 |
|      24 | 0x6536      |       25910 |
|      25 | 0xFFFFE0C0  |  4294959296 |
|      26 | 0x1493C     |       84284 |
|      27 | 0x03C8      |         968 |
|      28 | 0xFFFFB3B4  |  4294947764 |
|      29 | 0x15F1F     |       89887 |
|      30 | 0x046D      |        1133 |
|      31 | 0x18061     |       98401 |
|      32 | 0x0098      |         152 |
|      33 | 0xFFFFB136  |  4294947126 |
|      34 | 0x18D9D     |      101789 |
|      35 | 0x0488      |        1160 |
|      36 | 0xFFFCEE5B  |  4294766171 |
|      37 | 0x322B      |       12843 |
|      38 | 0xFFFFD8F2  |  4294957298 |
|      39 | 0xFFFCA505  |  4294747397 |
|      40 | 0x7912      |       30994 |

## Events

### Event 65535

#### Metadata

| Field        | Value   |
|--------------|---------|
| Entrypoint   | 0x0000  |
| Data Size    | 1 bytes |
| Instructions | 1       |

```
      00 01 02 03 04 05 06 07  08 09 0A 0B 0C 0D 0E 0F
      -- -- -- -- -- -- -- --  -- -- -- -- -- -- -- --
0000: 00                                                .               
```

#### Opcodes

```
  0: 0x0000 [0x00] END_REQSTACK()
```

### Event 65535.1

#### Metadata

| Field        | Value   |
|--------------|---------|
| Entrypoint   | 0x0001  |
| Data Size    | 1 bytes |
| Instructions | 1       |

```
      00 01 02 03 04 05 06 07  08 09 0A 0B 0C 0D 0E 0F
      -- -- -- -- -- -- -- --  -- -- -- -- -- -- -- --
0000:    00                                              .              
```

#### Opcodes

```
  0: 0x0001 [0x00] END_REQSTACK()
```

### Event 65535.2

#### Metadata

| Field        | Value    |
|--------------|----------|
| Entrypoint   | 0x0002   |
| Data Size    | 18 bytes |
| Instructions | 4        |

```
      00 01 02 03 04 05 06 07  08 09 0A 0B 0C 0D 0E 0F
      -- -- -- -- -- -- -- --  -- -- -- -- -- -- -- --
0000:       22 00 2F 00 F8 FF  FF 7F 6C F8 FF FF 7F 00    "./.....l.....
0010: 80 01 80 00                                       ....            
```

#### Opcodes

```
  0: 0x0002 [0x22] ENTITY_HIDE_FLAG(enabled=0x00)
  1: 0x0004 [0x2F] EventEntity->Render.Flags0 &= ~0x80000 // Bit 19
  2: 0x000A [0x6C] FADE_ENTITY_COLOR(entity_id=EventEntity, end_alpha=0*, fade_time=1*)
  3: 0x0013 [0x00] END_REQSTACK()
```

### Event 65535.3

#### Metadata

| Field        | Value    |
|--------------|----------|
| Entrypoint   | 0x0014   |
| Data Size    | 10 bytes |
| Instructions | 2        |

```
      00 01 02 03 04 05 06 07  08 09 0A 0B 0C 0D 0E 0F
      -- -- -- -- -- -- -- --  -- -- -- -- -- -- -- --
0010:             6C F8 FF FF  7F 02 80 01 80 00            l.........  
```

#### Opcodes

```
  0: 0x0014 [0x6C] FADE_ENTITY_COLOR(entity_id=EventEntity, end_alpha=128*, fade_time=1*)
  1: 0x001D [0x00] END_REQSTACK()
```

### Event 65535.4

#### Metadata

| Field        | Value   |
|--------------|---------|
| Entrypoint   | 0x001E  |
| Data Size    | 9 bytes |
| Instructions | 3       |

```
      00 01 02 03 04 05 06 07  08 09 0A 0B 0C 0D 0E 0F
      -- -- -- -- -- -- -- --  -- -- -- -- -- -- -- --
0010:                                            22 00                ".
0020: 2F 00 F8 FF FF 7F 00                              /......         
```

#### Opcodes

```
  0: 0x001E [0x22] ENTITY_HIDE_FLAG(enabled=0x00)
  1: 0x0020 [0x2F] EventEntity->Render.Flags0 &= ~0x80000 // Bit 19
  2: 0x0026 [0x00] END_REQSTACK()
```

### Event 65535.5

#### Metadata

| Field        | Value   |
|--------------|---------|
| Entrypoint   | 0x0027  |
| Data Size    | 9 bytes |
| Instructions | 3       |

```
      00 01 02 03 04 05 06 07  08 09 0A 0B 0C 0D 0E 0F
      -- -- -- -- -- -- -- --  -- -- -- -- -- -- -- --
0020:                      22  01 2F 01 F8 FF FF 7F 00         "./......
```

#### Opcodes

```
  0: 0x0027 [0x22] ENTITY_HIDE_FLAG(enabled=0x01)
  1: 0x0029 [0x2F] EventEntity->Render.Flags0 |= 0x80000 // Bit 19
  2: 0x002F [0x00] END_REQSTACK()
```

### Event 65535.6

#### Metadata

| Field        | Value    |
|--------------|----------|
| Entrypoint   | 0x0030   |
| Data Size    | 10 bytes |
| Instructions | 2        |

```
      00 01 02 03 04 05 06 07  08 09 0A 0B 0C 0D 0E 0F
      -- -- -- -- -- -- -- --  -- -- -- -- -- -- -- --
0030: 6C F8 FF FF 7F 00 80 01  80 00                    l.........      
```

#### Opcodes

```
  0: 0x0030 [0x6C] FADE_ENTITY_COLOR(entity_id=EventEntity, end_alpha=0*, fade_time=1*)
  1: 0x0039 [0x00] END_REQSTACK()
```

### Event 65535.7

#### Metadata

| Field        | Value    |
|--------------|----------|
| Entrypoint   | 0x003A   |
| Data Size    | 10 bytes |
| Instructions | 2        |

```
      00 01 02 03 04 05 06 07  08 09 0A 0B 0C 0D 0E 0F
      -- -- -- -- -- -- -- --  -- -- -- -- -- -- -- --
0030:                                6C F8 FF FF 7F 02            l.....
0040: 80 01 80 00                                       ....            
```

#### Opcodes

```
  0: 0x003A [0x6C] FADE_ENTITY_COLOR(entity_id=EventEntity, end_alpha=128*, fade_time=1*)
  1: 0x0043 [0x00] END_REQSTACK()
```

### Event 175

#### Metadata

| Field        | Value   |
|--------------|---------|
| Entrypoint   | 0x0044  |
| Data Size    | 1 bytes |
| Instructions | 1       |

```
      00 01 02 03 04 05 06 07  08 09 0A 0B 0C 0D 0E 0F
      -- -- -- -- -- -- -- --  -- -- -- -- -- -- -- --
0040:             00                                        .           
```

#### Opcodes

```
  0: 0x0044 [0x00] END_REQSTACK()
```

### Event 176

#### Metadata

| Field        | Value   |
|--------------|---------|
| Entrypoint   | 0x0045  |
| Data Size    | 1 bytes |
| Instructions | 1       |

```
      00 01 02 03 04 05 06 07  08 09 0A 0B 0C 0D 0E 0F
      -- -- -- -- -- -- -- --  -- -- -- -- -- -- -- --
0040:                00                                      .          
```

#### Opcodes

```
  0: 0x0045 [0x00] END_REQSTACK()
```

### Event 358

#### Metadata

| Field        | Value   |
|--------------|---------|
| Entrypoint   | 0x0046  |
| Data Size    | 1 bytes |
| Instructions | 1       |

```
      00 01 02 03 04 05 06 07  08 09 0A 0B 0C 0D 0E 0F
      -- -- -- -- -- -- -- --  -- -- -- -- -- -- -- --
0040:                   00                                    .         
```

#### Opcodes

```
  0: 0x0046 [0x00] END_REQSTACK()
```

### Event 359

#### Metadata

| Field        | Value   |
|--------------|---------|
| Entrypoint   | 0x0047  |
| Data Size    | 1 bytes |
| Instructions | 1       |

```
      00 01 02 03 04 05 06 07  08 09 0A 0B 0C 0D 0E 0F
      -- -- -- -- -- -- -- --  -- -- -- -- -- -- -- --
0040:                      00                                  .        
```

#### Opcodes

```
  0: 0x0047 [0x00] END_REQSTACK()
```

### Event 360

#### Metadata

| Field        | Value   |
|--------------|---------|
| Entrypoint   | 0x0048  |
| Data Size    | 1 bytes |
| Instructions | 1       |

```
      00 01 02 03 04 05 06 07  08 09 0A 0B 0C 0D 0E 0F
      -- -- -- -- -- -- -- --  -- -- -- -- -- -- -- --
0040:                          00                               .       
```

#### Opcodes

```
  0: 0x0048 [0x00] END_REQSTACK()
```

### Event 65535.8

#### Metadata

| Field        | Value    |
|--------------|----------|
| Entrypoint   | 0x0049   |
| Data Size    | 10 bytes |
| Instructions | 2        |

```
      00 01 02 03 04 05 06 07  08 09 0A 0B 0C 0D 0E 0F
      -- -- -- -- -- -- -- --  -- -- -- -- -- -- -- --
0040:                             6C F8 FF FF 7F 00 80           l......
0050: 01 80 00                                          ...             
```

#### Opcodes

```
  0: 0x0049 [0x6C] FADE_ENTITY_COLOR(entity_id=EventEntity, end_alpha=0*, fade_time=1*)
  1: 0x0052 [0x00] END_REQSTACK()
```

### Event 65535.9

#### Metadata

| Field        | Value    |
|--------------|----------|
| Entrypoint   | 0x0053   |
| Data Size    | 10 bytes |
| Instructions | 2        |

```
      00 01 02 03 04 05 06 07  08 09 0A 0B 0C 0D 0E 0F
      -- -- -- -- -- -- -- --  -- -- -- -- -- -- -- --
0050:          6C F8 FF FF 7F  02 80 01 80 00              l.........   
```

#### Opcodes

```
  0: 0x0053 [0x6C] FADE_ENTITY_COLOR(entity_id=EventEntity, end_alpha=128*, fade_time=1*)
  1: 0x005C [0x00] END_REQSTACK()
```

### Event 65535.10

#### Metadata

| Field        | Value    |
|--------------|----------|
| Entrypoint   | 0x005D   |
| Data Size    | 15 bytes |
| Instructions | 5        |

```
      00 01 02 03 04 05 06 07  08 09 0A 0B 0C 0D 0E 0F
      -- -- -- -- -- -- -- --  -- -- -- -- -- -- -- --
0050:                                         32 03 80               2..
0060: 1F 00 04 80 05 80 00 80  1F 01 6F 00              ..........o.    
```

#### Opcodes

```
  0: 0x005D [0x32] ExtData[1]->MainSpeed = 38* * 0.1
  1: 0x0060 [0x1F] MOVE_ENTITY: EventEntity moves to X=-232.694*, Z=88.949*, Y=0.000*
  2: 0x0068 [0x1F] MOVE_ENTITY: Update entity position (mode=1)
  3: 0x006A [0x6F] WAIT_FRAME_DELAY: Yield until WaitTime reaches zero
  4: 0x006B [0x00] END_REQSTACK()
```

### Event 65535.11

#### Metadata

| Field        | Value    |
|--------------|----------|
| Entrypoint   | 0x006C   |
| Data Size    | 24 bytes |
| Instructions | 6        |

```
      00 01 02 03 04 05 06 07  08 09 0A 0B 0C 0D 0E 0F
      -- -- -- -- -- -- -- --  -- -- -- -- -- -- -- --
0060:                                      32 03 80 1F              2...
0070: 00 06 80 07 80 00 80 1F  01 1F 00 08 80 09 80 00  ................
0080: 80 1F 01 00                                       ....            
```

#### Opcodes

```
  0: 0x006C [0x32] ExtData[1]->MainSpeed = 38* * 0.1
  1: 0x006F [0x1F] MOVE_ENTITY: EventEntity moves to X=-236.034*, Z=86.500*, Y=0.000*
  2: 0x0077 [0x1F] MOVE_ENTITY: Update entity position (mode=1)
  3: 0x0079 [0x1F] MOVE_ENTITY: EventEntity moves to X=-244.964*, Z=80.143*, Y=0.000*
  4: 0x0081 [0x1F] MOVE_ENTITY: Update entity position (mode=1)
  5: 0x0083 [0x00] END_REQSTACK()
```

### Event 65535.12

#### Metadata

| Field        | Value    |
|--------------|----------|
| Entrypoint   | 0x0084   |
| Data Size    | 14 bytes |
| Instructions | 4        |

```
      00 01 02 03 04 05 06 07  08 09 0A 0B 0C 0D 0E 0F
      -- -- -- -- -- -- -- --  -- -- -- -- -- -- -- --
0080:             32 03 80 1F  00 0A 80 0B 80 0C 80 1F      2...........
0090: 01 00                                             ..              
```

#### Opcodes

```
  0: 0x0084 [0x32] ExtData[1]->MainSpeed = 38* * 0.1
  1: 0x0087 [0x1F] MOVE_ENTITY: EventEntity moves to X=-256.473*, Z=-40.280*, Y=-11.999*
  2: 0x008F [0x1F] MOVE_ENTITY: Update entity position (mode=1)
  3: 0x0091 [0x00] END_REQSTACK()
```

### Event 65535.13

#### Metadata

| Field        | Value    |
|--------------|----------|
| Entrypoint   | 0x0092   |
| Data Size    | 24 bytes |
| Instructions | 6        |

```
      00 01 02 03 04 05 06 07  08 09 0A 0B 0C 0D 0E 0F
      -- -- -- -- -- -- -- --  -- -- -- -- -- -- -- --
0090:       32 03 80 1F 00 0D  80 0E 80 0F 80 1F 01 1F    2.............
00A0: 00 10 80 11 80 0F 80 1F  01 00                    ..........      
```

#### Opcodes

```
  0: 0x0092 [0x32] ExtData[1]->MainSpeed = 38* * 0.1
  1: 0x0095 [0x1F] MOVE_ENTITY: EventEntity moves to X=-318.670*, Z=-76.101*, Y=-12.000*
  2: 0x009D [0x1F] MOVE_ENTITY: Update entity position (mode=1)
  3: 0x009F [0x1F] MOVE_ENTITY: EventEntity moves to X=-307.768*, Z=-67.991*, Y=-12.000*
  4: 0x00A7 [0x1F] MOVE_ENTITY: Update entity position (mode=1)
  5: 0x00A9 [0x00] END_REQSTACK()
```

### Event 65535.14

#### Metadata

| Field        | Value    |
|--------------|----------|
| Entrypoint   | 0x00AA   |
| Data Size    | 38 bytes |
| Instructions | 6        |

```
      00 01 02 03 04 05 06 07  08 09 0A 0B 0C 0D 0E 0F
      -- -- -- -- -- -- -- --  -- -- -- -- -- -- -- --
00A0:                                59 04 A5 72 05 01            Y..r..
00B0: 12 80 1F 00 13 80 14 80  15 80 1F 01 4A A5 72 05  ............J.r.
00C0: 01 A3 72 05 01 79 00 A5  72 05 01 A3 72 05 01 00  ..r..y..r...r...
```

#### Opcodes

```
  0: 0x00AA [0x59] UPDATE_ENTITY_DATA: Set Lilisette (ID: 17134245/0x010572A5) main speed = 13* * 0.1
  1: 0x00B2 [0x1F] MOVE_ENTITY: EventEntity moves to X=-207.499*, Z=29.945*, Y=-7.999*
  2: 0x00BA [0x1F] MOVE_ENTITY: Update entity position (mode=1)
  3: 0x00BC [0x4A] Lilisette (ID: 17134245/0x010572A5) looks at Radford (ID: 17134243/0x010572A3)
  4: 0x00C5 [0x79] Lilisette (ID: 17134245/0x010572A5) looks at Radford (ID: 17134243/0x010572A3) (Basic look)
  5: 0x00CF [0x00] END_REQSTACK()
```

### Event 65535.15

#### Metadata

| Field        | Value    |
|--------------|----------|
| Entrypoint   | 0x00D0   |
| Data Size    | 19 bytes |
| Instructions | 4        |

```
      00 01 02 03 04 05 06 07  08 09 0A 0B 0C 0D 0E 0F
      -- -- -- -- -- -- -- --  -- -- -- -- -- -- -- --
00D0: 59 04 A5 72 05 01 16 80  1F 00 17 80 18 80 19 80  Y..r............
00E0: 1F 01 00                                          ...             
```

#### Opcodes

```
  0: 0x00D0 [0x59] UPDATE_ENTITY_DATA: Set Lilisette (ID: 17134245/0x010572A5) main speed = 12* * 0.1
  1: 0x00D8 [0x1F] MOVE_ENTITY: EventEntity moves to X=-201.452*, Z=25.910*, Y=-8.000*
  2: 0x00E0 [0x1F] MOVE_ENTITY: Update entity position (mode=1)
  3: 0x00E2 [0x00] END_REQSTACK()
```

### Event 65535.16

#### Metadata

| Field        | Value    |
|--------------|----------|
| Entrypoint   | 0x00E3   |
| Data Size    | 42 bytes |
| Instructions | 9        |

```
      00 01 02 03 04 05 06 07  08 09 0A 0B 0C 0D 0E 0F
      -- -- -- -- -- -- -- --  -- -- -- -- -- -- -- --
00E0:          59 04 A5 72 05  01 12 80 1F 00 1A 80 1B     Y..r.........
00F0: 80 1C 80 1F 01 1F 00 1D  80 1E 80 1C 80 1F 01 4B  ...............K
0100: A5 72 05 01 00 80 6F 76  A5 72 05 01 00           .r....ov.r...   
```

#### Opcodes

```
  0: 0x00E3 [0x59] UPDATE_ENTITY_DATA: Set Lilisette (ID: 17134245/0x010572A5) main speed = 13* * 0.1
  1: 0x00EB [0x1F] MOVE_ENTITY: EventEntity moves to X=84.284*, Z=0.968*, Y=-19.532*
  2: 0x00F3 [0x1F] MOVE_ENTITY: Update entity position (mode=1)
  3: 0x00F5 [0x1F] MOVE_ENTITY: EventEntity moves to X=89.887*, Z=1.133*, Y=-19.532*
  4: 0x00FD [0x1F] MOVE_ENTITY: Update entity position (mode=1)
  5: 0x00FF [0x4B] UPDATE_ENTITY_YAW(entity=Lilisette (ID: 17134245/0x010572A5), yaw=0.0°*)
  6: 0x0106 [0x6F] WAIT_FRAME_DELAY: Yield until WaitTime reaches zero
  7: 0x0107 [0x76] CHECK_ENTITY_RENDER_FLAGS: Wait until Lilisette (ID: 17134245/0x010572A5) Render.Flags0 and Render.Flags3 conditions are met
  8: 0x010C [0x00] END_REQSTACK()
```

### Event 65535.17

#### Metadata

| Field        | Value    |
|--------------|----------|
| Entrypoint   | 0x010D   |
| Data Size    | 54 bytes |
| Instructions | 10       |

```
      00 01 02 03 04 05 06 07  08 09 0A 0B 0C 0D 0E 0F
      -- -- -- -- -- -- -- --  -- -- -- -- -- -- -- --
0100:                                         59 04 A5               Y..
0110: 72 05 01 12 80 1F 00 1F  80 20 80 21 80 1F 01 1F  r........ .!....
0120: 00 22 80 23 80 21 80 1F  01 4A A5 72 05 01 F1 71  .".#.!...J.r...q
0130: 05 01 79 00 A5 72 05 01  F1 71 05 01 6F 76 A5 72  ..y..r...q..ov.r
0140: 05 01 00                                          ...             
```

#### Opcodes

```
  0: 0x010D [0x59] UPDATE_ENTITY_DATA: Set Lilisette (ID: 17134245/0x010572A5) main speed = 13* * 0.1
  1: 0x0115 [0x1F] MOVE_ENTITY: EventEntity moves to X=98.401*, Z=0.152*, Y=-20.170*
  2: 0x011D [0x1F] MOVE_ENTITY: Update entity position (mode=1)
  3: 0x011F [0x1F] MOVE_ENTITY: EventEntity moves to X=101.789*, Z=1.160*, Y=-20.170*
  4: 0x0127 [0x1F] MOVE_ENTITY: Update entity position (mode=1)
  5: 0x0129 [0x4A] Lilisette (ID: 17134245/0x010572A5) looks at Prien (ID: 17134065/0x010571F1)
  6: 0x0132 [0x79] Lilisette (ID: 17134245/0x010572A5) looks at Prien (ID: 17134065/0x010571F1) (Basic look)
  7: 0x013C [0x6F] WAIT_FRAME_DELAY: Yield until WaitTime reaches zero
  8: 0x013D [0x76] CHECK_ENTITY_RENDER_FLAGS: Wait until Lilisette (ID: 17134245/0x010572A5) Render.Flags0 and Render.Flags3 conditions are met
  9: 0x0142 [0x00] END_REQSTACK()
```

### Event 65535.18

#### Metadata

| Field        | Value    |
|--------------|----------|
| Entrypoint   | 0x0143   |
| Data Size    | 19 bytes |
| Instructions | 4        |

```
      00 01 02 03 04 05 06 07  08 09 0A 0B 0C 0D 0E 0F
      -- -- -- -- -- -- -- --  -- -- -- -- -- -- -- --
0140:          59 04 A5 72 05  01 12 80 1F 00 24 80 25     Y..r......$.%
0150: 80 26 80 1F 01 00                                 .&....          
```

#### Opcodes

```
  0: 0x0143 [0x59] UPDATE_ENTITY_DATA: Set Lilisette (ID: 17134245/0x010572A5) main speed = 13* * 0.1
  1: 0x014B [0x1F] MOVE_ENTITY: EventEntity moves to X=-201.125*, Z=12.843*, Y=-9.998*
  2: 0x0153 [0x1F] MOVE_ENTITY: Update entity position (mode=1)
  3: 0x0155 [0x00] END_REQSTACK()
```

### Event 65535.19

#### Metadata

| Field        | Value    |
|--------------|----------|
| Entrypoint   | 0x0156   |
| Data Size    | 29 bytes |
| Instructions | 5        |

```
      00 01 02 03 04 05 06 07  08 09 0A 0B 0C 0D 0E 0F
      -- -- -- -- -- -- -- --  -- -- -- -- -- -- -- --
0150:                   59 04  A5 72 05 01 12 80 1F 00        Y..r......
0160: 27 80 28 80 19 80 1F 01  79 00 A5 72 05 01 A6 72  '.(.....y..r...r
0170: 05 01 00                                          ...             
```

#### Opcodes

```
  0: 0x0156 [0x59] UPDATE_ENTITY_DATA: Set Lilisette (ID: 17134245/0x010572A5) main speed = 13* * 0.1
  1: 0x015E [0x1F] MOVE_ENTITY: EventEntity moves to X=-219.899*, Z=30.994*, Y=-8.000*
  2: 0x0166 [0x1F] MOVE_ENTITY: Update entity position (mode=1)
  3: 0x0168 [0x79] Lilisette (ID: 17134245/0x010572A5) looks at Halver M Borel (ID: 17134246/0x010572A6) (Basic look)
  4: 0x0172 [0x00] END_REQSTACK()
```
