# 0x7FFFFFF0 - Zone Events

## Common Data

| Field            | Value                       |
|------------------|-----------------------------|
| Zone             | Bastok Markets [S] (ID: 87) |
| Block Size       | 51256 bytes                 |
| Total Events     | 108                         |
| References Count | 1074                        |

## List of Events

| Event ID                   | Entrypoint   |   Size |   Instructions |
|----------------------------|--------------|--------|----------------|
| [65535](#event-65535)      | 0x0000       |      1 |              1 |
| [65535.1](#event-655351)   | 0x0001       |     10 |              2 |
| [65534](#event-65534)      | 0x000B       |      1 |              1 |
| [65535.2](#event-655352)   | 0x000C       |     17 |              5 |
| [65535.3](#event-655353)   | 0x001D       |     29 |              7 |
| [65535.4](#event-655354)   | 0x003A       |     13 |              3 |
| [65535.5](#event-655355)   | 0x0047       |     14 |              4 |
| [65535.6](#event-655356)   | 0x0055       |     22 |              6 |
| [112](#event-112)          | 0x006B       |    687 |             76 |
| [128](#event-128)          | 0x031A       |    523 |             59 |
| [131](#event-131)          | 0x0525       |    280 |             32 |
| [133](#event-133)          | 0x063D       |    288 |             34 |
| [135](#event-135)          | 0x075D       |    320 |             36 |
| [137](#event-137)          | 0x089D       |    285 |             33 |
| [512](#event-512)          | 0x09BA       |    503 |            109 |
| [139](#event-139)          | 0x0BB1       |    766 |             90 |
| [143](#event-143)          | 0x0EAF       |    476 |             59 |
| [116](#event-116)          | 0x108B       |    519 |             56 |
| [118](#event-118)          | 0x1292       |   1160 |            129 |
| [65535.7](#event-655357)   | 0x171A       |     14 |              4 |
| [65535.8](#event-655358)   | 0x1728       |     24 |              4 |
| [65535.9](#event-655359)   | 0x1740       |    185 |             37 |
| [120](#event-120)          | 0x17F9       |   1786 |            188 |
| [122](#event-122)          | 0x1EF3       |    804 |             92 |
| [124](#event-124)          | 0x2217       |    426 |             45 |
| [126](#event-126)          | 0x23C1       |    322 |             43 |
| [160](#event-160)          | 0x2503       |   4154 |            464 |
| [65535.10](#event-6553510) | 0x353D       |     44 |             10 |
| [65535.11](#event-6553511) | 0x3569       |     22 |              6 |
| [65535.12](#event-6553512) | 0x357F       |     16 |              4 |
| [164](#event-164)          | 0x358F       |    528 |             63 |
| [16](#event-16)            | 0x379F       |   4602 |            500 |
| [19](#event-19)            | 0x4999       |   3653 |            410 |
| [65535.13](#event-6553513) | 0x57DE       |     22 |              6 |
| [21](#event-21)            | 0x57F4       |    330 |             38 |
| [23](#event-23)            | 0x593E       |    524 |             60 |
| [27](#event-27)            | 0x5B4A       |   6052 |            674 |
| [65535.14](#event-6553514) | 0x72EE       |     22 |              6 |
| [30](#event-30)            | 0x7304       |   3687 |            407 |
| [65535.15](#event-6553515) | 0x816B       |     22 |              6 |
| [65535.16](#event-6553516) | 0x8181       |     14 |              4 |
| [65535.17](#event-6553517) | 0x818F       |     14 |              4 |
| [65535.18](#event-6553518) | 0x819D       |     14 |              4 |
| [32](#event-32)            | 0x81AB       |    896 |             95 |
| [65535.19](#event-6553519) | 0x852B       |     14 |              4 |
| [34](#event-34)            | 0x8539       |   6555 |            714 |
| [65535.20](#event-6553520) | 0x9ED4       |     14 |              4 |
| [65535.21](#event-6553521) | 0x9EE2       |     22 |              6 |
| [65535.22](#event-6553522) | 0x9EF8       |     22 |              6 |
| [65535.23](#event-6553523) | 0x9F0E       |     14 |              4 |
| [65535.24](#event-6553524) | 0x9F1C       |     14 |              4 |
| [65535.25](#event-6553525) | 0x9F2A       |     14 |              4 |
| [65535.26](#event-6553526) | 0x9F38       |     37 |              6 |
| [65535.27](#event-6553527) | 0x9F5D       |     40 |              7 |
| [65535.28](#event-6553528) | 0x9F85       |      6 |              2 |
| [65535.29](#event-6553529) | 0x9F8B       |     24 |              6 |
| [65535.30](#event-6553530) | 0x9FA3       |     14 |              4 |
| [65535.31](#event-6553531) | 0x9FB1       |     22 |              6 |
| [65535.32](#event-6553532) | 0x9FC7       |     22 |              6 |
| [65535.33](#event-6553533) | 0x9FDD       |     14 |              4 |
| [65535.34](#event-6553534) | 0x9FEB       |     14 |              4 |
| [65535.35](#event-6553535) | 0x9FF9       |     22 |              6 |
| [65535.36](#event-6553536) | 0xA00F       |     24 |              4 |
| [65535.37](#event-6553537) | 0xA027       |     24 |              4 |
| [65535.38](#event-6553538) | 0xA03F       |     45 |              7 |
| [65535.39](#event-6553539) | 0xA06C       |     38 |              5 |
| [65535.40](#event-6553540) | 0xA092       |     38 |              5 |
| [65535.41](#event-6553541) | 0xA0B8       |     38 |              5 |
| [65535.42](#event-6553542) | 0xA0DE       |      9 |              3 |
| [65535.43](#event-6553543) | 0xA0E7       |     19 |              4 |
| [65535.44](#event-6553544) | 0xA0FA       |     13 |              3 |
| [65535.45](#event-6553545) | 0xA107       |     32 |              7 |
| [65535.46](#event-6553546) | 0xA127       |      6 |              2 |
| [65535.47](#event-6553547) | 0xA12D       |     38 |              6 |
| [65535.48](#event-6553548) | 0xA153       |     19 |              4 |
| [65535.49](#event-6553549) | 0xA166       |     42 |              9 |
| [65535.50](#event-6553550) | 0xA190       |     54 |             10 |
| [65535.51](#event-6553551) | 0xA1C6       |     19 |              4 |
| [65535.52](#event-6553552) | 0xA1D9       |     29 |              5 |
| [65535.53](#event-6553553) | 0xA1F6       |     11 |              3 |
| [65535.54](#event-6553554) | 0xA201       |     11 |              3 |
| [65535.55](#event-6553555) | 0xA20C       |     24 |              6 |
| [65535.56](#event-6553556) | 0xA224       |     21 |              5 |
| [65535.57](#event-6553557) | 0xA239       |     42 |             12 |
| [65535.58](#event-6553558) | 0xA263       |     33 |              9 |
| [65535.59](#event-6553559) | 0xA284       |     20 |              6 |
| [65535.60](#event-6553560) | 0xA298       |     23 |              7 |
| [65535.61](#event-6553561) | 0xA2AF       |      9 |              3 |
| [65535.62](#event-6553562) | 0xA2B8       |     35 |              7 |
| [65535.63](#event-6553563) | 0xA2DB       |     44 |             10 |
| [65535.64](#event-6553564) | 0xA307       |     19 |              5 |
| [65535.65](#event-6553565) | 0xA31A       |     19 |              5 |
| [65535.66](#event-6553566) | 0xA32D       |     19 |              5 |
| [65535.67](#event-6553567) | 0xA340       |     14 |              4 |
| [65535.68](#event-6553568) | 0xA34E       |     19 |              5 |
| [65535.69](#event-6553569) | 0xA361       |     38 |              5 |
| [65535.70](#event-6553570) | 0xA387       |     38 |              5 |
| [65535.71](#event-6553571) | 0xA3AD       |     38 |              5 |
| [65535.72](#event-6553572) | 0xA3D3       |     15 |              5 |
| [65535.73](#event-6553573) | 0xA3E2       |     16 |              3 |
| [65535.74](#event-6553574) | 0xA3F2       |     16 |              3 |
| [65535.75](#event-6553575) | 0xA402       |     10 |              2 |
| [65535.76](#event-6553576) | 0xA40C       |     21 |              2 |
| [65535.77](#event-6553577) | 0xA421       |      6 |              2 |
| [608](#event-608)          | 0xA427       |   4453 |            562 |
| [65535.78](#event-6553578) | 0xB58C       |     10 |              2 |
| [65535.79](#event-6553579) | 0xB596       |     10 |              2 |
| [65535.80](#event-6553580) | 0xB5A0       |     14 |              4 |

## DAT References (imed_data)

|   Index | Hex Value   |   Dec Value |
|---------|-------------|-------------|
|       0 | 0x009A      |         154 |
|       1 | 0xFFFFF98B  |  4294965643 |
|       2 | 0x0000      |           0 |
|       3 | 0x0B83      |        2947 |
|       4 | 0x0078      |         120 |
|       5 | 0x000D      |          13 |
|       6 | 0xFFFDD40D  |  4294824973 |
|       7 | 0xFFFEA5FD  |  4294878717 |
|       8 | 0xFFFFF060  |  4294963296 |
|       9 | 0xFFFDD752  |  4294825810 |
|      10 | 0xFFFEAAC7  |  4294879943 |
|      11 | 0x003C      |          60 |
|      12 | 0x0014      |          20 |
|      13 | 0xFFFC6E1A  |  4294733338 |
|      14 | 0x178DE     |       96478 |
|      15 | 0x0C00      |        3072 |
|      16 | 0xFFFC6DFC  |  4294733308 |
|      17 | 0x1941E     |      103454 |
|      18 | 0xFFFFFDA7  |  4294966695 |
|      19 | 0xFFFF32B2  |  4294914738 |
|      20 | 0xFFFDF20D  |  4294832653 |
|      21 | 0x001E      |          30 |
|      22 | 0x00C8      |         200 |
|      23 | 0x001B      |          27 |
|      24 | 0xFFFF1DE1  |  4294909409 |
|      25 | 0xFFFDEA2B  |  4294830635 |
|      26 | 0xFFFFF061  |  4294963297 |
|      27 | 0x02E7      |         743 |
|      28 | 0x014C      |         332 |
|      29 | 0x000F      |          15 |
|      30 | 0x2A77      |       10871 |
|      31 | 0x2A78      |       10872 |
|      32 | 0x2A79      |       10873 |
|      33 | 0x2A7A      |       10874 |
|      34 | 0xFFFF32BD  |  4294914749 |
|      35 | 0xFFFDFA99  |  4294834841 |
|      36 | 0x031F      |         799 |
|      37 | 0x2A7B      |       10875 |
|      38 | 0x2A7C      |       10876 |
|      39 | 0x2A7D      |       10877 |
|      40 | 0x2A7E      |       10878 |
|      41 | 0x0050      |          80 |
|      42 | 0x2A7F      |       10879 |
|      43 | 0x2A80      |       10880 |
|      44 | 0xFFFB8A0A  |  4294674954 |
|      45 | 0xFFFDC8C9  |  4294822089 |
|      46 | 0xFFFFC215  |  4294951445 |
|      47 | 0x0F3E      |        3902 |
|      48 | 0x014B      |         331 |
|      49 | 0x004B      |          75 |
|      50 | 0x2BFB      |       11259 |
|      51 | 0x2BFC      |       11260 |
|      52 | 0x2BFD      |       11261 |
|      53 | 0x2BFE      |       11262 |
|      54 | 0x2BFF      |       11263 |
|      55 | 0x2C01      |       11265 |
|      56 | 0x0001      |           1 |
|      57 | 0x2C02      |       11266 |
|      58 | 0x2C06      |       11270 |
|      59 | 0x2C07      |       11271 |
|      60 | 0x2C09      |       11273 |
|      61 | 0x2C0A      |       11274 |
|      62 | 0x2C0B      |       11275 |
|      63 | 0x2C0D      |       11277 |
|      64 | 0x2C0E      |       11278 |
|      65 | 0x2C0F      |       11279 |
|      66 | 0x2C11      |       11281 |
|      67 | 0x2C12      |       11282 |
|      68 | 0x2AAF      |       10927 |
|      69 | 0x2AB0      |       10928 |
|      70 | 0x0002      |           2 |
|      71 | 0x0003      |           3 |
|      72 | 0x2AB2      |       10930 |
|      73 | 0x2AB1      |       10929 |
|      74 | 0x43F5      |       17397 |
|      75 | 0x2AB3      |       10931 |
|      76 | 0x2AB4      |       10932 |
|      77 | 0x2AB5      |       10933 |
|      78 | 0x4269      |       17001 |
|      79 | 0x2AB6      |       10934 |
|      80 | 0x2AB7      |       10935 |
|      81 | 0xFFFB12E4  |  4294644452 |
|      82 | 0xFFFED5C8  |  4294890952 |
|      83 | 0xFFFFCEC7  |  4294954695 |
|      84 | 0x077B      |        1915 |
|      85 | 0x0009      |           9 |
|      86 | 0x2D0D      |       11533 |
|      87 | 0x2D0E      |       11534 |
|      88 | 0x2D0F      |       11535 |
|      89 | 0x2D12      |       11538 |
|      90 | 0x2D14      |       11540 |
|      91 | 0x2D15      |       11541 |
|      92 | 0x0395      |         917 |
|      93 | 0x2D16      |       11542 |
|      94 | 0x2D17      |       11543 |
|      95 | 0x2D18      |       11544 |
|      96 | 0x2D13      |       11539 |
|      97 | 0x2D11      |       11537 |
|      98 | 0x2D10      |       11536 |
|      99 | 0x2D29      |       11561 |
|     100 | 0x2D2A      |       11562 |
|     101 | 0x2D2B      |       11563 |
|     102 | 0x039C      |         924 |
|     103 | 0x2D2C      |       11564 |
|     104 | 0x2D2D      |       11565 |
|     105 | 0x2D2E      |       11566 |
|     106 | 0x00C9      |         201 |
|     107 | 0x00B4      |         180 |
|     108 | 0xFFFEC8C0  |  4294887616 |
|     109 | 0xFFFE20A0  |  4294844576 |
|     110 | 0xFFFFEF8E  |  4294963086 |
|     111 | 0x0426      |        1062 |
|     112 | 0x2E74      |       11892 |
|     113 | 0x0396      |         918 |
|     114 | 0x2E75      |       11893 |
|     115 | 0x2E76      |       11894 |
|     116 | 0x2E77      |       11895 |
|     117 | 0x2E78      |       11896 |
|     118 | 0x2E79      |       11897 |
|     119 | 0x2E7A      |       11898 |
|     120 | 0xFFFEF68E  |  4294899342 |
|     121 | 0xFFFE2F40  |  4294848320 |
|     122 | 0x08DB      |        2267 |
|     123 | 0x0397      |         919 |
|     124 | 0x2E7E      |       11902 |
|     125 | 0x2E7F      |       11903 |
|     126 | 0x2E80      |       11904 |
|     127 | 0x2E81      |       11905 |
|     128 | 0x2E82      |       11906 |
|     129 | 0x2E83      |       11907 |
|     130 | 0x2E84      |       11908 |
|     131 | 0x007B      |         123 |
|     132 | 0x2E85      |       11909 |
|     133 | 0x2E86      |       11910 |
|     134 | 0x2E87      |       11911 |
|     135 | 0x2E88      |       11912 |
|     136 | 0x2E89      |       11913 |
|     137 | 0x2E8A      |       11914 |
|     138 | 0x2E8B      |       11915 |
|     139 | 0x2E8C      |       11916 |
|     140 | 0x0120      |         288 |
|     141 | 0x0015      |          21 |
|     142 | 0x0005      |           5 |
|     143 | 0x0006      |           6 |
|     144 | 0x0398      |         920 |
|     145 | 0x2E8D      |       11917 |
|     146 | 0xFFFEBEE5  |  4294885093 |
|     147 | 0xFFFE2A39  |  4294847033 |
|     148 | 0x000A      |          10 |
|     149 | 0x0046      |          70 |
|     150 | 0x008C      |         140 |
|     151 | 0x00D2      |         210 |
|     152 | 0xFFFC9A8D  |  4294744717 |
|     153 | 0xFFFE7590  |  4294866320 |
|     154 | 0xFFFFE891  |  4294961297 |
|     155 | 0x0934      |        2356 |
|     156 | 0xFFFC973C  |  4294743868 |
|     157 | 0xFFFE7C0C  |  4294867980 |
|     158 | 0x04AE      |        1198 |
|     159 | 0xFFFC91FA  |  4294742522 |
|     160 | 0xFFFE7A66  |  4294867558 |
|     161 | 0xFFFFE890  |  4294961296 |
|     162 | 0x02F7      |         759 |
|     163 | 0xFFFC9073  |  4294742131 |
|     164 | 0xFFFE6FB6  |  4294864822 |
|     165 | 0x0E97      |        3735 |
|     166 | 0xFFFC9EC2  |  4294745794 |
|     167 | 0xFFFE5E0E  |  4294860302 |
|     168 | 0x0B00      |        2816 |
|     169 | 0xFFFD1B12  |  4294777618 |
|     170 | 0xFFFEA028  |  4294877224 |
|     171 | 0x0364      |         868 |
|     172 | 0xFFFD2430  |  4294779952 |
|     173 | 0xFFFE9D81  |  4294876545 |
|     174 | 0x05C5      |        1477 |
|     175 | 0x0045      |          69 |
|     176 | 0x0037      |          55 |
|     177 | 0x014D      |         333 |
|     178 | 0x2E8E      |       11918 |
|     179 | 0x2E8F      |       11919 |
|     180 | 0x2E90      |       11920 |
|     181 | 0x2E91      |       11921 |
|     182 | 0x2E92      |       11922 |
|     183 | 0x2E93      |       11923 |
|     184 | 0x2E94      |       11924 |
|     185 | 0x0021      |          33 |
|     186 | 0xFFFD0A9B  |  4294773403 |
|     187 | 0xFFFE8AE6  |  4294871782 |
|     188 | 0x0DBF      |        3519 |
|     189 | 0x2E95      |       11925 |
|     190 | 0x2E96      |       11926 |
|     191 | 0x2E97      |       11927 |
|     192 | 0x2E98      |       11928 |
|     193 | 0x2E99      |       11929 |
|     194 | 0x2E9A      |       11930 |
|     195 | 0x0179      |         377 |
|     196 | 0x2E9B      |       11931 |
|     197 | 0x2E9C      |       11932 |
|     198 | 0xFFFD0411  |  4294771729 |
|     199 | 0xFFFE8390  |  4294869904 |
|     200 | 0x08BB      |        2235 |
|     201 | 0x2E9D      |       11933 |
|     202 | 0x2E9E      |       11934 |
|     203 | 0xFFFD04B6  |  4294771894 |
|     204 | 0xFFFE8C8B  |  4294872203 |
|     205 | 0x07B5      |        1973 |
|     206 | 0xFFFCEBA7  |  4294765479 |
|     207 | 0xFFFE8574  |  4294870388 |
|     208 | 0x0BC8      |        3016 |
|     209 | 0x2EA0      |       11936 |
|     210 | 0x2EA1      |       11937 |
|     211 | 0x001D      |          29 |
|     212 | 0x2EA2      |       11938 |
|     213 | 0x2EA3      |       11939 |
|     214 | 0x2EA4      |       11940 |
|     215 | 0x2EA5      |       11941 |
|     216 | 0x2EA6      |       11942 |
|     217 | 0x005A      |          90 |
|     218 | 0x2EA7      |       11943 |
|     219 | 0x2EA9      |       11945 |
|     220 | 0x2EAA      |       11946 |
|     221 | 0x2EAB      |       11947 |
|     222 | 0x2EAC      |       11948 |
|     223 | 0x007F      |         127 |
|     224 | 0x0512      |        1298 |
|     225 | 0x2EAF      |       11951 |
|     226 | 0x2EB0      |       11952 |
|     227 | 0x2EB1      |       11953 |
|     228 | 0xFFFCF1E6  |  4294767078 |
|     229 | 0xFFFFED6F  |  4294962543 |
|     230 | 0xFFFFD8F2  |  4294957298 |
|     231 | 0x0B86      |        2950 |
|     232 | 0xFFFCF555  |  4294767957 |
|     233 | 0xFFFFE99B  |  4294961563 |
|     234 | 0x0BE4      |        3044 |
|     235 | 0xFFFCEDCF  |  4294766031 |
|     236 | 0xFFFFE7B4  |  4294961076 |
|     237 | 0x0AB6      |        2742 |
|     238 | 0xFFFCEE86  |  4294766214 |
|     239 | 0x0648      |        1608 |
|     240 | 0x08E6      |        2278 |
|     241 | 0x2EB3      |       11955 |
|     242 | 0x2EB4      |       11956 |
|     243 | 0x2EB5      |       11957 |
|     244 | 0x2EB6      |       11958 |
|     245 | 0x2EB7      |       11959 |
|     246 | 0x0007      |           7 |
|     247 | 0x2EB8      |       11960 |
|     248 | 0x2EB9      |       11961 |
|     249 | 0x2EBA      |       11962 |
|     250 | 0x2EBB      |       11963 |
|     251 | 0x2EBC      |       11964 |
|     252 | 0x2EBD      |       11965 |
|     253 | 0x00ED      |         237 |
|     254 | 0x0011      |          17 |
|     255 | 0x012C      |         300 |
|     256 | 0xFFFFAA55  |  4294945365 |
|     257 | 0xFFFFF441  |  4294964289 |
|     258 | 0xFFFFD8F1  |  4294957297 |
|     259 | 0x0FC4      |        4036 |
|     260 | 0xFFFFA8FE  |  4294945022 |
|     261 | 0x0249      |         585 |
|     262 | 0x00E9      |         233 |
|     263 | 0xFFFFAE43  |  4294946371 |
|     264 | 0x0520      |        1312 |
|     265 | 0x0207      |         519 |
|     266 | 0xFFFFB3BD  |  4294947773 |
|     267 | 0xFFFFFBEF  |  4294966255 |
|     268 | 0x028D      |         653 |
|     269 | 0xFFFF8D0B  |  4294937867 |
|     270 | 0xFFFFF9EF  |  4294965743 |
|     271 | 0x0074      |         116 |
|     272 | 0xFFFF891C  |  4294936860 |
|     273 | 0xFFFFFDBE  |  4294966718 |
|     274 | 0xFFFF8734  |  4294936372 |
|     275 | 0xFFFFF621  |  4294964769 |
|     276 | 0xFFFF7051  |  4294930513 |
|     277 | 0xFFFFF7E9  |  4294965225 |
|     278 | 0xFFFFD8F0  |  4294957296 |
|     279 | 0x0068      |         104 |
|     280 | 0xFFFF6ED2  |  4294930130 |
|     281 | 0xFFFFFB9F  |  4294966175 |
|     282 | 0xFFFF824E  |  4294935118 |
|     283 | 0x04F6      |        1270 |
|     284 | 0x00F4      |         244 |
|     285 | 0x2EBF      |       11967 |
|     286 | 0x2EC0      |       11968 |
|     287 | 0x2EC1      |       11969 |
|     288 | 0x2EC2      |       11970 |
|     289 | 0x2EC3      |       11971 |
|     290 | 0x0573      |        1395 |
|     291 | 0x2EC4      |       11972 |
|     292 | 0x2EC5      |       11973 |
|     293 | 0x2EC6      |       11974 |
|     294 | 0x2EC7      |       11975 |
|     295 | 0x2EC8      |       11976 |
|     296 | 0x2EC9      |       11977 |
|     297 | 0xFFFF9DC8  |  4294942152 |
|     298 | 0xFFFFF88F  |  4294965391 |
|     299 | 0xFFFF89A7  |  4294936999 |
|     300 | 0xFFFFFBDC  |  4294966236 |
|     301 | 0x0543      |        1347 |
|     302 | 0x2ECA      |       11978 |
|     303 | 0x2ECB      |       11979 |
|     304 | 0x2ECC      |       11980 |
|     305 | 0x0542      |        1346 |
|     306 | 0x2ECD      |       11981 |
|     307 | 0x2ECE      |       11982 |
|     308 | 0x2ECF      |       11983 |
|     309 | 0x2ED0      |       11984 |
|     310 | 0xFFFFAB81  |  4294945665 |
|     311 | 0x036D      |         877 |
|     312 | 0x01AE      |         430 |
|     313 | 0xFFFFA7CA  |  4294944714 |
|     314 | 0x00C1      |         193 |
|     315 | 0x2ED1      |       11985 |
|     316 | 0x2ED2      |       11986 |
|     317 | 0xFFFF9A32  |  4294941234 |
|     318 | 0x05D1      |        1489 |
|     319 | 0x01AD      |         429 |
|     320 | 0x2ED3      |       11987 |
|     321 | 0x2ED4      |       11988 |
|     322 | 0x2ED5      |       11989 |
|     323 | 0x0544      |        1348 |
|     324 | 0x2ED6      |       11990 |
|     325 | 0x2ED7      |       11991 |
|     326 | 0x2ED8      |       11992 |
|     327 | 0x0574      |        1396 |
|     328 | 0x2ED9      |       11993 |
|     329 | 0x2EDA      |       11994 |
|     330 | 0x2EDB      |       11995 |
|     331 | 0x2EDC      |       11996 |
|     332 | 0x2EDD      |       11997 |
|     333 | 0x2EDE      |       11998 |
|     334 | 0x0057      |          87 |
|     335 | 0x0028      |          40 |
|     336 | 0xFFFCECBD  |  4294765757 |
|     337 | 0x026C      |         620 |
|     338 | 0xFFFCE8E8  |  4294764776 |
|     339 | 0xFFFFFEF8  |  4294967032 |
|     340 | 0xFFFCE441  |  4294763585 |
|     341 | 0xFFFFFE1D  |  4294966813 |
|     342 | 0xFFFCD483  |  4294759555 |
|     343 | 0xFFFFFC0D  |  4294966285 |
|     344 | 0xFFFF9482  |  4294939778 |
|     345 | 0x00FD      |         253 |
|     346 | 0x2EE1      |       12001 |
|     347 | 0x2EE2      |       12002 |
|     348 | 0x2EE3      |       12003 |
|     349 | 0x2EE4      |       12004 |
|     350 | 0x2EE5      |       12005 |
|     351 | 0xFFFCEB9F  |  4294765471 |
|     352 | 0x0392      |         914 |
|     353 | 0x0C07      |        3079 |
|     354 | 0xFFFD09A5  |  4294773157 |
|     355 | 0xFFFFE0ED  |  4294959341 |
|     356 | 0x0480      |        1152 |
|     357 | 0xFFFCF285  |  4294767237 |
|     358 | 0x0845      |        2117 |
|     359 | 0x07AA      |        1962 |
|     360 | 0x30B7      |       12471 |
|     361 | 0x30B8      |       12472 |
|     362 | 0x00A3      |         163 |
|     363 | 0x050B      |        1291 |
|     364 | 0x30B9      |       12473 |
|     365 | 0x30BA      |       12474 |
|     366 | 0x30BB      |       12475 |
|     367 | 0x30BC      |       12476 |
|     368 | 0xFFFF6416  |  4294927382 |
|     369 | 0xFFFFEE38  |  4294962744 |
|     370 | 0x0C0D      |        3085 |
|     371 | 0xFFFFA1C1  |  4294943169 |
|     372 | 0xFFFFF6B7  |  4294964919 |
|     373 | 0x0E78      |        3704 |
|     374 | 0xFFFF9C3A  |  4294941754 |
|     375 | 0xFFFFF918  |  4294965528 |
|     376 | 0x067A      |        1658 |
|     377 | 0xFFFF9F53  |  4294942547 |
|     378 | 0xFFFFFD1E  |  4294966558 |
|     379 | 0xFFFF9A52  |  4294941266 |
|     380 | 0xFFFFF422  |  4294964258 |
|     381 | 0x00D7      |         215 |
|     382 | 0x30BD      |       12477 |
|     383 | 0x0096      |         150 |
|     384 | 0x30BE      |       12478 |
|     385 | 0x30BF      |       12479 |
|     386 | 0x30C0      |       12480 |
|     387 | 0x30C1      |       12481 |
|     388 | 0x30C2      |       12482 |
|     389 | 0x30C3      |       12483 |
|     390 | 0x30C4      |       12484 |
|     391 | 0x30C5      |       12485 |
|     392 | 0x30C6      |       12486 |
|     393 | 0x30C7      |       12487 |
|     394 | 0x30C8      |       12488 |
|     395 | 0x30C9      |       12489 |
|     396 | 0x30CA      |       12490 |
|     397 | 0x30CB      |       12491 |
|     398 | 0x30CC      |       12492 |
|     399 | 0x30CD      |       12493 |
|     400 | 0x30CE      |       12494 |
|     401 | 0xFFFF8DDA  |  4294938074 |
|     402 | 0xFFFFFD69  |  4294966633 |
|     403 | 0x30CF      |       12495 |
|     404 | 0x30D0      |       12496 |
|     405 | 0x0575      |        1397 |
|     406 | 0x30D1      |       12497 |
|     407 | 0x30D2      |       12498 |
|     408 | 0x30D3      |       12499 |
|     409 | 0x30D4      |       12500 |
|     410 | 0x30D5      |       12501 |
|     411 | 0x30D6      |       12502 |
|     412 | 0xFFFCF372  |  4294767474 |
|     413 | 0x024A      |         586 |
|     414 | 0x0013      |          19 |
|     415 | 0x30D7      |       12503 |
|     416 | 0x050C      |        1292 |
|     417 | 0x30D8      |       12504 |
|     418 | 0x30D9      |       12505 |
|     419 | 0x30DA      |       12506 |
|     420 | 0xFFFCED8C  |  4294765964 |
|     421 | 0x20A2      |        8354 |
|     422 | 0x0C1C      |        3100 |
|     423 | 0xFFFFD751  |  4294956881 |
|     424 | 0xFFFFFA21  |  4294965793 |
|     425 | 0xFFFFD514  |  4294956308 |
|     426 | 0x0FD6      |        4054 |
|     427 | 0xFFFF814F  |  4294934863 |
|     428 | 0xFFFFF69D  |  4294964893 |
|     429 | 0x0F7E      |        3966 |
|     430 | 0x30DB      |       12507 |
|     431 | 0xFFFFC887  |  4294953095 |
|     432 | 0xFFFFF012  |  4294963218 |
|     433 | 0x0F17      |        3863 |
|     434 | 0x30DC      |       12508 |
|     435 | 0x30DD      |       12509 |
|     436 | 0x30DE      |       12510 |
|     437 | 0x30DF      |       12511 |
|     438 | 0x005B      |          91 |
|     439 | 0x30E0      |       12512 |
|     440 | 0x30E1      |       12513 |
|     441 | 0x30E2      |       12514 |
|     442 | 0xFFFCD62C  |  4294759980 |
|     443 | 0x001F      |          31 |
|     444 | 0x0FDC      |        4060 |
|     445 | 0xFFFCDBC3  |  4294761411 |
|     446 | 0xFFFFFD97  |  4294966679 |
|     447 | 0x0FC0      |        4032 |
|     448 | 0xFFFCEDFD  |  4294766077 |
|     449 | 0x0700      |        1792 |
|     450 | 0x08F9      |        2297 |
|     451 | 0x30E3      |       12515 |
|     452 | 0x30E4      |       12516 |
|     453 | 0x30E5      |       12517 |
|     454 | 0x30E6      |       12518 |
|     455 | 0x30E7      |       12519 |
|     456 | 0x30E8      |       12520 |
|     457 | 0x0020      |          32 |
|     458 | 0x30E9      |       12521 |
|     459 | 0xFFFCF5CA  |  4294768074 |
|     460 | 0xFFFE9AD0  |  4294875856 |
|     461 | 0x0307      |         775 |
|     462 | 0xFFFD002A  |  4294770730 |
|     463 | 0xFFFE948E  |  4294874254 |
|     464 | 0x08C0      |        2240 |
|     465 | 0x014E      |         334 |
|     466 | 0x30EC      |       12524 |
|     467 | 0x30ED      |       12525 |
|     468 | 0xFFFCEFB2  |  4294766514 |
|     469 | 0xFFFE7F16  |  4294868758 |
|     470 | 0x0C45      |        3141 |
|     471 | 0xFFFCE7E8  |  4294764520 |
|     472 | 0xFFFE7F7A  |  4294868858 |
|     473 | 0x0D1D      |        3357 |
|     474 | 0xFFFCE870  |  4294764656 |
|     475 | 0xFFFE77EF  |  4294866927 |
|     476 | 0x0CEC      |        3308 |
|     477 | 0xFFFD0234  |  4294771252 |
|     478 | 0xFFFE5E01  |  4294860289 |
|     479 | 0x0B56      |        2902 |
|     480 | 0xFFFCF0F1  |  4294766833 |
|     481 | 0xFFFE6129  |  4294861097 |
|     482 | 0x0C17      |        3095 |
|     483 | 0xFFFCF803  |  4294768643 |
|     484 | 0xFFFE5E84  |  4294860420 |
|     485 | 0x0C03      |        3075 |
|     486 | 0xFFFCD53E  |  4294759742 |
|     487 | 0xFFFE653B  |  4294862139 |
|     488 | 0x0EAA      |        3754 |
|     489 | 0x30EE      |       12526 |
|     490 | 0x30EF      |       12527 |
|     491 | 0x30F0      |       12528 |
|     492 | 0x30F1      |       12529 |
|     493 | 0x30F2      |       12530 |
|     494 | 0x30F3      |       12531 |
|     495 | 0x30F4      |       12532 |
|     496 | 0x30F5      |       12533 |
|     497 | 0x007A      |         122 |
|     498 | 0x30F6      |       12534 |
|     499 | 0xFFFCF8C8  |  4294768840 |
|     500 | 0xFFFE73A2  |  4294865826 |
|     501 | 0xFFFD02C6  |  4294771398 |
|     502 | 0xFFFE7CD2  |  4294868178 |
|     503 | 0x028A      |         650 |
|     504 | 0x30F7      |       12535 |
|     505 | 0x30F8      |       12536 |
|     506 | 0x30F9      |       12537 |
|     507 | 0x0533      |        1331 |
|     508 | 0x30FA      |       12538 |
|     509 | 0x30FB      |       12539 |
|     510 | 0xFFFCECEB  |  4294765803 |
|     511 | 0xFFFE879B  |  4294870939 |
|     512 | 0x029E      |         670 |
|     513 | 0x0534      |        1332 |
|     514 | 0x30FC      |       12540 |
|     515 | 0x30FD      |       12541 |
|     516 | 0x30FE      |       12542 |
|     517 | 0x30FF      |       12543 |
|     518 | 0xFFFCEAE7  |  4294765287 |
|     519 | 0xFFFE809C  |  4294869148 |
|     520 | 0x03C5      |         965 |
|     521 | 0xFFFCF1DB  |  4294767067 |
|     522 | 0xFFFE7F5D  |  4294868829 |
|     523 | 0xFFFCEE03  |  4294766083 |
|     524 | 0xFFFE7928  |  4294867240 |
|     525 | 0xFFFD0128  |  4294770984 |
|     526 | 0xFFFE9353  |  4294873939 |
|     527 | 0x044A      |        1098 |
|     528 | 0xFFFCFACE  |  4294769358 |
|     529 | 0xFFFE804C  |  4294869068 |
|     530 | 0x0644      |        1604 |
|     531 | 0xFFFD01D6  |  4294771158 |
|     532 | 0xFFFE813D  |  4294869309 |
|     533 | 0xFFFD02EB  |  4294771435 |
|     534 | 0xFFFE7D8A  |  4294868362 |
|     535 | 0x3100      |       12544 |
|     536 | 0x010E      |         270 |
|     537 | 0x3101      |       12545 |
|     538 | 0xFFFCDC50  |  4294761552 |
|     539 | 0xFFFE61FE  |  4294861310 |
|     540 | 0x04A8      |        1192 |
|     541 | 0x3102      |       12546 |
|     542 | 0x3103      |       12547 |
|     543 | 0x3104      |       12548 |
|     544 | 0x3105      |       12549 |
|     545 | 0x3106      |       12550 |
|     546 | 0x3107      |       12551 |
|     547 | 0x3108      |       12552 |
|     548 | 0x3109      |       12553 |
|     549 | 0x00FA      |         250 |
|     550 | 0x310A      |       12554 |
|     551 | 0x310B      |       12555 |
|     552 | 0x310C      |       12556 |
|     553 | 0x310D      |       12557 |
|     554 | 0x310E      |       12558 |
|     555 | 0x310F      |       12559 |
|     556 | 0x3110      |       12560 |
|     557 | 0x3111      |       12561 |
|     558 | 0x3112      |       12562 |
|     559 | 0xFFFCFAFF  |  4294769407 |
|     560 | 0xFFFE8705  |  4294870789 |
|     561 | 0xFFFB410D  |  4294656269 |
|     562 | 0xFFFF50C1  |  4294922433 |
|     563 | 0xFFFFD121  |  4294955297 |
|     564 | 0x0D40      |        3392 |
|     565 | 0x3115      |       12565 |
|     566 | 0x3116      |       12566 |
|     567 | 0x1388      |        5000 |
|     568 | 0x118F      |        4495 |
|     569 | 0x3117      |       12567 |
|     570 | 0x00D8      |         216 |
|     571 | 0x3119      |       12569 |
|     572 | 0x03C1      |         961 |
|     573 | 0x311A      |       12570 |
|     574 | 0x311B      |       12571 |
|     575 | 0x311F      |       12575 |
|     576 | 0xFFFF716A  |  4294930794 |
|     577 | 0xFFFF6B1C  |  4294929180 |
|     578 | 0xFFFFF48F  |  4294964367 |
|     579 | 0x0F59      |        3929 |
|     580 | 0x3120      |       12576 |
|     581 | 0x3121      |       12577 |
|     582 | 0x3122      |       12578 |
|     583 | 0xFFFFA8C5  |  4294944965 |
|     584 | 0x0DC5      |        3525 |
|     585 | 0xFFFF9D49  |  4294942025 |
|     586 | 0xFFFFF4D1  |  4294964433 |
|     587 | 0xFFFF9D35  |  4294942005 |
|     588 | 0xFFFFFEDC  |  4294967004 |
|     589 | 0x0DC4      |        3524 |
|     590 | 0xFFFF9916  |  4294940950 |
|     591 | 0xFFFFF926  |  4294965542 |
|     592 | 0xFFFFA58B  |  4294944139 |
|     593 | 0xFFFFF9DF  |  4294965727 |
|     594 | 0x3123      |       12579 |
|     595 | 0x3124      |       12580 |
|     596 | 0x3125      |       12581 |
|     597 | 0x3126      |       12582 |
|     598 | 0x3127      |       12583 |
|     599 | 0x3128      |       12584 |
|     600 | 0x3129      |       12585 |
|     601 | 0x312A      |       12586 |
|     602 | 0xFFFF870E  |  4294936334 |
|     603 | 0xFFFFFD29  |  4294966569 |
|     604 | 0x312B      |       12587 |
|     605 | 0x312C      |       12588 |
|     606 | 0x312D      |       12589 |
|     607 | 0x00F3      |         243 |
|     608 | 0x312E      |       12590 |
|     609 | 0x312F      |       12591 |
|     610 | 0x3130      |       12592 |
|     611 | 0xFFFF6F29  |  4294930217 |
|     612 | 0x01D7      |         471 |
|     613 | 0x07FA      |        2042 |
|     614 | 0x3131      |       12593 |
|     615 | 0x3132      |       12594 |
|     616 | 0x3133      |       12595 |
|     617 | 0x3134      |       12596 |
|     618 | 0x3135      |       12597 |
|     619 | 0x3136      |       12598 |
|     620 | 0x3137      |       12599 |
|     621 | 0x3138      |       12600 |
|     622 | 0x3139      |       12601 |
|     623 | 0xFFFF6C0B  |  4294929419 |
|     624 | 0xFFFFFA94  |  4294965908 |
|     625 | 0x0FFA      |        4090 |
|     626 | 0x313A      |       12602 |
|     627 | 0xFFFF66CE  |  4294928078 |
|     628 | 0x1638      |        5688 |
|     629 | 0x03F8      |        1016 |
|     630 | 0x313B      |       12603 |
|     631 | 0x0004      |           4 |
|     632 | 0x313C      |       12604 |
|     633 | 0x313D      |       12605 |
|     634 | 0x313E      |       12606 |
|     635 | 0x313F      |       12607 |
|     636 | 0x3140      |       12608 |
|     637 | 0x3141      |       12609 |
|     638 | 0x3142      |       12610 |
|     639 | 0x3143      |       12611 |
|     640 | 0xFFFF91FB  |  4294939131 |
|     641 | 0x120F      |        4623 |
|     642 | 0x0083      |         131 |
|     643 | 0xFFFFB1CD  |  4294947277 |
|     644 | 0xFFFFF9A2  |  4294965666 |
|     645 | 0x3144      |       12612 |
|     646 | 0xFFFF97F7  |  4294940663 |
|     647 | 0xFFFFFA05  |  4294965765 |
|     648 | 0x0FF8      |        4088 |
|     649 | 0x3145      |       12613 |
|     650 | 0x3146      |       12614 |
|     651 | 0x3147      |       12615 |
|     652 | 0x3148      |       12616 |
|     653 | 0x3149      |       12617 |
|     654 | 0x314A      |       12618 |
|     655 | 0x314B      |       12619 |
|     656 | 0x314C      |       12620 |
|     657 | 0x314D      |       12621 |
|     658 | 0x314E      |       12622 |
|     659 | 0x314F      |       12623 |
|     660 | 0x3150      |       12624 |
|     661 | 0x3151      |       12625 |
|     662 | 0xFFFF9940  |  4294940992 |
|     663 | 0xFFFFFFE9  |  4294967273 |
|     664 | 0xFFFCD640  |  4294760000 |
|     665 | 0x00A8      |         168 |
|     666 | 0x0FD1      |        4049 |
|     667 | 0xFFFCD34E  |  4294759246 |
|     668 | 0xFFFFFBA5  |  4294966181 |
|     669 | 0x0FB6      |        4022 |
|     670 | 0xFFFCE9F6  |  4294765046 |
|     671 | 0x016F      |         367 |
|     672 | 0x0AC0      |        2752 |
|     673 | 0x3153      |       12627 |
|     674 | 0x3154      |       12628 |
|     675 | 0x3155      |       12629 |
|     676 | 0x0131      |         305 |
|     677 | 0x1827C     |       98940 |
|     678 | 0x3203      |       12803 |
|     679 | 0xFFFFB127  |  4294947111 |
|     680 | 0x0FF9      |        4089 |
|     681 | 0x17520     |       95520 |
|     682 | 0x3B54      |       15188 |
|     683 | 0xFFFFB136  |  4294947126 |
|     684 | 0x03F0      |        1008 |
|     685 | 0x172B3     |       94899 |
|     686 | 0x3C9D      |       15517 |
|     687 | 0x039B      |         923 |
|     688 | 0x17847     |       96327 |
|     689 | 0x3C2B      |       15403 |
|     690 | 0x03DC      |         988 |
|     691 | 0x16B8C     |       93068 |
|     692 | 0x28CC      |       10444 |
|     693 | 0x0F8F      |        3983 |
|     694 | 0x16957     |       92503 |
|     695 | 0x2388      |        9096 |
|     696 | 0x0F0A      |        3850 |
|     697 | 0x17282     |       94850 |
|     698 | 0x270A      |        9994 |
|     699 | 0x0FBC      |        4028 |
|     700 | 0x3156      |       12630 |
|     701 | 0x3157      |       12631 |
|     702 | 0x3158      |       12632 |
|     703 | 0x169F3     |       92659 |
|     704 | 0x3459      |       13401 |
|     705 | 0x0125      |         293 |
|     706 | 0x16A0F     |       92687 |
|     707 | 0x2C60      |       11360 |
|     708 | 0x0EFC      |        3836 |
|     709 | 0x1734E     |       95054 |
|     710 | 0x293B      |       10555 |
|     711 | 0x0D59      |        3417 |
|     712 | 0x3159      |       12633 |
|     713 | 0x315A      |       12634 |
|     714 | 0x315B      |       12635 |
|     715 | 0x315C      |       12636 |
|     716 | 0x315D      |       12637 |
|     717 | 0x315E      |       12638 |
|     718 | 0x315F      |       12639 |
|     719 | 0x3160      |       12640 |
|     720 | 0x3161      |       12641 |
|     721 | 0x3162      |       12642 |
|     722 | 0x000C      |          12 |
|     723 | 0x0069      |         105 |
|     724 | 0x012D      |         301 |
|     725 | 0x05B3      |        1459 |
|     726 | 0x054B      |        1355 |
|     727 | 0x3163      |       12643 |
|     728 | 0x3164      |       12644 |
|     729 | 0x3165      |       12645 |
|     730 | 0x3166      |       12646 |
|     731 | 0x3167      |       12647 |
|     732 | 0x3168      |       12648 |
|     733 | 0x3169      |       12649 |
|     734 | 0x316A      |       12650 |
|     735 | 0x170C4     |       94404 |
|     736 | 0x3B18      |       15128 |
|     737 | 0x0EAB      |        3755 |
|     738 | 0x316B      |       12651 |
|     739 | 0x316C      |       12652 |
|     740 | 0x316D      |       12653 |
|     741 | 0x16F49     |       94025 |
|     742 | 0x27DC      |       10204 |
|     743 | 0x316E      |       12654 |
|     744 | 0x1656D     |       91501 |
|     745 | 0x24F8      |        9464 |
|     746 | 0x0D86      |        3462 |
|     747 | 0x316F      |       12655 |
|     748 | 0x1523F     |       86591 |
|     749 | 0x0DD6      |        3542 |
|     750 | 0xFFFFB3B4  |  4294947764 |
|     751 | 0x0D0F      |        3343 |
|     752 | 0x3170      |       12656 |
|     753 | 0x3171      |       12657 |
|     754 | 0x3172      |       12658 |
|     755 | 0x3173      |       12659 |
|     756 | 0x3174      |       12660 |
|     757 | 0x17B4B     |       97099 |
|     758 | 0x2773      |       10099 |
|     759 | 0x15A3B     |       88635 |
|     760 | 0x23CD      |        9165 |
|     761 | 0x15AC0     |       88768 |
|     762 | 0x165E      |        5726 |
|     763 | 0xFFFFB138  |  4294947128 |
|     764 | 0x15A9F     |       88735 |
|     765 | 0x0E62      |        3682 |
|     766 | 0xFFFEC5E7  |  4294886887 |
|     767 | 0xFFFE2025  |  4294844453 |
|     768 | 0x0359      |         857 |
|     769 | 0xFFFF0CA7  |  4294904999 |
|     770 | 0xFFFDE061  |  4294828129 |
|     771 | 0x0C2C      |        3116 |
|     772 | 0x3176      |       12662 |
|     773 | 0x04E2      |        1250 |
|     774 | 0xFFFF0CC1  |  4294905025 |
|     775 | 0xFFFE0EE3  |  4294840035 |
|     776 | 0xFFFF144B  |  4294906955 |
|     777 | 0xFFFE0108  |  4294836488 |
|     778 | 0x3177      |       12663 |
|     779 | 0x3178      |       12664 |
|     780 | 0x3179      |       12665 |
|     781 | 0x0059      |          89 |
|     782 | 0x317A      |       12666 |
|     783 | 0x317B      |       12667 |
|     784 | 0x317C      |       12668 |
|     785 | 0x317D      |       12669 |
|     786 | 0xFFFEC644  |  4294886980 |
|     787 | 0xFFFE39AB  |  4294850987 |
|     788 | 0x014F      |         335 |
|     789 | 0x317F      |       12671 |
|     790 | 0x17208     |       94728 |
|     791 | 0x3908      |       14600 |
|     792 | 0x0394      |         916 |
|     793 | 0x1774F     |       96079 |
|     794 | 0x3866      |       14438 |
|     795 | 0x13806     |       79878 |
|     796 | 0xFFFFB3B5  |  4294947765 |
|     797 | 0x13322     |       78626 |
|     798 | 0xFFFFFD9C  |  4294966684 |
|     799 | 0x0150      |         336 |
|     800 | 0x3180      |       12672 |
|     801 | 0x3181      |       12673 |
|     802 | 0x3182      |       12674 |
|     803 | 0x3183      |       12675 |
|     804 | 0x3184      |       12676 |
|     805 | 0x15AA8     |       88744 |
|     806 | 0x331C      |       13084 |
|     807 | 0x03E3      |         995 |
|     808 | 0x15A93     |       88723 |
|     809 | 0x15A81     |       88705 |
|     810 | 0x280D      |       10253 |
|     811 | 0x15AA0     |       88736 |
|     812 | 0x216F      |        8559 |
|     813 | 0x3185      |       12677 |
|     814 | 0x3186      |       12678 |
|     815 | 0x3187      |       12679 |
|     816 | 0x3188      |       12680 |
|     817 | 0x3189      |       12681 |
|     818 | 0x318A      |       12682 |
|     819 | 0x318B      |       12683 |
|     820 | 0x15A5A     |       88666 |
|     821 | 0x183D      |        6205 |
|     822 | 0x318C      |       12684 |
|     823 | 0x18056     |       98390 |
|     824 | 0x07F7      |        2039 |
|     825 | 0x1762E     |       95790 |
|     826 | 0x29F4      |       10740 |
|     827 | 0x0C48      |        3144 |
|     828 | 0x176AC     |       95916 |
|     829 | 0x3952      |       14674 |
|     830 | 0x318D      |       12685 |
|     831 | 0x318E      |       12686 |
|     832 | 0x318F      |       12687 |
|     833 | 0x3190      |       12688 |
|     834 | 0x3191      |       12689 |
|     835 | 0x3192      |       12690 |
|     836 | 0x3193      |       12691 |
|     837 | 0x3194      |       12692 |
|     838 | 0x3195      |       12693 |
|     839 | 0x3196      |       12694 |
|     840 | 0x3197      |       12695 |
|     841 | 0x3198      |       12696 |
|     842 | 0x3199      |       12697 |
|     843 | 0x319A      |       12698 |
|     844 | 0x17865     |       96357 |
|     845 | 0x38F9      |       14585 |
|     846 | 0x17270     |       94832 |
|     847 | 0x3AF1      |       15089 |
|     848 | 0x16A47     |       92743 |
|     849 | 0x3AA8      |       15016 |
|     850 | 0x16448     |       91208 |
|     851 | 0x3492      |       13458 |
|     852 | 0x319B      |       12699 |
|     853 | 0x319C      |       12700 |
|     854 | 0x319D      |       12701 |
|     855 | 0x319E      |       12702 |
|     856 | 0x319F      |       12703 |
|     857 | 0x31A0      |       12704 |
|     858 | 0x31A1      |       12705 |
|     859 | 0x31A2      |       12706 |
|     860 | 0x31A3      |       12707 |
|     861 | 0x15A67     |       88679 |
|     862 | 0x3304      |       13060 |
|     863 | 0x0056      |          86 |
|     864 | 0x31A4      |       12708 |
|     865 | 0x31A5      |       12709 |
|     866 | 0x31A6      |       12710 |
|     867 | 0x31A7      |       12711 |
|     868 | 0x31A8      |       12712 |
|     869 | 0x31A9      |       12713 |
|     870 | 0x31AA      |       12714 |
|     871 | 0x31AB      |       12715 |
|     872 | 0x31AC      |       12716 |
|     873 | 0x31AD      |       12717 |
|     874 | 0x31AE      |       12718 |
|     875 | 0x31AF      |       12719 |
|     876 | 0x16906     |       92422 |
|     877 | 0x27D9      |       10201 |
|     878 | 0x06ED      |        1773 |
|     879 | 0x31B0      |       12720 |
|     880 | 0x15ABD     |       88765 |
|     881 | 0x20B8      |        8376 |
|     882 | 0x0055      |          85 |
|     883 | 0x16878     |       92280 |
|     884 | 0x302C      |       12332 |
|     885 | 0x16258     |       90712 |
|     886 | 0x2748      |       10056 |
|     887 | 0x15F80     |       89984 |
|     888 | 0x3347      |       13127 |
|     889 | 0x0DDA      |        3546 |
|     890 | 0x31B1      |       12721 |
|     891 | 0x31B2      |       12722 |
|     892 | 0x31B3      |       12723 |
|     893 | 0x31B4      |       12724 |
|     894 | 0x31B5      |       12725 |
|     895 | 0x31B6      |       12726 |
|     896 | 0x31B7      |       12727 |
|     897 | 0x31B8      |       12728 |
|     898 | 0x31B9      |       12729 |
|     899 | 0x31BA      |       12730 |
|     900 | 0x31BB      |       12731 |
|     901 | 0x31BC      |       12732 |
|     902 | 0x0102      |         258 |
|     903 | 0x31BD      |       12733 |
|     904 | 0x31BE      |       12734 |
|     905 | 0x15ABB     |       88763 |
|     906 | 0x20C6      |        8390 |
|     907 | 0x03FC      |        1020 |
|     908 | 0x15D94     |       89492 |
|     909 | 0x26B1      |        9905 |
|     910 | 0x15A2C     |       88620 |
|     911 | 0x1797      |        6039 |
|     912 | 0x0BF5      |        3061 |
|     913 | 0x31BF      |       12735 |
|     914 | 0x31C0      |       12736 |
|     915 | 0x31C1      |       12737 |
|     916 | 0x31C2      |       12738 |
|     917 | 0x31C3      |       12739 |
|     918 | 0x31C4      |       12740 |
|     919 | 0x31C5      |       12741 |
|     920 | 0x31C6      |       12742 |
|     921 | 0x31C7      |       12743 |
|     922 | 0x31C8      |       12744 |
|     923 | 0x15ACD     |       88781 |
|     924 | 0x0F04      |        3844 |
|     925 | 0x15B32     |       88882 |
|     926 | 0x1FFA      |        8186 |
|     927 | 0xFFFBC528  |  4294690088 |
|     928 | 0xFFFE9D62  |  4294876514 |
|     929 | 0xFFFFD120  |  4294955296 |
|     930 | 0xFFFC35DA  |  4294718938 |
|     931 | 0xFFFEBCC5  |  4294884549 |
|     932 | 0xFFFCEEF3  |  4294766323 |
|     933 | 0xFFFFE05E  |  4294959198 |
|     934 | 0x18FC2     |      102338 |
|     935 | 0x006D      |         109 |
|     936 | 0xFFFFB12B  |  4294947115 |
|     937 | 0x016B      |         363 |
|     938 | 0x007D      |         125 |
|     939 | 0x016C      |         364 |
|     940 | 0xFFFC6CDC  |  4294733020 |
|     941 | 0x15D83     |       89475 |
|     942 | 0x0140      |         320 |
|     943 | 0xFFFC9E26  |  4294745638 |
|     944 | 0x11A94     |       72340 |
|     945 | 0xFFFD1FB6  |  4294778806 |
|     946 | 0x11805     |       71685 |
|     947 | 0xFFFCF084  |  4294766724 |
|     948 | 0x0800      |        2048 |
|     949 | 0x1B159     |      110937 |
|     950 | 0xFFFFDD19  |  4294958361 |
|     951 | 0xFFFCD4C4  |  4294759620 |
|     952 | 0xFFFFFDCD  |  4294966733 |
|     953 | 0x18E0A     |      101898 |
|     954 | 0xFFFFFD0E  |  4294966542 |
|     955 | 0x0008      |           8 |
|     956 | 0x0091      |         145 |
|     957 | 0x004F      |          79 |
|     958 | 0x004C      |          76 |
|     959 | 0x0018      |          24 |
|     960 | 0x0030      |          48 |
|     961 | 0x0040      |          64 |
|     962 | 0x002D      |          45 |
|     963 | 0xFFFCD97A  |  4294760826 |
|     964 | 0xFFFFFFA2  |  4294967202 |
|     965 | 0x0024      |          36 |
|     966 | 0xFFFCEB69  |  4294765417 |
|     967 | 0x04A4      |        1188 |
|     968 | 0x08C2      |        2242 |
|     969 | 0xFFFCD08E  |  4294758542 |
|     970 | 0x6C8F      |       27791 |
|     971 | 0xFFFFE0C0  |  4294959296 |
|     972 | 0xFFFCE2C0  |  4294763200 |
|     973 | 0x6819      |       26649 |
|     974 | 0x142A3     |       82595 |
|     975 | 0xFFFFFCEB  |  4294966507 |
|     976 | 0x15C55     |       89173 |
|     977 | 0xFFFFFC89  |  4294966409 |
|     978 | 0x18061     |       98401 |
|     979 | 0x1899D     |      100765 |
|     980 | 0xFFFFFAE5  |  4294965989 |
|     981 | 0xFFFCF518  |  4294767896 |
|     982 | 0x2D00      |       11520 |
|     983 | 0xFFFCA85C  |  4294748252 |
|     984 | 0x80E0      |       32992 |
|     985 | 0xFFFCD7BF  |  4294760383 |
|     986 | 0x184FD     |       99581 |
|     987 | 0x2BB6      |       11190 |
|     988 | 0x188B9     |      100537 |
|     989 | 0x32B5      |       12981 |
|     990 | 0x0708      |        1800 |
|     991 | 0xFFFCEC55  |  4294765653 |
|     992 | 0x00B7      |         183 |
|     993 | 0x16598     |       91544 |
|     994 | 0x2799      |       10137 |
|     995 | 0x15A98     |       88728 |
|     996 | 0x259E      |        9630 |
|     997 | 0x15956     |       88406 |
|     998 | 0x106E      |        4206 |
|     999 | 0xFFFCEE06  |  4294766086 |
|    1000 | 0x0010      |          16 |
|    1001 | 0xFFFCE9C6  |  4294764998 |
|    1002 | 0x0DAC      |        3500 |
|    1003 | 0xFFFCEB5C  |  4294765404 |
|    1004 | 0x03B7      |         951 |
|    1005 | 0xFFFCD875  |  4294760565 |
|    1006 | 0xFFFFFE48  |  4294966856 |
|    1007 | 0x15C10     |       89104 |
|    1008 | 0x28DD      |       10461 |
|    1009 | 0x1652A     |       91434 |
|    1010 | 0x2D3B      |       11579 |
|    1011 | 0x159EE     |       88558 |
|    1012 | 0x0AA4      |        2724 |
|    1013 | 0x15A76     |       88694 |
|    1014 | 0x169C      |        5788 |
|    1015 | 0x15A8F     |       88719 |
|    1016 | 0x29B4      |       10676 |
|    1017 | 0xFFFC6D53  |  4294733139 |
|    1018 | 0x16330     |       90928 |
|    1019 | 0x0080      |         128 |
|    1020 | 0x02B6      |         694 |
|    1021 | 0x39B2      |       14770 |
|    1022 | 0x39B3      |       14771 |
|    1023 | 0x39B4      |       14772 |
|    1024 | 0x39B5      |       14773 |
|    1025 | 0x39B6      |       14774 |
|    1026 | 0x39B7      |       14775 |
|    1027 | 0x39B8      |       14776 |
|    1028 | 0x39B9      |       14777 |
|    1029 | 0x0190      |         400 |
|    1030 | 0x39BA      |       14778 |
|    1031 | 0x06B5      |        1717 |
|    1032 | 0x39BB      |       14779 |
|    1033 | 0x39BC      |       14780 |
|    1034 | 0x39BD      |       14781 |
|    1035 | 0x39BE      |       14782 |
|    1036 | 0x39BF      |       14783 |
|    1037 | 0x39C0      |       14784 |
|    1038 | 0x39C1      |       14785 |
|    1039 | 0x39C2      |       14786 |
|    1040 | 0x39C3      |       14787 |
|    1041 | 0x39C4      |       14788 |
|    1042 | 0x39C5      |       14789 |
|    1043 | 0x39C6      |       14790 |
|    1044 | 0x39C7      |       14791 |
|    1045 | 0x39C8      |       14792 |
|    1046 | 0x39C9      |       14793 |
|    1047 | 0x39CA      |       14794 |
|    1048 | 0x39CB      |       14795 |
|    1049 | 0x39CC      |       14796 |
|    1050 | 0x39CD      |       14797 |
|    1051 | 0x00AE      |         174 |
|    1052 | 0x0032      |          50 |
|    1053 | 0x03E8      |        1000 |
|    1054 | 0x00B1      |         177 |
|    1055 | 0x39CE      |       14798 |
|    1056 | 0x39CF      |       14799 |
|    1057 | 0x39D0      |       14800 |
|    1058 | 0x39D1      |       14801 |
|    1059 | 0x39D2      |       14802 |
|    1060 | 0x39D3      |       14803 |
|    1061 | 0x39D4      |       14804 |
|    1062 | 0x39D5      |       14805 |
|    1063 | 0x39D6      |       14806 |
|    1064 | 0x39D7      |       14807 |
|    1065 | 0x39D8      |       14808 |
|    1066 | 0xFFFCF23E  |  4294767166 |
|    1067 | 0xFFFFFFF4  |  4294967284 |
|    1068 | 0x098D      |        2445 |
|    1069 | 0xFFFCF618  |  4294768152 |
|    1070 | 0xFFFFFD3A  |  4294966586 |
|    1071 | 0x06EF      |        1775 |
|    1072 | 0xFFFCEF64  |  4294766436 |
|    1073 | 0xFFFFFD26  |  4294966566 |

## String References

- **11263**: What advice will you give Offa? [Bury it somewhere in the city./Conceal the burial spot with a rock.]
- **11535**: Be all that you can be? [I'm your [man/woman]./Not today.]
- **11917**: 6 is pressed into <Player>'s hand!
- **11920**: Accept the task? [It seems I have little choice.../I won't be threatened!]
- **12592**: The assassin entered through... [...the door./...the window./...the ventilation shaft.]
- **12601**: The body was found in darkness because... [...the senator did not light the lantern./...the assassin extinguished the light./...the guard extinguished the light.]
- **12605**: He didn't light the lantern because... [...he preferred the darkness./...he was distracted.]
- **14775**: What's your opinion? [I hope they get together!/You're imagining things.]

## Events

### Event 65535

#### Metadata

| Field        | Value   |
|--------------|---------|
| Entrypoint   | 0x0000  |
| Data Size    | 1 bytes |
| Instructions | 1       |

```
      00 01 02 03 04 05 06 07  08 09 0A 0B 0C 0D 0E 0F
      -- -- -- -- -- -- -- --  -- -- -- -- -- -- -- --
0000: 00                                                .               
```

#### Opcodes

```
  0: 0x0000 [0x00] END_REQSTACK()
```

### Event 65535.1

#### Metadata

| Field        | Value    |
|--------------|----------|
| Entrypoint   | 0x0001   |
| Data Size    | 10 bytes |
| Instructions | 2        |

```
      00 01 02 03 04 05 06 07  08 09 0A 0B 0C 0D 0E 0F
      -- -- -- -- -- -- -- --  -- -- -- -- -- -- -- --
0000:    37 00 80 01 80 02 80  03 80 00                  7.........     
```

#### Opcodes

```
  0: 0x0001 [0x37] UPDATE_EVENT_POSITION_AND_DIR: x=0.154*, z=-1.653*, y=0.000*, direction=259.0*
  1: 0x000A [0x00] END_REQSTACK()
```

### Event 65534

#### Metadata

| Field        | Value   |
|--------------|---------|
| Entrypoint   | 0x000B  |
| Data Size    | 1 bytes |
| Instructions | 1       |

```
      00 01 02 03 04 05 06 07  08 09 0A 0B 0C 0D 0E 0F
      -- -- -- -- -- -- -- --  -- -- -- -- -- -- -- --
0000:                                   00                         .    
```

#### Opcodes

```
  0: 0x000B [0x00] END_REQSTACK()
```

### Event 65535.2

#### Metadata

| Field        | Value    |
|--------------|----------|
| Entrypoint   | 0x000C   |
| Data Size    | 17 bytes |
| Instructions | 5        |

```
      00 01 02 03 04 05 06 07  08 09 0A 0B 0C 0D 0E 0F
      -- -- -- -- -- -- -- --  -- -- -- -- -- -- -- --
0000:                                      1C 04 80 32              ...2
0010: 05 80 1F 00 06 80 07 80  08 80 1F 01 00           .............   
```

#### Opcodes

```
  0: 0x000C [0x1C] WAIT(120* ticks)
  1: 0x000F [0x32] ExtData[1]->MainSpeed = 13* * 0.1
  2: 0x0012 [0x1F] MOVE_ENTITY: EventEntity moves to X=-142.323*, Z=-88.579*, Y=-4.000*
  3: 0x001A [0x1F] MOVE_ENTITY: Update entity position (mode=1)
  4: 0x001C [0x00] END_REQSTACK()
```

### Event 65535.3

#### Metadata

| Field        | Value    |
|--------------|----------|
| Entrypoint   | 0x001D   |
| Data Size    | 29 bytes |
| Instructions | 7        |

```
      00 01 02 03 04 05 06 07  08 09 0A 0B 0C 0D 0E 0F
      -- -- -- -- -- -- -- --  -- -- -- -- -- -- -- --
0010:                                         32 05 80               2..
0020: 1F 00 09 80 0A 80 08 80  1F 01 1C 0B 80 6E F0 FF  .............n..
0030: FF 7F 0C 80 99 F0 FF FF  7F 00                    ..........      
```

#### Opcodes

```
  0: 0x001D [0x32] ExtData[1]->MainSpeed = 13* * 0.1
  1: 0x0020 [0x1F] MOVE_ENTITY: EventEntity moves to X=-141.486*, Z=-87.353*, Y=-4.000*
  2: 0x0028 [0x1F] MOVE_ENTITY: Update entity position (mode=1)
  3: 0x002A [0x1C] WAIT(60* ticks)
  4: 0x002D [0x6E] LocalPlayer uses emote 20*
  5: 0x0034 [0x99] Wait for LocalPlayer animation to complete
  6: 0x0039 [0x00] END_REQSTACK()
```

### Event 65535.4

#### Metadata

| Field        | Value    |
|--------------|----------|
| Entrypoint   | 0x003A   |
| Data Size    | 13 bytes |
| Instructions | 3        |

```
      00 01 02 03 04 05 06 07  08 09 0A 0B 0C 0D 0E 0F
      -- -- -- -- -- -- -- --  -- -- -- -- -- -- -- --
0030:                                47 00 0D 80 0E 80            G.....
0040: 02 80 0F 80 47 01 00                              ....G..         
```

#### Opcodes

```
  0: 0x003A [0x47] UPDATE_PLAYER_POS(-233.958*, 96.478*, 0.000*, yaw=270.0*)
  1: 0x0044 [0x47] WAIT_PLAYER_POS_UPDATE
  2: 0x0046 [0x00] END_REQSTACK()
```

### Event 65535.5

#### Metadata

| Field        | Value    |
|--------------|----------|
| Entrypoint   | 0x0047   |
| Data Size    | 14 bytes |
| Instructions | 4        |

```
      00 01 02 03 04 05 06 07  08 09 0A 0B 0C 0D 0E 0F
      -- -- -- -- -- -- -- --  -- -- -- -- -- -- -- --
0040:                      32  05 80 1F 00 10 80 11 80         2........
0050: 12 80 1F 01 00                                    .....           
```

#### Opcodes

```
  0: 0x0047 [0x32] ExtData[1]->MainSpeed = 13* * 0.1
  1: 0x004A [0x1F] MOVE_ENTITY: EventEntity moves to X=-233.988*, Z=103.454*, Y=-0.601*
  2: 0x0052 [0x1F] MOVE_ENTITY: Update entity position (mode=1)
  3: 0x0054 [0x00] END_REQSTACK()
```

### Event 65535.6

#### Metadata

| Field        | Value    |
|--------------|----------|
| Entrypoint   | 0x0055   |
| Data Size    | 22 bytes |
| Instructions | 6        |

```
      00 01 02 03 04 05 06 07  08 09 0A 0B 0C 0D 0E 0F
      -- -- -- -- -- -- -- --  -- -- -- -- -- -- -- --
0050:                32 05 80  1F 00 13 80 14 80 08 80       2..........
0060: 1F 01 1E EE 71 05 01 1C  15 80 00                 ....q......     
```

#### Opcodes

```
  0: 0x0055 [0x32] ExtData[1]->MainSpeed = 13* * 0.1
  1: 0x0058 [0x1F] MOVE_ENTITY: EventEntity moves to X=-52.558*, Z=-134.643*, Y=-4.000*
  2: 0x0060 [0x1F] MOVE_ENTITY: Update entity position (mode=1)
  3: 0x0062 [0x1E] EventEntity looks at Aileen (ID: 17134062/0x010571EE) and starts talking
  4: 0x0067 [0x1C] WAIT(30* ticks)
  5: 0x006A [0x00] END_REQSTACK()
```

### Event 112

#### Metadata

| Field        | Value     |
|--------------|-----------|
| Entrypoint   | 0x006B    |
| Data Size    | 687 bytes |
| Instructions | 76        |

```
      00 01 02 03 04 05 06 07  08 09 0A 0B 0C 0D 0E 0F
      -- -- -- -- -- -- -- --  -- -- -- -- -- -- -- --
0060:                                   42 45 16 80 F8             BE...
0070: FF FF 7F F8 FF FF 7F 66  64 6F 31 02 80 55 16 80  .......fdo1..U..
0080: F8 FF FF 7F F8 FF FF 7F  66 64 6F 31 46 01 38 17  ........fdo1F.8.
0090: 80 92 01 EE 71 05 01 92  01 D8 71 05 01 4E 00 D8  ....q.....q..N..
00A0: 71 05 01 BA F0 FF FF 7F  18 80 19 80 1A 80 1B 80  q...............
00B0: 80 F0 FF FF 7F 80 D8 71  05 01 2F 00 EE 71 05 01  .......q../..q..
00C0: 4E 00 EE 71 05 01 80 EE  71 05 01 4A D8 71 05 01  N..q....q..J.q..
00D0: EE 71 05 01 4A F0 FF FF  7F D8 71 05 01 1C 15 80  .q..J.....q.....
00E0: 45 1C 80 F8 FF FF 7F F8  FF FF 7F 73 31 38 30 02  E..........s180.
00F0: 80 1C 1D 80 45 16 80 F8  FF FF 7F F8 FF FF 7F 66  ....E..........f
0100: 64 69 31 02 80 55 16 80  F8 FF FF 7F F8 FF FF 7F  di1..U..........
0110: 66 64 69 31 2B D8 71 05  01 1E 80 23 52 1C 80 F8  fdi1+.q....#R...
0120: FF FF 7F F8 FF FF 7F 73  31 38 30 45 1C 80 F8 FF  .......s180E....
0130: FF 7F F8 FF FF 7F 73 31  37 39 02 80 4A D8 71 05  ......s179..J.q.
0140: 01 F0 FF FF 7F 1C 15 80  66 02 80 D8 71 05 01 D8  ........f...q...
0150: 71 05 01 74 6C 6B 30 2B  D8 71 05 01 1F 80 23 2B  q..tlk0+.q....#+
0160: D8 71 05 01 20 80 23 66  02 80 D8 71 05 01 D8 71  .q.. .#f...q...q
0170: 05 01 74 65 6E 30 52 1C  80 F8 FF FF 7F F8 FF FF  ..ten0R.........
0180: 7F 73 31 37 39 45 1C 80  F8 FF FF 7F F8 FF FF 7F  .s179E..........
0190: 73 31 38 31 02 80 2B EE  71 05 01 21 80 23 52 1C  s181..+.q..!.#R.
01A0: 80 F8 FF FF 7F F8 FF FF  7F 73 31 38 31 45 1C 80  .........s181E..
01B0: F8 FF FF 7F F8 FF FF 7F  73 31 38 32 02 80 BA F0  ........s182....
01C0: FF FF 7F 22 80 23 80 08  80 24 80 80 F0 FF FF 7F  ...".#...$......
01D0: 29 05 F0 FF FF 7F 07 52  1C 80 F8 FF FF 7F F8 FF  )......R........
01E0: FF 7F 73 31 38 32 45 1C  80 F8 FF FF 7F F8 FF FF  ..s182E.........
01F0: 7F 73 31 38 33 02 80 4A  EE 71 05 01 F0 FF FF 7F  .s183..J.q......
0200: 2B EE 71 05 01 25 80 23  52 1C 80 F8 FF FF 7F F8  +.q..%.#R.......
0210: FF FF 7F 73 31 38 33 45  1C 80 F8 FF FF 7F F8 FF  ...s183E........
0220: FF 7F 73 31 38 34 02 80  2B EE 71 05 01 26 80 23  ..s184..+.q..&.#
0230: 52 1C 80 F8 FF FF 7F F8  FF FF 7F 73 31 38 34 45  R..........s184E
0240: 1C 80 F8 FF FF 7F F8 FF  FF 7F 73 31 38 35 02 80  ..........s185..
0250: 03 02 10 8B 7F 2B EE 71  05 01 27 80 23 2B EE 71  .....+.q..'.#+.q
0260: 05 01 28 80 23 52 1C 80  F8 FF FF 7F F8 FF FF 7F  ..(.#R..........
0270: 73 31 38 35 45 1C 80 F8  FF FF 7F F8 FF FF 7F 73  s185E..........s
0280: 31 38 36 02 80 5B 29 80  EE 71 05 01 EE 71 05 01  186..[)..q...q..
0290: 74 6C 6B 30 2B EE 71 05  01 2A 80 23 52 1C 80 F8  tlk0+.q..*.#R...
02A0: FF FF 7F F8 FF FF 7F 73  31 38 36 45 1C 80 F8 FF  .......s186E....
02B0: FF 7F F8 FF FF 7F 73 31  38 37 02 80 5B 29 80 EE  ......s187..[)..
02C0: 71 05 01 EE 71 05 01 74  6C 6B 31 2B EE 71 05 01  q...q..tlk1+.q..
02D0: 2B 80 23 45 16 80 F8 FF  FF 7F F8 FF FF 7F 66 64  +.#E..........fd
02E0: 6F 31 02 80 55 16 80 F8  FF FF 7F F8 FF FF 7F 66  o1..U..........f
02F0: 64 6F 31 52 1C 80 F8 FF  FF 7F F8 FF FF 7F 73 31  do1R..........s1
0300: 38 37 46 00 1C 04 80 45  16 80 F8 FF FF 7F F8 FF  87F....E........
0310: FF 7F 66 64 69 31 02 80  21 00                    ..fdi1..!.      
```

#### Opcodes

```
  0: 0x006B [0x42] SET_CLI_EVENT_CANCEL_DATA()
  1: 0x006C [0x45] LOAD_SCHEDULED_TASK: Load scheduler "fdo1" with entities [EventEntity, EventEntity], work=[200*, 0*]
  2: 0x007D [0x55] WAIT_LOAD_SCHEDULER: Wait for scheduler "fdo1" with entities [EventEntity, EventEntity], work=200*
  3: 0x008C [0x46] CAMERA_CONTROL: Disable user control
  4: 0x008E [0x38] SET_CLIENT_EVENT_MODE(mode=27*)
  5: 0x0091 [0x92] Aileen (ID: 17134062/0x010571EE)->Render.Flags3 ^= 0x01
  6: 0x0097 [0x92] Raginmund (ID: 17134040/0x010571D8)->Render.Flags3 ^= 0x01
  7: 0x009D [0x4E] SET_ENTITY_HIDE_FLAG: Show Raginmund (ID: 17134040/0x010571D8)
  8: 0x00A3 [0xBA] SET_ENTITY_POSITION(entity_id=LocalPlayer, pos_x=-57.887*, pos_z=-136.661*, pos_y=-3.999*, direction=65.3*)
  9: 0x00B0 [0x80] LOAD_WAIT(entity=LocalPlayer)
 10: 0x00B5 [0x80] LOAD_WAIT(entity=Raginmund (ID: 17134040/0x010571D8))
 11: 0x00BA [0x2F] Aileen (ID: 17134062/0x010571EE)->Render.Flags0 &= ~0x80000 // Bit 19
 12: 0x00C0 [0x4E] SET_ENTITY_HIDE_FLAG: Show Aileen (ID: 17134062/0x010571EE)
 13: 0x00C6 [0x80] LOAD_WAIT(entity=Aileen (ID: 17134062/0x010571EE))
 14: 0x00CB [0x4A] Raginmund (ID: 17134040/0x010571D8) looks at Aileen (ID: 17134062/0x010571EE)
 15: 0x00D4 [0x4A] LocalPlayer looks at Raginmund (ID: 17134040/0x010571D8)
 16: 0x00DD [0x1C] WAIT(30* ticks)
 17: 0x00E0 [0x45] LOAD_SCHEDULED_TASK: Load scheduler "s180" with entities [EventEntity, EventEntity], work=[332*, 0*]
 18: 0x00F1 [0x1C] WAIT(15* ticks)
 19: 0x00F4 [0x45] LOAD_SCHEDULED_TASK: Load scheduler "fdi1" with entities [EventEntity, EventEntity], work=[200*, 0*]
 20: 0x0105 [0x55] WAIT_LOAD_SCHEDULER: Wait for scheduler "fdi1" with entities [EventEntity, EventEntity], work=200*
 21: 0x0114 [0x2B] Raginmund (ID: 17134040/0x010571D8) [10871*]:
     "That child--Aileen, I think her name is--has been coming here to wait for her friend for days now."
 22: 0x011B [0x23] WAIT_FOR_DIALOG_INTERACTION
 23: 0x011C [0x52] END_LOAD_SCHEDULER: End scheduler "s180" with entities [EventEntity, EventEntity], work=332*
 24: 0x012B [0x45] LOAD_SCHEDULED_TASK: Load scheduler "s179" with entities [EventEntity, EventEntity], work=[332*, 0*]
 25: 0x013C [0x4A] Raginmund (ID: 17134040/0x010571D8) looks at LocalPlayer
 26: 0x0145 [0x1C] WAIT(30* ticks)
 27: 0x0148 [0x66] LOAD_EXT_SCHEDULER_MAIN: Load scheduler "tlk0" with entities [Raginmund (ID: 17134040/0x010571D8), Raginmund (ID: 17134040/0x010571D8)], work=0*
 28: 0x0157 [0x2B] Raginmund (ID: 17134040/0x010571D8) [10872*]:
     "Her friend, Karla, was called away to stay with family in the village of Lahnefeld, on the outskirts of Bastok."
 29: 0x015E [0x23] WAIT_FOR_DIALOG_INTERACTION
 30: 0x015F [0x2B] Raginmund (ID: 17134040/0x010571D8) [10873*]:
     "The caravan Karla was traveling with was set upon by a Quadav raiding party, and no one has seen her since. I don't have the heart to tell Aileen..."
 31: 0x0166 [0x23] WAIT_FOR_DIALOG_INTERACTION
 32: 0x0167 [0x66] LOAD_EXT_SCHEDULER_MAIN: Load scheduler "ten0" with entities [Raginmund (ID: 17134040/0x010571D8), Raginmund (ID: 17134040/0x010571D8)], work=0*
 33: 0x0176 [0x52] END_LOAD_SCHEDULER: End scheduler "s179" with entities [EventEntity, EventEntity], work=332*
 34: 0x0185 [0x45] LOAD_SCHEDULED_TASK: Load scheduler "s181" with entities [EventEntity, EventEntity], work=[332*, 0*]
 35: 0x0196 [0x2B] Aileen (ID: 17134062/0x010571EE) [10874*]:
     "Where are you, Karla? Don't tell me she's forgotten..."
 36: 0x019D [0x23] WAIT_FOR_DIALOG_INTERACTION
 37: 0x019E [0x52] END_LOAD_SCHEDULER: End scheduler "s181" with entities [EventEntity, EventEntity], work=332*
 38: 0x01AD [0x45] LOAD_SCHEDULED_TASK: Load scheduler "s182" with entities [EventEntity, EventEntity], work=[332*, 0*]
 39: 0x01BE [0xBA] SET_ENTITY_POSITION(entity_id=LocalPlayer, pos_x=-52.547*, pos_z=-132.455*, pos_y=-4.000*, direction=70.2*)
 40: 0x01CB [0x80] LOAD_WAIT(entity=LocalPlayer)
 41: 0x01D0 [0x29] REQ_SET_WAIT(priority=0x05, entity_id=LocalPlayer, tag_num=0x07)
 42: 0x01D7 [0x52] END_LOAD_SCHEDULER: End scheduler "s182" with entities [EventEntity, EventEntity], work=332*
 43: 0x01E6 [0x45] LOAD_SCHEDULED_TASK: Load scheduler "s183" with entities [EventEntity, EventEntity], work=[332*, 0*]
 44: 0x01F7 [0x4A] Aileen (ID: 17134062/0x010571EE) looks at LocalPlayer
 45: 0x0200 [0x2B] Aileen (ID: 17134062/0x010571EE) [10875*]:
     "Karla! Where have you...?"
 46: 0x0207 [0x23] WAIT_FOR_DIALOG_INTERACTION
 47: 0x0208 [0x52] END_LOAD_SCHEDULER: End scheduler "s183" with entities [EventEntity, EventEntity], work=332*
 48: 0x0217 [0x45] LOAD_SCHEDULED_TASK: Load scheduler "s184" with entities [EventEntity, EventEntity], work=[332*, 0*]
 49: 0x0228 [0x2B] Aileen (ID: 17134062/0x010571EE) [10876*]:
     "Oh, I'm sorry. I thought you were someone else..."
 50: 0x022F [0x23] WAIT_FOR_DIALOG_INTERACTION
 51: 0x0230 [0x52] END_LOAD_SCHEDULER: End scheduler "s184" with entities [EventEntity, EventEntity], work=332*
 52: 0x023F [0x45] LOAD_SCHEDULED_TASK: Load scheduler "s185" with entities [EventEntity, EventEntity], work=[332*, 0*]
 53: 0x0250 [0x03] Work_Zone[2] = (LocalPlayer->Render.Flags01 >> 25) & 1
 54: 0x0255 [0x2B] Aileen (ID: 17134062/0x010571EE) [10877*]:
     "Have you come to tell me it's time to go home, as well?"
 55: 0x025C [0x23] WAIT_FOR_DIALOG_INTERACTION
 56: 0x025D [0x2B] Aileen (ID: 17134062/0x010571EE) [10878*]:
     "Well, I'm staying right here. Karla said she would come."
 57: 0x0264 [0x23] WAIT_FOR_DIALOG_INTERACTION
 58: 0x0265 [0x52] END_LOAD_SCHEDULER: End scheduler "s185" with entities [EventEntity, EventEntity], work=332*
 59: 0x0274 [0x45] LOAD_SCHEDULED_TASK: Load scheduler "s186" with entities [EventEntity, EventEntity], work=[332*, 0*]
 60: 0x0285 [0x5B] LOAD_EXT_SCHEDULER: Load scheduler "tlk0" with entities [Aileen (ID: 17134062/0x010571EE), Aileen (ID: 17134062/0x010571EE)], work=80*
 61: 0x0294 [0x2B] Aileen (ID: 17134062/0x010571EE) [10879*]:
     "It's my birthday, you see. She said she had a present for me!"
 62: 0x029B [0x23] WAIT_FOR_DIALOG_INTERACTION
 63: 0x029C [0x52] END_LOAD_SCHEDULER: End scheduler "s186" with entities [EventEntity, EventEntity], work=332*
 64: 0x02AB [0x45] LOAD_SCHEDULED_TASK: Load scheduler "s187" with entities [EventEntity, EventEntity], work=[332*, 0*]
 65: 0x02BC [0x5B] LOAD_EXT_SCHEDULER: Load scheduler "tlk1" with entities [Aileen (ID: 17134062/0x010571EE), Aileen (ID: 17134062/0x010571EE)], work=80*
 66: 0x02CB [0x2B] Aileen (ID: 17134062/0x010571EE) [10880*]:
     "<Sigh>... I do hope she shows up soon."
 67: 0x02D2 [0x23] WAIT_FOR_DIALOG_INTERACTION
 68: 0x02D3 [0x45] LOAD_SCHEDULED_TASK: Load scheduler "fdo1" with entities [EventEntity, EventEntity], work=[200*, 0*]
 69: 0x02E4 [0x55] WAIT_LOAD_SCHEDULER: Wait for scheduler "fdo1" with entities [EventEntity, EventEntity], work=200*
 70: 0x02F3 [0x52] END_LOAD_SCHEDULER: End scheduler "s187" with entities [EventEntity, EventEntity], work=332*
 71: 0x0302 [0x46] CAMERA_CONTROL: Restore default settings
 72: 0x0304 [0x1C] WAIT(120* ticks)
 73: 0x0307 [0x45] LOAD_SCHEDULED_TASK: Load scheduler "fdi1" with entities [EventEntity, EventEntity], work=[200*, 0*]
 74: 0x0318 [0x21] END_EVENT
 75: 0x0319 [0x00] END_REQSTACK()
```

### Event 128

#### Metadata

| Field        | Value     |
|--------------|-----------|
| Entrypoint   | 0x031A    |
| Data Size    | 523 bytes |
| Instructions | 59        |

```
      00 01 02 03 04 05 06 07  08 09 0A 0B 0C 0D 0E 0F
      -- -- -- -- -- -- -- --  -- -- -- -- -- -- -- --
0310:                                42 45 16 80 F8 FF            BE....
0320: FF 7F F8 FF FF 7F 66 64  6F 31 02 80 55 16 80 F8  ......fdo1..U...
0330: FF FF 7F F8 FF FF 7F 66  64 6F 31 46 01 38 17 80  .......fdo1F.8..
0340: 92 01 D2 71 05 01 4E 00  D2 71 05 01 BA F0 FF FF  ...q..N..q......
0350: 7F 2C 80 2D 80 2E 80 2F  80 80 F0 FF FF 7F 80 D2  .,.-.../........
0360: 71 05 01 4A D2 71 05 01  F0 FF FF 7F 4A F0 FF FF  q..J.q......J...
0370: 7F D2 71 05 01 1C 15 80  45 30 80 F8 FF FF 7F F8  ..q.....E0......
0380: FF FF 7F 73 30 39 35 02  80 1C 1D 80 45 16 80 F8  ...s095.....E...
0390: FF FF 7F F8 FF FF 7F 66  64 69 31 02 80 55 16 80  .......fdi1..U..
03A0: F8 FF FF 7F F8 FF FF 7F  66 64 69 31 5B 31 80 D2  ........fdi1[1..
03B0: 71 05 01 D2 71 05 01 74  6C 6B 30 2B D2 71 05 01  q...q..tlk0+.q..
03C0: 32 80 23 2B D2 71 05 01  33 80 23 5B 31 80 D2 71  2.#+.q..3.#[1..q
03D0: 05 01 D2 71 05 01 74 6C  6B 31 52 30 80 F8 FF FF  ...q..tlk1R0....
03E0: 7F F8 FF FF 7F 73 30 39  35 45 30 80 F8 FF FF 7F  .....s095E0.....
03F0: F8 FF FF 7F 73 30 39 34  02 80 2B D2 71 05 01 34  ....s094..+.q..4
0400: 80 23 52 30 80 F8 FF FF  7F F8 FF FF 7F 73 30 39  .#R0.........s09
0410: 34 45 30 80 F8 FF FF 7F  F8 FF FF 7F 73 30 39 33  4E0.........s093
0420: 02 80 5B 31 80 D2 71 05  01 D2 71 05 01 74 6C 6B  ..[1..q...q..tlk
0430: 30 2B D2 71 05 01 35 80  23 5B 31 80 D2 71 05 01  0+.q..5.#[1..q..
0440: D2 71 05 01 74 6C 6B 31  24 36 80 02 80 02 80 25  .q..tlk1$6.....%
0450: 02 00 10 02 80 00 97 04  52 30 80 F8 FF FF 7F F8  ........R0......
0460: FF FF 7F 73 30 39 33 45  30 80 F8 FF FF 7F F8 FF  ...s093E0.......
0470: FF 7F 73 30 39 36 02 80  5B 31 80 D2 71 05 01 D2  ..s096..[1..q...
0480: 71 05 01 74 6C 6B 30 2B  D2 71 05 01 37 80 23 03  q..tlk0+.q..7.#.
0490: 01 10 02 80 01 DE 04 02  00 10 38 80 00 DE 04 52  ..........8....R
04A0: 30 80 F8 FF FF 7F F8 FF  FF 7F 73 30 39 33 45 30  0.........s093E0
04B0: 80 F8 FF FF 7F F8 FF FF  7F 73 30 39 36 02 80 5B  .........s096..[
04C0: 31 80 D2 71 05 01 D2 71  05 01 74 6C 6B 30 2B D2  1..q...q..tlk0+.
04D0: 71 05 01 39 80 23 03 01  10 38 80 01 DE 04 45 16  q..9.#...8....E.
04E0: 80 F8 FF FF 7F F8 FF FF  7F 66 64 6F 31 02 80 55  .........fdo1..U
04F0: 16 80 F8 FF FF 7F F8 FF  FF 7F 66 64 6F 31 52 30  ..........fdo1R0
0500: 80 F8 FF FF 7F F8 FF FF  7F 73 30 39 36 46 00 1C  .........s096F..
0510: 04 80 45 16 80 F8 FF FF  7F F8 FF FF 7F 66 64 69  ..E..........fdi
0520: 31 02 80 21 00                                    1..!.           
```

#### Opcodes

```
  0: 0x031A [0x42] SET_CLI_EVENT_CANCEL_DATA()
  1: 0x031B [0x45] LOAD_SCHEDULED_TASK: Load scheduler "fdo1" with entities [EventEntity, EventEntity], work=[200*, 0*]
  2: 0x032C [0x55] WAIT_LOAD_SCHEDULER: Wait for scheduler "fdo1" with entities [EventEntity, EventEntity], work=200*
  3: 0x033B [0x46] CAMERA_CONTROL: Disable user control
  4: 0x033D [0x38] SET_CLIENT_EVENT_MODE(mode=27*)
  5: 0x0340 [0x92] Offa (ID: 17134034/0x010571D2)->Render.Flags3 ^= 0x01
  6: 0x0346 [0x4E] SET_ENTITY_HIDE_FLAG: Show Offa (ID: 17134034/0x010571D2)
  7: 0x034C [0xBA] SET_ENTITY_POSITION(entity_id=LocalPlayer, pos_x=-292.342*, pos_z=-145.207*, pos_y=-15.851*, direction=342.9*)
  8: 0x0359 [0x80] LOAD_WAIT(entity=LocalPlayer)
  9: 0x035E [0x80] LOAD_WAIT(entity=Offa (ID: 17134034/0x010571D2))
 10: 0x0363 [0x4A] Offa (ID: 17134034/0x010571D2) looks at LocalPlayer
 11: 0x036C [0x4A] LocalPlayer looks at Offa (ID: 17134034/0x010571D2)
 12: 0x0375 [0x1C] WAIT(30* ticks)
 13: 0x0378 [0x45] LOAD_SCHEDULED_TASK: Load scheduler "s095" with entities [EventEntity, EventEntity], work=[331*, 0*]
 14: 0x0389 [0x1C] WAIT(15* ticks)
 15: 0x038C [0x45] LOAD_SCHEDULED_TASK: Load scheduler "fdi1" with entities [EventEntity, EventEntity], work=[200*, 0*]
 16: 0x039D [0x55] WAIT_LOAD_SCHEDULER: Wait for scheduler "fdi1" with entities [EventEntity, EventEntity], work=200*
 17: 0x03AC [0x5B] LOAD_EXT_SCHEDULER: Load scheduler "tlk0" with entities [Offa (ID: 17134034/0x010571D2), Offa (ID: 17134034/0x010571D2)], work=75*
 18: 0x03BB [0x2B] Offa (ID: 17134034/0x010571D2) [11259*]:
     "My friends and I put togther a Bastokan Time Capsule! I'm going to have my father bury it somewhere deep beneath North Gustaberg."
 19: 0x03C2 [0x23] WAIT_FOR_DIALOG_INTERACTION
 20: 0x03C3 [0x2B] Offa (ID: 17134034/0x010571D2) [11260*]:
     "Have you heard of my father? He's a great soldier, you know! I want him to bury it somewhere near Drachenfall so that it's easy to find."
 21: 0x03CA [0x23] WAIT_FOR_DIALOG_INTERACTION
 22: 0x03CB [0x5B] LOAD_EXT_SCHEDULER: Load scheduler "tlk1" with entities [Offa (ID: 17134034/0x010571D2), Offa (ID: 17134034/0x010571D2)], work=75*
 23: 0x03DA [0x52] END_LOAD_SCHEDULER: End scheduler "s095" with entities [EventEntity, EventEntity], work=331*
 24: 0x03E9 [0x45] LOAD_SCHEDULED_TASK: Load scheduler "s094" with entities [EventEntity, EventEntity], work=[331*, 0*]
 25: 0x03FA [0x2B] Offa (ID: 17134034/0x010571D2) [11261*]:
     "What? You think if the spot is too obvious the capsule might be found by Goblins!?"
 26: 0x0401 [0x23] WAIT_FOR_DIALOG_INTERACTION
 27: 0x0402 [0x52] END_LOAD_SCHEDULER: End scheduler "s094" with entities [EventEntity, EventEntity], work=331*
 28: 0x0411 [0x45] LOAD_SCHEDULED_TASK: Load scheduler "s093" with entities [EventEntity, EventEntity], work=[331*, 0*]
 29: 0x0422 [0x5B] LOAD_EXT_SCHEDULER: Load scheduler "tlk0" with entities [Offa (ID: 17134034/0x010571D2), Offa (ID: 17134034/0x010571D2)], work=75*
 30: 0x0431 [0x2B] Offa (ID: 17134034/0x010571D2) [11262*]:
     "Well, I can't let any beastmen get their grubby paws on it! We're already looking forward to reading our letters... What do you think we should do?"
 31: 0x0438 [0x23] WAIT_FOR_DIALOG_INTERACTION
 32: 0x0439 [0x5B] LOAD_EXT_SCHEDULER: Load scheduler "tlk1" with entities [Offa (ID: 17134034/0x010571D2), Offa (ID: 17134034/0x010571D2)], work=75*
 33: 0x0448 [0x24] CREATE_DIALOG(message_id=11263*, default_option=0*, option_flags=0*)
     "What advice will you give Offa? [Bury it somewhere in the city./Conceal the burial spot with a rock.]"
 34: 0x044F [0x25] WAIT_DIALOG_SELECT()
 35: 0x0450 [0x02] IF !(Work_Zone[0] == 0*) GOTO 0x0497
 36: 0x0458 [0x52] END_LOAD_SCHEDULER: End scheduler "s093" with entities [EventEntity, EventEntity], work=331*
 37: 0x0467 [0x45] LOAD_SCHEDULED_TASK: Load scheduler "s096" with entities [EventEntity, EventEntity], work=[331*, 0*]
 38: 0x0478 [0x5B] LOAD_EXT_SCHEDULER: Load scheduler "tlk0" with entities [Offa (ID: 17134034/0x010571D2), Offa (ID: 17134034/0x010571D2)], work=75*
 39: 0x0487 [0x2B] Offa (ID: 17134034/0x010571D2) [11265*]:
     "That settles it! I'll have my father bury it within the city walls. Good thinking!"
 40: 0x048E [0x23] WAIT_FOR_DIALOG_INTERACTION
 41: 0x048F [0x03] Work_Zone[1] = 0*
 42: 0x0494 [0x01] GOTO 0x04DE
 43: 0x0497 [0x02] IF !(Work_Zone[0] == 1*) GOTO 0x04DE
 44: 0x049F [0x52] END_LOAD_SCHEDULER: End scheduler "s093" with entities [EventEntity, EventEntity], work=331*
 45: 0x04AE [0x45] LOAD_SCHEDULED_TASK: Load scheduler "s096" with entities [EventEntity, EventEntity], work=[331*, 0*]
 46: 0x04BF [0x5B] LOAD_EXT_SCHEDULER: Load scheduler "tlk0" with entities [Offa (ID: 17134034/0x010571D2), Offa (ID: 17134034/0x010571D2)], work=75*
 47: 0x04CE [0x2B] Offa (ID: 17134034/0x010571D2) [11266*]:
     "That settles it! I'll have my father cover up the burial spot with a rock. You're a genius!"
 48: 0x04D5 [0x23] WAIT_FOR_DIALOG_INTERACTION
 49: 0x04D6 [0x03] Work_Zone[1] = 1*
 50: 0x04DB [0x01] GOTO 0x04DE

SUBROUTINE_04DE:
 51: 0x04DE [0x45] LOAD_SCHEDULED_TASK: Load scheduler "fdo1" with entities [EventEntity, EventEntity], work=[200*, 0*]
 52: 0x04EF [0x55] WAIT_LOAD_SCHEDULER: Wait for scheduler "fdo1" with entities [EventEntity, EventEntity], work=200*
 53: 0x04FE [0x52] END_LOAD_SCHEDULER: End scheduler "s096" with entities [EventEntity, EventEntity], work=331*
 54: 0x050D [0x46] CAMERA_CONTROL: Restore default settings
 55: 0x050F [0x1C] WAIT(120* ticks)
 56: 0x0512 [0x45] LOAD_SCHEDULED_TASK: Load scheduler "fdi1" with entities [EventEntity, EventEntity], work=[200*, 0*]
 57: 0x0523 [0x21] END_EVENT
 58: 0x0524 [0x00] END_REQSTACK()
```

### Event 131

#### Metadata

| Field        | Value     |
|--------------|-----------|
| Entrypoint   | 0x0525    |
| Data Size    | 280 bytes |
| Instructions | 32        |

```
      00 01 02 03 04 05 06 07  08 09 0A 0B 0C 0D 0E 0F
      -- -- -- -- -- -- -- --  -- -- -- -- -- -- -- --
0520:                42 45 16  80 F8 FF FF 7F F8 FF FF       BE.........
0530: 7F 66 64 6F 31 02 80 55  16 80 F8 FF FF 7F F8 FF  .fdo1..U........
0540: FF 7F 66 64 6F 31 46 01  38 17 80 92 01 D2 71 05  ..fdo1F.8.....q.
0550: 01 4E 00 D2 71 05 01 BA  F0 FF FF 7F 2C 80 2D 80  .N..q.......,.-.
0560: 2E 80 2F 80 80 F0 FF FF  7F 80 D2 71 05 01 4A D2  ../........q..J.
0570: 71 05 01 F0 FF FF 7F 4A  F0 FF FF 7F D2 71 05 01  q......J.....q..
0580: 1C 15 80 45 30 80 F8 FF  FF 7F F8 FF FF 7F 73 31  ...E0.........s1
0590: 30 38 02 80 1C 1D 80 45  16 80 F8 FF FF 7F F8 FF  08.....E........
05A0: FF 7F 66 64 69 31 02 80  55 16 80 F8 FF FF 7F F8  ..fdi1..U.......
05B0: FF FF 7F 66 64 69 31 2B  D2 71 05 01 3A 80 23 52  ...fdi1+.q..:.#R
05C0: 30 80 F8 FF FF 7F F8 FF  FF 7F 73 31 30 38 45 30  0.........s108E0
05D0: 80 F8 FF FF 7F F8 FF FF  7F 73 31 30 39 02 80 5B  .........s109..[
05E0: 31 80 D2 71 05 01 D2 71  05 01 74 6C 6B 30 2B D2  1..q...q..tlk0+.
05F0: 71 05 01 3B 80 23 45 16  80 F8 FF FF 7F F8 FF FF  q..;.#E.........
0600: 7F 66 64 6F 31 02 80 55  16 80 F8 FF FF 7F F8 FF  .fdo1..U........
0610: FF 7F 66 64 6F 31 52 30  80 F8 FF FF 7F F8 FF FF  ..fdo1R0........
0620: 7F 73 31 30 39 46 00 1C  04 80 45 16 80 F8 FF FF  .s109F....E.....
0630: 7F F8 FF FF 7F 66 64 69  31 02 80 21 00           .....fdi1..!.   
```

#### Opcodes

```
  0: 0x0525 [0x42] SET_CLI_EVENT_CANCEL_DATA()
  1: 0x0526 [0x45] LOAD_SCHEDULED_TASK: Load scheduler "fdo1" with entities [EventEntity, EventEntity], work=[200*, 0*]
  2: 0x0537 [0x55] WAIT_LOAD_SCHEDULER: Wait for scheduler "fdo1" with entities [EventEntity, EventEntity], work=200*
  3: 0x0546 [0x46] CAMERA_CONTROL: Disable user control
  4: 0x0548 [0x38] SET_CLIENT_EVENT_MODE(mode=27*)
  5: 0x054B [0x92] Offa (ID: 17134034/0x010571D2)->Render.Flags3 ^= 0x01
  6: 0x0551 [0x4E] SET_ENTITY_HIDE_FLAG: Show Offa (ID: 17134034/0x010571D2)
  7: 0x0557 [0xBA] SET_ENTITY_POSITION(entity_id=LocalPlayer, pos_x=-292.342*, pos_z=-145.207*, pos_y=-15.851*, direction=342.9*)
  8: 0x0564 [0x80] LOAD_WAIT(entity=LocalPlayer)
  9: 0x0569 [0x80] LOAD_WAIT(entity=Offa (ID: 17134034/0x010571D2))
 10: 0x056E [0x4A] Offa (ID: 17134034/0x010571D2) looks at LocalPlayer
 11: 0x0577 [0x4A] LocalPlayer looks at Offa (ID: 17134034/0x010571D2)
 12: 0x0580 [0x1C] WAIT(30* ticks)
 13: 0x0583 [0x45] LOAD_SCHEDULED_TASK: Load scheduler "s108" with entities [EventEntity, EventEntity], work=[331*, 0*]
 14: 0x0594 [0x1C] WAIT(15* ticks)
 15: 0x0597 [0x45] LOAD_SCHEDULED_TASK: Load scheduler "fdi1" with entities [EventEntity, EventEntity], work=[200*, 0*]
 16: 0x05A8 [0x55] WAIT_LOAD_SCHEDULER: Wait for scheduler "fdi1" with entities [EventEntity, EventEntity], work=200*
 17: 0x05B7 [0x2B] Offa (ID: 17134034/0x010571D2) [11270*]:
     "Huh? You think we might forget where we buried the capsule? Hmmm...maybe we should bury it somewhere near the Drachenfall after all."
 18: 0x05BE [0x23] WAIT_FOR_DIALOG_INTERACTION
 19: 0x05BF [0x52] END_LOAD_SCHEDULER: End scheduler "s108" with entities [EventEntity, EventEntity], work=331*
 20: 0x05CE [0x45] LOAD_SCHEDULED_TASK: Load scheduler "s109" with entities [EventEntity, EventEntity], work=[331*, 0*]
 21: 0x05DF [0x5B] LOAD_EXT_SCHEDULER: Load scheduler "tlk0" with entities [Offa (ID: 17134034/0x010571D2), Offa (ID: 17134034/0x010571D2)], work=75*
 22: 0x05EE [0x2B] Offa (ID: 17134034/0x010571D2) [11271*]:
     "I was thinking the same thing. Oh well, I'll just have my father rebury it in a better spot. We could even go with your other idea and have him cover it up with a rock to keep away all the Goblins."
 23: 0x05F5 [0x23] WAIT_FOR_DIALOG_INTERACTION
 24: 0x05F6 [0x45] LOAD_SCHEDULED_TASK: Load scheduler "fdo1" with entities [EventEntity, EventEntity], work=[200*, 0*]
 25: 0x0607 [0x55] WAIT_LOAD_SCHEDULER: Wait for scheduler "fdo1" with entities [EventEntity, EventEntity], work=200*
 26: 0x0616 [0x52] END_LOAD_SCHEDULER: End scheduler "s109" with entities [EventEntity, EventEntity], work=331*
 27: 0x0625 [0x46] CAMERA_CONTROL: Restore default settings
 28: 0x0627 [0x1C] WAIT(120* ticks)
 29: 0x062A [0x45] LOAD_SCHEDULED_TASK: Load scheduler "fdi1" with entities [EventEntity, EventEntity], work=[200*, 0*]
 30: 0x063B [0x21] END_EVENT
 31: 0x063C [0x00] END_REQSTACK()
```

### Event 133

#### Metadata

| Field        | Value     |
|--------------|-----------|
| Entrypoint   | 0x063D    |
| Data Size    | 288 bytes |
| Instructions | 34        |

```
      00 01 02 03 04 05 06 07  08 09 0A 0B 0C 0D 0E 0F
      -- -- -- -- -- -- -- --  -- -- -- -- -- -- -- --
0630:                                         42 45 16               BE.
0640: 80 F8 FF FF 7F F8 FF FF  7F 66 64 6F 31 02 80 55  .........fdo1..U
0650: 16 80 F8 FF FF 7F F8 FF  FF 7F 66 64 6F 31 46 01  ..........fdo1F.
0660: 38 17 80 92 01 D2 71 05  01 4E 00 D2 71 05 01 BA  8.....q..N..q...
0670: F0 FF FF 7F 2C 80 2D 80  2E 80 2F 80 80 F0 FF FF  ....,.-.../.....
0680: 7F 80 D2 71 05 01 4A D2  71 05 01 F0 FF FF 7F 4A  ...q..J.q......J
0690: F0 FF FF 7F D2 71 05 01  1C 15 80 45 30 80 F8 FF  .....q.....E0...
06A0: FF 7F F8 FF FF 7F 73 31  31 30 02 80 1C 1D 80 45  ......s110.....E
06B0: 16 80 F8 FF FF 7F F8 FF  FF 7F 66 64 69 31 02 80  ..........fdi1..
06C0: 55 16 80 F8 FF FF 7F F8  FF FF 7F 66 64 69 31 2B  U..........fdi1+
06D0: D2 71 05 01 3C 80 23 52  30 80 F8 FF FF 7F F8 FF  .q..<.#R0.......
06E0: FF 7F 73 31 31 30 45 30  80 F8 FF FF 7F F8 FF FF  ..s110E0........
06F0: 7F 73 31 31 31 02 80 5B  31 80 D2 71 05 01 D2 71  .s111..[1..q...q
0700: 05 01 74 6C 6B 30 2B D2  71 05 01 3D 80 23 2B D2  ..tlk0+.q..=.#+.
0710: 71 05 01 3E 80 23 45 16  80 F8 FF FF 7F F8 FF FF  q..>.#E.........
0720: 7F 66 64 6F 31 02 80 55  16 80 F8 FF FF 7F F8 FF  .fdo1..U........
0730: FF 7F 66 64 6F 31 52 30  80 F8 FF FF 7F F8 FF FF  ..fdo1R0........
0740: 7F 73 31 31 31 46 00 1C  04 80 45 16 80 F8 FF FF  .s111F....E.....
0750: 7F F8 FF FF 7F 66 64 69  31 02 80 21 00           .....fdi1..!.   
```

#### Opcodes

```
  0: 0x063D [0x42] SET_CLI_EVENT_CANCEL_DATA()
  1: 0x063E [0x45] LOAD_SCHEDULED_TASK: Load scheduler "fdo1" with entities [EventEntity, EventEntity], work=[200*, 0*]
  2: 0x064F [0x55] WAIT_LOAD_SCHEDULER: Wait for scheduler "fdo1" with entities [EventEntity, EventEntity], work=200*
  3: 0x065E [0x46] CAMERA_CONTROL: Disable user control
  4: 0x0660 [0x38] SET_CLIENT_EVENT_MODE(mode=27*)
  5: 0x0663 [0x92] Offa (ID: 17134034/0x010571D2)->Render.Flags3 ^= 0x01
  6: 0x0669 [0x4E] SET_ENTITY_HIDE_FLAG: Show Offa (ID: 17134034/0x010571D2)
  7: 0x066F [0xBA] SET_ENTITY_POSITION(entity_id=LocalPlayer, pos_x=-292.342*, pos_z=-145.207*, pos_y=-15.851*, direction=342.9*)
  8: 0x067C [0x80] LOAD_WAIT(entity=LocalPlayer)
  9: 0x0681 [0x80] LOAD_WAIT(entity=Offa (ID: 17134034/0x010571D2))
 10: 0x0686 [0x4A] Offa (ID: 17134034/0x010571D2) looks at LocalPlayer
 11: 0x068F [0x4A] LocalPlayer looks at Offa (ID: 17134034/0x010571D2)
 12: 0x0698 [0x1C] WAIT(30* ticks)
 13: 0x069B [0x45] LOAD_SCHEDULED_TASK: Load scheduler "s110" with entities [EventEntity, EventEntity], work=[331*, 0*]
 14: 0x06AC [0x1C] WAIT(15* ticks)
 15: 0x06AF [0x45] LOAD_SCHEDULED_TASK: Load scheduler "fdi1" with entities [EventEntity, EventEntity], work=[200*, 0*]
 16: 0x06C0 [0x55] WAIT_LOAD_SCHEDULER: Wait for scheduler "fdi1" with entities [EventEntity, EventEntity], work=200*
 17: 0x06CF [0x2B] Offa (ID: 17134034/0x010571D2) [11273*]:
     "Hm? You want to bury this in the time capsule too?"
 18: 0x06D6 [0x23] WAIT_FOR_DIALOG_INTERACTION
 19: 0x06D7 [0x52] END_LOAD_SCHEDULER: End scheduler "s110" with entities [EventEntity, EventEntity], work=331*
 20: 0x06E6 [0x45] LOAD_SCHEDULED_TASK: Load scheduler "s111" with entities [EventEntity, EventEntity], work=[331*, 0*]
 21: 0x06F7 [0x5B] LOAD_EXT_SCHEDULER: Load scheduler "tlk0" with entities [Offa (ID: 17134034/0x010571D2), Offa (ID: 17134034/0x010571D2)], work=75*
 22: 0x0706 [0x2B] Offa (ID: 17134034/0x010571D2) [11274*]:
     "I think you may be on to something! Even if some goblins do find it, they'll be so busy with these bones that they won't even notice the letters!"
 23: 0x070D [0x23] WAIT_FOR_DIALOG_INTERACTION
 24: 0x070E [0x2B] Offa (ID: 17134034/0x010571D2) [11275*]:
     "All right! I'll have my father rebury it right away."
 25: 0x0715 [0x23] WAIT_FOR_DIALOG_INTERACTION
 26: 0x0716 [0x45] LOAD_SCHEDULED_TASK: Load scheduler "fdo1" with entities [EventEntity, EventEntity], work=[200*, 0*]
 27: 0x0727 [0x55] WAIT_LOAD_SCHEDULER: Wait for scheduler "fdo1" with entities [EventEntity, EventEntity], work=200*
 28: 0x0736 [0x52] END_LOAD_SCHEDULER: End scheduler "s111" with entities [EventEntity, EventEntity], work=331*
 29: 0x0745 [0x46] CAMERA_CONTROL: Restore default settings
 30: 0x0747 [0x1C] WAIT(120* ticks)
 31: 0x074A [0x45] LOAD_SCHEDULED_TASK: Load scheduler "fdi1" with entities [EventEntity, EventEntity], work=[200*, 0*]
 32: 0x075B [0x21] END_EVENT
 33: 0x075C [0x00] END_REQSTACK()
```

### Event 135

#### Metadata

| Field        | Value     |
|--------------|-----------|
| Entrypoint   | 0x075D    |
| Data Size    | 320 bytes |
| Instructions | 36        |

```
      00 01 02 03 04 05 06 07  08 09 0A 0B 0C 0D 0E 0F
      -- -- -- -- -- -- -- --  -- -- -- -- -- -- -- --
0750:                                         42 45 16               BE.
0760: 80 F8 FF FF 7F F8 FF FF  7F 66 64 6F 31 02 80 55  .........fdo1..U
0770: 16 80 F8 FF FF 7F F8 FF  FF 7F 66 64 6F 31 46 01  ..........fdo1F.
0780: 38 17 80 92 01 D2 71 05  01 4E 00 D2 71 05 01 BA  8.....q..N..q...
0790: F0 FF FF 7F 2C 80 2D 80  2E 80 2F 80 80 F0 FF FF  ....,.-.../.....
07A0: 7F 80 D2 71 05 01 4A D2  71 05 01 F0 FF FF 7F 4A  ...q..J.q......J
07B0: F0 FF FF 7F D2 71 05 01  1C 15 80 45 30 80 F8 FF  .....q.....E0...
07C0: FF 7F F8 FF FF 7F 73 31  31 32 02 80 1C 1D 80 45  ......s112.....E
07D0: 16 80 F8 FF FF 7F F8 FF  FF 7F 66 64 69 31 02 80  ..........fdi1..
07E0: 55 16 80 F8 FF FF 7F F8  FF FF 7F 66 64 69 31 2B  U..........fdi1+
07F0: D2 71 05 01 3F 80 23 52  30 80 F8 FF FF 7F F8 FF  .q..?.#R0.......
0800: FF 7F 73 31 31 32 45 30  80 F8 FF FF 7F F8 FF FF  ..s112E0........
0810: 7F 73 31 31 33 02 80 5B  31 80 D2 71 05 01 D2 71  .s113..[1..q...q
0820: 05 01 74 6C 6B 30 2B D2  71 05 01 40 80 23 52 30  ..tlk0+.q..@.#R0
0830: 80 F8 FF FF 7F F8 FF FF  7F 73 31 31 33 45 30 80  .........s113E0.
0840: F8 FF FF 7F F8 FF FF 7F  73 31 31 34 02 80 2B D2  ........s114..+.
0850: 71 05 01 41 80 23 45 16  80 F8 FF FF 7F F8 FF FF  q..A.#E.........
0860: 7F 66 64 6F 31 02 80 55  16 80 F8 FF FF 7F F8 FF  .fdo1..U........
0870: FF 7F 66 64 6F 31 52 30  80 F8 FF FF 7F F8 FF FF  ..fdo1R0........
0880: 7F 73 31 31 34 46 00 1C  04 80 45 16 80 F8 FF FF  .s114F....E.....
0890: 7F F8 FF FF 7F 66 64 69  31 02 80 21 00           .....fdi1..!.   
```

#### Opcodes

```
  0: 0x075D [0x42] SET_CLI_EVENT_CANCEL_DATA()
  1: 0x075E [0x45] LOAD_SCHEDULED_TASK: Load scheduler "fdo1" with entities [EventEntity, EventEntity], work=[200*, 0*]
  2: 0x076F [0x55] WAIT_LOAD_SCHEDULER: Wait for scheduler "fdo1" with entities [EventEntity, EventEntity], work=200*
  3: 0x077E [0x46] CAMERA_CONTROL: Disable user control
  4: 0x0780 [0x38] SET_CLIENT_EVENT_MODE(mode=27*)
  5: 0x0783 [0x92] Offa (ID: 17134034/0x010571D2)->Render.Flags3 ^= 0x01
  6: 0x0789 [0x4E] SET_ENTITY_HIDE_FLAG: Show Offa (ID: 17134034/0x010571D2)
  7: 0x078F [0xBA] SET_ENTITY_POSITION(entity_id=LocalPlayer, pos_x=-292.342*, pos_z=-145.207*, pos_y=-15.851*, direction=342.9*)
  8: 0x079C [0x80] LOAD_WAIT(entity=LocalPlayer)
  9: 0x07A1 [0x80] LOAD_WAIT(entity=Offa (ID: 17134034/0x010571D2))
 10: 0x07A6 [0x4A] Offa (ID: 17134034/0x010571D2) looks at LocalPlayer
 11: 0x07AF [0x4A] LocalPlayer looks at Offa (ID: 17134034/0x010571D2)
 12: 0x07B8 [0x1C] WAIT(30* ticks)
 13: 0x07BB [0x45] LOAD_SCHEDULED_TASK: Load scheduler "s112" with entities [EventEntity, EventEntity], work=[331*, 0*]
 14: 0x07CC [0x1C] WAIT(15* ticks)
 15: 0x07CF [0x45] LOAD_SCHEDULED_TASK: Load scheduler "fdi1" with entities [EventEntity, EventEntity], work=[200*, 0*]
 16: 0x07E0 [0x55] WAIT_LOAD_SCHEDULER: Wait for scheduler "fdi1" with entities [EventEntity, EventEntity], work=200*
 17: 0x07EF [0x2B] Offa (ID: 17134034/0x010571D2) [11277*]:
     "What's that? You want to rebury the capsule...again? I appreciate your concern, but it should be just fine where it is."
 18: 0x07F6 [0x23] WAIT_FOR_DIALOG_INTERACTION
 19: 0x07F7 [0x52] END_LOAD_SCHEDULER: End scheduler "s112" with entities [EventEntity, EventEntity], work=331*
 20: 0x0806 [0x45] LOAD_SCHEDULED_TASK: Load scheduler "s113" with entities [EventEntity, EventEntity], work=[331*, 0*]
 21: 0x0817 [0x5B] LOAD_EXT_SCHEDULER: Load scheduler "tlk0" with entities [Offa (ID: 17134034/0x010571D2), Offa (ID: 17134034/0x010571D2)], work=75*
 22: 0x0826 [0x2B] Offa (ID: 17134034/0x010571D2) [11278*]:
     "A what? A false bottom? In the box? Now that could be just the ticket...There's no way any goblins would be able to find the letters then."
 23: 0x082D [0x23] WAIT_FOR_DIALOG_INTERACTION
 24: 0x082E [0x52] END_LOAD_SCHEDULER: End scheduler "s113" with entities [EventEntity, EventEntity], work=331*
 25: 0x083D [0x45] LOAD_SCHEDULED_TASK: Load scheduler "s114" with entities [EventEntity, EventEntity], work=[331*, 0*]
 26: 0x084E [0x2B] Offa (ID: 17134034/0x010571D2) [11279*]:
     "All right, but this is the last time...seriously. My father is getting sick of digging."
 27: 0x0855 [0x23] WAIT_FOR_DIALOG_INTERACTION
 28: 0x0856 [0x45] LOAD_SCHEDULED_TASK: Load scheduler "fdo1" with entities [EventEntity, EventEntity], work=[200*, 0*]
 29: 0x0867 [0x55] WAIT_LOAD_SCHEDULER: Wait for scheduler "fdo1" with entities [EventEntity, EventEntity], work=200*
 30: 0x0876 [0x52] END_LOAD_SCHEDULER: End scheduler "s114" with entities [EventEntity, EventEntity], work=331*
 31: 0x0885 [0x46] CAMERA_CONTROL: Restore default settings
 32: 0x0887 [0x1C] WAIT(120* ticks)
 33: 0x088A [0x45] LOAD_SCHEDULED_TASK: Load scheduler "fdi1" with entities [EventEntity, EventEntity], work=[200*, 0*]
 34: 0x089B [0x21] END_EVENT
 35: 0x089C [0x00] END_REQSTACK()
```

### Event 137

#### Metadata

| Field        | Value     |
|--------------|-----------|
| Entrypoint   | 0x089D    |
| Data Size    | 285 bytes |
| Instructions | 33        |

```
      00 01 02 03 04 05 06 07  08 09 0A 0B 0C 0D 0E 0F
      -- -- -- -- -- -- -- --  -- -- -- -- -- -- -- --
0890:                                         42 45 16               BE.
08A0: 80 F8 FF FF 7F F8 FF FF  7F 66 64 6F 31 02 80 55  .........fdo1..U
08B0: 16 80 F8 FF FF 7F F8 FF  FF 7F 66 64 6F 31 46 01  ..........fdo1F.
08C0: 38 17 80 92 01 D2 71 05  01 4E 00 D2 71 05 01 BA  8.....q..N..q...
08D0: F0 FF FF 7F 2C 80 2D 80  2E 80 2F 80 80 F0 FF FF  ....,.-.../.....
08E0: 7F 80 D2 71 05 01 4A D2  71 05 01 F0 FF FF 7F 4A  ...q..J.q......J
08F0: F0 FF FF 7F D2 71 05 01  1C 15 80 45 30 80 F8 FF  .....q.....E0...
0900: FF 7F F8 FF FF 7F 73 31  31 35 02 80 1C 1D 80 45  ......s115.....E
0910: 16 80 F8 FF FF 7F F8 FF  FF 7F 66 64 69 31 02 80  ..........fdi1..
0920: 55 16 80 F8 FF FF 7F F8  FF FF 7F 66 64 69 31 03  U..........fdi1.
0930: 02 10 8B 7F 2B D2 71 05  01 42 80 23 52 30 80 F8  ....+.q..B.#R0..
0940: FF FF 7F F8 FF FF 7F 73  31 31 35 45 30 80 F8 FF  .......s115E0...
0950: FF 7F F8 FF FF 7F 73 31  31 36 02 80 5B 31 80 D2  ......s116..[1..
0960: 71 05 01 D2 71 05 01 74  6C 6B 30 2B D2 71 05 01  q...q..tlk0+.q..
0970: 43 80 23 45 16 80 F8 FF  FF 7F F8 FF FF 7F 66 64  C.#E..........fd
0980: 6F 31 02 80 55 16 80 F8  FF FF 7F F8 FF FF 7F 66  o1..U..........f
0990: 64 6F 31 52 30 80 F8 FF  FF 7F F8 FF FF 7F 73 31  do1R0.........s1
09A0: 31 36 46 00 1C 04 80 45  16 80 F8 FF FF 7F F8 FF  16F....E........
09B0: FF 7F 66 64 69 31 02 80  21 00                    ..fdi1..!.      
```

#### Opcodes

```
  0: 0x089D [0x42] SET_CLI_EVENT_CANCEL_DATA()
  1: 0x089E [0x45] LOAD_SCHEDULED_TASK: Load scheduler "fdo1" with entities [EventEntity, EventEntity], work=[200*, 0*]
  2: 0x08AF [0x55] WAIT_LOAD_SCHEDULER: Wait for scheduler "fdo1" with entities [EventEntity, EventEntity], work=200*
  3: 0x08BE [0x46] CAMERA_CONTROL: Disable user control
  4: 0x08C0 [0x38] SET_CLIENT_EVENT_MODE(mode=27*)
  5: 0x08C3 [0x92] Offa (ID: 17134034/0x010571D2)->Render.Flags3 ^= 0x01
  6: 0x08C9 [0x4E] SET_ENTITY_HIDE_FLAG: Show Offa (ID: 17134034/0x010571D2)
  7: 0x08CF [0xBA] SET_ENTITY_POSITION(entity_id=LocalPlayer, pos_x=-292.342*, pos_z=-145.207*, pos_y=-15.851*, direction=342.9*)
  8: 0x08DC [0x80] LOAD_WAIT(entity=LocalPlayer)
  9: 0x08E1 [0x80] LOAD_WAIT(entity=Offa (ID: 17134034/0x010571D2))
 10: 0x08E6 [0x4A] Offa (ID: 17134034/0x010571D2) looks at LocalPlayer
 11: 0x08EF [0x4A] LocalPlayer looks at Offa (ID: 17134034/0x010571D2)
 12: 0x08F8 [0x1C] WAIT(30* ticks)
 13: 0x08FB [0x45] LOAD_SCHEDULED_TASK: Load scheduler "s115" with entities [EventEntity, EventEntity], work=[331*, 0*]
 14: 0x090C [0x1C] WAIT(15* ticks)
 15: 0x090F [0x45] LOAD_SCHEDULED_TASK: Load scheduler "fdi1" with entities [EventEntity, EventEntity], work=[200*, 0*]
 16: 0x0920 [0x55] WAIT_LOAD_SCHEDULER: Wait for scheduler "fdi1" with entities [EventEntity, EventEntity], work=200*
 17: 0x092F [0x03] Work_Zone[2] = (LocalPlayer->Render.Flags01 >> 25) & 1
 18: 0x0934 [0x2B] Offa (ID: 17134034/0x010571D2) [11281*]:
     "Eh? You want to bury this in the capsule, too?"
 19: 0x093B [0x23] WAIT_FOR_DIALOG_INTERACTION
 20: 0x093C [0x52] END_LOAD_SCHEDULER: End scheduler "s115" with entities [EventEntity, EventEntity], work=331*
 21: 0x094B [0x45] LOAD_SCHEDULED_TASK: Load scheduler "s116" with entities [EventEntity, EventEntity], work=[331*, 0*]
 22: 0x095C [0x5B] LOAD_EXT_SCHEDULER: Load scheduler "tlk0" with entities [Offa (ID: 17134034/0x010571D2), Offa (ID: 17134034/0x010571D2)], work=75*
 23: 0x096B [0x2B] Offa (ID: 17134034/0x010571D2) [11282*]:
     "Well, I suppose it's the least I can do to repay you for all your help. I'll ask my father to put it in with the rest of the stuff. Come to think of it, maybe I'll put one in for me too..."
 24: 0x0972 [0x23] WAIT_FOR_DIALOG_INTERACTION
 25: 0x0973 [0x45] LOAD_SCHEDULED_TASK: Load scheduler "fdo1" with entities [EventEntity, EventEntity], work=[200*, 0*]
 26: 0x0984 [0x55] WAIT_LOAD_SCHEDULER: Wait for scheduler "fdo1" with entities [EventEntity, EventEntity], work=200*
 27: 0x0993 [0x52] END_LOAD_SCHEDULER: End scheduler "s116" with entities [EventEntity, EventEntity], work=331*
 28: 0x09A2 [0x46] CAMERA_CONTROL: Restore default settings
 29: 0x09A4 [0x1C] WAIT(120* ticks)
 30: 0x09A7 [0x45] LOAD_SCHEDULED_TASK: Load scheduler "fdi1" with entities [EventEntity, EventEntity], work=[200*, 0*]
 31: 0x09B8 [0x21] END_EVENT
 32: 0x09B9 [0x00] END_REQSTACK()
```

### Event 512

#### Metadata

| Field        | Value     |
|--------------|-----------|
| Entrypoint   | 0x09BA    |
| Data Size    | 503 bytes |
| Instructions | 109       |

```
      00 01 02 03 04 05 06 07  08 09 0A 0B 0C 0D 0E 0F
      -- -- -- -- -- -- -- --  -- -- -- -- -- -- -- --
09B0:                                20 01 42 03 01 00             .B...
09C0: 02 10 03 02 00 03 10 03  03 00 04 10 03 04 00 05  ................
09D0: 10 03 05 00 06 10 02 01  00 38 80 00 E9 09 2B 6C  .........8....+l
09E0: 71 05 01 44 80 23 01 AD  0B 02 05 00 02 80 80 45  q..D.#.........E
09F0: 0B 02 04 00 02 80 80 04  0A 2B 6C 71 05 01 44 80  .........+lq..D.
0A00: 23 01 42 0B 02 04 00 38  80 80 A3 0A 02 02 00 02  #.B....8........
0A10: 80 80 1F 0A 2B 6C 71 05  01 44 80 23 01 A0 0A 02  ....+lq..D.#....
0A20: 02 00 38 80 80 4A 0A 02  03 00 38 80 00 3F 0A 03  ..8..J....8..?..
0A30: 02 10 02 80 2B 6C 71 05  01 45 80 23 01 47 0A 2B  ....+lq..E.#.G.+
0A40: 6C 71 05 01 44 80 23 01  A0 0A 02 02 00 46 80 80  lq..D.#......F..
0A50: 75 0A 02 03 00 46 80 00  6A 0A 03 02 10 38 80 2B  u....F..j....8.+
0A60: 6C 71 05 01 45 80 23 01  72 0A 2B 6C 71 05 01 44  lq..E.#.r.+lq..D
0A70: 80 23 01 A0 0A 02 02 00  47 80 80 A0 0A 02 03 00  .#......G.......
0A80: 47 80 00 95 0A 03 02 10  46 80 2B 6C 71 05 01 45  G.......F.+lq..E
0A90: 80 23 01 9D 0A 2B 6C 71  05 01 44 80 23 01 A0 0A  .#...+lq..D.#...
0AA0: 01 42 0B 02 04 00 46 80  80 42 0B 02 02 00 02 80  .B....F..B......
0AB0: 80 BE 0A 2B 6C 71 05 01  44 80 23 01 3F 0B 02 02  ...+lq..D.#.?...
0AC0: 00 38 80 80 E9 0A 03 02  10 02 80 02 03 00 38 80  .8............8.
0AD0: 00 DE 0A 2B 6C 71 05 01  48 80 23 01 E6 0A 2B 6C  ...+lq..H.#...+l
0AE0: 71 05 01 49 80 23 01 3F  0B 02 02 00 46 80 80 14  q..I.#.?....F...
0AF0: 0B 03 02 10 38 80 02 03  00 46 80 00 09 0B 2B 6C  ....8....F....+l
0B00: 71 05 01 48 80 23 01 11  0B 2B 6C 71 05 01 49 80  q..H.#...+lq..I.
0B10: 23 01 3F 0B 02 02 00 47  80 80 3F 0B 03 02 10 46  #.?....G..?....F
0B20: 80 02 03 00 47 80 00 34  0B 2B 6C 71 05 01 48 80  ....G..4.+lq..H.
0B30: 23 01 3C 0B 2B 6C 71 05  01 49 80 23 01 3F 0B 01  #.<.+lq..I.#.?..
0B40: 42 0B 01 AD 0B 02 05 00  38 80 80 6D 0B 03 02 10  B.......8..m....
0B50: 4A 80 2B 6C 71 05 01 4B  80 23 2B 6C 71 05 01 4C  J.+lq..K.#+lq..L
0B60: 80 23 2B 6C 71 05 01 4D  80 23 01 AD 0B 02 05 00  .#+lq..M.#......
0B70: 46 80 80 8D 0B 03 02 10  4A 80 2B 6C 71 05 01 4B  F.......J.+lq..K
0B80: 80 23 2B 6C 71 05 01 4C  80 23 01 AD 0B 02 05 00  .#+lq..L.#......
0B90: 47 80 80 AD 0B 03 02 10  4E 80 2B 6C 71 05 01 4F  G.......N.+lq..O
0BA0: 80 23 2B 6C 71 05 01 50  80 23 01 AD 0B 20 00 21  .#+lq..P.#... .!
0BB0: 00                                                .               
```

#### Opcodes

```
  0: 0x09BA [0x20] SET_CLI_EVENT_UC_FLAG: Lock player control
  1: 0x09BC [0x42] SET_CLI_EVENT_CANCEL_DATA()
  2: 0x09BD [0x03] ExtData[1]->WorkLocal[1] = Work_Zone[2]
  3: 0x09C2 [0x03] ExtData[1]->WorkLocal[2] = Work_Zone[3]
  4: 0x09C7 [0x03] ExtData[1]->WorkLocal[3] = Work_Zone[4]
  5: 0x09CC [0x03] ExtData[1]->WorkLocal[4] = Work_Zone[5]
  6: 0x09D1 [0x03] ExtData[1]->WorkLocal[5] = Work_Zone[6]
  7: 0x09D6 [0x02] IF !(ExtData[1]->WorkLocal[1] == 1*) GOTO 0x09E9
  8: 0x09DE [0x2B] Areuhat (ID: 17133932/0x0105716C) [10927*]:
     "So this is one of these "cities" I've heard so much about, is it? Hmph. Seems to be nothing more than a mass of people crowded into a noisy, confined space."
  9: 0x09E5 [0x23] WAIT_FOR_DIALOG_INTERACTION
 10: 0x09E6 [0x01] GOTO 0x0BAD
 11: 0x09E9 [0x02] IF !(ExtData[1]->WorkLocal[5] == 0*) GOTO 0x0B45
 12: 0x09F1 [0x02] IF !(ExtData[1]->WorkLocal[4] == 0*) GOTO 0x0A04
 13: 0x09F9 [0x2B] Areuhat (ID: 17133932/0x0105716C) [10927*]:
     "So this is one of these "cities" I've heard so much about, is it? Hmph. Seems to be nothing more than a mass of people crowded into a noisy, confined space."
 14: 0x0A00 [0x23] WAIT_FOR_DIALOG_INTERACTION
 15: 0x0A01 [0x01] GOTO 0x0B42
 16: 0x0A04 [0x02] IF !(ExtData[1]->WorkLocal[4] == 1*) GOTO 0x0AA3
 17: 0x0A0C [0x02] IF !(ExtData[1]->WorkLocal[2] == 0*) GOTO 0x0A1F
 18: 0x0A14 [0x2B] Areuhat (ID: 17133932/0x0105716C) [10927*]:
     "So this is one of these "cities" I've heard so much about, is it? Hmph. Seems to be nothing more than a mass of people crowded into a noisy, confined space."
 19: 0x0A1B [0x23] WAIT_FOR_DIALOG_INTERACTION
 20: 0x0A1C [0x01] GOTO 0x0AA0
