# Event 65535

## Metadata

| Field           | Value    |
|-----------------|----------|
| Event Index     | 15/29    |
| Offset          | 0x0129   |
| Data Size       | 64 bytes |
| Calculated Size | 64 bytes |
| Instructions    | 14       |

```
      00 01 02 03 04 05 06 07  08 09 0A 0B 0C 0D 0E 0F
      -- -- -- -- -- -- -- --  -- -- -- -- -- -- -- --
0120:                             37 35 80 36 80 37 80           75.6.7.
0130: 38 80 80 F8 FF FF 7F 32  28 80 1F 00 39 80 3A 80  8......2(...9.:.
0140: 3B 80 1F 01 1F 00 3C 80  3D 80 3E 80 1F 01 1C 08  ;.....<.=.>.....
0150: 80 1F 00 3F 80 40 80 41  80 1F 01 1F 00 42 80 43  ...?.@.A.....B.C
0160: 80 44 80 1F 01 1C 08 80  00                       .D.......       
```

## Opcodes

```
  0: 0x0129 [0x37] UPDATE_EVENT_POSITION_AND_DIR: x=-385.547*, z=-62.628*, y=0.143*, direction=4.9°*
  1: 0x0132 [0x80] LOAD_WAIT(entity=EventEntity)
  2: 0x0137 [0x32] ExtData[1]->MainSpeed = 70* * 0.1
  3: 0x013A [0x1F] MOVE_ENTITY: EventEntity moves to X=-381.160*, Z=-62.322*, Y=0.258*
  4: 0x0142 [0x1F] MOVE_ENTITY: Update entity position (mode=1)
  5: 0x0144 [0x1F] MOVE_ENTITY: EventEntity moves to X=-380.851*, Z=-62.273*, Y=0.280*
  6: 0x014C [0x1F] MOVE_ENTITY: Update entity position (mode=1)
  7: 0x014E [0x1C] WAIT(60* ticks)
  8: 0x0151 [0x1F] MOVE_ENTITY: EventEntity moves to X=-374.830*, Z=-61.994*, Y=0.404*
  9: 0x0159 [0x1F] MOVE_ENTITY: Update entity position (mode=1)
 10: 0x015B [0x1F] MOVE_ENTITY: EventEntity moves to X=-374.460*, Z=-62.353*, Y=0.396*
 11: 0x0163 [0x1F] MOVE_ENTITY: Update entity position (mode=1)
 12: 0x0165 [0x1C] WAIT(60* ticks)
 13: 0x0168 [0x00] END_REQSTACK()
```
