# Event 65535

## Metadata

| Field           | Value    |
|-----------------|----------|
| Event Index     | 21/29    |
| Offset          | 0x01E5   |
| Data Size       | 54 bytes |
| Calculated Size | 54 bytes |
| Instructions    | 12       |

```
      00 01 02 03 04 05 06 07  08 09 0A 0B 0C 0D 0E 0F
      -- -- -- -- -- -- -- --  -- -- -- -- -- -- -- --
01E0:                32 28 80  1F 00 5E 80 5F 80 60 80       2(...^._.`.
01F0: 1F 01 1F 00 61 80 62 80  63 80 1F 01 1F 00 64 80  ....a.b.c.....d.
0200: 65 80 66 80 1F 01 1F 00  67 80 68 80 69 80 1F 01  e.f.....g.h.i...
0210: 1F 00 6A 80 6B 80 6C 80  1F 01 00                 ..j.k.l....     
```

## Opcodes

```
  0: 0x01E5 [0x32] ExtData[1]->MainSpeed = 70* * 0.1
  1: 0x01E8 [0x1F] MOVE_ENTITY: EventEntity moves to X=11.109*, Z=-701.766*, Y=-3.308*
  2: 0x01F0 [0x1F] MOVE_ENTITY: Update entity position (mode=1)
  3: 0x01F2 [0x1F] MOVE_ENTITY: EventEntity moves to X=4.188*, Z=-699.380*, Y=-3.917*
  4: 0x01FA [0x1F] MOVE_ENTITY: Update entity position (mode=1)
  5: 0x01FC [0x1F] MOVE_ENTITY: EventEntity moves to X=-8.151*, Z=-697.775*, Y=-3.142*
  6: 0x0204 [0x1F] MOVE_ENTITY: Update entity position (mode=1)
  7: 0x0206 [0x1F] MOVE_ENTITY: EventEntity moves to X=-13.733*, Z=-692.414*, Y=-3.024*
  8: 0x020E [0x1F] MOVE_ENTITY: Update entity position (mode=1)
  9: 0x0210 [0x1F] MOVE_ENTITY: EventEntity moves to X=-19.035*, Z=-684.648*, Y=-3.203*
 10: 0x0218 [0x1F] MOVE_ENTITY: Update entity position (mode=1)
 11: 0x021A [0x00] END_REQSTACK()
```
