# Event 233

## Metadata

| Field           | Value    |
|-----------------|----------|
| Event Index     | 4/6      |
| Offset          | 0x2930   |
| Data Size       | 39 bytes |
| Calculated Size | 39 bytes |
| Instructions    | 12       |

```
      00 01 02 03 04 05 06 07  08 09 0A 0B 0C 0D 0E 0F
      -- -- -- -- -- -- -- --  -- -- -- -- -- -- -- --
2930: 03 01 10 01 80 48 EA 80  24 EB 80 01 80 01 80 25  .....H..$......%
2940: 02 00 10 01 80 00 55 29  42 30 1A 64 00 03 01 10  ......U)B0.d....
2950: 03 80 01 55 29 21 00                              ...U)!.         
```

## Opcodes

```
  0: 0x2930 [0x03] Work_Zone[1] = 0*
  1: 0x2935 [0x48] [System] [12876*]:
    → "The grapnel is still here...\u0000\u0007"
  2: 0x2938 [0x24] CREATE_DIALOG(message_id=12877*, default_option=0*, option_flags=0*)
    → "Climb the cliff?\u0007\u000BYes.\u0007Not now.\u007F1\u0000\u0007"
  3: 0x293F [0x25] WAIT_DIALOG_SELECT()
  4: 0x2940 [0x02] IF !(Work_Zone[0] == 0*) GOTO 0x2955
  5: 0x2948 [0x42] SET_CLI_EVENT_CANCEL_DATA()
  6: 0x2949 [0x30] SET_UCOFF_CONTINUE_ZERO()
  7: 0x294A [0x1A] CALL_SUBROUTINE(address=0x0064)
  8: 0x294D [0x03] Work_Zone[1] = 1*
  9: 0x2952 [0x01] GOTO 0x2955

SUBROUTINE_2955:
 10: 0x2955 [0x21] END_EVENT
 11: 0x2956 [0x00] END_REQSTACK()
```
