# Event 65535

## Metadata

| Field           | Value    |
|-----------------|----------|
| Event Index     | 11/33    |
| Offset          | 0x0093   |
| Data Size       | 28 bytes |
| Calculated Size | 28 bytes |
| Instructions    | 9        |

```
      00 01 02 03 04 05 06 07  08 09 0A 0B 0C 0D 0E 0F
      -- -- -- -- -- -- -- --  -- -- -- -- -- -- -- --
0090:          32 04 80 1F 00  1A 80 1B 80 0C 80 1F 01     2............
00A0: 6F 1F 00 1C 80 1D 80 02  80 1F 01 6F 22 01 00     o..........o".. 
```

## Opcodes

```
  0: 0x0093 [0x32] ExtData[1]->MainSpeed = 13* * 0.1
  1: 0x0096 [0x1F] MOVE_ENTITY: EventEntity moves to X=-169.885*, Z=59.222*, Y=-2.000*
  2: 0x009E [0x1F] MOVE_ENTITY: Update entity position (mode=1)
  3: 0x00A0 [0x6F] WAIT_FRAME_DELAY: Yield until WaitTime reaches zero
  4: 0x00A1 [0x1F] MOVE_ENTITY: EventEntity moves to X=-177.259*, Z=58.134*, Y=-2.199*
  5: 0x00A9 [0x1F] MOVE_ENTITY: Update entity position (mode=1)
  6: 0x00AB [0x6F] WAIT_FRAME_DELAY: Yield until WaitTime reaches zero
  7: 0x00AC [0x22] ENTITY_HIDE_FLAG(enabled=0x01)
  8: 0x00AE [0x00] END_REQSTACK()
```
