# Event 65535

## Metadata

| Field           | Value    |
|-----------------|----------|
| Event Index     | 14/33    |
| Offset          | 0x00CB   |
| Data Size       | 27 bytes |
| Calculated Size | 27 bytes |
| Instructions    | 9        |

```
      00 01 02 03 04 05 06 07  08 09 0A 0B 0C 0D 0E 0F
      -- -- -- -- -- -- -- --  -- -- -- -- -- -- -- --
00C0:                                   32 04 80 1F 00             2....
00D0: 20 80 21 80 22 80 1F 01  6F 1E 17 02 05 01 7B 0E   .!."...o.....{.
00E0: 02 05 01 6F 70 00                                 ...op.          
```

## Opcodes

```
  0: 0x00CB [0x32] ExtData[1]->MainSpeed = 13* * 0.1
  1: 0x00CE [0x1F] MOVE_ENTITY: EventEntity moves to X=-0.066*, Z=42.914*, Y=-1.999*
  2: 0x00D6 [0x1F] MOVE_ENTITY: Update entity position (mode=1)
  3: 0x00D8 [0x6F] WAIT_FRAME_DELAY: Yield until WaitTime reaches zero
  4: 0x00D9 [0x1E] EventEntity looks at Phillieulais S Dieuffon (ID: 17105431/0x01050217) and starts talking
  5: 0x00DE [0x7B] Altennia (ID: 17105422/0x0105020E) stops talking
  6: 0x00E3 [0x6F] WAIT_FRAME_DELAY: Yield until WaitTime reaches zero
  7: 0x00E4 [0x70] WAIT_ENTITY_RENDER_FLAG: Wait while EventEntity->Render.Flags3 bit 2 is set (cancel turn if not)
  8: 0x00E5 [0x00] END_REQSTACK()
```
