# Event 65535

## Metadata

| Field           | Value    |
|-----------------|----------|
| Event Index     | 13/13    |
| Offset          | 0x00C6   |
| Data Size       | 50 bytes |
| Calculated Size | 50 bytes |
| Instructions    | 10       |

```
      00 01 02 03 04 05 06 07  08 09 0A 0B 0C 0D 0E 0F
      -- -- -- -- -- -- -- --  -- -- -- -- -- -- -- --
00C0:                   32 01  80 1F 00 0F 80 10 80 11        2.........
00D0: 80 1F 01 6F 4A 19 42 0A  01 49 42 0A 01 7B 19 42  ...oJ.B..IB..{.B
00E0: 0A 01 6F 76 19 42 0A 01  5B 12 80 19 42 0A 01 19  ..ov.B..[...B...
00F0: 42 0A 01 6C 62 74 30 00                           B..lbt0.        
```

## Opcodes

```
  0: 0x00C6 [0x32] ExtData[1]->MainSpeed = 40* * 0.1
  1: 0x00C9 [0x1F] MOVE_ENTITY: EventEntity moves to X=-0.283*, Z=-284.066*, Y=-0.007*
  2: 0x00D1 [0x1F] MOVE_ENTITY: Update entity position (mode=1)
  3: 0x00D3 [0x6F] WAIT_FRAME_DELAY: Yield until WaitTime reaches zero
  4: 0x00D4 [0x4A] Andalliot (ID: 17449497/0x010A4219) looks at A (ID: 17449545/0x010A4249)
  5: 0x00DD [0x7B] Andalliot (ID: 17449497/0x010A4219) stops talking
  6: 0x00E2 [0x6F] WAIT_FRAME_DELAY: Yield until WaitTime reaches zero
  7: 0x00E3 [0x76] CHECK_ENTITY_RENDER_FLAGS: Wait until Andalliot (ID: 17449497/0x010A4219) Render.Flags0 and Render.Flags3 conditions are met
  8: 0x00E8 [0x5B] LOAD_EXT_SCHEDULER: Load scheduler "lbt0" with entities [Andalliot (ID: 17449497/0x010A4219), Andalliot (ID: 17449497/0x010A4219)], work=1302*
  9: 0x00F7 [0x00] END_REQSTACK()
```
