# Event 65535

## Metadata

| Field           | Value    |
|-----------------|----------|
| Event Index     | 18/49    |
| Offset          | 0x0344   |
| Data Size       | 71 bytes |
| Calculated Size | 71 bytes |
| Instructions    | 13       |

```
      00 01 02 03 04 05 06 07  08 09 0A 0B 0C 0D 0E 0F
      -- -- -- -- -- -- -- --  -- -- -- -- -- -- -- --
0340:             32 1F 80 1F  00 20 80 21 80 1A 80 1F      2.... .!....
0350: 01 1E 13 61 0E 01 1C 00  80 66 03 80 12 61 0E 01  ...a.....f...a..
0360: 12 61 0E 01 74 6C 6B 30  1C 22 80 66 03 80 12 61  .a..tlk0.".f...a
0370: 0E 01 12 61 0E 01 74 6C  6B 31 1C 22 80 32 1F 80  ...a..tlk1.".2..
0380: 1F 00 1C 80 1D 80 1A 80  1F 01 00                 ...........     
```

## Opcodes

```
  0: 0x0344 [0x32] ExtData[1]->MainSpeed = 13* * 0.1
  1: 0x0347 [0x1F] MOVE_ENTITY: EventEntity moves to X=-11.919*, Z=-114.962*, Y=1.548*
  2: 0x034F [0x1F] MOVE_ENTITY: Update entity position (mode=1)
  3: 0x0351 [0x1E] EventEntity looks at Unnamed NPC (ID: 17719571/0x010E6113) and starts talking
  4: 0x0356 [0x1C] WAIT(30* ticks)
  5: 0x0359 [0x66] LOAD_EXT_SCHEDULER_MAIN: Load scheduler "tlk0" with entities [Hantileon (ID: 17719570/0x010E6112), Hantileon (ID: 17719570/0x010E6112)], work=29*
  6: 0x0368 [0x1C] WAIT(60* ticks)
  7: 0x036B [0x66] LOAD_EXT_SCHEDULER_MAIN: Load scheduler "tlk1" with entities [Hantileon (ID: 17719570/0x010E6112), Hantileon (ID: 17719570/0x010E6112)], work=29*
  8: 0x037A [0x1C] WAIT(60* ticks)
  9: 0x037D [0x32] ExtData[1]->MainSpeed = 13* * 0.1
 10: 0x0380 [0x1F] MOVE_ENTITY: EventEntity moves to X=-10.342*, Z=-114.750*, Y=1.548*
 11: 0x0388 [0x1F] MOVE_ENTITY: Update entity position (mode=1)
 12: 0x038A [0x00] END_REQSTACK()
```
