# Event 65535

## Metadata

| Field           | Value    |
|-----------------|----------|
| Event Index     | 23/49    |
| Offset          | 0x0401   |
| Data Size       | 45 bytes |
| Calculated Size | 45 bytes |
| Instructions    | 11       |

```
      00 01 02 03 04 05 06 07  08 09 0A 0B 0C 0D 0E 0F
      -- -- -- -- -- -- -- --  -- -- -- -- -- -- -- --
0400:    32 1F 80 1F 00 57 80  58 80 55 80 1F 01 1E 13   2....W.X.U.....
0410: 61 0E 01 1C 00 80 1F 00  59 80 5A 80 55 80 1F 01  a.......Y.Z.U...
0420: 1E 13 61 0E 01 1C 5B 80  1E 13 61 0E 01 00        ..a...[...a...  
```

## Opcodes

```
  0: 0x0401 [0x32] ExtData[1]->MainSpeed = 13* * 0.1
  1: 0x0404 [0x1F] MOVE_ENTITY: EventEntity moves to X=-1.988*, Z=-69.147*, Y=1.999*
  2: 0x040C [0x1F] MOVE_ENTITY: Update entity position (mode=1)
  3: 0x040E [0x1E] EventEntity looks at Unnamed NPC (ID: 17719571/0x010E6113) and starts talking
  4: 0x0413 [0x1C] WAIT(30* ticks)
  5: 0x0416 [0x1F] MOVE_ENTITY: EventEntity moves to X=-2.033*, Z=-67.060*, Y=1.999*
  6: 0x041E [0x1F] MOVE_ENTITY: Update entity position (mode=1)
  7: 0x0420 [0x1E] EventEntity looks at Unnamed NPC (ID: 17719571/0x010E6113) and starts talking
  8: 0x0425 [0x1C] WAIT(120* ticks)
  9: 0x0428 [0x1E] EventEntity looks at Unnamed NPC (ID: 17719571/0x010E6113) and starts talking
 10: 0x042D [0x00] END_REQSTACK()
```
