# Event 65535

## Metadata

| Field           | Value    |
|-----------------|----------|
| Event Index     | 16/49    |
| Offset          | 0x02B4   |
| Data Size       | 62 bytes |
| Calculated Size | 62 bytes |
| Instructions    | 10       |

```
      00 01 02 03 04 05 06 07  08 09 0A 0B 0C 0D 0E 0F
      -- -- -- -- -- -- -- --  -- -- -- -- -- -- -- --
02B0:             32 1F 80 1F  00 20 80 21 80 1A 80 1F      2.... .!....
02C0: 01 1E 13 61 0E 01 1C 00  80 4B 13 61 0E 01 48 80  ...a.....K.a..H.
02D0: 66 03 80 12 61 0E 01 12  61 0E 01 74 6C 6B 30 1C  f...a...a..tlk0.
02E0: 22 80 66 03 80 12 61 0E  01 12 61 0E 01 74 6C 6B  ".f...a...a..tlk
02F0: 31 00                                             1.              
```

## Opcodes

```
  0: 0x02B4 [0x32] ExtData[1]->MainSpeed = 13* * 0.1
  1: 0x02B7 [0x1F] MOVE_ENTITY: EventEntity moves to X=-11.919*, Z=-114.962*, Y=1.548*
  2: 0x02BF [0x1F] MOVE_ENTITY: Update entity position (mode=1)
  3: 0x02C1 [0x1E] EventEntity looks at Unnamed NPC (ID: 17719571/0x010E6113) and starts talking
  4: 0x02C6 [0x1C] WAIT(30* ticks)
  5: 0x02C9 [0x4B] UPDATE_ENTITY_YAW(entity=Unnamed NPC (ID: 17719571/0x010E6113), yaw=5.44°*)
  6: 0x02D0 [0x66] LOAD_EXT_SCHEDULER_MAIN: Load scheduler "tlk0" with entities [Hantileon (ID: 17719570/0x010E6112), Hantileon (ID: 17719570/0x010E6112)], work=29*
  7: 0x02DF [0x1C] WAIT(60* ticks)
  8: 0x02E2 [0x66] LOAD_EXT_SCHEDULER_MAIN: Load scheduler "tlk1" with entities [Hantileon (ID: 17719570/0x010E6112), Hantileon (ID: 17719570/0x010E6112)], work=29*
  9: 0x02F1 [0x00] END_REQSTACK()
```
