# Event 65535

## Metadata

| Field           | Value    |
|-----------------|----------|
| Event Index     | 19/49    |
| Offset          | 0x038B   |
| Data Size       | 73 bytes |
| Calculated Size | 73 bytes |
| Instructions    | 13       |

```
      00 01 02 03 04 05 06 07  08 09 0A 0B 0C 0D 0E 0F
      -- -- -- -- -- -- -- --  -- -- -- -- -- -- -- --
0380:                                   32 1F 80 1F 00             2....
0390: 49 80 4A 80 16 80 1F 01  4B 12 61 0E 01 4B 80 1C  I.J.....K.a..K..
03A0: 00 80 66 03 80 12 61 0E  01 12 61 0E 01 74 6C 6B  ..f...a...a..tlk
03B0: 30 1C 22 80 66 03 80 12  61 0E 01 12 61 0E 01 74  0.".f...a...a..t
03C0: 6C 6B 31 1C 22 80 32 1F  80 1F 00 2F 80 30 80 16  lk1.".2..../.0..
03D0: 80 1F 01 00                                       ....            
```

## Opcodes

```
  0: 0x038B [0x32] ExtData[1]->MainSpeed = 13* * 0.1
  1: 0x038E [0x1F] MOVE_ENTITY: EventEntity moves to X=-7.926*, Z=-100.586*, Y=1.399*
  2: 0x0396 [0x1F] MOVE_ENTITY: Update entity position (mode=1)
  3: 0x0398 [0x4B] UPDATE_ENTITY_YAW(entity=Hantileon (ID: 17719570/0x010E6112), yaw=4.08°*)
  4: 0x039F [0x1C] WAIT(30* ticks)
  5: 0x03A2 [0x66] LOAD_EXT_SCHEDULER_MAIN(work_offset=29*, entity1=Hantileon (ID: 17719570/0x010E6112), entity2=Hantileon (ID: 17719570/0x010E6112), action="tlk0")
  6: 0x03B1 [0x1C] WAIT(60* ticks)
  7: 0x03B4 [0x66] LOAD_EXT_SCHEDULER_MAIN(work_offset=29*, entity1=Hantileon (ID: 17719570/0x010E6112), entity2=Hantileon (ID: 17719570/0x010E6112), action="tlk1")
  8: 0x03C3 [0x1C] WAIT(60* ticks)
  9: 0x03C6 [0x32] ExtData[1]->MainSpeed = 13* * 0.1
 10: 0x03C9 [0x1F] MOVE_ENTITY: EventEntity moves to X=-9.815*, Z=-100.532*, Y=1.399*
 11: 0x03D1 [0x1F] MOVE_ENTITY: Update entity position (mode=1)
 12: 0x03D3 [0x00] END_REQSTACK()
```
