# Event 735

## Metadata

| Field           | Value    |
|-----------------|----------|
| Event Index     | 35/40    |
| Offset          | 0x0519   |
| Data Size       | 24 bytes |
| Calculated Size | 24 bytes |
| Instructions    | 10       |

```
      00 01 02 03 04 05 06 07  08 09 0A 0B 0C 0D 0E 0F
      -- -- -- -- -- -- -- --  -- -- -- -- -- -- -- --
0510:                             42 48 27 80 1E F0 FF           BH'....
0520: FF 7F 1D 28 80 23 1E B4  10 0F 01 1D 29 80 23 21  ...(.#......).#!
0530: 00                                                .               
```

## Opcodes

```
  0: 0x0519 [0x42] SET_CLI_EVENT_CANCEL_DATA()
  1: 0x051A [0x48] [System] [10415*]:
    → "\u001F\u000F\u0008's badge flashes brightly.\u007F1\u0000\u0007"
  2: 0x051D [0x1E] EventEntity looks at LocalPlayer and starts talking
  3: 0x0522 [0x1D] PRINT_EVENT_MESSAGE(message_id=10427*)
    → "Hey chap, have ye heard?\u0007They say there be treasures in Aht Urhgan that nobody's laid eyes on as yet!\u007F1\u0000\u0007"
  4: 0x0525 [0x23] WAIT_FOR_DIALOG_INTERACTION
  5: 0x0526 [0x1E] EventEntity looks at Gottah Maporushanoh (ID: 17764532/0x010F10B4) and starts talking
  6: 0x052B [0x1D] PRINT_EVENT_MESSAGE(message_id=10428*)
    → "Ye hear that, Gottah?\u0007Pack yer bags, 'cause we're takin' off for the high seas!\u007F1\u0000\u0007"
  7: 0x052E [0x23] WAIT_FOR_DIALOG_INTERACTION
  8: 0x052F [0x21] END_EVENT
  9: 0x0530 [0x00] END_REQSTACK()
```
