# Event 65535

## Metadata

| Field           | Value    |
|-----------------|----------|
| Event Index     | 12/14    |
| Offset          | 0x0116   |
| Data Size       | 51 bytes |
| Calculated Size | 51 bytes |
| Instructions    | 11       |

```
      00 01 02 03 04 05 06 07  08 09 0A 0B 0C 0D 0E 0F
      -- -- -- -- -- -- -- --  -- -- -- -- -- -- -- --
0110:                   32 28  80 1F 00 3A 80 3B 80 3C        2(...:.;.<
0120: 80 1F 01 1F 00 3D 80 3E  80 3F 80 1F 01 1F 00 40  .....=.>.?.....@
0130: 80 41 80 42 80 1F 01 1E  4A 10 0F 01 1C 21 80 4A  .A.B....J....!.J
0140: 4A 10 0F 01 4F 10 0F 01  00                       J...O....       
```

## Opcodes

```
  0: 0x0116 [0x32] ExtData[1]->MainSpeed = 45* * 0.1
  1: 0x0119 [0x1F] MOVE_ENTITY: EventEntity moves to X=-604.257*, Z=586.573*, Y=0.057*
  2: 0x0121 [0x1F] MOVE_ENTITY: Update entity position (mode=1)
  3: 0x0123 [0x1F] MOVE_ENTITY: EventEntity moves to X=-603.318*, Z=588.527*, Y=0.196*
  4: 0x012B [0x1F] MOVE_ENTITY: Update entity position (mode=1)
  5: 0x012D [0x1F] MOVE_ENTITY: EventEntity moves to X=-601.495*, Z=586.040*, Y=0.496*
  6: 0x0135 [0x1F] MOVE_ENTITY: Update entity position (mode=1)
  7: 0x0137 [0x1E] EventEntity looks at Unnamed NPC (ID: 17764426/0x010F104A) and starts talking
  8: 0x013C [0x1C] WAIT(30* ticks)
  9: 0x013F [0x4A] Unnamed NPC (ID: 17764426/0x010F104A) looks at Unnamed NPC (ID: 17764431/0x010F104F)
 10: 0x0148 [0x00] END_REQSTACK()
```
