# Event 65535

## Metadata

| Field           | Value    |
|-----------------|----------|
| Event Index     | 10/14    |
| Offset          | 0x00C5   |
| Data Size       | 67 bytes |
| Calculated Size | 67 bytes |
| Instructions    | 15       |

```
      00 01 02 03 04 05 06 07  08 09 0A 0B 0C 0D 0E 0F
      -- -- -- -- -- -- -- --  -- -- -- -- -- -- -- --
00C0:                32 28 80  1F 00 29 80 2A 80 2B 80       2(...).*.+.
00D0: 1F 01 4B 4F 10 0F 01 2C  80 1C 2D 80 1F 00 2E 80  ..KO...,..-.....
00E0: 2F 80 30 80 1F 01 4B 4F  10 0F 01 31 80 1C 32 80  /.0...KO...1..2.
00F0: 1F 00 33 80 34 80 35 80  1F 01 1C 21 80 4B 4F 10  ..3.4.5....!.KO.
0100: 0F 01 36 80 1C 2D 80 00                           ..6..-..        
```

## Opcodes

```
  0: 0x00C5 [0x32] ExtData[1]->MainSpeed = 45* * 0.1
  1: 0x00C8 [0x1F] MOVE_ENTITY: EventEntity moves to X=-599.295*, Z=590.678*, Y=0.264*
  2: 0x00D0 [0x1F] MOVE_ENTITY: Update entity position (mode=1)
  3: 0x00D2 [0x4B] UPDATE_ENTITY_YAW(entity=Unnamed NPC (ID: 17764431/0x010F104F), yaw=5.27°*)
  4: 0x00D9 [0x1C] WAIT(60* ticks)
  5: 0x00DC [0x1F] MOVE_ENTITY: EventEntity moves to X=-604.353*, Z=586.292*, Y=0.138*
  6: 0x00E4 [0x1F] MOVE_ENTITY: Update entity position (mode=1)
  7: 0x00E6 [0x4B] UPDATE_ENTITY_YAW(entity=Unnamed NPC (ID: 17764431/0x010F104F), yaw=0.20°*)
  8: 0x00ED [0x1C] WAIT(240* ticks)
  9: 0x00F0 [0x1F] MOVE_ENTITY: EventEntity moves to X=-600.328*, Z=582.410*, Y=0.802*
 10: 0x00F8 [0x1F] MOVE_ENTITY: Update entity position (mode=1)
 11: 0x00FA [0x1C] WAIT(30* ticks)
 12: 0x00FD [0x4B] UPDATE_ENTITY_YAW(entity=Unnamed NPC (ID: 17764431/0x010F104F), yaw=16.63°*)
 13: 0x0104 [0x1C] WAIT(60* ticks)
 14: 0x0107 [0x00] END_REQSTACK()
```
