# Event 61

## Metadata

| Field           | Value    |
|-----------------|----------|
| Event Index     | 2/2      |
| Offset          | 0x0292   |
| Data Size       | 47 bytes |
| Calculated Size | 47 bytes |
| Instructions    | 12       |

```
      00 01 02 03 04 05 06 07  08 09 0A 0B 0C 0D 0E 0F
      -- -- -- -- -- -- -- --  -- -- -- -- -- -- -- --
0290:       42 6E F0 FF FF 7F  08 80 99 F0 FF FF 7F 02    Bn............
02A0: 03 10 01 80 00 B2 02 03  02 10 09 80 48 0A 80 01  ............H...
02B0: BF 02 03 02 10 09 80 03  03 10 0B 80 48 0C 80 21  ............H..!
02C0: 00                                                .               
```

## Opcodes

```
  0: 0x0292 [0x42] SET_CLI_EVENT_CANCEL_DATA()
  1: 0x0293 [0x6E] LocalPlayer uses emote 41*
  2: 0x029A [0x99] Wait for LocalPlayer animation to complete
  3: 0x029F [0x02] IF !(Work_Zone[3] == 0*) GOTO 0x02B2
  4: 0x02A7 [0x03] Work_Zone[2] = 3296*
  5: 0x02AC [0x48] [System] [11633*]:
    → "Obtained key item: \u007F\u0000\u0001\u0001\u00053\u0002\u0000\u0000\u0000.\u0000\u0007"
  6: 0x02AF [0x01] GOTO 0x02BF
  7: 0x02B2 [0x03] Work_Zone[2] = 3296*
  8: 0x02B7 [0x03] Work_Zone[3] = 605*
  9: 0x02BC [0x48] [System] [11634*]:
    → "You find some \u0001\u00053\u0002\u0000\u0000\u0000, but your \u0001\u0005#\u0002\u0001\u0000\u0000 is destroyed in the process.\u0000\u0007"
 10: 0x02BF [0x21] END_EVENT
 11: 0x02C0 [0x00] END_REQSTACK()
```
