# Event 65535

## Metadata

| Field           | Value    |
|-----------------|----------|
| Event Index     | 13/64    |
| Offset          | 0x00CB   |
| Data Size       | 36 bytes |
| Calculated Size | 36 bytes |
| Instructions    | 9        |

```
      00 01 02 03 04 05 06 07  08 09 0A 0B 0C 0D 0E 0F
      -- -- -- -- -- -- -- --  -- -- -- -- -- -- -- --
00C0:                                   22 00 32 04 80             ".2..
00D0: 1F 00 0D 80 0E 80 0F 80  1F 01 1F 00 10 80 11 80  ................
00E0: 12 80 1F 01 1F 00 13 80  14 80 12 80 1F 01 00     ............... 
```

## Opcodes

```
  0: 0x00CB [0x22] ENTITY_HIDE_FLAG(enabled=0x00)
  1: 0x00CD [0x32] ExtData[1]->MainSpeed = 13* * 0.1
  2: 0x00D0 [0x1F] MOVE_ENTITY: EventEntity moves to X=-16.906*, Z=-5.471*, Y=-10.500*
  3: 0x00D8 [0x1F] MOVE_ENTITY: Update entity position (mode=1)
  4: 0x00DA [0x1F] MOVE_ENTITY: EventEntity moves to X=-15.492*, Z=-4.618*, Y=-10.988*
  5: 0x00E2 [0x1F] MOVE_ENTITY: Update entity position (mode=1)
  6: 0x00E4 [0x1F] MOVE_ENTITY: EventEntity moves to X=-13.196*, Z=-2.217*, Y=-10.988*
  7: 0x00EC [0x1F] MOVE_ENTITY: Update entity position (mode=1)
  8: 0x00EE [0x00] END_REQSTACK()
```
