# Event 65535

## Metadata

| Field           | Value    |
|-----------------|----------|
| Event Index     | 15/64    |
| Offset          | 0x0114   |
| Data Size       | 49 bytes |
| Calculated Size | 49 bytes |
| Instructions    | 11       |

```
      00 01 02 03 04 05 06 07  08 09 0A 0B 0C 0D 0E 0F
      -- -- -- -- -- -- -- --  -- -- -- -- -- -- -- --
0110:             7B F8 FF FF  7F 32 04 80 1F 00 13 80      {....2......
0120: 14 80 12 80 1F 01 1F 00  10 80 11 80 12 80 1F 01  ................
0130: 1F 00 0D 80 0E 80 0F 80  1F 01 1F 00 08 80 09 80  ................
0140: 0A 80 1F 01 00                                    .....           
```

## Opcodes

```
  0: 0x0114 [0x7B] EventEntity stops talking
  1: 0x0119 [0x32] ExtData[1]->MainSpeed = 13* * 0.1
  2: 0x011C [0x1F] MOVE_ENTITY: EventEntity moves to X=-13.196*, Z=-2.217*, Y=-10.988*
  3: 0x0124 [0x1F] MOVE_ENTITY: Update entity position (mode=1)
  4: 0x0126 [0x1F] MOVE_ENTITY: EventEntity moves to X=-15.492*, Z=-4.618*, Y=-10.988*
  5: 0x012E [0x1F] MOVE_ENTITY: Update entity position (mode=1)
  6: 0x0130 [0x1F] MOVE_ENTITY: EventEntity moves to X=-16.906*, Z=-5.471*, Y=-10.500*
  7: 0x0138 [0x1F] MOVE_ENTITY: Update entity position (mode=1)
  8: 0x013A [0x1F] MOVE_ENTITY: EventEntity moves to X=-18.483*, Z=-5.619*, Y=-9.999*
  9: 0x0142 [0x1F] MOVE_ENTITY: Update entity position (mode=1)
 10: 0x0144 [0x00] END_REQSTACK()
```
