# Event 65535

## Metadata

| Field           | Value    |
|-----------------|----------|
| Event Index     | 17/32    |
| Offset          | 0x01FB   |
| Data Size       | 61 bytes |
| Calculated Size | 61 bytes |
| Instructions    | 13       |

```
      00 01 02 03 04 05 06 07  08 09 0A 0B 0C 0D 0E 0F
      -- -- -- -- -- -- -- --  -- -- -- -- -- -- -- --
01F0:                                   1E 0A 40 0F 01             ..@..
0200: 6F 76 0A 40 0F 01 1F 00  1E 80 26 80 0A 80 1F 01  ov.@......&.....
0210: 6F 4A F0 FF FF 7F F8 FF  FF 7F 4A 0C 40 0F 01 F8  oJ........J.@...
0220: FF FF 7F 4A 0D 40 0F 01  F8 FF FF 7F 1E 0A 40 0F  ...J.@........@.
0230: 01 6F 76 F8 FF FF 7F 00                           .ov.....        
```

## Opcodes

```
  0: 0x01FB [0x1E] EventEntity looks at Chocobo (ID: 17776650/0x010F400A) and starts talking
  1: 0x0200 [0x6F] WAIT_FRAME_DELAY: Yield until WaitTime reaches zero
  2: 0x0201 [0x76] CHECK_ENTITY_RENDER_FLAGS: Wait until Chocobo (ID: 17776650/0x010F400A) Render.Flags0 and Render.Flags3 conditions are met
  3: 0x0206 [0x1F] MOVE_ENTITY: EventEntity moves to X=-59.614*, Z=93.077*, Y=8.199*
  4: 0x020E [0x1F] MOVE_ENTITY: Update entity position (mode=1)
  5: 0x0210 [0x6F] WAIT_FRAME_DELAY: Yield until WaitTime reaches zero
  6: 0x0211 [0x4A] LocalPlayer looks at EventEntity
  7: 0x021A [0x4A] Brutus (ID: 17776652/0x010F400C) looks at EventEntity
  8: 0x0223 [0x4A] Osker (ID: 17776653/0x010F400D) looks at EventEntity
  9: 0x022C [0x1E] EventEntity looks at Chocobo (ID: 17776650/0x010F400A) and starts talking
 10: 0x0231 [0x6F] WAIT_FRAME_DELAY: Yield until WaitTime reaches zero
 11: 0x0232 [0x76] CHECK_ENTITY_RENDER_FLAGS: Wait until EventEntity Render.Flags0 and Render.Flags3 conditions are met
 12: 0x0237 [0x00] END_REQSTACK()
```
