# Event 65535

## Metadata

| Field           | Value    |
|-----------------|----------|
| Event Index     | 14/14    |
| Offset          | 0x009B   |
| Data Size       | 50 bytes |
| Calculated Size | 50 bytes |
| Instructions    | 11       |

```
      00 01 02 03 04 05 06 07  08 09 0A 0B 0C 0D 0E 0F
      -- -- -- -- -- -- -- --  -- -- -- -- -- -- -- --
0090:                                   06 02 00 03 00             .....
00A0: 00 15 80 03 01 00 16 80  02 02 00 11 80 03 CC 00  ................
00B0: 08 00 00 17 80 07 01 00  17 80 57 02 00 37 00 00  ..........W..7..
00C0: 01 00 13 80 0E 80 1C 01  80 01 A8 00 00           .............   
```

## Opcodes

```
  0: 0x009B [0x06] ExtData[1]->WorkLocal[2] = 0
  1: 0x009E [0x03] ExtData[1]->WorkLocal[0] = 264703*
  2: 0x00A3 [0x03] ExtData[1]->WorkLocal[1] = 4294864494*
  3: 0x00A8 [0x02] IF !(ExtData[1]->WorkLocal[2] >= 1000*) GOTO 0x00CC
  4: 0x00B0 [0x08] ExtData[1]->WorkLocal[0] -= 41*
  5: 0x00B5 [0x07] ExtData[1]->WorkLocal[1] += 41*
  6: 0x00BA [0x57] CREATE_FRAME_DELAY(delay=ExtData[1]->WorkLocal[2])
  7: 0x00BD [0x37] UPDATE_EVENT_POSITION_AND_DIR: x=ExtData[1]->WorkLocal[0], z=ExtData[1]->WorkLocal[1], y=114.999*, direction=247.1°*
  8: 0x00C6 [0x1C] WAIT(1* ticks)
  9: 0x00C9 [0x01] GOTO 0x00A8

SUBROUTINE_00CC:
 10: 0x00CC [0x00] END_REQSTACK()
```
