# 17281589

## Common Data

| Field            | Value                     |
|------------------|---------------------------|
| Zone             | Yuhtunga Jungle (ID: 123) |
| Block Size       | 1396 bytes                |
| Total Events     | 3                         |
| References Count | 28                        |

## List of Events

| Event ID              | Entrypoint   |   Size |   Instructions |
|-----------------------|--------------|--------|----------------|
| [65535](#event-65535) | 0x0000       |      1 |              1 |
| [28](#event-28)       | 0x0001       |    745 |            105 |
| [29](#event-29)       | 0x02EA       |    507 |             64 |

## DAT References (imed_data)

|   Index | Hex Value   |   Dec Value |
|---------|-------------|-------------|
|       0 | 0x00C8      |         200 |
|       1 | 0x0000      |           0 |
|       2 | 0x003C      |          60 |
|       3 | 0x0013      |          19 |
|       4 | 0x00E5      |         229 |
|       5 | 0x1EA2      |        7842 |
|       6 | 0x1EA3      |        7843 |
|       7 | 0x00AA      |         170 |
|       8 | 0x000F      |          15 |
|       9 | 0x000A      |          10 |
|      10 | 0x001E      |          30 |
|      11 | 0x00C0      |         192 |
|      12 | 0x0028      |          40 |
|      13 | 0x1EA4      |        7844 |
|      14 | 0x1EA5      |        7845 |
|      15 | 0x58C82     |      363650 |
|      16 | 0x35D0C     |      220428 |
|      17 | 0xFFFFE25E  |  4294959710 |
|      18 | 0x0C90      |        3216 |
|      19 | 0x0078      |         120 |
|      20 | 0x00C9      |         201 |
|      21 | 0x0086      |         134 |
|      22 | 0x1EA6      |        7846 |
|      23 | 0x1EA7      |        7847 |
|      24 | 0x1EA8      |        7848 |
|      25 | 0x0005      |           5 |
|      26 | 0x0006      |           6 |
|      27 | 0x1EA9      |        7849 |

## Events

### Event 65535

#### Metadata

| Field        | Value   |
|--------------|---------|
| Entrypoint   | 0x0000  |
| Data Size    | 1 bytes |
| Instructions | 1       |

```
      00 01 02 03 04 05 06 07  08 09 0A 0B 0C 0D 0E 0F
      -- -- -- -- -- -- -- --  -- -- -- -- -- -- -- --
0000: 00                                                .               
```

#### Opcodes

```
  0: 0x0000 [0x00] END_REQSTACK()
```

### Event 28

#### Metadata

| Field        | Value     |
|--------------|-----------|
| Entrypoint   | 0x0001    |
| Data Size    | 745 bytes |
| Instructions | 105       |

```
      00 01 02 03 04 05 06 07  08 09 0A 0B 0C 0D 0E 0F
      -- -- -- -- -- -- -- --  -- -- -- -- -- -- -- --
0000:    20 01 42 46 01 45 00  80 F8 FF FF 7F F8 FF FF    .BF.E.........
0010: 7F 66 64 6F 31 01 80 1C  02 80 38 03 80 29 08 F0  .fdo1.....8..)..
0020: FF FF 7F 07 29 0B 37 B2  07 01 06 29 0B F0 FF FF  ....).7....)....
0030: 7F 09 29 0B 38 B2 07 01  02 29 0B 39 B2 07 01 02  ..).8....).9....
0040: 29 0B 3A B2 07 01 02 29  0B 3B B2 07 01 02 29 0B  ).:....).;....).
0050: 3C B2 07 01 02 4E 00 37  B2 07 01 4E 00 38 B2 07  <....N.7...N.8..
0060: 01 4E 00 39 B2 07 01 4E  00 3A B2 07 01 4E 00 3B  .N.9...N.:...N.;
0070: B2 07 01 4E 00 3C B2 07  01 80 37 B2 07 01 80 38  ...N.<....7....8
0080: B2 07 01 80 39 B2 07 01  80 3A B2 07 01 80 3B B2  ....9....:....;.
0090: 07 01 80 3C B2 07 01 4A  37 B2 07 01 F0 FF FF 7F  ...<...J7.......
00A0: 6F 76 37 B2 07 01 45 04  80 F8 FF FF 7F F8 FF FF  ov7...E.........
00B0: 7F 73 30 30 30 01 80 45  00 80 F8 FF FF 7F F8 FF  .s000..E........
00C0: FF 7F 66 64 69 31 01 80  79 00 F0 FF FF 7F 37 B2  ..fdi1..y.....7.
00D0: 07 01 27 0B F0 FF FF 7F  0A 27 08 37 B2 07 01 01  ..'......'.7....
00E0: 2B 37 B2 07 01 05 80 23  2A 08 37 B2 07 01 52 04  +7.....#*.7...R.
00F0: 80 F8 FF FF 7F F8 FF FF  7F 73 30 30 30 45 04 80  .........s000E..
0100: F8 FF FF 7F F8 FF FF 7F  73 30 30 31 01 80 2B 37  ........s001..+7
0110: B2 07 01 06 80 23 2A 0B  F0 FF FF 7F 27 0B 37 B2  .....#*.....'.7.
0120: 07 01 07 1C 02 80 52 04  80 F8 FF FF 7F F8 FF FF  ......R.........
0130: 7F 73 30 30 31 45 04 80  F8 FF FF 7F F8 FF FF 7F  .s001E..........
0140: 73 30 30 32 01 80 2A 0B  37 B2 07 01 29 08 37 B2  s002..*.7...).7.
0150: 07 01 02 1C 07 80 27 0B  38 B2 07 01 03 1C 08 80  ......'.8.......
0160: 27 0B 39 B2 07 01 03 27  0B 3A B2 07 01 03 1C 09  '.9....'.:......
0170: 80 27 0B 3B B2 07 01 03  27 0B 3C B2 07 01 03 52  .'.;....'.<....R
0180: 04 80 F8 FF FF 7F F8 FF  FF 7F 73 30 30 32 45 04  ..........s002E.
0190: 80 F8 FF FF 7F F8 FF FF  7F 73 30 30 34 01 80 1C  .........s004...
01A0: 0A 80 5C 00 0B 80 5C 01  0B 80 4A 37 B2 07 01 38  ..\...\...J7...8
01B0: B2 07 01 1C 0C 80 2B 37  B2 07 01 0D 80 23 2A 0B  ......+7.....#*.
01C0: 38 B2 07 01 52 04 80 F8  FF FF 7F F8 FF FF 7F 73  8...R..........s
01D0: 30 30 34 45 00 80 F0 FF  FF 7F F0 FF FF 7F 6F 76  004E..........ov
01E0: 6C 31 01 80 45 04 80 F8  FF FF 7F F8 FF FF 7F 73  l1..E..........s
01F0: 30 30 33 01 80 27 0B 38  B2 07 01 04 27 0B 37 B2  003..'.8....'.7.
0200: 07 01 08 2B 37 B2 07 01  0E 80 23 4A F0 FF FF 7F  ...+7.....#J....
0210: 38 B2 07 01 6F 76 F0 FF  FF 7F 33 01 37 0F 80 10  8...ov....3.7...
0220: 80 11 80 12 80 33 01 92  01 F8 FF FF 7F 94 01 F8  .....3..........
0230: FF FF 7F A4 01 1C 13 80  52 04 80 F8 FF FF 7F F8  ........R.......
0240: FF FF 7F 73 30 30 33 5D  01 80 13 80 45 00 80 F0  ...s003]....E...
0250: FF FF 7F F0 FF FF 7F 62  6C 6F 6E 01 80 45 14 80  .......blon..E..
0260: F0 FF FF 7F F0 FF FF 7F  62 6C 6F 6E 01 80 45 04  ........blon..E.
0270: 80 F8 FF FF 7F F8 FF FF  7F 73 30 30 35 01 80 79  .........s005..y
0280: 00 F0 FF FF 7F 35 B2 07  01 1C 0A 80 45 00 80 F0  .....5......E...
0290: FF FF 7F F0 FF FF 7F 62  6C 6F 66 01 80 1C 0C 80  .......blof.....
02A0: 45 00 80 F0 FF FF 7F F0  FF FF 7F 66 64 6F 31 01  E..........fdo1.
02B0: 80 1C 02 80 5C 00 15 80  5C 01 15 80 2A 0B 38 B2  ....\...\...*.8.
02C0: 07 01 2A 0B 37 B2 07 01  4E 00 F0 FF FF 7F 80 F0  ..*.7...N.......
02D0: FF FF 7F 46 00 45 00 80  F0 FF FF 7F F0 FF FF 7F  ...F.E..........
02E0: 66 64 69 31 01 80 20 00  21 00                    fdi1.. .!.      
```

#### Opcodes

```
  0: 0x0001 [0x20] SET_CLI_EVENT_UC_FLAG: Lock player control
  1: 0x0003 [0x42] SET_CLI_EVENT_CANCEL_DATA()
  2: 0x0004 [0x46] CAMERA_CONTROL: Disable user control
  3: 0x0006 [0x45] LOAD_SCHEDULED_TASK: Load scheduler "fdo1" with entities [EventEntity, EventEntity], work=[200*, 0*]
  4: 0x0017 [0x1C] WAIT(60* ticks)
  5: 0x001A [0x38] SET_CLIENT_EVENT_MODE(mode=19*)
  6: 0x001D [0x29] REQ_SET_WAIT(priority=0x08, entity_id=LocalPlayer, tag_num=0x07)
  7: 0x0024 [0x29] REQ_SET_WAIT(priority=0x0B, entity_id=Ildy-Goldy (ID: 17281591/0x0107B237), tag_num=0x06)
  8: 0x002B [0x29] REQ_SET_WAIT(priority=0x0B, entity_id=LocalPlayer, tag_num=0x09)
  9: 0x0032 [0x29] REQ_SET_WAIT(priority=0x0B, entity_id=1 (ID: 17281592/0x0107B238), tag_num=0x02)
 10: 0x0039 [0x29] REQ_SET_WAIT(priority=0x0B, entity_id=2 (ID: 17281593/0x0107B239), tag_num=0x02)
 11: 0x0040 [0x29] REQ_SET_WAIT(priority=0x0B, entity_id=3 (ID: 17281594/0x0107B23A), tag_num=0x02)
 12: 0x0047 [0x29] REQ_SET_WAIT(priority=0x0B, entity_id=4 (ID: 17281595/0x0107B23B), tag_num=0x02)
 13: 0x004E [0x29] REQ_SET_WAIT(priority=0x0B, entity_id=5 (ID: 17281596/0x0107B23C), tag_num=0x02)
 14: 0x0055 [0x4E] SET_ENTITY_HIDE_FLAG: Show Ildy-Goldy (ID: 17281591/0x0107B237)
 15: 0x005B [0x4E] SET_ENTITY_HIDE_FLAG: Show 1 (ID: 17281592/0x0107B238)
 16: 0x0061 [0x4E] SET_ENTITY_HIDE_FLAG: Show 2 (ID: 17281593/0x0107B239)
 17: 0x0067 [0x4E] SET_ENTITY_HIDE_FLAG: Show 3 (ID: 17281594/0x0107B23A)
 18: 0x006D [0x4E] SET_ENTITY_HIDE_FLAG: Show 4 (ID: 17281595/0x0107B23B)
 19: 0x0073 [0x4E] SET_ENTITY_HIDE_FLAG: Show 5 (ID: 17281596/0x0107B23C)
 20: 0x0079 [0x80] LOAD_WAIT(entity=Ildy-Goldy (ID: 17281591/0x0107B237))
 21: 0x007E [0x80] LOAD_WAIT(entity=1 (ID: 17281592/0x0107B238))
 22: 0x0083 [0x80] LOAD_WAIT(entity=2 (ID: 17281593/0x0107B239))
 23: 0x0088 [0x80] LOAD_WAIT(entity=3 (ID: 17281594/0x0107B23A))
 24: 0x008D [0x80] LOAD_WAIT(entity=4 (ID: 17281595/0x0107B23B))
 25: 0x0092 [0x80] LOAD_WAIT(entity=5 (ID: 17281596/0x0107B23C))
 26: 0x0097 [0x4A] Ildy-Goldy (ID: 17281591/0x0107B237) looks at LocalPlayer
 27: 0x00A0 [0x6F] WAIT_FRAME_DELAY: Yield until WaitTime reaches zero
 28: 0x00A1 [0x76] CHECK_ENTITY_RENDER_FLAGS: Wait until Ildy-Goldy (ID: 17281591/0x0107B237) Render.Flags0 and Render.Flags3 conditions are met
 29: 0x00A6 [0x45] LOAD_SCHEDULED_TASK: Load scheduler "s000" with entities [EventEntity, EventEntity], work=[229*, 0*]
 30: 0x00B7 [0x45] LOAD_SCHEDULED_TASK: Load scheduler "fdi1" with entities [EventEntity, EventEntity], work=[200*, 0*]
 31: 0x00C8 [0x79] LocalPlayer looks at Ildy-Goldy (ID: 17281591/0x0107B237) (Basic look)
 32: 0x00D2 [0x27] REQ_SET(priority=0x0B, entity_id=LocalPlayer, tag_num=0x0A)
 33: 0x00D9 [0x27] REQ_SET(priority=0x08, entity_id=Ildy-Goldy (ID: 17281591/0x0107B237), tag_num=0x01)
 34: 0x00E0 [0x2B] Ildy-Goldy (ID: 17281591/0x0107B237) [7842*]:
    → "<Player>! Can you hear me!?"
 35: 0x00E7 [0x23] WAIT_FOR_DIALOG_INTERACTION
 36: 0x00E8 [0x2A] GET_REQ_LEVEL(level=8, entity_id=Ildy-Goldy (ID: 17281591/0x0107B237))
 37: 0x00EE [0x52] END_LOAD_SCHEDULER: End scheduler "s000" with entities [EventEntity, EventEntity], work=229*
 38: 0x00FD [0x45] LOAD_SCHEDULED_TASK: Load scheduler "s001" with entities [EventEntity, EventEntity], work=[229*, 0*]
 39: 0x010E [0x2B] Ildy-Goldy (ID: 17281591/0x0107B237) [7843*]:
    → "I vill throw a pebble into the vaterfall now. It vill be a short battle, I promise you!"
 40: 0x0115 [0x23] WAIT_FOR_DIALOG_INTERACTION
 41: 0x0116 [0x2A] GET_REQ_LEVEL(level=11, entity_id=LocalPlayer)
 42: 0x011C [0x27] REQ_SET(priority=0x0B, entity_id=Ildy-Goldy (ID: 17281591/0x0107B237), tag_num=0x07)
 43: 0x0123 [0x1C] WAIT(60* ticks)
 44: 0x0126 [0x52] END_LOAD_SCHEDULER: End scheduler "s001" with entities [EventEntity, EventEntity], work=229*
 45: 0x0135 [0x45] LOAD_SCHEDULED_TASK: Load scheduler "s002" with entities [EventEntity, EventEntity], work=[229*, 0*]
 46: 0x0146 [0x2A] GET_REQ_LEVEL(level=11, entity_id=Ildy-Goldy (ID: 17281591/0x0107B237))
 47: 0x014C [0x29] REQ_SET_WAIT(priority=0x08, entity_id=Ildy-Goldy (ID: 17281591/0x0107B237), tag_num=0x02)
 48: 0x0153 [0x1C] WAIT(170* ticks)
 49: 0x0156 [0x27] REQ_SET(priority=0x0B, entity_id=1 (ID: 17281592/0x0107B238), tag_num=0x03)
 50: 0x015D [0x1C] WAIT(15* ticks)
 51: 0x0160 [0x27] REQ_SET(priority=0x0B, entity_id=2 (ID: 17281593/0x0107B239), tag_num=0x03)
 52: 0x0167 [0x27] REQ_SET(priority=0x0B, entity_id=3 (ID: 17281594/0x0107B23A), tag_num=0x03)
 53: 0x016E [0x1C] WAIT(10* ticks)
 54: 0x0171 [0x27] REQ_SET(priority=0x0B, entity_id=4 (ID: 17281595/0x0107B23B), tag_num=0x03)
 55: 0x0178 [0x27] REQ_SET(priority=0x0B, entity_id=5 (ID: 17281596/0x0107B23C), tag_num=0x03)
 56: 0x017F [0x52] END_LOAD_SCHEDULER: End scheduler "s002" with entities [EventEntity, EventEntity], work=229*
 57: 0x018E [0x45] LOAD_SCHEDULED_TASK: Load scheduler "s004" with entities [EventEntity, EventEntity], work=[229*, 0*]
 58: 0x019F [0x1C] WAIT(30* ticks)
 59: 0x01A2 [0x5C] MUSIC_CONTROL: Set Idle (Day) music to song 192*
 60: 0x01A6 [0x5C] MUSIC_CONTROL: Set Idle (Night) music to song 192*
 61: 0x01AA [0x4A] Ildy-Goldy (ID: 17281591/0x0107B237) looks at 1 (ID: 17281592/0x0107B238)
 62: 0x01B3 [0x1C] WAIT(40* ticks)
 63: 0x01B6 [0x2B] Ildy-Goldy (ID: 17281591/0x0107B237) [7844*]:
    → "!?"
 64: 0x01BD [0x23] WAIT_FOR_DIALOG_INTERACTION
 65: 0x01BE [0x2A] GET_REQ_LEVEL(level=11, entity_id=1 (ID: 17281592/0x0107B238))
 66: 0x01C4 [0x52] END_LOAD_SCHEDULER: End scheduler "s004" with entities [EventEntity, EventEntity], work=229*
 67: 0x01D3 [0x45] LOAD_SCHEDULED_TASK: Load scheduler "ovl1" with entities [LocalPlayer, LocalPlayer], work=[200*, 0*]
 68: 0x01E4 [0x45] LOAD_SCHEDULED_TASK: Load scheduler "s003" with entities [EventEntity, EventEntity], work=[229*, 0*]
 69: 0x01F5 [0x27] REQ_SET(priority=0x0B, entity_id=1 (ID: 17281592/0x0107B238), tag_num=0x04)
 70: 0x01FC [0x27] REQ_SET(priority=0x0B, entity_id=Ildy-Goldy (ID: 17281591/0x0107B237), tag_num=0x08)
 71: 0x0203 [0x2B] Ildy-Goldy (ID: 17281591/0x0107B237) [7845*]:
    → "Vait! This vasn't supposed to happen!"
 72: 0x020A [0x23] WAIT_FOR_DIALOG_INTERACTION
 73: 0x020B [0x4A] LocalPlayer looks at 1 (ID: 17281592/0x0107B238)
 74: 0x0214 [0x6F] WAIT_FRAME_DELAY: Yield until WaitTime reaches zero
 75: 0x0215 [0x76] CHECK_ENTITY_RENDER_FLAGS: Wait until LocalPlayer Render.Flags0 and Render.Flags3 conditions are met
 76: 0x021A [0x33] EventEntity->Render.Flags0 |= 0x200000 // Bit 21 (flag=0x01)
 77: 0x021C [0x37] UPDATE_EVENT_POSITION_AND_DIR: x=363.650*, z=220.428*, y=-7.586*, direction=282.6°*
 78: 0x0225 [0x33] EventEntity->Render.Flags0 |= 0x200000 // Bit 21 (flag=0x01)
 79: 0x0227 [0x92] EventEntity->Render.Flags3 ^= 0x01
 80: 0x022D [0x94] EventEntity->Render.Flags3 ^= 0x01
 81: 0x0233 [0xA4] EventEntity->Flags3.unknown_3_2 = 1
 82: 0x0235 [0x1C] WAIT(120* ticks)
 83: 0x0238 [0x52] END_LOAD_SCHEDULER: End scheduler "s003" with entities [EventEntity, EventEntity], work=229*
 84: 0x0247 [0x5D] SET_MUSIC_VOLUME(volume=0*, fade_time=120*)
 85: 0x024C [0x45] LOAD_SCHEDULED_TASK: Load scheduler "blon" with entities [LocalPlayer, LocalPlayer], work=[200*, 0*]
 86: 0x025D [0x45] LOAD_SCHEDULED_TASK: Load scheduler "blon" with entities [LocalPlayer, LocalPlayer], work=[201*, 0*]
 87: 0x026E [0x45] LOAD_SCHEDULED_TASK: Load scheduler "s005" with entities [EventEntity, EventEntity], work=[229*, 0*]
 88: 0x027F [0x79] LocalPlayer looks at ??? (ID: 17281589/0x0107B235) (Basic look)
 89: 0x0289 [0x1C] WAIT(30* ticks)
 90: 0x028C [0x45] LOAD_SCHEDULED_TASK: Load scheduler "blof" with entities [LocalPlayer, LocalPlayer], work=[200*, 0*]
 91: 0x029D [0x1C] WAIT(40* ticks)
 92: 0x02A0 [0x45] LOAD_SCHEDULED_TASK: Load scheduler "fdo1" with entities [LocalPlayer, LocalPlayer], work=[200*, 0*]
 93: 0x02B1 [0x1C] WAIT(60* ticks)
 94: 0x02B4 [0x5C] MUSIC_CONTROL: Set Idle (Day) music to song 134*
 95: 0x02B8 [0x5C] MUSIC_CONTROL: Set Idle (Night) music to song 134*
 96: 0x02BC [0x2A] GET_REQ_LEVEL(level=11, entity_id=1 (ID: 17281592/0x0107B238))
 97: 0x02C2 [0x2A] GET_REQ_LEVEL(level=11, entity_id=Ildy-Goldy (ID: 17281591/0x0107B237))
 98: 0x02C8 [0x4E] SET_ENTITY_HIDE_FLAG: Show LocalPlayer
 99: 0x02CE [0x80] LOAD_WAIT(entity=LocalPlayer)
100: 0x02D3 [0x46] CAMERA_CONTROL: Restore default settings
101: 0x02D5 [0x45] LOAD_SCHEDULED_TASK: Load scheduler "fdi1" with entities [LocalPlayer, LocalPlayer], work=[200*, 0*]
102: 0x02E6 [0x20] SET_CLI_EVENT_UC_FLAG: Unlock player control
103: 0x02E8 [0x21] END_EVENT
104: 0x02E9 [0x00] END_REQSTACK()
```

### Event 29

#### Metadata

| Field        | Value     |
|--------------|-----------|
| Entrypoint   | 0x02EA    |
| Data Size    | 507 bytes |
| Instructions | 64        |

```
      00 01 02 03 04 05 06 07  08 09 0A 0B 0C 0D 0E 0F
      -- -- -- -- -- -- -- --  -- -- -- -- -- -- -- --
02E0:                                20 01 42 46 01 45             .BF.E
02F0: 00 80 F8 FF FF 7F F8 FF  FF 7F 66 64 6F 31 01 80  ..........fdo1..
0300: 1C 02 80 38 03 80 29 08  F0 FF FF 7F 07 29 0B 37  ...8..)......).7
0310: B2 07 01 0A 29 0B F0 FF  FF 7F 0B 4E 00 37 B2 07  ....)......N.7..
0320: 01 80 37 B2 07 01 4A F0  FF FF 7F 37 B2 07 01 6F  ..7...J....7...o
0330: 76 F0 FF FF 7F 27 0B 37  B2 07 01 0B 45 04 80 F8  v....'.7....E...
0340: FF FF 7F F8 FF FF 7F 73  30 30 36 01 80 45 00 80  .......s006..E..
0350: F8 FF FF 7F F8 FF FF 7F  66 64 69 31 01 80 1C 00  ........fdi1....
0360: 80 52 04 80 F8 FF FF 7F  F8 FF FF 7F 73 30 30 36  .R..........s006
0370: 45 00 80 F0 FF FF 7F F0  FF FF 7F 6F 76 6C 31 01  E..........ovl1.
0380: 80 45 04 80 F8 FF FF 7F  F8 FF FF 7F 73 30 30 37  .E..........s007
0390: 01 80 2A 0B 37 B2 07 01  2B 37 B2 07 01 16 80 23  ..*.7...+7.....#
03A0: 52 04 80 F8 FF FF 7F F8  FF FF 7F 73 30 30 37 45  R..........s007E
03B0: 04 80 F8 FF FF 7F F8 FF  FF 7F 73 30 30 38 01 80  ..........s008..
03C0: 29 08 37 B2 07 01 03 2B  37 B2 07 01 17 80 23 29  ).7....+7.....#)
03D0: 08 37 B2 07 01 04 2B 37  B2 07 01 18 80 23 52 04  .7....+7.....#R.
03E0: 80 F8 FF FF 7F F8 FF FF  7F 73 30 30 38 02 09 10  .........s008...
03F0: 19 80 00 09 04 45 04 80  F8 FF FF 7F F8 FF FF 7F  .....E..........
0400: 73 30 31 31 01 80 01 36  04 02 09 10 1A 80 00 25  s011...6.......%
0410: 04 45 04 80 F8 FF FF 7F  F8 FF FF 7F 73 30 31 31  .E..........s011
0420: 01 80 01 36 04 45 04 80  F8 FF FF 7F F8 FF FF 7F  ...6.E..........
0430: 73 30 30 39 01 80 27 0B  37 B2 07 01 0C 2B 37 B2  s009..'.7....+7.
0440: 07 01 1B 80 23 2A 0B 37  B2 07 01 02 09 10 19 80  ....#*.7........
0450: 00 65 04 52 04 80 F8 FF  FF 7F F8 FF FF 7F 73 30  .e.R..........s0
0460: 31 31 01 8E 04 02 09 10  1A 80 00 7F 04 52 04 80  11...........R..
0470: F8 FF FF 7F F8 FF FF 7F  73 30 31 31 01 8E 04 52  ........s011...R
0480: 04 80 F8 FF FF 7F F8 FF  FF 7F 73 30 30 39 45 04  ..........s009E.
0490: 80 F8 FF FF 7F F8 FF FF  7F 73 30 31 30 01 80 27  .........s010..'
04A0: 0B 37 B2 07 01 0D 1C 13  80 45 00 80 F0 FF FF 7F  .7.......E......
04B0: F0 FF FF 7F 66 64 6F 31  01 80 1C 02 80 2A 0B 37  ....fdo1.....*.7
04C0: B2 07 01 4E 00 F0 FF FF  7F 80 F0 FF FF 7F 46 00  ...N..........F.
04D0: 45 00 80 F0 FF FF 7F F0  FF FF 7F 66 64 69 31 01  E..........fdi1.
04E0: 80 20 00 21 00                                    . .!.           
```

#### Opcodes

```
  0: 0x02EA [0x20] SET_CLI_EVENT_UC_FLAG: Lock player control
  1: 0x02EC [0x42] SET_CLI_EVENT_CANCEL_DATA()
  2: 0x02ED [0x46] CAMERA_CONTROL: Disable user control
  3: 0x02EF [0x45] LOAD_SCHEDULED_TASK: Load scheduler "fdo1" with entities [EventEntity, EventEntity], work=[200*, 0*]
  4: 0x0300 [0x1C] WAIT(60* ticks)
  5: 0x0303 [0x38] SET_CLIENT_EVENT_MODE(mode=19*)
  6: 0x0306 [0x29] REQ_SET_WAIT(priority=0x08, entity_id=LocalPlayer, tag_num=0x07)
  7: 0x030D [0x29] REQ_SET_WAIT(priority=0x0B, entity_id=Ildy-Goldy (ID: 17281591/0x0107B237), tag_num=0x0A)
  8: 0x0314 [0x29] REQ_SET_WAIT(priority=0x0B, entity_id=LocalPlayer, tag_num=0x0B)
  9: 0x031B [0x4E] SET_ENTITY_HIDE_FLAG: Show Ildy-Goldy (ID: 17281591/0x0107B237)
 10: 0x0321 [0x80] LOAD_WAIT(entity=Ildy-Goldy (ID: 17281591/0x0107B237))
 11: 0x0326 [0x4A] LocalPlayer looks at Ildy-Goldy (ID: 17281591/0x0107B237)
 12: 0x032F [0x6F] WAIT_FRAME_DELAY: Yield until WaitTime reaches zero
 13: 0x0330 [0x76] CHECK_ENTITY_RENDER_FLAGS: Wait until LocalPlayer Render.Flags0 and Render.Flags3 conditions are met
 14: 0x0335 [0x27] REQ_SET(priority=0x0B, entity_id=Ildy-Goldy (ID: 17281591/0x0107B237), tag_num=0x0B)
 15: 0x033C [0x45] LOAD_SCHEDULED_TASK: Load scheduler "s006" with entities [EventEntity, EventEntity], work=[229*, 0*]
 16: 0x034D [0x45] LOAD_SCHEDULED_TASK: Load scheduler "fdi1" with entities [EventEntity, EventEntity], work=[200*, 0*]
 17: 0x035E [0x1C] WAIT(200* ticks)
 18: 0x0361 [0x52] END_LOAD_SCHEDULER: End scheduler "s006" with entities [EventEntity, EventEntity], work=229*
 19: 0x0370 [0x45] LOAD_SCHEDULED_TASK: Load scheduler "ovl1" with entities [LocalPlayer, LocalPlayer], work=[200*, 0*]
 20: 0x0381 [0x45] LOAD_SCHEDULED_TASK: Load scheduler "s007" with entities [EventEntity, EventEntity], work=[229*, 0*]
 21: 0x0392 [0x2A] GET_REQ_LEVEL(level=11, entity_id=Ildy-Goldy (ID: 17281591/0x0107B237))
 22: 0x0398 [0x2B] Ildy-Goldy (ID: 17281591/0x0107B237) [7846*]:
    → "I apologize, it vas a long path to the top."
 23: 0x039F [0x23] WAIT_FOR_DIALOG_INTERACTION
 24: 0x03A0 [0x52] END_LOAD_SCHEDULER: End scheduler "s007" with entities [EventEntity, EventEntity], work=229*
 25: 0x03AF [0x45] LOAD_SCHEDULED_TASK: Load scheduler "s008" with entities [EventEntity, EventEntity], work=[229*, 0*]
 26: 0x03C0 [0x29] REQ_SET_WAIT(priority=0x08, entity_id=Ildy-Goldy (ID: 17281591/0x0107B237), tag_num=0x03)
 27: 0x03C7 [0x2B] Ildy-Goldy (ID: 17281591/0x0107B237) [7847*]:
    → "But you seem to have things under control. Did you defeat the beasty-veasts yourself?"
 28: 0x03CE [0x23] WAIT_FOR_DIALOG_INTERACTION
 29: 0x03CF [0x29] REQ_SET_WAIT(priority=0x08, entity_id=Ildy-Goldy (ID: 17281591/0x0107B237), tag_num=0x04)
 30: 0x03D6 [0x2B] Ildy-Goldy (ID: 17281591/0x0107B237) [7848*]:
    → "Phew. Vhat an exciting day, hey? I'm glad you know your vay around a battle."
 31: 0x03DD [0x23] WAIT_FOR_DIALOG_INTERACTION
 32: 0x03DE [0x52] END_LOAD_SCHEDULER: End scheduler "s008" with entities [EventEntity, EventEntity], work=229*
 33: 0x03ED [0x02] IF !(Work_Zone[9] == 5*) GOTO 0x0409
 34: 0x03F5 [0x45] LOAD_SCHEDULED_TASK: Load scheduler "s011" with entities [EventEntity, EventEntity], work=[229*, 0*]
 35: 0x0406 [0x01] GOTO 0x0436
 36: 0x0409 [0x02] IF !(Work_Zone[9] == 6*) GOTO 0x0425
 37: 0x0411 [0x45] LOAD_SCHEDULED_TASK: Load scheduler "s011" with entities [EventEntity, EventEntity], work=[229*, 0*]
 38: 0x0422 [0x01] GOTO 0x0436
 39: 0x0425 [0x45] LOAD_SCHEDULED_TASK: Load scheduler "s009" with entities [EventEntity, EventEntity], work=[229*, 0*]

SUBROUTINE_0436:
 40: 0x0436 [0x27] REQ_SET(priority=0x0B, entity_id=Ildy-Goldy (ID: 17281591/0x0107B237), tag_num=0x0C)
 41: 0x043D [0x2B] Ildy-Goldy (ID: 17281591/0x0107B237) [7849*]:
    → "Now, ve return to the home of Romaa Mihgo! I have a vord or two for that vily feline!"
 42: 0x0444 [0x23] WAIT_FOR_DIALOG_INTERACTION
 43: 0x0445 [0x2A] GET_REQ_LEVEL(level=11, entity_id=Ildy-Goldy (ID: 17281591/0x0107B237))
 44: 0x044B [0x02] IF !(Work_Zone[9] == 5*) GOTO 0x0465
 45: 0x0453 [0x52] END_LOAD_SCHEDULER: End scheduler "s011" with entities [EventEntity, EventEntity], work=229*
 46: 0x0462 [0x01] GOTO 0x048E
 47: 0x0465 [0x02] IF !(Work_Zone[9] == 6*) GOTO 0x047F
 48: 0x046D [0x52] END_LOAD_SCHEDULER: End scheduler "s011" with entities [EventEntity, EventEntity], work=229*
 49: 0x047C [0x01] GOTO 0x048E
 50: 0x047F [0x52] END_LOAD_SCHEDULER: End scheduler "s009" with entities [EventEntity, EventEntity], work=229*

SUBROUTINE_048E:
 51: 0x048E [0x45] LOAD_SCHEDULED_TASK: Load scheduler "s010" with entities [EventEntity, EventEntity], work=[229*, 0*]
 52: 0x049F [0x27] REQ_SET(priority=0x0B, entity_id=Ildy-Goldy (ID: 17281591/0x0107B237), tag_num=0x0D)
 53: 0x04A6 [0x1C] WAIT(120* ticks)
 54: 0x04A9 [0x45] LOAD_SCHEDULED_TASK: Load scheduler "fdo1" with entities [LocalPlayer, LocalPlayer], work=[200*, 0*]
 55: 0x04BA [0x1C] WAIT(60* ticks)
 56: 0x04BD [0x2A] GET_REQ_LEVEL(level=11, entity_id=Ildy-Goldy (ID: 17281591/0x0107B237))
 57: 0x04C3 [0x4E] SET_ENTITY_HIDE_FLAG: Show LocalPlayer
 58: 0x04C9 [0x80] LOAD_WAIT(entity=LocalPlayer)
 59: 0x04CE [0x46] CAMERA_CONTROL: Restore default settings
 60: 0x04D0 [0x45] LOAD_SCHEDULED_TASK: Load scheduler "fdi1" with entities [LocalPlayer, LocalPlayer], work=[200*, 0*]
 61: 0x04E1 [0x20] SET_CLI_EVENT_UC_FLAG: Unlock player control
 62: 0x04E3 [0x21] END_EVENT
 63: 0x04E4 [0x00] END_REQSTACK()
```
