# 17281628 - OpoopoC

## Common Data

| Field            | Value                     |
|------------------|---------------------------|
| Zone             | Yuhtunga Jungle (ID: 123) |
| Block Size       | 160 bytes                 |
| Total Events     | 3                         |
| References Count | 16                        |

## List of Events

| Event ID                 | Entrypoint   |   Size |   Instructions |
|--------------------------|--------------|--------|----------------|
| [65535](#event-65535)    | 0x0000       |      1 |              1 |
| [202](#event-202)        | 0x0001       |     33 |              6 |
| [65535.1](#event-655351) | 0x0022       |     34 |              8 |

## DAT References (imed_data)

|   Index | Hex Value   |   Dec Value |
|---------|-------------|-------------|
|       0 | 0x0000      |           0 |
|       1 | 0x0001      |           1 |
|       2 | 0x7790B     |      489739 |
|       3 | 0x48FE8     |      298984 |
|       4 | 0x50D7      |       20695 |
|       5 | 0x0DD3      |        3539 |
|       6 | 0x0025      |          37 |
|       7 | 0x769B5     |      485813 |
|       8 | 0x48C02     |      297986 |
|       9 | 0x4FE4      |       20452 |
|      10 | 0x75B14     |      482068 |
|      11 | 0x48EE1     |      298721 |
|      12 | 0x4F4C      |       20300 |
|      13 | 0x742B9     |      475833 |
|      14 | 0x49359     |      299865 |
|      15 | 0x4FAE      |       20398 |

## Events

### Event 65535

#### Metadata

| Field        | Value   |
|--------------|---------|
| Entrypoint   | 0x0000  |
| Data Size    | 1 bytes |
| Instructions | 1       |

```
      00 01 02 03 04 05 06 07  08 09 0A 0B 0C 0D 0E 0F
      -- -- -- -- -- -- -- --  -- -- -- -- -- -- -- --
0000: 00                                                .               
```

#### Opcodes

```
  0: 0x0000 [0x00] END_REQSTACK()
```

### Event 202

#### Metadata

| Field        | Value    |
|--------------|----------|
| Entrypoint   | 0x0001   |
| Data Size    | 33 bytes |
| Instructions | 6        |

```
      00 01 02 03 04 05 06 07  08 09 0A 0B 0C 0D 0E 0F
      -- -- -- -- -- -- -- --  -- -- -- -- -- -- -- --
0000:    92 01 5C B2 07 01 22  00 2F 00 F8 FF FF 7F 6C   ..\..."./.....l
0010: F8 FF FF 7F 00 80 01 80  37 02 80 03 80 04 80 05  ........7.......
0020: 80 00                                             ..              
```

#### Opcodes

```
  0: 0x0001 [0x92] OpoopoC (ID: 17281628/0x0107B25C)->Render.Flags3 ^= 0x01
  1: 0x0007 [0x22] ENTITY_HIDE_FLAG(enabled=0x00)
  2: 0x0009 [0x2F] EventEntity->Render.Flags0 &= ~0x80000 // Bit 19
  3: 0x000F [0x6C] FADE_ENTITY_COLOR(entity_id=EventEntity, end_alpha=0*, fade_time=1*)
  4: 0x0018 [0x37] UPDATE_EVENT_POSITION_AND_DIR: x=489.739*, z=298.984*, y=20.695*, direction=311.0°*
  5: 0x0021 [0x00] END_REQSTACK()
```

### Event 65535.1

#### Metadata

| Field        | Value    |
|--------------|----------|
| Entrypoint   | 0x0022   |
| Data Size    | 34 bytes |
| Instructions | 8        |

```
      00 01 02 03 04 05 06 07  08 09 0A 0B 0C 0D 0E 0F
      -- -- -- -- -- -- -- --  -- -- -- -- -- -- -- --
0020:       32 06 80 1F 00 07  80 08 80 09 80 1F 01 1F    2.............
0030: 00 0A 80 0B 80 0C 80 1F  01 1F 00 0D 80 0E 80 0F  ................
0040: 80 1F 01 00                                       ....            
```

#### Opcodes

```
  0: 0x0022 [0x32] ExtData[1]->MainSpeed = 37* * 0.1
  1: 0x0025 [0x1F] MOVE_ENTITY: EventEntity moves to X=485.813*, Z=297.986*, Y=20.452*
  2: 0x002D [0x1F] MOVE_ENTITY: Update entity position (mode=1)
  3: 0x002F [0x1F] MOVE_ENTITY: EventEntity moves to X=482.068*, Z=298.721*, Y=20.300*
  4: 0x0037 [0x1F] MOVE_ENTITY: Update entity position (mode=1)
  5: 0x0039 [0x1F] MOVE_ENTITY: EventEntity moves to X=475.833*, Z=299.865*, Y=20.398*
  6: 0x0041 [0x1F] MOVE_ENTITY: Update entity position (mode=1)
  7: 0x0043 [0x00] END_REQSTACK()
```
