# Event 65535

## Metadata

| Field           | Value    |
|-----------------|----------|
| Event Index     | 6/19     |
| Offset          | 0x0058   |
| Data Size       | 61 bytes |
| Calculated Size | 61 bytes |
| Instructions    | 10       |

```
      00 01 02 03 04 05 06 07  08 09 0A 0B 0C 0D 0E 0F
      -- -- -- -- -- -- -- --  -- -- -- -- -- -- -- --
0050:                          02 04 10 05 80 80 6C 00          ......l.
0060: 37 06 80 07 80 08 80 09  80 01 94 00 02 04 10 0A  7...............
0070: 80 80 80 00 37 0B 80 0C  80 0D 80 0E 80 01 94 00  ....7...........
0080: 02 04 10 0F 80 80 94 00  37 10 80 11 80 12 80 13  ........7.......
0090: 80 01 94 00 00                                    .....           
```

## Opcodes

```
  0: 0x0058 [0x02] IF !(Work_Zone[4] == 1*) GOTO 0x006C
  1: 0x0060 [0x37] UPDATE_EVENT_POSITION_AND_DIR: x=33.708*, z=-39.425*, y=7.499*, direction=126.6°*
  2: 0x0069 [0x01] GOTO 0x0094
  3: 0x006C [0x02] IF !(Work_Zone[4] == 4*) GOTO 0x0080
  4: 0x0074 [0x37] UPDATE_EVENT_POSITION_AND_DIR: x=-188.658*, z=109.275*, y=0.000*, direction=48.1°*
  5: 0x007D [0x01] GOTO 0x0094
  6: 0x0080 [0x02] IF !(Work_Zone[4] == 5*) GOTO 0x0094
  7: 0x0088 [0x37] UPDATE_EVENT_POSITION_AND_DIR: x=31.712*, z=54.981*, y=-15.554*, direction=291.0°*
  8: 0x0091 [0x01] GOTO 0x0094

SUBROUTINE_0094:
  9: 0x0094 [0x00] END_REQSTACK()
```
