# Event 36

## Metadata

| Field           | Value    |
|-----------------|----------|
| Event Index     | 54/59    |
| Offset          | 0x0C32   |
| Data Size       | 49 bytes |
| Calculated Size | 49 bytes |
| Instructions    | 12       |

```
      00 01 02 03 04 05 06 07  08 09 0A 0B 0C 0D 0E 0F
      -- -- -- -- -- -- -- --  -- -- -- -- -- -- -- --
0C30:       1E F0 FF FF 7F 6F  70 66 00 80 F8 FF FF 7F    .....opf......
0C40: F8 FF FF 7F 74 6C 6B 30  1D 6A 80 23 1D 6B 80 23  ....tlk0.j.#.k.#
0C50: 66 00 80 F8 FF FF 7F F8  FF FF 7F 74 6C 6B 31 20  f..........tlk1 
0C60: 00 21 00                                          .!.             
```

## Opcodes

```
  0: 0x0C32 [0x1E] EventEntity looks at LocalPlayer and starts talking
  1: 0x0C37 [0x6F] WAIT_FRAME_DELAY: Yield until WaitTime reaches zero
  2: 0x0C38 [0x70] WAIT_ENTITY_RENDER_FLAG: Wait while EventEntity->Render.Flags3 bit 2 is set (cancel turn if not)
  3: 0x0C39 [0x66] LOAD_EXT_SCHEDULER_MAIN(work_offset=55*, entity1=EventEntity, entity2=EventEntity, action="tlk0")
  4: 0x0C48 [0x1D] PRINT_EVENT_MESSAGE(message_id=10589*)
    → "Other members of the orderrr have told me that even though the great Lhaiso herself went to help Hostenn, he was unable to be saved.\u007F1\u0000\u0007"
  5: 0x0C4B [0x23] WAIT_FOR_DIALOG_INTERACTION
  6: 0x0C4C [0x1D] PRINT_EVENT_MESSAGE(message_id=10590*)
    → "Despite being of the Zacariah lineage, he was a geomancer of the highest caliberrr. He shall be missed.\u007F1\u0000\u0007"
  7: 0x0C4F [0x23] WAIT_FOR_DIALOG_INTERACTION
  8: 0x0C50 [0x66] LOAD_EXT_SCHEDULER_MAIN(work_offset=55*, entity1=EventEntity, entity2=EventEntity, action="tlk1")
  9: 0x0C5F [0x20] SET_CLI_EVENT_UC_FLAG: Unlock player control
 10: 0x0C61 [0x21] END_EVENT
 11: 0x0C62 [0x00] END_REQSTACK()
```
