# Event 38

## Metadata

| Field           | Value    |
|-----------------|----------|
| Event Index     | 56/59    |
| Offset          | 0x0C64   |
| Data Size       | 45 bytes |
| Calculated Size | 45 bytes |
| Instructions    | 10       |

```
      00 01 02 03 04 05 06 07  08 09 0A 0B 0C 0D 0E 0F
      -- -- -- -- -- -- -- --  -- -- -- -- -- -- -- --
0C60:             1E F0 FF FF  7F 6F 70 66 00 80 F8 FF      .....opf....
0C70: FF 7F F8 FF FF 7F 74 6C  6B 30 1D 6C 80 23 66 00  ......tlk0.l.#f.
0C80: 80 F8 FF FF 7F F8 FF FF  7F 74 6C 6B 31 20 00 21  .........tlk1 .!
0C90: 00                                                .               
```

## Opcodes

```
  0: 0x0C64 [0x1E] EventEntity looks at LocalPlayer and starts talking
  1: 0x0C69 [0x6F] WAIT_FRAME_DELAY: Yield until WaitTime reaches zero
  2: 0x0C6A [0x70] WAIT_ENTITY_RENDER_FLAG: Wait while EventEntity->Render.Flags3 bit 2 is set (cancel turn if not)
  3: 0x0C6B [0x66] LOAD_EXT_SCHEDULER_MAIN: Load scheduler "tlk0" with entities [EventEntity, EventEntity], work=55*
  4: 0x0C7A [0x1D] PRINT_EVENT_MESSAGE(message_id=10614*)
    → "The great Lhaiso's condition grows increasingly grrrave by the day. I cannot help but harbor a dark sense of foreboding.\u007F1\u0000\u0007"
  5: 0x0C7D [0x23] WAIT_FOR_DIALOG_INTERACTION
  6: 0x0C7E [0x66] LOAD_EXT_SCHEDULER_MAIN: Load scheduler "tlk1" with entities [EventEntity, EventEntity], work=55*
  7: 0x0C8D [0x20] SET_CLI_EVENT_UC_FLAG: Unlock player control
  8: 0x0C8F [0x21] END_EVENT
  9: 0x0C90 [0x00] END_REQSTACK()
```
