# Event 45

## Metadata

| Field           | Value    |
|-----------------|----------|
| Event Index     | 50/59    |
| Offset          | 0x0BBE   |
| Data Size       | 48 bytes |
| Calculated Size | 48 bytes |
| Instructions    | 12       |

```
      00 01 02 03 04 05 06 07  08 09 0A 0B 0C 0D 0E 0F
      -- -- -- -- -- -- -- --  -- -- -- -- -- -- -- --
0BB0:                                            42 1E                B.
0BC0: F0 FF FF 7F 6F 70 66 00  80 F8 FF FF 7F F8 FF FF  ....opf.........
0BD0: 7F 74 6C 6B 30 1D 62 80  23 1D 63 80 23 66 00 80  .tlk0.b.#.c.#f..
0BE0: F8 FF FF 7F F8 FF FF 7F  74 6C 6B 31 21 00        ........tlk1!.  
```

## Opcodes

```
  0: 0x0BBE [0x42] SET_CLI_EVENT_CANCEL_DATA()
  1: 0x0BBF [0x1E] EventEntity looks at LocalPlayer and starts talking
  2: 0x0BC4 [0x6F] WAIT_FRAME_DELAY: Yield until WaitTime reaches zero
  3: 0x0BC5 [0x70] WAIT_ENTITY_RENDER_FLAG: Wait while EventEntity->Render.Flags3 bit 2 is set (cancel turn if not)
  4: 0x0BC6 [0x66] LOAD_EXT_SCHEDULER_MAIN: Load scheduler "tlk0" with entities [EventEntity, EventEntity], work=55*
  5: 0x0BD5 [0x1D] PRINT_EVENT_MESSAGE(message_id=8119*)
    → "Worrrking for the library, are you? Well, let me see what you've got for me.\u007F1\u0000\u0007"
  6: 0x0BD8 [0x23] WAIT_FOR_DIALOG_INTERACTION
  7: 0x0BD9 [0x1D] PRINT_EVENT_MESSAGE(message_id=8120*)
    → "...There's something new about Ikhi Askamot that's not listed in the file. Herrre, let me add it for you.\u0007Enjoy.\u007F1\u0000\u0007"
  8: 0x0BDC [0x23] WAIT_FOR_DIALOG_INTERACTION
  9: 0x0BDD [0x66] LOAD_EXT_SCHEDULER_MAIN: Load scheduler "tlk1" with entities [EventEntity, EventEntity], work=55*
 10: 0x0BEC [0x21] END_EVENT
 11: 0x0BED [0x00] END_REQSTACK()
```
