# Event 65535

## Metadata

| Field           | Value    |
|-----------------|----------|
| Event Index     | 35/45    |
| Offset          | 0x026B   |
| Data Size       | 62 bytes |
| Calculated Size | 62 bytes |
| Instructions    | 7        |

```
      00 01 02 03 04 05 06 07  08 09 0A 0B 0C 0D 0E 0F
      -- -- -- -- -- -- -- --  -- -- -- -- -- -- -- --
0260:                                   81 00 F8 FF FF             .....
0270: 7F 5B 30 80 F8 FF FF 7F  F8 FF FF 7F 69 6E 6F 30  .[0.........ino0
0280: 1C 31 80 45 32 80 95 00  02 01 95 00 02 01 73 65  .1.E2.........se
0290: 30 31 15 80 1C 33 80 45  32 80 95 00 02 01 95 00  01...3.E2.......
02A0: 02 01 73 65 30 32 15 80  00                       ..se02...       
```

## Opcodes

```
  0: 0x026B [0x81] SET_ENTITY_BLINKING(blink_flag=0x00, entity=EventEntity)
  1: 0x0271 [0x5B] LOAD_EXT_SCHEDULER: Load scheduler "ino0" with entities [EventEntity, EventEntity], work=635*
  2: 0x0280 [0x1C] WAIT(5* ticks)
  3: 0x0283 [0x45] LOAD_SCHEDULED_TASK: Load scheduler "se01" with entities [Shikaree Z (ID: 16908437/0x01020095), Shikaree Z (ID: 16908437/0x01020095)], work=[166*, 0*]
  4: 0x0294 [0x1C] WAIT(60* ticks)
  5: 0x0297 [0x45] LOAD_SCHEDULED_TASK: Load scheduler "se02" with entities [Shikaree Z (ID: 16908437/0x01020095), Shikaree Z (ID: 16908437/0x01020095)], work=[166*, 0*]
  6: 0x02A8 [0x00] END_REQSTACK()
```
