# Event 65535

## Metadata

| Field           | Value    |
|-----------------|----------|
| Event Index     | 9/45     |
| Offset          | 0x0087   |
| Data Size       | 72 bytes |
| Calculated Size | 72 bytes |
| Instructions    | 11       |

```
      00 01 02 03 04 05 06 07  08 09 0A 0B 0C 0D 0E 0F
      -- -- -- -- -- -- -- --  -- -- -- -- -- -- -- --
0080:                      33  01 79 00 F8 FF FF 7F 8E         3.y......
0090: 00 02 01 5B 07 80 F8 FF  FF 7F F8 FF FF 7F 74 6C  ...[..........tl
00A0: 61 30 02 24 10 17 80 01  CE 00 3B 9F 00 02 01 00  a0.$......;.....
00B0: 00 01 00 02 00 07 00 00  18 80 07 01 00 19 80 37  ...............7
00C0: 00 00 01 00 14 80 1A 80  1C 17 80 01 A2 00 00     ............... 
```

## Opcodes

```
  0: 0x0087 [0x33] EventEntity->Render.Flags0 |= 0x200000 // Bit 21 (flag=0x01)
  1: 0x0089 [0x79] EventEntity looks at Prishe (ID: 16908430/0x0102008E) (Basic look)
  2: 0x0093 [0x5B] LOAD_EXT_SCHEDULER: Load scheduler "tla0" with entities [EventEntity, EventEntity], work=420*
  3: 0x00A2 [0x02] IF !(Work_Zone[36] == 1*) GOTO 0x00CE
  4: 0x00AA [0x3B] GET_ENTITY_POSITION(entity=ship (ID: 16908447/0x0102009F), x_destination=ExtData[1]->WorkLocal[0], y_destination=ExtData[1]->WorkLocal[1], z_destination=ExtData[1]->WorkLocal[2])
  5: 0x00B5 [0x07] ExtData[1]->WorkLocal[0] += 8590*
  6: 0x00BA [0x07] ExtData[1]->WorkLocal[1] += 4294964828*
  7: 0x00BF [0x37] UPDATE_EVENT_POSITION_AND_DIR: x=ExtData[1]->WorkLocal[0], z=ExtData[1]->WorkLocal[1], y=-231.000*, direction=377476174.2°*
  8: 0x00C8 [0x1C] WAIT(1* ticks)
  9: 0x00CB [0x01] GOTO 0x00A2
 10: 0x00CE [0x00] END_REQSTACK()
```
