# Event 65535

## Metadata

| Field           | Value    |
|-----------------|----------|
| Event Index     | 5/5      |
| Offset          | 0x0039   |
| Data Size       | 95 bytes |
| Calculated Size | 95 bytes |
| Instructions    | 10       |

```
      00 01 02 03 04 05 06 07  08 09 0A 0B 0C 0D 0E 0F
      -- -- -- -- -- -- -- --  -- -- -- -- -- -- -- --
0030:                             5B 06 80 F8 FF FF 7F           [......
0040: F8 FF FF 7F 73 63 6B 30  1C 08 80 45 09 80 F0 FF  ....sck0...E....
0050: FF 7F F0 FF FF 7F 7A 30  31 30 0A 80 1C 08 80 45  ......z010.....E
0060: 0B 80 F0 FF FF 7F F0 FF  FF 7F 68 69 64 65 0A 80  ..........hide..
0070: 6C F8 FF FF 7F 0A 80 07  80 53 F8 FF FF 7F F8 FF  l........S......
0080: FF 7F 73 63 6B 30 55 09  80 F0 FF FF 7F F0 FF FF  ..sck0U.........
0090: 7F 7A 30 31 30 22 01 00                           .z010"..        
```

## Opcodes

```
  0: 0x0039 [0x5B] LOAD_EXT_SCHEDULER(work_offset=12*, entity1=EventEntity, entity2=EventEntity, action="sck0")
  1: 0x0048 [0x1C] WAIT(30* ticks)
  2: 0x004B [0x45] LOAD_SCHEDULED_TASK(work_offset1=209*, entity1=LocalPlayer, entity2=LocalPlayer, scheduler_id="z010", work_offset2=0*)
  3: 0x005C [0x1C] WAIT(30* ticks)
  4: 0x005F [0x45] LOAD_SCHEDULED_TASK(work_offset1=210*, entity1=LocalPlayer, entity2=LocalPlayer, scheduler_id="hide", work_offset2=0*)
  5: 0x0070 [0x6C] FADE_ENTITY_COLOR(entity_id=EventEntity, end_alpha=0*, fade_time=90*)
  6: 0x0079 [0x53] WAIT_SCHEDULER_TASK(entity1=EventEntity, entity2=EventEntity, action_id="sck0")
  7: 0x0086 [0x55] WAIT_LOAD_SCHEDULER(work_offset=209*, entity1=LocalPlayer, entity2=LocalPlayer, scheduler_id="z010")
  8: 0x0095 [0x22] ENTITY_HIDE_FLAG(enabled=0x01)
  9: 0x0097 [0x00] END_REQSTACK()
```
