# Event 65535

## Metadata

| Field           | Value     |
|-----------------|-----------|
| Event Index     | 12/16     |
| Offset          | 0x00A1    |
| Data Size       | 107 bytes |
| Calculated Size | 107 bytes |
| Instructions    | 5         |

```
      00 01 02 03 04 05 06 07  08 09 0A 0B 0C 0D 0E 0F
      -- -- -- -- -- -- -- --  -- -- -- -- -- -- -- --
00A0:    32 0A 80 1F 00 0B 80  0C 80 0D 80 1F 01 00 BF   2..............
00B0: 20 01 80 0E 80 06 80 00  00 41 0F 80 10 80 00 00   ........A......
00C0: 01 00 41 11 80 0A 80 00  00 02 00 BF 20 01 80 0E  ..A......... ...
00D0: 80 00 80 00 00 3E 00 00  02 80 E4 00 03 03 00 00  .....>..........
00E0: 80 01 E7 00 06 03 00 3E  00 00 01 80 F6 00 03 04  .......>........
00F0: 00 00 80 01 F9 00 06 04  00 3E 00 00 05 80 08 01  .........>......
0100: 03 05 00 00 80 01 0B 01  06 04 00 1B              ............    
```

## Opcodes

```
  0: 0x00A1 [0x32] ExtData[1]->MainSpeed = 27* * 0.1
  1: 0x00A4 [0x1F] MOVE_ENTITY: EventEntity moves to X=-93.764*, Z=-81.947*, Y=-0.500*
  2: 0x00AC [0x1F] MOVE_ENTITY: Update entity position (mode=1)
  3: 0x00AE [0x00] END_REQSTACK()
```

## Data or dead code:

```
# Data Section: 0x00AF (93 bytes)
     0x00AF: BF 20 01 80 0E 80 06 80 00 00 41 0F 80 10 80 00
     0x00BF: 00 01 00 41 11 80 0A 80 00 00 02 00 BF 20 01 80
     0x00CF: 0E 80 00 80 00 00 3E 00 00 02 80 E4 00 03 03 00
     0x00DF: 00 80 01 E7 00 06 03 00 3E 00 00 01 80 F6 00 03
     0x00EF: 04 00 00 80 01 F9 00 06 04 00 3E 00 00 05 80 08
     0x00FF: 01 03 05 00 00 80 01 0B 01 06 04 00 1B
```