# Event 65535

## Metadata

| Field           | Value    |
|-----------------|----------|
| Event Index     | 11/20    |
| Offset          | 0x004C   |
| Data Size       | 61 bytes |
| Calculated Size | 61 bytes |
| Instructions    | 9        |

```
      00 01 02 03 04 05 06 07  08 09 0A 0B 0C 0D 0E 0F
      -- -- -- -- -- -- -- --  -- -- -- -- -- -- -- --
0040:                                      59 03 F8 FF              Y...
0050: FF 7F 0C 80 79 00 F8 FF  FF 7F 8A 32 03 01 1C 0D  ....y......2....
0060: 80 59 03 F8 FF FF 7F 0C  80 79 00 F8 FF FF 7F F0  .Y.......y......
0070: FF FF 7F 1C 0D 80 59 03  F8 FF FF 7F 0C 80 79 00  ......Y.......y.
0080: F8 FF FF 7F 8A 32 03 01  00                       .....2...       
```

## Opcodes

```
  0: 0x004C [0x59] UPDATE_ENTITY_DATA: Set EventEntity turn speed head = 200*
  1: 0x0054 [0x79] EventEntity looks at Clavauert (ID: 16986762/0x0103328A) (Basic look)
  2: 0x005E [0x1C] WAIT(60* ticks)
  3: 0x0061 [0x59] UPDATE_ENTITY_DATA: Set EventEntity turn speed head = 200*
  4: 0x0069 [0x79] EventEntity looks at LocalPlayer (Basic look)
  5: 0x0073 [0x1C] WAIT(60* ticks)
  6: 0x0076 [0x59] UPDATE_ENTITY_DATA: Set EventEntity turn speed head = 200*
  7: 0x007E [0x79] EventEntity looks at Clavauert (ID: 16986762/0x0103328A) (Basic look)
  8: 0x0088 [0x00] END_REQSTACK()
```
