# Event 65535

## Metadata

| Field           | Value    |
|-----------------|----------|
| Event Index     | 5/9      |
| Offset          | 0x003C   |
| Data Size       | 47 bytes |
| Calculated Size | 47 bytes |
| Instructions    | 7        |

```
      00 01 02 03 04 05 06 07  08 09 0A 0B 0C 0D 0E 0F
      -- -- -- -- -- -- -- --  -- -- -- -- -- -- -- --
0030:                                      2D F0 FF FF              -...
0040: 7F F0 FF FF 7F 32 31 35  73 2D F0 FF FF 7F F0 FF  .....215s-......
0050: FF 7F 32 31 36 73 27 10  CC 80 0A 01 03 1C 00 80  ..216s'.........
0060: 29 10 CF 80 0A 01 03 1C  02 80 00                 )..........     
```

## Opcodes

```
  0: 0x003C [0x2D] CREATE_ZONE_SCHEDULER_TASK: Create scheduler "215s" with entities [LocalPlayer, LocalPlayer]
  1: 0x0049 [0x2D] CREATE_ZONE_SCHEDULER_TASK: Create scheduler "216s" with entities [LocalPlayer, LocalPlayer]
  2: 0x0056 [0x27] REQ_SET(priority=0x10, entity_id=Pedestal of Wind (ID: 17465548/0x010A80CC), tag_num=0x03)
  3: 0x005D [0x1C] WAIT(75* ticks)
  4: 0x0060 [0x29] REQ_SET_WAIT(priority=0x10, entity_id=Pedestal of Light (ID: 17465551/0x010A80CF), tag_num=0x03)
  5: 0x0067 [0x1C] WAIT(90* ticks)
  6: 0x006A [0x00] END_REQSTACK()
```
