# Event 337

## Metadata

| Field           | Value    |
|-----------------|----------|
| Event Index     | 12/25    |
| Offset          | 0x015E   |
| Data Size       | 48 bytes |
| Calculated Size | 48 bytes |
| Instructions    | 10       |

```
      00 01 02 03 04 05 06 07  08 09 0A 0B 0C 0D 0E 0F
      -- -- -- -- -- -- -- --  -- -- -- -- -- -- -- --
0150:                                            1E F0                ..
0160: FF FF 7F 6F 70 03 02 10  13 80 66 00 80 F8 FF FF  ...op.....f.....
0170: 7F F8 FF FF 7F 74 6C 62  30 1D 16 80 23 66 00 80  .....tlb0...#f..
0180: F8 FF FF 7F F8 FF FF 7F  74 6C 62 31 21 00        ........tlb1!.  
```

## Opcodes

```
  0: 0x015E [0x1E] EventEntity looks at LocalPlayer and starts talking
  1: 0x0163 [0x6F] WAIT_FRAME_DELAY: Yield until WaitTime reaches zero
  2: 0x0164 [0x70] WAIT_ENTITY_RENDER_FLAG: Wait while EventEntity->Render.Flags3 bit 2 is set (cancel turn if not)
  3: 0x0165 [0x03] Work_Zone[2] = 2263*
  4: 0x016A [0x66] LOAD_EXT_SCHEDULER_MAIN: Load scheduler "tlb0" with entities [EventEntity, EventEntity], work=34*
  5: 0x0179 [0x1D] PRINT_EVENT_MESSAGE(message_id=7579*)
    → "The Inventors' Coalition, however, manufactures \u0001\u00055\u0002\u0000\u0000\u0000 in bulk. If you have a chance to visit their headquarters, would you mind picking some up for me?\u007F1\u0000\u0007"
  6: 0x017C [0x23] WAIT_FOR_DIALOG_INTERACTION
  7: 0x017D [0x66] LOAD_EXT_SCHEDULER_MAIN: Load scheduler "tlb1" with entities [EventEntity, EventEntity], work=34*
  8: 0x018C [0x21] END_EVENT
  9: 0x018D [0x00] END_REQSTACK()
```
