# Event 65535

## Metadata

| Field           | Value    |
|-----------------|----------|
| Event Index     | 25/25    |
| Offset          | 0x022E   |
| Data Size       | 48 bytes |
| Calculated Size | 48 bytes |
| Instructions    | 8        |

```
      00 01 02 03 04 05 06 07  08 09 0A 0B 0C 0D 0E 0F
      -- -- -- -- -- -- -- --  -- -- -- -- -- -- -- --
0220:                                            32 22                2"
0230: 80 39 2D 80 1C 2E 80 66  2F 80 F8 FF FF 7F F8 FF  .9-....f/.......
0240: FF 7F 6E 6D 69 30 53 F8  FF FF 7F F8 FF FF 7F 6E  ..nmi0S........n
0250: 6D 69 30 1F 00 30 80 31  80 08 80 1F 01 00        mi0..0.1......  
```

## Opcodes

```
  0: 0x022E [0x32] ExtData[1]->MainSpeed = 13* * 0.1
  1: 0x0231 [0x39] SET_ENTITY_DIRECTION(direction=16.9°*)
  2: 0x0234 [0x1C] WAIT(15* ticks)
  3: 0x0237 [0x66] LOAD_EXT_SCHEDULER_MAIN: Load scheduler "nmi0" with entities [EventEntity, EventEntity], work=41*
  4: 0x0246 [0x53] WAIT_SCHEDULER_TASK: Wait for scheduler "nmi0" with entities [EventEntity, EventEntity]
  5: 0x0253 [0x1F] MOVE_ENTITY: EventEntity moves to X=-318.500*, Z=-308.000*, Y=-1.000*
  6: 0x025B [0x1F] MOVE_ENTITY: Update entity position (mode=1)
  7: 0x025D [0x00] END_REQSTACK()
```
