# Event 9

## Metadata

| Field           | Value    |
|-----------------|----------|
| Event Index     | 18/25    |
| Offset          | 0x01BD   |
| Data Size       | 38 bytes |
| Calculated Size | 38 bytes |
| Instructions    | 10       |

```
      00 01 02 03 04 05 06 07  08 09 0A 0B 0C 0D 0E 0F
      -- -- -- -- -- -- -- --  -- -- -- -- -- -- -- --
01B0:                                         42 1E F0               B..
01C0: FF FF 7F 6F 76 F8 FF FF  7F 66 05 80 40 21 10 01  ...ov....f..@!..
01D0: 40 21 10 01 74 6C 6B 30  03 02 10 25 80 1D 26 80  @!..tlk0...%..&.
01E0: 23 21 00                                          #!.             
```

## Opcodes

```
  0: 0x01BD [0x42] SET_CLI_EVENT_CANCEL_DATA()
  1: 0x01BE [0x1E] EventEntity looks at LocalPlayer and starts talking
  2: 0x01C3 [0x6F] WAIT_FRAME_DELAY: Yield until WaitTime reaches zero
  3: 0x01C4 [0x76] CHECK_ENTITY_RENDER_FLAGS: Wait until EventEntity Render.Flags0 and Render.Flags3 conditions are met
  4: 0x01C9 [0x66] LOAD_EXT_SCHEDULER_MAIN: Load scheduler "tlk0" with entities [Chalvava (ID: 17834304/0x01102140), Chalvava (ID: 17834304/0x01102140)], work=40*
  5: 0x01D8 [0x03] Work_Zone[2] = 2386*
  6: 0x01DD [0x1D] PRINT_EVENT_MESSAGE(message_id=8422*)
    → "If you really want \u0001\u00056\u0002\u0000\u0000\u0000 that badly, I guess I can let you in on a little secretaru. I'd never go because even taking one step into the battlegrounds sends paralyzing shiver-wivers down my spine, but word has it that there are some trees left in Yahse Hunting Grounds.\u007F1\u0000\u0007"
  7: 0x01E0 [0x23] WAIT_FOR_DIALOG_INTERACTION
  8: 0x01E1 [0x21] END_EVENT
  9: 0x01E2 [0x00] END_REQSTACK()
```
