# Event 308

## Metadata

| Field           | Value    |
|-----------------|----------|
| Event Index     | 8/9      |
| Offset          | 0x0138   |
| Data Size       | 38 bytes |
| Calculated Size | 38 bytes |
| Instructions    | 11       |

```
      00 01 02 03 04 05 06 07  08 09 0A 0B 0C 0D 0E 0F
      -- -- -- -- -- -- -- --  -- -- -- -- -- -- -- --
0130:                          42 20 01 1E F0 FF FF 7F          B ......
0140: 1C 00 80 1D 1E 80 23 1D  1F 80 23 45 11 80 F0 FF  ......#...#E....
0150: FF 7F F0 FF FF 7F 71 73  74 63 05 80 21 00        ......qstc..!.  
```

## Opcodes

```
  0: 0x0138 [0x42] SET_CLI_EVENT_CANCEL_DATA()
  1: 0x0139 [0x20] SET_CLI_EVENT_UC_FLAG: Lock player control
  2: 0x013B [0x1E] EventEntity looks at LocalPlayer and starts talking
  3: 0x0140 [0x1C] WAIT(20* ticks)
  4: 0x0143 [0x1D] PRINT_EVENT_MESSAGE(message_id=8214*)
    → "Your courage and abilities have not diminished in the least, I see.\u007F1\u0000\u0007"
  5: 0x0146 [0x23] WAIT_FOR_DIALOG_INTERACTION
  6: 0x0147 [0x1D] PRINT_EVENT_MESSAGE(message_id=8215*)
    → "You've earned this.\u0007Yet the beast will not lie dormant forever. Return here if you wish to test your sword arm again.\u007F1\u0000\u0007"
  7: 0x014A [0x23] WAIT_FOR_DIALOG_INTERACTION
  8: 0x014B [0x45] LOAD_SCHEDULED_TASK(work_offset1=201*, entity1=LocalPlayer, entity2=LocalPlayer, scheduler_id="qstc", work_offset2=0*)
  9: 0x015C [0x21] END_EVENT
 10: 0x015D [0x00] END_REQSTACK()
```
