# 17293758 - Giant Footprint

## Common Data

| Field            | Value                  |
|------------------|------------------------|
| Zone             | Qufim Island (ID: 126) |
| Block Size       | 20600 bytes            |
| Total Events     | 3                      |
| References Count | 264                    |

## List of Events

| Event ID              | Entrypoint   |   Size |   Instructions |
|-----------------------|--------------|--------|----------------|
| [65535](#event-65535) | 0x0000       |      1 |              1 |
| [10000](#event-10000) | 0x0001       |    647 |            103 |
| [10001](#event-10001) | 0x0288       |  18867 |           3217 |

## DAT References (imed_data)

|   Index | Hex Value   |   Dec Value |
|---------|-------------|-------------|
|       0 | 0x0013      |          19 |
|       1 | 0x0025      |          37 |
|       2 | 0x0000      |           0 |
|       3 | 0x003C      |          60 |
|       4 | 0x000F      |          15 |
|       5 | 0x00C8      |         200 |
|       6 | 0x0004      |           4 |
|       7 | 0x0026      |          38 |
|       8 | 0x0005      |           5 |
|       9 | 0x0001      |           1 |
|      10 | 0x1E7B      |        7803 |
|      11 | 0x0002      |           2 |
|      12 | 0x1E7C      |        7804 |
|      13 | 0x0003      |           3 |
|      14 | 0x1E7D      |        7805 |
|      15 | 0x1E7E      |        7806 |
|      16 | 0x1E81      |        7809 |
|      17 | 0x0006      |           6 |
|      18 | 0x1E82      |        7810 |
|      19 | 0x0007      |           7 |
|      20 | 0x1E83      |        7811 |
|      21 | 0x0008      |           8 |
|      22 | 0x1E84      |        7812 |
|      23 | 0x0009      |           9 |
|      24 | 0x1E85      |        7813 |
|      25 | 0x000A      |          10 |
|      26 | 0x1E7F      |        7807 |
|      27 | 0x000B      |          11 |
|      28 | 0x1E80      |        7808 |
|      29 | 0x000C      |          12 |
|      30 | 0x1E86      |        7814 |
|      31 | 0x0024      |          36 |
|      32 | 0x0078      |         120 |
|      33 | 0x00C9      |         201 |
|      34 | 0x001E      |          30 |
|      35 | 0x005F      |          95 |
|      36 | 0x0064      |         100 |
|      37 | 0x0069      |         105 |
|      38 | 0x0052      |          82 |
|      39 | 0x0057      |          87 |
|      40 | 0x005C      |          92 |
|      41 | 0x0059      |          89 |
|      42 | 0x005D      |          93 |
|      43 | 0x0061      |          97 |
|      44 | 0x0060      |          96 |
|      45 | 0x000D      |          13 |
|      46 | 0x0012      |          18 |
|      47 | 0x0014      |          20 |
|      48 | 0x0017      |          23 |
|      49 | 0x000E      |          14 |
|      50 | 0x0018      |          24 |
|      51 | 0x001F      |          31 |
|      52 | 0x001B      |          27 |
|      53 | 0x0010      |          16 |
|      54 | 0x0015      |          21 |
|      55 | 0x018D      |         397 |
|      56 | 0x0175      |         373 |
|      57 | 0x0170      |         368 |
|      58 | 0x0171      |         369 |
|      59 | 0x014C      |         332 |
|      60 | 0x01C1      |         449 |
|      61 | 0x027C      |         636 |
|      62 | 0x027B      |         635 |
|      63 | 0x027D      |         637 |
|      64 | 0x02D3      |         723 |
|      65 | 0x0321      |         801 |
|      66 | 0x0326      |         806 |
|      67 | 0x01E1      |         481 |
|      68 | 0x0343      |         835 |
|      69 | 0x0386      |         902 |
|      70 | 0x0388      |         904 |
|      71 | 0x0361      |         865 |
|      72 | 0x0387      |         903 |
|      73 | 0x038A      |         906 |
|      74 | 0x003F      |          63 |
|      75 | 0x0282      |         642 |
|      76 | 0x0283      |         643 |
|      77 | 0x0288      |         648 |
|      78 | 0x0289      |         649 |
|      79 | 0x028A      |         650 |
|      80 | 0x028B      |         651 |
|      81 | 0x029E      |         670 |
|      82 | 0x0019      |          25 |
|      83 | 0x00C6      |         198 |
|      84 | 0x0032      |          50 |
|      85 | 0x00B5      |         181 |
|      86 | 0x008C      |         140 |
|      87 | 0x008E      |         142 |
|      88 | 0x007A      |         122 |
|      89 | 0x014B      |         331 |
|      90 | 0x0148      |         328 |
|      91 | 0x0166      |         358 |
|      92 | 0x017A      |         378 |
|      93 | 0x0182      |         386 |
|      94 | 0x0183      |         387 |
|      95 | 0x0192      |         402 |
|      96 | 0x01DF      |         479 |
|      97 | 0x01E9      |         489 |
|      98 | 0x001C      |          28 |
|      99 | 0x00E6      |         230 |
|     100 | 0x00EB      |         235 |
|     101 | 0x00F5      |         245 |
|     102 | 0x007E      |         126 |
|     103 | 0x007F      |         127 |
|     104 | 0x00F3      |         243 |
|     105 | 0x00F4      |         244 |
|     106 | 0x00E0      |         224 |
|     107 | 0x00E9      |         233 |
|     108 | 0x009E      |         158 |
|     109 | 0x009D      |         157 |
|     110 | 0x00E2      |         226 |
|     111 | 0x00E1      |         225 |
|     112 | 0x014F      |         335 |
|     113 | 0x014E      |         334 |
|     114 | 0x0167      |         359 |
|     115 | 0x00E5      |         229 |
|     116 | 0x0169      |         361 |
|     117 | 0x016A      |         362 |
|     118 | 0x0168      |         360 |
|     119 | 0x0133      |         307 |
|     120 | 0x0174      |         372 |
|     121 | 0x018C      |         396 |
|     122 | 0x0194      |         404 |
|     123 | 0x0195      |         405 |
|     124 | 0x0178      |         376 |
|     125 | 0x0240      |         576 |
|     126 | 0x0197      |         407 |
|     127 | 0x0198      |         408 |
|     128 | 0x01A3      |         419 |
|     129 | 0x019E      |         414 |
|     130 | 0x0246      |         582 |
|     131 | 0x0247      |         583 |
|     132 | 0x0248      |         584 |
|     133 | 0x024B      |         587 |
|     134 | 0x024A      |         586 |
|     135 | 0x0011      |          17 |
|     136 | 0x024F      |         591 |
|     137 | 0x01C3      |         451 |
|     138 | 0x01C4      |         452 |
|     139 | 0x01EF      |         495 |
|     140 | 0x01F0      |         496 |
|     141 | 0x001A      |          26 |
|     142 | 0x0095      |         149 |
|     143 | 0x001D      |          29 |
|     144 | 0x0073      |         115 |
|     145 | 0x0034      |          52 |
|     146 | 0x005E      |          94 |
|     147 | 0x0072      |         114 |
|     148 | 0x0031      |          49 |
|     149 | 0x006C      |         108 |
|     150 | 0x003A      |          58 |
|     151 | 0x0096      |         150 |
|     152 | 0x0016      |          22 |
|     153 | 0x0035      |          53 |
|     154 | 0x0085      |         133 |
|     155 | 0x0081      |         129 |
|     156 | 0x0023      |          35 |
|     157 | 0x0033      |          51 |
|     158 | 0x0082      |         130 |
|     159 | 0x0039      |          57 |
|     160 | 0x0020      |          32 |
|     161 | 0x0038      |          56 |
|     162 | 0x0036      |          54 |
|     163 | 0x0083      |         131 |
|     164 | 0x00A2      |         162 |
|     165 | 0x0022      |          34 |
|     166 | 0x0021      |          33 |
|     167 | 0x0065      |         101 |
|     168 | 0x0086      |         134 |
|     169 | 0x0062      |          98 |
|     170 | 0x008D      |         141 |
|     171 | 0x0037      |          55 |
|     172 | 0x008A      |         138 |
|     173 | 0x008B      |         139 |
|     174 | 0x002B      |          43 |
|     175 | 0x0067      |         103 |
|     176 | 0x0030      |          48 |
|     177 | 0x002D      |          45 |
|     178 | 0x00A1      |         161 |
|     179 | 0x0066      |         102 |
|     180 | 0x0075      |         117 |
|     181 | 0x0068      |         104 |
|     182 | 0x007B      |         123 |
|     183 | 0x0077      |         119 |
|     184 | 0x01FE      |         510 |
|     185 | 0x009F      |         159 |
|     186 | 0x00A4      |         164 |
|     187 | 0x00A9      |         169 |
|     188 | 0x00AC      |         172 |
|     189 | 0x00B2      |         178 |
|     190 | 0x00B0      |         176 |
|     191 | 0x013D      |         317 |
|     192 | 0x0108      |         264 |
|     193 | 0x010C      |         268 |
|     194 | 0x0100      |         256 |
|     195 | 0x00FB      |         251 |
|     196 | 0x00B8      |         184 |
|     197 | 0x011C      |         284 |
|     198 | 0x0041      |          65 |
|     199 | 0x0042      |          66 |
|     200 | 0x0047      |          71 |
|     201 | 0x0160      |         352 |
|     202 | 0x0043      |          67 |
|     203 | 0x0048      |          72 |
|     204 | 0x004B      |          75 |
|     205 | 0x004C      |          76 |
|     206 | 0x004D      |          77 |
|     207 | 0x005B      |          91 |
|     208 | 0x0058      |          88 |
|     209 | 0x0053      |          83 |
|     210 | 0x0054      |          84 |
|     211 | 0x0161      |         353 |
|     212 | 0x015C      |         348 |
|     213 | 0x016D      |         365 |
|     214 | 0x00C5      |         197 |
|     215 | 0x00C3      |         195 |
|     216 | 0x00C7      |         199 |
|     217 | 0x015E      |         350 |
|     218 | 0x00C4      |         196 |
|     219 | 0x016E      |         366 |
|     220 | 0x00D0      |         208 |
|     221 | 0x00CD      |         205 |
|     222 | 0x00CA      |         202 |
|     223 | 0x00D2      |         210 |
|     224 | 0x00D8      |         216 |
|     225 | 0x00D5      |         213 |
|     226 | 0x00D6      |         214 |
|     227 | 0x013B      |         315 |
|     228 | 0x0136      |         310 |
|     229 | 0x013A      |         314 |
|     230 | 0x0137      |         311 |
|     231 | 0x016F      |         367 |
|     232 | 0x0138      |         312 |
|     233 | 0x0139      |         313 |
|     234 | 0x009A      |         154 |
|     235 | 0x0091      |         145 |
|     236 | 0x009B      |         155 |
|     237 | 0x0099      |         153 |
|     238 | 0x0093      |         147 |
|     239 | 0x0092      |         146 |
|     240 | 0x0098      |         152 |
|     241 | 0x0071      |         113 |
|     242 | 0x00E8      |         232 |
|     243 | 0x00DD      |         221 |
|     244 | 0x00F8      |         248 |
|     245 | 0x00F1      |         241 |
|     246 | 0x0124      |         292 |
|     247 | 0x012E      |         302 |
|     248 | 0x0129      |         297 |
|     249 | 0x0122      |         290 |
|     250 | 0x0132      |         306 |
|     251 | 0x0126      |         294 |
|     252 | 0x0155      |         341 |
|     253 | 0x0029      |          41 |
|     254 | 0x0028      |          40 |
|     255 | 0x007D      |         125 |
|     256 | 0x0079      |         121 |
|     257 | 0x007C      |         124 |
|     258 | 0x0074      |         116 |
|     259 | 0x00EC      |         236 |
|     260 | 0x019C      |         412 |
|     261 | 0x0193      |         403 |
|     262 | 0x01C6      |         454 |
|     263 | 0x01C7      |         455 |

## Events

### Event 65535

#### Metadata

| Field        | Value   |
|--------------|---------|
| Entrypoint   | 0x0000  |
| Data Size    | 1 bytes |
| Instructions | 1       |

```
      00 01 02 03 04 05 06 07  08 09 0A 0B 0C 0D 0E 0F
      -- -- -- -- -- -- -- --  -- -- -- -- -- -- -- --
0000: 00                                                .               
```

#### Opcodes

```
  0: 0x0000 [0x00] END_REQSTACK()
```

### Event 10000

#### Metadata

| Field        | Value     |
|--------------|-----------|
| Entrypoint   | 0x0001    |
| Data Size    | 647 bytes |
| Instructions | 103       |

```
      00 01 02 03 04 05 06 07  08 09 0A 0B 0C 0D 0E 0F
      -- -- -- -- -- -- -- --  -- -- -- -- -- -- -- --
0000:    42 1A 25 03 46 01 92  01 BF E1 07 01 38 00 80   B.%.F.......8..
0010: 27 05 C0 E1 07 01 02 27  0A C1 E1 07 01 02 29 0F  '......'......).
0020: BD E1 07 01 01 29 14 F0  FF FF 7F 06 29 0F BD E1  .....)......)...
0030: 07 01 03 29 23 BF E1 07  01 02 45 01 80 F0 FF FF  ...)#.....E.....
0040: 7F F0 FF FF 7F 73 30 37  34 02 80 4A BF E1 07 01  .....s074..J....
0050: BD E1 07 01 1C 03 80 27  14 F0 FF FF 7F 07 1A BB  .......'........
0060: 03 2A 14 F0 FF FF 7F 52  01 80 F0 FF FF 7F F0 FF  .*.....R........
0070: FF 7F 73 30 37 34 45 01  80 F0 FF FF 7F F0 FF FF  ..s074E.........
0080: 7F 73 30 37 33 02 80 1C  04 80 27 14 F0 FF FF 7F  .s073.....'.....
0090: 09 1C 03 80 45 05 80 F8  FF FF 7F F8 FF FF 7F 6F  ....E..........o
00A0: 76 6C 31 02 80 52 01 80  F0 FF FF 7F F0 FF FF 7F  vl1..R..........
00B0: 73 30 37 33 1A 35 18 02  0B 00 06 80 80 D3 00 45  s073.5.........E
00C0: 07 80 F0 FF FF 7F F0 FF  FF 7F 73 30 32 30 02 80  ..........s020..
00D0: 01 00 01 02 0B 00 08 80  80 EF 00 45 07 80 F0 FF  ...........E....
00E0: FF 7F F0 FF FF 7F 73 30  32 30 02 80 01 00 01 45  ......s020.....E
00F0: 01 80 F0 FF FF 7F F0 FF  FF 7F 73 30 37 35 02 80  ..........s075..
0100: 2A 14 F0 FF FF 7F 27 0F  BD E1 07 01 04 1A 16 19  *.....'.........
0110: 02 08 00 09 80 80 23 01  2B BD E1 07 01 0A 80 23  ......#.+......#
0120: 01 F4 01 02 08 00 0B 80  80 36 01 2B BD E1 07 01  .........6.+....
0130: 0C 80 23 01 F4 01 02 08  00 0D 80 80 49 01 2B BD  ..#.........I.+.
0140: E1 07 01 0E 80 23 01 F4  01 02 08 00 06 80 80 5C  .....#.........\
0150: 01 2B BD E1 07 01 0F 80  23 01 F4 01 02 08 00 08  .+......#.......
0160: 80 80 6F 01 2B BD E1 07  01 10 80 23 01 F4 01 02  ..o.+......#....
0170: 08 00 11 80 80 82 01 2B  BD E1 07 01 12 80 23 01  .......+......#.
0180: F4 01 02 08 00 13 80 80  95 01 2B BD E1 07 01 14  ..........+.....
0190: 80 23 01 F4 01 02 08 00  15 80 80 A8 01 2B BD E1  .#...........+..
01A0: 07 01 16 80 23 01 F4 01  02 08 00 17 80 80 BB 01  ....#...........
01B0: 2B BD E1 07 01 18 80 23  01 F4 01 02 08 00 19 80  +......#........
01C0: 80 CE 01 2B BD E1 07 01  1A 80 23 01 F4 01 02 08  ...+......#.....
01D0: 00 1B 80 80 E1 01 2B BD  E1 07 01 1C 80 23 01 F4  ......+......#..
01E0: 01 02 08 00 1D 80 80 F4  01 2B BD E1 07 01 1E 80  .........+......
01F0: 23 01 F4 01 2A 0F BD E1  07 01 45 05 80 F8 FF FF  #...*.....E.....
0200: 7F F8 FF FF 7F 6F 76 6C  31 02 80 1A 35 18 02 0B  .....ovl1...5...
0210: 00 06 80 80 28 02 52 07  80 F0 FF FF 7F F0 FF FF  ....(.R.........
0220: 7F 73 30 32 30 01 51 02  02 0B 00 08 80 80 42 02  .s020.Q.......B.
0230: 52 07 80 F0 FF FF 7F F0  FF FF 7F 73 30 32 30 01  R..........s020.
0240: 51 02 52 01 80 F0 FF FF  7F F0 FF FF 7F 73 30 37  Q.R..........s07
0250: 35 45 01 80 F0 FF FF 7F  F0 FF FF 7F 73 30 37 36  5E..........s076
0260: 02 80 27 23 BF E1 07 01  03 1C 03 80 1A 89 02 52  ..'#...........R
0270: 1F 80 F0 FF FF 7F F0 FF  FF 7F 73 30 37 36 1C 20  ..........s076. 
0280: 80 1A DD 02 46 00 21 00                           ....F.!.        
```

#### Opcodes

```
  0: 0x0001 [0x42] SET_CLI_EVENT_CANCEL_DATA()
  1: 0x0002 [0x1A] CALL_SUBROUTINE(address=0x0325)
  2: 0x0005 [0x46] CAMERA_CONTROL: Disable user control
  3: 0x0007 [0x92] Unnamed NPC (ID: 17293759/0x0107E1BF)->Render.Flags3 ^= 0x01
  4: 0x000D [0x38] SET_CLIENT_EVENT_MODE(mode=19*)
  5: 0x0010 [0x27] REQ_SET(priority=0x05, entity_id=Unnamed NPC (ID: 17293760/0x0107E1C0), tag_num=0x02)
  6: 0x0017 [0x27] REQ_SET(priority=0x0A, entity_id=Unnamed NPC (ID: 17293761/0x0107E1C1), tag_num=0x02)
  7: 0x001E [0x29] REQ_SET_WAIT(priority=0x0F, entity_id=Unnamed NPC (ID: 17293757/0x0107E1BD), tag_num=0x01)
  8: 0x0025 [0x29] REQ_SET_WAIT(priority=0x14, entity_id=LocalPlayer, tag_num=0x06)
  9: 0x002C [0x29] REQ_SET_WAIT(priority=0x0F, entity_id=Unnamed NPC (ID: 17293757/0x0107E1BD), tag_num=0x03)
 10: 0x0033 [0x29] REQ_SET_WAIT(priority=0x23, entity_id=Unnamed NPC (ID: 17293759/0x0107E1BF), tag_num=0x02)
 11: 0x003A [0x45] LOAD_SCHEDULED_TASK: Load scheduler "s074" with entities [LocalPlayer, LocalPlayer], work=[37*, 0*]
 12: 0x004B [0x4A] Unnamed NPC (ID: 17293759/0x0107E1BF) looks at Unnamed NPC (ID: 17293757/0x0107E1BD)
 13: 0x0054 [0x1C] WAIT(60* ticks)
 14: 0x0057 [0x27] REQ_SET(priority=0x14, entity_id=LocalPlayer, tag_num=0x07)
 15: 0x005E [0x1A] CALL_SUBROUTINE(address=0x03BB)
 16: 0x0061 [0x2A] GET_REQ_LEVEL(level=20, entity_id=LocalPlayer)
 17: 0x0067 [0x52] END_LOAD_SCHEDULER: End scheduler "s074" with entities [LocalPlayer, LocalPlayer], work=37*
 18: 0x0076 [0x45] LOAD_SCHEDULED_TASK: Load scheduler "s073" with entities [LocalPlayer, LocalPlayer], work=[37*, 0*]
 19: 0x0087 [0x1C] WAIT(15* ticks)
 20: 0x008A [0x27] REQ_SET(priority=0x14, entity_id=LocalPlayer, tag_num=0x09)
 21: 0x0091 [0x1C] WAIT(60* ticks)
 22: 0x0094 [0x45] LOAD_SCHEDULED_TASK: Load scheduler "ovl1" with entities [EventEntity, EventEntity], work=[200*, 0*]
 23: 0x00A5 [0x52] END_LOAD_SCHEDULER: End scheduler "s073" with entities [LocalPlayer, LocalPlayer], work=37*
 24: 0x00B4 [0x1A] CALL_SUBROUTINE(address=0x1835)
 25: 0x00B7 [0x02] IF !(ExtData[1]->WorkLocal[11] == 4*) GOTO 0x00D3
 26: 0x00BF [0x45] LOAD_SCHEDULED_TASK: Load scheduler "s020" with entities [LocalPlayer, LocalPlayer], work=[38*, 0*]
 27: 0x00D0 [0x01] GOTO 0x0100
 28: 0x00D3 [0x02] IF !(ExtData[1]->WorkLocal[11] == 5*) GOTO 0x00EF
 29: 0x00DB [0x45] LOAD_SCHEDULED_TASK: Load scheduler "s020" with entities [LocalPlayer, LocalPlayer], work=[38*, 0*]
 30: 0x00EC [0x01] GOTO 0x0100
 31: 0x00EF [0x45] LOAD_SCHEDULED_TASK: Load scheduler "s075" with entities [LocalPlayer, LocalPlayer], work=[37*, 0*]

SUBROUTINE_0100:
 32: 0x0100 [0x2A] GET_REQ_LEVEL(level=20, entity_id=LocalPlayer)
 33: 0x0106 [0x27] REQ_SET(priority=0x0F, entity_id=Unnamed NPC (ID: 17293757/0x0107E1BD), tag_num=0x04)
 34: 0x010D [0x1A] CALL_SUBROUTINE(address=0x1916)
 35: 0x0110 [0x02] IF !(ExtData[1]->WorkLocal[8] == 1*) GOTO 0x0123
 36: 0x0118 [0x2B] Unnamed NPC (ID: 17293757/0x0107E1BD) [7803*]:
    → "<Player>!? Get back! I can handle this!"
 37: 0x011F [0x23] WAIT_FOR_DIALOG_INTERACTION
 38: 0x0120 [0x01] GOTO 0x01F4
 39: 0x0123 [0x02] IF !(ExtData[1]->WorkLocal[8] == 2*) GOTO 0x0136
 40: 0x012B [0x2B] Unnamed NPC (ID: 17293757/0x0107E1BD) [7804*]:
    → "<Player>!? Don't come any closer! This battle is mine!"
 41: 0x0132 [0x23] WAIT_FOR_DIALOG_INTERACTION
 42: 0x0133 [0x01] GOTO 0x01F4
 43: 0x0136 [0x02] IF !(ExtData[1]->WorkLocal[8] == 3*) GOTO 0x0149
 44: 0x013E [0x2B] Unnamed NPC (ID: 17293757/0x0107E1BD) [7805*]:
    → "<Player>? Step aside. I will handle this!"
 45: 0x0145 [0x23] WAIT_FOR_DIALOG_INTERACTION
 46: 0x0146 [0x01] GOTO 0x01F4
 47: 0x0149 [0x02] IF !(ExtData[1]->WorkLocal[8] == 4*) GOTO 0x015C
 48: 0x0151 [0x2B] Unnamed NPC (ID: 17293757/0x0107E1BD) [7806*]:
    → "<Player>? Stay back. I will handle this!"
 49: 0x0158 [0x23] WAIT_FOR_DIALOG_INTERACTION
 50: 0x0159 [0x01] GOTO 0x01F4
 51: 0x015C [0x02] IF !(ExtData[1]->WorkLocal[8] == 5*) GOTO 0x016F
 52: 0x0164 [0x2B] Unnamed NPC (ID: 17293757/0x0107E1BD) [7809*]:
    → "<Player>!? Stay back! I will take care of this!"
 53: 0x016B [0x23] WAIT_FOR_DIALOG_INTERACTION
 54: 0x016C [0x01] GOTO 0x01F4
 55: 0x016F [0x02] IF !(ExtData[1]->WorkLocal[8] == 6*) GOTO 0x0182
 56: 0x0177 [0x2B] Unnamed NPC (ID: 17293757/0x0107E1BD) [7810*]:
    → "<Player>!? Stay back! I've got this one!"
 57: 0x017E [0x23] WAIT_FOR_DIALOG_INTERACTION
 58: 0x017F [0x01] GOTO 0x01F4
 59: 0x0182 [0x02] IF !(ExtData[1]->WorkLocal[8] == 7*) GOTO 0x0195
 60: 0x018A [0x2B] Unnamed NPC (ID: 17293757/0x0107E1BD) [7811*]:
    → "<Player>? Stand aside. I will handle this!"
 61: 0x0191 [0x23] WAIT_FOR_DIALOG_INTERACTION
 62: 0x0192 [0x01] GOTO 0x01F4
 63: 0x0195 [0x02] IF !(ExtData[1]->WorkLocal[8] == 8*) GOTO 0x01A8
 64: 0x019D [0x2B] Unnamed NPC (ID: 17293757/0x0107E1BD) [7812*]:
    → "<Player>!? Don't come any closer! I can do this!"
 65: 0x01A4 [0x23] WAIT_FOR_DIALOG_INTERACTION
 66: 0x01A5 [0x01] GOTO 0x01F4
 67: 0x01A8 [0x02] IF !(ExtData[1]->WorkLocal[8] == 9*) GOTO 0x01BB
 68: 0x01B0 [0x2B] Unnamed NPC (ID: 17293757/0x0107E1BD) [7813*]:
    → "<Player>? Stay back. I will handle this!"
 69: 0x01B7 [0x23] WAIT_FOR_DIALOG_INTERACTION
 70: 0x01B8 [0x01] GOTO 0x01F4
 71: 0x01BB [0x02] IF !(ExtData[1]->WorkLocal[8] == 10*) GOTO 0x01CE
 72: 0x01C3 [0x2B] Unnamed NPC (ID: 17293757/0x0107E1BD) [7807*]:
    → "<Player>? Don't come! I can do this myself!"
 73: 0x01CA [0x23] WAIT_FOR_DIALOG_INTERACTION
 74: 0x01CB [0x01] GOTO 0x01F4
 75: 0x01CE [0x02] IF !(ExtData[1]->WorkLocal[8] == 11*) GOTO 0x01E1
 76: 0x01D6 [0x2B] Unnamed NPC (ID: 17293757/0x0107E1BD) [7808*]:
    → "<Player>? Stay back! Leave this one to me!"
 77: 0x01DD [0x23] WAIT_FOR_DIALOG_INTERACTION
 78: 0x01DE [0x01] GOTO 0x01F4
 79: 0x01E1 [0x02] IF !(ExtData[1]->WorkLocal[8] == 12*) GOTO 0x01F4
 80: 0x01E9 [0x2B] Unnamed NPC (ID: 17293757/0x0107E1BD) [7814*]:
    → "<Player>? Stay where you are! This one is mine!"
 81: 0x01F0 [0x23] WAIT_FOR_DIALOG_INTERACTION
 82: 0x01F1 [0x01] GOTO 0x01F4

SUBROUTINE_01F4:
 83: 0x01F4 [0x2A] GET_REQ_LEVEL(level=15, entity_id=Unnamed NPC (ID: 17293757/0x0107E1BD))
 84: 0x01FA [0x45] LOAD_SCHEDULED_TASK: Load scheduler "ovl1" with entities [EventEntity, EventEntity], work=[200*, 0*]
 85: 0x020B [0x1A] CALL_SUBROUTINE(address=0x1835)
 86: 0x020E [0x02] IF !(ExtData[1]->WorkLocal[11] == 4*) GOTO 0x0228
 87: 0x0216 [0x52] END_LOAD_SCHEDULER: End scheduler "s020" with entities [LocalPlayer, LocalPlayer], work=38*
 88: 0x0225 [0x01] GOTO 0x0251
 89: 0x0228 [0x02] IF !(ExtData[1]->WorkLocal[11] == 5*) GOTO 0x0242
 90: 0x0230 [0x52] END_LOAD_SCHEDULER: End scheduler "s020" with entities [LocalPlayer, LocalPlayer], work=38*
 91: 0x023F [0x01] GOTO 0x0251
 92: 0x0242 [0x52] END_LOAD_SCHEDULER: End scheduler "s075" with entities [LocalPlayer, LocalPlayer], work=37*

SUBROUTINE_0251:
 93: 0x0251 [0x45] LOAD_SCHEDULED_TASK: Load scheduler "s076" with entities [LocalPlayer, LocalPlayer], work=[37*, 0*]
 94: 0x0262 [0x27] REQ_SET(priority=0x23, entity_id=Unnamed NPC (ID: 17293759/0x0107E1BF), tag_num=0x03)
 95: 0x0269 [0x1C] WAIT(60* ticks)
 96: 0x026C [0x1A] CALL_SUBROUTINE(address=0x0289)
 97: 0x026F [0x52] END_LOAD_SCHEDULER: End scheduler "s076" with entities [LocalPlayer, LocalPlayer], work=36*
 98: 0x027E [0x1C] WAIT(120* ticks)
 99: 0x0281 [0x1A] CALL_SUBROUTINE(address=0x02DD)
100: 0x0284 [0x46] CAMERA_CONTROL: Restore default settings
101: 0x0286 [0x21] END_EVENT
102: 0x0287 [0x00] END_REQSTACK()
```

### Event 10001

#### Metadata

| Field        | Value       |
|--------------|-------------|
| Entrypoint   | 0x0288      |
| Data Size    | 18867 bytes |
| Instructions | 1           |

```
      00 01 02 03 04 05 06 07  08 09 0A 0B 0C 0D 0E 0F
      -- -- -- -- -- -- -- --  -- -- -- -- -- -- -- --
0280:                          00 45 21 80 F0 FF FF 7F          .E!.....
0290: F0 FF FF 7F 77 68 6F 30  02 80 55 21 80 F0 FF FF  ....who0..U!....
02A0: 7F F0 FF FF 7F 77 68 6F  30 1B 45 21 80 F0 FF FF  .....who0.E!....
02B0: 7F F0 FF FF 7F 77 68 6F  31 02 80 55 21 80 F0 FF  .....who1..U!...
02C0: FF 7F F0 FF FF 7F 77 68  6F 31 1B 45 21 80 F0 FF  ......who1.E!...
02D0: FF 7F F0 FF FF 7F 77 68  69 31 02 80 1B 45 21 80  ......whi1...E!.
02E0: F0 FF FF 7F F0 FF FF 7F  77 68 69 30 02 80 1B 45  ........whi0...E
02F0: 05 80 F0 FF FF 7F F0 FF  FF 7F 66 64 6F 30 02 80  ..........fdo0..
0300: 55 05 80 F0 FF FF 7F F0  FF FF 7F 66 64 6F 30 1B  U..........fdo0.
0310: 45 05 80 F8 FF FF 7F F8  FF FF 7F 66 64 6F 30 02  E..........fdo0.
0320: 80 1C 22 80 1B 45 05 80  F0 FF FF 7F F0 FF FF 7F  .."..E..........
0330: 66 64 6F 31 02 80 55 05  80 F0 FF FF 7F F0 FF FF  fdo1..U.........
0340: 7F 66 64 6F 31 1B 45 05  80 F8 FF FF 7F F8 FF FF  .fdo1.E.........
0350: 7F 66 64 6F 31 02 80 55  05 80 F8 FF FF 7F F8 FF  .fdo1..U........
0360: FF 7F 66 64 6F 31 1B 45  05 80 F0 FF FF 7F F0 FF  ..fdo1.E........
0370: FF 7F 66 64 6F 32 02 80  55 05 80 F0 FF FF 7F F0  ..fdo2..U.......
0380: FF FF 7F 66 64 6F 32 1B  45 05 80 F8 FF FF 7F F8  ...fdo2.E.......
0390: FF FF 7F 66 64 6F 32 02  80 55 05 80 F8 FF FF 7F  ...fdo2..U......
03A0: F8 FF FF 7F 66 64 6F 32  1B 45 05 80 F8 FF FF 7F  ....fdo2.E......
03B0: F8 FF FF 7F 66 64 69 30  02 80 1B 45 05 80 F8 FF  ....fdi0...E....
03C0: FF 7F F8 FF FF 7F 66 64  69 31 02 80 1B 45 05 80  ......fdi1...E..
03D0: F8 FF FF 7F F8 FF FF 7F  66 64 69 32 02 80 1B 00  ........fdi2....
03E0: 03 02 00 02 80 1A 2B 18  1A 35 18 02 0B 00 02 80  ......+..5......
03F0: 80 EE 04 02 01 00 02 80  80 12 04 B4 00 02 00 46  ...............F
0400: 65 6C 69 7A 00 00 00 00  00 00 00 00 00 00 00 01  eliz............
0410: EB 04 02 01 00 09 80 80  31 04 B4 00 02 00 46 65  ........1.....Fe
0420: 72 64 69 6E 61 6E 64 00  00 00 00 00 00 00 01 EB  rdinand.........
0430: 04 02 01 00 0B 80 80 50  04 B4 00 02 00 47 75 6E  .......P.....Gun
0440: 6E 61 72 00 00 00 00 00  00 00 00 00 00 01 EB 04  nar.............
0450: 02 01 00 0D 80 80 6F 04  B4 00 02 00 4D 61 73 73  ......o.....Mass
0460: 69 6D 6F 00 00 00 00 00  00 00 00 00 01 EB 04 02  imo.............
0470: 01 00 06 80 80 8E 04 B4  00 02 00 4F 6C 64 72 69  ...........Oldri
0480: 63 68 00 00 00 00 00 00  00 00 00 01 EB 04 02 01  ch..............
0490: 00 08 80 80 AD 04 B4 00  02 00 53 69 65 67 77 61  ..........Siegwa
04A0: 72 64 00 00 00 00 00 00  00 00 01 EB 04 02 01 00  rd..............
04B0: 11 80 80 CC 04 B4 00 02  00 54 68 65 6F 62 61 6C  .........Theobal
04C0: 64 00 00 00 00 00 00 00  00 01 EB 04 02 01 00 13  d...............
04D0: 80 80 EB 04 B4 00 02 00  5A 65 6E 6A 69 00 00 00  ........Zenji...
04E0: 00 00 00 00 00 00 00 00  01 EB 04 01 03 0C 02 0B  ................
04F0: 00 09 80 80 F1 05 02 01  00 02 80 80 15 05 B4 00  ................
0500: 02 00 41 6D 65 72 69 74  61 00 00 00 00 00 00 00  ..Amerita.......
0510: 00 00 01 EE 05 02 01 00  09 80 80 34 05 B4 00 02  ...........4....
0520: 00 42 65 61 74 72 69 63  65 00 00 00 00 00 00 00  .Beatrice.......
0530: 00 01 EE 05 02 01 00 0B  80 80 53 05 B4 00 02 00  ..........S.....
0540: 48 65 6E 72 69 65 74 74  61 00 00 00 00 00 00 00  Henrietta.......
0550: 01 EE 05 02 01 00 0D 80  80 72 05 B4 00 02 00 4A  .........r.....J
0560: 65 73 69 6D 61 65 00 00  00 00 00 00 00 00 00 01  esimae..........
0570: EE 05 02 01 00 06 80 80  91 05 B4 00 02 00 4B 61  ..............Ka
0580: 72 79 6E 00 00 00 00 00  00 00 00 00 00 00 01 EE  ryn.............
0590: 05 02 01 00 08 80 80 B0  05 B4 00 02 00 4E 61 6E  .............Nan
05A0: 61 6B 6F 00 00 00 00 00  00 00 00 00 00 01 EE 05  ako.............
05B0: 02 01 00 11 80 80 CF 05  B4 00 02 00 53 68 61 72  ............Shar
05C0: 6C 65 6E 65 00 00 00 00  00 00 00 00 01 EE 05 02  lene............
05D0: 01 00 13 80 80 EE 05 B4  00 02 00 53 69 65 67 68  ...........Siegh
05E0: 69 6C 64 65 00 00 00 00  00 00 00 01 EE 05 01 03  ilde............
05F0: 0C 02 0B 00 0B 80 80 F4  06 02 01 00 02 80 80 18  ................
0600: 06 B4 00 02 00 43 68 61  6E 61 6E 64 69 74 00 00  .....Chanandit..
0610: 00 00 00 00 00 01 F1 06  02 01 00 09 80 80 37 06  ..............7.
0620: B4 00 02 00 44 65 75 6C  6D 61 65 75 78 00 00 00  ....Deulmaeux...
0630: 00 00 00 00 01 F1 06 02  01 00 0B 80 80 56 06 B4  .............V..
0640: 00 02 00 44 65 6D 72 65  73 69 6E 61 75 78 00 00  ...Demresinaux..
0650: 00 00 00 01 F1 06 02 01  00 0D 80 80 75 06 B4 00  ............u...
0660: 02 00 45 70 68 65 61 6C  67 61 75 78 00 00 00 00  ..Ephealgaux....
0670: 00 00 01 F1 06 02 01 00  06 80 80 94 06 B4 00 02  ................
0680: 00 47 61 75 6C 64 65 76  61 6C 00 00 00 00 00 00  .Gauldeval......
0690: 00 01 F1 06 02 01 00 08  80 80 B3 06 B4 00 02 00  ................
06A0: 47 72 61 75 66 66 65 6D  61 72 74 00 00 00 00 00  Grauffemart.....
06B0: 01 F1 06 02 01 00 11 80  80 D2 06 B4 00 02 00 4D  ...............M
06C0: 69 67 61 69 66 6F 6E 67  75 74 00 00 00 00 00 01  igaifongut......
06D0: F1 06 02 01 00 13 80 80  F1 06 B4 00 02 00 52 6F  ..............Ro
06E0: 6D 69 64 69 61 6E 74 00  00 00 00 00 00 00 01 F1  midiant.........
06F0: 06 01 03 0C 02 0B 00 0D  80 80 F7 07 02 01 00 02  ................
0700: 80 80 1B 07 B4 00 02 00  41 72 6D 69 74 74 69 65  ........Armittie
0710: 00 00 00 00 00 00 00 00  01 F4 07 02 01 00 09 80  ................
0720: 80 3A 07 B4 00 02 00 43  61 64 65 70 75 72 65 00  .:.....Cadepure.
0730: 00 00 00 00 00 00 00 01  F4 07 02 01 00 0B 80 80  ................
0740: 59 07 B4 00 02 00 43 6C  65 61 72 69 74 65 00 00  Y.....Clearite..
0750: 00 00 00 00 00 00 01 F4  07 02 01 00 0D 80 80 78  ...............x
0760: 07 B4 00 02 00 45 70 69  6C 6C 65 76 65 00 00 00  .....Epilleve...
0770: 00 00 00 00 00 01 F4 07  02 01 00 06 80 80 97 07  ................
0780: B4 00 02 00 4C 69 61 62  65 6C 6C 65 00 00 00 00  ....Liabelle....
0790: 00 00 00 00 01 F4 07 02  01 00 08 80 80 B6 07 B4  ................
07A0: 00 02 00 4E 61 75 74 68  69 6D 61 00 00 00 00 00  ...Nauthima.....
07B0: 00 00 00 01 F4 07 02 01  00 11 80 80 D5 07 B4 00  ................
07C0: 02 00 52 61 64 69 6C 6C  65 00 00 00 00 00 00 00  ..Radille.......
07D0: 00 00 01 F4 07 02 01 00  13 80 80 F4 07 B4 00 02  ................
07E0: 00 56 69 6D 65 63 68 75  65 00 00 00 00 00 00 00  .Vimechue.......
07F0: 00 01 F4 07 01 03 0C 02  0B 00 06 80 80 FA 08 02  ................
0800: 01 00 02 80 80 1E 08 B4  00 02 00 42 61 6C 75 2D  ...........Balu-
0810: 46 61 6C 75 00 00 00 00  00 00 00 01 F7 08 02 01  Falu............
0820: 00 09 80 80 3D 08 B4 00  02 00 42 75 72 67 2D 4C  ....=.....Burg-L
0830: 61 64 61 72 67 00 00 00  00 00 01 F7 08 02 01 00  adarg...........
0840: 0B 80 80 5C 08 B4 00 02  00 45 68 67 6F 2D 52 79  ...\.....Ehgo-Ry
0850: 75 68 67 6F 00 00 00 00  00 01 F7 08 02 01 00 0D  uhgo............
0860: 80 80 7B 08 B4 00 02 00  4B 6F 6C 75 69 2D 50 65  ..{.....Kolui-Pe
0870: 6C 75 69 00 00 00 00 00  01 F7 08 02 01 00 06 80  lui.............
0880: 80 9A 08 B4 00 02 00 4E  6F 6B 75 6D 2D 41 6B 6B  .......Nokum-Akk
0890: 75 6D 00 00 00 00 00 01  F7 08 02 01 00 08 80 80  um..............
08A0: B9 08 B4 00 02 00 53 61  76 75 6C 2D 4B 69 76 75  ......Savul-Kivu
08B0: 6C 00 00 00 00 00 01 F7  08 02 01 00 11 80 80 D8  l...............
08C0: 08 B4 00 02 00 56 69 6E  6A 61 2D 4B 61 6E 6A 61  .....Vinja-Kanja
08D0: 00 00 00 00 00 01 F7 08  02 01 00 13 80 80 F7 08  ................
08E0: B4 00 02 00 59 61 72 67  61 2D 55 6D 69 67 61 00  ....Yarga-Umiga.
08F0: 00 00 00 00 01 F7 08 01  03 0C 02 0B 00 08 80 80  ................
0900: FD 09 02 01 00 02 80 80  21 09 B4 00 02 00 43 75  ........!.....Cu
0910: 70 61 70 61 00 00 00 00  00 00 00 00 00 00 01 FA  papa............
0920: 09 02 01 00 09 80 80 40  09 B4 00 02 00 4A 61 6A  .......@.....Jaj
0930: 75 6A 75 00 00 00 00 00  00 00 00 00 00 01 FA 09  uju.............
0940: 02 01 00 0B 80 80 5F 09  B4 00 02 00 4B 61 6C 6F  ......_.....Kalo
0950: 6B 6F 6B 6F 00 00 00 00  00 00 00 00 01 FA 09 02  koko............
0960: 01 00 0D 80 80 7E 09 B4  00 02 00 4D 61 68 6F 79  .....~.....Mahoy
0970: 61 79 61 00 00 00 00 00  00 00 00 01 FA 09 02 01  aya.............
0980: 00 06 80 80 9D 09 B4 00  02 00 50 61 6B 75 72 61  ..........Pakura
0990: 72 61 00 00 00 00 00 00  00 00 01 FA 09 02 01 00  ra..............
09A0: 08 80 80 BC 09 B4 00 02  00 52 69 70 6F 6B 65 6B  .........Ripokek
09B0: 65 00 00 00 00 00 00 00  00 01 FA 09 02 01 00 11  e...............
09C0: 80 80 DB 09 B4 00 02 00  59 61 77 61 77 61 00 00  ........Yawawa..
09D0: 00 00 00 00 00 00 00 00  01 FA 09 02 01 00 13 80  ................
09E0: 80 FA 09 B4 00 02 00 59  75 66 61 66 61 00 00 00  .......Yufafa...
09F0: 00 00 00 00 00 00 00 01  FA 09 01 03 0C 02 0B 00  ................
0A00: 11 80 80 00 0B 02 01 00  02 80 80 24 0A B4 00 02  ...........$....
0A10: 00 46 68 69 67 00 00 00  00 00 00 00 00 00 00 00  .Fhig...........
0A20: 00 01 FD 0A 02 01 00 09  80 80 43 0A B4 00 02 00  ..........C.....
0A30: 4B 68 75 6D 61 00 00 00  00 00 00 00 00 00 00 00  Khuma...........
0A40: 01 FD 0A 02 01 00 0B 80  80 62 0A B4 00 02 00 50  .........b.....P
0A50: 69 6D 79 00 00 00 00 00  00 00 00 00 00 00 00 01  imy.............
0A60: FD 0A 02 01 00 0D 80 80  81 0A B4 00 02 00 52 61  ..............Ra
0A70: 6B 61 00 00 00 00 00 00  00 00 00 00 00 00 01 FD  ka..............
0A80: 0A 02 01 00 06 80 80 A0  0A B4 00 02 00 53 61 68  .............Sah
0A90: 79 75 00 00 00 00 00 00  00 00 00 00 00 01 FD 0A  yu..............
0AA0: 02 01 00 08 80 80 BF 0A  B4 00 02 00 53 75 66 68  ............Sufh
0AB0: 69 00 00 00 00 00 00 00  00 00 00 00 01 FD 0A 02  i...............
0AC0: 01 00 11 80 80 DE 0A B4  00 02 00 54 73 75 69 6D  ...........Tsuim
0AD0: 00 00 00 00 00 00 00 00  00 00 00 01 FD 0A 02 01  ................
0AE0: 00 13 80 80 FD 0A B4 00  02 00 59 6F 6C 69 00 00  ..........Yoli..
0AF0: 00 00 00 00 00 00 00 00  00 00 01 FD 0A 01 03 0C  ................
0B00: 02 0B 00 13 80 80 03 0C  02 01 00 02 80 80 27 0B  ..............'.
0B10: B4 00 02 00 44 75 72 69  62 00 00 00 00 00 00 00  ....Durib.......
0B20: 00 00 00 00 01 00 0C 02  01 00 09 80 80 46 0B B4  .............F..
0B30: 00 02 00 44 7A 61 70 69  77 61 00 00 00 00 00 00  ...Dzapiwa......
0B40: 00 00 00 01 00 0C 02 01  00 0B 80 80 65 0B B4 00  ............e...
0B50: 02 00 4A 75 67 6F 77 61  00 00 00 00 00 00 00 00  ..Jugowa........
0B60: 00 00 01 00 0C 02 01 00  0D 80 80 84 0B B4 00 02  ................
0B70: 00 4D 75 67 69 64 6F 00  00 00 00 00 00 00 00 00  .Mugido.........
0B80: 00 01 00 0C 02 01 00 06  80 80 A3 0B B4 00 02 00  ................
0B90: 56 6F 6C 64 61 69 00 00  00 00 00 00 00 00 00 00  Voldai..........
0BA0: 01 00 0C 02 01 00 08 80  80 C2 0B B4 00 02 00 57  ...............W
0BB0: 61 67 77 65 69 00 00 00  00 00 00 00 00 00 00 01  agwei...........
0BC0: 00 0C 02 01 00 11 80 80  E1 0B B4 00 02 00 5A 61  ..............Za
0BD0: 79 61 67 00 00 00 00 00  00 00 00 00 00 00 01 00  yag.............
0BE0: 0C 02 01 00 13 80 80 00  0C B4 00 02 00 5A 6F 6C  .............Zol
0BF0: 64 6F 66 00 00 00 00 00  00 00 00 00 00 01 00 0C  dof.............
0C00: 01 03 0C 02 02 00 02 80  01 0F 0C B5 00 02 00 1B  ................
0C10: 03 02 00 02 80 1A 2B 18  1A 35 18 02 0B 00 02 80  ......+..5......
0C20: 80 1E 0D 02 01 00 02 80  80 42 0C B4 00 02 00 46  .........B.....F
0C30: 65 6C 69 7A 00 00 00 00  00 00 00 00 00 00 00 01  eliz............
0C40: 1B 0D 02 01 00 09 80 80  61 0C B4 00 02 00 46 65  ........a.....Fe
0C50: 72 64 69 6E 61 6E 64 00  00 00 00 00 00 00 01 1B  rdinand.........
0C60: 0D 02 01 00 0B 80 80 80  0C B4 00 02 00 47 75 6E  .............Gun
0C70: 6E 61 72 00 00 00 00 00  00 00 00 00 00 01 1B 0D  nar.............
0C80: 02 01 00 0D 80 80 9F 0C  B4 00 02 00 4D 61 73 73  ............Mass
0C90: 69 6D 6F 00 00 00 00 00  00 00 00 00 01 1B 0D 02  imo.............
0CA0: 01 00 06 80 80 BE 0C B4  00 02 00 4F 6C 64 72 69  ...........Oldri
0CB0: 63 68 00 00 00 00 00 00  00 00 00 01 1B 0D 02 01  ch..............
0CC0: 00 08 80 80 DD 0C B4 00  02 00 53 69 65 67 77 61  ..........Siegwa
0CD0: 72 64 00 00 00 00 00 00  00 00 01 1B 0D 02 01 00  rd..............
0CE0: 11 80 80 FC 0C B4 00 02  00 54 68 65 6F 62 61 6C  .........Theobal
0CF0: 64 00 00 00 00 00 00 00  00 01 1B 0D 02 01 00 13  d...............
0D00: 80 80 1B 0D B4 00 02 00  5A 65 6E 6A 69 00 00 00  ........Zenji...
0D10: 00 00 00 00 00 00 00 00  01 1B 0D 01 33 14 02 0B  ............3...
0D20: 00 09 80 80 21 0E 02 01  00 02 80 80 45 0D B4 00  ....!.......E...
0D30: 02 00 41 6D 65 72 69 74  61 00 00 00 00 00 00 00  ..Amerita.......
0D40: 00 00 01 1E 0E 02 01 00  09 80 80 64 0D B4 00 02  ...........d....
0D50: 00 42 65 61 74 72 69 63  65 00 00 00 00 00 00 00  .Beatrice.......
0D60: 00 01 1E 0E 02 01 00 0B  80 80 83 0D B4 00 02 00  ................
0D70: 48 65 6E 72 69 65 74 74  61 00 00 00 00 00 00 00  Henrietta.......
0D80: 01 1E 0E 02 01 00 0D 80  80 A2 0D B4 00 02 00 4A  ...............J
0D90: 65 73 69 6D 61 65 00 00  00 00 00 00 00 00 00 01  esimae..........
0DA0: 1E 0E 02 01 00 06 80 80  C1 0D B4 00 02 00 4B 61  ..............Ka
0DB0: 72 79 6E 00 00 00 00 00  00 00 00 00 00 00 01 1E  ryn.............
0DC0: 0E 02 01 00 08 80 80 E0  0D B4 00 02 00 4E 61 6E  .............Nan
0DD0: 61 6B 6F 00 00 00 00 00  00 00 00 00 00 01 1E 0E  ako.............
0DE0: 02 01 00 11 80 80 FF 0D  B4 00 02 00 53 68 61 72  ............Shar
0DF0: 6C 65 6E 65 00 00 00 00  00 00 00 00 01 1E 0E 02  lene............
0E00: 01 00 13 80 80 1E 0E B4  00 02 00 53 69 65 67 68  ...........Siegh
0E10: 69 6C 64 65 00 00 00 00  00 00 00 01 1E 0E 01 33  ilde...........3
0E20: 14 02 0B 00 0B 80 80 24  0F 02 01 00 02 80 80 48  .......$.......H
0E30: 0E B4 00 02 00 43 68 61  6E 61 6E 64 69 74 00 00  .....Chanandit..
0E40: 00 00 00 00 00 01 21 0F  02 01 00 09 80 80 67 0E  ......!.......g.
0E50: B4 00 02 00 44 65 75 6C  6D 61 65 75 78 00 00 00  ....Deulmaeux...
0E60: 00 00 00 00 01 21 0F 02  01 00 0B 80 80 86 0E B4  .....!..........
0E70: 00 02 00 44 65 6D 72 65  73 69 6E 61 75 78 00 00  ...Demresinaux..
0E80: 00 00 00 01 21 0F 02 01  00 0D 80 80 A5 0E B4 00  ....!...........
0E90: 02 00 45 70 68 65 61 6C  67 61 75 78 00 00 00 00  ..Ephealgaux....
0EA0: 00 00 01 21 0F 02 01 00  06 80 80 C4 0E B4 00 02  ...!............
0EB0: 00 47 61 75 6C 64 65 76  61 6C 00 00 00 00 00 00  .Gauldeval......
0EC0: 00 01 21 0F 02 01 00 08  80 80 E3 0E B4 00 02 00  ..!.............
0ED0: 47 72 61 75 66 66 65 6D  61 72 74 00 00 00 00 00  Grauffemart.....
0EE0: 01 21 0F 02 01 00 11 80  80 02 0F B4 00 02 00 4D  .!.............M
0EF0: 69 67 61 69 66 6F 6E 67  75 74 00 00 00 00 00 01  igaifongut......
0F00: 21 0F 02 01 00 13 80 80  21 0F B4 00 02 00 52 6F  !.......!.....Ro
0F10: 6D 69 64 69 61 6E 74 00  00 00 00 00 00 00 01 21  midiant........!
0F20: 0F 01 33 14 02 0B 00 0D  80 80 27 10 02 01 00 02  ..3.......'.....
0F30: 80 80 4B 0F B4 00 02 00  41 72 6D 69 74 74 69 65  ..K.....Armittie
0F40: 00 00 00 00 00 00 00 00  01 24 10 02 01 00 09 80  .........$......
0F50: 80 6A 0F B4 00 02 00 43  61 64 65 70 75 72 65 00  .j.....Cadepure.
0F60: 00 00 00 00 00 00 00 01  24 10 02 01 00 0B 80 80  ........$.......
0F70: 89 0F B4 00 02 00 43 6C  65 61 72 69 74 65 00 00  ......Clearite..
0F80: 00 00 00 00 00 00 01 24  10 02 01 00 0D 80 80 A8  .......$........
0F90: 0F B4 00 02 00 45 70 69  6C 6C 65 76 65 00 00 00  .....Epilleve...
0FA0: 00 00 00 00 00 01 24 10  02 01 00 06 80 80 C7 0F  ......$.........
0FB0: B4 00 02 00 4C 69 61 62  65 6C 6C 65 00 00 00 00  ....Liabelle....
0FC0: 00 00 00 00 01 24 10 02  01 00 08 80 80 E6 0F B4  .....$..........
0FD0: 00 02 00 4E 61 75 74 68  69 6D 61 00 00 00 00 00  ...Nauthima.....
0FE0: 00 00 00 01 24 10 02 01  00 11 80 80 05 10 B4 00  ....$...........
0FF0: 02 00 52 61 64 69 6C 6C  65 00 00 00 00 00 00 00  ..Radille.......
1000: 00 00 01 24 10 02 01 00  13 80 80 24 10 B4 00 02  ...$.......$....
1010: 00 56 69 6D 65 63 68 75  65 00 00 00 00 00 00 00  .Vimechue.......
1020: 00 01 24 10 01 33 14 02  0B 00 06 80 80 2A 11 02  ..$..3.......*..
1030: 01 00 02 80 80 4E 10 B4  00 02 00 42 61 6C 75 2D  .....N.....Balu-
1040: 46 61 6C 75 00 00 00 00  00 00 00 01 27 11 02 01  Falu........'...
1050: 00 09 80 80 6D 10 B4 00  02 00 42 75 72 67 2D 4C  ....m.....Burg-L
1060: 61 64 61 72 67 00 00 00  00 00 01 27 11 02 01 00  adarg......'....
1070: 0B 80 80 8C 10 B4 00 02  00 45 68 67 6F 2D 52 79  .........Ehgo-Ry
1080: 75 68 67 6F 00 00 00 00  00 01 27 11 02 01 00 0D  uhgo......'.....
1090: 80 80 AB 10 B4 00 02 00  4B 6F 6C 75 69 2D 50 65  ........Kolui-Pe
10A0: 6C 75 69 00 00 00 00 00  01 27 11 02 01 00 06 80  lui......'......
10B0: 80 CA 10 B4 00 02 00 4E  6F 6B 75 6D 2D 41 6B 6B  .......Nokum-Akk
10C0: 75 6D 00 00 00 00 00 01  27 11 02 01 00 08 80 80  um......'.......
10D0: E9 10 B4 00 02 00 53 61  76 75 6C 2D 4B 69 76 75  ......Savul-Kivu
10E0: 6C 00 00 00 00 00 01 27  11 02 01 00 11 80 80 08  l......'........
10F0: 11 B4 00 02 00 56 69 6E  6A 61 2D 4B 61 6E 6A 61  .....Vinja-Kanja
1100: 00 00 00 00 00 01 27 11  02 01 00 13 80 80 27 11  ......'.......'.
1110: B4 00 02 00 59 61 72 67  61 2D 55 6D 69 67 61 00  ....Yarga-Umiga.
1120: 00 00 00 00 01 27 11 01  33 14 02 0B 00 08 80 80  .....'..3.......
1130: 2D 12 02 01 00 02 80 80  51 11 B4 00 02 00 43 75  -.......Q.....Cu
1140: 70 61 70 61 00 00 00 00  00 00 00 00 00 00 01 2A  papa...........*
1150: 12 02 01 00 09 80 80 70  11 B4 00 02 00 4A 61 6A  .......p.....Jaj
1160: 75 6A 75 00 00 00 00 00  00 00 00 00 00 01 2A 12  uju...........*.
1170: 02 01 00 0B 80 80 8F 11  B4 00 02 00 4B 61 6C 6F  ............Kalo
1180: 6B 6F 6B 6F 00 00 00 00  00 00 00 00 01 2A 12 02  koko.........*..
1190: 01 00 0D 80 80 AE 11 B4  00 02 00 4D 61 68 6F 79  ...........Mahoy
11A0: 61 79 61 00 00 00 00 00  00 00 00 01 2A 12 02 01  aya.........*...
11B0: 00 06 80 80 CD 11 B4 00  02 00 50 61 6B 75 72 61  ..........Pakura
11C0: 72 61 00 00 00 00 00 00  00 00 01 2A 12 02 01 00  ra.........*....
11D0: 08 80 80 EC 11 B4 00 02  00 52 69 70 6F 6B 65 6B  .........Ripokek
11E0: 65 00 00 00 00 00 00 00  00 01 2A 12 02 01 00 11  e.........*.....
11F0: 80 80 0B 12 B4 00 02 00  59 61 77 61 77 61 00 00  ........Yawawa..
1200: 00 00 00 00 00 00 00 00  01 2A 12 02 01 00 13 80  .........*......
1210: 80 2A 12 B4 00 02 00 59  75 66 61 66 61 00 00 00  .*.....Yufafa...
1220: 00 00 00 00 00 00 00 01  2A 12 01 33 14 02 0B 00  ........*..3....
1230: 11 80 80 30 13 02 01 00  02 80 80 54 12 B4 00 02  ...0.......T....
1240: 00 46 68 69 67 00 00 00  00 00 00 00 00 00 00 00  .Fhig...........
1250: 00 01 2D 13 02 01 00 09  80 80 73 12 B4 00 02 00  ..-.......s.....
1260: 4B 68 75 6D 61 00 00 00  00 00 00 00 00 00 00 00  Khuma...........
1270: 01 2D 13 02 01 00 0B 80  80 92 12 B4 00 02 00 50  .-.............P
1280: 69 6D 79 00 00 00 00 00  00 00 00 00 00 00 00 01  imy.............
1290: 2D 13 02 01 00 0D 80 80  B1 12 B4 00 02 00 52 61  -.............Ra
12A0: 6B 61 00 00 00 00 00 00  00 00 00 00 00 00 01 2D  ka.............-
12B0: 13 02 01 00 06 80 80 D0  12 B4 00 02 00 53 61 68  .............Sah
12C0: 79 75 00 00 00 00 00 00  00 00 00 00 00 01 2D 13  yu............-.
12D0: 02 01 00 08 80 80 EF 12  B4 00 02 00 53 75 66 68  ............Sufh
12E0: 69 00 00 00 00 00 00 00  00 00 00 00 01 2D 13 02  i............-..
12F0: 01 00 11 80 80 0E 13 B4  00 02 00 54 73 75 69 6D  ...........Tsuim
1300: 00 00 00 00 00 00 00 00  00 00 00 01 2D 13 02 01  ............-...
1310: 00 13 80 80 2D 13 B4 00  02 00 59 6F 6C 69 00 00  ....-.....Yoli..
1320: 00 00 00 00 00 00 00 00  00 00 01 2D 13 01 33 14  ...........-..3.
1330: 02 0B 00 13 80 80 33 14  02 01 00 02 80 80 57 13  ......3.......W.
1340: B4 00 02 00 44 75 72 69  62 00 00 00 00 00 00 00  ....Durib.......
1350: 00 00 00 00 01 30 14 02  01 00 09 80 80 76 13 B4  .....0.......v..
1360: 00 02 00 44 7A 61 70 69  77 61 00 00 00 00 00 00  ...Dzapiwa......
1370: 00 00 00 01 30 14 02 01  00 0B 80 80 95 13 B4 00  ....0...........
1380: 02 00 4A 75 67 6F 77 61  00 00 00 00 00 00 00 00  ..Jugowa........
1390: 00 00 01 30 14 02 01 00  0D 80 80 B4 13 B4 00 02  ...0............
13A0: 00 4D 75 67 69 64 6F 00  00 00 00 00 00 00 00 00  .Mugido.........
13B0: 00 01 30 14 02 01 00 06  80 80 D3 13 B4 00 02 00  ..0.............
13C0: 56 6F 6C 64 61 69 00 00  00 00 00 00 00 00 00 00  Voldai..........
13D0: 01 30 14 02 01 00 08 80  80 F2 13 B4 00 02 00 57  .0.............W
13E0: 61 67 77 65 69 00 00 00  00 00 00 00 00 00 00 01  agwei...........
13F0: 30 14 02 01 00 11 80 80  11 14 B4 00 02 00 5A 61  0.............Za
1400: 79 61 67 00 00 00 00 00  00 00 00 00 00 00 01 30  yag............0
1410: 14 02 01 00 13 80 80 30  14 B4 00 02 00 5A 6F 6C  .......0.....Zol
1420: 64 6F 66 00 00 00 00 00  00 00 00 00 00 01 30 14  dof...........0.
1430: 01 33 14 02 02 00 02 80  01 3F 14 B5 00 02 00 1B  .3.......?......
1440: 1A 06 18 02 09 00 02 80  02 0B 16 02 0B 00 02 80  ................
1450: 80 83 14 02 09 00 09 80  80 62 14 B6 0F 23 80 01  .........b...#..
1460: 80 14 02 09 00 0B 80 80  71 14 B6 0F 24 80 01 80  ........q...$...
1470: 14 02 09 00 0D 80 80 80  14 B6 0F 25 80 01 80 14  ...........%....
1480: 01 0B 16 02 0B 00 09 80  80 BB 14 02 09 00 09 80  ................
1490: 80 9A 14 B6 0F 23 80 01  B8 14 02 09 00 0B 80 80  .....#..........
14A0: A9 14 B6 0F 24 80 01 B8  14 02 09 00 0D 80 80 B8  ....$...........
14B0: 14 B6 0F 25 80 01 B8 14  01 0B 16 02 0B 00 0B 80  ...%............
14C0: 80 F3 14 02 09 00 09 80  80 D2 14 B6 0F 23 80 01  .............#..
14D0: F0 14 02 09 00 0B 80 80  E1 14 B6 0F 24 80 01 F0  ............$...
14E0: 14 02 09 00 0D 80 80 F0  14 B6 0F 25 80 01 F0 14  ...........%....
14F0: 01 0B 16 02 0B 00 0D 80  80 2B 15 02 09 00 09 80  .........+......
1500: 80 0A 15 B6 0F 23 80 01  28 15 02 09 00 0B 80 80  .....#..(.......
1510: 19 15 B6 0F 24 80 01 28  15 02 09 00 0D 80 80 28  ....$..(.......(
1520: 15 B6 0F 25 80 01 28 15  01 0B 16 02 0B 00 06 80  ...%..(.........
1530: 80 63 15 02 09 00 09 80  80 42 15 B6 0F 26 80 01  .c.......B...&..
1540: 60 15 02 09 00 0B 80 80  51 15 B6 0F 27 80 01 60  `.......Q...'..`
1550: 15 02 09 00 0D 80 80 60  15 B6 0F 28 80 01 60 15  .......`...(..`.
1560: 01 0B 16 02 0B 00 08 80  80 9B 15 02 09 00 09 80  ................
1570: 80 7A 15 B6 0F 26 80 01  98 15 02 09 00 0B 80 80  .z...&..........
1580: 89 15 B6 0F 27 80 01 98  15 02 09 00 0D 80 80 98  ....'...........
1590: 15 B6 0F 28 80 01 98 15  01 0B 16 02 0B 00 11 80  ...(............
15A0: 80 D3 15 02 09 00 09 80  80 B2 15 B6 0F 29 80 01  .............)..
15B0: D0 15 02 09 00 0B 80 80  C1 15 B6 0F 2A 80 01 D0  ............*...
15C0: 15 02 09 00 0D 80 80 D0  15 B6 0F 2B 80 01 D0 15  ...........+....
15D0: 01 0B 16 02 0B 00 13 80  80 0B 16 02 09 00 09 80  ................
15E0: 80 EA 15 B6 0F 28 80 01  08 16 02 09 00 0B 80 80  .....(..........
15F0: F9 15 B6 0F 2C 80 01 08  16 02 09 00 0D 80 80 08  ....,...........
1600: 16 B6 0F 24 80 01 08 16  01 0B 16 0B 0B 00 B6 0B  ...$............
1610: 0B 00 0C 00 0D 00 0E 00  0F 00 10 00 11 00 02 80  ................
1620: 02 80 1B 1A 06 18 02 09  00 02 80 02 EE 17 02 0B  ................
1630: 00 02 80 80 66 16 02 09  00 09 80 80 45 16 B6 0F  ....f.......E...
1640: 23 80 01 63 16 02 09 00  0B 80 80 54 16 B6 0F 24  #..c.......T...$
1650: 80 01 63 16 02 09 00 0D  80 80 63 16 B6 0F 25 80  ..c.......c...%.
1660: 01 63 16 01 EE 17 02 0B  00 09 80 80 9E 16 02 09  .c..............
1670: 00 09 80 80 7D 16 B6 0F  23 80 01 9B 16 02 09 00  ....}...#.......
1680: 0B 80 80 8C 16 B6 0F 24  80 01 9B 16 02 09 00 0D  .......$........
1690: 80 80 9B 16 B6 0F 25 80  01 9B 16 01 EE 17 02 0B  ......%.........
16A0: 00 0B 80 80 D6 16 02 09  00 09 80 80 B5 16 B6 0F  ................
16B0: 23 80 01 D3 16 02 09 00  0B 80 80 C4 16 B6 0F 24  #..............$
16C0: 80 01 D3 16 02 09 00 0D  80 80 D3 16 B6 0F 25 80  ..............%.
16D0: 01 D3 16 01 EE 17 02 0B  00 0D 80 80 0E 17 02 09  ................
16E0: 00 09 80 80 ED 16 B6 0F  23 80 01 0B 17 02 09 00  ........#.......
16F0: 0B 80 80 FC 16 B6 0F 24  80 01 0B 17 02 09 00 0D  .......$........
1700: 80 80 0B 17 B6 0F 25 80  01 0B 17 01 EE 17 02 0B  ......%.........
1710: 00 06 80 80 46 17 02 09  00 09 80 80 25 17 B6 0F  ....F.......%...
1720: 26 80 01 43 17 02 09 00  0B 80 80 34 17 B6 0F 27  &..C.......4...'
1730: 80 01 43 17 02 09 00 0D  80 80 43 17 B6 0F 28 80  ..C.......C...(.
1740: 01 43 17 01 EE 17 02 0B  00 08 80 80 7E 17 02 09  .C..........~...
1750: 00 09 80 80 5D 17 B6 0F  26 80 01 7B 17 02 09 00  ....]...&..{....
1760: 0B 80 80 6C 17 B6 0F 27  80 01 7B 17 02 09 00 0D  ...l...'..{.....
1770: 80 80 7B 17 B6 0F 28 80  01 7B 17 01 EE 17 02 0B  ..{...(..{......
1780: 00 11 80 80 B6 17 02 09  00 09 80 80 95 17 B6 0F  ................
1790: 29 80 01 B3 17 02 09 00  0B 80 80 A4 17 B6 0F 2A  )..............*
17A0: 80 01 B3 17 02 09 00 0D  80 80 B3 17 B6 0F 2B 80  ..............+.
17B0: 01 B3 17 01 EE 17 02 0B  00 13 80 80 EE 17 02 09  ................
17C0: 00 09 80 80 CD 17 B6 0F  28 80 01 EB 17 02 09 00  ........(.......
17D0: 0B 80 80 DC 17 B6 0F 2C  80 01 EB 17 02 09 00 0D  .......,........
17E0: 80 80 EB 17 B6 0F 24 80  01 EB 17 01 EE 17 0B 0B  ......$.........
17F0: 00 B6 0B 0B 00 0C 00 0D  00 0E 00 0F 00 10 00 11  ................
1800: 00 12 00 13 00 1B 1A 35  18 1A 2A 19 1A 20 19 1A  .......5..*.. ..
1810: 81 1D 1A 96 1D 1A B6 1D  1A D6 1D 1A F6 1D 1A 23  ...............#
1820: 1D 1A 43 1D 1A 16 1E 1A  3E 1E 1B 41 02 80 0D 80  ..C.....>..A....
1830: 09 10 01 00 1B 41 06 80  11 80 09 10 0B 00 03 1E  .....A..........
1840: 17 02 80 02 0B 00 02 80  80 53 18 03 1F 17 02 80  .........S......
1850: 01 C3 18 02 0B 00 09 80  80 63 18 03 1F 17 09 80  .........c......
1860: 01 C3 18 02 0B 00 0B 80  80 73 18 03 1F 17 02 80  .........s......
1870: 01 C3 18 02 0B 00 0D 80  80 83 18 03 1F 17 09 80  ................
1880: 01 C3 18 02 0B 00 06 80  80 93 18 03 1F 17 02 80  ................
1890: 01 C3 18 02 0B 00 08 80  80 A3 18 03 1F 17 09 80  ................
18A0: 01 C3 18 02 0B 00 11 80  80 B3 18 03 1F 17 09 80  ................
18B0: 01 C3 18 02 0B 00 13 80  80 C3 18 03 1F 17 02 80  ................
18C0: 01 C3 18 02 1F 17 09 80  00 0B 19 02 87 7F 0B 80  ................
18D0: 80 DB 18 03 1E 17 09 80  01 0B 19 02 87 7F 06 80  ................
18E0: 80 EB 18 03 1E 17 09 80  01 0B 19 02 87 7F 11 80  ................
18F0: 80 FB 18 03 1E 17 09 80  01 0B 19 02 87 7F 13 80  ................
1900: 80 0B 19 03 1E 17 09 80  01 0B 19 1B 41 15 80 17  ............A...
1910: 80 09 10 06 00 1B 41 19  80 2D 80 09 10 08 00 1B  ......A..-......
1920: 41 2E 80 00 80 09 10 09  00 1B 1A 35 18 1A 0C 19  A..........5....
1930: 02 06 00 02 80 00 44 19  41 2F 80 30 80 09 10 0C  ......D.A/.0....
1940: 00 01 84 1C 02 0B 00 02  80 80 AC 19 02 06 00 09  ................
1950: 80 80 6B 19 3E 09 10 13  80 63 19 03 0C 00 2D 80  ..k.>....c....-.
1960: 01 68 19 03 0C 00 1D 80  01 A9 19 02 06 00 0B 80  .h..............
1970: 80 8A 19 3E 09 10 13 80  82 19 03 0C 00 08 80 01  ...>............
1980: 87 19 03 0C 00 06 80 01  A9 19 02 06 00 0D 80 80  ................
1990: A9 19 3E 09 10 13 80 A1  19 03 0C 00 09 80 01 A6  ..>.............
19A0: 19 03 0C 00 02 80 01 A9  19 01 84 1C 02 0B 00 09  ................
19B0: 80 80 14 1A 02 06 00 09  80 80 D3 19 3E 09 10 13  ............>...
19C0: 80 CB 19 03 0C 00 09 80  01 D0 19 03 0C 00 02 80  ................
19D0: 01 11 1A 02 06 00 0B 80  80 F2 19 3E 09 10 13 80  ...........>....
19E0: EA 19 03 0C 00 08 80 01  EF 19 03 0C 00 06 80 01  ................
19F0: 11 1A 02 06 00 0D 80 80  11 1A 3E 09 10 13 80 09  ..........>.....
1A00: 1A 03 0C 00 0D 80 01 0E  1A 03 0C 00 0B 80 01 11  ................
1A10: 1A 01 84 1C 02 0B 00 0B  80 80 7C 1A 02 06 00 09  ..........|.....
1A20: 80 80 3B 1A 3E 09 10 13  80 33 1A 03 0C 00 0D 80  ..;.>....3......
1A30: 01 38 1A 03 0C 00 0B 80  01 79 1A 02 06 00 0B 80  .8.......y......
1A40: 80 5A 1A 3E 09 10 13 80  52 1A 03 0C 00 04 80 01  .Z.>....R.......
1A50: 57 1A 03 0C 00 31 80 01  79 1A 02 06 00 0D 80 80  W....1..y.......
1A60: 79 1A 3E 09 10 13 80 71  1A 03 0C 00 2D 80 01 76  y.>....q....-..v
1A70: 1A 03 0C 00 1D 80 01 79  1A 01 84 1C 02 0B 00 0D  .......y........
1A80: 80 80 E4 1A 02 06 00 09  80 80 A3 1A 3E 09 10 13  ............>...
1A90: 80 9B 1A 03 0C 00 09 80  01 A0 1A 03 0C 00 02 80  ................
1AA0: 01 E1 1A 02 06 00 0B 80  80 C2 1A 3E 09 10 13 80  ...........>....
1AB0: BA 1A 03 0C 00 1B 80 01  BF 1A 03 0C 00 19 80 01  ................
1AC0: E1 1A 02 06 00 0D 80 80  E1 1A 3E 09 10 13 80 D9  ..........>.....
1AD0: 1A 03 0C 00 13 80 01 DE  1A 03 0C 00 11 80 01 E1  ................
1AE0: 1A 01 84 1C 02 0B 00 06  80 80 4C 1B 02 06 00 09  ..........L.....
1AF0: 80 80 0B 1B 3E 09 10 13  80 03 1B 03 0C 00 08 80  ....>...........
1B00: 01 08 1B 03 0C 00 06 80  01 49 1B 02 06 00 0B 80  .........I......
1B10: 80 2A 1B 3E 09 10 13 80  22 1B 03 0C 00 0D 80 01  .*.>....".......
1B20: 27 1B 03 0C 00 0B 80 01  49 1B 02 06 00 0D 80 80  '.......I.......
1B30: 49 1B 3E 09 10 13 80 41  1B 03 0C 00 13 80 01 46  I.>....A.......F
1B40: 1B 03 0C 00 11 80 01 49  1B 01 84 1C 02 0B 00 08  .......I........
1B50: 80 80 B4 1B 02 06 00 09  80 80 73 1B 3E 09 10 13  ..........s.>...
1B60: 80 6B 1B 03 0C 00 0D 80  01 70 1B 03 0C 00 0B 80  .k.......p......
1B70: 01 B1 1B 02 06 00 0B 80  80 92 1B 3E 09 10 13 80  ...........>....
1B80: 8A 1B 03 0C 00 13 80 01  8F 1B 03 0C 00 11 80 01  ................
1B90: B1 1B 02 06 00 0D 80 80  B1 1B 3E 09 10 13 80 A9  ..........>.....
1BA0: 1B 03 0C 00 09 80 01 AE  1B 03 0C 00 02 80 01 B1  ................
1BB0: 1B 01 84 1C 02 0B 00 11  80 80 1C 1C 02 06 00 09  ................
1BC0: 80 80 DB 1B 3E 09 10 13  80 D3 1B 03 0C 00 17 80  ....>...........
1BD0: 01 D8 1B 03 0C 00 15 80  01 19 1C 02 06 00 0B 80  ................
1BE0: 80 FA 1B 3E 09 10 13 80  F2 1B 03 0C 00 1B 80 01  ...>............
1BF0: F7 1B 03 0C 00 19 80 01  19 1C 02 06 00 0D 80 80  ................
1C00: 19 1C 3E 09 10 13 80 11  1C 03 0C 00 2D 80 01 16  ..>.........-...
1C10: 1C 03 0C 00 1D 80 01 19  1C 01 84 1C 02 0B 00 13  ................
1C20: 80 80 84 1C 02 06 00 09  80 80 43 1C 3E 09 10 13  ..........C.>...
1C30: 80 3B 1C 03 0C 00 08 80  01 40 1C 03 0C 00 06 80  .;.......@......
1C40: 01 81 1C 02 06 00 0B 80  80 62 1C 3E 09 10 13 80  .........b.>....
1C50: 5A 1C 03 0C 00 2D 80 01  5F 1C 03 0C 00 1D 80 01  Z....-.._.......
1C60: 81 1C 02 06 00 0D 80 80  81 1C 3E 09 10 13 80 79  ..........>....y
1C70: 1C 03 0C 00 1B 80 01 7E  1C 03 0C 00 19 80 01 81  .......~........
1C80: 1C 01 84 1C 1B 40 32 80  33 80 01 10 09 80 43 00  .....@2.3.....C.
1C90: 43 01 1B 40 32 80 33 80  01 10 0B 80 43 00 43 01  C..@2.3.....C.C.
1CA0: 1B 40 32 80 33 80 01 10  0D 80 43 00 43 01 1B 40  .@2.3.....C.C..@
1CB0: 32 80 33 80 01 10 06 80  43 00 43 01 1B 40 32 80  2.3.....C.C..@2.
1CC0: 33 80 01 10 08 80 43 00  43 01 1B 40 32 80 33 80  3.....C.C..@2.3.
1CD0: 01 10 11 80 43 00 43 01  1B 40 32 80 33 80 01 10  ....C.C..@2.3...
1CE0: 13 80 43 00 43 01 1B 40  32 80 33 80 01 10 15 80  ..C.C..@2.3.....
1CF0: 43 00 43 01 1B 40 32 80  33 80 01 10 19 80 43 00  C.C..@2.3.....C.
1D00: 43 01 1B 1A 35 18 03 0A  00 0B 00 02 0A 00 08 80  C...5...........
1D10: 04 18 1D 08 0A 00 09 80  14 0A 00 19 80 07 0A 00  ................
1D20: 17 80 1B 03 16 00 02 80  03 17 00 02 80 41 2F 80  .............A/.
1D30: 30 80 08 10 16 00 41 02  80 0D 80 07 10 17 00 1A  0.....A.........
1D40: C9 43 1B 03 16 00 02 80  41 32 80 34 80 08 10 16  .C......A2.4....
1D50: 00 3E 07 10 2F 80 67 1D  41 02 80 0D 80 07 10 17  .>../.g.A.......
1D60: 00 1A B1 49 01 80 1D 41  02 80 0D 80 07 10 17 00  ...I...A........
1D70: 02 17 00 02 80 80 7B 1D  01 80 1D 03 13 00 02 80  ......{.........
1D80: 1B 03 16 00 02 80 41 02  80 0D 80 08 10 16 00 1A  ......A.........
1D90: 16 19 1A 10 2F 1B 03 15  00 02 80 03 16 00 02 80  ..../...........
1DA0: 41 11 80 13 80 07 10 15  00 41 06 80 13 80 08 10  A........A......
1DB0: 16 00 1A 15 37 1B 03 15  00 02 80 03 16 00 02 80  ....7...........
1DC0: 41 15 80 17 80 07 10 15  00 41 15 80 1B 80 08 10  A........A......
1DD0: 16 00 1A 42 3A 1B 03 15  00 02 80 03 16 00 02 80  ...B:...........
1DE0: 41 19 80 1B 80 07 10 15  00 41 1D 80 04 80 08 10  A........A......
1DF0: 16 00 1A 6F 3D 1B 03 15  00 02 80 03 16 00 02 80  ...o=...........
1E00: 41 1D 80 2D 80 07 10 15  00 41 35 80 00 80 08 10  A..-.....A5.....
1E10: 16 00 1A 9C 40 1B 41 02  80 0D 80 06 10 14 00 1A  ....@.A.........
1E20: 35 18 1A 8D 4A 41 06 80  13 80 06 10 14 00 1A 90  5...JA..........
1E30: 4B 41 15 80 1B 80 06 10  14 00 1A DA 4B 1B 41 36  KA..........K.A6
1E40: 80 32 80 07 10 00 00 02  00 00 09 80 80 57 1E 03  .2...........W..
1E50: 12 00 37 80 01 A0 1F 02  00 00 0B 80 80 67 1E 03  ..7..........g..
1E60: 12 00 38 80 01 A0 1F 02  00 00 0D 80 80 77 1E 03  ..8..........w..
1E70: 12 00 39 80 01 A0 1F 02  00 00 06 80 80 87 1E 03  ..9.............
1E80: 12 00 3A 80 01 A0 1F 02  00 00 08 80 80 97 1E 03  ..:.............
1E90: 12 00 3B 80 01 A0 1F 02  00 00 11 80 80 A7 1E 03  ..;.............
1EA0: 12 00 3C 80 01 A0 1F 02  00 00 13 80 80 A0 1F 41  ..<............A
1EB0: 02 80 13 80 03 10 00 00  02 00 00 02 80 80 C8 1E  ................
1EC0: 03 12 00 37 80 01 9D 1F  02 00 00 09 80 80 D8 1E  ...7............
1ED0: 03 12 00 3D 80 01 9D 1F  02 00 00 0B 80 80 E8 1E  ...=............
1EE0: 03 12 00 3E 80 01 9D 1F  02 00 00 0D 80 80 F8 1E  ...>............
1EF0: 03 12 00 3F 80 01 9D 1F  02 00 00 06 80 80 08 1F  ...?............
1F00: 03 12 00 40 80 01 9D 1F  02 00 00 08 80 80 18 1F  ...@............
1F10: 03 12 00 41 80 01 9D 1F  02 00 00 11 80 80 28 1F  ...A..........(.
1F20: 03 12 00 42 80 01 9D 1F  02 00 00 13 80 80 3D 1F  ...B..........=.
1F30: 03 12 00 43 80 03 13 00  43 80 01 9D 1F 02 00 00  ...C....C.......
1F40: 15 80 80 4D 1F 03 12 00  44 80 01 9D 1F 02 00 00  ...M....D.......
1F50: 17 80 80 5D 1F 03 12 00  45 80 01 9D 1F 02 00 00  ...]....E.......
1F60: 19 80 80 6D 1F 03 12 00  46 80 01 9D 1F 02 00 00  ...m....F.......
1F70: 1B 80 80 7D 1F 03 12 00  47 80 01 9D 1F 02 00 00  ...}....G.......
1F80: 1D 80 80 8D 1F 03 12 00  48 80 01 9D 1F 02 00 00  ........H.......
1F90: 2D 80 80 9D 1F 03 12 00  49 80 01 9D 1F 01 A0 1F  -.......I.......
1FA0: 3E 03 10 15 80 30 20 41  17 80 04 80 03 10 00 00  >....0 A........
1FB0: 02 00 00 02 80 80 C0 1F  03 13 00 4A 80 01 30 20  ...........J..0 
1FC0: 02 00 00 09 80 80 D0 1F  03 13 00 4B 80 01 30 20  ...........K..0 
1FD0: 02 00 00 0B 80 80 E0 1F  03 13 00 4C 80 01 30 20  ...........L..0 
1FE0: 02 00 00 0D 80 80 F0 1F  03 13 00 4D 80 01 30 20  ...........M..0 
1FF0: 02 00 00 06 80 80 00 20  03 13 00 4E 80 01 30 20  ....... ...N..0 
2000: 02 00 00 08 80 80 10 20  03 13 00 4F 80 01 30 20  ....... ...O..0 
2010: 02 00 00 11 80 80 20 20  03 13 00 50 80 01 30 20  ......  ...P..0 
2020: 02 00 00 13 80 80 30 20  03 13 00 51 80 01 30 20  ......0 ...Q..0 
2030: 41 52 80 34 80 07 10 00  00 02 00 00 09 80 80 49  AR.4...........I
2040: 20 03 0D 00 53 80 01 F8  21 02 00 00 0B 80 80 59   ...S...!......Y
2050: 20 03 0D 00 54 80 01 F8  21 02 00 00 0D 80 80 69   ...T...!......i
2060: 20 03 0D 00 55 80 01 F8  21 02 00 00 06 80 80 79   ...U...!......y
2070: 20 03 0D 00 56 80 01 F8  21 02 00 00 08 80 80 89   ...V...!.......
2080: 20 03 0D 00 57 80 01 F8  21 02 00 00 11 80 80 99   ...W...!.......
2090: 20 03 0D 00 58 80 01 F8  21 02 00 00 13 80 80 F8   ...X...!.......
20A0: 21 41 35 80 30 80 03 10  00 00 02 00 00 02 80 80  !A5.0...........
20B0: 35 21 02 0B 00 02 80 80  C2 20 03 0D 00 59 80 01  5!....... ...Y..
20C0: 32 21 02 0B 00 09 80 80  D2 20 03 0D 00 3B 80 01  2!....... ...;..
20D0: 32 21 02 0B 00 0B 80 80  E2 20 03 0D 00 59 80 01  2!....... ...Y..
20E0: 32 21 02 0B 00 0D 80 80  F2 20 03 0D 00 3B 80 01  2!....... ...;..
20F0: 32 21 02 0B 00 06 80 80  02 21 03 0D 00 59 80 01  2!.......!...Y..
2100: 32 21 02 0B 00 08 80 80  12 21 03 0D 00 3B 80 01  2!.......!...;..
2110: 32 21 02 0B 00 11 80 80  22 21 03 0D 00 3B 80 01  2!......"!...;..
2120: 32 21 02 0B 00 13 80 80  32 21 03 0D 00 59 80 01  2!......2!...Y..
2130: 32 21 01 F5 21 02 00 00  09 80 80 45 21 03 0D 00  2!..!......E!...
2140: 5A 80 01 F5 21 02 00 00  0B 80 80 55 21 03 0D 00  Z...!......U!...
2150: 5B 80 01 F5 21 02 00 00  0D 80 80 65 21 03 0D 00  [...!......e!...
2160: 39 80 01 F5 21 02 00 00  06 80 80 75 21 03 0D 00  9...!......u!...
2170: 3A 80 01 F5 21 02 00 00  08 80 80 85 21 03 0D 00  :...!.......!...
2180: 5C 80 01 F5 21 02 00 00  11 80 80 95 21 03 0D 00  \...!.......!...
2190: 58 80 01 F5 21 02 00 00  13 80 80 A5 21 03 0D 00  X...!.......!...
21A0: 58 80 01 F5 21 02 00 00  15 80 80 B5 21 03 0D 00  X...!.......!...
21B0: 5D 80 01 F5 21 02 00 00  17 80 80 C5 21 03 0D 00  ]...!.......!...
21C0: 5E 80 01 F5 21 02 00 00  19 80 80 D5 21 03 0D 00  ^...!.......!...
21D0: 5F 80 01 F5 21 02 00 00  1B 80 80 E5 21 03 0D 00  _...!.......!...
21E0: 60 80 01 F5 21 02 00 00  1D 80 80 F5 21 03 0D 00  `...!.......!...
21F0: 61 80 01 F5 21 01 F8 21  41 62 80 33 80 07 10 00  a...!..!Ab.3....
2200: 00 02 00 00 17 80 80 20  22 03 0E 00 63 80 03 0F  ....... "...c...
2210: 00 63 80 03 10 00 63 80  03 11 00 63 80 01 0F 2F  .c....c....c.../
2220: 02 00 00 19 80 80 23 23  02 0B 00 02 80 80 47 22  ......##......G"
2230: 03 0E 00 64 80 03 0F 00  64 80 03 10 00 64 80 03  ...d....d....d..
2240: 11 00 64 80 01 20 23 02  0B 00 09 80 80 66 22 03  ..d.. #......f".
2250: 0E 00 65 80 03 0F 00 65  80 03 10 00 65 80 03 11  ..e....e....e...
2260: 00 65 80 01 20 23 02 0B  00 0B 80 80 85 22 03 0E  .e.. #......."..
2270: 00 64 80 03 0F 00 64 80  03 10 00 64 80 03 11 00  .d....d....d....
2280: 64 80 01 20 23 02 0B 00  0D 80 80 A4 22 03 0E 00  d.. #......."...
2290: 65 80 03 0F 00 65 80 03  10 00 65 80 03 11 00 65  e....e....e....e
22A0: 80 01 20 23 02 0B 00 06  80 80 C3 22 03 0E 00 64  .. #......."...d
22B0: 80 03 0F 00 64 80 03 10  00 64 80 03 11 00 64 80  ....d....d....d.
22C0: 01 20 23 02 0B 00 08 80  80 E2 22 03 0E 00 65 80  . #......."...e.
22D0: 03 0F 00 65 80 03 10 00  65 80 03 11 00 65 80 01  ...e....e....e..
22E0: 20 23 02 0B 00 11 80 80  01 23 03 0E 00 65 80 03   #.......#...e..
22F0: 0F 00 65 80 03 10 00 65  80 03 11 00 65 80 01 20  ..e....e....e.. 
2300: 23 02 0B 00 13 80 80 20  23 03 0E 00 64 80 03 0F  #...... #...d...
2310: 00 64 80 03 10 00 64 80  03 11 00 64 80 01 20 23  .d....d....d.. #
2320: 01 0F 2F 02 00 00 1B 80  80 26 24 02 0B 00 02 80  ../......&$.....
2330: 80 4A 23 03 0E 00 59 80  03 0F 00 59 80 03 10 00  .J#...Y....Y....
2340: 59 80 03 11 00 59 80 01  23 24 02 0B 00 09 80 80  Y....Y..#$......
2350: 69 23 03 0E 00 3B 80 03  0F 00 3B 80 03 10 00 3B  i#...;....;....;
2360: 80 03 11 00 3B 80 01 23  24 02 0B 00 0B 80 80 88  ....;..#$.......
2370: 23 03 0E 00 59 80 03 0F  00 59 80 03 10 00 59 80  #...Y....Y....Y.
2380: 03 11 00 59 80 01 23 24  02 0B 00 0D 80 80 A7 23  ...Y..#$.......#
2390: 03 0E 00 3B 80 03 0F 00  3B 80 03 10 00 3B 80 03  ...;....;....;..
23A0: 11 00 3B 80 01 23 24 02  0B 00 06 80 80 C6 23 03  ..;..#$.......#.
23B0: 0E 00 59 80 03 0F 00 59  80 03 10 00 59 80 03 11  ..Y....Y....Y...
23C0: 00 59 80 01 23 24 02 0B  00 08 80 80 E5 23 03 0E  .Y..#$.......#..
23D0: 00 3B 80 03 0F 00 3B 80  03 10 00 3B 80 03 11 00  .;....;....;....
23E0: 3B 80 01 23 24 02 0B 00  11 80 80 04 24 03 0E 00  ;..#$.......$...
23F0: 3B 80 03 0F 00 3B 80 03  10 00 3B 80 03 11 00 3B  ;....;....;....;
2400: 80 01 23 24 02 0B 00 13  80 80 23 24 03 0E 00 59  ..#$......#$...Y
2410: 80 03 0F 00 59 80 03 10  00 59 80 03 11 00 59 80  ....Y....Y....Y.
2420: 01 23 24 01 0F 2F 02 00  00 09 80 80 BA 24 02 0B  .#$../.......$..
2430: 00 02 80 80 3E 24 03 0E  00 66 80 01 AE 24 02 0B  ....>$...f...$..
2440: 00 09 80 80 4E 24 03 0E  00 67 80 01 AE 24 02 0B  ....N$...g...$..
2450: 00 0B 80 80 5E 24 03 0E  00 66 80 01 AE 24 02 0B  ....^$...f...$..
2460: 00 0D 80 80 6E 24 03 0E  00 67 80 01 AE 24 02 0B  ....n$...g...$..
2470: 00 06 80 80 7E 24 03 0E  00 66 80 01 AE 24 02 0B  ....~$...f...$..
2480: 00 08 80 80 8E 24 03 0E  00 67 80 01 AE 24 02 0B  .....$...g...$..
2490: 00 11 80 80 9E 24 03 0E  00 67 80 01 AE 24 02 0B  .....$...g...$..
24A0: 00 13 80 80 AE 24 03 0E  00 66 80 01 AE 24 1A B6  .....$...f...$..
24B0: 1D 1A D6 1D 1A F6 1D 01  0F 2F 02 00 00 0B 80 80  ........./......
24C0: 4E 25 02 0B 00 02 80 80  D2 24 03 0E 00 68 80 01  N%.......$...h..
24D0: 42 25 02 0B 00 09 80 80  E2 24 03 0E 00 69 80 01  B%.......$...i..
24E0: 42 25 02 0B 00 0B 80 80  F2 24 03 0E 00 68 80 01  B%.......$...h..
24F0: 42 25 02 0B 00 0D 80 80  02 25 03 0E 00 69 80 01  B%.......%...i..
2500: 42 25 02 0B 00 06 80 80  12 25 03 0E 00 68 80 01  B%.......%...h..
2510: 42 25 02 0B 00 08 80 80  22 25 03 0E 00 69 80 01  B%......"%...i..
2520: 42 25 02 0B 00 11 80 80  32 25 03 0E 00 69 80 01  B%......2%...i..
2530: 42 25 02 0B 00 13 80 80  42 25 03 0E 00 68 80 01  B%......B%...h..
2540: 42 25 1A B6 1D 1A D6 1D  1A F6 1D 01 0F 2F 02 00  B%.........../..
2550: 00 13 80 80 E2 25 02 0B  00 02 80 80 66 25 03 0E  .....%......f%..
2560: 00 6A 80 01 D6 25 02 0B  00 09 80 80 76 25 03 0E  .j...%......v%..
2570: 00 6B 80 01 D6 25 02 0B  00 0B 80 80 86 25 03 0E  .k...%.......%..
2580: 00 6A 80 01 D6 25 02 0B  00 0D 80 80 96 25 03 0E  .j...%.......%..
2590: 00 6B 80 01 D6 25 02 0B  00 06 80 80 A6 25 03 0E  .k...%.......%..
25A0: 00 6A 80 01 D6 25 02 0B  00 08 80 80 B6 25 03 0E  .j...%.......%..
25B0: 00 6B 80 01 D6 25 02 0B  00 11 80 80 C6 25 03 0E  .k...%.......%..
25C0: 00 6B 80 01 D6 25 02 0B  00 13 80 80 D6 25 03 0E  .k...%.......%..
25D0: 00 6A 80 01 D6 25 1A B6  1D 1A D6 1D 1A F6 1D 01  .j...%..........
25E0: 0F 2F 02 00 00 0D 80 80  20 26 02 0B 00 08 80 00  ./...... &......
25F0: 09 26 03 0E 00 6C 80 03  0F 00 6C 80 03 10 00 6C  .&...l....l....l
2600: 80 03 11 00 6C 80 01 1D  26 03 0E 00 6D 80 03 0F  ....l...&...m...
2610: 00 6D 80 03 10 00 6D 80  03 11 00 6D 80 01 0F 2F  .m....m....m.../
2620: 02 00 00 06 80 80 5E 26  02 0B 00 08 80 00 47 26  ......^&......G&
2630: 03 0E 00 6E 80 03 0F 00  6E 80 03 10 00 6E 80 03  ...n....n....n..
2640: 11 00 6E 80 01 5B 26 03  0E 00 6F 80 03 0F 00 6F  ..n..[&...o....o
2650: 80 03 10 00 6F 80 03 11  00 6F 80 01 0F 2F 02 00  ....o....o.../..
2660: 00 15 80 80 9C 26 02 0B  00 08 80 00 85 26 03 0E  .....&.......&..
2670: 00 70 80 03 0F 00 70 80  03 10 00 70 80 03 11 00  .p....p....p....
2680: 70 80 01 99 26 03 0E 00  71 80 03 0F 00 71 80 03  p...&...q....q..
2690: 10 00 71 80 03 11 00 71  80 01 0F 2F 02 00 00 1D  ..q....q.../....
26A0: 80 80 9F 27 02 0B 00 02  80 80 C3 26 03 0E 00 5B  ...'.......&...[
26B0: 80 03 0F 00 5B 80 03 10  00 5B 80 03 11 00 5B 80  ....[....[....[.
26C0: 01 9C 27 02 0B 00 09 80  80 E2 26 03 0E 00 72 80  ..'.......&...r.
26D0: 03 0F 00 72 80 03 10 00  72 80 03 11 00 72 80 01  ...r....r....r..
26E0: 9C 27 02 0B 00 0B 80 80  01 27 03 0E 00 5B 80 03  .'.......'...[..
26F0: 0F 00 5B 80 03 10 00 5B  80 03 11 00 5B 80 01 9C  ..[....[....[...
2700: 27 02 0B 00 0D 80 80 20  27 03 0E 00 72 80 03 0F  '...... '...r...
2710: 00 72 80 03 10 00 72 80  03 11 00 72 80 01 9C 27  .r....r....r...'
2720: 02 0B 00 06 80 80 3F 27  03 0E 00 5B 80 03 0F 00  ......?'...[....
2730: 5B 80 03 10 00 5B 80 03  11 00 5B 80 01 9C 27 02  [....[....[...'.
2740: 0B 00 08 80 80 5E 27 03  0E 00 72 80 03 0F 00 72  .....^'...r....r
2750: 80 03 10 00 72 80 03 11  00 72 80 01 9C 27 02 0B  ....r....r...'..
2760: 00 11 80 80 7D 27 03 0E  00 72 80 03 0F 00 72 80  ....}'...r....r.
2770: 03 10 00 72 80 03 11 00  72 80 01 9C 27 02 0B 00  ...r....r...'...
2780: 13 80 80 9C 27 03 0E 00  5B 80 03 0F 00 5B 80 03  ....'...[....[..
2790: 10 00 5B 80 03 11 00 5B  80 01 9C 27 01 0F 2F 02  ..[....[...'../.
27A0: 00 00 08 80 80 BD 27 03  0D 00 02 80 03 0E 00 73  ......'........s
27B0: 80 1A B6 1D 1A D6 1D 1A  F6 1D 01 0F 2F 02 00 00  ............/...
27C0: 11 80 80 57 28 03 0E 00  56 80 03 0F 00 58 80 03  ...W(...V....X..
27D0: 11 00 56 80 02 0B 00 02  80 80 E4 27 03 10 00 68  ..V........'...h
27E0: 80 01 54 28 02 0B 00 09  80 80 F4 27 03 10 00 69  ..T(.......'...i
27F0: 80 01 54 28 02 0B 00 0B  80 80 04 28 03 10 00 68  ..T(.......(...h
2800: 80 01 54 28 02 0B 00 0D  80 80 14 28 03 10 00 69  ..T(.......(...i
2810: 80 01 54 28 02 0B 00 06  80 80 24 28 03 10 00 68  ..T(......$(...h
2820: 80 01 54 28 02 0B 00 08  80 80 34 28 03 10 00 69  ..T(......4(...i
2830: 80 01 54 28 02 0B 00 11  80 80 44 28 03 10 00 69  ..T(......D(...i
2840: 80 01 54 28 02 0B 00 13  80 80 54 28 03 10 00 68  ..T(......T(...h
2850: 80 01 54 28 01 0F 2F 02  00 00 2D 80 80 75 28 03  ..T(../...-..u(.
2860: 0D 00 74 80 03 0E 00 74  80 1A B6 1D 1A D6 1D 1A  ..t....t........
2870: F6 1D 01 0F 2F 02 00 00  31 80 80 93 28 03 0D 00  ..../...1...(...
2880: 75 80 03 0E 00 75 80 1A  B6 1D 1A D6 1D 1A F6 1D  u....u..........
2890: 01 0F 2F 02 00 00 04 80  80 0F 2F 41 32 80 33 80  ../......./A2.3.
28A0: 03 10 00 00 02 00 00 02  80 80 C2 28 03 0D 00 76  ...........(...v
28B0: 80 03 0E 00 76 80 1A B6  1D 1A D6 1D 1A F6 1D 01  ....v...........
28C0: 0C 2F 02 00 00 09 80 80  E6 28 03 0D 00 38 80 03  ./.......(...8..
28D0: 0E 00 77 80 03 0F 00 77  80 03 10 00 77 80 03 11  ..w....w....w...
28E0: 00 77 80 01 0C 2F 02 00  00 0B 80 80 0A 29 03 0D  .w.../.......)..
28F0: 00 78 80 03 0E 00 78 80  03 0F 00 78 80 03 10 00  .x....x....x....
2900: 78 80 03 11 00 78 80 01  0C 2F 02 00 00 11 80 80  x....x.../......
2910: 2E 29 03 0D 00 79 80 03  0E 00 79 80 03 0F 00 79  .)...y....y....y
2920: 80 03 10 00 79 80 03 11  00 79 80 01 0C 2F 02 00  ....y....y.../..
2930: 00 13 80 80 31 2A 02 0B  00 02 80 80 55 29 03 0E  ....1*......U)..
2940: 00 7A 80 03 0F 00 7A 80  03 10 00 7A 80 03 11 00  .z....z....z....
2950: 7A 80 01 2E 2A 02 0B 00  09 80 80 74 29 03 0E 00  z...*......t)...
2960: 7B 80 03 0F 00 7B 80 03  10 00 7B 80 03 11 00 7B  {....{....{....{
2970: 80 01 2E 2A 02 0B 00 0B  80 80 93 29 03 0E 00 7A  ...*.......)...z
2980: 80 03 0F 00 7A 80 03 10  00 7A 80 03 11 00 7A 80  ....z....z....z.
2990: 01 2E 2A 02 0B 00 0D 80  80 B2 29 03 0E 00 7B 80  ..*.......)...{.
29A0: 03 0F 00 7B 80 03 10 00  7B 80 03 11 00 7B 80 01  ...{....{....{..
29B0: 2E 2A 02 0B 00 06 80 80  D1 29 03 0E 00 7A 80 03  .*.......)...z..
29C0: 0F 00 7A 80 03 10 00 7A  80 03 11 00 7A 80 01 2E  ..z....z....z...
29D0: 2A 02 0B 00 08 80 80 F0  29 03 0E 00 7B 80 03 0F  *.......)...{...
29E0: 00 7B 80 03 10 00 7B 80  03 11 00 7B 80 01 2E 2A  .{....{....{...*
29F0: 02 0B 00 11 80 80 0F 2A  03 0E 00 7B 80 03 0F 00  .......*...{....
2A00: 7B 80 03 10 00 7B 80 03  11 00 7B 80 01 2E 2A 02  {....{....{...*.
2A10: 0B 00 13 80 80 2E 2A 03  0E 00 7A 80 03 0F 00 7A  ......*...z....z
2A20: 80 03 10 00 7A 80 03 11  00 7A 80 01 2E 2A 01 0C  ....z....z...*..
2A30: 2F 02 00 00 0D 80 80 EA  2A 02 0B 00 02 80 80 4E  /.......*......N
2A40: 2A 03 0E 00 39 80 03 10  00 39 80 01 E1 2A 02 0B  *...9....9...*..
2A50: 00 09 80 80 63 2A 03 0E  00 3A 80 03 10 00 3A 80  ....c*...:....:.
2A60: 01 E1 2A 02 0B 00 0B 80  80 78 2A 03 0E 00 39 80  ..*......x*...9.
2A70: 03 10 00 39 80 01 E1 2A  02 0B 00 0D 80 80 8D 2A  ...9...*.......*
2A80: 03 0E 00 3A 80 03 10 00  3A 80 01 E1 2A 02 0B 00  ...:....:...*...
2A90: 06 80 80 A2 2A 03 0E 00  39 80 03 10 00 39 80 01  ....*...9....9..
2AA0: E1 2A 02 0B 00 08 80 80  B7 2A 03 0E 00 3A 80 03  .*.......*...:..
2AB0: 10 00 3A 80 01 E1 2A 02  0B 00 11 80 80 CC 2A 03  ..:...*.......*.
2AC0: 0E 00 3A 80 03 10 00 3A  80 01 E1 2A 02 0B 00 13  ..:....:...*....
2AD0: 80 80 E1 2A 03 0E 00 39  80 03 10 00 39 80 01 E1  ...*...9....9...
2AE0: 2A 1A B6 1D 1A F6 1D 01  0C 2F 02 00 00 06 80 80  *......../......
2AF0: 0E 2B 03 0D 00 7C 80 03  0E 00 7C 80 03 0F 00 7C  .+...|....|....|
2B00: 80 03 10 00 7C 80 03 11  00 7C 80 01 0C 2F 02 00  ....|....|.../..
2B10: 00 08 80 80 27 2B 03 0E  00 7D 80 1A B6 1D 1A D6  ....'+...}......
2B20: 1D 1A F6 1D 01 0C 2F 02  00 00 15 80 80 52 2C 02  ....../......R,.
2B30: 0B 00 02 80 80 53 2B 03  0D 00 7E 80 03 0E 00 7E  .....S+...~....~
2B40: 80 03 0F 00 7E 80 03 10  00 7E 80 03 11 00 7E 80  ....~....~....~.
2B50: 01 4F 2C 02 0B 00 09 80  80 77 2B 03 0D 00 7F 80  .O,......w+.....
2B60: 03 0E 00 7F 80 03 0F 00  7F 80 03 10 00 7F 80 03  ................
2B70: 11 00 7F 80 01 4F 2C 02  0B 00 0B 80 80 9B 2B 03  .....O,.......+.
2B80: 0D 00 7E 80 03 0E 00 7E  80 03 0F 00 7E 80 03 10  ..~....~....~...
2B90: 00 7E 80 03 11 00 7E 80  01 4F 2C 02 0B 00 0D 80  .~....~..O,.....
2BA0: 80 BF 2B 03 0D 00 7F 80  03 0E 00 7F 80 03 0F 00  ..+.............
2BB0: 7F 80 03 10 00 7F 80 03  11 00 7F 80 01 4F 2C 02  .............O,.
2BC0: 0B 00 06 80 80 E3 2B 03  0D 00 7E 80 03 0E 00 7E  ......+...~....~
2BD0: 80 03 0F 00 7E 80 03 10  00 7E 80 03 11 00 7E 80  ....~....~....~.
2BE0: 01 4F 2C 02 0B 00 08 80  80 07 2C 03 0D 00 7F 80  .O,.......,.....
2BF0: 03 0E 00 7F 80 03 0F 00  7F 80 03 10 00 7F 80 03  ................
2C00: 11 00 7F 80 01 4F 2C 02  0B 00 11 80 80 2B 2C 03  .....O,......+,.
2C10: 0D 00 7F 80 03 0E 00 7F  80 03 0F 00 7F 80 03 10  ................
2C20: 00 7F 80 03 11 00 7F 80  01 4F 2C 02 0B 00 13 80  .........O,.....
2C30: 80 4F 2C 03 0D 00 7E 80  03 0E 00 7E 80 03 0F 00  .O,...~....~....
2C40: 7E 80 03 10 00 7E 80 03  11 00 7E 80 01 4F 2C 01  ~....~....~..O,.
2C50: 0C 2F 02 00 00 17 80 80  72 2C 03 0D 00 80 80 03  ./......r,......
2C60: 0E 00 80 80 03 0F 00 80  80 1A D6 1D 1A F6 1D 01  ................
2C70: 0C 2F 02 00 00 19 80 80  96 2C 03 0D 00 81 80 03  ./.......,......
2C80: 0E 00 81 80 03 0F 00 81  80 03 10 00 81 80 03 11  ................
2C90: 00 81 80 01 0C 2F 02 00  00 1B 80 80 AF 2C 03 0E  ...../.......,..
2CA0: 00 82 80 1A B6 1D 1A D6  1D 1A F6 1D 01 0C 2F 02  ............../.
2CB0: 00 00 1D 80 80 C8 2C 03  0E 00 83 80 1A B6 1D 1A  ......,.........
2CC0: D6 1D 1A F6 1D 01 0C 2F  02 00 00 2D 80 80 EC 2C  ......./...-...,
2CD0: 03 0D 00 3C 80 03 0E 00  3C 80 03 0F 00 3C 80 03  ...<....<....<..
2CE0: 10 00 3C 80 03 11 00 3C  80 01 0C 2F 02 00 00 31  ..<....<.../...1
2CF0: 80 80 05 2D 03 0E 00 84  80 1A B6 1D 1A D6 1D 1A  ...-............
2D00: F6 1D 01 0C 2F 02 00 00  04 80 80 1E 2D 03 0E 00  ..../.......-...
2D10: 85 80 1A B6 1D 1A D6 1D  1A F6 1D 01 0C 2F 02 00  ............./..
2D20: 00 35 80 80 37 2D 03 0E  00 86 80 1A B6 1D 1A D6  .5..7-..........
2D30: 1D 1A F6 1D 01 0C 2F 02  00 00 87 80 80 50 2D 03  ....../......P-.
2D40: 0E 00 88 80 1A B6 1D 1A  D6 1D 1A F6 1D 01 0C 2F  .............../
2D50: 02 00 00 2E 80 80 09 2E  02 0B 00 02 80 80 6D 2D  ..............m-
2D60: 03 0E 00 89 80 03 10 00  39 80 01 00 2E 02 0B 00  ........9.......
2D70: 09 80 80 82 2D 03 0E 00  8A 80 03 10 00 3A 80 01  ....-........:..
2D80: 00 2E 02 0B 00 0B 80 80  97 2D 03 0E 00 89 80 03  .........-......
2D90: 10 00 39 80 01 00 2E 02  0B 00 0D 80 80 AC 2D 03  ..9...........-.
2DA0: 0E 00 8A 80 03 10 00 3A  80 01 00 2E 02 0B 00 06  .......:........
2DB0: 80 80 C1 2D 03 0E 00 89  80 03 10 00 39 80 01 00  ...-........9...
2DC0: 2E 02 0B 00 08 80 80 D6  2D 03 0E 00 8A 80 03 10  ........-.......
2DD0: 00 3A 80 01 00 2E 02 0B  00 11 80 80 EB 2D 03 0E  .:...........-..
2DE0: 00 8A 80 03 10 00 3A 80  01 00 2E 02 0B 00 13 80  ......:.........
2DF0: 80 00 2E 03 0E 00 89 80  03 10 00 39 80 01 00 2E  ...........9....
2E00: 1A B6 1D 1A F6 1D 01 0C  2F 02 00 00 00 80 80 0C  ......../.......
2E10: 2F 02 0B 00 02 80 80 30  2E 03 0E 00 8B 80 03 0F  /......0........
2E20: 00 8B 80 03 10 00 8B 80  03 11 00 8B 80 01 09 2F  .............../
2E30: 02 0B 00 09 80 80 4F 2E  03 0E 00 8C 80 03 0F 00  ......O.........
2E40: 8C 80 03 10 00 8C 80 03  11 00 8C 80 01 09 2F 02  ............../.
2E50: 0B 00 0B 80 80 6E 2E 03  0E 00 8B 80 03 0F 00 8B  .....n..........
2E60: 80 03 10 00 8B 80 03 11  00 8B 80 01 09 2F 02 0B  ............./..
2E70: 00 0D 80 80 8D 2E 03 0E  00 8C 80 03 0F 00 8C 80  ................
2E80: 03 10 00 8C 80 03 11 00  8C 80 01 09 2F 02 0B 00  ............/...
2E90: 06 80 80 AC 2E 03 0E 00  8B 80 03 0F 00 8B 80 03  ................
2EA0: 10 00 8B 80 03 11 00 8B  80 01 09 2F 02 0B 00 08  .........../....
2EB0: 80 80 CB 2E 03 0E 00 8C  80 03 0F 00 8C 80 03 10  ................
2EC0: 00 8C 80 03 11 00 8C 80  01 09 2F 02 0B 00 11 80  ........../.....
2ED0: 80 EA 2E 03 0E 00 8C 80  03 0F 00 8C 80 03 10 00  ................
2EE0: 8C 80 03 11 00 8C 80 01  09 2F 02 0B 00 13 80 80  ........./......
2EF0: 09 2F 03 0E 00 8B 80 03  0F 00 8B 80 03 10 00 8B  ./..............
2F00: 80 03 11 00 8B 80 01 09  2F 01 0C 2F 01 0F 2F 1B  ......../../../.
2F10: 02 08 00 09 80 80 BB 2F  02 16 00 02 80 80 28 2F  ......./......(/
2F20: 03 0D 00 02 80 01 B8 2F  02 16 00 09 80 80 38 2F  ......./......8/
2F30: 03 0D 00 09 80 01 B8 2F  02 16 00 0B 80 80 48 2F  ......./......H/
2F40: 03 0D 00 8D 80 01 B8 2F  02 16 00 0D 80 80 58 2F  ......./......X/
2F50: 03 0D 00 8E 80 01 B8 2F  02 16 00 06 80 80 68 2F  ......./......h/
2F60: 03 0D 00 08 80 01 B8 2F  02 16 00 08 80 80 78 2F  ......./......x/
2F70: 03 0D 00 8F 80 01 B8 2F  02 16 00 11 80 80 88 2F  ......./......./
2F80: 03 0D 00 13 80 01 B8 2F  02 16 00 13 80 80 98 2F  ......./......./
2F90: 03 0D 00 2C 80 01 B8 2F  02 16 00 15 80 80 A8 2F  ...,.../......./
2FA0: 03 0D 00 90 80 01 B8 2F  02 16 00 17 80 80 B8 2F  ......./......./
2FB0: 03 0D 00 91 80 01 B8 2F  01 14 37 02 08 00 0B 80  ......./..7.....
2FC0: 80 66 30 02 16 00 02 80  80 D3 2F 03 0D 00 02 80  .f0......./.....
2FD0: 01 63 30 02 16 00 09 80  80 E3 2F 03 0D 00 87 80  .c0......./.....
2FE0: 01 63 30 02 16 00 0B 80  80 F3 2F 03 0D 00 0B 80  .c0......./.....
2FF0: 01 63 30 02 16 00 0D 80  80 03 30 03 0D 00 17 80  .c0.......0.....
3000: 01 63 30 02 16 00 06 80  80 13 30 03 0D 00 1F 80  .c0.......0.....
3010: 01 63 30 02 16 00 08 80  80 23 30 03 0D 00 8E 80  .c0......#0.....
3020: 01 63 30 02 16 00 11 80  80 33 30 03 0D 00 30 80  .c0......30...0.
3030: 01 63 30 02 16 00 13 80  80 43 30 03 0D 00 92 80  .c0......C0.....
3040: 01 63 30 02 16 00 15 80  80 53 30 03 0D 00 93 80  .c0......S0.....
3050: 01 63 30 02 16 00 17 80  80 63 30 03 0D 00 94 80  .c0......c0.....
3060: 01 63 30 01 14 37 02 08  00 0D 80 80 11 31 02 16  .c0..7.......1..
3070: 00 02 80 80 7E 30 03 0D  00 02 80 01 0E 31 02 16  ....~0.......1..
3080: 00 09 80 80 8E 30 03 0D  00 08 80 01 0E 31 02 16  .....0.......1..
3090: 00 0B 80 80 9E 30 03 0D  00 35 80 01 0E 31 02 16  .....0...5...1..
30A0: 00 0D 80 80 AE 30 03 0D  00 34 80 01 0E 31 02 16  .....0...4...1..
30B0: 00 06 80 80 BE 30 03 0D  00 95 80 01 0E 31 02 16  .....0.......1..
30C0: 00 08 80 80 CE 30 03 0D  00 93 80 01 0E 31 02 16  .....0.......1..
30D0: 00 11 80 80 DE 30 03 0D  00 96 80 01 0E 31 02 16  .....0.......1..
30E0: 00 13 80 80 EE 30 03 0D  00 97 80 01 0E 31 02 16  .....0.......1..
30F0: 00 15 80 80 FE 30 03 0D  00 98 80 01 0E 31 02 16  .....0.......1..
3100: 00 17 80 80 0E 31 03 0D  00 99 80 01 0E 31 01 14  .....1.......1..
3110: 37 02 08 00 06 80 80 BC  31 02 16 00 02 80 80 29  7.......1......)
3120: 31 03 0D 00 02 80 01 B9  31 02 16 00 09 80 80 39  1.......1......9
3130: 31 03 0D 00 62 80 01 B9  31 02 16 00 0B 80 80 49  1...b...1......I
3140: 31 03 0D 00 2E 80 01 B9  31 02 16 00 0D 80 80 59  1.......1......Y
3150: 31 03 0D 00 9A 80 01 B9  31 02 16 00 06 80 80 69  1.......1......i
3160: 31 03 0D 00 9B 80 01 B9  31 02 16 00 08 80 80 79  1.......1......y
3170: 31 03 0D 00 1D 80 01 B9  31 02 16 00 11 80 80 89  1.......1.......
3180: 31 03 0D 00 9C 80 01 B9  31 02 16 00 13 80 80 99  1.......1.......
3190: 31 03 0D 00 08 80 01 B9  31 02 16 00 15 80 80 A9  1.......1.......
31A0: 31 03 0D 00 32 80 01 B9  31 02 16 00 17 80 80 B9  1...2...1.......
31B0: 31 03 0D 00 9D 80 01 B9  31 01 14 37 02 08 00 08  1.......1..7....
31C0: 80 80 67 32 02 16 00 02  80 80 D4 31 03 0D 00 02  ..g2.......1....
31D0: 80 01 64 32 02 16 00 09  80 80 E4 31 03 0D 00 2F  ..d2.......1.../
31E0: 80 01 64 32 02 16 00 0B  80 80 F4 31 03 0D 00 8E  ..d2.......1....
31F0: 80 01 64 32 02 16 00 0D  80 80 04 32 03 0D 00 9E  ..d2.......2....
3200: 80 01 64 32 02 16 00 06  80 80 14 32 03 0D 00 00  ..d2.......2....
3210: 80 01 64 32 02 16 00 08  80 80 24 32 03 0D 00 30  ..d2......$2...0
3220: 80 01 64 32 02 16 00 11  80 80 34 32 03 0D 00 08  ..d2......42....
3230: 80 01 64 32 02 16 00 13  80 80 44 32 03 0D 00 2D  ..d2......D2...-
3240: 80 01 64 32 02 16 00 15  80 80 54 32 03 0D 00 9F  ..d2......T2....
3250: 80 01 64 32 02 16 00 17  80 80 64 32 03 0D 00 99  ..d2......d2....
3260: 80 01 64 32 01 14 37 02  08 00 11 80 80 12 33 02  ..d2..7.......3.
3270: 16 00 02 80 80 7F 32 03  0D 00 02 80 01 0F 33 02  ......2.......3.
3280: 16 00 09 80 80 8F 32 03  0D 00 A0 80 01 0F 33 02  ......2.......3.
3290: 16 00 0B 80 80 9F 32 03  0D 00 36 80 01 0F 33 02  ......2...6...3.
32A0: 16 00 0D 80 80 AF 32 03  0D 00 1F 80 01 0F 33 02  ......2.......3.
32B0: 16 00 06 80 80 BF 32 03  0D 00 A1 80 01 0F 33 02  ......2.......3.
32C0: 16 00 08 80 80 CF 32 03  0D 00 9E 80 01 0F 33 02  ......2.......3.
32D0: 16 00 11 80 80 DF 32 03  0D 00 A2 80 01 0F 33 02  ......2.......3.
32E0: 16 00 13 80 80 EF 32 03  0D 00 2E 80 01 0F 33 02  ......2.......3.
32F0: 16 00 15 80 80 FF 32 03  0D 00 06 80 01 0F 33 02  ......2.......3.
3300: 16 00 17 80 80 0F 33 03  0D 00 9D 80 01 0F 33 01  ......3.......3.
3310: 14 37 02 08 00 13 80 80  BD 33 02 16 00 02 80 80  .7.......3......
3320: 2A 33 03 0D 00 02 80 01  BA 33 02 16 00 09 80 80  *3.......3......
3330: 3A 33 03 0D 00 A3 80 01  BA 33 02 16 00 0B 80 80  :3.......3......
3340: 4A 33 03 0D 00 00 80 01  BA 33 02 16 00 0D 80 80  J3.......3......
3350: 5A 33 03 0D 00 2F 80 01  BA 33 02 16 00 06 80 80  Z3.../...3......
3360: 6A 33 03 0D 00 9A 80 01  BA 33 02 16 00 08 80 80  j3.......3......
3370: 7A 33 03 0D 00 2D 80 01  BA 33 02 16 00 11 80 80  z3...-...3......
3380: 8A 33 03 0D 00 8E 80 01  BA 33 02 16 00 13 80 80  .3.......3......
3390: 9A 33 03 0D 00 36 80 01  BA 33 02 16 00 15 80 80  .3...6...3......
33A0: AA 33 03 0D 00 A4 80 01  BA 33 02 16 00 17 80 80  .3.......3......
33B0: BA 33 03 0D 00 99 80 01  BA 33 01 14 37 02 08 00  .3.......3..7...
33C0: 15 80 80 68 34 02 16 00  02 80 80 D5 33 03 0D 00  ...h4.......3...
33D0: 02 80 01 65 34 02 16 00  09 80 80 E5 33 03 0D 00  ...e4.......3...
33E0: A5 80 01 65 34 02 16 00  0B 80 80 F5 33 03 0D 00  ...e4.......3...
33F0: 04 80 01 65 34 02 16 00  0D 80 80 05 34 03 0D 00  ...e4.......4...
3400: 2E 80 01 65 34 02 16 00  06 80 80 15 34 03 0D 00  ...e4.......4...
3410: 8E 80 01 65 34 02 16 00  08 80 80 25 34 03 0D 00  ...e4......%4...
3420: 2F 80 01 65 34 02 16 00  11 80 80 35 34 03 0D 00  /..e4......54...
3430: 9A 80 01 65 34 02 16 00  13 80 80 45 34 03 0D 00  ...e4......E4...
3440: 13 80 01 65 34 02 16 00  15 80 80 55 34 03 0D 00  ...e4......U4...
3450: 00 80 01 65 34 02 16 00  17 80 80 65 34 03 0D 00  ...e4......e4...
3460: 94 80 01 65 34 01 14 37  02 08 00 17 80 80 13 35  ...e4..7.......5
3470: 02 16 00 02 80 80 80 34  03 0D 00 02 80 01 10 35  .......4.......5
3480: 02 16 00 09 80 80 90 34  03 0D 00 04 80 01 10 35  .......4.......5
3490: 02 16 00 0B 80 80 A0 34  03 0D 00 62 80 01 10 35  .......4...b...5
34A0: 02 16 00 0D 80 80 B0 34  03 0D 00 9B 80 01 10 35  .......4.......5
34B0: 02 16 00 06 80 80 C0 34  03 0D 00 2E 80 01 10 35  .......4.......5
34C0: 02 16 00 08 80 80 D0 34  03 0D 00 9A 80 01 10 35  .......4.......5
34D0: 02 16 00 11 80 80 E0 34  03 0D 00 A6 80 01 10 35  .......4.......5
34E0: 02 16 00 13 80 80 F0 34  03 0D 00 1D 80 01 10 35  .......4.......5
34F0: 02 16 00 15 80 80 00 35  03 0D 00 A7 80 01 10 35  .......5.......5
3500: 02 16 00 17 80 80 10 35  03 0D 00 9D 80 01 10 35  .......5.......5
3510: 01 14 37 02 08 00 19 80  80 BE 35 02 16 00 02 80  ..7.......5.....
3520: 80 2B 35 03 0D 00 02 80  01 BB 35 02 16 00 09 80  .+5.......5.....
3530: 80 3B 35 03 0D 00 11 80  01 BB 35 02 16 00 0B 80  .;5.......5.....
3540: 80 4B 35 03 0D 00 A0 80  01 BB 35 02 16 00 0D 80  .K5.......5.....
3550: 80 5B 35 03 0D 00 9A 80  01 BB 35 02 16 00 06 80  .[5.......5.....
3560: 80 6B 35 03 0D 00 8E 80  01 BB 35 02 16 00 08 80  .k5.......5.....
3570: 80 7B 35 03 0D 00 06 80  01 BB 35 02 16 00 11 80  .{5.......5.....
3580: 80 8B 35 03 0D 00 2E 80  01 BB 35 02 16 00 13 80  ..5.......5.....
3590: 80 9B 35 03 0D 00 A1 80  01 BB 35 02 16 00 15 80  ..5.......5.....
35A0: 80 AB 35 03 0D 00 A8 80  01 BB 35 02 16 00 17 80  ..5.......5.....
35B0: 80 BB 35 03 0D 00 94 80  01 BB 35 01 14 37 02 08  ..5.......5..7..
35C0: 00 1B 80 80 69 36 02 16  00 02 80 80 D6 35 03 0D  ....i6.......5..
35D0: 00 02 80 01 66 36 02 16  00 09 80 80 E6 35 03 0D  ....f6.......5..
35E0: 00 8E 80 01 66 36 02 16  00 0B 80 80 F6 35 03 0D  ....f6.......5..
35F0: 00 9B 80 01 66 36 02 16  00 0D 80 80 06 36 03 0D  ....f6.......6..
3600: 00 08 80 01 66 36 02 16  00 06 80 80 16 36 03 0D  ....f6.......6..
3610: 00 97 80 01 66 36 02 16  00 08 80 80 26 36 03 0D  ....f6......&6..
3620: 00 9E 80 01 66 36 02 16  00 11 80 80 36 36 03 0D  ....f6......66..
3630: 00 A4 80 01 66 36 02 16  00 13 80 80 46 36 03 0D  ....f6......F6..
3640: 00 34 80 01 66 36 02 16  00 15 80 80 56 36 03 0D  .4..f6......V6..
3650: 00 A9 80 01 66 36 02 16  00 17 80 80 66 36 03 0D  ....f6......f6..
3660: 00 91 80 01 66 36 01 14  37 02 08 00 1D 80 80 14  ....f6..7.......
3670: 37 02 16 00 02 80 80 81  36 03 0D 00 02 80 01 11  7.......6.......
3680: 37 02 16 00 09 80 80 91  36 03 0D 00 31 80 01 11  7.......6...1...
3690: 37 02 16 00 0B 80 80 A1  36 03 0D 00 1D 80 01 11  7.......6.......
36A0: 37 02 16 00 0D 80 80 B1  36 03 0D 00 35 80 01 11  7.......6...5...
36B0: 37 02 16 00 06 80 80 C1  36 03 0D 00 06 80 01 11  7.......6.......
36C0: 37 02 16 00 08 80 80 D1  36 03 0D 00 96 80 01 11  7.......6.......
36D0: 37 02 16 00 11 80 80 E1  36 03 0D 00 32 80 01 11  7.......6...2...
36E0: 37 02 16 00 13 80 80 F1  36 03 0D 00 AA 80 01 11  7.......6.......
36F0: 37 02 16 00 15 80 80 01  37 03 0D 00 AB 80 01 11  7.......7.......
3700: 37 02 16 00 17 80 80 11  37 03 0D 00 91 80 01 11  7.......7.......
3710: 37 01 14 37 1B 02 15 00  02 80 80 E0 37 02 16 00  7..7........7...
3720: 02 80 80 2D 37 03 0E 00  62 80 01 DD 37 02 16 00  ...-7...b...7...
3730: 09 80 80 3D 37 03 0E 00  0B 80 01 DD 37 02 16 00  ...=7.......7...
3740: 0B 80 80 4D 37 03 0E 00  8F 80 01 DD 37 02 16 00  ...M7.......7...
3750: 0D 80 80 5D 37 03 0E 00  AC 80 01 DD 37 02 16 00  ...]7.......7...
3760: 06 80 80 6D 37 03 0E 00  95 80 01 DD 37 02 16 00  ...m7.......7...
3770: 08 80 80 7D 37 03 0E 00  52 80 01 DD 37 02 16 00  ...}7...R...7...
3780: 11 80 80 8D 37 03 0E 00  17 80 01 DD 37 02 16 00  ....7.......7...
3790: 13 80 80 9D 37 03 0E 00  93 80 01 DD 37 02 16 00  ....7.......7...
37A0: 15 80 80 AD 37 03 0E 00  98 80 01 DD 37 02 16 00  ....7.......7...
37B0: 17 80 80 BD 37 03 0E 00  AB 80 01 DD 37 02 16 00  ....7.......7...
37C0: 19 80 80 CD 37 03 0E 00  AD 80 01 DD 37 02 16 00  ....7.......7...
37D0: 1B 80 80 DD 37 03 0E 00  AA 80 01 DD 37 01 41 3A  ....7.......7.A:
37E0: 02 15 00 09 80 80 AB 38  02 16 00 02 80 80 F8 37  .......8.......7
37F0: 03 0E 00 11 80 01 A8 38  02 16 00 09 80 80 08 38  .......8.......8
3800: 03 0E 00 08 80 01 A8 38  02 16 00 0B 80 80 18 38  .......8.......8
3810: 03 0E 00 8D 80 01 A8 38  02 16 00 0D 80 80 28 38  .......8......(8
3820: 03 0E 00 87 80 01 A8 38  02 16 00 06 80 80 38 38  .......8......88
3830: 03 0E 00 9B 80 01 A8 38  02 16 00 08 80 80 48 38  .......8......H8
3840: 03 0E 00 1D 80 01 A8 38  02 16 00 11 80 80 58 38  .......8......X8
3850: 03 0E 00 13 80 01 A8 38  02 16 00 13 80 80 68 38  .......8......h8
3860: 03 0E 00 06 80 01 A8 38  02 16 00 15 80 80 78 38  .......8......x8
3870: 03 0E 00 2D 80 01 A8 38  02 16 00 17 80 80 88 38  ...-...8.......8
3880: 03 0E 00 34 80 01 A8 38  02 16 00 19 80 80 98 38  ...4...8.......8
3890: 03 0E 00 97 80 01 A8 38  02 16 00 1B 80 80 A8 38  .......8.......8
38A0: 03 0E 00 A9 80 01 A8 38  01 41 3A 02 15 00 0B 80  .......8.A:.....
38B0: 80 76 39 02 16 00 02 80  80 C3 38 03 0E 00 36 80  .v9.......8...6.
38C0: 01 73 39 02 16 00 09 80  80 D3 38 03 0E 00 8E 80  .s9.......8.....
38D0: 01 73 39 02 16 00 0B 80  80 E3 38 03 0E 00 A3 80  .s9.......8.....
38E0: 01 73 39 02 16 00 0D 80  80 F3 38 03 0E 00 30 80  .s9.......8...0.
38F0: 01 73 39 02 16 00 06 80  80 03 39 03 0E 00 2E 80  .s9.......9.....
3900: 01 73 39 02 16 00 08 80  80 13 39 03 0E 00 2B 80  .s9.......9...+.
3910: 01 73 39 02 16 00 11 80  80 23 39 03 0E 00 00 80  .s9......#9.....
3920: 01 73 39 02 16 00 13 80  80 33 39 03 0E 00 AE 80  .s9......39.....
3930: 01 73 39 02 16 00 15 80  80 43 39 03 0E 00 90 80  .s9......C9.....
3940: 01 73 39 02 16 00 17 80  80 53 39 03 0E 00 9F 80  .s9......S9.....
3950: 01 73 39 02 16 00 19 80  80 63 39 03 0E 00 A7 80  .s9......c9.....
3960: 01 73 39 02 16 00 1B 80  80 73 39 03 0E 00 57 80  .s9......s9...W.
3970: 01 73 39 01 41 3A 02 15  00 0D 80 80 41 3A 02 16  .s9.A:......A:..
3980: 00 02 80 80 8E 39 03 0E  00 15 80 01 3E 3A 02 16  .....9......>:..
3990: 00 09 80 80 9E 39 03 0E  00 AF 80 01 3E 3A 02 16  .....9......>:..
39A0: 00 0B 80 80 AE 39 03 0E  00 04 80 01 3E 3A 02 16  .....9......>:..
39B0: 00 0D 80 80 BE 39 03 0E  00 33 80 01 3E 3A 02 16  .....9...3..>:..
39C0: 00 06 80 80 CE 39 03 0E  00 B0 80 01 3E 3A 02 16  .....9......>:..
39D0: 00 08 80 80 DE 39 03 0E  00 A5 80 01 3E 3A 02 16  .....9......>:..
39E0: 00 11 80 80 EE 39 03 0E  00 B1 80 01 3E 3A 02 16  .....9......>:..
39F0: 00 13 80 80 FE 39 03 0E  00 A1 80 01 3E 3A 02 16  .....9......>:..
3A00: 00 15 80 80 0E 3A 03 0E  00 A6 80 01 3E 3A 02 16  .....:......>:..
3A10: 00 17 80 80 1E 3A 03 0E  00 9C 80 01 3E 3A 02 16  .....:......>:..
3A20: 00 19 80 80 2E 3A 03 0E  00 A8 80 01 3E 3A 02 16  .....:......>:..
3A30: 00 1B 80 80 3E 3A 03 0E  00 B2 80 01 3E 3A 01 41  ....>:......>:.A
3A40: 3A 1B 02 15 00 02 80 80  0D 3B 02 16 00 02 80 80  :........;......
3A50: 5A 3A 03 0F 00 62 80 01  0A 3B 02 16 00 09 80 80  Z:...b...;......
3A60: 6A 3A 03 0F 00 0B 80 01  0A 3B 02 16 00 0B 80 80  j:.......;......
3A70: 7A 3A 03 0F 00 8F 80 01  0A 3B 02 16 00 0D 80 80  z:.......;......
3A80: 8A 3A 03 0F 00 AC 80 01  0A 3B 02 16 00 06 80 80  .:.......;......
3A90: 9A 3A 03 0F 00 95 80 01  0A 3B 02 16 00 08 80 80  .:.......;......
3AA0: AA 3A 03 0F 00 52 80 01  0A 3B 02 16 00 11 80 80  .:...R...;......
3AB0: BA 3A 03 0F 00 17 80 01  0A 3B 02 16 00 13 80 80  .:.......;......
3AC0: CA 3A 03 0F 00 93 80 01  0A 3B 02 16 00 15 80 80  .:.......;......
3AD0: DA 3A 03 0F 00 98 80 01  0A 3B 02 16 00 17 80 80  .:.......;......
3AE0: EA 3A 03 0F 00 AB 80 01  0A 3B 02 16 00 19 80 80  .:.......;......
3AF0: FA 3A 03 0F 00 AD 80 01  0A 3B 02 16 00 1B 80 80  .:.......;......
3B00: 0A 3B 03 0F 00 AA 80 01  0A 3B 01 6E 3D 02 15 00  .;.......;.n=...
3B10: 09 80 80 D8 3B 02 16 00  02 80 80 25 3B 03 0F 00  ....;......%;...
3B20: 11 80 01 D5 3B 02 16 00  09 80 80 35 3B 03 0F 00  ....;......5;...
3B30: 08 80 01 D5 3B 02 16 00  0B 80 80 45 3B 03 0F 00  ....;......E;...
3B40: 8D 80 01 D5 3B 02 16 00  0D 80 80 55 3B 03 0F 00  ....;......U;...
3B50: 87 80 01 D5 3B 02 16 00  06 80 80 65 3B 03 0F 00  ....;......e;...
3B60: 9B 80 01 D5 3B 02 16 00  08 80 80 75 3B 03 0F 00  ....;......u;...
3B70: 1D 80 01 D5 3B 02 16 00  11 80 80 85 3B 03 0F 00  ....;.......;...
3B80: 13 80 01 D5 3B 02 16 00  13 80 80 95 3B 03 0F 00  ....;.......;...
3B90: 06 80 01 D5 3B 02 16 00  15 80 80 A5 3B 03 0F 00  ....;.......;...
3BA0: 2D 80 01 D5 3B 02 16 00  17 80 80 B5 3B 03 0F 00  -...;.......;...
3BB0: 34 80 01 D5 3B 02 16 00  19 80 80 C5 3B 03 0F 00  4...;.......;...
3BC0: 97 80 01 D5 3B 02 16 00  1B 80 80 D5 3B 03 0F 00  ....;.......;...
3BD0: A9 80 01 D5 3B 01 6E 3D  02 15 00 0B 80 80 A3 3C  ....;.n=.......<
3BE0: 02 16 00 02 80 80 F0 3B  03 0F 00 36 80 01 A0 3C  .......;...6...<
3BF0: 02 16 00 09 80 80 00 3C  03 0F 00 8E 80 01 A0 3C  .......<.......<
3C00: 02 16 00 0B 80 80 10 3C  03 0F 00 A3 80 01 A0 3C  .......<.......<
3C10: 02 16 00 0D 80 80 20 3C  03 0F 00 30 80 01 A0 3C  ...... <...0...<
3C20: 02 16 00 06 80 80 30 3C  03 0F 00 2E 80 01 A0 3C  ......0<.......<
3C30: 02 16 00 08 80 80 40 3C  03 0F 00 2F 80 01 A0 3C  ......@<.../...<
3C40: 02 16 00 11 80 80 50 3C  03 0F 00 00 80 01 A0 3C  ......P<.......<
3C50: 02 16 00 13 80 80 60 3C  03 0F 00 1B 80 01 A0 3C  ......`<.......<
3C60: 02 16 00 15 80 80 70 3C  03 0F 00 90 80 01 A0 3C  ......p<.......<
3C70: 02 16 00 17 80 80 80 3C  03 0F 00 9F 80 01 A0 3C  .......<.......<
3C80: 02 16 00 19 80 80 90 3C  03 0F 00 A7 80 01 A0 3C  .......<.......<
3C90: 02 16 00 1B 80 80 A0 3C  03 0F 00 57 80 01 A0 3C  .......<...W...<
3CA0: 01 6E 3D 02 15 00 0D 80  80 6E 3D 02 16 00 02 80  .n=......n=.....
3CB0: 80 BB 3C 03 0F 00 15 80  01 6B 3D 02 16 00 09 80  ..<......k=.....
3CC0: 80 CB 3C 03 0F 00 B3 80  01 6B 3D 02 16 00 0B 80  ..<......k=.....
3CD0: 80 DB 3C 03 0F 00 02 80  01 6B 3D 02 16 00 0D 80  ..<......k=.....
3CE0: 80 EB 3C 03 0F 00 33 80  01 6B 3D 02 16 00 06 80  ..<...3..k=.....
3CF0: 80 FB 3C 03 0F 00 AF 80  01 6B 3D 02 16 00 08 80  ..<......k=.....
3D00: 80 0B 3D 03 0F 00 B4 80  01 6B 3D 02 16 00 11 80  ..=......k=.....
3D10: 80 1B 3D 03 0F 00 32 80  01 6B 3D 02 16 00 13 80  ..=...2..k=.....
3D20: 80 2B 3D 03 0F 00 A1 80  01 6B 3D 02 16 00 15 80  .+=......k=.....
3D30: 80 3B 3D 03 0F 00 0D 80  01 6B 3D 02 16 00 17 80  .;=......k=.....
3D40: 80 4B 3D 03 0F 00 04 80  01 6B 3D 02 16 00 19 80  .K=......k=.....
3D50: 80 5B 3D 03 0F 00 A8 80  01 6B 3D 02 16 00 1B 80  .[=......k=.....
3D60: 80 6B 3D 03 0F 00 B2 80  01 6B 3D 01 6E 3D 1B 02  .k=......k=.n=..
3D70: 15 00 02 80 80 3A 3E 02  16 00 02 80 80 87 3D 03  .....:>.......=.
3D80: 10 00 62 80 01 37 3E 02  16 00 09 80 80 97 3D 03  ..b..7>.......=.
3D90: 10 00 0B 80 01 37 3E 02  16 00 0B 80 80 A7 3D 03  .....7>.......=.
3DA0: 10 00 8F 80 01 37 3E 02  16 00 0D 80 80 B7 3D 03  .....7>.......=.
3DB0: 10 00 AC 80 01 37 3E 02  16 00 06 80 80 C7 3D 03  .....7>.......=.
3DC0: 10 00 91 80 01 37 3E 02  16 00 08 80 80 D7 3D 03  .....7>.......=.
3DD0: 10 00 52 80 01 37 3E 02  16 00 11 80 80 E7 3D 03  ..R..7>.......=.
3DE0: 10 00 17 80 01 37 3E 02  16 00 13 80 80 F7 3D 03  .....7>.......=.
3DF0: 10 00 99 80 01 37 3E 02  16 00 15 80 80 07 3E 03  .....7>.......>.
3E00: 10 00 98 80 01 37 3E 02  16 00 17 80 80 17 3E 03  .....7>.......>.
3E10: 10 00 AB 80 01 37 3E 02  16 00 19 80 80 27 3E 03  .....7>......'>.
3E20: 10 00 AD 80 01 37 3E 02  16 00 1B 80 80 37 3E 03  .....7>......7>.
3E30: 10 00 AA 80 01 37 3E 01  9B 40 02 15 00 09 80 80  .....7>..@......
3E40: 05 3F 02 16 00 02 80 80  52 3E 03 10 00 11 80 01  .?......R>......
3E50: 02 3F 02 16 00 09 80 80  62 3E 03 10 00 08 80 01  .?......b>......
3E60: 02 3F 02 16 00 0B 80 80  72 3E 03 10 00 8D 80 01  .?......r>......
3E70: 02 3F 02 16 00 0D 80 80  82 3E 03 10 00 87 80 01  .?.......>......
3E80: 02 3F 02 16 00 06 80 80  92 3E 03 10 00 9B 80 01  .?.......>......
3E90: 02 3F 02 16 00 08 80 80  A2 3E 03 10 00 1D 80 01  .?.......>......
3EA0: 02 3F 02 16 00 11 80 80  B2 3E 03 10 00 13 80 01  .?.......>......
3EB0: 02 3F 02 16 00 13 80 80  C2 3E 03 10 00 06 80 01  .?.......>......
3EC0: 02 3F 02 16 00 15 80 80  D2 3E 03 10 00 2D 80 01  .?.......>...-..
3ED0: 02 3F 02 16 00 17 80 80  E2 3E 03 10 00 34 80 01  .?.......>...4..
3EE0: 02 3F 02 16 00 19 80 80  F2 3E 03 10 00 97 80 01  .?.......>......
3EF0: 02 3F 02 16 00 1B 80 80  02 3F 03 10 00 A9 80 01  .?.......?......
3F00: 02 3F 01 9B 40 02 15 00  0B 80 80 D0 3F 02 16 00  .?..@.......?...
3F10: 02 80 80 1D 3F 03 10 00  36 80 01 CD 3F 02 16 00  ....?...6...?...
3F20: 09 80 80 2D 3F 03 10 00  8E 80 01 CD 3F 02 16 00  ...-?.......?...
3F30: 0B 80 80 3D 3F 03 10 00  A3 80 01 CD 3F 02 16 00  ...=?.......?...
3F40: 0D 80 80 4D 3F 03 10 00  30 80 01 CD 3F 02 16 00  ...M?...0...?...
3F50: 06 80 80 5D 3F 03 10 00  2E 80 01 CD 3F 02 16 00  ...]?.......?...
3F60: 08 80 80 6D 3F 03 10 00  2F 80 01 CD 3F 02 16 00  ...m?.../...?...
3F70: 11 80 80 7D 3F 03 10 00  00 80 01 CD 3F 02 16 00  ...}?.......?...
3F80: 13 80 80 8D 3F 03 10 00  1B 80 01 CD 3F 02 16 00  ....?.......?...
3F90: 15 80 80 9D 3F 03 10 00  90 80 01 CD 3F 02 16 00  ....?.......?...
3FA0: 17 80 80 AD 3F 03 10 00  9F 80 01 CD 3F 02 16 00  ....?.......?...
3FB0: 19 80 80 BD 3F 03 10 00  A7 80 01 CD 3F 02 16 00  ....?.......?...
3FC0: 1B 80 80 CD 3F 03 10 00  57 80 01 CD 3F 01 9B 40  ....?...W...?..@
3FD0: 02 15 00 0D 80 80 9B 40  02 16 00 02 80 80 E8 3F  .......@.......?
3FE0: 03 10 00 15 80 01 98 40  02 16 00 09 80 80 F8 3F  .......@.......?
3FF0: 03 10 00 B5 80 01 98 40  02 16 00 0B 80 80 08 40  .......@.......@
4000: 03 10 00 04 80 01 98 40  02 16 00 0D 80 80 18 40  .......@.......@
4010: 03 10 00 33 80 01 98 40  02 16 00 06 80 80 28 40  ...3...@......(@
4020: 03 10 00 B3 80 01 98 40  02 16 00 08 80 80 38 40  .......@......8@
4030: 03 10 00 A0 80 01 98 40  02 16 00 11 80 80 48 40  .......@......H@
4040: 03 10 00 32 80 01 98 40  02 16 00 13 80 80 58 40  ...2...@......X@
4050: 03 10 00 A1 80 01 98 40  02 16 00 15 80 80 68 40  .......@......h@
4060: 03 10 00 0D 80 01 98 40  02 16 00 17 80 80 78 40  .......@......x@
4070: 03 10 00 A6 80 01 98 40  02 16 00 19 80 80 88 40  .......@.......@
4080: 03 10 00 A8 80 01 98 40  02 16 00 1B 80 80 98 40  .......@.......@
4090: 03 10 00 B2 80 01 98 40  01 9B 40 1B 02 15 00 02  .......@..@.....
40A0: 80 80 67 41 02 16 00 02  80 80 B4 40 03 11 00 62  ..gA.......@...b
40B0: 80 01 64 41 02 16 00 09  80 80 C4 40 03 11 00 0B  ..dA.......@....
40C0: 80 01 64 41 02 16 00 0B  80 80 D4 40 03 11 00 8F  ..dA.......@....
40D0: 80 01 64 41 02 16 00 0D  80 80 E4 40 03 11 00 AC  ..dA.......@....
40E0: 80 01 64 41 02 16 00 06  80 80 F4 40 03 11 00 91  ..dA.......@....
40F0: 80 01 64 41 02 16 00 08  80 80 04 41 03 11 00 52  ..dA.......A...R
4100: 80 01 64 41 02 16 00 11  80 80 14 41 03 11 00 17  ..dA.......A....
4110: 80 01 64 41 02 16 00 13  80 80 24 41 03 11 00 99  ..dA......$A....
4120: 80 01 64 41 02 16 00 15  80 80 34 41 03 11 00 98  ..dA......4A....
4130: 80 01 64 41 02 16 00 17  80 80 44 41 03 11 00 AB  ..dA......DA....
4140: 80 01 64 41 02 16 00 19  80 80 54 41 03 11 00 AD  ..dA......TA....
4150: 80 01 64 41 02 16 00 1B  80 80 64 41 03 11 00 AA  ..dA......dA....
4160: 80 01 64 41 01 C8 43 02  15 00 09 80 80 32 42 02  ..dA..C......2B.
4170: 16 00 02 80 80 7F 41 03  11 00 11 80 01 2F 42 02  ......A....../B.
4180: 16 00 09 80 80 8F 41 03  11 00 08 80 01 2F 42 02  ......A....../B.
4190: 16 00 0B 80 80 9F 41 03  11 00 8D 80 01 2F 42 02  ......A....../B.
41A0: 16 00 0D 80 80 AF 41 03  11 00 87 80 01 2F 42 02  ......A....../B.
41B0: 16 00 06 80 80 BF 41 03  11 00 9B 80 01 2F 42 02  ......A....../B.
41C0: 16 00 08 80 80 CF 41 03  11 00 1D 80 01 2F 42 02  ......A....../B.
41D0: 16 00 11 80 80 DF 41 03  11 00 13 80 01 2F 42 02  ......A....../B.
41E0: 16 00 13 80 80 EF 41 03  11 00 06 80 01 2F 42 02  ......A....../B.
41F0: 16 00 15 80 80 FF 41 03  11 00 2D 80 01 2F 42 02  ......A...-../B.
4200: 16 00 17 80 80 0F 42 03  11 00 34 80 01 2F 42 02  ......B...4../B.
4210: 16 00 19 80 80 1F 42 03  11 00 97 80 01 2F 42 02  ......B....../B.
4220: 16 00 1B 80 80 2F 42 03  11 00 A9 80 01 2F 42 01  ...../B....../B.
4230: C8 43 02 15 00 0B 80 80  FD 42 02 16 00 02 80 80  .C.......B......
4240: 4A 42 03 11 00 36 80 01  FA 42 02 16 00 09 80 80  JB...6...B......
4250: 5A 42 03 11 00 8E 80 01  FA 42 02 16 00 0B 80 80  ZB.......B......
4260: 6A 42 03 11 00 A3 80 01  FA 42 02 16 00 0D 80 80  jB.......B......
4270: 7A 42 03 11 00 30 80 01  FA 42 02 16 00 06 80 80  zB...0...B......
4280: 8A 42 03 11 00 2E 80 01  FA 42 02 16 00 08 80 80  .B.......B......
4290: 9A 42 03 11 00 2F 80 01  FA 42 02 16 00 11 80 80  .B.../...B......
42A0: AA 42 03 11 00 00 80 01  FA 42 02 16 00 13 80 80  .B.......B......
42B0: BA 42 03 11 00 1B 80 01  FA 42 02 16 00 15 80 80  .B.......B......
42C0: CA 42 03 11 00 90 80 01  FA 42 02 16 00 17 80 80  .B.......B......
42D0: DA 42 03 11 00 9F 80 01  FA 42 02 16 00 19 80 80  .B.......B......
42E0: EA 42 03 11 00 A7 80 01  FA 42 02 16 00 1B 80 80  .B.......B......
42F0: FA 42 03 11 00 57 80 01  FA 42 01 C8 43 02 15 00  .B...W...B..C...
4300: 0D 80 80 C8 43 02 16 00  02 80 80 15 43 03 11 00  ....C.......C...
4310: 15 80 01 C5 43 02 16 00  09 80 80 25 43 03 11 00  ....C......%C...
4320: 25 80 01 C5 43 02 16 00  0B 80 80 35 43 03 11 00  %...C......5C...
4330: 0D 80 01 C5 43 02 16 00  0D 80 80 45 43 03 11 00  ....C......EC...
4340: 33 80 01 C5 43 02 16 00  06 80 80 55 43 03 11 00  3...C......UC...
4350: B5 80 01 C5 43 02 16 00  08 80 80 65 43 03 11 00  ....C......eC...
4360: 02 80 01 C5 43 02 16 00  11 80 80 75 43 03 11 00  ....C......uC...
4370: 32 80 01 C5 43 02 16 00  13 80 80 85 43 03 11 00  2...C.......C...
4380: A1 80 01 C5 43 02 16 00  15 80 80 95 43 03 11 00  ....C.......C...
4390: 19 80 01 C5 43 02 16 00  17 80 80 A5 43 03 11 00  ....C.......C...
43A0: 04 80 01 C5 43 02 16 00  19 80 80 B5 43 03 11 00  ....C.......C...
43B0: A8 80 01 C5 43 02 16 00  1B 80 80 C5 43 03 11 00  ....C.......C...
43C0: B2 80 01 C5 43 01 C8 43  1B 02 17 00 02 80 80 67  ....C..C.......g
43D0: 44 02 16 00 02 80 80 E6  43 03 12 00 66 80 03 13  D.......C...f...
43E0: 00 66 80 01 64 44 02 16  00 09 80 80 FB 43 03 12  .f..dD.......C..
43F0: 00 9E 80 03 13 00 9E 80  01 64 44 02 16 00 0B 80  .........dD.....
4400: 80 10 44 03 12 00 57 80  03 13 00 57 80 01 64 44  ..D...W....W..dD
4410: 02 16 00 0D 80 80 25 44  03 12 00 B6 80 03 13 00  ......%D........
4420: B6 80 01 64 44 02 16 00  06 80 80 3A 44 03 12 00  ...dD......:D...
4430: B7 80 03 13 00 B7 80 01  64 44 02 16 00 08 80 80  ........dD......
4440: 4F 44 03 12 00 AC 80 03  13 00 AC 80 01 64 44 02  OD...........dD.
4450: 16 00 11 80 80 64 44 03  12 00 B8 80 03 13 00 B8  .....dD.........
4460: 80 01 64 44 01 B0 49 02  17 00 09 80 80 E2 44 02  ..dD..I.......D.
4470: 16 00 02 80 80 7F 44 03  12 00 B9 80 01 DF 44 02  ......D.......D.
