# 17293797 - Shantotto

## Common Data

| Field            | Value                  |
|------------------|------------------------|
| Zone             | Qufim Island (ID: 126) |
| Block Size       | 1328 bytes             |
| Total Events     | 50                     |
| References Count | 31                     |

## List of Events

| Event ID                   | Entrypoint   |   Size |   Instructions |
|----------------------------|--------------|--------|----------------|
| [65535](#event-65535)      | 0x0000       |      1 |              1 |
| [65535.1](#event-655351)   | 0x0001       |     67 |             13 |
| [65535.2](#event-655352)   | 0x0044       |     33 |             14 |
| [65535.3](#event-655353)   | 0x0065       |     25 |              3 |
| [65535.4](#event-655354)   | 0x007E       |      2 |              2 |
| [65535.5](#event-655355)   | 0x0080       |     10 |              2 |
| [65535.6](#event-655356)   | 0x008A       |     10 |              2 |
| [65535.7](#event-655357)   | 0x0094       |      3 |              2 |
| [44](#event-44)            | 0x0097       |      1 |              1 |
| [65535.8](#event-655358)   | 0x0098       |     19 |              3 |
| [65535.9](#event-655359)   | 0x00AB       |     16 |              2 |
| [65535.10](#event-6553510) | 0x00BB       |     16 |              2 |
| [65535.11](#event-6553511) | 0x00CB       |     19 |              3 |
| [65535.12](#event-6553512) | 0x00DE       |     16 |              2 |
| [65535.13](#event-6553513) | 0x00EE       |     16 |              2 |
| [65535.14](#event-6553514) | 0x00FE       |     16 |              2 |
| [65535.15](#event-6553515) | 0x010E       |     16 |              2 |
| [65535.16](#event-6553516) | 0x011E       |     16 |              2 |
| [65535.17](#event-6553517) | 0x012E       |     16 |              2 |
| [65535.18](#event-6553518) | 0x013E       |     19 |              3 |
| [65535.19](#event-6553519) | 0x0151       |     16 |              2 |
| [65535.20](#event-6553520) | 0x0161       |     16 |              2 |
| [65535.21](#event-6553521) | 0x0171       |     16 |              2 |
| [65535.22](#event-6553522) | 0x0181       |     16 |              2 |
| [65535.23](#event-6553523) | 0x0191       |     16 |              2 |
| [65535.24](#event-6553524) | 0x01A1       |     16 |              2 |
| [65535.25](#event-6553525) | 0x01B1       |     16 |              2 |
| [65535.26](#event-6553526) | 0x01C1       |     16 |              2 |
| [65535.27](#event-6553527) | 0x01D1       |     16 |              2 |
| [65535.28](#event-6553528) | 0x01E1       |     16 |              2 |
| [65535.29](#event-6553529) | 0x01F1       |     19 |              3 |
| [65535.30](#event-6553530) | 0x0204       |     16 |              2 |
| [65535.31](#event-6553531) | 0x0214       |     19 |              3 |
| [65535.32](#event-6553532) | 0x0227       |     48 |              8 |
| [65535.33](#event-6553533) | 0x0257       |     48 |              8 |
| [65535.34](#event-6553534) | 0x0287       |     21 |              3 |
| [45](#event-45)            | 0x029C       |      1 |              1 |
| [65535.35](#event-6553535) | 0x029D       |      5 |              2 |
| [65535.36](#event-6553536) | 0x02A2       |     66 |             10 |
| [65535.37](#event-6553537) | 0x02E4       |     13 |              3 |
| [65535.38](#event-6553538) | 0x02F1       |     13 |              3 |
| [65535.39](#event-6553539) | 0x02FE       |     43 |              7 |
| [65535.40](#event-6553540) | 0x0329       |     16 |              2 |
| [65535.41](#event-6553541) | 0x0339       |     29 |              3 |
| [65535.42](#event-6553542) | 0x0356       |     29 |              3 |
| [65535.43](#event-6553543) | 0x0373       |     16 |              2 |
| [65535.44](#event-6553544) | 0x0383       |     29 |              3 |
| [65535.45](#event-6553545) | 0x03A0       |     19 |              3 |
| [65535.46](#event-6553546) | 0x03B3       |     19 |              3 |
| [65535.47](#event-6553547) | 0x03C6       |     19 |              3 |

## DAT References (imed_data)

|   Index | Hex Value   |   Dec Value |
|---------|-------------|-------------|
|       0 | 0x0006      |           6 |
|       1 | 0x0000      |           0 |
|       2 | 0x00C9      |         201 |
|       3 | 0x0080      |         128 |
|       4 | 0x0AC8      |        2760 |
|       5 | 0x000F      |          15 |
|       6 | 0x003C      |          60 |
|       7 | 0x0ACE      |        2766 |
|       8 | 0x0090      |         144 |
|       9 | 0x0028      |          40 |
|      10 | 0x0031      |          49 |
|      11 | 0x055D      |        1373 |
|      12 | 0x0560      |        1376 |
|      13 | 0x00F4      |         244 |
|      14 | 0x0038      |          56 |
|      15 | 0x00B4      |         180 |
|      16 | 0x0801      |        2049 |
|      17 | 0x0061      |          97 |
|      18 | 0x00BB      |         187 |
|      19 | 0x0384      |         900 |
|      20 | 0x012C      |         300 |
|      21 | 0xFFFFFB64  |  4294966116 |
|      22 | 0x0064      |         100 |
|      23 | 0x0078      |         120 |
|      24 | 0x00B0      |         176 |
|      25 | 0x0029      |          41 |
|      26 | 0x055E      |        1374 |
|      27 | 0x002A      |          42 |
|      28 | 0x0068      |         104 |
|      29 | 0x006C      |         108 |
|      30 | 0x0060      |          96 |

## Events

### Event 65535

#### Metadata

| Field        | Value   |
|--------------|---------|
| Entrypoint   | 0x0000  |
| Data Size    | 1 bytes |
| Instructions | 1       |

```
      00 01 02 03 04 05 06 07  08 09 0A 0B 0C 0D 0E 0F
      -- -- -- -- -- -- -- --  -- -- -- -- -- -- -- --
0000: 00                                                .               
```

#### Opcodes

```
  0: 0x0000 [0x00] END_REQSTACK()
```

### Event 65535.1

#### Metadata

| Field        | Value    |
|--------------|----------|
| Entrypoint   | 0x0001   |
| Data Size    | 67 bytes |
| Instructions | 2        |

```
      00 01 02 03 04 05 06 07  08 09 0A 0B 0C 0D 0E 0F
      -- -- -- -- -- -- -- --  -- -- -- -- -- -- -- --
0000:    B7 01 01 00 F8 FF FF  7F B4 13 00 00 53 68 61   ............Sha
0010: 6E 74 6F 74 74 6F 00 00  00 00 00 00 00 B5 00 00  ntotto..........
0020: 00 B6 0B 00 80 00 80 01  80 02 80 02 80 02 80 02  ................
0030: 80 01 80 01 80 22 00 92  01 F8 FF FF 7F 94 01 F8  ....."..........
0040: FF FF 7F 00                                       ....            
```

#### Opcodes

```
  0: 0x0001 [0xB7] ENTITY_DATA_HANDLER: Set Unknown NPC (ID: 4294443009/0xFFF80001) name from 0x7FFF (monstrosity: 0x13B4)
  1: 0x000B [0x00] END_REQSTACK()
```

#### Data or dead code:

```
# Dead code (unreachable instructions):
     0x000C [0x00] END_REQSTACK()
     0x000D [0x53] WAIT_SCHEDULER_TASK: Wait for scheduler 0x00000000 with entities [Unknown NPC (ID: 1953390952/0x746E6168), Unknown NPC (ID: 1869902959/0x6F74746F)]
     0x001A [0x00] END_REQSTACK()
     0x001B [0x00] END_REQSTACK()
     0x001C [0x00] END_REQSTACK()
     0x001D [0xB5] SET_EVENT_ENTITY_NAME: Change EventEntity name to ExtData[1]->WorkLocal[0]
     0x0021 [0xB6] ENTITY_APPEARANCE_HANDLER(case=Full entity look, race=6*, hair=6*, head=0*, body=201*, hands=201*, legs=201*, feet=201*, main=0*, sub=0*)
     0x0035 [0x22] ENTITY_HIDE_FLAG(enabled=0x00)
     0x0037 [0x92] EventEntity->Render.Flags3 ^= 0x01
     0x003D [0x94] EventEntity->Render.Flags3 ^= 0x01
     0x0043 [0x00] END_REQSTACK()
```

### Event 65535.2

#### Metadata

| Field        | Value    |
|--------------|----------|
| Entrypoint   | 0x0044   |
| Data Size    | 33 bytes |
| Instructions | 2        |

```
      00 01 02 03 04 05 06 07  08 09 0A 0B 0C 0D 0E 0F
      -- -- -- -- -- -- -- --  -- -- -- -- -- -- -- --
0040:             B7 01 01 00  F8 FF FF 7F B4 13 00 00      ............
0050: 44 2E 40 53 68 61 6E 74  6F 74 74 6F 00 00 00 00  D.@Shantotto....
0060: B5 00 00 00 00                                    .....           
```

#### Opcodes

```
  0: 0x0044 [0xB7] ENTITY_DATA_HANDLER: Set Unknown NPC (ID: 4294443009/0xFFF80001) name from 0x7FFF (monstrosity: 0x13B4)
  1: 0x004E [0x00] END_REQSTACK()
```

#### Data or dead code:

```
# Dead code (unreachable instructions):
     0x004F [0x00] END_REQSTACK()
     0x0050 [0x44] IF_ENTITY_VALID(Unknown NPC (ID: 16430/0x0000402E) valid ? continue : jump_to=0x6853)
     0x0055 [0x61] EventEntity->Render.Flags2 &= ~0x00000001
     0x0057 [0x74] EventEntity->Render.Flags1 |= 0x6F
     0x0059 [0x74] EventEntity->Render.Flags1 |= 0x74
     0x005B [0x6F] WAIT_FRAME_DELAY: Yield until WaitTime reaches zero
     0x005C [0x00] END_REQSTACK()
     0x005D [0x00] END_REQSTACK()
     0x005E [0x00] END_REQSTACK()
     0x005F [0x00] END_REQSTACK()
     0x0060 [0xB5] SET_EVENT_ENTITY_NAME: Change EventEntity name to ExtData[1]->WorkLocal[0]
     0x0064 [0x00] END_REQSTACK()
```

### Event 65535.3

#### Metadata

| Field        | Value    |
|--------------|----------|
| Entrypoint   | 0x0065   |
| Data Size    | 25 bytes |
| Instructions | 3        |

```
      00 01 02 03 04 05 06 07  08 09 0A 0B 0C 0D 0E 0F
      -- -- -- -- -- -- -- --  -- -- -- -- -- -- -- --
0060:                B4 13 00  00 50 72 65 76 4E 61 6D       ....PrevNam
0070: 65 00 00 00 00 00 00 00  00 B5 00 00 00 00        e.............  
```

#### Opcodes

```
  0: 0x0065 [0xB4] UI_WINDOW_STRING_HANDLER(case=0x13 - Copy string and replace @ with space, work_offset=ExtData[1]->WorkLocal[0], string="PrevName")
  1: 0x0079 [0xB5] SET_EVENT_ENTITY_NAME: Change EventEntity name to ExtData[1]->WorkLocal[0]
  2: 0x007D [0x00] END_REQSTACK()
```

### Event 65535.4

#### Metadata

| Field        | Value   |
|--------------|---------|
| Entrypoint   | 0x007E  |
| Data Size    | 2 bytes |
| Instructions | 2       |

```
      00 01 02 03 04 05 06 07  08 09 0A 0B 0C 0D 0E 0F
      -- -- -- -- -- -- -- --  -- -- -- -- -- -- -- --
0070:                                            84 00                ..
```

#### Opcodes

```
  0: 0x007E [0x84] ADJUST_RENDER_FLAGS3_BIT0()
  1: 0x007F [0x00] END_REQSTACK()
```

### Event 65535.5

#### Metadata

| Field        | Value    |
|--------------|----------|
| Entrypoint   | 0x0080   |
| Data Size    | 10 bytes |
| Instructions | 2        |

```
      00 01 02 03 04 05 06 07  08 09 0A 0B 0C 0D 0E 0F
      -- -- -- -- -- -- -- --  -- -- -- -- -- -- -- --
0080: 6C F8 FF FF 7F 03 80 01  80 00                    l.........      
```

#### Opcodes

```
  0: 0x0080 [0x6C] FADE_ENTITY_COLOR(entity_id=EventEntity, end_alpha=128*, fade_time=0*)
  1: 0x0089 [0x00] END_REQSTACK()
```

### Event 65535.6

#### Metadata

| Field        | Value    |
|--------------|----------|
| Entrypoint   | 0x008A   |
| Data Size    | 10 bytes |
| Instructions | 2        |

```
      00 01 02 03 04 05 06 07  08 09 0A 0B 0C 0D 0E 0F
      -- -- -- -- -- -- -- --  -- -- -- -- -- -- -- --
0080:                                6C F8 FF FF 7F 01            l.....
0090: 80 01 80 00                                       ....            
```

#### Opcodes

```
  0: 0x008A [0x6C] FADE_ENTITY_COLOR(entity_id=EventEntity, end_alpha=0*, fade_time=0*)
  1: 0x0093 [0x00] END_REQSTACK()
```

### Event 65535.7

#### Metadata

| Field        | Value   |
|--------------|---------|
| Entrypoint   | 0x0094  |
| Data Size    | 3 bytes |
| Instructions | 2       |

```
      00 01 02 03 04 05 06 07  08 09 0A 0B 0C 0D 0E 0F
      -- -- -- -- -- -- -- --  -- -- -- -- -- -- -- --
0090:             A4 01 00                                  ...         
```

#### Opcodes

```
  0: 0x0094 [0xA4] EventEntity->Flags3.unknown_3_2 = 1
  1: 0x0096 [0x00] END_REQSTACK()
```

### Event 44

#### Metadata

| Field        | Value   |
|--------------|---------|
| Entrypoint   | 0x0097  |
| Data Size    | 1 bytes |
| Instructions | 1       |

```
      00 01 02 03 04 05 06 07  08 09 0A 0B 0C 0D 0E 0F
      -- -- -- -- -- -- -- --  -- -- -- -- -- -- -- --
0090:                      00                                  .        
```

#### Opcodes

```
  0: 0x0097 [0x00] END_REQSTACK()
```

### Event 65535.8

#### Metadata

| Field        | Value    |
|--------------|----------|
| Entrypoint   | 0x0098   |
| Data Size    | 19 bytes |
| Instructions | 3        |

```
      00 01 02 03 04 05 06 07  08 09 0A 0B 0C 0D 0E 0F
      -- -- -- -- -- -- -- --  -- -- -- -- -- -- -- --
0090:                          5B 04 80 F8 FF FF 7F F8          [.......
00A0: FF FF 7F 64 6F 6C 30 1C  05 80 00                 ...dol0....     
```

#### Opcodes

```
  0: 0x0098 [0x5B] LOAD_EXT_SCHEDULER: Load scheduler "dol0" with entities [EventEntity, EventEntity], work=2760*
  1: 0x00A7 [0x1C] WAIT(15* ticks)
  2: 0x00AA [0x00] END_REQSTACK()
```

### Event 65535.9

#### Metadata

| Field        | Value    |
|--------------|----------|
| Entrypoint   | 0x00AB   |
| Data Size    | 16 bytes |
| Instructions | 2        |

```
      00 01 02 03 04 05 06 07  08 09 0A 0B 0C 0D 0E 0F
      -- -- -- -- -- -- -- --  -- -- -- -- -- -- -- --
00A0:                                   5B 04 80 F8 FF             [....
00B0: FF 7F F8 FF FF 7F 64 6F  6C 6C 00                 ......doll.     
```

#### Opcodes

```
  0: 0x00AB [0x5B] LOAD_EXT_SCHEDULER: Load scheduler "doll" with entities [EventEntity, EventEntity], work=2760*
  1: 0x00BA [0x00] END_REQSTACK()
```

### Event 65535.10

#### Metadata

| Field        | Value    |
|--------------|----------|
| Entrypoint   | 0x00BB   |
| Data Size    | 16 bytes |
| Instructions | 2        |

```
      00 01 02 03 04 05 06 07  08 09 0A 0B 0C 0D 0E 0F
      -- -- -- -- -- -- -- --  -- -- -- -- -- -- -- --
00B0:                                   5B 04 80 F8 FF             [....
00C0: FF 7F F8 FF FF 7F 74 6C  6B 30 00                 ......tlk0.     
```

#### Opcodes

```
  0: 0x00BB [0x5B] LOAD_EXT_SCHEDULER: Load scheduler "tlk0" with entities [EventEntity, EventEntity], work=2760*
  1: 0x00CA [0x00] END_REQSTACK()
```

### Event 65535.11

#### Metadata

| Field        | Value    |
|--------------|----------|
| Entrypoint   | 0x00CB   |
| Data Size    | 19 bytes |
| Instructions | 3        |

```
      00 01 02 03 04 05 06 07  08 09 0A 0B 0C 0D 0E 0F
      -- -- -- -- -- -- -- --  -- -- -- -- -- -- -- --
00C0:                                   5B 04 80 F8 FF             [....
00D0: FF 7F F8 FF FF 7F 74 6C  6B 31 1C 06 80 00        ......tlk1....  
```

#### Opcodes

```
  0: 0x00CB [0x5B] LOAD_EXT_SCHEDULER: Load scheduler "tlk1" with entities [EventEntity, EventEntity], work=2760*
  1: 0x00DA [0x1C] WAIT(60* ticks)
  2: 0x00DD [0x00] END_REQSTACK()
```

### Event 65535.12

#### Metadata

| Field        | Value    |
|--------------|----------|
| Entrypoint   | 0x00DE   |
| Data Size    | 16 bytes |
| Instructions | 2        |

```
      00 01 02 03 04 05 06 07  08 09 0A 0B 0C 0D 0E 0F
      -- -- -- -- -- -- -- --  -- -- -- -- -- -- -- --
00D0:                                            5B 04                [.
00E0: 80 F8 FF FF 7F F8 FF FF  7F 73 6A 69 30 00        .........sji0.  
```

#### Opcodes

```
  0: 0x00DE [0x5B] LOAD_EXT_SCHEDULER: Load scheduler "sji0" with entities [EventEntity, EventEntity], work=2760*
  1: 0x00ED [0x00] END_REQSTACK()
```

### Event 65535.13

#### Metadata

| Field        | Value    |
|--------------|----------|
| Entrypoint   | 0x00EE   |
| Data Size    | 16 bytes |
| Instructions | 2        |

```
      00 01 02 03 04 05 06 07  08 09 0A 0B 0C 0D 0E 0F
      -- -- -- -- -- -- -- --  -- -- -- -- -- -- -- --
00E0:                                            5B 04                [.
00F0: 80 F8 FF FF 7F F8 FF FF  7F 73 6A 69 31 00        .........sji1.  
```

#### Opcodes

```
  0: 0x00EE [0x5B] LOAD_EXT_SCHEDULER: Load scheduler "sji1" with entities [EventEntity, EventEntity], work=2760*
  1: 0x00FD [0x00] END_REQSTACK()
```

### Event 65535.14

#### Metadata

| Field        | Value    |
|--------------|----------|
| Entrypoint   | 0x00FE   |
| Data Size    | 16 bytes |
| Instructions | 2        |

```
      00 01 02 03 04 05 06 07  08 09 0A 0B 0C 0D 0E 0F
      -- -- -- -- -- -- -- --  -- -- -- -- -- -- -- --
00F0:                                            5B 04                [.
0100: 80 F8 FF FF 7F F8 FF FF  7F 73 6A 69 6C 00        .........sjil.  
```

#### Opcodes

```
  0: 0x00FE [0x5B] LOAD_EXT_SCHEDULER: Load scheduler "sjil" with entities [EventEntity, EventEntity], work=2760*
  1: 0x010D [0x00] END_REQSTACK()
```

### Event 65535.15

#### Metadata

| Field        | Value    |
|--------------|----------|
| Entrypoint   | 0x010E   |
| Data Size    | 16 bytes |
| Instructions | 2        |

```
      00 01 02 03 04 05 06 07  08 09 0A 0B 0C 0D 0E 0F
      -- -- -- -- -- -- -- --  -- -- -- -- -- -- -- --
0100:                                            5B 04                [.
0110: 80 F8 FF FF 7F F8 FF FF  7F 6F 68 68 30 00        .........ohh0.  
```

#### Opcodes

```
  0: 0x010E [0x5B] LOAD_EXT_SCHEDULER: Load scheduler "ohh0" with entities [EventEntity, EventEntity], work=2760*
  1: 0x011D [0x00] END_REQSTACK()
```

### Event 65535.16

#### Metadata

| Field        | Value    |
|--------------|----------|
| Entrypoint   | 0x011E   |
| Data Size    | 16 bytes |
| Instructions | 2        |

```
      00 01 02 03 04 05 06 07  08 09 0A 0B 0C 0D 0E 0F
      -- -- -- -- -- -- -- --  -- -- -- -- -- -- -- --
0110:                                            5B 04                [.
0120: 80 F8 FF FF 7F F8 FF FF  7F 6F 68 68 31 00        .........ohh1.  
```

#### Opcodes

```
  0: 0x011E [0x5B] LOAD_EXT_SCHEDULER: Load scheduler "ohh1" with entities [EventEntity, EventEntity], work=2760*
  1: 0x012D [0x00] END_REQSTACK()
```

### Event 65535.17

#### Metadata

| Field        | Value    |
|--------------|----------|
| Entrypoint   | 0x012E   |
| Data Size    | 16 bytes |
| Instructions | 2        |

```
      00 01 02 03 04 05 06 07  08 09 0A 0B 0C 0D 0E 0F
      -- -- -- -- -- -- -- --  -- -- -- -- -- -- -- --
0120:                                            5B 04                [.
0130: 80 F8 FF FF 7F F8 FF FF  7F 6F 68 68 6C 00        .........ohhl.  
```

#### Opcodes

```
  0: 0x012E [0x5B] LOAD_EXT_SCHEDULER: Load scheduler "ohhl" with entities [EventEntity, EventEntity], work=2760*
  1: 0x013D [0x00] END_REQSTACK()
```

### Event 65535.18

#### Metadata

| Field        | Value    |
|--------------|----------|
| Entrypoint   | 0x013E   |
| Data Size    | 19 bytes |
| Instructions | 3        |

```
      00 01 02 03 04 05 06 07  08 09 0A 0B 0C 0D 0E 0F
      -- -- -- -- -- -- -- --  -- -- -- -- -- -- -- --
0130:                                            5B 07                [.
0140: 80 F8 FF FF 7F F8 FF FF  7F 79 72 65 30 1C 08 80  .........yre0...
0150: 00                                                .               
```

#### Opcodes

```
  0: 0x013E [0x5B] LOAD_EXT_SCHEDULER: Load scheduler "yre0" with entities [EventEntity, EventEntity], work=2766*
  1: 0x014D [0x1C] WAIT(144* ticks)
  2: 0x0150 [0x00] END_REQSTACK()
```

### Event 65535.19

#### Metadata

| Field        | Value    |
|--------------|----------|
| Entrypoint   | 0x0151   |
| Data Size    | 16 bytes |
| Instructions | 2        |

```
      00 01 02 03 04 05 06 07  08 09 0A 0B 0C 0D 0E 0F
      -- -- -- -- -- -- -- --  -- -- -- -- -- -- -- --
0150:    66 09 80 F8 FF FF 7F  F8 FF FF 7F 64 69 73 30   f..........dis0
0160: 00                                                .               
```

#### Opcodes

```
  0: 0x0151 [0x66] LOAD_EXT_SCHEDULER_MAIN: Load scheduler "dis0" with entities [EventEntity, EventEntity], work=40*
  1: 0x0160 [0x00] END_REQSTACK()
```

### Event 65535.20

#### Metadata

| Field        | Value    |
|--------------|----------|
| Entrypoint   | 0x0161   |
| Data Size    | 16 bytes |
| Instructions | 2        |

```
      00 01 02 03 04 05 06 07  08 09 0A 0B 0C 0D 0E 0F
      -- -- -- -- -- -- -- --  -- -- -- -- -- -- -- --
0160:    66 09 80 F8 FF FF 7F  F8 FF FF 7F 69 72 6F 30   f..........iro0
0170: 00                                                .               
```

#### Opcodes

```
  0: 0x0161 [0x66] LOAD_EXT_SCHEDULER_MAIN: Load scheduler "iro0" with entities [EventEntity, EventEntity], work=40*
  1: 0x0170 [0x00] END_REQSTACK()
```

### Event 65535.21

#### Metadata

| Field        | Value    |
|--------------|----------|
| Entrypoint   | 0x0171   |
| Data Size    | 16 bytes |
| Instructions | 2        |

```
      00 01 02 03 04 05 06 07  08 09 0A 0B 0C 0D 0E 0F
      -- -- -- -- -- -- -- --  -- -- -- -- -- -- -- --
0170:    66 09 80 F8 FF FF 7F  F8 FF FF 7F 70 6F 69 30   f..........poi0
0180: 00                                                .               
```

#### Opcodes

```
  0: 0x0171 [0x66] LOAD_EXT_SCHEDULER_MAIN: Load scheduler "poi0" with entities [EventEntity, EventEntity], work=40*
  1: 0x0180 [0x00] END_REQSTACK()
```

### Event 65535.22

#### Metadata

| Field        | Value    |
|--------------|----------|
| Entrypoint   | 0x0181   |
| Data Size    | 16 bytes |
| Instructions | 2        |

```
      00 01 02 03 04 05 06 07  08 09 0A 0B 0C 0D 0E 0F
      -- -- -- -- -- -- -- --  -- -- -- -- -- -- -- --
0180:    66 0A 80 F8 FF FF 7F  F8 FF FF 7F 74 6C 6B 30   f..........tlk0
0190: 00                                                .               
```

#### Opcodes

```
  0: 0x0181 [0x66] LOAD_EXT_SCHEDULER_MAIN: Load scheduler "tlk0" with entities [EventEntity, EventEntity], work=49*
  1: 0x0190 [0x00] END_REQSTACK()
```

### Event 65535.23

#### Metadata

| Field        | Value    |
|--------------|----------|
| Entrypoint   | 0x0191   |
| Data Size    | 16 bytes |
| Instructions | 2        |

```
      00 01 02 03 04 05 06 07  08 09 0A 0B 0C 0D 0E 0F
      -- -- -- -- -- -- -- --  -- -- -- -- -- -- -- --
0190:    66 0A 80 F8 FF FF 7F  F8 FF FF 7F 74 6C 6B 31   f..........tlk1
01A0: 00                                                .               
```

#### Opcodes

```
  0: 0x0191 [0x66] LOAD_EXT_SCHEDULER_MAIN: Load scheduler "tlk1" with entities [EventEntity, EventEntity], work=49*
  1: 0x01A0 [0x00] END_REQSTACK()
```

### Event 65535.24

#### Metadata

| Field        | Value    |
|--------------|----------|
| Entrypoint   | 0x01A1   |
| Data Size    | 16 bytes |
| Instructions | 2        |

```
      00 01 02 03 04 05 06 07  08 09 0A 0B 0C 0D 0E 0F
      -- -- -- -- -- -- -- --  -- -- -- -- -- -- -- --
01A0:    66 09 80 F8 FF FF 7F  F8 FF FF 7F 74 6C 6B 30   f..........tlk0
01B0: 00                                                .               
```

#### Opcodes

```
  0: 0x01A1 [0x66] LOAD_EXT_SCHEDULER_MAIN: Load scheduler "tlk0" with entities [EventEntity, EventEntity], work=40*
  1: 0x01B0 [0x00] END_REQSTACK()
```

### Event 65535.25

#### Metadata

| Field        | Value    |
|--------------|----------|
| Entrypoint   | 0x01B1   |
| Data Size    | 16 bytes |
| Instructions | 2        |

```
      00 01 02 03 04 05 06 07  08 09 0A 0B 0C 0D 0E 0F
      -- -- -- -- -- -- -- --  -- -- -- -- -- -- -- --
01B0:    66 09 80 F8 FF FF 7F  F8 FF FF 7F 74 6C 6B 31   f..........tlk1
01C0: 00                                                .               
```

#### Opcodes

```
  0: 0x01B1 [0x66] LOAD_EXT_SCHEDULER_MAIN: Load scheduler "tlk1" with entities [EventEntity, EventEntity], work=40*
  1: 0x01C0 [0x00] END_REQSTACK()
```

### Event 65535.26

#### Metadata

| Field        | Value    |
|--------------|----------|
| Entrypoint   | 0x01C1   |
| Data Size    | 16 bytes |
| Instructions | 2        |

```
      00 01 02 03 04 05 06 07  08 09 0A 0B 0C 0D 0E 0F
      -- -- -- -- -- -- -- --  -- -- -- -- -- -- -- --
01C0:    5B 0B 80 F8 FF FF 7F  F8 FF FF 7F 67 65 6E 30   [..........gen0
01D0: 00                                                .               
```

#### Opcodes

```
  0: 0x01C1 [0x5B] LOAD_EXT_SCHEDULER: Load scheduler "gen0" with entities [EventEntity, EventEntity], work=1373*
  1: 0x01D0 [0x00] END_REQSTACK()
```

### Event 65535.27

#### Metadata

| Field        | Value    |
|--------------|----------|
| Entrypoint   | 0x01D1   |
| Data Size    | 16 bytes |
| Instructions | 2        |

```
      00 01 02 03 04 05 06 07  08 09 0A 0B 0C 0D 0E 0F
      -- -- -- -- -- -- -- --  -- -- -- -- -- -- -- --
01D0:    5B 0B 80 F8 FF FF 7F  F8 FF FF 7F 67 75 64 30   [..........gud0
01E0: 00                                                .               
```

#### Opcodes

```
  0: 0x01D1 [0x5B] LOAD_EXT_SCHEDULER: Load scheduler "gud0" with entities [EventEntity, EventEntity], work=1373*
  1: 0x01E0 [0x00] END_REQSTACK()
```

### Event 65535.28

#### Metadata

| Field        | Value    |
|--------------|----------|
| Entrypoint   | 0x01E1   |
| Data Size    | 16 bytes |
| Instructions | 2        |

```
      00 01 02 03 04 05 06 07  08 09 0A 0B 0C 0D 0E 0F
      -- -- -- -- -- -- -- --  -- -- -- -- -- -- -- --
01E0:    5B 0B 80 F8 FF FF 7F  F8 FF FF 7F 67 75 64 31   [..........gud1
01F0: 00                                                .               
```

#### Opcodes

```
  0: 0x01E1 [0x5B] LOAD_EXT_SCHEDULER: Load scheduler "gud1" with entities [EventEntity, EventEntity], work=1373*
  1: 0x01F0 [0x00] END_REQSTACK()
```

### Event 65535.29

#### Metadata

| Field        | Value    |
|--------------|----------|
| Entrypoint   | 0x01F1   |
| Data Size    | 19 bytes |
| Instructions | 3        |

```
      00 01 02 03 04 05 06 07  08 09 0A 0B 0C 0D 0E 0F
      -- -- -- -- -- -- -- --  -- -- -- -- -- -- -- --
01F0:    5B 0C 80 F8 FF FF 7F  F8 FF FF 7F 68 6E 65 30   [..........hne0
0200: 1C 0D 80 00                                       ....            
```

#### Opcodes

```
  0: 0x01F1 [0x5B] LOAD_EXT_SCHEDULER: Load scheduler "hne0" with entities [EventEntity, EventEntity], work=1376*
  1: 0x0200 [0x1C] WAIT(244* ticks)
  2: 0x0203 [0x00] END_REQSTACK()
```

### Event 65535.30

#### Metadata

| Field        | Value    |
|--------------|----------|
| Entrypoint   | 0x0204   |
| Data Size    | 16 bytes |
| Instructions | 2        |

```
      00 01 02 03 04 05 06 07  08 09 0A 0B 0C 0D 0E 0F
      -- -- -- -- -- -- -- --  -- -- -- -- -- -- -- --
0200:             5B 0C 80 F8  FF FF 7F F8 FF FF 7F 68      [..........h
0210: 6F 6B 30 00                                       ok0.            
```

#### Opcodes

```
  0: 0x0204 [0x5B] LOAD_EXT_SCHEDULER: Load scheduler "hok0" with entities [EventEntity, EventEntity], work=1376*
  1: 0x0213 [0x00] END_REQSTACK()
```

### Event 65535.31

#### Metadata

| Field        | Value    |
|--------------|----------|
| Entrypoint   | 0x0214   |
| Data Size    | 19 bytes |
| Instructions | 3        |

```
      00 01 02 03 04 05 06 07  08 09 0A 0B 0C 0D 0E 0F
      -- -- -- -- -- -- -- --  -- -- -- -- -- -- -- --
0210:             5B 0C 80 F8  FF FF 7F F8 FF FF 7F 68      [..........h
0220: 6F 6B 31 1C 0E 80 00                              ok1....         
```

#### Opcodes

```
  0: 0x0214 [0x5B] LOAD_EXT_SCHEDULER: Load scheduler "hok1" with entities [EventEntity, EventEntity], work=1376*
  1: 0x0223 [0x1C] WAIT(56* ticks)
  2: 0x0226 [0x00] END_REQSTACK()
```

### Event 65535.32

#### Metadata

| Field        | Value    |
|--------------|----------|
| Entrypoint   | 0x0227   |
| Data Size    | 48 bytes |
| Instructions | 8        |

```
      00 01 02 03 04 05 06 07  08 09 0A 0B 0C 0D 0E 0F
      -- -- -- -- -- -- -- --  -- -- -- -- -- -- -- --
0220:                      7B  F8 FF FF 7F 81 00 F8 FF         {........
0230: FF 7F 7C 00 F8 FF FF 7F  5B 0B 80 F8 FF FF 7F F8  ..|.....[.......
0240: FF FF 7F 67 61 68 32 1C  0F 80 81 01 F8 FF FF 7F  ...gah2.........
0250: 7C 01 F8 FF FF 7F 00                              |......         
```

#### Opcodes

```
  0: 0x0227 [0x7B] EventEntity stops talking
  1: 0x022C [0x81] SET_ENTITY_BLINKING(blink_flag=0x00, entity=EventEntity)
  2: 0x0232 [0x7C] EventEntity->Render.Flags2 |= 0x00
  3: 0x0238 [0x5B] LOAD_EXT_SCHEDULER: Load scheduler "gah2" with entities [EventEntity, EventEntity], work=1373*
  4: 0x0247 [0x1C] WAIT(180* ticks)
  5: 0x024A [0x81] SET_ENTITY_BLINKING(blink_flag=0x01, entity=EventEntity)
  6: 0x0250 [0x7C] EventEntity->Render.Flags2 |= 0x01
  7: 0x0256 [0x00] END_REQSTACK()
```

### Event 65535.33

#### Metadata

| Field        | Value    |
|--------------|----------|
| Entrypoint   | 0x0257   |
| Data Size    | 48 bytes |
| Instructions | 8        |

```
      00 01 02 03 04 05 06 07  08 09 0A 0B 0C 0D 0E 0F
      -- -- -- -- -- -- -- --  -- -- -- -- -- -- -- --
0250:                      7B  F8 FF FF 7F 81 00 F8 FF         {........
0260: FF 7F 7C 00 F8 FF FF 7F  5B 10 80 F8 FF FF 7F F8  ..|.....[.......
0270: FF FF 7F 6B 73 68 30 1C  11 80 81 01 F8 FF FF 7F  ...ksh0.........
0280: 7C 01 F8 FF FF 7F 00                              |......         
```

#### Opcodes

```
  0: 0x0257 [0x7B] EventEntity stops talking
  1: 0x025C [0x81] SET_ENTITY_BLINKING(blink_flag=0x00, entity=EventEntity)
  2: 0x0262 [0x7C] EventEntity->Render.Flags2 |= 0x00
  3: 0x0268 [0x5B] LOAD_EXT_SCHEDULER: Load scheduler "ksh0" with entities [EventEntity, EventEntity], work=2049*
  4: 0x0277 [0x1C] WAIT(97* ticks)
  5: 0x027A [0x81] SET_ENTITY_BLINKING(blink_flag=0x01, entity=EventEntity)
  6: 0x0280 [0x7C] EventEntity->Render.Flags2 |= 0x01
  7: 0x0286 [0x00] END_REQSTACK()
```

### Event 65535.34

#### Metadata

| Field        | Value    |
|--------------|----------|
| Entrypoint   | 0x0287   |
| Data Size    | 21 bytes |
| Instructions | 3        |

```
      00 01 02 03 04 05 06 07  08 09 0A 0B 0C 0D 0E 0F
      -- -- -- -- -- -- -- --  -- -- -- -- -- -- -- --
0280:                      C5  12 80 F8 FF FF 7F F8 FF         .........
0290: FF 7F 73 30 30 30 01 80  1C 13 80 00              ..s000......    
```

#### Opcodes

```
  0: 0x0287 [0xC5] LOAD_SCHEDULED_TASK_ALT3: Load scheduler 0x80013030 for entities [EventEntity, EventEntity], work=187*, param=12403
  1: 0x0298 [0x1C] WAIT(900* ticks)
  2: 0x029B [0x00] END_REQSTACK()
```

### Event 45

#### Metadata

| Field        | Value   |
|--------------|---------|
| Entrypoint   | 0x029C  |
| Data Size    | 1 bytes |
| Instructions | 1       |

```
      00 01 02 03 04 05 06 07  08 09 0A 0B 0C 0D 0E 0F
      -- -- -- -- -- -- -- --  -- -- -- -- -- -- -- --
0290:                                      00                       .   
```

#### Opcodes

```
  0: 0x029C [0x00] END_REQSTACK()
```

### Event 65535.35

#### Metadata

| Field        | Value   |
|--------------|---------|
| Entrypoint   | 0x029D  |
| Data Size    | 5 bytes |
| Instructions | 2       |

```
      00 01 02 03 04 05 06 07  08 09 0A 0B 0C 0D 0E 0F
      -- -- -- -- -- -- -- --  -- -- -- -- -- -- -- --
0290:                                         B6 0F 09               ...
02A0: 80 00                                             ..              
```

#### Opcodes

```
  0: 0x029D [0xB6] ENTITY_APPEARANCE_HANDLER(case=Model size, value=40*)
  1: 0x02A1 [0x00] END_REQSTACK()
```

### Event 65535.36

#### Metadata

| Field        | Value    |
|--------------|----------|
| Entrypoint   | 0x02A2   |
| Data Size    | 66 bytes |
| Instructions | 10       |

```
      00 01 02 03 04 05 06 07  08 09 0A 0B 0C 0D 0E 0F
      -- -- -- -- -- -- -- --  -- -- -- -- -- -- -- --
02A0:       3B D9 E1 07 01 02  00 03 00 04 00 3A D9 E1    ;..........:..
02B0: 07 01 05 00 16 06 00 05  00 14 80 17 07 00 05 00  ................
02C0: 14 80 07 02 00 06 00 07  03 00 07 00 07 04 00 15  ................
02D0: 80 BA F8 FF FF 7F 02 00  03 00 04 00 05 00 80 F8  ................
02E0: FF FF 7F 00                                       ....            
```

#### Opcodes

```
  0: 0x02A2 [0x3B] GET_ENTITY_POSITION(entity=??? (ID: 17293785/0x0107E1D9), x_destination=ExtData[1]->WorkLocal[2], y_destination=ExtData[1]->WorkLocal[3], z_destination=ExtData[1]->WorkLocal[4])
  1: 0x02AD [0x3A] CONVERT_YAW_TO_BYTE(entity=??? (ID: 17293785/0x0107E1D9), result_destination=ExtData[1]->WorkLocal[5])
  2: 0x02B4 [0x16] ExtData[1]->WorkLocal[6] = sin(ExtData[1]->WorkLocal[5]) * 300*
  3: 0x02BB [0x17] ExtData[1]->WorkLocal[7] = cos(ExtData[1]->WorkLocal[5]) * 300*
  4: 0x02C2 [0x07] ExtData[1]->WorkLocal[2] += ExtData[1]->WorkLocal[6]
  5: 0x02C7 [0x07] ExtData[1]->WorkLocal[3] += ExtData[1]->WorkLocal[7]
  6: 0x02CC [0x07] ExtData[1]->WorkLocal[4] += 4294966116*
  7: 0x02D1 [0xBA] SET_ENTITY_POSITION(entity_id=EventEntity, pos_x=ExtData[1]->WorkLocal[2], pos_z=ExtData[1]->WorkLocal[3], pos_y=ExtData[1]->WorkLocal[4], direction=ExtData[1]->WorkLocal[5])
  8: 0x02DE [0x80] LOAD_WAIT(entity=EventEntity)
  9: 0x02E3 [0x00] END_REQSTACK()
```

### Event 65535.37

#### Metadata

| Field        | Value    |
|--------------|----------|
| Entrypoint   | 0x02E4   |
| Data Size    | 13 bytes |
| Instructions | 3        |

```
      00 01 02 03 04 05 06 07  08 09 0A 0B 0C 0D 0E 0F
      -- -- -- -- -- -- -- --  -- -- -- -- -- -- -- --
02E0:             6C F8 FF FF  7F 16 80 17 80 1C 17 80      l...........
02F0: 00                                                .               
```

#### Opcodes

```
  0: 0x02E4 [0x6C] FADE_ENTITY_COLOR(entity_id=EventEntity, end_alpha=100*, fade_time=120*)
  1: 0x02ED [0x1C] WAIT(120* ticks)
  2: 0x02F0 [0x00] END_REQSTACK()
```

### Event 65535.38

#### Metadata

| Field        | Value    |
|--------------|----------|
| Entrypoint   | 0x02F1   |
| Data Size    | 13 bytes |
| Instructions | 3        |

```
      00 01 02 03 04 05 06 07  08 09 0A 0B 0C 0D 0E 0F
      -- -- -- -- -- -- -- --  -- -- -- -- -- -- -- --
02F0:    6C F8 FF FF 7F 01 80  17 80 1C 17 80 00         l............  
```

#### Opcodes

```
  0: 0x02F1 [0x6C] FADE_ENTITY_COLOR(entity_id=EventEntity, end_alpha=0*, fade_time=120*)
  1: 0x02FA [0x1C] WAIT(120* ticks)
  2: 0x02FD [0x00] END_REQSTACK()
```

### Event 65535.39

#### Metadata

| Field        | Value    |
|--------------|----------|
| Entrypoint   | 0x02FE   |
| Data Size    | 43 bytes |
| Instructions | 7        |

```
      00 01 02 03 04 05 06 07  08 09 0A 0B 0C 0D 0E 0F
      -- -- -- -- -- -- -- --  -- -- -- -- -- -- -- --
02F0:                                            81 00                ..
0300: F8 FF FF 7F 7C 00 F8 FF  FF 7F 5B 10 80 F8 FF FF  ....|.....[.....
0310: 7F F8 FF FF 7F 79 67 6F  30 1C 18 80 81 01 F8 FF  .....ygo0.......
0320: FF 7F 7C 01 F8 FF FF 7F  00                       ..|......       
```

#### Opcodes

```
  0: 0x02FE [0x81] SET_ENTITY_BLINKING(blink_flag=0x00, entity=EventEntity)
  1: 0x0304 [0x7C] EventEntity->Render.Flags2 |= 0x00
  2: 0x030A [0x5B] LOAD_EXT_SCHEDULER: Load scheduler "ygo0" with entities [EventEntity, EventEntity], work=2049*
  3: 0x0319 [0x1C] WAIT(176* ticks)
  4: 0x031C [0x81] SET_ENTITY_BLINKING(blink_flag=0x01, entity=EventEntity)
  5: 0x0322 [0x7C] EventEntity->Render.Flags2 |= 0x01
  6: 0x0328 [0x00] END_REQSTACK()
```

### Event 65535.40

#### Metadata

| Field        | Value    |
|--------------|----------|
| Entrypoint   | 0x0329   |
| Data Size    | 16 bytes |
| Instructions | 2        |

```
      00 01 02 03 04 05 06 07  08 09 0A 0B 0C 0D 0E 0F
      -- -- -- -- -- -- -- --  -- -- -- -- -- -- -- --
0320:                             66 19 80 F8 FF FF 7F           f......
0330: F8 FF FF 7F 65 68 6E 30  00                       ....ehn0.       
```

#### Opcodes

```
  0: 0x0329 [0x66] LOAD_EXT_SCHEDULER_MAIN: Load scheduler "ehn0" with entities [EventEntity, EventEntity], work=41*
  1: 0x0338 [0x00] END_REQSTACK()
```

### Event 65535.41

#### Metadata

| Field        | Value    |
|--------------|----------|
| Entrypoint   | 0x0339   |
| Data Size    | 29 bytes |
| Instructions | 3        |

```
      00 01 02 03 04 05 06 07  08 09 0A 0B 0C 0D 0E 0F
      -- -- -- -- -- -- -- --  -- -- -- -- -- -- -- --
0330:                             66 19 80 F8 FF FF 7F           f......
0340: F8 FF FF 7F 65 68 6E 31  53 F8 FF FF 7F F8 FF FF  ....ehn1S.......
0350: 7F 65 68 6E 31 00                                 .ehn1.          
```

#### Opcodes

```
  0: 0x0339 [0x66] LOAD_EXT_SCHEDULER_MAIN: Load scheduler "ehn1" with entities [EventEntity, EventEntity], work=41*
  1: 0x0348 [0x53] WAIT_SCHEDULER_TASK: Wait for scheduler "ehn1" with entities [EventEntity, EventEntity]
  2: 0x0355 [0x00] END_REQSTACK()
```

### Event 65535.42

#### Metadata

| Field        | Value    |
|--------------|----------|
| Entrypoint   | 0x0356   |
| Data Size    | 29 bytes |
| Instructions | 3        |

```
      00 01 02 03 04 05 06 07  08 09 0A 0B 0C 0D 0E 0F
      -- -- -- -- -- -- -- --  -- -- -- -- -- -- -- --
0350:                   5B 1A  80 F8 FF FF 7F F8 FF FF        [.........
0360: 7F 67 61 68 30 53 F8 FF  FF 7F F8 FF FF 7F 67 61  .gah0S........ga
0370: 68 30 00                                          h0.             
```

#### Opcodes

```
  0: 0x0356 [0x5B] LOAD_EXT_SCHEDULER: Load scheduler "gah0" with entities [EventEntity, EventEntity], work=1374*
  1: 0x0365 [0x53] WAIT_SCHEDULER_TASK: Wait for scheduler "gah0" with entities [EventEntity, EventEntity]
  2: 0x0372 [0x00] END_REQSTACK()
```

### Event 65535.43

#### Metadata

| Field        | Value    |
|--------------|----------|
| Entrypoint   | 0x0373   |
| Data Size    | 16 bytes |
| Instructions | 2        |

```
      00 01 02 03 04 05 06 07  08 09 0A 0B 0C 0D 0E 0F
      -- -- -- -- -- -- -- --  -- -- -- -- -- -- -- --
0370:          66 1B 80 F8 FF  FF 7F F8 FF FF 7F 6D 73     f..........ms
0380: 75 30 00                                          u0.             
```

#### Opcodes

```
  0: 0x0373 [0x66] LOAD_EXT_SCHEDULER_MAIN: Load scheduler "msu0" with entities [EventEntity, EventEntity], work=42*
  1: 0x0382 [0x00] END_REQSTACK()
```

### Event 65535.44

#### Metadata

| Field        | Value    |
|--------------|----------|
| Entrypoint   | 0x0383   |
| Data Size    | 29 bytes |
| Instructions | 3        |

```
      00 01 02 03 04 05 06 07  08 09 0A 0B 0C 0D 0E 0F
      -- -- -- -- -- -- -- --  -- -- -- -- -- -- -- --
0380:          66 1B 80 F8 FF  FF 7F F8 FF FF 7F 6D 73     f..........ms
0390: 75 31 53 F8 FF FF 7F F8  FF FF 7F 6D 73 75 31 00  u1S........msu1.
```

#### Opcodes

```
  0: 0x0383 [0x66] LOAD_EXT_SCHEDULER_MAIN: Load scheduler "msu1" with entities [EventEntity, EventEntity], work=42*
  1: 0x0392 [0x53] WAIT_SCHEDULER_TASK: Wait for scheduler "msu1" with entities [EventEntity, EventEntity]
  2: 0x039F [0x00] END_REQSTACK()
```

### Event 65535.45

#### Metadata

| Field        | Value    |
|--------------|----------|
| Entrypoint   | 0x03A0   |
| Data Size    | 19 bytes |
| Instructions | 3        |

```
      00 01 02 03 04 05 06 07  08 09 0A 0B 0C 0D 0E 0F
      -- -- -- -- -- -- -- --  -- -- -- -- -- -- -- --
03A0: 5B 07 80 F8 FF FF 7F F8  FF FF 7F 6B 6B 61 30 1C  [..........kka0.
03B0: 1C 80 00                                          ...             
```

#### Opcodes

```
  0: 0x03A0 [0x5B] LOAD_EXT_SCHEDULER: Load scheduler "kka0" with entities [EventEntity, EventEntity], work=2766*
  1: 0x03AF [0x1C] WAIT(104* ticks)
  2: 0x03B2 [0x00] END_REQSTACK()
```

### Event 65535.46

#### Metadata

| Field        | Value    |
|--------------|----------|
| Entrypoint   | 0x03B3   |
| Data Size    | 19 bytes |
| Instructions | 3        |

```
      00 01 02 03 04 05 06 07  08 09 0A 0B 0C 0D 0E 0F
      -- -- -- -- -- -- -- --  -- -- -- -- -- -- -- --
03B0:          5B 07 80 F8 FF  FF 7F F8 FF FF 7F 6B 6B     [..........kk
03C0: 61 31 1C 1D 80 00                                 a1....          
```

#### Opcodes

```
  0: 0x03B3 [0x5B] LOAD_EXT_SCHEDULER: Load scheduler "kka1" with entities [EventEntity, EventEntity], work=2766*
  1: 0x03C2 [0x1C] WAIT(108* ticks)
  2: 0x03C5 [0x00] END_REQSTACK()
```

### Event 65535.47

#### Metadata

| Field        | Value    |
|--------------|----------|
| Entrypoint   | 0x03C6   |
| Data Size    | 19 bytes |
| Instructions | 3        |

```
      00 01 02 03 04 05 06 07  08 09 0A 0B 0C 0D 0E 0F
      -- -- -- -- -- -- -- --  -- -- -- -- -- -- -- --
03C0:                   5B 07  80 F8 FF FF 7F F8 FF FF        [.........
03D0: 7F 79 65 73 30 1C 1E 80  00                       .yes0....       
```

#### Opcodes

```
  0: 0x03C6 [0x5B] LOAD_EXT_SCHEDULER: Load scheduler "yes0" with entities [EventEntity, EventEntity], work=2766*
  1: 0x03D5 [0x1C] WAIT(96* ticks)
  2: 0x03D8 [0x00] END_REQSTACK()
```
