# 17293711 - Chocobo

## Common Data

| Field            | Value                  |
|------------------|------------------------|
| Zone             | Qufim Island (ID: 126) |
| Block Size       | 556 bytes              |
| Total Events     | 11                     |
| References Count | 30                     |

## List of Events

| Event ID                 | Entrypoint   |   Size |   Instructions |
|--------------------------|--------------|--------|----------------|
| [65535](#event-65535)    | 0x0000       |      3 |              2 |
| [0](#event-0)            | 0x0003       |     10 |              2 |
| [65535.1](#event-655351) | 0x000D       |     17 |              6 |
| [65535.2](#event-655352) | 0x001E       |     26 |              8 |
| [65535.3](#event-655353) | 0x0038       |    150 |             20 |
| [65535.4](#event-655354) | 0x00CE       |     42 |             10 |
| [65535.5](#event-655355) | 0x00F8       |     29 |              3 |
| [65535.6](#event-655356) | 0x0115       |     40 |              5 |
| [65535.7](#event-655357) | 0x013D       |     29 |              3 |
| [65535.8](#event-655358) | 0x015A       |     29 |              3 |
| [65535.9](#event-655359) | 0x0177       |      1 |              1 |

## DAT References (imed_data)

|   Index | Hex Value   |   Dec Value |
|---------|-------------|-------------|
|       0 | 0xFFFBBC21  |  4294687777 |
|       1 | 0x36A2      |       13986 |
|       2 | 0xFFFFF056  |  4294963286 |
|       3 | 0x0FBE      |        4030 |
|       4 | 0x0050      |          80 |
|       5 | 0xFFFBDD86  |  4294696326 |
|       6 | 0x3D5B      |       15707 |
|       7 | 0xFFFFF5CE  |  4294964686 |
|       8 | 0x001B      |          27 |
|       9 | 0xFFFBF5E9  |  4294702569 |
|      10 | 0x59D0      |       22992 |
|      11 | 0xFFFFF36B  |  4294964075 |
|      12 | 0xFFFBFC5B  |  4294704219 |
|      13 | 0x617D      |       24957 |
|      14 | 0xFFFFF218  |  4294963736 |
|      15 | 0x003C      |          60 |
|      16 | 0x00DC      |         220 |
|      17 | 0xFFFBF27C  |  4294701692 |
|      18 | 0x6DAB      |       28075 |
|      19 | 0xFFFFF1AE  |  4294963630 |
|      20 | 0xFFFBF6A2  |  4294702754 |
|      21 | 0x695C      |       26972 |
|      22 | 0xFFFFF16B  |  4294963563 |
|      23 | 0xFFFBFEF6  |  4294704886 |
|      24 | 0x666D      |       26221 |
|      25 | 0xFFFFF089  |  4294963337 |
|      26 | 0xFFFBFDF9  |  4294704633 |
|      27 | 0x6976      |       26998 |
|      28 | 0xFFFFF0CD  |  4294963405 |
|      29 | 0x0000      |           0 |

## Events

### Event 65535

#### Metadata

| Field        | Value   |
|--------------|---------|
| Entrypoint   | 0x0000  |
| Data Size    | 3 bytes |
| Instructions | 2       |

```
      00 01 02 03 04 05 06 07  08 09 0A 0B 0C 0D 0E 0F
      -- -- -- -- -- -- -- --  -- -- -- -- -- -- -- --
0000: 22 01 00                                          "..             
```

#### Opcodes

```
  0: 0x0000 [0x22] ENTITY_HIDE_FLAG(enabled=0x01)
  1: 0x0002 [0x00] END_REQSTACK()
```

### Event 0

#### Metadata

| Field        | Value    |
|--------------|----------|
| Entrypoint   | 0x0003   |
| Data Size    | 10 bytes |
| Instructions | 2        |

```
      00 01 02 03 04 05 06 07  08 09 0A 0B 0C 0D 0E 0F
      -- -- -- -- -- -- -- --  -- -- -- -- -- -- -- --
0000:          37 00 80 01 80  02 80 03 80 00              7.........   
```

#### Opcodes

```
  0: 0x0003 [0x37] UPDATE_EVENT_POSITION_AND_DIR: x=-279.519*, z=13.986*, y=-4.010*, direction=354.2°*
  1: 0x000C [0x00] END_REQSTACK()
```

### Event 65535.1

#### Metadata

| Field        | Value    |
|--------------|----------|
| Entrypoint   | 0x000D   |
| Data Size    | 17 bytes |
| Instructions | 6        |

```
      00 01 02 03 04 05 06 07  08 09 0A 0B 0C 0D 0E 0F
      -- -- -- -- -- -- -- --  -- -- -- -- -- -- -- --
0000:                                         22 00 32               ".2
0010: 04 80 1F 00 05 80 06 80  07 80 1F 01 6F 00        ............o.  
```

#### Opcodes

```
  0: 0x000D [0x22] ENTITY_HIDE_FLAG(enabled=0x00)
  1: 0x000F [0x32] ExtData[1]->MainSpeed = 80* * 0.1
  2: 0x0012 [0x1F] MOVE_ENTITY: EventEntity moves to X=-270.970*, Z=15.707*, Y=-2.610*
  3: 0x001A [0x1F] MOVE_ENTITY: Update entity position (mode=1)
  4: 0x001C [0x6F] WAIT_FRAME_DELAY: Yield until WaitTime reaches zero
  5: 0x001D [0x00] END_REQSTACK()
```

### Event 65535.2

#### Metadata

| Field        | Value    |
|--------------|----------|
| Entrypoint   | 0x001E   |
| Data Size    | 26 bytes |
| Instructions | 8        |

```
      00 01 02 03 04 05 06 07  08 09 0A 0B 0C 0D 0E 0F
      -- -- -- -- -- -- -- --  -- -- -- -- -- -- -- --
0010:                                            32 08                2.
0020: 80 1F 00 09 80 0A 80 0B  80 1F 01 6F 1E 8E E1 07  ...........o....
0030: 01 6F 76 F8 FF FF 7F 00                           .ov.....        
```

#### Opcodes

```
  0: 0x001E [0x32] ExtData[1]->MainSpeed = 27* * 0.1
  1: 0x0021 [0x1F] MOVE_ENTITY: EventEntity moves to X=-264.727*, Z=22.992*, Y=-3.221*
  2: 0x0029 [0x1F] MOVE_ENTITY: Update entity position (mode=1)
  3: 0x002B [0x6F] WAIT_FRAME_DELAY: Yield until WaitTime reaches zero
  4: 0x002C [0x1E] EventEntity looks at Dietmund (ID: 17293710/0x0107E18E) and starts talking
  5: 0x0031 [0x6F] WAIT_FRAME_DELAY: Yield until WaitTime reaches zero
  6: 0x0032 [0x76] CHECK_ENTITY_RENDER_FLAGS: Wait until EventEntity Render.Flags0 and Render.Flags3 conditions are met
  7: 0x0037 [0x00] END_REQSTACK()
```

### Event 65535.3

#### Metadata

| Field        | Value     |
|--------------|-----------|
| Entrypoint   | 0x0038    |
| Data Size    | 150 bytes |
| Instructions | 20        |

```
      00 01 02 03 04 05 06 07  08 09 0A 0B 0C 0D 0E 0F
      -- -- -- -- -- -- -- --  -- -- -- -- -- -- -- --
0030:                          32 08 80 1F 00 0C 80 0D          2.......
0040: 80 0E 80 1F 01 6F 1C 0F  80 5B 10 80 F8 FF FF 7F  .....o...[......
0050: F8 FF FF 7F 74 6F 6E 30  53 F8 FF FF 7F F8 FF FF  ....ton0S.......
0060: 7F 74 6F 6E 30 5B 10 80  F8 FF FF 7F F8 FF FF 7F  .ton0[..........
0070: 74 6F 6E 31 53 F8 FF FF  7F F8 FF FF 7F 74 6F 6E  ton1S........ton
0080: 31 1C 0F 80 1F 00 11 80  12 80 13 80 1F 01 6F 1C  1.............o.
0090: 0F 80 5B 10 80 F8 FF FF  7F F8 FF FF 7F 74 6F 6E  ..[..........ton
00A0: 30 53 F8 FF FF 7F F8 FF  FF 7F 74 6F 6E 30 5B 10  0S........ton0[.
00B0: 80 F8 FF FF 7F F8 FF FF  7F 74 6F 6E 31 53 F8 FF  .........ton1S..
00C0: FF 7F F8 FF FF 7F 74 6F  6E 31 1C 0F 80 00        ......ton1....  
```

#### Opcodes

```
  0: 0x0038 [0x32] ExtData[1]->MainSpeed = 27* * 0.1
  1: 0x003B [0x1F] MOVE_ENTITY: EventEntity moves to X=-263.077*, Z=24.957*, Y=-3.560*
  2: 0x0043 [0x1F] MOVE_ENTITY: Update entity position (mode=1)
  3: 0x0045 [0x6F] WAIT_FRAME_DELAY: Yield until WaitTime reaches zero
  4: 0x0046 [0x1C] WAIT(60* ticks)
  5: 0x0049 [0x5B] LOAD_EXT_SCHEDULER: Load scheduler "ton0" with entities [EventEntity, EventEntity], work=220*
  6: 0x0058 [0x53] WAIT_SCHEDULER_TASK: Wait for scheduler "ton0" with entities [EventEntity, EventEntity]
  7: 0x0065 [0x5B] LOAD_EXT_SCHEDULER: Load scheduler "ton1" with entities [EventEntity, EventEntity], work=220*
  8: 0x0074 [0x53] WAIT_SCHEDULER_TASK: Wait for scheduler "ton1" with entities [EventEntity, EventEntity]
  9: 0x0081 [0x1C] WAIT(60* ticks)
 10: 0x0084 [0x1F] MOVE_ENTITY: EventEntity moves to X=-265.604*, Z=28.075*, Y=-3.666*
 11: 0x008C [0x1F] MOVE_ENTITY: Update entity position (mode=1)
 12: 0x008E [0x6F] WAIT_FRAME_DELAY: Yield until WaitTime reaches zero
 13: 0x008F [0x1C] WAIT(60* ticks)
 14: 0x0092 [0x5B] LOAD_EXT_SCHEDULER: Load scheduler "ton0" with entities [EventEntity, EventEntity], work=220*
 15: 0x00A1 [0x53] WAIT_SCHEDULER_TASK: Wait for scheduler "ton0" with entities [EventEntity, EventEntity]
 16: 0x00AE [0x5B] LOAD_EXT_SCHEDULER: Load scheduler "ton1" with entities [EventEntity, EventEntity], work=220*
 17: 0x00BD [0x53] WAIT_SCHEDULER_TASK: Wait for scheduler "ton1" with entities [EventEntity, EventEntity]
 18: 0x00CA [0x1C] WAIT(60* ticks)
 19: 0x00CD [0x00] END_REQSTACK()
```

### Event 65535.4

#### Metadata

| Field        | Value    |
|--------------|----------|
| Entrypoint   | 0x00CE   |
| Data Size    | 42 bytes |
| Instructions | 10       |

```
      00 01 02 03 04 05 06 07  08 09 0A 0B 0C 0D 0E 0F
      -- -- -- -- -- -- -- --  -- -- -- -- -- -- -- --
00C0:                                            1F 00                ..
00D0: 14 80 15 80 16 80 1F 01  1F 00 0C 80 0D 80 0E 80  ................
00E0: 1F 01 1F 00 17 80 18 80  19 80 1F 01 1F 00 1A 80  ................
00F0: 1B 80 1C 80 1F 01 6F 00                           ......o.        
```

#### Opcodes

```
  0: 0x00CE [0x1F] MOVE_ENTITY: EventEntity moves to X=-264.542*, Z=26.972*, Y=-3.733*
  1: 0x00D6 [0x1F] MOVE_ENTITY: Update entity position (mode=1)
  2: 0x00D8 [0x1F] MOVE_ENTITY: EventEntity moves to X=-263.077*, Z=24.957*, Y=-3.560*
  3: 0x00E0 [0x1F] MOVE_ENTITY: Update entity position (mode=1)
  4: 0x00E2 [0x1F] MOVE_ENTITY: EventEntity moves to X=-262.410*, Z=26.221*, Y=-3.959*
  5: 0x00EA [0x1F] MOVE_ENTITY: Update entity position (mode=1)
  6: 0x00EC [0x1F] MOVE_ENTITY: EventEntity moves to X=-262.663*, Z=26.998*, Y=-3.891*
  7: 0x00F4 [0x1F] MOVE_ENTITY: Update entity position (mode=1)
  8: 0x00F6 [0x6F] WAIT_FRAME_DELAY: Yield until WaitTime reaches zero
  9: 0x00F7 [0x00] END_REQSTACK()
```

### Event 65535.5

#### Metadata

| Field        | Value    |
|--------------|----------|
| Entrypoint   | 0x00F8   |
| Data Size    | 29 bytes |
| Instructions | 3        |

```
      00 01 02 03 04 05 06 07  08 09 0A 0B 0C 0D 0E 0F
      -- -- -- -- -- -- -- --  -- -- -- -- -- -- -- --
00F0:                          5B 10 80 F8 FF FF 7F F8          [.......
0100: FF FF 7F 74 6F 6E 30 53  F8 FF FF 7F F8 FF FF 7F  ...ton0S........
0110: 74 6F 6E 30 00                                    ton0.           
```

#### Opcodes

```
  0: 0x00F8 [0x5B] LOAD_EXT_SCHEDULER: Load scheduler "ton0" with entities [EventEntity, EventEntity], work=220*
  1: 0x0107 [0x53] WAIT_SCHEDULER_TASK: Wait for scheduler "ton0" with entities [EventEntity, EventEntity]
  2: 0x0114 [0x00] END_REQSTACK()
```

### Event 65535.6

#### Metadata

| Field        | Value    |
|--------------|----------|
| Entrypoint   | 0x0115   |
| Data Size    | 40 bytes |
| Instructions | 5        |

```
      00 01 02 03 04 05 06 07  08 09 0A 0B 0C 0D 0E 0F
      -- -- -- -- -- -- -- --  -- -- -- -- -- -- -- --
0110:                02 20 10  1D 80 00 3C 01 5B 10 80       . ....<.[..
0120: F8 FF FF 7F F8 FF FF 7F  74 6F 6E 30 53 F8 FF FF  ........ton0S...
0130: 7F F8 FF FF 7F 74 6F 6E  30 01 15 01 00           .....ton0....   
```

#### Opcodes

```
  0: 0x0115 [0x02] IF !(Work_Zone[32] == 0*) GOTO 0x013C
  1: 0x011D [0x5B] LOAD_EXT_SCHEDULER: Load scheduler "ton0" with entities [EventEntity, EventEntity], work=220*
  2: 0x012C [0x53] WAIT_SCHEDULER_TASK: Wait for scheduler "ton0" with entities [EventEntity, EventEntity]
  3: 0x0139 [0x01] GOTO 0x0115
  4: 0x013C [0x00] END_REQSTACK()
```

### Event 65535.7

#### Metadata

| Field        | Value    |
|--------------|----------|
| Entrypoint   | 0x013D   |
| Data Size    | 29 bytes |
| Instructions | 3        |

```
      00 01 02 03 04 05 06 07  08 09 0A 0B 0C 0D 0E 0F
      -- -- -- -- -- -- -- --  -- -- -- -- -- -- -- --
0130:                                         5B 10 80               [..
0140: F8 FF FF 7F F8 FF FF 7F  74 6F 6E 31 53 F8 FF FF  ........ton1S...
0150: 7F F8 FF FF 7F 74 6F 6E  31 00                    .....ton1.      
```

#### Opcodes

```
  0: 0x013D [0x5B] LOAD_EXT_SCHEDULER: Load scheduler "ton1" with entities [EventEntity, EventEntity], work=220*
  1: 0x014C [0x53] WAIT_SCHEDULER_TASK: Wait for scheduler "ton1" with entities [EventEntity, EventEntity]
  2: 0x0159 [0x00] END_REQSTACK()
```

### Event 65535.8

#### Metadata

| Field        | Value    |
|--------------|----------|
| Entrypoint   | 0x015A   |
| Data Size    | 29 bytes |
| Instructions | 3        |

```
      00 01 02 03 04 05 06 07  08 09 0A 0B 0C 0D 0E 0F
      -- -- -- -- -- -- -- --  -- -- -- -- -- -- -- --
0150:                                5B 10 80 F8 FF FF            [.....
0160: 7F F8 FF FF 7F 79 6F 72  30 53 F8 FF FF 7F F8 FF  .....yor0S......
0170: FF 7F 79 6F 72 30 00                              ..yor0.         
```

#### Opcodes

```
  0: 0x015A [0x5B] LOAD_EXT_SCHEDULER: Load scheduler "yor0" with entities [EventEntity, EventEntity], work=220*
  1: 0x0169 [0x53] WAIT_SCHEDULER_TASK: Wait for scheduler "yor0" with entities [EventEntity, EventEntity]
  2: 0x0176 [0x00] END_REQSTACK()
```

### Event 65535.9

#### Metadata

| Field        | Value   |
|--------------|---------|
| Entrypoint   | 0x0177  |
| Data Size    | 1 bytes |
| Instructions | 1       |

```
      00 01 02 03 04 05 06 07  08 09 0A 0B 0C 0D 0E 0F
      -- -- -- -- -- -- -- --  -- -- -- -- -- -- -- --
0170:                      00                                  .        
```

#### Opcodes

```
  0: 0x0177 [0x00] END_REQSTACK()
```
