# 17293709 - Dietmund

## Common Data

| Field            | Value                  |
|------------------|------------------------|
| Zone             | Qufim Island (ID: 126) |
| Block Size       | 480 bytes              |
| Total Events     | 12                     |
| References Count | 28                     |

## List of Events

| Event ID                   | Entrypoint   |   Size |   Instructions |
|----------------------------|--------------|--------|----------------|
| [65535](#event-65535)      | 0x0000       |      3 |              2 |
| [0](#event-0)              | 0x0003       |     12 |              3 |
| [65535.1](#event-655351)   | 0x000F       |     80 |             14 |
| [65535.2](#event-655352)   | 0x005F       |     24 |              6 |
| [65535.3](#event-655353)   | 0x0077       |     29 |              3 |
| [65535.4](#event-655354)   | 0x0094       |     29 |              3 |
| [65535.5](#event-655355)   | 0x00B1       |     19 |              3 |
| [65535.6](#event-655356)   | 0x00C4       |     29 |              3 |
| [65535.7](#event-655357)   | 0x00E1       |     30 |              5 |
| [65535.8](#event-655358)   | 0x00FF       |     35 |              4 |
| [65535.9](#event-655359)   | 0x0122       |     11 |              3 |
| [65535.10](#event-6553510) | 0x012D       |      1 |              1 |

## DAT References (imed_data)

|   Index | Hex Value   |   Dec Value |
|---------|-------------|-------------|
|       0 | 0xFFFB9BA5  |  4294679461 |
|       1 | 0x3B45      |       15173 |
|       2 | 0xFFFFE73A  |  4294960954 |
|       3 | 0x00EB      |         235 |
|       4 | 0x0028      |          40 |
|       5 | 0xFFFBB4B9  |  4294685881 |
|       6 | 0x3691      |       13969 |
|       7 | 0xFFFFEEC7  |  4294962887 |
|       8 | 0xFFFBDA3F  |  4294695487 |
|       9 | 0x3CF3      |       15603 |
|      10 | 0xFFFFF557  |  4294964567 |
|      11 | 0xFFFBF47E  |  4294702206 |
|      12 | 0x537C      |       21372 |
|      13 | 0xFFFFF421  |  4294964257 |
|      14 | 0xFFFBF619  |  4294702617 |
|      15 | 0x5F50      |       24400 |
|      16 | 0xFFFFF343  |  4294964035 |
|      17 | 0x000D      |          13 |
|      18 | 0xFFFBF71F  |  4294702879 |
|      19 | 0x6C66      |       27750 |
|      20 | 0xFFFFF163  |  4294963555 |
|      21 | 0x0003      |           3 |
|      22 | 0x0004      |           4 |
|      23 | 0x001E      |          30 |
|      24 | 0x0000      |           0 |
|      25 | 0xFFFBF855  |  4294703189 |
|      26 | 0x6CB8      |       27832 |
|      27 | 0xFFFFF150  |  4294963536 |

## Events

### Event 65535

#### Metadata

| Field        | Value   |
|--------------|---------|
| Entrypoint   | 0x0000  |
| Data Size    | 3 bytes |
| Instructions | 2       |

```
      00 01 02 03 04 05 06 07  08 09 0A 0B 0C 0D 0E 0F
      -- -- -- -- -- -- -- --  -- -- -- -- -- -- -- --
0000: 22 01 00                                          "..             
```

#### Opcodes

```
  0: 0x0000 [0x22] ENTITY_HIDE_FLAG(enabled=0x01)
  1: 0x0002 [0x00] END_REQSTACK()
```

### Event 0

#### Metadata

| Field        | Value    |
|--------------|----------|
| Entrypoint   | 0x0003   |
| Data Size    | 12 bytes |
| Instructions | 3        |

```
      00 01 02 03 04 05 06 07  08 09 0A 0B 0C 0D 0E 0F
      -- -- -- -- -- -- -- --  -- -- -- -- -- -- -- --
0000:          37 00 80 01 80  02 80 03 80 22 00 00        7........".. 
```

#### Opcodes

```
  0: 0x0003 [0x37] UPDATE_EVENT_POSITION_AND_DIR: x=-287.835*, z=15.173*, y=-6.342*, direction=20.7°*
  1: 0x000C [0x22] ENTITY_HIDE_FLAG(enabled=0x00)
  2: 0x000E [0x00] END_REQSTACK()
```

### Event 65535.1

#### Metadata

| Field        | Value    |
|--------------|----------|
| Entrypoint   | 0x000F   |
| Data Size    | 80 bytes |
| Instructions | 14       |

```
      00 01 02 03 04 05 06 07  08 09 0A 0B 0C 0D 0E 0F
      -- -- -- -- -- -- -- --  -- -- -- -- -- -- -- --
0000:                                               32                 2
0010: 04 80 1F 00 05 80 06 80  07 80 1F 01 4A F0 FF FF  ............J...
0020: 7F 8D E1 07 01 1F 00 08  80 09 80 0A 80 1F 01 4A  ...............J
0030: F0 FF FF 7F 8D E1 07 01  1F 00 0B 80 0C 80 0D 80  ................
0040: 1F 01 4A F0 FF FF 7F 8D  E1 07 01 1F 00 0E 80 0F  ..J.............
0050: 80 10 80 1F 01 4A F0 FF  FF 7F 8D E1 07 01 00     .....J......... 
```

#### Opcodes

```
  0: 0x000F [0x32] ExtData[1]->MainSpeed = 40* * 0.1
  1: 0x0012 [0x1F] MOVE_ENTITY: EventEntity moves to X=-281.415*, Z=13.969*, Y=-4.409*
  2: 0x001A [0x1F] MOVE_ENTITY: Update entity position (mode=1)
  3: 0x001C [0x4A] LocalPlayer looks at Dietmund (ID: 17293709/0x0107E18D)
  4: 0x0025 [0x1F] MOVE_ENTITY: EventEntity moves to X=-271.809*, Z=15.603*, Y=-2.729*
  5: 0x002D [0x1F] MOVE_ENTITY: Update entity position (mode=1)
  6: 0x002F [0x4A] LocalPlayer looks at Dietmund (ID: 17293709/0x0107E18D)
  7: 0x0038 [0x1F] MOVE_ENTITY: EventEntity moves to X=-265.090*, Z=21.372*, Y=-3.039*
  8: 0x0040 [0x1F] MOVE_ENTITY: Update entity position (mode=1)
  9: 0x0042 [0x4A] LocalPlayer looks at Dietmund (ID: 17293709/0x0107E18D)
 10: 0x004B [0x1F] MOVE_ENTITY: EventEntity moves to X=-264.679*, Z=24.400*, Y=-3.261*
 11: 0x0053 [0x1F] MOVE_ENTITY: Update entity position (mode=1)
 12: 0x0055 [0x4A] LocalPlayer looks at Dietmund (ID: 17293709/0x0107E18D)
 13: 0x005E [0x00] END_REQSTACK()
```

### Event 65535.2

#### Metadata

| Field        | Value    |
|--------------|----------|
| Entrypoint   | 0x005F   |
| Data Size    | 24 bytes |
| Instructions | 6        |

```
      00 01 02 03 04 05 06 07  08 09 0A 0B 0C 0D 0E 0F
      -- -- -- -- -- -- -- --  -- -- -- -- -- -- -- --
0050:                                               32                 2
0060: 11 80 1F 00 12 80 13 80  14 80 1F 01 6F 4A F0 FF  ............oJ..
0070: FF 7F 8D E1 07 01 00                              .......         
```

#### Opcodes

```
  0: 0x005F [0x32] ExtData[1]->MainSpeed = 13* * 0.1
  1: 0x0062 [0x1F] MOVE_ENTITY: EventEntity moves to X=-264.417*, Z=27.750*, Y=-3.741*
  2: 0x006A [0x1F] MOVE_ENTITY: Update entity position (mode=1)
  3: 0x006C [0x6F] WAIT_FRAME_DELAY: Yield until WaitTime reaches zero
  4: 0x006D [0x4A] LocalPlayer looks at Dietmund (ID: 17293709/0x0107E18D)
  5: 0x0076 [0x00] END_REQSTACK()
```

### Event 65535.3

#### Metadata

| Field        | Value    |
|--------------|----------|
| Entrypoint   | 0x0077   |
| Data Size    | 29 bytes |
| Instructions | 3        |

```
      00 01 02 03 04 05 06 07  08 09 0A 0B 0C 0D 0E 0F
      -- -- -- -- -- -- -- --  -- -- -- -- -- -- -- --
0070:                      66  15 80 F8 FF FF 7F F8 FF         f........
0080: FF 7F 73 67 6D 30 53 F8  FF FF 7F F8 FF FF 7F 73  ..sgm0S........s
0090: 67 6D 30 00                                       gm0.            
```

#### Opcodes

```
  0: 0x0077 [0x66] LOAD_EXT_SCHEDULER_MAIN: Load scheduler "sgm0" with entities [EventEntity, EventEntity], work=3*
  1: 0x0086 [0x53] WAIT_SCHEDULER_TASK: Wait for scheduler "sgm0" with entities [EventEntity, EventEntity]
  2: 0x0093 [0x00] END_REQSTACK()
```

### Event 65535.4

#### Metadata

| Field        | Value    |
|--------------|----------|
| Entrypoint   | 0x0094   |
| Data Size    | 29 bytes |
| Instructions | 3        |

```
      00 01 02 03 04 05 06 07  08 09 0A 0B 0C 0D 0E 0F
      -- -- -- -- -- -- -- --  -- -- -- -- -- -- -- --
0090:             66 15 80 F8  FF FF 7F F8 FF FF 7F 74      f..........t
00A0: 61 74 30 53 F8 FF FF 7F  F8 FF FF 7F 74 61 74 30  at0S........tat0
00B0: 00                                                .               
```

#### Opcodes

```
  0: 0x0094 [0x66] LOAD_EXT_SCHEDULER_MAIN: Load scheduler "tat0" with entities [EventEntity, EventEntity], work=3*
  1: 0x00A3 [0x53] WAIT_SCHEDULER_TASK: Wait for scheduler "tat0" with entities [EventEntity, EventEntity]
  2: 0x00B0 [0x00] END_REQSTACK()
```

### Event 65535.5

#### Metadata

| Field        | Value    |
|--------------|----------|
| Entrypoint   | 0x00B1   |
| Data Size    | 19 bytes |
| Instructions | 3        |

```
      00 01 02 03 04 05 06 07  08 09 0A 0B 0C 0D 0E 0F
      -- -- -- -- -- -- -- --  -- -- -- -- -- -- -- --
00B0:    66 16 80 F8 FF FF 7F  F8 FF FF 7F 6E 64 65 30   f..........nde0
00C0: 1C 17 80 00                                       ....            
```

#### Opcodes

```
  0: 0x00B1 [0x66] LOAD_EXT_SCHEDULER_MAIN: Load scheduler "nde0" with entities [EventEntity, EventEntity], work=4*
  1: 0x00C0 [0x1C] WAIT(30* ticks)
  2: 0x00C3 [0x00] END_REQSTACK()
```

### Event 65535.6

#### Metadata

| Field        | Value    |
|--------------|----------|
| Entrypoint   | 0x00C4   |
| Data Size    | 29 bytes |
| Instructions | 3        |

```
      00 01 02 03 04 05 06 07  08 09 0A 0B 0C 0D 0E 0F
      -- -- -- -- -- -- -- --  -- -- -- -- -- -- -- --
00C0:             66 16 80 F8  FF FF 7F F8 FF FF 7F 6E      f..........n
00D0: 64 65 31 53 F8 FF FF 7F  F8 FF FF 7F 6E 64 65 31  de1S........nde1
00E0: 00                                                .               
```

#### Opcodes

```
  0: 0x00C4 [0x66] LOAD_EXT_SCHEDULER_MAIN: Load scheduler "nde1" with entities [EventEntity, EventEntity], work=4*
  1: 0x00D3 [0x53] WAIT_SCHEDULER_TASK: Wait for scheduler "nde1" with entities [EventEntity, EventEntity]
  2: 0x00E0 [0x00] END_REQSTACK()
```

### Event 65535.7

#### Metadata

| Field        | Value    |
|--------------|----------|
| Entrypoint   | 0x00E1   |
| Data Size    | 30 bytes |
| Instructions | 5        |

```
      00 01 02 03 04 05 06 07  08 09 0A 0B 0C 0D 0E 0F
      -- -- -- -- -- -- -- --  -- -- -- -- -- -- -- --
00E0:    7B F8 FF FF 7F 81 00  F8 FF FF 7F 66 18 80 F8   {..........f...
00F0: FF FF 7F F8 FF FF 7F 74  68 6B 31 1C 17 80 00     .......thk1.... 
```

#### Opcodes

```
  0: 0x00E1 [0x7B] EventEntity stops talking
  1: 0x00E6 [0x81] SET_ENTITY_BLINKING(blink_flag=0x00, entity=EventEntity)
  2: 0x00EC [0x66] LOAD_EXT_SCHEDULER_MAIN: Load scheduler "thk1" with entities [EventEntity, EventEntity], work=0*
  3: 0x00FB [0x1C] WAIT(30* ticks)
  4: 0x00FE [0x00] END_REQSTACK()
```

### Event 65535.8

#### Metadata

| Field        | Value    |
|--------------|----------|
| Entrypoint   | 0x00FF   |
| Data Size    | 35 bytes |
| Instructions | 4        |

```
      00 01 02 03 04 05 06 07  08 09 0A 0B 0C 0D 0E 0F
      -- -- -- -- -- -- -- --  -- -- -- -- -- -- -- --
00F0:                                               81                 .
0100: 01 F8 FF FF 7F 66 18 80  F8 FF FF 7F F8 FF FF 7F  .....f..........
0110: 74 68 6B 32 53 F8 FF FF  7F F8 FF FF 7F 74 68 6B  thk2S........thk
0120: 32 00                                             2.              
```

#### Opcodes

```
  0: 0x00FF [0x81] SET_ENTITY_BLINKING(blink_flag=0x01, entity=EventEntity)
  1: 0x0105 [0x66] LOAD_EXT_SCHEDULER_MAIN: Load scheduler "thk2" with entities [EventEntity, EventEntity], work=0*
  2: 0x0114 [0x53] WAIT_SCHEDULER_TASK: Wait for scheduler "thk2" with entities [EventEntity, EventEntity]
  3: 0x0121 [0x00] END_REQSTACK()
```

### Event 65535.9

#### Metadata

| Field        | Value    |
|--------------|----------|
| Entrypoint   | 0x0122   |
| Data Size    | 11 bytes |
| Instructions | 3        |

```
      00 01 02 03 04 05 06 07  08 09 0A 0B 0C 0D 0E 0F
      -- -- -- -- -- -- -- --  -- -- -- -- -- -- -- --
0120:       1F 00 19 80 1A 80  1B 80 1F 01 00             ...........   
```

#### Opcodes

```
  0: 0x0122 [0x1F] MOVE_ENTITY: EventEntity moves to X=-264.107*, Z=27.832*, Y=-3.760*
  1: 0x012A [0x1F] MOVE_ENTITY: Update entity position (mode=1)
  2: 0x012C [0x00] END_REQSTACK()
```

### Event 65535.10

#### Metadata

| Field        | Value   |
|--------------|---------|
| Entrypoint   | 0x012D  |
| Data Size    | 1 bytes |
| Instructions | 1       |

```
      00 01 02 03 04 05 06 07  08 09 0A 0B 0C 0D 0E 0F
      -- -- -- -- -- -- -- --  -- -- -- -- -- -- -- --
0120:                                         00                     .  
```

#### Opcodes

```
  0: 0x012D [0x00] END_REQSTACK()
```
