# 17293761

## Common Data

| Field            | Value                  |
|------------------|------------------------|
| Zone             | Qufim Island (ID: 126) |
| Block Size       | 100 bytes              |
| Total Events     | 4                      |
| References Count | 6                      |

## List of Events

| Event ID                 | Entrypoint   |   Size |   Instructions |
|--------------------------|--------------|--------|----------------|
| [65535](#event-65535)    | 0x0000       |      1 |              1 |
| [10000](#event-10000)    | 0x0001       |      1 |              1 |
| [65535.1](#event-655351) | 0x0002       |     21 |              5 |
| [65535.2](#event-655352) | 0x0017       |     20 |              4 |

## DAT References (imed_data)

|   Index | Hex Value   |   Dec Value |
|---------|-------------|-------------|
|       0 | 0x2B507     |      177415 |
|       1 | 0xFFFCE223  |  4294763043 |
|       2 | 0x51A2      |       20898 |
|       3 | 0xFFFF5715  |  4294924053 |
|       4 | 0xFFFFF3B6  |  4294964150 |
|       5 | 0xFFFFFE0D  |  4294966797 |

## Events

### Event 65535

#### Metadata

| Field        | Value   |
|--------------|---------|
| Entrypoint   | 0x0000  |
| Data Size    | 1 bytes |
| Instructions | 1       |

```
      00 01 02 03 04 05 06 07  08 09 0A 0B 0C 0D 0E 0F
      -- -- -- -- -- -- -- --  -- -- -- -- -- -- -- --
0000: 00                                                .               
```

#### Opcodes

```
  0: 0x0000 [0x00] END_REQSTACK()
```

### Event 10000

#### Metadata

| Field        | Value   |
|--------------|---------|
| Entrypoint   | 0x0001  |
| Data Size    | 1 bytes |
| Instructions | 1       |

```
      00 01 02 03 04 05 06 07  08 09 0A 0B 0C 0D 0E 0F
      -- -- -- -- -- -- -- --  -- -- -- -- -- -- -- --
0000:    00                                              .              
```

#### Opcodes

```
  0: 0x0001 [0x00] END_REQSTACK()
```

### Event 65535.1

#### Metadata

| Field        | Value    |
|--------------|----------|
| Entrypoint   | 0x0002   |
| Data Size    | 21 bytes |
| Instructions | 5        |

```
      00 01 02 03 04 05 06 07  08 09 0A 0B 0C 0D 0E 0F
      -- -- -- -- -- -- -- --  -- -- -- -- -- -- -- --
0000:       2F 00 F8 FF FF 7F  36 00 80 01 80 02 80 22    /.....6......"
0010: 00 80 F8 FF FF 7F 00                              .......         
```

#### Opcodes

```
  0: 0x0002 [0x2F] EventEntity->Render.Flags0 &= ~0x80000 // Bit 19
  1: 0x0008 [0x36] SET_ENTITY_EVENT_POSITION(pos_x=177.415*, pos_z=-204.253*, pos_y=20.898*)
  2: 0x000F [0x22] ENTITY_HIDE_FLAG(enabled=0x00)
  3: 0x0011 [0x80] LOAD_WAIT(entity=EventEntity)
  4: 0x0016 [0x00] END_REQSTACK()
```

### Event 65535.2

#### Metadata

| Field        | Value    |
|--------------|----------|
| Entrypoint   | 0x0017   |
| Data Size    | 20 bytes |
| Instructions | 4        |

```
      00 01 02 03 04 05 06 07  08 09 0A 0B 0C 0D 0E 0F
      -- -- -- -- -- -- -- --  -- -- -- -- -- -- -- --
0010:                      2F  00 C1 E1 07 01 36 03 80         /.....6..
0020: 04 80 05 80 4E 00 C1 E1  07 01 00                 ....N......     
```

#### Opcodes

```
  0: 0x0017 [0x2F] Unnamed NPC (ID: 17293761/0x0107E1C1)->Render.Flags0 &= ~0x80000 // Bit 19
  1: 0x001D [0x36] SET_ENTITY_EVENT_POSITION(pos_x=-43.243*, pos_z=-3.146*, pos_y=-0.499*)
  2: 0x0024 [0x4E] SET_ENTITY_HIDE_FLAG: Show Unnamed NPC (ID: 17293761/0x0107E1C1)
  3: 0x002A [0x00] END_REQSTACK()
```
