# 17293778 - Aldo

## Common Data

| Field            | Value                  |
|------------------|------------------------|
| Zone             | Qufim Island (ID: 126) |
| Block Size       | 288 bytes              |
| Total Events     | 13                     |
| References Count | 16                     |

## List of Events

| Event ID                 | Entrypoint   |   Size |   Instructions |
|--------------------------|--------------|--------|----------------|
| [65535](#event-65535)    | 0x0000       |      1 |              1 |
| [32](#event-32)          | 0x0001       |      4 |              2 |
| [34](#event-34)          | 0x0005       |      4 |              2 |
| [65535.1](#event-655351) | 0x0009       |     20 |              5 |
| [65535.2](#event-655352) | 0x001D       |     16 |              2 |
| [65535.3](#event-655353) | 0x002D       |     16 |              2 |
| [65535.4](#event-655354) | 0x003D       |     16 |              2 |
| [65535.5](#event-655355) | 0x004D       |     16 |              2 |
| [65535.6](#event-655356) | 0x005D       |     20 |              5 |
| [65535.7](#event-655357) | 0x0071       |     20 |              5 |
| [65535.8](#event-655358) | 0x0085       |     20 |              5 |
| [44](#event-44)          | 0x0099       |      1 |              1 |
| [45](#event-45)          | 0x009A       |      1 |              1 |

## DAT References (imed_data)

|   Index | Hex Value   |   Dec Value |
|---------|-------------|-------------|
|       0 | 0x0001      |           1 |
|       1 | 0x000D      |          13 |
|       2 | 0xFFFE0BCF  |  4294839247 |
|       3 | 0x47DCA     |      294346 |
|       4 | 0xFFFFB493  |  4294947987 |
|       5 | 0x00B9      |         185 |
|       6 | 0x0028      |          40 |
|       7 | 0xFFFE0EE1  |  4294840033 |
|       8 | 0x477F1     |      292849 |
|       9 | 0xFFFFB43D  |  4294947901 |
|      10 | 0xFFFE0F3F  |  4294840127 |
|      11 | 0x474EC     |      292076 |
|      12 | 0xFFFFB42A  |  4294947882 |
|      13 | 0xFFFE3DDC  |  4294852060 |
|      14 | 0x46736     |      288566 |
|      15 | 0xFFFFB2C3  |  4294947523 |

## Events

### Event 65535

#### Metadata

| Field        | Value   |
|--------------|---------|
| Entrypoint   | 0x0000  |
| Data Size    | 1 bytes |
| Instructions | 1       |

```
      00 01 02 03 04 05 06 07  08 09 0A 0B 0C 0D 0E 0F
      -- -- -- -- -- -- -- --  -- -- -- -- -- -- -- --
0000: 00                                                .               
```

#### Opcodes

```
  0: 0x0000 [0x00] END_REQSTACK()
```

### Event 32

#### Metadata

| Field        | Value   |
|--------------|---------|
| Entrypoint   | 0x0001  |
| Data Size    | 4 bytes |
| Instructions | 2       |

```
      00 01 02 03 04 05 06 07  08 09 0A 0B 0C 0D 0E 0F
      -- -- -- -- -- -- -- --  -- -- -- -- -- -- -- --
0000:    C0 00 80 00                                     ....           
```

#### Opcodes

```
  0: 0x0001 [0xC0] EventEntity->Render.Flags3 |= 0x1000 // Set bit 12 (from 1*)
  1: 0x0004 [0x00] END_REQSTACK()
```

### Event 34

#### Metadata

| Field        | Value   |
|--------------|---------|
| Entrypoint   | 0x0005  |
| Data Size    | 4 bytes |
| Instructions | 2       |

```
      00 01 02 03 04 05 06 07  08 09 0A 0B 0C 0D 0E 0F
      -- -- -- -- -- -- -- --  -- -- -- -- -- -- -- --
0000:                C0 00 80  00                            ....       
```

#### Opcodes

```
  0: 0x0005 [0xC0] EventEntity->Render.Flags3 |= 0x1000 // Set bit 12 (from 1*)
  1: 0x0008 [0x00] END_REQSTACK()
```

### Event 65535.1

#### Metadata

| Field        | Value    |
|--------------|----------|
| Entrypoint   | 0x0009   |
| Data Size    | 20 bytes |
| Instructions | 5        |

```
      00 01 02 03 04 05 06 07  08 09 0A 0B 0C 0D 0E 0F
      -- -- -- -- -- -- -- --  -- -- -- -- -- -- -- --
0000:                             59 04 D2 E1 07 01 01           Y......
0010: 80 1F 00 02 80 03 80 04  80 1F 01 6F 00           ...........o.   
```

#### Opcodes

```
  0: 0x0009 [0x59] UPDATE_ENTITY_DATA: Set Aldo (ID: 17293778/0x0107E1D2) main speed = 13* * 0.1
  1: 0x0011 [0x1F] MOVE_ENTITY: EventEntity moves to X=-128.049*, Z=294.346*, Y=-19.309*
  2: 0x0019 [0x1F] MOVE_ENTITY: Update entity position (mode=1)
  3: 0x001B [0x6F] WAIT_FRAME_DELAY: Yield until WaitTime reaches zero
  4: 0x001C [0x00] END_REQSTACK()
```

### Event 65535.2

#### Metadata

| Field        | Value    |
|--------------|----------|
| Entrypoint   | 0x001D   |
| Data Size    | 16 bytes |
| Instructions | 2        |

```
      00 01 02 03 04 05 06 07  08 09 0A 0B 0C 0D 0E 0F
      -- -- -- -- -- -- -- --  -- -- -- -- -- -- -- --
0010:                                         5B 05 80               [..
0020: D2 E1 07 01 D2 E1 07 01  6B 6F 73 30 00           ........kos0.   
```

#### Opcodes

```
  0: 0x001D [0x5B] LOAD_EXT_SCHEDULER: Load scheduler "kos0" with entities [Aldo (ID: 17293778/0x0107E1D2), Aldo (ID: 17293778/0x0107E1D2)], work=185*
  1: 0x002C [0x00] END_REQSTACK()
```

### Event 65535.3

#### Metadata

| Field        | Value    |
|--------------|----------|
| Entrypoint   | 0x002D   |
| Data Size    | 16 bytes |
| Instructions | 2        |

```
      00 01 02 03 04 05 06 07  08 09 0A 0B 0C 0D 0E 0F
      -- -- -- -- -- -- -- --  -- -- -- -- -- -- -- --
0020:                                         5B 05 80               [..
0030: D2 E1 07 01 D2 E1 07 01  6B 6F 73 31 00           ........kos1.   
```

#### Opcodes

```
  0: 0x002D [0x5B] LOAD_EXT_SCHEDULER: Load scheduler "kos1" with entities [Aldo (ID: 17293778/0x0107E1D2), Aldo (ID: 17293778/0x0107E1D2)], work=185*
  1: 0x003C [0x00] END_REQSTACK()
```

### Event 65535.4

#### Metadata

| Field        | Value    |
|--------------|----------|
| Entrypoint   | 0x003D   |
| Data Size    | 16 bytes |
| Instructions | 2        |

```
      00 01 02 03 04 05 06 07  08 09 0A 0B 0C 0D 0E 0F
      -- -- -- -- -- -- -- --  -- -- -- -- -- -- -- --
0030:                                         5B 05 80               [..
0040: D2 E1 07 01 D2 E1 07 01  74 6C 6B 30 00           ........tlk0.   
```

#### Opcodes

```
  0: 0x003D [0x5B] LOAD_EXT_SCHEDULER: Load scheduler "tlk0" with entities [Aldo (ID: 17293778/0x0107E1D2), Aldo (ID: 17293778/0x0107E1D2)], work=185*
  1: 0x004C [0x00] END_REQSTACK()
```

### Event 65535.5

#### Metadata

| Field        | Value    |
|--------------|----------|
| Entrypoint   | 0x004D   |
| Data Size    | 16 bytes |
| Instructions | 2        |

```
      00 01 02 03 04 05 06 07  08 09 0A 0B 0C 0D 0E 0F
      -- -- -- -- -- -- -- --  -- -- -- -- -- -- -- --
0040:                                         5B 05 80               [..
0050: D2 E1 07 01 D2 E1 07 01  74 6C 6B 31 00           ........tlk1.   
```

#### Opcodes

```
  0: 0x004D [0x5B] LOAD_EXT_SCHEDULER: Load scheduler "tlk1" with entities [Aldo (ID: 17293778/0x0107E1D2), Aldo (ID: 17293778/0x0107E1D2)], work=185*
  1: 0x005C [0x00] END_REQSTACK()
```

### Event 65535.6

#### Metadata

| Field        | Value    |
|--------------|----------|
| Entrypoint   | 0x005D   |
| Data Size    | 20 bytes |
| Instructions | 5        |

```
      00 01 02 03 04 05 06 07  08 09 0A 0B 0C 0D 0E 0F
      -- -- -- -- -- -- -- --  -- -- -- -- -- -- -- --
0050:                                         59 04 D2               Y..
0060: E1 07 01 06 80 1F 00 07  80 08 80 09 80 1F 01 6F  ...............o
0070: 00                                                .               
```

#### Opcodes

```
  0: 0x005D [0x59] UPDATE_ENTITY_DATA: Set Aldo (ID: 17293778/0x0107E1D2) main speed = 40* * 0.1
  1: 0x0065 [0x1F] MOVE_ENTITY: EventEntity moves to X=-127.263*, Z=292.849*, Y=-19.395*
  2: 0x006D [0x1F] MOVE_ENTITY: Update entity position (mode=1)
  3: 0x006F [0x6F] WAIT_FRAME_DELAY: Yield until WaitTime reaches zero
  4: 0x0070 [0x00] END_REQSTACK()
```

### Event 65535.7

#### Metadata

| Field        | Value    |
|--------------|----------|
| Entrypoint   | 0x0071   |
| Data Size    | 20 bytes |
| Instructions | 5        |

```
      00 01 02 03 04 05 06 07  08 09 0A 0B 0C 0D 0E 0F
      -- -- -- -- -- -- -- --  -- -- -- -- -- -- -- --
0070:    59 04 D2 E1 07 01 06  80 1F 00 0A 80 0B 80 0C   Y..............
0080: 80 1F 01 6F 00                                    ...o.           
```

#### Opcodes

```
  0: 0x0071 [0x59] UPDATE_ENTITY_DATA: Set Aldo (ID: 17293778/0x0107E1D2) main speed = 40* * 0.1
  1: 0x0079 [0x1F] MOVE_ENTITY: EventEntity moves to X=-127.169*, Z=292.076*, Y=-19.414*
  2: 0x0081 [0x1F] MOVE_ENTITY: Update entity position (mode=1)
  3: 0x0083 [0x6F] WAIT_FRAME_DELAY: Yield until WaitTime reaches zero
  4: 0x0084 [0x00] END_REQSTACK()
```

### Event 65535.8

#### Metadata

| Field        | Value    |
|--------------|----------|
| Entrypoint   | 0x0085   |
| Data Size    | 20 bytes |
| Instructions | 5        |

```
      00 01 02 03 04 05 06 07  08 09 0A 0B 0C 0D 0E 0F
      -- -- -- -- -- -- -- --  -- -- -- -- -- -- -- --
0080:                59 04 D2  E1 07 01 01 80 1F 00 0D       Y..........
0090: 80 0E 80 0F 80 1F 01 6F  00                       .......o.       
```

#### Opcodes

```
  0: 0x0085 [0x59] UPDATE_ENTITY_DATA: Set Aldo (ID: 17293778/0x0107E1D2) main speed = 13* * 0.1
  1: 0x008D [0x1F] MOVE_ENTITY: EventEntity moves to X=-115.236*, Z=288.566*, Y=-19.773*
  2: 0x0095 [0x1F] MOVE_ENTITY: Update entity position (mode=1)
  3: 0x0097 [0x6F] WAIT_FRAME_DELAY: Yield until WaitTime reaches zero
  4: 0x0098 [0x00] END_REQSTACK()
```

### Event 44

#### Metadata

| Field        | Value   |
|--------------|---------|
| Entrypoint   | 0x0099  |
| Data Size    | 1 bytes |
| Instructions | 1       |

```
      00 01 02 03 04 05 06 07  08 09 0A 0B 0C 0D 0E 0F
      -- -- -- -- -- -- -- --  -- -- -- -- -- -- -- --
0090:                             00                             .      
```

#### Opcodes

```
  0: 0x0099 [0x00] END_REQSTACK()
```

### Event 45

#### Metadata

| Field        | Value   |
|--------------|---------|
| Entrypoint   | 0x009A  |
| Data Size    | 1 bytes |
| Instructions | 1       |

```
      00 01 02 03 04 05 06 07  08 09 0A 0B 0C 0D 0E 0F
      -- -- -- -- -- -- -- --  -- -- -- -- -- -- -- --
0090:                                00                           .     
```

#### Opcodes

```
  0: 0x009A [0x00] END_REQSTACK()
```
