# 17293844

## Common Data

| Field            | Value                  |
|------------------|------------------------|
| Zone             | Qufim Island (ID: 126) |
| Block Size       | 192 bytes              |
| Total Events     | 6                      |
| References Count | 12                     |

## List of Events

| Event ID                 | Entrypoint   |   Size |   Instructions |
|--------------------------|--------------|--------|----------------|
| [65535](#event-65535)    | 0x0000       |      1 |              1 |
| [66](#event-66)          | 0x0001       |      7 |              2 |
| [65535.1](#event-655351) | 0x0008       |     38 |              7 |
| [65535.2](#event-655352) | 0x002E       |     10 |              2 |
| [67](#event-67)          | 0x0038       |      7 |              2 |
| [65535.3](#event-655353) | 0x003F       |     38 |              7 |

## DAT References (imed_data)

|   Index | Hex Value   |   Dec Value |
|---------|-------------|-------------|
|       0 | 0xFFFC8DEA  |  4294741482 |
|       1 | 0x4B09C     |      307356 |
|       2 | 0xFFFFAEAD  |  4294946477 |
|       3 | 0x0476      |        1142 |
|       4 | 0x0400      |        1024 |
|       5 | 0x0001      |           1 |
|       6 | 0x0000      |           0 |
|       7 | 0x09A0      |        2464 |
|       8 | 0xFFFC73F3  |  4294734835 |
|       9 | 0x4E97B     |      321915 |
|      10 | 0xFFFFAEA8  |  4294946472 |
|      11 | 0x0832      |        2098 |

## Events

### Event 65535

#### Metadata

| Field        | Value   |
|--------------|---------|
| Entrypoint   | 0x0000  |
| Data Size    | 1 bytes |
| Instructions | 1       |

```
      00 01 02 03 04 05 06 07  08 09 0A 0B 0C 0D 0E 0F
      -- -- -- -- -- -- -- --  -- -- -- -- -- -- -- --
0000: 00                                                .               
```

#### Opcodes

```
  0: 0x0000 [0x00] END_REQSTACK()
```

### Event 66

#### Metadata

| Field        | Value   |
|--------------|---------|
| Entrypoint   | 0x0001  |
| Data Size    | 7 bytes |
| Instructions | 2       |

```
      00 01 02 03 04 05 06 07  08 09 0A 0B 0C 0D 0E 0F
      -- -- -- -- -- -- -- --  -- -- -- -- -- -- -- --
0000:    92 01 F8 FF FF 7F 00                            .......        
```

#### Opcodes

```
  0: 0x0001 [0x92] EventEntity->Render.Flags3 ^= 0x01
  1: 0x0007 [0x00] END_REQSTACK()
```

### Event 65535.1

#### Metadata

| Field        | Value    |
|--------------|----------|
| Entrypoint   | 0x0008   |
| Data Size    | 38 bytes |
| Instructions | 7        |

```
      00 01 02 03 04 05 06 07  08 09 0A 0B 0C 0D 0E 0F
      -- -- -- -- -- -- -- --  -- -- -- -- -- -- -- --
0000:                          33 01 37 00 80 01 80 02          3.7.....
0010: 80 03 80 D8 01 14 E2 07  01 04 80 D8 03 14 E2 07  ................
0020: 01 05 80 D8 02 14 E2 07  01 05 80 22 00 00        ..........."..  
```

#### Opcodes

```
  0: 0x0008 [0x33] EventEntity->Render.Flags0 |= 0x200000 // Bit 21 (flag=0x01)
  1: 0x000A [0x37] UPDATE_EVENT_POSITION_AND_DIR: x=-225.814*, z=307.356*, y=-20.819*, direction=100.4°*
  2: 0x0013 [0xD8] SET_ENTITY_EVENT_DIR: Set Unnamed NPC (ID: 17293844/0x0107E214) EventDir[0] = 1024*
  3: 0x001B [0xD8] SET_ENTITY_EVENT_DIR: Set Unnamed NPC (ID: 17293844/0x0107E214) EventDir[2] = 1*
  4: 0x0023 [0xD8] SET_ENTITY_EVENT_DIR: Set Unnamed NPC (ID: 17293844/0x0107E214) EventDir[1] = 1*
  5: 0x002B [0x22] ENTITY_HIDE_FLAG(enabled=0x00)
  6: 0x002D [0x00] END_REQSTACK()
```

### Event 65535.2

#### Metadata

| Field        | Value    |
|--------------|----------|
| Entrypoint   | 0x002E   |
| Data Size    | 10 bytes |
| Instructions | 2        |

```
      00 01 02 03 04 05 06 07  08 09 0A 0B 0C 0D 0E 0F
      -- -- -- -- -- -- -- --  -- -- -- -- -- -- -- --
0020:                                            37 06                7.
0030: 80 06 80 06 80 07 80 00                           ........        
```

#### Opcodes

```
  0: 0x002E [0x37] UPDATE_EVENT_POSITION_AND_DIR: x=0.000*, z=0.000*, y=0.000*, direction=216.6°*
  1: 0x0037 [0x00] END_REQSTACK()
```

### Event 67

#### Metadata

| Field        | Value   |
|--------------|---------|
| Entrypoint   | 0x0038  |
| Data Size    | 7 bytes |
| Instructions | 2       |

```
      00 01 02 03 04 05 06 07  08 09 0A 0B 0C 0D 0E 0F
      -- -- -- -- -- -- -- --  -- -- -- -- -- -- -- --
0030:                          92 01 F8 FF FF 7F 00             ....... 
```

#### Opcodes

```
  0: 0x0038 [0x92] EventEntity->Render.Flags3 ^= 0x01
  1: 0x003E [0x00] END_REQSTACK()
```

### Event 65535.3

#### Metadata

| Field        | Value    |
|--------------|----------|
| Entrypoint   | 0x003F   |
| Data Size    | 38 bytes |
| Instructions | 7        |

```
      00 01 02 03 04 05 06 07  08 09 0A 0B 0C 0D 0E 0F
      -- -- -- -- -- -- -- --  -- -- -- -- -- -- -- --
0030:                                               33                 3
0040: 01 37 08 80 09 80 0A 80  0B 80 D8 01 14 E2 07 01  .7..............
0050: 04 80 D8 03 14 E2 07 01  05 80 D8 02 14 E2 07 01  ................
0060: 05 80 22 00 00                                    .."..           
```

#### Opcodes

```
  0: 0x003F [0x33] EventEntity->Render.Flags0 |= 0x200000 // Bit 21 (flag=0x01)
  1: 0x0041 [0x37] UPDATE_EVENT_POSITION_AND_DIR: x=-232.461*, z=321.915*, y=-20.824*, direction=184.4°*
  2: 0x004A [0xD8] SET_ENTITY_EVENT_DIR: Set Unnamed NPC (ID: 17293844/0x0107E214) EventDir[0] = 1024*
  3: 0x0052 [0xD8] SET_ENTITY_EVENT_DIR: Set Unnamed NPC (ID: 17293844/0x0107E214) EventDir[2] = 1*
  4: 0x005A [0xD8] SET_ENTITY_EVENT_DIR: Set Unnamed NPC (ID: 17293844/0x0107E214) EventDir[1] = 1*
  5: 0x0062 [0x22] ENTITY_HIDE_FLAG(enabled=0x00)
  6: 0x0064 [0x00] END_REQSTACK()
```
