# 17293840

## Common Data

| Field            | Value                  |
|------------------|------------------------|
| Zone             | Qufim Island (ID: 126) |
| Block Size       | 9272 bytes             |
| Total Events     | 3                      |
| References Count | 179                    |

## List of Events

| Event ID              | Entrypoint   |   Size |   Instructions |
|-----------------------|--------------|--------|----------------|
| [65535](#event-65535) | 0x0000       |    658 |             62 |
| [66](#event-66)       | 0x0292       |   3590 |            478 |
| [67](#event-67)       | 0x1098       |   4277 |            641 |

## DAT References (imed_data)

|   Index | Hex Value   |   Dec Value |
|---------|-------------|-------------|
|       0 | 0x00C8      |         200 |
|       1 | 0x0000      |           0 |
|       2 | 0x00C9      |         201 |
|       3 | 0x0001      |           1 |
|       4 | 0x002D      |          45 |
|       5 | 0x0002      |           2 |
|       6 | 0x001E      |          30 |
|       7 | 0x00D7      |         215 |
|       8 | 0x012C      |         300 |
|       9 | 0x0093      |         147 |
|      10 | 0xFFFC8957  |  4294740311 |
|      11 | 0x4B01B     |      307227 |
|      12 | 0xFFFFB1F6  |  4294947318 |
|      13 | 0x07C6      |        1990 |
|      14 | 0xFFFC86B0  |  4294739632 |
|      15 | 0x4B3B7     |      308151 |
|      16 | 0xFFFFB1FE  |  4294947326 |
|      17 | 0x0487      |        1159 |
|      18 | 0xFFFC8AEA  |  4294740714 |
|      19 | 0x4AB78     |      306040 |
|      20 | 0xFFFFB258  |  4294947416 |
|      21 | 0x047C      |        1148 |
|      22 | 0xFFFC72FE  |  4294734590 |
|      23 | 0x4A0BB     |      303291 |
|      24 | 0xFFFFB3F5  |  4294947829 |
|      25 | 0xFFFC9367  |  4294742887 |
|      26 | 0x4DFC4     |      319428 |
|      27 | 0xFFFFB4D4  |  4294948052 |
|      28 | 0x07E1      |        2017 |
|      29 | 0x0008      |           8 |
|      30 | 0x0004      |           4 |
|      31 | 0x001C      |          28 |
|      32 | 0x007F      |         127 |
|      33 | 0x0380      |         896 |
|      34 | 0x005A      |          90 |
|      35 | 0x31C1      |       12737 |
|      36 | 0x31C2      |       12738 |
|      37 | 0x31C3      |       12739 |
|      38 | 0xFFFC8E51  |  4294741585 |
|      39 | 0x4C9A9     |      313769 |
|      40 | 0xFFFFB3DB  |  4294947803 |
|      41 | 0x0474      |        1140 |
|      42 | 0x31C4      |       12740 |
|      43 | 0x31C5      |       12741 |
|      44 | 0x0005      |           5 |
|      45 | 0x31C6      |       12742 |
|      46 | 0x0006      |           6 |
|      47 | 0x31C7      |       12743 |
|      48 | 0x31C8      |       12744 |
|      49 | 0x31C9      |       12745 |
|      50 | 0x31CA      |       12746 |
|      51 | 0x31CB      |       12747 |
|      52 | 0x31CC      |       12748 |
|      53 | 0x31CD      |       12749 |
|      54 | 0x0014      |          20 |
|      55 | 0x31CE      |       12750 |
|      56 | 0x31CF      |       12751 |
|      57 | 0x31D0      |       12752 |
|      58 | 0x31D1      |       12753 |
|      59 | 0x31D2      |       12754 |
|      60 | 0x31D3      |       12755 |
|      61 | 0x0007      |           7 |
|      62 | 0x0003      |           3 |
|      63 | 0x31D6      |       12758 |
|      64 | 0x0050      |          80 |
|      65 | 0x31D4      |       12756 |
|      66 | 0x31D5      |       12757 |
|      67 | 0x31D7      |       12759 |
|      68 | 0x0041      |          65 |
|      69 | 0x000F      |          15 |
|      70 | 0x00C6      |         198 |
|      71 | 0x31D8      |       12760 |
|      72 | 0x31D9      |       12761 |
|      73 | 0x31DA      |       12762 |
|      74 | 0x0196      |         406 |
|      75 | 0x31DB      |       12763 |
|      76 | 0x31DC      |       12764 |
|      77 | 0x019A      |         410 |
|      78 | 0x31DD      |       12765 |
|      79 | 0x0046      |          70 |
|      80 | 0x31DE      |       12766 |
|      81 | 0x0080      |         128 |
|      82 | 0x31DF      |       12767 |
|      83 | 0x0199      |         409 |
|      84 | 0x31E0      |       12768 |
|      85 | 0x003C      |          60 |
|      86 | 0x0065      |         101 |
|      87 | 0x0067      |         103 |
|      88 | 0xFFFC7D22  |  4294737186 |
|      89 | 0x4E626     |      321062 |
|      90 | 0xFFFFB305  |  4294947589 |
|      91 | 0x07B6      |        1974 |
|      92 | 0xFFFC7312  |  4294734610 |
|      93 | 0x4EA39     |      322105 |
|      94 | 0xFFFFB284  |  4294947460 |
|      95 | 0x07E0      |        2016 |
|      96 | 0xFFFC7306  |  4294734598 |
|      97 | 0x4DE5E     |      319070 |
|      98 | 0xFFFC6DB1  |  4294733233 |
|      99 | 0x4E417     |      320535 |
|     100 | 0xFFFFB240  |  4294947392 |
|     101 | 0xFFFC8F39  |  4294741817 |
|     102 | 0x4E12E     |      319790 |
|     103 | 0xFFFFB468  |  4294947944 |
|     104 | 0x31EB      |       12779 |
|     105 | 0x0023      |          35 |
|     106 | 0x000A      |          10 |
|     107 | 0x31EC      |       12780 |
|     108 | 0x31ED      |       12781 |
|     109 | 0x31EE      |       12782 |
|     110 | 0x31EF      |       12783 |
|     111 | 0x31F0      |       12784 |
|     112 | 0xFFFC85D6  |  4294739414 |
|     113 | 0x4E18D     |      319885 |
|     114 | 0xFFFFB374  |  4294947700 |
|     115 | 0x31F1      |       12785 |
|     116 | 0x31F2      |       12786 |
|     117 | 0x001B      |          27 |
|     118 | 0x31F3      |       12787 |
|     119 | 0x31F4      |       12788 |
|     120 | 0x31F5      |       12789 |
|     121 | 0x31F6      |       12790 |
|     122 | 0x31F7      |       12791 |
|     123 | 0x31F8      |       12792 |
|     124 | 0x31F9      |       12793 |
|     125 | 0x31FA      |       12794 |
|     126 | 0x31FB      |       12795 |
|     127 | 0x31FC      |       12796 |
|     128 | 0x31FD      |       12797 |
|     129 | 0x0F3C      |        3900 |
|     130 | 0x31FE      |       12798 |
|     131 | 0x31FF      |       12799 |
|     132 | 0x3200      |       12800 |
|     133 | 0x00C7      |         199 |
|     134 | 0x3201      |       12801 |
|     135 | 0x3202      |       12802 |
|     136 | 0x31C0      |       12736 |
|     137 | 0xFFFFFF18  |  4294967064 |
|     138 | 0x044C      |        1100 |
|     139 | 0x03E8      |        1000 |
|     140 | 0x0096      |         150 |
|     141 | 0x3203      |       12803 |
|     142 | 0x3204      |       12804 |
|     143 | 0x3205      |       12805 |
|     144 | 0x3206      |       12806 |
|     145 | 0x3207      |       12807 |
|     146 | 0xFFFC72A6  |  4294734502 |
|     147 | 0x4E590     |      320912 |
|     148 | 0xFFFFB27F  |  4294947455 |
|     149 | 0x0825      |        2085 |
|     150 | 0xFFFC80C8  |  4294738120 |
|     151 | 0x4E982     |      321922 |
|     152 | 0xFFFFB333  |  4294947635 |
|     153 | 0x0827      |        2087 |
|     154 | 0xFFFC7E2F  |  4294737455 |
|     155 | 0x4E1F7     |      319991 |
|     156 | 0xFFFFB312  |  4294947602 |
|     157 | 0x0846      |        2118 |
|     158 | 0x07E8      |        2024 |
|     159 | 0x0FE6      |        4070 |
|     160 | 0xFFFFF818  |  4294965272 |
|     161 | 0x3208      |       12808 |
|     162 | 0x3209      |       12809 |
|     163 | 0x320A      |       12810 |
|     164 | 0x320B      |       12811 |
|     165 | 0x320C      |       12812 |
|     166 | 0x320D      |       12813 |
|     167 | 0x320E      |       12814 |
|     168 | 0x320F      |       12815 |
|     169 | 0x3210      |       12816 |
|     170 | 0x3211      |       12817 |
|     171 | 0x3212      |       12818 |
|     172 | 0x3213      |       12819 |
|     173 | 0x3214      |       12820 |
|     174 | 0x3215      |       12821 |
|     175 | 0x3216      |       12822 |
|     176 | 0x3217      |       12823 |
|     177 | 0x0028      |          40 |
|     178 | 0x0032      |          50 |

## String References

- **12736**: @@
- **12755**: Is Garazu-Horeizu involved? [Yes, indeed./No, I don't think so.]

## Events

### Event 65535

#### Metadata

| Field        | Value     |
|--------------|-----------|
| Entrypoint   | 0x0000    |
| Data Size    | 658 bytes |
| Instructions | 1         |

```
      00 01 02 03 04 05 06 07  08 09 0A 0B 0C 0D 0E 0F
      -- -- -- -- -- -- -- --  -- -- -- -- -- -- -- --
0000: 00 45 00 80 F0 FF FF 7F  F0 FF FF 7F 66 64 69 30  .E..........fdi0
0010: 01 80 55 00 80 F0 FF FF  7F F0 FF FF 7F 66 64 69  ..U..........fdi
0020: 30 1B 45 00 80 F0 FF FF  7F F0 FF FF 7F 66 64 6F  0.E..........fdo
0030: 30 01 80 55 00 80 F0 FF  FF 7F F0 FF FF 7F 66 64  0..U..........fd
0040: 6F 30 1B 45 00 80 F0 FF  FF 7F F0 FF FF 7F 66 64  o0.E..........fd
0050: 69 31 01 80 55 00 80 F0  FF FF 7F F0 FF FF 7F 66  i1..U..........f
0060: 64 69 31 1B 45 00 80 F0  FF FF 7F F0 FF FF 7F 66  di1.E..........f
0070: 64 6F 31 01 80 55 00 80  F0 FF FF 7F F0 FF FF 7F  do1..U..........
0080: 66 64 6F 31 1B 45 02 80  F0 FF FF 7F F0 FF FF 7F  fdo1.E..........
0090: 77 68 69 31 01 80 55 02  80 F0 FF FF 7F F0 FF FF  whi1..U.........
00A0: 7F 77 68 69 31 1B 45 02  80 F0 FF FF 7F F0 FF FF  .whi1.E.........
00B0: 7F 77 68 6F 31 01 80 55  02 80 F0 FF FF 7F F0 FF  .who1..U........
00C0: FF 7F 77 68 6F 31 1B 45  02 80 F0 FF FF 7F F0 FF  ..who1.E........
00D0: FF 7F 77 68 6F 32 01 80  55 02 80 F0 FF FF 7F F0  ..who2..U.......
00E0: FF FF 7F 77 68 6F 32 1B  45 02 80 F0 FF FF 7F F0  ...who2.E.......
00F0: FF FF 7F 77 68 6F 33 01  80 55 02 80 F0 FF FF 7F  ...who3..U......
0100: F0 FF FF 7F 77 68 6F 33  1B 62 03 80 F0 FF FF 7F  ....who3.b......
0110: F0 FF FF 7F 6D 61 69 6E  01 80 1C 04 80 45 00 80  ....main.....E..
0120: F0 FF FF 7F F0 FF FF 7F  66 64 6F 31 01 80 55 00  ........fdo1..U.
0130: 80 F0 FF FF 7F F0 FF FF  7F 66 64 6F 31 1B 45 00  .........fdo1.E.
0140: 80 F0 FF FF 7F F0 FF FF  7F 66 64 69 31 01 80 62  .........fdi1..b
0150: 05 80 F0 FF FF 7F F0 FF  FF 7F 6D 61 69 6E 01 80  ..........main..
0160: 1C 06 80 55 00 80 F0 FF  FF 7F F0 FF FF 7F 66 64  ...U..........fd
0170: 69 31 1B 45 00 80 F0 FF  FF 7F F0 FF FF 7F 62 6C  i1.E..........bl
0180: 6F 6E 01 80 45 02 80 F0  FF FF 7F F0 FF FF 7F 62  on..E..........b
0190: 6C 6F 6E 01 80 1B 45 02  80 F0 FF FF 7F F0 FF FF  lon...E.........
01A0: 7F 77 68 69 30 01 80 55  02 80 F0 FF FF 7F F0 FF  .whi0..U........
01B0: FF 7F 77 68 69 30 1B 45  02 80 F0 FF FF 7F F0 FF  ..whi0.E........
01C0: FF 7F 77 68 6F 30 01 80  55 02 80 F0 FF FF 7F F0  ..who0..U.......
01D0: FF FF 7F 77 68 6F 30 1B  45 07 80 F0 FF FF 7F F0  ...who0.E.......
01E0: FF FF 7F 65 66 6F 6E 01  80 55 07 80 F0 FF FF 7F  ...efon..U......
01F0: F0 FF FF 7F 65 66 6F 6E  1B 45 00 80 F0 FF FF 7F  ....efon.E......
0200: F0 FF FF 7F 66 64 69 73  01 80 1B 45 00 80 F0 FF  ....fdis...E....
0210: FF 7F F0 FF FF 7F 66 64  6F 73 01 80 55 00 80 F0  ......fdos..U...
0220: FF FF 7F F0 FF FF 7F 66  64 6F 73 1B 45 00 80 F0  .......fdos.E...
0230: FF FF 7F F0 FF FF 7F 66  64 69 66 01 80 1B 45 00  .......fdif...E.
0240: 80 F0 FF FF 7F F0 FF FF  7F 66 64 6F 66 01 80 55  .........fdof..U
0250: 00 80 F0 FF FF 7F F0 FF  FF 7F 66 64 6F 66 1B 45  ..........fdof.E
0260: 00 80 F0 FF FF 7F F0 FF  FF 7F 66 64 69 70 01 80  ..........fdip..
0270: 1B 45 00 80 F0 FF FF 7F  F0 FF FF 7F 66 64 6F 70  .E..........fdop
0280: 01 80 55 00 80 F0 FF FF  7F F0 FF FF 7F 66 64 6F  ..U..........fdo
0290: 70 1B                                             p.              
```

#### Opcodes

```
  0: 0x0000 [0x00] END_REQSTACK()
```

#### Data or dead code:

```
# Dead code (unreachable instructions):
     0x0001 [0x45] LOAD_SCHEDULED_TASK: Load scheduler "fdi0" with entities [LocalPlayer, LocalPlayer], work=[200*, 0*]
     0x0012 [0x55] WAIT_LOAD_SCHEDULER: Wait for scheduler "fdi0" with entities [LocalPlayer, LocalPlayer], work=200*
     0x0021 [0x1B] RETURN
     0x0022 [0x45] LOAD_SCHEDULED_TASK: Load scheduler "fdo0" with entities [LocalPlayer, LocalPlayer], work=[200*, 0*]
     0x0033 [0x55] WAIT_LOAD_SCHEDULER: Wait for scheduler "fdo0" with entities [LocalPlayer, LocalPlayer], work=200*
     0x0042 [0x1B] RETURN
     0x0043 [0x45] LOAD_SCHEDULED_TASK: Load scheduler "fdi1" with entities [LocalPlayer, LocalPlayer], work=[200*, 0*]
     0x0054 [0x55] WAIT_LOAD_SCHEDULER: Wait for scheduler "fdi1" with entities [LocalPlayer, LocalPlayer], work=200*
     0x0063 [0x1B] RETURN
     0x0064 [0x45] LOAD_SCHEDULED_TASK: Load scheduler "fdo1" with entities [LocalPlayer, LocalPlayer], work=[200*, 0*]
     0x0075 [0x55] WAIT_LOAD_SCHEDULER: Wait for scheduler "fdo1" with entities [LocalPlayer, LocalPlayer], work=200*
     0x0084 [0x1B] RETURN
     0x0085 [0x45] LOAD_SCHEDULED_TASK: Load scheduler "whi1" with entities [LocalPlayer, LocalPlayer], work=[201*, 0*]
     0x0096 [0x55] WAIT_LOAD_SCHEDULER: Wait for scheduler "whi1" with entities [LocalPlayer, LocalPlayer], work=201*
     0x00A5 [0x1B] RETURN
     0x00A6 [0x45] LOAD_SCHEDULED_TASK: Load scheduler "who1" with entities [LocalPlayer, LocalPlayer], work=[201*, 0*]
     0x00B7 [0x55] WAIT_LOAD_SCHEDULER: Wait for scheduler "who1" with entities [LocalPlayer, LocalPlayer], work=201*
     0x00C6 [0x1B] RETURN
     0x00C7 [0x45] LOAD_SCHEDULED_TASK: Load scheduler "who2" with entities [LocalPlayer, LocalPlayer], work=[201*, 0*]
     0x00D8 [0x55] WAIT_LOAD_SCHEDULER: Wait for scheduler "who2" with entities [LocalPlayer, LocalPlayer], work=201*
     0x00E7 [0x1B] RETURN
     0x00E8 [0x45] LOAD_SCHEDULED_TASK: Load scheduler "who3" with entities [LocalPlayer, LocalPlayer], work=[201*, 0*]
     0x00F9 [0x55] WAIT_LOAD_SCHEDULER: Wait for scheduler "who3" with entities [LocalPlayer, LocalPlayer], work=201*
     0x0108 [0x1B] RETURN
     0x0109 [0x62] LOAD_EVENT_SCHEDULER: Load scheduler "main" with entities [LocalPlayer, LocalPlayer], work=[1*, 0*]
     0x011A [0x1C] WAIT(45* ticks)
     0x011D [0x45] LOAD_SCHEDULED_TASK: Load scheduler "fdo1" with entities [LocalPlayer, LocalPlayer], work=[200*, 0*]
     0x012E [0x55] WAIT_LOAD_SCHEDULER: Wait for scheduler "fdo1" with entities [LocalPlayer, LocalPlayer], work=200*
     0x013D [0x1B] RETURN
     0x013E [0x45] LOAD_SCHEDULED_TASK: Load scheduler "fdi1" with entities [LocalPlayer, LocalPlayer], work=[200*, 0*]
     0x014F [0x62] LOAD_EVENT_SCHEDULER: Load scheduler "main" with entities [LocalPlayer, LocalPlayer], work=[2*, 0*]
     0x0160 [0x1C] WAIT(30* ticks)
     0x0163 [0x55] WAIT_LOAD_SCHEDULER: Wait for scheduler "fdi1" with entities [LocalPlayer, LocalPlayer], work=200*
     0x0172 [0x1B] RETURN
     0x0173 [0x45] LOAD_SCHEDULED_TASK: Load scheduler "blon" with entities [LocalPlayer, LocalPlayer], work=[200*, 0*]
     0x0184 [0x45] LOAD_SCHEDULED_TASK: Load scheduler "blon" with entities [LocalPlayer, LocalPlayer], work=[201*, 0*]
     0x0195 [0x1B] RETURN
     0x0196 [0x45] LOAD_SCHEDULED_TASK: Load scheduler "whi0" with entities [LocalPlayer, LocalPlayer], work=[201*, 0*]
     0x01A7 [0x55] WAIT_LOAD_SCHEDULER: Wait for scheduler "whi0" with entities [LocalPlayer, LocalPlayer], work=201*
     0x01B6 [0x1B] RETURN
     0x01B7 [0x45] LOAD_SCHEDULED_TASK: Load scheduler "who0" with entities [LocalPlayer, LocalPlayer], work=[201*, 0*]
     0x01C8 [0x55] WAIT_LOAD_SCHEDULER: Wait for scheduler "who0" with entities [LocalPlayer, LocalPlayer], work=201*
     0x01D7 [0x1B] RETURN
     0x01D8 [0x45] LOAD_SCHEDULED_TASK: Load scheduler "efon" with entities [LocalPlayer, LocalPlayer], work=[215*, 0*]
     0x01E9 [0x55] WAIT_LOAD_SCHEDULER: Wait for scheduler "efon" with entities [LocalPlayer, LocalPlayer], work=215*
     0x01F8 [0x1B] RETURN
     0x01F9 [0x45] LOAD_SCHEDULED_TASK: Load scheduler "fdis" with entities [LocalPlayer, LocalPlayer], work=[200*, 0*]
     0x020A [0x1B] RETURN
     0x020B [0x45] LOAD_SCHEDULED_TASK: Load scheduler "fdos" with entities [LocalPlayer, LocalPlayer], work=[200*, 0*]
     0x021C [0x55] WAIT_LOAD_SCHEDULER: Wait for scheduler "fdos" with entities [LocalPlayer, LocalPlayer], work=200*
     0x022B [0x1B] RETURN
     0x022C [0x45] LOAD_SCHEDULED_TASK: Load scheduler "fdif" with entities [LocalPlayer, LocalPlayer], work=[200*, 0*]
     0x023D [0x1B] RETURN
     0x023E [0x45] LOAD_SCHEDULED_TASK: Load scheduler "fdof" with entities [LocalPlayer, LocalPlayer], work=[200*, 0*]
     0x024F [0x55] WAIT_LOAD_SCHEDULER: Wait for scheduler "fdof" with entities [LocalPlayer, LocalPlayer], work=200*
     0x025E [0x1B] RETURN
     0x025F [0x45] LOAD_SCHEDULED_TASK: Load scheduler "fdip" with entities [LocalPlayer, LocalPlayer], work=[200*, 0*]
     0x0270 [0x1B] RETURN
     0x0271 [0x45] LOAD_SCHEDULED_TASK: Load scheduler "fdop" with entities [LocalPlayer, LocalPlayer], work=[200*, 0*]
     0x0282 [0x55] WAIT_LOAD_SCHEDULER: Wait for scheduler "fdop" with entities [LocalPlayer, LocalPlayer], work=200*
     0x0291 [0x1B] RETURN
```

### Event 66

#### Metadata

| Field        | Value      |
|--------------|------------|
| Entrypoint   | 0x0292     |
| Data Size    | 3590 bytes |
| Instructions | 478        |

```
      00 01 02 03 04 05 06 07  08 09 0A 0B 0C 0D 0E 0F
      -- -- -- -- -- -- -- --  -- -- -- -- -- -- -- --
0290:       42 5D 01 80 08 80  1A 64 00 46 01 38 09 80    B].....d.F.8..
02A0: 2F 00 11 E2 07 01 2F 00  12 E2 07 01 2F 00 13 E2  /...../...../...
02B0: 07 01 2F 00 14 E2 07 01  2F 00 15 E2 07 01 4E 00  ../...../.....N.
02C0: 11 E2 07 01 4E 00 12 E2  07 01 4E 00 13 E2 07 01  ....N.....N.....
02D0: 4E 00 14 E2 07 01 4E 00  15 E2 07 01 94 01 11 E2  N.....N.........
02E0: 07 01 94 01 12 E2 07 01  94 01 13 E2 07 01 94 01  ................
02F0: 14 E2 07 01 94 01 F0 FF  FF 7F BA 11 E2 07 01 0A  ................
0300: 80 0B 80 0C 80 0D 80 BA  12 E2 07 01 0E 80 0F 80  ................
0310: 10 80 11 80 BA 13 E2 07  01 12 80 13 80 14 80 15  ................
0320: 80 BA 14 E2 07 01 16 80  17 80 18 80 0D 80 BA F0  ................
0330: FF FF 7F 19 80 1A 80 1B  80 1C 80 80 11 E2 07 01  ................
0340: 80 12 E2 07 01 80 13 E2  07 01 80 14 E2 07 01 80  ................
0350: F0 FF FF 7F 69 01 1D 80  69 01 1E 80 29 0F 14 E2  ....i...i...)...
0360: 07 01 34 29 0F F0 FF FF  7F 23 29 0F 11 E2 07 01  ..4).....#).....
0370: 4C 29 0F 13 E2 07 01 11  29 0F 12 E2 07 01 14 29  L)......)......)
0380: 0F 15 E2 07 01 02 2C 11  E2 07 01 11 E2 07 01 77  ......,........w
0390: 70 6F 66 2C 14 E2 07 01  14 E2 07 01 77 70 6F 66  pof,........wpof
03A0: 4A 11 E2 07 01 14 E2 07  01 4A 12 E2 07 01 14 E2  J........J......
03B0: 07 01 4A 13 E2 07 01 14  E2 07 01 4A 14 E2 07 01  ..J........J....
03C0: 11 E2 07 01 6F 76 11 E2  07 01 6F 76 12 E2 07 01  ....ov....ov....
03D0: 6F 76 13 E2 07 01 6F 76  14 E2 07 01 29 08 F0 FF  ov....ov....)...
03E0: FF 7F 38 D9 00 5C 00 1F  80 5C 01 1F 80 9A 5D 20  ..8..\...\....] 
03F0: 80 03 80 29 0F 11 E2 07  01 2D 29 0F 11 E2 07 01  ...).....-).....
0400: 2E 69 00 1D 80 45 21 80  F8 FF FF 7F F8 FF FF 7F  .i...E!.........
0410: 73 30 33 34 01 80 1A 43  00 4A F0 FF FF 7F 11 E2  s034...C.J......
0420: 07 01 6F 76 F0 FF FF 7F  1C 22 80 52 21 80 F8 FF  ..ov.....".R!...
0430: FF 7F F8 FF FF 7F 73 30  33 34 45 21 80 F8 FF FF  ......s034E!....
0440: 7F F8 FF FF 7F 73 30 33  35 01 80 29 0F 14 E2 07  .....s035..)....
0450: 01 0D 2B 14 E2 07 01 23  80 23 29 0F 14 E2 07 01  ..+....#.#).....
0460: 0E 52 21 80 F8 FF FF 7F  F8 FF FF 7F 73 30 33 35  .R!.........s035
0470: 45 21 80 F8 FF FF 7F F8  FF FF 7F 73 30 33 36 01  E!.........s036.
0480: 80 27 0F 12 E2 07 01 16  2B 12 E2 07 01 24 80 23  .'......+....$.#
0490: 2A 0F 12 E2 07 01 27 0F  13 E2 07 01 13 2B 13 E2  *.....'......+..
04A0: 07 01 25 80 23 2A 0F 13  E2 07 01 52 21 80 F8 FF  ..%.#*.....R!...
04B0: FF 7F F8 FF FF 7F 73 30  33 36 45 21 80 F8 FF FF  ......s036E!....
04C0: 7F F8 FF FF 7F 73 30 33  37 01 80 29 0F 11 E2 07  .....s037..)....
04D0: 01 2F BA F0 FF FF 7F 26  80 27 80 28 80 29 80 29  ./.....&.'.(.).)
04E0: 0F 14 E2 07 01 0B 2B 14  E2 07 01 2A 80 23 29 0F  ......+....*.#).
04F0: 14 E2 07 01 0C 29 0F 11  E2 07 01 30 52 21 80 F8  .....).....0R!..
0500: FF FF 7F F8 FF FF 7F 73  30 33 37 45 21 80 F8 FF  .......s037E!...
0510: FF 7F F8 FF FF 7F 73 30  33 38 01 80 29 0F 11 E2  ......s038..)...
0520: 07 01 17 45 21 80 F8 FF  FF 7F F8 FF FF 7F 31 30  ...E!.........10
0530: 30 39 01 80 2B 11 E2 07  01 2B 80 23 79 00 F0 FF  09..+....+.#y...
0540: FF 7F 13 E2 07 01 27 0F  F0 FF FF 7F 39 1C 2C 80  ......'.....9.,.
0550: 29 0F 11 E2 07 01 18 52  21 80 F8 FF FF 7F F8 FF  )......R!.......
0560: FF 7F 73 30 33 38 45 21  80 F8 FF FF 7F F8 FF FF  ..s038E!........
0570: 7F 73 30 33 39 01 80 4A  13 E2 07 01 F0 FF FF 7F  .s039..J........
0580: 6F 76 13 E2 07 01 1C 06  80 2B 13 E2 07 01 2D 80  ov.......+....-.
0590: 1C 06 80 29 0F 11 E2 07  01 19 29 0F 11 E2 07 01  ...)......).....
05A0: 1A 4A 11 E2 07 01 F0 FF  FF 7F 6F 76 11 E2 07 01  .J........ov....
05B0: 23 52 21 80 F8 FF FF 7F  F8 FF FF 7F 73 30 33 39  #R!.........s039
05C0: 02 09 10 2C 80 00 DC 05  45 21 80 F8 FF FF 7F F8  ...,....E!......
05D0: FF FF 7F 73 30 35 39 01  80 01 09 06 02 09 10 2E  ...s059.........
05E0: 80 00 F8 05 45 21 80 F8  FF FF 7F F8 FF FF 7F 73  ....E!.........s
05F0: 30 35 39 01 80 01 09 06  45 21 80 F8 FF FF 7F F8  059.....E!......
0600: FF FF 7F 73 30 34 30 01  80 29 0F 11 E2 07 01 31  ...s040..).....1
0610: 2B 11 E2 07 01 2F 80 23  29 0F 11 E2 07 01 32 2A  +..../.#).....2*
0620: 0F F0 FF FF 7F 29 0F 11  E2 07 01 33 45 21 80 F8  .....).....3E!..
0630: FF FF 7F F8 FF FF 7F 31  30 31 34 01 80 2B 11 E2  .......1014..+..
0640: 07 01 30 80 23 02 09 10  2C 80 00 5F 06 52 21 80  ..0.#...,.._.R!.
0650: F8 FF FF 7F F8 FF FF 7F  73 30 35 39 01 88 06 02  ........s059....
0660: 09 10 2E 80 00 79 06 52  21 80 F8 FF FF 7F F8 FF  .....y.R!.......
0670: FF 7F 73 30 35 39 01 88  06 52 21 80 F8 FF FF 7F  ..s059...R!.....
0680: F8 FF FF 7F 73 30 34 30  45 21 80 F8 FF FF 7F F8  ....s040E!......
0690: FF FF 7F 73 30 34 31 01  80 2B 11 E2 07 01 31 80  ...s041..+....1.
06A0: 23 2B 11 E2 07 01 32 80  23 29 0F 11 E2 07 01 34  #+....2.#).....4
06B0: 27 0F 12 E2 07 01 17 1C  2C 80 52 21 80 F8 FF FF  '.......,.R!....
06C0: 7F F8 FF FF 7F 73 30 34  31 45 21 80 F8 FF FF 7F  .....s041E!.....
06D0: F8 FF FF 7F 73 30 34 32  01 80 6B 69 64 6C 30 11  ....s042..kidl0.
06E0: E2 07 01 2A 0F 12 E2 07  01 79 00 F0 FF FF 7F 12  ...*.....y......
06F0: E2 07 01 2B 12 E2 07 01  33 80 1C 06 80 4A 11 E2  ...+....3....J..
0700: 07 01 12 E2 07 01 6F 76  11 E2 07 01 23 4A 13 E2  ......ov....#J..
0710: 07 01 12 E2 07 01 6F 76  13 E2 07 01 52 21 80 F8  ......ov....R!..
0720: FF FF 7F F8 FF FF 7F 73  30 34 32 45 21 80 F8 FF  .......s042E!...
0730: FF 7F F8 FF FF 7F 73 30  34 33 01 80 29 0F 11 E2  ......s043..)...
0740: 07 01 25 2B 11 E2 07 01  34 80 23 29 0F 11 E2 07  ..%+....4.#)....
0750: 01 26 29 0F 11 E2 07 01  27 29 0F 12 E2 07 01 05  .&).....')......
0760: 2B 12 E2 07 01 35 80 1C  36 80 45 21 80 F8 FF FF  +....5..6.E!....
0770: 7F F8 FF FF 7F 30 30 31  31 01 80 23 29 0F 11 E2  .....0011..#)...
0780: 07 01 28 1C 2C 80 4A 13  E2 07 01 11 E2 07 01 6F  ..(.,.J........o
0790: 76 13 E2 07 01 52 21 80  F8 FF FF 7F F8 FF FF 7F  v....R!.........
07A0: 73 30 34 33 45 21 80 F8  FF FF 7F F8 FF FF 7F 73  s043E!.........s
07B0: 30 34 34 01 80 79 00 F0  FF FF 7F 13 E2 07 01 29  044..y.........)
07C0: 0F 13 E2 07 01 0A 2B 13  E2 07 01 37 80 4A 11 E2  ......+....7.J..
07D0: 07 01 13 E2 07 01 6F 76  11 E2 07 01 23 29 0F 13  ......ov....#)..
07E0: E2 07 01 0B 79 00 F0 FF  FF 7F 11 E2 07 01 29 0F  ....y.........).
07F0: 11 E2 07 01 1B 45 21 80  F8 FF FF 7F F8 FF FF 7F  .....E!.........
0800: 31 30 30 31 01 80 2B 11  E2 07 01 38 80 23 29 0F  1001..+....8.#).
0810: 11 E2 07 01 1C 52 21 80  F8 FF FF 7F F8 FF FF 7F  .....R!.........
0820: 73 30 34 34 45 21 80 F8  FF FF 7F F8 FF FF 7F 73  s044E!.........s
0830: 30 34 36 01 80 29 0F 11  E2 07 01 1D 2B 13 E2 07  046..)......+...
0840: 01 39 80 23 29 0F 11 E2  07 01 1E 29 0F 12 E2 07  .9.#)......)....
0850: 01 06 29 0F 12 E2 07 01  07 2C 14 E2 07 01 14 E2  ..)......,......
0860: 07 01 77 70 6F 66 29 0F  11 E2 07 01 2D 2B 11 E2  ..wpof).....-+..
0870: 07 01 3A 80 23 29 0F 11  E2 07 01 2E 29 0F 12 E2  ..:.#)......)...
0880: 07 01 08 52 21 80 F8 FF  FF 7F F8 FF FF 7F 73 30  ...R!.........s0
0890: 34 36 02 09 10 2C 80 00  AE 08 45 21 80 F8 FF FF  46...,....E!....
08A0: 7F F8 FF FF 7F 73 30 36  30 01 80 01 DB 08 02 09  .....s060.......
08B0: 10 2E 80 00 CA 08 45 21  80 F8 FF FF 7F F8 FF FF  ......E!........
08C0: 7F 73 30 36 30 01 80 01  DB 08 45 21 80 F8 FF FF  .s060.....E!....
08D0: 7F F8 FF FF 7F 73 30 34  37 01 80 79 00 F0 FF FF  .....s047..y....
08E0: 7F 13 E2 07 01 29 0F 11  E2 07 01 2F 2B 13 E2 07  .....)...../+...
08F0: 01 3B 80 1C 06 80 4A 13  E2 07 01 F0 FF FF 7F 6F  .;....J........o
0900: 76 13 E2 07 01 4A 11 E2  07 01 F0 FF FF 7F 4A 12  v....J........J.
0910: E2 07 01 F0 FF FF 7F 6F  76 11 E2 07 01 6F 76 12  .......ov....ov.
0920: E2 07 01 23 29 0F 11 E2  07 01 30 24 3C 80 01 80  ...#).....0$<...
0930: 01 80 25 02 00 10 01 80  00 C0 0A 6E F0 FF FF 7F  ..%........n....
0940: 3D 80 99 F0 FF FF 7F 1C  36 80 29 0F 11 E2 07 01  =.......6.).....
0950: 1F 45 21 80 F8 FF FF 7F  F8 FF FF 7F 31 30 30 31  .E!.........1001
0960: 01 80 1C 22 80 02 09 10  2C 80 00 7F 09 52 21 80  ..."....,....R!.
0970: F8 FF FF 7F F8 FF FF 7F  73 30 36 30 01 A8 09 02  ........s060....
0980: 09 10 2E 80 00 99 09 52  21 80 F8 FF FF 7F F8 FF  .......R!.......
0990: FF 7F 73 30 36 30 01 A8  09 52 21 80 F8 FF FF 7F  ..s060...R!.....
09A0: F8 FF FF 7F 73 30 34 37  02 09 10 3E 80 00 C4 09  ....s047...>....
09B0: 45 21 80 F8 FF FF 7F F8  FF FF 7F 73 30 34 39 01  E!.........s049.
09C0: 80 01 29 0A 02 09 10 2C  80 00 E0 09 45 21 80 F8  ..)....,....E!..
09D0: FF FF 7F F8 FF FF 7F 73  30 36 31 01 80 01 29 0A  .......s061...).
09E0: 02 09 10 2E 80 00 FC 09  45 21 80 F8 FF FF 7F F8  ........E!......
09F0: FF FF 7F 73 30 36 31 01  80 01 29 0A 02 09 10 1D  ...s061...).....
0A00: 80 00 18 0A 45 21 80 F8  FF FF 7F F8 FF FF 7F 73  ....E!.........s
0A10: 30 34 39 01 80 01 29 0A  45 21 80 F8 FF FF 7F F8  049...).E!......
0A20: FF FF 7F 73 30 36 32 01  80 2B 11 E2 07 01 3F 80  ...s062..+....?.
0A30: 29 0F 11 E2 07 01 20 29  0F 11 E2 07 01 21 23 29  )..... ).....!#)
0A40: 0F 11 E2 07 01 22 02 09  10 3E 80 00 60 0A 52 21  ....."...>..`.R!
0A50: 80 F8 FF FF 7F F8 FF FF  7F 73 30 34 39 01 BD 0A  .........s049...
0A60: 02 09 10 2C 80 00 7A 0A  52 21 80 F8 FF FF 7F F8  ...,..z.R!......
0A70: FF FF 7F 73 30 36 31 01  BD 0A 02 09 10 2E 80 00  ...s061.........
0A80: 94 0A 52 21 80 F8 FF FF  7F F8 FF FF 7F 73 30 36  ..R!.........s06
0A90: 31 01 BD 0A 02 09 10 1D  80 00 AE 0A 52 21 80 F8  1...........R!..
0AA0: FF FF 7F F8 FF FF 7F 73  30 34 39 01 BD 0A 52 21  .......s049...R!
0AB0: 80 F8 FF FF 7F F8 FF FF  7F 73 30 36 32 01 98 0C  .........s062...
0AC0: 02 00 10 03 80 00 98 0C  6E F0 FF FF 7F 2E 80 99  ........n.......
0AD0: F0 FF FF 7F 1C 06 80 29  0F 13 E2 07 01 0A 1C 40  .......).......@
0AE0: 80 02 09 10 2C 80 00 FB  0A 52 21 80 F8 FF FF 7F  ....,....R!.....
0AF0: F8 FF FF 7F 73 30 36 30  01 24 0B 02 09 10 2E 80  ....s060.$......
0B00: 00 15 0B 52 21 80 F8 FF  FF 7F F8 FF FF 7F 73 30  ...R!.........s0
0B10: 36 30 01 24 0B 52 21 80  F8 FF FF 7F F8 FF FF 7F  60.$.R!.........
0B20: 73 30 34 37 45 21 80 F8  FF FF 7F F8 FF FF 7F 73  s047E!.........s
0B30: 30 34 35 01 80 4A 11 E2  07 01 13 E2 07 01 4A 12  045..J........J.
0B40: E2 07 01 13 E2 07 01 2B  13 E2 07 01 41 80 23 6F  .......+....A.#o
0B50: 76 11 E2 07 01 29 0F 11  E2 07 01 2D 2B 13 E2 07  v....).....-+...
0B60: 01 42 80 23 6F 76 12 E2  07 01 29 0F 13 E2 07 01  .B.#ov....).....
0B70: 0B 52 21 80 F8 FF FF 7F  F8 FF FF 7F 73 30 34 35  .R!.........s045
0B80: 02 09 10 3E 80 00 9C 0B  45 21 80 F8 FF FF 7F F8  ...>....E!......
0B90: FF FF 7F 73 30 34 39 01  80 01 01 0C 02 09 10 2C  ...s049........,
0BA0: 80 00 B8 0B 45 21 80 F8  FF FF 7F F8 FF FF 7F 73  ....E!.........s
0BB0: 30 36 31 01 80 01 01 0C  02 09 10 2E 80 00 D4 0B  061.............
0BC0: 45 21 80 F8 FF FF 7F F8  FF FF 7F 73 30 36 31 01  E!.........s061.
0BD0: 80 01 01 0C 02 09 10 1D  80 00 F0 0B 45 21 80 F8  ............E!..
0BE0: FF FF 7F F8 FF FF 7F 73  30 34 39 01 80 01 01 0C  .......s049.....
0BF0: 45 21 80 F8 FF FF 7F F8  FF FF 7F 73 30 36 32 01  E!.........s062.
0C00: 80 2B 11 E2 07 01 3F 80  23 29 0F 11 E2 07 01 2E  .+....?.#)......
0C10: 29 0F 11 E2 07 01 2F 29  0F 11 E2 07 01 30 02 09  )...../).....0..
0C20: 10 3E 80 00 38 0C 52 21  80 F8 FF FF 7F F8 FF FF  .>..8.R!........
0C30: 7F 73 30 34 39 01 95 0C  02 09 10 2C 80 00 52 0C  .s049......,..R.
0C40: 52 21 80 F8 FF FF 7F F8  FF FF 7F 73 30 36 31 01  R!.........s061.
0C50: 95 0C 02 09 10 2E 80 00  6C 0C 52 21 80 F8 FF FF  ........l.R!....
0C60: 7F F8 FF FF 7F 73 30 36  31 01 95 0C 02 09 10 1D  .....s061.......
0C70: 80 00 86 0C 52 21 80 F8  FF FF 7F F8 FF FF 7F 73  ....R!.........s
0C80: 30 34 39 01 95 0C 52 21  80 F8 FF FF 7F F8 FF FF  049...R!........
0C90: 7F 73 30 36 32 01 98 0C  45 21 80 F8 FF FF 7F F8  .s062...E!......
0CA0: FF FF 7F 73 30 34 38 01  80 5D 01 80 03 80 45 21  ...s048..]....E!
0CB0: 80 F8 FF FF 7F F8 FF FF  7F 38 31 36 30 01 80 2B  .........8160..+
0CC0: 14 E2 07 01 43 80 1C 44  80 45 21 80 F8 FF FF 7F  ....C..D.E!.....
0CD0: F8 FF FF 7F 38 30 30 32  01 80 4A 12 E2 07 01 14  ....8002..J.....
0CE0: E2 07 01 1C 2C 80 4A 11  E2 07 01 14 E2 07 01 4A  ....,.J........J
0CF0: F0 FF FF 7F 14 E2 07 01  1C 45 80 4A 13 E2 07 01  .........E.J....
0D00: 14 E2 07 01 6F 76 F0 FF  FF 7F 6F 76 11 E2 07 01  ....ov....ov....
0D10: 6F 76 12 E2 07 01 6F 76  13 E2 07 01 23 52 21 80  ov....ov....#R!.
0D20: F8 FF FF 7F F8 FF FF 7F  73 30 34 38 45 21 80 F8  ........s048E!..
0D30: FF FF 7F F8 FF FF 7F 73  30 35 31 01 80 5C 00 46  .......s051..\.F
0D40: 80 5C 01 46 80 5C 02 46  80 5C 03 46 80 9A 5D 20  .\.F.\.F.\.F..] 
0D50: 80 03 80 29 0F 11 E2 07  01 17 45 21 80 F8 FF FF  ...)......E!....
0D60: 7F F8 FF FF 7F 31 30 30  39 01 80 2B 11 E2 07 01  .....1009..+....
0D70: 47 80 23 29 0F 11 E2 07  01 18 52 21 80 F8 FF FF  G.#)......R!....
0D80: 7F F8 FF FF 7F 73 30 35  31 45 21 80 F8 FF FF 7F  .....s051E!.....
0D90: F8 FF FF 7F 73 30 35 30  01 80 79 00 F0 FF FF 7F  ....s050..y.....
0DA0: 14 E2 07 01 45 21 80 F8  FF FF 7F F8 FF FF 7F 38  ....E!.........8
0DB0: 30 30 39 01 80 2B 14 E2  07 01 48 80 23 52 21 80  009..+....H.#R!.
0DC0: F8 FF FF 7F F8 FF FF 7F  73 30 35 30 45 21 80 F8  ........s050E!..
0DD0: FF FF 7F F8 FF FF 7F 73  30 35 32 01 80 29 0F 13  .......s052..)..
0DE0: E2 07 01 0A 79 00 F0 FF  FF 7F 11 E2 07 01 2B 11  ....y.........+.
0DF0: E2 07 01 49 80 1C 36 80  4A 12 E2 07 01 11 E2 07  ...I..6.J.......
0E00: 01 6F 76 12 E2 07 01 23  52 21 80 F8 FF FF 7F F8  .ov....#R!......
0E10: FF FF 7F 73 30 35 32 45  21 80 F8 FF FF 7F F8 FF  ...s052E!.......
0E20: FF 7F 73 30 35 33 01 80  4A 12 E2 07 01 14 E2 07  ..s053..J.......
0E30: 01 79 00 F0 FF FF 7F 14  E2 07 01 29 0F 11 E2 07  .y.........)....
0E40: 01 19 C4 02 4A 80 14 E2  07 01 F0 FF FF 7F 2B 14  ....J.........+.
0E50: E2 07 01 4B 80 23 6F 76  12 E2 07 01 29 0F 13 E2  ...K.#ov....)...
0E60: 07 01 0B 27 0F 12 E2 07  01 19 29 0F 11 E2 07 01  ...'......).....
0E70: 1A 2C 11 E2 07 01 11 E2  07 01 77 70 6F 6E 29 0F  .,........wpon).
0E80: 15 E2 07 01 03 52 21 80  F8 FF FF 7F F8 FF FF 7F  .....R!.........
0E90: 73 30 35 33 45 21 80 F8  FF FF 7F F8 FF FF 7F 73  s053E!.........s
0EA0: 30 35 34 01 80 27 0F 13  E2 07 01 14 27 0F 11 E2  054..'......'...
0EB0: 07 01 54 2B 11 E2 07 01  4C 80 2A 0F 11 E2 07 01  ..T+....L.*.....
0EC0: 1C 06 80 29 0F 11 E2 07  01 4B 23 2A 0F 13 E2 07  ...).....K#*....
0ED0: 01 2A 0F 12 E2 07 01 2C  14 E2 07 01 14 E2 07 01  .*.....,........
0EE0: 77 70 6F 66 52 21 80 F8  FF FF 7F F8 FF FF 7F 73  wpofR!.........s
0EF0: 30 35 34 45 21 80 F8 FF  FF 7F F8 FF FF 7F 73 30  054E!.........s0
0F00: 35 35 01 80 C4 02 4D 80  14 E2 07 01 F8 FF FF 7F  55....M.........
0F10: 2B 14 E2 07 01 4E 80 23  1C 4F 80 29 0F 11 E2 07  +....N.#.O.)....
0F20: 01 3B 1C 4F 80 52 21 80  F8 FF FF 7F F8 FF FF 7F  .;.O.R!.........
0F30: 73 30 35 35 45 21 80 F8  FF FF 7F F8 FF FF 7F 73  s055E!.........s
0F40: 30 35 36 01 80 6C 14 E2  07 01 01 80 03 80 29 0F  056..l........).
0F50: 12 E2 07 01 0B 2B 12 E2  07 01 50 80 1C 36 80 79  .....+....P..6.y
0F60: 00 F0 FF FF 7F 12 E2 07  01 23 29 0F 11 E2 07 01  .........#).....
0F70: 3C 29 0F 12 E2 07 01 0C  52 21 80 F8 FF FF 7F F8  <)......R!......
0F80: FF FF 7F 73 30 35 36 45  21 80 F8 FF FF 7F F8 FF  ...s056E!.......
0F90: FF 7F 73 30 35 37 01 80  6C 14 E2 07 01 51 80 03  ..s057..l....Q..
0FA0: 80 29 0F 13 E2 07 01 10  79 00 F0 FF FF 7F 13 E2  .)......y.......
0FB0: 07 01 2B 13 E2 07 01 52  80 1C 06 80 23 52 21 80  ..+....R....#R!.
0FC0: F8 FF FF 7F F8 FF FF 7F  73 30 35 37 45 21 80 F8  ........s057E!..
0FD0: FF FF 7F F8 FF FF 7F 73  30 35 38 01 80 29 0F F0  .......s058..)..
0FE0: FF FF 7F 22 C4 02 53 80  14 E2 07 01 F0 FF FF 7F  ..."..S.........
0FF0: 2B 14 E2 07 01 54 80 1C  55 80 29 0F 11 E2 07 01  +....T..U.).....
1000: 3B 27 0F 12 E2 07 01 1A  27 0F 13 E2 07 01 15 1C  ;'......'.......
1010: 06 80 1A B7 01 23 2A 0F  12 E2 07 01 1C 06 80 52  .....#*........R
1020: 21 80 F8 FF FF 7F F8 FF  FF 7F 73 30 35 38 45 21  !.........s058E!
1030: 80 F8 FF FF 7F F8 FF FF  7F 62 72 6F 66 01 80 29  .........brof..)
1040: 0F 14 E2 07 01 34 29 0F  F0 FF FF 7F 23 29 0F 11  .....4).....#)..
1050: E2 07 01 4C 29 0F 13 E2  07 01 11 1A 64 00 1A 85  ...L).......d...
1060: 00 5C 00 01 80 5C 01 01  80 5C 02 56 80 5C 03 57  .\...\...\.V.\.W
1070: 80 9A 5D 20 80 03 80 D9  01 1C 45 80 AB 11 01 80  ..] ......E.....
1080: 1C 03 80 46 00 45 00 80  F8 FF FF 7F F8 FF FF 7F  ...F.E..........
1090: 66 64 69 32 01 80 21 00                           fdi2..!.        
```

#### Opcodes

```
  0: 0x0292 [0x42] SET_CLI_EVENT_CANCEL_DATA()
  1: 0x0293 [0x5D] SET_MUSIC_VOLUME(volume=0*, fade_time=300*)
  2: 0x0298 [0x1A] CALL_SUBROUTINE(address=0x0064)
  3: 0x029B [0x46] CAMERA_CONTROL: Disable user control
  4: 0x029D [0x38] SET_CLIENT_EVENT_MODE(mode=147*)
  5: 0x02A0 [0x2F] Gloom Phantom (ID: 17293841/0x0107E211)->Render.Flags0 &= ~0x80000 // Bit 19
  6: 0x02A6 [0x2F] Magh Bihu (ID: 17293842/0x0107E212)->Render.Flags0 &= ~0x80000 // Bit 19
  7: 0x02AC [0x2F] Dazbog (ID: 17293843/0x0107E213)->Render.Flags0 &= ~0x80000 // Bit 19
  8: 0x02B2 [0x2F] Echion (ID: 17293844/0x0107E214)->Render.Flags0 &= ~0x80000 // Bit 19
  9: 0x02B8 [0x2F] Unnamed NPC (ID: 17293845/0x0107E215)->Render.Flags0 &= ~0x80000 // Bit 19
 10: 0x02BE [0x4E] SET_ENTITY_HIDE_FLAG: Show Gloom Phantom (ID: 17293841/0x0107E211)
 11: 0x02C4 [0x4E] SET_ENTITY_HIDE_FLAG: Show Magh Bihu (ID: 17293842/0x0107E212)
 12: 0x02CA [0x4E] SET_ENTITY_HIDE_FLAG: Show Dazbog (ID: 17293843/0x0107E213)
 13: 0x02D0 [0x4E] SET_ENTITY_HIDE_FLAG: Show Echion (ID: 17293844/0x0107E214)
 14: 0x02D6 [0x4E] SET_ENTITY_HIDE_FLAG: Show Unnamed NPC (ID: 17293845/0x0107E215)
 15: 0x02DC [0x94] Gloom Phantom (ID: 17293841/0x0107E211)->Render.Flags3 ^= 0x01
 16: 0x02E2 [0x94] Magh Bihu (ID: 17293842/0x0107E212)->Render.Flags3 ^= 0x01
 17: 0x02E8 [0x94] Dazbog (ID: 17293843/0x0107E213)->Render.Flags3 ^= 0x01
 18: 0x02EE [0x94] Echion (ID: 17293844/0x0107E214)->Render.Flags3 ^= 0x01
 19: 0x02F4 [0x94] LocalPlayer->Render.Flags3 ^= 0x01
 20: 0x02FA [0xBA] SET_ENTITY_POSITION(entity_id=Gloom Phantom (ID: 17293841/0x0107E211), pos_x=-226.985*, pos_z=307.227*, pos_y=-19.978*, direction=174.9°*)
 21: 0x0307 [0xBA] SET_ENTITY_POSITION(entity_id=Magh Bihu (ID: 17293842/0x0107E212), pos_x=-227.664*, pos_z=308.151*, pos_y=-19.970*, direction=101.9°*)
 22: 0x0314 [0xBA] SET_ENTITY_POSITION(entity_id=Dazbog (ID: 17293843/0x0107E213), pos_x=-226.582*, pos_z=306.040*, pos_y=-19.880*, direction=100.9°*)
 23: 0x0321 [0xBA] SET_ENTITY_POSITION(entity_id=Echion (ID: 17293844/0x0107E214), pos_x=-232.706*, pos_z=303.291*, pos_y=-19.467*, direction=174.9°*)
 24: 0x032E [0xBA] SET_ENTITY_POSITION(entity_id=LocalPlayer, pos_x=-224.409*, pos_z=319.428*, pos_y=-19.244*, direction=177.3°*)
 25: 0x033B [0x80] LOAD_WAIT(entity=Gloom Phantom (ID: 17293841/0x0107E211))
 26: 0x0340 [0x80] LOAD_WAIT(entity=Magh Bihu (ID: 17293842/0x0107E212))
 27: 0x0345 [0x80] LOAD_WAIT(entity=Dazbog (ID: 17293843/0x0107E213))
 28: 0x034A [0x80] LOAD_WAIT(entity=Echion (ID: 17293844/0x0107E214))
 29: 0x034F [0x80] LOAD_WAIT(entity=LocalPlayer)
 30: 0x0354 [0x69] SET_SOUND_VOLUME: Mute Effects/Zone/Master/SpecialChat
 31: 0x0358 [0x69] SET_SOUND_VOLUME: Mute System/Zone/Master/SpecialChat
 32: 0x035C [0x29] REQ_SET_WAIT(priority=0x0F, entity_id=Echion (ID: 17293844/0x0107E214), tag_num=0x34)
 33: 0x0363 [0x29] REQ_SET_WAIT(priority=0x0F, entity_id=LocalPlayer, tag_num=0x23)
 34: 0x036A [0x29] REQ_SET_WAIT(priority=0x0F, entity_id=Gloom Phantom (ID: 17293841/0x0107E211), tag_num=0x4C)
 35: 0x0371 [0x29] REQ_SET_WAIT(priority=0x0F, entity_id=Dazbog (ID: 17293843/0x0107E213), tag_num=0x11)
 36: 0x0378 [0x29] REQ_SET_WAIT(priority=0x0F, entity_id=Magh Bihu (ID: 17293842/0x0107E212), tag_num=0x14)
 37: 0x037F [0x29] REQ_SET_WAIT(priority=0x0F, entity_id=Unnamed NPC (ID: 17293845/0x0107E215), tag_num=0x02)
 38: 0x0386 [0x2C] CREATE_SCHEDULER_TASK: Create scheduler "wpof" with entities [Gloom Phantom (ID: 17293841/0x0107E211), Gloom Phantom (ID: 17293841/0x0107E211)]
 39: 0x0393 [0x2C] CREATE_SCHEDULER_TASK: Create scheduler "wpof" with entities [Echion (ID: 17293844/0x0107E214), Echion (ID: 17293844/0x0107E214)]
 40: 0x03A0 [0x4A] Gloom Phantom (ID: 17293841/0x0107E211) looks at Echion (ID: 17293844/0x0107E214)
 41: 0x03A9 [0x4A] Magh Bihu (ID: 17293842/0x0107E212) looks at Echion (ID: 17293844/0x0107E214)
 42: 0x03B2 [0x4A] Dazbog (ID: 17293843/0x0107E213) looks at Echion (ID: 17293844/0x0107E214)
 43: 0x03BB [0x4A] Echion (ID: 17293844/0x0107E214) looks at Gloom Phantom (ID: 17293841/0x0107E211)
 44: 0x03C4 [0x6F] WAIT_FRAME_DELAY: Yield until WaitTime reaches zero
 45: 0x03C5 [0x76] CHECK_ENTITY_RENDER_FLAGS: Wait until Gloom Phantom (ID: 17293841/0x0107E211) Render.Flags0 and Render.Flags3 conditions are met
 46: 0x03CA [0x6F] WAIT_FRAME_DELAY: Yield until WaitTime reaches zero
 47: 0x03CB [0x76] CHECK_ENTITY_RENDER_FLAGS: Wait until Magh Bihu (ID: 17293842/0x0107E212) Render.Flags0 and Render.Flags3 conditions are met
 48: 0x03D0 [0x6F] WAIT_FRAME_DELAY: Yield until WaitTime reaches zero
 49: 0x03D1 [0x76] CHECK_ENTITY_RENDER_FLAGS: Wait until Dazbog (ID: 17293843/0x0107E213) Render.Flags0 and Render.Flags3 conditions are met
 50: 0x03D6 [0x6F] WAIT_FRAME_DELAY: Yield until WaitTime reaches zero
 51: 0x03D7 [0x76] CHECK_ENTITY_RENDER_FLAGS: Wait until Echion (ID: 17293844/0x0107E214) Render.Flags0 and Render.Flags3 conditions are met
 52: 0x03DC [0x29] REQ_SET_WAIT(priority=0x08, entity_id=LocalPlayer, tag_num=0x38)
 53: 0x03E3 [0xD9] SET_SOUND_EFFECT_LIMIT_FLAG(flag_value=0x00)
 54: 0x03E5 [0x5C] MUSIC_CONTROL: Set Idle (Day) music to song 28*
 55: 0x03E9 [0x5C] MUSIC_CONTROL: Set Idle (Night) music to song 28*
 56: 0x03ED [0x9A] WAIT_MUSIC_SERVER()
 57: 0x03EE [0x5D] SET_MUSIC_VOLUME(volume=127*, fade_time=1*)
 58: 0x03F3 [0x29] REQ_SET_WAIT(priority=0x0F, entity_id=Gloom Phantom (ID: 17293841/0x0107E211), tag_num=0x2D)
 59: 0x03FA [0x29] REQ_SET_WAIT(priority=0x0F, entity_id=Gloom Phantom (ID: 17293841/0x0107E211), tag_num=0x2E)
 60: 0x0401 [0x69] SET_SOUND_VOLUME: Unmute Effects/Zone/Master/SpecialChat
 61: 0x0405 [0x45] LOAD_SCHEDULED_TASK: Load scheduler "s034" with entities [EventEntity, EventEntity], work=[896*, 0*]
 62: 0x0416 [0x1A] CALL_SUBROUTINE(address=0x0043)
 63: 0x0419 [0x4A] LocalPlayer looks at Gloom Phantom (ID: 17293841/0x0107E211)
 64: 0x0422 [0x6F] WAIT_FRAME_DELAY: Yield until WaitTime reaches zero
 65: 0x0423 [0x76] CHECK_ENTITY_RENDER_FLAGS: Wait until LocalPlayer Render.Flags0 and Render.Flags3 conditions are met
 66: 0x0428 [0x1C] WAIT(90* ticks)
 67: 0x042B [0x52] END_LOAD_SCHEDULER: End scheduler "s034" with entities [EventEntity, EventEntity], work=896*
 68: 0x043A [0x45] LOAD_SCHEDULED_TASK: Load scheduler "s035" with entities [EventEntity, EventEntity], work=[896*, 0*]
 69: 0x044B [0x29] REQ_SET_WAIT(priority=0x0F, entity_id=Echion (ID: 17293844/0x0107E214), tag_num=0x0D)
 70: 0x0452 [0x2B] Echion (ID: 17293844/0x0107E214) [12737*]:
    → "Guguoggha! Geh, gaggho!"
 71: 0x0459 [0x23] WAIT_FOR_DIALOG_INTERACTION
 72: 0x045A [0x29] REQ_SET_WAIT(priority=0x0F, entity_id=Echion (ID: 17293844/0x0107E214), tag_num=0x0E)
 73: 0x0461 [0x52] END_LOAD_SCHEDULER: End scheduler "s035" with entities [EventEntity, EventEntity], work=896*
 74: 0x0470 [0x45] LOAD_SCHEDULED_TASK: Load scheduler "s036" with entities [EventEntity, EventEntity], work=[896*, 0*]
 75: 0x0481 [0x27] REQ_SET(priority=0x0F, entity_id=Magh Bihu (ID: 17293842/0x0107E212), tag_num=0x16)
 76: 0x0488 [0x2B] Magh Bihu (ID: 17293842/0x0107E212) [12738*]:
    → "Ugoh! Ugaggo, gaggago!"
 77: 0x048F [0x23] WAIT_FOR_DIALOG_INTERACTION
 78: 0x0490 [0x2A] GET_REQ_LEVEL(level=15, entity_id=Magh Bihu (ID: 17293842/0x0107E212))
 79: 0x0496 [0x27] REQ_SET(priority=0x0F, entity_id=Dazbog (ID: 17293843/0x0107E213), tag_num=0x13)
 80: 0x049D [0x2B] Dazbog (ID: 17293843/0x0107E213) [12739*]:
    → "Guh, ugogo, ugoggu! Gagugga, ugah?"
 81: 0x04A4 [0x23] WAIT_FOR_DIALOG_INTERACTION
 82: 0x04A5 [0x2A] GET_REQ_LEVEL(level=15, entity_id=Dazbog (ID: 17293843/0x0107E213))
 83: 0x04AB [0x52] END_LOAD_SCHEDULER: End scheduler "s036" with entities [EventEntity, EventEntity], work=896*
 84: 0x04BA [0x45] LOAD_SCHEDULED_TASK: Load scheduler "s037" with entities [EventEntity, EventEntity], work=[896*, 0*]
 85: 0x04CB [0x29] REQ_SET_WAIT(priority=0x0F, entity_id=Gloom Phantom (ID: 17293841/0x0107E211), tag_num=0x2F)
 86: 0x04D2 [0xBA] SET_ENTITY_POSITION(entity_id=LocalPlayer, pos_x=-225.711*, pos_z=313.769*, pos_y=-19.493*, direction=100.2°*)
 87: 0x04DF [0x29] REQ_SET_WAIT(priority=0x0F, entity_id=Echion (ID: 17293844/0x0107E214), tag_num=0x0B)
 88: 0x04E6 [0x2B] Echion (ID: 17293844/0x0107E214) [12740*]:
    → "Gugoho! Ugagegga, gugugu!"
 89: 0x04ED [0x23] WAIT_FOR_DIALOG_INTERACTION
 90: 0x04EE [0x29] REQ_SET_WAIT(priority=0x0F, entity_id=Echion (ID: 17293844/0x0107E214), tag_num=0x0C)
 91: 0x04F5 [0x29] REQ_SET_WAIT(priority=0x0F, entity_id=Gloom Phantom (ID: 17293841/0x0107E211), tag_num=0x30)
 92: 0x04FC [0x52] END_LOAD_SCHEDULER: End scheduler "s037" with entities [EventEntity, EventEntity], work=896*
 93: 0x050B [0x45] LOAD_SCHEDULED_TASK: Load scheduler "s038" with entities [EventEntity, EventEntity], work=[896*, 0*]
 94: 0x051C [0x29] REQ_SET_WAIT(priority=0x0F, entity_id=Gloom Phantom (ID: 17293841/0x0107E211), tag_num=0x17)
 95: 0x0523 [0x45] LOAD_SCHEDULED_TASK: Load scheduler "1009" with entities [EventEntity, EventEntity], work=[896*, 0*]
 96: 0x0534 [0x2B] Gloom Phantom (ID: 17293841/0x0107E211) [12741*]:
    → "Ugh! Are you even listening to us!?"
 97: 0x053B [0x23] WAIT_FOR_DIALOG_INTERACTION
 98: 0x053C [0x79] LocalPlayer looks at Dazbog (ID: 17293843/0x0107E213) (Basic look)
 99: 0x0546 [0x27] REQ_SET(priority=0x0F, entity_id=LocalPlayer, tag_num=0x39)
100: 0x054D [0x1C] WAIT(5* ticks)
101: 0x0550 [0x29] REQ_SET_WAIT(priority=0x0F, entity_id=Gloom Phantom (ID: 17293841/0x0107E211), tag_num=0x18)
102: 0x0557 [0x52] END_LOAD_SCHEDULER: End scheduler "s038" with entities [EventEntity, EventEntity], work=896*
103: 0x0566 [0x45] LOAD_SCHEDULED_TASK: Load scheduler "s039" with entities [EventEntity, EventEntity], work=[896*, 0*]
104: 0x0577 [0x4A] Dazbog (ID: 17293843/0x0107E213) looks at LocalPlayer
105: 0x0580 [0x6F] WAIT_FRAME_DELAY: Yield until WaitTime reaches zero
106: 0x0581 [0x76] CHECK_ENTITY_RENDER_FLAGS: Wait until Dazbog (ID: 17293843/0x0107E213) Render.Flags0 and Render.Flags3 conditions are met
107: 0x0586 [0x1C] WAIT(30* ticks)
108: 0x0589 [0x2B] Dazbog (ID: 17293843/0x0107E213) [12742*]:
    → "Ah, it's the m-mighty <Player>..."
109: 0x0590 [0x1C] WAIT(30* ticks)
110: 0x0593 [0x29] REQ_SET_WAIT(priority=0x0F, entity_id=Gloom Phantom (ID: 17293841/0x0107E211), tag_num=0x19)
111: 0x059A [0x29] REQ_SET_WAIT(priority=0x0F, entity_id=Gloom Phantom (ID: 17293841/0x0107E211), tag_num=0x1A)
112: 0x05A1 [0x4A] Gloom Phantom (ID: 17293841/0x0107E211) looks at LocalPlayer
113: 0x05AA [0x6F] WAIT_FRAME_DELAY: Yield until WaitTime reaches zero
114: 0x05AB [0x76] CHECK_ENTITY_RENDER_FLAGS: Wait until Gloom Phantom (ID: 17293841/0x0107E211) Render.Flags0 and Render.Flags3 conditions are met
115: 0x05B0 [0x23] WAIT_FOR_DIALOG_INTERACTION
116: 0x05B1 [0x52] END_LOAD_SCHEDULER: End scheduler "s039" with entities [EventEntity, EventEntity], work=896*
117: 0x05C0 [0x02] IF !(Work_Zone[9] == 5*) GOTO 0x05DC
118: 0x05C8 [0x45] LOAD_SCHEDULED_TASK: Load scheduler "s059" with entities [EventEntity, EventEntity], work=[896*, 0*]
119: 0x05D9 [0x01] GOTO 0x0609
120: 0x05DC [0x02] IF !(Work_Zone[9] == 6*) GOTO 0x05F8
121: 0x05E4 [0x45] LOAD_SCHEDULED_TASK: Load scheduler "s059" with entities [EventEntity, EventEntity], work=[896*, 0*]
122: 0x05F5 [0x01] GOTO 0x0609
123: 0x05F8 [0x45] LOAD_SCHEDULED_TASK: Load scheduler "s040" with entities [EventEntity, EventEntity], work=[896*, 0*]

SUBROUTINE_0609:
124: 0x0609 [0x29] REQ_SET_WAIT(priority=0x0F, entity_id=Gloom Phantom (ID: 17293841/0x0107E211), tag_num=0x31)
125: 0x0610 [0x2B] Gloom Phantom (ID: 17293841/0x0107E211) [12743*]:
    → "It's about time you showed up!"
126: 0x0617 [0x23] WAIT_FOR_DIALOG_INTERACTION
127: 0x0618 [0x29] REQ_SET_WAIT(priority=0x0F, entity_id=Gloom Phantom (ID: 17293841/0x0107E211), tag_num=0x32)
128: 0x061F [0x2A] GET_REQ_LEVEL(level=15, entity_id=LocalPlayer)
129: 0x0625 [0x29] REQ_SET_WAIT(priority=0x0F, entity_id=Gloom Phantom (ID: 17293841/0x0107E211), tag_num=0x33)
130: 0x062C [0x45] LOAD_SCHEDULED_TASK: Load scheduler "1014" with entities [EventEntity, EventEntity], work=[896*, 0*]
131: 0x063D [0x2B] Gloom Phantom (ID: 17293841/0x0107E211) [12744*]:
    → "This Gigas kid has no idea what we're talking about!"
132: 0x0644 [0x23] WAIT_FOR_DIALOG_INTERACTION
133: 0x0645 [0x02] IF !(Work_Zone[9] == 5*) GOTO 0x065F
134: 0x064D [0x52] END_LOAD_SCHEDULER: End scheduler "s059" with entities [EventEntity, EventEntity], work=896*
135: 0x065C [0x01] GOTO 0x0688
136: 0x065F [0x02] IF !(Work_Zone[9] == 6*) GOTO 0x0679
137: 0x0667 [0x52] END_LOAD_SCHEDULER: End scheduler "s059" with entities [EventEntity, EventEntity], work=896*
138: 0x0676 [0x01] GOTO 0x0688
139: 0x0679 [0x52] END_LOAD_SCHEDULER: End scheduler "s040" with entities [EventEntity, EventEntity], work=896*

SUBROUTINE_0688:
140: 0x0688 [0x45] LOAD_SCHEDULED_TASK: Load scheduler "s041" with entities [EventEntity, EventEntity], work=[896*, 0*]
141: 0x0699 [0x2B] Gloom Phantom (ID: 17293841/0x0107E211) [12745*]:
    → "We asked him about the monster that had the "World Eater Egg" at Delkfutt's Tower, but he doesn't believe us!"
142: 0x06A0 [0x23] WAIT_FOR_DIALOG_INTERACTION
143: 0x06A1 [0x2B] Gloom Phantom (ID: 17293841/0x0107E211) [12746*]:
    → "He says it's none of our business!"
144: 0x06A8 [0x23] WAIT_FOR_DIALOG_INTERACTION
145: 0x06A9 [0x29] REQ_SET_WAIT(priority=0x0F, entity_id=Gloom Phantom (ID: 17293841/0x0107E211), tag_num=0x34)
146: 0x06B0 [0x27] REQ_SET(priority=0x0F, entity_id=Magh Bihu (ID: 17293842/0x0107E212), tag_num=0x17)
147: 0x06B7 [0x1C] WAIT(5* ticks)
148: 0x06BA [0x52] END_LOAD_SCHEDULER: End scheduler "s041" with entities [EventEntity, EventEntity], work=896*
149: 0x06C9 [0x45] LOAD_SCHEDULED_TASK: Load scheduler "s042" with entities [EventEntity, EventEntity], work=[896*, 0*]
150: 0x06DA [0x6B] STOP_AND_IDLE: Gloom Phantom (ID: 17293841/0x0107E211) stops current action and resets to idle (animation="idl0")
151: 0x06E3 [0x2A] GET_REQ_LEVEL(level=15, entity_id=Magh Bihu (ID: 17293842/0x0107E212))
152: 0x06E9 [0x79] LocalPlayer looks at Magh Bihu (ID: 17293842/0x0107E212) (Basic look)
153: 0x06F3 [0x2B] Magh Bihu (ID: 17293842/0x0107E212) [12747*]:
    → "Well, apparently there was a purple dragon with a strange marking?"
154: 0x06FA [0x1C] WAIT(30* ticks)
155: 0x06FD [0x4A] Gloom Phantom (ID: 17293841/0x0107E211) looks at Magh Bihu (ID: 17293842/0x0107E212)
156: 0x0706 [0x6F] WAIT_FRAME_DELAY: Yield until WaitTime reaches zero
157: 0x0707 [0x76] CHECK_ENTITY_RENDER_FLAGS: Wait until Gloom Phantom (ID: 17293841/0x0107E211) Render.Flags0 and Render.Flags3 conditions are met
158: 0x070C [0x23] WAIT_FOR_DIALOG_INTERACTION
159: 0x070D [0x4A] Dazbog (ID: 17293843/0x0107E213) looks at Magh Bihu (ID: 17293842/0x0107E212)
160: 0x0716 [0x6F] WAIT_FRAME_DELAY: Yield until WaitTime reaches zero
161: 0x0717 [0x76] CHECK_ENTITY_RENDER_FLAGS: Wait until Dazbog (ID: 17293843/0x0107E213) Render.Flags0 and Render.Flags3 conditions are met
162: 0x071C [0x52] END_LOAD_SCHEDULER: End scheduler "s042" with entities [EventEntity, EventEntity], work=896*
163: 0x072B [0x45] LOAD_SCHEDULED_TASK: Load scheduler "s043" with entities [EventEntity, EventEntity], work=[896*, 0*]
164: 0x073C [0x29] REQ_SET_WAIT(priority=0x0F, entity_id=Gloom Phantom (ID: 17293841/0x0107E211), tag_num=0x25)
165: 0x0743 [0x2B] Gloom Phantom (ID: 17293841/0x0107E211) [12748*]:
    → "Hmm? A strange marking? And a purple dragon?"
166: 0x074A [0x23] WAIT_FOR_DIALOG_INTERACTION
167: 0x074B [0x29] REQ_SET_WAIT(priority=0x0F, entity_id=Gloom Phantom (ID: 17293841/0x0107E211), tag_num=0x26)
168: 0x0752 [0x29] REQ_SET_WAIT(priority=0x0F, entity_id=Gloom Phantom (ID: 17293841/0x0107E211), tag_num=0x27)
169: 0x0759 [0x29] REQ_SET_WAIT(priority=0x0F, entity_id=Magh Bihu (ID: 17293842/0x0107E212), tag_num=0x05)
170: 0x0760 [0x2B] Magh Bihu (ID: 17293842/0x0107E212) [12749*]:
    → "The one who brought the egg to the Quadav also had a strange marking, I think."
171: 0x0767 [0x1C] WAIT(20* ticks)
172: 0x076A [0x45] LOAD_SCHEDULED_TASK: Load scheduler "0011" with entities [EventEntity, EventEntity], work=[896*, 0*]
173: 0x077B [0x23] WAIT_FOR_DIALOG_INTERACTION
174: 0x077C [0x29] REQ_SET_WAIT(priority=0x0F, entity_id=Gloom Phantom (ID: 17293841/0x0107E211), tag_num=0x28)
175: 0x0783 [0x1C] WAIT(5* ticks)
176: 0x0786 [0x4A] Dazbog (ID: 17293843/0x0107E213) looks at Gloom Phantom (ID: 17293841/0x0107E211)
177: 0x078F [0x6F] WAIT_FRAME_DELAY: Yield until WaitTime reaches zero
178: 0x0790 [0x76] CHECK_ENTITY_RENDER_FLAGS: Wait until Dazbog (ID: 17293843/0x0107E213) Render.Flags0 and Render.Flags3 conditions are met
179: 0x0795 [0x52] END_LOAD_SCHEDULER: End scheduler "s043" with entities [EventEntity, EventEntity], work=896*
180: 0x07A4 [0x45] LOAD_SCHEDULED_TASK: Load scheduler "s044" with entities [EventEntity, EventEntity], work=[896*, 0*]
181: 0x07B5 [0x79] LocalPlayer looks at Dazbog (ID: 17293843/0x0107E213) (Basic look)
182: 0x07BF [0x29] REQ_SET_WAIT(priority=0x0F, entity_id=Dazbog (ID: 17293843/0x0107E213), tag_num=0x0A)
183: 0x07C6 [0x2B] Dazbog (ID: 17293843/0x0107E213) [12750*]:
    → "A-actually, that was someone who was r-resurrected in Valhalla, right?"
184: 0x07CD [0x4A] Gloom Phantom (ID: 17293841/0x0107E211) looks at Dazbog (ID: 17293843/0x0107E213)
185: 0x07D6 [0x6F] WAIT_FRAME_DELAY: Yield until WaitTime reaches zero
186: 0x07D7 [0x76] CHECK_ENTITY_RENDER_FLAGS: Wait until Gloom Phantom (ID: 17293841/0x0107E211) Render.Flags0 and Render.Flags3 conditions are met
187: 0x07DC [0x23] WAIT_FOR_DIALOG_INTERACTION
188: 0x07DD [0x29] REQ_SET_WAIT(priority=0x0F, entity_id=Dazbog (ID: 17293843/0x0107E213), tag_num=0x0B)
189: 0x07E4 [0x79] LocalPlayer looks at Gloom Phantom (ID: 17293841/0x0107E211) (Basic look)
190: 0x07EE [0x29] REQ_SET_WAIT(priority=0x0F, entity_id=Gloom Phantom (ID: 17293841/0x0107E211), tag_num=0x1B)
191: 0x07F5 [0x45] LOAD_SCHEDULED_TASK: Load scheduler "1001" with entities [EventEntity, EventEntity], work=[896*, 0*]
192: 0x0806 [0x2B] Gloom Phantom (ID: 17293841/0x0107E211) [12751*]:
    → "Urk! What is that undead up to..."
193: 0x080D [0x23] WAIT_FOR_DIALOG_INTERACTION
194: 0x080E [0x29] REQ_SET_WAIT(priority=0x0F, entity_id=Gloom Phantom (ID: 17293841/0x0107E211), tag_num=0x1C)
195: 0x0815 [0x52] END_LOAD_SCHEDULER: End scheduler "s044" with entities [EventEntity, EventEntity], work=896*
196: 0x0824 [0x45] LOAD_SCHEDULED_TASK: Load scheduler "s046" with entities [EventEntity, EventEntity], work=[896*, 0*]
197: 0x0835 [0x29] REQ_SET_WAIT(priority=0x0F, entity_id=Gloom Phantom (ID: 17293841/0x0107E211), tag_num=0x1D)
198: 0x083C [0x2B] Dazbog (ID: 17293843/0x0107E213) [12752*]:
    → "D-do you think it's trying to hide the egg again until it h-hatches?"
199: 0x0843 [0x23] WAIT_FOR_DIALOG_INTERACTION
200: 0x0844 [0x29] REQ_SET_WAIT(priority=0x0F, entity_id=Gloom Phantom (ID: 17293841/0x0107E211), tag_num=0x1E)
201: 0x084B [0x29] REQ_SET_WAIT(priority=0x0F, entity_id=Magh Bihu (ID: 17293842/0x0107E212), tag_num=0x06)
202: 0x0852 [0x29] REQ_SET_WAIT(priority=0x0F, entity_id=Magh Bihu (ID: 17293842/0x0107E212), tag_num=0x07)
203: 0x0859 [0x2C] CREATE_SCHEDULER_TASK: Create scheduler "wpof" with entities [Echion (ID: 17293844/0x0107E214), Echion (ID: 17293844/0x0107E214)]
204: 0x0866 [0x29] REQ_SET_WAIT(priority=0x0F, entity_id=Gloom Phantom (ID: 17293841/0x0107E211), tag_num=0x2D)
205: 0x086D [0x2B] Gloom Phantom (ID: 17293841/0x0107E211) [12753*]:
    → "Uran-Mafran's master...what was his name again? I'm sure that mage is involved somehow!"
206: 0x0874 [0x23] WAIT_FOR_DIALOG_INTERACTION
207: 0x0875 [0x29] REQ_SET_WAIT(priority=0x0F, entity_id=Gloom Phantom (ID: 17293841/0x0107E211), tag_num=0x2E)
208: 0x087C [0x29] REQ_SET_WAIT(priority=0x0F, entity_id=Magh Bihu (ID: 17293842/0x0107E212), tag_num=0x08)
209: 0x0883 [0x52] END_LOAD_SCHEDULER: End scheduler "s046" with entities [EventEntity, EventEntity], work=896*
210: 0x0892 [0x02] IF !(Work_Zone[9] == 5*) GOTO 0x08AE
211: 0x089A [0x45] LOAD_SCHEDULED_TASK: Load scheduler "s060" with entities [EventEntity, EventEntity], work=[896*, 0*]
212: 0x08AB [0x01] GOTO 0x08DB
213: 0x08AE [0x02] IF !(Work_Zone[9] == 6*) GOTO 0x08CA
214: 0x08B6 [0x45] LOAD_SCHEDULED_TASK: Load scheduler "s060" with entities [EventEntity, EventEntity], work=[896*, 0*]
215: 0x08C7 [0x01] GOTO 0x08DB
216: 0x08CA [0x45] LOAD_SCHEDULED_TASK: Load scheduler "s047" with entities [EventEntity, EventEntity], work=[896*, 0*]

SUBROUTINE_08DB:
217: 0x08DB [0x79] LocalPlayer looks at Dazbog (ID: 17293843/0x0107E213) (Basic look)
218: 0x08E5 [0x29] REQ_SET_WAIT(priority=0x0F, entity_id=Gloom Phantom (ID: 17293841/0x0107E211), tag_num=0x2F)
219: 0x08EC [0x2B] Dazbog (ID: 17293843/0x0107E213) [12754*]:
    → "Y-yeah, his master's n-name was Garazu-Horeizu... R-right?"
220: 0x08F3 [0x1C] WAIT(30* ticks)
221: 0x08F6 [0x4A] Dazbog (ID: 17293843/0x0107E213) looks at LocalPlayer
222: 0x08FF [0x6F] WAIT_FRAME_DELAY: Yield until WaitTime reaches zero
223: 0x0900 [0x76] CHECK_ENTITY_RENDER_FLAGS: Wait until Dazbog (ID: 17293843/0x0107E213) Render.Flags0 and Render.Flags3 conditions are met
224: 0x0905 [0x4A] Gloom Phantom (ID: 17293841/0x0107E211) looks at LocalPlayer
225: 0x090E [0x4A] Magh Bihu (ID: 17293842/0x0107E212) looks at LocalPlayer
226: 0x0917 [0x6F] WAIT_FRAME_DELAY: Yield until WaitTime reaches zero
227: 0x0918 [0x76] CHECK_ENTITY_RENDER_FLAGS: Wait until Gloom Phantom (ID: 17293841/0x0107E211) Render.Flags0 and Render.Flags3 conditions are met
228: 0x091D [0x6F] WAIT_FRAME_DELAY: Yield until WaitTime reaches zero
229: 0x091E [0x76] CHECK_ENTITY_RENDER_FLAGS: Wait until Magh Bihu (ID: 17293842/0x0107E212) Render.Flags0 and Render.Flags3 conditions are met
230: 0x0923 [0x23] WAIT_FOR_DIALOG_INTERACTION
231: 0x0924 [0x29] REQ_SET_WAIT(priority=0x0F, entity_id=Gloom Phantom (ID: 17293841/0x0107E211), tag_num=0x30)
232: 0x092B [0x24] CREATE_DIALOG(message_id=12755*, default_option=0*, option_flags=0*)
    → "Is Garazu-Horeizu involved? [Yes, indeed./No, I don't think so.]"
233: 0x0932 [0x25] WAIT_DIALOG_SELECT()
234: 0x0933 [0x02] IF !(Work_Zone[0] == 0*) GOTO 0x0AC0
235: 0x093B [0x6E] LocalPlayer uses emote 7*
236: 0x0942 [0x99] Wait for LocalPlayer animation to complete
237: 0x0947 [0x1C] WAIT(20* ticks)
238: 0x094A [0x29] REQ_SET_WAIT(priority=0x0F, entity_id=Gloom Phantom (ID: 17293841/0x0107E211), tag_num=0x1F)
239: 0x0951 [0x45] LOAD_SCHEDULED_TASK: Load scheduler "1001" with entities [EventEntity, EventEntity], work=[896*, 0*]
240: 0x0962 [0x1C] WAIT(90* ticks)
241: 0x0965 [0x02] IF !(Work_Zone[9] == 5*) GOTO 0x097F
242: 0x096D [0x52] END_LOAD_SCHEDULER: End scheduler "s060" with entities [EventEntity, EventEntity], work=896*
243: 0x097C [0x01] GOTO 0x09A8
244: 0x097F [0x02] IF !(Work_Zone[9] == 6*) GOTO 0x0999
245: 0x0987 [0x52] END_LOAD_SCHEDULER: End scheduler "s060" with entities [EventEntity, EventEntity], work=896*
246: 0x0996 [0x01] GOTO 0x09A8
247: 0x0999 [0x52] END_LOAD_SCHEDULER: End scheduler "s047" with entities [EventEntity, EventEntity], work=896*

SUBROUTINE_09A8:
248: 0x09A8 [0x02] IF !(Work_Zone[9] == 3*) GOTO 0x09C4
249: 0x09B0 [0x45] LOAD_SCHEDULED_TASK: Load scheduler "s049" with entities [EventEntity, EventEntity], work=[896*, 0*]
250: 0x09C1 [0x01] GOTO 0x0A29
251: 0x09C4 [0x02] IF !(Work_Zone[9] == 5*) GOTO 0x09E0
252: 0x09CC [0x45] LOAD_SCHEDULED_TASK: Load scheduler "s061" with entities [EventEntity, EventEntity], work=[896*, 0*]
253: 0x09DD [0x01] GOTO 0x0A29
254: 0x09E0 [0x02] IF !(Work_Zone[9] == 6*) GOTO 0x09FC
255: 0x09E8 [0x45] LOAD_SCHEDULED_TASK: Load scheduler "s061" with entities [EventEntity, EventEntity], work=[896*, 0*]
256: 0x09F9 [0x01] GOTO 0x0A29
257: 0x09FC [0x02] IF !(Work_Zone[9] == 8*) GOTO 0x0A18
258: 0x0A04 [0x45] LOAD_SCHEDULED_TASK: Load scheduler "s049" with entities [EventEntity, EventEntity], work=[896*, 0*]
259: 0x0A15 [0x01] GOTO 0x0A29
260: 0x0A18 [0x45] LOAD_SCHEDULED_TASK: Load scheduler "s062" with entities [EventEntity, EventEntity], work=[896*, 0*]

SUBROUTINE_0A29:
261: 0x0A29 [0x2B] Gloom Phantom (ID: 17293841/0x0107E211) [12758*]:
    → "That's right! This is just getting worse by the moment!"
262: 0x0A30 [0x29] REQ_SET_WAIT(priority=0x0F, entity_id=Gloom Phantom (ID: 17293841/0x0107E211), tag_num=0x20)
263: 0x0A37 [0x29] REQ_SET_WAIT(priority=0x0F, entity_id=Gloom Phantom (ID: 17293841/0x0107E211), tag_num=0x21)
264: 0x0A3E [0x23] WAIT_FOR_DIALOG_INTERACTION
265: 0x0A3F [0x29] REQ_SET_WAIT(priority=0x0F, entity_id=Gloom Phantom (ID: 17293841/0x0107E211), tag_num=0x22)
266: 0x0A46 [0x02] IF !(Work_Zone[9] == 3*) GOTO 0x0A60
267: 0x0A4E [0x52] END_LOAD_SCHEDULER: End scheduler "s049" with entities [EventEntity, EventEntity], work=896*
268: 0x0A5D [0x01] GOTO 0x0ABD
269: 0x0A60 [0x02] IF !(Work_Zone[9] == 5*) GOTO 0x0A7A
270: 0x0A68 [0x52] END_LOAD_SCHEDULER: End scheduler "s061" with entities [EventEntity, EventEntity], work=896*
271: 0x0A77 [0x01] GOTO 0x0ABD
272: 0x0A7A [0x02] IF !(Work_Zone[9] == 6*) GOTO 0x0A94
273: 0x0A82 [0x52] END_LOAD_SCHEDULER: End scheduler "s061" with entities [EventEntity, EventEntity], work=896*
274: 0x0A91 [0x01] GOTO 0x0ABD
275: 0x0A94 [0x02] IF !(Work_Zone[9] == 8*) GOTO 0x0AAE
276: 0x0A9C [0x52] END_LOAD_SCHEDULER: End scheduler "s049" with entities [EventEntity, EventEntity], work=896*
277: 0x0AAB [0x01] GOTO 0x0ABD
278: 0x0AAE [0x52] END_LOAD_SCHEDULER: End scheduler "s062" with entities [EventEntity, EventEntity], work=896*

SUBROUTINE_0ABD:
279: 0x0ABD [0x01] GOTO 0x0C98
280: 0x0AC0 [0x02] IF !(Work_Zone[0] == 1*) GOTO 0x0C98
281: 0x0AC8 [0x6E] LocalPlayer uses emote 6*
282: 0x0ACF [0x99] Wait for LocalPlayer animation to complete
283: 0x0AD4 [0x1C] WAIT(30* ticks)
284: 0x0AD7 [0x29] REQ_SET_WAIT(priority=0x0F, entity_id=Dazbog (ID: 17293843/0x0107E213), tag_num=0x0A)
285: 0x0ADE [0x1C] WAIT(80* ticks)
286: 0x0AE1 [0x02] IF !(Work_Zone[9] == 5*) GOTO 0x0AFB
287: 0x0AE9 [0x52] END_LOAD_SCHEDULER: End scheduler "s060" with entities [EventEntity, EventEntity], work=896*
288: 0x0AF8 [0x01] GOTO 0x0B24
289: 0x0AFB [0x02] IF !(Work_Zone[9] == 6*) GOTO 0x0B15
290: 0x0B03 [0x52] END_LOAD_SCHEDULER: End scheduler "s060" with entities [EventEntity, EventEntity], work=896*
291: 0x0B12 [0x01] GOTO 0x0B24
292: 0x0B15 [0x52] END_LOAD_SCHEDULER: End scheduler "s047" with entities [EventEntity, EventEntity], work=896*

SUBROUTINE_0B24:
293: 0x0B24 [0x45] LOAD_SCHEDULED_TASK: Load scheduler "s045" with entities [EventEntity, EventEntity], work=[896*, 0*]
294: 0x0B35 [0x4A] Gloom Phantom (ID: 17293841/0x0107E211) looks at Dazbog (ID: 17293843/0x0107E213)
295: 0x0B3E [0x4A] Magh Bihu (ID: 17293842/0x0107E212) looks at Dazbog (ID: 17293843/0x0107E213)
296: 0x0B47 [0x2B] Dazbog (ID: 17293843/0x0107E213) [12756*]:
    → "U-Uran-Mafran said his master was in Valhalla and that he was trying to b-bring him back to life."
297: 0x0B4E [0x23] WAIT_FOR_DIALOG_INTERACTION
298: 0x0B4F [0x6F] WAIT_FRAME_DELAY: Yield until WaitTime reaches zero
299: 0x0B50 [0x76] CHECK_ENTITY_RENDER_FLAGS: Wait until Gloom Phantom (ID: 17293841/0x0107E211) Render.Flags0 and Render.Flags3 conditions are met
300: 0x0B55 [0x29] REQ_SET_WAIT(priority=0x0F, entity_id=Gloom Phantom (ID: 17293841/0x0107E211), tag_num=0x2D)
301: 0x0B5C [0x2B] Dazbog (ID: 17293843/0x0107E213) [12757*]:
    → "The wandering about, the m-marking... Th-there was something about hypnosis magic too."
302: 0x0B63 [0x23] WAIT_FOR_DIALOG_INTERACTION
303: 0x0B64 [0x6F] WAIT_FRAME_DELAY: Yield until WaitTime reaches zero
304: 0x0B65 [0x76] CHECK_ENTITY_RENDER_FLAGS: Wait until Magh Bihu (ID: 17293842/0x0107E212) Render.Flags0 and Render.Flags3 conditions are met
305: 0x0B6A [0x29] REQ_SET_WAIT(priority=0x0F, entity_id=Dazbog (ID: 17293843/0x0107E213), tag_num=0x0B)
306: 0x0B71 [0x52] END_LOAD_SCHEDULER: End scheduler "s045" with entities [EventEntity, EventEntity], work=896*
307: 0x0B80 [0x02] IF !(Work_Zone[9] == 3*) GOTO 0x0B9C
308: 0x0B88 [0x45] LOAD_SCHEDULED_TASK: Load scheduler "s049" with entities [EventEntity, EventEntity], work=[896*, 0*]
309: 0x0B99 [0x01] GOTO 0x0C01
310: 0x0B9C [0x02] IF !(Work_Zone[9] == 5*) GOTO 0x0BB8
311: 0x0BA4 [0x45] LOAD_SCHEDULED_TASK: Load scheduler "s061" with entities [EventEntity, EventEntity], work=[896*, 0*]
312: 0x0BB5 [0x01] GOTO 0x0C01
313: 0x0BB8 [0x02] IF !(Work_Zone[9] == 6*) GOTO 0x0BD4
314: 0x0BC0 [0x45] LOAD_SCHEDULED_TASK: Load scheduler "s061" with entities [EventEntity, EventEntity], work=[896*, 0*]
315: 0x0BD1 [0x01] GOTO 0x0C01
316: 0x0BD4 [0x02] IF !(Work_Zone[9] == 8*) GOTO 0x0BF0
317: 0x0BDC [0x45] LOAD_SCHEDULED_TASK: Load scheduler "s049" with entities [EventEntity, EventEntity], work=[896*, 0*]
318: 0x0BED [0x01] GOTO 0x0C01
319: 0x0BF0 [0x45] LOAD_SCHEDULED_TASK: Load scheduler "s062" with entities [EventEntity, EventEntity], work=[896*, 0*]

SUBROUTINE_0C01:
320: 0x0C01 [0x2B] Gloom Phantom (ID: 17293841/0x0107E211) [12758*]:
    → "That's right! This is just getting worse by the moment!"
321: 0x0C08 [0x23] WAIT_FOR_DIALOG_INTERACTION
322: 0x0C09 [0x29] REQ_SET_WAIT(priority=0x0F, entity_id=Gloom Phantom (ID: 17293841/0x0107E211), tag_num=0x2E)
323: 0x0C10 [0x29] REQ_SET_WAIT(priority=0x0F, entity_id=Gloom Phantom (ID: 17293841/0x0107E211), tag_num=0x2F)
324: 0x0C17 [0x29] REQ_SET_WAIT(priority=0x0F, entity_id=Gloom Phantom (ID: 17293841/0x0107E211), tag_num=0x30)
325: 0x0C1E [0x02] IF !(Work_Zone[9] == 3*) GOTO 0x0C38
326: 0x0C26 [0x52] END_LOAD_SCHEDULER: End scheduler "s049" with entities [EventEntity, EventEntity], work=896*
327: 0x0C35 [0x01] GOTO 0x0C95
328: 0x0C38 [0x02] IF !(Work_Zone[9] == 5*) GOTO 0x0C52
329: 0x0C40 [0x52] END_LOAD_SCHEDULER: End scheduler "s061" with entities [EventEntity, EventEntity], work=896*
330: 0x0C4F [0x01] GOTO 0x0C95
331: 0x0C52 [0x02] IF !(Work_Zone[9] == 6*) GOTO 0x0C6C
332: 0x0C5A [0x52] END_LOAD_SCHEDULER: End scheduler "s061" with entities [EventEntity, EventEntity], work=896*
333: 0x0C69 [0x01] GOTO 0x0C95
334: 0x0C6C [0x02] IF !(Work_Zone[9] == 8*) GOTO 0x0C86
335: 0x0C74 [0x52] END_LOAD_SCHEDULER: End scheduler "s049" with entities [EventEntity, EventEntity], work=896*
336: 0x0C83 [0x01] GOTO 0x0C95
337: 0x0C86 [0x52] END_LOAD_SCHEDULER: End scheduler "s062" with entities [EventEntity, EventEntity], work=896*

SUBROUTINE_0C95:
338: 0x0C95 [0x01] GOTO 0x0C98

SUBROUTINE_0C98:
339: 0x0C98 [0x45] LOAD_SCHEDULED_TASK: Load scheduler "s048" with entities [EventEntity, EventEntity], work=[896*, 0*]
340: 0x0CA9 [0x5D] SET_MUSIC_VOLUME(volume=0*, fade_time=1*)
341: 0x0CAE [0x45] LOAD_SCHEDULED_TASK: Load scheduler "8160" with entities [EventEntity, EventEntity], work=[896*, 0*]
342: 0x0CBF [0x2B] Echion (ID: 17293844/0x0107E214) [12759*]:
    → "Gaguuu! Ugogga, gegge, ugah!"
343: 0x0CC6 [0x1C] WAIT(65* ticks)
344: 0x0CC9 [0x45] LOAD_SCHEDULED_TASK: Load scheduler "8002" with entities [EventEntity, EventEntity], work=[896*, 0*]
345: 0x0CDA [0x4A] Magh Bihu (ID: 17293842/0x0107E212) looks at Echion (ID: 17293844/0x0107E214)
346: 0x0CE3 [0x1C] WAIT(5* ticks)
347: 0x0CE6 [0x4A] Gloom Phantom (ID: 17293841/0x0107E211) looks at Echion (ID: 17293844/0x0107E214)
348: 0x0CEF [0x4A] LocalPlayer looks at Echion (ID: 17293844/0x0107E214)
349: 0x0CF8 [0x1C] WAIT(15* ticks)
350: 0x0CFB [0x4A] Dazbog (ID: 17293843/0x0107E213) looks at Echion (ID: 17293844/0x0107E214)
351: 0x0D04 [0x6F] WAIT_FRAME_DELAY: Yield until WaitTime reaches zero
352: 0x0D05 [0x76] CHECK_ENTITY_RENDER_FLAGS: Wait until LocalPlayer Render.Flags0 and Render.Flags3 conditions are met
353: 0x0D0A [0x6F] WAIT_FRAME_DELAY: Yield until WaitTime reaches zero
354: 0x0D0B [0x76] CHECK_ENTITY_RENDER_FLAGS: Wait until Gloom Phantom (ID: 17293841/0x0107E211) Render.Flags0 and Render.Flags3 conditions are met
355: 0x0D10 [0x6F] WAIT_FRAME_DELAY: Yield until WaitTime reaches zero
356: 0x0D11 [0x76] CHECK_ENTITY_RENDER_FLAGS: Wait until Magh Bihu (ID: 17293842/0x0107E212) Render.Flags0 and Render.Flags3 conditions are met
357: 0x0D16 [0x6F] WAIT_FRAME_DELAY: Yield until WaitTime reaches zero
358: 0x0D17 [0x76] CHECK_ENTITY_RENDER_FLAGS: Wait until Dazbog (ID: 17293843/0x0107E213) Render.Flags0 and Render.Flags3 conditions are met
359: 0x0D1C [0x23] WAIT_FOR_DIALOG_INTERACTION
360: 0x0D1D [0x52] END_LOAD_SCHEDULER: End scheduler "s048" with entities [EventEntity, EventEntity], work=896*
361: 0x0D2C [0x45] LOAD_SCHEDULED_TASK: Load scheduler "s051" with entities [EventEntity, EventEntity], work=[896*, 0*]
362: 0x0D3D [0x5C] MUSIC_CONTROL: Set Idle (Day) music to song 198*
363: 0x0D41 [0x5C] MUSIC_CONTROL: Set Idle (Night) music to song 198*
364: 0x0D45 [0x5C] MUSIC_CONTROL: Set Combat (Solo) music to song 198*
365: 0x0D49 [0x5C] MUSIC_CONTROL: Set Combat (Party) music to song 198*
366: 0x0D4D [0x9A] WAIT_MUSIC_SERVER()
367: 0x0D4E [0x5D] SET_MUSIC_VOLUME(volume=127*, fade_time=1*)
368: 0x0D53 [0x29] REQ_SET_WAIT(priority=0x0F, entity_id=Gloom Phantom (ID: 17293841/0x0107E211), tag_num=0x17)
369: 0x0D5A [0x45] LOAD_SCHEDULED_TASK: Load scheduler "1009" with entities [EventEntity, EventEntity], work=[896*, 0*]
370: 0x0D6B [0x2B] Gloom Phantom (ID: 17293841/0x0107E211) [12760*]:
    → "Quiet, you! Yes, I know how annoying people can be!"
371: 0x0D72 [0x23] WAIT_FOR_DIALOG_INTERACTION
372: 0x0D73 [0x29] REQ_SET_WAIT(priority=0x0F, entity_id=Gloom Phantom (ID: 17293841/0x0107E211), tag_num=0x18)
373: 0x0D7A [0x52] END_LOAD_SCHEDULER: End scheduler "s051" with entities [EventEntity, EventEntity], work=896*
374: 0x0D89 [0x45] LOAD_SCHEDULED_TASK: Load scheduler "s050" with entities [EventEntity, EventEntity], work=[896*, 0*]
375: 0x0D9A [0x79] LocalPlayer looks at Echion (ID: 17293844/0x0107E214) (Basic look)
376: 0x0DA4 [0x45] LOAD_SCHEDULED_TASK: Load scheduler "8009" with entities [EventEntity, EventEntity], work=[896*, 0*]
377: 0x0DB5 [0x2B] Echion (ID: 17293844/0x0107E214) [12761*]:
    → "Gugogga! Ugagugga!"
378: 0x0DBC [0x23] WAIT_FOR_DIALOG_INTERACTION
379: 0x0DBD [0x52] END_LOAD_SCHEDULER: End scheduler "s050" with entities [EventEntity, EventEntity], work=896*
380: 0x0DCC [0x45] LOAD_SCHEDULED_TASK: Load scheduler "s052" with entities [EventEntity, EventEntity], work=[896*, 0*]
381: 0x0DDD [0x29] REQ_SET_WAIT(priority=0x0F, entity_id=Dazbog (ID: 17293843/0x0107E213), tag_num=0x0A)
382: 0x0DE4 [0x79] LocalPlayer looks at Gloom Phantom (ID: 17293841/0x0107E211) (Basic look)
383: 0x0DEE [0x2B] Gloom Phantom (ID: 17293841/0x0107E211) [12762*]:
    → "Come on, just tell us what we want to know! Spit it out already!"
384: 0x0DF5 [0x1C] WAIT(20* ticks)
385: 0x0DF8 [0x4A] Magh Bihu (ID: 17293842/0x0107E212) looks at Gloom Phantom (ID: 17293841/0x0107E211)
386: 0x0E01 [0x6F] WAIT_FRAME_DELAY: Yield until WaitTime reaches zero
387: 0x0E02 [0x76] CHECK_ENTITY_RENDER_FLAGS: Wait until Magh Bihu (ID: 17293842/0x0107E212) Render.Flags0 and Render.Flags3 conditions are met
388: 0x0E07 [0x23] WAIT_FOR_DIALOG_INTERACTION
389: 0x0E08 [0x52] END_LOAD_SCHEDULER: End scheduler "s052" with entities [EventEntity, EventEntity], work=896*
390: 0x0E17 [0x45] LOAD_SCHEDULED_TASK: Load scheduler "s053" with entities [EventEntity, EventEntity], work=[896*, 0*]
391: 0x0E28 [0x4A] Magh Bihu (ID: 17293842/0x0107E212) looks at Echion (ID: 17293844/0x0107E214)
392: 0x0E31 [0x79] LocalPlayer looks at Echion (ID: 17293844/0x0107E214) (Basic look)
393: 0x0E3B [0x29] REQ_SET_WAIT(priority=0x0F, entity_id=Gloom Phantom (ID: 17293841/0x0107E211), tag_num=0x19)
394: 0x0E42 [0xC4] SCHEDULE_MAGIC_CASTING_ALT (arg=18): Echion (ID: 17293844/0x0107E214) casts magic 406* on LocalPlayer
395: 0x0E4E [0x2B] Echion (ID: 17293844/0x0107E214) [12763*]:
    → "Ugoh! Gugaaa, gegge!"
396: 0x0E55 [0x23] WAIT_FOR_DIALOG_INTERACTION
397: 0x0E56 [0x6F] WAIT_FRAME_DELAY: Yield until WaitTime reaches zero
398: 0x0E57 [0x76] CHECK_ENTITY_RENDER_FLAGS: Wait until Magh Bihu (ID: 17293842/0x0107E212) Render.Flags0 and Render.Flags3 conditions are met
399: 0x0E5C [0x29] REQ_SET_WAIT(priority=0x0F, entity_id=Dazbog (ID: 17293843/0x0107E213), tag_num=0x0B)
400: 0x0E63 [0x27] REQ_SET(priority=0x0F, entity_id=Magh Bihu (ID: 17293842/0x0107E212), tag_num=0x19)
401: 0x0E6A [0x29] REQ_SET_WAIT(priority=0x0F, entity_id=Gloom Phantom (ID: 17293841/0x0107E211), tag_num=0x1A)
402: 0x0E71 [0x2C] CREATE_SCHEDULER_TASK: Create scheduler "wpon" with entities [Gloom Phantom (ID: 17293841/0x0107E211), Gloom Phantom (ID: 17293841/0x0107E211)]
403: 0x0E7E [0x29] REQ_SET_WAIT(priority=0x0F, entity_id=Unnamed NPC (ID: 17293845/0x0107E215), tag_num=0x03)
404: 0x0E85 [0x52] END_LOAD_SCHEDULER: End scheduler "s053" with entities [EventEntity, EventEntity], work=896*
405: 0x0E94 [0x45] LOAD_SCHEDULED_TASK: Load scheduler "s054" with entities [EventEntity, EventEntity], work=[896*, 0*]
406: 0x0EA5 [0x27] REQ_SET(priority=0x0F, entity_id=Dazbog (ID: 17293843/0x0107E213), tag_num=0x14)
407: 0x0EAC [0x27] REQ_SET(priority=0x0F, entity_id=Gloom Phantom (ID: 17293841/0x0107E211), tag_num=0x54)
408: 0x0EB3 [0x2B] Gloom Phantom (ID: 17293841/0x0107E211) [12764*]:
    → "Man, your breath absolutely reeks! I can't take much more of this!"
409: 0x0EBA [0x2A] GET_REQ_LEVEL(level=15, entity_id=Gloom Phantom (ID: 17293841/0x0107E211))
410: 0x0EC0 [0x1C] WAIT(30* ticks)
411: 0x0EC3 [0x29] REQ_SET_WAIT(priority=0x0F, entity_id=Gloom Phantom (ID: 17293841/0x0107E211), tag_num=0x4B)
412: 0x0ECA [0x23] WAIT_FOR_DIALOG_INTERACTION
413: 0x0ECB [0x2A] GET_REQ_LEVEL(level=15, entity_id=Dazbog (ID: 17293843/0x0107E213))
414: 0x0ED1 [0x2A] GET_REQ_LEVEL(level=15, entity_id=Magh Bihu (ID: 17293842/0x0107E212))
415: 0x0ED7 [0x2C] CREATE_SCHEDULER_TASK: Create scheduler "wpof" with entities [Echion (ID: 17293844/0x0107E214), Echion (ID: 17293844/0x0107E214)]
416: 0x0EE4 [0x52] END_LOAD_SCHEDULER: End scheduler "s054" with entities [EventEntity, EventEntity], work=896*
417: 0x0EF3 [0x45] LOAD_SCHEDULED_TASK: Load scheduler "s055" with entities [EventEntity, EventEntity], work=[896*, 0*]
418: 0x0F04 [0xC4] SCHEDULE_MAGIC_CASTING_ALT (arg=18): Echion (ID: 17293844/0x0107E214) casts magic 410* on EventEntity
419: 0x0F10 [0x2B] Echion (ID: 17293844/0x0107E214) [12765*]:
    → "Gugaaa! Gugohho, ugogguga!"
420: 0x0F17 [0x23] WAIT_FOR_DIALOG_INTERACTION
421: 0x0F18 [0x1C] WAIT(70* ticks)
422: 0x0F1B [0x29] REQ_SET_WAIT(priority=0x0F, entity_id=Gloom Phantom (ID: 17293841/0x0107E211), tag_num=0x3B)
423: 0x0F22 [0x1C] WAIT(70* ticks)
424: 0x0F25 [0x52] END_LOAD_SCHEDULER: End scheduler "s055" with entities [EventEntity, EventEntity], work=896*
425: 0x0F34 [0x45] LOAD_SCHEDULED_TASK: Load scheduler "s056" with entities [EventEntity, EventEntity], work=[896*, 0*]
426: 0x0F45 [0x6C] FADE_ENTITY_COLOR(entity_id=Echion (ID: 17293844/0x0107E214), end_alpha=0*, fade_time=1*)
427: 0x0F4E [0x29] REQ_SET_WAIT(priority=0x0F, entity_id=Magh Bihu (ID: 17293842/0x0107E212), tag_num=0x0B)
428: 0x0F55 [0x2B] Magh Bihu (ID: 17293842/0x0107E212) [12766*]:
    → "Uh-oh. I think you made him angry. Gigas and Goblins don't get along very well."
429: 0x0F5C [0x1C] WAIT(20* ticks)
430: 0x0F5F [0x79] LocalPlayer looks at Magh Bihu (ID: 17293842/0x0107E212) (Basic look)
431: 0x0F69 [0x23] WAIT_FOR_DIALOG_INTERACTION
432: 0x0F6A [0x29] REQ_SET_WAIT(priority=0x0F, entity_id=Gloom Phantom (ID: 17293841/0x0107E211), tag_num=0x3C)
433: 0x0F71 [0x29] REQ_SET_WAIT(priority=0x0F, entity_id=Magh Bihu (ID: 17293842/0x0107E212), tag_num=0x0C)
434: 0x0F78 [0x52] END_LOAD_SCHEDULER: End scheduler "s056" with entities [EventEntity, EventEntity], work=896*
435: 0x0F87 [0x45] LOAD_SCHEDULED_TASK: Load scheduler "s057" with entities [EventEntity, EventEntity], work=[896*, 0*]
436: 0x0F98 [0x6C] FADE_ENTITY_COLOR(entity_id=Echion (ID: 17293844/0x0107E214), end_alpha=128*, fade_time=1*)
437: 0x0FA1 [0x29] REQ_SET_WAIT(priority=0x0F, entity_id=Dazbog (ID: 17293843/0x0107E213), tag_num=0x10)
438: 0x0FA8 [0x79] LocalPlayer looks at Dazbog (ID: 17293843/0x0107E213) (Basic look)
439: 0x0FB2 [0x2B] Dazbog (ID: 17293843/0x0107E213) [12767*]:
    → "I don't like where this is h-heading... I-if we lose this, he's probably g-gonna have us for lunch."
440: 0x0FB9 [0x1C] WAIT(30* ticks)
441: 0x0FBC [0x23] WAIT_FOR_DIALOG_INTERACTION
442: 0x0FBD [0x52] END_LOAD_SCHEDULER: End scheduler "s057" with entities [EventEntity, EventEntity], work=896*
443: 0x0FCC [0x45] LOAD_SCHEDULED_TASK: Load scheduler "s058" with entities [EventEntity, EventEntity], work=[896*, 0*]
444: 0x0FDD [0x29] REQ_SET_WAIT(priority=0x0F, entity_id=LocalPlayer, tag_num=0x22)
445: 0x0FE4 [0xC4] SCHEDULE_MAGIC_CASTING_ALT (arg=18): Echion (ID: 17293844/0x0107E214) casts magic 409* on LocalPlayer
446: 0x0FF0 [0x2B] Echion (ID: 17293844/0x0107E214) [12768*]:
    → "Gugohho! Gaggagugago!"
447: 0x0FF7 [0x1C] WAIT(60* ticks)
448: 0x0FFA [0x29] REQ_SET_WAIT(priority=0x0F, entity_id=Gloom Phantom (ID: 17293841/0x0107E211), tag_num=0x3B)
449: 0x1001 [0x27] REQ_SET(priority=0x0F, entity_id=Magh Bihu (ID: 17293842/0x0107E212), tag_num=0x1A)
450: 0x1008 [0x27] REQ_SET(priority=0x0F, entity_id=Dazbog (ID: 17293843/0x0107E213), tag_num=0x15)
451: 0x100F [0x1C] WAIT(30* ticks)
452: 0x1012 [0x1A] CALL_SUBROUTINE(address=0x01B7)
453: 0x1015 [0x23] WAIT_FOR_DIALOG_INTERACTION
454: 0x1016 [0x2A] GET_REQ_LEVEL(level=15, entity_id=Magh Bihu (ID: 17293842/0x0107E212))
455: 0x101C [0x1C] WAIT(30* ticks)
456: 0x101F [0x52] END_LOAD_SCHEDULER: End scheduler "s058" with entities [EventEntity, EventEntity], work=896*
457: 0x102E [0x45] LOAD_SCHEDULED_TASK: Load scheduler "brof" with entities [EventEntity, EventEntity], work=[896*, 0*]
458: 0x103F [0x29] REQ_SET_WAIT(priority=0x0F, entity_id=Echion (ID: 17293844/0x0107E214), tag_num=0x34)
459: 0x1046 [0x29] REQ_SET_WAIT(priority=0x0F, entity_id=LocalPlayer, tag_num=0x23)
460: 0x104D [0x29] REQ_SET_WAIT(priority=0x0F, entity_id=Gloom Phantom (ID: 17293841/0x0107E211), tag_num=0x4C)
461: 0x1054 [0x29] REQ_SET_WAIT(priority=0x0F, entity_id=Dazbog (ID: 17293843/0x0107E213), tag_num=0x11)
462: 0x105B [0x1A] CALL_SUBROUTINE(address=0x0064)
463: 0x105E [0x1A] CALL_SUBROUTINE(address=0x0085)
464: 0x1061 [0x5C] MUSIC_CONTROL: Set Idle (Day) music to song 0*
465: 0x1065 [0x5C] MUSIC_CONTROL: Set Idle (Night) music to song 0*
466: 0x1069 [0x5C] MUSIC_CONTROL: Set Combat (Solo) music to song 101*
467: 0x106D [0x5C] MUSIC_CONTROL: Set Combat (Party) music to song 103*
468: 0x1071 [0x9A] WAIT_MUSIC_SERVER()
469: 0x1072 [0x5D] SET_MUSIC_VOLUME(volume=127*, fade_time=1*)
470: 0x1077 [0xD9] SET_SOUND_EFFECT_LIMIT_FLAG(flag_value=0x01)
471: 0x1079 [0x1C] WAIT(15* ticks)
472: 0x107C [0xAB] EventEntity->DespawnValue = 0* // Set despawn value
473: 0x1080 [0x1C] WAIT(1* ticks)
474: 0x1083 [0x46] CAMERA_CONTROL: Restore default settings
475: 0x1085 [0x45] LOAD_SCHEDULED_TASK: Load scheduler "fdi2" with entities [EventEntity, EventEntity], work=[200*, 0*]
476: 0x1096 [0x21] END_EVENT
477: 0x1097 [0x00] END_REQSTACK()
```

### Event 67

#### Metadata

| Field        | Value      |
|--------------|------------|
| Entrypoint   | 0x1098     |
| Data Size    | 4277 bytes |
| Instructions | 641        |

```
      00 01 02 03 04 05 06 07  08 09 0A 0B 0C 0D 0E 0F
      -- -- -- -- -- -- -- --  -- -- -- -- -- -- -- --
1090:                          42 5D 01 80 08 80 1A 64          B].....d
10A0: 00 46 01 38 09 80 2F 00  11 E2 07 01 2F 00 12 E2  .F.8../...../...
10B0: 07 01 2F 00 13 E2 07 01  2F 00 14 E2 07 01 2F 00  ../...../...../.
10C0: 15 E2 07 01 4E 00 11 E2  07 01 4E 00 12 E2 07 01  ....N.....N.....
10D0: 4E 00 13 E2 07 01 4E 00  14 E2 07 01 4E 00 15 E2  N.....N.....N...
10E0: 07 01 92 01 15 E2 07 01  94 01 11 E2 07 01 94 01  ................
10F0: 12 E2 07 01 94 01 13 E2  07 01 94 01 14 E2 07 01  ................
1100: 94 01 F0 FF FF 7F 94 01  15 E2 07 01 BA 11 E2 07  ................
1110: 01 58 80 59 80 5A 80 5B  80 BA 12 E2 07 01 5C 80  .X.Y.Z.[......\.
1120: 5D 80 5E 80 5F 80 BA 13  E2 07 01 60 80 61 80 5E  ].^._......`.a.^
1130: 80 1C 80 BA 14 E2 07 01  62 80 63 80 64 80 01 80  ........b.c.d...
1140: BA F0 FF FF 7F 65 80 66  80 67 80 5F 80 80 11 E2  .....e.f.g._....
1150: 07 01 80 12 E2 07 01 80  13 E2 07 01 80 14 E2 07  ................
1160: 01 80 F0 FF FF 7F 5C 00  46 80 5C 01 46 80 5C 02  ......\.F.\.F.\.
1170: 46 80 5C 03 46 80 9A 5D  20 80 03 80 69 01 1D 80  F.\.F..] ...i...
1180: 1C 03 80 29 0F 14 E2 07  01 34 29 0F F0 FF FF 7F  ...).....4).....
1190: 22 29 0F 11 E2 07 01 4B  29 0F 13 E2 07 01 11 29  ").....K)......)
11A0: 0F 12 E2 07 01 14 2C 11  E2 07 01 11 E2 07 01 77  ......,........w
11B0: 70 6F 6E 2C 14 E2 07 01  14 E2 07 01 77 70 6F 66  pon,........wpof
11C0: 4E 01 15 E2 07 01 4A 11  E2 07 01 14 E2 07 01 4A  N.....J........J
11D0: 12 E2 07 01 14 E2 07 01  4A 13 E2 07 01 14 E2 07  ........J.......
11E0: 01 4A 14 E2 07 01 11 E2  07 01 6F 76 11 E2 07 01  .J........ov....
11F0: 6F 76 12 E2 07 01 6F 76  13 E2 07 01 6F 76 14 E2  ov....ov....ov..
1200: 07 01 29 08 F0 FF FF 7F  38 D9 00 69 00 1D 80 29  ..).....8..i...)
1210: 0F 14 E2 07 01 03 02 01  00 01 80 00 75 1A 45 21  ............u.E!
1220: 80 F8 FF FF 7F F8 FF FF  7F 73 30 36 33 01 80 1A  .........s063...
1230: 43 00 2B 14 E2 07 01 68  80 45 21 80 F8 FF FF 7F  C.+....h.E!.....
1240: F8 FF FF 7F 38 30 30 39  01 80 1C 2C 80 1C 69 80  ....8009...,..i.
1250: 27 0F 12 E2 07 01 1C 1C  2C 80 27 0F 11 E2 07 01  '.......,.'.....
1260: 55 1C 2C 80 52 21 80 F8  FF FF 7F F8 FF FF 7F 73  U.,.R!.........s
1270: 30 36 33 45 21 80 F8 FF  FF 7F F8 FF FF 7F 73 30  063E!.........s0
1280: 36 34 01 80 1C 6A 80 27  0F 13 E2 07 01 17 1C 06  64...j.'........
1290: 80 9F 20 80 F8 FF FF 7F  F8 FF FF 7F 73 74 72 30  .. .........str0
12A0: 01 80 1C 55 80 9F 20 80  F8 FF FF 7F F8 FF FF 7F  ...U.. .........
12B0: 6B 69 6C 6C 01 80 23 29  0F 14 E2 07 01 04 52 21  kill..#)......R!
12C0: 80 F8 FF FF 7F F8 FF FF  7F 73 30 36 34 45 21 80  .........s064E!.
12D0: F8 FF FF 7F F8 FF FF 7F  73 30 36 35 01 80 2A 0F  ........s065..*.
12E0: 11 E2 07 01 2A 0F 13 E2  07 01 2A 0F 12 E2 07 01  ....*.....*.....
12F0: 29 0F 11 E2 07 01 35 29  0F 14 E2 07 01 15 2B 11  ).....5)......+.
1300: E2 07 01 6B 80 23 29 0F  11 E2 07 01 36 29 0F 14  ...k.#).....6)..
1310: E2 07 01 16 52 21 80 F8  FF FF 7F F8 FF FF 7F 73  ....R!.........s
1320: 30 36 35 45 21 80 F8 FF  FF 7F F8 FF FF 7F 73 30  065E!.........s0
1330: 36 36 01 80 29 0F 14 E2  07 01 17 2B 14 E2 07 01  66..)......+....
1340: 6C 80 45 21 80 F8 FF FF  7F F8 FF FF 7F 38 30 30  l.E!.........800
1350: 32 01 80 1C 22 80 23 52  21 80 F8 FF FF 7F F8 FF  2...".#R!.......
1360: FF 7F 73 30 36 36 45 21  80 F8 FF FF 7F F8 FF FF  ..s066E!........
1370: 7F 73 30 36 37 01 80 29  0F 12 E2 07 01 09 2B 12  .s067..)......+.
1380: E2 07 01 6D 80 23 29 0F  12 E2 07 01 0A 29 0F 14  ...m.#)......)..
1390: E2 07 01 18 29 0F 14 E2  07 01 05 6B 69 64 6C 30  ....)......kidl0
13A0: 11 E2 07 01 2B 11 E2 07  01 6E 80 23 52 21 80 F8  ....+....n.#R!..
13B0: FF FF 7F F8 FF FF 7F 73  30 36 37 45 21 80 F8 FF  .......s067E!...
13C0: FF 7F F8 FF FF 7F 73 30  36 38 01 80 2B 13 E2 07  ......s068..+...
13D0: 01 6F 80 79 00 11 E2 07  01 13 E2 07 01 23 79 00  .o.y.........#y.
13E0: 11 E2 07 01 14 E2 07 01  1C 36 80 27 0F 11 E2 07  .........6.'....
13F0: 01 56 1C 2C 80 52 21 80  F8 FF FF 7F F8 FF FF 7F  .V.,.R!.........
1400: 73 30 36 38 45 21 80 F8  FF FF 7F F8 FF FF 7F 73  s068E!.........s
1410: 30 37 33 01 80 1C 55 80  27 0F 13 E2 07 01 18 2A  073...U.'......*
1420: 0F 11 E2 07 01 29 0F 14  E2 07 01 05 79 00 14 E2  .....)......y...
1430: 07 01 13 E2 07 01 1C 6A  80 29 0F 11 E2 07 01 01  .......j.)......
1440: 1C 22 80 5D 01 80 08 80  1A 64 00 52 21 80 F8 FF  .".].....d.R!...
1450: FF 7F F8 FF FF 7F 73 30  37 33 2A 0F 13 E2 07 01  ......s073*.....
1460: 69 01 1D 80 1C 03 80 2C  14 E2 07 01 14 E2 07 01  i......,........
1470: 77 70 6F 66 29 0F F0 FF  FF 7F 23 29 0F 11 E2 07  wpof).....#)....
1480: 01 4C 29 0F 11 E2 07 01  02 BA F0 FF FF 7F 70 80  .L)...........p.
1490: 71 80 72 80 1C 80 4A F0  FF FF 7F 14 E2 07 01 29  q.r...J........)
14A0: 0F 11 E2 07 01 2D 29 0F  11 E2 07 01 2E 6F 76 F0  .....-)......ov.
14B0: FF FF 7F 27 0F 14 E2 07  01 07 1C 45 80 69 00 1D  ...'.......E.i..
14C0: 80 45 21 80 F8 FF FF 7F  F8 FF FF 7F 73 30 36 39  .E!.........s069
14D0: 01 80 1A 43 00 1C 22 80  4A F0 FF FF 7F 14 E2 07  ...C..".J.......
14E0: 01 2B 14 E2 07 01 73 80  45 21 80 F8 FF FF 7F F8  .+....s.E!......
14F0: FF FF 7F 38 30 30 32 01  80 1C 22 80 23 6F 76 F0  ...8002...".#ov.
1500: FF FF 7F 52 21 80 F8 FF  FF 7F F8 FF FF 7F 73 30  ...R!.........s0
1510: 36 39 45 21 80 F8 FF FF  7F F8 FF FF 7F 73 30 37  69E!.........s07
1520: 30 01 80 27 0F 13 E2 07  01 19 1C 06 80 4A F0 FF  0..'.........J..
1530: FF 7F 13 E2 07 01 4A 12  E2 07 01 13 E2 07 01 6F  ......J........o
1540: 76 12 E2 07 01 6F 76 F0  FF FF 7F 2A 0F 13 E2 07  v....ov....*....
1550: 01 29 0F 13 E2 07 01 0A  1C 06 80 79 00 F0 FF FF  .).........y....
1560: 7F 13 E2 07 01 2B 13 E2  07 01 74 80 29 0F 13 E2  .....+....t.)...
1570: 07 01 0B 4A 13 E2 07 01  12 E2 07 01 4A 12 E2 07  ...J........J...
1580: 01 13 E2 07 01 6F 76 13  E2 07 01 6F 76 12 E2 07  .....ov....ov...
1590: 01 23 2A 0F 14 E2 07 01  52 21 80 F8 FF FF 7F F8  .#*.....R!......
15A0: FF FF 7F 73 30 37 30 45  21 80 F8 FF FF 7F F8 FF  ...s070E!.......
15B0: FF 7F 73 30 37 32 01 80  5C 00 75 80 5C 01 75 80  ..s072..\.u.\.u.
15C0: 5C 02 75 80 5C 03 75 80  9A 5D 20 80 03 80 29 0F  \.u.\.u..] ...).
15D0: 12 E2 07 01 05 4A F0 FF  FF 7F 13 E2 07 01 2B 12  .....J........+.
15E0: E2 07 01 76 80 1C 36 80  45 21 80 F8 FF FF 7F F8  ...v..6.E!......
15F0: FF FF 7F 30 30 31 31 01  80 4A F0 FF FF 7F 12 E2  ...0011..J......
1600: 07 01 4A 13 E2 07 01 12  E2 07 01 6F 76 13 E2 07  ..J........ov...
1610: 01 6F 76 F0 FF FF 7F 23  6F 76 F0 FF FF 7F 29 0F  .ov....#ov....).
1620: 12 E2 07 01 06 29 0F 12  E2 07 01 07 2B 13 E2 07  .....)......+...
1630: 01 77 80 23 29 0F 12 E2  07 01 08 52 21 80 F8 FF  .w.#)......R!...
1640: FF 7F F8 FF FF 7F 73 30  37 32 45 21 80 F8 FF FF  ......s072E!....
1650: 7F F8 FF FF 7F 73 30 37  31 01 80 29 0F 12 E2 07  .....s071..)....
1660: 01 0D 2B 12 E2 07 01 78  80 23 29 0F 12 E2 07 01  ..+....x.#).....
1670: 0E 29 0F 13 E2 07 01 0A  2B 13 E2 07 01 79 80 23  .)......+....y.#
1680: 52 21 80 F8 FF FF 7F F8  FF FF 7F 73 30 37 31 45  R!.........s071E
1690: 21 80 F8 FF FF 7F F8 FF  FF 7F 73 30 37 34 01 80  !.........s074..
16A0: 27 0F 12 E2 07 01 1D 2B  12 E2 07 01 7A 80 23 2C  '......+....z.#,
16B0: 14 E2 07 01 14 E2 07 01  77 70 6F 6E 29 0F 13 E2  ........wpon)...
16C0: 07 01 0B 52 21 80 F8 FF  FF 7F F8 FF FF 7F 73 30  ...R!.........s0
16D0: 37 34 45 21 80 F8 FF FF  7F F8 FF FF 7F 73 30 37  74E!.........s07
16E0: 35 01 80 29 0F 11 E2 07  01 2F 2B 13 E2 07 01 7B  5..)...../+....{
16F0: 80 1C 06 80 79 00 F0 FF  FF 7F 13 E2 07 01 7B 14  ....y.........{.
1700: E2 07 01 27 0F 14 E2 07  01 37 1C 06 80 4A 11 E2  ...'.....7...J..
1710: 07 01 14 E2 07 01 6F 76  11 E2 07 01 1C 06 80 29  ......ov.......)
1720: 0F 11 E2 07 01 30 23 52  21 80 F8 FF FF 7F F8 FF  .....0#R!.......
1730: FF 7F 73 30 37 35 45 21  80 F8 FF FF 7F F8 FF FF  ..s075E!........
1740: 7F 73 30 37 36 01 80 45  21 80 F8 FF FF 7F F8 FF  .s076..E!.......
1750: FF 7F 31 30 30 39 01 80  29 0F 11 E2 07 01 19 29  ..1009..)......)
1760: 0F 11 E2 07 01 1A 27 0F  11 E2 07 01 57 2B 11 E2  ......'.....W+..
1770: 07 01 7C 80 1C 36 80 4A  F0 FF FF 7F 11 E2 07 01  ..|..6.J........
1780: 4A 13 E2 07 01 11 E2 07  01 6F 76 13 E2 07 01 4A  J........ov....J
1790: 12 E2 07 01 11 E2 07 01  6F 76 12 E2 07 01 6F 76  ........ov....ov
17A0: F0 FF FF 7F 23 2A 0F 11  E2 07 01 6C 14 E2 07 01  ....#*.....l....
17B0: 01 80 03 80 52 21 80 F8  FF FF 7F F8 FF FF 7F 73  ....R!.........s
17C0: 30 37 36 45 21 80 F8 FF  FF 7F F8 FF FF 7F 73 30  076E!.........s0
17D0: 37 37 01 80 29 0F 11 E2  07 01 01 2B 11 E2 07 01  77..)......+....
17E0: 7D 80 23 2B 11 E2 07 01  7E 80 23 29 0F 11 E2 07  }.#+....~.#)....
17F0: 01 02 2A 0F 12 E2 07 01  6B 69 64 6C 30 11 E2 07  ..*.....kidl0...
1800: 01 29 0F 12 E2 07 01 05  2B 12 E2 07 01 7F 80 1C  .)......+.......
1810: 36 80 45 21 80 F8 FF FF  7F F8 FF FF 7F 30 30 31  6.E!.........001
1820: 31 01 80 23 52 21 80 F8  FF FF 7F F8 FF FF 7F 73  1..#R!.........s
1830: 30 37 37 45 21 80 F8 FF  FF 7F F8 FF FF 7F 73 30  077E!.........s0
1840: 37 38 01 80 7B 11 E2 07  01 27 0F 11 E2 07 01 58  78..{....'.....X
1850: 2B 11 E2 07 01 80 80 1C  06 80 4A F0 FF FF 7F 11  +.........J.....
1860: E2 07 01 4A 13 E2 07 01  11 E2 07 01 29 0F 12 E2  ...J........)...
1870: 07 01 06 29 0F 12 E2 07  01 07 23 2A 0F 11 E2 07  ...)......#*....
1880: 01 4B 11 E2 07 01 81 80  6F 76 F0 FF FF 7F 2B 11  .K......ov....+.
1890: E2 07 01 82 80 23 6F 76  13 E2 07 01 6F 76 11 E2  .....#ov....ov..
18A0: 07 01 29 0F 12 E2 07 01  08 52 21 80 F8 FF FF 7F  ..)......R!.....
18B0: F8 FF FF 7F 73 30 37 38  45 21 80 F8 FF FF 7F F8  ....s078E!......
18C0: FF FF 7F 73 30 37 39 01  80 29 0F 12 E2 07 01 05  ...s079..)......
18D0: 4A 13 E2 07 01 12 E2 07  01 4A 11 E2 07 01 12 E2  J........J......
18E0: 07 01 2B 12 E2 07 01 83  80 1C 36 80 45 21 80 F8  ..+.......6.E!..
18F0: FF FF 7F F8 FF FF 7F 30  30 31 31 01 80 23 6F 76  .......0011..#ov
1900: 13 E2 07 01 6F 76 11 E2  07 01 52 21 80 F8 FF FF  ....ov....R!....
1910: 7F F8 FF FF 7F 73 30 37  39 45 21 80 F8 FF FF 7F  .....s079E!.....
1920: F8 FF FF 7F 73 30 38 30  01 80 29 0F 13 E2 07 01  ....s080..).....
1930: 0A 5D 01 80 08 80 2B 13  E2 07 01 84 80 1C 6A 80  .]....+.......j.
1940: 4A 11 E2 07 01 13 E2 07  01 29 0F 12 E2 07 01 06  J........)......
1950: 29 0F 12 E2 07 01 07 29  0F 12 E2 07 01 08 4A 12  )......)......J.
1960: E2 07 01 13 E2 07 01 23  29 0F 13 E2 07 01 0B 6F  .......#)......o
1970: 76 11 E2 07 01 52 21 80  F8 FF FF 7F F8 FF FF 7F  v....R!.........
1980: 73 30 38 30 45 21 80 F8  FF FF 7F F8 FF FF 7F 73  s080E!.........s
1990: 30 38 31 01 80 29 0F 13  E2 07 01 01 5C 00 85 80  081..)......\...
19A0: 5C 01 85 80 5C 02 85 80  5C 03 85 80 9A 5D 20 80  \...\...\....] .
19B0: 03 80 2B 13 E2 07 01 86  80 1C 22 80 23 6F 76 12  ..+.......".#ov.
19C0: E2 07 01 29 0F 12 E2 07  01 0B 2B 12 E2 07 01 87  ...)......+.....
19D0: 80 23 1A 64 00 52 21 80  F8 FF FF 7F F8 FF FF 7F  .#.d.R!.........
19E0: 73 30 38 31 2A 0F 14 E2  07 01 29 0F 11 E2 07 01  s081*.....).....
19F0: 2E 29 0F 12 E2 07 01 0C  29 0F 13 E2 07 01 02 69  .)......)......i
1A00: 01 1E 80 48 88 80 1A 0B  02 89 89 80 1C 55 80 B4  ...H.........U..
1A10: 14 01 80 01 80 8A 80 01  80 03 80 B4 14 01 80 01  ................
1A20: 80 8B 80 8C 80 03 80 1A  F9 01 2B 13 E2 07 01 8D  ..........+.....
1A30: 80 23 1C 08 80 2B 13 E2  07 01 8E 80 23 1C 08 80  .#...+......#...
1A40: 2B 13 E2 07 01 8F 80 23  1C 08 80 2B 13 E2 07 01  +......#...+....
1A50: 90 80 23 1C 08 80 1A 0B  02 8A B4 15 1A F9 01 69  ..#............i
1A60: 00 1E 80 69 00 1D 80 2B  13 E2 07 01 91 80 23 1C  ...i...+......#.
1A70: 08 80 01 F8 1A 29 0F F0  FF FF 7F 23 29 0F 11 E2  .....).....#)...
1A80: 07 01 4C 4E 01 14 E2 07  01 BA 11 E2 07 01 92 80  ..LN............
1A90: 93 80 94 80 95 80 BA 12  E2 07 01 96 80 97 80 98  ................
1AA0: 80 99 80 BA 13 E2 07 01  9A 80 9B 80 9C 80 9D 80  ................
1AB0: BA F0 FF FF 7F 70 80 71  80 72 80 9E 80 29 0F 11  .....p.q.r...)..
1AC0: E2 07 01 2D 4A 12 E2 07  01 13 E2 07 01 4A 11 E2  ...-J........J..
1AD0: 07 01 13 E2 07 01 4A 13  E2 07 01 12 E2 07 01 6F  ......J........o
1AE0: 76 12 E2 07 01 6F 76 11  E2 07 01 6F 76 13 E2 07  v....ov....ov...
1AF0: 01 29 0F 11 E2 07 01 2E  4E 00 15 E2 07 01 29 0F  .)......N.....).
1B00: 15 E2 07 01 05 48 88 80  2C 11 E2 07 01 11 E2 07  .....H..,.......
1B10: 01 77 70 6F 66 4B 11 E2  07 01 9F 80 4B F0 FF FF  .wpofK......K...
1B20: 7F A0 80 29 0F 11 E2 07  01 2D 6F 76 11 E2 07 01  ...).....-ov....
1B30: 6F 76 F0 FF FF 7F 29 0F  11 E2 07 01 2E 5D 20 80  ov....)......] .
1B40: 08 80 29 0F 12 E2 07 01  0F 45 21 80 F8 FF FF 7F  ..)......E!.....
1B50: F8 FF FF 7F 73 30 38 33  01 80 1A 43 00 1C 06 80  ....s083...C....
1B60: 29 0F 13 E2 07 01 03 2B  12 E2 07 01 A1 80 23 29  )......+......#)
1B70: 0F 13 E2 07 01 04 52 21  80 F8 FF FF 7F F8 FF FF  ......R!........
1B80: 7F 73 30 38 33 45 21 80  F8 FF FF 7F F8 FF FF 7F  .s083E!.........
1B90: 73 30 38 34 01 80 1C 06  80 5D 01 80 08 80 2B 11  s084.....]....+.
1BA0: E2 07 01 A2 80 1C 6A 80  79 00 F0 FF FF 7F 11 E2  ......j.y.......
1BB0: 07 01 4A 13 E2 07 01 11  E2 07 01 29 0F 12 E2 07  ..J........)....
1BC0: 01 10 4A 12 E2 07 01 11  E2 07 01 6F 76 13 E2 07  ..J........ov...
1BD0: 01 23 6F 76 12 E2 07 01  29 0F 11 E2 07 01 2F 29  .#ov....)...../)
1BE0: 0F 13 E2 07 01 0A 2B 13  E2 07 01 A3 80 29 0F 11  ......+......)..
1BF0: E2 07 01 30 79 00 11 E2  07 01 13 E2 07 01 23 4A  ...0y.........#J
1C00: 13 E2 07 01 11 E2 07 01  52 21 80 F8 FF FF 7F F8  ........R!......
1C10: FF FF 7F 73 30 38 34 45  21 80 F8 FF FF 7F F8 FF  ...s084E!.......
1C20: FF 7F 73 30 38 35 01 80  29 0F 11 E2 07 01 29 2B  ..s085..).....)+
1C30: 11 E2 07 01 A4 80 23 2B  11 E2 07 01 A5 80 23 29  ......#+......#)
1C40: 0F 11 E2 07 01 2A 29 0F  13 E2 07 01 0B 52 21 80  .....*)......R!.
1C50: F8 FF FF 7F F8 FF FF 7F  73 30 38 35 45 21 80 F8  ........s085E!..
1C60: FF FF 7F F8 FF FF 7F 73  30 38 36 01 80 29 0F 12  .......s086..)..
1C70: E2 07 01 09 29 0F 11 E2  07 01 2B 5C 00 75 80 5C  ....).....+\.u.\
1C80: 01 75 80 9A 5D 20 80 03  80 2B 12 E2 07 01 A6 80  .u..] ...+......
1C90: 1C 06 80 4A 11 E2 07 01  12 E2 07 01 4A 13 E2 07  ...J........J...
1CA0: 01 12 E2 07 01 6F 76 13  E2 07 01 23 6F 76 11 E2  .....ov....#ov..
1CB0: 07 01 4A F0 FF FF 7F 11  E2 07 01 29 0F 11 E2 07  ..J........)....
1CC0: 01 17 45 21 80 F8 FF FF  7F F8 FF FF 7F 31 30 30  ..E!.........100
1CD0: 39 01 80 2B 11 E2 07 01  A7 80 23 6F 76 F0 FF FF  9..+......#ov...
1CE0: 7F 29 0F 12 E2 07 01 0A  29 0F 11 E2 07 01 2C 52  .)......).....,R
1CF0: 21 80 F8 FF FF 7F F8 FF  FF 7F 73 30 38 36 45 21  !.........s086E!
1D00: 80 F8 FF FF 7F F8 FF FF  7F 73 30 39 30 01 80 79  .........s090..y
1D10: 00 F0 FF FF 7F 12 E2 07  01 29 0F 12 E2 07 01 01  .........)......
1D20: 2B 12 E2 07 01 A8 80 23  29 0F 11 E2 07 01 18 29  +......#)......)
1D30: 0F 11 E2 07 01 19 29 0F  13 E2 07 01 0E 79 00 F0  ......)......y..
1D40: FF FF 7F 13 E2 07 01 4A  12 E2 07 01 13 E2 07 01  .......J........
1D50: 4A 11 E2 07 01 13 E2 07  01 2B 13 E2 07 01 A9 80  J........+......
1D60: 45 21 80 F8 FF FF 7F F8  FF FF 7F 31 30 31 35 01  E!.........1015.
1D70: 80 1C 22 80 29 0F 12 E2  07 01 02 29 0F 12 E2 07  ..".)......)....
1D80: 01 03 52 21 80 F8 FF FF  7F F8 FF FF 7F 73 30 39  ..R!.........s09
1D90: 30 45 21 80 F8 FF FF 7F  F8 FF FF 7F 73 30 38 37  0E!.........s087
1DA0: 01 80 23 6F 76 12 E2 07  01 6F 76 11 E2 07 01 29  ..#ov....ov....)
1DB0: 0F 11 E2 07 01 1A 29 0F  12 E2 07 01 04 52 21 80  ......)......R!.
1DC0: F8 FF FF 7F F8 FF FF 7F  73 30 38 37 45 21 80 F8  ........s087E!..
1DD0: FF FF 7F F8 FF FF 7F 73  30 38 38 01 80 29 0F 12  .......s088..)..
1DE0: E2 07 01 05 2B 12 E2 07  01 AA 80 1C 36 80 45 21  ....+.......6.E!
1DF0: 80 F8 FF FF 7F F8 FF FF  7F 30 30 31 31 01 80 23  .........0011..#
1E00: 4A 13 E2 07 01 11 E2 07  01 1C 06 80 52 21 80 F8  J...........R!..
1E10: FF FF 7F F8 FF FF 7F 73  30 38 38 45 21 80 F8 FF  .......s088E!...
1E20: FF 7F F8 FF FF 7F 73 30  38 39 01 80 29 0F 13 E2  ......s089..)...
1E30: 07 01 0F 2B 13 E2 07 01  AB 80 29 0F 12 E2 07 01  ...+......).....
1E40: 06 29 0F 12 E2 07 01 07  29 0F 12 E2 07 01 08 4A  .)......)......J
1E50: 12 E2 07 01 11 E2 07 01  23 6F 76 13 E2 07 01 6F  ........#ov....o
1E60: 76 12 E2 07 01 29 0F 11  E2 07 01 23 2B 11 E2 07  v....).....#+...
1E70: 01 AC 80 45 21 80 F8 FF  FF 7F F8 FF FF 7F 31 30  ...E!.........10
1E80: 31 34 01 80 1C 36 80 4A  13 E2 07 01 11 E2 07 01  14...6.J........
1E90: 6F 76 13 E2 07 01 23 29  0F 11 E2 07 01 24 52 21  ov....#).....$R!
1EA0: 80 F8 FF FF 7F F8 FF FF  7F 73 30 38 39 45 21 80  .........s089E!.
1EB0: F8 FF FF 7F F8 FF FF 7F  73 30 39 31 01 80 29 0F  ........s091..).
1EC0: 11 E2 07 01 25 29 0F 13  E2 07 01 0A 2B 13 E2 07  ....%)......+...
1ED0: 01 AD 80 23 2B 11 E2 07  01 AE 80 23 29 0F 13 E2  ...#+......#)...
1EE0: 07 01 0B 29 0F 11 E2 07  01 26 29 0F 11 E2 07 01  ...).....&).....
1EF0: 27 29 0F 12 E2 07 01 09  2B 12 E2 07 01 AF 80 1C  ')......+.......
1F00: 06 80 4A 13 E2 07 01 12  E2 07 01 29 0F 11 E2 07  ..J........)....
1F10: 01 28 4A 11 E2 07 01 12  E2 07 01 4A F0 FF FF 7F  .(J........J....
1F20: 12 E2 07 01 6F 76 11 E2  07 01 6F 76 F0 FF FF 7F  ....ov....ov....
1F30: 23 6F 76 13 E2 07 01 29  0F 12 E2 07 01 0A 52 21  #ov....)......R!
1F40: 80 F8 FF FF 7F F8 FF FF  7F 73 30 39 31 45 21 80  .........s091E!.
1F50: F8 FF FF 7F F8 FF FF 7F  73 30 39 32 01 80 7B 12  ........s092..{.
1F60: E2 07 01 7B 13 E2 07 01  27 0F 12 E2 07 01 1E 1C  ...{....'.......
1F70: 06 80 27 0F 13 E2 07 01  1A 1C 06 80 1C 06 80 4A  ..'............J
1F80: F0 FF FF 7F 12 E2 07 01  6F 76 F0 FF FF 7F 4A 11  ........ov....J.
1F90: E2 07 01 15 E2 07 01 1C  06 80 6F 76 11 E2 07 01  ..........ov....
1FA0: 52 21 80 F8 FF FF 7F F8  FF FF 7F 73 30 39 32 02  R!.........s092.
1FB0: 09 10 2C 80 00 CB 1F 45  21 80 F8 FF FF 7F F8 FF  ..,....E!.......
1FC0: FF 7F 73 30 39 34 01 80  01 F8 1F 02 09 10 2E 80  ..s094..........
1FD0: 00 E7 1F 45 21 80 F8 FF  FF 7F F8 FF FF 7F 73 30  ...E!.........s0
1FE0: 39 34 01 80 01 F8 1F 45  21 80 F8 FF FF 7F F8 FF  94.....E!.......
1FF0: FF 7F 73 30 39 33 01 80  1C 03 80 4E 01 15 E2 07  ..s093.....N....
2000: 01 2C 11 E2 07 01 11 E2  07 01 77 70 6F 6E 29 0F  .,........wpon).
2010: 11 E2 07 01 5A 4A 11 E2  07 01 F0 FF FF 7F 6F 76  ....ZJ........ov
2020: 11 E2 07 01 6C 13 E2 07  01 01 80 03 80 6C 12 E2  ....l........l..
2030: 07 01 01 80 03 80 29 0F  11 E2 07 01 3D 2B 11 E2  ......).....=+..
2040: 07 01 B0 80 4A F0 FF FF  7F 11 E2 07 01 6F 76 F0  ....J........ov.
2050: FF FF 7F 23 29 0F 11 E2  07 01 3E 7B 11 E2 07 01  ...#).....>{....
2060: 27 0F 11 E2 07 01 5B 1C  B1 80 02 09 10 2C 80 00  '.....[......,..
2070: 84 20 52 21 80 F8 FF FF  7F F8 FF FF 7F 73 30 39  . R!.........s09
2080: 34 01 AD 20 02 09 10 2E  80 00 9E 20 52 21 80 F8  4.. ....... R!..
2090: FF FF 7F F8 FF FF 7F 73  30 39 34 01 AD 20 52 21  .......s094.. R!
20A0: 80 F8 FF FF 7F F8 FF FF  7F 73 30 39 33 45 21 80  .........s093E!.
20B0: F8 FF FF 7F F8 FF FF 7F  73 30 38 32 01 80 5D 01  ........s082..].
20C0: 80 08 80 1C 06 80 4A F0  FF FF 7F 11 E2 07 01 6F  ......J........o
20D0: 76 F0 FF FF 7F 1C B2 80  1A 64 00 2A 0F 11 E2 07  v........d.*....
20E0: 01 52 21 80 F8 FF FF 7F  F8 FF FF 7F 73 30 38 32  .R!.........s082
20F0: 1C 06 80 29 0F 14 E2 07  01 34 29 0F F0 FF FF 7F  ...).....4).....
2100: 23 29 0F 11 E2 07 01 4C  29 0F 13 E2 07 01 11 29  #).....L)......)
2110: 0F 12 E2 07 01 14 5C 00  01 80 5C 01 01 80 5C 02  ......\...\...\.
2120: 56 80 5C 03 57 80 9A 5D  20 80 03 80 D9 01 1C 45  V.\.W..] ......E
2130: 80 AB 11 01 80 1C 03 80  46 00 45 00 80 F8 FF FF  ........F.E.....
2140: 7F F8 FF FF 7F 66 64 69  32 01 80 21 00           .....fdi2..!.   
```

#### Opcodes

```
  0: 0x1098 [0x42] SET_CLI_EVENT_CANCEL_DATA()
  1: 0x1099 [0x5D] SET_MUSIC_VOLUME(volume=0*, fade_time=300*)
  2: 0x109E [0x1A] CALL_SUBROUTINE(address=0x0064)
  3: 0x10A1 [0x46] CAMERA_CONTROL: Disable user control
  4: 0x10A3 [0x38] SET_CLIENT_EVENT_MODE(mode=147*)
  5: 0x10A6 [0x2F] Gloom Phantom (ID: 17293841/0x0107E211)->Render.Flags0 &= ~0x80000 // Bit 19
  6: 0x10AC [0x2F] Magh Bihu (ID: 17293842/0x0107E212)->Render.Flags0 &= ~0x80000 // Bit 19
  7: 0x10B2 [0x2F] Dazbog (ID: 17293843/0x0107E213)->Render.Flags0 &= ~0x80000 // Bit 19
  8: 0x10B8 [0x2F] Echion (ID: 17293844/0x0107E214)->Render.Flags0 &= ~0x80000 // Bit 19
  9: 0x10BE [0x2F] Unnamed NPC (ID: 17293845/0x0107E215)->Render.Flags0 &= ~0x80000 // Bit 19
 10: 0x10C4 [0x4E] SET_ENTITY_HIDE_FLAG: Show Gloom Phantom (ID: 17293841/0x0107E211)
 11: 0x10CA [0x4E] SET_ENTITY_HIDE_FLAG: Show Magh Bihu (ID: 17293842/0x0107E212)
 12: 0x10D0 [0x4E] SET_ENTITY_HIDE_FLAG: Show Dazbog (ID: 17293843/0x0107E213)
 13: 0x10D6 [0x4E] SET_ENTITY_HIDE_FLAG: Show Echion (ID: 17293844/0x0107E214)
 14: 0x10DC [0x4E] SET_ENTITY_HIDE_FLAG: Show Unnamed NPC (ID: 17293845/0x0107E215)
 15: 0x10E2 [0x92] Unnamed NPC (ID: 17293845/0x0107E215)->Render.Flags3 ^= 0x01
 16: 0x10E8 [0x94] Gloom Phantom (ID: 17293841/0x0107E211)->Render.Flags3 ^= 0x01
 17: 0x10EE [0x94] Magh Bihu (ID: 17293842/0x0107E212)->Render.Flags3 ^= 0x01
 18: 0x10F4 [0x94] Dazbog (ID: 17293843/0x0107E213)->Render.Flags3 ^= 0x01
 19: 0x10FA [0x94] Echion (ID: 17293844/0x0107E214)->Render.Flags3 ^= 0x01
 20: 0x1100 [0x94] LocalPlayer->Render.Flags3 ^= 0x01
 21: 0x1106 [0x94] Unnamed NPC (ID: 17293845/0x0107E215)->Render.Flags3 ^= 0x01
 22: 0x110C [0xBA] SET_ENTITY_POSITION(entity_id=Gloom Phantom (ID: 17293841/0x0107E211), pos_x=-230.110*, pos_z=321.062*, pos_y=-19.707*, direction=173.5°*)
 23: 0x1119 [0xBA] SET_ENTITY_POSITION(entity_id=Magh Bihu (ID: 17293842/0x0107E212), pos_x=-232.686*, pos_z=322.105*, pos_y=-19.836*, direction=177.2°*)
 24: 0x1126 [0xBA] SET_ENTITY_POSITION(entity_id=Dazbog (ID: 17293843/0x0107E213), pos_x=-232.698*, pos_z=319.070*, pos_y=-19.836*, direction=177.3°*)
 25: 0x1133 [0xBA] SET_ENTITY_POSITION(entity_id=Echion (ID: 17293844/0x0107E214), pos_x=-234.063*, pos_z=320.535*, pos_y=-19.904*, direction=0.0°*)
 26: 0x1140 [0xBA] SET_ENTITY_POSITION(entity_id=LocalPlayer, pos_x=-225.479*, pos_z=319.790*, pos_y=-19.352*, direction=177.2°*)
 27: 0x114D [0x80] LOAD_WAIT(entity=Gloom Phantom (ID: 17293841/0x0107E211))
 28: 0x1152 [0x80] LOAD_WAIT(entity=Magh Bihu (ID: 17293842/0x0107E212))
 29: 0x1157 [0x80] LOAD_WAIT(entity=Dazbog (ID: 17293843/0x0107E213))
 30: 0x115C [0x80] LOAD_WAIT(entity=Echion (ID: 17293844/0x0107E214))
 31: 0x1161 [0x80] LOAD_WAIT(entity=LocalPlayer)
 32: 0x1166 [0x5C] MUSIC_CONTROL: Set Idle (Day) music to song 198*
 33: 0x116A [0x5C] MUSIC_CONTROL: Set Idle (Night) music to song 198*
 34: 0x116E [0x5C] MUSIC_CONTROL: Set Combat (Solo) music to song 198*
 35: 0x1172 [0x5C] MUSIC_CONTROL: Set Combat (Party) music to song 198*
 36: 0x1176 [0x9A] WAIT_MUSIC_SERVER()
 37: 0x1177 [0x5D] SET_MUSIC_VOLUME(volume=127*, fade_time=1*)
 38: 0x117C [0x69] SET_SOUND_VOLUME: Mute Effects/Zone/Master/SpecialChat
 39: 0x1180 [0x1C] WAIT(1* ticks)
 40: 0x1183 [0x29] REQ_SET_WAIT(priority=0x0F, entity_id=Echion (ID: 17293844/0x0107E214), tag_num=0x34)
 41: 0x118A [0x29] REQ_SET_WAIT(priority=0x0F, entity_id=LocalPlayer, tag_num=0x22)
 42: 0x1191 [0x29] REQ_SET_WAIT(priority=0x0F, entity_id=Gloom Phantom (ID: 17293841/0x0107E211), tag_num=0x4B)
 43: 0x1198 [0x29] REQ_SET_WAIT(priority=0x0F, entity_id=Dazbog (ID: 17293843/0x0107E213), tag_num=0x11)
 44: 0x119F [0x29] REQ_SET_WAIT(priority=0x0F, entity_id=Magh Bihu (ID: 17293842/0x0107E212), tag_num=0x14)
