# 17293826

## Common Data

| Field            | Value                  |
|------------------|------------------------|
| Zone             | Qufim Island (ID: 126) |
| Block Size       | 3748 bytes             |
| Total Events     | 3                      |
| References Count | 97                     |

## List of Events

| Event ID              | Entrypoint   |   Size |   Instructions |
|-----------------------|--------------|--------|----------------|
| [65535](#event-65535) | 0x0000       |      1 |              1 |
| [63](#event-63)       | 0x0001       |   1861 |            212 |
| [64](#event-64)       | 0x0746       |   1469 |            165 |

## DAT References (imed_data)

|   Index | Hex Value   |   Dec Value |
|---------|-------------|-------------|
|       0 | 0x00C8      |         200 |
|       1 | 0x0000      |           0 |
|       2 | 0x001B      |          27 |
|       3 | 0xFFFCE2C4  |  4294763204 |
|       4 | 0x145EC     |       83436 |
|       5 | 0xFFFFB1DB  |  4294947291 |
|       6 | 0x0348      |         840 |
|       7 | 0xFFFCF1FB  |  4294767099 |
|       8 | 0x11F21     |       73505 |
|       9 | 0xFFFFB25C  |  4294947420 |
|      10 | 0x08D3      |        2259 |
|      11 | 0xFFFD037C  |  4294771580 |
|      12 | 0xFEE5      |       65253 |
|      13 | 0xFFFFB45F  |  4294947935 |
|      14 | 0x0996      |        2454 |
|      15 | 0x005A      |          90 |
|      16 | 0x0F12      |        3858 |
|      17 | 0x0F19      |        3865 |
|      18 | 0xFFFD01ED  |  4294771181 |
|      19 | 0x122F6     |       74486 |
|      20 | 0xFFFFB224  |  4294947364 |
|      21 | 0x02F9      |         761 |
|      22 | 0x000F      |          15 |
|      23 | 0x319C      |       12700 |
|      24 | 0x319D      |       12701 |
|      25 | 0x003C      |          60 |
|      26 | 0x319E      |       12702 |
|      27 | 0x0050      |          80 |
|      28 | 0x006E      |         110 |
|      29 | 0x001E      |          30 |
|      30 | 0x0063      |          99 |
|      31 | 0x007B      |         123 |
|      32 | 0x0001      |           1 |
|      33 | 0x008C      |         140 |
|      34 | 0x0002      |           2 |
|      35 | 0x0096      |         150 |
|      36 | 0x0003      |           3 |
|      37 | 0x00A0      |         160 |
|      38 | 0x0004      |           4 |
|      39 | 0x00AA      |         170 |
|      40 | 0x0005      |           5 |
|      41 | 0x00B4      |         180 |
|      42 | 0x0006      |           6 |
|      43 | 0x0007      |           7 |
|      44 | 0x00BE      |         190 |
|      45 | 0x0008      |           8 |
|      46 | 0x00C9      |         201 |
|      47 | 0x001D      |          29 |
|      48 | 0x0078      |         120 |
|      49 | 0x0F1A      |        3866 |
|      50 | 0x319F      |       12703 |
|      51 | 0x0F29      |        3881 |
|      52 | 0x007F      |         127 |
|      53 | 0x002D      |          45 |
|      54 | 0x0015      |          21 |
|      55 | 0x31A1      |       12705 |
|      56 | 0x31A2      |       12706 |
|      57 | 0x31A0      |       12704 |
|      58 | 0x31A3      |       12707 |
|      59 | 0x0065      |         101 |
|      60 | 0x0067      |         103 |
|      61 | 0xFFFCF3A9  |  4294767529 |
|      62 | 0x12605     |       75269 |
|      63 | 0xFFFFB204  |  4294947332 |
|      64 | 0xFFFD2173  |  4294779251 |
|      65 | 0x1094B     |       67915 |
|      66 | 0xFFFFB1DC  |  4294947292 |
|      67 | 0x092A      |        2346 |
|      68 | 0xFFFD2AA3  |  4294781603 |
|      69 | 0xE1B2      |       57778 |
|      70 | 0xFFFFB36A  |  4294947690 |
|      71 | 0x0C9C      |        3228 |
|      72 | 0xFFFD09E1  |  4294773217 |
|      73 | 0x107BC     |       67516 |
|      74 | 0xFFFFB2D8  |  4294947544 |
|      75 | 0x09EC      |        2540 |
|      76 | 0x31A4      |       12708 |
|      77 | 0x31A5      |       12709 |
|      78 | 0x0F16      |        3862 |
|      79 | 0x0082      |         130 |
|      80 | 0x31A6      |       12710 |
|      81 | 0x31A7      |       12711 |
|      82 | 0x31A8      |       12712 |
|      83 | 0x0D6E      |        3438 |
|      84 | 0x0D66      |        3430 |
|      85 | 0xFFFD5C12  |  4294794258 |
|      86 | 0xC63A      |       50746 |
|      87 | 0xFFFFB282  |  4294947458 |
|      88 | 0x0903      |        2307 |
|      89 | 0x0F33      |        3891 |
|      90 | 0x0069      |         105 |
|      91 | 0x31A9      |       12713 |
|      92 | 0x006A      |         106 |
|      93 | 0x012C      |         300 |
|      94 | 0x006F      |         111 |
|      95 | 0x0028      |          40 |
|      96 | 0x0080      |         128 |

## Events

### Event 65535

#### Metadata

| Field        | Value   |
|--------------|---------|
| Entrypoint   | 0x0000  |
| Data Size    | 1 bytes |
| Instructions | 1       |

```
      00 01 02 03 04 05 06 07  08 09 0A 0B 0C 0D 0E 0F
      -- -- -- -- -- -- -- --  -- -- -- -- -- -- -- --
0000: 00                                                .               
```

#### Opcodes

```
  0: 0x0000 [0x00] END_REQSTACK()
```

### Event 63

#### Metadata

| Field        | Value      |
|--------------|------------|
| Entrypoint   | 0x0001     |
| Data Size    | 1861 bytes |
| Instructions | 212        |

```
      00 01 02 03 04 05 06 07  08 09 0A 0B 0C 0D 0E 0F
      -- -- -- -- -- -- -- --  -- -- -- -- -- -- -- --
0000:    42 03 00 00 09 10 45  00 80 F8 FF FF 7F F8 FF   B.....E........
0010: FF 7F 66 64 6F 31 01 80  55 00 80 F8 FF FF 7F F8  ..fdo1..U.......
0020: FF FF 7F 66 64 6F 31 46  01 38 02 80 2F 00 03 E2  ...fdo1F.8../...
0030: 07 01 2F 00 05 E2 07 01  4E 00 05 E2 07 01 92 01  ../.....N.......
0040: 03 E2 07 01 92 01 09 E2  07 01 94 01 03 E2 07 01  ................
0050: 94 01 05 E2 07 01 BA 03  E2 07 01 03 80 04 80 05  ................
0060: 80 06 80 BA F0 FF FF 7F  07 80 08 80 09 80 0A 80  ................
0070: BA 05 E2 07 01 0B 80 0C  80 0D 80 0E 80 80 F0 FF  ................
0080: FF 7F 80 09 E2 07 01 4A  05 E2 07 01 F0 FF FF 7F  .......J........
0090: 1C 0F 80 81 00 03 E2 07  01 7C 00 03 E2 07 01 5B  .........|.....[
00A0: 10 80 03 E2 07 01 03 E2  07 01 66 67 30 30 5B 11  ..........fg00[.
00B0: 80 03 E2 07 01 03 E2 07  01 68 69 7A 30 2C 05 E2  .........hiz0,..
00C0: 07 01 05 E2 07 01 69 64  73 30 27 05 05 E2 07 01  ......ids0'.....
00D0: 02 02 00 00 01 80 00 E3  04 2F 00 04 E2 07 01 4E  ........./.....N
00E0: 00 04 E2 07 01 92 01 04  E2 07 01 94 01 04 E2 07  ................
00F0: 01 BA 04 E2 07 01 12 80  13 80 14 80 0A 80 80 04  ................
0100: E2 07 01 27 05 04 E2 07  01 02 45 15 80 F8 FF FF  ...'......E.....
0110: 7F F8 FF FF 7F 73 31 33  30 01 80 1C 16 80 45 00  .....s130.....E.
0120: 80 F8 FF FF 7F F8 FF FF  7F 66 64 69 31 01 80 2B  .........fdi1..+
0130: 04 E2 07 01 17 80 23 2A  05 04 E2 07 01 52 15 80  ......#*.....R..
0140: F8 FF FF 7F F8 FF FF 7F  73 31 33 30 45 15 80 F8  ........s130E...
0150: FF FF 7F F8 FF FF 7F 73  31 33 31 01 80 79 00 04  .......s131..y..
0160: E2 07 01 F0 FF FF 7F 2B  04 E2 07 01 18 80 23 52  .......+......#R
0170: 15 80 F8 FF FF 7F F8 FF  FF 7F 73 31 33 31 45 15  ..........s131E.
0180: 80 F8 FF FF 7F F8 FF FF  7F 73 31 33 32 01 80 27  .........s132..'
0190: 05 04 E2 07 01 03 7B 04  E2 07 01 1C 19 80 2B 04  ......{.......+.
01A0: E2 07 01 1A 80 23 2A 05  04 E2 07 01 5C 00 1B 80  .....#*.....\...
01B0: 5C 01 1B 80 5C 02 1B 80  5C 03 1B 80 9A 52 15 80  \...\...\....R..
01C0: F8 FF FF 7F F8 FF FF 7F  73 31 33 32 45 15 80 F8  ........s132E...
01D0: FF FF 7F F8 FF FF 7F 73  31 33 33 01 80 D0 1C 80  .......s133.....
01E0: 09 E2 07 01 09 E2 07 01  6D 61 69 6E 01 80 1C 1D  ........main....
01F0: 80 81 00 04 E2 07 01 5B  1E 80 04 E2 07 01 04 E2  .......[........
0200: 07 01 6B 61 6D 30 1C 1D  80 52 15 80 F8 FF FF 7F  ..kam0...R......
0210: F8 FF FF 7F 73 31 33 33  45 15 80 F8 FF FF 7F F8  ....s133E.......
0220: FF FF 7F 73 31 33 34 01  80 D0 1F 80 04 E2 07 01  ...s134.........
0230: 04 E2 07 01 6D 61 69 6E  01 80 1C 1D 80 02 87 7F  ....main........
0240: 20 80 80 57 02 66 21 80  F0 FF FF 7F F0 FF FF 7F   ..W.f!.........
0250: 6D 61 62 30 01 0D 03 02  87 7F 22 80 80 71 02 66  mab0......"..q.f
0260: 23 80 F0 FF FF 7F F0 FF  FF 7F 6D 61 62 30 01 0D  #.........mab0..
0270: 03 02 87 7F 24 80 80 8B  02 66 25 80 F0 FF FF 7F  ....$....f%.....
0280: F0 FF FF 7F 6D 61 62 30  01 0D 03 02 87 7F 26 80  ....mab0......&.
0290: 80 A5 02 66 27 80 F0 FF  FF 7F F0 FF FF 7F 6D 61  ...f'.........ma
02A0: 62 30 01 0D 03 02 87 7F  28 80 80 BF 02 66 29 80  b0......(....f).
02B0: F0 FF FF 7F F0 FF FF 7F  6D 61 62 30 01 0D 03 02  ........mab0....
02C0: 87 7F 2A 80 80 D9 02 66  29 80 F0 FF FF 7F F0 FF  ..*....f).......
02D0: FF 7F 6D 61 62 30 01 0D  03 02 87 7F 2B 80 80 F3  ..mab0......+...
02E0: 02 66 2C 80 F0 FF FF 7F  F0 FF FF 7F 6D 61 62 30  .f,.........mab0
02F0: 01 0D 03 02 87 7F 2D 80  80 0D 03 66 00 80 F0 FF  ......-....f....
0300: FF 7F F0 FF FF 7F 6D 61  62 30 01 0D 03 1C 0F 80  ......mab0......
0310: 45 2E 80 F0 FF FF 7F F0  FF FF 7F 77 68 6F 30 01  E..........who0.
0320: 80 55 2E 80 F0 FF FF 7F  F0 FF FF 7F 77 68 6F 30  .U..........who0
0330: 52 15 80 F8 FF FF 7F F8  FF FF 7F 73 31 33 34 4E  R..........s134N
0340: 01 04 E2 07 01 6B 69 64  6C 30 F0 FF FF 7F 2F 00  .....kidl0..../.
0350: 08 E2 07 01 4E 00 08 E2  07 01 4E 00 03 E2 07 01  ....N.....N.....
0360: 59 05 08 E2 07 01 01 BA  08 E2 07 01 0B 80 0C 80  Y...............
0370: 0D 80 0E 80 80 03 E2 07  01 80 08 E2 07 01 45 15  ..............E.
0380: 80 F8 FF FF 7F F8 FF FF  7F 73 31 33 36 01 80 1C  .........s136...
0390: 16 80 45 2E 80 F0 FF FF  7F F0 FF FF 7F 77 68 69  ..E..........whi
03A0: 31 01 80 6E F0 FF FF 7F  2F 80 99 F0 FF FF 7F 1C  1..n..../.......
03B0: 30 80 55 15 80 F8 FF FF  7F F8 FF FF 7F 73 31 33  0.U..........s13
03C0: 36 5B 10 80 03 E2 07 01  03 E2 07 01 66 67 30 31  6[..........fg01
03D0: 5B 31 80 03 E2 07 01 03  E2 07 01 68 69 7A 63 1C  [1.........hizc.
03E0: 28 80 45 15 80 F8 FF FF  7F F8 FF FF 7F 73 31 33  (.E..........s13
03F0: 35 01 80 4A F0 FF FF 7F  03 E2 07 01 2B 03 E2 07  5..J........+...
0400: 01 32 80 23 55 15 80 F8  FF FF 7F F8 FF FF 7F 73  .2.#U..........s
0410: 31 33 35 45 15 80 F8 FF  FF 7F F8 FF FF 7F 73 31  135E..........s1
0420: 33 37 01 80 D0 1C 80 08  E2 07 01 08 E2 07 01 6D  37.............m
0430: 61 69 6E 01 80 27 05 05  E2 07 01 04 5B 33 80 05  ain..'......[3..
0440: E2 07 01 05 E2 07 01 66  75 6B 31 1C 30 80 52 15  .......fuk1.0.R.
0450: 80 F8 FF FF 7F F8 FF FF  7F 73 31 33 37 45 15 80  .........s137E..
0460: F8 FF FF 7F F8 FF FF 7F  73 31 33 38 01 80 1C 19  ........s138....
0470: 80 4A F0 FF FF 7F 05 E2  07 01 9F 34 80 F8 FF FF  .J.........4....
0480: 7F F8 FF FF 7F 73 74 72  30 01 80 1C 35 80 9F 34  .....str0...5..4
0490: 80 F8 FF FF 7F F8 FF FF  7F 6B 69 6C 6C 01 80 1C  .........kill...
04A0: 16 80 52 15 80 F8 FF FF  7F F8 FF FF 7F 73 31 33  ..R..........s13
04B0: 38 45 15 80 F8 FF FF 7F  F8 FF FF 7F 73 31 33 39  8E..........s139
04C0: 01 80 6E F0 FF FF 7F 36  80 99 F0 FF FF 7F 2B 03  ..n....6......+.
04D0: E2 07 01 37 80 1C 30 80  2B 03 E2 07 01 38 80 23  ...7..0.+....8.#
04E0: 01 7B 06 2F 00 08 E2 07  01 4E 00 08 E2 07 01 4E  .{./.....N.....N
04F0: 00 03 E2 07 01 59 05 08  E2 07 01 01 BA 08 E2 07  .....Y..........
0500: 01 0B 80 0C 80 0D 80 0E  80 80 03 E2 07 01 80 08  ................
0510: E2 07 01 5C 00 1B 80 5C  01 1B 80 5C 02 1B 80 5C  ...\...\...\...\
0520: 03 1B 80 9A 45 15 80 F8  FF FF 7F F8 FF FF 7F 73  ....E..........s
0530: 31 33 36 01 80 1C 16 80  45 00 80 F8 FF FF 7F F8  136.....E.......
0540: FF FF 7F 66 64 69 31 01  80 1C 30 80 55 15 80 F8  ...fdi1...0.U...
0550: FF FF 7F F8 FF FF 7F 73  31 33 36 5B 10 80 03 E2  .......s136[....
0560: 07 01 03 E2 07 01 66 67  30 31 5B 31 80 03 E2 07  ......fg01[1....
0570: 01 03 E2 07 01 68 69 7A  63 1C 28 80 45 15 80 F8  .....hizc.(.E...
0580: FF FF 7F F8 FF FF 7F 73  31 33 35 01 80 4A F0 FF  .......s135..J..
0590: FF 7F 03 E2 07 01 2B 03  E2 07 01 32 80 23 2B 03  ......+....2.#+.
05A0: E2 07 01 39 80 23 55 15  80 F8 FF FF 7F F8 FF FF  ...9.#U.........
05B0: 7F 73 31 33 35 45 15 80  F8 FF FF 7F F8 FF FF 7F  .s135E..........
05C0: 73 31 33 37 01 80 D0 1C  80 08 E2 07 01 08 E2 07  s137............
05D0: 01 6D 61 69 6E 01 80 27  05 05 E2 07 01 04 5B 33  .main..'......[3
05E0: 80 05 E2 07 01 05 E2 07  01 66 75 6B 31 1C 30 80  .........fuk1.0.
05F0: 52 15 80 F8 FF FF 7F F8  FF FF 7F 73 31 33 37 45  R..........s137E
0600: 15 80 F8 FF FF 7F F8 FF  FF 7F 73 31 33 38 01 80  ..........s138..
0610: 1C 19 80 4A F0 FF FF 7F  05 E2 07 01 9F 34 80 F8  ...J.........4..
0620: FF FF 7F F8 FF FF 7F 73  74 72 30 01 80 1C 35 80  .......str0...5.
0630: 9F 34 80 F8 FF FF 7F F8  FF FF 7F 6B 69 6C 6C 01  .4.........kill.
0640: 80 1C 16 80 52 15 80 F8  FF FF 7F F8 FF FF 7F 73  ....R..........s
0650: 31 33 38 45 15 80 F8 FF  FF 7F F8 FF FF 7F 73 31  138E..........s1
0660: 33 39 01 80 6E F0 FF FF  7F 36 80 99 F0 FF FF 7F  39..n....6......
0670: 2B 03 E2 07 01 3A 80 1C  30 80 23 27 05 F0 FF FF  +....:..0.#'....
0680: 7F 22 52 15 80 F8 FF FF  7F F8 FF FF 7F 73 31 33  ."R..........s13
0690: 39 45 15 80 F8 FF FF 7F  F8 FF FF 7F 73 31 34 30  9E..........s140
06A0: 01 80 1C 19 80 5D 01 80  30 80 45 2E 80 F0 FF FF  .....]..0.E.....
06B0: 7F F0 FF FF 7F 77 68 6F  30 01 80 55 2E 80 F0 FF  .....who0..U....
06C0: FF 7F F0 FF FF 7F 77 68  6F 30 52 15 80 F8 FF FF  ......who0R.....
06D0: 7F F8 FF FF 7F 73 31 34  30 27 05 F0 FF FF 7F 23  .....s140'.....#
06E0: 45 00 80 F8 FF FF 7F F8  FF FF 7F 66 64 6F 31 01  E..........fdo1.
06F0: 80 55 00 80 F8 FF FF 7F  F8 FF FF 7F 66 64 6F 31  .U..........fdo1
0700: 45 2E 80 F0 FF FF 7F F0  FF FF 7F 77 68 69 30 01  E..........whi0.
0710: 80 55 2E 80 F0 FF FF 7F  F0 FF FF 7F 77 68 69 30  .U..........whi0
0720: 5C 00 01 80 5C 01 01 80  5C 02 3B 80 5C 03 3C 80  \...\...\.;.\.<.
0730: 9A 46 00 45 00 80 F8 FF  FF 7F F8 FF FF 7F 66 64  .F.E..........fd
0740: 69 32 01 80 21 00                                 i2..!.          
```

#### Opcodes

```
  0: 0x0001 [0x42] SET_CLI_EVENT_CANCEL_DATA()
  1: 0x0002 [0x03] ExtData[1]->WorkLocal[0] = Work_Zone[9]
  2: 0x0007 [0x45] LOAD_SCHEDULED_TASK: Load scheduler "fdo1" with entities [EventEntity, EventEntity], work=[200*, 0*]
  3: 0x0018 [0x55] WAIT_LOAD_SCHEDULER: Wait for scheduler "fdo1" with entities [EventEntity, EventEntity], work=200*
  4: 0x0027 [0x46] CAMERA_CONTROL: Disable user control
  5: 0x0029 [0x38] SET_CLIENT_EVENT_MODE(mode=27*)
  6: 0x002C [0x2F] Iroha (ID: 17293827/0x0107E203)->Render.Flags0 &= ~0x80000 // Bit 19
  7: 0x0032 [0x2F] Unnamed NPC (ID: 17293829/0x0107E205)->Render.Flags0 &= ~0x80000 // Bit 19
  8: 0x0038 [0x4E] SET_ENTITY_HIDE_FLAG: Show Unnamed NPC (ID: 17293829/0x0107E205)
  9: 0x003E [0x92] Iroha (ID: 17293827/0x0107E203)->Render.Flags3 ^= 0x01
 10: 0x0044 [0x92] Undulating Confluence (ID: 17293833/0x0107E209)->Render.Flags3 ^= 0x01
 11: 0x004A [0x94] Iroha (ID: 17293827/0x0107E203)->Render.Flags3 ^= 0x01
 12: 0x0050 [0x94] Unnamed NPC (ID: 17293829/0x0107E205)->Render.Flags3 ^= 0x01
 13: 0x0056 [0xBA] SET_ENTITY_POSITION(entity_id=Iroha (ID: 17293827/0x0107E203), pos_x=-204.092*, pos_z=83.436*, pos_y=-20.005*, direction=73.8°*)
 14: 0x0063 [0xBA] SET_ENTITY_POSITION(entity_id=LocalPlayer, pos_x=-200.197*, pos_z=73.505*, pos_y=-19.876*, direction=198.5°*)
 15: 0x0070 [0xBA] SET_ENTITY_POSITION(entity_id=Unnamed NPC (ID: 17293829/0x0107E205), pos_x=-195.716*, pos_z=65.253*, pos_y=-19.361*, direction=215.7°*)
 16: 0x007D [0x80] LOAD_WAIT(entity=LocalPlayer)
 17: 0x0082 [0x80] LOAD_WAIT(entity=Undulating Confluence (ID: 17293833/0x0107E209))
 18: 0x0087 [0x4A] Unnamed NPC (ID: 17293829/0x0107E205) looks at LocalPlayer
 19: 0x0090 [0x1C] WAIT(90* ticks)
 20: 0x0093 [0x81] SET_ENTITY_BLINKING(blink_flag=0x00, entity=Iroha (ID: 17293827/0x0107E203))
 21: 0x0099 [0x7C] Iroha (ID: 17293827/0x0107E203)->Render.Flags2 |= 0x00
 22: 0x009F [0x5B] LOAD_EXT_SCHEDULER: Load scheduler "fg00" with entities [Iroha (ID: 17293827/0x0107E203), Iroha (ID: 17293827/0x0107E203)], work=3858*
 23: 0x00AE [0x5B] LOAD_EXT_SCHEDULER: Load scheduler "hiz0" with entities [Iroha (ID: 17293827/0x0107E203), Iroha (ID: 17293827/0x0107E203)], work=3865*
 24: 0x00BD [0x2C] CREATE_SCHEDULER_TASK: Create scheduler "ids0" with entities [Unnamed NPC (ID: 17293829/0x0107E205), Unnamed NPC (ID: 17293829/0x0107E205)]
 25: 0x00CA [0x27] REQ_SET(priority=0x05, entity_id=Unnamed NPC (ID: 17293829/0x0107E205), tag_num=0x02)
 26: 0x00D1 [0x02] IF !(ExtData[1]->WorkLocal[0] == 0*) GOTO 0x04E3
 27: 0x00D9 [0x2F] Lion (ID: 17293828/0x0107E204)->Render.Flags0 &= ~0x80000 // Bit 19
 28: 0x00DF [0x4E] SET_ENTITY_HIDE_FLAG: Show Lion (ID: 17293828/0x0107E204)
 29: 0x00E5 [0x92] Lion (ID: 17293828/0x0107E204)->Render.Flags3 ^= 0x01
 30: 0x00EB [0x94] Lion (ID: 17293828/0x0107E204)->Render.Flags3 ^= 0x01
 31: 0x00F1 [0xBA] SET_ENTITY_POSITION(entity_id=Lion (ID: 17293828/0x0107E204), pos_x=-196.115*, pos_z=74.486*, pos_y=-19.932*, direction=198.5°*)
 32: 0x00FE [0x80] LOAD_WAIT(entity=Lion (ID: 17293828/0x0107E204))
 33: 0x0103 [0x27] REQ_SET(priority=0x05, entity_id=Lion (ID: 17293828/0x0107E204), tag_num=0x02)
 34: 0x010A [0x45] LOAD_SCHEDULED_TASK: Load scheduler "s130" with entities [EventEntity, EventEntity], work=[761*, 0*]
 35: 0x011B [0x1C] WAIT(15* ticks)
 36: 0x011E [0x45] LOAD_SCHEDULED_TASK: Load scheduler "fdi1" with entities [EventEntity, EventEntity], work=[200*, 0*]
 37: 0x012F [0x2B] Lion (ID: 17293828/0x0107E204) [12700*]:
    → "This...this is it."
 38: 0x0136 [0x23] WAIT_FOR_DIALOG_INTERACTION
 39: 0x0137 [0x2A] GET_REQ_LEVEL(level=5, entity_id=Lion (ID: 17293828/0x0107E204))
 40: 0x013D [0x52] END_LOAD_SCHEDULER: End scheduler "s130" with entities [EventEntity, EventEntity], work=761*
 41: 0x014C [0x45] LOAD_SCHEDULED_TASK: Load scheduler "s131" with entities [EventEntity, EventEntity], work=[761*, 0*]
 42: 0x015D [0x79] Lion (ID: 17293828/0x0107E204) looks at LocalPlayer (Basic look)
 43: 0x0167 [0x2B] Lion (ID: 17293828/0x0107E204) [12701*]:
    → "If the rumors are true, this vortex connects to another dimension."
 44: 0x016E [0x23] WAIT_FOR_DIALOG_INTERACTION
 45: 0x016F [0x52] END_LOAD_SCHEDULER: End scheduler "s131" with entities [EventEntity, EventEntity], work=761*
 46: 0x017E [0x45] LOAD_SCHEDULED_TASK: Load scheduler "s132" with entities [EventEntity, EventEntity], work=[761*, 0*]
 47: 0x018F [0x27] REQ_SET(priority=0x05, entity_id=Lion (ID: 17293828/0x0107E204), tag_num=0x03)
 48: 0x0196 [0x7B] Lion (ID: 17293828/0x0107E204) stops talking
 49: 0x019B [0x1C] WAIT(60* ticks)
 50: 0x019E [0x2B] Lion (ID: 17293828/0x0107E204) [12702*]:
    → "Do you suppose...it leads us to the future?"
 51: 0x01A5 [0x23] WAIT_FOR_DIALOG_INTERACTION
 52: 0x01A6 [0x2A] GET_REQ_LEVEL(level=5, entity_id=Lion (ID: 17293828/0x0107E204))
 53: 0x01AC [0x5C] MUSIC_CONTROL: Set Idle (Day) music to song 80*
 54: 0x01B0 [0x5C] MUSIC_CONTROL: Set Idle (Night) music to song 80*
 55: 0x01B4 [0x5C] MUSIC_CONTROL: Set Combat (Solo) music to song 80*
 56: 0x01B8 [0x5C] MUSIC_CONTROL: Set Combat (Party) music to song 80*
 57: 0x01BC [0x9A] WAIT_MUSIC_SERVER()
 58: 0x01BD [0x52] END_LOAD_SCHEDULER: End scheduler "s132" with entities [EventEntity, EventEntity], work=761*
 59: 0x01CC [0x45] LOAD_SCHEDULED_TASK: Load scheduler "s133" with entities [EventEntity, EventEntity], work=[761*, 0*]
 60: 0x01DD [0xD0] LOAD_SCHEDULED_TASK_ALT5: Load scheduler "main" with entities [Undulating Confluence (ID: 17293833/0x0107E209), Undulating Confluence (ID: 17293833/0x0107E209)], work=[110*, 0*]
 61: 0x01EE [0x1C] WAIT(30* ticks)
 62: 0x01F1 [0x81] SET_ENTITY_BLINKING(blink_flag=0x00, entity=Lion (ID: 17293828/0x0107E204))
 63: 0x01F7 [0x5B] LOAD_EXT_SCHEDULER: Load scheduler "kam0" with entities [Lion (ID: 17293828/0x0107E204), Lion (ID: 17293828/0x0107E204)], work=99*
 64: 0x0206 [0x1C] WAIT(30* ticks)
 65: 0x0209 [0x52] END_LOAD_SCHEDULER: End scheduler "s133" with entities [EventEntity, EventEntity], work=761*
 66: 0x0218 [0x45] LOAD_SCHEDULED_TASK: Load scheduler "s134" with entities [EventEntity, EventEntity], work=[761*, 0*]
 67: 0x0229 [0xD0] LOAD_SCHEDULED_TASK_ALT5: Load scheduler "main" with entities [Lion (ID: 17293828/0x0107E204), Lion (ID: 17293828/0x0107E204)], work=[123*, 0*]
 68: 0x023A [0x1C] WAIT(30* ticks)
 69: 0x023D [0x02] IF !(LocalPlayer->Race == 1*) GOTO 0x0257
 70: 0x0245 [0x66] LOAD_EXT_SCHEDULER_MAIN: Load scheduler "mab0" with entities [LocalPlayer, LocalPlayer], work=140*
 71: 0x0254 [0x01] GOTO 0x030D
 72: 0x0257 [0x02] IF !(LocalPlayer->Race == 2*) GOTO 0x0271
 73: 0x025F [0x66] LOAD_EXT_SCHEDULER_MAIN: Load scheduler "mab0" with entities [LocalPlayer, LocalPlayer], work=150*
 74: 0x026E [0x01] GOTO 0x030D
 75: 0x0271 [0x02] IF !(LocalPlayer->Race == 3*) GOTO 0x028B
 76: 0x0279 [0x66] LOAD_EXT_SCHEDULER_MAIN: Load scheduler "mab0" with entities [LocalPlayer, LocalPlayer], work=160*
 77: 0x0288 [0x01] GOTO 0x030D
 78: 0x028B [0x02] IF !(LocalPlayer->Race == 4*) GOTO 0x02A5
 79: 0x0293 [0x66] LOAD_EXT_SCHEDULER_MAIN: Load scheduler "mab0" with entities [LocalPlayer, LocalPlayer], work=170*
 80: 0x02A2 [0x01] GOTO 0x030D
 81: 0x02A5 [0x02] IF !(LocalPlayer->Race == 5*) GOTO 0x02BF
 82: 0x02AD [0x66] LOAD_EXT_SCHEDULER_MAIN: Load scheduler "mab0" with entities [LocalPlayer, LocalPlayer], work=180*
 83: 0x02BC [0x01] GOTO 0x030D
 84: 0x02BF [0x02] IF !(LocalPlayer->Race == 6*) GOTO 0x02D9
 85: 0x02C7 [0x66] LOAD_EXT_SCHEDULER_MAIN: Load scheduler "mab0" with entities [LocalPlayer, LocalPlayer], work=180*
 86: 0x02D6 [0x01] GOTO 0x030D
 87: 0x02D9 [0x02] IF !(LocalPlayer->Race == 7*) GOTO 0x02F3
 88: 0x02E1 [0x66] LOAD_EXT_SCHEDULER_MAIN: Load scheduler "mab0" with entities [LocalPlayer, LocalPlayer], work=190*
 89: 0x02F0 [0x01] GOTO 0x030D
 90: 0x02F3 [0x02] IF !(LocalPlayer->Race == 8*) GOTO 0x030D
 91: 0x02FB [0x66] LOAD_EXT_SCHEDULER_MAIN: Load scheduler "mab0" with entities [LocalPlayer, LocalPlayer], work=200*
 92: 0x030A [0x01] GOTO 0x030D

SUBROUTINE_030D:
 93: 0x030D [0x1C] WAIT(90* ticks)
 94: 0x0310 [0x45] LOAD_SCHEDULED_TASK: Load scheduler "who0" with entities [LocalPlayer, LocalPlayer], work=[201*, 0*]
 95: 0x0321 [0x55] WAIT_LOAD_SCHEDULER: Wait for scheduler "who0" with entities [LocalPlayer, LocalPlayer], work=201*
 96: 0x0330 [0x52] END_LOAD_SCHEDULER: End scheduler "s134" with entities [EventEntity, EventEntity], work=761*
 97: 0x033F [0x4E] SET_ENTITY_HIDE_FLAG: Hide Lion (ID: 17293828/0x0107E204)
 98: 0x0345 [0x6B] STOP_AND_IDLE: LocalPlayer stops current action and resets to idle (animation="idl0")
 99: 0x034E [0x2F] Unnamed NPC (ID: 17293832/0x0107E208)->Render.Flags0 &= ~0x80000 // Bit 19
100: 0x0354 [0x4E] SET_ENTITY_HIDE_FLAG: Show Unnamed NPC (ID: 17293832/0x0107E208)
101: 0x035A [0x4E] SET_ENTITY_HIDE_FLAG: Show Iroha (ID: 17293827/0x0107E203)
102: 0x0360 [0x59] UPDATE_ENTITY_DATA: Unnamed NPC (ID: 17293832/0x0107E208)->Render.Flags0 |= 0x200000
103: 0x0367 [0xBA] SET_ENTITY_POSITION(entity_id=Unnamed NPC (ID: 17293832/0x0107E208), pos_x=-195.716*, pos_z=65.253*, pos_y=-19.361*, direction=215.7°*)
104: 0x0374 [0x80] LOAD_WAIT(entity=Iroha (ID: 17293827/0x0107E203))
105: 0x0379 [0x80] LOAD_WAIT(entity=Unnamed NPC (ID: 17293832/0x0107E208))
106: 0x037E [0x45] LOAD_SCHEDULED_TASK: Load scheduler "s136" with entities [EventEntity, EventEntity], work=[761*, 0*]
107: 0x038F [0x1C] WAIT(15* ticks)
108: 0x0392 [0x45] LOAD_SCHEDULED_TASK: Load scheduler "whi1" with entities [LocalPlayer, LocalPlayer], work=[201*, 0*]
109: 0x03A3 [0x6E] LocalPlayer uses emote 29*
110: 0x03AA [0x99] Wait for LocalPlayer animation to complete
111: 0x03AF [0x1C] WAIT(120* ticks)
112: 0x03B2 [0x55] WAIT_LOAD_SCHEDULER: Wait for scheduler "s136" with entities [EventEntity, EventEntity], work=761*
113: 0x03C1 [0x5B] LOAD_EXT_SCHEDULER: Load scheduler "fg01" with entities [Iroha (ID: 17293827/0x0107E203), Iroha (ID: 17293827/0x0107E203)], work=3858*
114: 0x03D0 [0x5B] LOAD_EXT_SCHEDULER: Load scheduler "hizc" with entities [Iroha (ID: 17293827/0x0107E203), Iroha (ID: 17293827/0x0107E203)], work=3866*
115: 0x03DF [0x1C] WAIT(5* ticks)
116: 0x03E2 [0x45] LOAD_SCHEDULED_TASK: Load scheduler "s135" with entities [EventEntity, EventEntity], work=[761*, 0*]
117: 0x03F3 [0x4A] LocalPlayer looks at Iroha (ID: 17293827/0x0107E203)
118: 0x03FC [0x2B] Iroha (ID: 17293827/0x0107E203) [12703*]:
    → "Master! You must not get any closer!"
119: 0x0403 [0x23] WAIT_FOR_DIALOG_INTERACTION
120: 0x0404 [0x55] WAIT_LOAD_SCHEDULER: Wait for scheduler "s135" with entities [EventEntity, EventEntity], work=761*
121: 0x0413 [0x45] LOAD_SCHEDULED_TASK: Load scheduler "s137" with entities [EventEntity, EventEntity], work=[761*, 0*]
122: 0x0424 [0xD0] LOAD_SCHEDULED_TASK_ALT5: Load scheduler "main" with entities [Unnamed NPC (ID: 17293832/0x0107E208), Unnamed NPC (ID: 17293832/0x0107E208)], work=[110*, 0*]
123: 0x0435 [0x27] REQ_SET(priority=0x05, entity_id=Unnamed NPC (ID: 17293829/0x0107E205), tag_num=0x04)
124: 0x043C [0x5B] LOAD_EXT_SCHEDULER: Load scheduler "fuk1" with entities [Unnamed NPC (ID: 17293829/0x0107E205), Unnamed NPC (ID: 17293829/0x0107E205)], work=3881*
125: 0x044B [0x1C] WAIT(120* ticks)
126: 0x044E [0x52] END_LOAD_SCHEDULER: End scheduler "s137" with entities [EventEntity, EventEntity], work=761*
127: 0x045D [0x45] LOAD_SCHEDULED_TASK: Load scheduler "s138" with entities [EventEntity, EventEntity], work=[761*, 0*]
128: 0x046E [0x1C] WAIT(60* ticks)
129: 0x0471 [0x4A] LocalPlayer looks at Unnamed NPC (ID: 17293829/0x0107E205)
130: 0x047A [0x9F] LOAD_SCHEDULED_TASK_ALT: Load scheduler "str0" with entities [EventEntity, EventEntity], work=[127*, 0*]
131: 0x048B [0x1C] WAIT(45* ticks)
132: 0x048E [0x9F] LOAD_SCHEDULED_TASK_ALT: Load scheduler "kill" with entities [EventEntity, EventEntity], work=[127*, 0*]
133: 0x049F [0x1C] WAIT(15* ticks)
134: 0x04A2 [0x52] END_LOAD_SCHEDULER: End scheduler "s138" with entities [EventEntity, EventEntity], work=761*
135: 0x04B1 [0x45] LOAD_SCHEDULED_TASK: Load scheduler "s139" with entities [EventEntity, EventEntity], work=[761*, 0*]
136: 0x04C2 [0x6E] LocalPlayer uses emote 21*
137: 0x04C9 [0x99] Wait for LocalPlayer animation to complete
138: 0x04CE [0x2B] Iroha (ID: 17293827/0x0107E203) [12705*]:
    → "I understand your desire to save Lion..."
139: 0x04D5 [0x1C] WAIT(120* ticks)
140: 0x04D8 [0x2B] Iroha (ID: 17293827/0x0107E203) [12706*]:
    → "...but you must stop that beast first!"
141: 0x04DF [0x23] WAIT_FOR_DIALOG_INTERACTION
142: 0x04E0 [0x01] GOTO 0x067B
143: 0x04E3 [0x2F] Unnamed NPC (ID: 17293832/0x0107E208)->Render.Flags0 &= ~0x80000 // Bit 19
144: 0x04E9 [0x4E] SET_ENTITY_HIDE_FLAG: Show Unnamed NPC (ID: 17293832/0x0107E208)
145: 0x04EF [0x4E] SET_ENTITY_HIDE_FLAG: Show Iroha (ID: 17293827/0x0107E203)
146: 0x04F5 [0x59] UPDATE_ENTITY_DATA: Unnamed NPC (ID: 17293832/0x0107E208)->Render.Flags0 |= 0x200000
147: 0x04FC [0xBA] SET_ENTITY_POSITION(entity_id=Unnamed NPC (ID: 17293832/0x0107E208), pos_x=-195.716*, pos_z=65.253*, pos_y=-19.361*, direction=215.7°*)
148: 0x0509 [0x80] LOAD_WAIT(entity=Iroha (ID: 17293827/0x0107E203))
149: 0x050E [0x80] LOAD_WAIT(entity=Unnamed NPC (ID: 17293832/0x0107E208))
150: 0x0513 [0x5C] MUSIC_CONTROL: Set Idle (Day) music to song 80*
151: 0x0517 [0x5C] MUSIC_CONTROL: Set Idle (Night) music to song 80*
152: 0x051B [0x5C] MUSIC_CONTROL: Set Combat (Solo) music to song 80*
153: 0x051F [0x5C] MUSIC_CONTROL: Set Combat (Party) music to song 80*
154: 0x0523 [0x9A] WAIT_MUSIC_SERVER()
155: 0x0524 [0x45] LOAD_SCHEDULED_TASK: Load scheduler "s136" with entities [EventEntity, EventEntity], work=[761*, 0*]
156: 0x0535 [0x1C] WAIT(15* ticks)
157: 0x0538 [0x45] LOAD_SCHEDULED_TASK: Load scheduler "fdi1" with entities [EventEntity, EventEntity], work=[200*, 0*]
158: 0x0549 [0x1C] WAIT(120* ticks)
159: 0x054C [0x55] WAIT_LOAD_SCHEDULER: Wait for scheduler "s136" with entities [EventEntity, EventEntity], work=761*
160: 0x055B [0x5B] LOAD_EXT_SCHEDULER: Load scheduler "fg01" with entities [Iroha (ID: 17293827/0x0107E203), Iroha (ID: 17293827/0x0107E203)], work=3858*
161: 0x056A [0x5B] LOAD_EXT_SCHEDULER: Load scheduler "hizc" with entities [Iroha (ID: 17293827/0x0107E203), Iroha (ID: 17293827/0x0107E203)], work=3866*
162: 0x0579 [0x1C] WAIT(5* ticks)
163: 0x057C [0x45] LOAD_SCHEDULED_TASK: Load scheduler "s135" with entities [EventEntity, EventEntity], work=[761*, 0*]
164: 0x058D [0x4A] LocalPlayer looks at Iroha (ID: 17293827/0x0107E203)
165: 0x0596 [0x2B] Iroha (ID: 17293827/0x0107E203) [12703*]:
    → "Master! You must not get any closer!"
166: 0x059D [0x23] WAIT_FOR_DIALOG_INTERACTION
167: 0x059E [0x2B] Iroha (ID: 17293827/0x0107E203) [12704*]:
    → "That eddy is comprised of the selfsame darkness that swallowed the Vana'diel of my era!"
168: 0x05A5 [0x23] WAIT_FOR_DIALOG_INTERACTION
169: 0x05A6 [0x55] WAIT_LOAD_SCHEDULER: Wait for scheduler "s135" with entities [EventEntity, EventEntity], work=761*
170: 0x05B5 [0x45] LOAD_SCHEDULED_TASK: Load scheduler "s137" with entities [EventEntity, EventEntity], work=[761*, 0*]
171: 0x05C6 [0xD0] LOAD_SCHEDULED_TASK_ALT5: Load scheduler "main" with entities [Unnamed NPC (ID: 17293832/0x0107E208), Unnamed NPC (ID: 17293832/0x0107E208)], work=[110*, 0*]
172: 0x05D7 [0x27] REQ_SET(priority=0x05, entity_id=Unnamed NPC (ID: 17293829/0x0107E205), tag_num=0x04)
173: 0x05DE [0x5B] LOAD_EXT_SCHEDULER: Load scheduler "fuk1" with entities [Unnamed NPC (ID: 17293829/0x0107E205), Unnamed NPC (ID: 17293829/0x0107E205)], work=3881*
174: 0x05ED [0x1C] WAIT(120* ticks)
175: 0x05F0 [0x52] END_LOAD_SCHEDULER: End scheduler "s137" with entities [EventEntity, EventEntity], work=761*
176: 0x05FF [0x45] LOAD_SCHEDULED_TASK: Load scheduler "s138" with entities [EventEntity, EventEntity], work=[761*, 0*]
177: 0x0610 [0x1C] WAIT(60* ticks)
178: 0x0613 [0x4A] LocalPlayer looks at Unnamed NPC (ID: 17293829/0x0107E205)
179: 0x061C [0x9F] LOAD_SCHEDULED_TASK_ALT: Load scheduler "str0" with entities [EventEntity, EventEntity], work=[127*, 0*]
180: 0x062D [0x1C] WAIT(45* ticks)
181: 0x0630 [0x9F] LOAD_SCHEDULED_TASK_ALT: Load scheduler "kill" with entities [EventEntity, EventEntity], work=[127*, 0*]
182: 0x0641 [0x1C] WAIT(15* ticks)
183: 0x0644 [0x52] END_LOAD_SCHEDULER: End scheduler "s138" with entities [EventEntity, EventEntity], work=761*
184: 0x0653 [0x45] LOAD_SCHEDULED_TASK: Load scheduler "s139" with entities [EventEntity, EventEntity], work=[761*, 0*]
185: 0x0664 [0x6E] LocalPlayer uses emote 21*
186: 0x066B [0x99] Wait for LocalPlayer animation to complete
187: 0x0670 [0x2B] Iroha (ID: 17293827/0x0107E203) [12707*]:
    → "Master, you must stop that beast!"
188: 0x0677 [0x1C] WAIT(120* ticks)
189: 0x067A [0x23] WAIT_FOR_DIALOG_INTERACTION

SUBROUTINE_067B:
190: 0x067B [0x27] REQ_SET(priority=0x05, entity_id=LocalPlayer, tag_num=0x22)
191: 0x0682 [0x52] END_LOAD_SCHEDULER: End scheduler "s139" with entities [EventEntity, EventEntity], work=761*
192: 0x0691 [0x45] LOAD_SCHEDULED_TASK: Load scheduler "s140" with entities [EventEntity, EventEntity], work=[761*, 0*]
193: 0x06A2 [0x1C] WAIT(60* ticks)
194: 0x06A5 [0x5D] SET_MUSIC_VOLUME(volume=0*, fade_time=120*)
195: 0x06AA [0x45] LOAD_SCHEDULED_TASK: Load scheduler "who0" with entities [LocalPlayer, LocalPlayer], work=[201*, 0*]
196: 0x06BB [0x55] WAIT_LOAD_SCHEDULER: Wait for scheduler "who0" with entities [LocalPlayer, LocalPlayer], work=201*
197: 0x06CA [0x52] END_LOAD_SCHEDULER: End scheduler "s140" with entities [EventEntity, EventEntity], work=761*
198: 0x06D9 [0x27] REQ_SET(priority=0x05, entity_id=LocalPlayer, tag_num=0x23)
199: 0x06E0 [0x45] LOAD_SCHEDULED_TASK: Load scheduler "fdo1" with entities [EventEntity, EventEntity], work=[200*, 0*]
200: 0x06F1 [0x55] WAIT_LOAD_SCHEDULER: Wait for scheduler "fdo1" with entities [EventEntity, EventEntity], work=200*
201: 0x0700 [0x45] LOAD_SCHEDULED_TASK: Load scheduler "whi0" with entities [LocalPlayer, LocalPlayer], work=[201*, 0*]
202: 0x0711 [0x55] WAIT_LOAD_SCHEDULER: Wait for scheduler "whi0" with entities [LocalPlayer, LocalPlayer], work=201*
203: 0x0720 [0x5C] MUSIC_CONTROL: Set Idle (Day) music to song 0*
204: 0x0724 [0x5C] MUSIC_CONTROL: Set Idle (Night) music to song 0*
205: 0x0728 [0x5C] MUSIC_CONTROL: Set Combat (Solo) music to song 101*
206: 0x072C [0x5C] MUSIC_CONTROL: Set Combat (Party) music to song 103*
207: 0x0730 [0x9A] WAIT_MUSIC_SERVER()
208: 0x0731 [0x46] CAMERA_CONTROL: Restore default settings
209: 0x0733 [0x45] LOAD_SCHEDULED_TASK: Load scheduler "fdi2" with entities [EventEntity, EventEntity], work=[200*, 0*]
210: 0x0744 [0x21] END_EVENT
211: 0x0745 [0x00] END_REQSTACK()
```

### Event 64

#### Metadata

| Field        | Value      |
|--------------|------------|
| Entrypoint   | 0x0746     |
| Data Size    | 1469 bytes |
| Instructions | 165        |

```
      00 01 02 03 04 05 06 07  08 09 0A 0B 0C 0D 0E 0F
      -- -- -- -- -- -- -- --  -- -- -- -- -- -- -- --
0740:                   42 03  01 00 08 10 03 00 00 09        B.........
0750: 10 45 00 80 F8 FF FF 7F  F8 FF FF 7F 66 64 6F 31  .E..........fdo1
0760: 01 80 55 00 80 F8 FF FF  7F F8 FF FF 7F 66 64 6F  ..U..........fdo
0770: 31 46 01 38 02 80 2F 00  03 E2 07 01 2F 00 05 E2  1F.8../...../...
0780: 07 01 2F 00 06 E2 07 01  2F 00 07 E2 07 01 4E 00  ../...../.....N.
0790: 03 E2 07 01 4E 00 05 E2  07 01 4E 00 07 E2 07 01  ....N.....N.....
07A0: 92 01 03 E2 07 01 92 01  06 E2 07 01 92 01 09 E2  ................
07B0: 07 01 94 01 03 E2 07 01  94 01 05 E2 07 01 94 01  ................
07C0: 06 E2 07 01 94 01 07 E2  07 01 BA 03 E2 07 01 3D  ...............=
07D0: 80 3E 80 3F 80 0A 80 BA  F0 FF FF 7F 07 80 08 80  .>.?............
07E0: 09 80 0A 80 BA 05 E2 07  01 40 80 41 80 42 80 43  .........@.A.B.C
07F0: 80 BA 06 E2 07 01 44 80  45 80 46 80 47 80 BA 07  ......D.E.F.G...
0800: E2 07 01 48 80 49 80 4A  80 4B 80 80 F0 FF FF 7F  ...H.I.J.K......
0810: 80 03 E2 07 01 80 05 E2  07 01 80 07 E2 07 01 80  ................
0820: 09 E2 07 01 4A F0 FF FF  7F 05 E2 07 01 4A 03 E2  ....J........J..
0830: 07 01 05 E2 07 01 4A 06  E2 07 01 F0 FF FF 7F 7B  ......J........{
0840: 06 E2 07 01 1C 1D 80 2C  05 E2 07 01 05 E2 07 01  .......,........
0850: 69 64 73 30 27 05 F0 FF  FF 7F 22 5C 02 01 80 5C  ids0'....."\...\
0860: 03 01 80 9A 45 15 80 F8  FF FF 7F F8 FF FF 7F 73  ....E..........s
0870: 31 31 31 01 80 1C 16 80  45 00 80 F8 FF FF 7F F8  111.....E.......
0880: FF FF 7F 66 64 69 31 01  80 2C 05 E2 07 01 05 E2  ...fdi1..,......
0890: 07 01 64 65 61 64 1C 30  80 52 15 80 F8 FF FF 7F  ..dead.0.R......
08A0: F8 FF FF 7F 73 31 31 31  45 15 80 F8 FF FF 7F F8  ....s111E.......
08B0: FF FF 7F 73 31 34 31 01  80 27 05 F0 FF FF 7F 23  ...s141..'.....#
08C0: 1C 1D 80 9F 34 80 F8 FF  FF 7F F8 FF FF 7F 73 74  ....4.........st
08D0: 72 30 01 80 1C 35 80 9F  34 80 F8 FF FF 7F F8 FF  r0...5..4.......
08E0: FF 7F 6B 69 6C 6C 01 80  1C 19 80 52 15 80 F8 FF  ..kill.....R....
08F0: FF 7F F8 FF FF 7F 73 31  34 31 45 15 80 F8 FF FF  ......s141E.....
0900: 7F F8 FF FF 7F 73 31 34  32 01 80 4A 03 E2 07 01  .....s142..J....
0910: F0 FF FF 7F 1C 1D 80 4A  F0 FF FF 7F 03 E2 07 01  .......J........
0920: 2B 03 E2 07 01 4C 80 23  2B 03 E2 07 01 4D 80 23  +....L.#+....M.#
0930: 52 15 80 F8 FF FF 7F F8  FF FF 7F 73 31 34 32 45  R..........s142E
0940: 15 80 F8 FF FF 7F F8 FF  FF 7F 73 31 34 33 01 80  ..........s143..
0950: 5F 05 4E 80 03 E2 07 01  03 E2 07 01 79 65 73 30  _.N.........yes0
0960: 4F 80 02 00 00 01 80 00  75 09 2B 03 E2 07 01 50  O.......u.+....P
0970: 80 23 01 7D 09 2B 03 E2  07 01 51 80 23 2B 03 E2  .#.}.+....Q.#+..
0980: 07 01 52 80 23 5F 07 03  E2 07 01 03 E2 07 01 79  ..R.#_.........y
0990: 65 73 30 52 15 80 F8 FF  FF 7F F8 FF FF 7F 73 31  es0R..........s1
09A0: 34 33 5B 53 80 07 E2 07  01 07 E2 07 01 6B 61 6D  43[S.........kam
09B0: 30 6E F0 FF FF 7F 2B 80  99 F0 FF FF 7F 1C 0F 80  0n....+.........
09C0: 27 05 03 E2 07 01 03 7B  03 E2 07 01 1C 19 80 4A  '......{.......J
09D0: F0 FF FF 7F 09 E2 07 01  1C 1D 80 D0 1C 80 09 E2  ................
09E0: 07 01 09 E2 07 01 6D 61  69 6E 01 80 27 05 F0 FF  ......main..'...
09F0: FF 7F 35 1C 1D 80 D0 1F  80 03 E2 07 01 03 E2 07  ..5.............
0A00: 01 6D 61 69 6E 01 80 1C  19 80 D0 1F 80 F0 FF FF  .main...........
0A10: 7F F0 FF FF 7F 6D 61 69  6E 01 80 1C 0F 80 45 2E  .....main.....E.
0A20: 80 F0 FF FF 7F F0 FF FF  7F 77 68 6F 30 01 80 55  .........who0..U
0A30: 2E 80 F0 FF FF 7F F0 FF  FF 7F 77 68 6F 30 5F 03  ..........who0_.
0A40: 54 80 07 E2 07 01 07 E2  07 01 63 6D 6F 66 5F 02  T.........cmof_.
0A50: 07 E2 07 01 4E 01 F0 FF  FF 7F 27 05 03 E2 07 01  ....N.....'.....
0A60: 04 BA 03 E2 07 01 55 80  56 80 57 80 58 80 4E 00  ......U.V.W.X.N.
0A70: 06 E2 07 01 80 06 E2 07  01 1C 1D 80 5B 33 80 05  ............[3..
0A80: E2 07 01 05 E2 07 01 66  75 6B 6C 5B 59 80 06 E2  .......fukl[Y...
0A90: 07 01 06 E2 07 01 6B 72  75 30 D0 5A 80 06 E2 07  ......kru0.Z....
0AA0: 01 06 E2 07 01 6B 30 30  30 01 80 2C 03 E2 07 01  .....k000..,....
0AB0: 03 E2 07 01 69 64 73 30  1C 1D 80 45 15 80 F8 FF  ....ids0...E....
0AC0: FF 7F F8 FF FF 7F 73 31  34 34 01 80 1C 16 80 45  ......s144.....E
0AD0: 2E 80 F0 FF FF 7F F0 FF  FF 7F 77 68 69 31 01 80  ..........whi1..
0AE0: 1C 00 80 52 15 80 F8 FF  FF 7F F8 FF FF 7F 73 31  ...R..........s1
0AF0: 34 34 45 15 80 F8 FF FF  7F F8 FF FF 7F 73 31 34  44E..........s14
0B00: 35 01 80 5B 59 80 06 E2  07 01 06 E2 07 01 6B 72  5..[Y.........kr
0B10: 75 31 1C 30 80 D0 5A 80  06 E2 07 01 06 E2 07 01  u1.0..Z.........
0B20: 6B 30 30 31 01 80 2B 06  E2 07 01 5B 80 1C 27 80  k001..+....[..'.
0B30: 23 52 15 80 F8 FF FF 7F  F8 FF FF 7F 73 31 34 35  #R..........s145
0B40: 45 15 80 F8 FF FF 7F F8  FF FF 7F 73 31 39 39 01  E..........s199.
0B50: 80 D0 5C 80 06 E2 07 01  06 E2 07 01 6B 30 30 30  ..\.........k000
0B60: 01 80 D0 5A 80 06 E2 07  01 06 E2 07 01 6B 73 74  ...Z.........kst
0B70: 30 01 80 1C 5D 80 5B 33  80 05 E2 07 01 05 E2 07  0...].[3........
0B80: 01 66 75 6B 30 D0 5E 80  05 E2 07 01 05 E2 07 01  .fuk0.^.........
0B90: 62 30 30 30 01 80 1C 19  80 52 15 80 F8 FF FF 7F  b000.....R......
0BA0: F8 FF FF 7F 73 31 39 39  45 15 80 F8 FF FF 7F F8  ....s199E.......
0BB0: FF FF 7F 73 31 34 36 01  80 1C 30 80 52 15 80 F8  ...s146...0.R...
0BC0: FF FF 7F F8 FF FF 7F 73  31 34 36 45 15 80 F8 FF  .......s146E....
0BD0: FF 7F F8 FF FF 7F 73 31  34 39 01 80 27 05 03 E2  ......s149..'...
0BE0: 07 01 05 5B 33 80 03 E2  07 01 03 E2 07 01 66 75  ...[3.........fu
0BF0: 6B 31 D0 5E 80 03 E2 07  01 03 E2 07 01 62 30 30  k1.^.........b00
0C00: 31 01 80 45 15 80 F8 FF  FF 7F F8 FF FF 7F 62 30  1..E..........b0
0C10: 30 31 01 80 1C 5F 80 52  15 80 F8 FF FF 7F F8 FF  01..._.R........
0C20: FF 7F 73 31 34 39 45 15  80 F8 FF FF 7F F8 FF FF  ..s149E.........
0C30: 7F 73 31 34 37 01 80 1C  30 80 52 15 80 F8 FF FF  .s147...0.R.....
0C40: 7F F8 FF FF 7F 73 31 34  37 45 15 80 F8 FF FF 7F  .....s147E......
0C50: F8 FF FF 7F 73 31 34 38  01 80 1C 19 80 9F 34 80  ....s148......4.
0C60: F8 FF FF 7F F8 FF FF 7F  73 74 72 30 01 80 1C 35  ........str0...5
0C70: 80 9F 34 80 F8 FF FF 7F  F8 FF FF 7F 6B 69 6C 6C  ..4.........kill
0C80: 01 80 1C 19 80 45 00 80  F8 FF FF 7F F8 FF FF 7F  .....E..........
0C90: 66 64 6F 31 01 80 55 00  80 F8 FF FF 7F F8 FF FF  fdo1..U.........
0CA0: 7F 66 64 6F 31 52 15 80  F8 FF FF 7F F8 FF FF 7F  .fdo1R..........
0CB0: 73 31 34 38 45 15 80 F8  FF FF 7F F8 FF FF 7F 62  s148E..........b
0CC0: 6C 6F 66 01 80 27 05 03  E2 07 01 06 6C F0 FF FF  lof..'......l...
0CD0: 7F 60 80 20 80 02 01 00  01 80 00 E5 0C 30 03 01  .`. .........0..
0CE0: 10 20 80 21 00 5C 02 3B  80 5C 03 3C 80 9A 46 00  . .!.\.;.\.<..F.
0CF0: 45 00 80 F8 FF FF 7F F8  FF FF 7F 66 64 69 32 01  E..........fdi2.
0D00: 80 21 00                                          .!.             
```

#### Opcodes

```
  0: 0x0746 [0x42] SET_CLI_EVENT_CANCEL_DATA()
  1: 0x0747 [0x03] ExtData[1]->WorkLocal[1] = Work_Zone[8]
  2: 0x074C [0x03] ExtData[1]->WorkLocal[0] = Work_Zone[9]
  3: 0x0751 [0x45] LOAD_SCHEDULED_TASK: Load scheduler "fdo1" with entities [EventEntity, EventEntity], work=[200*, 0*]
  4: 0x0762 [0x55] WAIT_LOAD_SCHEDULER: Wait for scheduler "fdo1" with entities [EventEntity, EventEntity], work=200*
  5: 0x0771 [0x46] CAMERA_CONTROL: Disable user control
  6: 0x0773 [0x38] SET_CLIENT_EVENT_MODE(mode=27*)
  7: 0x0776 [0x2F] Iroha (ID: 17293827/0x0107E203)->Render.Flags0 &= ~0x80000 // Bit 19
  8: 0x077C [0x2F] Unnamed NPC (ID: 17293829/0x0107E205)->Render.Flags0 &= ~0x80000 // Bit 19
  9: 0x0782 [0x2F] ??? (ID: 17293830/0x0107E206)->Render.Flags0 &= ~0x80000 // Bit 19
 10: 0x0788 [0x2F] Unnamed NPC (ID: 17293831/0x0107E207)->Render.Flags0 &= ~0x80000 // Bit 19
 11: 0x078E [0x4E] SET_ENTITY_HIDE_FLAG: Show Iroha (ID: 17293827/0x0107E203)
 12: 0x0794 [0x4E] SET_ENTITY_HIDE_FLAG: Show Unnamed NPC (ID: 17293829/0x0107E205)
 13: 0x079A [0x4E] SET_ENTITY_HIDE_FLAG: Show Unnamed NPC (ID: 17293831/0x0107E207)
 14: 0x07A0 [0x92] Iroha (ID: 17293827/0x0107E203)->Render.Flags3 ^= 0x01
 15: 0x07A6 [0x92] ??? (ID: 17293830/0x0107E206)->Render.Flags3 ^= 0x01
 16: 0x07AC [0x92] Undulating Confluence (ID: 17293833/0x0107E209)->Render.Flags3 ^= 0x01
 17: 0x07B2 [0x94] Iroha (ID: 17293827/0x0107E203)->Render.Flags3 ^= 0x01
 18: 0x07B8 [0x94] Unnamed NPC (ID: 17293829/0x0107E205)->Render.Flags3 ^= 0x01
 19: 0x07BE [0x94] ??? (ID: 17293830/0x0107E206)->Render.Flags3 ^= 0x01
 20: 0x07C4 [0x94] Unnamed NPC (ID: 17293831/0x0107E207)->Render.Flags3 ^= 0x01
 21: 0x07CA [0xBA] SET_ENTITY_POSITION(entity_id=Iroha (ID: 17293827/0x0107E203), pos_x=-199.767*, pos_z=75.269*, pos_y=-19.964*, direction=198.5°*)
 22: 0x07D7 [0xBA] SET_ENTITY_POSITION(entity_id=LocalPlayer, pos_x=-200.197*, pos_z=73.505*, pos_y=-19.876*, direction=198.5°*)
 23: 0x07E4 [0xBA] SET_ENTITY_POSITION(entity_id=Unnamed NPC (ID: 17293829/0x0107E205), pos_x=-188.045*, pos_z=67.915*, pos_y=-20.004*, direction=206.2°*)
 24: 0x07F1 [0xBA] SET_ENTITY_POSITION(entity_id=??? (ID: 17293830/0x0107E206), pos_x=-185.693*, pos_z=57.778*, pos_y=-19.606*, direction=283.7°*)
 25: 0x07FE [0xBA] SET_ENTITY_POSITION(entity_id=Unnamed NPC (ID: 17293831/0x0107E207), pos_x=-194.079*, pos_z=67.516*, pos_y=-19.752*, direction=223.2°*)
 26: 0x080B [0x80] LOAD_WAIT(entity=LocalPlayer)
 27: 0x0810 [0x80] LOAD_WAIT(entity=Iroha (ID: 17293827/0x0107E203))
 28: 0x0815 [0x80] LOAD_WAIT(entity=Unnamed NPC (ID: 17293829/0x0107E205))
 29: 0x081A [0x80] LOAD_WAIT(entity=Unnamed NPC (ID: 17293831/0x0107E207))
 30: 0x081F [0x80] LOAD_WAIT(entity=Undulating Confluence (ID: 17293833/0x0107E209))
 31: 0x0824 [0x4A] LocalPlayer looks at Unnamed NPC (ID: 17293829/0x0107E205)
 32: 0x082D [0x4A] Iroha (ID: 17293827/0x0107E203) looks at Unnamed NPC (ID: 17293829/0x0107E205)
 33: 0x0836 [0x4A] ??? (ID: 17293830/0x0107E206) looks at LocalPlayer
 34: 0x083F [0x7B] ??? (ID: 17293830/0x0107E206) stops talking
 35: 0x0844 [0x1C] WAIT(30* ticks)
 36: 0x0847 [0x2C] CREATE_SCHEDULER_TASK: Create scheduler "ids0" with entities [Unnamed NPC (ID: 17293829/0x0107E205), Unnamed NPC (ID: 17293829/0x0107E205)]
 37: 0x0854 [0x27] REQ_SET(priority=0x05, entity_id=LocalPlayer, tag_num=0x22)
 38: 0x085B [0x5C] MUSIC_CONTROL: Set Combat (Solo) music to song 0*
 39: 0x085F [0x5C] MUSIC_CONTROL: Set Combat (Party) music to song 0*
 40: 0x0863 [0x9A] WAIT_MUSIC_SERVER()
 41: 0x0864 [0x45] LOAD_SCHEDULED_TASK: Load scheduler "s111" with entities [EventEntity, EventEntity], work=[761*, 0*]
 42: 0x0875 [0x1C] WAIT(15* ticks)
 43: 0x0878 [0x45] LOAD_SCHEDULED_TASK: Load scheduler "fdi1" with entities [EventEntity, EventEntity], work=[200*, 0*]
 44: 0x0889 [0x2C] CREATE_SCHEDULER_TASK: Create scheduler "dead" with entities [Unnamed NPC (ID: 17293829/0x0107E205), Unnamed NPC (ID: 17293829/0x0107E205)]
 45: 0x0896 [0x1C] WAIT(120* ticks)
 46: 0x0899 [0x52] END_LOAD_SCHEDULER: End scheduler "s111" with entities [EventEntity, EventEntity], work=761*
 47: 0x08A8 [0x45] LOAD_SCHEDULED_TASK: Load scheduler "s141" with entities [EventEntity, EventEntity], work=[761*, 0*]
 48: 0x08B9 [0x27] REQ_SET(priority=0x05, entity_id=LocalPlayer, tag_num=0x23)
 49: 0x08C0 [0x1C] WAIT(30* ticks)
 50: 0x08C3 [0x9F] LOAD_SCHEDULED_TASK_ALT: Load scheduler "str0" with entities [EventEntity, EventEntity], work=[127*, 0*]
 51: 0x08D4 [0x1C] WAIT(45* ticks)
 52: 0x08D7 [0x9F] LOAD_SCHEDULED_TASK_ALT: Load scheduler "kill" with entities [EventEntity, EventEntity], work=[127*, 0*]
 53: 0x08E8 [0x1C] WAIT(60* ticks)
 54: 0x08EB [0x52] END_LOAD_SCHEDULER: End scheduler "s141" with entities [EventEntity, EventEntity], work=761*
 55: 0x08FA [0x45] LOAD_SCHEDULED_TASK: Load scheduler "s142" with entities [EventEntity, EventEntity], work=[761*, 0*]
 56: 0x090B [0x4A] Iroha (ID: 17293827/0x0107E203) looks at LocalPlayer
 57: 0x0914 [0x1C] WAIT(30* ticks)
 58: 0x0917 [0x4A] LocalPlayer looks at Iroha (ID: 17293827/0x0107E203)
 59: 0x0920 [0x2B] Iroha (ID: 17293827/0x0107E203) [12708*]:
    → "A battle worthy of the master!"
 60: 0x0927 [0x23] WAIT_FOR_DIALOG_INTERACTION
 61: 0x0928 [0x2B] Iroha (ID: 17293827/0x0107E203) [12709*]:
    → "Forgive me for pointing out the obvious, but that monster clearly came from beyond the vortex."
 62: 0x092F [0x23] WAIT_FOR_DIALOG_INTERACTION
 63: 0x0930 [0x52] END_LOAD_SCHEDULER: End scheduler "s142" with entities [EventEntity, EventEntity], work=761*
 64: 0x093F [0x45] LOAD_SCHEDULED_TASK: Load scheduler "s143" with entities [EventEntity, EventEntity], work=[761*, 0*]
 65: 0x0950 [0x5F] MULTI_HANDLER_COMPLEX(mode=0x05 - Load ext scheduler with flag (OpCode 0x5B mode 0, flag 1), ref=3862*, entity1=Iroha (ID: 17293827/0x0107E203), entity2=Iroha (ID: 17293827/0x0107E203), string="yes0", extra=130*)
 66: 0x0962 [0x02] IF !(ExtData[1]->WorkLocal[0] == 0*) GOTO 0x0975
 67: 0x096A [0x2B] Iroha (ID: 17293827/0x0107E203) [12710*]:
    → "But we must not let fear overwhelm us. Come, Lion needs saving!"
 68: 0x0971 [0x23] WAIT_FOR_DIALOG_INTERACTION
 69: 0x0972 [0x01] GOTO 0x097D
 70: 0x0975 [0x2B] Iroha (ID: 17293827/0x0107E203) [12711*]:
    → "But we must not let fear overwhelm us. Come!"
 71: 0x097C [0x23] WAIT_FOR_DIALOG_INTERACTION

SUBROUTINE_097D:
 72: 0x097D [0x2B] Iroha (ID: 17293827/0x0107E203) [12712*]:
    → "The other dimension awaits!"
 73: 0x0984 [0x23] WAIT_FOR_DIALOG_INTERACTION
 74: 0x0985 [0x5F] MULTI_HANDLER_COMPLEX(mode=0x07 - Wait scheduler task (OpCode 0x53))
 75: 0x0993 [0x52] END_LOAD_SCHEDULER: End scheduler "s143" with entities [EventEntity, EventEntity], work=761*
 76: 0x09A2 [0x5B] LOAD_EXT_SCHEDULER: Load scheduler "kam0" with entities [Unnamed NPC (ID: 17293831/0x0107E207), Unnamed NPC (ID: 17293831/0x0107E207)], work=3438*
 77: 0x09B1 [0x6E] LocalPlayer uses emote 7*
 78: 0x09B8 [0x99] Wait for LocalPlayer animation to complete
 79: 0x09BD [0x1C] WAIT(90* ticks)
 80: 0x09C0 [0x27] REQ_SET(priority=0x05, entity_id=Iroha (ID: 17293827/0x0107E203), tag_num=0x03)
 81: 0x09C7 [0x7B] Iroha (ID: 17293827/0x0107E203) stops talking
 82: 0x09CC [0x1C] WAIT(60* ticks)
 83: 0x09CF [0x4A] LocalPlayer looks at Undulating Confluence (ID: 17293833/0x0107E209)
 84: 0x09D8 [0x1C] WAIT(30* ticks)
 85: 0x09DB [0xD0] LOAD_SCHEDULED_TASK_ALT5: Load scheduler "main" with entities [Undulating Confluence (ID: 17293833/0x0107E209), Undulating Confluence (ID: 17293833/0x0107E209)], work=[110*, 0*]
 86: 0x09EC [0x27] REQ_SET(priority=0x05, entity_id=LocalPlayer, tag_num=0x35)
 87: 0x09F3 [0x1C] WAIT(30* ticks)
 88: 0x09F6 [0xD0] LOAD_SCHEDULED_TASK_ALT5: Load scheduler "main" with entities [Iroha (ID: 17293827/0x0107E203), Iroha (ID: 17293827/0x0107E203)], work=[123*, 0*]
 89: 0x0A07 [0x1C] WAIT(60* ticks)
 90: 0x0A0A [0xD0] LOAD_SCHEDULED_TASK_ALT5: Load scheduler "main" with entities [LocalPlayer, LocalPlayer], work=[123*, 0*]
 91: 0x0A1B [0x1C] WAIT(90* ticks)
 92: 0x0A1E [0x45] LOAD_SCHEDULED_TASK: Load scheduler "who0" with entities [LocalPlayer, LocalPlayer], work=[201*, 0*]
 93: 0x0A2F [0x55] WAIT_LOAD_SCHEDULER: Wait for scheduler "who0" with entities [LocalPlayer, LocalPlayer], work=201*
 94: 0x0A3E [0x5F] MULTI_HANDLER_COMPLEX(mode=0x03 - Load ext scheduler (OpCode 0x5B mode 0), ref=3430*, entity1=Unnamed NPC (ID: 17293831/0x0107E207), entity2=Unnamed NPC (ID: 17293831/0x0107E207), string="cmof")
 95: 0x0A4E [0x5F] MULTI_HANDLER_COMPLEX(mode=0x02 - Kill entity action (OpCode 0xC1))
 96: 0x0A54 [0x4E] SET_ENTITY_HIDE_FLAG: Hide LocalPlayer
 97: 0x0A5A [0x27] REQ_SET(priority=0x05, entity_id=Iroha (ID: 17293827/0x0107E203), tag_num=0x04)
 98: 0x0A61 [0xBA] SET_ENTITY_POSITION(entity_id=Iroha (ID: 17293827/0x0107E203), pos_x=-173.038*, pos_z=50.746*, pos_y=-19.838*, direction=202.8°*)
 99: 0x0A6E [0x4E] SET_ENTITY_HIDE_FLAG: Show ??? (ID: 17293830/0x0107E206)
100: 0x0A74 [0x80] LOAD_WAIT(entity=??? (ID: 17293830/0x0107E206))
101: 0x0A79 [0x1C] WAIT(30* ticks)
102: 0x0A7C [0x5B] LOAD_EXT_SCHEDULER: Load scheduler "fukl" with entities [Unnamed NPC (ID: 17293829/0x0107E205), Unnamed NPC (ID: 17293829/0x0107E205)], work=3881*
103: 0x0A8B [0x5B] LOAD_EXT_SCHEDULER: Load scheduler "kru0" with entities [??? (ID: 17293830/0x0107E206), ??? (ID: 17293830/0x0107E206)], work=3891*
104: 0x0A9A [0xD0] LOAD_SCHEDULED_TASK_ALT5: Load scheduler "k000" with entities [??? (ID: 17293830/0x0107E206), ??? (ID: 17293830/0x0107E206)], work=[105*, 0*]
105: 0x0AAB [0x2C] CREATE_SCHEDULER_TASK: Create scheduler "ids0" with entities [Iroha (ID: 17293827/0x0107E203), Iroha (ID: 17293827/0x0107E203)]
106: 0x0AB8 [0x1C] WAIT(30* ticks)
107: 0x0ABB [0x45] LOAD_SCHEDULED_TASK: Load scheduler "s144" with entities [EventEntity, EventEntity], work=[761*, 0*]
108: 0x0ACC [0x1C] WAIT(15* ticks)
109: 0x0ACF [0x45] LOAD_SCHEDULED_TASK: Load scheduler "whi1" with entities [LocalPlayer, LocalPlayer], work=[201*, 0*]
110: 0x0AE0 [0x1C] WAIT(200* ticks)
111: 0x0AE3 [0x52] END_LOAD_SCHEDULER: End scheduler "s144" with entities [EventEntity, EventEntity], work=761*
112: 0x0AF2 [0x45] LOAD_SCHEDULED_TASK: Load scheduler "s145" with entities [EventEntity, EventEntity], work=[761*, 0*]
113: 0x0B03 [0x5B] LOAD_EXT_SCHEDULER: Load scheduler "kru1" with entities [??? (ID: 17293830/0x0107E206), ??? (ID: 17293830/0x0107E206)], work=3891*
114: 0x0B12 [0x1C] WAIT(120* ticks)
115: 0x0B15 [0xD0] LOAD_SCHEDULED_TASK_ALT5: Load scheduler "k001" with entities [??? (ID: 17293830/0x0107E206), ??? (ID: 17293830/0x0107E206)], work=[105*, 0*]
116: 0x0B26 [0x2B] ??? (ID: 17293830/0x0107E206) [12713*]:
    → "...At last. There she is..."
117: 0x0B2D [0x1C] WAIT(170* ticks)
118: 0x0B30 [0x23] WAIT_FOR_DIALOG_INTERACTION
119: 0x0B31 [0x52] END_LOAD_SCHEDULER: End scheduler "s145" with entities [EventEntity, EventEntity], work=761*
120: 0x0B40 [0x45] LOAD_SCHEDULED_TASK: Load scheduler "s199" with entities [EventEntity, EventEntity], work=[761*, 0*]
121: 0x0B51 [0xD0] LOAD_SCHEDULED_TASK_ALT5: Load scheduler "k000" with entities [??? (ID: 17293830/0x0107E206), ??? (ID: 17293830/0x0107E206)], work=[106*, 0*]
122: 0x0B62 [0xD0] LOAD_SCHEDULED_TASK_ALT5: Load scheduler "kst0" with entities [??? (ID: 17293830/0x0107E206), ??? (ID: 17293830/0x0107E206)], work=[105*, 0*]
123: 0x0B73 [0x1C] WAIT(300* ticks)
124: 0x0B76 [0x5B] LOAD_EXT_SCHEDULER: Load scheduler "fuk0" with entities [Unnamed NPC (ID: 17293829/0x0107E205), Unnamed NPC (ID: 17293829/0x0107E205)], work=3881*
125: 0x0B85 [0xD0] LOAD_SCHEDULED_TASK_ALT5: Load scheduler "b000" with entities [Unnamed NPC (ID: 17293829/0x0107E205), Unnamed NPC (ID: 17293829/0x0107E205)], work=[111*, 0*]
126: 0x0B96 [0x1C] WAIT(60* ticks)
127: 0x0B99 [0x52] END_LOAD_SCHEDULER: End scheduler "s199" with entities [EventEntity, EventEntity], work=761*
128: 0x0BA8 [0x45] LOAD_SCHEDULED_TASK: Load scheduler "s146" with entities [EventEntity, EventEntity], work=[761*, 0*]
129: 0x0BB9 [0x1C] WAIT(120* ticks)
130: 0x0BBC [0x52] END_LOAD_SCHEDULER: End scheduler "s146" with entities [EventEntity, EventEntity], work=761*
131: 0x0BCB [0x45] LOAD_SCHEDULED_TASK: Load scheduler "s149" with entities [EventEntity, EventEntity], work=[761*, 0*]
132: 0x0BDC [0x27] REQ_SET(priority=0x05, entity_id=Iroha (ID: 17293827/0x0107E203), tag_num=0x05)
133: 0x0BE3 [0x5B] LOAD_EXT_SCHEDULER: Load scheduler "fuk1" with entities [Iroha (ID: 17293827/0x0107E203), Iroha (ID: 17293827/0x0107E203)], work=3881*
134: 0x0BF2 [0xD0] LOAD_SCHEDULED_TASK_ALT5: Load scheduler "b001" with entities [Iroha (ID: 17293827/0x0107E203), Iroha (ID: 17293827/0x0107E203)], work=[111*, 0*]
135: 0x0C03 [0x45] LOAD_SCHEDULED_TASK: Load scheduler "b001" with entities [EventEntity, EventEntity], work=[761*, 0*]
136: 0x0C14 [0x1C] WAIT(40* ticks)
137: 0x0C17 [0x52] END_LOAD_SCHEDULER: End scheduler "s149" with entities [EventEntity, EventEntity], work=761*
138: 0x0C26 [0x45] LOAD_SCHEDULED_TASK: Load scheduler "s147" with entities [EventEntity, EventEntity], work=[761*, 0*]
139: 0x0C37 [0x1C] WAIT(120* ticks)
140: 0x0C3A [0x52] END_LOAD_SCHEDULER: End scheduler "s147" with entities [EventEntity, EventEntity], work=761*
141: 0x0C49 [0x45] LOAD_SCHEDULED_TASK: Load scheduler "s148" with entities [EventEntity, EventEntity], work=[761*, 0*]
142: 0x0C5A [0x1C] WAIT(60* ticks)
143: 0x0C5D [0x9F] LOAD_SCHEDULED_TASK_ALT: Load scheduler "str0" with entities [EventEntity, EventEntity], work=[127*, 0*]
144: 0x0C6E [0x1C] WAIT(45* ticks)
145: 0x0C71 [0x9F] LOAD_SCHEDULED_TASK_ALT: Load scheduler "kill" with entities [EventEntity, EventEntity], work=[127*, 0*]
146: 0x0C82 [0x1C] WAIT(60* ticks)
147: 0x0C85 [0x45] LOAD_SCHEDULED_TASK: Load scheduler "fdo1" with entities [EventEntity, EventEntity], work=[200*, 0*]
148: 0x0C96 [0x55] WAIT_LOAD_SCHEDULER: Wait for scheduler "fdo1" with entities [EventEntity, EventEntity], work=200*
149: 0x0CA5 [0x52] END_LOAD_SCHEDULER: End scheduler "s148" with entities [EventEntity, EventEntity], work=761*
150: 0x0CB4 [0x45] LOAD_SCHEDULED_TASK: Load scheduler "blof" with entities [EventEntity, EventEntity], work=[761*, 0*]
151: 0x0CC5 [0x27] REQ_SET(priority=0x05, entity_id=Iroha (ID: 17293827/0x0107E203), tag_num=0x06)
152: 0x0CCC [0x6C] FADE_ENTITY_COLOR(entity_id=LocalPlayer, end_alpha=128*, fade_time=1*)
153: 0x0CD5 [0x02] IF !(ExtData[1]->WorkLocal[1] == 0*) GOTO 0x0CE5
154: 0x0CDD [0x30] SET_UCOFF_CONTINUE_ZERO()
155: 0x0CDE [0x03] Work_Zone[1] = 1*
156: 0x0CE3 [0x21] END_EVENT
157: 0x0CE4 [0x00] END_REQSTACK()
158: 0x0CE5 [0x5C] MUSIC_CONTROL: Set Combat (Solo) music to song 101*
159: 0x0CE9 [0x5C] MUSIC_CONTROL: Set Combat (Party) music to song 103*
160: 0x0CED [0x9A] WAIT_MUSIC_SERVER()
161: 0x0CEE [0x46] CAMERA_CONTROL: Restore default settings
162: 0x0CF0 [0x45] LOAD_SCHEDULED_TASK: Load scheduler "fdi2" with entities [EventEntity, EventEntity], work=[200*, 0*]
163: 0x0D01 [0x21] END_EVENT
164: 0x0D02 [0x00] END_REQSTACK()
```
