# 17293791

## Common Data

| Field            | Value                  |
|------------------|------------------------|
| Zone             | Qufim Island (ID: 126) |
| Block Size       | 116 bytes              |
| Total Events     | 2                      |
| References Count | 7                      |

## List of Events

| Event ID              | Entrypoint   |   Size |   Instructions |
|-----------------------|--------------|--------|----------------|
| [65535](#event-65535) | 0x0000       |      1 |              1 |
| [43](#event-43)       | 0x0001       |     61 |             15 |

## DAT References (imed_data)

|   Index | Hex Value   |   Dec Value |
|---------|-------------|-------------|
|       0 | 0x2063      |        8291 |
|       1 | 0x0440      |        1088 |
|       2 | 0x0441      |        1089 |
|       3 | 0x0442      |        1090 |
|       4 | 0x2064      |        8292 |
|       5 | 0x0001      |           1 |
|       6 | 0x0000      |           0 |

## String References

- **8291**: Enter the battlefield for "Gatherer of Light"?
- **8292**: Enter the battlefield? [Yes./No.]

## Events

### Event 65535

#### Metadata

| Field        | Value   |
|--------------|---------|
| Entrypoint   | 0x0000  |
| Data Size    | 1 bytes |
| Instructions | 1       |

```
      00 01 02 03 04 05 06 07  08 09 0A 0B 0C 0D 0E 0F
      -- -- -- -- -- -- -- --  -- -- -- -- -- -- -- --
0000: 00                                                .               
```

#### Opcodes

```
  0: 0x0000 [0x00] END_REQSTACK()
```

### Event 43

#### Metadata

| Field        | Value    |
|--------------|----------|
| Entrypoint   | 0x0001   |
| Data Size    | 61 bytes |
| Instructions | 15       |

```
      00 01 02 03 04 05 06 07  08 09 0A 0B 0C 0D 0E 0F
      -- -- -- -- -- -- -- --  -- -- -- -- -- -- -- --
0000:    48 00 80 23 03 02 10  01 80 03 03 10 02 80 03   H..#...........
0010: 04 10 03 80 24 04 80 05  80 06 80 25 02 00 10 06  ....$......%....
0020: 80 00 2C 00 03 01 10 05  80 01 3C 00 02 00 10 05  ..,.......<.....
0030: 80 00 3C 00 03 01 10 06  80 01 3C 00 21 00        ..<.......<.!.  
```

#### Opcodes

```
  0: 0x0001 [0x48] [System] [8291*]:
    → "Enter the battlefield for "Gatherer of Light"?"
  1: 0x0004 [0x23] WAIT_FOR_DIALOG_INTERACTION
  2: 0x0005 [0x03] Work_Zone[2] = 1088*
  3: 0x000A [0x03] Work_Zone[3] = 1089*
  4: 0x000F [0x03] Work_Zone[4] = 1090*
  5: 0x0014 [0x24] CREATE_DIALOG(message_id=8292*, default_option=1*, option_flags=0*)
    → "Enter the battlefield? [Yes./No.]"
  6: 0x001B [0x25] WAIT_DIALOG_SELECT()
  7: 0x001C [0x02] IF !(Work_Zone[0] == 0*) GOTO 0x002C
  8: 0x0024 [0x03] Work_Zone[1] = 1*
  9: 0x0029 [0x01] GOTO 0x003C
 10: 0x002C [0x02] IF !(Work_Zone[0] == 1*) GOTO 0x003C
 11: 0x0034 [0x03] Work_Zone[1] = 0*
 12: 0x0039 [0x01] GOTO 0x003C

SUBROUTINE_003C:
 13: 0x003C [0x21] END_EVENT
 14: 0x003D [0x00] END_REQSTACK()
```
