# 17293797

## Common Data

| Field            | Value                  |
|------------------|------------------------|
| Zone             | Qufim Island (ID: 126) |
| Block Size       | 6056 bytes             |
| Total Events     | 3                      |
| References Count | 171                    |

## List of Events

| Event ID              | Entrypoint   |   Size |   Instructions |
|-----------------------|--------------|--------|----------------|
| [65535](#event-65535) | 0x0000       |      1 |              1 |
| [44](#event-44)       | 0x0001       |   2679 |            380 |
| [45](#event-45)       | 0x0A78       |   2662 |            371 |

## DAT References (imed_data)

|   Index | Hex Value   |   Dec Value |
|---------|-------------|-------------|
|       0 | 0x0013      |          19 |
|       1 | 0xFFFFB2C1  |  4294947521 |
|       2 | 0x197D0     |      104400 |
|       3 | 0xFFFFBC6C  |  4294949996 |
|       4 | 0x04A9      |        1193 |
|       5 | 0xFFFFA4FC  |  4294943996 |
|       6 | 0x1ADB0     |      110000 |
|       7 | 0xFFFFAA5E  |  4294945374 |
|       8 | 0x0000      |           0 |
|       9 | 0xFFFFA8A0  |  4294944928 |
|      10 | 0x19784     |      104324 |
|      11 | 0xFFFFB30C  |  4294947596 |
|      12 | 0xFFFF9C0D  |  4294941709 |
|      13 | 0x1AC88     |      109704 |
|      14 | 0x0292      |         658 |
|      15 | 0xFFFF9DFF  |  4294942207 |
|      16 | 0x1ADCC     |      110028 |
|      17 | 0x0A92      |        2706 |
|      18 | 0xFFFF9FF1  |  4294942705 |
|      19 | 0x1AF10     |      110352 |
|      20 | 0xFFFFA1E3  |  4294943203 |
|      21 | 0x1B054     |      110676 |
|      22 | 0xFFFFA3D5  |  4294943701 |
|      23 | 0x1B198     |      111000 |
|      24 | 0xFFFFA5C7  |  4294944199 |
|      25 | 0x1B2DC     |      111324 |
|      26 | 0xFFFFA7B9  |  4294944697 |
|      27 | 0x1B420     |      111648 |
|      28 | 0xFFFFA9AB  |  4294945195 |
|      29 | 0x1B564     |      111972 |
|      30 | 0x000F      |          15 |
|      31 | 0x001E      |          30 |
|      32 | 0x00A1      |         161 |
|      33 | 0x0001      |           1 |
|      34 | 0x0014      |          20 |
|      35 | 0x0002      |           2 |
|      36 | 0x0011      |          17 |
|      37 | 0x0012      |          18 |
|      38 | 0x00C8      |         200 |
|      39 | 0x2CCB      |       11467 |
|      40 | 0x2CDA      |       11482 |
|      41 | 0x01D9      |         473 |
|      42 | 0x0003      |           3 |
|      43 | 0x0004      |           4 |
|      44 | 0x0005      |           5 |
|      45 | 0x0006      |           6 |
|      46 | 0x0007      |           7 |
|      47 | 0x0008      |           8 |
|      48 | 0x0064      |         100 |
|      49 | 0x003C      |          60 |
|      50 | 0x01F4      |         500 |
|      51 | 0x0078      |         120 |
|      52 | 0xFFFFA827  |  4294944807 |
|      53 | 0x1959F     |      103839 |
|      54 | 0x0019      |          25 |
|      55 | 0x011B      |         283 |
|      56 | 0xFFFF8749  |  4294936393 |
|      57 | 0x1A900     |      108800 |
|      58 | 0xFFFFB49E  |  4294947998 |
|      59 | 0x0E74      |        3700 |
|      60 | 0xFFFF94F3  |  4294939891 |
|      61 | 0x1B06E     |      110702 |
|      62 | 0xFFFFAB67  |  4294945639 |
|      63 | 0x0C80      |        3200 |
|      64 | 0xFFFF9C51  |  4294941777 |
|      65 | 0x1B0B0     |      110768 |
|      66 | 0xFFFFA96B  |  4294945131 |
|      67 | 0xFFFF9536  |  4294939958 |
|      68 | 0x1C8C4     |      116932 |
|      69 | 0xFFFFB3AE  |  4294947758 |
|      70 | 0x07D0      |        2000 |
|      71 | 0xFFFF9F5F  |  4294942559 |
|      72 | 0x1B997     |      113047 |
|      73 | 0xFFFFAA3D  |  4294945341 |
|      74 | 0x03F6      |        1014 |
|      75 | 0xFFFFA649  |  4294944329 |
|      76 | 0x1B5EB     |      112107 |
|      77 | 0xFFFFA974  |  4294945140 |
|      78 | 0x0337      |         823 |
|      79 | 0xFFFFA772  |  4294944626 |
|      80 | 0x1BA45     |      113221 |
|      81 | 0xFFFFA96E  |  4294945134 |
|      82 | 0x0B4F      |        2895 |
|      83 | 0xFFFFAF05  |  4294946565 |
|      84 | 0x1C99D     |      117149 |
|      85 | 0xFFFFB5A2  |  4294948258 |
|      86 | 0x0D28      |        3368 |
|      87 | 0x0028      |          40 |
|      88 | 0x001D      |          29 |
|      89 | 0x0104      |         260 |
|      90 | 0x000A      |          10 |
|      91 | 0xFFFF8F65  |  4294938469 |
|      92 | 0x1B642     |      112194 |
|      93 | 0xFFFFAD01  |  4294946049 |
|      94 | 0x1C83D     |      116797 |
|      95 | 0xFFFFA332  |  4294943538 |
|      96 | 0x1C0D1     |      114897 |
|      97 | 0x0122      |         290 |
|      98 | 0x2CCC      |       11468 |
|      99 | 0x2CCD      |       11469 |
|     100 | 0x2CCE      |       11470 |
|     101 | 0x2CCF      |       11471 |
|     102 | 0x2CD0      |       11472 |
|     103 | 0x2CD1      |       11473 |
|     104 | 0x0009      |           9 |
|     105 | 0x2CD2      |       11474 |
|     106 | 0x2CD3      |       11475 |
|     107 | 0x2CD4      |       11476 |
|     108 | 0x000B      |          11 |
|     109 | 0x2CD5      |       11477 |
|     110 | 0x2CD6      |       11478 |
|     111 | 0x2CD7      |       11479 |
|     112 | 0x000C      |          12 |
|     113 | 0x000D      |          13 |
|     114 | 0x2CD8      |       11480 |
|     115 | 0x2CD9      |       11481 |
|     116 | 0x000E      |          14 |
|     117 | 0x2CDB      |       11483 |
|     118 | 0x0010      |          16 |
|     119 | 0x2CDC      |       11484 |
|     120 | 0x2CDD      |       11485 |
|     121 | 0x2CDE      |       11486 |
|     122 | 0x2CDF      |       11487 |
|     123 | 0x2CE0      |       11488 |
|     124 | 0x0852      |        2130 |
|     125 | 0xFFFF8D3B  |  4294937915 |
|     126 | 0x17084     |       94340 |
|     127 | 0xFFFFB490  |  4294947984 |
|     128 | 0x0CFF      |        3327 |
|     129 | 0xFFFFAE75  |  4294946421 |
|     130 | 0x19384     |      103300 |
|     131 | 0xFFFFB7EE  |  4294948846 |
|     132 | 0x05F0      |        1520 |
|     133 | 0x2CE2      |       11490 |
|     134 | 0x2CF0      |       11504 |
|     135 | 0x2CE1      |       11489 |
|     136 | 0x0050      |          80 |
|     137 | 0x005A      |          90 |
|     138 | 0x2CE3      |       11491 |
|     139 | 0x007F      |         127 |
|     140 | 0x00A0      |         160 |
|     141 | 0x2CE4      |       11492 |
|     142 | 0x2CE5      |       11493 |
|     143 | 0x2CE6      |       11494 |
|     144 | 0x2CE7      |       11495 |
|     145 | 0x2CE8      |       11496 |
|     146 | 0x2CE9      |       11497 |
|     147 | 0x2CEA      |       11498 |
|     148 | 0x04B3      |        1203 |
|     149 | 0x2CEB      |       11499 |
|     150 | 0x2CEC      |       11500 |
|     151 | 0x2CED      |       11501 |
|     152 | 0x2CEE      |       11502 |
|     153 | 0x2CEF      |       11503 |
|     154 | 0x2CF1      |       11505 |
|     155 | 0x2CF2      |       11506 |
|     156 | 0x2CF3      |       11507 |
|     157 | 0x2CF4      |       11508 |
|     158 | 0x2CF5      |       11509 |
|     159 | 0xFFFFFC18  |  4294966296 |
|     160 | 0x2CF6      |       11510 |
|     161 | 0x00A4      |         164 |
|     162 | 0x2CF7      |       11511 |
|     163 | 0x2CF8      |       11512 |
|     164 | 0x2CF9      |       11513 |
|     165 | 0x2CFA      |       11514 |
|     166 | 0x012C      |         300 |
|     167 | 0x0640      |        1600 |
|     168 | 0x0032      |          50 |
|     169 | 0x00C9      |         201 |
|     170 | 0x00D7      |         215 |

## String References

- **11467**: Well, well, well...look who finally decided to show.
- **11482**: Carry out Shantotto's bidding? [As you wish, my empress./I'll never join you!]
- **11490**: A-a-another urgent letter has arrived from the self-styled Eternal Empress during your absence, kupo!
- **11504**: Undertake the assassination? [As you wish, my empress./Do your own dirty work!]

## Events

### Event 65535

#### Metadata

| Field        | Value   |
|--------------|---------|
| Entrypoint   | 0x0000  |
| Data Size    | 1 bytes |
| Instructions | 1       |

```
      00 01 02 03 04 05 06 07  08 09 0A 0B 0C 0D 0E 0F
      -- -- -- -- -- -- -- --  -- -- -- -- -- -- -- --
0000: 00                                                .               
```

#### Opcodes

```
  0: 0x0000 [0x00] END_REQSTACK()
```

### Event 44

#### Metadata

| Field        | Value      |
|--------------|------------|
| Entrypoint   | 0x0001     |
| Data Size    | 2679 bytes |
| Instructions | 380        |

```
      00 01 02 03 04 05 06 07  08 09 0A 0B 0C 0D 0E 0F
      -- -- -- -- -- -- -- --  -- -- -- -- -- -- -- --
0000:    42 1A 18 14 46 01 38  00 80 27 10 F0 FF FF 7F   B...F.8..'.....
0010: 2E 27 10 E6 E1 07 01 01  29 10 E7 E1 07 01 02 29  .'......)......)
0020: 10 E8 E1 07 01 02 29 10  E9 E1 07 01 02 29 10 EA  ......)......)..
0030: E1 07 01 02 29 10 EB E1  07 01 02 29 10 EC E1 07  ....)......)....
0040: 01 02 29 10 ED E1 07 01  02 29 10 EE E1 07 01 02  ..)......)......
0050: 29 10 EF E1 07 01 01 29  10 F0 E1 07 01 01 59 05  )......)......Y.
0060: F0 E1 07 01 01 BA F0 FF  FF 7F 01 80 02 80 03 80  ................
0070: 04 80 BA E6 E1 07 01 05  80 06 80 07 80 08 80 BA  ................
0080: EF E1 07 01 08 80 08 80  08 80 08 80 BA F0 E1 07  ................
0090: 01 09 80 0A 80 0B 80 04  80 BA E7 E1 07 01 0C 80  ................
00A0: 0D 80 07 80 0E 80 BA E8  E1 07 01 0F 80 10 80 07  ................
00B0: 80 11 80 BA E9 E1 07 01  12 80 13 80 07 80 08 80  ................
00C0: BA EA E1 07 01 14 80 15  80 07 80 08 80 BA EB E1  ................
00D0: 07 01 16 80 17 80 07 80  08 80 BA EC E1 07 01 18  ................
00E0: 80 19 80 07 80 08 80 BA  ED E1 07 01 1A 80 1B 80  ................
00F0: 07 80 08 80 BA EE E1 07  01 1C 80 1D 80 07 80 08  ................
0100: 80 80 F0 FF FF 7F 80 E6  E1 07 01 80 EF E1 07 01  ................
0110: 80 F0 E1 07 01 80 E7 E1  07 01 80 E8 E1 07 01 80  ................
0120: E9 E1 07 01 80 EA E1 07  01 80 EB E1 07 01 80 EC  ................
0130: E1 07 01 80 ED E1 07 01  80 EE E1 07 01 1C 1E 80  ................
0140: 4A F0 FF FF 7F E6 E1 07  01 4A E6 E1 07 01 F0 FF  J........J......
0150: FF 7F 6F 76 F0 FF FF 7F  6F 76 E6 E1 07 01 3A E6  ..ov....ov....:.
0160: E1 07 01 01 00 4B E7 E1  07 01 01 00 4B E8 E1 07  .....K......K...
0170: 01 01 00 4B E9 E1 07 01  01 00 4B EA E1 07 01 01  ...K......K.....
0180: 00 4B EB E1 07 01 01 00  4B EC E1 07 01 01 00 4B  .K......K......K
0190: ED E1 07 01 01 00 4B EE  E1 07 01 01 00 6F 76 E7  ......K......ov.
01A0: E1 07 01 6F 76 E8 E1 07  01 6F 76 E9 E1 07 01 6F  ...ov....ov....o
01B0: 76 EA E1 07 01 6F 76 EB  E1 07 01 6F 76 EC E1 07  v....ov....ov...
01C0: 01 6F 76 ED E1 07 01 6F  76 EE E1 07 01 27 10 E7  .ov....ov....'..
01D0: E1 07 01 08 27 10 E8 E1  07 01 05 27 10 E9 E1 07  ....'......'....
01E0: 01 05 27 10 EA E1 07 01  05 27 10 EB E1 07 01 05  ..'......'......
01F0: 27 10 EC E1 07 01 05 27  10 ED E1 07 01 05 27 10  '......'......'.
0200: EE E1 07 01 05 27 10 E6  E1 07 01 06 27 10 EF E1  .....'......'...
0210: 07 01 02 27 10 F0 E1 07  01 02 1C 1F 80 5C 00 20  ...'.........\. 
0220: 80 5C 01 20 80 9A 03 00  00 21 80 02 00 00 22 80  .\. .....!....".
0230: 05 51 02 02 08 80 00 00  04 49 02 02 00 00 23 80  .Q.......I....#.
0240: 80 49 02 1A F7 13 01 49  02 07 00 00 21 80 01 2B  .I.....I....!..+
0250: 02 03 00 00 21 80 02 00  00 22 80 05 AB 02 02 08  ....!...."......
0260: 80 00 00 05 A3 02 02 02  00 08 80 00 8A 02 02 00  ................
0270: 00 24 80 05 7C 02 1A 95  04 01 87 02 02 22 80 00  .$..|........"..
0280: 00 03 87 02 1A 95 04 01  A3 02 02 00 00 1E 80 03  ................
0290: 98 02 1A 95 04 01 A3 02  02 25 80 00 00 05 A3 02  .........%......
02A0: 1A 95 04 07 00 00 21 80  01 56 02 1A 18 14 1C 1F  ......!..V......
02B0: 80 27 10 E6 E1 07 01 03  5C 00 08 80 5C 01 08 80  .'......\...\...
02C0: 9A 46 00 45 26 80 F0 FF  FF 7F F0 FF FF 7F 66 64  .F.E&.........fd
02D0: 69 32 08 80 21 00 02 08  80 21 80 00 E2 02 48 27  i2..!....!....H'
02E0: 80 23 1B 03 02 00 08 80  24 28 80 08 80 08 80 25  .#......$(.....%
02F0: 02 00 10 08 80 00 00 03  03 02 00 08 80 01 10 03  ................
0300: 02 00 10 21 80 00 10 03  03 02 00 21 80 01 10 03  ...!.......!....
0310: 1B 7B F0 FF FF 7F 02 87  7F 21 80 80 32 03 45 29  .{.......!..2.E)
0320: 80 F0 FF FF 7F F0 FF FF  7F 34 30 61 31 08 80 01  .........40a1...
0330: F6 03 02 87 7F 23 80 80  4E 03 45 29 80 F0 FF FF  .....#..N.E)....
0340: 7F F0 FF FF 7F 34 30 61  32 08 80 01 F6 03 02 87  .....40a2.......
0350: 7F 2A 80 80 6A 03 45 29  80 F0 FF FF 7F F0 FF FF  .*..j.E)........
0360: 7F 34 30 61 33 08 80 01  F6 03 02 87 7F 2B 80 80  .40a3........+..
0370: 86 03 45 29 80 F0 FF FF  7F F0 FF FF 7F 34 30 61  ..E).........40a
0380: 34 08 80 01 F6 03 02 87  7F 2C 80 80 A2 03 45 29  4........,....E)
0390: 80 F0 FF FF 7F F0 FF FF  7F 34 30 61 35 08 80 01  .........40a5...
03A0: F6 03 02 87 7F 2D 80 80  BE 03 45 29 80 F0 FF FF  .....-....E)....
03B0: 7F F0 FF FF 7F 34 30 61  35 08 80 01 F6 03 02 87  .....40a5.......
03C0: 7F 2E 80 80 DA 03 45 29  80 F0 FF FF 7F F0 FF FF  ......E)........
03D0: 7F 34 30 61 36 08 80 01  F6 03 02 87 7F 2F 80 80  .40a6......../..
03E0: F6 03 45 29 80 F0 FF FF  7F F0 FF FF 7F 34 30 61  ..E).........40a
03F0: 37 08 80 01 F6 03 02 02  00 08 80 00 0D 04 6E F0  7.............n.
0400: FF FF 7F 2E 80 99 F0 FF  FF 7F 01 19 04 6E F0 FF  .............n..
0410: FF 7F 2D 80 99 F0 FF FF  7F 1C 30 80 52 29 80 F0  ..-.......0.R)..
0420: FF FF 7F F0 FF FF 7F 34  30 61 31 52 29 80 F0 FF  .......40a1R)...
0430: FF 7F F0 FF FF 7F 34 30  61 32 52 29 80 F0 FF FF  ......40a2R)....
0440: 7F F0 FF FF 7F 34 30 61  33 52 29 80 F0 FF FF 7F  .....40a3R).....
0450: F0 FF FF 7F 34 30 61 34  52 29 80 F0 FF FF 7F F0  ....40a4R)......
0460: FF FF 7F 34 30 61 35 52  29 80 F0 FF FF 7F F0 FF  ...40a5R).......
0470: FF 7F 34 30 61 35 52 29  80 F0 FF FF 7F F0 FF FF  ..40a5R)........
0480: 7F 34 30 61 36 52 29 80  F0 FF FF 7F F0 FF FF 7F  .40a6R).........
0490: 34 30 61 37 1B 02 00 00  21 80 80 11 06 45 29 80  40a7....!....E).
04A0: F0 FF FF 7F F0 FF FF 7F  34 62 30 31 08 80 1A F7  ........4b01....
04B0: 13 55 29 80 F0 FF FF 7F  F0 FF FF 7F 34 62 30 31  .U).........4b01
04C0: 45 29 80 F0 FF FF 7F F0  FF FF 7F 34 30 30 31 08  E).........4001.
04D0: 80 1C 31 80 27 10 EF E1  07 01 05 1C 22 80 59 03  ..1.'.......".Y.
04E0: F0 FF FF 7F 32 80 79 00  F0 FF FF 7F F0 E1 07 01  ....2.y.........
04F0: 1C 31 80 5D 08 80 33 80  BA F0 E1 07 01 34 80 35  .1.]..3......4.5
0500: 80 0B 80 04 80 80 F0 E1  07 01 1C 1E 80 59 01 F0  .............Y..
0510: FF FF 7F 36 80 4A F0 FF  FF 7F F0 E1 07 01 1C 37  ...6.J.........7
0520: 80 6F 76 F0 FF FF 7F 27  10 E6 E1 07 01 09 BA E7  .ov....'........
0530: E1 07 01 38 80 39 80 3A  80 3B 80 BA E8 E1 07 01  ...8.9.:.;......
0540: 3C 80 3D 80 3E 80 3F 80  BA E9 E1 07 01 40 80 41  <.=.>.?......@.A
0550: 80 42 80 08 80 BA EA E1  07 01 43 80 44 80 45 80  .B........C.D.E.
0560: 46 80 BA EB E1 07 01 47  80 48 80 49 80 4A 80 BA  F......G.H.I.J..
0570: EC E1 07 01 4B 80 4C 80  4D 80 4E 80 BA ED E1 07  ....K.L.M.N.....
0580: 01 4F 80 50 80 51 80 52  80 BA EE E1 07 01 53 80  .O.P.Q.R......S.
0590: 54 80 55 80 56 80 1C 1E  80 27 10 E7 E1 07 01 07  T.U.V....'......
05A0: 27 10 E8 E1 07 01 03 27  10 E9 E1 07 01 03 27 10  '......'......'.
05B0: EA E1 07 01 03 27 10 EB  E1 07 01 03 27 10 EC E1  .....'......'...
05C0: 07 01 03 27 10 ED E1 07  01 03 27 10 EE E1 07 01  ...'......'.....
05D0: 03 1C 57 80 6E F0 FF FF  7F 58 80 99 F0 FF FF 7F  ..W.n....X......
05E0: 1C 59 80 27 10 E6 E1 07  01 05 1A D6 02 1C 32 80  .Y.'..........2.
05F0: 2A 10 EF E1 07 01 4A F0  FF FF 7F E6 E1 07 01 52  *.....J........R
0600: 29 80 F0 FF FF 7F F0 FF  FF 7F 34 30 30 31 01 77  ).........4001.w
0610: 0A 02 00 00 23 80 80 1C  06 01 77 0A 02 00 00 2A  ....#.....w....*
0620: 80 80 27 06 01 77 0A 02  00 00 2B 80 80 32 06 01  ..'..w....+..2..
0630: 77 0A 02 00 00 2C 80 80  E2 06 45 29 80 F0 FF FF  w....,....E)....
0640: 7F F0 FF FF 7F 34 30 30  35 08 80 1C 5A 80 BA E9  .....4005...Z...
0650: E1 07 01 5B 80 5C 80 42  80 08 80 BA EC E1 07 01  ...[.\.B........
0660: 5D 80 5E 80 4D 80 4E 80  BA ED E1 07 01 5F 80 60  ].^.M.N......_.`
0670: 80 51 80 52 80 1C 61 80  27 10 E7 E1 07 01 09 27  .Q.R..a.'......'
0680: 10 E8 E1 07 01 04 27 10  E9 E1 07 01 04 27 10 EA  ......'......'..
0690: E1 07 01 04 27 10 EB E1  07 01 04 27 10 EC E1 07  ....'......'....
06A0: 01 04 27 10 ED E1 07 01  04 27 10 EE E1 07 01 04  ..'......'......
06B0: 5C 00 26 80 5C 01 26 80  9A 27 10 E6 E1 07 01 0B  \.&.\.&..'......
06C0: 2B E6 E1 07 01 27 80 23  2B E6 E1 07 01 62 80 23  +....'.#+....b.#
06D0: 52 29 80 F0 FF FF 7F F0  FF FF 7F 34 30 30 35 01  R).........4005.
06E0: 77 0A 02 00 00 2D 80 80  24 07 45 29 80 F0 FF FF  w....-..$.E)....
06F0: 7F F0 FF FF 7F 34 30 30  36 08 80 2B E6 E1 07 01  .....4006..+....
0700: 63 80 23 29 10 E6 E1 07  01 02 2B E6 E1 07 01 64  c.#)......+....d
0710: 80 23 52 29 80 F0 FF FF  7F F0 FF FF 7F 34 30 30  .#R).........400
0720: 36 01 77 0A 02 00 00 2E  80 80 6C 07 45 29 80 F0  6.w.......l.E)..
0730: FF FF 7F F0 FF FF 7F 34  30 30 37 08 80 2B E6 E1  .......4007..+..
0740: 07 01 65 80 23 2B E6 E1  07 01 66 80 23 2A 10 E6  ..e.#+....f.#*..
0750: E1 07 01 29 10 E6 E1 07  01 0C 52 29 80 F0 FF FF  ...)......R)....
0760: 7F F0 FF FF 7F 34 30 30  37 01 77 0A 02 00 00 2F  .....4007.w..../
0770: 80 80 B3 07 45 29 80 F0  FF FF 7F F0 FF FF 7F 34  ....E).........4
0780: 30 30 38 08 80 27 10 E6  E1 07 01 10 2B E6 E1 07  008..'......+...
0790: 01 67 80 23 2A 10 E6 E1  07 01 29 10 E6 E1 07 01  .g.#*.....).....
07A0: 11 52 29 80 F0 FF FF 7F  F0 FF FF 7F 34 30 30 38  .R).........4008
07B0: 01 77 0A 02 00 00 68 80  80 E6 07 45 29 80 F0 FF  .w....h....E)...
07C0: FF 7F F0 FF FF 7F 34 30  30 39 08 80 2B E6 E1 07  ......4009..+...
07D0: 01 69 80 23 52 29 80 F0  FF FF 7F F0 FF FF 7F 34  .i.#R).........4
07E0: 30 30 39 01 77 0A 02 00  00 5A 80 80 21 08 45 29  009.w....Z..!.E)
07F0: 80 F0 FF FF 7F F0 FF FF  7F 34 30 30 61 08 80 2B  .........400a..+
0800: E6 E1 07 01 6A 80 23 2B  E6 E1 07 01 6B 80 23 52  ....j.#+....k.#R
0810: 29 80 F0 FF FF 7F F0 FF  FF 7F 34 30 30 61 01 77  ).........400a.w
0820: 0A 02 00 00 6C 80 80 64  08 45 29 80 F0 FF FF 7F  ....l..d.E).....
0830: F0 FF FF 7F 34 30 30 62  08 80 2B E6 E1 07 01 6D  ....400b..+....m
0840: 80 23 2B E6 E1 07 01 6E  80 23 2B E6 E1 07 01 6F  .#+....n.#+....o
0850: 80 23 52 29 80 F0 FF FF  7F F0 FF FF 7F 34 30 30  .#R).........400
0860: 62 01 77 0A 02 00 00 70  80 80 6F 08 01 77 0A 02  b.w....p..o..w..
0870: 00 00 71 80 80 C3 08 45  29 80 F0 FF FF 7F F0 FF  ..q....E).......
0880: FF 7F 34 30 30 64 08 80  27 10 E6 E1 07 01 0D 2B  ..400d..'......+
0890: E6 E1 07 01 72 80 23 2B  E6 E1 07 01 73 80 23 5D  ....r.#+....s.#]
08A0: 08 80 33 80 2A 10 E6 E1  07 01 27 10 E6 E1 07 01  ..3.*.....'.....
08B0: 0E 52 29 80 F0 FF FF 7F  F0 FF FF 7F 34 30 30 64  .R).........400d
08C0: 01 77 0A 02 00 00 74 80  80 F4 08 45 29 80 F0 FF  .w....t....E)...
08D0: FF 7F F0 FF FF 7F 34 30  30 65 08 80 1A E3 02 52  ......400e.....R
08E0: 29 80 F0 FF FF 7F F0 FF  FF 7F 34 30 30 65 1A 11  ).........400e..
08F0: 03 01 77 0A 02 00 00 1E  80 80 3B 09 45 29 80 F0  ..w.......;.E)..
0900: FF FF 7F F0 FF FF 7F 34  30 30 66 08 80 27 10 E6  .......400f..'..
0910: E1 07 01 0B 2B E6 E1 07  01 75 80 23 2A 10 E6 E1  ....+....u.#*...
0920: 07 01 27 10 E6 E1 07 01  0C 52 29 80 F0 FF FF 7F  ..'......R).....
0930: F0 FF FF 7F 34 30 30 66  01 77 0A 02 00 00 76 80  ....400f.w....v.
0940: 80 75 09 45 29 80 F0 FF  FF 7F F0 FF FF 7F 34 30  .u.E).........40
0950: 30 67 08 80 27 10 E6 E1  07 01 0D 2B E6 E1 07 01  0g..'......+....
0960: 77 80 23 52 29 80 F0 FF  FF 7F F0 FF FF 7F 34 30  w.#R).........40
0970: 30 67 01 77 0A 02 00 00  24 80 80 A8 09 45 29 80  0g.w....$....E).
0980: F0 FF FF 7F F0 FF FF 7F  34 30 30 68 08 80 2B E6  ........400h..+.
0990: E1 07 01 78 80 23 52 29  80 F0 FF FF 7F F0 FF FF  ...x.#R)........
09A0: 7F 34 30 30 68 01 77 0A  02 00 00 25 80 80 E8 09  .400h.w....%....
09B0: 45 29 80 F0 FF FF 7F F0  FF FF 7F 34 30 30 66 08  E).........400f.
09C0: 80 27 10 E6 E1 07 01 13  2B E6 E1 07 01 79 80 23  .'......+....y.#
09D0: 2A 10 E6 E1 07 01 52 29  80 F0 FF FF 7F F0 FF FF  *.....R)........
09E0: 7F 34 30 30 66 01 77 0A  02 00 00 00 80 80 37 0A  .400f.w.......7.
09F0: 45 29 80 F0 FF FF 7F F0  FF FF 7F 34 30 30 6A 08  E).........400j.
0A00: 80 27 10 E6 E1 07 01 0B  2B E6 E1 07 01 7A 80 23  .'......+....z.#
0A10: 2B E6 E1 07 01 75 80 23  2A 10 E6 E1 07 01 27 10  +....u.#*.....'.
0A20: E6 E1 07 01 0C 52 29 80  F0 FF FF 7F F0 FF FF 7F  .....R).........
0A30: 34 30 30 6A 01 77 0A 02  00 00 22 80 80 77 0A 45  400j.w...."..w.E
0A40: 29 80 F0 FF FF 7F F0 FF  FF 7F 34 30 30 6B 08 80  ).........400k..
0A50: 27 10 E6 E1 07 01 0D 2B  E6 E1 07 01 7B 80 23 2A  '......+....{.#*
0A60: 10 E6 E1 07 01 52 29 80  F0 FF FF 7F F0 FF FF 7F  .....R).........
0A70: 34 30 30 6B 01 77 0A 1B                           400k.w..        
```

#### Opcodes

```
  0: 0x0001 [0x42] SET_CLI_EVENT_CANCEL_DATA()
  1: 0x0002 [0x1A] CALL_SUBROUTINE(address=0x1418)
  2: 0x0005 [0x46] CAMERA_CONTROL: Disable user control
  3: 0x0007 [0x38] SET_CLIENT_EVENT_MODE(mode=19*)
  4: 0x000A [0x27] REQ_SET(priority=0x10, entity_id=LocalPlayer, tag_num=0x2E)
  5: 0x0011 [0x27] REQ_SET(priority=0x10, entity_id=Shantotto (ID: 17293798/0x0107E1E6), tag_num=0x01)
  6: 0x0018 [0x29] REQ_SET_WAIT(priority=0x10, entity_id=1 (ID: 17293799/0x0107E1E7), tag_num=0x02)
  7: 0x001F [0x29] REQ_SET_WAIT(priority=0x10, entity_id=2 (ID: 17293800/0x0107E1E8), tag_num=0x02)
  8: 0x0026 [0x29] REQ_SET_WAIT(priority=0x10, entity_id=3 (ID: 17293801/0x0107E1E9), tag_num=0x02)
  9: 0x002D [0x29] REQ_SET_WAIT(priority=0x10, entity_id=4 (ID: 17293802/0x0107E1EA), tag_num=0x02)
 10: 0x0034 [0x29] REQ_SET_WAIT(priority=0x10, entity_id=5 (ID: 17293803/0x0107E1EB), tag_num=0x02)
 11: 0x003B [0x29] REQ_SET_WAIT(priority=0x10, entity_id=6 (ID: 17293804/0x0107E1EC), tag_num=0x02)
 12: 0x0042 [0x29] REQ_SET_WAIT(priority=0x10, entity_id=7 (ID: 17293805/0x0107E1ED), tag_num=0x02)
 13: 0x0049 [0x29] REQ_SET_WAIT(priority=0x10, entity_id=8 (ID: 17293806/0x0107E1EE), tag_num=0x02)
 14: 0x0050 [0x29] REQ_SET_WAIT(priority=0x10, entity_id=9 (ID: 17293807/0x0107E1EF), tag_num=0x01)
 15: 0x0057 [0x29] REQ_SET_WAIT(priority=0x10, entity_id=10 (ID: 17293808/0x0107E1F0), tag_num=0x01)
 16: 0x005E [0x59] UPDATE_ENTITY_DATA: 10 (ID: 17293808/0x0107E1F0)->Render.Flags0 |= 0x200000
 17: 0x0065 [0xBA] SET_ENTITY_POSITION(entity_id=LocalPlayer, pos_x=-19.775*, pos_z=104.400*, pos_y=-17.300*, direction=104.9°*)
 18: 0x0072 [0xBA] SET_ENTITY_POSITION(entity_id=Shantotto (ID: 17293798/0x0107E1E6), pos_x=-23.300*, pos_z=110.000*, pos_y=-21.922*, direction=0.0°*)
 19: 0x007F [0xBA] SET_ENTITY_POSITION(entity_id=9 (ID: 17293807/0x0107E1EF), pos_x=0.000*, pos_z=0.000*, pos_y=0.000*, direction=0.0°*)
 20: 0x008C [0xBA] SET_ENTITY_POSITION(entity_id=10 (ID: 17293808/0x0107E1F0), pos_x=-22.368*, pos_z=104.324*, pos_y=-19.700*, direction=104.9°*)
 21: 0x0099 [0xBA] SET_ENTITY_POSITION(entity_id=1 (ID: 17293799/0x0107E1E7), pos_x=-25.587*, pos_z=109.704*, pos_y=-21.922*, direction=57.8°*)
 22: 0x00A6 [0xBA] SET_ENTITY_POSITION(entity_id=2 (ID: 17293800/0x0107E1E8), pos_x=-25.089*, pos_z=110.028*, pos_y=-21.922*, direction=237.8°*)
 23: 0x00B3 [0xBA] SET_ENTITY_POSITION(entity_id=3 (ID: 17293801/0x0107E1E9), pos_x=-24.591*, pos_z=110.352*, pos_y=-21.922*, direction=0.0°*)
 24: 0x00C0 [0xBA] SET_ENTITY_POSITION(entity_id=4 (ID: 17293802/0x0107E1EA), pos_x=-24.093*, pos_z=110.676*, pos_y=-21.922*, direction=0.0°*)
 25: 0x00CD [0xBA] SET_ENTITY_POSITION(entity_id=5 (ID: 17293803/0x0107E1EB), pos_x=-23.595*, pos_z=111.000*, pos_y=-21.922*, direction=0.0°*)
 26: 0x00DA [0xBA] SET_ENTITY_POSITION(entity_id=6 (ID: 17293804/0x0107E1EC), pos_x=-23.097*, pos_z=111.324*, pos_y=-21.922*, direction=0.0°*)
 27: 0x00E7 [0xBA] SET_ENTITY_POSITION(entity_id=7 (ID: 17293805/0x0107E1ED), pos_x=-22.599*, pos_z=111.648*, pos_y=-21.922*, direction=0.0°*)
 28: 0x00F4 [0xBA] SET_ENTITY_POSITION(entity_id=8 (ID: 17293806/0x0107E1EE), pos_x=-22.101*, pos_z=111.972*, pos_y=-21.922*, direction=0.0°*)
 29: 0x0101 [0x80] LOAD_WAIT(entity=LocalPlayer)
 30: 0x0106 [0x80] LOAD_WAIT(entity=Shantotto (ID: 17293798/0x0107E1E6))
 31: 0x010B [0x80] LOAD_WAIT(entity=9 (ID: 17293807/0x0107E1EF))
 32: 0x0110 [0x80] LOAD_WAIT(entity=10 (ID: 17293808/0x0107E1F0))
 33: 0x0115 [0x80] LOAD_WAIT(entity=1 (ID: 17293799/0x0107E1E7))
 34: 0x011A [0x80] LOAD_WAIT(entity=2 (ID: 17293800/0x0107E1E8))
 35: 0x011F [0x80] LOAD_WAIT(entity=3 (ID: 17293801/0x0107E1E9))
 36: 0x0124 [0x80] LOAD_WAIT(entity=4 (ID: 17293802/0x0107E1EA))
 37: 0x0129 [0x80] LOAD_WAIT(entity=5 (ID: 17293803/0x0107E1EB))
 38: 0x012E [0x80] LOAD_WAIT(entity=6 (ID: 17293804/0x0107E1EC))
 39: 0x0133 [0x80] LOAD_WAIT(entity=7 (ID: 17293805/0x0107E1ED))
 40: 0x0138 [0x80] LOAD_WAIT(entity=8 (ID: 17293806/0x0107E1EE))
 41: 0x013D [0x1C] WAIT(15* ticks)
 42: 0x0140 [0x4A] LocalPlayer looks at Shantotto (ID: 17293798/0x0107E1E6)
 43: 0x0149 [0x4A] Shantotto (ID: 17293798/0x0107E1E6) looks at LocalPlayer
 44: 0x0152 [0x6F] WAIT_FRAME_DELAY: Yield until WaitTime reaches zero
 45: 0x0153 [0x76] CHECK_ENTITY_RENDER_FLAGS: Wait until LocalPlayer Render.Flags0 and Render.Flags3 conditions are met
 46: 0x0158 [0x6F] WAIT_FRAME_DELAY: Yield until WaitTime reaches zero
 47: 0x0159 [0x76] CHECK_ENTITY_RENDER_FLAGS: Wait until Shantotto (ID: 17293798/0x0107E1E6) Render.Flags0 and Render.Flags3 conditions are met
 48: 0x015E [0x3A] CONVERT_YAW_TO_BYTE(entity=Shantotto (ID: 17293798/0x0107E1E6), result_destination=ExtData[1]->WorkLocal[1])
 49: 0x0165 [0x4B] UPDATE_ENTITY_YAW(entity=1 (ID: 17293799/0x0107E1E7), yaw=ExtData[1]->WorkLocal[1])
 50: 0x016C [0x4B] UPDATE_ENTITY_YAW(entity=2 (ID: 17293800/0x0107E1E8), yaw=ExtData[1]->WorkLocal[1])
 51: 0x0173 [0x4B] UPDATE_ENTITY_YAW(entity=3 (ID: 17293801/0x0107E1E9), yaw=ExtData[1]->WorkLocal[1])
 52: 0x017A [0x4B] UPDATE_ENTITY_YAW(entity=4 (ID: 17293802/0x0107E1EA), yaw=ExtData[1]->WorkLocal[1])
 53: 0x0181 [0x4B] UPDATE_ENTITY_YAW(entity=5 (ID: 17293803/0x0107E1EB), yaw=ExtData[1]->WorkLocal[1])
 54: 0x0188 [0x4B] UPDATE_ENTITY_YAW(entity=6 (ID: 17293804/0x0107E1EC), yaw=ExtData[1]->WorkLocal[1])
 55: 0x018F [0x4B] UPDATE_ENTITY_YAW(entity=7 (ID: 17293805/0x0107E1ED), yaw=ExtData[1]->WorkLocal[1])
 56: 0x0196 [0x4B] UPDATE_ENTITY_YAW(entity=8 (ID: 17293806/0x0107E1EE), yaw=ExtData[1]->WorkLocal[1])
 57: 0x019D [0x6F] WAIT_FRAME_DELAY: Yield until WaitTime reaches zero
 58: 0x019E [0x76] CHECK_ENTITY_RENDER_FLAGS: Wait until 1 (ID: 17293799/0x0107E1E7) Render.Flags0 and Render.Flags3 conditions are met
 59: 0x01A3 [0x6F] WAIT_FRAME_DELAY: Yield until WaitTime reaches zero
 60: 0x01A4 [0x76] CHECK_ENTITY_RENDER_FLAGS: Wait until 2 (ID: 17293800/0x0107E1E8) Render.Flags0 and Render.Flags3 conditions are met
 61: 0x01A9 [0x6F] WAIT_FRAME_DELAY: Yield until WaitTime reaches zero
 62: 0x01AA [0x76] CHECK_ENTITY_RENDER_FLAGS: Wait until 3 (ID: 17293801/0x0107E1E9) Render.Flags0 and Render.Flags3 conditions are met
 63: 0x01AF [0x6F] WAIT_FRAME_DELAY: Yield until WaitTime reaches zero
 64: 0x01B0 [0x76] CHECK_ENTITY_RENDER_FLAGS: Wait until 4 (ID: 17293802/0x0107E1EA) Render.Flags0 and Render.Flags3 conditions are met
 65: 0x01B5 [0x6F] WAIT_FRAME_DELAY: Yield until WaitTime reaches zero
 66: 0x01B6 [0x76] CHECK_ENTITY_RENDER_FLAGS: Wait until 5 (ID: 17293803/0x0107E1EB) Render.Flags0 and Render.Flags3 conditions are met
 67: 0x01BB [0x6F] WAIT_FRAME_DELAY: Yield until WaitTime reaches zero
 68: 0x01BC [0x76] CHECK_ENTITY_RENDER_FLAGS: Wait until 6 (ID: 17293804/0x0107E1EC) Render.Flags0 and Render.Flags3 conditions are met
 69: 0x01C1 [0x6F] WAIT_FRAME_DELAY: Yield until WaitTime reaches zero
 70: 0x01C2 [0x76] CHECK_ENTITY_RENDER_FLAGS: Wait until 7 (ID: 17293805/0x0107E1ED) Render.Flags0 and Render.Flags3 conditions are met
 71: 0x01C7 [0x6F] WAIT_FRAME_DELAY: Yield until WaitTime reaches zero
 72: 0x01C8 [0x76] CHECK_ENTITY_RENDER_FLAGS: Wait until 8 (ID: 17293806/0x0107E1EE) Render.Flags0 and Render.Flags3 conditions are met
 73: 0x01CD [0x27] REQ_SET(priority=0x10, entity_id=1 (ID: 17293799/0x0107E1E7), tag_num=0x08)
 74: 0x01D4 [0x27] REQ_SET(priority=0x10, entity_id=2 (ID: 17293800/0x0107E1E8), tag_num=0x05)
 75: 0x01DB [0x27] REQ_SET(priority=0x10, entity_id=3 (ID: 17293801/0x0107E1E9), tag_num=0x05)
 76: 0x01E2 [0x27] REQ_SET(priority=0x10, entity_id=4 (ID: 17293802/0x0107E1EA), tag_num=0x05)
 77: 0x01E9 [0x27] REQ_SET(priority=0x10, entity_id=5 (ID: 17293803/0x0107E1EB), tag_num=0x05)
 78: 0x01F0 [0x27] REQ_SET(priority=0x10, entity_id=6 (ID: 17293804/0x0107E1EC), tag_num=0x05)
 79: 0x01F7 [0x27] REQ_SET(priority=0x10, entity_id=7 (ID: 17293805/0x0107E1ED), tag_num=0x05)
 80: 0x01FE [0x27] REQ_SET(priority=0x10, entity_id=8 (ID: 17293806/0x0107E1EE), tag_num=0x05)
 81: 0x0205 [0x27] REQ_SET(priority=0x10, entity_id=Shantotto (ID: 17293798/0x0107E1E6), tag_num=0x06)
 82: 0x020C [0x27] REQ_SET(priority=0x10, entity_id=9 (ID: 17293807/0x0107E1EF), tag_num=0x02)
 83: 0x0213 [0x27] REQ_SET(priority=0x10, entity_id=10 (ID: 17293808/0x0107E1F0), tag_num=0x02)
 84: 0x021A [0x1C] WAIT(30* ticks)
 85: 0x021D [0x5C] MUSIC_CONTROL: Set Idle (Day) music to song 161*
 86: 0x0221 [0x5C] MUSIC_CONTROL: Set Idle (Night) music to song 161*
 87: 0x0225 [0x9A] WAIT_MUSIC_SERVER()
 88: 0x0226 [0x03] ExtData[1]->WorkLocal[0] = 1*
 89: 0x022B [0x02] IF !(ExtData[1]->WorkLocal[0] > 20*) GOTO 0x0251
 90: 0x0233 [0x02] IF !(0* < ExtData[1]->WorkLocal[0]) GOTO 0x0249
 91: 0x023B [0x02] IF !(ExtData[1]->WorkLocal[0] == 2*) GOTO 0x0249
 92: 0x0243 [0x1A] CALL_SUBROUTINE(address=0x13F7)
 93: 0x0246 [0x01] GOTO 0x0249

SUBROUTINE_0249:
 94: 0x0249 [0x07] ExtData[1]->WorkLocal[0] += 1*
 95: 0x024E [0x01] GOTO 0x022B
 96: 0x0251 [0x03] ExtData[1]->WorkLocal[0] = 1*

SUBROUTINE_0256:
 97: 0x0256 [0x02] IF !(ExtData[1]->WorkLocal[0] > 20*) GOTO 0x02AB
 98: 0x025E [0x02] IF !(0* > ExtData[1]->WorkLocal[0]) GOTO 0x02A3
 99: 0x0266 [0x02] IF !(ExtData[1]->WorkLocal[2] == 0*) GOTO 0x028A
100: 0x026E [0x02] IF !(ExtData[1]->WorkLocal[0] > 17*) GOTO 0x027C
101: 0x0276 [0x1A] CALL_SUBROUTINE(address=0x0495)
102: 0x0279 [0x01] GOTO 0x0287
103: 0x027C [0x02] IF !(20* >= ExtData[1]->WorkLocal[0]) GOTO 0x0287
104: 0x0284 [0x1A] CALL_SUBROUTINE(address=0x0495)

SUBROUTINE_0287:
105: 0x0287 [0x01] GOTO 0x02A3
106: 0x028A [0x02] IF !(ExtData[1]->WorkLocal[0] >= 15*) GOTO 0x0298
107: 0x0292 [0x1A] CALL_SUBROUTINE(address=0x0495)
108: 0x0295 [0x01] GOTO 0x02A3
109: 0x0298 [0x02] IF !(18* > ExtData[1]->WorkLocal[0]) GOTO 0x02A3
110: 0x02A0 [0x1A] CALL_SUBROUTINE(address=0x0495)

SUBROUTINE_02A3:
111: 0x02A3 [0x07] ExtData[1]->WorkLocal[0] += 1*
112: 0x02A8 [0x01] GOTO 0x0256
113: 0x02AB [0x1A] CALL_SUBROUTINE(address=0x1418)
114: 0x02AE [0x1C] WAIT(30* ticks)
115: 0x02B1 [0x27] REQ_SET(priority=0x10, entity_id=Shantotto (ID: 17293798/0x0107E1E6), tag_num=0x03)
116: 0x02B8 [0x5C] MUSIC_CONTROL: Set Idle (Day) music to song 0*
117: 0x02BC [0x5C] MUSIC_CONTROL: Set Idle (Night) music to song 0*
118: 0x02C0 [0x9A] WAIT_MUSIC_SERVER()
119: 0x02C1 [0x46] CAMERA_CONTROL: Restore default settings
120: 0x02C3 [0x45] LOAD_SCHEDULED_TASK: Load scheduler "fdi2" with entities [LocalPlayer, LocalPlayer], work=[200*, 0*]
121: 0x02D4 [0x21] END_EVENT
122: 0x02D5 [0x00] END_REQSTACK()

SUBROUTINE_02D6:
123: 0x02D6 [0x02] IF !(0* == 1*) GOTO 0x02E2
124: 0x02DE [0x48] [System] [11467*]:
    → "Well, well, well...look who finally decided to show."
125: 0x02E1 [0x23] WAIT_FOR_DIALOG_INTERACTION
126: 0x02E2 [0x1B] RETURN

SUBROUTINE_02E3:
127: 0x02E3 [0x03] ExtData[1]->WorkLocal[2] = 0*
128: 0x02E8 [0x24] CREATE_DIALOG(message_id=11482*, default_option=0*, option_flags=0*)
    → "Carry out Shantotto's bidding? [As you wish, my empress./I'll never join you!]"
129: 0x02EF [0x25] WAIT_DIALOG_SELECT()
130: 0x02F0 [0x02] IF !(Work_Zone[0] == 0*) GOTO 0x0300
131: 0x02F8 [0x03] ExtData[1]->WorkLocal[2] = 0*
132: 0x02FD [0x01] GOTO 0x0310
133: 0x0300 [0x02] IF !(Work_Zone[0] == 1*) GOTO 0x0310
134: 0x0308 [0x03] ExtData[1]->WorkLocal[2] = 1*
135: 0x030D [0x01] GOTO 0x0310

SUBROUTINE_0310:
136: 0x0310 [0x1B] RETURN

SUBROUTINE_0311:
137: 0x0311 [0x7B] LocalPlayer stops talking
138: 0x0316 [0x02] IF !(LocalPlayer->Race == 1*) GOTO 0x0332
139: 0x031E [0x45] LOAD_SCHEDULED_TASK: Load scheduler "40a1" with entities [LocalPlayer, LocalPlayer], work=[473*, 0*]
140: 0x032F [0x01] GOTO 0x03F6
141: 0x0332 [0x02] IF !(LocalPlayer->Race == 2*) GOTO 0x034E
142: 0x033A [0x45] LOAD_SCHEDULED_TASK: Load scheduler "40a2" with entities [LocalPlayer, LocalPlayer], work=[473*, 0*]
143: 0x034B [0x01] GOTO 0x03F6
144: 0x034E [0x02] IF !(LocalPlayer->Race == 3*) GOTO 0x036A
145: 0x0356 [0x45] LOAD_SCHEDULED_TASK: Load scheduler "40a3" with entities [LocalPlayer, LocalPlayer], work=[473*, 0*]
146: 0x0367 [0x01] GOTO 0x03F6
147: 0x036A [0x02] IF !(LocalPlayer->Race == 4*) GOTO 0x0386
148: 0x0372 [0x45] LOAD_SCHEDULED_TASK: Load scheduler "40a4" with entities [LocalPlayer, LocalPlayer], work=[473*, 0*]
149: 0x0383 [0x01] GOTO 0x03F6
150: 0x0386 [0x02] IF !(LocalPlayer->Race == 5*) GOTO 0x03A2
151: 0x038E [0x45] LOAD_SCHEDULED_TASK: Load scheduler "40a5" with entities [LocalPlayer, LocalPlayer], work=[473*, 0*]
152: 0x039F [0x01] GOTO 0x03F6
153: 0x03A2 [0x02] IF !(LocalPlayer->Race == 6*) GOTO 0x03BE
154: 0x03AA [0x45] LOAD_SCHEDULED_TASK: Load scheduler "40a5" with entities [LocalPlayer, LocalPlayer], work=[473*, 0*]
155: 0x03BB [0x01] GOTO 0x03F6
156: 0x03BE [0x02] IF !(LocalPlayer->Race == 7*) GOTO 0x03DA
157: 0x03C6 [0x45] LOAD_SCHEDULED_TASK: Load scheduler "40a6" with entities [LocalPlayer, LocalPlayer], work=[473*, 0*]
158: 0x03D7 [0x01] GOTO 0x03F6
159: 0x03DA [0x02] IF !(LocalPlayer->Race == 8*) GOTO 0x03F6
160: 0x03E2 [0x45] LOAD_SCHEDULED_TASK: Load scheduler "40a7" with entities [LocalPlayer, LocalPlayer], work=[473*, 0*]
161: 0x03F3 [0x01] GOTO 0x03F6

SUBROUTINE_03F6:
162: 0x03F6 [0x02] IF !(ExtData[1]->WorkLocal[2] == 0*) GOTO 0x040D
163: 0x03FE [0x6E] LocalPlayer uses emote 7*
164: 0x0405 [0x99] Wait for LocalPlayer animation to complete
165: 0x040A [0x01] GOTO 0x0419
166: 0x040D [0x6E] LocalPlayer uses emote 6*
167: 0x0414 [0x99] Wait for LocalPlayer animation to complete

SUBROUTINE_0419:
168: 0x0419 [0x1C] WAIT(100* ticks)
169: 0x041C [0x52] END_LOAD_SCHEDULER: End scheduler "40a1" with entities [LocalPlayer, LocalPlayer], work=473*
170: 0x042B [0x52] END_LOAD_SCHEDULER: End scheduler "40a2" with entities [LocalPlayer, LocalPlayer], work=473*
171: 0x043A [0x52] END_LOAD_SCHEDULER: End scheduler "40a3" with entities [LocalPlayer, LocalPlayer], work=473*
172: 0x0449 [0x52] END_LOAD_SCHEDULER: End scheduler "40a4" with entities [LocalPlayer, LocalPlayer], work=473*
173: 0x0458 [0x52] END_LOAD_SCHEDULER: End scheduler "40a5" with entities [LocalPlayer, LocalPlayer], work=473*
174: 0x0467 [0x52] END_LOAD_SCHEDULER: End scheduler "40a5" with entities [LocalPlayer, LocalPlayer], work=473*
175: 0x0476 [0x52] END_LOAD_SCHEDULER: End scheduler "40a6" with entities [LocalPlayer, LocalPlayer], work=473*
176: 0x0485 [0x52] END_LOAD_SCHEDULER: End scheduler "40a7" with entities [LocalPlayer, LocalPlayer], work=473*
177: 0x0494 [0x1B] RETURN

SUBROUTINE_0495:
178: 0x0495 [0x02] IF !(ExtData[1]->WorkLocal[0] == 1*) GOTO 0x0611
179: 0x049D [0x45] LOAD_SCHEDULED_TASK: Load scheduler "4b01" with entities [LocalPlayer, LocalPlayer], work=[473*, 0*]
180: 0x04AE [0x1A] CALL_SUBROUTINE(address=0x13F7)
181: 0x04B1 [0x55] WAIT_LOAD_SCHEDULER: Wait for scheduler "4b01" with entities [LocalPlayer, LocalPlayer], work=473*
182: 0x04C0 [0x45] LOAD_SCHEDULED_TASK: Load scheduler "4001" with entities [LocalPlayer, LocalPlayer], work=[473*, 0*]
183: 0x04D1 [0x1C] WAIT(60* ticks)
184: 0x04D4 [0x27] REQ_SET(priority=0x10, entity_id=9 (ID: 17293807/0x0107E1EF), tag_num=0x05)
185: 0x04DB [0x1C] WAIT(20* ticks)
186: 0x04DE [0x59] UPDATE_ENTITY_DATA: Set LocalPlayer turn speed head = 500*
187: 0x04E6 [0x79] LocalPlayer looks at 10 (ID: 17293808/0x0107E1F0) (Basic look)
188: 0x04F0 [0x1C] WAIT(60* ticks)
189: 0x04F3 [0x5D] SET_MUSIC_VOLUME(volume=0*, fade_time=120*)
190: 0x04F8 [0xBA] SET_ENTITY_POSITION(entity_id=10 (ID: 17293808/0x0107E1F0), pos_x=-22.489*, pos_z=103.839*, pos_y=-19.700*, direction=104.9°*)
191: 0x0505 [0x80] LOAD_WAIT(entity=10 (ID: 17293808/0x0107E1F0))
192: 0x050A [0x1C] WAIT(15* ticks)
193: 0x050D [0x59] UPDATE_ENTITY_DATA: Set LocalPlayer turn speed = 25*
194: 0x0515 [0x4A] LocalPlayer looks at 10 (ID: 17293808/0x0107E1F0)
195: 0x051E [0x1C] WAIT(283* ticks)
196: 0x0521 [0x6F] WAIT_FRAME_DELAY: Yield until WaitTime reaches zero
197: 0x0522 [0x76] CHECK_ENTITY_RENDER_FLAGS: Wait until LocalPlayer Render.Flags0 and Render.Flags3 conditions are met
198: 0x0527 [0x27] REQ_SET(priority=0x10, entity_id=Shantotto (ID: 17293798/0x0107E1E6), tag_num=0x09)
199: 0x052E [0xBA] SET_ENTITY_POSITION(entity_id=1 (ID: 17293799/0x0107E1E7), pos_x=-30.903*, pos_z=108.800*, pos_y=-19.298*, direction=325.2°*)
200: 0x053B [0xBA] SET_ENTITY_POSITION(entity_id=2 (ID: 17293800/0x0107E1E8), pos_x=-27.405*, pos_z=110.702*, pos_y=-21.657*, direction=281.2°*)
201: 0x0548 [0xBA] SET_ENTITY_POSITION(entity_id=3 (ID: 17293801/0x0107E1E9), pos_x=-25.519*, pos_z=110.768*, pos_y=-22.165*, direction=0.0°*)
202: 0x0555 [0xBA] SET_ENTITY_POSITION(entity_id=4 (ID: 17293802/0x0107E1EA), pos_x=-27.338*, pos_z=116.932*, pos_y=-19.538*, direction=175.8°*)
203: 0x0562 [0xBA] SET_ENTITY_POSITION(entity_id=5 (ID: 17293803/0x0107E1EB), pos_x=-24.737*, pos_z=113.047*, pos_y=-21.955*, direction=89.1°*)
204: 0x056F [0xBA] SET_ENTITY_POSITION(entity_id=6 (ID: 17293804/0x0107E1EC), pos_x=-22.967*, pos_z=112.107*, pos_y=-22.156*, direction=72.3°*)
205: 0x057C [0xBA] SET_ENTITY_POSITION(entity_id=7 (ID: 17293805/0x0107E1ED), pos_x=-22.670*, pos_z=113.221*, pos_y=-22.162*, direction=254.4°*)
206: 0x0589 [0xBA] SET_ENTITY_POSITION(entity_id=8 (ID: 17293806/0x0107E1EE), pos_x=-20.731*, pos_z=117.149*, pos_y=-19.038*, direction=296.0°*)
207: 0x0596 [0x1C] WAIT(15* ticks)
208: 0x0599 [0x27] REQ_SET(priority=0x10, entity_id=1 (ID: 17293799/0x0107E1E7), tag_num=0x07)
209: 0x05A0 [0x27] REQ_SET(priority=0x10, entity_id=2 (ID: 17293800/0x0107E1E8), tag_num=0x03)
210: 0x05A7 [0x27] REQ_SET(priority=0x10, entity_id=3 (ID: 17293801/0x0107E1E9), tag_num=0x03)
211: 0x05AE [0x27] REQ_SET(priority=0x10, entity_id=4 (ID: 17293802/0x0107E1EA), tag_num=0x03)
212: 0x05B5 [0x27] REQ_SET(priority=0x10, entity_id=5 (ID: 17293803/0x0107E1EB), tag_num=0x03)
213: 0x05BC [0x27] REQ_SET(priority=0x10, entity_id=6 (ID: 17293804/0x0107E1EC), tag_num=0x03)
214: 0x05C3 [0x27] REQ_SET(priority=0x10, entity_id=7 (ID: 17293805/0x0107E1ED), tag_num=0x03)
215: 0x05CA [0x27] REQ_SET(priority=0x10, entity_id=8 (ID: 17293806/0x0107E1EE), tag_num=0x03)
216: 0x05D1 [0x1C] WAIT(40* ticks)
217: 0x05D4 [0x6E] LocalPlayer uses emote 29*
218: 0x05DB [0x99] Wait for LocalPlayer animation to complete
219: 0x05E0 [0x1C] WAIT(260* ticks)
220: 0x05E3 [0x27] REQ_SET(priority=0x10, entity_id=Shantotto (ID: 17293798/0x0107E1E6), tag_num=0x05)
221: 0x05EA [0x1A] CALL_SUBROUTINE(address=0x02D6)
222: 0x05ED [0x1C] WAIT(500* ticks)
223: 0x05F0 [0x2A] GET_REQ_LEVEL(level=16, entity_id=9 (ID: 17293807/0x0107E1EF))
224: 0x05F6 [0x4A] LocalPlayer looks at Shantotto (ID: 17293798/0x0107E1E6)
225: 0x05FF [0x52] END_LOAD_SCHEDULER: End scheduler "4001" with entities [LocalPlayer, LocalPlayer], work=473*
226: 0x060E [0x01] GOTO 0x0A77
227: 0x0611 [0x02] IF !(ExtData[1]->WorkLocal[0] == 2*) GOTO 0x061C
228: 0x0619 [0x01] GOTO 0x0A77
229: 0x061C [0x02] IF !(ExtData[1]->WorkLocal[0] == 3*) GOTO 0x0627
230: 0x0624 [0x01] GOTO 0x0A77
231: 0x0627 [0x02] IF !(ExtData[1]->WorkLocal[0] == 4*) GOTO 0x0632
232: 0x062F [0x01] GOTO 0x0A77
233: 0x0632 [0x02] IF !(ExtData[1]->WorkLocal[0] == 5*) GOTO 0x06E2
234: 0x063A [0x45] LOAD_SCHEDULED_TASK: Load scheduler "4005" with entities [LocalPlayer, LocalPlayer], work=[473*, 0*]
235: 0x064B [0x1C] WAIT(10* ticks)
236: 0x064E [0xBA] SET_ENTITY_POSITION(entity_id=3 (ID: 17293801/0x0107E1E9), pos_x=-28.827*, pos_z=112.194*, pos_y=-22.165*, direction=0.0°*)
237: 0x065B [0xBA] SET_ENTITY_POSITION(entity_id=6 (ID: 17293804/0x0107E1EC), pos_x=-21.247*, pos_z=116.797*, pos_y=-22.156*, direction=72.3°*)
238: 0x0668 [0xBA] SET_ENTITY_POSITION(entity_id=7 (ID: 17293805/0x0107E1ED), pos_x=-23.758*, pos_z=114.897*, pos_y=-22.162*, direction=254.4°*)
239: 0x0675 [0x1C] WAIT(290* ticks)
240: 0x0678 [0x27] REQ_SET(priority=0x10, entity_id=1 (ID: 17293799/0x0107E1E7), tag_num=0x09)
241: 0x067F [0x27] REQ_SET(priority=0x10, entity_id=2 (ID: 17293800/0x0107E1E8), tag_num=0x04)
242: 0x0686 [0x27] REQ_SET(priority=0x10, entity_id=3 (ID: 17293801/0x0107E1E9), tag_num=0x04)
243: 0x068D [0x27] REQ_SET(priority=0x10, entity_id=4 (ID: 17293802/0x0107E1EA), tag_num=0x04)
244: 0x0694 [0x27] REQ_SET(priority=0x10, entity_id=5 (ID: 17293803/0x0107E1EB), tag_num=0x04)
245: 0x069B [0x27] REQ_SET(priority=0x10, entity_id=6 (ID: 17293804/0x0107E1EC), tag_num=0x04)
246: 0x06A2 [0x27] REQ_SET(priority=0x10, entity_id=7 (ID: 17293805/0x0107E1ED), tag_num=0x04)
247: 0x06A9 [0x27] REQ_SET(priority=0x10, entity_id=8 (ID: 17293806/0x0107E1EE), tag_num=0x04)
248: 0x06B0 [0x5C] MUSIC_CONTROL: Set Idle (Day) music to song 200*
249: 0x06B4 [0x5C] MUSIC_CONTROL: Set Idle (Night) music to song 200*
250: 0x06B8 [0x9A] WAIT_MUSIC_SERVER()
251: 0x06B9 [0x27] REQ_SET(priority=0x10, entity_id=Shantotto (ID: 17293798/0x0107E1E6), tag_num=0x0B)
252: 0x06C0 [0x2B] Shantotto (ID: 17293798/0x0107E1E6) [11467*]:
    → "Well, well, well...look who finally decided to show."
253: 0x06C7 [0x23] WAIT_FOR_DIALOG_INTERACTION
254: 0x06C8 [0x2B] Shantotto (ID: 17293798/0x0107E1E6) [11468*]:
    → "The adventurer, <Player>, who lends [his/her] name to the definition of "slow.""
255: 0x06CF [0x23] WAIT_FOR_DIALOG_INTERACTION
256: 0x06D0 [0x52] END_LOAD_SCHEDULER: End scheduler "4005" with entities [LocalPlayer, LocalPlayer], work=473*
257: 0x06DF [0x01] GOTO 0x0A77
258: 0x06E2 [0x02] IF !(ExtData[1]->WorkLocal[0] == 6*) GOTO 0x0724
259: 0x06EA [0x45] LOAD_SCHEDULED_TASK: Load scheduler "4006" with entities [LocalPlayer, LocalPlayer], work=[473*, 0*]
260: 0x06FB [0x2B] Shantotto (ID: 17293798/0x0107E1E6) [11469*]:
    → "And while introductions are utterly unnecessary on our part, We shall do so out of courtesy, from the goodness of our heart."
261: 0x0702 [0x23] WAIT_FOR_DIALOG_INTERACTION
262: 0x0703 [0x29] REQ_SET_WAIT(priority=0x10, entity_id=Shantotto (ID: 17293798/0x0107E1E6), tag_num=0x02)
263: 0x070A [0x2B] Shantotto (ID: 17293798/0x0107E1E6) [11470*]:
    → "Domina Shantotto is our name, and our occupation thus:"
264: 0x0711 [0x23] WAIT_FOR_DIALOG_INTERACTION
265: 0x0712 [0x52] END_LOAD_SCHEDULER: End scheduler "4006" with entities [LocalPlayer, LocalPlayer], work=473*
266: 0x0721 [0x01] GOTO 0x0A77
267: 0x0724 [0x02] IF !(ExtData[1]->WorkLocal[0] == 7*) GOTO 0x076C
268: 0x072C [0x45] LOAD_SCHEDULED_TASK: Load scheduler "4007" with entities [LocalPlayer, LocalPlayer], work=[473*, 0*]
269: 0x073D [0x2B] Shantotto (ID: 17293798/0x0107E1E6) [11471*]:
    → "The first and eternal empress of the Shantotto Empire; in effect, its sturdy truss."
270: 0x0744 [0x23] WAIT_FOR_DIALOG_INTERACTION
271: 0x0745 [0x2B] Shantotto (ID: 17293798/0x0107E1E6) [11472*]:
    → "From this day forth all adventurers are our minions."
272: 0x074C [0x23] WAIT_FOR_DIALOG_INTERACTION
273: 0x074D [0x2A] GET_REQ_LEVEL(level=16, entity_id=Shantotto (ID: 17293798/0x0107E1E6))
274: 0x0753 [0x29] REQ_SET_WAIT(priority=0x10, entity_id=Shantotto (ID: 17293798/0x0107E1E6), tag_num=0x0C)
275: 0x075A [0x52] END_LOAD_SCHEDULER: End scheduler "4007" with entities [LocalPlayer, LocalPlayer], work=473*
276: 0x0769 [0x01] GOTO 0x0A77
277: 0x076C [0x02] IF !(ExtData[1]->WorkLocal[0] == 8*) GOTO 0x07B3
278: 0x0774 [0x45] LOAD_SCHEDULED_TASK: Load scheduler "4008" with entities [LocalPlayer, LocalPlayer], work=[473*, 0*]
279: 0x0785 [0x27] REQ_SET(priority=0x10, entity_id=Shantotto (ID: 17293798/0x0107E1E6), tag_num=0x10)
280: 0x078C [0x2B] Shantotto (ID: 17293798/0x0107E1E6) [11473*]:
    → "For all things beneath the heavens are under our dominion."
281: 0x0793 [0x23] WAIT_FOR_DIALOG_INTERACTION
282: 0x0794 [0x2A] GET_REQ_LEVEL(level=16, entity_id=Shantotto (ID: 17293798/0x0107E1E6))
283: 0x079A [0x29] REQ_SET_WAIT(priority=0x10, entity_id=Shantotto (ID: 17293798/0x0107E1E6), tag_num=0x11)
284: 0x07A1 [0x52] END_LOAD_SCHEDULER: End scheduler "4008" with entities [LocalPlayer, LocalPlayer], work=473*
285: 0x07B0 [0x01] GOTO 0x0A77
286: 0x07B3 [0x02] IF !(ExtData[1]->WorkLocal[0] == 9*) GOTO 0x07E6
287: 0x07BB [0x45] LOAD_SCHEDULED_TASK: Load scheduler "4009" with entities [LocalPlayer, LocalPlayer], work=[473*, 0*]
288: 0x07CC [0x2B] Shantotto (ID: 17293798/0x0107E1E6) [11474*]:
    → "Now, as we are royally busy, we shall hop straight to the point. We commission you on your inaugural mission--do try not to disappoint!"
289: 0x07D3 [0x23] WAIT_FOR_DIALOG_INTERACTION
290: 0x07D4 [0x52] END_LOAD_SCHEDULER: End scheduler "4009" with entities [LocalPlayer, LocalPlayer], work=473*
291: 0x07E3 [0x01] GOTO 0x0A77
292: 0x07E6 [0x02] IF !(ExtData[1]->WorkLocal[0] == 10*) GOTO 0x0821
293: 0x07EE [0x45] LOAD_SCHEDULED_TASK: Load scheduler "400a" with entities [LocalPlayer, LocalPlayer], work=[473*, 0*]
294: 0x07FF [0x2B] Shantotto (ID: 17293798/0x0107E1E6) [11475*]:
    → "Seek out the protocrystals that lie scattered across the land. Affix to them these enchanted seals as securely as you can."
295: 0x0806 [0x23] WAIT_FOR_DIALOG_INTERACTION
296: 0x0807 [0x2B] Shantotto (ID: 17293798/0x0107E1E6) [11476*]:
    → "Of the six we shall entrust you, three or more must be attached to their corresponding protocrystals; our brilliant plan shall then be hatched."
297: 0x080E [0x23] WAIT_FOR_DIALOG_INTERACTION
298: 0x080F [0x52] END_LOAD_SCHEDULER: End scheduler "400a" with entities [LocalPlayer, LocalPlayer], work=473*
299: 0x081E [0x01] GOTO 0x0A77
300: 0x0821 [0x02] IF !(ExtData[1]->WorkLocal[0] == 11*) GOTO 0x0864
301: 0x0829 [0x45] LOAD_SCHEDULED_TASK: Load scheduler "400b" with entities [LocalPlayer, LocalPlayer], work=[473*, 0*]
302: 0x083A [0x2B] Shantotto (ID: 17293798/0x0107E1E6) [11477*]:
    → "With the enchanted seals in place the crystals' power shall be amplified. Thence, we can expand our borders and conquer away 'til satisfied."
303: 0x0841 [0x23] WAIT_FOR_DIALOG_INTERACTION
304: 0x0842 [0x2B] Shantotto (ID: 17293798/0x0107E1E6) [11478*]:
    → "For she who controls the protocrystals and their energy controls the world. In every corner of Vana'diel our resplendent banner shall be unfurled!"
305: 0x0849 [0x23] WAIT_FOR_DIALOG_INTERACTION
306: 0x084A [0x2B] Shantotto (ID: 17293798/0x0107E1E6) [11479*]:
    → "Know that a reward awaits you upon the completion of your task. The amount is performance-based, if that's the question you would ask."
307: 0x0851 [0x23] WAIT_FOR_DIALOG_INTERACTION
308: 0x0852 [0x52] END_LOAD_SCHEDULER: End scheduler "400b" with entities [LocalPlayer, LocalPlayer], work=473*
309: 0x0861 [0x01] GOTO 0x0A77
310: 0x0864 [0x02] IF !(ExtData[1]->WorkLocal[0] == 12*) GOTO 0x086F
311: 0x086C [0x01] GOTO 0x0A77
312: 0x086F [0x02] IF !(ExtData[1]->WorkLocal[0] == 13*) GOTO 0x08C3
313: 0x0877 [0x45] LOAD_SCHEDULED_TASK: Load scheduler "400d" with entities [LocalPlayer, LocalPlayer], work=[473*, 0*]
314: 0x0888 [0x27] REQ_SET(priority=0x10, entity_id=Shantotto (ID: 17293798/0x0107E1E6), tag_num=0x0D)
315: 0x088F [0x2B] Shantotto (ID: 17293798/0x0107E1E6) [11480*]:
    → "Now then, <Player>, look smart, stay sharp, go forth and do our will."
316: 0x0896 [0x23] WAIT_FOR_DIALOG_INTERACTION
317: 0x0897 [0x2B] Shantotto (ID: 17293798/0x0107E1E6) [11481*]:
    → "Our empire shall reign in glorious might--oh golly, what a thrill!"
318: 0x089E [0x23] WAIT_FOR_DIALOG_INTERACTION
319: 0x089F [0x5D] SET_MUSIC_VOLUME(volume=0*, fade_time=120*)
320: 0x08A4 [0x2A] GET_REQ_LEVEL(level=16, entity_id=Shantotto (ID: 17293798/0x0107E1E6))
321: 0x08AA [0x27] REQ_SET(priority=0x10, entity_id=Shantotto (ID: 17293798/0x0107E1E6), tag_num=0x0E)
322: 0x08B1 [0x52] END_LOAD_SCHEDULER: End scheduler "400d" with entities [LocalPlayer, LocalPlayer], work=473*
323: 0x08C0 [0x01] GOTO 0x0A77
324: 0x08C3 [0x02] IF !(ExtData[1]->WorkLocal[0] == 14*) GOTO 0x08F4
325: 0x08CB [0x45] LOAD_SCHEDULED_TASK: Load scheduler "400e" with entities [LocalPlayer, LocalPlayer], work=[473*, 0*]
326: 0x08DC [0x1A] CALL_SUBROUTINE(address=0x02E3)
327: 0x08DF [0x52] END_LOAD_SCHEDULER: End scheduler "400e" with entities [LocalPlayer, LocalPlayer], work=473*
328: 0x08EE [0x1A] CALL_SUBROUTINE(address=0x0311)
329: 0x08F1 [0x01] GOTO 0x0A77
330: 0x08F4 [0x02] IF !(ExtData[1]->WorkLocal[0] == 15*) GOTO 0x093B
331: 0x08FC [0x45] LOAD_SCHEDULED_TASK: Load scheduler "400f" with entities [LocalPlayer, LocalPlayer], work=[473*, 0*]
332: 0x090D [0x27] REQ_SET(priority=0x10, entity_id=Shantotto (ID: 17293798/0x0107E1E6), tag_num=0x0B)
333: 0x0914 [0x2B] Shantotto (ID: 17293798/0x0107E1E6) [11483*]:
    → "Upon the completion of your mission, return here with all due haste. Be brave, stay strong, keep heart no matter what dangers you might face."
334: 0x091B [0x23] WAIT_FOR_DIALOG_INTERACTION
335: 0x091C [0x2A] GET_REQ_LEVEL(level=16, entity_id=Shantotto (ID: 17293798/0x0107E1E6))
336: 0x0922 [0x27] REQ_SET(priority=0x10, entity_id=Shantotto (ID: 17293798/0x0107E1E6), tag_num=0x0C)
337: 0x0929 [0x52] END_LOAD_SCHEDULER: End scheduler "400f" with entities [LocalPlayer, LocalPlayer], work=473*
338: 0x0938 [0x01] GOTO 0x0A77
339: 0x093B [0x02] IF !(ExtData[1]->WorkLocal[0] == 16*) GOTO 0x0975
340: 0x0943 [0x45] LOAD_SCHEDULED_TASK: Load scheduler "400g" with entities [LocalPlayer, LocalPlayer], work=[473*, 0*]
341: 0x0954 [0x27] REQ_SET(priority=0x10, entity_id=Shantotto (ID: 17293798/0x0107E1E6), tag_num=0x0D)
342: 0x095B [0x2B] Shantotto (ID: 17293798/0x0107E1E6) [11484*]:
    → "For the glory of your empress and her immortal empire,"
343: 0x0962 [0x23] WAIT_FOR_DIALOG_INTERACTION
344: 0x0963 [0x52] END_LOAD_SCHEDULER: End scheduler "400g" with entities [LocalPlayer, LocalPlayer], work=473*
345: 0x0972 [0x01] GOTO 0x0A77
346: 0x0975 [0x02] IF !(ExtData[1]->WorkLocal[0] == 17*) GOTO 0x09A8
347: 0x097D [0x45] LOAD_SCHEDULED_TASK: Load scheduler "400h" with entities [LocalPlayer, LocalPlayer], work=[473*, 0*]
348: 0x098E [0x2B] Shantotto (ID: 17293798/0x0107E1E6) [11485*]:
    → "be prepared to lay down your life, fear not the day you might expire."
349: 0x0995 [0x23] WAIT_FOR_DIALOG_INTERACTION
350: 0x0996 [0x52] END_LOAD_SCHEDULER: End scheduler "400h" with entities [LocalPlayer, LocalPlayer], work=473*
351: 0x09A5 [0x01] GOTO 0x0A77
352: 0x09A8 [0x02] IF !(ExtData[1]->WorkLocal[0] == 18*) GOTO 0x09E8
353: 0x09B0 [0x45] LOAD_SCHEDULED_TASK: Load scheduler "400f" with entities [LocalPlayer, LocalPlayer], work=[473*, 0*]
354: 0x09C1 [0x27] REQ_SET(priority=0x10, entity_id=Shantotto (ID: 17293798/0x0107E1E6), tag_num=0x13)
355: 0x09C8 [0x2B] Shantotto (ID: 17293798/0x0107E1E6) [11486*]:
    → "Tsk-tsk, <Player>, have you not grasped your situation?"
356: 0x09CF [0x23] WAIT_FOR_DIALOG_INTERACTION
357: 0x09D0 [0x2A] GET_REQ_LEVEL(level=16, entity_id=Shantotto (ID: 17293798/0x0107E1E6))
358: 0x09D6 [0x52] END_LOAD_SCHEDULER: End scheduler "400f" with entities [LocalPlayer, LocalPlayer], work=473*
359: 0x09E5 [0x01] GOTO 0x0A77
360: 0x09E8 [0x02] IF !(ExtData[1]->WorkLocal[0] == 19*) GOTO 0x0A37
361: 0x09F0 [0x45] LOAD_SCHEDULED_TASK: Load scheduler "400j" with entities [LocalPlayer, LocalPlayer], work=[473*, 0*]
362: 0x0A01 [0x27] REQ_SET(priority=0x10, entity_id=Shantotto (ID: 17293798/0x0107E1E6), tag_num=0x0B)
363: 0x0A08 [0x2B] Shantotto (ID: 17293798/0x0107E1E6) [11487*]:
    → "You have no say in this; disobedience will be met with termination."
364: 0x0A0F [0x23] WAIT_FOR_DIALOG_INTERACTION
365: 0x0A10 [0x2B] Shantotto (ID: 17293798/0x0107E1E6) [11483*]:
    → "Upon the completion of your mission, return here with all due haste. Be brave, stay strong, keep heart no matter what dangers you might face."
366: 0x0A17 [0x23] WAIT_FOR_DIALOG_INTERACTION
367: 0x0A18 [0x2A] GET_REQ_LEVEL(level=16, entity_id=Shantotto (ID: 17293798/0x0107E1E6))
368: 0x0A1E [0x27] REQ_SET(priority=0x10, entity_id=Shantotto (ID: 17293798/0x0107E1E6), tag_num=0x0C)
369: 0x0A25 [0x52] END_LOAD_SCHEDULER: End scheduler "400j" with entities [LocalPlayer, LocalPlayer], work=473*
370: 0x0A34 [0x01] GOTO 0x0A77
371: 0x0A37 [0x02] IF !(ExtData[1]->WorkLocal[0] == 20*) GOTO 0x0A77
372: 0x0A3F [0x45] LOAD_SCHEDULED_TASK: Load scheduler "400k" with entities [LocalPlayer, LocalPlayer], work=[473*, 0*]
373: 0x0A50 [0x27] REQ_SET(priority=0x10, entity_id=Shantotto (ID: 17293798/0x0107E1E6), tag_num=0x0D)
374: 0x0A57 [0x2B] Shantotto (ID: 17293798/0x0107E1E6) [11488*]:
    → "We believe our mind has been made abundantly clear. Until the mission is accomplished, be flaunting not your sorry face here!"
375: 0x0A5E [0x23] WAIT_FOR_DIALOG_INTERACTION
376: 0x0A5F [0x2A] GET_REQ_LEVEL(level=16, entity_id=Shantotto (ID: 17293798/0x0107E1E6))
377: 0x0A65 [0x52] END_LOAD_SCHEDULER: End scheduler "400k" with entities [LocalPlayer, LocalPlayer], work=473*
378: 0x0A74 [0x01] GOTO 0x0A77

SUBROUTINE_0A77:
379: 0x0A77 [0x1B] RETURN
```

### Event 45

#### Metadata

| Field        | Value      |
|--------------|------------|
| Entrypoint   | 0x0A78     |
| Data Size    | 2662 bytes |
| Instructions | 346        |

```
      00 01 02 03 04 05 06 07  08 09 0A 0B 0C 0D 0E 0F
      -- -- -- -- -- -- -- --  -- -- -- -- -- -- -- --
0A70:                          42 1A 18 14 46 01 38 00          B...F.8.
0A80: 80 29 10 F0 FF FF 7F 2E  29 10 DA E1 07 01 09 29  .)......)......)
0A90: 10 DB E1 07 01 17 29 10  E6 E1 07 01 01 29 10 DB  ......)......)..
0AA0: E1 07 01 19 59 05 E6 E1  07 01 01 59 05 DA E1 07  ....Y......Y....
0AB0: 01 01 59 05 DB E1 07 01  01 BA F0 FF FF 7F 01 80  ..Y.............
0AC0: 02 80 03 80 7C 80 BA DA  E1 07 01 7D 80 7E 80 7F  ....|......}.~..
0AD0: 80 80 80 BA DB E1 07 01  01 80 02 80 03 80 7C 80  ..............|.
0AE0: BA E6 E1 07 01 81 80 82  80 83 80 84 80 80 F0 FF  ................
0AF0: FF 7F 80 DA E1 07 01 80  DB E1 07 01 80 E6 E1 07  ................
0B00: 01 1C 1E 80 4A DA E1 07  01 F0 FF FF 7F 4A E6 E1  ....J........J..
0B10: 07 01 F0 FF FF 7F 6F 76  DA E1 07 01 6F 76 E6 E1  ......ov....ov..
0B20: 07 01 1C 1E 80 7B DA E1  07 01 7B E6 E1 07 01 27  .....{....{....'
0B30: 10 E6 E1 07 01 25 27 10  E6 E1 07 01 0A 27 10 E6  .....%'......'..
0B40: E1 07 01 06 27 10 DA E1  07 01 0A 1C 1F 80 29 10  ....'.........).
0B50: DB E1 07 01 25 03 04 00  21 80 02 04 00 1E 80 05  ....%...!.......
0B60: 80 0B 02 08 80 04 00 04  78 0B 02 04 00 23 80 80  ........x....#..
0B70: 78 0B 1A F7 13 01 78 0B  07 04 00 21 80 01 5A 0B  x.....x....!..Z.
0B80: 03 04 00 21 80 02 04 00  1E 80 05 DA 0B 02 08 80  ...!............
0B90: 04 00 05 D2 0B 02 03 00  08 80 00 B9 0B 02 04 00  ................
0BA0: 5A 80 05 AB 0B 1A AC 0D  01 B6 0B 02 70 80 04 00  Z...........p...
0BB0: 03 B6 0B 1A AC 0D 01 D2  0B 02 04 00 68 80 03 C7  ............h...
0BC0: 0B 1A AC 0D 01 D2 0B 02  6C 80 04 00 05 D2 0B 1A  ........l.......
0BD0: AC 0D 07 04 00 21 80 01  85 0B 1A 18 14 1C 1F 80  .....!..........
0BE0: 27 10 DA E1 07 01 0C 5C  00 08 80 5C 01 08 80 9A  '......\...\....
0BF0: 46 00 45 26 80 F0 FF FF  7F F0 FF FF 7F 66 64 69  F.E&.........fdi
0C00: 32 08 80 21 00 02 08 80  21 80 00 11 0C 48 85 80  2..!....!....H..
0C10: 23 1B 24 86 80 08 80 08  80 25 02 00 10 08 80 00  #.$......%......
0C20: 28 0C 06 03 00 01 36 0C  02 00 10 21 80 00 36 0C  (.....6....!..6.
0C30: 05 03 00 01 36 0C 1B 7B  F0 FF FF 7F 02 03 00 08  ....6..{........
0C40: 80 00 53 0C 6E F0 FF FF  7F 2E 80 99 F0 FF FF 7F  ..S.n...........
0C50: 01 5F 0C 6E F0 FF FF 7F  2D 80 99 F0 FF FF 7F 02  ._.n....-.......
0C60: 87 7F 21 80 80 7B 0C 45  29 80 F0 FF FF 7F F0 FF  ..!..{.E).......
0C70: FF 7F 36 30 61 31 08 80  01 3F 0D 02 87 7F 23 80  ..60a1...?....#.
0C80: 80 97 0C 45 29 80 F0 FF  FF 7F F0 FF FF 7F 36 30  ...E).........60
0C90: 61 32 08 80 01 3F 0D 02  87 7F 2A 80 80 B3 0C 45  a2...?....*....E
0CA0: 29 80 F0 FF FF 7F F0 FF  FF 7F 36 30 61 33 08 80  ).........60a3..
0CB0: 01 3F 0D 02 87 7F 2B 80  80 CF 0C 45 29 80 F0 FF  .?....+....E)...
0CC0: FF 7F F0 FF FF 7F 36 30  61 34 08 80 01 3F 0D 02  ......60a4...?..
0CD0: 87 7F 2C 80 80 EB 0C 45  29 80 F0 FF FF 7F F0 FF  ..,....E).......
0CE0: FF 7F 36 30 61 35 08 80  01 3F 0D 02 87 7F 2D 80  ..60a5...?....-.
0CF0: 80 07 0D 45 29 80 F0 FF  FF 7F F0 FF FF 7F 36 30  ...E).........60
0D00: 61 35 08 80 01 3F 0D 02  87 7F 2E 80 80 23 0D 45  a5...?.......#.E
0D10: 29 80 F0 FF FF 7F F0 FF  FF 7F 36 30 61 36 08 80  ).........60a6..
0D20: 01 3F 0D 02 87 7F 2F 80  80 3F 0D 45 29 80 F0 FF  .?..../..?.E)...
0D30: FF 7F F0 FF FF 7F 36 30  61 37 08 80 01 3F 0D 1C  ......60a7...?..
0D40: 30 80 52 29 80 F0 FF FF  7F F0 FF FF 7F 36 30 61  0.R).........60a
0D50: 31 52 29 80 F0 FF FF 7F  F0 FF FF 7F 36 30 61 32  1R).........60a2
0D60: 52 29 80 F0 FF FF 7F F0  FF FF 7F 36 30 61 33 52  R).........60a3R
0D70: 29 80 F0 FF FF 7F F0 FF  FF 7F 36 30 61 34 52 29  ).........60a4R)
0D80: 80 F0 FF FF 7F F0 FF FF  7F 36 30 61 35 52 29 80  .........60a5R).
0D90: F0 FF FF 7F F0 FF FF 7F  36 30 61 36 52 29 80 F0  ........60a6R)..
0DA0: FF FF 7F F0 FF FF 7F 36  30 61 37 1B 02 04 00 21  .......60a7....!
0DB0: 80 80 00 0E 45 29 80 F0  FF FF 7F F0 FF FF 7F 36  ....E).........6
0DC0: 30 30 31 08 80 1A F7 13  1C 1F 80 27 10 DA E1 07  001........'....
0DD0: 01 0D 2B DA E1 07 01 87  80 1C 88 80 4A F0 FF FF  ..+.........J...
0DE0: 7F DA E1 07 01 6F 76 F0  FF FF 7F 1C 1F 80 55 29  .....ov.......U)
0DF0: 80 F0 FF FF 7F F0 FF FF  7F 36 30 30 31 01 B4 13  .........6001...
0E00: 02 04 00 23 80 80 3F 0E  45 29 80 F0 FF FF 7F F0  ...#..?.E)......
0E10: FF FF 7F 36 30 30 32 08  80 2A 10 DA E1 07 01 27  ...6002..*.....'
0E20: 10 DB E1 07 01 1A 27 10  E6 E1 07 01 26 52 29 80  ......'.....&R).
0E30: F0 FF FF 7F F0 FF FF 7F  36 30 30 32 01 B4 13 02  ........6002....
0E40: 04 00 2A 80 80 96 0E 45  29 80 F0 FF FF 7F F0 FF  ..*....E).......
0E50: FF 7F 36 30 30 33 08 80  27 10 DA E1 07 01 0B 1C  ..6003..'.......
0E60: 1F 80 27 10 DB E1 07 01  26 27 10 DA E1 07 01 17  ..'.....&'......
0E70: 2B DA E1 07 01 85 80 23  2A 10 DA E1 07 01 1C 31  +......#*......1
0E80: 80 1A 18 14 52 29 80 F0  FF FF 7F F0 FF FF 7F 36  ....R).........6
0E90: 30 30 33 01 B4 13 02 04  00 2B 80 80 8C 0F 27 10  003......+....'.
0EA0: DB E1 07 01 18 1C 89 80  27 10 DB E1 07 01 1E 27  ........'......'
0EB0: 10 DA E1 07 01 10 2A 10  DA E1 07 01 2A 10 DB E1  ......*.....*...
0EC0: 07 01 1C 1F 80 45 29 80  F0 FF FF 7F F0 FF FF 7F  .....E).........
0ED0: 36 32 30 31 08 80 1A F7  13 2B DA E1 07 01 8A 80  6201.....+......
0EE0: 23 52 29 80 F0 FF FF 7F  F0 FF FF 7F 36 32 30 31  #R).........6201
0EF0: 45 29 80 F0 FF FF 7F F0  FF FF 7F 36 31 30 34 08  E).........6104.
0F00: 80 27 10 DB E1 07 01 27  29 10 DA E1 07 01 18 29  .'.....')......)
0F10: 10 E6 E1 07 01 27 5C 00  8B 80 5C 01 8B 80 9A 7B  .....'\...\....{
0F20: E6 E1 07 01 79 00 F0 FF  FF 7F E6 E1 07 01 1C 8C  ....y...........
0F30: 80 52 29 80 F0 FF FF 7F  F0 FF FF 7F 36 31 30 34  .R).........6104
0F40: 45 29 80 F0 FF FF 7F F0  FF FF 7F 36 35 30 34 08  E).........6504.
0F50: 80 1C 1E 80 27 10 E6 E1  07 01 0B 29 10 E6 E1 07  ....'......)....
0F60: 01 02 2B E6 E1 07 01 8D  80 23 2B E6 E1 07 01 8E  ..+......#+.....
0F70: 80 23 2B E6 E1 07 01 8F  80 23 52 29 80 F0 FF FF  .#+......#R)....
0F80: 7F F0 FF FF 7F 36 35 30  34 01 B4 13 02 04 00 2C  .....6504......,
0F90: 80 80 FC 0F 45 29 80 F0  FF FF 7F F0 FF FF 7F 36  ....E).........6
0FA0: 30 30 35 08 80 27 10 E6  E1 07 01 0C 2B E6 E1 07  005..'......+...
0FB0: 01 90 80 23 52 29 80 F0  FF FF 7F F0 FF FF 7F 36  ...#R).........6
0FC0: 30 30 35 45 29 80 F0 FF  FF 7F F0 FF FF 7F 36 31  005E).........61
0FD0: 30 35 08 80 27 10 E6 E1  07 01 0D 2B E6 E1 07 01  05..'......+....
0FE0: 91 80 23 27 10 E6 E1 07  01 0E 52 29 80 F0 FF FF  ..#'......R)....
0FF0: 7F F0 FF FF 7F 36 31 30  35 01 B4 13 02 04 00 2D  .....6105......-
1000: 80 80 37 10 45 29 80 F0  FF FF 7F F0 FF FF 7F 36  ..7.E).........6
1010: 30 30 36 08 80 2B E6 E1  07 01 92 80 23 2B E6 E1  006..+......#+..
1020: 07 01 93 80 23 52 29 80  F0 FF FF 7F F0 FF FF 7F  ....#R).........
1030: 36 30 30 36 01 B4 13 02  04 00 2E 80 80 C9 10 45  6006...........E
1040: 29 80 F0 FF FF 7F F0 FF  FF 7F 36 30 30 37 08 80  ).........6007..
1050: 27 10 DA E1 07 01 19 27  10 E6 E1 07 01 0B 03 02  '......'........
1060: 10 94 80 2B E6 E1 07 01  95 80 23 2B E6 E1 07 01  ...+......#+....
1070: 96 80 23 2B E6 E1 07 01  97 80 23 29 10 E6 E1 07  ..#+......#)....
1080: 01 0C 52 29 80 F0 FF FF  7F F0 FF FF 7F 36 30 30  ..R).........600
1090: 37 45 29 80 F0 FF FF 7F  F0 FF FF 7F 36 30 31 30  7E).........6010
10A0: 08 80 2B E6 E1 07 01 98  80 23 2B E6 E1 07 01 99  ..+......#+.....
10B0: 80 23 5D 08 80 33 80 52  29 80 F0 FF FF 7F F0 FF  .#]..3.R).......
10C0: FF 7F 36 30 31 30 01 B4  13 02 04 00 2F 80 80 0A  ..6010....../...
10D0: 11 45 29 80 F0 FF FF 7F  F0 FF FF 7F 36 30 30 38  .E).........6008
10E0: 08 80 1A 12 0C 2A 10 DA  E1 07 01 79 00 DA E1 07  .....*.....y....
10F0: 01 E6 E1 07 01 52 29 80  F0 FF FF 7F F0 FF FF 7F  .....R).........
1100: 36 30 30 38 1A 37 0C 01  B4 13 02 04 00 68 80 80  6008.7.......h..
1110: 58 11 45 29 80 F0 FF FF  7F F0 FF FF 7F 36 30 30  X.E).........600
1120: 39 08 80 27 10 E6 E1 07  01 31 2B E6 E1 07 01 9A  9..'.....1+.....
1130: 80 23 2A 10 E6 E1 07 01  2B E6 E1 07 01 9B 80 23  .#*.....+......#
1140: 2A 10 E6 E1 07 01 52 29  80 F0 FF FF 7F F0 FF FF  *.....R)........
1150: 7F 36 30 30 39 01 B4 13  02 04 00 5A 80 80 98 11  .6009......Z....
1160: 45 29 80 F0 FF FF 7F F0  FF FF 7F 36 30 30 61 08  E).........600a.
1170: 80 27 10 E6 E1 07 01 0D  2B E6 E1 07 01 9C 80 23  .'......+......#
1180: 2A 10 E6 E1 07 01 52 29  80 F0 FF FF 7F F0 FF FF  *.....R)........
1190: 7F 36 30 30 61 01 B4 13  02 04 00 6C 80 80 ED 11  .600a......l....
11A0: 45 29 80 F0 FF FF 7F F0  FF FF 7F 36 30 30 39 08  E).........6009.
11B0: 80 1C 1F 80 27 10 E6 E1  07 01 13 2B E6 E1 07 01  ....'......+....
11C0: 9D 80 23 2A 10 E6 E1 07  01 1C 1E 80 27 10 E6 E1  ..#*........'...
11D0: 07 01 0B 2B E6 E1 07 01  7A 80 23 52 29 80 F0 FF  ...+....z.#R)...
11E0: FF 7F F0 FF FF 7F 36 30  30 39 01 B4 13 02 04 00  ......6009......
11F0: 70 80 80 3F 12 45 29 80  F0 FF FF 7F F0 FF FF 7F  p..?.E).........
1200: 36 30 30 61 08 80 2B E6  E1 07 01 9E 80 23 29 10  600a..+......#).
1210: E6 E1 07 01 0C 1C 1E 80  27 10 E6 E1 07 01 0D 2B  ........'......+
1220: E6 E1 07 01 9C 80 23 2A  10 E6 E1 07 01 52 29 80  ......#*.....R).
1230: F0 FF FF 7F F0 FF FF 7F  36 30 30 61 01 B4 13 02  ........600a....
1240: 04 00 71 80 80 FF 12 45  29 80 F0 FF FF 7F F0 FF  ..q....E).......
1250: FF 7F 36 30 30 64 08 80  27 10 E6 E1 07 01 28 2A  ..600d..'.....(*
1260: 10 E6 E1 07 01 27 10 DB  E1 07 01 28 1C 30 80 79  .....'.....(.0.y
1270: 02 DA E1 07 01 9F 80 08  80 1C 30 80 2B DA E1 07  ..........0.+...
1280: 01 A0 80 23 5C 00 A1 80  5C 01 A1 80 9A 2A 10 E6  ...#\...\....*..
1290: E1 07 01 2A 10 DA E1 07  01 79 00 F0 FF FF 7F DA  ...*.....y......
12A0: E1 07 01 1C 1F 80 52 29  80 F0 FF FF 7F F0 FF FF  ......R)........
12B0: 7F 36 30 30 64 45 29 80  F0 FF FF 7F F0 FF FF 7F  .600dE).........
12C0: 36 31 30 64 08 80 1C 1F  80 7B DA E1 07 01 1C 1F  610d.....{......
12D0: 80 27 10 DA E1 07 01 1A  2B DA E1 07 01 A2 80 23  .'......+......#
12E0: 2A 10 DA E1 07 01 27 10  DA E1 07 01 1B 52 29 80  *.....'......R).
12F0: F0 FF FF 7F F0 FF FF 7F  36 31 30 64 01 B4 13 02  ........610d....
1300: 04 00 74 80 80 4F 13 45  29 80 F0 FF FF 7F F0 FF  ..t..O.E).......
1310: FF 7F 36 30 30 65 08 80  1C 1F 80 27 10 DA E1 07  ..600e.....'....
1320: 01 14 2B DA E1 07 01 A3  80 23 03 02 10 94 80 2B  ..+......#.....+
1330: DA E1 07 01 A4 80 23 2A  10 DA E1 07 01 52 29 80  ......#*.....R).
1340: F0 FF FF 7F F0 FF FF 7F  36 30 30 65 01 B4 13 02  ........600e....
1350: 04 00 1E 80 80 B4 13 45  29 80 F0 FF FF 7F F0 FF  .......E).......
1360: FF 7F 36 30 30 66 08 80  2B DA E1 07 01 A5 80 5D  ..600f..+......]
1370: 08 80 A6 80 29 10 DA E1  07 01 16 1C 1F 80 7B DA  ....).........{.
1380: E1 07 01 4B DA E1 07 01  A7 80 59 01 DA E1 07 01  ...K......Y.....
1390: A8 80 6F 76 DA E1 07 01  27 10 DA E1 07 01 0E 1C  ..ov....'.......
13A0: A6 80 52 29 80 F0 FF FF  7F F0 FF FF 7F 36 30 30  ..R).........600
13B0: 66 01 B4 13 1B 45 26 80  F0 FF FF 7F F0 FF FF 7F  f....E&.........
13C0: 66 64 69 30 08 80 55 26  80 F0 FF FF 7F F0 FF FF  fdi0..U&........
13D0: 7F 66 64 69 30 1B 45 26  80 F0 FF FF 7F F0 FF FF  .fdi0.E&........
13E0: 7F 66 64 6F 30 08 80 55  26 80 F0 FF FF 7F F0 FF  .fdo0..U&.......
13F0: FF 7F 66 64 6F 30 1B 45  26 80 F0 FF FF 7F F0 FF  ..fdo0.E&.......
1400: FF 7F 66 64 69 31 08 80  55 26 80 F0 FF FF 7F F0  ..fdi1..U&......
1410: FF FF 7F 66 64 69 31 1B  45 26 80 F0 FF FF 7F F0  ...fdi1.E&......
1420: FF FF 7F 66 64 6F 31 08  80 55 26 80 F0 FF FF 7F  ...fdo1..U&.....
1430: F0 FF FF 7F 66 64 6F 31  1B 45 A9 80 F0 FF FF 7F  ....fdo1.E......
1440: F0 FF FF 7F 77 68 69 31  08 80 55 A9 80 F0 FF FF  ....whi1..U.....
1450: 7F F0 FF FF 7F 77 68 69  31 1B 45 A9 80 F0 FF FF  .....whi1.E.....
1460: 7F F0 FF FF 7F 77 68 6F  31 08 80 55 A9 80 F0 FF  .....who1..U....
1470: FF 7F F0 FF FF 7F 77 68  6F 31 1B 45 A9 80 F0 FF  ......who1.E....
1480: FF 7F F0 FF FF 7F 77 68  69 30 08 80 55 A9 80 F0  ......whi0..U...
1490: FF FF 7F F0 FF FF 7F 77  68 69 30 1B 45 A9 80 F0  .......whi0.E...
14A0: FF FF 7F F0 FF FF 7F 77  68 6F 30 08 80 55 A9 80  .......who0..U..
14B0: F0 FF FF 7F F0 FF FF 7F  77 68 6F 30 1B 45 AA 80  ........who0.E..
14C0: F0 FF FF 7F F0 FF FF 7F  65 66 6F 6E 08 80 55 AA  ........efon..U.
14D0: 80 F0 FF FF 7F F0 FF FF  7F 65 66 6F 6E 1B        .........efon.  
```

#### Opcodes

```
  0: 0x0A78 [0x42] SET_CLI_EVENT_CANCEL_DATA()
  1: 0x0A79 [0x1A] CALL_SUBROUTINE(address=0x1418)
  2: 0x0A7C [0x46] CAMERA_CONTROL: Disable user control
  3: 0x0A7E [0x38] SET_CLIENT_EVENT_MODE(mode=19*)
  4: 0x0A81 [0x29] REQ_SET_WAIT(priority=0x10, entity_id=LocalPlayer, tag_num=0x2E)
  5: 0x0A88 [0x29] REQ_SET_WAIT(priority=0x10, entity_id=??? (ID: 17293786/0x0107E1DA), tag_num=0x09)
  6: 0x0A8F [0x29] REQ_SET_WAIT(priority=0x10, entity_id=Unnamed NPC (ID: 17293787/0x0107E1DB), tag_num=0x17)
  7: 0x0A96 [0x29] REQ_SET_WAIT(priority=0x10, entity_id=Shantotto (ID: 17293798/0x0107E1E6), tag_num=0x01)
  8: 0x0A9D [0x29] REQ_SET_WAIT(priority=0x10, entity_id=Unnamed NPC (ID: 17293787/0x0107E1DB), tag_num=0x19)
  9: 0x0AA4 [0x59] UPDATE_ENTITY_DATA: Shantotto (ID: 17293798/0x0107E1E6)->Render.Flags0 |= 0x200000
 10: 0x0AAB [0x59] UPDATE_ENTITY_DATA: ??? (ID: 17293786/0x0107E1DA)->Render.Flags0 |= 0x200000
 11: 0x0AB2 [0x59] UPDATE_ENTITY_DATA: Unnamed NPC (ID: 17293787/0x0107E1DB)->Render.Flags0 |= 0x200000
 12: 0x0AB9 [0xBA] SET_ENTITY_POSITION(entity_id=LocalPlayer, pos_x=-19.775*, pos_z=104.400*, pos_y=-17.300*, direction=187.2°*)
 13: 0x0AC6 [0xBA] SET_ENTITY_POSITION(entity_id=??? (ID: 17293786/0x0107E1DA), pos_x=-29.381*, pos_z=94.340*, pos_y=-19.312*, direction=292.4°*)
 14: 0x0AD3 [0xBA] SET_ENTITY_POSITION(entity_id=Unnamed NPC (ID: 17293787/0x0107E1DB), pos_x=-19.775*, pos_z=104.400*, pos_y=-17.300*, direction=187.2°*)
 15: 0x0AE0 [0xBA] SET_ENTITY_POSITION(entity_id=Shantotto (ID: 17293798/0x0107E1E6), pos_x=-20.875*, pos_z=103.300*, pos_y=-18.450*, direction=133.6°*)
 16: 0x0AED [0x80] LOAD_WAIT(entity=LocalPlayer)
 17: 0x0AF2 [0x80] LOAD_WAIT(entity=??? (ID: 17293786/0x0107E1DA))
 18: 0x0AF7 [0x80] LOAD_WAIT(entity=Unnamed NPC (ID: 17293787/0x0107E1DB))
 19: 0x0AFC [0x80] LOAD_WAIT(entity=Shantotto (ID: 17293798/0x0107E1E6))
 20: 0x0B01 [0x1C] WAIT(15* ticks)
 21: 0x0B04 [0x4A] ??? (ID: 17293786/0x0107E1DA) looks at LocalPlayer
 22: 0x0B0D [0x4A] Shantotto (ID: 17293798/0x0107E1E6) looks at LocalPlayer
 23: 0x0B16 [0x6F] WAIT_FRAME_DELAY: Yield until WaitTime reaches zero
 24: 0x0B17 [0x76] CHECK_ENTITY_RENDER_FLAGS: Wait until ??? (ID: 17293786/0x0107E1DA) Render.Flags0 and Render.Flags3 conditions are met
 25: 0x0B1C [0x6F] WAIT_FRAME_DELAY: Yield until WaitTime reaches zero
 26: 0x0B1D [0x76] CHECK_ENTITY_RENDER_FLAGS: Wait until Shantotto (ID: 17293798/0x0107E1E6) Render.Flags0 and Render.Flags3 conditions are met
 27: 0x0B22 [0x1C] WAIT(15* ticks)
 28: 0x0B25 [0x7B] ??? (ID: 17293786/0x0107E1DA) stops talking
 29: 0x0B2A [0x7B] Shantotto (ID: 17293798/0x0107E1E6) stops talking
 30: 0x0B2F [0x27] REQ_SET(priority=0x10, entity_id=Shantotto (ID: 17293798/0x0107E1E6), tag_num=0x25)
 31: 0x0B36 [0x27] REQ_SET(priority=0x10, entity_id=Shantotto (ID: 17293798/0x0107E1E6), tag_num=0x0A)
 32: 0x0B3D [0x27] REQ_SET(priority=0x10, entity_id=Shantotto (ID: 17293798/0x0107E1E6), tag_num=0x06)
 33: 0x0B44 [0x27] REQ_SET(priority=0x10, entity_id=??? (ID: 17293786/0x0107E1DA), tag_num=0x0A)
 34: 0x0B4B [0x1C] WAIT(30* ticks)
 35: 0x0B4E [0x29] REQ_SET_WAIT(priority=0x10, entity_id=Unnamed NPC (ID: 17293787/0x0107E1DB), tag_num=0x25)
 36: 0x0B55 [0x03] ExtData[1]->WorkLocal[4] = 1*
 37: 0x0B5A [0x02] IF !(ExtData[1]->WorkLocal[4] > 15*) GOTO 0x0B80
 38: 0x0B62 [0x02] IF !(0* < ExtData[1]->WorkLocal[4]) GOTO 0x0B78
 39: 0x0B6A [0x02] IF !(ExtData[1]->WorkLocal[4] == 2*) GOTO 0x0B78
 40: 0x0B72 [0x1A] CALL_SUBROUTINE(address=0x13F7)
 41: 0x0B75 [0x01] GOTO 0x0B78

SUBROUTINE_0B78:
 42: 0x0B78 [0x07] ExtData[1]->WorkLocal[4] += 1*
 43: 0x0B7D [0x01] GOTO 0x0B5A
 44: 0x0B80 [0x03] ExtData[1]->WorkLocal[4] = 1*

SUBROUTINE_0B85:
 45: 0x0B85 [0x02] IF !(ExtData[1]->WorkLocal[4] > 15*) GOTO 0x0BDA
 46: 0x0B8D [0x02] IF !(0* > ExtData[1]->WorkLocal[4]) GOTO 0x0BD2
 47: 0x0B95 [0x02] IF !(ExtData[1]->WorkLocal[3] == 0*) GOTO 0x0BB9
 48: 0x0B9D [0x02] IF !(ExtData[1]->WorkLocal[4] > 10*) GOTO 0x0BAB
 49: 0x0BA5 [0x1A] CALL_SUBROUTINE(address=0x0DAC)
 50: 0x0BA8 [0x01] GOTO 0x0BB6
 51: 0x0BAB [0x02] IF !(12* >= ExtData[1]->WorkLocal[4]) GOTO 0x0BB6
 52: 0x0BB3 [0x1A] CALL_SUBROUTINE(address=0x0DAC)

SUBROUTINE_0BB6:
 53: 0x0BB6 [0x01] GOTO 0x0BD2
 54: 0x0BB9 [0x02] IF !(ExtData[1]->WorkLocal[4] >= 9*) GOTO 0x0BC7
 55: 0x0BC1 [0x1A] CALL_SUBROUTINE(address=0x0DAC)
 56: 0x0BC4 [0x01] GOTO 0x0BD2
 57: 0x0BC7 [0x02] IF !(11* > ExtData[1]->WorkLocal[4]) GOTO 0x0BD2
 58: 0x0BCF [0x1A] CALL_SUBROUTINE(address=0x0DAC)

SUBROUTINE_0BD2:
 59: 0x0BD2 [0x07] ExtData[1]->WorkLocal[4] += 1*
 60: 0x0BD7 [0x01] GOTO 0x0B85
 61: 0x0BDA [0x1A] CALL_SUBROUTINE(address=0x1418)
 62: 0x0BDD [0x1C] WAIT(30* ticks)
 63: 0x0BE0 [0x27] REQ_SET(priority=0x10, entity_id=??? (ID: 17293786/0x0107E1DA), tag_num=0x0C)
 64: 0x0BE7 [0x5C] MUSIC_CONTROL: Set Idle (Day) music to song 0*
 65: 0x0BEB [0x5C] MUSIC_CONTROL: Set Idle (Night) music to song 0*
 66: 0x0BEF [0x9A] WAIT_MUSIC_SERVER()
 67: 0x0BF0 [0x46] CAMERA_CONTROL: Restore default settings
 68: 0x0BF2 [0x45] LOAD_SCHEDULED_TASK: Load scheduler "fdi2" with entities [LocalPlayer, LocalPlayer], work=[200*, 0*]
 69: 0x0C03 [0x21] END_EVENT
 70: 0x0C04 [0x00] END_REQSTACK()

SUBROUTINE_0C12:
 71: 0x0C12 [0x24] CREATE_DIALOG(message_id=11504*, default_option=0*, option_flags=0*)
    → "Undertake the assassination? [As you wish, my empress./Do your own dirty work!]"
 72: 0x0C19 [0x25] WAIT_DIALOG_SELECT()
 73: 0x0C1A [0x02] IF !(Work_Zone[0] == 0*) GOTO 0x0C28
 74: 0x0C22 [0x06] ExtData[1]->WorkLocal[3] = 0
 75: 0x0C25 [0x01] GOTO 0x0C36
 76: 0x0C28 [0x02] IF !(Work_Zone[0] == 1*) GOTO 0x0C36
 77: 0x0C30 [0x05] ExtData[1]->WorkLocal[3] = 1
 78: 0x0C33 [0x01] GOTO 0x0C36

SUBROUTINE_0C36:
 79: 0x0C36 [0x1B] RETURN

SUBROUTINE_0C37:
 80: 0x0C37 [0x7B] LocalPlayer stops talking
 81: 0x0C3C [0x02] IF !(ExtData[1]->WorkLocal[3] == 0*) GOTO 0x0C53
 82: 0x0C44 [0x6E] LocalPlayer uses emote 7*
 83: 0x0C4B [0x99] Wait for LocalPlayer animation to complete
 84: 0x0C50 [0x01] GOTO 0x0C5F
 85: 0x0C53 [0x6E] LocalPlayer uses emote 6*
 86: 0x0C5A [0x99] Wait for LocalPlayer animation to complete

SUBROUTINE_0C5F:
 87: 0x0C5F [0x02] IF !(LocalPlayer->Race == 1*) GOTO 0x0C7B
 88: 0x0C67 [0x45] LOAD_SCHEDULED_TASK: Load scheduler "60a1" with entities [LocalPlayer, LocalPlayer], work=[473*, 0*]
 89: 0x0C78 [0x01] GOTO 0x0D3F
 90: 0x0C7B [0x02] IF !(LocalPlayer->Race == 2*) GOTO 0x0C97
 91: 0x0C83 [0x45] LOAD_SCHEDULED_TASK: Load scheduler "60a2" with entities [LocalPlayer, LocalPlayer], work=[473*, 0*]
 92: 0x0C94 [0x01] GOTO 0x0D3F
 93: 0x0C97 [0x02] IF !(LocalPlayer->Race == 3*) GOTO 0x0CB3
 94: 0x0C9F [0x45] LOAD_SCHEDULED_TASK: Load scheduler "60a3" with entities [LocalPlayer, LocalPlayer], work=[473*, 0*]
 95: 0x0CB0 [0x01] GOTO 0x0D3F
 96: 0x0CB3 [0x02] IF !(LocalPlayer->Race == 4*) GOTO 0x0CCF
 97: 0x0CBB [0x45] LOAD_SCHEDULED_TASK: Load scheduler "60a4" with entities [LocalPlayer, LocalPlayer], work=[473*, 0*]
 98: 0x0CCC [0x01] GOTO 0x0D3F
 99: 0x0CCF [0x02] IF !(LocalPlayer->Race == 5*) GOTO 0x0CEB
100: 0x0CD7 [0x45] LOAD_SCHEDULED_TASK: Load scheduler "60a5" with entities [LocalPlayer, LocalPlayer], work=[473*, 0*]
101: 0x0CE8 [0x01] GOTO 0x0D3F
102: 0x0CEB [0x02] IF !(LocalPlayer->Race == 6*) GOTO 0x0D07
103: 0x0CF3 [0x45] LOAD_SCHEDULED_TASK: Load scheduler "60a5" with entities [LocalPlayer, LocalPlayer], work=[473*, 0*]
104: 0x0D04 [0x01] GOTO 0x0D3F
105: 0x0D07 [0x02] IF !(LocalPlayer->Race == 7*) GOTO 0x0D23
106: 0x0D0F [0x45] LOAD_SCHEDULED_TASK: Load scheduler "60a6" with entities [LocalPlayer, LocalPlayer], work=[473*, 0*]
107: 0x0D20 [0x01] GOTO 0x0D3F
108: 0x0D23 [0x02] IF !(LocalPlayer->Race == 8*) GOTO 0x0D3F
109: 0x0D2B [0x45] LOAD_SCHEDULED_TASK: Load scheduler "60a7" with entities [LocalPlayer, LocalPlayer], work=[473*, 0*]
110: 0x0D3C [0x01] GOTO 0x0D3F

SUBROUTINE_0D3F:
111: 0x0D3F [0x1C] WAIT(100* ticks)
112: 0x0D42 [0x52] END_LOAD_SCHEDULER: End scheduler "60a1" with entities [LocalPlayer, LocalPlayer], work=473*
113: 0x0D51 [0x52] END_LOAD_SCHEDULER: End scheduler "60a2" with entities [LocalPlayer, LocalPlayer], work=473*
114: 0x0D60 [0x52] END_LOAD_SCHEDULER: End scheduler "60a3" with entities [LocalPlayer, LocalPlayer], work=473*
115: 0x0D6F [0x52] END_LOAD_SCHEDULER: End scheduler "60a4" with entities [LocalPlayer, LocalPlayer], work=473*
116: 0x0D7E [0x52] END_LOAD_SCHEDULER: End scheduler "60a5" with entities [LocalPlayer, LocalPlayer], work=473*
117: 0x0D8D [0x52] END_LOAD_SCHEDULER: End scheduler "60a6" with entities [LocalPlayer, LocalPlayer], work=473*
118: 0x0D9C [0x52] END_LOAD_SCHEDULER: End scheduler "60a7" with entities [LocalPlayer, LocalPlayer], work=473*
119: 0x0DAB [0x1B] RETURN

SUBROUTINE_0DAC:
120: 0x0DAC [0x02] IF !(ExtData[1]->WorkLocal[4] == 1*) GOTO 0x0E00
121: 0x0DB4 [0x45] LOAD_SCHEDULED_TASK: Load scheduler "6001" with entities [LocalPlayer, LocalPlayer], work=[473*, 0*]
122: 0x0DC5 [0x1A] CALL_SUBROUTINE(address=0x13F7)
123: 0x0DC8 [0x1C] WAIT(30* ticks)
124: 0x0DCB [0x27] REQ_SET(priority=0x10, entity_id=??? (ID: 17293786/0x0107E1DA), tag_num=0x0D)
125: 0x0DD2 [0x2B] ??? (ID: 17293786/0x0107E1DA) [11489*]:
    → "M-M-Master!"
126: 0x0DD9 [0x1C] WAIT(80* ticks)
127: 0x0DDC [0x4A] LocalPlayer looks at ??? (ID: 17293786/0x0107E1DA)
128: 0x0DE5 [0x6F] WAIT_FRAME_DELAY: Yield until WaitTime reaches zero
129: 0x0DE6 [0x76] CHECK_ENTITY_RENDER_FLAGS: Wait until LocalPlayer Render.Flags0 and Render.Flags3 conditions are met
130: 0x0DEB [0x1C] WAIT(30* ticks)
131: 0x0DEE [0x55] WAIT_LOAD_SCHEDULER: Wait for scheduler "6001" with entities [LocalPlayer, LocalPlayer], work=473*
132: 0x0DFD [0x01] GOTO 0x13B4
133: 0x0E00 [0x02] IF !(ExtData[1]->WorkLocal[4] == 2*) GOTO 0x0E3F
134: 0x0E08 [0x45] LOAD_SCHEDULED_TASK: Load scheduler "6002" with entities [LocalPlayer, LocalPlayer], work=[473*, 0*]
135: 0x0E19 [0x2A] GET_REQ_LEVEL(level=16, entity_id=??? (ID: 17293786/0x0107E1DA))
136: 0x0E1F [0x27] REQ_SET(priority=0x10, entity_id=Unnamed NPC (ID: 17293787/0x0107E1DB), tag_num=0x1A)
137: 0x0E26 [0x27] REQ_SET(priority=0x10, entity_id=Shantotto (ID: 17293798/0x0107E1E6), tag_num=0x26)
138: 0x0E2D [0x52] END_LOAD_SCHEDULER: End scheduler "6002" with entities [LocalPlayer, LocalPlayer], work=473*
139: 0x0E3C [0x01] GOTO 0x13B4
140: 0x0E3F [0x02] IF !(ExtData[1]->WorkLocal[4] == 3*) GOTO 0x0E96
141: 0x0E47 [0x45] LOAD_SCHEDULED_TASK: Load scheduler "6003" with entities [LocalPlayer, LocalPlayer], work=[473*, 0*]
142: 0x0E58 [0x27] REQ_SET(priority=0x10, entity_id=??? (ID: 17293786/0x0107E1DA), tag_num=0x0B)
143: 0x0E5F [0x1C] WAIT(30* ticks)
144: 0x0E62 [0x27] REQ_SET(priority=0x10, entity_id=Unnamed NPC (ID: 17293787/0x0107E1DB), tag_num=0x26)
145: 0x0E69 [0x27] REQ_SET(priority=0x10, entity_id=??? (ID: 17293786/0x0107E1DA), tag_num=0x17)
146: 0x0E70 [0x2B] ??? (ID: 17293786/0x0107E1DA) [11490*]:
    → "A-a-another urgent letter has arrived from the self-styled Eternal Empress during your absence, kupo!"
147: 0x0E77 [0x23] WAIT_FOR_DIALOG_INTERACTION
148: 0x0E78 [0x2A] GET_REQ_LEVEL(level=16, entity_id=??? (ID: 17293786/0x0107E1DA))
149: 0x0E7E [0x1C] WAIT(60* ticks)
150: 0x0E81 [0x1A] CALL_SUBROUTINE(address=0x1418)
151: 0x0E84 [0x52] END_LOAD_SCHEDULER: End scheduler "6003" with entities [LocalPlayer, LocalPlayer], work=473*
152: 0x0E93 [0x01] GOTO 0x13B4
153: 0x0E96 [0x02] IF !(ExtData[1]->WorkLocal[4] == 4*) GOTO 0x0F8C
154: 0x0E9E [0x27] REQ_SET(priority=0x10, entity_id=Unnamed NPC (ID: 17293787/0x0107E1DB), tag_num=0x18)
155: 0x0EA5 [0x1C] WAIT(90* ticks)
156: 0x0EA8 [0x27] REQ_SET(priority=0x10, entity_id=Unnamed NPC (ID: 17293787/0x0107E1DB), tag_num=0x1E)
157: 0x0EAF [0x27] REQ_SET(priority=0x10, entity_id=??? (ID: 17293786/0x0107E1DA), tag_num=0x10)
158: 0x0EB6 [0x2A] GET_REQ_LEVEL(level=16, entity_id=??? (ID: 17293786/0x0107E1DA))
159: 0x0EBC [0x2A] GET_REQ_LEVEL(level=16, entity_id=Unnamed NPC (ID: 17293787/0x0107E1DB))
160: 0x0EC2 [0x1C] WAIT(30* ticks)
161: 0x0EC5 [0x45] LOAD_SCHEDULED_TASK: Load scheduler "6201" with entities [LocalPlayer, LocalPlayer], work=[473*, 0*]
162: 0x0ED6 [0x1A] CALL_SUBROUTINE(address=0x13F7)
163: 0x0ED9 [0x2B] ??? (ID: 17293786/0x0107E1DA) [11491*]:
    → "Let me read it to you this instant..."
164: 0x0EE0 [0x23] WAIT_FOR_DIALOG_INTERACTION
165: 0x0EE1 [0x52] END_LOAD_SCHEDULER: End scheduler "6201" with entities [LocalPlayer, LocalPlayer], work=473*
166: 0x0EF0 [0x45] LOAD_SCHEDULED_TASK: Load scheduler "6104" with entities [LocalPlayer, LocalPlayer], work=[473*, 0*]
167: 0x0F01 [0x27] REQ_SET(priority=0x10, entity_id=Unnamed NPC (ID: 17293787/0x0107E1DB), tag_num=0x27)
168: 0x0F08 [0x29] REQ_SET_WAIT(priority=0x10, entity_id=??? (ID: 17293786/0x0107E1DA), tag_num=0x18)
169: 0x0F0F [0x29] REQ_SET_WAIT(priority=0x10, entity_id=Shantotto (ID: 17293798/0x0107E1E6), tag_num=0x27)
170: 0x0F16 [0x5C] MUSIC_CONTROL: Set Idle (Day) music to song 127*
171: 0x0F1A [0x5C] MUSIC_CONTROL: Set Idle (Night) music to song 127*
172: 0x0F1E [0x9A] WAIT_MUSIC_SERVER()
173: 0x0F1F [0x7B] Shantotto (ID: 17293798/0x0107E1E6) stops talking
174: 0x0F24 [0x79] LocalPlayer looks at Shantotto (ID: 17293798/0x0107E1E6) (Basic look)
175: 0x0F2E [0x1C] WAIT(160* ticks)
176: 0x0F31 [0x52] END_LOAD_SCHEDULER: End scheduler "6104" with entities [LocalPlayer, LocalPlayer], work=473*
177: 0x0F40 [0x45] LOAD_SCHEDULED_TASK: Load scheduler "6504" with entities [LocalPlayer, LocalPlayer], work=[473*, 0*]
178: 0x0F51 [0x1C] WAIT(15* ticks)
179: 0x0F54 [0x27] REQ_SET(priority=0x10, entity_id=Shantotto (ID: 17293798/0x0107E1E6), tag_num=0x0B)
180: 0x0F5B [0x29] REQ_SET_WAIT(priority=0x10, entity_id=Shantotto (ID: 17293798/0x0107E1E6), tag_num=0x02)
181: 0x0F62 [0x2B] Shantotto (ID: 17293798/0x0107E1E6) [11492*]:
    → "Aptly done, our minion, you ought to be commended, for amplifying the crystals' power exactly as we had intended."
182: 0x0F69 [0x23] WAIT_FOR_DIALOG_INTERACTION
183: 0x0F6A [0x2B] Shantotto (ID: 17293798/0x0107E1E6) [11493*]:
    → "Enclosed within the envelope is your reward as was discussed. The sum is performance-based, so you should find it not unjust."
184: 0x0F71 [0x23] WAIT_FOR_DIALOG_INTERACTION
185: 0x0F72 [0x2B] Shantotto (ID: 17293798/0x0107E1E6) [11494*]:
    → "No time to take a breather, though, the war effort will not wait. The next step involves securing funds to put food on our armies' plate."
186: 0x0F79 [0x23] WAIT_FOR_DIALOG_INTERACTION
187: 0x0F7A [0x52] END_LOAD_SCHEDULER: End scheduler "6504" with entities [LocalPlayer, LocalPlayer], work=473*
188: 0x0F89 [0x01] GOTO 0x13B4
189: 0x0F8C [0x02] IF !(ExtData[1]->WorkLocal[4] == 5*) GOTO 0x0FFC
190: 0x0F94 [0x45] LOAD_SCHEDULED_TASK: Load scheduler "6005" with entities [LocalPlayer, LocalPlayer], work=[473*, 0*]
191: 0x0FA5 [0x27] REQ_SET(priority=0x10, entity_id=Shantotto (ID: 17293798/0x0107E1E6), tag_num=0x0C)
192: 0x0FAC [0x2B] Shantotto (ID: 17293798/0x0107E1E6) [11495*]:
    → "Listen up and listen close, the master plan is thus: we usurp the Tenshodo and roll in dough without a fuss."
193: 0x0FB3 [0x23] WAIT_FOR_DIALOG_INTERACTION
194: 0x0FB4 [0x52] END_LOAD_SCHEDULER: End scheduler "6005" with entities [LocalPlayer, LocalPlayer], work=473*
195: 0x0FC3 [0x45] LOAD_SCHEDULED_TASK: Load scheduler "6105" with entities [LocalPlayer, LocalPlayer], work=[473*, 0*]
196: 0x0FD4 [0x27] REQ_SET(priority=0x10, entity_id=Shantotto (ID: 17293798/0x0107E1E6), tag_num=0x0D)
197: 0x0FDB [0x2B] Shantotto (ID: 17293798/0x0107E1E6) [11496*]:
    → "Your role in this, <Player>, will be the secret assassination of the Tenshodo's young leader, Aldo; a critical operation."
198: 0x0FE2 [0x23] WAIT_FOR_DIALOG_INTERACTION
199: 0x0FE3 [0x27] REQ_SET(priority=0x10, entity_id=Shantotto (ID: 17293798/0x0107E1E6), tag_num=0x0E)
200: 0x0FEA [0x52] END_LOAD_SCHEDULER: End scheduler "6105" with entities [LocalPlayer, LocalPlayer], work=473*
201: 0x0FF9 [0x01] GOTO 0x13B4
202: 0x0FFC [0x02] IF !(ExtData[1]->WorkLocal[4] == 6*) GOTO 0x1037
203: 0x1004 [0x45] LOAD_SCHEDULED_TASK: Load scheduler "6006" with entities [LocalPlayer, LocalPlayer], work=[473*, 0*]
204: 0x1015 [0x2B] Shantotto (ID: 17293798/0x0107E1E6) [11497*]:
    → "To aid you on your way, preparations have already been made."
205: 0x101C [0x23] WAIT_FOR_DIALOG_INTERACTION
206: 0x101D [0x2B] Shantotto (ID: 17293798/0x0107E1E6) [11498*]:
    → "Aldo will soon arrive at the Gustav Tunnel, thanks to false information laid."
207: 0x1024 [0x23] WAIT_FOR_DIALOG_INTERACTION
208: 0x1025 [0x52] END_LOAD_SCHEDULER: End scheduler "6006" with entities [LocalPlayer, LocalPlayer], work=473*
209: 0x1034 [0x01] GOTO 0x13B4
210: 0x1037 [0x02] IF !(ExtData[1]->WorkLocal[4] == 7*) GOTO 0x10C9
211: 0x103F [0x45] LOAD_SCHEDULED_TASK: Load scheduler "6007" with entities [LocalPlayer, LocalPlayer], work=[473*, 0*]
212: 0x1050 [0x27] REQ_SET(priority=0x10, entity_id=??? (ID: 17293786/0x0107E1DA), tag_num=0x19)
213: 0x1057 [0x27] REQ_SET(priority=0x10, entity_id=Shantotto (ID: 17293798/0x0107E1E6), tag_num=0x0B)
214: 0x105E [0x03] Work_Zone[2] = 1203*
215: 0x1063 [0x2B] Shantotto (ID: 17293798/0x0107E1E6) [11499*]:
    → "Your first stop, though, is Norg, so pray make a brief detour."
216: 0x106A [0x23] WAIT_FOR_DIALOG_INTERACTION
217: 0x106B [0x2B] Shantotto (ID: 17293798/0x0107E1E6) [11500*]:
    → "Speak with a man named Andrause, from him $6 you must procure."
218: 0x1072 [0x23] WAIT_FOR_DIALOG_INTERACTION
219: 0x1073 [0x2B] Shantotto (ID: 17293798/0x0107E1E6) [11501*]:
    → "With it in your hands, into the tunnel venture deep. And you should find the target will recognize you at a peep."
220: 0x107A [0x23] WAIT_FOR_DIALOG_INTERACTION
221: 0x107B [0x29] REQ_SET_WAIT(priority=0x10, entity_id=Shantotto (ID: 17293798/0x0107E1E6), tag_num=0x0C)
222: 0x1082 [0x52] END_LOAD_SCHEDULER: End scheduler "6007" with entities [LocalPlayer, LocalPlayer], work=473*
223: 0x1091 [0x45] LOAD_SCHEDULED_TASK: Load scheduler "6010" with entities [LocalPlayer, LocalPlayer], work=[473*, 0*]
224: 0x10A2 [0x2B] Shantotto (ID: 17293798/0x0107E1E6) [11502*]:
    → "How the task is carried out is for you to decide."
225: 0x10A9 [0x23] WAIT_FOR_DIALOG_INTERACTION
226: 0x10AA [0x2B] Shantotto (ID: 17293798/0x0107E1E6) [11503*]:
    → "When the deed is done you shall hear word from our side."
227: 0x10B1 [0x23] WAIT_FOR_DIALOG_INTERACTION
228: 0x10B2 [0x5D] SET_MUSIC_VOLUME(volume=0*, fade_time=120*)
229: 0x10B7 [0x52] END_LOAD_SCHEDULER: End scheduler "6010" with entities [LocalPlayer, LocalPlayer], work=473*
230: 0x10C6 [0x01] GOTO 0x13B4
231: 0x10C9 [0x02] IF !(ExtData[1]->WorkLocal[4] == 8*) GOTO 0x110A
232: 0x10D1 [0x45] LOAD_SCHEDULED_TASK: Load scheduler "6008" with entities [LocalPlayer, LocalPlayer], work=[473*, 0*]
233: 0x10E2 [0x1A] CALL_SUBROUTINE(address=0x0C12)
234: 0x10E5 [0x2A] GET_REQ_LEVEL(level=16, entity_id=??? (ID: 17293786/0x0107E1DA))
235: 0x10EB [0x79] ??? (ID: 17293786/0x0107E1DA) looks at Shantotto (ID: 17293798/0x0107E1E6) (Basic look)
236: 0x10F5 [0x52] END_LOAD_SCHEDULER: End scheduler "6008" with entities [LocalPlayer, LocalPlayer], work=473*
237: 0x1104 [0x1A] CALL_SUBROUTINE(address=0x0C37)
238: 0x1107 [0x01] GOTO 0x13B4
239: 0x110A [0x02] IF !(ExtData[1]->WorkLocal[4] == 9*) GOTO 0x1158
240: 0x1112 [0x45] LOAD_SCHEDULED_TASK: Load scheduler "6009" with entities [LocalPlayer, LocalPlayer], work=[473*, 0*]
241: 0x1123 [0x27] REQ_SET(priority=0x10, entity_id=Shantotto (ID: 17293798/0x0107E1E6), tag_num=0x31)
242: 0x112A [0x2B] Shantotto (ID: 17293798/0x0107E1E6) [11505*]:
    → "We pray for resounding success in this imperial undertaking."
243: 0x1131 [0x23] WAIT_FOR_DIALOG_INTERACTION
244: 0x1132 [0x2A] GET_REQ_LEVEL(level=16, entity_id=Shantotto (ID: 17293798/0x0107E1E6))
245: 0x1138 [0x2B] Shantotto (ID: 17293798/0x0107E1E6) [11506*]:
    → "For failure's reward is pain; the screams shall not require faking."
246: 0x113F [0x23] WAIT_FOR_DIALOG_INTERACTION
247: 0x1140 [0x2A] GET_REQ_LEVEL(level=16, entity_id=Shantotto (ID: 17293798/0x0107E1E6))
248: 0x1146 [0x52] END_LOAD_SCHEDULER: End scheduler "6009" with entities [LocalPlayer, LocalPlayer], work=473*
249: 0x1155 [0x01] GOTO 0x13B4
250: 0x1158 [0x02] IF !(ExtData[1]->WorkLocal[4] == 10*) GOTO 0x1198
251: 0x1160 [0x45] LOAD_SCHEDULED_TASK: Load scheduler "600a" with entities [LocalPlayer, LocalPlayer], work=[473*, 0*]
252: 0x1171 [0x27] REQ_SET(priority=0x10, entity_id=Shantotto (ID: 17293798/0x0107E1E6), tag_num=0x0D)
253: 0x1178 [0x2B] Shantotto (ID: 17293798/0x0107E1E6) [11507*]:
    → "For the glory of the Empire and her empress most fair, be prepared to lose more than a few tufts of hair."
254: 0x117F [0x23] WAIT_FOR_DIALOG_INTERACTION
255: 0x1180 [0x2A] GET_REQ_LEVEL(level=16, entity_id=Shantotto (ID: 17293798/0x0107E1E6))
256: 0x1186 [0x52] END_LOAD_SCHEDULER: End scheduler "600a" with entities [LocalPlayer, LocalPlayer], work=473*
257: 0x1195 [0x01] GOTO 0x13B4
258: 0x1198 [0x02] IF !(ExtData[1]->WorkLocal[4] == 11*) GOTO 0x11ED
259: 0x11A0 [0x45] LOAD_SCHEDULED_TASK: Load scheduler "6009" with entities [LocalPlayer, LocalPlayer], work=[473*, 0*]
260: 0x11B1 [0x1C] WAIT(30* ticks)
261: 0x11B4 [0x27] REQ_SET(priority=0x10, entity_id=Shantotto (ID: 17293798/0x0107E1E6), tag_num=0x13)
262: 0x11BB [0x2B] Shantotto (ID: 17293798/0x0107E1E6) [11508*]:
    → "Dear, naive <Player>, we have already had this conversation."
263: 0x11C2 [0x23] WAIT_FOR_DIALOG_INTERACTION
264: 0x11C3 [0x2A] GET_REQ_LEVEL(level=16, entity_id=Shantotto (ID: 17293798/0x0107E1E6))
265: 0x11C9 [0x1C] WAIT(15* ticks)
266: 0x11CC [0x27] REQ_SET(priority=0x10, entity_id=Shantotto (ID: 17293798/0x0107E1E6), tag_num=0x0B)
267: 0x11D3 [0x2B] Shantotto (ID: 17293798/0x0107E1E6) [11487*]:
    → "You have no say in this; disobedience will be met with termination."
268: 0x11DA [0x23] WAIT_FOR_DIALOG_INTERACTION
269: 0x11DB [0x52] END_LOAD_SCHEDULER: End scheduler "6009" with entities [LocalPlayer, LocalPlayer], work=473*
270: 0x11EA [0x01] GOTO 0x13B4
271: 0x11ED [0x02] IF !(ExtData[1]->WorkLocal[4] == 12*) GOTO 0x123F
272: 0x11F5 [0x45] LOAD_SCHEDULED_TASK: Load scheduler "600a" with entities [LocalPlayer, LocalPlayer], work=[473*, 0*]
273: 0x1206 [0x2B] Shantotto (ID: 17293798/0x0107E1E6) [11509*]:
    → "Are we clear, dear?"
274: 0x120D [0x23] WAIT_FOR_DIALOG_INTERACTION
275: 0x120E [0x29] REQ_SET_WAIT(priority=0x10, entity_id=Shantotto (ID: 17293798/0x0107E1E6), tag_num=0x0C)
276: 0x1215 [0x1C] WAIT(15* ticks)
277: 0x1218 [0x27] REQ_SET(priority=0x10, entity_id=Shantotto (ID: 17293798/0x0107E1E6), tag_num=0x0D)
278: 0x121F [0x2B] Shantotto (ID: 17293798/0x0107E1E6) [11507*]:
    → "For the glory of the Empire and her empress most fair, be prepared to lose more than a few tufts of hair."
279: 0x1226 [0x23] WAIT_FOR_DIALOG_INTERACTION
280: 0x1227 [0x2A] GET_REQ_LEVEL(level=16, entity_id=Shantotto (ID: 17293798/0x0107E1E6))
281: 0x122D [0x52] END_LOAD_SCHEDULER: End scheduler "600a" with entities [LocalPlayer, LocalPlayer], work=473*
282: 0x123C [0x01] GOTO 0x13B4
283: 0x123F [0x02] IF !(ExtData[1]->WorkLocal[4] == 13*) GOTO 0x12FF
284: 0x1247 [0x45] LOAD_SCHEDULED_TASK: Load scheduler "600d" with entities [LocalPlayer, LocalPlayer], work=[473*, 0*]
285: 0x1258 [0x27] REQ_SET(priority=0x10, entity_id=Shantotto (ID: 17293798/0x0107E1E6), tag_num=0x28)
286: 0x125F [0x2A] GET_REQ_LEVEL(level=16, entity_id=Shantotto (ID: 17293798/0x0107E1E6))
287: 0x1265 [0x27] REQ_SET(priority=0x10, entity_id=Unnamed NPC (ID: 17293787/0x0107E1DB), tag_num=0x28)
288: 0x126C [0x1C] WAIT(100* ticks)
289: 0x126F [0x79] ??? (ID: 17293786/0x0107E1DA) looks at Unknown NPC (ID: 2148040863/0x8008809F) (Direct axis set)
290: 0x1279 [0x1C] WAIT(100* ticks)
291: 0x127C [0x2B] ??? (ID: 17293786/0x0107E1DA) [11510*]:
    → "My, oh my..."
292: 0x1283 [0x23] WAIT_FOR_DIALOG_INTERACTION
293: 0x1284 [0x5C] MUSIC_CONTROL: Set Idle (Day) music to song 164*
294: 0x1288 [0x5C] MUSIC_CONTROL: Set Idle (Night) music to song 164*
295: 0x128C [0x9A] WAIT_MUSIC_SERVER()
296: 0x128D [0x2A] GET_REQ_LEVEL(level=16, entity_id=Shantotto (ID: 17293798/0x0107E1E6))
297: 0x1293 [0x2A] GET_REQ_LEVEL(level=16, entity_id=??? (ID: 17293786/0x0107E1DA))
298: 0x1299 [0x79] LocalPlayer looks at ??? (ID: 17293786/0x0107E1DA) (Basic look)
299: 0x12A3 [0x1C] WAIT(30* ticks)
300: 0x12A6 [0x52] END_LOAD_SCHEDULER: End scheduler "600d" with entities [LocalPlayer, LocalPlayer], work=473*
301: 0x12B5 [0x45] LOAD_SCHEDULED_TASK: Load scheduler "610d" with entities [LocalPlayer, LocalPlayer], work=[473*, 0*]
302: 0x12C6 [0x1C] WAIT(30* ticks)
303: 0x12C9 [0x7B] ??? (ID: 17293786/0x0107E1DA) stops talking
304: 0x12CE [0x1C] WAIT(30* ticks)
305: 0x12D1 [0x27] REQ_SET(priority=0x10, entity_id=??? (ID: 17293786/0x0107E1DA), tag_num=0x1A)
306: 0x12D8 [0x2B] ??? (ID: 17293786/0x0107E1DA) [11511*]:
    → "The situation is hurtling out of control like a riderless chocobo, kupo."
307: 0x12DF [0x23] WAIT_FOR_DIALOG_INTERACTION
308: 0x12E0 [0x2A] GET_REQ_LEVEL(level=16, entity_id=??? (ID: 17293786/0x0107E1DA))
309: 0x12E6 [0x27] REQ_SET(priority=0x10, entity_id=??? (ID: 17293786/0x0107E1DA), tag_num=0x1B)
310: 0x12ED [0x52] END_LOAD_SCHEDULER: End scheduler "610d" with entities [LocalPlayer, LocalPlayer], work=473*
311: 0x12FC [0x01] GOTO 0x13B4
312: 0x12FF [0x02] IF !(ExtData[1]->WorkLocal[4] == 14*) GOTO 0x134F
313: 0x1307 [0x45] LOAD_SCHEDULED_TASK: Load scheduler "600e" with entities [LocalPlayer, LocalPlayer], work=[473*, 0*]
314: 0x1318 [0x1C] WAIT(30* ticks)
315: 0x131B [0x27] REQ_SET(priority=0x10, entity_id=??? (ID: 17293786/0x0107E1DA), tag_num=0x14)
316: 0x1322 [0x2B] ??? (ID: 17293786/0x0107E1DA) [11512*]:
    → "Knowing you for the kind and just adventurer that you are, Master, you're not intending to assassinate Aldo. Am I right, kupo?"
317: 0x1329 [0x23] WAIT_FOR_DIALOG_INTERACTION
318: 0x132A [0x03] Work_Zone[2] = 1203*
319: 0x132F [0x2B] ??? (ID: 17293786/0x0107E1DA) [11513*]:
    → "At any rate, Aldo is a man who listens to reason. I think it'd be wise to acquire the aforementioned $3 so you can meet him at the Gustav Tunnel and explain the situation, kupo."
320: 0x1336 [0x23] WAIT_FOR_DIALOG_INTERACTION
321: 0x1337 [0x2A] GET_REQ_LEVEL(level=16, entity_id=??? (ID: 17293786/0x0107E1DA))
322: 0x133D [0x52] END_LOAD_SCHEDULER: End scheduler "600e" with entities [LocalPlayer, LocalPlayer], work=473*
323: 0x134C [0x01] GOTO 0x13B4
324: 0x134F [0x02] IF !(ExtData[1]->WorkLocal[4] == 15*) GOTO 0x13B4
325: 0x1357 [0x45] LOAD_SCHEDULED_TASK: Load scheduler "600f" with entities [LocalPlayer, LocalPlayer], work=[473*, 0*]
326: 0x1368 [0x2B] ??? (ID: 17293786/0x0107E1DA) [11514*]:
    → "In the meantime, I'll return to the Mog House and stay on standby should any more dastardly developments take place. Be safe, kupo!"
327: 0x136F [0x5D] SET_MUSIC_VOLUME(volume=0*, fade_time=300*)
328: 0x1374 [0x29] REQ_SET_WAIT(priority=0x10, entity_id=??? (ID: 17293786/0x0107E1DA), tag_num=0x16)
329: 0x137B [0x1C] WAIT(30* ticks)
330: 0x137E [0x7B] ??? (ID: 17293786/0x0107E1DA) stops talking
331: 0x1383 [0x4B] UPDATE_ENTITY_YAW(entity=??? (ID: 17293786/0x0107E1DA), yaw=8.8°*)
332: 0x138A [0x59] UPDATE_ENTITY_DATA: Set ??? (ID: 17293786/0x0107E1DA) turn speed = 50*
333: 0x1392 [0x6F] WAIT_FRAME_DELAY: Yield until WaitTime reaches zero
334: 0x1393 [0x76] CHECK_ENTITY_RENDER_FLAGS: Wait until ??? (ID: 17293786/0x0107E1DA) Render.Flags0 and Render.Flags3 conditions are met
335: 0x1398 [0x27] REQ_SET(priority=0x10, entity_id=??? (ID: 17293786/0x0107E1DA), tag_num=0x0E)
336: 0x139F [0x1C] WAIT(300* ticks)
337: 0x13A2 [0x52] END_LOAD_SCHEDULER: End scheduler "600f" with entities [LocalPlayer, LocalPlayer], work=473*
338: 0x13B1 [0x01] GOTO 0x13B4

SUBROUTINE_13B4:
339: 0x13B4 [0x1B] RETURN

SUBROUTINE_13F7:
340: 0x13F7 [0x45] LOAD_SCHEDULED_TASK: Load scheduler "fdi1" with entities [LocalPlayer, LocalPlayer], work=[200*, 0*]
341: 0x1408 [0x55] WAIT_LOAD_SCHEDULER: Wait for scheduler "fdi1" with entities [LocalPlayer, LocalPlayer], work=200*
342: 0x1417 [0x1B] RETURN

SUBROUTINE_1418:
343: 0x1418 [0x45] LOAD_SCHEDULED_TASK: Load scheduler "fdo1" with entities [LocalPlayer, LocalPlayer], work=[200*, 0*]
344: 0x1429 [0x55] WAIT_LOAD_SCHEDULER: Wait for scheduler "fdo1" with entities [LocalPlayer, LocalPlayer], work=200*
345: 0x1438 [0x1B] RETURN
```

#### Data or dead code:

```
# Dead code (unreachable instructions):
     0x0C05 [0x02] IF !(0* == 1*) GOTO 0x0C11
     0x0C0D [0x48] [System] [11490*]:
    → "A-a-another urgent letter has arrived from the self-styled Eternal Empress during your absence, kupo!"
     0x0C10 [0x23] WAIT_FOR_DIALOG_INTERACTION
     0x0C11 [0x1B] RETURN
# Dead code (unreachable instructions):
     0x13B5 [0x45] LOAD_SCHEDULED_TASK: Load scheduler "fdi0" with entities [LocalPlayer, LocalPlayer], work=[200*, 0*]
     0x13C6 [0x55] WAIT_LOAD_SCHEDULER: Wait for scheduler "fdi0" with entities [LocalPlayer, LocalPlayer], work=200*
     0x13D5 [0x1B] RETURN
     0x13D6 [0x45] LOAD_SCHEDULED_TASK: Load scheduler "fdo0" with entities [LocalPlayer, LocalPlayer], work=[200*, 0*]
     0x13E7 [0x55] WAIT_LOAD_SCHEDULER: Wait for scheduler "fdo0" with entities [LocalPlayer, LocalPlayer], work=200*
     0x13F6 [0x1B] RETURN
# Dead code (unreachable instructions):
     0x1439 [0x45] LOAD_SCHEDULED_TASK: Load scheduler "whi1" with entities [LocalPlayer, LocalPlayer], work=[201*, 0*]
     0x144A [0x55] WAIT_LOAD_SCHEDULER: Wait for scheduler "whi1" with entities [LocalPlayer, LocalPlayer], work=201*
     0x1459 [0x1B] RETURN
     0x145A [0x45] LOAD_SCHEDULED_TASK: Load scheduler "who1" with entities [LocalPlayer, LocalPlayer], work=[201*, 0*]
     0x146B [0x55] WAIT_LOAD_SCHEDULER: Wait for scheduler "who1" with entities [LocalPlayer, LocalPlayer], work=201*
     0x147A [0x1B] RETURN
     0x147B [0x45] LOAD_SCHEDULED_TASK: Load scheduler "whi0" with entities [LocalPlayer, LocalPlayer], work=[201*, 0*]
     0x148C [0x55] WAIT_LOAD_SCHEDULER: Wait for scheduler "whi0" with entities [LocalPlayer, LocalPlayer], work=201*
     0x149B [0x1B] RETURN
     0x149C [0x45] LOAD_SCHEDULED_TASK: Load scheduler "who0" with entities [LocalPlayer, LocalPlayer], work=[201*, 0*]
     0x14AD [0x55] WAIT_LOAD_SCHEDULER: Wait for scheduler "who0" with entities [LocalPlayer, LocalPlayer], work=201*
     0x14BC [0x1B] RETURN
     0x14BD [0x45] LOAD_SCHEDULED_TASK: Load scheduler "efon" with entities [LocalPlayer, LocalPlayer], work=[215*, 0*]
     0x14CE [0x55] WAIT_LOAD_SCHEDULER: Wait for scheduler "efon" with entities [LocalPlayer, LocalPlayer], work=215*
     0x14DD [0x1B] RETURN
```
