# 17293786

## Common Data

| Field            | Value                  |
|------------------|------------------------|
| Zone             | Qufim Island (ID: 126) |
| Block Size       | 692 bytes              |
| Total Events     | 28                     |
| References Count | 28                     |

## List of Events

| Event ID                   | Entrypoint   |   Size |   Instructions |
|----------------------------|--------------|--------|----------------|
| [65535](#event-65535)      | 0x0000       |      1 |              1 |
| [31](#event-31)            | 0x0001       |      4 |              2 |
| [65535.1](#event-655351)   | 0x0005       |      5 |              2 |
| [65535.2](#event-655352)   | 0x000A       |      5 |              2 |
| [65535.3](#event-655353)   | 0x000F       |      5 |              2 |
| [32](#event-32)            | 0x0014       |      4 |              2 |
| [34](#event-34)            | 0x0018       |      4 |              2 |
| [65535.4](#event-655354)   | 0x001C       |      4 |              2 |
| [45](#event-45)            | 0x0020       |      1 |              1 |
| [65535.5](#event-655355)   | 0x0021       |     19 |              5 |
| [65535.6](#event-655356)   | 0x0034       |     33 |             15 |
| [65535.7](#event-655357)   | 0x0055       |     25 |              3 |
| [65535.8](#event-655358)   | 0x006E       |     25 |              3 |
| [65535.9](#event-655359)   | 0x0087       |     17 |              5 |
| [65535.10](#event-6553510) | 0x0098       |     14 |              4 |
| [65535.11](#event-6553511) | 0x00A6       |     19 |              3 |
| [65535.12](#event-6553512) | 0x00B9       |     16 |              2 |
| [65535.13](#event-6553513) | 0x00C9       |     29 |              3 |
| [65535.14](#event-6553514) | 0x00E6       |     16 |              2 |
| [65535.15](#event-6553515) | 0x00F6       |     16 |              2 |
| [65535.16](#event-6553516) | 0x0106       |     16 |              2 |
| [65535.17](#event-6553517) | 0x0116       |     16 |              2 |
| [65535.18](#event-6553518) | 0x0126       |     19 |              3 |
| [65535.19](#event-6553519) | 0x0139       |     19 |              3 |
| [65535.20](#event-6553520) | 0x014C       |     19 |              3 |
| [65535.21](#event-6553521) | 0x015F       |     62 |             12 |
| [65535.22](#event-6553522) | 0x019D       |     19 |              3 |
| [65535.23](#event-6553523) | 0x01B0       |     19 |              3 |

## DAT References (imed_data)

|   Index | Hex Value   |   Dec Value |
|---------|-------------|-------------|
|       0 | 0x0001      |           1 |
|       1 | 0x092F      |        2351 |
|       2 | 0x015C      |         348 |
|       3 | 0x0034      |          52 |
|       4 | 0x0939      |        2361 |
|       5 | 0x0014      |          20 |
|       6 | 0xFFFFACE5  |  4294946021 |
|       7 | 0x191F4     |      102900 |
|       8 | 0xFFFFBC6C  |  4294949996 |
|       9 | 0x001E      |          30 |
|      10 | 0x000A      |          10 |
|      11 | 0xFFFF8D3B  |  4294937915 |
|      12 | 0x17084     |       94340 |
|      13 | 0x0AC3      |        2755 |
|      14 | 0x0078      |         120 |
|      15 | 0x0A49      |        2633 |
|      16 | 0x0A4C      |        2636 |
|      17 | 0x003C      |          60 |
|      18 | 0x0AD0      |        2768 |
|      19 | 0x008C      |         140 |
|      20 | 0xFFFFAC13  |  4294945811 |
|      21 | 0x19122     |      102690 |
|      22 | 0x0E00      |        3584 |
|      23 | 0x000F      |          15 |
|      24 | 0x0320      |         800 |
|      25 | 0x0064      |         100 |
|      26 | 0x0A57      |        2647 |
|      27 | 0x0028      |          40 |

## Events

### Event 65535

#### Metadata

| Field        | Value   |
|--------------|---------|
| Entrypoint   | 0x0000  |
| Data Size    | 1 bytes |
| Instructions | 1       |

```
      00 01 02 03 04 05 06 07  08 09 0A 0B 0C 0D 0E 0F
      -- -- -- -- -- -- -- --  -- -- -- -- -- -- -- --
0000: 00                                                .               
```

#### Opcodes

```
  0: 0x0000 [0x00] END_REQSTACK()
```

### Event 31

#### Metadata

| Field        | Value   |
|--------------|---------|
| Entrypoint   | 0x0001  |
| Data Size    | 4 bytes |
| Instructions | 2       |

```
      00 01 02 03 04 05 06 07  08 09 0A 0B 0C 0D 0E 0F
      -- -- -- -- -- -- -- --  -- -- -- -- -- -- -- --
0000:    C0 00 80 00                                     ....           
```

#### Opcodes

```
  0: 0x0001 [0xC0] EventEntity->Render.Flags3 |= 0x1000 // Set bit 12 (from 1*)
  1: 0x0004 [0x00] END_REQSTACK()
```

### Event 65535.1

#### Metadata

| Field        | Value   |
|--------------|---------|
| Entrypoint   | 0x0005  |
| Data Size    | 5 bytes |
| Instructions | 2       |

```
      00 01 02 03 04 05 06 07  08 09 0A 0B 0C 0D 0E 0F
      -- -- -- -- -- -- -- --  -- -- -- -- -- -- -- --
0000:                B6 00 01  80 00                         .....      
```

#### Opcodes

```
  0: 0x0005 [0xB6] ENTITY_APPEARANCE_HANDLER(case=Hair style, value=2351*)
  1: 0x0009 [0x00] END_REQSTACK()
```

### Event 65535.2

#### Metadata

| Field        | Value   |
|--------------|---------|
| Entrypoint   | 0x000A  |
| Data Size    | 5 bytes |
| Instructions | 2       |

```
      00 01 02 03 04 05 06 07  08 09 0A 0B 0C 0D 0E 0F
      -- -- -- -- -- -- -- --  -- -- -- -- -- -- -- --
0000:                                B6 00 02 80 00               ..... 
```

#### Opcodes

```
  0: 0x000A [0xB6] ENTITY_APPEARANCE_HANDLER(case=Hair style, value=348*)
  1: 0x000E [0x00] END_REQSTACK()
```

### Event 65535.3

#### Metadata

| Field        | Value   |
|--------------|---------|
| Entrypoint   | 0x000F  |
| Data Size    | 5 bytes |
| Instructions | 2       |

```
      00 01 02 03 04 05 06 07  08 09 0A 0B 0C 0D 0E 0F
      -- -- -- -- -- -- -- --  -- -- -- -- -- -- -- --
0000:                                               B6                 .
0010: 00 03 80 00                                       ....            
```

#### Opcodes

```
  0: 0x000F [0xB6] ENTITY_APPEARANCE_HANDLER(case=Hair style, value=52*)
  1: 0x0013 [0x00] END_REQSTACK()
```

### Event 32

#### Metadata

| Field        | Value   |
|--------------|---------|
| Entrypoint   | 0x0014  |
| Data Size    | 4 bytes |
| Instructions | 2       |

```
      00 01 02 03 04 05 06 07  08 09 0A 0B 0C 0D 0E 0F
      -- -- -- -- -- -- -- --  -- -- -- -- -- -- -- --
0010:             C0 00 80 00                               ....        
```

#### Opcodes

```
  0: 0x0014 [0xC0] EventEntity->Render.Flags3 |= 0x1000 // Set bit 12 (from 1*)
  1: 0x0017 [0x00] END_REQSTACK()
```

### Event 34

#### Metadata

| Field        | Value   |
|--------------|---------|
| Entrypoint   | 0x0018  |
| Data Size    | 4 bytes |
| Instructions | 2       |

```
      00 01 02 03 04 05 06 07  08 09 0A 0B 0C 0D 0E 0F
      -- -- -- -- -- -- -- --  -- -- -- -- -- -- -- --
0010:                          C0 00 80 00                      ....    
```

#### Opcodes

```
  0: 0x0018 [0xC0] EventEntity->Render.Flags3 |= 0x1000 // Set bit 12 (from 1*)
  1: 0x001B [0x00] END_REQSTACK()
```

### Event 65535.4

#### Metadata

| Field        | Value   |
|--------------|---------|
| Entrypoint   | 0x001C  |
| Data Size    | 4 bytes |
| Instructions | 2       |

```
      00 01 02 03 04 05 06 07  08 09 0A 0B 0C 0D 0E 0F
      -- -- -- -- -- -- -- --  -- -- -- -- -- -- -- --
0010:                                      1C 02 10 00              ....
```

#### Opcodes

```
  0: 0x001C [0x1C] WAIT(Work_Zone[2] ticks)
  1: 0x001F [0x00] END_REQSTACK()
```

### Event 45

#### Metadata

| Field        | Value   |
|--------------|---------|
| Entrypoint   | 0x0020  |
| Data Size    | 1 bytes |
| Instructions | 1       |

```
      00 01 02 03 04 05 06 07  08 09 0A 0B 0C 0D 0E 0F
      -- -- -- -- -- -- -- --  -- -- -- -- -- -- -- --
0020: 00                                                .               
```

#### Opcodes

```
  0: 0x0020 [0x00] END_REQSTACK()
```

### Event 65535.5

#### Metadata

| Field        | Value    |
|--------------|----------|
| Entrypoint   | 0x0021   |
| Data Size    | 19 bytes |
| Instructions | 5        |

```
      00 01 02 03 04 05 06 07  08 09 0A 0B 0C 0D 0E 0F
      -- -- -- -- -- -- -- --  -- -- -- -- -- -- -- --
0020:    B6 00 04 80 22 00 92  01 F8 FF FF 7F 94 01 F8   ...."..........
0030: FF FF 7F 00                                       ....            
```

#### Opcodes

```
  0: 0x0021 [0xB6] ENTITY_APPEARANCE_HANDLER(case=Hair style, value=2361*)
  1: 0x0025 [0x22] ENTITY_HIDE_FLAG(enabled=0x00)
  2: 0x0027 [0x92] EventEntity->Render.Flags3 ^= 0x01
  3: 0x002D [0x94] EventEntity->Render.Flags3 ^= 0x01
  4: 0x0033 [0x00] END_REQSTACK()
```

### Event 65535.6

#### Metadata

| Field        | Value    |
|--------------|----------|
| Entrypoint   | 0x0034   |
| Data Size    | 33 bytes |
| Instructions | 2        |

```
      00 01 02 03 04 05 06 07  08 09 0A 0B 0C 0D 0E 0F
      -- -- -- -- -- -- -- --  -- -- -- -- -- -- -- --
0030:             B7 01 01 00  F8 FF FF 7F B4 13 00 00      ............
0040: 3F 3F 3F 00 00 00 00 00  00 00 00 00 00 00 00 00  ???.............
0050: B5 00 00 00 00                                    .....           
```

#### Opcodes

```
  0: 0x0034 [0xB7] ENTITY_DATA_HANDLER: Set Unknown NPC (ID: 4294443009/0xFFF80001) name from 0x7FFF (monstrosity: 0x13B4)
  1: 0x003E [0x00] END_REQSTACK()
```

#### Data or dead code:

```
# Dead code (unreachable instructions):
     0x003F [0x00] END_REQSTACK()
     0x0040 [0x3F] 0x3F3F = ExtData[1]->WorkLocal[0] % ExtData[1]->WorkLocal[0]
     0x0047 [0x00] END_REQSTACK()
     0x0048 [0x00] END_REQSTACK()
     0x0049 [0x00] END_REQSTACK()
     0x004A [0x00] END_REQSTACK()
     0x004B [0x00] END_REQSTACK()
     0x004C [0x00] END_REQSTACK()
     0x004D [0x00] END_REQSTACK()
     0x004E [0x00] END_REQSTACK()
     0x004F [0x00] END_REQSTACK()
     0x0050 [0xB5] SET_EVENT_ENTITY_NAME: Change EventEntity name to ExtData[1]->WorkLocal[0]
     0x0054 [0x00] END_REQSTACK()
```

### Event 65535.7

#### Metadata

| Field        | Value    |
|--------------|----------|
| Entrypoint   | 0x0055   |
| Data Size    | 25 bytes |
| Instructions | 3        |

```
      00 01 02 03 04 05 06 07  08 09 0A 0B 0C 0D 0E 0F
      -- -- -- -- -- -- -- --  -- -- -- -- -- -- -- --
0050:                B4 13 00  00 4D 6F 6F 67 6C 65 00       ....Moogle.
0060: 00 00 00 00 00 00 00 00  00 B5 00 00 00 00        ..............  
```

#### Opcodes

```
  0: 0x0055 [0xB4] UI_WINDOW_STRING_HANDLER(case=0x13 - Copy string and replace @ with space, work_offset=ExtData[1]->WorkLocal[0], string="Moogle")
  1: 0x0069 [0xB5] SET_EVENT_ENTITY_NAME: Change EventEntity name to ExtData[1]->WorkLocal[0]
  2: 0x006D [0x00] END_REQSTACK()
```

### Event 65535.8

#### Metadata

| Field        | Value    |
|--------------|----------|
| Entrypoint   | 0x006E   |
| Data Size    | 25 bytes |
| Instructions | 3        |

```
      00 01 02 03 04 05 06 07  08 09 0A 0B 0C 0D 0E 0F
      -- -- -- -- -- -- -- --  -- -- -- -- -- -- -- --
0060:                                            B4 13                ..
0070: 00 00 50 72 65 76 4E 61  6D 65 00 00 00 00 00 00  ..PrevName......
0080: 00 00 B5 00 00 00 00                              .......         
```

#### Opcodes

```
  0: 0x006E [0xB4] UI_WINDOW_STRING_HANDLER(case=0x13 - Copy string and replace @ with space, work_offset=ExtData[1]->WorkLocal[0], string="PrevName")
  1: 0x0082 [0xB5] SET_EVENT_ENTITY_NAME: Change EventEntity name to ExtData[1]->WorkLocal[0]
  2: 0x0086 [0x00] END_REQSTACK()
```

### Event 65535.9

#### Metadata

| Field        | Value    |
|--------------|----------|
| Entrypoint   | 0x0087   |
| Data Size    | 17 bytes |
| Instructions | 5        |

```
      00 01 02 03 04 05 06 07  08 09 0A 0B 0C 0D 0E 0F
      -- -- -- -- -- -- -- --  -- -- -- -- -- -- -- --
0080:                      32  05 80 5A 00 06 80 07 80         2..Z.....
0090: 08 80 5A 01 1C 09 80 00                           ..Z.....        
```

#### Opcodes

```
  0: 0x0087 [0x32] ExtData[1]->MainSpeed = 20* * 0.1
  1: 0x008A [0x5A] UPDATE_EVENT_POSITION: Set EventEntity MovePosition to X=-21.275*, Z=102.900*, Y=-17.300*
  2: 0x0092 [0x5A] UPDATE_EVENT_POSITION: Move EventEntity incrementally towards MovePosition
  3: 0x0094 [0x1C] WAIT(30* ticks)
  4: 0x0097 [0x00] END_REQSTACK()
```

### Event 65535.10

#### Metadata

| Field        | Value    |
|--------------|----------|
| Entrypoint   | 0x0098   |
| Data Size    | 14 bytes |
| Instructions | 4        |

```
      00 01 02 03 04 05 06 07  08 09 0A 0B 0C 0D 0E 0F
      -- -- -- -- -- -- -- --  -- -- -- -- -- -- -- --
0090:                          32 0A 80 1F 00 0B 80 0C          2.......
00A0: 80 08 80 1F 01 00                                 ......          
```

#### Opcodes

```
  0: 0x0098 [0x32] ExtData[1]->MainSpeed = 10* * 0.1
  1: 0x009B [0x1F] MOVE_ENTITY: EventEntity moves to X=-29.381*, Z=94.340*, Y=-17.300*
  2: 0x00A3 [0x1F] MOVE_ENTITY: Update entity position (mode=1)
  3: 0x00A5 [0x00] END_REQSTACK()
```

### Event 65535.11

#### Metadata

| Field        | Value    |
|--------------|----------|
| Entrypoint   | 0x00A6   |
| Data Size    | 19 bytes |
| Instructions | 3        |

```
      00 01 02 03 04 05 06 07  08 09 0A 0B 0C 0D 0E 0F
      -- -- -- -- -- -- -- --  -- -- -- -- -- -- -- --
00A0:                   5B 0D  80 F8 FF FF 7F F8 FF FF        [.........
00B0: 7F 70 6E 62 30 1C 0E 80  00                       .pnb0....       
```

#### Opcodes

```
  0: 0x00A6 [0x5B] LOAD_EXT_SCHEDULER: Load scheduler "pnb0" with entities [EventEntity, EventEntity], work=2755*
  1: 0x00B5 [0x1C] WAIT(120* ticks)
  2: 0x00B8 [0x00] END_REQSTACK()
```

### Event 65535.12

#### Metadata

| Field        | Value    |
|--------------|----------|
| Entrypoint   | 0x00B9   |
| Data Size    | 16 bytes |
| Instructions | 2        |

```
      00 01 02 03 04 05 06 07  08 09 0A 0B 0C 0D 0E 0F
      -- -- -- -- -- -- -- --  -- -- -- -- -- -- -- --
00B0:                             5B 0F 80 F8 FF FF 7F           [......
00C0: F8 FF FF 7F 6C 61 74 6C  00                       ....latl.       
```

#### Opcodes

```
  0: 0x00B9 [0x5B] LOAD_EXT_SCHEDULER: Load scheduler "latl" with entities [EventEntity, EventEntity], work=2633*
  1: 0x00C8 [0x00] END_REQSTACK()
```

### Event 65535.13

#### Metadata

| Field        | Value    |
|--------------|----------|
| Entrypoint   | 0x00C9   |
| Data Size    | 29 bytes |
| Instructions | 3        |

```
      00 01 02 03 04 05 06 07  08 09 0A 0B 0C 0D 0E 0F
      -- -- -- -- -- -- -- --  -- -- -- -- -- -- -- --
00C0:                             5B 0F 80 F8 FF FF 7F           [......
00D0: F8 FF FF 7F 6C 61 74 31  53 F8 FF FF 7F F8 FF FF  ....lat1S.......
00E0: 7F 6C 61 74 31 00                                 .lat1.          
```

#### Opcodes

```
  0: 0x00C9 [0x5B] LOAD_EXT_SCHEDULER: Load scheduler "lat1" with entities [EventEntity, EventEntity], work=2633*
  1: 0x00D8 [0x53] WAIT_SCHEDULER_TASK: Wait for scheduler "lat1" with entities [EventEntity, EventEntity]
  2: 0x00E5 [0x00] END_REQSTACK()
```

### Event 65535.14

#### Metadata

| Field        | Value    |
|--------------|----------|
| Entrypoint   | 0x00E6   |
| Data Size    | 16 bytes |
| Instructions | 2        |

```
      00 01 02 03 04 05 06 07  08 09 0A 0B 0C 0D 0E 0F
      -- -- -- -- -- -- -- --  -- -- -- -- -- -- -- --
00E0:                   5B 0F  80 F8 FF FF 7F F8 FF FF        [.........
00F0: 7F 6C 61 74 32 00                                 .lat2.          
```

#### Opcodes

```
  0: 0x00E6 [0x5B] LOAD_EXT_SCHEDULER: Load scheduler "lat2" with entities [EventEntity, EventEntity], work=2633*
  1: 0x00F5 [0x00] END_REQSTACK()
```

### Event 65535.15

#### Metadata

| Field        | Value    |
|--------------|----------|
| Entrypoint   | 0x00F6   |
| Data Size    | 16 bytes |
| Instructions | 2        |

```
      00 01 02 03 04 05 06 07  08 09 0A 0B 0C 0D 0E 0F
      -- -- -- -- -- -- -- --  -- -- -- -- -- -- -- --
00F0:                   5B 0F  80 F8 FF FF 7F F8 FF FF        [.........
0100: 7F 6C 61 74 33 00                                 .lat3.          
```

#### Opcodes

```
  0: 0x00F6 [0x5B] LOAD_EXT_SCHEDULER: Load scheduler "lat3" with entities [EventEntity, EventEntity], work=2633*
  1: 0x0105 [0x00] END_REQSTACK()
```

### Event 65535.16

#### Metadata

| Field        | Value    |
|--------------|----------|
| Entrypoint   | 0x0106   |
| Data Size    | 16 bytes |
| Instructions | 2        |

```
      00 01 02 03 04 05 06 07  08 09 0A 0B 0C 0D 0E 0F
      -- -- -- -- -- -- -- --  -- -- -- -- -- -- -- --
0100:                   5B 10  80 F8 FF FF 7F F8 FF FF        [.........
0110: 7F 74 6C 6B 30 00                                 .tlk0.          
```

#### Opcodes

```
  0: 0x0106 [0x5B] LOAD_EXT_SCHEDULER: Load scheduler "tlk0" with entities [EventEntity, EventEntity], work=2636*
  1: 0x0115 [0x00] END_REQSTACK()
```

### Event 65535.17

#### Metadata

| Field        | Value    |
|--------------|----------|
| Entrypoint   | 0x0116   |
| Data Size    | 16 bytes |
| Instructions | 2        |

```
      00 01 02 03 04 05 06 07  08 09 0A 0B 0C 0D 0E 0F
      -- -- -- -- -- -- -- --  -- -- -- -- -- -- -- --
0110:                   5B 10  80 F8 FF FF 7F F8 FF FF        [.........
0120: 7F 68 61 70 30 00                                 .hap0.          
```

#### Opcodes

```
  0: 0x0116 [0x5B] LOAD_EXT_SCHEDULER: Load scheduler "hap0" with entities [EventEntity, EventEntity], work=2636*
  1: 0x0125 [0x00] END_REQSTACK()
```

### Event 65535.18

#### Metadata

| Field        | Value    |
|--------------|----------|
| Entrypoint   | 0x0126   |
| Data Size    | 19 bytes |
| Instructions | 3        |

```
      00 01 02 03 04 05 06 07  08 09 0A 0B 0C 0D 0E 0F
      -- -- -- -- -- -- -- --  -- -- -- -- -- -- -- --
0120:                   5B 10  80 F8 FF FF 7F F8 FF FF        [.........
0130: 7F 73 74 64 30 1C 11 80  00                       .std0....       
```

#### Opcodes

```
  0: 0x0126 [0x5B] LOAD_EXT_SCHEDULER: Load scheduler "std0" with entities [EventEntity, EventEntity], work=2636*
  1: 0x0135 [0x1C] WAIT(60* ticks)
  2: 0x0138 [0x00] END_REQSTACK()
```

### Event 65535.19

#### Metadata

| Field        | Value    |
|--------------|----------|
| Entrypoint   | 0x0139   |
| Data Size    | 19 bytes |
| Instructions | 3        |

```
      00 01 02 03 04 05 06 07  08 09 0A 0B 0C 0D 0E 0F
      -- -- -- -- -- -- -- --  -- -- -- -- -- -- -- --
0130:                             5B 12 80 F8 FF FF 7F           [......
0140: F8 FF FF 7F 64 6C 36 31  1C 13 80 00              ....dl61....    
```

#### Opcodes

```
  0: 0x0139 [0x5B] LOAD_EXT_SCHEDULER: Load scheduler "dl61" with entities [EventEntity, EventEntity], work=2768*
  1: 0x0148 [0x1C] WAIT(140* ticks)
  2: 0x014B [0x00] END_REQSTACK()
```

### Event 65535.20

#### Metadata

| Field        | Value    |
|--------------|----------|
| Entrypoint   | 0x014C   |
| Data Size    | 19 bytes |
| Instructions | 3        |

```
      00 01 02 03 04 05 06 07  08 09 0A 0B 0C 0D 0E 0F
      -- -- -- -- -- -- -- --  -- -- -- -- -- -- -- --
0140:                                      5B 12 80 F8              [...
0150: FF FF 7F F8 FF FF 7F 68  72 6F 30 1C 0E 80 00     .......hro0.... 
```

#### Opcodes

```
  0: 0x014C [0x5B] LOAD_EXT_SCHEDULER: Load scheduler "hro0" with entities [EventEntity, EventEntity], work=2768*
  1: 0x015B [0x1C] WAIT(120* ticks)
  2: 0x015E [0x00] END_REQSTACK()
```

### Event 65535.21

#### Metadata

| Field        | Value    |
|--------------|----------|
| Entrypoint   | 0x015F   |
| Data Size    | 62 bytes |
| Instructions | 12       |

```
      00 01 02 03 04 05 06 07  08 09 0A 0B 0C 0D 0E 0F
      -- -- -- -- -- -- -- --  -- -- -- -- -- -- -- --
0150:                                               84                 .
0160: BA F8 FF FF 7F 14 80 15  80 08 80 16 80 80 F8 FF  ................
0170: FF 7F 1C 17 80 59 01 F8  FF FF 7F 18 80 4A F8 FF  .....Y.......J..
0180: FF 7F F0 FF FF 7F 7B F8  FF FF 7F 6F 76 F8 FF FF  ......{....ov...
0190: 7F 1C 17 80 59 01 F8 FF  FF 7F 19 80 00           ....Y........   
```

#### Opcodes

```
  0: 0x015F [0x84] ADJUST_RENDER_FLAGS3_BIT0()
  1: 0x0160 [0xBA] SET_ENTITY_POSITION(entity_id=EventEntity, pos_x=-21.485*, pos_z=102.690*, pos_y=-17.300*, direction=315.0°*)
  2: 0x016D [0x80] LOAD_WAIT(entity=EventEntity)
  3: 0x0172 [0x1C] WAIT(15* ticks)
  4: 0x0175 [0x59] UPDATE_ENTITY_DATA: Set EventEntity turn speed = 800*
  5: 0x017D [0x4A] EventEntity looks at LocalPlayer
  6: 0x0186 [0x7B] EventEntity stops talking
  7: 0x018B [0x6F] WAIT_FRAME_DELAY: Yield until WaitTime reaches zero
  8: 0x018C [0x76] CHECK_ENTITY_RENDER_FLAGS: Wait until EventEntity Render.Flags0 and Render.Flags3 conditions are met
  9: 0x0191 [0x1C] WAIT(15* ticks)
 10: 0x0194 [0x59] UPDATE_ENTITY_DATA: Set EventEntity turn speed = 100*
 11: 0x019C [0x00] END_REQSTACK()
```

### Event 65535.22

#### Metadata

| Field        | Value    |
|--------------|----------|
| Entrypoint   | 0x019D   |
| Data Size    | 19 bytes |
| Instructions | 3        |

```
      00 01 02 03 04 05 06 07  08 09 0A 0B 0C 0D 0E 0F
      -- -- -- -- -- -- -- --  -- -- -- -- -- -- -- --
0190:                                         5B 1A 80               [..
01A0: F8 FF FF 7F F8 FF FF 7F  74 68 62 30 1C 0E 80 00  ........thb0....
```

#### Opcodes

```
  0: 0x019D [0x5B] LOAD_EXT_SCHEDULER: Load scheduler "thb0" with entities [EventEntity, EventEntity], work=2647*
  1: 0x01AC [0x1C] WAIT(120* ticks)
  2: 0x01AF [0x00] END_REQSTACK()
```

### Event 65535.23

#### Metadata

| Field        | Value    |
|--------------|----------|
| Entrypoint   | 0x01B0   |
| Data Size    | 19 bytes |
| Instructions | 3        |

```
      00 01 02 03 04 05 06 07  08 09 0A 0B 0C 0D 0E 0F
      -- -- -- -- -- -- -- --  -- -- -- -- -- -- -- --
01B0: 5B 1A 80 F8 FF FF 7F F8  FF FF 7F 74 68 62 31 1C  [..........thb1.
01C0: 1B 80 00                                          ...             
```

#### Opcodes

```
  0: 0x01B0 [0x5B] LOAD_EXT_SCHEDULER: Load scheduler "thb1" with entities [EventEntity, EventEntity], work=2647*
  1: 0x01BF [0x1C] WAIT(40* ticks)
  2: 0x01C2 [0x00] END_REQSTACK()
```
