# 17293805 - 8

## Common Data

| Field            | Value                  |
|------------------|------------------------|
| Zone             | Qufim Island (ID: 126) |
| Block Size       | 192 bytes              |
| Total Events     | 6                      |
| References Count | 9                      |

## List of Events

| Event ID                 | Entrypoint   |   Size |   Instructions |
|--------------------------|--------------|--------|----------------|
| [65535](#event-65535)    | 0x0000       |      1 |              1 |
| [44](#event-44)          | 0x0001       |      1 |              1 |
| [65535.1](#event-655351) | 0x0002       |     35 |              5 |
| [65535.2](#event-655352) | 0x0025       |     14 |              2 |
| [65535.3](#event-655353) | 0x0033       |     49 |              9 |
| [65535.4](#event-655354) | 0x0064       |     16 |              2 |

## DAT References (imed_data)

|   Index | Hex Value   |   Dec Value |
|---------|-------------|-------------|
|       0 | 0x0005      |           5 |
|       1 | 0x001D      |          29 |
|       2 | 0x0013      |          19 |
|       3 | 0x0000      |           0 |
|       4 | 0x000A      |          10 |
|       5 | 0xFFFFA9AB  |  4294945195 |
|       6 | 0x1B564     |      111972 |
|       7 | 0xFFFFAA5E  |  4294945374 |
|       8 | 0x0ADA      |        2778 |

## Events

### Event 65535

#### Metadata

| Field        | Value   |
|--------------|---------|
| Entrypoint   | 0x0000  |
| Data Size    | 1 bytes |
| Instructions | 1       |

```
      00 01 02 03 04 05 06 07  08 09 0A 0B 0C 0D 0E 0F
      -- -- -- -- -- -- -- --  -- -- -- -- -- -- -- --
0000: 00                                                .               
```

#### Opcodes

```
  0: 0x0000 [0x00] END_REQSTACK()
```

### Event 44

#### Metadata

| Field        | Value   |
|--------------|---------|
| Entrypoint   | 0x0001  |
| Data Size    | 1 bytes |
| Instructions | 1       |

```
      00 01 02 03 04 05 06 07  08 09 0A 0B 0C 0D 0E 0F
      -- -- -- -- -- -- -- --  -- -- -- -- -- -- -- --
0000:    00                                              .              
```

#### Opcodes

```
  0: 0x0001 [0x00] END_REQSTACK()
```

### Event 65535.1

#### Metadata

| Field        | Value    |
|--------------|----------|
| Entrypoint   | 0x0002   |
| Data Size    | 35 bytes |
| Instructions | 5        |

```
      00 01 02 03 04 05 06 07  08 09 0A 0B 0C 0D 0E 0F
      -- -- -- -- -- -- -- --  -- -- -- -- -- -- -- --
0000:       B6 0B 00 80 01 80  02 80 02 80 02 80 02 80    ..............
0010: 02 80 03 80 03 80 22 00  92 01 F8 FF FF 7F 94 01  ......".........
0020: F8 FF FF 7F 00                                    .....           
```

#### Opcodes

```
  0: 0x0002 [0xB6] ENTITY_APPEARANCE_HANDLER(case=Full entity look, race=5*, hair=29*, head=19*, body=19*, hands=19*, legs=19*, feet=19*, main=0*, sub=0*)
  1: 0x0016 [0x22] ENTITY_HIDE_FLAG(enabled=0x00)
  2: 0x0018 [0x92] EventEntity->Render.Flags3 ^= 0x01
  3: 0x001E [0x94] EventEntity->Render.Flags3 ^= 0x01
  4: 0x0024 [0x00] END_REQSTACK()
```

### Event 65535.2

#### Metadata

| Field        | Value    |
|--------------|----------|
| Entrypoint   | 0x0025   |
| Data Size    | 14 bytes |
| Instructions | 2        |

```
      00 01 02 03 04 05 06 07  08 09 0A 0B 0C 0D 0E 0F
      -- -- -- -- -- -- -- --  -- -- -- -- -- -- -- --
0020:                2C F8 FF  FF 7F F8 FF FF 7F 63 6F       ,........co
0030: 72 70 00                                          rp.             
```

#### Opcodes

```
  0: 0x0025 [0x2C] CREATE_SCHEDULER_TASK: Create scheduler "corp" with entities [EventEntity, EventEntity]
  1: 0x0032 [0x00] END_REQSTACK()
```

### Event 65535.3

#### Metadata

| Field        | Value    |
|--------------|----------|
| Entrypoint   | 0x0033   |
| Data Size    | 49 bytes |
| Instructions | 9        |

```
      00 01 02 03 04 05 06 07  08 09 0A 0B 0C 0D 0E 0F
      -- -- -- -- -- -- -- --  -- -- -- -- -- -- -- --
0030:          3A E5 E1 07 01  00 00 32 04 80 1F 00 05     :......2.....
0040: 80 06 80 07 80 1F 01 4B  F8 FF FF 7F 00 00 6F 76  .......K......ov
0050: F8 FF FF 7F 5B 08 80 F8  FF FF 7F F8 FF FF 7F 62  ....[..........b
0060: 6B 61 30 00                                       ka0.            
```

#### Opcodes

```
  0: 0x0033 [0x3A] CONVERT_YAW_TO_BYTE(entity=Shantotto (ID: 17293797/0x0107E1E5), result_destination=ExtData[1]->WorkLocal[0])
  1: 0x003A [0x32] ExtData[1]->MainSpeed = 10* * 0.1
  2: 0x003D [0x1F] MOVE_ENTITY: EventEntity moves to X=-22.101*, Z=111.972*, Y=-21.922*
  3: 0x0045 [0x1F] MOVE_ENTITY: Update entity position (mode=1)
  4: 0x0047 [0x4B] UPDATE_ENTITY_YAW(entity=EventEntity, yaw=ExtData[1]->WorkLocal[0])
  5: 0x004E [0x6F] WAIT_FRAME_DELAY: Yield until WaitTime reaches zero
  6: 0x004F [0x76] CHECK_ENTITY_RENDER_FLAGS: Wait until EventEntity Render.Flags0 and Render.Flags3 conditions are met
  7: 0x0054 [0x5B] LOAD_EXT_SCHEDULER: Load scheduler "bka0" with entities [EventEntity, EventEntity], work=2778*
  8: 0x0063 [0x00] END_REQSTACK()
```

### Event 65535.4

#### Metadata

| Field        | Value    |
|--------------|----------|
| Entrypoint   | 0x0064   |
| Data Size    | 16 bytes |
| Instructions | 2        |

```
      00 01 02 03 04 05 06 07  08 09 0A 0B 0C 0D 0E 0F
      -- -- -- -- -- -- -- --  -- -- -- -- -- -- -- --
0060:             5B 08 80 F8  FF FF 7F F8 FF FF 7F 62      [..........b
0070: 6B 61 30 00                                       ka0.            
```

#### Opcodes

```
  0: 0x0064 [0x5B] LOAD_EXT_SCHEDULER: Load scheduler "bka0" with entities [EventEntity, EventEntity], work=2778*
  1: 0x0073 [0x00] END_REQSTACK()
```
