# 17293757

## Common Data

| Field            | Value                  |
|------------------|------------------------|
| Zone             | Qufim Island (ID: 126) |
| Block Size       | 19644 bytes            |
| Total Events     | 5                      |
| References Count | 250                    |

## List of Events

| Event ID                 | Entrypoint   |   Size |   Instructions |
|--------------------------|--------------|--------|----------------|
| [65535](#event-65535)    | 0x0000       |      1 |              1 |
| [65535.1](#event-655351) | 0x0001       |     10 |              4 |
| [10000](#event-10000)    | 0x000B       |      1 |              1 |
| [65535.2](#event-655352) | 0x000C       |     21 |              5 |
| [65535.3](#event-655353) | 0x0021       |  18574 |           3192 |

## DAT References (imed_data)

|   Index | Hex Value   |   Dec Value |
|---------|-------------|-------------|
|       0 | 0x289D4     |      166356 |
|       1 | 0xFFFCE79F  |  4294764447 |
|       2 | 0x4D59      |       19801 |
|       3 | 0x000F      |          15 |
|       4 | 0x0015      |          21 |
|       5 | 0x003C      |          60 |
|       6 | 0x0000      |           0 |
|       7 | 0x0001      |           1 |
|       8 | 0x0002      |           2 |
|       9 | 0x0003      |           3 |
|      10 | 0x0004      |           4 |
|      11 | 0x0005      |           5 |
|      12 | 0x0006      |           6 |
|      13 | 0x0007      |           7 |
|      14 | 0x005F      |          95 |
|      15 | 0x0064      |         100 |
|      16 | 0x0069      |         105 |
|      17 | 0x0052      |          82 |
|      18 | 0x0057      |          87 |
|      19 | 0x005C      |          92 |
|      20 | 0x0059      |          89 |
|      21 | 0x005D      |          93 |
|      22 | 0x0061      |          97 |
|      23 | 0x0060      |          96 |
|      24 | 0x0008      |           8 |
|      25 | 0x0009      |           9 |
|      26 | 0x000A      |          10 |
|      27 | 0x000D      |          13 |
|      28 | 0x0012      |          18 |
|      29 | 0x0013      |          19 |
|      30 | 0x0014      |          20 |
|      31 | 0x0017      |          23 |
|      32 | 0x000C      |          12 |
|      33 | 0x000E      |          14 |
|      34 | 0x000B      |          11 |
|      35 | 0x0018      |          24 |
|      36 | 0x001F      |          31 |
|      37 | 0x001B      |          27 |
|      38 | 0x0010      |          16 |
|      39 | 0x018D      |         397 |
|      40 | 0x0175      |         373 |
|      41 | 0x0170      |         368 |
|      42 | 0x0171      |         369 |
|      43 | 0x014C      |         332 |
|      44 | 0x01C1      |         449 |
|      45 | 0x027C      |         636 |
|      46 | 0x027B      |         635 |
|      47 | 0x027D      |         637 |
|      48 | 0x02D3      |         723 |
|      49 | 0x0321      |         801 |
|      50 | 0x0326      |         806 |
|      51 | 0x01E1      |         481 |
|      52 | 0x0343      |         835 |
|      53 | 0x0386      |         902 |
|      54 | 0x0388      |         904 |
|      55 | 0x0361      |         865 |
|      56 | 0x0387      |         903 |
|      57 | 0x038A      |         906 |
|      58 | 0x003F      |          63 |
|      59 | 0x0282      |         642 |
|      60 | 0x0283      |         643 |
|      61 | 0x0288      |         648 |
|      62 | 0x0289      |         649 |
|      63 | 0x028A      |         650 |
|      64 | 0x028B      |         651 |
|      65 | 0x029E      |         670 |
|      66 | 0x0019      |          25 |
|      67 | 0x00C6      |         198 |
|      68 | 0x0032      |          50 |
|      69 | 0x00B5      |         181 |
|      70 | 0x008C      |         140 |
|      71 | 0x008E      |         142 |
|      72 | 0x007A      |         122 |
|      73 | 0x014B      |         331 |
|      74 | 0x0148      |         328 |
|      75 | 0x0166      |         358 |
|      76 | 0x017A      |         378 |
|      77 | 0x0182      |         386 |
|      78 | 0x0183      |         387 |
|      79 | 0x0192      |         402 |
|      80 | 0x01DF      |         479 |
|      81 | 0x01E9      |         489 |
|      82 | 0x001C      |          28 |
|      83 | 0x00E6      |         230 |
|      84 | 0x00EB      |         235 |
|      85 | 0x00F5      |         245 |
|      86 | 0x007E      |         126 |
|      87 | 0x007F      |         127 |
|      88 | 0x00F3      |         243 |
|      89 | 0x00F4      |         244 |
|      90 | 0x00E0      |         224 |
|      91 | 0x00E9      |         233 |
|      92 | 0x009E      |         158 |
|      93 | 0x009D      |         157 |
|      94 | 0x00E2      |         226 |
|      95 | 0x00E1      |         225 |
|      96 | 0x014F      |         335 |
|      97 | 0x014E      |         334 |
|      98 | 0x0167      |         359 |
|      99 | 0x00E5      |         229 |
|     100 | 0x0169      |         361 |
|     101 | 0x016A      |         362 |
|     102 | 0x0168      |         360 |
|     103 | 0x0133      |         307 |
|     104 | 0x0174      |         372 |
|     105 | 0x018C      |         396 |
|     106 | 0x0194      |         404 |
|     107 | 0x0195      |         405 |
|     108 | 0x0178      |         376 |
|     109 | 0x0240      |         576 |
|     110 | 0x0197      |         407 |
|     111 | 0x0198      |         408 |
|     112 | 0x01A3      |         419 |
|     113 | 0x019E      |         414 |
|     114 | 0x0246      |         582 |
|     115 | 0x0247      |         583 |
|     116 | 0x0248      |         584 |
|     117 | 0x024B      |         587 |
|     118 | 0x024A      |         586 |
|     119 | 0x0011      |          17 |
|     120 | 0x024F      |         591 |
|     121 | 0x01C3      |         451 |
|     122 | 0x01C4      |         452 |
|     123 | 0x01EF      |         495 |
|     124 | 0x01F0      |         496 |
|     125 | 0x001A      |          26 |
|     126 | 0x0095      |         149 |
|     127 | 0x001D      |          29 |
|     128 | 0x0073      |         115 |
|     129 | 0x0034      |          52 |
|     130 | 0x0024      |          36 |
|     131 | 0x005E      |          94 |
|     132 | 0x0072      |         114 |
|     133 | 0x0031      |          49 |
|     134 | 0x006C      |         108 |
|     135 | 0x003A      |          58 |
|     136 | 0x0096      |         150 |
|     137 | 0x0016      |          22 |
|     138 | 0x0035      |          53 |
|     139 | 0x0085      |         133 |
|     140 | 0x0081      |         129 |
|     141 | 0x0023      |          35 |
|     142 | 0x0033      |          51 |
|     143 | 0x0082      |         130 |
|     144 | 0x0039      |          57 |
|     145 | 0x0020      |          32 |
|     146 | 0x0038      |          56 |
|     147 | 0x0036      |          54 |
|     148 | 0x0083      |         131 |
|     149 | 0x00A2      |         162 |
|     150 | 0x0022      |          34 |
|     151 | 0x0021      |          33 |
|     152 | 0x0065      |         101 |
|     153 | 0x0086      |         134 |
|     154 | 0x0062      |          98 |
|     155 | 0x008D      |         141 |
|     156 | 0x0037      |          55 |
|     157 | 0x008A      |         138 |
|     158 | 0x008B      |         139 |
|     159 | 0x002B      |          43 |
|     160 | 0x0067      |         103 |
|     161 | 0x0030      |          48 |
|     162 | 0x002D      |          45 |
|     163 | 0x00A1      |         161 |
|     164 | 0x0066      |         102 |
|     165 | 0x0075      |         117 |
|     166 | 0x0068      |         104 |
|     167 | 0x007B      |         123 |
|     168 | 0x0077      |         119 |
|     169 | 0x01FE      |         510 |
|     170 | 0x009F      |         159 |
|     171 | 0x00A4      |         164 |
|     172 | 0x00A9      |         169 |
|     173 | 0x00AC      |         172 |
|     174 | 0x00B2      |         178 |
|     175 | 0x00B0      |         176 |
|     176 | 0x013D      |         317 |
|     177 | 0x0108      |         264 |
|     178 | 0x010C      |         268 |
|     179 | 0x0100      |         256 |
|     180 | 0x00FB      |         251 |
|     181 | 0x00B8      |         184 |
|     182 | 0x011C      |         284 |
|     183 | 0x0041      |          65 |
|     184 | 0x0042      |          66 |
|     185 | 0x0047      |          71 |
|     186 | 0x0160      |         352 |
|     187 | 0x0043      |          67 |
|     188 | 0x0048      |          72 |
|     189 | 0x004B      |          75 |
|     190 | 0x004C      |          76 |
|     191 | 0x004D      |          77 |
|     192 | 0x005B      |          91 |
|     193 | 0x0058      |          88 |
|     194 | 0x0053      |          83 |
|     195 | 0x0054      |          84 |
|     196 | 0x0161      |         353 |
|     197 | 0x015C      |         348 |
|     198 | 0x016D      |         365 |
|     199 | 0x00C5      |         197 |
|     200 | 0x00C3      |         195 |
|     201 | 0x00C7      |         199 |
|     202 | 0x015E      |         350 |
|     203 | 0x00C4      |         196 |
|     204 | 0x016E      |         366 |
|     205 | 0x00D0      |         208 |
|     206 | 0x00CD      |         205 |
|     207 | 0x00CA      |         202 |
|     208 | 0x00D2      |         210 |
|     209 | 0x00D8      |         216 |
|     210 | 0x00D5      |         213 |
|     211 | 0x00D6      |         214 |
|     212 | 0x013B      |         315 |
|     213 | 0x0136      |         310 |
|     214 | 0x013A      |         314 |
|     215 | 0x0137      |         311 |
|     216 | 0x016F      |         367 |
|     217 | 0x0138      |         312 |
|     218 | 0x0139      |         313 |
|     219 | 0x009A      |         154 |
|     220 | 0x0091      |         145 |
|     221 | 0x009B      |         155 |
|     222 | 0x0099      |         153 |
|     223 | 0x0093      |         147 |
|     224 | 0x0092      |         146 |
|     225 | 0x0098      |         152 |
|     226 | 0x0071      |         113 |
|     227 | 0x00E8      |         232 |
|     228 | 0x00DD      |         221 |
|     229 | 0x00F8      |         248 |
|     230 | 0x00F1      |         241 |
|     231 | 0x0124      |         292 |
|     232 | 0x012E      |         302 |
|     233 | 0x0129      |         297 |
|     234 | 0x0122      |         290 |
|     235 | 0x0132      |         306 |
|     236 | 0x0126      |         294 |
|     237 | 0x0155      |         341 |
|     238 | 0x0025      |          37 |
|     239 | 0x0029      |          41 |
|     240 | 0x0028      |          40 |
|     241 | 0x007D      |         125 |
|     242 | 0x0079      |         121 |
|     243 | 0x007C      |         124 |
|     244 | 0x0074      |         116 |
|     245 | 0x00EC      |         236 |
|     246 | 0x019C      |         412 |
|     247 | 0x0193      |         403 |
|     248 | 0x01C6      |         454 |
|     249 | 0x01C7      |         455 |

## Events

### Event 65535

#### Metadata

| Field        | Value   |
|--------------|---------|
| Entrypoint   | 0x0000  |
| Data Size    | 1 bytes |
| Instructions | 1       |

```
      00 01 02 03 04 05 06 07  08 09 0A 0B 0C 0D 0E 0F
      -- -- -- -- -- -- -- --  -- -- -- -- -- -- -- --
0000: 00                                                .               
```

#### Opcodes

```
  0: 0x0000 [0x00] END_REQSTACK()
```

### Event 65535.1

#### Metadata

| Field        | Value    |
|--------------|----------|
| Entrypoint   | 0x0001   |
| Data Size    | 10 bytes |
| Instructions | 4        |

```
      00 01 02 03 04 05 06 07  08 09 0A 0B 0C 0D 0E 0F
      -- -- -- -- -- -- -- --  -- -- -- -- -- -- -- --
0000:    1A 54 00 1A 69 19 1A  B4 10 00                  .T..i.....     
```

#### Opcodes

```
  0: 0x0001 [0x1A] CALL_SUBROUTINE(address=0x0054)
  1: 0x0004 [0x1A] CALL_SUBROUTINE(address=0x1969)
  2: 0x0007 [0x1A] CALL_SUBROUTINE(address=0x10B4)
  3: 0x000A [0x00] END_REQSTACK()
```

### Event 10000

#### Metadata

| Field        | Value   |
|--------------|---------|
| Entrypoint   | 0x000B  |
| Data Size    | 1 bytes |
| Instructions | 1       |

```
      00 01 02 03 04 05 06 07  08 09 0A 0B 0C 0D 0E 0F
      -- -- -- -- -- -- -- --  -- -- -- -- -- -- -- --
0000:                                   00                         .    
```

#### Opcodes

```
  0: 0x000B [0x00] END_REQSTACK()
```

### Event 65535.2

#### Metadata

| Field        | Value    |
|--------------|----------|
| Entrypoint   | 0x000C   |
| Data Size    | 21 bytes |
| Instructions | 5        |

```
      00 01 02 03 04 05 06 07  08 09 0A 0B 0C 0D 0E 0F
      -- -- -- -- -- -- -- --  -- -- -- -- -- -- -- --
0000:                                      2F 00 F8 FF              /...
0010: FF 7F 36 00 80 01 80 02  80 22 00 80 F8 FF FF 7F  ..6......"......
0020: 00                                                .               
```

#### Opcodes

```
  0: 0x000C [0x2F] EventEntity->Render.Flags0 &= ~0x80000 // Bit 19
  1: 0x0012 [0x36] SET_ENTITY_EVENT_POSITION(pos_x=166.356*, pos_z=-202.849*, pos_y=19.801*)
  2: 0x0019 [0x22] ENTITY_HIDE_FLAG(enabled=0x00)
  3: 0x001B [0x80] LOAD_WAIT(entity=EventEntity)
  4: 0x0020 [0x00] END_REQSTACK()
```

### Event 65535.3

#### Metadata

| Field        | Value       |
|--------------|-------------|
| Entrypoint   | 0x0021      |
| Data Size    | 18574 bytes |
| Instructions | 11          |

```
      00 01 02 03 04 05 06 07  08 09 0A 0B 0C 0D 0E 0F
      -- -- -- -- -- -- -- --  -- -- -- -- -- -- -- --
0020:    4A BD E1 07 01 F0 FF  FF 7F 1C 03 80 6E BD E1   J...........n..
0030: 07 01 04 80 99 BD E1 07  01 99 BD E1 07 01 1C 05  ................
0040: 80 6F 76 BD E1 07 01 4A  BD E1 07 01 BF E1 07 01  .ov....J........
0050: 1C 03 80 00 03 02 00 06  80 1A 9F 14 1A A9 14 02  ................
0060: 0B 00 06 80 80 62 01 02  01 00 06 80 80 86 00 B4  .....b..........
0070: 00 02 00 46 65 6C 69 7A  00 00 00 00 00 00 00 00  ...Feliz........
0080: 00 00 00 01 5F 01 02 01  00 07 80 80 A5 00 B4 00  ...._...........
0090: 02 00 46 65 72 64 69 6E  61 6E 64 00 00 00 00 00  ..Ferdinand.....
00A0: 00 00 01 5F 01 02 01 00  08 80 80 C4 00 B4 00 02  ..._............
00B0: 00 47 75 6E 6E 61 72 00  00 00 00 00 00 00 00 00  .Gunnar.........
00C0: 00 01 5F 01 02 01 00 09  80 80 E3 00 B4 00 02 00  .._.............
00D0: 4D 61 73 73 69 6D 6F 00  00 00 00 00 00 00 00 00  Massimo.........
00E0: 01 5F 01 02 01 00 0A 80  80 02 01 B4 00 02 00 4F  ._.............O
00F0: 6C 64 72 69 63 68 00 00  00 00 00 00 00 00 00 01  ldrich..........
0100: 5F 01 02 01 00 0B 80 80  21 01 B4 00 02 00 53 69  _.......!.....Si
0110: 65 67 77 61 72 64 00 00  00 00 00 00 00 00 01 5F  egward........._
0120: 01 02 01 00 0C 80 80 40  01 B4 00 02 00 54 68 65  .......@.....The
0130: 6F 62 61 6C 64 00 00 00  00 00 00 00 00 01 5F 01  obald........._.
0140: 02 01 00 0D 80 80 5F 01  B4 00 02 00 5A 65 6E 6A  ......_.....Zenj
0150: 69 00 00 00 00 00 00 00  00 00 00 00 01 5F 01 01  i............_..
0160: 77 08 02 0B 00 07 80 80  65 02 02 01 00 06 80 80  w.......e.......
0170: 89 01 B4 00 02 00 41 6D  65 72 69 74 61 00 00 00  ......Amerita...
0180: 00 00 00 00 00 00 01 62  02 02 01 00 07 80 80 A8  .......b........
0190: 01 B4 00 02 00 42 65 61  74 72 69 63 65 00 00 00  .....Beatrice...
01A0: 00 00 00 00 00 01 62 02  02 01 00 08 80 80 C7 01  ......b.........
01B0: B4 00 02 00 48 65 6E 72  69 65 74 74 61 00 00 00  ....Henrietta...
01C0: 00 00 00 00 01 62 02 02  01 00 09 80 80 E6 01 B4  .....b..........
01D0: 00 02 00 4A 65 73 69 6D  61 65 00 00 00 00 00 00  ...Jesimae......
01E0: 00 00 00 01 62 02 02 01  00 0A 80 80 05 02 B4 00  ....b...........
01F0: 02 00 4B 61 72 79 6E 00  00 00 00 00 00 00 00 00  ..Karyn.........
0200: 00 00 01 62 02 02 01 00  0B 80 80 24 02 B4 00 02  ...b.......$....
0210: 00 4E 61 6E 61 6B 6F 00  00 00 00 00 00 00 00 00  .Nanako.........
0220: 00 01 62 02 02 01 00 0C  80 80 43 02 B4 00 02 00  ..b.......C.....
0230: 53 68 61 72 6C 65 6E 65  00 00 00 00 00 00 00 00  Sharlene........
0240: 01 62 02 02 01 00 0D 80  80 62 02 B4 00 02 00 53  .b.......b.....S
0250: 69 65 67 68 69 6C 64 65  00 00 00 00 00 00 00 01  ieghilde........
0260: 62 02 01 77 08 02 0B 00  08 80 80 68 03 02 01 00  b..w.......h....
0270: 06 80 80 8C 02 B4 00 02  00 43 68 61 6E 61 6E 64  .........Chanand
0280: 69 74 00 00 00 00 00 00  00 01 65 03 02 01 00 07  it........e.....
0290: 80 80 AB 02 B4 00 02 00  44 65 75 6C 6D 61 65 75  ........Deulmaeu
02A0: 78 00 00 00 00 00 00 00  01 65 03 02 01 00 08 80  x........e......
02B0: 80 CA 02 B4 00 02 00 44  65 6D 72 65 73 69 6E 61  .......Demresina
02C0: 75 78 00 00 00 00 00 01  65 03 02 01 00 09 80 80  ux......e.......
02D0: E9 02 B4 00 02 00 45 70  68 65 61 6C 67 61 75 78  ......Ephealgaux
02E0: 00 00 00 00 00 00 01 65  03 02 01 00 0A 80 80 08  .......e........
02F0: 03 B4 00 02 00 47 61 75  6C 64 65 76 61 6C 00 00  .....Gauldeval..
0300: 00 00 00 00 00 01 65 03  02 01 00 0B 80 80 27 03  ......e.......'.
0310: B4 00 02 00 47 72 61 75  66 66 65 6D 61 72 74 00  ....Grauffemart.
0320: 00 00 00 00 01 65 03 02  01 00 0C 80 80 46 03 B4  .....e.......F..
0330: 00 02 00 4D 69 67 61 69  66 6F 6E 67 75 74 00 00  ...Migaifongut..
0340: 00 00 00 01 65 03 02 01  00 0D 80 80 65 03 B4 00  ....e.......e...
0350: 02 00 52 6F 6D 69 64 69  61 6E 74 00 00 00 00 00  ..Romidiant.....
0360: 00 00 01 65 03 01 77 08  02 0B 00 09 80 80 6B 04  ...e..w.......k.
0370: 02 01 00 06 80 80 8F 03  B4 00 02 00 41 72 6D 69  ............Armi
0380: 74 74 69 65 00 00 00 00  00 00 00 00 01 68 04 02  ttie.........h..
0390: 01 00 07 80 80 AE 03 B4  00 02 00 43 61 64 65 70  ...........Cadep
03A0: 75 72 65 00 00 00 00 00  00 00 00 01 68 04 02 01  ure.........h...
03B0: 00 08 80 80 CD 03 B4 00  02 00 43 6C 65 61 72 69  ..........Cleari
03C0: 74 65 00 00 00 00 00 00  00 00 01 68 04 02 01 00  te.........h....
03D0: 09 80 80 EC 03 B4 00 02  00 45 70 69 6C 6C 65 76  .........Epillev
03E0: 65 00 00 00 00 00 00 00  00 01 68 04 02 01 00 0A  e.........h.....
03F0: 80 80 0B 04 B4 00 02 00  4C 69 61 62 65 6C 6C 65  ........Liabelle
0400: 00 00 00 00 00 00 00 00  01 68 04 02 01 00 0B 80  .........h......
0410: 80 2A 04 B4 00 02 00 4E  61 75 74 68 69 6D 61 00  .*.....Nauthima.
0420: 00 00 00 00 00 00 00 01  68 04 02 01 00 0C 80 80  ........h.......
0430: 49 04 B4 00 02 00 52 61  64 69 6C 6C 65 00 00 00  I.....Radille...
0440: 00 00 00 00 00 00 01 68  04 02 01 00 0D 80 80 68  .......h.......h
0450: 04 B4 00 02 00 56 69 6D  65 63 68 75 65 00 00 00  .....Vimechue...
0460: 00 00 00 00 00 01 68 04  01 77 08 02 0B 00 0A 80  ......h..w......
0470: 80 6E 05 02 01 00 06 80  80 92 04 B4 00 02 00 42  .n.............B
0480: 61 6C 75 2D 46 61 6C 75  00 00 00 00 00 00 00 01  alu-Falu........
0490: 6B 05 02 01 00 07 80 80  B1 04 B4 00 02 00 42 75  k.............Bu
04A0: 72 67 2D 4C 61 64 61 72  67 00 00 00 00 00 01 6B  rg-Ladarg......k
04B0: 05 02 01 00 08 80 80 D0  04 B4 00 02 00 45 68 67  .............Ehg
04C0: 6F 2D 52 79 75 68 67 6F  00 00 00 00 00 01 6B 05  o-Ryuhgo......k.
04D0: 02 01 00 09 80 80 EF 04  B4 00 02 00 4B 6F 6C 75  ............Kolu
04E0: 69 2D 50 65 6C 75 69 00  00 00 00 00 01 6B 05 02  i-Pelui......k..
04F0: 01 00 0A 80 80 0E 05 B4  00 02 00 4E 6F 6B 75 6D  ...........Nokum
0500: 2D 41 6B 6B 75 6D 00 00  00 00 00 01 6B 05 02 01  -Akkum......k...
0510: 00 0B 80 80 2D 05 B4 00  02 00 53 61 76 75 6C 2D  ....-.....Savul-
0520: 4B 69 76 75 6C 00 00 00  00 00 01 6B 05 02 01 00  Kivul......k....
0530: 0C 80 80 4C 05 B4 00 02  00 56 69 6E 6A 61 2D 4B  ...L.....Vinja-K
0540: 61 6E 6A 61 00 00 00 00  00 01 6B 05 02 01 00 0D  anja......k.....
0550: 80 80 6B 05 B4 00 02 00  59 61 72 67 61 2D 55 6D  ..k.....Yarga-Um
0560: 69 67 61 00 00 00 00 00  01 6B 05 01 77 08 02 0B  iga......k..w...
0570: 00 0B 80 80 71 06 02 01  00 06 80 80 95 05 B4 00  ....q...........
0580: 02 00 43 75 70 61 70 61  00 00 00 00 00 00 00 00  ..Cupapa........
0590: 00 00 01 6E 06 02 01 00  07 80 80 B4 05 B4 00 02  ...n............
05A0: 00 4A 61 6A 75 6A 75 00  00 00 00 00 00 00 00 00  .Jajuju.........
05B0: 00 01 6E 06 02 01 00 08  80 80 D3 05 B4 00 02 00  ..n.............
05C0: 4B 61 6C 6F 6B 6F 6B 6F  00 00 00 00 00 00 00 00  Kalokoko........
05D0: 01 6E 06 02 01 00 09 80  80 F2 05 B4 00 02 00 4D  .n.............M
05E0: 61 68 6F 79 61 79 61 00  00 00 00 00 00 00 00 01  ahoyaya.........
05F0: 6E 06 02 01 00 0A 80 80  11 06 B4 00 02 00 50 61  n.............Pa
0600: 6B 75 72 61 72 61 00 00  00 00 00 00 00 00 01 6E  kurara.........n
0610: 06 02 01 00 0B 80 80 30  06 B4 00 02 00 52 69 70  .......0.....Rip
0620: 6F 6B 65 6B 65 00 00 00  00 00 00 00 00 01 6E 06  okeke.........n.
0630: 02 01 00 0C 80 80 4F 06  B4 00 02 00 59 61 77 61  ......O.....Yawa
0640: 77 61 00 00 00 00 00 00  00 00 00 00 01 6E 06 02  wa...........n..
0650: 01 00 0D 80 80 6E 06 B4  00 02 00 59 75 66 61 66  .....n.....Yufaf
0660: 61 00 00 00 00 00 00 00  00 00 00 01 6E 06 01 77  a...........n..w
0670: 08 02 0B 00 0C 80 80 74  07 02 01 00 06 80 80 98  .......t........
0680: 06 B4 00 02 00 46 68 69  67 00 00 00 00 00 00 00  .....Fhig.......
0690: 00 00 00 00 00 01 71 07  02 01 00 07 80 80 B7 06  ......q.........
06A0: B4 00 02 00 4B 68 75 6D  61 00 00 00 00 00 00 00  ....Khuma.......
06B0: 00 00 00 00 01 71 07 02  01 00 08 80 80 D6 06 B4  .....q..........
06C0: 00 02 00 50 69 6D 79 00  00 00 00 00 00 00 00 00  ...Pimy.........
06D0: 00 00 00 01 71 07 02 01  00 09 80 80 F5 06 B4 00  ....q...........
06E0: 02 00 52 61 6B 61 00 00  00 00 00 00 00 00 00 00  ..Raka..........
06F0: 00 00 01 71 07 02 01 00  0A 80 80 14 07 B4 00 02  ...q............
0700: 00 53 61 68 79 75 00 00  00 00 00 00 00 00 00 00  .Sahyu..........
0710: 00 01 71 07 02 01 00 0B  80 80 33 07 B4 00 02 00  ..q.......3.....
0720: 53 75 66 68 69 00 00 00  00 00 00 00 00 00 00 00  Sufhi...........
0730: 01 71 07 02 01 00 0C 80  80 52 07 B4 00 02 00 54  .q.......R.....T
0740: 73 75 69 6D 00 00 00 00  00 00 00 00 00 00 00 01  suim............
0750: 71 07 02 01 00 0D 80 80  71 07 B4 00 02 00 59 6F  q.......q.....Yo
0760: 6C 69 00 00 00 00 00 00  00 00 00 00 00 00 01 71  li.............q
0770: 07 01 77 08 02 0B 00 0D  80 80 77 08 02 01 00 06  ..w.......w.....
0780: 80 80 9B 07 B4 00 02 00  44 75 72 69 62 00 00 00  ........Durib...
0790: 00 00 00 00 00 00 00 00  01 74 08 02 01 00 07 80  .........t......
07A0: 80 BA 07 B4 00 02 00 44  7A 61 70 69 77 61 00 00  .......Dzapiwa..
07B0: 00 00 00 00 00 00 00 01  74 08 02 01 00 08 80 80  ........t.......
07C0: D9 07 B4 00 02 00 4A 75  67 6F 77 61 00 00 00 00  ......Jugowa....
07D0: 00 00 00 00 00 00 01 74  08 02 01 00 09 80 80 F8  .......t........
07E0: 07 B4 00 02 00 4D 75 67  69 64 6F 00 00 00 00 00  .....Mugido.....
07F0: 00 00 00 00 00 01 74 08  02 01 00 0A 80 80 17 08  ......t.........
0800: B4 00 02 00 56 6F 6C 64  61 69 00 00 00 00 00 00  ....Voldai......
0810: 00 00 00 00 01 74 08 02  01 00 0B 80 80 36 08 B4  .....t.......6..
0820: 00 02 00 57 61 67 77 65  69 00 00 00 00 00 00 00  ...Wagwei.......
0830: 00 00 00 01 74 08 02 01  00 0C 80 80 55 08 B4 00  ....t.......U...
0840: 02 00 5A 61 79 61 67 00  00 00 00 00 00 00 00 00  ..Zayag.........
0850: 00 00 01 74 08 02 01 00  0D 80 80 74 08 B4 00 02  ...t.......t....
0860: 00 5A 6F 6C 64 6F 66 00  00 00 00 00 00 00 00 00  .Zoldof.........
0870: 00 01 74 08 01 77 08 02  02 00 06 80 01 83 08 B5  ..t..w..........
0880: 00 02 00 1B 03 02 00 06  80 1A 9F 14 1A A9 14 02  ................
0890: 0B 00 06 80 80 92 09 02  01 00 06 80 80 B6 08 B4  ................
08A0: 00 02 00 46 65 6C 69 7A  00 00 00 00 00 00 00 00  ...Feliz........
08B0: 00 00 00 01 8F 09 02 01  00 07 80 80 D5 08 B4 00  ................
08C0: 02 00 46 65 72 64 69 6E  61 6E 64 00 00 00 00 00  ..Ferdinand.....
08D0: 00 00 01 8F 09 02 01 00  08 80 80 F4 08 B4 00 02  ................
08E0: 00 47 75 6E 6E 61 72 00  00 00 00 00 00 00 00 00  .Gunnar.........
08F0: 00 01 8F 09 02 01 00 09  80 80 13 09 B4 00 02 00  ................
0900: 4D 61 73 73 69 6D 6F 00  00 00 00 00 00 00 00 00  Massimo.........
0910: 01 8F 09 02 01 00 0A 80  80 32 09 B4 00 02 00 4F  .........2.....O
0920: 6C 64 72 69 63 68 00 00  00 00 00 00 00 00 00 01  ldrich..........
0930: 8F 09 02 01 00 0B 80 80  51 09 B4 00 02 00 53 69  ........Q.....Si
0940: 65 67 77 61 72 64 00 00  00 00 00 00 00 00 01 8F  egward..........
0950: 09 02 01 00 0C 80 80 70  09 B4 00 02 00 54 68 65  .......p.....The
0960: 6F 62 61 6C 64 00 00 00  00 00 00 00 00 01 8F 09  obald...........
0970: 02 01 00 0D 80 80 8F 09  B4 00 02 00 5A 65 6E 6A  ............Zenj
0980: 69 00 00 00 00 00 00 00  00 00 00 00 01 8F 09 01  i...............
0990: A7 10 02 0B 00 07 80 80  95 0A 02 01 00 06 80 80  ................
09A0: B9 09 B4 00 02 00 41 6D  65 72 69 74 61 00 00 00  ......Amerita...
09B0: 00 00 00 00 00 00 01 92  0A 02 01 00 07 80 80 D8  ................
09C0: 09 B4 00 02 00 42 65 61  74 72 69 63 65 00 00 00  .....Beatrice...
09D0: 00 00 00 00 00 01 92 0A  02 01 00 08 80 80 F7 09  ................
09E0: B4 00 02 00 48 65 6E 72  69 65 74 74 61 00 00 00  ....Henrietta...
09F0: 00 00 00 00 01 92 0A 02  01 00 09 80 80 16 0A B4  ................
0A00: 00 02 00 4A 65 73 69 6D  61 65 00 00 00 00 00 00  ...Jesimae......
0A10: 00 00 00 01 92 0A 02 01  00 0A 80 80 35 0A B4 00  ............5...
0A20: 02 00 4B 61 72 79 6E 00  00 00 00 00 00 00 00 00  ..Karyn.........
0A30: 00 00 01 92 0A 02 01 00  0B 80 80 54 0A B4 00 02  ...........T....
0A40: 00 4E 61 6E 61 6B 6F 00  00 00 00 00 00 00 00 00  .Nanako.........
0A50: 00 01 92 0A 02 01 00 0C  80 80 73 0A B4 00 02 00  ..........s.....
0A60: 53 68 61 72 6C 65 6E 65  00 00 00 00 00 00 00 00  Sharlene........
0A70: 01 92 0A 02 01 00 0D 80  80 92 0A B4 00 02 00 53  ...............S
0A80: 69 65 67 68 69 6C 64 65  00 00 00 00 00 00 00 01  ieghilde........
0A90: 92 0A 01 A7 10 02 0B 00  08 80 80 98 0B 02 01 00  ................
0AA0: 06 80 80 BC 0A B4 00 02  00 43 68 61 6E 61 6E 64  .........Chanand
0AB0: 69 74 00 00 00 00 00 00  00 01 95 0B 02 01 00 07  it..............
0AC0: 80 80 DB 0A B4 00 02 00  44 65 75 6C 6D 61 65 75  ........Deulmaeu
0AD0: 78 00 00 00 00 00 00 00  01 95 0B 02 01 00 08 80  x...............
0AE0: 80 FA 0A B4 00 02 00 44  65 6D 72 65 73 69 6E 61  .......Demresina
0AF0: 75 78 00 00 00 00 00 01  95 0B 02 01 00 09 80 80  ux..............
0B00: 19 0B B4 00 02 00 45 70  68 65 61 6C 67 61 75 78  ......Ephealgaux
0B10: 00 00 00 00 00 00 01 95  0B 02 01 00 0A 80 80 38  ...............8
0B20: 0B B4 00 02 00 47 61 75  6C 64 65 76 61 6C 00 00  .....Gauldeval..
0B30: 00 00 00 00 00 01 95 0B  02 01 00 0B 80 80 57 0B  ..............W.
0B40: B4 00 02 00 47 72 61 75  66 66 65 6D 61 72 74 00  ....Grauffemart.
0B50: 00 00 00 00 01 95 0B 02  01 00 0C 80 80 76 0B B4  .............v..
0B60: 00 02 00 4D 69 67 61 69  66 6F 6E 67 75 74 00 00  ...Migaifongut..
0B70: 00 00 00 01 95 0B 02 01  00 0D 80 80 95 0B B4 00  ................
0B80: 02 00 52 6F 6D 69 64 69  61 6E 74 00 00 00 00 00  ..Romidiant.....
0B90: 00 00 01 95 0B 01 A7 10  02 0B 00 09 80 80 9B 0C  ................
0BA0: 02 01 00 06 80 80 BF 0B  B4 00 02 00 41 72 6D 69  ............Armi
0BB0: 74 74 69 65 00 00 00 00  00 00 00 00 01 98 0C 02  ttie............
0BC0: 01 00 07 80 80 DE 0B B4  00 02 00 43 61 64 65 70  ...........Cadep
0BD0: 75 72 65 00 00 00 00 00  00 00 00 01 98 0C 02 01  ure.............
0BE0: 00 08 80 80 FD 0B B4 00  02 00 43 6C 65 61 72 69  ..........Cleari
0BF0: 74 65 00 00 00 00 00 00  00 00 01 98 0C 02 01 00  te..............
0C00: 09 80 80 1C 0C B4 00 02  00 45 70 69 6C 6C 65 76  .........Epillev
0C10: 65 00 00 00 00 00 00 00  00 01 98 0C 02 01 00 0A  e...............
0C20: 80 80 3B 0C B4 00 02 00  4C 69 61 62 65 6C 6C 65  ..;.....Liabelle
0C30: 00 00 00 00 00 00 00 00  01 98 0C 02 01 00 0B 80  ................
0C40: 80 5A 0C B4 00 02 00 4E  61 75 74 68 69 6D 61 00  .Z.....Nauthima.
0C50: 00 00 00 00 00 00 00 01  98 0C 02 01 00 0C 80 80  ................
0C60: 79 0C B4 00 02 00 52 61  64 69 6C 6C 65 00 00 00  y.....Radille...
0C70: 00 00 00 00 00 00 01 98  0C 02 01 00 0D 80 80 98  ................
0C80: 0C B4 00 02 00 56 69 6D  65 63 68 75 65 00 00 00  .....Vimechue...
0C90: 00 00 00 00 00 01 98 0C  01 A7 10 02 0B 00 0A 80  ................
0CA0: 80 9E 0D 02 01 00 06 80  80 C2 0C B4 00 02 00 42  ...............B
0CB0: 61 6C 75 2D 46 61 6C 75  00 00 00 00 00 00 00 01  alu-Falu........
0CC0: 9B 0D 02 01 00 07 80 80  E1 0C B4 00 02 00 42 75  ..............Bu
0CD0: 72 67 2D 4C 61 64 61 72  67 00 00 00 00 00 01 9B  rg-Ladarg.......
0CE0: 0D 02 01 00 08 80 80 00  0D B4 00 02 00 45 68 67  .............Ehg
0CF0: 6F 2D 52 79 75 68 67 6F  00 00 00 00 00 01 9B 0D  o-Ryuhgo........
0D00: 02 01 00 09 80 80 1F 0D  B4 00 02 00 4B 6F 6C 75  ............Kolu
0D10: 69 2D 50 65 6C 75 69 00  00 00 00 00 01 9B 0D 02  i-Pelui.........
0D20: 01 00 0A 80 80 3E 0D B4  00 02 00 4E 6F 6B 75 6D  .....>.....Nokum
0D30: 2D 41 6B 6B 75 6D 00 00  00 00 00 01 9B 0D 02 01  -Akkum..........
0D40: 00 0B 80 80 5D 0D B4 00  02 00 53 61 76 75 6C 2D  ....].....Savul-
0D50: 4B 69 76 75 6C 00 00 00  00 00 01 9B 0D 02 01 00  Kivul...........
0D60: 0C 80 80 7C 0D B4 00 02  00 56 69 6E 6A 61 2D 4B  ...|.....Vinja-K
0D70: 61 6E 6A 61 00 00 00 00  00 01 9B 0D 02 01 00 0D  anja............
0D80: 80 80 9B 0D B4 00 02 00  59 61 72 67 61 2D 55 6D  ........Yarga-Um
0D90: 69 67 61 00 00 00 00 00  01 9B 0D 01 A7 10 02 0B  iga.............
0DA0: 00 0B 80 80 A1 0E 02 01  00 06 80 80 C5 0D B4 00  ................
0DB0: 02 00 43 75 70 61 70 61  00 00 00 00 00 00 00 00  ..Cupapa........
0DC0: 00 00 01 9E 0E 02 01 00  07 80 80 E4 0D B4 00 02  ................
0DD0: 00 4A 61 6A 75 6A 75 00  00 00 00 00 00 00 00 00  .Jajuju.........
0DE0: 00 01 9E 0E 02 01 00 08  80 80 03 0E B4 00 02 00  ................
0DF0: 4B 61 6C 6F 6B 6F 6B 6F  00 00 00 00 00 00 00 00  Kalokoko........
0E00: 01 9E 0E 02 01 00 09 80  80 22 0E B4 00 02 00 4D  .........".....M
0E10: 61 68 6F 79 61 79 61 00  00 00 00 00 00 00 00 01  ahoyaya.........
0E20: 9E 0E 02 01 00 0A 80 80  41 0E B4 00 02 00 50 61  ........A.....Pa
0E30: 6B 75 72 61 72 61 00 00  00 00 00 00 00 00 01 9E  kurara..........
0E40: 0E 02 01 00 0B 80 80 60  0E B4 00 02 00 52 69 70  .......`.....Rip
0E50: 6F 6B 65 6B 65 00 00 00  00 00 00 00 00 01 9E 0E  okeke...........
0E60: 02 01 00 0C 80 80 7F 0E  B4 00 02 00 59 61 77 61  ............Yawa
0E70: 77 61 00 00 00 00 00 00  00 00 00 00 01 9E 0E 02  wa..............
0E80: 01 00 0D 80 80 9E 0E B4  00 02 00 59 75 66 61 66  ...........Yufaf
0E90: 61 00 00 00 00 00 00 00  00 00 00 01 9E 0E 01 A7  a...............
0EA0: 10 02 0B 00 0C 80 80 A4  0F 02 01 00 06 80 80 C8  ................
0EB0: 0E B4 00 02 00 46 68 69  67 00 00 00 00 00 00 00  .....Fhig.......
0EC0: 00 00 00 00 00 01 A1 0F  02 01 00 07 80 80 E7 0E  ................
0ED0: B4 00 02 00 4B 68 75 6D  61 00 00 00 00 00 00 00  ....Khuma.......
0EE0: 00 00 00 00 01 A1 0F 02  01 00 08 80 80 06 0F B4  ................
0EF0: 00 02 00 50 69 6D 79 00  00 00 00 00 00 00 00 00  ...Pimy.........
0F00: 00 00 00 01 A1 0F 02 01  00 09 80 80 25 0F B4 00  ............%...
0F10: 02 00 52 61 6B 61 00 00  00 00 00 00 00 00 00 00  ..Raka..........
0F20: 00 00 01 A1 0F 02 01 00  0A 80 80 44 0F B4 00 02  ...........D....
0F30: 00 53 61 68 79 75 00 00  00 00 00 00 00 00 00 00  .Sahyu..........
0F40: 00 01 A1 0F 02 01 00 0B  80 80 63 0F B4 00 02 00  ..........c.....
0F50: 53 75 66 68 69 00 00 00  00 00 00 00 00 00 00 00  Sufhi...........
0F60: 01 A1 0F 02 01 00 0C 80  80 82 0F B4 00 02 00 54  ...............T
0F70: 73 75 69 6D 00 00 00 00  00 00 00 00 00 00 00 01  suim............
0F80: A1 0F 02 01 00 0D 80 80  A1 0F B4 00 02 00 59 6F  ..............Yo
0F90: 6C 69 00 00 00 00 00 00  00 00 00 00 00 00 01 A1  li..............
0FA0: 0F 01 A7 10 02 0B 00 0D  80 80 A7 10 02 01 00 06  ................
0FB0: 80 80 CB 0F B4 00 02 00  44 75 72 69 62 00 00 00  ........Durib...
0FC0: 00 00 00 00 00 00 00 00  01 A4 10 02 01 00 07 80  ................
0FD0: 80 EA 0F B4 00 02 00 44  7A 61 70 69 77 61 00 00  .......Dzapiwa..
0FE0: 00 00 00 00 00 00 00 01  A4 10 02 01 00 08 80 80  ................
0FF0: 09 10 B4 00 02 00 4A 75  67 6F 77 61 00 00 00 00  ......Jugowa....
1000: 00 00 00 00 00 00 01 A4  10 02 01 00 09 80 80 28  ...............(
1010: 10 B4 00 02 00 4D 75 67  69 64 6F 00 00 00 00 00  .....Mugido.....
1020: 00 00 00 00 00 01 A4 10  02 01 00 0A 80 80 47 10  ..............G.
1030: B4 00 02 00 56 6F 6C 64  61 69 00 00 00 00 00 00  ....Voldai......
1040: 00 00 00 00 01 A4 10 02  01 00 0B 80 80 66 10 B4  .............f..
1050: 00 02 00 57 61 67 77 65  69 00 00 00 00 00 00 00  ...Wagwei.......
1060: 00 00 00 01 A4 10 02 01  00 0C 80 80 85 10 B4 00  ................
1070: 02 00 5A 61 79 61 67 00  00 00 00 00 00 00 00 00  ..Zayag.........
1080: 00 00 01 A4 10 02 01 00  0D 80 80 A4 10 B4 00 02  ................
1090: 00 5A 6F 6C 64 6F 66 00  00 00 00 00 00 00 00 00  .Zoldof.........
10A0: 00 01 A4 10 01 A7 10 02  02 00 06 80 01 B3 10 B5  ................
10B0: 00 02 00 1B 1A 7A 14 02  09 00 06 80 02 7F 12 02  .....z..........
10C0: 0B 00 06 80 80 F7 10 02  09 00 07 80 80 D6 10 B6  ................
10D0: 0F 0E 80 01 F4 10 02 09  00 08 80 80 E5 10 B6 0F  ................
10E0: 0F 80 01 F4 10 02 09 00  09 80 80 F4 10 B6 0F 10  ................
10F0: 80 01 F4 10 01 7F 12 02  0B 00 07 80 80 2F 11 02  ............./..
1100: 09 00 07 80 80 0E 11 B6  0F 0E 80 01 2C 11 02 09  ............,...
1110: 00 08 80 80 1D 11 B6 0F  0F 80 01 2C 11 02 09 00  ...........,....
1120: 09 80 80 2C 11 B6 0F 10  80 01 2C 11 01 7F 12 02  ...,......,.....
1130: 0B 00 08 80 80 67 11 02  09 00 07 80 80 46 11 B6  .....g.......F..
1140: 0F 0E 80 01 64 11 02 09  00 08 80 80 55 11 B6 0F  ....d.......U...
1150: 0F 80 01 64 11 02 09 00  09 80 80 64 11 B6 0F 10  ...d.......d....
1160: 80 01 64 11 01 7F 12 02  0B 00 09 80 80 9F 11 02  ..d.............
1170: 09 00 07 80 80 7E 11 B6  0F 0E 80 01 9C 11 02 09  .....~..........
1180: 00 08 80 80 8D 11 B6 0F  0F 80 01 9C 11 02 09 00  ................
1190: 09 80 80 9C 11 B6 0F 10  80 01 9C 11 01 7F 12 02  ................
11A0: 0B 00 0A 80 80 D7 11 02  09 00 07 80 80 B6 11 B6  ................
11B0: 0F 11 80 01 D4 11 02 09  00 08 80 80 C5 11 B6 0F  ................
11C0: 12 80 01 D4 11 02 09 00  09 80 80 D4 11 B6 0F 13  ................
11D0: 80 01 D4 11 01 7F 12 02  0B 00 0B 80 80 0F 12 02  ................
11E0: 09 00 07 80 80 EE 11 B6  0F 11 80 01 0C 12 02 09  ................
11F0: 00 08 80 80 FD 11 B6 0F  12 80 01 0C 12 02 09 00  ................
1200: 09 80 80 0C 12 B6 0F 13  80 01 0C 12 01 7F 12 02  ................
1210: 0B 00 0C 80 80 47 12 02  09 00 07 80 80 26 12 B6  .....G.......&..
1220: 0F 14 80 01 44 12 02 09  00 08 80 80 35 12 B6 0F  ....D.......5...
1230: 15 80 01 44 12 02 09 00  09 80 80 44 12 B6 0F 16  ...D.......D....
1240: 80 01 44 12 01 7F 12 02  0B 00 0D 80 80 7F 12 02  ..D.............
1250: 09 00 07 80 80 5E 12 B6  0F 13 80 01 7C 12 02 09  .....^......|...
1260: 00 08 80 80 6D 12 B6 0F  17 80 01 7C 12 02 09 00  ....m......|....
1270: 09 80 80 7C 12 B6 0F 0F  80 01 7C 12 01 7F 12 0B  ...|......|.....
1280: 0B 00 B6 0B 0B 00 0C 00  0D 00 0E 00 0F 00 10 00  ................
1290: 11 00 06 80 06 80 1B 1A  7A 14 02 09 00 06 80 02  ........z.......
12A0: 62 14 02 0B 00 06 80 80  DA 12 02 09 00 07 80 80  b...............
12B0: B9 12 B6 0F 0E 80 01 D7  12 02 09 00 08 80 80 C8  ................
12C0: 12 B6 0F 0F 80 01 D7 12  02 09 00 09 80 80 D7 12  ................
12D0: B6 0F 10 80 01 D7 12 01  62 14 02 0B 00 07 80 80  ........b.......
12E0: 12 13 02 09 00 07 80 80  F1 12 B6 0F 0E 80 01 0F  ................
12F0: 13 02 09 00 08 80 80 00  13 B6 0F 0F 80 01 0F 13  ................
1300: 02 09 00 09 80 80 0F 13  B6 0F 10 80 01 0F 13 01  ................
1310: 62 14 02 0B 00 08 80 80  4A 13 02 09 00 07 80 80  b.......J.......
1320: 29 13 B6 0F 0E 80 01 47  13 02 09 00 08 80 80 38  )......G.......8
1330: 13 B6 0F 0F 80 01 47 13  02 09 00 09 80 80 47 13  ......G.......G.
1340: B6 0F 10 80 01 47 13 01  62 14 02 0B 00 09 80 80  .....G..b.......
1350: 82 13 02 09 00 07 80 80  61 13 B6 0F 0E 80 01 7F  ........a.......
1360: 13 02 09 00 08 80 80 70  13 B6 0F 0F 80 01 7F 13  .......p........
1370: 02 09 00 09 80 80 7F 13  B6 0F 10 80 01 7F 13 01  ................
1380: 62 14 02 0B 00 0A 80 80  BA 13 02 09 00 07 80 80  b...............
1390: 99 13 B6 0F 11 80 01 B7  13 02 09 00 08 80 80 A8  ................
13A0: 13 B6 0F 12 80 01 B7 13  02 09 00 09 80 80 B7 13  ................
13B0: B6 0F 13 80 01 B7 13 01  62 14 02 0B 00 0B 80 80  ........b.......
13C0: F2 13 02 09 00 07 80 80  D1 13 B6 0F 11 80 01 EF  ................
13D0: 13 02 09 00 08 80 80 E0  13 B6 0F 12 80 01 EF 13  ................
13E0: 02 09 00 09 80 80 EF 13  B6 0F 13 80 01 EF 13 01  ................
13F0: 62 14 02 0B 00 0C 80 80  2A 14 02 09 00 07 80 80  b.......*.......
1400: 09 14 B6 0F 14 80 01 27  14 02 09 00 08 80 80 18  .......'........
1410: 14 B6 0F 15 80 01 27 14  02 09 00 09 80 80 27 14  ......'.......'.
1420: B6 0F 16 80 01 27 14 01  62 14 02 0B 00 0D 80 80  .....'..b.......
1430: 62 14 02 09 00 07 80 80  41 14 B6 0F 13 80 01 5F  b.......A......_
1440: 14 02 09 00 08 80 80 50  14 B6 0F 17 80 01 5F 14  .......P......_.
1450: 02 09 00 09 80 80 5F 14  B6 0F 0F 80 01 5F 14 01  ......_......_..
1460: 62 14 0B 0B 00 B6 0B 0B  00 0C 00 0D 00 0E 00 0F  b...............
1470: 00 10 00 11 00 12 00 13  00 1B 1A A9 14 1A 9E 15  ................
1480: 1A 94 15 1A F5 19 1A 0A  1A 1A 2A 1A 1A 4A 1A 1A  ..........*..J..
1490: 6A 1A 1A 97 19 1A B7 19  1A 8A 1A 1A B2 1A 1B 41  j..............A
14A0: 06 80 09 80 09 10 01 00  1B 41 0A 80 0C 80 09 10  .........A......
14B0: 0B 00 03 1E 17 06 80 02  0B 00 06 80 80 C7 14 03  ................
14C0: 1F 17 06 80 01 37 15 02  0B 00 07 80 80 D7 14 03  .....7..........
14D0: 1F 17 07 80 01 37 15 02  0B 00 08 80 80 E7 14 03  .....7..........
14E0: 1F 17 06 80 01 37 15 02  0B 00 09 80 80 F7 14 03  .....7..........
14F0: 1F 17 07 80 01 37 15 02  0B 00 0A 80 80 07 15 03  .....7..........
1500: 1F 17 06 80 01 37 15 02  0B 00 0B 80 80 17 15 03  .....7..........
1510: 1F 17 07 80 01 37 15 02  0B 00 0C 80 80 27 15 03  .....7.......'..
1520: 1F 17 07 80 01 37 15 02  0B 00 0D 80 80 37 15 03  .....7.......7..
1530: 1F 17 06 80 01 37 15 02  1F 17 07 80 00 7F 15 02  .....7..........
1540: 87 7F 08 80 80 4F 15 03  1E 17 07 80 01 7F 15 02  .....O..........
1550: 87 7F 0A 80 80 5F 15 03  1E 17 07 80 01 7F 15 02  ....._..........
1560: 87 7F 0C 80 80 6F 15 03  1E 17 07 80 01 7F 15 02  .....o..........
1570: 87 7F 0D 80 80 7F 15 03  1E 17 07 80 01 7F 15 1B  ................
1580: 41 18 80 19 80 09 10 06  00 1B 41 1A 80 1B 80 09  A.........A.....
1590: 10 08 00 1B 41 1C 80 1D  80 09 10 09 00 1B 1A A9  ....A...........
15A0: 14 1A 80 15 02 06 00 06  80 00 B8 15 41 1E 80 1F  ............A...
15B0: 80 09 10 0C 00 01 F8 18  02 0B 00 06 80 80 20 16  .............. .
15C0: 02 06 00 07 80 80 DF 15  3E 09 10 0D 80 D7 15 03  ........>.......
15D0: 0C 00 1B 80 01 DC 15 03  0C 00 20 80 01 1D 16 02  .......... .....
15E0: 06 00 08 80 80 FE 15 3E  09 10 0D 80 F6 15 03 0C  .......>........
15F0: 00 0B 80 01 FB 15 03 0C  00 0A 80 01 1D 16 02 06  ................
1600: 00 09 80 80 1D 16 3E 09  10 0D 80 15 16 03 0C 00  ......>.........
1610: 07 80 01 1A 16 03 0C 00  06 80 01 1D 16 01 F8 18  ................
1620: 02 0B 00 07 80 80 88 16  02 06 00 07 80 80 47 16  ..............G.
1630: 3E 09 10 0D 80 3F 16 03  0C 00 07 80 01 44 16 03  >....?.......D..
1640: 0C 00 06 80 01 85 16 02  06 00 08 80 80 66 16 3E  .............f.>
1650: 09 10 0D 80 5E 16 03 0C  00 0B 80 01 63 16 03 0C  ....^.......c...
1660: 00 0A 80 01 85 16 02 06  00 09 80 80 85 16 3E 09  ..............>.
1670: 10 0D 80 7D 16 03 0C 00  09 80 01 82 16 03 0C 00  ...}............
1680: 08 80 01 85 16 01 F8 18  02 0B 00 08 80 80 F0 16  ................
1690: 02 06 00 07 80 80 AF 16  3E 09 10 0D 80 A7 16 03  ........>.......
16A0: 0C 00 09 80 01 AC 16 03  0C 00 08 80 01 ED 16 02  ................
16B0: 06 00 08 80 80 CE 16 3E  09 10 0D 80 C6 16 03 0C  .......>........
16C0: 00 03 80 01 CB 16 03 0C  00 21 80 01 ED 16 02 06  .........!......
16D0: 00 09 80 80 ED 16 3E 09  10 0D 80 E5 16 03 0C 00  ......>.........
16E0: 1B 80 01 EA 16 03 0C 00  20 80 01 ED 16 01 F8 18  ........ .......
16F0: 02 0B 00 09 80 80 58 17  02 06 00 07 80 80 17 17  ......X.........
1700: 3E 09 10 0D 80 0F 17 03  0C 00 07 80 01 14 17 03  >...............
1710: 0C 00 06 80 01 55 17 02  06 00 08 80 80 36 17 3E  .....U.......6.>
1720: 09 10 0D 80 2E 17 03 0C  00 22 80 01 33 17 03 0C  ........."..3...
1730: 00 1A 80 01 55 17 02 06  00 09 80 80 55 17 3E 09  ....U.......U.>.
1740: 10 0D 80 4D 17 03 0C 00  0D 80 01 52 17 03 0C 00  ...M.......R....
1750: 0C 80 01 55 17 01 F8 18  02 0B 00 0A 80 80 C0 17  ...U............
1760: 02 06 00 07 80 80 7F 17  3E 09 10 0D 80 77 17 03  ........>....w..
1770: 0C 00 0B 80 01 7C 17 03  0C 00 0A 80 01 BD 17 02  .....|..........
1780: 06 00 08 80 80 9E 17 3E  09 10 0D 80 96 17 03 0C  .......>........
1790: 00 09 80 01 9B 17 03 0C  00 08 80 01 BD 17 02 06  ................
17A0: 00 09 80 80 BD 17 3E 09  10 0D 80 B5 17 03 0C 00  ......>.........
17B0: 0D 80 01 BA 17 03 0C 00  0C 80 01 BD 17 01 F8 18  ................
17C0: 02 0B 00 0B 80 80 28 18  02 06 00 07 80 80 E7 17  ......(.........
17D0: 3E 09 10 0D 80 DF 17 03  0C 00 09 80 01 E4 17 03  >...............
17E0: 0C 00 08 80 01 25 18 02  06 00 08 80 80 06 18 3E  .....%.........>
17F0: 09 10 0D 80 FE 17 03 0C  00 0D 80 01 03 18 03 0C  ................
1800: 00 0C 80 01 25 18 02 06  00 09 80 80 25 18 3E 09  ....%.......%.>.
1810: 10 0D 80 1D 18 03 0C 00  07 80 01 22 18 03 0C 00  ..........."....
1820: 06 80 01 25 18 01 F8 18  02 0B 00 0C 80 80 90 18  ...%............
1830: 02 06 00 07 80 80 4F 18  3E 09 10 0D 80 47 18 03  ......O.>....G..
1840: 0C 00 19 80 01 4C 18 03  0C 00 18 80 01 8D 18 02  .....L..........
1850: 06 00 08 80 80 6E 18 3E  09 10 0D 80 66 18 03 0C  .....n.>....f...
1860: 00 22 80 01 6B 18 03 0C  00 1A 80 01 8D 18 02 06  ."..k...........
1870: 00 09 80 80 8D 18 3E 09  10 0D 80 85 18 03 0C 00  ......>.........
1880: 1B 80 01 8A 18 03 0C 00  20 80 01 8D 18 01 F8 18  ........ .......
1890: 02 0B 00 0D 80 80 F8 18  02 06 00 07 80 80 B7 18  ................
18A0: 3E 09 10 0D 80 AF 18 03  0C 00 0B 80 01 B4 18 03  >...............
18B0: 0C 00 0A 80 01 F5 18 02  06 00 08 80 80 D6 18 3E  ...............>
18C0: 09 10 0D 80 CE 18 03 0C  00 1B 80 01 D3 18 03 0C  ................
18D0: 00 20 80 01 F5 18 02 06  00 09 80 80 F5 18 3E 09  . ............>.
18E0: 10 0D 80 ED 18 03 0C 00  22 80 01 F2 18 03 0C 00  ........".......
18F0: 1A 80 01 F5 18 01 F8 18  1B 40 23 80 24 80 01 10  .........@#.$...
1900: 07 80 43 00 43 01 1B 40  23 80 24 80 01 10 08 80  ..C.C..@#.$.....
1910: 43 00 43 01 1B 40 23 80  24 80 01 10 09 80 43 00  C.C..@#.$.....C.
1920: 43 01 1B 40 23 80 24 80  01 10 0A 80 43 00 43 01  C..@#.$.....C.C.
1930: 1B 40 23 80 24 80 01 10  0B 80 43 00 43 01 1B 40  .@#.$.....C.C..@
1940: 23 80 24 80 01 10 0C 80  43 00 43 01 1B 40 23 80  #.$.....C.C..@#.
1950: 24 80 01 10 0D 80 43 00  43 01 1B 40 23 80 24 80  $.....C.C..@#.$.
1960: 01 10 18 80 43 00 43 01  1B 40 23 80 24 80 01 10  ....C.C..@#.$...
1970: 1A 80 43 00 43 01 1B 1A  A9 14 03 0A 00 0B 00 02  ..C.C...........
1980: 0A 00 0B 80 04 8C 19 08  0A 00 07 80 14 0A 00 1A  ................
1990: 80 07 0A 00 19 80 1B 03  16 00 06 80 03 17 00 06  ................
19A0: 80 41 1E 80 1F 80 08 10  16 00 41 06 80 09 80 07  .A........A.....
19B0: 10 17 00 1A 3D 40 1B 03  16 00 06 80 41 23 80 25  ....=@......A#.%
19C0: 80 08 10 16 00 3E 07 10  1E 80 DB 19 41 06 80 09  .....>......A...
19D0: 80 07 10 17 00 1A 25 46  01 F4 19 41 06 80 09 80  ......%F...A....
19E0: 07 10 17 00 02 17 00 06  80 80 EF 19 01 F4 19 03  ................
19F0: 13 00 06 80 1B 03 16 00  06 80 41 06 80 09 80 08  ..........A.....
1A00: 10 16 00 1A 8A 15 1A 84  2B 1B 03 15 00 06 80 03  ........+.......
1A10: 16 00 06 80 41 0C 80 0D  80 07 10 15 00 41 0A 80  ....A........A..
1A20: 0D 80 08 10 16 00 1A 89  33 1B 03 15 00 06 80 03  ........3.......
1A30: 16 00 06 80 41 18 80 19  80 07 10 15 00 41 18 80  ....A........A..
1A40: 22 80 08 10 16 00 1A B6  36 1B 03 15 00 06 80 03  ".......6.......
1A50: 16 00 06 80 41 1A 80 22  80 07 10 15 00 41 20 80  ....A..".....A .
1A60: 03 80 08 10 16 00 1A E3  39 1B 03 15 00 06 80 03  ........9.......
1A70: 16 00 06 80 41 20 80 1B  80 07 10 15 00 41 26 80  ....A .......A&.
1A80: 1D 80 08 10 16 00 1A 10  3D 1B 41 06 80 09 80 06  ........=.A.....
1A90: 10 14 00 1A A9 14 1A 01  47 41 0A 80 0D 80 06 10  ........GA......
1AA0: 14 00 1A 04 48 41 18 80  22 80 06 10 14 00 1A 4E  ....HA.."......N
1AB0: 48 1B 41 04 80 23 80 07  10 00 00 02 00 00 07 80  H.A..#..........
1AC0: 80 CB 1A 03 12 00 27 80  01 14 1C 02 00 00 08 80  ......'.........
1AD0: 80 DB 1A 03 12 00 28 80  01 14 1C 02 00 00 09 80  ......(.........
1AE0: 80 EB 1A 03 12 00 29 80  01 14 1C 02 00 00 0A 80  ......).........
1AF0: 80 FB 1A 03 12 00 2A 80  01 14 1C 02 00 00 0B 80  ......*.........
1B00: 80 0B 1B 03 12 00 2B 80  01 14 1C 02 00 00 0C 80  ......+.........
1B10: 80 1B 1B 03 12 00 2C 80  01 14 1C 02 00 00 0D 80  ......,.........
1B20: 80 14 1C 41 06 80 0D 80  03 10 00 00 02 00 00 06  ...A............
1B30: 80 80 3C 1B 03 12 00 27  80 01 11 1C 02 00 00 07  ..<....'........
1B40: 80 80 4C 1B 03 12 00 2D  80 01 11 1C 02 00 00 08  ..L....-........
1B50: 80 80 5C 1B 03 12 00 2E  80 01 11 1C 02 00 00 09  ..\.............
1B60: 80 80 6C 1B 03 12 00 2F  80 01 11 1C 02 00 00 0A  ..l..../........
1B70: 80 80 7C 1B 03 12 00 30  80 01 11 1C 02 00 00 0B  ..|....0........
1B80: 80 80 8C 1B 03 12 00 31  80 01 11 1C 02 00 00 0C  .......1........
1B90: 80 80 9C 1B 03 12 00 32  80 01 11 1C 02 00 00 0D  .......2........
1BA0: 80 80 B1 1B 03 12 00 33  80 03 13 00 33 80 01 11  .......3....3...
1BB0: 1C 02 00 00 18 80 80 C1  1B 03 12 00 34 80 01 11  ............4...
1BC0: 1C 02 00 00 19 80 80 D1  1B 03 12 00 35 80 01 11  ............5...
1BD0: 1C 02 00 00 1A 80 80 E1  1B 03 12 00 36 80 01 11  ............6...
1BE0: 1C 02 00 00 22 80 80 F1  1B 03 12 00 37 80 01 11  ....".......7...
1BF0: 1C 02 00 00 20 80 80 01  1C 03 12 00 38 80 01 11  .... .......8...
1C00: 1C 02 00 00 1B 80 80 11  1C 03 12 00 39 80 01 11  ............9...
1C10: 1C 01 14 1C 3E 03 10 18  80 A4 1C 41 19 80 03 80  ....>......A....
1C20: 03 10 00 00 02 00 00 06  80 80 34 1C 03 13 00 3A  ..........4....:
1C30: 80 01 A4 1C 02 00 00 07  80 80 44 1C 03 13 00 3B  ..........D....;
1C40: 80 01 A4 1C 02 00 00 08  80 80 54 1C 03 13 00 3C  ..........T....<
1C50: 80 01 A4 1C 02 00 00 09  80 80 64 1C 03 13 00 3D  ..........d....=
1C60: 80 01 A4 1C 02 00 00 0A  80 80 74 1C 03 13 00 3E  ..........t....>
1C70: 80 01 A4 1C 02 00 00 0B  80 80 84 1C 03 13 00 3F  ...............?
1C80: 80 01 A4 1C 02 00 00 0C  80 80 94 1C 03 13 00 40  ...............@
1C90: 80 01 A4 1C 02 00 00 0D  80 80 A4 1C 03 13 00 41  ...............A
1CA0: 80 01 A4 1C 41 42 80 25  80 07 10 00 00 02 00 00  ....AB.%........
1CB0: 07 80 80 BD 1C 03 0D 00  43 80 01 6C 1E 02 00 00  ........C..l....
1CC0: 08 80 80 CD 1C 03 0D 00  44 80 01 6C 1E 02 00 00  ........D..l....
1CD0: 09 80 80 DD 1C 03 0D 00  45 80 01 6C 1E 02 00 00  ........E..l....
1CE0: 0A 80 80 ED 1C 03 0D 00  46 80 01 6C 1E 02 00 00  ........F..l....
1CF0: 0B 80 80 FD 1C 03 0D 00  47 80 01 6C 1E 02 00 00  ........G..l....
1D00: 0C 80 80 0D 1D 03 0D 00  48 80 01 6C 1E 02 00 00  ........H..l....
1D10: 0D 80 80 6C 1E 41 26 80  1F 80 03 10 00 00 02 00  ...l.A&.........
1D20: 00 06 80 80 A9 1D 02 0B  00 06 80 80 36 1D 03 0D  ............6...
1D30: 00 49 80 01 A6 1D 02 0B  00 07 80 80 46 1D 03 0D  .I..........F...
1D40: 00 2B 80 01 A6 1D 02 0B  00 08 80 80 56 1D 03 0D  .+..........V...
1D50: 00 49 80 01 A6 1D 02 0B  00 09 80 80 66 1D 03 0D  .I..........f...
1D60: 00 2B 80 01 A6 1D 02 0B  00 0A 80 80 76 1D 03 0D  .+..........v...
1D70: 00 49 80 01 A6 1D 02 0B  00 0B 80 80 86 1D 03 0D  .I..............
1D80: 00 2B 80 01 A6 1D 02 0B  00 0C 80 80 96 1D 03 0D  .+..............
1D90: 00 2B 80 01 A6 1D 02 0B  00 0D 80 80 A6 1D 03 0D  .+..............
1DA0: 00 49 80 01 A6 1D 01 69  1E 02 00 00 07 80 80 B9  .I.....i........
1DB0: 1D 03 0D 00 4A 80 01 69  1E 02 00 00 08 80 80 C9  ....J..i........
1DC0: 1D 03 0D 00 4B 80 01 69  1E 02 00 00 09 80 80 D9  ....K..i........
1DD0: 1D 03 0D 00 29 80 01 69  1E 02 00 00 0A 80 80 E9  ....)..i........
1DE0: 1D 03 0D 00 2A 80 01 69  1E 02 00 00 0B 80 80 F9  ....*..i........
1DF0: 1D 03 0D 00 4C 80 01 69  1E 02 00 00 0C 80 80 09  ....L..i........
1E00: 1E 03 0D 00 48 80 01 69  1E 02 00 00 0D 80 80 19  ....H..i........
1E10: 1E 03 0D 00 48 80 01 69  1E 02 00 00 18 80 80 29  ....H..i.......)
1E20: 1E 03 0D 00 4D 80 01 69  1E 02 00 00 19 80 80 39  ....M..i.......9
1E30: 1E 03 0D 00 4E 80 01 69  1E 02 00 00 1A 80 80 49  ....N..i.......I
1E40: 1E 03 0D 00 4F 80 01 69  1E 02 00 00 22 80 80 59  ....O..i...."..Y
1E50: 1E 03 0D 00 50 80 01 69  1E 02 00 00 20 80 80 69  ....P..i.... ..i
1E60: 1E 03 0D 00 51 80 01 69  1E 01 6C 1E 41 52 80 24  ....Q..i..l.AR.$
1E70: 80 07 10 00 00 02 00 00  19 80 80 94 1E 03 0E 00  ................
1E80: 53 80 03 0F 00 53 80 03  10 00 53 80 03 11 00 53  S....S....S....S
1E90: 80 01 83 2B 02 00 00 1A  80 80 97 1F 02 0B 00 06  ...+............
1EA0: 80 80 BB 1E 03 0E 00 54  80 03 0F 00 54 80 03 10  .......T....T...
1EB0: 00 54 80 03 11 00 54 80  01 94 1F 02 0B 00 07 80  .T....T.........
1EC0: 80 DA 1E 03 0E 00 55 80  03 0F 00 55 80 03 10 00  ......U....U....
1ED0: 55 80 03 11 00 55 80 01  94 1F 02 0B 00 08 80 80  U....U..........
1EE0: F9 1E 03 0E 00 54 80 03  0F 00 54 80 03 10 00 54  .....T....T....T
1EF0: 80 03 11 00 54 80 01 94  1F 02 0B 00 09 80 80 18  ....T...........
1F00: 1F 03 0E 00 55 80 03 0F  00 55 80 03 10 00 55 80  ....U....U....U.
1F10: 03 11 00 55 80 01 94 1F  02 0B 00 0A 80 80 37 1F  ...U..........7.
1F20: 03 0E 00 54 80 03 0F 00  54 80 03 10 00 54 80 03  ...T....T....T..
1F30: 11 00 54 80 01 94 1F 02  0B 00 0B 80 80 56 1F 03  ..T..........V..
1F40: 0E 00 55 80 03 0F 00 55  80 03 10 00 55 80 03 11  ..U....U....U...
1F50: 00 55 80 01 94 1F 02 0B  00 0C 80 80 75 1F 03 0E  .U..........u...
1F60: 00 55 80 03 0F 00 55 80  03 10 00 55 80 03 11 00  .U....U....U....
1F70: 55 80 01 94 1F 02 0B 00  0D 80 80 94 1F 03 0E 00  U...............
1F80: 54 80 03 0F 00 54 80 03  10 00 54 80 03 11 00 54  T....T....T....T
1F90: 80 01 94 1F 01 83 2B 02  00 00 22 80 80 9A 20 02  ......+..."... .
1FA0: 0B 00 06 80 80 BE 1F 03  0E 00 49 80 03 0F 00 49  ..........I....I
1FB0: 80 03 10 00 49 80 03 11  00 49 80 01 97 20 02 0B  ....I....I... ..
1FC0: 00 07 80 80 DD 1F 03 0E  00 2B 80 03 0F 00 2B 80  .........+....+.
1FD0: 03 10 00 2B 80 03 11 00  2B 80 01 97 20 02 0B 00  ...+....+... ...
1FE0: 08 80 80 FC 1F 03 0E 00  49 80 03 0F 00 49 80 03  ........I....I..
1FF0: 10 00 49 80 03 11 00 49  80 01 97 20 02 0B 00 09  ..I....I... ....
2000: 80 80 1B 20 03 0E 00 2B  80 03 0F 00 2B 80 03 10  ... ...+....+...
2010: 00 2B 80 03 11 00 2B 80  01 97 20 02 0B 00 0A 80  .+....+... .....
2020: 80 3A 20 03 0E 00 49 80  03 0F 00 49 80 03 10 00  .: ...I....I....
2030: 49 80 03 11 00 49 80 01  97 20 02 0B 00 0B 80 80  I....I... ......
2040: 59 20 03 0E 00 2B 80 03  0F 00 2B 80 03 10 00 2B  Y ...+....+....+
2050: 80 03 11 00 2B 80 01 97  20 02 0B 00 0C 80 80 78  ....+... ......x
2060: 20 03 0E 00 2B 80 03 0F  00 2B 80 03 10 00 2B 80   ...+....+....+.
2070: 03 11 00 2B 80 01 97 20  02 0B 00 0D 80 80 97 20  ...+... ....... 
2080: 03 0E 00 49 80 03 0F 00  49 80 03 10 00 49 80 03  ...I....I....I..
2090: 11 00 49 80 01 97 20 01  83 2B 02 00 00 07 80 80  ..I... ..+......
20A0: 2E 21 02 0B 00 06 80 80  B2 20 03 0E 00 56 80 01  .!....... ...V..
20B0: 22 21 02 0B 00 07 80 80  C2 20 03 0E 00 57 80 01  "!....... ...W..
20C0: 22 21 02 0B 00 08 80 80  D2 20 03 0E 00 56 80 01  "!....... ...V..
20D0: 22 21 02 0B 00 09 80 80  E2 20 03 0E 00 57 80 01  "!....... ...W..
20E0: 22 21 02 0B 00 0A 80 80  F2 20 03 0E 00 56 80 01  "!....... ...V..
20F0: 22 21 02 0B 00 0B 80 80  02 21 03 0E 00 57 80 01  "!.......!...W..
2100: 22 21 02 0B 00 0C 80 80  12 21 03 0E 00 57 80 01  "!.......!...W..
2110: 22 21 02 0B 00 0D 80 80  22 21 03 0E 00 56 80 01  "!......"!...V..
2120: 22 21 1A 2A 1A 1A 4A 1A  1A 6A 1A 01 83 2B 02 00  "!.*..J..j...+..
2130: 00 08 80 80 C2 21 02 0B  00 06 80 80 46 21 03 0E  .....!......F!..
2140: 00 58 80 01 B6 21 02 0B  00 07 80 80 56 21 03 0E  .X...!......V!..
2150: 00 59 80 01 B6 21 02 0B  00 08 80 80 66 21 03 0E  .Y...!......f!..
2160: 00 58 80 01 B6 21 02 0B  00 09 80 80 76 21 03 0E  .X...!......v!..
2170: 00 59 80 01 B6 21 02 0B  00 0A 80 80 86 21 03 0E  .Y...!.......!..
2180: 00 58 80 01 B6 21 02 0B  00 0B 80 80 96 21 03 0E  .X...!.......!..
2190: 00 59 80 01 B6 21 02 0B  00 0C 80 80 A6 21 03 0E  .Y...!.......!..
21A0: 00 59 80 01 B6 21 02 0B  00 0D 80 80 B6 21 03 0E  .Y...!.......!..
21B0: 00 58 80 01 B6 21 1A 2A  1A 1A 4A 1A 1A 6A 1A 01  .X...!.*..J..j..
21C0: 83 2B 02 00 00 0D 80 80  56 22 02 0B 00 06 80 80  .+......V"......
21D0: DA 21 03 0E 00 5A 80 01  4A 22 02 0B 00 07 80 80  .!...Z..J"......
21E0: EA 21 03 0E 00 5B 80 01  4A 22 02 0B 00 08 80 80  .!...[..J"......
21F0: FA 21 03 0E 00 5A 80 01  4A 22 02 0B 00 09 80 80  .!...Z..J"......
2200: 0A 22 03 0E 00 5B 80 01  4A 22 02 0B 00 0A 80 80  ."...[..J"......
2210: 1A 22 03 0E 00 5A 80 01  4A 22 02 0B 00 0B 80 80  ."...Z..J"......
2220: 2A 22 03 0E 00 5B 80 01  4A 22 02 0B 00 0C 80 80  *"...[..J"......
2230: 3A 22 03 0E 00 5B 80 01  4A 22 02 0B 00 0D 80 80  :"...[..J"......
2240: 4A 22 03 0E 00 5A 80 01  4A 22 1A 2A 1A 1A 4A 1A  J"...Z..J".*..J.
2250: 1A 6A 1A 01 83 2B 02 00  00 09 80 80 94 22 02 0B  .j...+......."..
2260: 00 0B 80 00 7D 22 03 0E  00 5C 80 03 0F 00 5C 80  ....}"...\....\.
2270: 03 10 00 5C 80 03 11 00  5C 80 01 91 22 03 0E 00  ...\....\..."...
2280: 5D 80 03 0F 00 5D 80 03  10 00 5D 80 03 11 00 5D  ]....]....]....]
2290: 80 01 83 2B 02 00 00 0A  80 80 D2 22 02 0B 00 0B  ...+......."....
22A0: 80 00 BB 22 03 0E 00 5E  80 03 0F 00 5E 80 03 10  ..."...^....^...
22B0: 00 5E 80 03 11 00 5E 80  01 CF 22 03 0E 00 5F 80  .^....^..."..._.
22C0: 03 0F 00 5F 80 03 10 00  5F 80 03 11 00 5F 80 01  ..._...._...._..
22D0: 83 2B 02 00 00 18 80 80  10 23 02 0B 00 0B 80 00  .+.......#......
22E0: F9 22 03 0E 00 60 80 03  0F 00 60 80 03 10 00 60  ."...`....`....`
22F0: 80 03 11 00 60 80 01 0D  23 03 0E 00 61 80 03 0F  ....`...#...a...
2300: 00 61 80 03 10 00 61 80  03 11 00 61 80 01 83 2B  .a....a....a...+
2310: 02 00 00 20 80 80 13 24  02 0B 00 06 80 80 37 23  ... ...$......7#
2320: 03 0E 00 4B 80 03 0F 00  4B 80 03 10 00 4B 80 03  ...K....K....K..
2330: 11 00 4B 80 01 10 24 02  0B 00 07 80 80 56 23 03  ..K...$......V#.
2340: 0E 00 62 80 03 0F 00 62  80 03 10 00 62 80 03 11  ..b....b....b...
2350: 00 62 80 01 10 24 02 0B  00 08 80 80 75 23 03 0E  .b...$......u#..
2360: 00 4B 80 03 0F 00 4B 80  03 10 00 4B 80 03 11 00  .K....K....K....
2370: 4B 80 01 10 24 02 0B 00  09 80 80 94 23 03 0E 00  K...$.......#...
2380: 62 80 03 0F 00 62 80 03  10 00 62 80 03 11 00 62  b....b....b....b
2390: 80 01 10 24 02 0B 00 0A  80 80 B3 23 03 0E 00 4B  ...$.......#...K
23A0: 80 03 0F 00 4B 80 03 10  00 4B 80 03 11 00 4B 80  ....K....K....K.
23B0: 01 10 24 02 0B 00 0B 80  80 D2 23 03 0E 00 62 80  ..$.......#...b.
23C0: 03 0F 00 62 80 03 10 00  62 80 03 11 00 62 80 01  ...b....b....b..
23D0: 10 24 02 0B 00 0C 80 80  F1 23 03 0E 00 62 80 03  .$.......#...b..
23E0: 0F 00 62 80 03 10 00 62  80 03 11 00 62 80 01 10  ..b....b....b...
23F0: 24 02 0B 00 0D 80 80 10  24 03 0E 00 4B 80 03 0F  $.......$...K...
2400: 00 4B 80 03 10 00 4B 80  03 11 00 4B 80 01 10 24  .K....K....K...$
2410: 01 83 2B 02 00 00 0B 80  80 31 24 03 0D 00 06 80  ..+......1$.....
2420: 03 0E 00 63 80 1A 2A 1A  1A 4A 1A 1A 6A 1A 01 83  ...c..*..J..j...
2430: 2B 02 00 00 0C 80 80 CB  24 03 0E 00 46 80 03 0F  +.......$...F...
2440: 00 48 80 03 11 00 46 80  02 0B 00 06 80 80 58 24  .H....F.......X$
2450: 03 10 00 58 80 01 C8 24  02 0B 00 07 80 80 68 24  ...X...$......h$
2460: 03 10 00 59 80 01 C8 24  02 0B 00 08 80 80 78 24  ...Y...$......x$
2470: 03 10 00 58 80 01 C8 24  02 0B 00 09 80 80 88 24  ...X...$.......$
2480: 03 10 00 59 80 01 C8 24  02 0B 00 0A 80 80 98 24  ...Y...$.......$
2490: 03 10 00 58 80 01 C8 24  02 0B 00 0B 80 80 A8 24  ...X...$.......$
24A0: 03 10 00 59 80 01 C8 24  02 0B 00 0C 80 80 B8 24  ...Y...$.......$
24B0: 03 10 00 59 80 01 C8 24  02 0B 00 0D 80 80 C8 24  ...Y...$.......$
24C0: 03 10 00 58 80 01 C8 24  01 83 2B 02 00 00 1B 80  ...X...$..+.....
24D0: 80 E9 24 03 0D 00 64 80  03 0E 00 64 80 1A 2A 1A  ..$...d....d..*.
24E0: 1A 4A 1A 1A 6A 1A 01 83  2B 02 00 00 21 80 80 07  .J..j...+...!...
24F0: 25 03 0D 00 65 80 03 0E  00 65 80 1A 2A 1A 1A 4A  %...e....e..*..J
2500: 1A 1A 6A 1A 01 83 2B 02  00 00 03 80 80 83 2B 41  ..j...+.......+A
2510: 23 80 24 80 03 10 00 00  02 00 00 06 80 80 36 25  #.$...........6%
2520: 03 0D 00 66 80 03 0E 00  66 80 1A 2A 1A 1A 4A 1A  ...f....f..*..J.
2530: 1A 6A 1A 01 80 2B 02 00  00 07 80 80 5A 25 03 0D  .j...+......Z%..
2540: 00 28 80 03 0E 00 67 80  03 0F 00 67 80 03 10 00  .(....g....g....
2550: 67 80 03 11 00 67 80 01  80 2B 02 00 00 08 80 80  g....g...+......
2560: 7E 25 03 0D 00 68 80 03  0E 00 68 80 03 0F 00 68  ~%...h....h....h
2570: 80 03 10 00 68 80 03 11  00 68 80 01 80 2B 02 00  ....h....h...+..
2580: 00 0C 80 80 A2 25 03 0D  00 69 80 03 0E 00 69 80  .....%...i....i.
2590: 03 0F 00 69 80 03 10 00  69 80 03 11 00 69 80 01  ...i....i....i..
25A0: 80 2B 02 00 00 0D 80 80  A5 26 02 0B 00 06 80 80  .+.......&......
25B0: C9 25 03 0E 00 6A 80 03  0F 00 6A 80 03 10 00 6A  .%...j....j....j
25C0: 80 03 11 00 6A 80 01 A2  26 02 0B 00 07 80 80 E8  ....j...&.......
25D0: 25 03 0E 00 6B 80 03 0F  00 6B 80 03 10 00 6B 80  %...k....k....k.
25E0: 03 11 00 6B 80 01 A2 26  02 0B 00 08 80 80 07 26  ...k...&.......&
25F0: 03 0E 00 6A 80 03 0F 00  6A 80 03 10 00 6A 80 03  ...j....j....j..
2600: 11 00 6A 80 01 A2 26 02  0B 00 09 80 80 26 26 03  ..j...&......&&.
2610: 0E 00 6B 80 03 0F 00 6B  80 03 10 00 6B 80 03 11  ..k....k....k...
2620: 00 6B 80 01 A2 26 02 0B  00 0A 80 80 45 26 03 0E  .k...&......E&..
2630: 00 6A 80 03 0F 00 6A 80  03 10 00 6A 80 03 11 00  .j....j....j....
2640: 6A 80 01 A2 26 02 0B 00  0B 80 80 64 26 03 0E 00  j...&......d&...
2650: 6B 80 03 0F 00 6B 80 03  10 00 6B 80 03 11 00 6B  k....k....k....k
2660: 80 01 A2 26 02 0B 00 0C  80 80 83 26 03 0E 00 6B  ...&.......&...k
2670: 80 03 0F 00 6B 80 03 10  00 6B 80 03 11 00 6B 80  ....k....k....k.
2680: 01 A2 26 02 0B 00 0D 80  80 A2 26 03 0E 00 6A 80  ..&.......&...j.
2690: 03 0F 00 6A 80 03 10 00  6A 80 03 11 00 6A 80 01  ...j....j....j..
26A0: A2 26 01 80 2B 02 00 00  09 80 80 5E 27 02 0B 00  .&..+......^'...
26B0: 06 80 80 C2 26 03 0E 00  29 80 03 10 00 29 80 01  ....&...)....)..
26C0: 55 27 02 0B 00 07 80 80  D7 26 03 0E 00 2A 80 03  U'.......&...*..
26D0: 10 00 2A 80 01 55 27 02  0B 00 08 80 80 EC 26 03  ..*..U'.......&.
26E0: 0E 00 29 80 03 10 00 29  80 01 55 27 02 0B 00 09  ..)....)..U'....
26F0: 80 80 01 27 03 0E 00 2A  80 03 10 00 2A 80 01 55  ...'...*....*..U
2700: 27 02 0B 00 0A 80 80 16  27 03 0E 00 29 80 03 10  '.......'...)...
2710: 00 29 80 01 55 27 02 0B  00 0B 80 80 2B 27 03 0E  .)..U'......+'..
2720: 00 2A 80 03 10 00 2A 80  01 55 27 02 0B 00 0C 80  .*....*..U'.....
2730: 80 40 27 03 0E 00 2A 80  03 10 00 2A 80 01 55 27  .@'...*....*..U'
2740: 02 0B 00 0D 80 80 55 27  03 0E 00 29 80 03 10 00  ......U'...)....
2750: 29 80 01 55 27 1A 2A 1A  1A 6A 1A 01 80 2B 02 00  )..U'.*..j...+..
2760: 00 0A 80 80 82 27 03 0D  00 6C 80 03 0E 00 6C 80  .....'...l....l.
2770: 03 0F 00 6C 80 03 10 00  6C 80 03 11 00 6C 80 01  ...l....l....l..
2780: 80 2B 02 00 00 0B 80 80  9B 27 03 0E 00 6D 80 1A  .+.......'...m..
2790: 2A 1A 1A 4A 1A 1A 6A 1A  01 80 2B 02 00 00 18 80  *..J..j...+.....
27A0: 80 C6 28 02 0B 00 06 80  80 C7 27 03 0D 00 6E 80  ..(.......'...n.
27B0: 03 0E 00 6E 80 03 0F 00  6E 80 03 10 00 6E 80 03  ...n....n....n..
27C0: 11 00 6E 80 01 C3 28 02  0B 00 07 80 80 EB 27 03  ..n...(.......'.
27D0: 0D 00 6F 80 03 0E 00 6F  80 03 0F 00 6F 80 03 10  ..o....o....o...
27E0: 00 6F 80 03 11 00 6F 80  01 C3 28 02 0B 00 08 80  .o....o...(.....
27F0: 80 0F 28 03 0D 00 6E 80  03 0E 00 6E 80 03 0F 00  ..(...n....n....
2800: 6E 80 03 10 00 6E 80 03  11 00 6E 80 01 C3 28 02  n....n....n...(.
2810: 0B 00 09 80 80 33 28 03  0D 00 6F 80 03 0E 00 6F  .....3(...o....o
2820: 80 03 0F 00 6F 80 03 10  00 6F 80 03 11 00 6F 80  ....o....o....o.
2830: 01 C3 28 02 0B 00 0A 80  80 57 28 03 0D 00 6E 80  ..(......W(...n.
2840: 03 0E 00 6E 80 03 0F 00  6E 80 03 10 00 6E 80 03  ...n....n....n..
2850: 11 00 6E 80 01 C3 28 02  0B 00 0B 80 80 7B 28 03  ..n...(......{(.
2860: 0D 00 6F 80 03 0E 00 6F  80 03 0F 00 6F 80 03 10  ..o....o....o...
2870: 00 6F 80 03 11 00 6F 80  01 C3 28 02 0B 00 0C 80  .o....o...(.....
2880: 80 9F 28 03 0D 00 6F 80  03 0E 00 6F 80 03 0F 00  ..(...o....o....
2890: 6F 80 03 10 00 6F 80 03  11 00 6F 80 01 C3 28 02  o....o....o...(.
28A0: 0B 00 0D 80 80 C3 28 03  0D 00 6E 80 03 0E 00 6E  ......(...n....n
28B0: 80 03 0F 00 6E 80 03 10  00 6E 80 03 11 00 6E 80  ....n....n....n.
28C0: 01 C3 28 01 80 2B 02 00  00 19 80 80 E6 28 03 0D  ..(..+.......(..
28D0: 00 70 80 03 0E 00 70 80  03 0F 00 70 80 1A 4A 1A  .p....p....p..J.
28E0: 1A 6A 1A 01 80 2B 02 00  00 1A 80 80 0A 29 03 0D  .j...+.......)..
28F0: 00 71 80 03 0E 00 71 80  03 0F 00 71 80 03 10 00  .q....q....q....
2900: 71 80 03 11 00 71 80 01  80 2B 02 00 00 22 80 80  q....q...+..."..
2910: 23 29 03 0E 00 72 80 1A  2A 1A 1A 4A 1A 1A 6A 1A  #)...r..*..J..j.
2920: 01 80 2B 02 00 00 20 80  80 3C 29 03 0E 00 73 80  ..+... ..<)...s.
2930: 1A 2A 1A 1A 4A 1A 1A 6A  1A 01 80 2B 02 00 00 1B  .*..J..j...+....
2940: 80 80 60 29 03 0D 00 2C  80 03 0E 00 2C 80 03 0F  ..`)...,....,...
2950: 00 2C 80 03 10 00 2C 80  03 11 00 2C 80 01 80 2B  .,....,....,...+
2960: 02 00 00 21 80 80 79 29  03 0E 00 74 80 1A 2A 1A  ...!..y)...t..*.
2970: 1A 4A 1A 1A 6A 1A 01 80  2B 02 00 00 03 80 80 92  .J..j...+.......
2980: 29 03 0E 00 75 80 1A 2A  1A 1A 4A 1A 1A 6A 1A 01  )...u..*..J..j..
2990: 80 2B 02 00 00 26 80 80  AB 29 03 0E 00 76 80 1A  .+...&...)...v..
29A0: 2A 1A 1A 4A 1A 1A 6A 1A  01 80 2B 02 00 00 77 80  *..J..j...+...w.
29B0: 80 C4 29 03 0E 00 78 80  1A 2A 1A 1A 4A 1A 1A 6A  ..)...x..*..J..j
29C0: 1A 01 80 2B 02 00 00 1C  80 80 7D 2A 02 0B 00 06  ...+......}*....
29D0: 80 80 E1 29 03 0E 00 79  80 03 10 00 29 80 01 74  ...)...y....)..t
29E0: 2A 02 0B 00 07 80 80 F6  29 03 0E 00 7A 80 03 10  *.......)...z...
29F0: 00 2A 80 01 74 2A 02 0B  00 08 80 80 0B 2A 03 0E  .*..t*.......*..
2A00: 00 79 80 03 10 00 29 80  01 74 2A 02 0B 00 09 80  .y....)..t*.....
2A10: 80 20 2A 03 0E 00 7A 80  03 10 00 2A 80 01 74 2A  . *...z....*..t*
2A20: 02 0B 00 0A 80 80 35 2A  03 0E 00 79 80 03 10 00  ......5*...y....
2A30: 29 80 01 74 2A 02 0B 00  0B 80 80 4A 2A 03 0E 00  )..t*......J*...
2A40: 7A 80 03 10 00 2A 80 01  74 2A 02 0B 00 0C 80 80  z....*..t*......
2A50: 5F 2A 03 0E 00 7A 80 03  10 00 2A 80 01 74 2A 02  _*...z....*..t*.
2A60: 0B 00 0D 80 80 74 2A 03  0E 00 79 80 03 10 00 29  .....t*...y....)
2A70: 80 01 74 2A 1A 2A 1A 1A  6A 1A 01 80 2B 02 00 00  ..t*.*..j...+...
2A80: 1D 80 80 80 2B 02 0B 00  06 80 80 A4 2A 03 0E 00  ....+.......*...
2A90: 7B 80 03 0F 00 7B 80 03  10 00 7B 80 03 11 00 7B  {....{....{....{
2AA0: 80 01 7D 2B 02 0B 00 07  80 80 C3 2A 03 0E 00 7C  ..}+.......*...|
2AB0: 80 03 0F 00 7C 80 03 10  00 7C 80 03 11 00 7C 80  ....|....|....|.
2AC0: 01 7D 2B 02 0B 00 08 80  80 E2 2A 03 0E 00 7B 80  .}+.......*...{.
2AD0: 03 0F 00 7B 80 03 10 00  7B 80 03 11 00 7B 80 01  ...{....{....{..
2AE0: 7D 2B 02 0B 00 09 80 80  01 2B 03 0E 00 7C 80 03  }+.......+...|..
2AF0: 0F 00 7C 80 03 10 00 7C  80 03 11 00 7C 80 01 7D  ..|....|....|..}
2B00: 2B 02 0B 00 0A 80 80 20  2B 03 0E 00 7B 80 03 0F  +...... +...{...
2B10: 00 7B 80 03 10 00 7B 80  03 11 00 7B 80 01 7D 2B  .{....{....{..}+
2B20: 02 0B 00 0B 80 80 3F 2B  03 0E 00 7C 80 03 0F 00  ......?+...|....
2B30: 7C 80 03 10 00 7C 80 03  11 00 7C 80 01 7D 2B 02  |....|....|..}+.
2B40: 0B 00 0C 80 80 5E 2B 03  0E 00 7C 80 03 0F 00 7C  .....^+...|....|
2B50: 80 03 10 00 7C 80 03 11  00 7C 80 01 7D 2B 02 0B  ....|....|..}+..
2B60: 00 0D 80 80 7D 2B 03 0E  00 7B 80 03 0F 00 7B 80  ....}+...{....{.
2B70: 03 10 00 7B 80 03 11 00  7B 80 01 7D 2B 01 80 2B  ...{....{..}+..+
2B80: 01 83 2B 1B 02 08 00 07  80 80 2F 2C 02 16 00 06  ..+......./,....
2B90: 80 80 9C 2B 03 0D 00 06  80 01 2C 2C 02 16 00 07  ...+......,,....
2BA0: 80 80 AC 2B 03 0D 00 07  80 01 2C 2C 02 16 00 08  ...+......,,....
2BB0: 80 80 BC 2B 03 0D 00 7D  80 01 2C 2C 02 16 00 09  ...+...}..,,....
2BC0: 80 80 CC 2B 03 0D 00 7E  80 01 2C 2C 02 16 00 0A  ...+...~..,,....
2BD0: 80 80 DC 2B 03 0D 00 0B  80 01 2C 2C 02 16 00 0B  ...+......,,....
2BE0: 80 80 EC 2B 03 0D 00 7F  80 01 2C 2C 02 16 00 0C  ...+......,,....
2BF0: 80 80 FC 2B 03 0D 00 0D  80 01 2C 2C 02 16 00 0D  ...+......,,....
2C00: 80 80 0C 2C 03 0D 00 17  80 01 2C 2C 02 16 00 18  ...,......,,....
2C10: 80 80 1C 2C 03 0D 00 80  80 01 2C 2C 02 16 00 19  ...,......,,....
2C20: 80 80 2C 2C 03 0D 00 81  80 01 2C 2C 01 88 33 02  ..,,......,,..3.
2C30: 08 00 08 80 80 DA 2C 02  16 00 06 80 80 47 2C 03  ......,......G,.
2C40: 0D 00 06 80 01 D7 2C 02  16 00 07 80 80 57 2C 03  ......,......W,.
2C50: 0D 00 77 80 01 D7 2C 02  16 00 08 80 80 67 2C 03  ..w...,......g,.
2C60: 0D 00 08 80 01 D7 2C 02  16 00 09 80 80 77 2C 03  ......,......w,.
2C70: 0D 00 19 80 01 D7 2C 02  16 00 0A 80 80 87 2C 03  ......,.......,.
2C80: 0D 00 82 80 01 D7 2C 02  16 00 0B 80 80 97 2C 03  ......,.......,.
2C90: 0D 00 7E 80 01 D7 2C 02  16 00 0C 80 80 A7 2C 03  ..~...,.......,.
2CA0: 0D 00 1F 80 01 D7 2C 02  16 00 0D 80 80 B7 2C 03  ......,.......,.
2CB0: 0D 00 83 80 01 D7 2C 02  16 00 18 80 80 C7 2C 03  ......,.......,.
2CC0: 0D 00 84 80 01 D7 2C 02  16 00 19 80 80 D7 2C 03  ......,.......,.
2CD0: 0D 00 85 80 01 D7 2C 01  88 33 02 08 00 09 80 80  ......,..3......
2CE0: 85 2D 02 16 00 06 80 80  F2 2C 03 0D 00 06 80 01  .-.......,......
2CF0: 82 2D 02 16 00 07 80 80  02 2D 03 0D 00 0B 80 01  .-.......-......
2D00: 82 2D 02 16 00 08 80 80  12 2D 03 0D 00 26 80 01  .-.......-...&..
2D10: 82 2D 02 16 00 09 80 80  22 2D 03 0D 00 25 80 01  .-......"-...%..
2D20: 82 2D 02 16 00 0A 80 80  32 2D 03 0D 00 86 80 01  .-......2-......
2D30: 82 2D 02 16 00 0B 80 80  42 2D 03 0D 00 84 80 01  .-......B-......
2D40: 82 2D 02 16 00 0C 80 80  52 2D 03 0D 00 87 80 01  .-......R-......
2D50: 82 2D 02 16 00 0D 80 80  62 2D 03 0D 00 88 80 01  .-......b-......
2D60: 82 2D 02 16 00 18 80 80  72 2D 03 0D 00 89 80 01  .-......r-......
2D70: 82 2D 02 16 00 19 80 80  82 2D 03 0D 00 8A 80 01  .-.......-......
2D80: 82 2D 01 88 33 02 08 00  0A 80 80 30 2E 02 16 00  .-..3......0....
2D90: 06 80 80 9D 2D 03 0D 00  06 80 01 2D 2E 02 16 00  ....-......-....
2DA0: 07 80 80 AD 2D 03 0D 00  52 80 01 2D 2E 02 16 00  ....-...R..-....
2DB0: 08 80 80 BD 2D 03 0D 00  1C 80 01 2D 2E 02 16 00  ....-......-....
2DC0: 09 80 80 CD 2D 03 0D 00  8B 80 01 2D 2E 02 16 00  ....-......-....
2DD0: 0A 80 80 DD 2D 03 0D 00  8C 80 01 2D 2E 02 16 00  ....-......-....
2DE0: 0B 80 80 ED 2D 03 0D 00  20 80 01 2D 2E 02 16 00  ....-... ..-....
2DF0: 0C 80 80 FD 2D 03 0D 00  8D 80 01 2D 2E 02 16 00  ....-......-....
2E00: 0D 80 80 0D 2E 03 0D 00  0B 80 01 2D 2E 02 16 00  ...........-....
2E10: 18 80 80 1D 2E 03 0D 00  23 80 01 2D 2E 02 16 00  ........#..-....
2E20: 19 80 80 2D 2E 03 0D 00  8E 80 01 2D 2E 01 88 33  ...-.......-...3
2E30: 02 08 00 0B 80 80 DB 2E  02 16 00 06 80 80 48 2E  ..............H.
2E40: 03 0D 00 06 80 01 D8 2E  02 16 00 07 80 80 58 2E  ..............X.
2E50: 03 0D 00 1E 80 01 D8 2E  02 16 00 08 80 80 68 2E  ..............h.
2E60: 03 0D 00 7E 80 01 D8 2E  02 16 00 09 80 80 78 2E  ...~..........x.
2E70: 03 0D 00 8F 80 01 D8 2E  02 16 00 0A 80 80 88 2E  ................
2E80: 03 0D 00 1D 80 01 D8 2E  02 16 00 0B 80 80 98 2E  ................
2E90: 03 0D 00 1F 80 01 D8 2E  02 16 00 0C 80 80 A8 2E  ................
2EA0: 03 0D 00 0B 80 01 D8 2E  02 16 00 0D 80 80 B8 2E  ................
2EB0: 03 0D 00 1B 80 01 D8 2E  02 16 00 18 80 80 C8 2E  ................
2EC0: 03 0D 00 90 80 01 D8 2E  02 16 00 19 80 80 D8 2E  ................
2ED0: 03 0D 00 8A 80 01 D8 2E  01 88 33 02 08 00 0C 80  ..........3.....
2EE0: 80 86 2F 02 16 00 06 80  80 F3 2E 03 0D 00 06 80  ../.............
2EF0: 01 83 2F 02 16 00 07 80  80 03 2F 03 0D 00 91 80  ../......./.....
2F00: 01 83 2F 02 16 00 08 80  80 13 2F 03 0D 00 04 80  ../......./.....
2F10: 01 83 2F 02 16 00 09 80  80 23 2F 03 0D 00 82 80  ../......#/.....
2F20: 01 83 2F 02 16 00 0A 80  80 33 2F 03 0D 00 92 80  ../......3/.....
2F30: 01 83 2F 02 16 00 0B 80  80 43 2F 03 0D 00 8F 80  ../......C/.....
2F40: 01 83 2F 02 16 00 0C 80  80 53 2F 03 0D 00 93 80  ../......S/.....
2F50: 01 83 2F 02 16 00 0D 80  80 63 2F 03 0D 00 1C 80  ../......c/.....
2F60: 01 83 2F 02 16 00 18 80  80 73 2F 03 0D 00 0A 80  ../......s/.....
2F70: 01 83 2F 02 16 00 19 80  80 83 2F 03 0D 00 8E 80  ../......./.....
2F80: 01 83 2F 01 88 33 02 08  00 0D 80 80 31 30 02 16  ../..3......10..
2F90: 00 06 80 80 9E 2F 03 0D  00 06 80 01 2E 30 02 16  ...../.......0..
2FA0: 00 07 80 80 AE 2F 03 0D  00 94 80 01 2E 30 02 16  ...../.......0..
2FB0: 00 08 80 80 BE 2F 03 0D  00 1D 80 01 2E 30 02 16  ...../.......0..
2FC0: 00 09 80 80 CE 2F 03 0D  00 1E 80 01 2E 30 02 16  ...../.......0..
2FD0: 00 0A 80 80 DE 2F 03 0D  00 8B 80 01 2E 30 02 16  ...../.......0..
2FE0: 00 0B 80 80 EE 2F 03 0D  00 1B 80 01 2E 30 02 16  ...../.......0..
2FF0: 00 0C 80 80 FE 2F 03 0D  00 7E 80 01 2E 30 02 16  ...../...~...0..
3000: 00 0D 80 80 0E 30 03 0D  00 04 80 01 2E 30 02 16  .....0.......0..
3010: 00 18 80 80 1E 30 03 0D  00 95 80 01 2E 30 02 16  .....0.......0..
3020: 00 19 80 80 2E 30 03 0D  00 8A 80 01 2E 30 01 88  .....0.......0..
3030: 33 02 08 00 18 80 80 DC  30 02 16 00 06 80 80 49  3.......0......I
3040: 30 03 0D 00 06 80 01 D9  30 02 16 00 07 80 80 59  0.......0......Y
3050: 30 03 0D 00 96 80 01 D9  30 02 16 00 08 80 80 69  0.......0......i
3060: 30 03 0D 00 03 80 01 D9  30 02 16 00 09 80 80 79  0.......0......y
3070: 30 03 0D 00 1C 80 01 D9  30 02 16 00 0A 80 80 89  0.......0.......
3080: 30 03 0D 00 7E 80 01 D9  30 02 16 00 0B 80 80 99  0...~...0.......
3090: 30 03 0D 00 1E 80 01 D9  30 02 16 00 0C 80 80 A9  0.......0.......
30A0: 30 03 0D 00 8B 80 01 D9  30 02 16 00 0D 80 80 B9  0.......0.......
30B0: 30 03 0D 00 0D 80 01 D9  30 02 16 00 18 80 80 C9  0.......0.......
30C0: 30 03 0D 00 1D 80 01 D9  30 02 16 00 19 80 80 D9  0.......0.......
30D0: 30 03 0D 00 85 80 01 D9  30 01 88 33 02 08 00 19  0.......0..3....
30E0: 80 80 87 31 02 16 00 06  80 80 F4 30 03 0D 00 06  ...1.......0....
30F0: 80 01 84 31 02 16 00 07  80 80 04 31 03 0D 00 03  ...1.......1....
3100: 80 01 84 31 02 16 00 08  80 80 14 31 03 0D 00 52  ...1.......1...R
3110: 80 01 84 31 02 16 00 09  80 80 24 31 03 0D 00 8C  ...1......$1....
3120: 80 01 84 31 02 16 00 0A  80 80 34 31 03 0D 00 1C  ...1......41....
3130: 80 01 84 31 02 16 00 0B  80 80 44 31 03 0D 00 8B  ...1......D1....
3140: 80 01 84 31 02 16 00 0C  80 80 54 31 03 0D 00 97  ...1......T1....
3150: 80 01 84 31 02 16 00 0D  80 80 64 31 03 0D 00 20  ...1......d1... 
3160: 80 01 84 31 02 16 00 18  80 80 74 31 03 0D 00 98  ...1......t1....
3170: 80 01 84 31 02 16 00 19  80 80 84 31 03 0D 00 8E  ...1.......1....
3180: 80 01 84 31 01 88 33 02  08 00 1A 80 80 32 32 02  ...1..3......22.
3190: 16 00 06 80 80 9F 31 03  0D 00 06 80 01 2F 32 02  ......1....../2.
31A0: 16 00 07 80 80 AF 31 03  0D 00 0C 80 01 2F 32 02  ......1....../2.
31B0: 16 00 08 80 80 BF 31 03  0D 00 91 80 01 2F 32 02  ......1....../2.
31C0: 16 00 09 80 80 CF 31 03  0D 00 8B 80 01 2F 32 02  ......1....../2.
31D0: 16 00 0A 80 80 DF 31 03  0D 00 7E 80 01 2F 32 02  ......1...~../2.
31E0: 16 00 0B 80 80 EF 31 03  0D 00 0A 80 01 2F 32 02  ......1....../2.
31F0: 16 00 0C 80 80 FF 31 03  0D 00 1C 80 01 2F 32 02  ......1....../2.
3200: 16 00 0D 80 80 0F 32 03  0D 00 92 80 01 2F 32 02  ......2....../2.
3210: 16 00 18 80 80 1F 32 03  0D 00 99 80 01 2F 32 02  ......2....../2.
3220: 16 00 19 80 80 2F 32 03  0D 00 85 80 01 2F 32 01  ...../2....../2.
3230: 88 33 02 08 00 22 80 80  DD 32 02 16 00 06 80 80  .3..."...2......
3240: 4A 32 03 0D 00 06 80 01  DA 32 02 16 00 07 80 80  J2.......2......
3250: 5A 32 03 0D 00 7E 80 01  DA 32 02 16 00 08 80 80  Z2...~...2......
3260: 6A 32 03 0D 00 8C 80 01  DA 32 02 16 00 09 80 80  j2.......2......
3270: 7A 32 03 0D 00 0B 80 01  DA 32 02 16 00 0A 80 80  z2.......2......
3280: 8A 32 03 0D 00 88 80 01  DA 32 02 16 00 0B 80 80  .2.......2......
3290: 9A 32 03 0D 00 8F 80 01  DA 32 02 16 00 0C 80 80  .2.......2......
32A0: AA 32 03 0D 00 95 80 01  DA 32 02 16 00 0D 80 80  .2.......2......
32B0: BA 32 03 0D 00 25 80 01  DA 32 02 16 00 18 80 80  .2...%...2......
32C0: CA 32 03 0D 00 9A 80 01  DA 32 02 16 00 19 80 80  .2.......2......
32D0: DA 32 03 0D 00 81 80 01  DA 32 01 88 33 02 08 00  .2.......2..3...
32E0: 20 80 80 88 33 02 16 00  06 80 80 F5 32 03 0D 00   ...3.......2...
32F0: 06 80 01 85 33 02 16 00  07 80 80 05 33 03 0D 00  ....3.......3...
3300: 21 80 01 85 33 02 16 00  08 80 80 15 33 03 0D 00  !...3.......3...
3310: 20 80 01 85 33 02 16 00  09 80 80 25 33 03 0D 00   ...3......%3...
3320: 26 80 01 85 33 02 16 00  0A 80 80 35 33 03 0D 00  &...3......53...
3330: 0A 80 01 85 33 02 16 00  0B 80 80 45 33 03 0D 00  ....3......E3...
3340: 87 80 01 85 33 02 16 00  0C 80 80 55 33 03 0D 00  ....3......U3...
3350: 23 80 01 85 33 02 16 00  0D 80 80 65 33 03 0D 00  #...3......e3...
3360: 9B 80 01 85 33 02 16 00  18 80 80 75 33 03 0D 00  ....3......u3...
3370: 9C 80 01 85 33 02 16 00  19 80 80 85 33 03 0D 00  ....3.......3...
3380: 81 80 01 85 33 01 88 33  1B 02 15 00 06 80 80 54  ....3..3.......T
3390: 34 02 16 00 06 80 80 A1  33 03 0E 00 52 80 01 51  4.......3...R..Q
33A0: 34 02 16 00 07 80 80 B1  33 03 0E 00 08 80 01 51  4.......3......Q
33B0: 34 02 16 00 08 80 80 C1  33 03 0E 00 7F 80 01 51  4.......3......Q
33C0: 34 02 16 00 09 80 80 D1  33 03 0E 00 9D 80 01 51  4.......3......Q
33D0: 34 02 16 00 0A 80 80 E1  33 03 0E 00 86 80 01 51  4.......3......Q
33E0: 34 02 16 00 0B 80 80 F1  33 03 0E 00 42 80 01 51  4.......3...B..Q
33F0: 34 02 16 00 0C 80 80 01  34 03 0E 00 19 80 01 51  4.......4......Q
3400: 34 02 16 00 0D 80 80 11  34 03 0E 00 84 80 01 51  4.......4......Q
3410: 34 02 16 00 18 80 80 21  34 03 0E 00 89 80 01 51  4......!4......Q
3420: 34 02 16 00 19 80 80 31  34 03 0E 00 9C 80 01 51  4......14......Q
3430: 34 02 16 00 1A 80 80 41  34 03 0E 00 9E 80 01 51  4......A4......Q
3440: 34 02 16 00 22 80 80 51  34 03 0E 00 9B 80 01 51  4..."..Q4......Q
3450: 34 01 B5 36 02 15 00 07  80 80 1F 35 02 16 00 06  4..6.......5....
3460: 80 80 6C 34 03 0E 00 0C  80 01 1C 35 02 16 00 07  ..l4.......5....
3470: 80 80 7C 34 03 0E 00 0B  80 01 1C 35 02 16 00 08  ..|4.......5....
3480: 80 80 8C 34 03 0E 00 7D  80 01 1C 35 02 16 00 09  ...4...}...5....
3490: 80 80 9C 34 03 0E 00 77  80 01 1C 35 02 16 00 0A  ...4...w...5....
34A0: 80 80 AC 34 03 0E 00 8C  80 01 1C 35 02 16 00 0B  ...4.......5....
34B0: 80 80 BC 34 03 0E 00 20  80 01 1C 35 02 16 00 0C  ...4... ...5....
34C0: 80 80 CC 34 03 0E 00 0D  80 01 1C 35 02 16 00 0D  ...4.......5....
34D0: 80 80 DC 34 03 0E 00 0A  80 01 1C 35 02 16 00 18  ...4.......5....
34E0: 80 80 EC 34 03 0E 00 1B  80 01 1C 35 02 16 00 19  ...4.......5....
34F0: 80 80 FC 34 03 0E 00 25  80 01 1C 35 02 16 00 1A  ...4...%...5....
3500: 80 80 0C 35 03 0E 00 88  80 01 1C 35 02 16 00 22  ...5.......5..."
3510: 80 80 1C 35 03 0E 00 9A  80 01 1C 35 01 B5 36 02  ...5.......5..6.
3520: 15 00 08 80 80 EA 35 02  16 00 06 80 80 37 35 03  ......5......75.
3530: 0E 00 04 80 01 E7 35 02  16 00 07 80 80 47 35 03  ......5......G5.
3540: 0E 00 7E 80 01 E7 35 02  16 00 08 80 80 57 35 03  ..~...5......W5.
3550: 0E 00 94 80 01 E7 35 02  16 00 09 80 80 67 35 03  ......5......g5.
3560: 0E 00 1F 80 01 E7 35 02  16 00 0A 80 80 77 35 03  ......5......w5.
3570: 0E 00 1C 80 01 E7 35 02  16 00 0B 80 80 87 35 03  ......5.......5.
3580: 0E 00 16 80 01 E7 35 02  16 00 0C 80 80 97 35 03  ......5.......5.
3590: 0E 00 1D 80 01 E7 35 02  16 00 0D 80 80 A7 35 03  ......5.......5.
35A0: 0E 00 9F 80 01 E7 35 02  16 00 18 80 80 B7 35 03  ......5.......5.
35B0: 0E 00 80 80 01 E7 35 02  16 00 19 80 80 C7 35 03  ......5.......5.
35C0: 0E 00 90 80 01 E7 35 02  16 00 1A 80 80 D7 35 03  ......5.......5.
35D0: 0E 00 98 80 01 E7 35 02  16 00 22 80 80 E7 35 03  ......5..."...5.
35E0: 0E 00 47 80 01 E7 35 01  B5 36 02 15 00 09 80 80  ..G...5..6......
35F0: B5 36 02 16 00 06 80 80  02 36 03 0E 00 18 80 01  .6.......6......
3600: B2 36 02 16 00 07 80 80  12 36 03 0E 00 A0 80 01  .6.......6......
3610: B2 36 02 16 00 08 80 80  22 36 03 0E 00 03 80 01  .6......"6......
3620: B2 36 02 16 00 09 80 80  32 36 03 0E 00 24 80 01  .6......26...$..
3630: B2 36 02 16 00 0A 80 80  42 36 03 0E 00 A1 80 01  .6......B6......
3640: B2 36 02 16 00 0B 80 80  52 36 03 0E 00 96 80 01  .6......R6......
3650: B2 36 02 16 00 0C 80 80  62 36 03 0E 00 A2 80 01  .6......b6......
3660: B2 36 02 16 00 0D 80 80  72 36 03 0E 00 92 80 01  .6......r6......
3670: B2 36 02 16 00 18 80 80  82 36 03 0E 00 97 80 01  .6.......6......
3680: B2 36 02 16 00 19 80 80  92 36 03 0E 00 8D 80 01  .6.......6......
3690: B2 36 02 16 00 1A 80 80  A2 36 03 0E 00 99 80 01  .6.......6......
36A0: B2 36 02 16 00 22 80 80  B2 36 03 0E 00 A3 80 01  .6..."...6......
36B0: B2 36 01 B5 36 1B 02 15  00 06 80 80 81 37 02 16  .6..6........7..
36C0: 00 06 80 80 CE 36 03 0F  00 52 80 01 7E 37 02 16  .....6...R..~7..
36D0: 00 07 80 80 DE 36 03 0F  00 08 80 01 7E 37 02 16  .....6......~7..
36E0: 00 08 80 80 EE 36 03 0F  00 7F 80 01 7E 37 02 16  .....6......~7..
36F0: 00 09 80 80 FE 36 03 0F  00 9D 80 01 7E 37 02 16  .....6......~7..
3700: 00 0A 80 80 0E 37 03 0F  00 86 80 01 7E 37 02 16  .....7......~7..
3710: 00 0B 80 80 1E 37 03 0F  00 42 80 01 7E 37 02 16  .....7...B..~7..
3720: 00 0C 80 80 2E 37 03 0F  00 19 80 01 7E 37 02 16  .....7......~7..
3730: 00 0D 80 80 3E 37 03 0F  00 84 80 01 7E 37 02 16  ....>7......~7..
3740: 00 18 80 80 4E 37 03 0F  00 89 80 01 7E 37 02 16  ....N7......~7..
3750: 00 19 80 80 5E 37 03 0F  00 9C 80 01 7E 37 02 16  ....^7......~7..
3760: 00 1A 80 80 6E 37 03 0F  00 9E 80 01 7E 37 02 16  ....n7......~7..
3770: 00 22 80 80 7E 37 03 0F  00 9B 80 01 7E 37 01 E2  ."..~7......~7..
3780: 39 02 15 00 07 80 80 4C  38 02 16 00 06 80 80 99  9......L8.......
3790: 37 03 0F 00 0C 80 01 49  38 02 16 00 07 80 80 A9  7......I8.......
37A0: 37 03 0F 00 0B 80 01 49  38 02 16 00 08 80 80 B9  7......I8.......
37B0: 37 03 0F 00 7D 80 01 49  38 02 16 00 09 80 80 C9  7...}..I8.......
37C0: 37 03 0F 00 77 80 01 49  38 02 16 00 0A 80 80 D9  7...w..I8.......
37D0: 37 03 0F 00 8C 80 01 49  38 02 16 00 0B 80 80 E9  7......I8.......
37E0: 37 03 0F 00 20 80 01 49  38 02 16 00 0C 80 80 F9  7... ..I8.......
37F0: 37 03 0F 00 0D 80 01 49  38 02 16 00 0D 80 80 09  7......I8.......
3800: 38 03 0F 00 0A 80 01 49  38 02 16 00 18 80 80 19  8......I8.......
3810: 38 03 0F 00 1B 80 01 49  38 02 16 00 19 80 80 29  8......I8......)
3820: 38 03 0F 00 25 80 01 49  38 02 16 00 1A 80 80 39  8...%..I8......9
3830: 38 03 0F 00 88 80 01 49  38 02 16 00 22 80 80 49  8......I8..."..I
3840: 38 03 0F 00 9A 80 01 49  38 01 E2 39 02 15 00 08  8......I8..9....
3850: 80 80 17 39 02 16 00 06  80 80 64 38 03 0F 00 04  ...9......d8....
3860: 80 01 14 39 02 16 00 07  80 80 74 38 03 0F 00 7E  ...9......t8...~
3870: 80 01 14 39 02 16 00 08  80 80 84 38 03 0F 00 94  ...9.......8....
3880: 80 01 14 39 02 16 00 09  80 80 94 38 03 0F 00 1F  ...9.......8....
3890: 80 01 14 39 02 16 00 0A  80 80 A4 38 03 0F 00 1C  ...9.......8....
38A0: 80 01 14 39 02 16 00 0B  80 80 B4 38 03 0F 00 1E  ...9.......8....
38B0: 80 01 14 39 02 16 00 0C  80 80 C4 38 03 0F 00 1D  ...9.......8....
38C0: 80 01 14 39 02 16 00 0D  80 80 D4 38 03 0F 00 22  ...9.......8..."
38D0: 80 01 14 39 02 16 00 18  80 80 E4 38 03 0F 00 80  ...9.......8....
38E0: 80 01 14 39 02 16 00 19  80 80 F4 38 03 0F 00 90  ...9.......8....
38F0: 80 01 14 39 02 16 00 1A  80 80 04 39 03 0F 00 98  ...9.......9....
3900: 80 01 14 39 02 16 00 22  80 80 14 39 03 0F 00 47  ...9..."...9...G
3910: 80 01 14 39 01 E2 39 02  15 00 09 80 80 E2 39 02  ...9..9.......9.
3920: 16 00 06 80 80 2F 39 03  0F 00 18 80 01 DF 39 02  ...../9.......9.
3930: 16 00 07 80 80 3F 39 03  0F 00 A4 80 01 DF 39 02  .....?9.......9.
3940: 16 00 08 80 80 4F 39 03  0F 00 06 80 01 DF 39 02  .....O9.......9.
3950: 16 00 09 80 80 5F 39 03  0F 00 24 80 01 DF 39 02  ....._9...$...9.
3960: 16 00 0A 80 80 6F 39 03  0F 00 A0 80 01 DF 39 02  .....o9.......9.
3970: 16 00 0B 80 80 7F 39 03  0F 00 A5 80 01 DF 39 02  ......9.......9.
3980: 16 00 0C 80 80 8F 39 03  0F 00 23 80 01 DF 39 02  ......9...#...9.
3990: 16 00 0D 80 80 9F 39 03  0F 00 92 80 01 DF 39 02  ......9.......9.
39A0: 16 00 18 80 80 AF 39 03  0F 00 09 80 01 DF 39 02  ......9.......9.
39B0: 16 00 19 80 80 BF 39 03  0F 00 03 80 01 DF 39 02  ......9.......9.
39C0: 16 00 1A 80 80 CF 39 03  0F 00 99 80 01 DF 39 02  ......9.......9.
39D0: 16 00 22 80 80 DF 39 03  0F 00 A3 80 01 DF 39 01  .."...9.......9.
39E0: E2 39 1B 02 15 00 06 80  80 AE 3A 02 16 00 06 80  .9........:.....
39F0: 80 FB 39 03 10 00 52 80  01 AB 3A 02 16 00 07 80  ..9...R...:.....
3A00: 80 0B 3A 03 10 00 08 80  01 AB 3A 02 16 00 08 80  ..:.......:.....
3A10: 80 1B 3A 03 10 00 7F 80  01 AB 3A 02 16 00 09 80  ..:.......:.....
3A20: 80 2B 3A 03 10 00 9D 80  01 AB 3A 02 16 00 0A 80  .+:.......:.....
3A30: 80 3B 3A 03 10 00 81 80  01 AB 3A 02 16 00 0B 80  .;:.......:.....
3A40: 80 4B 3A 03 10 00 42 80  01 AB 3A 02 16 00 0C 80  .K:...B...:.....
3A50: 80 5B 3A 03 10 00 19 80  01 AB 3A 02 16 00 0D 80  .[:.......:.....
3A60: 80 6B 3A 03 10 00 8A 80  01 AB 3A 02 16 00 18 80  .k:.......:.....
3A70: 80 7B 3A 03 10 00 89 80  01 AB 3A 02 16 00 19 80  .{:.......:.....
3A80: 80 8B 3A 03 10 00 9C 80  01 AB 3A 02 16 00 1A 80  ..:.......:.....
3A90: 80 9B 3A 03 10 00 9E 80  01 AB 3A 02 16 00 22 80  ..:.......:...".
3AA0: 80 AB 3A 03 10 00 9B 80  01 AB 3A 01 0F 3D 02 15  ..:.......:..=..
3AB0: 00 07 80 80 79 3B 02 16  00 06 80 80 C6 3A 03 10  ....y;.......:..
3AC0: 00 0C 80 01 76 3B 02 16  00 07 80 80 D6 3A 03 10  ....v;.......:..
3AD0: 00 0B 80 01 76 3B 02 16  00 08 80 80 E6 3A 03 10  ....v;.......:..
3AE0: 00 7D 80 01 76 3B 02 16  00 09 80 80 F6 3A 03 10  .}..v;.......:..
3AF0: 00 77 80 01 76 3B 02 16  00 0A 80 80 06 3B 03 10  .w..v;.......;..
3B00: 00 8C 80 01 76 3B 02 16  00 0B 80 80 16 3B 03 10  ....v;.......;..
3B10: 00 20 80 01 76 3B 02 16  00 0C 80 80 26 3B 03 10  . ..v;......&;..
3B20: 00 0D 80 01 76 3B 02 16  00 0D 80 80 36 3B 03 10  ....v;......6;..
3B30: 00 0A 80 01 76 3B 02 16  00 18 80 80 46 3B 03 10  ....v;......F;..
3B40: 00 1B 80 01 76 3B 02 16  00 19 80 80 56 3B 03 10  ....v;......V;..
3B50: 00 25 80 01 76 3B 02 16  00 1A 80 80 66 3B 03 10  .%..v;......f;..
3B60: 00 88 80 01 76 3B 02 16  00 22 80 80 76 3B 03 10  ....v;..."..v;..
3B70: 00 9A 80 01 76 3B 01 0F  3D 02 15 00 08 80 80 44  ....v;..=......D
3B80: 3C 02 16 00 06 80 80 91  3B 03 10 00 04 80 01 41  <.......;......A
3B90: 3C 02 16 00 07 80 80 A1  3B 03 10 00 7E 80 01 41  <.......;...~..A
3BA0: 3C 02 16 00 08 80 80 B1  3B 03 10 00 94 80 01 41  <.......;......A
3BB0: 3C 02 16 00 09 80 80 C1  3B 03 10 00 1F 80 01 41  <.......;......A
3BC0: 3C 02 16 00 0A 80 80 D1  3B 03 10 00 1C 80 01 41  <.......;......A
3BD0: 3C 02 16 00 0B 80 80 E1  3B 03 10 00 1E 80 01 41  <.......;......A
3BE0: 3C 02 16 00 0C 80 80 F1  3B 03 10 00 1D 80 01 41  <.......;......A
3BF0: 3C 02 16 00 0D 80 80 01  3C 03 10 00 22 80 01 41  <.......<..."..A
3C00: 3C 02 16 00 18 80 80 11  3C 03 10 00 80 80 01 41  <.......<......A
3C10: 3C 02 16 00 19 80 80 21  3C 03 10 00 90 80 01 41  <......!<......A
3C20: 3C 02 16 00 1A 80 80 31  3C 03 10 00 98 80 01 41  <......1<......A
3C30: 3C 02 16 00 22 80 80 41  3C 03 10 00 47 80 01 41  <..."..A<...G..A
3C40: 3C 01 0F 3D 02 15 00 09  80 80 0F 3D 02 16 00 06  <..=.......=....
3C50: 80 80 5C 3C 03 10 00 18  80 01 0C 3D 02 16 00 07  ..\<.......=....
3C60: 80 80 6C 3C 03 10 00 A6  80 01 0C 3D 02 16 00 08  ..l<.......=....
3C70: 80 80 7C 3C 03 10 00 03  80 01 0C 3D 02 16 00 09  ..|<.......=....
3C80: 80 80 8C 3C 03 10 00 24  80 01 0C 3D 02 16 00 0A  ...<...$...=....
3C90: 80 80 9C 3C 03 10 00 A4  80 01 0C 3D 02 16 00 0B  ...<.......=....
3CA0: 80 80 AC 3C 03 10 00 91  80 01 0C 3D 02 16 00 0C  ...<.......=....
3CB0: 80 80 BC 3C 03 10 00 23  80 01 0C 3D 02 16 00 0D  ...<...#...=....
3CC0: 80 80 CC 3C 03 10 00 92  80 01 0C 3D 02 16 00 18  ...<.......=....
3CD0: 80 80 DC 3C 03 10 00 09  80 01 0C 3D 02 16 00 19  ...<.......=....
3CE0: 80 80 EC 3C 03 10 00 97  80 01 0C 3D 02 16 00 1A  ...<.......=....
3CF0: 80 80 FC 3C 03 10 00 99  80 01 0C 3D 02 16 00 22  ...<.......=..."
3D00: 80 80 0C 3D 03 10 00 A3  80 01 0C 3D 01 0F 3D 1B  ...=.......=..=.
3D10: 02 15 00 06 80 80 DB 3D  02 16 00 06 80 80 28 3D  .......=......(=
3D20: 03 11 00 52 80 01 D8 3D  02 16 00 07 80 80 38 3D  ...R...=......8=
3D30: 03 11 00 08 80 01 D8 3D  02 16 00 08 80 80 48 3D  .......=......H=
3D40: 03 11 00 7F 80 01 D8 3D  02 16 00 09 80 80 58 3D  .......=......X=
3D50: 03 11 00 9D 80 01 D8 3D  02 16 00 0A 80 80 68 3D  .......=......h=
3D60: 03 11 00 81 80 01 D8 3D  02 16 00 0B 80 80 78 3D  .......=......x=
3D70: 03 11 00 42 80 01 D8 3D  02 16 00 0C 80 80 88 3D  ...B...=.......=
3D80: 03 11 00 19 80 01 D8 3D  02 16 00 0D 80 80 98 3D  .......=.......=
3D90: 03 11 00 8A 80 01 D8 3D  02 16 00 18 80 80 A8 3D  .......=.......=
3DA0: 03 11 00 89 80 01 D8 3D  02 16 00 19 80 80 B8 3D  .......=.......=
3DB0: 03 11 00 9C 80 01 D8 3D  02 16 00 1A 80 80 C8 3D  .......=.......=
3DC0: 03 11 00 9E 80 01 D8 3D  02 16 00 22 80 80 D8 3D  .......=..."...=
3DD0: 03 11 00 9B 80 01 D8 3D  01 3C 40 02 15 00 07 80  .......=.<@.....
3DE0: 80 A6 3E 02 16 00 06 80  80 F3 3D 03 11 00 0C 80  ..>.......=.....
3DF0: 01 A3 3E 02 16 00 07 80  80 03 3E 03 11 00 0B 80  ..>.......>.....
3E00: 01 A3 3E 02 16 00 08 80  80 13 3E 03 11 00 7D 80  ..>.......>...}.
3E10: 01 A3 3E 02 16 00 09 80  80 23 3E 03 11 00 77 80  ..>......#>...w.
3E20: 01 A3 3E 02 16 00 0A 80  80 33 3E 03 11 00 8C 80  ..>......3>.....
3E30: 01 A3 3E 02 16 00 0B 80  80 43 3E 03 11 00 20 80  ..>......C>... .
3E40: 01 A3 3E 02 16 00 0C 80  80 53 3E 03 11 00 0D 80  ..>......S>.....
3E50: 01 A3 3E 02 16 00 0D 80  80 63 3E 03 11 00 0A 80  ..>......c>.....
3E60: 01 A3 3E 02 16 00 18 80  80 73 3E 03 11 00 1B 80  ..>......s>.....
3E70: 01 A3 3E 02 16 00 19 80  80 83 3E 03 11 00 25 80  ..>.......>...%.
3E80: 01 A3 3E 02 16 00 1A 80  80 93 3E 03 11 00 88 80  ..>.......>.....
3E90: 01 A3 3E 02 16 00 22 80  80 A3 3E 03 11 00 9A 80  ..>..."...>.....
3EA0: 01 A3 3E 01 3C 40 02 15  00 08 80 80 71 3F 02 16  ..>.<@......q?..
3EB0: 00 06 80 80 BE 3E 03 11  00 04 80 01 6E 3F 02 16  .....>......n?..
3EC0: 00 07 80 80 CE 3E 03 11  00 7E 80 01 6E 3F 02 16  .....>...~..n?..
3ED0: 00 08 80 80 DE 3E 03 11  00 94 80 01 6E 3F 02 16  .....>......n?..
3EE0: 00 09 80 80 EE 3E 03 11  00 1F 80 01 6E 3F 02 16  .....>......n?..
3EF0: 00 0A 80 80 FE 3E 03 11  00 1C 80 01 6E 3F 02 16  .....>......n?..
3F00: 00 0B 80 80 0E 3F 03 11  00 1E 80 01 6E 3F 02 16  .....?......n?..
3F10: 00 0C 80 80 1E 3F 03 11  00 1D 80 01 6E 3F 02 16  .....?......n?..
3F20: 00 0D 80 80 2E 3F 03 11  00 22 80 01 6E 3F 02 16  .....?..."..n?..
3F30: 00 18 80 80 3E 3F 03 11  00 80 80 01 6E 3F 02 16  ....>?......n?..
3F40: 00 19 80 80 4E 3F 03 11  00 90 80 01 6E 3F 02 16  ....N?......n?..
3F50: 00 1A 80 80 5E 3F 03 11  00 98 80 01 6E 3F 02 16  ....^?......n?..
3F60: 00 22 80 80 6E 3F 03 11  00 47 80 01 6E 3F 01 3C  ."..n?...G..n?.<
3F70: 40 02 15 00 09 80 80 3C  40 02 16 00 06 80 80 89  @......<@.......
3F80: 3F 03 11 00 18 80 01 39  40 02 16 00 07 80 80 99  ?......9@.......
3F90: 3F 03 11 00 10 80 01 39  40 02 16 00 08 80 80 A9  ?......9@.......
3FA0: 3F 03 11 00 09 80 01 39  40 02 16 00 09 80 80 B9  ?......9@.......
3FB0: 3F 03 11 00 24 80 01 39  40 02 16 00 0A 80 80 C9  ?...$..9@.......
3FC0: 3F 03 11 00 A6 80 01 39  40 02 16 00 0B 80 80 D9  ?......9@.......
3FD0: 3F 03 11 00 06 80 01 39  40 02 16 00 0C 80 80 E9  ?......9@.......
3FE0: 3F 03 11 00 23 80 01 39  40 02 16 00 0D 80 80 F9  ?...#..9@.......
3FF0: 3F 03 11 00 92 80 01 39  40 02 16 00 18 80 80 09  ?......9@.......
4000: 40 03 11 00 1A 80 01 39  40 02 16 00 19 80 80 19  @......9@.......
4010: 40 03 11 00 03 80 01 39  40 02 16 00 1A 80 80 29  @......9@......)
4020: 40 03 11 00 99 80 01 39  40 02 16 00 22 80 80 39  @......9@..."..9
4030: 40 03 11 00 A3 80 01 39  40 01 3C 40 1B 02 17 00  @......9@.<@....
4040: 06 80 80 DB 40 02 16 00  06 80 80 5A 40 03 12 00  ....@......Z@...
4050: 56 80 03 13 00 56 80 01  D8 40 02 16 00 07 80 80  V....V...@......
4060: 6F 40 03 12 00 8F 80 03  13 00 8F 80 01 D8 40 02  o@............@.
4070: 16 00 08 80 80 84 40 03  12 00 47 80 03 13 00 47  ......@...G....G
4080: 80 01 D8 40 02 16 00 09  80 80 99 40 03 12 00 A7  ...@.......@....
4090: 80 03 13 00 A7 80 01 D8  40 02 16 00 0A 80 80 AE  ........@.......
40A0: 40 03 12 00 A8 80 03 13  00 A8 80 01 D8 40 02 16  @............@..
40B0: 00 0B 80 80 C3 40 03 12  00 9D 80 03 13 00 9D 80  .....@..........
40C0: 01 D8 40 02 16 00 0C 80  80 D8 40 03 12 00 A9 80  ..@.......@.....
40D0: 03 13 00 A9 80 01 D8 40  01 24 46 02 17 00 07 80  .......@.$F.....
40E0: 80 56 41 02 16 00 06 80  80 F3 40 03 12 00 AA 80  .VA.......@.....
40F0: 01 53 41 02 16 00 07 80  80 03 41 03 12 00 AB 80  .SA.......A.....
4100: 01 53 41 02 16 00 08 80  80 13 41 03 12 00 AC 80  .SA.......A.....
4110: 01 53 41 02 16 00 09 80  80 23 41 03 12 00 AD 80  .SA......#A.....
4120: 01 53 41 02 16 00 0A 80  80 33 41 03 12 00 AE 80  .SA......3A.....
4130: 01 53 41 02 16 00 0B 80  80 43 41 03 12 00 AF 80  .SA......CA.....
4140: 01 53 41 02 16 00 0C 80  80 53 41 03 12 00 B0 80  .SA......SA.....
4150: 01 53 41 01 24 46 02 17  00 08 80 80 D1 41 02 16  .SA.$F.......A..
4160: 00 06 80 80 6E 41 03 12  00 B1 80 01 CE 41 02 16  ....nA.......A..
4170: 00 07 80 80 7E 41 03 12  00 B2 80 01 CE 41 02 16  ....~A.......A..
4180: 00 08 80 80 8E 41 03 12  00 B3 80 01 CE 41 02 16  .....A.......A..
4190: 00 09 80 80 9E 41 03 12  00 B4 80 01 CE 41 02 16  .....A.......A..
41A0: 00 0A 80 80 AE 41 03 12  00 B5 80 01 CE 41 02 16  .....A.......A..
41B0: 00 0B 80 80 BE 41 03 12  00 B6 80 01 CE 41 02 16  .....A.......A..
41C0: 00 0C 80 80 CE 41 03 12  00 4B 80 01 CE 41 01 24  .....A...K...A.$
41D0: 46 02 17 00 09 80 80 4C  42 02 16 00 06 80 80 E9  F......LB.......
41E0: 41 03 12 00 B7 80 01 49  42 02 16 00 07 80 80 F9  A......IB.......
41F0: 41 03 12 00 B8 80 01 49  42 02 16 00 08 80 80 09  A......IB.......
4200: 42 03 12 00 B9 80 01 49  42 02 16 00 09 80 80 19  B......IB.......
4210: 42 03 12 00 BA 80 01 49  42 02 16 00 0A 80 80 29  B......IB......)
4220: 42 03 12 00 BB 80 01 49  42 02 16 00 0B 80 80 39  B......IB......9
4230: 42 03 12 00 BC 80 01 49  42 02 16 00 0C 80 80 49  B......IB......I
4240: 42 03 12 00 BD 80 01 49  42 01 24 46 02 17 00 0A  B......IB.$F....
4250: 80 80 C7 42 02 16 00 06  80 80 64 42 03 12 00 BE  ...B......dB....
4260: 80 01 C4 42 02 16 00 07  80 80 74 42 03 12 00 BF  ...B......tB....
4270: 80 01 C4 42 02 16 00 08  80 80 84 42 03 12 00 C0  ...B.......B....
4280: 80 01 C4 42 02 16 00 09  80 80 94 42 03 12 00 C1  ...B.......B....
4290: 80 01 C4 42 02 16 00 0A  80 80 A4 42 03 12 00 C2  ...B.......B....
42A0: 80 01 C4 42 02 16 00 0B  80 80 B4 42 03 12 00 C3  ...B.......B....
42B0: 80 01 C4 42 02 16 00 0C  80 80 C4 42 03 12 00 C4  ...B.......B....
42C0: 80 01 C4 42 01 24 46 02  17 00 0B 80 80 42 43 02  ...B.$F......BC.
42D0: 16 00 06 80 80 DF 42 03  12 00 83 80 01 3F 43 02  ......B......?C.
42E0: 16 00 07 80 80 EF 42 03  12 00 0E 80 01 3F 43 02  ......B......?C.
42F0: 16 00 08 80 80 FF 42 03  12 00 C5 80 01 3F 43 02  ......B......?C.
4300: 16 00 09 80 80 0F 43 03  12 00 15 80 01 3F 43 02  ......C......?C.
4310: 16 00 0A 80 80 1F 43 03  12 00 16 80 01 3F 43 02  ......C......?C.
4320: 16 00 0B 80 80 2F 43 03  12 00 C6 80 01 3F 43 02  ...../C......?C.
4330: 16 00 0C 80 80 3F 43 03  12 00 60 80 01 3F 43 01  .....?C...`..?C.
4340: 24 46 02 17 00 0C 80 80  BD 43 02 16 00 06 80 80  $F.......C......
4350: 5A 43 03 12 00 C7 80 01  BA 43 02 16 00 07 80 80  ZC.......C......
4360: 6A 43 03 12 00 43 80 01  BA 43 02 16 00 08 80 80  jC...C...C......
4370: 7A 43 03 12 00 C8 80 01  BA 43 02 16 00 09 80 80  zC.......C......
4380: 8A 43 03 12 00 C9 80 01  BA 43 02 16 00 0A 80 80  .C.......C......
4390: 9A 43 03 12 00 CA 80 01  BA 43 02 16 00 0B 80 80  .C.......C......
43A0: AA 43 03 12 00 CB 80 01  BA 43 02 16 00 0C 80 80  .C.......C......
43B0: BA 43 03 12 00 CC 80 01  BA 43 01 24 46 02 17 00  .C.......C.$F...
43C0: 0D 80 80 38 44 02 16 00  06 80 80 D5 43 03 12 00  ...8D.......C...
43D0: CD 80 01 35 44 02 16 00  07 80 80 E5 43 03 12 00  ...5D.......C...
43E0: CE 80 01 35 44 02 16 00  08 80 80 F5 43 03 12 00  ...5D.......C...
43F0: CF 80 01 35 44 02 16 00  09 80 80 05 44 03 12 00  ...5D.......D...
4400: D0 80 01 35 44 02 16 00  0A 80 80 15 44 03 12 00  ...5D.......D...
4410: D1 80 01 35 44 02 16 00  0B 80 80 25 44 03 12 00  ...5D......%D...
4420: D2 80 01 35 44 02 16 00  0C 80 80 35 44 03 12 00  ...5D......5D...
4430: D3 80 01 35 44 01 24 46  02 17 00 18 80 80 B3 44  ...5D.$F.......D
4440: 02 16 00 06 80 80 50 44  03 12 00 D4 80 01 B0 44  ......PD.......D
4450: 02 16 00 07 80 80 60 44  03 12 00 D5 80 01 B0 44  ......`D.......D
4460: 02 16 00 08 80 80 70 44  03 12 00 D6 80 01 B0 44  ......pD.......D
4470: 02 16 00 09 80 80 80 44  03 12 00 D7 80 01 B0 44  .......D.......D
4480: 02 16 00 0A 80 80 90 44  03 12 00 D8 80 01 B0 44  .......D.......D
4490: 02 16 00 0B 80 80 A0 44  03 12 00 D9 80 01 B0 44  .......D.......D
44A0: 02 16 00 0C 80 80 B0 44  03 12 00 DA 80 01 B0 44  .......D.......D
44B0: 01 24 46 02 17 00 19 80  80 2E 45 02 16 00 06 80  .$F.......E.....
44C0: 80 CB 44 03 12 00 DB 80  01 2B 45 02 16 00 07 80  ..D......+E.....
44D0: 80 DB 44 03 12 00 DC 80  01 2B 45 02 16 00 08 80  ..D......+E.....
44E0: 80 EB 44 03 12 00 DD 80  01 2B 45 02 16 00 09 80  ..D......+E.....
44F0: 80 FB 44 03 12 00 DE 80  01 2B 45 02 16 00 0A 80  ..D......+E.....
4500: 80 0B 45 03 12 00 DF 80  01 2B 45 02 16 00 0B 80  ..E......+E.....
4510: 80 1B 45 03 12 00 E0 80  01 2B 45 02 16 00 0C 80  ..E......+E.....
4520: 80 2B 45 03 12 00 E1 80  01 2B 45 01 24 46 02 17  .+E......+E.$F..
4530: 00 1A 80 80 A9 45 02 16  00 06 80 80 46 45 03 12  .....E......FE..
4540: 00 A6 80 01 A6 45 02 16  00 07 80 80 56 45 03 12  .....E......VE..
4550: 00 E2 80 01 A6 45 02 16  00 08 80 80 66 45 03 12  .....E......fE..
4560: 00 E3 80 01 A6 45 02 16  00 09 80 80 76 45 03 12  .....E......vE..
4570: 00 E4 80 01 A6 45 02 16  00 0A 80 80 86 45 03 12  .....E.......E..
4580: 00 98 80 01 A6 45 02 16  00 0B 80 80 96 45 03 12  .....E.......E..
4590: 00 E5 80 01 A6 45 02 16  00 0C 80 80 A6 45 03 12  .....E.......E..
45A0: 00 E6 80 01 A6 45 01 24  46 02 17 00 22 80 80 24  .....E.$F..."..$
45B0: 46 02 16 00 06 80 80 C1  45 03 12 00 E7 80 01 21  F.......E......!
45C0: 46 02 16 00 07 80 80 D1  45 03 12 00 E8 80 01 21  F.......E......!
45D0: 46 02 16 00 08 80 80 E1  45 03 12 00 E9 80 01 21  F.......E......!
45E0: 46 02 16 00 09 80 80 F1  45 03 12 00 EA 80 01 21  F.......E......!
45F0: 46 02 16 00 0A 80 80 01  46 03 12 00 EB 80 01 21  F.......F......!
4600: 46 02 16 00 0B 80 80 11  46 03 12 00 EC 80 01 21  F.......F......!
4610: 46 02 16 00 0C 80 80 21  46 03 12 00 ED 80 01 21  F......!F......!
4620: 46 01 24 46 1B 02 17 00  06 80 80 30 46 01 00 47  F.$F.......0F..G
4630: 02 17 00 09 80 80 40 46  03 17 00 06 80 01 00 47  ......@F.......G
4640: 02 17 00 0B 80 80 50 46  03 17 00 06 80 01 00 47  ......PF.......G
4650: 02 17 00 0C 80 80 60 46  03 17 00 06 80 01 00 47  ......`F.......G
4660: 02 17 00 0D 80 80 70 46  03 17 00 06 80 01 00 47  ......pF.......G
4670: 02 17 00 19 80 80 80 46  03 17 00 06 80 01 00 47  .......F.......G
4680: 02 17 00 22 80 80 90 46  03 17 00 06 80 01 00 47  ..."...F.......G
4690: 02 16 00 06 80 80 A0 46  03 13 00 EE 80 01 00 47  .......F.......G
46A0: 02 16 00 07 80 80 B0 46  03 13 00 24 80 01 00 47  .......F...$...G
46B0: 02 16 00 08 80 80 C0 46  03 13 00 EF 80 01 00 47  .......F.......G
46C0: 02 16 00 09 80 80 D0 46  03 13 00 F0 80 01 00 47  .......F.......G
46D0: 02 16 00 0A 80 80 E0 46  03 13 00 42 80 01 00 47  .......F...B...G
46E0: 02 16 00 0B 80 80 F0 46  03 13 00 9F 80 01 00 47  .......F.......G
46F0: 02 16 00 0C 80 80 00 47  03 13 00 7D 80 01 00 47  .......G...}...G
4700: 1B 02 14 00 06 80 80 0C  47 01 03 48 02 14 00 07  ........G..H....
4710: 80 80 1C 47 03 0D 00 F1  80 01 03 48 02 14 00 08  ...G.......H....
4720: 80 80 2C 47 03 0D 00 A8  80 01 03 48 02 14 00 09  ..,G.......H....
4730: 80 80 3C 47 03 0D 00 F2  80 01 03 48 02 14 00 0A  ..<G.......H....
4740: 80 80 4C 47 03 0D 00 F3  80 01 03 48 02 14 00 0B  ..LG.......H....
4750: 80 80 5C 47 03 0D 00 CE  80 01 03 48 02 14 00 0C  ..\G.......H....
4760: 80 80 6C 47 03 0D 00 10  80 01 03 48 02 14 00 0D  ..lG.......H....
4770: 80 80 7C 47 03 0D 00 5B  80 01 03 48 02 14 00 18  ..|G...[...H....
4780: 80 80 8C 47 03 0D 00 54  80 01 03 48 02 14 00 19  ...G...T...H....
4790: 80 80 03 48 02 0B 00 06  80 80 9F 47 01 00 48 02  ...H.......G..H.
47A0: 0B 00 07 80 80 AF 47 03  0D 00 F4 80 01 00 48 02  ......G.......H.
47B0: 0B 00 08 80 80 BA 47 01  00 48 02 0B 00 09 80 80  ......G..H......
47C0: CA 47 03 0D 00 F4 80 01  00 48 02 0B 00 0A 80 80  .G.......H......
47D0: D5 47 01 00 48 02 0B 00  0B 80 80 E5 47 03 0D 00  .G..H.......G...
47E0: F4 80 01 00 48 02 0B 00  0C 80 80 F5 47 03 0D 00  ....H.......G...
47F0: F4 80 01 00 48 02 0B 00  0D 80 80 00 48 01 00 48  ....H.......H..H
4800: 01 03 48 1B 02 14 00 06  80 80 0F 48 01 4D 48 02  ..H........H.MH.
4810: 14 00 07 80 80 2E 48 03  0E 00 E3 80 03 0F 00 E3  ......H.........
4820: 80 03 10 00 E3 80 03 11  00 E3 80 01 4D 48 02 14  ............MH..
4830: 00 08 80 80 4D 48 03 0E  00 F4 80 03 0F 00 F4 80  ....MH..........
4840: 03 10 00 F4 80 03 11 00  F4 80 01 4D 48 1B 02 14  ...........MH...
4850: 00 06 80 80 59 48 01 AE  48 02 14 00 07 80 80 69  ....YH..H......i
4860: 48 03 12 00 F5 80 01 AE  48 02 14 00 08 80 80 79  H.......H......y
4870: 48 03 12 00 F6 80 01 AE  48 02 14 00 09 80 80 8E  H.......H.......
4880: 48 03 12 00 F7 80 03 13  00 06 80 01 AE 48 02 14  H............H..
4890: 00 0A 80 80 9E 48 03 12  00 F8 80 01 AE 48 02 14  .....H.......H..
48A0: 00 0B 80 80 AE 48 03 12  00 F9 80 01 AE 48 1B     .....H.......H. 
```

#### Opcodes

```
  0: 0x0021 [0x4A] Unnamed NPC (ID: 17293757/0x0107E1BD) looks at LocalPlayer
  1: 0x002A [0x1C] WAIT(15* ticks)
  2: 0x002D [0x6E] Unnamed NPC (ID: 17293757/0x0107E1BD) uses emote 21*
  3: 0x0034 [0x99] Wait for Unnamed NPC (ID: 17293757/0x0107E1BD) animation to complete
  4: 0x0039 [0x99] Wait for Unnamed NPC (ID: 17293757/0x0107E1BD) animation to complete
  5: 0x003E [0x1C] WAIT(60* ticks)
  6: 0x0041 [0x6F] WAIT_FRAME_DELAY: Yield until WaitTime reaches zero
  7: 0x0042 [0x76] CHECK_ENTITY_RENDER_FLAGS: Wait until Unnamed NPC (ID: 17293757/0x0107E1BD) Render.Flags0 and Render.Flags3 conditions are met
  8: 0x0047 [0x4A] Unnamed NPC (ID: 17293757/0x0107E1BD) looks at Unnamed NPC (ID: 17293759/0x0107E1BF)
  9: 0x0050 [0x1C] WAIT(15* ticks)
 10: 0x0053 [0x00] END_REQSTACK()
```

#### Data or dead code:

```
# Dead code (unreachable instructions):
     0x0054 [0x03] ExtData[1]->WorkLocal[2] = 0*
     0x0059 [0x1A] CALL_SUBROUTINE(address=0x149F)
     0x005C [0x1A] CALL_SUBROUTINE(address=0x14A9)
     0x005F [0x02] IF !(ExtData[1]->WorkLocal[11] == 0*) GOTO 0x0162
     0x0067 [0x02] IF !(ExtData[1]->WorkLocal[1] == 0*) GOTO 0x0086
     0x006F [0xB4] UI_WINDOW_STRING_HANDLER(case=0x00 - Copy string from opcode, work_offset=ExtData[1]->WorkLocal[2], string="Feliz")
     0x0083 [0x01] GOTO 0x015F
     0x0086 [0x02] IF !(ExtData[1]->WorkLocal[1] == 1*) GOTO 0x00A5
     0x008E [0xB4] UI_WINDOW_STRING_HANDLER(case=0x00 - Copy string from opcode, work_offset=ExtData[1]->WorkLocal[2], string="Ferdinand")
     0x00A2 [0x01] GOTO 0x015F
     0x00A5 [0x02] IF !(ExtData[1]->WorkLocal[1] == 2*) GOTO 0x00C4
