# 17293787

## Common Data

| Field            | Value                  |
|------------------|------------------------|
| Zone             | Qufim Island (ID: 126) |
| Block Size       | 1064 bytes             |
| Total Events     | 42                     |
| References Count | 29                     |

## List of Events

| Event ID                   | Entrypoint   |   Size |   Instructions |
|----------------------------|--------------|--------|----------------|
| [65535](#event-65535)      | 0x0000       |      1 |              1 |
| [31](#event-31)            | 0x0001       |      4 |              2 |
| [65535.1](#event-655351)   | 0x0005       |     18 |              2 |
| [65535.2](#event-655352)   | 0x0017       |     12 |              3 |
| [65535.3](#event-655353)   | 0x0023       |     12 |              3 |
| [65535.4](#event-655354)   | 0x002F       |      5 |              2 |
| [65535.5](#event-655355)   | 0x0034       |     14 |              3 |
| [65535.6](#event-655356)   | 0x0042       |     18 |              2 |
| [65535.7](#event-655357)   | 0x0054       |     18 |              2 |
| [65535.8](#event-655358)   | 0x0066       |     18 |              2 |
| [65535.9](#event-655359)   | 0x0078       |     18 |              2 |
| [65535.10](#event-6553510) | 0x008A       |     16 |              2 |
| [65535.11](#event-6553511) | 0x009A       |     12 |              3 |
| [65535.12](#event-6553512) | 0x00A6       |     12 |              3 |
| [65535.13](#event-6553513) | 0x00B2       |     14 |              4 |
| [65535.14](#event-6553514) | 0x00C0       |     16 |              2 |
| [65535.15](#event-6553515) | 0x00D0       |     16 |              2 |
| [65535.16](#event-6553516) | 0x00E0       |     16 |              2 |
| [32](#event-32)            | 0x00F0       |      4 |              2 |
| [34](#event-34)            | 0x00F4       |      4 |              2 |
| [65535.17](#event-6553517) | 0x00F8       |     13 |              3 |
| [65535.18](#event-6553518) | 0x0105       |    129 |             17 |
| [45](#event-45)            | 0x0186       |      1 |              1 |
| [65535.19](#event-6553519) | 0x0187       |     19 |              5 |
| [65535.20](#event-6553520) | 0x019A       |      5 |              2 |
| [65535.21](#event-6553521) | 0x019F       |      5 |              2 |
| [65535.22](#event-6553522) | 0x01A4       |     37 |              5 |
| [65535.23](#event-6553523) | 0x01C9       |     24 |              4 |
| [65535.24](#event-6553524) | 0x01E1       |     10 |              2 |
| [65535.25](#event-6553525) | 0x01EB       |     10 |              2 |
| [65535.26](#event-6553526) | 0x01F5       |     16 |              2 |
| [65535.27](#event-6553527) | 0x0205       |     16 |              2 |
| [65535.28](#event-6553528) | 0x0215       |     16 |              2 |
| [65535.29](#event-6553529) | 0x0225       |     16 |              2 |
| [65535.30](#event-6553530) | 0x0235       |     16 |              2 |
| [65535.31](#event-6553531) | 0x0245       |     16 |              2 |
| [65535.32](#event-6553532) | 0x0255       |     19 |              3 |
| [65535.33](#event-6553533) | 0x0268       |     16 |              2 |
| [65535.34](#event-6553534) | 0x0278       |     19 |              3 |
| [65535.35](#event-6553535) | 0x028B       |     36 |              4 |
| [65535.36](#event-6553536) | 0x02AF       |     39 |              5 |
| [65535.37](#event-6553537) | 0x02D6       |     36 |              4 |

## DAT References (imed_data)

|   Index | Hex Value   |   Dec Value |
|---------|-------------|-------------|
|       0 | 0x0001      |           1 |
|       1 | 0x0012      |          18 |
|       2 | 0x0000      |           0 |
|       3 | 0x0080      |         128 |
|       4 | 0x092E      |        2350 |
|       5 | 0x0034      |          52 |
|       6 | 0x0052      |          82 |
|       7 | 0x0A0C      |        2572 |
|       8 | 0x0078      |         120 |
|       9 | 0x0006      |           6 |
|      10 | 0xFFFE3200  |  4294849024 |
|      11 | 0x4B72D     |      309037 |
|      12 | 0xFFFFBEF2  |  4294950642 |
|      13 | 0x0A0F      |        2575 |
|      14 | 0x003C      |          60 |
|      15 | 0x0041      |          65 |
|      16 | 0x000A      |          10 |
|      17 | 0x08EB      |        2283 |
|      18 | 0x08E3      |        2275 |
|      19 | 0x015E      |         350 |
|      20 | 0x0A4B      |        2635 |
|      21 | 0x00B1      |         177 |
|      22 | 0x0A4D      |        2637 |
|      23 | 0x0090      |         144 |
|      24 | 0x0037      |          55 |
|      25 | 0x00BD      |         189 |
|      26 | 0x005A      |          90 |
|      27 | 0x0128      |         296 |
|      28 | 0x002D      |          45 |

## Events

### Event 65535

#### Metadata

| Field        | Value   |
|--------------|---------|
| Entrypoint   | 0x0000  |
| Data Size    | 1 bytes |
| Instructions | 1       |

```
      00 01 02 03 04 05 06 07  08 09 0A 0B 0C 0D 0E 0F
      -- -- -- -- -- -- -- --  -- -- -- -- -- -- -- --
0000: 00                                                .               
```

#### Opcodes

```
  0: 0x0000 [0x00] END_REQSTACK()
```

### Event 31

#### Metadata

| Field        | Value   |
|--------------|---------|
| Entrypoint   | 0x0001  |
| Data Size    | 4 bytes |
| Instructions | 2       |

```
      00 01 02 03 04 05 06 07  08 09 0A 0B 0C 0D 0E 0F
      -- -- -- -- -- -- -- --  -- -- -- -- -- -- -- --
0000:    C0 00 80 00                                     ....           
```

#### Opcodes

```
  0: 0x0001 [0xC0] EventEntity->Render.Flags3 |= 0x1000 // Set bit 12 (from 1*)
  1: 0x0004 [0x00] END_REQSTACK()
```

### Event 65535.1

#### Metadata

| Field        | Value    |
|--------------|----------|
| Entrypoint   | 0x0005   |
| Data Size    | 18 bytes |
| Instructions | 2        |

```
      00 01 02 03 04 05 06 07  08 09 0A 0B 0C 0D 0E 0F
      -- -- -- -- -- -- -- --  -- -- -- -- -- -- -- --
0000:                9F 01 80  DB E1 07 01 DB E1 07 01       ...........
0010: 6D 61 69 6E 02 80 00                              main...         
```

#### Opcodes

```
  0: 0x0005 [0x9F] LOAD_SCHEDULED_TASK_ALT: Load scheduler "main" with entities [Unnamed NPC (ID: 17293787/0x0107E1DB), Unnamed NPC (ID: 17293787/0x0107E1DB)], work=[18*, 0*]
  1: 0x0016 [0x00] END_REQSTACK()
```

### Event 65535.2

#### Metadata

| Field        | Value    |
|--------------|----------|
| Entrypoint   | 0x0017   |
| Data Size    | 12 bytes |
| Instructions | 3        |

```
      00 01 02 03 04 05 06 07  08 09 0A 0B 0C 0D 0E 0F
      -- -- -- -- -- -- -- --  -- -- -- -- -- -- -- --
0010:                      A4  00 6C DB E1 07 01 02 80         ..l......
0020: 02 80 00                                          ...             
```

#### Opcodes

```
  0: 0x0017 [0xA4] EventEntity->Flags3.unknown_3_2 = 0
  1: 0x0019 [0x6C] FADE_ENTITY_COLOR(entity_id=Unnamed NPC (ID: 17293787/0x0107E1DB), end_alpha=0*, fade_time=0*)
  2: 0x0022 [0x00] END_REQSTACK()
```

### Event 65535.3

#### Metadata

| Field        | Value    |
|--------------|----------|
| Entrypoint   | 0x0023   |
| Data Size    | 12 bytes |
| Instructions | 3        |

```
      00 01 02 03 04 05 06 07  08 09 0A 0B 0C 0D 0E 0F
      -- -- -- -- -- -- -- --  -- -- -- -- -- -- -- --
0020:          6C DB E1 07 01  03 80 02 80 A4 01 00        l........... 
```

#### Opcodes

```
  0: 0x0023 [0x6C] FADE_ENTITY_COLOR(entity_id=Unnamed NPC (ID: 17293787/0x0107E1DB), end_alpha=128*, fade_time=0*)
  1: 0x002C [0xA4] EventEntity->Flags3.unknown_3_2 = 1
  2: 0x002E [0x00] END_REQSTACK()
```

### Event 65535.4

#### Metadata

| Field        | Value   |
|--------------|---------|
| Entrypoint   | 0x002F  |
| Data Size    | 5 bytes |
| Instructions | 2       |

```
      00 01 02 03 04 05 06 07  08 09 0A 0B 0C 0D 0E 0F
      -- -- -- -- -- -- -- --  -- -- -- -- -- -- -- --
0020:                                               B6                 .
0030: 00 04 80 00                                       ....            
```

#### Opcodes

```
  0: 0x002F [0xB6] ENTITY_APPEARANCE_HANDLER(case=Hair style, value=2350*)
  1: 0x0033 [0x00] END_REQSTACK()
```

### Event 65535.5

#### Metadata

| Field        | Value    |
|--------------|----------|
| Entrypoint   | 0x0034   |
| Data Size    | 14 bytes |
| Instructions | 3        |

```
      00 01 02 03 04 05 06 07  08 09 0A 0B 0C 0D 0E 0F
      -- -- -- -- -- -- -- --  -- -- -- -- -- -- -- --
0030:             B6 00 05 80  6C DB E1 07 01 03 80 02      ....l.......
0040: 80 00                                             ..              
```

#### Opcodes

```
  0: 0x0034 [0xB6] ENTITY_APPEARANCE_HANDLER(case=Hair style, value=52*)
  1: 0x0038 [0x6C] FADE_ENTITY_COLOR(entity_id=Unnamed NPC (ID: 17293787/0x0107E1DB), end_alpha=128*, fade_time=0*)
  2: 0x0041 [0x00] END_REQSTACK()
```

### Event 65535.6

#### Metadata

| Field        | Value    |
|--------------|----------|
| Entrypoint   | 0x0042   |
| Data Size    | 18 bytes |
| Instructions | 2        |

```
      00 01 02 03 04 05 06 07  08 09 0A 0B 0C 0D 0E 0F
      -- -- -- -- -- -- -- --  -- -- -- -- -- -- -- --
0040:       C5 06 80 DB E1 07  01 DB E1 07 01 73 30 30    ...........s00
0050: 30 02 80 00                                       0...            
```

#### Opcodes

```
  0: 0x0042 [0xC5] LOAD_SCHEDULED_TASK_ALT3: Load scheduler 0x80023030 for entities [Unnamed NPC (ID: 17293787/0x0107E1DB), Unnamed NPC (ID: 17293787/0x0107E1DB)], work=82*, param=12403
  1: 0x0053 [0x00] END_REQSTACK()
```

### Event 65535.7

#### Metadata

| Field        | Value    |
|--------------|----------|
| Entrypoint   | 0x0054   |
| Data Size    | 18 bytes |
| Instructions | 2        |

```
      00 01 02 03 04 05 06 07  08 09 0A 0B 0C 0D 0E 0F
      -- -- -- -- -- -- -- --  -- -- -- -- -- -- -- --
0050:             C5 06 80 DB  E1 07 01 DB E1 07 01 73      ...........s
0060: 30 30 32 02 80 00                                 002...          
```

#### Opcodes

```
  0: 0x0054 [0xC5] LOAD_SCHEDULED_TASK_ALT3: Load scheduler 0x80023230 for entities [Unnamed NPC (ID: 17293787/0x0107E1DB), Unnamed NPC (ID: 17293787/0x0107E1DB)], work=82*, param=12403
  1: 0x0065 [0x00] END_REQSTACK()
```

### Event 65535.8

#### Metadata

| Field        | Value    |
|--------------|----------|
| Entrypoint   | 0x0066   |
| Data Size    | 18 bytes |
| Instructions | 2        |

```
      00 01 02 03 04 05 06 07  08 09 0A 0B 0C 0D 0E 0F
      -- -- -- -- -- -- -- --  -- -- -- -- -- -- -- --
0060:                   C5 06  80 DB E1 07 01 DB E1 07        ..........
0070: 01 73 30 30 33 02 80 00                           .s003...        
```

#### Opcodes

```
  0: 0x0066 [0xC5] LOAD_SCHEDULED_TASK_ALT3: Load scheduler 0x80023330 for entities [Unnamed NPC (ID: 17293787/0x0107E1DB), Unnamed NPC (ID: 17293787/0x0107E1DB)], work=82*, param=12403
  1: 0x0077 [0x00] END_REQSTACK()
```

### Event 65535.9

#### Metadata

| Field        | Value    |
|--------------|----------|
| Entrypoint   | 0x0078   |
| Data Size    | 18 bytes |
| Instructions | 2        |

```
      00 01 02 03 04 05 06 07  08 09 0A 0B 0C 0D 0E 0F
      -- -- -- -- -- -- -- --  -- -- -- -- -- -- -- --
0070:                          C5 06 80 DB E1 07 01 DB          ........
0080: E1 07 01 73 30 30 34 02  80 00                    ...s004...      
```

#### Opcodes

```
  0: 0x0078 [0xC5] LOAD_SCHEDULED_TASK_ALT3: Load scheduler 0x80023430 for entities [Unnamed NPC (ID: 17293787/0x0107E1DB), Unnamed NPC (ID: 17293787/0x0107E1DB)], work=82*, param=12403
  1: 0x0089 [0x00] END_REQSTACK()
```

### Event 65535.10

#### Metadata

| Field        | Value    |
|--------------|----------|
| Entrypoint   | 0x008A   |
| Data Size    | 16 bytes |
| Instructions | 2        |

```
      00 01 02 03 04 05 06 07  08 09 0A 0B 0C 0D 0E 0F
      -- -- -- -- -- -- -- --  -- -- -- -- -- -- -- --
0080:                                5B 07 80 DB E1 07            [.....
0090: 01 DB E1 07 01 75 6B 65  30 00                    .....uke0.      
```

#### Opcodes

```
  0: 0x008A [0x5B] LOAD_EXT_SCHEDULER: Load scheduler "uke0" with entities [Unnamed NPC (ID: 17293787/0x0107E1DB), Unnamed NPC (ID: 17293787/0x0107E1DB)], work=2572*
  1: 0x0099 [0x00] END_REQSTACK()
```

### Event 65535.11

#### Metadata

| Field        | Value    |
|--------------|----------|
| Entrypoint   | 0x009A   |
| Data Size    | 12 bytes |
| Instructions | 3        |

```
      00 01 02 03 04 05 06 07  08 09 0A 0B 0C 0D 0E 0F
      -- -- -- -- -- -- -- --  -- -- -- -- -- -- -- --
0090:                                A4 00 6C DB E1 07            ..l...
00A0: 01 02 80 08 80 00                                 ......          
```

#### Opcodes

```
  0: 0x009A [0xA4] EventEntity->Flags3.unknown_3_2 = 0
  1: 0x009C [0x6C] FADE_ENTITY_COLOR(entity_id=Unnamed NPC (ID: 17293787/0x0107E1DB), end_alpha=0*, fade_time=120*)
  2: 0x00A5 [0x00] END_REQSTACK()
```

### Event 65535.12

#### Metadata

| Field        | Value    |
|--------------|----------|
| Entrypoint   | 0x00A6   |
| Data Size    | 12 bytes |
| Instructions | 3        |

```
      00 01 02 03 04 05 06 07  08 09 0A 0B 0C 0D 0E 0F
      -- -- -- -- -- -- -- --  -- -- -- -- -- -- -- --
00A0:                   6C DB  E1 07 01 03 80 08 80 A4        l.........
00B0: 01 00                                             ..              
```

#### Opcodes

```
  0: 0x00A6 [0x6C] FADE_ENTITY_COLOR(entity_id=Unnamed NPC (ID: 17293787/0x0107E1DB), end_alpha=128*, fade_time=120*)
  1: 0x00AF [0xA4] EventEntity->Flags3.unknown_3_2 = 1
  2: 0x00B1 [0x00] END_REQSTACK()
```

### Event 65535.13

#### Metadata

| Field        | Value    |
|--------------|----------|
| Entrypoint   | 0x00B2   |
| Data Size    | 14 bytes |
| Instructions | 4        |

```
      00 01 02 03 04 05 06 07  08 09 0A 0B 0C 0D 0E 0F
      -- -- -- -- -- -- -- --  -- -- -- -- -- -- -- --
00B0:       32 09 80 1F 00 0A  80 0B 80 0C 80 1F 01 00    2.............
```

#### Opcodes

```
  0: 0x00B2 [0x32] ExtData[1]->MainSpeed = 6* * 0.1
  1: 0x00B5 [0x1F] MOVE_ENTITY: EventEntity moves to X=-118.272*, Z=309.037*, Y=-16.654*
  2: 0x00BD [0x1F] MOVE_ENTITY: Update entity position (mode=1)
  3: 0x00BF [0x00] END_REQSTACK()
```

### Event 65535.14

#### Metadata

| Field        | Value    |
|--------------|----------|
| Entrypoint   | 0x00C0   |
| Data Size    | 16 bytes |
| Instructions | 2        |

```
      00 01 02 03 04 05 06 07  08 09 0A 0B 0C 0D 0E 0F
      -- -- -- -- -- -- -- --  -- -- -- -- -- -- -- --
00C0: 5B 0D 80 DB E1 07 01 DB  E1 07 01 73 6D 61 30 00  [..........sma0.
```

#### Opcodes

```
  0: 0x00C0 [0x5B] LOAD_EXT_SCHEDULER: Load scheduler "sma0" with entities [Unnamed NPC (ID: 17293787/0x0107E1DB), Unnamed NPC (ID: 17293787/0x0107E1DB)], work=2575*
  1: 0x00CF [0x00] END_REQSTACK()
```

### Event 65535.15

#### Metadata

| Field        | Value    |
|--------------|----------|
| Entrypoint   | 0x00D0   |
| Data Size    | 16 bytes |
| Instructions | 2        |

```
      00 01 02 03 04 05 06 07  08 09 0A 0B 0C 0D 0E 0F
      -- -- -- -- -- -- -- --  -- -- -- -- -- -- -- --
00D0: 5B 0D 80 DB E1 07 01 DB  E1 07 01 73 6D 61 33 00  [..........sma3.
```

#### Opcodes

```
  0: 0x00D0 [0x5B] LOAD_EXT_SCHEDULER: Load scheduler "sma3" with entities [Unnamed NPC (ID: 17293787/0x0107E1DB), Unnamed NPC (ID: 17293787/0x0107E1DB)], work=2575*
  1: 0x00DF [0x00] END_REQSTACK()
```

### Event 65535.16

#### Metadata

| Field        | Value    |
|--------------|----------|
| Entrypoint   | 0x00E0   |
| Data Size    | 16 bytes |
| Instructions | 2        |

```
      00 01 02 03 04 05 06 07  08 09 0A 0B 0C 0D 0E 0F
      -- -- -- -- -- -- -- --  -- -- -- -- -- -- -- --
00E0: 5B 0D 80 DB E1 07 01 DB  E1 07 01 73 6D 61 35 00  [..........sma5.
```

#### Opcodes

```
  0: 0x00E0 [0x5B] LOAD_EXT_SCHEDULER: Load scheduler "sma5" with entities [Unnamed NPC (ID: 17293787/0x0107E1DB), Unnamed NPC (ID: 17293787/0x0107E1DB)], work=2575*
  1: 0x00EF [0x00] END_REQSTACK()
```

### Event 32

#### Metadata

| Field        | Value   |
|--------------|---------|
| Entrypoint   | 0x00F0  |
| Data Size    | 4 bytes |
| Instructions | 2       |

```
      00 01 02 03 04 05 06 07  08 09 0A 0B 0C 0D 0E 0F
      -- -- -- -- -- -- -- --  -- -- -- -- -- -- -- --
00F0: C0 00 80 00                                       ....            
```

#### Opcodes

```
  0: 0x00F0 [0xC0] EventEntity->Render.Flags3 |= 0x1000 // Set bit 12 (from 1*)
  1: 0x00F3 [0x00] END_REQSTACK()
```

### Event 34

#### Metadata

| Field        | Value   |
|--------------|---------|
| Entrypoint   | 0x00F4  |
| Data Size    | 4 bytes |
| Instructions | 2       |

```
      00 01 02 03 04 05 06 07  08 09 0A 0B 0C 0D 0E 0F
      -- -- -- -- -- -- -- --  -- -- -- -- -- -- -- --
00F0:             C0 00 80 00                               ....        
```

#### Opcodes

```
  0: 0x00F4 [0xC0] EventEntity->Render.Flags3 |= 0x1000 // Set bit 12 (from 1*)
  1: 0x00F7 [0x00] END_REQSTACK()
```

### Event 65535.17

#### Metadata

| Field        | Value    |
|--------------|----------|
| Entrypoint   | 0x00F8   |
| Data Size    | 13 bytes |
| Instructions | 3        |

```
      00 01 02 03 04 05 06 07  08 09 0A 0B 0C 0D 0E 0F
      -- -- -- -- -- -- -- --  -- -- -- -- -- -- -- --
00F0:                          1C 0E 80 4A F0 FF FF 7F          ...J....
0100: D3 E1 07 01 00                                    .....           
```

#### Opcodes

```
  0: 0x00F8 [0x1C] WAIT(60* ticks)
  1: 0x00FB [0x4A] LocalPlayer looks at Young Aldo (ID: 17293779/0x0107E1D3)
  2: 0x0104 [0x00] END_REQSTACK()
```

### Event 65535.18

#### Metadata

| Field        | Value     |
|--------------|-----------|
| Entrypoint   | 0x0105    |
| Data Size    | 129 bytes |
| Instructions | 17        |

```
      00 01 02 03 04 05 06 07  08 09 0A 0B 0C 0D 0E 0F
      -- -- -- -- -- -- -- --  -- -- -- -- -- -- -- --
0100:                6C D9 E1  07 01 03 80 0F 80 1C 10       l..........
0110: 80 6C D8 E1 07 01 03 80  0F 80 1C 10 80 2C D9 E1  .l...........,..
0120: 07 01 D9 E1 07 01 65 66  6F 6E 6C D7 E1 07 01 03  ......efonl.....
0130: 80 0F 80 1C 10 80 2C D8  E1 07 01 D8 E1 07 01 65  ......,........e
0140: 66 6F 6E 6C D6 E1 07 01  03 80 0F 80 1C 10 80 2C  fonl...........,
0150: D7 E1 07 01 D7 E1 07 01  65 66 6F 6E 6C D5 E1 07  ........efonl...
0160: 01 03 80 0F 80 1C 10 80  2C D6 E1 07 01 D6 E1 07  ........,.......
0170: 01 65 66 6F 6E 1C 10 80  2C D5 E1 07 01 D5 E1 07  .efon...,.......
0180: 01 65 66 6F 6E 00                                 .efon.          
```

#### Opcodes

```
  0: 0x0105 [0x6C] FADE_ENTITY_COLOR(entity_id=Seed Mandragora (ID: 17293785/0x0107E1D9), end_alpha=128*, fade_time=65*)
  1: 0x010E [0x1C] WAIT(10* ticks)
  2: 0x0111 [0x6C] FADE_ENTITY_COLOR(entity_id=Seed Mandragora (ID: 17293784/0x0107E1D8), end_alpha=128*, fade_time=65*)
  3: 0x011A [0x1C] WAIT(10* ticks)
  4: 0x011D [0x2C] CREATE_SCHEDULER_TASK: Create scheduler "efon" with entities [Seed Mandragora (ID: 17293785/0x0107E1D9), Seed Mandragora (ID: 17293785/0x0107E1D9)]
  5: 0x012A [0x6C] FADE_ENTITY_COLOR(entity_id=Seed Mandragora (ID: 17293783/0x0107E1D7), end_alpha=128*, fade_time=65*)
  6: 0x0133 [0x1C] WAIT(10* ticks)
  7: 0x0136 [0x2C] CREATE_SCHEDULER_TASK: Create scheduler "efon" with entities [Seed Mandragora (ID: 17293784/0x0107E1D8), Seed Mandragora (ID: 17293784/0x0107E1D8)]
  8: 0x0143 [0x6C] FADE_ENTITY_COLOR(entity_id=Seed Mandragora (ID: 17293782/0x0107E1D6), end_alpha=128*, fade_time=65*)
  9: 0x014C [0x1C] WAIT(10* ticks)
 10: 0x014F [0x2C] CREATE_SCHEDULER_TASK: Create scheduler "efon" with entities [Seed Mandragora (ID: 17293783/0x0107E1D7), Seed Mandragora (ID: 17293783/0x0107E1D7)]
 11: 0x015C [0x6C] FADE_ENTITY_COLOR(entity_id=Seed Mandragora (ID: 17293781/0x0107E1D5), end_alpha=128*, fade_time=65*)
 12: 0x0165 [0x1C] WAIT(10* ticks)
 13: 0x0168 [0x2C] CREATE_SCHEDULER_TASK: Create scheduler "efon" with entities [Seed Mandragora (ID: 17293782/0x0107E1D6), Seed Mandragora (ID: 17293782/0x0107E1D6)]
 14: 0x0175 [0x1C] WAIT(10* ticks)
 15: 0x0178 [0x2C] CREATE_SCHEDULER_TASK: Create scheduler "efon" with entities [Seed Mandragora (ID: 17293781/0x0107E1D5), Seed Mandragora (ID: 17293781/0x0107E1D5)]
 16: 0x0185 [0x00] END_REQSTACK()
```

### Event 45

#### Metadata

| Field        | Value   |
|--------------|---------|
| Entrypoint   | 0x0186  |
| Data Size    | 1 bytes |
| Instructions | 1       |

```
      00 01 02 03 04 05 06 07  08 09 0A 0B 0C 0D 0E 0F
      -- -- -- -- -- -- -- --  -- -- -- -- -- -- -- --
0180:                   00                                    .         
```

#### Opcodes

```
  0: 0x0186 [0x00] END_REQSTACK()
```

### Event 65535.19

#### Metadata

| Field        | Value    |
|--------------|----------|
| Entrypoint   | 0x0187   |
| Data Size    | 19 bytes |
| Instructions | 5        |

```
      00 01 02 03 04 05 06 07  08 09 0A 0B 0C 0D 0E 0F
      -- -- -- -- -- -- -- --  -- -- -- -- -- -- -- --
0180:                      B6  00 11 80 22 00 92 01 F8         ...."....
0190: FF FF 7F 94 01 F8 FF FF  7F 00                    ..........      
```

#### Opcodes

```
  0: 0x0187 [0xB6] ENTITY_APPEARANCE_HANDLER(case=Hair style, value=2283*)
  1: 0x018B [0x22] ENTITY_HIDE_FLAG(enabled=0x00)
  2: 0x018D [0x92] EventEntity->Render.Flags3 ^= 0x01
  3: 0x0193 [0x94] EventEntity->Render.Flags3 ^= 0x01
  4: 0x0199 [0x00] END_REQSTACK()
```

### Event 65535.20

#### Metadata

| Field        | Value   |
|--------------|---------|
| Entrypoint   | 0x019A  |
| Data Size    | 5 bytes |
| Instructions | 2       |

```
      00 01 02 03 04 05 06 07  08 09 0A 0B 0C 0D 0E 0F
      -- -- -- -- -- -- -- --  -- -- -- -- -- -- -- --
0190:                                B6 00 11 80 00               ..... 
```

#### Opcodes

```
  0: 0x019A [0xB6] ENTITY_APPEARANCE_HANDLER(case=Hair style, value=2283*)
  1: 0x019E [0x00] END_REQSTACK()
```

### Event 65535.21

#### Metadata

| Field        | Value   |
|--------------|---------|
| Entrypoint   | 0x019F  |
| Data Size    | 5 bytes |
| Instructions | 2       |

```
      00 01 02 03 04 05 06 07  08 09 0A 0B 0C 0D 0E 0F
      -- -- -- -- -- -- -- --  -- -- -- -- -- -- -- --
0190:                                               B6                 .
01A0: 00 12 80 00                                       ....            
```

#### Opcodes

```
  0: 0x019F [0xB6] ENTITY_APPEARANCE_HANDLER(case=Hair style, value=2275*)
  1: 0x01A3 [0x00] END_REQSTACK()
```

### Event 65535.22

#### Metadata

| Field        | Value    |
|--------------|----------|
| Entrypoint   | 0x01A4   |
| Data Size    | 37 bytes |
| Instructions | 5        |

```
      00 01 02 03 04 05 06 07  08 09 0A 0B 0C 0D 0E 0F
      -- -- -- -- -- -- -- --  -- -- -- -- -- -- -- --
01A0:             3B DA E1 07  01 00 00 01 00 02 00 3A      ;..........:
01B0: DA E1 07 01 03 00 BA F8  FF FF 7F 00 00 01 00 02  ................
01C0: 00 03 00 80 F8 FF FF 7F  00                       .........       
```

#### Opcodes

```
  0: 0x01A4 [0x3B] GET_ENTITY_POSITION(entity=??? (ID: 17293786/0x0107E1DA), x_destination=ExtData[1]->WorkLocal[0], y_destination=ExtData[1]->WorkLocal[1], z_destination=ExtData[1]->WorkLocal[2])
  1: 0x01AF [0x3A] CONVERT_YAW_TO_BYTE(entity=??? (ID: 17293786/0x0107E1DA), result_destination=ExtData[1]->WorkLocal[3])
  2: 0x01B6 [0xBA] SET_ENTITY_POSITION(entity_id=EventEntity, pos_x=ExtData[1]->WorkLocal[0], pos_z=ExtData[1]->WorkLocal[1], pos_y=ExtData[1]->WorkLocal[2], direction=ExtData[1]->WorkLocal[3])
  3: 0x01C3 [0x80] LOAD_WAIT(entity=EventEntity)
  4: 0x01C8 [0x00] END_REQSTACK()
```

### Event 65535.23

#### Metadata

| Field        | Value    |
|--------------|----------|
| Entrypoint   | 0x01C9   |
| Data Size    | 24 bytes |
| Instructions | 4        |

```
      00 01 02 03 04 05 06 07  08 09 0A 0B 0C 0D 0E 0F
      -- -- -- -- -- -- -- --  -- -- -- -- -- -- -- --
01C0:                             07 00 00 13 80 BA F8           .......
01D0: FF FF 7F 00 00 01 00 02  00 03 00 80 F8 FF FF 7F  ................
01E0: 00                                                .               
```

#### Opcodes

```
  0: 0x01C9 [0x07] ExtData[1]->WorkLocal[0] += 350*
  1: 0x01CE [0xBA] SET_ENTITY_POSITION(entity_id=EventEntity, pos_x=ExtData[1]->WorkLocal[0], pos_z=ExtData[1]->WorkLocal[1], pos_y=ExtData[1]->WorkLocal[2], direction=ExtData[1]->WorkLocal[3])
  2: 0x01DB [0x80] LOAD_WAIT(entity=EventEntity)
  3: 0x01E0 [0x00] END_REQSTACK()
```

### Event 65535.24

#### Metadata

| Field        | Value    |
|--------------|----------|
| Entrypoint   | 0x01E1   |
| Data Size    | 10 bytes |
| Instructions | 2        |

```
      00 01 02 03 04 05 06 07  08 09 0A 0B 0C 0D 0E 0F
      -- -- -- -- -- -- -- --  -- -- -- -- -- -- -- --
01E0:    6C F8 FF FF 7F 03 80  02 80 00                  l.........     
```

#### Opcodes

```
  0: 0x01E1 [0x6C] FADE_ENTITY_COLOR(entity_id=EventEntity, end_alpha=128*, fade_time=0*)
  1: 0x01EA [0x00] END_REQSTACK()
```

### Event 65535.25

#### Metadata

| Field        | Value    |
|--------------|----------|
| Entrypoint   | 0x01EB   |
| Data Size    | 10 bytes |
| Instructions | 2        |

```
      00 01 02 03 04 05 06 07  08 09 0A 0B 0C 0D 0E 0F
      -- -- -- -- -- -- -- --  -- -- -- -- -- -- -- --
01E0:                                   6C F8 FF FF 7F             l....
01F0: 02 80 02 80 00                                    .....           
```

#### Opcodes

```
  0: 0x01EB [0x6C] FADE_ENTITY_COLOR(entity_id=EventEntity, end_alpha=0*, fade_time=0*)
  1: 0x01F4 [0x00] END_REQSTACK()
```

### Event 65535.26

#### Metadata

| Field        | Value    |
|--------------|----------|
| Entrypoint   | 0x01F5   |
| Data Size    | 16 bytes |
| Instructions | 2        |

```
      00 01 02 03 04 05 06 07  08 09 0A 0B 0C 0D 0E 0F
      -- -- -- -- -- -- -- --  -- -- -- -- -- -- -- --
01F0:                5B 14 80  F8 FF FF 7F F8 FF FF 7F       [..........
0200: 6C 61 74 6C 00                                    latl.           
```

#### Opcodes

```
  0: 0x01F5 [0x5B] LOAD_EXT_SCHEDULER: Load scheduler "latl" with entities [EventEntity, EventEntity], work=2635*
  1: 0x0204 [0x00] END_REQSTACK()
```

### Event 65535.27

#### Metadata

| Field        | Value    |
|--------------|----------|
| Entrypoint   | 0x0205   |
| Data Size    | 16 bytes |
| Instructions | 2        |

```
      00 01 02 03 04 05 06 07  08 09 0A 0B 0C 0D 0E 0F
      -- -- -- -- -- -- -- --  -- -- -- -- -- -- -- --
0200:                5B 14 80  F8 FF FF 7F F8 FF FF 7F       [..........
0210: 6C 61 74 31 00                                    lat1.           
```

#### Opcodes

```
  0: 0x0205 [0x5B] LOAD_EXT_SCHEDULER: Load scheduler "lat1" with entities [EventEntity, EventEntity], work=2635*
  1: 0x0214 [0x00] END_REQSTACK()
```

### Event 65535.28

#### Metadata

| Field        | Value    |
|--------------|----------|
| Entrypoint   | 0x0215   |
| Data Size    | 16 bytes |
| Instructions | 2        |

```
      00 01 02 03 04 05 06 07  08 09 0A 0B 0C 0D 0E 0F
      -- -- -- -- -- -- -- --  -- -- -- -- -- -- -- --
0210:                5B 14 80  F8 FF FF 7F F8 FF FF 7F       [..........
0220: 6C 61 74 32 00                                    lat2.           
```

#### Opcodes

```
  0: 0x0215 [0x5B] LOAD_EXT_SCHEDULER: Load scheduler "lat2" with entities [EventEntity, EventEntity], work=2635*
  1: 0x0224 [0x00] END_REQSTACK()
```

### Event 65535.29

#### Metadata

| Field        | Value    |
|--------------|----------|
| Entrypoint   | 0x0225   |
| Data Size    | 16 bytes |
| Instructions | 2        |

```
      00 01 02 03 04 05 06 07  08 09 0A 0B 0C 0D 0E 0F
      -- -- -- -- -- -- -- --  -- -- -- -- -- -- -- --
0220:                5B 14 80  F8 FF FF 7F F8 FF FF 7F       [..........
0230: 6C 61 74 33 00                                    lat3.           
```

#### Opcodes

```
  0: 0x0225 [0x5B] LOAD_EXT_SCHEDULER: Load scheduler "lat3" with entities [EventEntity, EventEntity], work=2635*
  1: 0x0234 [0x00] END_REQSTACK()
```

### Event 65535.30

#### Metadata

| Field        | Value    |
|--------------|----------|
| Entrypoint   | 0x0235   |
| Data Size    | 16 bytes |
| Instructions | 2        |

```
      00 01 02 03 04 05 06 07  08 09 0A 0B 0C 0D 0E 0F
      -- -- -- -- -- -- -- --  -- -- -- -- -- -- -- --
0230:                5B 14 80  F8 FF FF 7F F8 FF FF 7F       [..........
0240: 6C 61 74 34 00                                    lat4.           
```

#### Opcodes

```
  0: 0x0235 [0x5B] LOAD_EXT_SCHEDULER: Load scheduler "lat4" with entities [EventEntity, EventEntity], work=2635*
  1: 0x0244 [0x00] END_REQSTACK()
```

### Event 65535.31

#### Metadata

| Field        | Value    |
|--------------|----------|
| Entrypoint   | 0x0245   |
| Data Size    | 16 bytes |
| Instructions | 2        |

```
      00 01 02 03 04 05 06 07  08 09 0A 0B 0C 0D 0E 0F
      -- -- -- -- -- -- -- --  -- -- -- -- -- -- -- --
0240:                5B 14 80  F8 FF FF 7F F8 FF FF 7F       [..........
0250: 73 65 69 6C 00                                    seil.           
```

#### Opcodes

```
  0: 0x0245 [0x5B] LOAD_EXT_SCHEDULER: Load scheduler "seil" with entities [EventEntity, EventEntity], work=2635*
  1: 0x0254 [0x00] END_REQSTACK()
```

### Event 65535.32

#### Metadata

| Field        | Value    |
|--------------|----------|
| Entrypoint   | 0x0255   |
| Data Size    | 19 bytes |
| Instructions | 3        |

```
      00 01 02 03 04 05 06 07  08 09 0A 0B 0C 0D 0E 0F
      -- -- -- -- -- -- -- --  -- -- -- -- -- -- -- --
0250:                5B 14 80  F8 FF FF 7F F8 FF FF 7F       [..........
0260: 73 65 69 30 1C 15 80 00                           sei0....        
```

#### Opcodes

```
  0: 0x0255 [0x5B] LOAD_EXT_SCHEDULER: Load scheduler "sei0" with entities [EventEntity, EventEntity], work=2635*
  1: 0x0264 [0x1C] WAIT(177* ticks)
  2: 0x0267 [0x00] END_REQSTACK()
```

### Event 65535.33

#### Metadata

| Field        | Value    |
|--------------|----------|
| Entrypoint   | 0x0268   |
| Data Size    | 16 bytes |
| Instructions | 2        |

```
      00 01 02 03 04 05 06 07  08 09 0A 0B 0C 0D 0E 0F
      -- -- -- -- -- -- -- --  -- -- -- -- -- -- -- --
0260:                          5B 16 80 F8 FF FF 7F F8          [.......
0270: FF FF 7F 64 6C 36 30 00                           ...dl60.        
```

#### Opcodes

```
  0: 0x0268 [0x5B] LOAD_EXT_SCHEDULER: Load scheduler "dl60" with entities [EventEntity, EventEntity], work=2637*
  1: 0x0277 [0x00] END_REQSTACK()
```

### Event 65535.34

#### Metadata

| Field        | Value    |
|--------------|----------|
| Entrypoint   | 0x0278   |
| Data Size    | 19 bytes |
| Instructions | 3        |

```
      00 01 02 03 04 05 06 07  08 09 0A 0B 0C 0D 0E 0F
      -- -- -- -- -- -- -- --  -- -- -- -- -- -- -- --
0270:                          5B 16 80 F8 FF FF 7F F8          [.......
0280: FF FF 7F 64 6C 36 31 1C  17 80 00                 ...dl61....     
```

#### Opcodes

```
  0: 0x0278 [0x5B] LOAD_EXT_SCHEDULER: Load scheduler "dl61" with entities [EventEntity, EventEntity], work=2637*
  1: 0x0287 [0x1C] WAIT(144* ticks)
  2: 0x028A [0x00] END_REQSTACK()
```

### Event 65535.35

#### Metadata

| Field        | Value    |
|--------------|----------|
| Entrypoint   | 0x028B   |
| Data Size    | 36 bytes |
| Instructions | 4        |

```
      00 01 02 03 04 05 06 07  08 09 0A 0B 0C 0D 0E 0F
      -- -- -- -- -- -- -- --  -- -- -- -- -- -- -- --
0280:                                   5B 14 80 F8 FF             [....
0290: FF 7F F8 FF FF 7F 68 72  6F 30 1C 18 80 C5 19 80  ......hro0......
02A0: F8 FF FF 7F F8 FF FF 7F  73 74 30 31 02 80 00     ........st01... 
```

#### Opcodes

```
  0: 0x028B [0x5B] LOAD_EXT_SCHEDULER: Load scheduler "hro0" with entities [EventEntity, EventEntity], work=2635*
  1: 0x029A [0x1C] WAIT(55* ticks)
  2: 0x029D [0xC5] LOAD_SCHEDULED_TASK_ALT3: Load scheduler 0x80023130 for entities [EventEntity, EventEntity], work=189*, param=29811
  3: 0x02AE [0x00] END_REQSTACK()
```

### Event 65535.36

#### Metadata

| Field        | Value    |
|--------------|----------|
| Entrypoint   | 0x02AF   |
| Data Size    | 39 bytes |
| Instructions | 5        |

```
      00 01 02 03 04 05 06 07  08 09 0A 0B 0C 0D 0E 0F
      -- -- -- -- -- -- -- --  -- -- -- -- -- -- -- --
02A0:                                               C5                 .
02B0: 19 80 F8 FF FF 7F F8 FF  FF 7F 73 74 30 32 02 80  ..........st02..
02C0: 1C 1A 80 5B 14 80 F8 FF  FF 7F F8 FF FF 7F 68 72  ...[..........hr
02D0: 6F 31 1C 1B 80 00                                 o1....          
```

#### Opcodes

```
  0: 0x02AF [0xC5] LOAD_SCHEDULED_TASK_ALT3: Load scheduler 0x80023230 for entities [EventEntity, EventEntity], work=189*, param=29811
  1: 0x02C0 [0x1C] WAIT(90* ticks)
  2: 0x02C3 [0x5B] LOAD_EXT_SCHEDULER: Load scheduler "hro1" with entities [EventEntity, EventEntity], work=2635*
  3: 0x02D2 [0x1C] WAIT(296* ticks)
  4: 0x02D5 [0x00] END_REQSTACK()
```

### Event 65535.37

#### Metadata

| Field        | Value    |
|--------------|----------|
| Entrypoint   | 0x02D6   |
| Data Size    | 36 bytes |
| Instructions | 4        |

```
      00 01 02 03 04 05 06 07  08 09 0A 0B 0C 0D 0E 0F
      -- -- -- -- -- -- -- --  -- -- -- -- -- -- -- --
02D0:                   5B 14  80 F8 FF FF 7F F8 FF FF        [.........
02E0: 7F 68 72 6F 32 1C 1C 80  C5 19 80 F8 FF FF 7F F8  .hro2...........
02F0: FF FF 7F 73 74 30 31 02  80 00                    ...st01...      
```

#### Opcodes

```
  0: 0x02D6 [0x5B] LOAD_EXT_SCHEDULER: Load scheduler "hro2" with entities [EventEntity, EventEntity], work=2635*
  1: 0x02E5 [0x1C] WAIT(45* ticks)
  2: 0x02E8 [0xC5] LOAD_SCHEDULED_TASK_ALT3: Load scheduler 0x80023130 for entities [EventEntity, EventEntity], work=189*, param=29811
  3: 0x02F9 [0x00] END_REQSTACK()
```
