# 17293779 - Young Aldo

## Common Data

| Field            | Value                  |
|------------------|------------------------|
| Zone             | Qufim Island (ID: 126) |
| Block Size       | 996 bytes              |
| Total Events     | 46                     |
| References Count | 19                     |

## List of Events

| Event ID                   | Entrypoint   |   Size |   Instructions |
|----------------------------|--------------|--------|----------------|
| [65535](#event-65535)      | 0x0000       |      1 |              1 |
| [31](#event-31)            | 0x0001       |      4 |              2 |
| [65535.1](#event-655351)   | 0x0005       |     16 |              2 |
| [65535.2](#event-655352)   | 0x0015       |     16 |              2 |
| [65535.3](#event-655353)   | 0x0025       |     16 |              2 |
| [65535.4](#event-655354)   | 0x0035       |     29 |              3 |
| [65535.5](#event-655355)   | 0x0052       |     16 |              2 |
| [65535.6](#event-655356)   | 0x0062       |     29 |              3 |
| [65535.7](#event-655357)   | 0x007F       |     16 |              2 |
| [65535.8](#event-655358)   | 0x008F       |     16 |              2 |
| [65535.9](#event-655359)   | 0x009F       |     16 |              2 |
| [65535.10](#event-6553510) | 0x00AF       |     16 |              2 |
| [65535.11](#event-6553511) | 0x00BF       |     16 |              2 |
| [65535.12](#event-6553512) | 0x00CF       |     16 |              2 |
| [65535.13](#event-6553513) | 0x00DF       |     18 |              2 |
| [65535.14](#event-6553514) | 0x00F1       |     18 |              2 |
| [65535.15](#event-6553515) | 0x0103       |     18 |              2 |
| [65535.16](#event-6553516) | 0x0115       |     18 |              2 |
| [65535.17](#event-6553517) | 0x0127       |     18 |              2 |
| [65535.18](#event-6553518) | 0x0139       |     12 |              3 |
| [65535.19](#event-6553519) | 0x0145       |     12 |              3 |
| [65535.20](#event-6553520) | 0x0151       |     12 |              3 |
| [65535.21](#event-6553521) | 0x015D       |     12 |              3 |
| [65535.22](#event-6553522) | 0x0169       |     15 |              5 |
| [65535.23](#event-6553523) | 0x0178       |     16 |              2 |
| [65535.24](#event-6553524) | 0x0188       |     16 |              2 |
| [65535.25](#event-6553525) | 0x0198       |     16 |              2 |
| [65535.26](#event-6553526) | 0x01A8       |     16 |              2 |
| [65535.27](#event-6553527) | 0x01B8       |     16 |              2 |
| [65535.28](#event-6553528) | 0x01C8       |     16 |              2 |
| [32](#event-32)            | 0x01D8       |      1 |              1 |
| [65535.29](#event-6553529) | 0x01D9       |     16 |              2 |
| [65535.30](#event-6553530) | 0x01E9       |     29 |              3 |
| [65535.31](#event-6553531) | 0x0206       |     16 |              2 |
| [65535.32](#event-6553532) | 0x0216       |     16 |              2 |
| [65535.33](#event-6553533) | 0x0226       |     16 |              2 |
| [65535.34](#event-6553534) | 0x0236       |     16 |              2 |
| [65535.35](#event-6553535) | 0x0246       |     16 |              2 |
| [65535.36](#event-6553536) | 0x0256       |     16 |              2 |
| [65535.37](#event-6553537) | 0x0266       |     16 |              2 |
| [65535.38](#event-6553538) | 0x0276       |     16 |              2 |
| [65535.39](#event-6553539) | 0x0286       |     16 |              2 |
| [65535.40](#event-6553540) | 0x0296       |     16 |              2 |
| [65535.41](#event-6553541) | 0x02A6       |     16 |              2 |
| [65535.42](#event-6553542) | 0x02B6       |     20 |              5 |
| [34](#event-34)            | 0x02CA       |      4 |              2 |

## DAT References (imed_data)

|   Index | Hex Value   |   Dec Value |
|---------|-------------|-------------|
|       0 | 0x0001      |           1 |
|       1 | 0x0A09      |        2569 |
|       2 | 0x0A0E      |        2574 |
|       3 | 0x0A0C      |        2572 |
|       4 | 0x0A0B      |        2571 |
|       5 | 0x0052      |          82 |
|       6 | 0x0000      |           0 |
|       7 | 0x0078      |         120 |
|       8 | 0x0080      |         128 |
|       9 | 0x000B      |          11 |
|      10 | 0xFFFE3200  |  4294849024 |
|      11 | 0x4B72D     |      309037 |
|      12 | 0xFFFFBEF2  |  4294950642 |
|      13 | 0x0A0F      |        2575 |
|      14 | 0x0A0A      |        2570 |
|      15 | 0x000D      |          13 |
|      16 | 0xFFFE0F3F  |  4294840127 |
|      17 | 0x46D1C     |      290076 |
|      18 | 0xFFFFB42A  |  4294947882 |

## Events

### Event 65535

#### Metadata

| Field        | Value   |
|--------------|---------|
| Entrypoint   | 0x0000  |
| Data Size    | 1 bytes |
| Instructions | 1       |

```
      00 01 02 03 04 05 06 07  08 09 0A 0B 0C 0D 0E 0F
      -- -- -- -- -- -- -- --  -- -- -- -- -- -- -- --
0000: 00                                                .               
```

#### Opcodes

```
  0: 0x0000 [0x00] END_REQSTACK()
```

### Event 31

#### Metadata

| Field        | Value   |
|--------------|---------|
| Entrypoint   | 0x0001  |
| Data Size    | 4 bytes |
| Instructions | 2       |

```
      00 01 02 03 04 05 06 07  08 09 0A 0B 0C 0D 0E 0F
      -- -- -- -- -- -- -- --  -- -- -- -- -- -- -- --
0000:    C0 00 80 00                                     ....           
```

#### Opcodes

```
  0: 0x0001 [0xC0] EventEntity->Render.Flags3 |= 0x1000 // Set bit 12 (from 1*)
  1: 0x0004 [0x00] END_REQSTACK()
```

### Event 65535.1

#### Metadata

| Field        | Value    |
|--------------|----------|
| Entrypoint   | 0x0005   |
| Data Size    | 16 bytes |
| Instructions | 2        |

```
      00 01 02 03 04 05 06 07  08 09 0A 0B 0C 0D 0E 0F
      -- -- -- -- -- -- -- --  -- -- -- -- -- -- -- --
0000:                5B 01 80  D3 E1 07 01 D3 E1 07 01       [..........
0010: 74 6C 62 30 00                                    tlb0.           
```

#### Opcodes

```
  0: 0x0005 [0x5B] LOAD_EXT_SCHEDULER: Load scheduler "tlb0" with entities [Young Aldo (ID: 17293779/0x0107E1D3), Young Aldo (ID: 17293779/0x0107E1D3)], work=2569*
  1: 0x0014 [0x00] END_REQSTACK()
```

### Event 65535.2

#### Metadata

| Field        | Value    |
|--------------|----------|
| Entrypoint   | 0x0015   |
| Data Size    | 16 bytes |
| Instructions | 2        |

```
      00 01 02 03 04 05 06 07  08 09 0A 0B 0C 0D 0E 0F
      -- -- -- -- -- -- -- --  -- -- -- -- -- -- -- --
0010:                5B 01 80  D3 E1 07 01 D3 E1 07 01       [..........
0020: 74 6C 62 31 00                                    tlb1.           
```

#### Opcodes

```
  0: 0x0015 [0x5B] LOAD_EXT_SCHEDULER: Load scheduler "tlb1" with entities [Young Aldo (ID: 17293779/0x0107E1D3), Young Aldo (ID: 17293779/0x0107E1D3)], work=2569*
  1: 0x0024 [0x00] END_REQSTACK()
```

### Event 65535.3

#### Metadata

| Field        | Value    |
|--------------|----------|
| Entrypoint   | 0x0025   |
| Data Size    | 16 bytes |
| Instructions | 2        |

```
      00 01 02 03 04 05 06 07  08 09 0A 0B 0C 0D 0E 0F
      -- -- -- -- -- -- -- --  -- -- -- -- -- -- -- --
0020:                5B 01 80  D3 E1 07 01 D3 E1 07 01       [..........
0030: 74 6C 61 30 00                                    tla0.           
```

#### Opcodes

```
  0: 0x0025 [0x5B] LOAD_EXT_SCHEDULER: Load scheduler "tla0" with entities [Young Aldo (ID: 17293779/0x0107E1D3), Young Aldo (ID: 17293779/0x0107E1D3)], work=2569*
  1: 0x0034 [0x00] END_REQSTACK()
```

### Event 65535.4

#### Metadata

| Field        | Value    |
|--------------|----------|
| Entrypoint   | 0x0035   |
| Data Size    | 29 bytes |
| Instructions | 3        |

```
      00 01 02 03 04 05 06 07  08 09 0A 0B 0C 0D 0E 0F
      -- -- -- -- -- -- -- --  -- -- -- -- -- -- -- --
0030:                5B 01 80  D3 E1 07 01 D3 E1 07 01       [..........
0040: 74 6C 61 31 53 D3 E1 07  01 D3 E1 07 01 74 6C 61  tla1S........tla
0050: 31 00                                             1.              
```

#### Opcodes

```
  0: 0x0035 [0x5B] LOAD_EXT_SCHEDULER: Load scheduler "tla1" with entities [Young Aldo (ID: 17293779/0x0107E1D3), Young Aldo (ID: 17293779/0x0107E1D3)], work=2569*
  1: 0x0044 [0x53] WAIT_SCHEDULER_TASK: Wait for scheduler "tla1" with entities [Young Aldo (ID: 17293779/0x0107E1D3), Young Aldo (ID: 17293779/0x0107E1D3)]
  2: 0x0051 [0x00] END_REQSTACK()
```

### Event 65535.5

#### Metadata

| Field        | Value    |
|--------------|----------|
| Entrypoint   | 0x0052   |
| Data Size    | 16 bytes |
| Instructions | 2        |

```
      00 01 02 03 04 05 06 07  08 09 0A 0B 0C 0D 0E 0F
      -- -- -- -- -- -- -- --  -- -- -- -- -- -- -- --
0050:       5B 02 80 D3 E1 07  01 D3 E1 07 01 63 68 61    [..........cha
0060: 30 00                                             0.              
```

#### Opcodes

```
  0: 0x0052 [0x5B] LOAD_EXT_SCHEDULER: Load scheduler "cha0" with entities [Young Aldo (ID: 17293779/0x0107E1D3), Young Aldo (ID: 17293779/0x0107E1D3)], work=2574*
  1: 0x0061 [0x00] END_REQSTACK()
```

### Event 65535.6

#### Metadata

| Field        | Value    |
|--------------|----------|
| Entrypoint   | 0x0062   |
| Data Size    | 29 bytes |
| Instructions | 3        |

```
      00 01 02 03 04 05 06 07  08 09 0A 0B 0C 0D 0E 0F
      -- -- -- -- -- -- -- --  -- -- -- -- -- -- -- --
0060:       5B 02 80 D3 E1 07  01 D3 E1 07 01 63 68 61    [..........cha
0070: 31 53 D3 E1 07 01 D3 E1  07 01 63 68 61 31 00     1S........cha1. 
```

#### Opcodes

```
  0: 0x0062 [0x5B] LOAD_EXT_SCHEDULER: Load scheduler "cha1" with entities [Young Aldo (ID: 17293779/0x0107E1D3), Young Aldo (ID: 17293779/0x0107E1D3)], work=2574*
  1: 0x0071 [0x53] WAIT_SCHEDULER_TASK: Wait for scheduler "cha1" with entities [Young Aldo (ID: 17293779/0x0107E1D3), Young Aldo (ID: 17293779/0x0107E1D3)]
  2: 0x007E [0x00] END_REQSTACK()
```

### Event 65535.7

#### Metadata

| Field        | Value    |
|--------------|----------|
| Entrypoint   | 0x007F   |
| Data Size    | 16 bytes |
| Instructions | 2        |

```
      00 01 02 03 04 05 06 07  08 09 0A 0B 0C 0D 0E 0F
      -- -- -- -- -- -- -- --  -- -- -- -- -- -- -- --
0070:                                               5B                 [
0080: 03 80 D3 E1 07 01 D3 E1  07 01 75 6B 65 30 00     ..........uke0. 
```

#### Opcodes

```
  0: 0x007F [0x5B] LOAD_EXT_SCHEDULER: Load scheduler "uke0" with entities [Young Aldo (ID: 17293779/0x0107E1D3), Young Aldo (ID: 17293779/0x0107E1D3)], work=2572*
  1: 0x008E [0x00] END_REQSTACK()
```

### Event 65535.8

#### Metadata

| Field        | Value    |
|--------------|----------|
| Entrypoint   | 0x008F   |
| Data Size    | 16 bytes |
| Instructions | 2        |

```
      00 01 02 03 04 05 06 07  08 09 0A 0B 0C 0D 0E 0F
      -- -- -- -- -- -- -- --  -- -- -- -- -- -- -- --
0080:                                               5B                 [
0090: 03 80 D3 E1 07 01 D3 E1  07 01 75 6B 65 31 00     ..........uke1. 
```

#### Opcodes

```
  0: 0x008F [0x5B] LOAD_EXT_SCHEDULER: Load scheduler "uke1" with entities [Young Aldo (ID: 17293779/0x0107E1D3), Young Aldo (ID: 17293779/0x0107E1D3)], work=2572*
  1: 0x009E [0x00] END_REQSTACK()
```

### Event 65535.9

#### Metadata

| Field        | Value    |
|--------------|----------|
| Entrypoint   | 0x009F   |
| Data Size    | 16 bytes |
| Instructions | 2        |

```
      00 01 02 03 04 05 06 07  08 09 0A 0B 0C 0D 0E 0F
      -- -- -- -- -- -- -- --  -- -- -- -- -- -- -- --
0090:                                               5B                 [
00A0: 03 80 D3 E1 07 01 D3 E1  07 01 75 6B 65 32 00     ..........uke2. 
```

#### Opcodes

```
  0: 0x009F [0x5B] LOAD_EXT_SCHEDULER: Load scheduler "uke2" with entities [Young Aldo (ID: 17293779/0x0107E1D3), Young Aldo (ID: 17293779/0x0107E1D3)], work=2572*
  1: 0x00AE [0x00] END_REQSTACK()
```

### Event 65535.10

#### Metadata

| Field        | Value    |
|--------------|----------|
| Entrypoint   | 0x00AF   |
| Data Size    | 16 bytes |
| Instructions | 2        |

```
      00 01 02 03 04 05 06 07  08 09 0A 0B 0C 0D 0E 0F
      -- -- -- -- -- -- -- --  -- -- -- -- -- -- -- --
00A0:                                               5B                 [
00B0: 01 80 D3 E1 07 01 D3 E1  07 01 79 65 73 30 00     ..........yes0. 
```

#### Opcodes

```
  0: 0x00AF [0x5B] LOAD_EXT_SCHEDULER: Load scheduler "yes0" with entities [Young Aldo (ID: 17293779/0x0107E1D3), Young Aldo (ID: 17293779/0x0107E1D3)], work=2569*
  1: 0x00BE [0x00] END_REQSTACK()
```

### Event 65535.11

#### Metadata

| Field        | Value    |
|--------------|----------|
| Entrypoint   | 0x00BF   |
| Data Size    | 16 bytes |
| Instructions | 2        |

```
      00 01 02 03 04 05 06 07  08 09 0A 0B 0C 0D 0E 0F
      -- -- -- -- -- -- -- --  -- -- -- -- -- -- -- --
00B0:                                               5B                 [
00C0: 04 80 D3 E1 07 01 D3 E1  07 01 6D 65 69 30 00     ..........mei0. 
```

#### Opcodes

```
  0: 0x00BF [0x5B] LOAD_EXT_SCHEDULER: Load scheduler "mei0" with entities [Young Aldo (ID: 17293779/0x0107E1D3), Young Aldo (ID: 17293779/0x0107E1D3)], work=2571*
  1: 0x00CE [0x00] END_REQSTACK()
```

### Event 65535.12

#### Metadata

| Field        | Value    |
|--------------|----------|
| Entrypoint   | 0x00CF   |
| Data Size    | 16 bytes |
| Instructions | 2        |

```
      00 01 02 03 04 05 06 07  08 09 0A 0B 0C 0D 0E 0F
      -- -- -- -- -- -- -- --  -- -- -- -- -- -- -- --
00C0:                                               5B                 [
00D0: 04 80 D3 E1 07 01 D3 E1  07 01 6D 65 69 31 00     ..........mei1. 
```

#### Opcodes

```
  0: 0x00CF [0x5B] LOAD_EXT_SCHEDULER: Load scheduler "mei1" with entities [Young Aldo (ID: 17293779/0x0107E1D3), Young Aldo (ID: 17293779/0x0107E1D3)], work=2571*
  1: 0x00DE [0x00] END_REQSTACK()
```

### Event 65535.13

#### Metadata

| Field        | Value    |
|--------------|----------|
| Entrypoint   | 0x00DF   |
| Data Size    | 18 bytes |
| Instructions | 2        |

```
      00 01 02 03 04 05 06 07  08 09 0A 0B 0C 0D 0E 0F
      -- -- -- -- -- -- -- --  -- -- -- -- -- -- -- --
00D0:                                               C5                 .
00E0: 05 80 D3 E1 07 01 D3 E1  07 01 73 30 30 30 06 80  ..........s000..
00F0: 00                                                .               
```

#### Opcodes

```
  0: 0x00DF [0xC5] LOAD_SCHEDULED_TASK_ALT3: Load scheduler 0x80063030 for entities [Young Aldo (ID: 17293779/0x0107E1D3), Young Aldo (ID: 17293779/0x0107E1D3)], work=82*, param=12403
  1: 0x00F0 [0x00] END_REQSTACK()
```

### Event 65535.14

#### Metadata

| Field        | Value    |
|--------------|----------|
| Entrypoint   | 0x00F1   |
| Data Size    | 18 bytes |
| Instructions | 2        |

```
      00 01 02 03 04 05 06 07  08 09 0A 0B 0C 0D 0E 0F
      -- -- -- -- -- -- -- --  -- -- -- -- -- -- -- --
00F0:    C5 05 80 D3 E1 07 01  D3 E1 07 01 73 30 30 31   ...........s001
0100: 06 80 00                                          ...             
```

#### Opcodes

```
  0: 0x00F1 [0xC5] LOAD_SCHEDULED_TASK_ALT3: Load scheduler 0x80063130 for entities [Young Aldo (ID: 17293779/0x0107E1D3), Young Aldo (ID: 17293779/0x0107E1D3)], work=82*, param=12403
  1: 0x0102 [0x00] END_REQSTACK()
```

### Event 65535.15

#### Metadata

| Field        | Value    |
|--------------|----------|
| Entrypoint   | 0x0103   |
| Data Size    | 18 bytes |
| Instructions | 2        |

```
      00 01 02 03 04 05 06 07  08 09 0A 0B 0C 0D 0E 0F
      -- -- -- -- -- -- -- --  -- -- -- -- -- -- -- --
0100:          C5 05 80 D3 E1  07 01 D3 E1 07 01 73 30     ...........s0
0110: 30 32 06 80 00                                    02...           
```

#### Opcodes

```
  0: 0x0103 [0xC5] LOAD_SCHEDULED_TASK_ALT3: Load scheduler 0x80063230 for entities [Young Aldo (ID: 17293779/0x0107E1D3), Young Aldo (ID: 17293779/0x0107E1D3)], work=82*, param=12403
  1: 0x0114 [0x00] END_REQSTACK()
```

### Event 65535.16

#### Metadata

| Field        | Value    |
|--------------|----------|
| Entrypoint   | 0x0115   |
| Data Size    | 18 bytes |
| Instructions | 2        |

```
      00 01 02 03 04 05 06 07  08 09 0A 0B 0C 0D 0E 0F
      -- -- -- -- -- -- -- --  -- -- -- -- -- -- -- --
0110:                C5 05 80  D3 E1 07 01 D3 E1 07 01       ...........
0120: 73 30 30 33 06 80 00                              s003...         
```

#### Opcodes

```
  0: 0x0115 [0xC5] LOAD_SCHEDULED_TASK_ALT3: Load scheduler 0x80063330 for entities [Young Aldo (ID: 17293779/0x0107E1D3), Young Aldo (ID: 17293779/0x0107E1D3)], work=82*, param=12403
  1: 0x0126 [0x00] END_REQSTACK()
```

### Event 65535.17

#### Metadata

| Field        | Value    |
|--------------|----------|
| Entrypoint   | 0x0127   |
| Data Size    | 18 bytes |
| Instructions | 2        |

```
      00 01 02 03 04 05 06 07  08 09 0A 0B 0C 0D 0E 0F
      -- -- -- -- -- -- -- --  -- -- -- -- -- -- -- --
0120:                      C5  05 80 D3 E1 07 01 D3 E1         .........
0130: 07 01 73 30 30 34 06 80  00                       ..s004...       
```

#### Opcodes

```
  0: 0x0127 [0xC5] LOAD_SCHEDULED_TASK_ALT3: Load scheduler 0x80063430 for entities [Young Aldo (ID: 17293779/0x0107E1D3), Young Aldo (ID: 17293779/0x0107E1D3)], work=82*, param=12403
  1: 0x0138 [0x00] END_REQSTACK()
```

### Event 65535.18

#### Metadata

| Field        | Value    |
|--------------|----------|
| Entrypoint   | 0x0139   |
| Data Size    | 12 bytes |
| Instructions | 3        |

```
      00 01 02 03 04 05 06 07  08 09 0A 0B 0C 0D 0E 0F
      -- -- -- -- -- -- -- --  -- -- -- -- -- -- -- --
0130:                             A4 00 6C D3 E1 07 01           ..l....
0140: 06 80 07 80 00                                    .....           
```

#### Opcodes

```
  0: 0x0139 [0xA4] EventEntity->Flags3.unknown_3_2 = 0
  1: 0x013B [0x6C] FADE_ENTITY_COLOR(entity_id=Young Aldo (ID: 17293779/0x0107E1D3), end_alpha=0*, fade_time=120*)
  2: 0x0144 [0x00] END_REQSTACK()
```

### Event 65535.19

#### Metadata

| Field        | Value    |
|--------------|----------|
| Entrypoint   | 0x0145   |
| Data Size    | 12 bytes |
| Instructions | 3        |

```
      00 01 02 03 04 05 06 07  08 09 0A 0B 0C 0D 0E 0F
      -- -- -- -- -- -- -- --  -- -- -- -- -- -- -- --
0140:                6C D3 E1  07 01 08 80 07 80 A4 01       l..........
0150: 00                                                .               
```

#### Opcodes

```
  0: 0x0145 [0x6C] FADE_ENTITY_COLOR(entity_id=Young Aldo (ID: 17293779/0x0107E1D3), end_alpha=128*, fade_time=120*)
  1: 0x014E [0xA4] EventEntity->Flags3.unknown_3_2 = 1
  2: 0x0150 [0x00] END_REQSTACK()
```

### Event 65535.20

#### Metadata

| Field        | Value    |
|--------------|----------|
| Entrypoint   | 0x0151   |
| Data Size    | 12 bytes |
| Instructions | 3        |

```
      00 01 02 03 04 05 06 07  08 09 0A 0B 0C 0D 0E 0F
      -- -- -- -- -- -- -- --  -- -- -- -- -- -- -- --
0150:    A4 00 6C D3 E1 07 01  06 80 06 80 00            ..l.........   
```

#### Opcodes

```
  0: 0x0151 [0xA4] EventEntity->Flags3.unknown_3_2 = 0
  1: 0x0153 [0x6C] FADE_ENTITY_COLOR(entity_id=Young Aldo (ID: 17293779/0x0107E1D3), end_alpha=0*, fade_time=0*)
  2: 0x015C [0x00] END_REQSTACK()
```

### Event 65535.21

#### Metadata

| Field        | Value    |
|--------------|----------|
| Entrypoint   | 0x015D   |
| Data Size    | 12 bytes |
| Instructions | 3        |

```
      00 01 02 03 04 05 06 07  08 09 0A 0B 0C 0D 0E 0F
      -- -- -- -- -- -- -- --  -- -- -- -- -- -- -- --
0150:                                         6C D3 E1               l..
0160: 07 01 08 80 06 80 A4 01  00                       .........       
```

#### Opcodes

```
  0: 0x015D [0x6C] FADE_ENTITY_COLOR(entity_id=Young Aldo (ID: 17293779/0x0107E1D3), end_alpha=128*, fade_time=0*)
  1: 0x0166 [0xA4] EventEntity->Flags3.unknown_3_2 = 1
  2: 0x0168 [0x00] END_REQSTACK()
```

### Event 65535.22

#### Metadata

| Field        | Value    |
|--------------|----------|
| Entrypoint   | 0x0169   |
| Data Size    | 15 bytes |
| Instructions | 5        |

```
      00 01 02 03 04 05 06 07  08 09 0A 0B 0C 0D 0E 0F
      -- -- -- -- -- -- -- --  -- -- -- -- -- -- -- --
0160:                             32 09 80 1F 00 0A 80           2......
0170: 0B 80 0C 80 1F 01 6F 00                           ......o.        
```

#### Opcodes

```
  0: 0x0169 [0x32] ExtData[1]->MainSpeed = 11* * 0.1
  1: 0x016C [0x1F] MOVE_ENTITY: EventEntity moves to X=-118.272*, Z=309.037*, Y=-16.654*
  2: 0x0174 [0x1F] MOVE_ENTITY: Update entity position (mode=1)
  3: 0x0176 [0x6F] WAIT_FRAME_DELAY: Yield until WaitTime reaches zero
  4: 0x0177 [0x00] END_REQSTACK()
```

### Event 65535.23

#### Metadata

| Field        | Value    |
|--------------|----------|
| Entrypoint   | 0x0178   |
| Data Size    | 16 bytes |
| Instructions | 2        |

```
      00 01 02 03 04 05 06 07  08 09 0A 0B 0C 0D 0E 0F
      -- -- -- -- -- -- -- --  -- -- -- -- -- -- -- --
0170:                          5B 0D 80 D3 E1 07 01 D3          [.......
0180: E1 07 01 73 6D 61 30 00                           ...sma0.        
```

#### Opcodes

```
  0: 0x0178 [0x5B] LOAD_EXT_SCHEDULER: Load scheduler "sma0" with entities [Young Aldo (ID: 17293779/0x0107E1D3), Young Aldo (ID: 17293779/0x0107E1D3)], work=2575*
  1: 0x0187 [0x00] END_REQSTACK()
```

### Event 65535.24

#### Metadata

| Field        | Value    |
|--------------|----------|
| Entrypoint   | 0x0188   |
| Data Size    | 16 bytes |
| Instructions | 2        |

```
      00 01 02 03 04 05 06 07  08 09 0A 0B 0C 0D 0E 0F
      -- -- -- -- -- -- -- --  -- -- -- -- -- -- -- --
0180:                          5B 0D 80 D3 E1 07 01 D3          [.......
0190: E1 07 01 73 6D 61 31 00                           ...sma1.        
```

#### Opcodes

```
  0: 0x0188 [0x5B] LOAD_EXT_SCHEDULER: Load scheduler "sma1" with entities [Young Aldo (ID: 17293779/0x0107E1D3), Young Aldo (ID: 17293779/0x0107E1D3)], work=2575*
  1: 0x0197 [0x00] END_REQSTACK()
```

### Event 65535.25

#### Metadata

| Field        | Value    |
|--------------|----------|
| Entrypoint   | 0x0198   |
| Data Size    | 16 bytes |
| Instructions | 2        |

```
      00 01 02 03 04 05 06 07  08 09 0A 0B 0C 0D 0E 0F
      -- -- -- -- -- -- -- --  -- -- -- -- -- -- -- --
0190:                          5B 0D 80 D3 E1 07 01 D3          [.......
01A0: E1 07 01 73 6D 61 32 00                           ...sma2.        
```

#### Opcodes

```
  0: 0x0198 [0x5B] LOAD_EXT_SCHEDULER: Load scheduler "sma2" with entities [Young Aldo (ID: 17293779/0x0107E1D3), Young Aldo (ID: 17293779/0x0107E1D3)], work=2575*
  1: 0x01A7 [0x00] END_REQSTACK()
```

### Event 65535.26

#### Metadata

| Field        | Value    |
|--------------|----------|
| Entrypoint   | 0x01A8   |
| Data Size    | 16 bytes |
| Instructions | 2        |

```
      00 01 02 03 04 05 06 07  08 09 0A 0B 0C 0D 0E 0F
      -- -- -- -- -- -- -- --  -- -- -- -- -- -- -- --
01A0:                          5B 0D 80 D3 E1 07 01 D3          [.......
01B0: E1 07 01 73 6D 61 33 00                           ...sma3.        
```

#### Opcodes

```
  0: 0x01A8 [0x5B] LOAD_EXT_SCHEDULER: Load scheduler "sma3" with entities [Young Aldo (ID: 17293779/0x0107E1D3), Young Aldo (ID: 17293779/0x0107E1D3)], work=2575*
  1: 0x01B7 [0x00] END_REQSTACK()
```

### Event 65535.27

#### Metadata

| Field        | Value    |
|--------------|----------|
| Entrypoint   | 0x01B8   |
| Data Size    | 16 bytes |
| Instructions | 2        |

```
      00 01 02 03 04 05 06 07  08 09 0A 0B 0C 0D 0E 0F
      -- -- -- -- -- -- -- --  -- -- -- -- -- -- -- --
01B0:                          5B 0D 80 D3 E1 07 01 D3          [.......
01C0: E1 07 01 73 6D 61 35 00                           ...sma5.        
```

#### Opcodes

```
  0: 0x01B8 [0x5B] LOAD_EXT_SCHEDULER: Load scheduler "sma5" with entities [Young Aldo (ID: 17293779/0x0107E1D3), Young Aldo (ID: 17293779/0x0107E1D3)], work=2575*
  1: 0x01C7 [0x00] END_REQSTACK()
```

### Event 65535.28

#### Metadata

| Field        | Value    |
|--------------|----------|
| Entrypoint   | 0x01C8   |
| Data Size    | 16 bytes |
| Instructions | 2        |

```
      00 01 02 03 04 05 06 07  08 09 0A 0B 0C 0D 0E 0F
      -- -- -- -- -- -- -- --  -- -- -- -- -- -- -- --
01C0:                          5B 0D 80 D3 E1 07 01 D3          [.......
01D0: E1 07 01 73 6D 61 36 00                           ...sma6.        
```

#### Opcodes

```
  0: 0x01C8 [0x5B] LOAD_EXT_SCHEDULER: Load scheduler "sma6" with entities [Young Aldo (ID: 17293779/0x0107E1D3), Young Aldo (ID: 17293779/0x0107E1D3)], work=2575*
  1: 0x01D7 [0x00] END_REQSTACK()
```

### Event 32

#### Metadata

| Field        | Value   |
|--------------|---------|
| Entrypoint   | 0x01D8  |
| Data Size    | 1 bytes |
| Instructions | 1       |

```
      00 01 02 03 04 05 06 07  08 09 0A 0B 0C 0D 0E 0F
      -- -- -- -- -- -- -- --  -- -- -- -- -- -- -- --
01D0:                          00                               .       
```

#### Opcodes

```
  0: 0x01D8 [0x00] END_REQSTACK()
```

### Event 65535.29

#### Metadata

| Field        | Value    |
|--------------|----------|
| Entrypoint   | 0x01D9   |
| Data Size    | 16 bytes |
| Instructions | 2        |

```
      00 01 02 03 04 05 06 07  08 09 0A 0B 0C 0D 0E 0F
      -- -- -- -- -- -- -- --  -- -- -- -- -- -- -- --
01D0:                             5B 02 80 D3 E1 07 01           [......
01E0: D3 E1 07 01 63 68 61 30  00                       ....cha0.       
```

#### Opcodes

```
  0: 0x01D9 [0x5B] LOAD_EXT_SCHEDULER: Load scheduler "cha0" with entities [Young Aldo (ID: 17293779/0x0107E1D3), Young Aldo (ID: 17293779/0x0107E1D3)], work=2574*
  1: 0x01E8 [0x00] END_REQSTACK()
```

### Event 65535.30

#### Metadata

| Field        | Value    |
|--------------|----------|
| Entrypoint   | 0x01E9   |
| Data Size    | 29 bytes |
| Instructions | 3        |

```
      00 01 02 03 04 05 06 07  08 09 0A 0B 0C 0D 0E 0F
      -- -- -- -- -- -- -- --  -- -- -- -- -- -- -- --
01E0:                             5B 02 80 D3 E1 07 01           [......
01F0: D3 E1 07 01 63 68 61 31  53 D3 E1 07 01 D3 E1 07  ....cha1S.......
0200: 01 63 68 61 31 00                                 .cha1.          
```

#### Opcodes

```
  0: 0x01E9 [0x5B] LOAD_EXT_SCHEDULER: Load scheduler "cha1" with entities [Young Aldo (ID: 17293779/0x0107E1D3), Young Aldo (ID: 17293779/0x0107E1D3)], work=2574*
  1: 0x01F8 [0x53] WAIT_SCHEDULER_TASK: Wait for scheduler "cha1" with entities [Young Aldo (ID: 17293779/0x0107E1D3), Young Aldo (ID: 17293779/0x0107E1D3)]
  2: 0x0205 [0x00] END_REQSTACK()
```

### Event 65535.31

#### Metadata

| Field        | Value    |
|--------------|----------|
| Entrypoint   | 0x0206   |
| Data Size    | 16 bytes |
| Instructions | 2        |

```
      00 01 02 03 04 05 06 07  08 09 0A 0B 0C 0D 0E 0F
      -- -- -- -- -- -- -- --  -- -- -- -- -- -- -- --
0200:                   5B 03  80 D3 E1 07 01 D3 E1 07        [.........
0210: 01 75 6B 65 30 00                                 .uke0.          
```

#### Opcodes

```
  0: 0x0206 [0x5B] LOAD_EXT_SCHEDULER: Load scheduler "uke0" with entities [Young Aldo (ID: 17293779/0x0107E1D3), Young Aldo (ID: 17293779/0x0107E1D3)], work=2572*
  1: 0x0215 [0x00] END_REQSTACK()
```

### Event 65535.32

#### Metadata

| Field        | Value    |
|--------------|----------|
| Entrypoint   | 0x0216   |
| Data Size    | 16 bytes |
| Instructions | 2        |

```
      00 01 02 03 04 05 06 07  08 09 0A 0B 0C 0D 0E 0F
      -- -- -- -- -- -- -- --  -- -- -- -- -- -- -- --
0210:                   5B 03  80 D3 E1 07 01 D3 E1 07        [.........
0220: 01 75 6B 65 31 00                                 .uke1.          
```

#### Opcodes

```
  0: 0x0216 [0x5B] LOAD_EXT_SCHEDULER: Load scheduler "uke1" with entities [Young Aldo (ID: 17293779/0x0107E1D3), Young Aldo (ID: 17293779/0x0107E1D3)], work=2572*
  1: 0x0225 [0x00] END_REQSTACK()
```

### Event 65535.33

#### Metadata

| Field        | Value    |
|--------------|----------|
| Entrypoint   | 0x0226   |
| Data Size    | 16 bytes |
| Instructions | 2        |

```
      00 01 02 03 04 05 06 07  08 09 0A 0B 0C 0D 0E 0F
      -- -- -- -- -- -- -- --  -- -- -- -- -- -- -- --
0220:                   5B 03  80 D3 E1 07 01 D3 E1 07        [.........
0230: 01 75 6B 65 32 00                                 .uke2.          
```

#### Opcodes

```
  0: 0x0226 [0x5B] LOAD_EXT_SCHEDULER: Load scheduler "uke2" with entities [Young Aldo (ID: 17293779/0x0107E1D3), Young Aldo (ID: 17293779/0x0107E1D3)], work=2572*
  1: 0x0235 [0x00] END_REQSTACK()
```

### Event 65535.34

#### Metadata

| Field        | Value    |
|--------------|----------|
| Entrypoint   | 0x0236   |
| Data Size    | 16 bytes |
| Instructions | 2        |

```
      00 01 02 03 04 05 06 07  08 09 0A 0B 0C 0D 0E 0F
      -- -- -- -- -- -- -- --  -- -- -- -- -- -- -- --
0230:                   5B 04  80 D3 E1 07 01 D3 E1 07        [.........
0240: 01 79 62 69 30 00                                 .ybi0.          
```

#### Opcodes

```
  0: 0x0236 [0x5B] LOAD_EXT_SCHEDULER: Load scheduler "ybi0" with entities [Young Aldo (ID: 17293779/0x0107E1D3), Young Aldo (ID: 17293779/0x0107E1D3)], work=2571*
  1: 0x0245 [0x00] END_REQSTACK()
```

### Event 65535.35

#### Metadata

| Field        | Value    |
|--------------|----------|
| Entrypoint   | 0x0246   |
| Data Size    | 16 bytes |
| Instructions | 2        |

```
      00 01 02 03 04 05 06 07  08 09 0A 0B 0C 0D 0E 0F
      -- -- -- -- -- -- -- --  -- -- -- -- -- -- -- --
0240:                   5B 04  80 D3 E1 07 01 D3 E1 07        [.........
0250: 01 79 62 69 31 00                                 .ybi1.          
```

#### Opcodes

```
  0: 0x0246 [0x5B] LOAD_EXT_SCHEDULER: Load scheduler "ybi1" with entities [Young Aldo (ID: 17293779/0x0107E1D3), Young Aldo (ID: 17293779/0x0107E1D3)], work=2571*
  1: 0x0255 [0x00] END_REQSTACK()
```

### Event 65535.36

#### Metadata

| Field        | Value    |
|--------------|----------|
| Entrypoint   | 0x0256   |
| Data Size    | 16 bytes |
| Instructions | 2        |

```
      00 01 02 03 04 05 06 07  08 09 0A 0B 0C 0D 0E 0F
      -- -- -- -- -- -- -- --  -- -- -- -- -- -- -- --
0250:                   5B 0E  80 D3 E1 07 01 D3 E1 07        [.........
0260: 01 75 64 61 30 00                                 .uda0.          
```

#### Opcodes

```
  0: 0x0256 [0x5B] LOAD_EXT_SCHEDULER: Load scheduler "uda0" with entities [Young Aldo (ID: 17293779/0x0107E1D3), Young Aldo (ID: 17293779/0x0107E1D3)], work=2570*
  1: 0x0265 [0x00] END_REQSTACK()
```

### Event 65535.37

#### Metadata

| Field        | Value    |
|--------------|----------|
| Entrypoint   | 0x0266   |
| Data Size    | 16 bytes |
| Instructions | 2        |

```
      00 01 02 03 04 05 06 07  08 09 0A 0B 0C 0D 0E 0F
      -- -- -- -- -- -- -- --  -- -- -- -- -- -- -- --
0260:                   5B 0E  80 D3 E1 07 01 D3 E1 07        [.........
0270: 01 75 64 61 31 00                                 .uda1.          
```

#### Opcodes

```
  0: 0x0266 [0x5B] LOAD_EXT_SCHEDULER: Load scheduler "uda1" with entities [Young Aldo (ID: 17293779/0x0107E1D3), Young Aldo (ID: 17293779/0x0107E1D3)], work=2570*
  1: 0x0275 [0x00] END_REQSTACK()
```

### Event 65535.38

#### Metadata

| Field        | Value    |
|--------------|----------|
| Entrypoint   | 0x0276   |
| Data Size    | 16 bytes |
| Instructions | 2        |

```
      00 01 02 03 04 05 06 07  08 09 0A 0B 0C 0D 0E 0F
      -- -- -- -- -- -- -- --  -- -- -- -- -- -- -- --
0270:                   5B 01  80 D3 E1 07 01 D3 E1 07        [.........
0280: 01 74 6C 62 30 00                                 .tlb0.          
```

#### Opcodes

```
  0: 0x0276 [0x5B] LOAD_EXT_SCHEDULER: Load scheduler "tlb0" with entities [Young Aldo (ID: 17293779/0x0107E1D3), Young Aldo (ID: 17293779/0x0107E1D3)], work=2569*
  1: 0x0285 [0x00] END_REQSTACK()
```

### Event 65535.39

#### Metadata

| Field        | Value    |
|--------------|----------|
| Entrypoint   | 0x0286   |
| Data Size    | 16 bytes |
| Instructions | 2        |

```
      00 01 02 03 04 05 06 07  08 09 0A 0B 0C 0D 0E 0F
      -- -- -- -- -- -- -- --  -- -- -- -- -- -- -- --
0280:                   5B 04  80 D3 E1 07 01 D3 E1 07        [.........
0290: 01 79 62 69 30 00                                 .ybi0.          
```

#### Opcodes

```
  0: 0x0286 [0x5B] LOAD_EXT_SCHEDULER: Load scheduler "ybi0" with entities [Young Aldo (ID: 17293779/0x0107E1D3), Young Aldo (ID: 17293779/0x0107E1D3)], work=2571*
  1: 0x0295 [0x00] END_REQSTACK()
```

### Event 65535.40

#### Metadata

| Field        | Value    |
|--------------|----------|
| Entrypoint   | 0x0296   |
| Data Size    | 16 bytes |
| Instructions | 2        |

```
      00 01 02 03 04 05 06 07  08 09 0A 0B 0C 0D 0E 0F
      -- -- -- -- -- -- -- --  -- -- -- -- -- -- -- --
0290:                   5B 04  80 D3 E1 07 01 D3 E1 07        [.........
02A0: 01 79 62 69 31 00                                 .ybi1.          
```

#### Opcodes

```
  0: 0x0296 [0x5B] LOAD_EXT_SCHEDULER: Load scheduler "ybi1" with entities [Young Aldo (ID: 17293779/0x0107E1D3), Young Aldo (ID: 17293779/0x0107E1D3)], work=2571*
  1: 0x02A5 [0x00] END_REQSTACK()
```

### Event 65535.41

#### Metadata

| Field        | Value    |
|--------------|----------|
| Entrypoint   | 0x02A6   |
| Data Size    | 16 bytes |
| Instructions | 2        |

```
      00 01 02 03 04 05 06 07  08 09 0A 0B 0C 0D 0E 0F
      -- -- -- -- -- -- -- --  -- -- -- -- -- -- -- --
02A0:                   5B 01  80 D3 E1 07 01 D3 E1 07        [.........
02B0: 01 79 65 73 30 00                                 .yes0.          
```

#### Opcodes

```
  0: 0x02A6 [0x5B] LOAD_EXT_SCHEDULER: Load scheduler "yes0" with entities [Young Aldo (ID: 17293779/0x0107E1D3), Young Aldo (ID: 17293779/0x0107E1D3)], work=2569*
  1: 0x02B5 [0x00] END_REQSTACK()
```

### Event 65535.42

#### Metadata

| Field        | Value    |
|--------------|----------|
| Entrypoint   | 0x02B6   |
| Data Size    | 20 bytes |
| Instructions | 5        |

```
      00 01 02 03 04 05 06 07  08 09 0A 0B 0C 0D 0E 0F
      -- -- -- -- -- -- -- --  -- -- -- -- -- -- -- --
02B0:                   59 04  D3 E1 07 01 0F 80 1F 00        Y.........
02C0: 10 80 11 80 12 80 1F 01  6F 00                    ........o.      
```

#### Opcodes

```
  0: 0x02B6 [0x59] UPDATE_ENTITY_DATA: Set Young Aldo (ID: 17293779/0x0107E1D3) main speed = 13* * 0.1
  1: 0x02BE [0x1F] MOVE_ENTITY: EventEntity moves to X=-127.169*, Z=290.076*, Y=-19.414*
  2: 0x02C6 [0x1F] MOVE_ENTITY: Update entity position (mode=1)
  3: 0x02C8 [0x6F] WAIT_FRAME_DELAY: Yield until WaitTime reaches zero
  4: 0x02C9 [0x00] END_REQSTACK()
```

### Event 34

#### Metadata

| Field        | Value   |
|--------------|---------|
| Entrypoint   | 0x02CA  |
| Data Size    | 4 bytes |
| Instructions | 2       |

```
      00 01 02 03 04 05 06 07  08 09 0A 0B 0C 0D 0E 0F
      -- -- -- -- -- -- -- --  -- -- -- -- -- -- -- --
02C0:                                C0 00 80 00                  ....  
```

#### Opcodes

```
  0: 0x02CA [0xC0] EventEntity->Render.Flags3 |= 0x1000 // Set bit 12 (from 1*)
  1: 0x02CD [0x00] END_REQSTACK()
```
