# 17293817

## Common Data

| Field            | Value                  |
|------------------|------------------------|
| Zone             | Qufim Island (ID: 126) |
| Block Size       | 1060 bytes             |
| Total Events     | 2                      |
| References Count | 19                     |

## List of Events

| Event ID              | Entrypoint   |   Size |   Instructions |
|-----------------------|--------------|--------|----------------|
| [65535](#event-65535) | 0x0000       |      1 |              1 |
| [47](#event-47)       | 0x0001       |    958 |            113 |

## DAT References (imed_data)

|   Index | Hex Value   |   Dec Value |
|---------|-------------|-------------|
|       0 | 0x0280      |         640 |
|       1 | 0x0000      |           0 |
|       2 | 0x04F7      |        1271 |
|       3 | 0x2CFB      |       11515 |
|       4 | 0x2CFC      |       11516 |
|       5 | 0x2CFD      |       11517 |
|       6 | 0x0001      |           1 |
|       7 | 0x2CFF      |       11519 |
|       8 | 0x40000000  |  1073741824 |
|       9 | 0x00C8      |         200 |
|      10 | 0x003C      |          60 |
|      11 | 0x0013      |          19 |
|      12 | 0x0230      |         560 |
|      13 | 0x00C9      |         201 |
|      14 | 0x001E      |          30 |
|      15 | 0x0088      |         136 |
|      16 | 0x002D      |          45 |
|      17 | 0x0002      |           2 |
|      18 | 0x00D7      |         215 |

## String References

- **11515**: Your $3 resonates with the eerie light before you.
- **11516**: You suspect that Al'Taieu lies on the other side of this dimensional distortion.
- **11517**: [Enter the portal/Warp to Abyssea - Empyreal Paradox]? [Proceed. ($3 cruor)/Not yet.]
- **11519**: You do not have enough energy in cruor to warp to your destination.

## Events

### Event 65535

#### Metadata

| Field        | Value   |
|--------------|---------|
| Entrypoint   | 0x0000  |
| Data Size    | 1 bytes |
| Instructions | 1       |

```
      00 01 02 03 04 05 06 07  08 09 0A 0B 0C 0D 0E 0F
      -- -- -- -- -- -- -- --  -- -- -- -- -- -- -- --
0000: 00                                                .               
```

#### Opcodes

```
  0: 0x0000 [0x00] END_REQSTACK()
```

### Event 47

#### Metadata

| Field        | Value     |
|--------------|-----------|
| Entrypoint   | 0x0001    |
| Data Size    | 958 bytes |
| Instructions | 58        |

```
      00 01 02 03 04 05 06 07  08 09 0A 0B 0C 0D 0E 0F
      -- -- -- -- -- -- -- --  -- -- -- -- -- -- -- --
0000:    20 01 4A F0 FF FF 7F  F8 E1 07 01 6F 76 F0 FF    .J........ov..
0010: FF 7F 79 02 F0 FF FF 7F  00 80 01 80 03 02 10 02  ..y.............
0020: 80 48 03 80 23 48 04 80  23 43 00 43 01 03 02 10  .H..#H..#C.C....
0030: 01 80 24 05 80 06 80 01  80 25 02 00 10 01 80 00  ..$......%......
0040: 1F 01 43 00 43 01 03 00  00 03 10 02 00 00 06 80  ..C.C...........
0050: 00 5B 00 03 01 10 06 80  01 6F 00 02 06 10 06 80  .[.......o......
0060: 00 67 00 48 07 80 23 03  01 10 08 80 01 2A 01 42  .g.H..#......*.B
0070: 46 01 45 09 80 F0 FF FF  7F F0 FF FF 7F 66 64 6F  F.E..........fdo
0080: 31 01 80 1C 0A 80 38 0B  80 29 01 F0 FF FF 7F 2F  1.....8..)...../
0090: 45 0C 80 F0 FF FF 7F F0  FF FF 7F 33 37 30 30 01  E..........3700.
00A0: 80 45 09 80 F0 FF FF 7F  F0 FF FF 7F 66 64 69 31  .E..........fdi1
00B0: 01 80 1C 0A 80 45 09 80  F0 FF FF 7F F0 FF FF 7F  .....E..........
00C0: 62 6C 6F 6E 01 80 45 0D  80 F0 FF FF 7F F0 FF FF  blon..E.........
00D0: 7F 62 6C 6F 6E 01 80 45  09 80 F0 FF FF 7F F0 FF  .blon..E........
00E0: FF 7F 6F 76 6C 31 01 80  29 01 F0 FF FF 7F 30 45  ..ovl1..).....0E
00F0: 09 80 F0 FF FF 7F F0 FF  FF 7F 62 6C 6F 66 01 80  ..........blof..
0100: 1C 0E 80 C5 0F 80 F0 FF  FF 7F F0 FF FF 7F 6B 69  ..............ki
0110: 6C 61 01 80 1A 91 01 1A  B2 01 46 00 01 2A 01 02  la........F..*..
0120: 00 10 06 80 00 2A 01 01  2A 01 20 00 21 00 45 09  .....*..*. .!.E.
0130: 80 F0 FF FF 7F F0 FF FF  7F 66 64 69 30 01 80 55  .........fdi0..U
0140: 09 80 F0 FF FF 7F F0 FF  FF 7F 66 64 69 30 1B 45  ..........fdi0.E
0150: 09 80 F0 FF FF 7F F0 FF  FF 7F 66 64 6F 30 01 80  ..........fdo0..
0160: 55 09 80 F0 FF FF 7F F0  FF FF 7F 66 64 6F 30 1B  U..........fdo0.
0170: 45 09 80 F0 FF FF 7F F0  FF FF 7F 66 64 69 31 01  E..........fdi1.
0180: 80 55 09 80 F0 FF FF 7F  F0 FF FF 7F 66 64 69 31  .U..........fdi1
0190: 1B 45 09 80 F0 FF FF 7F  F0 FF FF 7F 66 64 6F 31  .E..........fdo1
01A0: 01 80 55 09 80 F0 FF FF  7F F0 FF FF 7F 66 64 6F  ..U..........fdo
01B0: 31 1B 45 0D 80 F0 FF FF  7F F0 FF FF 7F 77 68 69  1.E..........whi
01C0: 31 01 80 55 0D 80 F0 FF  FF 7F F0 FF FF 7F 77 68  1..U..........wh
01D0: 69 31 1B 45 0D 80 F0 FF  FF 7F F0 FF FF 7F 77 68  i1.E..........wh
01E0: 6F 31 01 80 55 0D 80 F0  FF FF 7F F0 FF FF 7F 77  o1..U..........w
01F0: 68 6F 31 1B 45 0D 80 F0  FF FF 7F F0 FF FF 7F 77  ho1.E..........w
0200: 68 6F 32 01 80 55 0D 80  F0 FF FF 7F F0 FF FF 7F  ho2..U..........
0210: 77 68 6F 32 1B 45 0D 80  F0 FF FF 7F F0 FF FF 7F  who2.E..........
0220: 77 68 6F 33 01 80 55 0D  80 F0 FF FF 7F F0 FF FF  who3..U.........
0230: 7F 77 68 6F 33 1B 62 06  80 F0 FF FF 7F F0 FF FF  .who3.b.........
0240: 7F 6D 61 69 6E 01 80 1C  10 80 45 09 80 F0 FF FF  .main.....E.....
0250: 7F F0 FF FF 7F 66 64 6F  31 01 80 55 09 80 F0 FF  .....fdo1..U....
0260: FF 7F F0 FF FF 7F 66 64  6F 31 1B 45 09 80 F0 FF  ......fdo1.E....
0270: FF 7F F0 FF FF 7F 66 64  69 31 01 80 62 11 80 F0  ......fdi1..b...
0280: FF FF 7F F0 FF FF 7F 6D  61 69 6E 01 80 1C 0E 80  .......main.....
0290: 55 09 80 F0 FF FF 7F F0  FF FF 7F 66 64 69 31 1B  U..........fdi1.
02A0: 45 09 80 F0 FF FF 7F F0  FF FF 7F 62 6C 6F 6E 01  E..........blon.
02B0: 80 45 0D 80 F0 FF FF 7F  F0 FF FF 7F 62 6C 6F 6E  .E..........blon
02C0: 01 80 1B 45 0D 80 F0 FF  FF 7F F0 FF FF 7F 77 68  ...E..........wh
02D0: 69 30 01 80 55 0D 80 F0  FF FF 7F F0 FF FF 7F 77  i0..U..........w
02E0: 68 69 30 1B 45 0D 80 F0  FF FF 7F F0 FF FF 7F 77  hi0.E..........w
02F0: 68 6F 30 01 80 55 0D 80  F0 FF FF 7F F0 FF FF 7F  ho0..U..........
0300: 77 68 6F 30 1B 45 12 80  F0 FF FF 7F F0 FF FF 7F  who0.E..........
0310: 65 66 6F 6E 01 80 55 12  80 F0 FF FF 7F F0 FF FF  efon..U.........
0320: 7F 65 66 6F 6E 1B 45 09  80 F0 FF FF 7F F0 FF FF  .efon.E.........
0330: 7F 66 64 69 73 01 80 1B  45 09 80 F0 FF FF 7F F0  .fdis...E.......
0340: FF FF 7F 66 64 6F 73 01  80 55 09 80 F0 FF FF 7F  ...fdos..U......
0350: F0 FF FF 7F 66 64 6F 73  1B 45 09 80 F0 FF FF 7F  ....fdos.E......
0360: F0 FF FF 7F 66 64 69 66  01 80 1B 45 09 80 F0 FF  ....fdif...E....
0370: FF 7F F0 FF FF 7F 66 64  6F 66 01 80 55 09 80 F0  ......fdof..U...
0380: FF FF 7F F0 FF FF 7F 66  64 6F 66 1B 45 09 80 F0  .......fdof.E...
0390: FF FF 7F F0 FF FF 7F 66  64 69 70 01 80 1B 45 09  .......fdip...E.
03A0: 80 F0 FF FF 7F F0 FF FF  7F 66 64 6F 70 01 80 55  .........fdop..U
03B0: 09 80 F0 FF FF 7F F0 FF  FF 7F 66 64 6F 70 1B     ..........fdop. 
```

#### Opcodes

```
  0: 0x0001 [0x20] SET_CLI_EVENT_UC_FLAG: Lock player control
  1: 0x0003 [0x4A] LocalPlayer looks at Transcendental Radiance (ID: 17293816/0x0107E1F8)
  2: 0x000C [0x6F] WAIT_FRAME_DELAY: Yield until WaitTime reaches zero
  3: 0x000D [0x76] CHECK_ENTITY_RENDER_FLAGS: Wait until LocalPlayer Render.Flags0 and Render.Flags3 conditions are met
  4: 0x0012 [0x79] LocalPlayer looks at Unknown NPC (ID: 2147581952/0x80018000) (Direct axis set)
  5: 0x001C [0x03] Work_Zone[2] = 1271*
  6: 0x0021 [0x48] [System] [11515*]:
    → "Your $3 resonates with the eerie light before you."
  7: 0x0024 [0x23] WAIT_FOR_DIALOG_INTERACTION
  8: 0x0025 [0x48] [System] [11516*]:
    → "You suspect that Al'Taieu lies on the other side of this dimensional distortion."
  9: 0x0028 [0x23] WAIT_FOR_DIALOG_INTERACTION
 10: 0x0029 [0x43] SEND_EVENT_UPDATE: Send pending tag to server (packet 0x005B)
 11: 0x002B [0x43] SEND_EVENT_UPDATE: Check pending flag (skip if not pending)
 12: 0x002D [0x03] Work_Zone[2] = 0*
 13: 0x0032 [0x24] CREATE_DIALOG(message_id=11517*, default_option=1*, option_flags=0*)
    → "[Enter the portal/Warp to Abyssea - Empyreal Paradox]? [Proceed. ($3 cruor)/Not yet.]"
 14: 0x0039 [0x25] WAIT_DIALOG_SELECT()
 15: 0x003A [0x02] IF !(Work_Zone[0] == 0*) GOTO 0x011F
 16: 0x0042 [0x43] SEND_EVENT_UPDATE: Send pending tag to server (packet 0x005B)
 17: 0x0044 [0x43] SEND_EVENT_UPDATE: Check pending flag (skip if not pending)
 18: 0x0046 [0x03] ExtData[1]->WorkLocal[0] = Work_Zone[3]
 19: 0x004B [0x02] IF !(ExtData[1]->WorkLocal[0] == 1*) GOTO 0x005B
 20: 0x0053 [0x03] Work_Zone[1] = 1*
 21: 0x0058 [0x01] GOTO 0x006F
 22: 0x005B [0x02] IF !(Work_Zone[6] == 1*) GOTO 0x0067
 23: 0x0063 [0x48] [System] [11519*]:
    → "You do not have enough energy in cruor to warp to your destination."
 24: 0x0066 [0x23] WAIT_FOR_DIALOG_INTERACTION
 25: 0x0067 [0x03] Work_Zone[1] = 1073741824*
 26: 0x006C [0x01] GOTO 0x012A

SUBROUTINE_006F:
 27: 0x006F [0x42] SET_CLI_EVENT_CANCEL_DATA()
 28: 0x0070 [0x46] CAMERA_CONTROL: Disable user control
 29: 0x0072 [0x45] LOAD_SCHEDULED_TASK: Load scheduler "fdo1" with entities [LocalPlayer, LocalPlayer], work=[200*, 0*]
 30: 0x0083 [0x1C] WAIT(60* ticks)
 31: 0x0086 [0x38] SET_CLIENT_EVENT_MODE(mode=19*)
 32: 0x0089 [0x29] REQ_SET_WAIT(priority=0x01, entity_id=LocalPlayer, tag_num=0x2F)
 33: 0x0090 [0x45] LOAD_SCHEDULED_TASK: Load scheduler "3700" with entities [LocalPlayer, LocalPlayer], work=[560*, 0*]
 34: 0x00A1 [0x45] LOAD_SCHEDULED_TASK: Load scheduler "fdi1" with entities [LocalPlayer, LocalPlayer], work=[200*, 0*]
 35: 0x00B2 [0x1C] WAIT(60* ticks)
 36: 0x00B5 [0x45] LOAD_SCHEDULED_TASK: Load scheduler "blon" with entities [LocalPlayer, LocalPlayer], work=[200*, 0*]
 37: 0x00C6 [0x45] LOAD_SCHEDULED_TASK: Load scheduler "blon" with entities [LocalPlayer, LocalPlayer], work=[201*, 0*]
 38: 0x00D7 [0x45] LOAD_SCHEDULED_TASK: Load scheduler "ovl1" with entities [LocalPlayer, LocalPlayer], work=[200*, 0*]
 39: 0x00E8 [0x29] REQ_SET_WAIT(priority=0x01, entity_id=LocalPlayer, tag_num=0x30)
 40: 0x00EF [0x45] LOAD_SCHEDULED_TASK: Load scheduler "blof" with entities [LocalPlayer, LocalPlayer], work=[200*, 0*]
 41: 0x0100 [0x1C] WAIT(30* ticks)
 42: 0x0103 [0xC5] LOAD_SCHEDULED_TASK_ALT3: Load scheduler 0x8001616C for entities [LocalPlayer, LocalPlayer], work=136*, param=26987
 43: 0x0114 [0x1A] CALL_SUBROUTINE(address=0x0191)
 44: 0x0117 [0x1A] CALL_SUBROUTINE(address=0x01B2)
 45: 0x011A [0x46] CAMERA_CONTROL: Restore default settings
 46: 0x011C [0x01] GOTO 0x012A
 47: 0x011F [0x02] IF !(Work_Zone[0] == 1*) GOTO 0x012A
 48: 0x0127 [0x01] GOTO 0x012A

SUBROUTINE_012A:
 49: 0x012A [0x20] SET_CLI_EVENT_UC_FLAG: Unlock player control
 50: 0x012C [0x21] END_EVENT
 51: 0x012D [0x00] END_REQSTACK()

SUBROUTINE_0191:
 52: 0x0191 [0x45] LOAD_SCHEDULED_TASK: Load scheduler "fdo1" with entities [LocalPlayer, LocalPlayer], work=[200*, 0*]
 53: 0x01A2 [0x55] WAIT_LOAD_SCHEDULER: Wait for scheduler "fdo1" with entities [LocalPlayer, LocalPlayer], work=200*
 54: 0x01B1 [0x1B] RETURN

SUBROUTINE_01B2:
 55: 0x01B2 [0x45] LOAD_SCHEDULED_TASK: Load scheduler "whi1" with entities [LocalPlayer, LocalPlayer], work=[201*, 0*]
 56: 0x01C3 [0x55] WAIT_LOAD_SCHEDULER: Wait for scheduler "whi1" with entities [LocalPlayer, LocalPlayer], work=201*
 57: 0x01D2 [0x1B] RETURN
```

#### Data or dead code:

```
# Dead code (unreachable instructions):
     0x012E [0x45] LOAD_SCHEDULED_TASK: Load scheduler "fdi0" with entities [LocalPlayer, LocalPlayer], work=[200*, 0*]
     0x013F [0x55] WAIT_LOAD_SCHEDULER: Wait for scheduler "fdi0" with entities [LocalPlayer, LocalPlayer], work=200*
     0x014E [0x1B] RETURN
     0x014F [0x45] LOAD_SCHEDULED_TASK: Load scheduler "fdo0" with entities [LocalPlayer, LocalPlayer], work=[200*, 0*]
     0x0160 [0x55] WAIT_LOAD_SCHEDULER: Wait for scheduler "fdo0" with entities [LocalPlayer, LocalPlayer], work=200*
     0x016F [0x1B] RETURN
     0x0170 [0x45] LOAD_SCHEDULED_TASK: Load scheduler "fdi1" with entities [LocalPlayer, LocalPlayer], work=[200*, 0*]
     0x0181 [0x55] WAIT_LOAD_SCHEDULER: Wait for scheduler "fdi1" with entities [LocalPlayer, LocalPlayer], work=200*
     0x0190 [0x1B] RETURN
# Dead code (unreachable instructions):
     0x01D3 [0x45] LOAD_SCHEDULED_TASK: Load scheduler "who1" with entities [LocalPlayer, LocalPlayer], work=[201*, 0*]
     0x01E4 [0x55] WAIT_LOAD_SCHEDULER: Wait for scheduler "who1" with entities [LocalPlayer, LocalPlayer], work=201*
     0x01F3 [0x1B] RETURN
     0x01F4 [0x45] LOAD_SCHEDULED_TASK: Load scheduler "who2" with entities [LocalPlayer, LocalPlayer], work=[201*, 0*]
     0x0205 [0x55] WAIT_LOAD_SCHEDULER: Wait for scheduler "who2" with entities [LocalPlayer, LocalPlayer], work=201*
     0x0214 [0x1B] RETURN
     0x0215 [0x45] LOAD_SCHEDULED_TASK: Load scheduler "who3" with entities [LocalPlayer, LocalPlayer], work=[201*, 0*]
     0x0226 [0x55] WAIT_LOAD_SCHEDULER: Wait for scheduler "who3" with entities [LocalPlayer, LocalPlayer], work=201*
     0x0235 [0x1B] RETURN
     0x0236 [0x62] LOAD_EVENT_SCHEDULER: Load scheduler "main" with entities [LocalPlayer, LocalPlayer], work=[1*, 0*]
     0x0247 [0x1C] WAIT(45* ticks)
     0x024A [0x45] LOAD_SCHEDULED_TASK: Load scheduler "fdo1" with entities [LocalPlayer, LocalPlayer], work=[200*, 0*]
     0x025B [0x55] WAIT_LOAD_SCHEDULER: Wait for scheduler "fdo1" with entities [LocalPlayer, LocalPlayer], work=200*
     0x026A [0x1B] RETURN
     0x026B [0x45] LOAD_SCHEDULED_TASK: Load scheduler "fdi1" with entities [LocalPlayer, LocalPlayer], work=[200*, 0*]
     0x027C [0x62] LOAD_EVENT_SCHEDULER: Load scheduler "main" with entities [LocalPlayer, LocalPlayer], work=[2*, 0*]
     0x028D [0x1C] WAIT(30* ticks)
     0x0290 [0x55] WAIT_LOAD_SCHEDULER: Wait for scheduler "fdi1" with entities [LocalPlayer, LocalPlayer], work=200*
     0x029F [0x1B] RETURN
     0x02A0 [0x45] LOAD_SCHEDULED_TASK: Load scheduler "blon" with entities [LocalPlayer, LocalPlayer], work=[200*, 0*]
     0x02B1 [0x45] LOAD_SCHEDULED_TASK: Load scheduler "blon" with entities [LocalPlayer, LocalPlayer], work=[201*, 0*]
     0x02C2 [0x1B] RETURN
     0x02C3 [0x45] LOAD_SCHEDULED_TASK: Load scheduler "whi0" with entities [LocalPlayer, LocalPlayer], work=[201*, 0*]
     0x02D4 [0x55] WAIT_LOAD_SCHEDULER: Wait for scheduler "whi0" with entities [LocalPlayer, LocalPlayer], work=201*
     0x02E3 [0x1B] RETURN
     0x02E4 [0x45] LOAD_SCHEDULED_TASK: Load scheduler "who0" with entities [LocalPlayer, LocalPlayer], work=[201*, 0*]
     0x02F5 [0x55] WAIT_LOAD_SCHEDULER: Wait for scheduler "who0" with entities [LocalPlayer, LocalPlayer], work=201*
     0x0304 [0x1B] RETURN
     0x0305 [0x45] LOAD_SCHEDULED_TASK: Load scheduler "efon" with entities [LocalPlayer, LocalPlayer], work=[215*, 0*]
     0x0316 [0x55] WAIT_LOAD_SCHEDULER: Wait for scheduler "efon" with entities [LocalPlayer, LocalPlayer], work=215*
     0x0325 [0x1B] RETURN
     0x0326 [0x45] LOAD_SCHEDULED_TASK: Load scheduler "fdis" with entities [LocalPlayer, LocalPlayer], work=[200*, 0*]
     0x0337 [0x1B] RETURN
     0x0338 [0x45] LOAD_SCHEDULED_TASK: Load scheduler "fdos" with entities [LocalPlayer, LocalPlayer], work=[200*, 0*]
     0x0349 [0x55] WAIT_LOAD_SCHEDULER: Wait for scheduler "fdos" with entities [LocalPlayer, LocalPlayer], work=200*
     0x0358 [0x1B] RETURN
     0x0359 [0x45] LOAD_SCHEDULED_TASK: Load scheduler "fdif" with entities [LocalPlayer, LocalPlayer], work=[200*, 0*]
     0x036A [0x1B] RETURN
     0x036B [0x45] LOAD_SCHEDULED_TASK: Load scheduler "fdof" with entities [LocalPlayer, LocalPlayer], work=[200*, 0*]
     0x037C [0x55] WAIT_LOAD_SCHEDULER: Wait for scheduler "fdof" with entities [LocalPlayer, LocalPlayer], work=200*
     0x038B [0x1B] RETURN
     0x038C [0x45] LOAD_SCHEDULED_TASK: Load scheduler "fdip" with entities [LocalPlayer, LocalPlayer], work=[200*, 0*]
     0x039D [0x1B] RETURN
     0x039E [0x45] LOAD_SCHEDULED_TASK: Load scheduler "fdop" with entities [LocalPlayer, LocalPlayer], work=[200*, 0*]
     0x03AF [0x55] WAIT_LOAD_SCHEDULER: Wait for scheduler "fdop" with entities [LocalPlayer, LocalPlayer], work=200*
     0x03BE [0x1B] RETURN
```
