# 17293798 - 1

## Common Data

| Field            | Value                  |
|------------------|------------------------|
| Zone             | Qufim Island (ID: 126) |
| Block Size       | 296 bytes              |
| Total Events     | 10                     |
| References Count | 12                     |

## List of Events

| Event ID                 | Entrypoint   |   Size |   Instructions |
|--------------------------|--------------|--------|----------------|
| [65535](#event-65535)    | 0x0000       |      1 |              1 |
| [44](#event-44)          | 0x0001       |      1 |              1 |
| [65535.1](#event-655351) | 0x0002       |     35 |              5 |
| [65535.2](#event-655352) | 0x0025       |     19 |              3 |
| [65535.3](#event-655353) | 0x0038       |     16 |              2 |
| [65535.4](#event-655354) | 0x0048       |     19 |              3 |
| [65535.5](#event-655355) | 0x005B       |     19 |              3 |
| [65535.6](#event-655356) | 0x006E       |     14 |              2 |
| [65535.7](#event-655357) | 0x007C       |     16 |              2 |
| [65535.8](#event-655358) | 0x008C       |     49 |              9 |

## DAT References (imed_data)

|   Index | Hex Value   |   Dec Value |
|---------|-------------|-------------|
|       0 | 0x0005      |           5 |
|       1 | 0x001D      |          29 |
|       2 | 0x0013      |          19 |
|       3 | 0x0000      |           0 |
|       4 | 0x0ADA      |        2778 |
|       5 | 0x0030      |          48 |
|       6 | 0x006F      |         111 |
|       7 | 0x0028      |          40 |
|       8 | 0x000A      |          10 |
|       9 | 0xFFFF9C0D  |  4294941709 |
|      10 | 0x1AC88     |      109704 |
|      11 | 0xFFFFAA5E  |  4294945374 |

## Events

### Event 65535

#### Metadata

| Field        | Value   |
|--------------|---------|
| Entrypoint   | 0x0000  |
| Data Size    | 1 bytes |
| Instructions | 1       |

```
      00 01 02 03 04 05 06 07  08 09 0A 0B 0C 0D 0E 0F
      -- -- -- -- -- -- -- --  -- -- -- -- -- -- -- --
0000: 00                                                .               
```

#### Opcodes

```
  0: 0x0000 [0x00] END_REQSTACK()
```

### Event 44

#### Metadata

| Field        | Value   |
|--------------|---------|
| Entrypoint   | 0x0001  |
| Data Size    | 1 bytes |
| Instructions | 1       |

```
      00 01 02 03 04 05 06 07  08 09 0A 0B 0C 0D 0E 0F
      -- -- -- -- -- -- -- --  -- -- -- -- -- -- -- --
0000:    00                                              .              
```

#### Opcodes

```
  0: 0x0001 [0x00] END_REQSTACK()
```

### Event 65535.1

#### Metadata

| Field        | Value    |
|--------------|----------|
| Entrypoint   | 0x0002   |
| Data Size    | 35 bytes |
| Instructions | 5        |

```
      00 01 02 03 04 05 06 07  08 09 0A 0B 0C 0D 0E 0F
      -- -- -- -- -- -- -- --  -- -- -- -- -- -- -- --
0000:       22 00 B6 0B 00 80  01 80 02 80 02 80 02 80    ".............
0010: 02 80 02 80 03 80 03 80  92 01 F8 FF FF 7F 94 01  ................
0020: F8 FF FF 7F 00                                    .....           
```

#### Opcodes

```
  0: 0x0002 [0x22] ENTITY_HIDE_FLAG(enabled=0x00)
  1: 0x0004 [0xB6] ENTITY_APPEARANCE_HANDLER(case=Full entity look, race=5*, hair=29*, head=19*, body=19*, hands=19*, legs=19*, feet=19*, main=0*, sub=0*)
  2: 0x0018 [0x92] EventEntity->Render.Flags3 ^= 0x01
  3: 0x001E [0x94] EventEntity->Render.Flags3 ^= 0x01
  4: 0x0024 [0x00] END_REQSTACK()
```

### Event 65535.2

#### Metadata

| Field        | Value    |
|--------------|----------|
| Entrypoint   | 0x0025   |
| Data Size    | 19 bytes |
| Instructions | 3        |

```
      00 01 02 03 04 05 06 07  08 09 0A 0B 0C 0D 0E 0F
      -- -- -- -- -- -- -- --  -- -- -- -- -- -- -- --
0020:                5B 04 80  F8 FF FF 7F F8 FF FF 7F       [..........
0030: 62 6B 61 30 1C 05 80 00                           bka0....        
```

#### Opcodes

```
  0: 0x0025 [0x5B] LOAD_EXT_SCHEDULER: Load scheduler "bka0" with entities [EventEntity, EventEntity], work=2778*
  1: 0x0034 [0x1C] WAIT(48* ticks)
  2: 0x0037 [0x00] END_REQSTACK()
```

### Event 65535.3

#### Metadata

| Field        | Value    |
|--------------|----------|
| Entrypoint   | 0x0038   |
| Data Size    | 16 bytes |
| Instructions | 2        |

```
      00 01 02 03 04 05 06 07  08 09 0A 0B 0C 0D 0E 0F
      -- -- -- -- -- -- -- --  -- -- -- -- -- -- -- --
0030:                          5B 04 80 F8 FF FF 7F F8          [.......
0040: FF FF 7F 62 6B 61 6C 00                           ...bkal.        
```

#### Opcodes

```
  0: 0x0038 [0x5B] LOAD_EXT_SCHEDULER: Load scheduler "bkal" with entities [EventEntity, EventEntity], work=2778*
  1: 0x0047 [0x00] END_REQSTACK()
```

### Event 65535.4

#### Metadata

| Field        | Value    |
|--------------|----------|
| Entrypoint   | 0x0048   |
| Data Size    | 19 bytes |
| Instructions | 3        |

```
      00 01 02 03 04 05 06 07  08 09 0A 0B 0C 0D 0E 0F
      -- -- -- -- -- -- -- --  -- -- -- -- -- -- -- --
0040:                          5B 04 80 F8 FF FF 7F F8          [.......
0050: FF FF 7F 62 6B 61 31 1C  06 80 00                 ...bka1....     
```

#### Opcodes

```
  0: 0x0048 [0x5B] LOAD_EXT_SCHEDULER: Load scheduler "bka1" with entities [EventEntity, EventEntity], work=2778*
  1: 0x0057 [0x1C] WAIT(111* ticks)
  2: 0x005A [0x00] END_REQSTACK()
```

### Event 65535.5

#### Metadata

| Field        | Value    |
|--------------|----------|
| Entrypoint   | 0x005B   |
| Data Size    | 19 bytes |
| Instructions | 3        |

```
      00 01 02 03 04 05 06 07  08 09 0A 0B 0C 0D 0E 0F
      -- -- -- -- -- -- -- --  -- -- -- -- -- -- -- --
0050:                                   5B 04 80 F8 FF             [....
0060: FF 7F F8 FF FF 7F 62 6B  61 32 1C 07 80 00        ......bka2....  
```

#### Opcodes

```
  0: 0x005B [0x5B] LOAD_EXT_SCHEDULER: Load scheduler "bka2" with entities [EventEntity, EventEntity], work=2778*
  1: 0x006A [0x1C] WAIT(40* ticks)
  2: 0x006D [0x00] END_REQSTACK()
```

### Event 65535.6

#### Metadata

| Field        | Value    |
|--------------|----------|
| Entrypoint   | 0x006E   |
| Data Size    | 14 bytes |
| Instructions | 2        |

```
      00 01 02 03 04 05 06 07  08 09 0A 0B 0C 0D 0E 0F
      -- -- -- -- -- -- -- --  -- -- -- -- -- -- -- --
0060:                                            2C F8                ,.
0070: FF FF 7F F8 FF FF 7F 63  6F 72 70 00              .......corp.    
```

#### Opcodes

```
  0: 0x006E [0x2C] CREATE_SCHEDULER_TASK: Create scheduler "corp" with entities [EventEntity, EventEntity]
  1: 0x007B [0x00] END_REQSTACK()
```

### Event 65535.7

#### Metadata

| Field        | Value    |
|--------------|----------|
| Entrypoint   | 0x007C   |
| Data Size    | 16 bytes |
| Instructions | 2        |

```
      00 01 02 03 04 05 06 07  08 09 0A 0B 0C 0D 0E 0F
      -- -- -- -- -- -- -- --  -- -- -- -- -- -- -- --
0070:                                      5B 04 80 F8              [...
0080: FF FF 7F F8 FF FF 7F 62  6B 61 30 00              .......bka0.    
```

#### Opcodes

```
  0: 0x007C [0x5B] LOAD_EXT_SCHEDULER: Load scheduler "bka0" with entities [EventEntity, EventEntity], work=2778*
  1: 0x008B [0x00] END_REQSTACK()
```

### Event 65535.8

#### Metadata

| Field        | Value    |
|--------------|----------|
| Entrypoint   | 0x008C   |
| Data Size    | 49 bytes |
| Instructions | 9        |

```
      00 01 02 03 04 05 06 07  08 09 0A 0B 0C 0D 0E 0F
      -- -- -- -- -- -- -- --  -- -- -- -- -- -- -- --
0080:                                      3A E5 E1 07              :...
0090: 01 00 00 32 08 80 1F 00  09 80 0A 80 0B 80 1F 01  ...2............
00A0: 4B F8 FF FF 7F 00 00 6F  76 F8 FF FF 7F 5B 04 80  K......ov....[..
00B0: F8 FF FF 7F F8 FF FF 7F  62 6B 61 30 00           ........bka0.   
```

#### Opcodes

```
  0: 0x008C [0x3A] CONVERT_YAW_TO_BYTE(entity=Shantotto (ID: 17293797/0x0107E1E5), result_destination=ExtData[1]->WorkLocal[0])
  1: 0x0093 [0x32] ExtData[1]->MainSpeed = 10* * 0.1
  2: 0x0096 [0x1F] MOVE_ENTITY: EventEntity moves to X=-25.587*, Z=109.704*, Y=-21.922*
  3: 0x009E [0x1F] MOVE_ENTITY: Update entity position (mode=1)
  4: 0x00A0 [0x4B] UPDATE_ENTITY_YAW(entity=EventEntity, yaw=ExtData[1]->WorkLocal[0])
  5: 0x00A7 [0x6F] WAIT_FRAME_DELAY: Yield until WaitTime reaches zero
  6: 0x00A8 [0x76] CHECK_ENTITY_RENDER_FLAGS: Wait until EventEntity Render.Flags0 and Render.Flags3 conditions are met
  7: 0x00AD [0x5B] LOAD_EXT_SCHEDULER: Load scheduler "bka0" with entities [EventEntity, EventEntity], work=2778*
  8: 0x00BC [0x00] END_REQSTACK()
```
