# 17293777

## Common Data

| Field            | Value                  |
|------------------|------------------------|
| Zone             | Qufim Island (ID: 126) |
| Block Size       | 10028 bytes            |
| Total Events     | 4                      |
| References Count | 266                    |

## List of Events

| Event ID              | Entrypoint   |   Size |   Instructions |
|-----------------------|--------------|--------|----------------|
| [65535](#event-65535) | 0x0000       |      1 |              1 |
| [31](#event-31)       | 0x0001       |   3882 |            575 |
| [32](#event-32)       | 0x0F2B       |   1909 |            247 |
| [34](#event-34)       | 0x16A0       |   3137 |            374 |

## DAT References (imed_data)

|   Index | Hex Value   |   Dec Value |
|---------|-------------|-------------|
|       0 | 0x0013      |          19 |
|       1 | 0x0002      |           2 |
|       2 | 0x0010      |          16 |
|       3 | 0x0000      |           0 |
|       4 | 0x0001      |           1 |
|       5 | 0xFFFE3A62  |  4294851170 |
|       6 | 0x4B052     |      307282 |
|       7 | 0xFFFFB3B3  |  4294947763 |
|       8 | 0x045F      |        1119 |
|       9 | 0xFFFE3253  |  4294849107 |
|      10 | 0x4B0D1     |      307409 |
|      11 | 0xFFFFB3A6  |  4294947750 |
|      12 | 0x0478      |        1144 |
|      13 | 0xFFFE2201  |  4294844929 |
|      14 | 0x4AB98     |      306072 |
|      15 | 0xFFFFA0CD  |  4294942925 |
|      16 | 0x07FE      |        2046 |
|      17 | 0x8E30      |       36400 |
|      18 | 0xFFFF2E67  |  4294913639 |
|      19 | 0x07C5      |        1989 |
|      20 | 0x5126      |       20774 |
|      21 | 0x3EEF7     |      257783 |
|      22 | 0xFFFFAC13  |  4294945811 |
|      23 | 0x0640      |        1600 |
|      24 | 0x1321      |        4897 |
|      25 | 0x3EDFA     |      257530 |
|      26 | 0xFFFFA7C7  |  4294944711 |
|      27 | 0x0A28      |        2600 |
|      28 | 0x118CA     |       71882 |
|      29 | 0x4624E     |      287310 |
|      30 | 0xFFFF5817  |  4294924311 |
|      31 | 0x01F4      |         500 |
|      32 | 0xEC6A      |       60522 |
|      33 | 0x4823B     |      295483 |
|      34 | 0xFFFF5A0B  |  4294924811 |
|      35 | 0x000F      |          15 |
|      36 | 0x01CD      |         461 |
|      37 | 0x00C8      |         200 |
|      38 | 0x2003      |        8195 |
|      39 | 0x007E      |         126 |
|      40 | 0x00FB      |         251 |
|      41 | 0x0078      |         120 |
|      42 | 0x003C      |          60 |
|      43 | 0x001E      |          30 |
|      44 | 0x0028      |          40 |
|      45 | 0x00FA      |         250 |
|      46 | 0x0015      |          21 |
|      47 | 0x005A      |          90 |
|      48 | 0x0AB4      |        2740 |
|      49 | 0x0AB5      |        2741 |
|      50 | 0x0AB6      |        2742 |
|      51 | 0x2004      |        8196 |
|      52 | 0x0082      |         130 |
|      53 | 0x2005      |        8197 |
|      54 | 0x2006      |        8198 |
|      55 | 0x2007      |        8199 |
|      56 | 0x2008      |        8200 |
|      57 | 0x2009      |        8201 |
|      58 | 0x0096      |         150 |
|      59 | 0x200A      |        8202 |
|      60 | 0x200B      |        8203 |
|      61 | 0xFFFE365A  |  4294850138 |
|      62 | 0x4B0EB     |      307435 |
|      63 | 0xFFFFAD30  |  4294946096 |
|      64 | 0x200C      |        8204 |
|      65 | 0x200D      |        8205 |
|      66 | 0x00A0      |         160 |
|      67 | 0x200E      |        8206 |
|      68 | 0x200F      |        8207 |
|      69 | 0x2010      |        8208 |
|      70 | 0x2011      |        8209 |
|      71 | 0xFFFE3200  |  4294849024 |
|      72 | 0x4B72D     |      309037 |
|      73 | 0xFFFFBEF2  |  4294950642 |
|      74 | 0x2012      |        8210 |
|      75 | 0x002D      |          45 |
|      76 | 0x2013      |        8211 |
|      77 | 0x2014      |        8212 |
|      78 | 0x2015      |        8213 |
|      79 | 0x2016      |        8214 |
|      80 | 0x2017      |        8215 |
|      81 | 0x0032      |          50 |
|      82 | 0x0064      |         100 |
|      83 | 0x2020      |        8224 |
|      84 | 0x2021      |        8225 |
|      85 | 0x012C      |         300 |
|      86 | 0x2022      |        8226 |
|      87 | 0x2023      |        8227 |
|      88 | 0x00B4      |         180 |
|      89 | 0x2024      |        8228 |
|      90 | 0x2025      |        8229 |
|      91 | 0x0440      |        1088 |
|      92 | 0x0441      |        1089 |
|      93 | 0x0442      |        1090 |
|      94 | 0x2026      |        8230 |
|      95 | 0x2027      |        8231 |
|      96 | 0x001D      |          29 |
|      97 | 0x2028      |        8232 |
|      98 | 0x2029      |        8233 |
|      99 | 0x2018      |        8216 |
|     100 | 0x2019      |        8217 |
|     101 | 0x201A      |        8218 |
|     102 | 0x201B      |        8219 |
|     103 | 0x201C      |        8220 |
|     104 | 0x201D      |        8221 |
|     105 | 0x201E      |        8222 |
|     106 | 0x201F      |        8223 |
|     107 | 0x0066      |         102 |
|     108 | 0x0016      |          22 |
|     109 | 0xFFF69522  |  4294350114 |
|     110 | 0x68CF5     |      429301 |
|     111 | 0xFFFF9FAF  |  4294942639 |
|     112 | 0x00C7      |         199 |
|     113 | 0x005D      |          93 |
|     114 | 0x0006      |           6 |
|     115 | 0x0012      |          18 |
|     116 | 0x0007      |           7 |
|     117 | 0x000A      |          10 |
|     118 | 0x0008      |           8 |
|     119 | 0x000B      |          11 |
|     120 | 0x000C      |          12 |
|     121 | 0xFFFE2584  |  4294845828 |
|     122 | 0x48A70     |      297584 |
|     123 | 0xFFFFB54F  |  4294948175 |
|     124 | 0x0BC3      |        3011 |
|     125 | 0xFFFE1E12  |  4294843922 |
|     126 | 0x4966D     |      300653 |
|     127 | 0xFFFFB575  |  4294948213 |
|     128 | 0x00B1      |         177 |
|     129 | 0xFFFE22BC  |  4294845116 |
|     130 | 0x490D0     |      299216 |
|     131 | 0xFFFFB5A0  |  4294948256 |
|     132 | 0x08C0      |        2240 |
|     133 | 0xFFFE0B48  |  4294839112 |
|     134 | 0x48047     |      294983 |
|     135 | 0xFFFFB3E3  |  4294947811 |
|     136 | 0x0E10      |        3600 |
|     137 | 0x47C5F     |      293983 |
|     138 | 0xFFFE0760  |  4294838112 |
|     139 | 0xFFFE0378  |  4294837112 |
|     140 | 0x0065      |         101 |
|     141 | 0x0067      |         103 |
|     142 | 0x01CB      |         459 |
|     143 | 0x202B      |        8235 |
|     144 | 0x0014      |          20 |
|     145 | 0x202C      |        8236 |
|     146 | 0xFFFE1F32  |  4294844210 |
|     147 | 0x494F0     |      300272 |
|     148 | 0xFFFFB1AE  |  4294947246 |
|     149 | 0x0A6A      |        2666 |
|     150 | 0x0051      |          81 |
|     151 | 0x202D      |        8237 |
|     152 | 0x00CE      |         206 |
|     153 | 0x01E0      |         480 |
|     154 | 0x0200      |         512 |
|     155 | 0x202E      |        8238 |
|     156 | 0x202F      |        8239 |
|     157 | 0x2030      |        8240 |
|     158 | 0x2031      |        8241 |
|     159 | 0x0A0C      |        2572 |
|     160 | 0x2032      |        8242 |
|     161 | 0x2033      |        8243 |
|     162 | 0x2034      |        8244 |
|     163 | 0x0080      |         128 |
|     164 | 0x2035      |        8245 |
|     165 | 0xFFFE0698  |  4294837912 |
|     166 | 0x47F7F     |      294783 |
|     167 | 0x2036      |        8246 |
|     168 | 0x2037      |        8247 |
|     169 | 0x2038      |        8248 |
|     170 | 0x2039      |        8249 |
|     171 | 0xFFFE0DA0  |  4294839712 |
|     172 | 0xFFFE06FC  |  4294838012 |
|     173 | 0x479A3     |      293283 |
|     174 | 0xFFFE05D0  |  4294837712 |
|     175 | 0x203A      |        8250 |
|     176 | 0x0005      |           5 |
|     177 | 0xFFFE0C70  |  4294839408 |
|     178 | 0x479D0     |      293328 |
|     179 | 0xFFFFB475  |  4294947957 |
|     180 | 0x08B9      |        2233 |
|     181 | 0xFFFE0F3F  |  4294840127 |
|     182 | 0x474EC     |      292076 |
|     183 | 0xFFFFB42A  |  4294947882 |
|     184 | 0x0802      |        2050 |
|     185 | 0xFFFDF7C0  |  4294834112 |
|     186 | 0x47B33     |      293683 |
|     187 | 0x0094      |         148 |
|     188 | 0xFFFDF420  |  4294833184 |
|     189 | 0x47AD0     |      293584 |
|     190 | 0xFFFFB3E9  |  4294947817 |
|     191 | 0xFFFDF4C0  |  4294833344 |
|     192 | 0x47D8C     |      294284 |
|     193 | 0xFFFFB3C5  |  4294947781 |
|     194 | 0xFFFDF4A2  |  4294833314 |
|     195 | 0x478BF     |      293055 |
|     196 | 0xFFFFB3EF  |  4294947823 |
|     197 | 0xFFFDF5F2  |  4294833650 |
|     198 | 0x48064     |      295012 |
|     199 | 0xFFFFB3B4  |  4294947764 |
|     200 | 0x0190      |         400 |
|     201 | 0xFFFE0BCF  |  4294839247 |
|     202 | 0x47DCA     |      294346 |
|     203 | 0xFFFFB0AB  |  4294946987 |
|     204 | 0x01A4      |         420 |
|     205 | 0x203B      |        8251 |
|     206 | 0xFFFE2213  |  4294844947 |
|     207 | 0x48022     |      294946 |
|     208 | 0xFFFFB493  |  4294947987 |
|     209 | 0x0847      |        2119 |
|     210 | 0x203C      |        8252 |
|     211 | 0x203D      |        8253 |
|     212 | 0x007B      |         123 |
|     213 | 0x203E      |        8254 |
|     214 | 0xFFFE147E  |  4294841470 |
|     215 | 0x479E0     |      293344 |
|     216 | 0xFFFFB40D  |  4294947853 |
|     217 | 0x08BA      |        2234 |
|     218 | 0x203F      |        8255 |
|     219 | 0x2040      |        8256 |
|     220 | 0x2041      |        8257 |
|     221 | 0x2042      |        8258 |
|     222 | 0x2043      |        8259 |
|     223 | 0x2044      |        8260 |
|     224 | 0x2045      |        8261 |
|     225 | 0x007F      |         127 |
|     226 | 0x2046      |        8262 |
|     227 | 0xFFFE0E13  |  4294839827 |
|     228 | 0x478D4     |      293076 |
|     229 | 0xFFFFB236  |  4294947382 |
|     230 | 0x2047      |        8263 |
|     231 | 0x2048      |        8264 |
|     232 | 0x2049      |        8265 |
|     233 | 0x204A      |        8266 |
|     234 | 0x204B      |        8267 |
|     235 | 0x204C      |        8268 |
|     236 | 0x204D      |        8269 |
|     237 | 0x204E      |        8270 |
|     238 | 0x204F      |        8271 |
|     239 | 0x2050      |        8272 |
|     240 | 0x0A0F      |        2575 |
|     241 | 0x0258      |         600 |
|     242 | 0x2051      |        8273 |
|     243 | 0x2052      |        8274 |
|     244 | 0x2053      |        8275 |
|     245 | 0x2054      |        8276 |
|     246 | 0x2055      |        8277 |
|     247 | 0x2056      |        8278 |
|     248 | 0xFFFE156E  |  4294841710 |
|     249 | 0x465FC     |      288252 |
|     250 | 0xFFFFB343  |  4294947651 |
|     251 | 0x0395      |         917 |
|     252 | 0x2057      |        8279 |
|     253 | 0x2058      |        8280 |
|     254 | 0x2059      |        8281 |
|     255 | 0x205A      |        8282 |
|     256 | 0x205B      |        8283 |
|     257 | 0x205C      |        8284 |
|     258 | 0x205D      |        8285 |
|     259 | 0x205E      |        8286 |
|     260 | 0x205F      |        8287 |
|     261 | 0x2060      |        8288 |
|     262 | 0x2061      |        8289 |
|     263 | 0x00F0      |         240 |
|     264 | 0x00C9      |         201 |
|     265 | 0x00D7      |         215 |

## Events

### Event 65535

#### Metadata

| Field        | Value   |
|--------------|---------|
| Entrypoint   | 0x0000  |
| Data Size    | 1 bytes |
| Instructions | 1       |

```
      00 01 02 03 04 05 06 07  08 09 0A 0B 0C 0D 0E 0F
      -- -- -- -- -- -- -- --  -- -- -- -- -- -- -- --
0000: 00                                                .               
```

#### Opcodes

```
  0: 0x0000 [0x00] END_REQSTACK()
```

### Event 31

#### Metadata

| Field        | Value      |
|--------------|------------|
| Entrypoint   | 0x0001     |
| Data Size    | 3882 bytes |
| Instructions | 536        |

```
      00 01 02 03 04 05 06 07  08 09 0A 0B 0C 0D 0E 0F
      -- -- -- -- -- -- -- --  -- -- -- -- -- -- -- --
0000:    42 1A 1B 22 03 00 00  02 10 46 01 38 00 80 AB   B..".....F.8...
0010: 09 77 01 80 02 80 4E 00  D3 E1 07 01 4E 00 F0 FF  .w....N.....N...
0020: FF 7F 4E 00 DA E1 07 01  4E 00 DB E1 07 01 4E 00  ..N.....N.....N.
0030: D4 E1 07 01 4E 01 D5 E1  07 01 02 03 80 04 80 00  ....N...........
0040: 5A 00 4E 00 D6 E1 07 01  4E 00 D7 E1 07 01 4E 00  Z.N.....N.....N.
0050: D8 E1 07 01 4E 00 D9 E1  07 01 92 01 D3 E1 07 01  ....N...........
0060: 92 01 DA E1 07 01 92 01  DB E1 07 01 92 01 D4 E1  ................
0070: 07 01 92 01 D5 E1 07 01  02 03 80 04 80 00 98 00  ................
0080: 92 01 D6 E1 07 01 92 01  D7 E1 07 01 92 01 D8 E1  ................
0090: 07 01 92 01 D9 E1 07 01  94 01 D3 E1 07 01 94 01  ................
00A0: F0 FF FF 7F 94 01 DA E1  07 01 94 01 DB E1 07 01  ................
00B0: 94 01 D4 E1 07 01 94 01  D5 E1 07 01 02 03 80 04  ................
00C0: 80 00 DC 00 94 01 D6 E1  07 01 94 01 D7 E1 07 01  ................
00D0: 94 01 D8 E1 07 01 94 01  D9 E1 07 01 02 03 80 03  ................
00E0: 80 00 EE 00 27 10 DA E1  07 01 04 01 F5 00 27 10  ....'.........'.
00F0: DA E1 07 01 03 27 10 DB  E1 07 01 05 27 10 D4 E1  .....'......'...
0100: 07 01 0A 27 10 D5 E1 07  01 02 02 03 80 04 80 00  ...'............
0110: 2E 01 27 10 D6 E1 07 01  04 27 10 D7 E1 07 01 03  ..'......'......
0120: 27 10 D8 E1 07 01 02 27  10 D9 E1 07 01 02 59 05  '......'......Y.
0130: DA E1 07 01 01 59 05 D5  E1 07 01 01 BA F0 FF FF  .....Y..........
0140: 7F 05 80 06 80 07 80 08  80 BA D3 E1 07 01 09 80  ................
0150: 0A 80 0B 80 0C 80 BA DA  E1 07 01 0D 80 0E 80 0F  ................
0160: 80 10 80 BA DB E1 07 01  0D 80 0E 80 0F 80 10 80  ................
0170: BA D4 E1 07 01 09 80 0A  80 0B 80 0C 80 BA D5 E1  ................
0180: 07 01 03 80 11 80 12 80  13 80 02 03 80 04 80 00  ................
0190: C6 01 BA D6 E1 07 01 14  80 15 80 16 80 17 80 BA  ................
01A0: D7 E1 07 01 18 80 19 80  1A 80 1B 80 BA D8 E1 07  ................
01B0: 01 1C 80 1D 80 1E 80 1F  80 BA D9 E1 07 01 20 80  .............. .
01C0: 21 80 22 80 03 80 80 D3  E1 07 01 80 F0 FF FF 7F  !.".............
01D0: 80 DA E1 07 01 80 DB E1  07 01 80 D4 E1 07 01 80  ................
01E0: D5 E1 07 01 02 03 80 04  80 00 00 02 80 D6 E1 07  ................
01F0: 01 80 D7 E1 07 01 80 D8  E1 07 01 80 D9 E1 07 01  ................
0200: 29 10 F0 FF FF 7F 20 1C  23 80 27 10 D3 E1 07 01  )..... .#.'.....
0210: 15 27 10 DB E1 07 01 04  27 10 D4 E1 07 01 08 7C  .'......'......|
0220: 01 D4 E1 07 01 1A 49 03  1A F8 03 1A A9 04 1A D2  ......I.........
0230: 04 1A 36 05 1A 5F 05 1A  00 0D 1A 92 0D 1A 49 0E  ..6.._........I.
0240: 1A 7F 06 1A D0 06 1A 11  07 1A 82 07 1A 11 08 1A  ................
0250: 55 08 1A 96 08 02 00 00  03 80 00 6C 02 1A D0 0B  U..........l....
0260: 1A EF 0B 1A FD 0B 1A 3A  0C 01 78 02 1A 68 0C 1A  .......:..x..h..
0270: 96 0C 1A B5 0C 1A D2 0C  1A D6 08 1A 11 09 1A A0  ................
0280: 09 1A 04 0A 1A D7 0A 1A  22 0B 1A 6E 0B 1A 1B 22  ........"..n..."
0290: 27 10 DB E1 07 01 06 27  10 D4 E1 07 01 13 52 24  '......'......R$
02A0: 80 F0 FF FF 7F F0 FF FF  7F 30 38 30 70 45 24 80  .........080pE$.
02B0: F0 FF FF 7F F0 FF FF 7F  30 30 62 66 03 80 4E 01  ........00bf..N.
02C0: D3 E1 07 01 4E 01 DA E1  07 01 4E 01 DB E1 07 01  ....N.....N.....
02D0: 4E 01 D4 E1 07 01 4E 01  D5 E1 07 01 02 03 80 04  N.....N.........
02E0: 80 00 FC 02 4E 01 D6 E1  07 01 4E 01 D7 E1 07 01  ....N.....N.....
02F0: 4E 01 D8 E1 07 01 4E 01  D9 E1 07 01 78 1C 04 80  N.....N.....x...
0300: AB 0A 5C 00 03 80 5C 01  03 80 9A 46 00 45 25 80  ..\...\....F.E%.
0310: F0 FF FF 7F F0 FF FF 7F  66 64 69 32 03 80 21 00  ........fdi2..!.
0320: 02 03 80 04 80 00 30 03  2B D3 E1 07 01 26 80 23  ......0.+....&.#
0330: 1B 34 27 80 77 01 80 02  80 1C 23 80 1B 34 28 80  .4'.w.....#..4(.
0340: 77 01 80 04 80 1C 23 80  1B 45 24 80 F0 FF FF 7F  w.....#..E$.....
0350: F0 FF FF 7F 30 38 31 31  03 80 1A FA 21 1C 29 80  ....0811....!.).
0360: 29 10 F0 FF FF 7F 21 1C  2A 80 2B DA E1 07 01 26  ).....!.*.+....&
0370: 80 23 4A D3 E1 07 01 F0  FF FF 7F 4A D4 E1 07 01  .#J........J....
0380: F0 FF FF 7F 7B D3 E1 07  01 7B D4 E1 07 01 6F 76  ....{....{....ov
0390: D3 E1 07 01 27 10 D3 E1  07 01 06 52 24 80 F0 FF  ....'......R$...
03A0: FF 7F F0 FF FF 7F 30 38  31 31 45 24 80 F0 FF FF  ......0811E$....
03B0: 7F F0 FF FF 7F 30 38 30  31 03 80 1C 2B 80 81 00  .....0801...+...
03C0: DB E1 07 01 27 10 DB E1  07 01 0F 59 01 F0 FF FF  ....'......Y....
03D0: 7F 2C 80 4A F0 FF FF 7F  DB E1 07 01 1C 2D 80 4A  .,.J.........-.J
03E0: F0 FF FF 7F D3 E1 07 01  52 24 80 F0 FF FF 7F F0  ........R$......
03F0: FF FF 7F 30 38 30 31 1B  45 24 80 F0 FF FF 7F F0  ...0801.E$......
0400: FF FF 7F 30 38 30 32 03  80 1C 2A 80 27 10 DB E1  ...0802...*.'...
0410: 07 01 0C 45 24 80 DB E1  07 01 DB E1 07 01 36 30  ...E$.........60
0420: 31 34 03 80 1C 29 80 BA  DB E1 07 01 09 80 0A 80  14...)..........
0430: 0B 80 0C 80 1C 2B 80 81  01 DB E1 07 01 27 10 D3  .....+.......'..
0440: E1 07 01 14 45 24 80 D3  E1 07 01 D3 E1 07 01 36  ....E$.........6
0450: 31 30 39 03 80 1C 2A 80  6E F0 FF FF 7F 2E 80 99  109...*.n.......
0460: F0 FF FF 7F 27 10 D3 E1  07 01 07 1C 2F 80 52 24  ....'......./.R$
0470: 80 F0 FF FF 7F F0 FF FF  7F 30 38 30 32 45 24 80  .........0802E$.
0480: F0 FF FF 7F F0 FF FF 7F  30 38 31 32 03 80 2A 10  ........0812..*.
0490: D3 E1 07 01 79 00 F0 FF  FF 7F D3 E1 07 01 79 00  ....y.........y.
04A0: D3 E1 07 01 F0 FF FF 7F  1B 27 10 D3 E1 07 01 04  .........'......
04B0: 1C 2B 80 03 02 10 30 80  03 03 10 31 80 03 04 10  .+....0....1....
04C0: 32 80 2B D3 E1 07 01 33  80 23 27 10 D3 E1 07 01  2.+....3.#'.....
04D0: 05 1B 2A 10 D3 E1 07 01  6E F0 FF FF 7F 03 80 99  ..*.....n.......
04E0: F0 FF FF 7F 1C 2B 80 7B  D3 E1 07 01 81 00 D3 E1  .....+.{........
04F0: 07 01 27 10 D3 E1 07 01  08 1C 34 80 27 10 D3 E1  ..'.......4.'...
0500: 07 01 0E 52 24 80 F0 FF  FF 7F F0 FF FF 7F 30 38  ...R$.........08
0510: 31 32 45 24 80 F0 FF FF  7F F0 FF FF 7F 30 38 30  12E$.........080
0520: 33 03 80 1C 29 80 52 24  80 F0 FF FF 7F F0 FF FF  3...).R$........
0530: 7F 30 38 30 33 1B 45 24  80 F0 FF FF 7F F0 FF FF  .0803.E$........
0540: 7F 30 38 30 35 03 80 2B  D3 E1 07 01 35 80 23 52  .0805..+....5.#R
0550: 24 80 F0 FF FF 7F F0 FF  FF 7F 30 38 30 35 1B 45  $.........0805.E
0560: 24 80 F0 FF FF 7F F0 FF  FF 7F 30 38 30 36 03 80  $.........0806..
0570: 1C 2A 80 2B D3 E1 07 01  36 80 23 2B D3 E1 07 01  .*.+....6.#+....
0580: 37 80 23 1B 45 24 80 F0  FF FF 7F F0 FF FF 7F 30  7.#.E$.........0
0590: 38 30 36 03 80 81 00 D3  E1 07 01 2B D3 E1 07 01  806........+....
05A0: 38 80 23 2B D3 E1 07 01  39 80 23 4A DB E1 07 01  8.#+....9.#J....
05B0: F0 FF FF 7F 7B DB E1 07  01 1C 2B 80 81 00 DB E1  ....{.....+.....
05C0: 07 01 27 10 DB E1 07 01  07 1C 3A 80 27 10 D3 E1  ..'.......:.'...
05D0: 07 01 15 BA D3 E1 07 01  03 80 03 80 03 80 10 80  ................
05E0: 80 D3 E1 07 01 1C 23 80  29 10 D3 E1 07 01 11 27  ......#.)......'
05F0: 10 DB E1 07 01 04 1B 45  24 80 F0 FF FF 7F F0 FF  .......E$.......
0600: FF 7F 30 38 30 38 03 80  B0 00 D3 E1 07 01 DB E1  ..0808..........
0610: 07 01 3B 80 23 B0 00 D3  E1 07 01 DB E1 07 01 3C  ..;.#..........<
0620: 80 23 52 24 80 F0 FF FF  7F F0 FF FF 7F 30 38 30  .#R$.........080
0630: 38 1B 45 24 80 F0 FF FF  7F F0 FF FF 7F 30 38 30  8.E$.........080
0640: 39 03 80 BA DA E1 07 01  3D 80 3E 80 3F 80 0C 80  9.......=.>.?...
0650: B0 00 D3 E1 07 01 DB E1  07 01 40 80 23 B0 00 D3  ..........@.#...
0660: E1 07 01 DB E1 07 01 41  80 23 5D 03 80 29 80 52  .......A.#]..).R
0670: 24 80 F0 FF FF 7F F0 FF  FF 7F 30 38 30 39 1B 5C  $.........0809.\
0680: 00 42 80 5C 01 42 80 9A  45 24 80 F0 FF FF 7F F0  .B.\.B..E$......
0690: FF FF 7F 30 38 30 61 03  80 1A FA 21 79 00 F0 FF  ...080a....!y...
06A0: FF 7F DA E1 07 01 1C 29  80 27 10 DB E1 07 01 09  .......).'......
06B0: 1C 2A 80 B0 00 D3 E1 07  01 DB E1 07 01 43 80 23  .*...........C.#
06C0: 55 24 80 F0 FF FF 7F F0  FF FF 7F 30 38 30 61 1B  U$.........080a.
06D0: 45 24 80 F0 FF FF 7F F0  FF FF 7F 30 38 30 62 03  E$.........080b.
06E0: 80 B0 00 D3 E1 07 01 DB  E1 07 01 44 80 23 B0 00  ...........D.#..
06F0: D3 E1 07 01 DB E1 07 01  45 80 23 5D 03 80 29 80  ........E.#]..).
0700: 1C 2A 80 B0 00 D3 E1 07  01 DB E1 07 01 41 80 23  .*...........A.#
0710: 1B 27 10 DB E1 07 01 03  27 10 D4 E1 07 01 09 52  .'......'......R
0720: 24 80 F0 FF FF 7F F0 FF  FF 7F 30 38 30 62 45 24  $.........080bE$
0730: 80 F0 FF FF 7F F0 FF FF  7F 30 38 30 64 03 80 7B  .........080d..{
0740: F0 FF FF 7F 1C 3A 80 52  24 80 F0 FF FF 7F F0 FF  .....:.R$.......
0750: FF 7F 30 38 30 64 45 24  80 F0 FF FF 7F F0 FF FF  ..080dE$........
0760: 7F 30 38 30 34 03 80 1C  2B 80 27 10 D4 E1 07 01  .0804...+.'.....
0770: 0C 1C 2B 80 B0 00 D3 E1  07 01 D4 E1 07 01 46 80  ..+...........F.
0780: 23 1B BA DA E1 07 01 47  80 48 80 49 80 03 80 B0  #......G.H.I....
0790: 00 D3 E1 07 01 D4 E1 07  01 4A 80 23 4A D4 E1 07  .........J.#J...
07A0: 01 DA E1 07 01 52 24 80  F0 FF FF 7F F0 FF FF 7F  .....R$.........
07B0: 30 38 30 34 45 24 80 F0  FF FF 7F F0 FF FF 7F 30  0804E$.........0
07C0: 38 31 65 03 80 7B D4 E1  07 01 1C 4B 80 79 00 F0  81e..{.....K.y..
07D0: FF FF 7F D4 E1 07 01 27  10 D4 E1 07 01 0B 1C 2B  .......'.......+
07E0: 80 B0 00 D3 E1 07 01 D4  E1 07 01 4C 80 23 B0 00  ...........L.#..
07F0: D3 E1 07 01 D4 E1 07 01  4D 80 23 2A 10 D4 E1 07  ........M.#*....
0800: 01 52 24 80 F0 FF FF 7F  F0 FF FF 7F 30 38 31 65  .R$.........081e
0810: 1B BA D3 E1 07 01 0D 80  0E 80 0F 80 10 80 4A D3  ..............J.
0820: E1 07 01 F0 FF FF 7F 45  24 80 F0 FF FF 7F F0 FF  .......E$.......
0830: FF 7F 30 38 30 67 03 80  B0 00 D3 E1 07 01 D4 E1  ..080g..........
0840: 07 01 4E 80 23 52 24 80  F0 FF FF 7F F0 FF FF 7F  ..N.#R$.........
0850: 30 38 30 67 1B 45 24 80  F0 FF FF 7F F0 FF FF 7F  080g.E$.........
0860: 30 38 30 68 03 80 81 00  D3 E1 07 01 B0 00 D3 E1  080h............
0870: 07 01 D4 E1 07 01 4F 80  23 B0 00 D3 E1 07 01 D4  ......O.#.......
0880: E1 07 01 50 80 23 5C 00  25 80 5C 01 25 80 9A 81  ...P.#\.%.\.%...
0890: 01 D3 E1 07 01 1B 1C 2A  80 59 01 D4 E1 07 01 51  .......*.Y.....Q
08A0: 80 4A D4 E1 07 01 F0 FF  FF 7F 7B D4 E1 07 01 6F  .J........{....o
08B0: 76 D4 E1 07 01 59 01 D4  E1 07 01 52 80 4A F0 FF  v....Y.....R.J..
08C0: FF 7F D4 E1 07 01 52 24  80 F0 FF FF 7F F0 FF FF  ......R$........
08D0: 7F 30 38 30 68 1B 45 24  80 F0 FF FF 7F F0 FF FF  .080h.E$........
08E0: 7F 30 38 30 6A 03 80 B0  00 D3 E1 07 01 D4 E1 07  .080j...........
08F0: 01 53 80 23 B0 00 D3 E1  07 01 D4 E1 07 01 54 80  .S.#..........T.
0900: 23 52 24 80 F0 FF FF 7F  F0 FF FF 7F 30 38 30 6A  #R$.........080j
0910: 1B 45 24 80 F0 FF FF 7F  F0 FF FF 7F 30 38 30 6B  .E$.........080k
0920: 03 80 5D 03 80 55 80 81  00 D4 E1 07 01 29 10 D4  ..]..U.......)..
0930: E1 07 01 02 03 02 10 2D  80 27 10 DA E1 07 01 07  .......-.'......
0940: 1C 29 80 B0 00 D3 E1 07  01 D4 E1 07 01 56 80 23  .)...........V.#
0950: 2A 10 DA E1 07 01 29 10  D4 E1 07 01 03 1C 2B 80  *.....).......+.
0960: 52 24 80 F0 FF FF 7F F0  FF FF 7F 30 38 30 6B 45  R$.........080kE
0970: 24 80 F0 FF FF 7F F0 FF  FF 7F 30 38 31 6B 03 80  $.........081k..
0980: 1C 3A 80 B0 00 D3 E1 07  01 D4 E1 07 01 57 80 23  .:...........W.#
0990: 52 24 80 F0 FF FF 7F F0  FF FF 7F 30 38 31 6B 1B  R$.........081k.
09A0: 45 24 80 F0 FF FF 7F F0  FF FF 7F 30 38 30 72 03  E$.........080r.
09B0: 80 1C 58 80 52 24 80 F0  FF FF 7F F0 FF FF 7F 30  ..X.R$.........0
09C0: 38 30 72 45 24 80 F0 FF  FF 7F F0 FF FF 7F 30 38  80rE$.........08
09D0: 30 6C 03 80 1C 2A 80 B0  00 D3 E1 07 01 D4 E1 07  0l...*..........
09E0: 01 59 80 23 B0 00 D3 E1  07 01 D4 E1 07 01 5A 80  .Y.#..........Z.
09F0: 23 1C 2A 80 52 24 80 F0  FF FF 7F F0 FF FF 7F 30  #.*.R$.........0
0A00: 38 30 6C 1B 45 24 80 F0  FF FF 7F F0 FF FF 7F 30  80l.E$.........0
0A10: 38 30 6D 03 80 BA DA E1  07 01 0D 80 0E 80 0F 80  80m.............
0A20: 10 80 27 10 DB E1 07 01  0A 29 10 D4 E1 07 01 04  ..'......)......
0A30: 1C 29 80 7B D4 E1 07 01  7B D3 E1 07 01 27 10 D3  .).{....{....'..
0A40: E1 07 01 1C 1C 29 80 27  10 D4 E1 07 01 05 1C 2B  .....).'.......+
0A50: 80 52 24 80 F0 FF FF 7F  F0 FF FF 7F 30 38 30 6D  .R$.........080m
0A60: 45 24 80 F0 FF FF 7F F0  FF FF 7F 30 38 31 34 03  E$.........0814.
0A70: 80 27 10 D4 E1 07 01 05  1C 2A 80 03 02 10 5B 80  .'.......*....[.
0A80: 03 03 10 5C 80 03 04 10  5D 80 B0 00 D3 E1 07 01  ...\....].......
0A90: D4 E1 07 01 5E 80 23 52  24 80 F0 FF FF 7F F0 FF  ....^.#R$.......
0AA0: FF 7F 30 38 31 34 45 24  80 F0 FF FF 7F F0 FF FF  ..0814E$........
0AB0: 7F 30 38 31 33 03 80 1C  2A 80 B0 00 D3 E1 07 01  .0813...*.......
0AC0: D4 E1 07 01 5F 80 23 52  24 80 F0 FF FF 7F F0 FF  ...._.#R$.......
0AD0: FF 7F 30 38 31 33 1B 45  24 80 F0 FF FF 7F F0 FF  ..0813.E$.......
0AE0: FF 7F 30 38 31 6E 03 80  27 10 D4 E1 07 01 06 45  ..081n..'......E
0AF0: 24 80 D4 E1 07 01 D4 E1  07 01 36 30 31 34 03 80  $.........6014..
0B00: 1C 3A 80 6E F0 FF FF 7F  60 80 99 F0 FF FF 7F 1C  .:.n....`.......
0B10: 2A 80 52 24 80 F0 FF FF  7F F0 FF FF 7F 30 38 31  *.R$.........081
0B20: 6E 1B 27 10 D3 E1 07 01  14 1C 2B 80 03 02 10 29  n.'.......+....)
0B30: 80 27 10 DA E1 07 01 07  27 10 DB E1 07 01 14 45  .'......'......E
0B40: 24 80 F0 FF FF 7F F0 FF  FF 7F 30 38 30 6E 03 80  $.........080n..
0B50: 2B D3 E1 07 01 61 80 23  2A 10 DA E1 07 01 52 24  +....a.#*.....R$
0B60: 80 F0 FF FF 7F F0 FF FF  7F 30 38 30 6E 1B 45 24  .........080n.E$
0B70: 80 F0 FF FF 7F F0 FF FF  7F 30 38 30 6F 03 80 1C  .........080o...
0B80: 4B 80 2B D3 E1 07 01 62  80 23 27 10 D3 E1 07 01  K.+....b.#'.....
0B90: 1D 1C 2B 80 27 10 D3 E1  07 01 13 45 24 80 D3 E1  ..+.'......E$...
0BA0: 07 01 D3 E1 07 01 36 30  31 34 03 80 52 24 80 F0  ......6014..R$..
0BB0: FF FF 7F F0 FF FF 7F 30  38 30 6F 45 24 80 F0 FF  .......080oE$...
0BC0: FF 7F F0 FF FF 7F 30 38  30 70 03 80 1C 3A 80 1B  ......080p...:..
0BD0: 45 24 80 F0 FF FF 7F F0  FF FF 7F 30 38 30 71 03  E$.........080q.
0BE0: 80 B0 00 D3 E1 07 01 D4  E1 07 01 63 80 23 1B B0  ...........c.#..
0BF0: 00 D3 E1 07 01 D4 E1 07  01 64 80 23 1B 52 24 80  .........d.#.R$.
0C00: F0 FF FF 7F F0 FF FF 7F  30 38 30 71 45 24 80 F0  ........080qE$..
0C10: FF FF 7F F0 FF FF 7F 30  38 30 73 03 80 B0 00 D3  .......080s.....
0C20: E1 07 01 D4 E1 07 01 65  80 23 52 24 80 F0 FF FF  .......e.#R$....
0C30: 7F F0 FF FF 7F 30 38 30  73 1B 45 24 80 F0 FF FF  .....080s.E$....
0C40: 7F F0 FF FF 7F 30 38 30  78 03 80 B0 00 D3 E1 07  .....080x.......
0C50: 01 D4 E1 07 01 66 80 23  52 24 80 F0 FF FF 7F F0  .....f.#R$......
0C60: FF FF 7F 30 38 30 78 1B  45 24 80 F0 FF FF 7F F0  ...080x.E$......
0C70: FF FF 7F 30 38 30 75 03  80 B0 00 D3 E1 07 01 D4  ...080u.........
0C80: E1 07 01 67 80 23 52 24  80 F0 FF FF 7F F0 FF FF  ...g.#R$........
0C90: 7F 30 38 30 75 1B 45 24  80 F0 FF FF 7F F0 FF FF  .080u.E$........
0CA0: 7F 30 38 30 76 03 80 B0  00 D3 E1 07 01 D4 E1 07  .080v...........
0CB0: 01 68 80 23 1B B0 00 D3  E1 07 01 D4 E1 07 01 69  .h.#...........i
0CC0: 80 23 52 24 80 F0 FF FF  7F F0 FF FF 7F 30 38 30  .#R$.........080
0CD0: 76 1B 45 24 80 F0 FF FF  7F F0 FF FF 7F 30 38 30  v.E$.........080
0CE0: 78 03 80 B0 00 D3 E1 07  01 D4 E1 07 01 6A 80 23  x............j.#
0CF0: 52 24 80 F0 FF FF 7F F0  FF FF 7F 30 38 30 78 1B  R$.........080x.
0D00: 1A 5D 22 1C 2B 80 27 10  D3 E1 07 01 0F 52 24 80  .]".+.'......R$.
0D10: F0 FF FF 7F F0 FF FF 7F  30 38 30 36 1C 29 80 34  ........0806.).4
0D20: 6B 80 77 6C 80 04 80 4E  00 DA E1 07 01 4E 00 DB  k.wl...N.....N..
0D30: E1 07 01 92 01 DA E1 07  01 92 01 DB E1 07 01 94  ................
0D40: 01 DA E1 07 01 59 05 DA  E1 07 01 01 59 05 DB E1  .....Y......Y...
0D50: 07 01 01 BA DA E1 07 01  6D 80 6E 80 6F 80 13 80  ........m.n.o...
0D60: BA DB E1 07 01 6D 80 6E  80 6F 80 13 80 29 10 DA  .....m.n.o...)..
0D70: E1 07 01 02 80 DA E1 07  01 1C 23 80 27 10 DB E1  ..........#.'...
0D80: 07 01 06 80 DA E1 07 01  5C 00 70 80 5C 01 70 80  ........\.p.\.p.
0D90: 9A 1B 1C 2A 80 C5 71 80  DA E1 07 01 DA E1 07 01  ...*..q.........
0DA0: 73 30 30 33 03 80 1C 2B  80 45 24 80 F0 FF FF 7F  s003...+.E$.....
0DB0: F0 FF FF 7F 30 38 67 31  03 80 1A 3C 22 2B D3 E1  ....08g1...<"+..
0DC0: 07 01 38 80 23 2B D3 E1  07 01 39 80 23 2B D3 E1  ..8.#+....9.#+..
0DD0: 07 01 3B 80 23 1A 9F 22  C5 71 80 DA E1 07 01 DA  ..;.#..".q......
0DE0: E1 07 01 6B 69 6C 30 03  80 1C 2B 80 77 72 80 04  ...kil0...+.wr..
0DF0: 80 9F 73 80 DB E1 07 01  DB E1 07 01 6D 61 69 6E  ..s.........main
0E00: 03 80 4E 01 DA E1 07 01  1A 20 03 1A 7E 22 45 24  ..N...... ..~"E$
0E10: 80 DB E1 07 01 DB E1 07  01 73 65 30 31 03 80 2B  .........se01..+
0E20: D3 E1 07 01 3C 80 23 A2  73 80 DB E1 07 01 DB E1  ....<.#.s.......
0E30: 07 01 6D 61 69 6E 1C 2A  80 52 24 80 F0 FF FF 7F  ..main.*.R$.....
0E40: F0 FF FF 7F 30 38 67 31  1B 45 24 80 F0 FF FF 7F  ....08g1.E$.....
0E50: F0 FF FF 7F 30 38 67 32  03 80 1A 20 03 2B D3 E1  ....08g2... .+..
0E60: 07 01 40 80 1C 58 80 77  74 80 04 80 1C 75 80 77  ..@..X.wt....u.w
0E70: 76 80 04 80 1C 75 80 77  75 80 04 80 1C 75 80 77  v....u.wu....u.w
0E80: 77 80 04 80 1C 75 80 77  78 80 04 80 2B D3 E1 07  w....u.wx...+...
0E90: 01 41 80 23 1A 20 03 1A  5D 22 1C 2B 80 52 24 80  .A.#. ..]".+.R$.
0EA0: F0 FF FF 7F F0 FF FF 7F  30 38 67 32 1C 2F 80 1A  ........08g2./..
0EB0: 1B 22 1A 3C 22 1A 31 03  59 05 DB E1 07 01 00 27  .".<".1.Y......'
0EC0: 10 DB E1 07 01 05 BA DA  E1 07 01 3D 80 3E 80 3F  ...........=.>.?
0ED0: 80 0C 80 BA DB E1 07 01  09 80 0A 80 0B 80 0C 80  ................
0EE0: 80 DA E1 07 01 80 DB E1  07 01 1C 23 80 27 10 DA  ...........#.'..
0EF0: E1 07 01 04 27 10 D3 E1  07 01 15 27 10 DB E1 07  ....'......'....
0F00: 01 04 27 10 D4 E1 07 01  08 4A DB E1 07 01 F0 FF  ..'......J......
0F10: FF 7F 7B DB E1 07 01 1C  23 80 81 00 DB E1 07 01  ..{.....#.......
0F20: 29 10 DB E1 07 01 08 1C  2A 80 1B                 ).......*..     
```

#### Opcodes

```
  0: 0x0001 [0x42] SET_CLI_EVENT_CANCEL_DATA()
  1: 0x0002 [0x1A] CALL_SUBROUTINE(address=0x221B)
  2: 0x0005 [0x03] ExtData[1]->WorkLocal[0] = Work_Zone[2]
  3: 0x000A [0x46] CAMERA_CONTROL: Disable user control
  4: 0x000C [0x38] SET_CLIENT_EVENT_MODE(mode=19*)
  5: 0x000F [0xAB] EventEntity->UnknownFlag = 1 // Enable unknown flag
  6: 0x0011 [0x77] SET_EVENT_TIME_WEATHER(hour=2*, weather=16*)
  7: 0x0016 [0x4E] SET_ENTITY_HIDE_FLAG: Show Young Aldo (ID: 17293779/0x0107E1D3)
  8: 0x001C [0x4E] SET_ENTITY_HIDE_FLAG: Show LocalPlayer
  9: 0x0022 [0x4E] SET_ENTITY_HIDE_FLAG: Show ??? (ID: 17293786/0x0107E1DA)
 10: 0x0028 [0x4E] SET_ENTITY_HIDE_FLAG: Show Unnamed NPC (ID: 17293787/0x0107E1DB)
 11: 0x002E [0x4E] SET_ENTITY_HIDE_FLAG: Show Seed Mandragora (ID: 17293780/0x0107E1D4)
 12: 0x0034 [0x4E] SET_ENTITY_HIDE_FLAG: Hide Seed Mandragora (ID: 17293781/0x0107E1D5)
 13: 0x003A [0x02] IF !(0* == 1*) GOTO 0x005A
 14: 0x0042 [0x4E] SET_ENTITY_HIDE_FLAG: Show Seed Mandragora (ID: 17293782/0x0107E1D6)
 15: 0x0048 [0x4E] SET_ENTITY_HIDE_FLAG: Show Seed Mandragora (ID: 17293783/0x0107E1D7)
 16: 0x004E [0x4E] SET_ENTITY_HIDE_FLAG: Show Seed Mandragora (ID: 17293784/0x0107E1D8)
 17: 0x0054 [0x4E] SET_ENTITY_HIDE_FLAG: Show Seed Mandragora (ID: 17293785/0x0107E1D9)
 18: 0x005A [0x92] Young Aldo (ID: 17293779/0x0107E1D3)->Render.Flags3 ^= 0x01
 19: 0x0060 [0x92] ??? (ID: 17293786/0x0107E1DA)->Render.Flags3 ^= 0x01
 20: 0x0066 [0x92] Unnamed NPC (ID: 17293787/0x0107E1DB)->Render.Flags3 ^= 0x01
 21: 0x006C [0x92] Seed Mandragora (ID: 17293780/0x0107E1D4)->Render.Flags3 ^= 0x01
 22: 0x0072 [0x92] Seed Mandragora (ID: 17293781/0x0107E1D5)->Render.Flags3 ^= 0x01
 23: 0x0078 [0x02] IF !(0* == 1*) GOTO 0x0098
 24: 0x0080 [0x92] Seed Mandragora (ID: 17293782/0x0107E1D6)->Render.Flags3 ^= 0x01
 25: 0x0086 [0x92] Seed Mandragora (ID: 17293783/0x0107E1D7)->Render.Flags3 ^= 0x01
 26: 0x008C [0x92] Seed Mandragora (ID: 17293784/0x0107E1D8)->Render.Flags3 ^= 0x01
 27: 0x0092 [0x92] Seed Mandragora (ID: 17293785/0x0107E1D9)->Render.Flags3 ^= 0x01
 28: 0x0098 [0x94] Young Aldo (ID: 17293779/0x0107E1D3)->Render.Flags3 ^= 0x01
 29: 0x009E [0x94] LocalPlayer->Render.Flags3 ^= 0x01
 30: 0x00A4 [0x94] ??? (ID: 17293786/0x0107E1DA)->Render.Flags3 ^= 0x01
 31: 0x00AA [0x94] Unnamed NPC (ID: 17293787/0x0107E1DB)->Render.Flags3 ^= 0x01
 32: 0x00B0 [0x94] Seed Mandragora (ID: 17293780/0x0107E1D4)->Render.Flags3 ^= 0x01
 33: 0x00B6 [0x94] Seed Mandragora (ID: 17293781/0x0107E1D5)->Render.Flags3 ^= 0x01
 34: 0x00BC [0x02] IF !(0* == 1*) GOTO 0x00DC
 35: 0x00C4 [0x94] Seed Mandragora (ID: 17293782/0x0107E1D6)->Render.Flags3 ^= 0x01
 36: 0x00CA [0x94] Seed Mandragora (ID: 17293783/0x0107E1D7)->Render.Flags3 ^= 0x01
 37: 0x00D0 [0x94] Seed Mandragora (ID: 17293784/0x0107E1D8)->Render.Flags3 ^= 0x01
 38: 0x00D6 [0x94] Seed Mandragora (ID: 17293785/0x0107E1D9)->Render.Flags3 ^= 0x01
 39: 0x00DC [0x02] IF !(0* == 0*) GOTO 0x00EE
 40: 0x00E4 [0x27] REQ_SET(priority=0x10, entity_id=??? (ID: 17293786/0x0107E1DA), tag_num=0x04)
 41: 0x00EB [0x01] GOTO 0x00F5
 42: 0x00EE [0x27] REQ_SET(priority=0x10, entity_id=??? (ID: 17293786/0x0107E1DA), tag_num=0x03)

SUBROUTINE_00F5:
 43: 0x00F5 [0x27] REQ_SET(priority=0x10, entity_id=Unnamed NPC (ID: 17293787/0x0107E1DB), tag_num=0x05)
 44: 0x00FC [0x27] REQ_SET(priority=0x10, entity_id=Seed Mandragora (ID: 17293780/0x0107E1D4), tag_num=0x0A)
 45: 0x0103 [0x27] REQ_SET(priority=0x10, entity_id=Seed Mandragora (ID: 17293781/0x0107E1D5), tag_num=0x02)
 46: 0x010A [0x02] IF !(0* == 1*) GOTO 0x012E
 47: 0x0112 [0x27] REQ_SET(priority=0x10, entity_id=Seed Mandragora (ID: 17293782/0x0107E1D6), tag_num=0x04)
 48: 0x0119 [0x27] REQ_SET(priority=0x10, entity_id=Seed Mandragora (ID: 17293783/0x0107E1D7), tag_num=0x03)
 49: 0x0120 [0x27] REQ_SET(priority=0x10, entity_id=Seed Mandragora (ID: 17293784/0x0107E1D8), tag_num=0x02)
 50: 0x0127 [0x27] REQ_SET(priority=0x10, entity_id=Seed Mandragora (ID: 17293785/0x0107E1D9), tag_num=0x02)
 51: 0x012E [0x59] UPDATE_ENTITY_DATA: ??? (ID: 17293786/0x0107E1DA)->Render.Flags0 |= 0x200000
 52: 0x0135 [0x59] UPDATE_ENTITY_DATA: Seed Mandragora (ID: 17293781/0x0107E1D5)->Render.Flags0 |= 0x200000
 53: 0x013C [0xBA] SET_ENTITY_POSITION(entity_id=LocalPlayer, pos_x=-116.126*, pos_z=307.282*, pos_y=-19.533*, direction=98.3°*)
 54: 0x0149 [0xBA] SET_ENTITY_POSITION(entity_id=Young Aldo (ID: 17293779/0x0107E1D3), pos_x=-118.189*, pos_z=307.409*, pos_y=-19.546*, direction=100.5°*)
 55: 0x0156 [0xBA] SET_ENTITY_POSITION(entity_id=??? (ID: 17293786/0x0107E1DA), pos_x=-122.367*, pos_z=306.072*, pos_y=-24.371*, direction=179.8°*)
 56: 0x0163 [0xBA] SET_ENTITY_POSITION(entity_id=Unnamed NPC (ID: 17293787/0x0107E1DB), pos_x=-122.367*, pos_z=306.072*, pos_y=-24.371*, direction=179.8°*)
 57: 0x0170 [0xBA] SET_ENTITY_POSITION(entity_id=Seed Mandragora (ID: 17293780/0x0107E1D4), pos_x=-118.189*, pos_z=307.409*, pos_y=-19.546*, direction=100.5°*)
 58: 0x017D [0xBA] SET_ENTITY_POSITION(entity_id=Seed Mandragora (ID: 17293781/0x0107E1D5), pos_x=0.000*, pos_z=36.400*, pos_y=-53.657*, direction=174.8°*)
 59: 0x018A [0x02] IF !(0* == 1*) GOTO 0x01C6
 60: 0x0192 [0xBA] SET_ENTITY_POSITION(entity_id=Seed Mandragora (ID: 17293782/0x0107E1D6), pos_x=20.774*, pos_z=257.783*, pos_y=-21.485*, direction=140.6°*)
 61: 0x019F [0xBA] SET_ENTITY_POSITION(entity_id=Seed Mandragora (ID: 17293783/0x0107E1D7), pos_x=4.897*, pos_z=257.530*, pos_y=-22.585*, direction=228.5°*)
 62: 0x01AC [0xBA] SET_ENTITY_POSITION(entity_id=Seed Mandragora (ID: 17293784/0x0107E1D8), pos_x=71.882*, pos_z=287.310*, pos_y=-42.985*, direction=43.9°*)
 63: 0x01B9 [0xBA] SET_ENTITY_POSITION(entity_id=Seed Mandragora (ID: 17293785/0x0107E1D9), pos_x=60.522*, pos_z=295.483*, pos_y=-42.485*, direction=0.0°*)
 64: 0x01C6 [0x80] LOAD_WAIT(entity=Young Aldo (ID: 17293779/0x0107E1D3))
 65: 0x01CB [0x80] LOAD_WAIT(entity=LocalPlayer)
 66: 0x01D0 [0x80] LOAD_WAIT(entity=??? (ID: 17293786/0x0107E1DA))
 67: 0x01D5 [0x80] LOAD_WAIT(entity=Unnamed NPC (ID: 17293787/0x0107E1DB))
 68: 0x01DA [0x80] LOAD_WAIT(entity=Seed Mandragora (ID: 17293780/0x0107E1D4))
 69: 0x01DF [0x80] LOAD_WAIT(entity=Seed Mandragora (ID: 17293781/0x0107E1D5))
 70: 0x01E4 [0x02] IF !(0* == 1*) GOTO 0x0200
 71: 0x01EC [0x80] LOAD_WAIT(entity=Seed Mandragora (ID: 17293782/0x0107E1D6))
 72: 0x01F1 [0x80] LOAD_WAIT(entity=Seed Mandragora (ID: 17293783/0x0107E1D7))
 73: 0x01F6 [0x80] LOAD_WAIT(entity=Seed Mandragora (ID: 17293784/0x0107E1D8))
 74: 0x01FB [0x80] LOAD_WAIT(entity=Seed Mandragora (ID: 17293785/0x0107E1D9))
 75: 0x0200 [0x29] REQ_SET_WAIT(priority=0x10, entity_id=LocalPlayer, tag_num=0x20)
 76: 0x0207 [0x1C] WAIT(15* ticks)
 77: 0x020A [0x27] REQ_SET(priority=0x10, entity_id=Young Aldo (ID: 17293779/0x0107E1D3), tag_num=0x15)
 78: 0x0211 [0x27] REQ_SET(priority=0x10, entity_id=Unnamed NPC (ID: 17293787/0x0107E1DB), tag_num=0x04)
 79: 0x0218 [0x27] REQ_SET(priority=0x10, entity_id=Seed Mandragora (ID: 17293780/0x0107E1D4), tag_num=0x08)
 80: 0x021F [0x7C] Seed Mandragora (ID: 17293780/0x0107E1D4)->Render.Flags2 |= 0x01
 81: 0x0225 [0x1A] CALL_SUBROUTINE(address=0x0349)
 82: 0x0228 [0x1A] CALL_SUBROUTINE(address=0x03F8)
 83: 0x022B [0x1A] CALL_SUBROUTINE(address=0x04A9)
 84: 0x022E [0x1A] CALL_SUBROUTINE(address=0x04D2)
 85: 0x0231 [0x1A] CALL_SUBROUTINE(address=0x0536)
 86: 0x0234 [0x1A] CALL_SUBROUTINE(address=0x055F)
 87: 0x0237 [0x1A] CALL_SUBROUTINE(address=0x0D00)
 88: 0x023A [0x1A] CALL_SUBROUTINE(address=0x0D92)
 89: 0x023D [0x1A] CALL_SUBROUTINE(address=0x0E49)
 90: 0x0240 [0x1A] CALL_SUBROUTINE(address=0x067F)
 91: 0x0243 [0x1A] CALL_SUBROUTINE(address=0x06D0)
 92: 0x0246 [0x1A] CALL_SUBROUTINE(address=0x0711)
 93: 0x0249 [0x1A] CALL_SUBROUTINE(address=0x0782)
 94: 0x024C [0x1A] CALL_SUBROUTINE(address=0x0811)
 95: 0x024F [0x1A] CALL_SUBROUTINE(address=0x0855)
 96: 0x0252 [0x1A] CALL_SUBROUTINE(address=0x0896)
 97: 0x0255 [0x02] IF !(ExtData[1]->WorkLocal[0] == 0*) GOTO 0x026C
 98: 0x025D [0x1A] CALL_SUBROUTINE(address=0x0BD0)
 99: 0x0260 [0x1A] CALL_SUBROUTINE(address=0x0BEF)
100: 0x0263 [0x1A] CALL_SUBROUTINE(address=0x0BFD)
101: 0x0266 [0x1A] CALL_SUBROUTINE(address=0x0C3A)
102: 0x0269 [0x01] GOTO 0x0278
103: 0x026C [0x1A] CALL_SUBROUTINE(address=0x0C68)
104: 0x026F [0x1A] CALL_SUBROUTINE(address=0x0C96)
105: 0x0272 [0x1A] CALL_SUBROUTINE(address=0x0CB5)
106: 0x0275 [0x1A] CALL_SUBROUTINE(address=0x0CD2)

SUBROUTINE_0278:
107: 0x0278 [0x1A] CALL_SUBROUTINE(address=0x08D6)
108: 0x027B [0x1A] CALL_SUBROUTINE(address=0x0911)
109: 0x027E [0x1A] CALL_SUBROUTINE(address=0x09A0)
110: 0x0281 [0x1A] CALL_SUBROUTINE(address=0x0A04)
111: 0x0284 [0x1A] CALL_SUBROUTINE(address=0x0AD7)
112: 0x0287 [0x1A] CALL_SUBROUTINE(address=0x0B22)
113: 0x028A [0x1A] CALL_SUBROUTINE(address=0x0B6E)
114: 0x028D [0x1A] CALL_SUBROUTINE(address=0x221B)
115: 0x0290 [0x27] REQ_SET(priority=0x10, entity_id=Unnamed NPC (ID: 17293787/0x0107E1DB), tag_num=0x06)
116: 0x0297 [0x27] REQ_SET(priority=0x10, entity_id=Seed Mandragora (ID: 17293780/0x0107E1D4), tag_num=0x13)
117: 0x029E [0x52] END_LOAD_SCHEDULER: End scheduler "080p" with entities [LocalPlayer, LocalPlayer], work=461*
118: 0x02AD [0x45] LOAD_SCHEDULED_TASK: Load scheduler "00bf" with entities [LocalPlayer, LocalPlayer], work=[461*, 0*]
119: 0x02BE [0x4E] SET_ENTITY_HIDE_FLAG: Hide Young Aldo (ID: 17293779/0x0107E1D3)
120: 0x02C4 [0x4E] SET_ENTITY_HIDE_FLAG: Hide ??? (ID: 17293786/0x0107E1DA)
121: 0x02CA [0x4E] SET_ENTITY_HIDE_FLAG: Hide Unnamed NPC (ID: 17293787/0x0107E1DB)
122: 0x02D0 [0x4E] SET_ENTITY_HIDE_FLAG: Hide Seed Mandragora (ID: 17293780/0x0107E1D4)
123: 0x02D6 [0x4E] SET_ENTITY_HIDE_FLAG: Hide Seed Mandragora (ID: 17293781/0x0107E1D5)
124: 0x02DC [0x02] IF !(0* == 1*) GOTO 0x02FC
125: 0x02E4 [0x4E] SET_ENTITY_HIDE_FLAG: Hide Seed Mandragora (ID: 17293782/0x0107E1D6)
126: 0x02EA [0x4E] SET_ENTITY_HIDE_FLAG: Hide Seed Mandragora (ID: 17293783/0x0107E1D7)
127: 0x02F0 [0x4E] SET_ENTITY_HIDE_FLAG: Hide Seed Mandragora (ID: 17293784/0x0107E1D8)
128: 0x02F6 [0x4E] SET_ENTITY_HIDE_FLAG: Hide Seed Mandragora (ID: 17293785/0x0107E1D9)
129: 0x02FC [0x78] ENABLE_GAME_TIMER_RESET_WEATHER()
130: 0x02FD [0x1C] WAIT(1* ticks)
131: 0x0300 [0xAB] EventEntity->UnknownFlag = 0 // Disable unknown flag
132: 0x0302 [0x5C] MUSIC_CONTROL: Set Idle (Day) music to song 0*
133: 0x0306 [0x5C] MUSIC_CONTROL: Set Idle (Night) music to song 0*
134: 0x030A [0x9A] WAIT_MUSIC_SERVER()
135: 0x030B [0x46] CAMERA_CONTROL: Restore default settings
136: 0x030D [0x45] LOAD_SCHEDULED_TASK: Load scheduler "fdi2" with entities [LocalPlayer, LocalPlayer], work=[200*, 0*]
137: 0x031E [0x21] END_EVENT
138: 0x031F [0x00] END_REQSTACK()

SUBROUTINE_0320:
139: 0x0320 [0x02] IF !(0* == 1*) GOTO 0x0330
140: 0x0328 [0x2B] Young Aldo (ID: 17293779/0x0107E1D3) [8195*]:
    → "Ah, there you are, <Player>. I knew you'd come."
141: 0x032F [0x23] WAIT_FOR_DIALOG_INTERACTION
142: 0x0330 [0x1B] RETURN

SUBROUTINE_0331:
143: 0x0331 [0x34] LOAD_UNLOAD_ZONE(zone_id=126*)
144: 0x0334 [0x77] SET_EVENT_TIME_WEATHER(hour=2*, weather=16*)
145: 0x0339 [0x1C] WAIT(15* ticks)
146: 0x033C [0x1B] RETURN

SUBROUTINE_0349:
147: 0x0349 [0x45] LOAD_SCHEDULED_TASK: Load scheduler "0811" with entities [LocalPlayer, LocalPlayer], work=[461*, 0*]
148: 0x035A [0x1A] CALL_SUBROUTINE(address=0x21FA)
149: 0x035D [0x1C] WAIT(120* ticks)
150: 0x0360 [0x29] REQ_SET_WAIT(priority=0x10, entity_id=LocalPlayer, tag_num=0x21)
151: 0x0367 [0x1C] WAIT(60* ticks)
152: 0x036A [0x2B] ??? (ID: 17293786/0x0107E1DA) [8195*]:
    → "Ah, there you are, <Player>. I knew you'd come."
153: 0x0371 [0x23] WAIT_FOR_DIALOG_INTERACTION
154: 0x0372 [0x4A] Young Aldo (ID: 17293779/0x0107E1D3) looks at LocalPlayer
155: 0x037B [0x4A] Seed Mandragora (ID: 17293780/0x0107E1D4) looks at LocalPlayer
156: 0x0384 [0x7B] Young Aldo (ID: 17293779/0x0107E1D3) stops talking
157: 0x0389 [0x7B] Seed Mandragora (ID: 17293780/0x0107E1D4) stops talking
158: 0x038E [0x6F] WAIT_FRAME_DELAY: Yield until WaitTime reaches zero
159: 0x038F [0x76] CHECK_ENTITY_RENDER_FLAGS: Wait until Young Aldo (ID: 17293779/0x0107E1D3) Render.Flags0 and Render.Flags3 conditions are met
160: 0x0394 [0x27] REQ_SET(priority=0x10, entity_id=Young Aldo (ID: 17293779/0x0107E1D3), tag_num=0x06)
161: 0x039B [0x52] END_LOAD_SCHEDULER: End scheduler "0811" with entities [LocalPlayer, LocalPlayer], work=461*
162: 0x03AA [0x45] LOAD_SCHEDULED_TASK: Load scheduler "0801" with entities [LocalPlayer, LocalPlayer], work=[461*, 0*]
163: 0x03BB [0x1C] WAIT(30* ticks)
164: 0x03BE [0x81] SET_ENTITY_BLINKING(blink_flag=0x00, entity=Unnamed NPC (ID: 17293787/0x0107E1DB))
165: 0x03C4 [0x27] REQ_SET(priority=0x10, entity_id=Unnamed NPC (ID: 17293787/0x0107E1DB), tag_num=0x0F)
166: 0x03CB [0x59] UPDATE_ENTITY_DATA: Set LocalPlayer turn speed = 40*
167: 0x03D3 [0x4A] LocalPlayer looks at Unnamed NPC (ID: 17293787/0x0107E1DB)
168: 0x03DC [0x1C] WAIT(250* ticks)
169: 0x03DF [0x4A] LocalPlayer looks at Young Aldo (ID: 17293779/0x0107E1D3)
170: 0x03E8 [0x52] END_LOAD_SCHEDULER: End scheduler "0801" with entities [LocalPlayer, LocalPlayer], work=461*
171: 0x03F7 [0x1B] RETURN

SUBROUTINE_03F8:
172: 0x03F8 [0x45] LOAD_SCHEDULED_TASK: Load scheduler "0802" with entities [LocalPlayer, LocalPlayer], work=[461*, 0*]
173: 0x0409 [0x1C] WAIT(60* ticks)
174: 0x040C [0x27] REQ_SET(priority=0x10, entity_id=Unnamed NPC (ID: 17293787/0x0107E1DB), tag_num=0x0C)
175: 0x0413 [0x45] LOAD_SCHEDULED_TASK: Load scheduler "6014" with entities [Unnamed NPC (ID: 17293787/0x0107E1DB), Unnamed NPC (ID: 17293787/0x0107E1DB)], work=[461*, 0*]
176: 0x0424 [0x1C] WAIT(120* ticks)
177: 0x0427 [0xBA] SET_ENTITY_POSITION(entity_id=Unnamed NPC (ID: 17293787/0x0107E1DB), pos_x=-118.189*, pos_z=307.409*, pos_y=-19.546*, direction=100.5°*)
178: 0x0434 [0x1C] WAIT(30* ticks)
179: 0x0437 [0x81] SET_ENTITY_BLINKING(blink_flag=0x01, entity=Unnamed NPC (ID: 17293787/0x0107E1DB))
180: 0x043D [0x27] REQ_SET(priority=0x10, entity_id=Young Aldo (ID: 17293779/0x0107E1D3), tag_num=0x14)
181: 0x0444 [0x45] LOAD_SCHEDULED_TASK: Load scheduler "6109" with entities [Young Aldo (ID: 17293779/0x0107E1D3), Young Aldo (ID: 17293779/0x0107E1D3)], work=[461*, 0*]
182: 0x0455 [0x1C] WAIT(60* ticks)
183: 0x0458 [0x6E] LocalPlayer uses emote 21*
184: 0x045F [0x99] Wait for LocalPlayer animation to complete
185: 0x0464 [0x27] REQ_SET(priority=0x10, entity_id=Young Aldo (ID: 17293779/0x0107E1D3), tag_num=0x07)
186: 0x046B [0x1C] WAIT(90* ticks)
187: 0x046E [0x52] END_LOAD_SCHEDULER: End scheduler "0802" with entities [LocalPlayer, LocalPlayer], work=461*
188: 0x047D [0x45] LOAD_SCHEDULED_TASK: Load scheduler "0812" with entities [LocalPlayer, LocalPlayer], work=[461*, 0*]
189: 0x048E [0x2A] GET_REQ_LEVEL(level=16, entity_id=Young Aldo (ID: 17293779/0x0107E1D3))
190: 0x0494 [0x79] LocalPlayer looks at Young Aldo (ID: 17293779/0x0107E1D3) (Basic look)
191: 0x049E [0x79] Young Aldo (ID: 17293779/0x0107E1D3) looks at LocalPlayer (Basic look)
192: 0x04A8 [0x1B] RETURN

SUBROUTINE_04A9:
193: 0x04A9 [0x27] REQ_SET(priority=0x10, entity_id=Young Aldo (ID: 17293779/0x0107E1D3), tag_num=0x04)
194: 0x04B0 [0x1C] WAIT(30* ticks)
195: 0x04B3 [0x03] Work_Zone[2] = 2740*
196: 0x04B8 [0x03] Work_Zone[3] = 2741*
197: 0x04BD [0x03] Work_Zone[4] = 2742*
198: 0x04C2 [0x2B] Young Aldo (ID: 17293779/0x0107E1D3) [8196*]:
    → "Let's see what you've brought with you. The $0, $1, and $2... Ahhh, excellent."
199: 0x04C9 [0x23] WAIT_FOR_DIALOG_INTERACTION
200: 0x04CA [0x27] REQ_SET(priority=0x10, entity_id=Young Aldo (ID: 17293779/0x0107E1D3), tag_num=0x05)
201: 0x04D1 [0x1B] RETURN

SUBROUTINE_04D2:
202: 0x04D2 [0x2A] GET_REQ_LEVEL(level=16, entity_id=Young Aldo (ID: 17293779/0x0107E1D3))
203: 0x04D8 [0x6E] LocalPlayer uses emote 0*
204: 0x04DF [0x99] Wait for LocalPlayer animation to complete
205: 0x04E4 [0x1C] WAIT(30* ticks)
206: 0x04E7 [0x7B] Young Aldo (ID: 17293779/0x0107E1D3) stops talking
207: 0x04EC [0x81] SET_ENTITY_BLINKING(blink_flag=0x00, entity=Young Aldo (ID: 17293779/0x0107E1D3))
208: 0x04F2 [0x27] REQ_SET(priority=0x10, entity_id=Young Aldo (ID: 17293779/0x0107E1D3), tag_num=0x08)
209: 0x04F9 [0x1C] WAIT(130* ticks)
210: 0x04FC [0x27] REQ_SET(priority=0x10, entity_id=Young Aldo (ID: 17293779/0x0107E1D3), tag_num=0x0E)
211: 0x0503 [0x52] END_LOAD_SCHEDULER: End scheduler "0812" with entities [LocalPlayer, LocalPlayer], work=461*
212: 0x0512 [0x45] LOAD_SCHEDULED_TASK: Load scheduler "0803" with entities [LocalPlayer, LocalPlayer], work=[461*, 0*]
213: 0x0523 [0x1C] WAIT(120* ticks)
214: 0x0526 [0x52] END_LOAD_SCHEDULER: End scheduler "0803" with entities [LocalPlayer, LocalPlayer], work=461*
215: 0x0535 [0x1B] RETURN

SUBROUTINE_0536:
216: 0x0536 [0x45] LOAD_SCHEDULED_TASK: Load scheduler "0805" with entities [LocalPlayer, LocalPlayer], work=[461*, 0*]
217: 0x0547 [0x2B] Young Aldo (ID: 17293779/0x0107E1D3) [8197*]:
    → "Long, long ago... Long before your great grandfather--or even your great grandfather's great grandfather--ever drew breath, there was a song..."
218: 0x054E [0x23] WAIT_FOR_DIALOG_INTERACTION
219: 0x054F [0x52] END_LOAD_SCHEDULER: End scheduler "0805" with entities [LocalPlayer, LocalPlayer], work=461*
220: 0x055E [0x1B] RETURN

SUBROUTINE_055F:
221: 0x055F [0x45] LOAD_SCHEDULED_TASK: Load scheduler "0806" with entities [LocalPlayer, LocalPlayer], work=[461*, 0*]
222: 0x0570 [0x1C] WAIT(60* ticks)
223: 0x0573 [0x2B] Young Aldo (ID: 17293779/0x0107E1D3) [8198*]:
    → "A song born from the mouths of the ancient gods themselves."
224: 0x057A [0x23] WAIT_FOR_DIALOG_INTERACTION
225: 0x057B [0x2B] Young Aldo (ID: 17293779/0x0107E1D3) [8199*]:
    → "A dreadful, terrible song that, if sung to its conclusion, would mean the end of the world--the lay of destruction."
226: 0x0582 [0x23] WAIT_FOR_DIALOG_INTERACTION
227: 0x0583 [0x1B] RETURN

SUBROUTINE_067F:
228: 0x067F [0x5C] MUSIC_CONTROL: Set Idle (Day) music to song 160*
229: 0x0683 [0x5C] MUSIC_CONTROL: Set Idle (Night) music to song 160*
230: 0x0687 [0x9A] WAIT_MUSIC_SERVER()
231: 0x0688 [0x45] LOAD_SCHEDULED_TASK: Load scheduler "080a" with entities [LocalPlayer, LocalPlayer], work=[461*, 0*]
232: 0x0699 [0x1A] CALL_SUBROUTINE(address=0x21FA)
233: 0x069C [0x79] LocalPlayer looks at ??? (ID: 17293786/0x0107E1DA) (Basic look)
234: 0x06A6 [0x1C] WAIT(120* ticks)
235: 0x06A9 [0x27] REQ_SET(priority=0x10, entity_id=Unnamed NPC (ID: 17293787/0x0107E1DB), tag_num=0x09)
236: 0x06B0 [0x1C] WAIT(60* ticks)
237: 0x06B3 [0xB0] PRINT_EVENT_MESSAGE(unknown1=0x00, speaker_id=0x0107E1D3, listener_id=0x0107E1DB, message_offset=0x8043)
238: 0x06BF [0x23] WAIT_FOR_DIALOG_INTERACTION
239: 0x06C0 [0x55] WAIT_LOAD_SCHEDULER: Wait for scheduler "080a" with entities [LocalPlayer, LocalPlayer], work=461*
240: 0x06CF [0x1B] RETURN

SUBROUTINE_06D0:
241: 0x06D0 [0x45] LOAD_SCHEDULED_TASK: Load scheduler "080b" with entities [LocalPlayer, LocalPlayer], work=[461*, 0*]
242: 0x06E1 [0xB0] PRINT_EVENT_MESSAGE(unknown1=0x00, speaker_id=0x0107E1D3, listener_id=0x0107E1DB, message_offset=0x8044)
243: 0x06ED [0x23] WAIT_FOR_DIALOG_INTERACTION
244: 0x06EE [0xB0] PRINT_EVENT_MESSAGE(unknown1=0x00, speaker_id=0x0107E1D3, listener_id=0x0107E1DB, message_offset=0x8045)
245: 0x06FA [0x23] WAIT_FOR_DIALOG_INTERACTION
246: 0x06FB [0x5D] SET_MUSIC_VOLUME(volume=0*, fade_time=120*)
247: 0x0700 [0x1C] WAIT(60* ticks)
248: 0x0703 [0xB0] PRINT_EVENT_MESSAGE(unknown1=0x00, speaker_id=0x0107E1D3, listener_id=0x0107E1DB, message_offset=0x8041)
249: 0x070F [0x23] WAIT_FOR_DIALOG_INTERACTION
250: 0x0710 [0x1B] RETURN

SUBROUTINE_0711:
251: 0x0711 [0x27] REQ_SET(priority=0x10, entity_id=Unnamed NPC (ID: 17293787/0x0107E1DB), tag_num=0x03)
252: 0x0718 [0x27] REQ_SET(priority=0x10, entity_id=Seed Mandragora (ID: 17293780/0x0107E1D4), tag_num=0x09)
253: 0x071F [0x52] END_LOAD_SCHEDULER: End scheduler "080b" with entities [LocalPlayer, LocalPlayer], work=461*
254: 0x072E [0x45] LOAD_SCHEDULED_TASK: Load scheduler "080d" with entities [LocalPlayer, LocalPlayer], work=[461*, 0*]
255: 0x073F [0x7B] LocalPlayer stops talking
256: 0x0744 [0x1C] WAIT(150* ticks)
257: 0x0747 [0x52] END_LOAD_SCHEDULER: End scheduler "080d" with entities [LocalPlayer, LocalPlayer], work=461*
258: 0x0756 [0x45] LOAD_SCHEDULED_TASK: Load scheduler "0804" with entities [LocalPlayer, LocalPlayer], work=[461*, 0*]
259: 0x0767 [0x1C] WAIT(30* ticks)
260: 0x076A [0x27] REQ_SET(priority=0x10, entity_id=Seed Mandragora (ID: 17293780/0x0107E1D4), tag_num=0x0C)
261: 0x0771 [0x1C] WAIT(30* ticks)
262: 0x0774 [0xB0] PRINT_EVENT_MESSAGE(unknown1=0x00, speaker_id=0x0107E1D3, listener_id=0x0107E1D4, message_offset=0x8046)
263: 0x0780 [0x23] WAIT_FOR_DIALOG_INTERACTION
264: 0x0781 [0x1B] RETURN

SUBROUTINE_0782:
265: 0x0782 [0xBA] SET_ENTITY_POSITION(entity_id=??? (ID: 17293786/0x0107E1DA), pos_x=-118.272*, pos_z=309.037*, pos_y=-16.654*, direction=0.0°*)
266: 0x078F [0xB0] PRINT_EVENT_MESSAGE(unknown1=0x00, speaker_id=0x0107E1D3, listener_id=0x0107E1D4, message_offset=0x804A)
267: 0x079B [0x23] WAIT_FOR_DIALOG_INTERACTION
268: 0x079C [0x4A] Seed Mandragora (ID: 17293780/0x0107E1D4) looks at ??? (ID: 17293786/0x0107E1DA)
269: 0x07A5 [0x52] END_LOAD_SCHEDULER: End scheduler "0804" with entities [LocalPlayer, LocalPlayer], work=461*
270: 0x07B4 [0x45] LOAD_SCHEDULED_TASK: Load scheduler "081e" with entities [LocalPlayer, LocalPlayer], work=[461*, 0*]
271: 0x07C5 [0x7B] Seed Mandragora (ID: 17293780/0x0107E1D4) stops talking
272: 0x07CA [0x1C] WAIT(45* ticks)
273: 0x07CD [0x79] LocalPlayer looks at Seed Mandragora (ID: 17293780/0x0107E1D4) (Basic look)
274: 0x07D7 [0x27] REQ_SET(priority=0x10, entity_id=Seed Mandragora (ID: 17293780/0x0107E1D4), tag_num=0x0B)
275: 0x07DE [0x1C] WAIT(30* ticks)
276: 0x07E1 [0xB0] PRINT_EVENT_MESSAGE(unknown1=0x00, speaker_id=0x0107E1D3, listener_id=0x0107E1D4, message_offset=0x804C)
277: 0x07ED [0x23] WAIT_FOR_DIALOG_INTERACTION
278: 0x07EE [0xB0] PRINT_EVENT_MESSAGE(unknown1=0x00, speaker_id=0x0107E1D3, listener_id=0x0107E1D4, message_offset=0x804D)
279: 0x07FA [0x23] WAIT_FOR_DIALOG_INTERACTION
280: 0x07FB [0x2A] GET_REQ_LEVEL(level=16, entity_id=Seed Mandragora (ID: 17293780/0x0107E1D4))
281: 0x0801 [0x52] END_LOAD_SCHEDULER: End scheduler "081e" with entities [LocalPlayer, LocalPlayer], work=461*
282: 0x0810 [0x1B] RETURN

SUBROUTINE_0811:
283: 0x0811 [0xBA] SET_ENTITY_POSITION(entity_id=Young Aldo (ID: 17293779/0x0107E1D3), pos_x=-122.367*, pos_z=306.072*, pos_y=-24.371*, direction=179.8°*)
284: 0x081E [0x4A] Young Aldo (ID: 17293779/0x0107E1D3) looks at LocalPlayer
285: 0x0827 [0x45] LOAD_SCHEDULED_TASK: Load scheduler "080g" with entities [LocalPlayer, LocalPlayer], work=[461*, 0*]
286: 0x0838 [0xB0] PRINT_EVENT_MESSAGE(unknown1=0x00, speaker_id=0x0107E1D3, listener_id=0x0107E1D4, message_offset=0x804E)
287: 0x0844 [0x23] WAIT_FOR_DIALOG_INTERACTION
288: 0x0845 [0x52] END_LOAD_SCHEDULER: End scheduler "080g" with entities [LocalPlayer, LocalPlayer], work=461*
289: 0x0854 [0x1B] RETURN

SUBROUTINE_0855:
290: 0x0855 [0x45] LOAD_SCHEDULED_TASK: Load scheduler "080h" with entities [LocalPlayer, LocalPlayer], work=[461*, 0*]
291: 0x0866 [0x81] SET_ENTITY_BLINKING(blink_flag=0x00, entity=Young Aldo (ID: 17293779/0x0107E1D3))
292: 0x086C [0xB0] PRINT_EVENT_MESSAGE(unknown1=0x00, speaker_id=0x0107E1D3, listener_id=0x0107E1D4, message_offset=0x804F)
293: 0x0878 [0x23] WAIT_FOR_DIALOG_INTERACTION
294: 0x0879 [0xB0] PRINT_EVENT_MESSAGE(unknown1=0x00, speaker_id=0x0107E1D3, listener_id=0x0107E1D4, message_offset=0x8050)
295: 0x0885 [0x23] WAIT_FOR_DIALOG_INTERACTION
296: 0x0886 [0x5C] MUSIC_CONTROL: Set Idle (Day) music to song 200*
297: 0x088A [0x5C] MUSIC_CONTROL: Set Idle (Night) music to song 200*
298: 0x088E [0x9A] WAIT_MUSIC_SERVER()
299: 0x088F [0x81] SET_ENTITY_BLINKING(blink_flag=0x01, entity=Young Aldo (ID: 17293779/0x0107E1D3))
300: 0x0895 [0x1B] RETURN

SUBROUTINE_0896:
301: 0x0896 [0x1C] WAIT(60* ticks)
302: 0x0899 [0x59] UPDATE_ENTITY_DATA: Set Seed Mandragora (ID: 17293780/0x0107E1D4) turn speed = 50*
303: 0x08A1 [0x4A] Seed Mandragora (ID: 17293780/0x0107E1D4) looks at LocalPlayer
304: 0x08AA [0x7B] Seed Mandragora (ID: 17293780/0x0107E1D4) stops talking
305: 0x08AF [0x6F] WAIT_FRAME_DELAY: Yield until WaitTime reaches zero
306: 0x08B0 [0x76] CHECK_ENTITY_RENDER_FLAGS: Wait until Seed Mandragora (ID: 17293780/0x0107E1D4) Render.Flags0 and Render.Flags3 conditions are met
307: 0x08B5 [0x59] UPDATE_ENTITY_DATA: Set Seed Mandragora (ID: 17293780/0x0107E1D4) turn speed = 100*
308: 0x08BD [0x4A] LocalPlayer looks at Seed Mandragora (ID: 17293780/0x0107E1D4)
309: 0x08C6 [0x52] END_LOAD_SCHEDULER: End scheduler "080h" with entities [LocalPlayer, LocalPlayer], work=461*
310: 0x08D5 [0x1B] RETURN

SUBROUTINE_08D6:
311: 0x08D6 [0x45] LOAD_SCHEDULED_TASK: Load scheduler "080j" with entities [LocalPlayer, LocalPlayer], work=[461*, 0*]
312: 0x08E7 [0xB0] PRINT_EVENT_MESSAGE(unknown1=0x00, speaker_id=0x0107E1D3, listener_id=0x0107E1D4, message_offset=0x8053)
313: 0x08F3 [0x23] WAIT_FOR_DIALOG_INTERACTION
314: 0x08F4 [0xB0] PRINT_EVENT_MESSAGE(unknown1=0x00, speaker_id=0x0107E1D3, listener_id=0x0107E1D4, message_offset=0x8054)
315: 0x0900 [0x23] WAIT_FOR_DIALOG_INTERACTION
316: 0x0901 [0x52] END_LOAD_SCHEDULER: End scheduler "080j" with entities [LocalPlayer, LocalPlayer], work=461*
317: 0x0910 [0x1B] RETURN

SUBROUTINE_0911:
318: 0x0911 [0x45] LOAD_SCHEDULED_TASK: Load scheduler "080k" with entities [LocalPlayer, LocalPlayer], work=[461*, 0*]
319: 0x0922 [0x5D] SET_MUSIC_VOLUME(volume=0*, fade_time=300*)
320: 0x0927 [0x81] SET_ENTITY_BLINKING(blink_flag=0x00, entity=Seed Mandragora (ID: 17293780/0x0107E1D4))
321: 0x092D [0x29] REQ_SET_WAIT(priority=0x10, entity_id=Seed Mandragora (ID: 17293780/0x0107E1D4), tag_num=0x02)
322: 0x0934 [0x03] Work_Zone[2] = 250*
323: 0x0939 [0x27] REQ_SET(priority=0x10, entity_id=??? (ID: 17293786/0x0107E1DA), tag_num=0x07)
324: 0x0940 [0x1C] WAIT(120* ticks)
325: 0x0943 [0xB0] PRINT_EVENT_MESSAGE(unknown1=0x00, speaker_id=0x0107E1D3, listener_id=0x0107E1D4, message_offset=0x8056)
326: 0x094F [0x23] WAIT_FOR_DIALOG_INTERACTION
327: 0x0950 [0x2A] GET_REQ_LEVEL(level=16, entity_id=??? (ID: 17293786/0x0107E1DA))
328: 0x0956 [0x29] REQ_SET_WAIT(priority=0x10, entity_id=Seed Mandragora (ID: 17293780/0x0107E1D4), tag_num=0x03)
329: 0x095D [0x1C] WAIT(30* ticks)
330: 0x0960 [0x52] END_LOAD_SCHEDULER: End scheduler "080k" with entities [LocalPlayer, LocalPlayer], work=461*
331: 0x096F [0x45] LOAD_SCHEDULED_TASK: Load scheduler "081k" with entities [LocalPlayer, LocalPlayer], work=[461*, 0*]
332: 0x0980 [0x1C] WAIT(150* ticks)
333: 0x0983 [0xB0] PRINT_EVENT_MESSAGE(unknown1=0x00, speaker_id=0x0107E1D3, listener_id=0x0107E1D4, message_offset=0x8057)
334: 0x098F [0x23] WAIT_FOR_DIALOG_INTERACTION
335: 0x0990 [0x52] END_LOAD_SCHEDULER: End scheduler "081k" with entities [LocalPlayer, LocalPlayer], work=461*
336: 0x099F [0x1B] RETURN

SUBROUTINE_09A0:
337: 0x09A0 [0x45] LOAD_SCHEDULED_TASK: Load scheduler "080r" with entities [LocalPlayer, LocalPlayer], work=[461*, 0*]
338: 0x09B1 [0x1C] WAIT(180* ticks)
339: 0x09B4 [0x52] END_LOAD_SCHEDULER: End scheduler "080r" with entities [LocalPlayer, LocalPlayer], work=461*
340: 0x09C3 [0x45] LOAD_SCHEDULED_TASK: Load scheduler "080l" with entities [LocalPlayer, LocalPlayer], work=[461*, 0*]
341: 0x09D4 [0x1C] WAIT(60* ticks)
342: 0x09D7 [0xB0] PRINT_EVENT_MESSAGE(unknown1=0x00, speaker_id=0x0107E1D3, listener_id=0x0107E1D4, message_offset=0x8059)
343: 0x09E3 [0x23] WAIT_FOR_DIALOG_INTERACTION
344: 0x09E4 [0xB0] PRINT_EVENT_MESSAGE(unknown1=0x00, speaker_id=0x0107E1D3, listener_id=0x0107E1D4, message_offset=0x805A)
345: 0x09F0 [0x23] WAIT_FOR_DIALOG_INTERACTION
346: 0x09F1 [0x1C] WAIT(60* ticks)
347: 0x09F4 [0x52] END_LOAD_SCHEDULER: End scheduler "080l" with entities [LocalPlayer, LocalPlayer], work=461*
348: 0x0A03 [0x1B] RETURN

SUBROUTINE_0A04:
349: 0x0A04 [0x45] LOAD_SCHEDULED_TASK: Load scheduler "080m" with entities [LocalPlayer, LocalPlayer], work=[461*, 0*]
350: 0x0A15 [0xBA] SET_ENTITY_POSITION(entity_id=??? (ID: 17293786/0x0107E1DA), pos_x=-122.367*, pos_z=306.072*, pos_y=-24.371*, direction=179.8°*)
351: 0x0A22 [0x27] REQ_SET(priority=0x10, entity_id=Unnamed NPC (ID: 17293787/0x0107E1DB), tag_num=0x0A)
352: 0x0A29 [0x29] REQ_SET_WAIT(priority=0x10, entity_id=Seed Mandragora (ID: 17293780/0x0107E1D4), tag_num=0x04)
353: 0x0A30 [0x1C] WAIT(120* ticks)
354: 0x0A33 [0x7B] Seed Mandragora (ID: 17293780/0x0107E1D4) stops talking
355: 0x0A38 [0x7B] Young Aldo (ID: 17293779/0x0107E1D3) stops talking
356: 0x0A3D [0x27] REQ_SET(priority=0x10, entity_id=Young Aldo (ID: 17293779/0x0107E1D3), tag_num=0x1C)
357: 0x0A44 [0x1C] WAIT(120* ticks)
358: 0x0A47 [0x27] REQ_SET(priority=0x10, entity_id=Seed Mandragora (ID: 17293780/0x0107E1D4), tag_num=0x05)
359: 0x0A4E [0x1C] WAIT(30* ticks)
360: 0x0A51 [0x52] END_LOAD_SCHEDULER: End scheduler "080m" with entities [LocalPlayer, LocalPlayer], work=461*
361: 0x0A60 [0x45] LOAD_SCHEDULED_TASK: Load scheduler "0814" with entities [LocalPlayer, LocalPlayer], work=[461*, 0*]
362: 0x0A71 [0x27] REQ_SET(priority=0x10, entity_id=Seed Mandragora (ID: 17293780/0x0107E1D4), tag_num=0x05)
363: 0x0A78 [0x1C] WAIT(60* ticks)
364: 0x0A7B [0x03] Work_Zone[2] = 1088*
365: 0x0A80 [0x03] Work_Zone[3] = 1089*
366: 0x0A85 [0x03] Work_Zone[4] = 1090*
367: 0x0A8A [0xB0] PRINT_EVENT_MESSAGE(unknown1=0x00, speaker_id=0x0107E1D3, listener_id=0x0107E1D4, message_offset=0x805E)
368: 0x0A96 [0x23] WAIT_FOR_DIALOG_INTERACTION
369: 0x0A97 [0x52] END_LOAD_SCHEDULER: End scheduler "0814" with entities [LocalPlayer, LocalPlayer], work=461*
370: 0x0AA6 [0x45] LOAD_SCHEDULED_TASK: Load scheduler "0813" with entities [LocalPlayer, LocalPlayer], work=[461*, 0*]
371: 0x0AB7 [0x1C] WAIT(60* ticks)
372: 0x0ABA [0xB0] PRINT_EVENT_MESSAGE(unknown1=0x00, speaker_id=0x0107E1D3, listener_id=0x0107E1D4, message_offset=0x805F)
373: 0x0AC6 [0x23] WAIT_FOR_DIALOG_INTERACTION
374: 0x0AC7 [0x52] END_LOAD_SCHEDULER: End scheduler "0813" with entities [LocalPlayer, LocalPlayer], work=461*
375: 0x0AD6 [0x1B] RETURN

SUBROUTINE_0AD7:
376: 0x0AD7 [0x45] LOAD_SCHEDULED_TASK: Load scheduler "081n" with entities [LocalPlayer, LocalPlayer], work=[461*, 0*]
377: 0x0AE8 [0x27] REQ_SET(priority=0x10, entity_id=Seed Mandragora (ID: 17293780/0x0107E1D4), tag_num=0x06)
378: 0x0AEF [0x45] LOAD_SCHEDULED_TASK: Load scheduler "6014" with entities [Seed Mandragora (ID: 17293780/0x0107E1D4), Seed Mandragora (ID: 17293780/0x0107E1D4)], work=[461*, 0*]
379: 0x0B00 [0x1C] WAIT(150* ticks)
380: 0x0B03 [0x6E] LocalPlayer uses emote 29*
381: 0x0B0A [0x99] Wait for LocalPlayer animation to complete
382: 0x0B0F [0x1C] WAIT(60* ticks)
383: 0x0B12 [0x52] END_LOAD_SCHEDULER: End scheduler "081n" with entities [LocalPlayer, LocalPlayer], work=461*
384: 0x0B21 [0x1B] RETURN

SUBROUTINE_0B22:
385: 0x0B22 [0x27] REQ_SET(priority=0x10, entity_id=Young Aldo (ID: 17293779/0x0107E1D3), tag_num=0x14)
386: 0x0B29 [0x1C] WAIT(30* ticks)
387: 0x0B2C [0x03] Work_Zone[2] = 120*
388: 0x0B31 [0x27] REQ_SET(priority=0x10, entity_id=??? (ID: 17293786/0x0107E1DA), tag_num=0x07)
389: 0x0B38 [0x27] REQ_SET(priority=0x10, entity_id=Unnamed NPC (ID: 17293787/0x0107E1DB), tag_num=0x14)
390: 0x0B3F [0x45] LOAD_SCHEDULED_TASK: Load scheduler "080n" with entities [LocalPlayer, LocalPlayer], work=[461*, 0*]
391: 0x0B50 [0x2B] Young Aldo (ID: 17293779/0x0107E1D3) [8232*]:
    → "I'll be waiting for you here. And <Player>...you'd better hurry."
392: 0x0B57 [0x23] WAIT_FOR_DIALOG_INTERACTION
393: 0x0B58 [0x2A] GET_REQ_LEVEL(level=16, entity_id=??? (ID: 17293786/0x0107E1DA))
394: 0x0B5E [0x52] END_LOAD_SCHEDULER: End scheduler "080n" with entities [LocalPlayer, LocalPlayer], work=461*
395: 0x0B6D [0x1B] RETURN

SUBROUTINE_0B6E:
396: 0x0B6E [0x45] LOAD_SCHEDULED_TASK: Load scheduler "080o" with entities [LocalPlayer, LocalPlayer], work=[461*, 0*]
397: 0x0B7F [0x1C] WAIT(45* ticks)
398: 0x0B82 [0x2B] Young Aldo (ID: 17293779/0x0107E1D3) [8233*]:
    → "With each passing moment, the echo grows stronger, ever closer to drowning out the sound of our very existence..."
399: 0x0B89 [0x23] WAIT_FOR_DIALOG_INTERACTION
400: 0x0B8A [0x27] REQ_SET(priority=0x10, entity_id=Young Aldo (ID: 17293779/0x0107E1D3), tag_num=0x1D)
401: 0x0B91 [0x1C] WAIT(30* ticks)
402: 0x0B94 [0x27] REQ_SET(priority=0x10, entity_id=Young Aldo (ID: 17293779/0x0107E1D3), tag_num=0x13)
403: 0x0B9B [0x45] LOAD_SCHEDULED_TASK: Load scheduler "6014" with entities [Young Aldo (ID: 17293779/0x0107E1D3), Young Aldo (ID: 17293779/0x0107E1D3)], work=[461*, 0*]
404: 0x0BAC [0x52] END_LOAD_SCHEDULER: End scheduler "080o" with entities [LocalPlayer, LocalPlayer], work=461*
405: 0x0BBB [0x45] LOAD_SCHEDULED_TASK: Load scheduler "080p" with entities [LocalPlayer, LocalPlayer], work=[461*, 0*]
406: 0x0BCC [0x1C] WAIT(150* ticks)
407: 0x0BCF [0x1B] RETURN

SUBROUTINE_0BD0:
408: 0x0BD0 [0x45] LOAD_SCHEDULED_TASK: Load scheduler "080q" with entities [LocalPlayer, LocalPlayer], work=[461*, 0*]
409: 0x0BE1 [0xB0] PRINT_EVENT_MESSAGE(unknown1=0x00, speaker_id=0x0107E1D3, listener_id=0x0107E1D4, message_offset=0x8063)
410: 0x0BED [0x23] WAIT_FOR_DIALOG_INTERACTION
411: 0x0BEE [0x1B] RETURN

SUBROUTINE_0BEF:
412: 0x0BEF [0xB0] PRINT_EVENT_MESSAGE(unknown1=0x00, speaker_id=0x0107E1D3, listener_id=0x0107E1D4, message_offset=0x8064)
413: 0x0BFB [0x23] WAIT_FOR_DIALOG_INTERACTION
414: 0x0BFC [0x1B] RETURN

SUBROUTINE_0BFD:
415: 0x0BFD [0x52] END_LOAD_SCHEDULER: End scheduler "080q" with entities [LocalPlayer, LocalPlayer], work=461*
416: 0x0C0C [0x45] LOAD_SCHEDULED_TASK: Load scheduler "080s" with entities [LocalPlayer, LocalPlayer], work=[461*, 0*]
417: 0x0C1D [0xB0] PRINT_EVENT_MESSAGE(unknown1=0x00, speaker_id=0x0107E1D3, listener_id=0x0107E1D4, message_offset=0x8065)
418: 0x0C29 [0x23] WAIT_FOR_DIALOG_INTERACTION
419: 0x0C2A [0x52] END_LOAD_SCHEDULER: End scheduler "080s" with entities [LocalPlayer, LocalPlayer], work=461*
420: 0x0C39 [0x1B] RETURN

SUBROUTINE_0C3A:
421: 0x0C3A [0x45] LOAD_SCHEDULED_TASK: Load scheduler "080x" with entities [LocalPlayer, LocalPlayer], work=[461*, 0*]
422: 0x0C4B [0xB0] PRINT_EVENT_MESSAGE(unknown1=0x00, speaker_id=0x0107E1D3, listener_id=0x0107E1D4, message_offset=0x8066)
423: 0x0C57 [0x23] WAIT_FOR_DIALOG_INTERACTION
424: 0x0C58 [0x52] END_LOAD_SCHEDULER: End scheduler "080x" with entities [LocalPlayer, LocalPlayer], work=461*
425: 0x0C67 [0x1B] RETURN

SUBROUTINE_0C68:
426: 0x0C68 [0x45] LOAD_SCHEDULED_TASK: Load scheduler "080u" with entities [LocalPlayer, LocalPlayer], work=[461*, 0*]
427: 0x0C79 [0xB0] PRINT_EVENT_MESSAGE(unknown1=0x00, speaker_id=0x0107E1D3, listener_id=0x0107E1D4, message_offset=0x8067)
428: 0x0C85 [0x23] WAIT_FOR_DIALOG_INTERACTION
429: 0x0C86 [0x52] END_LOAD_SCHEDULER: End scheduler "080u" with entities [LocalPlayer, LocalPlayer], work=461*
430: 0x0C95 [0x1B] RETURN

SUBROUTINE_0C96:
431: 0x0C96 [0x45] LOAD_SCHEDULED_TASK: Load scheduler "080v" with entities [LocalPlayer, LocalPlayer], work=[461*, 0*]
432: 0x0CA7 [0xB0] PRINT_EVENT_MESSAGE(unknown1=0x00, speaker_id=0x0107E1D3, listener_id=0x0107E1D4, message_offset=0x8068)
433: 0x0CB3 [0x23] WAIT_FOR_DIALOG_INTERACTION
434: 0x0CB4 [0x1B] RETURN

SUBROUTINE_0CB5:
435: 0x0CB5 [0xB0] PRINT_EVENT_MESSAGE(unknown1=0x00, speaker_id=0x0107E1D3, listener_id=0x0107E1D4, message_offset=0x8069)
436: 0x0CC1 [0x23] WAIT_FOR_DIALOG_INTERACTION
437: 0x0CC2 [0x52] END_LOAD_SCHEDULER: End scheduler "080v" with entities [LocalPlayer, LocalPlayer], work=461*
438: 0x0CD1 [0x1B] RETURN

SUBROUTINE_0CD2:
439: 0x0CD2 [0x45] LOAD_SCHEDULED_TASK: Load scheduler "080x" with entities [LocalPlayer, LocalPlayer], work=[461*, 0*]
440: 0x0CE3 [0xB0] PRINT_EVENT_MESSAGE(unknown1=0x00, speaker_id=0x0107E1D3, listener_id=0x0107E1D4, message_offset=0x806A)
441: 0x0CEF [0x23] WAIT_FOR_DIALOG_INTERACTION
442: 0x0CF0 [0x52] END_LOAD_SCHEDULER: End scheduler "080x" with entities [LocalPlayer, LocalPlayer], work=461*
443: 0x0CFF [0x1B] RETURN

SUBROUTINE_0D00:
444: 0x0D00 [0x1A] CALL_SUBROUTINE(address=0x225D)
445: 0x0D03 [0x1C] WAIT(30* ticks)
446: 0x0D06 [0x27] REQ_SET(priority=0x10, entity_id=Young Aldo (ID: 17293779/0x0107E1D3), tag_num=0x0F)
447: 0x0D0D [0x52] END_LOAD_SCHEDULER: End scheduler "0806" with entities [LocalPlayer, LocalPlayer], work=461*
448: 0x0D1C [0x1C] WAIT(120* ticks)
449: 0x0D1F [0x34] LOAD_UNLOAD_ZONE(zone_id=102*)
450: 0x0D22 [0x77] SET_EVENT_TIME_WEATHER(hour=22*, weather=1*)
451: 0x0D27 [0x4E] SET_ENTITY_HIDE_FLAG: Show ??? (ID: 17293786/0x0107E1DA)
452: 0x0D2D [0x4E] SET_ENTITY_HIDE_FLAG: Show Unnamed NPC (ID: 17293787/0x0107E1DB)
453: 0x0D33 [0x92] ??? (ID: 17293786/0x0107E1DA)->Render.Flags3 ^= 0x01
454: 0x0D39 [0x92] Unnamed NPC (ID: 17293787/0x0107E1DB)->Render.Flags3 ^= 0x01
455: 0x0D3F [0x94] ??? (ID: 17293786/0x0107E1DA)->Render.Flags3 ^= 0x01
456: 0x0D45 [0x59] UPDATE_ENTITY_DATA: ??? (ID: 17293786/0x0107E1DA)->Render.Flags0 |= 0x200000
457: 0x0D4C [0x59] UPDATE_ENTITY_DATA: Unnamed NPC (ID: 17293787/0x0107E1DB)->Render.Flags0 |= 0x200000
458: 0x0D53 [0xBA] SET_ENTITY_POSITION(entity_id=??? (ID: 17293786/0x0107E1DA), pos_x=-617.182*, pos_z=429.301*, pos_y=-24.657*, direction=174.8°*)
459: 0x0D60 [0xBA] SET_ENTITY_POSITION(entity_id=Unnamed NPC (ID: 17293787/0x0107E1DB), pos_x=-617.182*, pos_z=429.301*, pos_y=-24.657*, direction=174.8°*)
460: 0x0D6D [0x29] REQ_SET_WAIT(priority=0x10, entity_id=??? (ID: 17293786/0x0107E1DA), tag_num=0x02)
461: 0x0D74 [0x80] LOAD_WAIT(entity=??? (ID: 17293786/0x0107E1DA))
462: 0x0D79 [0x1C] WAIT(15* ticks)
463: 0x0D7C [0x27] REQ_SET(priority=0x10, entity_id=Unnamed NPC (ID: 17293787/0x0107E1DB), tag_num=0x06)
464: 0x0D83 [0x80] LOAD_WAIT(entity=??? (ID: 17293786/0x0107E1DA))
465: 0x0D88 [0x5C] MUSIC_CONTROL: Set Idle (Day) music to song 199*
466: 0x0D8C [0x5C] MUSIC_CONTROL: Set Idle (Night) music to song 199*
467: 0x0D90 [0x9A] WAIT_MUSIC_SERVER()
468: 0x0D91 [0x1B] RETURN

SUBROUTINE_0D92:
469: 0x0D92 [0x1C] WAIT(60* ticks)
470: 0x0D95 [0xC5] LOAD_SCHEDULED_TASK_ALT3: Load scheduler 0x80033330 for entities [??? (ID: 17293786/0x0107E1DA), ??? (ID: 17293786/0x0107E1DA)], work=93*, param=12403
471: 0x0DA6 [0x1C] WAIT(30* ticks)
472: 0x0DA9 [0x45] LOAD_SCHEDULED_TASK: Load scheduler "08g1" with entities [LocalPlayer, LocalPlayer], work=[461*, 0*]
473: 0x0DBA [0x1A] CALL_SUBROUTINE(address=0x223C)
474: 0x0DBD [0x2B] Young Aldo (ID: 17293779/0x0107E1D3) [8200*]:
    → "It all began with a stone..."
475: 0x0DC4 [0x23] WAIT_FOR_DIALOG_INTERACTION
476: 0x0DC5 [0x2B] Young Aldo (ID: 17293779/0x0107E1D3) [8201*]:
    → "...or so the legend says."
477: 0x0DCC [0x23] WAIT_FOR_DIALOG_INTERACTION
478: 0x0DCD [0x2B] Young Aldo (ID: 17293779/0x0107E1D3) [8202*]:
    → "In ages past, a sentient jewel, enormous and beautiful, banished the darkness."
479: 0x0DD4 [0x23] WAIT_FOR_DIALOG_INTERACTION
480: 0x0DD5 [0x1A] CALL_SUBROUTINE(address=0x229F)
481: 0x0DD8 [0xC5] LOAD_SCHEDULED_TASK_ALT3: Load scheduler 0x8003306C for entities [??? (ID: 17293786/0x0107E1DA), ??? (ID: 17293786/0x0107E1DA)], work=93*, param=26987
482: 0x0DE9 [0x1C] WAIT(30* ticks)
483: 0x0DEC [0x77] SET_EVENT_TIME_WEATHER(hour=6*, weather=1*)
484: 0x0DF1 [0x9F] LOAD_SCHEDULED_TASK_ALT: Load scheduler "main" with entities [Unnamed NPC (ID: 17293787/0x0107E1DB), Unnamed NPC (ID: 17293787/0x0107E1DB)], work=[18*, 0*]
485: 0x0E02 [0x4E] SET_ENTITY_HIDE_FLAG: Hide ??? (ID: 17293786/0x0107E1DA)
486: 0x0E08 [0x1A] CALL_SUBROUTINE(address=0x0320)
487: 0x0E0B [0x1A] CALL_SUBROUTINE(address=0x227E)
488: 0x0E0E [0x45] LOAD_SCHEDULED_TASK: Load scheduler "se01" with entities [Unnamed NPC (ID: 17293787/0x0107E1DB), Unnamed NPC (ID: 17293787/0x0107E1DB)], work=[461*, 0*]
489: 0x0E1F [0x2B] Young Aldo (ID: 17293779/0x0107E1D3) [8203*]:
    → "Its many-colored light filled the world with life and brought forth mighty gods."
490: 0x0E26 [0x23] WAIT_FOR_DIALOG_INTERACTION
491: 0x0E27 [0xA2] WAIT_LOAD_SCHEDULER_MAIN: Wait for scheduler "main" with entities [Unnamed NPC (ID: 17293787/0x0107E1DB), Unnamed NPC (ID: 17293787/0x0107E1DB)], work=18*
492: 0x0E36 [0x1C] WAIT(60* ticks)
493: 0x0E39 [0x52] END_LOAD_SCHEDULER: End scheduler "08g1" with entities [LocalPlayer, LocalPlayer], work=461*
494: 0x0E48 [0x1B] RETURN

SUBROUTINE_0E49:
495: 0x0E49 [0x45] LOAD_SCHEDULED_TASK: Load scheduler "08g2" with entities [LocalPlayer, LocalPlayer], work=[461*, 0*]
496: 0x0E5A [0x1A] CALL_SUBROUTINE(address=0x0320)
497: 0x0E5D [0x2B] Young Aldo (ID: 17293779/0x0107E1D3) [8204*]:
    → "Bathed in that light, the world entered an age of bliss until, after a time, the gods fell into slumber."
498: 0x0E64 [0x1C] WAIT(180* ticks)
499: 0x0E67 [0x77] SET_EVENT_TIME_WEATHER(hour=7*, weather=1*)
500: 0x0E6C [0x1C] WAIT(10* ticks)
501: 0x0E6F [0x77] SET_EVENT_TIME_WEATHER(hour=8*, weather=1*)
502: 0x0E74 [0x1C] WAIT(10* ticks)
503: 0x0E77 [0x77] SET_EVENT_TIME_WEATHER(hour=10*, weather=1*)
504: 0x0E7C [0x1C] WAIT(10* ticks)
505: 0x0E7F [0x77] SET_EVENT_TIME_WEATHER(hour=11*, weather=1*)
506: 0x0E84 [0x1C] WAIT(10* ticks)
507: 0x0E87 [0x77] SET_EVENT_TIME_WEATHER(hour=12*, weather=1*)
508: 0x0E8C [0x2B] Young Aldo (ID: 17293779/0x0107E1D3) [8205*]:
    → "That world was called Vana'diel. But the song continues..."
509: 0x0E93 [0x23] WAIT_FOR_DIALOG_INTERACTION
510: 0x0E94 [0x1A] CALL_SUBROUTINE(address=0x0320)
511: 0x0E97 [0x1A] CALL_SUBROUTINE(address=0x225D)
512: 0x0E9A [0x1C] WAIT(30* ticks)
513: 0x0E9D [0x52] END_LOAD_SCHEDULER: End scheduler "08g2" with entities [LocalPlayer, LocalPlayer], work=461*
514: 0x0EAC [0x1C] WAIT(90* ticks)
515: 0x0EAF [0x1A] CALL_SUBROUTINE(address=0x221B)
516: 0x0EB2 [0x1A] CALL_SUBROUTINE(address=0x223C)
517: 0x0EB5 [0x1A] CALL_SUBROUTINE(address=0x0331)
518: 0x0EB8 [0x59] UPDATE_ENTITY_DATA: Unnamed NPC (ID: 17293787/0x0107E1DB)->Render.Flags0 &= ~0x200000
519: 0x0EBF [0x27] REQ_SET(priority=0x10, entity_id=Unnamed NPC (ID: 17293787/0x0107E1DB), tag_num=0x05)
520: 0x0EC6 [0xBA] SET_ENTITY_POSITION(entity_id=??? (ID: 17293786/0x0107E1DA), pos_x=-117.158*, pos_z=307.435*, pos_y=-21.200*, direction=100.5°*)
521: 0x0ED3 [0xBA] SET_ENTITY_POSITION(entity_id=Unnamed NPC (ID: 17293787/0x0107E1DB), pos_x=-118.189*, pos_z=307.409*, pos_y=-19.546*, direction=100.5°*)
522: 0x0EE0 [0x80] LOAD_WAIT(entity=??? (ID: 17293786/0x0107E1DA))
523: 0x0EE5 [0x80] LOAD_WAIT(entity=Unnamed NPC (ID: 17293787/0x0107E1DB))
524: 0x0EEA [0x1C] WAIT(15* ticks)
525: 0x0EED [0x27] REQ_SET(priority=0x10, entity_id=??? (ID: 17293786/0x0107E1DA), tag_num=0x04)
526: 0x0EF4 [0x27] REQ_SET(priority=0x10, entity_id=Young Aldo (ID: 17293779/0x0107E1D3), tag_num=0x15)
527: 0x0EFB [0x27] REQ_SET(priority=0x10, entity_id=Unnamed NPC (ID: 17293787/0x0107E1DB), tag_num=0x04)
528: 0x0F02 [0x27] REQ_SET(priority=0x10, entity_id=Seed Mandragora (ID: 17293780/0x0107E1D4), tag_num=0x08)
529: 0x0F09 [0x4A] Unnamed NPC (ID: 17293787/0x0107E1DB) looks at LocalPlayer
530: 0x0F12 [0x7B] Unnamed NPC (ID: 17293787/0x0107E1DB) stops talking
531: 0x0F17 [0x1C] WAIT(15* ticks)
532: 0x0F1A [0x81] SET_ENTITY_BLINKING(blink_flag=0x00, entity=Unnamed NPC (ID: 17293787/0x0107E1DB))
533: 0x0F20 [0x29] REQ_SET_WAIT(priority=0x10, entity_id=Unnamed NPC (ID: 17293787/0x0107E1DB), tag_num=0x08)
534: 0x0F27 [0x1C] WAIT(60* ticks)
535: 0x0F2A [0x1B] RETURN
```

#### Data or dead code:

```
# Dead code (unreachable instructions):
     0x033D [0x34] LOAD_UNLOAD_ZONE(zone_id=251*)
     0x0340 [0x77] SET_EVENT_TIME_WEATHER(hour=2*, weather=1*)
     0x0345 [0x1C] WAIT(15* ticks)
     0x0348 [0x1B] RETURN
# Dead code (unreachable instructions):
     0x0584 [0x45] LOAD_SCHEDULED_TASK: Load scheduler "0806" with entities [LocalPlayer, LocalPlayer], work=[461*, 0*]
     0x0595 [0x81] SET_ENTITY_BLINKING(blink_flag=0x00, entity=Young Aldo (ID: 17293779/0x0107E1D3))
     0x059B [0x2B] Young Aldo (ID: 17293779/0x0107E1D3) [8200*]:
    → "It all began with a stone..."
     0x05A2 [0x23] WAIT_FOR_DIALOG_INTERACTION
     0x05A3 [0x2B] Young Aldo (ID: 17293779/0x0107E1D3) [8201*]:
    → "...or so the legend says."
     0x05AA [0x23] WAIT_FOR_DIALOG_INTERACTION
     0x05AB [0x4A] Unnamed NPC (ID: 17293787/0x0107E1DB) looks at LocalPlayer
     0x05B4 [0x7B] Unnamed NPC (ID: 17293787/0x0107E1DB) stops talking
     0x05B9 [0x1C] WAIT(30* ticks)
     0x05BC [0x81] SET_ENTITY_BLINKING(blink_flag=0x00, entity=Unnamed NPC (ID: 17293787/0x0107E1DB))
     0x05C2 [0x27] REQ_SET(priority=0x10, entity_id=Unnamed NPC (ID: 17293787/0x0107E1DB), tag_num=0x07)
     0x05C9 [0x1C] WAIT(150* ticks)
     0x05CC [0x27] REQ_SET(priority=0x10, entity_id=Young Aldo (ID: 17293779/0x0107E1D3), tag_num=0x15)
     0x05D3 [0xBA] SET_ENTITY_POSITION(entity_id=Young Aldo (ID: 17293779/0x0107E1D3), pos_x=0.000*, pos_z=0.000*, pos_y=0.000*, direction=179.8°*)
     0x05E0 [0x80] LOAD_WAIT(entity=Young Aldo (ID: 17293779/0x0107E1D3))
     0x05E5 [0x1C] WAIT(15* ticks)
     0x05E8 [0x29] REQ_SET_WAIT(priority=0x10, entity_id=Young Aldo (ID: 17293779/0x0107E1D3), tag_num=0x11)
     0x05EF [0x27] REQ_SET(priority=0x10, entity_id=Unnamed NPC (ID: 17293787/0x0107E1DB), tag_num=0x04)
     0x05F6 [0x1B] RETURN
     0x05F7 [0x45] LOAD_SCHEDULED_TASK: Load scheduler "0808" with entities [LocalPlayer, LocalPlayer], work=[461*, 0*]
     0x0608 [0xB0] PRINT_EVENT_MESSAGE(unknown1=0x00, speaker_id=0x0107E1D3, listener_id=0x0107E1DB, message_offset=0x803B)
     0x0614 [0x23] WAIT_FOR_DIALOG_INTERACTION
     0x0615 [0xB0] PRINT_EVENT_MESSAGE(unknown1=0x00, speaker_id=0x0107E1D3, listener_id=0x0107E1DB, message_offset=0x803C)
     0x0621 [0x23] WAIT_FOR_DIALOG_INTERACTION
     0x0622 [0x52] END_LOAD_SCHEDULER: End scheduler "0808" with entities [LocalPlayer, LocalPlayer], work=461*
     0x0631 [0x1B] RETURN
     0x0632 [0x45] LOAD_SCHEDULED_TASK: Load scheduler "0809" with entities [LocalPlayer, LocalPlayer], work=[461*, 0*]
     0x0643 [0xBA] SET_ENTITY_POSITION(entity_id=??? (ID: 17293786/0x0107E1DA), pos_x=-117.158*, pos_z=307.435*, pos_y=-21.200*, direction=100.5°*)
     0x0650 [0xB0] PRINT_EVENT_MESSAGE(unknown1=0x00, speaker_id=0x0107E1D3, listener_id=0x0107E1DB, message_offset=0x8040)
     0x065C [0x23] WAIT_FOR_DIALOG_INTERACTION
     0x065D [0xB0] PRINT_EVENT_MESSAGE(unknown1=0x00, speaker_id=0x0107E1D3, listener_id=0x0107E1DB, message_offset=0x8041)
     0x0669 [0x23] WAIT_FOR_DIALOG_INTERACTION
     0x066A [0x5D] SET_MUSIC_VOLUME(volume=0*, fade_time=120*)
     0x066F [0x52] END_LOAD_SCHEDULER: End scheduler "0809" with entities [LocalPlayer, LocalPlayer], work=461*
     0x067E [0x1B] RETURN
```

### Event 32

#### Metadata

| Field        | Value      |
|--------------|------------|
| Entrypoint   | 0x0F2B     |
| Data Size    | 1909 bytes |
| Instructions | 247        |

```
      00 01 02 03 04 05 06 07  08 09 0A 0B 0C 0D 0E 0F
      -- -- -- -- -- -- -- --  -- -- -- -- -- -- -- --
0F20:                                   42 1A 1B 22 46             B.."F
0F30: 01 38 00 80 77 01 80 02  80 4E 00 F0 FF FF 7F 4E  .8..w....N.....N
0F40: 00 D3 E1 07 01 4E 00 DB  E1 07 01 4E 00 D4 E1 07  .....N.....N....
0F50: 01 4E 00 D5 E1 07 01 4E  00 D6 E1 07 01 4E 00 D7  .N.....N.....N..
0F60: E1 07 01 4E 00 D8 E1 07  01 92 01 D3 E1 07 01 92  ...N............
0F70: 01 DB E1 07 01 92 01 D4  E1 07 01 92 01 D5 E1 07  ................
0F80: 01 92 01 D6 E1 07 01 92  01 D7 E1 07 01 92 01 D8  ................
0F90: E1 07 01 94 01 F0 FF FF  7F 94 01 D3 E1 07 01 94  ................
0FA0: 01 DB E1 07 01 94 01 D4  E1 07 01 94 01 D5 E1 07  ................
0FB0: 01 94 01 D6 E1 07 01 94  01 D7 E1 07 01 94 01 D8  ................
0FC0: E1 07 01 BA F0 FF FF 7F  79 80 7A 80 7B 80 7C 80  ........y.z.{.|.
0FD0: BA D3 E1 07 01 7D 80 7E  80 7F 80 80 80 59 05 DB  .....}.~.....Y..
0FE0: E1 07 01 01 BA DB E1 07  01 81 80 82 80 83 80 84  ................
0FF0: 80 27 10 D4 E1 07 01 13  27 10 D5 E1 07 01 08 27  .'......'......'
1000: 10 D6 E1 07 01 0A 27 10  D7 E1 07 01 06 27 10 D8  ......'......'..
1010: E1 07 01 05 BA D4 E1 07  01 85 80 86 80 87 80 88  ................
1020: 80 BA D5 E1 07 01 85 80  89 80 87 80 88 80 BA D6  ................
1030: E1 07 01 8A 80 86 80 87  80 88 80 BA D7 E1 07 01  ................
1040: 8A 80 89 80 87 80 88 80  BA D8 E1 07 01 8B 80 86  ................
1050: 80 87 80 88 80 80 F0 FF  FF 7F 80 D3 E1 07 01 80  ................
1060: DB E1 07 01 80 D4 E1 07  01 80 D5 E1 07 01 80 D6  ................
1070: E1 07 01 80 D7 E1 07 01  80 D8 E1 07 01 1C 23 80  ..............#.
1080: 6C D3 E1 07 01 03 80 04  80 6C DB E1 07 01 03 80  l........l......
1090: 04 80 6C D4 E1 07 01 03  80 04 80 6C D5 E1 07 01  ..l........l....
10A0: 03 80 04 80 6C D6 E1 07  01 03 80 04 80 6C D7 E1  ....l........l..
10B0: 07 01 03 80 04 80 6C D8  E1 07 01 03 80 04 80 4A  ......l........J
10C0: D3 E1 07 01 F0 FF FF 7F  6F 76 D3 E1 07 01 27 10  ........ov....'.
10D0: D3 E1 07 01 1F 5C 00 03  80 5C 01 03 80 5C 02 8C  .....\...\...\..
10E0: 80 5C 03 8D 80 9A 1C 2B  80 45 8E 80 F0 FF FF 7F  .\.....+.E......
10F0: F0 FF FF 7F 31 30 30 31  03 80 1A FA 21 1C 2F 80  ....1001....!./.
1100: 7B D3 E1 07 01 27 10 D3  E1 07 01 14 45 8E 80 D3  {....'......E...
1110: E1 07 01 D3 E1 07 01 36  31 30 39 03 80 27 10 DB  .......6109..'..
1120: E1 07 01 14 1C 2B 80 2B  D3 E1 07 01 8F 80 23 52  .....+.+......#R
1130: 8E 80 F0 FF FF 7F F0 FF  FF 7F 31 30 30 31 45 8E  ..........1001E.
1140: 80 F0 FF FF 7F F0 FF FF  7F 31 30 31 39 03 80 1C  .........1019...
1150: 29 80 27 10 D3 E1 07 01  20 1C 90 80 52 8E 80 F0  ).'..... ...R...
1160: FF FF 7F F0 FF FF 7F 31  30 31 39 45 8E 80 F0 FF  .......1019E....
1170: FF 7F F0 FF FF 7F 31 30  31 31 03 80 2A 10 D3 E1  ......1011..*...
1180: 07 01 52 8E 80 F0 FF FF  7F F0 FF FF 7F 31 30 31  ..R..........101
1190: 31 45 8E 80 F0 FF FF 7F  F0 FF FF 7F 31 30 30 32  1E..........1002
11A0: 03 80 1C 4B 80 03 02 10  5B 80 03 03 10 5C 80 03  ...K....[....\..
11B0: 04 10 5D 80 2B D3 E1 07  01 91 80 23 52 8E 80 F0  ..].+......#R...
11C0: FF FF 7F F0 FF FF 7F 31  30 30 32 45 8E 80 F0 FF  .......1002E....
11D0: FF 7F F0 FF FF 7F 31 30  30 33 03 80 29 10 F0 FF  ......1003..)...
11E0: FF 7F 25 59 05 DB E1 07  01 01 BA DB E1 07 01 92  ..%Y............
11F0: 80 93 80 94 80 95 80 6E  F0 FF FF 7F 03 80 99 F0  .......n........
1200: FF FF 7F 1C 2A 80 27 10  D3 E1 07 01 21 1C 3A 80  ....*.'.....!.:.
1210: 52 8E 80 F0 FF FF 7F F0  FF FF 7F 31 30 30 33 45  R..........1003E
1220: 8E 80 F0 FF FF 7F F0 FF  FF 7F 31 30 30 34 03 80  ..........1004..
1230: 81 00 D3 E1 07 01 C5 96  80 D3 E1 07 01 D3 E1 07  ................
1240: 01 73 30 30 30 03 80 1C  29 80 4A F0 FF FF 7F D3  .s000...).J.....
1250: E1 07 01 2B D3 E1 07 01  97 80 23 5C 00 98 80 5C  ...+......#\...\
1260: 01 98 80 5C 02 98 80 5C  03 98 80 9A 52 8E 80 F0  ...\...\....R...
1270: FF FF 7F F0 FF FF 7F 31  30 30 34 45 8E 80 F0 FF  .......1004E....
1280: FF 7F F0 FF FF 7F 31 30  31 34 03 80 1C 2A 80 C5  ......1014...*..
1290: 96 80 D3 E1 07 01 D3 E1  07 01 73 30 30 31 03 80  ..........s001..
12A0: 03 02 10 99 80 27 10 DA  E1 07 01 07 1C 3A 80 79  .....'.......:.y
12B0: 02 F0 FF FF 7F 9A 80 03  80 2B D3 E1 07 01 9B 80  .........+......
12C0: 23 2A 10 DA E1 07 01 52  8E 80 F0 FF FF 7F F0 FF  #*.....R........
12D0: FF 7F 31 30 31 34 45 8E  80 F0 FF FF 7F F0 FF FF  ..1014E.........
12E0: 7F 31 30 32 30 03 80 1C  58 80 52 8E 80 F0 FF FF  .1020...X.R.....
12F0: 7F F0 FF FF 7F 31 30 32  30 45 8E 80 F0 FF FF 7F  .....1020E......
1300: F0 FF FF 7F 31 30 32 32  03 80 2B D3 E1 07 01 9C  ....1022..+.....
1310: 80 23 2B D3 E1 07 01 9D  80 23 52 8E 80 F0 FF FF  .#+......#R.....
1320: 7F F0 FF FF 7F 31 30 32  32 45 8E 80 F0 FF FF 7F  .....1022E......
1330: F0 FF FF 7F 31 30 32 33  03 80 1C 2F 80 2B D3 E1  ....1023.../.+..
1340: 07 01 9E 80 23 52 8E 80  F0 FF FF 7F F0 FF FF 7F  ....#R..........
1350: 31 30 32 33 45 8E 80 F0  FF FF 7F F0 FF FF 7F 31  1023E..........1
1360: 30 30 35 03 80 5B 9F 80  D3 E1 07 01 D3 E1 07 01  005..[..........
1370: 75 6B 65 34 53 D3 E1 07  01 D3 E1 07 01 75 6B 65  uke4S........uke
1380: 34 2B D3 E1 07 01 A0 80  23 2B D3 E1 07 01 A1 80  4+......#+......
1390: 23 7B F0 FF FF 7F 2C D4  E1 07 01 D4 E1 07 01 65  #{....,........e
13A0: 66 6F 6E 52 8E 80 F0 FF  FF 7F F0 FF FF 7F 31 30  fonR..........10
13B0: 30 35 45 8E 80 F0 FF FF  7F F0 FF FF 7F 31 30 32  05E..........102
13C0: 35 03 80 45 8E 80 F0 FF  FF 7F F0 FF FF 7F 36 31  5..E..........61
13D0: 32 35 03 80 27 10 F0 FF  FF 7F 2D 5D 03 80 29 80  25..'.....-]..).
13E0: 2B DA E1 07 01 A2 80 23  81 01 D3 E1 07 01 52 8E  +......#......R.
13F0: 80 F0 FF FF 7F F0 FF FF  7F 31 30 32 35 45 8E 80  .........1025E..
1400: F0 FF FF 7F F0 FF FF 7F  31 30 30 36 03 80 27 10  ........1006..'.
1410: DB E1 07 01 15 1C 4B 80  C5 96 80 D3 E1 07 01 D3  ......K.........
1420: E1 07 01 73 30 30 32 03  80 27 10 F0 FF FF 7F 27  ...s002..'.....'
1430: 1C 23 80 4A D3 E1 07 01  D4 E1 07 01 1C 58 80 52  .#.J.........X.R
1440: 8E 80 F0 FF FF 7F F0 FF  FF 7F 31 30 30 36 45 8E  ..........1006E.
1450: 80 F0 FF FF 7F F0 FF FF  7F 31 30 32 36 03 80 6C  .........1026..l
1460: D4 E1 07 01 A3 80 2F 80  2B D4 E1 07 01 A4 80 23  ....../.+......#
1470: 52 8E 80 F0 FF FF 7F F0  FF FF 7F 31 30 32 36 BA  R..........1026.
1480: D6 E1 07 01 A5 80 A6 80  87 80 88 80 45 8E 80 F0  ............E...
1490: FF FF 7F F0 FF FF 7F 31  30 30 37 03 80 7B D3 E1  .......1007..{..
14A0: 07 01 1C 2A 80 2B D4 E1  07 01 A7 80 23 27 10 D3  ...*.+......#'..
14B0: E1 07 01 24 1C 2B 80 52  8E 80 F0 FF FF 7F F0 FF  ...$.+.R........
14C0: FF 7F 31 30 30 37 45 8E  80 F0 FF FF 7F F0 FF FF  ..1007E.........
14D0: 7F 31 30 30 38 03 80 BA  D6 E1 07 01 8A 80 86 80  .1008...........
14E0: 87 80 88 80 1C 2A 80 2B  D3 E1 07 01 A8 80 23 27  .....*.+......#'
14F0: 10 D3 E1 07 01 25 52 8E  80 F0 FF FF 7F F0 FF FF  .....%R.........
1500: 7F 31 30 30 38 45 8E 80  F0 FF FF 7F F0 FF FF 7F  .1008E..........
1510: 31 30 30 39 03 80 1C 29  80 2B D4 E1 07 01 A9 80  1009...).+......
1520: 23 2B D4 E1 07 01 AA 80  23 52 8E 80 F0 FF FF 7F  #+......#R......
1530: F0 FF FF 7F 31 30 30 39  BA D5 E1 07 01 AB 80 89  ....1009........
1540: 80 87 80 88 80 BA D7 E1  07 01 AC 80 AD 80 87 80  ................
1550: 88 80 BA D6 E1 07 01 AE  80 86 80 87 80 88 80 45  ...............E
1560: 8E 80 F0 FF FF 7F F0 FF  FF 7F 31 30 30 30 03 80  ..........1000..
1570: 2B D4 E1 07 01 AF 80 23  52 8E 80 F0 FF FF 7F F0  +......#R.......
1580: FF FF 7F 31 30 30 30 27  10 D4 E1 07 01 16 1C B0  ...1000'........
1590: 80 27 10 D6 E1 07 01 09  27 10 D8 E1 07 01 08 27  .'......'......'
15A0: 10 D5 E1 07 01 0B 27 10  D7 E1 07 01 09 1C B0 80  ......'.........
15B0: 45 8E 80 F0 FF FF 7F F0  FF FF 7F 31 30 31 30 03  E..........1010.
15C0: 80 1C 2B 80 1A 1B 22 1C  2B 80 7A 00 D4 E1 07 01  ..+...".+.z.....
15D0: 7A 00 D5 E1 07 01 7A 00  D6 E1 07 01 7A 00 D7 E1  z.....z.....z...
15E0: 07 01 7A 00 D8 E1 07 01  52 8E 80 F0 FF FF 7F F0  ..z.....R.......
15F0: FF FF 7F 31 30 31 30 45  8E 80 F0 FF FF 7F F0 FF  ...1010E........
1600: FF 7F 30 30 62 66 03 80  27 10 F0 FF FF 7F 28 2C  ..00bf..'.....(,
1610: D4 E1 07 01 D4 E1 07 01  65 66 6F 66 2C D5 E1 07  ........efof,...
1620: 01 D5 E1 07 01 65 66 6F  66 2C D6 E1 07 01 D6 E1  .....efof,......
1630: 07 01 65 66 6F 66 2C D7  E1 07 01 D7 E1 07 01 65  ..efof,........e
1640: 66 6F 66 2C D8 E1 07 01  D8 E1 07 01 65 66 6F 66  fof,........efof
1650: 5C 00 03 80 5C 01 03 80  5C 02 8C 80 5C 03 8D 80  \...\...\...\...
1660: 9A 4E 01 D3 E1 07 01 4E  01 D4 E1 07 01 4E 01 D5  .N.....N.....N..
1670: E1 07 01 4E 01 D6 E1 07  01 4E 01 D7 E1 07 01 4E  ...N.....N.....N
1680: 01 D8 E1 07 01 78 1C 04  80 AB 0A 46 00 45 25 80  .....x.....F.E%.
1690: F0 FF FF 7F F0 FF FF 7F  66 64 69 32 03 80 21 00  ........fdi2..!.
```

#### Opcodes

```
  0: 0x0F2B [0x42] SET_CLI_EVENT_CANCEL_DATA()
  1: 0x0F2C [0x1A] CALL_SUBROUTINE(address=0x221B)
  2: 0x0F2F [0x46] CAMERA_CONTROL: Disable user control
  3: 0x0F31 [0x38] SET_CLIENT_EVENT_MODE(mode=19*)
  4: 0x0F34 [0x77] SET_EVENT_TIME_WEATHER(hour=2*, weather=16*)
  5: 0x0F39 [0x4E] SET_ENTITY_HIDE_FLAG: Show LocalPlayer
  6: 0x0F3F [0x4E] SET_ENTITY_HIDE_FLAG: Show Young Aldo (ID: 17293779/0x0107E1D3)
  7: 0x0F45 [0x4E] SET_ENTITY_HIDE_FLAG: Show Unnamed NPC (ID: 17293787/0x0107E1DB)
  8: 0x0F4B [0x4E] SET_ENTITY_HIDE_FLAG: Show Seed Mandragora (ID: 17293780/0x0107E1D4)
  9: 0x0F51 [0x4E] SET_ENTITY_HIDE_FLAG: Show Seed Mandragora (ID: 17293781/0x0107E1D5)
 10: 0x0F57 [0x4E] SET_ENTITY_HIDE_FLAG: Show Seed Mandragora (ID: 17293782/0x0107E1D6)
 11: 0x0F5D [0x4E] SET_ENTITY_HIDE_FLAG: Show Seed Mandragora (ID: 17293783/0x0107E1D7)
 12: 0x0F63 [0x4E] SET_ENTITY_HIDE_FLAG: Show Seed Mandragora (ID: 17293784/0x0107E1D8)
 13: 0x0F69 [0x92] Young Aldo (ID: 17293779/0x0107E1D3)->Render.Flags3 ^= 0x01
 14: 0x0F6F [0x92] Unnamed NPC (ID: 17293787/0x0107E1DB)->Render.Flags3 ^= 0x01
 15: 0x0F75 [0x92] Seed Mandragora (ID: 17293780/0x0107E1D4)->Render.Flags3 ^= 0x01
 16: 0x0F7B [0x92] Seed Mandragora (ID: 17293781/0x0107E1D5)->Render.Flags3 ^= 0x01
 17: 0x0F81 [0x92] Seed Mandragora (ID: 17293782/0x0107E1D6)->Render.Flags3 ^= 0x01
 18: 0x0F87 [0x92] Seed Mandragora (ID: 17293783/0x0107E1D7)->Render.Flags3 ^= 0x01
 19: 0x0F8D [0x92] Seed Mandragora (ID: 17293784/0x0107E1D8)->Render.Flags3 ^= 0x01
 20: 0x0F93 [0x94] LocalPlayer->Render.Flags3 ^= 0x01
 21: 0x0F99 [0x94] Young Aldo (ID: 17293779/0x0107E1D3)->Render.Flags3 ^= 0x01
 22: 0x0F9F [0x94] Unnamed NPC (ID: 17293787/0x0107E1DB)->Render.Flags3 ^= 0x01
 23: 0x0FA5 [0x94] Seed Mandragora (ID: 17293780/0x0107E1D4)->Render.Flags3 ^= 0x01
 24: 0x0FAB [0x94] Seed Mandragora (ID: 17293781/0x0107E1D5)->Render.Flags3 ^= 0x01
 25: 0x0FB1 [0x94] Seed Mandragora (ID: 17293782/0x0107E1D6)->Render.Flags3 ^= 0x01
 26: 0x0FB7 [0x94] Seed Mandragora (ID: 17293783/0x0107E1D7)->Render.Flags3 ^= 0x01
 27: 0x0FBD [0x94] Seed Mandragora (ID: 17293784/0x0107E1D8)->Render.Flags3 ^= 0x01
 28: 0x0FC3 [0xBA] SET_ENTITY_POSITION(entity_id=LocalPlayer, pos_x=-121.468*, pos_z=297.584*, pos_y=-19.121*, direction=264.6°*)
 29: 0x0FD0 [0xBA] SET_ENTITY_POSITION(entity_id=Young Aldo (ID: 17293779/0x0107E1D3), pos_x=-123.374*, pos_z=300.653*, pos_y=-19.083*, direction=15.6°*)
 30: 0x0FDD [0x59] UPDATE_ENTITY_DATA: Unnamed NPC (ID: 17293787/0x0107E1DB)->Render.Flags0 |= 0x200000
 31: 0x0FE4 [0xBA] SET_ENTITY_POSITION(entity_id=Unnamed NPC (ID: 17293787/0x0107E1DB), pos_x=-122.180*, pos_z=299.216*, pos_y=-19.040*, direction=196.9°*)
 32: 0x0FF1 [0x27] REQ_SET(priority=0x10, entity_id=Seed Mandragora (ID: 17293780/0x0107E1D4), tag_num=0x13)
 33: 0x0FF8 [0x27] REQ_SET(priority=0x10, entity_id=Seed Mandragora (ID: 17293781/0x0107E1D5), tag_num=0x08)
 34: 0x0FFF [0x27] REQ_SET(priority=0x10, entity_id=Seed Mandragora (ID: 17293782/0x0107E1D6), tag_num=0x0A)
 35: 0x1006 [0x27] REQ_SET(priority=0x10, entity_id=Seed Mandragora (ID: 17293783/0x0107E1D7), tag_num=0x06)
 36: 0x100D [0x27] REQ_SET(priority=0x10, entity_id=Seed Mandragora (ID: 17293784/0x0107E1D8), tag_num=0x05)
 37: 0x1014 [0xBA] SET_ENTITY_POSITION(entity_id=Seed Mandragora (ID: 17293780/0x0107E1D4), pos_x=-128.184*, pos_z=294.983*, pos_y=-19.485*, direction=316.4°*)
 38: 0x1021 [0xBA] SET_ENTITY_POSITION(entity_id=Seed Mandragora (ID: 17293781/0x0107E1D5), pos_x=-128.184*, pos_z=293.983*, pos_y=-19.485*, direction=316.4°*)
 39: 0x102E [0xBA] SET_ENTITY_POSITION(entity_id=Seed Mandragora (ID: 17293782/0x0107E1D6), pos_x=-129.184*, pos_z=294.983*, pos_y=-19.485*, direction=316.4°*)
 40: 0x103B [0xBA] SET_ENTITY_POSITION(entity_id=Seed Mandragora (ID: 17293783/0x0107E1D7), pos_x=-129.184*, pos_z=293.983*, pos_y=-19.485*, direction=316.4°*)
 41: 0x1048 [0xBA] SET_ENTITY_POSITION(entity_id=Seed Mandragora (ID: 17293784/0x0107E1D8), pos_x=-130.184*, pos_z=294.983*, pos_y=-19.485*, direction=316.4°*)
 42: 0x1055 [0x80] LOAD_WAIT(entity=LocalPlayer)
 43: 0x105A [0x80] LOAD_WAIT(entity=Young Aldo (ID: 17293779/0x0107E1D3))
 44: 0x105F [0x80] LOAD_WAIT(entity=Unnamed NPC (ID: 17293787/0x0107E1DB))
 45: 0x1064 [0x80] LOAD_WAIT(entity=Seed Mandragora (ID: 17293780/0x0107E1D4))
 46: 0x1069 [0x80] LOAD_WAIT(entity=Seed Mandragora (ID: 17293781/0x0107E1D5))
 47: 0x106E [0x80] LOAD_WAIT(entity=Seed Mandragora (ID: 17293782/0x0107E1D6))
 48: 0x1073 [0x80] LOAD_WAIT(entity=Seed Mandragora (ID: 17293783/0x0107E1D7))
 49: 0x1078 [0x80] LOAD_WAIT(entity=Seed Mandragora (ID: 17293784/0x0107E1D8))
 50: 0x107D [0x1C] WAIT(15* ticks)
 51: 0x1080 [0x6C] FADE_ENTITY_COLOR(entity_id=Young Aldo (ID: 17293779/0x0107E1D3), end_alpha=0*, fade_time=1*)
 52: 0x1089 [0x6C] FADE_ENTITY_COLOR(entity_id=Unnamed NPC (ID: 17293787/0x0107E1DB), end_alpha=0*, fade_time=1*)
 53: 0x1092 [0x6C] FADE_ENTITY_COLOR(entity_id=Seed Mandragora (ID: 17293780/0x0107E1D4), end_alpha=0*, fade_time=1*)
 54: 0x109B [0x6C] FADE_ENTITY_COLOR(entity_id=Seed Mandragora (ID: 17293781/0x0107E1D5), end_alpha=0*, fade_time=1*)
 55: 0x10A4 [0x6C] FADE_ENTITY_COLOR(entity_id=Seed Mandragora (ID: 17293782/0x0107E1D6), end_alpha=0*, fade_time=1*)
 56: 0x10AD [0x6C] FADE_ENTITY_COLOR(entity_id=Seed Mandragora (ID: 17293783/0x0107E1D7), end_alpha=0*, fade_time=1*)
 57: 0x10B6 [0x6C] FADE_ENTITY_COLOR(entity_id=Seed Mandragora (ID: 17293784/0x0107E1D8), end_alpha=0*, fade_time=1*)
 58: 0x10BF [0x4A] Young Aldo (ID: 17293779/0x0107E1D3) looks at LocalPlayer
 59: 0x10C8 [0x6F] WAIT_FRAME_DELAY: Yield until WaitTime reaches zero
 60: 0x10C9 [0x76] CHECK_ENTITY_RENDER_FLAGS: Wait until Young Aldo (ID: 17293779/0x0107E1D3) Render.Flags0 and Render.Flags3 conditions are met
 61: 0x10CE [0x27] REQ_SET(priority=0x10, entity_id=Young Aldo (ID: 17293779/0x0107E1D3), tag_num=0x1F)
 62: 0x10D5 [0x5C] MUSIC_CONTROL: Set Idle (Day) music to song 0*
 63: 0x10D9 [0x5C] MUSIC_CONTROL: Set Idle (Night) music to song 0*
 64: 0x10DD [0x5C] MUSIC_CONTROL: Set Combat (Solo) music to song 101*
 65: 0x10E1 [0x5C] MUSIC_CONTROL: Set Combat (Party) music to song 103*
 66: 0x10E5 [0x9A] WAIT_MUSIC_SERVER()
 67: 0x10E6 [0x1C] WAIT(30* ticks)
 68: 0x10E9 [0x45] LOAD_SCHEDULED_TASK: Load scheduler "1001" with entities [LocalPlayer, LocalPlayer], work=[459*, 0*]
 69: 0x10FA [0x1A] CALL_SUBROUTINE(address=0x21FA)
 70: 0x10FD [0x1C] WAIT(90* ticks)
 71: 0x1100 [0x7B] Young Aldo (ID: 17293779/0x0107E1D3) stops talking
 72: 0x1105 [0x27] REQ_SET(priority=0x10, entity_id=Young Aldo (ID: 17293779/0x0107E1D3), tag_num=0x14)
 73: 0x110C [0x45] LOAD_SCHEDULED_TASK: Load scheduler "6109" with entities [Young Aldo (ID: 17293779/0x0107E1D3), Young Aldo (ID: 17293779/0x0107E1D3)], work=[459*, 0*]
 74: 0x111D [0x27] REQ_SET(priority=0x10, entity_id=Unnamed NPC (ID: 17293787/0x0107E1DB), tag_num=0x14)
 75: 0x1124 [0x1C] WAIT(30* ticks)
 76: 0x1127 [0x2B] Young Aldo (ID: 17293779/0x0107E1D3) [8235*]:
    → "There you are, <Player>. I've been waiting for you."
 77: 0x112E [0x23] WAIT_FOR_DIALOG_INTERACTION
 78: 0x112F [0x52] END_LOAD_SCHEDULER: End scheduler "1001" with entities [LocalPlayer, LocalPlayer], work=459*
 79: 0x113E [0x45] LOAD_SCHEDULED_TASK: Load scheduler "1019" with entities [LocalPlayer, LocalPlayer], work=[459*, 0*]
 80: 0x114F [0x1C] WAIT(120* ticks)
 81: 0x1152 [0x27] REQ_SET(priority=0x10, entity_id=Young Aldo (ID: 17293779/0x0107E1D3), tag_num=0x20)
 82: 0x1159 [0x1C] WAIT(20* ticks)
 83: 0x115C [0x52] END_LOAD_SCHEDULER: End scheduler "1019" with entities [LocalPlayer, LocalPlayer], work=459*
 84: 0x116B [0x45] LOAD_SCHEDULED_TASK: Load scheduler "1011" with entities [LocalPlayer, LocalPlayer], work=[459*, 0*]
 85: 0x117C [0x2A] GET_REQ_LEVEL(level=16, entity_id=Young Aldo (ID: 17293779/0x0107E1D3))
 86: 0x1182 [0x52] END_LOAD_SCHEDULER: End scheduler "1011" with entities [LocalPlayer, LocalPlayer], work=459*
 87: 0x1191 [0x45] LOAD_SCHEDULED_TASK: Load scheduler "1002" with entities [LocalPlayer, LocalPlayer], work=[459*, 0*]
 88: 0x11A2 [0x1C] WAIT(45* ticks)
 89: 0x11A5 [0x03] Work_Zone[2] = 1088*
 90: 0x11AA [0x03] Work_Zone[3] = 1089*
 91: 0x11AF [0x03] Work_Zone[4] = 1090*
 92: 0x11B4 [0x2B] Young Aldo (ID: 17293779/0x0107E1D3) [8236*]:
    → "Were you able to recover the $3, $3, and $3?"
 93: 0x11BB [0x23] WAIT_FOR_DIALOG_INTERACTION
 94: 0x11BC [0x52] END_LOAD_SCHEDULER: End scheduler "1002" with entities [LocalPlayer, LocalPlayer], work=459*
 95: 0x11CB [0x45] LOAD_SCHEDULED_TASK: Load scheduler "1003" with entities [LocalPlayer, LocalPlayer], work=[459*, 0*]
 96: 0x11DC [0x29] REQ_SET_WAIT(priority=0x10, entity_id=LocalPlayer, tag_num=0x25)
 97: 0x11E3 [0x59] UPDATE_ENTITY_DATA: Unnamed NPC (ID: 17293787/0x0107E1DB)->Render.Flags0 |= 0x200000
 98: 0x11EA [0xBA] SET_ENTITY_POSITION(entity_id=Unnamed NPC (ID: 17293787/0x0107E1DB), pos_x=-123.086*, pos_z=300.272*, pos_y=-20.050*, direction=234.3°*)
 99: 0x11F7 [0x6E] LocalPlayer uses emote 0*
100: 0x11FE [0x99] Wait for LocalPlayer animation to complete
101: 0x1203 [0x1C] WAIT(60* ticks)
102: 0x1206 [0x27] REQ_SET(priority=0x10, entity_id=Young Aldo (ID: 17293779/0x0107E1D3), tag_num=0x21)
103: 0x120D [0x1C] WAIT(150* ticks)
104: 0x1210 [0x52] END_LOAD_SCHEDULER: End scheduler "1003" with entities [LocalPlayer, LocalPlayer], work=459*
105: 0x121F [0x45] LOAD_SCHEDULED_TASK: Load scheduler "1004" with entities [LocalPlayer, LocalPlayer], work=[459*, 0*]
106: 0x1230 [0x81] SET_ENTITY_BLINKING(blink_flag=0x00, entity=Young Aldo (ID: 17293779/0x0107E1D3))
107: 0x1236 [0xC5] LOAD_SCHEDULED_TASK_ALT3: Load scheduler 0x80033030 for entities [Young Aldo (ID: 17293779/0x0107E1D3), Young Aldo (ID: 17293779/0x0107E1D3)], work=81*, param=12403
108: 0x1247 [0x1C] WAIT(120* ticks)
109: 0x124A [0x4A] LocalPlayer looks at Young Aldo (ID: 17293779/0x0107E1D3)
110: 0x1253 [0x2B] Young Aldo (ID: 17293779/0x0107E1D3) [8237*]:
    → "Ahhh...wonderful."
111: 0x125A [0x23] WAIT_FOR_DIALOG_INTERACTION
112: 0x125B [0x5C] MUSIC_CONTROL: Set Idle (Day) music to song 206*
113: 0x125F [0x5C] MUSIC_CONTROL: Set Idle (Night) music to song 206*
114: 0x1263 [0x5C] MUSIC_CONTROL: Set Combat (Solo) music to song 206*
115: 0x1267 [0x5C] MUSIC_CONTROL: Set Combat (Party) music to song 206*
116: 0x126B [0x9A] WAIT_MUSIC_SERVER()
117: 0x126C [0x52] END_LOAD_SCHEDULER: End scheduler "1004" with entities [LocalPlayer, LocalPlayer], work=459*
118: 0x127B [0x45] LOAD_SCHEDULED_TASK: Load scheduler "1014" with entities [LocalPlayer, LocalPlayer], work=[459*, 0*]
119: 0x128C [0x1C] WAIT(60* ticks)
120: 0x128F [0xC5] LOAD_SCHEDULED_TASK_ALT3: Load scheduler 0x80033130 for entities [Young Aldo (ID: 17293779/0x0107E1D3), Young Aldo (ID: 17293779/0x0107E1D3)], work=81*, param=12403
121: 0x12A0 [0x03] Work_Zone[2] = 480*
122: 0x12A5 [0x27] REQ_SET(priority=0x10, entity_id=??? (ID: 17293786/0x0107E1DA), tag_num=0x07)
123: 0x12AC [0x1C] WAIT(150* ticks)
124: 0x12AF [0x79] LocalPlayer looks at Unknown NPC (ID: 2147713178/0x8003809A) (Direct axis set)
125: 0x12B9 [0x2B] Young Aldo (ID: 17293779/0x0107E1D3) [8238*]:
    → "These shards are sure to tell us something. Let us see what secrets they hold..."
126: 0x12C0 [0x23] WAIT_FOR_DIALOG_INTERACTION
127: 0x12C1 [0x2A] GET_REQ_LEVEL(level=16, entity_id=??? (ID: 17293786/0x0107E1DA))
128: 0x12C7 [0x52] END_LOAD_SCHEDULER: End scheduler "1014" with entities [LocalPlayer, LocalPlayer], work=459*
129: 0x12D6 [0x45] LOAD_SCHEDULED_TASK: Load scheduler "1020" with entities [LocalPlayer, LocalPlayer], work=[459*, 0*]
130: 0x12E7 [0x1C] WAIT(180* ticks)
131: 0x12EA [0x52] END_LOAD_SCHEDULER: End scheduler "1020" with entities [LocalPlayer, LocalPlayer], work=459*
132: 0x12F9 [0x45] LOAD_SCHEDULED_TASK: Load scheduler "1022" with entities [LocalPlayer, LocalPlayer], work=[459*, 0*]
133: 0x130A [0x2B] Young Aldo (ID: 17293779/0x0107E1D3) [8239*]:
    → "What's this? There is another verse...?"
134: 0x1311 [0x23] WAIT_FOR_DIALOG_INTERACTION
135: 0x1312 [0x2B] Young Aldo (ID: 17293779/0x0107E1D3) [8240*]:
    → "An antiphon, a response to the lay of destruction...?"
136: 0x1319 [0x23] WAIT_FOR_DIALOG_INTERACTION
137: 0x131A [0x52] END_LOAD_SCHEDULER: End scheduler "1022" with entities [LocalPlayer, LocalPlayer], work=459*
138: 0x1329 [0x45] LOAD_SCHEDULED_TASK: Load scheduler "1023" with entities [LocalPlayer, LocalPlayer], work=[459*, 0*]
139: 0x133A [0x1C] WAIT(90* ticks)
140: 0x133D [0x2B] Young Aldo (ID: 17293779/0x0107E1D3) [8241*]:
    → "An undiscovered verse with the power to silence the raging echo..."
141: 0x1344 [0x23] WAIT_FOR_DIALOG_INTERACTION
142: 0x1345 [0x52] END_LOAD_SCHEDULER: End scheduler "1023" with entities [LocalPlayer, LocalPlayer], work=459*
143: 0x1354 [0x45] LOAD_SCHEDULED_TASK: Load scheduler "1005" with entities [LocalPlayer, LocalPlayer], work=[459*, 0*]
144: 0x1365 [0x5B] LOAD_EXT_SCHEDULER: Load scheduler "uke4" with entities [Young Aldo (ID: 17293779/0x0107E1D3), Young Aldo (ID: 17293779/0x0107E1D3)], work=2572*
145: 0x1374 [0x53] WAIT_SCHEDULER_TASK: Wait for scheduler "uke4" with entities [Young Aldo (ID: 17293779/0x0107E1D3), Young Aldo (ID: 17293779/0x0107E1D3)]
146: 0x1381 [0x2B] Young Aldo (ID: 17293779/0x0107E1D3) [8242*]:
    → "A chorus with the power to channel the love, the will to live of all who sing it into a clarion call. A call that will cut through the echo of destruction, restoring order from chaos..."
147: 0x1388 [0x23] WAIT_FOR_DIALOG_INTERACTION
148: 0x1389 [0x2B] Young Aldo (ID: 17293779/0x0107E1D3) [8243*]:
    → "An ode to appease the ancient gods... Yes, this is the answer we seek."
149: 0x1390 [0x23] WAIT_FOR_DIALOG_INTERACTION
150: 0x1391 [0x7B] LocalPlayer stops talking
151: 0x1396 [0x2C] CREATE_SCHEDULER_TASK: Create scheduler "efon" with entities [Seed Mandragora (ID: 17293780/0x0107E1D4), Seed Mandragora (ID: 17293780/0x0107E1D4)]
152: 0x13A3 [0x52] END_LOAD_SCHEDULER: End scheduler "1005" with entities [LocalPlayer, LocalPlayer], work=459*
153: 0x13B2 [0x45] LOAD_SCHEDULED_TASK: Load scheduler "1025" with entities [LocalPlayer, LocalPlayer], work=[459*, 0*]
154: 0x13C3 [0x45] LOAD_SCHEDULED_TASK: Load scheduler "6125" with entities [LocalPlayer, LocalPlayer], work=[459*, 0*]
155: 0x13D4 [0x27] REQ_SET(priority=0x10, entity_id=LocalPlayer, tag_num=0x2D)
156: 0x13DB [0x5D] SET_MUSIC_VOLUME(volume=0*, fade_time=120*)
157: 0x13E0 [0x2B] ??? (ID: 17293786/0x0107E1DA) [8244*]:
    → "You!"
