# 17293749

## Common Data

| Field            | Value                  |
|------------------|------------------------|
| Zone             | Qufim Island (ID: 126) |
| Block Size       | 116 bytes              |
| Total Events     | 3                      |
| References Count | 11                     |

## List of Events

| Event ID                 | Entrypoint   |   Size |   Instructions |
|--------------------------|--------------|--------|----------------|
| [65535](#event-65535)    | 0x0000       |      1 |              1 |
| [1](#event-1)            | 0x0001       |     10 |              2 |
| [65535.1](#event-655351) | 0x000B       |     30 |              8 |

## DAT References (imed_data)

|   Index | Hex Value   |   Dec Value |
|---------|-------------|-------------|
|       0 | 0x2E0E5     |      188645 |
|       1 | 0xFFFFB1A4  |  4294947236 |
|       2 | 0xFFFFAC48  |  4294945864 |
|       3 | 0x0866      |        2150 |
|       4 | 0x000D      |          13 |
|       5 | 0x2BE4B     |      179787 |
|       6 | 0xFFFFB4D0  |  4294948048 |
|       7 | 0xFFFFB006  |  4294946822 |
|       8 | 0x2A928     |      174376 |
|       9 | 0xFFFFB458  |  4294947928 |
|      10 | 0xFFFFB2DB  |  4294947547 |

## Events

### Event 65535

#### Metadata

| Field        | Value   |
|--------------|---------|
| Entrypoint   | 0x0000  |
| Data Size    | 1 bytes |
| Instructions | 1       |

```
      00 01 02 03 04 05 06 07  08 09 0A 0B 0C 0D 0E 0F
      -- -- -- -- -- -- -- --  -- -- -- -- -- -- -- --
0000: 00                                                .               
```

#### Opcodes

```
  0: 0x0000 [0x00] END_REQSTACK()
```

### Event 1

#### Metadata

| Field        | Value    |
|--------------|----------|
| Entrypoint   | 0x0001   |
| Data Size    | 10 bytes |
| Instructions | 2        |

```
      00 01 02 03 04 05 06 07  08 09 0A 0B 0C 0D 0E 0F
      -- -- -- -- -- -- -- --  -- -- -- -- -- -- -- --
0000:    37 00 80 01 80 02 80  03 80 00                  7.........     
```

#### Opcodes

```
  0: 0x0001 [0x37] UPDATE_EVENT_POSITION_AND_DIR: x=188.645*, z=-20.060*, y=-21.432*, direction=189.0°*
  1: 0x000A [0x00] END_REQSTACK()
```

### Event 65535.1

#### Metadata

| Field        | Value    |
|--------------|----------|
| Entrypoint   | 0x000B   |
| Data Size    | 30 bytes |
| Instructions | 8        |

```
      00 01 02 03 04 05 06 07  08 09 0A 0B 0C 0D 0E 0F
      -- -- -- -- -- -- -- --  -- -- -- -- -- -- -- --
0000:                                   32 04 80 1F 00             2....
0010: 05 80 06 80 07 80 1F 01  1F 00 08 80 09 80 0A 80  ................
0020: 1F 01 6F 1E AD E1 07 01  00                       ..o......       
```

#### Opcodes

```
  0: 0x000B [0x32] ExtData[1]->MainSpeed = 13* * 0.1
  1: 0x000E [0x1F] MOVE_ENTITY: EventEntity moves to X=179.787*, Z=-19.248*, Y=-20.474*
  2: 0x0016 [0x1F] MOVE_ENTITY: Update entity position (mode=1)
  3: 0x0018 [0x1F] MOVE_ENTITY: EventEntity moves to X=174.376*, Z=-19.368*, Y=-19.749*
  4: 0x0020 [0x1F] MOVE_ENTITY: Update entity position (mode=1)
  5: 0x0022 [0x6F] WAIT_FRAME_DELAY: Yield until WaitTime reaches zero
  6: 0x0023 [0x1E] EventEntity looks at Wolfgang (ID: 17293741/0x0107E1AD) and starts talking
  7: 0x0028 [0x00] END_REQSTACK()
```
