# 17293759

## Common Data

| Field            | Value                  |
|------------------|------------------------|
| Zone             | Qufim Island (ID: 126) |
| Block Size       | 19608 bytes            |
| Total Events     | 4                      |
| References Count | 253                    |

## List of Events

| Event ID                 | Entrypoint   |   Size |   Instructions |
|--------------------------|--------------|--------|----------------|
| [65535](#event-65535)    | 0x0000       |      1 |              1 |
| [10000](#event-10000)    | 0x0001       |      1 |              1 |
| [65535.1](#event-655351) | 0x0002       |     23 |              5 |
| [65535.2](#event-655352) | 0x0019       |  18537 |           3185 |

## DAT References (imed_data)

|   Index | Hex Value   |   Dec Value |
|---------|-------------|-------------|
|       0 | 0x29B88     |      170888 |
|       1 | 0xFFFCF7E2  |  4294768610 |
|       2 | 0x4F82      |       20354 |
|       3 | 0x06F6      |        1782 |
|       4 | 0x0028      |          40 |
|       5 | 0x29397     |      168855 |
|       6 | 0xFFFCEF17  |  4294766359 |
|       7 | 0x4E84      |       20100 |
|       8 | 0x0000      |           0 |
|       9 | 0x0001      |           1 |
|      10 | 0x0002      |           2 |
|      11 | 0x0003      |           3 |
|      12 | 0x0004      |           4 |
|      13 | 0x0005      |           5 |
|      14 | 0x0006      |           6 |
|      15 | 0x0007      |           7 |
|      16 | 0x005F      |          95 |
|      17 | 0x0064      |         100 |
|      18 | 0x0069      |         105 |
|      19 | 0x0052      |          82 |
|      20 | 0x0057      |          87 |
|      21 | 0x005C      |          92 |
|      22 | 0x0059      |          89 |
|      23 | 0x005D      |          93 |
|      24 | 0x0061      |          97 |
|      25 | 0x0060      |          96 |
|      26 | 0x0008      |           8 |
|      27 | 0x0009      |           9 |
|      28 | 0x000A      |          10 |
|      29 | 0x000D      |          13 |
|      30 | 0x0012      |          18 |
|      31 | 0x0013      |          19 |
|      32 | 0x0014      |          20 |
|      33 | 0x0017      |          23 |
|      34 | 0x000C      |          12 |
|      35 | 0x000F      |          15 |
|      36 | 0x000E      |          14 |
|      37 | 0x000B      |          11 |
|      38 | 0x0018      |          24 |
|      39 | 0x001F      |          31 |
|      40 | 0x001B      |          27 |
|      41 | 0x0010      |          16 |
|      42 | 0x0015      |          21 |
|      43 | 0x018D      |         397 |
|      44 | 0x0175      |         373 |
|      45 | 0x0170      |         368 |
|      46 | 0x0171      |         369 |
|      47 | 0x014C      |         332 |
|      48 | 0x01C1      |         449 |
|      49 | 0x027C      |         636 |
|      50 | 0x027B      |         635 |
|      51 | 0x027D      |         637 |
|      52 | 0x02D3      |         723 |
|      53 | 0x0321      |         801 |
|      54 | 0x0326      |         806 |
|      55 | 0x01E1      |         481 |
|      56 | 0x0343      |         835 |
|      57 | 0x0386      |         902 |
|      58 | 0x0388      |         904 |
|      59 | 0x0361      |         865 |
|      60 | 0x0387      |         903 |
|      61 | 0x038A      |         906 |
|      62 | 0x003F      |          63 |
|      63 | 0x0282      |         642 |
|      64 | 0x0283      |         643 |
|      65 | 0x0288      |         648 |
|      66 | 0x0289      |         649 |
|      67 | 0x028A      |         650 |
|      68 | 0x028B      |         651 |
|      69 | 0x029E      |         670 |
|      70 | 0x0019      |          25 |
|      71 | 0x00C6      |         198 |
|      72 | 0x0032      |          50 |
|      73 | 0x00B5      |         181 |
|      74 | 0x008C      |         140 |
|      75 | 0x008E      |         142 |
|      76 | 0x007A      |         122 |
|      77 | 0x014B      |         331 |
|      78 | 0x0148      |         328 |
|      79 | 0x0166      |         358 |
|      80 | 0x017A      |         378 |
|      81 | 0x0182      |         386 |
|      82 | 0x0183      |         387 |
|      83 | 0x0192      |         402 |
|      84 | 0x01DF      |         479 |
|      85 | 0x01E9      |         489 |
|      86 | 0x001C      |          28 |
|      87 | 0x00E6      |         230 |
|      88 | 0x00EB      |         235 |
|      89 | 0x00F5      |         245 |
|      90 | 0x007E      |         126 |
|      91 | 0x007F      |         127 |
|      92 | 0x00F3      |         243 |
|      93 | 0x00F4      |         244 |
|      94 | 0x00E0      |         224 |
|      95 | 0x00E9      |         233 |
|      96 | 0x009E      |         158 |
|      97 | 0x009D      |         157 |
|      98 | 0x00E2      |         226 |
|      99 | 0x00E1      |         225 |
|     100 | 0x014F      |         335 |
|     101 | 0x014E      |         334 |
|     102 | 0x0167      |         359 |
|     103 | 0x00E5      |         229 |
|     104 | 0x0169      |         361 |
|     105 | 0x016A      |         362 |
|     106 | 0x0168      |         360 |
|     107 | 0x0133      |         307 |
|     108 | 0x0174      |         372 |
|     109 | 0x018C      |         396 |
|     110 | 0x0194      |         404 |
|     111 | 0x0195      |         405 |
|     112 | 0x0178      |         376 |
|     113 | 0x0240      |         576 |
|     114 | 0x0197      |         407 |
|     115 | 0x0198      |         408 |
|     116 | 0x01A3      |         419 |
|     117 | 0x019E      |         414 |
|     118 | 0x0246      |         582 |
|     119 | 0x0247      |         583 |
|     120 | 0x0248      |         584 |
|     121 | 0x024B      |         587 |
|     122 | 0x024A      |         586 |
|     123 | 0x0011      |          17 |
|     124 | 0x024F      |         591 |
|     125 | 0x01C3      |         451 |
|     126 | 0x01C4      |         452 |
|     127 | 0x01EF      |         495 |
|     128 | 0x01F0      |         496 |
|     129 | 0x001A      |          26 |
|     130 | 0x0095      |         149 |
|     131 | 0x001D      |          29 |
|     132 | 0x0073      |         115 |
|     133 | 0x0034      |          52 |
|     134 | 0x0024      |          36 |
|     135 | 0x005E      |          94 |
|     136 | 0x0072      |         114 |
|     137 | 0x0031      |          49 |
|     138 | 0x006C      |         108 |
|     139 | 0x003A      |          58 |
|     140 | 0x0096      |         150 |
|     141 | 0x0016      |          22 |
|     142 | 0x0035      |          53 |
|     143 | 0x0085      |         133 |
|     144 | 0x0081      |         129 |
|     145 | 0x0023      |          35 |
|     146 | 0x0033      |          51 |
|     147 | 0x0082      |         130 |
|     148 | 0x0039      |          57 |
|     149 | 0x0020      |          32 |
|     150 | 0x0038      |          56 |
|     151 | 0x0036      |          54 |
|     152 | 0x0083      |         131 |
|     153 | 0x00A2      |         162 |
|     154 | 0x0022      |          34 |
|     155 | 0x0021      |          33 |
|     156 | 0x0065      |         101 |
|     157 | 0x0086      |         134 |
|     158 | 0x0062      |          98 |
|     159 | 0x008D      |         141 |
|     160 | 0x0037      |          55 |
|     161 | 0x008A      |         138 |
|     162 | 0x008B      |         139 |
|     163 | 0x002B      |          43 |
|     164 | 0x0067      |         103 |
|     165 | 0x0030      |          48 |
|     166 | 0x002D      |          45 |
|     167 | 0x00A1      |         161 |
|     168 | 0x0066      |         102 |
|     169 | 0x0075      |         117 |
|     170 | 0x0068      |         104 |
|     171 | 0x007B      |         123 |
|     172 | 0x0077      |         119 |
|     173 | 0x01FE      |         510 |
|     174 | 0x009F      |         159 |
|     175 | 0x00A4      |         164 |
|     176 | 0x00A9      |         169 |
|     177 | 0x00AC      |         172 |
|     178 | 0x00B2      |         178 |
|     179 | 0x00B0      |         176 |
|     180 | 0x013D      |         317 |
|     181 | 0x0108      |         264 |
|     182 | 0x010C      |         268 |
|     183 | 0x0100      |         256 |
|     184 | 0x00FB      |         251 |
|     185 | 0x00B8      |         184 |
|     186 | 0x011C      |         284 |
|     187 | 0x0041      |          65 |
|     188 | 0x0042      |          66 |
|     189 | 0x0047      |          71 |
|     190 | 0x0160      |         352 |
|     191 | 0x0043      |          67 |
|     192 | 0x0048      |          72 |
|     193 | 0x004B      |          75 |
|     194 | 0x004C      |          76 |
|     195 | 0x004D      |          77 |
|     196 | 0x005B      |          91 |
|     197 | 0x0058      |          88 |
|     198 | 0x0053      |          83 |
|     199 | 0x0054      |          84 |
|     200 | 0x0161      |         353 |
|     201 | 0x015C      |         348 |
|     202 | 0x016D      |         365 |
|     203 | 0x00C5      |         197 |
|     204 | 0x00C3      |         195 |
|     205 | 0x00C7      |         199 |
|     206 | 0x015E      |         350 |
|     207 | 0x00C4      |         196 |
|     208 | 0x016E      |         366 |
|     209 | 0x00D0      |         208 |
|     210 | 0x00CD      |         205 |
|     211 | 0x00CA      |         202 |
|     212 | 0x00D2      |         210 |
|     213 | 0x00D8      |         216 |
|     214 | 0x00D5      |         213 |
|     215 | 0x00D6      |         214 |
|     216 | 0x013B      |         315 |
|     217 | 0x0136      |         310 |
|     218 | 0x013A      |         314 |
|     219 | 0x0137      |         311 |
|     220 | 0x016F      |         367 |
|     221 | 0x0138      |         312 |
|     222 | 0x0139      |         313 |
|     223 | 0x009A      |         154 |
|     224 | 0x0091      |         145 |
|     225 | 0x009B      |         155 |
|     226 | 0x0099      |         153 |
|     227 | 0x0093      |         147 |
|     228 | 0x0092      |         146 |
|     229 | 0x0098      |         152 |
|     230 | 0x0071      |         113 |
|     231 | 0x00E8      |         232 |
|     232 | 0x00DD      |         221 |
|     233 | 0x00F8      |         248 |
|     234 | 0x00F1      |         241 |
|     235 | 0x0124      |         292 |
|     236 | 0x012E      |         302 |
|     237 | 0x0129      |         297 |
|     238 | 0x0122      |         290 |
|     239 | 0x0132      |         306 |
|     240 | 0x0126      |         294 |
|     241 | 0x0155      |         341 |
|     242 | 0x0025      |          37 |
|     243 | 0x0029      |          41 |
|     244 | 0x007D      |         125 |
|     245 | 0x0079      |         121 |
|     246 | 0x007C      |         124 |
|     247 | 0x0074      |         116 |
|     248 | 0x00EC      |         236 |
|     249 | 0x019C      |         412 |
|     250 | 0x0193      |         403 |
|     251 | 0x01C6      |         454 |
|     252 | 0x01C7      |         455 |

## Events

### Event 65535

#### Metadata

| Field        | Value   |
|--------------|---------|
| Entrypoint   | 0x0000  |
| Data Size    | 1 bytes |
| Instructions | 1       |

```
      00 01 02 03 04 05 06 07  08 09 0A 0B 0C 0D 0E 0F
      -- -- -- -- -- -- -- --  -- -- -- -- -- -- -- --
0000: 00                                                .               
```

#### Opcodes

```
  0: 0x0000 [0x00] END_REQSTACK()
```

### Event 10000

#### Metadata

| Field        | Value   |
|--------------|---------|
| Entrypoint   | 0x0001  |
| Data Size    | 1 bytes |
| Instructions | 1       |

```
      00 01 02 03 04 05 06 07  08 09 0A 0B 0C 0D 0E 0F
      -- -- -- -- -- -- -- --  -- -- -- -- -- -- -- --
0000:    00                                              .              
```

#### Opcodes

```
  0: 0x0001 [0x00] END_REQSTACK()
```

### Event 65535.1

#### Metadata

| Field        | Value    |
|--------------|----------|
| Entrypoint   | 0x0002   |
| Data Size    | 23 bytes |
| Instructions | 5        |

```
      00 01 02 03 04 05 06 07  08 09 0A 0B 0C 0D 0E 0F
      -- -- -- -- -- -- -- --  -- -- -- -- -- -- -- --
0000:       2F 00 F8 FF FF 7F  37 00 80 01 80 02 80 03    /.....7.......
0010: 80 22 00 80 F8 FF FF 7F  00                       .".......       
```

#### Opcodes

```
  0: 0x0002 [0x2F] EventEntity->Render.Flags0 &= ~0x80000 // Bit 19
  1: 0x0008 [0x37] UPDATE_EVENT_POSITION_AND_DIR: x=170.888*, z=-198.686*, y=20.354*, direction=156.6°*
  2: 0x0011 [0x22] ENTITY_HIDE_FLAG(enabled=0x00)
  3: 0x0013 [0x80] LOAD_WAIT(entity=EventEntity)
  4: 0x0018 [0x00] END_REQSTACK()
```

### Event 65535.2

#### Metadata

| Field        | Value       |
|--------------|-------------|
| Entrypoint   | 0x0019      |
| Data Size    | 18537 bytes |
| Instructions | 4           |

```
      00 01 02 03 04 05 06 07  08 09 0A 0B 0C 0D 0E 0F
      -- -- -- -- -- -- -- --  -- -- -- -- -- -- -- --
0010:                             32 04 80 1F 00 05 80           2......
0020: 06 80 07 80 1F 01 00 03  02 00 08 80 1A 72 14 1A  .............r..
0030: 7C 14 02 0B 00 08 80 80  35 01 02 01 00 08 80 80  |.......5.......
0040: 59 00 B4 00 02 00 46 65  6C 69 7A 00 00 00 00 00  Y.....Feliz.....
0050: 00 00 00 00 00 00 01 32  01 02 01 00 09 80 80 78  .......2.......x
0060: 00 B4 00 02 00 46 65 72  64 69 6E 61 6E 64 00 00  .....Ferdinand..
0070: 00 00 00 00 00 01 32 01  02 01 00 0A 80 80 97 00  ......2.........
0080: B4 00 02 00 47 75 6E 6E  61 72 00 00 00 00 00 00  ....Gunnar......
0090: 00 00 00 00 01 32 01 02  01 00 0B 80 80 B6 00 B4  .....2..........
00A0: 00 02 00 4D 61 73 73 69  6D 6F 00 00 00 00 00 00  ...Massimo......
00B0: 00 00 00 01 32 01 02 01  00 0C 80 80 D5 00 B4 00  ....2...........
00C0: 02 00 4F 6C 64 72 69 63  68 00 00 00 00 00 00 00  ..Oldrich.......
00D0: 00 00 01 32 01 02 01 00  0D 80 80 F4 00 B4 00 02  ...2............
00E0: 00 53 69 65 67 77 61 72  64 00 00 00 00 00 00 00  .Siegward.......
00F0: 00 01 32 01 02 01 00 0E  80 80 13 01 B4 00 02 00  ..2.............
0100: 54 68 65 6F 62 61 6C 64  00 00 00 00 00 00 00 00  Theobald........
0110: 01 32 01 02 01 00 0F 80  80 32 01 B4 00 02 00 5A  .2.......2.....Z
0120: 65 6E 6A 69 00 00 00 00  00 00 00 00 00 00 00 01  enji............
0130: 32 01 01 4A 08 02 0B 00  09 80 80 38 02 02 01 00  2..J.......8....
0140: 08 80 80 5C 01 B4 00 02  00 41 6D 65 72 69 74 61  ...\.....Amerita
0150: 00 00 00 00 00 00 00 00  00 01 35 02 02 01 00 09  ..........5.....
0160: 80 80 7B 01 B4 00 02 00  42 65 61 74 72 69 63 65  ..{.....Beatrice
0170: 00 00 00 00 00 00 00 00  01 35 02 02 01 00 0A 80  .........5......
0180: 80 9A 01 B4 00 02 00 48  65 6E 72 69 65 74 74 61  .......Henrietta
0190: 00 00 00 00 00 00 00 01  35 02 02 01 00 0B 80 80  ........5.......
01A0: B9 01 B4 00 02 00 4A 65  73 69 6D 61 65 00 00 00  ......Jesimae...
01B0: 00 00 00 00 00 00 01 35  02 02 01 00 0C 80 80 D8  .......5........
01C0: 01 B4 00 02 00 4B 61 72  79 6E 00 00 00 00 00 00  .....Karyn......
01D0: 00 00 00 00 00 01 35 02  02 01 00 0D 80 80 F7 01  ......5.........
01E0: B4 00 02 00 4E 61 6E 61  6B 6F 00 00 00 00 00 00  ....Nanako......
01F0: 00 00 00 00 01 35 02 02  01 00 0E 80 80 16 02 B4  .....5..........
0200: 00 02 00 53 68 61 72 6C  65 6E 65 00 00 00 00 00  ...Sharlene.....
0210: 00 00 00 01 35 02 02 01  00 0F 80 80 35 02 B4 00  ....5.......5...
0220: 02 00 53 69 65 67 68 69  6C 64 65 00 00 00 00 00  ..Sieghilde.....
0230: 00 00 01 35 02 01 4A 08  02 0B 00 0A 80 80 3B 03  ...5..J.......;.
0240: 02 01 00 08 80 80 5F 02  B4 00 02 00 43 68 61 6E  ......_.....Chan
0250: 61 6E 64 69 74 00 00 00  00 00 00 00 01 38 03 02  andit........8..
0260: 01 00 09 80 80 7E 02 B4  00 02 00 44 65 75 6C 6D  .....~.....Deulm
0270: 61 65 75 78 00 00 00 00  00 00 00 01 38 03 02 01  aeux........8...
0280: 00 0A 80 80 9D 02 B4 00  02 00 44 65 6D 72 65 73  ..........Demres
0290: 69 6E 61 75 78 00 00 00  00 00 01 38 03 02 01 00  inaux......8....
02A0: 0B 80 80 BC 02 B4 00 02  00 45 70 68 65 61 6C 67  .........Ephealg
02B0: 61 75 78 00 00 00 00 00  00 01 38 03 02 01 00 0C  aux.......8.....
02C0: 80 80 DB 02 B4 00 02 00  47 61 75 6C 64 65 76 61  ........Gauldeva
02D0: 6C 00 00 00 00 00 00 00  01 38 03 02 01 00 0D 80  l........8......
02E0: 80 FA 02 B4 00 02 00 47  72 61 75 66 66 65 6D 61  .......Grauffema
02F0: 72 74 00 00 00 00 00 01  38 03 02 01 00 0E 80 80  rt......8.......
0300: 19 03 B4 00 02 00 4D 69  67 61 69 66 6F 6E 67 75  ......Migaifongu
0310: 74 00 00 00 00 00 01 38  03 02 01 00 0F 80 80 38  t......8.......8
0320: 03 B4 00 02 00 52 6F 6D  69 64 69 61 6E 74 00 00  .....Romidiant..
0330: 00 00 00 00 00 01 38 03  01 4A 08 02 0B 00 0B 80  ......8..J......
0340: 80 3E 04 02 01 00 08 80  80 62 03 B4 00 02 00 41  .>.......b.....A
0350: 72 6D 69 74 74 69 65 00  00 00 00 00 00 00 00 01  rmittie.........
0360: 3B 04 02 01 00 09 80 80  81 03 B4 00 02 00 43 61  ;.............Ca
0370: 64 65 70 75 72 65 00 00  00 00 00 00 00 00 01 3B  depure.........;
0380: 04 02 01 00 0A 80 80 A0  03 B4 00 02 00 43 6C 65  .............Cle
0390: 61 72 69 74 65 00 00 00  00 00 00 00 00 01 3B 04  arite.........;.
03A0: 02 01 00 0B 80 80 BF 03  B4 00 02 00 45 70 69 6C  ............Epil
03B0: 6C 65 76 65 00 00 00 00  00 00 00 00 01 3B 04 02  leve.........;..
03C0: 01 00 0C 80 80 DE 03 B4  00 02 00 4C 69 61 62 65  ...........Liabe
03D0: 6C 6C 65 00 00 00 00 00  00 00 00 01 3B 04 02 01  lle.........;...
03E0: 00 0D 80 80 FD 03 B4 00  02 00 4E 61 75 74 68 69  ..........Nauthi
03F0: 6D 61 00 00 00 00 00 00  00 00 01 3B 04 02 01 00  ma.........;....
0400: 0E 80 80 1C 04 B4 00 02  00 52 61 64 69 6C 6C 65  .........Radille
0410: 00 00 00 00 00 00 00 00  00 01 3B 04 02 01 00 0F  ..........;.....
0420: 80 80 3B 04 B4 00 02 00  56 69 6D 65 63 68 75 65  ..;.....Vimechue
0430: 00 00 00 00 00 00 00 00  01 3B 04 01 4A 08 02 0B  .........;..J...
0440: 00 0C 80 80 41 05 02 01  00 08 80 80 65 04 B4 00  ....A.......e...
0450: 02 00 42 61 6C 75 2D 46  61 6C 75 00 00 00 00 00  ..Balu-Falu.....
0460: 00 00 01 3E 05 02 01 00  09 80 80 84 04 B4 00 02  ...>............
0470: 00 42 75 72 67 2D 4C 61  64 61 72 67 00 00 00 00  .Burg-Ladarg....
0480: 00 01 3E 05 02 01 00 0A  80 80 A3 04 B4 00 02 00  ..>.............
0490: 45 68 67 6F 2D 52 79 75  68 67 6F 00 00 00 00 00  Ehgo-Ryuhgo.....
04A0: 01 3E 05 02 01 00 0B 80  80 C2 04 B4 00 02 00 4B  .>.............K
04B0: 6F 6C 75 69 2D 50 65 6C  75 69 00 00 00 00 00 01  olui-Pelui......
04C0: 3E 05 02 01 00 0C 80 80  E1 04 B4 00 02 00 4E 6F  >.............No
04D0: 6B 75 6D 2D 41 6B 6B 75  6D 00 00 00 00 00 01 3E  kum-Akkum......>
04E0: 05 02 01 00 0D 80 80 00  05 B4 00 02 00 53 61 76  .............Sav
04F0: 75 6C 2D 4B 69 76 75 6C  00 00 00 00 00 01 3E 05  ul-Kivul......>.
0500: 02 01 00 0E 80 80 1F 05  B4 00 02 00 56 69 6E 6A  ............Vinj
0510: 61 2D 4B 61 6E 6A 61 00  00 00 00 00 01 3E 05 02  a-Kanja......>..
0520: 01 00 0F 80 80 3E 05 B4  00 02 00 59 61 72 67 61  .....>.....Yarga
0530: 2D 55 6D 69 67 61 00 00  00 00 00 01 3E 05 01 4A  -Umiga......>..J
0540: 08 02 0B 00 0D 80 80 44  06 02 01 00 08 80 80 68  .......D.......h
0550: 05 B4 00 02 00 43 75 70  61 70 61 00 00 00 00 00  .....Cupapa.....
0560: 00 00 00 00 00 01 41 06  02 01 00 09 80 80 87 05  ......A.........
0570: B4 00 02 00 4A 61 6A 75  6A 75 00 00 00 00 00 00  ....Jajuju......
0580: 00 00 00 00 01 41 06 02  01 00 0A 80 80 A6 05 B4  .....A..........
0590: 00 02 00 4B 61 6C 6F 6B  6F 6B 6F 00 00 00 00 00  ...Kalokoko.....
05A0: 00 00 00 01 41 06 02 01  00 0B 80 80 C5 05 B4 00  ....A...........
05B0: 02 00 4D 61 68 6F 79 61  79 61 00 00 00 00 00 00  ..Mahoyaya......
05C0: 00 00 01 41 06 02 01 00  0C 80 80 E4 05 B4 00 02  ...A............
05D0: 00 50 61 6B 75 72 61 72  61 00 00 00 00 00 00 00  .Pakurara.......
05E0: 00 01 41 06 02 01 00 0D  80 80 03 06 B4 00 02 00  ..A.............
05F0: 52 69 70 6F 6B 65 6B 65  00 00 00 00 00 00 00 00  Ripokeke........
0600: 01 41 06 02 01 00 0E 80  80 22 06 B4 00 02 00 59  .A.......".....Y
0610: 61 77 61 77 61 00 00 00  00 00 00 00 00 00 00 01  awawa...........
0620: 41 06 02 01 00 0F 80 80  41 06 B4 00 02 00 59 75  A.......A.....Yu
0630: 66 61 66 61 00 00 00 00  00 00 00 00 00 00 01 41  fafa...........A
0640: 06 01 4A 08 02 0B 00 0E  80 80 47 07 02 01 00 08  ..J.......G.....
0650: 80 80 6B 06 B4 00 02 00  46 68 69 67 00 00 00 00  ..k.....Fhig....
0660: 00 00 00 00 00 00 00 00  01 44 07 02 01 00 09 80  .........D......
0670: 80 8A 06 B4 00 02 00 4B  68 75 6D 61 00 00 00 00  .......Khuma....
0680: 00 00 00 00 00 00 00 01  44 07 02 01 00 0A 80 80  ........D.......
0690: A9 06 B4 00 02 00 50 69  6D 79 00 00 00 00 00 00  ......Pimy......
06A0: 00 00 00 00 00 00 01 44  07 02 01 00 0B 80 80 C8  .......D........
06B0: 06 B4 00 02 00 52 61 6B  61 00 00 00 00 00 00 00  .....Raka.......
06C0: 00 00 00 00 00 01 44 07  02 01 00 0C 80 80 E7 06  ......D.........
06D0: B4 00 02 00 53 61 68 79  75 00 00 00 00 00 00 00  ....Sahyu.......
06E0: 00 00 00 00 01 44 07 02  01 00 0D 80 80 06 07 B4  .....D..........
06F0: 00 02 00 53 75 66 68 69  00 00 00 00 00 00 00 00  ...Sufhi........
0700: 00 00 00 01 44 07 02 01  00 0E 80 80 25 07 B4 00  ....D.......%...
0710: 02 00 54 73 75 69 6D 00  00 00 00 00 00 00 00 00  ..Tsuim.........
0720: 00 00 01 44 07 02 01 00  0F 80 80 44 07 B4 00 02  ...D.......D....
0730: 00 59 6F 6C 69 00 00 00  00 00 00 00 00 00 00 00  .Yoli...........
0740: 00 01 44 07 01 4A 08 02  0B 00 0F 80 80 4A 08 02  ..D..J.......J..
0750: 01 00 08 80 80 6E 07 B4  00 02 00 44 75 72 69 62  .....n.....Durib
0760: 00 00 00 00 00 00 00 00  00 00 00 01 47 08 02 01  ............G...
0770: 00 09 80 80 8D 07 B4 00  02 00 44 7A 61 70 69 77  ..........Dzapiw
0780: 61 00 00 00 00 00 00 00  00 00 01 47 08 02 01 00  a..........G....
0790: 0A 80 80 AC 07 B4 00 02  00 4A 75 67 6F 77 61 00  .........Jugowa.
07A0: 00 00 00 00 00 00 00 00  00 01 47 08 02 01 00 0B  ..........G.....
07B0: 80 80 CB 07 B4 00 02 00  4D 75 67 69 64 6F 00 00  ........Mugido..
07C0: 00 00 00 00 00 00 00 00  01 47 08 02 01 00 0C 80  .........G......
07D0: 80 EA 07 B4 00 02 00 56  6F 6C 64 61 69 00 00 00  .......Voldai...
07E0: 00 00 00 00 00 00 00 01  47 08 02 01 00 0D 80 80  ........G.......
07F0: 09 08 B4 00 02 00 57 61  67 77 65 69 00 00 00 00  ......Wagwei....
0800: 00 00 00 00 00 00 01 47  08 02 01 00 0E 80 80 28  .......G.......(
0810: 08 B4 00 02 00 5A 61 79  61 67 00 00 00 00 00 00  .....Zayag......
0820: 00 00 00 00 00 01 47 08  02 01 00 0F 80 80 47 08  ......G.......G.
0830: B4 00 02 00 5A 6F 6C 64  6F 66 00 00 00 00 00 00  ....Zoldof......
0840: 00 00 00 00 01 47 08 01  4A 08 02 02 00 08 80 01  .....G..J.......
0850: 56 08 B5 00 02 00 1B 03  02 00 08 80 1A 72 14 1A  V............r..
0860: 7C 14 02 0B 00 08 80 80  65 09 02 01 00 08 80 80  |.......e.......
0870: 89 08 B4 00 02 00 46 65  6C 69 7A 00 00 00 00 00  ......Feliz.....
0880: 00 00 00 00 00 00 01 62  09 02 01 00 09 80 80 A8  .......b........
0890: 08 B4 00 02 00 46 65 72  64 69 6E 61 6E 64 00 00  .....Ferdinand..
08A0: 00 00 00 00 00 01 62 09  02 01 00 0A 80 80 C7 08  ......b.........
08B0: B4 00 02 00 47 75 6E 6E  61 72 00 00 00 00 00 00  ....Gunnar......
08C0: 00 00 00 00 01 62 09 02  01 00 0B 80 80 E6 08 B4  .....b..........
08D0: 00 02 00 4D 61 73 73 69  6D 6F 00 00 00 00 00 00  ...Massimo......
08E0: 00 00 00 01 62 09 02 01  00 0C 80 80 05 09 B4 00  ....b...........
08F0: 02 00 4F 6C 64 72 69 63  68 00 00 00 00 00 00 00  ..Oldrich.......
0900: 00 00 01 62 09 02 01 00  0D 80 80 24 09 B4 00 02  ...b.......$....
0910: 00 53 69 65 67 77 61 72  64 00 00 00 00 00 00 00  .Siegward.......
0920: 00 01 62 09 02 01 00 0E  80 80 43 09 B4 00 02 00  ..b.......C.....
0930: 54 68 65 6F 62 61 6C 64  00 00 00 00 00 00 00 00  Theobald........
0940: 01 62 09 02 01 00 0F 80  80 62 09 B4 00 02 00 5A  .b.......b.....Z
0950: 65 6E 6A 69 00 00 00 00  00 00 00 00 00 00 00 01  enji............
0960: 62 09 01 7A 10 02 0B 00  09 80 80 68 0A 02 01 00  b..z.......h....
0970: 08 80 80 8C 09 B4 00 02  00 41 6D 65 72 69 74 61  .........Amerita
0980: 00 00 00 00 00 00 00 00  00 01 65 0A 02 01 00 09  ..........e.....
0990: 80 80 AB 09 B4 00 02 00  42 65 61 74 72 69 63 65  ........Beatrice
09A0: 00 00 00 00 00 00 00 00  01 65 0A 02 01 00 0A 80  .........e......
09B0: 80 CA 09 B4 00 02 00 48  65 6E 72 69 65 74 74 61  .......Henrietta
09C0: 00 00 00 00 00 00 00 01  65 0A 02 01 00 0B 80 80  ........e.......
09D0: E9 09 B4 00 02 00 4A 65  73 69 6D 61 65 00 00 00  ......Jesimae...
09E0: 00 00 00 00 00 00 01 65  0A 02 01 00 0C 80 80 08  .......e........
09F0: 0A B4 00 02 00 4B 61 72  79 6E 00 00 00 00 00 00  .....Karyn......
0A00: 00 00 00 00 00 01 65 0A  02 01 00 0D 80 80 27 0A  ......e.......'.
0A10: B4 00 02 00 4E 61 6E 61  6B 6F 00 00 00 00 00 00  ....Nanako......
0A20: 00 00 00 00 01 65 0A 02  01 00 0E 80 80 46 0A B4  .....e.......F..
0A30: 00 02 00 53 68 61 72 6C  65 6E 65 00 00 00 00 00  ...Sharlene.....
0A40: 00 00 00 01 65 0A 02 01  00 0F 80 80 65 0A B4 00  ....e.......e...
0A50: 02 00 53 69 65 67 68 69  6C 64 65 00 00 00 00 00  ..Sieghilde.....
0A60: 00 00 01 65 0A 01 7A 10  02 0B 00 0A 80 80 6B 0B  ...e..z.......k.
0A70: 02 01 00 08 80 80 8F 0A  B4 00 02 00 43 68 61 6E  ............Chan
0A80: 61 6E 64 69 74 00 00 00  00 00 00 00 01 68 0B 02  andit........h..
0A90: 01 00 09 80 80 AE 0A B4  00 02 00 44 65 75 6C 6D  ...........Deulm
0AA0: 61 65 75 78 00 00 00 00  00 00 00 01 68 0B 02 01  aeux........h...
0AB0: 00 0A 80 80 CD 0A B4 00  02 00 44 65 6D 72 65 73  ..........Demres
0AC0: 69 6E 61 75 78 00 00 00  00 00 01 68 0B 02 01 00  inaux......h....
0AD0: 0B 80 80 EC 0A B4 00 02  00 45 70 68 65 61 6C 67  .........Ephealg
0AE0: 61 75 78 00 00 00 00 00  00 01 68 0B 02 01 00 0C  aux.......h.....
0AF0: 80 80 0B 0B B4 00 02 00  47 61 75 6C 64 65 76 61  ........Gauldeva
0B00: 6C 00 00 00 00 00 00 00  01 68 0B 02 01 00 0D 80  l........h......
0B10: 80 2A 0B B4 00 02 00 47  72 61 75 66 66 65 6D 61  .*.....Grauffema
0B20: 72 74 00 00 00 00 00 01  68 0B 02 01 00 0E 80 80  rt......h.......
0B30: 49 0B B4 00 02 00 4D 69  67 61 69 66 6F 6E 67 75  I.....Migaifongu
0B40: 74 00 00 00 00 00 01 68  0B 02 01 00 0F 80 80 68  t......h.......h
0B50: 0B B4 00 02 00 52 6F 6D  69 64 69 61 6E 74 00 00  .....Romidiant..
0B60: 00 00 00 00 00 01 68 0B  01 7A 10 02 0B 00 0B 80  ......h..z......
0B70: 80 6E 0C 02 01 00 08 80  80 92 0B B4 00 02 00 41  .n.............A
0B80: 72 6D 69 74 74 69 65 00  00 00 00 00 00 00 00 01  rmittie.........
0B90: 6B 0C 02 01 00 09 80 80  B1 0B B4 00 02 00 43 61  k.............Ca
0BA0: 64 65 70 75 72 65 00 00  00 00 00 00 00 00 01 6B  depure.........k
0BB0: 0C 02 01 00 0A 80 80 D0  0B B4 00 02 00 43 6C 65  .............Cle
0BC0: 61 72 69 74 65 00 00 00  00 00 00 00 00 01 6B 0C  arite.........k.
0BD0: 02 01 00 0B 80 80 EF 0B  B4 00 02 00 45 70 69 6C  ............Epil
0BE0: 6C 65 76 65 00 00 00 00  00 00 00 00 01 6B 0C 02  leve.........k..
0BF0: 01 00 0C 80 80 0E 0C B4  00 02 00 4C 69 61 62 65  ...........Liabe
0C00: 6C 6C 65 00 00 00 00 00  00 00 00 01 6B 0C 02 01  lle.........k...
0C10: 00 0D 80 80 2D 0C B4 00  02 00 4E 61 75 74 68 69  ....-.....Nauthi
0C20: 6D 61 00 00 00 00 00 00  00 00 01 6B 0C 02 01 00  ma.........k....
0C30: 0E 80 80 4C 0C B4 00 02  00 52 61 64 69 6C 6C 65  ...L.....Radille
0C40: 00 00 00 00 00 00 00 00  00 01 6B 0C 02 01 00 0F  ..........k.....
0C50: 80 80 6B 0C B4 00 02 00  56 69 6D 65 63 68 75 65  ..k.....Vimechue
0C60: 00 00 00 00 00 00 00 00  01 6B 0C 01 7A 10 02 0B  .........k..z...
0C70: 00 0C 80 80 71 0D 02 01  00 08 80 80 95 0C B4 00  ....q...........
0C80: 02 00 42 61 6C 75 2D 46  61 6C 75 00 00 00 00 00  ..Balu-Falu.....
0C90: 00 00 01 6E 0D 02 01 00  09 80 80 B4 0C B4 00 02  ...n............
0CA0: 00 42 75 72 67 2D 4C 61  64 61 72 67 00 00 00 00  .Burg-Ladarg....
0CB0: 00 01 6E 0D 02 01 00 0A  80 80 D3 0C B4 00 02 00  ..n.............
0CC0: 45 68 67 6F 2D 52 79 75  68 67 6F 00 00 00 00 00  Ehgo-Ryuhgo.....
0CD0: 01 6E 0D 02 01 00 0B 80  80 F2 0C B4 00 02 00 4B  .n.............K
0CE0: 6F 6C 75 69 2D 50 65 6C  75 69 00 00 00 00 00 01  olui-Pelui......
0CF0: 6E 0D 02 01 00 0C 80 80  11 0D B4 00 02 00 4E 6F  n.............No
0D00: 6B 75 6D 2D 41 6B 6B 75  6D 00 00 00 00 00 01 6E  kum-Akkum......n
0D10: 0D 02 01 00 0D 80 80 30  0D B4 00 02 00 53 61 76  .......0.....Sav
0D20: 75 6C 2D 4B 69 76 75 6C  00 00 00 00 00 01 6E 0D  ul-Kivul......n.
0D30: 02 01 00 0E 80 80 4F 0D  B4 00 02 00 56 69 6E 6A  ......O.....Vinj
0D40: 61 2D 4B 61 6E 6A 61 00  00 00 00 00 01 6E 0D 02  a-Kanja......n..
0D50: 01 00 0F 80 80 6E 0D B4  00 02 00 59 61 72 67 61  .....n.....Yarga
0D60: 2D 55 6D 69 67 61 00 00  00 00 00 01 6E 0D 01 7A  -Umiga......n..z
0D70: 10 02 0B 00 0D 80 80 74  0E 02 01 00 08 80 80 98  .......t........
0D80: 0D B4 00 02 00 43 75 70  61 70 61 00 00 00 00 00  .....Cupapa.....
0D90: 00 00 00 00 00 01 71 0E  02 01 00 09 80 80 B7 0D  ......q.........
0DA0: B4 00 02 00 4A 61 6A 75  6A 75 00 00 00 00 00 00  ....Jajuju......
0DB0: 00 00 00 00 01 71 0E 02  01 00 0A 80 80 D6 0D B4  .....q..........
0DC0: 00 02 00 4B 61 6C 6F 6B  6F 6B 6F 00 00 00 00 00  ...Kalokoko.....
0DD0: 00 00 00 01 71 0E 02 01  00 0B 80 80 F5 0D B4 00  ....q...........
0DE0: 02 00 4D 61 68 6F 79 61  79 61 00 00 00 00 00 00  ..Mahoyaya......
0DF0: 00 00 01 71 0E 02 01 00  0C 80 80 14 0E B4 00 02  ...q............
0E00: 00 50 61 6B 75 72 61 72  61 00 00 00 00 00 00 00  .Pakurara.......
0E10: 00 01 71 0E 02 01 00 0D  80 80 33 0E B4 00 02 00  ..q.......3.....
0E20: 52 69 70 6F 6B 65 6B 65  00 00 00 00 00 00 00 00  Ripokeke........
0E30: 01 71 0E 02 01 00 0E 80  80 52 0E B4 00 02 00 59  .q.......R.....Y
0E40: 61 77 61 77 61 00 00 00  00 00 00 00 00 00 00 01  awawa...........
0E50: 71 0E 02 01 00 0F 80 80  71 0E B4 00 02 00 59 75  q.......q.....Yu
0E60: 66 61 66 61 00 00 00 00  00 00 00 00 00 00 01 71  fafa...........q
0E70: 0E 01 7A 10 02 0B 00 0E  80 80 77 0F 02 01 00 08  ..z.......w.....
0E80: 80 80 9B 0E B4 00 02 00  46 68 69 67 00 00 00 00  ........Fhig....
0E90: 00 00 00 00 00 00 00 00  01 74 0F 02 01 00 09 80  .........t......
0EA0: 80 BA 0E B4 00 02 00 4B  68 75 6D 61 00 00 00 00  .......Khuma....
0EB0: 00 00 00 00 00 00 00 01  74 0F 02 01 00 0A 80 80  ........t.......
0EC0: D9 0E B4 00 02 00 50 69  6D 79 00 00 00 00 00 00  ......Pimy......
0ED0: 00 00 00 00 00 00 01 74  0F 02 01 00 0B 80 80 F8  .......t........
0EE0: 0E B4 00 02 00 52 61 6B  61 00 00 00 00 00 00 00  .....Raka.......
0EF0: 00 00 00 00 00 01 74 0F  02 01 00 0C 80 80 17 0F  ......t.........
0F00: B4 00 02 00 53 61 68 79  75 00 00 00 00 00 00 00  ....Sahyu.......
0F10: 00 00 00 00 01 74 0F 02  01 00 0D 80 80 36 0F B4  .....t.......6..
0F20: 00 02 00 53 75 66 68 69  00 00 00 00 00 00 00 00  ...Sufhi........
0F30: 00 00 00 01 74 0F 02 01  00 0E 80 80 55 0F B4 00  ....t.......U...
0F40: 02 00 54 73 75 69 6D 00  00 00 00 00 00 00 00 00  ..Tsuim.........
0F50: 00 00 01 74 0F 02 01 00  0F 80 80 74 0F B4 00 02  ...t.......t....
0F60: 00 59 6F 6C 69 00 00 00  00 00 00 00 00 00 00 00  .Yoli...........
0F70: 00 01 74 0F 01 7A 10 02  0B 00 0F 80 80 7A 10 02  ..t..z.......z..
0F80: 01 00 08 80 80 9E 0F B4  00 02 00 44 75 72 69 62  ...........Durib
0F90: 00 00 00 00 00 00 00 00  00 00 00 01 77 10 02 01  ............w...
0FA0: 00 09 80 80 BD 0F B4 00  02 00 44 7A 61 70 69 77  ..........Dzapiw
0FB0: 61 00 00 00 00 00 00 00  00 00 01 77 10 02 01 00  a..........w....
0FC0: 0A 80 80 DC 0F B4 00 02  00 4A 75 67 6F 77 61 00  .........Jugowa.
0FD0: 00 00 00 00 00 00 00 00  00 01 77 10 02 01 00 0B  ..........w.....
0FE0: 80 80 FB 0F B4 00 02 00  4D 75 67 69 64 6F 00 00  ........Mugido..
0FF0: 00 00 00 00 00 00 00 00  01 77 10 02 01 00 0C 80  .........w......
1000: 80 1A 10 B4 00 02 00 56  6F 6C 64 61 69 00 00 00  .......Voldai...
1010: 00 00 00 00 00 00 00 01  77 10 02 01 00 0D 80 80  ........w.......
1020: 39 10 B4 00 02 00 57 61  67 77 65 69 00 00 00 00  9.....Wagwei....
1030: 00 00 00 00 00 00 01 77  10 02 01 00 0E 80 80 58  .......w.......X
1040: 10 B4 00 02 00 5A 61 79  61 67 00 00 00 00 00 00  .....Zayag......
1050: 00 00 00 00 00 01 77 10  02 01 00 0F 80 80 77 10  ......w.......w.
1060: B4 00 02 00 5A 6F 6C 64  6F 66 00 00 00 00 00 00  ....Zoldof......
1070: 00 00 00 00 01 77 10 01  7A 10 02 02 00 08 80 01  .....w..z.......
1080: 86 10 B5 00 02 00 1B 1A  4D 14 02 09 00 08 80 02  ........M.......
1090: 52 12 02 0B 00 08 80 80  CA 10 02 09 00 09 80 80  R...............
10A0: A9 10 B6 0F 10 80 01 C7  10 02 09 00 0A 80 80 B8  ................
10B0: 10 B6 0F 11 80 01 C7 10  02 09 00 0B 80 80 C7 10  ................
10C0: B6 0F 12 80 01 C7 10 01  52 12 02 0B 00 09 80 80  ........R.......
10D0: 02 11 02 09 00 09 80 80  E1 10 B6 0F 10 80 01 FF  ................
10E0: 10 02 09 00 0A 80 80 F0  10 B6 0F 11 80 01 FF 10  ................
10F0: 02 09 00 0B 80 80 FF 10  B6 0F 12 80 01 FF 10 01  ................
1100: 52 12 02 0B 00 0A 80 80  3A 11 02 09 00 09 80 80  R.......:.......
1110: 19 11 B6 0F 10 80 01 37  11 02 09 00 0A 80 80 28  .......7.......(
1120: 11 B6 0F 11 80 01 37 11  02 09 00 0B 80 80 37 11  ......7.......7.
1130: B6 0F 12 80 01 37 11 01  52 12 02 0B 00 0B 80 80  .....7..R.......
1140: 72 11 02 09 00 09 80 80  51 11 B6 0F 10 80 01 6F  r.......Q......o
1150: 11 02 09 00 0A 80 80 60  11 B6 0F 11 80 01 6F 11  .......`......o.
1160: 02 09 00 0B 80 80 6F 11  B6 0F 12 80 01 6F 11 01  ......o......o..
1170: 52 12 02 0B 00 0C 80 80  AA 11 02 09 00 09 80 80  R...............
1180: 89 11 B6 0F 13 80 01 A7  11 02 09 00 0A 80 80 98  ................
1190: 11 B6 0F 14 80 01 A7 11  02 09 00 0B 80 80 A7 11  ................
11A0: B6 0F 15 80 01 A7 11 01  52 12 02 0B 00 0D 80 80  ........R.......
11B0: E2 11 02 09 00 09 80 80  C1 11 B6 0F 13 80 01 DF  ................
11C0: 11 02 09 00 0A 80 80 D0  11 B6 0F 14 80 01 DF 11  ................
11D0: 02 09 00 0B 80 80 DF 11  B6 0F 15 80 01 DF 11 01  ................
11E0: 52 12 02 0B 00 0E 80 80  1A 12 02 09 00 09 80 80  R...............
11F0: F9 11 B6 0F 16 80 01 17  12 02 09 00 0A 80 80 08  ................
1200: 12 B6 0F 17 80 01 17 12  02 09 00 0B 80 80 17 12  ................
1210: B6 0F 18 80 01 17 12 01  52 12 02 0B 00 0F 80 80  ........R.......
1220: 52 12 02 09 00 09 80 80  31 12 B6 0F 15 80 01 4F  R.......1......O
1230: 12 02 09 00 0A 80 80 40  12 B6 0F 19 80 01 4F 12  .......@......O.
1240: 02 09 00 0B 80 80 4F 12  B6 0F 11 80 01 4F 12 01  ......O......O..
1250: 52 12 0B 0B 00 B6 0B 0B  00 0C 00 0D 00 0E 00 0F  R...............
1260: 00 10 00 11 00 08 80 08  80 1B 1A 4D 14 02 09 00  ...........M....
1270: 08 80 02 35 14 02 0B 00  08 80 80 AD 12 02 09 00  ...5............
1280: 09 80 80 8C 12 B6 0F 10  80 01 AA 12 02 09 00 0A  ................
1290: 80 80 9B 12 B6 0F 11 80  01 AA 12 02 09 00 0B 80  ................
12A0: 80 AA 12 B6 0F 12 80 01  AA 12 01 35 14 02 0B 00  ...........5....
12B0: 09 80 80 E5 12 02 09 00  09 80 80 C4 12 B6 0F 10  ................
12C0: 80 01 E2 12 02 09 00 0A  80 80 D3 12 B6 0F 11 80  ................
12D0: 01 E2 12 02 09 00 0B 80  80 E2 12 B6 0F 12 80 01  ................
12E0: E2 12 01 35 14 02 0B 00  0A 80 80 1D 13 02 09 00  ...5............
12F0: 09 80 80 FC 12 B6 0F 10  80 01 1A 13 02 09 00 0A  ................
1300: 80 80 0B 13 B6 0F 11 80  01 1A 13 02 09 00 0B 80  ................
1310: 80 1A 13 B6 0F 12 80 01  1A 13 01 35 14 02 0B 00  ...........5....
1320: 0B 80 80 55 13 02 09 00  09 80 80 34 13 B6 0F 10  ...U.......4....
1330: 80 01 52 13 02 09 00 0A  80 80 43 13 B6 0F 11 80  ..R.......C.....
1340: 01 52 13 02 09 00 0B 80  80 52 13 B6 0F 12 80 01  .R.......R......
1350: 52 13 01 35 14 02 0B 00  0C 80 80 8D 13 02 09 00  R..5............
1360: 09 80 80 6C 13 B6 0F 13  80 01 8A 13 02 09 00 0A  ...l............
1370: 80 80 7B 13 B6 0F 14 80  01 8A 13 02 09 00 0B 80  ..{.............
1380: 80 8A 13 B6 0F 15 80 01  8A 13 01 35 14 02 0B 00  ...........5....
1390: 0D 80 80 C5 13 02 09 00  09 80 80 A4 13 B6 0F 13  ................
13A0: 80 01 C2 13 02 09 00 0A  80 80 B3 13 B6 0F 14 80  ................
13B0: 01 C2 13 02 09 00 0B 80  80 C2 13 B6 0F 15 80 01  ................
13C0: C2 13 01 35 14 02 0B 00  0E 80 80 FD 13 02 09 00  ...5............
13D0: 09 80 80 DC 13 B6 0F 16  80 01 FA 13 02 09 00 0A  ................
13E0: 80 80 EB 13 B6 0F 17 80  01 FA 13 02 09 00 0B 80  ................
13F0: 80 FA 13 B6 0F 18 80 01  FA 13 01 35 14 02 0B 00  ...........5....
1400: 0F 80 80 35 14 02 09 00  09 80 80 14 14 B6 0F 15  ...5............
1410: 80 01 32 14 02 09 00 0A  80 80 23 14 B6 0F 19 80  ..2.......#.....
1420: 01 32 14 02 09 00 0B 80  80 32 14 B6 0F 11 80 01  .2.......2......
1430: 32 14 01 35 14 0B 0B 00  B6 0B 0B 00 0C 00 0D 00  2..5............
1440: 0E 00 0F 00 10 00 11 00  12 00 13 00 1B 1A 7C 14  ..............|.
1450: 1A 71 15 1A 67 15 1A C8  19 1A DD 19 1A FD 19 1A  .q..g...........
1460: 1D 1A 1A 3D 1A 1A 6A 19  1A 8A 19 1A 5D 1A 1A 85  ...=..j.....]...
1470: 1A 1B 41 08 80 0B 80 09  10 01 00 1B 41 0C 80 0E  ..A.........A...
1480: 80 09 10 0B 00 03 1E 17  08 80 02 0B 00 08 80 80  ................
1490: 9A 14 03 1F 17 08 80 01  0A 15 02 0B 00 09 80 80  ................
14A0: AA 14 03 1F 17 09 80 01  0A 15 02 0B 00 0A 80 80  ................
14B0: BA 14 03 1F 17 08 80 01  0A 15 02 0B 00 0B 80 80  ................
14C0: CA 14 03 1F 17 09 80 01  0A 15 02 0B 00 0C 80 80  ................
14D0: DA 14 03 1F 17 08 80 01  0A 15 02 0B 00 0D 80 80  ................
14E0: EA 14 03 1F 17 09 80 01  0A 15 02 0B 00 0E 80 80  ................
14F0: FA 14 03 1F 17 09 80 01  0A 15 02 0B 00 0F 80 80  ................
1500: 0A 15 03 1F 17 08 80 01  0A 15 02 1F 17 09 80 00  ................
1510: 52 15 02 87 7F 0A 80 80  22 15 03 1E 17 09 80 01  R.......".......
1520: 52 15 02 87 7F 0C 80 80  32 15 03 1E 17 09 80 01  R.......2.......
1530: 52 15 02 87 7F 0E 80 80  42 15 03 1E 17 09 80 01  R.......B.......
1540: 52 15 02 87 7F 0F 80 80  52 15 03 1E 17 09 80 01  R.......R.......
1550: 52 15 1B 41 1A 80 1B 80  09 10 06 00 1B 41 1C 80  R..A.........A..
1560: 1D 80 09 10 08 00 1B 41  1E 80 1F 80 09 10 09 00  .......A........
1570: 1B 1A 7C 14 1A 53 15 02  06 00 08 80 00 8B 15 41  ..|..S.........A
1580: 20 80 21 80 09 10 0C 00  01 CB 18 02 0B 00 08 80   .!.............
1590: 80 F3 15 02 06 00 09 80  80 B2 15 3E 09 10 0F 80  ...........>....
15A0: AA 15 03 0C 00 1D 80 01  AF 15 03 0C 00 22 80 01  ............."..
15B0: F0 15 02 06 00 0A 80 80  D1 15 3E 09 10 0F 80 C9  ..........>.....
15C0: 15 03 0C 00 0D 80 01 CE  15 03 0C 00 0C 80 01 F0  ................
15D0: 15 02 06 00 0B 80 80 F0  15 3E 09 10 0F 80 E8 15  .........>......
15E0: 03 0C 00 09 80 01 ED 15  03 0C 00 08 80 01 F0 15  ................
15F0: 01 CB 18 02 0B 00 09 80  80 5B 16 02 06 00 09 80  .........[......
1600: 80 1A 16 3E 09 10 0F 80  12 16 03 0C 00 09 80 01  ...>............
1610: 17 16 03 0C 00 08 80 01  58 16 02 06 00 0A 80 80  ........X.......
1620: 39 16 3E 09 10 0F 80 31  16 03 0C 00 0D 80 01 36  9.>....1.......6
1630: 16 03 0C 00 0C 80 01 58  16 02 06 00 0B 80 80 58  .......X.......X
1640: 16 3E 09 10 0F 80 50 16  03 0C 00 0B 80 01 55 16  .>....P.......U.
1650: 03 0C 00 0A 80 01 58 16  01 CB 18 02 0B 00 0A 80  ......X.........
1660: 80 C3 16 02 06 00 09 80  80 82 16 3E 09 10 0F 80  ...........>....
1670: 7A 16 03 0C 00 0B 80 01  7F 16 03 0C 00 0A 80 01  z...............
1680: C0 16 02 06 00 0A 80 80  A1 16 3E 09 10 0F 80 99  ..........>.....
1690: 16 03 0C 00 23 80 01 9E  16 03 0C 00 24 80 01 C0  ....#.......$...
16A0: 16 02 06 00 0B 80 80 C0  16 3E 09 10 0F 80 B8 16  .........>......
16B0: 03 0C 00 1D 80 01 BD 16  03 0C 00 22 80 01 C0 16  ..........."....
16C0: 01 CB 18 02 0B 00 0B 80  80 2B 17 02 06 00 09 80  .........+......
16D0: 80 EA 16 3E 09 10 0F 80  E2 16 03 0C 00 09 80 01  ...>............
16E0: E7 16 03 0C 00 08 80 01  28 17 02 06 00 0A 80 80  ........(.......
16F0: 09 17 3E 09 10 0F 80 01  17 03 0C 00 25 80 01 06  ..>.........%...
1700: 17 03 0C 00 1C 80 01 28  17 02 06 00 0B 80 80 28  .......(.......(
1710: 17 3E 09 10 0F 80 20 17  03 0C 00 0F 80 01 25 17  .>.... .......%.
1720: 03 0C 00 0E 80 01 28 17  01 CB 18 02 0B 00 0C 80  ......(.........
1730: 80 93 17 02 06 00 09 80  80 52 17 3E 09 10 0F 80  .........R.>....
1740: 4A 17 03 0C 00 0D 80 01  4F 17 03 0C 00 0C 80 01  J.......O.......
1750: 90 17 02 06 00 0A 80 80  71 17 3E 09 10 0F 80 69  ........q.>....i
1760: 17 03 0C 00 0B 80 01 6E  17 03 0C 00 0A 80 01 90  .......n........
1770: 17 02 06 00 0B 80 80 90  17 3E 09 10 0F 80 88 17  .........>......
1780: 03 0C 00 0F 80 01 8D 17  03 0C 00 0E 80 01 90 17  ................
1790: 01 CB 18 02 0B 00 0D 80  80 FB 17 02 06 00 09 80  ................
17A0: 80 BA 17 3E 09 10 0F 80  B2 17 03 0C 00 0B 80 01  ...>............
17B0: B7 17 03 0C 00 0A 80 01  F8 17 02 06 00 0A 80 80  ................
17C0: D9 17 3E 09 10 0F 80 D1  17 03 0C 00 0F 80 01 D6  ..>.............
17D0: 17 03 0C 00 0E 80 01 F8  17 02 06 00 0B 80 80 F8  ................
17E0: 17 3E 09 10 0F 80 F0 17  03 0C 00 09 80 01 F5 17  .>..............
17F0: 03 0C 00 08 80 01 F8 17  01 CB 18 02 0B 00 0E 80  ................
1800: 80 63 18 02 06 00 09 80  80 22 18 3E 09 10 0F 80  .c.......".>....
1810: 1A 18 03 0C 00 1B 80 01  1F 18 03 0C 00 1A 80 01  ................
1820: 60 18 02 06 00 0A 80 80  41 18 3E 09 10 0F 80 39  `.......A.>....9
1830: 18 03 0C 00 25 80 01 3E  18 03 0C 00 1C 80 01 60  ....%..>.......`
1840: 18 02 06 00 0B 80 80 60  18 3E 09 10 0F 80 58 18  .......`.>....X.
1850: 03 0C 00 1D 80 01 5D 18  03 0C 00 22 80 01 60 18  ......]...."..`.
1860: 01 CB 18 02 0B 00 0F 80  80 CB 18 02 06 00 09 80  ................
1870: 80 8A 18 3E 09 10 0F 80  82 18 03 0C 00 0D 80 01  ...>............
1880: 87 18 03 0C 00 0C 80 01  C8 18 02 06 00 0A 80 80  ................
1890: A9 18 3E 09 10 0F 80 A1  18 03 0C 00 1D 80 01 A6  ..>.............
18A0: 18 03 0C 00 22 80 01 C8  18 02 06 00 0B 80 80 C8  ...."...........
18B0: 18 3E 09 10 0F 80 C0 18  03 0C 00 25 80 01 C5 18  .>.........%....
18C0: 03 0C 00 1C 80 01 C8 18  01 CB 18 1B 40 26 80 27  ............@&.'
18D0: 80 01 10 09 80 43 00 43  01 1B 40 26 80 27 80 01  .....C.C..@&.'..
18E0: 10 0A 80 43 00 43 01 1B  40 26 80 27 80 01 10 0B  ...C.C..@&.'....
18F0: 80 43 00 43 01 1B 40 26  80 27 80 01 10 0C 80 43  .C.C..@&.'.....C
1900: 00 43 01 1B 40 26 80 27  80 01 10 0D 80 43 00 43  .C..@&.'.....C.C
1910: 01 1B 40 26 80 27 80 01  10 0E 80 43 00 43 01 1B  ..@&.'.....C.C..
1920: 40 26 80 27 80 01 10 0F  80 43 00 43 01 1B 40 26  @&.'.....C.C..@&
1930: 80 27 80 01 10 1A 80 43  00 43 01 1B 40 26 80 27  .'.....C.C..@&.'
1940: 80 01 10 1C 80 43 00 43  01 1B 1A 7C 14 03 0A 00  .....C.C...|....
1950: 0B 00 02 0A 00 0D 80 04  5F 19 08 0A 00 09 80 14  ........_.......
1960: 0A 00 1C 80 07 0A 00 1B  80 1B 03 16 00 08 80 03  ................
1970: 17 00 08 80 41 20 80 21  80 08 10 16 00 41 08 80  ....A .!.....A..
1980: 0B 80 07 10 17 00 1A 10  40 1B 03 16 00 08 80 41  ........@......A
1990: 26 80 28 80 08 10 16 00  3E 07 10 20 80 AE 19 41  &.(.....>.. ...A
19A0: 08 80 0B 80 07 10 17 00  1A F8 45 01 C7 19 41 08  ..........E...A.
19B0: 80 0B 80 07 10 17 00 02  17 00 08 80 80 C2 19 01  ................
19C0: C7 19 03 13 00 08 80 1B  03 16 00 08 80 41 08 80  .............A..
19D0: 0B 80 08 10 16 00 1A 5D  15 1A 57 2B 1B 03 15 00  .......]..W+....
19E0: 08 80 03 16 00 08 80 41  0E 80 0F 80 07 10 15 00  .......A........
19F0: 41 0C 80 0F 80 08 10 16  00 1A 5C 33 1B 03 15 00  A.........\3....
1A00: 08 80 03 16 00 08 80 41  1A 80 1B 80 07 10 15 00  .......A........
1A10: 41 1A 80 25 80 08 10 16  00 1A 89 36 1B 03 15 00  A..%.......6....
1A20: 08 80 03 16 00 08 80 41  1C 80 25 80 07 10 15 00  .......A..%.....
1A30: 41 22 80 23 80 08 10 16  00 1A B6 39 1B 03 15 00  A".#.......9....
1A40: 08 80 03 16 00 08 80 41  22 80 1D 80 07 10 15 00  .......A".......
1A50: 41 29 80 1F 80 08 10 16  00 1A E3 3C 1B 41 08 80  A).........<.A..
1A60: 0B 80 06 10 14 00 1A 7C  14 1A D4 46 41 0C 80 0F  .......|...FA...
1A70: 80 06 10 14 00 1A D7 47  41 1A 80 25 80 06 10 14  .......GA..%....
1A80: 00 1A 21 48 1B 41 2A 80  26 80 07 10 00 00 02 00  ..!H.A*.&.......
1A90: 00 09 80 80 9E 1A 03 12  00 2B 80 01 E7 1B 02 00  .........+......
1AA0: 00 0A 80 80 AE 1A 03 12  00 2C 80 01 E7 1B 02 00  .........,......
1AB0: 00 0B 80 80 BE 1A 03 12  00 2D 80 01 E7 1B 02 00  .........-......
1AC0: 00 0C 80 80 CE 1A 03 12  00 2E 80 01 E7 1B 02 00  ................
1AD0: 00 0D 80 80 DE 1A 03 12  00 2F 80 01 E7 1B 02 00  ........./......
1AE0: 00 0E 80 80 EE 1A 03 12  00 30 80 01 E7 1B 02 00  .........0......
1AF0: 00 0F 80 80 E7 1B 41 08  80 0F 80 03 10 00 00 02  ......A.........
1B00: 00 00 08 80 80 0F 1B 03  12 00 2B 80 01 E4 1B 02  ..........+.....
1B10: 00 00 09 80 80 1F 1B 03  12 00 31 80 01 E4 1B 02  ..........1.....
1B20: 00 00 0A 80 80 2F 1B 03  12 00 32 80 01 E4 1B 02  ...../....2.....
1B30: 00 00 0B 80 80 3F 1B 03  12 00 33 80 01 E4 1B 02  .....?....3.....
1B40: 00 00 0C 80 80 4F 1B 03  12 00 34 80 01 E4 1B 02  .....O....4.....
1B50: 00 00 0D 80 80 5F 1B 03  12 00 35 80 01 E4 1B 02  ....._....5.....
1B60: 00 00 0E 80 80 6F 1B 03  12 00 36 80 01 E4 1B 02  .....o....6.....
1B70: 00 00 0F 80 80 84 1B 03  12 00 37 80 03 13 00 37  ..........7....7
1B80: 80 01 E4 1B 02 00 00 1A  80 80 94 1B 03 12 00 38  ...............8
1B90: 80 01 E4 1B 02 00 00 1B  80 80 A4 1B 03 12 00 39  ...............9
1BA0: 80 01 E4 1B 02 00 00 1C  80 80 B4 1B 03 12 00 3A  ...............:
1BB0: 80 01 E4 1B 02 00 00 25  80 80 C4 1B 03 12 00 3B  .......%.......;
1BC0: 80 01 E4 1B 02 00 00 22  80 80 D4 1B 03 12 00 3C  .......".......<
1BD0: 80 01 E4 1B 02 00 00 1D  80 80 E4 1B 03 12 00 3D  ...............=
1BE0: 80 01 E4 1B 01 E7 1B 3E  03 10 1A 80 77 1C 41 1B  .......>....w.A.
1BF0: 80 23 80 03 10 00 00 02  00 00 08 80 80 07 1C 03  .#..............
1C00: 13 00 3E 80 01 77 1C 02  00 00 09 80 80 17 1C 03  ..>..w..........
1C10: 13 00 3F 80 01 77 1C 02  00 00 0A 80 80 27 1C 03  ..?..w.......'..
1C20: 13 00 40 80 01 77 1C 02  00 00 0B 80 80 37 1C 03  ..@..w.......7..
1C30: 13 00 41 80 01 77 1C 02  00 00 0C 80 80 47 1C 03  ..A..w.......G..
1C40: 13 00 42 80 01 77 1C 02  00 00 0D 80 80 57 1C 03  ..B..w.......W..
1C50: 13 00 43 80 01 77 1C 02  00 00 0E 80 80 67 1C 03  ..C..w.......g..
1C60: 13 00 44 80 01 77 1C 02  00 00 0F 80 80 77 1C 03  ..D..w.......w..
1C70: 13 00 45 80 01 77 1C 41  46 80 28 80 07 10 00 00  ..E..w.AF.(.....
1C80: 02 00 00 09 80 80 90 1C  03 0D 00 47 80 01 3F 1E  ...........G..?.
1C90: 02 00 00 0A 80 80 A0 1C  03 0D 00 48 80 01 3F 1E  ...........H..?.
1CA0: 02 00 00 0B 80 80 B0 1C  03 0D 00 49 80 01 3F 1E  ...........I..?.
1CB0: 02 00 00 0C 80 80 C0 1C  03 0D 00 4A 80 01 3F 1E  ...........J..?.
1CC0: 02 00 00 0D 80 80 D0 1C  03 0D 00 4B 80 01 3F 1E  ...........K..?.
1CD0: 02 00 00 0E 80 80 E0 1C  03 0D 00 4C 80 01 3F 1E  ...........L..?.
1CE0: 02 00 00 0F 80 80 3F 1E  41 29 80 21 80 03 10 00  ......?.A).!....
1CF0: 00 02 00 00 08 80 80 7C  1D 02 0B 00 08 80 80 09  .......|........
1D00: 1D 03 0D 00 4D 80 01 79  1D 02 0B 00 09 80 80 19  ....M..y........
1D10: 1D 03 0D 00 2F 80 01 79  1D 02 0B 00 0A 80 80 29  ..../..y.......)
1D20: 1D 03 0D 00 4D 80 01 79  1D 02 0B 00 0B 80 80 39  ....M..y.......9
1D30: 1D 03 0D 00 2F 80 01 79  1D 02 0B 00 0C 80 80 49  ..../..y.......I
1D40: 1D 03 0D 00 4D 80 01 79  1D 02 0B 00 0D 80 80 59  ....M..y.......Y
1D50: 1D 03 0D 00 2F 80 01 79  1D 02 0B 00 0E 80 80 69  ..../..y.......i
1D60: 1D 03 0D 00 2F 80 01 79  1D 02 0B 00 0F 80 80 79  ..../..y.......y
1D70: 1D 03 0D 00 4D 80 01 79  1D 01 3C 1E 02 00 00 09  ....M..y..<.....
1D80: 80 80 8C 1D 03 0D 00 4E  80 01 3C 1E 02 00 00 0A  .......N..<.....
1D90: 80 80 9C 1D 03 0D 00 4F  80 01 3C 1E 02 00 00 0B  .......O..<.....
1DA0: 80 80 AC 1D 03 0D 00 2D  80 01 3C 1E 02 00 00 0C  .......-..<.....
1DB0: 80 80 BC 1D 03 0D 00 2E  80 01 3C 1E 02 00 00 0D  ..........<.....
1DC0: 80 80 CC 1D 03 0D 00 50  80 01 3C 1E 02 00 00 0E  .......P..<.....
1DD0: 80 80 DC 1D 03 0D 00 4C  80 01 3C 1E 02 00 00 0F  .......L..<.....
1DE0: 80 80 EC 1D 03 0D 00 4C  80 01 3C 1E 02 00 00 1A  .......L..<.....
1DF0: 80 80 FC 1D 03 0D 00 51  80 01 3C 1E 02 00 00 1B  .......Q..<.....
1E00: 80 80 0C 1E 03 0D 00 52  80 01 3C 1E 02 00 00 1C  .......R..<.....
1E10: 80 80 1C 1E 03 0D 00 53  80 01 3C 1E 02 00 00 25  .......S..<....%
1E20: 80 80 2C 1E 03 0D 00 54  80 01 3C 1E 02 00 00 22  ..,....T..<...."
1E30: 80 80 3C 1E 03 0D 00 55  80 01 3C 1E 01 3F 1E 41  ..<....U..<..?.A
1E40: 56 80 27 80 07 10 00 00  02 00 00 1B 80 80 67 1E  V.'...........g.
1E50: 03 0E 00 57 80 03 0F 00  57 80 03 10 00 57 80 03  ...W....W....W..
1E60: 11 00 57 80 01 56 2B 02  00 00 1C 80 80 6A 1F 02  ..W..V+......j..
1E70: 0B 00 08 80 80 8E 1E 03  0E 00 58 80 03 0F 00 58  ..........X....X
1E80: 80 03 10 00 58 80 03 11  00 58 80 01 67 1F 02 0B  ....X....X..g...
1E90: 00 09 80 80 AD 1E 03 0E  00 59 80 03 0F 00 59 80  .........Y....Y.
1EA0: 03 10 00 59 80 03 11 00  59 80 01 67 1F 02 0B 00  ...Y....Y..g....
1EB0: 0A 80 80 CC 1E 03 0E 00  58 80 03 0F 00 58 80 03  ........X....X..
1EC0: 10 00 58 80 03 11 00 58  80 01 67 1F 02 0B 00 0B  ..X....X..g.....
1ED0: 80 80 EB 1E 03 0E 00 59  80 03 0F 00 59 80 03 10  .......Y....Y...
1EE0: 00 59 80 03 11 00 59 80  01 67 1F 02 0B 00 0C 80  .Y....Y..g......
1EF0: 80 0A 1F 03 0E 00 58 80  03 0F 00 58 80 03 10 00  ......X....X....
1F00: 58 80 03 11 00 58 80 01  67 1F 02 0B 00 0D 80 80  X....X..g.......
1F10: 29 1F 03 0E 00 59 80 03  0F 00 59 80 03 10 00 59  )....Y....Y....Y
1F20: 80 03 11 00 59 80 01 67  1F 02 0B 00 0E 80 80 48  ....Y..g.......H
1F30: 1F 03 0E 00 59 80 03 0F  00 59 80 03 10 00 59 80  ....Y....Y....Y.
1F40: 03 11 00 59 80 01 67 1F  02 0B 00 0F 80 80 67 1F  ...Y..g.......g.
1F50: 03 0E 00 58 80 03 0F 00  58 80 03 10 00 58 80 03  ...X....X....X..
1F60: 11 00 58 80 01 67 1F 01  56 2B 02 00 00 25 80 80  ..X..g..V+...%..
1F70: 6D 20 02 0B 00 08 80 80  91 1F 03 0E 00 4D 80 03  m ...........M..
1F80: 0F 00 4D 80 03 10 00 4D  80 03 11 00 4D 80 01 6A  ..M....M....M..j
1F90: 20 02 0B 00 09 80 80 B0  1F 03 0E 00 2F 80 03 0F   .........../...
1FA0: 00 2F 80 03 10 00 2F 80  03 11 00 2F 80 01 6A 20  ./..../..../..j 
1FB0: 02 0B 00 0A 80 80 CF 1F  03 0E 00 4D 80 03 0F 00  ...........M....
1FC0: 4D 80 03 10 00 4D 80 03  11 00 4D 80 01 6A 20 02  M....M....M..j .
1FD0: 0B 00 0B 80 80 EE 1F 03  0E 00 2F 80 03 0F 00 2F  ........../..../
1FE0: 80 03 10 00 2F 80 03 11  00 2F 80 01 6A 20 02 0B  ..../..../..j ..
1FF0: 00 0C 80 80 0D 20 03 0E  00 4D 80 03 0F 00 4D 80  ..... ...M....M.
2000: 03 10 00 4D 80 03 11 00  4D 80 01 6A 20 02 0B 00  ...M....M..j ...
2010: 0D 80 80 2C 20 03 0E 00  2F 80 03 0F 00 2F 80 03  ..., .../..../..
2020: 10 00 2F 80 03 11 00 2F  80 01 6A 20 02 0B 00 0E  ../..../..j ....
2030: 80 80 4B 20 03 0E 00 2F  80 03 0F 00 2F 80 03 10  ..K .../..../...
2040: 00 2F 80 03 11 00 2F 80  01 6A 20 02 0B 00 0F 80  ./..../..j .....
2050: 80 6A 20 03 0E 00 4D 80  03 0F 00 4D 80 03 10 00  .j ...M....M....
2060: 4D 80 03 11 00 4D 80 01  6A 20 01 56 2B 02 00 00  M....M..j .V+...
2070: 09 80 80 01 21 02 0B 00  08 80 80 85 20 03 0E 00  ....!....... ...
2080: 5A 80 01 F5 20 02 0B 00  09 80 80 95 20 03 0E 00  Z... ....... ...
2090: 5B 80 01 F5 20 02 0B 00  0A 80 80 A5 20 03 0E 00  [... ....... ...
20A0: 5A 80 01 F5 20 02 0B 00  0B 80 80 B5 20 03 0E 00  Z... ....... ...
20B0: 5B 80 01 F5 20 02 0B 00  0C 80 80 C5 20 03 0E 00  [... ....... ...
20C0: 5A 80 01 F5 20 02 0B 00  0D 80 80 D5 20 03 0E 00  Z... ....... ...
20D0: 5B 80 01 F5 20 02 0B 00  0E 80 80 E5 20 03 0E 00  [... ....... ...
20E0: 5B 80 01 F5 20 02 0B 00  0F 80 80 F5 20 03 0E 00  [... ....... ...
20F0: 5A 80 01 F5 20 1A FD 19  1A 1D 1A 1A 3D 1A 01 56  Z... .......=..V
2100: 2B 02 00 00 0A 80 80 95  21 02 0B 00 08 80 80 19  +.......!.......
2110: 21 03 0E 00 5C 80 01 89  21 02 0B 00 09 80 80 29  !...\...!......)
2120: 21 03 0E 00 5D 80 01 89  21 02 0B 00 0A 80 80 39  !...]...!......9
2130: 21 03 0E 00 5C 80 01 89  21 02 0B 00 0B 80 80 49  !...\...!......I
2140: 21 03 0E 00 5D 80 01 89  21 02 0B 00 0C 80 80 59  !...]...!......Y
2150: 21 03 0E 00 5C 80 01 89  21 02 0B 00 0D 80 80 69  !...\...!......i
2160: 21 03 0E 00 5D 80 01 89  21 02 0B 00 0E 80 80 79  !...]...!......y
2170: 21 03 0E 00 5D 80 01 89  21 02 0B 00 0F 80 80 89  !...]...!.......
2180: 21 03 0E 00 5C 80 01 89  21 1A FD 19 1A 1D 1A 1A  !...\...!.......
2190: 3D 1A 01 56 2B 02 00 00  0F 80 80 29 22 02 0B 00  =..V+......)"...
21A0: 08 80 80 AD 21 03 0E 00  5E 80 01 1D 22 02 0B 00  ....!...^..."...
21B0: 09 80 80 BD 21 03 0E 00  5F 80 01 1D 22 02 0B 00  ....!..._..."...
21C0: 0A 80 80 CD 21 03 0E 00  5E 80 01 1D 22 02 0B 00  ....!...^..."...
21D0: 0B 80 80 DD 21 03 0E 00  5F 80 01 1D 22 02 0B 00  ....!..._..."...
21E0: 0C 80 80 ED 21 03 0E 00  5E 80 01 1D 22 02 0B 00  ....!...^..."...
21F0: 0D 80 80 FD 21 03 0E 00  5F 80 01 1D 22 02 0B 00  ....!..._..."...
2200: 0E 80 80 0D 22 03 0E 00  5F 80 01 1D 22 02 0B 00  ...."..._..."...
2210: 0F 80 80 1D 22 03 0E 00  5E 80 01 1D 22 1A FD 19  ...."...^..."...
2220: 1A 1D 1A 1A 3D 1A 01 56  2B 02 00 00 0B 80 80 67  ....=..V+......g
2230: 22 02 0B 00 0D 80 00 50  22 03 0E 00 60 80 03 0F  "......P"...`...
2240: 00 60 80 03 10 00 60 80  03 11 00 60 80 01 64 22  .`....`....`..d"
2250: 03 0E 00 61 80 03 0F 00  61 80 03 10 00 61 80 03  ...a....a....a..
2260: 11 00 61 80 01 56 2B 02  00 00 0C 80 80 A5 22 02  ..a..V+.......".
2270: 0B 00 0D 80 00 8E 22 03  0E 00 62 80 03 0F 00 62  ......"...b....b
2280: 80 03 10 00 62 80 03 11  00 62 80 01 A2 22 03 0E  ....b....b..."..
2290: 00 63 80 03 0F 00 63 80  03 10 00 63 80 03 11 00  .c....c....c....
22A0: 63 80 01 56 2B 02 00 00  1A 80 80 E3 22 02 0B 00  c..V+......."...
22B0: 0D 80 00 CC 22 03 0E 00  64 80 03 0F 00 64 80 03  ...."...d....d..
22C0: 10 00 64 80 03 11 00 64  80 01 E0 22 03 0E 00 65  ..d....d..."...e
22D0: 80 03 0F 00 65 80 03 10  00 65 80 03 11 00 65 80  ....e....e....e.
22E0: 01 56 2B 02 00 00 22 80  80 E6 23 02 0B 00 08 80  .V+..."...#.....
22F0: 80 0A 23 03 0E 00 4F 80  03 0F 00 4F 80 03 10 00  ..#...O....O....
2300: 4F 80 03 11 00 4F 80 01  E3 23 02 0B 00 09 80 80  O....O...#......
2310: 29 23 03 0E 00 66 80 03  0F 00 66 80 03 10 00 66  )#...f....f....f
2320: 80 03 11 00 66 80 01 E3  23 02 0B 00 0A 80 80 48  ....f...#......H
2330: 23 03 0E 00 4F 80 03 0F  00 4F 80 03 10 00 4F 80  #...O....O....O.
2340: 03 11 00 4F 80 01 E3 23  02 0B 00 0B 80 80 67 23  ...O...#......g#
2350: 03 0E 00 66 80 03 0F 00  66 80 03 10 00 66 80 03  ...f....f....f..
2360: 11 00 66 80 01 E3 23 02  0B 00 0C 80 80 86 23 03  ..f...#.......#.
2370: 0E 00 4F 80 03 0F 00 4F  80 03 10 00 4F 80 03 11  ..O....O....O...
2380: 00 4F 80 01 E3 23 02 0B  00 0D 80 80 A5 23 03 0E  .O...#.......#..
2390: 00 66 80 03 0F 00 66 80  03 10 00 66 80 03 11 00  .f....f....f....
23A0: 66 80 01 E3 23 02 0B 00  0E 80 80 C4 23 03 0E 00  f...#.......#...
23B0: 66 80 03 0F 00 66 80 03  10 00 66 80 03 11 00 66  f....f....f....f
23C0: 80 01 E3 23 02 0B 00 0F  80 80 E3 23 03 0E 00 4F  ...#.......#...O
23D0: 80 03 0F 00 4F 80 03 10  00 4F 80 03 11 00 4F 80  ....O....O....O.
23E0: 01 E3 23 01 56 2B 02 00  00 0D 80 80 04 24 03 0D  ..#.V+.......$..
23F0: 00 08 80 03 0E 00 67 80  1A FD 19 1A 1D 1A 1A 3D  ......g........=
2400: 1A 01 56 2B 02 00 00 0E  80 80 9E 24 03 0E 00 4A  ..V+.......$...J
2410: 80 03 0F 00 4C 80 03 11  00 4A 80 02 0B 00 08 80  ....L....J......
2420: 80 2B 24 03 10 00 5C 80  01 9B 24 02 0B 00 09 80  .+$...\...$.....
2430: 80 3B 24 03 10 00 5D 80  01 9B 24 02 0B 00 0A 80  .;$...]...$.....
2440: 80 4B 24 03 10 00 5C 80  01 9B 24 02 0B 00 0B 80  .K$...\...$.....
2450: 80 5B 24 03 10 00 5D 80  01 9B 24 02 0B 00 0C 80  .[$...]...$.....
2460: 80 6B 24 03 10 00 5C 80  01 9B 24 02 0B 00 0D 80  .k$...\...$.....
2470: 80 7B 24 03 10 00 5D 80  01 9B 24 02 0B 00 0E 80  .{$...]...$.....
2480: 80 8B 24 03 10 00 5D 80  01 9B 24 02 0B 00 0F 80  ..$...]...$.....
2490: 80 9B 24 03 10 00 5C 80  01 9B 24 01 56 2B 02 00  ..$...\...$.V+..
24A0: 00 1D 80 80 BC 24 03 0D  00 68 80 03 0E 00 68 80  .....$...h....h.
24B0: 1A FD 19 1A 1D 1A 1A 3D  1A 01 56 2B 02 00 00 24  .......=..V+...$
24C0: 80 80 DA 24 03 0D 00 69  80 03 0E 00 69 80 1A FD  ...$...i....i...
24D0: 19 1A 1D 1A 1A 3D 1A 01  56 2B 02 00 00 23 80 80  .....=..V+...#..
24E0: 56 2B 41 26 80 27 80 03  10 00 00 02 00 00 08 80  V+A&.'..........
24F0: 80 09 25 03 0D 00 6A 80  03 0E 00 6A 80 1A FD 19  ..%...j....j....
2500: 1A 1D 1A 1A 3D 1A 01 53  2B 02 00 00 09 80 80 2D  ....=..S+......-
2510: 25 03 0D 00 2C 80 03 0E  00 6B 80 03 0F 00 6B 80  %...,....k....k.
2520: 03 10 00 6B 80 03 11 00  6B 80 01 53 2B 02 00 00  ...k....k..S+...
2530: 0A 80 80 51 25 03 0D 00  6C 80 03 0E 00 6C 80 03  ...Q%...l....l..
2540: 0F 00 6C 80 03 10 00 6C  80 03 11 00 6C 80 01 53  ..l....l....l..S
2550: 2B 02 00 00 0E 80 80 75  25 03 0D 00 6D 80 03 0E  +......u%...m...
2560: 00 6D 80 03 0F 00 6D 80  03 10 00 6D 80 03 11 00  .m....m....m....
2570: 6D 80 01 53 2B 02 00 00  0F 80 80 78 26 02 0B 00  m..S+......x&...
2580: 08 80 80 9C 25 03 0E 00  6E 80 03 0F 00 6E 80 03  ....%...n....n..
2590: 10 00 6E 80 03 11 00 6E  80 01 75 26 02 0B 00 09  ..n....n..u&....
25A0: 80 80 BB 25 03 0E 00 6F  80 03 0F 00 6F 80 03 10  ...%...o....o...
25B0: 00 6F 80 03 11 00 6F 80  01 75 26 02 0B 00 0A 80  .o....o..u&.....
25C0: 80 DA 25 03 0E 00 6E 80  03 0F 00 6E 80 03 10 00  ..%...n....n....
25D0: 6E 80 03 11 00 6E 80 01  75 26 02 0B 00 0B 80 80  n....n..u&......
25E0: F9 25 03 0E 00 6F 80 03  0F 00 6F 80 03 10 00 6F  .%...o....o....o
25F0: 80 03 11 00 6F 80 01 75  26 02 0B 00 0C 80 80 18  ....o..u&.......
2600: 26 03 0E 00 6E 80 03 0F  00 6E 80 03 10 00 6E 80  &...n....n....n.
2610: 03 11 00 6E 80 01 75 26  02 0B 00 0D 80 80 37 26  ...n..u&......7&
2620: 03 0E 00 6F 80 03 0F 00  6F 80 03 10 00 6F 80 03  ...o....o....o..
2630: 11 00 6F 80 01 75 26 02  0B 00 0E 80 80 56 26 03  ..o..u&......V&.
2640: 0E 00 6F 80 03 0F 00 6F  80 03 10 00 6F 80 03 11  ..o....o....o...
2650: 00 6F 80 01 75 26 02 0B  00 0F 80 80 75 26 03 0E  .o..u&......u&..
2660: 00 6E 80 03 0F 00 6E 80  03 10 00 6E 80 03 11 00  .n....n....n....
2670: 6E 80 01 75 26 01 53 2B  02 00 00 0B 80 80 31 27  n..u&.S+......1'
2680: 02 0B 00 08 80 80 95 26  03 0E 00 2D 80 03 10 00  .......&...-....
2690: 2D 80 01 28 27 02 0B 00  09 80 80 AA 26 03 0E 00  -..('.......&...
26A0: 2E 80 03 10 00 2E 80 01  28 27 02 0B 00 0A 80 80  ........('......
26B0: BF 26 03 0E 00 2D 80 03  10 00 2D 80 01 28 27 02  .&...-....-..('.
26C0: 0B 00 0B 80 80 D4 26 03  0E 00 2E 80 03 10 00 2E  ......&.........
26D0: 80 01 28 27 02 0B 00 0C  80 80 E9 26 03 0E 00 2D  ..('.......&...-
26E0: 80 03 10 00 2D 80 01 28  27 02 0B 00 0D 80 80 FE  ....-..('.......
26F0: 26 03 0E 00 2E 80 03 10  00 2E 80 01 28 27 02 0B  &...........('..
2700: 00 0E 80 80 13 27 03 0E  00 2E 80 03 10 00 2E 80  .....'..........
2710: 01 28 27 02 0B 00 0F 80  80 28 27 03 0E 00 2D 80  .('......('...-.
2720: 03 10 00 2D 80 01 28 27  1A FD 19 1A 3D 1A 01 53  ...-..('....=..S
2730: 2B 02 00 00 0C 80 80 55  27 03 0D 00 70 80 03 0E  +......U'...p...
2740: 00 70 80 03 0F 00 70 80  03 10 00 70 80 03 11 00  .p....p....p....
2750: 70 80 01 53 2B 02 00 00  0D 80 80 6E 27 03 0E 00  p..S+......n'...
2760: 71 80 1A FD 19 1A 1D 1A  1A 3D 1A 01 53 2B 02 00  q........=..S+..
2770: 00 1A 80 80 99 28 02 0B  00 08 80 80 9A 27 03 0D  .....(.......'..
2780: 00 72 80 03 0E 00 72 80  03 0F 00 72 80 03 10 00  .r....r....r....
2790: 72 80 03 11 00 72 80 01  96 28 02 0B 00 09 80 80  r....r...(......
27A0: BE 27 03 0D 00 73 80 03  0E 00 73 80 03 0F 00 73  .'...s....s....s
27B0: 80 03 10 00 73 80 03 11  00 73 80 01 96 28 02 0B  ....s....s...(..
27C0: 00 0A 80 80 E2 27 03 0D  00 72 80 03 0E 00 72 80  .....'...r....r.
27D0: 03 0F 00 72 80 03 10 00  72 80 03 11 00 72 80 01  ...r....r....r..
27E0: 96 28 02 0B 00 0B 80 80  06 28 03 0D 00 73 80 03  .(.......(...s..
27F0: 0E 00 73 80 03 0F 00 73  80 03 10 00 73 80 03 11  ..s....s....s...
2800: 00 73 80 01 96 28 02 0B  00 0C 80 80 2A 28 03 0D  .s...(......*(..
2810: 00 72 80 03 0E 00 72 80  03 0F 00 72 80 03 10 00  .r....r....r....
2820: 72 80 03 11 00 72 80 01  96 28 02 0B 00 0D 80 80  r....r...(......
2830: 4E 28 03 0D 00 73 80 03  0E 00 73 80 03 0F 00 73  N(...s....s....s
2840: 80 03 10 00 73 80 03 11  00 73 80 01 96 28 02 0B  ....s....s...(..
2850: 00 0E 80 80 72 28 03 0D  00 73 80 03 0E 00 73 80  ....r(...s....s.
2860: 03 0F 00 73 80 03 10 00  73 80 03 11 00 73 80 01  ...s....s....s..
2870: 96 28 02 0B 00 0F 80 80  96 28 03 0D 00 72 80 03  .(.......(...r..
2880: 0E 00 72 80 03 0F 00 72  80 03 10 00 72 80 03 11  ..r....r....r...
2890: 00 72 80 01 96 28 01 53  2B 02 00 00 1B 80 80 B9  .r...(.S+.......
28A0: 28 03 0D 00 74 80 03 0E  00 74 80 03 0F 00 74 80  (...t....t....t.
28B0: 1A 1D 1A 1A 3D 1A 01 53  2B 02 00 00 1C 80 80 DD  ....=..S+.......
28C0: 28 03 0D 00 75 80 03 0E  00 75 80 03 0F 00 75 80  (...u....u....u.
28D0: 03 10 00 75 80 03 11 00  75 80 01 53 2B 02 00 00  ...u....u..S+...
28E0: 25 80 80 F6 28 03 0E 00  76 80 1A FD 19 1A 1D 1A  %...(...v.......
28F0: 1A 3D 1A 01 53 2B 02 00  00 22 80 80 0F 29 03 0E  .=..S+..."...)..
2900: 00 77 80 1A FD 19 1A 1D  1A 1A 3D 1A 01 53 2B 02  .w........=..S+.
2910: 00 00 1D 80 80 33 29 03  0D 00 30 80 03 0E 00 30  .....3)...0....0
2920: 80 03 0F 00 30 80 03 10  00 30 80 03 11 00 30 80  ....0....0....0.
2930: 01 53 2B 02 00 00 24 80  80 4C 29 03 0E 00 78 80  .S+...$..L)...x.
2940: 1A FD 19 1A 1D 1A 1A 3D  1A 01 53 2B 02 00 00 23  .......=..S+...#
2950: 80 80 65 29 03 0E 00 79  80 1A FD 19 1A 1D 1A 1A  ..e)...y........
2960: 3D 1A 01 53 2B 02 00 00  29 80 80 7E 29 03 0E 00  =..S+...)..~)...
2970: 7A 80 1A FD 19 1A 1D 1A  1A 3D 1A 01 53 2B 02 00  z........=..S+..
2980: 00 7B 80 80 97 29 03 0E  00 7C 80 1A FD 19 1A 1D  .{...)...|......
2990: 1A 1A 3D 1A 01 53 2B 02  00 00 1E 80 80 50 2A 02  ..=..S+......P*.
29A0: 0B 00 08 80 80 B4 29 03  0E 00 7D 80 03 10 00 2D  ......)...}....-
29B0: 80 01 47 2A 02 0B 00 09  80 80 C9 29 03 0E 00 7E  ..G*.......)...~
29C0: 80 03 10 00 2E 80 01 47  2A 02 0B 00 0A 80 80 DE  .......G*.......
29D0: 29 03 0E 00 7D 80 03 10  00 2D 80 01 47 2A 02 0B  )...}....-..G*..
29E0: 00 0B 80 80 F3 29 03 0E  00 7E 80 03 10 00 2E 80  .....)...~......
29F0: 01 47 2A 02 0B 00 0C 80  80 08 2A 03 0E 00 7D 80  .G*.......*...}.
2A00: 03 10 00 2D 80 01 47 2A  02 0B 00 0D 80 80 1D 2A  ...-..G*.......*
2A10: 03 0E 00 7E 80 03 10 00  2E 80 01 47 2A 02 0B 00  ...~.......G*...
2A20: 0E 80 80 32 2A 03 0E 00  7E 80 03 10 00 2E 80 01  ...2*...~.......
2A30: 47 2A 02 0B 00 0F 80 80  47 2A 03 0E 00 7D 80 03  G*......G*...}..
2A40: 10 00 2D 80 01 47 2A 1A  FD 19 1A 3D 1A 01 53 2B  ..-..G*....=..S+
2A50: 02 00 00 1F 80 80 53 2B  02 0B 00 08 80 80 77 2A  ......S+......w*
2A60: 03 0E 00 7F 80 03 0F 00  7F 80 03 10 00 7F 80 03  ................
2A70: 11 00 7F 80 01 50 2B 02  0B 00 09 80 80 96 2A 03  .....P+.......*.
2A80: 0E 00 80 80 03 0F 00 80  80 03 10 00 80 80 03 11  ................
2A90: 00 80 80 01 50 2B 02 0B  00 0A 80 80 B5 2A 03 0E  ....P+.......*..
2AA0: 00 7F 80 03 0F 00 7F 80  03 10 00 7F 80 03 11 00  ................
2AB0: 7F 80 01 50 2B 02 0B 00  0B 80 80 D4 2A 03 0E 00  ...P+.......*...
2AC0: 80 80 03 0F 00 80 80 03  10 00 80 80 03 11 00 80  ................
2AD0: 80 01 50 2B 02 0B 00 0C  80 80 F3 2A 03 0E 00 7F  ..P+.......*....
2AE0: 80 03 0F 00 7F 80 03 10  00 7F 80 03 11 00 7F 80  ................
2AF0: 01 50 2B 02 0B 00 0D 80  80 12 2B 03 0E 00 80 80  .P+.......+.....
2B00: 03 0F 00 80 80 03 10 00  80 80 03 11 00 80 80 01  ................
2B10: 50 2B 02 0B 00 0E 80 80  31 2B 03 0E 00 80 80 03  P+......1+......
2B20: 0F 00 80 80 03 10 00 80  80 03 11 00 80 80 01 50  ...............P
2B30: 2B 02 0B 00 0F 80 80 50  2B 03 0E 00 7F 80 03 0F  +......P+.......
2B40: 00 7F 80 03 10 00 7F 80  03 11 00 7F 80 01 50 2B  ..............P+
2B50: 01 53 2B 01 56 2B 1B 02  08 00 09 80 80 02 2C 02  .S+.V+........,.
2B60: 16 00 08 80 80 6F 2B 03  0D 00 08 80 01 FF 2B 02  .....o+.......+.
2B70: 16 00 09 80 80 7F 2B 03  0D 00 09 80 01 FF 2B 02  ......+.......+.
2B80: 16 00 0A 80 80 8F 2B 03  0D 00 81 80 01 FF 2B 02  ......+.......+.
2B90: 16 00 0B 80 80 9F 2B 03  0D 00 82 80 01 FF 2B 02  ......+.......+.
2BA0: 16 00 0C 80 80 AF 2B 03  0D 00 0D 80 01 FF 2B 02  ......+.......+.
2BB0: 16 00 0D 80 80 BF 2B 03  0D 00 83 80 01 FF 2B 02  ......+.......+.
2BC0: 16 00 0E 80 80 CF 2B 03  0D 00 0F 80 01 FF 2B 02  ......+.......+.
2BD0: 16 00 0F 80 80 DF 2B 03  0D 00 19 80 01 FF 2B 02  ......+.......+.
2BE0: 16 00 1A 80 80 EF 2B 03  0D 00 84 80 01 FF 2B 02  ......+.......+.
2BF0: 16 00 1B 80 80 FF 2B 03  0D 00 85 80 01 FF 2B 01  ......+.......+.
2C00: 5B 33 02 08 00 0A 80 80  AD 2C 02 16 00 08 80 80  [3.......,......
2C10: 1A 2C 03 0D 00 08 80 01  AA 2C 02 16 00 09 80 80  .,.......,......
2C20: 2A 2C 03 0D 00 7B 80 01  AA 2C 02 16 00 0A 80 80  *,...{...,......
2C30: 3A 2C 03 0D 00 0A 80 01  AA 2C 02 16 00 0B 80 80  :,.......,......
2C40: 4A 2C 03 0D 00 1B 80 01  AA 2C 02 16 00 0C 80 80  J,.......,......
2C50: 5A 2C 03 0D 00 86 80 01  AA 2C 02 16 00 0D 80 80  Z,.......,......
2C60: 6A 2C 03 0D 00 82 80 01  AA 2C 02 16 00 0E 80 80  j,.......,......
2C70: 7A 2C 03 0D 00 21 80 01  AA 2C 02 16 00 0F 80 80  z,...!...,......
2C80: 8A 2C 03 0D 00 87 80 01  AA 2C 02 16 00 1A 80 80  .,.......,......
2C90: 9A 2C 03 0D 00 88 80 01  AA 2C 02 16 00 1B 80 80  .,.......,......
2CA0: AA 2C 03 0D 00 89 80 01  AA 2C 01 5B 33 02 08 00  .,.......,.[3...
2CB0: 0B 80 80 58 2D 02 16 00  08 80 80 C5 2C 03 0D 00  ...X-.......,...
2CC0: 08 80 01 55 2D 02 16 00  09 80 80 D5 2C 03 0D 00  ...U-.......,...
2CD0: 0D 80 01 55 2D 02 16 00  0A 80 80 E5 2C 03 0D 00  ...U-.......,...
2CE0: 29 80 01 55 2D 02 16 00  0B 80 80 F5 2C 03 0D 00  )..U-.......,...
2CF0: 28 80 01 55 2D 02 16 00  0C 80 80 05 2D 03 0D 00  (..U-.......-...
2D00: 8A 80 01 55 2D 02 16 00  0D 80 80 15 2D 03 0D 00  ...U-.......-...
2D10: 88 80 01 55 2D 02 16 00  0E 80 80 25 2D 03 0D 00  ...U-......%-...
2D20: 8B 80 01 55 2D 02 16 00  0F 80 80 35 2D 03 0D 00  ...U-......5-...
2D30: 8C 80 01 55 2D 02 16 00  1A 80 80 45 2D 03 0D 00  ...U-......E-...
2D40: 8D 80 01 55 2D 02 16 00  1B 80 80 55 2D 03 0D 00  ...U-......U-...
2D50: 8E 80 01 55 2D 01 5B 33  02 08 00 0C 80 80 03 2E  ...U-.[3........
2D60: 02 16 00 08 80 80 70 2D  03 0D 00 08 80 01 00 2E  ......p-........
2D70: 02 16 00 09 80 80 80 2D  03 0D 00 56 80 01 00 2E  .......-...V....
2D80: 02 16 00 0A 80 80 90 2D  03 0D 00 1E 80 01 00 2E  .......-........
2D90: 02 16 00 0B 80 80 A0 2D  03 0D 00 8F 80 01 00 2E  .......-........
2DA0: 02 16 00 0C 80 80 B0 2D  03 0D 00 90 80 01 00 2E  .......-........
2DB0: 02 16 00 0D 80 80 C0 2D  03 0D 00 22 80 01 00 2E  .......-..."....
2DC0: 02 16 00 0E 80 80 D0 2D  03 0D 00 91 80 01 00 2E  .......-........
2DD0: 02 16 00 0F 80 80 E0 2D  03 0D 00 0D 80 01 00 2E  .......-........
2DE0: 02 16 00 1A 80 80 F0 2D  03 0D 00 26 80 01 00 2E  .......-...&....
2DF0: 02 16 00 1B 80 80 00 2E  03 0D 00 92 80 01 00 2E  ................
2E00: 01 5B 33 02 08 00 0D 80  80 AE 2E 02 16 00 08 80  .[3.............
2E10: 80 1B 2E 03 0D 00 08 80  01 AB 2E 02 16 00 09 80  ................
2E20: 80 2B 2E 03 0D 00 20 80  01 AB 2E 02 16 00 0A 80  .+.... .........
2E30: 80 3B 2E 03 0D 00 82 80  01 AB 2E 02 16 00 0B 80  .;..............
2E40: 80 4B 2E 03 0D 00 93 80  01 AB 2E 02 16 00 0C 80  .K..............
2E50: 80 5B 2E 03 0D 00 1F 80  01 AB 2E 02 16 00 0D 80  .[..............
2E60: 80 6B 2E 03 0D 00 21 80  01 AB 2E 02 16 00 0E 80  .k....!.........
2E70: 80 7B 2E 03 0D 00 0D 80  01 AB 2E 02 16 00 0F 80  .{..............
2E80: 80 8B 2E 03 0D 00 1D 80  01 AB 2E 02 16 00 1A 80  ................
2E90: 80 9B 2E 03 0D 00 94 80  01 AB 2E 02 16 00 1B 80  ................
2EA0: 80 AB 2E 03 0D 00 8E 80  01 AB 2E 01 5B 33 02 08  ............[3..
2EB0: 00 0E 80 80 59 2F 02 16  00 08 80 80 C6 2E 03 0D  ....Y/..........
2EC0: 00 08 80 01 56 2F 02 16  00 09 80 80 D6 2E 03 0D  ....V/..........
2ED0: 00 95 80 01 56 2F 02 16  00 0A 80 80 E6 2E 03 0D  ....V/..........
2EE0: 00 2A 80 01 56 2F 02 16  00 0B 80 80 F6 2E 03 0D  .*..V/..........
2EF0: 00 86 80 01 56 2F 02 16  00 0C 80 80 06 2F 03 0D  ....V/......./..
2F00: 00 96 80 01 56 2F 02 16  00 0D 80 80 16 2F 03 0D  ....V/......./..
2F10: 00 93 80 01 56 2F 02 16  00 0E 80 80 26 2F 03 0D  ....V/......&/..
2F20: 00 97 80 01 56 2F 02 16  00 0F 80 80 36 2F 03 0D  ....V/......6/..
2F30: 00 1E 80 01 56 2F 02 16  00 1A 80 80 46 2F 03 0D  ....V/......F/..
2F40: 00 0C 80 01 56 2F 02 16  00 1B 80 80 56 2F 03 0D  ....V/......V/..
2F50: 00 92 80 01 56 2F 01 5B  33 02 08 00 0F 80 80 04  ....V/.[3.......
2F60: 30 02 16 00 08 80 80 71  2F 03 0D 00 08 80 01 01  0......q/.......
2F70: 30 02 16 00 09 80 80 81  2F 03 0D 00 98 80 01 01  0......./.......
2F80: 30 02 16 00 0A 80 80 91  2F 03 0D 00 1F 80 01 01  0......./.......
2F90: 30 02 16 00 0B 80 80 A1  2F 03 0D 00 20 80 01 01  0......./... ...
2FA0: 30 02 16 00 0C 80 80 B1  2F 03 0D 00 8F 80 01 01  0......./.......
2FB0: 30 02 16 00 0D 80 80 C1  2F 03 0D 00 1D 80 01 01  0......./.......
2FC0: 30 02 16 00 0E 80 80 D1  2F 03 0D 00 82 80 01 01  0......./.......
2FD0: 30 02 16 00 0F 80 80 E1  2F 03 0D 00 2A 80 01 01  0......./...*...
2FE0: 30 02 16 00 1A 80 80 F1  2F 03 0D 00 99 80 01 01  0......./.......
2FF0: 30 02 16 00 1B 80 80 01  30 03 0D 00 8E 80 01 01  0.......0.......
3000: 30 01 5B 33 02 08 00 1A  80 80 AF 30 02 16 00 08  0.[3.......0....
3010: 80 80 1C 30 03 0D 00 08  80 01 AC 30 02 16 00 09  ...0.......0....
3020: 80 80 2C 30 03 0D 00 9A  80 01 AC 30 02 16 00 0A  ..,0.......0....
3030: 80 80 3C 30 03 0D 00 23  80 01 AC 30 02 16 00 0B  ..<0...#...0....
3040: 80 80 4C 30 03 0D 00 1E  80 01 AC 30 02 16 00 0C  ..L0.......0....
3050: 80 80 5C 30 03 0D 00 82  80 01 AC 30 02 16 00 0D  ..\0.......0....
3060: 80 80 6C 30 03 0D 00 20  80 01 AC 30 02 16 00 0E  ..l0... ...0....
3070: 80 80 7C 30 03 0D 00 8F  80 01 AC 30 02 16 00 0F  ..|0.......0....
3080: 80 80 8C 30 03 0D 00 0F  80 01 AC 30 02 16 00 1A  ...0.......0....
3090: 80 80 9C 30 03 0D 00 1F  80 01 AC 30 02 16 00 1B  ...0.......0....
30A0: 80 80 AC 30 03 0D 00 89  80 01 AC 30 01 5B 33 02  ...0.......0.[3.
30B0: 08 00 1B 80 80 5A 31 02  16 00 08 80 80 C7 30 03  .....Z1.......0.
30C0: 0D 00 08 80 01 57 31 02  16 00 09 80 80 D7 30 03  .....W1.......0.
30D0: 0D 00 23 80 01 57 31 02  16 00 0A 80 80 E7 30 03  ..#..W1.......0.
30E0: 0D 00 56 80 01 57 31 02  16 00 0B 80 80 F7 30 03  ..V..W1.......0.
30F0: 0D 00 90 80 01 57 31 02  16 00 0C 80 80 07 31 03  .....W1.......1.
3100: 0D 00 1E 80 01 57 31 02  16 00 0D 80 80 17 31 03  .....W1.......1.
3110: 0D 00 8F 80 01 57 31 02  16 00 0E 80 80 27 31 03  .....W1......'1.
3120: 0D 00 9B 80 01 57 31 02  16 00 0F 80 80 37 31 03  .....W1......71.
3130: 0D 00 22 80 01 57 31 02  16 00 1A 80 80 47 31 03  .."..W1......G1.
3140: 0D 00 9C 80 01 57 31 02  16 00 1B 80 80 57 31 03  .....W1......W1.
3150: 0D 00 92 80 01 57 31 01  5B 33 02 08 00 1C 80 80  .....W1.[3......
3160: 05 32 02 16 00 08 80 80  72 31 03 0D 00 08 80 01  .2......r1......
3170: 02 32 02 16 00 09 80 80  82 31 03 0D 00 0E 80 01  .2.......1......
3180: 02 32 02 16 00 0A 80 80  92 31 03 0D 00 95 80 01  .2.......1......
3190: 02 32 02 16 00 0B 80 80  A2 31 03 0D 00 8F 80 01  .2.......1......
31A0: 02 32 02 16 00 0C 80 80  B2 31 03 0D 00 82 80 01  .2.......1......
31B0: 02 32 02 16 00 0D 80 80  C2 31 03 0D 00 0C 80 01  .2.......1......
31C0: 02 32 02 16 00 0E 80 80  D2 31 03 0D 00 1E 80 01  .2.......1......
31D0: 02 32 02 16 00 0F 80 80  E2 31 03 0D 00 96 80 01  .2.......1......
31E0: 02 32 02 16 00 1A 80 80  F2 31 03 0D 00 9D 80 01  .2.......1......
31F0: 02 32 02 16 00 1B 80 80  02 32 03 0D 00 89 80 01  .2.......2......
3200: 02 32 01 5B 33 02 08 00  25 80 80 B0 32 02 16 00  .2.[3...%...2...
3210: 08 80 80 1D 32 03 0D 00  08 80 01 AD 32 02 16 00  ....2.......2...
3220: 09 80 80 2D 32 03 0D 00  82 80 01 AD 32 02 16 00  ...-2.......2...
3230: 0A 80 80 3D 32 03 0D 00  90 80 01 AD 32 02 16 00  ...=2.......2...
3240: 0B 80 80 4D 32 03 0D 00  0D 80 01 AD 32 02 16 00  ...M2.......2...
3250: 0C 80 80 5D 32 03 0D 00  8C 80 01 AD 32 02 16 00  ...]2.......2...
3260: 0D 80 80 6D 32 03 0D 00  93 80 01 AD 32 02 16 00  ...m2.......2...
3270: 0E 80 80 7D 32 03 0D 00  99 80 01 AD 32 02 16 00  ...}2.......2...
3280: 0F 80 80 8D 32 03 0D 00  28 80 01 AD 32 02 16 00  ....2...(...2...
3290: 1A 80 80 9D 32 03 0D 00  9E 80 01 AD 32 02 16 00  ....2.......2...
32A0: 1B 80 80 AD 32 03 0D 00  85 80 01 AD 32 01 5B 33  ....2.......2.[3
32B0: 02 08 00 22 80 80 5B 33  02 16 00 08 80 80 C8 32  ..."..[3.......2
32C0: 03 0D 00 08 80 01 58 33  02 16 00 09 80 80 D8 32  ......X3.......2
32D0: 03 0D 00 24 80 01 58 33  02 16 00 0A 80 80 E8 32  ...$..X3.......2
32E0: 03 0D 00 22 80 01 58 33  02 16 00 0B 80 80 F8 32  ..."..X3.......2
32F0: 03 0D 00 29 80 01 58 33  02 16 00 0C 80 80 08 33  ...)..X3.......3
3300: 03 0D 00 0C 80 01 58 33  02 16 00 0D 80 80 18 33  ......X3.......3
3310: 03 0D 00 8B 80 01 58 33  02 16 00 0E 80 80 28 33  ......X3......(3
3320: 03 0D 00 26 80 01 58 33  02 16 00 0F 80 80 38 33  ...&..X3......83
3330: 03 0D 00 9F 80 01 58 33  02 16 00 1A 80 80 48 33  ......X3......H3
3340: 03 0D 00 A0 80 01 58 33  02 16 00 1B 80 80 58 33  ......X3......X3
3350: 03 0D 00 85 80 01 58 33  01 5B 33 1B 02 15 00 08  ......X3.[3.....
3360: 80 80 27 34 02 16 00 08  80 80 74 33 03 0E 00 56  ..'4......t3...V
3370: 80 01 24 34 02 16 00 09  80 80 84 33 03 0E 00 0A  ..$4.......3....
3380: 80 01 24 34 02 16 00 0A  80 80 94 33 03 0E 00 83  ..$4.......3....
3390: 80 01 24 34 02 16 00 0B  80 80 A4 33 03 0E 00 A1  ..$4.......3....
33A0: 80 01 24 34 02 16 00 0C  80 80 B4 33 03 0E 00 8A  ..$4.......3....
33B0: 80 01 24 34 02 16 00 0D  80 80 C4 33 03 0E 00 46  ..$4.......3...F
33C0: 80 01 24 34 02 16 00 0E  80 80 D4 33 03 0E 00 1B  ..$4.......3....
33D0: 80 01 24 34 02 16 00 0F  80 80 E4 33 03 0E 00 88  ..$4.......3....
33E0: 80 01 24 34 02 16 00 1A  80 80 F4 33 03 0E 00 8D  ..$4.......3....
33F0: 80 01 24 34 02 16 00 1B  80 80 04 34 03 0E 00 A0  ..$4.......4....
3400: 80 01 24 34 02 16 00 1C  80 80 14 34 03 0E 00 A2  ..$4.......4....
3410: 80 01 24 34 02 16 00 25  80 80 24 34 03 0E 00 9F  ..$4...%..$4....
3420: 80 01 24 34 01 88 36 02  15 00 09 80 80 F2 34 02  ..$4..6.......4.
3430: 16 00 08 80 80 3F 34 03  0E 00 0E 80 01 EF 34 02  .....?4.......4.
3440: 16 00 09 80 80 4F 34 03  0E 00 0D 80 01 EF 34 02  .....O4.......4.
3450: 16 00 0A 80 80 5F 34 03  0E 00 81 80 01 EF 34 02  ....._4.......4.
3460: 16 00 0B 80 80 6F 34 03  0E 00 7B 80 01 EF 34 02  .....o4...{...4.
3470: 16 00 0C 80 80 7F 34 03  0E 00 90 80 01 EF 34 02  ......4.......4.
3480: 16 00 0D 80 80 8F 34 03  0E 00 22 80 01 EF 34 02  ......4..."...4.
3490: 16 00 0E 80 80 9F 34 03  0E 00 0F 80 01 EF 34 02  ......4.......4.
34A0: 16 00 0F 80 80 AF 34 03  0E 00 0C 80 01 EF 34 02  ......4.......4.
34B0: 16 00 1A 80 80 BF 34 03  0E 00 1D 80 01 EF 34 02  ......4.......4.
34C0: 16 00 1B 80 80 CF 34 03  0E 00 28 80 01 EF 34 02  ......4...(...4.
34D0: 16 00 1C 80 80 DF 34 03  0E 00 8C 80 01 EF 34 02  ......4.......4.
34E0: 16 00 25 80 80 EF 34 03  0E 00 9E 80 01 EF 34 01  ..%...4.......4.
34F0: 88 36 02 15 00 0A 80 80  BD 35 02 16 00 08 80 80  .6.......5......
3500: 0A 35 03 0E 00 2A 80 01  BA 35 02 16 00 09 80 80  .5...*...5......
3510: 1A 35 03 0E 00 82 80 01  BA 35 02 16 00 0A 80 80  .5.......5......
3520: 2A 35 03 0E 00 98 80 01  BA 35 02 16 00 0B 80 80  *5.......5......
3530: 3A 35 03 0E 00 21 80 01  BA 35 02 16 00 0C 80 80  :5...!...5......
3540: 4A 35 03 0E 00 1E 80 01  BA 35 02 16 00 0D 80 80  J5.......5......
3550: 5A 35 03 0E 00 18 80 01  BA 35 02 16 00 0E 80 80  Z5.......5......
3560: 6A 35 03 0E 00 1F 80 01  BA 35 02 16 00 0F 80 80  j5.......5......
3570: 7A 35 03 0E 00 A3 80 01  BA 35 02 16 00 1A 80 80  z5.......5......
3580: 8A 35 03 0E 00 84 80 01  BA 35 02 16 00 1B 80 80  .5.......5......
3590: 9A 35 03 0E 00 94 80 01  BA 35 02 16 00 1C 80 80  .5.......5......
35A0: AA 35 03 0E 00 9C 80 01  BA 35 02 16 00 25 80 80  .5.......5...%..
35B0: BA 35 03 0E 00 4B 80 01  BA 35 01 88 36 02 15 00  .5...K...5..6...
35C0: 0B 80 80 88 36 02 16 00  08 80 80 D5 35 03 0E 00  ....6.......5...
35D0: 1A 80 01 85 36 02 16 00  09 80 80 E5 35 03 0E 00  ....6.......5...
35E0: A4 80 01 85 36 02 16 00  0A 80 80 F5 35 03 0E 00  ....6.......5...
35F0: 23 80 01 85 36 02 16 00  0B 80 80 05 36 03 0E 00  #...6.......6...
3600: 27 80 01 85 36 02 16 00  0C 80 80 15 36 03 0E 00  '...6.......6...
3610: A5 80 01 85 36 02 16 00  0D 80 80 25 36 03 0E 00  ....6......%6...
3620: 9A 80 01 85 36 02 16 00  0E 80 80 35 36 03 0E 00  ....6......56...
3630: A6 80 01 85 36 02 16 00  0F 80 80 45 36 03 0E 00  ....6......E6...
3640: 96 80 01 85 36 02 16 00  1A 80 80 55 36 03 0E 00  ....6......U6...
3650: 9B 80 01 85 36 02 16 00  1B 80 80 65 36 03 0E 00  ....6......e6...
3660: 91 80 01 85 36 02 16 00  1C 80 80 75 36 03 0E 00  ....6......u6...
3670: 9D 80 01 85 36 02 16 00  25 80 80 85 36 03 0E 00  ....6...%...6...
3680: A7 80 01 85 36 01 88 36  1B 02 15 00 08 80 80 54  ....6..6.......T
3690: 37 02 16 00 08 80 80 A1  36 03 0F 00 56 80 01 51  7.......6...V..Q
36A0: 37 02 16 00 09 80 80 B1  36 03 0F 00 0A 80 01 51  7.......6......Q
36B0: 37 02 16 00 0A 80 80 C1  36 03 0F 00 83 80 01 51  7.......6......Q
36C0: 37 02 16 00 0B 80 80 D1  36 03 0F 00 A1 80 01 51  7.......6......Q
36D0: 37 02 16 00 0C 80 80 E1  36 03 0F 00 8A 80 01 51  7.......6......Q
36E0: 37 02 16 00 0D 80 80 F1  36 03 0F 00 46 80 01 51  7.......6...F..Q
36F0: 37 02 16 00 0E 80 80 01  37 03 0F 00 1B 80 01 51  7.......7......Q
3700: 37 02 16 00 0F 80 80 11  37 03 0F 00 88 80 01 51  7.......7......Q
3710: 37 02 16 00 1A 80 80 21  37 03 0F 00 8D 80 01 51  7......!7......Q
3720: 37 02 16 00 1B 80 80 31  37 03 0F 00 A0 80 01 51  7......17......Q
3730: 37 02 16 00 1C 80 80 41  37 03 0F 00 A2 80 01 51  7......A7......Q
3740: 37 02 16 00 25 80 80 51  37 03 0F 00 9F 80 01 51  7...%..Q7......Q
3750: 37 01 B5 39 02 15 00 09  80 80 1F 38 02 16 00 08  7..9.......8....
3760: 80 80 6C 37 03 0F 00 0E  80 01 1C 38 02 16 00 09  ..l7.......8....
3770: 80 80 7C 37 03 0F 00 0D  80 01 1C 38 02 16 00 0A  ..|7.......8....
3780: 80 80 8C 37 03 0F 00 81  80 01 1C 38 02 16 00 0B  ...7.......8....
3790: 80 80 9C 37 03 0F 00 7B  80 01 1C 38 02 16 00 0C  ...7...{...8....
37A0: 80 80 AC 37 03 0F 00 90  80 01 1C 38 02 16 00 0D  ...7.......8....
37B0: 80 80 BC 37 03 0F 00 22  80 01 1C 38 02 16 00 0E  ...7..."...8....
37C0: 80 80 CC 37 03 0F 00 0F  80 01 1C 38 02 16 00 0F  ...7.......8....
37D0: 80 80 DC 37 03 0F 00 0C  80 01 1C 38 02 16 00 1A  ...7.......8....
37E0: 80 80 EC 37 03 0F 00 1D  80 01 1C 38 02 16 00 1B  ...7.......8....
37F0: 80 80 FC 37 03 0F 00 28  80 01 1C 38 02 16 00 1C  ...7...(...8....
3800: 80 80 0C 38 03 0F 00 8C  80 01 1C 38 02 16 00 25  ...8.......8...%
3810: 80 80 1C 38 03 0F 00 9E  80 01 1C 38 01 B5 39 02  ...8.......8..9.
3820: 15 00 0A 80 80 EA 38 02  16 00 08 80 80 37 38 03  ......8......78.
3830: 0F 00 2A 80 01 E7 38 02  16 00 09 80 80 47 38 03  ..*...8......G8.
3840: 0F 00 82 80 01 E7 38 02  16 00 0A 80 80 57 38 03  ......8......W8.
3850: 0F 00 98 80 01 E7 38 02  16 00 0B 80 80 67 38 03  ......8......g8.
3860: 0F 00 21 80 01 E7 38 02  16 00 0C 80 80 77 38 03  ..!...8......w8.
3870: 0F 00 1E 80 01 E7 38 02  16 00 0D 80 80 87 38 03  ......8.......8.
3880: 0F 00 20 80 01 E7 38 02  16 00 0E 80 80 97 38 03  .. ...8.......8.
3890: 0F 00 1F 80 01 E7 38 02  16 00 0F 80 80 A7 38 03  ......8.......8.
38A0: 0F 00 25 80 01 E7 38 02  16 00 1A 80 80 B7 38 03  ..%...8.......8.
38B0: 0F 00 84 80 01 E7 38 02  16 00 1B 80 80 C7 38 03  ......8.......8.
38C0: 0F 00 94 80 01 E7 38 02  16 00 1C 80 80 D7 38 03  ......8.......8.
38D0: 0F 00 9C 80 01 E7 38 02  16 00 25 80 80 E7 38 03  ......8...%...8.
38E0: 0F 00 4B 80 01 E7 38 01  B5 39 02 15 00 0B 80 80  ..K...8..9......
38F0: B5 39 02 16 00 08 80 80  02 39 03 0F 00 1A 80 01  .9.......9......
3900: B2 39 02 16 00 09 80 80  12 39 03 0F 00 A8 80 01  .9.......9......
3910: B2 39 02 16 00 0A 80 80  22 39 03 0F 00 08 80 01  .9......"9......
3920: B2 39 02 16 00 0B 80 80  32 39 03 0F 00 27 80 01  .9......29...'..
3930: B2 39 02 16 00 0C 80 80  42 39 03 0F 00 A4 80 01  .9......B9......
3940: B2 39 02 16 00 0D 80 80  52 39 03 0F 00 A9 80 01  .9......R9......
3950: B2 39 02 16 00 0E 80 80  62 39 03 0F 00 26 80 01  .9......b9...&..
3960: B2 39 02 16 00 0F 80 80  72 39 03 0F 00 96 80 01  .9......r9......
3970: B2 39 02 16 00 1A 80 80  82 39 03 0F 00 0B 80 01  .9.......9......
3980: B2 39 02 16 00 1B 80 80  92 39 03 0F 00 23 80 01  .9.......9...#..
3990: B2 39 02 16 00 1C 80 80  A2 39 03 0F 00 9D 80 01  .9.......9......
39A0: B2 39 02 16 00 25 80 80  B2 39 03 0F 00 A7 80 01  .9...%...9......
39B0: B2 39 01 B5 39 1B 02 15  00 08 80 80 81 3A 02 16  .9..9........:..
39C0: 00 08 80 80 CE 39 03 10  00 56 80 01 7E 3A 02 16  .....9...V..~:..
39D0: 00 09 80 80 DE 39 03 10  00 0A 80 01 7E 3A 02 16  .....9......~:..
39E0: 00 0A 80 80 EE 39 03 10  00 83 80 01 7E 3A 02 16  .....9......~:..
39F0: 00 0B 80 80 FE 39 03 10  00 A1 80 01 7E 3A 02 16  .....9......~:..
3A00: 00 0C 80 80 0E 3A 03 10  00 85 80 01 7E 3A 02 16  .....:......~:..
3A10: 00 0D 80 80 1E 3A 03 10  00 46 80 01 7E 3A 02 16  .....:...F..~:..
3A20: 00 0E 80 80 2E 3A 03 10  00 1B 80 01 7E 3A 02 16  .....:......~:..
3A30: 00 0F 80 80 3E 3A 03 10  00 8E 80 01 7E 3A 02 16  ....>:......~:..
3A40: 00 1A 80 80 4E 3A 03 10  00 8D 80 01 7E 3A 02 16  ....N:......~:..
3A50: 00 1B 80 80 5E 3A 03 10  00 A0 80 01 7E 3A 02 16  ....^:......~:..
3A60: 00 1C 80 80 6E 3A 03 10  00 A2 80 01 7E 3A 02 16  ....n:......~:..
3A70: 00 25 80 80 7E 3A 03 10  00 9F 80 01 7E 3A 01 E2  .%..~:......~:..
3A80: 3C 02 15 00 09 80 80 4C  3B 02 16 00 08 80 80 99  <......L;.......
3A90: 3A 03 10 00 0E 80 01 49  3B 02 16 00 09 80 80 A9  :......I;.......
3AA0: 3A 03 10 00 0D 80 01 49  3B 02 16 00 0A 80 80 B9  :......I;.......
3AB0: 3A 03 10 00 81 80 01 49  3B 02 16 00 0B 80 80 C9  :......I;.......
3AC0: 3A 03 10 00 7B 80 01 49  3B 02 16 00 0C 80 80 D9  :...{..I;.......
3AD0: 3A 03 10 00 90 80 01 49  3B 02 16 00 0D 80 80 E9  :......I;.......
3AE0: 3A 03 10 00 22 80 01 49  3B 02 16 00 0E 80 80 F9  :..."..I;.......
3AF0: 3A 03 10 00 0F 80 01 49  3B 02 16 00 0F 80 80 09  :......I;.......
3B00: 3B 03 10 00 0C 80 01 49  3B 02 16 00 1A 80 80 19  ;......I;.......
3B10: 3B 03 10 00 1D 80 01 49  3B 02 16 00 1B 80 80 29  ;......I;......)
3B20: 3B 03 10 00 28 80 01 49  3B 02 16 00 1C 80 80 39  ;...(..I;......9
3B30: 3B 03 10 00 8C 80 01 49  3B 02 16 00 25 80 80 49  ;......I;...%..I
3B40: 3B 03 10 00 9E 80 01 49  3B 01 E2 3C 02 15 00 0A  ;......I;..<....
3B50: 80 80 17 3C 02 16 00 08  80 80 64 3B 03 10 00 2A  ...<......d;...*
3B60: 80 01 14 3C 02 16 00 09  80 80 74 3B 03 10 00 82  ...<......t;....
3B70: 80 01 14 3C 02 16 00 0A  80 80 84 3B 03 10 00 98  ...<.......;....
3B80: 80 01 14 3C 02 16 00 0B  80 80 94 3B 03 10 00 21  ...<.......;...!
3B90: 80 01 14 3C 02 16 00 0C  80 80 A4 3B 03 10 00 1E  ...<.......;....
3BA0: 80 01 14 3C 02 16 00 0D  80 80 B4 3B 03 10 00 20  ...<.......;... 
3BB0: 80 01 14 3C 02 16 00 0E  80 80 C4 3B 03 10 00 1F  ...<.......;....
3BC0: 80 01 14 3C 02 16 00 0F  80 80 D4 3B 03 10 00 25  ...<.......;...%
3BD0: 80 01 14 3C 02 16 00 1A  80 80 E4 3B 03 10 00 84  ...<.......;....
3BE0: 80 01 14 3C 02 16 00 1B  80 80 F4 3B 03 10 00 94  ...<.......;....
3BF0: 80 01 14 3C 02 16 00 1C  80 80 04 3C 03 10 00 9C  ...<.......<....
3C00: 80 01 14 3C 02 16 00 25  80 80 14 3C 03 10 00 4B  ...<...%...<...K
3C10: 80 01 14 3C 01 E2 3C 02  15 00 0B 80 80 E2 3C 02  ...<..<.......<.
3C20: 16 00 08 80 80 2F 3C 03  10 00 1A 80 01 DF 3C 02  ...../<.......<.
3C30: 16 00 09 80 80 3F 3C 03  10 00 AA 80 01 DF 3C 02  .....?<.......<.
3C40: 16 00 0A 80 80 4F 3C 03  10 00 23 80 01 DF 3C 02  .....O<...#...<.
3C50: 16 00 0B 80 80 5F 3C 03  10 00 27 80 01 DF 3C 02  ....._<...'...<.
3C60: 16 00 0C 80 80 6F 3C 03  10 00 A8 80 01 DF 3C 02  .....o<.......<.
3C70: 16 00 0D 80 80 7F 3C 03  10 00 95 80 01 DF 3C 02  ......<.......<.
3C80: 16 00 0E 80 80 8F 3C 03  10 00 26 80 01 DF 3C 02  ......<...&...<.
3C90: 16 00 0F 80 80 9F 3C 03  10 00 96 80 01 DF 3C 02  ......<.......<.
3CA0: 16 00 1A 80 80 AF 3C 03  10 00 0B 80 01 DF 3C 02  ......<.......<.
3CB0: 16 00 1B 80 80 BF 3C 03  10 00 9B 80 01 DF 3C 02  ......<.......<.
3CC0: 16 00 1C 80 80 CF 3C 03  10 00 9D 80 01 DF 3C 02  ......<.......<.
3CD0: 16 00 25 80 80 DF 3C 03  10 00 A7 80 01 DF 3C 01  ..%...<.......<.
3CE0: E2 3C 1B 02 15 00 08 80  80 AE 3D 02 16 00 08 80  .<........=.....
3CF0: 80 FB 3C 03 11 00 56 80  01 AB 3D 02 16 00 09 80  ..<...V...=.....
3D00: 80 0B 3D 03 11 00 0A 80  01 AB 3D 02 16 00 0A 80  ..=.......=.....
3D10: 80 1B 3D 03 11 00 83 80  01 AB 3D 02 16 00 0B 80  ..=.......=.....
3D20: 80 2B 3D 03 11 00 A1 80  01 AB 3D 02 16 00 0C 80  .+=.......=.....
3D30: 80 3B 3D 03 11 00 85 80  01 AB 3D 02 16 00 0D 80  .;=.......=.....
3D40: 80 4B 3D 03 11 00 46 80  01 AB 3D 02 16 00 0E 80  .K=...F...=.....
3D50: 80 5B 3D 03 11 00 1B 80  01 AB 3D 02 16 00 0F 80  .[=.......=.....
3D60: 80 6B 3D 03 11 00 8E 80  01 AB 3D 02 16 00 1A 80  .k=.......=.....
3D70: 80 7B 3D 03 11 00 8D 80  01 AB 3D 02 16 00 1B 80  .{=.......=.....
3D80: 80 8B 3D 03 11 00 A0 80  01 AB 3D 02 16 00 1C 80  ..=.......=.....
3D90: 80 9B 3D 03 11 00 A2 80  01 AB 3D 02 16 00 25 80  ..=.......=...%.
3DA0: 80 AB 3D 03 11 00 9F 80  01 AB 3D 01 0F 40 02 15  ..=.......=..@..
3DB0: 00 09 80 80 79 3E 02 16  00 08 80 80 C6 3D 03 11  ....y>.......=..
3DC0: 00 0E 80 01 76 3E 02 16  00 09 80 80 D6 3D 03 11  ....v>.......=..
3DD0: 00 0D 80 01 76 3E 02 16  00 0A 80 80 E6 3D 03 11  ....v>.......=..
3DE0: 00 81 80 01 76 3E 02 16  00 0B 80 80 F6 3D 03 11  ....v>.......=..
3DF0: 00 7B 80 01 76 3E 02 16  00 0C 80 80 06 3E 03 11  .{..v>.......>..
3E00: 00 90 80 01 76 3E 02 16  00 0D 80 80 16 3E 03 11  ....v>.......>..
3E10: 00 22 80 01 76 3E 02 16  00 0E 80 80 26 3E 03 11  ."..v>......&>..
3E20: 00 0F 80 01 76 3E 02 16  00 0F 80 80 36 3E 03 11  ....v>......6>..
3E30: 00 0C 80 01 76 3E 02 16  00 1A 80 80 46 3E 03 11  ....v>......F>..
3E40: 00 1D 80 01 76 3E 02 16  00 1B 80 80 56 3E 03 11  ....v>......V>..
3E50: 00 28 80 01 76 3E 02 16  00 1C 80 80 66 3E 03 11  .(..v>......f>..
3E60: 00 8C 80 01 76 3E 02 16  00 25 80 80 76 3E 03 11  ....v>...%..v>..
3E70: 00 9E 80 01 76 3E 01 0F  40 02 15 00 0A 80 80 44  ....v>..@......D
3E80: 3F 02 16 00 08 80 80 91  3E 03 11 00 2A 80 01 41  ?.......>...*..A
3E90: 3F 02 16 00 09 80 80 A1  3E 03 11 00 82 80 01 41  ?.......>......A
3EA0: 3F 02 16 00 0A 80 80 B1  3E 03 11 00 98 80 01 41  ?.......>......A
3EB0: 3F 02 16 00 0B 80 80 C1  3E 03 11 00 21 80 01 41  ?.......>...!..A
3EC0: 3F 02 16 00 0C 80 80 D1  3E 03 11 00 1E 80 01 41  ?.......>......A
3ED0: 3F 02 16 00 0D 80 80 E1  3E 03 11 00 20 80 01 41  ?.......>... ..A
3EE0: 3F 02 16 00 0E 80 80 F1  3E 03 11 00 1F 80 01 41  ?.......>......A
3EF0: 3F 02 16 00 0F 80 80 01  3F 03 11 00 25 80 01 41  ?.......?...%..A
3F00: 3F 02 16 00 1A 80 80 11  3F 03 11 00 84 80 01 41  ?.......?......A
3F10: 3F 02 16 00 1B 80 80 21  3F 03 11 00 94 80 01 41  ?......!?......A
3F20: 3F 02 16 00 1C 80 80 31  3F 03 11 00 9C 80 01 41  ?......1?......A
3F30: 3F 02 16 00 25 80 80 41  3F 03 11 00 4B 80 01 41  ?...%..A?...K..A
3F40: 3F 01 0F 40 02 15 00 0B  80 80 0F 40 02 16 00 08  ?..@.......@....
3F50: 80 80 5C 3F 03 11 00 1A  80 01 0C 40 02 16 00 09  ..\?.......@....
3F60: 80 80 6C 3F 03 11 00 12  80 01 0C 40 02 16 00 0A  ..l?.......@....
3F70: 80 80 7C 3F 03 11 00 0B  80 01 0C 40 02 16 00 0B  ..|?.......@....
3F80: 80 80 8C 3F 03 11 00 27  80 01 0C 40 02 16 00 0C  ...?...'...@....
3F90: 80 80 9C 3F 03 11 00 AA  80 01 0C 40 02 16 00 0D  ...?.......@....
3FA0: 80 80 AC 3F 03 11 00 08  80 01 0C 40 02 16 00 0E  ...?.......@....
3FB0: 80 80 BC 3F 03 11 00 26  80 01 0C 40 02 16 00 0F  ...?...&...@....
3FC0: 80 80 CC 3F 03 11 00 96  80 01 0C 40 02 16 00 1A  ...?.......@....
3FD0: 80 80 DC 3F 03 11 00 1C  80 01 0C 40 02 16 00 1B  ...?.......@....
3FE0: 80 80 EC 3F 03 11 00 23  80 01 0C 40 02 16 00 1C  ...?...#...@....
3FF0: 80 80 FC 3F 03 11 00 9D  80 01 0C 40 02 16 00 25  ...?.......@...%
4000: 80 80 0C 40 03 11 00 A7  80 01 0C 40 01 0F 40 1B  ...@.......@..@.
4010: 02 17 00 08 80 80 AE 40  02 16 00 08 80 80 2D 40  .......@......-@
4020: 03 12 00 5A 80 03 13 00  5A 80 01 AB 40 02 16 00  ...Z....Z...@...
4030: 09 80 80 42 40 03 12 00  93 80 03 13 00 93 80 01  ...B@...........
4040: AB 40 02 16 00 0A 80 80  57 40 03 12 00 4B 80 03  .@......W@...K..
4050: 13 00 4B 80 01 AB 40 02  16 00 0B 80 80 6C 40 03  ..K...@......l@.
4060: 12 00 AB 80 03 13 00 AB  80 01 AB 40 02 16 00 0C  ...........@....
4070: 80 80 81 40 03 12 00 AC  80 03 13 00 AC 80 01 AB  ...@............
4080: 40 02 16 00 0D 80 80 96  40 03 12 00 A1 80 03 13  @.......@.......
4090: 00 A1 80 01 AB 40 02 16  00 0E 80 80 AB 40 03 12  .....@.......@..
40A0: 00 AD 80 03 13 00 AD 80  01 AB 40 01 F7 45 02 17  ..........@..E..
40B0: 00 09 80 80 29 41 02 16  00 08 80 80 C6 40 03 12  ....)A.......@..
40C0: 00 AE 80 01 26 41 02 16  00 09 80 80 D6 40 03 12  ....&A.......@..
40D0: 00 AF 80 01 26 41 02 16  00 0A 80 80 E6 40 03 12  ....&A.......@..
40E0: 00 B0 80 01 26 41 02 16  00 0B 80 80 F6 40 03 12  ....&A.......@..
40F0: 00 B1 80 01 26 41 02 16  00 0C 80 80 06 41 03 12  ....&A.......A..
4100: 00 B2 80 01 26 41 02 16  00 0D 80 80 16 41 03 12  ....&A.......A..
4110: 00 B3 80 01 26 41 02 16  00 0E 80 80 26 41 03 12  ....&A......&A..
4120: 00 B4 80 01 26 41 01 F7  45 02 17 00 0A 80 80 A4  ....&A..E.......
4130: 41 02 16 00 08 80 80 41  41 03 12 00 B5 80 01 A1  A......AA.......
4140: 41 02 16 00 09 80 80 51  41 03 12 00 B6 80 01 A1  A......QA.......
4150: 41 02 16 00 0A 80 80 61  41 03 12 00 B7 80 01 A1  A......aA.......
4160: 41 02 16 00 0B 80 80 71  41 03 12 00 B8 80 01 A1  A......qA.......
4170: 41 02 16 00 0C 80 80 81  41 03 12 00 B9 80 01 A1  A.......A.......
4180: 41 02 16 00 0D 80 80 91  41 03 12 00 BA 80 01 A1  A.......A.......
4190: 41 02 16 00 0E 80 80 A1  41 03 12 00 4F 80 01 A1  A.......A...O...
41A0: 41 01 F7 45 02 17 00 0B  80 80 1F 42 02 16 00 08  A..E.......B....
41B0: 80 80 BC 41 03 12 00 BB  80 01 1C 42 02 16 00 09  ...A.......B....
41C0: 80 80 CC 41 03 12 00 BC  80 01 1C 42 02 16 00 0A  ...A.......B....
41D0: 80 80 DC 41 03 12 00 BD  80 01 1C 42 02 16 00 0B  ...A.......B....
41E0: 80 80 EC 41 03 12 00 BE  80 01 1C 42 02 16 00 0C  ...A.......B....
41F0: 80 80 FC 41 03 12 00 BF  80 01 1C 42 02 16 00 0D  ...A.......B....
4200: 80 80 0C 42 03 12 00 C0  80 01 1C 42 02 16 00 0E  ...B.......B....
4210: 80 80 1C 42 03 12 00 C1  80 01 1C 42 01 F7 45 02  ...B.......B..E.
4220: 17 00 0C 80 80 9A 42 02  16 00 08 80 80 37 42 03  ......B......7B.
4230: 12 00 C2 80 01 97 42 02  16 00 09 80 80 47 42 03  ......B......GB.
4240: 12 00 C3 80 01 97 42 02  16 00 0A 80 80 57 42 03  ......B......WB.
4250: 12 00 C4 80 01 97 42 02  16 00 0B 80 80 67 42 03  ......B......gB.
4260: 12 00 C5 80 01 97 42 02  16 00 0C 80 80 77 42 03  ......B......wB.
4270: 12 00 C6 80 01 97 42 02  16 00 0D 80 80 87 42 03  ......B.......B.
4280: 12 00 C7 80 01 97 42 02  16 00 0E 80 80 97 42 03  ......B.......B.
4290: 12 00 C8 80 01 97 42 01  F7 45 02 17 00 0D 80 80  ......B..E......
42A0: 15 43 02 16 00 08 80 80  B2 42 03 12 00 87 80 01  .C.......B......
42B0: 12 43 02 16 00 09 80 80  C2 42 03 12 00 10 80 01  .C.......B......
42C0: 12 43 02 16 00 0A 80 80  D2 42 03 12 00 C9 80 01  .C.......B......
42D0: 12 43 02 16 00 0B 80 80  E2 42 03 12 00 17 80 01  .C.......B......
42E0: 12 43 02 16 00 0C 80 80  F2 42 03 12 00 18 80 01  .C.......B......
42F0: 12 43 02 16 00 0D 80 80  02 43 03 12 00 CA 80 01  .C.......C......
4300: 12 43 02 16 00 0E 80 80  12 43 03 12 00 64 80 01  .C.......C...d..
4310: 12 43 01 F7 45 02 17 00  0E 80 80 90 43 02 16 00  .C..E.......C...
4320: 08 80 80 2D 43 03 12 00  CB 80 01 8D 43 02 16 00  ...-C.......C...
4330: 09 80 80 3D 43 03 12 00  47 80 01 8D 43 02 16 00  ...=C...G...C...
4340: 0A 80 80 4D 43 03 12 00  CC 80 01 8D 43 02 16 00  ...MC.......C...
4350: 0B 80 80 5D 43 03 12 00  CD 80 01 8D 43 02 16 00  ...]C.......C...
4360: 0C 80 80 6D 43 03 12 00  CE 80 01 8D 43 02 16 00  ...mC.......C...
4370: 0D 80 80 7D 43 03 12 00  CF 80 01 8D 43 02 16 00  ...}C.......C...
4380: 0E 80 80 8D 43 03 12 00  D0 80 01 8D 43 01 F7 45  ....C.......C..E
4390: 02 17 00 0F 80 80 0B 44  02 16 00 08 80 80 A8 43  .......D.......C
43A0: 03 12 00 D1 80 01 08 44  02 16 00 09 80 80 B8 43  .......D.......C
43B0: 03 12 00 D2 80 01 08 44  02 16 00 0A 80 80 C8 43  .......D.......C
43C0: 03 12 00 D3 80 01 08 44  02 16 00 0B 80 80 D8 43  .......D.......C
43D0: 03 12 00 D4 80 01 08 44  02 16 00 0C 80 80 E8 43  .......D.......C
43E0: 03 12 00 D5 80 01 08 44  02 16 00 0D 80 80 F8 43  .......D.......C
43F0: 03 12 00 D6 80 01 08 44  02 16 00 0E 80 80 08 44  .......D.......D
4400: 03 12 00 D7 80 01 08 44  01 F7 45 02 17 00 1A 80  .......D..E.....
4410: 80 86 44 02 16 00 08 80  80 23 44 03 12 00 D8 80  ..D......#D.....
4420: 01 83 44 02 16 00 09 80  80 33 44 03 12 00 D9 80  ..D......3D.....
4430: 01 83 44 02 16 00 0A 80  80 43 44 03 12 00 DA 80  ..D......CD.....
4440: 01 83 44 02 16 00 0B 80  80 53 44 03 12 00 DB 80  ..D......SD.....
4450: 01 83 44 02 16 00 0C 80  80 63 44 03 12 00 DC 80  ..D......cD.....
4460: 01 83 44 02 16 00 0D 80  80 73 44 03 12 00 DD 80  ..D......sD.....
4470: 01 83 44 02 16 00 0E 80  80 83 44 03 12 00 DE 80  ..D.......D.....
4480: 01 83 44 01 F7 45 02 17  00 1B 80 80 01 45 02 16  ..D..E.......E..
4490: 00 08 80 80 9E 44 03 12  00 DF 80 01 FE 44 02 16  .....D.......D..
44A0: 00 09 80 80 AE 44 03 12  00 E0 80 01 FE 44 02 16  .....D.......D..
44B0: 00 0A 80 80 BE 44 03 12  00 E1 80 01 FE 44 02 16  .....D.......D..
44C0: 00 0B 80 80 CE 44 03 12  00 E2 80 01 FE 44 02 16  .....D.......D..
44D0: 00 0C 80 80 DE 44 03 12  00 E3 80 01 FE 44 02 16  .....D.......D..
44E0: 00 0D 80 80 EE 44 03 12  00 E4 80 01 FE 44 02 16  .....D.......D..
44F0: 00 0E 80 80 FE 44 03 12  00 E5 80 01 FE 44 01 F7  .....D.......D..
4500: 45 02 17 00 1C 80 80 7C  45 02 16 00 08 80 80 19  E......|E.......
4510: 45 03 12 00 AA 80 01 79  45 02 16 00 09 80 80 29  E......yE......)
4520: 45 03 12 00 E6 80 01 79  45 02 16 00 0A 80 80 39  E......yE......9
4530: 45 03 12 00 E7 80 01 79  45 02 16 00 0B 80 80 49  E......yE......I
4540: 45 03 12 00 E8 80 01 79  45 02 16 00 0C 80 80 59  E......yE......Y
4550: 45 03 12 00 9C 80 01 79  45 02 16 00 0D 80 80 69  E......yE......i
4560: 45 03 12 00 E9 80 01 79  45 02 16 00 0E 80 80 79  E......yE......y
4570: 45 03 12 00 EA 80 01 79  45 01 F7 45 02 17 00 25  E......yE..E...%
4580: 80 80 F7 45 02 16 00 08  80 80 94 45 03 12 00 EB  ...E.......E....
4590: 80 01 F4 45 02 16 00 09  80 80 A4 45 03 12 00 EC  ...E.......E....
45A0: 80 01 F4 45 02 16 00 0A  80 80 B4 45 03 12 00 ED  ...E.......E....
45B0: 80 01 F4 45 02 16 00 0B  80 80 C4 45 03 12 00 EE  ...E.......E....
45C0: 80 01 F4 45 02 16 00 0C  80 80 D4 45 03 12 00 EF  ...E.......E....
45D0: 80 01 F4 45 02 16 00 0D  80 80 E4 45 03 12 00 F0  ...E.......E....
45E0: 80 01 F4 45 02 16 00 0E  80 80 F4 45 03 12 00 F1  ...E.......E....
45F0: 80 01 F4 45 01 F7 45 1B  02 17 00 08 80 80 03 46  ...E..E........F
4600: 01 D3 46 02 17 00 0B 80  80 13 46 03 17 00 08 80  ..F.......F.....
4610: 01 D3 46 02 17 00 0D 80  80 23 46 03 17 00 08 80  ..F......#F.....
4620: 01 D3 46 02 17 00 0E 80  80 33 46 03 17 00 08 80  ..F......3F.....
4630: 01 D3 46 02 17 00 0F 80  80 43 46 03 17 00 08 80  ..F......CF.....
4640: 01 D3 46 02 17 00 1B 80  80 53 46 03 17 00 08 80  ..F......SF.....
4650: 01 D3 46 02 17 00 25 80  80 63 46 03 17 00 08 80  ..F...%..cF.....
4660: 01 D3 46 02 16 00 08 80  80 73 46 03 13 00 F2 80  ..F......sF.....
4670: 01 D3 46 02 16 00 09 80  80 83 46 03 13 00 27 80  ..F.......F...'.
4680: 01 D3 46 02 16 00 0A 80  80 93 46 03 13 00 F3 80  ..F.......F.....
4690: 01 D3 46 02 16 00 0B 80  80 A3 46 03 13 00 04 80  ..F.......F.....
46A0: 01 D3 46 02 16 00 0C 80  80 B3 46 03 13 00 46 80  ..F.......F...F.
46B0: 01 D3 46 02 16 00 0D 80  80 C3 46 03 13 00 A3 80  ..F.......F.....
46C0: 01 D3 46 02 16 00 0E 80  80 D3 46 03 13 00 81 80  ..F.......F.....
46D0: 01 D3 46 1B 02 14 00 08  80 80 DF 46 01 D6 47 02  ..F........F..G.
46E0: 14 00 09 80 80 EF 46 03  0D 00 F4 80 01 D6 47 02  ......F.......G.
46F0: 14 00 0A 80 80 FF 46 03  0D 00 AC 80 01 D6 47 02  ......F.......G.
4700: 14 00 0B 80 80 0F 47 03  0D 00 F5 80 01 D6 47 02  ......G.......G.
4710: 14 00 0C 80 80 1F 47 03  0D 00 F6 80 01 D6 47 02  ......G.......G.
4720: 14 00 0D 80 80 2F 47 03  0D 00 D2 80 01 D6 47 02  ...../G.......G.
4730: 14 00 0E 80 80 3F 47 03  0D 00 12 80 01 D6 47 02  .....?G.......G.
4740: 14 00 0F 80 80 4F 47 03  0D 00 5F 80 01 D6 47 02  .....OG..._...G.
4750: 14 00 1A 80 80 5F 47 03  0D 00 58 80 01 D6 47 02  ....._G...X...G.
4760: 14 00 1B 80 80 D6 47 02  0B 00 08 80 80 72 47 01  ......G......rG.
4770: D3 47 02 0B 00 09 80 80  82 47 03 0D 00 F7 80 01  .G.......G......
4780: D3 47 02 0B 00 0A 80 80  8D 47 01 D3 47 02 0B 00  .G.......G..G...
4790: 0B 80 80 9D 47 03 0D 00  F7 80 01 D3 47 02 0B 00  ....G.......G...
47A0: 0C 80 80 A8 47 01 D3 47  02 0B 00 0D 80 80 B8 47  ....G..G.......G
47B0: 03 0D 00 F7 80 01 D3 47  02 0B 00 0E 80 80 C8 47  .......G.......G
47C0: 03 0D 00 F7 80 01 D3 47  02 0B 00 0F 80 80 D3 47  .......G.......G
47D0: 01 D3 47 01 D6 47 1B 02  14 00 08 80 80 E2 47 01  ..G..G........G.
47E0: 20 48 02 14 00 09 80 80  01 48 03 0E 00 E7 80 03   H.......H......
47F0: 0F 00 E7 80 03 10 00 E7  80 03 11 00 E7 80 01 20  ............... 
4800: 48 02 14 00 0A 80 80 20  48 03 0E 00 F7 80 03 0F  H...... H.......
4810: 00 F7 80 03 10 00 F7 80  03 11 00 F7 80 01 20 48  .............. H
4820: 1B 02 14 00 08 80 80 2C  48 01 81 48 02 14 00 09  .......,H..H....
4830: 80 80 3C 48 03 12 00 F8  80 01 81 48 02 14 00 0A  ..<H.......H....
4840: 80 80 4C 48 03 12 00 F9  80 01 81 48 02 14 00 0B  ..LH.......H....
4850: 80 80 61 48 03 12 00 FA  80 03 13 00 08 80 01 81  ..aH............
4860: 48 02 14 00 0C 80 80 71  48 03 12 00 FB 80 01 81  H......qH.......
4870: 48 02 14 00 0D 80 80 81  48 03 12 00 FC 80 01 81  H.......H.......
4880: 48 1B                                             H.              
```

#### Opcodes

```
  0: 0x0019 [0x32] ExtData[1]->MainSpeed = 40* * 0.1
  1: 0x001C [0x1F] MOVE_ENTITY: EventEntity moves to X=168.855*, Z=-200.937*, Y=20.100*
  2: 0x0024 [0x1F] MOVE_ENTITY: Update entity position (mode=1)
  3: 0x0026 [0x00] END_REQSTACK()
```

#### Data or dead code:

```
# Dead code (unreachable instructions):
     0x0027 [0x03] ExtData[1]->WorkLocal[2] = 0*
     0x002C [0x1A] CALL_SUBROUTINE(address=0x1472)
     0x002F [0x1A] CALL_SUBROUTINE(address=0x147C)
     0x0032 [0x02] IF !(ExtData[1]->WorkLocal[11] == 0*) GOTO 0x0135
     0x003A [0x02] IF !(ExtData[1]->WorkLocal[1] == 0*) GOTO 0x0059
     0x0042 [0xB4] UI_WINDOW_STRING_HANDLER(case=0x00 - Copy string from opcode, work_offset=ExtData[1]->WorkLocal[2], string="Feliz")
     0x0056 [0x01] GOTO 0x0132
     0x0059 [0x02] IF !(ExtData[1]->WorkLocal[1] == 1*) GOTO 0x0078
     0x0061 [0xB4] UI_WINDOW_STRING_HANDLER(case=0x00 - Copy string from opcode, work_offset=ExtData[1]->WorkLocal[2], string="Ferdinand")
     0x0075 [0x01] GOTO 0x0132
     0x0078 [0x02] IF !(ExtData[1]->WorkLocal[1] == 2*) GOTO 0x0097
     0x0080 [0xB4] UI_WINDOW_STRING_HANDLER(case=0x00 - Copy string from opcode, work_offset=ExtData[1]->WorkLocal[2], string="Gunnar")
     0x0094 [0x01] GOTO 0x0132
     0x0097 [0x02] IF !(ExtData[1]->WorkLocal[1] == 3*) GOTO 0x00B6
     0x009F [0xB4] UI_WINDOW_STRING_HANDLER(case=0x00 - Copy string from opcode, work_offset=ExtData[1]->WorkLocal[2], string="Massimo")
     0x00B3 [0x01] GOTO 0x0132
     0x00B6 [0x02] IF !(ExtData[1]->WorkLocal[1] == 4*) GOTO 0x00D5
     0x00BE [0xB4] UI_WINDOW_STRING_HANDLER(case=0x00 - Copy string from opcode, work_offset=ExtData[1]->WorkLocal[2], string="Oldrich")
     0x00D2 [0x01] GOTO 0x0132
     0x00D5 [0x02] IF !(ExtData[1]->WorkLocal[1] == 5*) GOTO 0x00F4
     0x00DD [0xB4] UI_WINDOW_STRING_HANDLER(case=0x00 - Copy string from opcode, work_offset=ExtData[1]->WorkLocal[2], string="Siegward")
     0x00F1 [0x01] GOTO 0x0132
     0x00F4 [0x02] IF !(ExtData[1]->WorkLocal[1] == 6*) GOTO 0x0113
     0x00FC [0xB4] UI_WINDOW_STRING_HANDLER(case=0x00 - Copy string from opcode, work_offset=ExtData[1]->WorkLocal[2], string="Theobald")
     0x0110 [0x01] GOTO 0x0132
     0x0113 [0x02] IF !(ExtData[1]->WorkLocal[1] == 7*) GOTO 0x0132
     0x011B [0xB4] UI_WINDOW_STRING_HANDLER(case=0x00 - Copy string from opcode, work_offset=ExtData[1]->WorkLocal[2], string="Zenji")
