# 0x7FFFFFF0 - Zone Events

## Common Data

| Field            | Value                  |
|------------------|------------------------|
| Zone             | Qufim Island (ID: 126) |
| Block Size       | 4528 bytes             |
| Total Events     | 58                     |
| References Count | 208                    |

## List of Events

| Event ID                   | Entrypoint   |   Size |   Instructions |
|----------------------------|--------------|--------|----------------|
| [65535](#event-65535)      | 0x0000       |      4 |              2 |
| [65534](#event-65534)      | 0x0004       |      1 |              1 |
| [1](#event-1)              | 0x0005       |    462 |             66 |
| [0](#event-0)              | 0x01D3       |    896 |            131 |
| [100](#event-100)          | 0x0553       |    953 |            118 |
| [10000](#event-10000)      | 0x090C       |      1 |              1 |
| [65535.1](#event-655351)   | 0x090D       |     21 |              5 |
| [65535.2](#event-655352)   | 0x0922       |     91 |             18 |
| [65535.3](#event-655353)   | 0x097D       |     53 |              9 |
| [65535.4](#event-655354)   | 0x09B2       |     34 |              7 |
| [65535.5](#event-655355)   | 0x09D4       |     10 |              2 |
| [65535.6](#event-655356)   | 0x09DE       |     10 |              2 |
| [65535.7](#event-655357)   | 0x09E8       |     10 |              2 |
| [65535.8](#event-655358)   | 0x09F2       |     10 |              2 |
| [65535.9](#event-655359)   | 0x09FC       |     10 |              2 |
| [65535.10](#event-6553510) | 0x0A06       |     10 |              2 |
| [65535.11](#event-6553511) | 0x0A10       |     10 |              2 |
| [65535.12](#event-6553512) | 0x0A1A       |     10 |              2 |
| [65535.13](#event-6553513) | 0x0A24       |     10 |              2 |
| [65535.14](#event-6553514) | 0x0A2E       |     10 |              2 |
| [65535.15](#event-6553515) | 0x0A38       |     10 |              2 |
| [65535.16](#event-6553516) | 0x0A42       |     10 |              2 |
| [65535.17](#event-6553517) | 0x0A4C       |     10 |              2 |
| [65535.18](#event-6553518) | 0x0A56       |     10 |              2 |
| [65535.19](#event-6553519) | 0x0A60       |     10 |              2 |
| [65535.20](#event-6553520) | 0x0A6A       |     10 |              2 |
| [65535.21](#event-6553521) | 0x0A74       |     10 |              2 |
| [65535.22](#event-6553522) | 0x0A7E       |     10 |              2 |
| [65535.23](#event-6553523) | 0x0A88       |     10 |              2 |
| [65535.24](#event-6553524) | 0x0A92       |     10 |              2 |
| [65535.25](#event-6553525) | 0x0A9C       |     12 |              3 |
| [65535.26](#event-6553526) | 0x0AA8       |     10 |              2 |
| [65535.27](#event-6553527) | 0x0AB2       |     37 |              5 |
| [65535.28](#event-6553528) | 0x0AD7       |     37 |              5 |
| [65535.29](#event-6553529) | 0x0AFC       |      7 |              3 |
| [65535.30](#event-6553530) | 0x0B03       |    155 |             35 |
| [65535.31](#event-6553531) | 0x0B9E       |     15 |              5 |
| [65535.32](#event-6553532) | 0x0BAD       |     15 |              5 |
| [65535.33](#event-6553533) | 0x0BBC       |     42 |              6 |
| [65535.34](#event-6553534) | 0x0BE6       |      7 |              3 |
| [65535.35](#event-6553535) | 0x0BED       |      7 |              3 |
| [65535.36](#event-6553536) | 0x0BF4       |     15 |              5 |
| [65535.37](#event-6553537) | 0x0C03       |      9 |              3 |
| [65535.38](#event-6553538) | 0x0C0C       |      9 |              3 |
| [65535.39](#event-6553539) | 0x0C15       |     15 |              5 |
| [65535.40](#event-6553540) | 0x0C24       |      9 |              3 |
| [65535.41](#event-6553541) | 0x0C2D       |      9 |              3 |
| [65535.42](#event-6553542) | 0x0C36       |     16 |              3 |
| [65535.43](#event-6553543) | 0x0C46       |     65 |              8 |
| [65535.44](#event-6553544) | 0x0C87       |     24 |              4 |
| [65535.45](#event-6553545) | 0x0C9F       |     24 |              4 |
| [65535.46](#event-6553546) | 0x0CB7       |     37 |              5 |
| [65535.47](#event-6553547) | 0x0CDC       |     37 |              5 |
| [65535.48](#event-6553548) | 0x0D01       |     14 |              4 |
| [65535.49](#event-6553549) | 0x0D0F       |     16 |              3 |
| [65535.50](#event-6553550) | 0x0D1F       |     65 |              8 |
| [65535.51](#event-6553551) | 0x0D60       |      6 |              2 |
| [65535.52](#event-6553552) | 0x0D66       |     15 |              5 |

## DAT References (imed_data)

|   Index | Hex Value   |   Dec Value |
|---------|-------------|-------------|
|       0 | 0x000D      |          13 |
|       1 | 0x00C8      |         200 |
|       2 | 0x0000      |           0 |
|       3 | 0x0013      |          19 |
|       4 | 0x29F9C     |      171932 |
|       5 | 0xFFFFA7CE  |  4294944718 |
|       6 | 0xFFFFB14D  |  4294947149 |
|       7 | 0x0806      |        2054 |
|       8 | 0x0001      |           1 |
|       9 | 0x00FF      |         255 |
|      10 | 0x000E      |          14 |
|      11 | 0x0038      |          56 |
|      12 | 0x0078      |         120 |
|      13 | 0x000F      |          15 |
|      14 | 0x0800      |        2048 |
|      15 | 0x000A      |          10 |
|      16 | 0x00B4      |         180 |
|      17 | 0xFFFBF6DA  |  4294702810 |
|      18 | 0x6A2D      |       27181 |
|      19 | 0xFFFFF168  |  4294963560 |
|      20 | 0x0BEC      |        3052 |
|      21 | 0x0092      |         146 |
|      22 | 0x1CB6      |        7350 |
|      23 | 0x04EB      |        1259 |
|      24 | 0x003C      |          60 |
|      25 | 0x1CB7      |        7351 |
|      26 | 0x001E      |          30 |
|      27 | 0xFFFBF2F5  |  4294701813 |
|      28 | 0x6835      |       26677 |
|      29 | 0xFFFFF15A  |  4294963546 |
|      30 | 0x1CB8      |        7352 |
|      31 | 0x043D      |        1085 |
|      32 | 0x0462      |        1122 |
|      33 | 0x1CBA      |        7354 |
|      34 | 0x007A      |         122 |
|      35 | 0x1CBC      |        7356 |
|      36 | 0x00F0      |         240 |
|      37 | 0x005A      |          90 |
|      38 | 0x1CBD      |        7357 |
|      39 | 0x1CBE      |        7358 |
|      40 | 0x1CBF      |        7359 |
|      41 | 0x1CC0      |        7360 |
|      42 | 0x1CC1      |        7361 |
|      43 | 0x1CC2      |        7362 |
|      44 | 0x1CC3      |        7363 |
|      45 | 0x1CC4      |        7364 |
|      46 | 0xFFF645C7  |  4294329799 |
|      47 | 0x7030B     |      459531 |
|      48 | 0x4814      |       18452 |
|      49 | 0x0F24      |        3876 |
|      50 | 0x00CC      |         204 |
|      51 | 0xFFF65971  |  4294334833 |
|      52 | 0x700B8     |      458936 |
|      53 | 0x44C7      |       17607 |
|      54 | 0x1CC5      |        7365 |
|      55 | 0x1CC6      |        7366 |
|      56 | 0x0045      |          69 |
|      57 | 0x1CC7      |        7367 |
|      58 | 0x1CC8      |        7368 |
|      59 | 0x1CC9      |        7369 |
|      60 | 0x0009      |           9 |
|      61 | 0x1CCA      |        7370 |
|      62 | 0x1CCB      |        7371 |
|      63 | 0x1CCC      |        7372 |
|      64 | 0x1CCD      |        7373 |
|      65 | 0x0007      |           7 |
|      66 | 0x1CCE      |        7374 |
|      67 | 0x1CCF      |        7375 |
|      68 | 0x1CD0      |        7376 |
|      69 | 0x1CD1      |        7377 |
|      70 | 0x1CD2      |        7378 |
|      71 | 0x0006      |           6 |
|      72 | 0x1CD3      |        7379 |
|      73 | 0x1CD4      |        7380 |
|      74 | 0x1CD5      |        7381 |
|      75 | 0x1CD6      |        7382 |
|      76 | 0x1CD7      |        7383 |
|      77 | 0x1CD8      |        7384 |
|      78 | 0x1CD9      |        7385 |
|      79 | 0x002D      |          45 |
|      80 | 0x00C9      |         201 |
|      81 | 0x29D95     |      171413 |
|      82 | 0xFFFCB7D9  |  4294752217 |
|      83 | 0x4DD3      |       19923 |
|      84 | 0x2A014     |      172052 |
|      85 | 0xFFFCCA13  |  4294756883 |
|      86 | 0x4DF9      |       19961 |
|      87 | 0x0015      |          21 |
|      88 | 0x0028      |          40 |
|      89 | 0x28DE6     |      167398 |
|      90 | 0xFFFCE196  |  4294762902 |
|      91 | 0x4DA9      |       19881 |
|      92 | 0x21D4A     |      138570 |
|      93 | 0x1DC79     |      121977 |
|      94 | 0xFFFFF830  |  4294965296 |
|      95 | 0x086F      |        2159 |
|      96 | 0x1807D     |       98429 |
|      97 | 0xFFFEFF25  |  4294901541 |
|      98 | 0x03E4      |         996 |
|      99 | 0x04E3      |        1251 |
|     100 | 0xFFFCB26E  |  4294750830 |
|     101 | 0xFFFE9627  |  4294874663 |
|     102 | 0xFFFFFF0B  |  4294967051 |
|     103 | 0x09F7      |        2551 |
|     104 | 0x8B2F      |       35631 |
|     105 | 0xFFFF3AAD  |  4294916781 |
|     106 | 0x2329      |        9001 |
|     107 | 0x09EC      |        2540 |
|     108 | 0x27692     |      161426 |
|     109 | 0x274F7     |      161015 |
|     110 | 0x05F8      |        1528 |
|     111 | 0x1C843     |      116803 |
|     112 | 0xFFFEE69B  |  4294895259 |
|     113 | 0x07F9      |        2041 |
|     114 | 0xFFFC8339  |  4294738745 |
|     115 | 0xFFFE2B86  |  4294847366 |
|     116 | 0xFFFFFF07  |  4294967047 |
|     117 | 0x0FFD      |        4093 |
|     118 | 0xBF7E      |       49022 |
|     119 | 0xFFFEE2B4  |  4294894260 |
|     120 | 0x2712      |       10002 |
|     121 | 0x0C0F      |        3087 |
|     122 | 0x185ED     |       99821 |
|     123 | 0xFFFEFF9F  |  4294901663 |
|     124 | 0x0312      |         786 |
|     125 | 0x21BAA     |      138154 |
|     126 | 0x1D514     |      120084 |
|     127 | 0x0E96      |        3734 |
|     128 | 0xFFFCB3AF  |  4294751151 |
|     129 | 0xFFFE90C0  |  4294873280 |
|     130 | 0xFFFFFF72  |  4294967154 |
|     131 | 0x084B      |        2123 |
|     132 | 0x8B65      |       35685 |
|     133 | 0xFFFF3C2F  |  4294917167 |
|     134 | 0x065B      |        1627 |
|     135 | 0xFFFBBF41  |  4294688577 |
|     136 | 0xFFF9A232  |  4294550066 |
|     137 | 0xFFFF641B  |  4294927387 |
|     138 | 0x0AA6      |        2726 |
|     139 | 0x8B7BE     |      571326 |
|     140 | 0xFFFBD923  |  4294695203 |
|     141 | 0xFFFFFEA3  |  4294966947 |
|     142 | 0x01A6      |         422 |
|     143 | 0xFFFBB61F  |  4294686239 |
|     144 | 0xFFF9928F  |  4294546063 |
|     145 | 0xFFFF648E  |  4294927502 |
|     146 | 0x0704      |        1796 |
|     147 | 0x88F90     |      561040 |
|     148 | 0xFFFBC607  |  4294690311 |
|     149 | 0x06C5      |        1733 |
|     150 | 0xFFFA88AC  |  4294609068 |
|     151 | 0x4DDD      |       19933 |
|     152 | 0xFFFF7744  |  4294932292 |
|     153 | 0x0831      |        2097 |
|     154 | 0x1DA71     |      121457 |
|     155 | 0x1C391     |      115601 |
|     156 | 0xFFFFE0D3  |  4294959315 |
|     157 | 0x0DA9      |        3497 |
|     158 | 0x25BC9     |      154569 |
|     159 | 0xFFFD5734  |  4294793012 |
|     160 | 0x0227      |         551 |
|     161 | 0x091C      |        2332 |
|     162 | 0xFFFFC3F3  |  4294951923 |
|     163 | 0x19656     |      104022 |
|     164 | 0xFFFFBC6C  |  4294949996 |
|     165 | 0x0379      |         889 |
|     166 | 0x0286      |         646 |
|     167 | 0xFFFF97B9  |  4294940601 |
|     168 | 0xFFFFE43B  |  4294960187 |
|     169 | 0x0689      |        1673 |
|     170 | 0xFFFFFFD1  |  4294967249 |
|     171 | 0xFFFF80F7  |  4294934775 |
|     172 | 0xFFFFA435  |  4294943797 |
|     173 | 0x03FD      |        1021 |
|     174 | 0x0005      |           5 |
|     175 | 0x0002      |           2 |
|     176 | 0x0046      |          70 |
|     177 | 0x008C      |         140 |
|     178 | 0x00D2      |         210 |
|     179 | 0xFFFE36A2  |  4294850210 |
|     180 | 0x4AD8D     |      306573 |
|     181 | 0xFFFFB3FA  |  4294947834 |
|     182 | 0x000B      |          11 |
|     183 | 0xFFFE22BC  |  4294845116 |
|     184 | 0x490D0     |      299216 |
|     185 | 0xFFFFB5A0  |  4294948256 |
|     186 | 0xFFFE28B8  |  4294846648 |
|     187 | 0x485A1     |      296353 |
|     188 | 0xFFFFB535  |  4294948149 |
|     189 | 0xFFFE3A62  |  4294851170 |
|     190 | 0x4B052     |      307282 |
|     191 | 0xFFFFB3B3  |  4294947763 |
|     192 | 0xFFFC11A1  |  4294709665 |
|     193 | 0x366A4     |      222884 |
|     194 | 0xFFFFAE6D  |  4294946413 |
|     195 | 0x05B6      |        1462 |
|     196 | 0x004F      |          79 |
|     197 | 0xFFFCE860  |  4294764640 |
|     198 | 0x120DE     |       73950 |
|     199 | 0xFFFFB246  |  4294947398 |
|     200 | 0xFFFCE823  |  4294764579 |
|     201 | 0x121A1     |       74145 |
|     202 | 0xFFFFB23C  |  4294947388 |
|     203 | 0x0976      |        2422 |
|     204 | 0x007B      |         123 |
|     205 | 0xFFFC8B68  |  4294740840 |
|     206 | 0x4B9CC     |      309708 |
|     207 | 0xFFFFB276  |  4294947446 |

## Events

### Event 65535

#### Metadata

| Field        | Value   |
|--------------|---------|
| Entrypoint   | 0x0000  |
| Data Size    | 4 bytes |
| Instructions | 2       |

```
      00 01 02 03 04 05 06 07  08 09 0A 0B 0C 0D 0E 0F
      -- -- -- -- -- -- -- --  -- -- -- -- -- -- -- --
0000: 32 00 80 00                                       2...            
```

#### Opcodes

```
  0: 0x0000 [0x32] ExtData[1]->MainSpeed = 13* * 0.1
  1: 0x0003 [0x00] END_REQSTACK()
```

### Event 65534

#### Metadata

| Field        | Value   |
|--------------|---------|
| Entrypoint   | 0x0004  |
| Data Size    | 1 bytes |
| Instructions | 1       |

```
      00 01 02 03 04 05 06 07  08 09 0A 0B 0C 0D 0E 0F
      -- -- -- -- -- -- -- --  -- -- -- -- -- -- -- --
0000:             00                                        .           
```

#### Opcodes

```
  0: 0x0004 [0x00] END_REQSTACK()
```

### Event 1

#### Metadata

| Field        | Value     |
|--------------|-----------|
| Entrypoint   | 0x0005    |
| Data Size    | 462 bytes |
| Instructions | 65        |

```
      00 01 02 03 04 05 06 07  08 09 0A 0B 0C 0D 0E 0F
      -- -- -- -- -- -- -- --  -- -- -- -- -- -- -- --
0000:                20 01 46  01 42 45 01 80 F0 FF FF        .F.BE.....
0010: 7F F0 FF FF 7F 66 64 6F  31 02 80 55 01 80 F0 FF  .....fdo1..U....
0020: FF 7F F0 FF FF 7F 66 64  6F 31 80 AE E1 07 01 80  ......fdo1......
0030: AF E1 07 01 80 B0 E1 07  01 80 B1 E1 07 01 80 B2  ................
0040: E1 07 01 80 B3 E1 07 01  80 B4 E1 07 01 80 B5 E1  ................
0050: 07 01 80 B6 E1 07 01 80  B7 E1 07 01 80 B8 E1 07  ................
0060: 01 38 03 80 37 04 80 05  80 06 80 07 80 97 02 80  .8..7...........
0070: 08 80 77 09 80 0A 80 4E  00 AE E1 07 01 4E 00 AF  ..w....N.....N..
0080: E1 07 01 4E 00 B0 E1 07  01 4E 00 B1 E1 07 01 4E  ...N.....N.....N
0090: 00 B2 E1 07 01 4E 00 B3  E1 07 01 4E 00 B4 E1 07  .....N.....N....
00A0: 01 4E 00 B5 E1 07 01 4E  00 B6 E1 07 01 4E 00 B7  .N.....N.....N..
00B0: E1 07 01 4E 00 B8 E1 07  01 27 03 AF E1 07 01 02  ...N.....'......
00C0: 27 03 B3 E1 07 01 02 27  03 B1 E1 07 01 02 27 03  '......'......'.
00D0: B5 E1 07 01 02 27 03 B6  E1 07 01 02 27 03 B8 E1  .....'......'...
00E0: 07 01 02 45 0B 80 F0 FF  FF 7F F0 FF FF 7F 7A 30  ...E..........z0
00F0: 30 30 02 80 37 04 80 05  80 06 80 07 80 45 01 80  00..7........E..
0100: F0 FF FF 7F F0 FF FF 7F  66 64 69 31 02 80 55 01  ........fdi1..U.
0110: 80 F0 FF FF 7F F0 FF FF  7F 66 64 69 31 55 0B 80  .........fdi1U..
0120: F0 FF FF 7F F0 FF FF 7F  7A 30 30 30 1C 0C 80 4B  ........z000...K
0130: AE E1 07 01 02 80 1C 0D  80 45 0B 80 F0 FF FF 7F  .........E......
0140: F0 FF FF 7F 7A 30 30 31  02 80 55 0B 80 F0 FF FF  ....z001..U.....
0150: 7F F0 FF FF 7F 7A 30 30  31 6F 76 AE E1 07 01 4B  .....z001ov....K
0160: AE E1 07 01 0E 80 1C 0F  80 45 0B 80 F0 FF FF 7F  .........E......
0170: F0 FF FF 7F 7A 30 30 32  02 80 6F 76 AE E1 07 01  ....z002..ov....
0180: 1C 0F 80 27 03 AE E1 07  01 02 1C 10 80 45 01 80  ...'.........E..
0190: F0 FF FF 7F F0 FF FF 7F  66 64 6F 32 02 80 55 01  ........fdo2..U.
01A0: 80 F0 FF FF 7F F0 FF FF  7F 66 64 6F 32 55 0B 80  .........fdo2U..
01B0: F0 FF FF 7F F0 FF FF 7F  7A 30 30 32 78 46 00 45  ........z002xF.E
01C0: 01 80 F0 FF FF 7F F0 FF  FF 7F 66 64 69 32 02 80  ..........fdi2..
01D0: 21 00 00                                          !..             
```

#### Opcodes

```
  0: 0x0005 [0x20] SET_CLI_EVENT_UC_FLAG: Lock player control
  1: 0x0007 [0x46] CAMERA_CONTROL: Disable user control
  2: 0x0009 [0x42] SET_CLI_EVENT_CANCEL_DATA()
  3: 0x000A [0x45] LOAD_SCHEDULED_TASK: Load scheduler "fdo1" with entities [LocalPlayer, LocalPlayer], work=[200*, 0*]
  4: 0x001B [0x55] WAIT_LOAD_SCHEDULER: Wait for scheduler "fdo1" with entities [LocalPlayer, LocalPlayer], work=200*
  5: 0x002A [0x80] LOAD_WAIT(entity=Wolfgang (ID: 17293742/0x0107E1AE))
  6: 0x002F [0x80] LOAD_WAIT(entity=Pherimociel (ID: 17293743/0x0107E1AF))
  7: 0x0034 [0x80] LOAD_WAIT(entity=Neraf-Najiruf (ID: 17293744/0x0107E1B0))
  8: 0x0039 [0x80] LOAD_WAIT(entity=Auchefort (ID: 17293745/0x0107E1B1))
  9: 0x003E [0x80] LOAD_WAIT(entity=Chapi Galepilai (ID: 17293746/0x0107E1B2))
 10: 0x0043 [0x80] LOAD_WAIT(entity=Crooked Arrow (ID: 17293747/0x0107E1B3))
 11: 0x0048 [0x80] LOAD_WAIT(entity=Unnamed NPC (ID: 17293748/0x0107E1B4))
 12: 0x004D [0x80] LOAD_WAIT(entity=Unnamed NPC (ID: 17293749/0x0107E1B5))
 13: 0x0052 [0x80] LOAD_WAIT(entity=Unnamed NPC (ID: 17293750/0x0107E1B6))
 14: 0x0057 [0x80] LOAD_WAIT(entity=Unnamed NPC (ID: 17293751/0x0107E1B7))
 15: 0x005C [0x80] LOAD_WAIT(entity=Unnamed NPC (ID: 17293752/0x0107E1B8))
 16: 0x0061 [0x38] SET_CLIENT_EVENT_MODE(mode=19*)
 17: 0x0064 [0x37] UPDATE_EVENT_POSITION_AND_DIR: x=171.932*, z=-22.578*, y=-20.147*, direction=180.5°*
 18: 0x006D [0x97] SAVE_SET_WIND_VALUES(wind_base=0x8002, wind_width=0x8008)
 19: 0x0072 [0x77] SET_EVENT_TIME_WEATHER(hour=255*, weather=14*)
 20: 0x0077 [0x4E] SET_ENTITY_HIDE_FLAG: Show Wolfgang (ID: 17293742/0x0107E1AE)
 21: 0x007D [0x4E] SET_ENTITY_HIDE_FLAG: Show Pherimociel (ID: 17293743/0x0107E1AF)
 22: 0x0083 [0x4E] SET_ENTITY_HIDE_FLAG: Show Neraf-Najiruf (ID: 17293744/0x0107E1B0)
 23: 0x0089 [0x4E] SET_ENTITY_HIDE_FLAG: Show Auchefort (ID: 17293745/0x0107E1B1)
 24: 0x008F [0x4E] SET_ENTITY_HIDE_FLAG: Show Chapi Galepilai (ID: 17293746/0x0107E1B2)
 25: 0x0095 [0x4E] SET_ENTITY_HIDE_FLAG: Show Crooked Arrow (ID: 17293747/0x0107E1B3)
 26: 0x009B [0x4E] SET_ENTITY_HIDE_FLAG: Show Unnamed NPC (ID: 17293748/0x0107E1B4)
 27: 0x00A1 [0x4E] SET_ENTITY_HIDE_FLAG: Show Unnamed NPC (ID: 17293749/0x0107E1B5)
 28: 0x00A7 [0x4E] SET_ENTITY_HIDE_FLAG: Show Unnamed NPC (ID: 17293750/0x0107E1B6)
 29: 0x00AD [0x4E] SET_ENTITY_HIDE_FLAG: Show Unnamed NPC (ID: 17293751/0x0107E1B7)
 30: 0x00B3 [0x4E] SET_ENTITY_HIDE_FLAG: Show Unnamed NPC (ID: 17293752/0x0107E1B8)
 31: 0x00B9 [0x27] REQ_SET(priority=0x03, entity_id=Pherimociel (ID: 17293743/0x0107E1AF), tag_num=0x02)
 32: 0x00C0 [0x27] REQ_SET(priority=0x03, entity_id=Crooked Arrow (ID: 17293747/0x0107E1B3), tag_num=0x02)
 33: 0x00C7 [0x27] REQ_SET(priority=0x03, entity_id=Auchefort (ID: 17293745/0x0107E1B1), tag_num=0x02)
 34: 0x00CE [0x27] REQ_SET(priority=0x03, entity_id=Unnamed NPC (ID: 17293749/0x0107E1B5), tag_num=0x02)
 35: 0x00D5 [0x27] REQ_SET(priority=0x03, entity_id=Unnamed NPC (ID: 17293750/0x0107E1B6), tag_num=0x02)
 36: 0x00DC [0x27] REQ_SET(priority=0x03, entity_id=Unnamed NPC (ID: 17293752/0x0107E1B8), tag_num=0x02)
 37: 0x00E3 [0x45] LOAD_SCHEDULED_TASK: Load scheduler "z000" with entities [LocalPlayer, LocalPlayer], work=[56*, 0*]
 38: 0x00F4 [0x37] UPDATE_EVENT_POSITION_AND_DIR: x=171.932*, z=-22.578*, y=-20.147*, direction=180.5°*
 39: 0x00FD [0x45] LOAD_SCHEDULED_TASK: Load scheduler "fdi1" with entities [LocalPlayer, LocalPlayer], work=[200*, 0*]
 40: 0x010E [0x55] WAIT_LOAD_SCHEDULER: Wait for scheduler "fdi1" with entities [LocalPlayer, LocalPlayer], work=200*
 41: 0x011D [0x55] WAIT_LOAD_SCHEDULER: Wait for scheduler "z000" with entities [LocalPlayer, LocalPlayer], work=56*
 42: 0x012C [0x1C] WAIT(120* ticks)
 43: 0x012F [0x4B] UPDATE_ENTITY_YAW(entity=Wolfgang (ID: 17293742/0x0107E1AE), yaw=0.0°*)
 44: 0x0136 [0x1C] WAIT(15* ticks)
 45: 0x0139 [0x45] LOAD_SCHEDULED_TASK: Load scheduler "z001" with entities [LocalPlayer, LocalPlayer], work=[56*, 0*]
 46: 0x014A [0x55] WAIT_LOAD_SCHEDULER: Wait for scheduler "z001" with entities [LocalPlayer, LocalPlayer], work=56*
 47: 0x0159 [0x6F] WAIT_FRAME_DELAY: Yield until WaitTime reaches zero
 48: 0x015A [0x76] CHECK_ENTITY_RENDER_FLAGS: Wait until Wolfgang (ID: 17293742/0x0107E1AE) Render.Flags0 and Render.Flags3 conditions are met
 49: 0x015F [0x4B] UPDATE_ENTITY_YAW(entity=Wolfgang (ID: 17293742/0x0107E1AE), yaw=11.2°*)
 50: 0x0166 [0x1C] WAIT(10* ticks)
 51: 0x0169 [0x45] LOAD_SCHEDULED_TASK: Load scheduler "z002" with entities [LocalPlayer, LocalPlayer], work=[56*, 0*]
 52: 0x017A [0x6F] WAIT_FRAME_DELAY: Yield until WaitTime reaches zero
 53: 0x017B [0x76] CHECK_ENTITY_RENDER_FLAGS: Wait until Wolfgang (ID: 17293742/0x0107E1AE) Render.Flags0 and Render.Flags3 conditions are met
 54: 0x0180 [0x1C] WAIT(10* ticks)
 55: 0x0183 [0x27] REQ_SET(priority=0x03, entity_id=Wolfgang (ID: 17293742/0x0107E1AE), tag_num=0x02)
 56: 0x018A [0x1C] WAIT(180* ticks)
 57: 0x018D [0x45] LOAD_SCHEDULED_TASK: Load scheduler "fdo2" with entities [LocalPlayer, LocalPlayer], work=[200*, 0*]
 58: 0x019E [0x55] WAIT_LOAD_SCHEDULER: Wait for scheduler "fdo2" with entities [LocalPlayer, LocalPlayer], work=200*
 59: 0x01AD [0x55] WAIT_LOAD_SCHEDULER: Wait for scheduler "z002" with entities [LocalPlayer, LocalPlayer], work=56*
 60: 0x01BC [0x78] ENABLE_GAME_TIMER_RESET_WEATHER()
 61: 0x01BD [0x46] CAMERA_CONTROL: Restore default settings
 62: 0x01BF [0x45] LOAD_SCHEDULED_TASK: Load scheduler "fdi2" with entities [LocalPlayer, LocalPlayer], work=[200*, 0*]
 63: 0x01D0 [0x21] END_EVENT
 64: 0x01D1 [0x00] END_REQSTACK()
```

#### Data or dead code:

```
# Dead code (unreachable instructions):
     0x01D2 [0x00] END_REQSTACK()
```

### Event 0

#### Metadata

| Field        | Value     |
|--------------|-----------|
| Entrypoint   | 0x01D3    |
| Data Size    | 896 bytes |
| Instructions | 131       |

```
      00 01 02 03 04 05 06 07  08 09 0A 0B 0C 0D 0E 0F
      -- -- -- -- -- -- -- --  -- -- -- -- -- -- -- --
01D0:          20 01 46 01 42  45 01 80 F0 FF FF 7F F0      .F.BE.......
01E0: FF FF 7F 66 64 6F 31 02  80 55 01 80 F0 FF FF 7F  ...fdo1..U......
01F0: F0 FF FF 7F 66 64 6F 31  77 02 10 09 80 38 03 80  ....fdo1w....8..
0200: 37 11 80 12 80 13 80 14  80 45 15 80 F8 FF FF 7F  7........E......
0210: F8 FF FF 7F 63 6D 33 30  02 80 55 15 80 F8 FF FF  ....cm30..U.....
0220: 7F F8 FF FF 7F 63 6D 33  30 45 01 80 F0 FF FF 7F  .....cm30E......
0230: F0 FF FF 7F 66 64 69 31  02 80 55 01 80 F0 FF FF  ....fdi1..U.....
0240: 7F F0 FF FF 7F 66 64 69  31 2B 8E E1 07 01 16 80  .....fdi1+......
0250: 23 4B F0 FF FF 7F 17 80  1C 18 80 45 15 80 F8 FF  #K.........E....
0260: FF 7F F8 FF FF 7F 63 6D  33 31 02 80 29 03 8E E1  ......cm31..)...
0270: 07 01 02 55 15 80 F8 FF  FF 7F F8 FF FF 7F 63 6D  ...U..........cm
0280: 33 31 2B 8E E1 07 01 19  80 23 27 03 8E E1 07 01  31+......#'.....
0290: 03 27 04 8E E1 07 01 04  1C 1A 80 45 15 80 F8 FF  .'.........E....
02A0: FF 7F F8 FF FF 7F 63 6D  33 61 02 80 55 15 80 F8  ......cm3a..U...
02B0: FF FF 7F F8 FF FF 7F 63  6D 33 61 1F 00 1B 80 1C  .......cm3a.....
02C0: 80 1D 80 1F 01 4A F0 FF  FF 7F 8E E1 07 01 29 05  .....J........).
02D0: 8E E1 07 01 0B 2B 8E E1  07 01 1E 80 23 45 15 80  .....+......#E..
02E0: F8 FF FF 7F F8 FF FF 7F  6E 61 6B 30 02 80 4B F0  ........nak0..K.
02F0: FF FF 7F 1F 80 29 03 8E  E1 07 01 05 4B 8E E1 07  .....)......K...
0300: 01 20 80 1C 18 80 2B 8E  E1 07 01 21 80 23 45 15  . ....+....!.#E.
0310: 80 F8 FF FF 7F F8 FF FF  7F 63 6D 33 32 02 80 27  .........cm32..'
0320: 03 8F E1 07 01 02 55 15  80 F8 FF FF 7F F8 FF FF  ......U.........
0330: 7F 63 6D 33 32 27 04 8F  E1 07 01 09 29 05 8F E1  .cm32'......)...
0340: 07 01 0A 5C 00 22 80 5C  01 22 80 45 15 80 F8 FF  ...\.".\.".E....
0350: FF 7F F8 FF FF 7F 63 6D  33 33 02 80 29 04 8F E1  ......cm33..)...
0360: 07 01 03 29 05 8F E1 07  01 09 55 15 80 F8 FF FF  ...)......U.....
0370: 7F F8 FF FF 7F 63 6D 33  33 2B 8E E1 07 01 23 80  .....cm33+....#.
0380: 23 1C 18 80 27 06 8F E1  07 01 04 06 00 00 02 00  #...'...........
0390: 00 24 80 05 B1 03 4A F0  FF FF 7F 8F E1 07 01 4A  .$....J........J
03A0: 8E E1 07 01 8F E1 07 01  1C 08 80 0B 00 00 01 8E  ................
03B0: 03 29 07 8F E1 07 01 0A  1C 18 80 27 06 8F E1 07  .).........'....
03C0: 01 05 45 15 80 F8 FF FF  7F F8 FF FF 7F 63 6D 33  ..E..........cm3
03D0: 34 02 80 06 00 00 02 00  00 25 80 05 F9 03 4A F0  4........%....J.
03E0: FF FF 7F 8F E1 07 01 4A  8E E1 07 01 8F E1 07 01  .......J........
03F0: 1C 08 80 0B 00 00 01 D6  03 55 15 80 F8 FF FF 7F  .........U......
0400: F8 FF FF 7F 63 6D 33 34  06 20 10 27 07 8F E1 07  ....cm34. .'....
0410: 01 07 1C 0C 80 2B 8E E1  07 01 26 80 23 7B 8E E1  .....+....&.#{..
0420: 07 01 27 05 8F E1 07 01  08 05 20 10 29 03 8E E1  ..'....... .)...
0430: 07 01 0A 29 04 8E E1 07  01 04 4A 8F E1 07 01 8E  ...)......J.....
0440: E1 07 01 6F 76 8F E1 07  01 2B 8E E1 07 01 27 80  ...ov....+....'.
0450: 23 29 04 8E E1 07 01 05  4A 8E E1 07 01 8F E1 07  #)......J.......
0460: 01 6F 76 8E E1 07 01 45  15 80 F8 FF FF 7F F8 FF  .ov....E........
0470: FF 7F 63 6D 33 62 02 80  55 15 80 F8 FF FF 7F F8  ..cm3b..U.......
0480: FF FF 7F 63 6D 33 62 27  03 8E E1 07 01 06 2B 8E  ...cm3b'......+.
0490: E1 07 01 28 80 23 29 04  8E E1 07 01 0B 27 03 8F  ...(.#)......'..
04A0: E1 07 01 09 2B 8F E1 07  01 29 80 23 29 04 8F E1  ....+....).#)...
04B0: 07 01 0A 29 04 8E E1 07  01 07 2B 8E E1 07 01 2A  ...)......+....*
04C0: 80 23 29 03 8E E1 07 01  08 2B 8E E1 07 01 2B 80  .#)......+....+.
04D0: 23 29 04 8E E1 07 01 09  4A 8E E1 07 01 F0 FF FF  #)......J.......
04E0: 7F 6F 76 8E E1 07 01 2B  8E E1 07 01 2C 80 23 4A  .ov....+....,.#J
04F0: 8E E1 07 01 8F E1 07 01  6F 76 8E E1 07 01 2B 8E  ........ov....+.
0500: E1 07 01 2D 80 23 45 01  80 F0 FF FF 7F F0 FF FF  ...-.#E.........
0510: 7F 66 64 6F 32 02 80 55  01 80 F0 FF FF 7F F0 FF  .fdo2..U........
0520: FF 7F 66 64 6F 32 78 5C  00 02 80 5C 01 02 80 4E  ..fdo2x\...\...N
0530: 01 8E E1 07 01 4E 01 8F  E1 07 01 46 00 1C 18 80  .....N.....F....
0540: 45 01 80 F0 FF FF 7F F0  FF FF 7F 66 64 69 32 02  E..........fdi2.
0550: 80 21 00                                          .!.             
```

#### Opcodes

```
  0: 0x01D3 [0x20] SET_CLI_EVENT_UC_FLAG: Lock player control
  1: 0x01D5 [0x46] CAMERA_CONTROL: Disable user control
  2: 0x01D7 [0x42] SET_CLI_EVENT_CANCEL_DATA()
  3: 0x01D8 [0x45] LOAD_SCHEDULED_TASK: Load scheduler "fdo1" with entities [LocalPlayer, LocalPlayer], work=[200*, 0*]
  4: 0x01E9 [0x55] WAIT_LOAD_SCHEDULER: Wait for scheduler "fdo1" with entities [LocalPlayer, LocalPlayer], work=200*
  5: 0x01F8 [0x77] SET_EVENT_TIME_WEATHER(hour=Work_Zone[2], weather=255*)
  6: 0x01FD [0x38] SET_CLIENT_EVENT_MODE(mode=19*)
  7: 0x0200 [0x37] UPDATE_EVENT_POSITION_AND_DIR: x=-264.486*, z=27.181*, y=-3.736*, direction=268.2°*
  8: 0x0209 [0x45] LOAD_SCHEDULED_TASK: Load scheduler "cm30" with entities [EventEntity, EventEntity], work=[146*, 0*]
  9: 0x021A [0x55] WAIT_LOAD_SCHEDULER: Wait for scheduler "cm30" with entities [EventEntity, EventEntity], work=146*
 10: 0x0229 [0x45] LOAD_SCHEDULED_TASK: Load scheduler "fdi1" with entities [LocalPlayer, LocalPlayer], work=[200*, 0*]
 11: 0x023A [0x55] WAIT_LOAD_SCHEDULER: Wait for scheduler "fdi1" with entities [LocalPlayer, LocalPlayer], work=200*
 12: 0x0249 [0x2B] Dietmund (ID: 17293710/0x0107E18E) [7350*]:
    → "Hey!"
 13: 0x0250 [0x23] WAIT_FOR_DIALOG_INTERACTION
 14: 0x0251 [0x4B] UPDATE_ENTITY_YAW(entity=LocalPlayer, yaw=6.9°*)
 15: 0x0258 [0x1C] WAIT(60* ticks)
 16: 0x025B [0x45] LOAD_SCHEDULED_TASK: Load scheduler "cm31" with entities [EventEntity, EventEntity], work=[146*, 0*]
 17: 0x026C [0x29] REQ_SET_WAIT(priority=0x03, entity_id=Dietmund (ID: 17293710/0x0107E18E), tag_num=0x02)
 18: 0x0273 [0x55] WAIT_LOAD_SCHEDULER: Wait for scheduler "cm31" with entities [EventEntity, EventEntity], work=146*
 19: 0x0282 [0x2B] Dietmund (ID: 17293710/0x0107E18E) [7351*]:
    → "There you are! My boy's finally getting some rest, so I followed you. Whew!"
 20: 0x0289 [0x23] WAIT_FOR_DIALOG_INTERACTION
 21: 0x028A [0x27] REQ_SET(priority=0x03, entity_id=Dietmund (ID: 17293710/0x0107E18E), tag_num=0x03)
 22: 0x0291 [0x27] REQ_SET(priority=0x04, entity_id=Dietmund (ID: 17293710/0x0107E18E), tag_num=0x04)
 23: 0x0298 [0x1C] WAIT(30* ticks)
 24: 0x029B [0x45] LOAD_SCHEDULED_TASK: Load scheduler "cm3a" with entities [EventEntity, EventEntity], work=[146*, 0*]
 25: 0x02AC [0x55] WAIT_LOAD_SCHEDULER: Wait for scheduler "cm3a" with entities [EventEntity, EventEntity], work=146*
 26: 0x02BB [0x1F] MOVE_ENTITY: EventEntity moves to X=-265.483*, Z=26.677*, Y=-3.750*
 27: 0x02C3 [0x1F] MOVE_ENTITY: Update entity position (mode=1)
 28: 0x02C5 [0x4A] LocalPlayer looks at Dietmund (ID: 17293710/0x0107E18E)
 29: 0x02CE [0x29] REQ_SET_WAIT(priority=0x05, entity_id=Dietmund (ID: 17293710/0x0107E18E), tag_num=0x0B)
 30: 0x02D5 [0x2B] Dietmund (ID: 17293710/0x0107E18E) [7352*]:
    → "So these are nightflowers, are they? Well, we know where they are, but digging them up's another story. Damn, I wish we had a chocobo!"
 31: 0x02DC [0x23] WAIT_FOR_DIALOG_INTERACTION
 32: 0x02DD [0x45] LOAD_SCHEDULED_TASK: Load scheduler "nak0" with entities [EventEntity, EventEntity], work=[146*, 0*]
 33: 0x02EE [0x4B] UPDATE_ENTITY_YAW(entity=LocalPlayer, yaw=6.0°*)
 34: 0x02F5 [0x29] REQ_SET_WAIT(priority=0x03, entity_id=Dietmund (ID: 17293710/0x0107E18E), tag_num=0x05)
 35: 0x02FC [0x4B] UPDATE_ENTITY_YAW(entity=Dietmund (ID: 17293710/0x0107E18E), yaw=6.2°*)
 36: 0x0303 [0x1C] WAIT(60* ticks)
 37: 0x0306 [0x2B] Dietmund (ID: 17293710/0x0107E18E) [7354*]:
    → "Uh-oh! A monster!"
 38: 0x030D [0x23] WAIT_FOR_DIALOG_INTERACTION
 39: 0x030E [0x45] LOAD_SCHEDULED_TASK: Load scheduler "cm32" with entities [EventEntity, EventEntity], work=[146*, 0*]
 40: 0x031F [0x27] REQ_SET(priority=0x03, entity_id=Chocobo (ID: 17293711/0x0107E18F), tag_num=0x02)
 41: 0x0326 [0x55] WAIT_LOAD_SCHEDULER: Wait for scheduler "cm32" with entities [EventEntity, EventEntity], work=146*
 42: 0x0335 [0x27] REQ_SET(priority=0x04, entity_id=Chocobo (ID: 17293711/0x0107E18F), tag_num=0x09)
 43: 0x033C [0x29] REQ_SET_WAIT(priority=0x05, entity_id=Chocobo (ID: 17293711/0x0107E18F), tag_num=0x0A)
 44: 0x0343 [0x5C] MUSIC_CONTROL: Set Idle (Day) music to song 122*
 45: 0x0347 [0x5C] MUSIC_CONTROL: Set Idle (Night) music to song 122*
 46: 0x034B [0x45] LOAD_SCHEDULED_TASK: Load scheduler "cm33" with entities [EventEntity, EventEntity], work=[146*, 0*]
 47: 0x035C [0x29] REQ_SET_WAIT(priority=0x04, entity_id=Chocobo (ID: 17293711/0x0107E18F), tag_num=0x03)
 48: 0x0363 [0x29] REQ_SET_WAIT(priority=0x05, entity_id=Chocobo (ID: 17293711/0x0107E18F), tag_num=0x09)
 49: 0x036A [0x55] WAIT_LOAD_SCHEDULER: Wait for scheduler "cm33" with entities [EventEntity, EventEntity], work=146*
 50: 0x0379 [0x2B] Dietmund (ID: 17293710/0x0107E18E) [7356*]:
    → "Oh, just you!"
 51: 0x0380 [0x23] WAIT_FOR_DIALOG_INTERACTION
 52: 0x0381 [0x1C] WAIT(60* ticks)
 53: 0x0384 [0x27] REQ_SET(priority=0x06, entity_id=Chocobo (ID: 17293711/0x0107E18F), tag_num=0x04)
 54: 0x038B [0x06] ExtData[1]->WorkLocal[0] = 0
 55: 0x038E [0x02] IF !(ExtData[1]->WorkLocal[0] > 240*) GOTO 0x03B1
 56: 0x0396 [0x4A] LocalPlayer looks at Chocobo (ID: 17293711/0x0107E18F)
 57: 0x039F [0x4A] Dietmund (ID: 17293710/0x0107E18E) looks at Chocobo (ID: 17293711/0x0107E18F)
 58: 0x03A8 [0x1C] WAIT(1* ticks)
 59: 0x03AB [0x0B] ExtData[1]->WorkLocal[0]++
 60: 0x03AE [0x01] GOTO 0x038E
 61: 0x03B1 [0x29] REQ_SET_WAIT(priority=0x07, entity_id=Chocobo (ID: 17293711/0x0107E18F), tag_num=0x0A)
 62: 0x03B8 [0x1C] WAIT(60* ticks)
 63: 0x03BB [0x27] REQ_SET(priority=0x06, entity_id=Chocobo (ID: 17293711/0x0107E18F), tag_num=0x05)
 64: 0x03C2 [0x45] LOAD_SCHEDULED_TASK: Load scheduler "cm34" with entities [EventEntity, EventEntity], work=[146*, 0*]
 65: 0x03D3 [0x06] ExtData[1]->WorkLocal[0] = 0

SUBROUTINE_03D6:
 66: 0x03D6 [0x02] IF !(ExtData[1]->WorkLocal[0] > 90*) GOTO 0x03F9
 67: 0x03DE [0x4A] LocalPlayer looks at Chocobo (ID: 17293711/0x0107E18F)
 68: 0x03E7 [0x4A] Dietmund (ID: 17293710/0x0107E18E) looks at Chocobo (ID: 17293711/0x0107E18F)
 69: 0x03F0 [0x1C] WAIT(1* ticks)
 70: 0x03F3 [0x0B] ExtData[1]->WorkLocal[0]++
 71: 0x03F6 [0x01] GOTO 0x03D6
 72: 0x03F9 [0x55] WAIT_LOAD_SCHEDULER: Wait for scheduler "cm34" with entities [EventEntity, EventEntity], work=146*
 73: 0x0408 [0x06] Work_Zone[32] = 0
 74: 0x040B [0x27] REQ_SET(priority=0x07, entity_id=Chocobo (ID: 17293711/0x0107E18F), tag_num=0x07)
 75: 0x0412 [0x1C] WAIT(120* ticks)
 76: 0x0415 [0x2B] Dietmund (ID: 17293710/0x0107E18E) [7357*]:
    → "What? You think we can find roots there?"
 77: 0x041C [0x23] WAIT_FOR_DIALOG_INTERACTION
 78: 0x041D [0x7B] Dietmund (ID: 17293710/0x0107E18E) stops talking
 79: 0x0422 [0x27] REQ_SET(priority=0x05, entity_id=Chocobo (ID: 17293711/0x0107E18F), tag_num=0x08)
 80: 0x0429 [0x05] Work_Zone[32] = 1
 81: 0x042C [0x29] REQ_SET_WAIT(priority=0x03, entity_id=Dietmund (ID: 17293710/0x0107E18E), tag_num=0x0A)
 82: 0x0433 [0x29] REQ_SET_WAIT(priority=0x04, entity_id=Dietmund (ID: 17293710/0x0107E18E), tag_num=0x04)
 83: 0x043A [0x4A] Chocobo (ID: 17293711/0x0107E18F) looks at Dietmund (ID: 17293710/0x0107E18E)
 84: 0x0443 [0x6F] WAIT_FRAME_DELAY: Yield until WaitTime reaches zero
 85: 0x0444 [0x76] CHECK_ENTITY_RENDER_FLAGS: Wait until Chocobo (ID: 17293711/0x0107E18F) Render.Flags0 and Render.Flags3 conditions are met
 86: 0x0449 [0x2B] Dietmund (ID: 17293710/0x0107E18E) [7358*]:
    → "Yeah! Here they are!"
 87: 0x0450 [0x23] WAIT_FOR_DIALOG_INTERACTION
 88: 0x0451 [0x29] REQ_SET_WAIT(priority=0x04, entity_id=Dietmund (ID: 17293710/0x0107E18E), tag_num=0x05)
 89: 0x0458 [0x4A] Dietmund (ID: 17293710/0x0107E18E) looks at Chocobo (ID: 17293711/0x0107E18F)
 90: 0x0461 [0x6F] WAIT_FRAME_DELAY: Yield until WaitTime reaches zero
 91: 0x0462 [0x76] CHECK_ENTITY_RENDER_FLAGS: Wait until Dietmund (ID: 17293710/0x0107E18E) Render.Flags0 and Render.Flags3 conditions are met
 92: 0x0467 [0x45] LOAD_SCHEDULED_TASK: Load scheduler "cm3b" with entities [EventEntity, EventEntity], work=[146*, 0*]
 93: 0x0478 [0x55] WAIT_LOAD_SCHEDULER: Wait for scheduler "cm3b" with entities [EventEntity, EventEntity], work=146*
 94: 0x0487 [0x27] REQ_SET(priority=0x03, entity_id=Dietmund (ID: 17293710/0x0107E18E), tag_num=0x06)
 95: 0x048E [0x2B] Dietmund (ID: 17293710/0x0107E18E) [7359*]:
    → "I was so rotten to you, but you came through for me."
 96: 0x0495 [0x23] WAIT_FOR_DIALOG_INTERACTION
 97: 0x0496 [0x29] REQ_SET_WAIT(priority=0x04, entity_id=Dietmund (ID: 17293710/0x0107E18E), tag_num=0x0B)
 98: 0x049D [0x27] REQ_SET(priority=0x03, entity_id=Chocobo (ID: 17293711/0x0107E18F), tag_num=0x09)
 99: 0x04A4 [0x2B] Chocobo (ID: 17293711/0x0107E18F) [7360*]:
    → "Kweh!"
100: 0x04AB [0x23] WAIT_FOR_DIALOG_INTERACTION
101: 0x04AC [0x29] REQ_SET_WAIT(priority=0x04, entity_id=Chocobo (ID: 17293711/0x0107E18F), tag_num=0x0A)
102: 0x04B3 [0x29] REQ_SET_WAIT(priority=0x04, entity_id=Dietmund (ID: 17293710/0x0107E18E), tag_num=0x07)
103: 0x04BA [0x2B] Dietmund (ID: 17293710/0x0107E18E) [7361*]:
    → "Huh? You'd really carry me back?"
104: 0x04C1 [0x23] WAIT_FOR_DIALOG_INTERACTION
105: 0x04C2 [0x29] REQ_SET_WAIT(priority=0x03, entity_id=Dietmund (ID: 17293710/0x0107E18E), tag_num=0x08)
106: 0x04C9 [0x2B] Dietmund (ID: 17293710/0x0107E18E) [7362*]:
    → "I... I'm sorry for what I did. And I'm grateful for your help."
107: 0x04D0 [0x23] WAIT_FOR_DIALOG_INTERACTION
108: 0x04D1 [0x29] REQ_SET_WAIT(priority=0x04, entity_id=Dietmund (ID: 17293710/0x0107E18E), tag_num=0x09)
109: 0x04D8 [0x4A] Dietmund (ID: 17293710/0x0107E18E) looks at LocalPlayer
110: 0x04E1 [0x6F] WAIT_FRAME_DELAY: Yield until WaitTime reaches zero
111: 0x04E2 [0x76] CHECK_ENTITY_RENDER_FLAGS: Wait until Dietmund (ID: 17293710/0x0107E18E) Render.Flags0 and Render.Flags3 conditions are met
112: 0x04E7 [0x2B] Dietmund (ID: 17293710/0x0107E18E) [7363*]:
    → "And I need to say thanks to you, too. I gotta hurry home now, so stop by my house, and I'll try to make it up to you, okay?"
113: 0x04EE [0x23] WAIT_FOR_DIALOG_INTERACTION
114: 0x04EF [0x4A] Dietmund (ID: 17293710/0x0107E18E) looks at Chocobo (ID: 17293711/0x0107E18F)
115: 0x04F8 [0x6F] WAIT_FRAME_DELAY: Yield until WaitTime reaches zero
116: 0x04F9 [0x76] CHECK_ENTITY_RENDER_FLAGS: Wait until Dietmund (ID: 17293710/0x0107E18E) Render.Flags0 and Render.Flags3 conditions are met
117: 0x04FE [0x2B] Dietmund (ID: 17293710/0x0107E18E) [7364*]:
    → "Hang in there, son... I'm comin' home!"
118: 0x0505 [0x23] WAIT_FOR_DIALOG_INTERACTION
119: 0x0506 [0x45] LOAD_SCHEDULED_TASK: Load scheduler "fdo2" with entities [LocalPlayer, LocalPlayer], work=[200*, 0*]
120: 0x0517 [0x55] WAIT_LOAD_SCHEDULER: Wait for scheduler "fdo2" with entities [LocalPlayer, LocalPlayer], work=200*
121: 0x0526 [0x78] ENABLE_GAME_TIMER_RESET_WEATHER()
122: 0x0527 [0x5C] MUSIC_CONTROL: Set Idle (Day) music to song 0*
123: 0x052B [0x5C] MUSIC_CONTROL: Set Idle (Night) music to song 0*
124: 0x052F [0x4E] SET_ENTITY_HIDE_FLAG: Hide Dietmund (ID: 17293710/0x0107E18E)
125: 0x0535 [0x4E] SET_ENTITY_HIDE_FLAG: Hide Chocobo (ID: 17293711/0x0107E18F)
126: 0x053B [0x46] CAMERA_CONTROL: Restore default settings
127: 0x053D [0x1C] WAIT(60* ticks)
128: 0x0540 [0x45] LOAD_SCHEDULED_TASK: Load scheduler "fdi2" with entities [LocalPlayer, LocalPlayer], work=[200*, 0*]
129: 0x0551 [0x21] END_EVENT
130: 0x0552 [0x00] END_REQSTACK()
```

### Event 100

#### Metadata

| Field        | Value     |
|--------------|-----------|
| Entrypoint   | 0x0553    |
| Data Size    | 953 bytes |
| Instructions | 118       |

```
      00 01 02 03 04 05 06 07  08 09 0A 0B 0C 0D 0E 0F
      -- -- -- -- -- -- -- --  -- -- -- -- -- -- -- --
0550:          22 00 4E 00 AB  E1 07 01 4E 00 AC E1 07     ".N.....N....
0560: 01 4E 00 AD E1 07 01 42  37 2E 80 2F 80 30 80 31  .N.....B7../.0.1
0570: 80 46 01 32 00 80 79 00  F0 FF FF 7F AB E1 07 01  .F.2..y.........
0580: 80 AB E1 07 01 80 AC E1  07 01 45 32 80 F0 FF FF  ..........E2....
0590: 7F F0 FF FF 7F 73 30 30  33 02 80 45 01 80 F0 FF  .....s003..E....
05A0: FF 7F F0 FF FF 7F 66 64  69 31 02 80 1F 00 33 80  ......fdi1....3.
05B0: 34 80 35 80 1F 01 2B AB  E1 07 01 36 80 23 55 32  4.5...+....6.#U2
05C0: 80 F0 FF FF 7F F0 FF FF  7F 73 30 30 33 79 00 AB  .........s003y..
05D0: E1 07 01 F0 FF FF 7F 79  00 AC E1 07 01 F0 FF FF  .......y........
05E0: 7F 4A AD E1 07 01 F0 FF  FF 7F 2B AD E1 07 01 37  .J........+....7
05F0: 80 23 7B AC E1 07 01 66  38 80 AC E1 07 01 AC E1  .#{....f8.......
0600: 07 01 74 68 6B 31 2B AC  E1 07 01 39 80 23 45 32  ..thk1+....9.#E2
0610: 80 F0 FF FF 7F F0 FF FF  7F 73 30 30 34 02 80 4A  .........s004..J
0620: AD E1 07 01 AB E1 07 01  7B AB E1 07 01 5B 01 80  ........{....[..
0630: AB E1 07 01 AB E1 07 01  74 6C 62 30 2B AB E1 07  ........tlb0+...
0640: 01 3A 80 23 5B 01 80 AB  E1 07 01 AB E1 07 01 74  .:.#[..........t
0650: 6C 62 31 2B AB E1 07 01  3B 80 23 66 3C 80 AD E1  lb1+....;.#f<...
0660: 07 01 AD E1 07 01 74 6C  6B 30 2B AD E1 07 01 3D  ......tlk0+....=
0670: 80 23 6B 69 64 6C 30 AD  E1 07 01 66 38 80 AC E1  .#kidl0....f8...
0680: 07 01 AC E1 07 01 74 68  6B 32 79 00 AC E1 07 01  ......thk2y.....
0690: AB E1 07 01 52 32 80 F0  FF FF 7F F0 FF FF 7F 73  ....R2.........s
06A0: 30 30 34 45 32 80 F0 FF  FF 7F F0 FF FF 7F 73 30  004E2.........s0
06B0: 30 35 02 80 2B AC E1 07  01 3E 80 23 5B 01 80 AB  05..+....>.#[...
06C0: E1 07 01 AB E1 07 01 74  6C 61 30 2B AB E1 07 01  .......tla0+....
06D0: 3F 80 23 5B 01 80 AB E1  07 01 AB E1 07 01 74 6C  ?.#[..........tl
06E0: 61 31 2B AB E1 07 01 40  80 23 6E AC E1 07 01 41  a1+....@.#n....A
06F0: 80 99 AC E1 07 01 2B AC  E1 07 01 42 80 23 5B 01  ......+....B.#[.
0700: 80 AB E1 07 01 AB E1 07  01 74 68 6B 31 2B AB E1  .........thk1+..
0710: 07 01 43 80 23 53 AB E1  07 01 AB E1 07 01 74 68  ..C.#S........th
0720: 6B 31 5B 01 80 AB E1 07  01 AB E1 07 01 74 68 6B  k1[..........thk
0730: 32 52 32 80 F0 FF FF 7F  F0 FF FF 7F 73 30 30 35  2R2.........s005
0740: 45 32 80 F0 FF FF 7F F0  FF FF 7F 73 30 30 36 02  E2.........s006.
0750: 80 2B AB E1 07 01 44 80  23 2B AB E1 07 01 45 80  .+....D.#+....E.
0760: 23 66 3C 80 AD E1 07 01  AD E1 07 01 74 6C 6B 30  #f<.........tlk0
0770: 2B AD E1 07 01 46 80 23  6B 69 64 6C 30 AD E1 07  +....F.#kidl0...
0780: 01 6E AC E1 07 01 47 80  99 AC E1 07 01 2B AC E1  .n....G......+..
0790: 07 01 48 80 23 66 3C 80  AD E1 07 01 AD E1 07 01  ..H.#f<.........
07A0: 74 68 6B 32 4A AD E1 07  01 AC E1 07 01 2B AD E1  thk2J........+..
07B0: 07 01 49 80 23 52 32 80  F0 FF FF 7F F0 FF FF 7F  ..I.#R2.........
07C0: 73 30 30 36 45 32 80 F0  FF FF 7F F0 FF FF 7F 73  s006E2.........s
07D0: 30 30 37 02 80 66 38 80  AC E1 07 01 AC E1 07 01  007..f8.........
07E0: 74 68 6B 31 2B AC E1 07  01 4A 80 23 53 AC E1 07  thk1+....J.#S...
07F0: 01 AC E1 07 01 74 68 6B  31 66 38 80 AC E1 07 01  .....thk1f8.....
0800: AC E1 07 01 74 68 6B 32  53 AC E1 07 01 AC E1 07  ....thk2S.......
0810: 01 74 68 6B 32 4A AC E1  07 01 F0 FF FF 7F 1C 1A  .thk2J..........
0820: 80 2B AC E1 07 01 4B 80  23 27 0A AB E1 07 01 02  .+....K.#'......
0830: 1C 1A 80 2B AB E1 07 01  4C 80 23 2A 0A AB E1 07  ...+....L.#*....
0840: 01 5B 01 80 AB E1 07 01  AB E1 07 01 69 62 30 30  .[..........ib00
0850: 2B AB E1 07 01 4D 80 23  50 AB E1 07 01 AB E1 07  +....M.#P.......
0860: 01 69 62 30 30 6B 69 64  6C 30 AB E1 07 01 52 32  .ib00kidl0....R2
0870: 80 F0 FF FF 7F F0 FF FF  7F 73 30 30 37 45 32 80  .........s007E2.
0880: F0 FF FF 7F F0 FF FF 7F  73 30 30 38 02 80 27 0A  ........s008..'.
0890: AB E1 07 01 03 66 38 80  AC E1 07 01 AC E1 07 01  .....f8.........
08A0: 74 6C 6B 30 2B AC E1 07  01 4E 80 23 6B 69 64 6C  tlk0+....N.#kidl
08B0: 30 AC E1 07 01 27 0A AC  E1 07 01 02 1C 4F 80 27  0....'.......O.'
08C0: 0A AD E1 07 01 02 45 01  80 F0 FF FF 7F F0 FF FF  ......E.........
08D0: 7F 66 64 6F 32 02 80 55  01 80 F0 FF FF 7F F0 FF  .fdo2..U........
08E0: FF 7F 66 64 6F 32 45 50  80 F0 FF FF 7F F0 FF FF  ..fdo2EP........
08F0: 7F 71 73 74 63 02 80 46  00 45 01 80 F0 FF FF 7F  .qstc..F.E......
0900: F0 FF FF 7F 66 64 69 32  02 80 21 00              ....fdi2..!.    
```

#### Opcodes

```
  0: 0x0553 [0x22] ENTITY_HIDE_FLAG(enabled=0x00)
  1: 0x0555 [0x4E] SET_ENTITY_HIDE_FLAG: Show Volker (ID: 17293739/0x0107E1AB)
  2: 0x055B [0x4E] SET_ENTITY_HIDE_FLAG: Show Iron Eater (ID: 17293740/0x0107E1AC)
  3: 0x0561 [0x4E] SET_ENTITY_HIDE_FLAG: Show Naji (ID: 17293741/0x0107E1AD)
  4: 0x0567 [0x42] SET_CLI_EVENT_CANCEL_DATA()
  5: 0x0568 [0x37] UPDATE_EVENT_POSITION_AND_DIR: x=-637.497*, z=459.531*, y=18.452*, direction=340.7°*
  6: 0x0571 [0x46] CAMERA_CONTROL: Disable user control
  7: 0x0573 [0x32] ExtData[1]->MainSpeed = 13* * 0.1
  8: 0x0576 [0x79] LocalPlayer looks at Volker (ID: 17293739/0x0107E1AB) (Basic look)
  9: 0x0580 [0x80] LOAD_WAIT(entity=Volker (ID: 17293739/0x0107E1AB))
 10: 0x0585 [0x80] LOAD_WAIT(entity=Iron Eater (ID: 17293740/0x0107E1AC))
 11: 0x058A [0x45] LOAD_SCHEDULED_TASK: Load scheduler "s003" with entities [LocalPlayer, LocalPlayer], work=[204*, 0*]
 12: 0x059B [0x45] LOAD_SCHEDULED_TASK: Load scheduler "fdi1" with entities [LocalPlayer, LocalPlayer], work=[200*, 0*]
 13: 0x05AC [0x1F] MOVE_ENTITY: EventEntity moves to X=-632.463*, Z=458.936*, Y=17.607*
 14: 0x05B4 [0x1F] MOVE_ENTITY: Update entity position (mode=1)
 15: 0x05B6 [0x2B] Volker (ID: 17293739/0x0107E1AB) [7365*]:
    → "We have retrieved the artifact. Now what are we to...hm?"
 16: 0x05BD [0x23] WAIT_FOR_DIALOG_INTERACTION
 17: 0x05BE [0x55] WAIT_LOAD_SCHEDULER: Wait for scheduler "s003" with entities [LocalPlayer, LocalPlayer], work=204*
 18: 0x05CD [0x79] Volker (ID: 17293739/0x0107E1AB) looks at LocalPlayer (Basic look)
 19: 0x05D7 [0x79] Iron Eater (ID: 17293740/0x0107E1AC) looks at LocalPlayer (Basic look)
 20: 0x05E1 [0x4A] Naji (ID: 17293741/0x0107E1AD) looks at LocalPlayer
 21: 0x05EA [0x2B] Naji (ID: 17293741/0x0107E1AD) [7366*]:
    → "Wait, you're the... Why are you here?"
 22: 0x05F1 [0x23] WAIT_FOR_DIALOG_INTERACTION
 23: 0x05F2 [0x7B] Iron Eater (ID: 17293740/0x0107E1AC) stops talking
 24: 0x05F7 [0x66] LOAD_EXT_SCHEDULER_MAIN: Load scheduler "thk1" with entities [Iron Eater (ID: 17293740/0x0107E1AC), Iron Eater (ID: 17293740/0x0107E1AC)], work=69*
 25: 0x0606 [0x2B] Iron Eater (ID: 17293740/0x0107E1AC) [7367*]:
    → "I see. We must have been overheard by one of the residents of the Mines District. Let me guess, was it Deidogg?"
 26: 0x060D [0x23] WAIT_FOR_DIALOG_INTERACTION
 27: 0x060E [0x45] LOAD_SCHEDULED_TASK: Load scheduler "s004" with entities [LocalPlayer, LocalPlayer], work=[204*, 0*]
 28: 0x061F [0x4A] Naji (ID: 17293741/0x0107E1AD) looks at Volker (ID: 17293739/0x0107E1AB)
 29: 0x0628 [0x7B] Volker (ID: 17293739/0x0107E1AB) stops talking
 30: 0x062D [0x5B] LOAD_EXT_SCHEDULER: Load scheduler "tlb0" with entities [Volker (ID: 17293739/0x0107E1AB), Volker (ID: 17293739/0x0107E1AB)], work=200*
 31: 0x063C [0x2B] Volker (ID: 17293739/0x0107E1AB) [7368*]:
    → "Nice try, Iron Eater. You were planning this all along."
 32: 0x0643 [0x23] WAIT_FOR_DIALOG_INTERACTION
 33: 0x0644 [0x5B] LOAD_EXT_SCHEDULER: Load scheduler "tlb1" with entities [Volker (ID: 17293739/0x0107E1AB), Volker (ID: 17293739/0x0107E1AB)], work=200*
 34: 0x0653 [0x2B] Volker (ID: 17293739/0x0107E1AB) [7369*]:
    → "No... No, you were hoping [he/she] would get here first."
 35: 0x065A [0x23] WAIT_FOR_DIALOG_INTERACTION
 36: 0x065B [0x66] LOAD_EXT_SCHEDULER_MAIN: Load scheduler "tlk0" with entities [Naji (ID: 17293741/0x0107E1AD), Naji (ID: 17293741/0x0107E1AD)], work=9*
 37: 0x066A [0x2B] Naji (ID: 17293741/0x0107E1AD) [7370*]:
    → "What is going on here?"
 38: 0x0671 [0x23] WAIT_FOR_DIALOG_INTERACTION
 39: 0x0672 [0x6B] STOP_AND_IDLE: Naji (ID: 17293741/0x0107E1AD) stops current action and resets to idle (animation="idl0")
 40: 0x067B [0x66] LOAD_EXT_SCHEDULER_MAIN: Load scheduler "thk2" with entities [Iron Eater (ID: 17293740/0x0107E1AC), Iron Eater (ID: 17293740/0x0107E1AC)], work=69*
 41: 0x068A [0x79] Iron Eater (ID: 17293740/0x0107E1AC) looks at Volker (ID: 17293739/0x0107E1AB) (Basic look)
 42: 0x0694 [0x52] END_LOAD_SCHEDULER: End scheduler "s004" with entities [LocalPlayer, LocalPlayer], work=204*
 43: 0x06A3 [0x45] LOAD_SCHEDULED_TASK: Load scheduler "s005" with entities [LocalPlayer, LocalPlayer], work=[204*, 0*]
 44: 0x06B4 [0x2B] Iron Eater (ID: 17293740/0x0107E1AC) [7371*]:
    → "You have seen through my plan. I never have been talented in the skill of deceit."
 45: 0x06BB [0x23] WAIT_FOR_DIALOG_INTERACTION
 46: 0x06BC [0x5B] LOAD_EXT_SCHEDULER: Load scheduler "tla0" with entities [Volker (ID: 17293739/0x0107E1AB), Volker (ID: 17293739/0x0107E1AB)], work=200*
 47: 0x06CB [0x2B] Volker (ID: 17293739/0x0107E1AB) [7372*]:
    → "I can sympathize with you, Iron Eater. I think it is terrible that a prized artifact of one of the most respected Mythril Musketeers would be used as a tool in a political squabble."
 48: 0x06D2 [0x23] WAIT_FOR_DIALOG_INTERACTION
 49: 0x06D3 [0x5B] LOAD_EXT_SCHEDULER: Load scheduler "tla1" with entities [Volker (ID: 17293739/0x0107E1AB), Volker (ID: 17293739/0x0107E1AB)], work=200*
 50: 0x06E2 [0x2B] Volker (ID: 17293739/0x0107E1AB) [7373*]:
    → "Unfortunately, it is exactly something that the senators would do, even though the president or Lord Lucius would make far better use of the artifact."
 51: 0x06E9 [0x23] WAIT_FOR_DIALOG_INTERACTION
 52: 0x06EA [0x6E] Iron Eater (ID: 17293740/0x0107E1AC) uses emote 7*
 53: 0x06F1 [0x99] Wait for Iron Eater (ID: 17293740/0x0107E1AC) animation to complete
 54: 0x06F6 [0x2B] Iron Eater (ID: 17293740/0x0107E1AC) [7374*]:
    → "However, if we return to San d'Oria with the artifact..."
 55: 0x06FD [0x23] WAIT_FOR_DIALOG_INTERACTION
 56: 0x06FE [0x5B] LOAD_EXT_SCHEDULER: Load scheduler "thk1" with entities [Volker (ID: 17293739/0x0107E1AB), Volker (ID: 17293739/0x0107E1AB)], work=200*
 57: 0x070D [0x2B] Volker (ID: 17293739/0x0107E1AB) [7375*]:
    → "We will most certainly be impeached. And on top of that, the artifact would never get the chance to be used once again. Armor is meant to be worn."
 58: 0x0714 [0x23] WAIT_FOR_DIALOG_INTERACTION
 59: 0x0715 [0x53] WAIT_SCHEDULER_TASK: Wait for scheduler "thk1" with entities [Volker (ID: 17293739/0x0107E1AB), Volker (ID: 17293739/0x0107E1AB)]
 60: 0x0722 [0x5B] LOAD_EXT_SCHEDULER: Load scheduler "thk2" with entities [Volker (ID: 17293739/0x0107E1AB), Volker (ID: 17293739/0x0107E1AB)], work=200*
 61: 0x0731 [0x52] END_LOAD_SCHEDULER: End scheduler "s005" with entities [LocalPlayer, LocalPlayer], work=204*
 62: 0x0740 [0x45] LOAD_SCHEDULED_TASK: Load scheduler "s006" with entities [LocalPlayer, LocalPlayer], work=[204*, 0*]
 63: 0x0751 [0x2B] Volker (ID: 17293739/0x0107E1AB) [7376*]:
    → "Well, it is time to stop complaining and start thinking about our mission report. We sought out and terminated the Goblin thieves, however, there was no sign of the Talekeeper Raogrimm's armor among them."
 64: 0x0758 [0x23] WAIT_FOR_DIALOG_INTERACTION
 65: 0x0759 [0x2B] Volker (ID: 17293739/0x0107E1AB) [7377*]:
    → "Weighing the circumstances, it is impossible to continue our investigation into the matter. I order us to return immediately to Bastok."
 66: 0x0760 [0x23] WAIT_FOR_DIALOG_INTERACTION
 67: 0x0761 [0x66] LOAD_EXT_SCHEDULER_MAIN: Load scheduler "tlk0" with entities [Naji (ID: 17293741/0x0107E1AD), Naji (ID: 17293741/0x0107E1AD)], work=9*
 68: 0x0770 [0x2B] Naji (ID: 17293741/0x0107E1AD) [7378*]:
    → "Wait... Didn't we just find the armor?"
 69: 0x0777 [0x23] WAIT_FOR_DIALOG_INTERACTION
 70: 0x0778 [0x6B] STOP_AND_IDLE: Naji (ID: 17293741/0x0107E1AD) stops current action and resets to idle (animation="idl0")
 71: 0x0781 [0x6E] Iron Eater (ID: 17293740/0x0107E1AC) uses emote 6*
 72: 0x0788 [0x99] Wait for Iron Eater (ID: 17293740/0x0107E1AC) animation to complete
 73: 0x078D [0x2B] Iron Eater (ID: 17293740/0x0107E1AC) [7379*]:
    → "Not very bright, are we, Naji? We "did not" find the armor."
 74: 0x0794 [0x23] WAIT_FOR_DIALOG_INTERACTION
 75: 0x0795 [0x66] LOAD_EXT_SCHEDULER_MAIN: Load scheduler "thk2" with entities [Naji (ID: 17293741/0x0107E1AD), Naji (ID: 17293741/0x0107E1AD)], work=9*
 76: 0x07A4 [0x4A] Naji (ID: 17293741/0x0107E1AD) looks at Iron Eater (ID: 17293740/0x0107E1AC)
 77: 0x07AD [0x2B] Naji (ID: 17293741/0x0107E1AD) [7380*]:
    → "Really!? Does this mean I can have it? I have been needing some new armor."
 78: 0x07B4 [0x23] WAIT_FOR_DIALOG_INTERACTION
 79: 0x07B5 [0x52] END_LOAD_SCHEDULER: End scheduler "s006" with entities [LocalPlayer, LocalPlayer], work=204*
 80: 0x07C4 [0x45] LOAD_SCHEDULED_TASK: Load scheduler "s007" with entities [LocalPlayer, LocalPlayer], work=[204*, 0*]
 81: 0x07D5 [0x66] LOAD_EXT_SCHEDULER_MAIN: Load scheduler "thk1" with entities [Iron Eater (ID: 17293740/0x0107E1AC), Iron Eater (ID: 17293740/0x0107E1AC)], work=69*
 82: 0x07E4 [0x2B] Iron Eater (ID: 17293740/0x0107E1AC) [7381*]:
    → "My impression of your mental capacity diminishes by the second. If you walked around wearing that armor, everyone would know that we found it!"
 83: 0x07EB [0x23] WAIT_FOR_DIALOG_INTERACTION
 84: 0x07EC [0x53] WAIT_SCHEDULER_TASK: Wait for scheduler "thk1" with entities [Iron Eater (ID: 17293740/0x0107E1AC), Iron Eater (ID: 17293740/0x0107E1AC)]
 85: 0x07F9 [0x66] LOAD_EXT_SCHEDULER_MAIN: Load scheduler "thk2" with entities [Iron Eater (ID: 17293740/0x0107E1AC), Iron Eater (ID: 17293740/0x0107E1AC)], work=69*
 86: 0x0808 [0x53] WAIT_SCHEDULER_TASK: Wait for scheduler "thk2" with entities [Iron Eater (ID: 17293740/0x0107E1AC), Iron Eater (ID: 17293740/0x0107E1AC)]
 87: 0x0815 [0x4A] Iron Eater (ID: 17293740/0x0107E1AC) looks at LocalPlayer
 88: 0x081E [0x1C] WAIT(30* ticks)
 89: 0x0821 [0x2B] Iron Eater (ID: 17293740/0x0107E1AC) [7382*]:
    → "You--you came here searching for this armor. I am sure that the Talekeeper Raogrimm would want a brave adventurer as yourself to use this in battle."
 90: 0x0828 [0x23] WAIT_FOR_DIALOG_INTERACTION
 91: 0x0829 [0x27] REQ_SET(priority=0x0A, entity_id=Volker (ID: 17293739/0x0107E1AB), tag_num=0x02)
 92: 0x0830 [0x1C] WAIT(30* ticks)
 93: 0x0833 [0x2B] Volker (ID: 17293739/0x0107E1AB) [7383*]:
    → "Just to make sure, we know nothing of that artifact. You found it by chance after battling the Goblin thieves yourself."
 94: 0x083A [0x23] WAIT_FOR_DIALOG_INTERACTION
 95: 0x083B [0x2A] GET_REQ_LEVEL(level=10, entity_id=Volker (ID: 17293739/0x0107E1AB))
 96: 0x0841 [0x5B] LOAD_EXT_SCHEDULER: Load scheduler "ib00" with entities [Volker (ID: 17293739/0x0107E1AB), Volker (ID: 17293739/0x0107E1AB)], work=200*
 97: 0x0850 [0x2B] Volker (ID: 17293739/0x0107E1AB) [7384*]:
    → "And don't worry. I will have replicas of that armor made so that by the end of the month, there will be hundreds of adventurers wearing the same thing. No one will blink an eye at you."
 98: 0x0857 [0x23] WAIT_FOR_DIALOG_INTERACTION
 99: 0x0858 [0x50] END_SCHEDULER_TASK: End scheduler "ib" with entities [0xE1AB, 0xE1AB], work=[263, 263]
100: 0x0865 [0x6B] STOP_AND_IDLE: Volker (ID: 17293739/0x0107E1AB) stops current action and resets to idle (animation="idl0")
101: 0x086E [0x52] END_LOAD_SCHEDULER: End scheduler "s007" with entities [LocalPlayer, LocalPlayer], work=204*
102: 0x087D [0x45] LOAD_SCHEDULED_TASK: Load scheduler "s008" with entities [LocalPlayer, LocalPlayer], work=[204*, 0*]
103: 0x088E [0x27] REQ_SET(priority=0x0A, entity_id=Volker (ID: 17293739/0x0107E1AB), tag_num=0x03)
104: 0x0895 [0x66] LOAD_EXT_SCHEDULER_MAIN: Load scheduler "tlk0" with entities [Iron Eater (ID: 17293740/0x0107E1AC), Iron Eater (ID: 17293740/0x0107E1AC)], work=69*
105: 0x08A4 [0x2B] Iron Eater (ID: 17293740/0x0107E1AC) [7385*]:
    → "Consider it fate that your path has crossed that of the Talekeeper. Use the armor wisely."
106: 0x08AB [0x23] WAIT_FOR_DIALOG_INTERACTION
107: 0x08AC [0x6B] STOP_AND_IDLE: Iron Eater (ID: 17293740/0x0107E1AC) stops current action and resets to idle (animation="idl0")
108: 0x08B5 [0x27] REQ_SET(priority=0x0A, entity_id=Iron Eater (ID: 17293740/0x0107E1AC), tag_num=0x02)
109: 0x08BC [0x1C] WAIT(45* ticks)
110: 0x08BF [0x27] REQ_SET(priority=0x0A, entity_id=Naji (ID: 17293741/0x0107E1AD), tag_num=0x02)
111: 0x08C6 [0x45] LOAD_SCHEDULED_TASK: Load scheduler "fdo2" with entities [LocalPlayer, LocalPlayer], work=[200*, 0*]
112: 0x08D7 [0x55] WAIT_LOAD_SCHEDULER: Wait for scheduler "fdo2" with entities [LocalPlayer, LocalPlayer], work=200*
113: 0x08E6 [0x45] LOAD_SCHEDULED_TASK: Load scheduler "qstc" with entities [LocalPlayer, LocalPlayer], work=[201*, 0*]
114: 0x08F7 [0x46] CAMERA_CONTROL: Restore default settings
115: 0x08F9 [0x45] LOAD_SCHEDULED_TASK: Load scheduler "fdi2" with entities [LocalPlayer, LocalPlayer], work=[200*, 0*]
116: 0x090A [0x21] END_EVENT
117: 0x090B [0x00] END_REQSTACK()
```

### Event 10000

#### Metadata

| Field        | Value   |
|--------------|---------|
| Entrypoint   | 0x090C  |
| Data Size    | 1 bytes |
| Instructions | 1       |

```
      00 01 02 03 04 05 06 07  08 09 0A 0B 0C 0D 0E 0F
      -- -- -- -- -- -- -- --  -- -- -- -- -- -- -- --
0900:                                      00                       .   
```

#### Opcodes

```
  0: 0x090C [0x00] END_REQSTACK()
```

### Event 65535.1

#### Metadata

| Field        | Value    |
|--------------|----------|
| Entrypoint   | 0x090D   |
| Data Size    | 21 bytes |
| Instructions | 5        |

```
      00 01 02 03 04 05 06 07  08 09 0A 0B 0C 0D 0E 0F
      -- -- -- -- -- -- -- --  -- -- -- -- -- -- -- --
0900:                                         2F 00 F8               /..
0910: FF FF 7F 36 51 80 52 80  53 80 80 F8 FF FF 7F 22  ...6Q.R.S......"
0920: 00 00                                             ..              
```

#### Opcodes

```
  0: 0x090D [0x2F] EventEntity->Render.Flags0 &= ~0x80000 // Bit 19
  1: 0x0913 [0x36] SET_ENTITY_EVENT_POSITION(pos_x=171.413*, pos_z=-215.079*, pos_y=19.923*)
  2: 0x091A [0x80] LOAD_WAIT(entity=EventEntity)
  3: 0x091F [0x22] ENTITY_HIDE_FLAG(enabled=0x00)
  4: 0x0921 [0x00] END_REQSTACK()
```

### Event 65535.2

#### Metadata

| Field        | Value    |
|--------------|----------|
| Entrypoint   | 0x0922   |
| Data Size    | 91 bytes |
| Instructions | 18       |

```
      00 01 02 03 04 05 06 07  08 09 0A 0B 0C 0D 0E 0F
      -- -- -- -- -- -- -- --  -- -- -- -- -- -- -- --
0920:       32 00 80 1F 00 54  80 55 80 56 80 1F 01 1C    2....T.U.V....
0930: 1A 80 79 00 F0 FF FF 7F  C1 E1 07 01 1C 1A 80 79  ..y............y
0940: 00 F0 FF FF 7F C2 E1 07  01 1C 1A 80 79 00 F0 FF  ............y...
0950: FF 7F C1 E1 07 01 1C 4F  80 4A F0 FF FF 7F BE E1  .......O.J......
0960: 07 01 6F 76 F0 FF FF 7F  6E F0 FF FF 7F 57 80 99  ..ov....n....W..
0970: F0 FF FF 7F 99 F0 FF FF  7F 1C 4F 80 00           ..........O..   
```

#### Opcodes

```
  0: 0x0922 [0x32] ExtData[1]->MainSpeed = 13* * 0.1
  1: 0x0925 [0x1F] MOVE_ENTITY: EventEntity moves to X=172.052*, Z=-210.413*, Y=19.961*
  2: 0x092D [0x1F] MOVE_ENTITY: Update entity position (mode=1)
  3: 0x092F [0x1C] WAIT(30* ticks)
  4: 0x0932 [0x79] LocalPlayer looks at Unnamed NPC (ID: 17293761/0x0107E1C1) (Basic look)
  5: 0x093C [0x1C] WAIT(30* ticks)
  6: 0x093F [0x79] LocalPlayer looks at Unnamed NPC (ID: 17293762/0x0107E1C2) (Basic look)
  7: 0x0949 [0x1C] WAIT(30* ticks)
  8: 0x094C [0x79] LocalPlayer looks at Unnamed NPC (ID: 17293761/0x0107E1C1) (Basic look)
  9: 0x0956 [0x1C] WAIT(45* ticks)
 10: 0x0959 [0x4A] LocalPlayer looks at Unnamed NPC (ID: 17293758/0x0107E1BE)
 11: 0x0962 [0x6F] WAIT_FRAME_DELAY: Yield until WaitTime reaches zero
 12: 0x0963 [0x76] CHECK_ENTITY_RENDER_FLAGS: Wait until LocalPlayer Render.Flags0 and Render.Flags3 conditions are met
 13: 0x0968 [0x6E] LocalPlayer uses emote 21*
 14: 0x096F [0x99] Wait for LocalPlayer animation to complete
 15: 0x0974 [0x99] Wait for LocalPlayer animation to complete
 16: 0x0979 [0x1C] WAIT(45* ticks)
 17: 0x097C [0x00] END_REQSTACK()
```

### Event 65535.3

#### Metadata

| Field        | Value    |
|--------------|----------|
| Entrypoint   | 0x097D   |
| Data Size    | 53 bytes |
| Instructions | 9        |

```
      00 01 02 03 04 05 06 07  08 09 0A 0B 0C 0D 0E 0F
      -- -- -- -- -- -- -- --  -- -- -- -- -- -- -- --
0970:                                         79 00 F0               y..
0980: FF FF 7F C2 E1 07 01 1C  4F 80 79 00 F0 FF FF 7F  ........O.y.....
0990: C1 E1 07 01 1C 4F 80 79  00 F0 FF FF 7F C2 E1 07  .....O.y........
09A0: 01 1C 4F 80 79 00 F0 FF  FF 7F C1 E1 07 01 1C 4F  ..O.y..........O
09B0: 80 00                                             ..              
```

#### Opcodes

```
  0: 0x097D [0x79] LocalPlayer looks at Unnamed NPC (ID: 17293762/0x0107E1C2) (Basic look)
  1: 0x0987 [0x1C] WAIT(45* ticks)
  2: 0x098A [0x79] LocalPlayer looks at Unnamed NPC (ID: 17293761/0x0107E1C1) (Basic look)
  3: 0x0994 [0x1C] WAIT(45* ticks)
  4: 0x0997 [0x79] LocalPlayer looks at Unnamed NPC (ID: 17293762/0x0107E1C2) (Basic look)
  5: 0x09A1 [0x1C] WAIT(45* ticks)
  6: 0x09A4 [0x79] LocalPlayer looks at Unnamed NPC (ID: 17293761/0x0107E1C1) (Basic look)
  7: 0x09AE [0x1C] WAIT(45* ticks)
  8: 0x09B1 [0x00] END_REQSTACK()
```

### Event 65535.4

#### Metadata

| Field        | Value    |
|--------------|----------|
| Entrypoint   | 0x09B2   |
| Data Size    | 34 bytes |
| Instructions | 7        |

```
      00 01 02 03 04 05 06 07  08 09 0A 0B 0C 0D 0E 0F
      -- -- -- -- -- -- -- --  -- -- -- -- -- -- -- --
09B0:       32 58 80 1F 00 59  80 5A 80 5B 80 1F 01 6F    2X...Y.Z.[...o
09C0: 79 00 C0 E1 07 01 F0 FF  FF 7F 4A F0 FF FF 7F BE  y.........J.....
09D0: E1 07 01 00                                       ....            
```

#### Opcodes

```
  0: 0x09B2 [0x32] ExtData[1]->MainSpeed = 40* * 0.1
  1: 0x09B5 [0x1F] MOVE_ENTITY: EventEntity moves to X=167.398*, Z=-204.394*, Y=19.881*
  2: 0x09BD [0x1F] MOVE_ENTITY: Update entity position (mode=1)
  3: 0x09BF [0x6F] WAIT_FRAME_DELAY: Yield until WaitTime reaches zero
  4: 0x09C0 [0x79] Unnamed NPC (ID: 17293760/0x0107E1C0) looks at LocalPlayer (Basic look)
  5: 0x09CA [0x4A] LocalPlayer looks at Unnamed NPC (ID: 17293758/0x0107E1BE)
  6: 0x09D3 [0x00] END_REQSTACK()
```

### Event 65535.5

#### Metadata

| Field        | Value    |
|--------------|----------|
| Entrypoint   | 0x09D4   |
| Data Size    | 10 bytes |
| Instructions | 2        |

```
      00 01 02 03 04 05 06 07  08 09 0A 0B 0C 0D 0E 0F
      -- -- -- -- -- -- -- --  -- -- -- -- -- -- -- --
09D0:             37 5C 80 5D  80 5E 80 5F 80 00            7\.].^._..  
```

#### Opcodes

```
  0: 0x09D4 [0x37] UPDATE_EVENT_POSITION_AND_DIR: x=138.570*, z=121.977*, y=-2.000*, direction=189.8°*
  1: 0x09DD [0x00] END_REQSTACK()
```

### Event 65535.6

#### Metadata

| Field        | Value    |
|--------------|----------|
| Entrypoint   | 0x09DE   |
| Data Size    | 10 bytes |
| Instructions | 2        |

```
      00 01 02 03 04 05 06 07  08 09 0A 0B 0C 0D 0E 0F
      -- -- -- -- -- -- -- --  -- -- -- -- -- -- -- --
09D0:                                            37 60                7`
09E0: 80 61 80 62 80 63 80 00                           .a.b.c..        
```

#### Opcodes

```
  0: 0x09DE [0x37] UPDATE_EVENT_POSITION_AND_DIR: x=98.429*, z=-65.755*, y=0.996*, direction=109.9°*
  1: 0x09E7 [0x00] END_REQSTACK()
```

### Event 65535.7

#### Metadata

| Field        | Value    |
|--------------|----------|
| Entrypoint   | 0x09E8   |
| Data Size    | 10 bytes |
| Instructions | 2        |

```
      00 01 02 03 04 05 06 07  08 09 0A 0B 0C 0D 0E 0F
      -- -- -- -- -- -- -- --  -- -- -- -- -- -- -- --
09E0:                          37 64 80 65 80 66 80 67          7d.e.f.g
09F0: 80 00                                             ..              
```

#### Opcodes

```
  0: 0x09E8 [0x37] UPDATE_EVENT_POSITION_AND_DIR: x=-216.466*, z=-92.633*, y=-0.245*, direction=224.2°*
  1: 0x09F1 [0x00] END_REQSTACK()
```

### Event 65535.8

#### Metadata

| Field        | Value    |
|--------------|----------|
| Entrypoint   | 0x09F2   |
| Data Size    | 10 bytes |
| Instructions | 2        |

```
      00 01 02 03 04 05 06 07  08 09 0A 0B 0C 0D 0E 0F
      -- -- -- -- -- -- -- --  -- -- -- -- -- -- -- --
09F0:       37 68 80 69 80 6A  80 6B 80 00                7h.i.j.k..    
```

#### Opcodes

```
  0: 0x09F2 [0x37] UPDATE_EVENT_POSITION_AND_DIR: x=35.631*, z=-50.515*, y=9.001*, direction=223.2°*
  1: 0x09FB [0x00] END_REQSTACK()
```

### Event 65535.9

#### Metadata

| Field        | Value    |
|--------------|----------|
| Entrypoint   | 0x09FC   |
| Data Size    | 10 bytes |
| Instructions | 2        |

```
      00 01 02 03 04 05 06 07  08 09 0A 0B 0C 0D 0E 0F
      -- -- -- -- -- -- -- --  -- -- -- -- -- -- -- --
09F0:                                      37 6C 80 6D              7l.m
0A00: 80 5E 80 6E 80 00                                 .^.n..          
```

#### Opcodes

```
  0: 0x09FC [0x37] UPDATE_EVENT_POSITION_AND_DIR: x=161.426*, z=161.015*, y=-2.000*, direction=134.3°*
  1: 0x0A05 [0x00] END_REQSTACK()
```

### Event 65535.10

#### Metadata

| Field        | Value    |
|--------------|----------|
| Entrypoint   | 0x0A06   |
| Data Size    | 10 bytes |
| Instructions | 2        |

```
      00 01 02 03 04 05 06 07  08 09 0A 0B 0C 0D 0E 0F
      -- -- -- -- -- -- -- --  -- -- -- -- -- -- -- --
0A00:                   37 6F  80 70 80 62 80 71 80 00        7o.p.b.q..
```

#### Opcodes

```
  0: 0x0A06 [0x37] UPDATE_EVENT_POSITION_AND_DIR: x=116.803*, z=-72.037*, y=0.996*, direction=179.4°*
  1: 0x0A0F [0x00] END_REQSTACK()
```

### Event 65535.11

#### Metadata

| Field        | Value    |
|--------------|----------|
| Entrypoint   | 0x0A10   |
| Data Size    | 10 bytes |
| Instructions | 2        |

```
      00 01 02 03 04 05 06 07  08 09 0A 0B 0C 0D 0E 0F
      -- -- -- -- -- -- -- --  -- -- -- -- -- -- -- --
0A10: 37 72 80 73 80 74 80 75  80 00                    7r.s.t.u..      
```

#### Opcodes

```
  0: 0x0A10 [0x37] UPDATE_EVENT_POSITION_AND_DIR: x=-228.551*, z=-119.930*, y=-0.249*, direction=359.7°*
  1: 0x0A19 [0x00] END_REQSTACK()
```

### Event 65535.12

#### Metadata

| Field        | Value    |
|--------------|----------|
| Entrypoint   | 0x0A1A   |
| Data Size    | 10 bytes |
| Instructions | 2        |

```
      00 01 02 03 04 05 06 07  08 09 0A 0B 0C 0D 0E 0F
      -- -- -- -- -- -- -- --  -- -- -- -- -- -- -- --
0A10:                                37 76 80 77 80 78            7v.w.x
0A20: 80 79 80 00                                       .y..            
```

#### Opcodes

```
  0: 0x0A1A [0x37] UPDATE_EVENT_POSITION_AND_DIR: x=49.022*, z=-73.036*, y=10.002*, direction=271.3°*
  1: 0x0A23 [0x00] END_REQSTACK()
```

### Event 65535.13

#### Metadata

| Field        | Value    |
|--------------|----------|
| Entrypoint   | 0x0A24   |
| Data Size    | 10 bytes |
| Instructions | 2        |

```
      00 01 02 03 04 05 06 07  08 09 0A 0B 0C 0D 0E 0F
      -- -- -- -- -- -- -- --  -- -- -- -- -- -- -- --
0A20:             37 7A 80 7B  80 62 80 7C 80 00            7z.{.b.|..  
```

#### Opcodes

```
  0: 0x0A24 [0x37] UPDATE_EVENT_POSITION_AND_DIR: x=99.821*, z=-65.633*, y=0.996*, direction=69.1°*
  1: 0x0A2D [0x00] END_REQSTACK()
```

### Event 65535.14

#### Metadata

| Field        | Value    |
|--------------|----------|
| Entrypoint   | 0x0A2E   |
| Data Size    | 10 bytes |
| Instructions | 2        |

```
      00 01 02 03 04 05 06 07  08 09 0A 0B 0C 0D 0E 0F
      -- -- -- -- -- -- -- --  -- -- -- -- -- -- -- --
0A20:                                            37 7D                7}
0A30: 80 7E 80 5E 80 7F 80 00                           .~.^....        
```

#### Opcodes

```
  0: 0x0A2E [0x37] UPDATE_EVENT_POSITION_AND_DIR: x=138.154*, z=120.084*, y=-2.000*, direction=328.2°*
  1: 0x0A37 [0x00] END_REQSTACK()
```

### Event 65535.15

#### Metadata

| Field        | Value    |
|--------------|----------|
| Entrypoint   | 0x0A38   |
| Data Size    | 10 bytes |
| Instructions | 2        |

```
      00 01 02 03 04 05 06 07  08 09 0A 0B 0C 0D 0E 0F
      -- -- -- -- -- -- -- --  -- -- -- -- -- -- -- --
0A30:                          37 80 80 81 80 82 80 83          7.......
0A40: 80 00                                             ..              
```

#### Opcodes

```
  0: 0x0A38 [0x37] UPDATE_EVENT_POSITION_AND_DIR: x=-216.145*, z=-94.016*, y=-0.142*, direction=186.6°*
  1: 0x0A41 [0x00] END_REQSTACK()
```

### Event 65535.16

#### Metadata

| Field        | Value    |
|--------------|----------|
| Entrypoint   | 0x0A42   |
| Data Size    | 10 bytes |
| Instructions | 2        |

```
      00 01 02 03 04 05 06 07  08 09 0A 0B 0C 0D 0E 0F
      -- -- -- -- -- -- -- --  -- -- -- -- -- -- -- --
0A40:       37 84 80 85 80 6A  80 86 80 00                7....j....    
```

#### Opcodes

```
  0: 0x0A42 [0x37] UPDATE_EVENT_POSITION_AND_DIR: x=35.685*, z=-50.129*, y=9.001*, direction=143.0°*
  1: 0x0A4B [0x00] END_REQSTACK()
```

### Event 65535.17

#### Metadata

| Field        | Value    |
|--------------|----------|
| Entrypoint   | 0x0A4C   |
| Data Size    | 10 bytes |
| Instructions | 2        |

```
      00 01 02 03 04 05 06 07  08 09 0A 0B 0C 0D 0E 0F
      -- -- -- -- -- -- -- --  -- -- -- -- -- -- -- --
0A40:                                      37 87 80 88              7...
0A50: 80 89 80 8A 80 00                                 ......          
```

#### Opcodes

```
  0: 0x0A4C [0x37] UPDATE_EVENT_POSITION_AND_DIR: x=-278.719*, z=-417.230*, y=-39.909*, direction=239.6°*
  1: 0x0A55 [0x00] END_REQSTACK()
```

### Event 65535.18

#### Metadata

| Field        | Value    |
|--------------|----------|
| Entrypoint   | 0x0A56   |
| Data Size    | 10 bytes |
| Instructions | 2        |

```
      00 01 02 03 04 05 06 07  08 09 0A 0B 0C 0D 0E 0F
      -- -- -- -- -- -- -- --  -- -- -- -- -- -- -- --
0A50:                   37 8B  80 8C 80 8D 80 8E 80 00        7.........
```

#### Opcodes

```
  0: 0x0A56 [0x37] UPDATE_EVENT_POSITION_AND_DIR: x=571.326*, z=-272.093*, y=-0.349*, direction=37.1°*
  1: 0x0A5F [0x00] END_REQSTACK()
```

### Event 65535.19

#### Metadata

| Field        | Value    |
|--------------|----------|
| Entrypoint   | 0x0A60   |
| Data Size    | 10 bytes |
| Instructions | 2        |

```
      00 01 02 03 04 05 06 07  08 09 0A 0B 0C 0D 0E 0F
      -- -- -- -- -- -- -- --  -- -- -- -- -- -- -- --
0A60: 37 8F 80 90 80 91 80 92  80 00                    7.........      
```

#### Opcodes

```
  0: 0x0A60 [0x37] UPDATE_EVENT_POSITION_AND_DIR: x=-281.057*, z=-421.233*, y=-39.794*, direction=157.8°*
  1: 0x0A69 [0x00] END_REQSTACK()
```

### Event 65535.20

#### Metadata

| Field        | Value    |
|--------------|----------|
| Entrypoint   | 0x0A6A   |
| Data Size    | 10 bytes |
| Instructions | 2        |

```
      00 01 02 03 04 05 06 07  08 09 0A 0B 0C 0D 0E 0F
      -- -- -- -- -- -- -- --  -- -- -- -- -- -- -- --
0A60:                                37 93 80 94 80 02            7.....
0A70: 80 95 80 00                                       ....            
```

#### Opcodes

```
  0: 0x0A6A [0x37] UPDATE_EVENT_POSITION_AND_DIR: x=561.040*, z=-276.985*, y=0.000*, direction=152.3°*
  1: 0x0A73 [0x00] END_REQSTACK()
```

### Event 65535.21

#### Metadata

| Field        | Value    |
|--------------|----------|
| Entrypoint   | 0x0A74   |
| Data Size    | 10 bytes |
| Instructions | 2        |

```
      00 01 02 03 04 05 06 07  08 09 0A 0B 0C 0D 0E 0F
      -- -- -- -- -- -- -- --  -- -- -- -- -- -- -- --
0A70:             37 96 80 97  80 98 80 99 80 00            7.........  
```

#### Opcodes

```
  0: 0x0A74 [0x37] UPDATE_EVENT_POSITION_AND_DIR: x=-358.228*, z=19.933*, y=-35.004*, direction=184.3°*
  1: 0x0A7D [0x00] END_REQSTACK()
```

### Event 65535.22

#### Metadata

| Field        | Value    |
|--------------|----------|
| Entrypoint   | 0x0A7E   |
| Data Size    | 10 bytes |
| Instructions | 2        |

```
      00 01 02 03 04 05 06 07  08 09 0A 0B 0C 0D 0E 0F
      -- -- -- -- -- -- -- --  -- -- -- -- -- -- -- --
0A70:                                            37 9A                7.
0A80: 80 9B 80 9C 80 9D 80 00                           ........        
```

#### Opcodes

```
  0: 0x0A7E [0x37] UPDATE_EVENT_POSITION_AND_DIR: x=121.457*, z=115.601*, y=-7.981*, direction=307.3°*
  1: 0x0A87 [0x00] END_REQSTACK()
```

### Event 65535.23

#### Metadata

| Field        | Value    |
|--------------|----------|
| Entrypoint   | 0x0A88   |
| Data Size    | 10 bytes |
| Instructions | 2        |

```
      00 01 02 03 04 05 06 07  08 09 0A 0B 0C 0D 0E 0F
      -- -- -- -- -- -- -- --  -- -- -- -- -- -- -- --
0A80:                          37 9E 80 9F 80 A0 80 A1          7.......
0A90: 80 00                                             ..              
```

#### Opcodes

```
  0: 0x0A88 [0x37] UPDATE_EVENT_POSITION_AND_DIR: x=154.569*, z=-174.284*, y=0.551*, direction=205.0°*
  1: 0x0A91 [0x00] END_REQSTACK()
```

### Event 65535.24

#### Metadata

| Field        | Value    |
|--------------|----------|
| Entrypoint   | 0x0A92   |
| Data Size    | 10 bytes |
| Instructions | 2        |

```
      00 01 02 03 04 05 06 07  08 09 0A 0B 0C 0D 0E 0F
      -- -- -- -- -- -- -- --  -- -- -- -- -- -- -- --
0A90:       37 A2 80 A3 80 A4  80 A5 80 00                7.........    
```

#### Opcodes

```
  0: 0x0A92 [0x37] UPDATE_EVENT_POSITION_AND_DIR: x=-15.373*, z=104.022*, y=-17.300*, direction=78.1°*
  1: 0x0A9B [0x00] END_REQSTACK()
```

### Event 65535.25

#### Metadata

| Field        | Value    |
|--------------|----------|
| Entrypoint   | 0x0A9C   |
| Data Size    | 12 bytes |
| Instructions | 3        |

```
      00 01 02 03 04 05 06 07  08 09 0A 0B 0C 0D 0E 0F
      -- -- -- -- -- -- -- --  -- -- -- -- -- -- -- --
0A90:                                      33 01 37 A6              3.7.
0AA0: 80 A7 80 A8 80 A9 80 00                           ........        
```

#### Opcodes

```
  0: 0x0A9C [0x33] EventEntity->Render.Flags0 |= 0x200000 // Bit 21 (flag=0x01)
  1: 0x0A9E [0x37] UPDATE_EVENT_POSITION_AND_DIR: x=0.646*, z=-26.695*, y=-7.109*, direction=147.0°*
  2: 0x0AA7 [0x00] END_REQSTACK()
```

### Event 65535.26

#### Metadata

| Field        | Value    |
|--------------|----------|
| Entrypoint   | 0x0AA8   |
| Data Size    | 10 bytes |
| Instructions | 2        |

```
      00 01 02 03 04 05 06 07  08 09 0A 0B 0C 0D 0E 0F
      -- -- -- -- -- -- -- --  -- -- -- -- -- -- -- --
0AA0:                          37 AA 80 AB 80 AC 80 AD          7.......
0AB0: 80 00                                             ..              
```

#### Opcodes

```
  0: 0x0AA8 [0x37] UPDATE_EVENT_POSITION_AND_DIR: x=-0.047*, z=-32.521*, y=-23.499*, direction=89.7°*
  1: 0x0AB1 [0x00] END_REQSTACK()
```

### Event 65535.27

#### Metadata

| Field        | Value    |
|--------------|----------|
| Entrypoint   | 0x0AB2   |
| Data Size    | 37 bytes |
| Instructions | 5        |

```
      00 01 02 03 04 05 06 07  08 09 0A 0B 0C 0D 0E 0F
      -- -- -- -- -- -- -- --  -- -- -- -- -- -- -- --
0AB0:       03 01 00 07 7F 1A  0A 0B 66 02 00 F8 FF FF    ........f.....
0AC0: 7F F8 FF FF 7F 73 68 61  30 53 F8 FF FF 7F F8 FF  .....sha0S......
0AD0: FF 7F 73 68 61 30 00                              ..sha0.         
```

#### Opcodes

```
  0: 0x0AB2 [0x03] ExtData[1]->WorkLocal[1] = Entity->Race
  1: 0x0AB7 [0x1A] CALL_SUBROUTINE(address=0x0B0A)
  2: 0x0ABA [0x66] LOAD_EXT_SCHEDULER_MAIN: Load scheduler "sha0" with entities [EventEntity, EventEntity], work=ExtData[1]->WorkLocal[2]
  3: 0x0AC9 [0x53] WAIT_SCHEDULER_TASK: Wait for scheduler "sha0" with entities [EventEntity, EventEntity]
  4: 0x0AD6 [0x00] END_REQSTACK()
```

### Event 65535.28

#### Metadata

| Field        | Value    |
|--------------|----------|
| Entrypoint   | 0x0AD7   |
| Data Size    | 37 bytes |
| Instructions | 5        |

```
      00 01 02 03 04 05 06 07  08 09 0A 0B 0C 0D 0E 0F
      -- -- -- -- -- -- -- --  -- -- -- -- -- -- -- --
0AD0:                      03  01 00 07 7F 1A 0A 0B 66         ........f
0AE0: 02 00 F8 FF FF 7F F8 FF  FF 7F 73 68 61 31 53 F8  ..........sha1S.
0AF0: FF FF 7F F8 FF FF 7F 73  68 61 31 00              .......sha1.    
```

#### Opcodes

```
  0: 0x0AD7 [0x03] ExtData[1]->WorkLocal[1] = Entity->Race
  1: 0x0ADC [0x1A] CALL_SUBROUTINE(address=0x0B0A)
  2: 0x0ADF [0x66] LOAD_EXT_SCHEDULER_MAIN: Load scheduler "sha1" with entities [EventEntity, EventEntity], work=ExtData[1]->WorkLocal[2]
  3: 0x0AEE [0x53] WAIT_SCHEDULER_TASK: Wait for scheduler "sha1" with entities [EventEntity, EventEntity]
  4: 0x0AFB [0x00] END_REQSTACK()
```

### Event 65535.29

#### Metadata

| Field        | Value   |
|--------------|---------|
| Entrypoint   | 0x0AFC  |
| Data Size    | 7 bytes |
| Instructions | 3       |

```
      00 01 02 03 04 05 06 07  08 09 0A 0B 0C 0D 0E 0F
      -- -- -- -- -- -- -- --  -- -- -- -- -- -- -- --
0AF0:                                      AB 03 AC 01              ....
0B00: 08 80 00                                          ...             
```

#### Opcodes

```
  0: 0x0AFC [0xAB] EventEntity->Render.Flags0 ^= 0x20000 // Toggle bit 17
  1: 0x0AFE [0xAC] EventEntity->StatusEvent = 1*
  2: 0x0B02 [0x00] END_REQSTACK()
```

### Event 65535.30

#### Metadata

| Field        | Value     |
|--------------|-----------|
| Entrypoint   | 0x0B03    |
| Data Size    | 155 bytes |
| Instructions | 3         |

```
      00 01 02 03 04 05 06 07  08 09 0A 0B 0C 0D 0E 0F
      -- -- -- -- -- -- -- --  -- -- -- -- -- -- -- --
0B00:          AC 01 02 80 AB  04 00 03 02 00 01 00 02     .............
0B10: 02 00 AE 80 05 1F 0B 08  02 00 08 80 01 24 0B 08  .............$..
0B20: 02 00 AF 80 14 02 00 0F  80 07 02 00 3C 80 1B 03  ............<...
0B30: 02 00 01 00 02 02 00 AE  80 05 44 0B 08 02 00 08  ..........D.....
0B40: 80 01 49 0B 08 02 00 AF  80 14 02 00 0F 80 07 02  ..I.............
0B50: 00 B0 80 1B 03 02 00 01  00 02 02 00 AE 80 05 69  ...............i
0B60: 0B 08 02 00 08 80 01 6E  0B 08 02 00 AF 80 14 02  .......n........
0B70: 00 0F 80 07 02 00 B1 80  1B 03 02 00 01 00 02 02  ................
0B80: 00 AE 80 05 8E 0B 08 02  00 08 80 01 93 0B 08 02  ................
0B90: 00 AF 80 14 02 00 0F 80  07 02 00 B2 80 1B        ..............  
```

#### Opcodes

```
  0: 0x0B03 [0xAC] EventEntity->StatusEvent = 0*
  1: 0x0B07 [0xAB] EventEntity->Render.Flags0 |= 0x40000 // Set bit 18
  2: 0x0B09 [0x00] END_REQSTACK()
```

#### Data or dead code:

```
# Dead code (unreachable instructions):
     0x0B0A [0x03] ExtData[1]->WorkLocal[2] = ExtData[1]->WorkLocal[1]
     0x0B0F [0x02] IF !(ExtData[1]->WorkLocal[2] > 5*) GOTO 0x0B1F
     0x0B17 [0x08] ExtData[1]->WorkLocal[2] -= 1*
     0x0B1C [0x01] GOTO 0x0B24
     0x0B1F [0x08] ExtData[1]->WorkLocal[2] -= 2*
     0x0B24 [0x14] ExtData[1]->WorkLocal[2] *= 10*
     0x0B29 [0x07] ExtData[1]->WorkLocal[2] += 9*
     0x0B2E [0x1B] RETURN
     0x0B2F [0x03] ExtData[1]->WorkLocal[2] = ExtData[1]->WorkLocal[1]
     0x0B34 [0x02] IF !(ExtData[1]->WorkLocal[2] > 5*) GOTO 0x0B44
     0x0B3C [0x08] ExtData[1]->WorkLocal[2] -= 1*
     0x0B41 [0x01] GOTO 0x0B49
     0x0B44 [0x08] ExtData[1]->WorkLocal[2] -= 2*
     0x0B49 [0x14] ExtData[1]->WorkLocal[2] *= 10*
     0x0B4E [0x07] ExtData[1]->WorkLocal[2] += 70*
     0x0B53 [0x1B] RETURN
     0x0B54 [0x03] ExtData[1]->WorkLocal[2] = ExtData[1]->WorkLocal[1]
     0x0B59 [0x02] IF !(ExtData[1]->WorkLocal[2] > 5*) GOTO 0x0B69
     0x0B61 [0x08] ExtData[1]->WorkLocal[2] -= 1*
     0x0B66 [0x01] GOTO 0x0B6E
     0x0B69 [0x08] ExtData[1]->WorkLocal[2] -= 2*
     0x0B6E [0x14] ExtData[1]->WorkLocal[2] *= 10*
     0x0B73 [0x07] ExtData[1]->WorkLocal[2] += 140*
     0x0B78 [0x1B] RETURN
     0x0B79 [0x03] ExtData[1]->WorkLocal[2] = ExtData[1]->WorkLocal[1]
     0x0B7E [0x02] IF !(ExtData[1]->WorkLocal[2] > 5*) GOTO 0x0B8E
     0x0B86 [0x08] ExtData[1]->WorkLocal[2] -= 1*
     0x0B8B [0x01] GOTO 0x0B93
     0x0B8E [0x08] ExtData[1]->WorkLocal[2] -= 2*
     0x0B93 [0x14] ExtData[1]->WorkLocal[2] *= 10*
     0x0B98 [0x07] ExtData[1]->WorkLocal[2] += 210*
     0x0B9D [0x1B] RETURN
```

### Event 65535.31

#### Metadata

| Field        | Value    |
|--------------|----------|
| Entrypoint   | 0x0B9E   |
| Data Size    | 15 bytes |
| Instructions | 5        |

```
      00 01 02 03 04 05 06 07  08 09 0A 0B 0C 0D 0E 0F
      -- -- -- -- -- -- -- --  -- -- -- -- -- -- -- --
0B90:                                            32 00                2.
0BA0: 80 1F 00 B3 80 B4 80 B5  80 1F 01 6F 00           ...........o.   
```

#### Opcodes

```
  0: 0x0B9E [0x32] ExtData[1]->MainSpeed = 13* * 0.1
  1: 0x0BA1 [0x1F] MOVE_ENTITY: EventEntity moves to X=-117.086*, Z=306.573*, Y=-19.462*
  2: 0x0BA9 [0x1F] MOVE_ENTITY: Update entity position (mode=1)
  3: 0x0BAB [0x6F] WAIT_FRAME_DELAY: Yield until WaitTime reaches zero
  4: 0x0BAC [0x00] END_REQSTACK()
```

### Event 65535.32

#### Metadata

| Field        | Value    |
|--------------|----------|
| Entrypoint   | 0x0BAD   |
| Data Size    | 15 bytes |
| Instructions | 5        |

```
      00 01 02 03 04 05 06 07  08 09 0A 0B 0C 0D 0E 0F
      -- -- -- -- -- -- -- --  -- -- -- -- -- -- -- --
0BA0:                                         32 B6 80               2..
0BB0: 1F 00 B7 80 B8 80 B9 80  1F 01 6F 00              ..........o.    
```

#### Opcodes

```
  0: 0x0BAD [0x32] ExtData[1]->MainSpeed = 11* * 0.1
  1: 0x0BB0 [0x1F] MOVE_ENTITY: EventEntity moves to X=-122.180*, Z=299.216*, Y=-19.040*
  2: 0x0BB8 [0x1F] MOVE_ENTITY: Update entity position (mode=1)
  3: 0x0BBA [0x6F] WAIT_FRAME_DELAY: Yield until WaitTime reaches zero
  4: 0x0BBB [0x00] END_REQSTACK()
```

### Event 65535.33

#### Metadata

| Field        | Value    |
|--------------|----------|
| Entrypoint   | 0x0BBC   |
| Data Size    | 42 bytes |
| Instructions | 6        |

```
      00 01 02 03 04 05 06 07  08 09 0A 0B 0C 0D 0E 0F
      -- -- -- -- -- -- -- --  -- -- -- -- -- -- -- --
0BB0:                                      03 01 00 07              ....
0BC0: 7F 1A 0A 0B 66 02 00 F8  FF FF 7F F8 FF FF 7F 74  ....f..........t
0BD0: 6C 6B 30 1C 18 80 66 02  00 F8 FF FF 7F F8 FF FF  lk0...f.........
0BE0: 7F 74 6C 6B 31 00                                 .tlk1.          
```

#### Opcodes

```
  0: 0x0BBC [0x03] ExtData[1]->WorkLocal[1] = Entity->Race
  1: 0x0BC1 [0x1A] CALL_SUBROUTINE(address=0x0B0A)
  2: 0x0BC4 [0x66] LOAD_EXT_SCHEDULER_MAIN: Load scheduler "tlk0" with entities [EventEntity, EventEntity], work=ExtData[1]->WorkLocal[2]
  3: 0x0BD3 [0x1C] WAIT(60* ticks)
  4: 0x0BD6 [0x66] LOAD_EXT_SCHEDULER_MAIN: Load scheduler "tlk1" with entities [EventEntity, EventEntity], work=ExtData[1]->WorkLocal[2]
  5: 0x0BE5 [0x00] END_REQSTACK()
```

### Event 65535.34

#### Metadata

| Field        | Value   |
|--------------|---------|
| Entrypoint   | 0x0BE6  |
| Data Size    | 7 bytes |
| Instructions | 3       |

```
      00 01 02 03 04 05 06 07  08 09 0A 0B 0C 0D 0E 0F
      -- -- -- -- -- -- -- --  -- -- -- -- -- -- -- --
0BE0:                   AB 03  AC 01 08 80 00                 .......   
```

#### Opcodes

```
  0: 0x0BE6 [0xAB] EventEntity->Render.Flags0 ^= 0x20000 // Toggle bit 17
  1: 0x0BE8 [0xAC] EventEntity->StatusEvent = 1*
  2: 0x0BEC [0x00] END_REQSTACK()
```

### Event 65535.35

#### Metadata

| Field        | Value   |
|--------------|---------|
| Entrypoint   | 0x0BED  |
| Data Size    | 7 bytes |
| Instructions | 3       |

```
      00 01 02 03 04 05 06 07  08 09 0A 0B 0C 0D 0E 0F
      -- -- -- -- -- -- -- --  -- -- -- -- -- -- -- --
0BE0:                                         AC 01 02               ...
0BF0: 80 AB 04 00                                       ....            
```

#### Opcodes

```
  0: 0x0BED [0xAC] EventEntity->StatusEvent = 0*
  1: 0x0BF1 [0xAB] EventEntity->Render.Flags0 |= 0x40000 // Set bit 18
  2: 0x0BF3 [0x00] END_REQSTACK()
```

### Event 65535.36

#### Metadata

| Field        | Value    |
|--------------|----------|
| Entrypoint   | 0x0BF4   |
| Data Size    | 15 bytes |
| Instructions | 5        |

```
      00 01 02 03 04 05 06 07  08 09 0A 0B 0C 0D 0E 0F
      -- -- -- -- -- -- -- --  -- -- -- -- -- -- -- --
0BF0:             32 00 80 1F  00 BA 80 BB 80 BC 80 1F      2...........
0C00: 01 6F 00                                          .o.             
```

#### Opcodes

```
  0: 0x0BF4 [0x32] ExtData[1]->MainSpeed = 13* * 0.1
  1: 0x0BF7 [0x1F] MOVE_ENTITY: EventEntity moves to X=-120.648*, Z=296.353*, Y=-19.147*
  2: 0x0BFF [0x1F] MOVE_ENTITY: Update entity position (mode=1)
  3: 0x0C01 [0x6F] WAIT_FRAME_DELAY: Yield until WaitTime reaches zero
  4: 0x0C02 [0x00] END_REQSTACK()
```

### Event 65535.37

#### Metadata

| Field        | Value   |
|--------------|---------|
| Entrypoint   | 0x0C03  |
| Data Size    | 9 bytes |
| Instructions | 3       |

```
      00 01 02 03 04 05 06 07  08 09 0A 0B 0C 0D 0E 0F
      -- -- -- -- -- -- -- --  -- -- -- -- -- -- -- --
0C00:          1C 4F 80 1E D2  E1 07 01 00                 .O.......    
```

#### Opcodes

```
  0: 0x0C03 [0x1C] WAIT(45* ticks)
  1: 0x0C06 [0x1E] EventEntity looks at Aldo (ID: 17293778/0x0107E1D2) and starts talking
  2: 0x0C0B [0x00] END_REQSTACK()
```

### Event 65535.38

#### Metadata

| Field        | Value   |
|--------------|---------|
| Entrypoint   | 0x0C0C  |
| Data Size    | 9 bytes |
| Instructions | 3       |

```
      00 01 02 03 04 05 06 07  08 09 0A 0B 0C 0D 0E 0F
      -- -- -- -- -- -- -- --  -- -- -- -- -- -- -- --
0C00:                                      1C 4F 80 1E              .O..
0C10: D3 E1 07 01 00                                    .....           
```

#### Opcodes

```
  0: 0x0C0C [0x1C] WAIT(45* ticks)
  1: 0x0C0F [0x1E] EventEntity looks at Young Aldo (ID: 17293779/0x0107E1D3) and starts talking
  2: 0x0C14 [0x00] END_REQSTACK()
```

### Event 65535.39

#### Metadata

| Field        | Value    |
|--------------|----------|
| Entrypoint   | 0x0C15   |
| Data Size    | 15 bytes |
| Instructions | 5        |

```
      00 01 02 03 04 05 06 07  08 09 0A 0B 0C 0D 0E 0F
      -- -- -- -- -- -- -- --  -- -- -- -- -- -- -- --
0C10:                32 B6 80  1F 00 BD 80 BE 80 BF 80       2..........
0C20: 1F 01 6F 00                                       ..o.            
```

#### Opcodes

```
  0: 0x0C15 [0x32] ExtData[1]->MainSpeed = 11* * 0.1
  1: 0x0C18 [0x1F] MOVE_ENTITY: EventEntity moves to X=-116.126*, Z=307.282*, Y=-19.533*
  2: 0x0C20 [0x1F] MOVE_ENTITY: Update entity position (mode=1)
  3: 0x0C22 [0x6F] WAIT_FRAME_DELAY: Yield until WaitTime reaches zero
  4: 0x0C23 [0x00] END_REQSTACK()
```

### Event 65535.40

#### Metadata

| Field        | Value   |
|--------------|---------|
| Entrypoint   | 0x0C24  |
| Data Size    | 9 bytes |
| Instructions | 3       |

```
      00 01 02 03 04 05 06 07  08 09 0A 0B 0C 0D 0E 0F
      -- -- -- -- -- -- -- --  -- -- -- -- -- -- -- --
0C20:             1C 18 80 1E  D4 E1 07 01 00               .........   
```

#### Opcodes

```
  0: 0x0C24 [0x1C] WAIT(60* ticks)
  1: 0x0C27 [0x1E] EventEntity looks at Seed Mandragora (ID: 17293780/0x0107E1D4) and starts talking
  2: 0x0C2C [0x00] END_REQSTACK()
```

### Event 65535.41

#### Metadata

| Field        | Value   |
|--------------|---------|
| Entrypoint   | 0x0C2D  |
| Data Size    | 9 bytes |
| Instructions | 3       |

```
      00 01 02 03 04 05 06 07  08 09 0A 0B 0C 0D 0E 0F
      -- -- -- -- -- -- -- --  -- -- -- -- -- -- -- --
0C20:                                         22 00 94               "..
0C30: 01 F8 FF FF 7F 00                                 ......          
```

#### Opcodes

```
  0: 0x0C2D [0x22] ENTITY_HIDE_FLAG(enabled=0x00)
  1: 0x0C2F [0x94] EventEntity->Render.Flags3 ^= 0x01
  2: 0x0C35 [0x00] END_REQSTACK()
```

### Event 65535.42

#### Metadata

| Field        | Value    |
|--------------|----------|
| Entrypoint   | 0x0C36   |
| Data Size    | 16 bytes |
| Instructions | 3        |

```
      00 01 02 03 04 05 06 07  08 09 0A 0B 0C 0D 0E 0F
      -- -- -- -- -- -- -- --  -- -- -- -- -- -- -- --
0C30:                   92 01  F0 FF FF 7F 37 C0 80 C1        ......7...
0C40: 80 C2 80 C3 80 00                                 ......          
```

#### Opcodes

```
  0: 0x0C36 [0x92] LocalPlayer->Render.Flags3 ^= 0x01
  1: 0x0C3C [0x37] UPDATE_EVENT_POSITION_AND_DIR: x=-257.631*, z=222.884*, y=-20.883*, direction=128.5°*
  2: 0x0C45 [0x00] END_REQSTACK()
```

### Event 65535.43

#### Metadata

| Field        | Value    |
|--------------|----------|
| Entrypoint   | 0x0C46   |
| Data Size    | 65 bytes |
| Instructions | 8        |

```
      00 01 02 03 04 05 06 07  08 09 0A 0B 0C 0D 0E 0F
      -- -- -- -- -- -- -- --  -- -- -- -- -- -- -- --
0C40:                   CD C4  80 F8 FF FF 7F F8 FF FF        ..........
0C50: 7F 6D 61 69 6E 02 80 1C  18 80 92 01 F0 FF FF 7F  .main...........
0C60: 1C 0C 80 45 50 80 F0 FF  FF 7F F0 FF FF 7F 77 68  ...EP.........wh
0C70: 6F 31 02 80 55 50 80 F0  FF FF 7F F0 FF FF 7F 77  o1..UP.........w
0C80: 68 6F 31 1C 18 80 00                              ho1....         
```

#### Opcodes

```
  0: 0x0C46 [0xCD] LOAD_SCHEDULED_TASK_ALT4: Load scheduler "main" with entities [EventEntity, EventEntity], work=[79*, 0*]
  1: 0x0C57 [0x1C] WAIT(60* ticks)
  2: 0x0C5A [0x92] LocalPlayer->Render.Flags3 ^= 0x01
  3: 0x0C60 [0x1C] WAIT(120* ticks)
  4: 0x0C63 [0x45] LOAD_SCHEDULED_TASK: Load scheduler "who1" with entities [LocalPlayer, LocalPlayer], work=[201*, 0*]
  5: 0x0C74 [0x55] WAIT_LOAD_SCHEDULER: Wait for scheduler "who1" with entities [LocalPlayer, LocalPlayer], work=201*
  6: 0x0C83 [0x1C] WAIT(60* ticks)
  7: 0x0C86 [0x00] END_REQSTACK()
```

### Event 65535.44

#### Metadata

| Field        | Value    |
|--------------|----------|
| Entrypoint   | 0x0C87   |
| Data Size    | 24 bytes |
| Instructions | 4        |

```
      00 01 02 03 04 05 06 07  08 09 0A 0B 0C 0D 0E 0F
      -- -- -- -- -- -- -- --  -- -- -- -- -- -- -- --
0C80:                      03  01 00 07 7F 1A 0A 0B 66         ........f
0C90: 02 00 F8 FF FF 7F F8 FF  FF 7F 74 6C 6B 30 00     ..........tlk0. 
```

#### Opcodes

```
  0: 0x0C87 [0x03] ExtData[1]->WorkLocal[1] = Entity->Race
  1: 0x0C8C [0x1A] CALL_SUBROUTINE(address=0x0B0A)
  2: 0x0C8F [0x66] LOAD_EXT_SCHEDULER_MAIN: Load scheduler "tlk0" with entities [EventEntity, EventEntity], work=ExtData[1]->WorkLocal[2]
  3: 0x0C9E [0x00] END_REQSTACK()
```

### Event 65535.45

#### Metadata

| Field        | Value    |
|--------------|----------|
| Entrypoint   | 0x0C9F   |
| Data Size    | 24 bytes |
| Instructions | 4        |

```
      00 01 02 03 04 05 06 07  08 09 0A 0B 0C 0D 0E 0F
      -- -- -- -- -- -- -- --  -- -- -- -- -- -- -- --
0C90:                                               03                 .
0CA0: 01 00 07 7F 1A 0A 0B 66  02 00 F8 FF FF 7F F8 FF  .......f........
0CB0: FF 7F 74 6C 6B 31 00                              ..tlk1.         
```

#### Opcodes

```
  0: 0x0C9F [0x03] ExtData[1]->WorkLocal[1] = Entity->Race
  1: 0x0CA4 [0x1A] CALL_SUBROUTINE(address=0x0B0A)
  2: 0x0CA7 [0x66] LOAD_EXT_SCHEDULER_MAIN: Load scheduler "tlk1" with entities [EventEntity, EventEntity], work=ExtData[1]->WorkLocal[2]
  3: 0x0CB6 [0x00] END_REQSTACK()
```

### Event 65535.46

#### Metadata

| Field        | Value    |
|--------------|----------|
| Entrypoint   | 0x0CB7   |
| Data Size    | 37 bytes |
| Instructions | 5        |

```
      00 01 02 03 04 05 06 07  08 09 0A 0B 0C 0D 0E 0F
      -- -- -- -- -- -- -- --  -- -- -- -- -- -- -- --
0CB0:                      03  01 00 07 7F 1A 0A 0B 66         ........f
0CC0: 02 00 F8 FF FF 7F F8 FF  FF 7F 73 69 74 30 53 F8  ..........sit0S.
0CD0: FF FF 7F F8 FF FF 7F 73  69 74 30 00              .......sit0.    
```

#### Opcodes

```
  0: 0x0CB7 [0x03] ExtData[1]->WorkLocal[1] = Entity->Race
  1: 0x0CBC [0x1A] CALL_SUBROUTINE(address=0x0B0A)
  2: 0x0CBF [0x66] LOAD_EXT_SCHEDULER_MAIN: Load scheduler "sit0" with entities [EventEntity, EventEntity], work=ExtData[1]->WorkLocal[2]
  3: 0x0CCE [0x53] WAIT_SCHEDULER_TASK: Wait for scheduler "sit0" with entities [EventEntity, EventEntity]
  4: 0x0CDB [0x00] END_REQSTACK()
```

### Event 65535.47

#### Metadata

| Field        | Value    |
|--------------|----------|
| Entrypoint   | 0x0CDC   |
| Data Size    | 37 bytes |
| Instructions | 5        |

```
      00 01 02 03 04 05 06 07  08 09 0A 0B 0C 0D 0E 0F
      -- -- -- -- -- -- -- --  -- -- -- -- -- -- -- --
0CD0:                                      03 01 00 07              ....
0CE0: 7F 1A 0A 0B 66 02 00 F8  FF FF 7F F8 FF FF 7F 73  ....f..........s
0CF0: 69 74 31 53 F8 FF FF 7F  F8 FF FF 7F 73 69 74 31  it1S........sit1
0D00: 00                                                .               
```

#### Opcodes

```
  0: 0x0CDC [0x03] ExtData[1]->WorkLocal[1] = Entity->Race
  1: 0x0CE1 [0x1A] CALL_SUBROUTINE(address=0x0B0A)
  2: 0x0CE4 [0x66] LOAD_EXT_SCHEDULER_MAIN: Load scheduler "sit1" with entities [EventEntity, EventEntity], work=ExtData[1]->WorkLocal[2]
  3: 0x0CF3 [0x53] WAIT_SCHEDULER_TASK: Wait for scheduler "sit1" with entities [EventEntity, EventEntity]
  4: 0x0D00 [0x00] END_REQSTACK()
```

### Event 65535.48

#### Metadata

| Field        | Value    |
|--------------|----------|
| Entrypoint   | 0x0D01   |
| Data Size    | 14 bytes |
| Instructions | 4        |

```
      00 01 02 03 04 05 06 07  08 09 0A 0B 0C 0D 0E 0F
      -- -- -- -- -- -- -- --  -- -- -- -- -- -- -- --
0D00:    32 00 80 1F 00 C5 80  C6 80 C7 80 1F 01 00      2............. 
```

#### Opcodes

```
  0: 0x0D01 [0x32] ExtData[1]->MainSpeed = 13* * 0.1
  1: 0x0D04 [0x1F] MOVE_ENTITY: EventEntity moves to X=-202.656*, Z=73.950*, Y=-19.898*
  2: 0x0D0C [0x1F] MOVE_ENTITY: Update entity position (mode=1)
  3: 0x0D0E [0x00] END_REQSTACK()
```

### Event 65535.49

#### Metadata

| Field        | Value    |
|--------------|----------|
| Entrypoint   | 0x0D0F   |
| Data Size    | 16 bytes |
| Instructions | 3        |

```
      00 01 02 03 04 05 06 07  08 09 0A 0B 0C 0D 0E 0F
      -- -- -- -- -- -- -- --  -- -- -- -- -- -- -- --
0D00:                                               92                 .
0D10: 01 F0 FF FF 7F 37 C8 80  C9 80 CA 80 CB 80 00     .....7......... 
```

#### Opcodes

```
  0: 0x0D0F [0x92] LocalPlayer->Render.Flags3 ^= 0x01
  1: 0x0D15 [0x37] UPDATE_EVENT_POSITION_AND_DIR: x=-202.717*, z=74.145*, y=-19.908*, direction=212.9°*
  2: 0x0D1E [0x00] END_REQSTACK()
```

### Event 65535.50

#### Metadata

| Field        | Value    |
|--------------|----------|
| Entrypoint   | 0x0D1F   |
| Data Size    | 65 bytes |
| Instructions | 8        |

```
      00 01 02 03 04 05 06 07  08 09 0A 0B 0C 0D 0E 0F
      -- -- -- -- -- -- -- --  -- -- -- -- -- -- -- --
0D10:                                               D0                 .
0D20: CC 80 F0 FF FF 7F F0 FF  FF 7F 6D 61 69 6E 02 80  ..........main..
0D30: 1C 18 80 92 01 F0 FF FF  7F 1C 0C 80 45 50 80 F0  ............EP..
0D40: FF FF 7F F0 FF FF 7F 77  68 6F 31 02 80 55 50 80  .......who1..UP.
0D50: F0 FF FF 7F F0 FF FF 7F  77 68 6F 31 1C 18 80 00  ........who1....
```

#### Opcodes

```
  0: 0x0D1F [0xD0] LOAD_SCHEDULED_TASK_ALT5: Load scheduler "main" with entities [LocalPlayer, LocalPlayer], work=[123*, 0*]
  1: 0x0D30 [0x1C] WAIT(60* ticks)
  2: 0x0D33 [0x92] LocalPlayer->Render.Flags3 ^= 0x01
  3: 0x0D39 [0x1C] WAIT(120* ticks)
  4: 0x0D3C [0x45] LOAD_SCHEDULED_TASK: Load scheduler "who1" with entities [LocalPlayer, LocalPlayer], work=[201*, 0*]
  5: 0x0D4D [0x55] WAIT_LOAD_SCHEDULER: Wait for scheduler "who1" with entities [LocalPlayer, LocalPlayer], work=201*
  6: 0x0D5C [0x1C] WAIT(60* ticks)
  7: 0x0D5F [0x00] END_REQSTACK()
```

### Event 65535.51

#### Metadata

| Field        | Value   |
|--------------|---------|
| Entrypoint   | 0x0D60  |
| Data Size    | 6 bytes |
| Instructions | 2       |

```
      00 01 02 03 04 05 06 07  08 09 0A 0B 0C 0D 0E 0F
      -- -- -- -- -- -- -- --  -- -- -- -- -- -- -- --
0D60: 03 09 10 07 7F 00                                 ......          
```

#### Opcodes

```
  0: 0x0D60 [0x03] Work_Zone[9] = Entity->Race
  1: 0x0D65 [0x00] END_REQSTACK()
```

### Event 65535.52

#### Metadata

| Field        | Value    |
|--------------|----------|
| Entrypoint   | 0x0D66   |
| Data Size    | 15 bytes |
| Instructions | 5        |

```
      00 01 02 03 04 05 06 07  08 09 0A 0B 0C 0D 0E 0F
      -- -- -- -- -- -- -- --  -- -- -- -- -- -- -- --
0D60:                   32 00  80 1F 00 CD 80 CE 80 CF        2.........
0D70: 80 1F 01 6F 00                                    ...o.           
```

#### Opcodes

```
  0: 0x0D66 [0x32] ExtData[1]->MainSpeed = 13* * 0.1
  1: 0x0D69 [0x1F] MOVE_ENTITY: EventEntity moves to X=-226.456*, Z=309.708*, Y=-19.850*
  2: 0x0D71 [0x1F] MOVE_ENTITY: Update entity position (mode=1)
  3: 0x0D73 [0x6F] WAIT_FRAME_DELAY: Yield until WaitTime reaches zero
  4: 0x0D74 [0x00] END_REQSTACK()
```
