# Event 100

## Metadata

| Field           | Value    |
|-----------------|----------|
| Event Index     | 29/85    |
| Offset          | 0x01FA   |
| Data Size       | 33 bytes |
| Calculated Size | 33 bytes |
| Instructions    | 12       |

```
      00 01 02 03 04 05 06 07  08 09 0A 0B 0C 0D 0E 0F
      -- -- -- -- -- -- -- --  -- -- -- -- -- -- -- --
01F0:                                1E F0 FF FF 7F 6F            .....o
0200: 70 29 08 12 00 0F 01 01  1D 0F 80 23 1D 10 80 23  p).........#...#
0210: 29 08 12 00 0F 01 02 20  00 21 00                 )...... .!.     
```

## Opcodes

```
  0: 0x01FA [0x1E] EventEntity looks at LocalPlayer and starts talking
  1: 0x01FF [0x6F] WAIT_FRAME_DELAY: Yield until WaitTime reaches zero
  2: 0x0200 [0x70] WAIT_ENTITY_RENDER_FLAG: Wait while EventEntity->Render.Flags3 bit 2 is set (cancel turn if not)
  3: 0x0201 [0x29] REQ_SET_WAIT(priority=0x08, entity_id=Kuroido-Moido (ID: 17760274/0x010F0012), tag_num=0x01)
  4: 0x0208 [0x1D] PRINT_EVENT_MESSAGE(message_id=3383*)
    → "Don't tell me this was your first mission?\u007F1\u0000\u0007"
  5: 0x020B [0x23] WAIT_FOR_DIALOG_INTERACTION
  6: 0x020C [0x1D] PRINT_EVENT_MESSAGE(message_id=3384*)
    → "Well, good for you!\u0007Your future looks bright, kid. Once you've made it with the Orastery, you're well on your way to a successful career.\u007F1\u0000\u0007"
  7: 0x020F [0x23] WAIT_FOR_DIALOG_INTERACTION
  8: 0x0210 [0x29] REQ_SET_WAIT(priority=0x08, entity_id=Kuroido-Moido (ID: 17760274/0x010F0012), tag_num=0x02)
  9: 0x0217 [0x20] SET_CLI_EVENT_UC_FLAG: Unlock player control
 10: 0x0219 [0x21] END_EVENT
 11: 0x021A [0x00] END_REQSTACK()
```
