# Event 276

## Metadata

| Field           | Value    |
|-----------------|----------|
| Event Index     | 50/85    |
| Offset          | 0x038D   |
| Data Size       | 33 bytes |
| Calculated Size | 33 bytes |
| Instructions    | 12       |

```
      00 01 02 03 04 05 06 07  08 09 0A 0B 0C 0D 0E 0F
      -- -- -- -- -- -- -- --  -- -- -- -- -- -- -- --
0380:                                         1E F0 FF               ...
0390: FF 7F 6F 70 29 08 12 00  0F 01 01 1D 2E 80 23 1D  ..op).........#.
03A0: 2F 80 23 29 08 12 00 0F  01 12 20 00 21 00        /.#)...... .!.  
```

## Opcodes

```
  0: 0x038D [0x1E] EventEntity looks at LocalPlayer and starts talking
  1: 0x0392 [0x6F] WAIT_FRAME_DELAY: Yield until WaitTime reaches zero
  2: 0x0393 [0x70] WAIT_ENTITY_RENDER_FLAG: Wait while EventEntity->Render.Flags3 bit 2 is set (cancel turn if not)
  3: 0x0394 [0x29] REQ_SET_WAIT(priority=0x08, entity_id=Kuroido-Moido (ID: 17760274/0x010F0012), tag_num=0x01)
  4: 0x039B [0x1D] PRINT_EVENT_MESSAGE(message_id=3773*)
    → "I'm stating this for the record, but I am having no partaru in this!\u007F1\u0000\u0007"
  5: 0x039E [0x23] WAIT_FOR_DIALOG_INTERACTION
  6: 0x039F [0x1D] PRINT_EVENT_MESSAGE(message_id=3774*)
    → "We shouldn'taru have tried to clean the minister's important wand to begin with! He always told us not to touch the wand's case!\u007F1\u0000\u0007"
  7: 0x03A2 [0x23] WAIT_FOR_DIALOG_INTERACTION
  8: 0x03A3 [0x29] REQ_SET_WAIT(priority=0x08, entity_id=Kuroido-Moido (ID: 17760274/0x010F0012), tag_num=0x12)
  9: 0x03AA [0x20] SET_CLI_EVENT_UC_FLAG: Unlock player control
 10: 0x03AC [0x21] END_EVENT
 11: 0x03AD [0x00] END_REQSTACK()
```
