# Event 582

## Metadata

| Field           | Value    |
|-----------------|----------|
| Event Index     | 82/85    |
| Offset          | 0x1229   |
| Data Size       | 29 bytes |
| Calculated Size | 29 bytes |
| Instructions    | 10       |

```
      00 01 02 03 04 05 06 07  08 09 0A 0B 0C 0D 0E 0F
      -- -- -- -- -- -- -- --  -- -- -- -- -- -- -- --
1220:                             1E F0 FF FF 7F 6F 70           .....op
1230: 29 08 12 00 0F 01 01 1D  87 80 23 29 08 12 00 0F  ).........#)....
1240: 01 02 20 00 21 00                                 .. .!.          
```

## Opcodes

```
  0: 0x1229 [0x1E] EventEntity looks at LocalPlayer and starts talking
  1: 0x122E [0x6F] WAIT_FRAME_DELAY: Yield until WaitTime reaches zero
  2: 0x122F [0x70] WAIT_ENTITY_RENDER_FLAG: Wait while EventEntity->Render.Flags3 bit 2 is set (cancel turn if not)
  3: 0x1230 [0x29] REQ_SET_WAIT(priority=0x08, entity_id=Kuroido-Moido (ID: 17760274/0x010F0012), tag_num=0x01)
  4: 0x1237 [0x1D] PRINT_EVENT_MESSAGE(message_id=12666*)
    → "The reward we will give you is extremely-wemely special. Prove to us you can use it by testing your mettle in Ro'Maeve.\u007F1\u0000\u0007"
  5: 0x123A [0x23] WAIT_FOR_DIALOG_INTERACTION
  6: 0x123B [0x29] REQ_SET_WAIT(priority=0x08, entity_id=Kuroido-Moido (ID: 17760274/0x010F0012), tag_num=0x02)
  7: 0x1242 [0x20] SET_CLI_EVENT_UC_FLAG: Unlock player control
  8: 0x1244 [0x21] END_EVENT
  9: 0x1245 [0x00] END_REQSTACK()
```
