# Event 65535

## Metadata

| Field           | Value    |
|-----------------|----------|
| Event Index     | 4/4      |
| Offset          | 0x001B   |
| Data Size       | 64 bytes |
| Calculated Size | 64 bytes |
| Instructions    | 11       |

```
      00 01 02 03 04 05 06 07  08 09 0A 0B 0C 0D 0E 0F
      -- -- -- -- -- -- -- --  -- -- -- -- -- -- -- --
0010:                                   32 04 80 79 00             2..y.
0020: F0 FF FF 7F 6C D2 06 01  79 00 6D D2 06 01 6C D2  ....l...y.m...l.
0030: 06 01 79 00 6E D2 06 01  6C D2 06 01 1F 00 08 80  ..y.n...l.......
0040: 09 80 0A 80 1F 01 1F 00  0B 80 0C 80 02 80 1F 01  ................
0050: 1F 00 0D 80 0E 80 02 80  1F 01 00                 ...........     
```

## Opcodes

```
  0: 0x001B [0x32] ExtData[1]->MainSpeed = 13* * 0.1
  1: 0x001E [0x79] LocalPlayer looks at Ayame (ID: 17224300/0x0106D26C) (Basic look)
  2: 0x0028 [0x79] Hani (ID: 17224301/0x0106D26D) looks at Ayame (ID: 17224300/0x0106D26C) (Basic look)
  3: 0x0032 [0x79] Dalzakk (ID: 17224302/0x0106D26E) looks at Ayame (ID: 17224300/0x0106D26C) (Basic look)
  4: 0x003C [0x1F] MOVE_ENTITY: EventEntity moves to X=628.512*, Z=-464.198*, Y=24.990*
  5: 0x0044 [0x1F] MOVE_ENTITY: Update entity position (mode=1)
  6: 0x0046 [0x1F] MOVE_ENTITY: EventEntity moves to X=628.225*, Z=-461.884*, Y=24.999*
  7: 0x004E [0x1F] MOVE_ENTITY: Update entity position (mode=1)
  8: 0x0050 [0x1F] MOVE_ENTITY: EventEntity moves to X=625.890*, Z=-460.566*, Y=24.999*
  9: 0x0058 [0x1F] MOVE_ENTITY: Update entity position (mode=1)
 10: 0x005A [0x00] END_REQSTACK()
```
