# Event 65535

## Metadata

| Field           | Value    |
|-----------------|----------|
| Event Index     | 21/30    |
| Offset          | 0x0B3B   |
| Data Size       | 44 bytes |
| Calculated Size | 44 bytes |
| Instructions    | 11       |

```
      00 01 02 03 04 05 06 07  08 09 0A 0B 0C 0D 0E 0F
      -- -- -- -- -- -- -- --  -- -- -- -- -- -- -- --
0B30:                                   24 89 80 01 80             $....
0B40: 01 80 25 02 00 10 01 80  00 53 0B 03 01 10 8A 80  ..%......S......
0B50: 01 63 0B 02 00 10 02 80  00 63 0B 03 01 10 8B 80  .c.......c......
0B60: 01 63 0B 20 00 21 00                              .c. .!.         
```

## Opcodes

```
  0: 0x0B3B [0x24] CREATE_DIALOG(message_id=6702*, default_option=0*, option_flags=0*)
    → "\u0001@m203_609\u0003t\u0003	\u0003O\u0017'\u0002D\u0002i\u0002E\u0003U\u0001[\u0003}\u0003X\u0001H\u0007\u000B\u0001@OK\u0003t\u0003	\u0003O\u0007\u0015P\u0015{\u00025\u0002)\u0003N\u0003
\u0003A\u0001[\u00025\u0002D\u0002H\u0002"\u007F1\u0000\u0007"
  1: 0x0B42 [0x25] WAIT_DIALOG_SELECT()
  2: 0x0B43 [0x02] IF !(Work_Zone[0] == 0*) GOTO 0x0B53
  3: 0x0B4B [0x03] Work_Zone[1] = 93*
  4: 0x0B50 [0x01] GOTO 0x0B63

SUBROUTINE_0B53:
  5: 0x0B53 [0x02] IF !(Work_Zone[0] == 1*) GOTO 0x0B63
  6: 0x0B5B [0x03] Work_Zone[1] = 94*
  7: 0x0B60 [0x01] GOTO 0x0B63

SUBROUTINE_0B63:
  8: 0x0B63 [0x20] SET_CLI_EVENT_UC_FLAG: Unlock player control
  9: 0x0B65 [0x21] END_EVENT
 10: 0x0B66 [0x00] END_REQSTACK()
```
