# Event 737

## Metadata

| Field           | Value    |
|-----------------|----------|
| Event Index     | 43/47    |
| Offset          | 0x0292   |
| Data Size       | 33 bytes |
| Calculated Size | 33 bytes |
| Instructions    | 12       |

```
      00 01 02 03 04 05 06 07  08 09 0A 0B 0C 0D 0E 0F
      -- -- -- -- -- -- -- --  -- -- -- -- -- -- -- --
0290:       1E F0 FF FF 7F 6F  70 1D 19 80 23 29 08 1A    .....op...#)..
02A0: 60 0E 01 02 1D 1A 80 23  29 08 1A 60 0E 01 03 20  `......#)..`... 
02B0: 00 21 00                                          .!.             
```

## Opcodes

```
  0: 0x0292 [0x1E] EventEntity looks at LocalPlayer and starts talking
  1: 0x0297 [0x6F] WAIT_FRAME_DELAY: Yield until WaitTime reaches zero
  2: 0x0298 [0x70] WAIT_ENTITY_RENDER_FLAG: Wait while EventEntity->Render.Flags3 bit 2 is set (cancel turn if not)
  3: 0x0299 [0x1D] PRINT_EVENT_MESSAGE(message_id=9819*)
    → "Things are far worse than I feared.\u0007Hearing of the involvement of Atarefaunet's Band fills me with dread.\u007F1\u0000\u0007"
  4: 0x029C [0x23] WAIT_FOR_DIALOG_INTERACTION
  5: 0x029D [0x29] REQ_SET_WAIT(priority=0x08, entity_id=Sobane (ID: 17719322/0x010E601A), tag_num=0x02)
  6: 0x02A4 [0x1D] PRINT_EVENT_MESSAGE(message_id=9821*)
    → "Stay on your guard, \u0008.\u0007And please, do not speak a word of this to anyone.\u007F1\u0000\u0007"
  7: 0x02A7 [0x23] WAIT_FOR_DIALOG_INTERACTION
  8: 0x02A8 [0x29] REQ_SET_WAIT(priority=0x08, entity_id=Sobane (ID: 17719322/0x010E601A), tag_num=0x03)
  9: 0x02AF [0x20] SET_CLI_EVENT_UC_FLAG: Unlock player control
 10: 0x02B1 [0x21] END_EVENT
 11: 0x02B2 [0x00] END_REQSTACK()
```
