# Event 65535

## Metadata

| Field           | Value    |
|-----------------|----------|
| Event Index     | 6/18     |
| Offset          | 0x0023   |
| Data Size       | 47 bytes |
| Calculated Size | 47 bytes |
| Instructions    | 8        |

```
      00 01 02 03 04 05 06 07  08 09 0A 0B 0C 0D 0E 0F
      -- -- -- -- -- -- -- --  -- -- -- -- -- -- -- --
0020:          BA C6 21 03 01  08 80 09 80 07 80 0A 80     ..!..........
0030: 32 00 80 79 00 C6 21 03  01 D3 20 03 01 1F 00 0B  2..y..!... .....
0040: 80 0C 80 07 80 1F 01 6F  4A C6 21 03 01 D3 20 03  .......oJ.!... .
0050: 01 00                                             ..              
```

## Opcodes

```
  0: 0x0023 [0xBA] SET_ENTITY_POSITION(entity_id=Rongelouts (ID: 16982470/0x010321C6), pos_x=-566.423*, pos_z=41.993*, pos_y=1.999*, direction=175.8°*)
  1: 0x0030 [0x32] ExtData[1]->MainSpeed = 13* * 0.1
  2: 0x0033 [0x79] Rongelouts (ID: 16982470/0x010321C6) looks at Falzum (ID: 16982227/0x010320D3) (Basic look)
  3: 0x003D [0x1F] MOVE_ENTITY: EventEntity moves to X=-566.025*, Z=37.511*, Y=1.999*
  4: 0x0045 [0x1F] MOVE_ENTITY: Update entity position (mode=1)
  5: 0x0047 [0x6F] WAIT_FRAME_DELAY: Yield until WaitTime reaches zero
  6: 0x0048 [0x4A] Rongelouts (ID: 16982470/0x010321C6) looks at Falzum (ID: 16982227/0x010320D3)
  7: 0x0051 [0x00] END_REQSTACK()
```
