# Event 514

## Metadata

| Field           | Value    |
|-----------------|----------|
| Event Index     | 6/7      |
| Offset          | 0x014A   |
| Data Size       | 47 bytes |
| Calculated Size | 47 bytes |
| Instructions    | 14       |

```
      00 01 02 03 04 05 06 07  08 09 0A 0B 0C 0D 0E 0F
      -- -- -- -- -- -- -- --  -- -- -- -- -- -- -- --
0140:                                42 20 01 86 00 20            B ... 
0150: 60 0E 01 1E F0 FF FF 7F  6F 70 66 00 80 F8 FF FF  `.......opf.....
0160: 7F F8 FF FF 7F 74 6C 6B  30 1D 11 80 23 5E 69 64  .....tlk0...#^id
0170: 6C 30 1C 00 80 20 00 21  00                       l0... .!.       
```

## Opcodes

```
  0: 0x014A [0x42] SET_CLI_EVENT_CANCEL_DATA()
  1: 0x014B [0x20] SET_CLI_EVENT_UC_FLAG: Lock player control
  2: 0x014D [0x86] Glenne (ID: 17719328/0x010E6020)->Render.Flags3 = Flags3  // No change (flag=0)
  3: 0x0153 [0x1E] EventEntity looks at LocalPlayer and starts talking
  4: 0x0158 [0x6F] WAIT_FRAME_DELAY: Yield until WaitTime reaches zero
  5: 0x0159 [0x70] WAIT_ENTITY_RENDER_FLAG: Wait while EventEntity->Render.Flags3 bit 2 is set (cancel turn if not)
  6: 0x015A [0x66] LOAD_EXT_SCHEDULER_MAIN: Load scheduler "tlk0" with entities [EventEntity, EventEntity], work=30*
  7: 0x0169 [0x1D] PRINT_EVENT_MESSAGE(message_id=7770*)
    → "I cannot accept this. Take it back.\u007F1\u0000\u0007"
  8: 0x016C [0x23] WAIT_FOR_DIALOG_INTERACTION
  9: 0x016D [0x5E] EventEntity goes idle (kills current action) (animation: "idl0")
 10: 0x0172 [0x1C] WAIT(30* ticks)
 11: 0x0175 [0x20] SET_CLI_EVENT_UC_FLAG: Unlock player control
 12: 0x0177 [0x21] END_EVENT
 13: 0x0178 [0x00] END_REQSTACK()
```
