# Event 520

## Metadata

| Field           | Value    |
|-----------------|----------|
| Event Index     | 3/7      |
| Offset          | 0x009B   |
| Data Size       | 49 bytes |
| Calculated Size | 49 bytes |
| Instructions    | 14       |

```
      00 01 02 03 04 05 06 07  08 09 0A 0B 0C 0D 0E 0F
      -- -- -- -- -- -- -- --  -- -- -- -- -- -- -- --
0090:                                   86 00 20 60 0E             .. `.
00A0: 01 1E F0 FF FF 7F 6F 70  66 00 80 F8 FF FF 7F F8  ......opf.......
00B0: FF FF 7F 74 6C 6B 30 1D  0B 80 23 1C 00 80 1D 0C  ...tlk0...#.....
00C0: 80 23 5E 69 64 6C 30 1C  00 80 21 00              .#^idl0...!.    
```

## Opcodes

```
  0: 0x009B [0x86] Glenne (ID: 17719328/0x010E6020)->Render.Flags3 = Flags3  // No change (flag=0)
  1: 0x00A1 [0x1E] EventEntity looks at LocalPlayer and starts talking
  2: 0x00A6 [0x6F] WAIT_FRAME_DELAY: Yield until WaitTime reaches zero
  3: 0x00A7 [0x70] WAIT_ENTITY_RENDER_FLAG: Wait while EventEntity->Render.Flags3 bit 2 is set (cancel turn if not)
  4: 0x00A8 [0x66] LOAD_EXT_SCHEDULER_MAIN(work_offset=30*, entity1=EventEntity, entity2=EventEntity, action="tlk0")
  5: 0x00B7 [0x1D] PRINT_EVENT_MESSAGE(message_id=7771*)
    → "Could you not find my husband?\u007F1\u0000\u0007"
  6: 0x00BA [0x23] WAIT_FOR_DIALOG_INTERACTION
  7: 0x00BB [0x1C] WAIT(30* ticks)
  8: 0x00BE [0x1D] PRINT_EVENT_MESSAGE(message_id=7772*)
    → "His name is Aaveleon. Please, deliver the ointment to him. I fear he may need it.\u007F1\u0000\u0007"
  9: 0x00C1 [0x23] WAIT_FOR_DIALOG_INTERACTION
 10: 0x00C2 [0x5E] EventEntity goes idle (kills current action) (animation: "idl0")
 11: 0x00C7 [0x1C] WAIT(30* ticks)
 12: 0x00CA [0x21] END_EVENT
 13: 0x00CB [0x00] END_REQSTACK()
```
