# Event 521

## Metadata

| Field           | Value    |
|-----------------|----------|
| Event Index     | 7/7      |
| Offset          | 0x0179   |
| Data Size       | 42 bytes |
| Calculated Size | 42 bytes |
| Instructions    | 11       |

```
      00 01 02 03 04 05 06 07  08 09 0A 0B 0C 0D 0E 0F
      -- -- -- -- -- -- -- --  -- -- -- -- -- -- -- --
0170:                             86 00 20 60 0E 01 1E           .. `...
0180: F0 FF FF 7F 6F 70 66 00  80 F8 FF FF 7F F8 FF FF  ....opf.........
0190: 7F 64 69 73 30 1D 12 80  23 5E 69 64 6C 30 1C 00  .dis0...#^idl0..
01A0: 80 21 00                                          .!.             
```

## Opcodes

```
  0: 0x0179 [0x86] Glenne (ID: 17719328/0x010E6020)->Render.Flags3 = Flags3  // No change (flag=0)
  1: 0x017F [0x1E] EventEntity looks at LocalPlayer and starts talking
  2: 0x0184 [0x6F] WAIT_FRAME_DELAY: Yield until WaitTime reaches zero
  3: 0x0185 [0x70] WAIT_ENTITY_RENDER_FLAG: Wait while EventEntity->Render.Flags3 bit 2 is set (cancel turn if not)
  4: 0x0186 [0x66] LOAD_EXT_SCHEDULER_MAIN: Load scheduler "dis0" with entities [EventEntity, EventEntity], work=30*
  5: 0x0195 [0x1D] PRINT_EVENT_MESSAGE(message_id=7779*)
    → "Thank you again for your help!\u007F1\u0000\u0007"
  6: 0x0198 [0x23] WAIT_FOR_DIALOG_INTERACTION
  7: 0x0199 [0x5E] EventEntity goes idle (kills current action) (animation: "idl0")
  8: 0x019E [0x1C] WAIT(30* ticks)
  9: 0x01A1 [0x21] END_EVENT
 10: 0x01A2 [0x00] END_REQSTACK()
```
