# Event 644

## Metadata

| Field           | Value    |
|-----------------|----------|
| Event Index     | 5/7      |
| Offset          | 0x0113   |
| Data Size       | 55 bytes |
| Calculated Size | 55 bytes |
| Instructions    | 12       |

```
      00 01 02 03 04 05 06 07  08 09 0A 0B 0C 0D 0E 0F
      -- -- -- -- -- -- -- --  -- -- -- -- -- -- -- --
0110:          86 00 20 60 0E  01 1E F0 FF FF 7F 6F 70     .. `.......op
0120: 66 00 80 F8 FF FF 7F F8  FF FF 7F 64 69 73 30 1D  f..........dis0.
0130: 10 80 23 53 F8 FF FF 7F  F8 FF FF 7F 64 69 73 30  ..#S........dis0
0140: 1C 00 80 03 01 10 05 80  21 00                    ........!.      
```

## Opcodes

```
  0: 0x0113 [0x86] Glenne (ID: 17719328/0x010E6020)->Render.Flags3 = Flags3  // No change (flag=0)
  1: 0x0119 [0x1E] EventEntity looks at LocalPlayer and starts talking
  2: 0x011E [0x6F] WAIT_FRAME_DELAY: Yield until WaitTime reaches zero
  3: 0x011F [0x70] WAIT_ENTITY_RENDER_FLAG: Wait while EventEntity->Render.Flags3 bit 2 is set (cancel turn if not)
  4: 0x0120 [0x66] LOAD_EXT_SCHEDULER_MAIN(work_offset=30*, entity1=EventEntity, entity2=EventEntity, action="dis0")
  5: 0x012F [0x1D] PRINT_EVENT_MESSAGE(message_id=7776*)
    → "So you lost the ointment! I suppose I can give you another. Please, deliver it as you said you would!\u007F1\u0000\u0007"
  6: 0x0132 [0x23] WAIT_FOR_DIALOG_INTERACTION
  7: 0x0133 [0x53] WAIT_SCHEDULER_TASK(entity1=EventEntity, entity2=EventEntity, action_id="dis0")
  8: 0x0140 [0x1C] WAIT(30* ticks)
  9: 0x0143 [0x03] Work_Zone[1] = 0*
 10: 0x0148 [0x21] END_EVENT
 11: 0x0149 [0x00] END_REQSTACK()
```
