# Event 258

## Metadata

| Field           | Value    |
|-----------------|----------|
| Event Index     | 3/4      |
| Offset          | 0x002C   |
| Data Size       | 34 bytes |
| Calculated Size | 34 bytes |
| Instructions    | 12       |

```
      00 01 02 03 04 05 06 07  08 09 0A 0B 0C 0D 0E 0F
      -- -- -- -- -- -- -- --  -- -- -- -- -- -- -- --
0020:                                      1E F0 FF FF              ....
0030: 7F 6F 70 03 02 10 02 80  6E 4C D2 0F 01 03 80 99  .op.....nL......
0040: 4C D2 0F 01 1D 04 80 23  1D 05 80 23 21 00        L......#...#!.  
```

## Opcodes

```
  0: 0x002C [0x1E] EventEntity looks at LocalPlayer and starts talking
  1: 0x0031 [0x6F] WAIT_FRAME_DELAY: Yield until WaitTime reaches zero
  2: 0x0032 [0x70] WAIT_ENTITY_RENDER_FLAG: Wait while EventEntity->Render.Flags3 bit 2 is set (cancel turn if not)
  3: 0x0033 [0x03] Work_Zone[2] = 1716*
  4: 0x0038 [0x6E] Bogharg (ID: 17814092/0x010FD24C) uses emote 7*
  5: 0x003F [0x99] Wait for Bogharg (ID: 17814092/0x010FD24C) animation to complete
  6: 0x0044 [0x1D] PRINT_EVENT_MESSAGE(message_id=7879*)
    → "\u0008, is it?\u0007Zauko told me to expect you.\u007F1\u0000\u0007"
  7: 0x0047 [0x23] WAIT_FOR_DIALOG_INTERACTION
  8: 0x0048 [0x1D] PRINT_EVENT_MESSAGE(message_id=7880*)
    → "You'll have to forgive his daft ramblings. Poor man hasn't been the same since the Duchy fell.\u0007Still, we appreciate the delivery of this \u0001\u00053\u0002\u0000\u0000\u0000. You can deposit it right in the casket here.\u007F1\u0000\u0007"
  9: 0x004B [0x23] WAIT_FOR_DIALOG_INTERACTION
 10: 0x004C [0x21] END_EVENT
 11: 0x004D [0x00] END_REQSTACK()
```
