# Event 65535

## Metadata

| Field           | Value    |
|-----------------|----------|
| Event Index     | 5/6      |
| Offset          | 0x005B   |
| Data Size       | 35 bytes |
| Calculated Size | 35 bytes |
| Instructions    | 9        |

```
      00 01 02 03 04 05 06 07  08 09 0A 0B 0C 0D 0E 0F
      -- -- -- -- -- -- -- --  -- -- -- -- -- -- -- --
0050:                                   24 06 80 01 80             $....
0060: 01 80 25 02 00 10 01 80  00 7A 00 29 09 F0 FF FF  ..%......z.)....
0070: 7F 05 03 01 10 07 80 01  7A 00 20 00 21 00        ........z. .!.  
```

## Opcodes

```
  0: 0x005B [0x24] CREATE_DIALOG(message_id=7442*, default_option=0*, option_flags=0*)
    → "\u0001@\u0002G\u0002L\u0003C\u0003x\u0003\u0013\u0003g\u0001H\u0007\u000B\u0001uqsmn001:\u000Ft\u0002F\u000FC\u0017\u0005\u0001v\u0007ZONE\u0002p\u0008j\u0013x\u0002E\u0002`\u000Fo\u0002=\u00021\u0002F\u0002I\u00027\u0002i\u0007\u0003N\u0003G\u0003X\u0003gFLAG\u0002L\u0002]reset\u007F1\u0000\u0007"
  1: 0x0062 [0x25] WAIT_DIALOG_SELECT()
  2: 0x0063 [0x02] IF !(Work_Zone[0] == 0*) GOTO 0x007A
  3: 0x006B [0x29] REQ_SET_WAIT(priority=0x09, entity_id=LocalPlayer, tag_num=0x05)
  4: 0x0072 [0x03] Work_Zone[1] = 11*
  5: 0x0077 [0x01] GOTO 0x007A

SUBROUTINE_007A:
  6: 0x007A [0x20] SET_CLI_EVENT_UC_FLAG: Unlock player control
  7: 0x007C [0x21] END_EVENT
  8: 0x007D [0x00] END_REQSTACK()
```
