# 17711136 - Map

## Common Data

| Field            | Value                           |
|------------------|---------------------------------|
| Zone             | Ship bound for Mhaura (ID: 228) |
| Block Size       | 84 bytes                        |
| Total Events     | 3                               |
| References Count | 4                               |

## List of Events

| Event ID              | Entrypoint   |   Size |   Instructions |
|-----------------------|--------------|--------|----------------|
| [65535](#event-65535) | 0x0000       |      1 |              1 |
| [1024](#event-1024)   | 0x0001       |     10 |              6 |
| [2049](#event-2049)   | 0x000B       |     27 |              7 |

## DAT References (imed_data)

|   Index | Hex Value   |   Dec Value |
|---------|-------------|-------------|
|       0 | 0x00DD      |         221 |
|       1 | 0x1CBA      |        7354 |
|       2 | 0x00C9      |         201 |
|       3 | 0x0000      |           0 |

## String References

- **7354**: This is the ship route from Selbina to Mhaura.

## Events

### Event 65535

#### Metadata

| Field        | Value   |
|--------------|---------|
| Entrypoint   | 0x0000  |
| Data Size    | 1 bytes |
| Instructions | 1       |

```
      00 01 02 03 04 05 06 07  08 09 0A 0B 0C 0D 0E 0F
      -- -- -- -- -- -- -- --  -- -- -- -- -- -- -- --
0000: 00                                                .               
```

#### Opcodes

```
  0: 0x0000 [0x00] END_REQSTACK()
```

### Event 1024

#### Metadata

| Field        | Value    |
|--------------|----------|
| Entrypoint   | 0x0001   |
| Data Size    | 10 bytes |
| Instructions | 6        |

```
      00 01 02 03 04 05 06 07  08 09 0A 0B 0C 0D 0E 0F
      -- -- -- -- -- -- -- --  -- -- -- -- -- -- -- --
0000:    89 00 80 48 01 80 23  8A 21 00                  ...H..#.!.     
```

#### Opcodes

```
  0: 0x0001 [0x89] OPEN_MAP(map_id=0x00008000)
  1: 0x0004 [0x48] [System] [7354*]:
    → "This is the ship route from Selbina to Mhaura."
  2: 0x0007 [0x23] WAIT_FOR_DIALOG_INTERACTION
  3: 0x0008 [0x8A] CLOSE_MAP()
  4: 0x0009 [0x21] END_EVENT
  5: 0x000A [0x00] END_REQSTACK()
```

### Event 2049

#### Metadata

| Field        | Value    |
|--------------|----------|
| Entrypoint   | 0x000B   |
| Data Size    | 27 bytes |
| Instructions | 7        |

```
      00 01 02 03 04 05 06 07  08 09 0A 0B 0C 0D 0E 0F
      -- -- -- -- -- -- -- --  -- -- -- -- -- -- -- --
0000:                                   89 00 80 48 01             ...H.
0010: 80 23 8A 45 02 80 F8 FF  FF 7F F8 FF FF 7F 71 73  .#.E..........qs
0020: 74 63 03 80 21 00                                 tc..!.          
```

#### Opcodes

```
  0: 0x000B [0x89] OPEN_MAP(map_id=0x00008000)
  1: 0x000E [0x48] [System] [7354*]:
    → "This is the ship route from Selbina to Mhaura."
  2: 0x0011 [0x23] WAIT_FOR_DIALOG_INTERACTION
  3: 0x0012 [0x8A] CLOSE_MAP()
  4: 0x0013 [0x45] LOAD_SCHEDULED_TASK: Load scheduler "qstc" with entities [EventEntity, EventEntity], work=[201*, 0*]
  5: 0x0024 [0x21] END_EVENT
  6: 0x0025 [0x00] END_REQSTACK()
```
