# Event 248

## Metadata

| Field           | Value     |
|-----------------|-----------|
| Event Index     | 6/6       |
| Offset          | 0x077E    |
| Data Size       | 674 bytes |
| Calculated Size | 674 bytes |
| Instructions    | 10        |

```
      00 01 02 03 04 05 06 07  08 09 0A 0B 0C 0D 0E 0F
      -- -- -- -- -- -- -- --  -- -- -- -- -- -- -- --
0770:                                            1E F0                ..
0780: FF FF 7F 6F 70 1D 32 80  23 1D 33 80 23 21 00 45  ...op.2.#.3.#!.E
0790: 20 80 F0 FF FF 7F F0 FF  FF 7F 66 64 69 30 08 80   .........fdi0..
07A0: 55 20 80 F0 FF FF 7F F0  FF FF 7F 66 64 69 30 1B  U .........fdi0.
07B0: 45 20 80 F0 FF FF 7F F0  FF FF 7F 66 64 6F 30 08  E .........fdo0.
07C0: 80 55 20 80 F0 FF FF 7F  F0 FF FF 7F 66 64 6F 30  .U .........fdo0
07D0: 1B 45 20 80 F0 FF FF 7F  F0 FF FF 7F 66 64 69 31  .E .........fdi1
07E0: 08 80 55 20 80 F0 FF FF  7F F0 FF FF 7F 66 64 69  ..U .........fdi
07F0: 31 1B 45 20 80 F0 FF FF  7F F0 FF FF 7F 66 64 6F  1.E .........fdo
0800: 31 08 80 55 20 80 F0 FF  FF 7F F0 FF FF 7F 66 64  1..U .........fd
0810: 6F 31 1B 45 36 80 F0 FF  FF 7F F0 FF FF 7F 77 68  o1.E6.........wh
0820: 69 31 08 80 55 36 80 F0  FF FF 7F F0 FF FF 7F 77  i1..U6.........w
0830: 68 69 31 1B 45 36 80 F0  FF FF 7F F0 FF FF 7F 77  hi1.E6.........w
0840: 68 6F 31 08 80 55 36 80  F0 FF FF 7F F0 FF FF 7F  ho1..U6.........
0850: 77 68 6F 31 1B 45 36 80  F0 FF FF 7F F0 FF FF 7F  who1.E6.........
0860: 77 68 6F 32 08 80 55 36  80 F0 FF FF 7F F0 FF FF  who2..U6........
0870: 7F 77 68 6F 32 1B 45 36  80 F0 FF FF 7F F0 FF FF  .who2.E6........
0880: 7F 77 68 6F 33 08 80 55  36 80 F0 FF FF 7F F0 FF  .who3..U6.......
0890: FF 7F 77 68 6F 33 1B 62  0E 80 F0 FF FF 7F F0 FF  ..who3.b........
08A0: FF 7F 6D 61 69 6E 08 80  1C 37 80 45 20 80 F0 FF  ..main...7.E ...
08B0: FF 7F F0 FF FF 7F 66 64  6F 31 08 80 55 20 80 F0  ......fdo1..U ..
08C0: FF FF 7F F0 FF FF 7F 66  64 6F 31 1B 45 20 80 F0  .......fdo1.E ..
08D0: FF FF 7F F0 FF FF 7F 66  64 69 31 08 80 62 38 80  .......fdi1..b8.
08E0: F0 FF FF 7F F0 FF FF 7F  6D 61 69 6E 08 80 1C 0C  ........main....
08F0: 80 55 20 80 F0 FF FF 7F  F0 FF FF 7F 66 64 69 31  .U .........fdi1
0900: 1B 45 20 80 F0 FF FF 7F  F0 FF FF 7F 62 6C 6F 6E  .E .........blon
0910: 08 80 45 36 80 F0 FF FF  7F F0 FF FF 7F 62 6C 6F  ..E6.........blo
0920: 6E 08 80 1B 45 36 80 F0  FF FF 7F F0 FF FF 7F 77  n...E6.........w
0930: 68 69 30 08 80 55 36 80  F0 FF FF 7F F0 FF FF 7F  hi0..U6.........
0940: 77 68 69 30 1B 45 36 80  F0 FF FF 7F F0 FF FF 7F  whi0.E6.........
0950: 77 68 6F 30 08 80 55 36  80 F0 FF FF 7F F0 FF FF  who0..U6........
0960: 7F 77 68 6F 30 1B 45 39  80 F0 FF FF 7F F0 FF FF  .who0.E9........
0970: 7F 65 66 6F 6E 08 80 55  39 80 F0 FF FF 7F F0 FF  .efon..U9.......
0980: FF 7F 65 66 6F 6E 1B 45  20 80 F0 FF FF 7F F0 FF  ..efon.E .......
0990: FF 7F 66 64 69 73 08 80  1B 45 20 80 F0 FF FF 7F  ..fdis...E .....
09A0: F0 FF FF 7F 66 64 6F 73  08 80 55 20 80 F0 FF FF  ....fdos..U ....
09B0: 7F F0 FF FF 7F 66 64 6F  73 1B 45 20 80 F0 FF FF  .....fdos.E ....
09C0: 7F F0 FF FF 7F 66 64 69  66 08 80 1B 45 20 80 F0  .....fdif...E ..
09D0: FF FF 7F F0 FF FF 7F 66  64 6F 66 08 80 55 20 80  .......fdof..U .
09E0: F0 FF FF 7F F0 FF FF 7F  66 64 6F 66 1B 45 20 80  ........fdof.E .
09F0: F0 FF FF 7F F0 FF FF 7F  66 64 69 70 08 80 1B 45  ........fdip...E
0A00: 20 80 F0 FF FF 7F F0 FF  FF 7F 66 64 6F 70 08 80   .........fdop..
0A10: 55 20 80 F0 FF FF 7F F0  FF FF 7F 66 64 6F 70 1B  U .........fdop.
```

## Opcodes

```
  0: 0x077E [0x1E] EventEntity looks at LocalPlayer and starts talking
  1: 0x0783 [0x6F] WAIT_FRAME_DELAY: Yield until WaitTime reaches zero
  2: 0x0784 [0x70] WAIT_ENTITY_RENDER_FLAG: Wait while EventEntity->Render.Flags3 bit 2 is set (cancel turn if not)
  3: 0x0785 [0x1D] PRINT_EVENT_MESSAGE(message_id=12230*)
    → "I'm sorry, but I really think you're mistaken.\u0007I mean, the general even had Silver Comet's collar.\u007F1\u0000\u0007"
  4: 0x0788 [0x23] WAIT_FOR_DIALOG_INTERACTION
  5: 0x0789 [0x1D] PRINT_EVENT_MESSAGE(message_id=12231*)
    → "He said he was going to lay it on his son's grave in Batallia Downs.\u007F1\u0000\u0007"
  6: 0x078C [0x23] WAIT_FOR_DIALOG_INTERACTION
  7: 0x078D [0x21] END_EVENT
  8: 0x078E [0x00] END_REQSTACK()
```

## Data or dead code:

```
# Data Section: 0x078F (657 bytes)
     0x078F: 45 20 80 F0 FF FF 7F F0 FF FF 7F 66 64 69 30 08
     0x079F: 80 55 20 80 F0 FF FF 7F F0 FF FF 7F 66 64 69 30
     0x07AF: 1B 45 20 80 F0 FF FF 7F F0 FF FF 7F 66 64 6F 30
     0x07BF: 08 80 55 20 80 F0 FF FF 7F F0 FF FF 7F 66 64 6F
     0x07CF: 30 1B 45 20 80 F0 FF FF 7F F0 FF FF 7F 66 64 69
     0x07DF: 31 08 80 55 20 80 F0 FF FF 7F F0 FF FF 7F 66 64
     0x07EF: 69 31 1B 45 20 80 F0 FF FF 7F F0 FF FF 7F 66 64
     0x07FF: 6F 31 08 80 55 20 80 F0 FF FF 7F F0 FF FF 7F 66
     0x080F: 64 6F 31 1B 45 36 80 F0 FF FF 7F F0 FF FF 7F 77
     0x081F: 68 69 31 08 80 55 36 80 F0 FF FF 7F F0 FF FF 7F
     0x082F: 77 68 69 31 1B 45 36 80 F0 FF FF 7F F0 FF FF 7F
     0x083F: 77 68 6F 31 08 80 55 36 80 F0 FF FF 7F F0 FF FF
     0x084F: 7F 77 68 6F 31 1B 45 36 80 F0 FF FF 7F F0 FF FF
     0x085F: 7F 77 68 6F 32 08 80 55 36 80 F0 FF FF 7F F0 FF
     0x086F: FF 7F 77 68 6F 32 1B 45 36 80 F0 FF FF 7F F0 FF
     0x087F: FF 7F 77 68 6F 33 08 80 55 36 80 F0 FF FF 7F F0
     0x088F: FF FF 7F 77 68 6F 33 1B 62 0E 80 F0 FF FF 7F F0
     0x089F: FF FF 7F 6D 61 69 6E 08 80 1C 37 80 45 20 80 F0
     0x08AF: FF FF 7F F0 FF FF 7F 66 64 6F 31 08 80 55 20 80
     0x08BF: F0 FF FF 7F F0 FF FF 7F 66 64 6F 31 1B 45 20 80
     0x08CF: F0 FF FF 7F F0 FF FF 7F 66 64 69 31 08 80 62 38
     0x08DF: 80 F0 FF FF 7F F0 FF FF 7F 6D 61 69 6E 08 80 1C
     0x08EF: 0C 80 55 20 80 F0 FF FF 7F F0 FF FF 7F 66 64 69
     0x08FF: 31 1B 45 20 80 F0 FF FF 7F F0 FF FF 7F 62 6C 6F
     0x090F: 6E 08 80 45 36 80 F0 FF FF 7F F0 FF FF 7F 62 6C
     0x091F: 6F 6E 08 80 1B 45 36 80 F0 FF FF 7F F0 FF FF 7F
     0x092F: 77 68 69 30 08 80 55 36 80 F0 FF FF 7F F0 FF FF
     0x093F: 7F 77 68 69 30 1B 45 36 80 F0 FF FF 7F F0 FF FF
     0x094F: 7F 77 68 6F 30 08 80 55 36 80 F0 FF FF 7F F0 FF
     0x095F: FF 7F 77 68 6F 30 1B 45 39 80 F0 FF FF 7F F0 FF
     0x096F: FF 7F 65 66 6F 6E 08 80 55 39 80 F0 FF FF 7F F0
     0x097F: FF FF 7F 65 66 6F 6E 1B 45 20 80 F0 FF FF 7F F0
     0x098F: FF FF 7F 66 64 69 73 08 80 1B 45 20 80 F0 FF FF
     0x099F: 7F F0 FF FF 7F 66 64 6F 73 08 80 55 20 80 F0 FF
     0x09AF: FF 7F F0 FF FF 7F 66 64 6F 73 1B 45 20 80 F0 FF
     0x09BF: FF 7F F0 FF FF 7F 66 64 69 66 08 80 1B 45 20 80
     0x09CF: F0 FF FF 7F F0 FF FF 7F 66 64 6F 66 08 80 55 20
     0x09DF: 80 F0 FF FF 7F F0 FF FF 7F 66 64 6F 66 1B 45 20
     0x09EF: 80 F0 FF FF 7F F0 FF FF 7F 66 64 69 70 08 80 1B
     0x09FF: 45 20 80 F0 FF FF 7F F0 FF FF 7F 66 64 6F 70 08
     0x0A0F: 80 55 20 80 F0 FF FF 7F F0 FF FF 7F 66 64 6F 70
     0x0A1F: 1B
```