# Event 3014

## Metadata

| Field           | Value    |
|-----------------|----------|
| Event Index     | 6/6      |
| Offset          | 0x0137   |
| Data Size       | 53 bytes |
| Calculated Size | 53 bytes |
| Instructions    | 11       |

```
      00 01 02 03 04 05 06 07  08 09 0A 0B 0C 0D 0E 0F
      -- -- -- -- -- -- -- --  -- -- -- -- -- -- -- --
0130:                      1E  F0 FF FF 7F 6F 70 03 02         .....op..
0140: 10 06 80 03 03 10 07 80  5B 00 80 F8 FF FF 7F F8  ........[.......
0150: FF FF 7F 74 6C 6B 30 1D  0D 80 23 5B 00 80 F8 FF  ...tlk0...#[....
0160: FF 7F F8 FF FF 7F 73 74  64 30 21 00              ......std0!.    
```

## Opcodes

```
  0: 0x0137 [0x1E] EventEntity looks at LocalPlayer and starts talking
  1: 0x013C [0x6F] WAIT_FRAME_DELAY: Yield until WaitTime reaches zero
  2: 0x013D [0x70] WAIT_ENTITY_RENDER_FLAG: Wait while EventEntity->Render.Flags3 bit 2 is set (cancel turn if not)
  3: 0x013E [0x03] Work_Zone[2] = 3935*
  4: 0x0143 [0x03] Work_Zone[3] = 2*
  5: 0x0148 [0x5B] LOAD_EXT_SCHEDULER(work_offset=70*, entity1=EventEntity, entity2=EventEntity, action="tlk0")
  6: 0x0157 [0x1D] PRINT_EVENT_MESSAGE(message_id=8038*)
    → "Take the law into your own hands. Defeat some of those nasties down in the Yahse Hunting Grounds and bring me \u0001\u0001\u0001 \u0001\u0005$\u0002\u0000\u0000\u0000.\u007F1\u0000\u0007"
  7: 0x015A [0x23] WAIT_FOR_DIALOG_INTERACTION
  8: 0x015B [0x5B] LOAD_EXT_SCHEDULER(work_offset=70*, entity1=EventEntity, entity2=EventEntity, action="std0")
  9: 0x016A [0x21] END_EVENT
 10: 0x016B [0x00] END_REQSTACK()
```
