# Event 65535

## Metadata

| Field           | Value    |
|-----------------|----------|
| Event Index     | 14/18    |
| Offset          | 0x009E   |
| Data Size       | 62 bytes |
| Calculated Size | 62 bytes |
| Instructions    | 16       |

```
      00 01 02 03 04 05 06 07  08 09 0A 0B 0C 0D 0E 0F
      -- -- -- -- -- -- -- --  -- -- -- -- -- -- -- --
0090:                                            32 0B                2.
00A0: 80 1A 71 15 02 0B 00 1C  80 80 BA 00 1F 00 1D 80  ..q.............
00B0: 1E 80 02 80 1F 01 6F 01  DB 00 02 0B 00 1F 80 80  ......o.........
00C0: D0 00 1F 00 1D 80 1E 80  02 80 1F 01 6F 01 DB 00  ............o...
00D0: 1F 00 20 80 21 80 02 80  1F 01 6F 00              .. .!.....o.    
```

## Opcodes

```
  0: 0x009E [0x32] ExtData[1]->MainSpeed = 13* * 0.1
  1: 0x00A1 [0x1A] CALL_SUBROUTINE(address=0x1571)
  2: 0x00A4 [0x02] IF !(ExtData[1]->WorkLocal[11] == 4*) GOTO 0x00BA
  3: 0x00AC [0x1F] MOVE_ENTITY: EventEntity moves to X=-56.356*, Z=-134.498*, Y=-4.000*
  4: 0x00B4 [0x1F] MOVE_ENTITY: Update entity position (mode=1)
  5: 0x00B6 [0x6F] WAIT_FRAME_DELAY: Yield until WaitTime reaches zero
  6: 0x00B7 [0x01] GOTO 0x00DB
  7: 0x00BA [0x02] IF !(ExtData[1]->WorkLocal[11] == 5*) GOTO 0x00D0
  8: 0x00C2 [0x1F] MOVE_ENTITY: EventEntity moves to X=-56.356*, Z=-134.498*, Y=-4.000*
  9: 0x00CA [0x1F] MOVE_ENTITY: Update entity position (mode=1)
 10: 0x00CC [0x6F] WAIT_FRAME_DELAY: Yield until WaitTime reaches zero
 11: 0x00CD [0x01] GOTO 0x00DB
 12: 0x00D0 [0x1F] MOVE_ENTITY: EventEntity moves to X=-56.941*, Z=-137.929*, Y=-4.000*
 13: 0x00D8 [0x1F] MOVE_ENTITY: Update entity position (mode=1)
 14: 0x00DA [0x6F] WAIT_FRAME_DELAY: Yield until WaitTime reaches zero

SUBROUTINE_00DB:
 15: 0x00DB [0x00] END_REQSTACK()
```
