# Event 654

## Metadata

| Field           | Value    |
|-----------------|----------|
| Event Index     | 7/13     |
| Offset          | 0x0198   |
| Data Size       | 33 bytes |
| Calculated Size | 33 bytes |
| Instructions    | 11       |

```
      00 01 02 03 04 05 06 07  08 09 0A 0B 0C 0D 0E 0F
      -- -- -- -- -- -- -- --  -- -- -- -- -- -- -- --
0190:                          42 1E F0 FF FF 7F 6F 70          B.....op
01A0: 66 00 80 F8 FF FF 7F F8  FF FF 7F 74 6C 6B 30 1D  f..........tlk0.
01B0: 1A 80 23 1D 1B 80 23 21  00                       ..#...#!.       
```

## Opcodes

```
  0: 0x0198 [0x42] SET_CLI_EVENT_CANCEL_DATA()
  1: 0x0199 [0x1E] EventEntity looks at LocalPlayer and starts talking
  2: 0x019E [0x6F] WAIT_FRAME_DELAY: Yield until WaitTime reaches zero
  3: 0x019F [0x70] WAIT_ENTITY_RENDER_FLAG: Wait while EventEntity->Render.Flags3 bit 2 is set (cancel turn if not)
  4: 0x01A0 [0x66] LOAD_EXT_SCHEDULER_MAIN: Load scheduler "tlk0" with entities [EventEntity, EventEntity], work=20*
  5: 0x01AF [0x1D] PRINT_EVENT_MESSAGE(message_id=7858*)
    → "Eh, they caught you? Ah, just a stripe of bad luck, that's all. This business is like rolling dice.\u007F1\u0000\u0007"
  6: 0x01B2 [0x23] WAIT_FOR_DIALOG_INTERACTION
  7: 0x01B3 [0x1D] PRINT_EVENT_MESSAGE(message_id=7859*)
    → "Sorry to put you in a fix, eh? But don't let it get you down! There's always next time!\u007F1\u0000\u0007"
  8: 0x01B6 [0x23] WAIT_FOR_DIALOG_INTERACTION
  9: 0x01B7 [0x21] END_EVENT
 10: 0x01B8 [0x00] END_REQSTACK()
```
