# Event 655

## Metadata

| Field           | Value    |
|-----------------|----------|
| Event Index     | 8/13     |
| Offset          | 0x01B9   |
| Data Size       | 29 bytes |
| Calculated Size | 29 bytes |
| Instructions    | 9        |

```
      00 01 02 03 04 05 06 07  08 09 0A 0B 0C 0D 0E 0F
      -- -- -- -- -- -- -- --  -- -- -- -- -- -- -- --
01B0:                             42 1E F0 FF FF 7F 6F           B.....o
01C0: 70 66 00 80 F8 FF FF 7F  F8 FF FF 7F 74 6C 6B 30  pf..........tlk0
01D0: 1D 1C 80 23 21 00                                 ...#!.          
```

## Opcodes

```
  0: 0x01B9 [0x42] SET_CLI_EVENT_CANCEL_DATA()
  1: 0x01BA [0x1E] EventEntity looks at LocalPlayer and starts talking
  2: 0x01BF [0x6F] WAIT_FRAME_DELAY: Yield until WaitTime reaches zero
  3: 0x01C0 [0x70] WAIT_ENTITY_RENDER_FLAG: Wait while EventEntity->Render.Flags3 bit 2 is set (cancel turn if not)
  4: 0x01C1 [0x66] LOAD_EXT_SCHEDULER_MAIN: Load scheduler "tlk0" with entities [EventEntity, EventEntity], work=20*
  5: 0x01D0 [0x1D] PRINT_EVENT_MESSAGE(message_id=7860*)
    → "What? Damaged it, did you? Pay attention when I talk to you! Take it on the airship next time!\u007F1\u0000\u0007"
  6: 0x01D3 [0x23] WAIT_FOR_DIALOG_INTERACTION
  7: 0x01D4 [0x21] END_EVENT
  8: 0x01D5 [0x00] END_REQSTACK()
```
