# Event 100

## Metadata

| Field           | Value    |
|-----------------|----------|
| Event Index     | 7/28     |
| Offset          | 0x00AF   |
| Data Size       | 50 bytes |
| Calculated Size | 50 bytes |
| Instructions    | 10       |

```
      00 01 02 03 04 05 06 07  08 09 0A 0B 0C 0D 0E 0F
      -- -- -- -- -- -- -- --  -- -- -- -- -- -- -- --
00A0:                                               1E                 .
00B0: F0 FF FF 7F 6F 76 F8 FF  FF 7F 5B 00 80 F8 FF FF  ....ov....[.....
00C0: 7F F8 FF FF 7F 74 68 6B  31 1D 06 80 23 5B 00 80  .....thk1...#[..
00D0: F8 FF FF 7F F8 FF FF 7F  74 68 6B 32 1C 02 80 21  ........thk2...!
00E0: 00                                                .               
```

## Opcodes

```
  0: 0x00AF [0x1E] EventEntity looks at LocalPlayer and starts talking
  1: 0x00B4 [0x6F] WAIT_FRAME_DELAY: Yield until WaitTime reaches zero
  2: 0x00B5 [0x76] CHECK_ENTITY_RENDER_FLAGS: Wait until EventEntity Render.Flags0 and Render.Flags3 conditions are met
  3: 0x00BA [0x5B] LOAD_EXT_SCHEDULER: Load scheduler "thk1" with entities [EventEntity, EventEntity], work=80*
  4: 0x00C9 [0x1D] PRINT_EVENT_MESSAGE(message_id=7181*)
    → "Well, look at who you're talking about. I don't think it's even possible... Feel bad about the kid, though.\u007F1\u0000\u0007"
  5: 0x00CC [0x23] WAIT_FOR_DIALOG_INTERACTION
  6: 0x00CD [0x5B] LOAD_EXT_SCHEDULER: Load scheduler "thk2" with entities [EventEntity, EventEntity], work=80*
  7: 0x00DC [0x1C] WAIT(60* ticks)
  8: 0x00DF [0x21] END_EVENT
  9: 0x00E0 [0x00] END_REQSTACK()
```
