# Event 150

## Metadata

| Field           | Value    |
|-----------------|----------|
| Event Index     | 9/28     |
| Offset          | 0x00EF   |
| Data Size       | 20 bytes |
| Calculated Size | 20 bytes |
| Instructions    | 8        |

```
      00 01 02 03 04 05 06 07  08 09 0A 0B 0C 0D 0E 0F
      -- -- -- -- -- -- -- --  -- -- -- -- -- -- -- --
00E0:                                               1E                 .
00F0: F0 FF FF 7F 03 02 10 08  80 1D 09 80 23 1D 0A 80  ............#...
0100: 23 21 00                                          #!.             
```

## Opcodes

```
  0: 0x00EF [0x1E] EventEntity looks at LocalPlayer and starts talking
  1: 0x00F4 [0x03] Work_Zone[2] = 13121*
  2: 0x00F9 [0x1D] PRINT_EVENT_MESSAGE(message_id=7742*)
    → "I heard that \u0001\u0001\u0001 \u0001\u0005$\u0002\u0000\u0000\u0000 is hidden somewhere deep inside Castle Oztroja! Huh? You don't know what that is?\u007F1\u0000\u0007"
  3: 0x00FC [0x23] WAIT_FOR_DIALOG_INTERACTION
  4: 0x00FD [0x1D] PRINT_EVENT_MESSAGE(message_id=7743*)
    → "It's a really nice collar. I bet our chocobos would love to wear one, but maybe that one isn't for chocobos.\u007F1\u0000\u0007"
  5: 0x0100 [0x23] WAIT_FOR_DIALOG_INTERACTION
  6: 0x0101 [0x21] END_EVENT
  7: 0x0102 [0x00] END_REQSTACK()
```
