# Event 352

## Metadata

| Field           | Value    |
|-----------------|----------|
| Event Index     | 4/7      |
| Offset          | 0x0048   |
| Data Size       | 25 bytes |
| Calculated Size | 25 bytes |
| Instructions    | 13       |

```
      00 01 02 03 04 05 06 07  08 09 0A 0B 0C 0D 0E 0F
      -- -- -- -- -- -- -- --  -- -- -- -- -- -- -- --
0040:                          1E F0 FF FF 7F 6F 70 1D          .....op.
0050: 03 80 23 1D 04 80 23 1D  05 80 23 1D 06 80 23 21  ..#...#...#...#!
0060: 00                                                .               
```

## Opcodes

```
  0: 0x0048 [0x1E] EventEntity looks at LocalPlayer and starts talking
  1: 0x004D [0x6F] WAIT_FRAME_DELAY: Yield until WaitTime reaches zero
  2: 0x004E [0x70] WAIT_ENTITY_RENDER_FLAG: Wait while EventEntity->Render.Flags3 bit 2 is set (cancel turn if not)
  3: 0x004F [0x1D] PRINT_EVENT_MESSAGE(message_id=7965*)
    → "South...west...a...thicket...\u0007A...cactus... You'll...see...\u007F1\u0000\u0007"
  4: 0x0052 [0x23] WAIT_FOR_DIALOG_INTERACTION
  5: 0x0053 [0x1D] PRINT_EVENT_MESSAGE(message_id=7966*)
    → "Use...this... Something...will...come...\u0007Maybe...\u007F1\u0000\u0007"
  6: 0x0056 [0x23] WAIT_FOR_DIALOG_INTERACTION
  7: 0x0057 [0x1D] PRINT_EVENT_MESSAGE(message_id=7967*)
    → "Bring...it...back...here...\u007F1\u0000\u0007"
  8: 0x005A [0x23] WAIT_FOR_DIALOG_INTERACTION
  9: 0x005B [0x1D] PRINT_EVENT_MESSAGE(message_id=7968*)
    → "We're...count...ing...on...you...\u007F1\u0000\u0007"
 10: 0x005E [0x23] WAIT_FOR_DIALOG_INTERACTION
 11: 0x005F [0x21] END_EVENT
 12: 0x0060 [0x00] END_REQSTACK()
```
