# Event 353

## Metadata

| Field           | Value    |
|-----------------|----------|
| Event Index     | 5/7      |
| Offset          | 0x0061   |
| Data Size       | 35 bytes |
| Calculated Size | 35 bytes |
| Instructions    | 11       |

```
      00 01 02 03 04 05 06 07  08 09 0A 0B 0C 0D 0E 0F
      -- -- -- -- -- -- -- --  -- -- -- -- -- -- -- --
0060:    42 1E F0 FF FF 7F 6F  70 1D 07 80 23 1D 08 80   B.....op...#...
0070: 23 45 09 80 F0 FF FF 7F  F0 FF FF 7F 71 73 74 63  #E..........qstc
0080: 0A 80 21 00                                       ..!.            
```

## Opcodes

```
  0: 0x0061 [0x42] SET_CLI_EVENT_CANCEL_DATA()
  1: 0x0062 [0x1E] EventEntity looks at LocalPlayer and starts talking
  2: 0x0067 [0x6F] WAIT_FRAME_DELAY: Yield until WaitTime reaches zero
  3: 0x0068 [0x70] WAIT_ENTITY_RENDER_FLAG: Wait while EventEntity->Render.Flags3 bit 2 is set (cancel turn if not)
  4: 0x0069 [0x1D] PRINT_EVENT_MESSAGE(message_id=7970*)
    → "Truly...remarkable...\u0007I...haven't...been...this...excited...in...years...\u007F1\u0000\u0007"
  5: 0x006C [0x23] WAIT_FOR_DIALOG_INTERACTION
  6: 0x006D [0x1D] PRINT_EVENT_MESSAGE(message_id=7971*)
    → "This...\u0001\u00053\u0002\u0000\u0000\u0000...worthless...now...\u0007I'll...throw...it...out...\u007F1\u0000\u0007"
  7: 0x0070 [0x23] WAIT_FOR_DIALOG_INTERACTION
  8: 0x0071 [0x45] LOAD_SCHEDULED_TASK(work_offset1=201*, entity1=LocalPlayer, entity2=LocalPlayer, scheduler_id="qstc", work_offset2=0*)
  9: 0x0082 [0x21] END_EVENT
 10: 0x0083 [0x00] END_REQSTACK()
```
