# Event 566

## Metadata

| Field           | Value    |
|-----------------|----------|
| Event Index     | 5/7      |
| Offset          | 0x0076   |
| Data Size       | 59 bytes |
| Calculated Size | 59 bytes |
| Instructions    | 10       |

```
      00 01 02 03 04 05 06 07  08 09 0A 0B 0C 0D 0E 0F
      -- -- -- -- -- -- -- --  -- -- -- -- -- -- -- --
0070:                   20 01  42 1E F0 FF FF 7F 5B 01         .B.....[.
0080: 80 F8 FF FF 7F F8 FF FF  7F 70 61 73 30 1D 0C 80  .........pas0...
0090: 23 53 F8 FF FF 7F F8 FF  FF 7F 70 61 73 30 45 0D  #S........pas0E.
00A0: 80 F8 FF FF 7F F8 FF FF  7F 71 73 74 63 0E 80 21  .........qstc..!
00B0: 00                                                .               
```

## Opcodes

```
  0: 0x0076 [0x20] SET_CLI_EVENT_UC_FLAG: Lock player control
  1: 0x0078 [0x42] SET_CLI_EVENT_CANCEL_DATA()
  2: 0x0079 [0x1E] EventEntity looks at LocalPlayer and starts talking
  3: 0x007E [0x5B] LOAD_EXT_SCHEDULER: Load scheduler "pas0" with entities [EventEntity, EventEntity], work=55*
  4: 0x008D [0x1D] PRINT_EVENT_MESSAGE(message_id=8020*)
    → "Thank you. Here is your payment.\u0007If you find any more, bring them here.\u007F1\u0000\u0007"
  5: 0x0090 [0x23] WAIT_FOR_DIALOG_INTERACTION
  6: 0x0091 [0x53] WAIT_SCHEDULER_TASK: Wait for scheduler "pas0" with entities [EventEntity, EventEntity]
  7: 0x009E [0x45] LOAD_SCHEDULED_TASK: Load scheduler "qstc" with entities [EventEntity, EventEntity], work=[201*, 0*]
  8: 0x00AF [0x21] END_EVENT
  9: 0x00B0 [0x00] END_REQSTACK()
```
