# Event 675

## Metadata

| Field           | Value    |
|-----------------|----------|
| Event Index     | 6/7      |
| Offset          | 0x003F   |
| Data Size       | 33 bytes |
| Calculated Size | 33 bytes |
| Instructions    | 12       |

```
      00 01 02 03 04 05 06 07  08 09 0A 0B 0C 0D 0E 0F
      -- -- -- -- -- -- -- --  -- -- -- -- -- -- -- --
0030:                                               1E                 .
0040: F0 FF FF 7F 6F 70 29 08  82 70 0E 01 02 1D 06 80  ....op)..p......
0050: 23 1D 07 80 23 29 08 82  70 0E 01 03 20 00 21 00  #...#)..p... .!.
```

## Opcodes

```
  0: 0x003F [0x1E] EventEntity looks at LocalPlayer and starts talking
  1: 0x0044 [0x6F] WAIT_FRAME_DELAY: Yield until WaitTime reaches zero
  2: 0x0045 [0x70] WAIT_ENTITY_RENDER_FLAG: Wait while EventEntity->Render.Flags3 bit 2 is set (cancel turn if not)
  3: 0x0046 [0x29] REQ_SET_WAIT(priority=0x08, entity_id=Shomo Pochachilo (ID: 17723522/0x010E7082), tag_num=0x02)
  4: 0x004D [0x1D] PRINT_EVENT_MESSAGE(message_id=7293*)
    → "Say, you see that little boy crrrying by the fountain?\u007F1\u0000\u0007"
  5: 0x0050 [0x23] WAIT_FOR_DIALOG_INTERACTION
  6: 0x0051 [0x1D] PRINT_EVENT_MESSAGE(message_id=7294*)
    → "Maybe you could help him out. I'm no good with kids.\u007F1\u0000\u0007"
  7: 0x0054 [0x23] WAIT_FOR_DIALOG_INTERACTION
  8: 0x0055 [0x29] REQ_SET_WAIT(priority=0x08, entity_id=Shomo Pochachilo (ID: 17723522/0x010E7082), tag_num=0x03)
  9: 0x005C [0x20] SET_CLI_EVENT_UC_FLAG: Unlock player control
 10: 0x005E [0x21] END_EVENT
 11: 0x005F [0x00] END_REQSTACK()
```
