# Event 65535

## Metadata

| Field           | Value    |
|-----------------|----------|
| Event Index     | 5/10     |
| Offset          | 0x003E   |
| Data Size       | 80 bytes |
| Calculated Size | 80 bytes |
| Instructions    | 10       |

```
      00 01 02 03 04 05 06 07  08 09 0A 0B 0C 0D 0E 0F
      -- -- -- -- -- -- -- --  -- -- -- -- -- -- -- --
0030:                                            32 00                2.
0040: 80 37 0B 80 08 80 09 80  03 80 1F 00 0C 80 08 80  .7..............
0050: 09 80 1F 01 6F 5B 0D 80  26 02 0D 01 26 02 0D 01  ....o[..&...&...
0060: 68 65 6B 30 53 26 02 0D  01 26 02 0D 01 68 65 6B  hek0S&...&...hek
0070: 30 5B 0D 80 26 02 0D 01  26 02 0D 01 68 65 6B 31  0[..&...&...hek1
0080: 53 26 02 0D 01 26 02 0D  01 68 65 6B 31 00        S&...&...hek1.  
```

## Opcodes

```
  0: 0x003E [0x32] ExtData[1]->MainSpeed = 13* * 0.1
  1: 0x0041 [0x37] UPDATE_EVENT_POSITION_AND_DIR: x=-521.825*, z=-408.200*, y=-0.750*, direction=0.0°*
  2: 0x004A [0x1F] MOVE_ENTITY: EventEntity moves to X=-518.743*, Z=-408.200*, Y=-0.750*
  3: 0x0052 [0x1F] MOVE_ENTITY: Update entity position (mode=1)
  4: 0x0054 [0x6F] WAIT_FRAME_DELAY: Yield until WaitTime reaches zero
  5: 0x0055 [0x5B] LOAD_EXT_SCHEDULER(work_offset=522*, entity1=Zeid (ID: 17629734/0x010D0226), entity2=Zeid (ID: 17629734/0x010D0226), action="hek0")
  6: 0x0064 [0x53] WAIT_SCHEDULER_TASK(entity1=Zeid (ID: 17629734/0x010D0226), entity2=Zeid (ID: 17629734/0x010D0226), action_id="hek0")
  7: 0x0071 [0x5B] LOAD_EXT_SCHEDULER(work_offset=522*, entity1=Zeid (ID: 17629734/0x010D0226), entity2=Zeid (ID: 17629734/0x010D0226), action="hek1")
  8: 0x0080 [0x53] WAIT_SCHEDULER_TASK(entity1=Zeid (ID: 17629734/0x010D0226), entity2=Zeid (ID: 17629734/0x010D0226), action_id="hek1")
  9: 0x008D [0x00] END_REQSTACK()
```
