# 17253085

## Common Data

| Field            | Value                       |
|------------------|-----------------------------|
| Zone             | East Sarutabaruta (ID: 116) |
| Block Size       | 544 bytes                   |
| Total Events     | 21                          |
| References Count | 14                          |

## List of Events

| Event ID                   | Entrypoint   |   Size |   Instructions |
|----------------------------|--------------|--------|----------------|
| [65535](#event-65535)      | 0x0000       |      1 |              1 |
| [71](#event-71)            | 0x0001       |      1 |              1 |
| [65535.1](#event-655351)   | 0x0002       |     15 |              4 |
| [65535.2](#event-655352)   | 0x0011       |     37 |              5 |
| [65535.3](#event-655353)   | 0x0036       |     29 |              5 |
| [65535.4](#event-655354)   | 0x0053       |      5 |              2 |
| [65535.5](#event-655355)   | 0x0058       |     10 |              2 |
| [65535.6](#event-655356)   | 0x0062       |     10 |              2 |
| [65535.7](#event-655357)   | 0x006C       |     16 |              2 |
| [65535.8](#event-655358)   | 0x007C       |     16 |              2 |
| [65535.9](#event-655359)   | 0x008C       |     16 |              2 |
| [65535.10](#event-6553510) | 0x009C       |     16 |              2 |
| [65535.11](#event-6553511) | 0x00AC       |     16 |              2 |
| [65535.12](#event-6553512) | 0x00BC       |     16 |              2 |
| [65535.13](#event-6553513) | 0x00CC       |     19 |              3 |
| [65535.14](#event-6553514) | 0x00DF       |     16 |              2 |
| [65535.15](#event-6553515) | 0x00EF       |     19 |              3 |
| [65535.16](#event-6553516) | 0x0102       |     36 |              4 |
| [65535.17](#event-6553517) | 0x0126       |     39 |              5 |
| [65535.18](#event-6553518) | 0x014D       |     36 |              4 |
| [65535.19](#event-6553519) | 0x0171       |     18 |              2 |

## DAT References (imed_data)

|   Index | Hex Value   |   Dec Value |
|---------|-------------|-------------|
|       0 | 0x0172      |         370 |
|       1 | 0xFFFFFFE4  |  4294967268 |
|       2 | 0x08EB      |        2283 |
|       3 | 0x0080      |         128 |
|       4 | 0x0000      |           0 |
|       5 | 0x0A4B      |        2635 |
|       6 | 0x00B1      |         177 |
|       7 | 0x0A4D      |        2637 |
|       8 | 0x0090      |         144 |
|       9 | 0x0037      |          55 |
|      10 | 0x00BD      |         189 |
|      11 | 0x0096      |         150 |
|      12 | 0x0128      |         296 |
|      13 | 0x002D      |          45 |

## Events

### Event 65535

#### Metadata

| Field        | Value   |
|--------------|---------|
| Entrypoint   | 0x0000  |
| Data Size    | 1 bytes |
| Instructions | 1       |

```
      00 01 02 03 04 05 06 07  08 09 0A 0B 0C 0D 0E 0F
      -- -- -- -- -- -- -- --  -- -- -- -- -- -- -- --
0000: 00                                                .               
```

#### Opcodes

```
  0: 0x0000 [0x00] END_REQSTACK()
```

### Event 71

#### Metadata

| Field        | Value   |
|--------------|---------|
| Entrypoint   | 0x0001  |
| Data Size    | 1 bytes |
| Instructions | 1       |

```
      00 01 02 03 04 05 06 07  08 09 0A 0B 0C 0D 0E 0F
      -- -- -- -- -- -- -- --  -- -- -- -- -- -- -- --
0000:    00                                              .              
```

#### Opcodes

```
  0: 0x0001 [0x00] END_REQSTACK()
```

### Event 65535.1

#### Metadata

| Field        | Value    |
|--------------|----------|
| Entrypoint   | 0x0002   |
| Data Size    | 15 bytes |
| Instructions | 4        |

```
      00 01 02 03 04 05 06 07  08 09 0A 0B 0C 0D 0E 0F
      -- -- -- -- -- -- -- --  -- -- -- -- -- -- -- --
0000:       22 00 92 01 F8 FF  FF 7F 94 01 F8 FF FF 7F    ".............
0010: 00                                                .               
```

#### Opcodes

```
  0: 0x0002 [0x22] ENTITY_HIDE_FLAG(enabled=0x00)
  1: 0x0004 [0x92] EventEntity->Render.Flags3 ^= 0x01
  2: 0x000A [0x94] EventEntity->Render.Flags3 ^= 0x01
  3: 0x0010 [0x00] END_REQSTACK()
```

### Event 65535.2

#### Metadata

| Field        | Value    |
|--------------|----------|
| Entrypoint   | 0x0011   |
| Data Size    | 37 bytes |
| Instructions | 5        |

```
      00 01 02 03 04 05 06 07  08 09 0A 0B 0C 0D 0E 0F
      -- -- -- -- -- -- -- --  -- -- -- -- -- -- -- --
0010:    3B DE 42 07 01 00 00  01 00 02 00 3A DE 42 07   ;.B........:.B.
0020: 01 03 00 BA F8 FF FF 7F  00 00 01 00 02 00 03 00  ................
0030: 80 F8 FF FF 7F 00                                 ......          
```

#### Opcodes

```
  0: 0x0011 [0x3B] GET_ENTITY_POSITION(entity=Moogle (ID: 17253086/0x010742DE), x_destination=ExtData[1]->WorkLocal[0], y_destination=ExtData[1]->WorkLocal[1], z_destination=ExtData[1]->WorkLocal[2])
  1: 0x001C [0x3A] CONVERT_YAW_TO_BYTE(entity=Moogle (ID: 17253086/0x010742DE), result_destination=ExtData[1]->WorkLocal[3])
  2: 0x0023 [0xBA] SET_ENTITY_POSITION(entity_id=EventEntity, pos_x=ExtData[1]->WorkLocal[0], pos_z=ExtData[1]->WorkLocal[1], pos_y=ExtData[1]->WorkLocal[2], direction=ExtData[1]->WorkLocal[3])
  3: 0x0030 [0x80] LOAD_WAIT(entity=EventEntity)
  4: 0x0035 [0x00] END_REQSTACK()
```

### Event 65535.3

#### Metadata

| Field        | Value    |
|--------------|----------|
| Entrypoint   | 0x0036   |
| Data Size    | 29 bytes |
| Instructions | 5        |

```
      00 01 02 03 04 05 06 07  08 09 0A 0B 0C 0D 0E 0F
      -- -- -- -- -- -- -- --  -- -- -- -- -- -- -- --
0030:                   07 00  00 00 80 07 02 00 01 80        ..........
0040: BA F8 FF FF 7F 00 00 01  00 02 00 03 00 80 F8 FF  ................
0050: FF 7F 00                                          ...             
```

#### Opcodes

```
  0: 0x0036 [0x07] ExtData[1]->WorkLocal[0] += 370*
  1: 0x003B [0x07] ExtData[1]->WorkLocal[2] += 4294967268*
  2: 0x0040 [0xBA] SET_ENTITY_POSITION(entity_id=EventEntity, pos_x=ExtData[1]->WorkLocal[0], pos_z=ExtData[1]->WorkLocal[1], pos_y=ExtData[1]->WorkLocal[2], direction=ExtData[1]->WorkLocal[3])
  3: 0x004D [0x80] LOAD_WAIT(entity=EventEntity)
  4: 0x0052 [0x00] END_REQSTACK()
```

### Event 65535.4

#### Metadata

| Field        | Value   |
|--------------|---------|
| Entrypoint   | 0x0053  |
| Data Size    | 5 bytes |
| Instructions | 2       |

```
      00 01 02 03 04 05 06 07  08 09 0A 0B 0C 0D 0E 0F
      -- -- -- -- -- -- -- --  -- -- -- -- -- -- -- --
0050:          B6 00 02 80 00                              .....        
```

#### Opcodes

```
  0: 0x0053 [0xB6] ENTITY_APPEARANCE_HANDLER(case=Hair style, value=2283*)
  1: 0x0057 [0x00] END_REQSTACK()
```

### Event 65535.5

#### Metadata

| Field        | Value    |
|--------------|----------|
| Entrypoint   | 0x0058   |
| Data Size    | 10 bytes |
| Instructions | 2        |

```
      00 01 02 03 04 05 06 07  08 09 0A 0B 0C 0D 0E 0F
      -- -- -- -- -- -- -- --  -- -- -- -- -- -- -- --
0050:                          6C F8 FF FF 7F 03 80 04          l.......
0060: 80 00                                             ..              
```

#### Opcodes

```
  0: 0x0058 [0x6C] FADE_ENTITY_COLOR(entity_id=EventEntity, end_alpha=128*, fade_time=0*)
  1: 0x0061 [0x00] END_REQSTACK()
```

### Event 65535.6

#### Metadata

| Field        | Value    |
|--------------|----------|
| Entrypoint   | 0x0062   |
| Data Size    | 10 bytes |
| Instructions | 2        |

```
      00 01 02 03 04 05 06 07  08 09 0A 0B 0C 0D 0E 0F
      -- -- -- -- -- -- -- --  -- -- -- -- -- -- -- --
0060:       6C F8 FF FF 7F 04  80 04 80 00                l.........    
```

#### Opcodes

```
  0: 0x0062 [0x6C] FADE_ENTITY_COLOR(entity_id=EventEntity, end_alpha=0*, fade_time=0*)
  1: 0x006B [0x00] END_REQSTACK()
```

### Event 65535.7

#### Metadata

| Field        | Value    |
|--------------|----------|
| Entrypoint   | 0x006C   |
| Data Size    | 16 bytes |
| Instructions | 2        |

```
      00 01 02 03 04 05 06 07  08 09 0A 0B 0C 0D 0E 0F
      -- -- -- -- -- -- -- --  -- -- -- -- -- -- -- --
0060:                                      5B 05 80 F8              [...
0070: FF FF 7F F8 FF FF 7F 6C  61 74 6C 00              .......latl.    
```

#### Opcodes

```
  0: 0x006C [0x5B] LOAD_EXT_SCHEDULER: Load scheduler "latl" with entities [EventEntity, EventEntity], work=2635*
  1: 0x007B [0x00] END_REQSTACK()
```

### Event 65535.8

#### Metadata

| Field        | Value    |
|--------------|----------|
| Entrypoint   | 0x007C   |
| Data Size    | 16 bytes |
| Instructions | 2        |

```
      00 01 02 03 04 05 06 07  08 09 0A 0B 0C 0D 0E 0F
      -- -- -- -- -- -- -- --  -- -- -- -- -- -- -- --
0070:                                      5B 05 80 F8              [...
0080: FF FF 7F F8 FF FF 7F 6C  61 74 31 00              .......lat1.    
```

#### Opcodes

```
  0: 0x007C [0x5B] LOAD_EXT_SCHEDULER: Load scheduler "lat1" with entities [EventEntity, EventEntity], work=2635*
  1: 0x008B [0x00] END_REQSTACK()
```

### Event 65535.9

#### Metadata

| Field        | Value    |
|--------------|----------|
| Entrypoint   | 0x008C   |
| Data Size    | 16 bytes |
| Instructions | 2        |

```
      00 01 02 03 04 05 06 07  08 09 0A 0B 0C 0D 0E 0F
      -- -- -- -- -- -- -- --  -- -- -- -- -- -- -- --
0080:                                      5B 05 80 F8              [...
0090: FF FF 7F F8 FF FF 7F 6C  61 74 32 00              .......lat2.    
```

#### Opcodes

```
  0: 0x008C [0x5B] LOAD_EXT_SCHEDULER: Load scheduler "lat2" with entities [EventEntity, EventEntity], work=2635*
  1: 0x009B [0x00] END_REQSTACK()
```

### Event 65535.10

#### Metadata

| Field        | Value    |
|--------------|----------|
| Entrypoint   | 0x009C   |
| Data Size    | 16 bytes |
| Instructions | 2        |

```
      00 01 02 03 04 05 06 07  08 09 0A 0B 0C 0D 0E 0F
      -- -- -- -- -- -- -- --  -- -- -- -- -- -- -- --
0090:                                      5B 05 80 F8              [...
00A0: FF FF 7F F8 FF FF 7F 6C  61 74 33 00              .......lat3.    
```

#### Opcodes

```
  0: 0x009C [0x5B] LOAD_EXT_SCHEDULER: Load scheduler "lat3" with entities [EventEntity, EventEntity], work=2635*
  1: 0x00AB [0x00] END_REQSTACK()
```

### Event 65535.11

#### Metadata

| Field        | Value    |
|--------------|----------|
| Entrypoint   | 0x00AC   |
| Data Size    | 16 bytes |
| Instructions | 2        |

```
      00 01 02 03 04 05 06 07  08 09 0A 0B 0C 0D 0E 0F
      -- -- -- -- -- -- -- --  -- -- -- -- -- -- -- --
00A0:                                      5B 05 80 F8              [...
00B0: FF FF 7F F8 FF FF 7F 6C  61 74 34 00              .......lat4.    
```

#### Opcodes

```
  0: 0x00AC [0x5B] LOAD_EXT_SCHEDULER: Load scheduler "lat4" with entities [EventEntity, EventEntity], work=2635*
  1: 0x00BB [0x00] END_REQSTACK()
```

### Event 65535.12

#### Metadata

| Field        | Value    |
|--------------|----------|
| Entrypoint   | 0x00BC   |
| Data Size    | 16 bytes |
| Instructions | 2        |

```
      00 01 02 03 04 05 06 07  08 09 0A 0B 0C 0D 0E 0F
      -- -- -- -- -- -- -- --  -- -- -- -- -- -- -- --
00B0:                                      5B 05 80 F8              [...
00C0: FF FF 7F F8 FF FF 7F 73  65 69 6C 00              .......seil.    
```

#### Opcodes

```
  0: 0x00BC [0x5B] LOAD_EXT_SCHEDULER: Load scheduler "seil" with entities [EventEntity, EventEntity], work=2635*
  1: 0x00CB [0x00] END_REQSTACK()
```

### Event 65535.13

#### Metadata

| Field        | Value    |
|--------------|----------|
| Entrypoint   | 0x00CC   |
| Data Size    | 19 bytes |
| Instructions | 3        |

```
      00 01 02 03 04 05 06 07  08 09 0A 0B 0C 0D 0E 0F
      -- -- -- -- -- -- -- --  -- -- -- -- -- -- -- --
00C0:                                      5B 05 80 F8              [...
00D0: FF FF 7F F8 FF FF 7F 73  65 69 30 1C 06 80 00     .......sei0.... 
```

#### Opcodes

```
  0: 0x00CC [0x5B] LOAD_EXT_SCHEDULER: Load scheduler "sei0" with entities [EventEntity, EventEntity], work=2635*
  1: 0x00DB [0x1C] WAIT(177* ticks)
  2: 0x00DE [0x00] END_REQSTACK()
```

### Event 65535.14

#### Metadata

| Field        | Value    |
|--------------|----------|
| Entrypoint   | 0x00DF   |
| Data Size    | 16 bytes |
| Instructions | 2        |

```
      00 01 02 03 04 05 06 07  08 09 0A 0B 0C 0D 0E 0F
      -- -- -- -- -- -- -- --  -- -- -- -- -- -- -- --
00D0:                                               5B                 [
00E0: 07 80 F8 FF FF 7F F8 FF  FF 7F 64 6C 36 30 00     ..........dl60. 
```

#### Opcodes

```
  0: 0x00DF [0x5B] LOAD_EXT_SCHEDULER: Load scheduler "dl60" with entities [EventEntity, EventEntity], work=2637*
  1: 0x00EE [0x00] END_REQSTACK()
```

### Event 65535.15

#### Metadata

| Field        | Value    |
|--------------|----------|
| Entrypoint   | 0x00EF   |
| Data Size    | 19 bytes |
| Instructions | 3        |

```
      00 01 02 03 04 05 06 07  08 09 0A 0B 0C 0D 0E 0F
      -- -- -- -- -- -- -- --  -- -- -- -- -- -- -- --
00E0:                                               5B                 [
00F0: 07 80 F8 FF FF 7F F8 FF  FF 7F 64 6C 36 31 1C 08  ..........dl61..
0100: 80 00                                             ..              
```

#### Opcodes

```
  0: 0x00EF [0x5B] LOAD_EXT_SCHEDULER: Load scheduler "dl61" with entities [EventEntity, EventEntity], work=2637*
  1: 0x00FE [0x1C] WAIT(144* ticks)
  2: 0x0101 [0x00] END_REQSTACK()
```

### Event 65535.16

#### Metadata

| Field        | Value    |
|--------------|----------|
| Entrypoint   | 0x0102   |
| Data Size    | 36 bytes |
| Instructions | 4        |

```
      00 01 02 03 04 05 06 07  08 09 0A 0B 0C 0D 0E 0F
      -- -- -- -- -- -- -- --  -- -- -- -- -- -- -- --
0100:       5B 05 80 F8 FF FF  7F F8 FF FF 7F 68 72 6F    [..........hro
0110: 30 1C 09 80 C5 0A 80 F8  FF FF 7F F8 FF FF 7F 73  0..............s
0120: 74 30 31 04 80 00                                 t01...          
```

#### Opcodes

```
  0: 0x0102 [0x5B] LOAD_EXT_SCHEDULER: Load scheduler "hro0" with entities [EventEntity, EventEntity], work=2635*
  1: 0x0111 [0x1C] WAIT(55* ticks)
  2: 0x0114 [0xC5] LOAD_SCHEDULED_TASK_ALT3: Load scheduler 0x80043130 for entities [EventEntity, EventEntity], work=189*, param=29811
  3: 0x0125 [0x00] END_REQSTACK()
```

### Event 65535.17

#### Metadata

| Field        | Value    |
|--------------|----------|
| Entrypoint   | 0x0126   |
| Data Size    | 39 bytes |
| Instructions | 5        |

```
      00 01 02 03 04 05 06 07  08 09 0A 0B 0C 0D 0E 0F
      -- -- -- -- -- -- -- --  -- -- -- -- -- -- -- --
0120:                   C5 0A  80 F8 FF FF 7F F8 FF FF        ..........
0130: 7F 73 74 30 32 04 80 1C  0B 80 5B 05 80 F8 FF FF  .st02.....[.....
0140: 7F F8 FF FF 7F 68 72 6F  31 1C 0C 80 00           .....hro1....   
```

#### Opcodes

```
  0: 0x0126 [0xC5] LOAD_SCHEDULED_TASK_ALT3: Load scheduler 0x80043230 for entities [EventEntity, EventEntity], work=189*, param=29811
  1: 0x0137 [0x1C] WAIT(150* ticks)
  2: 0x013A [0x5B] LOAD_EXT_SCHEDULER: Load scheduler "hro1" with entities [EventEntity, EventEntity], work=2635*
  3: 0x0149 [0x1C] WAIT(296* ticks)
  4: 0x014C [0x00] END_REQSTACK()
```

### Event 65535.18

#### Metadata

| Field        | Value    |
|--------------|----------|
| Entrypoint   | 0x014D   |
| Data Size    | 36 bytes |
| Instructions | 4        |

```
      00 01 02 03 04 05 06 07  08 09 0A 0B 0C 0D 0E 0F
      -- -- -- -- -- -- -- --  -- -- -- -- -- -- -- --
0140:                                         5B 05 80               [..
0150: F8 FF FF 7F F8 FF FF 7F  68 72 6F 32 1C 0D 80 C5  ........hro2....
0160: 0A 80 F8 FF FF 7F F8 FF  FF 7F 73 74 30 31 04 80  ..........st01..
0170: 00                                                .               
```

#### Opcodes

```
  0: 0x014D [0x5B] LOAD_EXT_SCHEDULER: Load scheduler "hro2" with entities [EventEntity, EventEntity], work=2635*
  1: 0x015C [0x1C] WAIT(45* ticks)
  2: 0x015F [0xC5] LOAD_SCHEDULED_TASK_ALT3: Load scheduler 0x80043130 for entities [EventEntity, EventEntity], work=189*, param=29811
  3: 0x0170 [0x00] END_REQSTACK()
```

### Event 65535.19

#### Metadata

| Field        | Value    |
|--------------|----------|
| Entrypoint   | 0x0171   |
| Data Size    | 18 bytes |
| Instructions | 2        |

```
      00 01 02 03 04 05 06 07  08 09 0A 0B 0C 0D 0E 0F
      -- -- -- -- -- -- -- --  -- -- -- -- -- -- -- --
0170:    C5 0A 80 F8 FF FF 7F  F8 FF FF 7F 6B 69 6C 61   ...........kila
0180: 04 80 00                                          ...             
```

#### Opcodes

```
  0: 0x0171 [0xC5] LOAD_SCHEDULED_TASK_ALT3: Load scheduler 0x8004616C for entities [EventEntity, EventEntity], work=189*, param=26987
  1: 0x0182 [0x00] END_REQSTACK()
```
