# 17253109 - Moogle

## Common Data

| Field            | Value                       |
|------------------|-----------------------------|
| Zone             | East Sarutabaruta (ID: 116) |
| Block Size       | 3076 bytes                  |
| Total Events     | 7                           |
| References Count | 111                         |

## List of Events

| Event ID              | Entrypoint   |   Size |   Instructions |
|-----------------------|--------------|--------|----------------|
| [65535](#event-65535) | 0x0000       |      1 |              1 |
| [170](#event-170)     | 0x0001       |    365 |            117 |
| [175](#event-175)     | 0x016E       |    210 |             42 |
| [176](#event-176)     | 0x0240       |    322 |             78 |
| [171](#event-171)     | 0x0382       |    686 |            165 |
| [177](#event-177)     | 0x0630       |     26 |              7 |
| [178](#event-178)     | 0x064A       |    978 |            184 |

## DAT References (imed_data)

|   Index | Hex Value   |   Dec Value |
|---------|-------------|-------------|
|       0 | 0x1E52      |        7762 |
|       1 | 0x1E53      |        7763 |
|       2 | 0x0000      |           0 |
|       3 | 0x0001      |           1 |
|       4 | 0x1E54      |        7764 |
|       5 | 0x1E55      |        7765 |
|       6 | 0x1E56      |        7766 |
|       7 | 0x1E57      |        7767 |
|       8 | 0x1E58      |        7768 |
|       9 | 0x1E59      |        7769 |
|      10 | 0x1E5A      |        7770 |
|      11 | 0x1E5B      |        7771 |
|      12 | 0x1E5C      |        7772 |
|      13 | 0x1E5D      |        7773 |
|      14 | 0x1E5E      |        7774 |
|      15 | 0x1E5F      |        7775 |
|      16 | 0x1E60      |        7776 |
|      17 | 0x1E61      |        7777 |
|      18 | 0x1E62      |        7778 |
|      19 | 0x1E63      |        7779 |
|      20 | 0x1E64      |        7780 |
|      21 | 0x1E65      |        7781 |
|      22 | 0x1E66      |        7782 |
|      23 | 0x1E67      |        7783 |
|      24 | 0x0002      |           2 |
|      25 | 0x1E68      |        7784 |
|      26 | 0x1E6B      |        7787 |
|      27 | 0x1E69      |        7785 |
|      28 | 0x1E6A      |        7786 |
|      29 | 0x1E6C      |        7788 |
|      30 | 0x1E76      |        7798 |
|      31 | 0x1E77      |        7799 |
|      32 | 0x1E7B      |        7803 |
|      33 | 0x1E78      |        7800 |
|      34 | 0x1E6D      |        7789 |
|      35 | 0x0136      |         310 |
|      36 | 0x012C      |         300 |
|      37 | 0x1E7C      |        7804 |
|      38 | 0x00C9      |         201 |
|      39 | 0x1E4D      |        7757 |
|      40 | 0x0009      |           9 |
|      41 | 0x000A      |          10 |
|      42 | 0x000B      |          11 |
|      43 | 0x0003      |           3 |
|      44 | 0x000C      |          12 |
|      45 | 0x0004      |           4 |
|      46 | 0x000D      |          13 |
|      47 | 0x0005      |           5 |
|      48 | 0x0006      |           6 |
|      49 | 0x000F      |          15 |
|      50 | 0x0007      |           7 |
|      51 | 0x0010      |          16 |
|      52 | 0x0008      |           8 |
|      53 | 0x0011      |          17 |
|      54 | 0x0012      |          18 |
|      55 | 0x0013      |          19 |
|      56 | 0x0014      |          20 |
|      57 | 0x1E83      |        7811 |
|      58 | 0x1E84      |        7812 |
|      59 | 0x1E85      |        7813 |
|      60 | 0x1E86      |        7814 |
|      61 | 0x1E89      |        7817 |
|      62 | 0x01FE      |         510 |
|      63 | 0x01F6      |         502 |
|      64 | 0x1E8B      |        7819 |
|      65 | 0x1665      |        5733 |
|      66 | 0x3F73      |       16243 |
|      67 | 0x3C5F      |       15455 |
|      68 | 0x3E2F      |       15919 |
|      69 | 0x3C60      |       15456 |
|      70 | 0x019F      |         415 |
|      71 | 0x001E      |          30 |
|      72 | 0x6404      |       25604 |
|      73 | 0x5CFE      |       23806 |
|      74 | 0x1E8C      |        7820 |
|      75 | 0x1E8E      |        7822 |
|      76 | 0x1E8D      |        7821 |
|      77 | 0x0259      |         601 |
|      78 | 0x1E90      |        7824 |
|      79 | 0x02BD      |         701 |
|      80 | 0x1E92      |        7826 |
|      81 | 0x03E9      |        1001 |
|      82 | 0x1E8F      |        7823 |
|      83 | 0x0321      |         801 |
|      84 | 0x1E93      |        7827 |
|      85 | 0x044D      |        1101 |
|      86 | 0x1E91      |        7825 |
|      87 | 0x0385      |         901 |
|      88 | 0x1E94      |        7828 |
|      89 | 0x04B1      |        1201 |
|      90 | 0x1E95      |        7829 |
|      91 | 0x0515      |        1301 |
|      92 | 0x1E87      |        7815 |
|      93 | 0x1E6E      |        7790 |
|      94 | 0x1E6F      |        7791 |
|      95 | 0x1E70      |        7792 |
|      96 | 0x1E71      |        7793 |
|      97 | 0x1E72      |        7794 |
|      98 | 0x1E73      |        7795 |
|      99 | 0x1E74      |        7796 |
|     100 | 0x1E75      |        7797 |
|     101 | 0x000E      |          14 |
|     102 | 0x0015      |          21 |
|     103 | 0x0016      |          22 |
|     104 | 0x0017      |          23 |
|     105 | 0x0018      |          24 |
|     106 | 0x0019      |          25 |
|     107 | 0x001A      |          26 |
|     108 | 0x001B      |          27 |
|     109 | 0x001C      |          28 |
|     110 | 0x001D      |          29 |

## String References

- **7757**: SMMMMB$3f$3o$3b$3O7i$3N$3| [$3C$3x$3$3gI$Q%A5D"i1FI7i/$L"pB/D\`g$/$L"p$A5D\`g$/<Player>j$P11L8B$c5DKILL7i/$P11S<Player>u$28$839i/B$P15JI$3f$3o$3b$3O7ii$3f$3o$3b$3O$3$6095436$7146096$P14F7i/$e [$2pR$P11L%AjD"i1FI7i/%AjD"i$e [$2pOI7i/$e [$2pQjPI$P10]$P12h/$e [$2pQjQI$P10]$P12h/$e [$2pQjRI$P10]$P12h]
- **7762**: Kupo-whoa-whoa there, pardner! Care to saddle up and help us rustle up a couple o' wild buffalo? 'Cause we've got a stampede on our hands, I reckon!
- **7763**: Lend a hand? [<Skedaddle away.>/A stampede, you say?/I reckon I will.]
- **7764**: Well, sit down and grab a sarsaparilla, and I'll tell you the tale, kupo. You see, the Mog House Management Union (MHMU) ain't too popular among the townsfolk these days, and they've been talkin' with their wallets by not sendin' too many gold nuggets our way, if you catch my drift.
- **7765**: But seein' as how we moogles are an enterprisin' bunch, we done hatched ourselves a plan, y'hear?
- **7766**: A plan we call... The Buffalo Bonanza Ranch! Yeeeeee-hawww!!!
- **7767**: Rustle up a herd of the most darn-tootin' fearsome buffalo from over and yonder, throw a fence around 'em, and you done got yerself the rip-roarin'est dude ranch this side of the Rio Rafeloux, kupo!
- **7768**: Set up a saloon on the side serving scrumptious buffalo burgers, and you've got contented customers filling our moogle coffers with mucho dinero... Comprende?
- **7769**: That there was the plan, pardner.
- **7770**: So we lassoed up a herd o' ill-tempered buffalo from the mountains up north, and were leadin' our li'l dogies back this-a-way to town...
- **7771**: And that's when we hit a bit o' a snag.
- **7772**: Dagnabbit if I know where they came from, but a swarm of confounded chigoes done showed up!
- **7773**: Now y'see, these buffalo come from the mountains, and ain't never seen the likes of no chigoes before. They raised a right ruckus, and next thing y'know, we done had a stampede on our hands!
- **7774**: Y'ever see a stampedin' buffalo? Even our moogle hypnosis did 'bout as much good as a poke in the ear with a rusty cattle prod, kupo!
- **7775**: That's where you come in, pardner. What say you saddle up and help us moogles round up these beasties?
- **7776**: For each buffalo you capture, we'll give you one o' these here "bovine brands." Collect 'em and mount 'em and you'll be eligible to win a veritable bonanza o' special prizes!
- **7777**: % looks at you with puppy-dog eyes...
- **7778**: Now, I'd do this myself and save y'all the trouble, but jus' look at me... One kick from a stampedin' buffalo and my puny moogle body'd be flung right to the other side o' Vana'diel, I reckon!
- **7779**: Y'all got nothin' to worry 'bout, though. As big and sturdy as you are, I reckon you'd only fly to just over yonder a-ways.
- **7780**: And as an added bonus, you can trade the bovine brands you've earned for a whole kit 'n caboodle o' Buffalo Bonanza Ranch goods and prizes! Yeeeeee-haw, kupo!
- **7781**: So how's about it, pardner?
- **7782**: % gazes at <Player> with a steely glint in his eye.
- **7783**: Saddle up? [I think I'll pass./Sure. Yeee-haw!]
- **7784**: Yippie ki-yi-yay!!! Much obliged, pardner!
- **7785**: If your cow-herdin' skills are up to the task, we'll stamp you some "bovine brands" on this here sheet.
- **7786**: Once you've racked up your share o' brands, just mosey back on over here to claim your prizes!
- **7787**: So sharpen your spurs, and when you're ready, herd up the buffalo and lead them to the moogle cowhand in area [G-9/I-8/G-9/H-9/H-6/I-7], kupo!
- **7788**: Ready to go? [Tell me more about the buffalo./How about some help, pardner?/Giddy-up!]
- **7789**: All right, now go rustle yerself up some buffalo! Yee-haw!
- **7790**: The big beastly ones are the bulls, the bosses o' the herds. The midsized ones are the mother cows, and the li'l-bittiest ones are the baby calves.
- **7791**: The calves are sweet little thangs. Don't even have to hypnotize 'em; they'll follow their mother's scent just 'bout anywhere.
- **7792**: By the by, we got ourselves a bottle o' Eau de Buffalo here. We moogle cowpokes use it to disguise ourselves with the mother buffalo's scent. It's only got $3 [dose/doses] left, but they're all yours, pardner.
- **7793**: 'Course, there ain't no need to fret if it runs out. Just brush yerself up against one of the mama cows and you'll get a natural shot of Eau de Buffalo just like that.
- **7794**: But you'd best be careful, 'cause they be some hot-tempered heifers, y'hear? You'll be wantin' to sneak up on them from behind, all careful-like, to avoid their charge.
- **7795**: As for the bulls, I'm quakin' in my boots just thinkin' 'bout 'em. They're the nastiest, most foul-tempered beasts this ol' cowhand's ever laid eyes upon. You'll be wantin' to steer clear of 'em and stick to roundin' up the cows and calves, kupo.
- **7796**: And don't you be forgettin' that these buffaloes, they always act as a herd, y'hear? So don't go mixin' the herds, or we'll have a right ruckus on our hands.
- **7797**: And you'd best take care to keep the chigoes away, too. One li'l bite from them and the buffalo will really start goin' loco, I reckon.
- **7798**: With this here bottle o' Eau de Buffalo, we can make you smell just like one o' the buffalo mamas. It's runnin' low, though, so you'll want to be usin' it wisely, I reckon.
- **7799**: Apply the scent? [Not now./Sure.]
- **7800**: A dab or two o' buffalo sweat, a dab or two o' milk, and...kupo!
- **7803**: Sorry, pardner, we done exhausted our supply. Reckon you'll just have to do it the hard way...
- **7804**: That's a cryin' shame, pardner.
- **7811**: You've wrangled yerself the following buffalo, pardner:
- **7812**: %0 %1
- **7813**: %0 %1.
- **7814**: Feelin' a bit tuckered out? You ain't caught yerself a single buffalo yet.
- **7815**: Ain't got the time for that now, pardner... We've got a stampede on our hands! We'd be much obliged if you could help us rustle up these buffalo, pardner. Go talk to my compadre by the city gates if yer interested.
- **7817**: How goes it, pardner? [Keep on herdin'./Ask about the buffalo./Get the mother's scent./Mosey on home.]
- **7819**: You've got yerself $0 bovine [brand/brands], pardner.
- **7820**: Trade in for a prize? [Not now./$0 ($1 brands)./$2 ($3 brands)./$4 ($5 brands)./$6 ($7 brands)./$8 ($9 brands)./$10 ($11 brands)./$12 ($13 brands)./$14 ($15 brands).]
- **7821**: Trade $1 brands for $0? [No thanks./Giddy-up!]
- **7822**: Here we've got a special beverage made from buffalo milk, with a dash o' moogle magic. Darned if I know how it works, but one swig o' this and you'll up and transform into any critter you touch. You'll be best buddies with the buffalo in no time, pardner!
- **7823**: This here's a belt crafted from the finest buffalo rawhide, soaked in buffalo milk, and left to dry out under the burnin' sun. Got a bit of a foul odor, but it works just like $0.
- **7824**: With this here stylish mantle, not only will you be the most dashin' cowhand for miles, you'll be able to dodge those blasted buffalo charges a couple'a times, to boot!
- **7825**: This here's a limited-edition Buffalo Bonanza Ranch cowhorn. It's just a li'l decorative doodad, so it don't make no sound, but word has it that it can make you as rich as a gold mine!
- **7826**: Handle this hot and heavy new waist attire straight from the heavy horns of the belligerent buffalo Toro himself!
- **7827**: Handle this hot and heavy new waist attire straight from the heavy horns of the belligerent buffalo Miura himself!
- **7828**: Our wonderful workers of hide have fashioned this fantastic cap that can turn you into a buffalo calf, kupo!
- **7829**: This conspicuously convenient cap was crafted by a masterful Moogle weaver and inexplicably increases the amount of time you can ride your mount, kupo!

## Events

### Event 65535

#### Metadata

| Field        | Value   |
|--------------|---------|
| Entrypoint   | 0x0000  |
| Data Size    | 1 bytes |
| Instructions | 1       |

```
      00 01 02 03 04 05 06 07  08 09 0A 0B 0C 0D 0E 0F
      -- -- -- -- -- -- -- --  -- -- -- -- -- -- -- --
0000: 00                                                .               
```

#### Opcodes

```
  0: 0x0000 [0x00] END_REQSTACK()
```

### Event 170

#### Metadata

| Field        | Value     |
|--------------|-----------|
| Entrypoint   | 0x0001    |
| Data Size    | 365 bytes |
| Instructions | 40        |

```
      00 01 02 03 04 05 06 07  08 09 0A 0B 0C 0D 0E 0F
      -- -- -- -- -- -- -- --  -- -- -- -- -- -- -- --
0000:    1E F0 FF FF 7F 1D 00  80 23 24 01 80 02 80 02   ........#$.....
0010: 80 25 02 00 10 02 80 00  20 00 01 63 01 01 A7 00  .%...... ..c....
0020: 02 00 10 03 80 00 99 00  1D 04 80 23 1D 05 80 23  ...........#...#
0030: 1D 06 80 23 1D 07 80 23  1D 08 80 23 1D 09 80 23  ...#...#...#...#
0040: 1D 0A 80 23 1D 0B 80 23  1D 0C 80 23 1D 0D 80 23  ...#...#...#...#
0050: 1D 0E 80 23 1D 0F 80 23  1D 10 80 23 48 11 80 1D  ...#...#...#H...
0060: 12 80 23 1D 13 80 23 1D  14 80 23 1D 15 80 23 48  ..#...#...#...#H
0070: 16 80 24 17 80 02 80 02  80 25 02 00 10 02 80 00  ..$......%......
0080: 88 00 01 63 01 01 96 00  02 00 10 03 80 00 96 00  ...c............
0090: 01 A9 00 01 96 00 01 A7  00 02 00 10 18 80 00 A7  ................
00A0: 00 01 A9 00 01 A7 00 21  00 1D 19 80 23 02 02 10  .......!....#...
00B0: 03 80 00 C0 00 1D 1A 80  23 01 D9 00 21 01 D8 00  ........#...!...
00C0: 02 02 10 18 80 00 D8 00  1D 1B 80 23 1D 1C 80 23  ...........#...#
00D0: 1D 1A 80 23 01 D9 00 21  00 24 1D 80 02 80 02 80  ...#...!.$......
00E0: 25 02 00 10 02 80 00 F2  00 1A 50 06 01 D9 00 01  %.........P.....
00F0: 62 01 02 00 10 03 80 00  3D 01 1D 1E 80 23 24 1F  b.......=....#$.
0100: 80 02 80 02 80 25 02 00  10 02 80 00 14 01 01 D9  .....%..........
0110: 00 01 3A 01 02 00 10 03  80 00 3A 01 02 04 10 02  ..:.......:.....
0120: 80 05 2B 01 1D 20 80 23  01 34 01 1D 21 80 23 03  ..+.. .#.4..!.#.
0130: 03 10 03 80 01 D9 00 01  3A 01 01 62 01 02 00 10  ........:..b....
0140: 18 80 00 62 01 1D 22 80  23 02 03 10 03 80 00 59  ...b..".#......Y
0150: 01 03 01 10 23 80 01 5E  01 03 01 10 24 80 21 01  ....#..^....$.!.
0160: 62 01 00 1D 25 80 23 03  01 10 26 80 21 00        b...%.#...&.!.  
```

#### Opcodes

```
  0: 0x0001 [0x1E] EventEntity looks at LocalPlayer and starts talking
  1: 0x0006 [0x1D] PRINT_EVENT_MESSAGE(message_id=7762*)
    → "Kupo-whoa-whoa there, pardner! Care to saddle up and help us rustle up a couple o' wild buffalo? 'Cause we've got a stampede on our hands, I reckon!"
  2: 0x0009 [0x23] WAIT_FOR_DIALOG_INTERACTION
  3: 0x000A [0x24] CREATE_DIALOG(message_id=7763*, default_option=0*, option_flags=0*)
    → "Lend a hand? [<Skedaddle away.>/A stampede, you say?/I reckon I will.]"
  4: 0x0011 [0x25] WAIT_DIALOG_SELECT()
  5: 0x0012 [0x02] IF !(Work_Zone[0] == 0*) GOTO 0x0020
  6: 0x001A [0x01] GOTO 0x0163

SUBROUTINE_0096:
  7: 0x0096 [0x01] GOTO 0x00A7
  8: 0x0099 [0x02] IF !(Work_Zone[0] == 2*) GOTO 0x00A7
  9: 0x00A1 [0x01] GOTO 0x00A9

SUBROUTINE_00A7:
 10: 0x00A7 [0x21] END_EVENT
 11: 0x00A8 [0x00] END_REQSTACK()

SUBROUTINE_00A9:
 12: 0x00A9 [0x1D] PRINT_EVENT_MESSAGE(message_id=7784*)
    → "Yippie ki-yi-yay!!! Much obliged, pardner!"
 13: 0x00AC [0x23] WAIT_FOR_DIALOG_INTERACTION
 14: 0x00AD [0x02] IF !(Work_Zone[2] == 1*) GOTO 0x00C0
 15: 0x00B5 [0x1D] PRINT_EVENT_MESSAGE(message_id=7787*)
    → "So sharpen your spurs, and when you're ready, herd up the buffalo and lead them to the moogle cowhand in area [G-9/I-8/G-9/H-9/H-6/I-7], kupo!"
 16: 0x00B8 [0x23] WAIT_FOR_DIALOG_INTERACTION
 17: 0x00B9 [0x01] GOTO 0x00D9

SUBROUTINE_00D8:
 18: 0x00D8 [0x00] END_REQSTACK()

SUBROUTINE_00D9:
 19: 0x00D9 [0x24] CREATE_DIALOG(message_id=7788*, default_option=0*, option_flags=0*)
    → "Ready to go? [Tell me more about the buffalo./How about some help, pardner?/Giddy-up!]"
 20: 0x00E0 [0x25] WAIT_DIALOG_SELECT()
 21: 0x00E1 [0x02] IF !(Work_Zone[0] == 0*) GOTO 0x00F2
 22: 0x00E9 [0x1A] CALL_SUBROUTINE(address=0x0650)
 23: 0x00EC [0x01] GOTO 0x00D9

SUBROUTINE_0134:
 24: 0x0134 [0x01] GOTO 0x00D9

SUBROUTINE_013A:
 25: 0x013A [0x01] GOTO 0x0162
 26: 0x013D [0x02] IF !(Work_Zone[0] == 2*) GOTO 0x0162
 27: 0x0145 [0x1D] PRINT_EVENT_MESSAGE(message_id=7789*)
    → "All right, now go rustle yerself up some buffalo! Yee-haw!"
 28: 0x0148 [0x23] WAIT_FOR_DIALOG_INTERACTION
 29: 0x0149 [0x02] IF !(Work_Zone[3] == 1*) GOTO 0x0159
 30: 0x0151 [0x03] Work_Zone[1] = 310*
 31: 0x0156 [0x01] GOTO 0x015E
 32: 0x0159 [0x03] Work_Zone[1] = 300*

SUBROUTINE_015E:
 33: 0x015E [0x21] END_EVENT

SUBROUTINE_0162:
 34: 0x0162 [0x00] END_REQSTACK()

SUBROUTINE_0163:
 35: 0x0163 [0x1D] PRINT_EVENT_MESSAGE(message_id=7804*)
    → "That's a cryin' shame, pardner."
 36: 0x0166 [0x23] WAIT_FOR_DIALOG_INTERACTION
 37: 0x0167 [0x03] Work_Zone[1] = 201*
 38: 0x016C [0x21] END_EVENT
 39: 0x016D [0x00] END_REQSTACK()
```

#### Data or dead code:

```
# Dead code (unreachable instructions):
     0x001D [0x01] GOTO 0x00A7
     0x0085 [0x01] GOTO 0x0096
     0x0093 [0x01] GOTO 0x0096
# Dead code (unreachable instructions):
     0x00A4 [0x01] GOTO 0x00A7
# Dead code (unreachable instructions):
     0x00BC [0x21] END_EVENT
     0x00BD [0x01] GOTO 0x00D8
     0x00D7 [0x21] END_EVENT
# Dead code (unreachable instructions):
     0x00EF [0x01] GOTO 0x0162
     0x0111 [0x01] GOTO 0x013A
# Dead code (unreachable instructions):
     0x0137 [0x01] GOTO 0x013A
# Dead code (unreachable instructions):
     0x015F [0x01] GOTO 0x0162
```

### Event 175

#### Metadata

| Field        | Value     |
|--------------|-----------|
| Entrypoint   | 0x016E    |
| Data Size    | 210 bytes |
| Instructions | 42        |

```
      00 01 02 03 04 05 06 07  08 09 0A 0B 0C 0D 0E 0F
      -- -- -- -- -- -- -- --  -- -- -- -- -- -- -- --
0160:                                            24 27                $'
0170: 80 02 80 02 80 25 02 00  10 02 80 00 86 01 03 01  .....%..........
0180: 10 28 80 01 3E 02 02 00  10 03 80 00 96 01 03 01  .(..>...........
0190: 10 29 80 01 3E 02 02 00  10 18 80 00 A6 01 03 01  .)..>...........
01A0: 10 2A 80 01 3E 02 02 00  10 2B 80 00 B6 01 03 01  .*..>....+......
01B0: 10 2C 80 01 3E 02 02 00  10 2D 80 00 C6 01 03 01  .,..>....-......
01C0: 10 2E 80 01 3E 02 02 00  10 2F 80 00 DE 01 71 10  ....>..../....q.
01D0: 03 80 71 11 02 10 03 01  10 02 10 01 3E 02 02 00  ..q.........>...
01E0: 10 30 80 00 EE 01 03 01  10 31 80 01 3E 02 02 00  .0.......1..>...
01F0: 10 32 80 00 FE 01 03 01  10 33 80 01 3E 02 02 00  .2.......3..>...
0200: 10 34 80 00 0E 02 03 01  10 35 80 01 3E 02 02 00  .4.......5..>...
0210: 10 28 80 00 1E 02 03 01  10 36 80 01 3E 02 02 00  .(.......6..>...
0220: 10 29 80 00 2E 02 03 01  10 37 80 01 3E 02 02 00  .).......7..>...
0230: 10 2A 80 00 3E 02 03 01  10 38 80 01 3E 02 21 00  .*..>....8..>.!.
```

#### Opcodes

```
  0: 0x016E [0x24] CREATE_DIALOG(message_id=7757*, default_option=0*, option_flags=0*)
    → "SMMMMB$3f$3o$3b$3O7i$3N$3| [$3C$3x$3$3gI$Q%A5D"i1FI7i/$L"pB/D`g$/$L"p$A5D`g$/<Player>j$P11L8B$c5DKILL7i/$P11S<Player>u$28$839i/B$P15JI$3f$3o$3b$3O7ii$3f$3o$3b$3O$3$6095436$7146096$P14F7i/$e [$2pR$P11L%AjD"i1FI7i/%AjD"i$e [$2pOI7i/$e [$2pQjPI$P10]$P12h/$e [$2pQjQI$P10]$P12h/$e [$2pQjRI$P10]$P12h]"
  1: 0x0175 [0x25] WAIT_DIALOG_SELECT()
  2: 0x0176 [0x02] IF !(Work_Zone[0] == 0*) GOTO 0x0186
  3: 0x017E [0x03] Work_Zone[1] = 9*
  4: 0x0183 [0x01] GOTO 0x023E
  5: 0x0186 [0x02] IF !(Work_Zone[0] == 1*) GOTO 0x0196
  6: 0x018E [0x03] Work_Zone[1] = 10*
  7: 0x0193 [0x01] GOTO 0x023E
  8: 0x0196 [0x02] IF !(Work_Zone[0] == 2*) GOTO 0x01A6
  9: 0x019E [0x03] Work_Zone[1] = 11*
 10: 0x01A3 [0x01] GOTO 0x023E
 11: 0x01A6 [0x02] IF !(Work_Zone[0] == 3*) GOTO 0x01B6
 12: 0x01AE [0x03] Work_Zone[1] = 12*
 13: 0x01B3 [0x01] GOTO 0x023E
 14: 0x01B6 [0x02] IF !(Work_Zone[0] == 4*) GOTO 0x01C6
 15: 0x01BE [0x03] Work_Zone[1] = 13*
 16: 0x01C3 [0x01] GOTO 0x023E
 17: 0x01C6 [0x02] IF !(Work_Zone[0] == 5*) GOTO 0x01DE
 18: 0x01CE [0x71] USER_INPUT_HANDLER: Open numerical input dialog (work=1*)
 19: 0x01D2 [0x71] USER_INPUT_HANDLER: Process numerical input A (work=Work_Zone[2])
 20: 0x01D6 [0x03] Work_Zone[1] = Work_Zone[2]
 21: 0x01DB [0x01] GOTO 0x023E
 22: 0x01DE [0x02] IF !(Work_Zone[0] == 6*) GOTO 0x01EE
 23: 0x01E6 [0x03] Work_Zone[1] = 15*
 24: 0x01EB [0x01] GOTO 0x023E
 25: 0x01EE [0x02] IF !(Work_Zone[0] == 7*) GOTO 0x01FE
 26: 0x01F6 [0x03] Work_Zone[1] = 16*
 27: 0x01FB [0x01] GOTO 0x023E
 28: 0x01FE [0x02] IF !(Work_Zone[0] == 8*) GOTO 0x020E
 29: 0x0206 [0x03] Work_Zone[1] = 17*
 30: 0x020B [0x01] GOTO 0x023E
 31: 0x020E [0x02] IF !(Work_Zone[0] == 9*) GOTO 0x021E
 32: 0x0216 [0x03] Work_Zone[1] = 18*
 33: 0x021B [0x01] GOTO 0x023E
 34: 0x021E [0x02] IF !(Work_Zone[0] == 10*) GOTO 0x022E
 35: 0x0226 [0x03] Work_Zone[1] = 19*
 36: 0x022B [0x01] GOTO 0x023E
 37: 0x022E [0x02] IF !(Work_Zone[0] == 11*) GOTO 0x023E
 38: 0x0236 [0x03] Work_Zone[1] = 20*
 39: 0x023B [0x01] GOTO 0x023E

SUBROUTINE_023E:
 40: 0x023E [0x21] END_EVENT
 41: 0x023F [0x00] END_REQSTACK()
```

### Event 176

#### Metadata

| Field        | Value     |
|--------------|-----------|
| Entrypoint   | 0x0240    |
| Data Size    | 322 bytes |
| Instructions | 78        |

```
      00 01 02 03 04 05 06 07  08 09 0A 0B 0C 0D 0E 0F
      -- -- -- -- -- -- -- --  -- -- -- -- -- -- -- --
0240: 1E F0 FF FF 7F 02 09 10  02 80 02 28 03 1D 39 80  ...........(..9.
0250: 23 03 00 00 09 10 1A 76  06 B4 04 03 17 02 80 B4  #......v........
0260: 04 06 17 03 80 02 08 10  02 80 02 74 02 1D 3A 80  ...........t..:.
0270: 23 01 78 02 1D 3B 80 23  02 08 10 02 80 02 A7 02  #.x..;.#........
0280: 03 00 00 08 10 1A 76 06  B4 04 03 17 02 80 B4 04  ......v.........
0290: 06 17 03 80 02 07 10 02  80 02 A3 02 1D 3A 80 23  .............:.#
02A0: 01 A7 02 1D 3B 80 23 02  07 10 02 80 02 D6 02 03  ....;.#.........
02B0: 00 00 07 10 1A 76 06 B4  04 03 17 02 80 B4 04 06  .....v..........
02C0: 17 03 80 02 06 10 02 80  02 D2 02 1D 3A 80 23 01  ............:.#.
02D0: D6 02 1D 3B 80 23 02 06  10 02 80 02 05 03 03 00  ...;.#..........
02E0: 00 06 10 1A 76 06 B4 04  03 17 02 80 B4 04 06 17  ....v...........
02F0: 03 80 02 05 10 02 80 02  01 03 1D 3A 80 23 01 05  ...........:.#..
0300: 03 1D 3B 80 23 02 05 10  02 80 02 25 03 03 00 00  ..;.#......%....
0310: 05 10 1A 76 06 B4 04 03  17 02 80 B4 04 06 17 03  ...v............
0320: 80 1D 3B 80 23 01 2C 03  1D 3C 80 23 24 3D 80 02  ..;.#.,..<.#$=..
0330: 80 02 80 25 02 00 10 02  80 00 3F 03 01 80 03 02  ...%......?.....
0340: 00 10 03 80 00 4D 03 1A  50 06 01 80 03 02 00 10  .....M..P.......
0350: 18 80 00 70 03 02 04 10  02 80 05 64 03 1D 20 80  ...p.......d.. .
0360: 23 01 6D 03 1D 21 80 23  03 01 10 3E 80 01 80 03  #.m..!.#...>....
0370: 02 00 10 2B 80 00 80 03  03 01 10 3F 80 01 80 03  ...+.......?....
0380: 21 00                                             !.              
```

#### Opcodes

```
  0: 0x0240 [0x1E] EventEntity looks at LocalPlayer and starts talking
  1: 0x0245 [0x02] IF !(Work_Zone[9] <= 0*) GOTO 0x0328
  2: 0x024D [0x1D] PRINT_EVENT_MESSAGE(message_id=7811*)
    → "You've wrangled yerself the following buffalo, pardner:"
  3: 0x0250 [0x23] WAIT_FOR_DIALOG_INTERACTION
  4: 0x0251 [0x03] ExtData[1]->WorkLocal[0] = Work_Zone[9]
  5: 0x0256 [0x1A] CALL_SUBROUTINE(address=0x0676)
  6: 0x0259 [0xB4] UI_WINDOW_STRING_HANDLER(case=0x04 - Copy string to shared buffers, work_offset1=Work_Zone_1700[3], work_offset2=0*)
  7: 0x025F [0xB4] UI_WINDOW_STRING_HANDLER(case=0x04 - Copy string to shared buffers, work_offset1=Work_Zone_1700[6], work_offset2=1*)
  8: 0x0265 [0x02] IF !(Work_Zone[8] <= 0*) GOTO 0x0274
  9: 0x026D [0x1D] PRINT_EVENT_MESSAGE(message_id=7812*)
    → "%0 %1"
 10: 0x0270 [0x23] WAIT_FOR_DIALOG_INTERACTION
 11: 0x0271 [0x01] GOTO 0x0278
 12: 0x0274 [0x1D] PRINT_EVENT_MESSAGE(message_id=7813*)
    → "%0 %1."
 13: 0x0277 [0x23] WAIT_FOR_DIALOG_INTERACTION

SUBROUTINE_0278:
 14: 0x0278 [0x02] IF !(Work_Zone[8] <= 0*) GOTO 0x02A7
 15: 0x0280 [0x03] ExtData[1]->WorkLocal[0] = Work_Zone[8]
 16: 0x0285 [0x1A] CALL_SUBROUTINE(address=0x0676)
 17: 0x0288 [0xB4] UI_WINDOW_STRING_HANDLER(case=0x04 - Copy string to shared buffers, work_offset1=Work_Zone_1700[3], work_offset2=0*)
 18: 0x028E [0xB4] UI_WINDOW_STRING_HANDLER(case=0x04 - Copy string to shared buffers, work_offset1=Work_Zone_1700[6], work_offset2=1*)
 19: 0x0294 [0x02] IF !(Work_Zone[7] <= 0*) GOTO 0x02A3
 20: 0x029C [0x1D] PRINT_EVENT_MESSAGE(message_id=7812*)
    → "%0 %1"
 21: 0x029F [0x23] WAIT_FOR_DIALOG_INTERACTION
 22: 0x02A0 [0x01] GOTO 0x02A7
 23: 0x02A3 [0x1D] PRINT_EVENT_MESSAGE(message_id=7813*)
    → "%0 %1."
 24: 0x02A6 [0x23] WAIT_FOR_DIALOG_INTERACTION

SUBROUTINE_02A7:
 25: 0x02A7 [0x02] IF !(Work_Zone[7] <= 0*) GOTO 0x02D6
 26: 0x02AF [0x03] ExtData[1]->WorkLocal[0] = Work_Zone[7]
 27: 0x02B4 [0x1A] CALL_SUBROUTINE(address=0x0676)
 28: 0x02B7 [0xB4] UI_WINDOW_STRING_HANDLER(case=0x04 - Copy string to shared buffers, work_offset1=Work_Zone_1700[3], work_offset2=0*)
 29: 0x02BD [0xB4] UI_WINDOW_STRING_HANDLER(case=0x04 - Copy string to shared buffers, work_offset1=Work_Zone_1700[6], work_offset2=1*)
 30: 0x02C3 [0x02] IF !(Work_Zone[6] <= 0*) GOTO 0x02D2
 31: 0x02CB [0x1D] PRINT_EVENT_MESSAGE(message_id=7812*)
    → "%0 %1"
 32: 0x02CE [0x23] WAIT_FOR_DIALOG_INTERACTION
 33: 0x02CF [0x01] GOTO 0x02D6
 34: 0x02D2 [0x1D] PRINT_EVENT_MESSAGE(message_id=7813*)
    → "%0 %1."
 35: 0x02D5 [0x23] WAIT_FOR_DIALOG_INTERACTION

SUBROUTINE_02D6:
 36: 0x02D6 [0x02] IF !(Work_Zone[6] <= 0*) GOTO 0x0305
 37: 0x02DE [0x03] ExtData[1]->WorkLocal[0] = Work_Zone[6]
 38: 0x02E3 [0x1A] CALL_SUBROUTINE(address=0x0676)
 39: 0x02E6 [0xB4] UI_WINDOW_STRING_HANDLER(case=0x04 - Copy string to shared buffers, work_offset1=Work_Zone_1700[3], work_offset2=0*)
 40: 0x02EC [0xB4] UI_WINDOW_STRING_HANDLER(case=0x04 - Copy string to shared buffers, work_offset1=Work_Zone_1700[6], work_offset2=1*)
 41: 0x02F2 [0x02] IF !(Work_Zone[5] <= 0*) GOTO 0x0301
 42: 0x02FA [0x1D] PRINT_EVENT_MESSAGE(message_id=7812*)
    → "%0 %1"
 43: 0x02FD [0x23] WAIT_FOR_DIALOG_INTERACTION
 44: 0x02FE [0x01] GOTO 0x0305
 45: 0x0301 [0x1D] PRINT_EVENT_MESSAGE(message_id=7813*)
    → "%0 %1."
 46: 0x0304 [0x23] WAIT_FOR_DIALOG_INTERACTION

SUBROUTINE_0305:
 47: 0x0305 [0x02] IF !(Work_Zone[5] <= 0*) GOTO 0x0325
 48: 0x030D [0x03] ExtData[1]->WorkLocal[0] = Work_Zone[5]
 49: 0x0312 [0x1A] CALL_SUBROUTINE(address=0x0676)
 50: 0x0315 [0xB4] UI_WINDOW_STRING_HANDLER(case=0x04 - Copy string to shared buffers, work_offset1=Work_Zone_1700[3], work_offset2=0*)
 51: 0x031B [0xB4] UI_WINDOW_STRING_HANDLER(case=0x04 - Copy string to shared buffers, work_offset1=Work_Zone_1700[6], work_offset2=1*)
 52: 0x0321 [0x1D] PRINT_EVENT_MESSAGE(message_id=7813*)
    → "%0 %1."
 53: 0x0324 [0x23] WAIT_FOR_DIALOG_INTERACTION
 54: 0x0325 [0x01] GOTO 0x032C
 55: 0x0328 [0x1D] PRINT_EVENT_MESSAGE(message_id=7814*)
    → "Feelin' a bit tuckered out? You ain't caught yerself a single buffalo yet."
 56: 0x032B [0x23] WAIT_FOR_DIALOG_INTERACTION

SUBROUTINE_032C:
 57: 0x032C [0x24] CREATE_DIALOG(message_id=7817*, default_option=0*, option_flags=0*)
    → "How goes it, pardner? [Keep on herdin'./Ask about the buffalo./Get the mother's scent./Mosey on home.]"
 58: 0x0333 [0x25] WAIT_DIALOG_SELECT()
 59: 0x0334 [0x02] IF !(Work_Zone[0] == 0*) GOTO 0x033F
 60: 0x033C [0x01] GOTO 0x0380
 61: 0x033F [0x02] IF !(Work_Zone[0] == 1*) GOTO 0x034D
 62: 0x0347 [0x1A] CALL_SUBROUTINE(address=0x0650)
 63: 0x034A [0x01] GOTO 0x0380
 64: 0x034D [0x02] IF !(Work_Zone[0] == 2*) GOTO 0x0370
 65: 0x0355 [0x02] IF !(Work_Zone[4] > 0*) GOTO 0x0364
 66: 0x035D [0x1D] PRINT_EVENT_MESSAGE(message_id=7803*)
    → "Sorry, pardner, we done exhausted our supply. Reckon you'll just have to do it the hard way..."
 67: 0x0360 [0x23] WAIT_FOR_DIALOG_INTERACTION
 68: 0x0361 [0x01] GOTO 0x036D
 69: 0x0364 [0x1D] PRINT_EVENT_MESSAGE(message_id=7800*)
    → "A dab or two o' buffalo sweat, a dab or two o' milk, and...kupo!"
 70: 0x0367 [0x23] WAIT_FOR_DIALOG_INTERACTION
 71: 0x0368 [0x03] Work_Zone[1] = 510*

SUBROUTINE_036D:
 72: 0x036D [0x01] GOTO 0x0380
 73: 0x0370 [0x02] IF !(Work_Zone[0] == 3*) GOTO 0x0380
 74: 0x0378 [0x03] Work_Zone[1] = 502*
 75: 0x037D [0x01] GOTO 0x0380

SUBROUTINE_0380:
 76: 0x0380 [0x21] END_EVENT
 77: 0x0381 [0x00] END_REQSTACK()
```

### Event 171

#### Metadata

| Field        | Value     |
|--------------|-----------|
| Entrypoint   | 0x0382    |
| Data Size    | 686 bytes |
| Instructions | 113       |

```
      00 01 02 03 04 05 06 07  08 09 0A 0B 0C 0D 0E 0F
      -- -- -- -- -- -- -- --  -- -- -- -- -- -- -- --
0380:       1E F0 FF FF 7F 1D  40 80 23 03 02 10 41 80    ......@.#...A.
0390: 03 03 10 18 80 03 04 10  42 80 03 05 10 2B 80 03  ........B....+..
03A0: 06 10 43 80 03 07 10 2F  80 03 08 10 44 80 03 09  ..C..../....D...
03B0: 10 29 80 03 00 17 45 80  03 01 17 38 80 03 02 17  .)....E....8....
03C0: 46 80 03 03 17 47 80 03  04 17 48 80 03 05 17 47  F....G....H....G
03D0: 80 03 06 17 49 80 03 07  17 47 80 24 4A 80 02 80  ....I....G.$J...
03E0: 02 80 25 02 00 10 02 80  00 EF 03 21 01 2E 06 02  ..%........!....
03F0: 00 10 03 80 00 35 04 93  41 80 1D 4B 80 23 93 02  .....5..A..K.#..
0400: 80 03 02 10 41 80 03 03  10 18 80 24 4C 80 02 80  ....A......$L...
0410: 02 80 25 02 00 10 02 80  00 21 04 01 8B 03 01 32  ..%......!.....2
0420: 04 02 00 10 03 80 00 32  04 03 01 10 4D 80 21 01  .......2....M.!.
0430: 32 04 01 2E 06 02 00 10  18 80 00 7B 04 93 42 80  2..........{..B.
0440: 1D 4E 80 23 93 02 80 03  02 10 42 80 03 03 10 2B  .N.#......B....+
0450: 80 24 4C 80 02 80 02 80  25 02 00 10 02 80 00 67  .$L.....%......g
0460: 04 01 8B 03 01 78 04 02  00 10 03 80 00 78 04 03  .....x.......x..
0470: 01 10 4F 80 21 01 78 04  01 2E 06 02 00 10 2B 80  ..O.!.x.......+.
0480: 00 C6 04 93 43 80 03 02  10 43 80 1D 50 80 23 93  ....C....C..P.#.
0490: 02 80 03 02 10 43 80 03  03 10 2F 80 24 4C 80 02  .....C..../.$L..
04A0: 80 02 80 25 02 00 10 02  80 00 B2 04 01 8B 03 01  ...%............
04B0: C3 04 02 00 10 03 80 00  C3 04 03 01 10 51 80 21  .............Q.!
04C0: 01 C3 04 01 2E 06 02 00  10 2D 80 00 11 05 93 44  .........-.....D
04D0: 80 03 02 10 41 80 1D 52  80 23 93 02 80 03 02 10  ....A..R.#......
04E0: 44 80 03 03 10 29 80 24  4C 80 02 80 02 80 25 02  D....).$L.....%.
04F0: 00 10 02 80 00 FD 04 01  8B 03 01 0E 05 02 00 10  ................
0500: 03 80 00 0E 05 03 01 10  53 80 21 01 0E 05 01 2E  ........S.!.....
0510: 06 02 00 10 2F 80 00 5C  05 93 45 80 03 02 10 45  ..../..\..E....E
0520: 80 1D 54 80 23 93 02 80  03 02 10 45 80 03 03 10  ..T.#......E....
0530: 38 80 24 4C 80 02 80 02  80 25 02 00 10 02 80 00  8.$L.....%......
0540: 48 05 01 8B 03 01 59 05  02 00 10 03 80 00 59 05  H.....Y.......Y.
0550: 03 01 10 55 80 21 01 59  05 01 2E 06 02 00 10 30  ...U.!.Y.......0
0560: 80 00 A2 05 93 46 80 1D  56 80 23 93 02 80 03 02  .....F..V.#.....
0570: 10 46 80 03 03 10 47 80  24 4C 80 02 80 02 80 25  .F....G.$L.....%
0580: 02 00 10 02 80 00 8E 05  01 8B 03 01 9F 05 02 00  ................
0590: 10 03 80 00 9F 05 03 01  10 57 80 21 01 9F 05 01  .........W.!....
05A0: 2E 06 02 00 10 32 80 00  E8 05 93 48 80 1D 58 80  .....2.....H..X.
05B0: 23 93 02 80 03 02 10 48  80 03 03 10 47 80 24 4C  #......H....G.$L
05C0: 80 02 80 02 80 25 02 00  10 02 80 00 D4 05 01 8B  .....%..........
05D0: 03 01 E5 05 02 00 10 03  80 00 E5 05 03 01 10 59  ...............Y
05E0: 80 21 01 E5 05 01 2E 06  02 00 10 34 80 00 2E 06  .!.........4....
05F0: 93 49 80 1D 5A 80 23 93  02 80 03 02 10 49 80 03  .I..Z.#......I..
0600: 03 10 47 80 24 4C 80 02  80 02 80 25 02 00 10 02  ..G.$L.....%....
0610: 80 00 1A 06 01 8B 03 01  2B 06 02 00 10 03 80 00  ........+.......
0620: 2B 06 03 01 10 5B 80 21  01 2B 06 01 2E 06 21 00  +....[.!.+....!.
```

#### Opcodes

```
  0: 0x0382 [0x1E] EventEntity looks at LocalPlayer and starts talking
  1: 0x0387 [0x1D] PRINT_EVENT_MESSAGE(message_id=7819*)
    → "You've got yerself $0 bovine [brand/brands], pardner."
  2: 0x038A [0x23] WAIT_FOR_DIALOG_INTERACTION
  3: 0x038B [0x03] Work_Zone[2] = 5733*
  4: 0x0390 [0x03] Work_Zone[3] = 2*
  5: 0x0395 [0x03] Work_Zone[4] = 16243*
  6: 0x039A [0x03] Work_Zone[5] = 3*
  7: 0x039F [0x03] Work_Zone[6] = 15455*
  8: 0x03A4 [0x03] Work_Zone[7] = 5*
  9: 0x03A9 [0x03] Work_Zone[8] = 15919*
 10: 0x03AE [0x03] Work_Zone[9] = 10*
 11: 0x03B3 [0x03] Work_Zone_1700[0] = 15456*
 12: 0x03B8 [0x03] Work_Zone_1700[1] = 20*
 13: 0x03BD [0x03] Work_Zone_1700[2] = 415*
 14: 0x03C2 [0x03] Work_Zone_1700[3] = 30*
 15: 0x03C7 [0x03] Work_Zone_1700[4] = 25604*
 16: 0x03CC [0x03] Work_Zone_1700[5] = 30*
 17: 0x03D1 [0x03] Work_Zone_1700[6] = 23806*
 18: 0x03D6 [0x03] Work_Zone_1700[7] = 30*
 19: 0x03DB [0x24] CREATE_DIALOG(message_id=7820*, default_option=0*, option_flags=0*)
    → "Trade in for a prize? [Not now./$0 ($1 brands)./$2 ($3 brands)./$4 ($5 brands)./$6 ($7 brands)./$8 ($9 brands)./$10 ($11 brands)./$12 ($13 brands)./$14 ($15 brands).]"
 20: 0x03E2 [0x25] WAIT_DIALOG_SELECT()
 21: 0x03E3 [0x02] IF !(Work_Zone[0] == 0*) GOTO 0x03EF
 22: 0x03EB [0x21] END_EVENT

SUBROUTINE_0432:
 23: 0x0432 [0x01] GOTO 0x062E
 24: 0x0435 [0x02] IF !(Work_Zone[0] == 2*) GOTO 0x047B
 25: 0x043D [0x93] DISPLAY_ITEM_INFO(item_id=16243*)
 26: 0x0440 [0x1D] PRINT_EVENT_MESSAGE(message_id=7824*)
    → "With this here stylish mantle, not only will you be the most dashin' cowhand for miles, you'll be able to dodge those blasted buffalo charges a couple'a times, to boot!"
 27: 0x0443 [0x23] WAIT_FOR_DIALOG_INTERACTION
 28: 0x0444 [0x93] DISPLAY_ITEM_INFO(item_id=0*)
 29: 0x0447 [0x03] Work_Zone[2] = 16243*
 30: 0x044C [0x03] Work_Zone[3] = 3*
 31: 0x0451 [0x24] CREATE_DIALOG(message_id=7821*, default_option=0*, option_flags=0*)
    → "Trade $1 brands for $0? [No thanks./Giddy-up!]"
 32: 0x0458 [0x25] WAIT_DIALOG_SELECT()
 33: 0x0459 [0x02] IF !(Work_Zone[0] == 0*) GOTO 0x0467
 34: 0x0461 [0x01] GOTO 0x038B

SUBROUTINE_0478:
 35: 0x0478 [0x01] GOTO 0x062E
 36: 0x047B [0x02] IF !(Work_Zone[0] == 3*) GOTO 0x04C6
 37: 0x0483 [0x93] DISPLAY_ITEM_INFO(item_id=15455*)
 38: 0x0486 [0x03] Work_Zone[2] = 15455*
 39: 0x048B [0x1D] PRINT_EVENT_MESSAGE(message_id=7826*)
    → "Handle this hot and heavy new waist attire straight from the heavy horns of the belligerent buffalo Toro himself!"
 40: 0x048E [0x23] WAIT_FOR_DIALOG_INTERACTION
 41: 0x048F [0x93] DISPLAY_ITEM_INFO(item_id=0*)
 42: 0x0492 [0x03] Work_Zone[2] = 15455*
 43: 0x0497 [0x03] Work_Zone[3] = 5*
 44: 0x049C [0x24] CREATE_DIALOG(message_id=7821*, default_option=0*, option_flags=0*)
    → "Trade $1 brands for $0? [No thanks./Giddy-up!]"
 45: 0x04A3 [0x25] WAIT_DIALOG_SELECT()
 46: 0x04A4 [0x02] IF !(Work_Zone[0] == 0*) GOTO 0x04B2
 47: 0x04AC [0x01] GOTO 0x038B

SUBROUTINE_04C3:
 48: 0x04C3 [0x01] GOTO 0x062E
 49: 0x04C6 [0x02] IF !(Work_Zone[0] == 4*) GOTO 0x0511
 50: 0x04CE [0x93] DISPLAY_ITEM_INFO(item_id=15919*)
 51: 0x04D1 [0x03] Work_Zone[2] = 5733*
 52: 0x04D6 [0x1D] PRINT_EVENT_MESSAGE(message_id=7823*)
    → "This here's a belt crafted from the finest buffalo rawhide, soaked in buffalo milk, and left to dry out under the burnin' sun. Got a bit of a foul odor, but it works just like $0."
 53: 0x04D9 [0x23] WAIT_FOR_DIALOG_INTERACTION
 54: 0x04DA [0x93] DISPLAY_ITEM_INFO(item_id=0*)
 55: 0x04DD [0x03] Work_Zone[2] = 15919*
 56: 0x04E2 [0x03] Work_Zone[3] = 10*
 57: 0x04E7 [0x24] CREATE_DIALOG(message_id=7821*, default_option=0*, option_flags=0*)
    → "Trade $1 brands for $0? [No thanks./Giddy-up!]"
 58: 0x04EE [0x25] WAIT_DIALOG_SELECT()
 59: 0x04EF [0x02] IF !(Work_Zone[0] == 0*) GOTO 0x04FD
 60: 0x04F7 [0x01] GOTO 0x038B

SUBROUTINE_050E:
 61: 0x050E [0x01] GOTO 0x062E
 62: 0x0511 [0x02] IF !(Work_Zone[0] == 5*) GOTO 0x055C
 63: 0x0519 [0x93] DISPLAY_ITEM_INFO(item_id=15456*)
 64: 0x051C [0x03] Work_Zone[2] = 15456*
 65: 0x0521 [0x1D] PRINT_EVENT_MESSAGE(message_id=7827*)
    → "Handle this hot and heavy new waist attire straight from the heavy horns of the belligerent buffalo Miura himself!"
 66: 0x0524 [0x23] WAIT_FOR_DIALOG_INTERACTION
 67: 0x0525 [0x93] DISPLAY_ITEM_INFO(item_id=0*)
 68: 0x0528 [0x03] Work_Zone[2] = 15456*
 69: 0x052D [0x03] Work_Zone[3] = 20*
 70: 0x0532 [0x24] CREATE_DIALOG(message_id=7821*, default_option=0*, option_flags=0*)
    → "Trade $1 brands for $0? [No thanks./Giddy-up!]"
 71: 0x0539 [0x25] WAIT_DIALOG_SELECT()
 72: 0x053A [0x02] IF !(Work_Zone[0] == 0*) GOTO 0x0548
 73: 0x0542 [0x01] GOTO 0x038B

SUBROUTINE_0559:
 74: 0x0559 [0x01] GOTO 0x062E
 75: 0x055C [0x02] IF !(Work_Zone[0] == 6*) GOTO 0x05A2
 76: 0x0564 [0x93] DISPLAY_ITEM_INFO(item_id=415*)
 77: 0x0567 [0x1D] PRINT_EVENT_MESSAGE(message_id=7825*)
    → "This here's a limited-edition Buffalo Bonanza Ranch cowhorn. It's just a li'l decorative doodad, so it don't make no sound, but word has it that it can make you as rich as a gold mine!"
 78: 0x056A [0x23] WAIT_FOR_DIALOG_INTERACTION
 79: 0x056B [0x93] DISPLAY_ITEM_INFO(item_id=0*)
 80: 0x056E [0x03] Work_Zone[2] = 415*
 81: 0x0573 [0x03] Work_Zone[3] = 30*
 82: 0x0578 [0x24] CREATE_DIALOG(message_id=7821*, default_option=0*, option_flags=0*)
    → "Trade $1 brands for $0? [No thanks./Giddy-up!]"
 83: 0x057F [0x25] WAIT_DIALOG_SELECT()
 84: 0x0580 [0x02] IF !(Work_Zone[0] == 0*) GOTO 0x058E
 85: 0x0588 [0x01] GOTO 0x038B

SUBROUTINE_059F:
 86: 0x059F [0x01] GOTO 0x062E
 87: 0x05A2 [0x02] IF !(Work_Zone[0] == 7*) GOTO 0x05E8
 88: 0x05AA [0x93] DISPLAY_ITEM_INFO(item_id=25604*)
 89: 0x05AD [0x1D] PRINT_EVENT_MESSAGE(message_id=7828*)
    → "Our wonderful workers of hide have fashioned this fantastic cap that can turn you into a buffalo calf, kupo!"
 90: 0x05B0 [0x23] WAIT_FOR_DIALOG_INTERACTION
 91: 0x05B1 [0x93] DISPLAY_ITEM_INFO(item_id=0*)
 92: 0x05B4 [0x03] Work_Zone[2] = 25604*
 93: 0x05B9 [0x03] Work_Zone[3] = 30*
 94: 0x05BE [0x24] CREATE_DIALOG(message_id=7821*, default_option=0*, option_flags=0*)
    → "Trade $1 brands for $0? [No thanks./Giddy-up!]"
 95: 0x05C5 [0x25] WAIT_DIALOG_SELECT()
 96: 0x05C6 [0x02] IF !(Work_Zone[0] == 0*) GOTO 0x05D4
 97: 0x05CE [0x01] GOTO 0x038B

SUBROUTINE_05E5:
 98: 0x05E5 [0x01] GOTO 0x062E
 99: 0x05E8 [0x02] IF !(Work_Zone[0] == 8*) GOTO 0x062E
100: 0x05F0 [0x93] DISPLAY_ITEM_INFO(item_id=23806*)
101: 0x05F3 [0x1D] PRINT_EVENT_MESSAGE(message_id=7829*)
    → "This conspicuously convenient cap was crafted by a masterful Moogle weaver and inexplicably increases the amount of time you can ride your mount, kupo!"
102: 0x05F6 [0x23] WAIT_FOR_DIALOG_INTERACTION
103: 0x05F7 [0x93] DISPLAY_ITEM_INFO(item_id=0*)
104: 0x05FA [0x03] Work_Zone[2] = 23806*
105: 0x05FF [0x03] Work_Zone[3] = 30*
106: 0x0604 [0x24] CREATE_DIALOG(message_id=7821*, default_option=0*, option_flags=0*)
    → "Trade $1 brands for $0? [No thanks./Giddy-up!]"
107: 0x060B [0x25] WAIT_DIALOG_SELECT()
108: 0x060C [0x02] IF !(Work_Zone[0] == 0*) GOTO 0x061A
109: 0x0614 [0x01] GOTO 0x038B

SUBROUTINE_062B:
110: 0x062B [0x01] GOTO 0x062E

SUBROUTINE_062E:
111: 0x062E [0x21] END_EVENT
112: 0x062F [0x00] END_REQSTACK()
```

#### Data or dead code:

```
# Dead code (unreachable instructions):
     0x03EC [0x01] GOTO 0x062E
     0x041E [0x01] GOTO 0x0432
     0x042F [0x01] GOTO 0x0432
# Dead code (unreachable instructions):
     0x0464 [0x01] GOTO 0x0478
     0x0475 [0x01] GOTO 0x0478
# Dead code (unreachable instructions):
     0x04AF [0x01] GOTO 0x04C3
     0x04C0 [0x01] GOTO 0x04C3
# Dead code (unreachable instructions):
     0x04FA [0x01] GOTO 0x050E
     0x050B [0x01] GOTO 0x050E
# Dead code (unreachable instructions):
     0x0545 [0x01] GOTO 0x0559
     0x0556 [0x01] GOTO 0x0559
# Dead code (unreachable instructions):
     0x058B [0x01] GOTO 0x059F
     0x059C [0x01] GOTO 0x059F
# Dead code (unreachable instructions):
     0x05D1 [0x01] GOTO 0x05E5
     0x05E2 [0x01] GOTO 0x05E5
# Dead code (unreachable instructions):
     0x0617 [0x01] GOTO 0x062B
     0x0628 [0x01] GOTO 0x062B
```

### Event 177

#### Metadata

| Field        | Value    |
|--------------|----------|
| Entrypoint   | 0x0630   |
| Data Size    | 26 bytes |
| Instructions | 7        |

```
      00 01 02 03 04 05 06 07  08 09 0A 0B 0C 0D 0E 0F
      -- -- -- -- -- -- -- --  -- -- -- -- -- -- -- --
0630: 1E F0 FF FF 7F 24 3D 80  02 80 02 80 25 02 00 10  .....$=.....%...
0640: 02 80 00 48 06 01 48 06  21 00                    ...H..H.!.      
```

#### Opcodes

```
  0: 0x0630 [0x1E] EventEntity looks at LocalPlayer and starts talking
  1: 0x0635 [0x24] CREATE_DIALOG(message_id=7817*, default_option=0*, option_flags=0*)
    → "How goes it, pardner? [Keep on herdin'./Ask about the buffalo./Get the mother's scent./Mosey on home.]"
  2: 0x063C [0x25] WAIT_DIALOG_SELECT()
  3: 0x063D [0x02] IF !(Work_Zone[0] == 0*) GOTO 0x0648
  4: 0x0645 [0x01] GOTO 0x0648

SUBROUTINE_0648:
  5: 0x0648 [0x21] END_EVENT
  6: 0x0649 [0x00] END_REQSTACK()
```

### Event 178

#### Metadata

| Field        | Value     |
|--------------|-----------|
| Entrypoint   | 0x064A    |
| Data Size    | 978 bytes |
| Instructions | 4         |

```
      00 01 02 03 04 05 06 07  08 09 0A 0B 0C 0D 0E 0F
      -- -- -- -- -- -- -- --  -- -- -- -- -- -- -- --
0640:                                1D 5C 80 23 21 00            .\.#!.
0650: 03 05 10 2F 80 1D 5D 80  23 1D 5E 80 23 1D 5F 80  .../..].#.^.#._.
0660: 23 1D 60 80 23 1D 61 80  23 1D 62 80 23 1D 63 80  #.`.#.a.#.b.#.c.
0670: 23 1D 64 80 23 1B 02 00  00 02 80 80 91 06 9D 01  #.d.#...........
0680: BC 09 03 17 2B 80 9D 01  BC 09 06 17 2B 80 01 BB  ....+.......+...
0690: 09 02 00 00 03 80 80 AC  06 9D 01 BC 09 03 17 02  ................
06A0: 80 9D 01 BC 09 06 17 2B  80 01 BB 09 02 00 00 18  .......+........
06B0: 80 80 C7 06 9D 01 BC 09  03 17 03 80 9D 01 BC 09  ................
06C0: 06 17 2B 80 01 BB 09 02  00 00 2B 80 80 E2 06 9D  ..+.......+.....
06D0: 01 BC 09 03 17 03 80 9D  01 BC 09 06 17 2B 80 01  .............+..
06E0: BB 09 02 00 00 2D 80 80  FD 06 9D 01 BC 09 03 17  .....-..........
06F0: 03 80 9D 01 BC 09 06 17  2B 80 01 BB 09 02 00 00  ........+.......
0700: 2F 80 80 18 07 9D 01 BC  09 03 17 18 80 9D 01 BC  /...............
0710: 09 06 17 2B 80 01 BB 09  02 00 00 30 80 80 33 07  ...+.......0..3.
0720: 9D 01 BC 09 03 17 18 80  9D 01 BC 09 06 17 2B 80  ..............+.
0730: 01 BB 09 02 00 00 32 80  80 4E 07 9D 01 BC 09 03  ......2..N......
0740: 17 18 80 9D 01 BC 09 06  17 2B 80 01 BB 09 02 00  .........+......
0750: 00 34 80 80 69 07 9D 01  BC 09 03 17 18 80 9D 01  .4..i...........
0760: BC 09 06 17 2B 80 01 BB  09 02 00 00 28 80 80 84  ....+.......(...
0770: 07 9D 01 BC 09 03 17 18  80 9D 01 BC 09 06 17 2B  ...............+
0780: 80 01 BB 09 02 00 00 29  80 80 9F 07 9D 01 BC 09  .......)........
0790: 03 17 18 80 9D 01 BC 09  06 17 2B 80 01 BB 09 02  ..........+.....
07A0: 00 00 2A 80 80 BA 07 9D  01 BC 09 03 17 02 80 9D  ..*.............
07B0: 01 BC 09 06 17 2D 80 01  BB 09 02 00 00 2C 80 80  .....-.......,..
07C0: D5 07 9D 01 BC 09 03 17  03 80 9D 01 BC 09 06 17  ................
07D0: 2D 80 01 BB 09 02 00 00  2E 80 80 F0 07 9D 01 BC  -...............
07E0: 09 03 17 03 80 9D 01 BC  09 06 17 2D 80 01 BB 09  ...........-....
07F0: 02 00 00 65 80 80 0B 08  9D 01 BC 09 03 17 03 80  ...e............
0800: 9D 01 BC 09 06 17 2D 80  01 BB 09 02 00 00 31 80  ......-.......1.
0810: 80 26 08 9D 01 BC 09 03  17 18 80 9D 01 BC 09 06  .&..............
0820: 17 2D 80 01 BB 09 02 00  00 33 80 80 41 08 9D 01  .-.......3..A...
0830: BC 09 03 17 18 80 9D 01  BC 09 06 17 2D 80 01 BB  ............-...
0840: 09 02 00 00 35 80 80 5C  08 9D 01 BC 09 03 17 18  ....5..\........
0850: 80 9D 01 BC 09 06 17 2D  80 01 BB 09 02 00 00 36  .......-.......6
0860: 80 80 77 08 9D 01 BC 09  03 17 18 80 9D 01 BC 09  ..w.............
0870: 06 17 2D 80 01 BB 09 02  00 00 37 80 80 92 08 9D  ..-.......7.....
0880: 01 BC 09 03 17 18 80 9D  01 BC 09 06 17 2D 80 01  .............-..
0890: BB 09 02 00 00 38 80 80  AD 08 9D 01 BC 09 03 17  .....8..........
08A0: 18 80 9D 01 BC 09 06 17  2D 80 01 BB 09 02 00 00  ........-.......
08B0: 66 80 80 C8 08 9D 01 BC  09 03 17 02 80 9D 01 BC  f...............
08C0: 09 06 17 2F 80 01 BB 09  02 00 00 67 80 80 E3 08  .../.......g....
08D0: 9D 01 BC 09 03 17 03 80  9D 01 BC 09 06 17 2F 80  ............../.
08E0: 01 BB 09 02 00 00 68 80  80 FE 08 9D 01 BC 09 03  ......h.........
08F0: 17 03 80 9D 01 BC 09 06  17 2F 80 01 BB 09 02 00  ........./......
0900: 00 69 80 80 19 09 9D 01  BC 09 03 17 03 80 9D 01  .i..............
0910: BC 09 06 17 2F 80 01 BB  09 02 00 00 6A 80 80 34  ..../.......j..4
0920: 09 9D 01 BC 09 03 17 18  80 9D 01 BC 09 06 17 2F  .............../
0930: 80 01 BB 09 02 00 00 6B  80 80 4F 09 9D 01 BC 09  .......k..O.....
0940: 03 17 18 80 9D 01 BC 09  06 17 2F 80 01 BB 09 02  ........../.....
0950: 00 00 6C 80 80 6A 09 9D  01 BC 09 03 17 18 80 9D  ..l..j..........
0960: 01 BC 09 06 17 2F 80 01  BB 09 02 00 00 6D 80 80  ...../.......m..
0970: 85 09 9D 01 BC 09 03 17  18 80 9D 01 BC 09 06 17  ................
0980: 2F 80 01 BB 09 02 00 00  6E 80 80 A0 09 9D 01 BC  /.......n.......
0990: 09 03 17 18 80 9D 01 BC  09 06 17 2F 80 01 BB 09  .........../....
09A0: 02 00 00 47 80 80 BB 09  9D 01 BC 09 03 17 18 80  ...G............
09B0: 9D 01 BC 09 06 17 2F 80  01 BB 09 1B 42 75 6C 6C  ....../.....Bull
09C0: 00 00 00 00 00 00 00 00  00 00 00 00 43 6F 77 00  ............Cow.
09D0: 00 00 00 00 00 00 00 00  00 00 00 00 43 61 6C 66  ............Calf
09E0: 00 00 00 00 00 00 00 00  00 00 00 00 5B 48 65 72  ............[Her
09F0: 64 31 5D 00 00 00 00 00  00 00 00 00 5B 48 65 72  d1].........[Her
0A00: 64 32 5D 00 00 00 00 00  00 00 00 00 5B 48 65 72  d2].........[Her
0A10: 64 33 5D 00 00 00 00 00  00 00 00 00              d3].........    
```

#### Opcodes

```
  0: 0x064A [0x1D] PRINT_EVENT_MESSAGE(message_id=7815*)
    → "Ain't got the time for that now, pardner... We've got a stampede on our hands! We'd be much obliged if you could help us rustle up these buffalo, pardner. Go talk to my compadre by the city gates if yer interested."
  1: 0x064D [0x23] WAIT_FOR_DIALOG_INTERACTION
  2: 0x064E [0x21] END_EVENT
  3: 0x064F [0x00] END_REQSTACK()
```

#### Data or dead code:

```
# Dead code (unreachable instructions):
     0x0650 [0x03] Work_Zone[5] = 5*
     0x0655 [0x1D] PRINT_EVENT_MESSAGE(message_id=7790*)
    → "The big beastly ones are the bulls, the bosses o' the herds. The midsized ones are the mother cows, and the li'l-bittiest ones are the baby calves."
     0x0658 [0x23] WAIT_FOR_DIALOG_INTERACTION
     0x0659 [0x1D] PRINT_EVENT_MESSAGE(message_id=7791*)
    → "The calves are sweet little thangs. Don't even have to hypnotize 'em; they'll follow their mother's scent just 'bout anywhere."
     0x065C [0x23] WAIT_FOR_DIALOG_INTERACTION
     0x065D [0x1D] PRINT_EVENT_MESSAGE(message_id=7792*)
    → "By the by, we got ourselves a bottle o' Eau de Buffalo here. We moogle cowpokes use it to disguise ourselves with the mother buffalo's scent. It's only got $3 [dose/doses] left, but they're all yours, pardner."
     0x0660 [0x23] WAIT_FOR_DIALOG_INTERACTION
     0x0661 [0x1D] PRINT_EVENT_MESSAGE(message_id=7793*)
    → "'Course, there ain't no need to fret if it runs out. Just brush yerself up against one of the mama cows and you'll get a natural shot of Eau de Buffalo just like that."
     0x0664 [0x23] WAIT_FOR_DIALOG_INTERACTION
     0x0665 [0x1D] PRINT_EVENT_MESSAGE(message_id=7794*)
    → "But you'd best be careful, 'cause they be some hot-tempered heifers, y'hear? You'll be wantin' to sneak up on them from behind, all careful-like, to avoid their charge."
     0x0668 [0x23] WAIT_FOR_DIALOG_INTERACTION
     0x0669 [0x1D] PRINT_EVENT_MESSAGE(message_id=7795*)
    → "As for the bulls, I'm quakin' in my boots just thinkin' 'bout 'em. They're the nastiest, most foul-tempered beasts this ol' cowhand's ever laid eyes upon. You'll be wantin' to steer clear of 'em and stick to roundin' up the cows and calves, kupo."
     0x066C [0x23] WAIT_FOR_DIALOG_INTERACTION
     0x066D [0x1D] PRINT_EVENT_MESSAGE(message_id=7796*)
    → "And don't you be forgettin' that these buffaloes, they always act as a herd, y'hear? So don't go mixin' the herds, or we'll have a right ruckus on our hands."
     0x0670 [0x23] WAIT_FOR_DIALOG_INTERACTION
     0x0671 [0x1D] PRINT_EVENT_MESSAGE(message_id=7797*)
    → "And you'd best take care to keep the chigoes away, too. One li'l bite from them and the buffalo will really start goin' loco, I reckon."
     0x0674 [0x23] WAIT_FOR_DIALOG_INTERACTION
     0x0675 [0x1B] RETURN
     0x0676 [0x02] IF !(ExtData[1]->WorkLocal[0] == 0*) GOTO 0x0691
     0x067E [0x9D] 3* = EventData[0x09BC + Work_Zone_1700[3]] // Copy 16-byte string
     0x0686 [0x9D] 3* = EventData[0x09BC + Work_Zone_1700[6]] // Copy 16-byte string
     0x068E [0x01] GOTO 0x09BB
     0x0691 [0x02] IF !(ExtData[1]->WorkLocal[0] == 1*) GOTO 0x06AC
     0x0699 [0x9D] 0* = EventData[0x09BC + Work_Zone_1700[3]] // Copy 16-byte string
     0x06A1 [0x9D] 3* = EventData[0x09BC + Work_Zone_1700[6]] // Copy 16-byte string
     0x06A9 [0x01] GOTO 0x09BB
     0x06AC [0x02] IF !(ExtData[1]->WorkLocal[0] == 2*) GOTO 0x06C7
     0x06B4 [0x9D] 1* = EventData[0x09BC + Work_Zone_1700[3]] // Copy 16-byte string
     0x06BC [0x9D] 3* = EventData[0x09BC + Work_Zone_1700[6]] // Copy 16-byte string
     0x06C4 [0x01] GOTO 0x09BB
     0x06C7 [0x02] IF !(ExtData[1]->WorkLocal[0] == 3*) GOTO 0x06E2
     0x06CF [0x9D] 1* = EventData[0x09BC + Work_Zone_1700[3]] // Copy 16-byte string
     0x06D7 [0x9D] 3* = EventData[0x09BC + Work_Zone_1700[6]] // Copy 16-byte string
     0x06DF [0x01] GOTO 0x09BB
     0x06E2 [0x02] IF !(ExtData[1]->WorkLocal[0] == 4*) GOTO 0x06FD
     0x06EA [0x9D] 1* = EventData[0x09BC + Work_Zone_1700[3]] // Copy 16-byte string
     0x06F2 [0x9D] 3* = EventData[0x09BC + Work_Zone_1700[6]] // Copy 16-byte string
     0x06FA [0x01] GOTO 0x09BB
     0x06FD [0x02] IF !(ExtData[1]->WorkLocal[0] == 5*) GOTO 0x0718
     0x0705 [0x9D] 2* = EventData[0x09BC + Work_Zone_1700[3]] // Copy 16-byte string
     0x070D [0x9D] 3* = EventData[0x09BC + Work_Zone_1700[6]] // Copy 16-byte string
     0x0715 [0x01] GOTO 0x09BB
     0x0718 [0x02] IF !(ExtData[1]->WorkLocal[0] == 6*) GOTO 0x0733
     0x0720 [0x9D] 2* = EventData[0x09BC + Work_Zone_1700[3]] // Copy 16-byte string
     0x0728 [0x9D] 3* = EventData[0x09BC + Work_Zone_1700[6]] // Copy 16-byte string
     0x0730 [0x01] GOTO 0x09BB
     0x0733 [0x02] IF !(ExtData[1]->WorkLocal[0] == 7*) GOTO 0x074E
     0x073B [0x9D] 2* = EventData[0x09BC + Work_Zone_1700[3]] // Copy 16-byte string
     0x0743 [0x9D] 3* = EventData[0x09BC + Work_Zone_1700[6]] // Copy 16-byte string
     0x074B [0x01] GOTO 0x09BB
     0x074E [0x02] IF !(ExtData[1]->WorkLocal[0] == 8*) GOTO 0x0769
     0x0756 [0x9D] 2* = EventData[0x09BC + Work_Zone_1700[3]] // Copy 16-byte string
     0x075E [0x9D] 3* = EventData[0x09BC + Work_Zone_1700[6]] // Copy 16-byte string
     0x0766 [0x01] GOTO 0x09BB
     0x0769 [0x02] IF !(ExtData[1]->WorkLocal[0] == 9*) GOTO 0x0784
     0x0771 [0x9D] 2* = EventData[0x09BC + Work_Zone_1700[3]] // Copy 16-byte string
     0x0779 [0x9D] 3* = EventData[0x09BC + Work_Zone_1700[6]] // Copy 16-byte string
     0x0781 [0x01] GOTO 0x09BB
     0x0784 [0x02] IF !(ExtData[1]->WorkLocal[0] == 10*) GOTO 0x079F
     0x078C [0x9D] 2* = EventData[0x09BC + Work_Zone_1700[3]] // Copy 16-byte string
     0x0794 [0x9D] 3* = EventData[0x09BC + Work_Zone_1700[6]] // Copy 16-byte string
     0x079C [0x01] GOTO 0x09BB
     0x079F [0x02] IF !(ExtData[1]->WorkLocal[0] == 11*) GOTO 0x07BA
     0x07A7 [0x9D] 0* = EventData[0x09BC + Work_Zone_1700[3]] // Copy 16-byte string
     0x07AF [0x9D] 4* = EventData[0x09BC + Work_Zone_1700[6]] // Copy 16-byte string
     0x07B7 [0x01] GOTO 0x09BB
     0x07BA [0x02] IF !(ExtData[1]->WorkLocal[0] == 12*) GOTO 0x07D5
     0x07C2 [0x9D] 1* = EventData[0x09BC + Work_Zone_1700[3]] // Copy 16-byte string
     0x07CA [0x9D] 4* = EventData[0x09BC + Work_Zone_1700[6]] // Copy 16-byte string
     0x07D2 [0x01] GOTO 0x09BB
     0x07D5 [0x02] IF !(ExtData[1]->WorkLocal[0] == 13*) GOTO 0x07F0
     0x07DD [0x9D] 1* = EventData[0x09BC + Work_Zone_1700[3]] // Copy 16-byte string
     0x07E5 [0x9D] 4* = EventData[0x09BC + Work_Zone_1700[6]] // Copy 16-byte string
     0x07ED [0x01] GOTO 0x09BB
     0x07F0 [0x02] IF !(ExtData[1]->WorkLocal[0] == 14*) GOTO 0x080B
     0x07F8 [0x9D] 1* = EventData[0x09BC + Work_Zone_1700[3]] // Copy 16-byte string
     0x0800 [0x9D] 4* = EventData[0x09BC + Work_Zone_1700[6]] // Copy 16-byte string
     0x0808 [0x01] GOTO 0x09BB
     0x080B [0x02] IF !(ExtData[1]->WorkLocal[0] == 15*) GOTO 0x0826
     0x0813 [0x9D] 2* = EventData[0x09BC + Work_Zone_1700[3]] // Copy 16-byte string
     0x081B [0x9D] 4* = EventData[0x09BC + Work_Zone_1700[6]] // Copy 16-byte string
     0x0823 [0x01] GOTO 0x09BB
     0x0826 [0x02] IF !(ExtData[1]->WorkLocal[0] == 16*) GOTO 0x0841
     0x082E [0x9D] 2* = EventData[0x09BC + Work_Zone_1700[3]] // Copy 16-byte string
     0x0836 [0x9D] 4* = EventData[0x09BC + Work_Zone_1700[6]] // Copy 16-byte string
     0x083E [0x01] GOTO 0x09BB
     0x0841 [0x02] IF !(ExtData[1]->WorkLocal[0] == 17*) GOTO 0x085C
     0x0849 [0x9D] 2* = EventData[0x09BC + Work_Zone_1700[3]] // Copy 16-byte string
     0x0851 [0x9D] 4* = EventData[0x09BC + Work_Zone_1700[6]] // Copy 16-byte string
     0x0859 [0x01] GOTO 0x09BB
     0x085C [0x02] IF !(ExtData[1]->WorkLocal[0] == 18*) GOTO 0x0877
     0x0864 [0x9D] 2* = EventData[0x09BC + Work_Zone_1700[3]] // Copy 16-byte string
     0x086C [0x9D] 4* = EventData[0x09BC + Work_Zone_1700[6]] // Copy 16-byte string
     0x0874 [0x01] GOTO 0x09BB
     0x0877 [0x02] IF !(ExtData[1]->WorkLocal[0] == 19*) GOTO 0x0892
     0x087F [0x9D] 2* = EventData[0x09BC + Work_Zone_1700[3]] // Copy 16-byte string
     0x0887 [0x9D] 4* = EventData[0x09BC + Work_Zone_1700[6]] // Copy 16-byte string
     0x088F [0x01] GOTO 0x09BB
     0x0892 [0x02] IF !(ExtData[1]->WorkLocal[0] == 20*) GOTO 0x08AD
     0x089A [0x9D] 2* = EventData[0x09BC + Work_Zone_1700[3]] // Copy 16-byte string
     0x08A2 [0x9D] 4* = EventData[0x09BC + Work_Zone_1700[6]] // Copy 16-byte string
     0x08AA [0x01] GOTO 0x09BB
     0x08AD [0x02] IF !(ExtData[1]->WorkLocal[0] == 21*) GOTO 0x08C8
     0x08B5 [0x9D] 0* = EventData[0x09BC + Work_Zone_1700[3]] // Copy 16-byte string
     0x08BD [0x9D] 5* = EventData[0x09BC + Work_Zone_1700[6]] // Copy 16-byte string
     0x08C5 [0x01] GOTO 0x09BB
     0x08C8 [0x02] IF !(ExtData[1]->WorkLocal[0] == 22*) GOTO 0x08E3
     0x08D0 [0x9D] 1* = EventData[0x09BC + Work_Zone_1700[3]] // Copy 16-byte string
     0x08D8 [0x9D] 5* = EventData[0x09BC + Work_Zone_1700[6]] // Copy 16-byte string
     0x08E0 [0x01] GOTO 0x09BB
     0x08E3 [0x02] IF !(ExtData[1]->WorkLocal[0] == 23*) GOTO 0x08FE
     0x08EB [0x9D] 1* = EventData[0x09BC + Work_Zone_1700[3]] // Copy 16-byte string
     0x08F3 [0x9D] 5* = EventData[0x09BC + Work_Zone_1700[6]] // Copy 16-byte string
     0x08FB [0x01] GOTO 0x09BB
     0x08FE [0x02] IF !(ExtData[1]->WorkLocal[0] == 24*) GOTO 0x0919
     0x0906 [0x9D] 1* = EventData[0x09BC + Work_Zone_1700[3]] // Copy 16-byte string
     0x090E [0x9D] 5* = EventData[0x09BC + Work_Zone_1700[6]] // Copy 16-byte string
     0x0916 [0x01] GOTO 0x09BB
     0x0919 [0x02] IF !(ExtData[1]->WorkLocal[0] == 25*) GOTO 0x0934
     0x0921 [0x9D] 2* = EventData[0x09BC + Work_Zone_1700[3]] // Copy 16-byte string
     0x0929 [0x9D] 5* = EventData[0x09BC + Work_Zone_1700[6]] // Copy 16-byte string
     0x0931 [0x01] GOTO 0x09BB
     0x0934 [0x02] IF !(ExtData[1]->WorkLocal[0] == 26*) GOTO 0x094F
     0x093C [0x9D] 2* = EventData[0x09BC + Work_Zone_1700[3]] // Copy 16-byte string
     0x0944 [0x9D] 5* = EventData[0x09BC + Work_Zone_1700[6]] // Copy 16-byte string
     0x094C [0x01] GOTO 0x09BB
     0x094F [0x02] IF !(ExtData[1]->WorkLocal[0] == 27*) GOTO 0x096A
     0x0957 [0x9D] 2* = EventData[0x09BC + Work_Zone_1700[3]] // Copy 16-byte string
     0x095F [0x9D] 5* = EventData[0x09BC + Work_Zone_1700[6]] // Copy 16-byte string
     0x0967 [0x01] GOTO 0x09BB
     0x096A [0x02] IF !(ExtData[1]->WorkLocal[0] == 28*) GOTO 0x0985
     0x0972 [0x9D] 2* = EventData[0x09BC + Work_Zone_1700[3]] // Copy 16-byte string
     0x097A [0x9D] 5* = EventData[0x09BC + Work_Zone_1700[6]] // Copy 16-byte string
     0x0982 [0x01] GOTO 0x09BB
     0x0985 [0x02] IF !(ExtData[1]->WorkLocal[0] == 29*) GOTO 0x09A0
     0x098D [0x9D] 2* = EventData[0x09BC + Work_Zone_1700[3]] // Copy 16-byte string
     0x0995 [0x9D] 5* = EventData[0x09BC + Work_Zone_1700[6]] // Copy 16-byte string
     0x099D [0x01] GOTO 0x09BB
     0x09A0 [0x02] IF !(ExtData[1]->WorkLocal[0] == 30*) GOTO 0x09BB
     0x09A8 [0x9D] 2* = EventData[0x09BC + Work_Zone_1700[3]] // Copy 16-byte string
     0x09B0 [0x9D] 5* = EventData[0x09BC + Work_Zone_1700[6]] // Copy 16-byte string
     0x09B8 [0x01] GOTO 0x09BB
     0x09BB [0x1B] RETURN
     0x09BC [0x42] SET_CLI_EVENT_CANCEL_DATA()
     0x09BD [0x75] LOAD_ROOM(Unknown mode 108, room=0x6C)
     0x09C1 [0x00] END_REQSTACK()
     0x09C2 [0x00] END_REQSTACK()
     0x09C3 [0x00] END_REQSTACK()
     0x09C4 [0x00] END_REQSTACK()
     0x09C5 [0x00] END_REQSTACK()
     0x09C6 [0x00] END_REQSTACK()
     0x09C7 [0x00] END_REQSTACK()
     0x09C8 [0x00] END_REQSTACK()
     0x09C9 [0x00] END_REQSTACK()
     0x09CA [0x00] END_REQSTACK()
     0x09CB [0x00] END_REQSTACK()
     0x09CC [0x43] SEND_EVENT_UPDATE: Update flag 0x6F
     0x09CE [0x77] SET_EVENT_TIME_WEATHER(hour=ExtData[1]->WorkLocal[0], weather=ExtData[1]->WorkLocal[0])
     0x09D3 [0x00] END_REQSTACK()
     0x09D4 [0x00] END_REQSTACK()
     0x09D5 [0x00] END_REQSTACK()
     0x09D6 [0x00] END_REQSTACK()
     0x09D7 [0x00] END_REQSTACK()
     0x09D8 [0x00] END_REQSTACK()
     0x09D9 [0x00] END_REQSTACK()
     0x09DA [0x00] END_REQSTACK()
     0x09DB [0x00] END_REQSTACK()
     0x09DC [0x43] SEND_EVENT_UPDATE: Update flag 0x61
     0x09DE [0x6C] FADE_ENTITY_COLOR(entity_id=Unknown NPC (ID: 102/0x00000066), end_alpha=ExtData[1]->WorkLocal[0], fade_time=ExtData[1]->WorkLocal[0])
     0x09E7 [0x00] END_REQSTACK()
     0x09E8 [0x00] END_REQSTACK()
     0x09E9 [0x00] END_REQSTACK()
     0x09EA [0x00] END_REQSTACK()
     0x09EB [0x00] END_REQSTACK()
     0x09EC [0x5B] LOAD_EXT_SCHEDULER: Load scheduler 0x00000000 with entities [Unknown NPC (ID: 1563518066/0x5D316472), Unknown NPC (ID: 0/0x00000000)], work=0x6548
     0x09FB [0x00] END_REQSTACK()
     0x09FC [0x5B] LOAD_EXT_SCHEDULER: Load scheduler 0x00000000 with entities [Unknown NPC (ID: 1563583602/0x5D326472), Unknown NPC (ID: 0/0x00000000)], work=0x6548
     0x0A0B [0x00] END_REQSTACK()
     0x0A0C [0x5B] LOAD_EXT_SCHEDULER: Load scheduler 0x00000000 with entities [Unknown NPC (ID: 1563649138/0x5D336472), Unknown NPC (ID: 0/0x00000000)], work=0x6548
     0x0A1B [0x00] END_REQSTACK()
```
