# 17253089 - 1

## Common Data

| Field            | Value                       |
|------------------|-----------------------------|
| Zone             | East Sarutabaruta (ID: 116) |
| Block Size       | 100 bytes                   |
| Total Events     | 4                           |
| References Count | 2                           |

## List of Events

| Event ID                 | Entrypoint   |   Size |   Instructions |
|--------------------------|--------------|--------|----------------|
| [65535](#event-65535)    | 0x0000       |      1 |              1 |
| [71](#event-71)          | 0x0001       |      1 |              1 |
| [65535.1](#event-655351) | 0x0002       |     24 |              5 |
| [65535.2](#event-655352) | 0x001A       |     33 |              3 |

## DAT References (imed_data)

|   Index | Hex Value   |   Dec Value |
|---------|-------------|-------------|
|       0 | 0x0000      |           0 |
|       1 | 0x00CA      |         202 |

## Events

### Event 65535

#### Metadata

| Field        | Value   |
|--------------|---------|
| Entrypoint   | 0x0000  |
| Data Size    | 1 bytes |
| Instructions | 1       |

```
      00 01 02 03 04 05 06 07  08 09 0A 0B 0C 0D 0E 0F
      -- -- -- -- -- -- -- --  -- -- -- -- -- -- -- --
0000: 00                                                .               
```

#### Opcodes

```
  0: 0x0000 [0x00] END_REQSTACK()
```

### Event 71

#### Metadata

| Field        | Value   |
|--------------|---------|
| Entrypoint   | 0x0001  |
| Data Size    | 1 bytes |
| Instructions | 1       |

```
      00 01 02 03 04 05 06 07  08 09 0A 0B 0C 0D 0E 0F
      -- -- -- -- -- -- -- --  -- -- -- -- -- -- -- --
0000:    00                                              .              
```

#### Opcodes

```
  0: 0x0001 [0x00] END_REQSTACK()
```

### Event 65535.1

#### Metadata

| Field        | Value    |
|--------------|----------|
| Entrypoint   | 0x0002   |
| Data Size    | 24 bytes |
| Instructions | 5        |

```
      00 01 02 03 04 05 06 07  08 09 0A 0B 0C 0D 0E 0F
      -- -- -- -- -- -- -- --  -- -- -- -- -- -- -- --
0000:       22 00 92 01 F8 FF  FF 7F 94 01 F8 FF FF 7F    ".............
0010: 6C F8 FF FF 7F 00 80 00  80 00                    l.........      
```

#### Opcodes

```
  0: 0x0002 [0x22] ENTITY_HIDE_FLAG(enabled=0x00)
  1: 0x0004 [0x92] EventEntity->Render.Flags3 ^= 0x01
  2: 0x000A [0x94] EventEntity->Render.Flags3 ^= 0x01
  3: 0x0010 [0x6C] FADE_ENTITY_COLOR(entity_id=EventEntity, end_alpha=0*, fade_time=0*)
  4: 0x0019 [0x00] END_REQSTACK()
```

### Event 65535.2

#### Metadata

| Field        | Value    |
|--------------|----------|
| Entrypoint   | 0x001A   |
| Data Size    | 33 bytes |
| Instructions | 3        |

```
      00 01 02 03 04 05 06 07  08 09 0A 0B 0C 0D 0E 0F
      -- -- -- -- -- -- -- --  -- -- -- -- -- -- -- --
0010:                                C5 01 80 F8 FF FF            ......
0020: 7F DF 42 07 01 73 30 30  30 00 80 C6 01 80 F8 FF  ..B..s000.......
0030: FF 7F DF 42 07 01 73 30  30 30 00                 ...B..s000.     
```

#### Opcodes

```
  0: 0x001A [0xC5] LOAD_SCHEDULED_TASK_ALT3: Load scheduler 0x80003030 for entities [EventEntity, Moogle (ID: 17253087/0x010742DF)], work=202*, param=12403
  1: 0x002B [0xC6] WAIT_LOAD_SCHEDULER_ALT3: Wait for scheduler "s000" with entities [EventEntity, Moogle (ID: 17253087/0x010742DF)], work=202*
  2: 0x003A [0x00] END_REQSTACK()
```
