# 17253126

## Common Data

| Field            | Value                       |
|------------------|-----------------------------|
| Zone             | East Sarutabaruta (ID: 116) |
| Block Size       | 544 bytes                   |
| Total Events     | 2                           |
| References Count | 30                          |

## List of Events

| Event ID              | Entrypoint   |   Size |   Instructions |
|-----------------------|--------------|--------|----------------|
| [65535](#event-65535) | 0x0000       |      1 |              1 |
| [908](#event-908)     | 0x0001       |    397 |             86 |

## DAT References (imed_data)

|   Index | Hex Value   |   Dec Value |
|---------|-------------|-------------|
|       0 | 0x0002      |           2 |
|       1 | 0x0000      |           0 |
|       2 | 0x2EE7      |       12007 |
|       3 | 0x0001      |           1 |
|       4 | 0x2EE8      |       12008 |
|       5 | 0x2EE9      |       12009 |
|       6 | 0x2EEA      |       12010 |
|       7 | 0x2EEB      |       12011 |
|       8 | 0x2EEC      |       12012 |
|       9 | 0x2EED      |       12013 |
|      10 | 0x2EEE      |       12014 |
|      11 | 0x2EEF      |       12015 |
|      12 | 0x2EF0      |       12016 |
|      13 | 0x2EF1      |       12017 |
|      14 | 0x2EF2      |       12018 |
|      15 | 0x2EF3      |       12019 |
|      16 | 0x2EF4      |       12020 |
|      17 | 0x2EF5      |       12021 |
|      18 | 0x2EF6      |       12022 |
|      19 | 0x2EF7      |       12023 |
|      20 | 0x2EF8      |       12024 |
|      21 | 0x2EF9      |       12025 |
|      22 | 0x0003      |           3 |
|      23 | 0x0007      |           7 |
|      24 | 0x003C      |          60 |
|      25 | 0x0004      |           4 |
|      26 | 0x2EFA      |       12026 |
|      27 | 0x007A      |         122 |
|      28 | 0x010E      |         270 |
|      29 | 0x00C8      |         200 |

## String References

- **12022**: What will you ask of him? [[Cast your magic on me!/Remove your magic from me!]/Send me to town!/Nothing for now.]

## Events

### Event 65535

#### Metadata

| Field        | Value   |
|--------------|---------|
| Entrypoint   | 0x0000  |
| Data Size    | 1 bytes |
| Instructions | 1       |

```
      00 01 02 03 04 05 06 07  08 09 0A 0B 0C 0D 0E 0F
      -- -- -- -- -- -- -- --  -- -- -- -- -- -- -- --
0000: 00                                                .               
```

#### Opcodes

```
  0: 0x0000 [0x00] END_REQSTACK()
```

### Event 908

#### Metadata

| Field        | Value     |
|--------------|-----------|
| Entrypoint   | 0x0001    |
| Data Size    | 397 bytes |
| Instructions | 86        |

```
      00 01 02 03 04 05 06 07  08 09 0A 0B 0C 0D 0E 0F
      -- -- -- -- -- -- -- --  -- -- -- -- -- -- -- --
0000:    03 00 00 03 10 03 01  00 00 80 03 02 00 02 10   ...............
0010: 03 03 00 04 10 03 04 00  05 10 4A 07 43 07 01 F0  ..........J.C...
0020: FF FF 7F 02 00 00 01 80  00 7B 00 03 02 10 01 00  .........{......
0030: 2B 07 43 07 01 02 80 23  02 04 00 03 80 00 5B 00  +.C....#......[.
0040: 2B 07 43 07 01 04 80 23  2B 07 43 07 01 05 80 23  +.C....#+.C....#
0050: 2B 07 43 07 01 06 80 23  01 73 00 2B 07 43 07 01  +.C....#.s.+.C..
0060: 07 80 23 2B 07 43 07 01  08 80 23 2B 07 43 07 01  ..#+.C....#+.C..
0070: 09 80 23 03 01 10 01 80  01 8C 01 02 00 00 03 80  ..#.............
0080: 00 CE 00 03 02 10 01 00  02 04 00 03 80 00 B3 00  ................
0090: 2B 07 43 07 01 0A 80 23  2B 07 43 07 01 0B 80 23  +.C....#+.C....#
00A0: 2B 07 43 07 01 0C 80 23  2B 07 43 07 01 0D 80 23  +.C....#+.C....#
00B0: 01 C3 00 2B 07 43 07 01  0E 80 23 2B 07 43 07 01  ...+.C....#+.C..
00C0: 0F 80 23 2B 07 43 07 01  10 80 23 01 E0 00 03 02  ..#+.C....#.....
00D0: 10 02 00 03 03 10 01 00  2B 07 43 07 01 11 80 23  ........+.C....#
00E0: 03 02 10 03 00 24 12 80  01 80 01 80 25 02 00 10  .....$......%...
00F0: 01 80 00 35 01 42 02 03  00 01 80 00 16 01 2B 07  ...5.B........+.
0100: 43 07 01 13 80 23 2B 07  43 07 01 14 80 23 03 01  C....#+.C....#..
0110: 10 00 80 01 23 01 2B 07  43 07 01 15 80 23 03 01  ....#.+.C....#..
0120: 10 16 80 AD 00 17 80 07  43 07 01 F0 FF FF 7F 1C  ........C.......
0130: 18 80 01 8C 01 02 00 10  03 80 00 7C 01 42 03 01  ...........|.B..
0140: 10 19 80 43 00 43 01 03  02 10 01 00 2B 07 43 07  ...C.C......+.C.
0150: 01 1A 80 23 03 01 10 19  80 73 1B 80 07 43 07 01  ...#.....s...C..
0160: F0 FF FF 7F 1C 1C 80 45  1D 80 F0 FF FF 7F F0 FF  .......E........
0170: FF 7F 66 64 6F 31 01 80  30 01 8C 01 02 00 10 00  ..fdo1..0.......
0180: 80 00 8C 01 03 01 10 01  80 01 8C 01 21 00        ............!.  
```

#### Opcodes

```
  0: 0x0001 [0x03] ExtData[1]->WorkLocal[0] = Work_Zone[3]
  1: 0x0006 [0x03] ExtData[1]->WorkLocal[1] = 2*
  2: 0x000B [0x03] ExtData[1]->WorkLocal[2] = Work_Zone[2]
  3: 0x0010 [0x03] ExtData[1]->WorkLocal[3] = Work_Zone[4]
  4: 0x0015 [0x03] ExtData[1]->WorkLocal[4] = Work_Zone[5]
  5: 0x001A [0x4A] Sline (ID: 17253127/0x01074307) looks at LocalPlayer
  6: 0x0023 [0x02] IF !(ExtData[1]->WorkLocal[0] == 0*) GOTO 0x007B
  7: 0x002B [0x03] Work_Zone[2] = ExtData[1]->WorkLocal[1]
  8: 0x0030 [0x2B] Sline (ID: 17253127/0x01074307) [12007*]:
    → "D-don't hurt me! I'm not a bad slime!"
  9: 0x0037 [0x23] WAIT_FOR_DIALOG_INTERACTION
 10: 0x0038 [0x02] IF !(ExtData[1]->WorkLocal[4] == 1*) GOTO 0x005B
 11: 0x0040 [0x2B] Sline (ID: 17253127/0x01074307) [12008*]:
    → "Why, is that--<slurp> It is! Hi, <Player>!"
 12: 0x0047 [0x23] WAIT_FOR_DIALOG_INTERACTION
 13: 0x0048 [0x2B] Sline (ID: 17253127/0x01074307) [12009*]:
    → "You were so wondergoo to me the last time around, and I hate to impose again...but I could really use the help of a [guy/gal] like you."
 14: 0x004F [0x23] WAIT_FOR_DIALOG_INTERACTION
 15: 0x0050 [0x2B] Sline (ID: 17253127/0x01074307) [12010*]:
    → "Stupid [Slarin/Sludge/Ulta Slime] said he'd find someone, but he's such a <slurp> slowpoke!"
 16: 0x0057 [0x23] WAIT_FOR_DIALOG_INTERACTION
 17: 0x0058 [0x01] GOTO 0x0073
 18: 0x005B [0x2B] Sline (ID: 17253127/0x01074307) [12011*]:
    → "You p-promise? That's absolutely wonderful!"
 19: 0x0062 [0x23] WAIT_FOR_DIALOG_INTERACTION
 20: 0x0063 [0x2B] Sline (ID: 17253127/0x01074307) [12012*]:
    → "Hmm...boy, this isn't any good at all."
 21: 0x006A [0x23] WAIT_FOR_DIALOG_INTERACTION
 22: 0x006B [0x2B] Sline (ID: 17253127/0x01074307) [12013*]:
    → "Stupid [Slarin/Sludge/Ultra Slime] said he'd get someone to help, but there's just no one to be seen!"
 23: 0x0072 [0x23] WAIT_FOR_DIALOG_INTERACTION

SUBROUTINE_0073:
 24: 0x0073 [0x03] Work_Zone[1] = 0*
 25: 0x0078 [0x01] GOTO 0x018C
 26: 0x007B [0x02] IF !(ExtData[1]->WorkLocal[0] == 1*) GOTO 0x00CE
 27: 0x0083 [0x03] Work_Zone[2] = ExtData[1]->WorkLocal[1]
 28: 0x0088 [0x02] IF !(ExtData[1]->WorkLocal[4] == 1*) GOTO 0x00B3
 29: 0x0090 [0x2B] Sline (ID: 17253127/0x01074307) [12014*]:
    → "Oh my! Hi, <Player>!"
 30: 0x0097 [0x23] WAIT_FOR_DIALOG_INTERACTION
 31: 0x0098 [0x2B] Sline (ID: 17253127/0x01074307) [12015*]:
    → "It's me, [Slabble/Slime Tarou/Sline]! You remember <slurp>?"
 32: 0x009F [0x23] WAIT_FOR_DIALOG_INTERACTION
 33: 0x00A0 [0x2B] Sline (ID: 17253127/0x01074307) [12016*]:
    → "[Slarin/Sludge/Ultra Slime] said he'd be goospatching you! Are you here to help?"
 34: 0x00A7 [0x23] WAIT_FOR_DIALOG_INTERACTION
 35: 0x00A8 [0x2B] Sline (ID: 17253127/0x01074307) [12017*]:
    → "You are? Gooray!"
 36: 0x00AF [0x23] WAIT_FOR_DIALOG_INTERACTION
 37: 0x00B0 [0x01] GOTO 0x00C3
 38: 0x00B3 [0x2B] Sline (ID: 17253127/0x01074307) [12018*]:
    → "Oh my! Are you the [guy/lady] [Slarin/Sludge/Ultra Slime] told me to expect?"
 39: 0x00BA [0x23] WAIT_FOR_DIALOG_INTERACTION
 40: 0x00BB [0x2B] Sline (ID: 17253127/0x01074307) [12019*]:
    → "You are? Gooray! My name's [Slabble/Slime Tarou/Sline]! Pleased to <slurp> meet you!"
 41: 0x00C2 [0x23] WAIT_FOR_DIALOG_INTERACTION

SUBROUTINE_00C3:
 42: 0x00C3 [0x2B] Sline (ID: 17253127/0x01074307) [12020*]:
    → "If you're ready, I'll cast a gootastic spell so you can help gather my friends. What do you say?"
 43: 0x00CA [0x23] WAIT_FOR_DIALOG_INTERACTION
 44: 0x00CB [0x01] GOTO 0x00E0
 45: 0x00CE [0x03] Work_Zone[2] = ExtData[1]->WorkLocal[2]
 46: 0x00D3 [0x03] Work_Zone[3] = ExtData[1]->WorkLocal[1]
 47: 0x00D8 [0x2B] Sline (ID: 17253127/0x01074307) [12021*]:
    → "You found $0 slime coins for me. [Slarin/Sludge/Ultra Slime] is just bouncing at the thought of providing you with some goodies. Want me to send you to him?"
 48: 0x00DF [0x23] WAIT_FOR_DIALOG_INTERACTION

SUBROUTINE_00E0:
 49: 0x00E0 [0x03] Work_Zone[2] = ExtData[1]->WorkLocal[3]
 50: 0x00E5 [0x24] CREATE_DIALOG(message_id=12022*, default_option=0*, option_flags=0*)
    → "What will you ask of him? [[Cast your magic on me!/Remove your magic from me!]/Send me to town!/Nothing for now.]"
 51: 0x00EC [0x25] WAIT_DIALOG_SELECT()
 52: 0x00ED [0x02] IF !(Work_Zone[0] == 0*) GOTO 0x0135
 53: 0x00F5 [0x42] SET_CLI_EVENT_CANCEL_DATA()
 54: 0x00F6 [0x02] IF !(ExtData[1]->WorkLocal[3] == 0*) GOTO 0x0116
 55: 0x00FE [0x2B] Sline (ID: 17253127/0x01074307) [12023*]:
    → "Okay! When you're done, come back and I'll regoove the spell!"
 56: 0x0105 [0x23] WAIT_FOR_DIALOG_INTERACTION
 57: 0x0106 [0x2B] Sline (ID: 17253127/0x01074307) [12024*]:
    → "Stay safe, and thank you!"
 58: 0x010D [0x23] WAIT_FOR_DIALOG_INTERACTION
 59: 0x010E [0x03] Work_Zone[1] = 2*
 60: 0x0113 [0x01] GOTO 0x0123
 61: 0x0116 [0x2B] Sline (ID: 17253127/0x01074307) [12025*]:
    → "Done already? I'll be here if you want to help again later <slurp>!"
 62: 0x011D [0x23] WAIT_FOR_DIALOG_INTERACTION
 63: 0x011E [0x03] Work_Zone[1] = 3*

SUBROUTINE_0123:
 64: 0x0123 [0xAD] DUAL_ENTITY_SCHEDULER_HANDLER: Execute sub-case 0 with entities [Sline (ID: 17253127/0x01074307), LocalPlayer], work=7*
 65: 0x012F [0x1C] WAIT(60* ticks)
 66: 0x0132 [0x01] GOTO 0x018C
 67: 0x0135 [0x02] IF !(Work_Zone[0] == 1*) GOTO 0x017C
 68: 0x013D [0x42] SET_CLI_EVENT_CANCEL_DATA()
 69: 0x013E [0x03] Work_Zone[1] = 4*
 70: 0x0143 [0x43] SEND_EVENT_UPDATE: Send pending tag to server (packet 0x005B)
 71: 0x0145 [0x43] SEND_EVENT_UPDATE: Check pending flag (skip if not pending)
 72: 0x0147 [0x03] Work_Zone[2] = ExtData[1]->WorkLocal[1]
 73: 0x014C [0x2B] Sline (ID: 17253127/0x01074307) [12026*]:
    → "No problem! Just talk to [Slarin/Sludge/Ultra Slime] whenever you're ready to come back <slurp>!"
 74: 0x0153 [0x23] WAIT_FOR_DIALOG_INTERACTION
 75: 0x0154 [0x03] Work_Zone[1] = 4*
 76: 0x0159 [0x73] Sline (ID: 17253127/0x01074307) casts magic 122* on LocalPlayer
 77: 0x0164 [0x1C] WAIT(270* ticks)
 78: 0x0167 [0x45] LOAD_SCHEDULED_TASK: Load scheduler "fdo1" with entities [LocalPlayer, LocalPlayer], work=[200*, 0*]
 79: 0x0178 [0x30] SET_UCOFF_CONTINUE_ZERO()
 80: 0x0179 [0x01] GOTO 0x018C
 81: 0x017C [0x02] IF !(Work_Zone[0] == 2*) GOTO 0x018C
 82: 0x0184 [0x03] Work_Zone[1] = 0*
 83: 0x0189 [0x01] GOTO 0x018C

SUBROUTINE_018C:
 84: 0x018C [0x21] END_EVENT
 85: 0x018D [0x00] END_REQSTACK()
```
