# 17253106 - Kesha Shopehllok

## Common Data

| Field            | Value                       |
|------------------|-----------------------------|
| Zone             | East Sarutabaruta (ID: 116) |
| Block Size       | 1220 bytes                  |
| Total Events     | 3                           |
| References Count | 81                          |

## List of Events

| Event ID              | Entrypoint   |   Size |   Instructions |
|-----------------------|--------------|--------|----------------|
| [65535](#event-65535) | 0x0000       |      1 |              1 |
| [55](#event-55)       | 0x0001       |    801 |            207 |
| [56](#event-56)       | 0x0322       |     63 |             23 |

## DAT References (imed_data)

|   Index | Hex Value   |   Dec Value |
|---------|-------------|-------------|
|       0 | 0x0000      |           0 |
|       1 | 0x0010      |          16 |
|       2 | 0x1D5C      |        7516 |
|       3 | 0x1D5D      |        7517 |
|       4 | 0x0001      |           1 |
|       5 | 0x0002      |           2 |
|       6 | 0x0003      |           3 |
|       7 | 0x4275      |       17013 |
|       8 | 0x1D71      |        7537 |
|       9 | 0x0004      |           4 |
|      10 | 0x1D72      |        7538 |
|      11 | 0x1D73      |        7539 |
|      12 | 0x1D74      |        7540 |
|      13 | 0x1D75      |        7541 |
|      14 | 0x1D76      |        7542 |
|      15 | 0x1D77      |        7543 |
|      16 | 0x1D78      |        7544 |
|      17 | 0x1D60      |        7520 |
|      18 | 0x426B      |       17003 |
|      19 | 0x1D61      |        7521 |
|      20 | 0x1D62      |        7522 |
|      21 | 0x10D6      |        4310 |
|      22 | 0x10D7      |        4311 |
|      23 | 0x10D8      |        4312 |
|      24 | 0x1D63      |        7523 |
|      25 | 0x1D64      |        7524 |
|      26 | 0x1D65      |        7525 |
|      27 | 0x1D66      |        7526 |
|      28 | 0x1D68      |        7528 |
|      29 | 0x1D67      |        7527 |
|      30 | 0x1D69      |        7529 |
|      31 | 0x0005      |           5 |
|      32 | 0x1D6A      |        7530 |
|      33 | 0x000F      |          15 |
|      34 | 0x1D6B      |        7531 |
|      35 | 0x0019      |          25 |
|      36 | 0x1D6C      |        7532 |
|      37 | 0x001E      |          30 |
|      38 | 0x1D6D      |        7533 |
|      39 | 0x0032      |          50 |
|      40 | 0x1D6E      |        7534 |
|      41 | 0x0041      |          65 |
|      42 | 0x0046      |          70 |
|      43 | 0x1D8B      |        7563 |
|      44 | 0x003C      |          60 |
|      45 | 0x1D8D      |        7565 |
|      46 | 0x0050      |          80 |
|      47 | 0x1D8E      |        7566 |
|      48 | 0x0028      |          40 |
|      49 | 0x09D5      |        2517 |
|      50 | 0x1D8F      |        7567 |
|      51 | 0x1D6F      |        7535 |
|      52 | 0x1D87      |        7559 |
|      53 | 0x1D79      |        7545 |
|      54 | 0x000A      |          10 |
|      55 | 0x000B      |          11 |
|      56 | 0x000E      |          14 |
|      57 | 0x000C      |          12 |
|      58 | 0x0013      |          19 |
|      59 | 0x000D      |          13 |
|      60 | 0x0006      |           6 |
|      61 | 0x0011      |          17 |
|      62 | 0x0007      |           7 |
|      63 | 0x0008      |           8 |
|      64 | 0x0009      |           9 |
|      65 | 0x0012      |          18 |
|      66 | 0xFFFFFFFF  |  4294967295 |
|      67 | 0x1D7E      |        7550 |
|      68 | 0x0064      |         100 |
|      69 | 0x1D7B      |        7547 |
|      70 | 0x1D7C      |        7548 |
|      71 | 0x1D7D      |        7549 |
|      72 | 0x1D7A      |        7546 |
|      73 | 0x1D7F      |        7551 |
|      74 | 0x1D80      |        7552 |
|      75 | 0x1D83      |        7555 |
|      76 | 0x0018      |          24 |
|      77 | 0x1D81      |        7553 |
|      78 | 0x1D84      |        7556 |
|      79 | 0x1D82      |        7554 |
|      80 | 0x1D85      |        7557 |

## String References

- **7516**: What can I do ya for? [Get me a scoop./How does this game work?/Fork over my prize./I need a bowl.]
- **7517**: That's the spirit! Ya can't do any grabbin' without a scoop!
- **7520**: Tell me... [How to grab goldfish./About the types of goldfish./About the prizes./Your linkshell number.]
- **7521**: [Mister/Lady], Grabbin' Goldfish is as easy as it sounds. Just equip $0 to your Range slot, $1 to your Ammo slot, and get fishin'!
- **7522**: Oh yeah, and one last thing--ya can't grab goldfish just anywhere. Look for the fireworks. When you've grabbed a bundle, bring the fishies back to me and I'll give ya points which you can exchange for prizes!
- **7523**: There are three types of goldfish: %, $1, and $2.
- **7524**: % are probably the easiest to grab. There are tons of 'em swimmin' around out there. I'll give you one point for each one ya bring me.
- **7525**: $1 are a li'l bit bigger and a li'l bit slimier than your normal goldfish, which makes 'em a li'l bit tougher to grab. So, I'll be a sport and give ya two points for each one ya bring back.
- **7526**: And $2? There's no way you're gonna be able to grab one of those. They're the fattest, slimiest, most despicable goldfish of 'em all. If you do manage to bring one back, I'll give ya a whoppin' ten points!
- **7527**: But wait, there's more! I haven't actually seen any of 'em for myself, but they're supposed to be hard to find and even harder to catch. Catch 'em, though, and I'll make sure it was worth your while!
- **7528**: Remember, the more points ya got, the better prizes you'll get!
- **7529**: Ya bring me goldfish, I'll give ya points. Ya trade me points, I'll give ya prizes. Simple, huh?
- **7530**: $0 point[/s]'ll get ya a new $1.
- **7531**: $0 point[/s]'ll get ya a bag o' fireworks. There are different kinds and different amounts in each bag.
- **7532**: $0 point[/s]'ll get ya some fan-dangled fans. There are two types, "festive" and "summer."
- **7533**: $0 point[/s]'ll get ya a delicious drop. I'm not gonna tell ya what flavor ya get, though!
- **7534**: $0 point[/s]'ll get ya...well, I can't give ya any details on that prize. You'll just hafta keep talkin' to me!
- **7535**: And that's the lowdown on our prizes.
- **7537**: Alright! Here's $0 to put your goldfish in. Don't forget to equip it, an' be careful not to lose it. When it's gone, your points are gone.
- **7538**: Ya lost your $0!?
- **7539**: Well, I have no problem with lendin' ya another one, but remember, ya lose all the points you've got up till now!
- **7540**: Start over from the top? [No way!/You bet!]
- **7541**: Oh well. If ya change your mind, ya know where I'll be!
- **7542**: Well, okay! Take this new $0 and fill it up with goldfish. Remember, your points are reset to zero.
- **7543**: Wait a minute... You already have $0. Gettin' a new one would mean resetting your points to zero. Is that what you want?
- **7544**: Whatever. Ya know, if I only had more customers like you, I could finally buy myself that summer home in Kazham...
- **7545**: You have $0 point[/s]. [$1: $2./A bag o' fireworks: $3./Large fans: $6./A colored drop: $4./1 $11: $12./The mystery box: $5./A stellar surprise: $9./The other mystery box: $7./Yet another mystery box: $8./Mystery box part four: $10./Nothing.]
- **7546**: Hey, you're gonna need to do some more grabbin' if ya want that.
- **7547**: Are ya sure that's what ya want?
- **7548**: Well, are ya? [Hold on./You bet.]
- **7549**: Then here ya go!
- **7550**: Oh. Well, come back when you've made up your mind.
- **7551**: <Sniff> <Sniff> Is that goldfish I smell?
- **7552**: Let's see... I'll give ya $0 point[/s] for this haul.
- **7553**: Wow... I'll give ya $0 point[/s] for all of these.
- **7554**: With all these fish, you could open your own pet shop! I think I owe you $0 point[/s].
- **7555**: You're doing pretty good for an adventurer. Come on back when you've grabbed some more.
- **7556**: I must say, I'm pretty impressed. You've got this game down. Come on back when you've grabbed some more.
- **7557**: You are one heck of a goldfish grabber. I'll be eatin' good tonight... Ahem! Um, anyway... Come on back when you've grabbed some more.
- **7559**: % throws a cute smile in your direction.
- **7563**: And $0 point[/s]'ll get ya...well, I can't give ya any details on that prize either. And I definitely can't tell ya what you might get with $1 point[/s]. I've gotta keep things interesting, ya know?
- **7565**: What's more, this year $0 point[/s]'ll earn ya a stellar surprise! That's all I can tell ya, but ya have my guarantee that it'll bring rip-roarin' good times to any lucky [feller/lady] who wins it!
- **7566**: And what is this!? For $0 you can lands yourself an incredibly goregous happi!? Why did we wait so long to put this festival feature on the shelves!?
- **7567**: 3gI1jb$6423146A=g$4457013H\`B

## Events

### Event 65535

#### Metadata

| Field        | Value   |
|--------------|---------|
| Entrypoint   | 0x0000  |
| Data Size    | 1 bytes |
| Instructions | 1       |

```
      00 01 02 03 04 05 06 07  08 09 0A 0B 0C 0D 0E 0F
      -- -- -- -- -- -- -- --  -- -- -- -- -- -- -- --
0000: 00                                                .               
```

#### Opcodes

```
  0: 0x0000 [0x00] END_REQSTACK()
```

### Event 55

#### Metadata

| Field        | Value     |
|--------------|-----------|
| Entrypoint   | 0x0001    |
| Data Size    | 801 bytes |
| Instructions | 142       |

```
      00 01 02 03 04 05 06 07  08 09 0A 0B 0C 0D 0E 0F
      -- -- -- -- -- -- -- --  -- -- -- -- -- -- -- --
0000:    03 00 00 03 10 03 01  00 00 80 02 09 10 00 80   ...............
0010: 01 18 00 03 01 00 01 80  06 01 10 24 02 80 00 80  ...........$....
0020: 00 80 25 02 00 10 00 80  00 37 00 1D 03 80 23 03  ..%......7....#.
0030: 01 10 04 80 01 61 00 02  00 10 04 80 00 45 00 1A  .....a.......E..
0040: F7 00 01 61 00 02 00 10  05 80 00 53 00 1A D1 01  ...a.......S....
0050: 01 61 00 02 00 10 06 80  00 61 00 1A 63 00 01 61  .a.......a..c..a
0060: 00 21 00 06 01 10 02 02  10 00 80 00 C2 00 02 03  .!..............
0070: 10 00 80 00 87 00 03 02  10 07 80 1D 08 80 23 03  ..............#.
0080: 01 10 09 80 01 BF 00 03  02 10 07 80 1D 0A 80 23  ...............#
0090: 1D 0B 80 23 24 0C 80 00  80 00 80 25 02 00 10 00  ...#$......%....
00A0: 80 00 AB 00 1D 0D 80 23  01 BF 00 02 00 10 04 80  .......#........
00B0: 00 BF 00 1D 0E 80 23 03  01 10 09 80 01 BF 00 01  ......#.........
00C0: F6 00 03 02 10 07 80 1D  0F 80 23 24 0C 80 00 80  ..........#$....
00D0: 00 80 25 02 00 10 00 80  00 E2 00 1D 0D 80 23 01  ..%...........#.
00E0: F6 00 02 00 10 04 80 00  F6 00 1D 10 80 23 03 01  .............#..
00F0: 10 05 80 01 F6 00 1B 06  01 10 24 11 80 00 80 00  ..........$.....
0100: 80 25 02 00 10 00 80 00  22 01 03 02 10 07 80 03  .%......".......
0110: 03 10 12 80 1D 13 80 23  1D 14 80 23 01 F7 00 01  .......#...#....
0120: D0 01 02 00 10 04 80 00  57 01 03 02 10 15 80 03  ........W.......
0130: 03 10 16 80 03 04 10 17  80 1D 18 80 23 1D 19 80  ............#...
0140: 23 1D 1A 80 23 1D 1B 80  23 1D 1C 80 23 1D 1D 80  #...#...#...#...
0150: 23 01 F7 00 01 D0 01 02  00 10 05 80 00 CD 01 03  #...............
0160: 03 10 12 80 1D 1E 80 23  03 02 10 1F 80 1D 20 80  .......#...... .
0170: 23 03 02 10 21 80 1D 22  80 23 03 02 10 23 80 1D  #...!..".#...#..
0180: 24 80 23 03 02 10 25 80  1D 26 80 23 03 02 10 27  $.#...%..&.#...'
0190: 80 1D 28 80 23 03 02 10  29 80 03 03 10 2A 80 1D  ..(.#...)....*..
01A0: 2B 80 23 03 02 10 2C 80  1D 2D 80 23 03 02 10 2E  +.#...,..-.#....
01B0: 80 1D 2F 80 23 03 02 10  30 80 03 03 10 31 80 1D  ../.#...0....1..
01C0: 32 80 23 1D 33 80 23 01  F7 00 01 D0 01 48 34 80  2.#.3.#......H4.
01D0: 1B 06 01 10 06 02 00 03  02 10 00 00 03 03 10 12  ................
01E0: 80 03 04 10 1F 80 03 05  10 21 80 03 06 10 25 80  .........!....%.
01F0: 03 07 10 27 80 03 08 10  23 80 03 09 10 29 80 03  ...'....#....)..
0200: 00 17 2A 80 03 01 17 2C  80 03 02 17 2E 80 03 03  ..*....,........
0210: 17 31 80 03 04 17 30 80  24 35 80 00 80 01 00 25  .1....0.$5.....%
0220: 02 00 10 00 80 00 30 02  03 02 00 36 80 01 C5 02  ......0....6....
0230: 02 00 10 04 80 00 40 02  03 02 00 37 80 01 C5 02  ......@....7....
0240: 02 00 10 05 80 00 50 02  03 02 00 38 80 01 C5 02  ......P....8....
0250: 02 00 10 06 80 00 60 02  03 02 00 39 80 01 C5 02  ......`....9....
0260: 02 00 10 09 80 00 70 02  03 02 00 3A 80 01 C5 02  ......p....:....
0270: 02 00 10 1F 80 00 80 02  03 02 00 3B 80 01 C5 02  ...........;....
0280: 02 00 10 3C 80 00 90 02  03 02 00 3D 80 01 C5 02  ...<.......=....
0290: 02 00 10 3E 80 00 A0 02  03 02 00 21 80 01 C5 02  ...>.......!....
02A0: 02 00 10 3F 80 00 B0 02  03 02 00 01 80 01 C5 02  ...?............
02B0: 02 00 10 40 80 00 C0 02  03 02 00 41 80 01 C5 02  ...@.......A....
02C0: 03 02 00 42 80 02 02 00  42 80 00 D4 02 1D 43 80  ...B....B.....C.
02D0: 23 01 21 03 03 01 10 02  00 43 00 43 01 02 08 10  #.!......C.C....
02E0: 44 80 00 1A 03 1D 45 80  23 24 46 80 00 80 00 80  D.....E.#$F.....
02F0: 25 02 00 10 00 80 00 FF  02 01 D1 01 01 17 03 02  %...............
0300: 00 10 04 80 00 17 03 1D  47 80 23 48 34 80 03 01  ........G.#H4...
0310: 10 02 00 1B 01 17 03 01  21 03 1D 48 80 23 01 D1  ........!..H.#..
0320: 01 1B                                             ..              
```

#### Opcodes

```
  0: 0x0001 [0x03] ExtData[1]->WorkLocal[0] = Work_Zone[3]
  1: 0x0006 [0x03] ExtData[1]->WorkLocal[1] = 0*
  2: 0x000B [0x02] IF !(Work_Zone[9] == 0*) GOTO 0x0018
  3: 0x0013 [0x03] ExtData[1]->WorkLocal[1] = 16*
  4: 0x0018 [0x06] Work_Zone[1] = 0
  5: 0x001B [0x24] CREATE_DIALOG(message_id=7516*, default_option=0*, option_flags=0*)
    → "What can I do ya for? [Get me a scoop./How does this game work?/Fork over my prize./I need a bowl.]"
  6: 0x0022 [0x25] WAIT_DIALOG_SELECT()
  7: 0x0023 [0x02] IF !(Work_Zone[0] == 0*) GOTO 0x0037
  8: 0x002B [0x1D] PRINT_EVENT_MESSAGE(message_id=7517*)
    → "That's the spirit! Ya can't do any grabbin' without a scoop!"
  9: 0x002E [0x23] WAIT_FOR_DIALOG_INTERACTION
 10: 0x002F [0x03] Work_Zone[1] = 1*
 11: 0x0034 [0x01] GOTO 0x0061
 12: 0x0037 [0x02] IF !(Work_Zone[0] == 1*) GOTO 0x0045
 13: 0x003F [0x1A] CALL_SUBROUTINE(address=0x00F7)
 14: 0x0042 [0x01] GOTO 0x0061
 15: 0x0045 [0x02] IF !(Work_Zone[0] == 2*) GOTO 0x0053
 16: 0x004D [0x1A] CALL_SUBROUTINE(address=0x01D1)
 17: 0x0050 [0x01] GOTO 0x0061
 18: 0x0053 [0x02] IF !(Work_Zone[0] == 3*) GOTO 0x0061
 19: 0x005B [0x1A] CALL_SUBROUTINE(address=0x0063)
 20: 0x005E [0x01] GOTO 0x0061

SUBROUTINE_0061:
 21: 0x0061 [0x21] END_EVENT
 22: 0x0062 [0x00] END_REQSTACK()

SUBROUTINE_0063:
 23: 0x0063 [0x06] Work_Zone[1] = 0
 24: 0x0066 [0x02] IF !(Work_Zone[2] == 0*) GOTO 0x00C2
 25: 0x006E [0x02] IF !(Work_Zone[3] == 0*) GOTO 0x0087
 26: 0x0076 [0x03] Work_Zone[2] = 17013*
 27: 0x007B [0x1D] PRINT_EVENT_MESSAGE(message_id=7537*)
    → "Alright! Here's $0 to put your goldfish in. Don't forget to equip it, an' be careful not to lose it. When it's gone, your points are gone."
 28: 0x007E [0x23] WAIT_FOR_DIALOG_INTERACTION
 29: 0x007F [0x03] Work_Zone[1] = 4*
 30: 0x0084 [0x01] GOTO 0x00BF
 31: 0x0087 [0x03] Work_Zone[2] = 17013*
 32: 0x008C [0x1D] PRINT_EVENT_MESSAGE(message_id=7538*)
    → "Ya lost your $0!?"
 33: 0x008F [0x23] WAIT_FOR_DIALOG_INTERACTION
 34: 0x0090 [0x1D] PRINT_EVENT_MESSAGE(message_id=7539*)
    → "Well, I have no problem with lendin' ya another one, but remember, ya lose all the points you've got up till now!"
 35: 0x0093 [0x23] WAIT_FOR_DIALOG_INTERACTION
 36: 0x0094 [0x24] CREATE_DIALOG(message_id=7540*, default_option=0*, option_flags=0*)
    → "Start over from the top? [No way!/You bet!]"
 37: 0x009B [0x25] WAIT_DIALOG_SELECT()
 38: 0x009C [0x02] IF !(Work_Zone[0] == 0*) GOTO 0x00AB
 39: 0x00A4 [0x1D] PRINT_EVENT_MESSAGE(message_id=7541*)
    → "Oh well. If ya change your mind, ya know where I'll be!"
 40: 0x00A7 [0x23] WAIT_FOR_DIALOG_INTERACTION
 41: 0x00A8 [0x01] GOTO 0x00BF
 42: 0x00AB [0x02] IF !(Work_Zone[0] == 1*) GOTO 0x00BF
 43: 0x00B3 [0x1D] PRINT_EVENT_MESSAGE(message_id=7542*)
    → "Well, okay! Take this new $0 and fill it up with goldfish. Remember, your points are reset to zero."
 44: 0x00B6 [0x23] WAIT_FOR_DIALOG_INTERACTION
 45: 0x00B7 [0x03] Work_Zone[1] = 4*
 46: 0x00BC [0x01] GOTO 0x00BF

SUBROUTINE_00BF:
 47: 0x00BF [0x01] GOTO 0x00F6
 48: 0x00C2 [0x03] Work_Zone[2] = 17013*
 49: 0x00C7 [0x1D] PRINT_EVENT_MESSAGE(message_id=7543*)
    → "Wait a minute... You already have $0. Gettin' a new one would mean resetting your points to zero. Is that what you want?"
 50: 0x00CA [0x23] WAIT_FOR_DIALOG_INTERACTION
 51: 0x00CB [0x24] CREATE_DIALOG(message_id=7540*, default_option=0*, option_flags=0*)
    → "Start over from the top? [No way!/You bet!]"
 52: 0x00D2 [0x25] WAIT_DIALOG_SELECT()
 53: 0x00D3 [0x02] IF !(Work_Zone[0] == 0*) GOTO 0x00E2
 54: 0x00DB [0x1D] PRINT_EVENT_MESSAGE(message_id=7541*)
    → "Oh well. If ya change your mind, ya know where I'll be!"
 55: 0x00DE [0x23] WAIT_FOR_DIALOG_INTERACTION
 56: 0x00DF [0x01] GOTO 0x00F6
 57: 0x00E2 [0x02] IF !(Work_Zone[0] == 1*) GOTO 0x00F6
 58: 0x00EA [0x1D] PRINT_EVENT_MESSAGE(message_id=7544*)
    → "Whatever. Ya know, if I only had more customers like you, I could finally buy myself that summer home in Kazham..."
 59: 0x00ED [0x23] WAIT_FOR_DIALOG_INTERACTION
 60: 0x00EE [0x03] Work_Zone[1] = 2*
 61: 0x00F3 [0x01] GOTO 0x00F6

SUBROUTINE_00F6:
 62: 0x00F6 [0x1B] RETURN

SUBROUTINE_00F7:
 63: 0x00F7 [0x06] Work_Zone[1] = 0
 64: 0x00FA [0x24] CREATE_DIALOG(message_id=7520*, default_option=0*, option_flags=0*)
    → "Tell me... [How to grab goldfish./About the types of goldfish./About the prizes./Your linkshell number.]"
 65: 0x0101 [0x25] WAIT_DIALOG_SELECT()
 66: 0x0102 [0x02] IF !(Work_Zone[0] == 0*) GOTO 0x0122
 67: 0x010A [0x03] Work_Zone[2] = 17013*
 68: 0x010F [0x03] Work_Zone[3] = 17003*
 69: 0x0114 [0x1D] PRINT_EVENT_MESSAGE(message_id=7521*)
    → "[Mister/Lady], Grabbin' Goldfish is as easy as it sounds. Just equip $0 to your Range slot, $1 to your Ammo slot, and get fishin'!"
 70: 0x0117 [0x23] WAIT_FOR_DIALOG_INTERACTION
 71: 0x0118 [0x1D] PRINT_EVENT_MESSAGE(message_id=7522*)
    → "Oh yeah, and one last thing--ya can't grab goldfish just anywhere. Look for the fireworks. When you've grabbed a bundle, bring the fishies back to me and I'll give ya points which you can exchange for prizes!"
 72: 0x011B [0x23] WAIT_FOR_DIALOG_INTERACTION
 73: 0x011C [0x01] GOTO 0x00F7

SUBROUTINE_01D0:
 74: 0x01D0 [0x1B] RETURN

SUBROUTINE_01D1:
 75: 0x01D1 [0x06] Work_Zone[1] = 0
 76: 0x01D4 [0x06] ExtData[1]->WorkLocal[2] = 0
 77: 0x01D7 [0x03] Work_Zone[2] = ExtData[1]->WorkLocal[0]
 78: 0x01DC [0x03] Work_Zone[3] = 17003*
 79: 0x01E1 [0x03] Work_Zone[4] = 5*
 80: 0x01E6 [0x03] Work_Zone[5] = 15*
 81: 0x01EB [0x03] Work_Zone[6] = 30*
 82: 0x01F0 [0x03] Work_Zone[7] = 50*
 83: 0x01F5 [0x03] Work_Zone[8] = 25*
 84: 0x01FA [0x03] Work_Zone[9] = 65*
 85: 0x01FF [0x03] Work_Zone_1700[0] = 70*
 86: 0x0204 [0x03] Work_Zone_1700[1] = 60*
 87: 0x0209 [0x03] Work_Zone_1700[2] = 80*
 88: 0x020E [0x03] Work_Zone_1700[3] = 2517*
 89: 0x0213 [0x03] Work_Zone_1700[4] = 40*
 90: 0x0218 [0x24] CREATE_DIALOG(message_id=7545*, default_option=0*, option_flags=ExtData[1]->WorkLocal[1])
    → "You have $0 point[/s]. [$1: $2./A bag o' fireworks: $3./Large fans: $6./A colored drop: $4./1 $11: $12./The mystery box: $5./A stellar surprise: $9./The other mystery box: $7./Yet another mystery box: $8./Mystery box part four: $10./Nothing.]"
 91: 0x021F [0x25] WAIT_DIALOG_SELECT()
 92: 0x0220 [0x02] IF !(Work_Zone[0] == 0*) GOTO 0x0230
 93: 0x0228 [0x03] ExtData[1]->WorkLocal[2] = 10*
 94: 0x022D [0x01] GOTO 0x02C5
 95: 0x0230 [0x02] IF !(Work_Zone[0] == 1*) GOTO 0x0240
 96: 0x0238 [0x03] ExtData[1]->WorkLocal[2] = 11*
 97: 0x023D [0x01] GOTO 0x02C5
 98: 0x0240 [0x02] IF !(Work_Zone[0] == 2*) GOTO 0x0250
 99: 0x0248 [0x03] ExtData[1]->WorkLocal[2] = 14*
100: 0x024D [0x01] GOTO 0x02C5
101: 0x0250 [0x02] IF !(Work_Zone[0] == 3*) GOTO 0x0260
102: 0x0258 [0x03] ExtData[1]->WorkLocal[2] = 12*
103: 0x025D [0x01] GOTO 0x02C5
104: 0x0260 [0x02] IF !(Work_Zone[0] == 4*) GOTO 0x0270
105: 0x0268 [0x03] ExtData[1]->WorkLocal[2] = 19*
106: 0x026D [0x01] GOTO 0x02C5
107: 0x0270 [0x02] IF !(Work_Zone[0] == 5*) GOTO 0x0280
108: 0x0278 [0x03] ExtData[1]->WorkLocal[2] = 13*
109: 0x027D [0x01] GOTO 0x02C5
110: 0x0280 [0x02] IF !(Work_Zone[0] == 6*) GOTO 0x0290
111: 0x0288 [0x03] ExtData[1]->WorkLocal[2] = 17*
112: 0x028D [0x01] GOTO 0x02C5
113: 0x0290 [0x02] IF !(Work_Zone[0] == 7*) GOTO 0x02A0
114: 0x0298 [0x03] ExtData[1]->WorkLocal[2] = 15*
115: 0x029D [0x01] GOTO 0x02C5
116: 0x02A0 [0x02] IF !(Work_Zone[0] == 8*) GOTO 0x02B0
117: 0x02A8 [0x03] ExtData[1]->WorkLocal[2] = 16*
118: 0x02AD [0x01] GOTO 0x02C5
119: 0x02B0 [0x02] IF !(Work_Zone[0] == 9*) GOTO 0x02C0
120: 0x02B8 [0x03] ExtData[1]->WorkLocal[2] = 18*
121: 0x02BD [0x01] GOTO 0x02C5
122: 0x02C0 [0x03] ExtData[1]->WorkLocal[2] = 4294967295*

SUBROUTINE_02C5:
123: 0x02C5 [0x02] IF !(ExtData[1]->WorkLocal[2] == 4294967295*) GOTO 0x02D4
124: 0x02CD [0x1D] PRINT_EVENT_MESSAGE(message_id=7550*)
    → "Oh. Well, come back when you've made up your mind."
125: 0x02D0 [0x23] WAIT_FOR_DIALOG_INTERACTION
126: 0x02D1 [0x01] GOTO 0x0321
127: 0x02D4 [0x03] Work_Zone[1] = ExtData[1]->WorkLocal[2]
128: 0x02D9 [0x43] SEND_EVENT_UPDATE: Send pending tag to server (packet 0x005B)
129: 0x02DB [0x43] SEND_EVENT_UPDATE: Check pending flag (skip if not pending)
130: 0x02DD [0x02] IF !(Work_Zone[8] == 100*) GOTO 0x031A
131: 0x02E5 [0x1D] PRINT_EVENT_MESSAGE(message_id=7547*)
    → "Are ya sure that's what ya want?"
132: 0x02E8 [0x23] WAIT_FOR_DIALOG_INTERACTION
133: 0x02E9 [0x24] CREATE_DIALOG(message_id=7548*, default_option=0*, option_flags=0*)
    → "Well, are ya? [Hold on./You bet.]"
134: 0x02F0 [0x25] WAIT_DIALOG_SELECT()
135: 0x02F1 [0x02] IF !(Work_Zone[0] == 0*) GOTO 0x02FF
136: 0x02F9 [0x01] GOTO 0x01D1

SUBROUTINE_0317:
137: 0x0317 [0x01] GOTO 0x0321
138: 0x031A [0x1D] PRINT_EVENT_MESSAGE(message_id=7546*)
    → "Hey, you're gonna need to do some more grabbin' if ya want that."
139: 0x031D [0x23] WAIT_FOR_DIALOG_INTERACTION
140: 0x031E [0x01] GOTO 0x01D1

SUBROUTINE_0321:
141: 0x0321 [0x1B] RETURN
```

#### Data or dead code:

```
# Dead code (unreachable instructions):
     0x011F [0x01] GOTO 0x01D0
     0x0154 [0x01] GOTO 0x01D0
     0x01CA [0x01] GOTO 0x01D0
# Dead code (unreachable instructions):
     0x02FC [0x01] GOTO 0x0317
     0x0314 [0x01] GOTO 0x0317
```

### Event 56

#### Metadata

| Field        | Value    |
|--------------|----------|
| Entrypoint   | 0x0322   |
| Data Size    | 63 bytes |
| Instructions | 23       |

```
      00 01 02 03 04 05 06 07  08 09 0A 0B 0C 0D 0E 0F
      -- -- -- -- -- -- -- --  -- -- -- -- -- -- -- --
0320:       06 01 10 1D 49 80  23 02 02 10 39 80 03 3C    ....I.#...9..<
0330: 03 1D 4A 80 23 1D 4B 80  23 01 57 03 02 02 10 4C  ..J.#.K.#.W....L
0340: 80 03 4F 03 1D 4D 80 23  1D 4E 80 23 01 57 03 1D  ..O..M.#.N.#.W..
0350: 4F 80 23 1D 50 80 23 48  34 80 03 01 10 06 80 21  O.#.P.#H4......!
0360: 00                                                .               
```

#### Opcodes

```
  0: 0x0322 [0x06] Work_Zone[1] = 0
  1: 0x0325 [0x1D] PRINT_EVENT_MESSAGE(message_id=7551*)
    → "<Sniff> <Sniff> Is that goldfish I smell?"
  2: 0x0328 [0x23] WAIT_FOR_DIALOG_INTERACTION
  3: 0x0329 [0x02] IF !(Work_Zone[2] >= 12*) GOTO 0x033C
  4: 0x0331 [0x1D] PRINT_EVENT_MESSAGE(message_id=7552*)
    → "Let's see... I'll give ya $0 point[/s] for this haul."
  5: 0x0334 [0x23] WAIT_FOR_DIALOG_INTERACTION
  6: 0x0335 [0x1D] PRINT_EVENT_MESSAGE(message_id=7555*)
    → "You're doing pretty good for an adventurer. Come on back when you've grabbed some more."
  7: 0x0338 [0x23] WAIT_FOR_DIALOG_INTERACTION
  8: 0x0339 [0x01] GOTO 0x0357
  9: 0x033C [0x02] IF !(Work_Zone[2] >= 24*) GOTO 0x034F
 10: 0x0344 [0x1D] PRINT_EVENT_MESSAGE(message_id=7553*)
    → "Wow... I'll give ya $0 point[/s] for all of these."
 11: 0x0347 [0x23] WAIT_FOR_DIALOG_INTERACTION
 12: 0x0348 [0x1D] PRINT_EVENT_MESSAGE(message_id=7556*)
    → "I must say, I'm pretty impressed. You've got this game down. Come on back when you've grabbed some more."
 13: 0x034B [0x23] WAIT_FOR_DIALOG_INTERACTION
 14: 0x034C [0x01] GOTO 0x0357
 15: 0x034F [0x1D] PRINT_EVENT_MESSAGE(message_id=7554*)
    → "With all these fish, you could open your own pet shop! I think I owe you $0 point[/s]."
 16: 0x0352 [0x23] WAIT_FOR_DIALOG_INTERACTION
 17: 0x0353 [0x1D] PRINT_EVENT_MESSAGE(message_id=7557*)
    → "You are one heck of a goldfish grabber. I'll be eatin' good tonight... Ahem! Um, anyway... Come on back when you've grabbed some more."
 18: 0x0356 [0x23] WAIT_FOR_DIALOG_INTERACTION

SUBROUTINE_0357:
 19: 0x0357 [0x48] [System] [7559*]:
    → "% throws a cute smile in your direction."
 20: 0x035A [0x03] Work_Zone[1] = 3*
 21: 0x035F [0x21] END_EVENT
 22: 0x0360 [0x00] END_REQSTACK()
```
