# 0x7FFFFFF0 - Zone Events

## Common Data

| Field            | Value                       |
|------------------|-----------------------------|
| Zone             | East Sarutabaruta (ID: 116) |
| Block Size       | 1068 bytes                  |
| Total Events     | 29                          |
| References Count | 74                          |

## List of Events

| Event ID                   | Entrypoint   |   Size |   Instructions |
|----------------------------|--------------|--------|----------------|
| [65535](#event-65535)      | 0x0000       |      1 |              1 |
| [65534](#event-65534)      | 0x0001       |      1 |              1 |
| [65535.1](#event-655351)   | 0x0002       |      6 |              2 |
| [65535.2](#event-655352)   | 0x0008       |      6 |              2 |
| [65535.3](#event-655353)   | 0x000E       |      6 |              2 |
| [65535.4](#event-655354)   | 0x0014       |      6 |              2 |
| [65535.5](#event-655355)   | 0x001A       |     13 |              3 |
| [65535.6](#event-655356)   | 0x0027       |      4 |              2 |
| [1](#event-1)              | 0x002B       |      1 |              1 |
| [31](#event-31)            | 0x002C       |      1 |              1 |
| [32](#event-32)            | 0x002D       |      1 |              1 |
| [65535.7](#event-655357)   | 0x002E       |     13 |              3 |
| [65535.8](#event-655358)   | 0x003B       |     13 |              3 |
| [65535.9](#event-655359)   | 0x0048       |     13 |              3 |
| [65535.10](#event-6553510) | 0x0055       |     13 |              3 |
| [65535.11](#event-6553511) | 0x0062       |     13 |              3 |
| [65535.12](#event-6553512) | 0x006F       |     13 |              3 |
| [65535.13](#event-6553513) | 0x007C       |     13 |              3 |
| [65535.14](#event-6553514) | 0x0089       |     13 |              3 |
| [65535.15](#event-6553515) | 0x0096       |     21 |              5 |
| [65535.16](#event-6553516) | 0x00AB       |     14 |              4 |
| [65535.17](#event-6553517) | 0x00B9       |     14 |              4 |
| [901](#event-901)          | 0x00C7       |    370 |             49 |
| [65535.18](#event-6553518) | 0x0239       |     11 |              4 |
| [65535.19](#event-6553519) | 0x0244       |     14 |              4 |
| [65535.20](#event-6553520) | 0x0252       |      7 |              3 |
| [65535.21](#event-6553521) | 0x0259       |      7 |              3 |
| [65535.22](#event-6553522) | 0x0260       |     15 |              5 |
| [65535.23](#event-6553523) | 0x026F       |     15 |              5 |

## DAT References (imed_data)

|   Index | Hex Value   |   Dec Value |
|---------|-------------|-------------|
|       0 | 0x0007      |           7 |
|       1 | 0x0064      |         100 |
|       2 | 0xFFFE4348  |  4294853448 |
|       3 | 0xFFF80F4F  |  4294446927 |
|       4 | 0xFFFFEFD8  |  4294963160 |
|       5 | 0x0FBA      |        4026 |
|       6 | 0x3F7D3     |      260051 |
|       7 | 0xFFF93CE3  |  4294524131 |
|       8 | 0xFFFFBC9E  |  4294950046 |
|       9 | 0x0439      |        1081 |
|      10 | 0x34145     |      213317 |
|      11 | 0xFFFE27FF  |  4294846463 |
|      12 | 0x01F3      |         499 |
|      13 | 0x0BF4      |        3060 |
|      14 | 0x58F5A     |      364378 |
|      15 | 0x18628     |       99880 |
|      16 | 0xFFFFCC3F  |  4294954047 |
|      17 | 0x0020      |          32 |
|      18 | 0xFFFAED24  |  4294634788 |
|      19 | 0x16DC8     |       93640 |
|      20 | 0xFFFFDA98  |  4294957720 |
|      21 | 0x02AB      |         683 |
|      22 | 0xFFFA2B46  |  4294585158 |
|      23 | 0x8D117     |      577815 |
|      24 | 0xFFFF9B00  |  4294941440 |
|      25 | 0x0AA8      |        2728 |
|      26 | 0x47073     |      290931 |
|      27 | 0x9ED26     |      650534 |
|      28 | 0xFFFF7D6F  |  4294933871 |
|      29 | 0x0DF6      |        3574 |
|      30 | 0xFFFF14A3  |  4294907043 |
|      31 | 0xB0E2E     |      724526 |
|      32 | 0xFFFF6E7F  |  4294930047 |
|      33 | 0x0C08      |        3080 |
|      34 | 0x3F699     |      259737 |
|      35 | 0xFFF8D182  |  4294496642 |
|      36 | 0xFFFFCDCD  |  4294954445 |
|      37 | 0x000D      |          13 |
|      38 | 0x3F703     |      259843 |
|      39 | 0xFFF8EDC3  |  4294503875 |
|      40 | 0xFFFFBFBF  |  4294950847 |
|      41 | 0x3F68B     |      259723 |
|      42 | 0xFFF8F9C4  |  4294506948 |
|      43 | 0xFFFFBC9F  |  4294950047 |
|      44 | 0x3F567     |      259431 |
|      45 | 0xFFF8FEF0  |  4294508272 |
|      46 | 0x00C8      |         200 |
|      47 | 0x0000      |           0 |
|      48 | 0x0013      |          19 |
|      49 | 0x0090      |         144 |
|      50 | 0x003C      |          60 |
|      51 | 0xFFFE446E  |  4294853742 |
|      52 | 0xFFF80F7E  |  4294446974 |
|      53 | 0xFFFFEFC6  |  4294963142 |
|      54 | 0x0827      |        2087 |
|      55 | 0x0005      |           5 |
|      56 | 0x1E28      |        7720 |
|      57 | 0x001E      |          30 |
|      58 | 0x1E29      |        7721 |
|      59 | 0x1E2A      |        7722 |
|      60 | 0x1E2E      |        7726 |
|      61 | 0x1E2B      |        7723 |
|      62 | 0x00C9      |         201 |
|      63 | 0x000A      |          10 |
|      64 | 0xFFFE57C8  |  4294858696 |
|      65 | 0xFFF810C0  |  4294447296 |
|      66 | 0xFFFFEE91  |  4294962833 |
|      67 | 0x0001      |           1 |
|      68 | 0x5FA5E     |      391774 |
|      69 | 0xA470      |       42096 |
|      70 | 0xFFFFC38A  |  4294951818 |
|      71 | 0x5FE20     |      392736 |
|      72 | 0xA642      |       42562 |
|      73 | 0xFFFFC312  |  4294951698 |

## Events

### Event 65535

#### Metadata

| Field        | Value   |
|--------------|---------|
| Entrypoint   | 0x0000  |
| Data Size    | 1 bytes |
| Instructions | 1       |

```
      00 01 02 03 04 05 06 07  08 09 0A 0B 0C 0D 0E 0F
      -- -- -- -- -- -- -- --  -- -- -- -- -- -- -- --
0000: 00                                                .               
```

#### Opcodes

```
  0: 0x0000 [0x00] END_REQSTACK()
```

### Event 65534

#### Metadata

| Field        | Value   |
|--------------|---------|
| Entrypoint   | 0x0001  |
| Data Size    | 1 bytes |
| Instructions | 1       |

```
      00 01 02 03 04 05 06 07  08 09 0A 0B 0C 0D 0E 0F
      -- -- -- -- -- -- -- --  -- -- -- -- -- -- -- --
0000:    00                                              .              
```

#### Opcodes

```
  0: 0x0001 [0x00] END_REQSTACK()
```

### Event 65535.1

#### Metadata

| Field        | Value   |
|--------------|---------|
| Entrypoint   | 0x0002  |
| Data Size    | 6 bytes |
| Instructions | 2       |

```
      00 01 02 03 04 05 06 07  08 09 0A 0B 0C 0D 0E 0F
      -- -- -- -- -- -- -- --  -- -- -- -- -- -- -- --
0000:       03 02 10 0B 7F 00                             ......        
```

#### Opcodes

```
  0: 0x0002 [0x03] Work_Zone[2] = (Entity->Render.Flags01 >> 25) & 1
  1: 0x0007 [0x00] END_REQSTACK()
```

### Event 65535.2

#### Metadata

| Field        | Value   |
|--------------|---------|
| Entrypoint   | 0x0008  |
| Data Size    | 6 bytes |
| Instructions | 2       |

```
      00 01 02 03 04 05 06 07  08 09 0A 0B 0C 0D 0E 0F
      -- -- -- -- -- -- -- --  -- -- -- -- -- -- -- --
0000:                          03 02 10 07 7F 00                ......  
```

#### Opcodes

```
  0: 0x0008 [0x03] Work_Zone[2] = Entity->Race
  1: 0x000D [0x00] END_REQSTACK()
```

### Event 65535.3

#### Metadata

| Field        | Value   |
|--------------|---------|
| Entrypoint   | 0x000E  |
| Data Size    | 6 bytes |
| Instructions | 2       |

```
      00 01 02 03 04 05 06 07  08 09 0A 0B 0C 0D 0E 0F
      -- -- -- -- -- -- -- --  -- -- -- -- -- -- -- --
0000:                                            03 09                ..
0010: 10 07 7F 00                                       ....            
```

#### Opcodes

```
  0: 0x000E [0x03] Work_Zone[9] = Entity->Race
  1: 0x0013 [0x00] END_REQSTACK()
```

### Event 65535.4

#### Metadata

| Field        | Value   |
|--------------|---------|
| Entrypoint   | 0x0014  |
| Data Size    | 6 bytes |
| Instructions | 2       |

```
      00 01 02 03 04 05 06 07  08 09 0A 0B 0C 0D 0E 0F
      -- -- -- -- -- -- -- --  -- -- -- -- -- -- -- --
0010:             03 02 10 06  7F 00                        ......      
```

#### Opcodes

```
  0: 0x0014 [0x03] Work_Zone[2] = Entity->JobId (if LocalPlayer)
  1: 0x0019 [0x00] END_REQSTACK()
```

### Event 65535.5

#### Metadata

| Field        | Value    |
|--------------|----------|
| Entrypoint   | 0x001A   |
| Data Size    | 13 bytes |
| Instructions | 3        |

```
      00 01 02 03 04 05 06 07  08 09 0A 0B 0C 0D 0E 0F
      -- -- -- -- -- -- -- --  -- -- -- -- -- -- -- --
0010:                                6E F0 FF FF 7F 00            n.....
0020: 80 99 F0 FF FF 7F 00                              .......         
```

#### Opcodes

```
  0: 0x001A [0x6E] LocalPlayer uses emote 7*
  1: 0x0021 [0x99] Wait for LocalPlayer animation to complete
  2: 0x0026 [0x00] END_REQSTACK()
```

### Event 65535.6

#### Metadata

| Field        | Value   |
|--------------|---------|
| Entrypoint   | 0x0027  |
| Data Size    | 4 bytes |
| Instructions | 2       |

```
      00 01 02 03 04 05 06 07  08 09 0A 0B 0C 0D 0E 0F
      -- -- -- -- -- -- -- --  -- -- -- -- -- -- -- --
0020:                      1C  01 80 00                        ....     
```

#### Opcodes

```
  0: 0x0027 [0x1C] WAIT(100* ticks)
  1: 0x002A [0x00] END_REQSTACK()
```

### Event 1

#### Metadata

| Field        | Value   |
|--------------|---------|
| Entrypoint   | 0x002B  |
| Data Size    | 1 bytes |
| Instructions | 1       |

```
      00 01 02 03 04 05 06 07  08 09 0A 0B 0C 0D 0E 0F
      -- -- -- -- -- -- -- --  -- -- -- -- -- -- -- --
0020:                                   00                         .    
```

#### Opcodes

```
  0: 0x002B [0x00] END_REQSTACK()
```

### Event 31

#### Metadata

| Field        | Value   |
|--------------|---------|
| Entrypoint   | 0x002C  |
| Data Size    | 1 bytes |
| Instructions | 1       |

```
      00 01 02 03 04 05 06 07  08 09 0A 0B 0C 0D 0E 0F
      -- -- -- -- -- -- -- --  -- -- -- -- -- -- -- --
0020:                                      00                       .   
```

#### Opcodes

```
  0: 0x002C [0x00] END_REQSTACK()
```

### Event 32

#### Metadata

| Field        | Value   |
|--------------|---------|
| Entrypoint   | 0x002D  |
| Data Size    | 1 bytes |
| Instructions | 1       |

```
      00 01 02 03 04 05 06 07  08 09 0A 0B 0C 0D 0E 0F
      -- -- -- -- -- -- -- --  -- -- -- -- -- -- -- --
0020:                                         00                     .  
```

#### Opcodes

```
  0: 0x002D [0x00] END_REQSTACK()
```

### Event 65535.7

#### Metadata

| Field        | Value    |
|--------------|----------|
| Entrypoint   | 0x002E   |
| Data Size    | 13 bytes |
| Instructions | 3        |

```
      00 01 02 03 04 05 06 07  08 09 0A 0B 0C 0D 0E 0F
      -- -- -- -- -- -- -- --  -- -- -- -- -- -- -- --
0020:                                            47 00                G.
0030: 02 80 03 80 04 80 05 80  47 01 00                 ........G..     
```

#### Opcodes

```
  0: 0x002E [0x47] UPDATE_PLAYER_POS(-113.848*, -520.369*, -4.136*, yaw=353.8°*)
  1: 0x0038 [0x47] WAIT_PLAYER_POS_UPDATE
  2: 0x003A [0x00] END_REQSTACK()
```

### Event 65535.8

#### Metadata

| Field        | Value    |
|--------------|----------|
| Entrypoint   | 0x003B   |
| Data Size    | 13 bytes |
| Instructions | 3        |

```
      00 01 02 03 04 05 06 07  08 09 0A 0B 0C 0D 0E 0F
      -- -- -- -- -- -- -- --  -- -- -- -- -- -- -- --
0030:                                   47 00 06 80 07             G....
0040: 80 08 80 09 80 47 01 00                           .....G..        
```

#### Opcodes

```
  0: 0x003B [0x47] UPDATE_PLAYER_POS(260.051*, -443.165*, -17.250*, yaw=95.0°*)
  1: 0x0045 [0x47] WAIT_PLAYER_POS_UPDATE
  2: 0x0047 [0x00] END_REQSTACK()
```

### Event 65535.9

#### Metadata

| Field        | Value    |
|--------------|----------|
| Entrypoint   | 0x0048   |
| Data Size    | 13 bytes |
| Instructions | 3        |

```
      00 01 02 03 04 05 06 07  08 09 0A 0B 0C 0D 0E 0F
      -- -- -- -- -- -- -- --  -- -- -- -- -- -- -- --
0040:                          47 00 0A 80 0B 80 0C 80          G.......
0050: 0D 80 47 01 00                                    ..G..           
```

#### Opcodes

```
  0: 0x0048 [0x47] UPDATE_PLAYER_POS(213.317*, -120.833*, 0.499*, yaw=268.9°*)
  1: 0x0052 [0x47] WAIT_PLAYER_POS_UPDATE
  2: 0x0054 [0x00] END_REQSTACK()
```

### Event 65535.10

#### Metadata

| Field        | Value    |
|--------------|----------|
| Entrypoint   | 0x0055   |
| Data Size    | 13 bytes |
| Instructions | 3        |

```
      00 01 02 03 04 05 06 07  08 09 0A 0B 0C 0D 0E 0F
      -- -- -- -- -- -- -- --  -- -- -- -- -- -- -- --
0050:                47 00 0E  80 0F 80 10 80 11 80 47       G.........G
0060: 01 00                                             ..              
```

#### Opcodes

```
  0: 0x0055 [0x47] UPDATE_PLAYER_POS(364.378*, 99.880*, -13.249*, yaw=2.8°*)
  1: 0x005F [0x47] WAIT_PLAYER_POS_UPDATE
  2: 0x0061 [0x00] END_REQSTACK()
```

### Event 65535.11

#### Metadata

| Field        | Value    |
|--------------|----------|
| Entrypoint   | 0x0062   |
| Data Size    | 13 bytes |
| Instructions | 3        |

```
      00 01 02 03 04 05 06 07  08 09 0A 0B 0C 0D 0E 0F
      -- -- -- -- -- -- -- --  -- -- -- -- -- -- -- --
0060:       47 00 12 80 13 80  14 80 15 80 47 01 00       G.........G.. 
```

#### Opcodes

```
  0: 0x0062 [0x47] UPDATE_PLAYER_POS(-332.508*, 93.640*, -9.576*, yaw=60.0°*)
  1: 0x006C [0x47] WAIT_PLAYER_POS_UPDATE
  2: 0x006E [0x00] END_REQSTACK()
```

### Event 65535.12

#### Metadata

| Field        | Value    |
|--------------|----------|
| Entrypoint   | 0x006F   |
| Data Size    | 13 bytes |
| Instructions | 3        |

```
      00 01 02 03 04 05 06 07  08 09 0A 0B 0C 0D 0E 0F
      -- -- -- -- -- -- -- --  -- -- -- -- -- -- -- --
0060:                                               47                 G
0070: 00 16 80 17 80 18 80 19  80 47 01 00              .........G..    
```

#### Opcodes

```
  0: 0x006F [0x47] UPDATE_PLAYER_POS(-382.138*, 577.815*, -25.856*, yaw=239.8°*)
  1: 0x0079 [0x47] WAIT_PLAYER_POS_UPDATE
  2: 0x007B [0x00] END_REQSTACK()
```

### Event 65535.13

#### Metadata

| Field        | Value    |
|--------------|----------|
| Entrypoint   | 0x007C   |
| Data Size    | 13 bytes |
| Instructions | 3        |

```
      00 01 02 03 04 05 06 07  08 09 0A 0B 0C 0D 0E 0F
      -- -- -- -- -- -- -- --  -- -- -- -- -- -- -- --
0070:                                      47 00 1A 80              G...
0080: 1B 80 1C 80 1D 80 47 01  00                       ......G..       
```

#### Opcodes

```
  0: 0x007C [0x47] UPDATE_PLAYER_POS(290.931*, 650.534*, -33.425*, yaw=314.1°*)
  1: 0x0086 [0x47] WAIT_PLAYER_POS_UPDATE
  2: 0x0088 [0x00] END_REQSTACK()
```

### Event 65535.14

#### Metadata

| Field        | Value    |
|--------------|----------|
| Entrypoint   | 0x0089   |
| Data Size    | 13 bytes |
| Instructions | 3        |

```
      00 01 02 03 04 05 06 07  08 09 0A 0B 0C 0D 0E 0F
      -- -- -- -- -- -- -- --  -- -- -- -- -- -- -- --
0080:                             47 00 1E 80 1F 80 20           G..... 
0090: 80 21 80 47 01 00                                 .!.G..          
```

#### Opcodes

```
  0: 0x0089 [0x47] UPDATE_PLAYER_POS(-60.253*, 724.526*, -37.249*, yaw=270.7°*)
  1: 0x0093 [0x47] WAIT_PLAYER_POS_UPDATE
  2: 0x0095 [0x00] END_REQSTACK()
```

### Event 65535.15

#### Metadata

| Field        | Value    |
|--------------|----------|
| Entrypoint   | 0x0096   |
| Data Size    | 21 bytes |
| Instructions | 5        |

```
      00 01 02 03 04 05 06 07  08 09 0A 0B 0C 0D 0E 0F
      -- -- -- -- -- -- -- --  -- -- -- -- -- -- -- --
0090:                   36 22  80 23 80 24 80 32 25 80        6".#.$.2%.
00A0: 5A 00 26 80 27 80 28 80  5A 01 00                 Z.&.'.(.Z..     
```

#### Opcodes

```
  0: 0x0096 [0x36] SET_ENTITY_EVENT_POSITION(pos_x=259.737*, pos_z=-470.654*, pos_y=-12.851*)
  1: 0x009D [0x32] ExtData[1]->MainSpeed = 13* * 0.1
  2: 0x00A0 [0x5A] UPDATE_EVENT_POSITION: Set EventEntity MovePosition to X=259.843*, Z=-463.421*, Y=-16.449*
  3: 0x00A8 [0x5A] UPDATE_EVENT_POSITION: Move EventEntity incrementally towards MovePosition
  4: 0x00AA [0x00] END_REQSTACK()
```

### Event 65535.16

#### Metadata

| Field        | Value    |
|--------------|----------|
| Entrypoint   | 0x00AB   |
| Data Size    | 14 bytes |
| Instructions | 4        |

```
      00 01 02 03 04 05 06 07  08 09 0A 0B 0C 0D 0E 0F
      -- -- -- -- -- -- -- --  -- -- -- -- -- -- -- --
00A0:                                   32 25 80 1F 00             2%...
00B0: 29 80 2A 80 2B 80 1F 01  00                       ).*.+....       
```

#### Opcodes

```
  0: 0x00AB [0x32] ExtData[1]->MainSpeed = 13* * 0.1
  1: 0x00AE [0x1F] MOVE_ENTITY: EventEntity moves to X=259.723*, Z=-460.348*, Y=-17.249*
  2: 0x00B6 [0x1F] MOVE_ENTITY: Update entity position (mode=1)
  3: 0x00B8 [0x00] END_REQSTACK()
```

### Event 65535.17

#### Metadata

| Field        | Value    |
|--------------|----------|
| Entrypoint   | 0x00B9   |
| Data Size    | 14 bytes |
| Instructions | 4        |

```
      00 01 02 03 04 05 06 07  08 09 0A 0B 0C 0D 0E 0F
      -- -- -- -- -- -- -- --  -- -- -- -- -- -- -- --
00B0:                             32 25 80 1F 00 2C 80           2%...,.
00C0: 2D 80 2B 80 1F 01 00                              -.+....         
```

#### Opcodes

```
  0: 0x00B9 [0x32] ExtData[1]->MainSpeed = 13* * 0.1
  1: 0x00BC [0x1F] MOVE_ENTITY: EventEntity moves to X=259.431*, Z=-459.024*, Y=-17.249*
  2: 0x00C4 [0x1F] MOVE_ENTITY: Update entity position (mode=1)
  3: 0x00C6 [0x00] END_REQSTACK()
```

### Event 901

#### Metadata

| Field        | Value     |
|--------------|-----------|
| Entrypoint   | 0x00C7    |
| Data Size    | 370 bytes |
| Instructions | 49        |

```
      00 01 02 03 04 05 06 07  08 09 0A 0B 0C 0D 0E 0F
      -- -- -- -- -- -- -- --  -- -- -- -- -- -- -- --
00C0:                      42  46 01 03 01 00 05 10 45         BF......E
00D0: 2E 80 F8 FF FF 7F F8 FF  FF 7F 66 64 6F 30 2F 80  ..........fdo0/.
00E0: 55 2E 80 F8 FF FF 7F F8  FF FF 7F 66 64 6F 30 4E  U..........fdo0N
00F0: 00 D1 42 07 01 4E 00 D2  42 07 01 38 30 80 79 00  ..B..N..B..80.y.
0100: F0 FF FF 7F D1 42 07 01  03 05 10 02 10 03 06 10  .....B..........
0110: 02 10 03 07 10 02 10 15  05 10 31 80 15 06 10 32  ..........1....2
0120: 80 3F 07 10 07 10 32 80  37 33 80 34 80 35 80 36  .?....2.73.4.5.6
0130: 80 45 37 80 F8 FF FF 7F  F8 FF FF 7F 73 30 30 32  .E7.........s002
0140: 2F 80 4A D1 42 07 01 F0  FF FF 7F 45 2E 80 F8 FF  /.J.B......E....
0150: FF 7F F8 FF FF 7F 66 64  69 31 2F 80 2B D1 42 07  ......fdi1/.+.B.
0160: 01 38 80 23 66 39 80 D1  42 07 01 D1 42 07 01 74  .8.#f9..B...B..t
0170: 6C 6B 30 2B D1 42 07 01  3A 80 23 02 04 10 2F 80  lk0+.B..:.#.../.
0180: 01 CD 01 66 39 80 D1 42  07 01 D1 42 07 01 74 6C  ...f9..B...B..tl
0190: 6B 31 03 05 10 04 10 03  06 10 04 10 03 07 10 04  k1..............
01A0: 10 15 05 10 31 80 15 06  10 32 80 3F 07 10 07 10  ....1....2.?....
01B0: 32 80 02 01 00 2F 80 00  C5 01 2B D1 42 07 01 3B  2..../....+.B..;
01C0: 80 23 01 CD 01 2B D1 42  07 01 3C 80 23 66 39 80  .#...+.B..<.#f9.
01D0: D1 42 07 01 D1 42 07 01  70 61 73 30 2B D1 42 07  .B...B..pas0+.B.
01E0: 01 3D 80 23 52 37 80 F8  FF FF 7F F8 FF FF 7F 73  .=.#R7.........s
01F0: 30 30 32 45 2E 80 F8 FF  FF 7F F8 FF FF 7F 66 64  002E..........fd
0200: 6F 31 2F 80 55 2E 80 F8  FF FF 7F F8 FF FF 7F 66  o1/.U..........f
0210: 64 6F 31 46 00 45 3E 80  F0 FF FF 7F F0 FF FF 7F  do1F.E>.........
0220: 71 73 74 63 2F 80 45 2E  80 F8 FF FF 7F F8 FF FF  qstc/.E.........
0230: 7F 66 64 69 32 2F 80 21  00                       .fdi2/.!.       
```

#### Opcodes

```
  0: 0x00C7 [0x42] SET_CLI_EVENT_CANCEL_DATA()
  1: 0x00C8 [0x46] CAMERA_CONTROL: Disable user control
  2: 0x00CA [0x03] ExtData[1]->WorkLocal[1] = Work_Zone[5]
  3: 0x00CF [0x45] LOAD_SCHEDULED_TASK: Load scheduler "fdo0" with entities [EventEntity, EventEntity], work=[200*, 0*]
  4: 0x00E0 [0x55] WAIT_LOAD_SCHEDULER: Wait for scheduler "fdo0" with entities [EventEntity, EventEntity], work=200*
  5: 0x00EF [0x4E] SET_ENTITY_HIDE_FLAG: Show Orlaine (ID: 17253073/0x010742D1)
  6: 0x00F5 [0x4E] SET_ENTITY_HIDE_FLAG: Show Unnamed NPC (ID: 17253074/0x010742D2)
  7: 0x00FB [0x38] SET_CLIENT_EVENT_MODE(mode=19*)
  8: 0x00FE [0x79] LocalPlayer looks at Orlaine (ID: 17253073/0x010742D1) (Basic look)
  9: 0x0108 [0x03] Work_Zone[5] = Work_Zone[2]
 10: 0x010D [0x03] Work_Zone[6] = Work_Zone[2]
 11: 0x0112 [0x03] Work_Zone[7] = Work_Zone[2]
 12: 0x0117 [0x15] Work_Zone[5] /= 144*
 13: 0x011C [0x15] Work_Zone[6] /= 60*
 14: 0x0121 [0x3F] Work_Zone[7] = Work_Zone[7] % 60*
 15: 0x0128 [0x37] UPDATE_EVENT_POSITION_AND_DIR: x=-113.554*, z=-520.322*, y=-4.154*, direction=183.4°*
 16: 0x0131 [0x45] LOAD_SCHEDULED_TASK: Load scheduler "s002" with entities [EventEntity, EventEntity], work=[5*, 0*]
 17: 0x0142 [0x4A] Orlaine (ID: 17253073/0x010742D1) looks at LocalPlayer
 18: 0x014B [0x45] LOAD_SCHEDULED_TASK: Load scheduler "fdi1" with entities [EventEntity, EventEntity], work=[200*, 0*]
 19: 0x015C [0x2B] Orlaine (ID: 17253073/0x010742D1) [7720*]:
    → "You've helped our poor girl find her way home! I don't know how to thank you!"
 20: 0x0163 [0x23] WAIT_FOR_DIALOG_INTERACTION
 21: 0x0164 [0x66] LOAD_EXT_SCHEDULER_MAIN: Load scheduler "tlk0" with entities [Orlaine (ID: 17253073/0x010742D1), Orlaine (ID: 17253073/0x010742D1)], work=30*
 22: 0x0173 [0x2B] Orlaine (ID: 17253073/0x010742D1) [7721*]:
    → "And to think you made it here in a mere $3 [hour/hours] ($4 [minute/minutes] and $5 [second/seconds] Earth time)!"
 23: 0x017A [0x23] WAIT_FOR_DIALOG_INTERACTION
 24: 0x017B [0x02] IF !(Work_Zone[4] == 0*) GOTO 0x01CD
 25: 0x0183 [0x66] LOAD_EXT_SCHEDULER_MAIN: Load scheduler "tlk1" with entities [Orlaine (ID: 17253073/0x010742D1), Orlaine (ID: 17253073/0x010742D1)], work=30*
 26: 0x0192 [0x03] Work_Zone[5] = Work_Zone[4]
 27: 0x0197 [0x03] Work_Zone[6] = Work_Zone[4]
 28: 0x019C [0x03] Work_Zone[7] = Work_Zone[4]
 29: 0x01A1 [0x15] Work_Zone[5] /= 144*
 30: 0x01A6 [0x15] Work_Zone[6] /= 60*
 31: 0x01AB [0x3F] Work_Zone[7] = Work_Zone[7] % 60*
 32: 0x01B2 [0x02] IF !(ExtData[1]->WorkLocal[1] == 0*) GOTO 0x01C5
 33: 0x01BA [0x2B] Orlaine (ID: 17253073/0x010742D1) [7722*]:
    → "Oh, and by the way, the fastest adventurer to date has been %0. That talented rider traversed the same course as you in $3 [hour/hours] ($4 [minute/minutes] and $5 [second/seconds] Earth time)!"
 34: 0x01C1 [0x23] WAIT_FOR_DIALOG_INTERACTION
 35: 0x01C2 [0x01] GOTO 0x01CD
 36: 0x01C5 [0x2B] Orlaine (ID: 17253073/0x010742D1) [7726*]:
    → "Oh, and by the way, the fastest adventurer to date has been...you! Your remarkable record of $3 [hour/hours] ($4 [minute/minutes] and $5 [second/seconds] Earth time) still stands strong!"
 37: 0x01CC [0x23] WAIT_FOR_DIALOG_INTERACTION

SUBROUTINE_01CD:
 38: 0x01CD [0x66] LOAD_EXT_SCHEDULER_MAIN: Load scheduler "pas0" with entities [Orlaine (ID: 17253073/0x010742D1), Orlaine (ID: 17253073/0x010742D1)], work=30*
 39: 0x01DC [0x2B] Orlaine (ID: 17253073/0x010742D1) [7723*]:
    → "Anyway, please take this as a token of our appreciation. And stop by again sometime. We may have more work for you!"
 40: 0x01E3 [0x23] WAIT_FOR_DIALOG_INTERACTION
 41: 0x01E4 [0x52] END_LOAD_SCHEDULER: End scheduler "s002" with entities [EventEntity, EventEntity], work=5*
 42: 0x01F3 [0x45] LOAD_SCHEDULED_TASK: Load scheduler "fdo1" with entities [EventEntity, EventEntity], work=[200*, 0*]
 43: 0x0204 [0x55] WAIT_LOAD_SCHEDULER: Wait for scheduler "fdo1" with entities [EventEntity, EventEntity], work=200*
 44: 0x0213 [0x46] CAMERA_CONTROL: Restore default settings
 45: 0x0215 [0x45] LOAD_SCHEDULED_TASK: Load scheduler "qstc" with entities [LocalPlayer, LocalPlayer], work=[201*, 0*]
 46: 0x0226 [0x45] LOAD_SCHEDULED_TASK: Load scheduler "fdi2" with entities [EventEntity, EventEntity], work=[200*, 0*]
 47: 0x0237 [0x21] END_EVENT
 48: 0x0238 [0x00] END_REQSTACK()
```

### Event 65535.18

#### Metadata

| Field        | Value    |
|--------------|----------|
| Entrypoint   | 0x0239   |
| Data Size    | 11 bytes |
| Instructions | 4        |

```
      00 01 02 03 04 05 06 07  08 09 0A 0B 0C 0D 0E 0F
      -- -- -- -- -- -- -- --  -- -- -- -- -- -- -- --
0230:                             22 00 94 01 F8 FF FF           "......
0240: 7F A4 01 00                                       ....            
```

#### Opcodes

```
  0: 0x0239 [0x22] ENTITY_HIDE_FLAG(enabled=0x00)
  1: 0x023B [0x94] EventEntity->Render.Flags3 ^= 0x01
  2: 0x0241 [0xA4] EventEntity->Flags3.unknown_3_2 = 1
  3: 0x0243 [0x00] END_REQSTACK()
```

### Event 65535.19

#### Metadata

| Field        | Value    |
|--------------|----------|
| Entrypoint   | 0x0244   |
| Data Size    | 14 bytes |
| Instructions | 4        |

```
      00 01 02 03 04 05 06 07  08 09 0A 0B 0C 0D 0E 0F
      -- -- -- -- -- -- -- --  -- -- -- -- -- -- -- --
0240:             32 3F 80 1F  00 40 80 41 80 42 80 1F      2?...@.A.B..
0250: 01 00                                             ..              
```

#### Opcodes

```
  0: 0x0244 [0x32] ExtData[1]->MainSpeed = 10* * 0.1
  1: 0x0247 [0x1F] MOVE_ENTITY: EventEntity moves to X=-108.600*, Z=-520.000*, Y=-4.463*
  2: 0x024F [0x1F] MOVE_ENTITY: Update entity position (mode=1)
  3: 0x0251 [0x00] END_REQSTACK()
```

### Event 65535.20

#### Metadata

| Field        | Value   |
|--------------|---------|
| Entrypoint   | 0x0252  |
| Data Size    | 7 bytes |
| Instructions | 3       |

```
      00 01 02 03 04 05 06 07  08 09 0A 0B 0C 0D 0E 0F
      -- -- -- -- -- -- -- --  -- -- -- -- -- -- -- --
0250:       AB 03 AC 01 43 80  00                         ....C..       
```

#### Opcodes

```
  0: 0x0252 [0xAB] EventEntity->Render.Flags0 ^= 0x20000 // Toggle bit 17
  1: 0x0254 [0xAC] EventEntity->StatusEvent = 1*
  2: 0x0258 [0x00] END_REQSTACK()
```

### Event 65535.21

#### Metadata

| Field        | Value   |
|--------------|---------|
| Entrypoint   | 0x0259  |
| Data Size    | 7 bytes |
| Instructions | 3       |

```
      00 01 02 03 04 05 06 07  08 09 0A 0B 0C 0D 0E 0F
      -- -- -- -- -- -- -- --  -- -- -- -- -- -- -- --
0250:                             AC 01 2F 80 AB 04 00           ../....
```

#### Opcodes

```
  0: 0x0259 [0xAC] EventEntity->StatusEvent = 0*
  1: 0x025D [0xAB] EventEntity->Render.Flags0 |= 0x40000 // Set bit 18
  2: 0x025F [0x00] END_REQSTACK()
```

### Event 65535.22

#### Metadata

| Field        | Value    |
|--------------|----------|
| Entrypoint   | 0x0260   |
| Data Size    | 15 bytes |
| Instructions | 5        |

```
      00 01 02 03 04 05 06 07  08 09 0A 0B 0C 0D 0E 0F
      -- -- -- -- -- -- -- --  -- -- -- -- -- -- -- --
0260: 32 25 80 1F 00 44 80 45  80 46 80 1F 01 6F 00     2%...D.E.F...o. 
```

#### Opcodes

```
  0: 0x0260 [0x32] ExtData[1]->MainSpeed = 13* * 0.1
  1: 0x0263 [0x1F] MOVE_ENTITY: EventEntity moves to X=391.774*, Z=42.096*, Y=-15.478*
  2: 0x026B [0x1F] MOVE_ENTITY: Update entity position (mode=1)
  3: 0x026D [0x6F] WAIT_FRAME_DELAY: Yield until WaitTime reaches zero
  4: 0x026E [0x00] END_REQSTACK()
```

### Event 65535.23

#### Metadata

| Field        | Value    |
|--------------|----------|
| Entrypoint   | 0x026F   |
| Data Size    | 15 bytes |
| Instructions | 5        |

```
      00 01 02 03 04 05 06 07  08 09 0A 0B 0C 0D 0E 0F
      -- -- -- -- -- -- -- --  -- -- -- -- -- -- -- --
0260:                                               32                 2
0270: 25 80 1F 00 47 80 48 80  49 80 1F 01 6F 00        %...G.H.I...o.  
```

#### Opcodes

```
  0: 0x026F [0x32] ExtData[1]->MainSpeed = 13* * 0.1
  1: 0x0272 [0x1F] MOVE_ENTITY: EventEntity moves to X=392.736*, Z=42.562*, Y=-15.598*
  2: 0x027A [0x1F] MOVE_ENTITY: Update entity position (mode=1)
  3: 0x027C [0x6F] WAIT_FRAME_DELAY: Yield until WaitTime reaches zero
  4: 0x027D [0x00] END_REQSTACK()
```
