# 17572294 - Semih Lafihna

## Common Data

| Field            | Value                          |
|------------------|--------------------------------|
| Zone             | Outer Horutoto Ruins (ID: 194) |
| Block Size       | 1052 bytes                     |
| Total Events     | 53                             |
| References Count | 15                             |

## List of Events

| Event ID                   | Entrypoint   |   Size |   Instructions |
|----------------------------|--------------|--------|----------------|
| [65535](#event-65535)      | 0x0000       |      1 |              1 |
| [65535.1](#event-655351)   | 0x0001       |     16 |              2 |
| [65535.2](#event-655352)   | 0x0011       |     14 |              2 |
| [65535.3](#event-655353)   | 0x001F       |     37 |              5 |
| [65535.4](#event-655354)   | 0x0044       |     16 |              2 |
| [65535.5](#event-655355)   | 0x0054       |     14 |              2 |
| [65535.6](#event-655356)   | 0x0062       |     16 |              2 |
| [65535.7](#event-655357)   | 0x0072       |     14 |              2 |
| [65535.8](#event-655358)   | 0x0080       |     16 |              2 |
| [65535.9](#event-655359)   | 0x0090       |     14 |              2 |
| [65535.10](#event-6553510) | 0x009E       |     16 |              2 |
| [65535.11](#event-6553511) | 0x00AE       |     14 |              2 |
| [65535.12](#event-6553512) | 0x00BC       |     22 |              3 |
| [65535.13](#event-6553513) | 0x00D2       |     20 |              3 |
| [65535.14](#event-6553514) | 0x00E6       |     16 |              2 |
| [65535.15](#event-6553515) | 0x00F6       |     14 |              2 |
| [65535.16](#event-6553516) | 0x0104       |     16 |              2 |
| [65535.17](#event-6553517) | 0x0114       |     14 |              2 |
| [65535.18](#event-6553518) | 0x0122       |     29 |              3 |
| [65535.19](#event-6553519) | 0x013F       |     16 |              2 |
| [65535.20](#event-6553520) | 0x014F       |     14 |              2 |
| [65535.21](#event-6553521) | 0x015D       |     29 |              3 |
| [65535.22](#event-6553522) | 0x017A       |     29 |              3 |
| [65535.23](#event-6553523) | 0x0197       |     16 |              2 |
| [65535.24](#event-6553524) | 0x01A7       |     14 |              2 |
| [65535.25](#event-6553525) | 0x01B5       |     16 |              2 |
| [65535.26](#event-6553526) | 0x01C5       |     14 |              2 |
| [65535.27](#event-6553527) | 0x01D3       |     16 |              2 |
| [65535.28](#event-6553528) | 0x01E3       |     14 |              2 |
| [65535.29](#event-6553529) | 0x01F1       |     16 |              2 |
| [65535.30](#event-6553530) | 0x0201       |     14 |              2 |
| [65535.31](#event-6553531) | 0x020F       |     16 |              2 |
| [65535.32](#event-6553532) | 0x021F       |     14 |              2 |
| [65535.33](#event-6553533) | 0x022D       |      9 |              3 |
| [65535.34](#event-6553534) | 0x0236       |     16 |              2 |
| [65535.35](#event-6553535) | 0x0246       |     14 |              2 |
| [65535.36](#event-6553536) | 0x0254       |     16 |              2 |
| [65535.37](#event-6553537) | 0x0264       |     14 |              2 |
| [65535.38](#event-6553538) | 0x0272       |     16 |              2 |
| [65535.39](#event-6553539) | 0x0282       |     14 |              2 |
| [65535.40](#event-6553540) | 0x0290       |     16 |              2 |
| [65535.41](#event-6553541) | 0x02A0       |     14 |              2 |
| [65535.42](#event-6553542) | 0x02AE       |     16 |              2 |
| [65535.43](#event-6553543) | 0x02BE       |     14 |              2 |
| [71](#event-71)            | 0x02CC       |      1 |              1 |
| [65535.44](#event-6553544) | 0x02CD       |     11 |              5 |
| [65535.45](#event-6553545) | 0x02D8       |      5 |              3 |
| [65535.46](#event-6553546) | 0x02DD       |      5 |              3 |
| [65535.47](#event-6553547) | 0x02E2       |      5 |              3 |
| [65535.48](#event-6553548) | 0x02E7       |      5 |              3 |
| [65535.49](#event-6553549) | 0x02EC       |      5 |              3 |
| [65535.50](#event-6553550) | 0x02F1       |      5 |              3 |
| [65535.51](#event-6553551) | 0x02F6       |      5 |              3 |

## DAT References (imed_data)

|   Index | Hex Value   |   Dec Value |
|---------|-------------|-------------|
|       0 | 0x0175      |         373 |
|       1 | 0x001E      |          30 |
|       2 | 0x016D      |         365 |
|       3 | 0x0165      |         357 |
|       4 | 0x0169      |         361 |
|       5 | 0x0167      |         359 |
|       6 | 0x00B3      |         179 |
|       7 | 0x0064      |         100 |
|       8 | 0x1C98      |        7320 |
|       9 | 0x1C90      |        7312 |
|      10 | 0x1C91      |        7313 |
|      11 | 0x1C94      |        7316 |
|      12 | 0x1CA6      |        7334 |
|      13 | 0x1CA7      |        7335 |
|      14 | 0x1CA9      |        7337 |

## String References

- **7312**: This is not a game, you overgrrrown puppets!
- **7313**: Your usefulness has ended! Without your master, you have no more rrreason to exist! Embrrrace the eternal slumber that awaits you!
- **7316**: You have chosen a king!? Minister Zonpa-Zippa of the Manustery still lives!?
- **7320**: You! Why are you...!
- **7334**: What!?
- **7335**: Goddess currrse you! But it seems I have little choice...
- **7337**: !!! You know of the bearer of darkness!?

## Events

### Event 65535

#### Metadata

| Field        | Value   |
|--------------|---------|
| Entrypoint   | 0x0000  |
| Data Size    | 1 bytes |
| Instructions | 1       |

```
      00 01 02 03 04 05 06 07  08 09 0A 0B 0C 0D 0E 0F
      -- -- -- -- -- -- -- --  -- -- -- -- -- -- -- --
0000: 00                                                .               
```

#### Opcodes

```
  0: 0x0000 [0x00] END_REQSTACK()
```

### Event 65535.1

#### Metadata

| Field        | Value    |
|--------------|----------|
| Entrypoint   | 0x0001   |
| Data Size    | 16 bytes |
| Instructions | 2        |

```
      00 01 02 03 04 05 06 07  08 09 0A 0B 0C 0D 0E 0F
      -- -- -- -- -- -- -- --  -- -- -- -- -- -- -- --
0000:    5B 00 80 F8 FF FF 7F  F8 FF FF 7F 74 6C 6B 30   [..........tlk0
0010: 00                                                .               
```

#### Opcodes

```
  0: 0x0001 [0x5B] LOAD_EXT_SCHEDULER: Load scheduler "tlk0" with entities [EventEntity, EventEntity], work=373*
  1: 0x0010 [0x00] END_REQSTACK()
```

### Event 65535.2

#### Metadata

| Field        | Value    |
|--------------|----------|
| Entrypoint   | 0x0011   |
| Data Size    | 14 bytes |
| Instructions | 2        |

```
      00 01 02 03 04 05 06 07  08 09 0A 0B 0C 0D 0E 0F
      -- -- -- -- -- -- -- --  -- -- -- -- -- -- -- --
0010:    53 F8 FF FF 7F F8 FF  FF 7F 74 6C 6B 30 00      S........tlk0. 
```

#### Opcodes

```
  0: 0x0011 [0x53] WAIT_SCHEDULER_TASK: Wait for scheduler "tlk0" with entities [EventEntity, EventEntity]
  1: 0x001E [0x00] END_REQSTACK()
```

### Event 65535.3

#### Metadata

| Field        | Value    |
|--------------|----------|
| Entrypoint   | 0x001F   |
| Data Size    | 37 bytes |
| Instructions | 5        |

```
      00 01 02 03 04 05 06 07  08 09 0A 0B 0C 0D 0E 0F
      -- -- -- -- -- -- -- --  -- -- -- -- -- -- -- --
0010:                                               5B                 [
0020: 00 80 F8 FF FF 7F F8 FF  FF 7F 74 6C 6B 30 53 F8  ..........tlk0S.
0030: FF FF 7F F8 FF FF 7F 74  6C 6B 30 5E 69 64 6C 30  .......tlk0^idl0
0040: 1C 01 80 00                                       ....            
```

#### Opcodes

```
  0: 0x001F [0x5B] LOAD_EXT_SCHEDULER: Load scheduler "tlk0" with entities [EventEntity, EventEntity], work=373*
  1: 0x002E [0x53] WAIT_SCHEDULER_TASK: Wait for scheduler "tlk0" with entities [EventEntity, EventEntity]
  2: 0x003B [0x5E] EventEntity goes idle (kills current action) (animation: "idl0")
  3: 0x0040 [0x1C] WAIT(30* ticks)
  4: 0x0043 [0x00] END_REQSTACK()
```

### Event 65535.4

#### Metadata

| Field        | Value    |
|--------------|----------|
| Entrypoint   | 0x0044   |
| Data Size    | 16 bytes |
| Instructions | 2        |

```
      00 01 02 03 04 05 06 07  08 09 0A 0B 0C 0D 0E 0F
      -- -- -- -- -- -- -- --  -- -- -- -- -- -- -- --
0040:             5B 00 80 F8  FF FF 7F F8 FF FF 7F 74      [..........t
0050: 6C 6B 31 00                                       lk1.            
```

#### Opcodes

```
  0: 0x0044 [0x5B] LOAD_EXT_SCHEDULER: Load scheduler "tlk1" with entities [EventEntity, EventEntity], work=373*
  1: 0x0053 [0x00] END_REQSTACK()
```

### Event 65535.5

#### Metadata

| Field        | Value    |
|--------------|----------|
| Entrypoint   | 0x0054   |
| Data Size    | 14 bytes |
| Instructions | 2        |

```
      00 01 02 03 04 05 06 07  08 09 0A 0B 0C 0D 0E 0F
      -- -- -- -- -- -- -- --  -- -- -- -- -- -- -- --
0050:             53 F8 FF FF  7F F8 FF FF 7F 74 6C 6B      S........tlk
0060: 31 00                                             1.              
```

#### Opcodes

```
  0: 0x0054 [0x53] WAIT_SCHEDULER_TASK: Wait for scheduler "tlk1" with entities [EventEntity, EventEntity]
  1: 0x0061 [0x00] END_REQSTACK()
```

### Event 65535.6

#### Metadata

| Field        | Value    |
|--------------|----------|
| Entrypoint   | 0x0062   |
| Data Size    | 16 bytes |
| Instructions | 2        |

```
      00 01 02 03 04 05 06 07  08 09 0A 0B 0C 0D 0E 0F
      -- -- -- -- -- -- -- --  -- -- -- -- -- -- -- --
0060:       5B 00 80 F8 FF FF  7F F8 FF FF 7F 62 6F 6B    [..........bok
0070: 30 00                                             0.              
```

#### Opcodes

```
  0: 0x0062 [0x5B] LOAD_EXT_SCHEDULER: Load scheduler "bok0" with entities [EventEntity, EventEntity], work=373*
  1: 0x0071 [0x00] END_REQSTACK()
```

### Event 65535.7

#### Metadata

| Field        | Value    |
|--------------|----------|
| Entrypoint   | 0x0072   |
| Data Size    | 14 bytes |
| Instructions | 2        |

```
      00 01 02 03 04 05 06 07  08 09 0A 0B 0C 0D 0E 0F
      -- -- -- -- -- -- -- --  -- -- -- -- -- -- -- --
0070:       53 F8 FF FF 7F F8  FF FF 7F 62 6F 6B 30 00    S........bok0.
```

#### Opcodes

```
  0: 0x0072 [0x53] WAIT_SCHEDULER_TASK: Wait for scheduler "bok0" with entities [EventEntity, EventEntity]
  1: 0x007F [0x00] END_REQSTACK()
```

### Event 65535.8

#### Metadata

| Field        | Value    |
|--------------|----------|
| Entrypoint   | 0x0080   |
| Data Size    | 16 bytes |
| Instructions | 2        |

```
      00 01 02 03 04 05 06 07  08 09 0A 0B 0C 0D 0E 0F
      -- -- -- -- -- -- -- --  -- -- -- -- -- -- -- --
0080: 5B 00 80 F8 FF FF 7F F8  FF FF 7F 62 6F 6B 31 00  [..........bok1.
```

#### Opcodes

```
  0: 0x0080 [0x5B] LOAD_EXT_SCHEDULER: Load scheduler "bok1" with entities [EventEntity, EventEntity], work=373*
  1: 0x008F [0x00] END_REQSTACK()
```

### Event 65535.9

#### Metadata

| Field        | Value    |
|--------------|----------|
| Entrypoint   | 0x0090   |
| Data Size    | 14 bytes |
| Instructions | 2        |

```
      00 01 02 03 04 05 06 07  08 09 0A 0B 0C 0D 0E 0F
      -- -- -- -- -- -- -- --  -- -- -- -- -- -- -- --
0090: 53 F8 FF FF 7F F8 FF FF  7F 62 6F 6B 31 00        S........bok1.  
```

#### Opcodes

```
  0: 0x0090 [0x53] WAIT_SCHEDULER_TASK: Wait for scheduler "bok1" with entities [EventEntity, EventEntity]
  1: 0x009D [0x00] END_REQSTACK()
```

### Event 65535.10

#### Metadata

| Field        | Value    |
|--------------|----------|
| Entrypoint   | 0x009E   |
| Data Size    | 16 bytes |
| Instructions | 2        |

```
      00 01 02 03 04 05 06 07  08 09 0A 0B 0C 0D 0E 0F
      -- -- -- -- -- -- -- --  -- -- -- -- -- -- -- --
0090:                                            5B 00                [.
00A0: 80 F8 FF FF 7F F8 FF FF  7F 69 62 6F 30 00        .........ibo0.  
```

#### Opcodes

```
  0: 0x009E [0x5B] LOAD_EXT_SCHEDULER: Load scheduler "ibo0" with entities [EventEntity, EventEntity], work=373*
  1: 0x00AD [0x00] END_REQSTACK()
```

### Event 65535.11

#### Metadata

| Field        | Value    |
|--------------|----------|
| Entrypoint   | 0x00AE   |
| Data Size    | 14 bytes |
| Instructions | 2        |

```
      00 01 02 03 04 05 06 07  08 09 0A 0B 0C 0D 0E 0F
      -- -- -- -- -- -- -- --  -- -- -- -- -- -- -- --
00A0:                                            53 F8                S.
00B0: FF FF 7F F8 FF FF 7F 69  62 6F 30 00              .......ibo0.    
```

#### Opcodes

```
  0: 0x00AE [0x53] WAIT_SCHEDULER_TASK: Wait for scheduler "ibo0" with entities [EventEntity, EventEntity]
  1: 0x00BB [0x00] END_REQSTACK()
```

### Event 65535.12

#### Metadata

| Field        | Value    |
|--------------|----------|
| Entrypoint   | 0x00BC   |
| Data Size    | 22 bytes |
| Instructions | 3        |

```
      00 01 02 03 04 05 06 07  08 09 0A 0B 0C 0D 0E 0F
      -- -- -- -- -- -- -- --  -- -- -- -- -- -- -- --
00B0:                                      81 00 F8 FF              ....
00C0: FF 7F 5B 00 80 F8 FF FF  7F F8 FF FF 7F 75 6E 61  ..[..........una
00D0: 30 00                                             0.              
```

#### Opcodes

```
  0: 0x00BC [0x81] SET_ENTITY_BLINKING(blink_flag=0x00, entity=EventEntity)
  1: 0x00C2 [0x5B] LOAD_EXT_SCHEDULER: Load scheduler "una0" with entities [EventEntity, EventEntity], work=373*
  2: 0x00D1 [0x00] END_REQSTACK()
```

### Event 65535.13

#### Metadata

| Field        | Value    |
|--------------|----------|
| Entrypoint   | 0x00D2   |
| Data Size    | 20 bytes |
| Instructions | 3        |

```
      00 01 02 03 04 05 06 07  08 09 0A 0B 0C 0D 0E 0F
      -- -- -- -- -- -- -- --  -- -- -- -- -- -- -- --
00D0:       53 F8 FF FF 7F F8  FF FF 7F 75 6E 61 30 81    S........una0.
00E0: 01 F8 FF FF 7F 00                                 ......          
```

#### Opcodes

```
  0: 0x00D2 [0x53] WAIT_SCHEDULER_TASK: Wait for scheduler "una0" with entities [EventEntity, EventEntity]
  1: 0x00DF [0x81] SET_ENTITY_BLINKING(blink_flag=0x01, entity=EventEntity)
  2: 0x00E5 [0x00] END_REQSTACK()
```

### Event 65535.14

#### Metadata

| Field        | Value    |
|--------------|----------|
| Entrypoint   | 0x00E6   |
| Data Size    | 16 bytes |
| Instructions | 2        |

```
      00 01 02 03 04 05 06 07  08 09 0A 0B 0C 0D 0E 0F
      -- -- -- -- -- -- -- --  -- -- -- -- -- -- -- --
00E0:                   5B 02  80 F8 FF FF 7F F8 FF FF        [.........
00F0: 7F 70 61 73 30 00                                 .pas0.          
```

#### Opcodes

```
  0: 0x00E6 [0x5B] LOAD_EXT_SCHEDULER: Load scheduler "pas0" with entities [EventEntity, EventEntity], work=365*
  1: 0x00F5 [0x00] END_REQSTACK()
```

### Event 65535.15

#### Metadata

| Field        | Value    |
|--------------|----------|
| Entrypoint   | 0x00F6   |
| Data Size    | 14 bytes |
| Instructions | 2        |

```
      00 01 02 03 04 05 06 07  08 09 0A 0B 0C 0D 0E 0F
      -- -- -- -- -- -- -- --  -- -- -- -- -- -- -- --
00F0:                   53 F8  FF FF 7F F8 FF FF 7F 70        S........p
0100: 61 73 30 00                                       as0.            
```

#### Opcodes

```
  0: 0x00F6 [0x53] WAIT_SCHEDULER_TASK: Wait for scheduler "pas0" with entities [EventEntity, EventEntity]
  1: 0x0103 [0x00] END_REQSTACK()
```

### Event 65535.16

#### Metadata

| Field        | Value    |
|--------------|----------|
| Entrypoint   | 0x0104   |
| Data Size    | 16 bytes |
| Instructions | 2        |

```
      00 01 02 03 04 05 06 07  08 09 0A 0B 0C 0D 0E 0F
      -- -- -- -- -- -- -- --  -- -- -- -- -- -- -- --
0100:             5B 03 80 F8  FF FF 7F F8 FF FF 7F 74      [..........t
0110: 68 6B 31 00                                       hk1.            
```

#### Opcodes

```
  0: 0x0104 [0x5B] LOAD_EXT_SCHEDULER: Load scheduler "thk1" with entities [EventEntity, EventEntity], work=357*
  1: 0x0113 [0x00] END_REQSTACK()
```

### Event 65535.17

#### Metadata

| Field        | Value    |
|--------------|----------|
| Entrypoint   | 0x0114   |
| Data Size    | 14 bytes |
| Instructions | 2        |

```
      00 01 02 03 04 05 06 07  08 09 0A 0B 0C 0D 0E 0F
      -- -- -- -- -- -- -- --  -- -- -- -- -- -- -- --
0110:             53 F8 FF FF  7F F8 FF FF 7F 74 68 6B      S........thk
0120: 31 00                                             1.              
```

#### Opcodes

```
  0: 0x0114 [0x53] WAIT_SCHEDULER_TASK: Wait for scheduler "thk1" with entities [EventEntity, EventEntity]
  1: 0x0121 [0x00] END_REQSTACK()
```

### Event 65535.18

#### Metadata

| Field        | Value    |
|--------------|----------|
| Entrypoint   | 0x0122   |
| Data Size    | 29 bytes |
| Instructions | 3        |

```
      00 01 02 03 04 05 06 07  08 09 0A 0B 0C 0D 0E 0F
      -- -- -- -- -- -- -- --  -- -- -- -- -- -- -- --
0120:       5B 03 80 F8 FF FF  7F F8 FF FF 7F 74 68 6B    [..........thk
0130: 31 53 F8 FF FF 7F F8 FF  FF 7F 74 68 6B 31 00     1S........thk1. 
```

#### Opcodes

```
  0: 0x0122 [0x5B] LOAD_EXT_SCHEDULER: Load scheduler "thk1" with entities [EventEntity, EventEntity], work=357*
  1: 0x0131 [0x53] WAIT_SCHEDULER_TASK: Wait for scheduler "thk1" with entities [EventEntity, EventEntity]
  2: 0x013E [0x00] END_REQSTACK()
```

### Event 65535.19

#### Metadata

| Field        | Value    |
|--------------|----------|
| Entrypoint   | 0x013F   |
| Data Size    | 16 bytes |
| Instructions | 2        |

```
      00 01 02 03 04 05 06 07  08 09 0A 0B 0C 0D 0E 0F
      -- -- -- -- -- -- -- --  -- -- -- -- -- -- -- --
0130:                                               5B                 [
0140: 03 80 F8 FF FF 7F F8 FF  FF 7F 74 68 6B 32 00     ..........thk2. 
```

#### Opcodes

```
  0: 0x013F [0x5B] LOAD_EXT_SCHEDULER: Load scheduler "thk2" with entities [EventEntity, EventEntity], work=357*
  1: 0x014E [0x00] END_REQSTACK()
```

### Event 65535.20

#### Metadata

| Field        | Value    |
|--------------|----------|
| Entrypoint   | 0x014F   |
| Data Size    | 14 bytes |
| Instructions | 2        |

```
      00 01 02 03 04 05 06 07  08 09 0A 0B 0C 0D 0E 0F
      -- -- -- -- -- -- -- --  -- -- -- -- -- -- -- --
0140:                                               53                 S
0150: F8 FF FF 7F F8 FF FF 7F  74 68 6B 32 00           ........thk2.   
```

#### Opcodes

```
  0: 0x014F [0x53] WAIT_SCHEDULER_TASK: Wait for scheduler "thk2" with entities [EventEntity, EventEntity]
  1: 0x015C [0x00] END_REQSTACK()
```

### Event 65535.21

#### Metadata

| Field        | Value    |
|--------------|----------|
| Entrypoint   | 0x015D   |
| Data Size    | 29 bytes |
| Instructions | 3        |

```
      00 01 02 03 04 05 06 07  08 09 0A 0B 0C 0D 0E 0F
      -- -- -- -- -- -- -- --  -- -- -- -- -- -- -- --
0150:                                         5B 03 80               [..
0160: F8 FF FF 7F F8 FF FF 7F  74 68 6B 32 53 F8 FF FF  ........thk2S...
0170: 7F F8 FF FF 7F 74 68 6B  32 00                    .....thk2.      
```

#### Opcodes

```
  0: 0x015D [0x5B] LOAD_EXT_SCHEDULER: Load scheduler "thk2" with entities [EventEntity, EventEntity], work=357*
  1: 0x016C [0x53] WAIT_SCHEDULER_TASK: Wait for scheduler "thk2" with entities [EventEntity, EventEntity]
  2: 0x0179 [0x00] END_REQSTACK()
```

### Event 65535.22

#### Metadata

| Field        | Value    |
|--------------|----------|
| Entrypoint   | 0x017A   |
| Data Size    | 29 bytes |
| Instructions | 3        |

```
      00 01 02 03 04 05 06 07  08 09 0A 0B 0C 0D 0E 0F
      -- -- -- -- -- -- -- --  -- -- -- -- -- -- -- --
0170:                                5B 04 80 F8 FF FF            [.....
0180: 7F F8 FF FF 7F 70 6F 69  30 53 F8 FF FF 7F F8 FF  .....poi0S......
0190: FF 7F 70 6F 69 30 00                              ..poi0.         
```

#### Opcodes

```
  0: 0x017A [0x5B] LOAD_EXT_SCHEDULER: Load scheduler "poi0" with entities [EventEntity, EventEntity], work=361*
  1: 0x0189 [0x53] WAIT_SCHEDULER_TASK: Wait for scheduler "poi0" with entities [EventEntity, EventEntity]
  2: 0x0196 [0x00] END_REQSTACK()
```

### Event 65535.23

#### Metadata

| Field        | Value    |
|--------------|----------|
| Entrypoint   | 0x0197   |
| Data Size    | 16 bytes |
| Instructions | 2        |

```
      00 01 02 03 04 05 06 07  08 09 0A 0B 0C 0D 0E 0F
      -- -- -- -- -- -- -- --  -- -- -- -- -- -- -- --
0190:                      5B  03 80 F8 FF FF 7F F8 FF         [........
01A0: FF 7F 64 69 73 30 00                              ..dis0.         
```

#### Opcodes

```
  0: 0x0197 [0x5B] LOAD_EXT_SCHEDULER: Load scheduler "dis0" with entities [EventEntity, EventEntity], work=357*
  1: 0x01A6 [0x00] END_REQSTACK()
```

### Event 65535.24

#### Metadata

| Field        | Value    |
|--------------|----------|
| Entrypoint   | 0x01A7   |
| Data Size    | 14 bytes |
| Instructions | 2        |

```
      00 01 02 03 04 05 06 07  08 09 0A 0B 0C 0D 0E 0F
      -- -- -- -- -- -- -- --  -- -- -- -- -- -- -- --
01A0:                      53  F8 FF FF 7F F8 FF FF 7F         S........
01B0: 64 69 73 30 00                                    dis0.           
```

#### Opcodes

```
  0: 0x01A7 [0x53] WAIT_SCHEDULER_TASK: Wait for scheduler "dis0" with entities [EventEntity, EventEntity]
  1: 0x01B4 [0x00] END_REQSTACK()
```

### Event 65535.25

#### Metadata

| Field        | Value    |
|--------------|----------|
| Entrypoint   | 0x01B5   |
| Data Size    | 16 bytes |
| Instructions | 2        |

```
      00 01 02 03 04 05 06 07  08 09 0A 0B 0C 0D 0E 0F
      -- -- -- -- -- -- -- --  -- -- -- -- -- -- -- --
01B0:                5B 02 80  F8 FF FF 7F F8 FF FF 7F       [..........
01C0: 74 6C 62 30 00                                    tlb0.           
```

#### Opcodes

```
  0: 0x01B5 [0x5B] LOAD_EXT_SCHEDULER: Load scheduler "tlb0" with entities [EventEntity, EventEntity], work=365*
  1: 0x01C4 [0x00] END_REQSTACK()
```

### Event 65535.26

#### Metadata

| Field        | Value    |
|--------------|----------|
| Entrypoint   | 0x01C5   |
| Data Size    | 14 bytes |
| Instructions | 2        |

```
      00 01 02 03 04 05 06 07  08 09 0A 0B 0C 0D 0E 0F
      -- -- -- -- -- -- -- --  -- -- -- -- -- -- -- --
01C0:                53 F8 FF  FF 7F F8 FF FF 7F 74 6C       S........tl
01D0: 62 30 00                                          b0.             
```

#### Opcodes

```
  0: 0x01C5 [0x53] WAIT_SCHEDULER_TASK: Wait for scheduler "tlb0" with entities [EventEntity, EventEntity]
  1: 0x01D2 [0x00] END_REQSTACK()
```

### Event 65535.27

#### Metadata

| Field        | Value    |
|--------------|----------|
| Entrypoint   | 0x01D3   |
| Data Size    | 16 bytes |
| Instructions | 2        |

```
      00 01 02 03 04 05 06 07  08 09 0A 0B 0C 0D 0E 0F
      -- -- -- -- -- -- -- --  -- -- -- -- -- -- -- --
01D0:          5B 02 80 F8 FF  FF 7F F8 FF FF 7F 74 6C     [..........tl
01E0: 62 31 00                                          b1.             
```

#### Opcodes

```
  0: 0x01D3 [0x5B] LOAD_EXT_SCHEDULER: Load scheduler "tlb1" with entities [EventEntity, EventEntity], work=365*
  1: 0x01E2 [0x00] END_REQSTACK()
```

### Event 65535.28

#### Metadata

| Field        | Value    |
|--------------|----------|
| Entrypoint   | 0x01E3   |
| Data Size    | 14 bytes |
| Instructions | 2        |

```
      00 01 02 03 04 05 06 07  08 09 0A 0B 0C 0D 0E 0F
      -- -- -- -- -- -- -- --  -- -- -- -- -- -- -- --
01E0:          53 F8 FF FF 7F  F8 FF FF 7F 74 6C 62 31     S........tlb1
01F0: 00                                                .               
```

#### Opcodes

```
  0: 0x01E3 [0x53] WAIT_SCHEDULER_TASK: Wait for scheduler "tlb1" with entities [EventEntity, EventEntity]
  1: 0x01F0 [0x00] END_REQSTACK()
```

### Event 65535.29

#### Metadata

| Field        | Value    |
|--------------|----------|
| Entrypoint   | 0x01F1   |
| Data Size    | 16 bytes |
| Instructions | 2        |

```
      00 01 02 03 04 05 06 07  08 09 0A 0B 0C 0D 0E 0F
      -- -- -- -- -- -- -- --  -- -- -- -- -- -- -- --
01F0:    5B 05 80 F8 FF FF 7F  F8 FF FF 7F 74 6C 6B 30   [..........tlk0
0200: 00                                                .               
```

#### Opcodes

```
  0: 0x01F1 [0x5B] LOAD_EXT_SCHEDULER: Load scheduler "tlk0" with entities [EventEntity, EventEntity], work=359*
  1: 0x0200 [0x00] END_REQSTACK()
```

### Event 65535.30

#### Metadata

| Field        | Value    |
|--------------|----------|
| Entrypoint   | 0x0201   |
| Data Size    | 14 bytes |
| Instructions | 2        |

```
      00 01 02 03 04 05 06 07  08 09 0A 0B 0C 0D 0E 0F
      -- -- -- -- -- -- -- --  -- -- -- -- -- -- -- --
0200:    53 F8 FF FF 7F F8 FF  FF 7F 74 6C 6B 30 00      S........tlk0. 
```

#### Opcodes

```
  0: 0x0201 [0x53] WAIT_SCHEDULER_TASK: Wait for scheduler "tlk0" with entities [EventEntity, EventEntity]
  1: 0x020E [0x00] END_REQSTACK()
```

### Event 65535.31

#### Metadata

| Field        | Value    |
|--------------|----------|
| Entrypoint   | 0x020F   |
| Data Size    | 16 bytes |
| Instructions | 2        |

```
      00 01 02 03 04 05 06 07  08 09 0A 0B 0C 0D 0E 0F
      -- -- -- -- -- -- -- --  -- -- -- -- -- -- -- --
0200:                                               5B                 [
0210: 05 80 F8 FF FF 7F F8 FF  FF 7F 74 6C 6B 32 00     ..........tlk2. 
```

#### Opcodes

```
  0: 0x020F [0x5B] LOAD_EXT_SCHEDULER: Load scheduler "tlk2" with entities [EventEntity, EventEntity], work=359*
  1: 0x021E [0x00] END_REQSTACK()
```

### Event 65535.32

#### Metadata

| Field        | Value    |
|--------------|----------|
| Entrypoint   | 0x021F   |
| Data Size    | 14 bytes |
| Instructions | 2        |

```
      00 01 02 03 04 05 06 07  08 09 0A 0B 0C 0D 0E 0F
      -- -- -- -- -- -- -- --  -- -- -- -- -- -- -- --
0210:                                               53                 S
0220: F8 FF FF 7F F8 FF FF 7F  74 6C 6B 32 00           ........tlk2.   
```

#### Opcodes

```
  0: 0x021F [0x53] WAIT_SCHEDULER_TASK: Wait for scheduler "tlk2" with entities [EventEntity, EventEntity]
  1: 0x022C [0x00] END_REQSTACK()
```

### Event 65535.33

#### Metadata

| Field        | Value   |
|--------------|---------|
| Entrypoint   | 0x022D  |
| Data Size    | 9 bytes |
| Instructions | 3       |

```
      00 01 02 03 04 05 06 07  08 09 0A 0B 0C 0D 0E 0F
      -- -- -- -- -- -- -- --  -- -- -- -- -- -- -- --
0220:                                         5E 69 64               ^id
0230: 6C 30 1C 01 80 00                                 l0....          
```

#### Opcodes

```
  0: 0x022D [0x5E] EventEntity goes idle (kills current action) (animation: "idl0")
  1: 0x0232 [0x1C] WAIT(30* ticks)
  2: 0x0235 [0x00] END_REQSTACK()
```

### Event 65535.34

#### Metadata

| Field        | Value    |
|--------------|----------|
| Entrypoint   | 0x0236   |
| Data Size    | 16 bytes |
| Instructions | 2        |

```
      00 01 02 03 04 05 06 07  08 09 0A 0B 0C 0D 0E 0F
      -- -- -- -- -- -- -- --  -- -- -- -- -- -- -- --
0230:                   5B 06  80 F8 FF FF 7F F8 FF FF        [.........
0240: 7F 6D 61 68 30 00                                 .mah0.          
```

#### Opcodes

```
  0: 0x0236 [0x5B] LOAD_EXT_SCHEDULER: Load scheduler "mah0" with entities [EventEntity, EventEntity], work=179*
  1: 0x0245 [0x00] END_REQSTACK()
```

### Event 65535.35

#### Metadata

| Field        | Value    |
|--------------|----------|
| Entrypoint   | 0x0246   |
| Data Size    | 14 bytes |
| Instructions | 2        |

```
      00 01 02 03 04 05 06 07  08 09 0A 0B 0C 0D 0E 0F
      -- -- -- -- -- -- -- --  -- -- -- -- -- -- -- --
0240:                   53 F8  FF FF 7F F8 FF FF 7F 6D        S........m
0250: 61 68 30 00                                       ah0.            
```

#### Opcodes

```
  0: 0x0246 [0x53] WAIT_SCHEDULER_TASK: Wait for scheduler "mah0" with entities [EventEntity, EventEntity]
  1: 0x0253 [0x00] END_REQSTACK()
```

### Event 65535.36

#### Metadata

| Field        | Value    |
|--------------|----------|
| Entrypoint   | 0x0254   |
| Data Size    | 16 bytes |
| Instructions | 2        |

```
      00 01 02 03 04 05 06 07  08 09 0A 0B 0C 0D 0E 0F
      -- -- -- -- -- -- -- --  -- -- -- -- -- -- -- --
0250:             5B 06 80 F8  FF FF 7F F8 FF FF 7F 6D      [..........m
0260: 61 68 31 00                                       ah1.            
```

#### Opcodes

```
  0: 0x0254 [0x5B] LOAD_EXT_SCHEDULER: Load scheduler "mah1" with entities [EventEntity, EventEntity], work=179*
  1: 0x0263 [0x00] END_REQSTACK()
```

### Event 65535.37

#### Metadata

| Field        | Value    |
|--------------|----------|
| Entrypoint   | 0x0264   |
| Data Size    | 14 bytes |
| Instructions | 2        |

```
      00 01 02 03 04 05 06 07  08 09 0A 0B 0C 0D 0E 0F
      -- -- -- -- -- -- -- --  -- -- -- -- -- -- -- --
0260:             53 F8 FF FF  7F F8 FF FF 7F 6D 61 68      S........mah
0270: 31 00                                             1.              
```

#### Opcodes

```
  0: 0x0264 [0x53] WAIT_SCHEDULER_TASK: Wait for scheduler "mah1" with entities [EventEntity, EventEntity]
  1: 0x0271 [0x00] END_REQSTACK()
```

### Event 65535.38

#### Metadata

| Field        | Value    |
|--------------|----------|
| Entrypoint   | 0x0272   |
| Data Size    | 16 bytes |
| Instructions | 2        |

```
      00 01 02 03 04 05 06 07  08 09 0A 0B 0C 0D 0E 0F
      -- -- -- -- -- -- -- --  -- -- -- -- -- -- -- --
0270:       5B 06 80 F8 FF FF  7F F8 FF FF 7F 6D 61 68    [..........mah
0280: 32 00                                             2.              
```

#### Opcodes

```
  0: 0x0272 [0x5B] LOAD_EXT_SCHEDULER: Load scheduler "mah2" with entities [EventEntity, EventEntity], work=179*
  1: 0x0281 [0x00] END_REQSTACK()
```

### Event 65535.39

#### Metadata

| Field        | Value    |
|--------------|----------|
| Entrypoint   | 0x0282   |
| Data Size    | 14 bytes |
| Instructions | 2        |

```
      00 01 02 03 04 05 06 07  08 09 0A 0B 0C 0D 0E 0F
      -- -- -- -- -- -- -- --  -- -- -- -- -- -- -- --
0280:       53 F8 FF FF 7F F8  FF FF 7F 6D 61 68 32 00    S........mah2.
```

#### Opcodes

```
  0: 0x0282 [0x53] WAIT_SCHEDULER_TASK: Wait for scheduler "mah2" with entities [EventEntity, EventEntity]
  1: 0x028F [0x00] END_REQSTACK()
```

### Event 65535.40

#### Metadata

| Field        | Value    |
|--------------|----------|
| Entrypoint   | 0x0290   |
| Data Size    | 16 bytes |
| Instructions | 2        |

```
      00 01 02 03 04 05 06 07  08 09 0A 0B 0C 0D 0E 0F
      -- -- -- -- -- -- -- --  -- -- -- -- -- -- -- --
0290: 5B 06 80 F8 FF FF 7F F8  FF FF 7F 6D 61 68 33 00  [..........mah3.
```

#### Opcodes

```
  0: 0x0290 [0x5B] LOAD_EXT_SCHEDULER: Load scheduler "mah3" with entities [EventEntity, EventEntity], work=179*
  1: 0x029F [0x00] END_REQSTACK()
```

### Event 65535.41

#### Metadata

| Field        | Value    |
|--------------|----------|
| Entrypoint   | 0x02A0   |
| Data Size    | 14 bytes |
| Instructions | 2        |

```
      00 01 02 03 04 05 06 07  08 09 0A 0B 0C 0D 0E 0F
      -- -- -- -- -- -- -- --  -- -- -- -- -- -- -- --
02A0: 53 F8 FF FF 7F F8 FF FF  7F 6D 61 68 33 00        S........mah3.  
```

#### Opcodes

```
  0: 0x02A0 [0x53] WAIT_SCHEDULER_TASK: Wait for scheduler "mah3" with entities [EventEntity, EventEntity]
  1: 0x02AD [0x00] END_REQSTACK()
```

### Event 65535.42

#### Metadata

| Field        | Value    |
|--------------|----------|
| Entrypoint   | 0x02AE   |
| Data Size    | 16 bytes |
| Instructions | 2        |

```
      00 01 02 03 04 05 06 07  08 09 0A 0B 0C 0D 0E 0F
      -- -- -- -- -- -- -- --  -- -- -- -- -- -- -- --
02A0:                                            5B 06                [.
02B0: 80 F8 FF FF 7F F8 FF FF  7F 6D 61 68 34 00        .........mah4.  
```

#### Opcodes

```
  0: 0x02AE [0x5B] LOAD_EXT_SCHEDULER: Load scheduler "mah4" with entities [EventEntity, EventEntity], work=179*
  1: 0x02BD [0x00] END_REQSTACK()
```

### Event 65535.43

#### Metadata

| Field        | Value    |
|--------------|----------|
| Entrypoint   | 0x02BE   |
| Data Size    | 14 bytes |
| Instructions | 2        |

```
      00 01 02 03 04 05 06 07  08 09 0A 0B 0C 0D 0E 0F
      -- -- -- -- -- -- -- --  -- -- -- -- -- -- -- --
02B0:                                            53 F8                S.
02C0: FF FF 7F F8 FF FF 7F 6D  61 68 34 00              .......mah4.    
```

#### Opcodes

```
  0: 0x02BE [0x53] WAIT_SCHEDULER_TASK: Wait for scheduler "mah4" with entities [EventEntity, EventEntity]
  1: 0x02CB [0x00] END_REQSTACK()
```

### Event 71

#### Metadata

| Field        | Value   |
|--------------|---------|
| Entrypoint   | 0x02CC  |
| Data Size    | 1 bytes |
| Instructions | 1       |

```
      00 01 02 03 04 05 06 07  08 09 0A 0B 0C 0D 0E 0F
      -- -- -- -- -- -- -- --  -- -- -- -- -- -- -- --
02C0:                                      00                       .   
```

#### Opcodes

```
  0: 0x02CC [0x00] END_REQSTACK()
```

### Event 65535.44

#### Metadata

| Field        | Value    |
|--------------|----------|
| Entrypoint   | 0x02CD   |
| Data Size    | 11 bytes |
| Instructions | 5        |

```
      00 01 02 03 04 05 06 07  08 09 0A 0B 0C 0D 0E 0F
      -- -- -- -- -- -- -- --  -- -- -- -- -- -- -- --
02C0:                                         1C 07 80               ...
02D0: 1E F0 FF FF 7F 6F 70 00                           .....op.        
```

#### Opcodes

```
  0: 0x02CD [0x1C] WAIT(100* ticks)
  1: 0x02D0 [0x1E] EventEntity looks at LocalPlayer and starts talking
  2: 0x02D5 [0x6F] WAIT_FRAME_DELAY: Yield until WaitTime reaches zero
  3: 0x02D6 [0x70] WAIT_ENTITY_RENDER_FLAG: Wait while EventEntity->Render.Flags3 bit 2 is set (cancel turn if not)
  4: 0x02D7 [0x00] END_REQSTACK()
```

### Event 65535.45

#### Metadata

| Field        | Value   |
|--------------|---------|
| Entrypoint   | 0x02D8  |
| Data Size    | 5 bytes |
| Instructions | 3       |

```
      00 01 02 03 04 05 06 07  08 09 0A 0B 0C 0D 0E 0F
      -- -- -- -- -- -- -- --  -- -- -- -- -- -- -- --
02D0:                          1D 08 80 23 00                   ...#.   
```

#### Opcodes

```
  0: 0x02D8 [0x1D] PRINT_EVENT_MESSAGE(message_id=7320*)
    → "You! Why are you...!"
  1: 0x02DB [0x23] WAIT_FOR_DIALOG_INTERACTION
  2: 0x02DC [0x00] END_REQSTACK()
```

### Event 65535.46

#### Metadata

| Field        | Value   |
|--------------|---------|
| Entrypoint   | 0x02DD  |
| Data Size    | 5 bytes |
| Instructions | 3       |

```
      00 01 02 03 04 05 06 07  08 09 0A 0B 0C 0D 0E 0F
      -- -- -- -- -- -- -- --  -- -- -- -- -- -- -- --
02D0:                                         1D 09 80               ...
02E0: 23 00                                             #.              
```

#### Opcodes

```
  0: 0x02DD [0x1D] PRINT_EVENT_MESSAGE(message_id=7312*)
    → "This is not a game, you overgrrrown puppets!"
  1: 0x02E0 [0x23] WAIT_FOR_DIALOG_INTERACTION
  2: 0x02E1 [0x00] END_REQSTACK()
```

### Event 65535.47

#### Metadata

| Field        | Value   |
|--------------|---------|
| Entrypoint   | 0x02E2  |
| Data Size    | 5 bytes |
| Instructions | 3       |

```
      00 01 02 03 04 05 06 07  08 09 0A 0B 0C 0D 0E 0F
      -- -- -- -- -- -- -- --  -- -- -- -- -- -- -- --
02E0:       1D 0A 80 23 00                                ...#.         
```

#### Opcodes

```
  0: 0x02E2 [0x1D] PRINT_EVENT_MESSAGE(message_id=7313*)
    → "Your usefulness has ended! Without your master, you have no more rrreason to exist! Embrrrace the eternal slumber that awaits you!"
  1: 0x02E5 [0x23] WAIT_FOR_DIALOG_INTERACTION
  2: 0x02E6 [0x00] END_REQSTACK()
```

### Event 65535.48

#### Metadata

| Field        | Value   |
|--------------|---------|
| Entrypoint   | 0x02E7  |
| Data Size    | 5 bytes |
| Instructions | 3       |

```
      00 01 02 03 04 05 06 07  08 09 0A 0B 0C 0D 0E 0F
      -- -- -- -- -- -- -- --  -- -- -- -- -- -- -- --
02E0:                      1D  0B 80 23 00                     ...#.    
```

#### Opcodes

```
  0: 0x02E7 [0x1D] PRINT_EVENT_MESSAGE(message_id=7316*)
    → "You have chosen a king!? Minister Zonpa-Zippa of the Manustery still lives!?"
  1: 0x02EA [0x23] WAIT_FOR_DIALOG_INTERACTION
  2: 0x02EB [0x00] END_REQSTACK()
```

### Event 65535.49

#### Metadata

| Field        | Value   |
|--------------|---------|
| Entrypoint   | 0x02EC  |
| Data Size    | 5 bytes |
| Instructions | 3       |

```
      00 01 02 03 04 05 06 07  08 09 0A 0B 0C 0D 0E 0F
      -- -- -- -- -- -- -- --  -- -- -- -- -- -- -- --
02E0:                                      1D 0C 80 23              ...#
02F0: 00                                                .               
```

#### Opcodes

```
  0: 0x02EC [0x1D] PRINT_EVENT_MESSAGE(message_id=7334*)
    → "What!?"
  1: 0x02EF [0x23] WAIT_FOR_DIALOG_INTERACTION
  2: 0x02F0 [0x00] END_REQSTACK()
```

### Event 65535.50

#### Metadata

| Field        | Value   |
|--------------|---------|
| Entrypoint   | 0x02F1  |
| Data Size    | 5 bytes |
| Instructions | 3       |

```
      00 01 02 03 04 05 06 07  08 09 0A 0B 0C 0D 0E 0F
      -- -- -- -- -- -- -- --  -- -- -- -- -- -- -- --
02F0:    1D 0D 80 23 00                                  ...#.          
```

#### Opcodes

```
  0: 0x02F1 [0x1D] PRINT_EVENT_MESSAGE(message_id=7335*)
    → "Goddess currrse you! But it seems I have little choice..."
  1: 0x02F4 [0x23] WAIT_FOR_DIALOG_INTERACTION
  2: 0x02F5 [0x00] END_REQSTACK()
```

### Event 65535.51

#### Metadata

| Field        | Value   |
|--------------|---------|
| Entrypoint   | 0x02F6  |
| Data Size    | 5 bytes |
| Instructions | 3       |

```
      00 01 02 03 04 05 06 07  08 09 0A 0B 0C 0D 0E 0F
      -- -- -- -- -- -- -- --  -- -- -- -- -- -- -- --
02F0:                   1D 0E  80 23 00                       ...#.     
```

#### Opcodes

```
  0: 0x02F6 [0x1D] PRINT_EVENT_MESSAGE(message_id=7337*)
    → "!!! You know of the bearer of darkness!?"
  1: 0x02F9 [0x23] WAIT_FOR_DIALOG_INTERACTION
  2: 0x02FA [0x00] END_REQSTACK()
```
