# 17572292 - THE TOWER

## Common Data

| Field            | Value                          |
|------------------|--------------------------------|
| Zone             | Outer Horutoto Ruins (ID: 194) |
| Block Size       | 368 bytes                      |
| Total Events     | 3                              |
| References Count | 8                              |

## List of Events

| Event ID              | Entrypoint   |   Size |   Instructions |
|-----------------------|--------------|--------|----------------|
| [65535](#event-65535) | 0x0000       |      1 |              1 |
| [68](#event-68)       | 0x0001       |      1 |              1 |
| [70](#event-70)       | 0x0002       |    306 |             33 |

## DAT References (imed_data)

|   Index | Hex Value   |   Dec Value |
|---------|-------------|-------------|
|       0 | 0x0013      |          19 |
|       1 | 0x003C      |          60 |
|       2 | 0x000A      |          10 |
|       3 | 0x005E      |          94 |
|       4 | 0x0000      |           0 |
|       5 | 0x00C8      |         200 |
|       6 | 0x04B0      |        1200 |
|       7 | 0x0096      |         150 |

## Events

### Event 65535

#### Metadata

| Field        | Value   |
|--------------|---------|
| Entrypoint   | 0x0000  |
| Data Size    | 1 bytes |
| Instructions | 1       |

```
      00 01 02 03 04 05 06 07  08 09 0A 0B 0C 0D 0E 0F
      -- -- -- -- -- -- -- --  -- -- -- -- -- -- -- --
0000: 00                                                .               
```

#### Opcodes

```
  0: 0x0000 [0x00] END_REQSTACK()
```

### Event 68

#### Metadata

| Field        | Value   |
|--------------|---------|
| Entrypoint   | 0x0001  |
| Data Size    | 1 bytes |
| Instructions | 1       |

```
      00 01 02 03 04 05 06 07  08 09 0A 0B 0C 0D 0E 0F
      -- -- -- -- -- -- -- --  -- -- -- -- -- -- -- --
0000:    00                                              .              
```

#### Opcodes

```
  0: 0x0001 [0x00] END_REQSTACK()
```

### Event 70

#### Metadata

| Field        | Value     |
|--------------|-----------|
| Entrypoint   | 0x0002    |
| Data Size    | 306 bytes |
| Instructions | 33        |

```
      00 01 02 03 04 05 06 07  08 09 0A 0B 0C 0D 0E 0F
      -- -- -- -- -- -- -- --  -- -- -- -- -- -- -- --
0000:       42 46 01 4E 01 F0  FF FF 7F 4E 00 C5 21 0C    BF.N.....N..!.
0010: 01 80 C5 21 0C 01 38 00  80 1C 01 80 2D F8 FF FF  ...!..8.....-...
0020: 7F F8 FF FF 7F 6B 62 61  73 27 01 C5 21 0C 01 03  .....kbas'..!...
0030: 1C 02 80 2D F8 FF FF 7F  F8 FF FF 7F 73 65 73 74  ...-........sest
0040: 45 03 80 F0 FF FF 7F F0  FF FF 7F 68 6F 72 31 04  E..........hor1.
0050: 80 45 05 80 F0 FF FF 7F  F0 FF FF 7F 66 64 69 31  .E..........fdi1
0060: 04 80 2D F8 FF FF 7F F8  FF FF 7F 73 6B 69 64 1C  ..-........skid.
0070: 06 80 45 05 80 F0 FF FF  7F F0 FF FF 7F 66 64 6F  ..E..........fdo
0080: 31 04 80 1C 01 80 52 03  80 F0 FF FF 7F F0 FF FF  1.....R.........
0090: 7F 68 6F 72 31 45 03 80  F0 FF FF 7F F0 FF FF 7F  .hor1E..........
00A0: 68 6F 72 32 04 80 2D F8  FF FF 7F F8 FF FF 7F 6B  hor2..-........k
00B0: 6B 69 64 2D F8 FF FF 7F  F8 FF FF 7F 73 6B 61 69  kid-........skai
00C0: 45 05 80 F0 FF FF 7F F0  FF FF 7F 66 64 69 31 04  E..........fdi1.
00D0: 80 29 01 C5 21 0C 01 04  29 01 C5 21 0C 01 05 27  .)..!...)..!...'
00E0: 01 C5 21 0C 01 06 1C 07  80 45 05 80 F0 FF FF 7F  ..!......E......
00F0: F0 FF FF 7F 66 64 6F 31  04 80 1C 01 80 52 03 80  ....fdo1.....R..
0100: F0 FF FF 7F F0 FF FF 7F  68 6F 72 32 2D F8 FF FF  ........hor2-...
0110: 7F F8 FF FF 7F 6B 6B 61  69 2D F8 FF FF 7F F8 FF  .....kkai-......
0120: FF 7F 73 65 6B 6C 2D F8  FF FF 7F F8 FF FF 7F 73  ..sekl-........s
0130: 62 61 73 00                                       bas.            
```

#### Opcodes

```
  0: 0x0002 [0x42] SET_CLI_EVENT_CANCEL_DATA()
  1: 0x0003 [0x46] CAMERA_CONTROL: Disable user control
  2: 0x0005 [0x4E] SET_ENTITY_HIDE_FLAG: Hide LocalPlayer
  3: 0x000B [0x4E] SET_ENTITY_HIDE_FLAG: Show Ajido-Marujido (ID: 17572293/0x010C21C5)
  4: 0x0011 [0x80] LOAD_WAIT(entity=Ajido-Marujido (ID: 17572293/0x010C21C5))
  5: 0x0016 [0x38] SET_CLIENT_EVENT_MODE(mode=19*)
  6: 0x0019 [0x1C] WAIT(60* ticks)
  7: 0x001C [0x2D] CREATE_ZONE_SCHEDULER_TASK: Create scheduler "kbas" with entities [EventEntity, EventEntity]
  8: 0x0029 [0x27] REQ_SET(priority=0x01, entity_id=Ajido-Marujido (ID: 17572293/0x010C21C5), tag_num=0x03)
  9: 0x0030 [0x1C] WAIT(10* ticks)
 10: 0x0033 [0x2D] CREATE_ZONE_SCHEDULER_TASK: Create scheduler "sest" with entities [EventEntity, EventEntity]
 11: 0x0040 [0x45] LOAD_SCHEDULED_TASK: Load scheduler "hor1" with entities [LocalPlayer, LocalPlayer], work=[94*, 0*]
 12: 0x0051 [0x45] LOAD_SCHEDULED_TASK: Load scheduler "fdi1" with entities [LocalPlayer, LocalPlayer], work=[200*, 0*]
 13: 0x0062 [0x2D] CREATE_ZONE_SCHEDULER_TASK: Create scheduler "skid" with entities [EventEntity, EventEntity]
 14: 0x006F [0x1C] WAIT(1200* ticks)
 15: 0x0072 [0x45] LOAD_SCHEDULED_TASK: Load scheduler "fdo1" with entities [LocalPlayer, LocalPlayer], work=[200*, 0*]
 16: 0x0083 [0x1C] WAIT(60* ticks)
 17: 0x0086 [0x52] END_LOAD_SCHEDULER: End scheduler "hor1" with entities [LocalPlayer, LocalPlayer], work=94*
 18: 0x0095 [0x45] LOAD_SCHEDULED_TASK: Load scheduler "hor2" with entities [LocalPlayer, LocalPlayer], work=[94*, 0*]
 19: 0x00A6 [0x2D] CREATE_ZONE_SCHEDULER_TASK: Create scheduler "kkid" with entities [EventEntity, EventEntity]
 20: 0x00B3 [0x2D] CREATE_ZONE_SCHEDULER_TASK: Create scheduler "skai" with entities [EventEntity, EventEntity]
 21: 0x00C0 [0x45] LOAD_SCHEDULED_TASK: Load scheduler "fdi1" with entities [LocalPlayer, LocalPlayer], work=[200*, 0*]
 22: 0x00D1 [0x29] REQ_SET_WAIT(priority=0x01, entity_id=Ajido-Marujido (ID: 17572293/0x010C21C5), tag_num=0x04)
 23: 0x00D8 [0x29] REQ_SET_WAIT(priority=0x01, entity_id=Ajido-Marujido (ID: 17572293/0x010C21C5), tag_num=0x05)
 24: 0x00DF [0x27] REQ_SET(priority=0x01, entity_id=Ajido-Marujido (ID: 17572293/0x010C21C5), tag_num=0x06)
 25: 0x00E6 [0x1C] WAIT(150* ticks)
 26: 0x00E9 [0x45] LOAD_SCHEDULED_TASK: Load scheduler "fdo1" with entities [LocalPlayer, LocalPlayer], work=[200*, 0*]
 27: 0x00FA [0x1C] WAIT(60* ticks)
 28: 0x00FD [0x52] END_LOAD_SCHEDULER: End scheduler "hor2" with entities [LocalPlayer, LocalPlayer], work=94*
 29: 0x010C [0x2D] CREATE_ZONE_SCHEDULER_TASK: Create scheduler "kkai" with entities [EventEntity, EventEntity]
 30: 0x0119 [0x2D] CREATE_ZONE_SCHEDULER_TASK: Create scheduler "sekl" with entities [EventEntity, EventEntity]
 31: 0x0126 [0x2D] CREATE_ZONE_SCHEDULER_TASK: Create scheduler "sbas" with entities [EventEntity, EventEntity]
 32: 0x0133 [0x00] END_REQSTACK()
```
