# Event 0

## Metadata

| Field           | Value    |
|-----------------|----------|
| Event Index     | 7/26     |
| Offset          | 0x00AB   |
| Data Size       | 54 bytes |
| Calculated Size | 54 bytes |
| Instructions    | 7        |

```
      00 01 02 03 04 05 06 07  08 09 0A 0B 0C 0D 0E 0F
      -- -- -- -- -- -- -- --  -- -- -- -- -- -- -- --
00A0:                                   22 00 37 00 80             ".7..
00B0: 01 80 02 80 03 80 1C 04  80 2C F8 FF FF 7F F8 FF  .........,......
00C0: FF 7F 71 75 69 74 2C F8  FF FF 7F F8 FF FF 7F 70  ..quit,........p
00D0: 72 63 6C 2C F8 FF FF 7F  F8 FF FF 7F 70 72 6F 6E  rcl,........pron
00E0: 00                                                .               
```

## Opcodes

```
  0: 0x00AB [0x22] ENTITY_HIDE_FLAG(enabled=0x00)
  1: 0x00AD [0x37] UPDATE_EVENT_POSITION_AND_DIR: x=-830.000*, z=80.000*, y=-30.000*, direction=270.0°*
  2: 0x00B6 [0x1C] WAIT(60* ticks)
  3: 0x00B9 [0x2C] CREATE_SCHEDULER_TASK: Create scheduler "quit" with entities [EventEntity, EventEntity]
  4: 0x00C6 [0x2C] CREATE_SCHEDULER_TASK: Create scheduler "prcl" with entities [EventEntity, EventEntity]
  5: 0x00D3 [0x2C] CREATE_SCHEDULER_TASK: Create scheduler "pron" with entities [EventEntity, EventEntity]
  6: 0x00E0 [0x00] END_REQSTACK()
```
