# Event 2

## Metadata

| Field           | Value    |
|-----------------|----------|
| Event Index     | 12/26    |
| Offset          | 0x0143   |
| Data Size       | 54 bytes |
| Calculated Size | 54 bytes |
| Instructions    | 7        |

```
      00 01 02 03 04 05 06 07  08 09 0A 0B 0C 0D 0E 0F
      -- -- -- -- -- -- -- --  -- -- -- -- -- -- -- --
0140:          22 00 37 0C 80  0D 80 0E 80 03 80 1C 04     ".7..........
0150: 80 2C F8 FF FF 7F F8 FF  FF 7F 71 75 69 74 2C F8  .,........quit,.
0160: FF FF 7F F8 FF FF 7F 70  72 63 6C 2C F8 FF FF 7F  .......prcl,....
0170: F8 FF FF 7F 70 72 6F 6E  00                       ....pron.       
```

## Opcodes

```
  0: 0x0143 [0x22] ENTITY_HIDE_FLAG(enabled=0x00)
  1: 0x0145 [0x37] UPDATE_EVENT_POSITION_AND_DIR: x=-680.000*, z=420.000*, y=-228.000*, direction=270.0°*
  2: 0x014E [0x1C] WAIT(60* ticks)
  3: 0x0151 [0x2C] CREATE_SCHEDULER_TASK: Create scheduler "quit" for entities [EventEntity, EventEntity]
  4: 0x015E [0x2C] CREATE_SCHEDULER_TASK: Create scheduler "prcl" for entities [EventEntity, EventEntity]
  5: 0x016B [0x2C] CREATE_SCHEDULER_TASK: Create scheduler "pron" for entities [EventEntity, EventEntity]
  6: 0x0178 [0x00] END_REQSTACK()
```
