# Event 349

## Metadata

| Field           | Value    |
|-----------------|----------|
| Event Index     | 3/13     |
| Offset          | 0x010F   |
| Data Size       | 32 bytes |
| Calculated Size | 32 bytes |
| Instructions    | 10       |

```
      00 01 02 03 04 05 06 07  08 09 0A 0B 0C 0D 0E 0F
      -- -- -- -- -- -- -- --  -- -- -- -- -- -- -- --
0100:                                               1E                 .
0110: F0 FF FF 7F 6F 70 1D 14  80 23 66 01 80 F8 FF FF  ....op...#f.....
0120: 7F F8 FF FF 7F 73 79 75  30 1D 15 80 23 21 00     .....syu0...#!. 
```

## Opcodes

```
  0: 0x010F [0x1E] EventEntity looks at LocalPlayer and starts talking
  1: 0x0114 [0x6F] WAIT_FRAME_DELAY: Yield until WaitTime reaches zero
  2: 0x0115 [0x70] WAIT_ENTITY_RENDER_FLAG: Wait while EventEntity->Render.Flags3 bit 2 is set (cancel turn if not)
  3: 0x0116 [0x1D] PRINT_EVENT_MESSAGE(message_id=8168*)
    → "The heart of the matter is thus: you must go west-ethy, young \u007F\u0005[man/woman], and investigate the source of the contamination.\u0007No, not merely investigate...we need-ethy concrete scientific evidence-ethy!\u007F1\u0000\u0007"
  4: 0x0119 [0x23] WAIT_FOR_DIALOG_INTERACTION
  5: 0x011A [0x66] LOAD_EXT_SCHEDULER_MAIN: Load scheduler "syu0" with entities [EventEntity, EventEntity], work=40*
  6: 0x0129 [0x1D] PRINT_EVENT_MESSAGE(message_id=8169*)
    → "Take heart-ethy! If you can follow-ethy my ramblings this far, you can do anything!\u0007For the sake of all the survivors who suffer, you must-ethy!\u007F1\u0000\u0007"
  7: 0x012C [0x23] WAIT_FOR_DIALOG_INTERACTION
  8: 0x012D [0x21] END_EVENT
  9: 0x012E [0x00] END_REQSTACK()
```
