# Event 351

## Metadata

| Field           | Value    |
|-----------------|----------|
| Event Index     | 5/13     |
| Offset          | 0x0210   |
| Data Size       | 62 bytes |
| Calculated Size | 62 bytes |
| Instructions    | 12       |

```
      00 01 02 03 04 05 06 07  08 09 0A 0B 0C 0D 0E 0F
      -- -- -- -- -- -- -- --  -- -- -- -- -- -- -- --
0210: 1E F0 FF FF 7F 6F 70 66  01 80 F8 FF FF 7F F8 FF  .....opf........
0220: FF 7F 73 79 75 30 1D 1D  80 23 66 01 80 F8 FF FF  ..syu0...#f.....
0230: 7F F8 FF FF 7F 74 68 6B  31 1D 1E 80 23 66 01 80  .....thk1...#f..
0240: F8 FF FF 7F F8 FF FF 7F  74 68 6B 32 21 00        ........thk2!.  
```

## Opcodes

```
  0: 0x0210 [0x1E] EventEntity looks at LocalPlayer and starts talking
  1: 0x0215 [0x6F] WAIT_FRAME_DELAY: Yield until WaitTime reaches zero
  2: 0x0216 [0x70] WAIT_ENTITY_RENDER_FLAG: Wait while EventEntity->Render.Flags3 bit 2 is set (cancel turn if not)
  3: 0x0217 [0x66] LOAD_EXT_SCHEDULER_MAIN: Load scheduler "syu0" with entities [EventEntity, EventEntity], work=40*
  4: 0x0226 [0x1D] PRINT_EVENT_MESSAGE(message_id=8178*)
    → "I will find a cure-ethy!\u0007I shall! I must-ethy!\u007F1\u0000\u0007"
  5: 0x0229 [0x23] WAIT_FOR_DIALOG_INTERACTION
  6: 0x022A [0x66] LOAD_EXT_SCHEDULER_MAIN: Load scheduler "thk1" with entities [EventEntity, EventEntity], work=40*
  7: 0x0239 [0x1D] PRINT_EVENT_MESSAGE(message_id=8179*)
    → "<Sniff>... Ahhh-choo!!!\u0007Aye yai yai! The fumes! I must be more careful-ethy!\u007F1\u0000\u0007"
  8: 0x023C [0x23] WAIT_FOR_DIALOG_INTERACTION
  9: 0x023D [0x66] LOAD_EXT_SCHEDULER_MAIN: Load scheduler "thk2" with entities [EventEntity, EventEntity], work=40*
 10: 0x024C [0x21] END_EVENT
 11: 0x024D [0x00] END_REQSTACK()
```
