# Event 358

## Metadata

| Field           | Value    |
|-----------------|----------|
| Event Index     | 12/13    |
| Offset          | 0x0431   |
| Data Size       | 21 bytes |
| Calculated Size | 21 bytes |
| Instructions    | 11       |

```
      00 01 02 03 04 05 06 07  08 09 0A 0B 0C 0D 0E 0F
      -- -- -- -- -- -- -- --  -- -- -- -- -- -- -- --
0430:    1E F0 FF FF 7F 6F 70  1D 34 80 23 1D 35 80 23   .....op.4.#.5.#
0440: 1D 36 80 23 21 00                                 .6.#!.          
```

## Opcodes

```
  0: 0x0431 [0x1E] EventEntity looks at LocalPlayer and starts talking
  1: 0x0436 [0x6F] WAIT_FRAME_DELAY: Yield until WaitTime reaches zero
  2: 0x0437 [0x70] WAIT_ENTITY_RENDER_FLAG: Wait while EventEntity->Render.Flags3 bit 2 is set (cancel turn if not)
  3: 0x0438 [0x1D] PRINT_EVENT_MESSAGE(message_id=8209*)
    → "Ahhh-choooooo!\u0007Yes, there's definitely something funny in the air-ethy. It's high time to administer another dose of \u0001\u00053\u0002\u0000\u0000\u0000, methink-ethies.\u007F1\u0000\u0007"
  4: 0x043B [0x23] WAIT_FOR_DIALOG_INTERACTION
  5: 0x043C [0x1D] PRINT_EVENT_MESSAGE(message_id=8210*)
    → "Could I trouble you to find another \u0001\u00053\u0002\u0000\u0000\u0000-ethy for me?\u007F1\u0000\u0007"
  6: 0x043F [0x23] WAIT_FOR_DIALOG_INTERACTION
  7: 0x0440 [0x1D] PRINT_EVENT_MESSAGE(message_id=8211*)
    → "We're counting on you!\u007F1\u0000\u0007"
  8: 0x0443 [0x23] WAIT_FOR_DIALOG_INTERACTION
  9: 0x0444 [0x21] END_EVENT
 10: 0x0445 [0x00] END_REQSTACK()
```
