# Event 396

## Metadata

| Field           | Value    |
|-----------------|----------|
| Event Index     | 13/13    |
| Offset          | 0x0446   |
| Data Size       | 44 bytes |
| Calculated Size | 44 bytes |
| Instructions    | 9        |

```
      00 01 02 03 04 05 06 07  08 09 0A 0B 0C 0D 0E 0F
      -- -- -- -- -- -- -- --  -- -- -- -- -- -- -- --
0440:                   1E F0  FF FF 7F 6F 70 1D 35 80        .....op.5.
0450: 23 1D 36 80 23 21 00 03  00 00 03 7F 07 00 00 37  #.6.#!.........7
0460: 80 02 00 00 38 80 02 6E  04 08 00 00 38 80 39 00  ....8..n....8.9.
0470: 00 1B                                             ..              
```

## Opcodes

```
  0: 0x0446 [0x1E] EventEntity looks at LocalPlayer and starts talking
  1: 0x044B [0x6F] WAIT_FRAME_DELAY: Yield until WaitTime reaches zero
  2: 0x044C [0x70] WAIT_ENTITY_RENDER_FLAG: Wait while EventEntity->Render.Flags3 bit 2 is set (cancel turn if not)
  3: 0x044D [0x1D] PRINT_EVENT_MESSAGE(message_id=8210*)
    → "Could I trouble you to find another \u0001\u00053\u0002\u0000\u0000\u0000-ethy for me?\u007F1\u0000\u0007"
  4: 0x0450 [0x23] WAIT_FOR_DIALOG_INTERACTION
  5: 0x0451 [0x1D] PRINT_EVENT_MESSAGE(message_id=8211*)
    → "We're counting on you!\u007F1\u0000\u0007"
  6: 0x0454 [0x23] WAIT_FOR_DIALOG_INTERACTION
  7: 0x0455 [0x21] END_EVENT
  8: 0x0456 [0x00] END_REQSTACK()
```

## Data or dead code:

```
# Dead code (unreachable instructions):
     0x0457 [0x03] ExtData[1]->WorkLocal[0] = enDirCli(ExtData[1]->EventDir[1]) * 4096.0 * 0.15915963
     0x045C [0x07] ExtData[1]->WorkLocal[0] += 2048*
     0x0461 [0x02] IF !(ExtData[1]->WorkLocal[0] <= 4096*) GOTO 0x046E
     0x0469 [0x08] ExtData[1]->WorkLocal[0] -= 4096*
     0x046E [0x39] SET_ENTITY_DIRECTION(direction=ExtData[1]->WorkLocal[0])
     0x0471 [0x1B] RETURN
```