# Event 496

## Metadata

| Field           | Value    |
|-----------------|----------|
| Event Index     | 10/13    |
| Offset          | 0x019B   |
| Data Size       | 22 bytes |
| Calculated Size | 22 bytes |
| Instructions    | 10       |

```
      00 01 02 03 04 05 06 07  08 09 0A 0B 0C 0D 0E 0F
      -- -- -- -- -- -- -- --  -- -- -- -- -- -- -- --
0190:                                   1E F0 FF FF 7F             .....
01A0: 1D 29 80 23 1D 2A 80 23  1A D3 00 1D 2B 80 23 21  .).#.*.#....+.#!
01B0: 00                                                .               
```

## Opcodes

```
  0: 0x019B [0x1E] EventEntity looks at LocalPlayer and starts talking
  1: 0x01A0 [0x1D] PRINT_EVENT_MESSAGE(message_id=8087*)
    → "Ah. Welcome back, \u0008.\u0007Hard at work as always, I see.\u007F1\u0000\u0007"
  2: 0x01A3 [0x23] WAIT_FOR_DIALOG_INTERACTION
  3: 0x01A4 [0x1D] PRINT_EVENT_MESSAGE(message_id=8088*)
    → "What's that? You want my honest appraisal of your accomplishments?\u0007Well, let me see...\u007F1\u0000\u0007"
  4: 0x01A7 [0x23] WAIT_FOR_DIALOG_INTERACTION
  5: 0x01A8 [0x1A] CALL_SUBROUTINE(address=0x00D3)
  6: 0x01AB [0x1D] PRINT_EVENT_MESSAGE(message_id=8089*)
    → "You will return from time to time and share with me tales of your exploits, won't you, \u0008?\u0007Now go in safety.\u007F1\u0000\u0007"
  7: 0x01AE [0x23] WAIT_FOR_DIALOG_INTERACTION
  8: 0x01AF [0x21] END_EVENT
  9: 0x01B0 [0x00] END_REQSTACK()
```
