# Event 497

## Metadata

| Field           | Value    |
|-----------------|----------|
| Event Index     | 11/13    |
| Offset          | 0x01B1   |
| Data Size       | 32 bytes |
| Calculated Size | 32 bytes |
| Instructions    | 10       |

```
      00 01 02 03 04 05 06 07  08 09 0A 0B 0C 0D 0E 0F
      -- -- -- -- -- -- -- --  -- -- -- -- -- -- -- --
01B0:    42 1D 2C 80 23 1D 2D  80 23 1D 2E 80 23 45 0F   B.,.#.-.#...#E.
01C0: 80 F0 FF FF 7F F0 FF FF  7F 71 73 74 63 10 80 21  .........qstc..!
01D0: 00                                                .               
```

## Opcodes

```
  0: 0x01B1 [0x42] SET_CLI_EVENT_CANCEL_DATA()
  1: 0x01B2 [0x1D] PRINT_EVENT_MESSAGE(message_id=8090*)
    → "\u0008! Oh, how I've been waiting for your return!\u007F1\u0000\u0007"
  2: 0x01B5 [0x23] WAIT_FOR_DIALOG_INTERACTION
  3: 0x01B6 [0x1D] PRINT_EVENT_MESSAGE(message_id=8091*)
    → "I knew when I first met you that you'd go far, but this...\u0007Why, the camp linkshell has been positively abuzz with tales of your heroics!\u007F1\u0000\u0007"
  4: 0x01B9 [0x23] WAIT_FOR_DIALOG_INTERACTION
  5: 0x01BA [0x1D] PRINT_EVENT_MESSAGE(message_id=8092*)
    → "It's rare that we can find something to truly rejoice about these days.\u0007This is a present from everyone. Take it with our gratitude!\u007F1\u0000\u0007"
  6: 0x01BD [0x23] WAIT_FOR_DIALOG_INTERACTION
  7: 0x01BE [0x45] LOAD_SCHEDULED_TASK: Load scheduler "qstc" with entities [LocalPlayer, LocalPlayer], work=[201*, 0*]
  8: 0x01CF [0x21] END_EVENT
  9: 0x01D0 [0x00] END_REQSTACK()
```
