# Event 24

## Metadata

| Field           | Value    |
|-----------------|----------|
| Event Index     | 6/7      |
| Offset          | 0x005F   |
| Data Size       | 33 bytes |
| Calculated Size | 33 bytes |
| Instructions    | 12       |

```
      00 01 02 03 04 05 06 07  08 09 0A 0B 0C 0D 0E 0F
      -- -- -- -- -- -- -- --  -- -- -- -- -- -- -- --
0050:                                               1E                 .
0060: F0 FF FF 7F 1C 02 80 02  04 10 04 80 00 7A 00 1D  .............z..
0070: 09 80 23 1D 0A 80 23 01  7E 00 1D 0B 80 23 21 00  ..#...#.~....#!.
```

## Opcodes

```
  0: 0x005F [0x1E] EventEntity looks at LocalPlayer and starts talking
  1: 0x0064 [0x1C] WAIT(30* ticks)
  2: 0x0067 [0x02] IF !(Work_Zone[4] == 1*) GOTO 0x007A
  3: 0x006F [0x1D] PRINT_EVENT_MESSAGE(message_id=7713*)
    → "You back again? You forget what Rokke tell you?\u0007Uh-oh...Rokke forget too!\u007F1\u0000\u0007"
  4: 0x0072 [0x23] WAIT_FOR_DIALOG_INTERACTION
  5: 0x0073 [0x1D] PRINT_EVENT_MESSAGE(message_id=7714*)
    → "Ahahaha, Rokke just make funny, yes?\u0007Hume woman up above, in southwest chamber. You remember well now, yeees?\u007F1\u0000\u0007"
  6: 0x0076 [0x23] WAIT_FOR_DIALOG_INTERACTION
  7: 0x0077 [0x01] GOTO 0x007E

SUBROUTINE_007A:
  8: 0x007A [0x1D] PRINT_EVENT_MESSAGE(message_id=7718*)
    → "You back? You want Rokke tell you another joke?\u0007An imp, an Ahriman, and a ruszor walk into a tavern, yes...?\u007F1\u0000\u0007"
  9: 0x007D [0x23] WAIT_FOR_DIALOG_INTERACTION
 10: 0x007E [0x21] END_EVENT
 11: 0x007F [0x00] END_REQSTACK()
```
