# Event 27

## Metadata

| Field           | Value    |
|-----------------|----------|
| Event Index     | 7/7      |
| Offset          | 0x0080   |
| Data Size       | 41 bytes |
| Calculated Size | 41 bytes |
| Instructions    | 14       |

```
      00 01 02 03 04 05 06 07  08 09 0A 0B 0C 0D 0E 0F
      -- -- -- -- -- -- -- --  -- -- -- -- -- -- -- --
0080: 02 02 10 04 80 00 9B 00  1D 0C 80 23 1E F0 FF FF  ...........#....
0090: 7F 1C 02 80 1D 0D 80 23  01 A7 00 1E F0 FF FF 7F  .......#........
00A0: 1C 02 80 1D 0E 80 23 21  00                       ......#!.       
```

## Opcodes

```
  0: 0x0080 [0x02] IF !(Work_Zone[2] == 1*) GOTO 0x009B
  1: 0x0088 [0x1D] PRINT_EVENT_MESSAGE(message_id=7673*)
    → "You trust Rokke, yes?\u0007Rokke no lie to no one.\u007F1\u0000\u0007"
  2: 0x008B [0x23] WAIT_FOR_DIALOG_INTERACTION
  3: 0x008C [0x1E] EventEntity looks at LocalPlayer and starts talking
  4: 0x0091 [0x1C] WAIT(30* ticks)
  5: 0x0094 [0x1D] PRINT_EVENT_MESSAGE(message_id=7725*)
    → "Oh, so one of the others helped you.\u0007That's just great. Wonderful. Bully for you.\u007F1\u0000\u0007"
  6: 0x0097 [0x23] WAIT_FOR_DIALOG_INTERACTION
  7: 0x0098 [0x01] GOTO 0x00A7

SUBROUTINE_009B:
  8: 0x009B [0x1E] EventEntity looks at LocalPlayer and starts talking
  9: 0x00A0 [0x1C] WAIT(30* ticks)
 10: 0x00A3 [0x1D] PRINT_EVENT_MESSAGE(message_id=7726*)
    → "Look who's back, after blowin' me off the last time.\u0007What did you want again? And why should I care?\u007F1\u0000\u0007"
 11: 0x00A6 [0x23] WAIT_FOR_DIALOG_INTERACTION
 12: 0x00A7 [0x21] END_EVENT
 13: 0x00A8 [0x00] END_REQSTACK()
```
