# 16974330

## Common Data

| Field            | Value             |
|------------------|-------------------|
| Zone             | Al Zahbi (ID: 48) |
| Block Size       | 11976 bytes       |
| Total Events     | 10                |
| References Count | 156               |

## List of Events

| Event ID              | Entrypoint   |   Size |   Instructions |
|-----------------------|--------------|--------|----------------|
| [65535](#event-65535) | 0x0000       |      1 |              1 |
| [5](#event-5)         | 0x0001       |   1580 |            225 |
| [6](#event-6)         | 0x062D       |    443 |             88 |
| [7](#event-7)         | 0x07E8       |    433 |             74 |
| [8](#event-8)         | 0x0999       |   1465 |            215 |
| [9](#event-9)         | 0x0F52       |    445 |             89 |
| [10](#event-10)       | 0x110F       |    433 |             74 |
| [11](#event-11)       | 0x12C0       |   1804 |            250 |
| [12](#event-12)       | 0x19CC       |    445 |             89 |
| [13](#event-13)       | 0x1B89       |   4246 |            612 |

## DAT References (imed_data)

|   Index | Hex Value   |   Dec Value |
|---------|-------------|-------------|
|       0 | 0x0001      |           1 |
|       1 | 0x1EE6      |        7910 |
|       2 | 0x0000      |           0 |
|       3 | 0x0033      |          51 |
|       4 | 0x0034      |          52 |
|       5 | 0x0002      |           2 |
|       6 | 0x0035      |          53 |
|       7 | 0x0003      |           3 |
|       8 | 0x0036      |          54 |
|       9 | 0x0004      |           4 |
|      10 | 0x0037      |          55 |
|      11 | 0x0005      |           5 |
|      12 | 0x0038      |          56 |
|      13 | 0x0006      |           6 |
|      14 | 0x0039      |          57 |
|      15 | 0x0007      |           7 |
|      16 | 0x003A      |          58 |
|      17 | 0x1EE7      |        7911 |
|      18 | 0x0008      |           8 |
|      19 | 0x1EE5      |        7909 |
|      20 | 0x0013      |          19 |
|      21 | 0x000F      |          15 |
|      22 | 0x0345      |         837 |
|      23 | 0x008E      |         142 |
|      24 | 0x0060      |          96 |
|      25 | 0x012C      |         300 |
|      26 | 0x001E      |          30 |
|      27 | 0x1E57      |        7767 |
|      28 | 0x010E      |         270 |
|      29 | 0x00C9      |         201 |
|      30 | 0x1E5A      |        7770 |
|      31 | 0x1E5B      |        7771 |
|      32 | 0x0078      |         120 |
|      33 | 0x1E5C      |        7772 |
|      34 | 0x1E5D      |        7773 |
|      35 | 0x003C      |          60 |
|      36 | 0x033A      |         826 |
|      37 | 0x00A4      |         164 |
|      38 | 0x000D      |          13 |
|      39 | 0x00C8      |         200 |
|      40 | 0x005A      |          90 |
|      41 | 0x0384      |         900 |
|      42 | 0x1EEF      |        7919 |
|      43 | 0x1EF0      |        7920 |
|      44 | 0x00F0      |         240 |
|      45 | 0x1EF1      |        7921 |
|      46 | 0x0064      |         100 |
|      47 | 0x007F      |         127 |
|      48 | 0x00B4      |         180 |
|      49 | 0x00B2      |         178 |
|      50 | 0x00B3      |         179 |
|      51 | 0x006F      |         111 |
|      52 | 0x01A4      |         420 |
|      53 | 0x1E71      |        7793 |
|      54 | 0x1E58      |        7768 |
|      55 | 0x0096      |         150 |
|      56 | 0x0014      |          20 |
|      57 | 0x02D7      |         727 |
|      58 | 0x1EE8      |        7912 |
|      59 | 0x1EE9      |        7913 |
|      60 | 0x0186      |         390 |
|      61 | 0x1E59      |        7769 |
|      62 | 0x02D9      |         729 |
|      63 | 0x1EEA      |        7914 |
|      64 | 0x00DA      |         218 |
|      65 | 0x1EEB      |        7915 |
|      66 | 0x1EEC      |        7916 |
|      67 | 0x0069      |         105 |
|      68 | 0x1EED      |        7917 |
|      69 | 0x1EEE      |        7918 |
|      70 | 0x0048      |          72 |
|      71 | 0x1E6F      |        7791 |
|      72 | 0x0378      |         888 |
|      73 | 0x1E60      |        7776 |
|      74 | 0x1E61      |        7777 |
|      75 | 0x1E62      |        7778 |
|      76 | 0x037F      |         895 |
|      77 | 0x1E63      |        7779 |
|      78 | 0x1E64      |        7780 |
|      79 | 0x0028      |          40 |
|      80 | 0x1E65      |        7781 |
|      81 | 0x00D2      |         210 |
|      82 | 0x0010      |          16 |
|      83 | 0x0381      |         897 |
|      84 | 0x1E66      |        7782 |
|      85 | 0x1E67      |        7783 |
|      86 | 0x1E68      |        7784 |
|      87 | 0x0379      |         889 |
|      88 | 0x1E69      |        7785 |
|      89 | 0x1E6A      |        7786 |
|      90 | 0x1E6B      |        7787 |
|      91 | 0x0380      |         896 |
|      92 | 0x1E6C      |        7788 |
|      93 | 0x1E6D      |        7789 |
|      94 | 0x008C      |         140 |
|      95 | 0x1E6E      |        7790 |
|      96 | 0x01E0      |         480 |
|      97 | 0x1E82      |        7810 |
|      98 | 0x1E73      |        7795 |
|      99 | 0x1E74      |        7796 |
|     100 | 0x1E75      |        7797 |
|     101 | 0x0386      |         902 |
|     102 | 0x1E76      |        7798 |
|     103 | 0x0168      |         360 |
|     104 | 0x1E77      |        7799 |
|     105 | 0x1E78      |        7800 |
|     106 | 0x002D      |          45 |
|     107 | 0x1E79      |        7801 |
|     108 | 0x1E7A      |        7802 |
|     109 | 0x1E7B      |        7803 |
|     110 | 0x1E7C      |        7804 |
|     111 | 0x1E7D      |        7805 |
|     112 | 0x1E7E      |        7806 |
|     113 | 0x1E7F      |        7807 |
|     114 | 0x1E80      |        7808 |
|     115 | 0x1E81      |        7809 |
|     116 | 0x07D0      |        2000 |
|     117 | 0x000B      |          11 |
|     118 | 0xD3D5      |       54229 |
|     119 | 0x1D2D2     |      119506 |
|     120 | 0x03EE      |        1006 |
|     121 | 0x98B1      |       39089 |
|     122 | 0x19440     |      103488 |
|     123 | 0x0C10      |        3088 |
|     124 | 0x18AE5     |      101093 |
|     125 | 0x9857      |       38999 |
|     126 | 0xFFFFF831  |  4294965297 |
|     127 | 0x080B      |        2059 |
|     128 | 0xFE26      |       65062 |
|     129 | 0x981F      |       38943 |
|     130 | 0x07FF      |        2047 |
|     131 | 0x9AB9      |       39609 |
|     132 | 0x9864      |       39012 |
|     133 | 0x744E      |       29774 |
|     134 | 0xFFFF60FC  |  4294926588 |
|     135 | 0x07FB      |        2043 |
|     136 | 0xADEE      |       44526 |
|     137 | 0xFFFF34C1  |  4294915265 |
|     138 | 0x0823      |        2083 |
|     139 | 0xFFFF394B  |  4294916427 |
|     140 | 0xFFFF46AA  |  4294919850 |
|     141 | 0xFFFF8713  |  4294936339 |
|     142 | 0xFFFF7DAC  |  4294933932 |
|     143 | 0x0BFF      |        3071 |
|     144 | 0x0009      |           9 |
|     145 | 0xFFFF8C68  |  4294937704 |
|     146 | 0xFFFDEAAE  |  4294830766 |
|     147 | 0x0C08      |        3080 |
|     148 | 0x000A      |          10 |
|     149 | 0xFFFFA760  |  4294944608 |
|     150 | 0xFFFE27D7  |  4294846423 |
|     151 | 0x0810      |        2064 |
|     152 | 0xFFFF5FC1  |  4294926273 |
|     153 | 0xFFFE61AB  |  4294861227 |
|     154 | 0x0C05      |        3077 |
|     155 | 0x00D7      |         215 |

## String References

- **7767**: Al Zahbi is under attack!
- **7768**: The Mamool Ja Savages have breached the Balrahn Defense Line!
- **7769**: The Troll Mercenaries have breached the Balrahn Defense Line!
- **7770**: The Undead Swarm has breached the Balrahn Defense Line!
- **7771**: They are advancing on the Imperial capital!
- **7772**: Martial law has been declared in Al Zahbi! Repeating... Martial law has been declared in Al Zahbi!
- **7773**: All non-combatants in the Commoners' Ward are to evacuate immediately! Repeating... All non-combatants in the Commoners' Ward are to evacuate immediately!
- **7793**: The beastmen have entered the Hall of Binding! The Astral Candescence has been taken.
- **7909**: DEBUG: The [Skys/Flames/Waters/Earths/Gales/S]erpent General(s) are [captured/safe]!
- **7910**: Switch between captured and safe: [Sky General./Flame General./Water General./Earth General./Gale General./All captured./All safe./Beastman Boss./Begin event.]
- **7911**: Beastman Boss: [Absent/Present]

## Events

### Event 65535

#### Metadata

| Field        | Value   |
|--------------|---------|
| Entrypoint   | 0x0000  |
| Data Size    | 1 bytes |
| Instructions | 1       |

```
      00 01 02 03 04 05 06 07  08 09 0A 0B 0C 0D 0E 0F
      -- -- -- -- -- -- -- --  -- -- -- -- -- -- -- --
0000: 00                                                .               
```

#### Opcodes

```
  0: 0x0000 [0x00] END_REQSTACK()
```

### Event 5

#### Metadata

| Field        | Value      |
|--------------|------------|
| Entrypoint   | 0x0001     |
| Data Size    | 1580 bytes |
| Instructions | 221        |

```
      00 01 02 03 04 05 06 07  08 09 0A 0B 0C 0D 0E 0F
      -- -- -- -- -- -- -- --  -- -- -- -- -- -- -- --
0000:    42 AB 12 03 01 00 08  10 03 00 00 09 10 02 09   B..............
0010: 10 00 80 00 C7 00 24 01  80 02 80 02 80 25 02 00  ......$......%..
0020: 10 02 80 00 2E 00 03 01  10 03 80 01 BC 00 02 00  ................
0030: 10 00 80 00 3E 00 03 01  10 04 80 01 BC 00 02 00  ....>...........
0040: 10 05 80 00 4E 00 03 01  10 06 80 01 BC 00 02 00  ....N...........
0050: 10 07 80 00 5E 00 03 01  10 08 80 01 BC 00 02 00  ....^...........
0060: 10 09 80 00 6E 00 03 01  10 0A 80 01 BC 00 02 00  ....n...........
0070: 10 0B 80 00 7E 00 03 01  10 0C 80 01 BC 00 02 00  ....~...........
0080: 10 0D 80 00 8E 00 03 01  10 0E 80 01 BC 00 02 00  ................
0090: 10 0F 80 00 AE 00 03 01  10 10 80 43 00 43 01 03  ...........C.C..
00A0: 01 00 08 10 48 11 80 23  01 16 00 01 BC 00 02 00  ....H..#........
00B0: 10 12 80 00 BC 00 01 C7  00 01 BC 00 43 00 43 01  ............C.C.
00C0: 48 13 80 23 01 16 00 1A  F1 29 46 01 38 14 80 4E  H..#.....)F.8..N
00D0: 01 F0 FF FF 7F 27 10 FB  01 03 01 02 27 10 FC 01  .....'......'...
00E0: 03 01 02 27 10 FD 01 03  01 02 27 10 FE 01 03 01  ...'......'.....
00F0: 02 27 10 FF 01 03 01 02  27 10 00 02 03 01 02 27  .'......'......'
0100: 10 01 02 03 01 02 27 10  02 02 03 01 02 27 10 13  ......'......'..
0110: 02 03 01 0B 27 10 14 02  03 01 0B 27 10 15 02 03  ....'......'....
0120: 01 0B 94 01 F0 FF FF 7F  94 01 FB 01 03 01 94 01  ................
0130: FC 01 03 01 94 01 FD 01  03 01 94 01 FE 01 03 01  ................
0140: 94 01 FF 01 03 01 94 01  00 02 03 01 94 01 01 02  ................
0150: 03 01 94 01 02 02 03 01  29 10 F0 FF FF 7F 04 29  ........)......)
0160: 10 FB 01 03 01 06 29 10  FC 01 03 01 06 29 10 FD  ......)......)..
0170: 01 03 01 06 29 10 FE 01  03 01 06 29 10 FF 01 03  ....)......)....
0180: 01 06 29 10 00 02 03 01  06 29 10 01 02 03 01 06  ..)......)......
0190: 29 10 02 02 03 01 06 1C  15 80 80 F0 FF FF 7F 80  )...............
01A0: FF 01 03 01 80 00 02 03  01 80 01 02 03 01 80 02  ................
01B0: 02 03 01 80 FB 01 03 01  80 FC 01 03 01 80 FD 01  ................
01C0: 03 01 80 FE 01 03 01 4E  01 FB 01 03 01 4E 01 FC  .......N.....N..
01D0: 01 03 01 4E 01 FD 01 03  01 4E 01 FE 01 03 01 6C  ...N.....N.....l
01E0: FF 01 03 01 02 80 00 80  6C 00 02 03 01 02 80 00  ........l.......
01F0: 80 6C 01 02 03 01 02 80  00 80 6C 02 02 03 01 02  .l........l.....
0200: 80 00 80 29 10 A9 01 03  01 0B 29 10 AA 01 03 01  ...)......).....
0210: 0B 29 10 AB 01 03 01 0B  29 10 AC 01 03 01 0B 29  .)......)......)
0220: 10 AD 01 03 01 0B 29 10  A5 01 03 01 0B 29 10 AE  ......)......)..
0230: 01 03 01 0B 5B 16 80 13  02 03 01 13 02 03 01 73  ....[..........s
0240: 74 61 30 5B 16 80 14 02  03 01 14 02 03 01 73 74  ta0[..........st
0250: 61 30 5B 16 80 15 02 03  01 15 02 03 01 73 74 61  a0[..........sta
0260: 30 1A 79 23 5C 00 17 80  5C 01 17 80 5C 02 17 80  0.y#\...\...\...
0270: 5C 03 17 80 9A 5D 18 80  19 80 1C 1A 80 48 1B 80  \....].......H..
0280: 45 1C 80 F0 FF FF 7F F0  FF FF 7F 77 72 30 31 02  E..........wr01.
0290: 80 45 1D 80 F0 FF FF 7F  F0 FF FF 7F 77 68 69 31  .E..........whi1
02A0: 02 80 1A D0 29 55 1C 80  F0 FF FF 7F F0 FF FF 7F  ....)U..........
02B0: 77 72 30 31 45 1C 80 F0  FF FF 7F F0 FF FF 7F 77  wr01E..........w
02C0: 72 30 32 02 80 48 1E 80  55 1C 80 F0 FF FF 7F F0  r02..H..U.......
02D0: FF FF 7F 77 72 30 32 45  1C 80 F0 FF FF 7F F0 FF  ...wr02E........
02E0: FF 7F 77 72 30 30 02 80  48 1F 80 1C 20 80 48 21  ..wr00..H... .H!
02F0: 80 1C 20 80 48 22 80 55  1C 80 F0 FF FF 7F F0 FF  .. .H".U........
0300: FF 7F 77 72 30 30 45 1C  80 F0 FF FF 7F F0 FF FF  ..wr00E.........
0310: 7F 77 72 30 33 02 80 4E  00 FC 01 03 01 4E 00 FB  .wr03..N.....N..
0320: 01 03 01 4E 00 FD 01 03  01 4E 00 FE 01 03 01 1C  ...N.....N......
0330: 23 80 52 1C 80 F0 FF FF  7F F0 FF FF 7F 77 72 30  #.R..........wr0
0340: 33 45 1C 80 F0 FF FF 7F  F0 FF FF 7F 77 72 30 36  3E..........wr06
0350: 02 80 5B 24 80 FC 01 03  01 FC 01 03 01 77 61 72  ..[$.........war
0360: 30 1C 20 80 52 1C 80 F0  FF FF 7F F0 FF FF 7F 77  0. .R..........w
0370: 72 30 36 45 1C 80 F0 FF  FF 7F F0 FF FF 7F 77 72  r06E..........wr
0380: 30 37 02 80 27 10 FC 01  03 01 08 27 10 FB 01 03  07..'......'....
0390: 01 07 1C 09 80 27 10 FD  01 03 01 07 1C 0F 80 27  .....'.........'
03A0: 10 FE 01 03 01 07 55 1C  80 F0 FF FF 7F F0 FF FF  ......U.........
03B0: 7F 77 72 30 37 45 1C 80  F0 FF FF 7F F0 FF FF 7F  .wr07E..........
03C0: 77 72 30 38 02 80 27 10  F8 01 03 01 0B 9F 25 80  wr08..'.......%.
03D0: FF 01 03 01 FF 01 03 01  6D 61 69 6E 02 80 1C 15  ........main....
03E0: 80 27 10 FF 01 03 01 07  27 10 F9 01 03 01 0B 9F  .'......'.......
03F0: 25 80 00 02 03 01 00 02  03 01 6D 61 69 6E 02 80  %.........main..
0400: 1C 15 80 27 10 00 02 03  01 07 55 1C 80 F0 FF FF  ...'......U.....
0410: 7F F0 FF FF 7F 77 72 30  38 45 1C 80 F0 FF FF 7F  .....wr08E......
0420: F0 FF FF 7F 77 72 30 39  02 80 27 10 F8 01 03 01  ....wr09..'.....
0430: 0A 27 10 01 02 03 01 07  1C 15 80 27 10 F9 01 03  .'.........'....
0440: 01 0A 27 10 02 02 03 01  07 55 1C 80 F0 FF FF 7F  ..'......U......
0450: F0 FF FF 7F 77 72 30 39  45 1C 80 F0 FF FF 7F F0  ....wr09E.......
0460: FF FF 7F 77 72 31 30 02  80 55 1C 80 F0 FF FF 7F  ...wr10..U......
0470: F0 FF FF 7F 77 72 31 30  45 1C 80 F0 FF FF 7F F0  ....wr10E.......
0480: FF FF 7F 77 72 30 34 02  80 45 1C 80 F0 FF FF 7F  ...wr04..E......
0490: F0 FF FF 7F 30 62 6C 66  02 80 55 1C 80 F0 FF FF  ....0blf..U.....
04A0: 7F F0 FF FF 7F 77 72 30  34 45 1C 80 F0 FF FF 7F  .....wr04E......
04B0: F0 FF FF 7F 77 72 30 35  02 80 27 10 FB 01 03 01  ....wr05..'.....
04C0: 03 27 10 FC 01 03 01 03  27 10 FD 01 03 01 03 27  .'......'......'
04D0: 10 FE 01 03 01 03 27 10  FF 01 03 01 03 27 10 00  ......'......'..
04E0: 02 03 01 03 27 10 01 02  03 01 03 27 10 02 02 03  ....'......'....
04F0: 01 03 1A 8A 21 1A 3A 1D  02 01 00 00 80 00 A8 05  ....!.:.........
0500: 1A F1 29 1A 9C 22 1A 79  23 27 10 18 02 03 01 02  ..)..".y#'......
0510: 94 01 18 02 03 01 29 10  18 02 03 01 06 80 18 02  ......).........
0520: 03 01 BB 26 80 18 02 03  01 18 02 03 01 6D 61 69  ...&.........mai
0530: 6E 02 80 45 1C 80 F0 FF  FF 7F F0 FF FF 7F 62 6C  n..E..........bl
0540: 6D 31 02 80 45 27 80 F0  FF FF 7F F0 FF FF 7F 66  m1..E'.........f
0550: 64 69 31 02 80 1C 28 80  52 1C 80 F0 FF FF 7F F0  di1...(.R.......
0560: FF FF 7F 62 6C 6D 31 45  1C 80 F0 FF FF 7F F0 FF  ...blm1E........
0570: FF 7F 62 6C 6D 30 02 80  5B 29 80 18 02 03 01 18  ..blm0..[)......
0580: 02 03 01 77 61 72 30 1C  19 80 2B 18 02 03 01 2A  ...war0...+....*
0590: 80 1C 19 80 2B 18 02 03  01 2B 80 1C 2C 80 2B 18  ....+....+..,.+.
05A0: 02 03 01 2D 80 1C 2E 80  1A F1 29 1C 1A 80 02 01  ...-......).....
05B0: 00 00 80 00 C7 05 BB 26  80 18 02 03 01 18 02 03  .......&........
05C0: 01 6B 69 6C 6C 02 80 45  1C 80 F0 FF FF 7F F0 FF  .kill..E........
05D0: FF 7F 62 6C 6D 6B 02 80  5D 2F 80 30 80 52 1C 80  ..blmk..]/.0.R..
05E0: F0 FF FF 7F F0 FF FF 7F  62 6C 6D 30 4E 00 F0 FF  ........blm0N...
05F0: FF 7F 1A F2 27 1A 9C 22  02 00 00 00 80 00 11 06  ....'.."........
0600: 5C 00 31 80 5C 01 31 80  5C 02 31 80 5C 03 31 80  \.1.\.1.\.1.\.1.
0610: 9A 46 00 AB 11 02 80 1C  00 80 45 27 80 F0 FF FF  .F........E'....
0620: 7F F0 FF FF 7F 66 64 69  32 02 80 21 00           .....fdi2..!.   
```

#### Opcodes

```
  0: 0x0001 [0x42] SET_CLI_EVENT_CANCEL_DATA()
  1: 0x0002 [0xAB] EventEntity->Render.Flags2 |= 0x04 // Set bit 2
  2: 0x0004 [0x03] ExtData[1]->WorkLocal[1] = Work_Zone[8]
  3: 0x0009 [0x03] ExtData[1]->WorkLocal[0] = Work_Zone[9]
  4: 0x000E [0x02] IF !(Work_Zone[9] == 1*) GOTO 0x00C7
  5: 0x0016 [0x24] CREATE_DIALOG(message_id=7910*, default_option=0*, option_flags=0*)
    → "Switch between captured and safe: [Sky General./Flame General./Water General./Earth General./Gale General./All captured./All safe./Beastman Boss./Begin event.]"
  6: 0x001D [0x25] WAIT_DIALOG_SELECT()
  7: 0x001E [0x02] IF !(Work_Zone[0] == 0*) GOTO 0x002E
  8: 0x0026 [0x03] Work_Zone[1] = 51*
  9: 0x002B [0x01] GOTO 0x00BC
 10: 0x002E [0x02] IF !(Work_Zone[0] == 1*) GOTO 0x003E
 11: 0x0036 [0x03] Work_Zone[1] = 52*
 12: 0x003B [0x01] GOTO 0x00BC
 13: 0x003E [0x02] IF !(Work_Zone[0] == 2*) GOTO 0x004E
 14: 0x0046 [0x03] Work_Zone[1] = 53*
 15: 0x004B [0x01] GOTO 0x00BC
 16: 0x004E [0x02] IF !(Work_Zone[0] == 3*) GOTO 0x005E
 17: 0x0056 [0x03] Work_Zone[1] = 54*
 18: 0x005B [0x01] GOTO 0x00BC
 19: 0x005E [0x02] IF !(Work_Zone[0] == 4*) GOTO 0x006E
 20: 0x0066 [0x03] Work_Zone[1] = 55*
 21: 0x006B [0x01] GOTO 0x00BC
 22: 0x006E [0x02] IF !(Work_Zone[0] == 5*) GOTO 0x007E
 23: 0x0076 [0x03] Work_Zone[1] = 56*
 24: 0x007B [0x01] GOTO 0x00BC
 25: 0x007E [0x02] IF !(Work_Zone[0] == 6*) GOTO 0x008E
 26: 0x0086 [0x03] Work_Zone[1] = 57*
 27: 0x008B [0x01] GOTO 0x00BC
 28: 0x008E [0x02] IF !(Work_Zone[0] == 7*) GOTO 0x00AE
 29: 0x0096 [0x03] Work_Zone[1] = 58*
 30: 0x009B [0x43] SEND_EVENT_UPDATE: Send pending tag to server (packet 0x005B)
 31: 0x009D [0x43] SEND_EVENT_UPDATE: Check pending flag (skip if not pending)
 32: 0x009F [0x03] ExtData[1]->WorkLocal[1] = Work_Zone[8]
 33: 0x00A4 [0x48] [System] [7911*]:
    → "Beastman Boss: [Absent/Present]"
 34: 0x00A7 [0x23] WAIT_FOR_DIALOG_INTERACTION
 35: 0x00A8 [0x01] GOTO 0x0016

SUBROUTINE_00BC:
 36: 0x00BC [0x43] SEND_EVENT_UPDATE: Send pending tag to server (packet 0x005B)
 37: 0x00BE [0x43] SEND_EVENT_UPDATE: Check pending flag (skip if not pending)
 38: 0x00C0 [0x48] [System] [7909*]:
    → "DEBUG: The [Skys/Flames/Waters/Earths/Gales/S]erpent General(s) are [captured/safe]!"
 39: 0x00C3 [0x23] WAIT_FOR_DIALOG_INTERACTION
 40: 0x00C4 [0x01] GOTO 0x0016

SUBROUTINE_00C7:
 41: 0x00C7 [0x1A] CALL_SUBROUTINE(address=0x29F1)
 42: 0x00CA [0x46] CAMERA_CONTROL: Disable user control
 43: 0x00CC [0x38] SET_CLIENT_EVENT_MODE(mode=19*)
 44: 0x00CF [0x4E] SET_ENTITY_HIDE_FLAG: Hide LocalPlayer
 45: 0x00D5 [0x27] REQ_SET(priority=0x10, entity_id=Unnamed NPC (ID: 16974331/0x010301FB), tag_num=0x02)
 46: 0x00DC [0x27] REQ_SET(priority=0x10, entity_id=Unnamed NPC (ID: 16974332/0x010301FC), tag_num=0x02)
 47: 0x00E3 [0x27] REQ_SET(priority=0x10, entity_id=Unnamed NPC (ID: 16974333/0x010301FD), tag_num=0x02)
 48: 0x00EA [0x27] REQ_SET(priority=0x10, entity_id=Unnamed NPC (ID: 16974334/0x010301FE), tag_num=0x02)
 49: 0x00F1 [0x27] REQ_SET(priority=0x10, entity_id=Unnamed NPC (ID: 16974335/0x010301FF), tag_num=0x02)
 50: 0x00F8 [0x27] REQ_SET(priority=0x10, entity_id=Unnamed NPC (ID: 16974336/0x01030200), tag_num=0x02)
 51: 0x00FF [0x27] REQ_SET(priority=0x10, entity_id=Unnamed NPC (ID: 16974337/0x01030201), tag_num=0x02)
 52: 0x0106 [0x27] REQ_SET(priority=0x10, entity_id=Unnamed NPC (ID: 16974338/0x01030202), tag_num=0x02)
 53: 0x010D [0x27] REQ_SET(priority=0x10, entity_id=Mutarid (ID: 16974355/0x01030213), tag_num=0x0B)
 54: 0x0114 [0x27] REQ_SET(priority=0x10, entity_id=Syaid (ID: 16974356/0x01030214), tag_num=0x0B)
 55: 0x011B [0x27] REQ_SET(priority=0x10, entity_id=Azwil (ID: 16974357/0x01030215), tag_num=0x0B)
 56: 0x0122 [0x94] LocalPlayer->Render.Flags3 ^= 0x01
 57: 0x0128 [0x94] Unnamed NPC (ID: 16974331/0x010301FB)->Render.Flags3 ^= 0x01
 58: 0x012E [0x94] Unnamed NPC (ID: 16974332/0x010301FC)->Render.Flags3 ^= 0x01
 59: 0x0134 [0x94] Unnamed NPC (ID: 16974333/0x010301FD)->Render.Flags3 ^= 0x01
 60: 0x013A [0x94] Unnamed NPC (ID: 16974334/0x010301FE)->Render.Flags3 ^= 0x01
 61: 0x0140 [0x94] Unnamed NPC (ID: 16974335/0x010301FF)->Render.Flags3 ^= 0x01
 62: 0x0146 [0x94] Unnamed NPC (ID: 16974336/0x01030200)->Render.Flags3 ^= 0x01
 63: 0x014C [0x94] Unnamed NPC (ID: 16974337/0x01030201)->Render.Flags3 ^= 0x01
 64: 0x0152 [0x94] Unnamed NPC (ID: 16974338/0x01030202)->Render.Flags3 ^= 0x01
 65: 0x0158 [0x29] REQ_SET_WAIT(priority=0x10, entity_id=LocalPlayer, tag_num=0x04)
 66: 0x015F [0x29] REQ_SET_WAIT(priority=0x10, entity_id=Unnamed NPC (ID: 16974331/0x010301FB), tag_num=0x06)
 67: 0x0166 [0x29] REQ_SET_WAIT(priority=0x10, entity_id=Unnamed NPC (ID: 16974332/0x010301FC), tag_num=0x06)
 68: 0x016D [0x29] REQ_SET_WAIT(priority=0x10, entity_id=Unnamed NPC (ID: 16974333/0x010301FD), tag_num=0x06)
 69: 0x0174 [0x29] REQ_SET_WAIT(priority=0x10, entity_id=Unnamed NPC (ID: 16974334/0x010301FE), tag_num=0x06)
 70: 0x017B [0x29] REQ_SET_WAIT(priority=0x10, entity_id=Unnamed NPC (ID: 16974335/0x010301FF), tag_num=0x06)
 71: 0x0182 [0x29] REQ_SET_WAIT(priority=0x10, entity_id=Unnamed NPC (ID: 16974336/0x01030200), tag_num=0x06)
 72: 0x0189 [0x29] REQ_SET_WAIT(priority=0x10, entity_id=Unnamed NPC (ID: 16974337/0x01030201), tag_num=0x06)
 73: 0x0190 [0x29] REQ_SET_WAIT(priority=0x10, entity_id=Unnamed NPC (ID: 16974338/0x01030202), tag_num=0x06)
 74: 0x0197 [0x1C] WAIT(15* ticks)
 75: 0x019A [0x80] LOAD_WAIT(entity=LocalPlayer)
 76: 0x019F [0x80] LOAD_WAIT(entity=Unnamed NPC (ID: 16974335/0x010301FF))
 77: 0x01A4 [0x80] LOAD_WAIT(entity=Unnamed NPC (ID: 16974336/0x01030200))
 78: 0x01A9 [0x80] LOAD_WAIT(entity=Unnamed NPC (ID: 16974337/0x01030201))
 79: 0x01AE [0x80] LOAD_WAIT(entity=Unnamed NPC (ID: 16974338/0x01030202))
 80: 0x01B3 [0x80] LOAD_WAIT(entity=Unnamed NPC (ID: 16974331/0x010301FB))
 81: 0x01B8 [0x80] LOAD_WAIT(entity=Unnamed NPC (ID: 16974332/0x010301FC))
 82: 0x01BD [0x80] LOAD_WAIT(entity=Unnamed NPC (ID: 16974333/0x010301FD))
 83: 0x01C2 [0x80] LOAD_WAIT(entity=Unnamed NPC (ID: 16974334/0x010301FE))
 84: 0x01C7 [0x4E] SET_ENTITY_HIDE_FLAG: Hide Unnamed NPC (ID: 16974331/0x010301FB)
 85: 0x01CD [0x4E] SET_ENTITY_HIDE_FLAG: Hide Unnamed NPC (ID: 16974332/0x010301FC)
 86: 0x01D3 [0x4E] SET_ENTITY_HIDE_FLAG: Hide Unnamed NPC (ID: 16974333/0x010301FD)
 87: 0x01D9 [0x4E] SET_ENTITY_HIDE_FLAG: Hide Unnamed NPC (ID: 16974334/0x010301FE)
 88: 0x01DF [0x6C] FADE_ENTITY_COLOR(entity_id=Unnamed NPC (ID: 16974335/0x010301FF), end_alpha=0*, fade_time=1*)
 89: 0x01E8 [0x6C] FADE_ENTITY_COLOR(entity_id=Unnamed NPC (ID: 16974336/0x01030200), end_alpha=0*, fade_time=1*)
 90: 0x01F1 [0x6C] FADE_ENTITY_COLOR(entity_id=Unnamed NPC (ID: 16974337/0x01030201), end_alpha=0*, fade_time=1*)
 91: 0x01FA [0x6C] FADE_ENTITY_COLOR(entity_id=Unnamed NPC (ID: 16974338/0x01030202), end_alpha=0*, fade_time=1*)
 92: 0x0203 [0x29] REQ_SET_WAIT(priority=0x10, entity_id=FX_01 (ID: 16974249/0x010301A9), tag_num=0x0B)
 93: 0x020A [0x29] REQ_SET_WAIT(priority=0x10, entity_id=FX_02 (ID: 16974250/0x010301AA), tag_num=0x0B)
 94: 0x0211 [0x29] REQ_SET_WAIT(priority=0x10, entity_id=FX_03 (ID: 16974251/0x010301AB), tag_num=0x0B)
 95: 0x0218 [0x29] REQ_SET_WAIT(priority=0x10, entity_id=FX_04 (ID: 16974252/0x010301AC), tag_num=0x0B)
 96: 0x021F [0x29] REQ_SET_WAIT(priority=0x10, entity_id=FX_05 (ID: 16974253/0x010301AD), tag_num=0x0B)
 97: 0x0226 [0x29] REQ_SET_WAIT(priority=0x10, entity_id=Gate: Hall of Binding (ID: 16974245/0x010301A5), tag_num=0x0B)
 98: 0x022D [0x29] REQ_SET_WAIT(priority=0x10, entity_id=Door: Inner Sanctum (ID: 16974254/0x010301AE), tag_num=0x0B)
 99: 0x0234 [0x5B] LOAD_EXT_SCHEDULER: Load scheduler "sta0" with entities [Mutarid (ID: 16974355/0x01030213), Mutarid (ID: 16974355/0x01030213)], work=837*
100: 0x0243 [0x5B] LOAD_EXT_SCHEDULER: Load scheduler "sta0" with entities [Syaid (ID: 16974356/0x01030214), Syaid (ID: 16974356/0x01030214)], work=837*
101: 0x0252 [0x5B] LOAD_EXT_SCHEDULER: Load scheduler "sta0" with entities [Azwil (ID: 16974357/0x01030215), Azwil (ID: 16974357/0x01030215)], work=837*
102: 0x0261 [0x1A] CALL_SUBROUTINE(address=0x2379)
103: 0x0264 [0x5C] MUSIC_CONTROL: Set Idle (Day) music to song 142*
104: 0x0268 [0x5C] MUSIC_CONTROL: Set Idle (Night) music to song 142*
105: 0x026C [0x5C] MUSIC_CONTROL: Set Combat (Solo) music to song 142*
106: 0x0270 [0x5C] MUSIC_CONTROL: Set Combat (Party) music to song 142*
107: 0x0274 [0x9A] WAIT_MUSIC_SERVER()
108: 0x0275 [0x5D] SET_MUSIC_VOLUME(volume=96*, fade_time=300*)
109: 0x027A [0x1C] WAIT(30* ticks)
110: 0x027D [0x48] [System] [7767*]:
    → "Al Zahbi is under attack!"
111: 0x0280 [0x45] LOAD_SCHEDULED_TASK: Load scheduler "wr01" with entities [LocalPlayer, LocalPlayer], work=[270*, 0*]
112: 0x0291 [0x45] LOAD_SCHEDULED_TASK: Load scheduler "whi1" with entities [LocalPlayer, LocalPlayer], work=[201*, 0*]
113: 0x02A2 [0x1A] CALL_SUBROUTINE(address=0x29D0)
114: 0x02A5 [0x55] WAIT_LOAD_SCHEDULER: Wait for scheduler "wr01" with entities [LocalPlayer, LocalPlayer], work=270*
115: 0x02B4 [0x45] LOAD_SCHEDULED_TASK: Load scheduler "wr02" with entities [LocalPlayer, LocalPlayer], work=[270*, 0*]
116: 0x02C5 [0x48] [System] [7770*]:
    → "The Undead Swarm has breached the Balrahn Defense Line!"
117: 0x02C8 [0x55] WAIT_LOAD_SCHEDULER: Wait for scheduler "wr02" with entities [LocalPlayer, LocalPlayer], work=270*
118: 0x02D7 [0x45] LOAD_SCHEDULED_TASK: Load scheduler "wr00" with entities [LocalPlayer, LocalPlayer], work=[270*, 0*]
119: 0x02E8 [0x48] [System] [7771*]:
    → "They are advancing on the Imperial capital!"
120: 0x02EB [0x1C] WAIT(120* ticks)
121: 0x02EE [0x48] [System] [7772*]:
    → "Martial law has been declared in Al Zahbi! Repeating... Martial law has been declared in Al Zahbi!"
122: 0x02F1 [0x1C] WAIT(120* ticks)
123: 0x02F4 [0x48] [System] [7773*]:
    → "All non-combatants in the Commoners' Ward are to evacuate immediately! Repeating... All non-combatants in the Commoners' Ward are to evacuate immediately!"
124: 0x02F7 [0x55] WAIT_LOAD_SCHEDULER: Wait for scheduler "wr00" with entities [LocalPlayer, LocalPlayer], work=270*
125: 0x0306 [0x45] LOAD_SCHEDULED_TASK: Load scheduler "wr03" with entities [LocalPlayer, LocalPlayer], work=[270*, 0*]
126: 0x0317 [0x4E] SET_ENTITY_HIDE_FLAG: Show Unnamed NPC (ID: 16974332/0x010301FC)
127: 0x031D [0x4E] SET_ENTITY_HIDE_FLAG: Show Unnamed NPC (ID: 16974331/0x010301FB)
128: 0x0323 [0x4E] SET_ENTITY_HIDE_FLAG: Show Unnamed NPC (ID: 16974333/0x010301FD)
129: 0x0329 [0x4E] SET_ENTITY_HIDE_FLAG: Show Unnamed NPC (ID: 16974334/0x010301FE)
130: 0x032F [0x1C] WAIT(60* ticks)
131: 0x0332 [0x52] END_LOAD_SCHEDULER: End scheduler "wr03" with entities [LocalPlayer, LocalPlayer], work=270*
132: 0x0341 [0x45] LOAD_SCHEDULED_TASK: Load scheduler "wr06" with entities [LocalPlayer, LocalPlayer], work=[270*, 0*]
133: 0x0352 [0x5B] LOAD_EXT_SCHEDULER: Load scheduler "war0" with entities [Unnamed NPC (ID: 16974332/0x010301FC), Unnamed NPC (ID: 16974332/0x010301FC)], work=826*
134: 0x0361 [0x1C] WAIT(120* ticks)
135: 0x0364 [0x52] END_LOAD_SCHEDULER: End scheduler "wr06" with entities [LocalPlayer, LocalPlayer], work=270*
136: 0x0373 [0x45] LOAD_SCHEDULED_TASK: Load scheduler "wr07" with entities [LocalPlayer, LocalPlayer], work=[270*, 0*]
137: 0x0384 [0x27] REQ_SET(priority=0x10, entity_id=Unnamed NPC (ID: 16974332/0x010301FC), tag_num=0x08)
138: 0x038B [0x27] REQ_SET(priority=0x10, entity_id=Unnamed NPC (ID: 16974331/0x010301FB), tag_num=0x07)
139: 0x0392 [0x1C] WAIT(4* ticks)
140: 0x0395 [0x27] REQ_SET(priority=0x10, entity_id=Unnamed NPC (ID: 16974333/0x010301FD), tag_num=0x07)
141: 0x039C [0x1C] WAIT(7* ticks)
142: 0x039F [0x27] REQ_SET(priority=0x10, entity_id=Unnamed NPC (ID: 16974334/0x010301FE), tag_num=0x07)
143: 0x03A6 [0x55] WAIT_LOAD_SCHEDULER: Wait for scheduler "wr07" with entities [LocalPlayer, LocalPlayer], work=270*
144: 0x03B5 [0x45] LOAD_SCHEDULED_TASK: Load scheduler "wr08" with entities [LocalPlayer, LocalPlayer], work=[270*, 0*]
145: 0x03C6 [0x27] REQ_SET(priority=0x10, entity_id=??? (ID: 16974328/0x010301F8), tag_num=0x0B)
146: 0x03CD [0x9F] LOAD_SCHEDULED_TASK_ALT: Load scheduler "main" with entities [Unnamed NPC (ID: 16974335/0x010301FF), Unnamed NPC (ID: 16974335/0x010301FF)], work=[164*, 0*]
147: 0x03DE [0x1C] WAIT(15* ticks)
148: 0x03E1 [0x27] REQ_SET(priority=0x10, entity_id=Unnamed NPC (ID: 16974335/0x010301FF), tag_num=0x07)
149: 0x03E8 [0x27] REQ_SET(priority=0x10, entity_id=Unnamed NPC (ID: 16974329/0x010301F9), tag_num=0x0B)
150: 0x03EF [0x9F] LOAD_SCHEDULED_TASK_ALT: Load scheduler "main" with entities [Unnamed NPC (ID: 16974336/0x01030200), Unnamed NPC (ID: 16974336/0x01030200)], work=[164*, 0*]
151: 0x0400 [0x1C] WAIT(15* ticks)
152: 0x0403 [0x27] REQ_SET(priority=0x10, entity_id=Unnamed NPC (ID: 16974336/0x01030200), tag_num=0x07)
153: 0x040A [0x55] WAIT_LOAD_SCHEDULER: Wait for scheduler "wr08" with entities [LocalPlayer, LocalPlayer], work=270*
154: 0x0419 [0x45] LOAD_SCHEDULED_TASK: Load scheduler "wr09" with entities [LocalPlayer, LocalPlayer], work=[270*, 0*]
155: 0x042A [0x27] REQ_SET(priority=0x10, entity_id=??? (ID: 16974328/0x010301F8), tag_num=0x0A)
156: 0x0431 [0x27] REQ_SET(priority=0x10, entity_id=Unnamed NPC (ID: 16974337/0x01030201), tag_num=0x07)
157: 0x0438 [0x1C] WAIT(15* ticks)
158: 0x043B [0x27] REQ_SET(priority=0x10, entity_id=Unnamed NPC (ID: 16974329/0x010301F9), tag_num=0x0A)
159: 0x0442 [0x27] REQ_SET(priority=0x10, entity_id=Unnamed NPC (ID: 16974338/0x01030202), tag_num=0x07)
160: 0x0449 [0x55] WAIT_LOAD_SCHEDULER: Wait for scheduler "wr09" with entities [LocalPlayer, LocalPlayer], work=270*
161: 0x0458 [0x45] LOAD_SCHEDULED_TASK: Load scheduler "wr10" with entities [LocalPlayer, LocalPlayer], work=[270*, 0*]
162: 0x0469 [0x55] WAIT_LOAD_SCHEDULER: Wait for scheduler "wr10" with entities [LocalPlayer, LocalPlayer], work=270*
163: 0x0478 [0x45] LOAD_SCHEDULED_TASK: Load scheduler "wr04" with entities [LocalPlayer, LocalPlayer], work=[270*, 0*]
164: 0x0489 [0x45] LOAD_SCHEDULED_TASK: Load scheduler "0blf" with entities [LocalPlayer, LocalPlayer], work=[270*, 0*]
165: 0x049A [0x55] WAIT_LOAD_SCHEDULER: Wait for scheduler "wr04" with entities [LocalPlayer, LocalPlayer], work=270*
166: 0x04A9 [0x45] LOAD_SCHEDULED_TASK: Load scheduler "wr05" with entities [LocalPlayer, LocalPlayer], work=[270*, 0*]
167: 0x04BA [0x27] REQ_SET(priority=0x10, entity_id=Unnamed NPC (ID: 16974331/0x010301FB), tag_num=0x03)
168: 0x04C1 [0x27] REQ_SET(priority=0x10, entity_id=Unnamed NPC (ID: 16974332/0x010301FC), tag_num=0x03)
169: 0x04C8 [0x27] REQ_SET(priority=0x10, entity_id=Unnamed NPC (ID: 16974333/0x010301FD), tag_num=0x03)
170: 0x04CF [0x27] REQ_SET(priority=0x10, entity_id=Unnamed NPC (ID: 16974334/0x010301FE), tag_num=0x03)
171: 0x04D6 [0x27] REQ_SET(priority=0x10, entity_id=Unnamed NPC (ID: 16974335/0x010301FF), tag_num=0x03)
172: 0x04DD [0x27] REQ_SET(priority=0x10, entity_id=Unnamed NPC (ID: 16974336/0x01030200), tag_num=0x03)
173: 0x04E4 [0x27] REQ_SET(priority=0x10, entity_id=Unnamed NPC (ID: 16974337/0x01030201), tag_num=0x03)
174: 0x04EB [0x27] REQ_SET(priority=0x10, entity_id=Unnamed NPC (ID: 16974338/0x01030202), tag_num=0x03)
175: 0x04F2 [0x1A] CALL_SUBROUTINE(address=0x218A)
176: 0x04F5 [0x1A] CALL_SUBROUTINE(address=0x1D3A)
177: 0x04F8 [0x02] IF !(ExtData[1]->WorkLocal[1] == 1*) GOTO 0x05A8
178: 0x0500 [0x1A] CALL_SUBROUTINE(address=0x29F1)
179: 0x0503 [0x1A] CALL_SUBROUTINE(address=0x229C)
180: 0x0506 [0x1A] CALL_SUBROUTINE(address=0x2379)
181: 0x0509 [0x27] REQ_SET(priority=0x10, entity_id=Medusa (ID: 16974360/0x01030218), tag_num=0x02)
182: 0x0510 [0x94] Medusa (ID: 16974360/0x01030218)->Render.Flags3 ^= 0x01
183: 0x0516 [0x29] REQ_SET_WAIT(priority=0x10, entity_id=Medusa (ID: 16974360/0x01030218), tag_num=0x06)
184: 0x051D [0x80] LOAD_WAIT(entity=Medusa (ID: 16974360/0x01030218))
185: 0x0522 [0xBB] LOAD_EVENT_SCHEDULER_ALT: Load scheduler "main" with entities [Medusa (ID: 16974360/0x01030218), Medusa (ID: 16974360/0x01030218)], work=[13*, 0*]
186: 0x0533 [0x45] LOAD_SCHEDULED_TASK: Load scheduler "blm1" with entities [LocalPlayer, LocalPlayer], work=[270*, 0*]
187: 0x0544 [0x45] LOAD_SCHEDULED_TASK: Load scheduler "fdi1" with entities [LocalPlayer, LocalPlayer], work=[200*, 0*]
188: 0x0555 [0x1C] WAIT(90* ticks)
189: 0x0558 [0x52] END_LOAD_SCHEDULER: End scheduler "blm1" with entities [LocalPlayer, LocalPlayer], work=270*
190: 0x0567 [0x45] LOAD_SCHEDULED_TASK: Load scheduler "blm0" with entities [LocalPlayer, LocalPlayer], work=[270*, 0*]
191: 0x0578 [0x5B] LOAD_EXT_SCHEDULER: Load scheduler "war0" with entities [Medusa (ID: 16974360/0x01030218), Medusa (ID: 16974360/0x01030218)], work=900*
192: 0x0587 [0x1C] WAIT(300* ticks)
193: 0x058A [0x2B] Medusa (ID: 16974360/0x01030218) [7919*]:
    → "Well, well..."
194: 0x0591 [0x1C] WAIT(300* ticks)
195: 0x0594 [0x2B] Medusa (ID: 16974360/0x01030218) [7920*]:
    → "Look at all these adorable two-legs..."
196: 0x059B [0x1C] WAIT(240* ticks)
197: 0x059E [0x2B] Medusa (ID: 16974360/0x01030218) [7921*]:
    → "Come, dance with me mortals!"
198: 0x05A5 [0x1C] WAIT(100* ticks)
199: 0x05A8 [0x1A] CALL_SUBROUTINE(address=0x29F1)
200: 0x05AB [0x1C] WAIT(30* ticks)
201: 0x05AE [0x02] IF !(ExtData[1]->WorkLocal[1] == 1*) GOTO 0x05C7
202: 0x05B6 [0xBB] LOAD_EVENT_SCHEDULER_ALT: Load scheduler "kill" with entities [Medusa (ID: 16974360/0x01030218), Medusa (ID: 16974360/0x01030218)], work=[13*, 0*]
203: 0x05C7 [0x45] LOAD_SCHEDULED_TASK: Load scheduler "blmk" with entities [LocalPlayer, LocalPlayer], work=[270*, 0*]
204: 0x05D8 [0x5D] SET_MUSIC_VOLUME(volume=127*, fade_time=180*)
205: 0x05DD [0x52] END_LOAD_SCHEDULER: End scheduler "blm0" with entities [LocalPlayer, LocalPlayer], work=270*
206: 0x05EC [0x4E] SET_ENTITY_HIDE_FLAG: Show LocalPlayer
207: 0x05F2 [0x1A] CALL_SUBROUTINE(address=0x27F2)
208: 0x05F5 [0x1A] CALL_SUBROUTINE(address=0x229C)
209: 0x05F8 [0x02] IF !(ExtData[1]->WorkLocal[0] == 1*) GOTO 0x0611
210: 0x0600 [0x5C] MUSIC_CONTROL: Set Idle (Day) music to song 178*
211: 0x0604 [0x5C] MUSIC_CONTROL: Set Idle (Night) music to song 178*
212: 0x0608 [0x5C] MUSIC_CONTROL: Set Combat (Solo) music to song 178*
213: 0x060C [0x5C] MUSIC_CONTROL: Set Combat (Party) music to song 178*
214: 0x0610 [0x9A] WAIT_MUSIC_SERVER()
215: 0x0611 [0x46] CAMERA_CONTROL: Restore default settings
216: 0x0613 [0xAB] EventEntity->DespawnValue = 0* // Set despawn value
217: 0x0617 [0x1C] WAIT(1* ticks)
218: 0x061A [0x45] LOAD_SCHEDULED_TASK: Load scheduler "fdi2" with entities [LocalPlayer, LocalPlayer], work=[200*, 0*]
219: 0x062B [0x21] END_EVENT
220: 0x062C [0x00] END_REQSTACK()
```

#### Data or dead code:

```
# Dead code (unreachable instructions):
     0x00AB [0x01] GOTO 0x00BC
     0x00B9 [0x01] GOTO 0x00BC
```

### Event 6

#### Metadata

| Field        | Value     |
|--------------|-----------|
| Entrypoint   | 0x062D    |
| Data Size    | 443 bytes |
| Instructions | 84        |

```
      00 01 02 03 04 05 06 07  08 09 0A 0B 0C 0D 0E 0F
      -- -- -- -- -- -- -- --  -- -- -- -- -- -- -- --
0620:                                         42 AB 12               B..
0630: 03 00 00 09 10 02 09 10  00 80 00 EE 06 24 01 80  .............$..
0640: 02 80 02 80 25 02 00 10  02 80 00 55 06 03 01 10  ....%......U....
0650: 03 80 01 E3 06 02 00 10  00 80 00 65 06 03 01 10  ...........e....
0660: 04 80 01 E3 06 02 00 10  05 80 00 75 06 03 01 10  ...........u....
0670: 06 80 01 E3 06 02 00 10  07 80 00 85 06 03 01 10  ................
0680: 08 80 01 E3 06 02 00 10  09 80 00 95 06 03 01 10  ................
0690: 0A 80 01 E3 06 02 00 10  0B 80 00 A5 06 03 01 10  ................
06A0: 0C 80 01 E3 06 02 00 10  0D 80 00 B5 06 03 01 10  ................
06B0: 0E 80 01 E3 06 02 00 10  0F 80 00 D5 06 03 01 10  ................
06C0: 10 80 43 00 43 01 03 01  00 08 10 48 11 80 23 01  ..C.C......H..#.
06D0: 3D 06 01 E3 06 02 00 10  12 80 00 E3 06 01 EE 06  =...............
06E0: 01 E3 06 43 00 43 01 48  13 80 23 01 3D 06 1A F1  ...C.C.H..#.=...
06F0: 29 5D 02 80 20 80 46 01  38 14 80 29 10 13 02 03  )].. .F.8..)....
0700: 01 0C 29 10 14 02 03 01  0C 29 10 15 02 03 01 0C  ..)......)......
0710: 4E 01 F0 FF FF 7F 80 F0  FF FF 7F 80 13 02 03 01  N...............
0720: 80 14 02 03 01 80 15 02  03 01 29 10 A9 01 03 01  ..........).....
0730: 0B 29 10 AA 01 03 01 0B  29 10 AB 01 03 01 0B 29  .)......)......)
0740: 10 AC 01 03 01 0B 29 10  AD 01 03 01 0B 29 10 A5  ......)......)..
0750: 01 03 01 0B 29 10 AE 01  03 01 0B 5B 16 80 13 02  ....)......[....
0760: 03 01 13 02 03 01 73 74  61 30 5B 16 80 14 02 03  ......sta0[.....
0770: 01 14 02 03 01 73 74 61  30 5B 16 80 15 02 03 01  .....sta0[......
0780: 15 02 03 01 73 74 61 30  1A AA 23 5C 00 32 80 5C  ....sta0..#\.2.\
0790: 01 32 80 5C 02 32 80 5C  03 32 80 9A 1C 30 80 1A  .2.\.2.\.2...0..
07A0: DB 23 1A F1 29 1C 1A 80  4E 00 F0 FF FF 7F 1A 08  .#..)...N.......
07B0: 23 5C 00 31 80 5C 01 31  80 5C 02 31 80 5C 03 31  #\.1.\.1.\.1.\.1
07C0: 80 9A 46 00 45 1D 80 F0  FF FF 7F F0 FF FF 7F 77  ..F.E..........w
07D0: 68 69 31 02 80 45 27 80  F0 FF FF 7F F0 FF FF 7F  hi1..E'.........
07E0: 66 64 69 32 02 80 21 00                           fdi2..!.        
```

#### Opcodes

```
  0: 0x062D [0x42] SET_CLI_EVENT_CANCEL_DATA()
  1: 0x062E [0xAB] EventEntity->Render.Flags2 |= 0x04 // Set bit 2
  2: 0x0630 [0x03] ExtData[1]->WorkLocal[0] = Work_Zone[9]
  3: 0x0635 [0x02] IF !(Work_Zone[9] == 1*) GOTO 0x06EE
  4: 0x063D [0x24] CREATE_DIALOG(message_id=7910*, default_option=0*, option_flags=0*)
    → "Switch between captured and safe: [Sky General./Flame General./Water General./Earth General./Gale General./All captured./All safe./Beastman Boss./Begin event.]"
  5: 0x0644 [0x25] WAIT_DIALOG_SELECT()
  6: 0x0645 [0x02] IF !(Work_Zone[0] == 0*) GOTO 0x0655
  7: 0x064D [0x03] Work_Zone[1] = 51*
  8: 0x0652 [0x01] GOTO 0x06E3
  9: 0x0655 [0x02] IF !(Work_Zone[0] == 1*) GOTO 0x0665
 10: 0x065D [0x03] Work_Zone[1] = 52*
 11: 0x0662 [0x01] GOTO 0x06E3
 12: 0x0665 [0x02] IF !(Work_Zone[0] == 2*) GOTO 0x0675
 13: 0x066D [0x03] Work_Zone[1] = 53*
 14: 0x0672 [0x01] GOTO 0x06E3
 15: 0x0675 [0x02] IF !(Work_Zone[0] == 3*) GOTO 0x0685
 16: 0x067D [0x03] Work_Zone[1] = 54*
 17: 0x0682 [0x01] GOTO 0x06E3
 18: 0x0685 [0x02] IF !(Work_Zone[0] == 4*) GOTO 0x0695
 19: 0x068D [0x03] Work_Zone[1] = 55*
 20: 0x0692 [0x01] GOTO 0x06E3
 21: 0x0695 [0x02] IF !(Work_Zone[0] == 5*) GOTO 0x06A5
 22: 0x069D [0x03] Work_Zone[1] = 56*
 23: 0x06A2 [0x01] GOTO 0x06E3
 24: 0x06A5 [0x02] IF !(Work_Zone[0] == 6*) GOTO 0x06B5
 25: 0x06AD [0x03] Work_Zone[1] = 57*
 26: 0x06B2 [0x01] GOTO 0x06E3
 27: 0x06B5 [0x02] IF !(Work_Zone[0] == 7*) GOTO 0x06D5
 28: 0x06BD [0x03] Work_Zone[1] = 58*
 29: 0x06C2 [0x43] SEND_EVENT_UPDATE: Send pending tag to server (packet 0x005B)
 30: 0x06C4 [0x43] SEND_EVENT_UPDATE: Check pending flag (skip if not pending)
 31: 0x06C6 [0x03] ExtData[1]->WorkLocal[1] = Work_Zone[8]
 32: 0x06CB [0x48] [System] [7911*]:
    → "Beastman Boss: [Absent/Present]"
 33: 0x06CE [0x23] WAIT_FOR_DIALOG_INTERACTION
 34: 0x06CF [0x01] GOTO 0x063D

SUBROUTINE_06E3:
 35: 0x06E3 [0x43] SEND_EVENT_UPDATE: Send pending tag to server (packet 0x005B)
 36: 0x06E5 [0x43] SEND_EVENT_UPDATE: Check pending flag (skip if not pending)
 37: 0x06E7 [0x48] [System] [7909*]:
    → "DEBUG: The [Skys/Flames/Waters/Earths/Gales/S]erpent General(s) are [captured/safe]!"
 38: 0x06EA [0x23] WAIT_FOR_DIALOG_INTERACTION
 39: 0x06EB [0x01] GOTO 0x063D

SUBROUTINE_06EE:
 40: 0x06EE [0x1A] CALL_SUBROUTINE(address=0x29F1)
 41: 0x06F1 [0x5D] SET_MUSIC_VOLUME(volume=0*, fade_time=120*)
 42: 0x06F6 [0x46] CAMERA_CONTROL: Disable user control
 43: 0x06F8 [0x38] SET_CLIENT_EVENT_MODE(mode=19*)
 44: 0x06FB [0x29] REQ_SET_WAIT(priority=0x10, entity_id=Mutarid (ID: 16974355/0x01030213), tag_num=0x0C)
 45: 0x0702 [0x29] REQ_SET_WAIT(priority=0x10, entity_id=Syaid (ID: 16974356/0x01030214), tag_num=0x0C)
 46: 0x0709 [0x29] REQ_SET_WAIT(priority=0x10, entity_id=Azwil (ID: 16974357/0x01030215), tag_num=0x0C)
 47: 0x0710 [0x4E] SET_ENTITY_HIDE_FLAG: Hide LocalPlayer
 48: 0x0716 [0x80] LOAD_WAIT(entity=LocalPlayer)
 49: 0x071B [0x80] LOAD_WAIT(entity=Mutarid (ID: 16974355/0x01030213))
 50: 0x0720 [0x80] LOAD_WAIT(entity=Syaid (ID: 16974356/0x01030214))
 51: 0x0725 [0x80] LOAD_WAIT(entity=Azwil (ID: 16974357/0x01030215))
 52: 0x072A [0x29] REQ_SET_WAIT(priority=0x10, entity_id=FX_01 (ID: 16974249/0x010301A9), tag_num=0x0B)
 53: 0x0731 [0x29] REQ_SET_WAIT(priority=0x10, entity_id=FX_02 (ID: 16974250/0x010301AA), tag_num=0x0B)
 54: 0x0738 [0x29] REQ_SET_WAIT(priority=0x10, entity_id=FX_03 (ID: 16974251/0x010301AB), tag_num=0x0B)
 55: 0x073F [0x29] REQ_SET_WAIT(priority=0x10, entity_id=FX_04 (ID: 16974252/0x010301AC), tag_num=0x0B)
 56: 0x0746 [0x29] REQ_SET_WAIT(priority=0x10, entity_id=FX_05 (ID: 16974253/0x010301AD), tag_num=0x0B)
 57: 0x074D [0x29] REQ_SET_WAIT(priority=0x10, entity_id=Gate: Hall of Binding (ID: 16974245/0x010301A5), tag_num=0x0B)
 58: 0x0754 [0x29] REQ_SET_WAIT(priority=0x10, entity_id=Door: Inner Sanctum (ID: 16974254/0x010301AE), tag_num=0x0B)
 59: 0x075B [0x5B] LOAD_EXT_SCHEDULER: Load scheduler "sta0" with entities [Mutarid (ID: 16974355/0x01030213), Mutarid (ID: 16974355/0x01030213)], work=837*
 60: 0x076A [0x5B] LOAD_EXT_SCHEDULER: Load scheduler "sta0" with entities [Syaid (ID: 16974356/0x01030214), Syaid (ID: 16974356/0x01030214)], work=837*
 61: 0x0779 [0x5B] LOAD_EXT_SCHEDULER: Load scheduler "sta0" with entities [Azwil (ID: 16974357/0x01030215), Azwil (ID: 16974357/0x01030215)], work=837*
 62: 0x0788 [0x1A] CALL_SUBROUTINE(address=0x23AA)
 63: 0x078B [0x5C] MUSIC_CONTROL: Set Idle (Day) music to song 179*
 64: 0x078F [0x5C] MUSIC_CONTROL: Set Idle (Night) music to song 179*
 65: 0x0793 [0x5C] MUSIC_CONTROL: Set Combat (Solo) music to song 179*
 66: 0x0797 [0x5C] MUSIC_CONTROL: Set Combat (Party) music to song 179*
 67: 0x079B [0x9A] WAIT_MUSIC_SERVER()
 68: 0x079C [0x1C] WAIT(180* ticks)
 69: 0x079F [0x1A] CALL_SUBROUTINE(address=0x23DB)
 70: 0x07A2 [0x1A] CALL_SUBROUTINE(address=0x29F1)
 71: 0x07A5 [0x1C] WAIT(30* ticks)
 72: 0x07A8 [0x4E] SET_ENTITY_HIDE_FLAG: Show LocalPlayer
 73: 0x07AE [0x1A] CALL_SUBROUTINE(address=0x2308)
 74: 0x07B1 [0x5C] MUSIC_CONTROL: Set Idle (Day) music to song 178*
 75: 0x07B5 [0x5C] MUSIC_CONTROL: Set Idle (Night) music to song 178*
 76: 0x07B9 [0x5C] MUSIC_CONTROL: Set Combat (Solo) music to song 178*
 77: 0x07BD [0x5C] MUSIC_CONTROL: Set Combat (Party) music to song 178*
 78: 0x07C1 [0x9A] WAIT_MUSIC_SERVER()
 79: 0x07C2 [0x46] CAMERA_CONTROL: Restore default settings
 80: 0x07C4 [0x45] LOAD_SCHEDULED_TASK: Load scheduler "whi1" with entities [LocalPlayer, LocalPlayer], work=[201*, 0*]
 81: 0x07D5 [0x45] LOAD_SCHEDULED_TASK: Load scheduler "fdi2" with entities [LocalPlayer, LocalPlayer], work=[200*, 0*]
 82: 0x07E6 [0x21] END_EVENT
 83: 0x07E7 [0x00] END_REQSTACK()
```

#### Data or dead code:

```
# Dead code (unreachable instructions):
     0x06D2 [0x01] GOTO 0x06E3
     0x06E0 [0x01] GOTO 0x06E3
```

### Event 7

#### Metadata

| Field        | Value     |
|--------------|-----------|
| Entrypoint   | 0x07E8    |
| Data Size    | 433 bytes |
| Instructions | 74        |

```
      00 01 02 03 04 05 06 07  08 09 0A 0B 0C 0D 0E 0F
      -- -- -- -- -- -- -- --  -- -- -- -- -- -- -- --
07E0:                          42 AB 12 03 00 00 09 10          B.......
07F0: 1A F1 29 27 10 B2 01 03  01 08 5D 02 80 20 80 46  ..)'......].. .F
0800: 01 38 14 80 4E 01 F0 FF  FF 7F 4E 00 35 02 03 01  .8..N.....N.5...
0810: 4E 00 36 02 03 01 4E 00  37 02 03 01 4E 00 F3 01  N.6...N.7...N...
0820: 03 01 4E 00 F5 01 03 01  29 10 35 02 03 01 05 29  ..N.....).5....)
0830: 10 36 02 03 01 05 29 10  37 02 03 01 05 29 10 F3  .6....).7....)..
0840: 01 03 01 06 29 10 F5 01  03 01 06 29 10 A9 01 03  ....)......)....
0850: 01 0B 29 10 AA 01 03 01  0B 29 10 AB 01 03 01 0B  ..)......)......
0860: 29 10 AC 01 03 01 0B 29  10 AD 01 03 01 0B 29 10  )......)......).
0870: A5 01 03 01 0A 29 10 AE  01 03 01 0A 80 F0 FF FF  .....)..........
0880: 7F 80 35 02 03 01 80 36  02 03 01 80 37 02 03 01  ..5....6....7...
0890: 80 F3 01 03 01 80 F5 01  03 01 1C 15 80 2C 35 02  .............,5.
08A0: 03 01 35 02 03 01 63 6F  72 70 2C 36 02 03 01 36  ..5...corp,6...6
08B0: 02 03 01 63 6F 72 70 2C  37 02 03 01 37 02 03 01  ...corp,7...7...
08C0: 63 6F 72 70 2C F3 01 03  01 F3 01 03 01 63 6F 72  corp,........cor
08D0: 70 2C F5 01 03 01 F5 01  03 01 63 6F 72 70 1C 1A  p,........corp..
08E0: 80 5C 00 33 80 5C 01 33  80 5C 02 33 80 5C 03 33  .\.3.\.3.\.3.\.3
08F0: 80 9A 1C 20 80 45 1C 80  F0 FF FF 7F F0 FF FF 7F  ... .E..........
0900: 62 6C 30 30 02 80 1C 15  80 1A D0 29 1C 34 80 48  bl00.......).4.H
0910: 35 80 5D 02 80 20 80 1C  23 80 1A F1 29 1C 1A 80  5.].. ..#...)...
0920: 4E 00 F0 FF FF 7F 52 1C  80 F0 FF FF 7F F0 FF FF  N.....R.........
0930: 7F 62 6C 30 30 45 1C 80  F0 FF FF 7F F0 FF FF 7F  .bl00E..........
0940: 30 62 6C 66 02 80 02 00  00 00 80 00 62 09 5C 00  0blf........b.\.
0950: 31 80 5C 01 31 80 5C 02  31 80 5C 03 31 80 9A 01  1.\.1.\.1.\.1...
0960: 73 09 5C 00 02 80 5C 01  02 80 5C 02 02 80 5C 03  s.\...\...\...\.
0970: 02 80 9A 46 00 45 1D 80  F0 FF FF 7F F0 FF FF 7F  ...F.E..........
0980: 77 68 69 31 02 80 45 27  80 F0 FF FF 7F F0 FF FF  whi1..E'........
0990: 7F 66 64 69 32 02 80 21  00                       .fdi2..!.       
```

#### Opcodes

```
  0: 0x07E8 [0x42] SET_CLI_EVENT_CANCEL_DATA()
  1: 0x07E9 [0xAB] EventEntity->Render.Flags2 |= 0x04 // Set bit 2
  2: 0x07EB [0x03] ExtData[1]->WorkLocal[0] = Work_Zone[9]
  3: 0x07F0 [0x1A] CALL_SUBROUTINE(address=0x29F1)
  4: 0x07F3 [0x27] REQ_SET(priority=0x10, entity_id=Astral Plinth (ID: 16974258/0x010301B2), tag_num=0x08)
  5: 0x07FA [0x5D] SET_MUSIC_VOLUME(volume=0*, fade_time=120*)
  6: 0x07FF [0x46] CAMERA_CONTROL: Disable user control
  7: 0x0801 [0x38] SET_CLIENT_EVENT_MODE(mode=19*)
  8: 0x0804 [0x4E] SET_ENTITY_HIDE_FLAG: Hide LocalPlayer
  9: 0x080A [0x4E] SET_ENTITY_HIDE_FLAG: Show Banjanu (ID: 16974389/0x01030235)
 10: 0x0810 [0x4E] SET_ENTITY_HIDE_FLAG: Show Bjibar (ID: 16974390/0x01030236)
 11: 0x0816 [0x4E] SET_ENTITY_HIDE_FLAG: Show Dahaeel (ID: 16974391/0x01030237)
 12: 0x081C [0x4E] SET_ENTITY_HIDE_FLAG: Show Biyaada (ID: 16974323/0x010301F3)
 13: 0x0822 [0x4E] SET_ENTITY_HIDE_FLAG: Show Iphaaf (ID: 16974325/0x010301F5)
 14: 0x0828 [0x29] REQ_SET_WAIT(priority=0x10, entity_id=Banjanu (ID: 16974389/0x01030235), tag_num=0x05)
 15: 0x082F [0x29] REQ_SET_WAIT(priority=0x10, entity_id=Bjibar (ID: 16974390/0x01030236), tag_num=0x05)
 16: 0x0836 [0x29] REQ_SET_WAIT(priority=0x10, entity_id=Dahaeel (ID: 16974391/0x01030237), tag_num=0x05)
 17: 0x083D [0x29] REQ_SET_WAIT(priority=0x10, entity_id=Biyaada (ID: 16974323/0x010301F3), tag_num=0x06)
 18: 0x0844 [0x29] REQ_SET_WAIT(priority=0x10, entity_id=Iphaaf (ID: 16974325/0x010301F5), tag_num=0x06)
 19: 0x084B [0x29] REQ_SET_WAIT(priority=0x10, entity_id=FX_01 (ID: 16974249/0x010301A9), tag_num=0x0B)
 20: 0x0852 [0x29] REQ_SET_WAIT(priority=0x10, entity_id=FX_02 (ID: 16974250/0x010301AA), tag_num=0x0B)
 21: 0x0859 [0x29] REQ_SET_WAIT(priority=0x10, entity_id=FX_03 (ID: 16974251/0x010301AB), tag_num=0x0B)
 22: 0x0860 [0x29] REQ_SET_WAIT(priority=0x10, entity_id=FX_04 (ID: 16974252/0x010301AC), tag_num=0x0B)
 23: 0x0867 [0x29] REQ_SET_WAIT(priority=0x10, entity_id=FX_05 (ID: 16974253/0x010301AD), tag_num=0x0B)
 24: 0x086E [0x29] REQ_SET_WAIT(priority=0x10, entity_id=Gate: Hall of Binding (ID: 16974245/0x010301A5), tag_num=0x0A)
 25: 0x0875 [0x29] REQ_SET_WAIT(priority=0x10, entity_id=Door: Inner Sanctum (ID: 16974254/0x010301AE), tag_num=0x0A)
 26: 0x087C [0x80] LOAD_WAIT(entity=LocalPlayer)
 27: 0x0881 [0x80] LOAD_WAIT(entity=Banjanu (ID: 16974389/0x01030235))
 28: 0x0886 [0x80] LOAD_WAIT(entity=Bjibar (ID: 16974390/0x01030236))
 29: 0x088B [0x80] LOAD_WAIT(entity=Dahaeel (ID: 16974391/0x01030237))
 30: 0x0890 [0x80] LOAD_WAIT(entity=Biyaada (ID: 16974323/0x010301F3))
 31: 0x0895 [0x80] LOAD_WAIT(entity=Iphaaf (ID: 16974325/0x010301F5))
 32: 0x089A [0x1C] WAIT(15* ticks)
 33: 0x089D [0x2C] CREATE_SCHEDULER_TASK: Create scheduler "corp" with entities [Banjanu (ID: 16974389/0x01030235), Banjanu (ID: 16974389/0x01030235)]
 34: 0x08AA [0x2C] CREATE_SCHEDULER_TASK: Create scheduler "corp" with entities [Bjibar (ID: 16974390/0x01030236), Bjibar (ID: 16974390/0x01030236)]
 35: 0x08B7 [0x2C] CREATE_SCHEDULER_TASK: Create scheduler "corp" with entities [Dahaeel (ID: 16974391/0x01030237), Dahaeel (ID: 16974391/0x01030237)]
 36: 0x08C4 [0x2C] CREATE_SCHEDULER_TASK: Create scheduler "corp" with entities [Biyaada (ID: 16974323/0x010301F3), Biyaada (ID: 16974323/0x010301F3)]
 37: 0x08D1 [0x2C] CREATE_SCHEDULER_TASK: Create scheduler "corp" with entities [Iphaaf (ID: 16974325/0x010301F5), Iphaaf (ID: 16974325/0x010301F5)]
 38: 0x08DE [0x1C] WAIT(30* ticks)
 39: 0x08E1 [0x5C] MUSIC_CONTROL: Set Idle (Day) music to song 111*
 40: 0x08E5 [0x5C] MUSIC_CONTROL: Set Idle (Night) music to song 111*
 41: 0x08E9 [0x5C] MUSIC_CONTROL: Set Combat (Solo) music to song 111*
 42: 0x08ED [0x5C] MUSIC_CONTROL: Set Combat (Party) music to song 111*
 43: 0x08F1 [0x9A] WAIT_MUSIC_SERVER()
 44: 0x08F2 [0x1C] WAIT(120* ticks)
 45: 0x08F5 [0x45] LOAD_SCHEDULED_TASK: Load scheduler "bl00" with entities [LocalPlayer, LocalPlayer], work=[270*, 0*]
 46: 0x0906 [0x1C] WAIT(15* ticks)
 47: 0x0909 [0x1A] CALL_SUBROUTINE(address=0x29D0)
 48: 0x090C [0x1C] WAIT(420* ticks)
 49: 0x090F [0x48] [System] [7793*]:
    → "The beastmen have entered the Hall of Binding! The Astral Candescence has been taken."
 50: 0x0912 [0x5D] SET_MUSIC_VOLUME(volume=0*, fade_time=120*)
 51: 0x0917 [0x1C] WAIT(60* ticks)
 52: 0x091A [0x1A] CALL_SUBROUTINE(address=0x29F1)
 53: 0x091D [0x1C] WAIT(30* ticks)
 54: 0x0920 [0x4E] SET_ENTITY_HIDE_FLAG: Show LocalPlayer
 55: 0x0926 [0x52] END_LOAD_SCHEDULER: End scheduler "bl00" with entities [LocalPlayer, LocalPlayer], work=270*
 56: 0x0935 [0x45] LOAD_SCHEDULED_TASK: Load scheduler "0blf" with entities [LocalPlayer, LocalPlayer], work=[270*, 0*]
 57: 0x0946 [0x02] IF !(ExtData[1]->WorkLocal[0] == 1*) GOTO 0x0962
 58: 0x094E [0x5C] MUSIC_CONTROL: Set Idle (Day) music to song 178*
 59: 0x0952 [0x5C] MUSIC_CONTROL: Set Idle (Night) music to song 178*
 60: 0x0956 [0x5C] MUSIC_CONTROL: Set Combat (Solo) music to song 178*
 61: 0x095A [0x5C] MUSIC_CONTROL: Set Combat (Party) music to song 178*
 62: 0x095E [0x9A] WAIT_MUSIC_SERVER()
 63: 0x095F [0x01] GOTO 0x0973
 64: 0x0962 [0x5C] MUSIC_CONTROL: Set Idle (Day) music to song 0*
 65: 0x0966 [0x5C] MUSIC_CONTROL: Set Idle (Night) music to song 0*
 66: 0x096A [0x5C] MUSIC_CONTROL: Set Combat (Solo) music to song 0*
 67: 0x096E [0x5C] MUSIC_CONTROL: Set Combat (Party) music to song 0*
 68: 0x0972 [0x9A] WAIT_MUSIC_SERVER()

SUBROUTINE_0973:
 69: 0x0973 [0x46] CAMERA_CONTROL: Restore default settings
 70: 0x0975 [0x45] LOAD_SCHEDULED_TASK: Load scheduler "whi1" with entities [LocalPlayer, LocalPlayer], work=[201*, 0*]
 71: 0x0986 [0x45] LOAD_SCHEDULED_TASK: Load scheduler "fdi2" with entities [LocalPlayer, LocalPlayer], work=[200*, 0*]
 72: 0x0997 [0x21] END_EVENT
 73: 0x0998 [0x00] END_REQSTACK()
```

### Event 8

#### Metadata

| Field        | Value      |
|--------------|------------|
| Entrypoint   | 0x0999     |
| Data Size    | 1465 bytes |
| Instructions | 211        |

```
      00 01 02 03 04 05 06 07  08 09 0A 0B 0C 0D 0E 0F
      -- -- -- -- -- -- -- --  -- -- -- -- -- -- -- --
0990:                             42 AB 12 03 01 00 08           B......
09A0: 10 03 00 00 09 10 02 09  10 00 80 00 5F 0A 24 01  ............_.$.
09B0: 80 02 80 02 80 25 02 00  10 02 80 00 C6 09 03 01  .....%..........
09C0: 10 03 80 01 54 0A 02 00  10 00 80 00 D6 09 03 01  ....T...........
09D0: 10 04 80 01 54 0A 02 00  10 05 80 00 E6 09 03 01  ....T...........
09E0: 10 06 80 01 54 0A 02 00  10 07 80 00 F6 09 03 01  ....T...........
09F0: 10 08 80 01 54 0A 02 00  10 09 80 00 06 0A 03 01  ....T...........
0A00: 10 0A 80 01 54 0A 02 00  10 0B 80 00 16 0A 03 01  ....T...........
0A10: 10 0C 80 01 54 0A 02 00  10 0D 80 00 26 0A 03 01  ....T.......&...
0A20: 10 0E 80 01 54 0A 02 00  10 0F 80 00 46 0A 03 01  ....T.......F...
0A30: 10 10 80 43 00 43 01 03  01 00 08 10 48 11 80 23  ...C.C......H..#
0A40: 01 AE 09 01 54 0A 02 00  10 12 80 00 54 0A 01 5F  ....T.......T.._
0A50: 0A 01 54 0A 43 00 43 01  48 13 80 23 01 AE 09 1A  ..T.C.C.H..#....
0A60: F1 29 46 01 38 14 80 4E  01 F0 FF FF 7F 27 10 03  .)F.8..N.....'..
0A70: 02 03 01 02 27 10 04 02  03 01 02 27 10 05 02 03  ....'......'....
0A80: 01 02 27 10 06 02 03 01  02 27 10 07 02 03 01 02  ..'......'......
0A90: 27 10 08 02 03 01 02 27  10 09 02 03 01 02 27 10  '......'......'.
0AA0: 13 02 03 01 0B 27 10 14  02 03 01 0B 27 10 15 02  .....'......'...
0AB0: 03 01 0B 94 01 F0 FF FF  7F 94 01 03 02 03 01 94  ................
0AC0: 01 04 02 03 01 94 01 05  02 03 01 94 01 06 02 03  ................
0AD0: 01 94 01 07 02 03 01 94  01 08 02 03 01 94 01 09  ................
0AE0: 02 03 01 29 10 F0 FF FF  7F 04 29 10 03 02 03 01  ...)......).....
0AF0: 06 29 10 04 02 03 01 06  29 10 05 02 03 01 06 29  .)......)......)
0B00: 10 06 02 03 01 06 29 10  07 02 03 01 06 29 10 08  ......)......)..
0B10: 02 03 01 06 29 10 09 02  03 01 06 1C 15 80 80 F0  ....)...........
0B20: FF FF 7F 80 08 02 03 01  80 09 02 03 01 80 03 02  ................
0B30: 03 01 80 04 02 03 01 80  05 02 03 01 80 06 02 03  ................
0B40: 01 80 07 02 03 01 4E 01  03 02 03 01 4E 01 04 02  ......N.....N...
0B50: 03 01 4E 01 05 02 03 01  6C 06 02 03 01 02 80 00  ..N.....l.......
0B60: 80 6C 07 02 03 01 02 80  00 80 4E 01 08 02 03 01  .l........N.....
0B70: 4E 01 09 02 03 01 29 10  A9 01 03 01 0B 29 10 AA  N.....)......)..
0B80: 01 03 01 0B 29 10 AB 01  03 01 0B 29 10 AC 01 03  ....)......)....
0B90: 01 0B 29 10 AD 01 03 01  0B 29 10 A5 01 03 01 0B  ..)......)......
0BA0: 29 10 AE 01 03 01 0B 5B  16 80 13 02 03 01 13 02  )......[........
0BB0: 03 01 73 74 61 30 5B 16  80 14 02 03 01 14 02 03  ..sta0[.........
0BC0: 01 73 74 61 30 5B 16 80  15 02 03 01 15 02 03 01  .sta0[..........
0BD0: 73 74 61 30 1A 79 23 5C  00 17 80 5C 01 17 80 5C  sta0.y#\...\...\
0BE0: 02 17 80 5C 03 17 80 9A  5D 18 80 19 80 1C 1A 80  ...\....].......
0BF0: 48 1B 80 45 1C 80 F0 FF  FF 7F F0 FF FF 7F 77 72  H..E..........wr
0C00: 31 31 02 80 45 1D 80 F0  FF FF 7F F0 FF FF 7F 77  11..E..........w
0C10: 68 69 31 02 80 1A D0 29  55 1C 80 F0 FF FF 7F F0  hi1....)U.......
0C20: FF FF 7F 77 72 31 31 45  1C 80 F0 FF FF 7F F0 FF  ...wr11E........
0C30: FF 7F 77 72 31 32 02 80  48 36 80 55 1C 80 F0 FF  ..wr12..H6.U....
0C40: FF 7F F0 FF FF 7F 77 72  31 32 45 1C 80 F0 FF FF  ......wr12E.....
0C50: 7F F0 FF FF 7F 77 72 31  33 02 80 48 1F 80 1C 20  .....wr13..H... 
0C60: 80 48 21 80 1C 20 80 48  22 80 55 1C 80 F0 FF FF  .H!.. .H".U.....
0C70: 7F F0 FF FF 7F 77 72 31  33 45 1C 80 F0 FF FF 7F  .....wr13E......
0C80: F0 FF FF 7F 77 72 31 34  02 80 4E 00 04 02 03 01  ....wr14..N.....
0C90: 4E 00 03 02 03 01 4E 00  05 02 03 01 1C 23 80 52  N.....N......#.R
0CA0: 1C 80 F0 FF FF 7F F0 FF  FF 7F 77 72 31 34 45 1C  ..........wr14E.
0CB0: 80 F0 FF FF 7F F0 FF FF  7F 77 72 31 35 02 80 27  .........wr15..'
0CC0: 10 05 02 03 01 07 1C 37  80 27 10 03 02 03 01 07  .......7.'......
0CD0: 27 10 04 02 03 01 07 55  1C 80 F0 FF FF 7F F0 FF  '......U........
0CE0: FF 7F 77 72 31 35 45 1C  80 F0 FF FF 7F F0 FF FF  ..wr15E.........
0CF0: 7F 77 72 31 36 02 80 55  1C 80 F0 FF FF 7F F0 FF  .wr16..U........
0D00: FF 7F 77 72 31 36 45 1C  80 F0 FF FF 7F F0 FF FF  ..wr16E.........
0D10: 7F 77 72 31 37 02 80 27  10 05 02 03 01 08 27 10  .wr17..'......'.
0D20: F8 01 03 01 0C 27 10 06  02 03 01 09 1C 38 80 27  .....'.......8.'
0D30: 10 F9 01 03 01 0C 27 10  07 02 03 01 09 55 1C 80  ......'......U..
0D40: F0 FF FF 7F F0 FF FF 7F  77 72 31 37 45 1C 80 F0  ........wr17E...
0D50: FF FF 7F F0 FF FF 7F 77  72 31 38 02 80 27 10 03  .......wr18..'..
0D60: 02 03 01 09 27 10 04 02  03 01 09 27 10 06 02 03  ....'......'....
0D70: 01 08 27 10 07 02 03 01  08 4E 00 08 02 03 01 4E  ..'......N.....N
0D80: 00 09 02 03 01 27 10 08  02 03 01 07 1C 15 80 27  .....'.........'
0D90: 10 09 02 03 01 07 1C 28  80 52 1C 80 F0 FF FF 7F  .......(.R......
0DA0: F0 FF FF 7F 77 72 31 38  45 1C 80 F0 FF FF 7F F0  ....wr18E.......
0DB0: FF FF 7F 77 72 30 34 02  80 45 1C 80 F0 FF FF 7F  ...wr04..E......
0DC0: F0 FF FF 7F 30 62 6C 66  02 80 55 1C 80 F0 FF FF  ....0blf..U.....
0DD0: 7F F0 FF FF 7F 77 72 30  34 45 1C 80 F0 FF FF 7F  .....wr04E......
0DE0: F0 FF FF 7F 77 72 30 35  02 80 27 10 03 02 03 01  ....wr05..'.....
0DF0: 03 27 10 04 02 03 01 03  27 10 05 02 03 01 03 27  .'......'......'
0E00: 10 06 02 03 01 03 27 10  07 02 03 01 03 27 10 08  ......'......'..
0E10: 02 03 01 03 27 10 09 02  03 01 03 1A 8A 21 1A 3A  ....'........!.:
0E20: 1D 02 01 00 00 80 00 F7  0E 1A F1 29 1A 9C 22 1A  ...........)..".
0E30: 79 23 27 10 16 02 03 01  02 94 01 16 02 03 01 29  y#'............)
0E40: 10 16 02 03 01 06 80 16  02 03 01 BB 09 80 16 02  ................
0E50: 03 01 16 02 03 01 00 FE  FE FE 02 80 5B 39 80 16  ............[9..
0E60: 02 03 01 16 02 03 01 00  FE FE FE 1C 15 80 27 10  ..............'.
0E70: 16 02 03 01 07 45 1C 80  F0 FF FF 7F F0 FF FF 7F  .....E..........
0E80: 62 6C 7A 30 02 80 45 27  80 F0 FF FF 7F F0 FF FF  blz0..E'........
0E90: 7F 66 64 69 31 02 80 2A  10 16 02 03 01 1C 15 80  .fdi1..*........
0EA0: BB 09 80 16 02 03 01 16  02 03 01 6D 61 69 6E 02  ...........main.
0EB0: 80 5B 39 80 16 02 03 01  16 02 03 01 77 61 72 30  .[9.........war0
0EC0: 52 1C 80 F0 FF FF 7F F0  FF FF 7F 62 6C 7A 30 45  R..........blz0E
0ED0: 1C 80 F0 FF FF 7F F0 FF  FF 7F 62 6C 7A 31 02 80  ..........blz1..
0EE0: 1C 28 80 2B 16 02 03 01  3A 80 1C 2C 80 2B 16 02  .(.+....:..,.+..
0EF0: 03 01 3B 80 1C 3C 80 1A  F1 29 1C 1A 80 5D 2F 80  ..;..<...)...]/.
0F00: 30 80 52 1C 80 F0 FF FF  7F F0 FF FF 7F 62 6C 7A  0.R..........blz
0F10: 31 4E 00 F0 FF FF 7F 1A  F2 27 1A 9C 22 02 00 00  1N.......'.."...
0F20: 00 80 00 36 0F 5C 00 31  80 5C 01 31 80 5C 02 31  ...6.\.1.\.1.\.1
0F30: 80 5C 03 31 80 9A 46 00  AB 11 02 80 1C 00 80 45  .\.1..F........E
0F40: 27 80 F0 FF FF 7F F0 FF  FF 7F 66 64 69 32 02 80  '.........fdi2..
0F50: 21 00                                             !.              
```

#### Opcodes

```
  0: 0x0999 [0x42] SET_CLI_EVENT_CANCEL_DATA()
  1: 0x099A [0xAB] EventEntity->Render.Flags2 |= 0x04 // Set bit 2
  2: 0x099C [0x03] ExtData[1]->WorkLocal[1] = Work_Zone[8]
  3: 0x09A1 [0x03] ExtData[1]->WorkLocal[0] = Work_Zone[9]
  4: 0x09A6 [0x02] IF !(Work_Zone[9] == 1*) GOTO 0x0A5F
  5: 0x09AE [0x24] CREATE_DIALOG(message_id=7910*, default_option=0*, option_flags=0*)
    → "Switch between captured and safe: [Sky General./Flame General./Water General./Earth General./Gale General./All captured./All safe./Beastman Boss./Begin event.]"
  6: 0x09B5 [0x25] WAIT_DIALOG_SELECT()
  7: 0x09B6 [0x02] IF !(Work_Zone[0] == 0*) GOTO 0x09C6
  8: 0x09BE [0x03] Work_Zone[1] = 51*
  9: 0x09C3 [0x01] GOTO 0x0A54
 10: 0x09C6 [0x02] IF !(Work_Zone[0] == 1*) GOTO 0x09D6
 11: 0x09CE [0x03] Work_Zone[1] = 52*
 12: 0x09D3 [0x01] GOTO 0x0A54
 13: 0x09D6 [0x02] IF !(Work_Zone[0] == 2*) GOTO 0x09E6
 14: 0x09DE [0x03] Work_Zone[1] = 53*
 15: 0x09E3 [0x01] GOTO 0x0A54
 16: 0x09E6 [0x02] IF !(Work_Zone[0] == 3*) GOTO 0x09F6
 17: 0x09EE [0x03] Work_Zone[1] = 54*
 18: 0x09F3 [0x01] GOTO 0x0A54
 19: 0x09F6 [0x02] IF !(Work_Zone[0] == 4*) GOTO 0x0A06
 20: 0x09FE [0x03] Work_Zone[1] = 55*
 21: 0x0A03 [0x01] GOTO 0x0A54
 22: 0x0A06 [0x02] IF !(Work_Zone[0] == 5*) GOTO 0x0A16
 23: 0x0A0E [0x03] Work_Zone[1] = 56*
 24: 0x0A13 [0x01] GOTO 0x0A54
 25: 0x0A16 [0x02] IF !(Work_Zone[0] == 6*) GOTO 0x0A26
 26: 0x0A1E [0x03] Work_Zone[1] = 57*
 27: 0x0A23 [0x01] GOTO 0x0A54
 28: 0x0A26 [0x02] IF !(Work_Zone[0] == 7*) GOTO 0x0A46
 29: 0x0A2E [0x03] Work_Zone[1] = 58*
 30: 0x0A33 [0x43] SEND_EVENT_UPDATE: Send pending tag to server (packet 0x005B)
 31: 0x0A35 [0x43] SEND_EVENT_UPDATE: Check pending flag (skip if not pending)
 32: 0x0A37 [0x03] ExtData[1]->WorkLocal[1] = Work_Zone[8]
 33: 0x0A3C [0x48] [System] [7911*]:
    → "Beastman Boss: [Absent/Present]"
 34: 0x0A3F [0x23] WAIT_FOR_DIALOG_INTERACTION
 35: 0x0A40 [0x01] GOTO 0x09AE

SUBROUTINE_0A54:
 36: 0x0A54 [0x43] SEND_EVENT_UPDATE: Send pending tag to server (packet 0x005B)
 37: 0x0A56 [0x43] SEND_EVENT_UPDATE: Check pending flag (skip if not pending)
 38: 0x0A58 [0x48] [System] [7909*]:
    → "DEBUG: The [Skys/Flames/Waters/Earths/Gales/S]erpent General(s) are [captured/safe]!"
 39: 0x0A5B [0x23] WAIT_FOR_DIALOG_INTERACTION
 40: 0x0A5C [0x01] GOTO 0x09AE

SUBROUTINE_0A5F:
 41: 0x0A5F [0x1A] CALL_SUBROUTINE(address=0x29F1)
 42: 0x0A62 [0x46] CAMERA_CONTROL: Disable user control
 43: 0x0A64 [0x38] SET_CLIENT_EVENT_MODE(mode=19*)
 44: 0x0A67 [0x4E] SET_ENTITY_HIDE_FLAG: Hide LocalPlayer
 45: 0x0A6D [0x27] REQ_SET(priority=0x10, entity_id=Unnamed NPC (ID: 16974339/0x01030203), tag_num=0x02)
 46: 0x0A74 [0x27] REQ_SET(priority=0x10, entity_id=Unnamed NPC (ID: 16974340/0x01030204), tag_num=0x02)
 47: 0x0A7B [0x27] REQ_SET(priority=0x10, entity_id=Unnamed NPC (ID: 16974341/0x01030205), tag_num=0x02)
 48: 0x0A82 [0x27] REQ_SET(priority=0x10, entity_id=Unnamed NPC (ID: 16974342/0x01030206), tag_num=0x02)
 49: 0x0A89 [0x27] REQ_SET(priority=0x10, entity_id=Unnamed NPC (ID: 16974343/0x01030207), tag_num=0x02)
 50: 0x0A90 [0x27] REQ_SET(priority=0x10, entity_id=Unnamed NPC (ID: 16974344/0x01030208), tag_num=0x02)
 51: 0x0A97 [0x27] REQ_SET(priority=0x10, entity_id=Unnamed NPC (ID: 16974345/0x01030209), tag_num=0x02)
 52: 0x0A9E [0x27] REQ_SET(priority=0x10, entity_id=Mutarid (ID: 16974355/0x01030213), tag_num=0x0B)
 53: 0x0AA5 [0x27] REQ_SET(priority=0x10, entity_id=Syaid (ID: 16974356/0x01030214), tag_num=0x0B)
 54: 0x0AAC [0x27] REQ_SET(priority=0x10, entity_id=Azwil (ID: 16974357/0x01030215), tag_num=0x0B)
 55: 0x0AB3 [0x94] LocalPlayer->Render.Flags3 ^= 0x01
 56: 0x0AB9 [0x94] Unnamed NPC (ID: 16974339/0x01030203)->Render.Flags3 ^= 0x01
 57: 0x0ABF [0x94] Unnamed NPC (ID: 16974340/0x01030204)->Render.Flags3 ^= 0x01
 58: 0x0AC5 [0x94] Unnamed NPC (ID: 16974341/0x01030205)->Render.Flags3 ^= 0x01
 59: 0x0ACB [0x94] Unnamed NPC (ID: 16974342/0x01030206)->Render.Flags3 ^= 0x01
 60: 0x0AD1 [0x94] Unnamed NPC (ID: 16974343/0x01030207)->Render.Flags3 ^= 0x01
 61: 0x0AD7 [0x94] Unnamed NPC (ID: 16974344/0x01030208)->Render.Flags3 ^= 0x01
 62: 0x0ADD [0x94] Unnamed NPC (ID: 16974345/0x01030209)->Render.Flags3 ^= 0x01
 63: 0x0AE3 [0x29] REQ_SET_WAIT(priority=0x10, entity_id=LocalPlayer, tag_num=0x04)
 64: 0x0AEA [0x29] REQ_SET_WAIT(priority=0x10, entity_id=Unnamed NPC (ID: 16974339/0x01030203), tag_num=0x06)
 65: 0x0AF1 [0x29] REQ_SET_WAIT(priority=0x10, entity_id=Unnamed NPC (ID: 16974340/0x01030204), tag_num=0x06)
 66: 0x0AF8 [0x29] REQ_SET_WAIT(priority=0x10, entity_id=Unnamed NPC (ID: 16974341/0x01030205), tag_num=0x06)
 67: 0x0AFF [0x29] REQ_SET_WAIT(priority=0x10, entity_id=Unnamed NPC (ID: 16974342/0x01030206), tag_num=0x06)
 68: 0x0B06 [0x29] REQ_SET_WAIT(priority=0x10, entity_id=Unnamed NPC (ID: 16974343/0x01030207), tag_num=0x06)
 69: 0x0B0D [0x29] REQ_SET_WAIT(priority=0x10, entity_id=Unnamed NPC (ID: 16974344/0x01030208), tag_num=0x06)
 70: 0x0B14 [0x29] REQ_SET_WAIT(priority=0x10, entity_id=Unnamed NPC (ID: 16974345/0x01030209), tag_num=0x06)
 71: 0x0B1B [0x1C] WAIT(15* ticks)
 72: 0x0B1E [0x80] LOAD_WAIT(entity=LocalPlayer)
 73: 0x0B23 [0x80] LOAD_WAIT(entity=Unnamed NPC (ID: 16974344/0x01030208))
 74: 0x0B28 [0x80] LOAD_WAIT(entity=Unnamed NPC (ID: 16974345/0x01030209))
 75: 0x0B2D [0x80] LOAD_WAIT(entity=Unnamed NPC (ID: 16974339/0x01030203))
 76: 0x0B32 [0x80] LOAD_WAIT(entity=Unnamed NPC (ID: 16974340/0x01030204))
 77: 0x0B37 [0x80] LOAD_WAIT(entity=Unnamed NPC (ID: 16974341/0x01030205))
 78: 0x0B3C [0x80] LOAD_WAIT(entity=Unnamed NPC (ID: 16974342/0x01030206))
 79: 0x0B41 [0x80] LOAD_WAIT(entity=Unnamed NPC (ID: 16974343/0x01030207))
 80: 0x0B46 [0x4E] SET_ENTITY_HIDE_FLAG: Hide Unnamed NPC (ID: 16974339/0x01030203)
 81: 0x0B4C [0x4E] SET_ENTITY_HIDE_FLAG: Hide Unnamed NPC (ID: 16974340/0x01030204)
 82: 0x0B52 [0x4E] SET_ENTITY_HIDE_FLAG: Hide Unnamed NPC (ID: 16974341/0x01030205)
 83: 0x0B58 [0x6C] FADE_ENTITY_COLOR(entity_id=Unnamed NPC (ID: 16974342/0x01030206), end_alpha=0*, fade_time=1*)
 84: 0x0B61 [0x6C] FADE_ENTITY_COLOR(entity_id=Unnamed NPC (ID: 16974343/0x01030207), end_alpha=0*, fade_time=1*)
 85: 0x0B6A [0x4E] SET_ENTITY_HIDE_FLAG: Hide Unnamed NPC (ID: 16974344/0x01030208)
 86: 0x0B70 [0x4E] SET_ENTITY_HIDE_FLAG: Hide Unnamed NPC (ID: 16974345/0x01030209)
 87: 0x0B76 [0x29] REQ_SET_WAIT(priority=0x10, entity_id=FX_01 (ID: 16974249/0x010301A9), tag_num=0x0B)
 88: 0x0B7D [0x29] REQ_SET_WAIT(priority=0x10, entity_id=FX_02 (ID: 16974250/0x010301AA), tag_num=0x0B)
 89: 0x0B84 [0x29] REQ_SET_WAIT(priority=0x10, entity_id=FX_03 (ID: 16974251/0x010301AB), tag_num=0x0B)
 90: 0x0B8B [0x29] REQ_SET_WAIT(priority=0x10, entity_id=FX_04 (ID: 16974252/0x010301AC), tag_num=0x0B)
 91: 0x0B92 [0x29] REQ_SET_WAIT(priority=0x10, entity_id=FX_05 (ID: 16974253/0x010301AD), tag_num=0x0B)
 92: 0x0B99 [0x29] REQ_SET_WAIT(priority=0x10, entity_id=Gate: Hall of Binding (ID: 16974245/0x010301A5), tag_num=0x0B)
 93: 0x0BA0 [0x29] REQ_SET_WAIT(priority=0x10, entity_id=Door: Inner Sanctum (ID: 16974254/0x010301AE), tag_num=0x0B)
 94: 0x0BA7 [0x5B] LOAD_EXT_SCHEDULER: Load scheduler "sta0" with entities [Mutarid (ID: 16974355/0x01030213), Mutarid (ID: 16974355/0x01030213)], work=837*
 95: 0x0BB6 [0x5B] LOAD_EXT_SCHEDULER: Load scheduler "sta0" with entities [Syaid (ID: 16974356/0x01030214), Syaid (ID: 16974356/0x01030214)], work=837*
 96: 0x0BC5 [0x5B] LOAD_EXT_SCHEDULER: Load scheduler "sta0" with entities [Azwil (ID: 16974357/0x01030215), Azwil (ID: 16974357/0x01030215)], work=837*
 97: 0x0BD4 [0x1A] CALL_SUBROUTINE(address=0x2379)
 98: 0x0BD7 [0x5C] MUSIC_CONTROL: Set Idle (Day) music to song 142*
 99: 0x0BDB [0x5C] MUSIC_CONTROL: Set Idle (Night) music to song 142*
100: 0x0BDF [0x5C] MUSIC_CONTROL: Set Combat (Solo) music to song 142*
101: 0x0BE3 [0x5C] MUSIC_CONTROL: Set Combat (Party) music to song 142*
102: 0x0BE7 [0x9A] WAIT_MUSIC_SERVER()
103: 0x0BE8 [0x5D] SET_MUSIC_VOLUME(volume=96*, fade_time=300*)
104: 0x0BED [0x1C] WAIT(30* ticks)
105: 0x0BF0 [0x48] [System] [7767*]:
    → "Al Zahbi is under attack!"
106: 0x0BF3 [0x45] LOAD_SCHEDULED_TASK: Load scheduler "wr11" with entities [LocalPlayer, LocalPlayer], work=[270*, 0*]
107: 0x0C04 [0x45] LOAD_SCHEDULED_TASK: Load scheduler "whi1" with entities [LocalPlayer, LocalPlayer], work=[201*, 0*]
108: 0x0C15 [0x1A] CALL_SUBROUTINE(address=0x29D0)
109: 0x0C18 [0x55] WAIT_LOAD_SCHEDULER: Wait for scheduler "wr11" with entities [LocalPlayer, LocalPlayer], work=270*
110: 0x0C27 [0x45] LOAD_SCHEDULED_TASK: Load scheduler "wr12" with entities [LocalPlayer, LocalPlayer], work=[270*, 0*]
111: 0x0C38 [0x48] [System] [7768*]:
    → "The Mamool Ja Savages have breached the Balrahn Defense Line!"
112: 0x0C3B [0x55] WAIT_LOAD_SCHEDULER: Wait for scheduler "wr12" with entities [LocalPlayer, LocalPlayer], work=270*
113: 0x0C4A [0x45] LOAD_SCHEDULED_TASK: Load scheduler "wr13" with entities [LocalPlayer, LocalPlayer], work=[270*, 0*]
114: 0x0C5B [0x48] [System] [7771*]:
    → "They are advancing on the Imperial capital!"
115: 0x0C5E [0x1C] WAIT(120* ticks)
116: 0x0C61 [0x48] [System] [7772*]:
    → "Martial law has been declared in Al Zahbi! Repeating... Martial law has been declared in Al Zahbi!"
117: 0x0C64 [0x1C] WAIT(120* ticks)
118: 0x0C67 [0x48] [System] [7773*]:
    → "All non-combatants in the Commoners' Ward are to evacuate immediately! Repeating... All non-combatants in the Commoners' Ward are to evacuate immediately!"
119: 0x0C6A [0x55] WAIT_LOAD_SCHEDULER: Wait for scheduler "wr13" with entities [LocalPlayer, LocalPlayer], work=270*
120: 0x0C79 [0x45] LOAD_SCHEDULED_TASK: Load scheduler "wr14" with entities [LocalPlayer, LocalPlayer], work=[270*, 0*]
121: 0x0C8A [0x4E] SET_ENTITY_HIDE_FLAG: Show Unnamed NPC (ID: 16974340/0x01030204)
122: 0x0C90 [0x4E] SET_ENTITY_HIDE_FLAG: Show Unnamed NPC (ID: 16974339/0x01030203)
123: 0x0C96 [0x4E] SET_ENTITY_HIDE_FLAG: Show Unnamed NPC (ID: 16974341/0x01030205)
124: 0x0C9C [0x1C] WAIT(60* ticks)
125: 0x0C9F [0x52] END_LOAD_SCHEDULER: End scheduler "wr14" with entities [LocalPlayer, LocalPlayer], work=270*
126: 0x0CAE [0x45] LOAD_SCHEDULED_TASK: Load scheduler "wr15" with entities [LocalPlayer, LocalPlayer], work=[270*, 0*]
127: 0x0CBF [0x27] REQ_SET(priority=0x10, entity_id=Unnamed NPC (ID: 16974341/0x01030205), tag_num=0x07)
128: 0x0CC6 [0x1C] WAIT(150* ticks)
129: 0x0CC9 [0x27] REQ_SET(priority=0x10, entity_id=Unnamed NPC (ID: 16974339/0x01030203), tag_num=0x07)
130: 0x0CD0 [0x27] REQ_SET(priority=0x10, entity_id=Unnamed NPC (ID: 16974340/0x01030204), tag_num=0x07)
131: 0x0CD7 [0x55] WAIT_LOAD_SCHEDULER: Wait for scheduler "wr15" with entities [LocalPlayer, LocalPlayer], work=270*
132: 0x0CE6 [0x45] LOAD_SCHEDULED_TASK: Load scheduler "wr16" with entities [LocalPlayer, LocalPlayer], work=[270*, 0*]
133: 0x0CF7 [0x55] WAIT_LOAD_SCHEDULER: Wait for scheduler "wr16" with entities [LocalPlayer, LocalPlayer], work=270*
134: 0x0D06 [0x45] LOAD_SCHEDULED_TASK: Load scheduler "wr17" with entities [LocalPlayer, LocalPlayer], work=[270*, 0*]
135: 0x0D17 [0x27] REQ_SET(priority=0x10, entity_id=Unnamed NPC (ID: 16974341/0x01030205), tag_num=0x08)
136: 0x0D1E [0x27] REQ_SET(priority=0x10, entity_id=??? (ID: 16974328/0x010301F8), tag_num=0x0C)
137: 0x0D25 [0x27] REQ_SET(priority=0x10, entity_id=Unnamed NPC (ID: 16974342/0x01030206), tag_num=0x09)
138: 0x0D2C [0x1C] WAIT(20* ticks)
139: 0x0D2F [0x27] REQ_SET(priority=0x10, entity_id=Unnamed NPC (ID: 16974329/0x010301F9), tag_num=0x0C)
140: 0x0D36 [0x27] REQ_SET(priority=0x10, entity_id=Unnamed NPC (ID: 16974343/0x01030207), tag_num=0x09)
141: 0x0D3D [0x55] WAIT_LOAD_SCHEDULER: Wait for scheduler "wr17" with entities [LocalPlayer, LocalPlayer], work=270*
142: 0x0D4C [0x45] LOAD_SCHEDULED_TASK: Load scheduler "wr18" with entities [LocalPlayer, LocalPlayer], work=[270*, 0*]
143: 0x0D5D [0x27] REQ_SET(priority=0x10, entity_id=Unnamed NPC (ID: 16974339/0x01030203), tag_num=0x09)
144: 0x0D64 [0x27] REQ_SET(priority=0x10, entity_id=Unnamed NPC (ID: 16974340/0x01030204), tag_num=0x09)
145: 0x0D6B [0x27] REQ_SET(priority=0x10, entity_id=Unnamed NPC (ID: 16974342/0x01030206), tag_num=0x08)
146: 0x0D72 [0x27] REQ_SET(priority=0x10, entity_id=Unnamed NPC (ID: 16974343/0x01030207), tag_num=0x08)
147: 0x0D79 [0x4E] SET_ENTITY_HIDE_FLAG: Show Unnamed NPC (ID: 16974344/0x01030208)
148: 0x0D7F [0x4E] SET_ENTITY_HIDE_FLAG: Show Unnamed NPC (ID: 16974345/0x01030209)
149: 0x0D85 [0x27] REQ_SET(priority=0x10, entity_id=Unnamed NPC (ID: 16974344/0x01030208), tag_num=0x07)
150: 0x0D8C [0x1C] WAIT(15* ticks)
151: 0x0D8F [0x27] REQ_SET(priority=0x10, entity_id=Unnamed NPC (ID: 16974345/0x01030209), tag_num=0x07)
152: 0x0D96 [0x1C] WAIT(90* ticks)
153: 0x0D99 [0x52] END_LOAD_SCHEDULER: End scheduler "wr18" with entities [LocalPlayer, LocalPlayer], work=270*
154: 0x0DA8 [0x45] LOAD_SCHEDULED_TASK: Load scheduler "wr04" with entities [LocalPlayer, LocalPlayer], work=[270*, 0*]
155: 0x0DB9 [0x45] LOAD_SCHEDULED_TASK: Load scheduler "0blf" with entities [LocalPlayer, LocalPlayer], work=[270*, 0*]
156: 0x0DCA [0x55] WAIT_LOAD_SCHEDULER: Wait for scheduler "wr04" with entities [LocalPlayer, LocalPlayer], work=270*
157: 0x0DD9 [0x45] LOAD_SCHEDULED_TASK: Load scheduler "wr05" with entities [LocalPlayer, LocalPlayer], work=[270*, 0*]
158: 0x0DEA [0x27] REQ_SET(priority=0x10, entity_id=Unnamed NPC (ID: 16974339/0x01030203), tag_num=0x03)
159: 0x0DF1 [0x27] REQ_SET(priority=0x10, entity_id=Unnamed NPC (ID: 16974340/0x01030204), tag_num=0x03)
160: 0x0DF8 [0x27] REQ_SET(priority=0x10, entity_id=Unnamed NPC (ID: 16974341/0x01030205), tag_num=0x03)
161: 0x0DFF [0x27] REQ_SET(priority=0x10, entity_id=Unnamed NPC (ID: 16974342/0x01030206), tag_num=0x03)
162: 0x0E06 [0x27] REQ_SET(priority=0x10, entity_id=Unnamed NPC (ID: 16974343/0x01030207), tag_num=0x03)
163: 0x0E0D [0x27] REQ_SET(priority=0x10, entity_id=Unnamed NPC (ID: 16974344/0x01030208), tag_num=0x03)
164: 0x0E14 [0x27] REQ_SET(priority=0x10, entity_id=Unnamed NPC (ID: 16974345/0x01030209), tag_num=0x03)
165: 0x0E1B [0x1A] CALL_SUBROUTINE(address=0x218A)
166: 0x0E1E [0x1A] CALL_SUBROUTINE(address=0x1D3A)
167: 0x0E21 [0x02] IF !(ExtData[1]->WorkLocal[1] == 1*) GOTO 0x0EF7
168: 0x0E29 [0x1A] CALL_SUBROUTINE(address=0x29F1)
169: 0x0E2C [0x1A] CALL_SUBROUTINE(address=0x229C)
170: 0x0E2F [0x1A] CALL_SUBROUTINE(address=0x2379)
171: 0x0E32 [0x27] REQ_SET(priority=0x10, entity_id=Gulool Ja Ja (ID: 16974358/0x01030216), tag_num=0x02)
172: 0x0E39 [0x94] Gulool Ja Ja (ID: 16974358/0x01030216)->Render.Flags3 ^= 0x01
173: 0x0E3F [0x29] REQ_SET_WAIT(priority=0x10, entity_id=Gulool Ja Ja (ID: 16974358/0x01030216), tag_num=0x06)
174: 0x0E46 [0x80] LOAD_WAIT(entity=Gulool Ja Ja (ID: 16974358/0x01030216))
175: 0x0E4B [0xBB] LOAD_EVENT_SCHEDULER_ALT: Load scheduler 0xFEFEFE00 with entities [Gulool Ja Ja (ID: 16974358/0x01030216), Gulool Ja Ja (ID: 16974358/0x01030216)], work=[4*, 0*]
176: 0x0E5C [0x5B] LOAD_EXT_SCHEDULER: Load scheduler 0xFEFEFE00 with entities [Gulool Ja Ja (ID: 16974358/0x01030216), Gulool Ja Ja (ID: 16974358/0x01030216)], work=727*
177: 0x0E6B [0x1C] WAIT(15* ticks)
178: 0x0E6E [0x27] REQ_SET(priority=0x10, entity_id=Gulool Ja Ja (ID: 16974358/0x01030216), tag_num=0x07)
179: 0x0E75 [0x45] LOAD_SCHEDULED_TASK: Load scheduler "blz0" with entities [LocalPlayer, LocalPlayer], work=[270*, 0*]
180: 0x0E86 [0x45] LOAD_SCHEDULED_TASK: Load scheduler "fdi1" with entities [LocalPlayer, LocalPlayer], work=[200*, 0*]
181: 0x0E97 [0x2A] GET_REQ_LEVEL(level=16, entity_id=Gulool Ja Ja (ID: 16974358/0x01030216))
182: 0x0E9D [0x1C] WAIT(15* ticks)
183: 0x0EA0 [0xBB] LOAD_EVENT_SCHEDULER_ALT: Load scheduler "main" with entities [Gulool Ja Ja (ID: 16974358/0x01030216), Gulool Ja Ja (ID: 16974358/0x01030216)], work=[4*, 0*]
184: 0x0EB1 [0x5B] LOAD_EXT_SCHEDULER: Load scheduler "war0" with entities [Gulool Ja Ja (ID: 16974358/0x01030216), Gulool Ja Ja (ID: 16974358/0x01030216)], work=727*
185: 0x0EC0 [0x52] END_LOAD_SCHEDULER: End scheduler "blz0" with entities [LocalPlayer, LocalPlayer], work=270*
186: 0x0ECF [0x45] LOAD_SCHEDULED_TASK: Load scheduler "blz1" with entities [LocalPlayer, LocalPlayer], work=[270*, 0*]
187: 0x0EE0 [0x1C] WAIT(90* ticks)
188: 0x0EE3 [0x2B] Gulool Ja Ja (ID: 16974358/0x01030216) [7912*]:
    → "Grrrrrr! Smoothskin weaklings! Surrender to us, you shall!"
189: 0x0EEA [0x1C] WAIT(240* ticks)
190: 0x0EED [0x2B] Gulool Ja Ja (ID: 16974358/0x01030216) [7913*]:
    → "Gahahahaha... It matters not, where you run. A safe place, there is not..."
191: 0x0EF4 [0x1C] WAIT(390* ticks)
192: 0x0EF7 [0x1A] CALL_SUBROUTINE(address=0x29F1)
193: 0x0EFA [0x1C] WAIT(30* ticks)
194: 0x0EFD [0x5D] SET_MUSIC_VOLUME(volume=127*, fade_time=180*)
195: 0x0F02 [0x52] END_LOAD_SCHEDULER: End scheduler "blz1" with entities [LocalPlayer, LocalPlayer], work=270*
196: 0x0F11 [0x4E] SET_ENTITY_HIDE_FLAG: Show LocalPlayer
197: 0x0F17 [0x1A] CALL_SUBROUTINE(address=0x27F2)
198: 0x0F1A [0x1A] CALL_SUBROUTINE(address=0x229C)
199: 0x0F1D [0x02] IF !(ExtData[1]->WorkLocal[0] == 1*) GOTO 0x0F36
200: 0x0F25 [0x5C] MUSIC_CONTROL: Set Idle (Day) music to song 178*
201: 0x0F29 [0x5C] MUSIC_CONTROL: Set Idle (Night) music to song 178*
202: 0x0F2D [0x5C] MUSIC_CONTROL: Set Combat (Solo) music to song 178*
203: 0x0F31 [0x5C] MUSIC_CONTROL: Set Combat (Party) music to song 178*
204: 0x0F35 [0x9A] WAIT_MUSIC_SERVER()
205: 0x0F36 [0x46] CAMERA_CONTROL: Restore default settings
206: 0x0F38 [0xAB] EventEntity->DespawnValue = 0* // Set despawn value
207: 0x0F3C [0x1C] WAIT(1* ticks)
208: 0x0F3F [0x45] LOAD_SCHEDULED_TASK: Load scheduler "fdi2" with entities [LocalPlayer, LocalPlayer], work=[200*, 0*]
209: 0x0F50 [0x21] END_EVENT
210: 0x0F51 [0x00] END_REQSTACK()
```

#### Data or dead code:

```
# Dead code (unreachable instructions):
     0x0A43 [0x01] GOTO 0x0A54
     0x0A51 [0x01] GOTO 0x0A54
```

### Event 9

#### Metadata

| Field        | Value     |
|--------------|-----------|
| Entrypoint   | 0x0F52    |
| Data Size    | 445 bytes |
| Instructions | 85        |

```
      00 01 02 03 04 05 06 07  08 09 0A 0B 0C 0D 0E 0F
      -- -- -- -- -- -- -- --  -- -- -- -- -- -- -- --
0F50:       42 AB 12 03 00 00  09 10 02 09 10 00 80 00    B.............
0F60: 13 10 24 01 80 02 80 02  80 25 02 00 10 02 80 00  ..$......%......
0F70: 7A 0F 03 01 10 03 80 01  08 10 02 00 10 00 80 00  z...............
0F80: 8A 0F 03 01 10 04 80 01  08 10 02 00 10 05 80 00  ................
0F90: 9A 0F 03 01 10 06 80 01  08 10 02 00 10 07 80 00  ................
0FA0: AA 0F 03 01 10 08 80 01  08 10 02 00 10 09 80 00  ................
0FB0: BA 0F 03 01 10 0A 80 01  08 10 02 00 10 0B 80 00  ................
0FC0: CA 0F 03 01 10 0C 80 01  08 10 02 00 10 0D 80 00  ................
0FD0: DA 0F 03 01 10 0E 80 01  08 10 02 00 10 0F 80 00  ................
0FE0: FA 0F 03 01 10 10 80 43  00 43 01 03 01 00 08 10  .......C.C......
0FF0: 48 11 80 23 01 62 0F 01  08 10 02 00 10 12 80 00  H..#.b..........
1000: 08 10 01 13 10 01 08 10  43 00 43 01 48 13 80 23  ........C.C.H..#
1010: 01 62 0F 1A F1 29 5D 02  80 20 80 46 01 38 14 80  .b...)].. .F.8..
1020: 29 10 13 02 03 01 0C 29  10 14 02 03 01 0C 29 10  )......)......).
1030: 15 02 03 01 0C 4E 01 F0  FF FF 7F 80 F0 FF FF 7F  .....N..........
1040: 80 13 02 03 01 80 14 02  03 01 80 15 02 03 01 29  ...............)
1050: 10 A9 01 03 01 0B 29 10  AA 01 03 01 0B 29 10 AB  ......)......)..
1060: 01 03 01 0B 29 10 AC 01  03 01 0B 29 10 AD 01 03  ....)......)....
1070: 01 0B 29 10 A5 01 03 01  0B 29 10 AE 01 03 01 0B  ..)......)......
1080: 5B 16 80 13 02 03 01 13  02 03 01 73 74 61 30 5B  [..........sta0[
1090: 16 80 14 02 03 01 14 02  03 01 73 74 61 30 5B 16  ..........sta0[.
10A0: 80 15 02 03 01 15 02 03  01 73 74 61 30 1A AA 23  .........sta0..#
10B0: 5C 00 32 80 5C 01 32 80  5C 02 32 80 5C 03 32 80  \.2.\.2.\.2.\.2.
10C0: 9A 1C 30 80 1A DB 23 1A  F1 29 1C 1A 80 4E 00 F0  ..0...#..)...N..
10D0: FF FF 7F 1A 08 23 5C 00  31 80 5C 01 31 80 5C 02  .....#\.1.\.1.\.
10E0: 31 80 5C 03 31 80 9A 46  00 46 00 45 1D 80 F0 FF  1.\.1..F.F.E....
10F0: FF 7F F0 FF FF 7F 77 68  69 31 02 80 45 27 80 F0  ......whi1..E'..
1100: FF FF 7F F0 FF FF 7F 66  64 69 32 02 80 21 00     .......fdi2..!. 
```

#### Opcodes

```
  0: 0x0F52 [0x42] SET_CLI_EVENT_CANCEL_DATA()
  1: 0x0F53 [0xAB] EventEntity->Render.Flags2 |= 0x04 // Set bit 2
  2: 0x0F55 [0x03] ExtData[1]->WorkLocal[0] = Work_Zone[9]
  3: 0x0F5A [0x02] IF !(Work_Zone[9] == 1*) GOTO 0x1013
  4: 0x0F62 [0x24] CREATE_DIALOG(message_id=7910*, default_option=0*, option_flags=0*)
    → "Switch between captured and safe: [Sky General./Flame General./Water General./Earth General./Gale General./All captured./All safe./Beastman Boss./Begin event.]"
  5: 0x0F69 [0x25] WAIT_DIALOG_SELECT()
  6: 0x0F6A [0x02] IF !(Work_Zone[0] == 0*) GOTO 0x0F7A
  7: 0x0F72 [0x03] Work_Zone[1] = 51*
  8: 0x0F77 [0x01] GOTO 0x1008
  9: 0x0F7A [0x02] IF !(Work_Zone[0] == 1*) GOTO 0x0F8A
 10: 0x0F82 [0x03] Work_Zone[1] = 52*
 11: 0x0F87 [0x01] GOTO 0x1008
 12: 0x0F8A [0x02] IF !(Work_Zone[0] == 2*) GOTO 0x0F9A
 13: 0x0F92 [0x03] Work_Zone[1] = 53*
 14: 0x0F97 [0x01] GOTO 0x1008
 15: 0x0F9A [0x02] IF !(Work_Zone[0] == 3*) GOTO 0x0FAA
 16: 0x0FA2 [0x03] Work_Zone[1] = 54*
 17: 0x0FA7 [0x01] GOTO 0x1008
 18: 0x0FAA [0x02] IF !(Work_Zone[0] == 4*) GOTO 0x0FBA
 19: 0x0FB2 [0x03] Work_Zone[1] = 55*
 20: 0x0FB7 [0x01] GOTO 0x1008
 21: 0x0FBA [0x02] IF !(Work_Zone[0] == 5*) GOTO 0x0FCA
 22: 0x0FC2 [0x03] Work_Zone[1] = 56*
 23: 0x0FC7 [0x01] GOTO 0x1008
 24: 0x0FCA [0x02] IF !(Work_Zone[0] == 6*) GOTO 0x0FDA
 25: 0x0FD2 [0x03] Work_Zone[1] = 57*
 26: 0x0FD7 [0x01] GOTO 0x1008
 27: 0x0FDA [0x02] IF !(Work_Zone[0] == 7*) GOTO 0x0FFA
 28: 0x0FE2 [0x03] Work_Zone[1] = 58*
 29: 0x0FE7 [0x43] SEND_EVENT_UPDATE: Send pending tag to server (packet 0x005B)
 30: 0x0FE9 [0x43] SEND_EVENT_UPDATE: Check pending flag (skip if not pending)
 31: 0x0FEB [0x03] ExtData[1]->WorkLocal[1] = Work_Zone[8]
 32: 0x0FF0 [0x48] [System] [7911*]:
    → "Beastman Boss: [Absent/Present]"
 33: 0x0FF3 [0x23] WAIT_FOR_DIALOG_INTERACTION
 34: 0x0FF4 [0x01] GOTO 0x0F62

SUBROUTINE_1008:
 35: 0x1008 [0x43] SEND_EVENT_UPDATE: Send pending tag to server (packet 0x005B)
 36: 0x100A [0x43] SEND_EVENT_UPDATE: Check pending flag (skip if not pending)
 37: 0x100C [0x48] [System] [7909*]:
    → "DEBUG: The [Skys/Flames/Waters/Earths/Gales/S]erpent General(s) are [captured/safe]!"
 38: 0x100F [0x23] WAIT_FOR_DIALOG_INTERACTION
 39: 0x1010 [0x01] GOTO 0x0F62

SUBROUTINE_1013:
 40: 0x1013 [0x1A] CALL_SUBROUTINE(address=0x29F1)
 41: 0x1016 [0x5D] SET_MUSIC_VOLUME(volume=0*, fade_time=120*)
 42: 0x101B [0x46] CAMERA_CONTROL: Disable user control
 43: 0x101D [0x38] SET_CLIENT_EVENT_MODE(mode=19*)
 44: 0x1020 [0x29] REQ_SET_WAIT(priority=0x10, entity_id=Mutarid (ID: 16974355/0x01030213), tag_num=0x0C)
 45: 0x1027 [0x29] REQ_SET_WAIT(priority=0x10, entity_id=Syaid (ID: 16974356/0x01030214), tag_num=0x0C)
 46: 0x102E [0x29] REQ_SET_WAIT(priority=0x10, entity_id=Azwil (ID: 16974357/0x01030215), tag_num=0x0C)
 47: 0x1035 [0x4E] SET_ENTITY_HIDE_FLAG: Hide LocalPlayer
 48: 0x103B [0x80] LOAD_WAIT(entity=LocalPlayer)
 49: 0x1040 [0x80] LOAD_WAIT(entity=Mutarid (ID: 16974355/0x01030213))
 50: 0x1045 [0x80] LOAD_WAIT(entity=Syaid (ID: 16974356/0x01030214))
 51: 0x104A [0x80] LOAD_WAIT(entity=Azwil (ID: 16974357/0x01030215))
 52: 0x104F [0x29] REQ_SET_WAIT(priority=0x10, entity_id=FX_01 (ID: 16974249/0x010301A9), tag_num=0x0B)
 53: 0x1056 [0x29] REQ_SET_WAIT(priority=0x10, entity_id=FX_02 (ID: 16974250/0x010301AA), tag_num=0x0B)
 54: 0x105D [0x29] REQ_SET_WAIT(priority=0x10, entity_id=FX_03 (ID: 16974251/0x010301AB), tag_num=0x0B)
 55: 0x1064 [0x29] REQ_SET_WAIT(priority=0x10, entity_id=FX_04 (ID: 16974252/0x010301AC), tag_num=0x0B)
 56: 0x106B [0x29] REQ_SET_WAIT(priority=0x10, entity_id=FX_05 (ID: 16974253/0x010301AD), tag_num=0x0B)
 57: 0x1072 [0x29] REQ_SET_WAIT(priority=0x10, entity_id=Gate: Hall of Binding (ID: 16974245/0x010301A5), tag_num=0x0B)
 58: 0x1079 [0x29] REQ_SET_WAIT(priority=0x10, entity_id=Door: Inner Sanctum (ID: 16974254/0x010301AE), tag_num=0x0B)
 59: 0x1080 [0x5B] LOAD_EXT_SCHEDULER: Load scheduler "sta0" with entities [Mutarid (ID: 16974355/0x01030213), Mutarid (ID: 16974355/0x01030213)], work=837*
 60: 0x108F [0x5B] LOAD_EXT_SCHEDULER: Load scheduler "sta0" with entities [Syaid (ID: 16974356/0x01030214), Syaid (ID: 16974356/0x01030214)], work=837*
 61: 0x109E [0x5B] LOAD_EXT_SCHEDULER: Load scheduler "sta0" with entities [Azwil (ID: 16974357/0x01030215), Azwil (ID: 16974357/0x01030215)], work=837*
 62: 0x10AD [0x1A] CALL_SUBROUTINE(address=0x23AA)
 63: 0x10B0 [0x5C] MUSIC_CONTROL: Set Idle (Day) music to song 179*
 64: 0x10B4 [0x5C] MUSIC_CONTROL: Set Idle (Night) music to song 179*
 65: 0x10B8 [0x5C] MUSIC_CONTROL: Set Combat (Solo) music to song 179*
 66: 0x10BC [0x5C] MUSIC_CONTROL: Set Combat (Party) music to song 179*
 67: 0x10C0 [0x9A] WAIT_MUSIC_SERVER()
 68: 0x10C1 [0x1C] WAIT(180* ticks)
 69: 0x10C4 [0x1A] CALL_SUBROUTINE(address=0x23DB)
 70: 0x10C7 [0x1A] CALL_SUBROUTINE(address=0x29F1)
 71: 0x10CA [0x1C] WAIT(30* ticks)
 72: 0x10CD [0x4E] SET_ENTITY_HIDE_FLAG: Show LocalPlayer
 73: 0x10D3 [0x1A] CALL_SUBROUTINE(address=0x2308)
 74: 0x10D6 [0x5C] MUSIC_CONTROL: Set Idle (Day) music to song 178*
 75: 0x10DA [0x5C] MUSIC_CONTROL: Set Idle (Night) music to song 178*
 76: 0x10DE [0x5C] MUSIC_CONTROL: Set Combat (Solo) music to song 178*
 77: 0x10E2 [0x5C] MUSIC_CONTROL: Set Combat (Party) music to song 178*
 78: 0x10E6 [0x9A] WAIT_MUSIC_SERVER()
 79: 0x10E7 [0x46] CAMERA_CONTROL: Restore default settings
 80: 0x10E9 [0x46] CAMERA_CONTROL: Restore default settings
 81: 0x10EB [0x45] LOAD_SCHEDULED_TASK: Load scheduler "whi1" with entities [LocalPlayer, LocalPlayer], work=[201*, 0*]
 82: 0x10FC [0x45] LOAD_SCHEDULED_TASK: Load scheduler "fdi2" with entities [LocalPlayer, LocalPlayer], work=[200*, 0*]
 83: 0x110D [0x21] END_EVENT
 84: 0x110E [0x00] END_REQSTACK()
```

#### Data or dead code:

```
# Dead code (unreachable instructions):
     0x0FF7 [0x01] GOTO 0x1008
     0x1005 [0x01] GOTO 0x1008
```

### Event 10

#### Metadata

| Field        | Value     |
|--------------|-----------|
| Entrypoint   | 0x110F    |
| Data Size    | 433 bytes |
| Instructions | 74        |

```
      00 01 02 03 04 05 06 07  08 09 0A 0B 0C 0D 0E 0F
      -- -- -- -- -- -- -- --  -- -- -- -- -- -- -- --
1100:                                               42                 B
1110: AB 12 03 00 00 09 10 1A  F1 29 27 10 B2 01 03 01  .........)'.....
1120: 08 5D 02 80 20 80 46 01  38 14 80 4E 01 F0 FF FF  .].. .F.8..N....
1130: 7F 4E 00 35 02 03 01 4E  00 36 02 03 01 4E 00 37  .N.5...N.6...N.7
1140: 02 03 01 4E 00 F3 01 03  01 4E 00 F5 01 03 01 29  ...N.....N.....)
1150: 10 35 02 03 01 05 29 10  36 02 03 01 05 29 10 37  .5....).6....).7
1160: 02 03 01 05 29 10 F3 01  03 01 06 29 10 F5 01 03  ....)......)....
1170: 01 06 29 10 A9 01 03 01  0B 29 10 AA 01 03 01 0B  ..)......)......
1180: 29 10 AB 01 03 01 0B 29  10 AC 01 03 01 0B 29 10  )......)......).
1190: AD 01 03 01 0B 29 10 A5  01 03 01 0A 29 10 AE 01  .....)......)...
11A0: 03 01 0A 80 F0 FF FF 7F  80 35 02 03 01 80 36 02  .........5....6.
11B0: 03 01 80 37 02 03 01 80  F3 01 03 01 80 F5 01 03  ...7............
11C0: 01 1C 15 80 2C 35 02 03  01 35 02 03 01 63 6F 72  ....,5...5...cor
11D0: 70 2C 36 02 03 01 36 02  03 01 63 6F 72 70 2C 37  p,6...6...corp,7
11E0: 02 03 01 37 02 03 01 63  6F 72 70 2C F3 01 03 01  ...7...corp,....
11F0: F3 01 03 01 63 6F 72 70  2C F5 01 03 01 F5 01 03  ....corp,.......
1200: 01 63 6F 72 70 1C 1A 80  5C 00 33 80 5C 01 33 80  .corp...\.3.\.3.
1210: 5C 02 33 80 5C 03 33 80  9A 1C 20 80 45 1C 80 F0  \.3.\.3... .E...
1220: FF FF 7F F0 FF FF 7F 62  6C 30 30 02 80 1C 15 80  .......bl00.....
1230: 1A D0 29 1C 34 80 48 35  80 5D 02 80 20 80 1C 23  ..).4.H5.].. ..#
1240: 80 1A F1 29 1C 1A 80 4E  00 F0 FF FF 7F 52 1C 80  ...)...N.....R..
1250: F0 FF FF 7F F0 FF FF 7F  62 6C 30 30 45 1C 80 F0  ........bl00E...
1260: FF FF 7F F0 FF FF 7F 30  62 6C 66 02 80 02 00 00  .......0blf.....
1270: 00 80 00 89 12 5C 00 31  80 5C 01 31 80 5C 02 31  .....\.1.\.1.\.1
1280: 80 5C 03 31 80 9A 01 9A  12 5C 00 02 80 5C 01 02  .\.1.....\...\..
1290: 80 5C 02 02 80 5C 03 02  80 9A 46 00 45 1D 80 F0  .\...\....F.E...
12A0: FF FF 7F F0 FF FF 7F 77  68 69 31 02 80 45 27 80  .......whi1..E'.
12B0: F0 FF FF 7F F0 FF FF 7F  66 64 69 32 02 80 21 00  ........fdi2..!.
```

#### Opcodes

```
  0: 0x110F [0x42] SET_CLI_EVENT_CANCEL_DATA()
  1: 0x1110 [0xAB] EventEntity->Render.Flags2 |= 0x04 // Set bit 2
  2: 0x1112 [0x03] ExtData[1]->WorkLocal[0] = Work_Zone[9]
  3: 0x1117 [0x1A] CALL_SUBROUTINE(address=0x29F1)
  4: 0x111A [0x27] REQ_SET(priority=0x10, entity_id=Astral Plinth (ID: 16974258/0x010301B2), tag_num=0x08)
  5: 0x1121 [0x5D] SET_MUSIC_VOLUME(volume=0*, fade_time=120*)
  6: 0x1126 [0x46] CAMERA_CONTROL: Disable user control
  7: 0x1128 [0x38] SET_CLIENT_EVENT_MODE(mode=19*)
  8: 0x112B [0x4E] SET_ENTITY_HIDE_FLAG: Hide LocalPlayer
  9: 0x1131 [0x4E] SET_ENTITY_HIDE_FLAG: Show Banjanu (ID: 16974389/0x01030235)
 10: 0x1137 [0x4E] SET_ENTITY_HIDE_FLAG: Show Bjibar (ID: 16974390/0x01030236)
 11: 0x113D [0x4E] SET_ENTITY_HIDE_FLAG: Show Dahaeel (ID: 16974391/0x01030237)
 12: 0x1143 [0x4E] SET_ENTITY_HIDE_FLAG: Show Biyaada (ID: 16974323/0x010301F3)
 13: 0x1149 [0x4E] SET_ENTITY_HIDE_FLAG: Show Iphaaf (ID: 16974325/0x010301F5)
 14: 0x114F [0x29] REQ_SET_WAIT(priority=0x10, entity_id=Banjanu (ID: 16974389/0x01030235), tag_num=0x05)
 15: 0x1156 [0x29] REQ_SET_WAIT(priority=0x10, entity_id=Bjibar (ID: 16974390/0x01030236), tag_num=0x05)
 16: 0x115D [0x29] REQ_SET_WAIT(priority=0x10, entity_id=Dahaeel (ID: 16974391/0x01030237), tag_num=0x05)
 17: 0x1164 [0x29] REQ_SET_WAIT(priority=0x10, entity_id=Biyaada (ID: 16974323/0x010301F3), tag_num=0x06)
 18: 0x116B [0x29] REQ_SET_WAIT(priority=0x10, entity_id=Iphaaf (ID: 16974325/0x010301F5), tag_num=0x06)
 19: 0x1172 [0x29] REQ_SET_WAIT(priority=0x10, entity_id=FX_01 (ID: 16974249/0x010301A9), tag_num=0x0B)
 20: 0x1179 [0x29] REQ_SET_WAIT(priority=0x10, entity_id=FX_02 (ID: 16974250/0x010301AA), tag_num=0x0B)
 21: 0x1180 [0x29] REQ_SET_WAIT(priority=0x10, entity_id=FX_03 (ID: 16974251/0x010301AB), tag_num=0x0B)
 22: 0x1187 [0x29] REQ_SET_WAIT(priority=0x10, entity_id=FX_04 (ID: 16974252/0x010301AC), tag_num=0x0B)
 23: 0x118E [0x29] REQ_SET_WAIT(priority=0x10, entity_id=FX_05 (ID: 16974253/0x010301AD), tag_num=0x0B)
 24: 0x1195 [0x29] REQ_SET_WAIT(priority=0x10, entity_id=Gate: Hall of Binding (ID: 16974245/0x010301A5), tag_num=0x0A)
 25: 0x119C [0x29] REQ_SET_WAIT(priority=0x10, entity_id=Door: Inner Sanctum (ID: 16974254/0x010301AE), tag_num=0x0A)
 26: 0x11A3 [0x80] LOAD_WAIT(entity=LocalPlayer)
 27: 0x11A8 [0x80] LOAD_WAIT(entity=Banjanu (ID: 16974389/0x01030235))
 28: 0x11AD [0x80] LOAD_WAIT(entity=Bjibar (ID: 16974390/0x01030236))
 29: 0x11B2 [0x80] LOAD_WAIT(entity=Dahaeel (ID: 16974391/0x01030237))
 30: 0x11B7 [0x80] LOAD_WAIT(entity=Biyaada (ID: 16974323/0x010301F3))
 31: 0x11BC [0x80] LOAD_WAIT(entity=Iphaaf (ID: 16974325/0x010301F5))
 32: 0x11C1 [0x1C] WAIT(15* ticks)
 33: 0x11C4 [0x2C] CREATE_SCHEDULER_TASK: Create scheduler "corp" with entities [Banjanu (ID: 16974389/0x01030235), Banjanu (ID: 16974389/0x01030235)]
 34: 0x11D1 [0x2C] CREATE_SCHEDULER_TASK: Create scheduler "corp" with entities [Bjibar (ID: 16974390/0x01030236), Bjibar (ID: 16974390/0x01030236)]
 35: 0x11DE [0x2C] CREATE_SCHEDULER_TASK: Create scheduler "corp" with entities [Dahaeel (ID: 16974391/0x01030237), Dahaeel (ID: 16974391/0x01030237)]
 36: 0x11EB [0x2C] CREATE_SCHEDULER_TASK: Create scheduler "corp" with entities [Biyaada (ID: 16974323/0x010301F3), Biyaada (ID: 16974323/0x010301F3)]
 37: 0x11F8 [0x2C] CREATE_SCHEDULER_TASK: Create scheduler "corp" with entities [Iphaaf (ID: 16974325/0x010301F5), Iphaaf (ID: 16974325/0x010301F5)]
 38: 0x1205 [0x1C] WAIT(30* ticks)
 39: 0x1208 [0x5C] MUSIC_CONTROL: Set Idle (Day) music to song 111*
 40: 0x120C [0x5C] MUSIC_CONTROL: Set Idle (Night) music to song 111*
 41: 0x1210 [0x5C] MUSIC_CONTROL: Set Combat (Solo) music to song 111*
 42: 0x1214 [0x5C] MUSIC_CONTROL: Set Combat (Party) music to song 111*
 43: 0x1218 [0x9A] WAIT_MUSIC_SERVER()
 44: 0x1219 [0x1C] WAIT(120* ticks)
 45: 0x121C [0x45] LOAD_SCHEDULED_TASK: Load scheduler "bl00" with entities [LocalPlayer, LocalPlayer], work=[270*, 0*]
 46: 0x122D [0x1C] WAIT(15* ticks)
 47: 0x1230 [0x1A] CALL_SUBROUTINE(address=0x29D0)
 48: 0x1233 [0x1C] WAIT(420* ticks)
 49: 0x1236 [0x48] [System] [7793*]:
    → "The beastmen have entered the Hall of Binding! The Astral Candescence has been taken."
 50: 0x1239 [0x5D] SET_MUSIC_VOLUME(volume=0*, fade_time=120*)
 51: 0x123E [0x1C] WAIT(60* ticks)
 52: 0x1241 [0x1A] CALL_SUBROUTINE(address=0x29F1)
 53: 0x1244 [0x1C] WAIT(30* ticks)
 54: 0x1247 [0x4E] SET_ENTITY_HIDE_FLAG: Show LocalPlayer
 55: 0x124D [0x52] END_LOAD_SCHEDULER: End scheduler "bl00" with entities [LocalPlayer, LocalPlayer], work=270*
 56: 0x125C [0x45] LOAD_SCHEDULED_TASK: Load scheduler "0blf" with entities [LocalPlayer, LocalPlayer], work=[270*, 0*]
 57: 0x126D [0x02] IF !(ExtData[1]->WorkLocal[0] == 1*) GOTO 0x1289
 58: 0x1275 [0x5C] MUSIC_CONTROL: Set Idle (Day) music to song 178*
 59: 0x1279 [0x5C] MUSIC_CONTROL: Set Idle (Night) music to song 178*
 60: 0x127D [0x5C] MUSIC_CONTROL: Set Combat (Solo) music to song 178*
 61: 0x1281 [0x5C] MUSIC_CONTROL: Set Combat (Party) music to song 178*
 62: 0x1285 [0x9A] WAIT_MUSIC_SERVER()
 63: 0x1286 [0x01] GOTO 0x129A
 64: 0x1289 [0x5C] MUSIC_CONTROL: Set Idle (Day) music to song 0*
 65: 0x128D [0x5C] MUSIC_CONTROL: Set Idle (Night) music to song 0*
 66: 0x1291 [0x5C] MUSIC_CONTROL: Set Combat (Solo) music to song 0*
 67: 0x1295 [0x5C] MUSIC_CONTROL: Set Combat (Party) music to song 0*
 68: 0x1299 [0x9A] WAIT_MUSIC_SERVER()

SUBROUTINE_129A:
 69: 0x129A [0x46] CAMERA_CONTROL: Restore default settings
 70: 0x129C [0x45] LOAD_SCHEDULED_TASK: Load scheduler "whi1" with entities [LocalPlayer, LocalPlayer], work=[201*, 0*]
 71: 0x12AD [0x45] LOAD_SCHEDULED_TASK: Load scheduler "fdi2" with entities [LocalPlayer, LocalPlayer], work=[200*, 0*]
 72: 0x12BE [0x21] END_EVENT
 73: 0x12BF [0x00] END_REQSTACK()
```

### Event 11

#### Metadata

| Field        | Value      |
|--------------|------------|
| Entrypoint   | 0x12C0     |
| Data Size    | 1804 bytes |
| Instructions | 246        |

```
      00 01 02 03 04 05 06 07  08 09 0A 0B 0C 0D 0E 0F
      -- -- -- -- -- -- -- --  -- -- -- -- -- -- -- --
12C0: 42 AB 12 03 01 00 08 10  03 00 00 09 10 02 09 10  B...............
12D0: 00 80 00 86 13 24 01 80  02 80 02 80 25 02 00 10  .....$......%...
12E0: 02 80 00 ED 12 03 01 10  03 80 01 7B 13 02 00 10  ...........{....
12F0: 00 80 00 FD 12 03 01 10  04 80 01 7B 13 02 00 10  ...........{....
1300: 05 80 00 0D 13 03 01 10  06 80 01 7B 13 02 00 10  ...........{....
1310: 07 80 00 1D 13 03 01 10  08 80 01 7B 13 02 00 10  ...........{....
1320: 09 80 00 2D 13 03 01 10  0A 80 01 7B 13 02 00 10  ...-.......{....
1330: 0B 80 00 3D 13 03 01 10  0C 80 01 7B 13 02 00 10  ...=.......{....
1340: 0D 80 00 4D 13 03 01 10  0E 80 01 7B 13 02 00 10  ...M.......{....
1350: 0F 80 00 6D 13 03 01 10  10 80 43 00 43 01 03 01  ...m......C.C...
1360: 00 08 10 48 11 80 23 01  D5 12 01 7B 13 02 00 10  ...H..#....{....
1370: 12 80 00 7B 13 01 86 13  01 7B 13 43 00 43 01 48  ...{.....{.C.C.H
1380: 13 80 23 01 D5 12 1A F1  29 46 01 38 14 80 4E 01  ..#.....)F.8..N.
1390: F0 FF FF 7F 27 10 0A 02  03 01 02 27 10 0B 02 03  ....'......'....
13A0: 01 02 27 10 0C 02 03 01  02 27 10 0D 02 03 01 02  ..'......'......
13B0: 27 10 0E 02 03 01 02 27  10 0F 02 03 01 02 27 10  '......'......'.
13C0: 10 02 03 01 02 27 10 11  02 03 01 02 27 10 12 02  .....'......'...
13D0: 03 01 02 27 10 13 02 03  01 0B 27 10 14 02 03 01  ...'......'.....
13E0: 0B 27 10 15 02 03 01 0B  94 01 F0 FF FF 7F 94 01  .'..............
13F0: 0A 02 03 01 94 01 0B 02  03 01 94 01 0C 02 03 01  ................
1400: 94 01 0D 02 03 01 94 01  0E 02 03 01 94 01 0F 02  ................
1410: 03 01 94 01 10 02 03 01  94 01 11 02 03 01 94 01  ................
1420: 12 02 03 01 29 10 F0 FF  FF 7F 04 29 10 0A 02 03  ....)......)....
1430: 01 08 29 10 0B 02 03 01  08 29 10 0C 02 03 01 08  ..)......)......
1440: 29 10 0D 02 03 01 08 29  10 0E 02 03 01 08 29 10  )......)......).
1450: 0F 02 03 01 08 29 10 10  02 03 01 08 29 10 11 02  .....)......)...
1460: 03 01 06 29 10 12 02 03  01 06 1C 15 80 80 F0 FF  ...)............
1470: FF 7F 80 0A 02 03 01 80  0B 02 03 01 80 0C 02 03  ................
1480: 01 80 0D 02 03 01 80 0E  02 03 01 80 0F 02 03 01  ................
1490: 80 10 02 03 01 80 11 02  03 01 80 12 02 03 01 4E  ...............N
14A0: 01 0A 02 03 01 4E 01 0B  02 03 01 4E 01 0C 02 03  .....N.....N....
14B0: 01 4E 01 0D 02 03 01 4E  01 0E 02 03 01 4E 01 0F  .N.....N.....N..
14C0: 02 03 01 4E 01 10 02 03  01 6C 11 02 03 01 02 80  ...N.....l......
14D0: 00 80 6C 12 02 03 01 02  80 00 80 29 10 A9 01 03  ..l........)....
14E0: 01 0B 29 10 AA 01 03 01  0B 29 10 AB 01 03 01 0B  ..)......)......
14F0: 29 10 AC 01 03 01 0B 29  10 AD 01 03 01 0B 29 10  )......)......).
1500: A5 01 03 01 0B 29 10 AE  01 03 01 0B 5B 16 80 13  .....)......[...
1510: 02 03 01 13 02 03 01 73  74 61 30 5B 16 80 14 02  .......sta0[....
1520: 03 01 14 02 03 01 73 74  61 30 5B 16 80 15 02 03  ......sta0[.....
1530: 01 15 02 03 01 73 74 61  30 1A 79 23 5C 00 17 80  .....sta0.y#\...
1540: 5C 01 17 80 5C 02 17 80  5C 03 17 80 9A 5D 18 80  \...\...\....]..
1550: 19 80 1C 1A 80 48 1B 80  45 1C 80 F0 FF FF 7F F0  .....H..E.......
1560: FF FF 7F 77 72 31 39 02  80 45 1D 80 F0 FF FF 7F  ...wr19..E......
1570: F0 FF FF 7F 77 68 69 31  02 80 1A D0 29 55 1C 80  ....whi1....)U..
1580: F0 FF FF 7F F0 FF FF 7F  77 72 31 39 45 1C 80 F0  ........wr19E...
1590: FF FF 7F F0 FF FF 7F 77  72 32 30 02 80 48 3D 80  .......wr20..H=.
15A0: 55 1C 80 F0 FF FF 7F F0  FF FF 7F 77 72 32 30 45  U..........wr20E
15B0: 1C 80 F0 FF FF 7F F0 FF  FF 7F 77 72 32 31 02 80  ..........wr21..
15C0: 48 1F 80 1C 20 80 48 21  80 1C 20 80 48 22 80 55  H... .H!.. .H".U
15D0: 1C 80 F0 FF FF 7F F0 FF  FF 7F 77 72 32 31 45 1C  ..........wr21E.
15E0: 80 F0 FF FF 7F F0 FF FF  7F 77 72 32 32 02 80 4E  .........wr22..N
15F0: 00 0D 02 03 01 4E 00 0E  02 03 01 4E 00 0F 02 03  .....N.....N....
1600: 01 4E 00 10 02 03 01 1C  23 80 27 10 0D 02 03 01  .N......#.'.....
1610: 09 27 10 0F 02 03 01 09  27 10 10 02 03 01 09 52  .'......'......R
1620: 1C 80 F0 FF FF 7F F0 FF  FF 7F 77 72 32 32 45 1C  ..........wr22E.
1630: 80 F0 FF FF 7F F0 FF FF  7F 77 72 32 33 02 80 27  .........wr23..'
1640: 10 0E 02 03 01 09 55 1C  80 F0 FF FF 7F F0 FF FF  ......U.........
1650: 7F 77 72 32 33 45 1C 80  F0 FF FF 7F F0 FF FF 7F  .wr23E..........
1660: 77 72 32 34 02 80 55 1C  80 F0 FF FF 7F F0 FF FF  wr24..U.........
1670: 7F 77 72 32 34 45 1C 80  F0 FF FF 7F F0 FF FF 7F  .wr24E..........
1680: 77 72 32 35 02 80 27 10  F9 01 03 01 0D 27 10 12  wr25..'......'..
1690: 02 03 01 07 4E 00 0A 02  03 01 4E 00 0B 02 03 01  ....N.....N.....
16A0: 4E 00 0C 02 03 01 55 1C  80 F0 FF FF 7F F0 FF FF  N.....U.........
16B0: 7F 77 72 32 35 45 1C 80  F0 FF FF 7F F0 FF FF 7F  .wr25E..........
16C0: 77 72 32 36 02 80 27 10  F8 01 03 01 0D 27 10 11  wr26..'......'..
16D0: 02 03 01 07 55 1C 80 F0  FF FF 7F F0 FF FF 7F 77  ....U..........w
16E0: 72 32 36 45 1C 80 F0 FF  FF 7F F0 FF FF 7F 77 72  r26E..........wr
16F0: 32 37 02 80 27 10 0B 02  03 01 09 27 10 0C 02 03  27..'......'....
1700: 01 09 27 10 0A 02 03 01  09 1C 37 80 52 1C 80 F0  ..'.......7.R...
1710: FF FF 7F F0 FF FF 7F 77  72 32 37 45 1C 80 F0 FF  .......wr27E....
1720: FF 7F F0 FF FF 7F 77 72  32 38 02 80 55 1C 80 F0  ......wr28..U...
1730: FF FF 7F F0 FF FF 7F 77  72 32 38 45 1C 80 F0 FF  .......wr28E....
1740: FF 7F F0 FF FF 7F 77 72  32 39 02 80 1C 28 80 52  ......wr29...(.R
1750: 1C 80 F0 FF FF 7F F0 FF  FF 7F 77 72 32 39 45 1C  ..........wr29E.
1760: 80 F0 FF FF 7F F0 FF FF  7F 77 72 30 34 02 80 45  .........wr04..E
1770: 1C 80 F0 FF FF 7F F0 FF  FF 7F 30 62 6C 66 02 80  ..........0blf..
1780: 55 1C 80 F0 FF FF 7F F0  FF FF 7F 77 72 30 34 45  U..........wr04E
1790: 1C 80 F0 FF FF 7F F0 FF  FF 7F 77 72 30 35 02 80  ..........wr05..
17A0: 27 10 0A 02 03 01 03 27  10 0B 02 03 01 03 27 10  '......'......'.
17B0: 0C 02 03 01 03 27 10 0D  02 03 01 03 27 10 0E 02  .....'......'...
17C0: 03 01 03 27 10 0F 02 03  01 03 27 10 10 02 03 01  ...'......'.....
17D0: 03 27 10 11 02 03 01 03  27 10 12 02 03 01 03 1A  .'......'.......
17E0: 8A 21 1A 3A 1D 02 01 00  00 80 00 71 19 1A F1 29  .!.:.......q...)
17F0: 1A 9C 22 1A 79 23 27 10  17 02 03 01 02 27 10 19  ..".y#'......'..
1800: 02 03 01 01 94 01 17 02  03 01 94 01 19 02 03 01  ................
1810: 29 10 17 02 03 01 06 29  10 19 02 03 01 06 80 17  )......)........
1820: 02 03 01 80 19 02 03 01  5B 3E 80 17 02 03 01 17  ........[>......
1830: 02 03 01 77 61 72 30 1C  15 80 45 1C 80 F0 FF FF  ...war0...E.....
1840: 7F F0 FF FF 7F 62 74 72  30 02 80 45 27 80 F0 FF  .....btr0..E'...
1850: FF 7F F0 FF FF 7F 66 64  69 31 02 80 1C 2C 80 2B  ......fdi1...,.+
1860: 17 02 03 01 3F 80 1C 20  80 52 1C 80 F0 FF FF 7F  ....?.. .R......
1870: F0 FF FF 7F 62 74 72 30  45 1C 80 F0 FF FF 7F F0  ....btr0E.......
1880: FF FF 7F 62 6D 62 30 02  80 27 10 F9 01 03 01 0E  ...bmb0..'......
