# 16974315 - Mihli Aliapoh

## Common Data

| Field            | Value             |
|------------------|-------------------|
| Zone             | Al Zahbi (ID: 48) |
| Block Size       | 904 bytes         |
| Total Events     | 17                |
| References Count | 41                |

## List of Events

| Event ID                 | Entrypoint   |   Size |   Instructions |
|--------------------------|--------------|--------|----------------|
| [65535](#event-65535)    | 0x0000       |      1 |              1 |
| [5](#event-5)            | 0x0001       |     13 |              3 |
| [6](#event-6)            | 0x000E       |     13 |              3 |
| [8](#event-8)            | 0x001B       |     13 |              3 |
| [9](#event-9)            | 0x0028       |     13 |              3 |
| [11](#event-11)          | 0x0035       |     13 |              3 |
| [12](#event-12)          | 0x0042       |     13 |              3 |
| [213](#event-213)        | 0x004F       |     45 |             16 |
| [65535.1](#event-655351) | 0x007C       |     13 |              3 |
| [267](#event-267)        | 0x0089       |     59 |             18 |
| [275](#event-275)        | 0x00C4       |     59 |             18 |
| [65535.2](#event-655352) | 0x00FF       |     37 |              5 |
| [65535.3](#event-655353) | 0x0124       |    185 |             37 |
| [65535.4](#event-655354) | 0x01DD       |     10 |              2 |
| [65535.5](#event-655355) | 0x01E7       |     10 |              2 |
| [286](#event-286)        | 0x01F1       |     66 |             19 |
| [289](#event-289)        | 0x0233       |     91 |             26 |

## DAT References (imed_data)

|   Index | Hex Value   |   Dec Value |
|---------|-------------|-------------|
|       0 | 0x0001      |           1 |
|       1 | 0x1E1F      |        7711 |
|       2 | 0x00B4      |         180 |
|       3 | 0x0019      |          25 |
|       4 | 0x1E20      |        7712 |
|       5 | 0x012C      |         300 |
|       6 | 0x002B      |          43 |
|       7 | 0x0020      |          32 |
|       8 | 0x1E21      |        7713 |
|       9 | 0x001E      |          30 |
|      10 | 0x0010      |          16 |
|      11 | 0x1E22      |        7714 |
|      12 | 0x0005      |           5 |
|      13 | 0x1E23      |        7715 |
|      14 | 0x1E24      |        7716 |
|      15 | 0x0002      |           2 |
|      16 | 0x000A      |          10 |
|      17 | 0x0009      |           9 |
|      18 | 0x0046      |          70 |
|      19 | 0x008C      |         140 |
|      20 | 0x00D2      |         210 |
|      21 | 0xFFFFA774  |  4294944628 |
|      22 | 0x176E9     |       95977 |
|      23 | 0xFFFFE890  |  4294961296 |
|      24 | 0x080E      |        2062 |
|      25 | 0xBADD      |       47837 |
|      26 | 0x1A21D     |      107037 |
|      27 | 0x0000      |           0 |
|      28 | 0x05ED      |        1517 |
|      29 | 0x0023      |          35 |
|      30 | 0x1E25      |        7717 |
|      31 | 0x0022      |          34 |
|      32 | 0x1E26      |        7718 |
|      33 | 0x1FE7      |        8167 |
|      34 | 0x1FE8      |        8168 |
|      35 | 0x1FE9      |        8169 |
|      36 | 0x1FEA      |        8170 |
|      37 | 0x003B      |          59 |
|      38 | 0x1FEB      |        8171 |
|      39 | 0x099F      |        2463 |
|      40 | 0x1FEC      |        8172 |

## String References

- **7711**: Oh, I rrremember you. Here, this is for you.
- **7712**: I-I'm not thanking you for anything. Don't get the wrrrong idea. This is just to cover the costs of your journey.
- **7713**: Leave me alone. I can't stand merrrcenaries.
- **7714**: Just make sure you don't get in our way when we're rrripping up the battlefield.
- **7715**: How am I going to get out of this...? The...the...Astral Candescence... What'll I tell the Empress...?
- **7716**: ...What!? I don't need you merrrcenaries' help. I could take the Astral Candescence back with both hands tied behind my back!
- **7717**: Hmph, just because you think you know a thing or two about me now doesn't mean I like you.
- **7718**: I am a generrral. You are a mercenary. Rrremember your station.
- **8167**: What do you want, mercenary? I've got no time to chatter with the likes of you.
- **8168**: Elder Nadeey sent you?
- **8169**: ...
- **8170**: You're serrrious about having this chat, aren't you?
- **8171**: Aydeewa Subterrane. Wait there until I finish my duties.
- **8172**: Oh, and if you bring $0 with you, I might even think about talking to you!

## Events

### Event 65535

#### Metadata

| Field        | Value   |
|--------------|---------|
| Entrypoint   | 0x0000  |
| Data Size    | 1 bytes |
| Instructions | 1       |

```
      00 01 02 03 04 05 06 07  08 09 0A 0B 0C 0D 0E 0F
      -- -- -- -- -- -- -- --  -- -- -- -- -- -- -- --
0000: 00                                                .               
```

#### Opcodes

```
  0: 0x0000 [0x00] END_REQSTACK()
```

### Event 5

#### Metadata

| Field        | Value    |
|--------------|----------|
| Entrypoint   | 0x0001   |
| Data Size    | 13 bytes |
| Instructions | 3        |

```
      00 01 02 03 04 05 06 07  08 09 0A 0B 0C 0D 0E 0F
      -- -- -- -- -- -- -- --  -- -- -- -- -- -- -- --
0000:    92 01 F8 FF FF 7F 94  01 F8 FF FF 7F 00         .............  
```

#### Opcodes

```
  0: 0x0001 [0x92] EventEntity->Render.Flags3 ^= 0x01
  1: 0x0007 [0x94] EventEntity->Render.Flags3 ^= 0x01
  2: 0x000D [0x00] END_REQSTACK()
```

### Event 6

#### Metadata

| Field        | Value    |
|--------------|----------|
| Entrypoint   | 0x000E   |
| Data Size    | 13 bytes |
| Instructions | 3        |

```
      00 01 02 03 04 05 06 07  08 09 0A 0B 0C 0D 0E 0F
      -- -- -- -- -- -- -- --  -- -- -- -- -- -- -- --
0000:                                            92 01                ..
0010: F8 FF FF 7F 94 01 F8 FF  FF 7F 00                 ...........     
```

#### Opcodes

```
  0: 0x000E [0x92] EventEntity->Render.Flags3 ^= 0x01
  1: 0x0014 [0x94] EventEntity->Render.Flags3 ^= 0x01
  2: 0x001A [0x00] END_REQSTACK()
```

### Event 8

#### Metadata

| Field        | Value    |
|--------------|----------|
| Entrypoint   | 0x001B   |
| Data Size    | 13 bytes |
| Instructions | 3        |

```
      00 01 02 03 04 05 06 07  08 09 0A 0B 0C 0D 0E 0F
      -- -- -- -- -- -- -- --  -- -- -- -- -- -- -- --
0010:                                   92 01 F8 FF FF             .....
0020: 7F 94 01 F8 FF FF 7F 00                           ........        
```

#### Opcodes

```
  0: 0x001B [0x92] EventEntity->Render.Flags3 ^= 0x01
  1: 0x0021 [0x94] EventEntity->Render.Flags3 ^= 0x01
  2: 0x0027 [0x00] END_REQSTACK()
```

### Event 9

#### Metadata

| Field        | Value    |
|--------------|----------|
| Entrypoint   | 0x0028   |
| Data Size    | 13 bytes |
| Instructions | 3        |

```
      00 01 02 03 04 05 06 07  08 09 0A 0B 0C 0D 0E 0F
      -- -- -- -- -- -- -- --  -- -- -- -- -- -- -- --
0020:                          92 01 F8 FF FF 7F 94 01          ........
0030: F8 FF FF 7F 00                                    .....           
```

#### Opcodes

```
  0: 0x0028 [0x92] EventEntity->Render.Flags3 ^= 0x01
  1: 0x002E [0x94] EventEntity->Render.Flags3 ^= 0x01
  2: 0x0034 [0x00] END_REQSTACK()
```

### Event 11

#### Metadata

| Field        | Value    |
|--------------|----------|
| Entrypoint   | 0x0035   |
| Data Size    | 13 bytes |
| Instructions | 3        |

```
      00 01 02 03 04 05 06 07  08 09 0A 0B 0C 0D 0E 0F
      -- -- -- -- -- -- -- --  -- -- -- -- -- -- -- --
0030:                92 01 F8  FF FF 7F 94 01 F8 FF FF       ...........
0040: 7F 00                                             ..              
```

#### Opcodes

```
  0: 0x0035 [0x92] EventEntity->Render.Flags3 ^= 0x01
  1: 0x003B [0x94] EventEntity->Render.Flags3 ^= 0x01
  2: 0x0041 [0x00] END_REQSTACK()
```

### Event 12

#### Metadata

| Field        | Value    |
|--------------|----------|
| Entrypoint   | 0x0042   |
| Data Size    | 13 bytes |
| Instructions | 3        |

```
      00 01 02 03 04 05 06 07  08 09 0A 0B 0C 0D 0E 0F
      -- -- -- -- -- -- -- --  -- -- -- -- -- -- -- --
0040:       92 01 F8 FF FF 7F  94 01 F8 FF FF 7F 00       ............. 
```

#### Opcodes

```
  0: 0x0042 [0x92] EventEntity->Render.Flags3 ^= 0x01
  1: 0x0048 [0x94] EventEntity->Render.Flags3 ^= 0x01
  2: 0x004E [0x00] END_REQSTACK()
```

### Event 213

#### Metadata

| Field        | Value    |
|--------------|----------|
| Entrypoint   | 0x004F   |
| Data Size    | 45 bytes |
| Instructions | 16       |

```
      00 01 02 03 04 05 06 07  08 09 0A 0B 0C 0D 0E 0F
      -- -- -- -- -- -- -- --  -- -- -- -- -- -- -- --
0040:                                               43                 C
0050: 00 43 01 20 01 42 03 01  10 00 80 1E F0 FF FF 7F  .C. .B..........
0060: 6F 70 1D 01 80 1C 02 80  6E EB 01 03 01 03 80 99  op......n.......
0070: EB 01 03 01 1D 04 80 1C  05 80 21 00              ..........!.    
```

#### Opcodes

```
  0: 0x004F [0x43] SEND_EVENT_UPDATE: Send pending tag to server (packet 0x005B)
  1: 0x0051 [0x43] SEND_EVENT_UPDATE: Check pending flag (skip if not pending)
  2: 0x0053 [0x20] SET_CLI_EVENT_UC_FLAG: Lock player control
  3: 0x0055 [0x42] SET_CLI_EVENT_CANCEL_DATA()
  4: 0x0056 [0x03] Work_Zone[1] = 1*
  5: 0x005B [0x1E] EventEntity looks at LocalPlayer and starts talking
  6: 0x0060 [0x6F] WAIT_FRAME_DELAY: Yield until WaitTime reaches zero
  7: 0x0061 [0x70] WAIT_ENTITY_RENDER_FLAG: Wait while EventEntity->Render.Flags3 bit 2 is set (cancel turn if not)
  8: 0x0062 [0x1D] PRINT_EVENT_MESSAGE(message_id=7711*)
    → "Oh, I rrremember you. Here, this is for you."
  9: 0x0065 [0x1C] WAIT(180* ticks)
 10: 0x0068 [0x6E] Mihli Aliapoh (ID: 16974315/0x010301EB) uses emote 25*
 11: 0x006F [0x99] Wait for Mihli Aliapoh (ID: 16974315/0x010301EB) animation to complete
 12: 0x0074 [0x1D] PRINT_EVENT_MESSAGE(message_id=7712*)
    → "I-I'm not thanking you for anything. Don't get the wrrrong idea. This is just to cover the costs of your journey."
 13: 0x0077 [0x1C] WAIT(300* ticks)
 14: 0x007A [0x21] END_EVENT
 15: 0x007B [0x00] END_REQSTACK()
```

### Event 65535.1

#### Metadata

| Field        | Value    |
|--------------|----------|
| Entrypoint   | 0x007C   |
| Data Size    | 13 bytes |
| Instructions | 3        |

```
      00 01 02 03 04 05 06 07  08 09 0A 0B 0C 0D 0E 0F
      -- -- -- -- -- -- -- --  -- -- -- -- -- -- -- --
0070:                                      6E F8 FF FF              n...
0080: 7F 06 80 99 F8 FF FF 7F  00                       .........       
```

#### Opcodes

```
  0: 0x007C [0x6E] EventEntity uses emote 43*
  1: 0x0083 [0x99] Wait for EventEntity animation to complete
  2: 0x0088 [0x00] END_REQSTACK()
```

### Event 267

#### Metadata

| Field        | Value    |
|--------------|----------|
| Entrypoint   | 0x0089   |
| Data Size    | 59 bytes |
| Instructions | 18       |

```
      00 01 02 03 04 05 06 07  08 09 0A 0B 0C 0D 0E 0F
      -- -- -- -- -- -- -- --  -- -- -- -- -- -- -- --
0080:                             20 01 1E F0 FF FF 7F            ......
0090: 6F 70 6E EB 01 03 01 07  80 99 EB 01 03 01 1D 08  opn.............
00A0: 80 23 99 EB 01 03 01 1C  09 80 6E EB 01 03 01 0A  .#........n.....
00B0: 80 99 EB 01 03 01 1D 0B  80 23 99 EB 01 03 01 1C  .........#......
00C0: 09 80 21 00                                       ..!.            
```

#### Opcodes

```
  0: 0x0089 [0x20] SET_CLI_EVENT_UC_FLAG: Lock player control
  1: 0x008B [0x1E] EventEntity looks at LocalPlayer and starts talking
  2: 0x0090 [0x6F] WAIT_FRAME_DELAY: Yield until WaitTime reaches zero
  3: 0x0091 [0x70] WAIT_ENTITY_RENDER_FLAG: Wait while EventEntity->Render.Flags3 bit 2 is set (cancel turn if not)
  4: 0x0092 [0x6E] Mihli Aliapoh (ID: 16974315/0x010301EB) uses emote 32*
  5: 0x0099 [0x99] Wait for Mihli Aliapoh (ID: 16974315/0x010301EB) animation to complete
  6: 0x009E [0x1D] PRINT_EVENT_MESSAGE(message_id=7713*)
    → "Leave me alone. I can't stand merrrcenaries."
  7: 0x00A1 [0x23] WAIT_FOR_DIALOG_INTERACTION
  8: 0x00A2 [0x99] Wait for Mihli Aliapoh (ID: 16974315/0x010301EB) animation to complete
  9: 0x00A7 [0x1C] WAIT(30* ticks)
 10: 0x00AA [0x6E] Mihli Aliapoh (ID: 16974315/0x010301EB) uses emote 16*
 11: 0x00B1 [0x99] Wait for Mihli Aliapoh (ID: 16974315/0x010301EB) animation to complete
 12: 0x00B6 [0x1D] PRINT_EVENT_MESSAGE(message_id=7714*)
    → "Just make sure you don't get in our way when we're rrripping up the battlefield."
 13: 0x00B9 [0x23] WAIT_FOR_DIALOG_INTERACTION
 14: 0x00BA [0x99] Wait for Mihli Aliapoh (ID: 16974315/0x010301EB) animation to complete
 15: 0x00BF [0x1C] WAIT(30* ticks)
 16: 0x00C2 [0x21] END_EVENT
 17: 0x00C3 [0x00] END_REQSTACK()
```

### Event 275

#### Metadata

| Field        | Value    |
|--------------|----------|
| Entrypoint   | 0x00C4   |
| Data Size    | 59 bytes |
| Instructions | 18       |

```
      00 01 02 03 04 05 06 07  08 09 0A 0B 0C 0D 0E 0F
      -- -- -- -- -- -- -- --  -- -- -- -- -- -- -- --
00C0:             20 01 1E F0  FF FF 7F 6F 70 6E EB 01       ......opn..
00D0: 03 01 0C 80 99 EB 01 03  01 1D 0D 80 23 99 EB 01  ............#...
00E0: 03 01 1C 09 80 6E EB 01  03 01 03 80 99 EB 01 03  .....n..........
00F0: 01 1D 0E 80 23 99 EB 01  03 01 1C 09 80 21 00     ....#........!. 
```

#### Opcodes

```
  0: 0x00C4 [0x20] SET_CLI_EVENT_UC_FLAG: Lock player control
  1: 0x00C6 [0x1E] EventEntity looks at LocalPlayer and starts talking
  2: 0x00CB [0x6F] WAIT_FRAME_DELAY: Yield until WaitTime reaches zero
  3: 0x00CC [0x70] WAIT_ENTITY_RENDER_FLAG: Wait while EventEntity->Render.Flags3 bit 2 is set (cancel turn if not)
  4: 0x00CD [0x6E] Mihli Aliapoh (ID: 16974315/0x010301EB) uses emote 5*
  5: 0x00D4 [0x99] Wait for Mihli Aliapoh (ID: 16974315/0x010301EB) animation to complete
  6: 0x00D9 [0x1D] PRINT_EVENT_MESSAGE(message_id=7715*)
    → "How am I going to get out of this...? The...the...Astral Candescence... What'll I tell the Empress...?"
  7: 0x00DC [0x23] WAIT_FOR_DIALOG_INTERACTION
  8: 0x00DD [0x99] Wait for Mihli Aliapoh (ID: 16974315/0x010301EB) animation to complete
  9: 0x00E2 [0x1C] WAIT(30* ticks)
 10: 0x00E5 [0x6E] Mihli Aliapoh (ID: 16974315/0x010301EB) uses emote 25*
 11: 0x00EC [0x99] Wait for Mihli Aliapoh (ID: 16974315/0x010301EB) animation to complete
 12: 0x00F1 [0x1D] PRINT_EVENT_MESSAGE(message_id=7716*)
    → "...What!? I don't need you merrrcenaries' help. I could take the Astral Candescence back with both hands tied behind my back!"
 13: 0x00F4 [0x23] WAIT_FOR_DIALOG_INTERACTION
 14: 0x00F5 [0x99] Wait for Mihli Aliapoh (ID: 16974315/0x010301EB) animation to complete
 15: 0x00FA [0x1C] WAIT(30* ticks)
 16: 0x00FD [0x21] END_EVENT
 17: 0x00FE [0x00] END_REQSTACK()
```

### Event 65535.2

#### Metadata

| Field        | Value    |
|--------------|----------|
| Entrypoint   | 0x00FF   |
| Data Size    | 37 bytes |
| Instructions | 5        |

```
      00 01 02 03 04 05 06 07  08 09 0A 0B 0C 0D 0E 0F
      -- -- -- -- -- -- -- --  -- -- -- -- -- -- -- --
00F0:                                               03                 .
0100: 00 00 07 7F 1A 49 01 66  01 00 F8 FF FF 7F F8 FF  .....I.f........
0110: FF 7F 73 68 61 30 53 F8  FF FF 7F F8 FF FF 7F 73  ..sha0S........s
0120: 68 61 30 00                                       ha0.            
```

#### Opcodes

```
  0: 0x00FF [0x03] ExtData[1]->WorkLocal[0] = Entity->Race
  1: 0x0104 [0x1A] CALL_SUBROUTINE(address=0x0149)
  2: 0x0107 [0x66] LOAD_EXT_SCHEDULER_MAIN: Load scheduler "sha0" with entities [EventEntity, EventEntity], work=ExtData[1]->WorkLocal[1]
  3: 0x0116 [0x53] WAIT_SCHEDULER_TASK: Wait for scheduler "sha0" with entities [EventEntity, EventEntity]
  4: 0x0123 [0x00] END_REQSTACK()
```

### Event 65535.3

#### Metadata

| Field        | Value     |
|--------------|-----------|
| Entrypoint   | 0x0124    |
| Data Size    | 185 bytes |
| Instructions | 13        |

```
      00 01 02 03 04 05 06 07  08 09 0A 0B 0C 0D 0E 0F
      -- -- -- -- -- -- -- --  -- -- -- -- -- -- -- --
0120:             03 00 00 07  7F 1A 49 01 66 01 00 F8      ......I.f...
0130: FF FF 7F F8 FF FF 7F 73  68 61 31 53 F8 FF FF 7F  .......sha1S....
0140: F8 FF FF 7F 73 68 61 31  00 03 01 00 00 00 02 01  ....sha1........
0150: 00 0C 80 05 5E 01 08 01  00 00 80 01 63 01 08 01  ....^.......c...
0160: 00 0F 80 14 01 00 10 80  07 01 00 11 80 1B 03 01  ................
0170: 00 00 00 02 01 00 0C 80  05 83 01 08 01 00 00 80  ................
0180: 01 88 01 08 01 00 0F 80  14 01 00 10 80 07 01 00  ................
0190: 12 80 1B 03 01 00 00 00  02 01 00 0C 80 05 A8 01  ................
01A0: 08 01 00 00 80 01 AD 01  08 01 00 0F 80 14 01 00  ................
01B0: 10 80 07 01 00 13 80 1B  03 01 00 00 00 02 01 00  ................
01C0: 0C 80 05 CD 01 08 01 00  00 80 01 D2 01 08 01 00  ................
01D0: 0F 80 14 01 00 10 80 07  01 00 14 80 1B           .............   
```

#### Opcodes

```
  0: 0x0124 [0x03] ExtData[1]->WorkLocal[0] = Entity->Race
  1: 0x0129 [0x1A] CALL_SUBROUTINE(address=0x0149)
  2: 0x012C [0x66] LOAD_EXT_SCHEDULER_MAIN: Load scheduler "sha1" with entities [EventEntity, EventEntity], work=ExtData[1]->WorkLocal[1]
  3: 0x013B [0x53] WAIT_SCHEDULER_TASK: Wait for scheduler "sha1" with entities [EventEntity, EventEntity]
  4: 0x0148 [0x00] END_REQSTACK()

SUBROUTINE_0149:
  5: 0x0149 [0x03] ExtData[1]->WorkLocal[1] = ExtData[1]->WorkLocal[0]
  6: 0x014E [0x02] IF !(ExtData[1]->WorkLocal[1] > 5*) GOTO 0x015E
  7: 0x0156 [0x08] ExtData[1]->WorkLocal[1] -= 1*
  8: 0x015B [0x01] GOTO 0x0163
  9: 0x015E [0x08] ExtData[1]->WorkLocal[1] -= 2*

SUBROUTINE_0163:
 10: 0x0163 [0x14] ExtData[1]->WorkLocal[1] *= 10*
 11: 0x0168 [0x07] ExtData[1]->WorkLocal[1] += 9*
 12: 0x016D [0x1B] RETURN
```

#### Data or dead code:

```
# Dead code (unreachable instructions):
     0x016E [0x03] ExtData[1]->WorkLocal[1] = ExtData[1]->WorkLocal[0]
     0x0173 [0x02] IF !(ExtData[1]->WorkLocal[1] > 5*) GOTO 0x0183
     0x017B [0x08] ExtData[1]->WorkLocal[1] -= 1*
     0x0180 [0x01] GOTO 0x0188
     0x0183 [0x08] ExtData[1]->WorkLocal[1] -= 2*
     0x0188 [0x14] ExtData[1]->WorkLocal[1] *= 10*
     0x018D [0x07] ExtData[1]->WorkLocal[1] += 70*
     0x0192 [0x1B] RETURN
     0x0193 [0x03] ExtData[1]->WorkLocal[1] = ExtData[1]->WorkLocal[0]
     0x0198 [0x02] IF !(ExtData[1]->WorkLocal[1] > 5*) GOTO 0x01A8
     0x01A0 [0x08] ExtData[1]->WorkLocal[1] -= 1*
     0x01A5 [0x01] GOTO 0x01AD
     0x01A8 [0x08] ExtData[1]->WorkLocal[1] -= 2*
     0x01AD [0x14] ExtData[1]->WorkLocal[1] *= 10*
     0x01B2 [0x07] ExtData[1]->WorkLocal[1] += 140*
     0x01B7 [0x1B] RETURN
     0x01B8 [0x03] ExtData[1]->WorkLocal[1] = ExtData[1]->WorkLocal[0]
     0x01BD [0x02] IF !(ExtData[1]->WorkLocal[1] > 5*) GOTO 0x01CD
     0x01C5 [0x08] ExtData[1]->WorkLocal[1] -= 1*
     0x01CA [0x01] GOTO 0x01D2
     0x01CD [0x08] ExtData[1]->WorkLocal[1] -= 2*
     0x01D2 [0x14] ExtData[1]->WorkLocal[1] *= 10*
     0x01D7 [0x07] ExtData[1]->WorkLocal[1] += 210*
     0x01DC [0x1B] RETURN
```

### Event 65535.4

#### Metadata

| Field        | Value    |
|--------------|----------|
| Entrypoint   | 0x01DD   |
| Data Size    | 10 bytes |
| Instructions | 2        |

```
      00 01 02 03 04 05 06 07  08 09 0A 0B 0C 0D 0E 0F
      -- -- -- -- -- -- -- --  -- -- -- -- -- -- -- --
01D0:                                         37 15 80               7..
01E0: 16 80 17 80 18 80 00                              .......         
```

#### Opcodes

```
  0: 0x01DD [0x37] UPDATE_EVENT_POSITION_AND_DIR: x=-22.668*, z=95.977*, y=-6.000*, direction=181.2°*
  1: 0x01E6 [0x00] END_REQSTACK()
```

### Event 65535.5

#### Metadata

| Field        | Value    |
|--------------|----------|
| Entrypoint   | 0x01E7   |
| Data Size    | 10 bytes |
| Instructions | 2        |

```
      00 01 02 03 04 05 06 07  08 09 0A 0B 0C 0D 0E 0F
      -- -- -- -- -- -- -- --  -- -- -- -- -- -- -- --
01E0:                      37  19 80 1A 80 1B 80 1C 80         7........
01F0: 00                                                .               
```

#### Opcodes

```
  0: 0x01E7 [0x37] UPDATE_EVENT_POSITION_AND_DIR: x=47.837*, z=107.037*, y=0.000*, direction=133.3°*
  1: 0x01F0 [0x00] END_REQSTACK()
```

### Event 286

#### Metadata

| Field        | Value    |
|--------------|----------|
| Entrypoint   | 0x01F1   |
| Data Size    | 66 bytes |
| Instructions | 19       |

```
      00 01 02 03 04 05 06 07  08 09 0A 0B 0C 0D 0E 0F
      -- -- -- -- -- -- -- --  -- -- -- -- -- -- -- --
01F0:    20 01 1E F0 FF FF 7F  6F 70 6E EB 01 03 01 1D    ......opn.....
0200: 80 99 EB 01 03 01 1D 1E  80 23 99 EB 01 03 01 1C  .........#......
0210: 09 80 6E EB 01 03 01 1F  80 99 EB 01 03 01 29 10  ..n...........).
0220: F0 FF FF 7F 03 1D 20 80  23 99 EB 01 03 01 1C 09  ...... .#.......
0230: 80 21 00                                          .!.             
```

#### Opcodes

```
  0: 0x01F1 [0x20] SET_CLI_EVENT_UC_FLAG: Lock player control
  1: 0x01F3 [0x1E] EventEntity looks at LocalPlayer and starts talking
  2: 0x01F8 [0x6F] WAIT_FRAME_DELAY: Yield until WaitTime reaches zero
  3: 0x01F9 [0x70] WAIT_ENTITY_RENDER_FLAG: Wait while EventEntity->Render.Flags3 bit 2 is set (cancel turn if not)
  4: 0x01FA [0x6E] Mihli Aliapoh (ID: 16974315/0x010301EB) uses emote 35*
  5: 0x0201 [0x99] Wait for Mihli Aliapoh (ID: 16974315/0x010301EB) animation to complete
  6: 0x0206 [0x1D] PRINT_EVENT_MESSAGE(message_id=7717*)
    → "Hmph, just because you think you know a thing or two about me now doesn't mean I like you."
  7: 0x0209 [0x23] WAIT_FOR_DIALOG_INTERACTION
  8: 0x020A [0x99] Wait for Mihli Aliapoh (ID: 16974315/0x010301EB) animation to complete
  9: 0x020F [0x1C] WAIT(30* ticks)
 10: 0x0212 [0x6E] Mihli Aliapoh (ID: 16974315/0x010301EB) uses emote 34*
 11: 0x0219 [0x99] Wait for Mihli Aliapoh (ID: 16974315/0x010301EB) animation to complete
 12: 0x021E [0x29] REQ_SET_WAIT(priority=0x10, entity_id=LocalPlayer, tag_num=0x03)
 13: 0x0225 [0x1D] PRINT_EVENT_MESSAGE(message_id=7718*)
    → "I am a generrral. You are a mercenary. Rrremember your station."
 14: 0x0228 [0x23] WAIT_FOR_DIALOG_INTERACTION
 15: 0x0229 [0x99] Wait for Mihli Aliapoh (ID: 16974315/0x010301EB) animation to complete
 16: 0x022E [0x1C] WAIT(30* ticks)
 17: 0x0231 [0x21] END_EVENT
 18: 0x0232 [0x00] END_REQSTACK()
```

### Event 289

#### Metadata

| Field        | Value    |
|--------------|----------|
| Entrypoint   | 0x0233   |
| Data Size    | 91 bytes |
| Instructions | 26       |

```
      00 01 02 03 04 05 06 07  08 09 0A 0B 0C 0D 0E 0F
      -- -- -- -- -- -- -- --  -- -- -- -- -- -- -- --
0230:          20 01 42 1E F0  FF FF 7F 6F 70 1D 21 80      .B.....op.!.
0240: 23 1D 22 80 23 6E EB 01  03 01 07 80 99 EB 01 03  #.".#n..........
0250: 01 1D 23 80 23 1D 24 80  23 99 F8 FF FF 7F 66 25  ..#.#.$.#.....f%
0260: 80 F8 FF FF 7F F8 FF FF  7F 74 6C 6B 30 1D 26 80  .........tlk0.&.
0270: 23 03 02 10 27 80 1D 28  80 23 66 25 80 F8 FF FF  #...'..(.#f%....
0280: 7F F8 FF FF 7F 74 6C 6B  31 1C 09 80 21 00        .....tlk1...!.  
```

#### Opcodes

```
  0: 0x0233 [0x20] SET_CLI_EVENT_UC_FLAG: Lock player control
  1: 0x0235 [0x42] SET_CLI_EVENT_CANCEL_DATA()
  2: 0x0236 [0x1E] EventEntity looks at LocalPlayer and starts talking
  3: 0x023B [0x6F] WAIT_FRAME_DELAY: Yield until WaitTime reaches zero
  4: 0x023C [0x70] WAIT_ENTITY_RENDER_FLAG: Wait while EventEntity->Render.Flags3 bit 2 is set (cancel turn if not)
  5: 0x023D [0x1D] PRINT_EVENT_MESSAGE(message_id=8167*)
    → "What do you want, mercenary? I've got no time to chatter with the likes of you."
  6: 0x0240 [0x23] WAIT_FOR_DIALOG_INTERACTION
  7: 0x0241 [0x1D] PRINT_EVENT_MESSAGE(message_id=8168*)
    → "Elder Nadeey sent you?"
  8: 0x0244 [0x23] WAIT_FOR_DIALOG_INTERACTION
  9: 0x0245 [0x6E] Mihli Aliapoh (ID: 16974315/0x010301EB) uses emote 32*
 10: 0x024C [0x99] Wait for Mihli Aliapoh (ID: 16974315/0x010301EB) animation to complete
 11: 0x0251 [0x1D] PRINT_EVENT_MESSAGE(message_id=8169*)
    → "..."
 12: 0x0254 [0x23] WAIT_FOR_DIALOG_INTERACTION
 13: 0x0255 [0x1D] PRINT_EVENT_MESSAGE(message_id=8170*)
    → "You're serrrious about having this chat, aren't you?"
 14: 0x0258 [0x23] WAIT_FOR_DIALOG_INTERACTION
 15: 0x0259 [0x99] Wait for EventEntity animation to complete
 16: 0x025E [0x66] LOAD_EXT_SCHEDULER_MAIN: Load scheduler "tlk0" with entities [EventEntity, EventEntity], work=59*
 17: 0x026D [0x1D] PRINT_EVENT_MESSAGE(message_id=8171*)
    → "Aydeewa Subterrane. Wait there until I finish my duties."
 18: 0x0270 [0x23] WAIT_FOR_DIALOG_INTERACTION
 19: 0x0271 [0x03] Work_Zone[2] = 2463*
 20: 0x0276 [0x1D] PRINT_EVENT_MESSAGE(message_id=8172*)
    → "Oh, and if you bring $0 with you, I might even think about talking to you!"
 21: 0x0279 [0x23] WAIT_FOR_DIALOG_INTERACTION
 22: 0x027A [0x66] LOAD_EXT_SCHEDULER_MAIN: Load scheduler "tlk1" with entities [EventEntity, EventEntity], work=59*
 23: 0x0289 [0x1C] WAIT(30* ticks)
 24: 0x028C [0x21] END_EVENT
 25: 0x028D [0x00] END_REQSTACK()
```
