# 16974372 - Falzuuk

## Common Data

| Field            | Value             |
|------------------|-------------------|
| Zone             | Al Zahbi (ID: 48) |
| Block Size       | 8672 bytes        |
| Total Events     | 3                 |
| References Count | 189               |

## List of Events

| Event ID              | Entrypoint   |   Size |   Instructions |
|-----------------------|--------------|--------|----------------|
| [65535](#event-65535) | 0x0000       |      1 |              1 |
| [216](#event-216)     | 0x0001       |   5112 |           1057 |
| [217](#event-217)     | 0x13F9       |   2773 |            730 |

## DAT References (imed_data)

|   Index | Hex Value   |   Dec Value |
|---------|-------------|-------------|
|       0 | 0x001E      |          30 |
|       1 | 0xFFFFFFFF  |  4294967295 |
|       2 | 0x0000      |           0 |
|       3 | 0x1F31      |        7985 |
|       4 | 0x1F35      |        7989 |
|       5 | 0x001F      |          31 |
|       6 | 0x0064      |         100 |
|       7 | 0x1F37      |        7991 |
|       8 | 0x1F38      |        7992 |
|       9 | 0x0004      |           4 |
|      10 | 0x0007      |           7 |
|      11 | 0x0001      |           1 |
|      12 | 0x1F3A      |        7994 |
|      13 | 0x0002      |           2 |
|      14 | 0x0003      |           3 |
|      15 | 0x1F36      |        7990 |
|      16 | 0x01F1      |         497 |
|      17 | 0x0104      |         260 |
|      18 | 0x1F3C      |        7996 |
|      19 | 0x1F3E      |        7998 |
|      20 | 0x000B      |          11 |
|      21 | 0x1056      |        4182 |
|      22 | 0x1055      |        4181 |
|      23 | 0x08B6      |        2230 |
|      24 | 0x08B7      |        2231 |
|      25 | 0x08B8      |        2232 |
|      26 | 0x08B9      |        2233 |
|      27 | 0x4A4D      |       19021 |
|      28 | 0x4A4E      |       19022 |
|      29 | 0x4A4F      |       19023 |
|      30 | 0x000A      |          10 |
|      31 | 0x4E20      |       20000 |
|      32 | 0x0CEB      |        3307 |
|      33 | 0x0CEC      |        3308 |
|      34 | 0x0CED      |        3309 |
|      35 | 0x0CEF      |        3311 |
|      36 | 0x1909      |        6409 |
|      37 | 0x2783      |       10115 |
|      38 | 0x1388      |        5000 |
|      39 | 0xC350      |       50000 |
|      40 | 0x07D0      |        2000 |
|      41 | 0x0005      |           5 |
|      42 | 0x0006      |           6 |
|      43 | 0x0008      |           8 |
|      44 | 0x0009      |           9 |
|      45 | 0x1F56      |        8022 |
|      46 | 0x1F40      |        8000 |
|      47 | 0x40000000  |  1073741824 |
|      48 | 0x0746      |        1862 |
|      49 | 0x0747      |        1863 |
|      50 | 0x0748      |        1864 |
|      51 | 0x03E8      |        1000 |
|      52 | 0x1F44      |        8004 |
|      53 | 0x4901      |       18689 |
|      54 | 0x4902      |       18690 |
|      55 | 0x4903      |       18691 |
|      56 | 0x1F53      |        8019 |
|      57 | 0x4904      |       18692 |
|      58 | 0x4905      |       18693 |
|      59 | 0x4906      |       18694 |
|      60 | 0x3DC2      |       15810 |
|      61 | 0x0FA0      |        4000 |
|      62 | 0x1F54      |        8020 |
|      63 | 0x3D52      |       15698 |
|      64 | 0x3CC8      |       15560 |
|      65 | 0x3F28      |       16168 |
|      66 | 0x490F      |       18703 |
|      67 | 0x4936      |       18742 |
|      68 | 0x453B      |       17723 |
|      69 | 0x3E80      |       16000 |
|      70 | 0x3D06      |       15622 |
|      71 | 0x3DAE      |       15790 |
|      72 | 0x3E6D      |       15981 |
|      73 | 0x5DC0      |       24000 |
|      74 | 0x3D07      |       15623 |
|      75 | 0x3E6E      |       15982 |
|      76 | 0x3E6F      |       15983 |
|      77 | 0x7D00      |       32000 |
|      78 | 0x454D      |       17741 |
|      79 | 0x49FF      |       18943 |
|      80 | 0x49A2      |       18850 |
|      81 | 0x491D      |       18717 |
|      82 | 0x9C40      |       40000 |
|      83 | 0x40DA      |       16602 |
|      84 | 0x47F9      |       18425 |
|      85 | 0x483B      |       18491 |
|      86 | 0x489C      |       18588 |
|      87 | 0x491E      |       18718 |
|      88 | 0x1F55      |        8021 |
|      89 | 0x3F8F      |       16271 |
|      90 | 0x3E28      |       15912 |
|      91 | 0x3F66      |       16230 |
|      92 | 0xDAC0      |       56000 |
|      93 | 0x1F3D      |        7997 |
|      94 | 0x1F3F      |        7999 |
|      95 | 0x1A29      |        6697 |
|      96 | 0x1A2A      |        6698 |
|      97 | 0x1A2B      |        6699 |
|      98 | 0x667B      |       26235 |
|      99 | 0x1667      |        5735 |
|     100 | 0x0014      |          20 |
|     101 | 0x000F      |          15 |
|     102 | 0x012C      |         300 |
|     103 | 0x1F57      |        8023 |
|     104 | 0x5423      |       21539 |
|     105 | 0x5457      |       21591 |
|     106 | 0x548F      |       21647 |
|     107 | 0x5490      |       21648 |
|     108 | 0x54E3      |       21731 |
|     109 | 0x551C      |       21788 |
|     110 | 0x5551      |       21841 |
|     111 | 0x5584      |       21892 |
|     112 | 0x55AF      |       21935 |
|     113 | 0x55E6      |       21990 |
|     114 | 0x55E8      |       21992 |
|     115 | 0x5696      |       22166 |
|     116 | 0x5697      |       22167 |
|     117 | 0x56B2      |       22194 |
|     118 | 0x1F59      |        8025 |
|     119 | 0x000C      |          12 |
|     120 | 0x000D      |          13 |
|     121 | 0x2624      |        9764 |
|     122 | 0x2625      |        9765 |
|     123 | 0x2626      |        9766 |
|     124 | 0x2627      |        9767 |
|     125 | 0x2628      |        9768 |
|     126 | 0x2629      |        9769 |
|     127 | 0x262A      |        9770 |
|     128 | 0x262B      |        9771 |
|     129 | 0x2728      |       10024 |
|     130 | 0x2729      |       10025 |
|     131 | 0x272A      |       10026 |
|     132 | 0x272B      |       10027 |
|     133 | 0x0063      |          99 |
|     134 | 0x270F      |        9999 |
|     135 | 0x1F58      |        8024 |
|     136 | 0x1F5A      |        8026 |
|     137 | 0x1F5C      |        8028 |
|     138 | 0x1F5D      |        8029 |
|     139 | 0x1F5E      |        8030 |
|     140 | 0x1F5F      |        8031 |
|     141 | 0x1F60      |        8032 |
|     142 | 0x1F61      |        8033 |
|     143 | 0x1F62      |        8034 |
|     144 | 0x1F63      |        8035 |
|     145 | 0x1F64      |        8036 |
|     146 | 0x1F5B      |        8027 |
|     147 | 0x1F65      |        8037 |
|     148 | 0x1F66      |        8038 |
|     149 | 0x1F67      |        8039 |
|     150 | 0x1F68      |        8040 |
|     151 | 0x1F69      |        8041 |
|     152 | 0x1F6A      |        8042 |
|     153 | 0x1F6B      |        8043 |
|     154 | 0x1F6C      |        8044 |
|     155 | 0x1F6D      |        8045 |
|     156 | 0x1F6E      |        8046 |
|     157 | 0x1F6F      |        8047 |
|     158 | 0x1F70      |        8048 |
|     159 | 0x1F71      |        8049 |
|     160 | 0x1F72      |        8050 |
|     161 | 0x1F73      |        8051 |
|     162 | 0x1F74      |        8052 |
|     163 | 0x1F75      |        8053 |
|     164 | 0x1F76      |        8054 |
|     165 | 0x1F77      |        8055 |
|     166 | 0x1F78      |        8056 |
|     167 | 0x1F79      |        8057 |
|     168 | 0x1F7A      |        8058 |
|     169 | 0x1F32      |        7986 |
|     170 | 0x0013      |          19 |
|     171 | 0x1F4C      |        8012 |
|     172 | 0x1F51      |        8017 |
|     173 | 0x1F47      |        8007 |
|     174 | 0x1F42      |        8002 |
|     175 | 0x1F41      |        8001 |
|     176 | 0x1F49      |        8009 |
|     177 | 0x1F52      |        8018 |
|     178 | 0x1F4A      |        8010 |
|     179 | 0x1F4B      |        8011 |
|     180 | 0x1F46      |        8006 |
|     181 | 0xBB80      |       48000 |
|     182 | 0x1F4D      |        8013 |
|     183 | 0x1F48      |        8008 |
|     184 | 0x1F4E      |        8014 |
|     185 | 0x1F50      |        8016 |
|     186 | 0x001B      |          27 |
|     187 | 0x1F4F      |        8015 |
|     188 | 0x0BB8      |        3000 |

## String References

- **7985**: I am %, officer of the Imperial Army.
- **7986**: Don't waste my time, adventurer.
- **7989**: What is your business? [I want to receive Sanction./I want to spend my credits./I want to spend my accolades./I have some questions.../Nothing, sorry to bother you.]
- **7990**: I will bestow upon you the Empire's Sanction. Good luck.
- **7991**: The Astral Candescence is now in Al Zahbi, so you will receive an experience bonus from battles. You can also select one of the following bonuses in exchange for a slight decrease in your Imperial Standing.
- **7992**: Choose a bonus for $8 [credit/credits]? [Not now./Regen./Refresh./Increased meal duration.]
- **7994**: You do not have enough Imperial Standing credits to receive the bonus.
- **7996**: You currently possess $0 [Imperial Standing credit/Imperial Standing credits]. Would you like to use them to purchase items?
- **7997**: You currently possess $0 [Imperial Standing accolade/Imperial Standing Accolades]. Would you like to use them to purchase items?
- **7998**: Which item do you wish to purchase? [Common items (All ranks)./1000-pt. items (Private 2nd Class)."000-pt. items (Private 1st Class)./4000-pt. items (Superior Private)./8000-pt. items (Lance Corporal)./16000-pt. items (Corporal)."4000-pt. items (Sergeant)."2000-pt. items (Sergeant Major)./40000-pt. items (Chief Sergeant)./48000-pt. items (Second Lieutenant)./56000-pt. items (First Lieutenant)./Cancel.]
- **7999**: Which item do you wish to purchase? [Common items (All ranks)."000-pt. items (First Lieutenant.)/Escutcheon materials (All ranks)./Cancel.]
- **8000**: There are currently no items available for that rank.
- **8001**: Your Imperial Standing is too low to purchase the $3.
- **8002**: Are you sure you want to purchase the $3?
- **8004**: Which item do you wish to purchase? [$3 ($20 credits)./$3 ($20 credits)./$3 ($20 credits)./Return.]
- **8006**: Your rank is too low to purchase the $8.
- **8007**: Your Imperial Standing is too low to purchase the $8.
- **8008**: Your Imperial Standing is too low to purchase the $8.
- **8009**: You cannot equip the $8. Do you still wish to proceed?
- **8010**: Your level is too low to equip the $8. Do you still wish to proceed?
- **8011**: You seem to be able to equip the $8. Do you wish to proceed?
- **8012**: Are you sure you want to purchase the $8?
- **8013**: Are you sure you want to purchase the $8?
- **8014**: I can sell you up to $! more $8. Are you sure you want to purchase them?
- **8015**: I cannot sell you any more $8.
- **8016**: Enter how many you would like to purchase ($" to $#), or 0 to cancel.
- **8017**: Proceed? [Yes, purchase item./Cancel purchase.]
- **8018**: Proceed? [Yes, even though I can't equip it./Cancel purchase.]
- **8019**: Which item do you wish to purchase? [$9./$10./$11./Back.]
- **8020**: Which item do you wish to purchase? [$9./$10./$11./$12./Back.]
- **8021**: Which item do you wish to purchase? [$9./$10./$11./$12./$13./Back.]
- **8022**: Which item do you wish to purchase? [$9 ($20 credits)./$10 ($21 credits)./$11 ($22 credits)./$12 ($23 credits)./$13 ($24 credits)./$14 ($25 credits)./$15 ($26 credits)./$16 ($27 credits)./$17 ($28 credits)./Next page./Previous page./Back.]
- **8023**: Which item do you wish to purchase? [$9 ($20 accolades)./$10 ($21 accolades)./$11 ($22 accolades)./$12 ($23 accolades)./$13 ($24 accolades)./Back.]
- **8024**: Which item do you wish to purchase? [$9 ($21 accolades)./$10 ($22 accolades)./$11 ($23 accolades)./$12 ($24 accolades)./$13 ($25 accolades)./$14 ($26 accolades)./$15 ($27 accolades)./$16 ($28 accolades)./$17 ($29 accolades)./$18 ($30 accolades)./$19 ($31 accolades)./$20 ($ accolades)./Back.]
- **8025**: Which item do you wish to purchase? [$9./$10./$11./$12./$13./$14./$15./$16./$17./$18./$19./$20./$21./$22./Back.]
- **8026**: What do you wish to know about? [Nothing./Sanction./Imperial Standing./Besieged.]
- **8027**: What about Besieged? [Never mind./Besieged basics./"Serpent Generals."/Astral Candescence in Al Zahbi./Astral Candescence with beastmen./Empire's current state of defense.]
- **8028**: "Sanction" is a magic spell that we use to observe and assess mercenaries' actions.
- **8029**: Defeating enemies while you have Sanction cast on you will raise your Imperial Standing. Also, the stronger the monsters you fight, the higher your Imperial Standing will become.
- **8030**: When fighting in a beastman stronghold that has taken the Astral Candescence, your Imperial Standing will rise by a significant amount as thanks for your participation in the recovery effort.
- **8031**: Sanction is also necessary in order to receive crystals from the enemies you defeat.
- **8032**: But you must take caution. Stepping too far out of the Empire's boundaries will cause Sanction to wear off.
- **8033**: You can raise your Imperial Standing by defeating enemies while you have Sanction cast on you.
- **8034**: Saving a captured prisoner in a beastman stronghold and submitting archaic mirrors to Imperial guards will also result in an increased Imperial Standing.
- **8035**: You can view your Imperial Standing by selecting "Besieged" under "Region Info."
- **8036**: You can also speak to me at any time to exchange your Imperial Standing credits for items.
- **8037**: "Besieged" occurs when the beastman armies breach the walls of Al Zahbi.
- **8038**: Everyone in town who is capable of wielding a weapon is called to action to defend Al Zahbi alongside the Imperial Army.
- **8039**: The beastmen's main purpose is to enter the Hall of Binding and wrest the "Astral Candescence" from the Empire's control.
- **8040**: You need not know what the Astral Candescence is.
- **8041**: All you must know is that it is your duty to protect the five Serpent Generals who hold the keys to the Hall of Binding, and to drive the beastman hordes from the Imperial capital.
- **8042**: The Empire's safety and its future rest on your capable shoulders! Rest assured that you will be rewarded for your efforts.
- **8043**: The Empire's defense is entrusted to five generals.
- **8044**: Each possesses a name corresponding to the symbols of the Empire--the serpents of flame, water, stone, gales, and sky.
- **8045**: Furthermore, the mirrors used to open the Hall of Binding are divided among their possession. Thus, the generals' fates determine the tide of battle.
- **8046**: If all five generals should fall in battle, the Hall of Binding will open, and the beastmen will be able to seize the Astral Candescence.
- **8047**: It is your responsibility to prevent such a disaster from happening. We are depending on you!
- **8048**: When the Astral Candescence is safely resting on its plinth in the Hall of Binding, it emanates waves that bestow special bonuses to Sanction.
- **8049**: The first bonus is a slight boost to the amount of experience points received from battles. You will receive this effect simply by having Sanction cast on you.
- **8050**: There are several other bonus effects, but you must sacrifice some of your Imperial Standing credits in order to receive them.
- **8051**: Keep in mind that the bonuses become more powerful with the number of times the Imperial capital is successfully defended.
- **8052**: Sanction's strength will reset if the beastmen succeed in invading the Hall of Binding, though.
- **8053**: The waves emanating from the Astral Candescence in Al Zahbi bring a multitude of blessings to all of us. You must not let it fall into the hands of the beastmen!
- **8054**: If the beastmen manage to take the Astral Candescence, its recovery will become our top priority. Find the coveted item on a plinth in one of the beastman strongholds and seize it back for the Empire!
- **8055**: We aren't quite sure what the beastmen are scheming to do with such power, but we do know that the Astral Candescence's waves can increase the beastmen's strength.
- **8056**: As if that weren't enough, we have recent reports that the beastmen have set "archaic mirrors" in their strongholds to magnify the power of the waves.
- **8057**: If you should come across any archaic mirrors, take them immediately and trade them to an Imperial guard.
- **8058**: Al Zahbi has been successively victorious in $4 [battle/battles] to defend the capital, bringing the Imperial defense to a value of $5. The Imperial capital has seen $6 [victory/victories] overall, and the Astral Candescence has been seized by the beastmen a total of $7 [time/times].

## Events

### Event 65535

#### Metadata

| Field        | Value   |
|--------------|---------|
| Entrypoint   | 0x0000  |
| Data Size    | 1 bytes |
| Instructions | 1       |

```
      00 01 02 03 04 05 06 07  08 09 0A 0B 0C 0D 0E 0F
      -- -- -- -- -- -- -- --  -- -- -- -- -- -- -- --
0000: 00                                                .               
```

#### Opcodes

```
  0: 0x0000 [0x00] END_REQSTACK()
```

### Event 216

#### Metadata

| Field        | Value      |
|--------------|------------|
| Entrypoint   | 0x0001     |
| Data Size    | 5112 bytes |
| Instructions | 962        |

```
      00 01 02 03 04 05 06 07  08 09 0A 0B 0C 0D 0E 0F
      -- -- -- -- -- -- -- --  -- -- -- -- -- -- -- --
0000:    03 06 00 02 10 03 07  00 05 10 41 00 80 00 80   ..........A....
0010: 03 10 05 00 03 08 00 01  80 03 01 10 02 80 1E F0  ................
0020: FF FF 7F 1D 03 80 23 24  04 80 02 80 02 80 25 02  ......#$......%.
0030: 00 10 02 80 00 FB 00 3E  03 10 05 80 D3 00 03 00  .......>........
0040: 17 06 80 1D 07 80 23 24  08 80 02 80 02 80 25 02  ......#$......%.
0050: 00 10 02 80 00 64 00 42  40 09 80 0A 80 01 10 02  .....d.B@.......
0060: 80 01 D0 00 02 00 10 0B  80 00 88 00 42 02 02 10  ............B...
0070: 06 80 03 7C 00 1D 0C 80  23 01 85 00 40 09 80 0A  ...|....#...@...
0080: 80 01 10 0B 80 01 D0 00  02 00 10 0D 80 00 AC 00  ................
0090: 42 02 02 10 06 80 03 A0  00 1D 0C 80 23 01 A9 00  B...........#...
00A0: 40 09 80 0A 80 01 10 0D  80 01 D0 00 02 00 10 0E  @...............
00B0: 80 00 D0 00 42 02 02 10  06 80 03 C4 00 1D 0C 80  ....B...........
00C0: 23 01 CD 00 40 09 80 0A  80 01 10 0E 80 01 D0 00  #...@...........
00D0: 01 EA 00 42 1D 0F 80 23  40 02 80 0E 80 01 10 02  ...B...#@.......
00E0: 80 40 09 80 0A 80 01 10  02 80 73 10 80 F8 FF FF  .@........s.....
00F0: 7F F0 FF FF 7F 1C 11 80  01 F7 13 02 00 10 0B 80  ................
0100: 00 18 0D 03 02 10 06 00  1D 12 80 23 40 02 80 0E  ...........#@...
0110: 80 01 10 0B 80 03 02 00  02 80 24 13 80 02 80 02  ..........$.....
0120: 80 25 02 00 10 02 80 00  4E 06 40 09 80 14 80 01  .%......N.@.....
0130: 10 02 80 06 01 00 02 02  00 02 80 00 9B 01 03 01  ................
0140: 17 15 80 03 02 17 16 80  03 03 17 17 80 03 04 17  ................
0150: 18 80 03 05 17 19 80 03  06 17 1A 80 03 07 17 1B  ................
0160: 80 03 08 17 1C 80 03 09  17 1D 80 03 0C 17 0A 80  ................
0170: 03 0D 17 1E 80 03 0E 17  06 80 03 0F 17 06 80 03  ................
0180: 10 17 06 80 03 11 17 06  80 03 12 17 1F 80 03 13  ................
0190: 17 1F 80 03 14 17 1F 80  01 00 02 02 02 00 0B 80  ................
01A0: 00 00 02 03 01 17 20 80  03 02 17 21 80 03 03 17  ...... ....!....
01B0: 22 80 03 04 17 02 80 03  05 17 23 80 03 06 17 24  ".........#....$
01C0: 80 03 07 17 02 80 03 08  17 02 80 03 09 17 25 80  ..............%.
01D0: 03 0C 17 26 80 03 0D 17  26 80 03 0E 17 26 80 03  ...&....&....&..
01E0: 0F 17 26 80 03 10 17 26  80 03 11 17 27 80 03 12  ..&....&....'...
01F0: 17 26 80 03 13 17 26 80  03 14 17 28 80 01 00 02  .&....&....(....
0200: 02 05 00 02 80 00 15 02  02 02 00 0B 80 00 15 02  ................
0210: 03 09 17 02 80 03 04 00  01 80 02 01 17 02 80 01  ................
0220: 29 02 3D 04 00 02 80 0B  80 02 02 17 02 80 01 38  ).=............8
0230: 02 3D 04 00 0B 80 0B 80  02 03 17 02 80 01 47 02  .=............G.
0240: 3D 04 00 0D 80 0B 80 02  04 17 02 80 01 56 02 3D  =............V.=
0250: 04 00 0E 80 0B 80 02 05  17 02 80 01 65 02 3D 04  ............e.=.
0260: 00 09 80 0B 80 02 06 17  02 80 01 74 02 3D 04 00  ...........t.=..
0270: 29 80 0B 80 02 07 17 02  80 01 83 02 3D 04 00 2A  )...........=..*
0280: 80 0B 80 02 08 17 02 80  01 92 02 3D 04 00 0A 80  ...........=....
0290: 0B 80 02 09 17 02 80 01  A1 02 3D 04 00 2B 80 0B  ..........=..+..
02A0: 80 02 02 00 02 80 00 B3  02 3D 04 00 2C 80 0B 80  .........=..,...
02B0: 01 CC 02 02 02 00 0B 80  00 C5 02 3D 04 00 1E 80  ...........=....
02C0: 0B 80 01 CC 02 3D 04 00  1E 80 0B 80 3D 04 00 14  .....=......=...
02D0: 80 0B 80 02 02 00 02 80  00 51 04 24 2D 80 02 80  .........Q.$-...
02E0: 04 00 25 02 00 10 02 80  00 06 03 03 00 17 01 17  ..%.............
02F0: 03 00 00 0A 80 1A 08 14  02 01 00 02 80 01 03 03  ................
0300: 01 33 01 01 4E 04 02 00  10 0B 80 00 29 03 03 00  .3..N.......)...
0310: 17 02 17 03 00 00 1E 80  1A 08 14 02 01 00 02 80  ................
0320: 01 26 03 01 33 01 01 4E  04 02 00 10 0D 80 00 4C  .&..3..N.......L
0330: 03 03 00 17 03 17 03 00  00 06 80 1A 08 14 02 01  ................
0340: 00 02 80 01 49 03 01 33  01 01 4E 04 02 00 10 0E  ....I..3..N.....
0350: 80 00 6F 03 03 00 17 04  17 03 00 00 06 80 1A 08  ..o.............
0360: 14 02 01 00 02 80 01 6C  03 01 33 01 01 4E 04 02  .......l..3..N..
0370: 00 10 09 80 00 92 03 03  00 17 05 17 03 00 00 06  ................
0380: 80 1A 08 14 02 01 00 02  80 01 8F 03 01 33 01 01  .............3..
0390: 4E 04 02 00 10 29 80 00  B5 03 03 00 17 06 17 03  N....)..........
03A0: 00 00 06 80 1A 08 14 02  01 00 02 80 01 B2 03 01  ................
03B0: 33 01 01 4E 04 02 00 10  2A 80 00 D8 03 03 00 17  3..N....*.......
03C0: 07 17 03 00 00 1F 80 1A  08 14 02 01 00 02 80 01  ................
03D0: D5 03 01 33 01 01 4E 04  02 00 10 0A 80 00 FB 03  ...3..N.........
03E0: 03 00 17 08 17 03 00 00  1F 80 1A 08 14 02 01 00  ................
03F0: 02 80 01 F8 03 01 33 01  01 4E 04 02 00 10 2B 80  ......3..N....+.
0400: 00 1E 04 03 00 17 09 17  03 00 00 1F 80 1A 08 14  ................
0410: 02 01 00 02 80 01 1B 04  01 33 01 01 4E 04 02 00  .........3..N...
0420: 10 2C 80 00 2F 04 0B 02  00 01 33 01 01 4E 04 02  .,../.....3..N..
0430: 00 10 1E 80 00 40 04 0C  02 00 01 33 01 01 4E 04  .....@.....3..N.
0440: 02 00 10 14 80 00 4E 04  01 15 01 01 4E 04 01 4B  ......N.....N..K
0450: 06 24 2D 80 02 80 04 00  25 02 00 10 02 80 00 8B  .$-.....%.......
0460: 04 03 00 17 01 17 03 00  00 0C 17 03 03 00 02 00  ................
0470: 14 03 00 2C 80 07 00 10  03 00 1A 08 14 02 01 00  ...,............
0480: 02 80 01 88 04 01 33 01  01 4B 06 02 00 10 0B 80  ......3..K......
0490: 00 BD 04 03 00 17 02 17  03 00 00 0D 17 03 03 00  ................
04A0: 02 00 14 03 00 2C 80 07  00 10 03 00 1A 08 14 02  .....,..........
04B0: 01 00 02 80 01 BA 04 01  33 01 01 4B 06 02 00 10  ........3..K....
04C0: 0D 80 00 EF 04 03 00 17  03 17 03 00 00 0E 17 03  ................
04D0: 03 00 02 00 14 03 00 2C  80 07 00 10 03 00 1A 08  .......,........
04E0: 14 02 01 00 02 80 01 EC  04 01 33 01 01 4B 06 02  ..........3..K..
04F0: 00 10 0E 80 00 21 05 03  00 17 04 17 03 00 00 0F  .....!..........
0500: 17 03 03 00 02 00 14 03  00 2C 80 07 00 10 03 00  .........,......
0510: 1A 08 14 02 01 00 02 80  01 1E 05 01 33 01 01 4B  ............3..K
0520: 06 02 00 10 09 80 00 53  05 03 00 17 05 17 03 00  .......S........
0530: 00 10 17 03 03 00 02 00  14 03 00 2C 80 07 00 10  ...........,....
0540: 03 00 1A 08 14 02 01 00  02 80 01 50 05 01 33 01  ...........P..3.
0550: 01 4B 06 02 00 10 29 80  00 85 05 03 00 17 06 17  .K....).........
0560: 03 00 00 11 17 03 03 00  02 00 14 03 00 2C 80 07  .............,..
0570: 00 10 03 00 1A 08 14 02  01 00 02 80 01 82 05 01  ................
0580: 33 01 01 4B 06 02 00 10  2A 80 00 B7 05 03 00 17  3..K....*.......
0590: 07 17 03 00 00 12 17 03  03 00 02 00 14 03 00 2C  ...............,
05A0: 80 07 00 10 03 00 1A 08  14 02 01 00 02 80 01 B4  ................
05B0: 05 01 33 01 01 4B 06 02  00 10 0A 80 00 E9 05 03  ..3..K..........
05C0: 00 17 08 17 03 00 00 13  17 03 03 00 02 00 14 03  ................
05D0: 00 2C 80 07 00 10 03 00  1A 08 14 02 01 00 02 80  .,..............
05E0: 01 E6 05 01 33 01 01 4B  06 02 00 10 2B 80 00 1B  ....3..K....+...
05F0: 06 03 00 17 09 17 03 00  00 14 17 03 03 00 02 00  ................
0600: 14 03 00 2C 80 07 00 10  03 00 1A 08 14 02 01 00  ...,............
0610: 02 80 01 18 06 01 33 01  01 4B 06 02 00 10 2C 80  ......3..K....,.
0620: 00 2C 06 0B 02 00 01 33  01 01 4B 06 02 00 10 1E  .,.....3..K.....
0630: 80 00 3D 06 0C 02 00 01  33 01 01 4B 06 02 00 10  ..=.....3..K....
0640: 14 80 00 4B 06 01 15 01  01 4B 06 01 15 0D 02 00  ...K.....K......
0650: 10 0B 80 00 06 07 41 02  80 00 80 03 10 00 00 02  ......A.........
0660: 00 00 0A 80 00 73 06 1D  2E 80 23 03 01 10 2F 80  .....s....#.../.
0670: 01 03 07 40 09 80 0A 80  01 10 0B 80 06 01 00 03  ...@............
0680: 01 17 30 80 03 02 17 31  80 03 03 17 32 80 03 0C  ..0....1....2...
0690: 17 33 80 24 34 80 02 80  00 00 25 02 00 10 02 80  .3.$4.....%.....
06A0: 00 B9 06 03 00 17 01 17  1A 56 14 02 01 00 02 80  .........V......
06B0: 01 B6 06 01 7C 06 01 03  07 02 00 10 0B 80 00 D7  ....|...........
06C0: 06 03 00 17 02 17 1A 56  14 02 01 00 02 80 01 D4  .......V........
06D0: 06 01 7C 06 01 03 07 02  00 10 0D 80 00 F5 06 03  ..|.............
06E0: 00 17 03 17 1A 56 14 02  01 00 02 80 01 F2 06 01  .....V..........
06F0: 7C 06 01 03 07 02 00 10  0E 80 00 03 07 01 15 01  |...............
0700: 01 03 07 01 15 0D 02 00  10 0D 80 00 A1 07 40 09  ..............@.
0710: 80 0A 80 01 10 0D 80 06  01 00 03 01 17 35 80 03  .............5..
0720: 02 17 36 80 03 03 17 37  80 03 0C 17 28 80 24 38  ..6....7....(.$8
0730: 80 02 80 02 80 25 02 00  10 02 80 00 54 07 03 00  .....%......T...
0740: 17 01 17 1A 98 14 02 01  00 02 80 01 51 07 01 17  ............Q...
0750: 07 01 9E 07 02 00 10 0B  80 00 72 07 03 00 17 02  ..........r.....
0760: 17 1A 98 14 02 01 00 02  80 01 6F 07 01 17 07 01  ..........o.....
0770: 9E 07 02 00 10 0D 80 00  90 07 03 00 17 03 17 1A  ................
0780: 98 14 02 01 00 02 80 01  8D 07 01 17 07 01 9E 07  ................
0790: 02 00 10 0E 80 00 9E 07  01 15 01 01 9E 07 01 15  ................
07A0: 0D 02 00 10 0E 80 00 5F  08 40 09 80 0A 80 01 10  ......._.@......
07B0: 0E 80 06 01 00 03 01 17  39 80 03 02 17 3A 80 03  ........9....:..
07C0: 03 17 3B 80 03 04 17 3C  80 03 0C 17 3D 80 24 3E  ..;....<....=.$>
07D0: 80 02 80 02 80 25 02 00  10 02 80 00 F4 07 03 00  .....%..........
07E0: 17 01 17 1A 7B 15 02 01  00 02 80 01 F1 07 01 B2  ....{...........
07F0: 07 01 5C 08 02 00 10 0B  80 00 12 08 03 00 17 02  ..\.............
0800: 17 1A 7B 15 02 01 00 02  80 01 0F 08 01 B2 07 01  ..{.............
0810: 5C 08 02 00 10 0D 80 00  30 08 03 00 17 03 17 1A  \.......0.......
0820: 7B 15 02 01 00 02 80 01  2D 08 01 B2 07 01 5C 08  {.......-.....\.
0830: 02 00 10 0E 80 00 4E 08  03 00 17 04 17 1A 7B 15  ......N.......{.
0840: 02 01 00 02 80 01 4B 08  01 B2 07 01 5C 08 02 00  ......K.....\...
0850: 10 09 80 00 5C 08 01 15  01 01 5C 08 01 15 0D 02  ....\.....\.....
0860: 00 10 09 80 00 FA 08 40  09 80 0A 80 01 10 09 80  .......@........
0870: 06 01 00 03 01 17 3F 80  03 02 17 40 80 03 03 17  ......?....@....
0880: 41 80 03 0C 17 2E 80 24  38 80 02 80 02 80 25 02  A......$8.....%.
0890: 00 10 02 80 00 AD 08 03  00 17 01 17 1A 95 16 02  ................
08A0: 01 00 02 80 01 AA 08 01  70 08 01 F7 08 02 00 10  ........p.......
08B0: 0B 80 00 CB 08 03 00 17  02 17 1A 95 16 02 01 00  ................
08C0: 02 80 01 C8 08 01 70 08  01 F7 08 02 00 10 0D 80  ......p.........
08D0: 00 E9 08 03 00 17 03 17  1A 95 16 02 01 00 02 80  ................
08E0: 01 E6 08 01 70 08 01 F7  08 02 00 10 0E 80 00 F7  ....p...........
08F0: 08 01 15 01 01 F7 08 01  15 0D 02 00 10 29 80 00  .............)..
0900: 95 09 40 09 80 0A 80 01  10 29 80 06 01 00 03 01  ..@......)......
0910: 17 42 80 03 02 17 43 80  03 03 17 44 80 03 0C 17  .B....C....D....
0920: 45 80 24 38 80 02 80 02  80 25 02 00 10 02 80 00  E.$8.....%......
0930: 48 09 03 00 17 01 17 1A  78 17 02 01 00 02 80 01  H.......x.......
0940: 45 09 01 0B 09 01 92 09  02 00 10 0B 80 00 66 09  E.............f.
0950: 03 00 17 02 17 1A 78 17  02 01 00 02 80 01 63 09  ......x.......c.
0960: 01 0B 09 01 92 09 02 00  10 0D 80 00 84 09 03 00  ................
0970: 17 03 17 1A 78 17 02 01  00 02 80 01 81 09 01 0B  ....x...........
0980: 09 01 92 09 02 00 10 0E  80 00 92 09 01 15 01 01  ................
0990: 92 09 01 15 0D 02 00 10  2A 80 00 30 0A 40 09 80  ........*..0.@..
09A0: 0A 80 01 10 2A 80 06 01  00 03 01 17 46 80 03 02  ....*.......F...
09B0: 17 47 80 03 03 17 48 80  03 0C 17 49 80 24 38 80  .G....H....I.$8.
09C0: 02 80 02 80 25 02 00 10  02 80 00 E3 09 03 00 17  ....%...........
09D0: 01 17 1A 5B 18 02 01 00  02 80 01 E0 09 01 A6 09  ...[............
09E0: 01 2D 0A 02 00 10 0B 80  00 01 0A 03 00 17 02 17  .-..............
09F0: 1A 5B 18 02 01 00 02 80  01 FE 09 01 A6 09 01 2D  .[.............-
0A00: 0A 02 00 10 0D 80 00 1F  0A 03 00 17 03 17 1A 5B  ...............[
0A10: 18 02 01 00 02 80 01 1C  0A 01 A6 09 01 2D 0A 02  .............-..
0A20: 00 10 0E 80 00 2D 0A 01  15 01 01 2D 0A 01 15 0D  .....-.....-....
0A30: 02 00 10 0A 80 00 CB 0A  40 09 80 0A 80 01 10 0A  ........@.......
0A40: 80 06 01 00 03 01 17 4A  80 03 02 17 4B 80 03 03  .......J....K...
0A50: 17 4C 80 03 0C 17 4D 80  24 38 80 02 80 02 80 25  .L....M.$8.....%
0A60: 02 00 10 02 80 00 7E 0A  03 00 17 01 17 1A 3E 19  ......~.......>.
0A70: 02 01 00 02 80 01 7B 0A  01 41 0A 01 C8 0A 02 00  ......{..A......
0A80: 10 0B 80 00 9C 0A 03 00  17 02 17 1A 3E 19 02 01  ............>...
0A90: 00 02 80 01 99 0A 01 41  0A 01 C8 0A 02 00 10 0D  .......A........
0AA0: 80 00 BA 0A 03 00 17 03  17 1A 3E 19 02 01 00 02  ..........>.....
0AB0: 80 01 B7 0A 01 41 0A 01  C8 0A 02 00 10 0E 80 00  .....A..........
0AC0: C8 0A 01 15 01 01 C8 0A  01 15 0D 02 00 10 2B 80  ..............+.
0AD0: 00 89 0B 40 09 80 0A 80  01 10 2B 80 06 01 00 03  ...@......+.....
0AE0: 01 17 4E 80 03 02 17 4F  80 03 03 17 50 80 03 04  ..N....O....P...
0AF0: 17 51 80 03 0C 17 52 80  24 3E 80 02 80 02 80 25  .Q....R.$>.....%
0B00: 02 00 10 02 80 00 1E 0B  03 00 17 01 17 1A 21 1A  ..............!.
0B10: 02 01 00 02 80 01 1B 0B  01 DC 0A 01 86 0B 02 00  ................
0B20: 10 0B 80 00 3C 0B 03 00  17 02 17 1A 21 1A 02 01  ....<.......!...
0B30: 00 02 80 01 39 0B 01 DC  0A 01 86 0B 02 00 10 0D  ....9...........
0B40: 80 00 5A 0B 03 00 17 03  17 1A 21 1A 02 01 00 02  ..Z.......!.....
0B50: 80 01 57 0B 01 DC 0A 01  86 0B 02 00 10 0E 80 00  ..W.............
0B60: 78 0B 03 00 17 04 17 1A  21 1A 02 01 00 02 80 01  x.......!.......
0B70: 75 0B 01 DC 0A 01 86 0B  02 00 10 09 80 00 86 0B  u...............
0B80: 01 15 01 01 86 0B 01 15  0D 02 00 10 2C 80 00 6A  ............,..j
0B90: 0C 40 09 80 0A 80 01 10  2C 80 06 01 00 03 01 17  .@......,.......
0BA0: 53 80 03 02 17 54 80 03  03 17 55 80 03 04 17 56  S....T....U....V
0BB0: 80 03 05 17 57 80 03 0C  17 52 80 24 58 80 02 80  ....W....R.$X...
0BC0: 02 80 25 02 00 10 02 80  00 E1 0B 03 00 17 01 17  ..%.............
0BD0: 1A 04 1B 02 01 00 02 80  01 DE 0B 01 9A 0B 01 67  ...............g
0BE0: 0C 02 00 10 0B 80 00 FF  0B 03 00 17 02 17 1A 04  ................
0BF0: 1B 02 01 00 02 80 01 FC  0B 01 9A 0B 01 67 0C 02  .............g..
0C00: 00 10 0D 80 00 1D 0C 03  00 17 03 17 1A 04 1B 02  ................
0C10: 01 00 02 80 01 1A 0C 01  9A 0B 01 67 0C 02 00 10  ...........g....
0C20: 0E 80 00 3B 0C 03 00 17  04 17 1A 04 1B 02 01 00  ...;............
0C30: 02 80 01 38 0C 01 9A 0B  01 67 0C 02 00 10 09 80  ...8.....g......
0C40: 00 59 0C 03 00 17 05 17  1A 04 1B 02 01 00 02 80  .Y..............
0C50: 01 56 0C 01 9A 0B 01 67  0C 02 00 10 29 80 00 67  .V.....g....)..g
0C60: 0C 01 15 01 01 67 0C 01  15 0D 02 00 10 1E 80 00  .....g..........
0C70: 05 0D 40 09 80 0A 80 01  10 1E 80 06 01 00 03 01  ..@.............
0C80: 17 59 80 03 02 17 5A 80  03 03 17 5B 80 03 0C 17  .Y....Z....[....
0C90: 5C 80 24 38 80 02 80 02  80 25 02 00 10 02 80 00  \.$8.....%......
0CA0: B8 0C 03 00 17 01 17 1A  E7 1B 02 01 00 02 80 01  ................
0CB0: B5 0C 01 7B 0C 01 02 0D  02 00 10 0B 80 00 D6 0C  ...{............
0CC0: 03 00 17 02 17 1A E7 1B  02 01 00 02 80 01 D3 0C  ................
0CD0: 01 7B 0C 01 02 0D 02 00  10 0D 80 00 F4 0C 03 00  .{..............
0CE0: 17 03 17 1A E7 1B 02 01  00 02 80 01 F1 0C 01 7B  ...............{
0CF0: 0C 01 02 0D 02 00 10 0E  80 00 02 0D 01 15 01 01  ................
0D00: 02 0D 01 15 0D 02 00 10  14 80 00 15 0D 03 01 10  ................
0D10: 2F 80 01 15 0D 01 F7 13  02 00 10 0D 80 00 D1 12  /...............
0D20: 03 02 10 07 00 1D 5D 80  23 40 02 80 0E 80 01 10  ......].#@......
0D30: 0D 80 24 5E 80 02 80 02  80 25 02 00 10 02 80 00  ..$^.....%......
0D40: 6B 0E 40 09 80 0A 80 01  10 02 80 03 02 10 07 00  k.@.............
0D50: 06 01 00 03 01 17 5F 80  03 02 17 60 80 03 03 17  ......_....`....
0D60: 61 80 03 04 17 62 80 03  05 17 63 80 03 0C 17 64  a....b....c....d
0D70: 80 03 0D 17 1E 80 03 0E  17 65 80 03 0F 17 06 80  .........e......
0D80: 03 10 17 66 80 24 67 80  02 80 02 80 25 02 00 10  ...f.$g.....%...
0D90: 02 80 00 B0 0D 03 00 17  01 17 03 00 00 0C 17 1A  ................
0DA0: CA 1C 02 01 00 02 80 01  AD 0D 01 4B 0D 01 68 0E  ...........K..h.
0DB0: 02 00 10 0B 80 00 D3 0D  03 00 17 02 17 03 00 00  ................
0DC0: 0D 17 1A CA 1C 02 01 00  02 80 01 D0 0D 01 4B 0D  ..............K.
0DD0: 01 68 0E 02 00 10 0D 80  00 F6 0D 03 00 17 03 17  .h..............
0DE0: 03 00 00 0E 17 1A CA 1C  02 01 00 02 80 01 F3 0D  ................
0DF0: 01 4B 0D 01 68 0E 02 00  10 0E 80 00 19 0E 03 00  .K..h...........
0E00: 17 04 17 03 00 00 0F 17  1A CA 1C 02 01 00 02 80  ................
0E10: 01 16 0E 01 4B 0D 01 68  0E 02 00 10 09 80 00 65  ....K..h.......e
0E20: 0E 02 08 00 02 80 03 3B  0E 40 2B 80 14 80 01 10  .......;.@+.....
0E30: 0B 80 43 00 43 01 03 08  00 09 10 03 00 17 05 17  ..C.C...........
0E40: 03 00 00 10 17 03 09 00  08 00 03 1A 17 02 80 03  ................
0E50: 1B 17 08 00 1A 18 1D 02  01 00 02 80 01 62 0E 01  .............b..
0E60: 4B 0D 01 68 0E 01 32 0D  01 CE 12 02 00 10 0B 80  K..h..2.........
0E70: 00 7C 10 40 09 80 0A 80  01 10 0B 80 06 01 00 03  .|.@............
0E80: 02 10 07 00 03 01 17 68  80 03 02 17 69 80 03 03  .......h....i...
0E90: 17 6A 80 03 04 17 6B 80  03 05 17 6C 80 03 06 17  .j....k....l....
0EA0: 6D 80 03 07 17 6E 80 03  08 17 6F 80 03 09 17 70  m....n....o....p
0EB0: 80 03 0A 17 71 80 03 0B  17 72 80 03 0C 17 73 80  ....q....r....s.
0EC0: 03 0D 17 74 80 03 0E 17  75 80 24 76 80 02 80 02  ...t....u.$v....
0ED0: 80 25 02 00 10 02 80 00  F0 0E 03 00 17 01 17 1A  .%..............
0EE0: EB 1D 02 01 00 02 80 01  ED 0E 01 7C 0E 01 79 10  ...........|..y.
0EF0: 02 00 10 0B 80 00 0E 0F  03 00 17 02 17 1A EB 1D  ................
0F00: 02 01 00 02 80 01 0B 0F  01 7C 0E 01 79 10 02 00  .........|..y...
0F10: 10 0D 80 00 2C 0F 03 00  17 03 17 1A EB 1D 02 01  ....,...........
0F20: 00 02 80 01 29 0F 01 7C  0E 01 79 10 02 00 10 0E  ....)..|..y.....
0F30: 80 00 4A 0F 03 00 17 04  17 1A EB 1D 02 01 00 02  ..J.............
0F40: 80 01 47 0F 01 7C 0E 01  79 10 02 00 10 09 80 00  ..G..|..y.......
0F50: 68 0F 03 00 17 05 17 1A  EB 1D 02 01 00 02 80 01  h...............
0F60: 65 0F 01 7C 0E 01 79 10  02 00 10 29 80 00 86 0F  e..|..y....)....
0F70: 03 00 17 06 17 1A EB 1D  02 01 00 02 80 01 83 0F  ................
0F80: 01 7C 0E 01 79 10 02 00  10 2A 80 00 A4 0F 03 00  .|..y....*......
0F90: 17 07 17 1A EB 1D 02 01  00 02 80 01 A1 0F 01 7C  ...............|
0FA0: 0E 01 79 10 02 00 10 0A  80 00 C2 0F 03 00 17 08  ..y.............
0FB0: 17 1A EB 1D 02 01 00 02  80 01 BF 0F 01 7C 0E 01  .............|..
0FC0: 79 10 02 00 10 2B 80 00  E0 0F 03 00 17 09 17 1A  y....+..........
0FD0: EB 1D 02 01 00 02 80 01  DD 0F 01 7C 0E 01 79 10  ...........|..y.
0FE0: 02 00 10 2C 80 00 FE 0F  03 00 17 0A 17 1A EB 1D  ...,............
0FF0: 02 01 00 02 80 01 FB 0F  01 7C 0E 01 79 10 02 00  .........|..y...
1000: 10 1E 80 00 1C 10 03 00  17 0B 17 1A EB 1D 02 01  ................
1010: 00 02 80 01 19 10 01 7C  0E 01 79 10 02 00 10 14  .......|..y.....
1020: 80 00 3A 10 03 00 17 0C  17 1A EB 1D 02 01 00 02  ..:.............
1030: 80 01 37 10 01 7C 0E 01  79 10 02 00 10 77 80 00  ..7..|..y....w..
1040: 58 10 03 00 17 0D 17 1A  EB 1D 02 01 00 02 80 01  X...............
1050: 55 10 01 7C 0E 01 79 10  02 00 10 78 80 00 76 10  U..|..y....x..v.
1060: 03 00 17 0E 17 1A EB 1D  02 01 00 02 80 01 73 10  ..............s.
1070: 01 7C 0E 01 79 10 01 32  0D 01 CE 12 02 00 10 0D  .|..y..2........
1080: 80 00 C9 12 40 09 80 0A  80 01 10 0D 80 06 01 00  ....@...........
1090: 03 01 17 79 80 03 02 17  7A 80 03 03 17 7B 80 03  ...y....z....{..
10A0: 04 17 7C 80 03 05 17 7D  80 03 06 17 7E 80 03 07  ..|....}....~...
10B0: 17 7F 80 03 08 17 80 80  03 09 17 81 80 03 0A 17  ................
10C0: 82 80 03 0B 17 83 80 03  0C 17 84 80 03 0D 17 64  ...............d
10D0: 80 03 0E 17 64 80 03 0F  17 64 80 03 10 17 64 80  ....d....d....d.
10E0: 03 11 17 64 80 03 12 17  64 80 03 13 17 64 80 03  ...d....d....d..
10F0: 14 17 64 80 03 15 17 00  80 03 16 17 00 80 03 17  ..d.............
1100: 17 00 80 03 18 17 00 80  03 1A 17 02 80 03 1B 17  ................
1110: 85 80 03 09 00 86 80 24  87 80 02 80 02 80 25 02  .......$......%.
1120: 00 10 02 80 00 42 11 03  00 17 01 17 03 00 00 0D  .....B..........
1130: 17 1A 18 1D 02 01 00 02  80 01 3F 11 01 8D 10 01  ..........?.....
1140: C6 12 02 00 10 0B 80 00  65 11 03 00 17 02 17 03  ........e.......
1150: 00 00 0E 17 1A 18 1D 02  01 00 02 80 01 62 11 01  .............b..
1160: 8D 10 01 C6 12 02 00 10  0D 80 00 88 11 03 00 17  ................
1170: 03 17 03 00 00 0F 17 1A  18 1D 02 01 00 02 80 01  ................
1180: 85 11 01 8D 10 01 C6 12  02 00 10 0E 80 00 AB 11  ................
1190: 03 00 17 04 17 03 00 00  10 17 1A 18 1D 02 01 00  ................
11A0: 02 80 01 A8 11 01 8D 10  01 C6 12 02 00 10 09 80  ................
11B0: 00 CE 11 03 00 17 05 17  03 00 00 11 17 1A 18 1D  ................
11C0: 02 01 00 02 80 01 CB 11  01 8D 10 01 C6 12 02 00  ................
11D0: 10 29 80 00 F1 11 03 00  17 06 17 03 00 00 12 17  .)..............
11E0: 1A 18 1D 02 01 00 02 80  01 EE 11 01 8D 10 01 C6  ................
11F0: 12 02 00 10 2A 80 00 14  12 03 00 17 07 17 03 00  ....*...........
1200: 00 13 17 1A 18 1D 02 01  00 02 80 01 11 12 01 8D  ................
1210: 10 01 C6 12 02 00 10 0A  80 00 37 12 03 00 17 08  ..........7.....
1220: 17 03 00 00 14 17 1A 18  1D 02 01 00 02 80 01 34  ...............4
1230: 12 01 8D 10 01 C6 12 02  00 10 2B 80 00 5A 12 03  ..........+..Z..
1240: 00 17 09 17 03 00 00 15  17 1A 18 1D 02 01 00 02  ................
1250: 80 01 57 12 01 8D 10 01  C6 12 02 00 10 2C 80 00  ..W..........,..
1260: 7D 12 03 00 17 0A 17 03  00 00 16 17 1A 18 1D 02  }...............
1270: 01 00 02 80 01 7A 12 01  8D 10 01 C6 12 02 00 10  .....z..........
1280: 1E 80 00 A0 12 03 00 17  0B 17 03 00 00 17 17 1A  ................
1290: 18 1D 02 01 00 02 80 01  9D 12 01 8D 10 01 C6 12  ................
12A0: 02 00 10 14 80 00 C3 12  03 00 17 0C 17 03 00 00  ................
12B0: 18 17 1A 18 1D 02 01 00  02 80 01 C0 12 01 8D 10  ................
12C0: 01 C6 12 01 32 0D 01 CE  12 03 01 10 2F 80 01 F7  ....2......./...
12D0: 13 02 00 10 0E 80 00 E7  13 24 88 80 02 80 02 80  .........$......
12E0: 25 02 00 10 02 80 00 EC  12 01 DF 13 02 00 10 0B  %...............
12F0: 80 00 0E 13 1D 89 80 23  1D 8A 80 23 1D 8B 80 23  .......#...#...#
1300: 1D 8C 80 23 1D 8D 80 23  01 D9 12 01 DF 13 02 00  ...#...#........
1310: 10 0D 80 00 2C 13 1D 8E  80 23 1D 8F 80 23 1D 90  ....,....#...#..
1320: 80 23 1D 91 80 23 01 D9  12 01 DF 13 02 00 10 0E  .#...#..........
1330: 80 00 DF 13 24 92 80 02  80 02 80 25 02 00 10 02  ....$......%....
1340: 80 00 4A 13 01 D9 12 01  D9 13 02 00 10 0B 80 00  ..J.............
1350: 6D 13 1D 93 80 23 1D 94  80 23 1D 95 80 23 1D 96  m....#...#...#..
1360: 80 23 1D 97 80 23 1D 98  80 23 01 D9 13 02 00 10  .#...#...#......
1370: 0D 80 00 8C 13 1D 99 80  23 1D 9A 80 23 1D 9B 80  ........#...#...
1380: 23 1D 9C 80 23 1D 9D 80  23 01 D9 13 02 00 10 0E  #...#...#.......
1390: 80 00 AF 13 1D 9E 80 23  1D 9F 80 23 1D A0 80 23  .......#...#...#
13A0: 1D A1 80 23 1D A2 80 23  1D A3 80 23 01 D9 13 02  ...#...#...#....
13B0: 00 10 09 80 00 CA 13 1D  A4 80 23 1D A5 80 23 1D  ..........#...#.
13C0: A6 80 23 1D A7 80 23 01  D9 13 02 00 10 29 80 00  ..#...#......)..
13D0: D9 13 1D A8 80 23 01 D9  13 01 34 13 01 DF 13 03  .....#....4.....
13E0: 01 10 2F 80 01 F7 13 02  00 10 09 80 00 F7 13 03  ../.............
13F0: 01 10 2F 80 01 F7 13 21  00                       ../....!.       
```

#### Opcodes

```
  0: 0x0001 [0x03] ExtData[1]->WorkLocal[6] = Work_Zone[2]
  1: 0x0006 [0x03] ExtData[1]->WorkLocal[7] = Work_Zone[5]
  2: 0x000B [0x41] ExtData[1]->WorkLocal[5] = Work_Zone[3] (bits 30*-30*)
  3: 0x0014 [0x03] ExtData[1]->WorkLocal[8] = 4294967295*
  4: 0x0019 [0x03] Work_Zone[1] = 0*
  5: 0x001E [0x1E] EventEntity looks at LocalPlayer and starts talking
  6: 0x0023 [0x1D] PRINT_EVENT_MESSAGE(message_id=7985*)
    → "I am %, officer of the Imperial Army."
  7: 0x0026 [0x23] WAIT_FOR_DIALOG_INTERACTION
  8: 0x0027 [0x24] CREATE_DIALOG(message_id=7989*, default_option=0*, option_flags=0*)
    → "What is your business? [I want to receive Sanction./I want to spend my credits./I want to spend my accolades./I have some questions.../Nothing, sorry to bother you.]"
  9: 0x002E [0x25] WAIT_DIALOG_SELECT()
 10: 0x002F [0x02] IF !(Work_Zone[0] == 0*) GOTO 0x00FB
 11: 0x0037 [0x3E] IF !(Work_Zone[3] bit 31*) GOTO 0x00D3
 12: 0x003E [0x03] Work_Zone_1700[0] = 100*
 13: 0x0043 [0x1D] PRINT_EVENT_MESSAGE(message_id=7991*)
    → "The Astral Candescence is now in Al Zahbi, so you will receive an experience bonus from battles. You can also select one of the following bonuses in exchange for a slight decrease in your Imperial Standing."
 14: 0x0046 [0x23] WAIT_FOR_DIALOG_INTERACTION
 15: 0x0047 [0x24] CREATE_DIALOG(message_id=7992*, default_option=0*, option_flags=0*)
    → "Choose a bonus for $8 [credit/credits]? [Not now./Regen./Refresh./Increased meal duration.]"
 16: 0x004E [0x25] WAIT_DIALOG_SELECT()
 17: 0x004F [0x02] IF !(Work_Zone[0] == 0*) GOTO 0x0064
 18: 0x0057 [0x42] SET_CLI_EVENT_CANCEL_DATA()
 19: 0x0058 [0x40] SET_BIT_WORK_RANGE(start_bit=4*, end_bit=7*, target=Work_Zone[1], source=0*)
 20: 0x0061 [0x01] GOTO 0x00D0
 21: 0x0064 [0x02] IF !(Work_Zone[0] == 1*) GOTO 0x0088
 22: 0x006C [0x42] SET_CLI_EVENT_CANCEL_DATA()
 23: 0x006D [0x02] IF !(Work_Zone[2] >= 100*) GOTO 0x007C
 24: 0x0075 [0x1D] PRINT_EVENT_MESSAGE(message_id=7994*)
    → "You do not have enough Imperial Standing credits to receive the bonus."
 25: 0x0078 [0x23] WAIT_FOR_DIALOG_INTERACTION
 26: 0x0079 [0x01] GOTO 0x0085
 27: 0x007C [0x40] SET_BIT_WORK_RANGE(start_bit=4*, end_bit=7*, target=Work_Zone[1], source=1*)

SUBROUTINE_0085:
 28: 0x0085 [0x01] GOTO 0x00D0
 29: 0x0088 [0x02] IF !(Work_Zone[0] == 2*) GOTO 0x00AC
 30: 0x0090 [0x42] SET_CLI_EVENT_CANCEL_DATA()
 31: 0x0091 [0x02] IF !(Work_Zone[2] >= 100*) GOTO 0x00A0
 32: 0x0099 [0x1D] PRINT_EVENT_MESSAGE(message_id=7994*)
    → "You do not have enough Imperial Standing credits to receive the bonus."
 33: 0x009C [0x23] WAIT_FOR_DIALOG_INTERACTION
 34: 0x009D [0x01] GOTO 0x00A9
 35: 0x00A0 [0x40] SET_BIT_WORK_RANGE(start_bit=4*, end_bit=7*, target=Work_Zone[1], source=2*)

SUBROUTINE_00A9:
 36: 0x00A9 [0x01] GOTO 0x00D0
 37: 0x00AC [0x02] IF !(Work_Zone[0] == 3*) GOTO 0x00D0
 38: 0x00B4 [0x42] SET_CLI_EVENT_CANCEL_DATA()
 39: 0x00B5 [0x02] IF !(Work_Zone[2] >= 100*) GOTO 0x00C4
 40: 0x00BD [0x1D] PRINT_EVENT_MESSAGE(message_id=7994*)
    → "You do not have enough Imperial Standing credits to receive the bonus."
 41: 0x00C0 [0x23] WAIT_FOR_DIALOG_INTERACTION
 42: 0x00C1 [0x01] GOTO 0x00CD
 43: 0x00C4 [0x40] SET_BIT_WORK_RANGE(start_bit=4*, end_bit=7*, target=Work_Zone[1], source=3*)

SUBROUTINE_00CD:
 44: 0x00CD [0x01] GOTO 0x00D0

SUBROUTINE_00D0:
 45: 0x00D0 [0x01] GOTO 0x00EA
 46: 0x00D3 [0x42] SET_CLI_EVENT_CANCEL_DATA()
 47: 0x00D4 [0x1D] PRINT_EVENT_MESSAGE(message_id=7990*)
    → "I will bestow upon you the Empire's Sanction. Good luck."
 48: 0x00D7 [0x23] WAIT_FOR_DIALOG_INTERACTION
 49: 0x00D8 [0x40] SET_BIT_WORK_RANGE(start_bit=0*, end_bit=3*, target=Work_Zone[1], source=0*)
 50: 0x00E1 [0x40] SET_BIT_WORK_RANGE(start_bit=4*, end_bit=7*, target=Work_Zone[1], source=0*)

SUBROUTINE_00EA:
 51: 0x00EA [0x73] EventEntity casts magic 497* on LocalPlayer
 52: 0x00F5 [0x1C] WAIT(260* ticks)
 53: 0x00F8 [0x01] GOTO 0x13F7
 54: 0x00FB [0x02] IF !(Work_Zone[0] == 1*) GOTO 0x0D18
 55: 0x0103 [0x03] Work_Zone[2] = ExtData[1]->WorkLocal[6]
 56: 0x0108 [0x1D] PRINT_EVENT_MESSAGE(message_id=7996*)
    → "You currently possess $0 [Imperial Standing credit/Imperial Standing credits]. Would you like to use them to purchase items?"
 57: 0x010B [0x23] WAIT_FOR_DIALOG_INTERACTION
 58: 0x010C [0x40] SET_BIT_WORK_RANGE(start_bit=0*, end_bit=3*, target=Work_Zone[1], source=1*)

SUBROUTINE_0115:
 59: 0x0115 [0x03] ExtData[1]->WorkLocal[2] = 0*
 60: 0x011A [0x24] CREATE_DIALOG(message_id=7998*, default_option=0*, option_flags=0*)
    → "Which item do you wish to purchase? [Common items (All ranks)./1000-pt. items (Private 2nd Class)."000-pt. items (Private 1st Class)./4000-pt. items (Superior Private)./8000-pt. items (Lance Corporal)./16000-pt. items (Corporal)."4000-pt. items (Sergeant)."2000-pt. items (Sergeant Major)./40000-pt. items (Chief Sergeant)./48000-pt. items (Second Lieutenant)./56000-pt. items (First Lieutenant)./Cancel.]"
 61: 0x0121 [0x25] WAIT_DIALOG_SELECT()
 62: 0x0122 [0x02] IF !(Work_Zone[0] == 0*) GOTO 0x064E
 63: 0x012A [0x40] SET_BIT_WORK_RANGE(start_bit=4*, end_bit=11*, target=Work_Zone[1], source=0*)

SUBROUTINE_0133:
 64: 0x0133 [0x06] ExtData[1]->WorkLocal[1] = 0
 65: 0x0136 [0x02] IF !(ExtData[1]->WorkLocal[2] == 0*) GOTO 0x019B
 66: 0x013E [0x03] Work_Zone_1700[1] = 4182*
 67: 0x0143 [0x03] Work_Zone_1700[2] = 4181*
 68: 0x0148 [0x03] Work_Zone_1700[3] = 2230*
 69: 0x014D [0x03] Work_Zone_1700[4] = 2231*
 70: 0x0152 [0x03] Work_Zone_1700[5] = 2232*
 71: 0x0157 [0x03] Work_Zone_1700[6] = 2233*
 72: 0x015C [0x03] Work_Zone_1700[7] = 19021*
 73: 0x0161 [0x03] Work_Zone_1700[8] = 19022*
 74: 0x0166 [0x03] Work_Zone_1700[9] = 19023*
 75: 0x016B [0x03] Work_Zone_1700[12] = 7*
 76: 0x0170 [0x03] Work_Zone_1700[13] = 10*
 77: 0x0175 [0x03] Work_Zone_1700[14] = 100*
 78: 0x017A [0x03] Work_Zone_1700[15] = 100*
 79: 0x017F [0x03] Work_Zone_1700[16] = 100*
 80: 0x0184 [0x03] Work_Zone_1700[17] = 100*
 81: 0x0189 [0x03] Work_Zone_1700[18] = 20000*
 82: 0x018E [0x03] Work_Zone_1700[19] = 20000*
 83: 0x0193 [0x03] Work_Zone_1700[20] = 20000*
 84: 0x0198 [0x01] GOTO 0x0200
 85: 0x019B [0x02] IF !(ExtData[1]->WorkLocal[2] == 1*) GOTO 0x0200
 86: 0x01A3 [0x03] Work_Zone_1700[1] = 3307*
 87: 0x01A8 [0x03] Work_Zone_1700[2] = 3308*
 88: 0x01AD [0x03] Work_Zone_1700[3] = 3309*
 89: 0x01B2 [0x03] Work_Zone_1700[4] = 0*
 90: 0x01B7 [0x03] Work_Zone_1700[5] = 3311*
 91: 0x01BC [0x03] Work_Zone_1700[6] = 6409*
 92: 0x01C1 [0x03] Work_Zone_1700[7] = 0*
 93: 0x01C6 [0x03] Work_Zone_1700[8] = 0*
 94: 0x01CB [0x03] Work_Zone_1700[9] = 10115*
 95: 0x01D0 [0x03] Work_Zone_1700[12] = 5000*
 96: 0x01D5 [0x03] Work_Zone_1700[13] = 5000*
 97: 0x01DA [0x03] Work_Zone_1700[14] = 5000*
 98: 0x01DF [0x03] Work_Zone_1700[15] = 5000*
 99: 0x01E4 [0x03] Work_Zone_1700[16] = 5000*
100: 0x01E9 [0x03] Work_Zone_1700[17] = 50000*
101: 0x01EE [0x03] Work_Zone_1700[18] = 5000*
102: 0x01F3 [0x03] Work_Zone_1700[19] = 5000*
103: 0x01F8 [0x03] Work_Zone_1700[20] = 2000*
104: 0x01FD [0x01] GOTO 0x0200

SUBROUTINE_0200:
105: 0x0200 [0x02] IF !(ExtData[1]->WorkLocal[5] == 0*) GOTO 0x0215
106: 0x0208 [0x02] IF !(ExtData[1]->WorkLocal[2] == 1*) GOTO 0x0215
107: 0x0210 [0x03] Work_Zone_1700[9] = 0*
108: 0x0215 [0x03] ExtData[1]->WorkLocal[4] = 4294967295*
109: 0x021A [0x02] IF !(Work_Zone_1700[1] == 0*) GOTO 0x0229
110: 0x0222 [0x3D] CLEAR_BIT_FLAG_CONDITIONAL(target_work_offset=ExtData[1]->WorkLocal[4], bit_index_work_offset=0*, condition_work_offset=1*)
111: 0x0229 [0x02] IF !(Work_Zone_1700[2] == 0*) GOTO 0x0238
112: 0x0231 [0x3D] CLEAR_BIT_FLAG_CONDITIONAL(target_work_offset=ExtData[1]->WorkLocal[4], bit_index_work_offset=1*, condition_work_offset=1*)
113: 0x0238 [0x02] IF !(Work_Zone_1700[3] == 0*) GOTO 0x0247
114: 0x0240 [0x3D] CLEAR_BIT_FLAG_CONDITIONAL(target_work_offset=ExtData[1]->WorkLocal[4], bit_index_work_offset=2*, condition_work_offset=1*)
115: 0x0247 [0x02] IF !(Work_Zone_1700[4] == 0*) GOTO 0x0256
116: 0x024F [0x3D] CLEAR_BIT_FLAG_CONDITIONAL(target_work_offset=ExtData[1]->WorkLocal[4], bit_index_work_offset=3*, condition_work_offset=1*)
117: 0x0256 [0x02] IF !(Work_Zone_1700[5] == 0*) GOTO 0x0265
118: 0x025E [0x3D] CLEAR_BIT_FLAG_CONDITIONAL(target_work_offset=ExtData[1]->WorkLocal[4], bit_index_work_offset=4*, condition_work_offset=1*)
119: 0x0265 [0x02] IF !(Work_Zone_1700[6] == 0*) GOTO 0x0274
120: 0x026D [0x3D] CLEAR_BIT_FLAG_CONDITIONAL(target_work_offset=ExtData[1]->WorkLocal[4], bit_index_work_offset=5*, condition_work_offset=1*)
121: 0x0274 [0x02] IF !(Work_Zone_1700[7] == 0*) GOTO 0x0283
122: 0x027C [0x3D] CLEAR_BIT_FLAG_CONDITIONAL(target_work_offset=ExtData[1]->WorkLocal[4], bit_index_work_offset=6*, condition_work_offset=1*)
123: 0x0283 [0x02] IF !(Work_Zone_1700[8] == 0*) GOTO 0x0292
124: 0x028B [0x3D] CLEAR_BIT_FLAG_CONDITIONAL(target_work_offset=ExtData[1]->WorkLocal[4], bit_index_work_offset=7*, condition_work_offset=1*)
125: 0x0292 [0x02] IF !(Work_Zone_1700[9] == 0*) GOTO 0x02A1
126: 0x029A [0x3D] CLEAR_BIT_FLAG_CONDITIONAL(target_work_offset=ExtData[1]->WorkLocal[4], bit_index_work_offset=8*, condition_work_offset=1*)
127: 0x02A1 [0x02] IF !(ExtData[1]->WorkLocal[2] == 0*) GOTO 0x02B3
128: 0x02A9 [0x3D] CLEAR_BIT_FLAG_CONDITIONAL(target_work_offset=ExtData[1]->WorkLocal[4], bit_index_work_offset=9*, condition_work_offset=1*)
129: 0x02B0 [0x01] GOTO 0x02CC
130: 0x02B3 [0x02] IF !(ExtData[1]->WorkLocal[2] == 1*) GOTO 0x02C5
131: 0x02BB [0x3D] CLEAR_BIT_FLAG_CONDITIONAL(target_work_offset=ExtData[1]->WorkLocal[4], bit_index_work_offset=10*, condition_work_offset=1*)
132: 0x02C2 [0x01] GOTO 0x02CC
133: 0x02C5 [0x3D] CLEAR_BIT_FLAG_CONDITIONAL(target_work_offset=ExtData[1]->WorkLocal[4], bit_index_work_offset=10*, condition_work_offset=1*)

SUBROUTINE_02CC:
134: 0x02CC [0x3D] CLEAR_BIT_FLAG_CONDITIONAL(target_work_offset=ExtData[1]->WorkLocal[4], bit_index_work_offset=11*, condition_work_offset=1*)
135: 0x02D3 [0x02] IF !(ExtData[1]->WorkLocal[2] == 0*) GOTO 0x0451
136: 0x02DB [0x24] CREATE_DIALOG(message_id=8022*, default_option=0*, option_flags=ExtData[1]->WorkLocal[4])
    → "Which item do you wish to purchase? [$9 ($20 credits)./$10 ($21 credits)./$11 ($22 credits)./$12 ($23 credits)./$13 ($24 credits)./$14 ($25 credits)./$15 ($26 credits)./$16 ($27 credits)./$17 ($28 credits)./Next page./Previous page./Back.]"
137: 0x02E2 [0x25] WAIT_DIALOG_SELECT()
138: 0x02E3 [0x02] IF !(Work_Zone[0] == 0*) GOTO 0x0306
139: 0x02EB [0x03] Work_Zone_1700[0] = Work_Zone_1700[1]
140: 0x02F0 [0x03] ExtData[1]->WorkLocal[0] = 7*
141: 0x02F5 [0x1A] CALL_SUBROUTINE(address=0x1408)
142: 0x02F8 [0x02] IF !(ExtData[1]->WorkLocal[1] == 0*) GOTO 0x0303
143: 0x0300 [0x01] GOTO 0x0133
144: 0x0303 [0x01] GOTO 0x044E
145: 0x0306 [0x02] IF !(Work_Zone[0] == 1*) GOTO 0x0329
146: 0x030E [0x03] Work_Zone_1700[0] = Work_Zone_1700[2]
147: 0x0313 [0x03] ExtData[1]->WorkLocal[0] = 10*
148: 0x0318 [0x1A] CALL_SUBROUTINE(address=0x1408)
149: 0x031B [0x02] IF !(ExtData[1]->WorkLocal[1] == 0*) GOTO 0x0326
150: 0x0323 [0x01] GOTO 0x0133
151: 0x0326 [0x01] GOTO 0x044E
152: 0x0329 [0x02] IF !(Work_Zone[0] == 2*) GOTO 0x034C
153: 0x0331 [0x03] Work_Zone_1700[0] = Work_Zone_1700[3]
154: 0x0336 [0x03] ExtData[1]->WorkLocal[0] = 100*
155: 0x033B [0x1A] CALL_SUBROUTINE(address=0x1408)
156: 0x033E [0x02] IF !(ExtData[1]->WorkLocal[1] == 0*) GOTO 0x0349
157: 0x0346 [0x01] GOTO 0x0133
158: 0x0349 [0x01] GOTO 0x044E
159: 0x034C [0x02] IF !(Work_Zone[0] == 3*) GOTO 0x036F
160: 0x0354 [0x03] Work_Zone_1700[0] = Work_Zone_1700[4]
161: 0x0359 [0x03] ExtData[1]->WorkLocal[0] = 100*
162: 0x035E [0x1A] CALL_SUBROUTINE(address=0x1408)
163: 0x0361 [0x02] IF !(ExtData[1]->WorkLocal[1] == 0*) GOTO 0x036C
164: 0x0369 [0x01] GOTO 0x0133
165: 0x036C [0x01] GOTO 0x044E
166: 0x036F [0x02] IF !(Work_Zone[0] == 4*) GOTO 0x0392
167: 0x0377 [0x03] Work_Zone_1700[0] = Work_Zone_1700[5]
168: 0x037C [0x03] ExtData[1]->WorkLocal[0] = 100*
169: 0x0381 [0x1A] CALL_SUBROUTINE(address=0x1408)
170: 0x0384 [0x02] IF !(ExtData[1]->WorkLocal[1] == 0*) GOTO 0x038F
171: 0x038C [0x01] GOTO 0x0133
172: 0x038F [0x01] GOTO 0x044E
173: 0x0392 [0x02] IF !(Work_Zone[0] == 5*) GOTO 0x03B5
174: 0x039A [0x03] Work_Zone_1700[0] = Work_Zone_1700[6]
175: 0x039F [0x03] ExtData[1]->WorkLocal[0] = 100*
176: 0x03A4 [0x1A] CALL_SUBROUTINE(address=0x1408)
177: 0x03A7 [0x02] IF !(ExtData[1]->WorkLocal[1] == 0*) GOTO 0x03B2
178: 0x03AF [0x01] GOTO 0x0133
179: 0x03B2 [0x01] GOTO 0x044E
180: 0x03B5 [0x02] IF !(Work_Zone[0] == 6*) GOTO 0x03D8
181: 0x03BD [0x03] Work_Zone_1700[0] = Work_Zone_1700[7]
182: 0x03C2 [0x03] ExtData[1]->WorkLocal[0] = 20000*
183: 0x03C7 [0x1A] CALL_SUBROUTINE(address=0x1408)
184: 0x03CA [0x02] IF !(ExtData[1]->WorkLocal[1] == 0*) GOTO 0x03D5
185: 0x03D2 [0x01] GOTO 0x0133
186: 0x03D5 [0x01] GOTO 0x044E
187: 0x03D8 [0x02] IF !(Work_Zone[0] == 7*) GOTO 0x03FB
188: 0x03E0 [0x03] Work_Zone_1700[0] = Work_Zone_1700[8]
189: 0x03E5 [0x03] ExtData[1]->WorkLocal[0] = 20000*
190: 0x03EA [0x1A] CALL_SUBROUTINE(address=0x1408)
191: 0x03ED [0x02] IF !(ExtData[1]->WorkLocal[1] == 0*) GOTO 0x03F8
192: 0x03F5 [0x01] GOTO 0x0133
193: 0x03F8 [0x01] GOTO 0x044E
194: 0x03FB [0x02] IF !(Work_Zone[0] == 8*) GOTO 0x041E
195: 0x0403 [0x03] Work_Zone_1700[0] = Work_Zone_1700[9]
196: 0x0408 [0x03] ExtData[1]->WorkLocal[0] = 20000*
197: 0x040D [0x1A] CALL_SUBROUTINE(address=0x1408)
198: 0x0410 [0x02] IF !(ExtData[1]->WorkLocal[1] == 0*) GOTO 0x041B
199: 0x0418 [0x01] GOTO 0x0133
200: 0x041B [0x01] GOTO 0x044E
201: 0x041E [0x02] IF !(Work_Zone[0] == 9*) GOTO 0x042F
202: 0x0426 [0x0B] ExtData[1]->WorkLocal[2]++
203: 0x0429 [0x01] GOTO 0x0133

SUBROUTINE_044E:
204: 0x044E [0x01] GOTO 0x064B
205: 0x0451 [0x24] CREATE_DIALOG(message_id=8022*, default_option=0*, option_flags=ExtData[1]->WorkLocal[4])
    → "Which item do you wish to purchase? [$9 ($20 credits)./$10 ($21 credits)./$11 ($22 credits)./$12 ($23 credits)./$13 ($24 credits)./$14 ($25 credits)./$15 ($26 credits)./$16 ($27 credits)./$17 ($28 credits)./Next page./Previous page./Back.]"
206: 0x0458 [0x25] WAIT_DIALOG_SELECT()
207: 0x0459 [0x02] IF !(Work_Zone[0] == 0*) GOTO 0x048B
208: 0x0461 [0x03] Work_Zone_1700[0] = Work_Zone_1700[1]
209: 0x0466 [0x03] ExtData[1]->WorkLocal[0] = Work_Zone_1700[12]
210: 0x046B [0x03] ExtData[1]->WorkLocal[3] = ExtData[1]->WorkLocal[2]
211: 0x0470 [0x14] ExtData[1]->WorkLocal[3] *= 9*
212: 0x0475 [0x07] Work_Zone[0] += ExtData[1]->WorkLocal[3]
213: 0x047A [0x1A] CALL_SUBROUTINE(address=0x1408)
214: 0x047D [0x02] IF !(ExtData[1]->WorkLocal[1] == 0*) GOTO 0x0488
215: 0x0485 [0x01] GOTO 0x0133
216: 0x0488 [0x01] GOTO 0x064B
217: 0x048B [0x02] IF !(Work_Zone[0] == 1*) GOTO 0x04BD
218: 0x0493 [0x03] Work_Zone_1700[0] = Work_Zone_1700[2]
219: 0x0498 [0x03] ExtData[1]->WorkLocal[0] = Work_Zone_1700[13]
220: 0x049D [0x03] ExtData[1]->WorkLocal[3] = ExtData[1]->WorkLocal[2]
221: 0x04A2 [0x14] ExtData[1]->WorkLocal[3] *= 9*
222: 0x04A7 [0x07] Work_Zone[0] += ExtData[1]->WorkLocal[3]
223: 0x04AC [0x1A] CALL_SUBROUTINE(address=0x1408)
224: 0x04AF [0x02] IF !(ExtData[1]->WorkLocal[1] == 0*) GOTO 0x04BA
225: 0x04B7 [0x01] GOTO 0x0133
226: 0x04BA [0x01] GOTO 0x064B
227: 0x04BD [0x02] IF !(Work_Zone[0] == 2*) GOTO 0x04EF
228: 0x04C5 [0x03] Work_Zone_1700[0] = Work_Zone_1700[3]
229: 0x04CA [0x03] ExtData[1]->WorkLocal[0] = Work_Zone_1700[14]
230: 0x04CF [0x03] ExtData[1]->WorkLocal[3] = ExtData[1]->WorkLocal[2]
231: 0x04D4 [0x14] ExtData[1]->WorkLocal[3] *= 9*
232: 0x04D9 [0x07] Work_Zone[0] += ExtData[1]->WorkLocal[3]
233: 0x04DE [0x1A] CALL_SUBROUTINE(address=0x1408)
234: 0x04E1 [0x02] IF !(ExtData[1]->WorkLocal[1] == 0*) GOTO 0x04EC
235: 0x04E9 [0x01] GOTO 0x0133
236: 0x04EC [0x01] GOTO 0x064B
237: 0x04EF [0x02] IF !(Work_Zone[0] == 3*) GOTO 0x0521
238: 0x04F7 [0x03] Work_Zone_1700[0] = Work_Zone_1700[4]
239: 0x04FC [0x03] ExtData[1]->WorkLocal[0] = Work_Zone_1700[15]
240: 0x0501 [0x03] ExtData[1]->WorkLocal[3] = ExtData[1]->WorkLocal[2]
241: 0x0506 [0x14] ExtData[1]->WorkLocal[3] *= 9*
242: 0x050B [0x07] Work_Zone[0] += ExtData[1]->WorkLocal[3]
243: 0x0510 [0x1A] CALL_SUBROUTINE(address=0x1408)
244: 0x0513 [0x02] IF !(ExtData[1]->WorkLocal[1] == 0*) GOTO 0x051E
245: 0x051B [0x01] GOTO 0x0133
246: 0x051E [0x01] GOTO 0x064B
247: 0x0521 [0x02] IF !(Work_Zone[0] == 4*) GOTO 0x0553
248: 0x0529 [0x03] Work_Zone_1700[0] = Work_Zone_1700[5]
249: 0x052E [0x03] ExtData[1]->WorkLocal[0] = Work_Zone_1700[16]
250: 0x0533 [0x03] ExtData[1]->WorkLocal[3] = ExtData[1]->WorkLocal[2]
251: 0x0538 [0x14] ExtData[1]->WorkLocal[3] *= 9*
252: 0x053D [0x07] Work_Zone[0] += ExtData[1]->WorkLocal[3]
253: 0x0542 [0x1A] CALL_SUBROUTINE(address=0x1408)
254: 0x0545 [0x02] IF !(ExtData[1]->WorkLocal[1] == 0*) GOTO 0x0550
255: 0x054D [0x01] GOTO 0x0133
256: 0x0550 [0x01] GOTO 0x064B
257: 0x0553 [0x02] IF !(Work_Zone[0] == 5*) GOTO 0x0585
258: 0x055B [0x03] Work_Zone_1700[0] = Work_Zone_1700[6]
259: 0x0560 [0x03] ExtData[1]->WorkLocal[0] = Work_Zone_1700[17]
260: 0x0565 [0x03] ExtData[1]->WorkLocal[3] = ExtData[1]->WorkLocal[2]
261: 0x056A [0x14] ExtData[1]->WorkLocal[3] *= 9*
262: 0x056F [0x07] Work_Zone[0] += ExtData[1]->WorkLocal[3]
263: 0x0574 [0x1A] CALL_SUBROUTINE(address=0x1408)
264: 0x0577 [0x02] IF !(ExtData[1]->WorkLocal[1] == 0*) GOTO 0x0582
265: 0x057F [0x01] GOTO 0x0133
266: 0x0582 [0x01] GOTO 0x064B
267: 0x0585 [0x02] IF !(Work_Zone[0] == 6*) GOTO 0x05B7
268: 0x058D [0x03] Work_Zone_1700[0] = Work_Zone_1700[7]
269: 0x0592 [0x03] ExtData[1]->WorkLocal[0] = Work_Zone_1700[18]
270: 0x0597 [0x03] ExtData[1]->WorkLocal[3] = ExtData[1]->WorkLocal[2]
271: 0x059C [0x14] ExtData[1]->WorkLocal[3] *= 9*
272: 0x05A1 [0x07] Work_Zone[0] += ExtData[1]->WorkLocal[3]
273: 0x05A6 [0x1A] CALL_SUBROUTINE(address=0x1408)
274: 0x05A9 [0x02] IF !(ExtData[1]->WorkLocal[1] == 0*) GOTO 0x05B4
275: 0x05B1 [0x01] GOTO 0x0133
276: 0x05B4 [0x01] GOTO 0x064B
277: 0x05B7 [0x02] IF !(Work_Zone[0] == 7*) GOTO 0x05E9
278: 0x05BF [0x03] Work_Zone_1700[0] = Work_Zone_1700[8]
279: 0x05C4 [0x03] ExtData[1]->WorkLocal[0] = Work_Zone_1700[19]
280: 0x05C9 [0x03] ExtData[1]->WorkLocal[3] = ExtData[1]->WorkLocal[2]
281: 0x05CE [0x14] ExtData[1]->WorkLocal[3] *= 9*
282: 0x05D3 [0x07] Work_Zone[0] += ExtData[1]->WorkLocal[3]
283: 0x05D8 [0x1A] CALL_SUBROUTINE(address=0x1408)
284: 0x05DB [0x02] IF !(ExtData[1]->WorkLocal[1] == 0*) GOTO 0x05E6
285: 0x05E3 [0x01] GOTO 0x0133
286: 0x05E6 [0x01] GOTO 0x064B
287: 0x05E9 [0x02] IF !(Work_Zone[0] == 8*) GOTO 0x061B
288: 0x05F1 [0x03] Work_Zone_1700[0] = Work_Zone_1700[9]
289: 0x05F6 [0x03] ExtData[1]->WorkLocal[0] = Work_Zone_1700[20]
290: 0x05FB [0x03] ExtData[1]->WorkLocal[3] = ExtData[1]->WorkLocal[2]
291: 0x0600 [0x14] ExtData[1]->WorkLocal[3] *= 9*
292: 0x0605 [0x07] Work_Zone[0] += ExtData[1]->WorkLocal[3]
293: 0x060A [0x1A] CALL_SUBROUTINE(address=0x1408)
294: 0x060D [0x02] IF !(ExtData[1]->WorkLocal[1] == 0*) GOTO 0x0618
295: 0x0615 [0x01] GOTO 0x0133
296: 0x0618 [0x01] GOTO 0x064B
297: 0x061B [0x02] IF !(Work_Zone[0] == 9*) GOTO 0x062C
298: 0x0623 [0x0B] ExtData[1]->WorkLocal[2]++
299: 0x0626 [0x01] GOTO 0x0133

SUBROUTINE_064B:
300: 0x064B [0x01] GOTO 0x0D15
301: 0x064E [0x02] IF !(Work_Zone[0] == 1*) GOTO 0x0706
302: 0x0656 [0x41] ExtData[1]->WorkLocal[0] = Work_Zone[3] (bits 0*-30*)
303: 0x065F [0x02] IF !(ExtData[1]->WorkLocal[0] == 7*) GOTO 0x0673
304: 0x0667 [0x1D] PRINT_EVENT_MESSAGE(message_id=8000*)
    → "There are currently no items available for that rank."
305: 0x066A [0x23] WAIT_FOR_DIALOG_INTERACTION
306: 0x066B [0x03] Work_Zone[1] = 1073741824*
307: 0x0670 [0x01] GOTO 0x0703
308: 0x0673 [0x40] SET_BIT_WORK_RANGE(start_bit=4*, end_bit=7*, target=Work_Zone[1], source=1*)

SUBROUTINE_067C:
309: 0x067C [0x06] ExtData[1]->WorkLocal[1] = 0
310: 0x067F [0x03] Work_Zone_1700[1] = 1862*
311: 0x0684 [0x03] Work_Zone_1700[2] = 1863*
312: 0x0689 [0x03] Work_Zone_1700[3] = 1864*
313: 0x068E [0x03] Work_Zone_1700[12] = 1000*
314: 0x0693 [0x24] CREATE_DIALOG(message_id=8004*, default_option=0*, option_flags=ExtData[1]->WorkLocal[0])
    → "Which item do you wish to purchase? [$3 ($20 credits)./$3 ($20 credits)./$3 ($20 credits)./Return.]"
315: 0x069A [0x25] WAIT_DIALOG_SELECT()
316: 0x069B [0x02] IF !(Work_Zone[0] == 0*) GOTO 0x06B9
317: 0x06A3 [0x03] Work_Zone_1700[0] = Work_Zone_1700[1]
318: 0x06A8 [0x1A] CALL_SUBROUTINE(address=0x1456)
319: 0x06AB [0x02] IF !(ExtData[1]->WorkLocal[1] == 0*) GOTO 0x06B6
320: 0x06B3 [0x01] GOTO 0x067C
321: 0x06B6 [0x01] GOTO 0x0703
322: 0x06B9 [0x02] IF !(Work_Zone[0] == 1*) GOTO 0x06D7
323: 0x06C1 [0x03] Work_Zone_1700[0] = Work_Zone_1700[2]
324: 0x06C6 [0x1A] CALL_SUBROUTINE(address=0x1456)
325: 0x06C9 [0x02] IF !(ExtData[1]->WorkLocal[1] == 0*) GOTO 0x06D4
326: 0x06D1 [0x01] GOTO 0x067C
327: 0x06D4 [0x01] GOTO 0x0703
328: 0x06D7 [0x02] IF !(Work_Zone[0] == 2*) GOTO 0x06F5
329: 0x06DF [0x03] Work_Zone_1700[0] = Work_Zone_1700[3]
330: 0x06E4 [0x1A] CALL_SUBROUTINE(address=0x1456)
331: 0x06E7 [0x02] IF !(ExtData[1]->WorkLocal[1] == 0*) GOTO 0x06F2
332: 0x06EF [0x01] GOTO 0x067C
333: 0x06F2 [0x01] GOTO 0x0703
334: 0x06F5 [0x02] IF !(Work_Zone[0] == 3*) GOTO 0x0703
335: 0x06FD [0x01] GOTO 0x0115

SUBROUTINE_0703:
336: 0x0703 [0x01] GOTO 0x0D15
337: 0x0706 [0x02] IF !(Work_Zone[0] == 2*) GOTO 0x07A1
338: 0x070E [0x40] SET_BIT_WORK_RANGE(start_bit=4*, end_bit=7*, target=Work_Zone[1], source=2*)

SUBROUTINE_0717:
339: 0x0717 [0x06] ExtData[1]->WorkLocal[1] = 0
340: 0x071A [0x03] Work_Zone_1700[1] = 18689*
341: 0x071F [0x03] Work_Zone_1700[2] = 18690*
342: 0x0724 [0x03] Work_Zone_1700[3] = 18691*
343: 0x0729 [0x03] Work_Zone_1700[12] = 2000*
344: 0x072E [0x24] CREATE_DIALOG(message_id=8019*, default_option=0*, option_flags=0*)
    → "Which item do you wish to purchase? [$9./$10./$11./Back.]"
345: 0x0735 [0x25] WAIT_DIALOG_SELECT()
346: 0x0736 [0x02] IF !(Work_Zone[0] == 0*) GOTO 0x0754
347: 0x073E [0x03] Work_Zone_1700[0] = Work_Zone_1700[1]
348: 0x0743 [0x1A] CALL_SUBROUTINE(address=0x1498)
349: 0x0746 [0x02] IF !(ExtData[1]->WorkLocal[1] == 0*) GOTO 0x0751
350: 0x074E [0x01] GOTO 0x0717
351: 0x0751 [0x01] GOTO 0x079E
352: 0x0754 [0x02] IF !(Work_Zone[0] == 1*) GOTO 0x0772
353: 0x075C [0x03] Work_Zone_1700[0] = Work_Zone_1700[2]
354: 0x0761 [0x1A] CALL_SUBROUTINE(address=0x1498)
355: 0x0764 [0x02] IF !(ExtData[1]->WorkLocal[1] == 0*) GOTO 0x076F
356: 0x076C [0x01] GOTO 0x0717
357: 0x076F [0x01] GOTO 0x079E
358: 0x0772 [0x02] IF !(Work_Zone[0] == 2*) GOTO 0x0790
359: 0x077A [0x03] Work_Zone_1700[0] = Work_Zone_1700[3]
360: 0x077F [0x1A] CALL_SUBROUTINE(address=0x1498)
361: 0x0782 [0x02] IF !(ExtData[1]->WorkLocal[1] == 0*) GOTO 0x078D
362: 0x078A [0x01] GOTO 0x0717
363: 0x078D [0x01] GOTO 0x079E
364: 0x0790 [0x02] IF !(Work_Zone[0] == 3*) GOTO 0x079E
365: 0x0798 [0x01] GOTO 0x0115

SUBROUTINE_079E:
366: 0x079E [0x01] GOTO 0x0D15
367: 0x07A1 [0x02] IF !(Work_Zone[0] == 3*) GOTO 0x085F
368: 0x07A9 [0x40] SET_BIT_WORK_RANGE(start_bit=4*, end_bit=7*, target=Work_Zone[1], source=3*)

SUBROUTINE_07B2:
369: 0x07B2 [0x06] ExtData[1]->WorkLocal[1] = 0
370: 0x07B5 [0x03] Work_Zone_1700[1] = 18692*
371: 0x07BA [0x03] Work_Zone_1700[2] = 18693*
372: 0x07BF [0x03] Work_Zone_1700[3] = 18694*
373: 0x07C4 [0x03] Work_Zone_1700[4] = 15810*
374: 0x07C9 [0x03] Work_Zone_1700[12] = 4000*
375: 0x07CE [0x24] CREATE_DIALOG(message_id=8020*, default_option=0*, option_flags=0*)
    → "Which item do you wish to purchase? [$9./$10./$11./$12./Back.]"
376: 0x07D5 [0x25] WAIT_DIALOG_SELECT()
377: 0x07D6 [0x02] IF !(Work_Zone[0] == 0*) GOTO 0x07F4
378: 0x07DE [0x03] Work_Zone_1700[0] = Work_Zone_1700[1]
379: 0x07E3 [0x1A] CALL_SUBROUTINE(address=0x157B)
380: 0x07E6 [0x02] IF !(ExtData[1]->WorkLocal[1] == 0*) GOTO 0x07F1
381: 0x07EE [0x01] GOTO 0x07B2
382: 0x07F1 [0x01] GOTO 0x085C
383: 0x07F4 [0x02] IF !(Work_Zone[0] == 1*) GOTO 0x0812
384: 0x07FC [0x03] Work_Zone_1700[0] = Work_Zone_1700[2]
385: 0x0801 [0x1A] CALL_SUBROUTINE(address=0x157B)
386: 0x0804 [0x02] IF !(ExtData[1]->WorkLocal[1] == 0*) GOTO 0x080F
387: 0x080C [0x01] GOTO 0x07B2
388: 0x080F [0x01] GOTO 0x085C
389: 0x0812 [0x02] IF !(Work_Zone[0] == 2*) GOTO 0x0830
390: 0x081A [0x03] Work_Zone_1700[0] = Work_Zone_1700[3]
391: 0x081F [0x1A] CALL_SUBROUTINE(address=0x157B)
392: 0x0822 [0x02] IF !(ExtData[1]->WorkLocal[1] == 0*) GOTO 0x082D
393: 0x082A [0x01] GOTO 0x07B2
394: 0x082D [0x01] GOTO 0x085C
395: 0x0830 [0x02] IF !(Work_Zone[0] == 3*) GOTO 0x084E
396: 0x0838 [0x03] Work_Zone_1700[0] = Work_Zone_1700[4]
397: 0x083D [0x1A] CALL_SUBROUTINE(address=0x157B)
398: 0x0840 [0x02] IF !(ExtData[1]->WorkLocal[1] == 0*) GOTO 0x084B
399: 0x0848 [0x01] GOTO 0x07B2
400: 0x084B [0x01] GOTO 0x085C
401: 0x084E [0x02] IF !(Work_Zone[0] == 4*) GOTO 0x085C
402: 0x0856 [0x01] GOTO 0x0115

SUBROUTINE_085C:
403: 0x085C [0x01] GOTO 0x0D15
404: 0x085F [0x02] IF !(Work_Zone[0] == 4*) GOTO 0x08FA
405: 0x0867 [0x40] SET_BIT_WORK_RANGE(start_bit=4*, end_bit=7*, target=Work_Zone[1], source=4*)

SUBROUTINE_0870:
406: 0x0870 [0x06] ExtData[1]->WorkLocal[1] = 0
407: 0x0873 [0x03] Work_Zone_1700[1] = 15698*
408: 0x0878 [0x03] Work_Zone_1700[2] = 15560*
409: 0x087D [0x03] Work_Zone_1700[3] = 16168*
410: 0x0882 [0x03] Work_Zone_1700[12] = 8000*
411: 0x0887 [0x24] CREATE_DIALOG(message_id=8019*, default_option=0*, option_flags=0*)
    → "Which item do you wish to purchase? [$9./$10./$11./Back.]"
412: 0x088E [0x25] WAIT_DIALOG_SELECT()
413: 0x088F [0x02] IF !(Work_Zone[0] == 0*) GOTO 0x08AD
414: 0x0897 [0x03] Work_Zone_1700[0] = Work_Zone_1700[1]
415: 0x089C [0x1A] CALL_SUBROUTINE(address=0x1695)
416: 0x089F [0x02] IF !(ExtData[1]->WorkLocal[1] == 0*) GOTO 0x08AA
417: 0x08A7 [0x01] GOTO 0x0870
418: 0x08AA [0x01] GOTO 0x08F7
419: 0x08AD [0x02] IF !(Work_Zone[0] == 1*) GOTO 0x08CB
420: 0x08B5 [0x03] Work_Zone_1700[0] = Work_Zone_1700[2]
421: 0x08BA [0x1A] CALL_SUBROUTINE(address=0x1695)
422: 0x08BD [0x02] IF !(ExtData[1]->WorkLocal[1] == 0*) GOTO 0x08C8
423: 0x08C5 [0x01] GOTO 0x0870
424: 0x08C8 [0x01] GOTO 0x08F7
425: 0x08CB [0x02] IF !(Work_Zone[0] == 2*) GOTO 0x08E9
426: 0x08D3 [0x03] Work_Zone_1700[0] = Work_Zone_1700[3]
427: 0x08D8 [0x1A] CALL_SUBROUTINE(address=0x1695)
428: 0x08DB [0x02] IF !(ExtData[1]->WorkLocal[1] == 0*) GOTO 0x08E6
429: 0x08E3 [0x01] GOTO 0x0870
430: 0x08E6 [0x01] GOTO 0x08F7
431: 0x08E9 [0x02] IF !(Work_Zone[0] == 3*) GOTO 0x08F7
432: 0x08F1 [0x01] GOTO 0x0115

SUBROUTINE_08F7:
433: 0x08F7 [0x01] GOTO 0x0D15
434: 0x08FA [0x02] IF !(Work_Zone[0] == 5*) GOTO 0x0995
435: 0x0902 [0x40] SET_BIT_WORK_RANGE(start_bit=4*, end_bit=7*, target=Work_Zone[1], source=5*)

SUBROUTINE_090B:
436: 0x090B [0x06] ExtData[1]->WorkLocal[1] = 0
437: 0x090E [0x03] Work_Zone_1700[1] = 18703*
438: 0x0913 [0x03] Work_Zone_1700[2] = 18742*
439: 0x0918 [0x03] Work_Zone_1700[3] = 17723*
440: 0x091D [0x03] Work_Zone_1700[12] = 16000*
441: 0x0922 [0x24] CREATE_DIALOG(message_id=8019*, default_option=0*, option_flags=0*)
    → "Which item do you wish to purchase? [$9./$10./$11./Back.]"
442: 0x0929 [0x25] WAIT_DIALOG_SELECT()
443: 0x092A [0x02] IF !(Work_Zone[0] == 0*) GOTO 0x0948
444: 0x0932 [0x03] Work_Zone_1700[0] = Work_Zone_1700[1]
445: 0x0937 [0x1A] CALL_SUBROUTINE(address=0x1778)
446: 0x093A [0x02] IF !(ExtData[1]->WorkLocal[1] == 0*) GOTO 0x0945
447: 0x0942 [0x01] GOTO 0x090B
448: 0x0945 [0x01] GOTO 0x0992
449: 0x0948 [0x02] IF !(Work_Zone[0] == 1*) GOTO 0x0966
450: 0x0950 [0x03] Work_Zone_1700[0] = Work_Zone_1700[2]
451: 0x0955 [0x1A] CALL_SUBROUTINE(address=0x1778)
452: 0x0958 [0x02] IF !(ExtData[1]->WorkLocal[1] == 0*) GOTO 0x0963
453: 0x0960 [0x01] GOTO 0x090B
454: 0x0963 [0x01] GOTO 0x0992
455: 0x0966 [0x02] IF !(Work_Zone[0] == 2*) GOTO 0x0984
456: 0x096E [0x03] Work_Zone_1700[0] = Work_Zone_1700[3]
457: 0x0973 [0x1A] CALL_SUBROUTINE(address=0x1778)
458: 0x0976 [0x02] IF !(ExtData[1]->WorkLocal[1] == 0*) GOTO 0x0981
459: 0x097E [0x01] GOTO 0x090B
460: 0x0981 [0x01] GOTO 0x0992
461: 0x0984 [0x02] IF !(Work_Zone[0] == 3*) GOTO 0x0992
462: 0x098C [0x01] GOTO 0x0115

SUBROUTINE_0992:
463: 0x0992 [0x01] GOTO 0x0D15
464: 0x0995 [0x02] IF !(Work_Zone[0] == 6*) GOTO 0x0A30
465: 0x099D [0x40] SET_BIT_WORK_RANGE(start_bit=4*, end_bit=7*, target=Work_Zone[1], source=6*)

SUBROUTINE_09A6:
466: 0x09A6 [0x06] ExtData[1]->WorkLocal[1] = 0
467: 0x09A9 [0x03] Work_Zone_1700[1] = 15622*
468: 0x09AE [0x03] Work_Zone_1700[2] = 15790*
469: 0x09B3 [0x03] Work_Zone_1700[3] = 15981*
470: 0x09B8 [0x03] Work_Zone_1700[12] = 24000*
471: 0x09BD [0x24] CREATE_DIALOG(message_id=8019*, default_option=0*, option_flags=0*)
    → "Which item do you wish to purchase? [$9./$10./$11./Back.]"
472: 0x09C4 [0x25] WAIT_DIALOG_SELECT()
473: 0x09C5 [0x02] IF !(Work_Zone[0] == 0*) GOTO 0x09E3
474: 0x09CD [0x03] Work_Zone_1700[0] = Work_Zone_1700[1]
475: 0x09D2 [0x1A] CALL_SUBROUTINE(address=0x185B)
476: 0x09D5 [0x02] IF !(ExtData[1]->WorkLocal[1] == 0*) GOTO 0x09E0
477: 0x09DD [0x01] GOTO 0x09A6
478: 0x09E0 [0x01] GOTO 0x0A2D
479: 0x09E3 [0x02] IF !(Work_Zone[0] == 1*) GOTO 0x0A01
480: 0x09EB [0x03] Work_Zone_1700[0] = Work_Zone_1700[2]
481: 0x09F0 [0x1A] CALL_SUBROUTINE(address=0x185B)
482: 0x09F3 [0x02] IF !(ExtData[1]->WorkLocal[1] == 0*) GOTO 0x09FE
483: 0x09FB [0x01] GOTO 0x09A6
484: 0x09FE [0x01] GOTO 0x0A2D
485: 0x0A01 [0x02] IF !(Work_Zone[0] == 2*) GOTO 0x0A1F
486: 0x0A09 [0x03] Work_Zone_1700[0] = Work_Zone_1700[3]
487: 0x0A0E [0x1A] CALL_SUBROUTINE(address=0x185B)
488: 0x0A11 [0x02] IF !(ExtData[1]->WorkLocal[1] == 0*) GOTO 0x0A1C
489: 0x0A19 [0x01] GOTO 0x09A6
490: 0x0A1C [0x01] GOTO 0x0A2D
491: 0x0A1F [0x02] IF !(Work_Zone[0] == 3*) GOTO 0x0A2D
492: 0x0A27 [0x01] GOTO 0x0115

SUBROUTINE_0A2D:
493: 0x0A2D [0x01] GOTO 0x0D15
494: 0x0A30 [0x02] IF !(Work_Zone[0] == 7*) GOTO 0x0ACB
495: 0x0A38 [0x40] SET_BIT_WORK_RANGE(start_bit=4*, end_bit=7*, target=Work_Zone[1], source=7*)

SUBROUTINE_0A41:
496: 0x0A41 [0x06] ExtData[1]->WorkLocal[1] = 0
497: 0x0A44 [0x03] Work_Zone_1700[1] = 15623*
498: 0x0A49 [0x03] Work_Zone_1700[2] = 15982*
499: 0x0A4E [0x03] Work_Zone_1700[3] = 15983*
500: 0x0A53 [0x03] Work_Zone_1700[12] = 32000*
501: 0x0A58 [0x24] CREATE_DIALOG(message_id=8019*, default_option=0*, option_flags=0*)
    → "Which item do you wish to purchase? [$9./$10./$11./Back.]"
502: 0x0A5F [0x25] WAIT_DIALOG_SELECT()
503: 0x0A60 [0x02] IF !(Work_Zone[0] == 0*) GOTO 0x0A7E
504: 0x0A68 [0x03] Work_Zone_1700[0] = Work_Zone_1700[1]
505: 0x0A6D [0x1A] CALL_SUBROUTINE(address=0x193E)
506: 0x0A70 [0x02] IF !(ExtData[1]->WorkLocal[1] == 0*) GOTO 0x0A7B
507: 0x0A78 [0x01] GOTO 0x0A41
508: 0x0A7B [0x01] GOTO 0x0AC8
509: 0x0A7E [0x02] IF !(Work_Zone[0] == 1*) GOTO 0x0A9C
510: 0x0A86 [0x03] Work_Zone_1700[0] = Work_Zone_1700[2]
511: 0x0A8B [0x1A] CALL_SUBROUTINE(address=0x193E)
512: 0x0A8E [0x02] IF !(ExtData[1]->WorkLocal[1] == 0*) GOTO 0x0A99
513: 0x0A96 [0x01] GOTO 0x0A41
514: 0x0A99 [0x01] GOTO 0x0AC8
515: 0x0A9C [0x02] IF !(Work_Zone[0] == 2*) GOTO 0x0ABA
516: 0x0AA4 [0x03] Work_Zone_1700[0] = Work_Zone_1700[3]
517: 0x0AA9 [0x1A] CALL_SUBROUTINE(address=0x193E)
518: 0x0AAC [0x02] IF !(ExtData[1]->WorkLocal[1] == 0*) GOTO 0x0AB7
519: 0x0AB4 [0x01] GOTO 0x0A41
520: 0x0AB7 [0x01] GOTO 0x0AC8
521: 0x0ABA [0x02] IF !(Work_Zone[0] == 3*) GOTO 0x0AC8
522: 0x0AC2 [0x01] GOTO 0x0115

SUBROUTINE_0AC8:
523: 0x0AC8 [0x01] GOTO 0x0D15
524: 0x0ACB [0x02] IF !(Work_Zone[0] == 8*) GOTO 0x0B89
525: 0x0AD3 [0x40] SET_BIT_WORK_RANGE(start_bit=4*, end_bit=7*, target=Work_Zone[1], source=8*)

SUBROUTINE_0ADC:
526: 0x0ADC [0x06] ExtData[1]->WorkLocal[1] = 0
527: 0x0ADF [0x03] Work_Zone_1700[1] = 17741*
528: 0x0AE4 [0x03] Work_Zone_1700[2] = 18943*
529: 0x0AE9 [0x03] Work_Zone_1700[3] = 18850*
530: 0x0AEE [0x03] Work_Zone_1700[4] = 18717*
531: 0x0AF3 [0x03] Work_Zone_1700[12] = 40000*
532: 0x0AF8 [0x24] CREATE_DIALOG(message_id=8020*, default_option=0*, option_flags=0*)
    → "Which item do you wish to purchase? [$9./$10./$11./$12./Back.]"
533: 0x0AFF [0x25] WAIT_DIALOG_SELECT()
534: 0x0B00 [0x02] IF !(Work_Zone[0] == 0*) GOTO 0x0B1E
535: 0x0B08 [0x03] Work_Zone_1700[0] = Work_Zone_1700[1]
536: 0x0B0D [0x1A] CALL_SUBROUTINE(address=0x1A21)
537: 0x0B10 [0x02] IF !(ExtData[1]->WorkLocal[1] == 0*) GOTO 0x0B1B
538: 0x0B18 [0x01] GOTO 0x0ADC
539: 0x0B1B [0x01] GOTO 0x0B86
540: 0x0B1E [0x02] IF !(Work_Zone[0] == 1*) GOTO 0x0B3C
541: 0x0B26 [0x03] Work_Zone_1700[0] = Work_Zone_1700[2]
542: 0x0B2B [0x1A] CALL_SUBROUTINE(address=0x1A21)
543: 0x0B2E [0x02] IF !(ExtData[1]->WorkLocal[1] == 0*) GOTO 0x0B39
544: 0x0B36 [0x01] GOTO 0x0ADC
545: 0x0B39 [0x01] GOTO 0x0B86
546: 0x0B3C [0x02] IF !(Work_Zone[0] == 2*) GOTO 0x0B5A
547: 0x0B44 [0x03] Work_Zone_1700[0] = Work_Zone_1700[3]
548: 0x0B49 [0x1A] CALL_SUBROUTINE(address=0x1A21)
549: 0x0B4C [0x02] IF !(ExtData[1]->WorkLocal[1] == 0*) GOTO 0x0B57
550: 0x0B54 [0x01] GOTO 0x0ADC
551: 0x0B57 [0x01] GOTO 0x0B86
552: 0x0B5A [0x02] IF !(Work_Zone[0] == 3*) GOTO 0x0B78
553: 0x0B62 [0x03] Work_Zone_1700[0] = Work_Zone_1700[4]
554: 0x0B67 [0x1A] CALL_SUBROUTINE(address=0x1A21)
555: 0x0B6A [0x02] IF !(ExtData[1]->WorkLocal[1] == 0*) GOTO 0x0B75
556: 0x0B72 [0x01] GOTO 0x0ADC
557: 0x0B75 [0x01] GOTO 0x0B86
558: 0x0B78 [0x02] IF !(Work_Zone[0] == 4*) GOTO 0x0B86
559: 0x0B80 [0x01] GOTO 0x0115

SUBROUTINE_0B86:
560: 0x0B86 [0x01] GOTO 0x0D15
561: 0x0B89 [0x02] IF !(Work_Zone[0] == 9*) GOTO 0x0C6A
562: 0x0B91 [0x40] SET_BIT_WORK_RANGE(start_bit=4*, end_bit=7*, target=Work_Zone[1], source=9*)

SUBROUTINE_0B9A:
563: 0x0B9A [0x06] ExtData[1]->WorkLocal[1] = 0
564: 0x0B9D [0x03] Work_Zone_1700[1] = 16602*
565: 0x0BA2 [0x03] Work_Zone_1700[2] = 18425*
566: 0x0BA7 [0x03] Work_Zone_1700[3] = 18491*
567: 0x0BAC [0x03] Work_Zone_1700[4] = 18588*
568: 0x0BB1 [0x03] Work_Zone_1700[5] = 18718*
569: 0x0BB6 [0x03] Work_Zone_1700[12] = 40000*
570: 0x0BBB [0x24] CREATE_DIALOG(message_id=8021*, default_option=0*, option_flags=0*)
    → "Which item do you wish to purchase? [$9./$10./$11./$12./$13./Back.]"
571: 0x0BC2 [0x25] WAIT_DIALOG_SELECT()
572: 0x0BC3 [0x02] IF !(Work_Zone[0] == 0*) GOTO 0x0BE1
573: 0x0BCB [0x03] Work_Zone_1700[0] = Work_Zone_1700[1]
574: 0x0BD0 [0x1A] CALL_SUBROUTINE(address=0x1B04)
575: 0x0BD3 [0x02] IF !(ExtData[1]->WorkLocal[1] == 0*) GOTO 0x0BDE
576: 0x0BDB [0x01] GOTO 0x0B9A
577: 0x0BDE [0x01] GOTO 0x0C67
578: 0x0BE1 [0x02] IF !(Work_Zone[0] == 1*) GOTO 0x0BFF
579: 0x0BE9 [0x03] Work_Zone_1700[0] = Work_Zone_1700[2]
580: 0x0BEE [0x1A] CALL_SUBROUTINE(address=0x1B04)
581: 0x0BF1 [0x02] IF !(ExtData[1]->WorkLocal[1] == 0*) GOTO 0x0BFC
582: 0x0BF9 [0x01] GOTO 0x0B9A
583: 0x0BFC [0x01] GOTO 0x0C67
584: 0x0BFF [0x02] IF !(Work_Zone[0] == 2*) GOTO 0x0C1D
585: 0x0C07 [0x03] Work_Zone_1700[0] = Work_Zone_1700[3]
586: 0x0C0C [0x1A] CALL_SUBROUTINE(address=0x1B04)
587: 0x0C0F [0x02] IF !(ExtData[1]->WorkLocal[1] == 0*) GOTO 0x0C1A
588: 0x0C17 [0x01] GOTO 0x0B9A
589: 0x0C1A [0x01] GOTO 0x0C67
590: 0x0C1D [0x02] IF !(Work_Zone[0] == 3*) GOTO 0x0C3B
591: 0x0C25 [0x03] Work_Zone_1700[0] = Work_Zone_1700[4]
592: 0x0C2A [0x1A] CALL_SUBROUTINE(address=0x1B04)
593: 0x0C2D [0x02] IF !(ExtData[1]->WorkLocal[1] == 0*) GOTO 0x0C38
594: 0x0C35 [0x01] GOTO 0x0B9A
595: 0x0C38 [0x01] GOTO 0x0C67
596: 0x0C3B [0x02] IF !(Work_Zone[0] == 4*) GOTO 0x0C59
597: 0x0C43 [0x03] Work_Zone_1700[0] = Work_Zone_1700[5]
598: 0x0C48 [0x1A] CALL_SUBROUTINE(address=0x1B04)
599: 0x0C4B [0x02] IF !(ExtData[1]->WorkLocal[1] == 0*) GOTO 0x0C56
600: 0x0C53 [0x01] GOTO 0x0B9A
601: 0x0C56 [0x01] GOTO 0x0C67
602: 0x0C59 [0x02] IF !(Work_Zone[0] == 5*) GOTO 0x0C67
603: 0x0C61 [0x01] GOTO 0x0115

SUBROUTINE_0C67:
604: 0x0C67 [0x01] GOTO 0x0D15
605: 0x0C6A [0x02] IF !(Work_Zone[0] == 10*) GOTO 0x0D05
606: 0x0C72 [0x40] SET_BIT_WORK_RANGE(start_bit=4*, end_bit=7*, target=Work_Zone[1], source=10*)

SUBROUTINE_0C7B:
607: 0x0C7B [0x06] ExtData[1]->WorkLocal[1] = 0
608: 0x0C7E [0x03] Work_Zone_1700[1] = 16271*
609: 0x0C83 [0x03] Work_Zone_1700[2] = 15912*
610: 0x0C88 [0x03] Work_Zone_1700[3] = 16230*
611: 0x0C8D [0x03] Work_Zone_1700[12] = 56000*
612: 0x0C92 [0x24] CREATE_DIALOG(message_id=8019*, default_option=0*, option_flags=0*)
    → "Which item do you wish to purchase? [$9./$10./$11./Back.]"
613: 0x0C99 [0x25] WAIT_DIALOG_SELECT()
614: 0x0C9A [0x02] IF !(Work_Zone[0] == 0*) GOTO 0x0CB8
615: 0x0CA2 [0x03] Work_Zone_1700[0] = Work_Zone_1700[1]
616: 0x0CA7 [0x1A] CALL_SUBROUTINE(address=0x1BE7)
617: 0x0CAA [0x02] IF !(ExtData[1]->WorkLocal[1] == 0*) GOTO 0x0CB5
618: 0x0CB2 [0x01] GOTO 0x0C7B
619: 0x0CB5 [0x01] GOTO 0x0D02
620: 0x0CB8 [0x02] IF !(Work_Zone[0] == 1*) GOTO 0x0CD6
621: 0x0CC0 [0x03] Work_Zone_1700[0] = Work_Zone_1700[2]
622: 0x0CC5 [0x1A] CALL_SUBROUTINE(address=0x1BE7)
623: 0x0CC8 [0x02] IF !(ExtData[1]->WorkLocal[1] == 0*) GOTO 0x0CD3
624: 0x0CD0 [0x01] GOTO 0x0C7B
625: 0x0CD3 [0x01] GOTO 0x0D02
626: 0x0CD6 [0x02] IF !(Work_Zone[0] == 2*) GOTO 0x0CF4
627: 0x0CDE [0x03] Work_Zone_1700[0] = Work_Zone_1700[3]
628: 0x0CE3 [0x1A] CALL_SUBROUTINE(address=0x1BE7)
629: 0x0CE6 [0x02] IF !(ExtData[1]->WorkLocal[1] == 0*) GOTO 0x0CF1
630: 0x0CEE [0x01] GOTO 0x0C7B
631: 0x0CF1 [0x01] GOTO 0x0D02
632: 0x0CF4 [0x02] IF !(Work_Zone[0] == 3*) GOTO 0x0D02
633: 0x0CFC [0x01] GOTO 0x0115

SUBROUTINE_0D02:
634: 0x0D02 [0x01] GOTO 0x0D15
635: 0x0D05 [0x02] IF !(Work_Zone[0] == 11*) GOTO 0x0D15
636: 0x0D0D [0x03] Work_Zone[1] = 1073741824*
637: 0x0D12 [0x01] GOTO 0x0D15

SUBROUTINE_0D15:
638: 0x0D15 [0x01] GOTO 0x13F7
639: 0x0D18 [0x02] IF !(Work_Zone[0] == 2*) GOTO 0x12D1
640: 0x0D20 [0x03] Work_Zone[2] = ExtData[1]->WorkLocal[7]
641: 0x0D25 [0x1D] PRINT_EVENT_MESSAGE(message_id=7997*)
    → "You currently possess $0 [Imperial Standing accolade/Imperial Standing Accolades]. Would you like to use them to purchase items?"
642: 0x0D28 [0x23] WAIT_FOR_DIALOG_INTERACTION
643: 0x0D29 [0x40] SET_BIT_WORK_RANGE(start_bit=0*, end_bit=3*, target=Work_Zone[1], source=2*)

SUBROUTINE_0D32:
644: 0x0D32 [0x24] CREATE_DIALOG(message_id=7999*, default_option=0*, option_flags=0*)
    → "Which item do you wish to purchase? [Common items (All ranks)."000-pt. items (First Lieutenant.)/Escutcheon materials (All ranks)./Cancel.]"
645: 0x0D39 [0x25] WAIT_DIALOG_SELECT()
646: 0x0D3A [0x02] IF !(Work_Zone[0] == 0*) GOTO 0x0E6B
647: 0x0D42 [0x40] SET_BIT_WORK_RANGE(start_bit=4*, end_bit=7*, target=Work_Zone[1], source=0*)

SUBROUTINE_0D4B:
648: 0x0D4B [0x03] Work_Zone[2] = ExtData[1]->WorkLocal[7]
649: 0x0D50 [0x06] ExtData[1]->WorkLocal[1] = 0
650: 0x0D53 [0x03] Work_Zone_1700[1] = 6697*
651: 0x0D58 [0x03] Work_Zone_1700[2] = 6698*
652: 0x0D5D [0x03] Work_Zone_1700[3] = 6699*
653: 0x0D62 [0x03] Work_Zone_1700[4] = 26235*
654: 0x0D67 [0x03] Work_Zone_1700[5] = 5735*
655: 0x0D6C [0x03] Work_Zone_1700[12] = 20*
656: 0x0D71 [0x03] Work_Zone_1700[13] = 10*
657: 0x0D76 [0x03] Work_Zone_1700[14] = 15*
658: 0x0D7B [0x03] Work_Zone_1700[15] = 100*
659: 0x0D80 [0x03] Work_Zone_1700[16] = 300*
660: 0x0D85 [0x24] CREATE_DIALOG(message_id=8023*, default_option=0*, option_flags=0*)
    → "Which item do you wish to purchase? [$9 ($20 accolades)./$10 ($21 accolades)./$11 ($22 accolades)./$12 ($23 accolades)./$13 ($24 accolades)./Back.]"
661: 0x0D8C [0x25] WAIT_DIALOG_SELECT()
662: 0x0D8D [0x02] IF !(Work_Zone[0] == 0*) GOTO 0x0DB0
663: 0x0D95 [0x03] Work_Zone_1700[0] = Work_Zone_1700[1]
664: 0x0D9A [0x03] ExtData[1]->WorkLocal[0] = Work_Zone_1700[12]
665: 0x0D9F [0x1A] CALL_SUBROUTINE(address=0x1CCA)
666: 0x0DA2 [0x02] IF !(ExtData[1]->WorkLocal[1] == 0*) GOTO 0x0DAD
667: 0x0DAA [0x01] GOTO 0x0D4B
668: 0x0DAD [0x01] GOTO 0x0E68
669: 0x0DB0 [0x02] IF !(Work_Zone[0] == 1*) GOTO 0x0DD3
670: 0x0DB8 [0x03] Work_Zone_1700[0] = Work_Zone_1700[2]
671: 0x0DBD [0x03] ExtData[1]->WorkLocal[0] = Work_Zone_1700[13]
672: 0x0DC2 [0x1A] CALL_SUBROUTINE(address=0x1CCA)
673: 0x0DC5 [0x02] IF !(ExtData[1]->WorkLocal[1] == 0*) GOTO 0x0DD0
674: 0x0DCD [0x01] GOTO 0x0D4B
675: 0x0DD0 [0x01] GOTO 0x0E68
676: 0x0DD3 [0x02] IF !(Work_Zone[0] == 2*) GOTO 0x0DF6
677: 0x0DDB [0x03] Work_Zone_1700[0] = Work_Zone_1700[3]
678: 0x0DE0 [0x03] ExtData[1]->WorkLocal[0] = Work_Zone_1700[14]
679: 0x0DE5 [0x1A] CALL_SUBROUTINE(address=0x1CCA)
680: 0x0DE8 [0x02] IF !(ExtData[1]->WorkLocal[1] == 0*) GOTO 0x0DF3
681: 0x0DF0 [0x01] GOTO 0x0D4B
682: 0x0DF3 [0x01] GOTO 0x0E68
683: 0x0DF6 [0x02] IF !(Work_Zone[0] == 3*) GOTO 0x0E19
684: 0x0DFE [0x03] Work_Zone_1700[0] = Work_Zone_1700[4]
685: 0x0E03 [0x03] ExtData[1]->WorkLocal[0] = Work_Zone_1700[15]
686: 0x0E08 [0x1A] CALL_SUBROUTINE(address=0x1CCA)
687: 0x0E0B [0x02] IF !(ExtData[1]->WorkLocal[1] == 0*) GOTO 0x0E16
688: 0x0E13 [0x01] GOTO 0x0D4B
689: 0x0E16 [0x01] GOTO 0x0E68
690: 0x0E19 [0x02] IF !(Work_Zone[0] == 4*) GOTO 0x0E65
691: 0x0E21 [0x02] IF !(ExtData[1]->WorkLocal[8] >= 0*) GOTO 0x0E3B
692: 0x0E29 [0x40] SET_BIT_WORK_RANGE(start_bit=8*, end_bit=11*, target=Work_Zone[1], source=1*)
693: 0x0E32 [0x43] SEND_EVENT_UPDATE: Send pending tag to server (packet 0x005B)
694: 0x0E34 [0x43] SEND_EVENT_UPDATE: Check pending flag (skip if not pending)
695: 0x0E36 [0x03] ExtData[1]->WorkLocal[8] = Work_Zone[9]
696: 0x0E3B [0x03] Work_Zone_1700[0] = Work_Zone_1700[5]
697: 0x0E40 [0x03] ExtData[1]->WorkLocal[0] = Work_Zone_1700[16]
698: 0x0E45 [0x03] ExtData[1]->WorkLocal[9] = ExtData[1]->WorkLocal[8]
699: 0x0E4A [0x03] Work_Zone_1700[26] = 0*
700: 0x0E4F [0x03] Work_Zone_1700[27] = ExtData[1]->WorkLocal[8]
701: 0x0E54 [0x1A] CALL_SUBROUTINE(address=0x1D18)
702: 0x0E57 [0x02] IF !(ExtData[1]->WorkLocal[1] == 0*) GOTO 0x0E62
703: 0x0E5F [0x01] GOTO 0x0D4B
704: 0x0E62 [0x01] GOTO 0x0E68
705: 0x0E65 [0x01] GOTO 0x0D32

SUBROUTINE_0E68:
706: 0x0E68 [0x01] GOTO 0x12CE
707: 0x0E6B [0x02] IF !(Work_Zone[0] == 1*) GOTO 0x107C
708: 0x0E73 [0x40] SET_BIT_WORK_RANGE(start_bit=4*, end_bit=7*, target=Work_Zone[1], source=1*)

SUBROUTINE_0E7C:
709: 0x0E7C [0x06] ExtData[1]->WorkLocal[1] = 0
710: 0x0E7F [0x03] Work_Zone[2] = ExtData[1]->WorkLocal[7]
711: 0x0E84 [0x03] Work_Zone_1700[1] = 21539*
712: 0x0E89 [0x03] Work_Zone_1700[2] = 21591*
713: 0x0E8E [0x03] Work_Zone_1700[3] = 21647*
714: 0x0E93 [0x03] Work_Zone_1700[4] = 21648*
715: 0x0E98 [0x03] Work_Zone_1700[5] = 21731*
716: 0x0E9D [0x03] Work_Zone_1700[6] = 21788*
717: 0x0EA2 [0x03] Work_Zone_1700[7] = 21841*
718: 0x0EA7 [0x03] Work_Zone_1700[8] = 21892*
719: 0x0EAC [0x03] Work_Zone_1700[9] = 21935*
720: 0x0EB1 [0x03] Work_Zone_1700[10] = 21990*
721: 0x0EB6 [0x03] Work_Zone_1700[11] = 21992*
722: 0x0EBB [0x03] Work_Zone_1700[12] = 22166*
723: 0x0EC0 [0x03] Work_Zone_1700[13] = 22167*
724: 0x0EC5 [0x03] Work_Zone_1700[14] = 22194*
725: 0x0ECA [0x24] CREATE_DIALOG(message_id=8025*, default_option=0*, option_flags=0*)
    → "Which item do you wish to purchase? [$9./$10./$11./$12./$13./$14./$15./$16./$17./$18./$19./$20./$21./$22./Back.]"
726: 0x0ED1 [0x25] WAIT_DIALOG_SELECT()
727: 0x0ED2 [0x02] IF !(Work_Zone[0] == 0*) GOTO 0x0EF0
728: 0x0EDA [0x03] Work_Zone_1700[0] = Work_Zone_1700[1]
729: 0x0EDF [0x1A] CALL_SUBROUTINE(address=0x1DEB)
730: 0x0EE2 [0x02] IF !(ExtData[1]->WorkLocal[1] == 0*) GOTO 0x0EED
731: 0x0EEA [0x01] GOTO 0x0E7C
732: 0x0EED [0x01] GOTO 0x1079
733: 0x0EF0 [0x02] IF !(Work_Zone[0] == 1*) GOTO 0x0F0E
734: 0x0EF8 [0x03] Work_Zone_1700[0] = Work_Zone_1700[2]
735: 0x0EFD [0x1A] CALL_SUBROUTINE(address=0x1DEB)
736: 0x0F00 [0x02] IF !(ExtData[1]->WorkLocal[1] == 0*) GOTO 0x0F0B
737: 0x0F08 [0x01] GOTO 0x0E7C
738: 0x0F0B [0x01] GOTO 0x1079
739: 0x0F0E [0x02] IF !(Work_Zone[0] == 2*) GOTO 0x0F2C
740: 0x0F16 [0x03] Work_Zone_1700[0] = Work_Zone_1700[3]
741: 0x0F1B [0x1A] CALL_SUBROUTINE(address=0x1DEB)
742: 0x0F1E [0x02] IF !(ExtData[1]->WorkLocal[1] == 0*) GOTO 0x0F29
743: 0x0F26 [0x01] GOTO 0x0E7C
744: 0x0F29 [0x01] GOTO 0x1079
745: 0x0F2C [0x02] IF !(Work_Zone[0] == 3*) GOTO 0x0F4A
746: 0x0F34 [0x03] Work_Zone_1700[0] = Work_Zone_1700[4]
747: 0x0F39 [0x1A] CALL_SUBROUTINE(address=0x1DEB)
748: 0x0F3C [0x02] IF !(ExtData[1]->WorkLocal[1] == 0*) GOTO 0x0F47
749: 0x0F44 [0x01] GOTO 0x0E7C
750: 0x0F47 [0x01] GOTO 0x1079
751: 0x0F4A [0x02] IF !(Work_Zone[0] == 4*) GOTO 0x0F68
752: 0x0F52 [0x03] Work_Zone_1700[0] = Work_Zone_1700[5]
753: 0x0F57 [0x1A] CALL_SUBROUTINE(address=0x1DEB)
754: 0x0F5A [0x02] IF !(ExtData[1]->WorkLocal[1] == 0*) GOTO 0x0F65
755: 0x0F62 [0x01] GOTO 0x0E7C
756: 0x0F65 [0x01] GOTO 0x1079
757: 0x0F68 [0x02] IF !(Work_Zone[0] == 5*) GOTO 0x0F86
758: 0x0F70 [0x03] Work_Zone_1700[0] = Work_Zone_1700[6]
759: 0x0F75 [0x1A] CALL_SUBROUTINE(address=0x1DEB)
760: 0x0F78 [0x02] IF !(ExtData[1]->WorkLocal[1] == 0*) GOTO 0x0F83
761: 0x0F80 [0x01] GOTO 0x0E7C
762: 0x0F83 [0x01] GOTO 0x1079
763: 0x0F86 [0x02] IF !(Work_Zone[0] == 6*) GOTO 0x0FA4
764: 0x0F8E [0x03] Work_Zone_1700[0] = Work_Zone_1700[7]
765: 0x0F93 [0x1A] CALL_SUBROUTINE(address=0x1DEB)
766: 0x0F96 [0x02] IF !(ExtData[1]->WorkLocal[1] == 0*) GOTO 0x0FA1
767: 0x0F9E [0x01] GOTO 0x0E7C
768: 0x0FA1 [0x01] GOTO 0x1079
769: 0x0FA4 [0x02] IF !(Work_Zone[0] == 7*) GOTO 0x0FC2
770: 0x0FAC [0x03] Work_Zone_1700[0] = Work_Zone_1700[8]
771: 0x0FB1 [0x1A] CALL_SUBROUTINE(address=0x1DEB)
772: 0x0FB4 [0x02] IF !(ExtData[1]->WorkLocal[1] == 0*) GOTO 0x0FBF
773: 0x0FBC [0x01] GOTO 0x0E7C
774: 0x0FBF [0x01] GOTO 0x1079
775: 0x0FC2 [0x02] IF !(Work_Zone[0] == 8*) GOTO 0x0FE0
776: 0x0FCA [0x03] Work_Zone_1700[0] = Work_Zone_1700[9]
777: 0x0FCF [0x1A] CALL_SUBROUTINE(address=0x1DEB)
778: 0x0FD2 [0x02] IF !(ExtData[1]->WorkLocal[1] == 0*) GOTO 0x0FDD
779: 0x0FDA [0x01] GOTO 0x0E7C
780: 0x0FDD [0x01] GOTO 0x1079
781: 0x0FE0 [0x02] IF !(Work_Zone[0] == 9*) GOTO 0x0FFE
782: 0x0FE8 [0x03] Work_Zone_1700[0] = Work_Zone_1700[10]
783: 0x0FED [0x1A] CALL_SUBROUTINE(address=0x1DEB)
784: 0x0FF0 [0x02] IF !(ExtData[1]->WorkLocal[1] == 0*) GOTO 0x0FFB
785: 0x0FF8 [0x01] GOTO 0x0E7C
786: 0x0FFB [0x01] GOTO 0x1079
787: 0x0FFE [0x02] IF !(Work_Zone[0] == 10*) GOTO 0x101C
788: 0x1006 [0x03] Work_Zone_1700[0] = Work_Zone_1700[11]
789: 0x100B [0x1A] CALL_SUBROUTINE(address=0x1DEB)
790: 0x100E [0x02] IF !(ExtData[1]->WorkLocal[1] == 0*) GOTO 0x1019
791: 0x1016 [0x01] GOTO 0x0E7C
792: 0x1019 [0x01] GOTO 0x1079
793: 0x101C [0x02] IF !(Work_Zone[0] == 11*) GOTO 0x103A
794: 0x1024 [0x03] Work_Zone_1700[0] = Work_Zone_1700[12]
795: 0x1029 [0x1A] CALL_SUBROUTINE(address=0x1DEB)
796: 0x102C [0x02] IF !(ExtData[1]->WorkLocal[1] == 0*) GOTO 0x1037
797: 0x1034 [0x01] GOTO 0x0E7C
798: 0x1037 [0x01] GOTO 0x1079
799: 0x103A [0x02] IF !(Work_Zone[0] == 12*) GOTO 0x1058
800: 0x1042 [0x03] Work_Zone_1700[0] = Work_Zone_1700[13]
801: 0x1047 [0x1A] CALL_SUBROUTINE(address=0x1DEB)
802: 0x104A [0x02] IF !(ExtData[1]->WorkLocal[1] == 0*) GOTO 0x1055
803: 0x1052 [0x01] GOTO 0x0E7C
804: 0x1055 [0x01] GOTO 0x1079
805: 0x1058 [0x02] IF !(Work_Zone[0] == 13*) GOTO 0x1076
806: 0x1060 [0x03] Work_Zone_1700[0] = Work_Zone_1700[14]
807: 0x1065 [0x1A] CALL_SUBROUTINE(address=0x1DEB)
808: 0x1068 [0x02] IF !(ExtData[1]->WorkLocal[1] == 0*) GOTO 0x1073
809: 0x1070 [0x01] GOTO 0x0E7C
810: 0x1073 [0x01] GOTO 0x1079
811: 0x1076 [0x01] GOTO 0x0D32

SUBROUTINE_1079:
812: 0x1079 [0x01] GOTO 0x12CE
813: 0x107C [0x02] IF !(Work_Zone[0] == 2*) GOTO 0x12C9
814: 0x1084 [0x40] SET_BIT_WORK_RANGE(start_bit=4*, end_bit=7*, target=Work_Zone[1], source=2*)

SUBROUTINE_108D:
815: 0x108D [0x06] ExtData[1]->WorkLocal[1] = 0
816: 0x1090 [0x03] Work_Zone_1700[1] = 9764*
817: 0x1095 [0x03] Work_Zone_1700[2] = 9765*
818: 0x109A [0x03] Work_Zone_1700[3] = 9766*
819: 0x109F [0x03] Work_Zone_1700[4] = 9767*
820: 0x10A4 [0x03] Work_Zone_1700[5] = 9768*
821: 0x10A9 [0x03] Work_Zone_1700[6] = 9769*
822: 0x10AE [0x03] Work_Zone_1700[7] = 9770*
823: 0x10B3 [0x03] Work_Zone_1700[8] = 9771*
824: 0x10B8 [0x03] Work_Zone_1700[9] = 10024*
825: 0x10BD [0x03] Work_Zone_1700[10] = 10025*
826: 0x10C2 [0x03] Work_Zone_1700[11] = 10026*
827: 0x10C7 [0x03] Work_Zone_1700[12] = 10027*
828: 0x10CC [0x03] Work_Zone_1700[13] = 20*
829: 0x10D1 [0x03] Work_Zone_1700[14] = 20*
830: 0x10D6 [0x03] Work_Zone_1700[15] = 20*
831: 0x10DB [0x03] Work_Zone_1700[16] = 20*
832: 0x10E0 [0x03] Work_Zone_1700[17] = 20*
833: 0x10E5 [0x03] Work_Zone_1700[18] = 20*
834: 0x10EA [0x03] Work_Zone_1700[19] = 20*
835: 0x10EF [0x03] Work_Zone_1700[20] = 20*
836: 0x10F4 [0x03] Work_Zone_1700[21] = 30*
837: 0x10F9 [0x03] Work_Zone_1700[22] = 30*
838: 0x10FE [0x03] Work_Zone_1700[23] = 30*
839: 0x1103 [0x03] Work_Zone_1700[24] = 30*
840: 0x1108 [0x03] Work_Zone_1700[26] = 0*
841: 0x110D [0x03] Work_Zone_1700[27] = 99*
842: 0x1112 [0x03] ExtData[1]->WorkLocal[9] = 9999*
843: 0x1117 [0x24] CREATE_DIALOG(message_id=8024*, default_option=0*, option_flags=0*)
    → "Which item do you wish to purchase? [$9 ($21 accolades)./$10 ($22 accolades)./$11 ($23 accolades)./$12 ($24 accolades)./$13 ($25 accolades)./$14 ($26 accolades)./$15 ($27 accolades)./$16 ($28 accolades)./$17 ($29 accolades)./$18 ($30 accolades)./$19 ($31 accolades)./$20 ($ accolades)./Back.]"
844: 0x111E [0x25] WAIT_DIALOG_SELECT()
845: 0x111F [0x02] IF !(Work_Zone[0] == 0*) GOTO 0x1142
846: 0x1127 [0x03] Work_Zone_1700[0] = Work_Zone_1700[1]
847: 0x112C [0x03] ExtData[1]->WorkLocal[0] = Work_Zone_1700[13]
848: 0x1131 [0x1A] CALL_SUBROUTINE(address=0x1D18)
849: 0x1134 [0x02] IF !(ExtData[1]->WorkLocal[1] == 0*) GOTO 0x113F
850: 0x113C [0x01] GOTO 0x108D
851: 0x113F [0x01] GOTO 0x12C6
852: 0x1142 [0x02] IF !(Work_Zone[0] == 1*) GOTO 0x1165
853: 0x114A [0x03] Work_Zone_1700[0] = Work_Zone_1700[2]
854: 0x114F [0x03] ExtData[1]->WorkLocal[0] = Work_Zone_1700[14]
855: 0x1154 [0x1A] CALL_SUBROUTINE(address=0x1D18)
856: 0x1157 [0x02] IF !(ExtData[1]->WorkLocal[1] == 0*) GOTO 0x1162
857: 0x115F [0x01] GOTO 0x108D
858: 0x1162 [0x01] GOTO 0x12C6
859: 0x1165 [0x02] IF !(Work_Zone[0] == 2*) GOTO 0x1188
860: 0x116D [0x03] Work_Zone_1700[0] = Work_Zone_1700[3]
861: 0x1172 [0x03] ExtData[1]->WorkLocal[0] = Work_Zone_1700[15]
862: 0x1177 [0x1A] CALL_SUBROUTINE(address=0x1D18)
863: 0x117A [0x02] IF !(ExtData[1]->WorkLocal[1] == 0*) GOTO 0x1185
864: 0x1182 [0x01] GOTO 0x108D
865: 0x1185 [0x01] GOTO 0x12C6
866: 0x1188 [0x02] IF !(Work_Zone[0] == 3*) GOTO 0x11AB
867: 0x1190 [0x03] Work_Zone_1700[0] = Work_Zone_1700[4]
868: 0x1195 [0x03] ExtData[1]->WorkLocal[0] = Work_Zone_1700[16]
869: 0x119A [0x1A] CALL_SUBROUTINE(address=0x1D18)
870: 0x119D [0x02] IF !(ExtData[1]->WorkLocal[1] == 0*) GOTO 0x11A8
871: 0x11A5 [0x01] GOTO 0x108D
872: 0x11A8 [0x01] GOTO 0x12C6
873: 0x11AB [0x02] IF !(Work_Zone[0] == 4*) GOTO 0x11CE
874: 0x11B3 [0x03] Work_Zone_1700[0] = Work_Zone_1700[5]
875: 0x11B8 [0x03] ExtData[1]->WorkLocal[0] = Work_Zone_1700[17]
876: 0x11BD [0x1A] CALL_SUBROUTINE(address=0x1D18)
877: 0x11C0 [0x02] IF !(ExtData[1]->WorkLocal[1] == 0*) GOTO 0x11CB
878: 0x11C8 [0x01] GOTO 0x108D
879: 0x11CB [0x01] GOTO 0x12C6
880: 0x11CE [0x02] IF !(Work_Zone[0] == 5*) GOTO 0x11F1
881: 0x11D6 [0x03] Work_Zone_1700[0] = Work_Zone_1700[6]
882: 0x11DB [0x03] ExtData[1]->WorkLocal[0] = Work_Zone_1700[18]
883: 0x11E0 [0x1A] CALL_SUBROUTINE(address=0x1D18)
884: 0x11E3 [0x02] IF !(ExtData[1]->WorkLocal[1] == 0*) GOTO 0x11EE
885: 0x11EB [0x01] GOTO 0x108D
886: 0x11EE [0x01] GOTO 0x12C6
887: 0x11F1 [0x02] IF !(Work_Zone[0] == 6*) GOTO 0x1214
888: 0x11F9 [0x03] Work_Zone_1700[0] = Work_Zone_1700[7]
889: 0x11FE [0x03] ExtData[1]->WorkLocal[0] = Work_Zone_1700[19]
890: 0x1203 [0x1A] CALL_SUBROUTINE(address=0x1D18)
891: 0x1206 [0x02] IF !(ExtData[1]->WorkLocal[1] == 0*) GOTO 0x1211
892: 0x120E [0x01] GOTO 0x108D
893: 0x1211 [0x01] GOTO 0x12C6
894: 0x1214 [0x02] IF !(Work_Zone[0] == 7*) GOTO 0x1237
895: 0x121C [0x03] Work_Zone_1700[0] = Work_Zone_1700[8]
896: 0x1221 [0x03] ExtData[1]->WorkLocal[0] = Work_Zone_1700[20]
897: 0x1226 [0x1A] CALL_SUBROUTINE(address=0x1D18)
898: 0x1229 [0x02] IF !(ExtData[1]->WorkLocal[1] == 0*) GOTO 0x1234
899: 0x1231 [0x01] GOTO 0x108D
900: 0x1234 [0x01] GOTO 0x12C6
901: 0x1237 [0x02] IF !(Work_Zone[0] == 8*) GOTO 0x125A
902: 0x123F [0x03] Work_Zone_1700[0] = Work_Zone_1700[9]
903: 0x1244 [0x03] ExtData[1]->WorkLocal[0] = Work_Zone_1700[21]
904: 0x1249 [0x1A] CALL_SUBROUTINE(address=0x1D18)
905: 0x124C [0x02] IF !(ExtData[1]->WorkLocal[1] == 0*) GOTO 0x1257
906: 0x1254 [0x01] GOTO 0x108D
907: 0x1257 [0x01] GOTO 0x12C6
908: 0x125A [0x02] IF !(Work_Zone[0] == 9*) GOTO 0x127D
909: 0x1262 [0x03] Work_Zone_1700[0] = Work_Zone_1700[10]
910: 0x1267 [0x03] ExtData[1]->WorkLocal[0] = Work_Zone_1700[22]
911: 0x126C [0x1A] CALL_SUBROUTINE(address=0x1D18)
912: 0x126F [0x02] IF !(ExtData[1]->WorkLocal[1] == 0*) GOTO 0x127A
913: 0x1277 [0x01] GOTO 0x108D
914: 0x127A [0x01] GOTO 0x12C6
915: 0x127D [0x02] IF !(Work_Zone[0] == 10*) GOTO 0x12A0
916: 0x1285 [0x03] Work_Zone_1700[0] = Work_Zone_1700[11]
917: 0x128A [0x03] ExtData[1]->WorkLocal[0] = Work_Zone_1700[23]
918: 0x128F [0x1A] CALL_SUBROUTINE(address=0x1D18)
919: 0x1292 [0x02] IF !(ExtData[1]->WorkLocal[1] == 0*) GOTO 0x129D
920: 0x129A [0x01] GOTO 0x108D
921: 0x129D [0x01] GOTO 0x12C6
922: 0x12A0 [0x02] IF !(Work_Zone[0] == 11*) GOTO 0x12C3
923: 0x12A8 [0x03] Work_Zone_1700[0] = Work_Zone_1700[12]
924: 0x12AD [0x03] ExtData[1]->WorkLocal[0] = Work_Zone_1700[24]
925: 0x12B2 [0x1A] CALL_SUBROUTINE(address=0x1D18)
926: 0x12B5 [0x02] IF !(ExtData[1]->WorkLocal[1] == 0*) GOTO 0x12C0
927: 0x12BD [0x01] GOTO 0x108D
928: 0x12C0 [0x01] GOTO 0x12C6
929: 0x12C3 [0x01] GOTO 0x0D32

SUBROUTINE_12C6:
930: 0x12C6 [0x01] GOTO 0x12CE
931: 0x12C9 [0x03] Work_Zone[1] = 1073741824*

SUBROUTINE_12CE:
932: 0x12CE [0x01] GOTO 0x13F7
933: 0x12D1 [0x02] IF !(Work_Zone[0] == 3*) GOTO 0x13E7

SUBROUTINE_12D9:
934: 0x12D9 [0x24] CREATE_DIALOG(message_id=8026*, default_option=0*, option_flags=0*)
    → "What do you wish to know about? [Nothing./Sanction./Imperial Standing./Besieged.]"
935: 0x12E0 [0x25] WAIT_DIALOG_SELECT()
936: 0x12E1 [0x02] IF !(Work_Zone[0] == 0*) GOTO 0x12EC
937: 0x12E9 [0x01] GOTO 0x13DF
938: 0x12EC [0x02] IF !(Work_Zone[0] == 1*) GOTO 0x130E
939: 0x12F4 [0x1D] PRINT_EVENT_MESSAGE(message_id=8028*)
    → ""Sanction" is a magic spell that we use to observe and assess mercenaries' actions."
940: 0x12F7 [0x23] WAIT_FOR_DIALOG_INTERACTION
941: 0x12F8 [0x1D] PRINT_EVENT_MESSAGE(message_id=8029*)
    → "Defeating enemies while you have Sanction cast on you will raise your Imperial Standing. Also, the stronger the monsters you fight, the higher your Imperial Standing will become."
942: 0x12FB [0x23] WAIT_FOR_DIALOG_INTERACTION
943: 0x12FC [0x1D] PRINT_EVENT_MESSAGE(message_id=8030*)
    → "When fighting in a beastman stronghold that has taken the Astral Candescence, your Imperial Standing will rise by a significant amount as thanks for your participation in the recovery effort."
944: 0x12FF [0x23] WAIT_FOR_DIALOG_INTERACTION
945: 0x1300 [0x1D] PRINT_EVENT_MESSAGE(message_id=8031*)
    → "Sanction is also necessary in order to receive crystals from the enemies you defeat."
946: 0x1303 [0x23] WAIT_FOR_DIALOG_INTERACTION
947: 0x1304 [0x1D] PRINT_EVENT_MESSAGE(message_id=8032*)
    → "But you must take caution. Stepping too far out of the Empire's boundaries will cause Sanction to wear off."
948: 0x1307 [0x23] WAIT_FOR_DIALOG_INTERACTION
949: 0x1308 [0x01] GOTO 0x12D9

SUBROUTINE_1334:
950: 0x1334 [0x24] CREATE_DIALOG(message_id=8027*, default_option=0*, option_flags=0*)
    → "What about Besieged? [Never mind./Besieged basics./"Serpent Generals."/Astral Candescence in Al Zahbi./Astral Candescence with beastmen./Empire's current state of defense.]"
951: 0x133B [0x25] WAIT_DIALOG_SELECT()
952: 0x133C [0x02] IF !(Work_Zone[0] == 0*) GOTO 0x134A
953: 0x1344 [0x01] GOTO 0x12D9

SUBROUTINE_13D9:
954: 0x13D9 [0x01] GOTO 0x1334

SUBROUTINE_13DF:
955: 0x13DF [0x03] Work_Zone[1] = 1073741824*
956: 0x13E4 [0x01] GOTO 0x13F7
957: 0x13E7 [0x02] IF !(Work_Zone[0] == 4*) GOTO 0x13F7
958: 0x13EF [0x03] Work_Zone[1] = 1073741824*
959: 0x13F4 [0x01] GOTO 0x13F7

SUBROUTINE_13F7:
960: 0x13F7 [0x21] END_EVENT
961: 0x13F8 [0x00] END_REQSTACK()
```

#### Data or dead code:

```
# Dead code (unreachable instructions):
     0x042C [0x01] GOTO 0x044E
     0x043D [0x01] GOTO 0x044E
     0x044B [0x01] GOTO 0x044E
# Dead code (unreachable instructions):
     0x0629 [0x01] GOTO 0x064B
     0x063A [0x01] GOTO 0x064B
     0x0648 [0x01] GOTO 0x064B
# Dead code (unreachable instructions):
     0x0700 [0x01] GOTO 0x0703
# Dead code (unreachable instructions):
     0x079B [0x01] GOTO 0x079E
# Dead code (unreachable instructions):
     0x0859 [0x01] GOTO 0x085C
# Dead code (unreachable instructions):
     0x08F4 [0x01] GOTO 0x08F7
# Dead code (unreachable instructions):
     0x098F [0x01] GOTO 0x0992
# Dead code (unreachable instructions):
     0x0A2A [0x01] GOTO 0x0A2D
# Dead code (unreachable instructions):
     0x0AC5 [0x01] GOTO 0x0AC8
# Dead code (unreachable instructions):
     0x0B83 [0x01] GOTO 0x0B86
# Dead code (unreachable instructions):
     0x0C64 [0x01] GOTO 0x0C67
# Dead code (unreachable instructions):
     0x0CFF [0x01] GOTO 0x0D02
# Dead code (unreachable instructions):
     0x130B [0x01] GOTO 0x13DF
     0x1329 [0x01] GOTO 0x13DF
# Dead code (unreachable instructions):
     0x1347 [0x01] GOTO 0x13D9
# Dead code (unreachable instructions):
     0x13DC [0x01] GOTO 0x13DF
```

### Event 217

#### Metadata

| Field        | Value      |
|--------------|------------|
| Entrypoint   | 0x13F9     |
| Data Size    | 2773 bytes |
| Instructions | 7          |

```
      00 01 02 03 04 05 06 07  08 09 0A 0B 0C 0D 0E 0F
      -- -- -- -- -- -- -- --  -- -- -- -- -- -- -- --
13F0:                             1E F0 FF FF 7F 1D 03           .......
1400: 80 23 1D A9 80 23 21 00  02 02 10 00 00 04 48 14  .#...#!.......H.
1410: 40 77 80 AA 80 01 10 00  10 93 00 17 1D AB 80 23  @w.............#
1420: 93 02 80 24 AC 80 0B 80  02 80 25 02 00 10 02 80  ...$......%.....
1430: 00 37 14 42 01 45 14 02  00 10 0B 80 00 45 14 05  .7.B.E.......E..
1440: 01 00 01 45 14 01 55 14  93 00 17 1D AD 80 23 93  ...E..U.......#.
1450: 02 80 05 01 00 1B 02 02  10 33 80 04 90 14 40 2B  .........3....@+
1460: 80 14 80 01 10 00 10 1D  AE 80 23 24 AC 80 0B 80  ..........#$....
1470: 02 80 25 02 00 10 02 80  00 7F 14 42 01 8D 14 02  ..%........B....
1480: 00 10 0B 80 00 8D 14 05  01 00 01 8D 14 01 97 14  ................
1490: 1D AF 80 23 05 01 00 1B  02 04 10 0D 80 04 6D 15  ...#..........m.
14A0: 02 02 10 28 80 04 5D 15  40 2B 80 14 80 01 10 00  ...(..].@+......
14B0: 10 43 00 43 01 02 05 10  02 80 80 EC 14 93 00 17  .C.C............
14C0: 1D B0 80 23 93 02 80 24  B1 80 0B 80 02 80 25 02  ...#...$......%.
14D0: 00 10 02 80 00 DB 14 42  01 E9 14 02 00 10 0B 80  .......B........
14E0: 00 E9 14 05 01 00 01 E9  14 01 5A 15 02 05 10 0B  ..........Z.....
14F0: 80 80 23 15 93 00 17 1D  B2 80 23 93 02 80 24 B1  ..#.......#...$.
1500: 80 0B 80 02 80 25 02 00  10 02 80 00 12 15 42 01  .....%........B.
1510: 20 15 02 00 10 0B 80 00  20 15 05 01 00 01 20 15   ....... ..... .
1520: 01 5A 15 02 05 10 0D 80  80 5A 15 93 00 17 1D B3  .Z.......Z......
1530: 80 23 93 02 80 24 AC 80  0B 80 02 80 25 02 00 10  .#...$......%...
1540: 02 80 00 49 15 42 01 57  15 02 00 10 0B 80 00 57  ...I.B.W.......W
1550: 15 05 01 00 01 57 15 01  5A 15 01 6A 15 93 00 17  .....W..Z..j....
1560: 1D AD 80 23 93 02 80 05  01 00 01 7A 15 93 00 17  ...#.......z....
1570: 1D B4 80 23 93 02 80 05  01 00 1B 02 04 10 0E 80  ...#............
1580: 04 87 16 02 02 10 3D 80  04 77 16 40 2B 80 14 80  ......=..w.@+...
