# 16974386 - Zwiyaam

## Common Data

| Field            | Value             |
|------------------|-------------------|
| Zone             | Al Zahbi (ID: 48) |
| Block Size       | 124 bytes         |
| Total Events     | 2                 |
| References Count | 6                 |

## List of Events

| Event ID              | Entrypoint   |   Size |   Instructions |
|-----------------------|--------------|--------|----------------|
| [65535](#event-65535) | 0x0000       |      1 |              1 |
| [247](#event-247)     | 0x0001       |     72 |             16 |

## DAT References (imed_data)

|   Index | Hex Value   |   Dec Value |
|---------|-------------|-------------|
|       0 | 0x1FA1      |        8097 |
|       1 | 0x004B      |          75 |
|       2 | 0x1FA2      |        8098 |
|       3 | 0x1FA3      |        8099 |
|       4 | 0x1FA4      |        8100 |
|       5 | 0x1FA5      |        8101 |

## String References

- **8097**: Thwee cheers for the Empwess!
- **8098**: Don't I sound stwong? Just like an Imper-eel soldier, wight?
- **8099**: Imper-eels are weally cool, but Serpent Generals are even cooler!
- **8100**: Someday I wanna see them do their magic. They can make a "seal," you know? I don't know what that is, but I'd like to see it!
- **8101**: But whenever I twy, my papa wuns after me and dwags me back home without any supper...

## Events

### Event 65535

#### Metadata

| Field        | Value   |
|--------------|---------|
| Entrypoint   | 0x0000  |
| Data Size    | 1 bytes |
| Instructions | 1       |

```
      00 01 02 03 04 05 06 07  08 09 0A 0B 0C 0D 0E 0F
      -- -- -- -- -- -- -- --  -- -- -- -- -- -- -- --
0000: 00                                                .               
```

#### Opcodes

```
  0: 0x0000 [0x00] END_REQSTACK()
```

### Event 247

#### Metadata

| Field        | Value    |
|--------------|----------|
| Entrypoint   | 0x0001   |
| Data Size    | 72 bytes |
| Instructions | 16       |

```
      00 01 02 03 04 05 06 07  08 09 0A 0B 0C 0D 0E 0F
      -- -- -- -- -- -- -- --  -- -- -- -- -- -- -- --
0000:    1E F0 FF FF 7F 1D 00  80 23 5B 01 80 F8 FF FF   ........#[.....
0010: 7F F8 FF FF 7F 74 6C 6B  30 1D 02 80 23 1D 03 80  .....tlk0...#...
0020: 23 5B 01 80 F8 FF FF 7F  F8 FF FF 7F 74 6C 6B 31  #[..........tlk1
0030: 1D 04 80 23 5B 01 80 F8  FF FF 7F F8 FF FF 7F 74  ...#[..........t
0040: 6C 6B 30 1D 05 80 23 21  00                       lk0...#!.       
```

#### Opcodes

```
  0: 0x0001 [0x1E] EventEntity looks at LocalPlayer and starts talking
  1: 0x0006 [0x1D] PRINT_EVENT_MESSAGE(message_id=8097*)
    → "Thwee cheers for the Empwess!"
  2: 0x0009 [0x23] WAIT_FOR_DIALOG_INTERACTION
  3: 0x000A [0x5B] LOAD_EXT_SCHEDULER: Load scheduler "tlk0" with entities [EventEntity, EventEntity], work=75*
  4: 0x0019 [0x1D] PRINT_EVENT_MESSAGE(message_id=8098*)
    → "Don't I sound stwong? Just like an Imper-eel soldier, wight?"
  5: 0x001C [0x23] WAIT_FOR_DIALOG_INTERACTION
  6: 0x001D [0x1D] PRINT_EVENT_MESSAGE(message_id=8099*)
    → "Imper-eels are weally cool, but Serpent Generals are even cooler!"
  7: 0x0020 [0x23] WAIT_FOR_DIALOG_INTERACTION
  8: 0x0021 [0x5B] LOAD_EXT_SCHEDULER: Load scheduler "tlk1" with entities [EventEntity, EventEntity], work=75*
  9: 0x0030 [0x1D] PRINT_EVENT_MESSAGE(message_id=8100*)
    → "Someday I wanna see them do their magic. They can make a "seal," you know? I don't know what that is, but I'd like to see it!"
 10: 0x0033 [0x23] WAIT_FOR_DIALOG_INTERACTION
 11: 0x0034 [0x5B] LOAD_EXT_SCHEDULER: Load scheduler "tlk0" with entities [EventEntity, EventEntity], work=75*
 12: 0x0043 [0x1D] PRINT_EVENT_MESSAGE(message_id=8101*)
    → "But whenever I twy, my papa wuns after me and dwags me back home without any supper..."
 13: 0x0046 [0x23] WAIT_FOR_DIALOG_INTERACTION
 14: 0x0047 [0x21] END_EVENT
 15: 0x0048 [0x00] END_REQSTACK()
```
