# 16974301 - Gidappa

## Common Data

| Field            | Value             |
|------------------|-------------------|
| Zone             | Al Zahbi (ID: 48) |
| Block Size       | 1408 bytes        |
| Total Events     | 3                 |
| References Count | 41                |

## List of Events

| Event ID              | Entrypoint   |   Size |   Instructions |
|-----------------------|--------------|--------|----------------|
| [65535](#event-65535) | 0x0000       |      1 |              1 |
| [228](#event-228)     | 0x0001       |   1201 |            273 |
| [229](#event-229)     | 0x04B2       |     12 |              6 |

## DAT References (imed_data)

|   Index | Hex Value   |   Dec Value |
|---------|-------------|-------------|
|       0 | 0x1DA3      |        7587 |
|       1 | 0x40000000  |  1073741824 |
|       2 | 0x1D91      |        7569 |
|       3 | 0x0000      |           0 |
|       4 | 0x1DA4      |        7588 |
|       5 | 0x1D92      |        7570 |
|       6 | 0x0001      |           1 |
|       7 | 0x1DA5      |        7589 |
|       8 | 0x1D93      |        7571 |
|       9 | 0x1D94      |        7572 |
|      10 | 0x0002      |           2 |
|      11 | 0x1DA6      |        7590 |
|      12 | 0x1D95      |        7573 |
|      13 | 0x0003      |           3 |
|      14 | 0x0007      |           7 |
|      15 | 0x008C      |         140 |
|      16 | 0x000F      |          15 |
|      17 | 0x000A      |          10 |
|      18 | 0x1DA1      |        7585 |
|      19 | 0x0010      |          16 |
|      20 | 0x0004      |           4 |
|      21 | 0x0005      |           5 |
|      22 | 0x0006      |           6 |
|      23 | 0x0008      |           8 |
|      24 | 0x0009      |           9 |
|      25 | 0x000B      |          11 |
|      26 | 0x000C      |          12 |
|      27 | 0x000D      |          13 |
|      28 | 0x000E      |          14 |
|      29 | 0x0011      |          17 |
|      30 | 0x1DA2      |        7586 |
|      31 | 0x1D9A      |        7578 |
|      32 | 0x1D97      |        7575 |
|      33 | 0x1D9B      |        7579 |
|      34 | 0x1DA0      |        7584 |
|      35 | 0x1D9F      |        7583 |
|      36 | 0x1D9E      |        7582 |
|      37 | 0x1D9D      |        7581 |
|      38 | 0x1D9C      |        7580 |
|      39 | 0x1D99      |        7577 |
|      40 | 0x1D98      |        7576 |

## String References

- **7569**: Welcome to the [Fishermen's/Carpenters'/Blacksmiths'/Goldsmiths'/Weavers'/Tanners'/Boneworkers'/Alchemists'/Culinarians'] Guild! What are you here for?
- **7570**: Do you have a request? [Nothing./Synthesis image support./Advanced synthesis image support./Information on synthesis materials.]
- **7571**: Alright then, close your eyes...
- **7572**: You have to wait a bit longer before asking for synthesis image support again.
- **7573**: I require $7 before I can give you advanced image support.
- **7575**: $0? For that, you'll need...
- **7576**: You would like to make $0, would you? Well then, you'll need...
- **7577**: That's it!
- **7578**: Sorry, but I think you should make something more appropriate for your skill level.
- **7579**: Necessary skills: [Fishing/Woodworking/Smithing/Goldsmithing/Clothcraft/Leatherworking/Bonecraft/Alchemy/Cooking][ /, Woodworking/, Smithing/, Goldsmithing/, Clothcraft/, Leatherworking/, Bonecraft/, Alchemy/, Cooking][ /, Woodworking/, Smithing/, Goldsmithing/, Clothcraft/, Leatherworking/, Bonecraft/, Alchemy/, Cooking][ /, & Woodworking/, & Smithing/, & Goldsmithing/, & Clothcraft/, & Leatherworking/, & Bonecraft/, & Alchemy/, & Cooking] Necessary crystal: $4 Necessary items:
- **7580**: $4 x $0 $5 x $0$0 $6 x $0 $7 x $0$3
- **7581**: $4 x $0 $5 x $0$0 $6 x $0
- **7582**: $4 x $0 $5 x $0$0
- **7583**: $4 x $0
- **7584**: Necessary skills: [Fishing/Woodworking/Smithing/Goldsmithing/Clothcraft/Leatherworking/Bonecraft/Alchemy/Cooking][ /, Woodworking/, Smithing/, Goldsmithing/, Clothcraft/, Leatherworking/, Bonecraft/, Alchemy/, Cooking][ /, Woodworking/, Smithing/, Goldsmithing/, Clothcraft/, Leatherworking/, Bonecraft/, Alchemy/, Cooking][ /, & Woodworking/, & Smithing/, & Goldsmithing/, & Clothcraft/, & Leatherworking/, & Bonecraft/, & Alchemy/, & Cooking] Necessary crystal: $4 Necessary key item: $3 Necessary items:
- **7585**: Which rank of synthesis do you ask about? [Never mind./Amateur./Recruit./Initiate./Novice./Apprentice./Journeyman./Craftsman./Artisan./Adept./Veteran.]
- **7586**: Which synthesis recipe do you ask about? [None./%./$1./$2./$3./$4./$5./$6./$7./$8./$9./$10./$11./$12./$13./$14./$15./View more recipes.]
- **7587**: This is the [Fishermen's/Carpenters'/Blacksmiths'/Goldsmiths'/Weavers'/Tanners'/Boneworkers'/Alchemists'/Culinarians'] Guild. Sorry, but I can only lend my support to guild members.
- **7588**: Do you have a request? [Nothing./Fishing support./Advanced fishing support.]
- **7589**: Alright then, close your eyes...
- **7590**: I require $7 before I can give you advanced fishing support.

## Events

### Event 65535

#### Metadata

| Field        | Value   |
|--------------|---------|
| Entrypoint   | 0x0000  |
| Data Size    | 1 bytes |
| Instructions | 1       |

```
      00 01 02 03 04 05 06 07  08 09 0A 0B 0C 0D 0E 0F
      -- -- -- -- -- -- -- --  -- -- -- -- -- -- -- --
0000: 00                                                .               
```

#### Opcodes

```
  0: 0x0000 [0x00] END_REQSTACK()
```

### Event 228

#### Metadata

| Field        | Value      |
|--------------|------------|
| Entrypoint   | 0x0001     |
| Data Size    | 1201 bytes |
| Instructions | 237        |

```
      00 01 02 03 04 05 06 07  08 09 0A 0B 0C 0D 0E 0F
      -- -- -- -- -- -- -- --  -- -- -- -- -- -- -- --
0000:    1E F0 FF FF 7F 3E 05  10 08 10 10 00 01 1B 00   .....>.........
0010: 1D 00 80 23 03 01 10 01  80 21 00 1D 02 80 23 02  ...#.....!....#.
0020: 08 10 03 80 00 3D 00 24  04 80 03 80 02 10 25 02  .....=.$......%.
0030: 00 10 03 80 00 3A 00 01  3A 00 01 50 00 24 05 80  .....:..:..P.$..
0040: 03 80 02 10 25 02 00 10  03 80 00 50 00 01 50 00  ....%......P..P.
0050: 02 00 10 03 80 80 62 00  03 01 10 01 80 21 00 01  ......b......!..
0060: B0 04 02 00 10 06 80 80  99 00 02 07 10 03 80 00  ................
0070: 8D 00 02 08 10 03 80 00  81 00 1D 07 80 23 01 85  .............#..
0080: 00 1D 08 80 23 03 01 10  06 80 01 94 00 1D 09 80  ....#...........
0090: 23 06 01 10 21 00 01 B0  04 02 00 10 0A 80 80 BE  #...!...........
00A0: 00 03 01 10 01 80 02 08  10 03 80 00 B5 00 1D 0B  ................
00B0: 80 23 01 B9 00 1D 0C 80  23 21 00 01 B0 04 02 00  .#......#!......
00C0: 10 0D 80 80 B0 04 02 04  10 0A 80 00 A6 03 03 08  ................
00D0: 10 0E 80 03 03 00 08 10  03 05 00 03 10 06 00 00  ................
00E0: 03 02 00 0F 80 03 01 00  10 80 02 03 10 02 00 05  ................
00F0: FC 00 3C 00 00 01 00 06  80 01 FF 00 01 12 01 02  ..<.............
0100: 01 00 0A 80 02 12 01 0C  01 00 08 02 00 11 80 01  ................
0110: EA 00 24 12 80 03 80 00  00 25 02 00 10 03 80 00  ..$......%......
0120: 2C 01 03 01 10 01 80 21  00 01 2C 01 03 04 00 00  ,......!..,.....
0130: 10 0C 04 00 03 06 00 03  80 03 07 00 13 80 8C 02  ................
0140: 03 00 05 00 04 00 06 00  07 00 8C 01 03 00 00 03  ................
0150: 80 02 02 10 03 80 00 5F  01 06 40 10 01 9A 02 02  ......._..@.....
0160: 03 10 03 80 00 6E 01 3C  00 00 0A 80 06 80 02 04  .....n.<........
0170: 10 03 80 00 7D 01 3C 00  00 0D 80 06 80 02 05 10  ....}.<.........
0180: 03 80 00 8C 01 3C 00 00  14 80 06 80 02 06 10 03  .....<..........
0190: 80 00 9B 01 3C 00 00 15  80 06 80 02 07 10 03 80  ....<...........
01A0: 00 AA 01 3C 00 00 16 80  06 80 02 08 10 03 80 00  ...<............
01B0: B9 01 3C 00 00 0E 80 06  80 02 09 10 03 80 00 C8  ..<.............
01C0: 01 3C 00 00 17 80 06 80  02 00 17 03 80 00 D7 01  .<..............
01D0: 3C 00 00 18 80 06 80 02  01 17 03 80 00 E6 01 3C  <..............<
01E0: 00 00 11 80 06 80 02 02  17 03 80 00 F5 01 3C 00  ..............<.
01F0: 00 19 80 06 80 02 03 17  03 80 00 04 02 3C 00 00  .............<..
0200: 1A 80 06 80 02 04 17 03  80 00 13 02 3C 00 00 1B  ............<...
0210: 80 06 80 02 05 17 03 80  00 22 02 3C 00 00 1C 80  .........".<....
0220: 06 80 02 06 17 03 80 00  31 02 3C 00 00 10 80 06  ........1.<.....
0230: 80 02 07 17 03 80 00 40  02 3C 00 00 13 80 06 80  .......@.<......
0240: 02 08 17 03 80 00 4F 02  3C 00 00 1D 80 06 80 24  ......O.<......$
0250: 1E 80 03 80 00 00 25 02  00 10 03 80 00 69 02 03  ......%......i..
0260: 01 10 01 80 21 00 01 81  02 02 00 10 1D 80 00 81  ....!...........
0270: 02 07 06 00 13 80 07 07  00 13 80 01 3E 01 01 81  ............>...
0280: 02 03 08 00 06 00 07 08  00 00 10 0C 08 00 8C 03  ................
0290: 03 00 05 00 04 00 08 00  8C 01 02 40 10 03 80 00  ...........@....
02A0: A8 02 1D 1F 80 23 21 00  03 02 10 40 10 1D 20 80  .....#!....@.. .
02B0: 23 03 08 10 0E 80 03 03  10 41 10 03 04 10 42 10  #........A....B.
02C0: 03 05 10 43 10 03 06 10  44 10 03 07 10 55 10 02  ...C....D....U..
02D0: 07 10 03 80 00 DE 02 48  21 80 23 01 E2 02 48 22  .......H!.#...H"
02E0: 80 23 03 02 10 45 10 03  03 10 46 10 03 04 10 47  .#...E....F....G
02F0: 10 03 05 10 48 10 03 06  10 4D 10 03 07 10 4E 10  ....H....M....N.
0300: 03 08 10 4F 10 03 09 10  50 10 02 07 10 03 80 00  ...O....P.......
0310: 19 03 48 23 80 23 01 9F  03 02 08 10 03 80 00 28  ..H#.#.........(
0320: 03 48 24 80 23 01 9F 03  02 09 10 03 80 00 37 03  .H$.#.........7.
0330: 48 25 80 23 01 9F 03 48  26 80 23 03 02 10 49 10  H%.#...H&.#...I.
0340: 03 03 10 4A 10 03 04 10  4B 10 03 05 10 4C 10 03  ...J....K....L..
0350: 06 10 51 10 03 07 10 52  10 03 08 10 53 10 03 09  ..Q....R....S...
0360: 10 54 10 02 06 10 03 80  00 6E 03 01 9F 03 02 07  .T.......n......
0370: 10 03 80 00 7D 03 48 23  80 23 01 9F 03 02 08 10  ....}.H#.#......
0380: 03 80 00 8C 03 48 24 80  23 01 9F 03 02 09 10 03  .....H$.#.......
0390: 80 00 9B 03 48 25 80 23  01 9F 03 48 26 80 23 1D  ....H%.#...H&.#.
03A0: 27 80 23 01 AB 04 03 08  10 0E 80 8C 00 08 10 03  '.#.............
03B0: 10 04 10 8C 01 03 02 10  40 10 1D 28 80 23 03 03  ........@..(.#..
03C0: 10 41 10 03 04 10 42 10  03 05 10 43 10 03 06 10  .A....B....C....
03D0: 44 10 03 07 10 55 10 02  07 10 03 80 00 E6 03 48  D....U.........H
03E0: 21 80 23 01 EA 03 48 22  80 23 03 02 10 45 10 03  !.#...H".#...E..
03F0: 03 10 46 10 03 04 10 47  10 03 05 10 48 10 03 06  ..F....G....H...
0400: 10 4D 10 03 07 10 4E 10  03 08 10 4F 10 03 09 10  .M....N....O....
0410: 50 10 02 07 10 03 80 00  21 04 48 23 80 23 01 A7  P.......!.H#.#..
0420: 04 02 08 10 03 80 00 30  04 48 24 80 23 01 A7 04  .......0.H$.#...
0430: 02 09 10 03 80 00 3F 04  48 25 80 23 01 A7 04 48  ......?.H%.#...H
0440: 26 80 23 03 02 10 49 10  03 03 10 4A 10 03 04 10  &.#...I....J....
0450: 4B 10 03 05 10 4C 10 03  06 10 51 10 03 07 10 52  K....L....Q....R
0460: 10 03 08 10 53 10 03 09  10 54 10 02 06 10 03 80  ....S....T......
0470: 00 76 04 01 A7 04 02 07  10 03 80 00 85 04 48 23  .v............H#
0480: 80 23 01 A7 04 02 08 10  03 80 00 94 04 48 24 80  .#...........H$.
0490: 23 01 A7 04 02 09 10 03  80 00 A3 04 48 25 80 23  #...........H%.#
04A0: 01 A7 04 48 26 80 23 1D  27 80 23 21 00 01 B0 04  ...H&.#.'.#!....
04B0: 00 00                                             ..              
```

#### Opcodes

```
  0: 0x0001 [0x1E] EventEntity looks at LocalPlayer and starts talking
  1: 0x0006 [0x3E] IF !(Work_Zone[5] bit Work_Zone[8]) GOTO 0x0010
  2: 0x000D [0x01] GOTO 0x001B
  3: 0x0010 [0x1D] PRINT_EVENT_MESSAGE(message_id=7587*)
    → "This is the [Fishermen's/Carpenters'/Blacksmiths'/Goldsmiths'/Weavers'/Tanners'/Boneworkers'/Alchemists'/Culinarians'] Guild. Sorry, but I can only lend my support to guild members."
  4: 0x0013 [0x23] WAIT_FOR_DIALOG_INTERACTION
  5: 0x0014 [0x03] Work_Zone[1] = 1073741824*
  6: 0x0019 [0x21] END_EVENT
  7: 0x001A [0x00] END_REQSTACK()

SUBROUTINE_001B:
  8: 0x001B [0x1D] PRINT_EVENT_MESSAGE(message_id=7569*)
    → "Welcome to the [Fishermen's/Carpenters'/Blacksmiths'/Goldsmiths'/Weavers'/Tanners'/Boneworkers'/Alchemists'/Culinarians'] Guild! What are you here for?"
  9: 0x001E [0x23] WAIT_FOR_DIALOG_INTERACTION
 10: 0x001F [0x02] IF !(Work_Zone[8] == 0*) GOTO 0x003D
 11: 0x0027 [0x24] CREATE_DIALOG(message_id=7588*, default_option=0*, option_flags=Work_Zone[2])
    → "Do you have a request? [Nothing./Fishing support./Advanced fishing support.]"
 12: 0x002E [0x25] WAIT_DIALOG_SELECT()
 13: 0x002F [0x02] IF !(Work_Zone[0] == 0*) GOTO 0x003A
 14: 0x0037 [0x01] GOTO 0x003A

SUBROUTINE_003A:
 15: 0x003A [0x01] GOTO 0x0050
 16: 0x003D [0x24] CREATE_DIALOG(message_id=7570*, default_option=0*, option_flags=Work_Zone[2])
    → "Do you have a request? [Nothing./Synthesis image support./Advanced synthesis image support./Information on synthesis materials.]"
 17: 0x0044 [0x25] WAIT_DIALOG_SELECT()
 18: 0x0045 [0x02] IF !(Work_Zone[0] == 0*) GOTO 0x0050
 19: 0x004D [0x01] GOTO 0x0050

SUBROUTINE_0050:
 20: 0x0050 [0x02] IF !(Work_Zone[0] == 0*) GOTO 0x0062
 21: 0x0058 [0x03] Work_Zone[1] = 1073741824*
 22: 0x005D [0x21] END_EVENT
 23: 0x005E [0x00] END_REQSTACK()

SUBROUTINE_0085:
 24: 0x0085 [0x03] Work_Zone[1] = 1*
 25: 0x008A [0x01] GOTO 0x0094
 26: 0x008D [0x1D] PRINT_EVENT_MESSAGE(message_id=7572*)
    → "You have to wait a bit longer before asking for synthesis image support again."
 27: 0x0090 [0x23] WAIT_FOR_DIALOG_INTERACTION
 28: 0x0091 [0x06] Work_Zone[1] = 0

SUBROUTINE_0094:
 29: 0x0094 [0x21] END_EVENT
 30: 0x0095 [0x00] END_REQSTACK()

SUBROUTINE_00B9:
 31: 0x00B9 [0x21] END_EVENT
 32: 0x00BA [0x00] END_REQSTACK()

SUBROUTINE_00EA:
 33: 0x00EA [0x02] IF !(Work_Zone[3] > ExtData[1]->WorkLocal[2]) GOTO 0x00FC
 34: 0x00F2 [0x3C] SET_BIT_FLAG_CONDITIONAL(target_work_offset=ExtData[1]->WorkLocal[0], bit_index_work_offset=ExtData[1]->WorkLocal[1], condition_work_offset=1*)
 35: 0x00F9 [0x01] GOTO 0x00FF
 36: 0x00FC [0x01] GOTO 0x0112

SUBROUTINE_00FF:
 37: 0x00FF [0x02] IF !(ExtData[1]->WorkLocal[1] <= 2*) GOTO 0x0112
 38: 0x0107 [0x0C] ExtData[1]->WorkLocal[1]--
 39: 0x010A [0x08] ExtData[1]->WorkLocal[2] -= 10*
 40: 0x010F [0x01] GOTO 0x00EA

SUBROUTINE_0112:
 41: 0x0112 [0x24] CREATE_DIALOG(message_id=7585*, default_option=0*, option_flags=ExtData[1]->WorkLocal[0])
    → "Which rank of synthesis do you ask about? [Never mind./Amateur./Recruit./Initiate./Novice./Apprentice./Journeyman./Craftsman./Artisan./Adept./Veteran.]"
 42: 0x0119 [0x25] WAIT_DIALOG_SELECT()
 43: 0x011A [0x02] IF !(Work_Zone[0] == 0*) GOTO 0x012C
 44: 0x0122 [0x03] Work_Zone[1] = 1073741824*
 45: 0x0127 [0x21] END_EVENT
 46: 0x0128 [0x00] END_REQSTACK()

SUBROUTINE_012C:
 47: 0x012C [0x03] ExtData[1]->WorkLocal[4] = Work_Zone[0]
 48: 0x0131 [0x0C] ExtData[1]->WorkLocal[4]--
 49: 0x0134 [0x03] ExtData[1]->WorkLocal[6] = 0*
 50: 0x0139 [0x03] ExtData[1]->WorkLocal[7] = 16*

SUBROUTINE_013E:
 51: 0x013E [0x8C] CRAFTING_HANDLER(mode=0x02) // Set recipe data
 52: 0x014A [0x8C] CRAFTING_HANDLER(mode=0x01) // End crafting session
 53: 0x014C [0x03] ExtData[1]->WorkLocal[0] = 0*
 54: 0x0151 [0x02] IF !(Work_Zone[2] == 0*) GOTO 0x015F
 55: 0x0159 [0x06] Work_Zone[64] = 0
 56: 0x015C [0x01] GOTO 0x029A
 57: 0x015F [0x02] IF !(Work_Zone[3] == 0*) GOTO 0x016E
 58: 0x0167 [0x3C] SET_BIT_FLAG_CONDITIONAL(target_work_offset=ExtData[1]->WorkLocal[0], bit_index_work_offset=2*, condition_work_offset=1*)
 59: 0x016E [0x02] IF !(Work_Zone[4] == 0*) GOTO 0x017D
 60: 0x0176 [0x3C] SET_BIT_FLAG_CONDITIONAL(target_work_offset=ExtData[1]->WorkLocal[0], bit_index_work_offset=3*, condition_work_offset=1*)
 61: 0x017D [0x02] IF !(Work_Zone[5] == 0*) GOTO 0x018C
 62: 0x0185 [0x3C] SET_BIT_FLAG_CONDITIONAL(target_work_offset=ExtData[1]->WorkLocal[0], bit_index_work_offset=4*, condition_work_offset=1*)
 63: 0x018C [0x02] IF !(Work_Zone[6] == 0*) GOTO 0x019B
 64: 0x0194 [0x3C] SET_BIT_FLAG_CONDITIONAL(target_work_offset=ExtData[1]->WorkLocal[0], bit_index_work_offset=5*, condition_work_offset=1*)
 65: 0x019B [0x02] IF !(Work_Zone[7] == 0*) GOTO 0x01AA
 66: 0x01A3 [0x3C] SET_BIT_FLAG_CONDITIONAL(target_work_offset=ExtData[1]->WorkLocal[0], bit_index_work_offset=6*, condition_work_offset=1*)
 67: 0x01AA [0x02] IF !(Work_Zone[8] == 0*) GOTO 0x01B9
 68: 0x01B2 [0x3C] SET_BIT_FLAG_CONDITIONAL(target_work_offset=ExtData[1]->WorkLocal[0], bit_index_work_offset=7*, condition_work_offset=1*)
 69: 0x01B9 [0x02] IF !(Work_Zone[9] == 0*) GOTO 0x01C8
 70: 0x01C1 [0x3C] SET_BIT_FLAG_CONDITIONAL(target_work_offset=ExtData[1]->WorkLocal[0], bit_index_work_offset=8*, condition_work_offset=1*)
 71: 0x01C8 [0x02] IF !(Work_Zone_1700[0] == 0*) GOTO 0x01D7
 72: 0x01D0 [0x3C] SET_BIT_FLAG_CONDITIONAL(target_work_offset=ExtData[1]->WorkLocal[0], bit_index_work_offset=9*, condition_work_offset=1*)
 73: 0x01D7 [0x02] IF !(Work_Zone_1700[1] == 0*) GOTO 0x01E6
 74: 0x01DF [0x3C] SET_BIT_FLAG_CONDITIONAL(target_work_offset=ExtData[1]->WorkLocal[0], bit_index_work_offset=10*, condition_work_offset=1*)
 75: 0x01E6 [0x02] IF !(Work_Zone_1700[2] == 0*) GOTO 0x01F5
 76: 0x01EE [0x3C] SET_BIT_FLAG_CONDITIONAL(target_work_offset=ExtData[1]->WorkLocal[0], bit_index_work_offset=11*, condition_work_offset=1*)
 77: 0x01F5 [0x02] IF !(Work_Zone_1700[3] == 0*) GOTO 0x0204
 78: 0x01FD [0x3C] SET_BIT_FLAG_CONDITIONAL(target_work_offset=ExtData[1]->WorkLocal[0], bit_index_work_offset=12*, condition_work_offset=1*)
 79: 0x0204 [0x02] IF !(Work_Zone_1700[4] == 0*) GOTO 0x0213
 80: 0x020C [0x3C] SET_BIT_FLAG_CONDITIONAL(target_work_offset=ExtData[1]->WorkLocal[0], bit_index_work_offset=13*, condition_work_offset=1*)
 81: 0x0213 [0x02] IF !(Work_Zone_1700[5] == 0*) GOTO 0x0222
 82: 0x021B [0x3C] SET_BIT_FLAG_CONDITIONAL(target_work_offset=ExtData[1]->WorkLocal[0], bit_index_work_offset=14*, condition_work_offset=1*)
 83: 0x0222 [0x02] IF !(Work_Zone_1700[6] == 0*) GOTO 0x0231
 84: 0x022A [0x3C] SET_BIT_FLAG_CONDITIONAL(target_work_offset=ExtData[1]->WorkLocal[0], bit_index_work_offset=15*, condition_work_offset=1*)
 85: 0x0231 [0x02] IF !(Work_Zone_1700[7] == 0*) GOTO 0x0240
 86: 0x0239 [0x3C] SET_BIT_FLAG_CONDITIONAL(target_work_offset=ExtData[1]->WorkLocal[0], bit_index_work_offset=16*, condition_work_offset=1*)
 87: 0x0240 [0x02] IF !(Work_Zone_1700[8] == 0*) GOTO 0x024F
 88: 0x0248 [0x3C] SET_BIT_FLAG_CONDITIONAL(target_work_offset=ExtData[1]->WorkLocal[0], bit_index_work_offset=17*, condition_work_offset=1*)
 89: 0x024F [0x24] CREATE_DIALOG(message_id=7586*, default_option=0*, option_flags=ExtData[1]->WorkLocal[0])
    → "Which synthesis recipe do you ask about? [None./%./$1./$2./$3./$4./$5./$6./$7./$8./$9./$10./$11./$12./$13./$14./$15./View more recipes.]"
 90: 0x0256 [0x25] WAIT_DIALOG_SELECT()
 91: 0x0257 [0x02] IF !(Work_Zone[0] == 0*) GOTO 0x0269
 92: 0x025F [0x03] Work_Zone[1] = 1073741824*
 93: 0x0264 [0x21] END_EVENT
 94: 0x0265 [0x00] END_REQSTACK()

SUBROUTINE_0281:
 95: 0x0281 [0x03] ExtData[1]->WorkLocal[8] = ExtData[1]->WorkLocal[6]
 96: 0x0286 [0x07] ExtData[1]->WorkLocal[8] += Work_Zone[0]
 97: 0x028B [0x0C] ExtData[1]->WorkLocal[8]--
 98: 0x028E [0x8C] CRAFTING_HANDLER(mode=0x03) // Get synthesis recipe
 99: 0x0298 [0x8C] CRAFTING_HANDLER(mode=0x01) // End crafting session

SUBROUTINE_029A:
100: 0x029A [0x02] IF !(Work_Zone[64] == 0*) GOTO 0x02A8
101: 0x02A2 [0x1D] PRINT_EVENT_MESSAGE(message_id=7578*)
    → "Sorry, but I think you should make something more appropriate for your skill level."
102: 0x02A5 [0x23] WAIT_FOR_DIALOG_INTERACTION
103: 0x02A6 [0x21] END_EVENT
104: 0x02A7 [0x00] END_REQSTACK()
105: 0x02A8 [0x03] Work_Zone[2] = Work_Zone[64]
106: 0x02AD [0x1D] PRINT_EVENT_MESSAGE(message_id=7575*)
    → "$0? For that, you'll need..."
107: 0x02B0 [0x23] WAIT_FOR_DIALOG_INTERACTION
108: 0x02B1 [0x03] Work_Zone[8] = 7*
109: 0x02B6 [0x03] Work_Zone[3] = Work_Zone[65]
110: 0x02BB [0x03] Work_Zone[4] = Work_Zone[66]
111: 0x02C0 [0x03] Work_Zone[5] = Work_Zone[67]
112: 0x02C5 [0x03] Work_Zone[6] = Work_Zone[68]
113: 0x02CA [0x03] Work_Zone[7] = Work_Zone[85]
114: 0x02CF [0x02] IF !(Work_Zone[7] == 0*) GOTO 0x02DE
115: 0x02D7 [0x48] [System] [7579*]:
    → "Necessary skills: [Fishing/Woodworking/Smithing/Goldsmithing/Clothcraft/Leatherworking/Bonecraft/Alchemy/Cooking][ /, Woodworking/, Smithing/, Goldsmithing/, Clothcraft/, Leatherworking/, Bonecraft/, Alchemy/, Cooking][ /, Woodworking/, Smithing/, Goldsmithing/, Clothcraft/, Leatherworking/, Bonecraft/, Alchemy/, Cooking][ /, & Woodworking/, & Smithing/, & Goldsmithing/, & Clothcraft/, & Leatherworking/, & Bonecraft/, & Alchemy/, & Cooking] Necessary crystal: $4 Necessary items:"
116: 0x02DA [0x23] WAIT_FOR_DIALOG_INTERACTION
117: 0x02DB [0x01] GOTO 0x02E2
118: 0x02DE [0x48] [System] [7584*]:
    → "Necessary skills: [Fishing/Woodworking/Smithing/Goldsmithing/Clothcraft/Leatherworking/Bonecraft/Alchemy/Cooking][ /, Woodworking/, Smithing/, Goldsmithing/, Clothcraft/, Leatherworking/, Bonecraft/, Alchemy/, Cooking][ /, Woodworking/, Smithing/, Goldsmithing/, Clothcraft/, Leatherworking/, Bonecraft/, Alchemy/, Cooking][ /, & Woodworking/, & Smithing/, & Goldsmithing/, & Clothcraft/, & Leatherworking/, & Bonecraft/, & Alchemy/, & Cooking] Necessary crystal: $4 Necessary key item: $3 Necessary items:"
119: 0x02E1 [0x23] WAIT_FOR_DIALOG_INTERACTION

SUBROUTINE_02E2:
120: 0x02E2 [0x03] Work_Zone[2] = Work_Zone[69]
121: 0x02E7 [0x03] Work_Zone[3] = Work_Zone[70]
122: 0x02EC [0x03] Work_Zone[4] = Work_Zone[71]
123: 0x02F1 [0x03] Work_Zone[5] = Work_Zone[72]
124: 0x02F6 [0x03] Work_Zone[6] = Work_Zone[77]
125: 0x02FB [0x03] Work_Zone[7] = Work_Zone[78]
126: 0x0300 [0x03] Work_Zone[8] = Work_Zone[79]
127: 0x0305 [0x03] Work_Zone[9] = Work_Zone[80]
128: 0x030A [0x02] IF !(Work_Zone[7] == 0*) GOTO 0x0319
129: 0x0312 [0x48] [System] [7583*]:
    → "$4 x $0"
130: 0x0315 [0x23] WAIT_FOR_DIALOG_INTERACTION
131: 0x0316 [0x01] GOTO 0x039F
132: 0x0319 [0x02] IF !(Work_Zone[8] == 0*) GOTO 0x0328
133: 0x0321 [0x48] [System] [7582*]:
    → "$4 x $0 $5 x $0$0"
134: 0x0324 [0x23] WAIT_FOR_DIALOG_INTERACTION
135: 0x0325 [0x01] GOTO 0x039F
136: 0x0328 [0x02] IF !(Work_Zone[9] == 0*) GOTO 0x0337
137: 0x0330 [0x48] [System] [7581*]:
    → "$4 x $0 $5 x $0$0 $6 x $0"
138: 0x0333 [0x23] WAIT_FOR_DIALOG_INTERACTION
139: 0x0334 [0x01] GOTO 0x039F
140: 0x0337 [0x48] [System] [7580*]:
    → "$4 x $0 $5 x $0$0 $6 x $0 $7 x $0$3"
141: 0x033A [0x23] WAIT_FOR_DIALOG_INTERACTION
142: 0x033B [0x03] Work_Zone[2] = Work_Zone[73]
143: 0x0340 [0x03] Work_Zone[3] = Work_Zone[74]
144: 0x0345 [0x03] Work_Zone[4] = Work_Zone[75]
145: 0x034A [0x03] Work_Zone[5] = Work_Zone[76]
146: 0x034F [0x03] Work_Zone[6] = Work_Zone[81]
147: 0x0354 [0x03] Work_Zone[7] = Work_Zone[82]
148: 0x0359 [0x03] Work_Zone[8] = Work_Zone[83]
149: 0x035E [0x03] Work_Zone[9] = Work_Zone[84]
150: 0x0363 [0x02] IF !(Work_Zone[6] == 0*) GOTO 0x036E
151: 0x036B [0x01] GOTO 0x039F
152: 0x036E [0x02] IF !(Work_Zone[7] == 0*) GOTO 0x037D
153: 0x0376 [0x48] [System] [7583*]:
    → "$4 x $0"
154: 0x0379 [0x23] WAIT_FOR_DIALOG_INTERACTION
155: 0x037A [0x01] GOTO 0x039F
156: 0x037D [0x02] IF !(Work_Zone[8] == 0*) GOTO 0x038C
157: 0x0385 [0x48] [System] [7582*]:
    → "$4 x $0 $5 x $0$0"
158: 0x0388 [0x23] WAIT_FOR_DIALOG_INTERACTION
159: 0x0389 [0x01] GOTO 0x039F
160: 0x038C [0x02] IF !(Work_Zone[9] == 0*) GOTO 0x039B
161: 0x0394 [0x48] [System] [7581*]:
    → "$4 x $0 $5 x $0$0 $6 x $0"
162: 0x0397 [0x23] WAIT_FOR_DIALOG_INTERACTION
163: 0x0398 [0x01] GOTO 0x039F
164: 0x039B [0x48] [System] [7580*]:
    → "$4 x $0 $5 x $0$0 $6 x $0 $7 x $0$3"
165: 0x039E [0x23] WAIT_FOR_DIALOG_INTERACTION

SUBROUTINE_039F:
166: 0x039F [0x1D] PRINT_EVENT_MESSAGE(message_id=7577*)
    → "That's it!"
167: 0x03A2 [0x23] WAIT_FOR_DIALOG_INTERACTION
168: 0x03A3 [0x01] GOTO 0x04AB
169: 0x03A6 [0x03] Work_Zone[8] = 7*
170: 0x03AB [0x8C] CRAFTING_HANDLER(mode=0x00) // Initialize crafting session
171: 0x03B3 [0x8C] CRAFTING_HANDLER(mode=0x01) // End crafting session
172: 0x03B5 [0x03] Work_Zone[2] = Work_Zone[64]
173: 0x03BA [0x1D] PRINT_EVENT_MESSAGE(message_id=7576*)
    → "You would like to make $0, would you? Well then, you'll need..."
174: 0x03BD [0x23] WAIT_FOR_DIALOG_INTERACTION
175: 0x03BE [0x03] Work_Zone[3] = Work_Zone[65]
176: 0x03C3 [0x03] Work_Zone[4] = Work_Zone[66]
177: 0x03C8 [0x03] Work_Zone[5] = Work_Zone[67]
178: 0x03CD [0x03] Work_Zone[6] = Work_Zone[68]
179: 0x03D2 [0x03] Work_Zone[7] = Work_Zone[85]
180: 0x03D7 [0x02] IF !(Work_Zone[7] == 0*) GOTO 0x03E6
181: 0x03DF [0x48] [System] [7579*]:
    → "Necessary skills: [Fishing/Woodworking/Smithing/Goldsmithing/Clothcraft/Leatherworking/Bonecraft/Alchemy/Cooking][ /, Woodworking/, Smithing/, Goldsmithing/, Clothcraft/, Leatherworking/, Bonecraft/, Alchemy/, Cooking][ /, Woodworking/, Smithing/, Goldsmithing/, Clothcraft/, Leatherworking/, Bonecraft/, Alchemy/, Cooking][ /, & Woodworking/, & Smithing/, & Goldsmithing/, & Clothcraft/, & Leatherworking/, & Bonecraft/, & Alchemy/, & Cooking] Necessary crystal: $4 Necessary items:"
182: 0x03E2 [0x23] WAIT_FOR_DIALOG_INTERACTION
183: 0x03E3 [0x01] GOTO 0x03EA
184: 0x03E6 [0x48] [System] [7584*]:
    → "Necessary skills: [Fishing/Woodworking/Smithing/Goldsmithing/Clothcraft/Leatherworking/Bonecraft/Alchemy/Cooking][ /, Woodworking/, Smithing/, Goldsmithing/, Clothcraft/, Leatherworking/, Bonecraft/, Alchemy/, Cooking][ /, Woodworking/, Smithing/, Goldsmithing/, Clothcraft/, Leatherworking/, Bonecraft/, Alchemy/, Cooking][ /, & Woodworking/, & Smithing/, & Goldsmithing/, & Clothcraft/, & Leatherworking/, & Bonecraft/, & Alchemy/, & Cooking] Necessary crystal: $4 Necessary key item: $3 Necessary items:"
185: 0x03E9 [0x23] WAIT_FOR_DIALOG_INTERACTION

SUBROUTINE_03EA:
186: 0x03EA [0x03] Work_Zone[2] = Work_Zone[69]
187: 0x03EF [0x03] Work_Zone[3] = Work_Zone[70]
188: 0x03F4 [0x03] Work_Zone[4] = Work_Zone[71]
189: 0x03F9 [0x03] Work_Zone[5] = Work_Zone[72]
190: 0x03FE [0x03] Work_Zone[6] = Work_Zone[77]
191: 0x0403 [0x03] Work_Zone[7] = Work_Zone[78]
192: 0x0408 [0x03] Work_Zone[8] = Work_Zone[79]
193: 0x040D [0x03] Work_Zone[9] = Work_Zone[80]
194: 0x0412 [0x02] IF !(Work_Zone[7] == 0*) GOTO 0x0421
195: 0x041A [0x48] [System] [7583*]:
    → "$4 x $0"
196: 0x041D [0x23] WAIT_FOR_DIALOG_INTERACTION
197: 0x041E [0x01] GOTO 0x04A7
198: 0x0421 [0x02] IF !(Work_Zone[8] == 0*) GOTO 0x0430
199: 0x0429 [0x48] [System] [7582*]:
    → "$4 x $0 $5 x $0$0"
200: 0x042C [0x23] WAIT_FOR_DIALOG_INTERACTION
201: 0x042D [0x01] GOTO 0x04A7
202: 0x0430 [0x02] IF !(Work_Zone[9] == 0*) GOTO 0x043F
203: 0x0438 [0x48] [System] [7581*]:
    → "$4 x $0 $5 x $0$0 $6 x $0"
204: 0x043B [0x23] WAIT_FOR_DIALOG_INTERACTION
205: 0x043C [0x01] GOTO 0x04A7
206: 0x043F [0x48] [System] [7580*]:
    → "$4 x $0 $5 x $0$0 $6 x $0 $7 x $0$3"
207: 0x0442 [0x23] WAIT_FOR_DIALOG_INTERACTION
208: 0x0443 [0x03] Work_Zone[2] = Work_Zone[73]
209: 0x0448 [0x03] Work_Zone[3] = Work_Zone[74]
210: 0x044D [0x03] Work_Zone[4] = Work_Zone[75]
211: 0x0452 [0x03] Work_Zone[5] = Work_Zone[76]
212: 0x0457 [0x03] Work_Zone[6] = Work_Zone[81]
213: 0x045C [0x03] Work_Zone[7] = Work_Zone[82]
214: 0x0461 [0x03] Work_Zone[8] = Work_Zone[83]
215: 0x0466 [0x03] Work_Zone[9] = Work_Zone[84]
216: 0x046B [0x02] IF !(Work_Zone[6] == 0*) GOTO 0x0476
217: 0x0473 [0x01] GOTO 0x04A7
218: 0x0476 [0x02] IF !(Work_Zone[7] == 0*) GOTO 0x0485
219: 0x047E [0x48] [System] [7583*]:
    → "$4 x $0"
220: 0x0481 [0x23] WAIT_FOR_DIALOG_INTERACTION
221: 0x0482 [0x01] GOTO 0x04A7
222: 0x0485 [0x02] IF !(Work_Zone[8] == 0*) GOTO 0x0494
223: 0x048D [0x48] [System] [7582*]:
    → "$4 x $0 $5 x $0$0"
224: 0x0490 [0x23] WAIT_FOR_DIALOG_INTERACTION
225: 0x0491 [0x01] GOTO 0x04A7
226: 0x0494 [0x02] IF !(Work_Zone[9] == 0*) GOTO 0x04A3
227: 0x049C [0x48] [System] [7581*]:
    → "$4 x $0 $5 x $0$0 $6 x $0"
228: 0x049F [0x23] WAIT_FOR_DIALOG_INTERACTION
229: 0x04A0 [0x01] GOTO 0x04A7
230: 0x04A3 [0x48] [System] [7580*]:
    → "$4 x $0 $5 x $0$0 $6 x $0 $7 x $0$3"
231: 0x04A6 [0x23] WAIT_FOR_DIALOG_INTERACTION

SUBROUTINE_04A7:
232: 0x04A7 [0x1D] PRINT_EVENT_MESSAGE(message_id=7577*)
    → "That's it!"
233: 0x04AA [0x23] WAIT_FOR_DIALOG_INTERACTION

SUBROUTINE_04AB:
234: 0x04AB [0x21] END_EVENT
235: 0x04AC [0x00] END_REQSTACK()

SUBROUTINE_04B0:
236: 0x04B0 [0x00] END_REQSTACK()
```

#### Data or dead code:

```
# Dead code (unreachable instructions):
     0x005F [0x01] GOTO 0x04B0
# Dead code (unreachable instructions):
     0x0096 [0x01] GOTO 0x04B0
# Dead code (unreachable instructions):
     0x00BB [0x01] GOTO 0x04B0
# Dead code (unreachable instructions):
     0x0129 [0x01] GOTO 0x012C
# Dead code (unreachable instructions):
     0x0266 [0x01] GOTO 0x0281
     0x027E [0x01] GOTO 0x0281
# Dead code (unreachable instructions):
     0x04AD [0x01] GOTO 0x04B0
# Dead code (unreachable instructions):
     0x04B1 [0x00] END_REQSTACK()
```

### Event 229

#### Metadata

| Field        | Value    |
|--------------|----------|
| Entrypoint   | 0x04B2   |
| Data Size    | 12 bytes |
| Instructions | 5        |

```
      00 01 02 03 04 05 06 07  08 09 0A 0B 0C 0D 0E 0F
      -- -- -- -- -- -- -- --  -- -- -- -- -- -- -- --
04B0:       1E F0 FF FF 7F 1D  08 80 23 21 00 00          ........#!..  
```

#### Opcodes

```
  0: 0x04B2 [0x1E] EventEntity looks at LocalPlayer and starts talking
  1: 0x04B7 [0x1D] PRINT_EVENT_MESSAGE(message_id=7571*)
    → "Alright then, close your eyes..."
  2: 0x04BA [0x23] WAIT_FOR_DIALOG_INTERACTION
  3: 0x04BB [0x21] END_EVENT
  4: 0x04BC [0x00] END_REQSTACK()
```

#### Data or dead code:

```
# Dead code (unreachable instructions):
     0x04BD [0x00] END_REQSTACK()
```
