# 16974382 - Sujyahn

## Common Data

| Field            | Value             |
|------------------|-------------------|
| Zone             | Al Zahbi (ID: 48) |
| Block Size       | 80 bytes          |
| Total Events     | 2                 |
| References Count | 4                 |

## List of Events

| Event ID              | Entrypoint   |   Size |   Instructions |
|-----------------------|--------------|--------|----------------|
| [65535](#event-65535) | 0x0000       |      1 |              1 |
| [242](#event-242)     | 0x0001       |     37 |             11 |

## DAT References (imed_data)

|   Index | Hex Value   |   Dec Value |
|---------|-------------|-------------|
|       0 | 0x001E      |          30 |
|       1 | 0x1F94      |        8084 |
|       2 | 0x1F95      |        8085 |
|       3 | 0x1F96      |        8086 |

## String References

- **8084**: Until about two hundred years ago, this land belonged to a nation called the "Kingdom of Ephramad," which prospered in the shipping trade.
- **8085**: Trade between Ephramad and the West flourished until their tiny nation began to equal the Aht Urhgan Empire in wealth and the size of their navy.
- **8086**: The rivalry between the two nations reached a critical point, and the Imperial Army used a power no man should even possess... The Kingdom of Ephramad was completely destroyed. I find the Empire's actions absolutely deplorable...

## Events

### Event 65535

#### Metadata

| Field        | Value   |
|--------------|---------|
| Entrypoint   | 0x0000  |
| Data Size    | 1 bytes |
| Instructions | 1       |

```
      00 01 02 03 04 05 06 07  08 09 0A 0B 0C 0D 0E 0F
      -- -- -- -- -- -- -- --  -- -- -- -- -- -- -- --
0000: 00                                                .               
```

#### Opcodes

```
  0: 0x0000 [0x00] END_REQSTACK()
```

### Event 242

#### Metadata

| Field        | Value    |
|--------------|----------|
| Entrypoint   | 0x0001   |
| Data Size    | 37 bytes |
| Instructions | 11       |

```
      00 01 02 03 04 05 06 07  08 09 0A 0B 0C 0D 0E 0F
      -- -- -- -- -- -- -- --  -- -- -- -- -- -- -- --
0000:    1E F0 FF FF 7F 1C 00  80 5B 00 80 F8 FF FF 7F   ........[......
0010: F8 FF FF 7F 74 6C 6B 30  1D 01 80 23 1D 02 80 23  ....tlk0...#...#
0020: 1D 03 80 23 21 00                                 ...#!.          
```

#### Opcodes

```
  0: 0x0001 [0x1E] EventEntity looks at LocalPlayer and starts talking
  1: 0x0006 [0x1C] WAIT(30* ticks)
  2: 0x0009 [0x5B] LOAD_EXT_SCHEDULER: Load scheduler "tlk0" with entities [EventEntity, EventEntity], work=30*
  3: 0x0018 [0x1D] PRINT_EVENT_MESSAGE(message_id=8084*)
    → "Until about two hundred years ago, this land belonged to a nation called the "Kingdom of Ephramad," which prospered in the shipping trade."
  4: 0x001B [0x23] WAIT_FOR_DIALOG_INTERACTION
  5: 0x001C [0x1D] PRINT_EVENT_MESSAGE(message_id=8085*)
    → "Trade between Ephramad and the West flourished until their tiny nation began to equal the Aht Urhgan Empire in wealth and the size of their navy."
  6: 0x001F [0x23] WAIT_FOR_DIALOG_INTERACTION
  7: 0x0020 [0x1D] PRINT_EVENT_MESSAGE(message_id=8086*)
    → "The rivalry between the two nations reached a critical point, and the Imperial Army used a power no man should even possess... The Kingdom of Ephramad was completely destroyed. I find the Empire's actions absolutely deplorable..."
  8: 0x0023 [0x23] WAIT_FOR_DIALOG_INTERACTION
  9: 0x0024 [0x21] END_EVENT
 10: 0x0025 [0x00] END_REQSTACK()
```
