# 16974238

## Common Data

| Field            | Value             |
|------------------|-------------------|
| Zone             | Al Zahbi (ID: 48) |
| Block Size       | 188 bytes         |
| Total Events     | 2                 |
| References Count | 8                 |

## List of Events

| Event ID              | Entrypoint   |   Size |   Instructions |
|-----------------------|--------------|--------|----------------|
| [65535](#event-65535) | 0x0000       |      1 |              1 |
| [4](#event-4)         | 0x0001       |    131 |             23 |

## DAT References (imed_data)

|   Index | Hex Value   |   Dec Value |
|---------|-------------|-------------|
|       0 | 0x0000      |           0 |
|       1 | 0x1E9B      |        7835 |
|       2 | 0x0003      |           3 |
|       3 | 0x0001      |           1 |
|       4 | 0x0002      |           2 |
|       5 | 0x0004      |           4 |
|       6 | 0x1E9C      |        7836 |
|       7 | 0x0007      |           7 |

## String References

- **7835**: DEBUG: Besieged Test. [Pop the Savages./Pop the Trolls./Pop the Lamiae./End Besieged.]
- **7836**: DEBUG: Choose army level. [1."."./4./5./6./7.]

## Events

### Event 65535

#### Metadata

| Field        | Value   |
|--------------|---------|
| Entrypoint   | 0x0000  |
| Data Size    | 1 bytes |
| Instructions | 1       |

```
      00 01 02 03 04 05 06 07  08 09 0A 0B 0C 0D 0E 0F
      -- -- -- -- -- -- -- --  -- -- -- -- -- -- -- --
0000: 00                                                .               
```

#### Opcodes

```
  0: 0x0000 [0x00] END_REQSTACK()
```

### Event 4

#### Metadata

| Field        | Value     |
|--------------|-----------|
| Entrypoint   | 0x0001    |
| Data Size    | 131 bytes |
| Instructions | 23        |

```
      00 01 02 03 04 05 06 07  08 09 0A 0B 0C 0D 0E 0F
      -- -- -- -- -- -- -- --  -- -- -- -- -- -- -- --
0000:    03 01 10 00 80 24 01  80 00 80 00 80 25 02 00   .....$......%..
0010: 10 00 80 00 22 00 40 00  80 02 80 01 10 03 80 01  ....".@.........
0020: 5E 00 02 00 10 03 80 00  36 00 40 00 80 02 80 01  ^.......6.@.....
0030: 10 04 80 01 5E 00 02 00  10 04 80 00 4A 00 40 00  ....^.......J.@.
0040: 80 02 80 01 10 02 80 01  5E 00 02 00 10 02 80 00  ........^.......
0050: 5E 00 40 00 80 02 80 01  10 05 80 01 5E 00 02 00  ^.@.........^...
0060: 10 02 80 01 82 00 24 06  80 00 80 00 80 25 02 00  ......$......%..
0070: 10 00 80 00 79 00 01 79  00 40 05 80 07 80 01 10  ....y..y.@......
0080: 00 10 21 00                                       ..!.            
```

#### Opcodes

```
  0: 0x0001 [0x03] Work_Zone[1] = 0*
  1: 0x0006 [0x24] CREATE_DIALOG(message_id=7835*, default_option=0*, option_flags=0*)
    → "DEBUG: Besieged Test. [Pop the Savages./Pop the Trolls./Pop the Lamiae./End Besieged.]"
  2: 0x000D [0x25] WAIT_DIALOG_SELECT()
  3: 0x000E [0x02] IF !(Work_Zone[0] == 0*) GOTO 0x0022
  4: 0x0016 [0x40] SET_BIT_WORK_RANGE(start_bit=0*, end_bit=3*, target=Work_Zone[1], source=1*)
  5: 0x001F [0x01] GOTO 0x005E
  6: 0x0022 [0x02] IF !(Work_Zone[0] == 1*) GOTO 0x0036
  7: 0x002A [0x40] SET_BIT_WORK_RANGE(start_bit=0*, end_bit=3*, target=Work_Zone[1], source=2*)
  8: 0x0033 [0x01] GOTO 0x005E
  9: 0x0036 [0x02] IF !(Work_Zone[0] == 2*) GOTO 0x004A
 10: 0x003E [0x40] SET_BIT_WORK_RANGE(start_bit=0*, end_bit=3*, target=Work_Zone[1], source=3*)
 11: 0x0047 [0x01] GOTO 0x005E
 12: 0x004A [0x02] IF !(Work_Zone[0] == 3*) GOTO 0x005E
 13: 0x0052 [0x40] SET_BIT_WORK_RANGE(start_bit=0*, end_bit=3*, target=Work_Zone[1], source=4*)
 14: 0x005B [0x01] GOTO 0x005E

SUBROUTINE_005E:
 15: 0x005E [0x02] IF !(Work_Zone[0] == 3*) GOTO 0x0082
 16: 0x0066 [0x24] CREATE_DIALOG(message_id=7836*, default_option=0*, option_flags=0*)
    → "DEBUG: Choose army level. [1."."./4./5./6./7.]"
 17: 0x006D [0x25] WAIT_DIALOG_SELECT()
 18: 0x006E [0x02] IF !(Work_Zone[0] == 0*) GOTO 0x0079
 19: 0x0076 [0x01] GOTO 0x0079

SUBROUTINE_0079:
 20: 0x0079 [0x40] SET_BIT_WORK_RANGE(start_bit=4*, end_bit=7*, target=Work_Zone[1], source=Work_Zone[0])
 21: 0x0082 [0x21] END_EVENT
 22: 0x0083 [0x00] END_REQSTACK()
```
