# 16974387 - Danaaba

## Common Data

| Field            | Value             |
|------------------|-------------------|
| Zone             | Al Zahbi (ID: 48) |
| Block Size       | 136 bytes         |
| Total Events     | 2                 |
| References Count | 6                 |

## List of Events

| Event ID              | Entrypoint   |   Size |   Instructions |
|-----------------------|--------------|--------|----------------|
| [65535](#event-65535) | 0x0000       |      1 |              1 |
| [248](#event-248)     | 0x0001       |     86 |             16 |

## DAT References (imed_data)

|   Index | Hex Value   |   Dec Value |
|---------|-------------|-------------|
|       0 | 0x001E      |          30 |
|       1 | 0x0046      |          70 |
|       2 | 0x1FA6      |        8102 |
|       3 | 0x1FA7      |        8103 |
|       4 | 0x1FA8      |        8104 |
|       5 | 0x1FA9      |        8105 |

## String References

- **8102**: I simply cannot bring myself to like the whole idea of working as a mercenary for mere riches.
- **8103**: Perhaps I am just biased, but I cannot help but feel that mercenaries lack the conviction to protect this town.
- **8104**: The volunteer soldiers seem very admirable in comparison. They risk their very lives to protect the town where they were raised!
- **8105**: Such nice boys and girls... I'd like to bake them a pie.

## Events

### Event 65535

#### Metadata

| Field        | Value   |
|--------------|---------|
| Entrypoint   | 0x0000  |
| Data Size    | 1 bytes |
| Instructions | 1       |

```
      00 01 02 03 04 05 06 07  08 09 0A 0B 0C 0D 0E 0F
      -- -- -- -- -- -- -- --  -- -- -- -- -- -- -- --
0000: 00                                                .               
```

#### Opcodes

```
  0: 0x0000 [0x00] END_REQSTACK()
```

### Event 248

#### Metadata

| Field        | Value    |
|--------------|----------|
| Entrypoint   | 0x0001   |
| Data Size    | 86 bytes |
| Instructions | 16       |

```
      00 01 02 03 04 05 06 07  08 09 0A 0B 0C 0D 0E 0F
      -- -- -- -- -- -- -- --  -- -- -- -- -- -- -- --
0000:    1E F0 FF FF 7F 1C 00  80 5B 01 80 F8 FF FF 7F   ........[......
0010: F8 FF FF 7F 74 6C 6B 30  1D 02 80 23 5B 01 80 F8  ....tlk0...#[...
0020: FF FF 7F F8 FF FF 7F 73  74 64 30 1D 03 80 23 5B  .......std0...#[
0030: 01 80 F8 FF FF 7F F8 FF  FF 7F 74 6C 6B 30 1D 04  ..........tlk0..
0040: 80 23 5B 01 80 F8 FF FF  7F F8 FF FF 7F 73 74 64  .#[..........std
0050: 30 1D 05 80 23 21 00                              0...#!.         
```

#### Opcodes

```
  0: 0x0001 [0x1E] EventEntity looks at LocalPlayer and starts talking
  1: 0x0006 [0x1C] WAIT(30* ticks)
  2: 0x0009 [0x5B] LOAD_EXT_SCHEDULER: Load scheduler "tlk0" with entities [EventEntity, EventEntity], work=70*
  3: 0x0018 [0x1D] PRINT_EVENT_MESSAGE(message_id=8102*)
    → "I simply cannot bring myself to like the whole idea of working as a mercenary for mere riches."
  4: 0x001B [0x23] WAIT_FOR_DIALOG_INTERACTION
  5: 0x001C [0x5B] LOAD_EXT_SCHEDULER: Load scheduler "std0" with entities [EventEntity, EventEntity], work=70*
  6: 0x002B [0x1D] PRINT_EVENT_MESSAGE(message_id=8103*)
    → "Perhaps I am just biased, but I cannot help but feel that mercenaries lack the conviction to protect this town."
  7: 0x002E [0x23] WAIT_FOR_DIALOG_INTERACTION
  8: 0x002F [0x5B] LOAD_EXT_SCHEDULER: Load scheduler "tlk0" with entities [EventEntity, EventEntity], work=70*
  9: 0x003E [0x1D] PRINT_EVENT_MESSAGE(message_id=8104*)
    → "The volunteer soldiers seem very admirable in comparison. They risk their very lives to protect the town where they were raised!"
 10: 0x0041 [0x23] WAIT_FOR_DIALOG_INTERACTION
 11: 0x0042 [0x5B] LOAD_EXT_SCHEDULER: Load scheduler "std0" with entities [EventEntity, EventEntity], work=70*
 12: 0x0051 [0x1D] PRINT_EVENT_MESSAGE(message_id=8105*)
    → "Such nice boys and girls... I'd like to bake them a pie."
 13: 0x0054 [0x23] WAIT_FOR_DIALOG_INTERACTION
 14: 0x0055 [0x21] END_EVENT
 15: 0x0056 [0x00] END_REQSTACK()
```
