# 16974370 - Krujaal

## Common Data

| Field            | Value             |
|------------------|-------------------|
| Zone             | Al Zahbi (ID: 48) |
| Block Size       | 136 bytes         |
| Total Events     | 2                 |
| References Count | 9                 |

## List of Events

| Event ID              | Entrypoint   |   Size |   Instructions |
|-----------------------|--------------|--------|----------------|
| [65535](#event-65535) | 0x0000       |      1 |              1 |
| [0](#event-0)         | 0x0001       |     75 |             22 |

## DAT References (imed_data)

|   Index | Hex Value   |   Dec Value |
|---------|-------------|-------------|
|       0 | 0x0007      |           7 |
|       1 | 0x1D76      |        7542 |
|       2 | 0x40000000  |  1073741824 |
|       3 | 0x1D77      |        7543 |
|       4 | 0x1D78      |        7544 |
|       5 | 0x1D79      |        7545 |
|       6 | 0x0000      |           0 |
|       7 | 0x1D7A      |        7546 |
|       8 | 0x0001      |           1 |

## String References

- **7542**: Ahead of you lies the Al Zahbi residential area. You may use the rooms within just as you would a Mog House in your home nation.
- **7543**: Ahead of you lies the Al Zahbi residential area. All adventurers must lease a Rent-a-Room if they wish to enter.
- **7544**: In the event that you decide to lease a Rent-a-Room, your stored items will be moved to Al Zahbi and you will be able to use your new room like the Mog House in your home country.
- **7545**: Lease a Rent-a-Room in Al Zahbi? [Yes./No thanks.]
- **7546**: It seems we are finished here. Congratulations--you now have an Al Zahbi Rent-a-Room at your disposal.

## Events

### Event 65535

#### Metadata

| Field        | Value   |
|--------------|---------|
| Entrypoint   | 0x0000  |
| Data Size    | 1 bytes |
| Instructions | 1       |

```
      00 01 02 03 04 05 06 07  08 09 0A 0B 0C 0D 0E 0F
      -- -- -- -- -- -- -- --  -- -- -- -- -- -- -- --
0000: 00                                                .               
```

#### Opcodes

```
  0: 0x0000 [0x00] END_REQSTACK()
```

### Event 0

#### Metadata

| Field        | Value    |
|--------------|----------|
| Entrypoint   | 0x0001   |
| Data Size    | 75 bytes |
| Instructions | 22       |

```
      00 01 02 03 04 05 06 07  08 09 0A 0B 0C 0D 0E 0F
      -- -- -- -- -- -- -- --  -- -- -- -- -- -- -- --
0000:    1E F0 FF FF 7F 02 03  10 00 80 00 1A 00 1D 01   ...............
0010: 80 23 03 01 10 02 80 01  4A 00 1D 03 80 23 1D 04  .#......J....#..
0020: 80 23 24 05 80 06 80 06  80 25 02 00 10 06 80 00  .#$......%......
0030: 3A 00 42 1D 07 80 23 01  4A 00 02 00 10 08 80 00  :.B...#.J.......
0040: 4A 00 03 01 10 02 80 01  4A 00 21 00              J.......J.!.    
```

#### Opcodes

```
  0: 0x0001 [0x1E] EventEntity looks at LocalPlayer and starts talking
  1: 0x0006 [0x02] IF !(Work_Zone[3] == 7*) GOTO 0x001A
  2: 0x000E [0x1D] PRINT_EVENT_MESSAGE(message_id=7542*)
    → "Ahead of you lies the Al Zahbi residential area. You may use the rooms within just as you would a Mog House in your home nation."
  3: 0x0011 [0x23] WAIT_FOR_DIALOG_INTERACTION
  4: 0x0012 [0x03] Work_Zone[1] = 1073741824*
  5: 0x0017 [0x01] GOTO 0x004A
  6: 0x001A [0x1D] PRINT_EVENT_MESSAGE(message_id=7543*)
    → "Ahead of you lies the Al Zahbi residential area. All adventurers must lease a Rent-a-Room if they wish to enter."
  7: 0x001D [0x23] WAIT_FOR_DIALOG_INTERACTION
  8: 0x001E [0x1D] PRINT_EVENT_MESSAGE(message_id=7544*)
    → "In the event that you decide to lease a Rent-a-Room, your stored items will be moved to Al Zahbi and you will be able to use your new room like the Mog House in your home country."
  9: 0x0021 [0x23] WAIT_FOR_DIALOG_INTERACTION
 10: 0x0022 [0x24] CREATE_DIALOG(message_id=7545*, default_option=0*, option_flags=0*)
    → "Lease a Rent-a-Room in Al Zahbi? [Yes./No thanks.]"
 11: 0x0029 [0x25] WAIT_DIALOG_SELECT()
 12: 0x002A [0x02] IF !(Work_Zone[0] == 0*) GOTO 0x003A
 13: 0x0032 [0x42] SET_CLI_EVENT_CANCEL_DATA()
 14: 0x0033 [0x1D] PRINT_EVENT_MESSAGE(message_id=7546*)
    → "It seems we are finished here. Congratulations--you now have an Al Zahbi Rent-a-Room at your disposal."
 15: 0x0036 [0x23] WAIT_FOR_DIALOG_INTERACTION
 16: 0x0037 [0x01] GOTO 0x004A
 17: 0x003A [0x02] IF !(Work_Zone[0] == 1*) GOTO 0x004A
 18: 0x0042 [0x03] Work_Zone[1] = 1073741824*
 19: 0x0047 [0x01] GOTO 0x004A

SUBROUTINE_004A:
 20: 0x004A [0x21] END_EVENT
 21: 0x004B [0x00] END_REQSTACK()
```
