# 16974322 - Suldiran

## Common Data

| Field            | Value             |
|------------------|-------------------|
| Zone             | Al Zahbi (ID: 48) |
| Block Size       | 428 bytes         |
| Total Events     | 7                 |
| References Count | 19                |

## List of Events

| Event ID              | Entrypoint   |   Size |   Instructions |
|-----------------------|--------------|--------|----------------|
| [65535](#event-65535) | 0x0000       |      1 |              1 |
| [14](#event-14)       | 0x0001       |    121 |             31 |
| [15](#event-15)       | 0x007A       |     27 |              9 |
| [16](#event-16)       | 0x0095       |     35 |              9 |
| [17](#event-17)       | 0x00B8       |     35 |             11 |
| [18](#event-18)       | 0x00DB       |     35 |              9 |
| [208](#event-208)     | 0x00FE       |     52 |             13 |

## DAT References (imed_data)

|   Index | Hex Value   |   Dec Value |
|---------|-------------|-------------|
|       0 | 0x1F0C      |        7948 |
|       1 | 0x1F0D      |        7949 |
|       2 | 0x1F0E      |        7950 |
|       3 | 0x0873      |        2163 |
|       4 | 0x0002      |           2 |
|       5 | 0x1F0F      |        7951 |
|       6 | 0x1F10      |        7952 |
|       7 | 0x1F11      |        7953 |
|       8 | 0x0000      |           0 |
|       9 | 0x1F12      |        7954 |
|      10 | 0x0001      |           1 |
|      11 | 0x1F13      |        7955 |
|      12 | 0x1F14      |        7956 |
|      13 | 0x1F15      |        7957 |
|      14 | 0x00C9      |         201 |
|      15 | 0x1F16      |        7958 |
|      16 | 0x1F17      |        7959 |
|      17 | 0x1DF8      |        7672 |
|      18 | 0x0014      |          20 |

## String References

- **7672**: You saved me from my shadowy prison. Thank you. I have no wards against the darkness now, so I am afraid you must settle with this.
- **7953**: Will you gather the materials? [As well as some for myself!/I don't think so...]

## Events

### Event 65535

#### Metadata

| Field        | Value   |
|--------------|---------|
| Entrypoint   | 0x0000  |
| Data Size    | 1 bytes |
| Instructions | 1       |

```
      00 01 02 03 04 05 06 07  08 09 0A 0B 0C 0D 0E 0F
      -- -- -- -- -- -- -- --  -- -- -- -- -- -- -- --
0000: 00                                                .               
```

#### Opcodes

```
  0: 0x0000 [0x00] END_REQSTACK()
```

### Event 14

#### Metadata

| Field        | Value     |
|--------------|-----------|
| Entrypoint   | 0x0001    |
| Data Size    | 121 bytes |
| Instructions | 31        |

```
      00 01 02 03 04 05 06 07  08 09 0A 0B 0C 0D 0E 0F
      -- -- -- -- -- -- -- --  -- -- -- -- -- -- -- --
0000:    1E F0 FF FF 7F 6F 70  2B F2 01 03 01 00 80 23   .....op+......#
0010: 2B F2 01 03 01 01 80 23  2B F2 01 03 01 02 80 23  +......#+......#
0020: 03 02 10 03 80 03 03 10  04 80 2B F2 01 03 01 05  ..........+.....
0030: 80 23 2B F2 01 03 01 06  80 23 24 07 80 08 80 08  .#+......#$.....
0040: 80 25 02 00 10 08 80 00  65 00 42 03 02 10 03 80  .%......e.B.....
0050: 03 03 10 04 80 2B F2 01  03 01 09 80 23 03 01 10  .....+......#...
0060: 0A 80 01 78 00 02 00 10  0A 80 00 78 00 2B F2 01  ...x.......x.+..
0070: 03 01 0B 80 23 01 78 00  21 00                    ....#.x.!.      
```

#### Opcodes

```
  0: 0x0001 [0x1E] EventEntity looks at LocalPlayer and starts talking
  1: 0x0006 [0x6F] WAIT_FRAME_DELAY: Yield until WaitTime reaches zero
  2: 0x0007 [0x70] WAIT_ENTITY_RENDER_FLAG: Wait while EventEntity->Render.Flags3 bit 2 is set (cancel turn if not)
  3: 0x0008 [0x2B] Suldiran (ID: 16974322/0x010301F2) [7948*]:
    → "There's something foul in the air of late. Can you not feel it? It is the "true darkness.""
  4: 0x000F [0x23] WAIT_FOR_DIALOG_INTERACTION
  5: 0x0010 [0x2B] Suldiran (ID: 16974322/0x010301F2) [7949*]:
    → "Could it be that I am the only soul who senses this wickedness...?"
  6: 0x0017 [0x23] WAIT_FOR_DIALOG_INTERACTION
  7: 0x0018 [0x2B] Suldiran (ID: 16974322/0x010301F2) [7950*]:
    → "I must have a charm to ward away this ultimate evil."
  8: 0x001F [0x23] WAIT_FOR_DIALOG_INTERACTION
  9: 0x0020 [0x03] Work_Zone[2] = 2163*
 10: 0x0025 [0x03] Work_Zone[3] = 2*
 11: 0x002A [0x2B] Suldiran (ID: 16974322/0x010301F2) [7951*]:
    → "Such a charm would need to be made of $1 $0 ..."
 12: 0x0031 [0x23] WAIT_FOR_DIALOG_INTERACTION
 13: 0x0032 [0x2B] Suldiran (ID: 16974322/0x010301F2) [7952*]:
    → "Might you bring me the materials I require?"
 14: 0x0039 [0x23] WAIT_FOR_DIALOG_INTERACTION
 15: 0x003A [0x24] CREATE_DIALOG(message_id=7953*, default_option=0*, option_flags=0*)
    → "Will you gather the materials? [As well as some for myself!/I don't think so...]"
 16: 0x0041 [0x25] WAIT_DIALOG_SELECT()
 17: 0x0042 [0x02] IF !(Work_Zone[0] == 0*) GOTO 0x0065
 18: 0x004A [0x42] SET_CLI_EVENT_CANCEL_DATA()
 19: 0x004B [0x03] Work_Zone[2] = 2163*
 20: 0x0050 [0x03] Work_Zone[3] = 2*
 21: 0x0055 [0x2B] Suldiran (ID: 16974322/0x010301F2) [7954*]:
    → "I am in your debt! I must have them to ward away the darkness... Remember, I need $1 $0 !"
 22: 0x005C [0x23] WAIT_FOR_DIALOG_INTERACTION
 23: 0x005D [0x03] Work_Zone[1] = 1*
 24: 0x0062 [0x01] GOTO 0x0078
 25: 0x0065 [0x02] IF !(Work_Zone[0] == 1*) GOTO 0x0078
 26: 0x006D [0x2B] Suldiran (ID: 16974322/0x010301F2) [7955*]:
    → "You do not share my fear... While we stand here debating, the true darkness creeps ever closer! I must do something!"
 27: 0x0074 [0x23] WAIT_FOR_DIALOG_INTERACTION
 28: 0x0075 [0x01] GOTO 0x0078

SUBROUTINE_0078:
 29: 0x0078 [0x21] END_EVENT
 30: 0x0079 [0x00] END_REQSTACK()
```

### Event 15

#### Metadata

| Field        | Value    |
|--------------|----------|
| Entrypoint   | 0x007A   |
| Data Size    | 27 bytes |
| Instructions | 9        |

```
      00 01 02 03 04 05 06 07  08 09 0A 0B 0C 0D 0E 0F
      -- -- -- -- -- -- -- --  -- -- -- -- -- -- -- --
0070:                                1E F0 FF FF 7F 6F            .....o
0080: 70 03 02 10 03 80 03 03  10 04 80 2B F2 01 03 01  p..........+....
0090: 0C 80 23 21 00                                    ..#!.           
```

#### Opcodes

```
  0: 0x007A [0x1E] EventEntity looks at LocalPlayer and starts talking
  1: 0x007F [0x6F] WAIT_FRAME_DELAY: Yield until WaitTime reaches zero
  2: 0x0080 [0x70] WAIT_ENTITY_RENDER_FLAG: Wait while EventEntity->Render.Flags3 bit 2 is set (cancel turn if not)
  3: 0x0081 [0x03] Work_Zone[2] = 2163*
  4: 0x0086 [0x03] Work_Zone[3] = 2*
  5: 0x008B [0x2B] Suldiran (ID: 16974322/0x010301F2) [7956*]:
    → "My charm requires $1 $0 ... Make haste!"
  6: 0x0092 [0x23] WAIT_FOR_DIALOG_INTERACTION
  7: 0x0093 [0x21] END_EVENT
  8: 0x0094 [0x00] END_REQSTACK()
```

### Event 16

#### Metadata

| Field        | Value    |
|--------------|----------|
| Entrypoint   | 0x0095   |
| Data Size    | 35 bytes |
| Instructions | 9        |

```
      00 01 02 03 04 05 06 07  08 09 0A 0B 0C 0D 0E 0F
      -- -- -- -- -- -- -- --  -- -- -- -- -- -- -- --
0090:                42 1E F0  FF FF 7F 6F 70 2B F2 01       B.....op+..
00A0: 03 01 0D 80 23 45 0E 80  F8 FF FF 7F F8 FF FF 7F  ....#E..........
00B0: 71 73 74 63 08 80 21 00                           qstc..!.        
```

#### Opcodes

```
  0: 0x0095 [0x42] SET_CLI_EVENT_CANCEL_DATA()
  1: 0x0096 [0x1E] EventEntity looks at LocalPlayer and starts talking
  2: 0x009B [0x6F] WAIT_FRAME_DELAY: Yield until WaitTime reaches zero
  3: 0x009C [0x70] WAIT_ENTITY_RENDER_FLAG: Wait while EventEntity->Render.Flags3 bit 2 is set (cancel turn if not)
  4: 0x009D [0x2B] Suldiran (ID: 16974322/0x010301F2) [7957*]:
    → "Thank you! This should hold the darkness at bay...if only for a while. Bring more, if you can."
  5: 0x00A4 [0x23] WAIT_FOR_DIALOG_INTERACTION
  6: 0x00A5 [0x45] LOAD_SCHEDULED_TASK: Load scheduler "qstc" with entities [EventEntity, EventEntity], work=[201*, 0*]
  7: 0x00B6 [0x21] END_EVENT
  8: 0x00B7 [0x00] END_REQSTACK()
```

### Event 17

#### Metadata

| Field        | Value    |
|--------------|----------|
| Entrypoint   | 0x00B8   |
| Data Size    | 35 bytes |
| Instructions | 11       |

```
      00 01 02 03 04 05 06 07  08 09 0A 0B 0C 0D 0E 0F
      -- -- -- -- -- -- -- --  -- -- -- -- -- -- -- --
00B0:                          1E F0 FF FF 7F 6F 70 03          .....op.
00C0: 02 10 03 80 03 03 10 04  80 2B F2 01 03 01 0F 80  .........+......
00D0: 23 2B F2 01 03 01 10 80  23 21 00                 #+......#!.     
```

#### Opcodes

```
  0: 0x00B8 [0x1E] EventEntity looks at LocalPlayer and starts talking
  1: 0x00BD [0x6F] WAIT_FRAME_DELAY: Yield until WaitTime reaches zero
  2: 0x00BE [0x70] WAIT_ENTITY_RENDER_FLAG: Wait while EventEntity->Render.Flags3 bit 2 is set (cancel turn if not)
  3: 0x00BF [0x03] Work_Zone[2] = 2163*
  4: 0x00C4 [0x03] Work_Zone[3] = 2*
  5: 0x00C9 [0x2B] Suldiran (ID: 16974322/0x010301F2) [7958*]:
    → "I must have more charms! Please, bring me sets of $1 $0 !"
  6: 0x00D0 [0x23] WAIT_FOR_DIALOG_INTERACTION
  7: 0x00D1 [0x2B] Suldiran (ID: 16974322/0x010301F2) [7959*]:
    → "I promise you shall not leave empty-handed!"
  8: 0x00D8 [0x23] WAIT_FOR_DIALOG_INTERACTION
  9: 0x00D9 [0x21] END_EVENT
 10: 0x00DA [0x00] END_REQSTACK()
```

### Event 18

#### Metadata

| Field        | Value    |
|--------------|----------|
| Entrypoint   | 0x00DB   |
| Data Size    | 35 bytes |
| Instructions | 9        |

```
      00 01 02 03 04 05 06 07  08 09 0A 0B 0C 0D 0E 0F
      -- -- -- -- -- -- -- --  -- -- -- -- -- -- -- --
00D0:                                   42 1E F0 FF FF             B....
00E0: 7F 6F 70 2B F2 01 03 01  0D 80 23 45 0E 80 F8 FF  .op+......#E....
00F0: FF 7F F8 FF FF 7F 71 73  74 63 08 80 21 00        ......qstc..!.  
```

#### Opcodes

```
  0: 0x00DB [0x42] SET_CLI_EVENT_CANCEL_DATA()
  1: 0x00DC [0x1E] EventEntity looks at LocalPlayer and starts talking
  2: 0x00E1 [0x6F] WAIT_FRAME_DELAY: Yield until WaitTime reaches zero
  3: 0x00E2 [0x70] WAIT_ENTITY_RENDER_FLAG: Wait while EventEntity->Render.Flags3 bit 2 is set (cancel turn if not)
  4: 0x00E3 [0x2B] Suldiran (ID: 16974322/0x010301F2) [7957*]:
    → "Thank you! This should hold the darkness at bay...if only for a while. Bring more, if you can."
  5: 0x00EA [0x23] WAIT_FOR_DIALOG_INTERACTION
  6: 0x00EB [0x45] LOAD_SCHEDULED_TASK: Load scheduler "qstc" with entities [EventEntity, EventEntity], work=[201*, 0*]
  7: 0x00FC [0x21] END_EVENT
  8: 0x00FD [0x00] END_REQSTACK()
```

### Event 208

#### Metadata

| Field        | Value    |
|--------------|----------|
| Entrypoint   | 0x00FE   |
| Data Size    | 52 bytes |
| Instructions | 13       |

```
      00 01 02 03 04 05 06 07  08 09 0A 0B 0C 0D 0E 0F
      -- -- -- -- -- -- -- --  -- -- -- -- -- -- -- --
00F0:                                            43 00                C.
0100: 43 01 20 01 42 03 01 10  0A 80 1E F0 FF FF 7F 6F  C. .B..........o
0110: 70 1D 11 80 66 12 80 F8  FF FF 7F F8 FF FF 7F 70  p...f..........p
0120: 61 73 30 53 F8 FF FF 7F  F8 FF FF 7F 70 61 73 30  as0S........pas0
0130: 21 00                                             !.              
```

#### Opcodes

```
  0: 0x00FE [0x43] SEND_EVENT_UPDATE: Send pending tag to server (packet 0x005B)
  1: 0x0100 [0x43] SEND_EVENT_UPDATE: Check pending flag (skip if not pending)
  2: 0x0102 [0x20] SET_CLI_EVENT_UC_FLAG: Lock player control
  3: 0x0104 [0x42] SET_CLI_EVENT_CANCEL_DATA()
  4: 0x0105 [0x03] Work_Zone[1] = 1*
  5: 0x010A [0x1E] EventEntity looks at LocalPlayer and starts talking
  6: 0x010F [0x6F] WAIT_FRAME_DELAY: Yield until WaitTime reaches zero
  7: 0x0110 [0x70] WAIT_ENTITY_RENDER_FLAG: Wait while EventEntity->Render.Flags3 bit 2 is set (cancel turn if not)
  8: 0x0111 [0x1D] PRINT_EVENT_MESSAGE(message_id=7672*)
    → "You saved me from my shadowy prison. Thank you. I have no wards against the darkness now, so I am afraid you must settle with this."
  9: 0x0114 [0x66] LOAD_EXT_SCHEDULER_MAIN: Load scheduler "pas0" with entities [EventEntity, EventEntity], work=20*
 10: 0x0123 [0x53] WAIT_SCHEDULER_TASK: Wait for scheduler "pas0" with entities [EventEntity, EventEntity]
 11: 0x0130 [0x21] END_EVENT
 12: 0x0131 [0x00] END_REQSTACK()
```
