# 16974257 - Door

## Common Data

| Field            | Value             |
|------------------|-------------------|
| Zone             | Al Zahbi (ID: 48) |
| Block Size       | 264 bytes         |
| Total Events     | 2                 |
| References Count | 12                |

## List of Events

| Event ID              | Entrypoint   |   Size |   Instructions |
|-----------------------|--------------|--------|----------------|
| [65535](#event-65535) | 0x0000       |      1 |              1 |
| [100](#event-100)     | 0x0001       |    191 |             33 |

## DAT References (imed_data)

|   Index | Hex Value   |   Dec Value |
|---------|-------------|-------------|
|       0 | 0x1E97      |        7831 |
|       1 | 0x0001      |           1 |
|       2 | 0x0000      |           0 |
|       3 | 0x00C8      |         200 |
|       4 | 0x003C      |          60 |
|       5 | 0x010C      |         268 |
|       6 | 0x00B4      |         180 |
|       7 | 0x012C      |         300 |
|       8 | 0x1E98      |        7832 |
|       9 | 0x1E99      |        7833 |
|      10 | 0x1E9A      |        7834 |
|      11 | 0x005A      |          90 |

## String References

- **7831**: Open the gate? [Yes./No.]
- **7832**: It is too dark to see inside...
- **7833**: The passage is narrow and winding...
- **7834**: You see a faint light from up ahead...

## Events

### Event 65535

#### Metadata

| Field        | Value   |
|--------------|---------|
| Entrypoint   | 0x0000  |
| Data Size    | 1 bytes |
| Instructions | 1       |

```
      00 01 02 03 04 05 06 07  08 09 0A 0B 0C 0D 0E 0F
      -- -- -- -- -- -- -- --  -- -- -- -- -- -- -- --
0000: 00                                                .               
```

#### Opcodes

```
  0: 0x0000 [0x00] END_REQSTACK()
```

### Event 100

#### Metadata

| Field        | Value     |
|--------------|-----------|
| Entrypoint   | 0x0001    |
| Data Size    | 191 bytes |
| Instructions | 33        |

```
      00 01 02 03 04 05 06 07  08 09 0A 0B 0C 0D 0E 0F
      -- -- -- -- -- -- -- --  -- -- -- -- -- -- -- --
0000:    20 01 24 00 80 01 80  02 80 25 02 00 10 02 80    .$......%.....
0010: 00 B3 00 43 00 43 01 42  03 01 10 01 80 45 03 80  ...C.C.B.....E..
0020: F0 FF FF 7F F0 FF FF 7F  66 64 6F 31 02 80 1C 04  ........fdo1....
0030: 80 45 05 80 F0 FF FF 7F  F0 FF FF 7F 64 6F 72 32  .E..........dor2
0040: 02 80 1C 06 80 45 05 80  F0 FF FF 7F F0 FF FF 7F  .....E..........
0050: 64 6F 72 33 02 80 1C 07  80 48 08 80 1C 07 80 48  dor3.....H.....H
0060: 09 80 1C 07 80 48 0A 80  1C 07 80 45 05 80 F0 FF  .....H.....E....
0070: FF 7F F0 FF FF 7F 64 6F  6F 72 02 80 1C 06 80 45  ......door.....E
0080: 05 80 F0 FF FF 7F F0 FF  FF 7F 64 6F 72 31 02 80  ..........dor1..
0090: 1C 0B 80 29 01 F0 FF FF  7F 02 46 00 1C 04 80 45  ...)......F....E
00A0: 03 80 F0 FF FF 7F F0 FF  FF 7F 66 64 69 31 02 80  ..........fdi1..
00B0: 01 BE 00 02 00 10 01 80  00 BE 00 01 BE 00 21 00  ..............!.
```

#### Opcodes

```
  0: 0x0001 [0x20] SET_CLI_EVENT_UC_FLAG: Lock player control
  1: 0x0003 [0x24] CREATE_DIALOG(message_id=7831*, default_option=1*, option_flags=0*)
    → "Open the gate? [Yes./No.]"
  2: 0x000A [0x25] WAIT_DIALOG_SELECT()
  3: 0x000B [0x02] IF !(Work_Zone[0] == 0*) GOTO 0x00B3
  4: 0x0013 [0x43] SEND_EVENT_UPDATE: Send pending tag to server (packet 0x005B)
  5: 0x0015 [0x43] SEND_EVENT_UPDATE: Check pending flag (skip if not pending)
  6: 0x0017 [0x42] SET_CLI_EVENT_CANCEL_DATA()
  7: 0x0018 [0x03] Work_Zone[1] = 1*
  8: 0x001D [0x45] LOAD_SCHEDULED_TASK: Load scheduler "fdo1" with entities [LocalPlayer, LocalPlayer], work=[200*, 0*]
  9: 0x002E [0x1C] WAIT(60* ticks)
 10: 0x0031 [0x45] LOAD_SCHEDULED_TASK: Load scheduler "dor2" with entities [LocalPlayer, LocalPlayer], work=[268*, 0*]
 11: 0x0042 [0x1C] WAIT(180* ticks)
 12: 0x0045 [0x45] LOAD_SCHEDULED_TASK: Load scheduler "dor3" with entities [LocalPlayer, LocalPlayer], work=[268*, 0*]
 13: 0x0056 [0x1C] WAIT(300* ticks)
 14: 0x0059 [0x48] [System] [7832*]:
    → "It is too dark to see inside..."
 15: 0x005C [0x1C] WAIT(300* ticks)
 16: 0x005F [0x48] [System] [7833*]:
    → "The passage is narrow and winding..."
 17: 0x0062 [0x1C] WAIT(300* ticks)
 18: 0x0065 [0x48] [System] [7834*]:
    → "You see a faint light from up ahead..."
 19: 0x0068 [0x1C] WAIT(300* ticks)
 20: 0x006B [0x45] LOAD_SCHEDULED_TASK: Load scheduler "door" with entities [LocalPlayer, LocalPlayer], work=[268*, 0*]
 21: 0x007C [0x1C] WAIT(180* ticks)
 22: 0x007F [0x45] LOAD_SCHEDULED_TASK: Load scheduler "dor1" with entities [LocalPlayer, LocalPlayer], work=[268*, 0*]
 23: 0x0090 [0x1C] WAIT(90* ticks)
 24: 0x0093 [0x29] REQ_SET_WAIT(priority=0x01, entity_id=LocalPlayer, tag_num=0x02)
 25: 0x009A [0x46] CAMERA_CONTROL: Restore default settings
 26: 0x009C [0x1C] WAIT(60* ticks)
 27: 0x009F [0x45] LOAD_SCHEDULED_TASK: Load scheduler "fdi1" with entities [LocalPlayer, LocalPlayer], work=[200*, 0*]
 28: 0x00B0 [0x01] GOTO 0x00BE
 29: 0x00B3 [0x02] IF !(Work_Zone[0] == 1*) GOTO 0x00BE
 30: 0x00BB [0x01] GOTO 0x00BE

SUBROUTINE_00BE:
 31: 0x00BE [0x21] END_EVENT
 32: 0x00BF [0x00] END_REQSTACK()
```
