# 16974316 - Zazarg

## Common Data

| Field            | Value             |
|------------------|-------------------|
| Zone             | Al Zahbi (ID: 48) |
| Block Size       | 464 bytes         |
| Total Events     | 14                |
| References Count | 22                |

## List of Events

| Event ID                 | Entrypoint   |   Size |   Instructions |
|--------------------------|--------------|--------|----------------|
| [65535](#event-65535)    | 0x0000       |      1 |              1 |
| [5](#event-5)            | 0x0001       |     13 |              3 |
| [6](#event-6)            | 0x000E       |     13 |              3 |
| [8](#event-8)            | 0x001B       |     13 |              3 |
| [9](#event-9)            | 0x0028       |     13 |              3 |
| [11](#event-11)          | 0x0035       |     13 |              3 |
| [12](#event-12)          | 0x0042       |     13 |              3 |
| [214](#event-214)        | 0x004F       |     39 |             14 |
| [65535.1](#event-655351) | 0x0076       |     13 |              3 |
| [268](#event-268)        | 0x0083       |     39 |             14 |
| [276](#event-276)        | 0x00AA       |     59 |             18 |
| [65535.2](#event-655352) | 0x00E5       |     12 |              3 |
| [65535.3](#event-655353) | 0x00F1       |     12 |              3 |
| [287](#event-287)        | 0x00FD       |     51 |             16 |

## DAT References (imed_data)

|   Index | Hex Value   |   Dec Value |
|---------|-------------|-------------|
|       0 | 0x0001      |           1 |
|       1 | 0x000B      |          11 |
|       2 | 0x1E2B      |        7723 |
|       3 | 0x012C      |         300 |
|       4 | 0x0004      |           4 |
|       5 | 0x1E2C      |        7724 |
|       6 | 0x1E2D      |        7725 |
|       7 | 0x001E      |          30 |
|       8 | 0x0020      |          32 |
|       9 | 0x1E2E      |        7726 |
|      10 | 0x1E2F      |        7727 |
|      11 | 0xFFFF0E48  |  4294905416 |
|      12 | 0xF24B      |       62027 |
|      13 | 0xFFFF66C2  |  4294928066 |
|      14 | 0x0A10      |        2576 |
|      15 | 0xFFFF5E59  |  4294925913 |
|      16 | 0x198CA     |      104650 |
|      17 | 0xFFFFE4A8  |  4294960296 |
|      18 | 0x060D      |        1549 |
|      19 | 0x0024      |          36 |
|      20 | 0x1E30      |        7728 |
|      21 | 0x1E31      |        7729 |

## String References

- **7723**: Hey, you're the [man/woman] who braved the beastmen to save me earlier, aren't you? Thank you! This is for you.
- **7724**: When the beastmen invade, make sure you get behind us while we decimate the enemy. We wouldn't want you getting hurt now, would we?
- **7725**: Gahahaha!
- **7726**: Damn, we lost bad, didn't we? They even managed to take the Astral Candescence... But it's times like these...
- **7727**: Gahahaha! ...that we should laugh in the face of fate and take back what's ours!
- **7728**: Oho, it's you! This battle will be over in time for lunch, then. I hate to miss a meal!
- **7729**: Gahahaha!

## Events

### Event 65535

#### Metadata

| Field        | Value   |
|--------------|---------|
| Entrypoint   | 0x0000  |
| Data Size    | 1 bytes |
| Instructions | 1       |

```
      00 01 02 03 04 05 06 07  08 09 0A 0B 0C 0D 0E 0F
      -- -- -- -- -- -- -- --  -- -- -- -- -- -- -- --
0000: 00                                                .               
```

#### Opcodes

```
  0: 0x0000 [0x00] END_REQSTACK()
```

### Event 5

#### Metadata

| Field        | Value    |
|--------------|----------|
| Entrypoint   | 0x0001   |
| Data Size    | 13 bytes |
| Instructions | 3        |

```
      00 01 02 03 04 05 06 07  08 09 0A 0B 0C 0D 0E 0F
      -- -- -- -- -- -- -- --  -- -- -- -- -- -- -- --
0000:    92 01 F8 FF FF 7F 94  01 F8 FF FF 7F 00         .............  
```

#### Opcodes

```
  0: 0x0001 [0x92] EventEntity->Render.Flags3 ^= 0x01
  1: 0x0007 [0x94] EventEntity->Render.Flags3 ^= 0x01
  2: 0x000D [0x00] END_REQSTACK()
```

### Event 6

#### Metadata

| Field        | Value    |
|--------------|----------|
| Entrypoint   | 0x000E   |
| Data Size    | 13 bytes |
| Instructions | 3        |

```
      00 01 02 03 04 05 06 07  08 09 0A 0B 0C 0D 0E 0F
      -- -- -- -- -- -- -- --  -- -- -- -- -- -- -- --
0000:                                            92 01                ..
0010: F8 FF FF 7F 94 01 F8 FF  FF 7F 00                 ...........     
```

#### Opcodes

```
  0: 0x000E [0x92] EventEntity->Render.Flags3 ^= 0x01
  1: 0x0014 [0x94] EventEntity->Render.Flags3 ^= 0x01
  2: 0x001A [0x00] END_REQSTACK()
```

### Event 8

#### Metadata

| Field        | Value    |
|--------------|----------|
| Entrypoint   | 0x001B   |
| Data Size    | 13 bytes |
| Instructions | 3        |

```
      00 01 02 03 04 05 06 07  08 09 0A 0B 0C 0D 0E 0F
      -- -- -- -- -- -- -- --  -- -- -- -- -- -- -- --
0010:                                   92 01 F8 FF FF             .....
0020: 7F 94 01 F8 FF FF 7F 00                           ........        
```

#### Opcodes

```
  0: 0x001B [0x92] EventEntity->Render.Flags3 ^= 0x01
  1: 0x0021 [0x94] EventEntity->Render.Flags3 ^= 0x01
  2: 0x0027 [0x00] END_REQSTACK()
```

### Event 9

#### Metadata

| Field        | Value    |
|--------------|----------|
| Entrypoint   | 0x0028   |
| Data Size    | 13 bytes |
| Instructions | 3        |

```
      00 01 02 03 04 05 06 07  08 09 0A 0B 0C 0D 0E 0F
      -- -- -- -- -- -- -- --  -- -- -- -- -- -- -- --
0020:                          92 01 F8 FF FF 7F 94 01          ........
0030: F8 FF FF 7F 00                                    .....           
```

#### Opcodes

```
  0: 0x0028 [0x92] EventEntity->Render.Flags3 ^= 0x01
  1: 0x002E [0x94] EventEntity->Render.Flags3 ^= 0x01
  2: 0x0034 [0x00] END_REQSTACK()
```

### Event 11

#### Metadata

| Field        | Value    |
|--------------|----------|
| Entrypoint   | 0x0035   |
| Data Size    | 13 bytes |
| Instructions | 3        |

```
      00 01 02 03 04 05 06 07  08 09 0A 0B 0C 0D 0E 0F
      -- -- -- -- -- -- -- --  -- -- -- -- -- -- -- --
0030:                92 01 F8  FF FF 7F 94 01 F8 FF FF       ...........
0040: 7F 00                                             ..              
```

#### Opcodes

```
  0: 0x0035 [0x92] EventEntity->Render.Flags3 ^= 0x01
  1: 0x003B [0x94] EventEntity->Render.Flags3 ^= 0x01
  2: 0x0041 [0x00] END_REQSTACK()
```

### Event 12

#### Metadata

| Field        | Value    |
|--------------|----------|
| Entrypoint   | 0x0042   |
| Data Size    | 13 bytes |
| Instructions | 3        |

```
      00 01 02 03 04 05 06 07  08 09 0A 0B 0C 0D 0E 0F
      -- -- -- -- -- -- -- --  -- -- -- -- -- -- -- --
0040:       92 01 F8 FF FF 7F  94 01 F8 FF FF 7F 00       ............. 
```

#### Opcodes

```
  0: 0x0042 [0x92] EventEntity->Render.Flags3 ^= 0x01
  1: 0x0048 [0x94] EventEntity->Render.Flags3 ^= 0x01
  2: 0x004E [0x00] END_REQSTACK()
```

### Event 214

#### Metadata

| Field        | Value    |
|--------------|----------|
| Entrypoint   | 0x004F   |
| Data Size    | 39 bytes |
| Instructions | 14       |

```
      00 01 02 03 04 05 06 07  08 09 0A 0B 0C 0D 0E 0F
      -- -- -- -- -- -- -- --  -- -- -- -- -- -- -- --
0040:                                               43                 C
0050: 00 43 01 20 01 42 03 01  10 00 80 1E F0 FF FF 7F  .C. .B..........
0060: 6F 70 6E EC 01 03 01 01  80 99 EC 01 03 01 1D 02  opn.............
0070: 80 1C 03 80 21 00                                 ....!.          
```

#### Opcodes

```
  0: 0x004F [0x43] SEND_EVENT_UPDATE: Send pending tag to server (packet 0x005B)
  1: 0x0051 [0x43] SEND_EVENT_UPDATE: Check pending flag (skip if not pending)
  2: 0x0053 [0x20] SET_CLI_EVENT_UC_FLAG: Lock player control
  3: 0x0055 [0x42] SET_CLI_EVENT_CANCEL_DATA()
  4: 0x0056 [0x03] Work_Zone[1] = 1*
  5: 0x005B [0x1E] EventEntity looks at LocalPlayer and starts talking
  6: 0x0060 [0x6F] WAIT_FRAME_DELAY: Yield until WaitTime reaches zero
  7: 0x0061 [0x70] WAIT_ENTITY_RENDER_FLAG: Wait while EventEntity->Render.Flags3 bit 2 is set (cancel turn if not)
  8: 0x0062 [0x6E] Zazarg (ID: 16974316/0x010301EC) uses emote 11*
  9: 0x0069 [0x99] Wait for Zazarg (ID: 16974316/0x010301EC) animation to complete
 10: 0x006E [0x1D] PRINT_EVENT_MESSAGE(message_id=7723*)
    → "Hey, you're the [man/woman] who braved the beastmen to save me earlier, aren't you? Thank you! This is for you."
 11: 0x0071 [0x1C] WAIT(300* ticks)
 12: 0x0074 [0x21] END_EVENT
 13: 0x0075 [0x00] END_REQSTACK()
```

### Event 65535.1

#### Metadata

| Field        | Value    |
|--------------|----------|
| Entrypoint   | 0x0076   |
| Data Size    | 13 bytes |
| Instructions | 3        |

```
      00 01 02 03 04 05 06 07  08 09 0A 0B 0C 0D 0E 0F
      -- -- -- -- -- -- -- --  -- -- -- -- -- -- -- --
0070:                   6E F8  FF FF 7F 04 80 99 F8 FF        n.........
0080: FF 7F 00                                          ...             
```

#### Opcodes

```
  0: 0x0076 [0x6E] EventEntity uses emote 4*
  1: 0x007D [0x99] Wait for EventEntity animation to complete
  2: 0x0082 [0x00] END_REQSTACK()
```

### Event 268

#### Metadata

| Field        | Value    |
|--------------|----------|
| Entrypoint   | 0x0083   |
| Data Size    | 39 bytes |
| Instructions | 14       |

```
      00 01 02 03 04 05 06 07  08 09 0A 0B 0C 0D 0E 0F
      -- -- -- -- -- -- -- --  -- -- -- -- -- -- -- --
0080:          20 01 1E F0 FF  FF 7F 6F 70 1D 05 80 23      ......op...#
0090: 6E EC 01 03 01 04 80 99  EC 01 03 01 1D 06 80 23  n..............#
00A0: 99 EC 01 03 01 1C 07 80  21 00                    ........!.      
```

#### Opcodes

```
  0: 0x0083 [0x20] SET_CLI_EVENT_UC_FLAG: Lock player control
  1: 0x0085 [0x1E] EventEntity looks at LocalPlayer and starts talking
  2: 0x008A [0x6F] WAIT_FRAME_DELAY: Yield until WaitTime reaches zero
  3: 0x008B [0x70] WAIT_ENTITY_RENDER_FLAG: Wait while EventEntity->Render.Flags3 bit 2 is set (cancel turn if not)
  4: 0x008C [0x1D] PRINT_EVENT_MESSAGE(message_id=7724*)
    → "When the beastmen invade, make sure you get behind us while we decimate the enemy. We wouldn't want you getting hurt now, would we?"
  5: 0x008F [0x23] WAIT_FOR_DIALOG_INTERACTION
  6: 0x0090 [0x6E] Zazarg (ID: 16974316/0x010301EC) uses emote 4*
  7: 0x0097 [0x99] Wait for Zazarg (ID: 16974316/0x010301EC) animation to complete
  8: 0x009C [0x1D] PRINT_EVENT_MESSAGE(message_id=7725*)
    → "Gahahaha!"
  9: 0x009F [0x23] WAIT_FOR_DIALOG_INTERACTION
 10: 0x00A0 [0x99] Wait for Zazarg (ID: 16974316/0x010301EC) animation to complete
 11: 0x00A5 [0x1C] WAIT(30* ticks)
 12: 0x00A8 [0x21] END_EVENT
 13: 0x00A9 [0x00] END_REQSTACK()
```

### Event 276

#### Metadata

| Field        | Value    |
|--------------|----------|
| Entrypoint   | 0x00AA   |
| Data Size    | 59 bytes |
| Instructions | 18       |

```
      00 01 02 03 04 05 06 07  08 09 0A 0B 0C 0D 0E 0F
      -- -- -- -- -- -- -- --  -- -- -- -- -- -- -- --
00A0:                                20 01 1E F0 FF FF             .....
00B0: 7F 6F 70 6E EC 01 03 01  08 80 99 EC 01 03 01 1D  .opn............
00C0: 09 80 23 99 EC 01 03 01  1C 07 80 6E EC 01 03 01  ..#........n....
00D0: 04 80 99 EC 01 03 01 1D  0A 80 23 99 EC 01 03 01  ..........#.....
00E0: 1C 07 80 21 00                                    ...!.           
```

#### Opcodes

```
  0: 0x00AA [0x20] SET_CLI_EVENT_UC_FLAG: Lock player control
  1: 0x00AC [0x1E] EventEntity looks at LocalPlayer and starts talking
  2: 0x00B1 [0x6F] WAIT_FRAME_DELAY: Yield until WaitTime reaches zero
  3: 0x00B2 [0x70] WAIT_ENTITY_RENDER_FLAG: Wait while EventEntity->Render.Flags3 bit 2 is set (cancel turn if not)
  4: 0x00B3 [0x6E] Zazarg (ID: 16974316/0x010301EC) uses emote 32*
  5: 0x00BA [0x99] Wait for Zazarg (ID: 16974316/0x010301EC) animation to complete
  6: 0x00BF [0x1D] PRINT_EVENT_MESSAGE(message_id=7726*)
    → "Damn, we lost bad, didn't we? They even managed to take the Astral Candescence... But it's times like these..."
  7: 0x00C2 [0x23] WAIT_FOR_DIALOG_INTERACTION
  8: 0x00C3 [0x99] Wait for Zazarg (ID: 16974316/0x010301EC) animation to complete
  9: 0x00C8 [0x1C] WAIT(30* ticks)
 10: 0x00CB [0x6E] Zazarg (ID: 16974316/0x010301EC) uses emote 4*
 11: 0x00D2 [0x99] Wait for Zazarg (ID: 16974316/0x010301EC) animation to complete
 12: 0x00D7 [0x1D] PRINT_EVENT_MESSAGE(message_id=7727*)
    → "Gahahaha! ...that we should laugh in the face of fate and take back what's ours!"
 13: 0x00DA [0x23] WAIT_FOR_DIALOG_INTERACTION
 14: 0x00DB [0x99] Wait for Zazarg (ID: 16974316/0x010301EC) animation to complete
 15: 0x00E0 [0x1C] WAIT(30* ticks)
 16: 0x00E3 [0x21] END_EVENT
 17: 0x00E4 [0x00] END_REQSTACK()
```

### Event 65535.2

#### Metadata

| Field        | Value    |
|--------------|----------|
| Entrypoint   | 0x00E5   |
| Data Size    | 12 bytes |
| Instructions | 3        |

```
      00 01 02 03 04 05 06 07  08 09 0A 0B 0C 0D 0E 0F
      -- -- -- -- -- -- -- --  -- -- -- -- -- -- -- --
00E0:                33 01 37  0B 80 0C 80 0D 80 0E 80       3.7........
00F0: 00                                                .               
```

#### Opcodes

```
  0: 0x00E5 [0x33] EventEntity->Render.Flags0 |= 0x200000 // Bit 21 (flag=0x01)
  1: 0x00E7 [0x37] UPDATE_EVENT_POSITION_AND_DIR: x=-61.880*, z=62.027*, y=-39.230*, direction=226.4°*
  2: 0x00F0 [0x00] END_REQSTACK()
```

### Event 65535.3

#### Metadata

| Field        | Value    |
|--------------|----------|
| Entrypoint   | 0x00F1   |
| Data Size    | 12 bytes |
| Instructions | 3        |

```
      00 01 02 03 04 05 06 07  08 09 0A 0B 0C 0D 0E 0F
      -- -- -- -- -- -- -- --  -- -- -- -- -- -- -- --
00F0:    33 01 37 0F 80 10 80  11 80 12 80 00            3.7.........   
```

#### Opcodes

```
  0: 0x00F1 [0x33] EventEntity->Render.Flags0 |= 0x200000 // Bit 21 (flag=0x01)
  1: 0x00F3 [0x37] UPDATE_EVENT_POSITION_AND_DIR: x=-41.383*, z=104.650*, y=-7.000*, direction=136.1°*
  2: 0x00FC [0x00] END_REQSTACK()
```

### Event 287

#### Metadata

| Field        | Value    |
|--------------|----------|
| Entrypoint   | 0x00FD   |
| Data Size    | 51 bytes |
| Instructions | 16       |

```
      00 01 02 03 04 05 06 07  08 09 0A 0B 0C 0D 0E 0F
      -- -- -- -- -- -- -- --  -- -- -- -- -- -- -- --
00F0:                                         20 01 1E                ..
0100: F0 FF FF 7F 6F 70 6E EC  01 03 01 13 80 99 EC 01  ....opn.........
0110: 03 01 1D 14 80 23 6E EC  01 03 01 04 80 99 EC 01  .....#n.........
0120: 03 01 1D 15 80 23 99 EC  01 03 01 1C 07 80 21 00  .....#........!.
```

#### Opcodes

```
  0: 0x00FD [0x20] SET_CLI_EVENT_UC_FLAG: Lock player control
  1: 0x00FF [0x1E] EventEntity looks at LocalPlayer and starts talking
  2: 0x0104 [0x6F] WAIT_FRAME_DELAY: Yield until WaitTime reaches zero
  3: 0x0105 [0x70] WAIT_ENTITY_RENDER_FLAG: Wait while EventEntity->Render.Flags3 bit 2 is set (cancel turn if not)
  4: 0x0106 [0x6E] Zazarg (ID: 16974316/0x010301EC) uses emote 36*
  5: 0x010D [0x99] Wait for Zazarg (ID: 16974316/0x010301EC) animation to complete
  6: 0x0112 [0x1D] PRINT_EVENT_MESSAGE(message_id=7728*)
    → "Oho, it's you! This battle will be over in time for lunch, then. I hate to miss a meal!"
  7: 0x0115 [0x23] WAIT_FOR_DIALOG_INTERACTION
  8: 0x0116 [0x6E] Zazarg (ID: 16974316/0x010301EC) uses emote 4*
  9: 0x011D [0x99] Wait for Zazarg (ID: 16974316/0x010301EC) animation to complete
 10: 0x0122 [0x1D] PRINT_EVENT_MESSAGE(message_id=7729*)
    → "Gahahaha!"
 11: 0x0125 [0x23] WAIT_FOR_DIALOG_INTERACTION
 12: 0x0126 [0x99] Wait for Zazarg (ID: 16974316/0x010301EC) animation to complete
 13: 0x012B [0x1C] WAIT(30* ticks)
 14: 0x012E [0x21] END_EVENT
 15: 0x012F [0x00] END_REQSTACK()
```
