# 16974326 - Talhaal

## Common Data

| Field            | Value             |
|------------------|-------------------|
| Zone             | Al Zahbi (ID: 48) |
| Block Size       | 168 bytes         |
| Total Events     | 5                 |
| References Count | 9                 |

## List of Events

| Event ID              | Entrypoint   |   Size |   Instructions |
|-----------------------|--------------|--------|----------------|
| [65535](#event-65535) | 0x0000       |      1 |              1 |
| [256](#event-256)     | 0x0001       |     27 |              9 |
| [257](#event-257)     | 0x001C       |     27 |              9 |
| [282](#event-282)     | 0x0037       |     40 |             16 |
| [283](#event-283)     | 0x005F       |      1 |              1 |

## DAT References (imed_data)

|   Index | Hex Value   |   Dec Value |
|---------|-------------|-------------|
|       0 | 0x1ECF      |        7887 |
|       1 | 0x1ED0      |        7888 |
|       2 | 0x1ED1      |        7889 |
|       3 | 0x1ED2      |        7890 |
|       4 | 0x1ED7      |        7895 |
|       5 | 0x1ED8      |        7896 |
|       6 | 0x1ED9      |        7897 |
|       7 | 0x1EDA      |        7898 |
|       8 | 0x1EDB      |        7899 |

## String References

- **7887**: See the giant Galka over there? He's the pride of our army--the great Stoneserpent General Zazarg.
- **7888**: He has an incredible amount of battle experience. He slumbers and eats together with us soldiers, and openly speaks his mind. He is a kind and reliable commander.
- **7889**: The great Stoneserpent General Zazarg... Deep inside, I believed nothing could defeat him...
- **7890**: But I will not give up. I will conquer my sadness, and defend the Empress and her Empire to the very last man! I am sure that Zazarg would desire for me to do so.
- **7895**: What is it, mercenary?
- **7896**: You have an introduction from Biyaada? Ah, you're here to weasel some stories out of me for that "Saga of the Skyserpent" everyone's been talking about.
- **7897**: Hehehe. I knew someone would come poking around sooner or later.
- **7898**: I mean, how could you compose a ballad about the Serpent Generals and leave out the mighty Zazarg?
- **7899**: Head on back to the Shararat Teahouse--I'll come by once my stint on the wall is done.

## Events

### Event 65535

#### Metadata

| Field        | Value   |
|--------------|---------|
| Entrypoint   | 0x0000  |
| Data Size    | 1 bytes |
| Instructions | 1       |

```
      00 01 02 03 04 05 06 07  08 09 0A 0B 0C 0D 0E 0F
      -- -- -- -- -- -- -- --  -- -- -- -- -- -- -- --
0000: 00                                                .               
```

#### Opcodes

```
  0: 0x0000 [0x00] END_REQSTACK()
```

### Event 256

#### Metadata

| Field        | Value    |
|--------------|----------|
| Entrypoint   | 0x0001   |
| Data Size    | 27 bytes |
| Instructions | 9        |

```
      00 01 02 03 04 05 06 07  08 09 0A 0B 0C 0D 0E 0F
      -- -- -- -- -- -- -- --  -- -- -- -- -- -- -- --
0000:    20 01 1E F0 FF FF 7F  79 00 F8 FF FF 7F F0 FF    ......y.......
0010: FF 7F 1D 00 80 23 1D 01  80 23 21 00              .....#...#!.    
```

#### Opcodes

```
  0: 0x0001 [0x20] SET_CLI_EVENT_UC_FLAG: Lock player control
  1: 0x0003 [0x1E] EventEntity looks at LocalPlayer and starts talking
  2: 0x0008 [0x79] EventEntity looks at LocalPlayer (Basic look)
  3: 0x0012 [0x1D] PRINT_EVENT_MESSAGE(message_id=7887*)
    → "See the giant Galka over there? He's the pride of our army--the great Stoneserpent General Zazarg."
  4: 0x0015 [0x23] WAIT_FOR_DIALOG_INTERACTION
  5: 0x0016 [0x1D] PRINT_EVENT_MESSAGE(message_id=7888*)
    → "He has an incredible amount of battle experience. He slumbers and eats together with us soldiers, and openly speaks his mind. He is a kind and reliable commander."
  6: 0x0019 [0x23] WAIT_FOR_DIALOG_INTERACTION
  7: 0x001A [0x21] END_EVENT
  8: 0x001B [0x00] END_REQSTACK()
```

### Event 257

#### Metadata

| Field        | Value    |
|--------------|----------|
| Entrypoint   | 0x001C   |
| Data Size    | 27 bytes |
| Instructions | 9        |

```
      00 01 02 03 04 05 06 07  08 09 0A 0B 0C 0D 0E 0F
      -- -- -- -- -- -- -- --  -- -- -- -- -- -- -- --
0010:                                      20 01 1E F0               ...
0020: FF FF 7F 79 00 F8 FF FF  7F F0 FF FF 7F 1D 02 80  ...y............
0030: 23 1D 03 80 23 21 00                              #...#!.         
```

#### Opcodes

```
  0: 0x001C [0x20] SET_CLI_EVENT_UC_FLAG: Lock player control
  1: 0x001E [0x1E] EventEntity looks at LocalPlayer and starts talking
  2: 0x0023 [0x79] EventEntity looks at LocalPlayer (Basic look)
  3: 0x002D [0x1D] PRINT_EVENT_MESSAGE(message_id=7889*)
    → "The great Stoneserpent General Zazarg... Deep inside, I believed nothing could defeat him..."
  4: 0x0030 [0x23] WAIT_FOR_DIALOG_INTERACTION
  5: 0x0031 [0x1D] PRINT_EVENT_MESSAGE(message_id=7890*)
    → "But I will not give up. I will conquer my sadness, and defend the Empress and her Empire to the very last man! I am sure that Zazarg would desire for me to do so."
  6: 0x0034 [0x23] WAIT_FOR_DIALOG_INTERACTION
  7: 0x0035 [0x21] END_EVENT
  8: 0x0036 [0x00] END_REQSTACK()
```

### Event 282

#### Metadata

| Field        | Value    |
|--------------|----------|
| Entrypoint   | 0x0037   |
| Data Size    | 40 bytes |
| Instructions | 16       |

```
      00 01 02 03 04 05 06 07  08 09 0A 0B 0C 0D 0E 0F
      -- -- -- -- -- -- -- --  -- -- -- -- -- -- -- --
0030:                      20  01 42 1E F0 FF FF 7F 79          .B.....y
0040: 00 F8 FF FF 7F F0 FF FF  7F 1D 04 80 23 1D 05 80  ............#...
0050: 23 1D 06 80 23 1D 07 80  23 1D 08 80 23 21 00     #...#...#...#!. 
```

#### Opcodes

```
  0: 0x0037 [0x20] SET_CLI_EVENT_UC_FLAG: Lock player control
  1: 0x0039 [0x42] SET_CLI_EVENT_CANCEL_DATA()
  2: 0x003A [0x1E] EventEntity looks at LocalPlayer and starts talking
  3: 0x003F [0x79] EventEntity looks at LocalPlayer (Basic look)
  4: 0x0049 [0x1D] PRINT_EVENT_MESSAGE(message_id=7895*)
    → "What is it, mercenary?"
  5: 0x004C [0x23] WAIT_FOR_DIALOG_INTERACTION
  6: 0x004D [0x1D] PRINT_EVENT_MESSAGE(message_id=7896*)
    → "You have an introduction from Biyaada? Ah, you're here to weasel some stories out of me for that "Saga of the Skyserpent" everyone's been talking about."
  7: 0x0050 [0x23] WAIT_FOR_DIALOG_INTERACTION
  8: 0x0051 [0x1D] PRINT_EVENT_MESSAGE(message_id=7897*)
    → "Hehehe. I knew someone would come poking around sooner or later."
  9: 0x0054 [0x23] WAIT_FOR_DIALOG_INTERACTION
 10: 0x0055 [0x1D] PRINT_EVENT_MESSAGE(message_id=7898*)
    → "I mean, how could you compose a ballad about the Serpent Generals and leave out the mighty Zazarg?"
 11: 0x0058 [0x23] WAIT_FOR_DIALOG_INTERACTION
 12: 0x0059 [0x1D] PRINT_EVENT_MESSAGE(message_id=7899*)
    → "Head on back to the Shararat Teahouse--I'll come by once my stint on the wall is done."
 13: 0x005C [0x23] WAIT_FOR_DIALOG_INTERACTION
 14: 0x005D [0x21] END_EVENT
 15: 0x005E [0x00] END_REQSTACK()
```

### Event 283

#### Metadata

| Field        | Value   |
|--------------|---------|
| Entrypoint   | 0x005F  |
| Data Size    | 1 bytes |
| Instructions | 1       |

```
      00 01 02 03 04 05 06 07  08 09 0A 0B 0C 0D 0E 0F
      -- -- -- -- -- -- -- --  -- -- -- -- -- -- -- --
0050:                                               00                 .
```

#### Opcodes

```
  0: 0x005F [0x00] END_REQSTACK()
```
