# 16974314 - Gadalar

## Common Data

| Field            | Value             |
|------------------|-------------------|
| Zone             | Al Zahbi (ID: 48) |
| Block Size       | 448 bytes         |
| Total Events     | 14                |
| References Count | 22                |

## List of Events

| Event ID                 | Entrypoint   |   Size |   Instructions |
|--------------------------|--------------|--------|----------------|
| [65535](#event-65535)    | 0x0000       |      1 |              1 |
| [5](#event-5)            | 0x0001       |     13 |              3 |
| [6](#event-6)            | 0x000E       |     13 |              3 |
| [8](#event-8)            | 0x001B       |     13 |              3 |
| [9](#event-9)            | 0x0028       |     13 |              3 |
| [11](#event-11)          | 0x0035       |     13 |              3 |
| [12](#event-12)          | 0x0042       |     13 |              3 |
| [212](#event-212)        | 0x004F       |     39 |             14 |
| [65535.1](#event-655351) | 0x0076       |     13 |              3 |
| [266](#event-266)        | 0x0083       |     39 |             14 |
| [274](#event-274)        | 0x00AA       |     59 |             18 |
| [65535.2](#event-655352) | 0x00E5       |     10 |              2 |
| [65535.3](#event-655353) | 0x00EF       |     10 |              2 |
| [285](#event-285)        | 0x00F9       |     39 |             14 |

## DAT References (imed_data)

|   Index | Hex Value   |   Dec Value |
|---------|-------------|-------------|
|       0 | 0x0001      |           1 |
|       1 | 0x0000      |           0 |
|       2 | 0x1E14      |        7700 |
|       3 | 0x012C      |         300 |
|       4 | 0x052B      |        1323 |
|       5 | 0x1E15      |        7701 |
|       6 | 0x0016      |          22 |
|       7 | 0x1E16      |        7702 |
|       8 | 0x001E      |          30 |
|       9 | 0x0019      |          25 |
|      10 | 0x1E17      |        7703 |
|      11 | 0x0022      |          34 |
|      12 | 0x1E18      |        7704 |
|      13 | 0xFFFE5D07  |  4294860039 |
|      14 | 0x8AAB      |       35499 |
|      15 | 0xFFFFE890  |  4294961296 |
|      16 | 0x0F8A      |        3978 |
|      17 | 0xFFFF5C36  |  4294925366 |
|      18 | 0x105E2     |       67042 |
|      19 | 0x0B0B      |        2827 |
|      20 | 0x1E19      |        7705 |
|      21 | 0x1E1A      |        7706 |

## String References

- **7700**: <Player>, is it? This should please you...
- **7701**: You are a mercenary, are you?
- **7702**: Hmph, filthy money-grubbers. Those who are controlled by money are eventually betrayed by it.
- **7703**: Damn those spineless Imperial soldiers! How could they let the Astral Candescence slip out right under their very noses!?
- **7704**: ...Hm? You! Yes, you! What do you think you're staring at, anyway? Go get the Astral Candescence back, and now!
- **7705**: Ugh, you again. I have no patience for the mercenary mentality.
- **7706**: But you do show some skill in battle. I'll give you that much, <Player>...

## Events

### Event 65535

#### Metadata

| Field        | Value   |
|--------------|---------|
| Entrypoint   | 0x0000  |
| Data Size    | 1 bytes |
| Instructions | 1       |

```
      00 01 02 03 04 05 06 07  08 09 0A 0B 0C 0D 0E 0F
      -- -- -- -- -- -- -- --  -- -- -- -- -- -- -- --
0000: 00                                                .               
```

#### Opcodes

```
  0: 0x0000 [0x00] END_REQSTACK()
```

### Event 5

#### Metadata

| Field        | Value    |
|--------------|----------|
| Entrypoint   | 0x0001   |
| Data Size    | 13 bytes |
| Instructions | 3        |

```
      00 01 02 03 04 05 06 07  08 09 0A 0B 0C 0D 0E 0F
      -- -- -- -- -- -- -- --  -- -- -- -- -- -- -- --
0000:    92 01 F8 FF FF 7F 94  01 F8 FF FF 7F 00         .............  
```

#### Opcodes

```
  0: 0x0001 [0x92] EventEntity->Render.Flags3 ^= 0x01
  1: 0x0007 [0x94] EventEntity->Render.Flags3 ^= 0x01
  2: 0x000D [0x00] END_REQSTACK()
```

### Event 6

#### Metadata

| Field        | Value    |
|--------------|----------|
| Entrypoint   | 0x000E   |
| Data Size    | 13 bytes |
| Instructions | 3        |

```
      00 01 02 03 04 05 06 07  08 09 0A 0B 0C 0D 0E 0F
      -- -- -- -- -- -- -- --  -- -- -- -- -- -- -- --
0000:                                            92 01                ..
0010: F8 FF FF 7F 94 01 F8 FF  FF 7F 00                 ...........     
```

#### Opcodes

```
  0: 0x000E [0x92] EventEntity->Render.Flags3 ^= 0x01
  1: 0x0014 [0x94] EventEntity->Render.Flags3 ^= 0x01
  2: 0x001A [0x00] END_REQSTACK()
```

### Event 8

#### Metadata

| Field        | Value    |
|--------------|----------|
| Entrypoint   | 0x001B   |
| Data Size    | 13 bytes |
| Instructions | 3        |

```
      00 01 02 03 04 05 06 07  08 09 0A 0B 0C 0D 0E 0F
      -- -- -- -- -- -- -- --  -- -- -- -- -- -- -- --
0010:                                   92 01 F8 FF FF             .....
0020: 7F 94 01 F8 FF FF 7F 00                           ........        
```

#### Opcodes

```
  0: 0x001B [0x92] EventEntity->Render.Flags3 ^= 0x01
  1: 0x0021 [0x94] EventEntity->Render.Flags3 ^= 0x01
  2: 0x0027 [0x00] END_REQSTACK()
```

### Event 9

#### Metadata

| Field        | Value    |
|--------------|----------|
| Entrypoint   | 0x0028   |
| Data Size    | 13 bytes |
| Instructions | 3        |

```
      00 01 02 03 04 05 06 07  08 09 0A 0B 0C 0D 0E 0F
      -- -- -- -- -- -- -- --  -- -- -- -- -- -- -- --
0020:                          92 01 F8 FF FF 7F 94 01          ........
0030: F8 FF FF 7F 00                                    .....           
```

#### Opcodes

```
  0: 0x0028 [0x92] EventEntity->Render.Flags3 ^= 0x01
  1: 0x002E [0x94] EventEntity->Render.Flags3 ^= 0x01
  2: 0x0034 [0x00] END_REQSTACK()
```

### Event 11

#### Metadata

| Field        | Value    |
|--------------|----------|
| Entrypoint   | 0x0035   |
| Data Size    | 13 bytes |
| Instructions | 3        |

```
      00 01 02 03 04 05 06 07  08 09 0A 0B 0C 0D 0E 0F
      -- -- -- -- -- -- -- --  -- -- -- -- -- -- -- --
0030:                92 01 F8  FF FF 7F 94 01 F8 FF FF       ...........
0040: 7F 00                                             ..              
```

#### Opcodes

```
  0: 0x0035 [0x92] EventEntity->Render.Flags3 ^= 0x01
  1: 0x003B [0x94] EventEntity->Render.Flags3 ^= 0x01
  2: 0x0041 [0x00] END_REQSTACK()
```

### Event 12

#### Metadata

| Field        | Value    |
|--------------|----------|
| Entrypoint   | 0x0042   |
| Data Size    | 13 bytes |
| Instructions | 3        |

```
      00 01 02 03 04 05 06 07  08 09 0A 0B 0C 0D 0E 0F
      -- -- -- -- -- -- -- --  -- -- -- -- -- -- -- --
0040:       92 01 F8 FF FF 7F  94 01 F8 FF FF 7F 00       ............. 
```

#### Opcodes

```
  0: 0x0042 [0x92] EventEntity->Render.Flags3 ^= 0x01
  1: 0x0048 [0x94] EventEntity->Render.Flags3 ^= 0x01
  2: 0x004E [0x00] END_REQSTACK()
```

### Event 212

#### Metadata

| Field        | Value    |
|--------------|----------|
| Entrypoint   | 0x004F   |
| Data Size    | 39 bytes |
| Instructions | 14       |

```
      00 01 02 03 04 05 06 07  08 09 0A 0B 0C 0D 0E 0F
      -- -- -- -- -- -- -- --  -- -- -- -- -- -- -- --
0040:                                               43                 C
0050: 00 43 01 20 01 42 03 01  10 00 80 1E F0 FF FF 7F  .C. .B..........
0060: 6F 70 6E EA 01 03 01 01  80 99 EA 01 03 01 1D 02  opn.............
0070: 80 1C 03 80 21 00                                 ....!.          
```

#### Opcodes

```
  0: 0x004F [0x43] SEND_EVENT_UPDATE: Send pending tag to server (packet 0x005B)
  1: 0x0051 [0x43] SEND_EVENT_UPDATE: Check pending flag (skip if not pending)
  2: 0x0053 [0x20] SET_CLI_EVENT_UC_FLAG: Lock player control
  3: 0x0055 [0x42] SET_CLI_EVENT_CANCEL_DATA()
  4: 0x0056 [0x03] Work_Zone[1] = 1*
  5: 0x005B [0x1E] EventEntity looks at LocalPlayer and starts talking
  6: 0x0060 [0x6F] WAIT_FRAME_DELAY: Yield until WaitTime reaches zero
  7: 0x0061 [0x70] WAIT_ENTITY_RENDER_FLAG: Wait while EventEntity->Render.Flags3 bit 2 is set (cancel turn if not)
  8: 0x0062 [0x6E] Gadalar (ID: 16974314/0x010301EA) uses emote 0*
  9: 0x0069 [0x99] Wait for Gadalar (ID: 16974314/0x010301EA) animation to complete
 10: 0x006E [0x1D] PRINT_EVENT_MESSAGE(message_id=7700*)
    → "<Player>, is it? This should please you..."
 11: 0x0071 [0x1C] WAIT(300* ticks)
 12: 0x0074 [0x21] END_EVENT
 13: 0x0075 [0x00] END_REQSTACK()
```

### Event 65535.1

#### Metadata

| Field        | Value    |
|--------------|----------|
| Entrypoint   | 0x0076   |
| Data Size    | 13 bytes |
| Instructions | 3        |

```
      00 01 02 03 04 05 06 07  08 09 0A 0B 0C 0D 0E 0F
      -- -- -- -- -- -- -- --  -- -- -- -- -- -- -- --
0070:                   6E F8  FF FF 7F 04 80 99 F8 FF        n.........
0080: FF 7F 00                                          ...             
```

#### Opcodes

```
  0: 0x0076 [0x6E] EventEntity uses emote 1323*
  1: 0x007D [0x99] Wait for EventEntity animation to complete
  2: 0x0082 [0x00] END_REQSTACK()
```

### Event 266

#### Metadata

| Field        | Value    |
|--------------|----------|
| Entrypoint   | 0x0083   |
| Data Size    | 39 bytes |
| Instructions | 14       |

```
      00 01 02 03 04 05 06 07  08 09 0A 0B 0C 0D 0E 0F
      -- -- -- -- -- -- -- --  -- -- -- -- -- -- -- --
0080:          20 01 1E F0 FF  FF 7F 6F 70 1D 05 80 23      ......op...#
0090: 6E EA 01 03 01 06 80 99  EA 01 03 01 1D 07 80 23  n..............#
00A0: 99 EA 01 03 01 1C 08 80  21 00                    ........!.      
```

#### Opcodes

```
  0: 0x0083 [0x20] SET_CLI_EVENT_UC_FLAG: Lock player control
  1: 0x0085 [0x1E] EventEntity looks at LocalPlayer and starts talking
  2: 0x008A [0x6F] WAIT_FRAME_DELAY: Yield until WaitTime reaches zero
  3: 0x008B [0x70] WAIT_ENTITY_RENDER_FLAG: Wait while EventEntity->Render.Flags3 bit 2 is set (cancel turn if not)
  4: 0x008C [0x1D] PRINT_EVENT_MESSAGE(message_id=7701*)
    → "You are a mercenary, are you?"
  5: 0x008F [0x23] WAIT_FOR_DIALOG_INTERACTION
  6: 0x0090 [0x6E] Gadalar (ID: 16974314/0x010301EA) uses emote 22*
  7: 0x0097 [0x99] Wait for Gadalar (ID: 16974314/0x010301EA) animation to complete
  8: 0x009C [0x1D] PRINT_EVENT_MESSAGE(message_id=7702*)
    → "Hmph, filthy money-grubbers. Those who are controlled by money are eventually betrayed by it."
  9: 0x009F [0x23] WAIT_FOR_DIALOG_INTERACTION
 10: 0x00A0 [0x99] Wait for Gadalar (ID: 16974314/0x010301EA) animation to complete
 11: 0x00A5 [0x1C] WAIT(30* ticks)
 12: 0x00A8 [0x21] END_EVENT
 13: 0x00A9 [0x00] END_REQSTACK()
```

### Event 274

#### Metadata

| Field        | Value    |
|--------------|----------|
| Entrypoint   | 0x00AA   |
| Data Size    | 59 bytes |
| Instructions | 18       |

```
      00 01 02 03 04 05 06 07  08 09 0A 0B 0C 0D 0E 0F
      -- -- -- -- -- -- -- --  -- -- -- -- -- -- -- --
00A0:                                20 01 1E F0 FF FF             .....
00B0: 7F 6F 70 6E EA 01 03 01  09 80 99 EA 01 03 01 1D  .opn............
00C0: 0A 80 23 99 EA 01 03 01  1C 08 80 6E EA 01 03 01  ..#........n....
00D0: 0B 80 99 EA 01 03 01 1D  0C 80 23 99 EA 01 03 01  ..........#.....
00E0: 1C 08 80 21 00                                    ...!.           
```

#### Opcodes

```
  0: 0x00AA [0x20] SET_CLI_EVENT_UC_FLAG: Lock player control
  1: 0x00AC [0x1E] EventEntity looks at LocalPlayer and starts talking
  2: 0x00B1 [0x6F] WAIT_FRAME_DELAY: Yield until WaitTime reaches zero
  3: 0x00B2 [0x70] WAIT_ENTITY_RENDER_FLAG: Wait while EventEntity->Render.Flags3 bit 2 is set (cancel turn if not)
  4: 0x00B3 [0x6E] Gadalar (ID: 16974314/0x010301EA) uses emote 25*
  5: 0x00BA [0x99] Wait for Gadalar (ID: 16974314/0x010301EA) animation to complete
  6: 0x00BF [0x1D] PRINT_EVENT_MESSAGE(message_id=7703*)
    → "Damn those spineless Imperial soldiers! How could they let the Astral Candescence slip out right under their very noses!?"
  7: 0x00C2 [0x23] WAIT_FOR_DIALOG_INTERACTION
  8: 0x00C3 [0x99] Wait for Gadalar (ID: 16974314/0x010301EA) animation to complete
  9: 0x00C8 [0x1C] WAIT(30* ticks)
 10: 0x00CB [0x6E] Gadalar (ID: 16974314/0x010301EA) uses emote 34*
 11: 0x00D2 [0x99] Wait for Gadalar (ID: 16974314/0x010301EA) animation to complete
 12: 0x00D7 [0x1D] PRINT_EVENT_MESSAGE(message_id=7704*)
    → "...Hm? You! Yes, you! What do you think you're staring at, anyway? Go get the Astral Candescence back, and now!"
 13: 0x00DA [0x23] WAIT_FOR_DIALOG_INTERACTION
 14: 0x00DB [0x99] Wait for Gadalar (ID: 16974314/0x010301EA) animation to complete
 15: 0x00E0 [0x1C] WAIT(30* ticks)
 16: 0x00E3 [0x21] END_EVENT
 17: 0x00E4 [0x00] END_REQSTACK()
```

### Event 65535.2

#### Metadata

| Field        | Value    |
|--------------|----------|
| Entrypoint   | 0x00E5   |
| Data Size    | 10 bytes |
| Instructions | 2        |

```
      00 01 02 03 04 05 06 07  08 09 0A 0B 0C 0D 0E 0F
      -- -- -- -- -- -- -- --  -- -- -- -- -- -- -- --
00E0:                37 0D 80  0E 80 0F 80 10 80 00          7......... 
```

#### Opcodes

```
  0: 0x00E5 [0x37] UPDATE_EVENT_POSITION_AND_DIR: x=-107.257*, z=35.499*, y=-6.000*, direction=349.6°*
  1: 0x00EE [0x00] END_REQSTACK()
```

### Event 65535.3

#### Metadata

| Field        | Value    |
|--------------|----------|
| Entrypoint   | 0x00EF   |
| Data Size    | 10 bytes |
| Instructions | 2        |

```
      00 01 02 03 04 05 06 07  08 09 0A 0B 0C 0D 0E 0F
      -- -- -- -- -- -- -- --  -- -- -- -- -- -- -- --
00E0:                                               37                 7
00F0: 11 80 12 80 01 80 13 80  00                       .........       
```

#### Opcodes

```
  0: 0x00EF [0x37] UPDATE_EVENT_POSITION_AND_DIR: x=-41.930*, z=67.042*, y=0.000*, direction=248.5°*
  1: 0x00F8 [0x00] END_REQSTACK()
```

### Event 285

#### Metadata

| Field        | Value    |
|--------------|----------|
| Entrypoint   | 0x00F9   |
| Data Size    | 39 bytes |
| Instructions | 14       |

```
      00 01 02 03 04 05 06 07  08 09 0A 0B 0C 0D 0E 0F
      -- -- -- -- -- -- -- --  -- -- -- -- -- -- -- --
00F0:                             20 01 1E F0 FF FF 7F            ......
0100: 6F 70 1D 14 80 23 6E EA  01 03 01 01 80 99 EA 01  op...#n.........
0110: 03 01 1D 15 80 23 99 EA  01 03 01 1C 08 80 21 00  .....#........!.
```

#### Opcodes

```
  0: 0x00F9 [0x20] SET_CLI_EVENT_UC_FLAG: Lock player control
  1: 0x00FB [0x1E] EventEntity looks at LocalPlayer and starts talking
  2: 0x0100 [0x6F] WAIT_FRAME_DELAY: Yield until WaitTime reaches zero
  3: 0x0101 [0x70] WAIT_ENTITY_RENDER_FLAG: Wait while EventEntity->Render.Flags3 bit 2 is set (cancel turn if not)
  4: 0x0102 [0x1D] PRINT_EVENT_MESSAGE(message_id=7705*)
    → "Ugh, you again. I have no patience for the mercenary mentality."
  5: 0x0105 [0x23] WAIT_FOR_DIALOG_INTERACTION
  6: 0x0106 [0x6E] Gadalar (ID: 16974314/0x010301EA) uses emote 0*
  7: 0x010D [0x99] Wait for Gadalar (ID: 16974314/0x010301EA) animation to complete
  8: 0x0112 [0x1D] PRINT_EVENT_MESSAGE(message_id=7706*)
    → "But you do show some skill in battle. I'll give you that much, <Player>..."
  9: 0x0115 [0x23] WAIT_FOR_DIALOG_INTERACTION
 10: 0x0116 [0x99] Wait for Gadalar (ID: 16974314/0x010301EA) animation to complete
 11: 0x011B [0x1C] WAIT(30* ticks)
 12: 0x011E [0x21] END_EVENT
 13: 0x011F [0x00] END_REQSTACK()
```
