# 16974388 - Devonte

## Common Data

| Field            | Value             |
|------------------|-------------------|
| Zone             | Al Zahbi (ID: 48) |
| Block Size       | 96 bytes          |
| Total Events     | 2                 |
| References Count | 6                 |

## List of Events

| Event ID              | Entrypoint   |   Size |   Instructions |
|-----------------------|--------------|--------|----------------|
| [65535](#event-65535) | 0x0000       |      1 |              1 |
| [249](#event-249)     | 0x0001       |     46 |             14 |

## DAT References (imed_data)

|   Index | Hex Value   |   Dec Value |
|---------|-------------|-------------|
|       0 | 0x001E      |          30 |
|       1 | 0x1FAA      |        8106 |
|       2 | 0x0006      |           6 |
|       3 | 0x1FAB      |        8107 |
|       4 | 0x0013      |          19 |
|       5 | 0x1FAC      |        8108 |

## String References

- **8106**: Aht Urhgan, land of the courageous...
- **8107**: I used to have confidence in my strength, and I came to this nation to test my skill. But you could not pay me enough to face the ferocious beastmen here...
- **8108**: Still, I can't go running home now, or everyone will think I am a coward! How do I get myself into these messes...?

## Events

### Event 65535

#### Metadata

| Field        | Value   |
|--------------|---------|
| Entrypoint   | 0x0000  |
| Data Size    | 1 bytes |
| Instructions | 1       |

```
      00 01 02 03 04 05 06 07  08 09 0A 0B 0C 0D 0E 0F
      -- -- -- -- -- -- -- --  -- -- -- -- -- -- -- --
0000: 00                                                .               
```

#### Opcodes

```
  0: 0x0000 [0x00] END_REQSTACK()
```

### Event 249

#### Metadata

| Field        | Value    |
|--------------|----------|
| Entrypoint   | 0x0001   |
| Data Size    | 46 bytes |
| Instructions | 14       |

```
      00 01 02 03 04 05 06 07  08 09 0A 0B 0C 0D 0E 0F
      -- -- -- -- -- -- -- --  -- -- -- -- -- -- -- --
0000:    1E F0 FF FF 7F 1C 00  80 1D 01 80 23 6E 34 02   ...........#n4.
0010: 03 01 02 80 99 34 02 03  01 1D 03 80 23 6E 34 02  .....4......#n4.
0020: 03 01 04 80 99 34 02 03  01 1D 05 80 23 21 00     .....4......#!. 
```

#### Opcodes

```
  0: 0x0001 [0x1E] EventEntity looks at LocalPlayer and starts talking
  1: 0x0006 [0x1C] WAIT(30* ticks)
  2: 0x0009 [0x1D] PRINT_EVENT_MESSAGE(message_id=8106*)
    → "Aht Urhgan, land of the courageous..."
  3: 0x000C [0x23] WAIT_FOR_DIALOG_INTERACTION
  4: 0x000D [0x6E] Devonte (ID: 16974388/0x01030234) uses emote 6*
  5: 0x0014 [0x99] Wait for Devonte (ID: 16974388/0x01030234) animation to complete
  6: 0x0019 [0x1D] PRINT_EVENT_MESSAGE(message_id=8107*)
    → "I used to have confidence in my strength, and I came to this nation to test my skill. But you could not pay me enough to face the ferocious beastmen here..."
  7: 0x001C [0x23] WAIT_FOR_DIALOG_INTERACTION
  8: 0x001D [0x6E] Devonte (ID: 16974388/0x01030234) uses emote 19*
  9: 0x0024 [0x99] Wait for Devonte (ID: 16974388/0x01030234) animation to complete
 10: 0x0029 [0x1D] PRINT_EVENT_MESSAGE(message_id=8108*)
    → "Still, I can't go running home now, or everyone will think I am a coward! How do I get myself into these messes...?"
 11: 0x002C [0x23] WAIT_FOR_DIALOG_INTERACTION
 12: 0x002D [0x21] END_EVENT
 13: 0x002E [0x00] END_REQSTACK()
```
