# 16974319 - Dahaaba

## Common Data

| Field            | Value             |
|------------------|-------------------|
| Zone             | Al Zahbi (ID: 48) |
| Block Size       | 372 bytes         |
| Total Events     | 4                 |
| References Count | 19                |

## List of Events

| Event ID              | Entrypoint   |   Size |   Instructions |
|-----------------------|--------------|--------|----------------|
| [65535](#event-65535) | 0x0000       |      1 |              1 |
| [205](#event-205)     | 0x0001       |     52 |             13 |
| [270](#event-270)     | 0x0035       |    194 |             39 |
| [271](#event-271)     | 0x00F7       |     16 |              6 |

## DAT References (imed_data)

|   Index | Hex Value   |   Dec Value |
|---------|-------------|-------------|
|       0 | 0x0001      |           1 |
|       1 | 0x1DE8      |        7656 |
|       2 | 0x001E      |          30 |
|       3 | 0xFFFFFFFC  |  4294967292 |
|       4 | 0x1FD2      |        8146 |
|       5 | 0xFFFFFFFD  |  4294967293 |
|       6 | 0xFFFFFFFF  |  4294967295 |
|       7 | 0x00C8      |         200 |
|       8 | 0x0000      |           0 |
|       9 | 0x0020      |          32 |
|      10 | 0x005A      |          90 |
|      11 | 0x003C      |          60 |
|      12 | 0x00C9      |         201 |
|      13 | 0x008A      |         138 |
|      14 | 0x1FCC      |        8140 |
|      15 | 0x1FCF      |        8143 |
|      16 | 0x1FD0      |        8144 |
|      17 | 0x40000000  |  1073741824 |
|      18 | 0x1FCB      |        8139 |

## String References

- **7656**: You are the adventurer who saved me, are you not? I have been waiting to meet again so I could give you this.
- **8139**: If you wish to ride a chocobo, you must possess $6 and have a high enough job level.
- **8140**: You can rent a chocobo for $0 gil. I see you currently have $1 gil.
- **8143**: Do you wish to rent a chocobo? [Yes, I do./No, thank you.]
- **8144**: You don't have enough gil.
- **8146**: Would you be so kind as to deliver her to [the entrance to the Gustav Tunnel (B-8)/Bibiki Bay (G-10)/the entrance of Uggalepih Temple (J-11)]?

## Events

### Event 65535

#### Metadata

| Field        | Value   |
|--------------|---------|
| Entrypoint   | 0x0000  |
| Data Size    | 1 bytes |
| Instructions | 1       |

```
      00 01 02 03 04 05 06 07  08 09 0A 0B 0C 0D 0E 0F
      -- -- -- -- -- -- -- --  -- -- -- -- -- -- -- --
0000: 00                                                .               
```

#### Opcodes

```
  0: 0x0000 [0x00] END_REQSTACK()
```

### Event 205

#### Metadata

| Field        | Value    |
|--------------|----------|
| Entrypoint   | 0x0001   |
| Data Size    | 52 bytes |
| Instructions | 13       |

```
      00 01 02 03 04 05 06 07  08 09 0A 0B 0C 0D 0E 0F
      -- -- -- -- -- -- -- --  -- -- -- -- -- -- -- --
0000:    43 00 43 01 20 01 42  03 01 10 00 80 1E F0 FF   C.C. .B........
0010: FF 7F 6F 70 1D 01 80 66  02 80 F8 FF FF 7F F8 FF  ..op...f........
0020: FF 7F 70 61 73 30 53 F8  FF FF 7F F8 FF FF 7F 70  ..pas0S........p
0030: 61 73 30 21 00                                    as0!.           
```

#### Opcodes

```
  0: 0x0001 [0x43] SEND_EVENT_UPDATE: Send pending tag to server (packet 0x005B)
  1: 0x0003 [0x43] SEND_EVENT_UPDATE: Check pending flag (skip if not pending)
  2: 0x0005 [0x20] SET_CLI_EVENT_UC_FLAG: Lock player control
  3: 0x0007 [0x42] SET_CLI_EVENT_CANCEL_DATA()
  4: 0x0008 [0x03] Work_Zone[1] = 1*
  5: 0x000D [0x1E] EventEntity looks at LocalPlayer and starts talking
  6: 0x0012 [0x6F] WAIT_FRAME_DELAY: Yield until WaitTime reaches zero
  7: 0x0013 [0x70] WAIT_ENTITY_RENDER_FLAG: Wait while EventEntity->Render.Flags3 bit 2 is set (cancel turn if not)
  8: 0x0014 [0x1D] PRINT_EVENT_MESSAGE(message_id=7656*)
    → "You are the adventurer who saved me, are you not? I have been waiting to meet again so I could give you this."
  9: 0x0017 [0x66] LOAD_EXT_SCHEDULER_MAIN: Load scheduler "pas0" with entities [EventEntity, EventEntity], work=30*
 10: 0x0026 [0x53] WAIT_SCHEDULER_TASK: Wait for scheduler "pas0" with entities [EventEntity, EventEntity]
 11: 0x0033 [0x21] END_EVENT
 12: 0x0034 [0x00] END_REQSTACK()
```

### Event 270

#### Metadata

| Field        | Value     |
|--------------|-----------|
| Entrypoint   | 0x0035    |
| Data Size    | 194 bytes |
| Instructions | 37        |

```
      00 01 02 03 04 05 06 07  08 09 0A 0B 0C 0D 0E 0F
      -- -- -- -- -- -- -- --  -- -- -- -- -- -- -- --
0030:                02 02 10  03 80 00 44 00 42 1D 04       ......D.B..
0040: 80 23 21 00 02 02 10 05  80 00 51 00 1E F0 FF FF  .#!.......Q.....
0050: 7F 02 02 10 06 80 00 8E  00 42 45 07 80 F8 FF FF  .........BE.....
0060: 7F F8 FF FF 7F 66 64 6F  32 08 80 02 04 10 08 80  .....fdo2.......
0070: 00 8C 00 5D 09 80 0A 80  1C 0B 80 45 0C 80 F8 FF  ...].......E....
0080: FF 7F F8 FF FF 7F 63 68  63 6F 08 80 21 00 03 09  ......chco..!...
0090: 10 0D 80 1E F0 FF FF 7F  1D 0E 80 23 24 0F 80 00  ...........#$...
00A0: 80 08 80 25 02 00 10 08  80 00 F0 00 02 03 10 02  ...%............
00B0: 10 04 E2 00 42 45 07 80  F8 FF FF 7F F8 FF FF 7F  ....BE..........
00C0: 66 64 6F 31 08 80 02 04  10 08 80 00 DF 00 45 0C  fdo1..........E.
00D0: 80 F8 FF FF 7F F8 FF FF  7F 63 68 63 6F 08 80 01  .........chco...
00E0: EB 00 1D 10 80 23 03 01  10 11 80 21 00 01 F5 00  .....#.....!....
00F0: 03 01 10 11 80 21 00                              .....!.         
```

#### Opcodes

```
  0: 0x0035 [0x02] IF !(Work_Zone[2] == 4294967292*) GOTO 0x0044
  1: 0x003D [0x42] SET_CLI_EVENT_CANCEL_DATA()
  2: 0x003E [0x1D] PRINT_EVENT_MESSAGE(message_id=8146*)
    → "Would you be so kind as to deliver her to [the entrance to the Gustav Tunnel (B-8)/Bibiki Bay (G-10)/the entrance of Uggalepih Temple (J-11)]?"
  3: 0x0041 [0x23] WAIT_FOR_DIALOG_INTERACTION
  4: 0x0042 [0x21] END_EVENT
  5: 0x0043 [0x00] END_REQSTACK()
  6: 0x0044 [0x02] IF !(Work_Zone[2] == 4294967293*) GOTO 0x0051
  7: 0x004C [0x1E] EventEntity looks at LocalPlayer and starts talking
  8: 0x0051 [0x02] IF !(Work_Zone[2] == 4294967295*) GOTO 0x008E
  9: 0x0059 [0x42] SET_CLI_EVENT_CANCEL_DATA()
 10: 0x005A [0x45] LOAD_SCHEDULED_TASK: Load scheduler "fdo2" with entities [EventEntity, EventEntity], work=[200*, 0*]
 11: 0x006B [0x02] IF !(Work_Zone[4] == 0*) GOTO 0x008C
 12: 0x0073 [0x5D] SET_MUSIC_VOLUME(volume=32*, fade_time=90*)
 13: 0x0078 [0x1C] WAIT(60* ticks)
 14: 0x007B [0x45] LOAD_SCHEDULED_TASK: Load scheduler "chco" with entities [EventEntity, EventEntity], work=[201*, 0*]
 15: 0x008C [0x21] END_EVENT
 16: 0x008D [0x00] END_REQSTACK()
 17: 0x008E [0x03] Work_Zone[9] = 138*
 18: 0x0093 [0x1E] EventEntity looks at LocalPlayer and starts talking
 19: 0x0098 [0x1D] PRINT_EVENT_MESSAGE(message_id=8140*)
    → "You can rent a chocobo for $0 gil. I see you currently have $1 gil."
 20: 0x009B [0x23] WAIT_FOR_DIALOG_INTERACTION
 21: 0x009C [0x24] CREATE_DIALOG(message_id=8143*, default_option=1*, option_flags=0*)
    → "Do you wish to rent a chocobo? [Yes, I do./No, thank you.]"
 22: 0x00A3 [0x25] WAIT_DIALOG_SELECT()
 23: 0x00A4 [0x02] IF !(Work_Zone[0] == 0*) GOTO 0x00F0
 24: 0x00AC [0x02] IF !(Work_Zone[3] < Work_Zone[2]) GOTO 0x00E2
 25: 0x00B4 [0x42] SET_CLI_EVENT_CANCEL_DATA()
 26: 0x00B5 [0x45] LOAD_SCHEDULED_TASK: Load scheduler "fdo1" with entities [EventEntity, EventEntity], work=[200*, 0*]
 27: 0x00C6 [0x02] IF !(Work_Zone[4] == 0*) GOTO 0x00DF
 28: 0x00CE [0x45] LOAD_SCHEDULED_TASK: Load scheduler "chco" with entities [EventEntity, EventEntity], work=[201*, 0*]
 29: 0x00DF [0x01] GOTO 0x00EB
 30: 0x00E2 [0x1D] PRINT_EVENT_MESSAGE(message_id=8144*)
    → "You don't have enough gil."
 31: 0x00E5 [0x23] WAIT_FOR_DIALOG_INTERACTION
 32: 0x00E6 [0x03] Work_Zone[1] = 1073741824*

SUBROUTINE_00EB:
 33: 0x00EB [0x21] END_EVENT
 34: 0x00EC [0x00] END_REQSTACK()

SUBROUTINE_00F5:
 35: 0x00F5 [0x21] END_EVENT
 36: 0x00F6 [0x00] END_REQSTACK()
```

#### Data or dead code:

```
# Dead code (unreachable instructions):
     0x00ED [0x01] GOTO 0x00F5
```

### Event 271

#### Metadata

| Field        | Value    |
|--------------|----------|
| Entrypoint   | 0x00F7   |
| Data Size    | 16 bytes |
| Instructions | 6        |

```
      00 01 02 03 04 05 06 07  08 09 0A 0B 0C 0D 0E 0F
      -- -- -- -- -- -- -- --  -- -- -- -- -- -- -- --
00F0:                      03  09 10 0D 80 1E F0 FF FF         .........
0100: 7F 1D 12 80 23 21 00                              ....#!.         
```

#### Opcodes

```
  0: 0x00F7 [0x03] Work_Zone[9] = 138*
  1: 0x00FC [0x1E] EventEntity looks at LocalPlayer and starts talking
  2: 0x0101 [0x1D] PRINT_EVENT_MESSAGE(message_id=8139*)
    → "If you wish to ride a chocobo, you must possess $6 and have a high enough job level."
  3: 0x0104 [0x23] WAIT_FOR_DIALOG_INTERACTION
  4: 0x0105 [0x21] END_EVENT
  5: 0x0106 [0x00] END_REQSTACK()
```
