# 16974378 - Ugahar

## Common Data

| Field            | Value             |
|------------------|-------------------|
| Zone             | Al Zahbi (ID: 48) |
| Block Size       | 188 bytes         |
| Total Events     | 3                 |
| References Count | 6                 |

## List of Events

| Event ID              | Entrypoint   |   Size |   Instructions |
|-----------------------|--------------|--------|----------------|
| [65535](#event-65535) | 0x0000       |      1 |              1 |
| [238](#event-238)     | 0x0001       |     66 |             12 |
| [272](#event-272)     | 0x0043       |     66 |             12 |

## DAT References (imed_data)

|   Index | Hex Value   |   Dec Value |
|---------|-------------|-------------|
|       0 | 0x001E      |          30 |
|       1 | 0x0045      |          69 |
|       2 | 0x1F89      |        8073 |
|       3 | 0x003C      |          60 |
|       4 | 0x1F8A      |        8074 |
|       5 | 0x1F8B      |        8075 |

## String References

- **8073**: That place is called the "Hall of Binding." The door is always closed, and the place gives everyone the creeps. They say that a great treasure called the "Astral Candescence" is kept there.
- **8074**: Being so secretive just makes people more curious, though...
- **8075**: Right now, it looks like you can go in and have a peek. Not that it's worth it. There's just some big pillar, with no treasure in sight...

## Events

### Event 65535

#### Metadata

| Field        | Value   |
|--------------|---------|
| Entrypoint   | 0x0000  |
| Data Size    | 1 bytes |
| Instructions | 1       |

```
      00 01 02 03 04 05 06 07  08 09 0A 0B 0C 0D 0E 0F
      -- -- -- -- -- -- -- --  -- -- -- -- -- -- -- --
0000: 00                                                .               
```

#### Opcodes

```
  0: 0x0000 [0x00] END_REQSTACK()
```

### Event 238

#### Metadata

| Field        | Value    |
|--------------|----------|
| Entrypoint   | 0x0001   |
| Data Size    | 66 bytes |
| Instructions | 12       |

```
      00 01 02 03 04 05 06 07  08 09 0A 0B 0C 0D 0E 0F
      -- -- -- -- -- -- -- --  -- -- -- -- -- -- -- --
0000:    1E F0 FF FF 7F 1C 00  80 66 01 80 F8 FF FF 7F   ........f......
0010: F8 FF FF 7F 74 77 61 30  1D 02 80 23 66 01 80 F8  ....twa0...#f...
0020: FF FF 7F F8 FF FF 7F 74  77 61 31 1C 03 80 66 01  .......twa1...f.
0030: 80 F8 FF FF 7F F8 FF FF  7F 74 77 62 30 1D 04 80  .........twb0...
0040: 23 21 00                                          #!.             
```

#### Opcodes

```
  0: 0x0001 [0x1E] EventEntity looks at LocalPlayer and starts talking
  1: 0x0006 [0x1C] WAIT(30* ticks)
  2: 0x0009 [0x66] LOAD_EXT_SCHEDULER_MAIN: Load scheduler "twa0" with entities [EventEntity, EventEntity], work=69*
  3: 0x0018 [0x1D] PRINT_EVENT_MESSAGE(message_id=8073*)
    → "That place is called the "Hall of Binding." The door is always closed, and the place gives everyone the creeps. They say that a great treasure called the "Astral Candescence" is kept there."
  4: 0x001B [0x23] WAIT_FOR_DIALOG_INTERACTION
  5: 0x001C [0x66] LOAD_EXT_SCHEDULER_MAIN: Load scheduler "twa1" with entities [EventEntity, EventEntity], work=69*
  6: 0x002B [0x1C] WAIT(60* ticks)
  7: 0x002E [0x66] LOAD_EXT_SCHEDULER_MAIN: Load scheduler "twb0" with entities [EventEntity, EventEntity], work=69*
  8: 0x003D [0x1D] PRINT_EVENT_MESSAGE(message_id=8074*)
    → "Being so secretive just makes people more curious, though..."
  9: 0x0040 [0x23] WAIT_FOR_DIALOG_INTERACTION
 10: 0x0041 [0x21] END_EVENT
 11: 0x0042 [0x00] END_REQSTACK()
```

### Event 272

#### Metadata

| Field        | Value    |
|--------------|----------|
| Entrypoint   | 0x0043   |
| Data Size    | 66 bytes |
| Instructions | 12       |

```
      00 01 02 03 04 05 06 07  08 09 0A 0B 0C 0D 0E 0F
      -- -- -- -- -- -- -- --  -- -- -- -- -- -- -- --
0040:          1E F0 FF FF 7F  1C 00 80 66 01 80 F8 FF     ........f....
0050: FF 7F F8 FF FF 7F 74 77  61 30 1D 02 80 23 66 01  ......twa0...#f.
0060: 80 F8 FF FF 7F F8 FF FF  7F 74 77 61 31 1C 03 80  .........twa1...
0070: 66 01 80 F8 FF FF 7F F8  FF FF 7F 74 77 62 30 1D  f..........twb0.
0080: 05 80 23 21 00                                    ..#!.           
```

#### Opcodes

```
  0: 0x0043 [0x1E] EventEntity looks at LocalPlayer and starts talking
  1: 0x0048 [0x1C] WAIT(30* ticks)
  2: 0x004B [0x66] LOAD_EXT_SCHEDULER_MAIN: Load scheduler "twa0" with entities [EventEntity, EventEntity], work=69*
  3: 0x005A [0x1D] PRINT_EVENT_MESSAGE(message_id=8073*)
    → "That place is called the "Hall of Binding." The door is always closed, and the place gives everyone the creeps. They say that a great treasure called the "Astral Candescence" is kept there."
  4: 0x005D [0x23] WAIT_FOR_DIALOG_INTERACTION
  5: 0x005E [0x66] LOAD_EXT_SCHEDULER_MAIN: Load scheduler "twa1" with entities [EventEntity, EventEntity], work=69*
  6: 0x006D [0x1C] WAIT(60* ticks)
  7: 0x0070 [0x66] LOAD_EXT_SCHEDULER_MAIN: Load scheduler "twb0" with entities [EventEntity, EventEntity], work=69*
  8: 0x007F [0x1D] PRINT_EVENT_MESSAGE(message_id=8075*)
    → "Right now, it looks like you can go in and have a peek. Not that it's worth it. There's just some big pillar, with no treasure in sight..."
  9: 0x0082 [0x23] WAIT_FOR_DIALOG_INTERACTION
 10: 0x0083 [0x21] END_EVENT
 11: 0x0084 [0x00] END_REQSTACK()
```
