# 16974371 - Gajaad

## Common Data

| Field            | Value             |
|------------------|-------------------|
| Zone             | Al Zahbi (ID: 48) |
| Block Size       | 380 bytes         |
| Total Events     | 2                 |
| References Count | 14                |

## List of Events

| Event ID              | Entrypoint   |   Size |   Instructions |
|-----------------------|--------------|--------|----------------|
| [65535](#event-65535) | 0x0000       |      1 |              1 |
| [102](#event-102)     | 0x0001       |    299 |             92 |

## DAT References (imed_data)

|   Index | Hex Value   |   Dec Value |
|---------|-------------|-------------|
|       0 | 0x0000      |           0 |
|       1 | 0x0001      |           1 |
|       2 | 0x1F19      |        7961 |
|       3 | 0x1F1C      |        7964 |
|       4 | 0x1F1D      |        7965 |
|       5 | 0x1F1E      |        7966 |
|       6 | 0x1F21      |        7969 |
|       7 | 0x1F22      |        7970 |
|       8 | 0x1F23      |        7971 |
|       9 | 0x1F24      |        7972 |
|      10 | 0x1F1F      |        7967 |
|      11 | 0x1F20      |        7968 |
|      12 | 0x1F1A      |        7962 |
|      13 | 0x1F1B      |        7963 |

## String References

- **7961**: Um, excuse me... Could I have a bit of your time?
- **7962**: I have come from Walahra Temple, and...well, that is to say... I am collecting signatures for a petition to reconstruct Al Zahbi after the beastman attacks! ...Phew.
- **7963**: Um, do you think you could sign this petition? ...For the good of Al Zahbi?
- **7964**: Al Zahbi thanks you for your $2 $0 .
- **7965**: Would you like to make another donation or provide another signature for the good of Al Zahbi?
- **7966**: Sign the petition? [Of course./Don't feel like it.]
- **7967**: B-but...don't you think you could just lend your name to the cause...?
- **7968**: Well...please come back when you do feel like it!
- **7969**: Please sign here.
- **7970**: Now...all I ask of you is that you humbly donate $0.
- **7971**: It's not much to show you care, is it?
- **7972**: Please, for the good of Al Zahbi!

## Events

### Event 65535

#### Metadata

| Field        | Value   |
|--------------|---------|
| Entrypoint   | 0x0000  |
| Data Size    | 1 bytes |
| Instructions | 1       |

```
      00 01 02 03 04 05 06 07  08 09 0A 0B 0C 0D 0E 0F
      -- -- -- -- -- -- -- --  -- -- -- -- -- -- -- --
0000: 00                                                .               
```

#### Opcodes

```
  0: 0x0000 [0x00] END_REQSTACK()
```

### Event 102

#### Metadata

| Field        | Value     |
|--------------|-----------|
| Entrypoint   | 0x0001    |
| Data Size    | 299 bytes |
| Instructions | 92        |

```
      00 01 02 03 04 05 06 07  08 09 0A 0B 0C 0D 0E 0F
      -- -- -- -- -- -- -- --  -- -- -- -- -- -- -- --
0000:    03 01 10 00 80 1E F0  FF FF 7F 6F 70 66 01 80   ..........opf..
0010: F8 FF FF 7F F8 FF FF 7F  67 6F 6D 30 1D 02 80 23  ........gom0...#
0020: 02 04 10 00 80 02 A3 00  1D 03 80 23 1D 04 80 23  ...........#...#
0030: 24 05 80 00 80 00 80 25  02 00 10 00 80 00 59 00  $......%......Y.
0040: 42 1D 06 80 23 1D 07 80  23 1D 08 80 23 1D 09 80  B...#...#...#...
0050: 23 03 01 10 01 80 01 A0  00 02 00 10 01 80 00 A0  #...............
0060: 00 1D 0A 80 23 24 05 80  00 80 00 80 25 02 00 10  ....#$......%...
0070: 00 80 00 8E 00 42 1D 06  80 23 1D 07 80 23 1D 08  .....B...#...#..
0080: 80 23 1D 09 80 23 03 01  10 01 80 01 9D 00 02 00  .#...#..........
0090: 10 01 80 00 9D 00 1D 0B  80 23 01 9D 00 01 A0 00  .........#......
00A0: 01 1B 01 1D 0C 80 23 1D  0D 80 23 24 05 80 00 80  ......#...#$....
00B0: 00 80 25 02 00 10 00 80  00 D4 00 42 1D 06 80 23  ..%........B...#
00C0: 1D 07 80 23 1D 08 80 23  1D 09 80 23 03 01 10 01  ...#...#...#....
00D0: 80 01 1B 01 02 00 10 01  80 00 1B 01 1D 0A 80 23  ...............#
00E0: 24 05 80 00 80 00 80 25  02 00 10 00 80 00 09 01  $......%........
00F0: 42 1D 06 80 23 1D 07 80  23 1D 08 80 23 1D 09 80  B...#...#...#...
0100: 23 03 01 10 01 80 01 18  01 02 00 10 01 80 00 18  #...............
0110: 01 1D 0B 80 23 01 18 01  01 1B 01 66 01 80 F8 FF  ....#......f....
0120: FF 7F F8 FF FF 7F 67 6F  6D 31 21 00              ......gom1!.    
```

#### Opcodes

```
  0: 0x0001 [0x03] Work_Zone[1] = 0*
  1: 0x0006 [0x1E] EventEntity looks at LocalPlayer and starts talking
  2: 0x000B [0x6F] WAIT_FRAME_DELAY: Yield until WaitTime reaches zero
  3: 0x000C [0x70] WAIT_ENTITY_RENDER_FLAG: Wait while EventEntity->Render.Flags3 bit 2 is set (cancel turn if not)
  4: 0x000D [0x66] LOAD_EXT_SCHEDULER_MAIN: Load scheduler "gom0" with entities [EventEntity, EventEntity], work=1*
  5: 0x001C [0x1D] PRINT_EVENT_MESSAGE(message_id=7961*)
    → "Um, excuse me... Could I have a bit of your time?"
  6: 0x001F [0x23] WAIT_FOR_DIALOG_INTERACTION
  7: 0x0020 [0x02] IF !(Work_Zone[4] <= 0*) GOTO 0x00A3
  8: 0x0028 [0x1D] PRINT_EVENT_MESSAGE(message_id=7964*)
    → "Al Zahbi thanks you for your $2 $0 ."
  9: 0x002B [0x23] WAIT_FOR_DIALOG_INTERACTION
 10: 0x002C [0x1D] PRINT_EVENT_MESSAGE(message_id=7965*)
    → "Would you like to make another donation or provide another signature for the good of Al Zahbi?"
 11: 0x002F [0x23] WAIT_FOR_DIALOG_INTERACTION
 12: 0x0030 [0x24] CREATE_DIALOG(message_id=7966*, default_option=0*, option_flags=0*)
    → "Sign the petition? [Of course./Don't feel like it.]"
 13: 0x0037 [0x25] WAIT_DIALOG_SELECT()
 14: 0x0038 [0x02] IF !(Work_Zone[0] == 0*) GOTO 0x0059
 15: 0x0040 [0x42] SET_CLI_EVENT_CANCEL_DATA()
 16: 0x0041 [0x1D] PRINT_EVENT_MESSAGE(message_id=7969*)
    → "Please sign here."
 17: 0x0044 [0x23] WAIT_FOR_DIALOG_INTERACTION
 18: 0x0045 [0x1D] PRINT_EVENT_MESSAGE(message_id=7970*)
    → "Now...all I ask of you is that you humbly donate $0."
 19: 0x0048 [0x23] WAIT_FOR_DIALOG_INTERACTION
 20: 0x0049 [0x1D] PRINT_EVENT_MESSAGE(message_id=7971*)
    → "It's not much to show you care, is it?"
 21: 0x004C [0x23] WAIT_FOR_DIALOG_INTERACTION
 22: 0x004D [0x1D] PRINT_EVENT_MESSAGE(message_id=7972*)
    → "Please, for the good of Al Zahbi!"
 23: 0x0050 [0x23] WAIT_FOR_DIALOG_INTERACTION
 24: 0x0051 [0x03] Work_Zone[1] = 1*
 25: 0x0056 [0x01] GOTO 0x00A0
 26: 0x0059 [0x02] IF !(Work_Zone[0] == 1*) GOTO 0x00A0
 27: 0x0061 [0x1D] PRINT_EVENT_MESSAGE(message_id=7967*)
    → "B-but...don't you think you could just lend your name to the cause...?"
 28: 0x0064 [0x23] WAIT_FOR_DIALOG_INTERACTION
 29: 0x0065 [0x24] CREATE_DIALOG(message_id=7966*, default_option=0*, option_flags=0*)
    → "Sign the petition? [Of course./Don't feel like it.]"
 30: 0x006C [0x25] WAIT_DIALOG_SELECT()
 31: 0x006D [0x02] IF !(Work_Zone[0] == 0*) GOTO 0x008E
 32: 0x0075 [0x42] SET_CLI_EVENT_CANCEL_DATA()
 33: 0x0076 [0x1D] PRINT_EVENT_MESSAGE(message_id=7969*)
    → "Please sign here."
 34: 0x0079 [0x23] WAIT_FOR_DIALOG_INTERACTION
 35: 0x007A [0x1D] PRINT_EVENT_MESSAGE(message_id=7970*)
    → "Now...all I ask of you is that you humbly donate $0."
 36: 0x007D [0x23] WAIT_FOR_DIALOG_INTERACTION
 37: 0x007E [0x1D] PRINT_EVENT_MESSAGE(message_id=7971*)
    → "It's not much to show you care, is it?"
 38: 0x0081 [0x23] WAIT_FOR_DIALOG_INTERACTION
 39: 0x0082 [0x1D] PRINT_EVENT_MESSAGE(message_id=7972*)
    → "Please, for the good of Al Zahbi!"
 40: 0x0085 [0x23] WAIT_FOR_DIALOG_INTERACTION
 41: 0x0086 [0x03] Work_Zone[1] = 1*
 42: 0x008B [0x01] GOTO 0x009D
 43: 0x008E [0x02] IF !(Work_Zone[0] == 1*) GOTO 0x009D
 44: 0x0096 [0x1D] PRINT_EVENT_MESSAGE(message_id=7968*)
    → "Well...please come back when you do feel like it!"
 45: 0x0099 [0x23] WAIT_FOR_DIALOG_INTERACTION
 46: 0x009A [0x01] GOTO 0x009D

SUBROUTINE_009D:
 47: 0x009D [0x01] GOTO 0x00A0

SUBROUTINE_00A0:
 48: 0x00A0 [0x01] GOTO 0x011B
 49: 0x00A3 [0x1D] PRINT_EVENT_MESSAGE(message_id=7962*)
    → "I have come from Walahra Temple, and...well, that is to say... I am collecting signatures for a petition to reconstruct Al Zahbi after the beastman attacks! ...Phew."
 50: 0x00A6 [0x23] WAIT_FOR_DIALOG_INTERACTION
 51: 0x00A7 [0x1D] PRINT_EVENT_MESSAGE(message_id=7963*)
    → "Um, do you think you could sign this petition? ...For the good of Al Zahbi?"
 52: 0x00AA [0x23] WAIT_FOR_DIALOG_INTERACTION
 53: 0x00AB [0x24] CREATE_DIALOG(message_id=7966*, default_option=0*, option_flags=0*)
    → "Sign the petition? [Of course./Don't feel like it.]"
 54: 0x00B2 [0x25] WAIT_DIALOG_SELECT()
 55: 0x00B3 [0x02] IF !(Work_Zone[0] == 0*) GOTO 0x00D4
 56: 0x00BB [0x42] SET_CLI_EVENT_CANCEL_DATA()
 57: 0x00BC [0x1D] PRINT_EVENT_MESSAGE(message_id=7969*)
    → "Please sign here."
 58: 0x00BF [0x23] WAIT_FOR_DIALOG_INTERACTION
 59: 0x00C0 [0x1D] PRINT_EVENT_MESSAGE(message_id=7970*)
    → "Now...all I ask of you is that you humbly donate $0."
 60: 0x00C3 [0x23] WAIT_FOR_DIALOG_INTERACTION
 61: 0x00C4 [0x1D] PRINT_EVENT_MESSAGE(message_id=7971*)
    → "It's not much to show you care, is it?"
 62: 0x00C7 [0x23] WAIT_FOR_DIALOG_INTERACTION
 63: 0x00C8 [0x1D] PRINT_EVENT_MESSAGE(message_id=7972*)
    → "Please, for the good of Al Zahbi!"
 64: 0x00CB [0x23] WAIT_FOR_DIALOG_INTERACTION
 65: 0x00CC [0x03] Work_Zone[1] = 1*
 66: 0x00D1 [0x01] GOTO 0x011B
 67: 0x00D4 [0x02] IF !(Work_Zone[0] == 1*) GOTO 0x011B
 68: 0x00DC [0x1D] PRINT_EVENT_MESSAGE(message_id=7967*)
    → "B-but...don't you think you could just lend your name to the cause...?"
 69: 0x00DF [0x23] WAIT_FOR_DIALOG_INTERACTION
 70: 0x00E0 [0x24] CREATE_DIALOG(message_id=7966*, default_option=0*, option_flags=0*)
    → "Sign the petition? [Of course./Don't feel like it.]"
 71: 0x00E7 [0x25] WAIT_DIALOG_SELECT()
 72: 0x00E8 [0x02] IF !(Work_Zone[0] == 0*) GOTO 0x0109
 73: 0x00F0 [0x42] SET_CLI_EVENT_CANCEL_DATA()
 74: 0x00F1 [0x1D] PRINT_EVENT_MESSAGE(message_id=7969*)
    → "Please sign here."
 75: 0x00F4 [0x23] WAIT_FOR_DIALOG_INTERACTION
 76: 0x00F5 [0x1D] PRINT_EVENT_MESSAGE(message_id=7970*)
    → "Now...all I ask of you is that you humbly donate $0."
 77: 0x00F8 [0x23] WAIT_FOR_DIALOG_INTERACTION
 78: 0x00F9 [0x1D] PRINT_EVENT_MESSAGE(message_id=7971*)
    → "It's not much to show you care, is it?"
 79: 0x00FC [0x23] WAIT_FOR_DIALOG_INTERACTION
 80: 0x00FD [0x1D] PRINT_EVENT_MESSAGE(message_id=7972*)
    → "Please, for the good of Al Zahbi!"
 81: 0x0100 [0x23] WAIT_FOR_DIALOG_INTERACTION
 82: 0x0101 [0x03] Work_Zone[1] = 1*
 83: 0x0106 [0x01] GOTO 0x0118
 84: 0x0109 [0x02] IF !(Work_Zone[0] == 1*) GOTO 0x0118
 85: 0x0111 [0x1D] PRINT_EVENT_MESSAGE(message_id=7968*)
    → "Well...please come back when you do feel like it!"
 86: 0x0114 [0x23] WAIT_FOR_DIALOG_INTERACTION
 87: 0x0115 [0x01] GOTO 0x0118

SUBROUTINE_0118:
 88: 0x0118 [0x01] GOTO 0x011B

SUBROUTINE_011B:
 89: 0x011B [0x66] LOAD_EXT_SCHEDULER_MAIN: Load scheduler "gom1" with entities [EventEntity, EventEntity], work=1*
 90: 0x012A [0x21] END_EVENT
 91: 0x012B [0x00] END_REQSTACK()
```
