# Event 278

## Metadata

| Field           | Value    |
|-----------------|----------|
| Event Index     | 7/13     |
| Offset          | 0x0120   |
| Data Size       | 40 bytes |
| Calculated Size | 40 bytes |
| Instructions    | 12       |

```
      00 01 02 03 04 05 06 07  08 09 0A 0B 0C 0D 0E 0F
      -- -- -- -- -- -- -- --  -- -- -- -- -- -- -- --
0120: 1E F0 FF FF 7F 6F 70 03  03 10 13 80 2B 44 50 03  .....op.....+DP.
0130: 01 14 80 23 03 02 10 15  80 03 03 10 13 80 2B 44  ...#..........+D
0140: 50 03 01 16 80 23 21 00                           P....#!.        
```

## Opcodes

```
  0: 0x0120 [0x1E] EventEntity looks at LocalPlayer and starts talking
  1: 0x0125 [0x6F] WAIT_FRAME_DELAY: Yield until WaitTime reaches zero
  2: 0x0126 [0x70] WAIT_ENTITY_RENDER_FLAG: Wait while EventEntity->Render.Flags3 bit 2 is set (cancel turn if not)
  3: 0x0127 [0x03] Work_Zone[3] = 2307*
  4: 0x012C [0x2B] Pyopyoroon (ID: 16994372/0x01035044) [10735*]:
    → "Big, red, many-many wavy-wavy arm creature has \u0001\u0005#\u0002\u0001\u0000\u0000!\u0007Yooo go to Wajaom or Bhaflau!\u007F1\u0000\u0007"
  5: 0x0133 [0x23] WAIT_FOR_DIALOG_INTERACTION
  6: 0x0134 [0x03] Work_Zone[2] = 813*
  7: 0x0139 [0x03] Work_Zone[3] = 2307*
  8: 0x013E [0x2B] Pyopyoroon (ID: 16994372/0x01035044) [10736*]:
    → "If Pyopyoroon has \u0001\u0005#\u0002\u0001\u0000\u0000, Pyopyoroon make yooo \u0001\u00053\u0002\u0000\u0000\u0000!\u007F1\u0000\u0007"
  9: 0x0145 [0x23] WAIT_FOR_DIALOG_INTERACTION
 10: 0x0146 [0x21] END_EVENT
 11: 0x0147 [0x00] END_REQSTACK()
```
