# Event 65535

## Metadata

| Field           | Value    |
|-----------------|----------|
| Event Index     | 53/60    |
| Offset          | 0x07F3   |
| Data Size       | 50 bytes |
| Calculated Size | 50 bytes |
| Instructions    | 11       |

```
      00 01 02 03 04 05 06 07  08 09 0A 0B 0C 0D 0E 0F
      -- -- -- -- -- -- -- --  -- -- -- -- -- -- -- --
07F0:          59 04 F8 FF FF  7F 31 80 1F 00 F1 80 F2     Y.....1......
0800: 80 14 80 1F 01 1F 00 F3  80 F4 80 E9 80 1F 01 1F  ................
0810: 00 F5 80 F6 80 E9 80 1F  01 1F 00 F7 80 F8 80 F9  ................
0820: 80 1F 01 6F 00                                    ...o.           
```

## Opcodes

```
  0: 0x07F3 [0x59] UPDATE_ENTITY_DATA: Set EventEntity main speed = 13* * 0.1
  1: 0x07FB [0x1F] MOVE_ENTITY: EventEntity moves to X=-27.924*, Z=89.120*, Y=-4.999*
  2: 0x0803 [0x1F] MOVE_ENTITY: Update entity position (mode=1)
  3: 0x0805 [0x1F] MOVE_ENTITY: EventEntity moves to X=-34.012*, Z=96.568*, Y=-5.000*
  4: 0x080D [0x1F] MOVE_ENTITY: Update entity position (mode=1)
  5: 0x080F [0x1F] MOVE_ENTITY: EventEntity moves to X=-38.551*, Z=101.956*, Y=-5.000*
  6: 0x0817 [0x1F] MOVE_ENTITY: Update entity position (mode=1)
  7: 0x0819 [0x1F] MOVE_ENTITY: EventEntity moves to X=-40.133*, Z=167.579*, Y=-5.023*
  8: 0x0821 [0x1F] MOVE_ENTITY: Update entity position (mode=1)
  9: 0x0823 [0x6F] WAIT_FRAME_DELAY: Yield until WaitTime reaches zero
 10: 0x0824 [0x00] END_REQSTACK()
```
