# Event 65535

## Metadata

| Field           | Value    |
|-----------------|----------|
| Event Index     | 47/60    |
| Offset          | 0x06F6   |
| Data Size       | 38 bytes |
| Calculated Size | 38 bytes |
| Instructions    | 8        |

```
      00 01 02 03 04 05 06 07  08 09 0A 0B 0C 0D 0E 0F
      -- -- -- -- -- -- -- --  -- -- -- -- -- -- -- --
06F0:                   59 04  F8 FF FF 7F 31 80 1F 00        Y.....1...
0700: DC 80 DD 80 7B 80 1F 01  1F 00 DE 80 DF 80 7B 80  ....{.........{.
0710: 1F 01 6F 00 27 10 F0 FF  FF 7F 64 1B              ..o.'.....d.    
```

## Opcodes

```
  0: 0x06F6 [0x59] UPDATE_ENTITY_DATA: Set EventEntity main speed = 13* * 0.1
  1: 0x06FE [0x1F] MOVE_ENTITY: EventEntity moves to X=11.255*, Z=12.887*, Y=-26.249*
  2: 0x0706 [0x1F] MOVE_ENTITY: Update entity position (mode=1)
  3: 0x0708 [0x1F] MOVE_ENTITY: EventEntity moves to X=11.561*, Z=14.438*, Y=-26.249*
  4: 0x0710 [0x1F] MOVE_ENTITY: Update entity position (mode=1)
  5: 0x0712 [0x6F] WAIT_FRAME_DELAY: Yield until WaitTime reaches zero
  6: 0x0713 [0x00] END_REQSTACK()
```

## Data or dead code:

```
# Data Section: 0x0714 (8 bytes)
     0x0714: 27 10 F0 FF FF 7F 64 1B
```