# Event 103

## Metadata

| Field           | Value    |
|-----------------|----------|
| Event Index     | 4/115    |
| Offset          | 0x00A4   |
| Data Size       | 39 bytes |
| Calculated Size | 39 bytes |
| Instructions    | 12       |

```
      00 01 02 03 04 05 06 07  08 09 0A 0B 0C 0D 0E 0F
      -- -- -- -- -- -- -- --  -- -- -- -- -- -- -- --
00A0:             20 01 1E F0  FF FF 7F 6F 76 F8 FF FF       ......ov...
00B0: 7F 2B 1C 50 0F 01 05 80  23 2B 1C 50 0F 01 06 80  .+.P....#+.P....
00C0: 23 2B 1C 50 0F 01 07 80  23 21 00                 #+.P....#!.     
```

## Opcodes

```
  0: 0x00A4 [0x20] SET_CLI_EVENT_UC_FLAG: Lock player control
  1: 0x00A6 [0x1E] EventEntity looks at LocalPlayer and starts talking
  2: 0x00AB [0x6F] WAIT_FRAME_DELAY: Yield until WaitTime reaches zero
  3: 0x00AC [0x76] CHECK_ENTITY_RENDER_FLAGS: Wait until EventEntity Render.Flags0 and Render.Flags3 conditions are met
  4: 0x00B1 [0x2B] Mertaire (ID: 17780764/0x010F501C) [7457*]:
    → "It's you! Thank you so much!\u007F1\u0000\u0007"
  5: 0x00B8 [0x23] WAIT_FOR_DIALOG_INTERACTION
  6: 0x00B9 [0x2B] Mertaire (ID: 17780764/0x010F501C) [7458*]:
    → "I had lost all confidence in life. But thanks to you, I think about those beautiful words written in stone whenever I feel down.\u007F1\u0000\u0007"
  7: 0x00C0 [0x23] WAIT_FOR_DIALOG_INTERACTION
  8: 0x00C1 [0x2B] Mertaire (ID: 17780764/0x010F501C) [7459*]:
    → "I feel a new composition bubbling forth inside me! Once it's done, I want you to hear it!\u007F1\u0000\u0007"
  9: 0x00C8 [0x23] WAIT_FOR_DIALOG_INTERACTION
 10: 0x00C9 [0x21] END_EVENT
 11: 0x00CA [0x00] END_REQSTACK()
```
