# 17457360

## Common Data

| Field            | Value                     |
|------------------|---------------------------|
| Zone             | Ranguemont Pass (ID: 166) |
| Block Size       | 420 bytes                 |
| Total Events     | 6                         |
| References Count | 12                        |

## List of Events

| Event ID                 | Entrypoint   |   Size |   Instructions |
|--------------------------|--------------|--------|----------------|
| [65535](#event-65535)    | 0x0000       |      1 |              1 |
| [3](#event-3)            | 0x0001       |      1 |              1 |
| [65535.1](#event-655351) | 0x0002       |     85 |              7 |
| [65535.2](#event-655352) | 0x0057       |     70 |              6 |
| [65535.3](#event-655353) | 0x009D       |    128 |             12 |
| [65535.4](#event-655354) | 0x011D       |     45 |              9 |

## DAT References (imed_data)

|   Index | Hex Value   |   Dec Value |
|---------|-------------|-------------|
|       0 | 0x000F      |          15 |
|       1 | 0x0000      |           0 |
|       2 | 0x0096      |         150 |
|       3 | 0x00C8      |         200 |
|       4 | 0x0078      |         120 |
|       5 | 0x00C9      |         201 |
|       6 | 0x005A      |          90 |
|       7 | 0x0014      |          20 |
|       8 | 0x001D      |          29 |
|       9 | 0x003C      |          60 |
|      10 | 0x0080      |         128 |
|      11 | 0x0001      |           1 |

## Events

### Event 65535

#### Metadata

| Field        | Value   |
|--------------|---------|
| Entrypoint   | 0x0000  |
| Data Size    | 1 bytes |
| Instructions | 1       |

```
      00 01 02 03 04 05 06 07  08 09 0A 0B 0C 0D 0E 0F
      -- -- -- -- -- -- -- --  -- -- -- -- -- -- -- --
0000: 00                                                .               
```

#### Opcodes

```
  0: 0x0000 [0x00] END_REQSTACK()
```

### Event 3

#### Metadata

| Field        | Value   |
|--------------|---------|
| Entrypoint   | 0x0001  |
| Data Size    | 1 bytes |
| Instructions | 1       |

```
      00 01 02 03 04 05 06 07  08 09 0A 0B 0C 0D 0E 0F
      -- -- -- -- -- -- -- --  -- -- -- -- -- -- -- --
0000:    00                                              .              
```

#### Opcodes

```
  0: 0x0001 [0x00] END_REQSTACK()
```

### Event 65535.1

#### Metadata

| Field        | Value    |
|--------------|----------|
| Entrypoint   | 0x0002   |
| Data Size    | 85 bytes |
| Instructions | 7        |

```
      00 01 02 03 04 05 06 07  08 09 0A 0B 0C 0D 0E 0F
      -- -- -- -- -- -- -- --  -- -- -- -- -- -- -- --
0000:       45 00 80 F0 FF FF  7F F0 FF FF 7F 73 30 39    E..........s09
0010: 39 01 80 1C 02 80 52 00  80 F0 FF FF 7F F0 FF FF  9.....R.........
0020: 7F 73 30 39 39 45 03 80  F0 FF FF 7F F0 FF FF 7F  .s099E..........
0030: 6F 76 6C 31 01 80 45 00  80 F0 FF FF 7F F0 FF FF  ovl1..E.........
0040: 7F 73 31 30 32 01 80 55  00 80 F0 FF FF 7F F0 FF  .s102..U........
0050: FF 7F 73 31 30 32 00                              ..s102.         
```

#### Opcodes

```
  0: 0x0002 [0x45] LOAD_SCHEDULED_TASK: Load scheduler "s099" with entities [LocalPlayer, LocalPlayer], work=[15*, 0*]
  1: 0x0013 [0x1C] WAIT(150* ticks)
  2: 0x0016 [0x52] END_LOAD_SCHEDULER: End scheduler "s099" with entities [LocalPlayer, LocalPlayer], work=15*
  3: 0x0025 [0x45] LOAD_SCHEDULED_TASK: Load scheduler "ovl1" with entities [LocalPlayer, LocalPlayer], work=[200*, 0*]
  4: 0x0036 [0x45] LOAD_SCHEDULED_TASK: Load scheduler "s102" with entities [LocalPlayer, LocalPlayer], work=[15*, 0*]
  5: 0x0047 [0x55] WAIT_LOAD_SCHEDULER: Wait for scheduler "s102" with entities [LocalPlayer, LocalPlayer], work=15*
  6: 0x0056 [0x00] END_REQSTACK()
```

### Event 65535.2

#### Metadata

| Field        | Value    |
|--------------|----------|
| Entrypoint   | 0x0057   |
| Data Size    | 70 bytes |
| Instructions | 6        |

```
      00 01 02 03 04 05 06 07  08 09 0A 0B 0C 0D 0E 0F
      -- -- -- -- -- -- -- --  -- -- -- -- -- -- -- --
0050:                      45  03 80 F0 FF FF 7F F0 FF         E........
0060: FF 7F 6F 76 6C 31 01 80  45 00 80 F0 FF FF 7F F0  ..ovl1..E.......
0070: FF FF 7F 73 31 30 35 01  80 1C 04 80 45 05 80 F0  ...s105.....E...
0080: FF FF 7F F0 FF FF 7F 77  68 6F 31 01 80 55 00 80  .......who1..U..
0090: F0 FF FF 7F F0 FF FF 7F  73 31 30 35 00           ........s105.   
```

#### Opcodes

```
  0: 0x0057 [0x45] LOAD_SCHEDULED_TASK: Load scheduler "ovl1" with entities [LocalPlayer, LocalPlayer], work=[200*, 0*]
  1: 0x0068 [0x45] LOAD_SCHEDULED_TASK: Load scheduler "s105" with entities [LocalPlayer, LocalPlayer], work=[15*, 0*]
  2: 0x0079 [0x1C] WAIT(120* ticks)
  3: 0x007C [0x45] LOAD_SCHEDULED_TASK: Load scheduler "who1" with entities [LocalPlayer, LocalPlayer], work=[201*, 0*]
  4: 0x008D [0x55] WAIT_LOAD_SCHEDULER: Wait for scheduler "s105" with entities [LocalPlayer, LocalPlayer], work=15*
  5: 0x009C [0x00] END_REQSTACK()
```

### Event 65535.3

#### Metadata

| Field        | Value     |
|--------------|-----------|
| Entrypoint   | 0x009D    |
| Data Size    | 128 bytes |
| Instructions | 12        |

```
      00 01 02 03 04 05 06 07  08 09 0A 0B 0C 0D 0E 0F
      -- -- -- -- -- -- -- --  -- -- -- -- -- -- -- --
0090:                                         45 00 80               E..
00A0: F0 FF FF 7F F0 FF FF 7F  73 31 30 38 01 80 45 05  ........s108..E.
00B0: 80 F0 FF FF 7F F0 FF FF  7F 77 68 69 31 01 80 1C  .........whi1...
00C0: 06 80 55 00 80 F0 FF FF  7F F0 FF FF 7F 73 31 30  ..U..........s10
00D0: 38 45 00 80 F0 FF FF 7F  F0 FF FF 7F 73 31 30 36  8E..........s106
00E0: 01 80 1C 07 80 62 08 80  D1 60 0A 01 D1 60 0A 01  .....b...`...`..
00F0: 6D 61 69 6E 01 80 1C 09  80 45 03 80 F8 FF FF 7F  main.....E......
0100: F8 FF FF 7F 66 64 6F 31  01 80 1C 09 80 52 00 80  ....fdo1.....R..
0110: F0 FF FF 7F F0 FF FF 7F  73 31 30 36 00           ........s106.   
```

#### Opcodes

```
  0: 0x009D [0x45] LOAD_SCHEDULED_TASK: Load scheduler "s108" with entities [LocalPlayer, LocalPlayer], work=[15*, 0*]
  1: 0x00AE [0x45] LOAD_SCHEDULED_TASK: Load scheduler "whi1" with entities [LocalPlayer, LocalPlayer], work=[201*, 0*]
  2: 0x00BF [0x1C] WAIT(90* ticks)
  3: 0x00C2 [0x55] WAIT_LOAD_SCHEDULER: Wait for scheduler "s108" with entities [LocalPlayer, LocalPlayer], work=15*
  4: 0x00D1 [0x45] LOAD_SCHEDULED_TASK: Load scheduler "s106" with entities [LocalPlayer, LocalPlayer], work=[15*, 0*]
  5: 0x00E2 [0x1C] WAIT(20* ticks)
  6: 0x00E5 [0x62] LOAD_EVENT_SCHEDULER: Load scheduler "main" with entities [Unnamed NPC (ID: 17457361/0x010A60D1), Unnamed NPC (ID: 17457361/0x010A60D1)], work=[29*, 0*]
  7: 0x00F6 [0x1C] WAIT(60* ticks)
  8: 0x00F9 [0x45] LOAD_SCHEDULED_TASK: Load scheduler "fdo1" with entities [EventEntity, EventEntity], work=[200*, 0*]
  9: 0x010A [0x1C] WAIT(60* ticks)
 10: 0x010D [0x52] END_LOAD_SCHEDULER: End scheduler "s106" with entities [LocalPlayer, LocalPlayer], work=15*
 11: 0x011C [0x00] END_REQSTACK()
```

### Event 65535.4

#### Metadata

| Field        | Value    |
|--------------|----------|
| Entrypoint   | 0x011D   |
| Data Size    | 45 bytes |
| Instructions | 9        |

```
      00 01 02 03 04 05 06 07  08 09 0A 0B 0C 0D 0E 0F
      -- -- -- -- -- -- -- --  -- -- -- -- -- -- -- --
0110:                                         03 01 00               ...
0120: 01 80 79 00 F8 FF FF 7F  CF 60 0A 01 3A F8 FF FF  ..y......`..:...
0130: 7F 00 00 02 00 00 01 00  04 49 01 39 00 00 08 00  .........I.9....
0140: 00 0A 80 1C 0B 80 01 33  01 00                    .......3..      
```

#### Opcodes

```
  0: 0x011D [0x03] ExtData[1]->WorkLocal[1] = 0*
  1: 0x0122 [0x79] EventEntity looks at Perchond (ID: 17457359/0x010A60CF) (Basic look)
  2: 0x012C [0x3A] CONVERT_YAW_TO_BYTE(entity=EventEntity, result_destination=ExtData[1]->WorkLocal[0])
  3: 0x0133 [0x02] IF !(ExtData[1]->WorkLocal[0] < ExtData[1]->WorkLocal[1]) GOTO 0x0149
  4: 0x013B [0x39] SET_ENTITY_DIRECTION(direction=ExtData[1]->WorkLocal[0])
  5: 0x013E [0x08] ExtData[1]->WorkLocal[0] -= 128*
  6: 0x0143 [0x1C] WAIT(1* ticks)
  7: 0x0146 [0x01] GOTO 0x0133
  8: 0x0149 [0x00] END_REQSTACK()
```
