# 17457391

## Common Data

| Field            | Value                     |
|------------------|---------------------------|
| Zone             | Ranguemont Pass (ID: 166) |
| Block Size       | 5752 bytes                |
| Total Events     | 2                         |
| References Count | 85                        |

## List of Events

| Event ID              | Entrypoint   |   Size |   Instructions |
|-----------------------|--------------|--------|----------------|
| [65535](#event-65535) | 0x0000       |    658 |             62 |
| [55](#event-55)       | 0x0292       |   4728 |            593 |

## DAT References (imed_data)

|   Index | Hex Value   |   Dec Value |
|---------|-------------|-------------|
|       0 | 0x00C8      |         200 |
|       1 | 0x0000      |           0 |
|       2 | 0x00C9      |         201 |
|       3 | 0x0001      |           1 |
|       4 | 0x002D      |          45 |
|       5 | 0x0002      |           2 |
|       6 | 0x001E      |          30 |
|       7 | 0x00D7      |         215 |
|       8 | 0x012C      |         300 |
|       9 | 0x0093      |         147 |
|      10 | 0x236BB     |      145083 |
|      11 | 0xFFFF1DDB  |  4294909403 |
|      12 | 0x0DE2      |        3554 |
|      13 | 0x0917      |        2327 |
|      14 | 0x2071C     |      132892 |
|      15 | 0xFFFF1D98  |  4294909336 |
|      16 | 0x0C4D      |        3149 |
|      17 | 0x0F19      |        3865 |
|      18 | 0x260D1     |      155857 |
|      19 | 0xFFFF1E57  |  4294909527 |
|      20 | 0x149D      |        5277 |
|      21 | 0x0797      |        1943 |
|      22 | 0x0FF8      |        4088 |
|      23 | 0x00F6      |         246 |
|      24 | 0x007F      |         127 |
|      25 | 0x00A0      |         160 |
|      26 | 0x034C      |         844 |
|      27 | 0x005A      |          90 |
|      28 | 0x0005      |           5 |
|      29 | 0x000A      |          10 |
|      30 | 0x0805      |        2053 |
|      31 | 0x2A04      |       10756 |
|      32 | 0x0028      |          40 |
|      33 | 0x0006      |           6 |
|      34 | 0x0D25      |        3365 |
|      35 | 0x2A05      |       10757 |
|      36 | 0x2A06      |       10758 |
|      37 | 0x0007      |           7 |
|      38 | 0x003C      |          60 |
|      39 | 0x2A07      |       10759 |
|      40 | 0x2A08      |       10760 |
|      41 | 0x2A09      |       10761 |
|      42 | 0x0003      |           3 |
|      43 | 0x0008      |           8 |
|      44 | 0x2A0A      |       10762 |
|      45 | 0x2A0B      |       10763 |
|      46 | 0x2A0C      |       10764 |
|      47 | 0x2A0D      |       10765 |
|      48 | 0x2A0E      |       10766 |
|      49 | 0x2A0F      |       10767 |
|      50 | 0x2A10      |       10768 |
|      51 | 0x2A11      |       10769 |
|      52 | 0x0078      |         120 |
|      53 | 0x2A12      |       10770 |
|      54 | 0x0015      |          21 |
|      55 | 0x0019      |          25 |
|      56 | 0x2A13      |       10771 |
|      57 | 0x2A14      |       10772 |
|      58 | 0x2A15      |       10773 |
|      59 | 0x2A16      |       10774 |
|      60 | 0x2A17      |       10775 |
|      61 | 0x2A18      |       10776 |
|      62 | 0x2A19      |       10777 |
|      63 | 0x2A1A      |       10778 |
|      64 | 0x2A1B      |       10779 |
|      65 | 0x2A1C      |       10780 |
|      66 | 0x2A1D      |       10781 |
|      67 | 0x2A1E      |       10782 |
|      68 | 0x2A1F      |       10783 |
|      69 | 0x2A20      |       10784 |
|      70 | 0x2A21      |       10785 |
|      71 | 0x2A22      |       10786 |
|      72 | 0x2A23      |       10787 |
|      73 | 0x2A24      |       10788 |
|      74 | 0x2A25      |       10789 |
|      75 | 0x2A26      |       10790 |
|      76 | 0x2A27      |       10791 |
|      77 | 0x2A28      |       10792 |
|      78 | 0x0014      |          20 |
|      79 | 0x05B7      |        1463 |
|      80 | 0x2A29      |       10793 |
|      81 | 0x2A2A      |       10794 |
|      82 | 0x000F      |          15 |
|      83 | 0x0073      |         115 |
|      84 | 0x0066      |         102 |

## String References

- **10758**: Did you slay the monster? [Of course./Don't look at me.]
- **10776**: Do you agree to remain silent? [Yes, of course./What egg?/Sorry, can't do it.]

## Events

### Event 65535

#### Metadata

| Field        | Value     |
|--------------|-----------|
| Entrypoint   | 0x0000    |
| Data Size    | 658 bytes |
| Instructions | 1         |

```
      00 01 02 03 04 05 06 07  08 09 0A 0B 0C 0D 0E 0F
      -- -- -- -- -- -- -- --  -- -- -- -- -- -- -- --
0000: 00 45 00 80 F0 FF FF 7F  F0 FF FF 7F 66 64 69 30  .E..........fdi0
0010: 01 80 55 00 80 F0 FF FF  7F F0 FF FF 7F 66 64 69  ..U..........fdi
0020: 30 1B 45 00 80 F0 FF FF  7F F0 FF FF 7F 66 64 6F  0.E..........fdo
0030: 30 01 80 55 00 80 F0 FF  FF 7F F0 FF FF 7F 66 64  0..U..........fd
0040: 6F 30 1B 45 00 80 F0 FF  FF 7F F0 FF FF 7F 66 64  o0.E..........fd
0050: 69 31 01 80 55 00 80 F0  FF FF 7F F0 FF FF 7F 66  i1..U..........f
0060: 64 69 31 1B 45 00 80 F0  FF FF 7F F0 FF FF 7F 66  di1.E..........f
0070: 64 6F 31 01 80 55 00 80  F0 FF FF 7F F0 FF FF 7F  do1..U..........
0080: 66 64 6F 31 1B 45 02 80  F0 FF FF 7F F0 FF FF 7F  fdo1.E..........
0090: 77 68 69 31 01 80 55 02  80 F0 FF FF 7F F0 FF FF  whi1..U.........
00A0: 7F 77 68 69 31 1B 45 02  80 F0 FF FF 7F F0 FF FF  .whi1.E.........
00B0: 7F 77 68 6F 31 01 80 55  02 80 F0 FF FF 7F F0 FF  .who1..U........
00C0: FF 7F 77 68 6F 31 1B 45  02 80 F0 FF FF 7F F0 FF  ..who1.E........
00D0: FF 7F 77 68 6F 32 01 80  55 02 80 F0 FF FF 7F F0  ..who2..U.......
00E0: FF FF 7F 77 68 6F 32 1B  45 02 80 F0 FF FF 7F F0  ...who2.E.......
00F0: FF FF 7F 77 68 6F 33 01  80 55 02 80 F0 FF FF 7F  ...who3..U......
0100: F0 FF FF 7F 77 68 6F 33  1B 62 03 80 F0 FF FF 7F  ....who3.b......
0110: F0 FF FF 7F 6D 61 69 6E  01 80 1C 04 80 45 00 80  ....main.....E..
0120: F0 FF FF 7F F0 FF FF 7F  66 64 6F 31 01 80 55 00  ........fdo1..U.
0130: 80 F0 FF FF 7F F0 FF FF  7F 66 64 6F 31 1B 45 00  .........fdo1.E.
0140: 80 F0 FF FF 7F F0 FF FF  7F 66 64 69 31 01 80 62  .........fdi1..b
0150: 05 80 F0 FF FF 7F F0 FF  FF 7F 6D 61 69 6E 01 80  ..........main..
0160: 1C 06 80 55 00 80 F0 FF  FF 7F F0 FF FF 7F 66 64  ...U..........fd
0170: 69 31 1B 45 00 80 F0 FF  FF 7F F0 FF FF 7F 62 6C  i1.E..........bl
0180: 6F 6E 01 80 45 02 80 F0  FF FF 7F F0 FF FF 7F 62  on..E..........b
0190: 6C 6F 6E 01 80 1B 45 02  80 F0 FF FF 7F F0 FF FF  lon...E.........
01A0: 7F 77 68 69 30 01 80 55  02 80 F0 FF FF 7F F0 FF  .whi0..U........
01B0: FF 7F 77 68 69 30 1B 45  02 80 F0 FF FF 7F F0 FF  ..whi0.E........
01C0: FF 7F 77 68 6F 30 01 80  55 02 80 F0 FF FF 7F F0  ..who0..U.......
01D0: FF FF 7F 77 68 6F 30 1B  45 07 80 F0 FF FF 7F F0  ...who0.E.......
01E0: FF FF 7F 65 66 6F 6E 01  80 55 07 80 F0 FF FF 7F  ...efon..U......
01F0: F0 FF FF 7F 65 66 6F 6E  1B 45 00 80 F0 FF FF 7F  ....efon.E......
0200: F0 FF FF 7F 66 64 69 73  01 80 1B 45 00 80 F0 FF  ....fdis...E....
0210: FF 7F F0 FF FF 7F 66 64  6F 73 01 80 55 00 80 F0  ......fdos..U...
0220: FF FF 7F F0 FF FF 7F 66  64 6F 73 1B 45 00 80 F0  .......fdos.E...
0230: FF FF 7F F0 FF FF 7F 66  64 69 66 01 80 1B 45 00  .......fdif...E.
0240: 80 F0 FF FF 7F F0 FF FF  7F 66 64 6F 66 01 80 55  .........fdof..U
0250: 00 80 F0 FF FF 7F F0 FF  FF 7F 66 64 6F 66 1B 45  ..........fdof.E
0260: 00 80 F0 FF FF 7F F0 FF  FF 7F 66 64 69 70 01 80  ..........fdip..
0270: 1B 45 00 80 F0 FF FF 7F  F0 FF FF 7F 66 64 6F 70  .E..........fdop
0280: 01 80 55 00 80 F0 FF FF  7F F0 FF FF 7F 66 64 6F  ..U..........fdo
0290: 70 1B                                             p.              
```

#### Opcodes

```
  0: 0x0000 [0x00] END_REQSTACK()
```

#### Data or dead code:

```
# Dead code (unreachable instructions):
     0x0001 [0x45] LOAD_SCHEDULED_TASK: Load scheduler "fdi0" with entities [LocalPlayer, LocalPlayer], work=[200*, 0*]
     0x0012 [0x55] WAIT_LOAD_SCHEDULER: Wait for scheduler "fdi0" with entities [LocalPlayer, LocalPlayer], work=200*
     0x0021 [0x1B] RETURN
     0x0022 [0x45] LOAD_SCHEDULED_TASK: Load scheduler "fdo0" with entities [LocalPlayer, LocalPlayer], work=[200*, 0*]
     0x0033 [0x55] WAIT_LOAD_SCHEDULER: Wait for scheduler "fdo0" with entities [LocalPlayer, LocalPlayer], work=200*
     0x0042 [0x1B] RETURN
     0x0043 [0x45] LOAD_SCHEDULED_TASK: Load scheduler "fdi1" with entities [LocalPlayer, LocalPlayer], work=[200*, 0*]
     0x0054 [0x55] WAIT_LOAD_SCHEDULER: Wait for scheduler "fdi1" with entities [LocalPlayer, LocalPlayer], work=200*
     0x0063 [0x1B] RETURN
     0x0064 [0x45] LOAD_SCHEDULED_TASK: Load scheduler "fdo1" with entities [LocalPlayer, LocalPlayer], work=[200*, 0*]
     0x0075 [0x55] WAIT_LOAD_SCHEDULER: Wait for scheduler "fdo1" with entities [LocalPlayer, LocalPlayer], work=200*
     0x0084 [0x1B] RETURN
     0x0085 [0x45] LOAD_SCHEDULED_TASK: Load scheduler "whi1" with entities [LocalPlayer, LocalPlayer], work=[201*, 0*]
     0x0096 [0x55] WAIT_LOAD_SCHEDULER: Wait for scheduler "whi1" with entities [LocalPlayer, LocalPlayer], work=201*
     0x00A5 [0x1B] RETURN
     0x00A6 [0x45] LOAD_SCHEDULED_TASK: Load scheduler "who1" with entities [LocalPlayer, LocalPlayer], work=[201*, 0*]
     0x00B7 [0x55] WAIT_LOAD_SCHEDULER: Wait for scheduler "who1" with entities [LocalPlayer, LocalPlayer], work=201*
     0x00C6 [0x1B] RETURN
     0x00C7 [0x45] LOAD_SCHEDULED_TASK: Load scheduler "who2" with entities [LocalPlayer, LocalPlayer], work=[201*, 0*]
     0x00D8 [0x55] WAIT_LOAD_SCHEDULER: Wait for scheduler "who2" with entities [LocalPlayer, LocalPlayer], work=201*
     0x00E7 [0x1B] RETURN
     0x00E8 [0x45] LOAD_SCHEDULED_TASK: Load scheduler "who3" with entities [LocalPlayer, LocalPlayer], work=[201*, 0*]
     0x00F9 [0x55] WAIT_LOAD_SCHEDULER: Wait for scheduler "who3" with entities [LocalPlayer, LocalPlayer], work=201*
     0x0108 [0x1B] RETURN
     0x0109 [0x62] LOAD_EVENT_SCHEDULER: Load scheduler "main" with entities [LocalPlayer, LocalPlayer], work=[1*, 0*]
     0x011A [0x1C] WAIT(45* ticks)
     0x011D [0x45] LOAD_SCHEDULED_TASK: Load scheduler "fdo1" with entities [LocalPlayer, LocalPlayer], work=[200*, 0*]
     0x012E [0x55] WAIT_LOAD_SCHEDULER: Wait for scheduler "fdo1" with entities [LocalPlayer, LocalPlayer], work=200*
     0x013D [0x1B] RETURN
     0x013E [0x45] LOAD_SCHEDULED_TASK: Load scheduler "fdi1" with entities [LocalPlayer, LocalPlayer], work=[200*, 0*]
     0x014F [0x62] LOAD_EVENT_SCHEDULER: Load scheduler "main" with entities [LocalPlayer, LocalPlayer], work=[2*, 0*]
     0x0160 [0x1C] WAIT(30* ticks)
     0x0163 [0x55] WAIT_LOAD_SCHEDULER: Wait for scheduler "fdi1" with entities [LocalPlayer, LocalPlayer], work=200*
     0x0172 [0x1B] RETURN
     0x0173 [0x45] LOAD_SCHEDULED_TASK: Load scheduler "blon" with entities [LocalPlayer, LocalPlayer], work=[200*, 0*]
     0x0184 [0x45] LOAD_SCHEDULED_TASK: Load scheduler "blon" with entities [LocalPlayer, LocalPlayer], work=[201*, 0*]
     0x0195 [0x1B] RETURN
     0x0196 [0x45] LOAD_SCHEDULED_TASK: Load scheduler "whi0" with entities [LocalPlayer, LocalPlayer], work=[201*, 0*]
     0x01A7 [0x55] WAIT_LOAD_SCHEDULER: Wait for scheduler "whi0" with entities [LocalPlayer, LocalPlayer], work=201*
     0x01B6 [0x1B] RETURN
     0x01B7 [0x45] LOAD_SCHEDULED_TASK: Load scheduler "who0" with entities [LocalPlayer, LocalPlayer], work=[201*, 0*]
     0x01C8 [0x55] WAIT_LOAD_SCHEDULER: Wait for scheduler "who0" with entities [LocalPlayer, LocalPlayer], work=201*
     0x01D7 [0x1B] RETURN
     0x01D8 [0x45] LOAD_SCHEDULED_TASK: Load scheduler "efon" with entities [LocalPlayer, LocalPlayer], work=[215*, 0*]
     0x01E9 [0x55] WAIT_LOAD_SCHEDULER: Wait for scheduler "efon" with entities [LocalPlayer, LocalPlayer], work=215*
     0x01F8 [0x1B] RETURN
     0x01F9 [0x45] LOAD_SCHEDULED_TASK: Load scheduler "fdis" with entities [LocalPlayer, LocalPlayer], work=[200*, 0*]
     0x020A [0x1B] RETURN
     0x020B [0x45] LOAD_SCHEDULED_TASK: Load scheduler "fdos" with entities [LocalPlayer, LocalPlayer], work=[200*, 0*]
     0x021C [0x55] WAIT_LOAD_SCHEDULER: Wait for scheduler "fdos" with entities [LocalPlayer, LocalPlayer], work=200*
     0x022B [0x1B] RETURN
     0x022C [0x45] LOAD_SCHEDULED_TASK: Load scheduler "fdif" with entities [LocalPlayer, LocalPlayer], work=[200*, 0*]
     0x023D [0x1B] RETURN
     0x023E [0x45] LOAD_SCHEDULED_TASK: Load scheduler "fdof" with entities [LocalPlayer, LocalPlayer], work=[200*, 0*]
     0x024F [0x55] WAIT_LOAD_SCHEDULER: Wait for scheduler "fdof" with entities [LocalPlayer, LocalPlayer], work=200*
     0x025E [0x1B] RETURN
     0x025F [0x45] LOAD_SCHEDULED_TASK: Load scheduler "fdip" with entities [LocalPlayer, LocalPlayer], work=[200*, 0*]
     0x0270 [0x1B] RETURN
     0x0271 [0x45] LOAD_SCHEDULED_TASK: Load scheduler "fdop" with entities [LocalPlayer, LocalPlayer], work=[200*, 0*]
     0x0282 [0x55] WAIT_LOAD_SCHEDULER: Wait for scheduler "fdop" with entities [LocalPlayer, LocalPlayer], work=200*
     0x0291 [0x1B] RETURN
```

### Event 55

#### Metadata

| Field        | Value      |
|--------------|------------|
| Entrypoint   | 0x0292     |
| Data Size    | 4728 bytes |
| Instructions | 593        |

```
      00 01 02 03 04 05 06 07  08 09 0A 0B 0C 0D 0E 0F
      -- -- -- -- -- -- -- --  -- -- -- -- -- -- -- --
0290:       42 5D 01 80 08 80  1A 64 00 46 01 38 09 80    B].....d.F.8..
02A0: 2F 00 F0 60 0A 01 2F 00  F1 60 0A 01 4E 00 F0 60  /..`../..`..N..`
02B0: 0A 01 4E 00 F1 60 0A 01  94 01 F0 60 0A 01 94 01  ..N..`.....`....
02C0: F1 60 0A 01 94 01 F0 FF  FF 7F BA F0 FF FF 7F 0A  .`..............
02D0: 80 0B 80 0C 80 0D 80 BA  F0 60 0A 01 0E 80 0F 80  .........`......
02E0: 10 80 11 80 BA F1 60 0A  01 12 80 13 80 14 80 15  ......`.........
02F0: 80 80 F0 60 0A 01 80 F1  60 0A 01 80 F0 FF FF 7F  ...`....`.......
0300: 2C F1 60 0A 01 F1 60 0A  01 63 6F 72 70 53 F1 60  ,.`...`..corpS.`
0310: 0A 01 F1 60 0A 01 63 6F  72 70 29 12 F0 FF FF 7F  ...`..corp).....
0320: 08 4B F0 FF FF 7F 16 80  6F 76 F0 FF FF 7F 5C 00  .K......ov....\.
0330: 17 80 5C 01 17 80 9A 5D  18 80 03 80 1C 19 80 45  ..\....].......E
0340: 1A 80 F8 FF FF 7F F8 FF  FF 7F 73 30 32 37 01 80  ..........s027..
0350: 1A 43 00 1C 1B 80 27 08  F0 60 0A 01 26 1C 1C 80  .C....'..`..&...
0360: 52 1A 80 F8 FF FF 7F F8  FF FF 7F 73 30 32 37 45  R..........s027E
0370: 1A 80 F8 FF FF 7F F8 FF  FF 7F 73 30 32 35 01 80  ..........s025..
0380: 1C 1D 80 4B F0 FF FF 7F  1E 80 2B F0 60 0A 01 1F  ...K......+.`...
0390: 80 1C 20 80 6F 76 F0 FF  FF 7F 52 1A 80 F8 FF FF  .. .ov....R.....
03A0: 7F F8 FF FF 7F 73 30 32  35 45 1A 80 F8 FF FF 7F  .....s025E......
03B0: F8 FF FF 7F 73 30 33 39  01 80 2A 08 F0 60 0A 01  ....s039..*..`..
03C0: 23 52 1A 80 F8 FF FF 7F  F8 FF FF 7F 73 30 33 39  #R..........s039
03D0: 02 09 10 1C 80 00 EC 03  45 1A 80 F8 FF FF 7F F8  ........E.......
03E0: FF FF 7F 73 30 36 38 01  80 01 19 04 02 09 10 21  ...s068........!
03F0: 80 00 08 04 45 1A 80 F8  FF FF 7F F8 FF FF 7F 73  ....E..........s
0400: 30 36 38 01 80 01 19 04  45 1A 80 F8 FF FF 7F F8  068.....E.......
0410: FF FF 7F 73 30 32 36 01  80 4B F0 FF FF 7F 22 80  ...s026..K....".
0420: 6F 76 F0 FF FF 7F 1C 20  80 02 09 10 1C 80 00 43  ov..... .......C
0430: 04 52 1A 80 F8 FF FF 7F  F8 FF FF 7F 73 30 36 38  .R..........s068
0440: 01 6C 04 02 09 10 21 80  00 5D 04 52 1A 80 F8 FF  .l....!..].R....
0450: FF 7F F8 FF FF 7F 73 30  36 38 01 6C 04 52 1A 80  ......s068.l.R..
0460: F8 FF FF 7F F8 FF FF 7F  73 30 32 36 45 1A 80 F8  ........s026E...
0470: FF FF 7F F8 FF FF 7F 73  30 32 38 01 80 2B F0 60  .......s028..+.`
0480: 0A 01 23 80 27 08 F0 60  0A 01 27 1C 20 80 23 52  ..#.'..`..'. .#R
0490: 1A 80 F8 FF FF 7F F8 FF  FF 7F 73 30 32 38 02 09  ..........s028..
04A0: 10 1C 80 00 BA 04 45 1A  80 F8 FF FF 7F F8 FF FF  ......E.........
04B0: 7F 73 30 35 35 01 80 01  E7 04 02 09 10 21 80 00  .s055........!..
04C0: D6 04 45 1A 80 F8 FF FF  7F F8 FF FF 7F 73 30 35  ..E..........s05
04D0: 35 01 80 01 E7 04 45 1A  80 F8 FF FF 7F F8 FF FF  5.....E.........
04E0: 7F 73 30 33 30 01 80 4A  F0 FF FF 7F F0 60 0A 01  .s030..J.....`..
04F0: 6F 76 F0 FF FF 7F 24 24  80 01 80 01 80 25 02 00  ov....$$.....%..
0500: 10 01 80 00 3A 06 7B F0  60 0A 01 6E F0 FF FF 7F  ....:.{.`..n....
0510: 25 80 99 F0 FF FF 7F 1C  26 80 02 09 10 1C 80 00  %.......&.......
0520: 34 05 52 1A 80 F8 FF FF  7F F8 FF FF 7F 73 30 35  4.R..........s05
0530: 35 01 5D 05 02 09 10 21  80 00 4E 05 52 1A 80 F8  5.]....!..N.R...
0540: FF FF 7F F8 FF FF 7F 73  30 35 35 01 5D 05 52 1A  .......s055.].R.
0550: 80 F8 FF FF 7F F8 FF FF  7F 73 30 33 30 45 1A 80  .........s030E..
0560: F8 FF FF 7F F8 FF FF 7F  73 30 35 36 01 80 2B F0  ........s056..+.
0570: 60 0A 01 27 80 23 2A 08  F0 60 0A 01 52 1A 80 F8  `..'.#*..`..R...
0580: FF FF 7F F8 FF FF 7F 73  30 35 36 02 09 10 1C 80  .......s056.....
0590: 00 A7 05 45 1A 80 F8 FF  FF 7F F8 FF FF 7F 73 30  ...E..........s0
05A0: 35 35 01 80 01 D4 05 02  09 10 21 80 00 C3 05 45  55........!....E
05B0: 1A 80 F8 FF FF 7F F8 FF  FF 7F 73 30 35 35 01 80  ..........s055..
05C0: 01 D4 05 45 1A 80 F8 FF  FF 7F F8 FF FF 7F 73 30  ...E..........s0
05D0: 33 30 01 80 79 00 F0 60  0A 01 F0 FF FF 7F 29 08  30..y..`......).
05E0: F0 60 0A 01 15 2B F0 60  0A 01 28 80 23 29 08 F0  .`...+.`..(.#)..
05F0: 60 0A 01 16 02 09 10 1C  80 00 0E 06 52 1A 80 F8  `...........R...
0600: FF FF 7F F8 FF FF 7F 73  30 35 35 01 37 06 02 09  .......s055.7...
0610: 10 21 80 00 28 06 52 1A  80 F8 FF FF 7F F8 FF FF  .!..(.R.........
0620: 7F 73 30 35 35 01 37 06  52 1A 80 F8 FF FF 7F F8  .s055.7.R.......
0630: FF FF 7F 73 30 33 30 01  D3 06 02 00 10 03 80 00  ...s030.........
0640: D3 06 6E F0 FF FF 7F 21  80 99 F0 FF FF 7F 29 08  ..n....!......).
0650: F0 60 0A 01 15 1C 26 80  2A 08 F0 60 0A 01 02 09  .`....&.*..`....
0660: 10 1C 80 00 78 06 52 1A  80 F8 FF FF 7F F8 FF FF  ....x.R.........
0670: 7F 73 30 35 35 01 A1 06  02 09 10 21 80 00 92 06  .s055......!....
0680: 52 1A 80 F8 FF FF 7F F8  FF FF 7F 73 30 35 35 01  R..........s055.
0690: A1 06 52 1A 80 F8 FF FF  7F F8 FF FF 7F 73 30 33  ..R..........s03
06A0: 30 45 1A 80 F8 FF FF 7F  F8 FF FF 7F 73 30 32 39  0E..........s029
06B0: 01 80 2B F0 60 0A 01 29  80 23 29 08 F0 60 0A 01  ..+.`..).#)..`..
06C0: 16 52 1A 80 F8 FF FF 7F  F8 FF FF 7F 73 30 32 39  .R..........s029
06D0: 01 D3 06 02 09 10 2A 80  00 EF 06 45 1A 80 F8 FF  ......*....E....
06E0: FF 7F F8 FF FF 7F 73 30  33 31 01 80 01 54 07 02  ......s031...T..
06F0: 09 10 1C 80 00 0B 07 45  1A 80 F8 FF FF 7F F8 FF  .......E........
0700: FF 7F 73 30 35 37 01 80  01 54 07 02 09 10 21 80  ..s057...T....!.
0710: 00 27 07 45 1A 80 F8 FF  FF 7F F8 FF FF 7F 73 30  .'.E..........s0
0720: 35 37 01 80 01 54 07 02  09 10 2B 80 00 43 07 45  57...T....+..C.E
0730: 1A 80 F8 FF FF 7F F8 FF  FF 7F 73 30 33 31 01 80  ..........s031..
0740: 01 54 07 45 1A 80 F8 FF  FF 7F F8 FF FF 7F 73 30  .T.E..........s0
0750: 35 33 01 80 27 08 F0 60  0A 01 28 2B F0 60 0A 01  53..'..`..(+.`..
0760: 2C 80 2A 08 F0 60 0A 01  29 08 F0 60 0A 01 05 23  ,.*..`..)..`...#
0770: 2B F0 60 0A 01 2D 80 23  02 09 10 2A 80 00 92 07  +.`..-.#...*....
0780: 52 1A 80 F8 FF FF 7F F8  FF FF 7F 73 30 33 31 01  R..........s031.
0790: EF 07 02 09 10 1C 80 00  AC 07 52 1A 80 F8 FF FF  ..........R.....
07A0: 7F F8 FF FF 7F 73 30 35  37 01 EF 07 02 09 10 21  .....s057......!
07B0: 80 00 C6 07 52 1A 80 F8  FF FF 7F F8 FF FF 7F 73  ....R..........s
07C0: 30 35 37 01 EF 07 02 09  10 2B 80 00 E0 07 52 1A  057......+....R.
07D0: 80 F8 FF FF 7F F8 FF FF  7F 73 30 33 31 01 EF 07  .........s031...
07E0: 52 1A 80 F8 FF FF 7F F8  FF FF 7F 73 30 35 33 2B  R..........s053+
07F0: F0 60 0A 01 2E 80 29 08  F0 60 0A 01 06 29 08 F0  .`....)..`...)..
0800: 60 0A 01 07 23 79 00 F0  60 0A 01 F1 60 0A 01 45  `...#y..`...`..E
0810: 1A 80 F8 FF FF 7F F8 FF  FF 7F 73 30 33 32 01 80  ..........s032..
0820: 2B F0 60 0A 01 2F 80 29  08 F0 60 0A 01 08 4A F0  +.`../.)..`...J.
0830: 60 0A 01 F1 60 0A 01 6F  76 F0 60 0A 01 23 52 1A  `...`..ov.`..#R.
0840: 80 F8 FF FF 7F F8 FF FF  7F 73 30 33 32 02 09 10  .........s032...
0850: 1C 80 00 69 08 45 1A 80  F8 FF FF 7F F8 FF FF 7F  ...i.E..........
0860: 73 30 35 38 01 80 01 96  08 02 09 10 21 80 00 85  s058........!...
0870: 08 45 1A 80 F8 FF FF 7F  F8 FF FF 7F 73 30 35 38  .E..........s058
0880: 01 80 01 96 08 45 1A 80  F8 FF FF 7F F8 FF FF 7F  .....E..........
0890: 73 30 33 33 01 80 4A F0  60 0A 01 F0 FF FF 7F 6F  s033..J.`......o
08A0: 76 F0 60 0A 01 2B F0 60  0A 01 30 80 23 29 08 F0  v.`..+.`..0.#)..
08B0: 60 0A 01 17 2B F0 60 0A  01 31 80 23 02 09 10 1C  `...+.`..1.#....
08C0: 80 00 D6 08 52 1A 80 F8  FF FF 7F F8 FF FF 7F 73  ....R..........s
08D0: 30 35 38 01 FF 08 02 09  10 21 80 00 F0 08 52 1A  058......!....R.
08E0: 80 F8 FF FF 7F F8 FF FF  7F 73 30 35 38 01 FF 08  .........s058...
08F0: 52 1A 80 F8 FF FF 7F F8  FF FF 7F 73 30 33 33 02  R..........s033.
0900: 09 10 1C 80 00 1B 09 45  1A 80 F8 FF FF 7F F8 FF  .......E........
0910: FF 7F 73 30 35 39 01 80  01 48 09 02 09 10 21 80  ..s059...H....!.
0920: 00 37 09 45 1A 80 F8 FF  FF 7F F8 FF FF 7F 73 30  .7.E..........s0
0930: 35 39 01 80 01 48 09 45  1A 80 F8 FF FF 7F F8 FF  59...H.E........
0940: FF 7F 73 30 33 38 01 80  2B F0 60 0A 01 32 80 29  ..s038..+.`..2.)
0950: 08 F0 60 0A 01 18 29 08  F0 60 0A 01 19 23 29 08  ..`...)..`...#).
0960: F0 FF FF 7F 0C 29 08 F0  60 0A 01 1A 29 08 F0 60  .....)..`...)..`
0970: 0A 01 09 1C 06 80 2B F0  60 0A 01 33 80 23 29 08  ......+.`..3.#).
0980: F0 FF FF 7F 0B 1C 06 80  5D 01 80 08 80 1A 64 00  ........].....d.
0990: 1C 1B 80 02 09 10 1C 80  00 AD 09 52 1A 80 F8 FF  ...........R....
09A0: FF 7F F8 FF FF 7F 73 30  35 39 01 D6 09 02 09 10  ......s059......
09B0: 21 80 00 C7 09 52 1A 80  F8 FF FF 7F F8 FF FF 7F  !....R..........
09C0: 73 30 35 39 01 D6 09 52  1A 80 F8 FF FF 7F F8 FF  s059...R........
09D0: FF 7F 73 30 33 38 29 08  F0 60 0A 01 0A 79 00 F0  ..s038)..`...y..
09E0: FF FF 7F F0 60 0A 01 7B  F0 60 0A 01 29 08 F0 60  ....`..{.`..)..`
09F0: 0A 01 1D 29 08 F0 60 0A  01 1E 45 1A 80 F8 FF FF  ...)..`...E.....
0A00: 7F F8 FF FF 7F 73 30 33  35 01 80 1A 43 00 1C 34  .....s035...C..4
0A10: 80 52 1A 80 F8 FF FF 7F  F8 FF FF 7F 73 30 33 35  .R..........s035
0A20: 45 1A 80 F8 FF FF 7F F8  FF FF 7F 73 30 34 32 01  E..........s042.
0A30: 80 29 08 F0 60 0A 01 1F  1C 06 80 2B F0 60 0A 01  .)..`......+.`..
0A40: 35 80 23 6E F0 FF FF 7F  36 80 99 F0 FF FF 7F 1C  5.#n....6.......
0A50: 1D 80 52 1A 80 F8 FF FF  7F F8 FF FF 7F 73 30 34  ..R..........s04
0A60: 32 02 09 10 1C 80 00 7D  0A 45 1A 80 F8 FF FF 7F  2......}.E......
0A70: F8 FF FF 7F 73 30 36 30  01 80 01 AA 0A 02 09 10  ....s060........
0A80: 21 80 00 99 0A 45 1A 80  F8 FF FF 7F F8 FF FF 7F  !....E..........
0A90: 73 30 36 30 01 80 01 AA  0A 45 1A 80 F8 FF FF 7F  s060.....E......
0AA0: F8 FF FF 7F 73 30 33 36  01 80 5C 00 37 80 5C 01  ....s036..\.7.\.
0AB0: 37 80 9A 5D 18 80 03 80  1C 26 80 79 00 F0 60 0A  7..].....&.y..`.
0AC0: 01 F0 FF FF 7F 2B F0 60  0A 01 38 80 23 29 08 F0  .....+.`..8.#)..
0AD0: 60 0A 01 20 02 09 10 1C  80 00 EE 0A 52 1A 80 F8  `.. ........R...
0AE0: FF FF 7F F8 FF FF 7F 73  30 36 30 01 17 0B 02 09  .......s060.....
0AF0: 10 21 80 00 08 0B 52 1A  80 F8 FF FF 7F F8 FF FF  .!....R.........
0B00: 7F 73 30 36 30 01 17 0B  52 1A 80 F8 FF FF 7F F8  .s060...R.......
0B10: FF FF 7F 73 30 33 36 45  1A 80 F8 FF FF 7F F8 FF  ...s036E........
0B20: FF 7F 73 30 33 37 01 80  29 08 F0 60 0A 01 21 2B  ..s037..)..`..!+
0B30: F0 60 0A 01 39 80 23 2B  F0 60 0A 01 3A 80 23 29  .`..9.#+.`..:.#)
0B40: 08 F0 60 0A 01 22 52 1A  80 F8 FF FF 7F F8 FF FF  ..`.."R.........
0B50: 7F 73 30 33 37 02 09 10  1C 80 00 71 0B 45 1A 80  .s037......q.E..
0B60: F8 FF FF 7F F8 FF FF 7F  73 30 35 39 01 80 01 9E  ........s059....
0B70: 0B 02 09 10 21 80 00 8D  0B 45 1A 80 F8 FF FF 7F  ....!....E......
0B80: F8 FF FF 7F 73 30 35 39  01 80 01 9E 0B 45 1A 80  ....s059.....E..
0B90: F8 FF FF 7F F8 FF FF 7F  73 30 33 38 01 80 29 08  ........s038..).
0BA0: F0 60 0A 01 23 2B F0 60  0A 01 3B 80 23 29 08 F0  .`..#+.`..;.#)..
0BB0: 60 0A 01 24 81 01 F0 60  0A 01 29 08 F0 60 0A 01  `..$...`..)..`..
0BC0: 05 2B F0 60 0A 01 3C 80  23 24 3D 80 01 80 01 80  .+.`..<.#$=.....
0BD0: 25 02 00 10 01 80 00 E7  0C 6E F0 FF FF 7F 25 80  %........n....%.
0BE0: 99 F0 FF FF 7F 1C 26 80  29 08 F0 60 0A 01 06 02  ......&.)..`....
0BF0: 09 10 1C 80 00 09 0C 52  1A 80 F8 FF FF 7F F8 FF  .......R........
0C00: FF 7F 73 30 35 39 01 32  0C 02 09 10 21 80 00 23  ..s059.2....!..#
0C10: 0C 52 1A 80 F8 FF FF 7F  F8 FF FF 7F 73 30 35 39  .R..........s059
0C20: 01 32 0C 52 1A 80 F8 FF  FF 7F F8 FF FF 7F 73 30  .2.R..........s0
0C30: 33 38 02 09 10 1C 80 00  4E 0C 45 1A 80 F8 FF FF  38......N.E.....
0C40: 7F F8 FF FF 7F 73 30 35  38 01 80 01 7B 0C 02 09  .....s058...{...
0C50: 10 21 80 00 6A 0C 45 1A  80 F8 FF FF 7F F8 FF FF  .!..j.E.........
0C60: 7F 73 30 35 38 01 80 01  7B 0C 45 1A 80 F8 FF FF  .s058...{.E.....
0C70: 7F F8 FF FF 7F 73 30 33  33 01 80 29 08 F0 60 0A  .....s033..)..`.
0C80: 01 07 2B F0 60 0A 01 3E  80 23 29 08 F0 60 0A 01  ..+.`..>.#)..`..
0C90: 08 81 01 F0 60 0A 01 29  08 F0 60 0A 01 13 1C 1C  ....`..)..`.....
0CA0: 80 02 09 10 1C 80 00 BB  0C 52 1A 80 F8 FF FF 7F  .........R......
0CB0: F8 FF FF 7F 73 30 35 38  01 E4 0C 02 09 10 21 80  ....s058......!.
0CC0: 00 D5 0C 52 1A 80 F8 FF  FF 7F F8 FF FF 7F 73 30  ...R..........s0
0CD0: 35 38 01 E4 0C 52 1A 80  F8 FF FF 7F F8 FF FF 7F  58...R..........
0CE0: 73 30 33 33 01 EB 0E 02  00 10 03 80 00 8C 0D 29  s033...........)
0CF0: 08 F0 FF FF 7F 0C 1C 26  80 29 08 F0 60 0A 01 06  .......&.)..`...
0D00: 02 09 10 1C 80 00 1A 0D  52 1A 80 F8 FF FF 7F F8  ........R.......
0D10: FF FF 7F 73 30 35 39 01  43 0D 02 09 10 21 80 00  ...s059.C....!..
0D20: 34 0D 52 1A 80 F8 FF FF  7F F8 FF FF 7F 73 30 35  4.R..........s05
0D30: 39 01 43 0D 52 1A 80 F8  FF FF 7F F8 FF FF 7F 73  9.C.R..........s
0D40: 30 33 38 45 1A 80 F8 FF  FF 7F F8 FF FF 7F 73 30  038E..........s0
0D50: 34 33 01 80 29 08 F0 60  0A 01 07 2B F0 60 0A 01  43..)..`...+.`..
0D60: 3F 80 23 29 08 F0 60 0A  01 08 81 01 F0 60 0A 01  ?.#)..`......`..
0D70: 29 08 F0 60 0A 01 13 1C  1C 80 52 1A 80 F8 FF FF  )..`......R.....
0D80: 7F F8 FF FF 7F 73 30 34  33 01 EB 0E 02 00 10 05  .....s043.......
0D90: 80 00 EB 0E 6E F0 FF FF  7F 21 80 99 F0 FF FF 7F  ....n....!......
0DA0: 1C 26 80 29 08 F0 60 0A  01 06 29 08 F0 60 0A 01  .&.)..`...)..`..
0DB0: 07 29 08 F0 60 0A 01 08  02 09 10 1C 80 00 D2 0D  .)..`...........
0DC0: 52 1A 80 F8 FF FF 7F F8  FF FF 7F 73 30 35 39 01  R..........s059.
0DD0: FB 0D 02 09 10 21 80 00  EC 0D 52 1A 80 F8 FF FF  .....!....R.....
0DE0: 7F F8 FF FF 7F 73 30 35  39 01 FB 0D 52 1A 80 F8  .....s059...R...
0DF0: FF FF 7F F8 FF FF 7F 73  30 33 38 45 1A 80 F8 FF  .......s038E....
0E00: FF 7F F8 FF FF 7F 73 30  34 34 01 80 29 08 F0 60  ......s044..)..`
0E10: 0A 01 1D 2B F0 60 0A 01  40 80 23 29 08 F0 60 0A  ...+.`..@.#)..`.
0E20: 01 1E 52 1A 80 F8 FF FF  7F F8 FF FF 7F 73 30 34  ..R..........s04
0E30: 34 02 09 10 1C 80 00 4D  0E 45 1A 80 F8 FF FF 7F  4......M.E......
0E40: F8 FF FF 7F 73 30 36 31  01 80 01 7A 0E 02 09 10  ....s061...z....
0E50: 21 80 00 69 0E 45 1A 80  F8 FF FF 7F F8 FF FF 7F  !..i.E..........
0E60: 73 30 36 31 01 80 01 7A  0E 45 1A 80 F8 FF FF 7F  s061...z.E......
0E70: F8 FF FF 7F 73 30 35 32  01 80 29 08 F0 60 0A 01  ....s052..)..`..
0E80: 1F 2B F0 60 0A 01 41 80  23 29 08 F0 60 0A 01 20  .+.`..A.#)..`.. 
0E90: 2B F0 60 0A 01 42 80 23  81 01 F0 60 0A 01 29 08  +.`..B.#...`..).
0EA0: F0 60 0A 01 13 02 09 10  1C 80 00 BF 0E 52 1A 80  .`...........R..
0EB0: F8 FF FF 7F F8 FF FF 7F  73 30 36 31 01 E8 0E 02  ........s061....
0EC0: 09 10 21 80 00 D9 0E 52  1A 80 F8 FF FF 7F F8 FF  ..!....R........
0ED0: FF 7F 73 30 36 31 01 E8  0E 52 1A 80 F8 FF FF 7F  ..s061...R......
0EE0: F8 FF FF 7F 73 30 35 32  01 EB 0E 45 1A 80 F8 FF  ....s052...E....
0EF0: FF 7F F8 FF FF 7F 73 30  34 31 01 80 7B F0 60 0A  ......s041..{.`.
0F00: 01 2B F0 60 0A 01 43 80  23 52 1A 80 F8 FF FF 7F  .+.`..C.#R......
0F10: F8 FF FF 7F 73 30 34 31  02 09 10 1C 80 00 34 0F  ....s041......4.
0F20: 45 1A 80 F8 FF FF 7F F8  FF FF 7F 73 30 36 32 01  E..........s062.
0F30: 80 01 61 0F 02 09 10 21  80 00 50 0F 45 1A 80 F8  ..a....!..P.E...
0F40: FF FF 7F F8 FF FF 7F 73  30 36 32 01 80 01 61 0F  .......s062...a.
0F50: 45 1A 80 F8 FF FF 7F F8  FF FF 7F 73 30 33 34 01  E..........s034.
0F60: 80 79 00 F0 60 0A 01 F0  FF FF 7F 2B F0 60 0A 01  .y..`......+.`..
0F70: 44 80 29 08 F0 60 0A 01  14 29 08 F0 60 0A 01 15  D.)..`...)..`...
0F80: 23 2B F0 60 0A 01 45 80  29 08 F0 60 0A 01 16 29  #+.`..E.)..`...)
0F90: 08 F0 60 0A 01 01 23 02  09 10 1C 80 00 B1 0F 52  ..`...#........R
0FA0: 1A 80 F8 FF FF 7F F8 FF  FF 7F 73 30 36 32 01 DA  ..........s062..
0FB0: 0F 02 09 10 21 80 00 CB  0F 52 1A 80 F8 FF FF 7F  ....!....R......
0FC0: F8 FF FF 7F 73 30 36 32  01 DA 0F 52 1A 80 F8 FF  ....s062...R....
0FD0: FF 7F F8 FF FF 7F 73 30  33 34 02 09 10 1C 80 00  ......s034......
0FE0: F6 0F 45 1A 80 F8 FF FF  7F F8 FF FF 7F 73 30 36  ..E..........s06
0FF0: 36 01 80 01 23 10 02 09  10 21 80 00 12 10 45 1A  6...#....!....E.
1000: 80 F8 FF FF 7F F8 FF FF  7F 73 30 36 36 01 80 01  .........s066...
1010: 23 10 45 1A 80 F8 FF FF  7F F8 FF FF 7F 73 30 34  #.E..........s04
1020: 35 01 80 2B F0 60 0A 01  46 80 29 08 F0 60 0A 01  5..+.`..F.)..`..
1030: 02 29 08 F0 60 0A 01 03  23 2B F0 60 0A 01 47 80  .)..`...#+.`..G.
1040: 23 29 08 F0 60 0A 01 04  02 09 10 1C 80 00 62 10  #)..`.........b.
1050: 52 1A 80 F8 FF FF 7F F8  FF FF 7F 73 30 36 36 01  R..........s066.
1060: 8B 10 02 09 10 21 80 00  7C 10 52 1A 80 F8 FF FF  .....!..|.R.....
1070: 7F F8 FF FF 7F 73 30 36  36 01 8B 10 52 1A 80 F8  .....s066...R...
1080: FF FF 7F F8 FF FF 7F 73  30 34 35 02 09 10 1C 80  .......s045.....
1090: 00 A7 10 45 1A 80 F8 FF  FF 7F F8 FF FF 7F 73 30  ...E..........s0
10A0: 36 37 01 80 01 D4 10 02  09 10 21 80 00 C3 10 45  67........!....E
10B0: 1A 80 F8 FF FF 7F F8 FF  FF 7F 73 30 36 37 01 80  ..........s067..
10C0: 01 D4 10 45 1A 80 F8 FF  FF 7F F8 FF FF 7F 73 30  ...E..........s0
10D0: 34 36 01 80 29 08 F0 60  0A 01 09 2B F0 60 0A 01  46..)..`...+.`..
10E0: 48 80 23 29 08 F0 60 0A  01 0A 2B F0 60 0A 01 49  H.#)..`...+.`..I
10F0: 80 23 02 09 10 1C 80 00  0C 11 52 1A 80 F8 FF FF  .#........R.....
1100: 7F F8 FF FF 7F 73 30 36  37 01 35 11 02 09 10 21  .....s067.5....!
1110: 80 00 26 11 52 1A 80 F8  FF FF 7F F8 FF FF 7F 73  ..&.R..........s
1120: 30 36 37 01 35 11 52 1A  80 F8 FF FF 7F F8 FF FF  067.5.R.........
1130: 7F 73 30 34 36 02 09 10  2A 80 00 51 11 45 1A 80  .s046...*..Q.E..
1140: F8 FF FF 7F F8 FF FF 7F  73 30 34 37 01 80 01 B6  ........s047....
1150: 11 02 09 10 1C 80 00 6D  11 45 1A 80 F8 FF FF 7F  .......m.E......
1160: F8 FF FF 7F 73 30 36 33  01 80 01 B6 11 02 09 10  ....s063........
1170: 21 80 00 89 11 45 1A 80  F8 FF FF 7F F8 FF FF 7F  !....E..........
1180: 73 30 36 33 01 80 01 B6  11 02 09 10 2B 80 00 A5  s063........+...
1190: 11 45 1A 80 F8 FF FF 7F  F8 FF FF 7F 73 30 34 37  .E..........s047
11A0: 01 80 01 B6 11 45 1A 80  F8 FF FF 7F F8 FF FF 7F  .....E..........
11B0: 73 30 35 34 01 80 29 08  F0 60 0A 01 0B 2B F0 60  s054..)..`...+.`
11C0: 0A 01 4A 80 23 29 08 F0  60 0A 01 0C 7B F0 60 0A  ..J.#)..`...{.`.
11D0: 01 29 08 F0 60 0A 01 05  2B F0 60 0A 01 4B 80 23  .)..`...+.`..K.#
11E0: 02 09 10 2A 80 00 FA 11  52 1A 80 F8 FF FF 7F F8  ...*....R.......
11F0: FF FF 7F 73 30 34 37 01  57 12 02 09 10 1C 80 00  ...s047.W.......
1200: 14 12 52 1A 80 F8 FF FF  7F F8 FF FF 7F 73 30 36  ..R..........s06
1210: 33 01 57 12 02 09 10 21  80 00 2E 12 52 1A 80 F8  3.W....!....R...
1220: FF FF 7F F8 FF FF 7F 73  30 36 33 01 57 12 02 09  .......s063.W...
1230: 10 2B 80 00 48 12 52 1A  80 F8 FF FF 7F F8 FF FF  .+..H.R.........
1240: 7F 73 30 34 37 01 57 12  52 1A 80 F8 FF FF 7F F8  .s047.W.R.......
1250: FF FF 7F 73 30 35 34 02  09 10 1C 80 00 73 12 45  ...s054......s.E
1260: 1A 80 F8 FF FF 7F F8 FF  FF 7F 73 30 36 39 01 80  ..........s069..
1270: 01 A0 12 02 09 10 21 80  00 8F 12 45 1A 80 F8 FF  ......!....E....
1280: FF 7F F8 FF FF 7F 73 30  36 39 01 80 01 A0 12 45  ......s069.....E
1290: 1A 80 F8 FF FF 7F F8 FF  FF 7F 73 30 34 38 01 80  ..........s048..
12A0: 29 08 F0 60 0A 01 06 79  00 F0 60 0A 01 F0 FF FF  )..`...y..`.....
12B0: 7F 29 08 F0 60 0A 01 07  2B F0 60 0A 01 4C 80 23  .)..`...+.`..L.#
12C0: 29 08 F0 60 0A 01 08 29  08 F0 60 0A 01 01 2B F0  )..`...)..`...+.
12D0: 60 0A 01 4D 80 23 02 09  10 1C 80 00 F0 12 52 1A  `..M.#........R.
12E0: 80 F8 FF FF 7F F8 FF FF  7F 73 30 36 39 01 19 13  .........s069...
12F0: 02 09 10 21 80 00 0A 13  52 1A 80 F8 FF FF 7F F8  ...!....R.......
1300: FF FF 7F 73 30 36 39 01  19 13 52 1A 80 F8 FF FF  ...s069...R.....
1310: 7F F8 FF FF 7F 73 30 34  38 02 09 10 1C 80 00 35  .....s048......5
1320: 13 45 1A 80 F8 FF FF 7F  F8 FF FF 7F 73 30 36 34  .E..........s064
1330: 01 80 01 62 13 02 09 10  21 80 00 51 13 45 1A 80  ...b....!..Q.E..
1340: F8 FF FF 7F F8 FF FF 7F  73 30 36 34 01 80 01 62  ........s064...b
1350: 13 45 1A 80 F8 FF FF 7F  F8 FF FF 7F 73 30 34 39  .E..........s049
1360: 01 80 1C 4E 80 6E F0 FF  FF 7F 25 80 99 F0 FF FF  ...N.n....%.....
1370: 7F 29 08 F0 60 0A 01 02  29 08 F0 60 0A 01 03 29  .)..`...)..`...)
1380: 08 F0 60 0A 01 04 7B F0  60 0A 01 4B F0 60 0A 01  ..`...{.`..K.`..
1390: 4F 80 6F 76 F0 60 0A 01  29 08 F0 60 0A 01 17 2B  O.ov.`..)..`...+
13A0: F0 60 0A 01 50 80 23 29  08 F0 60 0A 01 18 02 09  .`..P.#)..`.....
13B0: 10 1C 80 00 C8 13 52 1A  80 F8 FF FF 7F F8 FF FF  ......R.........
13C0: 7F 73 30 36 34 01 F1 13  02 09 10 21 80 00 E2 13  .s064......!....
13D0: 52 1A 80 F8 FF FF 7F F8  FF FF 7F 73 30 36 34 01  R..........s064.
13E0: F1 13 52 1A 80 F8 FF FF  7F F8 FF FF 7F 73 30 34  ..R..........s04
13F0: 39 02 09 10 1C 80 00 0D  14 45 1A 80 F8 FF FF 7F  9........E......
1400: F8 FF FF 7F 73 30 36 35  01 80 01 3A 14 02 09 10  ....s065...:....
1410: 21 80 00 29 14 45 1A 80  F8 FF FF 7F F8 FF FF 7F  !..).E..........
1420: 73 30 36 35 01 80 01 3A  14 45 1A 80 F8 FF FF 7F  s065...:.E......
1430: F8 FF FF 7F 73 30 35 31  01 80 79 00 F0 60 0A 01  ....s051..y..`..
1440: F0 FF FF 7F 29 08 F0 60  0A 01 19 2B F0 60 0A 01  ....)..`...+.`..
1450: 51 80 23 29 08 F0 60 0A  01 1A 02 09 10 1C 80 00  Q.#)..`.........
1460: 74 14 52 1A 80 F8 FF FF  7F F8 FF FF 7F 73 30 36  t.R..........s06
1470: 35 01 9D 14 02 09 10 21  80 00 8E 14 52 1A 80 F8  5......!....R...
1480: FF FF 7F F8 FF FF 7F 73  30 36 35 01 9D 14 52 1A  .......s065...R.
1490: 80 F8 FF FF 7F F8 FF FF  7F 73 30 35 31 45 1A 80  .........s051E..
14A0: F8 FF FF 7F F8 FF FF 7F  73 30 35 30 01 80 27 08  ........s050..'.
14B0: F0 60 0A 01 29 1C 1B 80  5D 01 80 08 80 1A 64 00  .`..)...].....d.
14C0: 1C 52 80 52 1A 80 F8 FF  FF 7F F8 FF FF 7F 73 30  .R.R..........s0
14D0: 35 30 2A 08 F0 60 0A 01  5C 00 01 80 5C 01 01 80  50*..`..\...\...
14E0: 5C 02 53 80 5C 03 54 80  9A 5D 18 80 03 80 AB 11  \.S.\.T..]......
14F0: 01 80 1C 03 80 46 00 45  00 80 F8 FF FF 7F F8 FF  .....F.E........
1500: FF 7F 66 64 69 32 01 80  21 00                    ..fdi2..!.      
```

#### Opcodes

```
  0: 0x0292 [0x42] SET_CLI_EVENT_CANCEL_DATA()
  1: 0x0293 [0x5D] SET_MUSIC_VOLUME(volume=0*, fade_time=300*)
  2: 0x0298 [0x1A] CALL_SUBROUTINE(address=0x0064)
  3: 0x029B [0x46] CAMERA_CONTROL: Disable user control
  4: 0x029D [0x38] SET_CLIENT_EVENT_MODE(mode=147*)
  5: 0x02A0 [0x2F] Altennia (ID: 17457392/0x010A60F0)->Render.Flags0 &= ~0x80000 // Bit 19
  6: 0x02A6 [0x2F] Unnamed NPC (ID: 17457393/0x010A60F1)->Render.Flags0 &= ~0x80000 // Bit 19
  7: 0x02AC [0x4E] SET_ENTITY_HIDE_FLAG: Show Altennia (ID: 17457392/0x010A60F0)
  8: 0x02B2 [0x4E] SET_ENTITY_HIDE_FLAG: Show Unnamed NPC (ID: 17457393/0x010A60F1)
  9: 0x02B8 [0x94] Altennia (ID: 17457392/0x010A60F0)->Render.Flags3 ^= 0x01
 10: 0x02BE [0x94] Unnamed NPC (ID: 17457393/0x010A60F1)->Render.Flags3 ^= 0x01
 11: 0x02C4 [0x94] LocalPlayer->Render.Flags3 ^= 0x01
 12: 0x02CA [0xBA] SET_ENTITY_POSITION(entity_id=LocalPlayer, pos_x=145.083*, pos_z=-57.893*, pos_y=3.554*, direction=204.5°*)
 13: 0x02D7 [0xBA] SET_ENTITY_POSITION(entity_id=Altennia (ID: 17457392/0x010A60F0), pos_x=132.892*, pos_z=-57.960*, pos_y=3.149*, direction=339.7°*)
 14: 0x02E4 [0xBA] SET_ENTITY_POSITION(entity_id=Unnamed NPC (ID: 17457393/0x010A60F1), pos_x=155.857*, pos_z=-57.769*, pos_y=5.277*, direction=170.8°*)
 15: 0x02F1 [0x80] LOAD_WAIT(entity=Altennia (ID: 17457392/0x010A60F0))
 16: 0x02F6 [0x80] LOAD_WAIT(entity=Unnamed NPC (ID: 17457393/0x010A60F1))
 17: 0x02FB [0x80] LOAD_WAIT(entity=LocalPlayer)
 18: 0x0300 [0x2C] CREATE_SCHEDULER_TASK: Create scheduler "corp" with entities [Unnamed NPC (ID: 17457393/0x010A60F1), Unnamed NPC (ID: 17457393/0x010A60F1)]
 19: 0x030D [0x53] WAIT_SCHEDULER_TASK: Wait for scheduler "corp" with entities [Unnamed NPC (ID: 17457393/0x010A60F1), Unnamed NPC (ID: 17457393/0x010A60F1)]
 20: 0x031A [0x29] REQ_SET_WAIT(priority=0x12, entity_id=LocalPlayer, tag_num=0x08)
 21: 0x0321 [0x4B] UPDATE_ENTITY_YAW(entity=LocalPlayer, yaw=22.5°*)
 22: 0x0328 [0x6F] WAIT_FRAME_DELAY: Yield until WaitTime reaches zero
 23: 0x0329 [0x76] CHECK_ENTITY_RENDER_FLAGS: Wait until LocalPlayer Render.Flags0 and Render.Flags3 conditions are met
 24: 0x032E [0x5C] MUSIC_CONTROL: Set Idle (Day) music to song 246*
 25: 0x0332 [0x5C] MUSIC_CONTROL: Set Idle (Night) music to song 246*
 26: 0x0336 [0x9A] WAIT_MUSIC_SERVER()
 27: 0x0337 [0x5D] SET_MUSIC_VOLUME(volume=127*, fade_time=1*)
 28: 0x033C [0x1C] WAIT(160* ticks)
 29: 0x033F [0x45] LOAD_SCHEDULED_TASK: Load scheduler "s027" with entities [EventEntity, EventEntity], work=[844*, 0*]
 30: 0x0350 [0x1A] CALL_SUBROUTINE(address=0x0043)
 31: 0x0353 [0x1C] WAIT(90* ticks)
 32: 0x0356 [0x27] REQ_SET(priority=0x08, entity_id=Altennia (ID: 17457392/0x010A60F0), tag_num=0x26)
 33: 0x035D [0x1C] WAIT(5* ticks)
 34: 0x0360 [0x52] END_LOAD_SCHEDULER: End scheduler "s027" with entities [EventEntity, EventEntity], work=844*
 35: 0x036F [0x45] LOAD_SCHEDULED_TASK: Load scheduler "s025" with entities [EventEntity, EventEntity], work=[844*, 0*]
 36: 0x0380 [0x1C] WAIT(10* ticks)
 37: 0x0383 [0x4B] UPDATE_ENTITY_YAW(entity=LocalPlayer, yaw=11.3°*)
 38: 0x038A [0x2B] Altennia (ID: 17457392/0x010A60F0) [10756*]:
    → "Tell me, adventurer. Where is that smilodon that I chased here?"
 39: 0x0391 [0x1C] WAIT(40* ticks)
 40: 0x0394 [0x6F] WAIT_FRAME_DELAY: Yield until WaitTime reaches zero
 41: 0x0395 [0x76] CHECK_ENTITY_RENDER_FLAGS: Wait until LocalPlayer Render.Flags0 and Render.Flags3 conditions are met
 42: 0x039A [0x52] END_LOAD_SCHEDULER: End scheduler "s025" with entities [EventEntity, EventEntity], work=844*
 43: 0x03A9 [0x45] LOAD_SCHEDULED_TASK: Load scheduler "s039" with entities [EventEntity, EventEntity], work=[844*, 0*]
 44: 0x03BA [0x2A] GET_REQ_LEVEL(level=8, entity_id=Altennia (ID: 17457392/0x010A60F0))
 45: 0x03C0 [0x23] WAIT_FOR_DIALOG_INTERACTION
 46: 0x03C1 [0x52] END_LOAD_SCHEDULER: End scheduler "s039" with entities [EventEntity, EventEntity], work=844*
 47: 0x03D0 [0x02] IF !(Work_Zone[9] == 5*) GOTO 0x03EC
 48: 0x03D8 [0x45] LOAD_SCHEDULED_TASK: Load scheduler "s068" with entities [EventEntity, EventEntity], work=[844*, 0*]
 49: 0x03E9 [0x01] GOTO 0x0419
 50: 0x03EC [0x02] IF !(Work_Zone[9] == 6*) GOTO 0x0408
 51: 0x03F4 [0x45] LOAD_SCHEDULED_TASK: Load scheduler "s068" with entities [EventEntity, EventEntity], work=[844*, 0*]
 52: 0x0405 [0x01] GOTO 0x0419
 53: 0x0408 [0x45] LOAD_SCHEDULED_TASK: Load scheduler "s026" with entities [EventEntity, EventEntity], work=[844*, 0*]

SUBROUTINE_0419:
 54: 0x0419 [0x4B] UPDATE_ENTITY_YAW(entity=LocalPlayer, yaw=18.5°*)
 55: 0x0420 [0x6F] WAIT_FRAME_DELAY: Yield until WaitTime reaches zero
 56: 0x0421 [0x76] CHECK_ENTITY_RENDER_FLAGS: Wait until LocalPlayer Render.Flags0 and Render.Flags3 conditions are met
 57: 0x0426 [0x1C] WAIT(40* ticks)
 58: 0x0429 [0x02] IF !(Work_Zone[9] == 5*) GOTO 0x0443
 59: 0x0431 [0x52] END_LOAD_SCHEDULER: End scheduler "s068" with entities [EventEntity, EventEntity], work=844*
 60: 0x0440 [0x01] GOTO 0x046C
 61: 0x0443 [0x02] IF !(Work_Zone[9] == 6*) GOTO 0x045D
 62: 0x044B [0x52] END_LOAD_SCHEDULER: End scheduler "s068" with entities [EventEntity, EventEntity], work=844*
 63: 0x045A [0x01] GOTO 0x046C
 64: 0x045D [0x52] END_LOAD_SCHEDULER: End scheduler "s026" with entities [EventEntity, EventEntity], work=844*

SUBROUTINE_046C:
 65: 0x046C [0x45] LOAD_SCHEDULED_TASK: Load scheduler "s028" with entities [EventEntity, EventEntity], work=[844*, 0*]
 66: 0x047D [0x2B] Altennia (ID: 17457392/0x010A60F0) [10757*]:
    → "What!? You managed to slay it by yourself!?"
 67: 0x0484 [0x27] REQ_SET(priority=0x08, entity_id=Altennia (ID: 17457392/0x010A60F0), tag_num=0x27)
 68: 0x048B [0x1C] WAIT(40* ticks)
 69: 0x048E [0x23] WAIT_FOR_DIALOG_INTERACTION
 70: 0x048F [0x52] END_LOAD_SCHEDULER: End scheduler "s028" with entities [EventEntity, EventEntity], work=844*
 71: 0x049E [0x02] IF !(Work_Zone[9] == 5*) GOTO 0x04BA
 72: 0x04A6 [0x45] LOAD_SCHEDULED_TASK: Load scheduler "s055" with entities [EventEntity, EventEntity], work=[844*, 0*]
 73: 0x04B7 [0x01] GOTO 0x04E7
 74: 0x04BA [0x02] IF !(Work_Zone[9] == 6*) GOTO 0x04D6
 75: 0x04C2 [0x45] LOAD_SCHEDULED_TASK: Load scheduler "s055" with entities [EventEntity, EventEntity], work=[844*, 0*]
 76: 0x04D3 [0x01] GOTO 0x04E7
 77: 0x04D6 [0x45] LOAD_SCHEDULED_TASK: Load scheduler "s030" with entities [EventEntity, EventEntity], work=[844*, 0*]

SUBROUTINE_04E7:
 78: 0x04E7 [0x4A] LocalPlayer looks at Altennia (ID: 17457392/0x010A60F0)
 79: 0x04F0 [0x6F] WAIT_FRAME_DELAY: Yield until WaitTime reaches zero
 80: 0x04F1 [0x76] CHECK_ENTITY_RENDER_FLAGS: Wait until LocalPlayer Render.Flags0 and Render.Flags3 conditions are met
 81: 0x04F6 [0x24] CREATE_DIALOG(message_id=10758*, default_option=0*, option_flags=0*)
    → "Did you slay the monster? [Of course./Don't look at me.]"
 82: 0x04FD [0x25] WAIT_DIALOG_SELECT()
 83: 0x04FE [0x02] IF !(Work_Zone[0] == 0*) GOTO 0x063A
 84: 0x0506 [0x7B] Altennia (ID: 17457392/0x010A60F0) stops talking
 85: 0x050B [0x6E] LocalPlayer uses emote 7*
 86: 0x0512 [0x99] Wait for LocalPlayer animation to complete
 87: 0x0517 [0x1C] WAIT(60* ticks)
 88: 0x051A [0x02] IF !(Work_Zone[9] == 5*) GOTO 0x0534
 89: 0x0522 [0x52] END_LOAD_SCHEDULER: End scheduler "s055" with entities [EventEntity, EventEntity], work=844*
 90: 0x0531 [0x01] GOTO 0x055D
 91: 0x0534 [0x02] IF !(Work_Zone[9] == 6*) GOTO 0x054E
 92: 0x053C [0x52] END_LOAD_SCHEDULER: End scheduler "s055" with entities [EventEntity, EventEntity], work=844*
 93: 0x054B [0x01] GOTO 0x055D
 94: 0x054E [0x52] END_LOAD_SCHEDULER: End scheduler "s030" with entities [EventEntity, EventEntity], work=844*

SUBROUTINE_055D:
 95: 0x055D [0x45] LOAD_SCHEDULED_TASK: Load scheduler "s056" with entities [EventEntity, EventEntity], work=[844*, 0*]
 96: 0x056E [0x2B] Altennia (ID: 17457392/0x010A60F0) [10759*]:
    → "Most impressive... How would you like to join my unit and hone your skills even further?"
 97: 0x0575 [0x23] WAIT_FOR_DIALOG_INTERACTION
 98: 0x0576 [0x2A] GET_REQ_LEVEL(level=8, entity_id=Altennia (ID: 17457392/0x010A60F0))
 99: 0x057C [0x52] END_LOAD_SCHEDULER: End scheduler "s056" with entities [EventEntity, EventEntity], work=844*
100: 0x058B [0x02] IF !(Work_Zone[9] == 5*) GOTO 0x05A7
101: 0x0593 [0x45] LOAD_SCHEDULED_TASK: Load scheduler "s055" with entities [EventEntity, EventEntity], work=[844*, 0*]
102: 0x05A4 [0x01] GOTO 0x05D4
103: 0x05A7 [0x02] IF !(Work_Zone[9] == 6*) GOTO 0x05C3
104: 0x05AF [0x45] LOAD_SCHEDULED_TASK: Load scheduler "s055" with entities [EventEntity, EventEntity], work=[844*, 0*]
105: 0x05C0 [0x01] GOTO 0x05D4
106: 0x05C3 [0x45] LOAD_SCHEDULED_TASK: Load scheduler "s030" with entities [EventEntity, EventEntity], work=[844*, 0*]

SUBROUTINE_05D4:
107: 0x05D4 [0x79] Altennia (ID: 17457392/0x010A60F0) looks at LocalPlayer (Basic look)
108: 0x05DE [0x29] REQ_SET_WAIT(priority=0x08, entity_id=Altennia (ID: 17457392/0x010A60F0), tag_num=0x15)
109: 0x05E5 [0x2B] Altennia (ID: 17457392/0x010A60F0) [10760*]:
    → "Hehehe, that was a joke. I did not mean to put you on the spot, adventurer."
110: 0x05EC [0x23] WAIT_FOR_DIALOG_INTERACTION
111: 0x05ED [0x29] REQ_SET_WAIT(priority=0x08, entity_id=Altennia (ID: 17457392/0x010A60F0), tag_num=0x16)
112: 0x05F4 [0x02] IF !(Work_Zone[9] == 5*) GOTO 0x060E
113: 0x05FC [0x52] END_LOAD_SCHEDULER: End scheduler "s055" with entities [EventEntity, EventEntity], work=844*
114: 0x060B [0x01] GOTO 0x0637
115: 0x060E [0x02] IF !(Work_Zone[9] == 6*) GOTO 0x0628
116: 0x0616 [0x52] END_LOAD_SCHEDULER: End scheduler "s055" with entities [EventEntity, EventEntity], work=844*
117: 0x0625 [0x01] GOTO 0x0637
118: 0x0628 [0x52] END_LOAD_SCHEDULER: End scheduler "s030" with entities [EventEntity, EventEntity], work=844*

SUBROUTINE_0637:
119: 0x0637 [0x01] GOTO 0x06D3
120: 0x063A [0x02] IF !(Work_Zone[0] == 1*) GOTO 0x06D3
121: 0x0642 [0x6E] LocalPlayer uses emote 6*
122: 0x0649 [0x99] Wait for LocalPlayer animation to complete
123: 0x064E [0x29] REQ_SET_WAIT(priority=0x08, entity_id=Altennia (ID: 17457392/0x010A60F0), tag_num=0x15)
124: 0x0655 [0x1C] WAIT(60* ticks)
125: 0x0658 [0x2A] GET_REQ_LEVEL(level=8, entity_id=Altennia (ID: 17457392/0x010A60F0))
126: 0x065E [0x02] IF !(Work_Zone[9] == 5*) GOTO 0x0678
127: 0x0666 [0x52] END_LOAD_SCHEDULER: End scheduler "s055" with entities [EventEntity, EventEntity], work=844*
128: 0x0675 [0x01] GOTO 0x06A1
129: 0x0678 [0x02] IF !(Work_Zone[9] == 6*) GOTO 0x0692
130: 0x0680 [0x52] END_LOAD_SCHEDULER: End scheduler "s055" with entities [EventEntity, EventEntity], work=844*
131: 0x068F [0x01] GOTO 0x06A1
132: 0x0692 [0x52] END_LOAD_SCHEDULER: End scheduler "s030" with entities [EventEntity, EventEntity], work=844*

SUBROUTINE_06A1:
133: 0x06A1 [0x45] LOAD_SCHEDULED_TASK: Load scheduler "s029" with entities [EventEntity, EventEntity], work=[844*, 0*]
134: 0x06B2 [0x2B] Altennia (ID: 17457392/0x010A60F0) [10761*]:
    → "I see you are humble. That is not a trait that I particularly admire."
135: 0x06B9 [0x23] WAIT_FOR_DIALOG_INTERACTION
136: 0x06BA [0x29] REQ_SET_WAIT(priority=0x08, entity_id=Altennia (ID: 17457392/0x010A60F0), tag_num=0x16)
137: 0x06C1 [0x52] END_LOAD_SCHEDULER: End scheduler "s029" with entities [EventEntity, EventEntity], work=844*
138: 0x06D0 [0x01] GOTO 0x06D3

SUBROUTINE_06D3:
139: 0x06D3 [0x02] IF !(Work_Zone[9] == 3*) GOTO 0x06EF
140: 0x06DB [0x45] LOAD_SCHEDULED_TASK: Load scheduler "s031" with entities [EventEntity, EventEntity], work=[844*, 0*]
141: 0x06EC [0x01] GOTO 0x0754
142: 0x06EF [0x02] IF !(Work_Zone[9] == 5*) GOTO 0x070B
143: 0x06F7 [0x45] LOAD_SCHEDULED_TASK: Load scheduler "s057" with entities [EventEntity, EventEntity], work=[844*, 0*]
144: 0x0708 [0x01] GOTO 0x0754
145: 0x070B [0x02] IF !(Work_Zone[9] == 6*) GOTO 0x0727
146: 0x0713 [0x45] LOAD_SCHEDULED_TASK: Load scheduler "s057" with entities [EventEntity, EventEntity], work=[844*, 0*]
147: 0x0724 [0x01] GOTO 0x0754
148: 0x0727 [0x02] IF !(Work_Zone[9] == 8*) GOTO 0x0743
149: 0x072F [0x45] LOAD_SCHEDULED_TASK: Load scheduler "s031" with entities [EventEntity, EventEntity], work=[844*, 0*]
150: 0x0740 [0x01] GOTO 0x0754
151: 0x0743 [0x45] LOAD_SCHEDULED_TASK: Load scheduler "s053" with entities [EventEntity, EventEntity], work=[844*, 0*]

SUBROUTINE_0754:
152: 0x0754 [0x27] REQ_SET(priority=0x08, entity_id=Altennia (ID: 17457392/0x010A60F0), tag_num=0x28)
153: 0x075B [0x2B] Altennia (ID: 17457392/0x010A60F0) [10762*]:
    → "At any rate, your help is appreciated. That monster was attacking anybody who ventured through the pass."
154: 0x0762 [0x2A] GET_REQ_LEVEL(level=8, entity_id=Altennia (ID: 17457392/0x010A60F0))
155: 0x0768 [0x29] REQ_SET_WAIT(priority=0x08, entity_id=Altennia (ID: 17457392/0x010A60F0), tag_num=0x05)
156: 0x076F [0x23] WAIT_FOR_DIALOG_INTERACTION
157: 0x0770 [0x2B] Altennia (ID: 17457392/0x010A60F0) [10763*]:
    → "That is why we were sent out here, but we found it to be rather fleet of foot."
158: 0x0777 [0x23] WAIT_FOR_DIALOG_INTERACTION
159: 0x0778 [0x02] IF !(Work_Zone[9] == 3*) GOTO 0x0792
160: 0x0780 [0x52] END_LOAD_SCHEDULER: End scheduler "s031" with entities [EventEntity, EventEntity], work=844*
161: 0x078F [0x01] GOTO 0x07EF
162: 0x0792 [0x02] IF !(Work_Zone[9] == 5*) GOTO 0x07AC
163: 0x079A [0x52] END_LOAD_SCHEDULER: End scheduler "s057" with entities [EventEntity, EventEntity], work=844*
164: 0x07A9 [0x01] GOTO 0x07EF
165: 0x07AC [0x02] IF !(Work_Zone[9] == 6*) GOTO 0x07C6
166: 0x07B4 [0x52] END_LOAD_SCHEDULER: End scheduler "s057" with entities [EventEntity, EventEntity], work=844*
167: 0x07C3 [0x01] GOTO 0x07EF
168: 0x07C6 [0x02] IF !(Work_Zone[9] == 8*) GOTO 0x07E0
169: 0x07CE [0x52] END_LOAD_SCHEDULER: End scheduler "s031" with entities [EventEntity, EventEntity], work=844*
170: 0x07DD [0x01] GOTO 0x07EF
171: 0x07E0 [0x52] END_LOAD_SCHEDULER: End scheduler "s053" with entities [EventEntity, EventEntity], work=844*

SUBROUTINE_07EF:
172: 0x07EF [0x2B] Altennia (ID: 17457392/0x010A60F0) [10764*]:
    → "My unit got separated while we were trying to track it."
173: 0x07F6 [0x29] REQ_SET_WAIT(priority=0x08, entity_id=Altennia (ID: 17457392/0x010A60F0), tag_num=0x06)
174: 0x07FD [0x29] REQ_SET_WAIT(priority=0x08, entity_id=Altennia (ID: 17457392/0x010A60F0), tag_num=0x07)
175: 0x0804 [0x23] WAIT_FOR_DIALOG_INTERACTION
176: 0x0805 [0x79] Altennia (ID: 17457392/0x010A60F0) looks at Unnamed NPC (ID: 17457393/0x010A60F1) (Basic look)
177: 0x080F [0x45] LOAD_SCHEDULED_TASK: Load scheduler "s032" with entities [EventEntity, EventEntity], work=[844*, 0*]
178: 0x0820 [0x2B] Altennia (ID: 17457392/0x010A60F0) [10765*]:
    → "Strangely, that particular species is usually found in the Rhazowa continent to the north. We will need to investigate what it was doing down here."
179: 0x0827 [0x29] REQ_SET_WAIT(priority=0x08, entity_id=Altennia (ID: 17457392/0x010A60F0), tag_num=0x08)
180: 0x082E [0x4A] Altennia (ID: 17457392/0x010A60F0) looks at Unnamed NPC (ID: 17457393/0x010A60F1)
181: 0x0837 [0x6F] WAIT_FRAME_DELAY: Yield until WaitTime reaches zero
182: 0x0838 [0x76] CHECK_ENTITY_RENDER_FLAGS: Wait until Altennia (ID: 17457392/0x010A60F0) Render.Flags0 and Render.Flags3 conditions are met
183: 0x083D [0x23] WAIT_FOR_DIALOG_INTERACTION
184: 0x083E [0x52] END_LOAD_SCHEDULER: End scheduler "s032" with entities [EventEntity, EventEntity], work=844*
185: 0x084D [0x02] IF !(Work_Zone[9] == 5*) GOTO 0x0869
186: 0x0855 [0x45] LOAD_SCHEDULED_TASK: Load scheduler "s058" with entities [EventEntity, EventEntity], work=[844*, 0*]
187: 0x0866 [0x01] GOTO 0x0896
188: 0x0869 [0x02] IF !(Work_Zone[9] == 6*) GOTO 0x0885
189: 0x0871 [0x45] LOAD_SCHEDULED_TASK: Load scheduler "s058" with entities [EventEntity, EventEntity], work=[844*, 0*]
190: 0x0882 [0x01] GOTO 0x0896
191: 0x0885 [0x45] LOAD_SCHEDULED_TASK: Load scheduler "s033" with entities [EventEntity, EventEntity], work=[844*, 0*]

SUBROUTINE_0896:
192: 0x0896 [0x4A] Altennia (ID: 17457392/0x010A60F0) looks at LocalPlayer
193: 0x089F [0x6F] WAIT_FRAME_DELAY: Yield until WaitTime reaches zero
194: 0x08A0 [0x76] CHECK_ENTITY_RENDER_FLAGS: Wait until Altennia (ID: 17457392/0x010A60F0) Render.Flags0 and Render.Flags3 conditions are met
195: 0x08A5 [0x2B] Altennia (ID: 17457392/0x010A60F0) [10766*]:
    → "Ah, forgive me. I must give you a reward for your trouble."
196: 0x08AC [0x23] WAIT_FOR_DIALOG_INTERACTION
197: 0x08AD [0x29] REQ_SET_WAIT(priority=0x08, entity_id=Altennia (ID: 17457392/0x010A60F0), tag_num=0x17)
198: 0x08B4 [0x2B] Altennia (ID: 17457392/0x010A60F0) [10767*]:
    → "You have my gratitude. Although, I do not have anything to give you at the moment, so please visit me at the castle in San d'Oria sometime."
199: 0x08BB [0x23] WAIT_FOR_DIALOG_INTERACTION
200: 0x08BC [0x02] IF !(Work_Zone[9] == 5*) GOTO 0x08D6
201: 0x08C4 [0x52] END_LOAD_SCHEDULER: End scheduler "s058" with entities [EventEntity, EventEntity], work=844*
202: 0x08D3 [0x01] GOTO 0x08FF
203: 0x08D6 [0x02] IF !(Work_Zone[9] == 6*) GOTO 0x08F0
204: 0x08DE [0x52] END_LOAD_SCHEDULER: End scheduler "s058" with entities [EventEntity, EventEntity], work=844*
205: 0x08ED [0x01] GOTO 0x08FF
206: 0x08F0 [0x52] END_LOAD_SCHEDULER: End scheduler "s033" with entities [EventEntity, EventEntity], work=844*

SUBROUTINE_08FF:
207: 0x08FF [0x02] IF !(Work_Zone[9] == 5*) GOTO 0x091B
208: 0x0907 [0x45] LOAD_SCHEDULED_TASK: Load scheduler "s059" with entities [EventEntity, EventEntity], work=[844*, 0*]
209: 0x0918 [0x01] GOTO 0x0948
210: 0x091B [0x02] IF !(Work_Zone[9] == 6*) GOTO 0x0937
211: 0x0923 [0x45] LOAD_SCHEDULED_TASK: Load scheduler "s059" with entities [EventEntity, EventEntity], work=[844*, 0*]
212: 0x0934 [0x01] GOTO 0x0948
213: 0x0937 [0x45] LOAD_SCHEDULED_TASK: Load scheduler "s038" with entities [EventEntity, EventEntity], work=[844*, 0*]

SUBROUTINE_0948:
214: 0x0948 [0x2B] Altennia (ID: 17457392/0x010A60F0) [10768*]:
    → "Just ask for Altennia, knight of San d'Oria, and they will take you to me."
215: 0x094F [0x29] REQ_SET_WAIT(priority=0x08, entity_id=Altennia (ID: 17457392/0x010A60F0), tag_num=0x18)
216: 0x0956 [0x29] REQ_SET_WAIT(priority=0x08, entity_id=Altennia (ID: 17457392/0x010A60F0), tag_num=0x19)
217: 0x095D [0x23] WAIT_FOR_DIALOG_INTERACTION
218: 0x095E [0x29] REQ_SET_WAIT(priority=0x08, entity_id=LocalPlayer, tag_num=0x0C)
219: 0x0965 [0x29] REQ_SET_WAIT(priority=0x08, entity_id=Altennia (ID: 17457392/0x010A60F0), tag_num=0x1A)
220: 0x096C [0x29] REQ_SET_WAIT(priority=0x08, entity_id=Altennia (ID: 17457392/0x010A60F0), tag_num=0x09)
221: 0x0973 [0x1C] WAIT(30* ticks)
222: 0x0976 [0x2B] Altennia (ID: 17457392/0x010A60F0) [10769*]:
    → "What's that? You need to speak to me about something?"
223: 0x097D [0x23] WAIT_FOR_DIALOG_INTERACTION
224: 0x097E [0x29] REQ_SET_WAIT(priority=0x08, entity_id=LocalPlayer, tag_num=0x0B)
225: 0x0985 [0x1C] WAIT(30* ticks)
226: 0x0988 [0x5D] SET_MUSIC_VOLUME(volume=0*, fade_time=300*)
227: 0x098D [0x1A] CALL_SUBROUTINE(address=0x0064)
228: 0x0990 [0x1C] WAIT(90* ticks)
229: 0x0993 [0x02] IF !(Work_Zone[9] == 5*) GOTO 0x09AD
230: 0x099B [0x52] END_LOAD_SCHEDULER: End scheduler "s059" with entities [EventEntity, EventEntity], work=844*
231: 0x09AA [0x01] GOTO 0x09D6
232: 0x09AD [0x02] IF !(Work_Zone[9] == 6*) GOTO 0x09C7
233: 0x09B5 [0x52] END_LOAD_SCHEDULER: End scheduler "s059" with entities [EventEntity, EventEntity], work=844*
234: 0x09C4 [0x01] GOTO 0x09D6
235: 0x09C7 [0x52] END_LOAD_SCHEDULER: End scheduler "s038" with entities [EventEntity, EventEntity], work=844*

SUBROUTINE_09D6:
236: 0x09D6 [0x29] REQ_SET_WAIT(priority=0x08, entity_id=Altennia (ID: 17457392/0x010A60F0), tag_num=0x0A)
237: 0x09DD [0x79] LocalPlayer looks at Altennia (ID: 17457392/0x010A60F0) (Basic look)
238: 0x09E7 [0x7B] Altennia (ID: 17457392/0x010A60F0) stops talking
239: 0x09EC [0x29] REQ_SET_WAIT(priority=0x08, entity_id=Altennia (ID: 17457392/0x010A60F0), tag_num=0x1D)
240: 0x09F3 [0x29] REQ_SET_WAIT(priority=0x08, entity_id=Altennia (ID: 17457392/0x010A60F0), tag_num=0x1E)
241: 0x09FA [0x45] LOAD_SCHEDULED_TASK: Load scheduler "s035" with entities [EventEntity, EventEntity], work=[844*, 0*]
242: 0x0A0B [0x1A] CALL_SUBROUTINE(address=0x0043)
243: 0x0A0E [0x1C] WAIT(120* ticks)
244: 0x0A11 [0x52] END_LOAD_SCHEDULER: End scheduler "s035" with entities [EventEntity, EventEntity], work=844*
245: 0x0A20 [0x45] LOAD_SCHEDULED_TASK: Load scheduler "s042" with entities [EventEntity, EventEntity], work=[844*, 0*]
246: 0x0A31 [0x29] REQ_SET_WAIT(priority=0x08, entity_id=Altennia (ID: 17457392/0x010A60F0), tag_num=0x1F)
247: 0x0A38 [0x1C] WAIT(30* ticks)
248: 0x0A3B [0x2B] Altennia (ID: 17457392/0x010A60F0) [10770*]:
    → "A ball!? Is he serious!?"
249: 0x0A42 [0x23] WAIT_FOR_DIALOG_INTERACTION
250: 0x0A43 [0x6E] LocalPlayer uses emote 21*
251: 0x0A4A [0x99] Wait for LocalPlayer animation to complete
252: 0x0A4F [0x1C] WAIT(10* ticks)
253: 0x0A52 [0x52] END_LOAD_SCHEDULER: End scheduler "s042" with entities [EventEntity, EventEntity], work=844*
254: 0x0A61 [0x02] IF !(Work_Zone[9] == 5*) GOTO 0x0A7D
255: 0x0A69 [0x45] LOAD_SCHEDULED_TASK: Load scheduler "s060" with entities [EventEntity, EventEntity], work=[844*, 0*]
256: 0x0A7A [0x01] GOTO 0x0AAA
257: 0x0A7D [0x02] IF !(Work_Zone[9] == 6*) GOTO 0x0A99
258: 0x0A85 [0x45] LOAD_SCHEDULED_TASK: Load scheduler "s060" with entities [EventEntity, EventEntity], work=[844*, 0*]
259: 0x0A96 [0x01] GOTO 0x0AAA
260: 0x0A99 [0x45] LOAD_SCHEDULED_TASK: Load scheduler "s036" with entities [EventEntity, EventEntity], work=[844*, 0*]

SUBROUTINE_0AAA:
261: 0x0AAA [0x5C] MUSIC_CONTROL: Set Idle (Day) music to song 25*
262: 0x0AAE [0x5C] MUSIC_CONTROL: Set Idle (Night) music to song 25*
263: 0x0AB2 [0x9A] WAIT_MUSIC_SERVER()
264: 0x0AB3 [0x5D] SET_MUSIC_VOLUME(volume=127*, fade_time=1*)
265: 0x0AB8 [0x1C] WAIT(60* ticks)
266: 0x0ABB [0x79] Altennia (ID: 17457392/0x010A60F0) looks at LocalPlayer (Basic look)
267: 0x0AC5 [0x2B] Altennia (ID: 17457392/0x010A60F0) [10771*]:
    → "Ah, forgive me. It is just that my brother still thinks of me as some innocent little girl."
268: 0x0ACC [0x23] WAIT_FOR_DIALOG_INTERACTION
269: 0x0ACD [0x29] REQ_SET_WAIT(priority=0x08, entity_id=Altennia (ID: 17457392/0x010A60F0), tag_num=0x20)
270: 0x0AD4 [0x02] IF !(Work_Zone[9] == 5*) GOTO 0x0AEE
271: 0x0ADC [0x52] END_LOAD_SCHEDULER: End scheduler "s060" with entities [EventEntity, EventEntity], work=844*
272: 0x0AEB [0x01] GOTO 0x0B17
273: 0x0AEE [0x02] IF !(Work_Zone[9] == 6*) GOTO 0x0B08
274: 0x0AF6 [0x52] END_LOAD_SCHEDULER: End scheduler "s060" with entities [EventEntity, EventEntity], work=844*
275: 0x0B05 [0x01] GOTO 0x0B17
276: 0x0B08 [0x52] END_LOAD_SCHEDULER: End scheduler "s036" with entities [EventEntity, EventEntity], work=844*

SUBROUTINE_0B17:
277: 0x0B17 [0x45] LOAD_SCHEDULED_TASK: Load scheduler "s037" with entities [EventEntity, EventEntity], work=[844*, 0*]
278: 0x0B28 [0x29] REQ_SET_WAIT(priority=0x08, entity_id=Altennia (ID: 17457392/0x010A60F0), tag_num=0x21)
279: 0x0B2F [0x2B] Altennia (ID: 17457392/0x010A60F0) [10772*]:
    → "When in fact, I carry the responsibility of leading an elite military unit on an important mission."
280: 0x0B36 [0x23] WAIT_FOR_DIALOG_INTERACTION
281: 0x0B37 [0x2B] Altennia (ID: 17457392/0x010A60F0) [10773*]:
    → "Hunting down this monster was not as easy as my brother seems to think it was."
282: 0x0B3E [0x23] WAIT_FOR_DIALOG_INTERACTION
283: 0x0B3F [0x29] REQ_SET_WAIT(priority=0x08, entity_id=Altennia (ID: 17457392/0x010A60F0), tag_num=0x22)
284: 0x0B46 [0x52] END_LOAD_SCHEDULER: End scheduler "s037" with entities [EventEntity, EventEntity], work=844*
285: 0x0B55 [0x02] IF !(Work_Zone[9] == 5*) GOTO 0x0B71
286: 0x0B5D [0x45] LOAD_SCHEDULED_TASK: Load scheduler "s059" with entities [EventEntity, EventEntity], work=[844*, 0*]
287: 0x0B6E [0x01] GOTO 0x0B9E
288: 0x0B71 [0x02] IF !(Work_Zone[9] == 6*) GOTO 0x0B8D
289: 0x0B79 [0x45] LOAD_SCHEDULED_TASK: Load scheduler "s059" with entities [EventEntity, EventEntity], work=[844*, 0*]
290: 0x0B8A [0x01] GOTO 0x0B9E
291: 0x0B8D [0x45] LOAD_SCHEDULED_TASK: Load scheduler "s038" with entities [EventEntity, EventEntity], work=[844*, 0*]

SUBROUTINE_0B9E:
292: 0x0B9E [0x29] REQ_SET_WAIT(priority=0x08, entity_id=Altennia (ID: 17457392/0x010A60F0), tag_num=0x23)
293: 0x0BA5 [0x2B] Altennia (ID: 17457392/0x010A60F0) [10774*]:
    → "Besides, this expedition is just a pretense. We are supposed to head north in order to investigate some mysterious "egg" up there."
294: 0x0BAC [0x23] WAIT_FOR_DIALOG_INTERACTION
295: 0x0BAD [0x29] REQ_SET_WAIT(priority=0x08, entity_id=Altennia (ID: 17457392/0x010A60F0), tag_num=0x24)
296: 0x0BB4 [0x81] SET_ENTITY_BLINKING(blink_flag=0x01, entity=Altennia (ID: 17457392/0x010A60F0))
297: 0x0BBA [0x29] REQ_SET_WAIT(priority=0x08, entity_id=Altennia (ID: 17457392/0x010A60F0), tag_num=0x05)
298: 0x0BC1 [0x2B] Altennia (ID: 17457392/0x010A60F0) [10775*]:
    → "Ah, please forget what I just said. I simply meant to say that I cannot abandon my mission. You understand, right?"
299: 0x0BC8 [0x23] WAIT_FOR_DIALOG_INTERACTION
300: 0x0BC9 [0x24] CREATE_DIALOG(message_id=10776*, default_option=0*, option_flags=0*)
    → "Do you agree to remain silent? [Yes, of course./What egg?/Sorry, can't do it.]"
301: 0x0BD0 [0x25] WAIT_DIALOG_SELECT()
302: 0x0BD1 [0x02] IF !(Work_Zone[0] == 0*) GOTO 0x0CE7
303: 0x0BD9 [0x6E] LocalPlayer uses emote 7*
304: 0x0BE0 [0x99] Wait for LocalPlayer animation to complete
305: 0x0BE5 [0x1C] WAIT(60* ticks)
306: 0x0BE8 [0x29] REQ_SET_WAIT(priority=0x08, entity_id=Altennia (ID: 17457392/0x010A60F0), tag_num=0x06)
307: 0x0BEF [0x02] IF !(Work_Zone[9] == 5*) GOTO 0x0C09
308: 0x0BF7 [0x52] END_LOAD_SCHEDULER: End scheduler "s059" with entities [EventEntity, EventEntity], work=844*
309: 0x0C06 [0x01] GOTO 0x0C32
310: 0x0C09 [0x02] IF !(Work_Zone[9] == 6*) GOTO 0x0C23
311: 0x0C11 [0x52] END_LOAD_SCHEDULER: End scheduler "s059" with entities [EventEntity, EventEntity], work=844*
312: 0x0C20 [0x01] GOTO 0x0C32
313: 0x0C23 [0x52] END_LOAD_SCHEDULER: End scheduler "s038" with entities [EventEntity, EventEntity], work=844*

SUBROUTINE_0C32:
314: 0x0C32 [0x02] IF !(Work_Zone[9] == 5*) GOTO 0x0C4E
315: 0x0C3A [0x45] LOAD_SCHEDULED_TASK: Load scheduler "s058" with entities [EventEntity, EventEntity], work=[844*, 0*]
316: 0x0C4B [0x01] GOTO 0x0C7B
317: 0x0C4E [0x02] IF !(Work_Zone[9] == 6*) GOTO 0x0C6A
318: 0x0C56 [0x45] LOAD_SCHEDULED_TASK: Load scheduler "s058" with entities [EventEntity, EventEntity], work=[844*, 0*]
319: 0x0C67 [0x01] GOTO 0x0C7B
320: 0x0C6A [0x45] LOAD_SCHEDULED_TASK: Load scheduler "s033" with entities [EventEntity, EventEntity], work=[844*, 0*]

SUBROUTINE_0C7B:
321: 0x0C7B [0x29] REQ_SET_WAIT(priority=0x08, entity_id=Altennia (ID: 17457392/0x010A60F0), tag_num=0x07)
322: 0x0C82 [0x2B] Altennia (ID: 17457392/0x010A60F0) [10777*]:
    → "Thank you for your understanding!"
323: 0x0C89 [0x23] WAIT_FOR_DIALOG_INTERACTION
324: 0x0C8A [0x29] REQ_SET_WAIT(priority=0x08, entity_id=Altennia (ID: 17457392/0x010A60F0), tag_num=0x08)
325: 0x0C91 [0x81] SET_ENTITY_BLINKING(blink_flag=0x01, entity=Altennia (ID: 17457392/0x010A60F0))
326: 0x0C97 [0x29] REQ_SET_WAIT(priority=0x08, entity_id=Altennia (ID: 17457392/0x010A60F0), tag_num=0x13)
327: 0x0C9E [0x1C] WAIT(5* ticks)
328: 0x0CA1 [0x02] IF !(Work_Zone[9] == 5*) GOTO 0x0CBB
329: 0x0CA9 [0x52] END_LOAD_SCHEDULER: End scheduler "s058" with entities [EventEntity, EventEntity], work=844*
330: 0x0CB8 [0x01] GOTO 0x0CE4
331: 0x0CBB [0x02] IF !(Work_Zone[9] == 6*) GOTO 0x0CD5
332: 0x0CC3 [0x52] END_LOAD_SCHEDULER: End scheduler "s058" with entities [EventEntity, EventEntity], work=844*
333: 0x0CD2 [0x01] GOTO 0x0CE4
334: 0x0CD5 [0x52] END_LOAD_SCHEDULER: End scheduler "s033" with entities [EventEntity, EventEntity], work=844*

SUBROUTINE_0CE4:
335: 0x0CE4 [0x01] GOTO 0x0EEB
336: 0x0CE7 [0x02] IF !(Work_Zone[0] == 1*) GOTO 0x0D8C
337: 0x0CEF [0x29] REQ_SET_WAIT(priority=0x08, entity_id=LocalPlayer, tag_num=0x0C)
338: 0x0CF6 [0x1C] WAIT(60* ticks)
339: 0x0CF9 [0x29] REQ_SET_WAIT(priority=0x08, entity_id=Altennia (ID: 17457392/0x010A60F0), tag_num=0x06)
340: 0x0D00 [0x02] IF !(Work_Zone[9] == 5*) GOTO 0x0D1A
341: 0x0D08 [0x52] END_LOAD_SCHEDULER: End scheduler "s059" with entities [EventEntity, EventEntity], work=844*
342: 0x0D17 [0x01] GOTO 0x0D43
343: 0x0D1A [0x02] IF !(Work_Zone[9] == 6*) GOTO 0x0D34
344: 0x0D22 [0x52] END_LOAD_SCHEDULER: End scheduler "s059" with entities [EventEntity, EventEntity], work=844*
345: 0x0D31 [0x01] GOTO 0x0D43
346: 0x0D34 [0x52] END_LOAD_SCHEDULER: End scheduler "s038" with entities [EventEntity, EventEntity], work=844*

SUBROUTINE_0D43:
347: 0x0D43 [0x45] LOAD_SCHEDULED_TASK: Load scheduler "s043" with entities [EventEntity, EventEntity], work=[844*, 0*]
348: 0x0D54 [0x29] REQ_SET_WAIT(priority=0x08, entity_id=Altennia (ID: 17457392/0x010A60F0), tag_num=0x07)
349: 0x0D5B [0x2B] Altennia (ID: 17457392/0x010A60F0) [10778*]:
    → "I could have sworn I just said to forget about that. You are just like my brother."
350: 0x0D62 [0x23] WAIT_FOR_DIALOG_INTERACTION
351: 0x0D63 [0x29] REQ_SET_WAIT(priority=0x08, entity_id=Altennia (ID: 17457392/0x010A60F0), tag_num=0x08)
352: 0x0D6A [0x81] SET_ENTITY_BLINKING(blink_flag=0x01, entity=Altennia (ID: 17457392/0x010A60F0))
353: 0x0D70 [0x29] REQ_SET_WAIT(priority=0x08, entity_id=Altennia (ID: 17457392/0x010A60F0), tag_num=0x13)
354: 0x0D77 [0x1C] WAIT(5* ticks)
355: 0x0D7A [0x52] END_LOAD_SCHEDULER: End scheduler "s043" with entities [EventEntity, EventEntity], work=844*
356: 0x0D89 [0x01] GOTO 0x0EEB
357: 0x0D8C [0x02] IF !(Work_Zone[0] == 2*) GOTO 0x0EEB
358: 0x0D94 [0x6E] LocalPlayer uses emote 6*
359: 0x0D9B [0x99] Wait for LocalPlayer animation to complete
360: 0x0DA0 [0x1C] WAIT(60* ticks)
361: 0x0DA3 [0x29] REQ_SET_WAIT(priority=0x08, entity_id=Altennia (ID: 17457392/0x010A60F0), tag_num=0x06)
362: 0x0DAA [0x29] REQ_SET_WAIT(priority=0x08, entity_id=Altennia (ID: 17457392/0x010A60F0), tag_num=0x07)
363: 0x0DB1 [0x29] REQ_SET_WAIT(priority=0x08, entity_id=Altennia (ID: 17457392/0x010A60F0), tag_num=0x08)
364: 0x0DB8 [0x02] IF !(Work_Zone[9] == 5*) GOTO 0x0DD2
365: 0x0DC0 [0x52] END_LOAD_SCHEDULER: End scheduler "s059" with entities [EventEntity, EventEntity], work=844*
366: 0x0DCF [0x01] GOTO 0x0DFB
367: 0x0DD2 [0x02] IF !(Work_Zone[9] == 6*) GOTO 0x0DEC
368: 0x0DDA [0x52] END_LOAD_SCHEDULER: End scheduler "s059" with entities [EventEntity, EventEntity], work=844*
369: 0x0DE9 [0x01] GOTO 0x0DFB
370: 0x0DEC [0x52] END_LOAD_SCHEDULER: End scheduler "s038" with entities [EventEntity, EventEntity], work=844*

SUBROUTINE_0DFB:
371: 0x0DFB [0x45] LOAD_SCHEDULED_TASK: Load scheduler "s044" with entities [EventEntity, EventEntity], work=[844*, 0*]
372: 0x0E0C [0x29] REQ_SET_WAIT(priority=0x08, entity_id=Altennia (ID: 17457392/0x010A60F0), tag_num=0x1D)
373: 0x0E13 [0x2B] Altennia (ID: 17457392/0x010A60F0) [10779*]:
    → "Hey! You better be joking!"
374: 0x0E1A [0x23] WAIT_FOR_DIALOG_INTERACTION
375: 0x0E1B [0x29] REQ_SET_WAIT(priority=0x08, entity_id=Altennia (ID: 17457392/0x010A60F0), tag_num=0x1E)
376: 0x0E22 [0x52] END_LOAD_SCHEDULER: End scheduler "s044" with entities [EventEntity, EventEntity], work=844*
377: 0x0E31 [0x02] IF !(Work_Zone[9] == 5*) GOTO 0x0E4D
378: 0x0E39 [0x45] LOAD_SCHEDULED_TASK: Load scheduler "s061" with entities [EventEntity, EventEntity], work=[844*, 0*]
379: 0x0E4A [0x01] GOTO 0x0E7A
380: 0x0E4D [0x02] IF !(Work_Zone[9] == 6*) GOTO 0x0E69
381: 0x0E55 [0x45] LOAD_SCHEDULED_TASK: Load scheduler "s061" with entities [EventEntity, EventEntity], work=[844*, 0*]
382: 0x0E66 [0x01] GOTO 0x0E7A
383: 0x0E69 [0x45] LOAD_SCHEDULED_TASK: Load scheduler "s052" with entities [EventEntity, EventEntity], work=[844*, 0*]

SUBROUTINE_0E7A:
384: 0x0E7A [0x29] REQ_SET_WAIT(priority=0x08, entity_id=Altennia (ID: 17457392/0x010A60F0), tag_num=0x1F)
385: 0x0E81 [0x2B] Altennia (ID: 17457392/0x010A60F0) [10780*]:
    → "There is a time for such jests, and this is not it."
386: 0x0E88 [0x23] WAIT_FOR_DIALOG_INTERACTION
387: 0x0E89 [0x29] REQ_SET_WAIT(priority=0x08, entity_id=Altennia (ID: 17457392/0x010A60F0), tag_num=0x20)
388: 0x0E90 [0x2B] Altennia (ID: 17457392/0x010A60F0) [10781*]:
    → "Unless you would like a good, swift kick, that is."
389: 0x0E97 [0x23] WAIT_FOR_DIALOG_INTERACTION
390: 0x0E98 [0x81] SET_ENTITY_BLINKING(blink_flag=0x01, entity=Altennia (ID: 17457392/0x010A60F0))
391: 0x0E9E [0x29] REQ_SET_WAIT(priority=0x08, entity_id=Altennia (ID: 17457392/0x010A60F0), tag_num=0x13)
392: 0x0EA5 [0x02] IF !(Work_Zone[9] == 5*) GOTO 0x0EBF
393: 0x0EAD [0x52] END_LOAD_SCHEDULER: End scheduler "s061" with entities [EventEntity, EventEntity], work=844*
394: 0x0EBC [0x01] GOTO 0x0EE8
395: 0x0EBF [0x02] IF !(Work_Zone[9] == 6*) GOTO 0x0ED9
396: 0x0EC7 [0x52] END_LOAD_SCHEDULER: End scheduler "s061" with entities [EventEntity, EventEntity], work=844*
397: 0x0ED6 [0x01] GOTO 0x0EE8
398: 0x0ED9 [0x52] END_LOAD_SCHEDULER: End scheduler "s052" with entities [EventEntity, EventEntity], work=844*

SUBROUTINE_0EE8:
399: 0x0EE8 [0x01] GOTO 0x0EEB

SUBROUTINE_0EEB:
400: 0x0EEB [0x45] LOAD_SCHEDULED_TASK: Load scheduler "s041" with entities [EventEntity, EventEntity], work=[844*, 0*]
401: 0x0EFC [0x7B] Altennia (ID: 17457392/0x010A60F0) stops talking
402: 0x0F01 [0x2B] Altennia (ID: 17457392/0x010A60F0) [10782*]:
    → "Actually, I imagine an adventurer like yourself may have heard news of this egg somewhere."
403: 0x0F08 [0x23] WAIT_FOR_DIALOG_INTERACTION
404: 0x0F09 [0x52] END_LOAD_SCHEDULER: End scheduler "s041" with entities [EventEntity, EventEntity], work=844*
405: 0x0F18 [0x02] IF !(Work_Zone[9] == 5*) GOTO 0x0F34
406: 0x0F20 [0x45] LOAD_SCHEDULED_TASK: Load scheduler "s062" with entities [EventEntity, EventEntity], work=[844*, 0*]
407: 0x0F31 [0x01] GOTO 0x0F61
408: 0x0F34 [0x02] IF !(Work_Zone[9] == 6*) GOTO 0x0F50
409: 0x0F3C [0x45] LOAD_SCHEDULED_TASK: Load scheduler "s062" with entities [EventEntity, EventEntity], work=[844*, 0*]
410: 0x0F4D [0x01] GOTO 0x0F61
411: 0x0F50 [0x45] LOAD_SCHEDULED_TASK: Load scheduler "s034" with entities [EventEntity, EventEntity], work=[844*, 0*]

SUBROUTINE_0F61:
412: 0x0F61 [0x79] Altennia (ID: 17457392/0x010A60F0) looks at LocalPlayer (Basic look)
413: 0x0F6B [0x2B] Altennia (ID: 17457392/0x010A60F0) [10783*]:
    → "If you ever hear word of the egg, please tell either Lord Rahal or Lord Excenmille of the Royal Knights."
414: 0x0F72 [0x29] REQ_SET_WAIT(priority=0x08, entity_id=Altennia (ID: 17457392/0x010A60F0), tag_num=0x14)
415: 0x0F79 [0x29] REQ_SET_WAIT(priority=0x08, entity_id=Altennia (ID: 17457392/0x010A60F0), tag_num=0x15)
416: 0x0F80 [0x23] WAIT_FOR_DIALOG_INTERACTION
417: 0x0F81 [0x2B] Altennia (ID: 17457392/0x010A60F0) [10784*]:
    → "Naturally, you can tell Lady Curilla of the Temple Knights too."
418: 0x0F88 [0x29] REQ_SET_WAIT(priority=0x08, entity_id=Altennia (ID: 17457392/0x010A60F0), tag_num=0x16)
419: 0x0F8F [0x29] REQ_SET_WAIT(priority=0x08, entity_id=Altennia (ID: 17457392/0x010A60F0), tag_num=0x01)
420: 0x0F96 [0x23] WAIT_FOR_DIALOG_INTERACTION
421: 0x0F97 [0x02] IF !(Work_Zone[9] == 5*) GOTO 0x0FB1
422: 0x0F9F [0x52] END_LOAD_SCHEDULER: End scheduler "s062" with entities [EventEntity, EventEntity], work=844*
423: 0x0FAE [0x01] GOTO 0x0FDA
424: 0x0FB1 [0x02] IF !(Work_Zone[9] == 6*) GOTO 0x0FCB
425: 0x0FB9 [0x52] END_LOAD_SCHEDULER: End scheduler "s062" with entities [EventEntity, EventEntity], work=844*
426: 0x0FC8 [0x01] GOTO 0x0FDA
427: 0x0FCB [0x52] END_LOAD_SCHEDULER: End scheduler "s034" with entities [EventEntity, EventEntity], work=844*

SUBROUTINE_0FDA:
428: 0x0FDA [0x02] IF !(Work_Zone[9] == 5*) GOTO 0x0FF6
429: 0x0FE2 [0x45] LOAD_SCHEDULED_TASK: Load scheduler "s066" with entities [EventEntity, EventEntity], work=[844*, 0*]
430: 0x0FF3 [0x01] GOTO 0x1023
431: 0x0FF6 [0x02] IF !(Work_Zone[9] == 6*) GOTO 0x1012
432: 0x0FFE [0x45] LOAD_SCHEDULED_TASK: Load scheduler "s066" with entities [EventEntity, EventEntity], work=[844*, 0*]
433: 0x100F [0x01] GOTO 0x1023
434: 0x1012 [0x45] LOAD_SCHEDULED_TASK: Load scheduler "s045" with entities [EventEntity, EventEntity], work=[844*, 0*]

SUBROUTINE_1023:
435: 0x1023 [0x2B] Altennia (ID: 17457392/0x010A60F0) [10785*]:
    → "Actually, maybe you should tell her something else instead."
436: 0x102A [0x29] REQ_SET_WAIT(priority=0x08, entity_id=Altennia (ID: 17457392/0x010A60F0), tag_num=0x02)
437: 0x1031 [0x29] REQ_SET_WAIT(priority=0x08, entity_id=Altennia (ID: 17457392/0x010A60F0), tag_num=0x03)
438: 0x1038 [0x23] WAIT_FOR_DIALOG_INTERACTION
439: 0x1039 [0x2B] Altennia (ID: 17457392/0x010A60F0) [10786*]:
    → "About her dance partner that my brother mentioned in his letter..."
440: 0x1040 [0x23] WAIT_FOR_DIALOG_INTERACTION
441: 0x1041 [0x29] REQ_SET_WAIT(priority=0x08, entity_id=Altennia (ID: 17457392/0x010A60F0), tag_num=0x04)
442: 0x1048 [0x02] IF !(Work_Zone[9] == 5*) GOTO 0x1062
443: 0x1050 [0x52] END_LOAD_SCHEDULER: End scheduler "s066" with entities [EventEntity, EventEntity], work=844*
444: 0x105F [0x01] GOTO 0x108B
445: 0x1062 [0x02] IF !(Work_Zone[9] == 6*) GOTO 0x107C
446: 0x106A [0x52] END_LOAD_SCHEDULER: End scheduler "s066" with entities [EventEntity, EventEntity], work=844*
447: 0x1079 [0x01] GOTO 0x108B
448: 0x107C [0x52] END_LOAD_SCHEDULER: End scheduler "s045" with entities [EventEntity, EventEntity], work=844*

SUBROUTINE_108B:
449: 0x108B [0x02] IF !(Work_Zone[9] == 5*) GOTO 0x10A7
450: 0x1093 [0x45] LOAD_SCHEDULED_TASK: Load scheduler "s067" with entities [EventEntity, EventEntity], work=[844*, 0*]
451: 0x10A4 [0x01] GOTO 0x10D4
452: 0x10A7 [0x02] IF !(Work_Zone[9] == 6*) GOTO 0x10C3
453: 0x10AF [0x45] LOAD_SCHEDULED_TASK: Load scheduler "s067" with entities [EventEntity, EventEntity], work=[844*, 0*]
454: 0x10C0 [0x01] GOTO 0x10D4
455: 0x10C3 [0x45] LOAD_SCHEDULED_TASK: Load scheduler "s046" with entities [EventEntity, EventEntity], work=[844*, 0*]

SUBROUTINE_10D4:
456: 0x10D4 [0x29] REQ_SET_WAIT(priority=0x08, entity_id=Altennia (ID: 17457392/0x010A60F0), tag_num=0x09)
457: 0x10DB [0x2B] Altennia (ID: 17457392/0x010A60F0) [10787*]:
    → "Lord Gaetan can be a rather incorrigible man at times."
458: 0x10E2 [0x23] WAIT_FOR_DIALOG_INTERACTION
459: 0x10E3 [0x29] REQ_SET_WAIT(priority=0x08, entity_id=Altennia (ID: 17457392/0x010A60F0), tag_num=0x0A)
460: 0x10EA [0x2B] Altennia (ID: 17457392/0x010A60F0) [10788*]:
    → "He is quite infamous among us knights, but it may be difficult for her to refuse him."
461: 0x10F1 [0x23] WAIT_FOR_DIALOG_INTERACTION
462: 0x10F2 [0x02] IF !(Work_Zone[9] == 5*) GOTO 0x110C
463: 0x10FA [0x52] END_LOAD_SCHEDULER: End scheduler "s067" with entities [EventEntity, EventEntity], work=844*
464: 0x1109 [0x01] GOTO 0x1135
465: 0x110C [0x02] IF !(Work_Zone[9] == 6*) GOTO 0x1126
466: 0x1114 [0x52] END_LOAD_SCHEDULER: End scheduler "s067" with entities [EventEntity, EventEntity], work=844*
467: 0x1123 [0x01] GOTO 0x1135
468: 0x1126 [0x52] END_LOAD_SCHEDULER: End scheduler "s046" with entities [EventEntity, EventEntity], work=844*

SUBROUTINE_1135:
469: 0x1135 [0x02] IF !(Work_Zone[9] == 3*) GOTO 0x1151
470: 0x113D [0x45] LOAD_SCHEDULED_TASK: Load scheduler "s047" with entities [EventEntity, EventEntity], work=[844*, 0*]
471: 0x114E [0x01] GOTO 0x11B6
472: 0x1151 [0x02] IF !(Work_Zone[9] == 5*) GOTO 0x116D
473: 0x1159 [0x45] LOAD_SCHEDULED_TASK: Load scheduler "s063" with entities [EventEntity, EventEntity], work=[844*, 0*]
474: 0x116A [0x01] GOTO 0x11B6
475: 0x116D [0x02] IF !(Work_Zone[9] == 6*) GOTO 0x1189
476: 0x1175 [0x45] LOAD_SCHEDULED_TASK: Load scheduler "s063" with entities [EventEntity, EventEntity], work=[844*, 0*]
477: 0x1186 [0x01] GOTO 0x11B6
478: 0x1189 [0x02] IF !(Work_Zone[9] == 8*) GOTO 0x11A5
479: 0x1191 [0x45] LOAD_SCHEDULED_TASK: Load scheduler "s047" with entities [EventEntity, EventEntity], work=[844*, 0*]
480: 0x11A2 [0x01] GOTO 0x11B6
481: 0x11A5 [0x45] LOAD_SCHEDULED_TASK: Load scheduler "s054" with entities [EventEntity, EventEntity], work=[844*, 0*]

SUBROUTINE_11B6:
482: 0x11B6 [0x29] REQ_SET_WAIT(priority=0x08, entity_id=Altennia (ID: 17457392/0x010A60F0), tag_num=0x0B)
483: 0x11BD [0x2B] Altennia (ID: 17457392/0x010A60F0) [10789*]:
    → "You see, Lord Gaetan outranks Lady Curilla, and his house wields a great deal of influence."
484: 0x11C4 [0x23] WAIT_FOR_DIALOG_INTERACTION
485: 0x11C5 [0x29] REQ_SET_WAIT(priority=0x08, entity_id=Altennia (ID: 17457392/0x010A60F0), tag_num=0x0C)
486: 0x11CC [0x7B] Altennia (ID: 17457392/0x010A60F0) stops talking
487: 0x11D1 [0x29] REQ_SET_WAIT(priority=0x08, entity_id=Altennia (ID: 17457392/0x010A60F0), tag_num=0x05)
488: 0x11D8 [0x2B] Altennia (ID: 17457392/0x010A60F0) [10790*]:
    → "Hmm... That is why I think it would be best if Prince Trion himself broke up the whole thing!"
489: 0x11DF [0x23] WAIT_FOR_DIALOG_INTERACTION
490: 0x11E0 [0x02] IF !(Work_Zone[9] == 3*) GOTO 0x11FA
491: 0x11E8 [0x52] END_LOAD_SCHEDULER: End scheduler "s047" with entities [EventEntity, EventEntity], work=844*
492: 0x11F7 [0x01] GOTO 0x1257
493: 0x11FA [0x02] IF !(Work_Zone[9] == 5*) GOTO 0x1214
494: 0x1202 [0x52] END_LOAD_SCHEDULER: End scheduler "s063" with entities [EventEntity, EventEntity], work=844*
495: 0x1211 [0x01] GOTO 0x1257
496: 0x1214 [0x02] IF !(Work_Zone[9] == 6*) GOTO 0x122E
497: 0x121C [0x52] END_LOAD_SCHEDULER: End scheduler "s063" with entities [EventEntity, EventEntity], work=844*
498: 0x122B [0x01] GOTO 0x1257
499: 0x122E [0x02] IF !(Work_Zone[9] == 8*) GOTO 0x1248
500: 0x1236 [0x52] END_LOAD_SCHEDULER: End scheduler "s047" with entities [EventEntity, EventEntity], work=844*
501: 0x1245 [0x01] GOTO 0x1257
502: 0x1248 [0x52] END_LOAD_SCHEDULER: End scheduler "s054" with entities [EventEntity, EventEntity], work=844*

SUBROUTINE_1257:
503: 0x1257 [0x02] IF !(Work_Zone[9] == 5*) GOTO 0x1273
504: 0x125F [0x45] LOAD_SCHEDULED_TASK: Load scheduler "s069" with entities [EventEntity, EventEntity], work=[844*, 0*]
505: 0x1270 [0x01] GOTO 0x12A0
506: 0x1273 [0x02] IF !(Work_Zone[9] == 6*) GOTO 0x128F
507: 0x127B [0x45] LOAD_SCHEDULED_TASK: Load scheduler "s069" with entities [EventEntity, EventEntity], work=[844*, 0*]
508: 0x128C [0x01] GOTO 0x12A0
509: 0x128F [0x45] LOAD_SCHEDULED_TASK: Load scheduler "s048" with entities [EventEntity, EventEntity], work=[844*, 0*]

SUBROUTINE_12A0:
510: 0x12A0 [0x29] REQ_SET_WAIT(priority=0x08, entity_id=Altennia (ID: 17457392/0x010A60F0), tag_num=0x06)
511: 0x12A7 [0x79] Altennia (ID: 17457392/0x010A60F0) looks at LocalPlayer (Basic look)
512: 0x12B1 [0x29] REQ_SET_WAIT(priority=0x08, entity_id=Altennia (ID: 17457392/0x010A60F0), tag_num=0x07)
513: 0x12B8 [0x2B] Altennia (ID: 17457392/0x010A60F0) [10791*]:
    → "I want you to tell my brother that he needs to convince Prince Trion to do this."
514: 0x12BF [0x23] WAIT_FOR_DIALOG_INTERACTION
515: 0x12C0 [0x29] REQ_SET_WAIT(priority=0x08, entity_id=Altennia (ID: 17457392/0x010A60F0), tag_num=0x08)
516: 0x12C7 [0x29] REQ_SET_WAIT(priority=0x08, entity_id=Altennia (ID: 17457392/0x010A60F0), tag_num=0x01)
517: 0x12CE [0x2B] Altennia (ID: 17457392/0x010A60F0) [10792*]:
    → "If the prince simply says that he wants to dance with Lady Curilla, then everything will be resolved."
518: 0x12D5 [0x23] WAIT_FOR_DIALOG_INTERACTION
519: 0x12D6 [0x02] IF !(Work_Zone[9] == 5*) GOTO 0x12F0
520: 0x12DE [0x52] END_LOAD_SCHEDULER: End scheduler "s069" with entities [EventEntity, EventEntity], work=844*
521: 0x12ED [0x01] GOTO 0x1319
522: 0x12F0 [0x02] IF !(Work_Zone[9] == 6*) GOTO 0x130A
523: 0x12F8 [0x52] END_LOAD_SCHEDULER: End scheduler "s069" with entities [EventEntity, EventEntity], work=844*
524: 0x1307 [0x01] GOTO 0x1319
525: 0x130A [0x52] END_LOAD_SCHEDULER: End scheduler "s048" with entities [EventEntity, EventEntity], work=844*

SUBROUTINE_1319:
526: 0x1319 [0x02] IF !(Work_Zone[9] == 5*) GOTO 0x1335
527: 0x1321 [0x45] LOAD_SCHEDULED_TASK: Load scheduler "s064" with entities [EventEntity, EventEntity], work=[844*, 0*]
528: 0x1332 [0x01] GOTO 0x1362
529: 0x1335 [0x02] IF !(Work_Zone[9] == 6*) GOTO 0x1351
530: 0x133D [0x45] LOAD_SCHEDULED_TASK: Load scheduler "s064" with entities [EventEntity, EventEntity], work=[844*, 0*]
531: 0x134E [0x01] GOTO 0x1362
532: 0x1351 [0x45] LOAD_SCHEDULED_TASK: Load scheduler "s049" with entities [EventEntity, EventEntity], work=[844*, 0*]

SUBROUTINE_1362:
533: 0x1362 [0x1C] WAIT(20* ticks)
534: 0x1365 [0x6E] LocalPlayer uses emote 7*
535: 0x136C [0x99] Wait for LocalPlayer animation to complete
536: 0x1371 [0x29] REQ_SET_WAIT(priority=0x08, entity_id=Altennia (ID: 17457392/0x010A60F0), tag_num=0x02)
537: 0x1378 [0x29] REQ_SET_WAIT(priority=0x08, entity_id=Altennia (ID: 17457392/0x010A60F0), tag_num=0x03)
538: 0x137F [0x29] REQ_SET_WAIT(priority=0x08, entity_id=Altennia (ID: 17457392/0x010A60F0), tag_num=0x04)
539: 0x1386 [0x7B] Altennia (ID: 17457392/0x010A60F0) stops talking
540: 0x138B [0x4B] UPDATE_ENTITY_YAW(entity=Altennia (ID: 17457392/0x010A60F0), yaw=8.0°*)
541: 0x1392 [0x6F] WAIT_FRAME_DELAY: Yield until WaitTime reaches zero
542: 0x1393 [0x76] CHECK_ENTITY_RENDER_FLAGS: Wait until Altennia (ID: 17457392/0x010A60F0) Render.Flags0 and Render.Flags3 conditions are met
543: 0x1398 [0x29] REQ_SET_WAIT(priority=0x08, entity_id=Altennia (ID: 17457392/0x010A60F0), tag_num=0x17)
544: 0x139F [0x2B] Altennia (ID: 17457392/0x010A60F0) [10793*]:
    → "Oh, it seems my unit is looking for me. I must be going now."
545: 0x13A6 [0x23] WAIT_FOR_DIALOG_INTERACTION
546: 0x13A7 [0x29] REQ_SET_WAIT(priority=0x08, entity_id=Altennia (ID: 17457392/0x010A60F0), tag_num=0x18)
547: 0x13AE [0x02] IF !(Work_Zone[9] == 5*) GOTO 0x13C8
548: 0x13B6 [0x52] END_LOAD_SCHEDULER: End scheduler "s064" with entities [EventEntity, EventEntity], work=844*
549: 0x13C5 [0x01] GOTO 0x13F1
550: 0x13C8 [0x02] IF !(Work_Zone[9] == 6*) GOTO 0x13E2
551: 0x13D0 [0x52] END_LOAD_SCHEDULER: End scheduler "s064" with entities [EventEntity, EventEntity], work=844*
552: 0x13DF [0x01] GOTO 0x13F1
553: 0x13E2 [0x52] END_LOAD_SCHEDULER: End scheduler "s049" with entities [EventEntity, EventEntity], work=844*

SUBROUTINE_13F1:
554: 0x13F1 [0x02] IF !(Work_Zone[9] == 5*) GOTO 0x140D
555: 0x13F9 [0x45] LOAD_SCHEDULED_TASK: Load scheduler "s065" with entities [EventEntity, EventEntity], work=[844*, 0*]
556: 0x140A [0x01] GOTO 0x143A
557: 0x140D [0x02] IF !(Work_Zone[9] == 6*) GOTO 0x1429
558: 0x1415 [0x45] LOAD_SCHEDULED_TASK: Load scheduler "s065" with entities [EventEntity, EventEntity], work=[844*, 0*]
559: 0x1426 [0x01] GOTO 0x143A
560: 0x1429 [0x45] LOAD_SCHEDULED_TASK: Load scheduler "s051" with entities [EventEntity, EventEntity], work=[844*, 0*]

SUBROUTINE_143A:
561: 0x143A [0x79] Altennia (ID: 17457392/0x010A60F0) looks at LocalPlayer (Basic look)
562: 0x1444 [0x29] REQ_SET_WAIT(priority=0x08, entity_id=Altennia (ID: 17457392/0x010A60F0), tag_num=0x19)
563: 0x144B [0x2B] Altennia (ID: 17457392/0x010A60F0) [10794*]:
    → "Now then, take care on your journey home, adventurer! I hope to see you again someday."
564: 0x1452 [0x23] WAIT_FOR_DIALOG_INTERACTION
565: 0x1453 [0x29] REQ_SET_WAIT(priority=0x08, entity_id=Altennia (ID: 17457392/0x010A60F0), tag_num=0x1A)
566: 0x145A [0x02] IF !(Work_Zone[9] == 5*) GOTO 0x1474
567: 0x1462 [0x52] END_LOAD_SCHEDULER: End scheduler "s065" with entities [EventEntity, EventEntity], work=844*
568: 0x1471 [0x01] GOTO 0x149D
569: 0x1474 [0x02] IF !(Work_Zone[9] == 6*) GOTO 0x148E
570: 0x147C [0x52] END_LOAD_SCHEDULER: End scheduler "s065" with entities [EventEntity, EventEntity], work=844*
571: 0x148B [0x01] GOTO 0x149D
572: 0x148E [0x52] END_LOAD_SCHEDULER: End scheduler "s051" with entities [EventEntity, EventEntity], work=844*

SUBROUTINE_149D:
573: 0x149D [0x45] LOAD_SCHEDULED_TASK: Load scheduler "s050" with entities [EventEntity, EventEntity], work=[844*, 0*]
574: 0x14AE [0x27] REQ_SET(priority=0x08, entity_id=Altennia (ID: 17457392/0x010A60F0), tag_num=0x29)
575: 0x14B5 [0x1C] WAIT(90* ticks)
576: 0x14B8 [0x5D] SET_MUSIC_VOLUME(volume=0*, fade_time=300*)
577: 0x14BD [0x1A] CALL_SUBROUTINE(address=0x0064)
578: 0x14C0 [0x1C] WAIT(15* ticks)
579: 0x14C3 [0x52] END_LOAD_SCHEDULER: End scheduler "s050" with entities [EventEntity, EventEntity], work=844*
580: 0x14D2 [0x2A] GET_REQ_LEVEL(level=8, entity_id=Altennia (ID: 17457392/0x010A60F0))
581: 0x14D8 [0x5C] MUSIC_CONTROL: Set Idle (Day) music to song 0*
582: 0x14DC [0x5C] MUSIC_CONTROL: Set Idle (Night) music to song 0*
583: 0x14E0 [0x5C] MUSIC_CONTROL: Set Combat (Solo) music to song 115*
584: 0x14E4 [0x5C] MUSIC_CONTROL: Set Combat (Party) music to song 102*
585: 0x14E8 [0x9A] WAIT_MUSIC_SERVER()
586: 0x14E9 [0x5D] SET_MUSIC_VOLUME(volume=127*, fade_time=1*)
587: 0x14EE [0xAB] EventEntity->DespawnValue = 0* // Set despawn value
588: 0x14F2 [0x1C] WAIT(1* ticks)
589: 0x14F5 [0x46] CAMERA_CONTROL: Restore default settings
590: 0x14F7 [0x45] LOAD_SCHEDULED_TASK: Load scheduler "fdi2" with entities [EventEntity, EventEntity], work=[200*, 0*]
591: 0x1508 [0x21] END_EVENT
592: 0x1509 [0x00] END_REQSTACK()
```
