# 17457385

## Common Data

| Field            | Value                     |
|------------------|---------------------------|
| Zone             | Ranguemont Pass (ID: 166) |
| Block Size       | 1300 bytes                |
| Total Events     | 5                         |
| References Count | 42                        |

## List of Events

| Event ID              | Entrypoint   |   Size |   Instructions |
|-----------------------|--------------|--------|----------------|
| [65535](#event-65535) | 0x0000       |    658 |             62 |
| [54](#event-54)       | 0x0292       |    118 |             35 |
| [50](#event-50)       | 0x0308       |     10 |              6 |
| [52](#event-52)       | 0x0312       |     27 |             10 |
| [51](#event-51)       | 0x032D       |    283 |             78 |

## DAT References (imed_data)

|   Index | Hex Value   |   Dec Value |
|---------|-------------|-------------|
|       0 | 0x00C8      |         200 |
|       1 | 0x0000      |           0 |
|       2 | 0x00C9      |         201 |
|       3 | 0x0001      |           1 |
|       4 | 0x002D      |          45 |
|       5 | 0x0002      |           2 |
|       6 | 0x001E      |          30 |
|       7 | 0x00D7      |         215 |
|       8 | 0x29B6      |       10678 |
|       9 | 0x1C9F      |        7327 |
|      10 | 0x29BE      |       10686 |
|      11 | 0x0063      |          99 |
|      12 | 0x29BD      |       10685 |
|      13 | 0x0064      |         100 |
|      14 | 0x29B7      |       10679 |
|      15 | 0x29B8      |       10680 |
|      16 | 0x2986      |       10630 |
|      17 | 0x29A5      |       10661 |
|      18 | 0x29A8      |       10664 |
|      19 | 0x29A9      |       10665 |
|      20 | 0x299D      |       10653 |
|      21 | 0x299E      |       10654 |
|      22 | 0x0003      |           3 |
|      23 | 0x0007      |           7 |
|      24 | 0x29A0      |       10656 |
|      25 | 0x29A1      |       10657 |
|      26 | 0x29A2      |       10658 |
|      27 | 0x29A3      |       10659 |
|      28 | 0x29A4      |       10660 |
|      29 | 0x29AE      |       10670 |
|      30 | 0x29AF      |       10671 |
|      31 | 0x29B0      |       10672 |
|      32 | 0x29B1      |       10673 |
|      33 | 0x29B2      |       10674 |
|      34 | 0x29B3      |       10675 |
|      35 | 0x29B4      |       10676 |
|      36 | 0x29B5      |       10677 |
|      37 | 0x005A      |          90 |
|      38 | 0x29AB      |       10667 |
|      39 | 0x29A6      |       10662 |
|      40 | 0x29A7      |       10663 |
|      41 | 0x299F      |       10655 |

## String References

- **7327**: @@
- **10630**: The voice of a young woman rings in your head.
- **10653**: "Rune cipher...tication...uired."
- **10654**: "[./Ig.../Ge...s/...bra/Te/...por/U.../Lu.../...ebrae]..."
- **10655**: "Unabl...res...error. Term...func...ty."
- **10656**: "Auth......succ...ful."
- **10657**: "Pers...ector $2 crea...in Rune Containment Mode. Now boo...g."
- **10658**: "B...comple... ...acce...Per...Sec...$2."
- **10659**: "He...<Player>."
- **10660**: "You h...1 unhe....message. Rela...eard mess...telepa..."
- **10661**: "All mess......heard."
- **10662**: "Recor...rd messa...rune st..."
- **10663**: "...inating Rune...ainment Mo...r succ......ording."
- **10664**: "This ter......ently in Sa...ode and......not be util..."
- **10665**: "Emerg......ge playb...servi......e unl...ith th...ropria...une cipher."
- **10667**: A cumbrous silence descends as the echoes of that mysterious internal voice fade away.
- **10671**: The sounds of a one-sided conversation drift slowly upon the breeze.
- **10678**: Your $3 pulses with a vibrant energy.
- **10679**: What will you do? [Place the core. (Get ready to fight!)/Do nothing.]
- **10680**: The mysterious apparatus absorbs the $3, and the machine sputters a cacophonous grinding!
- **10685**: You may not have enough room in your inventory to receive all the spoils of victory. Victory may yield up to $0 item[/s].
- **10686**: Any temporary items you possess will be destroyed, beneficial effects will be removed, and TP will be reset.

## Events

### Event 65535

#### Metadata

| Field        | Value     |
|--------------|-----------|
| Entrypoint   | 0x0000    |
| Data Size    | 658 bytes |
| Instructions | 1         |

```
      00 01 02 03 04 05 06 07  08 09 0A 0B 0C 0D 0E 0F
      -- -- -- -- -- -- -- --  -- -- -- -- -- -- -- --
0000: 00 45 00 80 F0 FF FF 7F  F0 FF FF 7F 66 64 69 30  .E..........fdi0
0010: 01 80 55 00 80 F0 FF FF  7F F0 FF FF 7F 66 64 69  ..U..........fdi
0020: 30 1B 45 00 80 F0 FF FF  7F F0 FF FF 7F 66 64 6F  0.E..........fdo
0030: 30 01 80 55 00 80 F0 FF  FF 7F F0 FF FF 7F 66 64  0..U..........fd
0040: 6F 30 1B 45 00 80 F0 FF  FF 7F F0 FF FF 7F 66 64  o0.E..........fd
0050: 69 31 01 80 55 00 80 F0  FF FF 7F F0 FF FF 7F 66  i1..U..........f
0060: 64 69 31 1B 45 00 80 F0  FF FF 7F F0 FF FF 7F 66  di1.E..........f
0070: 64 6F 31 01 80 55 00 80  F0 FF FF 7F F0 FF FF 7F  do1..U..........
0080: 66 64 6F 31 1B 45 02 80  F0 FF FF 7F F0 FF FF 7F  fdo1.E..........
0090: 77 68 69 31 01 80 55 02  80 F0 FF FF 7F F0 FF FF  whi1..U.........
00A0: 7F 77 68 69 31 1B 45 02  80 F0 FF FF 7F F0 FF FF  .whi1.E.........
00B0: 7F 77 68 6F 31 01 80 55  02 80 F0 FF FF 7F F0 FF  .who1..U........
00C0: FF 7F 77 68 6F 31 1B 45  02 80 F0 FF FF 7F F0 FF  ..who1.E........
00D0: FF 7F 77 68 6F 32 01 80  55 02 80 F0 FF FF 7F F0  ..who2..U.......
00E0: FF FF 7F 77 68 6F 32 1B  45 02 80 F0 FF FF 7F F0  ...who2.E.......
00F0: FF FF 7F 77 68 6F 33 01  80 55 02 80 F0 FF FF 7F  ...who3..U......
0100: F0 FF FF 7F 77 68 6F 33  1B 62 03 80 F0 FF FF 7F  ....who3.b......
0110: F0 FF FF 7F 6D 61 69 6E  01 80 1C 04 80 45 00 80  ....main.....E..
0120: F0 FF FF 7F F0 FF FF 7F  66 64 6F 31 01 80 55 00  ........fdo1..U.
0130: 80 F0 FF FF 7F F0 FF FF  7F 66 64 6F 31 1B 45 00  .........fdo1.E.
0140: 80 F0 FF FF 7F F0 FF FF  7F 66 64 69 31 01 80 62  .........fdi1..b
0150: 05 80 F0 FF FF 7F F0 FF  FF 7F 6D 61 69 6E 01 80  ..........main..
0160: 1C 06 80 55 00 80 F0 FF  FF 7F F0 FF FF 7F 66 64  ...U..........fd
0170: 69 31 1B 45 00 80 F0 FF  FF 7F F0 FF FF 7F 62 6C  i1.E..........bl
0180: 6F 6E 01 80 45 02 80 F0  FF FF 7F F0 FF FF 7F 62  on..E..........b
0190: 6C 6F 6E 01 80 1B 45 02  80 F0 FF FF 7F F0 FF FF  lon...E.........
01A0: 7F 77 68 69 30 01 80 55  02 80 F0 FF FF 7F F0 FF  .whi0..U........
01B0: FF 7F 77 68 69 30 1B 45  02 80 F0 FF FF 7F F0 FF  ..whi0.E........
01C0: FF 7F 77 68 6F 30 01 80  55 02 80 F0 FF FF 7F F0  ..who0..U.......
01D0: FF FF 7F 77 68 6F 30 1B  45 07 80 F0 FF FF 7F F0  ...who0.E.......
01E0: FF FF 7F 65 66 6F 6E 01  80 55 07 80 F0 FF FF 7F  ...efon..U......
01F0: F0 FF FF 7F 65 66 6F 6E  1B 45 00 80 F0 FF FF 7F  ....efon.E......
0200: F0 FF FF 7F 66 64 69 73  01 80 1B 45 00 80 F0 FF  ....fdis...E....
0210: FF 7F F0 FF FF 7F 66 64  6F 73 01 80 55 00 80 F0  ......fdos..U...
0220: FF FF 7F F0 FF FF 7F 66  64 6F 73 1B 45 00 80 F0  .......fdos.E...
0230: FF FF 7F F0 FF FF 7F 66  64 69 66 01 80 1B 45 00  .......fdif...E.
0240: 80 F0 FF FF 7F F0 FF FF  7F 66 64 6F 66 01 80 55  .........fdof..U
0250: 00 80 F0 FF FF 7F F0 FF  FF 7F 66 64 6F 66 1B 45  ..........fdof.E
0260: 00 80 F0 FF FF 7F F0 FF  FF 7F 66 64 69 70 01 80  ..........fdip..
0270: 1B 45 00 80 F0 FF FF 7F  F0 FF FF 7F 66 64 6F 70  .E..........fdop
0280: 01 80 55 00 80 F0 FF FF  7F F0 FF FF 7F 66 64 6F  ..U..........fdo
0290: 70 1B                                             p.              
```

#### Opcodes

```
  0: 0x0000 [0x00] END_REQSTACK()
```

#### Data or dead code:

```
# Dead code (unreachable instructions):
     0x0001 [0x45] LOAD_SCHEDULED_TASK: Load scheduler "fdi0" with entities [LocalPlayer, LocalPlayer], work=[200*, 0*]
     0x0012 [0x55] WAIT_LOAD_SCHEDULER: Wait for scheduler "fdi0" with entities [LocalPlayer, LocalPlayer], work=200*
     0x0021 [0x1B] RETURN
     0x0022 [0x45] LOAD_SCHEDULED_TASK: Load scheduler "fdo0" with entities [LocalPlayer, LocalPlayer], work=[200*, 0*]
     0x0033 [0x55] WAIT_LOAD_SCHEDULER: Wait for scheduler "fdo0" with entities [LocalPlayer, LocalPlayer], work=200*
     0x0042 [0x1B] RETURN
     0x0043 [0x45] LOAD_SCHEDULED_TASK: Load scheduler "fdi1" with entities [LocalPlayer, LocalPlayer], work=[200*, 0*]
     0x0054 [0x55] WAIT_LOAD_SCHEDULER: Wait for scheduler "fdi1" with entities [LocalPlayer, LocalPlayer], work=200*
     0x0063 [0x1B] RETURN
     0x0064 [0x45] LOAD_SCHEDULED_TASK: Load scheduler "fdo1" with entities [LocalPlayer, LocalPlayer], work=[200*, 0*]
     0x0075 [0x55] WAIT_LOAD_SCHEDULER: Wait for scheduler "fdo1" with entities [LocalPlayer, LocalPlayer], work=200*
     0x0084 [0x1B] RETURN
     0x0085 [0x45] LOAD_SCHEDULED_TASK: Load scheduler "whi1" with entities [LocalPlayer, LocalPlayer], work=[201*, 0*]
     0x0096 [0x55] WAIT_LOAD_SCHEDULER: Wait for scheduler "whi1" with entities [LocalPlayer, LocalPlayer], work=201*
     0x00A5 [0x1B] RETURN
     0x00A6 [0x45] LOAD_SCHEDULED_TASK: Load scheduler "who1" with entities [LocalPlayer, LocalPlayer], work=[201*, 0*]
     0x00B7 [0x55] WAIT_LOAD_SCHEDULER: Wait for scheduler "who1" with entities [LocalPlayer, LocalPlayer], work=201*
     0x00C6 [0x1B] RETURN
     0x00C7 [0x45] LOAD_SCHEDULED_TASK: Load scheduler "who2" with entities [LocalPlayer, LocalPlayer], work=[201*, 0*]
     0x00D8 [0x55] WAIT_LOAD_SCHEDULER: Wait for scheduler "who2" with entities [LocalPlayer, LocalPlayer], work=201*
     0x00E7 [0x1B] RETURN
     0x00E8 [0x45] LOAD_SCHEDULED_TASK: Load scheduler "who3" with entities [LocalPlayer, LocalPlayer], work=[201*, 0*]
     0x00F9 [0x55] WAIT_LOAD_SCHEDULER: Wait for scheduler "who3" with entities [LocalPlayer, LocalPlayer], work=201*
     0x0108 [0x1B] RETURN
     0x0109 [0x62] LOAD_EVENT_SCHEDULER: Load scheduler "main" with entities [LocalPlayer, LocalPlayer], work=[1*, 0*]
     0x011A [0x1C] WAIT(45* ticks)
     0x011D [0x45] LOAD_SCHEDULED_TASK: Load scheduler "fdo1" with entities [LocalPlayer, LocalPlayer], work=[200*, 0*]
     0x012E [0x55] WAIT_LOAD_SCHEDULER: Wait for scheduler "fdo1" with entities [LocalPlayer, LocalPlayer], work=200*
     0x013D [0x1B] RETURN
     0x013E [0x45] LOAD_SCHEDULED_TASK: Load scheduler "fdi1" with entities [LocalPlayer, LocalPlayer], work=[200*, 0*]
     0x014F [0x62] LOAD_EVENT_SCHEDULER: Load scheduler "main" with entities [LocalPlayer, LocalPlayer], work=[2*, 0*]
     0x0160 [0x1C] WAIT(30* ticks)
     0x0163 [0x55] WAIT_LOAD_SCHEDULER: Wait for scheduler "fdi1" with entities [LocalPlayer, LocalPlayer], work=200*
     0x0172 [0x1B] RETURN
     0x0173 [0x45] LOAD_SCHEDULED_TASK: Load scheduler "blon" with entities [LocalPlayer, LocalPlayer], work=[200*, 0*]
     0x0184 [0x45] LOAD_SCHEDULED_TASK: Load scheduler "blon" with entities [LocalPlayer, LocalPlayer], work=[201*, 0*]
     0x0195 [0x1B] RETURN
     0x0196 [0x45] LOAD_SCHEDULED_TASK: Load scheduler "whi0" with entities [LocalPlayer, LocalPlayer], work=[201*, 0*]
     0x01A7 [0x55] WAIT_LOAD_SCHEDULER: Wait for scheduler "whi0" with entities [LocalPlayer, LocalPlayer], work=201*
     0x01B6 [0x1B] RETURN
     0x01B7 [0x45] LOAD_SCHEDULED_TASK: Load scheduler "who0" with entities [LocalPlayer, LocalPlayer], work=[201*, 0*]
     0x01C8 [0x55] WAIT_LOAD_SCHEDULER: Wait for scheduler "who0" with entities [LocalPlayer, LocalPlayer], work=201*
     0x01D7 [0x1B] RETURN
     0x01D8 [0x45] LOAD_SCHEDULED_TASK: Load scheduler "efon" with entities [LocalPlayer, LocalPlayer], work=[215*, 0*]
     0x01E9 [0x55] WAIT_LOAD_SCHEDULER: Wait for scheduler "efon" with entities [LocalPlayer, LocalPlayer], work=215*
     0x01F8 [0x1B] RETURN
     0x01F9 [0x45] LOAD_SCHEDULED_TASK: Load scheduler "fdis" with entities [LocalPlayer, LocalPlayer], work=[200*, 0*]
     0x020A [0x1B] RETURN
     0x020B [0x45] LOAD_SCHEDULED_TASK: Load scheduler "fdos" with entities [LocalPlayer, LocalPlayer], work=[200*, 0*]
     0x021C [0x55] WAIT_LOAD_SCHEDULER: Wait for scheduler "fdos" with entities [LocalPlayer, LocalPlayer], work=200*
     0x022B [0x1B] RETURN
     0x022C [0x45] LOAD_SCHEDULED_TASK: Load scheduler "fdif" with entities [LocalPlayer, LocalPlayer], work=[200*, 0*]
     0x023D [0x1B] RETURN
     0x023E [0x45] LOAD_SCHEDULED_TASK: Load scheduler "fdof" with entities [LocalPlayer, LocalPlayer], work=[200*, 0*]
     0x024F [0x55] WAIT_LOAD_SCHEDULER: Wait for scheduler "fdof" with entities [LocalPlayer, LocalPlayer], work=200*
     0x025E [0x1B] RETURN
     0x025F [0x45] LOAD_SCHEDULED_TASK: Load scheduler "fdip" with entities [LocalPlayer, LocalPlayer], work=[200*, 0*]
     0x0270 [0x1B] RETURN
     0x0271 [0x45] LOAD_SCHEDULED_TASK: Load scheduler "fdop" with entities [LocalPlayer, LocalPlayer], work=[200*, 0*]
     0x0282 [0x55] WAIT_LOAD_SCHEDULER: Wait for scheduler "fdop" with entities [LocalPlayer, LocalPlayer], work=200*
     0x0291 [0x1B] RETURN
```

### Event 54

#### Metadata

| Field        | Value     |
|--------------|-----------|
| Entrypoint   | 0x0292    |
| Data Size    | 118 bytes |
| Instructions | 35        |

```
      00 01 02 03 04 05 06 07  08 09 0A 0B 0C 0D 0E 0F
      -- -- -- -- -- -- -- --  -- -- -- -- -- -- -- --
0290:       42 06 01 10 48 08  80 23 48 09 80 23 48 0A    B...H..#H..#H.
02A0: 80 23 03 01 10 0B 80 43  00 43 01 02 02 10 01 80  .#.....C.C......
02B0: 01 B7 02 48 0C 80 23 03  01 10 0D 80 43 00 43 01  ...H..#.....C.C.
02C0: 06 01 10 24 0E 80 01 80  01 80 25 02 00 10 01 80  ...$......%.....
02D0: 00 FB 02 27 08 F0 FF FF  7F 02 48 09 80 23 2A 08  ...'......H..#*.
02E0: F0 FF FF 7F 27 08 F0 FF  FF 7F 03 48 0F 80 2A 08  ....'......H..*.
02F0: F0 FF FF 7F 23 05 01 10  01 06 03 02 00 10 03 80  ....#...........
0300: 00 06 03 01 06 03 21 00                           ......!.        
```

#### Opcodes

```
  0: 0x0292 [0x42] SET_CLI_EVENT_CANCEL_DATA()
  1: 0x0293 [0x06] Work_Zone[1] = 0
  2: 0x0296 [0x48] [System] [10678*]:
    → "Your $3 pulses with a vibrant energy."
  3: 0x0299 [0x23] WAIT_FOR_DIALOG_INTERACTION
  4: 0x029A [0x48] [System] [7327*]:
    → "@@"
  5: 0x029D [0x23] WAIT_FOR_DIALOG_INTERACTION
  6: 0x029E [0x48] [System] [10686*]:
    → "Any temporary items you possess will be destroyed, beneficial effects will be removed, and TP will be reset."
  7: 0x02A1 [0x23] WAIT_FOR_DIALOG_INTERACTION
  8: 0x02A2 [0x03] Work_Zone[1] = 99*
  9: 0x02A7 [0x43] SEND_EVENT_UPDATE: Send pending tag to server (packet 0x005B)
 10: 0x02A9 [0x43] SEND_EVENT_UPDATE: Check pending flag (skip if not pending)
 11: 0x02AB [0x02] IF !(Work_Zone[2] == 0*) GOTO 0x02B7
 12: 0x02B3 [0x48] [System] [10685*]:
    → "You may not have enough room in your inventory to receive all the spoils of victory. Victory may yield up to $0 item[/s]."
 13: 0x02B6 [0x23] WAIT_FOR_DIALOG_INTERACTION
 14: 0x02B7 [0x03] Work_Zone[1] = 100*
 15: 0x02BC [0x43] SEND_EVENT_UPDATE: Send pending tag to server (packet 0x005B)
 16: 0x02BE [0x43] SEND_EVENT_UPDATE: Check pending flag (skip if not pending)
 17: 0x02C0 [0x06] Work_Zone[1] = 0
 18: 0x02C3 [0x24] CREATE_DIALOG(message_id=10679*, default_option=0*, option_flags=0*)
    → "What will you do? [Place the core. (Get ready to fight!)/Do nothing.]"
 19: 0x02CA [0x25] WAIT_DIALOG_SELECT()
 20: 0x02CB [0x02] IF !(Work_Zone[0] == 0*) GOTO 0x02FB
 21: 0x02D3 [0x27] REQ_SET(priority=0x08, entity_id=LocalPlayer, tag_num=0x02)
 22: 0x02DA [0x48] [System] [7327*]:
    → "@@"
 23: 0x02DD [0x23] WAIT_FOR_DIALOG_INTERACTION
 24: 0x02DE [0x2A] GET_REQ_LEVEL(level=8, entity_id=LocalPlayer)
 25: 0x02E4 [0x27] REQ_SET(priority=0x08, entity_id=LocalPlayer, tag_num=0x03)
 26: 0x02EB [0x48] [System] [10680*]:
    → "The mysterious apparatus absorbs the $3, and the machine sputters a cacophonous grinding!"
 27: 0x02EE [0x2A] GET_REQ_LEVEL(level=8, entity_id=LocalPlayer)
 28: 0x02F4 [0x23] WAIT_FOR_DIALOG_INTERACTION
 29: 0x02F5 [0x05] Work_Zone[1] = 1
 30: 0x02F8 [0x01] GOTO 0x0306
 31: 0x02FB [0x02] IF !(Work_Zone[0] == 1*) GOTO 0x0306
 32: 0x0303 [0x01] GOTO 0x0306

SUBROUTINE_0306:
 33: 0x0306 [0x21] END_EVENT
 34: 0x0307 [0x00] END_REQSTACK()
```

### Event 50

#### Metadata

| Field        | Value    |
|--------------|----------|
| Entrypoint   | 0x0308   |
| Data Size    | 10 bytes |
| Instructions | 6        |

```
      00 01 02 03 04 05 06 07  08 09 0A 0B 0C 0D 0E 0F
      -- -- -- -- -- -- -- --  -- -- -- -- -- -- -- --
0300:                          48 10 80 23 48 11 80 23          H..#H..#
0310: 21 00                                             !.              
```

#### Opcodes

```
  0: 0x0308 [0x48] [System] [10630*]:
    → "The voice of a young woman rings in your head."
  1: 0x030B [0x23] WAIT_FOR_DIALOG_INTERACTION
  2: 0x030C [0x48] [System] [10661*]:
    → ""All mess......heard.""
  3: 0x030F [0x23] WAIT_FOR_DIALOG_INTERACTION
  4: 0x0310 [0x21] END_EVENT
  5: 0x0311 [0x00] END_REQSTACK()
```

### Event 52

#### Metadata

| Field        | Value    |
|--------------|----------|
| Entrypoint   | 0x0312   |
| Data Size    | 27 bytes |
| Instructions | 10       |

```
      00 01 02 03 04 05 06 07  08 09 0A 0B 0C 0D 0E 0F
      -- -- -- -- -- -- -- --  -- -- -- -- -- -- -- --
0310:       03 00 00 02 10 48  10 80 23 02 00 00 0B 80    .....H..#.....
0320: 00 27 03 48 12 80 23 48  13 80 23 21 00           .'.H..#H..#!.   
```

#### Opcodes

```
  0: 0x0312 [0x03] ExtData[1]->WorkLocal[0] = Work_Zone[2]
  1: 0x0317 [0x48] [System] [10630*]:
    → "The voice of a young woman rings in your head."
  2: 0x031A [0x23] WAIT_FOR_DIALOG_INTERACTION
  3: 0x031B [0x02] IF !(ExtData[1]->WorkLocal[0] == 99*) GOTO 0x0327
  4: 0x0323 [0x48] [System] [10664*]:
    → ""This ter......ently in Sa...ode and......not be util...""
  5: 0x0326 [0x23] WAIT_FOR_DIALOG_INTERACTION
  6: 0x0327 [0x48] [System] [10665*]:
    → ""Emerg......ge playb...servi......e unl...ith th...ropria...une cipher.""
  7: 0x032A [0x23] WAIT_FOR_DIALOG_INTERACTION
  8: 0x032B [0x21] END_EVENT
  9: 0x032C [0x00] END_REQSTACK()
```

### Event 51

#### Metadata

| Field        | Value     |
|--------------|-----------|
| Entrypoint   | 0x032D    |
| Data Size    | 283 bytes |
| Instructions | 78        |

```
      00 01 02 03 04 05 06 07  08 09 0A 0B 0C 0D 0E 0F
      -- -- -- -- -- -- -- --  -- -- -- -- -- -- -- --
0320:                                         42 4A F0               BJ.
0330: FF FF 7F ED 60 0A 01 03  01 00 02 10 03 02 00 05  ....`...........
0340: 10 03 03 00 04 10 03 04  00 03 10 03 05 00 06 10  ................
0350: 06 06 00 48 10 80 23 48  14 80 23 02 02 00 01 80  ...H..#H..#.....
0360: 00 66 03 01 7A 03 03 02  10 02 00 48 15 80 23 02  .f..z......H..#.
0370: 02 00 16 80 00 7A 03 0B  06 00 02 03 00 01 80 00  .....z..........
0380: 85 03 01 99 03 03 02 10  03 00 48 15 80 23 02 03  ..........H..#..
0390: 00 03 80 00 99 03 0B 06  00 02 04 00 01 80 00 A4  ................
03A0: 03 01 B8 03 03 02 10 04  00 48 15 80 23 02 04 00  .........H..#...
03B0: 17 80 00 B8 03 0B 06 00  06 01 10 02 06 00 16 80  ................
03C0: 04 42 04 48 18 80 23 03  04 10 01 00 48 19 80 23  .B.H..#.....H..#
03D0: 48 1A 80 23 48 1B 80 23  48 1C 80 23 29 10 EA 60  H..#H..#H..#)..`
03E0: 0A 01 09 29 10 F0 FF FF  7F 02 2B EA 60 0A 01 1D  ...)......+.`...
03F0: 80 23 48 1E 80 23 2B EA  60 0A 01 1F 80 23 2B EA  .#H..#+.`....#+.
0400: 60 0A 01 20 80 23 2B EA  60 0A 01 21 80 23 2B EA  `.. .#+.`..!.#+.
0410: 60 0A 01 22 80 23 2B EA  60 0A 01 23 80 23 2B EA  `..".#+.`..#.#+.
0420: 60 0A 01 24 80 23 1C 25  80 48 26 80 23 29 10 F0  `..$.#.%.H&.#)..
0430: FF FF 7F 03 48 27 80 23  48 28 80 23 05 01 10 01  ....H'.#H(.#....
0440: 46 04 48 29 80 23 21 00                           F.H).#!.        
```

#### Opcodes

```
  0: 0x032D [0x42] SET_CLI_EVENT_CANCEL_DATA()
  1: 0x032E [0x4A] LocalPlayer looks at Hazy Rune (ID: 17457389/0x010A60ED)
  2: 0x0337 [0x03] ExtData[1]->WorkLocal[1] = Work_Zone[2]
  3: 0x033C [0x03] ExtData[1]->WorkLocal[2] = Work_Zone[5]
  4: 0x0341 [0x03] ExtData[1]->WorkLocal[3] = Work_Zone[4]
  5: 0x0346 [0x03] ExtData[1]->WorkLocal[4] = Work_Zone[3]
  6: 0x034B [0x03] ExtData[1]->WorkLocal[5] = Work_Zone[6]
  7: 0x0350 [0x06] ExtData[1]->WorkLocal[6] = 0
  8: 0x0353 [0x48] [System] [10630*]:
    → "The voice of a young woman rings in your head."
  9: 0x0356 [0x23] WAIT_FOR_DIALOG_INTERACTION
 10: 0x0357 [0x48] [System] [10653*]:
    → ""Rune cipher...tication...uired.""
 11: 0x035A [0x23] WAIT_FOR_DIALOG_INTERACTION
 12: 0x035B [0x02] IF !(ExtData[1]->WorkLocal[2] == 0*) GOTO 0x0366
 13: 0x0363 [0x01] GOTO 0x037A
 14: 0x0366 [0x03] Work_Zone[2] = ExtData[1]->WorkLocal[2]
 15: 0x036B [0x48] [System] [10654*]:
    → ""[./Ig.../Ge...s/...bra/Te/...por/U.../Lu.../...ebrae]...""
 16: 0x036E [0x23] WAIT_FOR_DIALOG_INTERACTION
 17: 0x036F [0x02] IF !(ExtData[1]->WorkLocal[2] == 3*) GOTO 0x037A
 18: 0x0377 [0x0B] ExtData[1]->WorkLocal[6]++

SUBROUTINE_037A:
 19: 0x037A [0x02] IF !(ExtData[1]->WorkLocal[3] == 0*) GOTO 0x0385
 20: 0x0382 [0x01] GOTO 0x0399
 21: 0x0385 [0x03] Work_Zone[2] = ExtData[1]->WorkLocal[3]
 22: 0x038A [0x48] [System] [10654*]:
    → ""[./Ig.../Ge...s/...bra/Te/...por/U.../Lu.../...ebrae]...""
 23: 0x038D [0x23] WAIT_FOR_DIALOG_INTERACTION
 24: 0x038E [0x02] IF !(ExtData[1]->WorkLocal[3] == 1*) GOTO 0x0399
 25: 0x0396 [0x0B] ExtData[1]->WorkLocal[6]++

SUBROUTINE_0399:
 26: 0x0399 [0x02] IF !(ExtData[1]->WorkLocal[4] == 0*) GOTO 0x03A4
 27: 0x03A1 [0x01] GOTO 0x03B8
 28: 0x03A4 [0x03] Work_Zone[2] = ExtData[1]->WorkLocal[4]
 29: 0x03A9 [0x48] [System] [10654*]:
    → ""[./Ig.../Ge...s/...bra/Te/...por/U.../Lu.../...ebrae]...""
 30: 0x03AC [0x23] WAIT_FOR_DIALOG_INTERACTION
 31: 0x03AD [0x02] IF !(ExtData[1]->WorkLocal[4] == 7*) GOTO 0x03B8
 32: 0x03B5 [0x0B] ExtData[1]->WorkLocal[6]++

SUBROUTINE_03B8:
 33: 0x03B8 [0x06] Work_Zone[1] = 0
 34: 0x03BB [0x02] IF !(ExtData[1]->WorkLocal[6] < 3*) GOTO 0x0442
 35: 0x03C3 [0x48] [System] [10656*]:
    → ""Auth......succ...ful.""
 36: 0x03C6 [0x23] WAIT_FOR_DIALOG_INTERACTION
 37: 0x03C7 [0x03] Work_Zone[4] = ExtData[1]->WorkLocal[1]
 38: 0x03CC [0x48] [System] [10657*]:
    → ""Pers...ector $2 crea...in Rune Containment Mode. Now boo...g.""
 39: 0x03CF [0x23] WAIT_FOR_DIALOG_INTERACTION
 40: 0x03D0 [0x48] [System] [10658*]:
    → ""B...comple... ...acce...Per...Sec...$2.""
 41: 0x03D3 [0x23] WAIT_FOR_DIALOG_INTERACTION
 42: 0x03D4 [0x48] [System] [10659*]:
    → ""He...<Player>.""
 43: 0x03D7 [0x23] WAIT_FOR_DIALOG_INTERACTION
 44: 0x03D8 [0x48] [System] [10660*]:
    → ""You h...1 unhe....message. Rela...eard mess...telepa...""
 45: 0x03DB [0x23] WAIT_FOR_DIALOG_INTERACTION
 46: 0x03DC [0x29] REQ_SET_WAIT(priority=0x10, entity_id=Unnamed NPC (ID: 17457386/0x010A60EA), tag_num=0x09)
 47: 0x03E3 [0x29] REQ_SET_WAIT(priority=0x10, entity_id=LocalPlayer, tag_num=0x02)
 48: 0x03EA [0x2B] Unnamed NPC (ID: 17457386/0x010A60EA) [10670*]:
    → "......operation...underway..."
 49: 0x03F1 [0x23] WAIT_FOR_DIALOG_INTERACTION
 50: 0x03F2 [0x48] [System] [10671*]:
    → "The sounds of a one-sided conversation drift slowly upon the breeze."
 51: 0x03F5 [0x23] WAIT_FOR_DIALOG_INTERACTION
 52: 0x03F6 [0x2B] Unnamed NPC (ID: 17457386/0x010A60EA) [10672*]:
    → "...we Zilart have the cup of prosperity to our lips, and need only tilt it slightly forward to quench our prolonged thirst."
 53: 0x03FD [0x23] WAIT_FOR_DIALOG_INTERACTION
 54: 0x03FE [0x2B] Unnamed NPC (ID: 17457386/0x010A60EA) [10673*]:
    → "I have given this unit the gift of sentience and imbued it with my own memories. This way, even if our plan to open the Gate of the Gods should fail..."
 55: 0x0405 [0x23] WAIT_FOR_DIALOG_INTERACTION
 56: 0x0406 [0x2B] Unnamed NPC (ID: 17457386/0x010A60EA) [10674*]:
    → "...What? What's going on?"
 57: 0x040D [0x23] WAIT_FOR_DIALOG_INTERACTION
 58: 0x040E [0x2B] Unnamed NPC (ID: 17457386/0x010A60EA) [10675*]:
    → "What did you say!? The...the Ark of Vahzl...?"
 59: 0x0415 [0x23] WAIT_FOR_DIALOG_INTERACTION
 60: 0x0416 [0x2B] Unnamed NPC (ID: 17457386/0x010A60EA) [10676*]:
    → "Preposterous! You can't expect me to believe something so asinine!"
 61: 0x041D [0x23] WAIT_FOR_DIALOG_INTERACTION
 62: 0x041E [0x2B] Unnamed NPC (ID: 17457386/0x010A60EA) [10677*]:
    → "...Hello? ...Hello? Say something!"
 63: 0x0425 [0x23] WAIT_FOR_DIALOG_INTERACTION
 64: 0x0426 [0x1C] WAIT(90* ticks)
 65: 0x0429 [0x48] [System] [10667*]:
    → "A cumbrous silence descends as the echoes of that mysterious internal voice fade away."
 66: 0x042C [0x23] WAIT_FOR_DIALOG_INTERACTION
 67: 0x042D [0x29] REQ_SET_WAIT(priority=0x10, entity_id=LocalPlayer, tag_num=0x03)
 68: 0x0434 [0x48] [System] [10662*]:
    → ""Recor...rd messa...rune st...""
 69: 0x0437 [0x23] WAIT_FOR_DIALOG_INTERACTION
 70: 0x0438 [0x48] [System] [10663*]:
    → ""...inating Rune...ainment Mo...r succ......ording.""
 71: 0x043B [0x23] WAIT_FOR_DIALOG_INTERACTION
 72: 0x043C [0x05] Work_Zone[1] = 1
 73: 0x043F [0x01] GOTO 0x0446
 74: 0x0442 [0x48] [System] [10655*]:
    → ""Unabl...res...error. Term...func...ty.""
 75: 0x0445 [0x23] WAIT_FOR_DIALOG_INTERACTION

SUBROUTINE_0446:
 76: 0x0446 [0x21] END_EVENT
 77: 0x0447 [0x00] END_REQSTACK()
```
