# Event 227

## Metadata

| Field           | Value    |
|-----------------|----------|
| Event Index     | 3/4      |
| Offset          | 0x003D   |
| Data Size       | 60 bytes |
| Calculated Size | 60 bytes |
| Instructions    | 10       |

```
      00 01 02 03 04 05 06 07  08 09 0A 0B 0C 0D 0E 0F
      -- -- -- -- -- -- -- --  -- -- -- -- -- -- -- --
0030:                                         4A F8 FF               J..
0040: FF 7F F0 FF FF 7F 1C 00  80 66 01 80 F8 FF FF 7F  .........f......
0050: F8 FF FF 7F 74 6C 6B 30  2B F8 FF FF 7F 04 80 23  ....tlk0+......#
0060: 2B F8 FF FF 7F 05 80 23  66 01 80 F8 FF FF 7F F8  +......#f.......
0070: FF FF 7F 74 6C 6B 31 21  00                       ...tlk1!.       
```

## Opcodes

```
  0: 0x003D [0x4A] EventEntity looks at LocalPlayer
  1: 0x0046 [0x1C] WAIT(30* ticks)
  2: 0x0049 [0x66] LOAD_EXT_SCHEDULER_MAIN: Load scheduler "tlk0" with entities [EventEntity, EventEntity], work=59*
  3: 0x0058 [0x2B] EventEntity [11000*]:
    → "A state of emerrrgency's been declared, or haven't you heard?\u0007This is no time to be trrraipsing about the city!\u007F1\u0000\u0007"
  4: 0x005F [0x23] WAIT_FOR_DIALOG_INTERACTION
  5: 0x0060 [0x2B] EventEntity [11001*]:
    → "Civilians have been ordered to take shelter in Heavens Tower.\u0007You'd best be off to wherever you belong--confusion in the strrreets will only serve to heighten the danger.\u007F1\u0000\u0007"
  6: 0x0067 [0x23] WAIT_FOR_DIALOG_INTERACTION
  7: 0x0068 [0x66] LOAD_EXT_SCHEDULER_MAIN: Load scheduler "tlk1" with entities [EventEntity, EventEntity], work=59*
  8: 0x0077 [0x21] END_EVENT
  9: 0x0078 [0x00] END_REQSTACK()
```
