# Event 228

## Metadata

| Field           | Value    |
|-----------------|----------|
| Event Index     | 4/4      |
| Offset          | 0x0079   |
| Data Size       | 60 bytes |
| Calculated Size | 60 bytes |
| Instructions    | 10       |

```
      00 01 02 03 04 05 06 07  08 09 0A 0B 0C 0D 0E 0F
      -- -- -- -- -- -- -- --  -- -- -- -- -- -- -- --
0070:                             4A F8 FF FF 7F F0 FF           J......
0080: FF 7F 1C 00 80 66 01 80  F8 FF FF 7F F8 FF FF 7F  .....f..........
0090: 74 6C 6B 30 2B F8 FF FF  7F 06 80 23 2B F8 FF FF  tlk0+......#+...
00A0: 7F 07 80 23 66 01 80 F8  FF FF 7F F8 FF FF 7F 74  ...#f..........t
00B0: 6C 6B 31 21 00                                    lk1!.           
```

## Opcodes

```
  0: 0x0079 [0x4A] EventEntity looks at LocalPlayer
  1: 0x0082 [0x1C] WAIT(30* ticks)
  2: 0x0085 [0x66] LOAD_EXT_SCHEDULER_MAIN(work_offset=59*, entity1=EventEntity, entity2=EventEntity, action="tlk0")
  3: 0x0094 [0x2B] EventEntity [11002*]:
    → "Grrr... Those birdmen did a number on Windurst Walls, I'll tell you.\u0007Shattered roofs, collapsed brrridges... The place is in shambles!\u007F1\u0000\u0007"
  4: 0x009B [0x23] WAIT_FOR_DIALOG_INTERACTION
  5: 0x009C [0x2B] EventEntity [11003*]:
    → "But the citizens are already hard at work repairing the damages.\u0007We'll see the Walls restored to their former glorrry before you know it!\u007F1\u0000\u0007"
  6: 0x00A3 [0x23] WAIT_FOR_DIALOG_INTERACTION
  7: 0x00A4 [0x66] LOAD_EXT_SCHEDULER_MAIN(work_offset=59*, entity1=EventEntity, entity2=EventEntity, action="tlk1")
  8: 0x00B3 [0x21] END_EVENT
  9: 0x00B4 [0x00] END_REQSTACK()
```
