# Event 65535

## Metadata

| Field           | Value    |
|-----------------|----------|
| Event Index     | 33/64    |
| Offset          | 0x01D6   |
| Data Size       | 35 bytes |
| Calculated Size | 35 bytes |
| Instructions    | 7        |

```
      00 01 02 03 04 05 06 07  08 09 0A 0B 0C 0D 0E 0F
      -- -- -- -- -- -- -- --  -- -- -- -- -- -- -- --
01D0:                   37 43  80 44 80 45 80 46 80 80        7C.D.E.F..
01E0: F8 FF FF 7F 32 07 80 1F  00 47 80 48 80 49 80 1F  ....2....G.H.I..
01F0: 01 4B 31 21 03 01 4A 80  00                       .K1!..J..       
```

## Opcodes

```
  0: 0x01D6 [0x37] UPDATE_EVENT_POSITION_AND_DIR: x=-183.147*, z=-826.464*, y=-5.910*, direction=91.8°*
  1: 0x01DF [0x80] LOAD_WAIT(entity=EventEntity)
  2: 0x01E4 [0x32] ExtData[1]->MainSpeed = 13* * 0.1
  3: 0x01E7 [0x1F] MOVE_ENTITY: EventEntity moves to X=-179.713*, Z=-830.224*, Y=-4.970*
  4: 0x01EF [0x1F] MOVE_ENTITY: Update entity position (mode=1)
  5: 0x01F1 [0x4B] UPDATE_ENTITY_YAW(entity=Foudeel (ID: 16982321/0x01032131), yaw=4.9°*)
  6: 0x01F8 [0x00] END_REQSTACK()
```
