# Event 65535

## Metadata

| Field           | Value    |
|-----------------|----------|
| Event Index     | 45/64    |
| Offset          | 0x0287   |
| Data Size       | 40 bytes |
| Calculated Size | 40 bytes |
| Instructions    | 8        |

```
      00 01 02 03 04 05 06 07  08 09 0A 0B 0C 0D 0E 0F
      -- -- -- -- -- -- -- --  -- -- -- -- -- -- -- --
0280:                      32  04 80 1F 00 65 80 66 80         2....e.f.
0290: 11 80 1F 01 1E AE 21 03  01 1C 67 80 66 68 80 31  ......!...g.fh.1
02A0: 21 03 01 31 21 03 01 73  68 61 30 1C 08 80 00     !..1!..sha0.... 
```

## Opcodes

```
  0: 0x0287 [0x32] ExtData[1]->MainSpeed = 40* * 0.1
  1: 0x028A [0x1F] MOVE_ENTITY: EventEntity moves to X=-15.207*, Z=27.493*, Y=-6.000*
  2: 0x0292 [0x1F] MOVE_ENTITY: Update entity position (mode=1)
  3: 0x0294 [0x1E] EventEntity looks at Mishhar (ID: 16982446/0x010321AE) and starts talking
  4: 0x0299 [0x1C] WAIT(60* ticks)
  5: 0x029C [0x66] LOAD_EXT_SCHEDULER_MAIN(work_offset=9*, entity1=Foudeel (ID: 16982321/0x01032131), entity2=Foudeel (ID: 16982321/0x01032131), action="sha0")
  6: 0x02AB [0x1C] WAIT(120* ticks)
  7: 0x02AE [0x00] END_REQSTACK()
```
