# Event 65535

## Metadata

| Field           | Value    |
|-----------------|----------|
| Event Index     | 119/138  |
| Offset          | 0x69B9   |
| Data Size       | 41 bytes |
| Calculated Size | 41 bytes |
| Instructions    | 10       |

```
      00 01 02 03 04 05 06 07  08 09 0A 0B 0C 0D 0E 0F
      -- -- -- -- -- -- -- --  -- -- -- -- -- -- -- --
69B0:                             03 1B 00 D6 82 06 1C           .......
69C0: 00 B4 0A 1B 00 02 1B 00  02 80 02 D4 69 B4 0C 1B  ............i...
69D0: 00 01 C5 69 B4 0B 02 1C  00 02 80 00 E1 69 B4 06  ...i.........i..
69E0: 00 00                                             ..              
```

## Opcodes

```
  0: 0x69B9 [0x03] ExtData[1]->WorkLocal[27] = 3600*
  1: 0x69BE [0x06] ExtData[1]->WorkLocal[28] = 0
  2: 0x69C1 [0xB4] UI_WINDOW_STRING_HANDLER(case=0x0A - Open event time window, work_offset=ExtData[1]->WorkLocal[27])
  3: 0x69C5 [0x02] IF !(ExtData[1]->WorkLocal[27] <= 0*) GOTO 0x69D4
  4: 0x69CD [0xB4] UI_WINDOW_STRING_HANDLER(case=0x0C - Get event time count value, work_offset=ExtData[1]->WorkLocal[27])
  5: 0x69D1 [0x01] GOTO 0x69C5
  6: 0x69D4 [0xB4] UI_WINDOW_STRING_HANDLER(case=0x0B - Destroy event time window)
  7: 0x69D6 [0x02] IF !(ExtData[1]->WorkLocal[28] == 0*) GOTO 0x69E1
  8: 0x69DE [0xB4] UI_WINDOW_STRING_HANDLER(case=0x06 - Toggle query message flag, flag_value=0x00)
  9: 0x69E1 [0x00] END_REQSTACK()
```
