# Event 65535

## Metadata

| Field           | Value    |
|-----------------|----------|
| Event Index     | 5/8      |
| Offset          | 0x000B   |
| Data Size       | 69 bytes |
| Calculated Size | 69 bytes |
| Instructions    | 9        |

```
      00 01 02 03 04 05 06 07  08 09 0A 0B 0C 0D 0E 0F
      -- -- -- -- -- -- -- --  -- -- -- -- -- -- -- --
0000:                                   5B 02 80 26 31             [..&1
0010: 0A 01 26 31 0A 01 74 6C  6B 30 1C 01 80 5B 02 80  ..&1..tlk0...[..
0020: 26 31 0A 01 26 31 0A 01  74 6C 6B 31 1C 03 80 5B  &1..&1..tlk1...[
0030: 02 80 26 31 0A 01 26 31  0A 01 75 74 75 30 27 10  ..&1..&1..utu0'.
0040: 21 31 0A 01 0D 1C 04 80  27 10 24 31 0A 01 0A 00  !1......'.$1....
```

## Opcodes

```
  0: 0x000B [0x5B] LOAD_EXT_SCHEDULER: Load scheduler "tlk0" with entities [Yve'noile (ID: 17445158/0x010A3126), Yve'noile (ID: 17445158/0x010A3126)], work=571*
  1: 0x001A [0x1C] WAIT(120* ticks)
  2: 0x001D [0x5B] LOAD_EXT_SCHEDULER: Load scheduler "tlk1" with entities [Yve'noile (ID: 17445158/0x010A3126), Yve'noile (ID: 17445158/0x010A3126)], work=571*
  3: 0x002C [0x1C] WAIT(60* ticks)
  4: 0x002F [0x5B] LOAD_EXT_SCHEDULER: Load scheduler "utu0" with entities [Yve'noile (ID: 17445158/0x010A3126), Yve'noile (ID: 17445158/0x010A3126)], work=571*
  5: 0x003E [0x27] REQ_SET(priority=0x10, entity_id=Grav'iton (ID: 17445153/0x010A3121), tag_num=0x0D)
  6: 0x0045 [0x1C] WAIT(30* ticks)
  7: 0x0048 [0x27] REQ_SET(priority=0x10, entity_id=Eald'narche (ID: 17445156/0x010A3124), tag_num=0x0A)
  8: 0x004F [0x00] END_REQSTACK()
```
