# Event 65535

## Metadata

| Field           | Value    |
|-----------------|----------|
| Event Index     | 14/47    |
| Offset          | 0x02CA   |
| Data Size       | 82 bytes |
| Calculated Size | 82 bytes |
| Instructions    | 13       |

```
      00 01 02 03 04 05 06 07  08 09 0A 0B 0C 0D 0E 0F
      -- -- -- -- -- -- -- --  -- -- -- -- -- -- -- --
02C0:                                32 1B 80 1F 00 46            2....F
02D0: 80 47 80 11 80 1F 01 4B  43 10 0F 01 48 80 1C 00  .G.....KC...H...
02E0: 80 02 03 10 38 80 80 F3  02 4B 44 10 0F 01 49 80  ....8....KD...I.
02F0: 01 FA 02 4B 4A 10 0F 01  49 80 66 03 80 43 10 0F  ...KJ...I.f..C..
0300: 01 43 10 0F 01 74 6C 6B  30 1C 1E 80 66 03 80 43  .C...tlk0...f..C
0310: 10 0F 01 43 10 0F 01 74  6C 6B 31 00              ...C...tlk1.    
```

## Opcodes

```
  0: 0x02CA [0x32] ExtData[1]->MainSpeed = 13* * 0.1
  1: 0x02CD [0x1F] MOVE_ENTITY: EventEntity moves to X=-7.926*, Z=-100.586*, Y=1.399*
  2: 0x02D5 [0x1F] MOVE_ENTITY: Update entity position (mode=1)
  3: 0x02D7 [0x4B] UPDATE_ENTITY_YAW(entity=Pulonono (ID: 17764419/0x010F1043), yaw=4.08°*)
  4: 0x02DE [0x1C] WAIT(30* ticks)
  5: 0x02E1 [0x02] IF !(Work_Zone[3] == 3*) GOTO 0x02F3
  6: 0x02E9 [0x4B] UPDATE_ENTITY_YAW(entity=Unnamed NPC (ID: 17764420/0x010F1044), yaw=2.81°*)
  7: 0x02F0 [0x01] GOTO 0x02FA
  8: 0x02F3 [0x4B] UPDATE_ENTITY_YAW(entity=Unnamed NPC (ID: 17764426/0x010F104A), yaw=2.81°*)

SUBROUTINE_02FA:
  9: 0x02FA [0x66] LOAD_EXT_SCHEDULER_MAIN: Load scheduler "tlk0" with entities [Pulonono (ID: 17764419/0x010F1043), Pulonono (ID: 17764419/0x010F1043)], work=49*
 10: 0x0309 [0x1C] WAIT(60* ticks)
 11: 0x030C [0x66] LOAD_EXT_SCHEDULER_MAIN: Load scheduler "tlk1" with entities [Pulonono (ID: 17764419/0x010F1043), Pulonono (ID: 17764419/0x010F1043)], work=49*
 12: 0x031B [0x00] END_REQSTACK()
```
