# Event 65535

## Metadata

| Field           | Value    |
|-----------------|----------|
| Event Index     | 13/47    |
| Offset          | 0x028C   |
| Data Size       | 62 bytes |
| Calculated Size | 62 bytes |
| Instructions    | 10       |

```
      00 01 02 03 04 05 06 07  08 09 0A 0B 0C 0D 0E 0F
      -- -- -- -- -- -- -- --  -- -- -- -- -- -- -- --
0280:                                      32 1B 80 1F              2...
0290: 00 1C 80 1D 80 15 80 1F  01 1E 44 10 0F 01 1C 00  ..........D.....
02A0: 80 4B 44 10 0F 01 45 80  66 03 80 43 10 0F 01 43  .KD...E.f..C...C
02B0: 10 0F 01 74 6C 6B 30 1C  1E 80 66 03 80 43 10 0F  ...tlk0...f..C..
02C0: 01 43 10 0F 01 74 6C 6B  31 00                    .C...tlk1.      
```

## Opcodes

```
  0: 0x028C [0x32] ExtData[1]->MainSpeed = 13* * 0.1
  1: 0x028F [0x1F] MOVE_ENTITY: EventEntity moves to X=-11.919*, Z=-114.962*, Y=1.548*
  2: 0x0297 [0x1F] MOVE_ENTITY: Update entity position (mode=1)
  3: 0x0299 [0x1E] EventEntity looks at Unnamed NPC (ID: 17764420/0x010F1044) and starts talking
  4: 0x029E [0x1C] WAIT(30* ticks)
  5: 0x02A1 [0x4B] UPDATE_ENTITY_YAW(entity=Unnamed NPC (ID: 17764420/0x010F1044), yaw=5.44°*)
  6: 0x02A8 [0x66] LOAD_EXT_SCHEDULER_MAIN: Load scheduler "tlk0" with entities [Pulonono (ID: 17764419/0x010F1043), Pulonono (ID: 17764419/0x010F1043)], work=49*
  7: 0x02B7 [0x1C] WAIT(60* ticks)
  8: 0x02BA [0x66] LOAD_EXT_SCHEDULER_MAIN: Load scheduler "tlk1" with entities [Pulonono (ID: 17764419/0x010F1043), Pulonono (ID: 17764419/0x010F1043)], work=49*
  9: 0x02C9 [0x00] END_REQSTACK()
```
