# Event 65535

## Metadata

| Field           | Value    |
|-----------------|----------|
| Event Index     | 16/47    |
| Offset          | 0x0363   |
| Data Size       | 73 bytes |
| Calculated Size | 73 bytes |
| Instructions    | 13       |

```
      00 01 02 03 04 05 06 07  08 09 0A 0B 0C 0D 0E 0F
      -- -- -- -- -- -- -- --  -- -- -- -- -- -- -- --
0360:          32 1B 80 1F 00  46 80 47 80 11 80 1F 01     2....F.G.....
0370: 4B 43 10 0F 01 48 80 1C  00 80 66 03 80 43 10 0F  KC...H....f..C..
0380: 01 43 10 0F 01 74 6C 6B  30 1C 1E 80 66 03 80 43  .C...tlk0...f..C
0390: 10 0F 01 43 10 0F 01 74  6C 6B 31 1C 1E 80 32 1B  ...C...tlk1...2.
03A0: 80 1F 00 2B 80 2C 80 11  80 1F 01 00              ...+.,......    
```

## Opcodes

```
  0: 0x0363 [0x32] ExtData[1]->MainSpeed = 13* * 0.1
  1: 0x0366 [0x1F] MOVE_ENTITY: EventEntity moves to X=-7.926*, Z=-100.586*, Y=1.399*
  2: 0x036E [0x1F] MOVE_ENTITY: Update entity position (mode=1)
  3: 0x0370 [0x4B] UPDATE_ENTITY_YAW(entity=Pulonono (ID: 17764419/0x010F1043), yaw=4.08°*)
  4: 0x0377 [0x1C] WAIT(30* ticks)
  5: 0x037A [0x66] LOAD_EXT_SCHEDULER_MAIN: Load scheduler "tlk0" with entities [Pulonono (ID: 17764419/0x010F1043), Pulonono (ID: 17764419/0x010F1043)], work=49*
  6: 0x0389 [0x1C] WAIT(60* ticks)
  7: 0x038C [0x66] LOAD_EXT_SCHEDULER_MAIN: Load scheduler "tlk1" with entities [Pulonono (ID: 17764419/0x010F1043), Pulonono (ID: 17764419/0x010F1043)], work=49*
  8: 0x039B [0x1C] WAIT(60* ticks)
  9: 0x039E [0x32] ExtData[1]->MainSpeed = 13* * 0.1
 10: 0x03A1 [0x1F] MOVE_ENTITY: EventEntity moves to X=-9.815*, Z=-100.532*, Y=1.399*
 11: 0x03A9 [0x1F] MOVE_ENTITY: Update entity position (mode=1)
 12: 0x03AB [0x00] END_REQSTACK()
```
