# Event 65535

## Metadata

| Field           | Value    |
|-----------------|----------|
| Event Index     | 15/47    |
| Offset          | 0x031C   |
| Data Size       | 71 bytes |
| Calculated Size | 71 bytes |
| Instructions    | 13       |

```
      00 01 02 03 04 05 06 07  08 09 0A 0B 0C 0D 0E 0F
      -- -- -- -- -- -- -- --  -- -- -- -- -- -- -- --
0310:                                      32 1B 80 1F              2...
0320: 00 1C 80 1D 80 15 80 1F  01 1E 44 10 0F 01 1C 00  ..........D.....
0330: 80 66 03 80 43 10 0F 01  43 10 0F 01 74 6C 6B 30  .f..C...C...tlk0
0340: 1C 1E 80 66 03 80 43 10  0F 01 43 10 0F 01 74 6C  ...f..C...C...tl
0350: 6B 31 1C 1E 80 32 1B 80  1F 00 17 80 18 80 15 80  k1...2..........
0360: 1F 01 00                                          ...             
```

## Opcodes

```
  0: 0x031C [0x32] ExtData[1]->MainSpeed = 13* * 0.1
  1: 0x031F [0x1F] MOVE_ENTITY: EventEntity moves to X=-11.919*, Z=-114.962*, Y=1.548*
  2: 0x0327 [0x1F] MOVE_ENTITY: Update entity position (mode=1)
  3: 0x0329 [0x1E] EventEntity looks at Unnamed NPC (ID: 17764420/0x010F1044) and starts talking
  4: 0x032E [0x1C] WAIT(30* ticks)
  5: 0x0331 [0x66] LOAD_EXT_SCHEDULER_MAIN: Load scheduler "tlk0" with entities [Pulonono (ID: 17764419/0x010F1043), Pulonono (ID: 17764419/0x010F1043)], work=49*
  6: 0x0340 [0x1C] WAIT(60* ticks)
  7: 0x0343 [0x66] LOAD_EXT_SCHEDULER_MAIN: Load scheduler "tlk1" with entities [Pulonono (ID: 17764419/0x010F1043), Pulonono (ID: 17764419/0x010F1043)], work=49*
  8: 0x0352 [0x1C] WAIT(60* ticks)
  9: 0x0355 [0x32] ExtData[1]->MainSpeed = 13* * 0.1
 10: 0x0358 [0x1F] MOVE_ENTITY: EventEntity moves to X=-10.342*, Z=-114.750*, Y=1.548*
 11: 0x0360 [0x1F] MOVE_ENTITY: Update entity position (mode=1)
 12: 0x0362 [0x00] END_REQSTACK()
```
