# 17313803 - Moogle-Ch

## Common Data

| Field            | Value                  |
|------------------|------------------------|
| Zone             | Mordion Gaol (ID: 131) |
| Block Size       | 8132 bytes             |
| Total Events     | 4                      |
| References Count | 860                    |

## List of Events

| Event ID              | Entrypoint   |   Size |   Instructions |
|-----------------------|--------------|--------|----------------|
| [65535](#event-65535) | 0x0000       |      1 |              1 |
| [100](#event-100)     | 0x0001       |     55 |             19 |
| [102](#event-102)     | 0x0038       |   4583 |            830 |
| [101](#event-101)     | 0x121F       |     21 |              8 |

## DAT References (imed_data)

|   Index | Hex Value   |   Dec Value |
|---------|-------------|-------------|
|       0 | 0x1C3E      |        7230 |
|       1 | 0x1C40      |        7232 |
|       2 | 0x1C41      |        7233 |
|       3 | 0x0001      |           1 |
|       4 | 0x0000      |           0 |
|       5 | 0xFFFFFFFF  |  4294967295 |
|       6 | 0x1C42      |        7234 |
|       7 | 0x1C43      |        7235 |
|       8 | 0x1C3F      |        7231 |
|       9 | 0x1C46      |        7238 |
|      10 | 0x0003      |           3 |
|      11 | 0x1C38      |        7224 |
|      12 | 0x7800      |       30720 |
|      13 | 0x0002      |           2 |
|      14 | 0x0004      |           4 |
|      15 | 0x0005      |           5 |
|      16 | 0x0006      |           6 |
|      17 | 0x0007      |           7 |
|      18 | 0x0008      |           8 |
|      19 | 0x0009      |           9 |
|      20 | 0x000A      |          10 |
|      21 | 0x000B      |          11 |
|      22 | 0x000C      |          12 |
|      23 | 0x000D      |          13 |
|      24 | 0x000E      |          14 |
|      25 | 0x000F      |          15 |
|      26 | 0x4000      |       16384 |
|      27 | 0x3800      |       14336 |
|      28 | 0x1C39      |        7225 |
|      29 | 0x00FF      |         255 |
|      30 | 0x0011      |          17 |
|      31 | 0x0012      |          18 |
|      32 | 0x001B      |          27 |
|      33 | 0x1C3A      |        7226 |
|      34 | 0x001E      |          30 |
|      35 | 0x1C3B      |        7227 |
|      36 | 0x001F      |          31 |
|      37 | 0xBFFFFFC0  |  3221225408 |
|      38 | 0x4000000   |    67108864 |
|      39 | 0x3FFC0000  |  1073479680 |
|      40 | 0x3F000000  |  1056964608 |
|      41 | 0x0800      |        2048 |
|      42 | 0x3FFFC100  |  1073725696 |
|      43 | 0x3F800000  |  1065353216 |
|      44 | 0x200000    |     2097152 |
|      45 | 0x3FC00000  |  1069547520 |
|      46 | 0xBFFFC000  |  3221209088 |
|      47 | 0xBFFFFFFC  |  3221225468 |
|      48 | 0x3FFFC000  |  1073725440 |
|      49 | 0x0030      |          48 |
|      50 | 0x006C      |         108 |
|      51 | 0x00AE      |         174 |
|      52 | 0x00C2      |         194 |
|      53 | 0x008F      |         143 |
|      54 | 0x0054      |          84 |
|      55 | 0x0034      |          52 |
|      56 | 0x0010      |          16 |
|      57 | 0x0013      |          19 |
|      58 | 0x0014      |          20 |
|      59 | 0x0015      |          21 |
|      60 | 0x0016      |          22 |
|      61 | 0x0017      |          23 |
|      62 | 0x0018      |          24 |
|      63 | 0x0019      |          25 |
|      64 | 0x001A      |          26 |
|      65 | 0x001C      |          28 |
|      66 | 0x001D      |          29 |
|      67 | 0x0020      |          32 |
|      68 | 0x0021      |          33 |
|      69 | 0x0022      |          34 |
|      70 | 0x0023      |          35 |
|      71 | 0x0024      |          36 |
|      72 | 0x0025      |          37 |
|      73 | 0x0026      |          38 |
|      74 | 0x0027      |          39 |
|      75 | 0x0028      |          40 |
|      76 | 0x0029      |          41 |
|      77 | 0x002A      |          42 |
|      78 | 0x002B      |          43 |
|      79 | 0x002C      |          44 |
|      80 | 0x002D      |          45 |
|      81 | 0x002E      |          46 |
|      82 | 0x002F      |          47 |
|      83 | 0x0031      |          49 |
|      84 | 0x0032      |          50 |
|      85 | 0x0033      |          51 |
|      86 | 0x0035      |          53 |
|      87 | 0x0036      |          54 |
|      88 | 0x0037      |          55 |
|      89 | 0x0038      |          56 |
|      90 | 0x0039      |          57 |
|      91 | 0x003A      |          58 |
|      92 | 0x003B      |          59 |
|      93 | 0x003C      |          60 |
|      94 | 0x003D      |          61 |
|      95 | 0x003E      |          62 |
|      96 | 0x003F      |          63 |
|      97 | 0x0040      |          64 |
|      98 | 0x0041      |          65 |
|      99 | 0x0042      |          66 |
|     100 | 0x0043      |          67 |
|     101 | 0x0044      |          68 |
|     102 | 0x0045      |          69 |
|     103 | 0x0046      |          70 |
|     104 | 0x0047      |          71 |
|     105 | 0x0048      |          72 |
|     106 | 0x0049      |          73 |
|     107 | 0x004A      |          74 |
|     108 | 0x004B      |          75 |
|     109 | 0x004C      |          76 |
|     110 | 0x004D      |          77 |
|     111 | 0x004E      |          78 |
|     112 | 0x004F      |          79 |
|     113 | 0x0050      |          80 |
|     114 | 0x0051      |          81 |
|     115 | 0x0052      |          82 |
|     116 | 0x0053      |          83 |
|     117 | 0x0055      |          85 |
|     118 | 0x0056      |          86 |
|     119 | 0x0057      |          87 |
|     120 | 0x0058      |          88 |
|     121 | 0x0059      |          89 |
|     122 | 0x005A      |          90 |
|     123 | 0x005B      |          91 |
|     124 | 0x005C      |          92 |
|     125 | 0x005D      |          93 |
|     126 | 0x005E      |          94 |
|     127 | 0x005F      |          95 |
|     128 | 0x0060      |          96 |
|     129 | 0x0061      |          97 |
|     130 | 0x0062      |          98 |
|     131 | 0x0063      |          99 |
|     132 | 0x0064      |         100 |
|     133 | 0x0065      |         101 |
|     134 | 0x0066      |         102 |
|     135 | 0x0067      |         103 |
|     136 | 0x0068      |         104 |
|     137 | 0x0069      |         105 |
|     138 | 0x006A      |         106 |
|     139 | 0x006B      |         107 |
|     140 | 0x006D      |         109 |
|     141 | 0x006E      |         110 |
|     142 | 0x006F      |         111 |
|     143 | 0x0070      |         112 |
|     144 | 0x0071      |         113 |
|     145 | 0x0072      |         114 |
|     146 | 0x0073      |         115 |
|     147 | 0x0074      |         116 |
|     148 | 0x0075      |         117 |
|     149 | 0x0076      |         118 |
|     150 | 0x0077      |         119 |
|     151 | 0x0078      |         120 |
|     152 | 0x0079      |         121 |
|     153 | 0x007A      |         122 |
|     154 | 0x007B      |         123 |
|     155 | 0x007C      |         124 |
|     156 | 0x007D      |         125 |
|     157 | 0x007E      |         126 |
|     158 | 0x007F      |         127 |
|     159 | 0x0080      |         128 |
|     160 | 0x0081      |         129 |
|     161 | 0x0082      |         130 |
|     162 | 0x0083      |         131 |
|     163 | 0x0084      |         132 |
|     164 | 0x0085      |         133 |
|     165 | 0x0086      |         134 |
|     166 | 0x0087      |         135 |
|     167 | 0x0088      |         136 |
|     168 | 0x0089      |         137 |
|     169 | 0x008A      |         138 |
|     170 | 0x008B      |         139 |
|     171 | 0x008C      |         140 |
|     172 | 0x008D      |         141 |
|     173 | 0x008E      |         142 |
|     174 | 0x0090      |         144 |
|     175 | 0x0091      |         145 |
|     176 | 0x0092      |         146 |
|     177 | 0x0093      |         147 |
|     178 | 0x0094      |         148 |
|     179 | 0x0095      |         149 |
|     180 | 0x0096      |         150 |
|     181 | 0x0097      |         151 |
|     182 | 0x0098      |         152 |
|     183 | 0x0099      |         153 |
|     184 | 0x009A      |         154 |
|     185 | 0x009B      |         155 |
|     186 | 0x009C      |         156 |
|     187 | 0x009D      |         157 |
|     188 | 0x009E      |         158 |
|     189 | 0x009F      |         159 |
|     190 | 0x00A0      |         160 |
|     191 | 0x00A1      |         161 |
|     192 | 0x00A2      |         162 |
|     193 | 0x00A3      |         163 |
|     194 | 0x00A4      |         164 |
|     195 | 0x00A5      |         165 |
|     196 | 0x00A6      |         166 |
|     197 | 0x00A7      |         167 |
|     198 | 0x00A8      |         168 |
|     199 | 0x00A9      |         169 |
|     200 | 0x00AA      |         170 |
|     201 | 0x00AB      |         171 |
|     202 | 0x00AC      |         172 |
|     203 | 0x00AD      |         173 |
|     204 | 0x00AF      |         175 |
|     205 | 0x00B0      |         176 |
|     206 | 0x00B1      |         177 |
|     207 | 0x00B2      |         178 |
|     208 | 0x00B3      |         179 |
|     209 | 0x00B4      |         180 |
|     210 | 0x00B5      |         181 |
|     211 | 0x00B6      |         182 |
|     212 | 0x00B7      |         183 |
|     213 | 0x00B8      |         184 |
|     214 | 0x00B9      |         185 |
|     215 | 0x00BA      |         186 |
|     216 | 0x00BB      |         187 |
|     217 | 0x00BC      |         188 |
|     218 | 0x00BD      |         189 |
|     219 | 0x00BE      |         190 |
|     220 | 0x00BF      |         191 |
|     221 | 0x00C0      |         192 |
|     222 | 0x00C1      |         193 |
|     223 | 0x00C3      |         195 |
|     224 | 0x00C4      |         196 |
|     225 | 0x00C5      |         197 |
|     226 | 0x00C6      |         198 |
|     227 | 0x00C7      |         199 |
|     228 | 0x00C8      |         200 |
|     229 | 0x00C9      |         201 |
|     230 | 0x00CA      |         202 |
|     231 | 0x00CB      |         203 |
|     232 | 0x00CC      |         204 |
|     233 | 0x00CD      |         205 |
|     234 | 0x00CE      |         206 |
|     235 | 0x00CF      |         207 |
|     236 | 0x00D0      |         208 |
|     237 | 0x00D1      |         209 |
|     238 | 0x00D2      |         210 |
|     239 | 0x00D3      |         211 |
|     240 | 0x00D4      |         212 |
|     241 | 0x00D5      |         213 |
|     242 | 0x00D6      |         214 |
|     243 | 0x00D7      |         215 |
|     244 | 0x00D8      |         216 |
|     245 | 0x00D9      |         217 |
|     246 | 0x00DA      |         218 |
|     247 | 0x00DB      |         219 |
|     248 | 0x00DC      |         220 |
|     249 | 0x00DD      |         221 |
|     250 | 0x00DE      |         222 |
|     251 | 0x00DF      |         223 |
|     252 | 0x00E0      |         224 |
|     253 | 0x00E1      |         225 |
|     254 | 0x00E2      |         226 |
|     255 | 0x00E3      |         227 |
|     256 | 0x00E4      |         228 |
|     257 | 0x00E5      |         229 |
|     258 | 0x00E6      |         230 |
|     259 | 0x00E7      |         231 |
|     260 | 0x00E8      |         232 |
|     261 | 0x00E9      |         233 |
|     262 | 0x00EA      |         234 |
|     263 | 0x00EB      |         235 |
|     264 | 0x00EC      |         236 |
|     265 | 0x00ED      |         237 |
|     266 | 0x00EE      |         238 |
|     267 | 0x00EF      |         239 |
|     268 | 0x00F0      |         240 |
|     269 | 0x00F1      |         241 |
|     270 | 0x00F2      |         242 |
|     271 | 0x00F3      |         243 |
|     272 | 0x00F4      |         244 |
|     273 | 0x00F5      |         245 |
|     274 | 0x00F6      |         246 |
|     275 | 0x00F7      |         247 |
|     276 | 0x00F8      |         248 |
|     277 | 0x00F9      |         249 |
|     278 | 0x00FA      |         250 |
|     279 | 0x00FB      |         251 |
|     280 | 0x00FC      |         252 |
|     281 | 0x00FD      |         253 |
|     282 | 0x00FE      |         254 |
|     283 | 0x0100      |         256 |
|     284 | 0x0101      |         257 |
|     285 | 0x0102      |         258 |
|     286 | 0x0103      |         259 |
|     287 | 0x0104      |         260 |
|     288 | 0x0105      |         261 |
|     289 | 0x0106      |         262 |
|     290 | 0x0107      |         263 |
|     291 | 0x0108      |         264 |
|     292 | 0x0109      |         265 |
|     293 | 0x010A      |         266 |
|     294 | 0x010B      |         267 |
|     295 | 0x010C      |         268 |
|     296 | 0x010D      |         269 |
|     297 | 0x010E      |         270 |
|     298 | 0x010F      |         271 |
|     299 | 0x0110      |         272 |
|     300 | 0x0111      |         273 |
|     301 | 0x0112      |         274 |
|     302 | 0x0113      |         275 |
|     303 | 0x0114      |         276 |
|     304 | 0x0115      |         277 |
|     305 | 0x0116      |         278 |
|     306 | 0x0117      |         279 |
|     307 | 0x0118      |         280 |
|     308 | 0x0119      |         281 |
|     309 | 0x011A      |         282 |
|     310 | 0x011B      |         283 |
|     311 | 0x011C      |         284 |
|     312 | 0x011D      |         285 |
|     313 | 0x011E      |         286 |
|     314 | 0x011F      |         287 |
|     315 | 0x0120      |         288 |
|     316 | 0x0121      |         289 |
|     317 | 0x0122      |         290 |
|     318 | 0x0123      |         291 |
|     319 | 0x0124      |         292 |
|     320 | 0x0125      |         293 |
|     321 | 0x0126      |         294 |
|     322 | 0x0127      |         295 |
|     323 | 0x0128      |         296 |
|     324 | 0x0129      |         297 |
|     325 | 0x012A      |         298 |
|     326 | 0x012B      |         299 |
|     327 | 0x012C      |         300 |
|     328 | 0x012D      |         301 |
|     329 | 0x012E      |         302 |
|     330 | 0x012F      |         303 |
|     331 | 0x0130      |         304 |
|     332 | 0x0131      |         305 |
|     333 | 0x0132      |         306 |
|     334 | 0x0133      |         307 |
|     335 | 0x0134      |         308 |
|     336 | 0x0135      |         309 |
|     337 | 0x0136      |         310 |
|     338 | 0x0137      |         311 |
|     339 | 0x0138      |         312 |
|     340 | 0x0139      |         313 |
|     341 | 0x013A      |         314 |
|     342 | 0x013B      |         315 |
|     343 | 0x013C      |         316 |
|     344 | 0x013D      |         317 |
|     345 | 0x013E      |         318 |
|     346 | 0x013F      |         319 |
|     347 | 0x0140      |         320 |
|     348 | 0x0141      |         321 |
|     349 | 0x0142      |         322 |
|     350 | 0x0143      |         323 |
|     351 | 0x0144      |         324 |
|     352 | 0x0145      |         325 |
|     353 | 0x0146      |         326 |
|     354 | 0x0147      |         327 |
|     355 | 0x0148      |         328 |
|     356 | 0x0149      |         329 |
|     357 | 0x014A      |         330 |
|     358 | 0x014B      |         331 |
|     359 | 0x014C      |         332 |
|     360 | 0x014D      |         333 |
|     361 | 0x014E      |         334 |
|     362 | 0x014F      |         335 |
|     363 | 0x0150      |         336 |
|     364 | 0x0151      |         337 |
|     365 | 0x0152      |         338 |
|     366 | 0x0153      |         339 |
|     367 | 0x0154      |         340 |
|     368 | 0x0155      |         341 |
|     369 | 0x0156      |         342 |
|     370 | 0x0157      |         343 |
|     371 | 0x0158      |         344 |
|     372 | 0x0159      |         345 |
|     373 | 0x015A      |         346 |
|     374 | 0x015B      |         347 |
|     375 | 0x015C      |         348 |
|     376 | 0x015D      |         349 |
|     377 | 0x015E      |         350 |
|     378 | 0x015F      |         351 |
|     379 | 0x0160      |         352 |
|     380 | 0x0161      |         353 |
|     381 | 0x0162      |         354 |
|     382 | 0x0163      |         355 |
|     383 | 0x0164      |         356 |
|     384 | 0x0165      |         357 |
|     385 | 0x0166      |         358 |
|     386 | 0x0167      |         359 |
|     387 | 0x0168      |         360 |
|     388 | 0x0169      |         361 |
|     389 | 0x016A      |         362 |
|     390 | 0x016B      |         363 |
|     391 | 0x016C      |         364 |
|     392 | 0x016D      |         365 |
|     393 | 0x016E      |         366 |
|     394 | 0x016F      |         367 |
|     395 | 0x0170      |         368 |
|     396 | 0x0171      |         369 |
|     397 | 0x0172      |         370 |
|     398 | 0x0173      |         371 |
|     399 | 0x0174      |         372 |
|     400 | 0x0175      |         373 |
|     401 | 0x0176      |         374 |
|     402 | 0x0177      |         375 |
|     403 | 0x0178      |         376 |
|     404 | 0x0179      |         377 |
|     405 | 0x017A      |         378 |
|     406 | 0x017B      |         379 |
|     407 | 0x017C      |         380 |
|     408 | 0x017D      |         381 |
|     409 | 0x017E      |         382 |
|     410 | 0x017F      |         383 |
|     411 | 0x0180      |         384 |
|     412 | 0x0181      |         385 |
|     413 | 0x0182      |         386 |
|     414 | 0x0183      |         387 |
|     415 | 0x0184      |         388 |
|     416 | 0x0185      |         389 |
|     417 | 0x0186      |         390 |
|     418 | 0x0187      |         391 |
|     419 | 0x0188      |         392 |
|     420 | 0x0189      |         393 |
|     421 | 0x018A      |         394 |
|     422 | 0x018B      |         395 |
|     423 | 0x018C      |         396 |
|     424 | 0x018D      |         397 |
|     425 | 0x018E      |         398 |
|     426 | 0x018F      |         399 |
|     427 | 0x0190      |         400 |
|     428 | 0x0191      |         401 |
|     429 | 0x0192      |         402 |
|     430 | 0x0193      |         403 |
|     431 | 0x0194      |         404 |
|     432 | 0x0195      |         405 |
|     433 | 0x0196      |         406 |
|     434 | 0x0197      |         407 |
|     435 | 0x0198      |         408 |
|     436 | 0x0199      |         409 |
|     437 | 0x019A      |         410 |
|     438 | 0x019B      |         411 |
|     439 | 0x019C      |         412 |
|     440 | 0x019D      |         413 |
|     441 | 0x019E      |         414 |
|     442 | 0x019F      |         415 |
|     443 | 0x01A0      |         416 |
|     444 | 0x01A1      |         417 |
|     445 | 0x01A2      |         418 |
|     446 | 0x01A3      |         419 |
|     447 | 0x01A4      |         420 |
|     448 | 0x01A5      |         421 |
|     449 | 0x01A6      |         422 |
|     450 | 0x01A7      |         423 |
|     451 | 0x01A8      |         424 |
|     452 | 0x01A9      |         425 |
|     453 | 0x01AA      |         426 |
|     454 | 0x01AB      |         427 |
|     455 | 0x01AC      |         428 |
|     456 | 0x01AD      |         429 |
|     457 | 0x01AE      |         430 |
|     458 | 0x01AF      |         431 |
|     459 | 0x01B0      |         432 |
|     460 | 0x01B1      |         433 |
|     461 | 0x01B2      |         434 |
|     462 | 0x01B3      |         435 |
|     463 | 0x01B4      |         436 |
|     464 | 0x01B5      |         437 |
|     465 | 0x01B6      |         438 |
|     466 | 0x01B7      |         439 |
|     467 | 0x01B8      |         440 |
|     468 | 0x01B9      |         441 |
|     469 | 0x01BA      |         442 |
|     470 | 0x01BB      |         443 |
|     471 | 0x01BC      |         444 |
|     472 | 0x01BD      |         445 |
|     473 | 0x01BE      |         446 |
|     474 | 0x01BF      |         447 |
|     475 | 0x01C0      |         448 |
|     476 | 0x01C1      |         449 |
|     477 | 0x01C2      |         450 |
|     478 | 0x01C3      |         451 |
|     479 | 0x01C4      |         452 |
|     480 | 0x01C5      |         453 |
|     481 | 0x01C6      |         454 |
|     482 | 0x01C7      |         455 |
|     483 | 0x01C8      |         456 |
|     484 | 0x01C9      |         457 |
|     485 | 0x01CA      |         458 |
|     486 | 0x01CB      |         459 |
|     487 | 0x01CC      |         460 |
|     488 | 0x01CD      |         461 |
|     489 | 0x01CE      |         462 |
|     490 | 0x01CF      |         463 |
|     491 | 0x01D0      |         464 |
|     492 | 0x01D1      |         465 |
|     493 | 0x01D2      |         466 |
|     494 | 0x01D3      |         467 |
|     495 | 0x01D4      |         468 |
|     496 | 0x01D5      |         469 |
|     497 | 0x01D6      |         470 |
|     498 | 0x01D7      |         471 |
|     499 | 0x01D8      |         472 |
|     500 | 0x01D9      |         473 |
|     501 | 0x01DA      |         474 |
|     502 | 0x01DB      |         475 |
|     503 | 0x01DC      |         476 |
|     504 | 0x01DD      |         477 |
|     505 | 0x01DE      |         478 |
|     506 | 0x01DF      |         479 |
|     507 | 0x01E0      |         480 |
|     508 | 0x01E1      |         481 |
|     509 | 0x01E2      |         482 |
|     510 | 0x01E3      |         483 |
|     511 | 0x01E4      |         484 |
|     512 | 0x01E5      |         485 |
|     513 | 0x01E6      |         486 |
|     514 | 0x01E7      |         487 |
|     515 | 0x01E8      |         488 |
|     516 | 0x01E9      |         489 |
|     517 | 0x01EA      |         490 |
|     518 | 0x01EB      |         491 |
|     519 | 0x01EC      |         492 |
|     520 | 0x01ED      |         493 |
|     521 | 0x01EE      |         494 |
|     522 | 0x01EF      |         495 |
|     523 | 0x01F0      |         496 |
|     524 | 0x01F1      |         497 |
|     525 | 0x01F2      |         498 |
|     526 | 0x01F3      |         499 |
|     527 | 0x01F4      |         500 |
|     528 | 0x01F5      |         501 |
|     529 | 0x01F6      |         502 |
|     530 | 0x01F7      |         503 |
|     531 | 0x01F8      |         504 |
|     532 | 0x01F9      |         505 |
|     533 | 0x01FA      |         506 |
|     534 | 0x01FB      |         507 |
|     535 | 0x01FC      |         508 |
|     536 | 0x01FD      |         509 |
|     537 | 0x01FE      |         510 |
|     538 | 0x01FF      |         511 |
|     539 | 0x0200      |         512 |
|     540 | 0x0201      |         513 |
|     541 | 0x0202      |         514 |
|     542 | 0x0203      |         515 |
|     543 | 0x0204      |         516 |
|     544 | 0x0205      |         517 |
|     545 | 0x0206      |         518 |
|     546 | 0x0207      |         519 |
|     547 | 0x0208      |         520 |
|     548 | 0x0209      |         521 |
|     549 | 0x020A      |         522 |
|     550 | 0x020B      |         523 |
|     551 | 0x020C      |         524 |
|     552 | 0x020D      |         525 |
|     553 | 0x020E      |         526 |
|     554 | 0x020F      |         527 |
|     555 | 0x0210      |         528 |
|     556 | 0x0211      |         529 |
|     557 | 0x0212      |         530 |
|     558 | 0x0213      |         531 |
|     559 | 0x0214      |         532 |
|     560 | 0x0215      |         533 |
|     561 | 0x0216      |         534 |
|     562 | 0x0217      |         535 |
|     563 | 0x0218      |         536 |
|     564 | 0x0219      |         537 |
|     565 | 0x021A      |         538 |
|     566 | 0x021B      |         539 |
|     567 | 0x021C      |         540 |
|     568 | 0x021D      |         541 |
|     569 | 0x021E      |         542 |
|     570 | 0x021F      |         543 |
|     571 | 0x0220      |         544 |
|     572 | 0x0221      |         545 |
|     573 | 0x0222      |         546 |
|     574 | 0x0223      |         547 |
|     575 | 0x0224      |         548 |
|     576 | 0x0225      |         549 |
|     577 | 0x0226      |         550 |
|     578 | 0x0227      |         551 |
|     579 | 0x0228      |         552 |
|     580 | 0x0229      |         553 |
|     581 | 0x022A      |         554 |
|     582 | 0x022B      |         555 |
|     583 | 0x022C      |         556 |
|     584 | 0x022D      |         557 |
|     585 | 0x022E      |         558 |
|     586 | 0x022F      |         559 |
|     587 | 0x0230      |         560 |
|     588 | 0x0231      |         561 |
|     589 | 0x0232      |         562 |
|     590 | 0x0233      |         563 |
|     591 | 0x0234      |         564 |
|     592 | 0x0235      |         565 |
|     593 | 0x0236      |         566 |
|     594 | 0x0237      |         567 |
|     595 | 0x0238      |         568 |
|     596 | 0x0239      |         569 |
|     597 | 0x023A      |         570 |
|     598 | 0x023B      |         571 |
|     599 | 0x023C      |         572 |
|     600 | 0x023D      |         573 |
|     601 | 0x023E      |         574 |
|     602 | 0x023F      |         575 |
|     603 | 0x0240      |         576 |
|     604 | 0x0241      |         577 |
|     605 | 0x0242      |         578 |
|     606 | 0x0243      |         579 |
|     607 | 0x0244      |         580 |
|     608 | 0x0245      |         581 |
|     609 | 0x0246      |         582 |
|     610 | 0x0247      |         583 |
|     611 | 0x0248      |         584 |
|     612 | 0x0249      |         585 |
|     613 | 0x024A      |         586 |
|     614 | 0x024B      |         587 |
|     615 | 0x024C      |         588 |
|     616 | 0x024D      |         589 |
|     617 | 0x024E      |         590 |
|     618 | 0x024F      |         591 |
|     619 | 0x0250      |         592 |
|     620 | 0x0251      |         593 |
|     621 | 0x0252      |         594 |
|     622 | 0x0253      |         595 |
|     623 | 0x0254      |         596 |
|     624 | 0x0255      |         597 |
|     625 | 0x0256      |         598 |
|     626 | 0x0257      |         599 |
|     627 | 0x0258      |         600 |
|     628 | 0x0259      |         601 |
|     629 | 0x025A      |         602 |
|     630 | 0x025B      |         603 |
|     631 | 0x025C      |         604 |
|     632 | 0x025D      |         605 |
|     633 | 0x025E      |         606 |
|     634 | 0x025F      |         607 |
|     635 | 0x0260      |         608 |
|     636 | 0x0261      |         609 |
|     637 | 0x0262      |         610 |
|     638 | 0x0263      |         611 |
|     639 | 0x0264      |         612 |
|     640 | 0x0265      |         613 |
|     641 | 0x0266      |         614 |
|     642 | 0x0267      |         615 |
|     643 | 0x0268      |         616 |
|     644 | 0x0269      |         617 |
|     645 | 0x026A      |         618 |
|     646 | 0x026B      |         619 |
|     647 | 0x026C      |         620 |
|     648 | 0x026D      |         621 |
|     649 | 0x026E      |         622 |
|     650 | 0x026F      |         623 |
|     651 | 0x0270      |         624 |
|     652 | 0x0271      |         625 |
|     653 | 0x0272      |         626 |
|     654 | 0x0273      |         627 |
|     655 | 0x0274      |         628 |
|     656 | 0x0275      |         629 |
|     657 | 0x0276      |         630 |
|     658 | 0x0277      |         631 |
|     659 | 0x0278      |         632 |
|     660 | 0x0279      |         633 |
|     661 | 0x027A      |         634 |
|     662 | 0x027B      |         635 |
|     663 | 0x027C      |         636 |
|     664 | 0x027D      |         637 |
|     665 | 0x027E      |         638 |
|     666 | 0x027F      |         639 |
|     667 | 0x0280      |         640 |
|     668 | 0x0281      |         641 |
|     669 | 0x0282      |         642 |
|     670 | 0x0283      |         643 |
|     671 | 0x0284      |         644 |
|     672 | 0x0285      |         645 |
|     673 | 0x0286      |         646 |
|     674 | 0x0287      |         647 |
|     675 | 0x0288      |         648 |
|     676 | 0x0289      |         649 |
|     677 | 0x028A      |         650 |
|     678 | 0x028B      |         651 |
|     679 | 0x028C      |         652 |
|     680 | 0x028D      |         653 |
|     681 | 0x028E      |         654 |
|     682 | 0x028F      |         655 |
|     683 | 0x0290      |         656 |
|     684 | 0x0291      |         657 |
|     685 | 0x0292      |         658 |
|     686 | 0x0293      |         659 |
|     687 | 0x0294      |         660 |
|     688 | 0x0295      |         661 |
|     689 | 0x0296      |         662 |
|     690 | 0x0297      |         663 |
|     691 | 0x0298      |         664 |
|     692 | 0x0299      |         665 |
|     693 | 0x029A      |         666 |
|     694 | 0x029B      |         667 |
|     695 | 0x029C      |         668 |
|     696 | 0x029D      |         669 |
|     697 | 0x029E      |         670 |
|     698 | 0x029F      |         671 |
|     699 | 0x02A0      |         672 |
|     700 | 0x02A1      |         673 |
|     701 | 0x02A2      |         674 |
|     702 | 0x02A3      |         675 |
|     703 | 0x02A4      |         676 |
|     704 | 0x02A5      |         677 |
|     705 | 0x02A6      |         678 |
|     706 | 0x02A7      |         679 |
|     707 | 0x02A8      |         680 |
|     708 | 0x02A9      |         681 |
|     709 | 0x02AA      |         682 |
|     710 | 0x02AB      |         683 |
|     711 | 0x02AC      |         684 |
|     712 | 0x02AD      |         685 |
|     713 | 0x02AE      |         686 |
|     714 | 0x02AF      |         687 |
|     715 | 0x02B0      |         688 |
|     716 | 0x02B1      |         689 |
|     717 | 0x02B2      |         690 |
|     718 | 0x02B3      |         691 |
|     719 | 0x02B4      |         692 |
|     720 | 0x02B5      |         693 |
|     721 | 0x02B6      |         694 |
|     722 | 0x02B7      |         695 |
|     723 | 0x02B8      |         696 |
|     724 | 0x02B9      |         697 |
|     725 | 0x02BA      |         698 |
|     726 | 0x02BB      |         699 |
|     727 | 0x02BC      |         700 |
|     728 | 0x02BD      |         701 |
|     729 | 0x02BE      |         702 |
|     730 | 0x02BF      |         703 |
|     731 | 0x02C0      |         704 |
|     732 | 0x02C1      |         705 |
|     733 | 0x02C2      |         706 |
|     734 | 0x02C3      |         707 |
|     735 | 0x02C4      |         708 |
|     736 | 0x02C5      |         709 |
|     737 | 0x02C6      |         710 |
|     738 | 0x02C7      |         711 |
|     739 | 0x02C8      |         712 |
|     740 | 0x02C9      |         713 |
|     741 | 0x02CA      |         714 |
|     742 | 0x02CB      |         715 |
|     743 | 0x02CC      |         716 |
|     744 | 0x02CD      |         717 |
|     745 | 0x02CE      |         718 |
|     746 | 0x02CF      |         719 |
|     747 | 0x02D0      |         720 |
|     748 | 0x02D1      |         721 |
|     749 | 0x02D2      |         722 |
|     750 | 0x02D3      |         723 |
|     751 | 0x02D4      |         724 |
|     752 | 0x02D5      |         725 |
|     753 | 0x02D6      |         726 |
|     754 | 0x02D7      |         727 |
|     755 | 0x02D8      |         728 |
|     756 | 0x02D9      |         729 |
|     757 | 0x02DA      |         730 |
|     758 | 0x02DB      |         731 |
|     759 | 0x02DC      |         732 |
|     760 | 0x02DD      |         733 |
|     761 | 0x02DE      |         734 |
|     762 | 0x02DF      |         735 |
|     763 | 0x02E0      |         736 |
|     764 | 0x02E1      |         737 |
|     765 | 0x02E2      |         738 |
|     766 | 0x02E3      |         739 |
|     767 | 0x02E4      |         740 |
|     768 | 0x02E5      |         741 |
|     769 | 0x02E6      |         742 |
|     770 | 0x02E7      |         743 |
|     771 | 0x02E8      |         744 |
|     772 | 0x02E9      |         745 |
|     773 | 0x02EA      |         746 |
|     774 | 0x02EB      |         747 |
|     775 | 0x02EC      |         748 |
|     776 | 0x02ED      |         749 |
|     777 | 0x02EE      |         750 |
|     778 | 0x02EF      |         751 |
|     779 | 0x02F0      |         752 |
|     780 | 0x02F1      |         753 |
|     781 | 0x02F2      |         754 |
|     782 | 0x02F3      |         755 |
|     783 | 0x02F4      |         756 |
|     784 | 0x02F5      |         757 |
|     785 | 0x02F6      |         758 |
|     786 | 0x02F7      |         759 |
|     787 | 0x02F8      |         760 |
|     788 | 0x02F9      |         761 |
|     789 | 0x02FA      |         762 |
|     790 | 0x02FB      |         763 |
|     791 | 0x02FC      |         764 |
|     792 | 0x02FD      |         765 |
|     793 | 0x02FE      |         766 |
|     794 | 0x02FF      |         767 |
|     795 | 0x0300      |         768 |
|     796 | 0x0301      |         769 |
|     797 | 0x0302      |         770 |
|     798 | 0x0303      |         771 |
|     799 | 0x0304      |         772 |
|     800 | 0x0305      |         773 |
|     801 | 0x0306      |         774 |
|     802 | 0x0307      |         775 |
|     803 | 0x0308      |         776 |
|     804 | 0x0309      |         777 |
|     805 | 0x030A      |         778 |
|     806 | 0x030B      |         779 |
|     807 | 0x030C      |         780 |
|     808 | 0x030D      |         781 |
|     809 | 0x030E      |         782 |
|     810 | 0x030F      |         783 |
|     811 | 0x0310      |         784 |
|     812 | 0x0311      |         785 |
|     813 | 0x0312      |         786 |
|     814 | 0x0313      |         787 |
|     815 | 0x0314      |         788 |
|     816 | 0x0315      |         789 |
|     817 | 0x0316      |         790 |
|     818 | 0x0317      |         791 |
|     819 | 0x0318      |         792 |
|     820 | 0x0319      |         793 |
|     821 | 0x031A      |         794 |
|     822 | 0x031B      |         795 |
|     823 | 0x031C      |         796 |
|     824 | 0x031D      |         797 |
|     825 | 0x031E      |         798 |
|     826 | 0x031F      |         799 |
|     827 | 0x0320      |         800 |
|     828 | 0x0321      |         801 |
|     829 | 0x0322      |         802 |
|     830 | 0x0323      |         803 |
|     831 | 0x0324      |         804 |
|     832 | 0x0325      |         805 |
|     833 | 0x0326      |         806 |
|     834 | 0x0327      |         807 |
|     835 | 0x0328      |         808 |
|     836 | 0x0329      |         809 |
|     837 | 0x032A      |         810 |
|     838 | 0x032B      |         811 |
|     839 | 0x032C      |         812 |
|     840 | 0x032D      |         813 |
|     841 | 0x032E      |         814 |
|     842 | 0x032F      |         815 |
|     843 | 0x0330      |         816 |
|     844 | 0x0331      |         817 |
|     845 | 0x0332      |         818 |
|     846 | 0x0333      |         819 |
|     847 | 0x0334      |         820 |
|     848 | 0x0335      |         821 |
|     849 | 0x0336      |         822 |
|     850 | 0x0337      |         823 |
|     851 | 0x0338      |         824 |
|     852 | 0x0339      |         825 |
|     853 | 0x033A      |         826 |
|     854 | 0x033B      |         827 |
|     855 | 0x033C      |         828 |
|     856 | 0x033D      |         829 |
|     857 | 0x033E      |         830 |
|     858 | 0x1C44      |        7236 |
|     859 | 0x1C45      |        7237 |

## String References

- **7224**: Choose a word category ([first name/last name]). [1-letter words."-letter words."-letter words./4-letter words./5-letter words./6-letter words./7-letter words./8-letter words./9-letter words./10-letter words./11-letter words./12-letter words./13-letter words./14-letter words./Return./Cancel.]
- **7225**: Is this name okay? [%0 %1? Yes!/On second thought...]
- **7226**: That name is currently unavailable. Please try another combination.
- **7227**: Choose a word.(%0) [$0/$1/$2/$3/$4/$5/$6/$7/$8/$9/$10/$11/$12/$13/$14/$15/$16/$17/$18/$19/$20/$21/$22/$23/$24/$25/$26/$27/$28/$29/Cancel./View other options.]
- **7230**: Here you can change the name of the chocobo you are currently raising.
- **7231**: You can rename the chocobo certified on this $0.
- **7232**: Would you like to change the name of your chocobo?
- **7233**: Give your chocobo a new name? [Yes, it's about time!/No, I just can't!]
- **7234**: This chocobo's name has been changed to %0.
- **7235**: This chocobo's name change has been cancelled.
- **7236**: Recently, an adventurer known as %0 came to see me about naming [his/her] chocobo "%1."
- **7237**: Recently, an adventurer known as %0 came to see me about putting the name "%1" on [his/her] $0.
- **7238**: Your chocobo's name change was not processed.

## Events

### Event 65535

#### Metadata

| Field        | Value   |
|--------------|---------|
| Entrypoint   | 0x0000  |
| Data Size    | 1 bytes |
| Instructions | 1       |

```
      00 01 02 03 04 05 06 07  08 09 0A 0B 0C 0D 0E 0F
      -- -- -- -- -- -- -- --  -- -- -- -- -- -- -- --
0000: 00                                                .               
```

#### Opcodes

```
  0: 0x0000 [0x00] END_REQSTACK()
```

### Event 100

#### Metadata

| Field        | Value    |
|--------------|----------|
| Entrypoint   | 0x0001   |
| Data Size    | 55 bytes |
| Instructions | 19       |

```
      00 01 02 03 04 05 06 07  08 09 0A 0B 0C 0D 0E 0F
      -- -- -- -- -- -- -- --  -- -- -- -- -- -- -- --
0000:    1D 00 80 23 1D 01 80  23 24 02 80 03 80 04 80   ...#...#$......
0010: 25 02 00 10 04 80 00 32  00 1A 7E 00 02 02 00 05  %......2..~.....
0020: 80 01 2B 00 1D 06 80 23  01 2F 00 1D 07 80 23 01  ..+....#./....#.
0030: 36 00 1D 07 80 23 21 00                           6....#!.        
```

#### Opcodes

```
  0: 0x0001 [0x1D] PRINT_EVENT_MESSAGE(message_id=7230*)
    → "Here you can change the name of the chocobo you are currently raising."
  1: 0x0004 [0x23] WAIT_FOR_DIALOG_INTERACTION
  2: 0x0005 [0x1D] PRINT_EVENT_MESSAGE(message_id=7232*)
    → "Would you like to change the name of your chocobo?"
  3: 0x0008 [0x23] WAIT_FOR_DIALOG_INTERACTION
  4: 0x0009 [0x24] CREATE_DIALOG(message_id=7233*, default_option=1*, option_flags=0*)
    → "Give your chocobo a new name? [Yes, it's about time!/No, I just can't!]"
  5: 0x0010 [0x25] WAIT_DIALOG_SELECT()
  6: 0x0011 [0x02] IF !(Work_Zone[0] == 0*) GOTO 0x0032
  7: 0x0019 [0x1A] CALL_SUBROUTINE(address=0x007E)
  8: 0x001C [0x02] IF !(ExtData[1]->WorkLocal[2] == 4294967295*) GOTO 0x002B
  9: 0x0024 [0x1D] PRINT_EVENT_MESSAGE(message_id=7234*)
    → "This chocobo's name has been changed to %0."
 10: 0x0027 [0x23] WAIT_FOR_DIALOG_INTERACTION
 11: 0x0028 [0x01] GOTO 0x002F
 12: 0x002B [0x1D] PRINT_EVENT_MESSAGE(message_id=7235*)
    → "This chocobo's name change has been cancelled."
 13: 0x002E [0x23] WAIT_FOR_DIALOG_INTERACTION

SUBROUTINE_002F:
 14: 0x002F [0x01] GOTO 0x0036
 15: 0x0032 [0x1D] PRINT_EVENT_MESSAGE(message_id=7235*)
    → "This chocobo's name change has been cancelled."
 16: 0x0035 [0x23] WAIT_FOR_DIALOG_INTERACTION

SUBROUTINE_0036:
 17: 0x0036 [0x21] END_EVENT
 18: 0x0037 [0x00] END_REQSTACK()
```

### Event 102

#### Metadata

| Field        | Value      |
|--------------|------------|
| Entrypoint   | 0x0038     |
| Data Size    | 4583 bytes |
| Instructions | 472        |

```
      00 01 02 03 04 05 06 07  08 09 0A 0B 0C 0D 0E 0F
      -- -- -- -- -- -- -- --  -- -- -- -- -- -- -- --
0030:                          1D 08 80 23 1D 01 80 23          ...#...#
0040: 24 02 80 03 80 04 80 25  02 00 10 04 80 00 78 00  $......%......x.
0050: 1A 7E 00 02 02 00 05 80  01 71 00 02 02 10 04 80  .~.......q......
0060: 00 6A 00 1D 06 80 23 01  6E 00 1D 09 80 23 01 75  .j....#.n....#.u
0070: 00 1D 07 80 23 01 7C 00  1D 07 80 23 21 00 06 00  ....#.|....#!...
0080: 00 06 01 00 06 02 00 06  03 00 06 04 00 06 1F 17  ................
0090: 06 01 17 B4 01 05 00 04  80 B4 04 05 00 0A 80 B4  ................
00A0: 00 05 00 3F 3F 3F 00 00  00 00 00 00 00 00 00 00  ...???..........
00B0: 00 00 00 B4 04 05 00 04  80 02 01 00 04 80 00 0F  ................
00C0: 07 02 02 00 04 80 80 85  03 03 02 10 02 00 24 0B  ..............$.
00D0: 80 04 80 0C 80 25 02 00  10 04 80 00 04 01 03 02  .....%..........
00E0: 10 00 10 1A 2A 07 02 02  10 05 80 01 01 01 03 03  ....*...........
00F0: 00 02 10 03 1F 17 03 10  1A 58 0A B4 04 05 00 04  .........X......
0100: 80 01 82 03 02 00 10 03  80 00 32 01 03 02 10 00  ..........2.....
0110: 10 1A 2A 07 02 02 10 05  80 01 2F 01 03 03 00 02  ..*......./.....
0120: 10 03 1F 17 03 10 1A 58  0A B4 04 05 00 04 80 01  .......X........
0130: 82 03 02 00 10 0D 80 00  60 01 03 02 10 00 10 1A  ........`.......
0140: 2A 07 02 02 10 05 80 01  5D 01 03 03 00 02 10 03  *.......].......
0150: 1F 17 03 10 1A 58 0A B4  04 05 00 04 80 01 82 03  .....X..........
0160: 02 00 10 0A 80 00 8E 01  03 02 10 00 10 1A 2A 07  ..............*.
0170: 02 02 10 05 80 01 8B 01  03 03 00 02 10 03 1F 17  ................
0180: 03 10 1A 58 0A B4 04 05  00 04 80 01 82 03 02 00  ...X............
0190: 10 0E 80 00 BC 01 03 02  10 00 10 1A 2A 07 02 02  ............*...
01A0: 10 05 80 01 B9 01 03 03  00 02 10 03 1F 17 03 10  ................
01B0: 1A 58 0A B4 04 05 00 04  80 01 82 03 02 00 10 0F  .X..............
01C0: 80 00 EA 01 03 02 10 00  10 1A 2A 07 02 02 10 05  ..........*.....
01D0: 80 01 E7 01 03 03 00 02  10 03 1F 17 03 10 1A 58  ...............X
01E0: 0A B4 04 05 00 04 80 01  82 03 02 00 10 10 80 00  ................
01F0: 18 02 03 02 10 00 10 1A  2A 07 02 02 10 05 80 01  ........*.......
0200: 15 02 03 03 00 02 10 03  1F 17 03 10 1A 58 0A B4  .............X..
0210: 04 05 00 04 80 01 82 03  02 00 10 11 80 00 46 02  ..............F.
0220: 03 02 10 00 10 1A 2A 07  02 02 10 05 80 01 43 02  ......*.......C.
0230: 03 03 00 02 10 03 1F 17  03 10 1A 58 0A B4 04 05  ...........X....
0240: 00 04 80 01 82 03 02 00  10 12 80 00 74 02 03 02  ............t...
0250: 10 00 10 1A 2A 07 02 02  10 05 80 01 71 02 03 03  ....*.......q...
0260: 00 02 10 03 1F 17 03 10  1A 58 0A B4 04 05 00 04  .........X......
0270: 80 01 82 03 02 00 10 13  80 00 A2 02 03 02 10 00  ................
0280: 10 1A 2A 07 02 02 10 05  80 01 9F 02 03 03 00 02  ..*.............
0290: 10 03 1F 17 03 10 1A 58  0A B4 04 05 00 04 80 01  .......X........
02A0: 82 03 02 00 10 14 80 00  D0 02 03 02 10 00 10 1A  ................
02B0: 2A 07 02 02 10 05 80 01  CD 02 03 03 00 02 10 03  *...............
02C0: 1F 17 03 10 1A 58 0A B4  04 05 00 04 80 01 82 03  .....X..........
02D0: 02 00 10 15 80 00 FE 02  03 02 10 00 10 1A 2A 07  ..............*.
02E0: 02 02 10 05 80 01 FB 02  03 03 00 02 10 03 1F 17  ................
02F0: 03 10 1A 58 0A B4 04 05  00 04 80 01 82 03 02 00  ...X............
0300: 10 16 80 00 2C 03 03 02  10 00 10 1A 2A 07 02 02  ....,.......*...
0310: 10 05 80 01 29 03 03 03  00 02 10 03 1F 17 03 10  ....)...........
0320: 1A 58 0A B4 04 05 00 04  80 01 82 03 02 00 10 17  .X..............
0330: 80 00 5A 03 03 02 10 00  10 1A 2A 07 02 02 10 05  ..Z.......*.....
0340: 80 01 57 03 03 03 00 02  10 03 1F 17 03 10 1A 58  ..W............X
0350: 0A B4 04 05 00 04 80 01  82 03 02 00 10 18 80 00  ................
0360: 65 03 01 82 03 02 00 10  19 80 00 82 03 03 02 00  e...............
0370: 05 80 B4 01 05 00 0A 80  B4 04 05 00 04 80 1B 01  ................
0380: 82 03 01 0C 07 02 02 00  03 80 80 59 06 03 02 10  ...........Y....
0390: 1F 17 06 03 10 06 01 17  02 02 10 03 10 02 B7 03  ................
03A0: 03 04 10 1A 80 11 04 10  03 10 0E 01 17 04 10 07  ................
03B0: 03 10 03 80 01 98 03 0E  01 17 1B 80 0F 01 17 1A  ................
03C0: 80 03 02 10 02 00 24 0B  80 04 80 01 17 25 02 00  ......$......%..
03D0: 10 04 80 00 F7 03 03 02  10 00 10 1A 2A 07 02 02  ............*...
03E0: 10 05 80 01 F4 03 03 04  00 02 10 1A 58 0A B4 04  ............X...
03F0: 05 00 03 80 01 56 06 02  00 10 03 80 00 20 04 03  .....V....... ..
0400: 02 10 00 10 1A 2A 07 02  02 10 05 80 01 1D 04 03  .....*..........
0410: 04 00 02 10 1A 58 0A B4  04 05 00 03 80 01 56 06  .....X........V.
0420: 02 00 10 0D 80 00 49 04  03 02 10 00 10 1A 2A 07  ......I.......*.
0430: 02 02 10 05 80 01 46 04  03 04 00 02 10 1A 58 0A  ......F.......X.
0440: B4 04 05 00 03 80 01 56  06 02 00 10 0A 80 00 72  .......V.......r
0450: 04 03 02 10 00 10 1A 2A  07 02 02 10 05 80 01 6F  .......*.......o
0460: 04 03 04 00 02 10 1A 58  0A B4 04 05 00 03 80 01  .......X........
0470: 56 06 02 00 10 0E 80 00  9B 04 03 02 10 00 10 1A  V...............
0480: 2A 07 02 02 10 05 80 01  98 04 03 04 00 02 10 1A  *...............
0490: 58 0A B4 04 05 00 03 80  01 56 06 02 00 10 0F 80  X........V......
04A0: 00 C4 04 03 02 10 00 10  1A 2A 07 02 02 10 05 80  .........*......
04B0: 01 C1 04 03 04 00 02 10  1A 58 0A B4 04 05 00 03  .........X......
04C0: 80 01 56 06 02 00 10 10  80 00 ED 04 03 02 10 00  ..V.............
04D0: 10 1A 2A 07 02 02 10 05  80 01 EA 04 03 04 00 02  ..*.............
04E0: 10 1A 58 0A B4 04 05 00  03 80 01 56 06 02 00 10  ..X........V....
04F0: 11 80 00 16 05 03 02 10  00 10 1A 2A 07 02 02 10  ...........*....
0500: 05 80 01 13 05 03 04 00  02 10 1A 58 0A B4 04 05  ...........X....
0510: 00 03 80 01 56 06 02 00  10 12 80 00 3F 05 03 02  ....V.......?...
0520: 10 00 10 1A 2A 07 02 02  10 05 80 01 3C 05 03 04  ....*.......<...
0530: 00 02 10 1A 58 0A B4 04  05 00 03 80 01 56 06 02  ....X........V..
0540: 00 10 13 80 00 68 05 03  02 10 00 10 1A 2A 07 02  .....h.......*..
0550: 02 10 05 80 01 65 05 03  04 00 02 10 1A 58 0A B4  .....e.......X..
0560: 04 05 00 03 80 01 56 06  02 00 10 14 80 00 91 05  ......V.........
0570: 03 02 10 00 10 1A 2A 07  02 02 10 05 80 01 8E 05  ......*.........
0580: 03 04 00 02 10 1A 58 0A  B4 04 05 00 03 80 01 56  ......X........V
0590: 06 02 00 10 15 80 00 BA  05 03 02 10 00 10 1A 2A  ...............*
05A0: 07 02 02 10 05 80 01 B7  05 03 04 00 02 10 1A 58  ...............X
05B0: 0A B4 04 05 00 03 80 01  56 06 02 00 10 16 80 00  ........V.......
05C0: E3 05 03 02 10 00 10 1A  2A 07 02 02 10 05 80 01  ........*.......
05D0: E0 05 03 04 00 02 10 1A  58 0A B4 04 05 00 03 80  ........X.......
05E0: 01 56 06 02 00 10 17 80  00 0C 06 03 02 10 00 10  .V..............
05F0: 1A 2A 07 02 02 10 05 80  01 09 06 03 04 00 02 10  .*..............
0600: 1A 58 0A B4 04 05 00 03  80 01 56 06 02 00 10 18  .X........V.....
0610: 80 00 39 06 03 02 00 04  80 06 03 00 B4 00 09 00  ..9.............
0620: 3F 3F 3F 00 00 00 00 00  00 00 00 00 00 00 00 00  ???.............
0630: B4 04 09 00 04 80 01 56  06 02 00 10 19 80 00 56  .......V.......V
0640: 06 03 02 00 05 80 B4 01  05 00 0A 80 B4 04 05 00  ................
0650: 04 80 1B 01 56 06 01 0C  07 02 02 00 0D 80 80 07  ....V...........
0660: 07 24 1C 80 03 80 04 80  25 02 00 10 04 80 00 B0  .$......%.......
0670: 06 03 02 10 03 00 03 03  10 04 00 03 01 10 1D 80  ................
0680: 40 12 80 1E 80 01 10 03  00 40 1F 80 20 80 01 10  @........@.. ...
0690: 04 00 43 00 43 01 02 02  10 04 80 00 A6 06 03 01  ..C.C...........
06A0: 00 03 80 01 AD 06 1D 21  80 23 01 B8 06 01 04 07  .......!.#......
06B0: 02 00 10 03 80 00 04 07  06 00 00 06 01 00 06 02  ................
06C0: 00 06 03 00 06 04 00 06  1F 17 06 01 17 B4 00 05  ................
06D0: 00 3F 3F 3F 00 00 00 00  00 00 00 00 00 00 00 00  .???............
06E0: 00 B4 04 05 00 04 80 B4  00 05 00 00 00 00 00 00  ................
06F0: 00 00 00 00 00 00 00 00  00 00 00 B4 04 05 00 03  ................
0700: 80 01 04 07 01 0C 07 03  01 00 05 80 01 B9 00 02  ................
0710: 01 00 05 80 00 29 07 B4  01 05 00 0A 80 B4 04 05  .....)..........
0720: 00 04 80 03 02 00 05 80  1B 1B 03 16 17 02 10 9D  ................
0730: 00 CE 0A 17 17 02 10 9D  00 EE 0A 18 17 02 10 03  ................
0740: 19 17 03 80 02 03 80 03  80 00 09 08 06 1C 17 02  ................
0750: 1C 17 22 80 03 8A 07 02  1C 17 18 17 03 79 07 03  .."..........y..
0760: 1A 17 19 17 08 1A 17 03  80 14 1A 17 22 80 07 1A  ............"...
0770: 17 1C 17 1A 0A 08 01 7C  07 06 1B 17 9D 05 28 09  .......|......(.
0780: 1B 17 1C 17 0B 1C 17 01  4F 07 03 1C 17 16 17 14  ........O.......
0790: 1C 17 12 80 07 1C 17 19  17 08 1C 17 03 80 9D 00  ................
07A0: 68 09 1C 17 1C 17 24 23  80 04 80 1C 17 25 02 00  h.....$#.....%..
07B0: 10 22 80 00 BF 07 03 02  10 05 80 1B 01 06 08 02  ."..............
07C0: 00 10 24 80 00 DC 07 07  19 17 03 80 02 19 17 17  ..$.............
07D0: 17 02 D9 07 03 19 17 03  80 01 06 08 03 1A 17 19  ................
07E0: 17 08 1A 17 03 80 14 1A  17 22 80 07 1A 17 00 10  ........."......
07F0: 1A 0A 08 03 02 10 1B 17  07 02 00 03 80 03 03 10  ................
0800: 16 17 0B 03 10 1B 01 44  07 1B 02 16 17 04 80 80  .......D........
0810: 1D 08 9D 00 0E 0B 1B 17  1A 17 01 27 09 02 16 17  ...........'....
0820: 03 80 80 30 08 9D 00 1E  0B 1B 17 1A 17 01 27 09  ...0..........'.
0830: 02 16 17 0D 80 80 43 08  9D 00 2E 0B 1B 17 1A 17  ......C.........
0840: 01 27 09 02 16 17 0A 80  80 56 08 9D 00 8E 0B 1B  .'.......V......
0850: 17 1A 17 01 27 09 02 16  17 0E 80 80 69 08 9D 00  ....'.......i...
0860: 6E 0C 1B 17 1A 17 01 27  09 02 16 17 0F 80 80 7C  n......'.......|
0870: 08 9D 00 CE 0D 1B 17 1A  17 01 27 09 02 16 17 10  ..........'.....
0880: 80 80 8F 08 9D 00 5E 0F  1B 17 1A 17 01 27 09 02  ......^......'..
0890: 16 17 11 80 80 A2 08 9D  00 7E 10 1B 17 1A 17 01  .........~......
08A0: 27 09 02 16 17 12 80 80  B5 08 9D 00 2E 11 1B 17  '...............
08B0: 1A 17 01 27 09 02 16 17  13 80 80 C8 08 9D 00 9E  ...'............
08C0: 11 1B 17 1A 17 01 27 09  02 16 17 14 80 80 DB 08  ......'.........
08D0: 9D 00 BE 11 1B 17 1A 17  01 27 09 02 16 17 15 80  .........'......
08E0: 80 EE 08 9D 00 CE 11 1B  17 1A 17 01 27 09 02 16  ............'...
08F0: 17 16 80 80 01 09 9D 00  DE 11 1B 17 1A 17 01 27  ...............'
0900: 09 02 16 17 17 80 80 14  09 9D 00 EE 11 1B 17 1A  ................
0910: 17 01 27 09 02 16 17 18  80 80 27 09 9D 00 FE 11  ..'.......'.....
0920: 1B 17 1A 17 01 27 09 1B  02 10 03 10 04 10 05 10  .....'..........
0930: 06 10 07 10 08 10 09 10  00 17 01 17 02 17 03 17  ................
0940: 04 17 05 17 06 17 07 17  08 17 09 17 0A 17 0B 17  ................
0950: 0C 17 0D 17 0E 17 0F 17  10 17 11 17 12 17 13 17  ................
0960: 14 17 15 17 1F 17 1F 17  25 80 04 80 04 80 04 80  ........%.......
0970: 04 80 04 80 04 80 04 80  25 80 04 80 04 80 04 80  ........%.......
0980: 04 80 04 80 04 80 04 80  26 80 27 80 04 80 04 80  ........&.'.....
0990: 04 80 04 80 04 80 04 80  04 80 04 80 04 80 27 80  ..............'.
09A0: 04 80 04 80 04 80 04 80  04 80 04 80 04 80 04 80  ................
09B0: 04 80 28 80 04 80 04 80  04 80 04 80 04 80 04 80  ..(.............
09C0: 04 80 29 80 2A 80 04 80  04 80 04 80 04 80 04 80  ..).*...........
09D0: 2B 80 04 80 04 80 04 80  04 80 2C 80 28 80 04 80  +.........,.(...
09E0: 04 80 04 80 04 80 04 80  04 80 2D 80 04 80 04 80  ..........-.....
09F0: 04 80 04 80 04 80 04 80  2E 80 04 80 04 80 04 80  ................
0A00: 04 80 04 80 04 80 04 80  2F 80 04 80 04 80 04 80  ......../.......
0A10: 04 80 04 80 04 80 04 80  04 80 04 80 04 80 04 80  ................
0A20: 04 80 04 80 04 80 04 80  04 80 04 80 04 80 04 80  ................
0A30: 04 80 04 80 04 80 04 80  04 80 04 80 04 80 04 80  ................
0A40: 04 80 04 80 04 80 04 80  04 80 04 80 04 80 04 80  ................
0A50: 04 80 04 80 04 80 04 80  2F 00 0D 30 08 01 29 80  ......../..0..).
0A60: 0D 30 08 01 03 9D 04 04  80 05 00 02 10 1B 25 80  .0............%.
0A70: 25 80 04 80 27 80 04 80  04 80 04 80 27 80 04 80  %...'.......'...
0A80: 04 80 04 80 04 80 04 80  28 80 04 80 04 80 04 80  ........(.......
0A90: 04 80 04 80 04 80 30 80  04 80 04 80 04 80 04 80  ......0.........
0AA0: 2B 80 04 80 04 80 28 80  04 80 2D 80 2E 80 2F 80  +.....(...-.../.
0AB0: 04 80 04 80 04 80 04 80  04 80 04 80 04 80 2F 80  ............../.
0AC0: 04 80 04 80 04 80 04 80  04 80 04 80 04 80 03 80  ................
0AD0: 03 80 0D 80 0E 80 10 80  11 80 0F 80 0A 80 0D 80  ................
0AE0: 03 80 03 80 03 80 03 80  03 80 03 80 04 80 10 80  ................
0AF0: 10 80 31 80 32 80 33 80  34 80 35 80 36 80 37 80  ..1.2.3.4.5.6.7.
0B00: 18 80 0D 80 04 80 04 80  04 80 04 80 04 80 04 80  ................
0B10: 03 80 0D 80 0A 80 0E 80  0F 80 04 80 04 80 10 80  ................
0B20: 11 80 12 80 13 80 14 80  15 80 04 80 04 80 16 80  ................
0B30: 17 80 18 80 19 80 38 80  1E 80 1F 80 39 80 3A 80  ......8.....9.:.
0B40: 3B 80 3C 80 3D 80 3E 80  3F 80 40 80 20 80 41 80  ;.<.=.>.?.@. .A.
0B50: 42 80 22 80 24 80 43 80  44 80 45 80 46 80 47 80  B.".$.C.D.E.F.G.
0B60: 48 80 49 80 4A 80 4B 80  4C 80 4D 80 4E 80 4F 80  H.I.J.K.L.M.N.O.
0B70: 50 80 51 80 52 80 31 80  53 80 54 80 55 80 37 80  P.Q.R.1.S.T.U.7.
0B80: 56 80 57 80 58 80 59 80  5A 80 5B 80 5C 80 5D 80  V.W.X.Y.Z.[.\.].
0B90: 5E 80 5F 80 60 80 61 80  62 80 63 80 64 80 65 80  ^._.`.a.b.c.d.e.
0BA0: 66 80 67 80 68 80 69 80  6A 80 6B 80 6C 80 6D 80  f.g.h.i.j.k.l.m.
0BB0: 6E 80 6F 80 70 80 71 80  72 80 73 80 74 80 36 80  n.o.p.q.r.s.t.6.
0BC0: 75 80 76 80 77 80 78 80  79 80 7A 80 7B 80 7C 80  u.v.w.x.y.z.{.|.
0BD0: 7D 80 7E 80 7F 80 80 80  81 80 82 80 83 80 84 80  }.~.............
0BE0: 85 80 86 80 87 80 88 80  89 80 8A 80 8B 80 32 80  ..............2.
0BF0: 8C 80 8D 80 8E 80 8F 80  90 80 91 80 92 80 93 80  ................
0C00: 94 80 95 80 96 80 97 80  98 80 99 80 9A 80 9B 80  ................
0C10: 9C 80 9D 80 9E 80 9F 80  A0 80 A1 80 A2 80 A3 80  ................
0C20: A4 80 A5 80 A6 80 A7 80  A8 80 A9 80 AA 80 AB 80  ................
0C30: AC 80 AD 80 35 80 AE 80  AF 80 B0 80 B1 80 B2 80  ....5...........
0C40: B3 80 B4 80 B5 80 B6 80  B7 80 B8 80 B9 80 BA 80  ................
0C50: BB 80 BC 80 BD 80 BE 80  BF 80 C0 80 C1 80 C2 80  ................
0C60: C3 80 C4 80 C5 80 04 80  04 80 04 80 04 80 C6 80  ................
0C70: C7 80 C8 80 C9 80 CA 80  CB 80 33 80 CC 80 CD 80  ..........3.....
0C80: CE 80 CF 80 D0 80 D1 80  D2 80 D3 80 D4 80 D5 80  ................
0C90: D6 80 D7 80 D8 80 D9 80  DA 80 DB 80 DC 80 DD 80  ................
0CA0: DE 80 34 80 DF 80 E0 80  E1 80 E2 80 E3 80 E4 80  ..4.............
0CB0: E5 80 E6 80 E7 80 E8 80  E9 80 EA 80 EB 80 EC 80  ................
0CC0: ED 80 EE 80 EF 80 F0 80  F1 80 F2 80 F3 80 F4 80  ................
0CD0: F5 80 F6 80 F7 80 F8 80  F9 80 FA 80 FB 80 FC 80  ................
0CE0: FD 80 FE 80 FF 80 00 81  01 81 02 81 03 81 04 81  ................
0CF0: 05 81 06 81 07 81 08 81  09 81 0A 81 0B 81 0C 81  ................
0D00: 0D 81 0E 81 0F 81 10 81  11 81 12 81 13 81 14 81  ................
0D10: 15 81 16 81 17 81 18 81  19 81 1A 81 1D 80 1B 81  ................
0D20: 1C 81 1D 81 1E 81 1F 81  20 81 21 81 22 81 23 81  ........ .!.".#.
0D30: 24 81 25 81 26 81 27 81  28 81 29 81 2A 81 2B 81  $.%.&.'.(.).*.+.
0D40: 2C 81 2D 81 2E 81 2F 81  30 81 31 81 32 81 33 81  ,.-.../.0.1.2.3.
0D50: 34 81 35 81 36 81 37 81  38 81 39 81 3A 81 3B 81  4.5.6.7.8.9.:.;.
0D60: 3C 81 3D 81 3E 81 3F 81  40 81 41 81 42 81 43 81  <.=.>.?.@.A.B.C.
0D70: 44 81 45 81 46 81 47 81  48 81 49 81 4A 81 4B 81  D.E.F.G.H.I.J.K.
0D80: 4C 81 4D 81 4E 81 4F 81  50 81 51 81 52 81 53 81  L.M.N.O.P.Q.R.S.
0D90: 54 81 55 81 56 81 57 81  58 81 59 81 5A 81 5B 81  T.U.V.W.X.Y.Z.[.
0DA0: 5C 81 5D 81 5E 81 5F 81  60 81 61 81 62 81 63 81  \.].^._.`.a.b.c.
0DB0: 64 81 65 81 66 81 67 81  68 81 69 81 6A 81 6B 81  d.e.f.g.h.i.j.k.
0DC0: 6C 81 6D 81 6E 81 6F 81  70 81 04 80 04 80 71 81  l.m.n.o.p.....q.
0DD0: 72 81 73 81 74 81 75 81  76 81 77 81 78 81 79 81  r.s.t.u.v.w.x.y.
0DE0: 7A 81 7B 81 7C 81 7D 81  7E 81 7F 81 80 81 81 81  z.{.|.}.~.......
0DF0: 82 81 83 81 84 81 85 81  86 81 87 81 88 81 89 81  ................
0E00: 8A 81 8B 81 8C 81 8D 81  8E 81 8F 81 90 81 91 81  ................
0E10: 92 81 93 81 94 81 95 81  96 81 97 81 98 81 99 81  ................
0E20: 9A 81 9B 81 9C 81 9D 81  9E 81 9F 81 A0 81 A1 81  ................
0E30: A2 81 A3 81 A4 81 A5 81  A6 81 A7 81 A8 81 A9 81  ................
0E40: AA 81 AB 81 AC 81 AD 81  AE 81 AF 81 B0 81 B1 81  ................
0E50: B2 81 B3 81 B4 81 B5 81  B6 81 B7 81 B8 81 B9 81  ................
0E60: BA 81 BB 81 BC 81 BD 81  BE 81 BF 81 C0 81 C1 81  ................
0E70: C2 81 C3 81 C4 81 C5 81  C6 81 C7 81 C8 81 C9 81  ................
0E80: CA 81 CB 81 CC 81 CD 81  CE 81 CF 81 D0 81 D1 81  ................
0E90: D2 81 D3 81 D4 81 D5 81  D6 81 D7 81 D8 81 D9 81  ................
0EA0: DA 81 DB 81 DC 81 DD 81  DE 81 DF 81 E0 81 E1 81  ................
0EB0: E2 81 E3 81 E4 81 E5 81  E6 81 E7 81 E8 81 E9 81  ................
0EC0: EA 81 EB 81 EC 81 ED 81  EE 81 EF 81 F0 81 F1 81  ................
0ED0: F2 81 F3 81 F4 81 F5 81  F6 81 F7 81 F8 81 F9 81  ................
0EE0: FA 81 FB 81 FC 81 FD 81  FE 81 FF 81 00 82 01 82  ................
0EF0: 02 82 03 82 04 82 05 82  06 82 07 82 08 82 09 82  ................
0F00: 0A 82 0B 82 0C 82 0D 82  0E 82 0F 82 10 82 11 82  ................
0F10: 12 82 13 82 14 82 15 82  16 82 17 82 18 82 19 82  ................
0F20: 1A 82 1B 82 1C 82 1D 82  1E 82 1F 82 20 82 21 82  ............ .!.
0F30: 22 82 23 82 24 82 25 82  26 82 27 82 28 82 29 82  ".#.$.%.&.'.(.).
0F40: 2A 82 2B 82 2C 82 2D 82  2E 82 2F 82 30 82 31 82  *.+.,.-.../.0.1.
0F50: 32 82 04 80 04 80 04 80  04 80 04 80 04 80 33 82  2.............3.
0F60: 34 82 35 82 36 82 37 82  38 82 39 82 3A 82 3B 82  4.5.6.7.8.9.:.;.
0F70: 3C 82 3D 82 3E 82 3F 82  40 82 41 82 42 82 43 82  <.=.>.?.@.A.B.C.
0F80: 44 82 45 82 46 82 47 82  48 82 49 82 4A 82 4B 82  D.E.F.G.H.I.J.K.
0F90: 4C 82 4D 82 4E 82 4F 82  50 82 51 82 52 82 53 82  L.M.N.O.P.Q.R.S.
0FA0: 54 82 55 82 56 82 57 82  58 82 59 82 5A 82 5B 82  T.U.V.W.X.Y.Z.[.
0FB0: 5C 82 5D 82 5E 82 5F 82  60 82 61 82 62 82 63 82  \.].^._.`.a.b.c.
0FC0: 64 82 65 82 66 82 67 82  68 82 69 82 6A 82 6B 82  d.e.f.g.h.i.j.k.
0FD0: 6C 82 6D 82 6E 82 6F 82  70 82 71 82 72 82 73 82  l.m.n.o.p.q.r.s.
0FE0: 74 82 75 82 76 82 77 82  78 82 79 82 7A 82 7B 82  t.u.v.w.x.y.z.{.
0FF0: 7C 82 7D 82 7E 82 7F 82  80 82 81 82 82 82 83 82  |.}.~...........
1000: 84 82 85 82 86 82 87 82  88 82 89 82 8A 82 8B 82  ................
1010: 8C 82 8D 82 8E 82 8F 82  90 82 91 82 92 82 93 82  ................
1020: 94 82 95 82 96 82 97 82  98 82 99 82 9A 82 9B 82  ................
1030: 9C 82 9D 82 9E 82 9F 82  A0 82 A1 82 A2 82 A3 82  ................
1040: A4 82 A5 82 A6 82 A7 82  A8 82 A9 82 AA 82 AB 82  ................
1050: AC 82 AD 82 AE 82 AF 82  B0 82 B1 82 B2 82 B3 82  ................
1060: B4 82 B5 82 B6 82 B7 82  B8 82 B9 82 BA 82 BB 82  ................
1070: BC 82 BD 82 BE 82 BF 82  C0 82 C1 82 04 80 C2 82  ................
1080: C3 82 C4 82 C5 82 C6 82  C7 82 C8 82 C9 82 CA 82  ................
1090: CB 82 CC 82 CD 82 CE 82  CF 82 D0 82 D1 82 D2 82  ................
10A0: D3 82 D4 82 D5 82 D6 82  D7 82 D8 82 D9 82 DA 82  ................
10B0: DB 82 DC 82 DD 82 DE 82  DF 82 E0 82 E1 82 E2 82  ................
10C0: E3 82 E4 82 E5 82 E6 82  E7 82 E8 82 E9 82 EA 82  ................
10D0: EB 82 EC 82 ED 82 EE 82  EF 82 F0 82 F1 82 F2 82  ................
10E0: F3 82 F4 82 F5 82 F6 82  F7 82 F8 82 F9 82 FA 82  ................
10F0: FB 82 FC 82 FD 82 FE 82  FF 82 00 83 01 83 02 83  ................
1100: 03 83 04 83 05 83 06 83  07 83 08 83 09 83 0A 83  ................
1110: 0B 83 0C 83 0D 83 0E 83  0F 83 10 83 11 83 12 83  ................
1120: 13 83 14 83 15 83 04 80  04 80 04 80 04 80 16 83  ................
1130: 17 83 18 83 19 83 1A 83  1B 83 1C 83 1D 83 1E 83  ................
1140: 1F 83 20 83 21 83 22 83  23 83 24 83 25 83 26 83  .. .!.".#.$.%.&.
1150: 27 83 28 83 29 83 2A 83  2B 83 2C 83 2D 83 2E 83  '.(.).*.+.,.-...
1160: 2F 83 30 83 31 83 32 83  33 83 34 83 35 83 36 83  /.0.1.2.3.4.5.6.
1170: 37 83 38 83 39 83 3A 83  3B 83 3C 83 3D 83 3E 83  7.8.9.:.;.<.=.>.
1180: 3F 83 40 83 41 83 42 83  43 83 44 83 45 83 46 83  ?.@.A.B.C.D.E.F.
1190: 47 83 48 83 49 83 04 80  04 80 04 80 04 80 4A 83  G.H.I.........J.
11A0: 4B 83 4C 83 4D 83 4E 83  4F 83 50 83 51 83 52 83  K.L.M.N.O.P.Q.R.
11B0: 53 83 54 83 55 83 56 83  57 83 04 80 04 80 58 83  S.T.U.V.W.....X.
11C0: 59 83 04 80 04 80 04 80  04 80 04 80 04 80 04 80  Y...............
11D0: 04 80 04 80 04 80 04 80  04 80 04 80 04 80 04 80  ................
11E0: 04 80 04 80 04 80 04 80  04 80 04 80 04 80 04 80  ................
11F0: 04 80 04 80 04 80 04 80  04 80 04 80 04 80 04 80  ................
1200: 04 80 04 80 04 80 04 80  04 80 04 80 04 80 04 80  ................
1210: 04 80 04 80 04 80 04 80  04 80 04 80 04 80 1B     ............... 
```

#### Opcodes

```
  0: 0x0038 [0x1D] PRINT_EVENT_MESSAGE(message_id=7231*)
    → "You can rename the chocobo certified on this $0."
  1: 0x003B [0x23] WAIT_FOR_DIALOG_INTERACTION
  2: 0x003C [0x1D] PRINT_EVENT_MESSAGE(message_id=7232*)
    → "Would you like to change the name of your chocobo?"
  3: 0x003F [0x23] WAIT_FOR_DIALOG_INTERACTION
  4: 0x0040 [0x24] CREATE_DIALOG(message_id=7233*, default_option=1*, option_flags=0*)
    → "Give your chocobo a new name? [Yes, it's about time!/No, I just can't!]"
  5: 0x0047 [0x25] WAIT_DIALOG_SELECT()
  6: 0x0048 [0x02] IF !(Work_Zone[0] == 0*) GOTO 0x0078
  7: 0x0050 [0x1A] CALL_SUBROUTINE(address=0x007E)
  8: 0x0053 [0x02] IF !(ExtData[1]->WorkLocal[2] == 4294967295*) GOTO 0x0071
  9: 0x005B [0x02] IF !(Work_Zone[2] == 0*) GOTO 0x006A
 10: 0x0063 [0x1D] PRINT_EVENT_MESSAGE(message_id=7234*)
    → "This chocobo's name has been changed to %0."
 11: 0x0066 [0x23] WAIT_FOR_DIALOG_INTERACTION
 12: 0x0067 [0x01] GOTO 0x006E
 13: 0x006A [0x1D] PRINT_EVENT_MESSAGE(message_id=7238*)
    → "Your chocobo's name change was not processed."
 14: 0x006D [0x23] WAIT_FOR_DIALOG_INTERACTION

SUBROUTINE_006E:
 15: 0x006E [0x01] GOTO 0x0075
 16: 0x0071 [0x1D] PRINT_EVENT_MESSAGE(message_id=7235*)
    → "This chocobo's name change has been cancelled."
 17: 0x0074 [0x23] WAIT_FOR_DIALOG_INTERACTION

SUBROUTINE_0075:
 18: 0x0075 [0x01] GOTO 0x007C
 19: 0x0078 [0x1D] PRINT_EVENT_MESSAGE(message_id=7235*)
    → "This chocobo's name change has been cancelled."
 20: 0x007B [0x23] WAIT_FOR_DIALOG_INTERACTION

SUBROUTINE_007C:
 21: 0x007C [0x21] END_EVENT
 22: 0x007D [0x00] END_REQSTACK()

SUBROUTINE_007E:
 23: 0x007E [0x06] ExtData[1]->WorkLocal[0] = 0
 24: 0x0081 [0x06] ExtData[1]->WorkLocal[1] = 0
 25: 0x0084 [0x06] ExtData[1]->WorkLocal[2] = 0
 26: 0x0087 [0x06] ExtData[1]->WorkLocal[3] = 0
 27: 0x008A [0x06] ExtData[1]->WorkLocal[4] = 0
 28: 0x008D [0x06] Work_Zone_1700[31] = 0
 29: 0x0090 [0x06] Work_Zone_1700[1] = 0
 30: 0x0093 [0xB4] UI_WINDOW_STRING_HANDLER(case=0x01 - Copy string from event strings table, work_offset=ExtData[1]->WorkLocal[5], string_index=0*)
 31: 0x0099 [0xB4] UI_WINDOW_STRING_HANDLER(case=0x04 - Copy string to shared buffers, work_offset1=ExtData[1]->WorkLocal[5], work_offset2=3*)
 32: 0x009F [0xB4] UI_WINDOW_STRING_HANDLER(case=0x00 - Copy string from opcode, work_offset=ExtData[1]->WorkLocal[5], string="???")
 33: 0x00B3 [0xB4] UI_WINDOW_STRING_HANDLER(case=0x04 - Copy string to shared buffers, work_offset1=ExtData[1]->WorkLocal[5], work_offset2=0*)

SUBROUTINE_00B9:
 34: 0x00B9 [0x02] IF !(ExtData[1]->WorkLocal[1] == 0*) GOTO 0x070F
 35: 0x00C1 [0x02] IF !(ExtData[1]->WorkLocal[2] == 0*) GOTO 0x0385
 36: 0x00C9 [0x03] Work_Zone[2] = ExtData[1]->WorkLocal[2]
 37: 0x00CE [0x24] CREATE_DIALOG(message_id=7224*, default_option=0*, option_flags=30720*)
    → "Choose a word category ([first name/last name]). [1-letter words."-letter words."-letter words./4-letter words./5-letter words./6-letter words./7-letter words./8-letter words./9-letter words./10-letter words./11-letter words./12-letter words./13-letter words./14-letter words./Return./Cancel.]"
 38: 0x00D5 [0x25] WAIT_DIALOG_SELECT()
 39: 0x00D6 [0x02] IF !(Work_Zone[0] == 0*) GOTO 0x0104
 40: 0x00DE [0x03] Work_Zone[2] = Work_Zone[0]
 41: 0x00E3 [0x1A] CALL_SUBROUTINE(address=0x072A)
 42: 0x00E6 [0x02] IF !(Work_Zone[2] == 4294967295*) GOTO 0x0101
 43: 0x00EE [0x03] ExtData[1]->WorkLocal[3] = Work_Zone[2]
 44: 0x00F3 [0x03] Work_Zone_1700[31] = Work_Zone[3]
 45: 0x00F8 [0x1A] CALL_SUBROUTINE(address=0x0A58)
 46: 0x00FB [0xB4] UI_WINDOW_STRING_HANDLER(case=0x04 - Copy string to shared buffers, work_offset1=ExtData[1]->WorkLocal[5], work_offset2=0*)
 47: 0x0101 [0x01] GOTO 0x0382
 48: 0x0104 [0x02] IF !(Work_Zone[0] == 1*) GOTO 0x0132
 49: 0x010C [0x03] Work_Zone[2] = Work_Zone[0]
 50: 0x0111 [0x1A] CALL_SUBROUTINE(address=0x072A)
 51: 0x0114 [0x02] IF !(Work_Zone[2] == 4294967295*) GOTO 0x012F
 52: 0x011C [0x03] ExtData[1]->WorkLocal[3] = Work_Zone[2]
 53: 0x0121 [0x03] Work_Zone_1700[31] = Work_Zone[3]
 54: 0x0126 [0x1A] CALL_SUBROUTINE(address=0x0A58)
 55: 0x0129 [0xB4] UI_WINDOW_STRING_HANDLER(case=0x04 - Copy string to shared buffers, work_offset1=ExtData[1]->WorkLocal[5], work_offset2=0*)
 56: 0x012F [0x01] GOTO 0x0382
 57: 0x0132 [0x02] IF !(Work_Zone[0] == 2*) GOTO 0x0160
 58: 0x013A [0x03] Work_Zone[2] = Work_Zone[0]
 59: 0x013F [0x1A] CALL_SUBROUTINE(address=0x072A)
 60: 0x0142 [0x02] IF !(Work_Zone[2] == 4294967295*) GOTO 0x015D
 61: 0x014A [0x03] ExtData[1]->WorkLocal[3] = Work_Zone[2]
 62: 0x014F [0x03] Work_Zone_1700[31] = Work_Zone[3]
 63: 0x0154 [0x1A] CALL_SUBROUTINE(address=0x0A58)
 64: 0x0157 [0xB4] UI_WINDOW_STRING_HANDLER(case=0x04 - Copy string to shared buffers, work_offset1=ExtData[1]->WorkLocal[5], work_offset2=0*)
 65: 0x015D [0x01] GOTO 0x0382
 66: 0x0160 [0x02] IF !(Work_Zone[0] == 3*) GOTO 0x018E
 67: 0x0168 [0x03] Work_Zone[2] = Work_Zone[0]
 68: 0x016D [0x1A] CALL_SUBROUTINE(address=0x072A)
 69: 0x0170 [0x02] IF !(Work_Zone[2] == 4294967295*) GOTO 0x018B
 70: 0x0178 [0x03] ExtData[1]->WorkLocal[3] = Work_Zone[2]
 71: 0x017D [0x03] Work_Zone_1700[31] = Work_Zone[3]
 72: 0x0182 [0x1A] CALL_SUBROUTINE(address=0x0A58)
 73: 0x0185 [0xB4] UI_WINDOW_STRING_HANDLER(case=0x04 - Copy string to shared buffers, work_offset1=ExtData[1]->WorkLocal[5], work_offset2=0*)
 74: 0x018B [0x01] GOTO 0x0382
 75: 0x018E [0x02] IF !(Work_Zone[0] == 4*) GOTO 0x01BC
 76: 0x0196 [0x03] Work_Zone[2] = Work_Zone[0]
 77: 0x019B [0x1A] CALL_SUBROUTINE(address=0x072A)
 78: 0x019E [0x02] IF !(Work_Zone[2] == 4294967295*) GOTO 0x01B9
 79: 0x01A6 [0x03] ExtData[1]->WorkLocal[3] = Work_Zone[2]
 80: 0x01AB [0x03] Work_Zone_1700[31] = Work_Zone[3]
 81: 0x01B0 [0x1A] CALL_SUBROUTINE(address=0x0A58)
 82: 0x01B3 [0xB4] UI_WINDOW_STRING_HANDLER(case=0x04 - Copy string to shared buffers, work_offset1=ExtData[1]->WorkLocal[5], work_offset2=0*)
 83: 0x01B9 [0x01] GOTO 0x0382
 84: 0x01BC [0x02] IF !(Work_Zone[0] == 5*) GOTO 0x01EA
 85: 0x01C4 [0x03] Work_Zone[2] = Work_Zone[0]
 86: 0x01C9 [0x1A] CALL_SUBROUTINE(address=0x072A)
 87: 0x01CC [0x02] IF !(Work_Zone[2] == 4294967295*) GOTO 0x01E7
 88: 0x01D4 [0x03] ExtData[1]->WorkLocal[3] = Work_Zone[2]
 89: 0x01D9 [0x03] Work_Zone_1700[31] = Work_Zone[3]
 90: 0x01DE [0x1A] CALL_SUBROUTINE(address=0x0A58)
 91: 0x01E1 [0xB4] UI_WINDOW_STRING_HANDLER(case=0x04 - Copy string to shared buffers, work_offset1=ExtData[1]->WorkLocal[5], work_offset2=0*)
 92: 0x01E7 [0x01] GOTO 0x0382
 93: 0x01EA [0x02] IF !(Work_Zone[0] == 6*) GOTO 0x0218
 94: 0x01F2 [0x03] Work_Zone[2] = Work_Zone[0]
 95: 0x01F7 [0x1A] CALL_SUBROUTINE(address=0x072A)
 96: 0x01FA [0x02] IF !(Work_Zone[2] == 4294967295*) GOTO 0x0215
 97: 0x0202 [0x03] ExtData[1]->WorkLocal[3] = Work_Zone[2]
 98: 0x0207 [0x03] Work_Zone_1700[31] = Work_Zone[3]
 99: 0x020C [0x1A] CALL_SUBROUTINE(address=0x0A58)
100: 0x020F [0xB4] UI_WINDOW_STRING_HANDLER(case=0x04 - Copy string to shared buffers, work_offset1=ExtData[1]->WorkLocal[5], work_offset2=0*)
101: 0x0215 [0x01] GOTO 0x0382
102: 0x0218 [0x02] IF !(Work_Zone[0] == 7*) GOTO 0x0246
103: 0x0220 [0x03] Work_Zone[2] = Work_Zone[0]
104: 0x0225 [0x1A] CALL_SUBROUTINE(address=0x072A)
105: 0x0228 [0x02] IF !(Work_Zone[2] == 4294967295*) GOTO 0x0243
106: 0x0230 [0x03] ExtData[1]->WorkLocal[3] = Work_Zone[2]
107: 0x0235 [0x03] Work_Zone_1700[31] = Work_Zone[3]
108: 0x023A [0x1A] CALL_SUBROUTINE(address=0x0A58)
109: 0x023D [0xB4] UI_WINDOW_STRING_HANDLER(case=0x04 - Copy string to shared buffers, work_offset1=ExtData[1]->WorkLocal[5], work_offset2=0*)
110: 0x0243 [0x01] GOTO 0x0382
111: 0x0246 [0x02] IF !(Work_Zone[0] == 8*) GOTO 0x0274
112: 0x024E [0x03] Work_Zone[2] = Work_Zone[0]
113: 0x0253 [0x1A] CALL_SUBROUTINE(address=0x072A)
114: 0x0256 [0x02] IF !(Work_Zone[2] == 4294967295*) GOTO 0x0271
115: 0x025E [0x03] ExtData[1]->WorkLocal[3] = Work_Zone[2]
116: 0x0263 [0x03] Work_Zone_1700[31] = Work_Zone[3]
117: 0x0268 [0x1A] CALL_SUBROUTINE(address=0x0A58)
118: 0x026B [0xB4] UI_WINDOW_STRING_HANDLER(case=0x04 - Copy string to shared buffers, work_offset1=ExtData[1]->WorkLocal[5], work_offset2=0*)
119: 0x0271 [0x01] GOTO 0x0382
120: 0x0274 [0x02] IF !(Work_Zone[0] == 9*) GOTO 0x02A2
121: 0x027C [0x03] Work_Zone[2] = Work_Zone[0]

SUBROUTINE_0281:
122: 0x0281 [0x1A] CALL_SUBROUTINE(address=0x072A)
123: 0x0284 [0x02] IF !(Work_Zone[2] == 4294967295*) GOTO 0x029F
124: 0x028C [0x03] ExtData[1]->WorkLocal[3] = Work_Zone[2]
125: 0x0291 [0x03] Work_Zone_1700[31] = Work_Zone[3]
126: 0x0296 [0x1A] CALL_SUBROUTINE(address=0x0A58)
127: 0x0299 [0xB4] UI_WINDOW_STRING_HANDLER(case=0x04 - Copy string to shared buffers, work_offset1=ExtData[1]->WorkLocal[5], work_offset2=0*)
128: 0x029F [0x01] GOTO 0x0382
129: 0x02A2 [0x02] IF !(Work_Zone[0] == 10*) GOTO 0x02D0
130: 0x02AA [0x03] Work_Zone[2] = Work_Zone[0]
131: 0x02AF [0x1A] CALL_SUBROUTINE(address=0x072A)
132: 0x02B2 [0x02] IF !(Work_Zone[2] == 4294967295*) GOTO 0x02CD
133: 0x02BA [0x03] ExtData[1]->WorkLocal[3] = Work_Zone[2]
134: 0x02BF [0x03] Work_Zone_1700[31] = Work_Zone[3]
135: 0x02C4 [0x1A] CALL_SUBROUTINE(address=0x0A58)
136: 0x02C7 [0xB4] UI_WINDOW_STRING_HANDLER(case=0x04 - Copy string to shared buffers, work_offset1=ExtData[1]->WorkLocal[5], work_offset2=0*)
137: 0x02CD [0x01] GOTO 0x0382
138: 0x02D0 [0x02] IF !(Work_Zone[0] == 11*) GOTO 0x02FE
139: 0x02D8 [0x03] Work_Zone[2] = Work_Zone[0]
140: 0x02DD [0x1A] CALL_SUBROUTINE(address=0x072A)
141: 0x02E0 [0x02] IF !(Work_Zone[2] == 4294967295*) GOTO 0x02FB
142: 0x02E8 [0x03] ExtData[1]->WorkLocal[3] = Work_Zone[2]
143: 0x02ED [0x03] Work_Zone_1700[31] = Work_Zone[3]
144: 0x02F2 [0x1A] CALL_SUBROUTINE(address=0x0A58)
145: 0x02F5 [0xB4] UI_WINDOW_STRING_HANDLER(case=0x04 - Copy string to shared buffers, work_offset1=ExtData[1]->WorkLocal[5], work_offset2=0*)
146: 0x02FB [0x01] GOTO 0x0382
147: 0x02FE [0x02] IF !(Work_Zone[0] == 12*) GOTO 0x032C
148: 0x0306 [0x03] Work_Zone[2] = Work_Zone[0]
149: 0x030B [0x1A] CALL_SUBROUTINE(address=0x072A)
150: 0x030E [0x02] IF !(Work_Zone[2] == 4294967295*) GOTO 0x0329
151: 0x0316 [0x03] ExtData[1]->WorkLocal[3] = Work_Zone[2]
152: 0x031B [0x03] Work_Zone_1700[31] = Work_Zone[3]
153: 0x0320 [0x1A] CALL_SUBROUTINE(address=0x0A58)
154: 0x0323 [0xB4] UI_WINDOW_STRING_HANDLER(case=0x04 - Copy string to shared buffers, work_offset1=ExtData[1]->WorkLocal[5], work_offset2=0*)
155: 0x0329 [0x01] GOTO 0x0382
156: 0x032C [0x02] IF !(Work_Zone[0] == 13*) GOTO 0x035A
157: 0x0334 [0x03] Work_Zone[2] = Work_Zone[0]
158: 0x0339 [0x1A] CALL_SUBROUTINE(address=0x072A)
159: 0x033C [0x02] IF !(Work_Zone[2] == 4294967295*) GOTO 0x0357
160: 0x0344 [0x03] ExtData[1]->WorkLocal[3] = Work_Zone[2]
161: 0x0349 [0x03] Work_Zone_1700[31] = Work_Zone[3]
162: 0x034E [0x1A] CALL_SUBROUTINE(address=0x0A58)
163: 0x0351 [0xB4] UI_WINDOW_STRING_HANDLER(case=0x04 - Copy string to shared buffers, work_offset1=ExtData[1]->WorkLocal[5], work_offset2=0*)
164: 0x0357 [0x01] GOTO 0x0382
165: 0x035A [0x02] IF !(Work_Zone[0] == 14*) GOTO 0x0365
166: 0x0362 [0x01] GOTO 0x0382
167: 0x0365 [0x02] IF !(Work_Zone[0] == 15*) GOTO 0x0382
168: 0x036D [0x03] ExtData[1]->WorkLocal[2] = 4294967295*
169: 0x0372 [0xB4] UI_WINDOW_STRING_HANDLER(case=0x01 - Copy string from event strings table, work_offset=ExtData[1]->WorkLocal[5], string_index=3*)
170: 0x0378 [0xB4] UI_WINDOW_STRING_HANDLER(case=0x04 - Copy string to shared buffers, work_offset1=ExtData[1]->WorkLocal[5], work_offset2=0*)
171: 0x037E [0x1B] RETURN

SUBROUTINE_0382:
172: 0x0382 [0x01] GOTO 0x070C
173: 0x0385 [0x02] IF !(ExtData[1]->WorkLocal[2] == 1*) GOTO 0x0659
174: 0x038D [0x03] Work_Zone[2] = Work_Zone_1700[31]
175: 0x0392 [0x06] Work_Zone[3] = 0
176: 0x0395 [0x06] Work_Zone_1700[1] = 0

SUBROUTINE_0398:
177: 0x0398 [0x02] IF !(Work_Zone[2] <= Work_Zone[3]) GOTO 0x03B7
178: 0x03A0 [0x03] Work_Zone[4] = 16384*
179: 0x03A5 [0x11] Work_Zone[4] >>= Work_Zone[3]
180: 0x03AA [0x0E] Work_Zone_1700[1] |= Work_Zone[4]
181: 0x03AF [0x07] Work_Zone[3] += 1*
182: 0x03B4 [0x01] GOTO 0x0398
183: 0x03B7 [0x0E] Work_Zone_1700[1] |= 14336*
184: 0x03BC [0x0F] Work_Zone_1700[1] ^= 16384*
185: 0x03C1 [0x03] Work_Zone[2] = ExtData[1]->WorkLocal[2]
186: 0x03C6 [0x24] CREATE_DIALOG(message_id=7224*, default_option=0*, option_flags=Work_Zone_1700[1])
    → "Choose a word category ([first name/last name]). [1-letter words."-letter words."-letter words./4-letter words./5-letter words./6-letter words./7-letter words./8-letter words./9-letter words./10-letter words./11-letter words./12-letter words./13-letter words./14-letter words./Return./Cancel.]"
187: 0x03CD [0x25] WAIT_DIALOG_SELECT()
188: 0x03CE [0x02] IF !(Work_Zone[0] == 0*) GOTO 0x03F7
189: 0x03D6 [0x03] Work_Zone[2] = Work_Zone[0]
190: 0x03DB [0x1A] CALL_SUBROUTINE(address=0x072A)
191: 0x03DE [0x02] IF !(Work_Zone[2] == 4294967295*) GOTO 0x03F4
192: 0x03E6 [0x03] ExtData[1]->WorkLocal[4] = Work_Zone[2]
193: 0x03EB [0x1A] CALL_SUBROUTINE(address=0x0A58)
194: 0x03EE [0xB4] UI_WINDOW_STRING_HANDLER(case=0x04 - Copy string to shared buffers, work_offset1=ExtData[1]->WorkLocal[5], work_offset2=1*)
195: 0x03F4 [0x01] GOTO 0x0656
196: 0x03F7 [0x02] IF !(Work_Zone[0] == 1*) GOTO 0x0420
197: 0x03FF [0x03] Work_Zone[2] = Work_Zone[0]
198: 0x0404 [0x1A] CALL_SUBROUTINE(address=0x072A)
199: 0x0407 [0x02] IF !(Work_Zone[2] == 4294967295*) GOTO 0x041D
200: 0x040F [0x03] ExtData[1]->WorkLocal[4] = Work_Zone[2]
201: 0x0414 [0x1A] CALL_SUBROUTINE(address=0x0A58)
202: 0x0417 [0xB4] UI_WINDOW_STRING_HANDLER(case=0x04 - Copy string to shared buffers, work_offset1=ExtData[1]->WorkLocal[5], work_offset2=1*)
203: 0x041D [0x01] GOTO 0x0656
204: 0x0420 [0x02] IF !(Work_Zone[0] == 2*) GOTO 0x0449
205: 0x0428 [0x03] Work_Zone[2] = Work_Zone[0]
206: 0x042D [0x1A] CALL_SUBROUTINE(address=0x072A)
207: 0x0430 [0x02] IF !(Work_Zone[2] == 4294967295*) GOTO 0x0446
208: 0x0438 [0x03] ExtData[1]->WorkLocal[4] = Work_Zone[2]
209: 0x043D [0x1A] CALL_SUBROUTINE(address=0x0A58)
210: 0x0440 [0xB4] UI_WINDOW_STRING_HANDLER(case=0x04 - Copy string to shared buffers, work_offset1=ExtData[1]->WorkLocal[5], work_offset2=1*)
211: 0x0446 [0x01] GOTO 0x0656
212: 0x0449 [0x02] IF !(Work_Zone[0] == 3*) GOTO 0x0472
213: 0x0451 [0x03] Work_Zone[2] = Work_Zone[0]
214: 0x0456 [0x1A] CALL_SUBROUTINE(address=0x072A)
215: 0x0459 [0x02] IF !(Work_Zone[2] == 4294967295*) GOTO 0x046F
216: 0x0461 [0x03] ExtData[1]->WorkLocal[4] = Work_Zone[2]
217: 0x0466 [0x1A] CALL_SUBROUTINE(address=0x0A58)
218: 0x0469 [0xB4] UI_WINDOW_STRING_HANDLER(case=0x04 - Copy string to shared buffers, work_offset1=ExtData[1]->WorkLocal[5], work_offset2=1*)
219: 0x046F [0x01] GOTO 0x0656
220: 0x0472 [0x02] IF !(Work_Zone[0] == 4*) GOTO 0x049B
221: 0x047A [0x03] Work_Zone[2] = Work_Zone[0]
222: 0x047F [0x1A] CALL_SUBROUTINE(address=0x072A)
223: 0x0482 [0x02] IF !(Work_Zone[2] == 4294967295*) GOTO 0x0498
224: 0x048A [0x03] ExtData[1]->WorkLocal[4] = Work_Zone[2]
225: 0x048F [0x1A] CALL_SUBROUTINE(address=0x0A58)
226: 0x0492 [0xB4] UI_WINDOW_STRING_HANDLER(case=0x04 - Copy string to shared buffers, work_offset1=ExtData[1]->WorkLocal[5], work_offset2=1*)
227: 0x0498 [0x01] GOTO 0x0656
228: 0x049B [0x02] IF !(Work_Zone[0] == 5*) GOTO 0x04C4
229: 0x04A3 [0x03] Work_Zone[2] = Work_Zone[0]
230: 0x04A8 [0x1A] CALL_SUBROUTINE(address=0x072A)
231: 0x04AB [0x02] IF !(Work_Zone[2] == 4294967295*) GOTO 0x04C1
232: 0x04B3 [0x03] ExtData[1]->WorkLocal[4] = Work_Zone[2]
233: 0x04B8 [0x1A] CALL_SUBROUTINE(address=0x0A58)
234: 0x04BB [0xB4] UI_WINDOW_STRING_HANDLER(case=0x04 - Copy string to shared buffers, work_offset1=ExtData[1]->WorkLocal[5], work_offset2=1*)
235: 0x04C1 [0x01] GOTO 0x0656
236: 0x04C4 [0x02] IF !(Work_Zone[0] == 6*) GOTO 0x04ED
237: 0x04CC [0x03] Work_Zone[2] = Work_Zone[0]
238: 0x04D1 [0x1A] CALL_SUBROUTINE(address=0x072A)
239: 0x04D4 [0x02] IF !(Work_Zone[2] == 4294967295*) GOTO 0x04EA
240: 0x04DC [0x03] ExtData[1]->WorkLocal[4] = Work_Zone[2]
241: 0x04E1 [0x1A] CALL_SUBROUTINE(address=0x0A58)
242: 0x04E4 [0xB4] UI_WINDOW_STRING_HANDLER(case=0x04 - Copy string to shared buffers, work_offset1=ExtData[1]->WorkLocal[5], work_offset2=1*)
243: 0x04EA [0x01] GOTO 0x0656
244: 0x04ED [0x02] IF !(Work_Zone[0] == 7*) GOTO 0x0516
245: 0x04F5 [0x03] Work_Zone[2] = Work_Zone[0]
246: 0x04FA [0x1A] CALL_SUBROUTINE(address=0x072A)
247: 0x04FD [0x02] IF !(Work_Zone[2] == 4294967295*) GOTO 0x0513
248: 0x0505 [0x03] ExtData[1]->WorkLocal[4] = Work_Zone[2]
249: 0x050A [0x1A] CALL_SUBROUTINE(address=0x0A58)
250: 0x050D [0xB4] UI_WINDOW_STRING_HANDLER(case=0x04 - Copy string to shared buffers, work_offset1=ExtData[1]->WorkLocal[5], work_offset2=1*)
251: 0x0513 [0x01] GOTO 0x0656
252: 0x0516 [0x02] IF !(Work_Zone[0] == 8*) GOTO 0x053F
253: 0x051E [0x03] Work_Zone[2] = Work_Zone[0]
254: 0x0523 [0x1A] CALL_SUBROUTINE(address=0x072A)
255: 0x0526 [0x02] IF !(Work_Zone[2] == 4294967295*) GOTO 0x053C
256: 0x052E [0x03] ExtData[1]->WorkLocal[4] = Work_Zone[2]
257: 0x0533 [0x1A] CALL_SUBROUTINE(address=0x0A58)
258: 0x0536 [0xB4] UI_WINDOW_STRING_HANDLER(case=0x04 - Copy string to shared buffers, work_offset1=ExtData[1]->WorkLocal[5], work_offset2=1*)
259: 0x053C [0x01] GOTO 0x0656
260: 0x053F [0x02] IF !(Work_Zone[0] == 9*) GOTO 0x0568
261: 0x0547 [0x03] Work_Zone[2] = Work_Zone[0]
262: 0x054C [0x1A] CALL_SUBROUTINE(address=0x072A)
263: 0x054F [0x02] IF !(Work_Zone[2] == 4294967295*) GOTO 0x0565
264: 0x0557 [0x03] ExtData[1]->WorkLocal[4] = Work_Zone[2]
265: 0x055C [0x1A] CALL_SUBROUTINE(address=0x0A58)
266: 0x055F [0xB4] UI_WINDOW_STRING_HANDLER(case=0x04 - Copy string to shared buffers, work_offset1=ExtData[1]->WorkLocal[5], work_offset2=1*)
267: 0x0565 [0x01] GOTO 0x0656
268: 0x0568 [0x02] IF !(Work_Zone[0] == 10*) GOTO 0x0591
269: 0x0570 [0x03] Work_Zone[2] = Work_Zone[0]
270: 0x0575 [0x1A] CALL_SUBROUTINE(address=0x072A)
271: 0x0578 [0x02] IF !(Work_Zone[2] == 4294967295*) GOTO 0x058E
272: 0x0580 [0x03] ExtData[1]->WorkLocal[4] = Work_Zone[2]
273: 0x0585 [0x1A] CALL_SUBROUTINE(address=0x0A58)
274: 0x0588 [0xB4] UI_WINDOW_STRING_HANDLER(case=0x04 - Copy string to shared buffers, work_offset1=ExtData[1]->WorkLocal[5], work_offset2=1*)
275: 0x058E [0x01] GOTO 0x0656
276: 0x0591 [0x02] IF !(Work_Zone[0] == 11*) GOTO 0x05BA
277: 0x0599 [0x03] Work_Zone[2] = Work_Zone[0]
278: 0x059E [0x1A] CALL_SUBROUTINE(address=0x072A)
279: 0x05A1 [0x02] IF !(Work_Zone[2] == 4294967295*) GOTO 0x05B7
280: 0x05A9 [0x03] ExtData[1]->WorkLocal[4] = Work_Zone[2]
281: 0x05AE [0x1A] CALL_SUBROUTINE(address=0x0A58)
282: 0x05B1 [0xB4] UI_WINDOW_STRING_HANDLER(case=0x04 - Copy string to shared buffers, work_offset1=ExtData[1]->WorkLocal[5], work_offset2=1*)
283: 0x05B7 [0x01] GOTO 0x0656
284: 0x05BA [0x02] IF !(Work_Zone[0] == 12*) GOTO 0x05E3
285: 0x05C2 [0x03] Work_Zone[2] = Work_Zone[0]
286: 0x05C7 [0x1A] CALL_SUBROUTINE(address=0x072A)
287: 0x05CA [0x02] IF !(Work_Zone[2] == 4294967295*) GOTO 0x05E0
288: 0x05D2 [0x03] ExtData[1]->WorkLocal[4] = Work_Zone[2]
289: 0x05D7 [0x1A] CALL_SUBROUTINE(address=0x0A58)
290: 0x05DA [0xB4] UI_WINDOW_STRING_HANDLER(case=0x04 - Copy string to shared buffers, work_offset1=ExtData[1]->WorkLocal[5], work_offset2=1*)
291: 0x05E0 [0x01] GOTO 0x0656
292: 0x05E3 [0x02] IF !(Work_Zone[0] == 13*) GOTO 0x060C
293: 0x05EB [0x03] Work_Zone[2] = Work_Zone[0]
294: 0x05F0 [0x1A] CALL_SUBROUTINE(address=0x072A)
295: 0x05F3 [0x02] IF !(Work_Zone[2] == 4294967295*) GOTO 0x0609
296: 0x05FB [0x03] ExtData[1]->WorkLocal[4] = Work_Zone[2]
297: 0x0600 [0x1A] CALL_SUBROUTINE(address=0x0A58)
298: 0x0603 [0xB4] UI_WINDOW_STRING_HANDLER(case=0x04 - Copy string to shared buffers, work_offset1=ExtData[1]->WorkLocal[5], work_offset2=1*)
299: 0x0609 [0x01] GOTO 0x0656
300: 0x060C [0x02] IF !(Work_Zone[0] == 14*) GOTO 0x0639
301: 0x0614 [0x03] ExtData[1]->WorkLocal[2] = 0*
302: 0x0619 [0x06] ExtData[1]->WorkLocal[3] = 0
303: 0x061C [0xB4] UI_WINDOW_STRING_HANDLER(case=0x00 - Copy string from opcode, work_offset=ExtData[1]->WorkLocal[9], string="???")
304: 0x0630 [0xB4] UI_WINDOW_STRING_HANDLER(case=0x04 - Copy string to shared buffers, work_offset1=ExtData[1]->WorkLocal[9], work_offset2=0*)
305: 0x0636 [0x01] GOTO 0x0656
306: 0x0639 [0x02] IF !(Work_Zone[0] == 15*) GOTO 0x0656
307: 0x0641 [0x03] ExtData[1]->WorkLocal[2] = 4294967295*
308: 0x0646 [0xB4] UI_WINDOW_STRING_HANDLER(case=0x01 - Copy string from event strings table, work_offset=ExtData[1]->WorkLocal[5], string_index=3*)
309: 0x064C [0xB4] UI_WINDOW_STRING_HANDLER(case=0x04 - Copy string to shared buffers, work_offset1=ExtData[1]->WorkLocal[5], work_offset2=0*)
310: 0x0652 [0x1B] RETURN

SUBROUTINE_0656:
311: 0x0656 [0x01] GOTO 0x070C
312: 0x0659 [0x02] IF !(ExtData[1]->WorkLocal[2] == 2*) GOTO 0x0707
313: 0x0661 [0x24] CREATE_DIALOG(message_id=7225*, default_option=1*, option_flags=0*)
    → "Is this name okay? [%0 %1? Yes!/On second thought...]"
314: 0x0668 [0x25] WAIT_DIALOG_SELECT()
315: 0x0669 [0x02] IF !(Work_Zone[0] == 0*) GOTO 0x06B0
316: 0x0671 [0x03] Work_Zone[2] = ExtData[1]->WorkLocal[3]
317: 0x0676 [0x03] Work_Zone[3] = ExtData[1]->WorkLocal[4]
318: 0x067B [0x03] Work_Zone[1] = 255*
319: 0x0680 [0x40] SET_BIT_WORK_RANGE(start_bit=8*, end_bit=17*, target=Work_Zone[1], source=ExtData[1]->WorkLocal[3])
320: 0x0689 [0x40] SET_BIT_WORK_RANGE(start_bit=18*, end_bit=27*, target=Work_Zone[1], source=ExtData[1]->WorkLocal[4])
321: 0x0692 [0x43] SEND_EVENT_UPDATE: Send pending tag to server (packet 0x005B)
322: 0x0694 [0x43] SEND_EVENT_UPDATE: Check pending flag (skip if not pending)
323: 0x0696 [0x02] IF !(Work_Zone[2] == 0*) GOTO 0x06A6
324: 0x069E [0x03] ExtData[1]->WorkLocal[1] = 1*
325: 0x06A3 [0x01] GOTO 0x06AD
326: 0x06A6 [0x1D] PRINT_EVENT_MESSAGE(message_id=7226*)
    → "That name is currently unavailable. Please try another combination."
327: 0x06A9 [0x23] WAIT_FOR_DIALOG_INTERACTION
328: 0x06AA [0x01] GOTO 0x06B8

SUBROUTINE_06AD:
329: 0x06AD [0x01] GOTO 0x0704
330: 0x06B0 [0x02] IF !(Work_Zone[0] == 1*) GOTO 0x0704

SUBROUTINE_06B8:
331: 0x06B8 [0x06] ExtData[1]->WorkLocal[0] = 0
332: 0x06BB [0x06] ExtData[1]->WorkLocal[1] = 0
333: 0x06BE [0x06] ExtData[1]->WorkLocal[2] = 0
334: 0x06C1 [0x06] ExtData[1]->WorkLocal[3] = 0
335: 0x06C4 [0x06] ExtData[1]->WorkLocal[4] = 0
336: 0x06C7 [0x06] Work_Zone_1700[31] = 0
337: 0x06CA [0x06] Work_Zone_1700[1] = 0
338: 0x06CD [0xB4] UI_WINDOW_STRING_HANDLER(case=0x00 - Copy string from opcode, work_offset=ExtData[1]->WorkLocal[5], string="???")
339: 0x06E1 [0xB4] UI_WINDOW_STRING_HANDLER(case=0x04 - Copy string to shared buffers, work_offset1=ExtData[1]->WorkLocal[5], work_offset2=0*)
340: 0x06E7 [0xB4] UI_WINDOW_STRING_HANDLER(case=0x00 - Copy string from opcode, work_offset=ExtData[1]->WorkLocal[5], string="")
341: 0x06FB [0xB4] UI_WINDOW_STRING_HANDLER(case=0x04 - Copy string to shared buffers, work_offset1=ExtData[1]->WorkLocal[5], work_offset2=1*)
342: 0x0701 [0x01] GOTO 0x0704

SUBROUTINE_0704:
343: 0x0704 [0x01] GOTO 0x070C
344: 0x0707 [0x03] ExtData[1]->WorkLocal[1] = 4294967295*

SUBROUTINE_070C:
345: 0x070C [0x01] GOTO 0x00B9
346: 0x070F [0x02] IF !(ExtData[1]->WorkLocal[1] == 4294967295*) GOTO 0x0729
347: 0x0717 [0xB4] UI_WINDOW_STRING_HANDLER(case=0x01 - Copy string from event strings table, work_offset=ExtData[1]->WorkLocal[5], string_index=3*)
348: 0x071D [0xB4] UI_WINDOW_STRING_HANDLER(case=0x04 - Copy string to shared buffers, work_offset1=ExtData[1]->WorkLocal[5], work_offset2=0*)
349: 0x0723 [0x03] ExtData[1]->WorkLocal[2] = 4294967295*
350: 0x0728 [0x1B] RETURN
351: 0x0729 [0x1B] RETURN

SUBROUTINE_072A:
352: 0x072A [0x03] Work_Zone_1700[22] = Work_Zone[2]
353: 0x072F [0x9D] Work_Zone_1700[23] = 0x0ACE[Work_Zone[2]] // Read WORD
354: 0x0737 [0x9D] Work_Zone_1700[24] = 0x0AEE[Work_Zone[2]] // Read WORD
355: 0x073F [0x03] Work_Zone_1700[25] = 1*

SUBROUTINE_0744:
356: 0x0744 [0x02] IF !(1* == 1*) GOTO 0x0809
357: 0x074C [0x06] Work_Zone_1700[28] = 0

SUBROUTINE_074F:
358: 0x074F [0x02] IF !(Work_Zone_1700[28] >= 30*) GOTO 0x078A
359: 0x0757 [0x02] IF !(Work_Zone_1700[28] >= Work_Zone_1700[24]) GOTO 0x0779
360: 0x075F [0x03] Work_Zone_1700[26] = Work_Zone_1700[25]
361: 0x0764 [0x08] Work_Zone_1700[26] -= 1*
362: 0x0769 [0x14] Work_Zone_1700[26] *= 30*
363: 0x076E [0x07] Work_Zone_1700[26] += Work_Zone_1700[28]
364: 0x0773 [0x1A] CALL_SUBROUTINE(address=0x080A)
365: 0x0776 [0x01] GOTO 0x077C
366: 0x0779 [0x06] Work_Zone_1700[27] = 0

SUBROUTINE_077C:
367: 0x077C [0x9D] 0x0928[Work_Zone_1700[28] * 2] = Work_Zone_1700[27] // Write WORD
368: 0x0784 [0x0B] Work_Zone_1700[28]++
369: 0x0787 [0x01] GOTO 0x074F
370: 0x078A [0x03] Work_Zone_1700[28] = Work_Zone_1700[22]
371: 0x078F [0x14] Work_Zone_1700[28] *= 8*
372: 0x0794 [0x07] Work_Zone_1700[28] += Work_Zone_1700[25]
373: 0x0799 [0x08] Work_Zone_1700[28] -= 1*
374: 0x079E [0x9D] Work_Zone_1700[28] = 0x0968[Work_Zone_1700[28]] // Read WORD
375: 0x07A6 [0x24] CREATE_DIALOG(message_id=7227*, default_option=0*, option_flags=Work_Zone_1700[28])
    → "Choose a word.(%0) [$0/$1/$2/$3/$4/$5/$6/$7/$8/$9/$10/$11/$12/$13/$14/$15/$16/$17/$18/$19/$20/$21/$22/$23/$24/$25/$26/$27/$28/$29/Cancel./View other options.]"
376: 0x07AD [0x25] WAIT_DIALOG_SELECT()
377: 0x07AE [0x02] IF !(Work_Zone[0] == 30*) GOTO 0x07BF
378: 0x07B6 [0x03] Work_Zone[2] = 4294967295*
379: 0x07BB [0x1B] RETURN

SUBROUTINE_0806:
380: 0x0806 [0x01] GOTO 0x0744
381: 0x0809 [0x1B] RETURN

SUBROUTINE_080A:
382: 0x080A [0x02] IF !(Work_Zone_1700[22] == 0*) GOTO 0x081D
383: 0x0812 [0x9D] Work_Zone_1700[27] = 0x0B0E[Work_Zone_1700[26]] // Read WORD
384: 0x081A [0x01] GOTO 0x0927
385: 0x081D [0x02] IF !(Work_Zone_1700[22] == 1*) GOTO 0x0830
386: 0x0825 [0x9D] Work_Zone_1700[27] = 0x0B1E[Work_Zone_1700[26]] // Read WORD
387: 0x082D [0x01] GOTO 0x0927
388: 0x0830 [0x02] IF !(Work_Zone_1700[22] == 2*) GOTO 0x0843
389: 0x0838 [0x9D] Work_Zone_1700[27] = 0x0B2E[Work_Zone_1700[26]] // Read WORD
390: 0x0840 [0x01] GOTO 0x0927
391: 0x0843 [0x02] IF !(Work_Zone_1700[22] == 3*) GOTO 0x0856
392: 0x084B [0x9D] Work_Zone_1700[27] = 0x0B8E[Work_Zone_1700[26]] // Read WORD
393: 0x0853 [0x01] GOTO 0x0927
394: 0x0856 [0x02] IF !(Work_Zone_1700[22] == 4*) GOTO 0x0869
395: 0x085E [0x9D] Work_Zone_1700[27] = 0x0C6E[Work_Zone_1700[26]] // Read WORD
396: 0x0866 [0x01] GOTO 0x0927
397: 0x0869 [0x02] IF !(Work_Zone_1700[22] == 5*) GOTO 0x087C
398: 0x0871 [0x9D] Work_Zone_1700[27] = 0x0DCE[Work_Zone_1700[26]] // Read WORD
399: 0x0879 [0x01] GOTO 0x0927
400: 0x087C [0x02] IF !(Work_Zone_1700[22] == 6*) GOTO 0x088F
401: 0x0884 [0x9D] Work_Zone_1700[27] = 0x0F5E[Work_Zone_1700[26]] // Read WORD
402: 0x088C [0x01] GOTO 0x0927
403: 0x088F [0x02] IF !(Work_Zone_1700[22] == 7*) GOTO 0x08A2
404: 0x0897 [0x9D] Work_Zone_1700[27] = 0x107E[Work_Zone_1700[26]] // Read WORD
405: 0x089F [0x01] GOTO 0x0927
406: 0x08A2 [0x02] IF !(Work_Zone_1700[22] == 8*) GOTO 0x08B5
407: 0x08AA [0x9D] Work_Zone_1700[27] = 0x112E[Work_Zone_1700[26]] // Read WORD
408: 0x08B2 [0x01] GOTO 0x0927
409: 0x08B5 [0x02] IF !(Work_Zone_1700[22] == 9*) GOTO 0x08C8
410: 0x08BD [0x9D] Work_Zone_1700[27] = 0x119E[Work_Zone_1700[26]] // Read WORD
411: 0x08C5 [0x01] GOTO 0x0927
412: 0x08C8 [0x02] IF !(Work_Zone_1700[22] == 10*) GOTO 0x08DB
413: 0x08D0 [0x9D] Work_Zone_1700[27] = 0x11BE[Work_Zone_1700[26]] // Read WORD
414: 0x08D8 [0x01] GOTO 0x0927
415: 0x08DB [0x02] IF !(Work_Zone_1700[22] == 11*) GOTO 0x08EE
416: 0x08E3 [0x9D] Work_Zone_1700[27] = 0x11CE[Work_Zone_1700[26]] // Read WORD
417: 0x08EB [0x01] GOTO 0x0927
418: 0x08EE [0x02] IF !(Work_Zone_1700[22] == 12*) GOTO 0x0901
419: 0x08F6 [0x9D] Work_Zone_1700[27] = 0x11DE[Work_Zone_1700[26]] // Read WORD
420: 0x08FE [0x01] GOTO 0x0927
421: 0x0901 [0x02] IF !(Work_Zone_1700[22] == 13*) GOTO 0x0914
422: 0x0909 [0x9D] Work_Zone_1700[27] = 0x11EE[Work_Zone_1700[26]] // Read WORD
423: 0x0911 [0x01] GOTO 0x0927
424: 0x0914 [0x02] IF !(Work_Zone_1700[22] == 14*) GOTO 0x0927
425: 0x091C [0x9D] Work_Zone_1700[27] = 0x11FE[Work_Zone_1700[26]] // Read WORD
426: 0x0924 [0x01] GOTO 0x0927

SUBROUTINE_0927:
427: 0x0927 [0x1B] RETURN

SUBROUTINE_0A58:
428: 0x0A58 [0x2F] Unknown NPC (ID: 17313805/0x0108300D)->Render.Flags0 &= ~0x80000 // Bit 19
429: 0x0A5E [0x29] REQ_SET_WAIT(priority=0x80, entity_id=Unknown NPC (ID: 17313805/0x0108300D), tag_num=0x03)
430: 0x0A65 [0x9D] Work_Zone[2] = WorkZone[0*]->String[ExtData[1]->WorkLocal[5]]
431: 0x0A6D [0x1B] RETURN
432: 0x0A6E [0x25] WAIT_DIALOG_SELECT()
433: 0x0A6F [0x80] LOAD_WAIT(entity=Unknown NPC (ID: 2147778597/0x80048025))
434: 0x0A74 [0x27] REQ_SET(priority=0x80, entity_id=Unknown NPC (ID: 2147778564/0x80048004), tag_num=0x04)
435: 0x0A7B [0x80] LOAD_WAIT(entity=Unknown NPC (ID: 2147778599/0x80048027))
436: 0x0A80 [0x04] DEPRECATED_NOP(unused=0x0480)
437: 0x0A83 [0x80] LOAD_WAIT(entity=Unknown NPC (ID: 2147778564/0x80048004))
438: 0x0A88 [0x28] REQ_SET_WITH_CONDITIONS(priority=0x80, target_entity=Unknown NPC (ID: 2147778564/0x80048004), tag_num=0x04)
439: 0x0A8F [0x80] LOAD_WAIT(entity=Unknown NPC (ID: 2147778564/0x80048004))
440: 0x0A94 [0x04] DEPRECATED_NOP(unused=0x3080)
441: 0x0A97 [0x80] LOAD_WAIT(entity=Unknown NPC (ID: 2147778564/0x80048004))
442: 0x0A9C [0x04] DEPRECATED_NOP(unused=0x0480)
443: 0x0A9F [0x80] LOAD_WAIT(entity=Unknown NPC (ID: 2147778603/0x8004802B))
444: 0x0AA4 [0x04] DEPRECATED_NOP(unused=0x2880)
445: 0x0AA7 [0x80] LOAD_WAIT(entity=Unknown NPC (ID: 2150465540/0x802D8004))
446: 0x0AAC [0x2E] SET_CLI_EVENT_CANCEL_FLAGS()
447: 0x0AAD [0x80] LOAD_WAIT(entity=Unknown NPC (ID: 2147778607/0x8004802F))
448: 0x0AB2 [0x04] DEPRECATED_NOP(unused=0x0480)
449: 0x0AB5 [0x80] LOAD_WAIT(entity=Unknown NPC (ID: 2147778564/0x80048004))
450: 0x0ABA [0x04] DEPRECATED_NOP(unused=0x0480)
451: 0x0ABD [0x80] LOAD_WAIT(entity=Unknown NPC (ID: 2147778607/0x8004802F))
452: 0x0AC2 [0x04] DEPRECATED_NOP(unused=0x0480)
453: 0x0AC5 [0x80] LOAD_WAIT(entity=Unknown NPC (ID: 2147778564/0x80048004))
454: 0x0ACA [0x04] DEPRECATED_NOP(unused=0x0480)
455: 0x0ACD [0x80] LOAD_WAIT(entity=Unknown NPC (ID: 2147713027/0x80038003))
456: 0x0AD2 [0x0D] 0x0E80 &= 0x1080
457: 0x0AD7 [0x80] LOAD_WAIT(entity=Unknown NPC (ID: 2148499473/0x800F8011))
458: 0x0ADC [0x0A] 0x0D80 &= ~(1 << 0x0380)
459: 0x0AE1 [0x80] LOAD_WAIT(entity=Unknown NPC (ID: 2147713027/0x80038003))
460: 0x0AE6 [0x03] 0x0380 = 0x0380
461: 0x0AEB [0x80] LOAD_WAIT(entity=Unknown NPC (ID: 2148564996/0x80108004))
462: 0x0AF0 [0x10] 0x3180 <<= 0x3280
463: 0x0AF5 [0x80] LOAD_WAIT(entity=Unknown NPC (ID: 2150924339/0x80348033))
464: 0x0AFA [0x35] LOAD_ZONE_NO_CLOSE(zone_id=0x3680)
465: 0x0AFD [0x80] LOAD_WAIT(entity=Unknown NPC (ID: 2149089335/0x80188037))
466: 0x0B02 [0x0D] 0x0480 &= 0x0480
467: 0x0B07 [0x80] LOAD_WAIT(entity=Unknown NPC (ID: 2147778564/0x80048004))
468: 0x0B0C [0x04] DEPRECATED_NOP(unused=0x0480)
469: 0x0B0F [0x80] LOAD_WAIT(entity=Unknown NPC (ID: 2148368387/0x800D8003))
470: 0x0B14 [0x0A] 0x0E80 &= ~(1 << 0x0F80)
471: 0x0B19 [0x80] LOAD_WAIT(entity=Unknown NPC (ID: 2147778564/0x80048004))
```

#### Data or dead code:

```
# Data Section: 0x0928 (304 bytes)
     0x0928: 02 10 03 10 04 10 05 10 06 10 07 10 08 10 09 10
     0x0938: 00 17 01 17 02 17 03 17 04 17 05 17 06 17 07 17
     0x0948: 08 17 09 17 0A 17 0B 17 0C 17 0D 17 0E 17 0F 17
     0x0958: 10 17 11 17 12 17 13 17 14 17 15 17 1F 17 1F 17
     0x0968: 25 80 04 80 04 80 04 80 04 80 04 80 04 80 04 80
     0x0978: 25 80 04 80 04 80 04 80 04 80 04 80 04 80 04 80
     0x0988: 26 80 27 80 04 80 04 80 04 80 04 80 04 80 04 80
     0x0998: 04 80 04 80 04 80 27 80 04 80 04 80 04 80 04 80
     0x09A8: 04 80 04 80 04 80 04 80 04 80 28 80 04 80 04 80
     0x09B8: 04 80 04 80 04 80 04 80 04 80 29 80 2A 80 04 80
     0x09C8: 04 80 04 80 04 80 04 80 2B 80 04 80 04 80 04 80
     0x09D8: 04 80 2C 80 28 80 04 80 04 80 04 80 04 80 04 80
     0x09E8: 04 80 2D 80 04 80 04 80 04 80 04 80 04 80 04 80
     0x09F8: 2E 80 04 80 04 80 04 80 04 80 04 80 04 80 04 80
     0x0A08: 2F 80 04 80 04 80 04 80 04 80 04 80 04 80 04 80
     0x0A18: 04 80 04 80 04 80 04 80 04 80 04 80 04 80 04 80
     0x0A28: 04 80 04 80 04 80 04 80 04 80 04 80 04 80 04 80
     0x0A38: 04 80 04 80 04 80 04 80 04 80 04 80 04 80 04 80
     0x0A48: 04 80 04 80 04 80 04 80 04 80 04 80 04 80 04 80
# Data Section: 0x0B1E (2 bytes)
     0x0B1E: 10 80
# Data Section: 0x0C6E (2 bytes)
     0x0C6E: C6 80
# Dead code (unreachable instructions):
     0x037F [0x01] GOTO 0x0382
# Dead code (unreachable instructions):
     0x0653 [0x01] GOTO 0x0656
# Dead code (unreachable instructions):
     0x07BC [0x01] GOTO 0x0806
# Dead code (unreachable instructions):
     0x0CE8 [0x01] GOTO 0x0281
     0x0CEB [0x81] SET_ENTITY_BLINKING(blink_flag=0x03, entity=Unknown NPC (ID: 92341377/0x05810481))
     0x0CF1 [0x81] SET_ENTITY_BLINKING(blink_flag=0x06, entity=Unknown NPC (ID: 142673793/0x08810781))
     0x0CF7 [0x81] SET_ENTITY_BLINKING(blink_flag=0x09, entity=Unknown NPC (ID: 193006209/0x0B810A81))
     0x0CFD [0x81] SET_ENTITY_BLINKING(blink_flag=0x0C, entity=Unknown NPC (ID: 243338625/0x0E810D81))
     0x0D03 [0x81] SET_ENTITY_BLINKING(blink_flag=0x0F, entity=Unknown NPC (ID: 293671041/0x11811081))
     0x0D09 [0x81] SET_ENTITY_BLINKING(blink_flag=0x12, entity=Unknown NPC (ID: 344003457/0x14811381))
     0x0D0F [0x81] SET_ENTITY_BLINKING(blink_flag=0x15, entity=Unknown NPC (ID: 394335873/0x17811681))
     0x0D15 [0x81] SET_ENTITY_BLINKING(blink_flag=0x18, entity=Unknown NPC (ID: 444668289/0x1A811981))
     0x0D1B [0x81] SET_ENTITY_BLINKING(blink_flag=0x1D, entity=Unknown NPC (ID: 478223232/0x1C811B80))
     0x0D21 [0x81] SET_ENTITY_BLINKING(blink_flag=0x1D, entity=Unknown NPC (ID: 528555649/0x1F811E81))
     0x0D27 [0x81] SET_ENTITY_BLINKING(blink_flag=0x20, entity=Unknown NPC (ID: 578888065/0x22812181))
     0x0D2D [0x81] SET_ENTITY_BLINKING(blink_flag=0x23, entity=Unknown NPC (ID: 629220481/0x25812481))
     0x0D33 [0x81] SET_ENTITY_BLINKING(blink_flag=0x26, entity=Unknown NPC (ID: 679552897/0x28812781))
     0x0D39 [0x81] SET_ENTITY_BLINKING(blink_flag=0x29, entity=Unknown NPC (ID: 729885313/0x2B812A81))
     0x0D3F [0x81] SET_ENTITY_BLINKING(blink_flag=0x2C, entity=Unknown NPC (ID: 780217729/0x2E812D81))
     0x0D45 [0x81] SET_ENTITY_BLINKING(blink_flag=0x2F, entity=Unknown NPC (ID: 830550145/0x31813081))
     0x0D4B [0x81] SET_ENTITY_BLINKING(blink_flag=0x32, entity=Unknown NPC (ID: 880882561/0x34813381))
     0x0D51 [0x81] SET_ENTITY_BLINKING(blink_flag=0x35, entity=Unknown NPC (ID: 931214977/0x37813681))
     0x0D57 [0x81] SET_ENTITY_BLINKING(blink_flag=0x38, entity=Unknown NPC (ID: 981547393/0x3A813981))
     0x0D5D [0x81] SET_ENTITY_BLINKING(blink_flag=0x3B, entity=Unknown NPC (ID: 1031879809/0x3D813C81))
     0x0D63 [0x81] SET_ENTITY_BLINKING(blink_flag=0x3E, entity=Unknown NPC (ID: 1082212225/0x40813F81))
     0x0D69 [0x81] SET_ENTITY_BLINKING(blink_flag=0x41, entity=Unknown NPC (ID: 1132544641/0x43814281))
     0x0D6F [0x81] SET_ENTITY_BLINKING(blink_flag=0x44, entity=Unknown NPC (ID: 1182877057/0x46814581))
     0x0D75 [0x81] SET_ENTITY_BLINKING(blink_flag=0x47, entity=Unknown NPC (ID: 1233209473/0x49814881))
     0x0D7B [0x81] SET_ENTITY_BLINKING(blink_flag=0x4A, entity=Unknown NPC (ID: 1283541889/0x4C814B81))
     0x0D81 [0x81] SET_ENTITY_BLINKING(blink_flag=0x4D, entity=Unknown NPC (ID: 1333874305/0x4F814E81))
     0x0D87 [0x81] SET_ENTITY_BLINKING(blink_flag=0x50, entity=Unknown NPC (ID: 1384206721/0x52815181))
     0x0D8D [0x81] SET_ENTITY_BLINKING(blink_flag=0x53, entity=Unknown NPC (ID: 1434539137/0x55815481))
     0x0D93 [0x81] SET_ENTITY_BLINKING(blink_flag=0x56, entity=Unknown NPC (ID: 1484871553/0x58815781))
     0x0D99 [0x81] SET_ENTITY_BLINKING(blink_flag=0x59, entity=Unknown NPC (ID: 1535203969/0x5B815A81))
     0x0D9F [0x81] SET_ENTITY_BLINKING(blink_flag=0x5C, entity=Unknown NPC (ID: 1585536385/0x5E815D81))
     0x0DA5 [0x81] SET_ENTITY_BLINKING(blink_flag=0x5F, entity=Unknown NPC (ID: 1635868801/0x61816081))
     0x0DAB [0x81] SET_ENTITY_BLINKING(blink_flag=0x62, entity=Unknown NPC (ID: 1686201217/0x64816381))
     0x0DB1 [0x81] SET_ENTITY_BLINKING(blink_flag=0x65, entity=Unknown NPC (ID: 1736533633/0x67816681))
     0x0DB7 [0x81] SET_ENTITY_BLINKING(blink_flag=0x68, entity=Unknown NPC (ID: 1786866049/0x6A816981))
     0x0DBD [0x81] SET_ENTITY_BLINKING(blink_flag=0x6B, entity=Unknown NPC (ID: 1837198465/0x6D816C81))
     0x0DC3 [0x81] SET_ENTITY_BLINKING(blink_flag=0x6E, entity=Unknown NPC (ID: 1887530881/0x70816F81))
     0x0DC9 [0x81] SET_ENTITY_BLINKING(blink_flag=0x04, entity=Unknown NPC (ID: 1904215168/0x71800480))
     0x0DCF [0x81] SET_ENTITY_BLINKING(blink_flag=0x72, entity=Unknown NPC (ID: 1954640769/0x74817381))
     0x0DD5 [0x81] SET_ENTITY_BLINKING(blink_flag=0x75, entity=Unknown NPC (ID: 2004973185/0x77817681))
     0x0DDB [0x81] SET_ENTITY_BLINKING(blink_flag=0x78, entity=Unknown NPC (ID: 2055305601/0x7A817981))
     0x0DE1 [0x81] SET_ENTITY_BLINKING(blink_flag=0x7B, entity=Unknown NPC (ID: 2105638017/0x7D817C81))
     0x0DE7 [0x81] SET_ENTITY_BLINKING(blink_flag=0x7E, entity=Unknown NPC (ID: 2155970433/0x80817F81))
     0x0DED [0x81] SET_ENTITY_BLINKING(blink_flag=0x81, entity=Unknown NPC (ID: 2206302849/0x83818281))
     0x0DF3 [0x81] SET_ENTITY_BLINKING(blink_flag=0x84, entity=Unknown NPC (ID: 2256635265/0x86818581))
     0x0DF9 [0x81] SET_ENTITY_BLINKING(blink_flag=0x87, entity=Unknown NPC (ID: 2306967681/0x89818881))
     0x0DFF [0x81] SET_ENTITY_BLINKING(blink_flag=0x8A, entity=Unknown NPC (ID: 2357300097/0x8C818B81))
     0x0E05 [0x81] SET_ENTITY_BLINKING(blink_flag=0x8D, entity=Unknown NPC (ID: 2407632513/0x8F818E81))
     0x0E0B [0x81] SET_ENTITY_BLINKING(blink_flag=0x90, entity=Unknown NPC (ID: 2457964929/0x92819181))
     0x0E11 [0x81] SET_ENTITY_BLINKING(blink_flag=0x93, entity=Unknown NPC (ID: 2508297345/0x95819481))
     0x0E17 [0x81] SET_ENTITY_BLINKING(blink_flag=0x96, entity=Unknown NPC (ID: 2558629761/0x98819781))
     0x0E1D [0x81] SET_ENTITY_BLINKING(blink_flag=0x99, entity=Unknown NPC (ID: 2608962177/0x9B819A81))
     0x0E23 [0x81] SET_ENTITY_BLINKING(blink_flag=0x9C, entity=Unknown NPC (ID: 2659294593/0x9E819D81))
     0x0E29 [0x81] SET_ENTITY_BLINKING(blink_flag=0x9F, entity=Unknown NPC (ID: 2709627009/0xA181A081))
     0x0E2F [0x81] SET_ENTITY_BLINKING(blink_flag=0xA2, entity=Unknown NPC (ID: 2759959425/0xA481A381))
     0x0E35 [0x81] SET_ENTITY_BLINKING(blink_flag=0xA5, entity=Unknown NPC (ID: 2810291841/0xA781A681))
     0x0E3B [0x81] SET_ENTITY_BLINKING(blink_flag=0xA8, entity=Unknown NPC (ID: 2860624257/0xAA81A981))
     0x0E41 [0x81] SET_ENTITY_BLINKING(blink_flag=0xAB, entity=Unknown NPC (ID: 2910956673/0xAD81AC81))
     0x0E47 [0x81] SET_ENTITY_BLINKING(blink_flag=0xAE, entity=Unknown NPC (ID: 2961289089/0xB081AF81))
     0x0E4D [0x81] SET_ENTITY_BLINKING(blink_flag=0xB1, entity=Unknown NPC (ID: 3011621505/0xB381B281))
     0x0E53 [0x81] SET_ENTITY_BLINKING(blink_flag=0xB4, entity=Unknown NPC (ID: 3061953921/0xB681B581))
     0x0E59 [0x81] SET_ENTITY_BLINKING(blink_flag=0xB7, entity=Unknown NPC (ID: 3112286337/0xB981B881))
     0x0E5F [0x81] SET_ENTITY_BLINKING(blink_flag=0xBA, entity=Unknown NPC (ID: 3162618753/0xBC81BB81))
     0x0E65 [0x81] SET_ENTITY_BLINKING(blink_flag=0xBD, entity=Unknown NPC (ID: 3212951169/0xBF81BE81))
     0x0E6B [0x81] SET_ENTITY_BLINKING(blink_flag=0xC0, entity=Unknown NPC (ID: 3263283585/0xC281C181))
     0x0E71 [0x81] SET_ENTITY_BLINKING(blink_flag=0xC3, entity=Unknown NPC (ID: 3313616001/0xC581C481))
     0x0E77 [0x81] SET_ENTITY_BLINKING(blink_flag=0xC6, entity=Unknown NPC (ID: 3363948417/0xC881C781))
     0x0E7D [0x81] SET_ENTITY_BLINKING(blink_flag=0xC9, entity=Unknown NPC (ID: 3414280833/0xCB81CA81))
     0x0E83 [0x81] SET_ENTITY_BLINKING(blink_flag=0xCC, entity=Unknown NPC (ID: 3464613249/0xCE81CD81))
