# 17478340 - Tucker

## Common Data

| Field            | Value                        |
|------------------|------------------------------|
| Zone             | Crawlers' Nest [S] (ID: 171) |
| Block Size       | 672 bytes                    |
| Total Events     | 13                           |
| References Count | 21                           |

## List of Events

| Event ID              | Entrypoint   |   Size |   Instructions |
|-----------------------|--------------|--------|----------------|
| [65535](#event-65535) | 0x0000       |      1 |              1 |
| [4](#event-4)         | 0x0001       |      1 |              1 |
| [6](#event-6)         | 0x0002       |      1 |              1 |
| [8](#event-8)         | 0x0003       |      1 |              1 |
| [11](#event-11)       | 0x0004       |      1 |              1 |
| [5](#event-5)         | 0x0005       |     65 |             13 |
| [7](#event-7)         | 0x0046       |     49 |             13 |
| [9](#event-9)         | 0x0077       |     61 |             16 |
| [10](#event-10)       | 0x00B4       |    122 |             20 |
| [12](#event-12)       | 0x012E       |     15 |              5 |
| [13](#event-13)       | 0x013D       |     65 |             11 |
| [14](#event-14)       | 0x017E       |     58 |             12 |
| [15](#event-15)       | 0x01B8       |     77 |             13 |

## DAT References (imed_data)

|   Index | Hex Value   |   Dec Value |
|---------|-------------|-------------|
|       0 | 0x00EE      |         238 |
|       1 | 0x002D      |          45 |
|       2 | 0x1DEE      |        7662 |
|       3 | 0x0014      |          20 |
|       4 | 0x1DEF      |        7663 |
|       5 | 0x09F6      |        2550 |
|       6 | 0x110D      |        4365 |
|       7 | 0x1DF5      |        7669 |
|       8 | 0x1DF6      |        7670 |
|       9 | 0x1DF7      |        7671 |
|      10 | 0x1DF8      |        7672 |
|      11 | 0x0000      |           0 |
|      12 | 0x1E03      |        7683 |
|      13 | 0x1DF9      |        7673 |
|      14 | 0x1DFA      |        7674 |
|      15 | 0x1DFD      |        7677 |
|      16 | 0x1DEC      |        7660 |
|      17 | 0x1E04      |        7684 |
|      18 | 0x1E05      |        7685 |
|      19 | 0x1DFF      |        7679 |
|      20 | 0x1E00      |        7680 |

## Events

### Event 65535

#### Metadata

| Field        | Value   |
|--------------|---------|
| Entrypoint   | 0x0000  |
| Data Size    | 1 bytes |
| Instructions | 1       |

```
      00 01 02 03 04 05 06 07  08 09 0A 0B 0C 0D 0E 0F
      -- -- -- -- -- -- -- --  -- -- -- -- -- -- -- --
0000: 00                                                .               
```

#### Opcodes

```
  0: 0x0000 [0x00] END_REQSTACK()
```

### Event 4

#### Metadata

| Field        | Value   |
|--------------|---------|
| Entrypoint   | 0x0001  |
| Data Size    | 1 bytes |
| Instructions | 1       |

```
      00 01 02 03 04 05 06 07  08 09 0A 0B 0C 0D 0E 0F
      -- -- -- -- -- -- -- --  -- -- -- -- -- -- -- --
0000:    00                                              .              
```

#### Opcodes

```
  0: 0x0001 [0x00] END_REQSTACK()
```

### Event 6

#### Metadata

| Field        | Value   |
|--------------|---------|
| Entrypoint   | 0x0002  |
| Data Size    | 1 bytes |
| Instructions | 1       |

```
      00 01 02 03 04 05 06 07  08 09 0A 0B 0C 0D 0E 0F
      -- -- -- -- -- -- -- --  -- -- -- -- -- -- -- --
0000:       00                                            .             
```

#### Opcodes

```
  0: 0x0002 [0x00] END_REQSTACK()
```

### Event 8

#### Metadata

| Field        | Value   |
|--------------|---------|
| Entrypoint   | 0x0003  |
| Data Size    | 1 bytes |
| Instructions | 1       |

```
      00 01 02 03 04 05 06 07  08 09 0A 0B 0C 0D 0E 0F
      -- -- -- -- -- -- -- --  -- -- -- -- -- -- -- --
0000:          00                                          .            
```

#### Opcodes

```
  0: 0x0003 [0x00] END_REQSTACK()
```

### Event 11

#### Metadata

| Field        | Value   |
|--------------|---------|
| Entrypoint   | 0x0004  |
| Data Size    | 1 bytes |
| Instructions | 1       |

```
      00 01 02 03 04 05 06 07  08 09 0A 0B 0C 0D 0E 0F
      -- -- -- -- -- -- -- --  -- -- -- -- -- -- -- --
0000:             00                                        .           
```

#### Opcodes

```
  0: 0x0004 [0x00] END_REQSTACK()
```

### Event 5

#### Metadata

| Field        | Value    |
|--------------|----------|
| Entrypoint   | 0x0005   |
| Data Size    | 65 bytes |
| Instructions | 13       |

```
      00 01 02 03 04 05 06 07  08 09 0A 0B 0C 0D 0E 0F
      -- -- -- -- -- -- -- --  -- -- -- -- -- -- -- --
0000:                1E F0 FF  FF 7F 6F 76 F8 FF FF 7F       .....ov....
0010: 5B 00 80 C4 B2 0A 01 C4  B2 0A 01 74 68 6B 31 1C  [..........thk1.
0020: 01 80 2B C4 B2 0A 01 02  80 23 5B 00 80 C4 B2 0A  ..+......#[.....
0030: 01 C4 B2 0A 01 74 68 6B  32 1C 03 80 2B C4 B2 0A  .....thk2...+...
0040: 01 04 80 23 21 00                                 ...#!.          
```

#### Opcodes

```
  0: 0x0005 [0x1E] EventEntity looks at LocalPlayer and starts talking
  1: 0x000A [0x6F] WAIT_FRAME_DELAY: Yield until WaitTime reaches zero
  2: 0x000B [0x76] CHECK_ENTITY_RENDER_FLAGS: Wait until EventEntity Render.Flags0 and Render.Flags3 conditions are met
  3: 0x0010 [0x5B] LOAD_EXT_SCHEDULER: Load scheduler "thk1" with entities [Tucker (ID: 17478340/0x010AB2C4), Tucker (ID: 17478340/0x010AB2C4)], work=238*
  4: 0x001F [0x1C] WAIT(45* ticks)
  5: 0x0022 [0x2B] Tucker (ID: 17478340/0x010AB2C4) [7662*]:
    → "Hm? Scholars? You know, they use them "grim-wahs" and study marital...er, martial theory...or some such."
  6: 0x0029 [0x23] WAIT_FOR_DIALOG_INTERACTION
  7: 0x002A [0x5B] LOAD_EXT_SCHEDULER: Load scheduler "thk2" with entities [Tucker (ID: 17478340/0x010AB2C4), Tucker (ID: 17478340/0x010AB2C4)], work=238*
  8: 0x0039 [0x1C] WAIT(20* ticks)
  9: 0x003C [0x2B] Tucker (ID: 17478340/0x010AB2C4) [7663*]:
    → "Anyway, they're a weird bunch. The most famous one I've heard of is a Bastokan army officer, and he's holed up in a tomb in Batallia Downs somewhere. Crazy, I tell you."
 10: 0x0043 [0x23] WAIT_FOR_DIALOG_INTERACTION
 11: 0x0044 [0x21] END_EVENT
 12: 0x0045 [0x00] END_REQSTACK()
```

### Event 7

#### Metadata

| Field        | Value    |
|--------------|----------|
| Entrypoint   | 0x0046   |
| Data Size    | 49 bytes |
| Instructions | 13       |

```
      00 01 02 03 04 05 06 07  08 09 0A 0B 0C 0D 0E 0F
      -- -- -- -- -- -- -- --  -- -- -- -- -- -- -- --
0040:                   1E F0  FF FF 7F 03 02 10 05 80        ..........
0050: 03 03 10 06 80 2B C4 B2  0A 01 07 80 23 2B C4 B2  .....+......#+..
0060: 0A 01 08 80 23 2B C4 B2  0A 01 09 80 23 2B C4 B2  ....#+......#+..
0070: 0A 01 0A 80 23 21 00                              ....#!.         
```

#### Opcodes

```
  0: 0x0046 [0x1E] EventEntity looks at LocalPlayer and starts talking
  1: 0x004B [0x03] Work_Zone[2] = 2550*
  2: 0x0050 [0x03] Work_Zone[3] = 4365*
  3: 0x0055 [0x2B] Tucker (ID: 17478340/0x010AB2C4) [7669*]:
    → "Here's the deal. I give you one $0 for every twelve $1 you bring me."
  4: 0x005C [0x23] WAIT_FOR_DIALOG_INTERACTION
  5: 0x005D [0x2B] Tucker (ID: 17478340/0x010AB2C4) [7670*]:
    → "I'll take up to four dozen at a time. That means four $0 for you."
  6: 0x0064 [0x23] WAIT_FOR_DIALOG_INTERACTION
  7: 0x0065 [0x2B] Tucker (ID: 17478340/0x010AB2C4) [7671*]:
    → "With the way those scholars go through 'em, $0 are a gold mine for traders right now. I'm letting them go for cheap, if you ask me."
  8: 0x006C [0x23] WAIT_FOR_DIALOG_INTERACTION
  9: 0x006D [0x2B] Tucker (ID: 17478340/0x010AB2C4) [7672*]:
    → "I'll be right here when you're ready to trade the goods."
 10: 0x0074 [0x23] WAIT_FOR_DIALOG_INTERACTION
 11: 0x0075 [0x21] END_EVENT
 12: 0x0076 [0x00] END_REQSTACK()
```

### Event 9

#### Metadata

| Field        | Value    |
|--------------|----------|
| Entrypoint   | 0x0077   |
| Data Size    | 61 bytes |
| Instructions | 16       |

```
      00 01 02 03 04 05 06 07  08 09 0A 0B 0C 0D 0E 0F
      -- -- -- -- -- -- -- --  -- -- -- -- -- -- -- --
0070:                      42  1E F0 FF FF 7F 03 02 10         B........
0080: 05 80 03 03 10 06 80 02  09 10 0B 80 00 AA 00 2B  ...............+
0090: C4 B2 0A 01 07 80 23 2B  C4 B2 0A 01 08 80 23 2B  ......#+......#+
00A0: C4 B2 0A 01 09 80 23 01  B2 00 2B C4 B2 0A 01 0C  ......#...+.....
00B0: 80 23 21 00                                       .#!.            
```

#### Opcodes

```
  0: 0x0077 [0x42] SET_CLI_EVENT_CANCEL_DATA()
  1: 0x0078 [0x1E] EventEntity looks at LocalPlayer and starts talking
  2: 0x007D [0x03] Work_Zone[2] = 2550*
  3: 0x0082 [0x03] Work_Zone[3] = 4365*
  4: 0x0087 [0x02] IF !(Work_Zone[9] == 0*) GOTO 0x00AA
  5: 0x008F [0x2B] Tucker (ID: 17478340/0x010AB2C4) [7669*]:
    → "Here's the deal. I give you one $0 for every twelve $1 you bring me."
  6: 0x0096 [0x23] WAIT_FOR_DIALOG_INTERACTION
  7: 0x0097 [0x2B] Tucker (ID: 17478340/0x010AB2C4) [7670*]:
    → "I'll take up to four dozen at a time. That means four $0 for you."
  8: 0x009E [0x23] WAIT_FOR_DIALOG_INTERACTION
  9: 0x009F [0x2B] Tucker (ID: 17478340/0x010AB2C4) [7671*]:
    → "With the way those scholars go through 'em, $0 are a gold mine for traders right now. I'm letting them go for cheap, if you ask me."
 10: 0x00A6 [0x23] WAIT_FOR_DIALOG_INTERACTION
 11: 0x00A7 [0x01] GOTO 0x00B2
 12: 0x00AA [0x2B] Tucker (ID: 17478340/0x010AB2C4) [7683*]:
    → "I'm still taking $1 if you've got 'em. Just keep rolling those beauties into my arms!"
 13: 0x00B1 [0x23] WAIT_FOR_DIALOG_INTERACTION

SUBROUTINE_00B2:
 14: 0x00B2 [0x21] END_EVENT
 15: 0x00B3 [0x00] END_REQSTACK()
```

### Event 10

#### Metadata

| Field        | Value     |
|--------------|-----------|
| Entrypoint   | 0x00B4    |
| Data Size    | 122 bytes |
| Instructions | 20        |

```
      00 01 02 03 04 05 06 07  08 09 0A 0B 0C 0D 0E 0F
      -- -- -- -- -- -- -- --  -- -- -- -- -- -- -- --
00B0:             42 1E F0 FF  FF 7F 6F 76 F8 FF FF 7F      B.....ov....
00C0: 03 02 10 05 80 03 03 10  06 80 2B C4 B2 0A 01 0D  ..........+.....
00D0: 80 23 5B 00 80 C4 B2 0A  01 C4 B2 0A 01 70 61 73  .#[..........pas
00E0: 30 1C 01 80 2B C4 B2 0A  01 0E 80 23 53 C4 B2 0A  0...+......#S...
00F0: 01 C4 B2 0A 01 70 61 73  30 5B 00 80 C4 B2 0A 01  .....pas0[......
0100: C4 B2 0A 01 6A 69 6D 30  2B C4 B2 0A 01 0C 80 23  ....jim0+......#
0110: 5B 00 80 C4 B2 0A 01 C4  B2 0A 01 6A 69 6D 31 53  [..........jim1S
0120: C4 B2 0A 01 C4 B2 0A 01  6A 69 6D 31 21 00        ........jim1!.  
```

#### Opcodes

```
  0: 0x00B4 [0x42] SET_CLI_EVENT_CANCEL_DATA()
  1: 0x00B5 [0x1E] EventEntity looks at LocalPlayer and starts talking
  2: 0x00BA [0x6F] WAIT_FRAME_DELAY: Yield until WaitTime reaches zero
  3: 0x00BB [0x76] CHECK_ENTITY_RENDER_FLAGS: Wait until EventEntity Render.Flags0 and Render.Flags3 conditions are met
  4: 0x00C0 [0x03] Work_Zone[2] = 2550*
  5: 0x00C5 [0x03] Work_Zone[3] = 4365*
  6: 0x00CA [0x2B] Tucker (ID: 17478340/0x010AB2C4) [7673*]:
    → "You brought the $1? Fair enough. Here's my side of the bargain."
  7: 0x00D1 [0x23] WAIT_FOR_DIALOG_INTERACTION
  8: 0x00D2 [0x5B] LOAD_EXT_SCHEDULER: Load scheduler "pas0" with entities [Tucker (ID: 17478340/0x010AB2C4), Tucker (ID: 17478340/0x010AB2C4)], work=238*
  9: 0x00E1 [0x1C] WAIT(45* ticks)
 10: 0x00E4 [0x2B] Tucker (ID: 17478340/0x010AB2C4) [7674*]:
    → "Thank you berry much! Ahaha..."
 11: 0x00EB [0x23] WAIT_FOR_DIALOG_INTERACTION
 12: 0x00EC [0x53] WAIT_SCHEDULER_TASK: Wait for scheduler "pas0" with entities [Tucker (ID: 17478340/0x010AB2C4), Tucker (ID: 17478340/0x010AB2C4)]
 13: 0x00F9 [0x5B] LOAD_EXT_SCHEDULER: Load scheduler "jim0" with entities [Tucker (ID: 17478340/0x010AB2C4), Tucker (ID: 17478340/0x010AB2C4)], work=238*
 14: 0x0108 [0x2B] Tucker (ID: 17478340/0x010AB2C4) [7683*]:
    → "I'm still taking $1 if you've got 'em. Just keep rolling those beauties into my arms!"
 15: 0x010F [0x23] WAIT_FOR_DIALOG_INTERACTION
 16: 0x0110 [0x5B] LOAD_EXT_SCHEDULER: Load scheduler "jim1" with entities [Tucker (ID: 17478340/0x010AB2C4), Tucker (ID: 17478340/0x010AB2C4)], work=238*
 17: 0x011F [0x53] WAIT_SCHEDULER_TASK: Wait for scheduler "jim1" with entities [Tucker (ID: 17478340/0x010AB2C4), Tucker (ID: 17478340/0x010AB2C4)]
 18: 0x012C [0x21] END_EVENT
 19: 0x012D [0x00] END_REQSTACK()
```

### Event 12

#### Metadata

| Field        | Value    |
|--------------|----------|
| Entrypoint   | 0x012E   |
| Data Size    | 15 bytes |
| Instructions | 5        |

```
      00 01 02 03 04 05 06 07  08 09 0A 0B 0C 0D 0E 0F
      -- -- -- -- -- -- -- --  -- -- -- -- -- -- -- --
0120:                                            1E F0                ..
0130: FF FF 7F 2B C4 B2 0A 01  0F 80 23 21 00           ...+......#!.   
```

#### Opcodes

```
  0: 0x012E [0x1E] EventEntity looks at LocalPlayer and starts talking
  1: 0x0133 [0x2B] Tucker (ID: 17478340/0x010AB2C4) [7677*]:
    → "Be safe on your travels. And say hello to that nutty professor for me!"
  2: 0x013A [0x23] WAIT_FOR_DIALOG_INTERACTION
  3: 0x013B [0x21] END_EVENT
  4: 0x013C [0x00] END_REQSTACK()
```

### Event 13

#### Metadata

| Field        | Value    |
|--------------|----------|
| Entrypoint   | 0x013D   |
| Data Size    | 65 bytes |
| Instructions | 11       |

```
      00 01 02 03 04 05 06 07  08 09 0A 0B 0C 0D 0E 0F
      -- -- -- -- -- -- -- --  -- -- -- -- -- -- -- --
0130:                                         42 1E F0               B..
0140: FF FF 7F 6F 76 F8 FF FF  7F 5B 00 80 C4 B2 0A 01  ...ov....[......
0150: C4 B2 0A 01 74 6C 6B 30  2B C4 B2 0A 01 10 80 23  ....tlk0+......#
0160: 5B 00 80 C4 B2 0A 01 C4  B2 0A 01 74 6C 6B 31 53  [..........tlk1S
0170: C4 B2 0A 01 C4 B2 0A 01  74 6C 6B 31 21 00        ........tlk1!.  
```

#### Opcodes

```
  0: 0x013D [0x42] SET_CLI_EVENT_CANCEL_DATA()
  1: 0x013E [0x1E] EventEntity looks at LocalPlayer and starts talking
  2: 0x0143 [0x6F] WAIT_FRAME_DELAY: Yield until WaitTime reaches zero
  3: 0x0144 [0x76] CHECK_ENTITY_RENDER_FLAGS: Wait until EventEntity Render.Flags0 and Render.Flags3 conditions are met
  4: 0x0149 [0x5B] LOAD_EXT_SCHEDULER: Load scheduler "tlk0" with entities [Tucker (ID: 17478340/0x010AB2C4), Tucker (ID: 17478340/0x010AB2C4)], work=238*
  5: 0x0158 [0x2B] Tucker (ID: 17478340/0x010AB2C4) [7660*]:
    → "Well, tickle my belly. I don't get too many customers all the way out here in this day and age."
  6: 0x015F [0x23] WAIT_FOR_DIALOG_INTERACTION
  7: 0x0160 [0x5B] LOAD_EXT_SCHEDULER: Load scheduler "tlk1" with entities [Tucker (ID: 17478340/0x010AB2C4), Tucker (ID: 17478340/0x010AB2C4)], work=238*
  8: 0x016F [0x53] WAIT_SCHEDULER_TASK: Wait for scheduler "tlk1" with entities [Tucker (ID: 17478340/0x010AB2C4), Tucker (ID: 17478340/0x010AB2C4)]
  9: 0x017C [0x21] END_EVENT
 10: 0x017D [0x00] END_REQSTACK()
```

### Event 14

#### Metadata

| Field        | Value    |
|--------------|----------|
| Entrypoint   | 0x017E   |
| Data Size    | 58 bytes |
| Instructions | 12       |

```
      00 01 02 03 04 05 06 07  08 09 0A 0B 0C 0D 0E 0F
      -- -- -- -- -- -- -- --  -- -- -- -- -- -- -- --
0170:                                            42 1E                B.
0180: F0 FF FF 7F 6F 76 F8 FF  FF 7F 2B C4 B2 0A 01 11  ....ov....+.....
0190: 80 23 5B 00 80 C4 B2 0A  01 C4 B2 0A 01 68 61 72  .#[..........har
01A0: 30 2B C4 B2 0A 01 12 80  23 53 C4 B2 0A 01 C4 B2  0+......#S......
01B0: 0A 01 68 61 72 30 21 00                           ..har0!.        
```

#### Opcodes

```
  0: 0x017E [0x42] SET_CLI_EVENT_CANCEL_DATA()
  1: 0x017F [0x1E] EventEntity looks at LocalPlayer and starts talking
  2: 0x0184 [0x6F] WAIT_FRAME_DELAY: Yield until WaitTime reaches zero
  3: 0x0185 [0x76] CHECK_ENTITY_RENDER_FLAGS: Wait until EventEntity Render.Flags0 and Render.Flags3 conditions are met
  4: 0x018A [0x2B] Tucker (ID: 17478340/0x010AB2C4) [7684*]:
    → "Fruits have an off-season, you know. What do you expect me to do with these? Eat 'em myself?"
  5: 0x0191 [0x23] WAIT_FOR_DIALOG_INTERACTION
  6: 0x0192 [0x5B] LOAD_EXT_SCHEDULER: Load scheduler "har0" with entities [Tucker (ID: 17478340/0x010AB2C4), Tucker (ID: 17478340/0x010AB2C4)], work=238*
  7: 0x01A1 [0x2B] Tucker (ID: 17478340/0x010AB2C4) [7685*]:
    → "Go play at trading somewhere else."
  8: 0x01A8 [0x23] WAIT_FOR_DIALOG_INTERACTION
  9: 0x01A9 [0x53] WAIT_SCHEDULER_TASK: Wait for scheduler "har0" with entities [Tucker (ID: 17478340/0x010AB2C4), Tucker (ID: 17478340/0x010AB2C4)]
 10: 0x01B6 [0x21] END_EVENT
 11: 0x01B7 [0x00] END_REQSTACK()
```

### Event 15

#### Metadata

| Field        | Value    |
|--------------|----------|
| Entrypoint   | 0x01B8   |
| Data Size    | 77 bytes |
| Instructions | 13       |

```
      00 01 02 03 04 05 06 07  08 09 0A 0B 0C 0D 0E 0F
      -- -- -- -- -- -- -- --  -- -- -- -- -- -- -- --
01B0:                          1E F0 FF FF 7F 6F 76 F8          .....ov.
01C0: FF FF 7F 5B 00 80 C4 B2  0A 01 C4 B2 0A 01 6A 69  ...[..........ji
01D0: 6D 30 03 03 10 06 80 2B  C4 B2 0A 01 13 80 23 5B  m0.....+......#[
01E0: 00 80 C4 B2 0A 01 C4 B2  0A 01 6A 69 6D 31 2B C4  ..........jim1+.
01F0: B2 0A 01 14 80 23 53 C4  B2 0A 01 C4 B2 0A 01 6A  .....#S........j
0200: 69 6D 31 21 00                                    im1!.           
```

#### Opcodes

```
  0: 0x01B8 [0x1E] EventEntity looks at LocalPlayer and starts talking
  1: 0x01BD [0x6F] WAIT_FRAME_DELAY: Yield until WaitTime reaches zero
  2: 0x01BE [0x76] CHECK_ENTITY_RENDER_FLAGS: Wait until EventEntity Render.Flags0 and Render.Flags3 conditions are met
  3: 0x01C3 [0x5B] LOAD_EXT_SCHEDULER: Load scheduler "jim0" with entities [Tucker (ID: 17478340/0x010AB2C4), Tucker (ID: 17478340/0x010AB2C4)], work=238*
  4: 0x01D2 [0x03] Work_Zone[3] = 4365*
  5: 0x01D7 [0x2B] Tucker (ID: 17478340/0x010AB2C4) [7679*]:
    → "Crawler saliva has a preserving effect, you see. The $1 that have been down here for years sell for ridiculous prices."
  6: 0x01DE [0x23] WAIT_FOR_DIALOG_INTERACTION
  7: 0x01DF [0x5B] LOAD_EXT_SCHEDULER: Load scheduler "jim1" with entities [Tucker (ID: 17478340/0x010AB2C4), Tucker (ID: 17478340/0x010AB2C4)], work=238*
  8: 0x01EE [0x2B] Tucker (ID: 17478340/0x010AB2C4) [7680*]:
    → "That's why there's always been a market for 'em here in the nest."
  9: 0x01F5 [0x23] WAIT_FOR_DIALOG_INTERACTION
 10: 0x01F6 [0x53] WAIT_SCHEDULER_TASK: Wait for scheduler "jim1" with entities [Tucker (ID: 17478340/0x010AB2C4), Tucker (ID: 17478340/0x010AB2C4)]
 11: 0x0203 [0x21] END_EVENT
 12: 0x0204 [0x00] END_REQSTACK()
```
