# 17478319 - Astrid IM

## Common Data

| Field            | Value                        |
|------------------|------------------------------|
| Zone             | Crawlers' Nest [S] (ID: 171) |
| Block Size       | 7744 bytes                   |
| Total Events     | 8                            |
| References Count | 324                          |

## List of Events

| Event ID              | Entrypoint   |   Size |   Instructions |
|-----------------------|--------------|--------|----------------|
| [65535](#event-65535) | 0x0000       |      1 |              1 |
| [4](#event-4)         | 0x0001       |      1 |              1 |
| [6](#event-6)         | 0x0002       |      1 |              1 |
| [8](#event-8)         | 0x0003       |      1 |              1 |
| [11](#event-11)       | 0x0004       |      1 |              1 |
| [451](#event-451)     | 0x0005       |     15 |              8 |
| [455](#event-455)     | 0x0014       |      9 |              3 |
| [251](#event-251)     | 0x001D       |   6369 |           1136 |

## DAT References (imed_data)

|   Index | Hex Value   |   Dec Value |
|---------|-------------|-------------|
|       0 | 0x0005      |           5 |
|       1 | 0x0001      |           1 |
|       2 | 0x1E20      |        7712 |
|       3 | 0x003C      |          60 |
|       4 | 0x00C8      |         200 |
|       5 | 0x0000      |           0 |
|       6 | 0x0013      |          19 |
|       7 | 0x0051      |          81 |
|       8 | 0x0145      |         325 |
|       9 | 0x4C1C8     |      311752 |
|      10 | 0xFFFE4A04  |  4294855172 |
|      11 | 0xFFFF8BBF  |  4294937535 |
|      12 | 0x0226      |         550 |
|      13 | 0x4C97E     |      313726 |
|      14 | 0xFFFE3E6D  |  4294852205 |
|      15 | 0xFFFF8C77  |  4294937719 |
|      16 | 0x0B04      |        2820 |
|      17 | 0x4DBA9     |      318377 |
|      18 | 0xFFFE588A  |  4294858890 |
|      19 | 0xFFFF8CC4  |  4294937796 |
|      20 | 0x061D      |        1565 |
|      21 | 0x0052      |          82 |
|      22 | 0xFA18      |       64024 |
|      23 | 0xFFFF829E  |  4294935198 |
|      24 | 0x0214      |         532 |
|      25 | 0x0236      |         566 |
|      26 | 0xF975      |       63861 |
|      27 | 0xFFFF75F4  |  4294931956 |
|      28 | 0x0176      |         374 |
|      29 | 0x0AB0      |        2736 |
|      30 | 0x10AE5     |       68325 |
|      31 | 0xFFFF7E27  |  4294934055 |
|      32 | 0x01B4      |         436 |
|      33 | 0x07C3      |        1987 |
|      34 | 0x0053      |          83 |
|      35 | 0xFFFD0503  |  4294771971 |
|      36 | 0xFFFBBA94  |  4294687380 |
|      37 | 0xFFFF63C0  |  4294927296 |
|      38 | 0x0EE8      |        3816 |
|      39 | 0xFFFD0F95  |  4294774677 |
|      40 | 0xFFFBC167  |  4294689127 |
|      41 | 0x071A      |        1818 |
|      42 | 0xFFFD15E2  |  4294776290 |
|      43 | 0xFFFBAB94  |  4294683540 |
|      44 | 0x0A6D      |        2669 |
|      45 | 0x0054      |          84 |
|      46 | 0x32C85     |      208005 |
|      47 | 0x5A01      |       23041 |
|      48 | 0x223A      |        8762 |
|      49 | 0x05BB      |        1467 |
|      50 | 0x3212A     |      205098 |
|      51 | 0x57CF      |       22479 |
|      52 | 0x228C      |        8844 |
|      53 | 0x0F23      |        3875 |
|      54 | 0x319C6     |      203206 |
|      55 | 0x69E9      |       27113 |
|      56 | 0x2096      |        8342 |
|      57 | 0x01E1      |         481 |
|      58 | 0x00AF      |         175 |
|      59 | 0x5AF7B     |      372603 |
|      60 | 0x4DC8      |       19912 |
|      61 | 0xFFFF63C1  |  4294927297 |
|      62 | 0x0F0E      |        3854 |
|      63 | 0x5B98F     |      375183 |
|      64 | 0x5611      |       22033 |
|      65 | 0x069F      |        1695 |
|      66 | 0x5C489     |      377993 |
|      67 | 0x448C      |       17548 |
|      68 | 0x09A8      |        2472 |
|      69 | 0x0058      |          88 |
|      70 | 0xFFF74400  |  4294394880 |
|      71 | 0xD6D9      |       55001 |
|      72 | 0xA001      |       40961 |
|      73 | 0x06AF      |        1711 |
|      74 | 0xFFF73813  |  4294391827 |
|      75 | 0xD113      |       53523 |
|      76 | 0xA027      |       40999 |
|      77 | 0x0F1D      |        3869 |
|      78 | 0xFFF7520F  |  4294398479 |
|      79 | 0xC165      |       49509 |
|      80 | 0x9F4A      |       40778 |
|      81 | 0x0AA0      |        2720 |
|      82 | 0x0059      |          89 |
|      83 | 0x4CA41     |      313921 |
|      84 | 0x192E2     |      103138 |
|      85 | 0xFFFF46F6  |  4294919926 |
|      86 | 0x0848      |        2120 |
|      87 | 0x4BD76     |      310646 |
|      88 | 0x198F2     |      104690 |
|      89 | 0xFFFF4595  |  4294919573 |
|      90 | 0x00EA      |         234 |
|      91 | 0x4BCCB     |      310475 |
|      92 | 0x1798E     |       96654 |
|      93 | 0xFFFF460F  |  4294919695 |
|      94 | 0x0C07      |        3079 |
|      95 | 0x005A      |          90 |
|      96 | 0x6A9CB     |      436683 |
|      97 | 0x5ED48     |      388424 |
|      98 | 0x6113      |       24851 |
|      99 | 0x07C0      |        1984 |
|     100 | 0x69C73     |      433267 |
|     101 | 0x5E948     |      387400 |
|     102 | 0x5F77      |       24439 |
|     103 | 0x0E97      |        3735 |
|     104 | 0x6972F     |      431919 |
|     105 | 0x601AC     |      393644 |
|     106 | 0x5FD6      |       24534 |
|     107 | 0x0253      |         595 |
|     108 | 0x005B      |          91 |
|     109 | 0x3F3FF     |      259071 |
|     110 | 0x31776     |      202614 |
|     111 | 0x2167      |        8551 |
|     112 | 0x03D8      |         984 |
|     113 | 0x3F84B     |      260171 |
|     114 | 0x3096F     |      199023 |
|     115 | 0x2256      |        8790 |
|     116 | 0x0A12      |        2578 |
|     117 | 0x3E01E     |      253982 |
|     118 | 0x2FEF7     |      196343 |
|     119 | 0x202C      |        8236 |
|     120 | 0x0ECB      |        3787 |
|     121 | 0x00AB      |         171 |
|     122 | 0x3581D     |      219165 |
|     123 | 0xFFFFBBA7  |  4294949799 |
|     124 | 0xFFFF8147  |  4294934855 |
|     125 | 0x0329      |         809 |
|     126 | 0x35886     |      219270 |
|     127 | 0xFFFFB11A  |  4294947098 |
|     128 | 0xFFFF8232  |  4294935090 |
|     129 | 0x0ABA      |        2746 |
|     130 | 0x36BA6     |      224166 |
|     131 | 0xFFFFAF44  |  4294946628 |
|     132 | 0xFFFF81EC  |  4294935020 |
|     133 | 0x0825      |        2085 |
|     134 | 0x005F      |          95 |
|     135 | 0xFFFFD5F0  |  4294956528 |
|     136 | 0x4B8E7     |      309479 |
|     137 | 0xFFFFCDCD  |  4294954445 |
|     138 | 0x07D6      |        2006 |
|     139 | 0xFFFFCA87  |  4294953607 |
|     140 | 0x4B0A0     |      307360 |
|     141 | 0xFFFFCD38  |  4294954296 |
|     142 | 0x0E9B      |        3739 |
|     143 | 0xFFFFC846  |  4294953030 |
|     144 | 0x4CB3F     |      314175 |
|     145 | 0xFFFFCEE8  |  4294954728 |
|     146 | 0x02B5      |         693 |
|     147 | 0x0060      |          96 |
|     148 | 0xFFFE5B9A  |  4294859674 |
|     149 | 0x00CA      |         202 |
|     150 | 0xFFFEC795  |  4294887317 |
|     151 | 0x0F86      |        3974 |
|     152 | 0xFFFE62B9  |  4294861497 |
|     153 | 0x0622      |        1570 |
|     154 | 0xFFFEC7FB  |  4294887419 |
|     155 | 0x04F3      |        1267 |
|     156 | 0xFFFE6774  |  4294862708 |
|     157 | 0xFFFFEC16  |  4294962198 |
|     158 | 0xFFFEC7F1  |  4294887409 |
|     159 | 0x0BB2      |        2994 |
|     160 | 0x0061      |          97 |
|     161 | 0xFFFB716D  |  4294668653 |
|     162 | 0x6912E     |      430382 |
|     163 | 0x4178      |       16760 |
|     164 | 0x0781      |        1921 |
|     165 | 0xFFFB6847  |  4294666311 |
|     166 | 0x6988F     |      432271 |
|     167 | 0x4333      |       17203 |
|     168 | 0x01EC      |         492 |
|     169 | 0xFFFB6A9F  |  4294666911 |
|     170 | 0x67633     |      423475 |
|     171 | 0x4345      |       17221 |
|     172 | 0x0C58      |        3160 |
|     173 | 0x0062      |          98 |
|     174 | 0xFFFF5A78  |  4294924920 |
|     175 | 0x35A85     |      219781 |
|     176 | 0x6183      |       24963 |
|     177 | 0x0034      |          52 |
|     178 | 0xFFFF6301  |  4294927105 |
|     179 | 0x3539F     |      218015 |
|     180 | 0x6104      |       24836 |
|     181 | 0x0A83      |        2691 |
|     182 | 0xFFFF7467  |  4294931559 |
|     183 | 0x36DAD     |      224685 |
|     184 | 0x6054      |       24660 |
|     185 | 0x0730      |        1840 |
|     186 | 0x00A4      |         164 |
|     187 | 0xFFFE6ACE  |  4294863566 |
|     188 | 0x2B6FD     |      177917 |
|     189 | 0xFFFFFFB2  |  4294967218 |
|     190 | 0x0C20      |        3104 |
|     191 | 0xFFFE6C68  |  4294863976 |
|     192 | 0x2C154     |      180564 |
|     193 | 0x053B      |        1339 |
|     194 | 0xFFFE5B24  |  4294859556 |
|     195 | 0x2BD87     |      179591 |
|     196 | 0x005C      |          92 |
|     197 | 0x1E21      |        7713 |
|     198 | 0x1E22      |        7714 |
|     199 | 0x000F      |          15 |
|     200 | 0x0010      |          16 |
|     201 | 0x001F      |          31 |
|     202 | 0x0003      |           3 |
|     203 | 0x1E31      |        7729 |
|     204 | 0x1E30      |        7728 |
|     205 | 0x1E2F      |        7727 |
|     206 | 0x0115      |         277 |
|     207 | 0x0116      |         278 |
|     208 | 0x0002      |           2 |
|     209 | 0x0117      |         279 |
|     210 | 0x0112      |         274 |
|     211 | 0x0113      |         275 |
|     212 | 0x0114      |         276 |
|     213 | 0x1E23      |        7715 |
|     214 | 0x1E25      |        7717 |
|     215 | 0x1E29      |        7721 |
|     216 | 0x1E26      |        7718 |
|     217 | 0x0004      |           4 |
|     218 | 0x1E27      |        7719 |
|     219 | 0x1E2A      |        7722 |
|     220 | 0x1E28      |        7720 |
|     221 | 0x0006      |           6 |
|     222 | 0x1E2C      |        7724 |
|     223 | 0x0007      |           7 |
|     224 | 0x0008      |           8 |
|     225 | 0x0009      |           9 |
|     226 | 0x000A      |          10 |
|     227 | 0x1E2D      |        7725 |
|     228 | 0x000B      |          11 |
|     229 | 0x000C      |          12 |
|     230 | 0x000D      |          13 |
|     231 | 0x1E2B      |        7723 |
|     232 | 0x0011      |          17 |
|     233 | 0x0012      |          18 |
|     234 | 0x000E      |          14 |
|     235 | 0x1E2E      |        7726 |
|     236 | 0x0014      |          20 |
|     237 | 0x0015      |          21 |
|     238 | 0x0016      |          22 |
|     239 | 0x1E24      |        7716 |
|     240 | 0x7E9C3925  |  2124167461 |
|     241 | 0x41808A    |     4292746 |
|     242 | 0x1224650   |    19023440 |
|     243 | 0x001C      |          28 |
|     244 | 0x0044      |          68 |
|     245 | 0x006F      |         111 |
|     246 | 0x0019      |          25 |
|     247 | 0x001B      |          27 |
|     248 | 0x01E3      |         483 |
|     249 | 0x0104      |         260 |
|     250 | 0x0020      |          32 |
|     251 | 0x001D      |          29 |
|     252 | 0x001E      |          30 |
|     253 | 0xFFFFFFFF  |  4294967295 |
|     254 | 0x0039      |          57 |
|     255 | 0x002D      |          45 |
|     256 | 0x003A      |          58 |
|     257 | 0x1017      |        4119 |
|     258 | 0x1027      |        4135 |
|     259 | 0x1056      |        4182 |
|     260 | 0x1072      |        4210 |
|     261 | 0x1509      |        5385 |
|     262 | 0x150B      |        5387 |
|     263 | 0x150D      |        5389 |
|     264 | 0x150A      |        5386 |
|     265 | 0x150C      |        5388 |
|     266 | 0x1515      |        5397 |
|     267 | 0x1512      |        5394 |
|     268 | 0x1514      |        5396 |
|     269 | 0x147E      |        5246 |
|     270 | 0x152B      |        5419 |
|     271 | 0x152E      |        5422 |
|     272 | 0x152C      |        5420 |
|     273 | 0x152D      |        5421 |
|     274 | 0x101B      |        4123 |
|     275 | 0x102B      |        4139 |
|     276 | 0x106E      |        4206 |
|     277 | 0x150F      |        5391 |
|     278 | 0x1511      |        5393 |
|     279 | 0x1510      |        5392 |
|     280 | 0x1031      |        4145 |
|     281 | 0x106A      |        4202 |
|     282 | 0x1033      |        4147 |
|     283 | 0x1068      |        4200 |
|     284 | 0x153A      |        5434 |
|     285 | 0x1513      |        5395 |
|     286 | 0x153B      |        5435 |
|     287 | 0x153F      |        5439 |
|     288 | 0x003B      |          59 |
|     289 | 0x003D      |          61 |
|     290 | 0x0017      |          23 |
|     291 | 0x0018      |          24 |
|     292 | 0x004B      |          75 |
|     293 | 0x006D      |         109 |
|     294 | 0x01FA      |         506 |
|     295 | 0x01FB      |         507 |
|     296 | 0x004C      |          76 |
|     297 | 0x006A      |         106 |
|     298 | 0x0032      |          50 |
|     299 | 0x111110    |     1118480 |
|     300 | 0x0201      |         513 |
|     301 | 0x01FD      |         509 |
|     302 | 0x0065      |         101 |
|     303 | 0x0066      |         102 |
|     304 | 0x0067      |         103 |
|     305 | 0x0068      |         104 |
|     306 | 0x0069      |         105 |
|     307 | 0x002B      |          43 |
|     308 | 0x002C      |          44 |
|     309 | 0x010A      |         266 |
|     310 | 0x0021      |          33 |
|     311 | 0x002A      |          42 |
|     312 | 0x0022      |          34 |
|     313 | 0x0023      |          35 |
|     314 | 0x0024      |          36 |
|     315 | 0x0025      |          37 |
|     316 | 0x0026      |          38 |
|     317 | 0x0027      |          39 |
|     318 | 0x0028      |          40 |
|     319 | 0x0045      |          69 |
|     320 | 0x0046      |          70 |
|     321 | 0x0047      |          71 |
|     322 | 0x0048      |          72 |
|     323 | 0x0049      |          73 |

## String References

- **5**: What are you doing here? This is no place for civilians.
- **13**: I am sorry. You do not have enough Allied Notes.
- **18**: Greetings. I am % of the San d'Orian Provincial Knights.
- **19**: Greetings. I am % of the Bastokan Legion.
- **20**: Greetings. I am % of the Federation of Windurst.
- **21**: Greetings. I am %, Campaign Arbiter for the Allied Forces.
- **22**: What can I help you with? [Nothing./Performance assessment./New Allied Tags./Temporary items./Union registration./Teleportation./Information on the Allied Campaign.]
- **23**: What would you like to know? [Nothing. I'm sorry./About performance assessment./About Allied Tags./About temporary items./About Unions.]
- **25**: Understood. I shall now judge your performance and award the proper remuneration.
- **27**: Understood. I shall prepare a new set of tags for you now.
- **28**: You've already undergone an evaluation for this battle, or had you forgotten? As much as I'd like to, I'm forbidden from providing you with a new set of Allied Taegs until the next battle begins.
- **29**: Anyone wearing Allied Tags while participating in a campaign battle will be judged on their overall performance.
- **30**: Soldiers will be evaluated not only on their fighting skills, but also on how much they contribute to the efforts of their allies through means such as healing and enhancing.
- **31**: However, beware that if you leave the area before being assessed, you will be deemed a deserter and will forfeit all rewards earned that day.
- **32**: Also, while there are no immediate penalties for being knocked out, falling in battle will significantly lower the score given to you.
- **33**: When you are ready to receive compensation for your work on the field, return to me and I shall assess your performance and provide you with your payment.
- **34**: Allied Tags are a special type of identification given to all participants of Allied Campaign battles.
- **35**: There are benefits, as well as drawbacks, to wearing the tags. One of the benefits is that in the case you are knocked out on the battlefield, you will not lose any experience points.
- **36**: However, some of the drawbacks include the inability to improve skills and earn experience points for individual kills, as well as the right to loot fallen enemies.
- **37**: Temporary items can be purchased in exchange for Allied Notes.
- **38**: There are several different varieties of items, but they all have one thing in common--they can only be used on the battlefield they were issued.
- **39**: It is highly recommended that you first survey a battle's conditions and then select the supplies that you believe will benefit you most.
- **40**: Please remember that all temporary items you carry on your person will be confiscated in the event that you leave the area.
- **42**: That is all.
- **43**: I will require a teleportation fee of $0 Allied Note[/s]. I see you currently possess $2.
- **44**: Complete transaction and return to capital? [Yes./No.]
- **45**: Understood. Good work today, <Player>.
- **57**: Let me show you the list of items currently available to you.
- **58**: Select a category: [Quit./$0-Note Items./$1-Note Items./$2-Note Items.]
- **59**: Which item would you like to see? [Quit./$0/$1/$2/$3/$4/$5/$6/$7/$8/$9/$10/$11/$12/$13/$14/$15/$16]
- **60**: You currently possess $' Allied Note[/s].
- **61**: Proceed with the transaction? [Yes./No.]
- **68**: I am sorry, <Player>, but your campaign medal has expired. I cannot issue tags to anyone not authorized by the Allied Forces. Return to your nation's capital and speak with a Campaign Evaluation Official.
- **69**: Oh ho! Keen to join a Union, are we? Very well. Listen up and I shall tell you all you need to know.
- **70**: In order to better coordinate Allied efforts against the beastman menace, we have instituted a system of ad hoc tactical regiments called "Unions." With five units to a battlefield, union registration is open to any proven soldier in possession of Allied Tags.
- **71**: In return for their aid in advancing the war effort, union registrants will be eligible to earn a share of the spoils of war.
- **72**: Needless to say, the choicest rewards will be reserved for those unions which make the greatest contributions in combat. Prove your mettle on the field of battle, and you will earn glory for your union, as well as a sizable bounty of your own.
- **73**: Be forewarned that your commitment to your union comes first and foremost. In the aftermath of battle, you will not be permitted to reap rewards from your individual exploits until your union has distributed its plunder.
- **75**: Register for a union? [Yes./No.]
- **76**: [Transfer/Resign] from your current union? [Yes./No.]
- **274**: Good show on your last operation. Now go make an official report to Sir Rasdinice.
- **275**: Good work on that last operation. Now report back to First Centurion Hieronymus before he has your hide!
- **276**: Nice job on your last operation. Now don't forget to report back to Emhi Tchaoryo!
- **277**: It seems that you were not successful in your last operation. But do not let one small failure hang heavy on your soul. Report to Sir Rasdinice and put this all behind you.
- **278**: Weren't so lucky during that last operation, were you? Well, don't worry about it too much. Report to First Centurion Hieronymus and get some rest, soldier.
- **279**: Hmmm... Didn't do so well on that last operation, did you? I know it's hard, but it's better if you're up-front about these things. If you know what's good for you, you'll hurry down and report to Emhi Tchaoryo before the major finds out first.
- **506**: What will you do? [Nothing./Transfer to another union./Resign union membership.]
- **507**: Your steadfast efforts have earned you a claim to share in your union's spoils of war. By [transferring to another union/resigning from your union], you will relinquish this right. It is not my place to question your decision, but I suggest you pay the matter due heed.
- **509**: Register for which union? [None./Adder Union ($0 [member/members])./Bison Union ($1 [member/members])./Coyote Union ($2 [member/members])./Dhole Union ($3 [member/members])./Eland Union ($4 [member/members]).]
- **513**: I am afraid that all unions are currently at their maximum enrollment, and unable to accept new recruits. For better or for worse, though, I suspect it shall not be long before we are in need of some new blood. Such is the nature of war...
- **7712**: Ahhh, so you're military tactician who who drew up the plans for this latest supply mission. Why don't we ask one of the men how its going, shall we?

## Events

### Event 65535

#### Metadata

| Field        | Value   |
|--------------|---------|
| Entrypoint   | 0x0000  |
| Data Size    | 1 bytes |
| Instructions | 1       |

```
      00 01 02 03 04 05 06 07  08 09 0A 0B 0C 0D 0E 0F
      -- -- -- -- -- -- -- --  -- -- -- -- -- -- -- --
0000: 00                                                .               
```

#### Opcodes

```
  0: 0x0000 [0x00] END_REQSTACK()
```

### Event 4

#### Metadata

| Field        | Value   |
|--------------|---------|
| Entrypoint   | 0x0001  |
| Data Size    | 1 bytes |
| Instructions | 1       |

```
      00 01 02 03 04 05 06 07  08 09 0A 0B 0C 0D 0E 0F
      -- -- -- -- -- -- -- --  -- -- -- -- -- -- -- --
0000:    00                                              .              
```

#### Opcodes

```
  0: 0x0001 [0x00] END_REQSTACK()
```

### Event 6

#### Metadata

| Field        | Value   |
|--------------|---------|
| Entrypoint   | 0x0002  |
| Data Size    | 1 bytes |
| Instructions | 1       |

```
      00 01 02 03 04 05 06 07  08 09 0A 0B 0C 0D 0E 0F
      -- -- -- -- -- -- -- --  -- -- -- -- -- -- -- --
0000:       00                                            .             
```

#### Opcodes

```
  0: 0x0002 [0x00] END_REQSTACK()
```

### Event 8

#### Metadata

| Field        | Value   |
|--------------|---------|
| Entrypoint   | 0x0003  |
| Data Size    | 1 bytes |
| Instructions | 1       |

```
      00 01 02 03 04 05 06 07  08 09 0A 0B 0C 0D 0E 0F
      -- -- -- -- -- -- -- --  -- -- -- -- -- -- -- --
0000:          00                                          .            
```

#### Opcodes

```
  0: 0x0003 [0x00] END_REQSTACK()
```

### Event 11

#### Metadata

| Field        | Value   |
|--------------|---------|
| Entrypoint   | 0x0004  |
| Data Size    | 1 bytes |
| Instructions | 1       |

```
      00 01 02 03 04 05 06 07  08 09 0A 0B 0C 0D 0E 0F
      -- -- -- -- -- -- -- --  -- -- -- -- -- -- -- --
0000:             00                                        .           
```

#### Opcodes

```
  0: 0x0004 [0x00] END_REQSTACK()
```

### Event 451

#### Metadata

| Field        | Value    |
|--------------|----------|
| Entrypoint   | 0x0005   |
| Data Size    | 15 bytes |
| Instructions | 8        |

```
      00 01 02 03 04 05 06 07  08 09 0A 0B 0C 0D 0E 0F
      -- -- -- -- -- -- -- --  -- -- -- -- -- -- -- --
0000:                20 01 1E  F0 FF FF 7F 6F 70 1D 00        ......op..
0010: 80 23 21 00                                       .#!.            
```

#### Opcodes

```
  0: 0x0005 [0x20] SET_CLI_EVENT_UC_FLAG: Lock player control
  1: 0x0007 [0x1E] EventEntity looks at LocalPlayer and starts talking
  2: 0x000C [0x6F] WAIT_FRAME_DELAY: Yield until WaitTime reaches zero
  3: 0x000D [0x70] WAIT_ENTITY_RENDER_FLAG: Wait while EventEntity->Render.Flags3 bit 2 is set (cancel turn if not)
  4: 0x000E [0x1D] PRINT_EVENT_MESSAGE(message_id=5*)
    → "What are you doing here? This is no place for civilians."
  5: 0x0011 [0x23] WAIT_FOR_DIALOG_INTERACTION
  6: 0x0012 [0x21] END_EVENT
  7: 0x0013 [0x00] END_REQSTACK()
```

### Event 455

#### Metadata

| Field        | Value   |
|--------------|---------|
| Entrypoint   | 0x0014  |
| Data Size    | 9 bytes |
| Instructions | 3       |

```
      00 01 02 03 04 05 06 07  08 09 0A 0B 0C 0D 0E 0F
      -- -- -- -- -- -- -- --  -- -- -- -- -- -- -- --
0010:             03 0E 00 01  80 1A DD 08 00               .........   
```

#### Opcodes

```
  0: 0x0014 [0x03] ExtData[1]->WorkLocal[14] = 1*
  1: 0x0019 [0x1A] CALL_SUBROUTINE(address=0x08DD)
  2: 0x001C [0x00] END_REQSTACK()
```

### Event 251

#### Metadata

| Field        | Value      |
|--------------|------------|
| Entrypoint   | 0x001D     |
| Data Size    | 6369 bytes |
| Instructions | 342        |

```
      00 01 02 03 04 05 06 07  08 09 0A 0B 0C 0D 0E 0F
      -- -- -- -- -- -- -- --  -- -- -- -- -- -- -- --
0010:                                         03 00 00               ...
0020: 01 80 20 01 42 1E F0 FF  FF 7F 6F 70 03 03 00 03  .. .B.....op....
0030: 10 03 04 00 04 10 03 05  00 05 10 03 0C 00 09 10  ................
0040: 1D 02 80 23 1C 03 80 45  04 80 F0 FF FF 7F F0 FF  ...#...E........
0050: FF 7F 66 64 6F 31 05 80  55 04 80 F0 FF FF 7F F0  ..fdo1..U.......
0060: FF FF 7F 66 64 6F 31 46  01 38 06 80 4E 00 F8 FF  ...fdo1F.8..N...
0070: FF 7F 92 01 F0 FF FF 7F  92 01 F8 FF FF 7F 92 01  ................
0080: D7 B2 0A 01 02 0C 00 07  80 80 C7 00 45 08 80 F0  ............E...
0090: FF FF 7F F0 FF FF 7F 7A  38 31 62 05 80 BA F8 FF  .......z81b.....
00A0: FF 7F 09 80 0A 80 0B 80  0C 80 BA F0 FF FF 7F 0D  ................
00B0: 80 0E 80 0F 80 10 80 BA  D7 B2 0A 01 11 80 12 80  ................
00C0: 13 80 14 80 01 71 04 02  0C 00 15 80 80 0A 01 45  .....q.........E
00D0: 08 80 F0 FF FF 7F F0 FF  FF 7F 7A 38 32 62 05 80  ..........z82b..
00E0: BA F8 FF FF 7F 16 80 17  80 18 80 19 80 BA F0 FF  ................
00F0: FF 7F 1A 80 1B 80 1C 80  1D 80 BA D7 B2 0A 01 1E  ................
0100: 80 1F 80 20 80 21 80 01  71 04 02 0C 00 22 80 80  ... .!..q...."..
0110: 4D 01 45 08 80 F0 FF FF  7F F0 FF FF 7F 7A 38 33  M.E..........z83
0120: 62 05 80 BA F8 FF FF 7F  23 80 24 80 25 80 26 80  b.......#.$.%.&.
0130: BA F0 FF FF 7F 27 80 28  80 25 80 29 80 BA D7 B2  .....'.(.%.)....
0140: 0A 01 2A 80 2B 80 25 80  2C 80 01 71 04 02 0C 00  ..*.+.%.,..q....
0150: 2D 80 80 90 01 45 08 80  F0 FF FF 7F F0 FF FF 7F  -....E..........
0160: 7A 38 34 62 05 80 BA F8  FF FF 7F 2E 80 2F 80 30  z84b........./.0
0170: 80 31 80 BA F0 FF FF 7F  32 80 33 80 34 80 35 80  .1......2.3.4.5.
0180: BA D7 B2 0A 01 36 80 37  80 38 80 39 80 01 71 04  .....6.7.8.9..q.
0190: 02 0C 00 3A 80 80 D3 01  45 08 80 F0 FF FF 7F F0  ...:....E.......
01A0: FF FF 7F 31 37 35 61 05  80 BA F8 FF FF 7F 3B 80  ...175a.......;.
01B0: 3C 80 3D 80 3E 80 BA F0  FF FF 7F 3F 80 40 80 3D  <.=.>......?.@.=
01C0: 80 41 80 BA D7 B2 0A 01  42 80 43 80 3D 80 44 80  .A......B.C.=.D.
01D0: 01 71 04 02 0C 00 45 80  80 16 02 45 08 80 F0 FF  .q....E....E....
01E0: FF 7F F0 FF FF 7F 7A 38  38 62 05 80 BA F8 FF FF  ......z88b......
01F0: 7F 46 80 47 80 48 80 49  80 BA F0 FF FF 7F 4A 80  .F.G.H.I......J.
0200: 4B 80 4C 80 4D 80 BA D7  B2 0A 01 4E 80 4F 80 50  K.L.M......N.O.P
0210: 80 51 80 01 71 04 02 0C  00 52 80 80 59 02 45 08  .Q..q....R..Y.E.
0220: 80 F0 FF FF 7F F0 FF FF  7F 7A 38 39 62 05 80 BA  .........z89b...
0230: F8 FF FF 7F 53 80 54 80  55 80 56 80 BA F0 FF FF  ....S.T.U.V.....
0240: 7F 57 80 58 80 59 80 5A  80 BA D7 B2 0A 01 5B 80  .W.X.Y.Z......[.
0250: 5C 80 5D 80 5E 80 01 71  04 02 0C 00 5F 80 80 9C  \.].^..q...._...
0260: 02 45 08 80 F0 FF FF 7F  F0 FF FF 7F 7A 39 30 62  .E..........z90b
0270: 05 80 BA F8 FF FF 7F 60  80 61 80 62 80 63 80 BA  .......`.a.b.c..
0280: F0 FF FF 7F 64 80 65 80  66 80 67 80 BA D7 B2 0A  ....d.e.f.g.....
0290: 01 68 80 69 80 6A 80 6B  80 01 71 04 02 0C 00 6C  .h.i.j.k..q....l
02A0: 80 80 DF 02 45 08 80 F0  FF FF 7F F0 FF FF 7F 7A  ....E..........z
02B0: 39 31 62 05 80 BA F8 FF  FF 7F 6D 80 6E 80 6F 80  91b.......m.n.o.
02C0: 70 80 BA F0 FF FF 7F 71  80 72 80 73 80 74 80 BA  p......q.r.s.t..
02D0: D7 B2 0A 01 75 80 76 80  77 80 78 80 01 71 04 02  ....u.v.w.x..q..
02E0: 0C 00 79 80 80 22 03 45  08 80 F0 FF FF 7F F0 FF  ..y..".E........
02F0: FF 7F 31 37 31 61 05 80  BA F8 FF FF 7F 7A 80 7B  ..171a.......z.{
0300: 80 7C 80 7D 80 BA F0 FF  FF 7F 7E 80 7F 80 80 80  .|.}......~.....
0310: 81 80 BA D7 B2 0A 01 82  80 83 80 84 80 85 80 01  ................
0320: 71 04 02 0C 00 86 80 80  65 03 45 08 80 F0 FF FF  q.......e.E.....
0330: 7F F0 FF FF 7F 7A 39 35  62 05 80 BA F8 FF FF 7F  .....z95b.......
0340: 87 80 88 80 89 80 8A 80  BA F0 FF FF 7F 8B 80 8C  ................
0350: 80 8D 80 8E 80 BA D7 B2  0A 01 8F 80 90 80 91 80  ................
0360: 92 80 01 71 04 02 0C 00  93 80 80 A8 03 45 08 80  ...q.........E..
0370: F0 FF FF 7F F0 FF FF 7F  7A 39 36 62 05 80 BA F8  ........z96b....
0380: FF FF 7F 94 80 95 80 96  80 97 80 BA F0 FF FF 7F  ................
0390: 98 80 99 80 9A 80 9B 80  BA D7 B2 0A 01 9C 80 9D  ................
03A0: 80 9E 80 9F 80 01 71 04  02 0C 00 A0 80 80 EB 03  ......q.........
03B0: 45 08 80 F0 FF FF 7F F0  FF FF 7F 7A 39 37 62 05  E..........z97b.
03C0: 80 BA F8 FF FF 7F A1 80  A2 80 A3 80 A4 80 BA F0  ................
03D0: FF FF 7F A5 80 A6 80 A7  80 A8 80 BA D7 B2 0A 01  ................
03E0: A9 80 AA 80 AB 80 AC 80  01 71 04 02 0C 00 AD 80  .........q......
03F0: 80 2E 04 45 08 80 F0 FF  FF 7F F0 FF FF 7F 7A 39  ...E..........z9
0400: 38 62 05 80 BA F8 FF FF  7F AE 80 AF 80 B0 80 B1  8b..............
0410: 80 BA F0 FF FF 7F B2 80  B3 80 B4 80 B5 80 BA D7  ................
0420: B2 0A 01 B6 80 B7 80 B8  80 B9 80 01 71 04 02 0C  ............q...
0430: 00 BA 80 80 71 04 45 08  80 F0 FF FF 7F F0 FF FF  ....q.E.........
0440: 7F 31 36 34 61 05 80 BA  F8 FF FF 7F BB 80 BC 80  .164a...........
0450: BD 80 BE 80 BA F0 FF FF  7F BF 80 C0 80 BD 80 C1  ................
0460: 80 BA D7 B2 0A 01 C2 80  C3 80 BD 80 C4 80 01 71  ...............q
0470: 04 94 01 F0 FF FF 7F 94  01 F8 FF FF 7F 94 01 D7  ................
0480: B2 0A 01 80 F0 FF FF 7F  80 F8 FF FF 7F 80 D7 B2  ................
0490: 0A 01 1C 01 80 1E F0 FF  FF 7F 4A F0 FF FF 7F F8  ..........J.....
04A0: FF FF 7F 45 04 80 F0 FF  FF 7F F0 FF FF 7F 66 64  ...E..........fd
04B0: 69 31 05 80 55 04 80 F0  FF FF 7F F0 FF FF 7F 66  i1..U..........f
04C0: 64 69 31 1E D7 B2 0A 01  4A F0 FF FF 7F D7 B2 0A  di1.....J.......
04D0: 01 29 10 D7 B2 0A 01 04  2B D7 B2 0A 01 C5 80 23  .)......+......#
04E0: 2B D7 B2 0A 01 C6 80 23  41 05 80 C7 80 03 00 01  +......#A.......
04F0: 00 41 C8 80 C9 80 03 00  02 00 02 01 00 05 80 01  .A..............
0500: 05 05 1A 36 06 02 02 00  05 80 01 2A 05 41 05 80  ...6.......*.A..
0510: C7 80 04 00 01 00 41 C8  80 C9 80 04 00 02 00 02  ......A.........
0520: 01 00 05 80 01 2A 05 1A  36 06 02 02 00 05 80 01  .....*..6.......
0530: 4F 05 41 05 80 C7 80 05  00 01 00 41 C8 80 C9 80  O.A........A....
0540: 05 00 02 00 02 01 00 05  80 01 4F 05 1A 36 06 02  ..........O..6..
0550: 02 00 05 80 01 85 05 02  02 00 CA 80 03 6A 05 2B  .............j.+
0560: D7 B2 0A 01 CB 80 23 01  85 05 02 02 00 00 80 03  ......#.........
0570: 7D 05 2B D7 B2 0A 01 CC  80 23 01 85 05 2B D7 B2  }.+......#...+..
0580: 0A 01 CD 80 23 1E F0 FF  FF 7F 6F 70 02 02 00 05  ....#.....op....
0590: 80 00 C4 05 02 00 00 05  80 80 A3 05 1D CE 80 23  ...............#
05A0: 01 C1 05 02 00 00 01 80  80 B2 05 1D CF 80 23 01  ..............#.
05B0: C1 05 02 00 00 D0 80 80  C1 05 1D D1 80 23 01 C1  .............#..
05C0: 05 01 F1 05 02 00 00 05  80 80 D3 05 1D D2 80 23  ...............#
05D0: 01 F1 05 02 00 00 01 80  80 E2 05 1D D3 80 23 01  ..............#.
05E0: F1 05 02 00 00 D0 80 80  F1 05 1D D4 80 23 01 F1  .............#..
05F0: 05 45 04 80 F0 FF FF 7F  F0 FF FF 7F 66 64 6F 31  .E..........fdo1
0600: 05 80 55 04 80 F0 FF FF  7F F0 FF FF 7F 66 64 6F  ..U..........fdo
0610: 31 4E 01 D7 B2 0A 01 1C  C7 80 46 00 45 04 80 F0  1N........F.E...
0620: FF FF 7F F0 FF FF 7F 66  64 69 32 05 80 03 01 10  .......fdi2.....
0630: 05 80 20 00 21 00 02 01  00 01 80 80 49 06 2B D7  .. .!.......I.+.
0640: B2 0A 01 D5 80 23 01 DC  08 02 01 00 D0 80 80 69  .....#.........i
0650: 06 03 02 10 05 80 2B D7  B2 0A 01 D6 80 23 2B D7  ......+......#+.
0660: B2 0A 01 D7 80 23 01 DC  08 02 01 00 CA 80 80 89  .....#..........
0670: 06 03 02 10 05 80 2B D7  B2 0A 01 D8 80 23 2B D7  ......+......#+.
0680: B2 0A 01 D7 80 23 01 DC  08 02 01 00 D9 80 80 A9  .....#..........
0690: 06 03 02 10 05 80 2B D7  B2 0A 01 DA 80 23 2B D7  ......+......#+.
06A0: B2 0A 01 DB 80 23 01 DC  08 02 01 00 00 80 80 C9  .....#..........
06B0: 06 03 02 10 05 80 2B D7  B2 0A 01 DC 80 23 2B D7  ......+......#+.
06C0: B2 0A 01 D7 80 23 01 DC  08 02 01 00 DD 80 80 E9  .....#..........
06D0: 06 03 02 10 01 80 2B D7  B2 0A 01 D6 80 23 2B D7  ......+......#+.
06E0: B2 0A 01 DE 80 23 01 DC  08 02 01 00 DF 80 80 09  .....#..........
06F0: 07 03 02 10 01 80 2B D7  B2 0A 01 D8 80 23 2B D7  ......+......#+.
0700: B2 0A 01 DE 80 23 01 DC  08 02 01 00 E0 80 80 29  .....#.........)
0710: 07 03 02 10 01 80 2B D7  B2 0A 01 DA 80 23 2B D7  ......+......#+.
0720: B2 0A 01 DE 80 23 01 DC  08 02 01 00 E1 80 80 49  .....#.........I
0730: 07 03 02 10 01 80 2B D7  B2 0A 01 DC 80 23 2B D7  ......+......#+.
0740: B2 0A 01 DE 80 23 01 DC  08 02 01 00 E2 80 80 69  .....#.........i
0750: 07 03 02 10 01 80 2B D7  B2 0A 01 D6 80 23 2B D7  ......+......#+.
0760: B2 0A 01 E3 80 23 01 DC  08 02 01 00 E4 80 80 89  .....#..........
0770: 07 03 02 10 01 80 2B D7  B2 0A 01 D8 80 23 2B D7  ......+......#+.
0780: B2 0A 01 E3 80 23 01 DC  08 02 01 00 E5 80 80 A9  .....#..........
0790: 07 03 02 10 01 80 2B D7  B2 0A 01 DA 80 23 2B D7  ......+......#+.
07A0: B2 0A 01 E3 80 23 01 DC  08 02 01 00 E6 80 80 C9  .....#..........
07B0: 07 03 02 10 01 80 2B D7  B2 0A 01 DC 80 23 2B D7  ......+......#+.
07C0: B2 0A 01 E3 80 23 01 DC  08 02 01 00 C8 80 80 E9  .....#..........
07D0: 07 03 02 10 05 80 2B D7  B2 0A 01 D6 80 23 2B D7  ......+......#+.
07E0: B2 0A 01 E7 80 23 01 DC  08 02 01 00 E8 80 80 09  .....#..........
07F0: 08 03 02 10 05 80 2B D7  B2 0A 01 D8 80 23 2B D7  ......+......#+.
0800: B2 0A 01 E7 80 23 01 DC  08 02 01 00 E9 80 80 29  .....#.........)
0810: 08 03 02 10 05 80 2B D7  B2 0A 01 DA 80 23 2B D7  ......+......#+.
0820: B2 0A 01 E7 80 23 01 DC  08 02 01 00 EA 80 80 49  .....#.........I
0830: 08 03 02 10 05 80 2B D7  B2 0A 01 DC 80 23 2B D7  ......+......#+.
0840: B2 0A 01 E7 80 23 01 DC  08 02 01 00 06 80 80 69  .....#.........i
0850: 08 03 02 10 01 80 2B D7  B2 0A 01 D6 80 23 2B D7  ......+......#+.
0860: B2 0A 01 EB 80 23 01 DC  08 02 01 00 EC 80 80 89  .....#..........
0870: 08 03 02 10 01 80 2B D7  B2 0A 01 D8 80 23 2B D7  ......+......#+.
0880: B2 0A 01 EB 80 23 01 DC  08 02 01 00 ED 80 80 A9  .....#..........
0890: 08 03 02 10 01 80 2B D7  B2 0A 01 DA 80 23 2B D7  ......+......#+.
08A0: B2 0A 01 EB 80 23 01 DC  08 02 01 00 C7 80 80 C9  .....#..........
08B0: 08 03 02 10 01 80 2B D7  B2 0A 01 DC 80 23 2B D7  ......+......#+.
08C0: B2 0A 01 EB 80 23 01 DC  08 02 01 00 EE 80 80 DC  .....#..........
08D0: 08 2B D7 B2 0A 01 EF 80  23 01 DC 08 1B 03 16 00  .+......#.......
08E0: 04 10 20 01 1E F0 FF FF  7F 6F 70 02 0E 00 05 80  .. ......op.....
08F0: 80 FD 08 1D E9 80 23 01  33 09 01 33 09 02 0E 00  ......#.3..3....
0900: 01 80 80 0F 09 1D 06 80  23 01 33 09 01 33 09 02  ........#.3..3..
0910: 0E 00 D0 80 80 21 09 1D  EC 80 23 01 33 09 01 33  .....!....#.3..3
0920: 09 02 0E 00 D9 80 80 33  09 1D ED 80 23 01 33 09  .......3....#.3.
0930: 01 33 09 03 0F 00 05 80  3E 03 10 05 80 42 09 01  .3......>....B..
0940: 49 09 3C 0F 00 CA 80 01  80 3E 03 10 D0 80 53 09  I.<......>....S.
0950: 01 61 09 3C 0F 00 D0 80  01 80 3C 0F 00 CA 80 01  .a.<......<.....
0960: 80 3E 03 10 CA 80 70 09  03 12 00 01 80 01 75 09  .>....p.......u.
0970: 03 12 00 05 80 3E 03 10  D9 80 86 09 3C 0F 00 D0  .....>......<...
0980: 80 01 80 01 9B 09 3C 0F  00 01 80 01 80 3C 0F 00  ......<......<..
0990: CA 80 01 80 3C 0F 00 D9  80 01 80 3E 03 10 00 80  ....<......>....
09A0: A9 09 3C 0F 00 00 80 01  80 3E 03 10 DD 80 B6 09  ..<......>......
09B0: 05 18 00 01 B9 09 06 18  00 41 05 80 C7 80 07 10  .........A......
09C0: 11 00 41 C8 80 C9 80 07  10 10 00 02 10 00 05 80  ..A.............
09D0: 00 DA 09 3C 0F 00 CA 80  01 80 03 13 00 05 80 0E  ...<............
09E0: 13 00 F0 80 0E 13 00 F1  80 0E 13 00 F2 80 03 14  ................
09F0: 00 05 80 0E 14 00 05 80  0E 14 00 05 80 0E 14 00  ................
0A00: 05 80 02 08 10 13 00 00  19 0A 02 09 10 14 00 00  ................
0A10: 19 0A 3C 0F 00 CA 80 01  80 24 EE 80 05 80 0F 00  ..<......$......
0A20: 25 02 00 10 05 80 00 2C  0A 01 C4 0A 02 00 10 01  %......,........
0A30: 80 00 3A 0A 1A C9 0A 01  C4 0A 02 00 10 D0 80 00  ..:.............
0A40: 66 0A 02 12 00 05 80 00  5F 0A 02 18 00 05 80 00  f......._.......
0A50: 58 0A 1A D4 0A 01 5C 0A  1D F3 80 23 01 63 0A 1D  X.....\....#.c..
0A60: F4 80 23 01 C4 0A 02 00  10 CA 80 00 83 0A 02 12  ..#.............
0A70: 00 05 80 00 7C 0A 1A ED  0A 01 80 0A 1D F4 80 23  ....|..........#
0A80: 01 C4 0A 02 00 10 D9 80  00 A8 0A 03 01 10 F5 80  ................
0A90: 43 00 43 01 02 04 10 05  80 00 A2 0A 1A 71 15 01  C.C..........q..
0AA0: A5 0A 01 C7 0A 01 C4 0A  02 00 10 00 80 00 B6 0A  ................
0AB0: 1A 97 17 01 C4 0A 02 00  10 DD 80 00 C4 0A 1A 58  ...............X
0AC0: 18 01 C4 0A 01 C7 0A 21  1B 42 1D F6 80 23 03 01  .......!.B...#..
0AD0: 10 00 80 1B 42 1D F7 80  23 73 F8 80 F8 FF FF 7F  ....B...#s......
0AE0: F0 FF FF 7F 1C F9 80 03  01 10 CA 80 1B 03 21 00  ..............!.
0AF0: 05 80 03 1D 00 05 80 03  19 00 05 80 03 1A 00 05  ................
0B00: 80 03 1B 00 05 80 03 1C  00 05 80 03 24 00 05 80  ............$...
0B10: 03 22 00 05 80 03 26 00  F0 80 02 24 00 FA 80 03  ."....&....$....
0B20: 31 0C 3E 26 00 24 00 2B  0C 03 17 00 05 80 02 24  1.>&.$.+.......$
0B30: 00 E4 80 04 4F 0B 02 24  00 E9 80 03 4F 0B 03 17  ....O..$....O...
0B40: 00 01 80 3E 05 10 05 80  4F 0B 03 17 00 05 80 02  ...>....O.......
0B50: 24 00 E9 80 04 70 0B 02  24 00 F6 80 03 70 0B 03  $....p..$....p..
0B60: 17 00 01 80 3E 05 10 01  80 70 0B 03 17 00 05 80  ....>....p......
0B70: 02 24 00 F6 80 04 91 0B  02 24 00 F7 80 03 91 0B  .$.......$......
0B80: 03 17 00 01 80 3E 05 10  D0 80 91 0B 03 17 00 05  .....>..........
0B90: 80 02 24 00 F7 80 04 B2  0B 02 24 00 F3 80 03 B2  ..$.......$.....
0BA0: 0B 03 17 00 01 80 3E 05  10 CA 80 B2 0B 03 17 00  ......>.........
0BB0: 05 80 02 24 00 F3 80 04  D3 0B 02 24 00 FB 80 03  ...$.......$....
0BC0: D3 0B 03 17 00 01 80 3E  05 10 D9 80 D3 0B 03 17  .......>........
0BD0: 00 05 80 02 24 00 FB 80  04 F4 0B 02 24 00 FC 80  ....$.......$...
0BE0: 03 F4 0B 03 17 00 01 80  3E 05 10 00 80 F4 0B 03  ........>.......
0BF0: 17 00 05 80 02 24 00 FC  80 04 0D 0C 03 17 00 01  .....$..........
0C00: 80 3E 05 10 DD 80 0D 0C  03 17 00 05 80 3E 08 10  .>...........>..
0C10: 24 00 19 0C 03 17 00 01  80 02 17 00 05 80 00 28  $..............(
0C20: 0C 3C 1A 00 22 00 01 80  0B 22 00 0B 24 00 01 1A  .<.."...."..$...
0C30: 0B 03 24 00 05 80 03 26  00 05 80 02 24 00 FA 80  ..$....&....$...
0C40: 03 5C 0D 3E 26 00 24 00  56 0D 03 17 00 05 80 03  .\.>&.$.V.......
0C50: 25 00 24 00 07 25 00 FA  80 02 25 00 E4 80 04 7A  %.$..%....%....z
0C60: 0C 02 25 00 E9 80 03 7A  0C 03 17 00 01 80 3E 05  ..%....z......>.
0C70: 10 05 80 7A 0C 03 17 00  05 80 02 25 00 E9 80 04  ...z.......%....
0C80: 9B 0C 02 25 00 F6 80 03  9B 0C 03 17 00 01 80 3E  ...%...........>
0C90: 05 10 01 80 9B 0C 03 17  00 05 80 02 25 00 F6 80  ............%...
0CA0: 04 BC 0C 02 25 00 F7 80  03 BC 0C 03 17 00 01 80  ....%...........
0CB0: 3E 05 10 D0 80 BC 0C 03  17 00 05 80 02 25 00 F7  >............%..
0CC0: 80 04 DD 0C 02 25 00 F3  80 03 DD 0C 03 17 00 01  .....%..........
0CD0: 80 3E 05 10 CA 80 DD 0C  03 17 00 05 80 02 25 00  .>............%.
0CE0: F3 80 04 FE 0C 02 25 00  FB 80 03 FE 0C 03 17 00  ......%.........
0CF0: 01 80 3E 05 10 D9 80 FE  0C 03 17 00 05 80 02 25  ..>............%
0D00: 00 FB 80 04 1F 0D 02 25  00 FC 80 03 1F 0D 03 17  .......%........
0D10: 00 01 80 3E 05 10 00 80  1F 0D 03 17 00 05 80 02  ...>............
0D20: 25 00 FC 80 04 38 0D 03  17 00 01 80 3E 05 10 DD  %....8......>...
0D30: 80 38 0D 03 17 00 05 80  3E 09 10 24 00 44 0D 03  .8......>..$.D..
0D40: 17 00 01 80 02 17 00 05  80 00 53 0D 3C 1A 00 22  ..........S.<.."
0D50: 00 01 80 0B 22 00 0B 24  00 01 3B 0C 0F 1A 00 FD  ...."..$..;.....
0D60: 80 10 1A 00 01 80 3D 1A  00 05 80 01 80 03 24 00  ......=.......$.
0D70: 05 80 03 22 00 05 80 03  26 00 F1 80 02 24 00 FA  ..."....&....$..
0D80: 80 03 93 0E 3E 26 00 24  00 8D 0E 03 17 00 05 80  ....>&.$........
0D90: 02 24 00 E4 80 04 B1 0D  02 24 00 E9 80 03 B1 0D  .$.......$......
0DA0: 03 17 00 01 80 3E 05 10  05 80 B1 0D 03 17 00 05  .....>..........
0DB0: 80 02 24 00 E9 80 04 D2  0D 02 24 00 F6 80 03 D2  ..$.......$.....
0DC0: 0D 03 17 00 01 80 3E 05  10 01 80 D2 0D 03 17 00  ......>.........
0DD0: 05 80 02 24 00 F6 80 04  F3 0D 02 24 00 F7 80 03  ...$.......$....
0DE0: F3 0D 03 17 00 01 80 3E  05 10 D0 80 F3 0D 03 17  .......>........
0DF0: 00 05 80 02 24 00 F7 80  04 14 0E 02 24 00 F3 80  ....$.......$...
0E00: 03 14 0E 03 17 00 01 80  3E 05 10 CA 80 14 0E 03  ........>.......
0E10: 17 00 05 80 02 24 00 F3  80 04 35 0E 02 24 00 FB  .....$....5..$..
0E20: 80 03 35 0E 03 17 00 01  80 3E 05 10 D9 80 35 0E  ..5......>....5.
0E30: 03 17 00 05 80 02 24 00  FB 80 04 56 0E 02 24 00  ......$....V..$.
0E40: FC 80 03 56 0E 03 17 00  01 80 3E 05 10 00 80 56  ...V......>....V
0E50: 0E 03 17 00 05 80 02 24  00 FC 80 04 6F 0E 03 17  .......$....o...
0E60: 00 01 80 3E 05 10 DD 80  6F 0E 03 17 00 05 80 3E  ...>....o......>
0E70: 08 10 24 00 7B 0E 03 17  00 01 80 02 17 00 05 80  ..$.{...........
0E80: 00 8A 0E 3C 1B 00 22 00  01 80 0B 22 00 0B 24 00  ...<.."...."..$.
0E90: 01 7C 0D 03 24 00 05 80  03 26 00 05 80 02 24 00  .|..$....&....$.
0EA0: FA 80 03 BE 0F 3E 26 00  24 00 B8 0F 03 17 00 05  .....>&.$.......
0EB0: 80 03 25 00 24 00 07 25  00 FA 80 02 25 00 E4 80  ..%.$..%....%...
0EC0: 04 DC 0E 02 25 00 E9 80  03 DC 0E 03 17 00 01 80  ....%...........
0ED0: 3E 05 10 05 80 DC 0E 03  17 00 05 80 02 25 00 E9  >............%..
0EE0: 80 04 FD 0E 02 25 00 F6  80 03 FD 0E 03 17 00 01  .....%..........
0EF0: 80 3E 05 10 01 80 FD 0E  03 17 00 05 80 02 25 00  .>............%.
0F00: F6 80 04 1E 0F 02 25 00  F7 80 03 1E 0F 03 17 00  ......%.........
0F10: 01 80 3E 05 10 D0 80 1E  0F 03 17 00 05 80 02 25  ..>............%
0F20: 00 F7 80 04 3F 0F 02 25  00 F3 80 03 3F 0F 03 17  ....?..%....?...
0F30: 00 01 80 3E 05 10 CA 80  3F 0F 03 17 00 05 80 02  ...>....?.......
0F40: 25 00 F3 80 04 60 0F 02  25 00 FB 80 03 60 0F 03  %....`..%....`..
0F50: 17 00 01 80 3E 05 10 D9  80 60 0F 03 17 00 05 80  ....>....`......
0F60: 02 25 00 FB 80 04 81 0F  02 25 00 FC 80 03 81 0F  .%.......%......
0F70: 03 17 00 01 80 3E 05 10  00 80 81 0F 03 17 00 05  .....>..........
0F80: 80 02 25 00 FC 80 04 9A  0F 03 17 00 01 80 3E 05  ..%...........>.
0F90: 10 DD 80 9A 0F 03 17 00  05 80 3E 09 10 24 00 A6  ..........>..$..
0FA0: 0F 03 17 00 01 80 02 17  00 05 80 00 B5 0F 3C 1B  ..............<.
0FB0: 00 22 00 01 80 0B 22 00  0B 24 00 01 9D 0E 0F 1B  ."...."..$......
0FC0: 00 FD 80 10 1B 00 01 80  3D 1B 00 05 80 01 80 03  ........=.......
0FD0: 24 00 05 80 03 22 00 05  80 03 26 00 F2 80 02 24  $...."....&....$
0FE0: 00 FA 80 03 F5 10 3E 26  00 24 00 EF 10 03 17 00  ......>&.$......
0FF0: 05 80 02 24 00 E4 80 04  13 10 02 24 00 E9 80 03  ...$.......$....
1000: 13 10 03 17 00 01 80 3E  05 10 05 80 13 10 03 17  .......>........
1010: 00 05 80 02 24 00 E9 80  04 34 10 02 24 00 F6 80  ....$....4..$...
1020: 03 34 10 03 17 00 01 80  3E 05 10 01 80 34 10 03  .4......>....4..
1030: 17 00 05 80 02 24 00 F6  80 04 55 10 02 24 00 F7  .....$....U..$..
1040: 80 03 55 10 03 17 00 01  80 3E 05 10 D0 80 55 10  ..U......>....U.
1050: 03 17 00 05 80 02 24 00  F7 80 04 76 10 02 24 00  ......$....v..$.
1060: F3 80 03 76 10 03 17 00  01 80 3E 05 10 CA 80 76  ...v......>....v
1070: 10 03 17 00 05 80 02 24  00 F3 80 04 97 10 02 24  .......$.......$
1080: 00 FB 80 03 97 10 03 17  00 01 80 3E 05 10 D9 80  ...........>....
1090: 97 10 03 17 00 05 80 02  24 00 FB 80 04 B8 10 02  ........$.......
10A0: 24 00 FC 80 03 B8 10 03  17 00 01 80 3E 05 10 00  $...........>...
10B0: 80 B8 10 03 17 00 05 80  02 24 00 FC 80 04 D1 10  .........$......
10C0: 03 17 00 01 80 3E 05 10  DD 80 D1 10 03 17 00 05  .....>..........
10D0: 80 3E 08 10 24 00 DD 10  03 17 00 01 80 02 17 00  .>..$...........
10E0: 05 80 00 EC 10 3C 1C 00  22 00 01 80 0B 22 00 0B  .....<.."...."..
10F0: 24 00 01 DE 0F 03 24 00  05 80 03 26 00 05 80 02  $.....$....&....
1100: 24 00 FA 80 03 20 12 3E  26 00 24 00 1A 12 03 17  $.... .>&.$.....
1110: 00 05 80 03 25 00 24 00  07 25 00 FA 80 02 25 00  ....%.$..%....%.
1120: E4 80 04 3E 11 02 25 00  E9 80 03 3E 11 03 17 00  ...>..%....>....
1130: 01 80 3E 05 10 05 80 3E  11 03 17 00 05 80 02 25  ..>....>.......%
1140: 00 E9 80 04 5F 11 02 25  00 F6 80 03 5F 11 03 17  ...._..%...._...
1150: 00 01 80 3E 05 10 01 80  5F 11 03 17 00 05 80 02  ...>...._.......
1160: 25 00 F6 80 04 80 11 02  25 00 F7 80 03 80 11 03  %.......%.......
1170: 17 00 01 80 3E 05 10 D0  80 80 11 03 17 00 05 80  ....>...........
1180: 02 25 00 F7 80 04 A1 11  02 25 00 F3 80 03 A1 11  .%.......%......
1190: 03 17 00 01 80 3E 05 10  CA 80 A1 11 03 17 00 05  .....>..........
11A0: 80 02 25 00 F3 80 04 C2  11 02 25 00 FB 80 03 C2  ..%.......%.....
11B0: 11 03 17 00 01 80 3E 05  10 D9 80 C2 11 03 17 00  ......>.........
11C0: 05 80 02 25 00 FB 80 04  E3 11 02 25 00 FC 80 03  ...%.......%....
11D0: E3 11 03 17 00 01 80 3E  05 10 00 80 E3 11 03 17  .......>........
11E0: 00 05 80 02 25 00 FC 80  04 FC 11 03 17 00 01 80  ....%...........
11F0: 3E 05 10 DD 80 FC 11 03  17 00 05 80 3E 09 10 24  >...........>..$
1200: 00 08 12 03 17 00 01 80  02 17 00 05 80 00 17 12  ................
1210: 3C 1C 00 22 00 01 80 0B  22 00 0B 24 00 01 FF 10  <.."...."..$....
1220: 0F 1C 00 FD 80 10 1C 00  01 80 3D 1C 00 05 80 01  ..........=.....
1230: 80 1D FE 80 23 05 1E 00  03 21 00 05 80 03 1D 00  ....#....!......
1240: FD 80 03 17 00 05 80 0C  11 00 15 11 00 D9 80 0B  ................
1250: 11 00 02 17 00 11 00 05  67 12 3D 1D 00 17 00 01  ........g.=.....
1260: 80 0B 17 00 01 52 12 02  1E 00 05 80 01 70 15 03  .....R.......p..
1270: 02 10 FC 80 03 03 10 FF  80 03 04 10 03 80 24 00  ..............$.
1280: 81 05 80 1D 00 25 02 00  10 05 80 00 94 12 06 1E  .....%..........
1290: 00 01 C3 13 02 00 10 01  80 00 F9 12 03 19 00 1A  ................
12A0: 00 03 02 10 01 81 03 03  10 02 81 03 04 10 03 81  ................
12B0: 03 05 10 04 81 03 06 10  05 81 03 07 10 06 81 03  ................
12C0: 08 10 07 81 03 09 10 08  81 03 00 17 09 81 03 01  ................
12D0: 17 0A 81 03 02 17 0B 81  03 03 17 0C 81 03 04 17  ................
12E0: 0D 81 03 05 17 0E 81 03  06 17 0F 81 03 07 17 10  ................
12F0: 81 03 08 17 11 81 01 C3  13 02 00 10 D0 80 00 5E  ...............^
1300: 13 03 19 00 1B 00 03 02  10 12 81 03 03 10 13 81  ................
1310: 03 04 10 14 81 03 05 10  15 81 03 06 10 16 81 03  ................
1320: 07 10 17 81 03 08 10 05  80 03 09 10 05 80 03 00  ................
1330: 17 05 80 03 01 17 05 80  03 02 17 05 80 03 03 17  ................
1340: 05 80 03 04 17 05 80 03  05 17 05 80 03 06 17 05  ................
1350: 80 03 07 17 05 80 03 08  17 05 80 01 C3 13 02 00  ................
1360: 10 CA 80 00 C3 13 03 19  00 1C 00 03 02 10 18 81  ................
1370: 03 03 10 19 81 03 04 10  1A 81 03 05 10 1B 81 03  ................
1380: 06 10 1C 81 03 07 10 1D  81 03 08 10 1E 81 03 09  ................
1390: 10 1F 81 03 00 17 05 80  03 01 17 05 80 03 02 17  ................
13A0: 05 80 03 03 17 05 80 03  04 17 05 80 03 05 17 05  ................
13B0: 80 03 06 17 05 80 03 07  17 05 80 03 08 17 05 80  ................
13C0: 01 C3 13 02 00 10 05 80  01 6D 15 40 E0 80 C7 80  .........m.@....
13D0: 21 00 00 10 05 1F 00 02  1F 00 05 80 01 6D 15 24  !............m.$
13E0: 20 81 05 80 19 00 25 02  00 10 05 80 00 FE 13 06   .....%.........
13F0: 1F 00 40 E0 80 C7 80 21  00 05 80 01 0E 15 02 00  ..@....!........
1400: 10 01 80 00 0E 14 03 15  00 02 10 01 0E 15 02 00  ................
1410: 10 D0 80 00 1E 14 03 15  00 03 10 01 0E 15 02 00  ................
1420: 10 CA 80 00 2E 14 03 15  00 04 10 01 0E 15 02 00  ................
1430: 10 D9 80 00 3E 14 03 15  00 05 10 01 0E 15 02 00  ....>...........
1440: 10 00 80 00 4E 14 03 15  00 06 10 01 0E 15 02 00  ....N...........
1450: 10 DD 80 00 5E 14 03 15  00 07 10 01 0E 15 02 00  ....^...........
1460: 10 DF 80 00 6E 14 03 15  00 08 10 01 0E 15 02 00  ....n...........
1470: 10 E0 80 00 7E 14 03 15  00 09 10 01 0E 15 02 00  ....~...........
1480: 10 E1 80 00 8E 14 03 15  00 00 17 01 0E 15 02 00  ................
1490: 10 E2 80 00 9E 14 03 15  00 01 17 01 0E 15 02 00  ................
14A0: 10 E4 80 00 AE 14 03 15  00 02 17 01 0E 15 02 00  ................
14B0: 10 E5 80 00 BE 14 03 15  00 03 17 01 0E 15 02 00  ................
14C0: 10 E6 80 00 CE 14 03 15  00 04 17 01 0E 15 02 00  ................
14D0: 10 EA 80 00 DE 14 03 15  00 05 17 01 0E 15 02 00  ................
14E0: 10 C7 80 00 EE 14 03 15  00 06 17 01 0E 15 02 00  ................
14F0: 10 C8 80 00 FE 14 03 15  00 07 17 01 0E 15 02 00  ................
1500: 10 E8 80 00 0E 15 03 15  00 08 17 01 0E 15 02 00  ................
1510: 10 05 80 01 6A 15 40 C8  80 C9 80 21 00 00 10 93  ....j.@....!....
1520: 15 00 03 1F 17 16 00 1D  03 80 23 93 05 80 24 21  ..........#...$!
1530: 81 01 80 05 80 25 02 00  10 05 80 00 56 15 42 06  .....%......V.B.
1540: 1E 00 06 1F 00 40 05 80  DF 80 21 00 D9 80 03 01  .....@....!.....
1550: 10 21 00 01 6A 15 02 00  10 01 80 00 6A 15 40 C8  .!..j.......j.@.
1560: 80 C9 80 21 00 05 80 01  6A 15 01 D7 13 01 67 12  ...!....j.....g.
1570: 1B 41 05 80 05 80 02 10  27 00 41 01 80 D0 80 02  .A......'.A.....
1580: 10 28 00 41 CA 80 00 80  02 10 29 00 41 DD 80 DD  .(.A......).A...
1590: 80 02 10 2A 00 41 05 80  00 80 03 10 2B 00 41 DD  ...*.A......+.A.
15A0: 80 E4 80 03 10 2C 00 41  E5 80 E8 80 03 10 2D 00  .....,.A......-.
15B0: 41 E9 80 22 81 03 10 2E  00 41 23 81 FB 80 03 10  A..".....A#.....
15C0: 2F 00 20 01 1C 03 80 03  30 00 05 80 02 27 00 05  /. .....0....'..
15D0: 80 00 FF 15 24 24 81 01  80 05 80 25 02 00 10 05  ....$$.....%....
15E0: 80 00 EC 15 03 30 00 01  80 01 FC 15 02 00 10 01  .....0..........
15F0: 80 00 FC 15 03 01 10 25  81 01 FC 15 01 A9 16 24  .......%.......$
1600: 26 81 05 80 05 80 25 02  00 10 05 80 00 17 16 03  &.....%.........
1610: 01 10 25 81 01 A9 16 02  00 10 01 80 00 60 16 02  ..%..........`..
1620: 2A 00 01 80 00 30 16 03  02 10 05 80 1D 27 81 23  *....0.......'.#
1630: 03 02 10 05 80 24 28 81  01 80 05 80 25 02 00 10  .....$(.....%...
1640: 05 80 00 4D 16 03 30 00  01 80 01 5D 16 02 00 10  ...M..0....]....
1650: 01 80 00 5D 16 03 01 10  25 81 01 5D 16 01 A9 16  ...]....%..]....
1660: 02 00 10 D0 80 00 A9 16  02 2A 00 01 80 00 79 16  .........*....y.
1670: 03 02 10 01 80 1D 27 81  23 03 02 10 01 80 24 28  ......'.#.....$(
1680: 81 01 80 05 80 25 02 00  10 05 80 00 96 16 03 01  .....%..........
1690: 10 29 81 01 A6 16 02 00  10 01 80 00 A6 16 03 01  .)..............
16A0: 10 25 81 01 A6 16 01 A9  16 02 30 00 01 80 00 96  .%........0.....
16B0: 17 03 31 00 05 80 03 02  10 2B 00 03 03 10 2C 00  ..1......+....,.
16C0: 03 04 10 2D 00 03 05 10  2E 00 03 06 10 2F 00 02  ...-........./..
16D0: 2B 00 2A 81 04 DE 16 3C  31 00 01 80 01 80 02 2C  +.*....<1......,
16E0: 00 2A 81 04 ED 16 3C 31  00 D0 80 01 80 02 2D 00  .*....<1......-.
16F0: 2A 81 04 FC 16 3C 31 00  CA 80 01 80 02 2E 00 2A  *....<1........*
1700: 81 04 0B 17 3C 31 00 D9  80 01 80 02 2F 00 2A 81  ....<1....../.*.
1710: 04 1A 17 3C 31 00 00 80  01 80 02 31 00 2B 81 00  ...<1......1.+..
1720: 2E 17 1D 2C 81 23 03 01  10 25 81 01 96 17 24 2D  ...,.#...%....$-
1730: 81 05 80 31 00 25 02 00  10 05 80 00 46 17 03 01  ...1.%......F...
1740: 10 25 81 01 96 17 02 00  10 01 80 00 56 17 03 01  .%..........V...
1750: 10 2E 81 01 96 17 02 00  10 D0 80 00 66 17 03 01  ............f...
1760: 10 2F 81 01 96 17 02 00  10 CA 80 00 76 17 03 01  ./..........v...
1770: 10 30 81 01 96 17 02 00  10 D9 80 00 86 17 03 01  .0..............
1780: 10 31 81 01 96 17 02 00  10 00 80 00 96 17 03 01  .1..............
1790: 10 32 81 01 96 17 1B 42  3E 03 10 05 80 C0 17 02  .2.....B>.......
17A0: 04 10 E2 80 03 B8 17 03  02 10 E2 80 1D 33 81 23  .............3.#
17B0: 48 E6 80 23 1B 01 BD 17  03 02 10 E2 80 01 07 18  H..#............
17C0: 02 0E 00 D9 80 00 E9 17  02 04 10 2A 81 03 E1 17  ...........*....
17D0: 03 02 10 2A 81 1D 33 81  23 48 E6 80 23 1B 01 E6  ...*..3.#H..#...
17E0: 17 03 02 10 2A 81 01 07  18 02 04 10 FC 80 03 02  ....*...........
17F0: 18 03 02 10 FC 80 1D 33  81 23 48 E6 80 23 1B 01  .......3.#H..#..
1800: 07 18 03 02 10 FC 80 1D  33 81 23 24 34 81 01 80  ........3.#$4...
1810: 05 80 25 02 00 10 05 80  00 4C 18 03 01 10 01 80  ..%......L......
1820: 43 00 43 01 1D FF 80 73  35 81 F8 FF FF 7F F0 FF  C.C....s5.......
1830: FF 7F 1C F9 80 45 04 80  F0 FF FF 7F F0 FF FF 7F  .....E..........
1840: 66 64 6F 31 05 80 1C 03  80 01 57 18 02 00 10 01  fdo1......W.....
1850: 80 00 57 18 01 57 18 1B  42 03 0F 00 05 80 24 22  ..W..W..B.....$"
1860: 81 05 80 0F 00 25 02 00  10 05 80 00 72 18 1B 01  .....%......r...
1870: FE 18 02 00 10 01 80 00  98 18 1D FB 80 23 1D FC  .............#..
1880: 80 23 1D C9 80 23 1D FA  80 23 1D 36 81 23 1D 37  .#...#...#.6.#.7
1890: 81 23 01 58 18 01 FE 18  02 00 10 D0 80 00 B6 18  .#.X............
18A0: 1D 38 81 23 1D 39 81 23  1D 3A 81 23 1D 37 81 23  .8.#.9.#.:.#.7.#
18B0: 01 58 18 01 FE 18 02 00  10 CA 80 00 D8 18 1D 3B  .X.............;
18C0: 81 23 1D 3C 81 23 1D 3D  81 23 1D 3E 81 23 1D 37  .#.<.#.=.#.>.#.7
18D0: 81 23 01 58 18 01 FE 18  02 00 10 D9 80 00 FE 18  .#.X............
18E0: 1D 3F 81 23 1D 40 81 23  1D 41 81 23 1D 42 81 23  .?.#.@.#.A.#.B.#
18F0: 1D 43 81 23 1D 37 81 23  01 58 18 01 FE 18        .C.#.7.#.X....  
```

#### Opcodes

```
  0: 0x001D [0x03] ExtData[1]->WorkLocal[0] = 1*
  1: 0x0022 [0x20] SET_CLI_EVENT_UC_FLAG: Lock player control
  2: 0x0024 [0x42] SET_CLI_EVENT_CANCEL_DATA()
  3: 0x0025 [0x1E] EventEntity looks at LocalPlayer and starts talking
  4: 0x002A [0x6F] WAIT_FRAME_DELAY: Yield until WaitTime reaches zero
  5: 0x002B [0x70] WAIT_ENTITY_RENDER_FLAG: Wait while EventEntity->Render.Flags3 bit 2 is set (cancel turn if not)
  6: 0x002C [0x03] ExtData[1]->WorkLocal[3] = Work_Zone[3]
  7: 0x0031 [0x03] ExtData[1]->WorkLocal[4] = Work_Zone[4]
  8: 0x0036 [0x03] ExtData[1]->WorkLocal[5] = Work_Zone[5]
  9: 0x003B [0x03] ExtData[1]->WorkLocal[12] = Work_Zone[9]
 10: 0x0040 [0x1D] PRINT_EVENT_MESSAGE(message_id=7712*)
    → "Ahhh, so you're military tactician who who drew up the plans for this latest supply mission. Why don't we ask one of the men how its going, shall we?"
 11: 0x0043 [0x23] WAIT_FOR_DIALOG_INTERACTION
 12: 0x0044 [0x1C] WAIT(60* ticks)
 13: 0x0047 [0x45] LOAD_SCHEDULED_TASK: Load scheduler "fdo1" with entities [LocalPlayer, LocalPlayer], work=[200*, 0*]
 14: 0x0058 [0x55] WAIT_LOAD_SCHEDULER: Wait for scheduler "fdo1" with entities [LocalPlayer, LocalPlayer], work=200*
 15: 0x0067 [0x46] CAMERA_CONTROL: Disable user control
 16: 0x0069 [0x38] SET_CLIENT_EVENT_MODE(mode=19*)
 17: 0x006C [0x4E] SET_ENTITY_HIDE_FLAG: Show EventEntity
 18: 0x0072 [0x92] LocalPlayer->Render.Flags3 ^= 0x01
 19: 0x0078 [0x92] EventEntity->Render.Flags3 ^= 0x01
 20: 0x007E [0x92] Allied Commissary (ID: 17478359/0x010AB2D7)->Render.Flags3 ^= 0x01
 21: 0x0084 [0x02] IF !(ExtData[1]->WorkLocal[12] == 81*) GOTO 0x00C7
 22: 0x008C [0x45] LOAD_SCHEDULED_TASK: Load scheduler "z81b" with entities [LocalPlayer, LocalPlayer], work=[325*, 0*]
 23: 0x009D [0xBA] SET_ENTITY_POSITION(entity_id=EventEntity, pos_x=311.752*, pos_z=-112.124*, pos_y=-29.761*, direction=48.3°*)
 24: 0x00AA [0xBA] SET_ENTITY_POSITION(entity_id=LocalPlayer, pos_x=313.726*, pos_z=-115.091*, pos_y=-29.577*, direction=247.8°*)
 25: 0x00B7 [0xBA] SET_ENTITY_POSITION(entity_id=Allied Commissary (ID: 17478359/0x010AB2D7), pos_x=318.377*, pos_z=-108.406*, pos_y=-29.500*, direction=137.5°*)
 26: 0x00C4 [0x01] GOTO 0x0471
 27: 0x00C7 [0x02] IF !(ExtData[1]->WorkLocal[12] == 82*) GOTO 0x010A
 28: 0x00CF [0x45] LOAD_SCHEDULED_TASK: Load scheduler "z82b" with entities [LocalPlayer, LocalPlayer], work=[325*, 0*]
 29: 0x00E0 [0xBA] SET_ENTITY_POSITION(entity_id=EventEntity, pos_x=64.024*, pos_z=-32.098*, pos_y=0.532*, direction=49.7°*)
 30: 0x00ED [0xBA] SET_ENTITY_POSITION(entity_id=LocalPlayer, pos_x=63.861*, pos_z=-35.340*, pos_y=0.374*, direction=240.5°*)
 31: 0x00FA [0xBA] SET_ENTITY_POSITION(entity_id=Allied Commissary (ID: 17478359/0x010AB2D7), pos_x=68.325*, pos_z=-33.241*, pos_y=0.436*, direction=174.6°*)
 32: 0x0107 [0x01] GOTO 0x0471
 33: 0x010A [0x02] IF !(ExtData[1]->WorkLocal[12] == 83*) GOTO 0x014D
 34: 0x0112 [0x45] LOAD_SCHEDULED_TASK: Load scheduler "z83b" with entities [LocalPlayer, LocalPlayer], work=[325*, 0*]
 35: 0x0123 [0xBA] SET_ENTITY_POSITION(entity_id=EventEntity, pos_x=-195.325*, pos_z=-279.916*, pos_y=-40.000*, direction=335.4°*)
 36: 0x0130 [0xBA] SET_ENTITY_POSITION(entity_id=LocalPlayer, pos_x=-192.619*, pos_z=-278.169*, pos_y=-40.000*, direction=159.8°*)
 37: 0x013D [0xBA] SET_ENTITY_POSITION(entity_id=Allied Commissary (ID: 17478359/0x010AB2D7), pos_x=-191.006*, pos_z=-283.756*, pos_y=-40.000*, direction=234.6°*)
 38: 0x014A [0x01] GOTO 0x0471
 39: 0x014D [0x02] IF !(ExtData[1]->WorkLocal[12] == 84*) GOTO 0x0190
 40: 0x0155 [0x45] LOAD_SCHEDULED_TASK: Load scheduler "z84b" with entities [LocalPlayer, LocalPlayer], work=[325*, 0*]
 41: 0x0166 [0xBA] SET_ENTITY_POSITION(entity_id=EventEntity, pos_x=208.005*, pos_z=23.041*, pos_y=8.762*, direction=128.9°*)
 42: 0x0173 [0xBA] SET_ENTITY_POSITION(entity_id=LocalPlayer, pos_x=205.098*, pos_z=22.479*, pos_y=8.844*, direction=340.6°*)
 43: 0x0180 [0xBA] SET_ENTITY_POSITION(entity_id=Allied Commissary (ID: 17478359/0x010AB2D7), pos_x=203.206*, pos_z=27.113*, pos_y=8.342*, direction=42.3°*)
 44: 0x018D [0x01] GOTO 0x0471
 45: 0x0190 [0x02] IF !(ExtData[1]->WorkLocal[12] == 175*) GOTO 0x01D3
 46: 0x0198 [0x45] LOAD_SCHEDULED_TASK: Load scheduler "175a" with entities [LocalPlayer, LocalPlayer], work=[325*, 0*]
 47: 0x01A9 [0xBA] SET_ENTITY_POSITION(entity_id=EventEntity, pos_x=372.603*, pos_z=19.912*, pos_y=-39.999*, direction=338.7°*)
 48: 0x01B6 [0xBA] SET_ENTITY_POSITION(entity_id=LocalPlayer, pos_x=375.183*, pos_z=22.033*, pos_y=-39.999*, direction=149.0°*)
 49: 0x01C3 [0xBA] SET_ENTITY_POSITION(entity_id=Allied Commissary (ID: 17478359/0x010AB2D7), pos_x=377.993*, pos_z=17.548*, pos_y=-39.999*, direction=217.3°*)
 50: 0x01D0 [0x01] GOTO 0x0471
 51: 0x01D3 [0x02] IF !(ExtData[1]->WorkLocal[12] == 88*) GOTO 0x0216
 52: 0x01DB [0x45] LOAD_SCHEDULED_TASK: Load scheduler "z88b" with entities [LocalPlayer, LocalPlayer], work=[325*, 0*]
 53: 0x01EC [0xBA] SET_ENTITY_POSITION(entity_id=EventEntity, pos_x=-572.416*, pos_z=55.001*, pos_y=40.961*, direction=150.4°*)
 54: 0x01F9 [0xBA] SET_ENTITY_POSITION(entity_id=LocalPlayer, pos_x=-575.469*, pos_z=53.523*, pos_y=40.999*, direction=340.0°*)
 55: 0x0206 [0xBA] SET_ENTITY_POSITION(entity_id=Allied Commissary (ID: 17478359/0x010AB2D7), pos_x=-568.817*, pos_z=49.509*, pos_y=40.778*, direction=239.1°*)
 56: 0x0213 [0x01] GOTO 0x0471
 57: 0x0216 [0x02] IF !(ExtData[1]->WorkLocal[12] == 89*) GOTO 0x0259
 58: 0x021E [0x45] LOAD_SCHEDULED_TASK: Load scheduler "z89b" with entities [LocalPlayer, LocalPlayer], work=[325*, 0*]
 59: 0x022F [0xBA] SET_ENTITY_POSITION(entity_id=EventEntity, pos_x=313.921*, pos_z=103.138*, pos_y=-47.370*, direction=186.3°*)
 60: 0x023C [0xBA] SET_ENTITY_POSITION(entity_id=LocalPlayer, pos_x=310.646*, pos_z=104.690*, pos_y=-47.723*, direction=20.6°*)
 61: 0x0249 [0xBA] SET_ENTITY_POSITION(entity_id=Allied Commissary (ID: 17478359/0x010AB2D7), pos_x=310.475*, pos_z=96.654*, pos_y=-47.601*, direction=270.6°*)
 62: 0x0256 [0x01] GOTO 0x0471
 63: 0x0259 [0x02] IF !(ExtData[1]->WorkLocal[12] == 90*) GOTO 0x029C
 64: 0x0261 [0x45] LOAD_SCHEDULED_TASK: Load scheduler "z90b" with entities [LocalPlayer, LocalPlayer], work=[325*, 0*]
 65: 0x0272 [0xBA] SET_ENTITY_POSITION(entity_id=EventEntity, pos_x=436.683*, pos_z=388.424*, pos_y=24.851*, direction=174.4°*)
 66: 0x027F [0xBA] SET_ENTITY_POSITION(entity_id=LocalPlayer, pos_x=433.267*, pos_z=387.400*, pos_y=24.439*, direction=328.3°*)
 67: 0x028C [0xBA] SET_ENTITY_POSITION(entity_id=Allied Commissary (ID: 17478359/0x010AB2D7), pos_x=431.919*, pos_z=393.644*, pos_y=24.534*, direction=52.3°*)
 68: 0x0299 [0x01] GOTO 0x0471
 69: 0x029C [0x02] IF !(ExtData[1]->WorkLocal[12] == 91*) GOTO 0x02DF
 70: 0x02A4 [0x45] LOAD_SCHEDULED_TASK: Load scheduler "z91b" with entities [LocalPlayer, LocalPlayer], work=[325*, 0*]
 71: 0x02B5 [0xBA] SET_ENTITY_POSITION(entity_id=EventEntity, pos_x=259.071*, pos_z=202.614*, pos_y=8.551*, direction=86.5°*)
 72: 0x02C2 [0xBA] SET_ENTITY_POSITION(entity_id=LocalPlayer, pos_x=260.171*, pos_z=199.023*, pos_y=8.790*, direction=226.6°*)
 73: 0x02CF [0xBA] SET_ENTITY_POSITION(entity_id=Allied Commissary (ID: 17478359/0x010AB2D7), pos_x=253.982*, pos_z=196.343*, pos_y=8.236*, direction=332.8°*)
 74: 0x02DC [0x01] GOTO 0x0471
 75: 0x02DF [0x02] IF !(ExtData[1]->WorkLocal[12] == 171*) GOTO 0x0322
 76: 0x02E7 [0x45] LOAD_SCHEDULED_TASK: Load scheduler "171a" with entities [LocalPlayer, LocalPlayer], work=[325*, 0*]
 77: 0x02F8 [0xBA] SET_ENTITY_POSITION(entity_id=EventEntity, pos_x=219.165*, pos_z=-17.497*, pos_y=-32.441*, direction=71.1°*)
 78: 0x0305 [0xBA] SET_ENTITY_POSITION(entity_id=LocalPlayer, pos_x=219.270*, pos_z=-20.198*, pos_y=-32.206*, direction=241.3°*)
 79: 0x0312 [0xBA] SET_ENTITY_POSITION(entity_id=Allied Commissary (ID: 17478359/0x010AB2D7), pos_x=224.166*, pos_z=-20.668*, pos_y=-32.276*, direction=183.2°*)
 80: 0x031F [0x01] GOTO 0x0471
 81: 0x0322 [0x02] IF !(ExtData[1]->WorkLocal[12] == 95*) GOTO 0x0365
 82: 0x032A [0x45] LOAD_SCHEDULED_TASK: Load scheduler "z95b" with entities [LocalPlayer, LocalPlayer], work=[325*, 0*]
 83: 0x033B [0xBA] SET_ENTITY_POSITION(entity_id=EventEntity, pos_x=-10.768*, pos_z=309.479*, pos_y=-12.851*, direction=176.3°*)
 84: 0x0348 [0xBA] SET_ENTITY_POSITION(entity_id=LocalPlayer, pos_x=-13.689*, pos_z=307.360*, pos_y=-13.000*, direction=328.6°*)
 85: 0x0355 [0xBA] SET_ENTITY_POSITION(entity_id=Allied Commissary (ID: 17478359/0x010AB2D7), pos_x=-14.266*, pos_z=314.175*, pos_y=-12.568*, direction=60.9°*)
 86: 0x0362 [0x01] GOTO 0x0471
 87: 0x0365 [0x02] IF !(ExtData[1]->WorkLocal[12] == 96*) GOTO 0x03A8
 88: 0x036D [0x45] LOAD_SCHEDULED_TASK: Load scheduler "z96b" with entities [LocalPlayer, LocalPlayer], work=[325*, 0*]
 89: 0x037E [0xBA] SET_ENTITY_POSITION(entity_id=EventEntity, pos_x=-107.622*, pos_z=0.202*, pos_y=-79.979*, direction=349.3°*)
 90: 0x038B [0xBA] SET_ENTITY_POSITION(entity_id=LocalPlayer, pos_x=-105.799*, pos_z=1.570*, pos_y=-79.877*, direction=111.4°*)
 91: 0x0398 [0xBA] SET_ENTITY_POSITION(entity_id=Allied Commissary (ID: 17478359/0x010AB2D7), pos_x=-104.588*, pos_z=-5.098*, pos_y=-79.887*, direction=263.1°*)
 92: 0x03A5 [0x01] GOTO 0x0471
 93: 0x03A8 [0x02] IF !(ExtData[1]->WorkLocal[12] == 97*) GOTO 0x03EB
 94: 0x03B0 [0x45] LOAD_SCHEDULED_TASK: Load scheduler "z97b" with entities [LocalPlayer, LocalPlayer], work=[325*, 0*]
 95: 0x03C1 [0xBA] SET_ENTITY_POSITION(entity_id=EventEntity, pos_x=-298.643*, pos_z=430.382*, pos_y=16.760*, direction=168.8°*)
 96: 0x03CE [0xBA] SET_ENTITY_POSITION(entity_id=LocalPlayer, pos_x=-300.985*, pos_z=432.271*, pos_y=17.203*, direction=43.2°*)
 97: 0x03DB [0xBA] SET_ENTITY_POSITION(entity_id=Allied Commissary (ID: 17478359/0x010AB2D7), pos_x=-300.385*, pos_z=423.475*, pos_y=17.221*, direction=277.7°*)
 98: 0x03E8 [0x01] GOTO 0x0471
 99: 0x03EB [0x02] IF !(ExtData[1]->WorkLocal[12] == 98*) GOTO 0x042E
100: 0x03F3 [0x45] LOAD_SCHEDULED_TASK: Load scheduler "z98b" with entities [LocalPlayer, LocalPlayer], work=[325*, 0*]
101: 0x0404 [0xBA] SET_ENTITY_POSITION(entity_id=EventEntity, pos_x=-42.376*, pos_z=219.781*, pos_y=24.963*, direction=4.6°*)
102: 0x0411 [0xBA] SET_ENTITY_POSITION(entity_id=LocalPlayer, pos_x=-40.191*, pos_z=218.015*, pos_y=24.836*, direction=236.5°*)
103: 0x041E [0xBA] SET_ENTITY_POSITION(entity_id=Allied Commissary (ID: 17478359/0x010AB2D7), pos_x=-35.737*, pos_z=224.685*, pos_y=24.660*, direction=161.7°*)
104: 0x042B [0x01] GOTO 0x0471
105: 0x042E [0x02] IF !(ExtData[1]->WorkLocal[12] == 164*) GOTO 0x0471
106: 0x0436 [0x45] LOAD_SCHEDULED_TASK: Load scheduler "164a" with entities [LocalPlayer, LocalPlayer], work=[325*, 0*]
107: 0x0447 [0xBA] SET_ENTITY_POSITION(entity_id=EventEntity, pos_x=-103.730*, pos_z=177.917*, pos_y=-0.078*, direction=272.8°*)
108: 0x0454 [0xBA] SET_ENTITY_POSITION(entity_id=LocalPlayer, pos_x=-103.320*, pos_z=180.564*, pos_y=-0.078*, direction=117.7°*)
109: 0x0461 [0xBA] SET_ENTITY_POSITION(entity_id=Allied Commissary (ID: 17478359/0x010AB2D7), pos_x=-107.740*, pos_z=179.591*, pos_y=-0.078*, direction=8.1°*)
110: 0x046E [0x01] GOTO 0x0471

SUBROUTINE_0471:
111: 0x0471 [0x94] LocalPlayer->Render.Flags3 ^= 0x01
112: 0x0477 [0x94] EventEntity->Render.Flags3 ^= 0x01
113: 0x047D [0x94] Allied Commissary (ID: 17478359/0x010AB2D7)->Render.Flags3 ^= 0x01
114: 0x0483 [0x80] LOAD_WAIT(entity=LocalPlayer)
115: 0x0488 [0x80] LOAD_WAIT(entity=EventEntity)
116: 0x048D [0x80] LOAD_WAIT(entity=Allied Commissary (ID: 17478359/0x010AB2D7))
117: 0x0492 [0x1C] WAIT(1* ticks)
118: 0x0495 [0x1E] EventEntity looks at LocalPlayer and starts talking
119: 0x049A [0x4A] LocalPlayer looks at EventEntity
120: 0x04A3 [0x45] LOAD_SCHEDULED_TASK: Load scheduler "fdi1" with entities [LocalPlayer, LocalPlayer], work=[200*, 0*]
121: 0x04B4 [0x55] WAIT_LOAD_SCHEDULER: Wait for scheduler "fdi1" with entities [LocalPlayer, LocalPlayer], work=200*
122: 0x04C3 [0x1E] EventEntity looks at Allied Commissary (ID: 17478359/0x010AB2D7) and starts talking
123: 0x04C8 [0x4A] LocalPlayer looks at Allied Commissary (ID: 17478359/0x010AB2D7)
124: 0x04D1 [0x29] REQ_SET_WAIT(priority=0x10, entity_id=Allied Commissary (ID: 17478359/0x010AB2D7), tag_num=0x04)
125: 0x04D8 [0x2B] Allied Commissary (ID: 17478359/0x010AB2D7) [7713*]:
    → "You are the tactician responsible for our latest operation? Then I shall report in on the status of our mission up until now."
126: 0x04DF [0x23] WAIT_FOR_DIALOG_INTERACTION
127: 0x04E0 [0x2B] Allied Commissary (ID: 17478359/0x010AB2D7) [7714*]:
    → "As per orders, the supply caravan completed preparation of our cargo last night, and set out on the designated route at daybreak."
128: 0x04E7 [0x23] WAIT_FOR_DIALOG_INTERACTION
129: 0x04E8 [0x41] ExtData[1]->WorkLocal[1] = ExtData[1]->WorkLocal[3] (bits 0*-15*)
130: 0x04F1 [0x41] ExtData[1]->WorkLocal[2] = ExtData[1]->WorkLocal[3] (bits 16*-31*)
131: 0x04FA [0x02] IF !(ExtData[1]->WorkLocal[1] == 0*) GOTO 0x0505
132: 0x0502 [0x1A] CALL_SUBROUTINE(address=0x0636)
133: 0x0505 [0x02] IF !(ExtData[1]->WorkLocal[2] == 0*) GOTO 0x052A
134: 0x050D [0x41] ExtData[1]->WorkLocal[1] = ExtData[1]->WorkLocal[4] (bits 0*-15*)
135: 0x0516 [0x41] ExtData[1]->WorkLocal[2] = ExtData[1]->WorkLocal[4] (bits 16*-31*)
136: 0x051F [0x02] IF !(ExtData[1]->WorkLocal[1] == 0*) GOTO 0x052A
137: 0x0527 [0x1A] CALL_SUBROUTINE(address=0x0636)
138: 0x052A [0x02] IF !(ExtData[1]->WorkLocal[2] == 0*) GOTO 0x054F
139: 0x0532 [0x41] ExtData[1]->WorkLocal[1] = ExtData[1]->WorkLocal[5] (bits 0*-15*)
140: 0x053B [0x41] ExtData[1]->WorkLocal[2] = ExtData[1]->WorkLocal[5] (bits 16*-31*)
141: 0x0544 [0x02] IF !(ExtData[1]->WorkLocal[1] == 0*) GOTO 0x054F
142: 0x054C [0x1A] CALL_SUBROUTINE(address=0x0636)
143: 0x054F [0x02] IF !(ExtData[1]->WorkLocal[2] == 0*) GOTO 0x0585
144: 0x0557 [0x02] IF !(ExtData[1]->WorkLocal[2] >= 3*) GOTO 0x056A
145: 0x055F [0x2B] Allied Commissary (ID: 17478359/0x010AB2D7) [7729*]:
    → "Our unit was able to reach this stronghold, though we did so bearing a great deal less than the intended cargo."
146: 0x0566 [0x23] WAIT_FOR_DIALOG_INTERACTION
147: 0x0567 [0x01] GOTO 0x0585
148: 0x056A [0x02] IF !(ExtData[1]->WorkLocal[2] >= 5*) GOTO 0x057D
149: 0x0572 [0x2B] Allied Commissary (ID: 17478359/0x010AB2D7) [7728*]:
    → "Our unit was able to reach this stronghold safely with the cargo. Your planning may well have been the decisive factor in the success of our mission."
150: 0x0579 [0x23] WAIT_FOR_DIALOG_INTERACTION
151: 0x057A [0x01] GOTO 0x0585
152: 0x057D [0x2B] Allied Commissary (ID: 17478359/0x010AB2D7) [7727*]:
    → "I am pleased to report that our unit was able to reach this stronghold safely with all of the intended cargo. The success of our mission was due in no small part to your brilliant planning."
153: 0x0584 [0x23] WAIT_FOR_DIALOG_INTERACTION

SUBROUTINE_0585:
154: 0x0585 [0x1E] EventEntity looks at LocalPlayer and starts talking
155: 0x058A [0x6F] WAIT_FRAME_DELAY: Yield until WaitTime reaches zero
156: 0x058B [0x70] WAIT_ENTITY_RENDER_FLAG: Wait while EventEntity->Render.Flags3 bit 2 is set (cancel turn if not)
157: 0x058C [0x02] IF !(ExtData[1]->WorkLocal[2] == 0*) GOTO 0x05C4
158: 0x0594 [0x02] IF !(ExtData[1]->WorkLocal[0] == 0*) GOTO 0x05A3
159: 0x059C [0x1D] PRINT_EVENT_MESSAGE(message_id=277*)
    → "It seems that you were not successful in your last operation. But do not let one small failure hang heavy on your soul. Report to Sir Rasdinice and put this all behind you."
160: 0x059F [0x23] WAIT_FOR_DIALOG_INTERACTION
161: 0x05A0 [0x01] GOTO 0x05C1
162: 0x05A3 [0x02] IF !(ExtData[1]->WorkLocal[0] == 1*) GOTO 0x05B2
163: 0x05AB [0x1D] PRINT_EVENT_MESSAGE(message_id=278*)
    → "Weren't so lucky during that last operation, were you? Well, don't worry about it too much. Report to First Centurion Hieronymus and get some rest, soldier."
164: 0x05AE [0x23] WAIT_FOR_DIALOG_INTERACTION
165: 0x05AF [0x01] GOTO 0x05C1
166: 0x05B2 [0x02] IF !(ExtData[1]->WorkLocal[0] == 2*) GOTO 0x05C1
167: 0x05BA [0x1D] PRINT_EVENT_MESSAGE(message_id=279*)
    → "Hmmm... Didn't do so well on that last operation, did you? I know it's hard, but it's better if you're up-front about these things. If you know what's good for you, you'll hurry down and report to Emhi Tchaoryo before the major finds out first."
168: 0x05BD [0x23] WAIT_FOR_DIALOG_INTERACTION
169: 0x05BE [0x01] GOTO 0x05C1

SUBROUTINE_05C1:
170: 0x05C1 [0x01] GOTO 0x05F1
171: 0x05C4 [0x02] IF !(ExtData[1]->WorkLocal[0] == 0*) GOTO 0x05D3
172: 0x05CC [0x1D] PRINT_EVENT_MESSAGE(message_id=274*)
    → "Good show on your last operation. Now go make an official report to Sir Rasdinice."
173: 0x05CF [0x23] WAIT_FOR_DIALOG_INTERACTION
174: 0x05D0 [0x01] GOTO 0x05F1
175: 0x05D3 [0x02] IF !(ExtData[1]->WorkLocal[0] == 1*) GOTO 0x05E2
176: 0x05DB [0x1D] PRINT_EVENT_MESSAGE(message_id=275*)
    → "Good work on that last operation. Now report back to First Centurion Hieronymus before he has your hide!"
177: 0x05DE [0x23] WAIT_FOR_DIALOG_INTERACTION
178: 0x05DF [0x01] GOTO 0x05F1
179: 0x05E2 [0x02] IF !(ExtData[1]->WorkLocal[0] == 2*) GOTO 0x05F1
180: 0x05EA [0x1D] PRINT_EVENT_MESSAGE(message_id=276*)
    → "Nice job on your last operation. Now don't forget to report back to Emhi Tchaoryo!"
181: 0x05ED [0x23] WAIT_FOR_DIALOG_INTERACTION
182: 0x05EE [0x01] GOTO 0x05F1

SUBROUTINE_05F1:
183: 0x05F1 [0x45] LOAD_SCHEDULED_TASK: Load scheduler "fdo1" with entities [LocalPlayer, LocalPlayer], work=[200*, 0*]
184: 0x0602 [0x55] WAIT_LOAD_SCHEDULER: Wait for scheduler "fdo1" with entities [LocalPlayer, LocalPlayer], work=200*
185: 0x0611 [0x4E] SET_ENTITY_HIDE_FLAG: Hide Allied Commissary (ID: 17478359/0x010AB2D7)
186: 0x0617 [0x1C] WAIT(15* ticks)
187: 0x061A [0x46] CAMERA_CONTROL: Restore default settings
188: 0x061C [0x45] LOAD_SCHEDULED_TASK: Load scheduler "fdi2" with entities [LocalPlayer, LocalPlayer], work=[200*, 0*]
189: 0x062D [0x03] Work_Zone[1] = 0*
190: 0x0632 [0x20] SET_CLI_EVENT_UC_FLAG: Unlock player control
191: 0x0634 [0x21] END_EVENT
192: 0x0635 [0x00] END_REQSTACK()

SUBROUTINE_0636:
193: 0x0636 [0x02] IF !(ExtData[1]->WorkLocal[1] == 1*) GOTO 0x0649
194: 0x063E [0x2B] Allied Commissary (ID: 17478359/0x010AB2D7) [7715*]:
    → "Unfortunately, we encountered an accident and lost a portion of our cargo."
195: 0x0645 [0x23] WAIT_FOR_DIALOG_INTERACTION
196: 0x0646 [0x01] GOTO 0x08DC
197: 0x0649 [0x02] IF !(ExtData[1]->WorkLocal[1] == 2*) GOTO 0x0669
198: 0x0651 [0x03] Work_Zone[2] = 0*
199: 0x0656 [0x2B] Allied Commissary (ID: 17478359/0x010AB2D7) [7717*]:
    → "We encountered considerable beastman opposition. In accordance with mission operatives, we [engaged the enemy in open battle/attempted to evade the enemy at all cost]."
200: 0x065D [0x23] WAIT_FOR_DIALOG_INTERACTION
201: 0x065E [0x2B] Allied Commissary (ID: 17478359/0x010AB2D7) [7721*]:
    → "By the good graces of the Goddess, our convoy was able to emerge victorious over our adversaries."
202: 0x0665 [0x23] WAIT_FOR_DIALOG_INTERACTION
203: 0x0666 [0x01] GOTO 0x08DC
204: 0x0669 [0x02] IF !(ExtData[1]->WorkLocal[1] == 3*) GOTO 0x0689
205: 0x0671 [0x03] Work_Zone[2] = 0*
206: 0x0676 [0x2B] Allied Commissary (ID: 17478359/0x010AB2D7) [7718*]:
    → "We encountered a superior beastman assault force. In accordance with mission operatives, we [engaged the enemy in open battle/attempted to evade the enemy at all cost]."
207: 0x067D [0x23] WAIT_FOR_DIALOG_INTERACTION
208: 0x067E [0x2B] Allied Commissary (ID: 17478359/0x010AB2D7) [7721*]:
    → "By the good graces of the Goddess, our convoy was able to emerge victorious over our adversaries."
209: 0x0685 [0x23] WAIT_FOR_DIALOG_INTERACTION
210: 0x0686 [0x01] GOTO 0x08DC
211: 0x0689 [0x02] IF !(ExtData[1]->WorkLocal[1] == 4*) GOTO 0x06A9
212: 0x0691 [0x03] Work_Zone[2] = 0*
213: 0x0696 [0x2B] Allied Commissary (ID: 17478359/0x010AB2D7) [7719*]:
    → "We encountered a beastman supply convoy, who was also made immediately aware of our presence. In accordance with mission operatives, we [engaged the enemy in open battle/attempted to evade the enemy at all cost]."
214: 0x069D [0x23] WAIT_FOR_DIALOG_INTERACTION
215: 0x069E [0x2B] Allied Commissary (ID: 17478359/0x010AB2D7) [7722*]:
    → "By the good graces of the Goddess, our convoy was able to obliterate the beastman supply contingent. In addition, we seized a significant portion of the enemy's supplies."
216: 0x06A5 [0x23] WAIT_FOR_DIALOG_INTERACTION
217: 0x06A6 [0x01] GOTO 0x08DC
218: 0x06A9 [0x02] IF !(ExtData[1]->WorkLocal[1] == 5*) GOTO 0x06C9
219: 0x06B1 [0x03] Work_Zone[2] = 0*
220: 0x06B6 [0x2B] Allied Commissary (ID: 17478359/0x010AB2D7) [7720*]:
    → "We encountered a substantial force under the direct command of a beastman general. In accordance with mission operatives, we [engaged the enemy in open battle/attempted to evade the enemy at all cost]."
221: 0x06BD [0x23] WAIT_FOR_DIALOG_INTERACTION
222: 0x06BE [0x2B] Allied Commissary (ID: 17478359/0x010AB2D7) [7721*]:
    → "By the good graces of the Goddess, our convoy was able to emerge victorious over our adversaries."
223: 0x06C5 [0x23] WAIT_FOR_DIALOG_INTERACTION
224: 0x06C6 [0x01] GOTO 0x08DC
225: 0x06C9 [0x02] IF !(ExtData[1]->WorkLocal[1] == 6*) GOTO 0x06E9
226: 0x06D1 [0x03] Work_Zone[2] = 1*
227: 0x06D6 [0x2B] Allied Commissary (ID: 17478359/0x010AB2D7) [7717*]:
    → "We encountered considerable beastman opposition. In accordance with mission operatives, we [engaged the enemy in open battle/attempted to evade the enemy at all cost]."
228: 0x06DD [0x23] WAIT_FOR_DIALOG_INTERACTION
229: 0x06DE [0x2B] Allied Commissary (ID: 17478359/0x010AB2D7) [7724*]:
    → "By the good graces of the Goddess, we narrowly succeeded in throwing the beastmen ranks into chaos and disarray."
230: 0x06E5 [0x23] WAIT_FOR_DIALOG_INTERACTION
231: 0x06E6 [0x01] GOTO 0x08DC
232: 0x06E9 [0x02] IF !(ExtData[1]->WorkLocal[1] == 7*) GOTO 0x0709
233: 0x06F1 [0x03] Work_Zone[2] = 1*
234: 0x06F6 [0x2B] Allied Commissary (ID: 17478359/0x010AB2D7) [7718*]:
    → "We encountered a superior beastman assault force. In accordance with mission operatives, we [engaged the enemy in open battle/attempted to evade the enemy at all cost]."
235: 0x06FD [0x23] WAIT_FOR_DIALOG_INTERACTION
236: 0x06FE [0x2B] Allied Commissary (ID: 17478359/0x010AB2D7) [7724*]:
    → "By the good graces of the Goddess, we narrowly succeeded in throwing the beastmen ranks into chaos and disarray."
237: 0x0705 [0x23] WAIT_FOR_DIALOG_INTERACTION
238: 0x0706 [0x01] GOTO 0x08DC
239: 0x0709 [0x02] IF !(ExtData[1]->WorkLocal[1] == 8*) GOTO 0x0729
240: 0x0711 [0x03] Work_Zone[2] = 1*
241: 0x0716 [0x2B] Allied Commissary (ID: 17478359/0x010AB2D7) [7719*]:
    → "We encountered a beastman supply convoy, who was also made immediately aware of our presence. In accordance with mission operatives, we [engaged the enemy in open battle/attempted to evade the enemy at all cost]."
242: 0x071D [0x23] WAIT_FOR_DIALOG_INTERACTION
243: 0x071E [0x2B] Allied Commissary (ID: 17478359/0x010AB2D7) [7724*]:
    → "By the good graces of the Goddess, we narrowly succeeded in throwing the beastmen ranks into chaos and disarray."
244: 0x0725 [0x23] WAIT_FOR_DIALOG_INTERACTION
245: 0x0726 [0x01] GOTO 0x08DC
246: 0x0729 [0x02] IF !(ExtData[1]->WorkLocal[1] == 9*) GOTO 0x0749
247: 0x0731 [0x03] Work_Zone[2] = 1*
248: 0x0736 [0x2B] Allied Commissary (ID: 17478359/0x010AB2D7) [7720*]:
    → "We encountered a substantial force under the direct command of a beastman general. In accordance with mission operatives, we [engaged the enemy in open battle/attempted to evade the enemy at all cost]."
249: 0x073D [0x23] WAIT_FOR_DIALOG_INTERACTION
250: 0x073E [0x2B] Allied Commissary (ID: 17478359/0x010AB2D7) [7724*]:
    → "By the good graces of the Goddess, we narrowly succeeded in throwing the beastmen ranks into chaos and disarray."
251: 0x0745 [0x23] WAIT_FOR_DIALOG_INTERACTION
252: 0x0746 [0x01] GOTO 0x08DC
253: 0x0749 [0x02] IF !(ExtData[1]->WorkLocal[1] == 10*) GOTO 0x0769
254: 0x0751 [0x03] Work_Zone[2] = 1*
255: 0x0756 [0x2B] Allied Commissary (ID: 17478359/0x010AB2D7) [7717*]:
    → "We encountered considerable beastman opposition. In accordance with mission operatives, we [engaged the enemy in open battle/attempted to evade the enemy at all cost]."
256: 0x075D [0x23] WAIT_FOR_DIALOG_INTERACTION
257: 0x075E [0x2B] Allied Commissary (ID: 17478359/0x010AB2D7) [7725*]:
    → "By the good graces of the Goddess, we somehow staved off the beastman attack and shook free. However, we were forced to abandon a portion of our cargo in the process."
258: 0x0765 [0x23] WAIT_FOR_DIALOG_INTERACTION
259: 0x0766 [0x01] GOTO 0x08DC
260: 0x0769 [0x02] IF !(ExtData[1]->WorkLocal[1] == 11*) GOTO 0x0789
261: 0x0771 [0x03] Work_Zone[2] = 1*
262: 0x0776 [0x2B] Allied Commissary (ID: 17478359/0x010AB2D7) [7718*]:
    → "We encountered a superior beastman assault force. In accordance with mission operatives, we [engaged the enemy in open battle/attempted to evade the enemy at all cost]."
263: 0x077D [0x23] WAIT_FOR_DIALOG_INTERACTION
264: 0x077E [0x2B] Allied Commissary (ID: 17478359/0x010AB2D7) [7725*]:
    → "By the good graces of the Goddess, we somehow staved off the beastman attack and shook free. However, we were forced to abandon a portion of our cargo in the process."
265: 0x0785 [0x23] WAIT_FOR_DIALOG_INTERACTION
266: 0x0786 [0x01] GOTO 0x08DC
267: 0x0789 [0x02] IF !(ExtData[1]->WorkLocal[1] == 12*) GOTO 0x07A9
268: 0x0791 [0x03] Work_Zone[2] = 1*
269: 0x0796 [0x2B] Allied Commissary (ID: 17478359/0x010AB2D7) [7719*]:
    → "We encountered a beastman supply convoy, who was also made immediately aware of our presence. In accordance with mission operatives, we [engaged the enemy in open battle/attempted to evade the enemy at all cost]."
270: 0x079D [0x23] WAIT_FOR_DIALOG_INTERACTION
271: 0x079E [0x2B] Allied Commissary (ID: 17478359/0x010AB2D7) [7725*]:
    → "By the good graces of the Goddess, we somehow staved off the beastman attack and shook free. However, we were forced to abandon a portion of our cargo in the process."
272: 0x07A5 [0x23] WAIT_FOR_DIALOG_INTERACTION
273: 0x07A6 [0x01] GOTO 0x08DC
274: 0x07A9 [0x02] IF !(ExtData[1]->WorkLocal[1] == 13*) GOTO 0x07C9
275: 0x07B1 [0x03] Work_Zone[2] = 1*
276: 0x07B6 [0x2B] Allied Commissary (ID: 17478359/0x010AB2D7) [7720*]:
    → "We encountered a substantial force under the direct command of a beastman general. In accordance with mission operatives, we [engaged the enemy in open battle/attempted to evade the enemy at all cost]."
277: 0x07BD [0x23] WAIT_FOR_DIALOG_INTERACTION
278: 0x07BE [0x2B] Allied Commissary (ID: 17478359/0x010AB2D7) [7725*]:
    → "By the good graces of the Goddess, we somehow staved off the beastman attack and shook free. However, we were forced to abandon a portion of our cargo in the process."
279: 0x07C5 [0x23] WAIT_FOR_DIALOG_INTERACTION
280: 0x07C6 [0x01] GOTO 0x08DC
281: 0x07C9 [0x02] IF !(ExtData[1]->WorkLocal[1] == 16*) GOTO 0x07E9
282: 0x07D1 [0x03] Work_Zone[2] = 0*
283: 0x07D6 [0x2B] Allied Commissary (ID: 17478359/0x010AB2D7) [7717*]:
    → "We encountered considerable beastman opposition. In accordance with mission operatives, we [engaged the enemy in open battle/attempted to evade the enemy at all cost]."
284: 0x07DD [0x23] WAIT_FOR_DIALOG_INTERACTION
285: 0x07DE [0x2B] Allied Commissary (ID: 17478359/0x010AB2D7) [7723*]:
    → "However, despite our best efforts, our convoy was utterly defeated. All of our cargo was lost to the enemy horde."
286: 0x07E5 [0x23] WAIT_FOR_DIALOG_INTERACTION
287: 0x07E6 [0x01] GOTO 0x08DC
288: 0x07E9 [0x02] IF !(ExtData[1]->WorkLocal[1] == 17*) GOTO 0x0809
289: 0x07F1 [0x03] Work_Zone[2] = 0*
290: 0x07F6 [0x2B] Allied Commissary (ID: 17478359/0x010AB2D7) [7718*]:
    → "We encountered a superior beastman assault force. In accordance with mission operatives, we [engaged the enemy in open battle/attempted to evade the enemy at all cost]."
291: 0x07FD [0x23] WAIT_FOR_DIALOG_INTERACTION
292: 0x07FE [0x2B] Allied Commissary (ID: 17478359/0x010AB2D7) [7723*]:
    → "However, despite our best efforts, our convoy was utterly defeated. All of our cargo was lost to the enemy horde."
293: 0x0805 [0x23] WAIT_FOR_DIALOG_INTERACTION
294: 0x0806 [0x01] GOTO 0x08DC
295: 0x0809 [0x02] IF !(ExtData[1]->WorkLocal[1] == 18*) GOTO 0x0829
296: 0x0811 [0x03] Work_Zone[2] = 0*
297: 0x0816 [0x2B] Allied Commissary (ID: 17478359/0x010AB2D7) [7719*]:
    → "We encountered a beastman supply convoy, who was also made immediately aware of our presence. In accordance with mission operatives, we [engaged the enemy in open battle/attempted to evade the enemy at all cost]."
298: 0x081D [0x23] WAIT_FOR_DIALOG_INTERACTION
299: 0x081E [0x2B] Allied Commissary (ID: 17478359/0x010AB2D7) [7723*]:
    → "However, despite our best efforts, our convoy was utterly defeated. All of our cargo was lost to the enemy horde."
300: 0x0825 [0x23] WAIT_FOR_DIALOG_INTERACTION
301: 0x0826 [0x01] GOTO 0x08DC
302: 0x0829 [0x02] IF !(ExtData[1]->WorkLocal[1] == 14*) GOTO 0x0849
303: 0x0831 [0x03] Work_Zone[2] = 0*
304: 0x0836 [0x2B] Allied Commissary (ID: 17478359/0x010AB2D7) [7720*]:
    → "We encountered a substantial force under the direct command of a beastman general. In accordance with mission operatives, we [engaged the enemy in open battle/attempted to evade the enemy at all cost]."
305: 0x083D [0x23] WAIT_FOR_DIALOG_INTERACTION
306: 0x083E [0x2B] Allied Commissary (ID: 17478359/0x010AB2D7) [7723*]:
    → "However, despite our best efforts, our convoy was utterly defeated. All of our cargo was lost to the enemy horde."
307: 0x0845 [0x23] WAIT_FOR_DIALOG_INTERACTION
308: 0x0846 [0x01] GOTO 0x08DC
309: 0x0849 [0x02] IF !(ExtData[1]->WorkLocal[1] == 19*) GOTO 0x0869
310: 0x0851 [0x03] Work_Zone[2] = 1*
311: 0x0856 [0x2B] Allied Commissary (ID: 17478359/0x010AB2D7) [7717*]:
    → "We encountered considerable beastman opposition. In accordance with mission operatives, we [engaged the enemy in open battle/attempted to evade the enemy at all cost]."
312: 0x085D [0x23] WAIT_FOR_DIALOG_INTERACTION
313: 0x085E [0x2B] Allied Commissary (ID: 17478359/0x010AB2D7) [7726*]:
    → "However, we were unable to repel the beastman's relentless pursuit, and in the end our convoy was scattered. All of our cargo was lost to the enemy horde."
314: 0x0865 [0x23] WAIT_FOR_DIALOG_INTERACTION
315: 0x0866 [0x01] GOTO 0x08DC
316: 0x0869 [0x02] IF !(ExtData[1]->WorkLocal[1] == 20*) GOTO 0x0889
317: 0x0871 [0x03] Work_Zone[2] = 1*
318: 0x0876 [0x2B] Allied Commissary (ID: 17478359/0x010AB2D7) [7718*]:
    → "We encountered a superior beastman assault force. In accordance with mission operatives, we [engaged the enemy in open battle/attempted to evade the enemy at all cost]."
319: 0x087D [0x23] WAIT_FOR_DIALOG_INTERACTION
320: 0x087E [0x2B] Allied Commissary (ID: 17478359/0x010AB2D7) [7726*]:
    → "However, we were unable to repel the beastman's relentless pursuit, and in the end our convoy was scattered. All of our cargo was lost to the enemy horde."
321: 0x0885 [0x23] WAIT_FOR_DIALOG_INTERACTION
322: 0x0886 [0x01] GOTO 0x08DC
323: 0x0889 [0x02] IF !(ExtData[1]->WorkLocal[1] == 21*) GOTO 0x08A9
324: 0x0891 [0x03] Work_Zone[2] = 1*
325: 0x0896 [0x2B] Allied Commissary (ID: 17478359/0x010AB2D7) [7719*]:
    → "We encountered a beastman supply convoy, who was also made immediately aware of our presence. In accordance with mission operatives, we [engaged the enemy in open battle/attempted to evade the enemy at all cost]."
326: 0x089D [0x23] WAIT_FOR_DIALOG_INTERACTION
327: 0x089E [0x2B] Allied Commissary (ID: 17478359/0x010AB2D7) [7726*]:
    → "However, we were unable to repel the beastman's relentless pursuit, and in the end our convoy was scattered. All of our cargo was lost to the enemy horde."
328: 0x08A5 [0x23] WAIT_FOR_DIALOG_INTERACTION
329: 0x08A6 [0x01] GOTO 0x08DC
330: 0x08A9 [0x02] IF !(ExtData[1]->WorkLocal[1] == 15*) GOTO 0x08C9
331: 0x08B1 [0x03] Work_Zone[2] = 1*
332: 0x08B6 [0x2B] Allied Commissary (ID: 17478359/0x010AB2D7) [7720*]:
    → "We encountered a substantial force under the direct command of a beastman general. In accordance with mission operatives, we [engaged the enemy in open battle/attempted to evade the enemy at all cost]."
333: 0x08BD [0x23] WAIT_FOR_DIALOG_INTERACTION
334: 0x08BE [0x2B] Allied Commissary (ID: 17478359/0x010AB2D7) [7726*]:
    → "However, we were unable to repel the beastman's relentless pursuit, and in the end our convoy was scattered. All of our cargo was lost to the enemy horde."
335: 0x08C5 [0x23] WAIT_FOR_DIALOG_INTERACTION
336: 0x08C6 [0x01] GOTO 0x08DC
337: 0x08C9 [0x02] IF !(ExtData[1]->WorkLocal[1] == 22*) GOTO 0x08DC
338: 0x08D1 [0x2B] Allied Commissary (ID: 17478359/0x010AB2D7) [7716*]:
    → "Most regrettably, we encountered an accident and lost out entire load of cargo."
339: 0x08D8 [0x23] WAIT_FOR_DIALOG_INTERACTION
340: 0x08D9 [0x01] GOTO 0x08DC

SUBROUTINE_08DC:
341: 0x08DC [0x1B] RETURN
```

#### Data or dead code:

```
# Dead code (unreachable instructions):
     0x08DD [0x03] ExtData[1]->WorkLocal[22] = Work_Zone[4]
     0x08E2 [0x20] SET_CLI_EVENT_UC_FLAG: Lock player control
     0x08E4 [0x1E] EventEntity looks at LocalPlayer and starts talking
     0x08E9 [0x6F] WAIT_FRAME_DELAY: Yield until WaitTime reaches zero
     0x08EA [0x70] WAIT_ENTITY_RENDER_FLAG: Wait while EventEntity->Render.Flags3 bit 2 is set (cancel turn if not)
     0x08EB [0x02] IF !(ExtData[1]->WorkLocal[14] == 0*) GOTO 0x08FD
     0x08F3 [0x1D] PRINT_EVENT_MESSAGE(message_id=18*)
    → "Greetings. I am % of the San d'Orian Provincial Knights."
     0x08F6 [0x23] WAIT_FOR_DIALOG_INTERACTION
     0x08F7 [0x01] GOTO 0x0933
     0x08FA [0x01] GOTO 0x0933
     0x08FD [0x02] IF !(ExtData[1]->WorkLocal[14] == 1*) GOTO 0x090F
     0x0905 [0x1D] PRINT_EVENT_MESSAGE(message_id=19*)
    → "Greetings. I am % of the Bastokan Legion."
     0x0908 [0x23] WAIT_FOR_DIALOG_INTERACTION
     0x0909 [0x01] GOTO 0x0933
     0x090C [0x01] GOTO 0x0933
     0x090F [0x02] IF !(ExtData[1]->WorkLocal[14] == 2*) GOTO 0x0921
     0x0917 [0x1D] PRINT_EVENT_MESSAGE(message_id=20*)
    → "Greetings. I am % of the Federation of Windurst."
     0x091A [0x23] WAIT_FOR_DIALOG_INTERACTION
     0x091B [0x01] GOTO 0x0933
     0x091E [0x01] GOTO 0x0933
     0x0921 [0x02] IF !(ExtData[1]->WorkLocal[14] == 4*) GOTO 0x0933
     0x0929 [0x1D] PRINT_EVENT_MESSAGE(message_id=21*)
    → "Greetings. I am %, Campaign Arbiter for the Allied Forces."
     0x092C [0x23] WAIT_FOR_DIALOG_INTERACTION
     0x092D [0x01] GOTO 0x0933
     0x0930 [0x01] GOTO 0x0933
     0x0933 [0x03] ExtData[1]->WorkLocal[15] = 0*
     0x0938 [0x3E] IF !(Work_Zone[3] bit 0*) GOTO 0x0942
     0x093F [0x01] GOTO 0x0949
     0x0942 [0x3C] SET_BIT_FLAG_CONDITIONAL(target_work_offset=ExtData[1]->WorkLocal[15], bit_index_work_offset=3*, condition_work_offset=1*)
     0x0949 [0x3E] IF !(Work_Zone[3] bit 2*) GOTO 0x0953
     0x0950 [0x01] GOTO 0x0961
     0x0953 [0x3C] SET_BIT_FLAG_CONDITIONAL(target_work_offset=ExtData[1]->WorkLocal[15], bit_index_work_offset=2*, condition_work_offset=1*)
     0x095A [0x3C] SET_BIT_FLAG_CONDITIONAL(target_work_offset=ExtData[1]->WorkLocal[15], bit_index_work_offset=3*, condition_work_offset=1*)
     0x0961 [0x3E] IF !(Work_Zone[3] bit 3*) GOTO 0x0970
     0x0968 [0x03] ExtData[1]->WorkLocal[18] = 1*
     0x096D [0x01] GOTO 0x0975
     0x0970 [0x03] ExtData[1]->WorkLocal[18] = 0*
     0x0975 [0x3E] IF !(Work_Zone[3] bit 4*) GOTO 0x0986
     0x097C [0x3C] SET_BIT_FLAG_CONDITIONAL(target_work_offset=ExtData[1]->WorkLocal[15], bit_index_work_offset=2*, condition_work_offset=1*)
     0x0983 [0x01] GOTO 0x099B
     0x0986 [0x3C] SET_BIT_FLAG_CONDITIONAL(target_work_offset=ExtData[1]->WorkLocal[15], bit_index_work_offset=1*, condition_work_offset=1*)
     0x098D [0x3C] SET_BIT_FLAG_CONDITIONAL(target_work_offset=ExtData[1]->WorkLocal[15], bit_index_work_offset=3*, condition_work_offset=1*)
     0x0994 [0x3C] SET_BIT_FLAG_CONDITIONAL(target_work_offset=ExtData[1]->WorkLocal[15], bit_index_work_offset=4*, condition_work_offset=1*)
     0x099B [0x3E] IF !(Work_Zone[3] bit 5*) GOTO 0x09A9
     0x09A2 [0x3C] SET_BIT_FLAG_CONDITIONAL(target_work_offset=ExtData[1]->WorkLocal[15], bit_index_work_offset=5*, condition_work_offset=1*)
     0x09A9 [0x3E] IF !(Work_Zone[3] bit 6*) GOTO 0x09B6
     0x09B0 [0x05] ExtData[1]->WorkLocal[24] = 1
     0x09B3 [0x01] GOTO 0x09B9
     0x09B6 [0x06] ExtData[1]->WorkLocal[24] = 0
     0x09B9 [0x41] ExtData[1]->WorkLocal[17] = Work_Zone[7] (bits 0*-15*)
     0x09C2 [0x41] ExtData[1]->WorkLocal[16] = Work_Zone[7] (bits 16*-31*)
     0x09CB [0x02] IF !(ExtData[1]->WorkLocal[16] == 0*) GOTO 0x09DA
     0x09D3 [0x3C] SET_BIT_FLAG_CONDITIONAL(target_work_offset=ExtData[1]->WorkLocal[15], bit_index_work_offset=3*, condition_work_offset=1*)
     0x09DA [0x03] ExtData[1]->WorkLocal[19] = 0*
     0x09DF [0x0E] ExtData[1]->WorkLocal[19] |= 2124167461*
     0x09E4 [0x0E] ExtData[1]->WorkLocal[19] |= 4292746*
     0x09E9 [0x0E] ExtData[1]->WorkLocal[19] |= 19023440*
     0x09EE [0x03] ExtData[1]->WorkLocal[20] = 0*
     0x09F3 [0x0E] ExtData[1]->WorkLocal[20] |= 0*
     0x09F8 [0x0E] ExtData[1]->WorkLocal[20] |= 0*
     0x09FD [0x0E] ExtData[1]->WorkLocal[20] |= 0*
     0x0A02 [0x02] IF !(Work_Zone[8] == ExtData[1]->WorkLocal[19]) GOTO 0x0A19
     0x0A0A [0x02] IF !(Work_Zone[9] == ExtData[1]->WorkLocal[20]) GOTO 0x0A19
     0x0A12 [0x3C] SET_BIT_FLAG_CONDITIONAL(target_work_offset=ExtData[1]->WorkLocal[15], bit_index_work_offset=3*, condition_work_offset=1*)
     0x0A19 [0x24] CREATE_DIALOG(message_id=22*, default_option=0*, option_flags=ExtData[1]->WorkLocal[15])
    → "What can I help you with? [Nothing./Performance assessment./New Allied Tags./Temporary items./Union registration./Teleportation./Information on the Allied Campaign.]"
     0x0A20 [0x25] WAIT_DIALOG_SELECT()
     0x0A21 [0x02] IF !(Work_Zone[0] == 0*) GOTO 0x0A2C
     0x0A29 [0x01] GOTO 0x0AC4
     0x0A2C [0x02] IF !(Work_Zone[0] == 1*) GOTO 0x0A3A
     0x0A34 [0x1A] CALL_SUBROUTINE(address=0x0AC9)
     0x0A37 [0x01] GOTO 0x0AC4
     0x0A3A [0x02] IF !(Work_Zone[0] == 2*) GOTO 0x0A66
     0x0A42 [0x02] IF !(ExtData[1]->WorkLocal[18] == 0*) GOTO 0x0A5F
     0x0A4A [0x02] IF !(ExtData[1]->WorkLocal[24] == 0*) GOTO 0x0A58
     0x0A52 [0x1A] CALL_SUBROUTINE(address=0x0AD4)
     0x0A55 [0x01] GOTO 0x0A5C
     0x0A58 [0x1D] PRINT_EVENT_MESSAGE(message_id=28*)
    → "You've already undergone an evaluation for this battle, or had you forgotten? As much as I'd like to, I'm forbidden from providing you with a new set of Allied Taegs until the next battle begins."
     0x0A5B [0x23] WAIT_FOR_DIALOG_INTERACTION
     0x0A5C [0x01] GOTO 0x0A63
     0x0A5F [0x1D] PRINT_EVENT_MESSAGE(message_id=68*)
    → "I am sorry, <Player>, but your campaign medal has expired. I cannot issue tags to anyone not authorized by the Allied Forces. Return to your nation's capital and speak with a Campaign Evaluation Official."
     0x0A62 [0x23] WAIT_FOR_DIALOG_INTERACTION
     0x0A63 [0x01] GOTO 0x0AC4
     0x0A66 [0x02] IF !(Work_Zone[0] == 3*) GOTO 0x0A83
     0x0A6E [0x02] IF !(ExtData[1]->WorkLocal[18] == 0*) GOTO 0x0A7C
     0x0A76 [0x1A] CALL_SUBROUTINE(address=0x0AED)
     0x0A79 [0x01] GOTO 0x0A80
     0x0A7C [0x1D] PRINT_EVENT_MESSAGE(message_id=68*)
    → "I am sorry, <Player>, but your campaign medal has expired. I cannot issue tags to anyone not authorized by the Allied Forces. Return to your nation's capital and speak with a Campaign Evaluation Official."
     0x0A7F [0x23] WAIT_FOR_DIALOG_INTERACTION
     0x0A80 [0x01] GOTO 0x0AC4
     0x0A83 [0x02] IF !(Work_Zone[0] == 4*) GOTO 0x0AA8
     0x0A8B [0x03] Work_Zone[1] = 111*
     0x0A90 [0x43] SEND_EVENT_UPDATE: Send pending tag to server (packet 0x005B)
     0x0A92 [0x43] SEND_EVENT_UPDATE: Check pending flag (skip if not pending)
     0x0A94 [0x02] IF !(Work_Zone[4] == 0*) GOTO 0x0AA2
     0x0A9C [0x1A] CALL_SUBROUTINE(address=0x1571)
     0x0A9F [0x01] GOTO 0x0AA5
     0x0AA2 [0x01] GOTO 0x0AC7
     0x0AA5 [0x01] GOTO 0x0AC4
     0x0AA8 [0x02] IF !(Work_Zone[0] == 5*) GOTO 0x0AB6
     0x0AB0 [0x1A] CALL_SUBROUTINE(address=0x1797)
     0x0AB3 [0x01] GOTO 0x0AC4
     0x0AB6 [0x02] IF !(Work_Zone[0] == 6*) GOTO 0x0AC4
     0x0ABE [0x1A] CALL_SUBROUTINE(address=0x1858)
     0x0AC1 [0x01] GOTO 0x0AC4
     0x0AC4 [0x01] GOTO 0x0AC7
     0x0AC7 [0x21] END_EVENT
     0x0AC8 [0x1B] RETURN
     0x0AC9 [0x42] SET_CLI_EVENT_CANCEL_DATA()
     0x0ACA [0x1D] PRINT_EVENT_MESSAGE(message_id=25*)
    → "Understood. I shall now judge your performance and award the proper remuneration."
     0x0ACD [0x23] WAIT_FOR_DIALOG_INTERACTION
     0x0ACE [0x03] Work_Zone[1] = 5*
     0x0AD3 [0x1B] RETURN
     0x0AD4 [0x42] SET_CLI_EVENT_CANCEL_DATA()
     0x0AD5 [0x1D] PRINT_EVENT_MESSAGE(message_id=27*)
    → "Understood. I shall prepare a new set of tags for you now."
     0x0AD8 [0x23] WAIT_FOR_DIALOG_INTERACTION
     0x0AD9 [0x73] EventEntity casts magic 483* on LocalPlayer
     0x0AE4 [0x1C] WAIT(260* ticks)
     0x0AE7 [0x03] Work_Zone[1] = 3*
     0x0AEC [0x1B] RETURN
     0x0AED [0x03] ExtData[1]->WorkLocal[33] = 0*
     0x0AF2 [0x03] ExtData[1]->WorkLocal[29] = 0*
     0x0AF7 [0x03] ExtData[1]->WorkLocal[25] = 0*
     0x0AFC [0x03] ExtData[1]->WorkLocal[26] = 0*
     0x0B01 [0x03] ExtData[1]->WorkLocal[27] = 0*
     0x0B06 [0x03] ExtData[1]->WorkLocal[28] = 0*
     0x0B0B [0x03] ExtData[1]->WorkLocal[36] = 0*
     0x0B10 [0x03] ExtData[1]->WorkLocal[34] = 0*
     0x0B15 [0x03] ExtData[1]->WorkLocal[38] = 2124167461*
     0x0B1A [0x02] IF !(ExtData[1]->WorkLocal[36] >= 32*) GOTO 0x0C31
     0x0B22 [0x3E] IF !(ExtData[1]->WorkLocal[38] bit ExtData[1]->WorkLocal[36]) GOTO 0x0C2B
     0x0B29 [0x03] ExtData[1]->WorkLocal[23] = 0*
     0x0B2E [0x02] IF !(ExtData[1]->WorkLocal[36] < 11*) GOTO 0x0B4F
     0x0B36 [0x02] IF !(ExtData[1]->WorkLocal[36] >= 18*) GOTO 0x0B4F
     0x0B3E [0x03] ExtData[1]->WorkLocal[23] = 1*
     0x0B43 [0x3E] IF !(Work_Zone[5] bit 0*) GOTO 0x0B4F
     0x0B4A [0x03] ExtData[1]->WorkLocal[23] = 0*
     0x0B4F [0x02] IF !(ExtData[1]->WorkLocal[36] < 18*) GOTO 0x0B70
     0x0B57 [0x02] IF !(ExtData[1]->WorkLocal[36] >= 25*) GOTO 0x0B70
     0x0B5F [0x03] ExtData[1]->WorkLocal[23] = 1*
     0x0B64 [0x3E] IF !(Work_Zone[5] bit 1*) GOTO 0x0B70
     0x0B6B [0x03] ExtData[1]->WorkLocal[23] = 0*
     0x0B70 [0x02] IF !(ExtData[1]->WorkLocal[36] < 25*) GOTO 0x0B91
     0x0B78 [0x02] IF !(ExtData[1]->WorkLocal[36] >= 27*) GOTO 0x0B91
     0x0B80 [0x03] ExtData[1]->WorkLocal[23] = 1*
     0x0B85 [0x3E] IF !(Work_Zone[5] bit 2*) GOTO 0x0B91
     0x0B8C [0x03] ExtData[1]->WorkLocal[23] = 0*
     0x0B91 [0x02] IF !(ExtData[1]->WorkLocal[36] < 27*) GOTO 0x0BB2
     0x0B99 [0x02] IF !(ExtData[1]->WorkLocal[36] >= 28*) GOTO 0x0BB2
     0x0BA1 [0x03] ExtData[1]->WorkLocal[23] = 1*
     0x0BA6 [0x3E] IF !(Work_Zone[5] bit 3*) GOTO 0x0BB2
     0x0BAD [0x03] ExtData[1]->WorkLocal[23] = 0*
     0x0BB2 [0x02] IF !(ExtData[1]->WorkLocal[36] < 28*) GOTO 0x0BD3
     0x0BBA [0x02] IF !(ExtData[1]->WorkLocal[36] >= 29*) GOTO 0x0BD3
     0x0BC2 [0x03] ExtData[1]->WorkLocal[23] = 1*
     0x0BC7 [0x3E] IF !(Work_Zone[5] bit 4*) GOTO 0x0BD3
     0x0BCE [0x03] ExtData[1]->WorkLocal[23] = 0*
     0x0BD3 [0x02] IF !(ExtData[1]->WorkLocal[36] < 29*) GOTO 0x0BF4
     0x0BDB [0x02] IF !(ExtData[1]->WorkLocal[36] >= 30*) GOTO 0x0BF4
     0x0BE3 [0x03] ExtData[1]->WorkLocal[23] = 1*
     0x0BE8 [0x3E] IF !(Work_Zone[5] bit 5*) GOTO 0x0BF4
     0x0BEF [0x03] ExtData[1]->WorkLocal[23] = 0*
     0x0BF4 [0x02] IF !(ExtData[1]->WorkLocal[36] < 30*) GOTO 0x0C0D
     0x0BFC [0x03] ExtData[1]->WorkLocal[23] = 1*
     0x0C01 [0x3E] IF !(Work_Zone[5] bit 6*) GOTO 0x0C0D
     0x0C08 [0x03] ExtData[1]->WorkLocal[23] = 0*
     0x0C0D [0x3E] IF !(Work_Zone[8] bit ExtData[1]->WorkLocal[36]) GOTO 0x0C19
     0x0C14 [0x03] ExtData[1]->WorkLocal[23] = 1*
     0x0C19 [0x02] IF !(ExtData[1]->WorkLocal[23] == 0*) GOTO 0x0C28
     0x0C21 [0x3C] SET_BIT_FLAG_CONDITIONAL(target_work_offset=ExtData[1]->WorkLocal[26], bit_index_work_offset=ExtData[1]->WorkLocal[34], condition_work_offset=1*)
     0x0C28 [0x0B] ExtData[1]->WorkLocal[34]++
     0x0C2B [0x0B] ExtData[1]->WorkLocal[36]++
     0x0C2E [0x01] GOTO 0x0B1A
     0x0C31 [0x03] ExtData[1]->WorkLocal[36] = 0*
     0x0C36 [0x03] ExtData[1]->WorkLocal[38] = 0*
     0x0C3B [0x02] IF !(ExtData[1]->WorkLocal[36] >= 32*) GOTO 0x0D5C
     0x0C43 [0x3E] IF !(ExtData[1]->WorkLocal[38] bit ExtData[1]->WorkLocal[36]) GOTO 0x0D56
     0x0C4A [0x03] ExtData[1]->WorkLocal[23] = 0*
     0x0C4F [0x03] ExtData[1]->WorkLocal[37] = ExtData[1]->WorkLocal[36]
     0x0C54 [0x07] ExtData[1]->WorkLocal[37] += 32*
     0x0C59 [0x02] IF !(ExtData[1]->WorkLocal[37] < 11*) GOTO 0x0C7A
     0x0C61 [0x02] IF !(ExtData[1]->WorkLocal[37] >= 18*) GOTO 0x0C7A
     0x0C69 [0x03] ExtData[1]->WorkLocal[23] = 1*
     0x0C6E [0x3E] IF !(Work_Zone[5] bit 0*) GOTO 0x0C7A
     0x0C75 [0x03] ExtData[1]->WorkLocal[23] = 0*
     0x0C7A [0x02] IF !(ExtData[1]->WorkLocal[37] < 18*) GOTO 0x0C9B
     0x0C82 [0x02] IF !(ExtData[1]->WorkLocal[37] >= 25*) GOTO 0x0C9B
     0x0C8A [0x03] ExtData[1]->WorkLocal[23] = 1*
     0x0C8F [0x3E] IF !(Work_Zone[5] bit 1*) GOTO 0x0C9B
     0x0C96 [0x03] ExtData[1]->WorkLocal[23] = 0*
     0x0C9B [0x02] IF !(ExtData[1]->WorkLocal[37] < 25*) GOTO 0x0CBC
     0x0CA3 [0x02] IF !(ExtData[1]->WorkLocal[37] >= 27*) GOTO 0x0CBC
     0x0CAB [0x03] ExtData[1]->WorkLocal[23] = 1*
     0x0CB0 [0x3E] IF !(Work_Zone[5] bit 2*) GOTO 0x0CBC
     0x0CB7 [0x03] ExtData[1]->WorkLocal[23] = 0*
     0x0CBC [0x02] IF !(ExtData[1]->WorkLocal[37] < 27*) GOTO 0x0CDD
     0x0CC4 [0x02] IF !(ExtData[1]->WorkLocal[37] >= 28*) GOTO 0x0CDD
     0x0CCC [0x03] ExtData[1]->WorkLocal[23] = 1*
     0x0CD1 [0x3E] IF !(Work_Zone[5] bit 3*) GOTO 0x0CDD
     0x0CD8 [0x03] ExtData[1]->WorkLocal[23] = 0*
     0x0CDD [0x02] IF !(ExtData[1]->WorkLocal[37] < 28*) GOTO 0x0CFE
     0x0CE5 [0x02] IF !(ExtData[1]->WorkLocal[37] >= 29*) GOTO 0x0CFE
     0x0CED [0x03] ExtData[1]->WorkLocal[23] = 1*
     0x0CF2 [0x3E] IF !(Work_Zone[5] bit 4*) GOTO 0x0CFE
