# Event 65535

## Metadata

| Field           | Value    |
|-----------------|----------|
| Event Index     | 40/138   |
| Offset          | 0x0401   |
| Data Size       | 35 bytes |
| Calculated Size | 35 bytes |
| Instructions    | 7        |

```
      00 01 02 03 04 05 06 07  08 09 0A 0B 0C 0D 0E 0F
      -- -- -- -- -- -- -- --  -- -- -- -- -- -- -- --
0400:    32 17 80 1F 00 17 80  42 80 21 80 1F 01 2C F8   2......B.!...,.
0410: 00 10 01 F8 00 10 01 63  6C 6F 73 1E C1 00 10 01  .......clos.....
0420: 1C 3A 80 00                                       .:..            
```

## Opcodes

```
  0: 0x0401 [0x32] ExtData[1]->MainSpeed = 13* * 0.1
  1: 0x0404 [0x1F] MOVE_ENTITY: EventEntity moves to X=0.013*, Z=-16.543*, Y=0.000*
  2: 0x040C [0x1F] MOVE_ENTITY: Update entity position (mode=1)
  3: 0x040E [0x2C] CREATE_SCHEDULER_TASK: Create scheduler "clos" with entities [Unnamed NPC (ID: 17826040/0x011000F8), Unnamed NPC (ID: 17826040/0x011000F8)]
  4: 0x041B [0x1E] EventEntity looks at Alianne (ID: 17825985/0x011000C1) and starts talking
  5: 0x0420 [0x1C] WAIT(30* ticks)
  6: 0x0423 [0x00] END_REQSTACK()
```
