# Event 65535

## Metadata

| Field           | Value    |
|-----------------|----------|
| Event Index     | 20/138   |
| Offset          | 0x0287   |
| Data Size       | 47 bytes |
| Calculated Size | 47 bytes |
| Instructions    | 7        |

```
      00 01 02 03 04 05 06 07  08 09 0A 0B 0C 0D 0E 0F
      -- -- -- -- -- -- -- --  -- -- -- -- -- -- -- --
0280:                      03  00 00 07 7F 1A ED 00 07         .........
0290: 01 00 04 80 66 01 00 F8  FF FF 7F F8 FF FF 7F 74  ....f..........t
02A0: 6C 6B 30 1C 12 80 66 01  00 F8 FF FF 7F F8 FF FF  lk0...f.........
02B0: 7F 74 6C 6B 31 00                                 .tlk1.          
```

## Opcodes

```
  0: 0x0287 [0x03] ExtData[1]->WorkLocal[0] = Entity->Race
  1: 0x028C [0x1A] CALL_SUBROUTINE(address=0x00ED)
  2: 0x028F [0x07] ExtData[1]->WorkLocal[1] += 9*
  3: 0x0294 [0x66] LOAD_EXT_SCHEDULER_MAIN(work_offset=0x0001, entity1=EventEntity, entity2=EventEntity, action="tlk0")
  4: 0x02A3 [0x1C] WAIT(60* ticks)
  5: 0x02A6 [0x66] LOAD_EXT_SCHEDULER_MAIN(work_offset=0x0001, entity1=EventEntity, entity2=EventEntity, action="tlk1")
  6: 0x02B5 [0x00] END_REQSTACK()
```
