# Event 37

## Metadata

| Field           | Value    |
|-----------------|----------|
| Event Index     | 4/6      |
| Offset          | 0x00F0   |
| Data Size       | 46 bytes |
| Calculated Size | 46 bytes |
| Instructions    | 10       |

```
      00 01 02 03 04 05 06 07  08 09 0A 0B 0C 0D 0E 0F
      -- -- -- -- -- -- -- --  -- -- -- -- -- -- -- --
00F0: 1A 5B 01 66 02 80 F8 FF  FF 7F F8 FF FF 7F 74 6C  .[.f..........tl
0100: 6B 31 1D 0F 80 23 1D 10  80 23 66 02 80 F8 FF FF  k1...#...#f.....
0110: 7F F8 FF FF 7F 74 65 6E  31 1C 05 80 21 00        .....ten1...!.  
```

## Opcodes

```
  0: 0x00F0 [0x1A] CALL_SUBROUTINE(address=0x015B)
  1: 0x00F3 [0x66] LOAD_EXT_SCHEDULER_MAIN: Load scheduler "tlk1" with entities [EventEntity, EventEntity], work=0*
  2: 0x0102 [0x1D] PRINT_EVENT_MESSAGE(message_id=10292*)
    → "Where's the storage room? Remember passin' by a false door on yer way to Norg? There's a 'idden door to the west of that one, but if ya don't have \u0001\u00056\u0002\u0000\u0000\u0000, ya may have some trouble.\u007F1\u0000\u0007"
  3: 0x0105 [0x23] WAIT_FOR_DIALOG_INTERACTION
  4: 0x0106 [0x1D] PRINT_EVENT_MESSAGE(message_id=10293*)
    → "Stay along the walls and ya should find a hidden passageway. Ya made it t'Norg, so findin' it should be no problem. Jus' watch out fer the monsters lurkin' down there.\u007F1\u0000\u0007"
  5: 0x0109 [0x23] WAIT_FOR_DIALOG_INTERACTION
  6: 0x010A [0x66] LOAD_EXT_SCHEDULER_MAIN: Load scheduler "ten1" with entities [EventEntity, EventEntity], work=0*
  7: 0x0119 [0x1C] WAIT(30* ticks)
  8: 0x011C [0x21] END_EVENT
  9: 0x011D [0x00] END_REQSTACK()
```
