# Event 38

## Metadata

| Field           | Value    |
|-----------------|----------|
| Event Index     | 5/6      |
| Offset          | 0x011E   |
| Data Size       | 52 bytes |
| Calculated Size | 52 bytes |
| Instructions    | 12       |

```
      00 01 02 03 04 05 06 07  08 09 0A 0B 0C 0D 0E 0F
      -- -- -- -- -- -- -- --  -- -- -- -- -- -- -- --
0110:                                            42 1A                B.
0120: 5B 01 1A 69 01 1D 11 80  23 1D 12 80 23 66 02 80  [..i....#...#f..
0130: F8 FF FF 7F F8 FF FF 7F  74 65 6E 30 1C 05 80 45  ........ten0...E
0140: 13 80 F0 FF FF 7F F0 FF  FF 7F 71 73 74 63 02 80  ..........qstc..
0150: 21 00                                             !.              
```

## Opcodes

```
  0: 0x011E [0x42] SET_CLI_EVENT_CANCEL_DATA()
  1: 0x011F [0x1A] CALL_SUBROUTINE(address=0x015B)
  2: 0x0122 [0x1A] CALL_SUBROUTINE(address=0x0169)
  3: 0x0125 [0x1D] PRINT_EVENT_MESSAGE(message_id=10294*)
    → "That's what I was lookin' fer! Now, when openin' these, ya gotta be careful of traps. Ya do this...then turn this...then wiggle this...then...\u007F1\u0000\u0007"
  4: 0x0128 [0x23] WAIT_FOR_DIALOG_INTERACTION
  5: 0x0129 [0x1D] PRINT_EVENT_MESSAGE(message_id=10295*)
    → "Arrrg! Its contents are still intact after all these years. Oh yeah, yer reward. Take this. It'll come in handy on yer landlubbin' adventures.\u007F1\u0000\u0007"
  6: 0x012C [0x23] WAIT_FOR_DIALOG_INTERACTION
  7: 0x012D [0x66] LOAD_EXT_SCHEDULER_MAIN(work_offset=0*, entity1=EventEntity, entity2=EventEntity, action="ten0")
  8: 0x013C [0x1C] WAIT(30* ticks)
  9: 0x013F [0x45] LOAD_SCHEDULED_TASK(work_offset1=201*, entity1=LocalPlayer, entity2=LocalPlayer, scheduler_id="qstc", work_offset2=0*)
 10: 0x0150 [0x21] END_EVENT
 11: 0x0151 [0x00] END_REQSTACK()
```
