# Event 319

## Metadata

| Field           | Value    |
|-----------------|----------|
| Event Index     | 5/12     |
| Offset          | 0x0208   |
| Data Size       | 32 bytes |
| Calculated Size | 32 bytes |
| Instructions    | 10       |

```
      00 01 02 03 04 05 06 07  08 09 0A 0B 0C 0D 0E 0F
      -- -- -- -- -- -- -- --  -- -- -- -- -- -- -- --
0200:                          1E F0 FF FF 7F 6F 70 66          .....opf
0210: 01 80 F8 FF FF 7F F8 FF  FF 7F 74 6C 6B 30 1D 27  ..........tlk0.'
0220: 80 23 1D 28 80 23 21 00                           .#.(.#!.        
```

## Opcodes

```
  0: 0x0208 [0x1E] EventEntity looks at LocalPlayer and starts talking
  1: 0x020D [0x6F] WAIT_FRAME_DELAY: Yield until WaitTime reaches zero
  2: 0x020E [0x70] WAIT_ENTITY_RENDER_FLAG: Wait while EventEntity->Render.Flags3 bit 2 is set (cancel turn if not)
  3: 0x020F [0x66] LOAD_EXT_SCHEDULER_MAIN: Load scheduler "tlk0" with entities [EventEntity, EventEntity], work=40*
  4: 0x021E [0x1D] PRINT_EVENT_MESSAGE(message_id=7897*)
    → "And tha\u0001`t's where you come in, soldier!\u0007I want you--yes, you--to clean this area up of all hostile-wostiles.\u007F1\u0000\u0007"
  5: 0x0221 [0x23] WAIT_FOR_DIALOG_INTERACTION
  6: 0x0222 [0x1D] PRINT_EVENT_MESSAGE(message_id=7898*)
    → "And there will be no slacking on the job!\u0007Yes, I'll need you to bring back 
\u0001 \u0001	)\u0002\u0001\u0000\u0000\u0002\u0000\u0000\u0000 as proof of your exploitarus.\u007F1\u0000\u0007"
  7: 0x0225 [0x23] WAIT_FOR_DIALOG_INTERACTION
  8: 0x0226 [0x21] END_EVENT
  9: 0x0227 [0x00] END_REQSTACK()
```
