# Event 65535

## Metadata

| Field           | Value    |
|-----------------|----------|
| Event Index     | 11/23    |
| Offset          | 0x00CC   |
| Data Size       | 66 bytes |
| Calculated Size | 66 bytes |
| Instructions    | 16       |

```
      00 01 02 03 04 05 06 07  08 09 0A 0B 0C 0D 0E 0F
      -- -- -- -- -- -- -- --  -- -- -- -- -- -- -- --
00C0:                                      32 11 80 1F              2...
00D0: 00 16 80 17 80 18 80 1F  01 1C 22 80 1F 00 19 80  ..........".....
00E0: 1A 80 1B 80 1F 01 1C 22  80 1F 00 1C 80 1D 80 1E  ......."........
00F0: 80 1F 01 1C 22 80 1F 00  1F 80 20 80 21 80 1F 01  ...."..... .!...
0100: 1C 22 80 1F 00 12 80 13  80 14 80 1F 01 00        ."............  
```

## Opcodes

```
  0: 0x00CC [0x32] ExtData[1]->MainSpeed = 19* * 0.1
  1: 0x00CF [0x1F] MOVE_ENTITY: EventEntity moves to X=-601.910*, Z=587.743*, Y=0.274*
  2: 0x00D7 [0x1F] MOVE_ENTITY: Update entity position (mode=1)
  3: 0x00D9 [0x1C] WAIT(30* ticks)
  4: 0x00DC [0x1F] MOVE_ENTITY: EventEntity moves to X=-600.199*, Z=588.994*, Y=0.347*
  5: 0x00E4 [0x1F] MOVE_ENTITY: Update entity position (mode=1)
  6: 0x00E6 [0x1C] WAIT(30* ticks)
  7: 0x00E9 [0x1F] MOVE_ENTITY: EventEntity moves to X=-599.211*, Z=586.089*, Y=0.586*
  8: 0x00F1 [0x1F] MOVE_ENTITY: Update entity position (mode=1)
  9: 0x00F3 [0x1C] WAIT(30* ticks)
 10: 0x00F6 [0x1F] MOVE_ENTITY: EventEntity moves to X=-599.391*, Z=583.375*, Y=0.830*
 11: 0x00FE [0x1F] MOVE_ENTITY: Update entity position (mode=1)
 12: 0x0100 [0x1C] WAIT(30* ticks)
 13: 0x0103 [0x1F] MOVE_ENTITY: EventEntity moves to X=-600.128*, Z=585.578*, Y=0.628*
 14: 0x010B [0x1F] MOVE_ENTITY: Update entity position (mode=1)
 15: 0x010D [0x00] END_REQSTACK()
```
