# Event 877

## Metadata

| Field           | Value    |
|-----------------|----------|
| Event Index     | 3/23     |
| Offset          | 0x0037   |
| Data Size       | 31 bytes |
| Calculated Size | 31 bytes |
| Instructions    | 11       |

```
      00 01 02 03 04 05 06 07  08 09 0A 0B 0C 0D 0E 0F
      -- -- -- -- -- -- -- --  -- -- -- -- -- -- -- --
0030:                      1E  F0 FF FF 7F 4A 01 11 0F         .....J...
0040: 01 F0 FF FF 7F 6F 70 1D  00 80 23 03 02 10 01 80  .....op...#.....
0050: 1D 02 80 23 21 00                                 ...#!.          
```

## Opcodes

```
  0: 0x0037 [0x1E] EventEntity looks at LocalPlayer and starts talking
  1: 0x003C [0x4A] Yonolala (ID: 17764609/0x010F1101) looks at LocalPlayer
  2: 0x0045 [0x6F] WAIT_FRAME_DELAY: Yield until WaitTime reaches zero
  3: 0x0046 [0x70] WAIT_ENTITY_RENDER_FLAG: Wait while EventEntity->Render.Flags3 bit 2 is set (cancel turn if not)
  4: 0x0047 [0x1D] PRINT_EVENT_MESSAGE(message_id=14497*)
    → "Yes, a vision has descended-wended upon me...\u0007I can see into the very depths of your heart.\u007F1\u0000\u0007"
  5: 0x004A [0x23] WAIT_FOR_DIALOG_INTERACTION
  6: 0x004B [0x03] Work_Zone[2] = 10*
  7: 0x0050 [0x1D] PRINT_EVENT_MESSAGE(message_id=14498*)
    → "I sense a great emptiness...\u0007Perhaps because you have not completarued at least 
\u0000 Records of Eminence objective\u007F\u0012\u0000[/s].\u007F1\u0000\u0007"
  8: 0x0053 [0x23] WAIT_FOR_DIALOG_INTERACTION
  9: 0x0054 [0x21] END_EVENT
 10: 0x0055 [0x00] END_REQSTACK()
```
