# Event 7

## Metadata

| Field           | Value    |
|-----------------|----------|
| Event Index     | 4/10     |
| Offset          | 0x0099   |
| Data Size       | 41 bytes |
| Calculated Size | 41 bytes |
| Instructions    | 9        |

```
      00 01 02 03 04 05 06 07  08 09 0A 0B 0C 0D 0E 0F
      -- -- -- -- -- -- -- --  -- -- -- -- -- -- -- --
0090:                             1A 52 01 1D 0A 80 23           .R....#
00A0: 1D 09 80 23 5B 02 80 F8  FF FF 7F F8 FF FF 7F 69  ...#[..........i
00B0: 6E 6F 30 53 F8 FF FF 7F  F8 FF FF 7F 69 6E 6F 30  no0S........ino0
00C0: 21 00                                             !.              
```

## Opcodes

```
  0: 0x0099 [0x1A] CALL_SUBROUTINE(address=0x0152)
  1: 0x009C [0x1D] PRINT_EVENT_MESSAGE(message_id=9996*)
    → "The tablet I have was found in the Quicksand Caves that lie beneath the Altepa Desert. The \u0001\u00053\u0002\u0000\u0000\u0000 will most likely be among other rubble and debris.\u007F1\u0000\u0007"
  2: 0x009F [0x23] WAIT_FOR_DIALOG_INTERACTION
  3: 0x00A0 [0x1D] PRINT_EVENT_MESSAGE(message_id=9995*)
    → "I humbly beg this favor of you.\u007F1\u0000\u0007"
  4: 0x00A3 [0x23] WAIT_FOR_DIALOG_INTERACTION
  5: 0x00A4 [0x5B] LOAD_EXT_SCHEDULER: Load scheduler "ino0" with entities [EventEntity, EventEntity], work=20*
  6: 0x00B3 [0x53] WAIT_SCHEDULER_TASK: Wait for scheduler "ino0" with entities [EventEntity, EventEntity]
  7: 0x00C0 [0x21] END_EVENT
  8: 0x00C1 [0x00] END_REQSTACK()
```
