# Event 5087

## Metadata

| Field           | Value    |
|-----------------|----------|
| Event Index     | 8/10     |
| Offset          | 0x8180   |
| Data Size       | 38 bytes |
| Calculated Size | 38 bytes |
| Instructions    | 10       |

```
      00 01 02 03 04 05 06 07  08 09 0A 0B 0C 0D 0E 0F
      -- -- -- -- -- -- -- --  -- -- -- -- -- -- -- --
8180: 42 4A 8D 20 03 01 F0 FF  FF 7F 03 02 10 40 80 03  BJ. .........@..
8190: 03 10 41 80 2B 8D 20 03  01 82 82 23 2B 8D 20 03  ..A.+. ....#+. .
81A0: 01 83 82 23 21 00                                 ...#!.          
```

## Opcodes

```
  0: 0x8180 [0x42] SET_CLI_EVENT_CANCEL_DATA()
  1: 0x8181 [0x4A] Abquhbah (ID: 16982157/0x0103208D) looks at LocalPlayer
  2: 0x818A [0x03] Work_Zone[2] = 2187*
  3: 0x818F [0x03] Work_Zone[3] = 5*
  4: 0x8194 [0x2B] Abquhbah (ID: 16982157/0x0103208D) [13434*]:
    → "The fees for the final term come to 
\u0001 \u0001	)\u0002\u0001\u0000\u0000\u0002\u0000\u0000\u0000!\u007F1\u0000\u0007"
  5: 0x819B [0x23] WAIT_FOR_DIALOG_INTERACTION
  6: 0x819C [0x2B] Abquhbah (ID: 16982157/0x0103208D) [13435*]:
    → "Please hand me the entire amount in one payment--makes the books easier to balance!\u007F1\u0000\u0007"
  7: 0x81A3 [0x23] WAIT_FOR_DIALOG_INTERACTION
  8: 0x81A4 [0x21] END_EVENT
  9: 0x81A5 [0x00] END_REQSTACK()
```
