# Event 298

## Metadata

| Field           | Value    |
|-----------------|----------|
| Event Index     | 14/14    |
| Offset          | 0x0153   |
| Data Size       | 47 bytes |
| Calculated Size | 47 bytes |
| Instructions    | 11       |

```
      00 01 02 03 04 05 06 07  08 09 0A 0B 0C 0D 0E 0F
      -- -- -- -- -- -- -- --  -- -- -- -- -- -- -- --
0150:          1E F0 FF FF 7F  6F 70 66 17 80 F8 FF FF     .....opf.....
0160: 7F F8 FF FF 7F 74 68 6B  31 1D 18 80 23 66 17 80  .....thk1...#f..
0170: F8 FF FF 7F F8 FF FF 7F  74 68 6B 32 1D 19 80 23  ........thk2...#
0180: 21 00                                             !.              
```

## Opcodes

```
  0: 0x0153 [0x1E] EventEntity looks at LocalPlayer and starts talking
  1: 0x0158 [0x6F] WAIT_FRAME_DELAY: Yield until WaitTime reaches zero
  2: 0x0159 [0x70] WAIT_ENTITY_RENDER_FLAG: Wait while EventEntity->Render.Flags3 bit 2 is set (cancel turn if not)
  3: 0x015A [0x66] LOAD_EXT_SCHEDULER_MAIN: Load scheduler "thk1" with entities [EventEntity, EventEntity], work=50*
  4: 0x0169 [0x1D] PRINT_EVENT_MESSAGE(message_id=11225*)
    → "Ahgdeen looked prrretty down, but he seemed somehow...stronger than before. Or maybe I'm just imagining things.\u007F1\u0000\u0007"
  5: 0x016C [0x23] WAIT_FOR_DIALOG_INTERACTION
  6: 0x016D [0x66] LOAD_EXT_SCHEDULER_MAIN: Load scheduler "thk2" with entities [EventEntity, EventEntity], work=50*
  7: 0x017C [0x1D] PRINT_EVENT_MESSAGE(message_id=11226*)
    → "In any case, it's a wonder he made it back in one piece after being trrricked by a Lamia. That's certainly cause for celebration!\u007F1\u0000\u0007"
  8: 0x017F [0x23] WAIT_FOR_DIALOG_INTERACTION
  9: 0x0180 [0x21] END_EVENT
 10: 0x0181 [0x00] END_REQSTACK()
```
