# Event 65535

## Metadata

| Field           | Value    |
|-----------------|----------|
| Event Index     | 8/14     |
| Offset          | 0x006B   |
| Data Size       | 53 bytes |
| Calculated Size | 53 bytes |
| Instructions    | 9        |

```
      00 01 02 03 04 05 06 07  08 09 0A 0B 0C 0D 0E 0F
      -- -- -- -- -- -- -- --  -- -- -- -- -- -- -- --
0060:                                   79 00 31 50 03             y.1P.
0070: 01 74 50 03 01 1C 06 80  79 00 31 50 03 01 73 50  .tP.....y.1P..sP
0080: 03 01 1C 06 80 79 00 31  50 03 01 74 50 03 01 1C  .....y.1P..tP...
0090: 06 80 79 00 31 50 03 01  73 50 03 01 1C 06 80 00  ..y.1P..sP......
```

## Opcodes

```
  0: 0x006B [0x79] Fhe Maksojha (ID: 16994353/0x01035031) looks at Ahgdeen (ID: 16994420/0x01035074) (Basic look)
  1: 0x0075 [0x1C] WAIT(60* ticks)
  2: 0x0078 [0x79] Fhe Maksojha (ID: 16994353/0x01035031) looks at Wadayra (ID: 16994419/0x01035073) (Basic look)
  3: 0x0082 [0x1C] WAIT(60* ticks)
  4: 0x0085 [0x79] Fhe Maksojha (ID: 16994353/0x01035031) looks at Ahgdeen (ID: 16994420/0x01035074) (Basic look)
  5: 0x008F [0x1C] WAIT(60* ticks)
  6: 0x0092 [0x79] Fhe Maksojha (ID: 16994353/0x01035031) looks at Wadayra (ID: 16994419/0x01035073) (Basic look)
  7: 0x009C [0x1C] WAIT(60* ticks)
  8: 0x009F [0x00] END_REQSTACK()
```
