# Event 65535

## Metadata

| Field           | Value    |
|-----------------|----------|
| Event Index     | 11/14    |
| Offset          | 0x0060   |
| Data Size       | 34 bytes |
| Calculated Size | 34 bytes |
| Instructions    | 8        |

```
      00 01 02 03 04 05 06 07  08 09 0A 0B 0C 0D 0E 0F
      -- -- -- -- -- -- -- --  -- -- -- -- -- -- -- --
0060: 1C 04 80 03 2E 10 05 80  32 06 80 1F 00 07 80 08  ........2.......
0070: 80 09 80 1F 01 03 27 10  05 80 4B C1 40 0F 01 0A  ......'...K.@...
0080: 80 00                                             ..              
```

## Opcodes

```
  0: 0x0060 [0x1C] WAIT(900* ticks)
  1: 0x0063 [0x03] Work_Zone[46] = 1*
  2: 0x0068 [0x32] ExtData[1]->MainSpeed = 40* * 0.1
  3: 0x006B [0x1F] MOVE_ENTITY: EventEntity moves to X=-59.521*, Z=101.313*, Y=0.000*
  4: 0x0073 [0x1F] MOVE_ENTITY: Update entity position (mode=1)
  5: 0x0075 [0x03] Work_Zone[39] = 1*
  6: 0x007A [0x4B] UPDATE_ENTITY_YAW(entity=Alfrieda (ID: 17776833/0x010F40C1), yaw=3.5°*)
  7: 0x0081 [0x00] END_REQSTACK()
```
