# 17129740

## Common Data

| Field            | Value                     |
|------------------|---------------------------|
| Zone             | Everbloom Hollow (ID: 86) |
| Block Size       | 76 bytes                  |
| Total Events     | 2                         |
| References Count | 4                         |

## List of Events

| Event ID              | Entrypoint   |   Size |   Instructions |
|-----------------------|--------------|--------|----------------|
| [65535](#event-65535) | 0x0000       |      1 |              1 |
| [23](#event-23)       | 0x0001       |     32 |              9 |

## DAT References (imed_data)

|   Index | Hex Value   |   Dec Value |
|---------|-------------|-------------|
|       0 | 0x0AC8      |        2760 |
|       1 | 0x1CE5      |        7397 |
|       2 | 0x0000      |           0 |
|       3 | 0x0001      |           1 |

## String References

- **7397**: Use $0? [Yes./No.]

## Events

### Event 65535

#### Metadata

| Field        | Value   |
|--------------|---------|
| Entrypoint   | 0x0000  |
| Data Size    | 1 bytes |
| Instructions | 1       |

```
      00 01 02 03 04 05 06 07  08 09 0A 0B 0C 0D 0E 0F
      -- -- -- -- -- -- -- --  -- -- -- -- -- -- -- --
0000: 00                                                .               
```

#### Opcodes

```
  0: 0x0000 [0x00] END_REQSTACK()
```

### Event 23

#### Metadata

| Field        | Value    |
|--------------|----------|
| Entrypoint   | 0x0001   |
| Data Size    | 32 bytes |
| Instructions | 9        |

```
      00 01 02 03 04 05 06 07  08 09 0A 0B 0C 0D 0E 0F
      -- -- -- -- -- -- -- --  -- -- -- -- -- -- -- --
0000:    42 03 02 10 00 80 24  01 80 02 80 02 80 25 02   B.....$......%.
0010: 00 10 02 80 00 1F 00 03  01 10 03 80 01 1F 00 21  ...............!
0020: 00                                                .               
```

#### Opcodes

```
  0: 0x0001 [0x42] SET_CLI_EVENT_CANCEL_DATA()
  1: 0x0002 [0x03] Work_Zone[2] = 2760*
  2: 0x0007 [0x24] CREATE_DIALOG(message_id=7397*, default_option=0*, option_flags=0*)
    → "Use $0? [Yes./No.]"
  3: 0x000E [0x25] WAIT_DIALOG_SELECT()
  4: 0x000F [0x02] IF !(Work_Zone[0] == 0*) GOTO 0x001F
  5: 0x0017 [0x03] Work_Zone[1] = 1*
  6: 0x001C [0x01] GOTO 0x001F

SUBROUTINE_001F:
  7: 0x001F [0x21] END_EVENT
  8: 0x0020 [0x00] END_REQSTACK()
```
