# 17129749 - Switch

## Common Data

| Field            | Value                     |
|------------------|---------------------------|
| Zone             | Everbloom Hollow (ID: 86) |
| Block Size       | 80 bytes                  |
| Total Events     | 2                         |
| References Count | 4                         |

## List of Events

| Event ID              | Entrypoint   |   Size |   Instructions |
|-----------------------|--------------|--------|----------------|
| [65535](#event-65535) | 0x0000       |      1 |              1 |
| [35](#event-35)       | 0x0001       |     37 |             12 |

## DAT References (imed_data)

|   Index | Hex Value   |   Dec Value |
|---------|-------------|-------------|
|       0 | 0x0000      |           0 |
|       1 | 0x1CEA      |        7402 |
|       2 | 0x1CEB      |        7403 |
|       3 | 0x0001      |           1 |

## String References

- **7402**: A [red/green/blue] fuse extends from what appears to be an ignition switch. Will you press the switch?
- **7403**: Press the switch? [Yes./No.]

## Events

### Event 65535

#### Metadata

| Field        | Value   |
|--------------|---------|
| Entrypoint   | 0x0000  |
| Data Size    | 1 bytes |
| Instructions | 1       |

```
      00 01 02 03 04 05 06 07  08 09 0A 0B 0C 0D 0E 0F
      -- -- -- -- -- -- -- --  -- -- -- -- -- -- -- --
0000: 00                                                .               
```

#### Opcodes

```
  0: 0x0000 [0x00] END_REQSTACK()
```

### Event 35

#### Metadata

| Field        | Value    |
|--------------|----------|
| Entrypoint   | 0x0001   |
| Data Size    | 37 bytes |
| Instructions | 12       |

```
      00 01 02 03 04 05 06 07  08 09 0A 0B 0C 0D 0E 0F
      -- -- -- -- -- -- -- --  -- -- -- -- -- -- -- --
0000:    42 03 02 10 00 80 48  01 80 23 23 24 02 80 00   B.....H..##$...
0010: 80 00 80 25 02 00 10 00  80 00 24 00 03 01 10 03  ...%......$.....
0020: 80 01 24 00 21 00                                 ..$.!.          
```

#### Opcodes

```
  0: 0x0001 [0x42] SET_CLI_EVENT_CANCEL_DATA()
  1: 0x0002 [0x03] Work_Zone[2] = 0*
  2: 0x0007 [0x48] [System] [7402*]:
    → "A [red/green/blue] fuse extends from what appears to be an ignition switch. Will you press the switch?"
  3: 0x000A [0x23] WAIT_FOR_DIALOG_INTERACTION
  4: 0x000B [0x23] WAIT_FOR_DIALOG_INTERACTION
  5: 0x000C [0x24] CREATE_DIALOG(message_id=7403*, default_option=0*, option_flags=0*)
    → "Press the switch? [Yes./No.]"
  6: 0x0013 [0x25] WAIT_DIALOG_SELECT()
  7: 0x0014 [0x02] IF !(Work_Zone[0] == 0*) GOTO 0x0024
  8: 0x001C [0x03] Work_Zone[1] = 1*
  9: 0x0021 [0x01] GOTO 0x0024

SUBROUTINE_0024:
 10: 0x0024 [0x21] END_EVENT
 11: 0x0025 [0x00] END_REQSTACK()
```
