# 17129769

## Common Data

| Field            | Value                     |
|------------------|---------------------------|
| Zone             | Everbloom Hollow (ID: 86) |
| Block Size       | 68 bytes                  |
| Total Events     | 2                         |
| References Count | 3                         |

## List of Events

| Event ID              | Entrypoint   |   Size |   Instructions |
|-----------------------|--------------|--------|----------------|
| [65535](#event-65535) | 0x0000       |      1 |              1 |
| [38](#event-38)       | 0x0001       |     29 |              8 |

## DAT References (imed_data)

|   Index | Hex Value   |   Dec Value |
|---------|-------------|-------------|
|       0 | 0x1CA1      |        7329 |
|       1 | 0x0001      |           1 |
|       2 | 0x0000      |           0 |

## String References

- **7329**: Leave the area? [Yes./No.]

## Events

### Event 65535

#### Metadata

| Field        | Value   |
|--------------|---------|
| Entrypoint   | 0x0000  |
| Data Size    | 1 bytes |
| Instructions | 1       |

```
      00 01 02 03 04 05 06 07  08 09 0A 0B 0C 0D 0E 0F
      -- -- -- -- -- -- -- --  -- -- -- -- -- -- -- --
0000: 00                                                .               
```

#### Opcodes

```
  0: 0x0000 [0x00] END_REQSTACK()
```

### Event 38

#### Metadata

| Field        | Value    |
|--------------|----------|
| Entrypoint   | 0x0001   |
| Data Size    | 29 bytes |
| Instructions | 8        |

```
      00 01 02 03 04 05 06 07  08 09 0A 0B 0C 0D 0E 0F
      -- -- -- -- -- -- -- --  -- -- -- -- -- -- -- --
0000:    24 00 80 01 80 02 80  25 02 00 10 02 80 00 19   $......%.......
0010: 00 03 01 10 01 80 01 1C  00 06 01 10 21 00        ............!.  
```

#### Opcodes

```
  0: 0x0001 [0x24] CREATE_DIALOG(message_id=7329*, default_option=1*, option_flags=0*)
    → "Leave the area? [Yes./No.]"
  1: 0x0008 [0x25] WAIT_DIALOG_SELECT()
  2: 0x0009 [0x02] IF !(Work_Zone[0] == 0*) GOTO 0x0019
  3: 0x0011 [0x03] Work_Zone[1] = 1*
  4: 0x0016 [0x01] GOTO 0x001C
  5: 0x0019 [0x06] Work_Zone[1] = 0

SUBROUTINE_001C:
  6: 0x001C [0x21] END_EVENT
  7: 0x001D [0x00] END_REQSTACK()
```
