# 17129722

## Common Data

| Field            | Value                     |
|------------------|---------------------------|
| Zone             | Everbloom Hollow (ID: 86) |
| Block Size       | 88 bytes                  |
| Total Events     | 2                         |
| References Count | 5                         |

## List of Events

| Event ID              | Entrypoint   |   Size |   Instructions |
|-----------------------|--------------|--------|----------------|
| [65535](#event-65535) | 0x0000       |      1 |              1 |
| [32](#event-32)       | 0x0001       |     42 |             13 |

## DAT References (imed_data)

|   Index | Hex Value   |   Dec Value |
|---------|-------------|-------------|
|       0 | 0x0000      |           0 |
|       1 | 0x03B3      |         947 |
|       2 | 0x1CE6      |        7398 |
|       3 | 0x1CE7      |        7399 |
|       4 | 0x0001      |           1 |

## String References

- **7398**: A [red/green/blue] fuse extends from here. Attach $1 to it?
- **7399**: Attach to the fuse? [Yes./No.]

## Events

### Event 65535

#### Metadata

| Field        | Value   |
|--------------|---------|
| Entrypoint   | 0x0000  |
| Data Size    | 1 bytes |
| Instructions | 1       |

```
      00 01 02 03 04 05 06 07  08 09 0A 0B 0C 0D 0E 0F
      -- -- -- -- -- -- -- --  -- -- -- -- -- -- -- --
0000: 00                                                .               
```

#### Opcodes

```
  0: 0x0000 [0x00] END_REQSTACK()
```

### Event 32

#### Metadata

| Field        | Value    |
|--------------|----------|
| Entrypoint   | 0x0001   |
| Data Size    | 42 bytes |
| Instructions | 13       |

```
      00 01 02 03 04 05 06 07  08 09 0A 0B 0C 0D 0E 0F
      -- -- -- -- -- -- -- --  -- -- -- -- -- -- -- --
0000:    42 03 02 10 00 80 03  03 10 01 80 48 02 80 23   B..........H..#
0010: 23 24 03 80 00 80 00 80  25 02 00 10 00 80 00 29  #$......%......)
0020: 00 03 01 10 04 80 01 29  00 21 00                 .......).!.     
```

#### Opcodes

```
  0: 0x0001 [0x42] SET_CLI_EVENT_CANCEL_DATA()
  1: 0x0002 [0x03] Work_Zone[2] = 0*
  2: 0x0007 [0x03] Work_Zone[3] = 947*
  3: 0x000C [0x48] [System] [7398*]:
    → "A [red/green/blue] fuse extends from here. Attach $1 to it?"
  4: 0x000F [0x23] WAIT_FOR_DIALOG_INTERACTION
  5: 0x0010 [0x23] WAIT_FOR_DIALOG_INTERACTION
  6: 0x0011 [0x24] CREATE_DIALOG(message_id=7399*, default_option=0*, option_flags=0*)
    → "Attach to the fuse? [Yes./No.]"
  7: 0x0018 [0x25] WAIT_DIALOG_SELECT()
  8: 0x0019 [0x02] IF !(Work_Zone[0] == 0*) GOTO 0x0029
  9: 0x0021 [0x03] Work_Zone[1] = 1*
 10: 0x0026 [0x01] GOTO 0x0029

SUBROUTINE_0029:
 11: 0x0029 [0x21] END_EVENT
 12: 0x002A [0x00] END_REQSTACK()
```
