# Event 52

## Metadata

| Field           | Value    |
|-----------------|----------|
| Event Index     | 19/30    |
| Offset          | 0x016C   |
| Data Size       | 56 bytes |
| Calculated Size | 56 bytes |
| Instructions    | 14       |

```
      00 01 02 03 04 05 06 07  08 09 0A 0B 0C 0D 0E 0F
      -- -- -- -- -- -- -- --  -- -- -- -- -- -- -- --
0160:                                      42 20 01 1E              B ..
0170: F0 FF FF 7F 6F 70 29 08  25 F0 0E 01 01 29 0B 25  ....op).%....).%
0180: F0 0E 01 13 29 08 25 F0  0E 01 07 45 1A 80 F0 FF  ....).%....E....
0190: FF 7F F0 FF FF 7F 71 73  74 63 0E 80 48 1B 80 2E  ......qstc..H...
01A0: 20 00 21 00                                        .!.            
```

## Opcodes

```
  0: 0x016C [0x42] SET_CLI_EVENT_CANCEL_DATA()
  1: 0x016D [0x20] SET_CLI_EVENT_UC_FLAG: Lock player control
  2: 0x016F [0x1E] EventEntity looks at LocalPlayer and starts talking
  3: 0x0174 [0x6F] WAIT_FRAME_DELAY: Yield until WaitTime reaches zero
  4: 0x0175 [0x70] WAIT_ENTITY_RENDER_FLAG: Wait while EventEntity->Render.Flags3 bit 2 is set (cancel turn if not)
  5: 0x0176 [0x29] REQ_SET_WAIT(priority=0x08, entity_id=Ambrosius (ID: 17756197/0x010EF025), tag_num=0x01)
  6: 0x017D [0x29] REQ_SET_WAIT(priority=0x0B, entity_id=Ambrosius (ID: 17756197/0x010EF025), tag_num=0x13)
  7: 0x0184 [0x29] REQ_SET_WAIT(priority=0x08, entity_id=Ambrosius (ID: 17756197/0x010EF025), tag_num=0x07)
  8: 0x018B [0x45] LOAD_SCHEDULED_TASK: Load scheduler "qstc" with entities [LocalPlayer, LocalPlayer], work=[201*, 0*]
  9: 0x019C [0x48] [System] [6552*]:
    → "Obtained 
\u0000 gil.\u0000\u0007"
 10: 0x019F [0x2E] SET_CLI_EVENT_CANCEL_FLAGS()
 11: 0x01A0 [0x20] SET_CLI_EVENT_UC_FLAG: Unlock player control
 12: 0x01A2 [0x21] END_EVENT
 13: 0x01A3 [0x00] END_REQSTACK()
```
