# Event 65535

## Metadata

| Field           | Value    |
|-----------------|----------|
| Event Index     | 5/11     |
| Offset          | 0x0037   |
| Data Size       | 64 bytes |
| Calculated Size | 64 bytes |
| Instructions    | 7        |

```
      00 01 02 03 04 05 06 07  08 09 0A 0B 0C 0D 0E 0F
      -- -- -- -- -- -- -- --  -- -- -- -- -- -- -- --
0030:                      81  00 1E 12 02 01 81 00 1F         .........
0040: 12 02 01 81 00 20 12 02  01 5B 03 80 1E 12 02 01  ..... ...[......
0050: 1E 12 02 01 63 79 30 31  5B 03 80 1F 12 02 01 1F  ....cy01[.......
0060: 12 02 01 63 79 30 31 5B  04 80 20 12 02 01 20 12  ...cy01[.. ... .
0070: 02 01 63 79 30 31 00                              ..cy01.         
```

## Opcodes

```
  0: 0x0037 [0x81] SET_ENTITY_BLINKING(blink_flag=0x00, entity=Makki-Chebukki (ID: 16912926/0x0102121E))
  1: 0x003D [0x81] SET_ENTITY_BLINKING(blink_flag=0x00, entity=Kukki-Chebukki (ID: 16912927/0x0102121F))
  2: 0x0043 [0x81] SET_ENTITY_BLINKING(blink_flag=0x00, entity=Cherukiki (ID: 16912928/0x01021220))
  3: 0x0049 [0x5B] LOAD_EXT_SCHEDULER: Load scheduler "cy01" with entities [Makki-Chebukki (ID: 16912926/0x0102121E), Makki-Chebukki (ID: 16912926/0x0102121E)], work=444*
  4: 0x0058 [0x5B] LOAD_EXT_SCHEDULER: Load scheduler "cy01" with entities [Kukki-Chebukki (ID: 16912927/0x0102121F), Kukki-Chebukki (ID: 16912927/0x0102121F)], work=444*
  5: 0x0067 [0x5B] LOAD_EXT_SCHEDULER: Load scheduler "cy01" with entities [Cherukiki (ID: 16912928/0x01021220), Cherukiki (ID: 16912928/0x01021220)], work=434*
  6: 0x0076 [0x00] END_REQSTACK()
```
