# Event 65535

## Metadata

| Field           | Value    |
|-----------------|----------|
| Event Index     | 6/11     |
| Offset          | 0x0077   |
| Data Size       | 40 bytes |
| Calculated Size | 40 bytes |
| Instructions    | 7        |

```
      00 01 02 03 04 05 06 07  08 09 0A 0B 0C 0D 0E 0F
      -- -- -- -- -- -- -- --  -- -- -- -- -- -- -- --
0070:                      27  10 1E 12 02 01 0D 27 10         '......'.
0080: 1F 12 02 01 0D 27 10 20  12 02 01 0D 2A 10 1E 12  .....'. ....*...
0090: 02 01 2A 10 1F 12 02 01  2A 10 20 12 02 01 00     ..*.....*. .... 
```

## Opcodes

```
  0: 0x0077 [0x27] REQ_SET(priority=0x10, entity_id=Makki-Chebukki (ID: 16912926/0x0102121E), tag_num=0x0D)
  1: 0x007E [0x27] REQ_SET(priority=0x10, entity_id=Kukki-Chebukki (ID: 16912927/0x0102121F), tag_num=0x0D)
  2: 0x0085 [0x27] REQ_SET(priority=0x10, entity_id=Cherukiki (ID: 16912928/0x01021220), tag_num=0x0D)
  3: 0x008C [0x2A] GET_REQ_LEVEL(level=16, entity_id=Makki-Chebukki (ID: 16912926/0x0102121E))
  4: 0x0092 [0x2A] GET_REQ_LEVEL(level=16, entity_id=Kukki-Chebukki (ID: 16912927/0x0102121F))
  5: 0x0098 [0x2A] GET_REQ_LEVEL(level=16, entity_id=Cherukiki (ID: 16912928/0x01021220))
  6: 0x009E [0x00] END_REQSTACK()
```
