# 17772657 - Pursuivant

## Common Data

| Field            | Value                     |
|------------------|---------------------------|
| Zone             | Ru'Lude Gardens (ID: 243) |
| Block Size       | 6360 bytes                |
| Total Events     | 2                         |
| References Count | 286                       |

## List of Events

| Event ID              | Entrypoint   |   Size |   Instructions |
|-----------------------|--------------|--------|----------------|
| [65535](#event-65535) | 0x0000       |      1 |              1 |
| [69](#event-69)       | 0x0001       |   5190 |           1216 |

## DAT References (imed_data)

|   Index | Hex Value   |   Dec Value |
|---------|-------------|-------------|
|       0 | 0x0000      |           0 |
|       1 | 0x0001      |           1 |
|       2 | 0x0002      |           2 |
|       3 | 0x0005      |           5 |
|       4 | 0x0006      |           6 |
|       5 | 0x0007      |           7 |
|       6 | 0x0008      |           8 |
|       7 | 0x0009      |           9 |
|       8 | 0x000A      |          10 |
|       9 | 0x000B      |          11 |
|      10 | 0x000C      |          12 |
|      11 | 0x000D      |          13 |
|      12 | 0x000E      |          14 |
|      13 | 0x2D59      |       11609 |
|      14 | 0x0003      |           3 |
|      15 | 0x2D5B      |       11611 |
|      16 | 0x0240      |         576 |
|      17 | 0x2D5A      |       11610 |
|      18 | 0x2D5C      |       11612 |
|      19 | 0x1C20      |        7200 |
|      20 | 0x01F4      |         500 |
|      21 | 0x02CA      |         714 |
|      22 | 0x02CD      |         717 |
|      23 | 0x02F6      |         758 |
|      24 | 0x02F7      |         759 |
|      25 | 0x2D5E      |       11614 |
|      26 | 0x000F      |          15 |
|      27 | 0x0242      |         578 |
|      28 | 0x0064      |         100 |
|      29 | 0x2D5F      |       11615 |
|      30 | 0x2D60      |       11616 |
|      31 | 0x001E      |          30 |
|      32 | 0x0028      |          40 |
|      33 | 0x001F      |          31 |
|      34 | 0x0032      |          50 |
|      35 | 0x0029      |          41 |
|      36 | 0x003C      |          60 |
|      37 | 0x0033      |          51 |
|      38 | 0x003D      |          61 |
|      39 | 0x2D62      |       11618 |
|      40 | 0x2D63      |       11619 |
|      41 | 0x0010      |          16 |
|      42 | 0x007A      |         122 |
|      43 | 0x0104      |         260 |
|      44 | 0x0080      |         128 |
|      45 | 0x2D64      |       11620 |
|      46 | 0x40000000  |  1073741824 |
|      47 | 0x2D65      |       11621 |
|      48 | 0x2D61      |       11617 |
|      49 | 0x0004      |           4 |
|      50 | 0x2D6C      |       11628 |
|      51 | 0x2D6D      |       11629 |
|      52 | 0x2D6E      |       11630 |
|      53 | 0x2D6F      |       11631 |
|      54 | 0x2D71      |       11633 |
|      55 | 0x2D72      |       11634 |
|      56 | 0x2D73      |       11635 |
|      57 | 0x2D75      |       11637 |
|      58 | 0x2D77      |       11639 |
|      59 | 0x2D78      |       11640 |
|      60 | 0x2D79      |       11641 |
|      61 | 0x2D7A      |       11642 |
|      62 | 0x02EE      |         750 |
|      63 | 0x0258      |         600 |
|      64 | 0x0190      |         400 |
|      65 | 0x012C      |         300 |
|      66 | 0x2D81      |       11649 |
|      67 | 0xFFFFFFFF  |  4294967295 |
|      68 | 0x004B      |          75 |
|      69 | 0x0054      |          84 |
|      70 | 0x93A80     |      604800 |
|      71 | 0x07FF      |        2047 |
|      72 | 0x2D82      |       11650 |
|      73 | 0x021C      |         540 |
|      74 | 0x0834      |        2100 |
|      75 | 0x0924      |        2340 |
|      76 | 0x1194      |        4500 |
|      77 | 0x1284      |        4740 |
|      78 | 0x2D83      |       11651 |
|      79 | 0x2D85      |       11653 |
|      80 | 0x2D86      |       11654 |
|      81 | 0x2D87      |       11655 |
|      82 | 0x007F      |         127 |
|      83 | 0x2DA4      |       11684 |
|      84 | 0x2D84      |       11652 |
|      85 | 0x2D88      |       11656 |
|      86 | 0x2D89      |       11657 |
|      87 | 0x2D8A      |       11658 |
|      88 | 0x2D8B      |       11659 |
|      89 | 0x2D8C      |       11660 |
|      90 | 0x2D8D      |       11661 |
|      91 | 0x2D8E      |       11662 |
|      92 | 0x2D8F      |       11663 |
|      93 | 0x2D90      |       11664 |
|      94 | 0x2D91      |       11665 |
|      95 | 0x2D92      |       11666 |
|      96 | 0x2D93      |       11667 |
|      97 | 0x2D94      |       11668 |
|      98 | 0x2D95      |       11669 |
|      99 | 0x2D96      |       11670 |
|     100 | 0x2D97      |       11671 |
|     101 | 0x2D98      |       11672 |
|     102 | 0x2D99      |       11673 |
|     103 | 0x2D9A      |       11674 |
|     104 | 0x2D9B      |       11675 |
|     105 | 0x2D9C      |       11676 |
|     106 | 0x2D9D      |       11677 |
|     107 | 0x2D9E      |       11678 |
|     108 | 0x2D9F      |       11679 |
|     109 | 0x2DA0      |       11680 |
|     110 | 0x2DA1      |       11681 |
|     111 | 0x2DA2      |       11682 |
|     112 | 0x2DA3      |       11683 |
|     113 | 0x2D7B      |       11643 |
|     114 | 0x2D7C      |       11644 |
|     115 | 0x2D7D      |       11645 |
|     116 | 0x2D7E      |       11646 |
|     117 | 0x2D7F      |       11647 |
|     118 | 0x2D80      |       11648 |
|     119 | 0x004E      |          78 |
|     120 | 0x0012      |          18 |
|     121 | 0x002A      |          42 |
|     122 | 0x0035      |          53 |
|     123 | 0x0036      |          54 |
|     124 | 0x0040      |          64 |
|     125 | 0x0041      |          65 |
|     126 | 0x0042      |          66 |
|     127 | 0x0053      |          83 |
|     128 | 0x0017      |          23 |
|     129 | 0x0023      |          35 |
|     130 | 0x002F      |          47 |
|     131 | 0x0038      |          56 |
|     132 | 0x0039      |          57 |
|     133 | 0x003A      |          58 |
|     134 | 0x0044      |          68 |
|     135 | 0x0045      |          69 |
|     136 | 0x2EFD      |       12029 |
|     137 | 0x2EFE      |       12030 |
|     138 | 0x2EFF      |       12031 |
|     139 | 0x2F00      |       12032 |
|     140 | 0x2F01      |       12033 |
|     141 | 0x2F02      |       12034 |
|     142 | 0x2F03      |       12035 |
|     143 | 0x2F04      |       12036 |
|     144 | 0x2F05      |       12037 |
|     145 | 0x2F06      |       12038 |
|     146 | 0x2F07      |       12039 |
|     147 | 0x2F08      |       12040 |
|     148 | 0x2F09      |       12041 |
|     149 | 0x2F0A      |       12042 |
|     150 | 0x2F0B      |       12043 |
|     151 | 0x2F0C      |       12044 |
|     152 | 0x2F0D      |       12045 |
|     153 | 0x2F0E      |       12046 |
|     154 | 0x2F0F      |       12047 |
|     155 | 0x2F10      |       12048 |
|     156 | 0x2F11      |       12049 |
|     157 | 0x2F12      |       12050 |
|     158 | 0x2F13      |       12051 |
|     159 | 0x2F14      |       12052 |
|     160 | 0x2F15      |       12053 |
|     161 | 0x2F16      |       12054 |
|     162 | 0x2F17      |       12055 |
|     163 | 0x2F18      |       12056 |
|     164 | 0x2F19      |       12057 |
|     165 | 0x2F1A      |       12058 |
|     166 | 0x2F1B      |       12059 |
|     167 | 0x2F1C      |       12060 |
|     168 | 0x2F1D      |       12061 |
|     169 | 0x2F1E      |       12062 |
|     170 | 0x2F1F      |       12063 |
|     171 | 0x2F20      |       12064 |
|     172 | 0x2F21      |       12065 |
|     173 | 0x2F26      |       12070 |
|     174 | 0x2F27      |       12071 |
|     175 | 0x2F28      |       12072 |
|     176 | 0x0A20      |        2592 |
|     177 | 0x2F29      |       12073 |
|     178 | 0x2F2A      |       12074 |
|     179 | 0x2F2B      |       12075 |
|     180 | 0x2F2C      |       12076 |
|     181 | 0x2F2D      |       12077 |
|     182 | 0x2F2E      |       12078 |
|     183 | 0x07D0      |        2000 |
|     184 | 0x2F22      |       12066 |
|     185 | 0x2F23      |       12067 |
|     186 | 0x2F24      |       12068 |
|     187 | 0x2F25      |       12069 |
|     188 | 0x2F2F      |       12079 |
|     189 | 0x2F30      |       12080 |
|     190 | 0x2F31      |       12081 |
|     191 | 0x2F32      |       12082 |
|     192 | 0x2F33      |       12083 |
|     193 | 0x2F34      |       12084 |
|     194 | 0x2F35      |       12085 |
|     195 | 0x2F36      |       12086 |
|     196 | 0x2F37      |       12087 |
|     197 | 0x2F38      |       12088 |
|     198 | 0x2F39      |       12089 |
|     199 | 0x02AA      |         682 |
|     200 | 0x2F3A      |       12090 |
|     201 | 0x02AB      |         683 |
|     202 | 0x2F3B      |       12091 |
|     203 | 0x02AC      |         684 |
|     204 | 0x2F3C      |       12092 |
|     205 | 0x02AD      |         685 |
|     206 | 0x2F3D      |       12093 |
|     207 | 0x02AE      |         686 |
|     208 | 0x2F3E      |       12094 |
|     209 | 0x02AF      |         687 |
|     210 | 0x2F3F      |       12095 |
|     211 | 0x02B0      |         688 |
|     212 | 0x2F40      |       12096 |
|     213 | 0x02B1      |         689 |
|     214 | 0x2F41      |       12097 |
|     215 | 0x02B2      |         690 |
|     216 | 0x2F42      |       12098 |
|     217 | 0x02B3      |         691 |
|     218 | 0x2F43      |       12099 |
|     219 | 0x02B4      |         692 |
|     220 | 0x2F44      |       12100 |
|     221 | 0x02B5      |         693 |
|     222 | 0x2F45      |       12101 |
|     223 | 0x02B6      |         694 |
|     224 | 0x2F46      |       12102 |
|     225 | 0x02B7      |         695 |
|     226 | 0x2F47      |       12103 |
|     227 | 0x02B8      |         696 |
|     228 | 0x2F48      |       12104 |
|     229 | 0x02B9      |         697 |
|     230 | 0x2F49      |       12105 |
|     231 | 0x02BA      |         698 |
|     232 | 0x2F4A      |       12106 |
|     233 | 0x0011      |          17 |
|     234 | 0x02BB      |         699 |
|     235 | 0x2F4B      |       12107 |
|     236 | 0x02BC      |         700 |
|     237 | 0x2F4C      |       12108 |
|     238 | 0x0013      |          19 |
|     239 | 0x0309      |         777 |
|     240 | 0x2F4D      |       12109 |
|     241 | 0x0014      |          20 |
|     242 | 0x030A      |         778 |
|     243 | 0x2F4E      |       12110 |
|     244 | 0x0015      |          21 |
|     245 | 0x030B      |         779 |
|     246 | 0x2F4F      |       12111 |
|     247 | 0x0016      |          22 |
|     248 | 0x0393      |         915 |
|     249 | 0x2F50      |       12112 |
|     250 | 0x0394      |         916 |
|     251 | 0x2F51      |       12113 |
|     252 | 0x0018      |          24 |
|     253 | 0x0737      |        1847 |
|     254 | 0x2F52      |       12114 |
|     255 | 0x0019      |          25 |
|     256 | 0x0738      |        1848 |
|     257 | 0x2F53      |       12115 |
|     258 | 0x1B00      |        6912 |
|     259 | 0x3600      |       13824 |
|     260 | 0x5100      |       20736 |
|     261 | 0x06C0      |        1728 |
|     262 | 0x0C60      |        3168 |
|     263 | 0x0D80      |        3456 |
|     264 | 0x2880      |       10368 |
|     265 | 0x65400     |      414720 |
|     266 | 0x03E8      |        1000 |
|     267 | 0x05DC      |        1500 |
|     268 | 0x0BB8      |        3000 |
|     269 | 0x19500     |      103680 |
|     270 | 0x7FFF      |       32767 |
|     271 | 0x116700    |     1140480 |
|     272 | 0x2F5D      |       12125 |
|     273 | 0x2F5C      |       12124 |
|     274 | 0x2F5B      |       12123 |
|     275 | 0x2F5E      |       12126 |
|     276 | 0x2F5F      |       12127 |
|     277 | 0x2F60      |       12128 |
|     278 | 0x2F61      |       12129 |
|     279 | 0x2F62      |       12130 |
|     280 | 0x2F63      |       12131 |
|     281 | 0x2F56      |       12118 |
|     282 | 0x2F57      |       12119 |
|     283 | 0x2F58      |       12120 |
|     284 | 0x2F59      |       12121 |
|     285 | 0x2F5A      |       12122 |

## String References

- **11609**: The IRNC has dispatched me to help support all those who wish to participate in Conflict.
- **11610**: Before you can take part in this Conflict event, you must first possess $6. You can obtain one from your nation's Conflict Commander, [Excenmille, stationed in Northern San d'Oria./Invincible Shield, stationed in the Metalworks in Bastok./Mhabi Molkot, stationed in Heavens Tower in Windurst.]
- **11611**: Only adventurers who have achieved rank 3 or higher may take part in official Ballista matches. Please return when you have proven your loyalty to your home nation.
- **11612**: However, if you still wish to take part in Ballista, participation in matches held within Diorama Abdhaljs-Ghelsba is open to all citizens of Vana'diel.
- **11614**: What can I help you with? [Nothing./The upcoming Ballista matches./The Ballista schedule./A teleport to the Ballista match./The rules of Ballista./Borrow/Return $6./Borrow/Return $6./Borrow/Return $6./The upcoming Brenner matches./A teleport to the Brenner match (Lv $7)./The rules of Brenner./Borrow/Return $6./Borrow/Return $6.]
- **11615**: I am allowed to teleport Ballista participants to the site of the next match in exchange for $6 or $1 Ballista [Point/Points]. This service is available from twenty-four hours before the start of the match, up until the end of the match.
- **11616**: 6 can be received after participating in Ballista, or in the event one is not able to participate due to an influx (or lack) of entries.
- **11617**: I'm sorry, but I am not authorized to teleport persons who do not meet the level requirement for the match.
- **11618**: The following information regards the match I am currently authorized to teleport you to...
- **11619**: Teleport? [Right away./Not yet.]
- **11620**: I am sorry, but I cannot teleport you at this time.
- **11621**: I am sorry, but I cannot teleport you at this time. Please return when there are less than twenty-four hours remaining until the next match.
- **11628**: While wearing $6 during a match, you will be able to hear the orders of your nation's Pursuivant. His advice will aid you in battle.
- **11629**: Also, you will be informed of all the latest match information when entering select cities.
- **11630**: Would you like $6? [Yes./No.]
- **11631**: Return your $3? [Yes./No.]
- **11633**: By carrying $6 with you during a Ballista match, any temporary item you quarry will be automatically placed in your bag without you having to select whether you wish to keep it, use it, or throw it away.
- **11634**: When your inventory is full, or you cannot carry any more of a certain item, the newly quarried item will be automatically discarded. If you wish, I can lend you one of these shovels, free of charge.
- **11635**: Borrow $6? [Yes./No.]
- **11637**: Return the $3? [Yes./No.]
- **11639**: When carrying $6 with you while participating in a Ballista match, you will have the option to keep or throw away the first Petra you find. This is useful when you want to continue /sprinting.
- **11640**: If you wish, I can loan you one, free of charge.
- **11641**: Borrow $6? [Yes./No.]
- **11642**: Return the $3? [Yes./No.]
- **11643**: When in possession of the key item $3, temporary items will be automatically added to the player's inventory when quarried.
- **11644**: When a player's inventory exceeds the maximum capacity, any temporary item found will simply be discarded. You can speak to me to borrow or return the shovel at any time.
- **11645**: Borrow the $3? [Yes./No.]
- **11646**: Return the $3? [Yes./No.]
- **11647**: When in possession of the key item $3, you will have the choice of keeping or throwing away the first Petra you quarry. You will also retain the ability to sprint.
- **11648**: You can speak to me to borrow or return the band at any time.
- **11649**: Select a match level... [View all levels./No restriction ($0 gil per match)./Level 60 ($1 gil per match)./Level 50 ($2 gil per match)./Level 40 ($3 gil per match)./Level 30 ($4 gil per match)./Return.]
- **11650**: Select for more information... [, [ / / /Lv. 30/Lv. 40/Lv. 50/Lv. 60/Lv. $7]/, [ / / /Lv. 30/Lv. 40/Lv. 50/Lv. 60/Lv. $794668[ / / /Lv. 30/Lv. 40/Lv. 50/Lv. 60/Lv. $7]/, [ / / /Lv. 30/Lv. 40/Lv. 50/Lv. 60/Lv. $7]/, [ / / /Lv. 30/Lv. 40/Lv. 50/Lv. 60/Lv. $7]/, [ / / /Lv. 30/Lv. 40/Lv. 50/Lv. 60/Lv. $7]/, [ / / /Lv. 30/Lv. 40/Lv. 50/Lv. 60/Lv. $7]/, [ / / /Lv. 30/Lv. 40/Lv. 50/Lv. 60/Lv. $7]/, [ / / /Lv. 30/Lv. 40/Lv. 50/Lv. 60/Lv. $7]/, [ / / /Lv. 30/Lv. 40/Lv. 50/Lv. 60/Lv. $7]/Next./Return.]
- **11651**: <Match $0> Entry period begins: Briefing begins:
- **11652**: I apologize, but your level is too low to participate in an official Brenner match.
- **11653**: Official matches are scheduled to begin at the following times: Match 1: Match 2: Match 3:
- **11654**: Teleportation to the Isle is free of charge, but a participation fee of $0 gil is required before each match.
- **11655**: Travel to the Isle? [Yes./Not yet.]
- **11656**: What would you like to know about? [Basic rules./Official/private matches./Flammen-Brenner./Flamme./Match score./Petras and quarrying./Sprint./KO./Return.]
- **11657**: The basic rules of Brenner are as follows:
- **11658**: First, the participants divide into two teams. Each side's camp contains the same number of "Flammen-Brenner."
- **11659**: At the beginning of the match, half of each side's Flammen-Brenner will be ablaze with "Flamme," or flame, while the other half will remain unlit.
- **11660**: Participants can seize a Flamme from the opposing side's Flammen-Brenner and carry it around the Isle.
- **11661**: The goal is to steal your opponent's Flamme and use them to light your side's Flammen-Brenner.
- **11662**: The side that succeeds in lighting all of its Flammen-Brenner will be declared the winner after a specified amount of time.
- **11663**: If neither side is victorious before the match ends, the outcome will be judged based on the score. The "match score" section of the rulebook contains more information on this subject.
- **11664**: Brenner is significantly divided into public and private matches. Official matches are held periodically according to level and feature general participation.
- **11665**: You cannot reserve the Isle when an official match is being held.
- **11666**: No items are necessary for participation, but a minor fee will be collected. You will be unable to participate if your level is too low.
- **11667**: The match outcome will be recorded unless the number of participants fails to exceed $0 members, or if there are fewer than $1 members in a match where the two sides' numbers differ. In such cases, the game will be considered a training match and will not be recorded.
- **11668**: Private matches require a reservation, and participation may be limited. The Master of Ceremonies (MC) can freely adjust the rules and control match proceedings.
- **11669**: "LS Liga" is a form of private match. You can learn more about LS Liga by speaking to a Marshal.
- **11670**: A Flammen-Brenner is a device that contains a Flamme (flame). The Flammen-Brenner is covered by a grate that will open after taking a set amount of damage, exposing the Flamme.
- **11671**: The participants must utilize this chance to seize the Flamme before the grate recloses. Once the grate is closed, the Flammen-Brenner will begin recovering from the damage it has been dealt.
- **11672**: If you manage to open the opposing team's Flammen-Brenner and capture their Flamme, you should make haste to light one of the Flammen-Brenner on your side.
- **11673**: After a certain amount of time, the Flamme will burn out and the opposing team's Flammen-Brenner will be relit.
- **11674**: Also, please note that you cannot quicken your pace using any special abilities while you are in possession of a Flamme.
- **11675**: In the event that neither side fulfills the conditions for victory, the outcome of the match will be evaluated based on score.
- **11676**: Ten points are awarded to each side for every lit Flammen-Brenner, while one point is awarded whenever a Flamme is captured, used to light a Flammen-Brenner, or recaptured from an opponent. One point is also awarded for protecting the Flammen-Brenner for a certain period of time.
- **11677**: Like Ballista, quarry (/quarry) can be used while playing Brenner. Participants may use this ability to dig up Petras and temporary items.
- **11678**: However, unlike Ballista Petras, Brenner Petras have no effect on the match score. You can trade a Petra to a Pursuivant to recover your HP and MP at no expense to TP.
- **11679**: Sprint cannot be used while carrying a Petra. Also, please note that the scout ability cannot be used in Brenner.
- **11680**: Petras will be lost in the event of a KO, but can be carried over from one match to another.
- **11681**: The sprint (/sprint) ability can be used to increase the player's speed when not in possession of a Flamme or Petras.
- **11682**: In the event of a KO, you will be returned to your team's camp. However, recovery will take longer the more often you fall in battle.
- **11683**: In other words, you will receive a penalty if you fall immediately after recovering from KO. In addition, your TP will be reduced to zero and you will lose any Petras in your possession.
- **11684**: I'm sorry. I wasn't listening. Could you start over from the beginning?
- **12029**: What do you wish to know about? [Basic rules./About the Petra./About Sprint./About Scout./About Gate Breach./About area-specific rules./About returning to battle./About special rules./Nothing at the moment.]
- **12030**: Ballista is an exercise once used by the San d'Orian armies to train the Royal Knights in the art of the siege. The word "ballista" means "to throw a stone," and the game has been a part of Vana'dielian military history for centuries.
- **12031**: The rules are simple. Ballista is played by two teams over a number of hours (Vana'diel time). The team with the most points at the end of the match is the victor.
- **12032**: Players from both teams must search for Petras that a Herald has buried in various locations across the battlefield. The players must then take these stones and throw them into targets known as Rooks.
- **12033**: These Rooks can appear in various locations around the battlefield, and both teams are allowed to throw their Petras into them.
- **12034**: Finally, a player's strength is adjusted depending on his or her level. It is felt that this ultimately allows for a more balanced battle.
- **12035**: Petras can be buried anywhere. Once a player believes he or she has found one, the Quarry (/quarry) command should be used to dig up the area at his or her feet.
- **12036**: Sometimes a player may find items other than Petras, such as potions. These temporary items can only be used during the current match (or Best of Three series).
- **12037**: Players can carry more than one Petra, but they cannot throw the stones away once they have obtained them. However, players will lose their Petras if they: (1) Successfully throw them into a rook. (2) Leave the area. (3) Are knocked out.
- **12038**: But don't forget, a player will be unable to use the Sprint command while in possession of a Petra. And, players can only use the Scout command if they carry one of the stones.
- **12039**: As one can see, careful planning and impeccable timing are the keys to victory.
- **12040**: All participants of Ballista will have the ability to use the Sprint command. This will temporarily increase one's movement speed, creating a better chance to find and obtain Petras.
- **12041**: However, remember that once a player has obtained a Petra, he or she will be unable to use the Sprint command. In its place, though, one may use the Scout command.
- **12042**: The locations of the Rooks are constantly changing. This makes it quite difficult to find the targets by just randomly walking about the area.
- **12043**: Communication with one's team members is, of course, one way to locate Rooks. However, another way is by using the Scout command. This will inform a player of the approximate location of the nearest Rook.
- **12044**: Finally, Scout can only be used when a player is carrying a Petra. Because Sprint cannot be used at this time, players must be weary of approaching enemies.
- **12045**: So, a Petra has been obtained and a Rook located. Now all that's left is tossing the stone in, right? Wrong.
- **12046**: There is one aspect of Ballista that has yet to be mentioned...and this is where the real battle begins.
- **12047**: To throw a Petra into a Rook, a player must first wait until the Rook's gate is open. This takes impeccable timing, as the gate is only open for a short while.
- **12048**: But not just anyone can score points this way. A player must first take down a member of the opposing team and achieve Gate Breach status. Only then will his or her shots count.
- **12049**: This extreme method of combat is what made the ancient game of Ballista famous, and transformed its participants into heroes.
- **12050**: Running about looking for stones is no different from a child's game of hide-and-seek. Knowing when to strike is what separates the men from the boys.
- **12051**: The following match types are area-specific: All or Nothing (one match) * Normal Items Allowed: Jugner Forest All or Nothing (one match) * Normal Items Restricted: Pashhow Marshlands Best of Three (three matches) * Normal Items Allowed: Meriphataud Mountains
- **12052**: Best of Three series rules are as follows: Winning a match will earn a nation one "match point." The nation with the most match points at the end of the series will be declared the victor. Winning the third and final match and producing the high scorer will result in two match points awarded. This allows both sides the chance for "come-from-behind" victories.
- **12053**: Between each of the matches, a short interval will be implemented. During this interval, Invisible and Sneak will be cast on all participants. We suggest this time be used to discuss strategies with the other members of your nation's forces.
- **12054**: Players will be forbidden from using any items they bring to the battlefield. Only temporary items that are quarried may be used. A total of fifteen temporary items (though only one of each type) can be carried.
- **12055**: When this rule is in effect, all players will be presented with five complimentary temporary items at the beginning of the match.
- **12056**: For more information on temporary items, refer to the "special rules."
- **12057**: After being KO'd, if a player chooses to be revived at the spot he was defeated, 100% of all HP and 50% of all MP will be restored. In addition, the player will maintain 50% of the TP he had earned.
- **12058**: If a player chooses to return to their force's camp, HP and MP will be fully restored, but all TP will be lost.
- **12059**: Please note that many of the rules previously considered "special" have been fully implemented. Also, several new special rules have been added.
- **12060**: Learn about which special rules? [Temporary items./Ballista Points./Scoring restrictions./Gate Breach radius expansion./Resistance to Sleep./Open entries./Minimum level restrictions./Re-entry restrictions./Participant & Rook numbers./Experience Points./Return.]
- **12061**: Previously, participants in Ballista were required to use an item the moment they dug it up using the /quarry command. However, players can now stock these items as temporary items for use at any time during the match.
- **12062**: Players can hold up to ten temporary items, but only one of each type. If a player finds an item that they already possess, they must use it immediately or throw it away.
- **12063**: If players who possess ten temporary items find an item that they have not already obtained, they will also have the option to exchange it with one of their current items.
- **12064**: Also, players will not, at any time, be allowed to trade temporary items. However, there are items that can be used on other Ballista participants. Please note that players may not be able to use these special items as soon as they are quarried.
- **12065**: Finally, the Heralds will collect temporary items when the match (the third in a Best of Three series) has concluded.
- **12066**: Ballista Points are rewarded to each competitor based on his or her performance in a single Ballista match. The maximum number of points that can be accumulated per match is $0.
- **12067**: While it is taken into consideration, scoring Petras is not the only way to earn Ballista Points. Assisting allies and defeating members of the enemy forces can also earn a high score.
- **12068**: Ballista Points can be traded for special "vouchers," which may be exchanged for free temporary items at the start of new matches.
- **12069**: However, remember that depending on the level restriction of the match, certain vouchers will not be redeemed at the beginning of a match. Speak with a Marshal directly after a match to register your points.
- **12070**: Players will only be allowed to score up to five Petras at a time. Also, a player's Gate Breach status will be automatically disengaged if a Petra is not scored within a certain amount of time. The amount of time is increased for those members of the team currently behind in points.
- **12071**: All allies within a certain radius will achieve Gate Breach status when a member of the enemy forces is defeated.
- **12072**: Players' resistance to sleep will be increased.
- **12073**: During the entry period, from $0:, all adventurers will be allowed to join the forces with the smallest number of participants, regardless of allegiance. Open entries will be accepted until both sides have reached maximum capacity.
- **12074**: In order to ensure balanced matches, the following level limits are enforced: Level 30 matches: 1\`30
- **12075**: Level 40 matches: 31\`40 Level 50 matches: 41\`50 Level 60 matches: 51\`60 Unrestricted matches: 61\`
- **12076**: Please note that any participant who cancels his or her registration will not be allowed to re-apply for the same match.
- **12077**: When the total number of participants in a match is less than 40, the location of the two camps will be adjusted. Also in this case, the number of Rooks will be reduced to two.
- **12078**: Any adventurer whose main level is over 30 will receive EXP for participating in a Ballista match. However, no EXP will be rewarded if the adventurer fails to actively take part in the match.
- **12079**: Read which chapter on B.P. Ranking? [Basic Information./Registering Points./Rewards./Chevron & Title List./None.]
- **12080**: Ballista Point Ranking is based upon all Ballista Points registered from the past ten matches in each of the three participating battle areas.
- **12081**: Anyone who wishes to take part in the ranking needs to register [his/her] points within four hours (Vana'diel time) from the end of the previous match.
- **12082**: After the registration period ends, players can compare their record with those of the previous nine matches.
- **12083**: If, at any time, a player ranks in the top ten (overall) or first for a specific job, [he/she] will have the opportunity to receive a special chevron as well as a new title.
- **12084**: There are four types of chevrons and titles awarded to top-ten players (gold/mythril/silver/bronze), as well as twenty-two different types awarded for outstanding performances by players of each of the twenty-two jobs.
- **12085**: Wearing a chevron during a Ballista match will automatically change a player's current title. If a player wishes to possess this title after a match as well, [he/she] must contact a certain bard in San d'Oria.
- **12086**: Also, while wearing a chevron, players will be able to trade Ballista Points for temporary items not available to all players.
- **12087**: However, the rules of Ballista state that players may only possess a certain chevron for no longer than one half Vana'diel year. When that time comes, they are required to return the chevron before being allowed to participate in any further matches.
- **12088**: Finally, checking someone during a Ballista match will display the total number of chevrons that person has accumulated to date.
- **12089**: View which chevron/title? [1st (overall)./2nd (overall)./3rd (overall)./4th-10th (overall)./1st (warrior)./1st (monk)./1st (white mage)./1st (black mage)./1st (red mage)./1st (thief)./1st (paladin)./1st (dark knight)./1st (beastmaster)./1st (bard)./1st (ranger)./1st (samurai)./1st (ninja)./1st (dragoon)./1st (summoner)./1st (blue mage)./1st (corsair)./1st (puppetmaster)./1st (dancer)./1st (scholar)./1st (geomancer)./1st (rune fencer)./Return.]
- **12090**: Key Item: $3 Title: Gold Balli$25$25$25$25star
- **12091**: Key Item: $3 Title: Mythril Balli$25$25$25star
- **12092**: Key Item: $3 Title: Silver Balli$25$25star
- **12093**: Key Item: $3 Title: Bronze Balli$25star
- **12094**: Key Item: $3 Title: Searing$26Star
- **12095**: Key Item: $3 Title: Striking$26Star
- **12096**: Key Item: $3 Title: Soothing$26Star
- **12097**: Key Item: $3 Title: Sable$26Star
- **12098**: Key Item: $3 Title: Scarlet$26Star
- **12099**: Key Item: $3 Title: Sonic$26Star
- **12100**: Key Item: $3 Title: Saintly$26Star
- **12101**: Key Item: $3 Title: Shadowy$26Star
- **12102**: Key Item: $3 Title: Savage$26Star
- **12103**: Key Item: $3 Title: Singing$26Star
- **12104**: Key Item: $3 Title: Sniping$26Star
- **12105**: Key Item: $3 Title: Slicing$26Star
- **12106**: Key Item: $3 Title: Sneaking$26Star
- **12107**: Key Item: $3 Title: Spearing$26Star
- **12108**: Key Item: $3 Title: Summoning$26Star
- **12109**: Key Item: $3 Title: Sapphire$26Star
- **12110**: Key Item: $3 Title: Surging$26Star
- **12111**: Key Item: $3 Title: Swaying$26Star
- **12112**: Key Item: $3 Title: Sprightly$26Star
- **12113**: Key Item: $3 Title: Sagacious$26Star
- **12114**: Key Item: $3 Title: Spiritual$26Star
- **12115**: Key Item: $3 Title: Stippling$26Star
- **12118**: Matches are only played on even days (Vana'diel time).
- **12119**: Areas where Ballista matches will be held are:", 8, 14, 20, 26 -> Jugner 4, 10, 16, 22, 28 -> Pashhow 6, 12, 18, 24, 30 -> Meriphataud
- **12120**: Level restrictions are:", 4, 6 -> Lv. 30 8, 10, 12 -> Lv. 40 14, 16, 18 -> Lv. 50"0, 22, 24 -> Lv. 60"6, 28, 30 -> None
- **12121**: And finally, participation fees are: Lv. 30 matches: $0 gil Lv. 40 matches: $1 gil Lv. 50 matches: $2 gil Lv. 60 matches: $3 gil Unrestricted matches: $4 gil
- **12122**: Participating nations are selected in the following manner...
- **12123**: Matches for the 1st\`4th month are: Jugner: Bastok vs San d'Oria Pashhow: Bastok vs Windurst Meriphataud: San d'Oria vs Windurst
- **12124**: Matches for the 5th\`8th month are: Jugner: Bastok vs Windurst Pashhow: San d'Oria vs Windurst Meriphataud: Bastok vs San d'Oria
- **12125**: Matches for the 9th\`12th month are: Jugner: San d'Oria vs Windurst Pashhow: San d'Oria vs Bastok Meriphataud: Bastok vs Windurst
- **12126**: Learn about which match: [View previous month./$3/$4/2 Lv.30 Jugner/$3/$4/4 Lv.30 Pashhow/$3/$4/6 Lv.30 Meriphataud/$3/$4/8 Lv.40 Jugner/$3/$4/10 Lv.40 Pashhow/$3/$4/12 Lv.40 Meriphataud/$3/$4/14 Lv.50 Jugner/$3/$4/16 Lv.50 Pashhow/$3/$4/18 Lv.50 Meriphataud/$3/$4/20 Lv.60 Jugner/$3/$4/22 Lv.60 Pashhow/$3/$4/24 Lv.60 Meriphataud/$3/$4/26 Lv.$7 Jugner/$3/$4/28 Lv.$7 Pashhow/$3/$4/30 Lv.$7 Meriphataud/View next month./Quit.]
- **12127**: Learn about which match: [View previous month./$4/2/$3 Lv.30 Jugner/$4/4/$3 Lv.30 Pashhow/$4/6/$3 Lv.30 Meriphataud/$4/8/$3 Lv.40 Jugner/$4/10/$3 Lv.40 Pashhow/$4/12/$3 Lv.40 Meriphataud/$4/14/$3 Lv.50 Jugner/$4/16/$3 Lv.50 Pashhow/$4/18/$3 Lv.50 Meriphataud/$4/20/$3 Lv.60 Jugner/$4/22/$3 Lv.60 Pashhow/$4/24/$3 Lv.60 Meriphataud/$4/26/$3 Lv.$7 Jugner/$4/28/$3 Lv.$7 Pashhow/$4/30/$3 Lv.$7 Meriphataud/View next month./Quit.]
- **12128**: Learn about which match: [View previous month."/$4/$3 Lv.30 Jugner/4/$4/$3 Lv.30 Pashhow/6/$4/$3 Lv.30 Meriphataud/8/$4/$3 Lv.40 Jugner/10/$4/$3 Lv.40 Pashhow/12/$4/$3 Lv.40 Meriphataud/14/$4/$3 Lv.50 Jugner/16/$4/$3 Lv.50 Pashhow/18/$4/$3 Lv.50 Meriphataud"0/$4/$3 Lv.60 Jugner"2/$4/$3 Lv.60 Pashhow"4/$4/$3 Lv.60 Meriphataud"6/$4/$3 Lv.$7 Jugner"8/$4/$3 Lv.$7 Pashhow"0/$4/$3 Lv.$7 Meriphataud/View next month./Quit.]
- **12129**: Place: [Jugner Forest/Pashhow Marshlands/Meriphataud Mountains] Nations: [San d'Oria/Bastok/Windurst] vs [San d'Oria/Bastok/Windurst] Level Restriction: [None/ / /30/40/50/60/] Participation Fee: $4 gil Match Format: [All or Nothing/Best of Three] * [Normal Items Restricted/Normal Items Allowed]
- **12130**: Entry period begins: Vana'diel: Earth:
- **12131**: Match begins: Vana'diel: Earth:

## Events

### Event 65535

#### Metadata

| Field        | Value   |
|--------------|---------|
| Entrypoint   | 0x0000  |
| Data Size    | 1 bytes |
| Instructions | 1       |

```
      00 01 02 03 04 05 06 07  08 09 0A 0B 0C 0D 0E 0F
      -- -- -- -- -- -- -- --  -- -- -- -- -- -- -- --
0000: 00                                                .               
```

#### Opcodes

```
  0: 0x0000 [0x00] END_REQSTACK()
```

### Event 69

#### Metadata

| Field        | Value      |
|--------------|------------|
| Entrypoint   | 0x0001     |
| Data Size    | 5190 bytes |
| Instructions | 725        |

```
      00 01 02 03 04 05 06 07  08 09 0A 0B 0C 0D 0E 0F
      -- -- -- -- -- -- -- --  -- -- -- -- -- -- -- --
0000:    20 01 1E F0 FF FF 7F  6F 70 41 00 80 01 80 02    ......opA.....
0010: 10 01 00 41 02 80 03 80  02 10 02 00 41 04 80 04  ...A........A...
0020: 80 02 10 03 00 41 05 80  05 80 02 10 04 00 41 06  .....A........A.
0030: 80 06 80 02 10 05 00 41  07 80 07 80 02 10 07 00  .......A........
0040: 41 08 80 08 80 02 10 08  00 41 09 80 09 80 02 10  A........A......
0050: 06 00 41 0A 80 0A 80 02  10 0A 00 41 0B 80 0B 80  ..A........A....
0060: 02 10 09 00 41 0C 80 0C  80 02 10 15 00 03 1E 00  ....A...........
0070: 03 10 03 0B 00 04 10 1D  0D 80 23 06 14 00 02 03  ..........#.....
0080: 00 00 80 00 AA 00 02 02  00 0E 80 03 95 00 1D 0F  ................
0090: 80 23 01 A3 00 03 02 10  10 80 03 03 10 01 00 1D  .#..............
00A0: 11 80 23 05 14 00 1D 12  80 23 06 11 00 2E 83 13  ..#......#......
00B0: 00 15 13 00 13 80 14 13  00 13 80 03 02 10 14 80  ................
00C0: 03 03 10 15 80 03 04 10  16 80 03 05 10 17 80 03  ................
00D0: 06 10 18 80 02 14 00 01  80 00 06 01 3C 11 00 01  ............<...
00E0: 80 01 80 3C 11 00 02 80  01 80 3C 11 00 0E 80 01  ...<......<.....
00F0: 80 3C 11 00 03 80 01 80  3C 11 00 04 80 01 80 3C  .<......<......<
0100: 11 00 05 80 01 80 02 15  00 01 80 00 2E 01 83 00  ................
0110: 00 1A E7 09 02 17 00 00  80 00 26 01 3C 11 00 07  ..........&.<...
0120: 80 01 80 01 2B 01 03 09  10 17 00 01 4A 01 3C 11  ....+.......J.<.
0130: 00 06 80 01 80 3C 11 00  07 80 01 80 3C 11 00 09  .....<......<...
0140: 80 01 80 3C 11 00 0A 80  01 80 3C 11 00 06 80 01  ...<......<.....
0150: 80 3C 11 00 07 80 01 80  3C 11 00 08 80 01 80 3C  .<......<......<
0160: 11 00 09 80 01 80 3C 11  00 0A 80 01 80 24 19 80  ......<......$..
0170: 12 00 11 00 25 40 00 80  1A 80 01 10 00 10 03 12  ....%@..........
0180: 00 00 10 02 00 10 01 80  00 94 01 1A 8D 11 01 AA  ................
0190: 00 01 E5 09 02 00 10 02  80 00 A5 01 1A E0 13 01  ................
01A0: AA 00 01 E5 09 02 00 10  0E 80 00 EB 02 03 02 10  ................
01B0: 1B 80 03 03 10 1C 80 1D  1D 80 23 02 04 00 00 80  ..........#.....
01C0: 00 D5 01 02 0B 00 1C 80  04 CE 01 01 D5 01 1D 1E  ................
01D0: 80 23 01 E5 02 83 2C 00  03 1B 00 2C 00 03 27 00  .#....,....,..'.
01E0: 00 80 02 27 00 02 80 05  E5 02 1A B8 0F 06 00 00  ...'............
01F0: 02 1D 00 1F 80 80 FE 01  05 00 00 01 56 02 02 1D  ............V...
0200: 00 20 80 80 14 02 02 88  7F 21 80 04 11 02 05 00  . .......!......
0210: 00 01 56 02 02 1D 00 22  80 80 2A 02 02 88 7F 23  ..V...."..*....#
0220: 80 04 27 02 05 00 00 01  56 02 02 1D 00 24 80 80  ..'.....V....$..
0230: 40 02 02 88 7F 25 80 04  3D 02 05 00 00 01 56 02  @....%..=.....V.
0240: 02 1D 00 00 80 80 56 02  02 88 7F 26 80 04 53 02  ......V....&..S.
0250: 05 00 00 01 56 02 02 1F  00 2C 00 05 DF 02 02 24  ....V....,.....$
0260: 00 2C 00 04 DF 02 02 00  00 01 80 00 D8 02 02 27  .,.............'
0270: 00 02 80 05 D1 02 1D 27  80 23 1A 47 13 24 28 80  .......'.#.G.$(.
0280: 01 80 00 80 25 02 00 10  00 80 00 CE 02 20 01 42  ....%........ .B
0290: 40 29 80 21 80 01 10 27  00 73 2A 80 F8 FF FF 7F  @).!...'.s*.....
02A0: F0 FF FF 7F 43 00 43 01  1C 2B 80 02 02 10 01 80  ....C.C..+......
02B0: 00 C3 02 6C F0 FF FF 7F  2C 80 00 80 1D 2D 80 23  ...l....,....-.#
02C0: 01 C4 02 30 03 01 10 2E  80 21 00 01 CE 02 01 D5  ...0.....!......
02D0: 02 1D 2F 80 23 01 DF 02  1D 30 80 23 01 E5 02 0B  ../.#....0.#....
02E0: 27 00 01 E2 01 01 AA 00  01 E5 09 02 00 10 31 80  '.............1.
02F0: 00 FF 02 06 00 10 1A 39  0B 01 AA 00 01 E5 09 02  .......9........
0300: 00 10 03 80 00 50 03 03  02 10 14 80 1D 32 80 23  .....P.......2.#
0310: 1D 33 80 23 02 08 00 00  80 00 36 03 24 34 80 01  .3.#......6.$4..
0320: 80 00 80 25 02 00 10 00  80 00 30 03 42 01 33 03  ...%......0.B.3.
0330: 01 AA 00 01 4D 03 24 35  80 01 80 00 80 25 02 00  ....M.$5.....%..
0340: 10 00 80 00 4A 03 42 01  4D 03 01 AA 00 01 E5 09  ....J.B.M.......
0350: 02 00 10 04 80 00 A1 03  03 02 10 15 80 1D 36 80  ..............6.
0360: 23 1D 37 80 23 02 07 00  00 80 00 87 03 24 38 80  #.7.#........$8.
0370: 01 80 00 80 25 02 00 10  00 80 00 81 03 42 01 84  ....%........B..
0380: 03 01 AA 00 01 9E 03 24  39 80 01 80 00 80 25 02  .......$9.....%.
0390: 00 10 00 80 00 9B 03 42  01 9E 03 01 AA 00 01 E5  .......B........
03A0: 09 02 00 10 05 80 00 F2  03 03 02 10 16 80 1D 3A  ...............:
03B0: 80 23 1D 3B 80 23 02 06  00 00 80 00 D8 03 24 3C  .#.;.#........$<
03C0: 80 01 80 00 80 25 02 00  10 00 80 00 D2 03 42 01  .....%........B.
03D0: D5 03 01 AA 00 01 EF 03  24 3D 80 01 80 00 80 25  ........$=.....%
03E0: 02 00 10 00 80 00 EC 03  42 01 EF 03 01 AA 00 01  ........B.......
03F0: E5 09 02 00 10 06 80 00  6A 07 06 10 00 06 0F 00  ........j.......
0400: 03 02 10 3E 80 03 03 10  3F 80 03 04 10 14 80 03  ...>....?.......
0410: 05 10 40 80 03 06 10 41  80 24 42 80 00 80 00 80  ..@....A.$B.....
0420: 25 02 00 10 00 80 00 31  04 03 0F 00 43 80 01 8C  %......1....C...
0430: 04 02 00 10 01 80 00 41  04 03 0F 00 44 80 01 8C  .......A....D...
0440: 04 02 00 10 02 80 00 51  04 03 0F 00 24 80 01 8C  .......Q....$...
0450: 04 02 00 10 0E 80 00 61  04 03 0F 00 22 80 01 8C  .......a...."...
0460: 04 02 00 10 31 80 00 71  04 03 0F 00 20 80 01 8C  ....1..q.... ...
0470: 04 02 00 10 03 80 00 81  04 03 0F 00 1F 80 01 8C  ................
0480: 04 02 00 10 04 80 00 8C  04 01 8C 04 02 00 10 03  ................
0490: 80 05 64 07 03 16 00 13  00 03 0E 00 16 00 06 0C  ..d.............
04A0: 00 06 0D 00 02 0C 00 45  80 05 14 06 03 00 00 0E  .......E........
04B0: 00 1A E7 09 02 17 00 00  80 01 01 06 06 00 00 02  ................
04C0: 0F 00 43 80 00 CD 04 05  00 00 01 D8 04 02 0F 00  ..C.............
04D0: 17 00 00 D8 04 05 00 00  02 00 00 01 80 00 01 06  ................
04E0: 03 00 00 13 00 07 00 00  46 80 02 0E 00 00 00 05  ........F.......
04F0: 01 06 02 0D 00 08 80 05  01 06 02 0D 00 00 80 80  ................
0500: 14 05 03 02 10 0E 00 03  02 17 17 00 15 02 17 08  ................
0510: 80 01 FE 05 02 0D 00 01  80 80 2E 05 03 03 10 0E  ................
0520: 00 03 03 17 17 00 15 03  17 08 80 01 FE 05 02 0D  ................
0530: 00 02 80 80 48 05 03 04  10 0E 00 03 04 17 17 00  ....H...........
0540: 15 04 17 08 80 01 FE 05  02 0D 00 0E 80 80 62 05  ..............b.
0550: 03 05 10 0E 00 03 05 17  17 00 15 05 17 08 80 01  ................
0560: FE 05 02 0D 00 31 80 80  7C 05 03 06 10 0E 00 03  .....1..|.......
0570: 06 17 17 00 15 06 17 08  80 01 FE 05 02 0D 00 03  ................
0580: 80 80 96 05 03 07 10 0E  00 03 07 17 17 00 15 07  ................
0590: 17 08 80 01 FE 05 02 0D  00 04 80 80 B0 05 03 08  ................
05A0: 10 0E 00 03 08 17 17 00  15 08 17 08 80 01 FE 05  ................
05B0: 02 0D 00 05 80 80 CA 05  03 09 10 0E 00 03 09 17  ................
05C0: 17 00 15 09 17 08 80 01  FE 05 02 0D 00 06 80 80  ................
05D0: E4 05 03 00 17 0E 00 03  0A 17 17 00 15 0A 17 08  ................
05E0: 80 01 FE 05 02 0D 00 07  80 80 FE 05 03 01 17 0E  ................
05F0: 00 03 0B 17 17 00 15 0B  17 08 80 01 FE 05 0B 0D  ................
0600: 00 02 0D 00 08 80 05 0E  06 07 0E 00 13 80 0B 0C  ................
0610: 00 01 A4 04 03 11 00 47  80 0C 0D 00 02 0D 00 00  .......G........
0620: 80 04 31 06 3D 11 00 0D  00 01 80 0C 0D 00 01 1C  ..1.=...........
0630: 06 24 48 80 10 00 11 00  25 03 10 00 00 10 02 00  .$H.....%.......
0640: 10 08 80 00 56 06 03 16  00 0E 00 03 10 00 00 80  ....V...........
0650: 01 99 04 01 64 07 02 00  10 09 80 00 61 06 01 64  ....d.......a..d
0660: 07 02 00 10 00 80 80 71  06 03 00 00 02 10 01 01  .......q........
0670: 07 02 00 10 01 80 80 81  06 03 00 00 03 10 01 01  ................
0680: 07 02 00 10 02 80 80 91  06 03 00 00 04 10 01 01  ................
0690: 07 02 00 10 0E 80 80 A1  06 03 00 00 05 10 01 01  ................
06A0: 07 02 00 10 31 80 80 B1  06 03 00 00 06 10 01 01  ....1...........
06B0: 07 02 00 10 03 80 80 C1  06 03 00 00 07 10 01 01  ................
06C0: 07 02 00 10 04 80 80 D1  06 03 00 00 08 10 01 01  ................
06D0: 07 02 00 10 05 80 80 E1  06 03 00 00 09 10 01 01  ................
06E0: 07 02 00 10 06 80 80 F1  06 03 00 00 00 17 01 01  ................
06F0: 07 02 00 10 07 80 80 01  07 03 00 00 01 17 01 01  ................
0700: 07 03 02 10 01 80 02 02  10 0E 80 05 61 07 03 03  ............a...
0710: 10 00 00 03 04 10 00 00  02 02 10 01 80 80 2D 07  ..............-.
0720: 07 03 10 00 80 07 04 10  49 80 01 57 07 02 02 10  ........I..W....
0730: 02 80 80 42 07 07 03 10  4A 80 07 04 10 4B 80 01  ...B....J....K..
0740: 57 07 02 02 10 0E 80 80  57 07 07 03 10 4C 80 07  W.......W....L..
0750: 04 10 4D 80 01 57 07 1D  4E 80 23 0B 02 10 01 06  ..M..W..N.#.....
0760: 07 01 99 04 01 AA 00 01  E5 09 02 00 10 07 80 00  ................
0770: 3F 08 06 10 00 02 88 7F  17 00 04 35 08 03 02 10  ?..........5....
0780: 13 00 07 02 10 00 80 03  03 10 13 00 07 03 10 4A  ...............J
0790: 80 03 04 10 13 00 07 04  10 4C 80 1D 4F 80 23 02  .........L..O.#.
07A0: 17 00 44 80 80 AF 07 03  02 10 3E 80 01 EF 07 02  ..D.......>.....
07B0: 17 00 24 80 80 BF 07 03  02 10 3F 80 01 EF 07 02  ..$.......?.....
07C0: 17 00 22 80 80 CF 07 03  02 10 14 80 01 EF 07 02  ..".............
07D0: 17 00 20 80 80 DF 07 03  02 10 40 80 01 EF 07 02  .. .......@.....
07E0: 17 00 1F 80 80 EF 07 03  02 10 41 80 01 EF 07 1D  ..........A.....
07F0: 50 80 23 24 51 80 01 80  00 80 25 02 00 10 00 80  P.#$Q.....%.....
0800: 00 32 08 42 73 2A 80 F8  FF FF 7F F0 FF FF 7F 1C  .2.Bs*..........
0810: 2B 80 43 00 43 01 02 02  10 43 80 00 2E 08 6C F0  +.C.C....C....l.
0820: FF FF 7F 52 80 01 80 48  53 80 23 01 2F 08 30 01  ...R...HS.#./.0.
0830: 32 08 01 39 08 1D 54 80  23 01 AA 00 01 E5 09 02  2..9..T.#.......
0840: 00 10 08 80 00 43 09 06  00 00 24 55 80 00 00 00  .....C....$U....
0850: 80 25 03 00 00 00 10 02  00 10 00 80 00 81 08 48  .%.............H
0860: 56 80 23 48 57 80 23 48  58 80 23 48 59 80 23 48  V.#HW.#HX.#HY.#H
0870: 5A 80 23 48 5B 80 23 48  5C 80 23 01 4A 08 01 3D  Z.#H[.#H\.#.J..=
0880: 09 02 00 10 01 80 00 B1  08 48 5D 80 23 48 5E 80  .........H].#H^.
0890: 23 48 5F 80 23 03 02 10  04 80 03 03 10 0A 80 48  #H_.#..........H
08A0: 60 80 23 48 61 80 23 48  62 80 23 01 4A 08 01 3D  `.#Ha.#Hb.#.J..=
08B0: 09 02 00 10 02 80 00 C7  08 48 63 80 23 48 64 80  .........Hc.#Hd.
08C0: 23 01 4A 08 01 3D 09 02  00 10 0E 80 00 E1 08 48  #.J..=.........H
08D0: 65 80 23 48 66 80 23 48  67 80 23 01 4A 08 01 3D  e.#Hf.#Hg.#.J..=
08E0: 09 02 00 10 31 80 00 F7  08 48 68 80 23 48 69 80  ....1....Hh.#Hi.
08F0: 23 01 4A 08 01 3D 09 02  00 10 03 80 00 15 09 48  #.J..=.........H
0900: 6A 80 23 48 6B 80 23 48  6C 80 23 48 6D 80 23 01  j.#Hk.#Hl.#Hm.#.
0910: 4A 08 01 3D 09 02 00 10  04 80 00 27 09 48 6E 80  J..=.......'.Hn.
0920: 23 01 4A 08 01 3D 09 02  00 10 05 80 00 3D 09 48  #.J..=.......=.H
0930: 6F 80 23 48 70 80 23 01  4A 08 01 3D 09 01 AA 00  o.#Hp.#.J..=....
0940: 01 E5 09 02 00 10 09 80  00 94 09 03 02 10 17 80  ................
0950: 1D 71 80 23 1D 72 80 23  02 0A 00 00 80 00 7A 09  .q.#.r.#......z.
0960: 24 73 80 01 80 00 80 25  02 00 10 00 80 00 74 09  $s.....%......t.
0970: 42 01 77 09 01 AA 00 01  91 09 24 74 80 01 80 00  B.w.......$t....
0980: 80 25 02 00 10 00 80 00  8E 09 42 01 91 09 01 AA  .%........B.....
0990: 00 01 E5 09 02 00 10 0A  80 00 E5 09 03 02 10 18  ................
09A0: 80 1D 75 80 23 1D 76 80  23 02 09 00 00 80 00 CB  ..u.#.v.#.......
09B0: 09 24 73 80 01 80 00 80  25 02 00 10 00 80 00 C5  .$s.....%.......
09C0: 09 42 01 C8 09 01 AA 00  01 E2 09 24 74 80 01 80  .B.........$t...
09D0: 00 80 25 02 00 10 00 80  00 DF 09 42 01 E2 09 01  ..%........B....
09E0: AA 00 01 E5 09 21 00 3F  00 00 00 00 46 80 15 00  .....!.?....F...
09F0: 00 13 80 02 00 00 77 80  80 03 0A 03 17 00 24 80  ......w.......$.
0A00: 01 38 0B 02 00 00 04 80  80 13 0A 03 17 00 44 80  .8............D.
0A10: 01 38 0B 02 00 00 78 80  80 23 0A 03 17 00 1F 80  .8....x..#......
0A20: 01 38 0B 02 00 00 1F 80  80 33 0A 03 17 00 20 80  .8.......3.... .
0A30: 01 38 0B 02 00 00 79 80  80 43 0A 03 17 00 22 80  .8....y..C....".
0A40: 01 38 0B 02 00 00 7A 80  80 53 0A 03 17 00 22 80  .8....z..S....".
0A50: 01 38 0B 02 00 00 7B 80  80 63 0A 03 17 00 24 80  .8....{..c....$.
0A60: 01 38 0B 02 00 00 7C 80  80 73 0A 03 17 00 20 80  .8....|..s.... .
0A70: 01 38 0B 02 00 00 7D 80  80 83 0A 03 17 00 1F 80  .8....}.........
0A80: 01 38 0B 02 00 00 7E 80  80 93 0A 03 17 00 44 80  .8....~.......D.
0A90: 01 38 0B 02 00 00 7F 80  80 A3 0A 03 17 00 44 80  .8............D.
0AA0: 01 38 0B 02 00 00 09 80  80 B3 0A 03 17 00 1F 80  .8..............
0AB0: 01 38 0B 02 00 00 80 80  80 C3 0A 03 17 00 20 80  .8............ .
0AC0: 01 38 0B 02 00 00 81 80  80 D3 0A 03 17 00 22 80  .8............".
0AD0: 01 38 0B 02 00 00 82 80  80 E3 0A 03 17 00 24 80  .8............$.
0AE0: 01 38 0B 02 00 00 83 80  80 F3 0A 03 17 00 20 80  .8............ .
0AF0: 01 38 0B 02 00 00 84 80  80 03 0B 03 17 00 1F 80  .8..............
0B00: 01 38 0B 02 00 00 85 80  80 13 0B 03 17 00 44 80  .8............D.
0B10: 01 38 0B 02 00 00 86 80  80 23 0B 03 17 00 22 80  .8.......#....".
0B20: 01 38 0B 02 00 00 87 80  80 33 0B 03 17 00 24 80  .8.......3....$.
0B30: 01 38 0B 03 17 00 00 80  1B 24 88 80 00 10 00 80  .8.......$......
0B40: 25 02 00 10 00 80 00 63  0B 48 89 80 23 48 8A 80  %......c.H..#H..
0B50: 23 48 8B 80 23 48 8C 80  23 48 8D 80 23 01 39 0B  #H..#H..#H..#.9.
0B60: 01 1C 0D 02 00 10 01 80  00 85 0B 48 8E 80 23 48  ...........H..#H
0B70: 8F 80 23 48 90 80 23 48  91 80 23 48 92 80 23 01  ..#H..#H..#H..#.
0B80: 39 0B 01 1C 0D 02 00 10  02 80 00 9B 0B 48 93 80  9............H..
0B90: 23 48 94 80 23 01 39 0B  01 1C 0D 02 00 10 0E 80  #H..#.9.........
0BA0: 00 B5 0B 48 95 80 23 48  96 80 23 48 97 80 23 01  ...H..#H..#H..#.
0BB0: 39 0B 01 1C 0D 02 00 10  31 80 00 DB 0B 48 98 80  9.......1....H..
0BC0: 23 48 99 80 23 48 9A 80  23 48 9B 80 23 48 9C 80  #H..#H..#H..#H..
0BD0: 23 48 9D 80 23 01 39 0B  01 1C 0D 02 00 10 03 80  #H..#.9.........
0BE0: 00 01 0C 48 9E 80 23 48  9F 80 23 48 A0 80 23 48  ...H..#H..#H..#H
0BF0: A1 80 23 48 A2 80 23 48  A3 80 23 01 39 0B 01 1C  ..#H..#H..#.9...
0C00: 0D 02 00 10 04 80 00 17  0C 48 A4 80 23 48 A5 80  .........H..#H..
0C10: 23 01 39 0B 01 1C 0D 02  00 10 05 80 00 1C 0D 06  #.9.............
0C20: 00 10 48 A6 80 23 24 A7  80 00 10 00 80 25 02 00  ..H..#$......%..
0C30: 10 00 80 00 50 0C 48 A8  80 23 48 A9 80 23 48 AA  ....P.H..#H..#H.
0C40: 80 23 48 AB 80 23 48 AC  80 23 01 26 0C 01 19 0D  .#H..#H..#.&....
0C50: 02 00 10 01 80 00 61 0C  1A 1D 0D 01 26 0C 01 19  ......a.....&...
0C60: 0D 02 00 10 02 80 00 73  0C 48 AD 80 23 01 26 0C  .......s.H..#.&.
0C70: 01 19 0D 02 00 10 0E 80  00 85 0C 48 AE 80 23 01  ...........H..#.
0C80: 26 0C 01 19 0D 02 00 10  31 80 00 97 0C 48 AF 80  &.......1....H..
0C90: 23 01 26 0C 01 19 0D 02  00 10 03 80 00 BA 0C AA  #.&.............
0CA0: B0 80 00 00 00 00 00 00  00 00 02 10 03 10 00 00  ................
0CB0: 48 B1 80 23 01 26 0C 01  19 0D 02 00 10 04 80 00  H..#.&..........
0CC0: D0 0C 48 B2 80 23 48 B3  80 23 01 26 0C 01 19 0D  ..H..#H..#.&....
0CD0: 02 00 10 05 80 00 E2 0C  48 B4 80 23 01 26 0C 01  ........H..#.&..
0CE0: 19 0D 02 00 10 06 80 00  F4 0C 48 B5 80 23 01 26  ..........H..#.&
0CF0: 0C 01 19 0D 02 00 10 07  80 00 06 0D 48 B6 80 23  ............H..#
0D00: 01 26 0C 01 19 0D 02 00  10 08 80 00 19 0D 03 00  .&..............
0D10: 10 05 80 01 39 0B 01 19  0D 01 1C 0D 1B 03 02 10  ....9...........
0D20: B7 80 48 B8 80 23 48 B9  80 23 48 BA 80 23 48 BB  ..H..#H..#H..#H.
0D30: 80 23 1B 24 BC 80 19 00  00 80 25 03 19 00 00 10  .#.$......%.....
0D40: 02 00 10 00 80 00 52 0D  48 BD 80 23 01 33 0D 01  ......R.H..#.3..
0D50: B7 0F 02 00 10 01 80 00  68 0D 48 BE 80 23 48 BF  ........h.H..#H.
0D60: 80 23 01 33 0D 01 B7 0F  02 00 10 02 80 00 8E 0D  .#.3............
0D70: 48 C0 80 23 48 C1 80 23  48 C2 80 23 48 C3 80 23  H..#H..#H..#H..#
0D80: 48 C4 80 23 48 C5 80 23  01 33 0D 01 B7 0F 02 00  H..#H..#.3......
0D90: 10 0E 80 00 B7 0F 06 1A  00 24 C6 80 1A 00 00 80  .........$......
0DA0: 25 03 1A 00 00 10 02 00  10 00 80 00 BA 0D 03 02  %...............
0DB0: 10 C7 80 48 C8 80 23 01  B1 0F 02 00 10 01 80 00  ...H..#.........
0DC0: CE 0D 03 02 10 C9 80 48  CA 80 23 01 B1 0F 02 00  .......H..#.....
0DD0: 10 02 80 00 E2 0D 03 02  10 CB 80 48 CC 80 23 01  ...........H..#.
0DE0: B1 0F 02 00 10 0E 80 00  F6 0D 03 02 10 CD 80 48  ...............H
0DF0: CE 80 23 01 B1 0F 02 00  10 31 80 00 0A 0E 03 02  ..#......1......
0E00: 10 CF 80 48 D0 80 23 01  B1 0F 02 00 10 03 80 00  ...H..#.........
0E10: 1E 0E 03 02 10 D1 80 48  D2 80 23 01 B1 0F 02 00  .......H..#.....
0E20: 10 04 80 00 32 0E 03 02  10 D3 80 48 D4 80 23 01  ....2......H..#.
0E30: B1 0F 02 00 10 05 80 00  46 0E 03 02 10 D5 80 48  ........F......H
0E40: D6 80 23 01 B1 0F 02 00  10 06 80 00 5A 0E 03 02  ..#.........Z...
0E50: 10 D7 80 48 D8 80 23 01  B1 0F 02 00 10 07 80 00  ...H..#.........
0E60: 6E 0E 03 02 10 D9 80 48  DA 80 23 01 B1 0F 02 00  n......H..#.....
0E70: 10 08 80 00 82 0E 03 02  10 DB 80 48 DC 80 23 01  ...........H..#.
0E80: B1 0F 02 00 10 09 80 00  96 0E 03 02 10 DD 80 48  ...............H
0E90: DE 80 23 01 B1 0F 02 00  10 0A 80 00 AA 0E 03 02  ..#.............
0EA0: 10 DF 80 48 E0 80 23 01  B1 0F 02 00 10 0B 80 00  ...H..#.........
0EB0: BE 0E 03 02 10 E1 80 48  E2 80 23 01 B1 0F 02 00  .......H..#.....
0EC0: 10 0C 80 00 D2 0E 03 02  10 E3 80 48 E4 80 23 01  ...........H..#.
0ED0: B1 0F 02 00 10 1A 80 00  E6 0E 03 02 10 E5 80 48  ...............H
0EE0: E6 80 23 01 B1 0F 02 00  10 29 80 00 FA 0E 03 02  ..#......)......
0EF0: 10 E7 80 48 E8 80 23 01  B1 0F 02 00 10 E9 80 00  ...H..#.........
0F00: 0E 0F 03 02 10 EA 80 48  EB 80 23 01 B1 0F 02 00  .......H..#.....
0F10: 10 78 80 00 22 0F 03 02  10 EC 80 48 ED 80 23 01  .x.."......H..#.
0F20: B1 0F 02 00 10 EE 80 00  36 0F 03 02 10 EF 80 48  ........6......H
0F30: F0 80 23 01 B1 0F 02 00  10 F1 80 00 4A 0F 03 02  ..#.........J...
0F40: 10 F2 80 48 F3 80 23 01  B1 0F 02 00 10 F4 80 00  ...H..#.........
0F50: 5E 0F 03 02 10 F5 80 48  F6 80 23 01 B1 0F 02 00  ^......H..#.....
0F60: 10 F7 80 00 72 0F 03 02  10 F8 80 48 F9 80 23 01  ....r......H..#.
0F70: B1 0F 02 00 10 80 80 00  86 0F 03 02 10 FA 80 48  ...............H
0F80: FB 80 23 01 B1 0F 02 00  10 FC 80 00 9A 0F 03 02  ..#.............
0F90: 10 FD 80 48 FE 80 23 01  B1 0F 02 00 10 FF 80 00  ...H..#.........
0FA0: AE 0F 03 02 10 00 81 48  01 81 23 01 B1 0F 01 33  .......H..#....3
0FB0: 0D 01 99 0D 01 B7 0F 1B  03 1F 00 1B 00 02 27 00  ..............'.
0FC0: 00 80 80 C8 0F 01 E8 0F  02 27 00 01 80 80 D8 0F  .........'......
0FD0: 08 1F 00 02 81 01 E8 0F  02 27 00 02 80 80 E8 0F  .........'......
0FE0: 08 1F 00 03 81 01 E8 0F  15 1F 00 04 81 14 1F 00  ................
0FF0: 04 81 02 27 00 00 80 80  FD 0F 01 1D 10 02 27 00  ...'..........'.
1000: 01 80 80 0D 10 07 1F 00  02 81 01 1D 10 02 27 00  ..............'.
1010: 02 80 80 1D 10 07 1F 00  03 81 01 1D 10 03 20 00  .............. .
1020: 1F 00 07 20 00 05 81 03  21 00 1F 00 07 21 00 06  ... ....!....!..
1030: 81 03 22 00 1F 00 07 22  00 07 81 03 23 00 07 81  .."...."....#...
1040: 03 24 00 1F 00 07 24 00  02 81 03 25 00 1F 00 07  .$....$....%....
1050: 25 00 02 81 03 26 00 1F  00 07 26 00 08 81 03 2A  %....&....&....*
1060: 00 1F 00 15 2A 00 09 81  3F 1C 00 2A 00 0E 80 02  ....*...?..*....
1070: 27 00 00 80 80 7A 10 01  9A 10 02 27 00 01 80 80  '....z.....'....
1080: 8A 10 07 1C 00 01 80 01  9A 10 02 27 00 02 80 80  ...........'....
1090: 9A 10 07 1C 00 02 80 01  9A 10 3F 1C 00 1C 00 0E  ..........?.....
10A0: 80 02 1C 00 00 80 80 B6  10 03 28 00 00 80 03 29  ..........(....)
10B0: 00 01 80 01 E0 10 02 1C  00 01 80 80 CB 10 03 28  ...............(
10C0: 00 01 80 03 29 00 02 80  01 E0 10 02 1C 00 02 80  ....)...........
10D0: 80 E0 10 03 28 00 00 80  03 29 00 02 80 01 E0 10  ....(....)......
10E0: 03 2A 00 1F 00 15 2A 00  04 81 3F 2A 00 2A 00 03  .*....*...?*.*..
10F0: 80 02 2A 00 00 80 80 01  11 03 1D 00 1F 80 01 46  ..*............F
1100: 11 02 2A 00 01 80 80 11  11 03 1D 00 20 80 01 46  ..*......... ..F
1110: 11 02 2A 00 02 80 80 21  11 03 1D 00 22 80 01 46  ..*....!...."..F
1120: 11 02 2A 00 0E 80 80 31  11 03 1D 00 24 80 01 46  ..*....1....$..F
1130: 11 02 2A 00 31 80 80 41  11 03 1D 00 00 80 01 46  ..*.1..A.......F
1140: 11 03 1D 00 00 80 1B 02  1D 00 1F 80 80 57 11 03  .............W..
1150: 2B 00 14 80 01 8C 11 02  1D 00 20 80 80 67 11 03  +......... ..g..
1160: 2B 00 0A 81 01 8C 11 02  1D 00 22 80 80 77 11 03  +........."..w..
1170: 2B 00 0B 81 01 8C 11 02  1D 00 24 80 80 87 11 03  +.........$.....
1180: 2B 00 B7 80 01 8C 11 03  2B 00 0C 81 1B 83 30 00  +.......+.....0.
1190: 15 30 00 0D 81 14 30 00  0D 81 06 2E 00 06 31 00  .0....0.......1.
11A0: 83 2C 00 03 2F 00 01 80  06 2D 00 02 2F 00 1A 80  .,../....-../...
11B0: 05 F3 11 03 00 00 2F 00  14 00 00 02 81 08 00 00  ....../.........
11C0: 07 81 07 00 00 30 00 03  1B 00 00 00 03 27 00 2F  .....0.......'./
11D0: 00 0C 27 00 3F 27 00 27  00 0E 80 1A B8 0F 02 21  ..'.?'.'.......!
11E0: 00 2C 00 03 ED 11 3C 2D  00 2F 00 01 80 0B 2F 00  .,....<-./..../.
11F0: 01 AB 11 41 01 80 1A 80  2D 00 00 00 02 00 00 0E  ...A....-.......
1200: 81 00 0F 12 07 30 00 0D  81 06 2E 00 01 A0 11 02  .....0..........
1210: 30 00 2C 00 03 1E 12 3C  2D 00 00 80 01 80 03 00  0.,....<-.......
1220: 00 2C 00 07 00 00 0F 81  02 30 00 00 00 02 37 12  .,.......0....7.
1230: 3C 2D 00 29 80 01 80 AA  30 00 05 10 06 10 00 00  <-.)....0.......
1240: 00 00 00 00 00 00 00 00  02 31 00 00 80 00 75 12  .........1....u.
1250: 02 06 10 07 80 04 5F 12  48 10 81 23 01 72 12 02  ......_.H..#.r..
1260: 06 10 03 80 04 6E 12 48  11 81 23 01 72 12 48 12  .....n.H..#.r.H.
1270: 81 23 05 31 00 B1 00 32  00 02 32 00 00 80 80 97  .#.1...2..2.....
1280: 12 24 13 81 2E 00 2D 00  25 02 00 10 00 80 00 94  .$....-.%.......
1290: 12 01 94 12 01 D3 12 02  32 00 01 80 80 B5 12 24  ........2......$
12A0: 14 81 2E 00 2D 00 25 02  00 10 00 80 00 B2 12 01  ....-.%.........
12B0: B2 12 01 D3 12 02 32 00  02 80 80 D3 12 24 15 81  ......2......$..
12C0: 2E 00 2D 00 25 02 00 10  00 80 00 D0 12 01 D0 12  ..-.%...........
12D0: 01 D3 12 02 00 10 00 80  80 EC 12 08 30 00 0D 81  ............0...
12E0: 06 2E 00 06 31 00 01 A0  11 01 46 13 02 00 10 29  ....1.....F....)
12F0: 80 80 05 13 07 30 00 0D  81 06 2E 00 06 31 00 01  .....0.......1..
1300: A0 11 01 46 13 02 00 10  E9 80 80 10 13 01 46 13  ...F..........F.
1310: 03 2E 00 00 10 03 00 00  00 10 0C 00 00 3F 27 00  .............?'.
1320: 00 00 0E 80 03 00 00 00  10 14 00 00 02 81 08 00  ................
1330: 00 07 81 07 00 00 30 00  03 1B 00 00 00 1A B8 0F  ......0.........
1340: 1A 47 13 01 A0 11 1B 03  02 10 28 00 03 03 10 29  .G........(....)
1350: 00 03 04 10 1D 00 15 04  10 08 80 03 05 10 27 00  ..............'.
1360: 1A 47 11 03 06 10 2B 00  02 27 00 00 80 80 7D 13  .G....+..'....}.
1370: 03 07 10 00 80 03 08 10  01 80 01 A7 13 02 27 00  ..............'.
1380: 01 80 80 92 13 03 07 10  00 80 03 08 10 00 80 01  ................
1390: A7 13 02 27 00 02 80 80  A7 13 03 07 10 01 80 03  ...'............
13A0: 08 10 01 80 01 A7 13 48  16 81 23 03 02 10 20 00  .......H..#... .
13B0: AA 20 00 05 10 06 10 07  10 00 00 08 10 09 10 00  . ..............
13C0: 00 48 17 81 23 03 02 10  22 00 AA 22 00 05 10 06  .H..#...".."....
13D0: 10 07 10 00 00 08 10 09  10 00 00 48 18 81 23 1B  ...........H..#.
13E0: 48 19 81 23 48 1A 81 23  48 9E 80 23 48 1B 81 23  H..#H..#H..#H..#
13F0: 03 1D 00 1F 80 1A 47 11  03 02 10 2B 00 03 1D 00  ......G....+....
1400: 20 80 1A 47 11 03 03 10  2B 00 03 1D 00 22 80 1A   ..G....+...."..
1410: 47 11 03 04 10 2B 00 03  1D 00 24 80 1A 47 11 03  G....+....$..G..
1420: 05 10 2B 00 03 1D 00 00  80 1A 47 11 03 06 10 2B  ..+.......G....+
1430: 00 48 1C 81 23 48 1D 81  23 48 12 81 23 48 11 81  .H..#H..#H..#H..
1440: 23 48 10 81 23 1B 1B                              #H..#..         
```

#### Opcodes

```
  0: 0x0001 [0x20] SET_CLI_EVENT_UC_FLAG: Lock player control
  1: 0x0003 [0x1E] EventEntity looks at LocalPlayer and starts talking
  2: 0x0008 [0x6F] WAIT_FRAME_DELAY: Yield until WaitTime reaches zero
  3: 0x0009 [0x70] WAIT_ENTITY_RENDER_FLAG: Wait while EventEntity->Render.Flags3 bit 2 is set (cancel turn if not)
  4: 0x000A [0x41] ExtData[1]->WorkLocal[1] = Work_Zone[2] (bits 0*-1*)
  5: 0x0013 [0x41] ExtData[1]->WorkLocal[2] = Work_Zone[2] (bits 2*-5*)
  6: 0x001C [0x41] ExtData[1]->WorkLocal[3] = Work_Zone[2] (bits 6*-6*)
  7: 0x0025 [0x41] ExtData[1]->WorkLocal[4] = Work_Zone[2] (bits 7*-7*)
  8: 0x002E [0x41] ExtData[1]->WorkLocal[5] = Work_Zone[2] (bits 8*-8*)
  9: 0x0037 [0x41] ExtData[1]->WorkLocal[7] = Work_Zone[2] (bits 9*-9*)
 10: 0x0040 [0x41] ExtData[1]->WorkLocal[8] = Work_Zone[2] (bits 10*-10*)
 11: 0x0049 [0x41] ExtData[1]->WorkLocal[6] = Work_Zone[2] (bits 11*-11*)
 12: 0x0052 [0x41] ExtData[1]->WorkLocal[10] = Work_Zone[2] (bits 12*-12*)
 13: 0x005B [0x41] ExtData[1]->WorkLocal[9] = Work_Zone[2] (bits 13*-13*)
 14: 0x0064 [0x41] ExtData[1]->WorkLocal[21] = Work_Zone[2] (bits 14*-14*)
 15: 0x006D [0x03] ExtData[1]->WorkLocal[30] = Work_Zone[3]
 16: 0x0072 [0x03] ExtData[1]->WorkLocal[11] = Work_Zone[4]
 17: 0x0077 [0x1D] PRINT_EVENT_MESSAGE(message_id=11609*)
     "The IRNC has dispatched me to help support all those who wish to participate in Conflict."
 18: 0x007A [0x23] WAIT_FOR_DIALOG_INTERACTION
 19: 0x007B [0x06] ExtData[1]->WorkLocal[20] = 0
 20: 0x007E [0x02] IF !(ExtData[1]->WorkLocal[3] == 0*) GOTO 0x00AA
 21: 0x0086 [0x02] IF !(ExtData[1]->WorkLocal[2] >= 3*) GOTO 0x0095
 22: 0x008E [0x1D] PRINT_EVENT_MESSAGE(message_id=11611*)
     "Only adventurers who have achieved rank 3 or higher may take part in official Ballista matches. Please return when you have proven your loyalty to your home nation."
 23: 0x0091 [0x23] WAIT_FOR_DIALOG_INTERACTION
 24: 0x0092 [0x01] GOTO 0x00A3
 25: 0x0095 [0x03] Work_Zone[2] = 576*
 26: 0x009A [0x03] Work_Zone[3] = ExtData[1]->WorkLocal[1]
 27: 0x009F [0x1D] PRINT_EVENT_MESSAGE(message_id=11610*)
     "Before you can take part in this Conflict event, you must first possess $6. You can obtain one from your nation's Conflict Commander, [Excenmille, stationed in Northern San d'Oria./Invincible Shield, stationed in the Metalworks in Bastok./Mhabi Molkot, stationed in Heavens Tower in Windurst.]"
 28: 0x00A2 [0x23] WAIT_FOR_DIALOG_INTERACTION

SUBROUTINE_00A3:
 29: 0x00A3 [0x05] ExtData[1]->WorkLocal[20] = 1
 30: 0x00A6 [0x1D] PRINT_EVENT_MESSAGE(message_id=11612*)
     "However, if you still wish to take part in Ballista, participation in matches held within Diorama Abdhaljs-Ghelsba is open to all citizens of Vana'diel."
 31: 0x00A9 [0x23] WAIT_FOR_DIALOG_INTERACTION

SUBROUTINE_00AA:
 32: 0x00AA [0x06] ExtData[1]->WorkLocal[17] = 0
 33: 0x00AD [0x2E] SET_CLI_EVENT_CANCEL_FLAGS()
 34: 0x00AE [0x83] ExtData[1]->WorkLocal[19] = GetGameTime()
 35: 0x00B1 [0x15] ExtData[1]->WorkLocal[19] /= 7200*
 36: 0x00B6 [0x14] ExtData[1]->WorkLocal[19] *= 7200*
 37: 0x00BB [0x03] Work_Zone[2] = 500*
 38: 0x00C0 [0x03] Work_Zone[3] = 714*
 39: 0x00C5 [0x03] Work_Zone[4] = 717*
 40: 0x00CA [0x03] Work_Zone[5] = 758*
 41: 0x00CF [0x03] Work_Zone[6] = 759*
 42: 0x00D4 [0x02] IF !(ExtData[1]->WorkLocal[20] == 1*) GOTO 0x0106
 43: 0x00DC [0x3C] SET_BIT_FLAG_CONDITIONAL(target_work_offset=ExtData[1]->WorkLocal[17], bit_index_work_offset=1*, condition_work_offset=1*)
 44: 0x00E3 [0x3C] SET_BIT_FLAG_CONDITIONAL(target_work_offset=ExtData[1]->WorkLocal[17], bit_index_work_offset=2*, condition_work_offset=1*)
 45: 0x00EA [0x3C] SET_BIT_FLAG_CONDITIONAL(target_work_offset=ExtData[1]->WorkLocal[17], bit_index_work_offset=3*, condition_work_offset=1*)
 46: 0x00F1 [0x3C] SET_BIT_FLAG_CONDITIONAL(target_work_offset=ExtData[1]->WorkLocal[17], bit_index_work_offset=5*, condition_work_offset=1*)
 47: 0x00F8 [0x3C] SET_BIT_FLAG_CONDITIONAL(target_work_offset=ExtData[1]->WorkLocal[17], bit_index_work_offset=6*, condition_work_offset=1*)
 48: 0x00FF [0x3C] SET_BIT_FLAG_CONDITIONAL(target_work_offset=ExtData[1]->WorkLocal[17], bit_index_work_offset=7*, condition_work_offset=1*)
 49: 0x0106 [0x02] IF !(ExtData[1]->WorkLocal[21] == 1*) GOTO 0x012E
 50: 0x010E [0x83] ExtData[1]->WorkLocal[0] = GetGameTime()
 51: 0x0111 [0x1A] CALL_SUBROUTINE(address=0x09E7)
 52: 0x0114 [0x02] IF !(ExtData[1]->WorkLocal[23] == 0*) GOTO 0x0126
 53: 0x011C [0x3C] SET_BIT_FLAG_CONDITIONAL(target_work_offset=ExtData[1]->WorkLocal[17], bit_index_work_offset=9*, condition_work_offset=1*)
 54: 0x0123 [0x01] GOTO 0x012B
 55: 0x0126 [0x03] Work_Zone[9] = ExtData[1]->WorkLocal[23]

SUBROUTINE_012B:
 56: 0x012B [0x01] GOTO 0x014A
 57: 0x012E [0x3C] SET_BIT_FLAG_CONDITIONAL(target_work_offset=ExtData[1]->WorkLocal[17], bit_index_work_offset=8*, condition_work_offset=1*)
 58: 0x0135 [0x3C] SET_BIT_FLAG_CONDITIONAL(target_work_offset=ExtData[1]->WorkLocal[17], bit_index_work_offset=9*, condition_work_offset=1*)
 59: 0x013C [0x3C] SET_BIT_FLAG_CONDITIONAL(target_work_offset=ExtData[1]->WorkLocal[17], bit_index_work_offset=11*, condition_work_offset=1*)
 60: 0x0143 [0x3C] SET_BIT_FLAG_CONDITIONAL(target_work_offset=ExtData[1]->WorkLocal[17], bit_index_work_offset=12*, condition_work_offset=1*)

SUBROUTINE_014A:
 61: 0x014A [0x3C] SET_BIT_FLAG_CONDITIONAL(target_work_offset=ExtData[1]->WorkLocal[17], bit_index_work_offset=8*, condition_work_offset=1*)
 62: 0x0151 [0x3C] SET_BIT_FLAG_CONDITIONAL(target_work_offset=ExtData[1]->WorkLocal[17], bit_index_work_offset=9*, condition_work_offset=1*)
 63: 0x0158 [0x3C] SET_BIT_FLAG_CONDITIONAL(target_work_offset=ExtData[1]->WorkLocal[17], bit_index_work_offset=10*, condition_work_offset=1*)
 64: 0x015F [0x3C] SET_BIT_FLAG_CONDITIONAL(target_work_offset=ExtData[1]->WorkLocal[17], bit_index_work_offset=11*, condition_work_offset=1*)
 65: 0x0166 [0x3C] SET_BIT_FLAG_CONDITIONAL(target_work_offset=ExtData[1]->WorkLocal[17], bit_index_work_offset=12*, condition_work_offset=1*)
 66: 0x016D [0x24] CREATE_DIALOG(message_id=11614*, default_option=ExtData[1]->WorkLocal[18], option_flags=ExtData[1]->WorkLocal[17])
     "What can I help you with? [Nothing./The upcoming Ballista matches./The Ballista schedule./A teleport to the Ballista match./The rules of Ballista./Borrow/Return $6./Borrow/Return $6./Borrow/Return $6./The upcoming Brenner matches./A teleport to the Brenner match (Lv $7)./The rules of Brenner./Borrow/Return $6./Borrow/Return $6.]"
 67: 0x0174 [0x25] WAIT_DIALOG_SELECT()
 68: 0x0175 [0x40] SET_BIT_WORK_RANGE(start_bit=0*, end_bit=15*, target=Work_Zone[1], source=Work_Zone[0])
 69: 0x017E [0x03] ExtData[1]->WorkLocal[18] = Work_Zone[0]
 70: 0x0183 [0x02] IF !(Work_Zone[0] == 1*) GOTO 0x0194
 71: 0x018B [0x1A] CALL_SUBROUTINE(address=0x118D)
 72: 0x018E [0x01] GOTO 0x00AA

SUBROUTINE_01D5:
 73: 0x01D5 [0x83] ExtData[1]->WorkLocal[44] = GetGameTime()
 74: 0x01D8 [0x03] ExtData[1]->WorkLocal[27] = ExtData[1]->WorkLocal[44]
 75: 0x01DD [0x03] ExtData[1]->WorkLocal[39] = 0*

SUBROUTINE_01E2:
 76: 0x01E2 [0x02] IF !(ExtData[1]->WorkLocal[39] > 2*) GOTO 0x02E5
 77: 0x01EA [0x1A] CALL_SUBROUTINE(address=0x0FB8)
 78: 0x01ED [0x06] ExtData[1]->WorkLocal[0] = 0
 79: 0x01F0 [0x02] IF !(ExtData[1]->WorkLocal[29] == 30*) GOTO 0x01FE
 80: 0x01F8 [0x05] ExtData[1]->WorkLocal[0] = 1
 81: 0x01FB [0x01] GOTO 0x0256
 82: 0x01FE [0x02] IF !(ExtData[1]->WorkLocal[29] == 40*) GOTO 0x0214
 83: 0x0206 [0x02] IF !(LocalPlayer->JobLevel < 31*) GOTO 0x0211
 84: 0x020E [0x05] ExtData[1]->WorkLocal[0] = 1
 85: 0x0211 [0x01] GOTO 0x0256
 86: 0x0214 [0x02] IF !(ExtData[1]->WorkLocal[29] == 50*) GOTO 0x022A
 87: 0x021C [0x02] IF !(LocalPlayer->JobLevel < 41*) GOTO 0x0227
 88: 0x0224 [0x05] ExtData[1]->WorkLocal[0] = 1
 89: 0x0227 [0x01] GOTO 0x0256
 90: 0x022A [0x02] IF !(ExtData[1]->WorkLocal[29] == 60*) GOTO 0x0240
 91: 0x0232 [0x02] IF !(LocalPlayer->JobLevel < 51*) GOTO 0x023D
 92: 0x023A [0x05] ExtData[1]->WorkLocal[0] = 1
 93: 0x023D [0x01] GOTO 0x0256
 94: 0x0240 [0x02] IF !(ExtData[1]->WorkLocal[29] == 0*) GOTO 0x0256
 95: 0x0248 [0x02] IF !(LocalPlayer->JobLevel < 61*) GOTO 0x0253
 96: 0x0250 [0x05] ExtData[1]->WorkLocal[0] = 1
 97: 0x0253 [0x01] GOTO 0x0256

SUBROUTINE_0256:
 98: 0x0256 [0x02] IF !(ExtData[1]->WorkLocal[31] > ExtData[1]->WorkLocal[44]) GOTO 0x02DF
 99: 0x025E [0x02] IF !(ExtData[1]->WorkLocal[36] < ExtData[1]->WorkLocal[44]) GOTO 0x02DF
100: 0x0266 [0x02] IF !(ExtData[1]->WorkLocal[0] == 1*) GOTO 0x02D8
101: 0x026E [0x02] IF !(ExtData[1]->WorkLocal[39] > 2*) GOTO 0x02D1
102: 0x0276 [0x1D] PRINT_EVENT_MESSAGE(message_id=11618*)
     "The following information regards the match I am currently authorized to teleport you to..."
103: 0x0279 [0x23] WAIT_FOR_DIALOG_INTERACTION
104: 0x027A [0x1A] CALL_SUBROUTINE(address=0x1347)
105: 0x027D [0x24] CREATE_DIALOG(message_id=11619*, default_option=1*, option_flags=0*)
     "Teleport? [Right away./Not yet.]"
106: 0x0284 [0x25] WAIT_DIALOG_SELECT()
107: 0x0285 [0x02] IF !(Work_Zone[0] == 0*) GOTO 0x02CE
108: 0x028D [0x20] SET_CLI_EVENT_UC_FLAG: Lock player control
109: 0x028F [0x42] SET_CLI_EVENT_CANCEL_DATA()
110: 0x0290 [0x40] SET_BIT_WORK_RANGE(start_bit=16*, end_bit=31*, target=Work_Zone[1], source=ExtData[1]->WorkLocal[39])
111: 0x0299 [0x73] EventEntity casts magic 122* on LocalPlayer
112: 0x02A4 [0x43] SEND_EVENT_UPDATE: Send pending tag to server (packet 0x005B)
113: 0x02A6 [0x43] SEND_EVENT_UPDATE: Check pending flag (skip if not pending)
114: 0x02A8 [0x1C] WAIT(260* ticks)
115: 0x02AB [0x02] IF !(Work_Zone[2] == 1*) GOTO 0x02C3
116: 0x02B3 [0x6C] FADE_ENTITY_COLOR(entity_id=LocalPlayer, end_alpha=128*, fade_time=0*)
117: 0x02BC [0x1D] PRINT_EVENT_MESSAGE(message_id=11620*)
     "I am sorry, but I cannot teleport you at this time."
118: 0x02BF [0x23] WAIT_FOR_DIALOG_INTERACTION
119: 0x02C0 [0x01] GOTO 0x02C4
120: 0x02C3 [0x30] SET_UCOFF_CONTINUE_ZERO()

SUBROUTINE_02C4:
121: 0x02C4 [0x03] Work_Zone[1] = 1073741824*
122: 0x02C9 [0x21] END_EVENT
123: 0x02CA [0x00] END_REQSTACK()

SUBROUTINE_02CE:
124: 0x02CE [0x01] GOTO 0x02D5
125: 0x02D1 [0x1D] PRINT_EVENT_MESSAGE(message_id=11621*)
     "I am sorry, but I cannot teleport you at this time. Please return when there are less than twenty-four hours remaining until the next match."
126: 0x02D4 [0x23] WAIT_FOR_DIALOG_INTERACTION

SUBROUTINE_02D5:
127: 0x02D5 [0x01] GOTO 0x02DF
128: 0x02D8 [0x1D] PRINT_EVENT_MESSAGE(message_id=11617*)
     "I'm sorry, but I am not authorized to teleport persons who do not meet the level requirement for the match."
129: 0x02DB [0x23] WAIT_FOR_DIALOG_INTERACTION
130: 0x02DC [0x01] GOTO 0x02E5

SUBROUTINE_02DF:
131: 0x02DF [0x0B] ExtData[1]->WorkLocal[39]++
132: 0x02E2 [0x01] GOTO 0x01E2

SUBROUTINE_02E5:
133: 0x02E5 [0x01] GOTO 0x00AA

SUBROUTINE_0333:
134: 0x0333 [0x01] GOTO 0x034D
135: 0x0336 [0x24] CREATE_DIALOG(message_id=11631*, default_option=1*, option_flags=0*)
     "Return your $3? [Yes./No.]"
136: 0x033D [0x25] WAIT_DIALOG_SELECT()
137: 0x033E [0x02] IF !(Work_Zone[0] == 0*) GOTO 0x034A
138: 0x0346 [0x42] SET_CLI_EVENT_CANCEL_DATA()
139: 0x0347 [0x01] GOTO 0x034D
140: 0x034A [0x01] GOTO 0x00AA

SUBROUTINE_034D:
141: 0x034D [0x01] GOTO 0x09E5
142: 0x0350 [0x02] IF !(Work_Zone[0] == 6*) GOTO 0x03A1
143: 0x0358 [0x03] Work_Zone[2] = 714*
144: 0x035D [0x1D] PRINT_EVENT_MESSAGE(message_id=11633*)
     "By carrying $6 with you during a Ballista match, any temporary item you quarry will be automatically placed in your bag without you having to select whether you wish to keep it, use it, or throw it away."
145: 0x0360 [0x23] WAIT_FOR_DIALOG_INTERACTION
146: 0x0361 [0x1D] PRINT_EVENT_MESSAGE(message_id=11634*)
     "When your inventory is full, or you cannot carry any more of a certain item, the newly quarried item will be automatically discarded. If you wish, I can lend you one of these shovels, free of charge."
147: 0x0364 [0x23] WAIT_FOR_DIALOG_INTERACTION
148: 0x0365 [0x02] IF !(ExtData[1]->WorkLocal[7] == 0*) GOTO 0x0387
149: 0x036D [0x24] CREATE_DIALOG(message_id=11635*, default_option=1*, option_flags=0*)
     "Borrow $6? [Yes./No.]"
150: 0x0374 [0x25] WAIT_DIALOG_SELECT()
151: 0x0375 [0x02] IF !(Work_Zone[0] == 0*) GOTO 0x0381
152: 0x037D [0x42] SET_CLI_EVENT_CANCEL_DATA()
153: 0x037E [0x01] GOTO 0x0384
154: 0x0381 [0x01] GOTO 0x00AA

SUBROUTINE_0384:
155: 0x0384 [0x01] GOTO 0x039E
156: 0x0387 [0x24] CREATE_DIALOG(message_id=11637*, default_option=1*, option_flags=0*)
     "Return the $3? [Yes./No.]"
157: 0x038E [0x25] WAIT_DIALOG_SELECT()
158: 0x038F [0x02] IF !(Work_Zone[0] == 0*) GOTO 0x039B
159: 0x0397 [0x42] SET_CLI_EVENT_CANCEL_DATA()
160: 0x0398 [0x01] GOTO 0x039E
161: 0x039B [0x01] GOTO 0x00AA

SUBROUTINE_039E:
162: 0x039E [0x01] GOTO 0x09E5
163: 0x03A1 [0x02] IF !(Work_Zone[0] == 7*) GOTO 0x03F2
164: 0x03A9 [0x03] Work_Zone[2] = 717*
165: 0x03AE [0x1D] PRINT_EVENT_MESSAGE(message_id=11639*)
     "When carrying $6 with you while participating in a Ballista match, you will have the option to keep or throw away the first Petra you find. This is useful when you want to continue /sprinting."
166: 0x03B1 [0x23] WAIT_FOR_DIALOG_INTERACTION
167: 0x03B2 [0x1D] PRINT_EVENT_MESSAGE(message_id=11640*)
     "If you wish, I can loan you one, free of charge."
168: 0x03B5 [0x23] WAIT_FOR_DIALOG_INTERACTION
169: 0x03B6 [0x02] IF !(ExtData[1]->WorkLocal[6] == 0*) GOTO 0x03D8
170: 0x03BE [0x24] CREATE_DIALOG(message_id=11641*, default_option=1*, option_flags=0*)
     "Borrow $6? [Yes./No.]"
171: 0x03C5 [0x25] WAIT_DIALOG_SELECT()
172: 0x03C6 [0x02] IF !(Work_Zone[0] == 0*) GOTO 0x03D2
173: 0x03CE [0x42] SET_CLI_EVENT_CANCEL_DATA()
174: 0x03CF [0x01] GOTO 0x03D5
175: 0x03D2 [0x01] GOTO 0x00AA

SUBROUTINE_03D5:
176: 0x03D5 [0x01] GOTO 0x03EF
177: 0x03D8 [0x24] CREATE_DIALOG(message_id=11642*, default_option=1*, option_flags=0*)
     "Return the $3? [Yes./No.]"
178: 0x03DF [0x25] WAIT_DIALOG_SELECT()
179: 0x03E0 [0x02] IF !(Work_Zone[0] == 0*) GOTO 0x03EC
180: 0x03E8 [0x42] SET_CLI_EVENT_CANCEL_DATA()
181: 0x03E9 [0x01] GOTO 0x03EF
182: 0x03EC [0x01] GOTO 0x00AA

SUBROUTINE_03EF:
183: 0x03EF [0x01] GOTO 0x09E5
184: 0x03F2 [0x02] IF !(Work_Zone[0] == 8*) GOTO 0x076A
185: 0x03FA [0x06] ExtData[1]->WorkLocal[16] = 0
186: 0x03FD [0x06] ExtData[1]->WorkLocal[15] = 0
187: 0x0400 [0x03] Work_Zone[2] = 750*
188: 0x0405 [0x03] Work_Zone[3] = 600*
189: 0x040A [0x03] Work_Zone[4] = 500*
190: 0x040F [0x03] Work_Zone[5] = 400*
191: 0x0414 [0x03] Work_Zone[6] = 300*
192: 0x0419 [0x24] CREATE_DIALOG(message_id=11649*, default_option=0*, option_flags=0*)
     "Select a match level... [View all levels./No restriction ($0 gil per match)./Level 60 ($1 gil per match)./Level 50 ($2 gil per match)./Level 40 ($3 gil per match)./Level 30 ($4 gil per match)./Return.]"
193: 0x0420 [0x25] WAIT_DIALOG_SELECT()
194: 0x0421 [0x02] IF !(Work_Zone[0] == 0*) GOTO 0x0431
195: 0x0429 [0x03] ExtData[1]->WorkLocal[15] = 4294967295*
196: 0x042E [0x01] GOTO 0x048C
197: 0x0431 [0x02] IF !(Work_Zone[0] == 1*) GOTO 0x0441
198: 0x0439 [0x03] ExtData[1]->WorkLocal[15] = 75*
199: 0x043E [0x01] GOTO 0x048C
200: 0x0441 [0x02] IF !(Work_Zone[0] == 2*) GOTO 0x0451
201: 0x0449 [0x03] ExtData[1]->WorkLocal[15] = 60*
202: 0x044E [0x01] GOTO 0x048C
203: 0x0451 [0x02] IF !(Work_Zone[0] == 3*) GOTO 0x0461
204: 0x0459 [0x03] ExtData[1]->WorkLocal[15] = 50*
205: 0x045E [0x01] GOTO 0x048C
206: 0x0461 [0x02] IF !(Work_Zone[0] == 4*) GOTO 0x0471
207: 0x0469 [0x03] ExtData[1]->WorkLocal[15] = 40*
208: 0x046E [0x01] GOTO 0x048C
209: 0x0471 [0x02] IF !(Work_Zone[0] == 5*) GOTO 0x0481
210: 0x0479 [0x03] ExtData[1]->WorkLocal[15] = 30*
211: 0x047E [0x01] GOTO 0x048C
212: 0x0481 [0x02] IF !(Work_Zone[0] == 6*) GOTO 0x048C
213: 0x0489 [0x01] GOTO 0x048C

SUBROUTINE_048C:
214: 0x048C [0x02] IF !(Work_Zone[0] > 5*) GOTO 0x0764
215: 0x0494 [0x03] ExtData[1]->WorkLocal[22] = ExtData[1]->WorkLocal[19]

SUBROUTINE_0499:
216: 0x0499 [0x03] ExtData[1]->WorkLocal[14] = ExtData[1]->WorkLocal[22]
217: 0x049E [0x06] ExtData[1]->WorkLocal[12] = 0
218: 0x04A1 [0x06] ExtData[1]->WorkLocal[13] = 0

SUBROUTINE_04A4:
219: 0x04A4 [0x02] IF !(ExtData[1]->WorkLocal[12] > 84*) GOTO 0x0614
220: 0x04AC [0x03] ExtData[1]->WorkLocal[0] = ExtData[1]->WorkLocal[14]
221: 0x04B1 [0x1A] CALL_SUBROUTINE(address=0x09E7)
222: 0x04B4 [0x02] IF !(ExtData[1]->WorkLocal[23] == 0*) GOTO 0x0601
223: 0x04BC [0x06] ExtData[1]->WorkLocal[0] = 0
224: 0x04BF [0x02] IF !(ExtData[1]->WorkLocal[15] == 4294967295*) GOTO 0x04CD
225: 0x04C7 [0x05] ExtData[1]->WorkLocal[0] = 1
226: 0x04CA [0x01] GOTO 0x04D8
227: 0x04CD [0x02] IF !(ExtData[1]->WorkLocal[15] == ExtData[1]->WorkLocal[23]) GOTO 0x04D8
228: 0x04D5 [0x05] ExtData[1]->WorkLocal[0] = 1

SUBROUTINE_04D8:
229: 0x04D8 [0x02] IF !(ExtData[1]->WorkLocal[0] == 1*) GOTO 0x0601
230: 0x04E0 [0x03] ExtData[1]->WorkLocal[0] = ExtData[1]->WorkLocal[19]
231: 0x04E5 [0x07] ExtData[1]->WorkLocal[0] += 604800*
232: 0x04EA [0x02] IF !(ExtData[1]->WorkLocal[14] > ExtData[1]->WorkLocal[0]) GOTO 0x0601
233: 0x04F2 [0x02] IF !(ExtData[1]->WorkLocal[13] > 10*) GOTO 0x0601
234: 0x04FA [0x02] IF !(ExtData[1]->WorkLocal[13] == 0*) GOTO 0x0514
235: 0x0502 [0x03] Work_Zone[2] = ExtData[1]->WorkLocal[14]
236: 0x0507 [0x03] Work_Zone_1700[2] = ExtData[1]->WorkLocal[23]
237: 0x050C [0x15] Work_Zone_1700[2] /= 10*
238: 0x0511 [0x01] GOTO 0x05FE
239: 0x0514 [0x02] IF !(ExtData[1]->WorkLocal[13] == 1*) GOTO 0x052E
240: 0x051C [0x03] Work_Zone[3] = ExtData[1]->WorkLocal[14]
241: 0x0521 [0x03] Work_Zone_1700[3] = ExtData[1]->WorkLocal[23]
242: 0x0526 [0x15] Work_Zone_1700[3] /= 10*
243: 0x052B [0x01] GOTO 0x05FE
244: 0x052E [0x02] IF !(ExtData[1]->WorkLocal[13] == 2*) GOTO 0x0548
245: 0x0536 [0x03] Work_Zone[4] = ExtData[1]->WorkLocal[14]
246: 0x053B [0x03] Work_Zone_1700[4] = ExtData[1]->WorkLocal[23]
247: 0x0540 [0x15] Work_Zone_1700[4] /= 10*
248: 0x0545 [0x01] GOTO 0x05FE
249: 0x0548 [0x02] IF !(ExtData[1]->WorkLocal[13] == 3*) GOTO 0x0562
250: 0x0550 [0x03] Work_Zone[5] = ExtData[1]->WorkLocal[14]
251: 0x0555 [0x03] Work_Zone_1700[5] = ExtData[1]->WorkLocal[23]
252: 0x055A [0x15] Work_Zone_1700[5] /= 10*
253: 0x055F [0x01] GOTO 0x05FE
254: 0x0562 [0x02] IF !(ExtData[1]->WorkLocal[13] == 4*) GOTO 0x057C
255: 0x056A [0x03] Work_Zone[6] = ExtData[1]->WorkLocal[14]
256: 0x056F [0x03] Work_Zone_1700[6] = ExtData[1]->WorkLocal[23]
257: 0x0574 [0x15] Work_Zone_1700[6] /= 10*
258: 0x0579 [0x01] GOTO 0x05FE
259: 0x057C [0x02] IF !(ExtData[1]->WorkLocal[13] == 5*) GOTO 0x0596
260: 0x0584 [0x03] Work_Zone[7] = ExtData[1]->WorkLocal[14]
261: 0x0589 [0x03] Work_Zone_1700[7] = ExtData[1]->WorkLocal[23]
262: 0x058E [0x15] Work_Zone_1700[7] /= 10*
263: 0x0593 [0x01] GOTO 0x05FE
264: 0x0596 [0x02] IF !(ExtData[1]->WorkLocal[13] == 6*) GOTO 0x05B0
265: 0x059E [0x03] Work_Zone[8] = ExtData[1]->WorkLocal[14]
266: 0x05A3 [0x03] Work_Zone_1700[8] = ExtData[1]->WorkLocal[23]
267: 0x05A8 [0x15] Work_Zone_1700[8] /= 10*
268: 0x05AD [0x01] GOTO 0x05FE
269: 0x05B0 [0x02] IF !(ExtData[1]->WorkLocal[13] == 7*) GOTO 0x05CA
270: 0x05B8 [0x03] Work_Zone[9] = ExtData[1]->WorkLocal[14]
271: 0x05BD [0x03] Work_Zone_1700[9] = ExtData[1]->WorkLocal[23]
272: 0x05C2 [0x15] Work_Zone_1700[9] /= 10*
273: 0x05C7 [0x01] GOTO 0x05FE
274: 0x05CA [0x02] IF !(ExtData[1]->WorkLocal[13] == 8*) GOTO 0x05E4
275: 0x05D2 [0x03] Work_Zone_1700[0] = ExtData[1]->WorkLocal[14]
276: 0x05D7 [0x03] Work_Zone_1700[10] = ExtData[1]->WorkLocal[23]
277: 0x05DC [0x15] Work_Zone_1700[10] /= 10*
278: 0x05E1 [0x01] GOTO 0x05FE
279: 0x05E4 [0x02] IF !(ExtData[1]->WorkLocal[13] == 9*) GOTO 0x05FE
280: 0x05EC [0x03] Work_Zone_1700[1] = ExtData[1]->WorkLocal[14]
281: 0x05F1 [0x03] Work_Zone_1700[11] = ExtData[1]->WorkLocal[23]
282: 0x05F6 [0x15] Work_Zone_1700[11] /= 10*
283: 0x05FB [0x01] GOTO 0x05FE

SUBROUTINE_05FE:
284: 0x05FE [0x0B] ExtData[1]->WorkLocal[13]++
285: 0x0601 [0x02] IF !(ExtData[1]->WorkLocal[13] > 10*) GOTO 0x060E
286: 0x0609 [0x07] ExtData[1]->WorkLocal[14] += 7200*
287: 0x060E [0x0B] ExtData[1]->WorkLocal[12]++
288: 0x0611 [0x01] GOTO 0x04A4
289: 0x0614 [0x03] ExtData[1]->WorkLocal[17] = 2047*
290: 0x0619 [0x0C] ExtData[1]->WorkLocal[13]--

SUBROUTINE_061C:
291: 0x061C [0x02] IF !(ExtData[1]->WorkLocal[13] < 0*) GOTO 0x0631
292: 0x0624 [0x3D] CLEAR_BIT_FLAG_CONDITIONAL(target_work_offset=ExtData[1]->WorkLocal[17], bit_index_work_offset=ExtData[1]->WorkLocal[13], condition_work_offset=1*)
293: 0x062B [0x0C] ExtData[1]->WorkLocal[13]--
294: 0x062E [0x01] GOTO 0x061C
295: 0x0631 [0x24] CREATE_DIALOG(message_id=11650*, default_option=ExtData[1]->WorkLocal[16], option_flags=ExtData[1]->WorkLocal[17])
     "Select for more information... [, [ / / /Lv. 30/Lv. 40/Lv. 50/Lv. 60/Lv. $7]/, [ / / /Lv. 30/Lv. 40/Lv. 50/Lv. 60/Lv. $794668[ / / /Lv. 30/Lv. 40/Lv. 50/Lv. 60/Lv. $7]/, [ / / /Lv. 30/Lv. 40/Lv. 50/Lv. 60/Lv. $7]/, [ / / /Lv. 30/Lv. 40/Lv. 50/Lv. 60/Lv. $7]/, [ / / /Lv. 30/Lv. 40/Lv. 50/Lv. 60/Lv. $7]/, [ / / /Lv. 30/Lv. 40/Lv. 50/Lv. 60/Lv. $7]/, [ / / /Lv. 30/Lv. 40/Lv. 50/Lv. 60/Lv. $7]/, [ / / /Lv. 30/Lv. 40/Lv. 50/Lv. 60/Lv. $7]/, [ / / /Lv. 30/Lv. 40/Lv. 50/Lv. 60/Lv. $7]/Next./Return.]"
296: 0x0638 [0x25] WAIT_DIALOG_SELECT()
297: 0x0639 [0x03] ExtData[1]->WorkLocal[16] = Work_Zone[0]
298: 0x063E [0x02] IF !(Work_Zone[0] == 10*) GOTO 0x0656
299: 0x0646 [0x03] ExtData[1]->WorkLocal[22] = ExtData[1]->WorkLocal[14]
300: 0x064B [0x03] ExtData[1]->WorkLocal[16] = 0*
301: 0x0650 [0x01] GOTO 0x0499

SUBROUTINE_0701:
302: 0x0701 [0x03] Work_Zone[2] = 1*

SUBROUTINE_0706:
303: 0x0706 [0x02] IF !(Work_Zone[2] > 3*) GOTO 0x0761
304: 0x070E [0x03] Work_Zone[3] = ExtData[1]->WorkLocal[0]
305: 0x0713 [0x03] Work_Zone[4] = ExtData[1]->WorkLocal[0]
306: 0x0718 [0x02] IF !(Work_Zone[2] == 1*) GOTO 0x072D
307: 0x0720 [0x07] Work_Zone[3] += 0*
308: 0x0725 [0x07] Work_Zone[4] += 540*
309: 0x072A [0x01] GOTO 0x0757
310: 0x072D [0x02] IF !(Work_Zone[2] == 2*) GOTO 0x0742
311: 0x0735 [0x07] Work_Zone[3] += 2100*
312: 0x073A [0x07] Work_Zone[4] += 2340*
313: 0x073F [0x01] GOTO 0x0757
314: 0x0742 [0x02] IF !(Work_Zone[2] == 3*) GOTO 0x0757
315: 0x074A [0x07] Work_Zone[3] += 4500*
316: 0x074F [0x07] Work_Zone[4] += 4740*
317: 0x0754 [0x01] GOTO 0x0757

SUBROUTINE_0757:
318: 0x0757 [0x1D] PRINT_EVENT_MESSAGE(message_id=11651*)
     "<Match $0> Entry period begins: Briefing begins:"
319: 0x075A [0x23] WAIT_FOR_DIALOG_INTERACTION
320: 0x075B [0x0B] Work_Zone[2]++
321: 0x075E [0x01] GOTO 0x0706
322: 0x0761 [0x01] GOTO 0x0499

SUBROUTINE_0764:
323: 0x0764 [0x01] GOTO 0x00AA

SUBROUTINE_07EF:
324: 0x07EF [0x1D] PRINT_EVENT_MESSAGE(message_id=11654*)
     "Teleportation to the Isle is free of charge, but a participation fee of $0 gil is required before each match."
325: 0x07F2 [0x23] WAIT_FOR_DIALOG_INTERACTION
326: 0x07F3 [0x24] CREATE_DIALOG(message_id=11655*, default_option=1*, option_flags=0*)
     "Travel to the Isle? [Yes./Not yet.]"
327: 0x07FA [0x25] WAIT_DIALOG_SELECT()
328: 0x07FB [0x02] IF !(Work_Zone[0] == 0*) GOTO 0x0832
329: 0x0803 [0x42] SET_CLI_EVENT_CANCEL_DATA()
330: 0x0804 [0x73] EventEntity casts magic 122* on LocalPlayer
331: 0x080F [0x1C] WAIT(260* ticks)
332: 0x0812 [0x43] SEND_EVENT_UPDATE: Send pending tag to server (packet 0x005B)
333: 0x0814 [0x43] SEND_EVENT_UPDATE: Check pending flag (skip if not pending)
334: 0x0816 [0x02] IF !(Work_Zone[2] == 4294967295*) GOTO 0x082E
335: 0x081E [0x6C] FADE_ENTITY_COLOR(entity_id=LocalPlayer, end_alpha=127*, fade_time=1*)
336: 0x0827 [0x48] [System] [11684*]:
     "I'm sorry. I wasn't listening. Could you start over from the beginning?"
337: 0x082A [0x23] WAIT_FOR_DIALOG_INTERACTION
338: 0x082B [0x01] GOTO 0x082F
339: 0x082E [0x30] SET_UCOFF_CONTINUE_ZERO()

SUBROUTINE_082F:
340: 0x082F [0x01] GOTO 0x0832

SUBROUTINE_0832:
341: 0x0832 [0x01] GOTO 0x0839
342: 0x0835 [0x1D] PRINT_EVENT_MESSAGE(message_id=11652*)
     "I apologize, but your level is too low to participate in an official Brenner match."
343: 0x0838 [0x23] WAIT_FOR_DIALOG_INTERACTION

SUBROUTINE_0839:
344: 0x0839 [0x01] GOTO 0x00AA

SUBROUTINE_084A:
345: 0x084A [0x24] CREATE_DIALOG(message_id=11656*, default_option=ExtData[1]->WorkLocal[0], option_flags=0*)
     "What would you like to know about? [Basic rules./Official/private matches./Flammen-Brenner./Flamme./Match score./Petras and quarrying./Sprint./KO./Return.]"
346: 0x0851 [0x25] WAIT_DIALOG_SELECT()
347: 0x0852 [0x03] ExtData[1]->WorkLocal[0] = Work_Zone[0]
348: 0x0857 [0x02] IF !(Work_Zone[0] == 0*) GOTO 0x0881
349: 0x085F [0x48] [System] [11657*]:
     "The basic rules of Brenner are as follows:"
350: 0x0862 [0x23] WAIT_FOR_DIALOG_INTERACTION
351: 0x0863 [0x48] [System] [11658*]:
     "First, the participants divide into two teams. Each side's camp contains the same number of "Flammen-Brenner.""
352: 0x0866 [0x23] WAIT_FOR_DIALOG_INTERACTION
353: 0x0867 [0x48] [System] [11659*]:
     "At the beginning of the match, half of each side's Flammen-Brenner will be ablaze with "Flamme," or flame, while the other half will remain unlit."
354: 0x086A [0x23] WAIT_FOR_DIALOG_INTERACTION
355: 0x086B [0x48] [System] [11660*]:
     "Participants can seize a Flamme from the opposing side's Flammen-Brenner and carry it around the Isle."
356: 0x086E [0x23] WAIT_FOR_DIALOG_INTERACTION
357: 0x086F [0x48] [System] [11661*]:
     "The goal is to steal your opponent's Flamme and use them to light your side's Flammen-Brenner."
358: 0x0872 [0x23] WAIT_FOR_DIALOG_INTERACTION
359: 0x0873 [0x48] [System] [11662*]:
     "The side that succeeds in lighting all of its Flammen-Brenner will be declared the winner after a specified amount of time."
360: 0x0876 [0x23] WAIT_FOR_DIALOG_INTERACTION
361: 0x0877 [0x48] [System] [11663*]:
     "If neither side is victorious before the match ends, the outcome will be judged based on the score. The "match score" section of the rulebook contains more information on this subject."
362: 0x087A [0x23] WAIT_FOR_DIALOG_INTERACTION
363: 0x087B [0x01] GOTO 0x084A

SUBROUTINE_093D:
364: 0x093D [0x01] GOTO 0x00AA

SUBROUTINE_0977:
365: 0x0977 [0x01] GOTO 0x0991
366: 0x097A [0x24] CREATE_DIALOG(message_id=11646*, default_option=1*, option_flags=0*)
     "Return the $3? [Yes./No.]"
367: 0x0981 [0x25] WAIT_DIALOG_SELECT()
368: 0x0982 [0x02] IF !(Work_Zone[0] == 0*) GOTO 0x098E
369: 0x098A [0x42] SET_CLI_EVENT_CANCEL_DATA()
370: 0x098B [0x01] GOTO 0x0991
371: 0x098E [0x01] GOTO 0x00AA

SUBROUTINE_0991:
372: 0x0991 [0x01] GOTO 0x09E5
373: 0x0994 [0x02] IF !(Work_Zone[0] == 12*) GOTO 0x09E5
374: 0x099C [0x03] Work_Zone[2] = 759*
375: 0x09A1 [0x1D] PRINT_EVENT_MESSAGE(message_id=11647*)
     "When in possession of the key item $3, you will have the choice of keeping or throwing away the first Petra you quarry. You will also retain the ability to sprint."
376: 0x09A4 [0x23] WAIT_FOR_DIALOG_INTERACTION
377: 0x09A5 [0x1D] PRINT_EVENT_MESSAGE(message_id=11648*)
     "You can speak to me to borrow or return the band at any time."
378: 0x09A8 [0x23] WAIT_FOR_DIALOG_INTERACTION
379: 0x09A9 [0x02] IF !(ExtData[1]->WorkLocal[9] == 0*) GOTO 0x09CB
380: 0x09B1 [0x24] CREATE_DIALOG(message_id=11645*, default_option=1*, option_flags=0*)
     "Borrow the $3? [Yes./No.]"
381: 0x09B8 [0x25] WAIT_DIALOG_SELECT()
382: 0x09B9 [0x02] IF !(Work_Zone[0] == 0*) GOTO 0x09C5
383: 0x09C1 [0x42] SET_CLI_EVENT_CANCEL_DATA()
384: 0x09C2 [0x01] GOTO 0x09C8
385: 0x09C5 [0x01] GOTO 0x00AA

SUBROUTINE_09C8:
386: 0x09C8 [0x01] GOTO 0x09E2
387: 0x09CB [0x24] CREATE_DIALOG(message_id=11646*, default_option=1*, option_flags=0*)
     "Return the $3? [Yes./No.]"
388: 0x09D2 [0x25] WAIT_DIALOG_SELECT()
389: 0x09D3 [0x02] IF !(Work_Zone[0] == 0*) GOTO 0x09DF
390: 0x09DB [0x42] SET_CLI_EVENT_CANCEL_DATA()
391: 0x09DC [0x01] GOTO 0x09E2
392: 0x09DF [0x01] GOTO 0x00AA

SUBROUTINE_09E2:
393: 0x09E2 [0x01] GOTO 0x09E5

SUBROUTINE_09E5:
394: 0x09E5 [0x21] END_EVENT
395: 0x09E6 [0x00] END_REQSTACK()

SUBROUTINE_09E7:
396: 0x09E7 [0x3F] ExtData[1]->WorkLocal[0] = ExtData[1]->WorkLocal[0] % 604800*
397: 0x09EE [0x15] ExtData[1]->WorkLocal[0] /= 7200*
398: 0x09F3 [0x02] IF !(ExtData[1]->WorkLocal[0] == 78*) GOTO 0x0A03
399: 0x09FB [0x03] ExtData[1]->WorkLocal[23] = 60*
400: 0x0A00 [0x01] GOTO 0x0B38
401: 0x0A03 [0x02] IF !(ExtData[1]->WorkLocal[0] == 6*) GOTO 0x0A13
402: 0x0A0B [0x03] ExtData[1]->WorkLocal[23] = 75*
403: 0x0A10 [0x01] GOTO 0x0B38
404: 0x0A13 [0x02] IF !(ExtData[1]->WorkLocal[0] == 18*) GOTO 0x0A23
405: 0x0A1B [0x03] ExtData[1]->WorkLocal[23] = 30*
406: 0x0A20 [0x01] GOTO 0x0B38
407: 0x0A23 [0x02] IF !(ExtData[1]->WorkLocal[0] == 30*) GOTO 0x0A33
408: 0x0A2B [0x03] ExtData[1]->WorkLocal[23] = 40*
409: 0x0A30 [0x01] GOTO 0x0B38
410: 0x0A33 [0x02] IF !(ExtData[1]->WorkLocal[0] == 42*) GOTO 0x0A43
411: 0x0A3B [0x03] ExtData[1]->WorkLocal[23] = 50*
412: 0x0A40 [0x01] GOTO 0x0B38
413: 0x0A43 [0x02] IF !(ExtData[1]->WorkLocal[0] == 53*) GOTO 0x0A53
414: 0x0A4B [0x03] ExtData[1]->WorkLocal[23] = 50*
415: 0x0A50 [0x01] GOTO 0x0B38
416: 0x0A53 [0x02] IF !(ExtData[1]->WorkLocal[0] == 54*) GOTO 0x0A63
417: 0x0A5B [0x03] ExtData[1]->WorkLocal[23] = 60*
418: 0x0A60 [0x01] GOTO 0x0B38
419: 0x0A63 [0x02] IF !(ExtData[1]->WorkLocal[0] == 64*) GOTO 0x0A73
420: 0x0A6B [0x03] ExtData[1]->WorkLocal[23] = 40*
421: 0x0A70 [0x01] GOTO 0x0B38
422: 0x0A73 [0x02] IF !(ExtData[1]->WorkLocal[0] == 65*) GOTO 0x0A83
423: 0x0A7B [0x03] ExtData[1]->WorkLocal[23] = 30*
424: 0x0A80 [0x01] GOTO 0x0B38
425: 0x0A83 [0x02] IF !(ExtData[1]->WorkLocal[0] == 66*) GOTO 0x0A93
426: 0x0A8B [0x03] ExtData[1]->WorkLocal[23] = 75*
427: 0x0A90 [0x01] GOTO 0x0B38
428: 0x0A93 [0x02] IF !(ExtData[1]->WorkLocal[0] == 83*) GOTO 0x0AA3
429: 0x0A9B [0x03] ExtData[1]->WorkLocal[23] = 75*
430: 0x0AA0 [0x01] GOTO 0x0B38
431: 0x0AA3 [0x02] IF !(ExtData[1]->WorkLocal[0] == 11*) GOTO 0x0AB3
432: 0x0AAB [0x03] ExtData[1]->WorkLocal[23] = 30*
433: 0x0AB0 [0x01] GOTO 0x0B38
434: 0x0AB3 [0x02] IF !(ExtData[1]->WorkLocal[0] == 23*) GOTO 0x0AC3
435: 0x0ABB [0x03] ExtData[1]->WorkLocal[23] = 40*
436: 0x0AC0 [0x01] GOTO 0x0B38
437: 0x0AC3 [0x02] IF !(ExtData[1]->WorkLocal[0] == 35*) GOTO 0x0AD3
438: 0x0ACB [0x03] ExtData[1]->WorkLocal[23] = 50*
439: 0x0AD0 [0x01] GOTO 0x0B38
440: 0x0AD3 [0x02] IF !(ExtData[1]->WorkLocal[0] == 47*) GOTO 0x0AE3
441: 0x0ADB [0x03] ExtData[1]->WorkLocal[23] = 60*
442: 0x0AE0 [0x01] GOTO 0x0B38
443: 0x0AE3 [0x02] IF !(ExtData[1]->WorkLocal[0] == 56*) GOTO 0x0AF3
444: 0x0AEB [0x03] ExtData[1]->WorkLocal[23] = 40*
445: 0x0AF0 [0x01] GOTO 0x0B38
446: 0x0AF3 [0x02] IF !(ExtData[1]->WorkLocal[0] == 57*) GOTO 0x0B03
447: 0x0AFB [0x03] ExtData[1]->WorkLocal[23] = 30*
448: 0x0B00 [0x01] GOTO 0x0B38
449: 0x0B03 [0x02] IF !(ExtData[1]->WorkLocal[0] == 58*) GOTO 0x0B13
450: 0x0B0B [0x03] ExtData[1]->WorkLocal[23] = 75*
451: 0x0B10 [0x01] GOTO 0x0B38
452: 0x0B13 [0x02] IF !(ExtData[1]->WorkLocal[0] == 68*) GOTO 0x0B23
453: 0x0B1B [0x03] ExtData[1]->WorkLocal[23] = 50*
454: 0x0B20 [0x01] GOTO 0x0B38
455: 0x0B23 [0x02] IF !(ExtData[1]->WorkLocal[0] == 69*) GOTO 0x0B33
456: 0x0B2B [0x03] ExtData[1]->WorkLocal[23] = 60*
457: 0x0B30 [0x01] GOTO 0x0B38
458: 0x0B33 [0x03] ExtData[1]->WorkLocal[23] = 0*

SUBROUTINE_0B38:
459: 0x0B38 [0x1B] RETURN

SUBROUTINE_0B39:
460: 0x0B39 [0x24] CREATE_DIALOG(message_id=12029*, default_option=Work_Zone[0], option_flags=0*)
     "What do you wish to know about? [Basic rules./About the Petra./About Sprint./About Scout./About Gate Breach./About area-specific rules./About returning to battle./About special rules./Nothing at the moment.]"
461: 0x0B40 [0x25] WAIT_DIALOG_SELECT()
462: 0x0B41 [0x02] IF !(Work_Zone[0] == 0*) GOTO 0x0B63
463: 0x0B49 [0x48] [System] [12030*]:
     "Ballista is an exercise once used by the San d'Orian armies to train the Royal Knights in the art of the siege. The word "ballista" means "to throw a stone," and the game has been a part of Vana'dielian military history for centuries."
464: 0x0B4C [0x23] WAIT_FOR_DIALOG_INTERACTION
465: 0x0B4D [0x48] [System] [12031*]:
     "The rules are simple. Ballista is played by two teams over a number of hours (Vana'diel time). The team with the most points at the end of the match is the victor."
466: 0x0B50 [0x23] WAIT_FOR_DIALOG_INTERACTION
467: 0x0B51 [0x48] [System] [12032*]:
     "Players from both teams must search for Petras that a Herald has buried in various locations across the battlefield. The players must then take these stones and throw them into targets known as Rooks."
468: 0x0B54 [0x23] WAIT_FOR_DIALOG_INTERACTION
469: 0x0B55 [0x48] [System] [12033*]:
     "These Rooks can appear in various locations around the battlefield, and both teams are allowed to throw their Petras into them."
470: 0x0B58 [0x23] WAIT_FOR_DIALOG_INTERACTION
471: 0x0B59 [0x48] [System] [12034*]:
     "Finally, a player's strength is adjusted depending on his or her level. It is felt that this ultimately allows for a more balanced battle."
472: 0x0B5C [0x23] WAIT_FOR_DIALOG_INTERACTION
473: 0x0B5D [0x01] GOTO 0x0B39

SUBROUTINE_0C26:
474: 0x0C26 [0x24] CREATE_DIALOG(message_id=12060*, default_option=Work_Zone[0], option_flags=0*)
     "Learn about which special rules? [Temporary items./Ballista Points./Scoring restrictions./Gate Breach radius expansion./Resistance to Sleep./Open entries./Minimum level restrictions./Re-entry restrictions./Participant & Rook numbers./Experience Points./Return.]"
475: 0x0C2D [0x25] WAIT_DIALOG_SELECT()
476: 0x0C2E [0x02] IF !(Work_Zone[0] == 0*) GOTO 0x0C50
477: 0x0C36 [0x48] [System] [12061*]:
     "Previously, participants in Ballista were required to use an item the moment they dug it up using the /quarry command. However, players can now stock these items as temporary items for use at any time during the match."
478: 0x0C39 [0x23] WAIT_FOR_DIALOG_INTERACTION
479: 0x0C3A [0x48] [System] [12062*]:
     "Players can hold up to ten temporary items, but only one of each type. If a player finds an item that they already possess, they must use it immediately or throw it away."
480: 0x0C3D [0x23] WAIT_FOR_DIALOG_INTERACTION
481: 0x0C3E [0x48] [System] [12063*]:
     "If players who possess ten temporary items find an item that they have not already obtained, they will also have the option to exchange it with one of their current items."
482: 0x0C41 [0x23] WAIT_FOR_DIALOG_INTERACTION
483: 0x0C42 [0x48] [System] [12064*]:
     "Also, players will not, at any time, be allowed to trade temporary items. However, there are items that can be used on other Ballista participants. Please note that players may not be able to use these special items as soon as they are quarried."
484: 0x0C45 [0x23] WAIT_FOR_DIALOG_INTERACTION
485: 0x0C46 [0x48] [System] [12065*]:
     "Finally, the Heralds will collect temporary items when the match (the third in a Best of Three series) has concluded."
486: 0x0C49 [0x23] WAIT_FOR_DIALOG_INTERACTION
487: 0x0C4A [0x01] GOTO 0x0C26

SUBROUTINE_0D19:
488: 0x0D19 [0x01] GOTO 0x0D1C

SUBROUTINE_0D1C:
489: 0x0D1C [0x1B] RETURN

SUBROUTINE_0D1D:
490: 0x0D1D [0x03] Work_Zone[2] = 2000*
491: 0x0D22 [0x48] [System] [12066*]:
     "Ballista Points are rewarded to each competitor based on his or her performance in a single Ballista match. The maximum number of points that can be accumulated per match is $0."
492: 0x0D25 [0x23] WAIT_FOR_DIALOG_INTERACTION
493: 0x0D26 [0x48] [System] [12067*]:
     "While it is taken into consideration, scoring Petras is not the only way to earn Ballista Points. Assisting allies and defeating members of the enemy forces can also earn a high score."
494: 0x0D29 [0x23] WAIT_FOR_DIALOG_INTERACTION
495: 0x0D2A [0x48] [System] [12068*]:
     "Ballista Points can be traded for special "vouchers," which may be exchanged for free temporary items at the start of new matches."
496: 0x0D2D [0x23] WAIT_FOR_DIALOG_INTERACTION
497: 0x0D2E [0x48] [System] [12069*]:
     "However, remember that depending on the level restriction of the match, certain vouchers will not be redeemed at the beginning of a match. Speak with a Marshal directly after a match to register your points."
498: 0x0D31 [0x23] WAIT_FOR_DIALOG_INTERACTION
499: 0x0D32 [0x1B] RETURN

SUBROUTINE_0FB8:
500: 0x0FB8 [0x03] ExtData[1]->WorkLocal[31] = ExtData[1]->WorkLocal[27]
501: 0x0FBD [0x02] IF !(ExtData[1]->WorkLocal[39] == 0*) GOTO 0x0FC8
502: 0x0FC5 [0x01] GOTO 0x0FE8
503: 0x0FC8 [0x02] IF !(ExtData[1]->WorkLocal[39] == 1*) GOTO 0x0FD8
504: 0x0FD0 [0x08] ExtData[1]->WorkLocal[31] -= 6912*
505: 0x0FD5 [0x01] GOTO 0x0FE8
506: 0x0FD8 [0x02] IF !(ExtData[1]->WorkLocal[39] == 2*) GOTO 0x0FE8
507: 0x0FE0 [0x08] ExtData[1]->WorkLocal[31] -= 13824*
508: 0x0FE5 [0x01] GOTO 0x0FE8

SUBROUTINE_0FE8:
509: 0x0FE8 [0x15] ExtData[1]->WorkLocal[31] /= 20736*
510: 0x0FED [0x14] ExtData[1]->WorkLocal[31] *= 20736*
511: 0x0FF2 [0x02] IF !(ExtData[1]->WorkLocal[39] == 0*) GOTO 0x0FFD
512: 0x0FFA [0x01] GOTO 0x101D
513: 0x0FFD [0x02] IF !(ExtData[1]->WorkLocal[39] == 1*) GOTO 0x100D
514: 0x1005 [0x07] ExtData[1]->WorkLocal[31] += 6912*
515: 0x100A [0x01] GOTO 0x101D
516: 0x100D [0x02] IF !(ExtData[1]->WorkLocal[39] == 2*) GOTO 0x101D
517: 0x1015 [0x07] ExtData[1]->WorkLocal[31] += 13824*
518: 0x101A [0x01] GOTO 0x101D

SUBROUTINE_101D:
519: 0x101D [0x03] ExtData[1]->WorkLocal[32] = ExtData[1]->WorkLocal[31]
520: 0x1022 [0x07] ExtData[1]->WorkLocal[32] += 1728*
521: 0x1027 [0x03] ExtData[1]->WorkLocal[33] = ExtData[1]->WorkLocal[31]
522: 0x102C [0x07] ExtData[1]->WorkLocal[33] += 3168*
523: 0x1031 [0x03] ExtData[1]->WorkLocal[34] = ExtData[1]->WorkLocal[31]
524: 0x1036 [0x07] ExtData[1]->WorkLocal[34] += 3456*
525: 0x103B [0x03] ExtData[1]->WorkLocal[35] = 3456*
526: 0x1040 [0x03] ExtData[1]->WorkLocal[36] = ExtData[1]->WorkLocal[31]
527: 0x1045 [0x07] ExtData[1]->WorkLocal[36] += 6912*
528: 0x104A [0x03] ExtData[1]->WorkLocal[37] = ExtData[1]->WorkLocal[31]
529: 0x104F [0x07] ExtData[1]->WorkLocal[37] += 6912*
530: 0x1054 [0x03] ExtData[1]->WorkLocal[38] = ExtData[1]->WorkLocal[31]
531: 0x1059 [0x07] ExtData[1]->WorkLocal[38] += 10368*
532: 0x105E [0x03] ExtData[1]->WorkLocal[42] = ExtData[1]->WorkLocal[31]
533: 0x1063 [0x15] ExtData[1]->WorkLocal[42] /= 414720*
534: 0x1068 [0x3F] ExtData[1]->WorkLocal[28] = ExtData[1]->WorkLocal[42] % 3*
535: 0x106F [0x02] IF !(ExtData[1]->WorkLocal[39] == 0*) GOTO 0x107A
536: 0x1077 [0x01] GOTO 0x109A
537: 0x107A [0x02] IF !(ExtData[1]->WorkLocal[39] == 1*) GOTO 0x108A
538: 0x1082 [0x07] ExtData[1]->WorkLocal[28] += 1*
539: 0x1087 [0x01] GOTO 0x109A
540: 0x108A [0x02] IF !(ExtData[1]->WorkLocal[39] == 2*) GOTO 0x109A
