# 17772568 - Muhoho

## Common Data

| Field            | Value                     |
|------------------|---------------------------|
| Zone             | Ru'Lude Gardens (ID: 243) |
| Block Size       | 692 bytes                 |
| Total Events     | 12                        |
| References Count | 61                        |

## List of Events

| Event ID                 | Entrypoint   |   Size |   Instructions |
|--------------------------|--------------|--------|----------------|
| [65535](#event-65535)    | 0x0000       |      1 |              1 |
| [152](#event-152)        | 0x0001       |     64 |             12 |
| [10070](#event-10070)    | 0x0041       |      1 |              1 |
| [65535.1](#event-655351) | 0x0042       |     14 |              4 |
| [65535.2](#event-655352) | 0x0050       |     28 |              6 |
| [65535.3](#event-655353) | 0x006C       |     28 |              6 |
| [65535.4](#event-655354) | 0x0088       |     55 |             11 |
| [65535.5](#event-655355) | 0x00BF       |     14 |              4 |
| [65535.6](#event-655356) | 0x00CD       |     61 |             13 |
| [65535.7](#event-655357) | 0x010A       |     38 |              8 |
| [65535.8](#event-655358) | 0x0130       |     28 |              6 |
| [10093](#event-10093)    | 0x014C       |     52 |             12 |

## DAT References (imed_data)

|   Index | Hex Value   |   Dec Value |
|---------|-------------|-------------|
|       0 | 0x0031      |          49 |
|       1 | 0x27E7      |       10215 |
|       2 | 0x27E8      |       10216 |
|       3 | 0x000D      |          13 |
|       4 | 0xFFFFFE98  |  4294966936 |
|       5 | 0x75AB      |       30123 |
|       6 | 0xFFFFEC79  |  4294962297 |
|       7 | 0xFFFFFF6A  |  4294967146 |
|       8 | 0x7C7F      |       31871 |
|       9 | 0x07D0      |        2000 |
|      10 | 0x03DE      |         990 |
|      11 | 0x0028      |          40 |
|      12 | 0x005F      |          95 |
|      13 | 0x11B4      |        4532 |
|      14 | 0x0BB7      |        2999 |
|      15 | 0x0274      |         628 |
|      16 | 0xFFFF942D  |  4294939693 |
|      17 | 0x2329      |        9001 |
|      18 | 0x02DE      |         734 |
|      19 | 0x2A6F      |       10863 |
|      20 | 0xFFFF3C65  |  4294917221 |
|      21 | 0x2327      |        8999 |
|      22 | 0x7AD4      |       31444 |
|      23 | 0xFFFF3421  |  4294915105 |
|      24 | 0x232B      |        9003 |
|      25 | 0x0065      |         101 |
|      26 | 0xAE71      |       44657 |
|      27 | 0xFFFF3241  |  4294914625 |
|      28 | 0x0BCB      |        3019 |
|      29 | 0x003C      |          60 |
|      30 | 0x0311      |         785 |
|      31 | 0xB1E5      |       45541 |
|      32 | 0xFFFF2317  |  4294910743 |
|      33 | 0xB92A      |       47402 |
|      34 | 0xFFFF0733  |  4294903603 |
|      35 | 0x2615      |        9749 |
|      36 | 0x0024      |          36 |
|      37 | 0x4FB3      |       20403 |
|      38 | 0x0440      |        1088 |
|      39 | 0x005C      |          92 |
|      40 | 0x3FD5      |       16341 |
|      41 | 0x001E      |          30 |
|      42 | 0x0BB6      |        2998 |
|      43 | 0x043F      |        1087 |
|      44 | 0x0127      |         295 |
|      45 | 0x4EA6      |       20134 |
|      46 | 0xFFFFF4BC  |  4294964412 |
|      47 | 0x9049      |       36937 |
|      48 | 0x00A6      |         166 |
|      49 | 0xFFFFFE1A  |  4294966810 |
|      50 | 0x8E5B      |       36443 |
|      51 | 0xFFFFFDAB  |  4294966699 |
|      52 | 0x8186      |       33158 |
|      53 | 0xFFFFFCCF  |  4294966479 |
|      54 | 0x7235      |       29237 |
|      55 | 0x07C0      |        1984 |
|      56 | 0xFFFFEF34  |  4294962996 |
|      57 | 0x6D6C      |       28012 |
|      58 | 0x3610      |       13840 |
|      59 | 0x3619      |       13849 |
|      60 | 0x361A      |       13850 |

## String References

- **10215**: The three great nations preach friendship, but beneath the facade is a struggle for supremacy. Nobody can tell what will come of it.
- **10216**: That is why we must focus on our duties. There is no guarantee that the reign of peace we enjoy now will last.
- **13840**: <Player>'s badge flashes brightly.
- **13849**: Lately, the Empire of Aht Urhgan has been building up her army. That's sure to make waves internationally...
- **13850**: Do you think we can continue to preserve friendly relations with all three major nations as the balance of power hangs by a thread?

## Events

### Event 65535

#### Metadata

| Field        | Value   |
|--------------|---------|
| Entrypoint   | 0x0000  |
| Data Size    | 1 bytes |
| Instructions | 1       |

```
      00 01 02 03 04 05 06 07  08 09 0A 0B 0C 0D 0E 0F
      -- -- -- -- -- -- -- --  -- -- -- -- -- -- -- --
0000: 00                                                .               
```

#### Opcodes

```
  0: 0x0000 [0x00] END_REQSTACK()
```

### Event 152

#### Metadata

| Field        | Value    |
|--------------|----------|
| Entrypoint   | 0x0001   |
| Data Size    | 64 bytes |
| Instructions | 12       |

```
      00 01 02 03 04 05 06 07  08 09 0A 0B 0C 0D 0E 0F
      -- -- -- -- -- -- -- --  -- -- -- -- -- -- -- --
0000:    1E F0 FF FF 7F 6F 76  F8 FF FF 7F 66 00 80 F8   .....ov....f...
0010: FF FF 7F F8 FF FF 7F 74  6C 6B 30 1D 01 80 23 1D  .......tlk0...#.
0020: 02 80 23 66 00 80 F8 FF  FF 7F F8 FF FF 7F 74 6C  ..#f..........tl
0030: 6B 31 53 F8 FF FF 7F F8  FF FF 7F 74 6C 6B 31 21  k1S........tlk1!
0040: 00                                                .               
```

#### Opcodes

```
  0: 0x0001 [0x1E] EventEntity looks at LocalPlayer and starts talking
  1: 0x0006 [0x6F] WAIT_FRAME_DELAY: Yield until WaitTime reaches zero
  2: 0x0007 [0x76] CHECK_ENTITY_RENDER_FLAGS: Wait until EventEntity Render.Flags0 and Render.Flags3 conditions are met
  3: 0x000C [0x66] LOAD_EXT_SCHEDULER_MAIN: Load scheduler "tlk0" with entities [EventEntity, EventEntity], work=49*
  4: 0x001B [0x1D] PRINT_EVENT_MESSAGE(message_id=10215*)
    → "The three great nations preach friendship, but beneath the facade is a struggle for supremacy. Nobody can tell what will come of it."
  5: 0x001E [0x23] WAIT_FOR_DIALOG_INTERACTION
  6: 0x001F [0x1D] PRINT_EVENT_MESSAGE(message_id=10216*)
    → "That is why we must focus on our duties. There is no guarantee that the reign of peace we enjoy now will last."
  7: 0x0022 [0x23] WAIT_FOR_DIALOG_INTERACTION
  8: 0x0023 [0x66] LOAD_EXT_SCHEDULER_MAIN: Load scheduler "tlk1" with entities [EventEntity, EventEntity], work=49*
  9: 0x0032 [0x53] WAIT_SCHEDULER_TASK: Wait for scheduler "tlk1" with entities [EventEntity, EventEntity]
 10: 0x003F [0x21] END_EVENT
 11: 0x0040 [0x00] END_REQSTACK()
```

### Event 10070

#### Metadata

| Field        | Value   |
|--------------|---------|
| Entrypoint   | 0x0041  |
| Data Size    | 1 bytes |
| Instructions | 1       |

```
      00 01 02 03 04 05 06 07  08 09 0A 0B 0C 0D 0E 0F
      -- -- -- -- -- -- -- --  -- -- -- -- -- -- -- --
0040:    00                                              .              
```

#### Opcodes

```
  0: 0x0041 [0x00] END_REQSTACK()
```

### Event 65535.1

#### Metadata

| Field        | Value    |
|--------------|----------|
| Entrypoint   | 0x0042   |
| Data Size    | 14 bytes |
| Instructions | 4        |

```
      00 01 02 03 04 05 06 07  08 09 0A 0B 0C 0D 0E 0F
      -- -- -- -- -- -- -- --  -- -- -- -- -- -- -- --
0040:       32 03 80 1F 00 04  80 05 80 06 80 1F 01 00    2.............
```

#### Opcodes

```
  0: 0x0042 [0x32] ExtData[1]->MainSpeed = 13* * 0.1
  1: 0x0045 [0x1F] MOVE_ENTITY: EventEntity moves to X=-0.360*, Z=30.123*, Y=-4.999*
  2: 0x004D [0x1F] MOVE_ENTITY: Update entity position (mode=1)
  3: 0x004F [0x00] END_REQSTACK()
```

### Event 65535.2

#### Metadata

| Field        | Value    |
|--------------|----------|
| Entrypoint   | 0x0050   |
| Data Size    | 28 bytes |
| Instructions | 6        |

```
      00 01 02 03 04 05 06 07  08 09 0A 0B 0C 0D 0E 0F
      -- -- -- -- -- -- -- --  -- -- -- -- -- -- -- --
0050: 37 07 80 08 80 09 80 0A  80 80 18 30 0F 01 32 0B  7..........0..2.
0060: 80 1F 00 0C 80 0D 80 0E  80 1F 01 00              ............    
```

#### Opcodes

```
  0: 0x0050 [0x37] UPDATE_EVENT_POSITION_AND_DIR: x=-0.150*, z=31.871*, y=2.000*, direction=87.0°*
  1: 0x0059 [0x80] LOAD_WAIT(entity=Muhoho (ID: 17772568/0x010F3018))
  2: 0x005E [0x32] ExtData[1]->MainSpeed = 40* * 0.1
  3: 0x0061 [0x1F] MOVE_ENTITY: EventEntity moves to X=0.095*, Z=4.532*, Y=2.999*
  4: 0x0069 [0x1F] MOVE_ENTITY: Update entity position (mode=1)
  5: 0x006B [0x00] END_REQSTACK()
```

### Event 65535.3

#### Metadata

| Field        | Value    |
|--------------|----------|
| Entrypoint   | 0x006C   |
| Data Size    | 28 bytes |
| Instructions | 6        |

```
      00 01 02 03 04 05 06 07  08 09 0A 0B 0C 0D 0E 0F
      -- -- -- -- -- -- -- --  -- -- -- -- -- -- -- --
0060:                                      37 0F 80 10              7...
0070: 80 11 80 12 80 80 F8 FF  FF 7F 32 0B 80 1F 00 13  ..........2.....
0080: 80 14 80 15 80 1F 01 00                           ........        
```

#### Opcodes

```
  0: 0x006C [0x37] UPDATE_EVENT_POSITION_AND_DIR: x=0.628*, z=-27.603*, y=9.001*, direction=64.5°*
  1: 0x0075 [0x80] LOAD_WAIT(entity=EventEntity)
  2: 0x007A [0x32] ExtData[1]->MainSpeed = 40* * 0.1
  3: 0x007D [0x1F] MOVE_ENTITY: EventEntity moves to X=10.863*, Z=-50.075*, Y=8.999*
  4: 0x0085 [0x1F] MOVE_ENTITY: Update entity position (mode=1)
  5: 0x0087 [0x00] END_REQSTACK()
```

### Event 65535.4

#### Metadata

| Field        | Value    |
|--------------|----------|
| Entrypoint   | 0x0088   |
| Data Size    | 55 bytes |
| Instructions | 11       |

```
      00 01 02 03 04 05 06 07  08 09 0A 0B 0C 0D 0E 0F
      -- -- -- -- -- -- -- --  -- -- -- -- -- -- -- --
0080:                          37 16 80 17 80 18 80 19          7.......
0090: 80 80 F8 FF FF 7F 1F 00  1A 80 1B 80 18 80 1F 01  ................
00A0: 4B 18 30 0F 01 1C 80 1C  1D 80 4B 18 30 0F 01 1E  K.0.......K.0...
00B0: 80 1C 1D 80 1F 00 1F 80  20 80 15 80 1F 01 00     ........ ...... 
```

#### Opcodes

```
  0: 0x0088 [0x37] UPDATE_EVENT_POSITION_AND_DIR: x=31.444*, z=-52.191*, y=9.003*, direction=8.9°*
  1: 0x0091 [0x80] LOAD_WAIT(entity=EventEntity)
  2: 0x0096 [0x1F] MOVE_ENTITY: EventEntity moves to X=44.657*, Z=-52.671*, Y=9.003*
  3: 0x009E [0x1F] MOVE_ENTITY: Update entity position (mode=1)
  4: 0x00A0 [0x4B] UPDATE_ENTITY_YAW(entity=Muhoho (ID: 17772568/0x010F3018), yaw=16.6°*)
  5: 0x00A7 [0x1C] WAIT(60* ticks)
  6: 0x00AA [0x4B] UPDATE_ENTITY_YAW(entity=Muhoho (ID: 17772568/0x010F3018), yaw=4.3°*)
  7: 0x00B1 [0x1C] WAIT(60* ticks)
  8: 0x00B4 [0x1F] MOVE_ENTITY: EventEntity moves to X=45.541*, Z=-56.553*, Y=8.999*
  9: 0x00BC [0x1F] MOVE_ENTITY: Update entity position (mode=1)
 10: 0x00BE [0x00] END_REQSTACK()
```

### Event 65535.5

#### Metadata

| Field        | Value    |
|--------------|----------|
| Entrypoint   | 0x00BF   |
| Data Size    | 14 bytes |
| Instructions | 4        |

```
      00 01 02 03 04 05 06 07  08 09 0A 0B 0C 0D 0E 0F
      -- -- -- -- -- -- -- --  -- -- -- -- -- -- -- --
00B0:                                               32                 2
00C0: 03 80 1F 00 21 80 22 80  23 80 1F 01 00           ....!.".#....   
```

#### Opcodes

```
  0: 0x00BF [0x32] ExtData[1]->MainSpeed = 13* * 0.1
  1: 0x00C2 [0x1F] MOVE_ENTITY: EventEntity moves to X=47.402*, Z=-63.693*, Y=9.749*
  2: 0x00CA [0x1F] MOVE_ENTITY: Update entity position (mode=1)
  3: 0x00CC [0x00] END_REQSTACK()
```

### Event 65535.6

#### Metadata

| Field        | Value    |
|--------------|----------|
| Entrypoint   | 0x00CD   |
| Data Size    | 61 bytes |
| Instructions | 13       |

```
      00 01 02 03 04 05 06 07  08 09 0A 0B 0C 0D 0E 0F
      -- -- -- -- -- -- -- --  -- -- -- -- -- -- -- --
00C0:                                         37 24 80               7$.
00D0: 25 80 0E 80 26 80 80 F8  FF FF 7F 32 03 80 1F 00  %...&......2....
00E0: 27 80 28 80 0E 80 1F 01  1C 29 80 4B 18 30 0F 01  '.(......).K.0..
00F0: 2A 80 1C 1D 80 4B 18 30  0F 01 2B 80 1C 1D 80 1F  *....K.0..+.....
0100: 00 2C 80 2D 80 0E 80 1F  01 00                    .,.-......      
```

#### Opcodes

```
  0: 0x00CD [0x37] UPDATE_EVENT_POSITION_AND_DIR: x=0.036*, z=20.403*, y=2.999*, direction=95.6°*
  1: 0x00D6 [0x80] LOAD_WAIT(entity=EventEntity)
  2: 0x00DB [0x32] ExtData[1]->MainSpeed = 13* * 0.1
  3: 0x00DE [0x1F] MOVE_ENTITY: EventEntity moves to X=0.092*, Z=16.341*, Y=2.999*
  4: 0x00E6 [0x1F] MOVE_ENTITY: Update entity position (mode=1)
  5: 0x00E8 [0x1C] WAIT(30* ticks)
  6: 0x00EB [0x4B] UPDATE_ENTITY_YAW(entity=Muhoho (ID: 17772568/0x010F3018), yaw=16.5°*)
  7: 0x00F2 [0x1C] WAIT(60* ticks)
  8: 0x00F5 [0x4B] UPDATE_ENTITY_YAW(entity=Muhoho (ID: 17772568/0x010F3018), yaw=6.0°*)
  9: 0x00FC [0x1C] WAIT(60* ticks)
 10: 0x00FF [0x1F] MOVE_ENTITY: EventEntity moves to X=0.295*, Z=20.134*, Y=2.999*
 11: 0x0107 [0x1F] MOVE_ENTITY: Update entity position (mode=1)
 12: 0x0109 [0x00] END_REQSTACK()
```

### Event 65535.7

#### Metadata

| Field        | Value    |
|--------------|----------|
| Entrypoint   | 0x010A   |
| Data Size    | 38 bytes |
| Instructions | 8        |

```
      00 01 02 03 04 05 06 07  08 09 0A 0B 0C 0D 0E 0F
      -- -- -- -- -- -- -- --  -- -- -- -- -- -- -- --
0100:                                37 2E 80 2F 80 06            7../..
0110: 80 30 80 80 F8 FF FF 7F  32 03 80 1F 00 31 80 32  .0......2....1.2
0120: 80 06 80 1F 01 1F 00 33  80 34 80 06 80 1F 01 00  .......3.4......
```

#### Opcodes

```
  0: 0x010A [0x37] UPDATE_EVENT_POSITION_AND_DIR: x=-2.884*, z=36.937*, y=-4.999*, direction=14.6°*
  1: 0x0113 [0x80] LOAD_WAIT(entity=EventEntity)
  2: 0x0118 [0x32] ExtData[1]->MainSpeed = 13* * 0.1
  3: 0x011B [0x1F] MOVE_ENTITY: EventEntity moves to X=-0.486*, Z=36.443*, Y=-4.999*
  4: 0x0123 [0x1F] MOVE_ENTITY: Update entity position (mode=1)
  5: 0x0125 [0x1F] MOVE_ENTITY: EventEntity moves to X=-0.597*, Z=33.158*, Y=-4.999*
  6: 0x012D [0x1F] MOVE_ENTITY: Update entity position (mode=1)
  7: 0x012F [0x00] END_REQSTACK()
```

### Event 65535.8

#### Metadata

| Field        | Value    |
|--------------|----------|
| Entrypoint   | 0x0130   |
| Data Size    | 28 bytes |
| Instructions | 6        |

```
      00 01 02 03 04 05 06 07  08 09 0A 0B 0C 0D 0E 0F
      -- -- -- -- -- -- -- --  -- -- -- -- -- -- -- --
0130: 37 35 80 36 80 06 80 37  80 80 F8 FF FF 7F 32 03  75.6...7......2.
0140: 80 1F 00 38 80 39 80 06  80 1F 01 00              ...8.9......    
```

#### Opcodes

```
  0: 0x0130 [0x37] UPDATE_EVENT_POSITION_AND_DIR: x=-0.817*, z=29.237*, y=-4.999*, direction=174.4°*
  1: 0x0139 [0x80] LOAD_WAIT(entity=EventEntity)
  2: 0x013E [0x32] ExtData[1]->MainSpeed = 13* * 0.1
  3: 0x0141 [0x1F] MOVE_ENTITY: EventEntity moves to X=-4.300*, Z=28.012*, Y=-4.999*
  4: 0x0149 [0x1F] MOVE_ENTITY: Update entity position (mode=1)
  5: 0x014B [0x00] END_REQSTACK()
```

### Event 10093

#### Metadata

| Field        | Value    |
|--------------|----------|
| Entrypoint   | 0x014C   |
| Data Size    | 52 bytes |
| Instructions | 12       |

```
      00 01 02 03 04 05 06 07  08 09 0A 0B 0C 0D 0E 0F
      -- -- -- -- -- -- -- --  -- -- -- -- -- -- -- --
0140:                                      42 48 3A 80              BH:.
0150: 1E F0 FF FF 7F 1C 29 80  66 00 80 F8 FF FF 7F F8  ......).f.......
0160: FF FF 7F 74 6C 6B 30 1D  3B 80 23 1D 3C 80 23 66  ...tlk0.;.#.<.#f
0170: 00 80 F8 FF FF 7F F8 FF  FF 7F 74 6C 6B 31 21 00  ..........tlk1!.
```

#### Opcodes

```
  0: 0x014C [0x42] SET_CLI_EVENT_CANCEL_DATA()
  1: 0x014D [0x48] [System] [13840*]:
    → "<Player>'s badge flashes brightly."
  2: 0x0150 [0x1E] EventEntity looks at LocalPlayer and starts talking
  3: 0x0155 [0x1C] WAIT(30* ticks)
  4: 0x0158 [0x66] LOAD_EXT_SCHEDULER_MAIN: Load scheduler "tlk0" with entities [EventEntity, EventEntity], work=49*
  5: 0x0167 [0x1D] PRINT_EVENT_MESSAGE(message_id=13849*)
    → "Lately, the Empire of Aht Urhgan has been building up her army. That's sure to make waves internationally..."
  6: 0x016A [0x23] WAIT_FOR_DIALOG_INTERACTION
  7: 0x016B [0x1D] PRINT_EVENT_MESSAGE(message_id=13850*)
    → "Do you think we can continue to preserve friendly relations with all three major nations as the balance of power hangs by a thread?"
  8: 0x016E [0x23] WAIT_FOR_DIALOG_INTERACTION
  9: 0x016F [0x66] LOAD_EXT_SCHEDULER_MAIN: Load scheduler "tlk1" with entities [EventEntity, EventEntity], work=49*
 10: 0x017E [0x21] END_EVENT
 11: 0x017F [0x00] END_REQSTACK()
```
