# 17772773 - Explorer Moogle

## Common Data

| Field            | Value                     |
|------------------|---------------------------|
| Zone             | Ru'Lude Gardens (ID: 243) |
| Block Size       | 2896 bytes                |
| Total Events     | 7                         |
| References Count | 81                        |

## List of Events

| Event ID              | Entrypoint   |   Size |   Instructions |
|-----------------------|--------------|--------|----------------|
| [65535](#event-65535) | 0x0000       |      1 |              1 |
| [10114](#event-10114) | 0x0001       |     64 |             17 |
| [10108](#event-10108) | 0x0041       |    142 |             34 |
| [10109](#event-10109) | 0x00CF       |    323 |             87 |
| [10110](#event-10110) | 0x0212       |     64 |             17 |
| [10111](#event-10111) | 0x0252       |    197 |             51 |
| [10112](#event-10112) | 0x0317       |   1737 |            415 |

## DAT References (imed_data)

|   Index | Hex Value   |   Dec Value |
|---------|-------------|-------------|
|       0 | 0x37F3      |       14323 |
|       1 | 0x37F8      |       14328 |
|       2 | 0x0000      |           0 |
|       3 | 0x0001      |           1 |
|       4 | 0x0002      |           2 |
|       5 | 0x37F6      |       14326 |
|       6 | 0x0003      |           3 |
|       7 | 0x37F4      |       14324 |
|       8 | 0x37F7      |       14327 |
|       9 | 0x380D      |       14349 |
|      10 | 0x380E      |       14350 |
|      11 | 0x380F      |       14351 |
|      12 | 0x3810      |       14352 |
|      13 | 0x3811      |       14353 |
|      14 | 0x3812      |       14354 |
|      15 | 0x0004      |           4 |
|      16 | 0x3813      |       14355 |
|      17 | 0x0005      |           5 |
|      18 | 0x3814      |       14356 |
|      19 | 0x0006      |           6 |
|      20 | 0x3815      |       14357 |
|      21 | 0x0007      |           7 |
|      22 | 0x3816      |       14358 |
|      23 | 0x0008      |           8 |
|      24 | 0x3817      |       14359 |
|      25 | 0x0009      |           9 |
|      26 | 0x3818      |       14360 |
|      27 | 0x000A      |          10 |
|      28 | 0x3819      |       14361 |
|      29 | 0x381B      |       14363 |
|      30 | 0x381C      |       14364 |
|      31 | 0x381D      |       14365 |
|      32 | 0x381E      |       14366 |
|      33 | 0x37F5      |       14325 |
|      34 | 0x381F      |       14367 |
|      35 | 0x3820      |       14368 |
|      36 | 0x3821      |       14369 |
|      37 | 0x3822      |       14370 |
|      38 | 0x3823      |       14371 |
|      39 | 0x3824      |       14372 |
|      40 | 0x3825      |       14373 |
|      41 | 0x37F9      |       14329 |
|      42 | 0x37FA      |       14330 |
|      43 | 0x37FB      |       14331 |
|      44 | 0x37FC      |       14332 |
|      45 | 0x37FD      |       14333 |
|      46 | 0x37FE      |       14334 |
|      47 | 0x37FF      |       14335 |
|      48 | 0x3800      |       14336 |
|      49 | 0x3801      |       14337 |
|      50 | 0x3802      |       14338 |
|      51 | 0x3803      |       14339 |
|      52 | 0x3804      |       14340 |
|      53 | 0x3805      |       14341 |
|      54 | 0x3806      |       14342 |
|      55 | 0x3807      |       14343 |
|      56 | 0x3808      |       14344 |
|      57 | 0x000B      |          11 |
|      58 | 0x000C      |          12 |
|      59 | 0x000D      |          13 |
|      60 | 0x000E      |          14 |
|      61 | 0x000F      |          15 |
|      62 | 0x0010      |          16 |
|      63 | 0x0011      |          17 |
|      64 | 0x0012      |          18 |
|      65 | 0x0013      |          19 |
|      66 | 0x0014      |          20 |
|      67 | 0x0015      |          21 |
|      68 | 0x0016      |          22 |
|      69 | 0x0017      |          23 |
|      70 | 0x0018      |          24 |
|      71 | 0x0019      |          25 |
|      72 | 0x001A      |          26 |
|      73 | 0x001B      |          27 |
|      74 | 0x001C      |          28 |
|      75 | 0x3809      |       14345 |
|      76 | 0x001D      |          29 |
|      77 | 0x001E      |          30 |
|      78 | 0x001F      |          31 |
|      79 | 0x0020      |          32 |
|      80 | 0x0021      |          33 |

## String References

- **14323**: Greetings, adventurer! You've heard the tale of the mog tablets, haven't you? If any of them turn up in your travels, promise you'll let me know, kupo!
- **14324**: [Greetings/Happy Vana'versary], my adventuring friend! Thanks to your efforts, the mog tablets have been recovered, and their magic freed to spread happiness and joy across the realm! You are truly a friend to all mooglekind, kupo!
- **14325**: Oh no! What a shame, kupo! The mog tablets that were recovered have been scattered to the ends of Vana'diel once more...
- **14326**: Ask about something? [What's a mog tablet?/The history of mog tablets./List of tablets./Nothing.]
- **14327**: Ask about something? [What's a mog tablet?/The history of mog tablets./Collected tablets./The current Super Kupower./Nothing.]
- **14328**: Ask about something? [What's a mog tablet?/The history of mog tablets./Nothing.]
- **14329**: What's a mog tablet!? What's a mog tablet, you say!? Why, only the most awesome, amazing artifact in the annals of moogle history, that's what, kupo!
- **14330**: There's eleven of them in all, to be exact, scattered to the far reaches of Vana'diel and just waiting to be discovered by brave adventurers like you!
- **14331**: What happens if you find them? I thought you'd never ask, kupo! Each tablet is inscribed with an ancient moogle poem of joy, and legend has it that if all are found, the ancient moogle magic of King Kupofried the Great will be released once more, spreading joy and happiness through all the land!
- **14332**: We explorer moogles have made it our life's work to recover the tablets and unlock their powers. But with these short legs and little-bitty wings, we can't do it alone, kupo!
- **14333**: There! I've whipped up a spell that will instantly transport any tablets you find back here to me. Come back if you find anything, and happy exploring, kupo!
- **14334**: Just sit right back and I'll tell you the tale, kupo. Many, many ages past, we moogles had our own glorious kingdom. It was truly the peak of moogle civilization, a veritable golden age for all mooglekind!
- **14335**: The seventh king of this great nation was the wise and kindly King Kupofried, a masterful magician famed as the father of the fantastic moogle magic that survives to this very day, kupo!
- **14336**: In his later years, King Kupofried embarked on what would become the greatest work of his illustrious reign. Seeking to pass down the prosperity of his kingdom to future generations, he inscribed eleven incantations of moogle joy and happiness onto eleven stone tablets.
- **14337**: Sadly, the kindly king's intentions went unappreciated by his selfish sons and daughters, and many a fierce feud broke out over who would inherit these relics, kupo...
- **14338**: King Kupofried was greatly dismayed. How could the poems that he had composed out of pure love and joy become the root of such strife?
- **14339**: In his despair, the king commanded his minion bats to scatter the tablets to the far corners of the world, where they would be seen by moogle eyes no more.
- **14340**: "Alas! I only wanted my children to be happy, kupo," he lamented, and flew away on his tiny yet majestic wings, never to be seen in his kingdom again.
- **14341**: Left without its wise monarch, the once-glorious moogle kingdom fractured into warring tribes, falling into unrest...and, eventually, ruin. A tragic tale, don't you think, kupo?
- **14342**: We explorer moogles are the proud descendants of King Kupofried, living only to bring our last great monarch's unrealized dream to fruition. We will--we must!--find the mog tablets and bring true joy and happiness to this world!
- **14343**: Let's see... It appears that $0 moogle [tablet has/tablets have] already been found, kupo.
- **14344**: Here's a list of all the located tablets, kupo!
- **14345**: Choose a location: [West Ronfaure./East Ronfaure./La Theine Plateau./Valkurm Dunes./Jugner Forest./Batallia Downs./North Gustaberg./South Gustaberg./Konschtat Highlands./Pashhow Marshlands./Rolanberry Fields./Beaucedine Glacier./Xarcabard./West Sarutabaruta./East Sarutabaruta./Tahrongi Canyon./Buburimu Peninsula./Meriphataud Mountains./Sauromugue Champaign./Qufim Island./Behemoth's Dominion./Cape Teriggan./Eastern Altepa Desert./The Sanctuary of Zi'Tah./Ro'Maeve./Yuhtunga Jungle./Yhoator Jungle./Western Altepa Desert./Valley of Sorrows./Cancel.]
- **14349**: Oh, glorious day! All eleven mog tablets have been recovered and restored to their rightful place at the altar of King Kupofried!
- **14350**: Can you feel the ancient moogle magic in the air? You can now bask in the benefits of this Super Kupower...
- **14351**: "Thrifty Transit"! A special treat for the cost-conscious adventurer! For a limited time, all survival guide costs are eliminated, and you are able to teleport between nearby cities for a small fee, kupo!
- **14352**: "Martial Master"! As an added bonus to your Signet, combat skills will increase more rapidly! Your magic and automaton skills will be boosted, too!
- **14353**: "Blood of the Vampyr"! Signets have been boosted with the abilities of Regeneration and Refresh!
- **14354**: "Treasure Hound"! With Signet in effect, you will now be able to sniff out more treasure and gil! Great riches surely await you, kupo!
- **14355**: "Artisan's Advantage"! Good news for aspiring artisans, kupo! When receiving advanced image support, the chance of your ingredients being lost in a failed synthesis attempt has been drastically reduced!
- **14356**: "Myriad Mystery Boxes"! What's this, kupo? Mysterious boxes have been sighted all over the realm! What genius could have devised such commendable creations?
- **14357**: "Dilatory Digestion"! Not content to be left behind, brown magic slides back out for another go, kupo! Now you can be what you eat for twice as long and save on all those trips to your local merchant.
- **14358**: "Boundary Buster"! Trust in Signet and you can never go wrong, kupo! It's time to take to the field and vanquish a veritable army of enemies, for any Conquest Points you receive will be duly doubled!
- **14359**: "Bountiful Bazaar"! Trade routes are bustling with unprecedented traffic and peddlers' carts are overflowing with objects now that regional goods are available to merchants across the realm, kupo!
- **14360**: "Swift Shoes"! This is just the ticket for today's busy adventurer! For a limited time, provided that you're fully rested and healed, your legs will carry you with the speed of a chocobo!
- **14361**: "Crystal Caboodle"! Signet is now better than ever! Collect crystals from beastmen-controlled areas...and maybe even clusters from other areas!
- **14363**: Be warned that our moogle magic is concentrated around this altar. If you venture to far-off lands, the Super Kupowers will be unable to protect you...
- **14364**: What? What about the past, you say? Of course the magic won't travel through time. What a strange question, kupo...
- **14365**: But not an altogether pointless, one. The powers of thirtfy transit do seem to apply across the space-time continuum, kupo.
- **14366**: The whole system is filled with mysteries.
- **14367**: Oh, it's you! It's really you! The brave adventurer who discovered one of our mog tablets!
- **14368**: It's a pleasure, an honor to meet you, kupo! We have a special prize to reward you for your efforts. If you'll just sign right here...
- **14369**: Sign for the moogle? [Sure./I don't think so.]
- **14370**: Oh, thank you, [Mister/Miss]...<Player>! A truly heroic name, kupo!
- **14371**: As a reward for your efforts, please have this! Many thanks, and [safe travels/Happy Vana'versary], kupo!
- **14372**: What? You won't? That's a shame, kupo. I had a special prize here just for you, but without your signature, I'll just have to hold on to it...
- **14373**: If you change your mind, come back quickly. The mog tablets will be scattered to the wind again at any moment, kupo...

## Events

### Event 65535

#### Metadata

| Field        | Value   |
|--------------|---------|
| Entrypoint   | 0x0000  |
| Data Size    | 1 bytes |
| Instructions | 1       |

```
      00 01 02 03 04 05 06 07  08 09 0A 0B 0C 0D 0E 0F
      -- -- -- -- -- -- -- --  -- -- -- -- -- -- -- --
0000: 00                                                .               
```

#### Opcodes

```
  0: 0x0000 [0x00] END_REQSTACK()
```

### Event 10114

#### Metadata

| Field        | Value    |
|--------------|----------|
| Entrypoint   | 0x0001   |
| Data Size    | 64 bytes |
| Instructions | 10       |

```
      00 01 02 03 04 05 06 07  08 09 0A 0B 0C 0D 0E 0F
      -- -- -- -- -- -- -- --  -- -- -- -- -- -- -- --
0000:    1E F0 FF FF 7F 1D 00  80 23 24 01 80 02 80 02   ........#$.....
0010: 80 25 02 00 10 02 80 00  23 00 1A 89 04 01 0A 00  .%......#.......
0020: 01 3F 00 02 00 10 03 80  00 34 00 1A 9E 04 01 0A  .?.......4......
0030: 00 01 3F 00 02 00 10 04  80 00 3F 00 01 3F 00 21  ..?.......?..?.!
0040: 00                                                .               
```

#### Opcodes

```
  0: 0x0001 [0x1E] EventEntity looks at LocalPlayer and starts talking
  1: 0x0006 [0x1D] PRINT_EVENT_MESSAGE(message_id=14323*)
    → "Greetings, adventurer! You've heard the tale of the mog tablets, haven't you? If any of them turn up in your travels, promise you'll let me know, kupo!"
  2: 0x0009 [0x23] WAIT_FOR_DIALOG_INTERACTION
  3: 0x000A [0x24] CREATE_DIALOG(message_id=14328*, default_option=0*, option_flags=0*)
    → "Ask about something? [What's a mog tablet?/The history of mog tablets./Nothing.]"
  4: 0x0011 [0x25] WAIT_DIALOG_SELECT()
  5: 0x0012 [0x02] IF !(Work_Zone[0] == 0*) GOTO 0x0023
  6: 0x001A [0x1A] CALL_SUBROUTINE(address=0x0489)
  7: 0x001D [0x01] GOTO 0x000A

SUBROUTINE_003F:
  8: 0x003F [0x21] END_EVENT
  9: 0x0040 [0x00] END_REQSTACK()
```

#### Data or dead code:

```
# Dead code (unreachable instructions):
     0x0020 [0x01] GOTO 0x003F
     0x0031 [0x01] GOTO 0x003F
```

### Event 10108

#### Metadata

| Field        | Value     |
|--------------|-----------|
| Entrypoint   | 0x0041    |
| Data Size    | 142 bytes |
| Instructions | 17        |

```
      00 01 02 03 04 05 06 07  08 09 0A 0B 0C 0D 0E 0F
      -- -- -- -- -- -- -- --  -- -- -- -- -- -- -- --
0040:    1E F0 FF FF 7F 1D 00  80 23 24 05 80 02 80 02   ........#$.....
0050: 80 25 02 00 10 02 80 00  63 00 1A 89 04 01 4A 00  .%......c.....J.
0060: 01 CD 00 02 00 10 03 80  00 74 00 1A 9E 04 01 4A  .........t.....J
0070: 00 01 CD 00 02 00 10 04  80 00 C2 00 1A C3 04 03  ................
0080: 03 00 02 80 1A DD 04 02  03 00 02 80 80 95 00 01  ................
0090: 7F 00 01 BF 00 02 03 00  03 80 80 A3 00 01 0D 01  ................
00A0: 01 BF 00 02 03 00 04 80  80 B1 00 01 C4 02 01 BF  ................
00B0: 00 02 03 00 06 80 80 BF  00 01 89 03 01 BF 00 01  ................
00C0: CD 00 02 00 10 06 80 00  CD 00 01 CD 00 21 00     .............!. 
```

#### Opcodes

```
  0: 0x0041 [0x1E] EventEntity looks at LocalPlayer and starts talking
  1: 0x0046 [0x1D] PRINT_EVENT_MESSAGE(message_id=14323*)
    → "Greetings, adventurer! You've heard the tale of the mog tablets, haven't you? If any of them turn up in your travels, promise you'll let me know, kupo!"
  2: 0x0049 [0x23] WAIT_FOR_DIALOG_INTERACTION
  3: 0x004A [0x24] CREATE_DIALOG(message_id=14326*, default_option=0*, option_flags=0*)
    → "Ask about something? [What's a mog tablet?/The history of mog tablets./List of tablets./Nothing.]"
  4: 0x0051 [0x25] WAIT_DIALOG_SELECT()
  5: 0x0052 [0x02] IF !(Work_Zone[0] == 0*) GOTO 0x0063
  6: 0x005A [0x1A] CALL_SUBROUTINE(address=0x0489)
  7: 0x005D [0x01] GOTO 0x004A

SUBROUTINE_007F:
  8: 0x007F [0x03] ExtData[1]->WorkLocal[3] = 0*
  9: 0x0084 [0x1A] CALL_SUBROUTINE(address=0x04DD)
 10: 0x0087 [0x02] IF !(ExtData[1]->WorkLocal[3] == 0*) GOTO 0x0095
 11: 0x008F [0x01] GOTO 0x007F

SUBROUTINE_00BF:
 12: 0x00BF [0x01] GOTO 0x00CD
 13: 0x00C2 [0x02] IF !(Work_Zone[0] == 3*) GOTO 0x00CD
 14: 0x00CA [0x01] GOTO 0x00CD

SUBROUTINE_00CD:
 15: 0x00CD [0x21] END_EVENT
 16: 0x00CE [0x00] END_REQSTACK()
```

#### Data or dead code:

```
# Dead code (unreachable instructions):
     0x0060 [0x01] GOTO 0x00CD
     0x0071 [0x01] GOTO 0x00CD
# Dead code (unreachable instructions):
     0x0092 [0x01] GOTO 0x00BF
     0x00A0 [0x01] GOTO 0x00BF
     0x00AE [0x01] GOTO 0x00BF
     0x00BC [0x01] GOTO 0x00BF
```

### Event 10109

#### Metadata

| Field        | Value     |
|--------------|-----------|
| Entrypoint   | 0x00CF    |
| Data Size    | 323 bytes |
| Instructions | 70        |

```
      00 01 02 03 04 05 06 07  08 09 0A 0B 0C 0D 0E 0F
      -- -- -- -- -- -- -- --  -- -- -- -- -- -- -- --
00C0:                                               1E                 .
00D0: F0 FF FF 7F 1D 07 80 23  24 08 80 02 80 02 80 25  .......#$......%
00E0: 02 00 10 02 80 00 F1 00  1A 89 04 01 D8 00 01 10  ................
00F0: 02 02 00 10 03 80 00 02  01 1A 9E 04 01 D8 00 01  ................
0100: 10 02 02 00 10 04 80 00  50 01 1A C3 04 03 03 00  ........P.......
0110: 03 80 1A DD 04 02 03 00  02 80 80 23 01 01 7F 00  ...........#....
0120: 01 4D 01 02 03 00 03 80  80 31 01 01 0D 01 01 4D  .M.......1.....M
0130: 01 02 03 00 04 80 80 3F  01 01 C4 02 01 4D 01 02  .......?.....M..
0140: 03 00 06 80 80 4D 01 01  89 03 01 4D 01 01 10 02  .....M.....M....
0150: 02 00 10 06 80 00 05 02  1D 09 80 23 1D 0A 80 23  ...........#...#
0160: 03 01 10 03 80 43 00 43  01 02 08 10 02 80 00 02  .....C.C........
0170: 02 03 00 00 02 10 3E 00  00 02 80 81 01 1D 0B 80  ......>.........
0180: 23 3E 00 00 03 80 8C 01  1D 0C 80 23 3E 00 00 04  #>.........#>...
0190: 80 97 01 1D 0D 80 23 3E  00 00 06 80 A2 01 1D 0E  ......#>........
01A0: 80 23 3E 00 00 0F 80 AD  01 1D 10 80 23 3E 00 00  .#>.........#>..
01B0: 11 80 B8 01 1D 12 80 23  3E 00 00 13 80 C3 01 1D  .......#>.......
01C0: 14 80 23 3E 00 00 15 80  CE 01 1D 16 80 23 3E 00  ..#>.........#>.
01D0: 00 17 80 D9 01 1D 18 80  23 3E 00 00 19 80 E4 01  ........#>......
01E0: 1D 1A 80 23 3E 00 00 1B  80 EF 01 1D 1C 80 23 1D  ...#>.........#.
01F0: 1D 80 23 1D 1E 80 23 1D  1F 80 23 1D 20 80 23 01  ..#...#...#. .#.
0200: D8 00 01 10 02 02 00 10  0F 80 00 10 02 01 10 02  ................
0210: 21 00                                             !.              
```

#### Opcodes

```
  0: 0x00CF [0x1E] EventEntity looks at LocalPlayer and starts talking
  1: 0x00D4 [0x1D] PRINT_EVENT_MESSAGE(message_id=14324*)
    → "[Greetings/Happy Vana'versary], my adventuring friend! Thanks to your efforts, the mog tablets have been recovered, and their magic freed to spread happiness and joy across the realm! You are truly a friend to all mooglekind, kupo!"
  2: 0x00D7 [0x23] WAIT_FOR_DIALOG_INTERACTION
  3: 0x00D8 [0x24] CREATE_DIALOG(message_id=14327*, default_option=0*, option_flags=0*)
    → "Ask about something? [What's a mog tablet?/The history of mog tablets./Collected tablets./The current Super Kupower./Nothing.]"
  4: 0x00DF [0x25] WAIT_DIALOG_SELECT()
  5: 0x00E0 [0x02] IF !(Work_Zone[0] == 0*) GOTO 0x00F1
  6: 0x00E8 [0x1A] CALL_SUBROUTINE(address=0x0489)
  7: 0x00EB [0x01] GOTO 0x00D8

SUBROUTINE_010D:
  8: 0x010D [0x03] ExtData[1]->WorkLocal[3] = 1*
  9: 0x0112 [0x1A] CALL_SUBROUTINE(address=0x04DD)
 10: 0x0115 [0x02] IF !(ExtData[1]->WorkLocal[3] == 0*) GOTO 0x0123
 11: 0x011D [0x01] GOTO 0x007F

SUBROUTINE_014D:
 12: 0x014D [0x01] GOTO 0x0210
 13: 0x0150 [0x02] IF !(Work_Zone[0] == 3*) GOTO 0x0205
 14: 0x0158 [0x1D] PRINT_EVENT_MESSAGE(message_id=14349*)
    → "Oh, glorious day! All eleven mog tablets have been recovered and restored to their rightful place at the altar of King Kupofried!"
 15: 0x015B [0x23] WAIT_FOR_DIALOG_INTERACTION
 16: 0x015C [0x1D] PRINT_EVENT_MESSAGE(message_id=14350*)
    → "Can you feel the ancient moogle magic in the air? You can now bask in the benefits of this Super Kupower..."
 17: 0x015F [0x23] WAIT_FOR_DIALOG_INTERACTION
 18: 0x0160 [0x03] Work_Zone[1] = 1*
 19: 0x0165 [0x43] SEND_EVENT_UPDATE: Send pending tag to server (packet 0x005B)
 20: 0x0167 [0x43] SEND_EVENT_UPDATE: Check pending flag (skip if not pending)
 21: 0x0169 [0x02] IF !(Work_Zone[8] == 0*) GOTO 0x0202
 22: 0x0171 [0x03] ExtData[1]->WorkLocal[0] = Work_Zone[2]
 23: 0x0176 [0x3E] IF !(ExtData[1]->WorkLocal[0] bit 0*) GOTO 0x0181
 24: 0x017D [0x1D] PRINT_EVENT_MESSAGE(message_id=14351*)
    → ""Thrifty Transit"! A special treat for the cost-conscious adventurer! For a limited time, all survival guide costs are eliminated, and you are able to teleport between nearby cities for a small fee, kupo!"
 25: 0x0180 [0x23] WAIT_FOR_DIALOG_INTERACTION
 26: 0x0181 [0x3E] IF !(ExtData[1]->WorkLocal[0] bit 1*) GOTO 0x018C
 27: 0x0188 [0x1D] PRINT_EVENT_MESSAGE(message_id=14352*)
    → ""Martial Master"! As an added bonus to your Signet, combat skills will increase more rapidly! Your magic and automaton skills will be boosted, too!"
 28: 0x018B [0x23] WAIT_FOR_DIALOG_INTERACTION
 29: 0x018C [0x3E] IF !(ExtData[1]->WorkLocal[0] bit 2*) GOTO 0x0197
 30: 0x0193 [0x1D] PRINT_EVENT_MESSAGE(message_id=14353*)
    → ""Blood of the Vampyr"! Signets have been boosted with the abilities of Regeneration and Refresh!"
 31: 0x0196 [0x23] WAIT_FOR_DIALOG_INTERACTION
 32: 0x0197 [0x3E] IF !(ExtData[1]->WorkLocal[0] bit 3*) GOTO 0x01A2
 33: 0x019E [0x1D] PRINT_EVENT_MESSAGE(message_id=14354*)
    → ""Treasure Hound"! With Signet in effect, you will now be able to sniff out more treasure and gil! Great riches surely await you, kupo!"
 34: 0x01A1 [0x23] WAIT_FOR_DIALOG_INTERACTION
 35: 0x01A2 [0x3E] IF !(ExtData[1]->WorkLocal[0] bit 4*) GOTO 0x01AD
 36: 0x01A9 [0x1D] PRINT_EVENT_MESSAGE(message_id=14355*)
    → ""Artisan's Advantage"! Good news for aspiring artisans, kupo! When receiving advanced image support, the chance of your ingredients being lost in a failed synthesis attempt has been drastically reduced!"
 37: 0x01AC [0x23] WAIT_FOR_DIALOG_INTERACTION
 38: 0x01AD [0x3E] IF !(ExtData[1]->WorkLocal[0] bit 5*) GOTO 0x01B8
 39: 0x01B4 [0x1D] PRINT_EVENT_MESSAGE(message_id=14356*)
    → ""Myriad Mystery Boxes"! What's this, kupo? Mysterious boxes have been sighted all over the realm! What genius could have devised such commendable creations?"
 40: 0x01B7 [0x23] WAIT_FOR_DIALOG_INTERACTION
 41: 0x01B8 [0x3E] IF !(ExtData[1]->WorkLocal[0] bit 6*) GOTO 0x01C3
 42: 0x01BF [0x1D] PRINT_EVENT_MESSAGE(message_id=14357*)
    → ""Dilatory Digestion"! Not content to be left behind, brown magic slides back out for another go, kupo! Now you can be what you eat for twice as long and save on all those trips to your local merchant."
 43: 0x01C2 [0x23] WAIT_FOR_DIALOG_INTERACTION
 44: 0x01C3 [0x3E] IF !(ExtData[1]->WorkLocal[0] bit 7*) GOTO 0x01CE
 45: 0x01CA [0x1D] PRINT_EVENT_MESSAGE(message_id=14358*)
    → ""Boundary Buster"! Trust in Signet and you can never go wrong, kupo! It's time to take to the field and vanquish a veritable army of enemies, for any Conquest Points you receive will be duly doubled!"
 46: 0x01CD [0x23] WAIT_FOR_DIALOG_INTERACTION
 47: 0x01CE [0x3E] IF !(ExtData[1]->WorkLocal[0] bit 8*) GOTO 0x01D9
 48: 0x01D5 [0x1D] PRINT_EVENT_MESSAGE(message_id=14359*)
    → ""Bountiful Bazaar"! Trade routes are bustling with unprecedented traffic and peddlers' carts are overflowing with objects now that regional goods are available to merchants across the realm, kupo!"
 49: 0x01D8 [0x23] WAIT_FOR_DIALOG_INTERACTION
 50: 0x01D9 [0x3E] IF !(ExtData[1]->WorkLocal[0] bit 9*) GOTO 0x01E4
 51: 0x01E0 [0x1D] PRINT_EVENT_MESSAGE(message_id=14360*)
    → ""Swift Shoes"! This is just the ticket for today's busy adventurer! For a limited time, provided that you're fully rested and healed, your legs will carry you with the speed of a chocobo!"
 52: 0x01E3 [0x23] WAIT_FOR_DIALOG_INTERACTION
 53: 0x01E4 [0x3E] IF !(ExtData[1]->WorkLocal[0] bit 10*) GOTO 0x01EF
 54: 0x01EB [0x1D] PRINT_EVENT_MESSAGE(message_id=14361*)
    → ""Crystal Caboodle"! Signet is now better than ever! Collect crystals from beastmen-controlled areas...and maybe even clusters from other areas!"
 55: 0x01EE [0x23] WAIT_FOR_DIALOG_INTERACTION
 56: 0x01EF [0x1D] PRINT_EVENT_MESSAGE(message_id=14363*)
    → "Be warned that our moogle magic is concentrated around this altar. If you venture to far-off lands, the Super Kupowers will be unable to protect you..."
 57: 0x01F2 [0x23] WAIT_FOR_DIALOG_INTERACTION
 58: 0x01F3 [0x1D] PRINT_EVENT_MESSAGE(message_id=14364*)
    → "What? What about the past, you say? Of course the magic won't travel through time. What a strange question, kupo..."
 59: 0x01F6 [0x23] WAIT_FOR_DIALOG_INTERACTION
 60: 0x01F7 [0x1D] PRINT_EVENT_MESSAGE(message_id=14365*)
    → "But not an altogether pointless, one. The powers of thirtfy transit do seem to apply across the space-time continuum, kupo."
 61: 0x01FA [0x23] WAIT_FOR_DIALOG_INTERACTION
 62: 0x01FB [0x1D] PRINT_EVENT_MESSAGE(message_id=14366*)
    → "The whole system is filled with mysteries."
 63: 0x01FE [0x23] WAIT_FOR_DIALOG_INTERACTION
 64: 0x01FF [0x01] GOTO 0x00D8
 65: 0x0202 [0x01] GOTO 0x0210
 66: 0x0205 [0x02] IF !(Work_Zone[0] == 4*) GOTO 0x0210
 67: 0x020D [0x01] GOTO 0x0210

SUBROUTINE_0210:
 68: 0x0210 [0x21] END_EVENT
 69: 0x0211 [0x00] END_REQSTACK()
```

#### Data or dead code:

```
# Dead code (unreachable instructions):
     0x00EE [0x01] GOTO 0x0210
     0x00FF [0x01] GOTO 0x0210
# Dead code (unreachable instructions):
     0x0120 [0x01] GOTO 0x014D
     0x012E [0x01] GOTO 0x014D
     0x013C [0x01] GOTO 0x014D
     0x014A [0x01] GOTO 0x014D
```

### Event 10110

#### Metadata

| Field        | Value    |
|--------------|----------|
| Entrypoint   | 0x0212   |
| Data Size    | 64 bytes |
| Instructions | 10       |

```
      00 01 02 03 04 05 06 07  08 09 0A 0B 0C 0D 0E 0F
      -- -- -- -- -- -- -- --  -- -- -- -- -- -- -- --
0210:       1E F0 FF FF 7F 1D  21 80 23 24 01 80 02 80    ......!.#$....
0220: 02 80 25 02 00 10 02 80  00 34 02 1A 89 04 01 1B  ..%......4......
0230: 02 01 50 02 02 00 10 03  80 00 45 02 1A 9E 04 01  ..P.......E.....
0240: 1B 02 01 50 02 02 00 10  04 80 00 50 02 01 50 02  ...P.......P..P.
0250: 21 00                                             !.              
```

#### Opcodes

```
  0: 0x0212 [0x1E] EventEntity looks at LocalPlayer and starts talking
  1: 0x0217 [0x1D] PRINT_EVENT_MESSAGE(message_id=14325*)
    → "Oh no! What a shame, kupo! The mog tablets that were recovered have been scattered to the ends of Vana'diel once more..."
  2: 0x021A [0x23] WAIT_FOR_DIALOG_INTERACTION
  3: 0x021B [0x24] CREATE_DIALOG(message_id=14328*, default_option=0*, option_flags=0*)
    → "Ask about something? [What's a mog tablet?/The history of mog tablets./Nothing.]"
  4: 0x0222 [0x25] WAIT_DIALOG_SELECT()
  5: 0x0223 [0x02] IF !(Work_Zone[0] == 0*) GOTO 0x0234
  6: 0x022B [0x1A] CALL_SUBROUTINE(address=0x0489)
  7: 0x022E [0x01] GOTO 0x021B

SUBROUTINE_0250:
  8: 0x0250 [0x21] END_EVENT
  9: 0x0251 [0x00] END_REQSTACK()
```

#### Data or dead code:

```
# Dead code (unreachable instructions):
     0x0231 [0x01] GOTO 0x0250
     0x0242 [0x01] GOTO 0x0250
```

### Event 10111

#### Metadata

| Field        | Value     |
|--------------|-----------|
| Entrypoint   | 0x0252    |
| Data Size    | 197 bytes |
| Instructions | 34        |

```
      00 01 02 03 04 05 06 07  08 09 0A 0B 0C 0D 0E 0F
      -- -- -- -- -- -- -- --  -- -- -- -- -- -- -- --
0250:       1E F0 FF FF 7F 1D  22 80 23 1D 23 80 23 24    ......".#.#.#$
0260: 24 80 02 80 02 80 25 02  00 10 02 80 00 7F 02 1D  $.....%.........
0270: 25 80 23 1D 26 80 23 03  01 10 04 80 01 15 03 02  %.#.&.#.........
0280: 00 10 03 80 00 15 03 1D  27 80 23 1D 28 80 23 24  ........'.#.(.#$
0290: 05 80 02 80 02 80 25 02  00 10 02 80 00 A8 02 1A  ......%.........
02A0: 89 04 01 8F 02 01 12 03  02 00 10 03 80 00 B9 02  ................
02B0: 1A 9E 04 01 8F 02 01 12  03 02 00 10 04 80 00 07  ................
02C0: 03 1A C3 04 03 03 00 04  80 1A DD 04 02 03 00 02  ................
02D0: 80 80 DA 02 01 7F 00 01  04 03 02 03 00 03 80 80  ................
02E0: E8 02 01 0D 01 01 04 03  02 03 00 04 80 80 F6 02  ................
02F0: 01 C4 02 01 04 03 02 03  00 06 80 80 04 03 01 89  ................
0300: 03 01 04 03 01 12 03 02  00 10 06 80 00 12 03 01  ................
0310: 12 03 01 15 03 21 00                              .....!.         
```

#### Opcodes

```
  0: 0x0252 [0x1E] EventEntity looks at LocalPlayer and starts talking
  1: 0x0257 [0x1D] PRINT_EVENT_MESSAGE(message_id=14367*)
    → "Oh, it's you! It's really you! The brave adventurer who discovered one of our mog tablets!"
  2: 0x025A [0x23] WAIT_FOR_DIALOG_INTERACTION
  3: 0x025B [0x1D] PRINT_EVENT_MESSAGE(message_id=14368*)
    → "It's a pleasure, an honor to meet you, kupo! We have a special prize to reward you for your efforts. If you'll just sign right here..."
  4: 0x025E [0x23] WAIT_FOR_DIALOG_INTERACTION
  5: 0x025F [0x24] CREATE_DIALOG(message_id=14369*, default_option=0*, option_flags=0*)
    → "Sign for the moogle? [Sure./I don't think so.]"
  6: 0x0266 [0x25] WAIT_DIALOG_SELECT()
  7: 0x0267 [0x02] IF !(Work_Zone[0] == 0*) GOTO 0x027F
  8: 0x026F [0x1D] PRINT_EVENT_MESSAGE(message_id=14370*)
    → "Oh, thank you, [Mister/Miss]...<Player>! A truly heroic name, kupo!"
  9: 0x0272 [0x23] WAIT_FOR_DIALOG_INTERACTION
 10: 0x0273 [0x1D] PRINT_EVENT_MESSAGE(message_id=14371*)
    → "As a reward for your efforts, please have this! Many thanks, and [safe travels/Happy Vana'versary], kupo!"
 11: 0x0276 [0x23] WAIT_FOR_DIALOG_INTERACTION
 12: 0x0277 [0x03] Work_Zone[1] = 2*
 13: 0x027C [0x01] GOTO 0x0315
 14: 0x027F [0x02] IF !(Work_Zone[0] == 1*) GOTO 0x0315
 15: 0x0287 [0x1D] PRINT_EVENT_MESSAGE(message_id=14372*)
    → "What? You won't? That's a shame, kupo. I had a special prize here just for you, but without your signature, I'll just have to hold on to it..."
 16: 0x028A [0x23] WAIT_FOR_DIALOG_INTERACTION
 17: 0x028B [0x1D] PRINT_EVENT_MESSAGE(message_id=14373*)
    → "If you change your mind, come back quickly. The mog tablets will be scattered to the wind again at any moment, kupo..."
 18: 0x028E [0x23] WAIT_FOR_DIALOG_INTERACTION

SUBROUTINE_028F:
 19: 0x028F [0x24] CREATE_DIALOG(message_id=14326*, default_option=0*, option_flags=0*)
    → "Ask about something? [What's a mog tablet?/The history of mog tablets./List of tablets./Nothing.]"
 20: 0x0296 [0x25] WAIT_DIALOG_SELECT()
 21: 0x0297 [0x02] IF !(Work_Zone[0] == 0*) GOTO 0x02A8
 22: 0x029F [0x1A] CALL_SUBROUTINE(address=0x0489)
 23: 0x02A2 [0x01] GOTO 0x028F

SUBROUTINE_02C4:
 24: 0x02C4 [0x03] ExtData[1]->WorkLocal[3] = 2*
 25: 0x02C9 [0x1A] CALL_SUBROUTINE(address=0x04DD)
 26: 0x02CC [0x02] IF !(ExtData[1]->WorkLocal[3] == 0*) GOTO 0x02DA
 27: 0x02D4 [0x01] GOTO 0x007F

SUBROUTINE_0304:
 28: 0x0304 [0x01] GOTO 0x0312
 29: 0x0307 [0x02] IF !(Work_Zone[0] == 3*) GOTO 0x0312
 30: 0x030F [0x01] GOTO 0x0312

SUBROUTINE_0312:
 31: 0x0312 [0x01] GOTO 0x0315

SUBROUTINE_0315:
 32: 0x0315 [0x21] END_EVENT
 33: 0x0316 [0x00] END_REQSTACK()
```

#### Data or dead code:

```
# Dead code (unreachable instructions):
     0x02A5 [0x01] GOTO 0x0312
     0x02B6 [0x01] GOTO 0x0312
# Dead code (unreachable instructions):
     0x02D7 [0x01] GOTO 0x0304
     0x02E5 [0x01] GOTO 0x0304
     0x02F3 [0x01] GOTO 0x0304
     0x0301 [0x01] GOTO 0x0304
```

### Event 10112

#### Metadata

| Field        | Value      |
|--------------|------------|
| Entrypoint   | 0x0317     |
| Data Size    | 1737 bytes |
| Instructions | 398        |

```
      00 01 02 03 04 05 06 07  08 09 0A 0B 0C 0D 0E 0F
      -- -- -- -- -- -- -- --  -- -- -- -- -- -- -- --
0310:                      1E  F0 FF FF 7F 1D 22 80 23         ......".#
0320: 1D 23 80 23 24 24 80 02  80 02 80 25 02 00 10 02  .#.#$$.....%....
0330: 80 00 44 03 1D 25 80 23  1D 26 80 23 03 01 10 04  ..D..%.#.&.#....
0340: 80 01 87 04 02 00 10 03  80 00 87 04 1D 27 80 23  .............'.#
0350: 1D 28 80 23 24 08 80 02  80 02 80 25 02 00 10 02  .(.#$......%....
0360: 80 00 6D 03 1A 89 04 01  54 03 01 84 04 02 00 10  ..m.....T.......
0370: 03 80 00 7E 03 1A 9E 04  01 54 03 01 84 04 02 00  ...~.....T......
0380: 10 04 80 00 CC 03 1A C3  04 03 03 00 06 80 1A DD  ................
0390: 04 02 03 00 02 80 80 9F  03 01 7F 00 01 C9 03 02  ................
03A0: 03 00 03 80 80 AD 03 01  0D 01 01 C9 03 02 03 00  ................
03B0: 04 80 80 BB 03 01 C4 02  01 C9 03 02 03 00 06 80  ................
03C0: 80 C9 03 01 89 03 01 C9  03 01 84 04 02 00 10 06  ................
03D0: 80 00 79 04 1D 09 80 23  1D 0A 80 23 03 01 10 03  ..y....#...#....
03E0: 80 43 00 43 01 02 08 10  02 80 00 76 04 03 00 00  .C.C.......v....
03F0: 02 10 3E 00 00 02 80 FD  03 1D 0B 80 23 3E 00 00  ..>.........#>..
0400: 03 80 08 04 1D 0C 80 23  3E 00 00 04 80 13 04 1D  .......#>.......
0410: 0D 80 23 3E 00 00 06 80  1E 04 1D 0E 80 23 3E 00  ..#>.........#>.
0420: 00 0F 80 29 04 1D 10 80  23 3E 00 00 11 80 34 04  ...)....#>....4.
0430: 1D 12 80 23 3E 00 00 13  80 3F 04 1D 14 80 23 3E  ...#>....?....#>
0440: 00 00 15 80 4A 04 1D 16  80 23 3E 00 00 17 80 55  ....J....#>....U
0450: 04 1D 18 80 23 3E 00 00  19 80 60 04 1D 1A 80 23  ....#>....`....#
0460: 3E 00 00 1B 80 6B 04 1D  1C 80 23 1D 1D 80 23 1D  >....k....#...#.
0470: 1E 80 23 01 54 03 01 84  04 02 00 10 0F 80 00 84  ..#.T...........
0480: 04 01 84 04 01 87 04 21  00 1D 29 80 23 1D 2A 80  .......!..).#.*.
0490: 23 1D 2B 80 23 1D 2C 80  23 1D 2D 80 23 1B 1D 2E  #.+.#.,.#.-.#...
04A0: 80 23 1D 2F 80 23 1D 30  80 23 1D 31 80 23 1D 32  .#./.#.0.#.1.#.2
04B0: 80 23 1D 33 80 23 1D 34  80 23 1D 35 80 23 1D 36  .#.3.#.4.#.5.#.6
04C0: 80 23 1B 03 01 10 06 80  43 00 43 01 02 08 10 02  .#......C.C.....
04D0: 80 00 DC 04 1D 37 80 23  1D 38 80 23 1B 03 01 10  .....7.#.8.#....
04E0: 0F 80 43 00 43 01 02 08  10 02 80 00 D5 09 03 01  ..C.C...........
04F0: 00 02 10 3E 01 00 02 80  02 05 03 02 10 03 80 01  ...>............
0500: 09 05 3C 02 00 02 80 03  80 3E 01 00 03 80 18 05  ..<......>......
0510: 03 03 10 03 80 01 1F 05  3C 02 00 03 80 03 80 3E  ........<......>
0520: 01 00 04 80 2E 05 03 04  10 03 80 01 35 05 3C 02  ............5.<.
0530: 00 04 80 03 80 3E 01 00  06 80 44 05 03 05 10 03  .....>....D.....
0540: 80 01 4B 05 3C 02 00 06  80 03 80 3E 01 00 0F 80  ..K.<......>....
0550: 5A 05 03 06 10 03 80 01  61 05 3C 02 00 0F 80 03  Z.......a.<.....
0560: 80 3E 01 00 11 80 70 05  03 07 10 03 80 01 77 05  .>....p.......w.
0570: 3C 02 00 11 80 03 80 3E  01 00 13 80 86 05 03 08  <......>........
0580: 10 03 80 01 8D 05 3C 02  00 13 80 03 80 3E 01 00  ......<......>..
0590: 15 80 9C 05 03 09 10 03  80 01 A3 05 3C 02 00 15  ............<...
05A0: 80 03 80 3E 01 00 17 80  B2 05 03 00 17 03 80 01  ...>............
05B0: B9 05 3C 02 00 17 80 03  80 3E 01 00 19 80 C8 05  ..<......>......
05C0: 03 01 17 03 80 01 CF 05  3C 02 00 19 80 03 80 3E  ........<......>
05D0: 01 00 1B 80 DE 05 03 02  17 03 80 01 E5 05 3C 02  ..............<.
05E0: 00 1B 80 03 80 3E 01 00  39 80 F4 05 03 03 17 03  .....>..9.......
05F0: 80 01 FB 05 3C 02 00 39  80 03 80 3E 01 00 3A 80  ....<..9...>..:.
0600: 0A 06 03 04 17 03 80 01  11 06 3C 02 00 3A 80 03  ..........<..:..
0610: 80 3E 01 00 3B 80 20 06  03 05 17 03 80 01 27 06  .>..;. .......'.
0620: 3C 02 00 3B 80 03 80 3E  01 00 3C 80 36 06 03 06  <..;...>..<.6...
0630: 17 03 80 01 3D 06 3C 02  00 3C 80 03 80 3E 01 00  ....=.<..<...>..
0640: 3D 80 4C 06 03 07 17 03  80 01 53 06 3C 02 00 3D  =.L.......S.<..=
0650: 80 03 80 3E 01 00 3E 80  62 06 03 08 17 03 80 01  ...>..>.b.......
0660: 69 06 3C 02 00 3E 80 03  80 3E 01 00 3F 80 78 06  i.<..>...>..?.x.
0670: 03 09 17 03 80 01 7F 06  3C 02 00 3F 80 03 80 3E  ........<..?...>
0680: 01 00 40 80 8E 06 03 0A  17 03 80 01 95 06 3C 02  ..@...........<.
0690: 00 40 80 03 80 3E 01 00  41 80 A4 06 03 0B 17 03  .@...>..A.......
06A0: 80 01 AB 06 3C 02 00 41  80 03 80 3E 01 00 42 80  ....<..A...>..B.
06B0: BA 06 03 0C 17 03 80 01  C1 06 3C 02 00 42 80 03  ..........<..B..
06C0: 80 3E 01 00 43 80 D0 06  03 0D 17 03 80 01 D7 06  .>..C...........
06D0: 3C 02 00 43 80 03 80 3E  01 00 44 80 E6 06 03 0E  <..C...>..D.....
06E0: 17 03 80 01 ED 06 3C 02  00 44 80 03 80 3E 01 00  ......<..D...>..
06F0: 45 80 FC 06 03 0F 17 03  80 01 03 07 3C 02 00 45  E...........<..E
0700: 80 03 80 3E 01 00 46 80  12 07 03 10 17 03 80 01  ...>..F.........
0710: 19 07 3C 02 00 46 80 03  80 3E 01 00 47 80 28 07  ..<..F...>..G.(.
0720: 03 11 17 03 80 01 2F 07  3C 02 00 47 80 03 80 3E  ....../.<..G...>
0730: 01 00 48 80 3E 07 03 12  17 03 80 01 45 07 3C 02  ..H.>.......E.<.
0740: 00 48 80 03 80 3E 01 00  49 80 54 07 03 13 17 03  .H...>..I.T.....
0750: 80 01 5B 07 3C 02 00 49  80 03 80 3E 01 00 4A 80  ..[.<..I...>..J.
0760: 6A 07 03 14 17 03 80 01  71 07 3C 02 00 4A 80 03  j.......q.<..J..
0770: 80 24 4B 80 02 80 02 00  25 02 00 10 02 80 00 8D  .$K.....%.......
0780: 07 03 01 10 11 80 43 00  43 01 01 D2 09 02 00 10  ......C.C.......
0790: 03 80 00 A1 07 03 01 10  13 80 43 00 43 01 01 D2  ..........C.C...
07A0: 09 02 00 10 04 80 00 B5  07 03 01 10 15 80 43 00  ..............C.
07B0: 43 01 01 D2 09 02 00 10  06 80 00 C9 07 03 01 10  C...............
07C0: 17 80 43 00 43 01 01 D2  09 02 00 10 0F 80 00 DD  ..C.C...........
07D0: 07 03 01 10 19 80 43 00  43 01 01 D2 09 02 00 10  ......C.C.......
07E0: 11 80 00 F1 07 03 01 10  1B 80 43 00 43 01 01 D2  ..........C.C...
07F0: 09 02 00 10 13 80 00 05  08 03 01 10 39 80 43 00  ............9.C.
0800: 43 01 01 D2 09 02 00 10  15 80 00 19 08 03 01 10  C...............
0810: 3A 80 43 00 43 01 01 D2  09 02 00 10 17 80 00 2D  :.C.C..........-
0820: 08 03 01 10 3B 80 43 00  43 01 01 D2 09 02 00 10  ....;.C.C.......
0830: 19 80 00 41 08 03 01 10  3C 80 43 00 43 01 01 D2  ...A....<.C.C...
0840: 09 02 00 10 1B 80 00 55  08 03 01 10 3D 80 43 00  .......U....=.C.
0850: 43 01 01 D2 09 02 00 10  39 80 00 69 08 03 01 10  C.......9..i....
0860: 3E 80 43 00 43 01 01 D2  09 02 00 10 3A 80 00 7D  >.C.C.......:..}
0870: 08 03 01 10 3F 80 43 00  43 01 01 D2 09 02 00 10  ....?.C.C.......
0880: 3B 80 00 91 08 03 01 10  40 80 43 00 43 01 01 D2  ;.......@.C.C...
0890: 09 02 00 10 3C 80 00 A5  08 03 01 10 41 80 43 00  ....<.......A.C.
08A0: 43 01 01 D2 09 02 00 10  3D 80 00 B9 08 03 01 10  C.......=.......
08B0: 42 80 43 00 43 01 01 D2  09 02 00 10 3E 80 00 CD  B.C.C.......>...
08C0: 08 03 01 10 43 80 43 00  43 01 01 D2 09 02 00 10  ....C.C.C.......
08D0: 3F 80 00 E1 08 03 01 10  44 80 43 00 43 01 01 D2  ?.......D.C.C...
08E0: 09 02 00 10 40 80 00 F5  08 03 01 10 45 80 43 00  ....@.......E.C.
08F0: 43 01 01 D2 09 02 00 10  41 80 00 09 09 03 01 10  C.......A.......
0900: 46 80 43 00 43 01 01 D2  09 02 00 10 42 80 00 1D  F.C.C.......B...
0910: 09 03 01 10 47 80 43 00  43 01 01 D2 09 02 00 10  ....G.C.C.......
0920: 43 80 00 31 09 03 01 10  48 80 43 00 43 01 01 D2  C..1....H.C.C...
0930: 09 02 00 10 44 80 00 45  09 03 01 10 49 80 43 00  ....D..E....I.C.
0940: 43 01 01 D2 09 02 00 10  45 80 00 59 09 03 01 10  C.......E..Y....
0950: 4A 80 43 00 43 01 01 D2  09 02 00 10 46 80 00 6D  J.C.C.......F..m
0960: 09 03 01 10 4C 80 43 00  43 01 01 D2 09 02 00 10  ....L.C.C.......
0970: 47 80 00 81 09 03 01 10  4D 80 43 00 43 01 01 D2  G.......M.C.C...
0980: 09 02 00 10 48 80 00 95  09 03 01 10 4E 80 43 00  ....H.......N.C.
0990: 43 01 01 D2 09 02 00 10  49 80 00 A9 09 03 01 10  C.......I.......
09A0: 4F 80 43 00 43 01 01 D2  09 02 00 10 4A 80 00 BD  O.C.C.......J...
09B0: 09 03 01 10 50 80 43 00  43 01 01 D2 09 02 00 10  ....P.C.C.......
09C0: 4C 80 00 D2 09 03 01 10  02 80 03 03 00 11 80 01  L...............
09D0: D2 09 01 DF 09 03 01 10  02 80 03 03 00 11 80 1B  ................
```

#### Opcodes

```
  0: 0x0317 [0x1E] EventEntity looks at LocalPlayer and starts talking
  1: 0x031C [0x1D] PRINT_EVENT_MESSAGE(message_id=14367*)
    → "Oh, it's you! It's really you! The brave adventurer who discovered one of our mog tablets!"
  2: 0x031F [0x23] WAIT_FOR_DIALOG_INTERACTION
  3: 0x0320 [0x1D] PRINT_EVENT_MESSAGE(message_id=14368*)
    → "It's a pleasure, an honor to meet you, kupo! We have a special prize to reward you for your efforts. If you'll just sign right here..."
  4: 0x0323 [0x23] WAIT_FOR_DIALOG_INTERACTION
  5: 0x0324 [0x24] CREATE_DIALOG(message_id=14369*, default_option=0*, option_flags=0*)
    → "Sign for the moogle? [Sure./I don't think so.]"
  6: 0x032B [0x25] WAIT_DIALOG_SELECT()
  7: 0x032C [0x02] IF !(Work_Zone[0] == 0*) GOTO 0x0344
  8: 0x0334 [0x1D] PRINT_EVENT_MESSAGE(message_id=14370*)
    → "Oh, thank you, [Mister/Miss]...<Player>! A truly heroic name, kupo!"
  9: 0x0337 [0x23] WAIT_FOR_DIALOG_INTERACTION
 10: 0x0338 [0x1D] PRINT_EVENT_MESSAGE(message_id=14371*)
    → "As a reward for your efforts, please have this! Many thanks, and [safe travels/Happy Vana'versary], kupo!"
 11: 0x033B [0x23] WAIT_FOR_DIALOG_INTERACTION
 12: 0x033C [0x03] Work_Zone[1] = 2*
 13: 0x0341 [0x01] GOTO 0x0487
 14: 0x0344 [0x02] IF !(Work_Zone[0] == 1*) GOTO 0x0487
 15: 0x034C [0x1D] PRINT_EVENT_MESSAGE(message_id=14372*)
    → "What? You won't? That's a shame, kupo. I had a special prize here just for you, but without your signature, I'll just have to hold on to it..."
 16: 0x034F [0x23] WAIT_FOR_DIALOG_INTERACTION
 17: 0x0350 [0x1D] PRINT_EVENT_MESSAGE(message_id=14373*)
    → "If you change your mind, come back quickly. The mog tablets will be scattered to the wind again at any moment, kupo..."
 18: 0x0353 [0x23] WAIT_FOR_DIALOG_INTERACTION

SUBROUTINE_0354:
 19: 0x0354 [0x24] CREATE_DIALOG(message_id=14327*, default_option=0*, option_flags=0*)
    → "Ask about something? [What's a mog tablet?/The history of mog tablets./Collected tablets./The current Super Kupower./Nothing.]"
 20: 0x035B [0x25] WAIT_DIALOG_SELECT()
 21: 0x035C [0x02] IF !(Work_Zone[0] == 0*) GOTO 0x036D
 22: 0x0364 [0x1A] CALL_SUBROUTINE(address=0x0489)
 23: 0x0367 [0x01] GOTO 0x0354

SUBROUTINE_0389:
 24: 0x0389 [0x03] ExtData[1]->WorkLocal[3] = 3*
 25: 0x038E [0x1A] CALL_SUBROUTINE(address=0x04DD)
 26: 0x0391 [0x02] IF !(ExtData[1]->WorkLocal[3] == 0*) GOTO 0x039F
 27: 0x0399 [0x01] GOTO 0x007F

SUBROUTINE_03C9:
 28: 0x03C9 [0x01] GOTO 0x0484
 29: 0x03CC [0x02] IF !(Work_Zone[0] == 3*) GOTO 0x0479
 30: 0x03D4 [0x1D] PRINT_EVENT_MESSAGE(message_id=14349*)
    → "Oh, glorious day! All eleven mog tablets have been recovered and restored to their rightful place at the altar of King Kupofried!"
 31: 0x03D7 [0x23] WAIT_FOR_DIALOG_INTERACTION
 32: 0x03D8 [0x1D] PRINT_EVENT_MESSAGE(message_id=14350*)
    → "Can you feel the ancient moogle magic in the air? You can now bask in the benefits of this Super Kupower..."
 33: 0x03DB [0x23] WAIT_FOR_DIALOG_INTERACTION
 34: 0x03DC [0x03] Work_Zone[1] = 1*
 35: 0x03E1 [0x43] SEND_EVENT_UPDATE: Send pending tag to server (packet 0x005B)
 36: 0x03E3 [0x43] SEND_EVENT_UPDATE: Check pending flag (skip if not pending)
 37: 0x03E5 [0x02] IF !(Work_Zone[8] == 0*) GOTO 0x0476
 38: 0x03ED [0x03] ExtData[1]->WorkLocal[0] = Work_Zone[2]
 39: 0x03F2 [0x3E] IF !(ExtData[1]->WorkLocal[0] bit 0*) GOTO 0x03FD
 40: 0x03F9 [0x1D] PRINT_EVENT_MESSAGE(message_id=14351*)
    → ""Thrifty Transit"! A special treat for the cost-conscious adventurer! For a limited time, all survival guide costs are eliminated, and you are able to teleport between nearby cities for a small fee, kupo!"
 41: 0x03FC [0x23] WAIT_FOR_DIALOG_INTERACTION
 42: 0x03FD [0x3E] IF !(ExtData[1]->WorkLocal[0] bit 1*) GOTO 0x0408
 43: 0x0404 [0x1D] PRINT_EVENT_MESSAGE(message_id=14352*)
    → ""Martial Master"! As an added bonus to your Signet, combat skills will increase more rapidly! Your magic and automaton skills will be boosted, too!"
 44: 0x0407 [0x23] WAIT_FOR_DIALOG_INTERACTION
 45: 0x0408 [0x3E] IF !(ExtData[1]->WorkLocal[0] bit 2*) GOTO 0x0413
 46: 0x040F [0x1D] PRINT_EVENT_MESSAGE(message_id=14353*)
    → ""Blood of the Vampyr"! Signets have been boosted with the abilities of Regeneration and Refresh!"
 47: 0x0412 [0x23] WAIT_FOR_DIALOG_INTERACTION
 48: 0x0413 [0x3E] IF !(ExtData[1]->WorkLocal[0] bit 3*) GOTO 0x041E
 49: 0x041A [0x1D] PRINT_EVENT_MESSAGE(message_id=14354*)
    → ""Treasure Hound"! With Signet in effect, you will now be able to sniff out more treasure and gil! Great riches surely await you, kupo!"
 50: 0x041D [0x23] WAIT_FOR_DIALOG_INTERACTION
 51: 0x041E [0x3E] IF !(ExtData[1]->WorkLocal[0] bit 4*) GOTO 0x0429
 52: 0x0425 [0x1D] PRINT_EVENT_MESSAGE(message_id=14355*)
    → ""Artisan's Advantage"! Good news for aspiring artisans, kupo! When receiving advanced image support, the chance of your ingredients being lost in a failed synthesis attempt has been drastically reduced!"
 53: 0x0428 [0x23] WAIT_FOR_DIALOG_INTERACTION
 54: 0x0429 [0x3E] IF !(ExtData[1]->WorkLocal[0] bit 5*) GOTO 0x0434
 55: 0x0430 [0x1D] PRINT_EVENT_MESSAGE(message_id=14356*)
    → ""Myriad Mystery Boxes"! What's this, kupo? Mysterious boxes have been sighted all over the realm! What genius could have devised such commendable creations?"
 56: 0x0433 [0x23] WAIT_FOR_DIALOG_INTERACTION
 57: 0x0434 [0x3E] IF !(ExtData[1]->WorkLocal[0] bit 6*) GOTO 0x043F
 58: 0x043B [0x1D] PRINT_EVENT_MESSAGE(message_id=14357*)
    → ""Dilatory Digestion"! Not content to be left behind, brown magic slides back out for another go, kupo! Now you can be what you eat for twice as long and save on all those trips to your local merchant."
 59: 0x043E [0x23] WAIT_FOR_DIALOG_INTERACTION
 60: 0x043F [0x3E] IF !(ExtData[1]->WorkLocal[0] bit 7*) GOTO 0x044A
 61: 0x0446 [0x1D] PRINT_EVENT_MESSAGE(message_id=14358*)
    → ""Boundary Buster"! Trust in Signet and you can never go wrong, kupo! It's time to take to the field and vanquish a veritable army of enemies, for any Conquest Points you receive will be duly doubled!"
 62: 0x0449 [0x23] WAIT_FOR_DIALOG_INTERACTION
 63: 0x044A [0x3E] IF !(ExtData[1]->WorkLocal[0] bit 8*) GOTO 0x0455
 64: 0x0451 [0x1D] PRINT_EVENT_MESSAGE(message_id=14359*)
    → ""Bountiful Bazaar"! Trade routes are bustling with unprecedented traffic and peddlers' carts are overflowing with objects now that regional goods are available to merchants across the realm, kupo!"
 65: 0x0454 [0x23] WAIT_FOR_DIALOG_INTERACTION
 66: 0x0455 [0x3E] IF !(ExtData[1]->WorkLocal[0] bit 9*) GOTO 0x0460
 67: 0x045C [0x1D] PRINT_EVENT_MESSAGE(message_id=14360*)
    → ""Swift Shoes"! This is just the ticket for today's busy adventurer! For a limited time, provided that you're fully rested and healed, your legs will carry you with the speed of a chocobo!"
 68: 0x045F [0x23] WAIT_FOR_DIALOG_INTERACTION
 69: 0x0460 [0x3E] IF !(ExtData[1]->WorkLocal[0] bit 10*) GOTO 0x046B
 70: 0x0467 [0x1D] PRINT_EVENT_MESSAGE(message_id=14361*)
    → ""Crystal Caboodle"! Signet is now better than ever! Collect crystals from beastmen-controlled areas...and maybe even clusters from other areas!"
 71: 0x046A [0x23] WAIT_FOR_DIALOG_INTERACTION
 72: 0x046B [0x1D] PRINT_EVENT_MESSAGE(message_id=14363*)
    → "Be warned that our moogle magic is concentrated around this altar. If you venture to far-off lands, the Super Kupowers will be unable to protect you..."
 73: 0x046E [0x23] WAIT_FOR_DIALOG_INTERACTION
 74: 0x046F [0x1D] PRINT_EVENT_MESSAGE(message_id=14364*)
    → "What? What about the past, you say? Of course the magic won't travel through time. What a strange question, kupo..."
 75: 0x0472 [0x23] WAIT_FOR_DIALOG_INTERACTION
 76: 0x0473 [0x01] GOTO 0x0354
 77: 0x0476 [0x01] GOTO 0x0484
 78: 0x0479 [0x02] IF !(Work_Zone[0] == 4*) GOTO 0x0484
 79: 0x0481 [0x01] GOTO 0x0484

SUBROUTINE_0484:
 80: 0x0484 [0x01] GOTO 0x0487

SUBROUTINE_0487:
 81: 0x0487 [0x21] END_EVENT
 82: 0x0488 [0x00] END_REQSTACK()

SUBROUTINE_0489:
 83: 0x0489 [0x1D] PRINT_EVENT_MESSAGE(message_id=14329*)
    → "What's a mog tablet!? What's a mog tablet, you say!? Why, only the most awesome, amazing artifact in the annals of moogle history, that's what, kupo!"
 84: 0x048C [0x23] WAIT_FOR_DIALOG_INTERACTION
 85: 0x048D [0x1D] PRINT_EVENT_MESSAGE(message_id=14330*)
    → "There's eleven of them in all, to be exact, scattered to the far reaches of Vana'diel and just waiting to be discovered by brave adventurers like you!"
 86: 0x0490 [0x23] WAIT_FOR_DIALOG_INTERACTION
 87: 0x0491 [0x1D] PRINT_EVENT_MESSAGE(message_id=14331*)
    → "What happens if you find them? I thought you'd never ask, kupo! Each tablet is inscribed with an ancient moogle poem of joy, and legend has it that if all are found, the ancient moogle magic of King Kupofried the Great will be released once more, spreading joy and happiness through all the land!"
 88: 0x0494 [0x23] WAIT_FOR_DIALOG_INTERACTION
 89: 0x0495 [0x1D] PRINT_EVENT_MESSAGE(message_id=14332*)
    → "We explorer moogles have made it our life's work to recover the tablets and unlock their powers. But with these short legs and little-bitty wings, we can't do it alone, kupo!"
 90: 0x0498 [0x23] WAIT_FOR_DIALOG_INTERACTION
 91: 0x0499 [0x1D] PRINT_EVENT_MESSAGE(message_id=14333*)
    → "There! I've whipped up a spell that will instantly transport any tablets you find back here to me. Come back if you find anything, and happy exploring, kupo!"
 92: 0x049C [0x23] WAIT_FOR_DIALOG_INTERACTION
 93: 0x049D [0x1B] RETURN

SUBROUTINE_049E:
 94: 0x049E [0x1D] PRINT_EVENT_MESSAGE(message_id=14334*)
    → "Just sit right back and I'll tell you the tale, kupo. Many, many ages past, we moogles had our own glorious kingdom. It was truly the peak of moogle civilization, a veritable golden age for all mooglekind!"
 95: 0x04A1 [0x23] WAIT_FOR_DIALOG_INTERACTION
 96: 0x04A2 [0x1D] PRINT_EVENT_MESSAGE(message_id=14335*)
    → "The seventh king of this great nation was the wise and kindly King Kupofried, a masterful magician famed as the father of the fantastic moogle magic that survives to this very day, kupo!"
 97: 0x04A5 [0x23] WAIT_FOR_DIALOG_INTERACTION
 98: 0x04A6 [0x1D] PRINT_EVENT_MESSAGE(message_id=14336*)
    → "In his later years, King Kupofried embarked on what would become the greatest work of his illustrious reign. Seeking to pass down the prosperity of his kingdom to future generations, he inscribed eleven incantations of moogle joy and happiness onto eleven stone tablets."
 99: 0x04A9 [0x23] WAIT_FOR_DIALOG_INTERACTION
100: 0x04AA [0x1D] PRINT_EVENT_MESSAGE(message_id=14337*)
    → "Sadly, the kindly king's intentions went unappreciated by his selfish sons and daughters, and many a fierce feud broke out over who would inherit these relics, kupo..."
101: 0x04AD [0x23] WAIT_FOR_DIALOG_INTERACTION
102: 0x04AE [0x1D] PRINT_EVENT_MESSAGE(message_id=14338*)
    → "King Kupofried was greatly dismayed. How could the poems that he had composed out of pure love and joy become the root of such strife?"
103: 0x04B1 [0x23] WAIT_FOR_DIALOG_INTERACTION
104: 0x04B2 [0x1D] PRINT_EVENT_MESSAGE(message_id=14339*)
    → "In his despair, the king commanded his minion bats to scatter the tablets to the far corners of the world, where they would be seen by moogle eyes no more."
105: 0x04B5 [0x23] WAIT_FOR_DIALOG_INTERACTION
106: 0x04B6 [0x1D] PRINT_EVENT_MESSAGE(message_id=14340*)
    → ""Alas! I only wanted my children to be happy, kupo," he lamented, and flew away on his tiny yet majestic wings, never to be seen in his kingdom again."
107: 0x04B9 [0x23] WAIT_FOR_DIALOG_INTERACTION
108: 0x04BA [0x1D] PRINT_EVENT_MESSAGE(message_id=14341*)
    → "Left without its wise monarch, the once-glorious moogle kingdom fractured into warring tribes, falling into unrest...and, eventually, ruin. A tragic tale, don't you think, kupo?"
109: 0x04BD [0x23] WAIT_FOR_DIALOG_INTERACTION
110: 0x04BE [0x1D] PRINT_EVENT_MESSAGE(message_id=14342*)
    → "We explorer moogles are the proud descendants of King Kupofried, living only to bring our last great monarch's unrealized dream to fruition. We will--we must!--find the mog tablets and bring true joy and happiness to this world!"
111: 0x04C1 [0x23] WAIT_FOR_DIALOG_INTERACTION
112: 0x04C2 [0x1B] RETURN

SUBROUTINE_04C3:
113: 0x04C3 [0x03] Work_Zone[1] = 3*
114: 0x04C8 [0x43] SEND_EVENT_UPDATE: Send pending tag to server (packet 0x005B)
115: 0x04CA [0x43] SEND_EVENT_UPDATE: Check pending flag (skip if not pending)
116: 0x04CC [0x02] IF !(Work_Zone[8] == 0*) GOTO 0x04DC
117: 0x04D4 [0x1D] PRINT_EVENT_MESSAGE(message_id=14343*)
    → "Let's see... It appears that $0 moogle [tablet has/tablets have] already been found, kupo."
118: 0x04D7 [0x23] WAIT_FOR_DIALOG_INTERACTION
119: 0x04D8 [0x1D] PRINT_EVENT_MESSAGE(message_id=14344*)
    → "Here's a list of all the located tablets, kupo!"
120: 0x04DB [0x23] WAIT_FOR_DIALOG_INTERACTION
121: 0x04DC [0x1B] RETURN

SUBROUTINE_04DD:
122: 0x04DD [0x03] Work_Zone[1] = 4*
123: 0x04E2 [0x43] SEND_EVENT_UPDATE: Send pending tag to server (packet 0x005B)
124: 0x04E4 [0x43] SEND_EVENT_UPDATE: Check pending flag (skip if not pending)
125: 0x04E6 [0x02] IF !(Work_Zone[8] == 0*) GOTO 0x09D5
126: 0x04EE [0x03] ExtData[1]->WorkLocal[1] = Work_Zone[2]
127: 0x04F3 [0x3E] IF !(ExtData[1]->WorkLocal[1] bit 0*) GOTO 0x0502
128: 0x04FA [0x03] Work_Zone[2] = 1*
129: 0x04FF [0x01] GOTO 0x0509
130: 0x0502 [0x3C] SET_BIT_FLAG_CONDITIONAL(target_work_offset=ExtData[1]->WorkLocal[2], bit_index_work_offset=0*, condition_work_offset=1*)

SUBROUTINE_0509:
131: 0x0509 [0x3E] IF !(ExtData[1]->WorkLocal[1] bit 1*) GOTO 0x0518
132: 0x0510 [0x03] Work_Zone[3] = 1*
133: 0x0515 [0x01] GOTO 0x051F
134: 0x0518 [0x3C] SET_BIT_FLAG_CONDITIONAL(target_work_offset=ExtData[1]->WorkLocal[2], bit_index_work_offset=1*, condition_work_offset=1*)

SUBROUTINE_051F:
135: 0x051F [0x3E] IF !(ExtData[1]->WorkLocal[1] bit 2*) GOTO 0x052E
136: 0x0526 [0x03] Work_Zone[4] = 1*
137: 0x052B [0x01] GOTO 0x0535
138: 0x052E [0x3C] SET_BIT_FLAG_CONDITIONAL(target_work_offset=ExtData[1]->WorkLocal[2], bit_index_work_offset=2*, condition_work_offset=1*)

SUBROUTINE_0535:
139: 0x0535 [0x3E] IF !(ExtData[1]->WorkLocal[1] bit 3*) GOTO 0x0544
140: 0x053C [0x03] Work_Zone[5] = 1*
141: 0x0541 [0x01] GOTO 0x054B
142: 0x0544 [0x3C] SET_BIT_FLAG_CONDITIONAL(target_work_offset=ExtData[1]->WorkLocal[2], bit_index_work_offset=3*, condition_work_offset=1*)

SUBROUTINE_054B:
143: 0x054B [0x3E] IF !(ExtData[1]->WorkLocal[1] bit 4*) GOTO 0x055A
144: 0x0552 [0x03] Work_Zone[6] = 1*
145: 0x0557 [0x01] GOTO 0x0561
146: 0x055A [0x3C] SET_BIT_FLAG_CONDITIONAL(target_work_offset=ExtData[1]->WorkLocal[2], bit_index_work_offset=4*, condition_work_offset=1*)

SUBROUTINE_0561:
147: 0x0561 [0x3E] IF !(ExtData[1]->WorkLocal[1] bit 5*) GOTO 0x0570
148: 0x0568 [0x03] Work_Zone[7] = 1*
149: 0x056D [0x01] GOTO 0x0577
150: 0x0570 [0x3C] SET_BIT_FLAG_CONDITIONAL(target_work_offset=ExtData[1]->WorkLocal[2], bit_index_work_offset=5*, condition_work_offset=1*)

SUBROUTINE_0577:
151: 0x0577 [0x3E] IF !(ExtData[1]->WorkLocal[1] bit 6*) GOTO 0x0586
152: 0x057E [0x03] Work_Zone[8] = 1*
153: 0x0583 [0x01] GOTO 0x058D
154: 0x0586 [0x3C] SET_BIT_FLAG_CONDITIONAL(target_work_offset=ExtData[1]->WorkLocal[2], bit_index_work_offset=6*, condition_work_offset=1*)

SUBROUTINE_058D:
155: 0x058D [0x3E] IF !(ExtData[1]->WorkLocal[1] bit 7*) GOTO 0x059C
156: 0x0594 [0x03] Work_Zone[9] = 1*
157: 0x0599 [0x01] GOTO 0x05A3
158: 0x059C [0x3C] SET_BIT_FLAG_CONDITIONAL(target_work_offset=ExtData[1]->WorkLocal[2], bit_index_work_offset=7*, condition_work_offset=1*)

SUBROUTINE_05A3:
159: 0x05A3 [0x3E] IF !(ExtData[1]->WorkLocal[1] bit 8*) GOTO 0x05B2
160: 0x05AA [0x03] Work_Zone_1700[0] = 1*
161: 0x05AF [0x01] GOTO 0x05B9
162: 0x05B2 [0x3C] SET_BIT_FLAG_CONDITIONAL(target_work_offset=ExtData[1]->WorkLocal[2], bit_index_work_offset=8*, condition_work_offset=1*)

SUBROUTINE_05B9:
163: 0x05B9 [0x3E] IF !(ExtData[1]->WorkLocal[1] bit 9*) GOTO 0x05C8
164: 0x05C0 [0x03] Work_Zone_1700[1] = 1*
165: 0x05C5 [0x01] GOTO 0x05CF
166: 0x05C8 [0x3C] SET_BIT_FLAG_CONDITIONAL(target_work_offset=ExtData[1]->WorkLocal[2], bit_index_work_offset=9*, condition_work_offset=1*)

SUBROUTINE_05CF:
167: 0x05CF [0x3E] IF !(ExtData[1]->WorkLocal[1] bit 10*) GOTO 0x05DE
168: 0x05D6 [0x03] Work_Zone_1700[2] = 1*
169: 0x05DB [0x01] GOTO 0x05E5
170: 0x05DE [0x3C] SET_BIT_FLAG_CONDITIONAL(target_work_offset=ExtData[1]->WorkLocal[2], bit_index_work_offset=10*, condition_work_offset=1*)

SUBROUTINE_05E5:
171: 0x05E5 [0x3E] IF !(ExtData[1]->WorkLocal[1] bit 11*) GOTO 0x05F4
172: 0x05EC [0x03] Work_Zone_1700[3] = 1*
173: 0x05F1 [0x01] GOTO 0x05FB
174: 0x05F4 [0x3C] SET_BIT_FLAG_CONDITIONAL(target_work_offset=ExtData[1]->WorkLocal[2], bit_index_work_offset=11*, condition_work_offset=1*)

SUBROUTINE_05FB:
175: 0x05FB [0x3E] IF !(ExtData[1]->WorkLocal[1] bit 12*) GOTO 0x060A
176: 0x0602 [0x03] Work_Zone_1700[4] = 1*
177: 0x0607 [0x01] GOTO 0x0611
178: 0x060A [0x3C] SET_BIT_FLAG_CONDITIONAL(target_work_offset=ExtData[1]->WorkLocal[2], bit_index_work_offset=12*, condition_work_offset=1*)

SUBROUTINE_0611:
179: 0x0611 [0x3E] IF !(ExtData[1]->WorkLocal[1] bit 13*) GOTO 0x0620
180: 0x0618 [0x03] Work_Zone_1700[5] = 1*
181: 0x061D [0x01] GOTO 0x0627
182: 0x0620 [0x3C] SET_BIT_FLAG_CONDITIONAL(target_work_offset=ExtData[1]->WorkLocal[2], bit_index_work_offset=13*, condition_work_offset=1*)

SUBROUTINE_0627:
183: 0x0627 [0x3E] IF !(ExtData[1]->WorkLocal[1] bit 14*) GOTO 0x0636
184: 0x062E [0x03] Work_Zone_1700[6] = 1*
185: 0x0633 [0x01] GOTO 0x063D
186: 0x0636 [0x3C] SET_BIT_FLAG_CONDITIONAL(target_work_offset=ExtData[1]->WorkLocal[2], bit_index_work_offset=14*, condition_work_offset=1*)

SUBROUTINE_063D:
187: 0x063D [0x3E] IF !(ExtData[1]->WorkLocal[1] bit 15*) GOTO 0x064C
188: 0x0644 [0x03] Work_Zone_1700[7] = 1*
189: 0x0649 [0x01] GOTO 0x0653
190: 0x064C [0x3C] SET_BIT_FLAG_CONDITIONAL(target_work_offset=ExtData[1]->WorkLocal[2], bit_index_work_offset=15*, condition_work_offset=1*)

SUBROUTINE_0653:
191: 0x0653 [0x3E] IF !(ExtData[1]->WorkLocal[1] bit 16*) GOTO 0x0662
192: 0x065A [0x03] Work_Zone_1700[8] = 1*
193: 0x065F [0x01] GOTO 0x0669
194: 0x0662 [0x3C] SET_BIT_FLAG_CONDITIONAL(target_work_offset=ExtData[1]->WorkLocal[2], bit_index_work_offset=16*, condition_work_offset=1*)

SUBROUTINE_0669:
195: 0x0669 [0x3E] IF !(ExtData[1]->WorkLocal[1] bit 17*) GOTO 0x0678
196: 0x0670 [0x03] Work_Zone_1700[9] = 1*
197: 0x0675 [0x01] GOTO 0x067F
198: 0x0678 [0x3C] SET_BIT_FLAG_CONDITIONAL(target_work_offset=ExtData[1]->WorkLocal[2], bit_index_work_offset=17*, condition_work_offset=1*)

SUBROUTINE_067F:
199: 0x067F [0x3E] IF !(ExtData[1]->WorkLocal[1] bit 18*) GOTO 0x068E
200: 0x0686 [0x03] Work_Zone_1700[10] = 1*
201: 0x068B [0x01] GOTO 0x0695
202: 0x068E [0x3C] SET_BIT_FLAG_CONDITIONAL(target_work_offset=ExtData[1]->WorkLocal[2], bit_index_work_offset=18*, condition_work_offset=1*)

SUBROUTINE_0695:
203: 0x0695 [0x3E] IF !(ExtData[1]->WorkLocal[1] bit 19*) GOTO 0x06A4
204: 0x069C [0x03] Work_Zone_1700[11] = 1*
205: 0x06A1 [0x01] GOTO 0x06AB
206: 0x06A4 [0x3C] SET_BIT_FLAG_CONDITIONAL(target_work_offset=ExtData[1]->WorkLocal[2], bit_index_work_offset=19*, condition_work_offset=1*)

SUBROUTINE_06AB:
207: 0x06AB [0x3E] IF !(ExtData[1]->WorkLocal[1] bit 20*) GOTO 0x06BA
208: 0x06B2 [0x03] Work_Zone_1700[12] = 1*
209: 0x06B7 [0x01] GOTO 0x06C1
210: 0x06BA [0x3C] SET_BIT_FLAG_CONDITIONAL(target_work_offset=ExtData[1]->WorkLocal[2], bit_index_work_offset=20*, condition_work_offset=1*)

SUBROUTINE_06C1:
211: 0x06C1 [0x3E] IF !(ExtData[1]->WorkLocal[1] bit 21*) GOTO 0x06D0
212: 0x06C8 [0x03] Work_Zone_1700[13] = 1*
213: 0x06CD [0x01] GOTO 0x06D7
214: 0x06D0 [0x3C] SET_BIT_FLAG_CONDITIONAL(target_work_offset=ExtData[1]->WorkLocal[2], bit_index_work_offset=21*, condition_work_offset=1*)

SUBROUTINE_06D7:
215: 0x06D7 [0x3E] IF !(ExtData[1]->WorkLocal[1] bit 22*) GOTO 0x06E6
216: 0x06DE [0x03] Work_Zone_1700[14] = 1*
217: 0x06E3 [0x01] GOTO 0x06ED
218: 0x06E6 [0x3C] SET_BIT_FLAG_CONDITIONAL(target_work_offset=ExtData[1]->WorkLocal[2], bit_index_work_offset=22*, condition_work_offset=1*)

SUBROUTINE_06ED:
219: 0x06ED [0x3E] IF !(ExtData[1]->WorkLocal[1] bit 23*) GOTO 0x06FC
220: 0x06F4 [0x03] Work_Zone_1700[15] = 1*
221: 0x06F9 [0x01] GOTO 0x0703
222: 0x06FC [0x3C] SET_BIT_FLAG_CONDITIONAL(target_work_offset=ExtData[1]->WorkLocal[2], bit_index_work_offset=23*, condition_work_offset=1*)

SUBROUTINE_0703:
223: 0x0703 [0x3E] IF !(ExtData[1]->WorkLocal[1] bit 24*) GOTO 0x0712
224: 0x070A [0x03] Work_Zone_1700[16] = 1*
225: 0x070F [0x01] GOTO 0x0719
226: 0x0712 [0x3C] SET_BIT_FLAG_CONDITIONAL(target_work_offset=ExtData[1]->WorkLocal[2], bit_index_work_offset=24*, condition_work_offset=1*)

SUBROUTINE_0719:
227: 0x0719 [0x3E] IF !(ExtData[1]->WorkLocal[1] bit 25*) GOTO 0x0728
228: 0x0720 [0x03] Work_Zone_1700[17] = 1*
229: 0x0725 [0x01] GOTO 0x072F
230: 0x0728 [0x3C] SET_BIT_FLAG_CONDITIONAL(target_work_offset=ExtData[1]->WorkLocal[2], bit_index_work_offset=25*, condition_work_offset=1*)

SUBROUTINE_072F:
231: 0x072F [0x3E] IF !(ExtData[1]->WorkLocal[1] bit 26*) GOTO 0x073E
232: 0x0736 [0x03] Work_Zone_1700[18] = 1*
233: 0x073B [0x01] GOTO 0x0745
234: 0x073E [0x3C] SET_BIT_FLAG_CONDITIONAL(target_work_offset=ExtData[1]->WorkLocal[2], bit_index_work_offset=26*, condition_work_offset=1*)

SUBROUTINE_0745:
235: 0x0745 [0x3E] IF !(ExtData[1]->WorkLocal[1] bit 27*) GOTO 0x0754
236: 0x074C [0x03] Work_Zone_1700[19] = 1*
237: 0x0751 [0x01] GOTO 0x075B
238: 0x0754 [0x3C] SET_BIT_FLAG_CONDITIONAL(target_work_offset=ExtData[1]->WorkLocal[2], bit_index_work_offset=27*, condition_work_offset=1*)

SUBROUTINE_075B:
239: 0x075B [0x3E] IF !(ExtData[1]->WorkLocal[1] bit 28*) GOTO 0x076A
240: 0x0762 [0x03] Work_Zone_1700[20] = 1*
241: 0x0767 [0x01] GOTO 0x0771
242: 0x076A [0x3C] SET_BIT_FLAG_CONDITIONAL(target_work_offset=ExtData[1]->WorkLocal[2], bit_index_work_offset=28*, condition_work_offset=1*)

SUBROUTINE_0771:
243: 0x0771 [0x24] CREATE_DIALOG(message_id=14345*, default_option=0*, option_flags=ExtData[1]->WorkLocal[2])
    → "Choose a location: [West Ronfaure./East Ronfaure./La Theine Plateau./Valkurm Dunes./Jugner Forest./Batallia Downs./North Gustaberg./South Gustaberg./Konschtat Highlands./Pashhow Marshlands./Rolanberry Fields./Beaucedine Glacier./Xarcabard./West Sarutabaruta./East Sarutabaruta./Tahrongi Canyon./Buburimu Peninsula./Meriphataud Mountains./Sauromugue Champaign./Qufim Island./Behemoth's Dominion./Cape Teriggan./Eastern Altepa Desert./The Sanctuary of Zi'Tah./Ro'Maeve./Yuhtunga Jungle./Yhoator Jungle./Western Altepa Desert./Valley of Sorrows./Cancel.]"
244: 0x0778 [0x25] WAIT_DIALOG_SELECT()
245: 0x0779 [0x02] IF !(Work_Zone[0] == 0*) GOTO 0x078D
246: 0x0781 [0x03] Work_Zone[1] = 5*
247: 0x0786 [0x43] SEND_EVENT_UPDATE: Send pending tag to server (packet 0x005B)
248: 0x0788 [0x43] SEND_EVENT_UPDATE: Check pending flag (skip if not pending)
249: 0x078A [0x01] GOTO 0x09D2
250: 0x078D [0x02] IF !(Work_Zone[0] == 1*) GOTO 0x07A1
251: 0x0795 [0x03] Work_Zone[1] = 6*
252: 0x079A [0x43] SEND_EVENT_UPDATE: Send pending tag to server (packet 0x005B)
253: 0x079C [0x43] SEND_EVENT_UPDATE: Check pending flag (skip if not pending)
254: 0x079E [0x01] GOTO 0x09D2
255: 0x07A1 [0x02] IF !(Work_Zone[0] == 2*) GOTO 0x07B5
256: 0x07A9 [0x03] Work_Zone[1] = 7*
257: 0x07AE [0x43] SEND_EVENT_UPDATE: Send pending tag to server (packet 0x005B)
258: 0x07B0 [0x43] SEND_EVENT_UPDATE: Check pending flag (skip if not pending)
259: 0x07B2 [0x01] GOTO 0x09D2
260: 0x07B5 [0x02] IF !(Work_Zone[0] == 3*) GOTO 0x07C9
261: 0x07BD [0x03] Work_Zone[1] = 8*
262: 0x07C2 [0x43] SEND_EVENT_UPDATE: Send pending tag to server (packet 0x005B)
263: 0x07C4 [0x43] SEND_EVENT_UPDATE: Check pending flag (skip if not pending)
264: 0x07C6 [0x01] GOTO 0x09D2
265: 0x07C9 [0x02] IF !(Work_Zone[0] == 4*) GOTO 0x07DD
266: 0x07D1 [0x03] Work_Zone[1] = 9*
267: 0x07D6 [0x43] SEND_EVENT_UPDATE: Send pending tag to server (packet 0x005B)
268: 0x07D8 [0x43] SEND_EVENT_UPDATE: Check pending flag (skip if not pending)
269: 0x07DA [0x01] GOTO 0x09D2
270: 0x07DD [0x02] IF !(Work_Zone[0] == 5*) GOTO 0x07F1
271: 0x07E5 [0x03] Work_Zone[1] = 10*
272: 0x07EA [0x43] SEND_EVENT_UPDATE: Send pending tag to server (packet 0x005B)
273: 0x07EC [0x43] SEND_EVENT_UPDATE: Check pending flag (skip if not pending)
274: 0x07EE [0x01] GOTO 0x09D2
275: 0x07F1 [0x02] IF !(Work_Zone[0] == 6*) GOTO 0x0805
276: 0x07F9 [0x03] Work_Zone[1] = 11*
277: 0x07FE [0x43] SEND_EVENT_UPDATE: Send pending tag to server (packet 0x005B)
278: 0x0800 [0x43] SEND_EVENT_UPDATE: Check pending flag (skip if not pending)
279: 0x0802 [0x01] GOTO 0x09D2
280: 0x0805 [0x02] IF !(Work_Zone[0] == 7*) GOTO 0x0819
281: 0x080D [0x03] Work_Zone[1] = 12*
282: 0x0812 [0x43] SEND_EVENT_UPDATE: Send pending tag to server (packet 0x005B)
283: 0x0814 [0x43] SEND_EVENT_UPDATE: Check pending flag (skip if not pending)
284: 0x0816 [0x01] GOTO 0x09D2
285: 0x0819 [0x02] IF !(Work_Zone[0] == 8*) GOTO 0x082D
286: 0x0821 [0x03] Work_Zone[1] = 13*
287: 0x0826 [0x43] SEND_EVENT_UPDATE: Send pending tag to server (packet 0x005B)
288: 0x0828 [0x43] SEND_EVENT_UPDATE: Check pending flag (skip if not pending)
289: 0x082A [0x01] GOTO 0x09D2
290: 0x082D [0x02] IF !(Work_Zone[0] == 9*) GOTO 0x0841
291: 0x0835 [0x03] Work_Zone[1] = 14*
292: 0x083A [0x43] SEND_EVENT_UPDATE: Send pending tag to server (packet 0x005B)
293: 0x083C [0x43] SEND_EVENT_UPDATE: Check pending flag (skip if not pending)
294: 0x083E [0x01] GOTO 0x09D2
295: 0x0841 [0x02] IF !(Work_Zone[0] == 10*) GOTO 0x0855
296: 0x0849 [0x03] Work_Zone[1] = 15*
297: 0x084E [0x43] SEND_EVENT_UPDATE: Send pending tag to server (packet 0x005B)
298: 0x0850 [0x43] SEND_EVENT_UPDATE: Check pending flag (skip if not pending)
299: 0x0852 [0x01] GOTO 0x09D2
300: 0x0855 [0x02] IF !(Work_Zone[0] == 11*) GOTO 0x0869
301: 0x085D [0x03] Work_Zone[1] = 16*
302: 0x0862 [0x43] SEND_EVENT_UPDATE: Send pending tag to server (packet 0x005B)
303: 0x0864 [0x43] SEND_EVENT_UPDATE: Check pending flag (skip if not pending)
304: 0x0866 [0x01] GOTO 0x09D2
305: 0x0869 [0x02] IF !(Work_Zone[0] == 12*) GOTO 0x087D
306: 0x0871 [0x03] Work_Zone[1] = 17*
307: 0x0876 [0x43] SEND_EVENT_UPDATE: Send pending tag to server (packet 0x005B)
308: 0x0878 [0x43] SEND_EVENT_UPDATE: Check pending flag (skip if not pending)
309: 0x087A [0x01] GOTO 0x09D2
310: 0x087D [0x02] IF !(Work_Zone[0] == 13*) GOTO 0x0891
311: 0x0885 [0x03] Work_Zone[1] = 18*
312: 0x088A [0x43] SEND_EVENT_UPDATE: Send pending tag to server (packet 0x005B)
313: 0x088C [0x43] SEND_EVENT_UPDATE: Check pending flag (skip if not pending)
314: 0x088E [0x01] GOTO 0x09D2
315: 0x0891 [0x02] IF !(Work_Zone[0] == 14*) GOTO 0x08A5
316: 0x0899 [0x03] Work_Zone[1] = 19*
317: 0x089E [0x43] SEND_EVENT_UPDATE: Send pending tag to server (packet 0x005B)
318: 0x08A0 [0x43] SEND_EVENT_UPDATE: Check pending flag (skip if not pending)
319: 0x08A2 [0x01] GOTO 0x09D2
320: 0x08A5 [0x02] IF !(Work_Zone[0] == 15*) GOTO 0x08B9
321: 0x08AD [0x03] Work_Zone[1] = 20*
322: 0x08B2 [0x43] SEND_EVENT_UPDATE: Send pending tag to server (packet 0x005B)
323: 0x08B4 [0x43] SEND_EVENT_UPDATE: Check pending flag (skip if not pending)
324: 0x08B6 [0x01] GOTO 0x09D2
325: 0x08B9 [0x02] IF !(Work_Zone[0] == 16*) GOTO 0x08CD
326: 0x08C1 [0x03] Work_Zone[1] = 21*
327: 0x08C6 [0x43] SEND_EVENT_UPDATE: Send pending tag to server (packet 0x005B)
328: 0x08C8 [0x43] SEND_EVENT_UPDATE: Check pending flag (skip if not pending)
329: 0x08CA [0x01] GOTO 0x09D2
330: 0x08CD [0x02] IF !(Work_Zone[0] == 17*) GOTO 0x08E1
331: 0x08D5 [0x03] Work_Zone[1] = 22*
332: 0x08DA [0x43] SEND_EVENT_UPDATE: Send pending tag to server (packet 0x005B)
333: 0x08DC [0x43] SEND_EVENT_UPDATE: Check pending flag (skip if not pending)
334: 0x08DE [0x01] GOTO 0x09D2
335: 0x08E1 [0x02] IF !(Work_Zone[0] == 18*) GOTO 0x08F5
336: 0x08E9 [0x03] Work_Zone[1] = 23*
337: 0x08EE [0x43] SEND_EVENT_UPDATE: Send pending tag to server (packet 0x005B)
338: 0x08F0 [0x43] SEND_EVENT_UPDATE: Check pending flag (skip if not pending)
339: 0x08F2 [0x01] GOTO 0x09D2
340: 0x08F5 [0x02] IF !(Work_Zone[0] == 19*) GOTO 0x0909
341: 0x08FD [0x03] Work_Zone[1] = 24*
342: 0x0902 [0x43] SEND_EVENT_UPDATE: Send pending tag to server (packet 0x005B)
343: 0x0904 [0x43] SEND_EVENT_UPDATE: Check pending flag (skip if not pending)
344: 0x0906 [0x01] GOTO 0x09D2
345: 0x0909 [0x02] IF !(Work_Zone[0] == 20*) GOTO 0x091D
346: 0x0911 [0x03] Work_Zone[1] = 25*
347: 0x0916 [0x43] SEND_EVENT_UPDATE: Send pending tag to server (packet 0x005B)
348: 0x0918 [0x43] SEND_EVENT_UPDATE: Check pending flag (skip if not pending)
349: 0x091A [0x01] GOTO 0x09D2
350: 0x091D [0x02] IF !(Work_Zone[0] == 21*) GOTO 0x0931
351: 0x0925 [0x03] Work_Zone[1] = 26*
352: 0x092A [0x43] SEND_EVENT_UPDATE: Send pending tag to server (packet 0x005B)
353: 0x092C [0x43] SEND_EVENT_UPDATE: Check pending flag (skip if not pending)
354: 0x092E [0x01] GOTO 0x09D2
355: 0x0931 [0x02] IF !(Work_Zone[0] == 22*) GOTO 0x0945
356: 0x0939 [0x03] Work_Zone[1] = 27*
357: 0x093E [0x43] SEND_EVENT_UPDATE: Send pending tag to server (packet 0x005B)
358: 0x0940 [0x43] SEND_EVENT_UPDATE: Check pending flag (skip if not pending)
359: 0x0942 [0x01] GOTO 0x09D2
360: 0x0945 [0x02] IF !(Work_Zone[0] == 23*) GOTO 0x0959
361: 0x094D [0x03] Work_Zone[1] = 28*
362: 0x0952 [0x43] SEND_EVENT_UPDATE: Send pending tag to server (packet 0x005B)
363: 0x0954 [0x43] SEND_EVENT_UPDATE: Check pending flag (skip if not pending)
364: 0x0956 [0x01] GOTO 0x09D2
365: 0x0959 [0x02] IF !(Work_Zone[0] == 24*) GOTO 0x096D
366: 0x0961 [0x03] Work_Zone[1] = 29*
367: 0x0966 [0x43] SEND_EVENT_UPDATE: Send pending tag to server (packet 0x005B)
368: 0x0968 [0x43] SEND_EVENT_UPDATE: Check pending flag (skip if not pending)
369: 0x096A [0x01] GOTO 0x09D2
370: 0x096D [0x02] IF !(Work_Zone[0] == 25*) GOTO 0x0981
371: 0x0975 [0x03] Work_Zone[1] = 30*
372: 0x097A [0x43] SEND_EVENT_UPDATE: Send pending tag to server (packet 0x005B)
373: 0x097C [0x43] SEND_EVENT_UPDATE: Check pending flag (skip if not pending)
374: 0x097E [0x01] GOTO 0x09D2
375: 0x0981 [0x02] IF !(Work_Zone[0] == 26*) GOTO 0x0995
376: 0x0989 [0x03] Work_Zone[1] = 31*
377: 0x098E [0x43] SEND_EVENT_UPDATE: Send pending tag to server (packet 0x005B)
378: 0x0990 [0x43] SEND_EVENT_UPDATE: Check pending flag (skip if not pending)
379: 0x0992 [0x01] GOTO 0x09D2
380: 0x0995 [0x02] IF !(Work_Zone[0] == 27*) GOTO 0x09A9
381: 0x099D [0x03] Work_Zone[1] = 32*
382: 0x09A2 [0x43] SEND_EVENT_UPDATE: Send pending tag to server (packet 0x005B)
383: 0x09A4 [0x43] SEND_EVENT_UPDATE: Check pending flag (skip if not pending)
384: 0x09A6 [0x01] GOTO 0x09D2
385: 0x09A9 [0x02] IF !(Work_Zone[0] == 28*) GOTO 0x09BD
386: 0x09B1 [0x03] Work_Zone[1] = 33*
387: 0x09B6 [0x43] SEND_EVENT_UPDATE: Send pending tag to server (packet 0x005B)
388: 0x09B8 [0x43] SEND_EVENT_UPDATE: Check pending flag (skip if not pending)
389: 0x09BA [0x01] GOTO 0x09D2
390: 0x09BD [0x02] IF !(Work_Zone[0] == 29*) GOTO 0x09D2
391: 0x09C5 [0x03] Work_Zone[1] = 0*
392: 0x09CA [0x03] ExtData[1]->WorkLocal[3] = 5*
393: 0x09CF [0x01] GOTO 0x09D2

SUBROUTINE_09D2:
394: 0x09D2 [0x01] GOTO 0x09DF
395: 0x09D5 [0x03] Work_Zone[1] = 0*
396: 0x09DA [0x03] ExtData[1]->WorkLocal[3] = 5*

SUBROUTINE_09DF:
397: 0x09DF [0x1B] RETURN
```

#### Data or dead code:

```
# Dead code (unreachable instructions):
     0x036A [0x01] GOTO 0x0484
     0x037B [0x01] GOTO 0x0484
# Dead code (unreachable instructions):
     0x039C [0x01] GOTO 0x03C9
     0x03AA [0x01] GOTO 0x03C9
     0x03B8 [0x01] GOTO 0x03C9
     0x03C6 [0x01] GOTO 0x03C9
```
