# 17772618 - Yagudo Avatar

## Common Data

| Field            | Value                     |
|------------------|---------------------------|
| Zone             | Ru'Lude Gardens (ID: 243) |
| Block Size       | 604 bytes                 |
| Total Events     | 21                        |
| References Count | 23                        |

## List of Events

| Event ID                   | Entrypoint   |   Size |   Instructions |
|----------------------------|--------------|--------|----------------|
| [65535](#event-65535)      | 0x0000       |      1 |              1 |
| [65535.1](#event-655351)   | 0x0001       |      1 |              1 |
| [10010](#event-10010)      | 0x0002       |      1 |              1 |
| [65535.2](#event-655352)   | 0x0003       |      1 |              1 |
| [65535.3](#event-655353)   | 0x0004       |     14 |              4 |
| [65535.4](#event-655354)   | 0x0012       |     79 |              7 |
| [65535.5](#event-655355)   | 0x0061       |     79 |              7 |
| [65535.6](#event-655356)   | 0x00B0       |    167 |             15 |
| [65535.7](#event-655357)   | 0x0157       |      5 |              3 |
| [65535.8](#event-655358)   | 0x015C       |      5 |              3 |
| [65535.9](#event-655359)   | 0x0161       |      5 |              3 |
| [65535.10](#event-6553510) | 0x0166       |      5 |              3 |
| [65535.11](#event-6553511) | 0x016B       |      9 |              5 |
| [65535.12](#event-6553512) | 0x0174       |      5 |              3 |
| [65535.13](#event-6553513) | 0x0179       |      5 |              3 |
| [65535.14](#event-6553514) | 0x017E       |      5 |              3 |
| [65535.15](#event-6553515) | 0x0183       |      5 |              3 |
| [65535.16](#event-6553516) | 0x0188       |      5 |              3 |
| [65535.17](#event-6553517) | 0x018D       |      5 |              3 |
| [65535.18](#event-6553518) | 0x0192       |      5 |              3 |
| [65535.19](#event-6553519) | 0x0197       |      5 |              3 |

## DAT References (imed_data)

|   Index | Hex Value   |   Dec Value |
|---------|-------------|-------------|
|       0 | 0x000D      |          13 |
|       1 | 0xFFFE79FA  |  4294867450 |
|       2 | 0x17EB5     |       97973 |
|       3 | 0xFFFEE6C0  |  4294895296 |
|       4 | 0x0007      |           7 |
|       5 | 0x0000      |           0 |
|       6 | 0x00C8      |         200 |
|       7 | 0x00FC      |         252 |
|       8 | 0x003C      |          60 |
|       9 | 0x2B01      |       11009 |
|      10 | 0x2B05      |       11013 |
|      11 | 0x2B06      |       11014 |
|      12 | 0x2B07      |       11015 |
|      13 | 0x2B08      |       11016 |
|      14 | 0x2B09      |       11017 |
|      15 | 0x2B0A      |       11018 |
|      16 | 0x2B0C      |       11020 |
|      17 | 0x2B0D      |       11021 |
|      18 | 0x2B0E      |       11022 |
|      19 | 0x2B0F      |       11023 |
|      20 | 0x2B10      |       11024 |
|      21 | 0x2B11      |       11025 |
|      22 | 0x2B12      |       11026 |

## String References

- **11009**: You are a fool for coming here to the throne room...alone.
- **11013**: Kahk! Silence... Our little friend came all the way from Windurst to greet us. Let us hear what he has to say.
- **11014**: Kahk-ka-ka! You came all this way to ask about the Full Moon Fountain?
- **11015**: Well, you Tartutaru have probably already realized why the Horutoto Ruins were built and why the Full Moon Fountain exists underneath them.
- **11016**: Those ruins are evil.
- **11017**: The towers sponge dry the areas around Sarutabaruta of all their magic.
- **11018**: You think that we Yagudo are the cause of these wastelands, but you only have yourselves to thank. You--the Tarutaru that activated those towers!
- **11020**: What about you Yagudo? What are those things that you continue digging? Those stones...maybe they are the cause of all this?
- **11021**: Kahk-ka-ka...I commend you on your perceptiveness.
- **11022**: But the reason Sarutabaruta is becoming a wasteland has nothing to do with those stones.
- **11023**: That night, twenty years ago, when we were defeated by your armies, you made a grave mistake...
- **11024**: Kahk! Kahk! You still do not understand?
- **11025**: Make your way deep into the central tower of the Horutoto Ruins. There you will see first hand what the Star Sibyl and those summoners really did.
- **11026**: The moon and the stars no longer smile upon Windurst. Now, the world shall kneel before the Yagudo!

## Events

### Event 65535

#### Metadata

| Field        | Value   |
|--------------|---------|
| Entrypoint   | 0x0000  |
| Data Size    | 1 bytes |
| Instructions | 1       |

```
      00 01 02 03 04 05 06 07  08 09 0A 0B 0C 0D 0E 0F
      -- -- -- -- -- -- -- --  -- -- -- -- -- -- -- --
0000: 00                                                .               
```

#### Opcodes

```
  0: 0x0000 [0x00] END_REQSTACK()
```

### Event 65535.1

#### Metadata

| Field        | Value   |
|--------------|---------|
| Entrypoint   | 0x0001  |
| Data Size    | 1 bytes |
| Instructions | 1       |

```
      00 01 02 03 04 05 06 07  08 09 0A 0B 0C 0D 0E 0F
      -- -- -- -- -- -- -- --  -- -- -- -- -- -- -- --
0000:    00                                              .              
```

#### Opcodes

```
  0: 0x0001 [0x00] END_REQSTACK()
```

### Event 10010

#### Metadata

| Field        | Value   |
|--------------|---------|
| Entrypoint   | 0x0002  |
| Data Size    | 1 bytes |
| Instructions | 1       |

```
      00 01 02 03 04 05 06 07  08 09 0A 0B 0C 0D 0E 0F
      -- -- -- -- -- -- -- --  -- -- -- -- -- -- -- --
0000:       00                                            .             
```

#### Opcodes

```
  0: 0x0002 [0x00] END_REQSTACK()
```

### Event 65535.2

#### Metadata

| Field        | Value   |
|--------------|---------|
| Entrypoint   | 0x0003  |
| Data Size    | 1 bytes |
| Instructions | 1       |

```
      00 01 02 03 04 05 06 07  08 09 0A 0B 0C 0D 0E 0F
      -- -- -- -- -- -- -- --  -- -- -- -- -- -- -- --
0000:          00                                          .            
```

#### Opcodes

```
  0: 0x0003 [0x00] END_REQSTACK()
```

### Event 65535.3

#### Metadata

| Field        | Value    |
|--------------|----------|
| Entrypoint   | 0x0004   |
| Data Size    | 14 bytes |
| Instructions | 4        |

```
      00 01 02 03 04 05 06 07  08 09 0A 0B 0C 0D 0E 0F
      -- -- -- -- -- -- -- --  -- -- -- -- -- -- -- --
0000:             32 00 80 1F  00 01 80 02 80 03 80 1F      2...........
0010: 01 00                                             ..              
```

#### Opcodes

```
  0: 0x0004 [0x32] ExtData[1]->MainSpeed = 13* * 0.1
  1: 0x0007 [0x1F] MOVE_ENTITY: EventEntity moves to X=-99.846*, Z=97.973*, Y=-72.000*
  2: 0x000F [0x1F] MOVE_ENTITY: Update entity position (mode=1)
  3: 0x0011 [0x00] END_REQSTACK()
```

### Event 65535.4

#### Metadata

| Field        | Value    |
|--------------|----------|
| Entrypoint   | 0x0012   |
| Data Size    | 79 bytes |
| Instructions | 7        |

```
      00 01 02 03 04 05 06 07  08 09 0A 0B 0C 0D 0E 0F
      -- -- -- -- -- -- -- --  -- -- -- -- -- -- -- --
0010:       62 04 80 51 30 0F  01 51 30 0F 01 6D 61 69    b..Q0..Q0..mai
0020: 6E 05 80 45 06 80 F0 FF  FF 7F F0 FF FF 7F 62 6C  n..E..........bl
0030: 6F 6E 05 80 73 07 80 47  30 0F 01 4F 30 0F 01 1C  on..s..G0..O0...
0040: 08 80 2C 4F 30 0F 01 4F  30 0F 01 64 61 6D 67 45  ..,O0..O0..damgE
0050: 06 80 F0 FF FF 7F F0 FF  FF 7F 62 6C 6F 66 05 80  ..........blof..
0060: 00                                                .               
```

#### Opcodes

```
  0: 0x0012 [0x62] LOAD_EVENT_SCHEDULER: Load scheduler "main" with entities [Ajido-Marujido (ID: 17772625/0x010F3051), Ajido-Marujido (ID: 17772625/0x010F3051)], work=[7*, 0*]
  1: 0x0023 [0x45] LOAD_SCHEDULED_TASK: Load scheduler "blon" with entities [LocalPlayer, LocalPlayer], work=[200*, 0*]
  2: 0x0034 [0x73] Unknown NPC (ID: 17772615/0x010F3047) casts magic 252* on Yagudo High Priest (ID: 17772623/0x010F304F)
  3: 0x003F [0x1C] WAIT(60* ticks)
  4: 0x0042 [0x2C] CREATE_SCHEDULER_TASK: Create scheduler "damg" with entities [Yagudo High Priest (ID: 17772623/0x010F304F), Yagudo High Priest (ID: 17772623/0x010F304F)]
  5: 0x004F [0x45] LOAD_SCHEDULED_TASK: Load scheduler "blof" with entities [LocalPlayer, LocalPlayer], work=[200*, 0*]
  6: 0x0060 [0x00] END_REQSTACK()
```

### Event 65535.5

#### Metadata

| Field        | Value    |
|--------------|----------|
| Entrypoint   | 0x0061   |
| Data Size    | 79 bytes |
| Instructions | 7        |

```
      00 01 02 03 04 05 06 07  08 09 0A 0B 0C 0D 0E 0F
      -- -- -- -- -- -- -- --  -- -- -- -- -- -- -- --
0060:    62 04 80 51 30 0F 01  51 30 0F 01 6D 61 69 6E   b..Q0..Q0..main
0070: 05 80 45 06 80 F0 FF FF  7F F0 FF FF 7F 62 6C 6F  ..E..........blo
0080: 6E 05 80 73 07 80 47 30  0F 01 4D 30 0F 01 1C 08  n..s..G0..M0....
0090: 80 2C 4D 30 0F 01 4D 30  0F 01 64 61 6D 67 45 06  .,M0..M0..damgE.
00A0: 80 F0 FF FF 7F F0 FF FF  7F 62 6C 6F 66 05 80 00  .........blof...
```

#### Opcodes

```
  0: 0x0061 [0x62] LOAD_EVENT_SCHEDULER: Load scheduler "main" with entities [Ajido-Marujido (ID: 17772625/0x010F3051), Ajido-Marujido (ID: 17772625/0x010F3051)], work=[7*, 0*]
  1: 0x0072 [0x45] LOAD_SCHEDULED_TASK: Load scheduler "blon" with entities [LocalPlayer, LocalPlayer], work=[200*, 0*]
  2: 0x0083 [0x73] Unknown NPC (ID: 17772615/0x010F3047) casts magic 252* on Yagudo High Priest (ID: 17772621/0x010F304D)
  3: 0x008E [0x1C] WAIT(60* ticks)
  4: 0x0091 [0x2C] CREATE_SCHEDULER_TASK: Create scheduler "damg" with entities [Yagudo High Priest (ID: 17772621/0x010F304D), Yagudo High Priest (ID: 17772621/0x010F304D)]
  5: 0x009E [0x45] LOAD_SCHEDULED_TASK: Load scheduler "blof" with entities [LocalPlayer, LocalPlayer], work=[200*, 0*]
  6: 0x00AF [0x00] END_REQSTACK()
```

### Event 65535.6

#### Metadata

| Field        | Value     |
|--------------|-----------|
| Entrypoint   | 0x00B0    |
| Data Size    | 167 bytes |
| Instructions | 15        |

```
      00 01 02 03 04 05 06 07  08 09 0A 0B 0C 0D 0E 0F
      -- -- -- -- -- -- -- --  -- -- -- -- -- -- -- --
00B0: 62 04 80 51 30 0F 01 51  30 0F 01 6D 61 69 6E 05  b..Q0..Q0..main.
00C0: 80 45 06 80 F0 FF FF 7F  F0 FF FF 7F 62 6C 6F 6E  .E..........blon
00D0: 05 80 73 07 80 47 30 0F  01 50 30 0F 01 1C 08 80  ..s..G0..P0.....
00E0: 2C 50 30 0F 01 50 30 0F  01 64 61 6D 67 62 04 80  ,P0..P0..damgb..
00F0: 51 30 0F 01 51 30 0F 01  6D 61 69 6E 05 80 73 07  Q0..Q0..main..s.
0100: 80 47 30 0F 01 4F 30 0F  01 1C 08 80 2C 4F 30 0F  .G0..O0.....,O0.
0110: 01 4F 30 0F 01 64 61 6D  67 62 04 80 51 30 0F 01  .O0..damgb..Q0..
0120: 51 30 0F 01 6D 61 69 6E  05 80 73 07 80 47 30 0F  Q0..main..s..G0.
0130: 01 4E 30 0F 01 1C 08 80  2C 4E 30 0F 01 4E 30 0F  .N0.....,N0..N0.
0140: 01 64 61 6D 67 45 06 80  F0 FF FF 7F F0 FF FF 7F  .damgE..........
0150: 62 6C 6F 66 05 80 00                              blof...         
```

#### Opcodes

```
  0: 0x00B0 [0x62] LOAD_EVENT_SCHEDULER: Load scheduler "main" with entities [Ajido-Marujido (ID: 17772625/0x010F3051), Ajido-Marujido (ID: 17772625/0x010F3051)], work=[7*, 0*]
  1: 0x00C1 [0x45] LOAD_SCHEDULED_TASK: Load scheduler "blon" with entities [LocalPlayer, LocalPlayer], work=[200*, 0*]
  2: 0x00D2 [0x73] Unknown NPC (ID: 17772615/0x010F3047) casts magic 252* on Yagudo High Priest (ID: 17772624/0x010F3050)
  3: 0x00DD [0x1C] WAIT(60* ticks)
  4: 0x00E0 [0x2C] CREATE_SCHEDULER_TASK: Create scheduler "damg" with entities [Yagudo High Priest (ID: 17772624/0x010F3050), Yagudo High Priest (ID: 17772624/0x010F3050)]
  5: 0x00ED [0x62] LOAD_EVENT_SCHEDULER: Load scheduler "main" with entities [Ajido-Marujido (ID: 17772625/0x010F3051), Ajido-Marujido (ID: 17772625/0x010F3051)], work=[7*, 0*]
  6: 0x00FE [0x73] Unknown NPC (ID: 17772615/0x010F3047) casts magic 252* on Yagudo High Priest (ID: 17772623/0x010F304F)
  7: 0x0109 [0x1C] WAIT(60* ticks)
  8: 0x010C [0x2C] CREATE_SCHEDULER_TASK: Create scheduler "damg" with entities [Yagudo High Priest (ID: 17772623/0x010F304F), Yagudo High Priest (ID: 17772623/0x010F304F)]
  9: 0x0119 [0x62] LOAD_EVENT_SCHEDULER: Load scheduler "main" with entities [Ajido-Marujido (ID: 17772625/0x010F3051), Ajido-Marujido (ID: 17772625/0x010F3051)], work=[7*, 0*]
 10: 0x012A [0x73] Unknown NPC (ID: 17772615/0x010F3047) casts magic 252* on Yagudo High Priest (ID: 17772622/0x010F304E)
 11: 0x0135 [0x1C] WAIT(60* ticks)
 12: 0x0138 [0x2C] CREATE_SCHEDULER_TASK: Create scheduler "damg" with entities [Yagudo High Priest (ID: 17772622/0x010F304E), Yagudo High Priest (ID: 17772622/0x010F304E)]
 13: 0x0145 [0x45] LOAD_SCHEDULED_TASK: Load scheduler "blof" with entities [LocalPlayer, LocalPlayer], work=[200*, 0*]
 14: 0x0156 [0x00] END_REQSTACK()
```

### Event 65535.7

#### Metadata

| Field        | Value   |
|--------------|---------|
| Entrypoint   | 0x0157  |
| Data Size    | 5 bytes |
| Instructions | 3       |

```
      00 01 02 03 04 05 06 07  08 09 0A 0B 0C 0D 0E 0F
      -- -- -- -- -- -- -- --  -- -- -- -- -- -- -- --
0150:                      1D  09 80 23 00                     ...#.    
```

#### Opcodes

```
  0: 0x0157 [0x1D] PRINT_EVENT_MESSAGE(message_id=11009*)
    → "You are a fool for coming here to the throne room...alone."
  1: 0x015A [0x23] WAIT_FOR_DIALOG_INTERACTION
  2: 0x015B [0x00] END_REQSTACK()
```

### Event 65535.8

#### Metadata

| Field        | Value   |
|--------------|---------|
| Entrypoint   | 0x015C  |
| Data Size    | 5 bytes |
| Instructions | 3       |

```
      00 01 02 03 04 05 06 07  08 09 0A 0B 0C 0D 0E 0F
      -- -- -- -- -- -- -- --  -- -- -- -- -- -- -- --
0150:                                      1D 0A 80 23              ...#
0160: 00                                                .               
```

#### Opcodes

```
  0: 0x015C [0x1D] PRINT_EVENT_MESSAGE(message_id=11013*)
    → "Kahk! Silence... Our little friend came all the way from Windurst to greet us. Let us hear what he has to say."
  1: 0x015F [0x23] WAIT_FOR_DIALOG_INTERACTION
  2: 0x0160 [0x00] END_REQSTACK()
```

### Event 65535.9

#### Metadata

| Field        | Value   |
|--------------|---------|
| Entrypoint   | 0x0161  |
| Data Size    | 5 bytes |
| Instructions | 3       |

```
      00 01 02 03 04 05 06 07  08 09 0A 0B 0C 0D 0E 0F
      -- -- -- -- -- -- -- --  -- -- -- -- -- -- -- --
0160:    1D 0B 80 23 00                                  ...#.          
```

#### Opcodes

```
  0: 0x0161 [0x1D] PRINT_EVENT_MESSAGE(message_id=11014*)
    → "Kahk-ka-ka! You came all this way to ask about the Full Moon Fountain?"
  1: 0x0164 [0x23] WAIT_FOR_DIALOG_INTERACTION
  2: 0x0165 [0x00] END_REQSTACK()
```

### Event 65535.10

#### Metadata

| Field        | Value   |
|--------------|---------|
| Entrypoint   | 0x0166  |
| Data Size    | 5 bytes |
| Instructions | 3       |

```
      00 01 02 03 04 05 06 07  08 09 0A 0B 0C 0D 0E 0F
      -- -- -- -- -- -- -- --  -- -- -- -- -- -- -- --
0160:                   1D 0C  80 23 00                       ...#.     
```

#### Opcodes

```
  0: 0x0166 [0x1D] PRINT_EVENT_MESSAGE(message_id=11015*)
    → "Well, you Tartutaru have probably already realized why the Horutoto Ruins were built and why the Full Moon Fountain exists underneath them."
  1: 0x0169 [0x23] WAIT_FOR_DIALOG_INTERACTION
  2: 0x016A [0x00] END_REQSTACK()
```

### Event 65535.11

#### Metadata

| Field        | Value   |
|--------------|---------|
| Entrypoint   | 0x016B  |
| Data Size    | 9 bytes |
| Instructions | 5       |

```
      00 01 02 03 04 05 06 07  08 09 0A 0B 0C 0D 0E 0F
      -- -- -- -- -- -- -- --  -- -- -- -- -- -- -- --
0160:                                   1D 0D 80 23 1D             ...#.
0170: 0E 80 23 00                                       ..#.            
```

#### Opcodes

```
  0: 0x016B [0x1D] PRINT_EVENT_MESSAGE(message_id=11016*)
    → "Those ruins are evil."
  1: 0x016E [0x23] WAIT_FOR_DIALOG_INTERACTION
  2: 0x016F [0x1D] PRINT_EVENT_MESSAGE(message_id=11017*)
    → "The towers sponge dry the areas around Sarutabaruta of all their magic."
  3: 0x0172 [0x23] WAIT_FOR_DIALOG_INTERACTION
  4: 0x0173 [0x00] END_REQSTACK()
```

### Event 65535.12

#### Metadata

| Field        | Value   |
|--------------|---------|
| Entrypoint   | 0x0174  |
| Data Size    | 5 bytes |
| Instructions | 3       |

```
      00 01 02 03 04 05 06 07  08 09 0A 0B 0C 0D 0E 0F
      -- -- -- -- -- -- -- --  -- -- -- -- -- -- -- --
0170:             1D 0F 80 23  00                           ...#.       
```

#### Opcodes

```
  0: 0x0174 [0x1D] PRINT_EVENT_MESSAGE(message_id=11018*)
    → "You think that we Yagudo are the cause of these wastelands, but you only have yourselves to thank. You--the Tarutaru that activated those towers!"
  1: 0x0177 [0x23] WAIT_FOR_DIALOG_INTERACTION
  2: 0x0178 [0x00] END_REQSTACK()
```

### Event 65535.13

#### Metadata

| Field        | Value   |
|--------------|---------|
| Entrypoint   | 0x0179  |
| Data Size    | 5 bytes |
| Instructions | 3       |

```
      00 01 02 03 04 05 06 07  08 09 0A 0B 0C 0D 0E 0F
      -- -- -- -- -- -- -- --  -- -- -- -- -- -- -- --
0170:                             1D 10 80 23 00                 ...#.  
```

#### Opcodes

```
  0: 0x0179 [0x1D] PRINT_EVENT_MESSAGE(message_id=11020*)
    → "What about you Yagudo? What are those things that you continue digging? Those stones...maybe they are the cause of all this?"
  1: 0x017C [0x23] WAIT_FOR_DIALOG_INTERACTION
  2: 0x017D [0x00] END_REQSTACK()
```

### Event 65535.14

#### Metadata

| Field        | Value   |
|--------------|---------|
| Entrypoint   | 0x017E  |
| Data Size    | 5 bytes |
| Instructions | 3       |

```
      00 01 02 03 04 05 06 07  08 09 0A 0B 0C 0D 0E 0F
      -- -- -- -- -- -- -- --  -- -- -- -- -- -- -- --
0170:                                            1D 11                ..
0180: 80 23 00                                          .#.             
```

#### Opcodes

```
  0: 0x017E [0x1D] PRINT_EVENT_MESSAGE(message_id=11021*)
    → "Kahk-ka-ka...I commend you on your perceptiveness."
  1: 0x0181 [0x23] WAIT_FOR_DIALOG_INTERACTION
  2: 0x0182 [0x00] END_REQSTACK()
```

### Event 65535.15

#### Metadata

| Field        | Value   |
|--------------|---------|
| Entrypoint   | 0x0183  |
| Data Size    | 5 bytes |
| Instructions | 3       |

```
      00 01 02 03 04 05 06 07  08 09 0A 0B 0C 0D 0E 0F
      -- -- -- -- -- -- -- --  -- -- -- -- -- -- -- --
0180:          1D 12 80 23 00                              ...#.        
```

#### Opcodes

```
  0: 0x0183 [0x1D] PRINT_EVENT_MESSAGE(message_id=11022*)
    → "But the reason Sarutabaruta is becoming a wasteland has nothing to do with those stones."
  1: 0x0186 [0x23] WAIT_FOR_DIALOG_INTERACTION
  2: 0x0187 [0x00] END_REQSTACK()
```

### Event 65535.16

#### Metadata

| Field        | Value   |
|--------------|---------|
| Entrypoint   | 0x0188  |
| Data Size    | 5 bytes |
| Instructions | 3       |

```
      00 01 02 03 04 05 06 07  08 09 0A 0B 0C 0D 0E 0F
      -- -- -- -- -- -- -- --  -- -- -- -- -- -- -- --
0180:                          1D 13 80 23 00                   ...#.   
```

#### Opcodes

```
  0: 0x0188 [0x1D] PRINT_EVENT_MESSAGE(message_id=11023*)
    → "That night, twenty years ago, when we were defeated by your armies, you made a grave mistake..."
  1: 0x018B [0x23] WAIT_FOR_DIALOG_INTERACTION
  2: 0x018C [0x00] END_REQSTACK()
```

### Event 65535.17

#### Metadata

| Field        | Value   |
|--------------|---------|
| Entrypoint   | 0x018D  |
| Data Size    | 5 bytes |
| Instructions | 3       |

```
      00 01 02 03 04 05 06 07  08 09 0A 0B 0C 0D 0E 0F
      -- -- -- -- -- -- -- --  -- -- -- -- -- -- -- --
0180:                                         1D 14 80               ...
0190: 23 00                                             #.              
```

#### Opcodes

```
  0: 0x018D [0x1D] PRINT_EVENT_MESSAGE(message_id=11024*)
    → "Kahk! Kahk! You still do not understand?"
  1: 0x0190 [0x23] WAIT_FOR_DIALOG_INTERACTION
  2: 0x0191 [0x00] END_REQSTACK()
```

### Event 65535.18

#### Metadata

| Field        | Value   |
|--------------|---------|
| Entrypoint   | 0x0192  |
| Data Size    | 5 bytes |
| Instructions | 3       |

```
      00 01 02 03 04 05 06 07  08 09 0A 0B 0C 0D 0E 0F
      -- -- -- -- -- -- -- --  -- -- -- -- -- -- -- --
0190:       1D 15 80 23 00                                ...#.         
```

#### Opcodes

```
  0: 0x0192 [0x1D] PRINT_EVENT_MESSAGE(message_id=11025*)
    → "Make your way deep into the central tower of the Horutoto Ruins. There you will see first hand what the Star Sibyl and those summoners really did."
  1: 0x0195 [0x23] WAIT_FOR_DIALOG_INTERACTION
  2: 0x0196 [0x00] END_REQSTACK()
```

### Event 65535.19

#### Metadata

| Field        | Value   |
|--------------|---------|
| Entrypoint   | 0x0197  |
| Data Size    | 5 bytes |
| Instructions | 3       |

```
      00 01 02 03 04 05 06 07  08 09 0A 0B 0C 0D 0E 0F
      -- -- -- -- -- -- -- --  -- -- -- -- -- -- -- --
0190:                      1D  16 80 23 00                     ...#.    
```

#### Opcodes

```
  0: 0x0197 [0x1D] PRINT_EVENT_MESSAGE(message_id=11026*)
    → "The moon and the stars no longer smile upon Windurst. Now, the world shall kneel before the Yagudo!"
  1: 0x019A [0x23] WAIT_FOR_DIALOG_INTERACTION
  2: 0x019B [0x00] END_REQSTACK()
```
