# 17772658 - Marshal

## Common Data

| Field            | Value                     |
|------------------|---------------------------|
| Zone             | Ru'Lude Gardens (ID: 243) |
| Block Size       | 5996 bytes                |
| Total Events     | 2                         |
| References Count | 278                       |

## List of Events

| Event ID              | Entrypoint   |   Size |   Instructions |
|-----------------------|--------------|--------|----------------|
| [65535](#event-65535) | 0x0000       |      1 |              1 |
| [44](#event-44)       | 0x0001       |   4858 |           1146 |

## DAT References (imed_data)

|   Index | Hex Value   |   Dec Value |
|---------|-------------|-------------|
|       0 | 0x40000000  |  1073741824 |
|       1 | 0x0000      |           0 |
|       2 | 0x0001      |           1 |
|       3 | 0x0006      |           6 |
|       4 | 0x0002      |           2 |
|       5 | 0x0003      |           3 |
|       6 | 0x0005      |           5 |
|       7 | 0x2EB0      |       11952 |
|       8 | 0x07D0      |        2000 |
|       9 | 0x2EB1      |       11953 |
|      10 | 0x2EB2      |       11954 |
|      11 | 0x000A      |          10 |
|      12 | 0x2EB3      |       11955 |
|      13 | 0x2EB4      |       11956 |
|      14 | 0x000F      |          15 |
|      15 | 0x0004      |           4 |
|      16 | 0x0007      |           7 |
|      17 | 0x0008      |           8 |
|      18 | 0x0009      |           9 |
|      19 | 0x000B      |          11 |
|      20 | 0x000C      |          12 |
|      21 | 0x000D      |          13 |
|      22 | 0x000E      |          14 |
|      23 | 0x0010      |          16 |
|      24 | 0x2EB5      |       11957 |
|      25 | 0x001E      |          30 |
|      26 | 0x0011      |          17 |
|      27 | 0x106E      |        4206 |
|      28 | 0xFFFFFFFD  |  4294967293 |
|      29 | 0x2EB7      |       11959 |
|      30 | 0x2EB6      |       11958 |
|      31 | 0x2EBD      |       11965 |
|      32 | 0x2EBB      |       11963 |
|      33 | 0x2EB8      |       11960 |
|      34 | 0x2EB9      |       11961 |
|      35 | 0x2EBA      |       11962 |
|      36 | 0x2EC7      |       11975 |
|      37 | 0x2EC8      |       11976 |
|      38 | 0x2EC9      |       11977 |
|      39 | 0x2ECA      |       11978 |
|      40 | 0x2ECB      |       11979 |
|      41 | 0x2ECC      |       11980 |
|      42 | 0xFFFFFFFB  |  4294967291 |
|      43 | 0x2EF5      |       12021 |
|      44 | 0x2EF6      |       12022 |
|      45 | 0xFFFFFFFF  |  4294967295 |
|      46 | 0x2EF8      |       12024 |
|      47 | 0xFFFFFFFE  |  4294967294 |
|      48 | 0x2EF9      |       12025 |
|      49 | 0x2EF3      |       12019 |
|      50 | 0x2ED0      |       11984 |
|      51 | 0x2ED2      |       11986 |
|      52 | 0x2ED3      |       11987 |
|      53 | 0x2ED5      |       11989 |
|      54 | 0x2ED6      |       11990 |
|      55 | 0x2ED1      |       11985 |
|      56 | 0x2ED4      |       11988 |
|      57 | 0x2ED7      |       11991 |
|      58 | 0x2EF2      |       12018 |
|      59 | 0x2EC6      |       11974 |
|      60 | 0x97E00     |      622080 |
|      61 | 0x02AA      |         682 |
|      62 | 0x02AB      |         683 |
|      63 | 0x02AC      |         684 |
|      64 | 0x02AD      |         685 |
|      65 | 0x2ED8      |       11992 |
|      66 | 0x2ED9      |       11993 |
|      67 | 0x2EDA      |       11994 |
|      68 | 0x2ECD      |       11981 |
|      69 | 0x2EF7      |       12023 |
|      70 | 0x2EBE      |       11966 |
|      71 | 0x2EBF      |       11967 |
|      72 | 0x2EC0      |       11968 |
|      73 | 0x2EC1      |       11969 |
|      74 | 0x1010      |        4112 |
|      75 | 0x027B      |         635 |
|      76 | 0x1014      |        4116 |
|      77 | 0x027C      |         636 |
|      78 | 0x002D      |          45 |
|      79 | 0x1018      |        4120 |
|      80 | 0x027D      |         637 |
|      81 | 0x005A      |          90 |
|      82 | 0x1020      |        4128 |
|      83 | 0x027E      |         638 |
|      84 | 0x0014      |          20 |
|      85 | 0x1024      |        4132 |
|      86 | 0x027F      |         639 |
|      87 | 0x003C      |          60 |
|      88 | 0x1028      |        4136 |
|      89 | 0x0280      |         640 |
|      90 | 0x0078      |         120 |
|      91 | 0x1031      |        4145 |
|      92 | 0x0281      |         641 |
|      93 | 0x00C8      |         200 |
|      94 | 0x1032      |        4146 |
|      95 | 0x0282      |         642 |
|      96 | 0x02BC      |         700 |
|      97 | 0x1033      |        4147 |
|      98 | 0x0283      |         643 |
|      99 | 0x012C      |         300 |
|     100 | 0x1068      |        4200 |
|     101 | 0x0284      |         644 |
|     102 | 0x147E      |        5246 |
|     103 | 0x0285      |         645 |
|     104 | 0x147F      |        5247 |
|     105 | 0x0286      |         646 |
|     106 | 0x0032      |          50 |
|     107 | 0x1480      |        5248 |
|     108 | 0x0287      |         647 |
|     109 | 0x1481      |        5249 |
|     110 | 0x0288      |         648 |
|     111 | 0x1482      |        5250 |
|     112 | 0x0289      |         649 |
|     113 | 0x1483      |        5251 |
|     114 | 0x028A      |         650 |
|     115 | 0x1484      |        5252 |
|     116 | 0x028B      |         651 |
|     117 | 0x106C      |        4204 |
|     118 | 0x02BE      |         702 |
|     119 | 0x0012      |          18 |
|     120 | 0x103B      |        4155 |
|     121 | 0x02D9      |         729 |
|     122 | 0x0064      |         100 |
|     123 | 0x0013      |          19 |
|     124 | 0x1035      |        4149 |
|     125 | 0x02DA      |         730 |
|     126 | 0x14C8      |        5320 |
|     127 | 0x02DB      |         731 |
|     128 | 0x004B      |          75 |
|     129 | 0x0015      |          21 |
|     130 | 0x14CA      |        5322 |
|     131 | 0x02F5      |         757 |
|     132 | 0x0016      |          22 |
|     133 | 0x02BF      |         703 |
|     134 | 0x2EFD      |       12029 |
|     135 | 0x2EFE      |       12030 |
|     136 | 0x2EFF      |       12031 |
|     137 | 0x2F00      |       12032 |
|     138 | 0x2F01      |       12033 |
|     139 | 0x2F02      |       12034 |
|     140 | 0x2F03      |       12035 |
|     141 | 0x2F04      |       12036 |
|     142 | 0x2F05      |       12037 |
|     143 | 0x2F06      |       12038 |
|     144 | 0x2F07      |       12039 |
|     145 | 0x2F08      |       12040 |
|     146 | 0x2F09      |       12041 |
|     147 | 0x2F0A      |       12042 |
|     148 | 0x2F0B      |       12043 |
|     149 | 0x2F0C      |       12044 |
|     150 | 0x2F0D      |       12045 |
|     151 | 0x2F0E      |       12046 |
|     152 | 0x2F0F      |       12047 |
|     153 | 0x2F10      |       12048 |
|     154 | 0x2F11      |       12049 |
|     155 | 0x2F12      |       12050 |
|     156 | 0x2F13      |       12051 |
|     157 | 0x2F14      |       12052 |
|     158 | 0x2F15      |       12053 |
|     159 | 0x2F16      |       12054 |
|     160 | 0x2F17      |       12055 |
|     161 | 0x2F18      |       12056 |
|     162 | 0x2F19      |       12057 |
|     163 | 0x2F1A      |       12058 |
|     164 | 0x2F1B      |       12059 |
|     165 | 0x2F1C      |       12060 |
|     166 | 0x2F1D      |       12061 |
|     167 | 0x2F1E      |       12062 |
|     168 | 0x2F1F      |       12063 |
|     169 | 0x2F20      |       12064 |
|     170 | 0x2F21      |       12065 |
|     171 | 0x2F26      |       12070 |
|     172 | 0x2F27      |       12071 |
|     173 | 0x2F28      |       12072 |
|     174 | 0x0A20      |        2592 |
|     175 | 0x2F29      |       12073 |
|     176 | 0x2F2A      |       12074 |
|     177 | 0x2F2B      |       12075 |
|     178 | 0x2F2C      |       12076 |
|     179 | 0x2F2D      |       12077 |
|     180 | 0x2F2E      |       12078 |
|     181 | 0x2F22      |       12066 |
|     182 | 0x2F23      |       12067 |
|     183 | 0x2F24      |       12068 |
|     184 | 0x2F25      |       12069 |
|     185 | 0x2F2F      |       12079 |
|     186 | 0x2F30      |       12080 |
|     187 | 0x2F31      |       12081 |
|     188 | 0x2F32      |       12082 |
|     189 | 0x2F33      |       12083 |
|     190 | 0x2F34      |       12084 |
|     191 | 0x2F35      |       12085 |
|     192 | 0x2F36      |       12086 |
|     193 | 0x2F37      |       12087 |
|     194 | 0x2F38      |       12088 |
|     195 | 0x2F39      |       12089 |
|     196 | 0x2F3A      |       12090 |
|     197 | 0x2F3B      |       12091 |
|     198 | 0x2F3C      |       12092 |
|     199 | 0x2F3D      |       12093 |
|     200 | 0x02AE      |         686 |
|     201 | 0x2F3E      |       12094 |
|     202 | 0x02AF      |         687 |
|     203 | 0x2F3F      |       12095 |
|     204 | 0x02B0      |         688 |
|     205 | 0x2F40      |       12096 |
|     206 | 0x02B1      |         689 |
|     207 | 0x2F41      |       12097 |
|     208 | 0x02B2      |         690 |
|     209 | 0x2F42      |       12098 |
|     210 | 0x02B3      |         691 |
|     211 | 0x2F43      |       12099 |
|     212 | 0x02B4      |         692 |
|     213 | 0x2F44      |       12100 |
|     214 | 0x02B5      |         693 |
|     215 | 0x2F45      |       12101 |
|     216 | 0x02B6      |         694 |
|     217 | 0x2F46      |       12102 |
|     218 | 0x02B7      |         695 |
|     219 | 0x2F47      |       12103 |
|     220 | 0x02B8      |         696 |
|     221 | 0x2F48      |       12104 |
|     222 | 0x02B9      |         697 |
|     223 | 0x2F49      |       12105 |
|     224 | 0x02BA      |         698 |
|     225 | 0x2F4A      |       12106 |
|     226 | 0x02BB      |         699 |
|     227 | 0x2F4B      |       12107 |
|     228 | 0x2F4C      |       12108 |
|     229 | 0x0309      |         777 |
|     230 | 0x2F4D      |       12109 |
|     231 | 0x030A      |         778 |
|     232 | 0x2F4E      |       12110 |
|     233 | 0x030B      |         779 |
|     234 | 0x2F4F      |       12111 |
|     235 | 0x0393      |         915 |
|     236 | 0x2F50      |       12112 |
|     237 | 0x0017      |          23 |
|     238 | 0x0394      |         916 |
|     239 | 0x2F51      |       12113 |
|     240 | 0x0018      |          24 |
|     241 | 0x0737      |        1847 |
|     242 | 0x2F52      |       12114 |
|     243 | 0x0019      |          25 |
|     244 | 0x0738      |        1848 |
|     245 | 0x2F53      |       12115 |
|     246 | 0x025E      |         606 |
|     247 | 0x3600      |       13824 |
|     248 | 0x2EE8      |       12008 |
|     249 | 0x2EE9      |       12009 |
|     250 | 0x2EEA      |       12010 |
|     251 | 0x00C9      |         201 |
|     252 | 0x2EC2      |       11970 |
|     253 | 0x2EC3      |       11971 |
|     254 | 0x2EC5      |       11973 |
|     255 | 0x2EFA      |       12026 |
|     256 | 0x2EEC      |       12012 |
|     257 | 0xFFFFFFFC  |  4294967292 |
|     258 | 0x2EF1      |       12017 |
|     259 | 0xFFFFFFFA  |  4294967290 |
|     260 | 0x2EDB      |       11995 |
|     261 | 0x2EDC      |       11996 |
|     262 | 0x2EE0      |       12000 |
|     263 | 0x2EE1      |       12001 |
|     264 | 0x2EE2      |       12002 |
|     265 | 0x2EDE      |       11998 |
|     266 | 0x2EDF      |       11999 |
|     267 | 0x001B      |          27 |
|     268 | 0x2EE3      |       12003 |
|     269 | 0x2EE4      |       12004 |
|     270 | 0x2EE5      |       12005 |
|     271 | 0x2EE7      |       12007 |
|     272 | 0x2EE6      |       12006 |
|     273 | 0x001A      |          26 |
|     274 | 0x2EF4      |       12020 |
|     275 | 0x001D      |          29 |
|     276 | 0x001C      |          28 |
|     277 | 0x001F      |          31 |

## String References

- **11952**: I have been dispatched by the IRNC to handle all affairs dealing with Ballista Points and Ballista Point Ranking. My records show that you scored $0 Ballista [Point/Points] in your previous match, bringing your cumulative total to $1.
- **11953**: You have obtained the maximum number of Ballista Points ($0). Please note that you cannot earn any more until you have used the ones you possess.
- **11954**: What would you like to do? [Exchange points for items./View the previous match MVPs./Sign up for B.P. Ranking./View the B.P. Ranking./Learn more about Ballista Points./Learn more about ranking./Nothing at the moment.]
- **11955**: You currently possess $0 Ballista [Point/Points] and $1 temporary item [voucher/vouchers]. Remember, you can carry a maximum of $2 [voucher/vouchers] at a time, but no more than one of each type.
- **11956**: You currently possess $0 Ballista [Point/Points] and $1 temporary item [voucher/vouchers]. Remember, you can carry a maximum of $2 [voucher/vouchers] at a time, but no more than one of each type.
- **11957**: Exchange points for... [Previous page./6 ($1 [pt./pts.])/$6 ($3 [pt./pts.])/$6 ($5 [pt./pts.])/$6 ($7 [pt./pts.])/$6 ($9 [pt./pts.])/$6 ($11 [pt./pts.])/$6 ($13 [pt./pts.])/$6 ($15 [pt./pts.])/$6 ($17 [pt./pts.])/$6 ($19 [pt./pts.])/$6 ($21 [pt./pts.])/$6 ($23 [pt./pts.])/$6 ($25 [pt./pts.])/$6 ($27 [pt./pts.])/$6 ($29 [pt./pts.])/Next page./Nothing.]
- **11958**: I see that you are wearing $6. Ballista point exchange authorization has been granted.
- **11959**: I am sorry. You have not earned the right to exchange your points for that item.
- **11960**: The following is the item that will be automatically presented to you at the start of the Ballista match in exchange for the $3:
- **11961**: Obtain this item for $1 [point/points]? [Yes./Return./No.]
- **11962**: You do not have enough Ballista Points to purchase that item.
- **11963**: You already possess $6. Remember, you cannot hold more than one of each type of temporary item voucher.
- **11965**: Adventurers are only allowed to possess a maximum of $3 temporary item [voucher/vouchers]. I am sorry, but I cannot proceed with the transaction.
- **11967**: Is there anything else I can do for you?
- **11968**: Understood. Let me read to you the official Ballista rulebook chapter on Ballista Point Ranking.
- **11969**: Is there anything else I can do for you?
- **11970**: The MVPs of the previous match were: 1st: %0 -> $4 [pt./pts.] 2nd: %1 -> $5 [pt./pts.] 3rd: %2 -> $6 [pt./pts.]
- **11971**: The high scorer was: %3 ($7 [Petra/Petras])
- **11973**: Well done, <Player>! You are right on track to become the next "Balli$25star"!
- **11974**: Ballista Point Ranking registration [/for the Jugner Forest match/for the Pashhow Marshlands match/for the Meriphataud Mountains match] has concluded. Please do not forget to register your Ballista Points immediately after each match to avoid any confusion.
- **11975**: You did not obtain any Ballista Points in the previous match; thus, I cannot register you.
- **11976**: Please participate in a future match to qualify once again for Ballista Point Ranking. The next exercise is scheduled to take place [soon/in the Jugner Forest/in the Pashhow Marshlands/in the Meriphataud Mountains].
- **11977**: Your current job does not coincide with the data we have recorded for the previous match. You must return to your residence and change jobs before I can register you for Ballista Point Ranking.
- **11978**: According to the [/Jugner Forest/Pashhow Marshlands/Meriphataud Mountains] match records for , you earned $1 Ballista [Point/Points].
- **11979**: Shall I register your statistics? (This may take a few moments.)
- **11980**: Register? [Yes./No.]
- **11981**: Which ranking do you wish to view? [Jugner Forest./Pashhow Marshlands./Meriphataud Mountains./None of the above.]
- **11984**: Your points have been registered. Congratulations! You currently rank in the top ten!
- **11985**: Your points have been registered. Congratulations! You are currently ranked as the top [/warrior/monk/white mage/black mage/red mage/thief/paladin/dark knight/beastmaster/bard/ranger/samurai/ninja/dragoon/summoner/blue mage/corsair/puppetmaster]! (Total [/warriors/monks/white mages/black mages/red mages/thieves/paladins/dark knights/beastmasters/bards/rangers/samurais/ninjas/dragoons/summoners/blue mages/corsairs/puppetmasters/dancers/scholars/geomancers/rune fencers] registered: $7)
- **11986**: We ask that you check the rankings on the following date: Vana'diel: Earth:
- **11987**: If, at that time, you still remain in the top ten, you will be rewarded with a special prize.
- **11988**: If, at this time, you still remain in first place, you will be recognized as the match MVP.
- **11989**: However, all records of the match will be destroyed on (Vana'diel) or (Earth).
- **11990**: If you do not speak with a Marshal by that date, you will lose the opportunity to claim that prize.
- **11991**: If you do not speak with a Marshal by that date, you forfeit all benefits that accompany MVP status.
- **11992**: You currently possess $6. Ballista regulations allow you to wear that chevron until (Vana'diel), or (Earth).
- **11993**: Our records show that you have previously been presented the following rewards: Gold chevron: $1 [time/times] Mythril chevron: $2 [time/times] Silver chevron: $3 [time/times] Bronze chevron: $4 [time/times] Job-specific chevron: $5 [time/times]
- **11994**: The ranking information given by Marshals in Jeuno may be slightly older than the current data. For the most up-to-date numbers, we suggest that you speak with the officials stationed in each partcipating Ballista area.
- **11995**: Please note that because the point registration period for the previous match has not yet ended, your ranking may change. We ask that you check back later for the final results.
- **11996**: Your performance in the last match earned you a place in the overall ranking. However, because you did not check with a Herald before the records were destroyed, you have lost the opportunity to claim your prize.
- **11998**: Congratulations! Ballista Point Ranking registration for the previous match has come to a close, and your final overall rank is $0! You shall be presented with $6 and a new title.
- **11999**: Good show! Ballista Point Ranking registration for the previous match has come to a close, and your final rank among participating [/warriors/monks/white mages/black mages/red mages/thieves/paladins/dark knights/beastmasters/bards/rangers/samurais/ninjas/dragoons/summoners/blue mage/corsairs/puppetmasters/dancers/scholars/geomancers/rune fencers] ($3 total) is first! You shall be presented with $6 and a new title.
- **12000**: Well done! Ballista Point Ranking registration for the previous match has come to a close, and your final overall rank is $0! In addition, your final rank among participating [/warriors/monks/white mages/black mages/red mages/thieves/paladins/dark knights/beastmasters/bards/rangers/samurais/ninjas/dragoons/summoners/blue mage/corsairs/puppetmasters/dancers/scholars/geomancers/rune fencers] ($3 total) is first! You shall be presented with $6 or $6, as well as a new title.
- **12001**: While our records will clearly indicate that you were rewarded both chevrons, Ballista regulations only allow participants to wear one at a time. Therefore, you must choose which one you wish to receive at this time.
- **12002**: Please select one... [$3./$3.]
- **12003**: You are currently wearing $6. If you wish to accept the chevron you earned this match, you must return the one you currently possess.
- **12004**: Accept the $3? [Yes./No.]
- **12005**: Are you sure you wish to exchange your $3 for $6?
- **12006**: Are you sure you do not wish to accept the $3? Remember that even if you do not accept the chevron, a record of your award will be kept.
- **12007**: Well? [I'm sure./No.]
- **12008**: As long as you are in possession of the $3, you will bear the aforementioned title while participating in Ballista.
- **12009**: Upon the chance another contestant "checks" you during a match, not only will he be able to see your title, but also the total number of chevrons you have accumulated in your battles.
- **12010**: Finally, the official rules of Ballista state that after a set period of time, you are required to return any chevrons received. When that time has come, a Herald will collect your chevrons at the time of entry into a new match.
- **12012**: You have already confirmed your data for the [/Jugner Forest/Pashhow Marshlands/Meriphataud Mountains] match. We look forward to your participation in future matches!
- **12018**: I have finished registering your data. Your final Ballista Point Ranking for the previous match is: $7.
- **12019**: I registered your point total; however, it seems you did not make the final list. But do not fret. You will have many chances to redeem yourself in future matches. Good luck, <Player>!
- **12020**: Your final Ballista Point Ranking for the previous match is: $0. (Rank among [/warriors/monks/white mages/black mages/red mages/thieves/paladins/dark knights/beastmasters/bards/rangers/samurais/ninjas/dragoons/summoners/blue mages/corsairs/puppetmasters/dancers/scholars/geomancers/rune fencers]: $3) However, a little more practice, and the champion's throne is yours for the taking!
- **12021**: I am sorry, but we are no longer accepting Ballista Point Ranking registrations for the match in which you previously participated.
- **12022**: For future reference, please note that the registration period is exactly four hours (Vana'diel time) from the close of each Ballista match.
- **12025**: You have already registered your Ballista Points for the previous match. Your current rank is $0.
- **12026**: $26$3V$3X$3e$3 :$0@$26$13$P13o%^$20:$1 $26$)$7<Player>J:$2@$26$P13o%^$3W$3 $3u:$3 $26$P13/$3W$3 $3u$P13o%^$20:$4@$26$3W$3 $3u$P15J$)$7<Player>J:$5 $26$P13o%^BP:$6@$26TIME:$7
- **12029**: What do you wish to know about? [Basic rules./About the Petra./About Sprint./About Scout./About Gate Breach./About area-specific rules./About returning to battle./About special rules./Nothing at the moment.]
- **12030**: Ballista is an exercise once used by the San d'Orian armies to train the Royal Knights in the art of the siege. The word "ballista" means "to throw a stone," and the game has been a part of Vana'dielian military history for centuries.
- **12031**: The rules are simple. Ballista is played by two teams over a number of hours (Vana'diel time). The team with the most points at the end of the match is the victor.
- **12032**: Players from both teams must search for Petras that a Herald has buried in various locations across the battlefield. The players must then take these stones and throw them into targets known as Rooks.
- **12033**: These Rooks can appear in various locations around the battlefield, and both teams are allowed to throw their Petras into them.
- **12034**: Finally, a player's strength is adjusted depending on his or her level. It is felt that this ultimately allows for a more balanced battle.
- **12035**: Petras can be buried anywhere. Once a player believes he or she has found one, the Quarry (/quarry) command should be used to dig up the area at his or her feet.
- **12036**: Sometimes a player may find items other than Petras, such as potions. These temporary items can only be used during the current match (or Best of Three series).
- **12037**: Players can carry more than one Petra, but they cannot throw the stones away once they have obtained them. However, players will lose their Petras if they: (1) Successfully throw them into a rook. (2) Leave the area. (3) Are knocked out.
- **12038**: But don't forget, a player will be unable to use the Sprint command while in possession of a Petra. And, players can only use the Scout command if they carry one of the stones.
- **12039**: As one can see, careful planning and impeccable timing are the keys to victory.
- **12040**: All participants of Ballista will have the ability to use the Sprint command. This will temporarily increase one's movement speed, creating a better chance to find and obtain Petras.
- **12041**: However, remember that once a player has obtained a Petra, he or she will be unable to use the Sprint command. In its place, though, one may use the Scout command.
- **12042**: The locations of the Rooks are constantly changing. This makes it quite difficult to find the targets by just randomly walking about the area.
- **12043**: Communication with one's team members is, of course, one way to locate Rooks. However, another way is by using the Scout command. This will inform a player of the approximate location of the nearest Rook.
- **12044**: Finally, Scout can only be used when a player is carrying a Petra. Because Sprint cannot be used at this time, players must be weary of approaching enemies.
- **12045**: So, a Petra has been obtained and a Rook located. Now all that's left is tossing the stone in, right? Wrong.
- **12046**: There is one aspect of Ballista that has yet to be mentioned...and this is where the real battle begins.
- **12047**: To throw a Petra into a Rook, a player must first wait until the Rook's gate is open. This takes impeccable timing, as the gate is only open for a short while.
- **12048**: But not just anyone can score points this way. A player must first take down a member of the opposing team and achieve Gate Breach status. Only then will his or her shots count.
- **12049**: This extreme method of combat is what made the ancient game of Ballista famous, and transformed its participants into heroes.
- **12050**: Running about looking for stones is no different from a child's game of hide-and-seek. Knowing when to strike is what separates the men from the boys.
- **12051**: The following match types are area-specific: All or Nothing (one match) * Normal Items Allowed: Jugner Forest All or Nothing (one match) * Normal Items Restricted: Pashhow Marshlands Best of Three (three matches) * Normal Items Allowed: Meriphataud Mountains
- **12052**: Best of Three series rules are as follows: Winning a match will earn a nation one "match point." The nation with the most match points at the end of the series will be declared the victor. Winning the third and final match and producing the high scorer will result in two match points awarded. This allows both sides the chance for "come-from-behind" victories.
- **12053**: Between each of the matches, a short interval will be implemented. During this interval, Invisible and Sneak will be cast on all participants. We suggest this time be used to discuss strategies with the other members of your nation's forces.
- **12054**: Players will be forbidden from using any items they bring to the battlefield. Only temporary items that are quarried may be used. A total of fifteen temporary items (though only one of each type) can be carried.
- **12055**: When this rule is in effect, all players will be presented with five complimentary temporary items at the beginning of the match.
- **12056**: For more information on temporary items, refer to the "special rules."
- **12057**: After being KO'd, if a player chooses to be revived at the spot he was defeated, 100% of all HP and 50% of all MP will be restored. In addition, the player will maintain 50% of the TP he had earned.
- **12058**: If a player chooses to return to their force's camp, HP and MP will be fully restored, but all TP will be lost.
- **12059**: Please note that many of the rules previously considered "special" have been fully implemented. Also, several new special rules have been added.
- **12060**: Learn about which special rules? [Temporary items./Ballista Points./Scoring restrictions./Gate Breach radius expansion./Resistance to Sleep./Open entries./Minimum level restrictions./Re-entry restrictions./Participant & Rook numbers./Experience Points./Return.]
- **12061**: Previously, participants in Ballista were required to use an item the moment they dug it up using the /quarry command. However, players can now stock these items as temporary items for use at any time during the match.
- **12062**: Players can hold up to ten temporary items, but only one of each type. If a player finds an item that they already possess, they must use it immediately or throw it away.
- **12063**: If players who possess ten temporary items find an item that they have not already obtained, they will also have the option to exchange it with one of their current items.
- **12064**: Also, players will not, at any time, be allowed to trade temporary items. However, there are items that can be used on other Ballista participants. Please note that players may not be able to use these special items as soon as they are quarried.
- **12065**: Finally, the Heralds will collect temporary items when the match (the third in a Best of Three series) has concluded.
- **12066**: Ballista Points are rewarded to each competitor based on his or her performance in a single Ballista match. The maximum number of points that can be accumulated per match is $0.
- **12067**: While it is taken into consideration, scoring Petras is not the only way to earn Ballista Points. Assisting allies and defeating members of the enemy forces can also earn a high score.
- **12068**: Ballista Points can be traded for special "vouchers," which may be exchanged for free temporary items at the start of new matches.
- **12069**: However, remember that depending on the level restriction of the match, certain vouchers will not be redeemed at the beginning of a match. Speak with a Marshal directly after a match to register your points.
- **12070**: Players will only be allowed to score up to five Petras at a time. Also, a player's Gate Breach status will be automatically disengaged if a Petra is not scored within a certain amount of time. The amount of time is increased for those members of the team currently behind in points.
- **12071**: All allies within a certain radius will achieve Gate Breach status when a member of the enemy forces is defeated.
- **12072**: Players' resistance to sleep will be increased.
- **12073**: During the entry period, from $0:, all adventurers will be allowed to join the forces with the smallest number of participants, regardless of allegiance. Open entries will be accepted until both sides have reached maximum capacity.
- **12074**: In order to ensure balanced matches, the following level limits are enforced: Level 30 matches: 1\`30
- **12075**: Level 40 matches: 31\`40 Level 50 matches: 41\`50 Level 60 matches: 51\`60 Unrestricted matches: 61\`
- **12076**: Please note that any participant who cancels his or her registration will not be allowed to re-apply for the same match.
- **12077**: When the total number of participants in a match is less than 40, the location of the two camps will be adjusted. Also in this case, the number of Rooks will be reduced to two.
- **12078**: Any adventurer whose main level is over 30 will receive EXP for participating in a Ballista match. However, no EXP will be rewarded if the adventurer fails to actively take part in the match.
- **12079**: Read which chapter on B.P. Ranking? [Basic Information./Registering Points./Rewards./Chevron & Title List./None.]
- **12080**: Ballista Point Ranking is based upon all Ballista Points registered from the past ten matches in each of the three participating battle areas.
- **12081**: Anyone who wishes to take part in the ranking needs to register [his/her] points within four hours (Vana'diel time) from the end of the previous match.
- **12082**: After the registration period ends, players can compare their record with those of the previous nine matches.
- **12083**: If, at any time, a player ranks in the top ten (overall) or first for a specific job, [he/she] will have the opportunity to receive a special chevron as well as a new title.
- **12084**: There are four types of chevrons and titles awarded to top-ten players (gold/mythril/silver/bronze), as well as twenty-two different types awarded for outstanding performances by players of each of the twenty-two jobs.
- **12085**: Wearing a chevron during a Ballista match will automatically change a player's current title. If a player wishes to possess this title after a match as well, [he/she] must contact a certain bard in San d'Oria.
- **12086**: Also, while wearing a chevron, players will be able to trade Ballista Points for temporary items not available to all players.
- **12087**: However, the rules of Ballista state that players may only possess a certain chevron for no longer than one half Vana'diel year. When that time comes, they are required to return the chevron before being allowed to participate in any further matches.
- **12088**: Finally, checking someone during a Ballista match will display the total number of chevrons that person has accumulated to date.
- **12089**: View which chevron/title? [1st (overall)./2nd (overall)./3rd (overall)./4th-10th (overall)./1st (warrior)./1st (monk)./1st (white mage)./1st (black mage)./1st (red mage)./1st (thief)./1st (paladin)./1st (dark knight)./1st (beastmaster)./1st (bard)./1st (ranger)./1st (samurai)./1st (ninja)./1st (dragoon)./1st (summoner)./1st (blue mage)./1st (corsair)./1st (puppetmaster)./1st (dancer)./1st (scholar)./1st (geomancer)./1st (rune fencer)./Return.]
- **12090**: Key Item: $3 Title: Gold Balli$25$25$25$25star
- **12091**: Key Item: $3 Title: Mythril Balli$25$25$25star
- **12092**: Key Item: $3 Title: Silver Balli$25$25star
- **12093**: Key Item: $3 Title: Bronze Balli$25star
- **12094**: Key Item: $3 Title: Searing$26Star
- **12095**: Key Item: $3 Title: Striking$26Star
- **12096**: Key Item: $3 Title: Soothing$26Star
- **12097**: Key Item: $3 Title: Sable$26Star
- **12098**: Key Item: $3 Title: Scarlet$26Star
- **12099**: Key Item: $3 Title: Sonic$26Star
- **12100**: Key Item: $3 Title: Saintly$26Star
- **12101**: Key Item: $3 Title: Shadowy$26Star
- **12102**: Key Item: $3 Title: Savage$26Star
- **12103**: Key Item: $3 Title: Singing$26Star
- **12104**: Key Item: $3 Title: Sniping$26Star
- **12105**: Key Item: $3 Title: Slicing$26Star
- **12106**: Key Item: $3 Title: Sneaking$26Star
- **12107**: Key Item: $3 Title: Spearing$26Star
- **12108**: Key Item: $3 Title: Summoning$26Star
- **12109**: Key Item: $3 Title: Sapphire$26Star
- **12110**: Key Item: $3 Title: Surging$26Star
- **12111**: Key Item: $3 Title: Swaying$26Star
- **12112**: Key Item: $3 Title: Sprightly$26Star
- **12113**: Key Item: $3 Title: Sagacious$26Star
- **12114**: Key Item: $3 Title: Spiritual$26Star
- **12115**: Key Item: $3 Title: Stippling$26Star

## Events

### Event 65535

#### Metadata

| Field        | Value   |
|--------------|---------|
| Entrypoint   | 0x0000  |
| Data Size    | 1 bytes |
| Instructions | 1       |

```
      00 01 02 03 04 05 06 07  08 09 0A 0B 0C 0D 0E 0F
      -- -- -- -- -- -- -- --  -- -- -- -- -- -- -- --
0000: 00                                                .               
```

#### Opcodes

```
  0: 0x0000 [0x00] END_REQSTACK()
```

### Event 44

#### Metadata

| Field        | Value      |
|--------------|------------|
| Entrypoint   | 0x0001     |
| Data Size    | 4858 bytes |
| Instructions | 534        |

```
      00 01 02 03 04 05 06 07  08 09 0A 0B 0C 0D 0E 0F
      -- -- -- -- -- -- -- --  -- -- -- -- -- -- -- --
0000:    03 01 10 00 80 20 01  1E F0 FF FF 7F 6F 70 03   ..... ......op.
0010: 04 00 02 10 03 05 00 03  10 03 08 00 04 10 3E 05  ..............>.
0020: 10 01 80 28 00 05 1E 00  3E 05 10 02 80 32 00 05  ...(....>....2..
0030: 20 00 03 12 00 06 10 03  13 00 07 10 03 1D 00 08   ...............
0040: 10 03 09 00 09 10 06 00  00 3E 1D 00 03 80 57 00  .........>....W.
0050: 3C 00 00 01 80 02 80 06  01 00 3E 1D 00 04 80 64  <.........>....d
0060: 00 05 01 00 3E 1D 00 05  80 6E 00 05 01 00 02 01  ....>....n......
0070: 00 01 80 00 7D 00 3C 00  00 02 80 02 80 3E 1D 00  ....}.<......>..
0080: 01 80 8E 00 3C 00 00 02  80 02 80 01 A3 00 3C 00  ....<.........<.
0090: 00 04 80 02 80 3C 00 00  05 80 02 80 3C 00 00 06  .....<......<...
00A0: 80 02 80 3C 00 00 02 80  02 80 3C 00 00 04 80 02  ...<......<.....
00B0: 80 03 02 10 13 00 03 03  10 04 00 1D 07 80 23 02  ..............#.
00C0: 04 00 08 80 04 D0 00 03  02 10 08 80 1D 09 80 23  ...............#
00D0: 24 0A 80 01 80 00 00 25  02 00 10 01 80 00 AA 04  $......%........
00E0: 03 02 10 04 00 03 03 10  08 00 03 04 10 0B 80 02  ................
00F0: 08 00 01 80 02 FE 00 1D  0C 80 23 01 02 01 1D 0D  ..........#.....
0100: 80 23 06 06 00 06 07 00  06 00 00 03 03 00 02 80  .#..............
0110: 02 03 00 0E 80 05 73 02  03 22 00 06 00 1A F5 06  ......s.."......
0120: 02 03 00 02 80 80 35 01  03 02 10 25 00 03 03 10  ......5....%....
0130: 24 00 01 5B 02 02 03 00  04 80 80 4A 01 03 04 10  $..[.......J....
0140: 25 00 03 05 10 24 00 01  5B 02 02 03 00 05 80 80  %....$..[.......
0150: 5F 01 03 06 10 25 00 03  07 10 24 00 01 5B 02 02  _....%....$..[..
0160: 03 00 0F 80 80 74 01 03  08 10 25 00 03 09 10 24  .....t....%....$
0170: 00 01 5B 02 02 03 00 06  80 80 89 01 03 00 17 25  ..[............%
0180: 00 03 01 17 24 00 01 5B  02 02 03 00 03 80 80 9E  ....$..[........
0190: 01 03 02 17 25 00 03 03  17 24 00 01 5B 02 02 03  ....%....$..[...
01A0: 00 10 80 80 B3 01 03 04  17 25 00 03 05 17 24 00  .........%....$.
01B0: 01 5B 02 02 03 00 11 80  80 C8 01 03 06 17 25 00  .[............%.
01C0: 03 07 17 24 00 01 5B 02  02 03 00 12 80 80 DD 01  ...$..[.........
01D0: 03 08 17 25 00 03 09 17  24 00 01 5B 02 02 03 00  ...%....$..[....
01E0: 0B 80 80 F2 01 03 0A 17  25 00 03 0B 17 24 00 01  ........%....$..
01F0: 5B 02 02 03 00 13 80 80  07 02 03 0C 17 25 00 03  [............%..
0200: 0D 17 24 00 01 5B 02 02  03 00 14 80 80 1C 02 03  ..$..[..........
0210: 0E 17 25 00 03 0F 17 24  00 01 5B 02 02 03 00 15  ..%....$..[.....
0220: 80 80 31 02 03 10 17 25  00 03 11 17 24 00 01 5B  ..1....%....$..[
0230: 02 02 03 00 16 80 80 46  02 03 12 17 25 00 03 13  .......F....%...
0240: 17 24 00 01 5B 02 02 03  00 0E 80 80 5B 02 03 14  .$..[.......[...
0250: 17 25 00 03 15 17 24 00  01 5B 02 02 23 00 01 80  .%....$..[..#...
0260: 00 6A 02 3C 00 00 03 00  02 80 0B 03 00 0B 06 00  .j.<............
0270: 01 10 01 03 22 00 06 00  08 22 00 17 80 1A F5 06  ...."...."......
0280: 02 23 00 01 80 00 8F 02  3C 00 00 01 80 02 80 03  .#......<.......
0290: 22 00 06 00 1A F5 06 02  23 00 01 80 00 A6 02 3C  ".......#......<
02A0: 00 00 17 80 02 80 24 18  80 07 00 00 00 25 02 00  ......$......%..
02B0: 10 01 80 00 C4 02 06 07  00 08 06 00 19 80 01 08  ................
02C0: 01 01 A7 04 02 00 10 17  80 00 D5 02 06 07 00 01  ................
02D0: 08 01 01 A7 04 02 00 10  1A 80 00 E0 02 01 A7 04  ................
02E0: 02 00 10 02 80 80 F0 02  03 07 00 02 80 01 D0 03  ................
02F0: 02 00 10 04 80 80 00 03  03 07 00 04 80 01 D0 03  ................
0300: 02 00 10 05 80 80 10 03  03 07 00 05 80 01 D0 03  ................
0310: 02 00 10 0F 80 80 20 03  03 07 00 0F 80 01 D0 03  ...... .........
0320: 02 00 10 06 80 80 30 03  03 07 00 06 80 01 D0 03  ......0.........
0330: 02 00 10 03 80 80 40 03  03 07 00 03 80 01 D0 03  ......@.........
0340: 02 00 10 10 80 80 50 03  03 07 00 10 80 01 D0 03  ......P.........
0350: 02 00 10 11 80 80 60 03  03 07 00 11 80 01 D0 03  ......`.........
0360: 02 00 10 12 80 80 70 03  03 07 00 12 80 01 D0 03  ......p.........
0370: 02 00 10 0B 80 80 80 03  03 07 00 0B 80 01 D0 03  ................
0380: 02 00 10 13 80 80 90 03  03 07 00 13 80 01 D0 03  ................
0390: 02 00 10 14 80 80 A0 03  03 07 00 14 80 01 D0 03  ................
03A0: 02 00 10 15 80 80 B0 03  03 07 00 15 80 01 D0 03  ................
03B0: 02 00 10 16 80 80 C0 03  03 07 00 16 80 01 D0 03  ................
03C0: 02 00 10 0E 80 80 D0 03  03 07 00 0E 80 01 D0 03  ................
03D0: 03 22 00 06 00 08 22 00  17 80 07 22 00 00 10 1A  ."...."...."....
03E0: F5 06 93 23 00 02 23 00  1B 80 00 16 04 03 01 10  ...#..#.........
03F0: 1C 80 43 00 43 01 03 01  10 00 80 02 09 10 01 80  ..C.C...........
0400: 00 12 04 1D 1D 80 23 08  06 00 0E 80 01 08 01 01  ......#.........
0410: 16 04 1D 1E 80 23 03 02  10 25 00 03 03 10 24 00  .....#...%....$.
0420: 03 04 10 23 00 02 08 00  0B 80 04 39 04 03 05 10  ...#.......9....
0430: 0B 80 1D 1F 80 23 01 A7  04 3E 05 00 22 00 4F 04  .....#...>..".O.
0440: 1D 20 80 23 08 06 00 0E  80 01 08 01 01 A7 04 02  . .#............
0450: 04 00 24 00 04 98 04 1D  21 80 23 93 01 80 24 22  ..$.....!.#...$"
0460: 80 02 80 01 80 25 02 00  10 01 80 00 77 04 42 03  .....%......w.B.
0470: 01 10 22 00 01 95 04 02  00 10 02 80 00 8A 04 08  ..".............
0480: 06 00 0E 80 01 08 01 01  95 04 02 00 10 04 80 00  ................
0490: 95 04 01 95 04 01 A7 04  1D 23 80 23 93 01 80 08  .........#.#....
04A0: 06 00 0E 80 01 08 01 01  F3 06 02 00 10 02 80 00  ................
04B0: B8 04 1A 20 0E 01 F3 06  02 00 10 04 80 00 22 06  ... ..........".
04C0: 3E 1D 00 02 80 0E 06 1A  20 0E 02 13 00 01 80 00  >....... .......
04D0: E5 04 1A DA 0D 03 04 10  1C 00 1D 24 80 23 1D 25  ...........$.#.%
04E0: 80 23 01 0B 06 02 1E 00  02 80 00 F4 04 1D 26 80  .#............&.
04F0: 23 01 0B 06 03 02 10 12  00 03 03 10 13 00 1A DA  #...............
0500: 0D 03 04 10 1C 00 1D 27  80 23 1D 28 80 23 24 29  .......'.#.(.#$)
0510: 80 02 80 01 80 25 02 00  10 01 80 00 0B 06 1A DA  .....%..........
0520: 0D 03 01 10 2A 80 43 00  43 01 03 01 10 00 80 02  ....*.C.C.......
0530: 02 10 01 80 00 42 05 1D  2B 80 23 1D 2C 80 23 01  .....B..+.#.,.#.
0540: 08 06 42 B3 03 1C 00 B3  05 1A 00 16 00 15 00 17  ..B.............
0550: 00 19 00 18 00 1B 00 14  00 1A AD 0E 02 1A 00 2D  ...............-
0560: 80 80 6B 05 1D 2E 80 23  01 08 06 02 1A 00 2F 80  ..k....#....../.
0570: 80 7F 05 03 02 10 15 00  1D 30 80 23 01 08 06 02  .........0.#....
0580: 1A 00 1C 80 80 92 05 1D  2B 80 23 1D 2C 80 23 01  ........+.#.,.#.
0590: 08 06 02 15 00 01 80 80  A1 05 1D 31 80 23 01 08  ...........1.#..
05A0: 06 03 01 10 2F 80 43 00  43 01 03 01 10 00 80 03  ..../.C.C.......
05B0: 01 00 14 00 1A DB 0D 02  15 00 0B 80 05 D6 05 1D  ................
05C0: 32 80 23 1D 33 80 23 1D  34 80 23 1D 35 80 23 1D  2.#.3.#.4.#.5.#.
05D0: 36 80 23 01 08 06 02 18  00 02 80 00 FF 05 03 08  6.#.............
05E0: 10 17 00 03 09 10 19 00  1D 37 80 23 1D 33 80 23  .........7.#.3.#
05F0: 1D 38 80 23 1D 35 80 23  1D 39 80 23 01 08 06 03  .8.#.5.#.9.#....
0600: 09 10 15 00 1D 3A 80 23  01 0B 06 01 1A 06 1A DA  .....:.#........
0610: 0D 03 04 10 1C 00 1D 3B  80 23 03 01 10 00 80 01  .......;.#......
0620: F3 06 02 00 10 05 80 00  C1 06 03 01 10 1C 80 43  ...............C
0630: 00 43 01 03 01 10 00 80  03 1F 00 02 10 03 21 00  .C............!.
0640: 09 10 07 08 10 3C 80 03  00 17 3D 80 03 01 17 3E  .....<....=....>
0650: 80 03 02 17 3F 80 03 03  17 40 80 02 21 00 01 80  ....?....@..!...
0660: 01 67 06 1D 41 80 23 1D  42 80 23 1A DA 0D 1D 43  .g..A.#.B.#....C
0670: 80 23 24 44 80 01 80 01  80 25 02 00 10 05 80 00  .#$D.....%......
0680: 85 06 01 B9 06 0B 00 10  03 1C 00 00 10 B3 00 1C  ................
0690: 00 B3 01 1A 00 16 00 15  00 17 00 19 00 18 00 1A  ................
06A0: AD 0E 02 1A 00 2D 80 00  B6 06 1D 45 80 23 03 01  .....-.....E.#..
06B0: 10 00 80 01 B9 06 1A 0E  0E 03 01 10 00 80 01 F3  ................
06C0: 06 02 00 10 0F 80 00 DA  06 1D 46 80 23 1A 3F 0B  ..........F.#.?.
06D0: 1D 47 80 23 01 D0 00 01  F3 06 02 00 10 06 80 00  .G.#............
06E0: F3 06 1D 48 80 23 1A 55  0B 1D 49 80 23 01 D0 00  ...H.#.U..I.#...
06F0: 01 F3 06 21 00 02 22 00  01 80 80 0F 07 03 23 00  ...!..".......#.
0700: 4A 80 03 25 00 4B 80 03  24 00 0E 80 01 5A 09 02  J..%.K..$....Z..
0710: 22 00 02 80 80 29 07 03  23 00 4C 80 03 25 00 4D  "....)..#.L..%.M
0720: 80 03 24 00 4E 80 01 5A  09 02 22 00 04 80 80 43  ..$.N..Z.."....C
0730: 07 03 23 00 4F 80 03 25  00 50 80 03 24 00 51 80  ..#.O..%.P..$.Q.
0740: 01 5A 09 02 22 00 05 80  80 5D 07 03 23 00 52 80  .Z.."....]..#.R.
0750: 03 25 00 53 80 03 24 00  54 80 01 5A 09 02 22 00  .%.S..$.T..Z..".
0760: 0F 80 80 77 07 03 23 00  55 80 03 25 00 56 80 03  ...w..#.U..%.V..
0770: 24 00 57 80 01 5A 09 02  22 00 06 80 80 91 07 03  $.W..Z..".......
0780: 23 00 58 80 03 25 00 59  80 03 24 00 5A 80 01 5A  #.X..%.Y..$.Z..Z
0790: 09 02 22 00 03 80 80 AB  07 03 23 00 5B 80 03 25  ..".......#.[..%
07A0: 00 5C 80 03 24 00 5D 80  01 5A 09 02 22 00 10 80  .\..$.]..Z.."...
07B0: 80 C5 07 03 23 00 5E 80  03 25 00 5F 80 03 24 00  ....#.^..%._..$.
07C0: 60 80 01 5A 09 02 22 00  11 80 80 DF 07 03 23 00  `..Z..".......#.
07D0: 61 80 03 25 00 62 80 03  24 00 63 80 01 5A 09 02  a..%.b..$.c..Z..
07E0: 22 00 12 80 80 F9 07 03  23 00 64 80 03 25 00 65  ".......#.d..%.e
07F0: 80 03 24 00 63 80 01 5A  09 02 22 00 0B 80 80 13  ..$.c..Z..".....
0800: 08 03 23 00 66 80 03 25  00 67 80 03 24 00 19 80  ..#.f..%.g..$...
0810: 01 5A 09 02 22 00 13 80  80 2D 08 03 23 00 68 80  .Z.."....-..#.h.
0820: 03 25 00 69 80 03 24 00  6A 80 01 5A 09 02 22 00  .%.i..$.j..Z..".
0830: 14 80 80 47 08 03 23 00  6B 80 03 25 00 6C 80 03  ...G..#.k..%.l..
0840: 24 00 6A 80 01 5A 09 02  22 00 15 80 80 61 08 03  $.j..Z.."....a..
0850: 23 00 6D 80 03 25 00 6E  80 03 24 00 6A 80 01 5A  #.m..%.n..$.j..Z
0860: 09 02 22 00 16 80 80 7B  08 03 23 00 6F 80 03 25  .."....{..#.o..%
0870: 00 70 80 03 24 00 6A 80  01 5A 09 02 22 00 0E 80  .p..$.j..Z.."...
0880: 80 95 08 03 23 00 71 80  03 25 00 72 80 03 24 00  ....#.q..%.r..$.
0890: 6A 80 01 5A 09 02 22 00  17 80 80 AF 08 03 23 00  j..Z..".......#.
08A0: 73 80 03 25 00 74 80 03  24 00 6A 80 01 5A 09 02  s..%.t..$.j..Z..
08B0: 22 00 1A 80 80 C9 08 03  23 00 75 80 03 25 00 76  ".......#.u..%.v
08C0: 80 03 24 00 19 80 01 5A  09 02 22 00 77 80 80 E3  ..$....Z..".w...
08D0: 08 03 23 00 78 80 03 25  00 79 80 03 24 00 7A 80  ..#.x..%.y..$.z.
08E0: 01 5A 09 02 22 00 7B 80  80 FD 08 03 23 00 7C 80  .Z..".{.....#.|.
08F0: 03 25 00 7D 80 03 24 00  5D 80 01 5A 09 02 22 00  .%.}..$.]..Z..".
0900: 54 80 80 17 09 03 23 00  7E 80 03 25 00 7F 80 03  T.....#.~..%....
0910: 24 00 80 80 01 5A 09 02  22 00 81 80 80 31 09 03  $....Z.."....1..
0920: 23 00 82 80 03 25 00 83  80 03 24 00 7A 80 01 5A  #....%....$.z..Z
0930: 09 02 22 00 84 80 80 4B  09 03 23 00 1B 80 03 25  .."....K..#....%
0940: 00 85 80 03 24 00 7A 80  01 5A 09 03 23 00 01 80  ....$.z..Z..#...
0950: 03 24 00 01 80 03 25 00  01 80 1B 24 86 80 00 10  .$....%....$....
0960: 01 80 25 02 00 10 01 80  00 85 09 48 87 80 23 48  ..%........H..#H
0970: 88 80 23 48 89 80 23 48  8A 80 23 48 8B 80 23 01  ..#H..#H..#H..#.
0980: 5B 09 01 3E 0B 02 00 10  02 80 00 A7 09 48 8C 80  [..>.........H..
0990: 23 48 8D 80 23 48 8E 80  23 48 8F 80 23 48 90 80  #H..#H..#H..#H..
09A0: 23 01 5B 09 01 3E 0B 02  00 10 04 80 00 BD 09 48  #.[..>.........H
09B0: 91 80 23 48 92 80 23 01  5B 09 01 3E 0B 02 00 10  ..#H..#.[..>....
09C0: 05 80 00 D7 09 48 93 80  23 48 94 80 23 48 95 80  .....H..#H..#H..
09D0: 23 01 5B 09 01 3E 0B 02  00 10 0F 80 00 FD 09 48  #.[..>.........H
09E0: 96 80 23 48 97 80 23 48  98 80 23 48 99 80 23 48  ..#H..#H..#H..#H
09F0: 9A 80 23 48 9B 80 23 01  5B 09 01 3E 0B 02 00 10  ..#H..#.[..>....
0A00: 06 80 00 23 0A 48 9C 80  23 48 9D 80 23 48 9E 80  ...#.H..#H..#H..
0A10: 23 48 9F 80 23 48 A0 80  23 48 A1 80 23 01 5B 09  #H..#H..#H..#.[.
0A20: 01 3E 0B 02 00 10 03 80  00 39 0A 48 A2 80 23 48  .>.......9.H..#H
0A30: A3 80 23 01 5B 09 01 3E  0B 02 00 10 10 80 00 3E  ..#.[..>.......>
0A40: 0B 06 00 10 48 A4 80 23  24 A5 80 00 10 01 80 25  ....H..#$......%
0A50: 02 00 10 01 80 00 72 0A  48 A6 80 23 48 A7 80 23  ......r.H..#H..#
0A60: 48 A8 80 23 48 A9 80 23  48 AA 80 23 01 48 0A 01  H..#H..#H..#.H..
0A70: 3B 0B 02 00 10 02 80 00  83 0A 1A 3F 0B 01 48 0A  ;..........?..H.
0A80: 01 3B 0B 02 00 10 04 80  00 95 0A 48 AB 80 23 01  .;.........H..#.
0A90: 48 0A 01 3B 0B 02 00 10  05 80 00 A7 0A 48 AC 80  H..;.........H..
0AA0: 23 01 48 0A 01 3B 0B 02  00 10 0F 80 00 B9 0A 48  #.H..;.........H
0AB0: AD 80 23 01 48 0A 01 3B  0B 02 00 10 06 80 00 DC  ..#.H..;........
0AC0: 0A AA AE 80 01 00 01 00  01 00 01 00 02 10 03 10  ................
0AD0: 01 00 48 AF 80 23 01 48  0A 01 3B 0B 02 00 10 03  ..H..#.H..;.....
0AE0: 80 00 F2 0A 48 B0 80 23  48 B1 80 23 01 48 0A 01  ....H..#H..#.H..
0AF0: 3B 0B 02 00 10 10 80 00  04 0B 48 B2 80 23 01 48  ;.........H..#.H
0B00: 0A 01 3B 0B 02 00 10 11  80 00 16 0B 48 B3 80 23  ..;.........H..#
0B10: 01 48 0A 01 3B 0B 02 00  10 12 80 00 28 0B 48 B4  .H..;.......(.H.
0B20: 80 23 01 48 0A 01 3B 0B  02 00 10 0B 80 00 3B 0B  .#.H..;.......;.
0B30: 03 00 10 10 80 01 5B 09  01 3B 0B 01 3E 0B 1B 03  ......[..;..>...
0B40: 02 10 08 80 48 B5 80 23  48 B6 80 23 48 B7 80 23  ....H..#H..#H..#
0B50: 48 B8 80 23 1B 24 B9 80  27 00 01 80 25 03 27 00  H..#.$..'...%.'.
0B60: 00 10 02 00 10 01 80 00  74 0B 48 BA 80 23 01 55  ........t.H..#.U
0B70: 0B 01 D9 0D 02 00 10 02  80 00 8A 0B 48 BB 80 23  ............H..#
0B80: 48 BC 80 23 01 55 0B 01  D9 0D 02 00 10 04 80 00  H..#.U..........
0B90: B0 0B 48 BD 80 23 48 BE  80 23 48 BF 80 23 48 C0  ..H..#H..#H..#H.
0BA0: 80 23 48 C1 80 23 48 C2  80 23 01 55 0B 01 D9 0D  .#H..#H..#.U....
0BB0: 02 00 10 05 80 00 D9 0D  06 28 00 24 C3 80 28 00  .........(.$..(.
0BC0: 01 80 25 03 28 00 00 10  02 00 10 01 80 00 DC 0B  ..%.(...........
0BD0: 03 02 10 3D 80 48 C4 80  23 01 D3 0D 02 00 10 02  ...=.H..#.......
0BE0: 80 00 F0 0B 03 02 10 3E  80 48 C5 80 23 01 D3 0D  .......>.H..#...
0BF0: 02 00 10 04 80 00 04 0C  03 02 10 3F 80 48 C6 80  ...........?.H..
0C00: 23 01 D3 0D 02 00 10 05  80 00 18 0C 03 02 10 40  #..............@
0C10: 80 48 C7 80 23 01 D3 0D  02 00 10 0F 80 00 2C 0C  .H..#.........,.
0C20: 03 02 10 C8 80 48 C9 80  23 01 D3 0D 02 00 10 06  .....H..#.......
0C30: 80 00 40 0C 03 02 10 CA  80 48 CB 80 23 01 D3 0D  ..@......H..#...
0C40: 02 00 10 03 80 00 54 0C  03 02 10 CC 80 48 CD 80  ......T......H..
0C50: 23 01 D3 0D 02 00 10 10  80 00 68 0C 03 02 10 CE  #.........h.....
0C60: 80 48 CF 80 23 01 D3 0D  02 00 10 11 80 00 7C 0C  .H..#.........|.
0C70: 03 02 10 D0 80 48 D1 80  23 01 D3 0D 02 00 10 12  .....H..#.......
0C80: 80 00 90 0C 03 02 10 D2  80 48 D3 80 23 01 D3 0D  .........H..#...
0C90: 02 00 10 0B 80 00 A4 0C  03 02 10 D4 80 48 D5 80  .............H..
0CA0: 23 01 D3 0D 02 00 10 13  80 00 B8 0C 03 02 10 D6  #...............
0CB0: 80 48 D7 80 23 01 D3 0D  02 00 10 14 80 00 CC 0C  .H..#...........
0CC0: 03 02 10 D8 80 48 D9 80  23 01 D3 0D 02 00 10 15  .....H..#.......
0CD0: 80 00 E0 0C 03 02 10 DA  80 48 DB 80 23 01 D3 0D  .........H..#...
0CE0: 02 00 10 16 80 00 F4 0C  03 02 10 DC 80 48 DD 80  .............H..
0CF0: 23 01 D3 0D 02 00 10 0E  80 00 08 0D 03 02 10 DE  #...............
0D00: 80 48 DF 80 23 01 D3 0D  02 00 10 17 80 00 1C 0D  .H..#...........
0D10: 03 02 10 E0 80 48 E1 80  23 01 D3 0D 02 00 10 1A  .....H..#.......
0D20: 80 00 30 0D 03 02 10 E2  80 48 E3 80 23 01 D3 0D  ..0......H..#...
0D30: 02 00 10 77 80 00 44 0D  03 02 10 60 80 48 E4 80  ...w..D....`.H..
0D40: 23 01 D3 0D 02 00 10 7B  80 00 58 0D 03 02 10 E5  #......{..X.....
0D50: 80 48 E6 80 23 01 D3 0D  02 00 10 54 80 00 6C 0D  .H..#......T..l.
0D60: 03 02 10 E7 80 48 E8 80  23 01 D3 0D 02 00 10 81  .....H..#.......
0D70: 80 00 80 0D 03 02 10 E9  80 48 EA 80 23 01 D3 0D  .........H..#...
0D80: 02 00 10 84 80 00 94 0D  03 02 10 EB 80 48 EC 80  .............H..
0D90: 23 01 D3 0D 02 00 10 ED  80 00 A8 0D 03 02 10 EE  #...............
0DA0: 80 48 EF 80 23 01 D3 0D  02 00 10 F0 80 00 BC 0D  .H..#...........
0DB0: 03 02 10 F1 80 48 F2 80  23 01 D3 0D 02 00 10 F3  .....H..#.......
0DC0: 80 00 D0 0D 03 02 10 F4  80 48 F5 80 23 01 D3 0D  .........H..#...
0DD0: 01 55 0B 01 BB 0B 01 D9  0D 1B 1B 03 02 10 01 00  .U..............
0DE0: 07 02 10 F6 80 03 03 10  01 00 07 03 10 F7 80 1B  ................
0DF0: 1D F8 80 23 1D F9 80 23  1D FA 80 23 45 FB 80 F0  ...#...#...#E...
0E00: FF FF 7F F0 FF FF 7F 71  73 74 63 01 80 1B B3 02  .......qstc.....
0E10: B3 09 01 00 02 01 00 02  80 00 1F 0E 01 10 0E 1B  ................
0E20: 03 01 10 2D 80 43 00 43  01 03 01 10 00 80 03 0A  ...-.C.C........
0E30: 00 02 10 03 0B 00 03 10  03 0C 00 04 10 03 0D 00  ................
0E40: 05 10 03 0E 00 06 10 03  0F 00 07 10 03 10 00 08  ................
0E50: 10 03 11 00 09 10 3E 1D  00 04 80 61 0E 1D FC 80  ......>....a....
0E60: 23 3E 1D 00 05 80 6C 0E  1D FD 80 23 06 01 00 02  #>....l....#....
0E70: 09 00 0A 00 00 7A 0E 05  01 00 02 09 00 0B 00 00  .....z..........
0E80: 85 0E 05 01 00 02 09 00  0C 00 00 90 0E 05 01 00  ................
0E90: 02 09 00 0D 00 00 9B 0E  05 01 00 02 01 00 02 80  ................
0EA0: 00 A7 0E 1D FE 80 23 03  01 10 00 80 1B 02 20 00  ......#....... .
0EB0: 02 80 00 E1 0E 03 02 10  1A 00 03 03 10 16 00 03  ................
0EC0: 04 10 15 00 03 05 10 17  00 03 06 10 19 00 03 07  ................
0ED0: 10 18 00 03 08 10 1B 00  03 09 10 14 00 48 FF 80  .............H..
0EE0: 23 1B 06 01 00 02 1C 00  02 80 80 FA 0E 3E 1F 00  #............>..
0EF0: 01 80 F7 0E 05 01 00 01  24 0F 02 1C 00 04 80 80  ........$.......
0F00: 0F 0F 3E 1F 00 02 80 0C  0F 05 01 00 01 24 0F 02  ..>..........$..
0F10: 1C 00 05 80 80 24 0F 3E  1F 00 04 80 21 0F 05 01  .....$.>....!...
0F20: 00 01 24 0F 02 01 00 02  80 00 38 0F 03 02 10 1C  ..$.......8.....
0F30: 00 1D 00 81 23 01 FA 12  42 03 01 10 01 81 43 00  ....#...B.....C.
0F40: 43 01 B3 07 1C 00 B3 05  1A 00 16 00 15 00 17 00  C...............
0F50: 19 00 18 00 1B 00 14 00  1A AD 0E 02 1A 00 2D 80  ..............-.
0F60: 00 6F 0F 1D 45 80 23 03  01 10 00 80 01 FA 12 02  .o..E.#.........
0F70: 15 00 01 80 00 7E 0F 1D  02 81 23 01 FA 12 03 01  .....~....#.....
0F80: 10 03 81 43 00 43 01 02  02 10 2D 80 80 AB 0F 1D  ...C.C....-.....
0F90: 04 81 23 03 01 00 14 00  1A DB 0D 1D 33 80 23 1D  ..#.........3.#.
0FA0: 35 80 23 03 01 10 00 80  01 FA 12 02 02 10 2F 80  5.#.........../.
0FB0: 80 BF 0F 1D 05 81 23 03  01 10 00 80 01 FA 12 02  ......#.........
0FC0: 02 10 02 80 80 F5 12 06  01 10 06 01 00 06 02 10  ................
0FD0: 06 03 10 06 04 10 06 05  10 06 06 10 02 15 00 0B  ................
0FE0: 80 05 25 10 3C 01 00 01  80 02 80 03 02 10 15 00  ..%.<...........
0FF0: 02 15 00 02 80 80 00 10  03 03 10 3D 80 01 25 10  ...........=..%.
1000: 02 15 00 04 80 80 10 10  03 03 10 3E 80 01 25 10  ...........>..%.
1010: 02 15 00 05 80 80 20 10  03 03 10 3F 80 01 25 10  ...... ....?..%.
1020: 03 03 10 40 80 02 18 00  02 80 00 9E 11 3C 01 00  ...@.........<..
1030: 02 80 02 80 03 04 10 17  00 03 05 10 19 00 02 17  ................
1040: 00 02 80 80 4E 10 03 06  10 C8 80 01 9E 11 02 17  ....N...........
1050: 00 04 80 80 5E 10 03 06  10 CA 80 01 9E 11 02 17  ....^...........
1060: 00 05 80 80 6E 10 03 06  10 CC 80 01 9E 11 02 17  ....n...........
1070: 00 0F 80 80 7E 10 03 06  10 CE 80 01 9E 11 02 17  ....~...........
1080: 00 06 80 80 8E 10 03 06  10 D0 80 01 9E 11 02 17  ................
1090: 00 03 80 80 9E 10 03 06  10 D2 80 01 9E 11 02 17  ................
10A0: 00 10 80 80 AE 10 03 06  10 D4 80 01 9E 11 02 17  ................
10B0: 00 11 80 80 BE 10 03 06  10 D6 80 01 9E 11 02 17  ................
10C0: 00 12 80 80 CE 10 03 06  10 D8 80 01 9E 11 02 17  ................
10D0: 00 0B 80 80 DE 10 03 06  10 DA 80 01 9E 11 02 17  ................
10E0: 00 13 80 80 EE 10 03 06  10 DC 80 01 9E 11 02 17  ................
10F0: 00 14 80 80 FE 10 03 06  10 DE 80 01 9E 11 02 17  ................
1100: 00 15 80 80 0E 11 03 06  10 E0 80 01 9E 11 02 17  ................
1110: 00 16 80 80 1E 11 03 06  10 E2 80 01 9E 11 02 17  ................
1120: 00 0E 80 80 2E 11 03 06  10 60 80 01 9E 11 02 17  .........`......
1130: 00 17 80 80 3E 11 03 06  10 E5 80 01 9E 11 02 17  ....>...........
1140: 00 1A 80 80 4E 11 03 06  10 E7 80 01 9E 11 02 17  ....N...........
1150: 00 77 80 80 5E 11 03 06  10 E9 80 01 9E 11 02 17  .w..^...........
1160: 00 7B 80 80 6E 11 03 06  10 EB 80 01 9E 11 02 17  .{..n...........
1170: 00 54 80 80 7E 11 03 06  10 EE 80 01 9E 11 02 17  .T..~...........
1180: 00 81 80 80 8E 11 03 06  10 F1 80 01 9E 11 02 17  ................
1190: 00 84 80 80 9E 11 03 06  10 F4 80 01 9E 11 06 01  ................
11A0: 10 02 01 00 01 80 01 9D  12 02 01 00 05 80 80 DD  ................
11B0: 11 1D 06 81 23 1D 07 81  23 24 08 81 01 80 01 80  ....#...#$......
11C0: 25 02 00 10 01 80 00 CC  11 01 DA 11 02 00 10 02  %...............
11D0: 80 00 DA 11 01 F8 11 01  DA 11 01 07 12 02 01 00  ................
11E0: 02 80 80 EC 11 1D 09 81  23 01 07 12 02 01 00 04  ........#.......
11F0: 80 80 07 12 1D 0A 81 23  03 03 10 06 10 3C 01 10  .......#.....<..
1200: 0B 81 02 80 01 07 12 02  21 00 01 80 01 7C 12 03  ........!....|..
1210: 02 10 21 00 1D 0C 81 23  24 0D 81 01 80 01 80 25  ..!....#$......%
1220: 02 00 10 01 80 00 45 12  1D 0E 81 23 24 0F 81 01  ......E....#$...
1230: 80 01 80 25 02 00 10 02  80 00 42 12 01 0F 12 01  ...%......B.....
1240: 42 12 01 7C 12 02 00 10  02 80 00 7C 12 1D 10 81  B..|.......|....
1250: 23 24 0F 81 01 80 01 80  25 02 00 10 01 80 00 6B  #$......%......k
1260: 12 3C 01 10 11 81 02 80  01 79 12 02 00 10 02 80  .<.......y......
1270: 00 79 12 01 0F 12 01 79  12 01 7C 12 3E 01 10 11  .y.....y..|.>...
1280: 81 86 12 01 89 12 1A F0  0D 45 FB 80 F0 FF FF 7F  .........E......
1290: F0 FF FF 7F 71 73 74 63  01 80 01 B5 12 03 02 10  ....qstc........
12A0: 15 00 03 03 10 18 00 03  04 10 17 00 03 05 10 19  ................
12B0: 00 1D 12 81 23 02 1C 00  02 80 80 C7 12 3C 01 10  ....#........<..
12C0: 19 80 02 80 01 EB 12 02  1C 00 04 80 80 D9 12 3C  ...............<
12D0: 01 10 13 81 02 80 01 EB  12 02 1C 00 05 80 80 EB  ................
12E0: 12 3C 01 10 14 81 02 80  01 EB 12 3C 01 10 15 81  .<.........<....
12F0: 02 80 01 FA 12 03 01 10  00 80 1B                 ...........     
```

#### Opcodes

```
  0: 0x0001 [0x03] Work_Zone[1] = 1073741824*
  1: 0x0006 [0x20] SET_CLI_EVENT_UC_FLAG: Lock player control
  2: 0x0008 [0x1E] EventEntity looks at LocalPlayer and starts talking
  3: 0x000D [0x6F] WAIT_FRAME_DELAY: Yield until WaitTime reaches zero
  4: 0x000E [0x70] WAIT_ENTITY_RENDER_FLAG: Wait while EventEntity->Render.Flags3 bit 2 is set (cancel turn if not)
  5: 0x000F [0x03] ExtData[1]->WorkLocal[4] = Work_Zone[2]
  6: 0x0014 [0x03] ExtData[1]->WorkLocal[5] = Work_Zone[3]
  7: 0x0019 [0x03] ExtData[1]->WorkLocal[8] = Work_Zone[4]
  8: 0x001E [0x3E] IF !(Work_Zone[5] bit 0*) GOTO 0x0028
  9: 0x0025 [0x05] ExtData[1]->WorkLocal[30] = 1
 10: 0x0028 [0x3E] IF !(Work_Zone[5] bit 1*) GOTO 0x0032
 11: 0x002F [0x05] ExtData[1]->WorkLocal[32] = 1
 12: 0x0032 [0x03] ExtData[1]->WorkLocal[18] = Work_Zone[6]
 13: 0x0037 [0x03] ExtData[1]->WorkLocal[19] = Work_Zone[7]
 14: 0x003C [0x03] ExtData[1]->WorkLocal[29] = Work_Zone[8]
 15: 0x0041 [0x03] ExtData[1]->WorkLocal[9] = Work_Zone[9]
 16: 0x0046 [0x06] ExtData[1]->WorkLocal[0] = 0
 17: 0x0049 [0x3E] IF !(ExtData[1]->WorkLocal[29] bit 6*) GOTO 0x0057
 18: 0x0050 [0x3C] SET_BIT_FLAG_CONDITIONAL(target_work_offset=ExtData[1]->WorkLocal[0], bit_index_work_offset=0*, condition_work_offset=1*)
 19: 0x0057 [0x06] ExtData[1]->WorkLocal[1] = 0
 20: 0x005A [0x3E] IF !(ExtData[1]->WorkLocal[29] bit 2*) GOTO 0x0064
 21: 0x0061 [0x05] ExtData[1]->WorkLocal[1] = 1
 22: 0x0064 [0x3E] IF !(ExtData[1]->WorkLocal[29] bit 3*) GOTO 0x006E
 23: 0x006B [0x05] ExtData[1]->WorkLocal[1] = 1
 24: 0x006E [0x02] IF !(ExtData[1]->WorkLocal[1] == 0*) GOTO 0x007D
 25: 0x0076 [0x3C] SET_BIT_FLAG_CONDITIONAL(target_work_offset=ExtData[1]->WorkLocal[0], bit_index_work_offset=1*, condition_work_offset=1*)
 26: 0x007D [0x3E] IF !(ExtData[1]->WorkLocal[29] bit 0*) GOTO 0x008E
 27: 0x0084 [0x3C] SET_BIT_FLAG_CONDITIONAL(target_work_offset=ExtData[1]->WorkLocal[0], bit_index_work_offset=1*, condition_work_offset=1*)
 28: 0x008B [0x01] GOTO 0x00A3
 29: 0x008E [0x3C] SET_BIT_FLAG_CONDITIONAL(target_work_offset=ExtData[1]->WorkLocal[0], bit_index_work_offset=2*, condition_work_offset=1*)
 30: 0x0095 [0x3C] SET_BIT_FLAG_CONDITIONAL(target_work_offset=ExtData[1]->WorkLocal[0], bit_index_work_offset=3*, condition_work_offset=1*)
 31: 0x009C [0x3C] SET_BIT_FLAG_CONDITIONAL(target_work_offset=ExtData[1]->WorkLocal[0], bit_index_work_offset=5*, condition_work_offset=1*)

SUBROUTINE_00A3:
 32: 0x00A3 [0x3C] SET_BIT_FLAG_CONDITIONAL(target_work_offset=ExtData[1]->WorkLocal[0], bit_index_work_offset=1*, condition_work_offset=1*)
 33: 0x00AA [0x3C] SET_BIT_FLAG_CONDITIONAL(target_work_offset=ExtData[1]->WorkLocal[0], bit_index_work_offset=2*, condition_work_offset=1*)
 34: 0x00B1 [0x03] Work_Zone[2] = ExtData[1]->WorkLocal[19]
 35: 0x00B6 [0x03] Work_Zone[3] = ExtData[1]->WorkLocal[4]
 36: 0x00BB [0x1D] PRINT_EVENT_MESSAGE(message_id=11952*)
     "I have been dispatched by the IRNC to handle all affairs dealing with Ballista Points and Ballista Point Ranking. My records show that you scored $0 Ballista [Point/Points] in your previous match, bringing your cumulative total to $1."
 37: 0x00BE [0x23] WAIT_FOR_DIALOG_INTERACTION
 38: 0x00BF [0x02] IF !(ExtData[1]->WorkLocal[4] < 2000*) GOTO 0x00D0
 39: 0x00C7 [0x03] Work_Zone[2] = 2000*
 40: 0x00CC [0x1D] PRINT_EVENT_MESSAGE(message_id=11953*)
     "You have obtained the maximum number of Ballista Points ($0). Please note that you cannot earn any more until you have used the ones you possess."
 41: 0x00CF [0x23] WAIT_FOR_DIALOG_INTERACTION

SUBROUTINE_00D0:
 42: 0x00D0 [0x24] CREATE_DIALOG(message_id=11954*, default_option=0*, option_flags=ExtData[1]->WorkLocal[0])
     "What would you like to do? [Exchange points for items./View the previous match MVPs./Sign up for B.P. Ranking./View the B.P. Ranking./Learn more about Ballista Points./Learn more about ranking./Nothing at the moment.]"
 43: 0x00D7 [0x25] WAIT_DIALOG_SELECT()
 44: 0x00D8 [0x02] IF !(Work_Zone[0] == 0*) GOTO 0x04AA
 45: 0x00E0 [0x03] Work_Zone[2] = ExtData[1]->WorkLocal[4]
 46: 0x00E5 [0x03] Work_Zone[3] = ExtData[1]->WorkLocal[8]
 47: 0x00EA [0x03] Work_Zone[4] = 10*
 48: 0x00EF [0x02] IF !(ExtData[1]->WorkLocal[8] <= 0*) GOTO 0x00FE
 49: 0x00F7 [0x1D] PRINT_EVENT_MESSAGE(message_id=11955*)
     "You currently possess $0 Ballista [Point/Points] and $1 temporary item [voucher/vouchers]. Remember, you can carry a maximum of $2 [voucher/vouchers] at a time, but no more than one of each type."
 50: 0x00FA [0x23] WAIT_FOR_DIALOG_INTERACTION
 51: 0x00FB [0x01] GOTO 0x0102
 52: 0x00FE [0x1D] PRINT_EVENT_MESSAGE(message_id=11956*)
     "You currently possess $0 Ballista [Point/Points] and $1 temporary item [voucher/vouchers]. Remember, you can carry a maximum of $2 [voucher/vouchers] at a time, but no more than one of each type."
 53: 0x0101 [0x23] WAIT_FOR_DIALOG_INTERACTION

SUBROUTINE_0102:
 54: 0x0102 [0x06] ExtData[1]->WorkLocal[6] = 0
 55: 0x0105 [0x06] ExtData[1]->WorkLocal[7] = 0

SUBROUTINE_0108:
 56: 0x0108 [0x06] ExtData[1]->WorkLocal[0] = 0
 57: 0x010B [0x03] ExtData[1]->WorkLocal[3] = 1*

SUBROUTINE_0110:
 58: 0x0110 [0x02] IF !(ExtData[1]->WorkLocal[3] > 15*) GOTO 0x0273
 59: 0x0118 [0x03] ExtData[1]->WorkLocal[34] = ExtData[1]->WorkLocal[6]
 60: 0x011D [0x1A] CALL_SUBROUTINE(address=0x06F5)
 61: 0x0120 [0x02] IF !(ExtData[1]->WorkLocal[3] == 1*) GOTO 0x0135
 62: 0x0128 [0x03] Work_Zone[2] = ExtData[1]->WorkLocal[37]
 63: 0x012D [0x03] Work_Zone[3] = ExtData[1]->WorkLocal[36]
 64: 0x0132 [0x01] GOTO 0x025B
 65: 0x0135 [0x02] IF !(ExtData[1]->WorkLocal[3] == 2*) GOTO 0x014A
 66: 0x013D [0x03] Work_Zone[4] = ExtData[1]->WorkLocal[37]
 67: 0x0142 [0x03] Work_Zone[5] = ExtData[1]->WorkLocal[36]
 68: 0x0147 [0x01] GOTO 0x025B
 69: 0x014A [0x02] IF !(ExtData[1]->WorkLocal[3] == 3*) GOTO 0x015F
 70: 0x0152 [0x03] Work_Zone[6] = ExtData[1]->WorkLocal[37]
 71: 0x0157 [0x03] Work_Zone[7] = ExtData[1]->WorkLocal[36]
 72: 0x015C [0x01] GOTO 0x025B
 73: 0x015F [0x02] IF !(ExtData[1]->WorkLocal[3] == 4*) GOTO 0x0174
 74: 0x0167 [0x03] Work_Zone[8] = ExtData[1]->WorkLocal[37]
 75: 0x016C [0x03] Work_Zone[9] = ExtData[1]->WorkLocal[36]
 76: 0x0171 [0x01] GOTO 0x025B
 77: 0x0174 [0x02] IF !(ExtData[1]->WorkLocal[3] == 5*) GOTO 0x0189
 78: 0x017C [0x03] Work_Zone_1700[0] = ExtData[1]->WorkLocal[37]
 79: 0x0181 [0x03] Work_Zone_1700[1] = ExtData[1]->WorkLocal[36]
 80: 0x0186 [0x01] GOTO 0x025B
 81: 0x0189 [0x02] IF !(ExtData[1]->WorkLocal[3] == 6*) GOTO 0x019E
 82: 0x0191 [0x03] Work_Zone_1700[2] = ExtData[1]->WorkLocal[37]
 83: 0x0196 [0x03] Work_Zone_1700[3] = ExtData[1]->WorkLocal[36]
 84: 0x019B [0x01] GOTO 0x025B
 85: 0x019E [0x02] IF !(ExtData[1]->WorkLocal[3] == 7*) GOTO 0x01B3
 86: 0x01A6 [0x03] Work_Zone_1700[4] = ExtData[1]->WorkLocal[37]
 87: 0x01AB [0x03] Work_Zone_1700[5] = ExtData[1]->WorkLocal[36]
 88: 0x01B0 [0x01] GOTO 0x025B
 89: 0x01B3 [0x02] IF !(ExtData[1]->WorkLocal[3] == 8*) GOTO 0x01C8
 90: 0x01BB [0x03] Work_Zone_1700[6] = ExtData[1]->WorkLocal[37]
 91: 0x01C0 [0x03] Work_Zone_1700[7] = ExtData[1]->WorkLocal[36]
 92: 0x01C5 [0x01] GOTO 0x025B
 93: 0x01C8 [0x02] IF !(ExtData[1]->WorkLocal[3] == 9*) GOTO 0x01DD
 94: 0x01D0 [0x03] Work_Zone_1700[8] = ExtData[1]->WorkLocal[37]
 95: 0x01D5 [0x03] Work_Zone_1700[9] = ExtData[1]->WorkLocal[36]
 96: 0x01DA [0x01] GOTO 0x025B
 97: 0x01DD [0x02] IF !(ExtData[1]->WorkLocal[3] == 10*) GOTO 0x01F2
 98: 0x01E5 [0x03] Work_Zone_1700[10] = ExtData[1]->WorkLocal[37]
 99: 0x01EA [0x03] Work_Zone_1700[11] = ExtData[1]->WorkLocal[36]
100: 0x01EF [0x01] GOTO 0x025B
101: 0x01F2 [0x02] IF !(ExtData[1]->WorkLocal[3] == 11*) GOTO 0x0207
102: 0x01FA [0x03] Work_Zone_1700[12] = ExtData[1]->WorkLocal[37]
103: 0x01FF [0x03] Work_Zone_1700[13] = ExtData[1]->WorkLocal[36]
104: 0x0204 [0x01] GOTO 0x025B
105: 0x0207 [0x02] IF !(ExtData[1]->WorkLocal[3] == 12*) GOTO 0x021C
106: 0x020F [0x03] Work_Zone_1700[14] = ExtData[1]->WorkLocal[37]
107: 0x0214 [0x03] Work_Zone_1700[15] = ExtData[1]->WorkLocal[36]
108: 0x0219 [0x01] GOTO 0x025B
109: 0x021C [0x02] IF !(ExtData[1]->WorkLocal[3] == 13*) GOTO 0x0231
110: 0x0224 [0x03] Work_Zone_1700[16] = ExtData[1]->WorkLocal[37]
111: 0x0229 [0x03] Work_Zone_1700[17] = ExtData[1]->WorkLocal[36]
112: 0x022E [0x01] GOTO 0x025B
113: 0x0231 [0x02] IF !(ExtData[1]->WorkLocal[3] == 14*) GOTO 0x0246
114: 0x0239 [0x03] Work_Zone_1700[18] = ExtData[1]->WorkLocal[37]
115: 0x023E [0x03] Work_Zone_1700[19] = ExtData[1]->WorkLocal[36]
116: 0x0243 [0x01] GOTO 0x025B
117: 0x0246 [0x02] IF !(ExtData[1]->WorkLocal[3] == 15*) GOTO 0x025B
118: 0x024E [0x03] Work_Zone_1700[20] = ExtData[1]->WorkLocal[37]
119: 0x0253 [0x03] Work_Zone_1700[21] = ExtData[1]->WorkLocal[36]
120: 0x0258 [0x01] GOTO 0x025B

SUBROUTINE_025B:
121: 0x025B [0x02] IF !(ExtData[1]->WorkLocal[35] == 0*) GOTO 0x026A
122: 0x0263 [0x3C] SET_BIT_FLAG_CONDITIONAL(target_work_offset=ExtData[1]->WorkLocal[0], bit_index_work_offset=ExtData[1]->WorkLocal[3], condition_work_offset=1*)
123: 0x026A [0x0B] ExtData[1]->WorkLocal[3]++
124: 0x026D [0x0B] ExtData[1]->WorkLocal[6]++
125: 0x0270 [0x01] GOTO 0x0110
126: 0x0273 [0x03] ExtData[1]->WorkLocal[34] = ExtData[1]->WorkLocal[6]
127: 0x0278 [0x08] ExtData[1]->WorkLocal[34] -= 16*
128: 0x027D [0x1A] CALL_SUBROUTINE(address=0x06F5)
129: 0x0280 [0x02] IF !(ExtData[1]->WorkLocal[35] == 0*) GOTO 0x028F
130: 0x0288 [0x3C] SET_BIT_FLAG_CONDITIONAL(target_work_offset=ExtData[1]->WorkLocal[0], bit_index_work_offset=0*, condition_work_offset=1*)
131: 0x028F [0x03] ExtData[1]->WorkLocal[34] = ExtData[1]->WorkLocal[6]
132: 0x0294 [0x1A] CALL_SUBROUTINE(address=0x06F5)
133: 0x0297 [0x02] IF !(ExtData[1]->WorkLocal[35] == 0*) GOTO 0x02A6
134: 0x029F [0x3C] SET_BIT_FLAG_CONDITIONAL(target_work_offset=ExtData[1]->WorkLocal[0], bit_index_work_offset=16*, condition_work_offset=1*)
135: 0x02A6 [0x24] CREATE_DIALOG(message_id=11957*, default_option=ExtData[1]->WorkLocal[7], option_flags=ExtData[1]->WorkLocal[0])
     "Exchange points for... [Previous page./6 ($1 [pt./pts.])/$6 ($3 [pt./pts.])/$6 ($5 [pt./pts.])/$6 ($7 [pt./pts.])/$6 ($9 [pt./pts.])/$6 ($11 [pt./pts.])/$6 ($13 [pt./pts.])/$6 ($15 [pt./pts.])/$6 ($17 [pt./pts.])/$6 ($19 [pt./pts.])/$6 ($21 [pt./pts.])/$6 ($23 [pt./pts.])/$6 ($25 [pt./pts.])/$6 ($27 [pt./pts.])/$6 ($29 [pt./pts.])/Next page./Nothing.]"
136: 0x02AD [0x25] WAIT_DIALOG_SELECT()
137: 0x02AE [0x02] IF !(Work_Zone[0] == 0*) GOTO 0x02C4
138: 0x02B6 [0x06] ExtData[1]->WorkLocal[7] = 0
139: 0x02B9 [0x08] ExtData[1]->WorkLocal[6] -= 30*
140: 0x02BE [0x01] GOTO 0x0108

SUBROUTINE_03D0:
141: 0x03D0 [0x03] ExtData[1]->WorkLocal[34] = ExtData[1]->WorkLocal[6]
142: 0x03D5 [0x08] ExtData[1]->WorkLocal[34] -= 16*
143: 0x03DA [0x07] ExtData[1]->WorkLocal[34] += Work_Zone[0]
144: 0x03DF [0x1A] CALL_SUBROUTINE(address=0x06F5)
145: 0x03E2 [0x93] DISPLAY_ITEM_INFO(item_id=ExtData[1]->WorkLocal[35])
146: 0x03E5 [0x02] IF !(ExtData[1]->WorkLocal[35] == 4206*) GOTO 0x0416
147: 0x03ED [0x03] Work_Zone[1] = 4294967293*
148: 0x03F2 [0x43] SEND_EVENT_UPDATE: Send pending tag to server (packet 0x005B)
149: 0x03F4 [0x43] SEND_EVENT_UPDATE: Check pending flag (skip if not pending)
150: 0x03F6 [0x03] Work_Zone[1] = 1073741824*
151: 0x03FB [0x02] IF !(Work_Zone[9] == 0*) GOTO 0x0412
152: 0x0403 [0x1D] PRINT_EVENT_MESSAGE(message_id=11959*)
     "I am sorry. You have not earned the right to exchange your points for that item."
153: 0x0406 [0x23] WAIT_FOR_DIALOG_INTERACTION
154: 0x0407 [0x08] ExtData[1]->WorkLocal[6] -= 15*
155: 0x040C [0x01] GOTO 0x0108

SUBROUTINE_0416:
156: 0x0416 [0x03] Work_Zone[2] = ExtData[1]->WorkLocal[37]
157: 0x041B [0x03] Work_Zone[3] = ExtData[1]->WorkLocal[36]
158: 0x0420 [0x03] Work_Zone[4] = ExtData[1]->WorkLocal[35]
159: 0x0425 [0x02] IF !(ExtData[1]->WorkLocal[8] < 10*) GOTO 0x0439
160: 0x042D [0x03] Work_Zone[5] = 10*
161: 0x0432 [0x1D] PRINT_EVENT_MESSAGE(message_id=11965*)
     "Adventurers are only allowed to possess a maximum of $3 temporary item [voucher/vouchers]. I am sorry, but I cannot proceed with the transaction."
162: 0x0435 [0x23] WAIT_FOR_DIALOG_INTERACTION
163: 0x0436 [0x01] GOTO 0x04A7
164: 0x0439 [0x3E] IF !(ExtData[1]->WorkLocal[5] bit ExtData[1]->WorkLocal[34]) GOTO 0x044F
165: 0x0440 [0x1D] PRINT_EVENT_MESSAGE(message_id=11963*)
     "You already possess $6. Remember, you cannot hold more than one of each type of temporary item voucher."
166: 0x0443 [0x23] WAIT_FOR_DIALOG_INTERACTION
167: 0x0444 [0x08] ExtData[1]->WorkLocal[6] -= 15*
168: 0x0449 [0x01] GOTO 0x0108

SUBROUTINE_0495:
169: 0x0495 [0x01] GOTO 0x04A7
170: 0x0498 [0x1D] PRINT_EVENT_MESSAGE(message_id=11962*)
     "You do not have enough Ballista Points to purchase that item."
171: 0x049B [0x23] WAIT_FOR_DIALOG_INTERACTION
172: 0x049C [0x93] DISPLAY_ITEM_INFO(item_id=0*)
173: 0x049F [0x08] ExtData[1]->WorkLocal[6] -= 15*
174: 0x04A4 [0x01] GOTO 0x0108

SUBROUTINE_04A7:
175: 0x04A7 [0x01] GOTO 0x06F3
176: 0x04AA [0x02] IF !(Work_Zone[0] == 1*) GOTO 0x04B8
177: 0x04B2 [0x1A] CALL_SUBROUTINE(address=0x0E20)
178: 0x04B5 [0x01] GOTO 0x06F3
179: 0x04B8 [0x02] IF !(Work_Zone[0] == 2*) GOTO 0x0622
180: 0x04C0 [0x3E] IF !(ExtData[1]->WorkLocal[29] bit 1*) GOTO 0x060E
181: 0x04C7 [0x1A] CALL_SUBROUTINE(address=0x0E20)
182: 0x04CA [0x02] IF !(ExtData[1]->WorkLocal[19] == 0*) GOTO 0x04E5
183: 0x04D2 [0x1A] CALL_SUBROUTINE(address=0x0DDA)
184: 0x04D5 [0x03] Work_Zone[4] = ExtData[1]->WorkLocal[28]
185: 0x04DA [0x1D] PRINT_EVENT_MESSAGE(message_id=11975*)
     "You did not obtain any Ballista Points in the previous match; thus, I cannot register you."
186: 0x04DD [0x23] WAIT_FOR_DIALOG_INTERACTION
187: 0x04DE [0x1D] PRINT_EVENT_MESSAGE(message_id=11976*)
     "Please participate in a future match to qualify once again for Ballista Point Ranking. The next exercise is scheduled to take place [soon/in the Jugner Forest/in the Pashhow Marshlands/in the Meriphataud Mountains]."
188: 0x04E1 [0x23] WAIT_FOR_DIALOG_INTERACTION
189: 0x04E2 [0x01] GOTO 0x060B
190: 0x04E5 [0x02] IF !(ExtData[1]->WorkLocal[30] == 1*) GOTO 0x04F4
191: 0x04ED [0x1D] PRINT_EVENT_MESSAGE(message_id=11977*)
     "Your current job does not coincide with the data we have recorded for the previous match. You must return to your residence and change jobs before I can register you for Ballista Point Ranking."
192: 0x04F0 [0x23] WAIT_FOR_DIALOG_INTERACTION
193: 0x04F1 [0x01] GOTO 0x060B
194: 0x04F4 [0x03] Work_Zone[2] = ExtData[1]->WorkLocal[18]
195: 0x04F9 [0x03] Work_Zone[3] = ExtData[1]->WorkLocal[19]
196: 0x04FE [0x1A] CALL_SUBROUTINE(address=0x0DDA)
197: 0x0501 [0x03] Work_Zone[4] = ExtData[1]->WorkLocal[28]
198: 0x0506 [0x1D] PRINT_EVENT_MESSAGE(message_id=11978*)
     "According to the [/Jugner Forest/Pashhow Marshlands/Meriphataud Mountains] match records for , you earned $1 Ballista [Point/Points]."
199: 0x0509 [0x23] WAIT_FOR_DIALOG_INTERACTION
200: 0x050A [0x1D] PRINT_EVENT_MESSAGE(message_id=11979*)
     "Shall I register your statistics? (This may take a few moments.)"
201: 0x050D [0x23] WAIT_FOR_DIALOG_INTERACTION
202: 0x050E [0x24] CREATE_DIALOG(message_id=11980*, default_option=1*, option_flags=0*)
     "Register? [Yes./No.]"
203: 0x0515 [0x25] WAIT_DIALOG_SELECT()
204: 0x0516 [0x02] IF !(Work_Zone[0] == 0*) GOTO 0x060B
205: 0x051E [0x1A] CALL_SUBROUTINE(address=0x0DDA)
206: 0x0521 [0x03] Work_Zone[1] = 4294967291*
207: 0x0526 [0x43] SEND_EVENT_UPDATE: Send pending tag to server (packet 0x005B)
208: 0x0528 [0x43] SEND_EVENT_UPDATE: Check pending flag (skip if not pending)
209: 0x052A [0x03] Work_Zone[1] = 1073741824*
210: 0x052F [0x02] IF !(Work_Zone[2] == 0*) GOTO 0x0542
211: 0x0537 [0x1D] PRINT_EVENT_MESSAGE(message_id=12021*)
     "I am sorry, but we are no longer accepting Ballista Point Ranking registrations for the match in which you previously participated."
212: 0x053A [0x23] WAIT_FOR_DIALOG_INTERACTION
213: 0x053B [0x1D] PRINT_EVENT_MESSAGE(message_id=12022*)
     "For future reference, please note that the registration period is exactly four hours (Vana'diel time) from the close of each Ballista match."
214: 0x053E [0x23] WAIT_FOR_DIALOG_INTERACTION
215: 0x053F [0x01] GOTO 0x0608
216: 0x0542 [0x42] SET_CLI_EVENT_CANCEL_DATA()
217: 0x0543 [0xB3] RANKINGS_BOARD_HANDLER(case_type=0x03)
218: 0x0545 [0x1C] WAIT(0xB300 ticks)
219: 0x0548 [0x05] ExtData[1]->WorkLocal[26] = 1
220: 0x054B [0x16] 0x1500 = sin(Work_Zone_1700[0]) * 0x1900
221: 0x0552 [0x00] END_REQSTACK()

SUBROUTINE_0608:
222: 0x0608 [0x01] GOTO 0x060B

SUBROUTINE_060B:
223: 0x060B [0x01] GOTO 0x061A
224: 0x060E [0x1A] CALL_SUBROUTINE(address=0x0DDA)
225: 0x0611 [0x03] Work_Zone[4] = ExtData[1]->WorkLocal[28]
226: 0x0616 [0x1D] PRINT_EVENT_MESSAGE(message_id=11974*)
     "Ballista Point Ranking registration [/for the Jugner Forest match/for the Pashhow Marshlands match/for the Meriphataud Mountains match] has concluded. Please do not forget to register your Ballista Points immediately after each match to avoid any confusion."
227: 0x0619 [0x23] WAIT_FOR_DIALOG_INTERACTION

SUBROUTINE_061A:
228: 0x061A [0x03] Work_Zone[1] = 1073741824*
229: 0x061F [0x01] GOTO 0x06F3
230: 0x0622 [0x02] IF !(Work_Zone[0] == 3*) GOTO 0x06C1
231: 0x062A [0x03] Work_Zone[1] = 4294967293*
232: 0x062F [0x43] SEND_EVENT_UPDATE: Send pending tag to server (packet 0x005B)
233: 0x0631 [0x43] SEND_EVENT_UPDATE: Check pending flag (skip if not pending)
234: 0x0633 [0x03] Work_Zone[1] = 1073741824*
235: 0x0638 [0x03] ExtData[1]->WorkLocal[31] = Work_Zone[2]
236: 0x063D [0x03] ExtData[1]->WorkLocal[33] = Work_Zone[9]
237: 0x0642 [0x07] Work_Zone[8] += 622080*
238: 0x0647 [0x03] Work_Zone_1700[0] = 682*
239: 0x064C [0x03] Work_Zone_1700[1] = 683*
240: 0x0651 [0x03] Work_Zone_1700[2] = 684*
241: 0x0656 [0x03] Work_Zone_1700[3] = 685*
242: 0x065B [0x02] IF !(ExtData[1]->WorkLocal[33] == 0*) GOTO 0x0667
243: 0x0663 [0x1D] PRINT_EVENT_MESSAGE(message_id=11992*)
     "You currently possess $6. Ballista regulations allow you to wear that chevron until (Vana'diel), or (Earth)."
244: 0x0666 [0x23] WAIT_FOR_DIALOG_INTERACTION
245: 0x0667 [0x1D] PRINT_EVENT_MESSAGE(message_id=11993*)
     "Our records show that you have previously been presented the following rewards: Gold chevron: $1 [time/times] Mythril chevron: $2 [time/times] Silver chevron: $3 [time/times] Bronze chevron: $4 [time/times] Job-specific chevron: $5 [time/times]"
246: 0x066A [0x23] WAIT_FOR_DIALOG_INTERACTION
247: 0x066B [0x1A] CALL_SUBROUTINE(address=0x0DDA)
248: 0x066E [0x1D] PRINT_EVENT_MESSAGE(message_id=11994*)
     "The ranking information given by Marshals in Jeuno may be slightly older than the current data. For the most up-to-date numbers, we suggest that you speak with the officials stationed in each partcipating Ballista area."
249: 0x0671 [0x23] WAIT_FOR_DIALOG_INTERACTION
250: 0x0672 [0x24] CREATE_DIALOG(message_id=11981*, default_option=0*, option_flags=0*)
     "Which ranking do you wish to view? [Jugner Forest./Pashhow Marshlands./Meriphataud Mountains./None of the above.]"
251: 0x0679 [0x25] WAIT_DIALOG_SELECT()
252: 0x067A [0x02] IF !(Work_Zone[0] == 3*) GOTO 0x0685
253: 0x0682 [0x01] GOTO 0x06B9
254: 0x0685 [0x0B] Work_Zone[0]++
255: 0x0688 [0x03] ExtData[1]->WorkLocal[28] = Work_Zone[0]
256: 0x068D [0xB3] RANKINGS_BOARD_HANDLER(case_type=0x00)
257: 0x068F [0x1C] WAIT(0xB300 ticks)
258: 0x0692 [0x01] GOTO 0x001A

SUBROUTINE_06F3:
259: 0x06F3 [0x21] END_EVENT
260: 0x06F4 [0x00] END_REQSTACK()

SUBROUTINE_06F5:
261: 0x06F5 [0x02] IF !(ExtData[1]->WorkLocal[34] == 0*) GOTO 0x070F
262: 0x06FD [0x03] ExtData[1]->WorkLocal[35] = 4112*
263: 0x0702 [0x03] ExtData[1]->WorkLocal[37] = 635*
264: 0x0707 [0x03] ExtData[1]->WorkLocal[36] = 15*
265: 0x070C [0x01] GOTO 0x095A
266: 0x070F [0x02] IF !(ExtData[1]->WorkLocal[34] == 1*) GOTO 0x0729
267: 0x0717 [0x03] ExtData[1]->WorkLocal[35] = 4116*
268: 0x071C [0x03] ExtData[1]->WorkLocal[37] = 636*
269: 0x0721 [0x03] ExtData[1]->WorkLocal[36] = 45*
270: 0x0726 [0x01] GOTO 0x095A
271: 0x0729 [0x02] IF !(ExtData[1]->WorkLocal[34] == 2*) GOTO 0x0743
272: 0x0731 [0x03] ExtData[1]->WorkLocal[35] = 4120*
273: 0x0736 [0x03] ExtData[1]->WorkLocal[37] = 637*
274: 0x073B [0x03] ExtData[1]->WorkLocal[36] = 90*
275: 0x0740 [0x01] GOTO 0x095A
276: 0x0743 [0x02] IF !(ExtData[1]->WorkLocal[34] == 3*) GOTO 0x075D
277: 0x074B [0x03] ExtData[1]->WorkLocal[35] = 4128*
278: 0x0750 [0x03] ExtData[1]->WorkLocal[37] = 638*
279: 0x0755 [0x03] ExtData[1]->WorkLocal[36] = 20*
280: 0x075A [0x01] GOTO 0x095A
281: 0x075D [0x02] IF !(ExtData[1]->WorkLocal[34] == 4*) GOTO 0x0777
282: 0x0765 [0x03] ExtData[1]->WorkLocal[35] = 4132*
283: 0x076A [0x03] ExtData[1]->WorkLocal[37] = 639*
284: 0x076F [0x03] ExtData[1]->WorkLocal[36] = 60*
285: 0x0774 [0x01] GOTO 0x095A
286: 0x0777 [0x02] IF !(ExtData[1]->WorkLocal[34] == 5*) GOTO 0x0791
287: 0x077F [0x03] ExtData[1]->WorkLocal[35] = 4136*
288: 0x0784 [0x03] ExtData[1]->WorkLocal[37] = 640*
289: 0x0789 [0x03] ExtData[1]->WorkLocal[36] = 120*
290: 0x078E [0x01] GOTO 0x095A
291: 0x0791 [0x02] IF !(ExtData[1]->WorkLocal[34] == 6*) GOTO 0x07AB
292: 0x0799 [0x03] ExtData[1]->WorkLocal[35] = 4145*
293: 0x079E [0x03] ExtData[1]->WorkLocal[37] = 641*
294: 0x07A3 [0x03] ExtData[1]->WorkLocal[36] = 200*
295: 0x07A8 [0x01] GOTO 0x095A
296: 0x07AB [0x02] IF !(ExtData[1]->WorkLocal[34] == 7*) GOTO 0x07C5
297: 0x07B3 [0x03] ExtData[1]->WorkLocal[35] = 4146*
298: 0x07B8 [0x03] ExtData[1]->WorkLocal[37] = 642*
299: 0x07BD [0x03] ExtData[1]->WorkLocal[36] = 700*
300: 0x07C2 [0x01] GOTO 0x095A
301: 0x07C5 [0x02] IF !(ExtData[1]->WorkLocal[34] == 8*) GOTO 0x07DF
302: 0x07CD [0x03] ExtData[1]->WorkLocal[35] = 4147*
303: 0x07D2 [0x03] ExtData[1]->WorkLocal[37] = 643*
304: 0x07D7 [0x03] ExtData[1]->WorkLocal[36] = 300*
305: 0x07DC [0x01] GOTO 0x095A
306: 0x07DF [0x02] IF !(ExtData[1]->WorkLocal[34] == 9*) GOTO 0x07F9
307: 0x07E7 [0x03] ExtData[1]->WorkLocal[35] = 4200*
308: 0x07EC [0x03] ExtData[1]->WorkLocal[37] = 644*
309: 0x07F1 [0x03] ExtData[1]->WorkLocal[36] = 300*
310: 0x07F6 [0x01] GOTO 0x095A
311: 0x07F9 [0x02] IF !(ExtData[1]->WorkLocal[34] == 10*) GOTO 0x0813
312: 0x0801 [0x03] ExtData[1]->WorkLocal[35] = 5246*
313: 0x0806 [0x03] ExtData[1]->WorkLocal[37] = 645*
314: 0x080B [0x03] ExtData[1]->WorkLocal[36] = 30*
315: 0x0810 [0x01] GOTO 0x095A
316: 0x0813 [0x02] IF !(ExtData[1]->WorkLocal[34] == 11*) GOTO 0x082D
317: 0x081B [0x03] ExtData[1]->WorkLocal[35] = 5247*
318: 0x0820 [0x03] ExtData[1]->WorkLocal[37] = 646*
319: 0x0825 [0x03] ExtData[1]->WorkLocal[36] = 50*
320: 0x082A [0x01] GOTO 0x095A
321: 0x082D [0x02] IF !(ExtData[1]->WorkLocal[34] == 12*) GOTO 0x0847
322: 0x0835 [0x03] ExtData[1]->WorkLocal[35] = 5248*
323: 0x083A [0x03] ExtData[1]->WorkLocal[37] = 647*
324: 0x083F [0x03] ExtData[1]->WorkLocal[36] = 50*
325: 0x0844 [0x01] GOTO 0x095A
326: 0x0847 [0x02] IF !(ExtData[1]->WorkLocal[34] == 13*) GOTO 0x0861
327: 0x084F [0x03] ExtData[1]->WorkLocal[35] = 5249*
328: 0x0854 [0x03] ExtData[1]->WorkLocal[37] = 648*
329: 0x0859 [0x03] ExtData[1]->WorkLocal[36] = 50*
330: 0x085E [0x01] GOTO 0x095A
331: 0x0861 [0x02] IF !(ExtData[1]->WorkLocal[34] == 14*) GOTO 0x087B
332: 0x0869 [0x03] ExtData[1]->WorkLocal[35] = 5250*
333: 0x086E [0x03] ExtData[1]->WorkLocal[37] = 649*
334: 0x0873 [0x03] ExtData[1]->WorkLocal[36] = 50*
335: 0x0878 [0x01] GOTO 0x095A
336: 0x087B [0x02] IF !(ExtData[1]->WorkLocal[34] == 15*) GOTO 0x0895
337: 0x0883 [0x03] ExtData[1]->WorkLocal[35] = 5251*
338: 0x0888 [0x03] ExtData[1]->WorkLocal[37] = 650*
339: 0x088D [0x03] ExtData[1]->WorkLocal[36] = 50*
340: 0x0892 [0x01] GOTO 0x095A
341: 0x0895 [0x02] IF !(ExtData[1]->WorkLocal[34] == 16*) GOTO 0x08AF
342: 0x089D [0x03] ExtData[1]->WorkLocal[35] = 5252*
343: 0x08A2 [0x03] ExtData[1]->WorkLocal[37] = 651*
344: 0x08A7 [0x03] ExtData[1]->WorkLocal[36] = 50*
345: 0x08AC [0x01] GOTO 0x095A
346: 0x08AF [0x02] IF !(ExtData[1]->WorkLocal[34] == 17*) GOTO 0x08C9
347: 0x08B7 [0x03] ExtData[1]->WorkLocal[35] = 4204*
348: 0x08BC [0x03] ExtData[1]->WorkLocal[37] = 702*
349: 0x08C1 [0x03] ExtData[1]->WorkLocal[36] = 30*
350: 0x08C6 [0x01] GOTO 0x095A
351: 0x08C9 [0x02] IF !(ExtData[1]->WorkLocal[34] == 18*) GOTO 0x08E3
352: 0x08D1 [0x03] ExtData[1]->WorkLocal[35] = 4155*
353: 0x08D6 [0x03] ExtData[1]->WorkLocal[37] = 729*
354: 0x08DB [0x03] ExtData[1]->WorkLocal[36] = 100*
355: 0x08E0 [0x01] GOTO 0x095A
356: 0x08E3 [0x02] IF !(ExtData[1]->WorkLocal[34] == 19*) GOTO 0x08FD
357: 0x08EB [0x03] ExtData[1]->WorkLocal[35] = 4149*
358: 0x08F0 [0x03] ExtData[1]->WorkLocal[37] = 730*
359: 0x08F5 [0x03] ExtData[1]->WorkLocal[36] = 200*
360: 0x08FA [0x01] GOTO 0x095A
361: 0x08FD [0x02] IF !(ExtData[1]->WorkLocal[34] == 20*) GOTO 0x0917
362: 0x0905 [0x03] ExtData[1]->WorkLocal[35] = 5320*
363: 0x090A [0x03] ExtData[1]->WorkLocal[37] = 731*
364: 0x090F [0x03] ExtData[1]->WorkLocal[36] = 75*
365: 0x0914 [0x01] GOTO 0x095A
366: 0x0917 [0x02] IF !(ExtData[1]->WorkLocal[34] == 21*) GOTO 0x0931
367: 0x091F [0x03] ExtData[1]->WorkLocal[35] = 5322*
368: 0x0924 [0x03] ExtData[1]->WorkLocal[37] = 757*
369: 0x0929 [0x03] ExtData[1]->WorkLocal[36] = 100*
370: 0x092E [0x01] GOTO 0x095A
371: 0x0931 [0x02] IF !(ExtData[1]->WorkLocal[34] == 22*) GOTO 0x094B
372: 0x0939 [0x03] ExtData[1]->WorkLocal[35] = 4206*
373: 0x093E [0x03] ExtData[1]->WorkLocal[37] = 703*
374: 0x0943 [0x03] ExtData[1]->WorkLocal[36] = 100*
375: 0x0948 [0x01] GOTO 0x095A
376: 0x094B [0x03] ExtData[1]->WorkLocal[35] = 0*
377: 0x0950 [0x03] ExtData[1]->WorkLocal[36] = 0*
378: 0x0955 [0x03] ExtData[1]->WorkLocal[37] = 0*

SUBROUTINE_095A:
379: 0x095A [0x1B] RETURN

SUBROUTINE_0B3F:
380: 0x0B3F [0x03] Work_Zone[2] = 2000*
381: 0x0B44 [0x48] [System] [12066*]:
     "Ballista Points are rewarded to each competitor based on his or her performance in a single Ballista match. The maximum number of points that can be accumulated per match is $0."
382: 0x0B47 [0x23] WAIT_FOR_DIALOG_INTERACTION
383: 0x0B48 [0x48] [System] [12067*]:
     "While it is taken into consideration, scoring Petras is not the only way to earn Ballista Points. Assisting allies and defeating members of the enemy forces can also earn a high score."
384: 0x0B4B [0x23] WAIT_FOR_DIALOG_INTERACTION
385: 0x0B4C [0x48] [System] [12068*]:
     "Ballista Points can be traded for special "vouchers," which may be exchanged for free temporary items at the start of new matches."
386: 0x0B4F [0x23] WAIT_FOR_DIALOG_INTERACTION
387: 0x0B50 [0x48] [System] [12069*]:
     "However, remember that depending on the level restriction of the match, certain vouchers will not be redeemed at the beginning of a match. Speak with a Marshal directly after a match to register your points."
388: 0x0B53 [0x23] WAIT_FOR_DIALOG_INTERACTION
389: 0x0B54 [0x1B] RETURN

SUBROUTINE_0B55:
390: 0x0B55 [0x24] CREATE_DIALOG(message_id=12079*, default_option=ExtData[1]->WorkLocal[39], option_flags=0*)
     "Read which chapter on B.P. Ranking? [Basic Information./Registering Points./Rewards./Chevron & Title List./None.]"
391: 0x0B5C [0x25] WAIT_DIALOG_SELECT()
392: 0x0B5D [0x03] ExtData[1]->WorkLocal[39] = Work_Zone[0]
393: 0x0B62 [0x02] IF !(Work_Zone[0] == 0*) GOTO 0x0B74
394: 0x0B6A [0x48] [System] [12080*]:
     "Ballista Point Ranking is based upon all Ballista Points registered from the past ten matches in each of the three participating battle areas."
395: 0x0B6D [0x23] WAIT_FOR_DIALOG_INTERACTION
396: 0x0B6E [0x01] GOTO 0x0B55

SUBROUTINE_0BBB:
397: 0x0BBB [0x24] CREATE_DIALOG(message_id=12089*, default_option=ExtData[1]->WorkLocal[40], option_flags=0*)
     "View which chevron/title? [1st (overall)./2nd (overall)./3rd (overall)./4th-10th (overall)./1st (warrior)./1st (monk)./1st (white mage)./1st (black mage)./1st (red mage)./1st (thief)./1st (paladin)./1st (dark knight)./1st (beastmaster)./1st (bard)./1st (ranger)./1st (samurai)./1st (ninja)./1st (dragoon)./1st (summoner)./1st (blue mage)./1st (corsair)./1st (puppetmaster)./1st (dancer)./1st (scholar)./1st (geomancer)./1st (rune fencer)./Return.]"
398: 0x0BC2 [0x25] WAIT_DIALOG_SELECT()
399: 0x0BC3 [0x03] ExtData[1]->WorkLocal[40] = Work_Zone[0]
400: 0x0BC8 [0x02] IF !(Work_Zone[0] == 0*) GOTO 0x0BDC
401: 0x0BD0 [0x03] Work_Zone[2] = 682*
402: 0x0BD5 [0x48] [System] [12090*]:
     "Key Item: $3 Title: Gold Balli$25$25$25$25star"
403: 0x0BD8 [0x23] WAIT_FOR_DIALOG_INTERACTION
404: 0x0BD9 [0x01] GOTO 0x0DD3
405: 0x0BDC [0x02] IF !(Work_Zone[0] == 1*) GOTO 0x0BF0
406: 0x0BE4 [0x03] Work_Zone[2] = 683*
407: 0x0BE9 [0x48] [System] [12091*]:
     "Key Item: $3 Title: Mythril Balli$25$25$25star"
408: 0x0BEC [0x23] WAIT_FOR_DIALOG_INTERACTION
409: 0x0BED [0x01] GOTO 0x0DD3
410: 0x0BF0 [0x02] IF !(Work_Zone[0] == 2*) GOTO 0x0C04
411: 0x0BF8 [0x03] Work_Zone[2] = 684*
412: 0x0BFD [0x48] [System] [12092*]:
     "Key Item: $3 Title: Silver Balli$25$25star"
413: 0x0C00 [0x23] WAIT_FOR_DIALOG_INTERACTION
414: 0x0C01 [0x01] GOTO 0x0DD3
415: 0x0C04 [0x02] IF !(Work_Zone[0] == 3*) GOTO 0x0C18
416: 0x0C0C [0x03] Work_Zone[2] = 685*
417: 0x0C11 [0x48] [System] [12093*]:
     "Key Item: $3 Title: Bronze Balli$25star"
418: 0x0C14 [0x23] WAIT_FOR_DIALOG_INTERACTION
419: 0x0C15 [0x01] GOTO 0x0DD3
420: 0x0C18 [0x02] IF !(Work_Zone[0] == 4*) GOTO 0x0C2C
421: 0x0C20 [0x03] Work_Zone[2] = 686*
422: 0x0C25 [0x48] [System] [12094*]:
     "Key Item: $3 Title: Searing$26Star"
423: 0x0C28 [0x23] WAIT_FOR_DIALOG_INTERACTION
424: 0x0C29 [0x01] GOTO 0x0DD3
425: 0x0C2C [0x02] IF !(Work_Zone[0] == 5*) GOTO 0x0C40
426: 0x0C34 [0x03] Work_Zone[2] = 687*
427: 0x0C39 [0x48] [System] [12095*]:
     "Key Item: $3 Title: Striking$26Star"
428: 0x0C3C [0x23] WAIT_FOR_DIALOG_INTERACTION
429: 0x0C3D [0x01] GOTO 0x0DD3
430: 0x0C40 [0x02] IF !(Work_Zone[0] == 6*) GOTO 0x0C54
431: 0x0C48 [0x03] Work_Zone[2] = 688*
432: 0x0C4D [0x48] [System] [12096*]:
     "Key Item: $3 Title: Soothing$26Star"
433: 0x0C50 [0x23] WAIT_FOR_DIALOG_INTERACTION
434: 0x0C51 [0x01] GOTO 0x0DD3
435: 0x0C54 [0x02] IF !(Work_Zone[0] == 7*) GOTO 0x0C68
436: 0x0C5C [0x03] Work_Zone[2] = 689*
437: 0x0C61 [0x48] [System] [12097*]:
     "Key Item: $3 Title: Sable$26Star"
438: 0x0C64 [0x23] WAIT_FOR_DIALOG_INTERACTION
439: 0x0C65 [0x01] GOTO 0x0DD3
440: 0x0C68 [0x02] IF !(Work_Zone[0] == 8*) GOTO 0x0C7C
441: 0x0C70 [0x03] Work_Zone[2] = 690*
442: 0x0C75 [0x48] [System] [12098*]:
     "Key Item: $3 Title: Scarlet$26Star"
443: 0x0C78 [0x23] WAIT_FOR_DIALOG_INTERACTION
444: 0x0C79 [0x01] GOTO 0x0DD3
445: 0x0C7C [0x02] IF !(Work_Zone[0] == 9*) GOTO 0x0C90
446: 0x0C84 [0x03] Work_Zone[2] = 691*
447: 0x0C89 [0x48] [System] [12099*]:
     "Key Item: $3 Title: Sonic$26Star"
448: 0x0C8C [0x23] WAIT_FOR_DIALOG_INTERACTION
449: 0x0C8D [0x01] GOTO 0x0DD3
450: 0x0C90 [0x02] IF !(Work_Zone[0] == 10*) GOTO 0x0CA4
451: 0x0C98 [0x03] Work_Zone[2] = 692*
452: 0x0C9D [0x48] [System] [12100*]:
     "Key Item: $3 Title: Saintly$26Star"
453: 0x0CA0 [0x23] WAIT_FOR_DIALOG_INTERACTION
454: 0x0CA1 [0x01] GOTO 0x0DD3
455: 0x0CA4 [0x02] IF !(Work_Zone[0] == 11*) GOTO 0x0CB8
456: 0x0CAC [0x03] Work_Zone[2] = 693*
457: 0x0CB1 [0x48] [System] [12101*]:
     "Key Item: $3 Title: Shadowy$26Star"
458: 0x0CB4 [0x23] WAIT_FOR_DIALOG_INTERACTION
459: 0x0CB5 [0x01] GOTO 0x0DD3
460: 0x0CB8 [0x02] IF !(Work_Zone[0] == 12*) GOTO 0x0CCC
461: 0x0CC0 [0x03] Work_Zone[2] = 694*
462: 0x0CC5 [0x48] [System] [12102*]:
     "Key Item: $3 Title: Savage$26Star"
463: 0x0CC8 [0x23] WAIT_FOR_DIALOG_INTERACTION
464: 0x0CC9 [0x01] GOTO 0x0DD3
465: 0x0CCC [0x02] IF !(Work_Zone[0] == 13*) GOTO 0x0CE0
466: 0x0CD4 [0x03] Work_Zone[2] = 695*
467: 0x0CD9 [0x48] [System] [12103*]:
     "Key Item: $3 Title: Singing$26Star"
468: 0x0CDC [0x23] WAIT_FOR_DIALOG_INTERACTION
469: 0x0CDD [0x01] GOTO 0x0DD3
470: 0x0CE0 [0x02] IF !(Work_Zone[0] == 14*) GOTO 0x0CF4
471: 0x0CE8 [0x03] Work_Zone[2] = 696*
472: 0x0CED [0x48] [System] [12104*]:
     "Key Item: $3 Title: Sniping$26Star"
473: 0x0CF0 [0x23] WAIT_FOR_DIALOG_INTERACTION
474: 0x0CF1 [0x01] GOTO 0x0DD3
475: 0x0CF4 [0x02] IF !(Work_Zone[0] == 15*) GOTO 0x0D08
476: 0x0CFC [0x03] Work_Zone[2] = 697*
477: 0x0D01 [0x48] [System] [12105*]:
     "Key Item: $3 Title: Slicing$26Star"
478: 0x0D04 [0x23] WAIT_FOR_DIALOG_INTERACTION
479: 0x0D05 [0x01] GOTO 0x0DD3
480: 0x0D08 [0x02] IF !(Work_Zone[0] == 16*) GOTO 0x0D1C
481: 0x0D10 [0x03] Work_Zone[2] = 698*
482: 0x0D15 [0x48] [System] [12106*]:
     "Key Item: $3 Title: Sneaking$26Star"
483: 0x0D18 [0x23] WAIT_FOR_DIALOG_INTERACTION
484: 0x0D19 [0x01] GOTO 0x0DD3
485: 0x0D1C [0x02] IF !(Work_Zone[0] == 17*) GOTO 0x0D30
486: 0x0D24 [0x03] Work_Zone[2] = 699*
487: 0x0D29 [0x48] [System] [12107*]:
     "Key Item: $3 Title: Spearing$26Star"
488: 0x0D2C [0x23] WAIT_FOR_DIALOG_INTERACTION
489: 0x0D2D [0x01] GOTO 0x0DD3
490: 0x0D30 [0x02] IF !(Work_Zone[0] == 18*) GOTO 0x0D44
491: 0x0D38 [0x03] Work_Zone[2] = 700*
492: 0x0D3D [0x48] [System] [12108*]:
     "Key Item: $3 Title: Summoning$26Star"
493: 0x0D40 [0x23] WAIT_FOR_DIALOG_INTERACTION
494: 0x0D41 [0x01] GOTO 0x0DD3
495: 0x0D44 [0x02] IF !(Work_Zone[0] == 19*) GOTO 0x0D58
496: 0x0D4C [0x03] Work_Zone[2] = 777*
497: 0x0D51 [0x48] [System] [12109*]:
     "Key Item: $3 Title: Sapphire$26Star"
498: 0x0D54 [0x23] WAIT_FOR_DIALOG_INTERACTION
499: 0x0D55 [0x01] GOTO 0x0DD3
500: 0x0D58 [0x02] IF !(Work_Zone[0] == 20*) GOTO 0x0D6C
501: 0x0D60 [0x03] Work_Zone[2] = 778*
502: 0x0D65 [0x48] [System] [12110*]:
     "Key Item: $3 Title: Surging$26Star"
503: 0x0D68 [0x23] WAIT_FOR_DIALOG_INTERACTION
504: 0x0D69 [0x01] GOTO 0x0DD3
505: 0x0D6C [0x02] IF !(Work_Zone[0] == 21*) GOTO 0x0D80
506: 0x0D74 [0x03] Work_Zone[2] = 779*
507: 0x0D79 [0x48] [System] [12111*]:
     "Key Item: $3 Title: Swaying$26Star"
508: 0x0D7C [0x23] WAIT_FOR_DIALOG_INTERACTION
509: 0x0D7D [0x01] GOTO 0x0DD3
510: 0x0D80 [0x02] IF !(Work_Zone[0] == 22*) GOTO 0x0D94
511: 0x0D88 [0x03] Work_Zone[2] = 915*
512: 0x0D8D [0x48] [System] [12112*]:
     "Key Item: $3 Title: Sprightly$26Star"
513: 0x0D90 [0x23] WAIT_FOR_DIALOG_INTERACTION
514: 0x0D91 [0x01] GOTO 0x0DD3
515: 0x0D94 [0x02] IF !(Work_Zone[0] == 23*) GOTO 0x0DA8
516: 0x0D9C [0x03] Work_Zone[2] = 916*
517: 0x0DA1 [0x48] [System] [12113*]:
     "Key Item: $3 Title: Sagacious$26Star"
518: 0x0DA4 [0x23] WAIT_FOR_DIALOG_INTERACTION
519: 0x0DA5 [0x01] GOTO 0x0DD3
520: 0x0DA8 [0x02] IF !(Work_Zone[0] == 24*) GOTO 0x0DBC
521: 0x0DB0 [0x03] Work_Zone[2] = 1847*
522: 0x0DB5 [0x48] [System] [12114*]:
     "Key Item: $3 Title: Spiritual$26Star"
523: 0x0DB8 [0x23] WAIT_FOR_DIALOG_INTERACTION
524: 0x0DB9 [0x01] GOTO 0x0DD3
525: 0x0DBC [0x02] IF !(Work_Zone[0] == 25*) GOTO 0x0DD0
526: 0x0DC4 [0x03] Work_Zone[2] = 1848*
527: 0x0DC9 [0x48] [System] [12115*]:
     "Key Item: $3 Title: Stippling$26Star"
528: 0x0DCC [0x23] WAIT_FOR_DIALOG_INTERACTION
529: 0x0DCD [0x01] GOTO 0x0DD3
530: 0x0DD0 [0x01] GOTO 0x0B55

SUBROUTINE_0DD3:
531: 0x0DD3 [0x01] GOTO 0x0BBB

SUBROUTINE_0DD9:
532: 0x0DD9 [0x1B] RETURN

SUBROUTINE_0DDA:
533: 0x0DDA [0x1B] RETURN
```

#### Data or dead code:

```
# Dead code (unreachable instructions):
     0x02C1 [0x01] GOTO 0x04A7
     0x02D2 [0x01] GOTO 0x04A7
# Dead code (unreachable instructions):
     0x040F [0x01] GOTO 0x0416
# Dead code (unreachable instructions):
     0x044C [0x01] GOTO 0x04A7
     0x0487 [0x01] GOTO 0x0495
# Dead code (unreachable instructions):
     0x0553 [0x18] 0x1B00 = atan2(0x1400, 0x1A00)
     0x055A [0xAD] DUAL_ENTITY_SCHEDULER_HANDLER: Execute sub-case 14 with entities [Unknown NPC (ID: 2155883776/0x80802D00), Unknown NPC (ID: 773653867/0x2E1D056B)], work=0x1A02
     0x0566 [0x80] LOAD_WAIT(entity=Unknown NPC (ID: 101187875/0x06080123))
     0x056B [0x02] IF !(ExtData[1]->WorkLocal[26] == 4294967294*) GOTO 0x057F
     0x0573 [0x03] Work_Zone[2] = ExtData[1]->WorkLocal[21]
     0x0578 [0x1D] PRINT_EVENT_MESSAGE(message_id=12025*)
     "You have already registered your Ballista Points for the previous match. Your current rank is $0."
     0x057B [0x23] WAIT_FOR_DIALOG_INTERACTION
     0x057C [0x01] GOTO 0x0608
     0x057F [0x02] IF !(ExtData[1]->WorkLocal[26] == 4294967293*) GOTO 0x0592
     0x0587 [0x1D] PRINT_EVENT_MESSAGE(message_id=12021*)
     "I am sorry, but we are no longer accepting Ballista Point Ranking registrations for the match in which you previously participated."
     0x058A [0x23] WAIT_FOR_DIALOG_INTERACTION
     0x058B [0x1D] PRINT_EVENT_MESSAGE(message_id=12022*)
     "For future reference, please note that the registration period is exactly four hours (Vana'diel time) from the close of each Ballista match."
     0x058E [0x23] WAIT_FOR_DIALOG_INTERACTION
     0x058F [0x01] GOTO 0x0608
     0x0592 [0x02] IF !(ExtData[1]->WorkLocal[21] == 0*) GOTO 0x05A1
     0x059A [0x1D] PRINT_EVENT_MESSAGE(message_id=12019*)
     "I registered your point total; however, it seems you did not make the final list. But do not fret. You will have many chances to redeem yourself in future matches. Good luck, <Player>!"
     0x059D [0x23] WAIT_FOR_DIALOG_INTERACTION
     0x059E [0x01] GOTO 0x0608
     0x05A1 [0x03] Work_Zone[1] = 4294967294*
     0x05A6 [0x43] SEND_EVENT_UPDATE: Send pending tag to server (packet 0x005B)
     0x05A8 [0x43] SEND_EVENT_UPDATE: Check pending flag (skip if not pending)
     0x05AA [0x03] Work_Zone[1] = 1073741824*
     0x05AF [0x03] ExtData[1]->WorkLocal[1] = ExtData[1]->WorkLocal[20]
     0x05B4 [0x1A] CALL_SUBROUTINE(address=0x0DDB)
     0x05B7 [0x02] IF !(ExtData[1]->WorkLocal[21] > 10*) GOTO 0x05D6
     0x05BF [0x1D] PRINT_EVENT_MESSAGE(message_id=11984*)
     "Your points have been registered. Congratulations! You currently rank in the top ten!"
     0x05C2 [0x23] WAIT_FOR_DIALOG_INTERACTION
     0x05C3 [0x1D] PRINT_EVENT_MESSAGE(message_id=11986*)
     "We ask that you check the rankings on the following date: Vana'diel: Earth:"
     0x05C6 [0x23] WAIT_FOR_DIALOG_INTERACTION
     0x05C7 [0x1D] PRINT_EVENT_MESSAGE(message_id=11987*)
     "If, at that time, you still remain in the top ten, you will be rewarded with a special prize."
     0x05CA [0x23] WAIT_FOR_DIALOG_INTERACTION
     0x05CB [0x1D] PRINT_EVENT_MESSAGE(message_id=11989*)
     "However, all records of the match will be destroyed on (Vana'diel) or (Earth)."
     0x05CE [0x23] WAIT_FOR_DIALOG_INTERACTION
     0x05CF [0x1D] PRINT_EVENT_MESSAGE(message_id=11990*)
     "If you do not speak with a Marshal by that date, you will lose the opportunity to claim that prize."
     0x05D2 [0x23] WAIT_FOR_DIALOG_INTERACTION
     0x05D3 [0x01] GOTO 0x0608
     0x05D6 [0x02] IF !(ExtData[1]->WorkLocal[24] == 1*) GOTO 0x05FF
     0x05DE [0x03] Work_Zone[8] = ExtData[1]->WorkLocal[23]
     0x05E3 [0x03] Work_Zone[9] = ExtData[1]->WorkLocal[25]
     0x05E8 [0x1D] PRINT_EVENT_MESSAGE(message_id=11985*)
     "Your points have been registered. Congratulations! You are currently ranked as the top [/warrior/monk/white mage/black mage/red mage/thief/paladin/dark knight/beastmaster/bard/ranger/samurai/ninja/dragoon/summoner/blue mage/corsair/puppetmaster]! (Total [/warriors/monks/white mages/black mages/red mages/thieves/paladins/dark knights/beastmasters/bards/rangers/samurais/ninjas/dragoons/summoners/blue mages/corsairs/puppetmasters/dancers/scholars/geomancers/rune fencers] registered: $7)"
     0x05EB [0x23] WAIT_FOR_DIALOG_INTERACTION
     0x05EC [0x1D] PRINT_EVENT_MESSAGE(message_id=11986*)
     "We ask that you check the rankings on the following date: Vana'diel: Earth:"
     0x05EF [0x23] WAIT_FOR_DIALOG_INTERACTION
     0x05F0 [0x1D] PRINT_EVENT_MESSAGE(message_id=11988*)
     "If, at this time, you still remain in first place, you will be recognized as the match MVP."
     0x05F3 [0x23] WAIT_FOR_DIALOG_INTERACTION
     0x05F4 [0x1D] PRINT_EVENT_MESSAGE(message_id=11989*)
     "However, all records of the match will be destroyed on (Vana'diel) or (Earth)."
     0x05F7 [0x23] WAIT_FOR_DIALOG_INTERACTION
     0x05F8 [0x1D] PRINT_EVENT_MESSAGE(message_id=11991*)
     "If you do not speak with a Marshal by that date, you forfeit all benefits that accompany MVP status."
     0x05FB [0x23] WAIT_FOR_DIALOG_INTERACTION
     0x05FC [0x01] GOTO 0x0608
     0x05FF [0x03] Work_Zone[9] = ExtData[1]->WorkLocal[21]
     0x0604 [0x1D] PRINT_EVENT_MESSAGE(message_id=12018*)
     "I have finished registering your data. Your final Ballista Point Ranking for the previous match is: $7."
     0x0607 [0x23] WAIT_FOR_DIALOG_INTERACTION
# Dead code (unreachable instructions):
     0x0695 [0x16] 0x1500 = sin(Work_Zone_1700[0]) * 0x1900
     0x069C [0x00] END_REQSTACK()
     0x069D [0x18] 0x1A00 = atan2(0x0EAD, 0x1A02)
     0x06A4 [0x00] END_REQSTACK()
     0x06A5 [0x2D] CREATE_ZONE_SCHEDULER_TASK: Create scheduler 0x00100103 with entities [Unknown NPC (ID: 112590976/0x06B60080), Unknown NPC (ID: 595608861/0x2380451D)]
     0x06B2 [0x80] LOAD_WAIT(entity=Unknown NPC (ID: 436648193/0x1A06B901))
     0x06B7 [0x0E] 0x030E |= Work_Zone[1]
     0x06D7 [0x01] GOTO 0x06F3
     0x06F0 [0x01] GOTO 0x06F3
# Dead code (unreachable instructions):
     0x095B [0x24] CREATE_DIALOG(message_id=12029*, default_option=Work_Zone[0], option_flags=0*)
     "What do you wish to know about? [Basic rules./About the Petra./About Sprint./About Scout./About Gate Breach./About area-specific rules./About returning to battle./About special rules./Nothing at the moment.]"
     0x0962 [0x25] WAIT_DIALOG_SELECT()
     0x0963 [0x02] IF !(Work_Zone[0] == 0*) GOTO 0x0985
     0x096B [0x48] [System] [12030*]:
     "Ballista is an exercise once used by the San d'Orian armies to train the Royal Knights in the art of the siege. The word "ballista" means "to throw a stone," and the game has been a part of Vana'dielian military history for centuries."
     0x096E [0x23] WAIT_FOR_DIALOG_INTERACTION
     0x096F [0x48] [System] [12031*]:
     "The rules are simple. Ballista is played by two teams over a number of hours (Vana'diel time). The team with the most points at the end of the match is the victor."
     0x0972 [0x23] WAIT_FOR_DIALOG_INTERACTION
     0x0973 [0x48] [System] [12032*]:
     "Players from both teams must search for Petras that a Herald has buried in various locations across the battlefield. The players must then take these stones and throw them into targets known as Rooks."
     0x0976 [0x23] WAIT_FOR_DIALOG_INTERACTION
     0x0977 [0x48] [System] [12033*]:
     "These Rooks can appear in various locations around the battlefield, and both teams are allowed to throw their Petras into them."
     0x097A [0x23] WAIT_FOR_DIALOG_INTERACTION
     0x097B [0x48] [System] [12034*]:
