# 17772778 - Magian Moogle

## Common Data

| Field            | Value                     |
|------------------|---------------------------|
| Zone             | Ru'Lude Gardens (ID: 243) |
| Block Size       | 32392 bytes               |
| Total Events     | 25                        |
| References Count | 947                       |

## List of Events

| Event ID              | Entrypoint   |   Size |   Instructions |
|-----------------------|--------------|--------|----------------|
| [65535](#event-65535) | 0x0000       |      1 |              1 |
| [10121](#event-10121) | 0x0001       |     26 |              9 |
| [10122](#event-10122) | 0x001B       |    112 |             28 |
| [10123](#event-10123) | 0x008B       |    226 |             60 |
| [10124](#event-10124) | 0x016D       |   4838 |            997 |
| [10125](#event-10125) | 0x1453       |    521 |            111 |
| [10130](#event-10130) | 0x165C       |     41 |             12 |
| [10129](#event-10129) | 0x1685       |    457 |             81 |
| [10140](#event-10140) | 0x184E       |    466 |             86 |
| [10126](#event-10126) | 0x1A20       |     18 |              6 |
| [10127](#event-10127) | 0x1A32       |      5 |              3 |
| [10128](#event-10128) | 0x1A37       |    659 |             63 |
| [10135](#event-10135) | 0x1CCA       |      1 |              1 |
| [10163](#event-10163) | 0x1CCB       |      1 |              1 |
| [10164](#event-10164) | 0x1CCC       |      1 |              1 |
| [10165](#event-10165) | 0x1CCD       |      1 |              1 |
| [10166](#event-10166) | 0x1CCE       |      1 |              1 |
| [10167](#event-10167) | 0x1CCF       |    913 |            141 |
| [10168](#event-10168) | 0x2060       |    913 |            141 |
| [10169](#event-10169) | 0x23F1       |      1 |              1 |
| [10170](#event-10170) | 0x23F2       |      1 |              1 |
| [10171](#event-10171) | 0x23F3       |      1 |              1 |
| [10172](#event-10172) | 0x23F4       |      1 |              1 |
| [10173](#event-10173) | 0x23F5       |    379 |             57 |
| [10174](#event-10174) | 0x2570       |  18902 |           3238 |

## DAT References (imed_data)

|   Index | Hex Value   |   Dec Value |
|---------|-------------|-------------|
|       0 | 0x3882      |       14466 |
|       1 | 0x3883      |       14467 |
|       2 | 0x003C      |          60 |
|       3 | 0x3884      |       14468 |
|       4 | 0x388F      |       14479 |
|       5 | 0x3890      |       14480 |
|       6 | 0x0000      |           0 |
|       7 | 0x3891      |       14481 |
|       8 | 0x00C9      |         201 |
|       9 | 0x001E      |          30 |
|      10 | 0x0001      |           1 |
|      11 | 0x3892      |       14482 |
|      12 | 0x3893      |       14483 |
|      13 | 0x3894      |       14484 |
|      14 | 0x0002      |           2 |
|      15 | 0x0003      |           3 |
|      16 | 0x0004      |           4 |
|      17 | 0x04ED      |        1261 |
|      18 | 0x1688      |        5768 |
|      19 | 0x1388      |        5000 |
|      20 | 0x38D6      |       14550 |
|      21 | 0x38D7      |       14551 |
|      22 | 0x38D8      |       14552 |
|      23 | 0x38D9      |       14553 |
|      24 | 0x38DA      |       14554 |
|      25 | 0x38DB      |       14555 |
|      26 | 0x00FA      |         250 |
|      27 | 0x38DC      |       14556 |
|      28 | 0xFFFFFFFF  |  4294967295 |
|      29 | 0x38BF      |       14527 |
|      30 | 0xFFFFFFFE  |  4294967294 |
|      31 | 0x38BC      |       14524 |
|      32 | 0xFFFFFFFD  |  4294967293 |
|      33 | 0xFFFFFF9D  |  4294967197 |
|      34 | 0x38C0      |       14528 |
|      35 | 0xFFFFFF01  |  4294967041 |
|      36 | 0x38BD      |       14525 |
|      37 | 0x38A4      |       14500 |
|      38 | 0x38B3      |       14515 |
|      39 | 0xFFF0      |       65520 |
|      40 | 0x38CA      |       14538 |
|      41 | 0x0010      |          16 |
|      42 | 0x38A8      |       14504 |
|      43 | 0x38A9      |       14505 |
|      44 | 0x38AA      |       14506 |
|      45 | 0x38AB      |       14507 |
|      46 | 0x38AC      |       14508 |
|      47 | 0x38AD      |       14509 |
|      48 | 0x38AE      |       14510 |
|      49 | 0x38AF      |       14511 |
|      50 | 0x38B0      |       14512 |
|      51 | 0x38B1      |       14513 |
|      52 | 0x3885      |       14469 |
|      53 | 0x3887      |       14471 |
|      54 | 0x3888      |       14472 |
|      55 | 0x3889      |       14473 |
|      56 | 0x388A      |       14474 |
|      57 | 0x388B      |       14475 |
|      58 | 0x388C      |       14476 |
|      59 | 0x388D      |       14477 |
|      60 | 0x388E      |       14478 |
|      61 | 0x3896      |       14486 |
|      62 | 0x389A      |       14490 |
|      63 | 0x389B      |       14491 |
|      64 | 0x389C      |       14492 |
|      65 | 0x00CD      |         205 |
|      66 | 0x012C      |         300 |
|      67 | 0x0006      |           6 |
|      68 | 0x0008      |           8 |
|      69 | 0x001F      |          31 |
|      70 | 0x389D      |       14493 |
|      71 | 0x389E      |       14494 |
|      72 | 0x389F      |       14495 |
|      73 | 0x0005      |           5 |
|      74 | 0x38A7      |       14503 |
|      75 | 0x38A0      |       14496 |
|      76 | 0x000F      |          15 |
|      77 | 0x000A      |          10 |
|      78 | 0x3895      |       14485 |
|      79 | 0x0007      |           7 |
|      80 | 0x0009      |           9 |
|      81 | 0x38A6      |       14502 |
|      82 | 0x000B      |          11 |
|      83 | 0x000C      |          12 |
|      84 | 0x000D      |          13 |
|      85 | 0x000E      |          14 |
|      86 | 0x0FFF      |        4095 |
|      87 | 0x10000     |       65536 |
|      88 | 0x38CE      |       14542 |
|      89 | 0x0172      |         370 |
|      90 | 0x0972      |        2418 |
|      91 | 0x1172      |        4466 |
|      92 | 0x38CF      |       14543 |
|      93 | 0x3998      |       14744 |
|      94 | 0x38CC      |       14540 |
|      95 | 0x38CD      |       14541 |
|      96 | 0x38CB      |       14539 |
|      97 | 0x38D0      |       14544 |
|      98 | 0x38D1      |       14545 |
|      99 | 0x38D5      |       14549 |
|     100 | 0x38DD      |       14557 |
|     101 | 0x38B4      |       14516 |
|     102 | 0x38B5      |       14517 |
|     103 | 0x38B6      |       14518 |
|     104 | 0x00CB      |         203 |
|     105 | 0x38B7      |       14519 |
|     106 | 0x38B8      |       14520 |
|     107 | 0x00CE      |         206 |
|     108 | 0x38B9      |       14521 |
|     109 | 0x38BA      |       14522 |
|     110 | 0x38C9      |       14537 |
|     111 | 0x38BB      |       14523 |
|     112 | 0x38BE      |       14526 |
|     113 | 0x03DF      |         991 |
|     114 | 0x03E2      |         994 |
|     115 | 0x03E5      |         997 |
|     116 | 0x03E8      |        1000 |
|     117 | 0x046D      |        1133 |
|     118 | 0x0E3F      |        3647 |
|     119 | 0x0E75      |        3701 |
|     120 | 0x0E93      |        3731 |
|     121 | 0x0E95      |        3733 |
|     122 | 0x0E97      |        3735 |
|     123 | 0x0EB9      |        3769 |
|     124 | 0x0044      |          68 |
|     125 | 0x0052      |          82 |
|     126 | 0x03EB      |        1003 |
|     127 | 0x03EE      |        1006 |
|     128 | 0x03F1      |        1009 |
|     129 | 0x04AB      |        1195 |
|     130 | 0x0E3B      |        3643 |
|     131 | 0x0E73      |        3699 |
|     132 | 0x0E8F      |        3727 |
|     133 | 0x0E91      |        3729 |
|     134 | 0x0EB7      |        3767 |
|     135 | 0x0096      |         150 |
|     136 | 0x00A4      |         164 |
|     137 | 0x03F4      |        1012 |
|     138 | 0x03F7      |        1015 |
|     139 | 0x03FA      |        1018 |
|     140 | 0x03FD      |        1021 |
|     141 | 0x04D9      |        1241 |
|     142 | 0x0E43      |        3651 |
|     143 | 0x0E77      |        3703 |
|     144 | 0x0E99      |        3737 |
|     145 | 0x0E9B      |        3739 |
|     146 | 0x0E9D      |        3741 |
|     147 | 0x0EBB      |        3771 |
|     148 | 0x00D8      |         216 |
|     149 | 0x00E6      |         230 |
|     150 | 0x0400      |        1024 |
|     151 | 0x0507      |        1287 |
|     152 | 0x0E47      |        3655 |
|     153 | 0x0E79      |        3705 |
|     154 | 0x0EBD      |        3773 |
|     155 | 0x011A      |         282 |
|     156 | 0x0128      |         296 |
|     157 | 0x0403      |        1027 |
|     158 | 0x0406      |        1030 |
|     159 | 0x0545      |        1349 |
|     160 | 0x0E4B      |        3659 |
|     161 | 0x0E7B      |        3707 |
|     162 | 0x0E9F      |        3743 |
|     163 | 0x0EBF      |        3775 |
|     164 | 0x016C      |         364 |
|     165 | 0x017A      |         378 |
|     166 | 0x0409      |        1033 |
|     167 | 0x040C      |        1036 |
|     168 | 0x0573      |        1395 |
|     169 | 0x0E4F      |        3663 |
|     170 | 0x0E7D      |        3709 |
|     171 | 0x0EA1      |        3745 |
|     172 | 0x0EC1      |        3777 |
|     173 | 0x01AE      |         430 |
|     174 | 0x01BC      |         444 |
|     175 | 0x040F      |        1039 |
|     176 | 0x0412      |        1042 |
|     177 | 0x05B1      |        1457 |
|     178 | 0x0E57      |        3671 |
|     179 | 0x0E81      |        3713 |
|     180 | 0x0EA5      |        3749 |
|     181 | 0x0EC5      |        3781 |
|     182 | 0x0200      |         512 |
|     183 | 0x020E      |         526 |
|     184 | 0x0415      |        1045 |
|     185 | 0x0418      |        1048 |
|     186 | 0x05DF      |        1503 |
|     187 | 0x0E53      |        3667 |
|     188 | 0x0E7F      |        3711 |
|     189 | 0x0EA3      |        3747 |
|     190 | 0x0EC3      |        3779 |
|     191 | 0x0242      |         578 |
|     192 | 0x0250      |         592 |
|     193 | 0x041B      |        1051 |
|     194 | 0x041E      |        1054 |
|     195 | 0x060D      |        1549 |
|     196 | 0x0E5B      |        3675 |
|     197 | 0x0E83      |        3715 |
|     198 | 0x0EA7      |        3751 |
|     199 | 0x0EC7      |        3783 |
|     200 | 0x0284      |         644 |
|     201 | 0x0292      |         658 |
|     202 | 0x0421      |        1057 |
|     203 | 0x0424      |        1060 |
|     204 | 0x063B      |        1595 |
|     205 | 0x0E5F      |        3679 |
|     206 | 0x0E85      |        3717 |
|     207 | 0x0EA9      |        3753 |
|     208 | 0x0EC9      |        3785 |
|     209 | 0x02C6      |         710 |
|     210 | 0x02D4      |         724 |
|     211 | 0x0427      |        1063 |
|     212 | 0x042A      |        1066 |
|     213 | 0x0669      |        1641 |
|     214 | 0x0E63      |        3683 |
|     215 | 0x0E87      |        3719 |
|     216 | 0x0EAB      |        3755 |
|     217 | 0x0ECB      |        3787 |
|     218 | 0x0308      |         776 |
|     219 | 0x0316      |         790 |
|     220 | 0x042D      |        1069 |
|     221 | 0x0430      |        1072 |
|     222 | 0x0433      |        1075 |
|     223 | 0x0436      |        1078 |
|     224 | 0x06D9      |        1753 |
|     225 | 0x0E67      |        3687 |
|     226 | 0x0E89      |        3721 |
|     227 | 0x0EAD      |        3757 |
|     228 | 0x0EAF      |        3759 |
|     229 | 0x0EB1      |        3761 |
|     230 | 0x0ECD      |        3789 |
|     231 | 0x037B      |         891 |
|     232 | 0x0389      |         905 |
|     233 | 0x0439      |        1081 |
|     234 | 0x043C      |        1084 |
|     235 | 0x043F      |        1087 |
|     236 | 0x06F7      |        1783 |
|     237 | 0x0E6F      |        3695 |
|     238 | 0x0E8D      |        3725 |
|     239 | 0x0EB3      |        3763 |
|     240 | 0x0EB5      |        3765 |
|     241 | 0x0ED1      |        3793 |
|     242 | 0x03AD      |         941 |
|     243 | 0x03BB      |         955 |
|     244 | 0x0442      |        1090 |
|     245 | 0x0715      |        1813 |
|     246 | 0x0E6B      |        3691 |
|     247 | 0x0E8B      |        3723 |
|     248 | 0x0ECF      |        3791 |
|     249 | 0x103C      |        4156 |
|     250 | 0x103D      |        4157 |
|     251 | 0x103E      |        4158 |
|     252 | 0x103F      |        4159 |
|     253 | 0x1040      |        4160 |
|     254 | 0x1041      |        4161 |
|     255 | 0x1042      |        4162 |
|     256 | 0x1043      |        4163 |
|     257 | 0x1044      |        4164 |
|     258 | 0x1045      |        4165 |
|     259 | 0x1046      |        4166 |
|     260 | 0x1047      |        4167 |
|     261 | 0x1048      |        4168 |
|     262 | 0x1049      |        4169 |
|     263 | 0x104A      |        4170 |
|     264 | 0x104B      |        4171 |
|     265 | 0x104C      |        4172 |
|     266 | 0x104D      |        4173 |
|     267 | 0x104E      |        4174 |
|     268 | 0x104F      |        4175 |
|     269 | 0x122E      |        4654 |
|     270 | 0x122F      |        4655 |
|     271 | 0x1238      |        4664 |
|     272 | 0x1239      |        4665 |
|     273 | 0x1242      |        4674 |
|     274 | 0x1243      |        4675 |
|     275 | 0x124C      |        4684 |
|     276 | 0x124D      |        4685 |
|     277 | 0x1256      |        4694 |
|     278 | 0x1257      |        4695 |
|     279 | 0x1260      |        4704 |
|     280 | 0x1261      |        4705 |
|     281 | 0x126A      |        4714 |
|     282 | 0x126B      |        4715 |
|     283 | 0x1274      |        4724 |
|     284 | 0x1275      |        4725 |
|     285 | 0x127E      |        4734 |
|     286 | 0x127F      |        4735 |
|     287 | 0x1288      |        4744 |
|     288 | 0x1289      |        4745 |
|     289 | 0x1292      |        4754 |
|     290 | 0x1293      |        4755 |
|     291 | 0x129C      |        4764 |
|     292 | 0x129D      |        4765 |
|     293 | 0x12A6      |        4774 |
|     294 | 0x12A7      |        4775 |
|     295 | 0x12B0      |        4784 |
|     296 | 0x12B1      |        4785 |
|     297 | 0x12BA      |        4794 |
|     298 | 0x12BB      |        4795 |
|     299 | 0x12C4      |        4804 |
|     300 | 0x12C5      |        4805 |
|     301 | 0x12CE      |        4814 |
|     302 | 0x12CF      |        4815 |
|     303 | 0x12D8      |        4824 |
|     304 | 0x12D9      |        4825 |
|     305 | 0x12E2      |        4834 |
|     306 | 0x12E3      |        4835 |
|     307 | 0x12EC      |        4844 |
|     308 | 0x12ED      |        4845 |
|     309 | 0x135A      |        4954 |
|     310 | 0x135F      |        4959 |
|     311 | 0x1364      |        4964 |
|     312 | 0x1369      |        4969 |
|     313 | 0x136E      |        4974 |
|     314 | 0x1373      |        4979 |
|     315 | 0x1378      |        4984 |
|     316 | 0x137D      |        4989 |
|     317 | 0x1382      |        4994 |
|     318 | 0x1387      |        4999 |
|     319 | 0x138C      |        5004 |
|     320 | 0x1391      |        5009 |
|     321 | 0x1396      |        5014 |
|     322 | 0x139B      |        5019 |
|     323 | 0x13A0      |        5024 |
|     324 | 0x13A5      |        5029 |
|     325 | 0x13AA      |        5034 |
|     326 | 0x13AF      |        5039 |
|     327 | 0x13B4      |        5044 |
|     328 | 0x13B9      |        5049 |
|     329 | 0x10F0      |        4336 |
|     330 | 0x10F1      |        4337 |
|     331 | 0x10F2      |        4338 |
|     332 | 0x10F3      |        4339 |
|     333 | 0x10F4      |        4340 |
|     334 | 0x10F5      |        4341 |
|     335 | 0x10F6      |        4342 |
|     336 | 0x10F7      |        4343 |
|     337 | 0x10F8      |        4344 |
|     338 | 0x10F9      |        4345 |
|     339 | 0x10FA      |        4346 |
|     340 | 0x10FB      |        4347 |
|     341 | 0x10FC      |        4348 |
|     342 | 0x10FD      |        4349 |
|     343 | 0x10FE      |        4350 |
|     344 | 0x10FF      |        4351 |
|     345 | 0x1100      |        4352 |
|     346 | 0x1101      |        4353 |
|     347 | 0x1102      |        4354 |
|     348 | 0x1103      |        4355 |
|     349 | 0x1230      |        4656 |
|     350 | 0x1231      |        4657 |
|     351 | 0x123A      |        4666 |
|     352 | 0x123B      |        4667 |
|     353 | 0x1244      |        4676 |
|     354 | 0x1245      |        4677 |
|     355 | 0x124E      |        4686 |
|     356 | 0x124F      |        4687 |
|     357 | 0x1258      |        4696 |
|     358 | 0x1259      |        4697 |
|     359 | 0x1262      |        4706 |
|     360 | 0x1263      |        4707 |
|     361 | 0x126C      |        4716 |
|     362 | 0x126D      |        4717 |
|     363 | 0x1276      |        4726 |
|     364 | 0x1277      |        4727 |
|     365 | 0x1280      |        4736 |
|     366 | 0x1281      |        4737 |
|     367 | 0x128A      |        4746 |
|     368 | 0x128B      |        4747 |
|     369 | 0x1294      |        4756 |
|     370 | 0x1295      |        4757 |
|     371 | 0x129E      |        4766 |
|     372 | 0x129F      |        4767 |
|     373 | 0x12A8      |        4776 |
|     374 | 0x12A9      |        4777 |
|     375 | 0x12B2      |        4786 |
|     376 | 0x12B3      |        4787 |
|     377 | 0x12BC      |        4796 |
|     378 | 0x12BD      |        4797 |
|     379 | 0x12C6      |        4806 |
|     380 | 0x12C7      |        4807 |
|     381 | 0x12D0      |        4816 |
|     382 | 0x12D1      |        4817 |
|     383 | 0x12DA      |        4826 |
|     384 | 0x12DB      |        4827 |
|     385 | 0x12E4      |        4836 |
|     386 | 0x12E5      |        4837 |
|     387 | 0x12EE      |        4846 |
|     388 | 0x12EF      |        4847 |
|     389 | 0x135B      |        4955 |
|     390 | 0x1360      |        4960 |
|     391 | 0x1365      |        4965 |
|     392 | 0x136A      |        4970 |
|     393 | 0x136F      |        4975 |
|     394 | 0x1374      |        4980 |
|     395 | 0x1379      |        4985 |
|     396 | 0x137E      |        4990 |
|     397 | 0x1383      |        4995 |
|     398 | 0x138D      |        5005 |
|     399 | 0x1392      |        5010 |
|     400 | 0x1397      |        5015 |
|     401 | 0x139C      |        5020 |
|     402 | 0x13A1      |        5025 |
|     403 | 0x13A6      |        5030 |
|     404 | 0x13AB      |        5035 |
|     405 | 0x13B0      |        5040 |
|     406 | 0x13B5      |        5045 |
|     407 | 0x13BA      |        5050 |
|     408 | 0x10DC      |        4316 |
|     409 | 0x10DD      |        4317 |
|     410 | 0x10DE      |        4318 |
|     411 | 0x10DF      |        4319 |
|     412 | 0x10E0      |        4320 |
|     413 | 0x10E1      |        4321 |
|     414 | 0x10E2      |        4322 |
|     415 | 0x10E3      |        4323 |
|     416 | 0x10E4      |        4324 |
|     417 | 0x10E5      |        4325 |
|     418 | 0x10E6      |        4326 |
|     419 | 0x10E7      |        4327 |
|     420 | 0x10E8      |        4328 |
|     421 | 0x10E9      |        4329 |
|     422 | 0x10EA      |        4330 |
|     423 | 0x10EB      |        4331 |
|     424 | 0x10EC      |        4332 |
|     425 | 0x10ED      |        4333 |
|     426 | 0x10EE      |        4334 |
|     427 | 0x10EF      |        4335 |
|     428 | 0x1232      |        4658 |
|     429 | 0x1233      |        4659 |
|     430 | 0x123C      |        4668 |
|     431 | 0x123D      |        4669 |
|     432 | 0x1246      |        4678 |
|     433 | 0x1247      |        4679 |
|     434 | 0x1250      |        4688 |
|     435 | 0x1251      |        4689 |
|     436 | 0x125A      |        4698 |
|     437 | 0x125B      |        4699 |
|     438 | 0x1264      |        4708 |
|     439 | 0x1265      |        4709 |
|     440 | 0x126E      |        4718 |
|     441 | 0x126F      |        4719 |
|     442 | 0x1278      |        4728 |
|     443 | 0x1279      |        4729 |
|     444 | 0x1282      |        4738 |
|     445 | 0x1283      |        4739 |
|     446 | 0x128C      |        4748 |
|     447 | 0x128D      |        4749 |
|     448 | 0x1296      |        4758 |
|     449 | 0x1297      |        4759 |
|     450 | 0x12A0      |        4768 |
|     451 | 0x12A1      |        4769 |
|     452 | 0x12AA      |        4778 |
|     453 | 0x12AB      |        4779 |
|     454 | 0x12B4      |        4788 |
|     455 | 0x12B5      |        4789 |
|     456 | 0x12BE      |        4798 |
|     457 | 0x12BF      |        4799 |
|     458 | 0x12C8      |        4808 |
|     459 | 0x12C9      |        4809 |
|     460 | 0x12D2      |        4818 |
|     461 | 0x12D3      |        4819 |
|     462 | 0x12DC      |        4828 |
|     463 | 0x12DD      |        4829 |
|     464 | 0x12E6      |        4838 |
|     465 | 0x12E7      |        4839 |
|     466 | 0x12F0      |        4848 |
|     467 | 0x12F1      |        4849 |
|     468 | 0x135C      |        4956 |
|     469 | 0x1361      |        4961 |
|     470 | 0x1366      |        4966 |
|     471 | 0x136B      |        4971 |
|     472 | 0x1370      |        4976 |
|     473 | 0x1375      |        4981 |
|     474 | 0x137A      |        4986 |
|     475 | 0x137F      |        4991 |
|     476 | 0x1384      |        4996 |
|     477 | 0x1389      |        5001 |
|     478 | 0x138E      |        5006 |
|     479 | 0x1393      |        5011 |
|     480 | 0x1398      |        5016 |
|     481 | 0x139D      |        5021 |
|     482 | 0x13A2      |        5026 |
|     483 | 0x13A7      |        5031 |
|     484 | 0x13AC      |        5036 |
|     485 | 0x13B1      |        5041 |
|     486 | 0x13B6      |        5046 |
|     487 | 0x13BB      |        5051 |
|     488 | 0x1050      |        4176 |
|     489 | 0x1051      |        4177 |
|     490 | 0x1052      |        4178 |
|     491 | 0x1053      |        4179 |
|     492 | 0x1054      |        4180 |
|     493 | 0x1055      |        4181 |
|     494 | 0x1056      |        4182 |
|     495 | 0x1057      |        4183 |
|     496 | 0x1058      |        4184 |
|     497 | 0x1059      |        4185 |
|     498 | 0x105A      |        4186 |
|     499 | 0x105B      |        4187 |
|     500 | 0x105C      |        4188 |
|     501 | 0x105D      |        4189 |
|     502 | 0x105E      |        4190 |
|     503 | 0x105F      |        4191 |
|     504 | 0x1060      |        4192 |
|     505 | 0x1061      |        4193 |
|     506 | 0x1062      |        4194 |
|     507 | 0x1063      |        4195 |
|     508 | 0x1234      |        4660 |
|     509 | 0x1235      |        4661 |
|     510 | 0x123E      |        4670 |
|     511 | 0x123F      |        4671 |
|     512 | 0x1248      |        4680 |
|     513 | 0x1249      |        4681 |
|     514 | 0x1252      |        4690 |
|     515 | 0x1253      |        4691 |
|     516 | 0x125C      |        4700 |
|     517 | 0x125D      |        4701 |
|     518 | 0x1266      |        4710 |
|     519 | 0x1267      |        4711 |
|     520 | 0x1270      |        4720 |
|     521 | 0x1271      |        4721 |
|     522 | 0x127A      |        4730 |
|     523 | 0x127B      |        4731 |
|     524 | 0x1284      |        4740 |
|     525 | 0x1285      |        4741 |
|     526 | 0x128E      |        4750 |
|     527 | 0x128F      |        4751 |
|     528 | 0x1298      |        4760 |
|     529 | 0x1299      |        4761 |
|     530 | 0x12A2      |        4770 |
|     531 | 0x12A3      |        4771 |
|     532 | 0x12AC      |        4780 |
|     533 | 0x12AD      |        4781 |
|     534 | 0x12B6      |        4790 |
|     535 | 0x12B7      |        4791 |
|     536 | 0x12C0      |        4800 |
|     537 | 0x12C1      |        4801 |
|     538 | 0x12CA      |        4810 |
|     539 | 0x12CB      |        4811 |
|     540 | 0x12D4      |        4820 |
|     541 | 0x12D5      |        4821 |
|     542 | 0x12DE      |        4830 |
|     543 | 0x12DF      |        4831 |
|     544 | 0x12E8      |        4840 |
|     545 | 0x12E9      |        4841 |
|     546 | 0x12F2      |        4850 |
|     547 | 0x12F3      |        4851 |
|     548 | 0x135D      |        4957 |
|     549 | 0x1362      |        4962 |
|     550 | 0x1367      |        4967 |
|     551 | 0x136C      |        4972 |
|     552 | 0x1371      |        4977 |
|     553 | 0x1376      |        4982 |
|     554 | 0x137B      |        4987 |
|     555 | 0x1380      |        4992 |
|     556 | 0x1385      |        4997 |
|     557 | 0x138A      |        5002 |
|     558 | 0x138F      |        5007 |
|     559 | 0x1394      |        5012 |
|     560 | 0x1399      |        5017 |
|     561 | 0x139E      |        5022 |
|     562 | 0x13A3      |        5027 |
|     563 | 0x13A8      |        5032 |
|     564 | 0x13AD      |        5037 |
|     565 | 0x13B2      |        5042 |
|     566 | 0x13B7      |        5047 |
|     567 | 0x13BC      |        5052 |
|     568 | 0x1064      |        4196 |
|     569 | 0x1065      |        4197 |
|     570 | 0x1066      |        4198 |
|     571 | 0x1067      |        4199 |
|     572 | 0x1068      |        4200 |
|     573 | 0x1069      |        4201 |
|     574 | 0x106A      |        4202 |
|     575 | 0x106B      |        4203 |
|     576 | 0x106C      |        4204 |
|     577 | 0x106D      |        4205 |
|     578 | 0x106E      |        4206 |
|     579 | 0x106F      |        4207 |
|     580 | 0x1070      |        4208 |
|     581 | 0x1071      |        4209 |
|     582 | 0x1072      |        4210 |
|     583 | 0x1073      |        4211 |
|     584 | 0x1074      |        4212 |
|     585 | 0x1075      |        4213 |
|     586 | 0x1076      |        4214 |
|     587 | 0x1077      |        4215 |
|     588 | 0x1236      |        4662 |
|     589 | 0x1237      |        4663 |
|     590 | 0x1240      |        4672 |
|     591 | 0x1241      |        4673 |
|     592 | 0x124A      |        4682 |
|     593 | 0x124B      |        4683 |
|     594 | 0x1254      |        4692 |
|     595 | 0x1255      |        4693 |
|     596 | 0x125E      |        4702 |
|     597 | 0x125F      |        4703 |
|     598 | 0x1268      |        4712 |
|     599 | 0x1269      |        4713 |
|     600 | 0x1272      |        4722 |
|     601 | 0x1273      |        4723 |
|     602 | 0x127C      |        4732 |
|     603 | 0x127D      |        4733 |
|     604 | 0x1286      |        4742 |
|     605 | 0x1287      |        4743 |
|     606 | 0x1290      |        4752 |
|     607 | 0x1291      |        4753 |
|     608 | 0x129A      |        4762 |
|     609 | 0x129B      |        4763 |
|     610 | 0x12A4      |        4772 |
|     611 | 0x12A5      |        4773 |
|     612 | 0x12AE      |        4782 |
|     613 | 0x12AF      |        4783 |
|     614 | 0x12B8      |        4792 |
|     615 | 0x12B9      |        4793 |
|     616 | 0x12C2      |        4802 |
|     617 | 0x12C3      |        4803 |
|     618 | 0x12CC      |        4812 |
|     619 | 0x12CD      |        4813 |
|     620 | 0x12D6      |        4822 |
|     621 | 0x12D7      |        4823 |
|     622 | 0x12E0      |        4832 |
|     623 | 0x12E1      |        4833 |
|     624 | 0x12EA      |        4842 |
|     625 | 0x12EB      |        4843 |
|     626 | 0x12F4      |        4852 |
|     627 | 0x12F5      |        4853 |
|     628 | 0x135E      |        4958 |
|     629 | 0x1363      |        4963 |
|     630 | 0x1368      |        4968 |
|     631 | 0x136D      |        4973 |
|     632 | 0x1372      |        4978 |
|     633 | 0x1377      |        4983 |
|     634 | 0x137C      |        4988 |
|     635 | 0x1381      |        4993 |
|     636 | 0x1386      |        4998 |
|     637 | 0x138B      |        5003 |
|     638 | 0x1390      |        5008 |
|     639 | 0x1395      |        5013 |
|     640 | 0x139A      |        5018 |
|     641 | 0x139F      |        5023 |
|     642 | 0x13A4      |        5028 |
|     643 | 0x13A9      |        5033 |
|     644 | 0x13AE      |        5038 |
|     645 | 0x13B3      |        5043 |
|     646 | 0x13B8      |        5048 |
|     647 | 0x13BD      |        5053 |
|     648 | 0x1148      |        4424 |
|     649 | 0x1149      |        4425 |
|     650 | 0x114A      |        4426 |
|     651 | 0x114B      |        4427 |
|     652 | 0x114C      |        4428 |
|     653 | 0x114D      |        4429 |
|     654 | 0x114E      |        4430 |
|     655 | 0x114F      |        4431 |
|     656 | 0x1150      |        4432 |
|     657 | 0x1151      |        4433 |
|     658 | 0x1152      |        4434 |
|     659 | 0x1153      |        4435 |
|     660 | 0x1154      |        4436 |
|     661 | 0x1155      |        4437 |
|     662 | 0x1156      |        4438 |
|     663 | 0x1157      |        4439 |
|     664 | 0x1158      |        4440 |
|     665 | 0x1159      |        4441 |
|     666 | 0x115A      |        4442 |
|     667 | 0x115B      |        4443 |
|     668 | 0x0A95      |        2709 |
|     669 | 0x0A99      |        2713 |
|     670 | 0x112D      |        4397 |
|     671 | 0x1131      |        4401 |
|     672 | 0x38A1      |       14497 |
|     673 | 0x38A2      |       14498 |
|     674 | 0x38A3      |       14499 |
|     675 | 0x38C1      |       14529 |
|     676 | 0x3899      |       14489 |
|     677 | 0x38A5      |       14501 |
|     678 | 0x0078      |         120 |
|     679 | 0xFFFFFFFC  |  4294967292 |
|     680 | 0x38C2      |       14530 |
|     681 | 0x38D3      |       14547 |
|     682 | 0x38C3      |       14531 |
|     683 | 0x38C4      |       14532 |
|     684 | 0x00CC      |         204 |
|     685 | 0x00F0      |         240 |
|     686 | 0x0103      |         259 |
|     687 | 0x38C5      |       14533 |
|     688 | 0x38C6      |       14534 |
|     689 | 0x38C7      |       14535 |
|     690 | 0x38C8      |       14536 |
|     691 | 0x00C8      |         200 |
|     692 | 0x002D      |          45 |
|     693 | 0x00D7      |         215 |
|     694 | 0x0013      |          19 |
|     695 | 0xFFFFD7F9  |  4294957049 |
|     696 | 0x1CB88     |      117640 |
|     697 | 0x0C1D      |        3101 |
|     698 | 0x085D      |        2141 |
|     699 | 0xFFFFDB7E  |  4294957950 |
|     700 | 0x1CFE2     |      118754 |
|     701 | 0x0771      |        1905 |
|     702 | 0x0232      |         562 |
|     703 | 0x39F1      |       14833 |
|     704 | 0x39F2      |       14834 |
|     705 | 0x39F3      |       14835 |
|     706 | 0x39F4      |       14836 |
|     707 | 0x39F5      |       14837 |
|     708 | 0x39F6      |       14838 |
|     709 | 0x39F7      |       14839 |
|     710 | 0x39F8      |       14840 |
|     711 | 0x0024      |          36 |
|     712 | 0x39F9      |       14841 |
|     713 | 0x39FA      |       14842 |
|     714 | 0x39FC      |       14844 |
|     715 | 0x39FB      |       14843 |
|     716 | 0x39FF      |       14847 |
|     717 | 0x3A00      |       14848 |
|     718 | 0x3A01      |       14849 |
|     719 | 0x3A02      |       14850 |
|     720 | 0x3A03      |       14851 |
|     721 | 0x39FD      |       14845 |
|     722 | 0x39FE      |       14846 |
|     723 | 0x3A04      |       14852 |
|     724 | 0x3A05      |       14853 |
|     725 | 0x0AC3      |        2755 |
|     726 | 0x39EF      |       14831 |
|     727 | 0x0075      |         117 |
|     728 | 0x3A06      |       14854 |
|     729 | 0x3A07      |       14855 |
|     730 | 0x005F      |          95 |
|     731 | 0x0064      |         100 |
|     732 | 0x0069      |         105 |
|     733 | 0x0057      |          87 |
|     734 | 0x005C      |          92 |
|     735 | 0x0059      |          89 |
|     736 | 0x005D      |          93 |
|     737 | 0x0061      |          97 |
|     738 | 0x0060      |          96 |
|     739 | 0x0012      |          18 |
|     740 | 0x0014      |          20 |
|     741 | 0x0017      |          23 |
|     742 | 0x0018      |          24 |
|     743 | 0x001B      |          27 |
|     744 | 0x0015      |          21 |
|     745 | 0x018D      |         397 |
|     746 | 0x0175      |         373 |
|     747 | 0x0170      |         368 |
|     748 | 0x0171      |         369 |
|     749 | 0x014C      |         332 |
|     750 | 0x01C1      |         449 |
|     751 | 0x027C      |         636 |
|     752 | 0x027B      |         635 |
|     753 | 0x027D      |         637 |
|     754 | 0x02D3      |         723 |
|     755 | 0x0321      |         801 |
|     756 | 0x0326      |         806 |
|     757 | 0x01E1      |         481 |
|     758 | 0x0343      |         835 |
|     759 | 0x0386      |         902 |
|     760 | 0x0388      |         904 |
|     761 | 0x0361      |         865 |
|     762 | 0x0387      |         903 |
|     763 | 0x038A      |         906 |
|     764 | 0x003F      |          63 |
|     765 | 0x0282      |         642 |
|     766 | 0x0283      |         643 |
|     767 | 0x0288      |         648 |
|     768 | 0x0289      |         649 |
|     769 | 0x028A      |         650 |
|     770 | 0x028B      |         651 |
|     771 | 0x029E      |         670 |
|     772 | 0x0019      |          25 |
|     773 | 0x00C6      |         198 |
|     774 | 0x0032      |          50 |
|     775 | 0x00B5      |         181 |
|     776 | 0x008C      |         140 |
|     777 | 0x008E      |         142 |
|     778 | 0x007A      |         122 |
|     779 | 0x014B      |         331 |
|     780 | 0x0148      |         328 |
|     781 | 0x0166      |         358 |
|     782 | 0x0182      |         386 |
|     783 | 0x0183      |         387 |
|     784 | 0x0192      |         402 |
|     785 | 0x01DF      |         479 |
|     786 | 0x01E9      |         489 |
|     787 | 0x001C      |          28 |
|     788 | 0x00EB      |         235 |
|     789 | 0x00F5      |         245 |
|     790 | 0x007E      |         126 |
|     791 | 0x007F      |         127 |
|     792 | 0x00F3      |         243 |
|     793 | 0x00F4      |         244 |
|     794 | 0x00E0      |         224 |
|     795 | 0x00E9      |         233 |
|     796 | 0x009E      |         158 |
|     797 | 0x009D      |         157 |
|     798 | 0x00E2      |         226 |
|     799 | 0x00E1      |         225 |
|     800 | 0x014F      |         335 |
|     801 | 0x014E      |         334 |
|     802 | 0x0167      |         359 |
|     803 | 0x00E5      |         229 |
|     804 | 0x0169      |         361 |
|     805 | 0x016A      |         362 |
|     806 | 0x0168      |         360 |
|     807 | 0x0133      |         307 |
|     808 | 0x0174      |         372 |
|     809 | 0x018C      |         396 |
|     810 | 0x0194      |         404 |
|     811 | 0x0195      |         405 |
|     812 | 0x0178      |         376 |
|     813 | 0x0240      |         576 |
|     814 | 0x0197      |         407 |
|     815 | 0x0198      |         408 |
|     816 | 0x01A3      |         419 |
|     817 | 0x019E      |         414 |
|     818 | 0x0246      |         582 |
|     819 | 0x0247      |         583 |
|     820 | 0x0248      |         584 |
|     821 | 0x024B      |         587 |
|     822 | 0x024A      |         586 |
|     823 | 0x0011      |          17 |
|     824 | 0x024F      |         591 |
|     825 | 0x01C3      |         451 |
|     826 | 0x01C4      |         452 |
|     827 | 0x01EF      |         495 |
|     828 | 0x01F0      |         496 |
|     829 | 0x001A      |          26 |
|     830 | 0x0095      |         149 |
|     831 | 0x001D      |          29 |
|     832 | 0x0073      |         115 |
|     833 | 0x0034      |          52 |
|     834 | 0x005E      |          94 |
|     835 | 0x0072      |         114 |
|     836 | 0x0031      |          49 |
|     837 | 0x006C      |         108 |
|     838 | 0x003A      |          58 |
|     839 | 0x0016      |          22 |
|     840 | 0x0035      |          53 |
|     841 | 0x0085      |         133 |
|     842 | 0x0081      |         129 |
|     843 | 0x0023      |          35 |
|     844 | 0x0033      |          51 |
|     845 | 0x0082      |         130 |
|     846 | 0x0039      |          57 |
|     847 | 0x0020      |          32 |
|     848 | 0x0038      |          56 |
|     849 | 0x0036      |          54 |
|     850 | 0x0083      |         131 |
|     851 | 0x00A2      |         162 |
|     852 | 0x0022      |          34 |
|     853 | 0x0021      |          33 |
|     854 | 0x0065      |         101 |
|     855 | 0x0086      |         134 |
|     856 | 0x0062      |          98 |
|     857 | 0x008D      |         141 |
|     858 | 0x0037      |          55 |
|     859 | 0x008A      |         138 |
|     860 | 0x008B      |         139 |
|     861 | 0x002B      |          43 |
|     862 | 0x0067      |         103 |
|     863 | 0x0030      |          48 |
|     864 | 0x00A1      |         161 |
|     865 | 0x0066      |         102 |
|     866 | 0x0068      |         104 |
|     867 | 0x007B      |         123 |
|     868 | 0x0077      |         119 |
|     869 | 0x01FE      |         510 |
|     870 | 0x009F      |         159 |
|     871 | 0x00A9      |         169 |
|     872 | 0x00AC      |         172 |
|     873 | 0x00B2      |         178 |
|     874 | 0x00B0      |         176 |
|     875 | 0x013D      |         317 |
|     876 | 0x0108      |         264 |
|     877 | 0x010C      |         268 |
|     878 | 0x0100      |         256 |
|     879 | 0x00FB      |         251 |
|     880 | 0x00B8      |         184 |
|     881 | 0x011C      |         284 |
|     882 | 0x0041      |          65 |
|     883 | 0x0042      |          66 |
|     884 | 0x0047      |          71 |
|     885 | 0x0160      |         352 |
|     886 | 0x0043      |          67 |
|     887 | 0x0048      |          72 |
|     888 | 0x004B      |          75 |
|     889 | 0x004C      |          76 |
|     890 | 0x004D      |          77 |
|     891 | 0x005B      |          91 |
|     892 | 0x0058      |          88 |
|     893 | 0x0053      |          83 |
|     894 | 0x0054      |          84 |
|     895 | 0x0161      |         353 |
|     896 | 0x015C      |         348 |
|     897 | 0x016D      |         365 |
|     898 | 0x00C5      |         197 |
|     899 | 0x00C3      |         195 |
|     900 | 0x00C7      |         199 |
|     901 | 0x015E      |         350 |
|     902 | 0x00C4      |         196 |
|     903 | 0x016E      |         366 |
|     904 | 0x00D0      |         208 |
|     905 | 0x00CA      |         202 |
|     906 | 0x00D2      |         210 |
|     907 | 0x00D5      |         213 |
|     908 | 0x00D6      |         214 |
|     909 | 0x013B      |         315 |
|     910 | 0x0136      |         310 |
|     911 | 0x013A      |         314 |
|     912 | 0x0137      |         311 |
|     913 | 0x016F      |         367 |
|     914 | 0x0138      |         312 |
|     915 | 0x0139      |         313 |
|     916 | 0x009A      |         154 |
|     917 | 0x0091      |         145 |
|     918 | 0x009B      |         155 |
|     919 | 0x0099      |         153 |
|     920 | 0x0093      |         147 |
|     921 | 0x0092      |         146 |
|     922 | 0x0098      |         152 |
|     923 | 0x0071      |         113 |
|     924 | 0x00E8      |         232 |
|     925 | 0x00DD      |         221 |
|     926 | 0x00F8      |         248 |
|     927 | 0x00F1      |         241 |
|     928 | 0x0124      |         292 |
|     929 | 0x012E      |         302 |
|     930 | 0x0129      |         297 |
|     931 | 0x0122      |         290 |
|     932 | 0x0132      |         306 |
|     933 | 0x0126      |         294 |
|     934 | 0x0155      |         341 |
|     935 | 0x0025      |          37 |
|     936 | 0x0029      |          41 |
|     937 | 0x0028      |          40 |
|     938 | 0x007D      |         125 |
|     939 | 0x0079      |         121 |
|     940 | 0x007C      |         124 |
|     941 | 0x0074      |         116 |
|     942 | 0x00EC      |         236 |
|     943 | 0x019C      |         412 |
|     944 | 0x0193      |         403 |
|     945 | 0x01C6      |         454 |
|     946 | 0x01C7      |         455 |

## String References

- **14466**: Kupo-ho! Another adventurer has found [his/her] way to my domain. Was it my aura of superior sagacity that led you here? This conspicuous crate and chest that sit seductively at my side?
- **14467**: Many secrets have I to tell, but sadly, they would be beyond your meager mental faculties to fathom. Return when your abilities are up to the task.
- **14468**: It is no matter. What matters is that you are here, and from the look of it, you are a suitable subject for the task I would entrust to you.
- **14469**: I speak to you on behalf of the Magian Mooglehood, an ancient and august assembly of wisemoogles hailing from the once-glorious Kingdom of Kupalika.
- **14471**: Each illustrious member of the Magian Mooglehood guards knowledge of a distinct branch of our lineal lore. My specialty lies in weaponry; with my aid, you will be doling out damage and destruction in ways heretofore unimagined!
- **14472**: "What impelled you to impart this long-withheld wisdom to us? And why now, kupo?" the unenlightened adventurer might ask.
- **14473**: To which the wise moogle would readily reply: The answer, my friend, is in the mog tablets--those remarkable relics wrought by King Kupofried himself--that were only recently recovered by resourceful adventurers such as rrr...yourself.
- **14474**: There is an ancient (and somewhat alarming) prophecy in our mooglehood. It goes...<ahem>..."King Kupofried's creations shall slumber soundly until such time as their Super Kupowers are called upon to save the realm from utter ruin, kupo."
- **14475**: The particulars of the prophecy--preposterous as this may seem--outstrip even our prodigious powers of perception.
- **14476**: Yet this I know, kupo: if moogle magic is what shall deliver this world from destruction, then moogle magic this world shall have--in abundance!
- **14477**: As an adventurer of renown, repute, and paramount prowess, you would seem a worthy beneficiary for our boon. And yet the Magian Mooglehood is nothing if not meticulously methodical. No, we must be certain...
- **14478**: I propose to task you with a series of trials. Each time you emerge victorious, we shall proffer you a portion of our powers, kupo.
- **14479**: What say you, adventurer? Will you undertake the Trial of the Magians, that you might one day wield the mightiest of moogle magic to save your realm from destruction and devastation?
- **14480**: Tackle the Trial of the Magians, kupo? [Will I ever!/Maybe another time...]
- **14481**: Excellent. Then my first gift unto you shall be this: a journal that shall serve to record all of your extraordinary exploits.
- **14482**: We understand, for with great kupower comes great responsibility. Should you ever be willing to bear the burden, we shall welcome your return.
- **14483**: You, who would inherit the mysteries of the magians...speak unto me your wish, kupo.
- **14484**: Choose your action: [Review current trial./Abandon current trial./List available trials./Ask for aid./Ask about roaming trial log./Move on.]
- **14485**: [Review/Abandon] which trial? [Trial $30./Trial $31./Trial $ ./Trial $!./Trial $"./Trial $#./Trial $$./Trial $%./Trial $&./Trial $'./Return.]
- **14486**: You are not currently undertaking any trials.
- **14489**: Press onward with this trial? [Persevere./Retire.]
- **14490**: Abandon this trial, and all records of your efforts thus far will be lost forever. I encourage due deliberation before making your decision.
- **14491**: Truly abandon the trial, kupo? [Persevere./Retire.]
- **14492**: Very well, kupo. I shall remove all records of this trial from your $3.
- **14493**: You have abandoned Trial $0.
- **14494**: Remember that before you can undertake a new trial, your target item must be purged of its trial insignia.
- **14495**: Trade the item to me, and I shall see it returned to its pristine original state, kupo.
- **14496**: You are not currently undertaking that trial.
- **14497**: Kupo-ho. This item bears the insignia of a trial already abandoned.
- **14498**: It is but a superfluous scribble now. Shall I erase it for you, kupo?
- **14499**: Erase the abandoned trial insignia? [Yes, remove it./No, leave it.]
- **14500**: Kupo...ho? My moogle magic seems to have misfired. Perhaps we should try that again.
- **14501**: The trial insignia has vanished from your $0.
- **14502**: Select a category: [Hand-to-Hand./Daggers./Swords./Great Swords./Axes./Great Axes./Scythes./Polearms./Katana./Great Katana./Clubs./Staves./Archery./Marksmanship./Instruments./Search by trial number./Cancel.]
- **14503**: Kupo-ho...ho? I know of no such trial. And given the immense nature of my intellect, that means it could not possibly exist.
- **14504**: What would you know, kupo? [About the trials./Undertaking a trial./Completing a trial./Return.]
- **14505**: Did I not regale you with the tale of the magians only a short while ago? Well, not all can be possessed of moogle-class powers of memory...
- **14506**: As I have already apprised you, the ancient moogle art of weapon augmentation is my specialty, kupo.
- **14507**: First, you must retrieve a weapon from the chest beside me. Show it to me, and I will reveal to you the trials you may undertake to receive my boon.
- **14508**: The $3 I entrusted to you will record your exploits for up to ten trials at any given time, kupo.
- **14509**: Be aware that certain extraordinary weapons entail exclusive trials. Such details and more may be confirmed by requesting of me a list of available trials.
- **14510**: Should you successfully complete an assigned trial, return and present your target weapon to me to substantiate your success.
- **14511**: If I deem that you have completed my challenge in good order, you shall receive your reward right then and there, kupo!
- **14512**: Now, this is important enough that I shall say it twice, even thrice: at the end of your trial, you must trade to me the very same weapon you submitted at the start.
- **14513**: Lose this weapon and all your hard-won successes will be for naught. You must avoid such a grievous gaffe at all costs, kupo.
- **14515**: Kupo-ho! Is that $0 I see? Why, yes... I could fashion a fitting trial or two for you, kupo.
- **14516**: Are you absolutely, positively sure that you want to undertake Trial $0, kupo?
- **14517**: Undertake Trial $0? [I am ready./Perhaps another time.]
- **14518**: Excellent, kupo! Now, to invoke a simple incantation, and...
- **14519**: Your $3 is now recording the progress of your trials!
- **14520**: Through the marvel of moogle magic, your exploits will be recorded without you having to so much as lift a quill! And just in case you're the forgetful type...
- **14521**: A trial insignia has been inscribed upon your $0!
- **14522**: Note: You may not undertake a different trial with an already-inscribed weapon.
- **14523**: Kupo-oh? Might your mind be muddled, my friend? You're already attempting that trial.
- **14524**: Kupo... I fear this item is ill-suited for the trial you wish to undertake.
- **14525**: Why, every page in your $3 is full!
- **14526**: You must complete or abandon one of your current trials before undertaking another, kupo.
- **14527**: Kupo...oh? It would seem I have no trials pertaining to that particular piece of weaponry.
- **14528**: As I advised you previously, my sole specialty is weapons. I have not the moogle magic at my disposal to augment items of this variety, kupo...
- **14529**: You are already undertaking Trial $1 with that $0.
- **14530**: You have done well, kupo.
- **14531**: The Magian Mooglehood recognizes your feats, and proffers you now a portion of our ancestral powers.
- **14532**: Ready yourself to receive our boon...
- **14533**: There is a sudden flash of light as potent moogle magic surges through the $0!
- **14534**: The deed is done, kupo.
- **14535**: Know, adventurer, that the $0 you now hold is no mere earthly arm. Nay, it is an empyrean weapon--an artifact birthed of the heavens, possessed of such power as to transcend even time and space.
- **14536**: Supreme strength, lost for ages to even the most hallowed heroes of your world, now lies at your disposal. Use it well, kupo.
- **14537**: With great kupower comes great responsibility. Wield our gift wisely, that the world may be saved and King Kupofried's noble aims brought to fruition!
- **14538**: Choose a trial to '[review/undertake]. [Trial $0./Trial $1./Trial $2./Trial $3./Trial $4./Trial $5./Trial $6./Trial $7./Trial $8./Trial $9./Trial $10./Trial $11./Trial $12./Trial $13./Trial $14./Trial $15./'[Return/Cancel].]
- **14542**: Just a moment, kupo...
- **14543**: Here is all you need to know about Trial $0, kupo.
- **14544**: You will need this item to begin the trial, kupo.
- **14545**: You will be rewarded with this item upon your triumphant return, kupo!
- **14547**: You must dispose of the $0 in your possession before I can confer upon you another one.
- **14549**: Warning: Completing this trial will result in an increase in the level requirement for the target item.
- **14550**: Ah, so you wish to review your $3 whilst adventuring, do you? A most reasonable request, kupo.
- **14551**: Sadly, Magian Mooglehood protocol dictates that all trial progress be recorded in archaic moogleglyphs that are, I fear, illegible to your unenlightened eye.
- **14552**: That is where this $1 comes into play. Outfitted with this marvel of moogle technology, why, even the most slow-witted snoll could decipher moogleglyphs as effortlessly as if he were King Kupofried himself!
- **14553**: What's more, its owner will also gain access to the Moogle's Almanack. With the secrets of weather prognostication contained therein, you'll never be a victim to capricious changes in the elements again!
- **14554**: For only a small donation of $2 gil, it is yours. All proceeds go toward the Kupalikan United Preservationsists Overseeing History and Orthography (KUPOHO)--a commendable cause, I'm sure you'll agree.
- **14555**: Donate $2 gil, kupo? [Donate./Not today.]
- **14556**: Ah well. Perhaps another time, kupo.
- **14557**: * Warning * An item currently in your possession may prevent you from receiving the reward item for the trial you have selected.

## Events

### Event 65535

#### Metadata

| Field        | Value   |
|--------------|---------|
| Entrypoint   | 0x0000  |
| Data Size    | 1 bytes |
| Instructions | 1       |

```
      00 01 02 03 04 05 06 07  08 09 0A 0B 0C 0D 0E 0F
      -- -- -- -- -- -- -- --  -- -- -- -- -- -- -- --
0000: 00                                                .               
```

#### Opcodes

```
  0: 0x0000 [0x00] END_REQSTACK()
```

### Event 10121

#### Metadata

| Field        | Value    |
|--------------|----------|
| Entrypoint   | 0x0001   |
| Data Size    | 26 bytes |
| Instructions | 9        |

```
      00 01 02 03 04 05 06 07  08 09 0A 0B 0C 0D 0E 0F
      -- -- -- -- -- -- -- --  -- -- -- -- -- -- -- --
0000:    2E 1E F0 FF FF 7F 79  00 F8 FF FF 7F F0 FF FF   ......y........
0010: 7F 1D 00 80 23 1D 01 80  23 21 00                 ....#...#!.     
```

#### Opcodes

```
  0: 0x0001 [0x2E] SET_CLI_EVENT_CANCEL_FLAGS()
  1: 0x0002 [0x1E] EventEntity looks at LocalPlayer and starts talking
  2: 0x0007 [0x79] EventEntity looks at LocalPlayer (Basic look)
  3: 0x0011 [0x1D] PRINT_EVENT_MESSAGE(message_id=14466*)
     "Kupo-ho! Another adventurer has found [his/her] way to my domain. Was it my aura of superior sagacity that led you here? This conspicuous crate and chest that sit seductively at my side?"
  4: 0x0014 [0x23] WAIT_FOR_DIALOG_INTERACTION
  5: 0x0015 [0x1D] PRINT_EVENT_MESSAGE(message_id=14467*)
     "Many secrets have I to tell, but sadly, they would be beyond your meager mental faculties to fathom. Return when your abilities are up to the task."
  6: 0x0018 [0x23] WAIT_FOR_DIALOG_INTERACTION
  7: 0x0019 [0x21] END_EVENT
  8: 0x001A [0x00] END_REQSTACK()
```

### Event 10122

#### Metadata

| Field        | Value     |
|--------------|-----------|
| Entrypoint   | 0x001B    |
| Data Size    | 112 bytes |
| Instructions | 28        |

```
      00 01 02 03 04 05 06 07  08 09 0A 0B 0C 0D 0E 0F
      -- -- -- -- -- -- -- --  -- -- -- -- -- -- -- --
0010:                                   2E 1E F0 FF FF             .....
0020: 7F 79 00 F8 FF FF 7F F0  FF FF 7F 29 80 EB 30 0F  .y.........)..0.
0030: 01 09 1C 02 80 1D 00 80  23 1D 03 80 23 1A 79 03  ........#...#.y.
0040: 1D 04 80 23 24 05 80 06  80 06 80 25 02 00 10 06  ...#$......%....
0050: 80 00 7B 00 1D 07 80 23  29 80 EB 30 0F 01 0A 45  ..{....#)..0...E
0060: 08 80 F0 FF FF 7F F0 FF  FF 7F 71 73 74 63 06 80  ..........qstc..
0070: 1C 09 80 03 01 10 0A 80  01 89 00 1D 0B 80 23 29  ..............#)
0080: 80 EB 30 0F 01 0A 06 01  10 21 00                 ..0......!.     
```

#### Opcodes

```
  0: 0x001B [0x2E] SET_CLI_EVENT_CANCEL_FLAGS()
  1: 0x001C [0x1E] EventEntity looks at LocalPlayer and starts talking
  2: 0x0021 [0x79] EventEntity looks at LocalPlayer (Basic look)
  3: 0x002B [0x29] REQ_SET_WAIT(priority=0x80, entity_id=Unnamed NPC (ID: 17772779/0x010F30EB), tag_num=0x09)
  4: 0x0032 [0x1C] WAIT(60* ticks)
  5: 0x0035 [0x1D] PRINT_EVENT_MESSAGE(message_id=14466*)
     "Kupo-ho! Another adventurer has found [his/her] way to my domain. Was it my aura of superior sagacity that led you here? This conspicuous crate and chest that sit seductively at my side?"
  6: 0x0038 [0x23] WAIT_FOR_DIALOG_INTERACTION
  7: 0x0039 [0x1D] PRINT_EVENT_MESSAGE(message_id=14468*)
     "It is no matter. What matters is that you are here, and from the look of it, you are a suitable subject for the task I would entrust to you."
  8: 0x003C [0x23] WAIT_FOR_DIALOG_INTERACTION
  9: 0x003D [0x1A] CALL_SUBROUTINE(address=0x0379)
 10: 0x0040 [0x1D] PRINT_EVENT_MESSAGE(message_id=14479*)
     "What say you, adventurer? Will you undertake the Trial of the Magians, that you might one day wield the mightiest of moogle magic to save your realm from destruction and devastation?"
 11: 0x0043 [0x23] WAIT_FOR_DIALOG_INTERACTION
 12: 0x0044 [0x24] CREATE_DIALOG(message_id=14480*, default_option=0*, option_flags=0*)
     "Tackle the Trial of the Magians, kupo? [Will I ever!/Maybe another time...]"
 13: 0x004B [0x25] WAIT_DIALOG_SELECT()
 14: 0x004C [0x02] IF !(Work_Zone[0] == 0*) GOTO 0x007B
 15: 0x0054 [0x1D] PRINT_EVENT_MESSAGE(message_id=14481*)
     "Excellent. Then my first gift unto you shall be this: a journal that shall serve to record all of your extraordinary exploits."
 16: 0x0057 [0x23] WAIT_FOR_DIALOG_INTERACTION
 17: 0x0058 [0x29] REQ_SET_WAIT(priority=0x80, entity_id=Unnamed NPC (ID: 17772779/0x010F30EB), tag_num=0x0A)
 18: 0x005F [0x45] LOAD_SCHEDULED_TASK: Load scheduler "qstc" with entities [LocalPlayer, LocalPlayer], work=[201*, 0*]
 19: 0x0070 [0x1C] WAIT(30* ticks)
 20: 0x0073 [0x03] Work_Zone[1] = 1*
 21: 0x0078 [0x01] GOTO 0x0089
 22: 0x007B [0x1D] PRINT_EVENT_MESSAGE(message_id=14482*)
     "We understand, for with great kupower comes great responsibility. Should you ever be willing to bear the burden, we shall welcome your return."
 23: 0x007E [0x23] WAIT_FOR_DIALOG_INTERACTION
 24: 0x007F [0x29] REQ_SET_WAIT(priority=0x80, entity_id=Unnamed NPC (ID: 17772779/0x010F30EB), tag_num=0x0A)
 25: 0x0086 [0x06] Work_Zone[1] = 0

SUBROUTINE_0089:
 26: 0x0089 [0x21] END_EVENT
 27: 0x008A [0x00] END_REQSTACK()
```

### Event 10123

#### Metadata

| Field        | Value     |
|--------------|-----------|
| Entrypoint   | 0x008B    |
| Data Size    | 226 bytes |
| Instructions | 55        |

```
      00 01 02 03 04 05 06 07  08 09 0A 0B 0C 0D 0E 0F
      -- -- -- -- -- -- -- --  -- -- -- -- -- -- -- --
0080:                                   2E 1E F0 FF FF             .....
0090: 7F 79 00 F8 FF FF 7F F0  FF FF 7F 29 80 EB 30 0F  .y.........)..0.
00A0: 01 09 1C 02 80 1D 00 80  23 1D 0C 80 23 06 2D 00  ........#...#.-.
00B0: 02 09 10 06 80 00 C6 00  3C 2D 00 06 80 0A 80 3C  ........<-.....<
00C0: 2D 00 0A 80 0A 80 02 0A  80 0A 80 00 6B 01 24 0D  -...........k.$.
00D0: 80 06 80 2D 00 25 02 00  10 06 80 00 E4 00 1A 9E  ...-.%..........
00E0: 03 01 68 01 02 00 10 0A  80 00 F3 00 1A C6 03 2E  ..h.............
00F0: 01 68 01 02 00 10 0E 80  00 01 01 1A EB 05 01 68  .h.............h
0100: 01 02 00 10 0F 80 00 0F  01 1A 17 03 01 68 01 02  .............h..
0110: 00 10 10 80 00 66 01 03  02 10 11 80 03 03 10 12  .....f..........
0120: 80 03 04 10 13 80 1D 14  80 23 1D 15 80 23 1D 16  .........#...#..
0130: 80 23 1D 17 80 23 1D 18  80 23 24 19 80 0A 80 06  .#...#...#$.....
0140: 80 25 02 00 10 06 80 00  54 01 03 01 10 1A 80 21  .%......T......!
0150: 00 01 63 01 02 00 10 0A  80 00 63 01 1D 1B 80 23  ..c.......c....#
0160: 01 63 01 01 68 01 21 00  01 C6 00 21 00           .c..h.!....!.   
```

#### Opcodes

```
  0: 0x008B [0x2E] SET_CLI_EVENT_CANCEL_FLAGS()
  1: 0x008C [0x1E] EventEntity looks at LocalPlayer and starts talking
  2: 0x0091 [0x79] EventEntity looks at LocalPlayer (Basic look)
  3: 0x009B [0x29] REQ_SET_WAIT(priority=0x80, entity_id=Unnamed NPC (ID: 17772779/0x010F30EB), tag_num=0x09)
  4: 0x00A2 [0x1C] WAIT(60* ticks)
  5: 0x00A5 [0x1D] PRINT_EVENT_MESSAGE(message_id=14466*)
     "Kupo-ho! Another adventurer has found [his/her] way to my domain. Was it my aura of superior sagacity that led you here? This conspicuous crate and chest that sit seductively at my side?"
  6: 0x00A8 [0x23] WAIT_FOR_DIALOG_INTERACTION
  7: 0x00A9 [0x1D] PRINT_EVENT_MESSAGE(message_id=14483*)
     "You, who would inherit the mysteries of the magians...speak unto me your wish, kupo."
  8: 0x00AC [0x23] WAIT_FOR_DIALOG_INTERACTION
  9: 0x00AD [0x06] ExtData[1]->WorkLocal[45] = 0
 10: 0x00B0 [0x02] IF !(Work_Zone[9] == 0*) GOTO 0x00C6
 11: 0x00B8 [0x3C] SET_BIT_FLAG_CONDITIONAL(target_work_offset=ExtData[1]->WorkLocal[45], bit_index_work_offset=0*, condition_work_offset=1*)
 12: 0x00BF [0x3C] SET_BIT_FLAG_CONDITIONAL(target_work_offset=ExtData[1]->WorkLocal[45], bit_index_work_offset=1*, condition_work_offset=1*)
 13: 0x00C6 [0x02] IF !(1* == 1*) GOTO 0x016B
 14: 0x00CE [0x24] CREATE_DIALOG(message_id=14484*, default_option=0*, option_flags=ExtData[1]->WorkLocal[45])
     "Choose your action: [Review current trial./Abandon current trial./List available trials./Ask for aid./Ask about roaming trial log./Move on.]"
 15: 0x00D5 [0x25] WAIT_DIALOG_SELECT()
 16: 0x00D6 [0x02] IF !(Work_Zone[0] == 0*) GOTO 0x00E4
 17: 0x00DE [0x1A] CALL_SUBROUTINE(address=0x039E)
 18: 0x00E1 [0x01] GOTO 0x0168
 19: 0x00E4 [0x02] IF !(Work_Zone[0] == 1*) GOTO 0x00F3
 20: 0x00EC [0x1A] CALL_SUBROUTINE(address=0x03C6)
 21: 0x00EF [0x2E] SET_CLI_EVENT_CANCEL_FLAGS()
 22: 0x00F0 [0x01] GOTO 0x0168
 23: 0x00F3 [0x02] IF !(Work_Zone[0] == 2*) GOTO 0x0101
 24: 0x00FB [0x1A] CALL_SUBROUTINE(address=0x05EB)
 25: 0x00FE [0x01] GOTO 0x0168
 26: 0x0101 [0x02] IF !(Work_Zone[0] == 3*) GOTO 0x010F
 27: 0x0109 [0x1A] CALL_SUBROUTINE(address=0x0317)
 28: 0x010C [0x01] GOTO 0x0168
 29: 0x010F [0x02] IF !(Work_Zone[0] == 4*) GOTO 0x0166
 30: 0x0117 [0x03] Work_Zone[2] = 1261*
 31: 0x011C [0x03] Work_Zone[3] = 5768*
 32: 0x0121 [0x03] Work_Zone[4] = 5000*
 33: 0x0126 [0x1D] PRINT_EVENT_MESSAGE(message_id=14550*)
     "Ah, so you wish to review your $3 whilst adventuring, do you? A most reasonable request, kupo."
 34: 0x0129 [0x23] WAIT_FOR_DIALOG_INTERACTION
 35: 0x012A [0x1D] PRINT_EVENT_MESSAGE(message_id=14551*)
     "Sadly, Magian Mooglehood protocol dictates that all trial progress be recorded in archaic moogleglyphs that are, I fear, illegible to your unenlightened eye."
 36: 0x012D [0x23] WAIT_FOR_DIALOG_INTERACTION
 37: 0x012E [0x1D] PRINT_EVENT_MESSAGE(message_id=14552*)
     "That is where this $1 comes into play. Outfitted with this marvel of moogle technology, why, even the most slow-witted snoll could decipher moogleglyphs as effortlessly as if he were King Kupofried himself!"
 38: 0x0131 [0x23] WAIT_FOR_DIALOG_INTERACTION
 39: 0x0132 [0x1D] PRINT_EVENT_MESSAGE(message_id=14553*)
     "What's more, its owner will also gain access to the Moogle's Almanack. With the secrets of weather prognostication contained therein, you'll never be a victim to capricious changes in the elements again!"
 40: 0x0135 [0x23] WAIT_FOR_DIALOG_INTERACTION
 41: 0x0136 [0x1D] PRINT_EVENT_MESSAGE(message_id=14554*)
     "For only a small donation of $2 gil, it is yours. All proceeds go toward the Kupalikan United Preservationsists Overseeing History and Orthography (KUPOHO)--a commendable cause, I'm sure you'll agree."
 42: 0x0139 [0x23] WAIT_FOR_DIALOG_INTERACTION
 43: 0x013A [0x24] CREATE_DIALOG(message_id=14555*, default_option=1*, option_flags=0*)
     "Donate $2 gil, kupo? [Donate./Not today.]"
 44: 0x0141 [0x25] WAIT_DIALOG_SELECT()
 45: 0x0142 [0x02] IF !(Work_Zone[0] == 0*) GOTO 0x0154
 46: 0x014A [0x03] Work_Zone[1] = 250*
 47: 0x014F [0x21] END_EVENT
 48: 0x0150 [0x00] END_REQSTACK()

SUBROUTINE_0163:
 49: 0x0163 [0x01] GOTO 0x0168
 50: 0x0166 [0x21] END_EVENT
 51: 0x0167 [0x00] END_REQSTACK()

SUBROUTINE_0168:
 52: 0x0168 [0x01] GOTO 0x00C6
 53: 0x016B [0x21] END_EVENT
 54: 0x016C [0x00] END_REQSTACK()
```

#### Data or dead code:

```
# Dead code (unreachable instructions):
     0x0151 [0x01] GOTO 0x0163
```

### Event 10124

#### Metadata

| Field        | Value      |
|--------------|------------|
| Entrypoint   | 0x016D     |
| Data Size    | 4838 bytes |
| Instructions | 381        |

```
      00 01 02 03 04 05 06 07  08 09 0A 0B 0C 0D 0E 0F
      -- -- -- -- -- -- -- --  -- -- -- -- -- -- -- --
0160:                                         2E 1E F0               ...
0170: FF FF 7F 79 00 F8 FF FF  7F F0 FF FF 7F 02 09 10  ...y............
0180: 06 80 80 AB 01 29 80 EB  30 0F 01 09 1C 02 80 03  .....)..0.......
0190: 1A 00 02 10 03 1B 00 03  10 03 1C 00 04 10 03 1D  ................
01A0: 00 05 10 03 1E 00 07 10  01 29 02 02 09 10 1C 80  .........)......
01B0: 80 C1 01 1D 1D 80 23 03  01 10 1C 80 21 00 01 29  ......#.....!..)
01C0: 02 02 09 10 1E 80 80 D7  01 1D 1F 80 23 03 01 10  ............#...
01D0: 1C 80 21 00 01 29 02 02  09 10 20 80 80 ED 01 1D  ..!..).... .....
01E0: 1D 80 23 03 01 10 1C 80  21 00 01 29 02 02 09 10  ..#.....!..)....
01F0: 21 80 80 03 02 1D 22 80  23 03 01 10 1C 80 21 00  !.....".#.....!.
0200: 01 29 02 02 09 10 23 80  80 1E 02 03 02 10 11 80  .)....#.........
0210: 1D 24 80 23 03 01 10 1C  80 21 00 01 29 02 1D 25  .$.#.....!..)..%
0220: 80 23 03 01 10 1C 80 21  00 03 02 10 1E 00 1D 26  .#.....!.......&
0230: 80 23 06 2D 00 02 1A 00  06 80 00 44 02 3C 2D 00  .#.-.......D.<-.
0240: 06 80 0A 80 02 1B 00 06  80 00 53 02 3C 2D 00 0A  ..........S.<-..
0250: 80 0A 80 02 1C 00 06 80  00 62 02 3C 2D 00 0E 80  .........b.<-...
0260: 0A 80 02 1D 00 06 80 00  71 02 3C 2D 00 0F 80 0A  ........q.<-....
0270: 80 0E 2D 00 27 80 02 0A  80 0A 80 00 15 03 03 02  ..-.'...........
0280: 10 1A 00 03 03 10 1B 00  03 04 10 1C 00 03 05 10  ................
0290: 1D 00 03 1F 17 0A 80 24  28 80 06 80 2D 00 25 02  .......$(...-.%.
02A0: 00 10 06 80 00 AF 02 03  22 00 1A 00 01 F8 02 02  ........".......
02B0: 00 10 0A 80 00 BF 02 03  22 00 1B 00 01 F8 02 02  ........".......
02C0: 00 10 0E 80 00 CF 02 03  22 00 1C 00 01 F8 02 02  ........".......
02D0: 00 10 0F 80 00 DF 02 03  22 00 1D 00 01 F8 02 02  ........".......
02E0: 00 10 29 80 00 F1 02 03  01 10 1C 80 21 00 01 F8  ..).........!...
02F0: 02 03 01 10 1C 80 21 00  1A D2 0D 02 22 00 06 80  ......!....."...
0300: 00 08 03 21 00 01 12 03  02 22 00 1E 80 00 12 03  ...!....."......
0310: 21 00 01 76 02 21 00 02  0A 80 0A 80 00 78 03 24  !..v.!.......x.$
0320: 2A 80 06 80 06 80 25 02  00 10 06 80 00 39 03 1D  *.....%......9..
0330: 2B 80 23 1A 79 03 01 75  03 02 00 10 0A 80 00 59  +.#.y..u.......Y
0340: 03 1D 2C 80 23 1D 2D 80  23 03 02 10 11 80 1D 2E  ..,.#.-.#.......
0350: 80 23 1D 2F 80 23 01 75  03 02 00 10 0E 80 00 74  .#./.#.u.......t
0360: 03 1D 30 80 23 1D 31 80  23 1D 32 80 23 1D 33 80  ..0.#.1.#.2.#.3.
0370: 23 01 75 03 1B 01 17 03  1B 1D 34 80 23 1D 35 80  #.u.......4.#.5.
0380: 23 1D 36 80 23 1D 37 80  23 1D 38 80 23 1D 39 80  #.6.#.7.#.8.#.9.
0390: 23 1D 3A 80 23 1D 3B 80  23 1D 3C 80 23 1B 02 0A  #.:.#.;.#.<.#...
03A0: 80 0A 80 00 C5 03 03 22  00 06 80 1A 98 04 02 22  ......."......."
03B0: 00 1C 80 00 BA 03 1B 01  C2 03 03 2E 00 0A 80 1A  ................
03C0: DC 08 01 9E 03 1B 02 0A  80 0A 80 00 97 04 03 22  ..............."
03D0: 00 0A 80 1A 98 04 02 22  00 1C 80 00 E2 03 1B 01  ......."........
03E0: 94 04 02 22 00 1E 80 00  EF 03 48 3D 80 23 1B 1D  ..."......H=.#..
03F0: 3E 80 23 24 3F 80 06 80  06 80 25 02 00 10 0A 80  >.#$?.....%.....
0400: 00 93 04 42 03 02 10 11  80 1D 40 80 23 AD 02 41  ...B......@.#..A
0410: 80 F8 FF FF 7F F0 FF FF  7F 1C 42 80 03 01 10 43  ..........B....C
0420: 80 40 44 80 45 80 01 10  22 00 43 00 43 01 02 09  .@D.E...".C.C...
0430: 10 06 80 00 6D 04 03 02  10 22 00 48 46 80 23 1D  ....m....".HF.#.
0440: 47 80 23 1D 48 80 23 03  01 10 49 80 43 00 43 01  G.#.H.#...I.C.C.
0450: 06 2D 00 02 09 10 06 80  00 69 04 3C 2D 00 06 80  .-.......i.<-...
0460: 0A 80 3C 2D 00 0A 80 0A  80 1B 01 90 04 02 09 10  ..<-............
0470: 1C 80 00 7C 04 1D 4A 80  23 01 90 04 02 09 10 1E  ...|..J.#.......
0480: 80 00 8B 04 48 4B 80 23  01 90 04 1D 25 80 23 1B  ....HK.#....%.#.
0490: 01 94 04 1B 01 C6 03 1B  03 01 10 49 80 43 00 43  ...........I.C.C
04A0: 01 02 09 10 06 80 00 AF  04 03 22 00 1E 80 1B 41  .........."....A
04B0: 06 80 4C 80 02 10 16 17  41 29 80 45 80 02 10 17  ..L.....A).E....
04C0: 17 41 06 80 4C 80 03 10  18 17 41 29 80 45 80 03  .A..L.....A).E..
04D0: 10 19 17 41 06 80 4C 80  04 10 1A 17 41 29 80 45  ...A..L.....A).E
04E0: 80 04 10 1B 17 41 06 80  4C 80 05 10 1C 17 41 29  .....A..L.....A)
04F0: 80 45 80 05 10 1D 17 41  06 80 4C 80 06 10 1E 17  .E.....A..L.....
0500: 41 29 80 45 80 06 10 1F  17 06 20 00 03 27 00 06  A).E...... ..'..
0510: 80 02 27 00 4D 80 03 38  05 02 09 10 27 00 02 2B  ..'.M..8....'..+
0520: 05 3D 20 00 27 00 0A 80  01 32 05 3C 20 00 27 00  .= .'....2.< .'.
0530: 0A 80 0B 27 00 01 11 05  03 07 10 22 00 24 4E 80  ...'.......".$N.
0540: 06 80 20 00 25 02 00 10  06 80 00 55 05 03 22 00  .. .%......U..".
0550: 16 17 01 EA 05 02 00 10  0A 80 00 65 05 03 22 00  ...........e..".
0560: 17 17 01 EA 05 02 00 10  0E 80 00 75 05 03 22 00  ...........u..".
0570: 18 17 01 EA 05 02 00 10  0F 80 00 85 05 03 22 00  ..............".
0580: 19 17 01 EA 05 02 00 10  10 80 00 95 05 03 22 00  ..............".
0590: 1A 17 01 EA 05 02 00 10  49 80 00 A5 05 03 22 00  ........I.....".
05A0: 1B 17 01 EA 05 02 00 10  43 80 00 B5 05 03 22 00  ........C.....".
05B0: 1C 17 01 EA 05 02 00 10  4F 80 00 C5 05 03 22 00  ........O.....".
05C0: 1D 17 01 EA 05 02 00 10  44 80 00 D5 05 03 22 00  ........D.....".
05D0: 1E 17 01 EA 05 02 00 10  50 80 00 E5 05 03 22 00  ........P.....".
05E0: 1F 17 01 EA 05 03 22 00  1C 80 1B 03 2A 00 1C 80  ......".....*...
05F0: 06 2C 00 02 0A 80 0A 80  00 59 07 06 29 00 24 51  .,.......Y..).$Q
0600: 80 06 80 06 80 25 02 00  10 06 80 00 11 06 01 10  .....%..........
0610: 07 02 00 10 0A 80 00 1C  06 01 10 07 02 00 10 0E  ................
0620: 80 00 27 06 01 10 07 02  00 10 0F 80 00 32 06 01  ..'..........2..
0630: 10 07 02 00 10 10 80 00  3D 06 01 10 07 02 00 10  ........=.......
0640: 49 80 00 48 06 01 10 07  02 00 10 43 80 00 53 06  I..H.......C..S.
0650: 01 10 07 02 00 10 4F 80  00 5E 06 01 10 07 02 00  ......O..^......
0660: 10 44 80 00 69 06 01 10  07 02 00 10 50 80 00 74  .D..i.......P..t
0670: 06 01 10 07 02 00 10 4D  80 00 7F 06 01 10 07 02  .......M........
0680: 00 10 52 80 00 8A 06 01  10 07 02 00 10 53 80 00  ..R..........S..
0690: 95 06 01 10 07 02 00 10  54 80 00 A0 06 01 10 07  ........T.......
06A0: 02 00 10 55 80 00 AB 06  01 10 07 02 00 10 4C 80  ...U..........L.
06B0: 00 0F 07 71 10 0A 80 71  11 22 00 02 22 00 06 80  ...q...q.".."...
06C0: 04 CE 06 02 22 00 56 80  05 CE 06 01 43 07 02 22  ....".V.....C.."
06D0: 00 57 80 04 E1 06 02 22  00 57 80 05 E1 06 01 43  .W.....".W.....C
06E0: 07 02 22 00 57 80 04 F4  06 02 22 00 57 80 05 F4  ..".W.....".W...
06F0: 06 01 43 07 02 22 00 57  80 04 07 07 02 22 00 57  ..C..".W.....".W
0700: 80 05 07 07 01 43 07 1D  4A 80 23 1B 01 10 07 1B  .....C..J.#.....
0710: 03 2A 00 00 10 1A 5A 07  03 1F 17 06 80 24 28 80  .*....Z......$(.
0720: 2C 00 22 00 25 02 00 10  29 80 00 36 07 03 2C 00  ,.".%...)..6..,.
0730: 06 80 1B 01 36 07 03 2C  00 00 10 9D 00 BC 08 22  ....6..,......."
0740: 00 00 10 03 2E 00 06 80  1A DC 08 02 2A 00 06 80  ............*...
0750: 04 56 07 01 15 07 01 F3  05 1B 06 27 00 06 23 00  .V.........'..#.
0760: 06 25 00 02 27 00 29 80  03 B6 08 02 23 00 06 80  .%..'.).....#...
0770: 00 93 08 02 2A 00 06 80  80 86 07 9D 00 63 0F 24  ....*........c.$
0780: 00 27 00 01 90 08 02 2A  00 0A 80 80 99 07 9D 00  .'.....*........
0790: 43 0F 24 00 27 00 01 90  08 02 2A 00 0E 80 80 AC  C.$.'.....*.....
07A0: 07 9D 00 83 0F 24 00 27  00 01 90 08 02 2A 00 0F  .....$.'.....*..
07B0: 80 80 BF 07 9D 00 A3 0F  24 00 27 00 01 90 08 02  ........$.'.....
07C0: 2A 00 10 80 80 D2 07 9D  00 B3 0F 24 00 27 00 01  *..........$.'..
07D0: 90 08 02 2A 00 49 80 80  E5 07 9D 00 D3 0F 24 00  ...*.I........$.
07E0: 27 00 01 90 08 02 2A 00  43 80 80 F8 07 9D 00 13  '.....*.C.......
07F0: 10 24 00 27 00 01 90 08  02 2A 00 4F 80 80 0B 08  .$.'.....*.O....
0800: 9D 00 F3 0F 24 00 27 00  01 90 08 02 2A 00 44 80  ....$.'.....*.D.
0810: 80 1E 08 9D 00 33 10 24  00 27 00 01 90 08 02 2A  .....3.$.'.....*
0820: 00 50 80 80 31 08 9D 00  53 10 24 00 27 00 01 90  .P..1...S.$.'...
0830: 08 02 2A 00 4D 80 80 44  08 9D 00 73 10 24 00 27  ..*.M..D...s.$.'
0840: 00 01 90 08 02 2A 00 52  80 80 57 08 9D 00 93 10  .....*.R..W.....
0850: 24 00 27 00 01 90 08 02  2A 00 53 80 80 6A 08 9D  $.'.....*.S..j..
0860: 00 D3 10 24 00 27 00 01  90 08 02 2A 00 54 80 80  ...$.'.....*.T..
0870: 7D 08 9D 00 B3 10 24 00  27 00 01 90 08 02 2A 00  }.....$.'.....*.
0880: 55 80 80 90 08 9D 00 33  14 24 00 27 00 01 90 08  U......3.$.'....
0890: 01 96 08 06 24 00 9D 05  BC 08 24 00 27 00 02 24  ....$.....$.'..$
08A0: 00 06 80 00 B0 08 05 23  00 3C 25 00 27 00 0A 80  .......#.<%.'...
08B0: 0B 27 00 01 63 07 03 22  00 25 00 1B 02 10 03 10  .'..c..".%......
08C0: 04 10 05 10 06 10 07 10  08 10 09 10 00 17 01 17  ................
08D0: 02 17 03 17 04 17 05 17  06 17 07 17 06 30 00 03  .............0..
08E0: 2F 00 2E 00 03 00 00 22  00 06 21 00 03 14 00 22  /......"..!...."
08F0: 00 1D 58 80 03 01 10 0A  80 40 29 80 45 80 01 10  ..X......@).E...
0900: 14 00 43 00 43 01 02 09  10 06 80 03 18 09 1D 4A  ..C.C..........J
0910: 80 23 03 30 00 1C 80 1B  03 02 00 02 10 03 03 00  .#.0............
0920: 03 10 03 04 00 04 10 03  01 00 05 10 03 09 00 08  ................
0930: 10 07 09 00 59 80 03 0A  00 08 10 07 0A 00 5A 80  ....Y.........Z.
0940: 03 0B 00 08 10 07 0B 00  5B 80 03 01 10 0E 80 40  ........[......@
0950: 29 80 45 80 01 10 14 00  43 00 43 01 02 02 10 06  ).E.....C.C.....
0960: 80 00 6E 09 1D 4A 80 23  03 30 00 1C 80 1B 03 0C  ..n..J.#.0......
0970: 00 02 10 03 0D 00 03 10  03 0E 00 04 10 03 0F 00  ................
0980: 05 10 03 10 00 06 10 03  11 00 07 10 03 12 00 08  ................
0990: 10 03 13 00 09 10 03 01  10 0F 80 40 29 80 45 80  ...........@).E.
09A0: 01 10 14 00 43 00 43 01  02 09 10 06 80 03 BA 09  ....C.C.........
09B0: 1D 4A 80 23 03 30 00 1C  80 1B 03 06 00 02 10 03  .J.#.0..........
09C0: 07 00 03 10 03 08 00 04  10 03 05 00 05 10 03 01  ................
09D0: 10 10 80 40 29 80 45 80  01 10 14 00 43 00 43 01  ...@).E.....C.C.
09E0: 02 09 10 06 80 03 F2 09  1D 4A 80 23 03 30 00 1C  .........J.#.0..
09F0: 80 1B 03 16 00 02 10 03  17 00 03 10 03 18 00 04  ................
0A00: 10 03 19 00 05 10 03 15  00 06 10 03 02 10 14 00  ................
0A10: 1D 5C 80 23 06 20 00 02  15 00 06 80 00 37 0A 02  .\.#. .......7..
0A20: 16 00 06 80 00 2F 0A 03  22 00 5D 80 01 34 0A 03  ...../..".]..4..
0A30: 22 00 5E 80 01 4C 0A 02  16 00 06 80 00 47 0A 03  ".^..L.......G..
0A40: 22 00 5F 80 01 4C 0A 03  22 00 60 80 02 2F 00 06  "._..L..".`../..
0A50: 80 00 5E 0A 3D 20 00 06  80 0A 80 01 65 0A 3C 20  ..^.= ......e.< 
0A60: 00 06 80 0A 80 02 17 00  06 80 00 77 0A 3C 20 00  ...........w.< .
0A70: 4F 80 0A 80 01 7E 0A 3D  20 00 4F 80 0A 80 02 18  O....~.= .O.....
0A80: 00 06 80 00 90 0A 3C 20  00 44 80 0A 80 01 97 0A  ......< .D......
0A90: 3D 20 00 44 80 0A 80 02  19 00 06 80 00 A9 0A 3C  = .D...........<
0AA0: 20 00 50 80 0A 80 01 B0  0A 3D 20 00 50 80 0A 80   .P......= .P...
0AB0: 3E 21 00 06 80 C1 0A 3D  20 00 4D 80 0A 80 01 C8  >!.....= .M.....
0AC0: 0A 3C 20 00 4D 80 0A 80  02 0A 80 0A 80 00 D1 0D  .< .M...........
0AD0: 03 02 10 14 00 03 03 10  15 00 03 04 10 16 00 03  ................
0AE0: 05 10 17 00 03 06 10 18  00 03 07 10 19 00 03 08  ................
0AF0: 10 01 00 03 09 10 05 00  24 22 00 06 80 20 00 25  ........$"... .%
0B00: 02 00 10 06 80 80 93 0B  02 02 00 06 80 00 40 0B  ..............@.
0B10: 02 03 00 06 80 00 33 0B  02 04 00 06 80 00 26 0B  ......3.......&.
0B20: 93 01 00 01 30 0B CC 01  01 00 02 00 03 00 04 00  ....0...........
0B30: 01 3D 0B CC 01 01 00 02  00 03 00 04 00 01 4A 0B  .=............J.
0B40: CC 01 01 00 02 00 03 00  04 00 1D 61 80 23 02 02  ...........a.#..
0B50: 00 06 80 00 86 0B 02 03  00 06 80 00 79 0B 02 04  ............y...
0B60: 00 06 80 00 6C 0B 93 06  80 01 76 0B CC 01 06 80  ....l.....v.....
0B70: 06 80 06 80 06 80 01 83  0B CC 01 06 80 06 80 06  ................
0B80: 80 06 80 01 90 0B CC 01  06 80 06 80 06 80 06 80  ................
0B90: 01 CE 0D 02 00 10 0A 80  80 DD 0B 03 02 10 0C 00  ................
0BA0: 03 03 10 0D 00 03 04 10  0E 00 03 05 10 0F 00 03  ................
0BB0: 06 10 10 00 03 07 10 11  00 03 08 10 12 00 03 09  ................
0BC0: 10 13 00 48 09 00 23 02  2F 00 06 80 00 D6 0B 48  ...H..#./......H
0BD0: 0A 00 23 01 DA 0B 48 0B  00 23 01 CE 0D 02 00 10  ..#...H..#......
0BE0: 0E 80 80 70 0C 02 06 00  06 80 00 1D 0C 02 07 00  ...p............
0BF0: 06 80 00 10 0C 02 08 00  06 80 00 03 0C 93 05 00  ................
0C00: 01 0D 0C CC 01 05 00 06  00 07 00 08 00 01 1A 0C  ................
0C10: CC 01 05 00 06 00 07 00  08 00 01 27 0C CC 01 05  ...........'....
0C20: 00 06 00 07 00 08 00 1D  62 80 23 02 06 00 06 80  ........b.#.....
0C30: 00 63 0C 02 07 00 06 80  00 56 0C 02 08 00 06 80  .c.......V......
0C40: 00 49 0C 93 06 80 01 53  0C CC 01 06 80 06 80 06  .I.....S........
0C50: 80 06 80 01 60 0C CC 01  06 80 06 80 06 80 06 80  ....`...........
0C60: 01 6D 0C CC 01 06 80 06  80 06 80 06 80 01 CE 0D  .m..............
0C70: 02 00 10 0F 80 80 7B 0C  01 CE 0D 02 00 10 10 80  ......{.........
0C80: 80 B4 0C 02 15 00 06 80  01 B1 0C 03 22 00 15 00  ............"...
0C90: 02 22 00 00 00 01 A2 0C  3C 21 00 06 80 0A 80 01  ."......<!......
0CA0: A9 0C 3D 21 00 06 80 0A  80 03 2F 00 06 80 01 EC  ..=!....../.....
0CB0: 08 01 CE 0D 02 00 10 49  80 80 BF 0C 01 CE 0D 02  .......I........
0CC0: 00 10 43 80 80 F8 0C 02  16 00 06 80 01 F5 0C 03  ..C.............
0CD0: 22 00 16 00 02 22 00 00  00 01 E6 0C 3C 21 00 06  "...."......<!..
0CE0: 80 0A 80 01 ED 0C 3D 21  00 06 80 0A 80 03 2F 00  ......=!....../.
0CF0: 06 80 01 EC 08 01 CE 0D  02 00 10 4F 80 80 31 0D  ...........O..1.
0D00: 02 17 00 06 80 01 2E 0D  03 22 00 17 00 02 22 00  ........."....".
0D10: 00 00 01 1F 0D 3C 21 00  06 80 0A 80 01 26 0D 3D  .....<!......&.=
0D20: 21 00 06 80 0A 80 03 2F  00 06 80 01 EC 08 01 CE  !....../........
0D30: 0D 02 00 10 44 80 80 6A  0D 02 18 00 06 80 01 67  ....D..j.......g
0D40: 0D 03 22 00 18 00 02 22  00 00 00 01 58 0D 3C 21  .."...."....X.<!
0D50: 00 06 80 0A 80 01 5F 0D  3D 21 00 06 80 0A 80 03  ......_.=!......
0D60: 2F 00 06 80 01 EC 08 01  CE 0D 02 00 10 50 80 80  /............P..
0D70: A3 0D 02 19 00 06 80 01  A0 0D 03 22 00 19 00 02  ..........."....
0D80: 22 00 00 00 01 91 0D 3C  21 00 06 80 0A 80 01 98  "......<!.......
0D90: 0D 3D 21 00 06 80 0A 80  03 2F 00 06 80 01 EC 08  .=!....../......
0DA0: 01 CE 0D 02 00 10 4D 80  80 C2 0D 03 22 00 00 00  ......M....."...
0DB0: 3D 21 00 06 80 0A 80 03  2F 00 2E 00 01 EC 08 01  =!....../.......
0DC0: CE 0D 02 00 10 52 80 80  CE 0D 1B 01 CE 0D 01 C8  .....R..........
0DD0: 0A 1B 03 2E 00 06 80 1A  DC 08 02 30 00 06 80 01  ...........0....
0DE0: EB 0D 03 22 00 1C 80 1B  01 EB 0D 03 01 10 54 80  ..."..........T.
0DF0: 40 44 80 45 80 01 10 00  00 43 00 43 01 02 09 10  @D.E.....C.C....
0E00: 06 80 00 19 0E 02 02 10  06 80 00 10 0E 01 16 0E  ................
0E10: 48 63 80 1C 02 80 01 19  0E 03 01 10 55 80 40 44  Hc..........U.@D
0E20: 80 45 80 01 10 00 00 43  00 43 01 02 02 10 06 80  .E.....C.C......
0E30: 00 36 0E 01 3C 0E 48 64  80 1C 02 80 03 02 10 00  .6..<.Hd........
0E40: 00 1D 65 80 23 24 66 80  0A 80 06 80 25 02 00 10  ..e.#$f.....%...
0E50: 06 80 00 3D 0F 42 03 01  10 4F 80 40 44 80 45 80  ...=.B...O.@D.E.
0E60: 01 10 00 00 43 00 43 01  02 09 10 06 80 80 00 0F  ....C.C.........
0E70: 03 05 00 05 10 03 06 00  02 10 03 07 00 03 10 03  ................
0E80: 08 00 04 10 1D 67 80 23  2C F8 FF FF 7F F8 FF FF  .....g.#,.......
0E90: 7F 68 61 70 30 AD 02 68  80 F8 FF FF 7F F0 FF FF  .hap0..h........
0EA0: 7F 1C 42 80 2C F8 FF FF  7F F8 FF FF 7F 68 61 70  ..B.,........hap
0EB0: 31 03 02 10 11 80 48 69  80 23 1D 6A 80 23 2C F8  1.....Hi.#.j.#,.
0EC0: FF FF 7F F8 FF FF 7F 68  61 70 30 AD 02 6B 80 F8  .......hap0..k..
0ED0: FF FF 7F F0 FF FF 7F 1C  42 80 2C F8 FF FF 7F F8  ........B.,.....
0EE0: FF FF 7F 68 61 70 31 03  02 10 05 00 48 6C 80 23  ...hap1.....Hl.#
0EF0: 48 6D 80 23 1D 6E 80 23  03 22 00 06 80 01 3A 0F  Hm.#.n.#."....:.
0F00: 02 09 10 1C 80 80 14 0F  1D 6F 80 23 03 22 00 1C  .........o.#."..
0F10: 80 01 3A 0F 02 09 10 1E  80 80 31 0F 03 02 10 11  ..:.......1.....
0F20: 80 1D 24 80 23 1D 70 80  23 03 22 00 1E 80 01 3A  ..$.#.p.#."....:
0F30: 0F 1D 4A 80 23 03 22 00  20 80 01 42 0F 03 22 00  ..J.#.". ..B..".
0F40: 0A 80 1B 0E 80 29 80 71  80 72 80 73 80 74 80 75  .....).q.r.s.t.u
0F50: 80 76 80 77 80 78 80 79  80 7A 80 7B 80 06 80 06  .v.w.x.y.z.{....
0F60: 80 06 80 7C 80 7D 80 7E  80 7F 80 80 80 81 80 82  ...|.}.~........
0F70: 80 83 80 84 80 85 80 86  80 06 80 06 80 06 80 06  ................
0F80: 80 06 80 87 80 88 80 89  80 8A 80 8B 80 8C 80 8D  ................
0F90: 80 8E 80 8F 80 90 80 91  80 92 80 93 80 06 80 06  ................
0FA0: 80 06 80 94 80 95 80 96  80 97 80 98 80 99 80 9A  ................
0FB0: 80 06 80 9B 80 9C 80 9D  80 9E 80 9F 80 A0 80 A1  ................
0FC0: 80 A2 80 A3 80 06 80 06  80 06 80 06 80 06 80 06  ................
0FD0: 80 06 80 A4 80 A5 80 A6  80 A7 80 A8 80 A9 80 AA  ................
0FE0: 80 AB 80 AC 80 06 80 06  80 06 80 06 80 06 80 06  ................
0FF0: 80 06 80 AD 80 AE 80 AF  80 B0 80 B1 80 B2 80 B3  ................
1000: 80 B4 80 B5 80 06 80 06  80 06 80 06 80 06 80 06  ................
1010: 80 06 80 B6 80 B7 80 B8  80 B9 80 BA 80 BB 80 BC  ................
1020: 80 BD 80 BE 80 06 80 06  80 06 80 06 80 06 80 06  ................
1030: 80 06 80 BF 80 C0 80 C1  80 C2 80 C3 80 C4 80 C5  ................
1040: 80 C6 80 C7 80 06 80 06  80 06 80 06 80 06 80 06  ................
1050: 80 06 80 C8 80 C9 80 CA  80 CB 80 CC 80 CD 80 CE  ................
1060: 80 CF 80 D0 80 06 80 06  80 06 80 06 80 06 80 06  ................
1070: 80 06 80 D1 80 D2 80 D3  80 D4 80 D5 80 D6 80 D7  ................
1080: 80 D8 80 D9 80 06 80 06  80 06 80 06 80 06 80 06  ................
1090: 80 06 80 DA 80 DB 80 DC  80 DD 80 DE 80 DF 80 E0  ................
10A0: 80 E1 80 E2 80 E3 80 E4  80 E5 80 E6 80 06 80 06  ................
10B0: 80 06 80 E7 80 E8 80 E9  80 EA 80 EB 80 EC 80 ED  ................
10C0: 80 EE 80 EF 80 F0 80 F1  80 06 80 06 80 06 80 06  ................
10D0: 80 06 80 F2 80 F3 80 F4  80 F5 80 F6 80 F7 80 F8  ................
10E0: 80 06 80 F9 80 FA 80 FB  80 FC 80 FD 80 FE 80 FF  ................
10F0: 80 00 81 01 81 02 81 03  81 04 81 05 81 06 81 07  ................
1100: 81 08 81 09 81 0A 81 0B  81 0C 81 0D 81 0E 81 0F  ................
1110: 81 10 81 11 81 12 81 13  81 14 81 15 81 16 81 17  ................
1120: 81 18 81 19 81 1A 81 1B  81 1C 81 1D 81 1E 81 1F  ................
1130: 81 20 81 21 81 22 81 23  81 24 81 25 81 26 81 27  . .!.".#.$.%.&.'
1140: 81 28 81 29 81 2A 81 2B  81 2C 81 2D 81 2E 81 2F  .(.).*.+.,.-.../
1150: 81 30 81 31 81 32 81 33  81 34 81 35 81 36 81 37  .0.1.2.3.4.5.6.7
1160: 81 38 81 39 81 3A 81 3B  81 3C 81 3D 81 3E 81 3F  .8.9.:.;.<.=.>.?
1170: 81 40 81 41 81 42 81 43  81 44 81 45 81 46 81 47  .@.A.B.C.D.E.F.G
1180: 81 48 81 49 81 4A 81 4B  81 4C 81 4D 81 4E 81 4F  .H.I.J.K.L.M.N.O
1190: 81 50 81 51 81 52 81 53  81 54 81 55 81 56 81 57  .P.Q.R.S.T.U.V.W
11A0: 81 58 81 59 81 5A 81 5B  81 5C 81 5D 81 5E 81 5F  .X.Y.Z.[.\.].^._
11B0: 81 60 81 61 81 62 81 63  81 64 81 65 81 66 81 67  .`.a.b.c.d.e.f.g
11C0: 81 68 81 69 81 6A 81 6B  81 6C 81 6D 81 6E 81 6F  .h.i.j.k.l.m.n.o
11D0: 81 70 81 71 81 72 81 73  81 74 81 75 81 76 81 77  .p.q.r.s.t.u.v.w
11E0: 81 78 81 79 81 7A 81 7B  81 7C 81 7D 81 7E 81 7F  .x.y.z.{.|.}.~..
11F0: 81 80 81 81 81 82 81 83  81 84 81 85 81 86 81 87  ................
1200: 81 88 81 89 81 8A 81 8B  81 8C 81 8D 81 13 80 8E  ................
1210: 81 8F 81 90 81 91 81 92  81 93 81 94 81 95 81 96  ................
1220: 81 97 81 98 81 99 81 9A  81 9B 81 9C 81 9D 81 9E  ................
1230: 81 9F 81 A0 81 A1 81 A2  81 A3 81 A4 81 A5 81 A6  ................
1240: 81 A7 81 A8 81 A9 81 AA  81 AB 81 AC 81 AD 81 AE  ................
1250: 81 AF 81 B0 81 B1 81 B2  81 B3 81 B4 81 B5 81 B6  ................
1260: 81 B7 81 B8 81 B9 81 BA  81 BB 81 BC 81 BD 81 BE  ................
1270: 81 BF 81 C0 81 C1 81 C2  81 C3 81 C4 81 C5 81 C6  ................
1280: 81 C7 81 C8 81 C9 81 CA  81 CB 81 CC 81 CD 81 CE  ................
1290: 81 CF 81 D0 81 D1 81 D2  81 D3 81 D4 81 D5 81 D6  ................
12A0: 81 D7 81 D8 81 D9 81 DA  81 DB 81 DC 81 DD 81 DE  ................
12B0: 81 DF 81 E0 81 E1 81 E2  81 E3 81 E4 81 E5 81 E6  ................
12C0: 81 E7 81 E8 81 E9 81 EA  81 EB 81 EC 81 ED 81 EE  ................
12D0: 81 EF 81 F0 81 F1 81 F2  81 F3 81 F4 81 F5 81 F6  ................
12E0: 81 F7 81 F8 81 F9 81 FA  81 FB 81 FC 81 FD 81 FE  ................
12F0: 81 FF 81 00 82 01 82 02  82 03 82 04 82 05 82 06  ................
1300: 82 07 82 08 82 09 82 0A  82 0B 82 0C 82 0D 82 0E  ................
1310: 82 0F 82 10 82 11 82 12  82 13 82 14 82 15 82 16  ................
1320: 82 17 82 18 82 19 82 1A  82 1B 82 1C 82 1D 82 1E  ................
1330: 82 1F 82 20 82 21 82 22  82 23 82 24 82 25 82 26  ... .!.".#.$.%.&
1340: 82 27 82 28 82 29 82 2A  82 2B 82 2C 82 2D 82 2E  .'.(.).*.+.,.-..
1350: 82 2F 82 30 82 31 82 32  82 33 82 34 82 35 82 36  ./.0.1.2.3.4.5.6
1360: 82 37 82 38 82 39 82 3A  82 3B 82 3C 82 3D 82 3E  .7.8.9.:.;.<.=.>
1370: 82 3F 82 40 82 41 82 42  82 43 82 44 82 45 82 46  .?.@.A.B.C.D.E.F
1380: 82 47 82 48 82 49 82 4A  82 4B 82 4C 82 4D 82 4E  .G.H.I.J.K.L.M.N
1390: 82 4F 82 50 82 51 82 52  82 53 82 54 82 55 82 56  .O.P.Q.R.S.T.U.V
13A0: 82 57 82 58 82 59 82 5A  82 5B 82 5C 82 5D 82 5E  .W.X.Y.Z.[.\.].^
13B0: 82 5F 82 60 82 61 82 62  82 63 82 64 82 65 82 66  ._.`.a.b.c.d.e.f
13C0: 82 67 82 68 82 69 82 6A  82 6B 82 6C 82 6D 82 6E  .g.h.i.j.k.l.m.n
13D0: 82 6F 82 70 82 71 82 72  82 73 82 74 82 75 82 76  .o.p.q.r.s.t.u.v
13E0: 82 77 82 78 82 79 82 7A  82 7B 82 7C 82 7D 82 7E  .w.x.y.z.{.|.}.~
13F0: 82 7F 82 80 82 81 82 82  82 83 82 84 82 85 82 86  ................
1400: 82 87 82 88 82 89 82 8A  82 8B 82 8C 82 8D 82 8E  ................
1410: 82 8F 82 90 82 91 82 92  82 93 82 94 82 95 82 96  ................
1420: 82 97 82 98 82 99 82 9A  82 9B 82 06 80 06 80 06  ................
1430: 80 06 80 9C 82 9D 82 06  80 06 80 06 80 06 80 06  ................
1440: 80 06 80 9E 82 9F 82 06  80 06 80 06 80 06 80 06  ................
1450: 80 06 80                                          ...             
```

#### Opcodes

```
  0: 0x016D [0x2E] SET_CLI_EVENT_CANCEL_FLAGS()
  1: 0x016E [0x1E] EventEntity looks at LocalPlayer and starts talking
  2: 0x0173 [0x79] EventEntity looks at LocalPlayer (Basic look)
  3: 0x017D [0x02] IF !(Work_Zone[9] == 0*) GOTO 0x01AB
  4: 0x0185 [0x29] REQ_SET_WAIT(priority=0x80, entity_id=Unnamed NPC (ID: 17772779/0x010F30EB), tag_num=0x09)
  5: 0x018C [0x1C] WAIT(60* ticks)
  6: 0x018F [0x03] ExtData[1]->WorkLocal[26] = Work_Zone[2]
  7: 0x0194 [0x03] ExtData[1]->WorkLocal[27] = Work_Zone[3]
  8: 0x0199 [0x03] ExtData[1]->WorkLocal[28] = Work_Zone[4]
  9: 0x019E [0x03] ExtData[1]->WorkLocal[29] = Work_Zone[5]
 10: 0x01A3 [0x03] ExtData[1]->WorkLocal[30] = Work_Zone[7]
 11: 0x01A8 [0x01] GOTO 0x0229
 12: 0x01AB [0x02] IF !(Work_Zone[9] == 4294967295*) GOTO 0x01C1
 13: 0x01B3 [0x1D] PRINT_EVENT_MESSAGE(message_id=14527*)
     "Kupo...oh? It would seem I have no trials pertaining to that particular piece of weaponry."
 14: 0x01B6 [0x23] WAIT_FOR_DIALOG_INTERACTION
 15: 0x01B7 [0x03] Work_Zone[1] = 4294967295*
 16: 0x01BC [0x21] END_EVENT
 17: 0x01BD [0x00] END_REQSTACK()

SUBROUTINE_0229:
 18: 0x0229 [0x03] Work_Zone[2] = ExtData[1]->WorkLocal[30]
 19: 0x022E [0x1D] PRINT_EVENT_MESSAGE(message_id=14515*)
     "Kupo-ho! Is that $0 I see? Why, yes... I could fashion a fitting trial or two for you, kupo."
 20: 0x0231 [0x23] WAIT_FOR_DIALOG_INTERACTION
 21: 0x0232 [0x06] ExtData[1]->WorkLocal[45] = 0
 22: 0x0235 [0x02] IF !(ExtData[1]->WorkLocal[26] == 0*) GOTO 0x0244
 23: 0x023D [0x3C] SET_BIT_FLAG_CONDITIONAL(target_work_offset=ExtData[1]->WorkLocal[45], bit_index_work_offset=0*, condition_work_offset=1*)
 24: 0x0244 [0x02] IF !(ExtData[1]->WorkLocal[27] == 0*) GOTO 0x0253
 25: 0x024C [0x3C] SET_BIT_FLAG_CONDITIONAL(target_work_offset=ExtData[1]->WorkLocal[45], bit_index_work_offset=1*, condition_work_offset=1*)
 26: 0x0253 [0x02] IF !(ExtData[1]->WorkLocal[28] == 0*) GOTO 0x0262
 27: 0x025B [0x3C] SET_BIT_FLAG_CONDITIONAL(target_work_offset=ExtData[1]->WorkLocal[45], bit_index_work_offset=2*, condition_work_offset=1*)
 28: 0x0262 [0x02] IF !(ExtData[1]->WorkLocal[29] == 0*) GOTO 0x0271
 29: 0x026A [0x3C] SET_BIT_FLAG_CONDITIONAL(target_work_offset=ExtData[1]->WorkLocal[45], bit_index_work_offset=3*, condition_work_offset=1*)
 30: 0x0271 [0x0E] ExtData[1]->WorkLocal[45] |= 65520*

SUBROUTINE_0276:
 31: 0x0276 [0x02] IF !(1* == 1*) GOTO 0x0315
 32: 0x027E [0x03] Work_Zone[2] = ExtData[1]->WorkLocal[26]
 33: 0x0283 [0x03] Work_Zone[3] = ExtData[1]->WorkLocal[27]
 34: 0x0288 [0x03] Work_Zone[4] = ExtData[1]->WorkLocal[28]
 35: 0x028D [0x03] Work_Zone[5] = ExtData[1]->WorkLocal[29]
 36: 0x0292 [0x03] Work_Zone_1700[31] = 1*
 37: 0x0297 [0x24] CREATE_DIALOG(message_id=14538*, default_option=0*, option_flags=ExtData[1]->WorkLocal[45])
     "Choose a trial to '[review/undertake]. [Trial $0./Trial $1./Trial $2./Trial $3./Trial $4./Trial $5./Trial $6./Trial $7./Trial $8./Trial $9./Trial $10./Trial $11./Trial $12./Trial $13./Trial $14./Trial $15./'[Return/Cancel].]"
 38: 0x029E [0x25] WAIT_DIALOG_SELECT()
 39: 0x029F [0x02] IF !(Work_Zone[0] == 0*) GOTO 0x02AF
 40: 0x02A7 [0x03] ExtData[1]->WorkLocal[34] = ExtData[1]->WorkLocal[26]
 41: 0x02AC [0x01] GOTO 0x02F8
 42: 0x02AF [0x02] IF !(Work_Zone[0] == 1*) GOTO 0x02BF
 43: 0x02B7 [0x03] ExtData[1]->WorkLocal[34] = ExtData[1]->WorkLocal[27]
 44: 0x02BC [0x01] GOTO 0x02F8
 45: 0x02BF [0x02] IF !(Work_Zone[0] == 2*) GOTO 0x02CF
 46: 0x02C7 [0x03] ExtData[1]->WorkLocal[34] = ExtData[1]->WorkLocal[28]
 47: 0x02CC [0x01] GOTO 0x02F8
 48: 0x02CF [0x02] IF !(Work_Zone[0] == 3*) GOTO 0x02DF
 49: 0x02D7 [0x03] ExtData[1]->WorkLocal[34] = ExtData[1]->WorkLocal[29]
 50: 0x02DC [0x01] GOTO 0x02F8
 51: 0x02DF [0x02] IF !(Work_Zone[0] == 16*) GOTO 0x02F1
 52: 0x02E7 [0x03] Work_Zone[1] = 4294967295*
 53: 0x02EC [0x21] END_EVENT
 54: 0x02ED [0x00] END_REQSTACK()

SUBROUTINE_02F8:
 55: 0x02F8 [0x1A] CALL_SUBROUTINE(address=0x0DD2)
 56: 0x02FB [0x02] IF !(ExtData[1]->WorkLocal[34] == 0*) GOTO 0x0308
 57: 0x0303 [0x21] END_EVENT
 58: 0x0304 [0x00] END_REQSTACK()

SUBROUTINE_0312:
 59: 0x0312 [0x01] GOTO 0x0276
 60: 0x0315 [0x21] END_EVENT
 61: 0x0316 [0x00] END_REQSTACK()

SUBROUTINE_08EC:
 62: 0x08EC [0x03] ExtData[1]->WorkLocal[20] = ExtData[1]->WorkLocal[34]
 63: 0x08F1 [0x1D] PRINT_EVENT_MESSAGE(message_id=14542*)
     "Just a moment, kupo..."
 64: 0x08F4 [0x03] Work_Zone[1] = 1*
 65: 0x08F9 [0x40] SET_BIT_WORK_RANGE(start_bit=16*, end_bit=31*, target=Work_Zone[1], source=ExtData[1]->WorkLocal[20])
 66: 0x0902 [0x43] SEND_EVENT_UPDATE: Send pending tag to server (packet 0x005B)
 67: 0x0904 [0x43] SEND_EVENT_UPDATE: Check pending flag (skip if not pending)
 68: 0x0906 [0x02] IF !(Work_Zone[9] >= 0*) GOTO 0x0918
 69: 0x090E [0x1D] PRINT_EVENT_MESSAGE(message_id=14503*)
     "Kupo-ho...ho? I know of no such trial. And given the immense nature of my intellect, that means it could not possibly exist."
 70: 0x0911 [0x23] WAIT_FOR_DIALOG_INTERACTION
 71: 0x0912 [0x03] ExtData[1]->WorkLocal[48] = 4294967295*
 72: 0x0917 [0x1B] RETURN
 73: 0x0918 [0x03] ExtData[1]->WorkLocal[2] = Work_Zone[2]
 74: 0x091D [0x03] ExtData[1]->WorkLocal[3] = Work_Zone[3]
 75: 0x0922 [0x03] ExtData[1]->WorkLocal[4] = Work_Zone[4]
 76: 0x0927 [0x03] ExtData[1]->WorkLocal[1] = Work_Zone[5]
 77: 0x092C [0x03] ExtData[1]->WorkLocal[9] = Work_Zone[8]
 78: 0x0931 [0x07] ExtData[1]->WorkLocal[9] += 370*
 79: 0x0936 [0x03] ExtData[1]->WorkLocal[10] = Work_Zone[8]
 80: 0x093B [0x07] ExtData[1]->WorkLocal[10] += 2418*
 81: 0x0940 [0x03] ExtData[1]->WorkLocal[11] = Work_Zone[8]
 82: 0x0945 [0x07] ExtData[1]->WorkLocal[11] += 4466*
 83: 0x094A [0x03] Work_Zone[1] = 2*
 84: 0x094F [0x40] SET_BIT_WORK_RANGE(start_bit=16*, end_bit=31*, target=Work_Zone[1], source=ExtData[1]->WorkLocal[20])
 85: 0x0958 [0x43] SEND_EVENT_UPDATE: Send pending tag to server (packet 0x005B)
 86: 0x095A [0x43] SEND_EVENT_UPDATE: Check pending flag (skip if not pending)
 87: 0x095C [0x02] IF !(Work_Zone[2] == 0*) GOTO 0x096E
 88: 0x0964 [0x1D] PRINT_EVENT_MESSAGE(message_id=14503*)
     "Kupo-ho...ho? I know of no such trial. And given the immense nature of my intellect, that means it could not possibly exist."
 89: 0x0967 [0x23] WAIT_FOR_DIALOG_INTERACTION
 90: 0x0968 [0x03] ExtData[1]->WorkLocal[48] = 4294967295*
 91: 0x096D [0x1B] RETURN
 92: 0x096E [0x03] ExtData[1]->WorkLocal[12] = Work_Zone[2]
 93: 0x0973 [0x03] ExtData[1]->WorkLocal[13] = Work_Zone[3]
 94: 0x0978 [0x03] ExtData[1]->WorkLocal[14] = Work_Zone[4]
 95: 0x097D [0x03] ExtData[1]->WorkLocal[15] = Work_Zone[5]
 96: 0x0982 [0x03] ExtData[1]->WorkLocal[16] = Work_Zone[6]
 97: 0x0987 [0x03] ExtData[1]->WorkLocal[17] = Work_Zone[7]
 98: 0x098C [0x03] ExtData[1]->WorkLocal[18] = Work_Zone[8]
 99: 0x0991 [0x03] ExtData[1]->WorkLocal[19] = Work_Zone[9]
100: 0x0996 [0x03] Work_Zone[1] = 3*
101: 0x099B [0x40] SET_BIT_WORK_RANGE(start_bit=16*, end_bit=31*, target=Work_Zone[1], source=ExtData[1]->WorkLocal[20])
102: 0x09A4 [0x43] SEND_EVENT_UPDATE: Send pending tag to server (packet 0x005B)
103: 0x09A6 [0x43] SEND_EVENT_UPDATE: Check pending flag (skip if not pending)
104: 0x09A8 [0x02] IF !(Work_Zone[9] >= 0*) GOTO 0x09BA
105: 0x09B0 [0x1D] PRINT_EVENT_MESSAGE(message_id=14503*)
     "Kupo-ho...ho? I know of no such trial. And given the immense nature of my intellect, that means it could not possibly exist."
106: 0x09B3 [0x23] WAIT_FOR_DIALOG_INTERACTION
107: 0x09B4 [0x03] ExtData[1]->WorkLocal[48] = 4294967295*
108: 0x09B9 [0x1B] RETURN
109: 0x09BA [0x03] ExtData[1]->WorkLocal[6] = Work_Zone[2]
110: 0x09BF [0x03] ExtData[1]->WorkLocal[7] = Work_Zone[3]
111: 0x09C4 [0x03] ExtData[1]->WorkLocal[8] = Work_Zone[4]
112: 0x09C9 [0x03] ExtData[1]->WorkLocal[5] = Work_Zone[5]
113: 0x09CE [0x03] Work_Zone[1] = 4*
114: 0x09D3 [0x40] SET_BIT_WORK_RANGE(start_bit=16*, end_bit=31*, target=Work_Zone[1], source=ExtData[1]->WorkLocal[20])
115: 0x09DC [0x43] SEND_EVENT_UPDATE: Send pending tag to server (packet 0x005B)
116: 0x09DE [0x43] SEND_EVENT_UPDATE: Check pending flag (skip if not pending)
117: 0x09E0 [0x02] IF !(Work_Zone[9] >= 0*) GOTO 0x09F2
118: 0x09E8 [0x1D] PRINT_EVENT_MESSAGE(message_id=14503*)
     "Kupo-ho...ho? I know of no such trial. And given the immense nature of my intellect, that means it could not possibly exist."
119: 0x09EB [0x23] WAIT_FOR_DIALOG_INTERACTION
120: 0x09EC [0x03] ExtData[1]->WorkLocal[48] = 4294967295*
121: 0x09F1 [0x1B] RETURN
122: 0x09F2 [0x03] ExtData[1]->WorkLocal[22] = Work_Zone[2]
123: 0x09F7 [0x03] ExtData[1]->WorkLocal[23] = Work_Zone[3]
124: 0x09FC [0x03] ExtData[1]->WorkLocal[24] = Work_Zone[4]
125: 0x0A01 [0x03] ExtData[1]->WorkLocal[25] = Work_Zone[5]
126: 0x0A06 [0x03] ExtData[1]->WorkLocal[21] = Work_Zone[6]
127: 0x0A0B [0x03] Work_Zone[2] = ExtData[1]->WorkLocal[20]
128: 0x0A10 [0x1D] PRINT_EVENT_MESSAGE(message_id=14543*)
     "Here is all you need to know about Trial $0, kupo."
129: 0x0A13 [0x23] WAIT_FOR_DIALOG_INTERACTION
130: 0x0A14 [0x06] ExtData[1]->WorkLocal[32] = 0
131: 0x0A17 [0x02] IF !(ExtData[1]->WorkLocal[21] == 0*) GOTO 0x0A37
132: 0x0A1F [0x02] IF !(ExtData[1]->WorkLocal[22] == 0*) GOTO 0x0A2F
133: 0x0A27 [0x03] ExtData[1]->WorkLocal[34] = 14744*
134: 0x0A2C [0x01] GOTO 0x0A34
135: 0x0A2F [0x03] ExtData[1]->WorkLocal[34] = 14540*

SUBROUTINE_0A34:
136: 0x0A34 [0x01] GOTO 0x0A4C
137: 0x0A37 [0x02] IF !(ExtData[1]->WorkLocal[22] == 0*) GOTO 0x0A47
138: 0x0A3F [0x03] ExtData[1]->WorkLocal[34] = 14541*
139: 0x0A44 [0x01] GOTO 0x0A4C
140: 0x0A47 [0x03] ExtData[1]->WorkLocal[34] = 14539*

SUBROUTINE_0A4C:
141: 0x0A4C [0x02] IF !(ExtData[1]->WorkLocal[47] == 0*) GOTO 0x0A5E
142: 0x0A54 [0x3D] CLEAR_BIT_FLAG_CONDITIONAL(target_work_offset=ExtData[1]->WorkLocal[32], bit_index_work_offset=0*, condition_work_offset=1*)
143: 0x0A5B [0x01] GOTO 0x0A65
144: 0x0A5E [0x3C] SET_BIT_FLAG_CONDITIONAL(target_work_offset=ExtData[1]->WorkLocal[32], bit_index_work_offset=0*, condition_work_offset=1*)

SUBROUTINE_0A65:
145: 0x0A65 [0x02] IF !(ExtData[1]->WorkLocal[23] == 0*) GOTO 0x0A77
146: 0x0A6D [0x3C] SET_BIT_FLAG_CONDITIONAL(target_work_offset=ExtData[1]->WorkLocal[32], bit_index_work_offset=7*, condition_work_offset=1*)
147: 0x0A74 [0x01] GOTO 0x0A7E
148: 0x0A77 [0x3D] CLEAR_BIT_FLAG_CONDITIONAL(target_work_offset=ExtData[1]->WorkLocal[32], bit_index_work_offset=7*, condition_work_offset=1*)

SUBROUTINE_0A7E:
149: 0x0A7E [0x02] IF !(ExtData[1]->WorkLocal[24] == 0*) GOTO 0x0A90
150: 0x0A86 [0x3C] SET_BIT_FLAG_CONDITIONAL(target_work_offset=ExtData[1]->WorkLocal[32], bit_index_work_offset=8*, condition_work_offset=1*)
151: 0x0A8D [0x01] GOTO 0x0A97
152: 0x0A90 [0x3D] CLEAR_BIT_FLAG_CONDITIONAL(target_work_offset=ExtData[1]->WorkLocal[32], bit_index_work_offset=8*, condition_work_offset=1*)

SUBROUTINE_0A97:
153: 0x0A97 [0x02] IF !(ExtData[1]->WorkLocal[25] == 0*) GOTO 0x0AA9
154: 0x0A9F [0x3C] SET_BIT_FLAG_CONDITIONAL(target_work_offset=ExtData[1]->WorkLocal[32], bit_index_work_offset=9*, condition_work_offset=1*)
155: 0x0AA6 [0x01] GOTO 0x0AB0
156: 0x0AA9 [0x3D] CLEAR_BIT_FLAG_CONDITIONAL(target_work_offset=ExtData[1]->WorkLocal[32], bit_index_work_offset=9*, condition_work_offset=1*)

SUBROUTINE_0AB0:
157: 0x0AB0 [0x3E] IF !(ExtData[1]->WorkLocal[33] bit 0*) GOTO 0x0AC1
158: 0x0AB7 [0x3D] CLEAR_BIT_FLAG_CONDITIONAL(target_work_offset=ExtData[1]->WorkLocal[32], bit_index_work_offset=10*, condition_work_offset=1*)
159: 0x0ABE [0x01] GOTO 0x0AC8
160: 0x0AC1 [0x3C] SET_BIT_FLAG_CONDITIONAL(target_work_offset=ExtData[1]->WorkLocal[32], bit_index_work_offset=10*, condition_work_offset=1*)

SUBROUTINE_0AC8:
161: 0x0AC8 [0x02] IF !(1* == 1*) GOTO 0x0DD1
162: 0x0AD0 [0x03] Work_Zone[2] = ExtData[1]->WorkLocal[20]
163: 0x0AD5 [0x03] Work_Zone[3] = ExtData[1]->WorkLocal[21]
164: 0x0ADA [0x03] Work_Zone[4] = ExtData[1]->WorkLocal[22]
165: 0x0ADF [0x03] Work_Zone[5] = ExtData[1]->WorkLocal[23]
166: 0x0AE4 [0x03] Work_Zone[6] = ExtData[1]->WorkLocal[24]
167: 0x0AE9 [0x03] Work_Zone[7] = ExtData[1]->WorkLocal[25]
168: 0x0AEE [0x03] Work_Zone[8] = ExtData[1]->WorkLocal[1]
169: 0x0AF3 [0x03] Work_Zone[9] = ExtData[1]->WorkLocal[5]
170: 0x0AF8 [0x24] CREATE_DIALOG(message_id=ExtData[1]->WorkLocal[34], default_option=0*, option_flags=ExtData[1]->WorkLocal[32])
171: 0x0AFF [0x25] WAIT_DIALOG_SELECT()
172: 0x0B00 [0x02] IF !(Work_Zone[0] == 0*) GOTO 0x0B93
173: 0x0B08 [0x02] IF !(ExtData[1]->WorkLocal[2] == 0*) GOTO 0x0B40
174: 0x0B10 [0x02] IF !(ExtData[1]->WorkLocal[3] == 0*) GOTO 0x0B33
175: 0x0B18 [0x02] IF !(ExtData[1]->WorkLocal[4] == 0*) GOTO 0x0B26
176: 0x0B20 [0x93] DISPLAY_ITEM_INFO(item_id=ExtData[1]->WorkLocal[1])
177: 0x0B23 [0x01] GOTO 0x0B30
178: 0x0B26 [0xCC] ITEM_INFO_WINDOW_HANDLER(case=0x01 - Open item info window (with chase), check_value=ExtData[1]->WorkLocal[1], buffer1=ExtData[1]->WorkLocal[2], buffer2=ExtData[1]->WorkLocal[3], buffer3=ExtData[1]->WorkLocal[4])

SUBROUTINE_0B30:
179: 0x0B30 [0x01] GOTO 0x0B3D
180: 0x0B33 [0xCC] ITEM_INFO_WINDOW_HANDLER(case=0x01 - Open item info window (with chase), check_value=ExtData[1]->WorkLocal[1], buffer1=ExtData[1]->WorkLocal[2], buffer2=ExtData[1]->WorkLocal[3], buffer3=ExtData[1]->WorkLocal[4])

SUBROUTINE_0B3D:
181: 0x0B3D [0x01] GOTO 0x0B4A
182: 0x0B40 [0xCC] ITEM_INFO_WINDOW_HANDLER(case=0x01 - Open item info window (with chase), check_value=ExtData[1]->WorkLocal[1], buffer1=ExtData[1]->WorkLocal[2], buffer2=ExtData[1]->WorkLocal[3], buffer3=ExtData[1]->WorkLocal[4])

SUBROUTINE_0B4A:
183: 0x0B4A [0x1D] PRINT_EVENT_MESSAGE(message_id=14544*)
     "You will need this item to begin the trial, kupo."
184: 0x0B4D [0x23] WAIT_FOR_DIALOG_INTERACTION
185: 0x0B4E [0x02] IF !(ExtData[1]->WorkLocal[2] == 0*) GOTO 0x0B86
186: 0x0B56 [0x02] IF !(ExtData[1]->WorkLocal[3] == 0*) GOTO 0x0B79
187: 0x0B5E [0x02] IF !(ExtData[1]->WorkLocal[4] == 0*) GOTO 0x0B6C
188: 0x0B66 [0x93] DISPLAY_ITEM_INFO(item_id=0*)
189: 0x0B69 [0x01] GOTO 0x0B76
190: 0x0B6C [0xCC] ITEM_INFO_WINDOW_HANDLER(case=0x01 - Open item info window (with chase), check_value=0*, buffer1=0*, buffer2=0*, buffer3=0*)

SUBROUTINE_0B76:
191: 0x0B76 [0x01] GOTO 0x0B83
192: 0x0B79 [0xCC] ITEM_INFO_WINDOW_HANDLER(case=0x01 - Open item info window (with chase), check_value=0*, buffer1=0*, buffer2=0*, buffer3=0*)

SUBROUTINE_0B83:
193: 0x0B83 [0x01] GOTO 0x0B90
194: 0x0B86 [0xCC] ITEM_INFO_WINDOW_HANDLER(case=0x01 - Open item info window (with chase), check_value=0*, buffer1=0*, buffer2=0*, buffer3=0*)

SUBROUTINE_0B90:
195: 0x0B90 [0x01] GOTO 0x0DCE
196: 0x0B93 [0x02] IF !(Work_Zone[0] == 1*) GOTO 0x0BDD
197: 0x0B9B [0x03] Work_Zone[2] = ExtData[1]->WorkLocal[12]
198: 0x0BA0 [0x03] Work_Zone[3] = ExtData[1]->WorkLocal[13]
199: 0x0BA5 [0x03] Work_Zone[4] = ExtData[1]->WorkLocal[14]
200: 0x0BAA [0x03] Work_Zone[5] = ExtData[1]->WorkLocal[15]
201: 0x0BAF [0x03] Work_Zone[6] = ExtData[1]->WorkLocal[16]
202: 0x0BB4 [0x03] Work_Zone[7] = ExtData[1]->WorkLocal[17]
203: 0x0BB9 [0x03] Work_Zone[8] = ExtData[1]->WorkLocal[18]
204: 0x0BBE [0x03] Work_Zone[9] = ExtData[1]->WorkLocal[19]
205: 0x0BC3 [0x48] [System] [ExtData[1]->WorkLocal[9]]:
     "Global balance of power: 1st: San d'Oria and Windurst (tie) 3rd: Bastok"
206: 0x0BC6 [0x23] WAIT_FOR_DIALOG_INTERACTION
207: 0x0BC7 [0x02] IF !(ExtData[1]->WorkLocal[47] == 0*) GOTO 0x0BD6
208: 0x0BCF [0x48] [System] [ExtData[1]->WorkLocal[10]]:
     "Global balance of power: 1st: San d'Oria 2nd: Bastok and Windurst (tie)"
209: 0x0BD2 [0x23] WAIT_FOR_DIALOG_INTERACTION
210: 0x0BD3 [0x01] GOTO 0x0BDA
211: 0x0BD6 [0x48] [System] [ExtData[1]->WorkLocal[11]]:
     "Global balance of power: 1st: San d'Oria 2nd: Bastok 3rd: Windurst"
212: 0x0BD9 [0x23] WAIT_FOR_DIALOG_INTERACTION

SUBROUTINE_0BDA:
213: 0x0BDA [0x01] GOTO 0x0DCE
214: 0x0BDD [0x02] IF !(Work_Zone[0] == 2*) GOTO 0x0C70
215: 0x0BE5 [0x02] IF !(ExtData[1]->WorkLocal[6] == 0*) GOTO 0x0C1D
216: 0x0BED [0x02] IF !(ExtData[1]->WorkLocal[7] == 0*) GOTO 0x0C10
217: 0x0BF5 [0x02] IF !(ExtData[1]->WorkLocal[8] == 0*) GOTO 0x0C03
218: 0x0BFD [0x93] DISPLAY_ITEM_INFO(item_id=ExtData[1]->WorkLocal[5])
219: 0x0C00 [0x01] GOTO 0x0C0D
