# 17772663 - Tenzen

## Common Data

| Field            | Value                     |
|------------------|---------------------------|
| Zone             | Ru'Lude Gardens (ID: 243) |
| Block Size       | 372 bytes                 |
| Total Events     | 12                        |
| References Count | 11                        |

## List of Events

| Event ID                   | Entrypoint   |   Size |   Instructions |
|----------------------------|--------------|--------|----------------|
| [65535](#event-65535)      | 0x0000       |     15 |              4 |
| [65](#event-65)            | 0x000F       |     46 |              6 |
| [65535.1](#event-655351)   | 0x003D       |     16 |              2 |
| [65535.2](#event-655352)   | 0x004D       |     16 |              2 |
| [65535.3](#event-655353)   | 0x005D       |     16 |              2 |
| [65535.4](#event-655354)   | 0x006D       |     16 |              2 |
| [65535.5](#event-655355)   | 0x007D       |     36 |              4 |
| [65535.6](#event-655356)   | 0x00A1       |     10 |              2 |
| [65535.7](#event-655357)   | 0x00AB       |     16 |              2 |
| [65535.8](#event-655358)   | 0x00BB       |     29 |              3 |
| [65535.9](#event-655359)   | 0x00D8       |     16 |              2 |
| [65535.10](#event-6553510) | 0x00E8       |     29 |              3 |

## DAT References (imed_data)

|   Index | Hex Value   |   Dec Value |
|---------|-------------|-------------|
|       0 | 0x0000      |           0 |
|       1 | 0x14AEB     |       84715 |
|       2 | 0xFFFFEC78  |  4294962296 |
|       3 | 0x0C1F      |        3103 |
|       4 | 0x01AA      |         426 |
|       5 | 0x0028      |          40 |
|       6 | 0x004B      |          75 |
|       7 | 0xFFFFFAA4  |  4294965924 |
|       8 | 0x14B46     |       84806 |
|       9 | 0x0270      |         624 |
|      10 | 0x01A9      |         425 |

## Events

### Event 65535

#### Metadata

| Field        | Value    |
|--------------|----------|
| Entrypoint   | 0x0000   |
| Data Size    | 15 bytes |
| Instructions | 4        |

```
      00 01 02 03 04 05 06 07  08 09 0A 0B 0C 0D 0E 0F
      -- -- -- -- -- -- -- --  -- -- -- -- -- -- -- --
0000: 94 01 F8 FF FF 7F 33 01  92 01 F8 FF FF 7F 00     ......3........ 
```

#### Opcodes

```
  0: 0x0000 [0x94] EventEntity->Render.Flags3 ^= 0x01
  1: 0x0006 [0x33] EventEntity->Render.Flags0 |= 0x200000 // Bit 21 (flag=0x01)
  2: 0x0008 [0x92] EventEntity->Render.Flags3 ^= 0x01
  3: 0x000E [0x00] END_REQSTACK()
```

### Event 65

#### Metadata

| Field        | Value    |
|--------------|----------|
| Entrypoint   | 0x000F   |
| Data Size    | 46 bytes |
| Instructions | 6        |

```
      00 01 02 03 04 05 06 07  08 09 0A 0B 0C 0D 0E 0F
      -- -- -- -- -- -- -- --  -- -- -- -- -- -- -- --
0000:                                               94                 .
0010: 01 F8 FF FF 7F 37 00 80  01 80 02 80 03 80 80 F8  .....7..........
0020: FF FF 7F 5B 04 80 F8 FF  FF 7F F8 FF FF 7F 65 6B  ...[..........ek
0030: 30 30 79 00 F8 FF FF 7F  76 30 0F 01 00           00y.....v0...   
```

#### Opcodes

```
  0: 0x000F [0x94] EventEntity->Render.Flags3 ^= 0x01
  1: 0x0015 [0x37] UPDATE_EVENT_POSITION_AND_DIR: x=0.000*, z=84.715*, y=-5.000*, direction=272.7°*
  2: 0x001E [0x80] LOAD_WAIT(entity=EventEntity)
  3: 0x0023 [0x5B] LOAD_EXT_SCHEDULER: Load scheduler "ek00" with entities [EventEntity, EventEntity], work=426*
  4: 0x0032 [0x79] EventEntity looks at Esha'ntarl (ID: 17772662/0x010F3076) (Basic look)
  5: 0x003C [0x00] END_REQSTACK()
```

### Event 65535.1

#### Metadata

| Field        | Value    |
|--------------|----------|
| Entrypoint   | 0x003D   |
| Data Size    | 16 bytes |
| Instructions | 2        |

```
      00 01 02 03 04 05 06 07  08 09 0A 0B 0C 0D 0E 0F
      -- -- -- -- -- -- -- --  -- -- -- -- -- -- -- --
0030:                                         5B 04 80               [..
0040: F8 FF FF 7F F8 FF FF 7F  65 6B 30 30 00           ........ek00.   
```

#### Opcodes

```
  0: 0x003D [0x5B] LOAD_EXT_SCHEDULER: Load scheduler "ek00" with entities [EventEntity, EventEntity], work=426*
  1: 0x004C [0x00] END_REQSTACK()
```

### Event 65535.2

#### Metadata

| Field        | Value    |
|--------------|----------|
| Entrypoint   | 0x004D   |
| Data Size    | 16 bytes |
| Instructions | 2        |

```
      00 01 02 03 04 05 06 07  08 09 0A 0B 0C 0D 0E 0F
      -- -- -- -- -- -- -- --  -- -- -- -- -- -- -- --
0040:                                         5B 04 80               [..
0050: F8 FF FF 7F F8 FF FF 7F  65 6B 30 31 00           ........ek01.   
```

#### Opcodes

```
  0: 0x004D [0x5B] LOAD_EXT_SCHEDULER: Load scheduler "ek01" with entities [EventEntity, EventEntity], work=426*
  1: 0x005C [0x00] END_REQSTACK()
```

### Event 65535.3

#### Metadata

| Field        | Value    |
|--------------|----------|
| Entrypoint   | 0x005D   |
| Data Size    | 16 bytes |
| Instructions | 2        |

```
      00 01 02 03 04 05 06 07  08 09 0A 0B 0C 0D 0E 0F
      -- -- -- -- -- -- -- --  -- -- -- -- -- -- -- --
0050:                                         5B 04 80               [..
0060: F8 FF FF 7F F8 FF FF 7F  65 6B 30 32 00           ........ek02.   
```

#### Opcodes

```
  0: 0x005D [0x5B] LOAD_EXT_SCHEDULER: Load scheduler "ek02" with entities [EventEntity, EventEntity], work=426*
  1: 0x006C [0x00] END_REQSTACK()
```

### Event 65535.4

#### Metadata

| Field        | Value    |
|--------------|----------|
| Entrypoint   | 0x006D   |
| Data Size    | 16 bytes |
| Instructions | 2        |

```
      00 01 02 03 04 05 06 07  08 09 0A 0B 0C 0D 0E 0F
      -- -- -- -- -- -- -- --  -- -- -- -- -- -- -- --
0060:                                         5B 04 80               [..
0070: F8 FF FF 7F F8 FF FF 7F  65 6B 30 33 00           ........ek03.   
```

#### Opcodes

```
  0: 0x006D [0x5B] LOAD_EXT_SCHEDULER: Load scheduler "ek03" with entities [EventEntity, EventEntity], work=426*
  1: 0x007C [0x00] END_REQSTACK()
```

### Event 65535.5

#### Metadata

| Field        | Value    |
|--------------|----------|
| Entrypoint   | 0x007D   |
| Data Size    | 36 bytes |
| Instructions | 4        |

```
      00 01 02 03 04 05 06 07  08 09 0A 0B 0C 0D 0E 0F
      -- -- -- -- -- -- -- --  -- -- -- -- -- -- -- --
0070:                                         5B 04 80               [..
0080: F8 FF FF 7F F8 FF FF 7F  65 6B 30 34 1C 05 80 45  ........ek04...E
0090: 06 80 F8 FF FF 7F F8 FF  FF 7F 73 30 30 31 00 80  ..........s001..
00A0: 00                                                .               
```

#### Opcodes

```
  0: 0x007D [0x5B] LOAD_EXT_SCHEDULER: Load scheduler "ek04" with entities [EventEntity, EventEntity], work=426*
  1: 0x008C [0x1C] WAIT(40* ticks)
  2: 0x008F [0x45] LOAD_SCHEDULED_TASK: Load scheduler "s001" with entities [EventEntity, EventEntity], work=[75*, 0*]
  3: 0x00A0 [0x00] END_REQSTACK()
```

### Event 65535.6

#### Metadata

| Field        | Value    |
|--------------|----------|
| Entrypoint   | 0x00A1   |
| Data Size    | 10 bytes |
| Instructions | 2        |

```
      00 01 02 03 04 05 06 07  08 09 0A 0B 0C 0D 0E 0F
      -- -- -- -- -- -- -- --  -- -- -- -- -- -- -- --
00A0:    37 07 80 08 80 02 80  09 80 00                  7.........     
```

#### Opcodes

```
  0: 0x00A1 [0x37] UPDATE_EVENT_POSITION_AND_DIR: x=-1.372*, z=84.806*, y=-5.000*, direction=54.8°*
  1: 0x00AA [0x00] END_REQSTACK()
```

### Event 65535.7

#### Metadata

| Field        | Value    |
|--------------|----------|
| Entrypoint   | 0x00AB   |
| Data Size    | 16 bytes |
| Instructions | 2        |

```
      00 01 02 03 04 05 06 07  08 09 0A 0B 0C 0D 0E 0F
      -- -- -- -- -- -- -- --  -- -- -- -- -- -- -- --
00A0:                                   5B 0A 80 F8 FF             [....
00B0: FF 7F F8 FF FF 7F 74 6C  61 30 00                 ......tla0.     
```

#### Opcodes

```
  0: 0x00AB [0x5B] LOAD_EXT_SCHEDULER: Load scheduler "tla0" with entities [EventEntity, EventEntity], work=425*
  1: 0x00BA [0x00] END_REQSTACK()
```

### Event 65535.8

#### Metadata

| Field        | Value    |
|--------------|----------|
| Entrypoint   | 0x00BB   |
| Data Size    | 29 bytes |
| Instructions | 3        |

```
      00 01 02 03 04 05 06 07  08 09 0A 0B 0C 0D 0E 0F
      -- -- -- -- -- -- -- --  -- -- -- -- -- -- -- --
00B0:                                   5B 0A 80 F8 FF             [....
00C0: FF 7F F8 FF FF 7F 74 6C  61 31 53 F8 FF FF 7F F8  ......tla1S.....
00D0: FF FF 7F 74 6C 61 31 00                           ...tla1.        
```

#### Opcodes

```
  0: 0x00BB [0x5B] LOAD_EXT_SCHEDULER: Load scheduler "tla1" with entities [EventEntity, EventEntity], work=425*
  1: 0x00CA [0x53] WAIT_SCHEDULER_TASK: Wait for scheduler "tla1" with entities [EventEntity, EventEntity]
  2: 0x00D7 [0x00] END_REQSTACK()
```

### Event 65535.9

#### Metadata

| Field        | Value    |
|--------------|----------|
| Entrypoint   | 0x00D8   |
| Data Size    | 16 bytes |
| Instructions | 2        |

```
      00 01 02 03 04 05 06 07  08 09 0A 0B 0C 0D 0E 0F
      -- -- -- -- -- -- -- --  -- -- -- -- -- -- -- --
00D0:                          5B 0A 80 F8 FF FF 7F F8          [.......
00E0: FF FF 7F 74 6C 62 30 00                           ...tlb0.        
```

#### Opcodes

```
  0: 0x00D8 [0x5B] LOAD_EXT_SCHEDULER: Load scheduler "tlb0" with entities [EventEntity, EventEntity], work=425*
  1: 0x00E7 [0x00] END_REQSTACK()
```

### Event 65535.10

#### Metadata

| Field        | Value    |
|--------------|----------|
| Entrypoint   | 0x00E8   |
| Data Size    | 29 bytes |
| Instructions | 3        |

```
      00 01 02 03 04 05 06 07  08 09 0A 0B 0C 0D 0E 0F
      -- -- -- -- -- -- -- --  -- -- -- -- -- -- -- --
00E0:                          5B 0A 80 F8 FF FF 7F F8          [.......
00F0: FF FF 7F 74 6C 62 31 53  F8 FF FF 7F F8 FF FF 7F  ...tlb1S........
0100: 74 6C 62 31 00                                    tlb1.           
```

#### Opcodes

```
  0: 0x00E8 [0x5B] LOAD_EXT_SCHEDULER: Load scheduler "tlb1" with entities [EventEntity, EventEntity], work=425*
  1: 0x00F7 [0x53] WAIT_SCHEDULER_TASK: Wait for scheduler "tlb1" with entities [EventEntity, EventEntity]
  2: 0x0104 [0x00] END_REQSTACK()
```
