# 17772768 - Chamama

## Common Data

| Field            | Value                     |
|------------------|---------------------------|
| Zone             | Ru'Lude Gardens (ID: 243) |
| Block Size       | 812 bytes                 |
| Total Events     | 16                        |
| References Count | 29                        |

## List of Events

| Event ID                   | Entrypoint   |   Size |   Instructions |
|----------------------------|--------------|--------|----------------|
| [65535](#event-65535)      | 0x0000       |      1 |              1 |
| [10191](#event-10191)      | 0x0001       |      1 |              1 |
| [10192](#event-10192)      | 0x0002       |      4 |              2 |
| [65535.1](#event-655351)   | 0x0006       |     10 |              2 |
| [65535.2](#event-655352)   | 0x0010       |     10 |              2 |
| [65535.3](#event-655353)   | 0x001A       |     15 |              5 |
| [65535.4](#event-655354)   | 0x0029       |     26 |              8 |
| [65535.5](#event-655355)   | 0x0043       |     15 |              3 |
| [65535.6](#event-655356)   | 0x0052       |     15 |              5 |
| [65535.7](#event-655357)   | 0x0061       |     97 |             19 |
| [65535.8](#event-655358)   | 0x00C2       |    142 |             31 |
| [65535.9](#event-655359)   | 0x0150       |     25 |              3 |
| [65535.10](#event-6553510) | 0x0169       |     25 |              3 |
| [65535.11](#event-6553511) | 0x0182       |     37 |              5 |
| [65535.12](#event-6553512) | 0x01A7       |    185 |             37 |
| [65535.13](#event-6553513) | 0x0260       |      5 |              2 |

## DAT References (imed_data)

|   Index | Hex Value   |   Dec Value |
|---------|-------------|-------------|
|       0 | 0x0001      |           1 |
|       1 | 0x04BB      |        1211 |
|       2 | 0x1CD23     |      118051 |
|       3 | 0x0C1C      |        3100 |
|       4 | 0x0000      |           0 |
|       5 | 0x1EA5      |        7845 |
|       6 | 0x000B      |          11 |
|       7 | 0x1073      |        4211 |
|       8 | 0x2215      |        8725 |
|       9 | 0x1D23C     |      119356 |
|      10 | 0x0C78      |        3192 |
|      11 | 0x000A      |          10 |
|      12 | 0x0003      |           3 |
|      13 | 0x0004      |           4 |
|      14 | 0x0002      |           2 |
|      15 | 0x0005      |           5 |
|      16 | 0x0006      |           6 |
|      17 | 0x0007      |           7 |
|      18 | 0x0008      |           8 |
|      19 | 0x308A      |       12426 |
|      20 | 0x003C      |          60 |
|      21 | 0x0708      |        1800 |
|      22 | 0x308D      |       12429 |
|      23 | 0x308C      |       12428 |
|      24 | 0x0009      |           9 |
|      25 | 0x0046      |          70 |
|      26 | 0x008C      |         140 |
|      27 | 0x00D2      |         210 |
|      28 | 0x0057      |          87 |

## String References

- **12428**: ...
- **12429**: ...?

## Events

### Event 65535

#### Metadata

| Field        | Value   |
|--------------|---------|
| Entrypoint   | 0x0000  |
| Data Size    | 1 bytes |
| Instructions | 1       |

```
      00 01 02 03 04 05 06 07  08 09 0A 0B 0C 0D 0E 0F
      -- -- -- -- -- -- -- --  -- -- -- -- -- -- -- --
0000: 00                                                .               
```

#### Opcodes

```
  0: 0x0000 [0x00] END_REQSTACK()
```

### Event 10191

#### Metadata

| Field        | Value   |
|--------------|---------|
| Entrypoint   | 0x0001  |
| Data Size    | 1 bytes |
| Instructions | 1       |

```
      00 01 02 03 04 05 06 07  08 09 0A 0B 0C 0D 0E 0F
      -- -- -- -- -- -- -- --  -- -- -- -- -- -- -- --
0000:    00                                              .              
```

#### Opcodes

```
  0: 0x0001 [0x00] END_REQSTACK()
```

### Event 10192

#### Metadata

| Field        | Value   |
|--------------|---------|
| Entrypoint   | 0x0002  |
| Data Size    | 4 bytes |
| Instructions | 2       |

```
      00 01 02 03 04 05 06 07  08 09 0A 0B 0C 0D 0E 0F
      -- -- -- -- -- -- -- --  -- -- -- -- -- -- -- --
0000:       C0 00 80 00                                   ....          
```

#### Opcodes

```
  0: 0x0002 [0xC0] EventEntity->Render.Flags3 |= 0x1000 // Set bit 12 (from 1*)
  1: 0x0005 [0x00] END_REQSTACK()
```

### Event 65535.1

#### Metadata

| Field        | Value    |
|--------------|----------|
| Entrypoint   | 0x0006   |
| Data Size    | 10 bytes |
| Instructions | 2        |

```
      00 01 02 03 04 05 06 07  08 09 0A 0B 0C 0D 0E 0F
      -- -- -- -- -- -- -- --  -- -- -- -- -- -- -- --
0000:                   37 01  80 02 80 03 80 04 80 00        7.........
```

#### Opcodes

```
  0: 0x0006 [0x37] UPDATE_EVENT_POSITION_AND_DIR: x=1.211*, z=118.051*, y=3.100*, direction=0.0°*
  1: 0x000F [0x00] END_REQSTACK()
```

### Event 65535.2

#### Metadata

| Field        | Value    |
|--------------|----------|
| Entrypoint   | 0x0010   |
| Data Size    | 10 bytes |
| Instructions | 2        |

```
      00 01 02 03 04 05 06 07  08 09 0A 0B 0C 0D 0E 0F
      -- -- -- -- -- -- -- --  -- -- -- -- -- -- -- --
0010: 37 05 80 02 80 03 80 04  80 00                    7.........      
```

#### Opcodes

```
  0: 0x0010 [0x37] UPDATE_EVENT_POSITION_AND_DIR: x=7.845*, z=118.051*, y=3.100*, direction=0.0°*
  1: 0x0019 [0x00] END_REQSTACK()
```

### Event 65535.3

#### Metadata

| Field        | Value    |
|--------------|----------|
| Entrypoint   | 0x001A   |
| Data Size    | 15 bytes |
| Instructions | 5        |

```
      00 01 02 03 04 05 06 07  08 09 0A 0B 0C 0D 0E 0F
      -- -- -- -- -- -- -- --  -- -- -- -- -- -- -- --
0010:                                32 06 80 1F 00 07            2.....
0020: 80 02 80 03 80 1F 01 6F  00                       .......o.       
```

#### Opcodes

```
  0: 0x001A [0x32] ExtData[1]->MainSpeed = 11* * 0.1
  1: 0x001D [0x1F] MOVE_ENTITY: EventEntity moves to X=4.211*, Z=118.051*, Y=3.100*
  2: 0x0025 [0x1F] MOVE_ENTITY: Update entity position (mode=1)
  3: 0x0027 [0x6F] WAIT_FRAME_DELAY: Yield until WaitTime reaches zero
  4: 0x0028 [0x00] END_REQSTACK()
```

### Event 65535.4

#### Metadata

| Field        | Value    |
|--------------|----------|
| Entrypoint   | 0x0029   |
| Data Size    | 26 bytes |
| Instructions | 8        |

```
      00 01 02 03 04 05 06 07  08 09 0A 0B 0C 0D 0E 0F
      -- -- -- -- -- -- -- --  -- -- -- -- -- -- -- --
0020:                             32 06 80 1F 00 05 80           2......
0030: 02 80 03 80 1F 01 6F 1E  DF 30 0F 01 6F 76 F8 FF  ......o..0..ov..
0040: FF 7F 00                                          ...             
```

#### Opcodes

```
  0: 0x0029 [0x32] ExtData[1]->MainSpeed = 11* * 0.1
  1: 0x002C [0x1F] MOVE_ENTITY: EventEntity moves to X=7.845*, Z=118.051*, Y=3.100*
  2: 0x0034 [0x1F] MOVE_ENTITY: Update entity position (mode=1)
  3: 0x0036 [0x6F] WAIT_FRAME_DELAY: Yield until WaitTime reaches zero
  4: 0x0037 [0x1E] EventEntity looks at Atori-Tutori (ID: 17772767/0x010F30DF) and starts talking
  5: 0x003C [0x6F] WAIT_FRAME_DELAY: Yield until WaitTime reaches zero
  6: 0x003D [0x76] CHECK_ENTITY_RENDER_FLAGS: Wait until EventEntity Render.Flags0 and Render.Flags3 conditions are met
  7: 0x0042 [0x00] END_REQSTACK()
```

### Event 65535.5

#### Metadata

| Field        | Value    |
|--------------|----------|
| Entrypoint   | 0x0043   |
| Data Size    | 15 bytes |
| Instructions | 3        |

```
      00 01 02 03 04 05 06 07  08 09 0A 0B 0C 0D 0E 0F
      -- -- -- -- -- -- -- --  -- -- -- -- -- -- -- --
0040:          37 08 80 09 80  03 80 0A 80 1E E1 30 0F     7..........0.
0050: 01 00                                             ..              
```

#### Opcodes

```
  0: 0x0043 [0x37] UPDATE_EVENT_POSITION_AND_DIR: x=8.725*, z=119.356*, y=3.100*, direction=280.5°*
  1: 0x004C [0x1E] EventEntity looks at Unnamed NPC (ID: 17772769/0x010F30E1) and starts talking
  2: 0x0051 [0x00] END_REQSTACK()
```

### Event 65535.6

#### Metadata

| Field        | Value    |
|--------------|----------|
| Entrypoint   | 0x0052   |
| Data Size    | 15 bytes |
| Instructions | 5        |

```
      00 01 02 03 04 05 06 07  08 09 0A 0B 0C 0D 0E 0F
      -- -- -- -- -- -- -- --  -- -- -- -- -- -- -- --
0050:       32 0B 80 1F 00 01  80 02 80 03 80 1F 01 6F    2............o
0060: 00                                                .               
```

#### Opcodes

```
  0: 0x0052 [0x32] ExtData[1]->MainSpeed = 10* * 0.1
  1: 0x0055 [0x1F] MOVE_ENTITY: EventEntity moves to X=1.211*, Z=118.051*, Y=3.100*
  2: 0x005D [0x1F] MOVE_ENTITY: Update entity position (mode=1)
  3: 0x005F [0x6F] WAIT_FRAME_DELAY: Yield until WaitTime reaches zero
  4: 0x0060 [0x00] END_REQSTACK()
```

### Event 65535.7

#### Metadata

| Field        | Value    |
|--------------|----------|
| Entrypoint   | 0x0061   |
| Data Size    | 97 bytes |
| Instructions | 19       |

```
      00 01 02 03 04 05 06 07  08 09 0A 0B 0C 0D 0E 0F
      -- -- -- -- -- -- -- --  -- -- -- -- -- -- -- --
0060:    02 22 10 04 80 80 71  00 03 03 00 0C 80 01 C1   ."....q........
0070: 00 02 22 10 00 80 80 81  00 03 03 00 0D 80 01 C1  ..".............
0080: 00 02 22 10 0E 80 80 91  00 03 03 00 0F 80 01 C1  ..".............
0090: 00 02 22 10 0C 80 80 A1  00 03 03 00 10 80 01 C1  ..".............
00A0: 00 02 22 10 0D 80 80 B1  00 03 03 00 11 80 01 C1  ..".............
00B0: 00 02 22 10 0F 80 80 C1  00 03 03 00 12 80 01 C1  ..".............
00C0: 00 00                                             ..              
```

#### Opcodes

```
  0: 0x0061 [0x02] IF !(Work_Zone[34] == 0*) GOTO 0x0071
  1: 0x0069 [0x03] ExtData[1]->WorkLocal[3] = 3*
  2: 0x006E [0x01] GOTO 0x00C1
  3: 0x0071 [0x02] IF !(Work_Zone[34] == 1*) GOTO 0x0081
  4: 0x0079 [0x03] ExtData[1]->WorkLocal[3] = 4*
  5: 0x007E [0x01] GOTO 0x00C1
  6: 0x0081 [0x02] IF !(Work_Zone[34] == 2*) GOTO 0x0091
  7: 0x0089 [0x03] ExtData[1]->WorkLocal[3] = 5*
  8: 0x008E [0x01] GOTO 0x00C1
  9: 0x0091 [0x02] IF !(Work_Zone[34] == 3*) GOTO 0x00A1
 10: 0x0099 [0x03] ExtData[1]->WorkLocal[3] = 6*
 11: 0x009E [0x01] GOTO 0x00C1
 12: 0x00A1 [0x02] IF !(Work_Zone[34] == 4*) GOTO 0x00B1
 13: 0x00A9 [0x03] ExtData[1]->WorkLocal[3] = 7*
 14: 0x00AE [0x01] GOTO 0x00C1
 15: 0x00B1 [0x02] IF !(Work_Zone[34] == 5*) GOTO 0x00C1
 16: 0x00B9 [0x03] ExtData[1]->WorkLocal[3] = 8*
 17: 0x00BE [0x01] GOTO 0x00C1

SUBROUTINE_00C1:
 18: 0x00C1 [0x00] END_REQSTACK()
```

### Event 65535.8

#### Metadata

| Field        | Value     |
|--------------|-----------|
| Entrypoint   | 0x00C2    |
| Data Size    | 142 bytes |
| Instructions | 31        |

```
      00 01 02 03 04 05 06 07  08 09 0A 0B 0C 0D 0E 0F
      -- -- -- -- -- -- -- --  -- -- -- -- -- -- -- --
00C0:       06 23 10 02 23 10  0E 80 03 4F 01 02 23 10    .#..#....O..#.
00D0: 04 80 80 EF 00 2B 75 30  0F 01 13 80 23 03 23 10  .....+u0....#.#.
00E0: 00 80 03 02 00 00 80 03  01 00 14 80 01 49 01 02  .............I..
00F0: 23 10 00 80 80 49 01 57  22 10 02 22 10 15 80 02  #....I.W".."....
0100: 0A 01 03 22 10 15 80 B4  06 00 02 22 10 01 00 04  ..."......."....
0110: 46 01 02 02 00 03 00 04  20 01 48 16 80 01 23 01  F....... .H...#.
0120: 48 17 80 0B 02 00 02 02  00 03 00 02 39 01 03 01  H...........9...
0130: 00 15 80 0B 01 00 01 43  01 03 01 00 14 80 14 01  .......C........
0140: 00 02 00 01 46 01 01 49  01 1C 00 80 01 C5 00 00  ....F..I........
```

#### Opcodes

```
  0: 0x00C2 [0x06] Work_Zone[35] = 0
  1: 0x00C5 [0x02] IF !(Work_Zone[35] >= 2*) GOTO 0x014F
  2: 0x00CD [0x02] IF !(Work_Zone[35] == 0*) GOTO 0x00EF
  3: 0x00D5 [0x2B] Nomad Moogle (ID: 17772661/0x010F3075) [12426*]:
    → "Here we go, kupo!"
  4: 0x00DC [0x23] WAIT_FOR_DIALOG_INTERACTION
  5: 0x00DD [0x03] Work_Zone[35] = 1*
  6: 0x00E2 [0x03] ExtData[1]->WorkLocal[2] = 1*
  7: 0x00E7 [0x03] ExtData[1]->WorkLocal[1] = 60*
  8: 0x00EC [0x01] GOTO 0x0149
  9: 0x00EF [0x02] IF !(Work_Zone[35] == 1*) GOTO 0x0149
 10: 0x00F7 [0x57] CREATE_FRAME_DELAY(delay=Work_Zone[34])
 11: 0x00FA [0x02] IF !(Work_Zone[34] <= 1800*) GOTO 0x010A
 12: 0x0102 [0x03] Work_Zone[34] = 1800*
 13: 0x0107 [0xB4] UI_WINDOW_STRING_HANDLER(case=0x06 - Toggle query message flag, flag_value=0x00)
 14: 0x010A [0x02] IF !(Work_Zone[34] < ExtData[1]->WorkLocal[1]) GOTO 0x0146
 15: 0x0112 [0x02] IF !(ExtData[1]->WorkLocal[2] < ExtData[1]->WorkLocal[3]) GOTO 0x0120
 16: 0x011A [0x48] [System] [12429*]:
    → "...?"
 17: 0x011D [0x01] GOTO 0x0123
 18: 0x0120 [0x48] [System] [12428*]:
    → "..."

SUBROUTINE_0123:
 19: 0x0123 [0x0B] ExtData[1]->WorkLocal[2]++
 20: 0x0126 [0x02] IF !(ExtData[1]->WorkLocal[2] <= ExtData[1]->WorkLocal[3]) GOTO 0x0139
 21: 0x012E [0x03] ExtData[1]->WorkLocal[1] = 1800*
 22: 0x0133 [0x0B] ExtData[1]->WorkLocal[1]++
 23: 0x0136 [0x01] GOTO 0x0143
 24: 0x0139 [0x03] ExtData[1]->WorkLocal[1] = 60*
 25: 0x013E [0x14] ExtData[1]->WorkLocal[1] *= ExtData[1]->WorkLocal[2]

SUBROUTINE_0143:
 26: 0x0143 [0x01] GOTO 0x0146

SUBROUTINE_0146:
 27: 0x0146 [0x01] GOTO 0x0149

SUBROUTINE_0149:
 28: 0x0149 [0x1C] WAIT(1* ticks)
 29: 0x014C [0x01] GOTO 0x00C5
 30: 0x014F [0x00] END_REQSTACK()
```

### Event 65535.9

#### Metadata

| Field        | Value    |
|--------------|----------|
| Entrypoint   | 0x0150   |
| Data Size    | 25 bytes |
| Instructions | 3        |

```
      00 01 02 03 04 05 06 07  08 09 0A 0B 0C 0D 0E 0F
      -- -- -- -- -- -- -- --  -- -- -- -- -- -- -- --
0150: B4 00 04 00 3F 3F 3F 00  00 00 00 00 00 00 00 00  ....???.........
0160: 00 00 00 00 B5 00 04 00  00                       .........       
```

#### Opcodes

```
  0: 0x0150 [0xB4] UI_WINDOW_STRING_HANDLER(case=0x00 - Copy string from opcode, work_offset=ExtData[1]->WorkLocal[4], string="???")
  1: 0x0164 [0xB5] SET_EVENT_ENTITY_NAME: Change EventEntity name to ExtData[1]->WorkLocal[4]
  2: 0x0168 [0x00] END_REQSTACK()
```

### Event 65535.10

#### Metadata

| Field        | Value    |
|--------------|----------|
| Entrypoint   | 0x0169   |
| Data Size    | 25 bytes |
| Instructions | 3        |

```
      00 01 02 03 04 05 06 07  08 09 0A 0B 0C 0D 0E 0F
      -- -- -- -- -- -- -- --  -- -- -- -- -- -- -- --
0160:                             B4 00 04 00 43 68 61           ....Cha
0170: 6D 61 6D 61 00 00 00 00  00 00 00 00 00 B5 00 04  mama............
0180: 00 00                                             ..              
```

#### Opcodes

```
  0: 0x0169 [0xB4] UI_WINDOW_STRING_HANDLER(case=0x00 - Copy string from opcode, work_offset=ExtData[1]->WorkLocal[4], string="Chamama")
  1: 0x017D [0xB5] SET_EVENT_ENTITY_NAME: Change EventEntity name to ExtData[1]->WorkLocal[4]
  2: 0x0181 [0x00] END_REQSTACK()
```

### Event 65535.11

#### Metadata

| Field        | Value    |
|--------------|----------|
| Entrypoint   | 0x0182   |
| Data Size    | 37 bytes |
| Instructions | 5        |

```
      00 01 02 03 04 05 06 07  08 09 0A 0B 0C 0D 0E 0F
      -- -- -- -- -- -- -- --  -- -- -- -- -- -- -- --
0180:       03 05 00 07 7F 1A  CC 01 66 06 00 F8 FF FF    ........f.....
0190: 7F F8 FF FF 7F 73 68 61  30 53 F8 FF FF 7F F8 FF  .....sha0S......
01A0: FF 7F 73 68 61 30 00                              ..sha0.         
```

#### Opcodes

```
  0: 0x0182 [0x03] ExtData[1]->WorkLocal[5] = Entity->Race
  1: 0x0187 [0x1A] CALL_SUBROUTINE(address=0x01CC)
  2: 0x018A [0x66] LOAD_EXT_SCHEDULER_MAIN: Load scheduler "sha0" with entities [EventEntity, EventEntity], work=ExtData[1]->WorkLocal[6]
  3: 0x0199 [0x53] WAIT_SCHEDULER_TASK: Wait for scheduler "sha0" with entities [EventEntity, EventEntity]
  4: 0x01A6 [0x00] END_REQSTACK()
```

### Event 65535.12

#### Metadata

| Field        | Value     |
|--------------|-----------|
| Entrypoint   | 0x01A7    |
| Data Size    | 185 bytes |
| Instructions | 13        |

```
      00 01 02 03 04 05 06 07  08 09 0A 0B 0C 0D 0E 0F
      -- -- -- -- -- -- -- --  -- -- -- -- -- -- -- --
01A0:                      03  05 00 07 7F 1A CC 01 66         ........f
01B0: 06 00 F8 FF FF 7F F8 FF  FF 7F 73 68 61 31 53 F8  ..........sha1S.
01C0: FF FF 7F F8 FF FF 7F 73  68 61 31 00 03 06 00 05  .......sha1.....
01D0: 00 02 06 00 0F 80 05 E1  01 08 06 00 00 80 01 E6  ................
01E0: 01 08 06 00 0E 80 14 06  00 0B 80 07 06 00 18 80  ................
01F0: 1B 03 06 00 05 00 02 06  00 0F 80 05 06 02 08 06  ................
0200: 00 00 80 01 0B 02 08 06  00 0E 80 14 06 00 0B 80  ................
0210: 07 06 00 19 80 1B 03 06  00 05 00 02 06 00 0F 80  ................
0220: 05 2B 02 08 06 00 00 80  01 30 02 08 06 00 0E 80  .+.......0......
0230: 14 06 00 0B 80 07 06 00  1A 80 1B 03 06 00 05 00  ................
0240: 02 06 00 0F 80 05 50 02  08 06 00 00 80 01 55 02  ......P.......U.
0250: 08 06 00 0E 80 14 06 00  0B 80 07 06 00 1B 80 1B  ................
```

#### Opcodes

```
  0: 0x01A7 [0x03] ExtData[1]->WorkLocal[5] = Entity->Race
  1: 0x01AC [0x1A] CALL_SUBROUTINE(address=0x01CC)
  2: 0x01AF [0x66] LOAD_EXT_SCHEDULER_MAIN: Load scheduler "sha1" with entities [EventEntity, EventEntity], work=ExtData[1]->WorkLocal[6]
  3: 0x01BE [0x53] WAIT_SCHEDULER_TASK: Wait for scheduler "sha1" with entities [EventEntity, EventEntity]
  4: 0x01CB [0x00] END_REQSTACK()

SUBROUTINE_01CC:
  5: 0x01CC [0x03] ExtData[1]->WorkLocal[6] = ExtData[1]->WorkLocal[5]
  6: 0x01D1 [0x02] IF !(ExtData[1]->WorkLocal[6] > 5*) GOTO 0x01E1
  7: 0x01D9 [0x08] ExtData[1]->WorkLocal[6] -= 1*
  8: 0x01DE [0x01] GOTO 0x01E6
  9: 0x01E1 [0x08] ExtData[1]->WorkLocal[6] -= 2*

SUBROUTINE_01E6:
 10: 0x01E6 [0x14] ExtData[1]->WorkLocal[6] *= 10*
 11: 0x01EB [0x07] ExtData[1]->WorkLocal[6] += 9*
 12: 0x01F0 [0x1B] RETURN
```

#### Data or dead code:

```
# Dead code (unreachable instructions):
     0x01F1 [0x03] ExtData[1]->WorkLocal[6] = ExtData[1]->WorkLocal[5]
     0x01F6 [0x02] IF !(ExtData[1]->WorkLocal[6] > 5*) GOTO 0x0206
     0x01FE [0x08] ExtData[1]->WorkLocal[6] -= 1*
     0x0203 [0x01] GOTO 0x020B
     0x0206 [0x08] ExtData[1]->WorkLocal[6] -= 2*
     0x020B [0x14] ExtData[1]->WorkLocal[6] *= 10*
     0x0210 [0x07] ExtData[1]->WorkLocal[6] += 70*
     0x0215 [0x1B] RETURN
     0x0216 [0x03] ExtData[1]->WorkLocal[6] = ExtData[1]->WorkLocal[5]
     0x021B [0x02] IF !(ExtData[1]->WorkLocal[6] > 5*) GOTO 0x022B
     0x0223 [0x08] ExtData[1]->WorkLocal[6] -= 1*
     0x0228 [0x01] GOTO 0x0230
     0x022B [0x08] ExtData[1]->WorkLocal[6] -= 2*
     0x0230 [0x14] ExtData[1]->WorkLocal[6] *= 10*
     0x0235 [0x07] ExtData[1]->WorkLocal[6] += 140*
     0x023A [0x1B] RETURN
     0x023B [0x03] ExtData[1]->WorkLocal[6] = ExtData[1]->WorkLocal[5]
     0x0240 [0x02] IF !(ExtData[1]->WorkLocal[6] > 5*) GOTO 0x0250
     0x0248 [0x08] ExtData[1]->WorkLocal[6] -= 1*
     0x024D [0x01] GOTO 0x0255
     0x0250 [0x08] ExtData[1]->WorkLocal[6] -= 2*
     0x0255 [0x14] ExtData[1]->WorkLocal[6] *= 10*
     0x025A [0x07] ExtData[1]->WorkLocal[6] += 210*
     0x025F [0x1B] RETURN
```

### Event 65535.13

#### Metadata

| Field        | Value   |
|--------------|---------|
| Entrypoint   | 0x0260  |
| Data Size    | 5 bytes |
| Instructions | 2       |

```
      00 01 02 03 04 05 06 07  08 09 0A 0B 0C 0D 0E 0F
      -- -- -- -- -- -- -- --  -- -- -- -- -- -- -- --
0260: B6 0F 1C 80 00                                    .....           
```

#### Opcodes

```
  0: 0x0260 [0xB6] ENTITY_APPEARANCE_HANDLER(case=Model size, value=87*)
  1: 0x0264 [0x00] END_REQSTACK()
```
