# 17772594 - Maat

## Common Data

| Field            | Value                     |
|------------------|---------------------------|
| Zone             | Ru'Lude Gardens (ID: 243) |
| Block Size       | 3008 bytes                |
| Total Events     | 44                        |
| References Count | 145                       |

## List of Events

| Event ID                   | Entrypoint   |   Size |   Instructions |
|----------------------------|--------------|--------|----------------|
| [65535](#event-65535)      | 0x0000       |      1 |              1 |
| [79](#event-79)            | 0x0001       |    142 |             32 |
| [81](#event-81)            | 0x008F       |     72 |             14 |
| [82](#event-82)            | 0x00D7       |    114 |             30 |
| [84](#event-84)            | 0x0149       |     49 |              9 |
| [85](#event-85)            | 0x017A       |    118 |             28 |
| [87](#event-87)            | 0x01F0       |     44 |              8 |
| [88](#event-88)            | 0x021C       |    124 |             32 |
| [89](#event-89)            | 0x0298       |     13 |              7 |
| [90](#event-90)            | 0x02A5       |     44 |              8 |
| [92](#event-92)            | 0x02D1       |      1 |              1 |
| [64](#event-64)            | 0x02D2       |      1 |              1 |
| [93](#event-93)            | 0x02D3       |      1 |              1 |
| [74](#event-74)            | 0x02D4       |      1 |              1 |
| [65535.1](#event-655351)   | 0x02D5       |     14 |              4 |
| [65535.2](#event-655352)   | 0x02E3       |     15 |              5 |
| [65535.3](#event-655353)   | 0x02F2       |     29 |              3 |
| [65535.4](#event-655354)   | 0x030F       |     29 |              3 |
| [65535.5](#event-655355)   | 0x032C       |     29 |              3 |
| [65535.6](#event-655356)   | 0x0349       |     29 |              3 |
| [65535.7](#event-655357)   | 0x0366       |     35 |              4 |
| [65535.8](#event-655358)   | 0x0389       |     35 |              4 |
| [65535.9](#event-655359)   | 0x03AC       |     29 |              3 |
| [65535.10](#event-6553510) | 0x03C9       |     29 |              3 |
| [65535.11](#event-6553511) | 0x03E6       |     29 |              3 |
| [65535.12](#event-6553512) | 0x0403       |     14 |              4 |
| [65535.13](#event-6553513) | 0x0411       |     14 |              4 |
| [10139](#event-10139)      | 0x041F       |      1 |              1 |
| [10194](#event-10194)      | 0x0420       |      1 |              1 |
| [10241](#event-10241)      | 0x0421       |      1 |              1 |
| [65535.14](#event-6553514) | 0x0422       |     10 |              2 |
| [65535.15](#event-6553515) | 0x042C       |     14 |              4 |
| [65535.16](#event-6553516) | 0x043A       |     34 |              8 |
| [65535.17](#event-6553517) | 0x045C       |     12 |              3 |
| [65535.18](#event-6553518) | 0x0468       |   1030 |            233 |
| [117](#event-117)          | 0x086E       |      1 |              1 |
| [10136](#event-10136)      | 0x086F       |      1 |              1 |
| [10137](#event-10137)      | 0x0870       |      1 |              1 |
| [10161](#event-10161)      | 0x0871       |      1 |              1 |
| [10295](#event-10295)      | 0x0872       |      7 |              2 |
| [65535.19](#event-6553519) | 0x0879       |     15 |              5 |
| [65535.20](#event-6553520) | 0x0888       |     15 |              5 |
| [10296](#event-10296)      | 0x0897       |      7 |              2 |
| [65535.21](#event-6553521) | 0x089E       |     30 |              6 |

## DAT References (imed_data)

|   Index | Hex Value   |   Dec Value |
|---------|-------------|-------------|
|       0 | 0x003C      |          60 |
|       1 | 0x2895      |       10389 |
|       2 | 0x2896      |       10390 |
|       3 | 0x2897      |       10391 |
|       4 | 0x2898      |       10392 |
|       5 | 0x0001      |           1 |
|       6 | 0x0000      |           0 |
|       7 | 0x2899      |       10393 |
|       8 | 0x0440      |        1088 |
|       9 | 0x0441      |        1089 |
|      10 | 0x0442      |        1090 |
|      11 | 0x289A      |       10394 |
|      12 | 0x289B      |       10395 |
|      13 | 0x40000000  |  1073741824 |
|      14 | 0x289D      |       10397 |
|      15 | 0x289E      |       10398 |
|      16 | 0x00C9      |         201 |
|      17 | 0x289F      |       10399 |
|      18 | 0x28A0      |       10400 |
|      19 | 0x28A1      |       10401 |
|      20 | 0x28A2      |       10402 |
|      21 | 0x28A3      |       10403 |
|      22 | 0x28A4      |       10404 |
|      23 | 0x28A5      |       10405 |
|      24 | 0x28A6      |       10406 |
|      25 | 0x28A7      |       10407 |
|      26 | 0x28A9      |       10409 |
|      27 | 0x28AC      |       10412 |
|      28 | 0x28AD      |       10413 |
|      29 | 0x0150      |         336 |
|      30 | 0x0151      |         337 |
|      31 | 0x0152      |         338 |
|      32 | 0x28AE      |       10414 |
|      33 | 0x28AF      |       10415 |
|      34 | 0x28B0      |       10416 |
|      35 | 0x28B1      |       10417 |
|      36 | 0x28B3      |       10419 |
|      37 | 0x01D2      |         466 |
|      38 | 0x0467      |        1127 |
|      39 | 0x28B5      |       10421 |
|      40 | 0x28B7      |       10423 |
|      41 | 0x28B8      |       10424 |
|      42 | 0x28B9      |       10425 |
|      43 | 0x28BA      |       10426 |
|      44 | 0x28DB      |       10459 |
|      45 | 0x28B6      |       10422 |
|      46 | 0x28DC      |       10460 |
|      47 | 0x28DD      |       10461 |
|      48 | 0x0009      |           9 |
|      49 | 0x1C15      |        7189 |
|      50 | 0x1D066     |      118886 |
|      51 | 0x0C1D      |        3101 |
|      52 | 0x2C71      |       11377 |
|      53 | 0x1D2C5     |      119493 |
|      54 | 0x000D      |          13 |
|      55 | 0x2883      |       10371 |
|      56 | 0x1C95F     |      117087 |
|      57 | 0x2E94      |       11924 |
|      58 | 0x1D600     |      120320 |
|      59 | 0x2925      |       10533 |
|      60 | 0x1CCE2     |      117986 |
|      61 | 0x0659      |        1625 |
|      62 | 0x0019      |          25 |
|      63 | 0x293E      |       10558 |
|      64 | 0x1BDB3     |      114099 |
|      65 | 0x2529      |        9513 |
|      66 | 0x1BDB5     |      114101 |
|      67 | 0x0BFC      |        3068 |
|      68 | 0x05B0      |        1456 |
|      69 | 0x1EEC      |        7916 |
|      70 | 0x1AC81     |      109697 |
|      71 | 0x0B5C      |        2908 |
|      72 | 0x14A4      |        5284 |
|      73 | 0x1AC58     |      109656 |
|      74 | 0x0B56      |        2902 |
|      75 | 0x24A4      |        9380 |
|      76 | 0x1BDFD     |      114173 |
|      77 | 0x0BF3      |        3059 |
|      78 | 0x0C6A      |        3178 |
|      79 | 0x0014      |          20 |
|      80 | 0x07E8      |        2024 |
|      81 | 0x0592      |        1426 |
|      82 | 0x0002      |           2 |
|      83 | 0x0593      |        1427 |
|      84 | 0x0003      |           3 |
|      85 | 0x0594      |        1428 |
|      86 | 0x0004      |           4 |
|      87 | 0x0595      |        1429 |
|      88 | 0x0005      |           5 |
|      89 | 0x0596      |        1430 |
|      90 | 0x0006      |           6 |
|      91 | 0x0597      |        1431 |
|      92 | 0x0007      |           7 |
|      93 | 0x0598      |        1432 |
|      94 | 0x0008      |           8 |
|      95 | 0x0599      |        1433 |
|      96 | 0x059A      |        1434 |
|      97 | 0x000A      |          10 |
|      98 | 0x059B      |        1435 |
|      99 | 0x000B      |          11 |
|     100 | 0x059C      |        1436 |
|     101 | 0x000C      |          12 |
|     102 | 0x059D      |        1437 |
|     103 | 0x059E      |        1438 |
|     104 | 0x000E      |          14 |
|     105 | 0x059F      |        1439 |
|     106 | 0x000F      |          15 |
|     107 | 0x05A0      |        1440 |
|     108 | 0x28BB      |       10427 |
|     109 | 0x28BC      |       10428 |
|     110 | 0x28BD      |       10429 |
|     111 | 0x28BE      |       10430 |
|     112 | 0x28BF      |       10431 |
|     113 | 0x28C0      |       10432 |
|     114 | 0x28C1      |       10433 |
|     115 | 0x28C2      |       10434 |
|     116 | 0x28C3      |       10435 |
|     117 | 0x28C4      |       10436 |
|     118 | 0x28C5      |       10437 |
|     119 | 0x28C6      |       10438 |
|     120 | 0x28C7      |       10439 |
|     121 | 0x28C8      |       10440 |
|     122 | 0x28C9      |       10441 |
|     123 | 0x28CA      |       10442 |
|     124 | 0x28CB      |       10443 |
|     125 | 0x28CC      |       10444 |
|     126 | 0x28CD      |       10445 |
|     127 | 0x28CE      |       10446 |
|     128 | 0x28CF      |       10447 |
|     129 | 0x28D0      |       10448 |
|     130 | 0x28D1      |       10449 |
|     131 | 0x28D2      |       10450 |
|     132 | 0x28D3      |       10451 |
|     133 | 0x28D4      |       10452 |
|     134 | 0x28D5      |       10453 |
|     135 | 0x28D6      |       10454 |
|     136 | 0x28D7      |       10455 |
|     137 | 0x28D8      |       10456 |
|     138 | 0x28D9      |       10457 |
|     139 | 0x28DA      |       10458 |
|     140 | 0x00C8      |         200 |
|     141 | 0x25AA      |        9642 |
|     142 | 0x1CCB4     |      117940 |
|     143 | 0x2A7D      |       10877 |
|     144 | 0x1D2AC     |      119468 |

## String References

- **10389**: Well, well... You've come quite far, but you've still got a long way to go. Do you know about the people here?
- **10390**: Well, don't take this personally, but to them, you're just a tiny little bug! And I'm the one who trains them. Yeah, you can call me a teacher.
- **10391**: I'm sure you've ambitions of your own, right? If you want to break the barriers within you, you'll have to pass my test. What do you say?
- **10392**: Accept the challenge? [At once!/No, thanks.]
- **10393**: Very good. Gather these:
- **10394**: $0, $1, and $2. Well, get to it!
- **10395**: Yes, that might be prudent. But you'll never move into the next gear with that kind of attitude!
- **10397**: This is good, very good! Today you've taken your first step into a broader world!
- **10398**: What, you don't understand? Just get out there and fight. Then you'll see!
- **10399**: Your level limit is now 55.
- **10400**: How's it feel at the top, [sonny/kiddo]? Well, you ain't even close yet. You're just gettin' started!
- **10401**: You think you had a hard time with that last quest? Well, when I was your age, I had to gather twice as many items in half the time! So, stop complainin'!
- **10402**: Do you think you've got what it takes to take the next step? Don't think I'm forcing you, or anything!
- **10403**: Accept the challenge? [Of course!/No, not yet.]
- **10404**: Good answer! I'm proud to have a pupil like you! Anyway, listen close to what I have to say.
- **10405**: Many caverns to the north are home to fiends that can find you even when you're invisible. Bring me three samples of frigicite from deep within.
- **10406**: This time, it's a test of wits. Barrier-breakers need brains, after all. Well, get going!
- **10407**: Oh? Very well. It's your life.
- **10409**: Yes, the very thing! You've crossed another great threshold today! Of course, this is merely a prologue of things to come!
- **10412**: So you think you're ready for the next challenge?
- **10413**: Do you think you can handle it? [Of course!/Not just yet.]
- **10414**: That's the spirit. You'll never get anything in this world unless you really want it.
- **10415**: 6, $6, and $6. Bring these three items here to me.
- **10416**: I know you can do it. There's something different about you. I can feel it in my bones!
- **10417**: Well, the choice is yours. I won't goad you into anything.
- **10419**: I knew you could do it! I believed in you all along.
- **10421**: I see you're becoming stronger by the day. Maybe you're ready for my next test. How about it?
- **10422**: Your next test will span over the farthest reaches of Vana'diel. You'll have to give it your all, or you're sure to fail.
- **10423**: Now listen carefully. First, you must get your hands on four $7. I'm going to give you four hints. You have to figure out who I am talking about, and give one of those $7 to each of them.
- **10424**: I've already talked to them, so all you have to do is hand over the $7 and they will trade you back a strange stone.
- **10425**: If the person you try to trade it to doesn't accept it, then it means you've got the wrong person.
- **10426**: Here are your four hints, so listen up. I want you to find these people...
- **10427**: $5. A boy who only thinks of his sick mother.
- **10428**: $5. An Elvaan who likes her knives sharp.
- **10429**: $5. A little girl who wants to be a Royal Knight, just like her brother.
- **10430**: $5. A young Elvaan whose breath stinks.
- **10431**: $5. A young man looking for a job where they're not too rough with him.
- **10432**: $5. An old man running the Consortium warehouses.
- **10433**: $5. A second knight who specializes in the nirvana slash.
- **10434**: $5. A shopkeeper who longs for customers that want more than scrolls of Stone.
- **10435**: $5. A pioneer of the Palborough Mines.
- **10436**: $5. A boy watching over Dalzakk's home while he's off adventuring.
- **10437**: $5. A girl who is positive robes and bronze subligaria are the latest fashion.
- **10438**: $5. A girl who thinks she can never be as good as her sister.
- **10439**: $5. A woman who lost her husband in an accident in the Palborough Mines.
- **10440**: $5. Bastok's number five "doorman."
- **10441**: $5. A man so quiet, his boss is ready to call him "Silent Mountain."
- **10442**: $5. A man who is ready to move Bastok into the age of magic.
- **10443**: $5. The smartest looking Mithra child.
- **10444**: $5. A man looking for something snappy to hook his customers.
- **10445**: $5. A woman everybody called a "strange little poppet" when she was younger.
- **10446**: $5. A man known for his magic doll upgrades.
- **10447**: $5. A little girl sick of being left out all the time.
- **10448**: $5. A man that gets upset when anyone tells him that "hats suck."
- **10449**: $5. A lady looking for another tasty frog.
- **10450**: $5. A lady that jumps for joy at the sight of rolanberry souvenirs.
- **10451**: $5. A weaving woman who lost her memory in Selbina.
- **10452**: $5. A Galkan child who is great at hiding.
- **10453**: $5. A man who started raising his own sheep to get some good wool.
- **10454**: $5. A pupil of Zaldon who knows his fish.
- **10455**: $5. A girl whose fianc<Player>i is all the way in Selbina.
- **10456**: $5. A small mayor in a small town.
- **10457**: $5. A guy who knows a lot about pirates for somebody that's never met one.
- **10458**: $5. A kid that wants to work with monsters when he grows up.
- **10459**: Think hard. You'll figure out who I'm talking about.
- **10460**: What? You need the hints again? Listen up, then. I want you to find these people...
- **10461**: Excellent job! Remember, adventuring is not all just about battles and monsters, but about the people you meet along the way. Try not to forget those faces.

## Events

### Event 65535

#### Metadata

| Field        | Value   |
|--------------|---------|
| Entrypoint   | 0x0000  |
| Data Size    | 1 bytes |
| Instructions | 1       |

```
      00 01 02 03 04 05 06 07  08 09 0A 0B 0C 0D 0E 0F
      -- -- -- -- -- -- -- --  -- -- -- -- -- -- -- --
0000: 00                                                .               
```

#### Opcodes

```
  0: 0x0000 [0x00] END_REQSTACK()
```

### Event 79

#### Metadata

| Field        | Value     |
|--------------|-----------|
| Entrypoint   | 0x0001    |
| Data Size    | 142 bytes |
| Instructions | 32        |

```
      00 01 02 03 04 05 06 07  08 09 0A 0B 0C 0D 0E 0F
      -- -- -- -- -- -- -- --  -- -- -- -- -- -- -- --
0000:    1A CE 07 5B 00 80 F8  FF FF 7F F8 FF FF 7F 74   ...[..........t
0010: 6C 6B 30 1D 01 80 23 1D  02 80 23 5E 69 64 6C 30  lk0...#...#^idl0
0020: 1D 03 80 23 24 04 80 05  80 06 80 25 02 00 10 06  ...#$......%....
0030: 80 00 67 00 5B 00 80 F8  FF FF 7F F8 FF FF 7F 74  ..g.[..........t
0040: 6C 6B 30 1D 07 80 23 03  02 10 08 80 03 03 10 09  lk0...#.........
0050: 80 03 04 10 0A 80 1D 0B  80 23 5E 69 64 6C 30 03  .........#^idl0.
0060: 01 10 05 80 01 8A 00 02  00 10 05 80 00 8A 00 5B  ...............[
0070: 00 80 F8 FF FF 7F F8 FF  FF 7F 74 68 6B 31 1D 0C  ..........thk1..
0080: 80 23 03 01 10 0D 80 01  8A 00 1A 33 08 21 00     .#.........3.!. 
```

#### Opcodes

```
  0: 0x0001 [0x1A] CALL_SUBROUTINE(address=0x07CE)
  1: 0x0004 [0x5B] LOAD_EXT_SCHEDULER: Load scheduler "tlk0" with entities [EventEntity, EventEntity], work=60*
  2: 0x0013 [0x1D] PRINT_EVENT_MESSAGE(message_id=10389*)
    → "Well, well... You've come quite far, but you've still got a long way to go. Do you know about the people here?"
  3: 0x0016 [0x23] WAIT_FOR_DIALOG_INTERACTION
  4: 0x0017 [0x1D] PRINT_EVENT_MESSAGE(message_id=10390*)
    → "Well, don't take this personally, but to them, you're just a tiny little bug! And I'm the one who trains them. Yeah, you can call me a teacher."
  5: 0x001A [0x23] WAIT_FOR_DIALOG_INTERACTION
  6: 0x001B [0x5E] EventEntity goes idle (kills current action) (animation: "idl0")
  7: 0x0020 [0x1D] PRINT_EVENT_MESSAGE(message_id=10391*)
    → "I'm sure you've ambitions of your own, right? If you want to break the barriers within you, you'll have to pass my test. What do you say?"
  8: 0x0023 [0x23] WAIT_FOR_DIALOG_INTERACTION
  9: 0x0024 [0x24] CREATE_DIALOG(message_id=10392*, default_option=1*, option_flags=0*)
    → "Accept the challenge? [At once!/No, thanks.]"
 10: 0x002B [0x25] WAIT_DIALOG_SELECT()
 11: 0x002C [0x02] IF !(Work_Zone[0] == 0*) GOTO 0x0067
 12: 0x0034 [0x5B] LOAD_EXT_SCHEDULER: Load scheduler "tlk0" with entities [EventEntity, EventEntity], work=60*
 13: 0x0043 [0x1D] PRINT_EVENT_MESSAGE(message_id=10393*)
    → "Very good. Gather these:"
 14: 0x0046 [0x23] WAIT_FOR_DIALOG_INTERACTION
 15: 0x0047 [0x03] Work_Zone[2] = 1088*
 16: 0x004C [0x03] Work_Zone[3] = 1089*
 17: 0x0051 [0x03] Work_Zone[4] = 1090*
 18: 0x0056 [0x1D] PRINT_EVENT_MESSAGE(message_id=10394*)
    → "$0, $1, and $2. Well, get to it!"
 19: 0x0059 [0x23] WAIT_FOR_DIALOG_INTERACTION
 20: 0x005A [0x5E] EventEntity goes idle (kills current action) (animation: "idl0")
 21: 0x005F [0x03] Work_Zone[1] = 1*
 22: 0x0064 [0x01] GOTO 0x008A
 23: 0x0067 [0x02] IF !(Work_Zone[0] == 1*) GOTO 0x008A
 24: 0x006F [0x5B] LOAD_EXT_SCHEDULER: Load scheduler "thk1" with entities [EventEntity, EventEntity], work=60*
 25: 0x007E [0x1D] PRINT_EVENT_MESSAGE(message_id=10395*)
    → "Yes, that might be prudent. But you'll never move into the next gear with that kind of attitude!"
 26: 0x0081 [0x23] WAIT_FOR_DIALOG_INTERACTION
 27: 0x0082 [0x03] Work_Zone[1] = 1073741824*
 28: 0x0087 [0x01] GOTO 0x008A

SUBROUTINE_008A:
 29: 0x008A [0x1A] CALL_SUBROUTINE(address=0x0833)
 30: 0x008D [0x21] END_EVENT
 31: 0x008E [0x00] END_REQSTACK()
```

### Event 81

#### Metadata

| Field        | Value    |
|--------------|----------|
| Entrypoint   | 0x008F   |
| Data Size    | 72 bytes |
| Instructions | 14       |

```
      00 01 02 03 04 05 06 07  08 09 0A 0B 0C 0D 0E 0F
      -- -- -- -- -- -- -- --  -- -- -- -- -- -- -- --
0080:                                               1A                 .
0090: CE 07 5B 00 80 F8 FF FF  7F F8 FF FF 7F 74 68 6B  ..[..........thk
00A0: 31 1D 0E 80 23 5B 00 80  F8 FF FF 7F F8 FF FF 7F  1...#[..........
00B0: 61 6E 6E 30 1D 0F 80 23  5E 69 64 6C 30 45 10 80  ann0...#^idl0E..
00C0: F0 FF FF 7F F0 FF FF 7F  71 73 74 63 06 80 48 11  ........qstc..H.
00D0: 80 23 1A 33 08 21 00                              .#.3.!.         
```

#### Opcodes

```
  0: 0x008F [0x1A] CALL_SUBROUTINE(address=0x07CE)
  1: 0x0092 [0x5B] LOAD_EXT_SCHEDULER: Load scheduler "thk1" with entities [EventEntity, EventEntity], work=60*
  2: 0x00A1 [0x1D] PRINT_EVENT_MESSAGE(message_id=10397*)
    → "This is good, very good! Today you've taken your first step into a broader world!"
  3: 0x00A4 [0x23] WAIT_FOR_DIALOG_INTERACTION
  4: 0x00A5 [0x5B] LOAD_EXT_SCHEDULER: Load scheduler "ann0" with entities [EventEntity, EventEntity], work=60*
  5: 0x00B4 [0x1D] PRINT_EVENT_MESSAGE(message_id=10398*)
    → "What, you don't understand? Just get out there and fight. Then you'll see!"
  6: 0x00B7 [0x23] WAIT_FOR_DIALOG_INTERACTION
  7: 0x00B8 [0x5E] EventEntity goes idle (kills current action) (animation: "idl0")
  8: 0x00BD [0x45] LOAD_SCHEDULED_TASK: Load scheduler "qstc" with entities [LocalPlayer, LocalPlayer], work=[201*, 0*]
  9: 0x00CE [0x48] [System] [10399*]:
    → "Your level limit is now 55."
 10: 0x00D1 [0x23] WAIT_FOR_DIALOG_INTERACTION
 11: 0x00D2 [0x1A] CALL_SUBROUTINE(address=0x0833)
 12: 0x00D5 [0x21] END_EVENT
 13: 0x00D6 [0x00] END_REQSTACK()
```

### Event 82

#### Metadata

| Field        | Value     |
|--------------|-----------|
| Entrypoint   | 0x00D7    |
| Data Size    | 114 bytes |
| Instructions | 30        |

```
      00 01 02 03 04 05 06 07  08 09 0A 0B 0C 0D 0E 0F
      -- -- -- -- -- -- -- --  -- -- -- -- -- -- -- --
00D0:                      1A  CE 07 5B 00 80 F8 FF FF         ...[.....
00E0: 7F F8 FF FF 7F 74 6C 6B  30 1D 12 80 23 1D 13 80  .....tlk0...#...
00F0: 23 1D 14 80 23 5E 69 64  6C 30 06 01 10 24 15 80  #...#^idl0...$..
0100: 05 80 06 80 25 02 00 10  06 80 00 35 01 5B 00 80  ....%......5.[..
0110: F8 FF FF 7F F8 FF FF 7F  74 6C 6B 30 1D 16 80 23  ........tlk0...#
0120: 1D 17 80 23 1D 18 80 23  5E 69 64 6C 30 03 01 10  ...#...#^idl0...
0130: 05 80 01 44 01 02 00 10  05 80 00 44 01 1D 19 80  ...D.......D....
0140: 23 01 44 01 1A 33 08 21  00                       #.D..3.!.       
```

#### Opcodes

```
  0: 0x00D7 [0x1A] CALL_SUBROUTINE(address=0x07CE)
  1: 0x00DA [0x5B] LOAD_EXT_SCHEDULER: Load scheduler "tlk0" with entities [EventEntity, EventEntity], work=60*
  2: 0x00E9 [0x1D] PRINT_EVENT_MESSAGE(message_id=10400*)
    → "How's it feel at the top, [sonny/kiddo]? Well, you ain't even close yet. You're just gettin' started!"
  3: 0x00EC [0x23] WAIT_FOR_DIALOG_INTERACTION
  4: 0x00ED [0x1D] PRINT_EVENT_MESSAGE(message_id=10401*)
    → "You think you had a hard time with that last quest? Well, when I was your age, I had to gather twice as many items in half the time! So, stop complainin'!"
  5: 0x00F0 [0x23] WAIT_FOR_DIALOG_INTERACTION
  6: 0x00F1 [0x1D] PRINT_EVENT_MESSAGE(message_id=10402*)
    → "Do you think you've got what it takes to take the next step? Don't think I'm forcing you, or anything!"
  7: 0x00F4 [0x23] WAIT_FOR_DIALOG_INTERACTION
  8: 0x00F5 [0x5E] EventEntity goes idle (kills current action) (animation: "idl0")
  9: 0x00FA [0x06] Work_Zone[1] = 0
 10: 0x00FD [0x24] CREATE_DIALOG(message_id=10403*, default_option=1*, option_flags=0*)
    → "Accept the challenge? [Of course!/No, not yet.]"
 11: 0x0104 [0x25] WAIT_DIALOG_SELECT()
 12: 0x0105 [0x02] IF !(Work_Zone[0] == 0*) GOTO 0x0135
 13: 0x010D [0x5B] LOAD_EXT_SCHEDULER: Load scheduler "tlk0" with entities [EventEntity, EventEntity], work=60*
 14: 0x011C [0x1D] PRINT_EVENT_MESSAGE(message_id=10404*)
    → "Good answer! I'm proud to have a pupil like you! Anyway, listen close to what I have to say."
 15: 0x011F [0x23] WAIT_FOR_DIALOG_INTERACTION
 16: 0x0120 [0x1D] PRINT_EVENT_MESSAGE(message_id=10405*)
    → "Many caverns to the north are home to fiends that can find you even when you're invisible. Bring me three samples of frigicite from deep within."
 17: 0x0123 [0x23] WAIT_FOR_DIALOG_INTERACTION
 18: 0x0124 [0x1D] PRINT_EVENT_MESSAGE(message_id=10406*)
    → "This time, it's a test of wits. Barrier-breakers need brains, after all. Well, get going!"
 19: 0x0127 [0x23] WAIT_FOR_DIALOG_INTERACTION
 20: 0x0128 [0x5E] EventEntity goes idle (kills current action) (animation: "idl0")
 21: 0x012D [0x03] Work_Zone[1] = 1*
 22: 0x0132 [0x01] GOTO 0x0144
 23: 0x0135 [0x02] IF !(Work_Zone[0] == 1*) GOTO 0x0144
 24: 0x013D [0x1D] PRINT_EVENT_MESSAGE(message_id=10407*)
    → "Oh? Very well. It's your life."
 25: 0x0140 [0x23] WAIT_FOR_DIALOG_INTERACTION
 26: 0x0141 [0x01] GOTO 0x0144

SUBROUTINE_0144:
 27: 0x0144 [0x1A] CALL_SUBROUTINE(address=0x0833)
 28: 0x0147 [0x21] END_EVENT
 29: 0x0148 [0x00] END_REQSTACK()
```

### Event 84

#### Metadata

| Field        | Value    |
|--------------|----------|
| Entrypoint   | 0x0149   |
| Data Size    | 49 bytes |
| Instructions | 9        |

```
      00 01 02 03 04 05 06 07  08 09 0A 0B 0C 0D 0E 0F
      -- -- -- -- -- -- -- --  -- -- -- -- -- -- -- --
0140:                             1A CE 07 5B 00 80 F8           ...[...
0150: FF FF 7F F8 FF FF 7F 74  6C 6B 30 1D 1A 80 23 5E  .......tlk0...#^
0160: 69 64 6C 30 45 10 80 F0  FF FF 7F F0 FF FF 7F 71  idl0E..........q
0170: 73 74 63 06 80 1A 33 08  21 00                    stc...3.!.      
```

#### Opcodes

```
  0: 0x0149 [0x1A] CALL_SUBROUTINE(address=0x07CE)
  1: 0x014C [0x5B] LOAD_EXT_SCHEDULER: Load scheduler "tlk0" with entities [EventEntity, EventEntity], work=60*
  2: 0x015B [0x1D] PRINT_EVENT_MESSAGE(message_id=10409*)
    → "Yes, the very thing! You've crossed another great threshold today! Of course, this is merely a prologue of things to come!"
  3: 0x015E [0x23] WAIT_FOR_DIALOG_INTERACTION
  4: 0x015F [0x5E] EventEntity goes idle (kills current action) (animation: "idl0")
  5: 0x0164 [0x45] LOAD_SCHEDULED_TASK: Load scheduler "qstc" with entities [LocalPlayer, LocalPlayer], work=[201*, 0*]
  6: 0x0175 [0x1A] CALL_SUBROUTINE(address=0x0833)
  7: 0x0178 [0x21] END_EVENT
  8: 0x0179 [0x00] END_REQSTACK()
```

### Event 85

#### Metadata

| Field        | Value     |
|--------------|-----------|
| Entrypoint   | 0x017A    |
| Data Size    | 118 bytes |
| Instructions | 28        |

```
      00 01 02 03 04 05 06 07  08 09 0A 0B 0C 0D 0E 0F
      -- -- -- -- -- -- -- --  -- -- -- -- -- -- -- --
0170:                                1A CE 07 5B 00 80            ...[..
0180: F8 FF FF 7F F8 FF FF 7F  74 6C 6B 30 1D 1B 80 23  ........tlk0...#
0190: 5E 69 64 6C 30 24 1C 80  05 80 06 80 25 02 00 10  ^idl0$......%...
01A0: 06 80 00 DC 01 5B 00 80  F8 FF FF 7F F8 FF FF 7F  .....[..........
01B0: 74 6C 6B 30 03 02 10 1D  80 03 03 10 1E 80 03 04  tlk0............
01C0: 10 1F 80 1D 20 80 23 1D  21 80 23 1D 22 80 23 5E  .... .#.!.#.".#^
01D0: 69 64 6C 30 03 01 10 05  80 01 EB 01 02 00 10 05  idl0............
01E0: 80 00 EB 01 1D 23 80 23  01 EB 01 1A 33 08 21 00  .....#.#....3.!.
```

#### Opcodes

```
  0: 0x017A [0x1A] CALL_SUBROUTINE(address=0x07CE)
  1: 0x017D [0x5B] LOAD_EXT_SCHEDULER: Load scheduler "tlk0" with entities [EventEntity, EventEntity], work=60*
  2: 0x018C [0x1D] PRINT_EVENT_MESSAGE(message_id=10412*)
    → "So you think you're ready for the next challenge?"
  3: 0x018F [0x23] WAIT_FOR_DIALOG_INTERACTION
  4: 0x0190 [0x5E] EventEntity goes idle (kills current action) (animation: "idl0")
  5: 0x0195 [0x24] CREATE_DIALOG(message_id=10413*, default_option=1*, option_flags=0*)
    → "Do you think you can handle it? [Of course!/Not just yet.]"
  6: 0x019C [0x25] WAIT_DIALOG_SELECT()
  7: 0x019D [0x02] IF !(Work_Zone[0] == 0*) GOTO 0x01DC
  8: 0x01A5 [0x5B] LOAD_EXT_SCHEDULER: Load scheduler "tlk0" with entities [EventEntity, EventEntity], work=60*
  9: 0x01B4 [0x03] Work_Zone[2] = 336*
 10: 0x01B9 [0x03] Work_Zone[3] = 337*
 11: 0x01BE [0x03] Work_Zone[4] = 338*
 12: 0x01C3 [0x1D] PRINT_EVENT_MESSAGE(message_id=10414*)
    → "That's the spirit. You'll never get anything in this world unless you really want it."
 13: 0x01C6 [0x23] WAIT_FOR_DIALOG_INTERACTION
 14: 0x01C7 [0x1D] PRINT_EVENT_MESSAGE(message_id=10415*)
    → "6, $6, and $6. Bring these three items here to me."
 15: 0x01CA [0x23] WAIT_FOR_DIALOG_INTERACTION
 16: 0x01CB [0x1D] PRINT_EVENT_MESSAGE(message_id=10416*)
    → "I know you can do it. There's something different about you. I can feel it in my bones!"
 17: 0x01CE [0x23] WAIT_FOR_DIALOG_INTERACTION
 18: 0x01CF [0x5E] EventEntity goes idle (kills current action) (animation: "idl0")
 19: 0x01D4 [0x03] Work_Zone[1] = 1*
 20: 0x01D9 [0x01] GOTO 0x01EB
 21: 0x01DC [0x02] IF !(Work_Zone[0] == 1*) GOTO 0x01EB
 22: 0x01E4 [0x1D] PRINT_EVENT_MESSAGE(message_id=10417*)
    → "Well, the choice is yours. I won't goad you into anything."
 23: 0x01E7 [0x23] WAIT_FOR_DIALOG_INTERACTION
 24: 0x01E8 [0x01] GOTO 0x01EB

SUBROUTINE_01EB:
 25: 0x01EB [0x1A] CALL_SUBROUTINE(address=0x0833)
 26: 0x01EE [0x21] END_EVENT
 27: 0x01EF [0x00] END_REQSTACK()
```

### Event 87

#### Metadata

| Field        | Value    |
|--------------|----------|
| Entrypoint   | 0x01F0   |
| Data Size    | 44 bytes |
| Instructions | 8        |

```
      00 01 02 03 04 05 06 07  08 09 0A 0B 0C 0D 0E 0F
      -- -- -- -- -- -- -- --  -- -- -- -- -- -- -- --
01F0: 1A CE 07 5B 00 80 F8 FF  FF 7F F8 FF FF 7F 74 68  ...[..........th
0200: 6B 31 1D 24 80 23 45 10  80 F0 FF FF 7F F0 FF FF  k1.$.#E.........
0210: 7F 71 73 74 63 06 80 1A  33 08 21 00              .qstc...3.!.    
```

#### Opcodes

```
  0: 0x01F0 [0x1A] CALL_SUBROUTINE(address=0x07CE)
  1: 0x01F3 [0x5B] LOAD_EXT_SCHEDULER: Load scheduler "thk1" with entities [EventEntity, EventEntity], work=60*
  2: 0x0202 [0x1D] PRINT_EVENT_MESSAGE(message_id=10419*)
    → "I knew you could do it! I believed in you all along."
  3: 0x0205 [0x23] WAIT_FOR_DIALOG_INTERACTION
  4: 0x0206 [0x45] LOAD_SCHEDULED_TASK: Load scheduler "qstc" with entities [LocalPlayer, LocalPlayer], work=[201*, 0*]
  5: 0x0217 [0x1A] CALL_SUBROUTINE(address=0x0833)
  6: 0x021A [0x21] END_EVENT
  7: 0x021B [0x00] END_REQSTACK()
```

### Event 88

#### Metadata

| Field        | Value     |
|--------------|-----------|
| Entrypoint   | 0x021C    |
| Data Size    | 124 bytes |
| Instructions | 32        |

```
      00 01 02 03 04 05 06 07  08 09 0A 0B 0C 0D 0E 0F
      -- -- -- -- -- -- -- --  -- -- -- -- -- -- -- --
0210:                                      03 08 10 25              ...%
0220: 80 03 09 10 26 80 1A CE  07 5B 00 80 F8 FF FF 7F  ....&....[......
0230: F8 FF FF 7F 74 6C 6B 30  1D 27 80 23 5E 69 64 6C  ....tlk0.'.#^idl
0240: 30 24 1C 80 05 80 06 80  25 02 00 10 06 80 00 84  0$......%.......
0250: 02 5B 00 80 F8 FF FF 7F  F8 FF FF 7F 74 6C 6B 30  .[..........tlk0
0260: 1D 28 80 23 1D 29 80 23  1D 2A 80 23 1D 2B 80 23  .(.#.).#.*.#.+.#
0270: 1A 7B 05 1D 2C 80 23 5E  69 64 6C 30 03 01 10 05  .{..,.#^idl0....
0280: 80 01 93 02 02 00 10 05  80 00 93 02 1D 2D 80 23  .............-.#
0290: 01 93 02 1A 33 08 21 00                           ....3.!.        
```

#### Opcodes

```
  0: 0x021C [0x03] Work_Zone[8] = 466*
  1: 0x0221 [0x03] Work_Zone[9] = 1127*
  2: 0x0226 [0x1A] CALL_SUBROUTINE(address=0x07CE)
  3: 0x0229 [0x5B] LOAD_EXT_SCHEDULER: Load scheduler "tlk0" with entities [EventEntity, EventEntity], work=60*
  4: 0x0238 [0x1D] PRINT_EVENT_MESSAGE(message_id=10421*)
    → "I see you're becoming stronger by the day. Maybe you're ready for my next test. How about it?"
  5: 0x023B [0x23] WAIT_FOR_DIALOG_INTERACTION
  6: 0x023C [0x5E] EventEntity goes idle (kills current action) (animation: "idl0")
  7: 0x0241 [0x24] CREATE_DIALOG(message_id=10413*, default_option=1*, option_flags=0*)
    → "Do you think you can handle it? [Of course!/Not just yet.]"
  8: 0x0248 [0x25] WAIT_DIALOG_SELECT()
  9: 0x0249 [0x02] IF !(Work_Zone[0] == 0*) GOTO 0x0284
 10: 0x0251 [0x5B] LOAD_EXT_SCHEDULER: Load scheduler "tlk0" with entities [EventEntity, EventEntity], work=60*
 11: 0x0260 [0x1D] PRINT_EVENT_MESSAGE(message_id=10423*)
    → "Now listen carefully. First, you must get your hands on four $7. I'm going to give you four hints. You have to figure out who I am talking about, and give one of those $7 to each of them."
 12: 0x0263 [0x23] WAIT_FOR_DIALOG_INTERACTION
 13: 0x0264 [0x1D] PRINT_EVENT_MESSAGE(message_id=10424*)
    → "I've already talked to them, so all you have to do is hand over the $7 and they will trade you back a strange stone."
 14: 0x0267 [0x23] WAIT_FOR_DIALOG_INTERACTION
 15: 0x0268 [0x1D] PRINT_EVENT_MESSAGE(message_id=10425*)
    → "If the person you try to trade it to doesn't accept it, then it means you've got the wrong person."
 16: 0x026B [0x23] WAIT_FOR_DIALOG_INTERACTION
 17: 0x026C [0x1D] PRINT_EVENT_MESSAGE(message_id=10426*)
    → "Here are your four hints, so listen up. I want you to find these people..."
 18: 0x026F [0x23] WAIT_FOR_DIALOG_INTERACTION
 19: 0x0270 [0x1A] CALL_SUBROUTINE(address=0x057B)
 20: 0x0273 [0x1D] PRINT_EVENT_MESSAGE(message_id=10459*)
    → "Think hard. You'll figure out who I'm talking about."
 21: 0x0276 [0x23] WAIT_FOR_DIALOG_INTERACTION
 22: 0x0277 [0x5E] EventEntity goes idle (kills current action) (animation: "idl0")
 23: 0x027C [0x03] Work_Zone[1] = 1*
 24: 0x0281 [0x01] GOTO 0x0293
 25: 0x0284 [0x02] IF !(Work_Zone[0] == 1*) GOTO 0x0293
 26: 0x028C [0x1D] PRINT_EVENT_MESSAGE(message_id=10422*)
    → "Your next test will span over the farthest reaches of Vana'diel. You'll have to give it your all, or you're sure to fail."
 27: 0x028F [0x23] WAIT_FOR_DIALOG_INTERACTION
 28: 0x0290 [0x01] GOTO 0x0293

SUBROUTINE_0293:
 29: 0x0293 [0x1A] CALL_SUBROUTINE(address=0x0833)
 30: 0x0296 [0x21] END_EVENT
 31: 0x0297 [0x00] END_REQSTACK()
```

### Event 89

#### Metadata

| Field        | Value    |
|--------------|----------|
| Entrypoint   | 0x0298   |
| Data Size    | 13 bytes |
| Instructions | 7        |

```
      00 01 02 03 04 05 06 07  08 09 0A 0B 0C 0D 0E 0F
      -- -- -- -- -- -- -- --  -- -- -- -- -- -- -- --
0290:                          1D 2E 80 23 1A 7B 05 1D          ...#.{..
02A0: 2C 80 23 21 00                                    ,.#!.           
```

#### Opcodes

```
  0: 0x0298 [0x1D] PRINT_EVENT_MESSAGE(message_id=10460*)
    → "What? You need the hints again? Listen up, then. I want you to find these people..."
  1: 0x029B [0x23] WAIT_FOR_DIALOG_INTERACTION
  2: 0x029C [0x1A] CALL_SUBROUTINE(address=0x057B)
  3: 0x029F [0x1D] PRINT_EVENT_MESSAGE(message_id=10459*)
    → "Think hard. You'll figure out who I'm talking about."
  4: 0x02A2 [0x23] WAIT_FOR_DIALOG_INTERACTION
  5: 0x02A3 [0x21] END_EVENT
  6: 0x02A4 [0x00] END_REQSTACK()
```

### Event 90

#### Metadata

| Field        | Value    |
|--------------|----------|
| Entrypoint   | 0x02A5   |
| Data Size    | 44 bytes |
| Instructions | 8        |

```
      00 01 02 03 04 05 06 07  08 09 0A 0B 0C 0D 0E 0F
      -- -- -- -- -- -- -- --  -- -- -- -- -- -- -- --
02A0:                1A CE 07  5B 00 80 F8 FF FF 7F F8       ...[.......
02B0: FF FF 7F 74 68 6B 31 1D  2F 80 23 45 10 80 F0 FF  ...thk1./.#E....
02C0: FF 7F F0 FF FF 7F 71 73  74 63 06 80 1A 33 08 21  ......qstc...3.!
02D0: 00                                                .               
```

#### Opcodes

```
  0: 0x02A5 [0x1A] CALL_SUBROUTINE(address=0x07CE)
  1: 0x02A8 [0x5B] LOAD_EXT_SCHEDULER: Load scheduler "thk1" with entities [EventEntity, EventEntity], work=60*
  2: 0x02B7 [0x1D] PRINT_EVENT_MESSAGE(message_id=10461*)
    → "Excellent job! Remember, adventuring is not all just about battles and monsters, but about the people you meet along the way. Try not to forget those faces."
  3: 0x02BA [0x23] WAIT_FOR_DIALOG_INTERACTION
  4: 0x02BB [0x45] LOAD_SCHEDULED_TASK: Load scheduler "qstc" with entities [LocalPlayer, LocalPlayer], work=[201*, 0*]
  5: 0x02CC [0x1A] CALL_SUBROUTINE(address=0x0833)
  6: 0x02CF [0x21] END_EVENT
  7: 0x02D0 [0x00] END_REQSTACK()
```

### Event 92

#### Metadata

| Field        | Value   |
|--------------|---------|
| Entrypoint   | 0x02D1  |
| Data Size    | 1 bytes |
| Instructions | 1       |

```
      00 01 02 03 04 05 06 07  08 09 0A 0B 0C 0D 0E 0F
      -- -- -- -- -- -- -- --  -- -- -- -- -- -- -- --
02D0:    00                                              .              
```

#### Opcodes

```
  0: 0x02D1 [0x00] END_REQSTACK()
```

### Event 64

#### Metadata

| Field        | Value   |
|--------------|---------|
| Entrypoint   | 0x02D2  |
| Data Size    | 1 bytes |
| Instructions | 1       |

```
      00 01 02 03 04 05 06 07  08 09 0A 0B 0C 0D 0E 0F
      -- -- -- -- -- -- -- --  -- -- -- -- -- -- -- --
02D0:       00                                            .             
```

#### Opcodes

```
  0: 0x02D2 [0x00] END_REQSTACK()
```

### Event 93

#### Metadata

| Field        | Value   |
|--------------|---------|
| Entrypoint   | 0x02D3  |
| Data Size    | 1 bytes |
| Instructions | 1       |

```
      00 01 02 03 04 05 06 07  08 09 0A 0B 0C 0D 0E 0F
      -- -- -- -- -- -- -- --  -- -- -- -- -- -- -- --
02D0:          00                                          .            
```

#### Opcodes

```
  0: 0x02D3 [0x00] END_REQSTACK()
```

### Event 74

#### Metadata

| Field        | Value   |
|--------------|---------|
| Entrypoint   | 0x02D4  |
| Data Size    | 1 bytes |
| Instructions | 1       |

```
      00 01 02 03 04 05 06 07  08 09 0A 0B 0C 0D 0E 0F
      -- -- -- -- -- -- -- --  -- -- -- -- -- -- -- --
02D0:             00                                        .           
```

#### Opcodes

```
  0: 0x02D4 [0x00] END_REQSTACK()
```

### Event 65535.1

#### Metadata

| Field        | Value    |
|--------------|----------|
| Entrypoint   | 0x02D5   |
| Data Size    | 14 bytes |
| Instructions | 4        |

```
      00 01 02 03 04 05 06 07  08 09 0A 0B 0C 0D 0E 0F
      -- -- -- -- -- -- -- --  -- -- -- -- -- -- -- --
02D0:                32 30 80  1F 00 31 80 32 80 33 80       20...1.2.3.
02E0: 1F 01 00                                          ...             
```

#### Opcodes

```
  0: 0x02D5 [0x32] ExtData[1]->MainSpeed = 9* * 0.1
  1: 0x02D8 [0x1F] MOVE_ENTITY: EventEntity moves to X=7.189*, Z=118.886*, Y=3.101*
  2: 0x02E0 [0x1F] MOVE_ENTITY: Update entity position (mode=1)
  3: 0x02E2 [0x00] END_REQSTACK()
```

### Event 65535.2

#### Metadata

| Field        | Value    |
|--------------|----------|
| Entrypoint   | 0x02E3   |
| Data Size    | 15 bytes |
| Instructions | 5        |

```
      00 01 02 03 04 05 06 07  08 09 0A 0B 0C 0D 0E 0F
      -- -- -- -- -- -- -- --  -- -- -- -- -- -- -- --
02E0:          32 30 80 1F 00  34 80 35 80 33 80 1F 01     20...4.5.3...
02F0: 6F 00                                             o.              
```

#### Opcodes

```
  0: 0x02E3 [0x32] ExtData[1]->MainSpeed = 9* * 0.1
  1: 0x02E6 [0x1F] MOVE_ENTITY: EventEntity moves to X=11.377*, Z=119.493*, Y=3.101*
  2: 0x02EE [0x1F] MOVE_ENTITY: Update entity position (mode=1)
  3: 0x02F0 [0x6F] WAIT_FRAME_DELAY: Yield until WaitTime reaches zero
  4: 0x02F1 [0x00] END_REQSTACK()
```

### Event 65535.3

#### Metadata

| Field        | Value    |
|--------------|----------|
| Entrypoint   | 0x02F2   |
| Data Size    | 29 bytes |
| Instructions | 3        |

```
      00 01 02 03 04 05 06 07  08 09 0A 0B 0C 0D 0E 0F
      -- -- -- -- -- -- -- --  -- -- -- -- -- -- -- --
02F0:       5B 00 80 F8 FF FF  7F F8 FF FF 7F 74 6C 6B    [..........tlk
0300: 30 53 F8 FF FF 7F F8 FF  FF 7F 74 6C 6B 30 00     0S........tlk0. 
```

#### Opcodes

```
  0: 0x02F2 [0x5B] LOAD_EXT_SCHEDULER: Load scheduler "tlk0" with entities [EventEntity, EventEntity], work=60*
  1: 0x0301 [0x53] WAIT_SCHEDULER_TASK: Wait for scheduler "tlk0" with entities [EventEntity, EventEntity]
  2: 0x030E [0x00] END_REQSTACK()
```

### Event 65535.4

#### Metadata

| Field        | Value    |
|--------------|----------|
| Entrypoint   | 0x030F   |
| Data Size    | 29 bytes |
| Instructions | 3        |

```
      00 01 02 03 04 05 06 07  08 09 0A 0B 0C 0D 0E 0F
      -- -- -- -- -- -- -- --  -- -- -- -- -- -- -- --
0300:                                               5B                 [
0310: 00 80 F8 FF FF 7F F8 FF  FF 7F 74 6C 6B 31 53 F8  ..........tlk1S.
0320: FF FF 7F F8 FF FF 7F 74  6C 6B 31 00              .......tlk1.    
```

#### Opcodes

```
  0: 0x030F [0x5B] LOAD_EXT_SCHEDULER: Load scheduler "tlk1" with entities [EventEntity, EventEntity], work=60*
  1: 0x031E [0x53] WAIT_SCHEDULER_TASK: Wait for scheduler "tlk1" with entities [EventEntity, EventEntity]
  2: 0x032B [0x00] END_REQSTACK()
```

### Event 65535.5

#### Metadata

| Field        | Value    |
|--------------|----------|
| Entrypoint   | 0x032C   |
| Data Size    | 29 bytes |
| Instructions | 3        |

```
      00 01 02 03 04 05 06 07  08 09 0A 0B 0C 0D 0E 0F
      -- -- -- -- -- -- -- --  -- -- -- -- -- -- -- --
0320:                                      5B 00 80 F8              [...
0330: FF FF 7F F8 FF FF 7F 74  68 6B 31 53 F8 FF FF 7F  .......thk1S....
0340: F8 FF FF 7F 74 68 6B 31  00                       ....thk1.       
```

#### Opcodes

```
  0: 0x032C [0x5B] LOAD_EXT_SCHEDULER: Load scheduler "thk1" with entities [EventEntity, EventEntity], work=60*
  1: 0x033B [0x53] WAIT_SCHEDULER_TASK: Wait for scheduler "thk1" with entities [EventEntity, EventEntity]
  2: 0x0348 [0x00] END_REQSTACK()
```

### Event 65535.6

#### Metadata

| Field        | Value    |
|--------------|----------|
| Entrypoint   | 0x0349   |
| Data Size    | 29 bytes |
| Instructions | 3        |

```
      00 01 02 03 04 05 06 07  08 09 0A 0B 0C 0D 0E 0F
      -- -- -- -- -- -- -- --  -- -- -- -- -- -- -- --
0340:                             5B 00 80 F8 FF FF 7F           [......
0350: F8 FF FF 7F 74 68 6B 32  53 F8 FF FF 7F F8 FF FF  ....thk2S.......
0360: 7F 74 68 6B 32 00                                 .thk2.          
```

#### Opcodes

```
  0: 0x0349 [0x5B] LOAD_EXT_SCHEDULER: Load scheduler "thk2" with entities [EventEntity, EventEntity], work=60*
  1: 0x0358 [0x53] WAIT_SCHEDULER_TASK: Wait for scheduler "thk2" with entities [EventEntity, EventEntity]
  2: 0x0365 [0x00] END_REQSTACK()
```

### Event 65535.7

#### Metadata

| Field        | Value    |
|--------------|----------|
| Entrypoint   | 0x0366   |
| Data Size    | 35 bytes |
| Instructions | 4        |

```
      00 01 02 03 04 05 06 07  08 09 0A 0B 0C 0D 0E 0F
      -- -- -- -- -- -- -- --  -- -- -- -- -- -- -- --
0360:                   81 00  F8 FF FF 7F 5B 00 80 F8        ......[...
0370: FF FF 7F F8 FF FF 7F 61  6E 6E 30 53 F8 FF FF 7F  .......ann0S....
0380: F8 FF FF 7F 61 6E 6E 30  00                       ....ann0.       
```

#### Opcodes

```
  0: 0x0366 [0x81] SET_ENTITY_BLINKING(blink_flag=0x00, entity=EventEntity)
  1: 0x036C [0x5B] LOAD_EXT_SCHEDULER: Load scheduler "ann0" with entities [EventEntity, EventEntity], work=60*
  2: 0x037B [0x53] WAIT_SCHEDULER_TASK: Wait for scheduler "ann0" with entities [EventEntity, EventEntity]
  3: 0x0388 [0x00] END_REQSTACK()
```

### Event 65535.8

#### Metadata

| Field        | Value    |
|--------------|----------|
| Entrypoint   | 0x0389   |
| Data Size    | 35 bytes |
| Instructions | 4        |

```
      00 01 02 03 04 05 06 07  08 09 0A 0B 0C 0D 0E 0F
      -- -- -- -- -- -- -- --  -- -- -- -- -- -- -- --
0380:                             81 01 F8 FF FF 7F 5B           ......[
0390: 00 80 F8 FF FF 7F F8 FF  FF 7F 61 6E 6E 31 53 F8  ..........ann1S.
03A0: FF FF 7F F8 FF FF 7F 61  6E 6E 31 00              .......ann1.    
```

#### Opcodes

```
  0: 0x0389 [0x81] SET_ENTITY_BLINKING(blink_flag=0x01, entity=EventEntity)
  1: 0x038F [0x5B] LOAD_EXT_SCHEDULER: Load scheduler "ann1" with entities [EventEntity, EventEntity], work=60*
  2: 0x039E [0x53] WAIT_SCHEDULER_TASK: Wait for scheduler "ann1" with entities [EventEntity, EventEntity]
  3: 0x03AB [0x00] END_REQSTACK()
```

### Event 65535.9

#### Metadata

| Field        | Value    |
|--------------|----------|
| Entrypoint   | 0x03AC   |
| Data Size    | 29 bytes |
| Instructions | 3        |

```
      00 01 02 03 04 05 06 07  08 09 0A 0B 0C 0D 0E 0F
      -- -- -- -- -- -- -- --  -- -- -- -- -- -- -- --
03A0:                                      5B 00 80 F8              [...
03B0: FF FF 7F F8 FF FF 7F 68  61 6E 30 53 F8 FF FF 7F  .......han0S....
03C0: F8 FF FF 7F 68 61 6E 30  00                       ....han0.       
```

#### Opcodes

```
  0: 0x03AC [0x5B] LOAD_EXT_SCHEDULER: Load scheduler "han0" with entities [EventEntity, EventEntity], work=60*
  1: 0x03BB [0x53] WAIT_SCHEDULER_TASK: Wait for scheduler "han0" with entities [EventEntity, EventEntity]
  2: 0x03C8 [0x00] END_REQSTACK()
```

### Event 65535.10

#### Metadata

| Field        | Value    |
|--------------|----------|
| Entrypoint   | 0x03C9   |
| Data Size    | 29 bytes |
| Instructions | 3        |

```
      00 01 02 03 04 05 06 07  08 09 0A 0B 0C 0D 0E 0F
      -- -- -- -- -- -- -- --  -- -- -- -- -- -- -- --
03C0:                             5B 00 80 F8 FF FF 7F           [......
03D0: F8 FF FF 7F 68 61 6E 31  53 F8 FF FF 7F F8 FF FF  ....han1S.......
03E0: 7F 68 61 6E 31 00                                 .han1.          
```

#### Opcodes

```
  0: 0x03C9 [0x5B] LOAD_EXT_SCHEDULER: Load scheduler "han1" with entities [EventEntity, EventEntity], work=60*
  1: 0x03D8 [0x53] WAIT_SCHEDULER_TASK: Wait for scheduler "han1" with entities [EventEntity, EventEntity]
  2: 0x03E5 [0x00] END_REQSTACK()
```

### Event 65535.11

#### Metadata

| Field        | Value    |
|--------------|----------|
| Entrypoint   | 0x03E6   |
| Data Size    | 29 bytes |
| Instructions | 3        |

```
      00 01 02 03 04 05 06 07  08 09 0A 0B 0C 0D 0E 0F
      -- -- -- -- -- -- -- --  -- -- -- -- -- -- -- --
03E0:                   5B 00  80 F8 FF FF 7F F8 FF FF        [.........
03F0: 7F 70 61 73 30 53 F8 FF  FF 7F F8 FF FF 7F 70 61  .pas0S........pa
0400: 73 30 00                                          s0.             
```

#### Opcodes

```
  0: 0x03E6 [0x5B] LOAD_EXT_SCHEDULER: Load scheduler "pas0" with entities [EventEntity, EventEntity], work=60*
  1: 0x03F5 [0x53] WAIT_SCHEDULER_TASK: Wait for scheduler "pas0" with entities [EventEntity, EventEntity]
  2: 0x0402 [0x00] END_REQSTACK()
```

### Event 65535.12

#### Metadata

| Field        | Value    |
|--------------|----------|
| Entrypoint   | 0x0403   |
| Data Size    | 14 bytes |
| Instructions | 4        |

```
      00 01 02 03 04 05 06 07  08 09 0A 0B 0C 0D 0E 0F
      -- -- -- -- -- -- -- --  -- -- -- -- -- -- -- --
0400:          32 36 80 1F 00  37 80 38 80 33 80 1F 01     26...7.8.3...
0410: 00                                                .               
```

#### Opcodes

```
  0: 0x0403 [0x32] ExtData[1]->MainSpeed = 13* * 0.1
  1: 0x0406 [0x1F] MOVE_ENTITY: EventEntity moves to X=10.371*, Z=117.087*, Y=3.101*
  2: 0x040E [0x1F] MOVE_ENTITY: Update entity position (mode=1)
  3: 0x0410 [0x00] END_REQSTACK()
```

### Event 65535.13

#### Metadata

| Field        | Value    |
|--------------|----------|
| Entrypoint   | 0x0411   |
| Data Size    | 14 bytes |
| Instructions | 4        |

```
      00 01 02 03 04 05 06 07  08 09 0A 0B 0C 0D 0E 0F
      -- -- -- -- -- -- -- --  -- -- -- -- -- -- -- --
0410:    32 36 80 1F 00 39 80  3A 80 33 80 1F 01 00      26...9.:.3.... 
```

#### Opcodes

```
  0: 0x0411 [0x32] ExtData[1]->MainSpeed = 13* * 0.1
  1: 0x0414 [0x1F] MOVE_ENTITY: EventEntity moves to X=11.924*, Z=120.320*, Y=3.101*
  2: 0x041C [0x1F] MOVE_ENTITY: Update entity position (mode=1)
  3: 0x041E [0x00] END_REQSTACK()
```

### Event 10139

#### Metadata

| Field        | Value   |
|--------------|---------|
| Entrypoint   | 0x041F  |
| Data Size    | 1 bytes |
| Instructions | 1       |

```
      00 01 02 03 04 05 06 07  08 09 0A 0B 0C 0D 0E 0F
      -- -- -- -- -- -- -- --  -- -- -- -- -- -- -- --
0410:                                               00                 .
```

#### Opcodes

```
  0: 0x041F [0x00] END_REQSTACK()
```

### Event 10194

#### Metadata

| Field        | Value   |
|--------------|---------|
| Entrypoint   | 0x0420  |
| Data Size    | 1 bytes |
| Instructions | 1       |

```
      00 01 02 03 04 05 06 07  08 09 0A 0B 0C 0D 0E 0F
      -- -- -- -- -- -- -- --  -- -- -- -- -- -- -- --
0420: 00                                                .               
```

#### Opcodes

```
  0: 0x0420 [0x00] END_REQSTACK()
```

### Event 10241

#### Metadata

| Field        | Value   |
|--------------|---------|
| Entrypoint   | 0x0421  |
| Data Size    | 1 bytes |
| Instructions | 1       |

```
      00 01 02 03 04 05 06 07  08 09 0A 0B 0C 0D 0E 0F
      -- -- -- -- -- -- -- --  -- -- -- -- -- -- -- --
0420:    00                                              .              
```

#### Opcodes

```
  0: 0x0421 [0x00] END_REQSTACK()
```

### Event 65535.14

#### Metadata

| Field        | Value    |
|--------------|----------|
| Entrypoint   | 0x0422   |
| Data Size    | 10 bytes |
| Instructions | 2        |

```
      00 01 02 03 04 05 06 07  08 09 0A 0B 0C 0D 0E 0F
      -- -- -- -- -- -- -- --  -- -- -- -- -- -- -- --
0420:       37 3B 80 3C 80 33  80 3D 80 00                7;.<.3.=..    
```

#### Opcodes

```
  0: 0x0422 [0x37] UPDATE_EVENT_POSITION_AND_DIR: x=10.533*, z=117.986*, y=3.101*, direction=142.8°*
  1: 0x042B [0x00] END_REQSTACK()
```

### Event 65535.15

#### Metadata

| Field        | Value    |
|--------------|----------|
| Entrypoint   | 0x042C   |
| Data Size    | 14 bytes |
| Instructions | 4        |

```
      00 01 02 03 04 05 06 07  08 09 0A 0B 0C 0D 0E 0F
      -- -- -- -- -- -- -- --  -- -- -- -- -- -- -- --
0420:                                      32 3E 80 1F              2>..
0430: 00 3F 80 40 80 33 80 1F  01 00                    .?.@.3....      
```

#### Opcodes

```
  0: 0x042C [0x32] ExtData[1]->MainSpeed = 25* * 0.1
  1: 0x042F [0x1F] MOVE_ENTITY: EventEntity moves to X=10.558*, Z=114.099*, Y=3.101*
  2: 0x0437 [0x1F] MOVE_ENTITY: Update entity position (mode=1)
  3: 0x0439 [0x00] END_REQSTACK()
```

### Event 65535.16

#### Metadata

| Field        | Value    |
|--------------|----------|
| Entrypoint   | 0x043A   |
| Data Size    | 34 bytes |
| Instructions | 8        |

```
      00 01 02 03 04 05 06 07  08 09 0A 0B 0C 0D 0E 0F
      -- -- -- -- -- -- -- --  -- -- -- -- -- -- -- --
0430:                                33 01 37 41 80 42            3.7A.B
0440: 80 43 80 44 80 1F 00 45  80 46 80 47 80 1F 01 1F  .C.D...E.F.G....
0450: 00 48 80 49 80 4A 80 1F  01 22 01 00              .H.I.J..."..    
```

#### Opcodes

```
  0: 0x043A [0x33] EventEntity->Render.Flags0 |= 0x200000 // Bit 21 (flag=0x01)
  1: 0x043C [0x37] UPDATE_EVENT_POSITION_AND_DIR: x=9.513*, z=114.101*, y=3.068*, direction=128.0°*
  2: 0x0445 [0x1F] MOVE_ENTITY: EventEntity moves to X=7.916*, Z=109.697*, Y=2.908*
  3: 0x044D [0x1F] MOVE_ENTITY: Update entity position (mode=1)
  4: 0x044F [0x1F] MOVE_ENTITY: EventEntity moves to X=5.284*, Z=109.656*, Y=2.902*
  5: 0x0457 [0x1F] MOVE_ENTITY: Update entity position (mode=1)
  6: 0x0459 [0x22] ENTITY_HIDE_FLAG(enabled=0x01)
  7: 0x045B [0x00] END_REQSTACK()
```

### Event 65535.17

#### Metadata

| Field        | Value    |
|--------------|----------|
| Entrypoint   | 0x045C   |
| Data Size    | 12 bytes |
| Instructions | 3        |

```
      00 01 02 03 04 05 06 07  08 09 0A 0B 0C 0D 0E 0F
      -- -- -- -- -- -- -- --  -- -- -- -- -- -- -- --
0450:                                      37 4B 80 4C              7K.L
0460: 80 4D 80 4E 80 22 00 00                           .M.N."..        
```

#### Opcodes

```
  0: 0x045C [0x37] UPDATE_EVENT_POSITION_AND_DIR: x=9.380*, z=114.173*, y=3.059*, direction=279.3°*
  1: 0x0465 [0x22] ENTITY_HIDE_FLAG(enabled=0x00)
  2: 0x0467 [0x00] END_REQSTACK()
```

### Event 65535.18

#### Metadata

| Field        | Value      |
|--------------|------------|
| Entrypoint   | 0x0468     |
| Data Size    | 1030 bytes |
| Instructions | 8          |

```
      00 01 02 03 04 05 06 07  08 09 0A 0B 0C 0D 0E 0F
      -- -- -- -- -- -- -- --  -- -- -- -- -- -- -- --
0460:                          32 4F 80 1F 00 3B 80 3C          2O...;.<
0470: 80 33 80 1F 01 4B F8 FF  FF 7F 50 80 6F 76 F8 FF  .3...K....P.ov..
0480: FF 7F 33 00 00 02 02 10  05 80 80 95 04 03 03 10  ..3.............
0490: 51 80 01 7A 05 02 02 10  52 80 80 A5 04 03 03 10  Q..z....R.......
04A0: 53 80 01 7A 05 02 02 10  54 80 80 B5 04 03 03 10  S..z....T.......
04B0: 55 80 01 7A 05 02 02 10  56 80 80 C5 04 03 03 10  U..z....V.......
04C0: 57 80 01 7A 05 02 02 10  58 80 80 D5 04 03 03 10  W..z....X.......
04D0: 59 80 01 7A 05 02 02 10  5A 80 80 E5 04 03 03 10  Y..z....Z.......
04E0: 5B 80 01 7A 05 02 02 10  5C 80 80 F5 04 03 03 10  [..z....\.......
04F0: 5D 80 01 7A 05 02 02 10  5E 80 80 05 05 03 03 10  ]..z....^.......
0500: 5F 80 01 7A 05 02 02 10  30 80 80 15 05 03 03 10  _..z....0.......
0510: 60 80 01 7A 05 02 02 10  61 80 80 25 05 03 03 10  `..z....a..%....
0520: 62 80 01 7A 05 02 02 10  63 80 80 35 05 03 03 10  b..z....c..5....
0530: 64 80 01 7A 05 02 02 10  65 80 80 45 05 03 03 10  d..z....e..E....
0540: 66 80 01 7A 05 02 02 10  36 80 80 55 05 03 03 10  f..z....6..U....
0550: 67 80 01 7A 05 02 02 10  68 80 80 65 05 03 03 10  g..z....h..e....
0560: 69 80 01 7A 05 02 02 10  6A 80 80 75 05 03 03 10  i..z....j..u....
0570: 6B 80 01 7A 05 03 03 10  51 80 1B 06 00 00 03 02  k..z....Q.......
0580: 00 06 80 03 03 00 05 80  02 00 00 54 80 05 E9 05  ...........T....
0590: 41 02 00 03 00 06 10 01  00 03 07 10 00 00 0B 07  A...............
05A0: 10 02 01 00 06 80 80 AF  05 1A EA 05 01 D9 05 02  ................
05B0: 01 00 05 80 80 BD 05 1A  63 06 01 D9 05 02 01 00  ........c.......
05C0: 52 80 80 CB 05 1A DC 06  01 D9 05 02 01 00 54 80  R.............T.
05D0: 80 D9 05 1A 55 07 01 D9  05 0B 00 00 07 02 00 52  ....U..........R
05E0: 80 07 03 00 52 80 01 88  05 1B 02 02 10 06 80 80  ....R...........
05F0: F9 05 1D 6C 80 23 01 62  06 02 02 10 05 80 80 08  ...l.#.b........
0600: 06 1D 6D 80 23 01 62 06  02 02 10 52 80 80 17 06  ..m.#.b....R....
0610: 1D 6E 80 23 01 62 06 02  02 10 54 80 80 26 06 1D  .n.#.b....T..&..
0620: 6F 80 23 01 62 06 02 02  10 56 80 80 35 06 1D 70  o.#.b....V..5..p
0630: 80 23 01 62 06 02 02 10  58 80 80 44 06 1D 71 80  .#.b....X..D..q.
0640: 23 01 62 06 02 02 10 5A  80 80 53 06 1D 72 80 23  #.b....Z..S..r.#
0650: 01 62 06 02 02 10 5C 80  80 62 06 1D 73 80 23 01  .b....\..b..s.#.
0660: 62 06 1B 02 03 10 06 80  80 72 06 1D 74 80 23 01  b........r..t.#.
0670: DB 06 02 03 10 05 80 80  81 06 1D 75 80 23 01 DB  ...........u.#..
0680: 06 02 03 10 52 80 80 90  06 1D 76 80 23 01 DB 06  ....R.....v.#...
0690: 02 03 10 54 80 80 9F 06  1D 77 80 23 01 DB 06 02  ...T.....w.#....
06A0: 03 10 56 80 80 AE 06 1D  78 80 23 01 DB 06 02 03  ..V.....x.#.....
06B0: 10 58 80 80 BD 06 1D 79  80 23 01 DB 06 02 03 10  .X.....y.#......
06C0: 5A 80 80 CC 06 1D 7A 80  23 01 DB 06 02 03 10 5C  Z.....z.#......\
06D0: 80 80 DB 06 1D 7B 80 23  01 DB 06 1B 02 04 10 06  .....{.#........
06E0: 80 80 EB 06 1D 7C 80 23  01 54 07 02 04 10 05 80  .....|.#.T......
06F0: 80 FA 06 1D 7D 80 23 01  54 07 02 04 10 52 80 80  ....}.#.T....R..
0700: 09 07 1D 7E 80 23 01 54  07 02 04 10 54 80 80 18  ...~.#.T....T...
0710: 07 1D 7F 80 23 01 54 07  02 04 10 56 80 80 27 07  ....#.T....V..'.
0720: 1D 80 80 23 01 54 07 02  04 10 58 80 80 36 07 1D  ...#.T....X..6..
0730: 81 80 23 01 54 07 02 04  10 5A 80 80 45 07 1D 82  ..#.T....Z..E...
0740: 80 23 01 54 07 02 04 10  5C 80 80 54 07 1D 83 80  .#.T....\..T....
0750: 23 01 54 07 1B 02 05 10  06 80 80 64 07 1D 84 80  #.T........d....
0760: 23 01 CD 07 02 05 10 05  80 80 73 07 1D 85 80 23  #.........s....#
0770: 01 CD 07 02 05 10 52 80  80 82 07 1D 86 80 23 01  ......R.......#.
0780: CD 07 02 05 10 54 80 80  91 07 1D 87 80 23 01 CD  .....T.......#..
0790: 07 02 05 10 56 80 80 A0  07 1D 88 80 23 01 CD 07  ....V.......#...
07A0: 02 05 10 58 80 80 AF 07  1D 89 80 23 01 CD 07 02  ...X.......#....
07B0: 05 10 5A 80 80 BE 07 1D  8A 80 23 01 CD 07 02 05  ..Z.......#.....
07C0: 10 5C 80 80 CD 07 1D 8B  80 23 01 CD 07 1B 20 01  .\.......#.... .
07D0: 42 45 8C 80 F0 FF FF 7F  F0 FF FF 7F 66 64 6F 31  BE..........fdo1
07E0: 06 80 55 8C 80 F0 FF FF  7F F0 FF FF 7F 66 64 6F  ..U..........fdo
07F0: 31 38 54 80 2F 00 F8 FF  FF 7F 22 00 4E 01 31 30  18T./.....".N.10
0800: 0F 01 4A F0 FF FF 7F F8  FF FF 7F 1E F0 FF FF 7F  ..J.............
0810: 6F 70 45 8C 80 F0 FF FF  7F F0 FF FF 7F 66 64 69  opE..........fdi
0820: 31 06 80 55 8C 80 F0 FF  FF 7F F0 FF FF 7F 66 64  1..U..........fd
0830: 69 31 1B 45 8C 80 F0 FF  FF 7F F0 FF FF 7F 66 64  i1.E..........fd
0840: 6F 32 06 80 55 8C 80 F0  FF FF 7F F0 FF FF 7F 66  o2..U..........f
0850: 64 6F 32 4E 01 F8 FF FF  7F 46 00 45 8C 80 F0 FF  do2N.....F.E....
0860: FF 7F F0 FF FF 7F 66 64  69 32 06 80 21 1B        ......fdi2..!.  
```

#### Opcodes

```
  0: 0x0468 [0x32] ExtData[1]->MainSpeed = 20* * 0.1
  1: 0x046B [0x1F] MOVE_ENTITY: EventEntity moves to X=10.533*, Z=117.986*, Y=3.101*
  2: 0x0473 [0x1F] MOVE_ENTITY: Update entity position (mode=1)
  3: 0x0475 [0x4B] UPDATE_ENTITY_YAW(entity=EventEntity, yaw=11.1°*)
  4: 0x047C [0x6F] WAIT_FRAME_DELAY: Yield until WaitTime reaches zero
  5: 0x047D [0x76] CHECK_ENTITY_RENDER_FLAGS: Wait until EventEntity Render.Flags0 and Render.Flags3 conditions are met
  6: 0x0482 [0x33] EventEntity->Render.Flags0 &= ~ 0x200000 // Bit 21 (flag=0x00)
  7: 0x0484 [0x00] END_REQSTACK()
```

#### Data or dead code:

```
# Dead code (unreachable instructions):
     0x0485 [0x02] IF !(Work_Zone[2] == 1*) GOTO 0x0495
     0x048D [0x03] Work_Zone[3] = 1426*
     0x0492 [0x01] GOTO 0x057A
     0x0495 [0x02] IF !(Work_Zone[2] == 2*) GOTO 0x04A5
     0x049D [0x03] Work_Zone[3] = 1427*
     0x04A2 [0x01] GOTO 0x057A
     0x04A5 [0x02] IF !(Work_Zone[2] == 3*) GOTO 0x04B5
     0x04AD [0x03] Work_Zone[3] = 1428*
     0x04B2 [0x01] GOTO 0x057A
     0x04B5 [0x02] IF !(Work_Zone[2] == 4*) GOTO 0x04C5
     0x04BD [0x03] Work_Zone[3] = 1429*
     0x04C2 [0x01] GOTO 0x057A
     0x04C5 [0x02] IF !(Work_Zone[2] == 5*) GOTO 0x04D5
     0x04CD [0x03] Work_Zone[3] = 1430*
     0x04D2 [0x01] GOTO 0x057A
     0x04D5 [0x02] IF !(Work_Zone[2] == 6*) GOTO 0x04E5
     0x04DD [0x03] Work_Zone[3] = 1431*
     0x04E2 [0x01] GOTO 0x057A
     0x04E5 [0x02] IF !(Work_Zone[2] == 7*) GOTO 0x04F5
     0x04ED [0x03] Work_Zone[3] = 1432*
     0x04F2 [0x01] GOTO 0x057A
     0x04F5 [0x02] IF !(Work_Zone[2] == 8*) GOTO 0x0505
     0x04FD [0x03] Work_Zone[3] = 1433*
     0x0502 [0x01] GOTO 0x057A
     0x0505 [0x02] IF !(Work_Zone[2] == 9*) GOTO 0x0515
     0x050D [0x03] Work_Zone[3] = 1434*
     0x0512 [0x01] GOTO 0x057A
     0x0515 [0x02] IF !(Work_Zone[2] == 10*) GOTO 0x0525
     0x051D [0x03] Work_Zone[3] = 1435*
     0x0522 [0x01] GOTO 0x057A
     0x0525 [0x02] IF !(Work_Zone[2] == 11*) GOTO 0x0535
     0x052D [0x03] Work_Zone[3] = 1436*
     0x0532 [0x01] GOTO 0x057A
     0x0535 [0x02] IF !(Work_Zone[2] == 12*) GOTO 0x0545
     0x053D [0x03] Work_Zone[3] = 1437*
     0x0542 [0x01] GOTO 0x057A
     0x0545 [0x02] IF !(Work_Zone[2] == 13*) GOTO 0x0555
     0x054D [0x03] Work_Zone[3] = 1438*
     0x0552 [0x01] GOTO 0x057A
     0x0555 [0x02] IF !(Work_Zone[2] == 14*) GOTO 0x0565
     0x055D [0x03] Work_Zone[3] = 1439*
     0x0562 [0x01] GOTO 0x057A
     0x0565 [0x02] IF !(Work_Zone[2] == 15*) GOTO 0x0575
     0x056D [0x03] Work_Zone[3] = 1440*
     0x0572 [0x01] GOTO 0x057A
     0x0575 [0x03] Work_Zone[3] = 1426*
     0x057A [0x1B] RETURN
     0x057B [0x06] ExtData[1]->WorkLocal[0] = 0
     0x057E [0x03] ExtData[1]->WorkLocal[2] = 0*
     0x0583 [0x03] ExtData[1]->WorkLocal[3] = 1*
     0x0588 [0x02] IF !(ExtData[1]->WorkLocal[0] > 3*) GOTO 0x05E9
     0x0590 [0x41] ExtData[1]->WorkLocal[1] = Work_Zone[6] (bits ExtData[1]->WorkLocal[2]-ExtData[1]->WorkLocal[3])
     0x0599 [0x03] Work_Zone[7] = ExtData[1]->WorkLocal[0]
     0x059E [0x0B] Work_Zone[7]++
     0x05A1 [0x02] IF !(ExtData[1]->WorkLocal[1] == 0*) GOTO 0x05AF
     0x05A9 [0x1A] CALL_SUBROUTINE(address=0x05EA)
     0x05AC [0x01] GOTO 0x05D9
     0x05AF [0x02] IF !(ExtData[1]->WorkLocal[1] == 1*) GOTO 0x05BD
     0x05B7 [0x1A] CALL_SUBROUTINE(address=0x0663)
     0x05BA [0x01] GOTO 0x05D9
     0x05BD [0x02] IF !(ExtData[1]->WorkLocal[1] == 2*) GOTO 0x05CB
     0x05C5 [0x1A] CALL_SUBROUTINE(address=0x06DC)
     0x05C8 [0x01] GOTO 0x05D9
     0x05CB [0x02] IF !(ExtData[1]->WorkLocal[1] == 3*) GOTO 0x05D9
     0x05D3 [0x1A] CALL_SUBROUTINE(address=0x0755)
     0x05D6 [0x01] GOTO 0x05D9
     0x05D9 [0x0B] ExtData[1]->WorkLocal[0]++
     0x05DC [0x07] ExtData[1]->WorkLocal[2] += 2*
     0x05E1 [0x07] ExtData[1]->WorkLocal[3] += 2*
     0x05E6 [0x01] GOTO 0x0588
     0x05E9 [0x1B] RETURN
     0x05EA [0x02] IF !(Work_Zone[2] == 0*) GOTO 0x05F9
     0x05F2 [0x1D] PRINT_EVENT_MESSAGE(message_id=10427*)
    → "$5. A boy who only thinks of his sick mother."
     0x05F5 [0x23] WAIT_FOR_DIALOG_INTERACTION
     0x05F6 [0x01] GOTO 0x0662
     0x05F9 [0x02] IF !(Work_Zone[2] == 1*) GOTO 0x0608
     0x0601 [0x1D] PRINT_EVENT_MESSAGE(message_id=10428*)
    → "$5. An Elvaan who likes her knives sharp."
     0x0604 [0x23] WAIT_FOR_DIALOG_INTERACTION
     0x0605 [0x01] GOTO 0x0662
     0x0608 [0x02] IF !(Work_Zone[2] == 2*) GOTO 0x0617
     0x0610 [0x1D] PRINT_EVENT_MESSAGE(message_id=10429*)
    → "$5. A little girl who wants to be a Royal Knight, just like her brother."
     0x0613 [0x23] WAIT_FOR_DIALOG_INTERACTION
     0x0614 [0x01] GOTO 0x0662
     0x0617 [0x02] IF !(Work_Zone[2] == 3*) GOTO 0x0626
     0x061F [0x1D] PRINT_EVENT_MESSAGE(message_id=10430*)
    → "$5. A young Elvaan whose breath stinks."
     0x0622 [0x23] WAIT_FOR_DIALOG_INTERACTION
     0x0623 [0x01] GOTO 0x0662
     0x0626 [0x02] IF !(Work_Zone[2] == 4*) GOTO 0x0635
     0x062E [0x1D] PRINT_EVENT_MESSAGE(message_id=10431*)
    → "$5. A young man looking for a job where they're not too rough with him."
     0x0631 [0x23] WAIT_FOR_DIALOG_INTERACTION
     0x0632 [0x01] GOTO 0x0662
     0x0635 [0x02] IF !(Work_Zone[2] == 5*) GOTO 0x0644
     0x063D [0x1D] PRINT_EVENT_MESSAGE(message_id=10432*)
    → "$5. An old man running the Consortium warehouses."
     0x0640 [0x23] WAIT_FOR_DIALOG_INTERACTION
     0x0641 [0x01] GOTO 0x0662
     0x0644 [0x02] IF !(Work_Zone[2] == 6*) GOTO 0x0653
     0x064C [0x1D] PRINT_EVENT_MESSAGE(message_id=10433*)
    → "$5. A second knight who specializes in the nirvana slash."
     0x064F [0x23] WAIT_FOR_DIALOG_INTERACTION
     0x0650 [0x01] GOTO 0x0662
     0x0653 [0x02] IF !(Work_Zone[2] == 7*) GOTO 0x0662
     0x065B [0x1D] PRINT_EVENT_MESSAGE(message_id=10434*)
    → "$5. A shopkeeper who longs for customers that want more than scrolls of Stone."
     0x065E [0x23] WAIT_FOR_DIALOG_INTERACTION
     0x065F [0x01] GOTO 0x0662
     0x0662 [0x1B] RETURN
     0x0663 [0x02] IF !(Work_Zone[3] == 0*) GOTO 0x0672
     0x066B [0x1D] PRINT_EVENT_MESSAGE(message_id=10435*)
    → "$5. A pioneer of the Palborough Mines."
     0x066E [0x23] WAIT_FOR_DIALOG_INTERACTION
     0x066F [0x01] GOTO 0x06DB
     0x0672 [0x02] IF !(Work_Zone[3] == 1*) GOTO 0x0681
     0x067A [0x1D] PRINT_EVENT_MESSAGE(message_id=10436*)
    → "$5. A boy watching over Dalzakk's home while he's off adventuring."
     0x067D [0x23] WAIT_FOR_DIALOG_INTERACTION
     0x067E [0x01] GOTO 0x06DB
     0x0681 [0x02] IF !(Work_Zone[3] == 2*) GOTO 0x0690
     0x0689 [0x1D] PRINT_EVENT_MESSAGE(message_id=10437*)
    → "$5. A girl who is positive robes and bronze subligaria are the latest fashion."
     0x068C [0x23] WAIT_FOR_DIALOG_INTERACTION
     0x068D [0x01] GOTO 0x06DB
     0x0690 [0x02] IF !(Work_Zone[3] == 3*) GOTO 0x069F
     0x0698 [0x1D] PRINT_EVENT_MESSAGE(message_id=10438*)
    → "$5. A girl who thinks she can never be as good as her sister."
     0x069B [0x23] WAIT_FOR_DIALOG_INTERACTION
     0x069C [0x01] GOTO 0x06DB
     0x069F [0x02] IF !(Work_Zone[3] == 4*) GOTO 0x06AE
     0x06A7 [0x1D] PRINT_EVENT_MESSAGE(message_id=10439*)
    → "$5. A woman who lost her husband in an accident in the Palborough Mines."
     0x06AA [0x23] WAIT_FOR_DIALOG_INTERACTION
     0x06AB [0x01] GOTO 0x06DB
     0x06AE [0x02] IF !(Work_Zone[3] == 5*) GOTO 0x06BD
     0x06B6 [0x1D] PRINT_EVENT_MESSAGE(message_id=10440*)
    → "$5. Bastok's number five "doorman.""
     0x06B9 [0x23] WAIT_FOR_DIALOG_INTERACTION
     0x06BA [0x01] GOTO 0x06DB
     0x06BD [0x02] IF !(Work_Zone[3] == 6*) GOTO 0x06CC
     0x06C5 [0x1D] PRINT_EVENT_MESSAGE(message_id=10441*)
    → "$5. A man so quiet, his boss is ready to call him "Silent Mountain.""
     0x06C8 [0x23] WAIT_FOR_DIALOG_INTERACTION
     0x06C9 [0x01] GOTO 0x06DB
     0x06CC [0x02] IF !(Work_Zone[3] == 7*) GOTO 0x06DB
     0x06D4 [0x1D] PRINT_EVENT_MESSAGE(message_id=10442*)
    → "$5. A man who is ready to move Bastok into the age of magic."
     0x06D7 [0x23] WAIT_FOR_DIALOG_INTERACTION
     0x06D8 [0x01] GOTO 0x06DB
     0x06DB [0x1B] RETURN
     0x06DC [0x02] IF !(Work_Zone[4] == 0*) GOTO 0x06EB
     0x06E4 [0x1D] PRINT_EVENT_MESSAGE(message_id=10443*)
    → "$5. The smartest looking Mithra child."
     0x06E7 [0x23] WAIT_FOR_DIALOG_INTERACTION
     0x06E8 [0x01] GOTO 0x0754
     0x06EB [0x02] IF !(Work_Zone[4] == 1*) GOTO 0x06FA
     0x06F3 [0x1D] PRINT_EVENT_MESSAGE(message_id=10444*)
    → "$5. A man looking for something snappy to hook his customers."
     0x06F6 [0x23] WAIT_FOR_DIALOG_INTERACTION
     0x06F7 [0x01] GOTO 0x0754
     0x06FA [0x02] IF !(Work_Zone[4] == 2*) GOTO 0x0709
     0x0702 [0x1D] PRINT_EVENT_MESSAGE(message_id=10445*)
    → "$5. A woman everybody called a "strange little poppet" when she was younger."
     0x0705 [0x23] WAIT_FOR_DIALOG_INTERACTION
     0x0706 [0x01] GOTO 0x0754
     0x0709 [0x02] IF !(Work_Zone[4] == 3*) GOTO 0x0718
     0x0711 [0x1D] PRINT_EVENT_MESSAGE(message_id=10446*)
    → "$5. A man known for his magic doll upgrades."
     0x0714 [0x23] WAIT_FOR_DIALOG_INTERACTION
     0x0715 [0x01] GOTO 0x0754
     0x0718 [0x02] IF !(Work_Zone[4] == 4*) GOTO 0x0727
     0x0720 [0x1D] PRINT_EVENT_MESSAGE(message_id=10447*)
    → "$5. A little girl sick of being left out all the time."
     0x0723 [0x23] WAIT_FOR_DIALOG_INTERACTION
     0x0724 [0x01] GOTO 0x0754
     0x0727 [0x02] IF !(Work_Zone[4] == 5*) GOTO 0x0736
     0x072F [0x1D] PRINT_EVENT_MESSAGE(message_id=10448*)
    → "$5. A man that gets upset when anyone tells him that "hats suck.""
     0x0732 [0x23] WAIT_FOR_DIALOG_INTERACTION
     0x0733 [0x01] GOTO 0x0754
     0x0736 [0x02] IF !(Work_Zone[4] == 6*) GOTO 0x0745
     0x073E [0x1D] PRINT_EVENT_MESSAGE(message_id=10449*)
    → "$5. A lady looking for another tasty frog."
     0x0741 [0x23] WAIT_FOR_DIALOG_INTERACTION
     0x0742 [0x01] GOTO 0x0754
     0x0745 [0x02] IF !(Work_Zone[4] == 7*) GOTO 0x0754
     0x074D [0x1D] PRINT_EVENT_MESSAGE(message_id=10450*)
    → "$5. A lady that jumps for joy at the sight of rolanberry souvenirs."
     0x0750 [0x23] WAIT_FOR_DIALOG_INTERACTION
     0x0751 [0x01] GOTO 0x0754
     0x0754 [0x1B] RETURN
     0x0755 [0x02] IF !(Work_Zone[5] == 0*) GOTO 0x0764
     0x075D [0x1D] PRINT_EVENT_MESSAGE(message_id=10451*)
    → "$5. A weaving woman who lost her memory in Selbina."
     0x0760 [0x23] WAIT_FOR_DIALOG_INTERACTION
     0x0761 [0x01] GOTO 0x07CD
     0x0764 [0x02] IF !(Work_Zone[5] == 1*) GOTO 0x0773
     0x076C [0x1D] PRINT_EVENT_MESSAGE(message_id=10452*)
    → "$5. A Galkan child who is great at hiding."
     0x076F [0x23] WAIT_FOR_DIALOG_INTERACTION
     0x0770 [0x01] GOTO 0x07CD
     0x0773 [0x02] IF !(Work_Zone[5] == 2*) GOTO 0x0782
     0x077B [0x1D] PRINT_EVENT_MESSAGE(message_id=10453*)
    → "$5. A man who started raising his own sheep to get some good wool."
     0x077E [0x23] WAIT_FOR_DIALOG_INTERACTION
     0x077F [0x01] GOTO 0x07CD
     0x0782 [0x02] IF !(Work_Zone[5] == 3*) GOTO 0x0791
     0x078A [0x1D] PRINT_EVENT_MESSAGE(message_id=10454*)
    → "$5. A pupil of Zaldon who knows his fish."
     0x078D [0x23] WAIT_FOR_DIALOG_INTERACTION
     0x078E [0x01] GOTO 0x07CD
     0x0791 [0x02] IF !(Work_Zone[5] == 4*) GOTO 0x07A0
     0x0799 [0x1D] PRINT_EVENT_MESSAGE(message_id=10455*)
    → "$5. A girl whose fianc<Player>i is all the way in Selbina."
     0x079C [0x23] WAIT_FOR_DIALOG_INTERACTION
     0x079D [0x01] GOTO 0x07CD
     0x07A0 [0x02] IF !(Work_Zone[5] == 5*) GOTO 0x07AF
     0x07A8 [0x1D] PRINT_EVENT_MESSAGE(message_id=10456*)
    → "$5. A small mayor in a small town."
     0x07AB [0x23] WAIT_FOR_DIALOG_INTERACTION
     0x07AC [0x01] GOTO 0x07CD
     0x07AF [0x02] IF !(Work_Zone[5] == 6*) GOTO 0x07BE
     0x07B7 [0x1D] PRINT_EVENT_MESSAGE(message_id=10457*)
    → "$5. A guy who knows a lot about pirates for somebody that's never met one."
     0x07BA [0x23] WAIT_FOR_DIALOG_INTERACTION
     0x07BB [0x01] GOTO 0x07CD
     0x07BE [0x02] IF !(Work_Zone[5] == 7*) GOTO 0x07CD
     0x07C6 [0x1D] PRINT_EVENT_MESSAGE(message_id=10458*)
    → "$5. A kid that wants to work with monsters when he grows up."
     0x07C9 [0x23] WAIT_FOR_DIALOG_INTERACTION
     0x07CA [0x01] GOTO 0x07CD
     0x07CD [0x1B] RETURN
     0x07CE [0x20] SET_CLI_EVENT_UC_FLAG: Lock player control
     0x07D0 [0x42] SET_CLI_EVENT_CANCEL_DATA()
     0x07D1 [0x45] LOAD_SCHEDULED_TASK: Load scheduler "fdo1" with entities [LocalPlayer, LocalPlayer], work=[200*, 0*]
     0x07E2 [0x55] WAIT_LOAD_SCHEDULER: Wait for scheduler "fdo1" with entities [LocalPlayer, LocalPlayer], work=200*
     0x07F1 [0x38] SET_CLIENT_EVENT_MODE(mode=3*)
     0x07F4 [0x2F] EventEntity->Render.Flags0 &= ~0x80000 // Bit 19
     0x07FA [0x22] ENTITY_HIDE_FLAG(enabled=0x00)
     0x07FC [0x4E] SET_ENTITY_HIDE_FLAG: Hide Maat (ID: 17772593/0x010F3031)
     0x0802 [0x4A] LocalPlayer looks at EventEntity
     0x080B [0x1E] EventEntity looks at LocalPlayer and starts talking
     0x0810 [0x6F] WAIT_FRAME_DELAY: Yield until WaitTime reaches zero
     0x0811 [0x70] WAIT_ENTITY_RENDER_FLAG: Wait while EventEntity->Render.Flags3 bit 2 is set (cancel turn if not)
     0x0812 [0x45] LOAD_SCHEDULED_TASK: Load scheduler "fdi1" with entities [LocalPlayer, LocalPlayer], work=[200*, 0*]
     0x0823 [0x55] WAIT_LOAD_SCHEDULER: Wait for scheduler "fdi1" with entities [LocalPlayer, LocalPlayer], work=200*
     0x0832 [0x1B] RETURN
     0x0833 [0x45] LOAD_SCHEDULED_TASK: Load scheduler "fdo2" with entities [LocalPlayer, LocalPlayer], work=[200*, 0*]
     0x0844 [0x55] WAIT_LOAD_SCHEDULER: Wait for scheduler "fdo2" with entities [LocalPlayer, LocalPlayer], work=200*
     0x0853 [0x4E] SET_ENTITY_HIDE_FLAG: Hide EventEntity
     0x0859 [0x46] CAMERA_CONTROL: Restore default settings
     0x085B [0x45] LOAD_SCHEDULED_TASK: Load scheduler "fdi2" with entities [LocalPlayer, LocalPlayer], work=[200*, 0*]
     0x086C [0x21] END_EVENT
     0x086D [0x1B] RETURN
```

### Event 117

#### Metadata

| Field        | Value   |
|--------------|---------|
| Entrypoint   | 0x086E  |
| Data Size    | 1 bytes |
| Instructions | 1       |

```
      00 01 02 03 04 05 06 07  08 09 0A 0B 0C 0D 0E 0F
      -- -- -- -- -- -- -- --  -- -- -- -- -- -- -- --
0860:                                            00                   . 
```

#### Opcodes

```
  0: 0x086E [0x00] END_REQSTACK()
```

### Event 10136

#### Metadata

| Field        | Value   |
|--------------|---------|
| Entrypoint   | 0x086F  |
| Data Size    | 1 bytes |
| Instructions | 1       |

```
      00 01 02 03 04 05 06 07  08 09 0A 0B 0C 0D 0E 0F
      -- -- -- -- -- -- -- --  -- -- -- -- -- -- -- --
0860:                                               00                 .
```

#### Opcodes

```
  0: 0x086F [0x00] END_REQSTACK()
```

### Event 10137

#### Metadata

| Field        | Value   |
|--------------|---------|
| Entrypoint   | 0x0870  |
| Data Size    | 1 bytes |
| Instructions | 1       |

```
      00 01 02 03 04 05 06 07  08 09 0A 0B 0C 0D 0E 0F
      -- -- -- -- -- -- -- --  -- -- -- -- -- -- -- --
0870: 00                                                .               
```

#### Opcodes

```
  0: 0x0870 [0x00] END_REQSTACK()
```

### Event 10161

#### Metadata

| Field        | Value   |
|--------------|---------|
| Entrypoint   | 0x0871  |
| Data Size    | 1 bytes |
| Instructions | 1       |

```
      00 01 02 03 04 05 06 07  08 09 0A 0B 0C 0D 0E 0F
      -- -- -- -- -- -- -- --  -- -- -- -- -- -- -- --
0870:    00                                              .              
```

#### Opcodes

```
  0: 0x0871 [0x00] END_REQSTACK()
```

### Event 10295

#### Metadata

| Field        | Value   |
|--------------|---------|
| Entrypoint   | 0x0872  |
| Data Size    | 7 bytes |
| Instructions | 2       |

```
      00 01 02 03 04 05 06 07  08 09 0A 0B 0C 0D 0E 0F
      -- -- -- -- -- -- -- --  -- -- -- -- -- -- -- --
0870:       92 01 F8 FF FF 7F  00                         .......       
```

#### Opcodes

```
  0: 0x0872 [0x92] EventEntity->Render.Flags3 ^= 0x01
  1: 0x0878 [0x00] END_REQSTACK()
```

### Event 65535.19

#### Metadata

| Field        | Value    |
|--------------|----------|
| Entrypoint   | 0x0879   |
| Data Size    | 15 bytes |
| Instructions | 5        |

```
      00 01 02 03 04 05 06 07  08 09 0A 0B 0C 0D 0E 0F
      -- -- -- -- -- -- -- --  -- -- -- -- -- -- -- --
0870:                             32 36 80 1F 00 3B 80           26...;.
0880: 3C 80 33 80 1F 01 6F 00                           <.3...o.        
```

#### Opcodes

```
  0: 0x0879 [0x32] ExtData[1]->MainSpeed = 13* * 0.1
  1: 0x087C [0x1F] MOVE_ENTITY: EventEntity moves to X=10.533*, Z=117.986*, Y=3.101*
  2: 0x0884 [0x1F] MOVE_ENTITY: Update entity position (mode=1)
  3: 0x0886 [0x6F] WAIT_FRAME_DELAY: Yield until WaitTime reaches zero
  4: 0x0887 [0x00] END_REQSTACK()
```

### Event 65535.20

#### Metadata

| Field        | Value    |
|--------------|----------|
| Entrypoint   | 0x0888   |
| Data Size    | 15 bytes |
| Instructions | 5        |

```
      00 01 02 03 04 05 06 07  08 09 0A 0B 0C 0D 0E 0F
      -- -- -- -- -- -- -- --  -- -- -- -- -- -- -- --
0880:                          32 36 80 1F 00 8D 80 8E          26......
0890: 80 33 80 1F 01 6F 00                              .3...o.         
```

#### Opcodes

```
  0: 0x0888 [0x32] ExtData[1]->MainSpeed = 13* * 0.1
  1: 0x088B [0x1F] MOVE_ENTITY: EventEntity moves to X=9.642*, Z=117.940*, Y=3.101*
  2: 0x0893 [0x1F] MOVE_ENTITY: Update entity position (mode=1)
  3: 0x0895 [0x6F] WAIT_FRAME_DELAY: Yield until WaitTime reaches zero
  4: 0x0896 [0x00] END_REQSTACK()
```

### Event 10296

#### Metadata

| Field        | Value   |
|--------------|---------|
| Entrypoint   | 0x0897  |
| Data Size    | 7 bytes |
| Instructions | 2       |

```
      00 01 02 03 04 05 06 07  08 09 0A 0B 0C 0D 0E 0F
      -- -- -- -- -- -- -- --  -- -- -- -- -- -- -- --
0890:                      92  01 F8 FF FF 7F 00               .......  
```

#### Opcodes

```
  0: 0x0897 [0x92] EventEntity->Render.Flags3 ^= 0x01
  1: 0x089D [0x00] END_REQSTACK()
```

### Event 65535.21

#### Metadata

| Field        | Value    |
|--------------|----------|
| Entrypoint   | 0x089E   |
| Data Size    | 30 bytes |
| Instructions | 6        |

```
      00 01 02 03 04 05 06 07  08 09 0A 0B 0C 0D 0E 0F
      -- -- -- -- -- -- -- --  -- -- -- -- -- -- -- --
0890:                                            32 36                26
08A0: 80 1F 00 8F 80 90 80 33  80 1F 01 6F 5B 00 80 F8  .......3...o[...
08B0: FF FF 7F F8 FF FF 7F 74  68 6B 31 00              .......thk1.    
```

#### Opcodes

```
  0: 0x089E [0x32] ExtData[1]->MainSpeed = 13* * 0.1
  1: 0x08A1 [0x1F] MOVE_ENTITY: EventEntity moves to X=10.877*, Z=119.468*, Y=3.101*
  2: 0x08A9 [0x1F] MOVE_ENTITY: Update entity position (mode=1)
  3: 0x08AB [0x6F] WAIT_FRAME_DELAY: Yield until WaitTime reaches zero
  4: 0x08AC [0x5B] LOAD_EXT_SCHEDULER: Load scheduler "thk1" with entities [EventEntity, EventEntity], work=60*
  5: 0x08BB [0x00] END_REQSTACK()
```
