# 17772548 - Altair

## Common Data

| Field            | Value                     |
|------------------|---------------------------|
| Zone             | Ru'Lude Gardens (ID: 243) |
| Block Size       | 360 bytes                 |
| Total Events     | 12                        |
| References Count | 17                        |

## List of Events

| Event ID                 | Entrypoint   |   Size |   Instructions |
|--------------------------|--------------|--------|----------------|
| [65535](#event-65535)    | 0x0000       |     15 |              4 |
| [38](#event-38)          | 0x000F       |      1 |              1 |
| [129](#event-129)        | 0x0010       |     10 |              2 |
| [65535.1](#event-655351) | 0x001A       |     39 |             11 |
| [65535.2](#event-655352) | 0x0041       |     19 |              3 |
| [65535.3](#event-655353) | 0x0054       |     29 |              3 |
| [65535.4](#event-655354) | 0x0071       |     25 |              4 |
| [65535.5](#event-655355) | 0x008A       |     35 |              4 |
| [65535.6](#event-655356) | 0x00AD       |     16 |              2 |
| [65535.7](#event-655357) | 0x00BD       |     29 |              3 |
| [65535.8](#event-655358) | 0x00DA       |      9 |              3 |
| [65535.9](#event-655359) | 0x00E3       |      1 |              1 |

## DAT References (imed_data)

|   Index | Hex Value   |   Dec Value |
|---------|-------------|-------------|
|       0 | 0x6ECB      |       28363 |
|       1 | 0xFFFED635  |  4294891061 |
|       2 | 0x2327      |        8999 |
|       3 | 0x0818      |        2072 |
|       4 | 0x000D      |          13 |
|       5 | 0x6DC9      |       28105 |
|       6 | 0xFFFED69E  |  4294891166 |
|       7 | 0x0800      |        2048 |
|       8 | 0x6EA5      |       28325 |
|       9 | 0xFFFECC66  |  4294888550 |
|      10 | 0x63DB      |       25563 |
|      11 | 0xFFFECD03  |  4294888707 |
|      12 | 0x6359      |       25433 |
|      13 | 0xFFFED676  |  4294891126 |
|      14 | 0x0000      |           0 |
|      15 | 0x003C      |          60 |
|      16 | 0x0002      |           2 |

## Events

### Event 65535

#### Metadata

| Field        | Value    |
|--------------|----------|
| Entrypoint   | 0x0000   |
| Data Size    | 15 bytes |
| Instructions | 4        |

```
      00 01 02 03 04 05 06 07  08 09 0A 0B 0C 0D 0E 0F
      -- -- -- -- -- -- -- --  -- -- -- -- -- -- -- --
0000: 37 00 80 01 80 02 80 03  80 32 04 80 22 00 00     7........2..".. 
```

#### Opcodes

```
  0: 0x0000 [0x37] UPDATE_EVENT_POSITION_AND_DIR: x=28.363*, z=-76.235*, y=8.999*, direction=182.1°*
  1: 0x0009 [0x32] ExtData[1]->MainSpeed = 13* * 0.1
  2: 0x000C [0x22] ENTITY_HIDE_FLAG(enabled=0x00)
  3: 0x000E [0x00] END_REQSTACK()
```

### Event 38

#### Metadata

| Field        | Value   |
|--------------|---------|
| Entrypoint   | 0x000F  |
| Data Size    | 1 bytes |
| Instructions | 1       |

```
      00 01 02 03 04 05 06 07  08 09 0A 0B 0C 0D 0E 0F
      -- -- -- -- -- -- -- --  -- -- -- -- -- -- -- --
0000:                                               00                 .
```

#### Opcodes

```
  0: 0x000F [0x00] END_REQSTACK()
```

### Event 129

#### Metadata

| Field        | Value    |
|--------------|----------|
| Entrypoint   | 0x0010   |
| Data Size    | 10 bytes |
| Instructions | 2        |

```
      00 01 02 03 04 05 06 07  08 09 0A 0B 0C 0D 0E 0F
      -- -- -- -- -- -- -- --  -- -- -- -- -- -- -- --
0010: 37 05 80 06 80 02 80 07  80 00                    7.........      
```

#### Opcodes

```
  0: 0x0010 [0x37] UPDATE_EVENT_POSITION_AND_DIR: x=28.105*, z=-76.130*, y=8.999*, direction=180.0°*
  1: 0x0019 [0x00] END_REQSTACK()
```

### Event 65535.1

#### Metadata

| Field        | Value    |
|--------------|----------|
| Entrypoint   | 0x001A   |
| Data Size    | 39 bytes |
| Instructions | 11       |

```
      00 01 02 03 04 05 06 07  08 09 0A 0B 0C 0D 0E 0F
      -- -- -- -- -- -- -- --  -- -- -- -- -- -- -- --
0010:                                1F 00 08 80 09 80            ......
0020: 02 80 1F 01 1F 00 0A 80  0B 80 02 80 1F 01 1F 00  ................
0030: 0C 80 0D 80 02 80 1F 01  6F 1E F0 FF FF 7F 6F 70  ........o.....op
0040: 00                                                .               
```

#### Opcodes

```
  0: 0x001A [0x1F] MOVE_ENTITY: EventEntity moves to X=28.325*, Z=-78.746*, Y=8.999*
  1: 0x0022 [0x1F] MOVE_ENTITY: Update entity position (mode=1)
  2: 0x0024 [0x1F] MOVE_ENTITY: EventEntity moves to X=25.563*, Z=-78.589*, Y=8.999*
  3: 0x002C [0x1F] MOVE_ENTITY: Update entity position (mode=1)
  4: 0x002E [0x1F] MOVE_ENTITY: EventEntity moves to X=25.433*, Z=-76.170*, Y=8.999*
  5: 0x0036 [0x1F] MOVE_ENTITY: Update entity position (mode=1)
  6: 0x0038 [0x6F] WAIT_FRAME_DELAY: Yield until WaitTime reaches zero
  7: 0x0039 [0x1E] EventEntity looks at LocalPlayer and starts talking
  8: 0x003E [0x6F] WAIT_FRAME_DELAY: Yield until WaitTime reaches zero
  9: 0x003F [0x70] WAIT_ENTITY_RENDER_FLAG: Wait while EventEntity->Render.Flags3 bit 2 is set (cancel turn if not)
 10: 0x0040 [0x00] END_REQSTACK()
```

### Event 65535.2

#### Metadata

| Field        | Value    |
|--------------|----------|
| Entrypoint   | 0x0041   |
| Data Size    | 19 bytes |
| Instructions | 3        |

```
      00 01 02 03 04 05 06 07  08 09 0A 0B 0C 0D 0E 0F
      -- -- -- -- -- -- -- --  -- -- -- -- -- -- -- --
0040:    66 0E 80 F8 FF FF 7F  F8 FF FF 7F 74 6C 6B 30   f..........tlk0
0050: 1C 0F 80 00                                       ....            
```

#### Opcodes

```
  0: 0x0041 [0x66] LOAD_EXT_SCHEDULER_MAIN: Load scheduler "tlk0" with entities [EventEntity, EventEntity], work=0*
  1: 0x0050 [0x1C] WAIT(60* ticks)
  2: 0x0053 [0x00] END_REQSTACK()
```

### Event 65535.3

#### Metadata

| Field        | Value    |
|--------------|----------|
| Entrypoint   | 0x0054   |
| Data Size    | 29 bytes |
| Instructions | 3        |

```
      00 01 02 03 04 05 06 07  08 09 0A 0B 0C 0D 0E 0F
      -- -- -- -- -- -- -- --  -- -- -- -- -- -- -- --
0050:             66 0E 80 F8  FF FF 7F F8 FF FF 7F 74      f..........t
0060: 65 6E 30 53 F8 FF FF 7F  F8 FF FF 7F 74 65 6E 30  en0S........ten0
0070: 00                                                .               
```

#### Opcodes

```
  0: 0x0054 [0x66] LOAD_EXT_SCHEDULER_MAIN: Load scheduler "ten0" with entities [EventEntity, EventEntity], work=0*
  1: 0x0063 [0x53] WAIT_SCHEDULER_TASK: Wait for scheduler "ten0" with entities [EventEntity, EventEntity]
  2: 0x0070 [0x00] END_REQSTACK()
```

### Event 65535.4

#### Metadata

| Field        | Value    |
|--------------|----------|
| Entrypoint   | 0x0071   |
| Data Size    | 25 bytes |
| Instructions | 4        |

```
      00 01 02 03 04 05 06 07  08 09 0A 0B 0C 0D 0E 0F
      -- -- -- -- -- -- -- --  -- -- -- -- -- -- -- --
0070:    81 00 F8 FF FF 7F 66  0E 80 F8 FF FF 7F F8 FF   ......f........
0080: FF 7F 74 68 6B 31 1C 0F  80 00                    ..thk1....      
```

#### Opcodes

```
  0: 0x0071 [0x81] SET_ENTITY_BLINKING(blink_flag=0x00, entity=EventEntity)
  1: 0x0077 [0x66] LOAD_EXT_SCHEDULER_MAIN: Load scheduler "thk1" with entities [EventEntity, EventEntity], work=0*
  2: 0x0086 [0x1C] WAIT(60* ticks)
  3: 0x0089 [0x00] END_REQSTACK()
```

### Event 65535.5

#### Metadata

| Field        | Value    |
|--------------|----------|
| Entrypoint   | 0x008A   |
| Data Size    | 35 bytes |
| Instructions | 4        |

```
      00 01 02 03 04 05 06 07  08 09 0A 0B 0C 0D 0E 0F
      -- -- -- -- -- -- -- --  -- -- -- -- -- -- -- --
0080:                                81 01 F8 FF FF 7F            ......
0090: 66 0E 80 F8 FF FF 7F F8  FF FF 7F 74 68 6B 32 53  f..........thk2S
00A0: F8 FF FF 7F F8 FF FF 7F  74 68 6B 32 00           ........thk2.   
```

#### Opcodes

```
  0: 0x008A [0x81] SET_ENTITY_BLINKING(blink_flag=0x01, entity=EventEntity)
  1: 0x0090 [0x66] LOAD_EXT_SCHEDULER_MAIN: Load scheduler "thk2" with entities [EventEntity, EventEntity], work=0*
  2: 0x009F [0x53] WAIT_SCHEDULER_TASK: Wait for scheduler "thk2" with entities [EventEntity, EventEntity]
  3: 0x00AC [0x00] END_REQSTACK()
```

### Event 65535.6

#### Metadata

| Field        | Value    |
|--------------|----------|
| Entrypoint   | 0x00AD   |
| Data Size    | 16 bytes |
| Instructions | 2        |

```
      00 01 02 03 04 05 06 07  08 09 0A 0B 0C 0D 0E 0F
      -- -- -- -- -- -- -- --  -- -- -- -- -- -- -- --
00A0:                                         66 10 80               f..
00B0: F8 FF FF 7F F8 FF FF 7F  6B 62 61 30 00           ........kba0.   
```

#### Opcodes

```
  0: 0x00AD [0x66] LOAD_EXT_SCHEDULER_MAIN: Load scheduler "kba0" with entities [EventEntity, EventEntity], work=2*
  1: 0x00BC [0x00] END_REQSTACK()
```

### Event 65535.7

#### Metadata

| Field        | Value    |
|--------------|----------|
| Entrypoint   | 0x00BD   |
| Data Size    | 29 bytes |
| Instructions | 3        |

```
      00 01 02 03 04 05 06 07  08 09 0A 0B 0C 0D 0E 0F
      -- -- -- -- -- -- -- --  -- -- -- -- -- -- -- --
00B0:                                         66 10 80               f..
00C0: F8 FF FF 7F F8 FF FF 7F  6B 62 61 31 53 F8 FF FF  ........kba1S...
00D0: 7F F8 FF FF 7F 6B 62 61  31 00                    .....kba1.      
```

#### Opcodes

```
  0: 0x00BD [0x66] LOAD_EXT_SCHEDULER_MAIN: Load scheduler "kba1" with entities [EventEntity, EventEntity], work=2*
  1: 0x00CC [0x53] WAIT_SCHEDULER_TASK: Wait for scheduler "kba1" with entities [EventEntity, EventEntity]
  2: 0x00D9 [0x00] END_REQSTACK()
```

### Event 65535.8

#### Metadata

| Field        | Value   |
|--------------|---------|
| Entrypoint   | 0x00DA  |
| Data Size    | 9 bytes |
| Instructions | 3       |

```
      00 01 02 03 04 05 06 07  08 09 0A 0B 0C 0D 0E 0F
      -- -- -- -- -- -- -- --  -- -- -- -- -- -- -- --
00D0:                                5E 69 64 6C 30 1C            ^idl0.
00E0: 0F 80 00                                          ...             
```

#### Opcodes

```
  0: 0x00DA [0x5E] EventEntity goes idle (kills current action) (animation: "idl0")
  1: 0x00DF [0x1C] WAIT(60* ticks)
  2: 0x00E2 [0x00] END_REQSTACK()
```

### Event 65535.9

#### Metadata

| Field        | Value   |
|--------------|---------|
| Entrypoint   | 0x00E3  |
| Data Size    | 1 bytes |
| Instructions | 1       |

```
      00 01 02 03 04 05 06 07  08 09 0A 0B 0C 0D 0E 0F
      -- -- -- -- -- -- -- --  -- -- -- -- -- -- -- --
00E0:          00                                          .            
```

#### Opcodes

```
  0: 0x00E3 [0x00] END_REQSTACK()
```
