# 17772612 - Blamor

## Common Data

| Field            | Value                     |
|------------------|---------------------------|
| Zone             | Ru'Lude Gardens (ID: 243) |
| Block Size       | 112 bytes                 |
| Total Events     | 4                         |
| References Count | 7                         |

## List of Events

| Event ID                 | Entrypoint   |   Size |   Instructions |
|--------------------------|--------------|--------|----------------|
| [65535](#event-65535)    | 0x0000       |      1 |              1 |
| [10009](#event-10009)    | 0x0001       |     12 |              3 |
| [65535.1](#event-655351) | 0x000D       |     21 |              6 |
| [65535.2](#event-655352) | 0x0022       |     16 |              5 |

## DAT References (imed_data)

|   Index | Hex Value   |   Dec Value |
|---------|-------------|-------------|
|       0 | 0xFFFFBD98  |  4294950296 |
|       1 | 0xFFFDDD8C  |  4294827404 |
|       2 | 0xFFFFFA24  |  4294965796 |
|       3 | 0x08A6      |        2214 |
|       4 | 0x000D      |          13 |
|       5 | 0xFFFDF8E5  |  4294834405 |
|       6 | 0xFFFE1FF5  |  4294844405 |

## Events

### Event 65535

#### Metadata

| Field        | Value   |
|--------------|---------|
| Entrypoint   | 0x0000  |
| Data Size    | 1 bytes |
| Instructions | 1       |

```
      00 01 02 03 04 05 06 07  08 09 0A 0B 0C 0D 0E 0F
      -- -- -- -- -- -- -- --  -- -- -- -- -- -- -- --
0000: 00                                                .               
```

#### Opcodes

```
  0: 0x0000 [0x00] END_REQSTACK()
```

### Event 10009

#### Metadata

| Field        | Value    |
|--------------|----------|
| Entrypoint   | 0x0001   |
| Data Size    | 12 bytes |
| Instructions | 3        |

```
      00 01 02 03 04 05 06 07  08 09 0A 0B 0C 0D 0E 0F
      -- -- -- -- -- -- -- --  -- -- -- -- -- -- -- --
0000:    22 01 37 00 80 01 80  02 80 03 80 00            ".7.........   
```

#### Opcodes

```
  0: 0x0001 [0x22] ENTITY_HIDE_FLAG(enabled=0x01)
  1: 0x0003 [0x37] UPDATE_EVENT_POSITION_AND_DIR: x=-17.000*, z=-139.892*, y=-1.500*, direction=194.6°*
  2: 0x000C [0x00] END_REQSTACK()
```

### Event 65535.1

#### Metadata

| Field        | Value    |
|--------------|----------|
| Entrypoint   | 0x000D   |
| Data Size    | 21 bytes |
| Instructions | 6        |

```
      00 01 02 03 04 05 06 07  08 09 0A 0B 0C 0D 0E 0F
      -- -- -- -- -- -- -- --  -- -- -- -- -- -- -- --
0000:                                         22 00 32               ".2
0010: 04 80 1F 00 00 80 05 80  02 80 1F 01 1E 43 30 0F  .............C0.
0020: 01 00                                             ..              
```

#### Opcodes

```
  0: 0x000D [0x22] ENTITY_HIDE_FLAG(enabled=0x00)
  1: 0x000F [0x32] ExtData[1]->MainSpeed = 13* * 0.1
  2: 0x0012 [0x1F] MOVE_ENTITY: EventEntity moves to X=-17.000*, Z=-132.891*, Y=-1.500*
  3: 0x001A [0x1F] MOVE_ENTITY: Update entity position (mode=1)
  4: 0x001C [0x1E] EventEntity looks at Omran (ID: 17772611/0x010F3043) and starts talking
  5: 0x0021 [0x00] END_REQSTACK()
```

### Event 65535.2

#### Metadata

| Field        | Value    |
|--------------|----------|
| Entrypoint   | 0x0022   |
| Data Size    | 16 bytes |
| Instructions | 5        |

```
      00 01 02 03 04 05 06 07  08 09 0A 0B 0C 0D 0E 0F
      -- -- -- -- -- -- -- --  -- -- -- -- -- -- -- --
0020:       32 04 80 1F 00 00  80 06 80 02 80 1F 01 22    2............"
0030: 01 00                                             ..              
```

#### Opcodes

```
  0: 0x0022 [0x32] ExtData[1]->MainSpeed = 13* * 0.1
  1: 0x0025 [0x1F] MOVE_ENTITY: EventEntity moves to X=-17.000*, Z=-122.891*, Y=-1.500*
  2: 0x002D [0x1F] MOVE_ENTITY: Update entity position (mode=1)
  3: 0x002F [0x22] ENTITY_HIDE_FLAG(enabled=0x01)
  4: 0x0031 [0x00] END_REQSTACK()
```
