# 17772776 - Assai Nybaem

## Common Data

| Field            | Value                     |
|------------------|---------------------------|
| Zone             | Ru'Lude Gardens (ID: 243) |
| Block Size       | 1536 bytes                |
| Total Events     | 2                         |
| References Count | 77                        |

## List of Events

| Event ID              | Entrypoint   |   Size |   Instructions |
|-----------------------|--------------|--------|----------------|
| [65535](#event-65535) | 0x0000       |      1 |              1 |
| [10120](#event-10120) | 0x0001       |   1201 |            287 |

## DAT References (imed_data)

|   Index | Hex Value   |   Dec Value |
|---------|-------------|-------------|
|       0 | 0x3849      |       14409 |
|       1 | 0x0047      |          71 |
|       2 | 0x04E5      |        1253 |
|       3 | 0x03E8      |        1000 |
|       4 | 0x384A      |       14410 |
|       5 | 0x384B      |       14411 |
|       6 | 0x0000      |           0 |
|       7 | 0x0003      |           3 |
|       8 | 0x0001      |           1 |
|       9 | 0x384C      |       14412 |
|      10 | 0x384D      |       14413 |
|      11 | 0x384E      |       14414 |
|      12 | 0x384F      |       14415 |
|      13 | 0x3850      |       14416 |
|      14 | 0x3851      |       14417 |
|      15 | 0x3852      |       14418 |
|      16 | 0x3853      |       14419 |
|      17 | 0x3854      |       14420 |
|      18 | 0x3855      |       14421 |
|      19 | 0x3856      |       14422 |
|      20 | 0x3857      |       14423 |
|      21 | 0x3858      |       14424 |
|      22 | 0x3859      |       14425 |
|      23 | 0x385A      |       14426 |
|      24 | 0x385B      |       14427 |
|      25 | 0x385C      |       14428 |
|      26 | 0x385D      |       14429 |
|      27 | 0x385E      |       14430 |
|      28 | 0x385F      |       14431 |
|      29 | 0x3860      |       14432 |
|      30 | 0x3861      |       14433 |
|      31 | 0x3862      |       14434 |
|      32 | 0x3868      |       14440 |
|      33 | 0x0004      |           4 |
|      34 | 0x0007      |           7 |
|      35 | 0x3864      |       14436 |
|      36 | 0x3865      |       14437 |
|      37 | 0x3866      |       14438 |
|      38 | 0x3867      |       14439 |
|      39 | 0x3863      |       14435 |
|      40 | 0x0002      |           2 |
|      41 | 0x3869      |       14441 |
|      42 | 0x386A      |       14442 |
|      43 | 0x386B      |       14443 |
|      44 | 0x386C      |       14444 |
|      45 | 0x386D      |       14445 |
|      46 | 0x386E      |       14446 |
|      47 | 0x386F      |       14447 |
|      48 | 0x3870      |       14448 |
|      49 | 0x3871      |       14449 |
|      50 | 0x3872      |       14450 |
|      51 | 0x3873      |       14451 |
|      52 | 0x3874      |       14452 |
|      53 | 0x3875      |       14453 |
|      54 | 0x3876      |       14454 |
|      55 | 0x3877      |       14455 |
|      56 | 0x3878      |       14456 |
|      57 | 0x3879      |       14457 |
|      58 | 0x387A      |       14458 |
|      59 | 0x387B      |       14459 |
|      60 | 0x0005      |           5 |
|      61 | 0x0006      |           6 |
|      62 | 0x0008      |           8 |
|      63 | 0x0009      |           9 |
|      64 | 0x04E6      |        1254 |
|      65 | 0x04E7      |        1255 |
|      66 | 0x04E8      |        1256 |
|      67 | 0x04E9      |        1257 |
|      68 | 0x04EA      |        1258 |
|      69 | 0x04EB      |        1259 |
|      70 | 0x0636      |        1590 |
|      71 | 0x04EC      |        1260 |
|      72 | 0x387C      |       14460 |
|      73 | 0x000A      |          10 |
|      74 | 0x387D      |       14461 |
|      75 | 0x387E      |       14462 |
|      76 | 0x387F      |       14463 |

## String References

- **14409**: You there. Yes, you, adventurer! Your downcast countenance tells me your life wants for exhilaration.
- **14410**: Who am I, you ask? Let's just say I'm he who is about to banish all trace of tedium from your life with an irresistible offer--one of otherworldly proportions, to be sure. For a mere $1 gil, this $3 I hold is yours.
- **14411**: "But what in Slumbering Samwell's shank does it do," you ask? Consider yourself fortunate, for it's my policy to demystify before the customer buys.
- **14412**: What will you do? [Let him ramble./Purchase $6./Learn how to use it./Discard abyssite./Leave.]
- **14413**: Ahem! Allow me to present you with a supposition.
- **14414**: Lying in parallel to the world upon which we stand exists another dimension.
- **14415**: "Abyssea" is its name--or at least, the name I've bestowed upon it. It is a world of boundless beauty, mystique, and riches unclaimed.
- **14416**: Now, suppose this $3 I hold is a key to accessing Abyssea. Were you in possession of one, your curiosity would get the better of you, yes?
- **14417**: Strictly speaking, this object does not grant entry into Abyssea itself.
- **14418**: It does, however, make it possible to interact with beings from that plane of existence--"Abysseans," I call them.
- **14419**: The $3 serves to detect Abysseans that wander the gulf between worlds. How those hapless creatures--I refer to them as "Voidwalkers"--found their way there, mind you, is another subject entirely.
- **14420**: Having drifted to this realm from the world yonder, much like the Voidwalkers themselves, $5 are attuned to the presence of these creatures and will react--vibrate and emit light--when they draw near.
- **14421**: The closer your distance to a Voidwalker, the stronger the reaction becomes, until the creature is forcibly wrested into this dimension.
- **14422**: Repeated contact with Abysseans will cause the $3 to take on different hues, allowing it to respond to creatures belonging to the higher echelons of Voidwalkers.
- **14423**: Be forewarned! Abysseans are among the most foul-tempered, unpredictable creatures. You would do well to steel yourself for a trying encounter prior to making contact.
- **14424**: I trust your many adventures have made you familiar with those ghastly statues scattered across the land called cavernous maws.
- **14425**: My observations have revealed that the concentration of Voidwalkers is greatest in locations where these statues are found.
- **14426**: As yet, I have no plausible explanations for this phenomenon, but you needn't concern yourself with such details.
- **14427**: Yours, my friend, is a dilemma infinitely simpler in nature.
- **14428**: All this far-fetched talk of Abyssea, Abysseans, and Voidwalkers...
- **14429**: I'm fully aware of the fantastical nature of my tale, and do not think poorly of those inclined to skepticism.
- **14430**: Yet I feel no need to vouch further for the authenticity of my claims. Such is my confidence that the truth speaks for itself.
- **14431**: Now then. A great new world has presented itself before you. The question is, will you embrace this opportunity, or let it pass you by?
- **14432**: As Abysseans cross from one realm to another, so too does gil pass from one individual to the next. In my mind, it is only fitting that gil is that which grants you the key to Abyssea.
- **14433**: My tales have piqued your interest, have they? As I have mentioned prior, the price is $0 gil.
- **14434**: Hand over $0 gil? [Aye./Nay.]
- **14435**: No? The sum I ask is by no means prohibitive. I'll be waiting here, should you ever change your mind.
- **14436**: I thank you for your custom. Here is your very own $3!
- **14437**: As a service for all customers, upon request I will take your $3 off your hands and dispose of it in your stead.
- **14438**: The ability to meddle with inter-dimensional matter can be considered a great power, with which comes great responsibility. Indeed there have been those who found the burden beyond their capacity to cope.
- **14439**: It seems you are short on gil. Yet I cannot grant concessions, lest access to otherworldly realms lose its true value.
- **14440**: I see you've developed a taste for $5. Yet I fear I cannot furnish you further, for one alone is sufficient to invite misfortune upon the heedless.
- **14441**: You wish to know how to use the $3? There is no trick to it. Allow me to demonstrate.
- **14442**: While in possession of $6, simply assume a resting pose. I'm given to understand it is second nature to all adventurers.
- **14443**: Doing so will cause your $3 to react. Pertinent information can be gleaned by observing the magnitude of its vibration and the manner of light emitted.
- **14444**: Should neither reaction occur, take it to mean that no Voidwalkers roam the area.
- **14445**: Should it vibrate softly but emit no light, take it to mean that Voidwalkers have recently passed through and may soon return.
- **14446**: Should it vibrate softly and emit a gentle light, take it to mean that Voidwalkers presently roam the area.
- **14447**: Now, pay particular attention to what I'm about to explain. The reaction of the $3 will change once a predetermined distance from a Voidwalker has been closed.
- **14448**: From that point onwards, the magnitude of the vibration corresponds directly to the creature's strength. Based on this knowledge, it is your decision whether to pursue it further.
- **14449**: The gentle glow of light, on the other hand, will intensify to become a radiant beam pointing in the direction of the creature.
- **14450**: Following that beam to its end will cause the heretofore invisible Voidwalker to cross fully over into this world and take form.
- **14451**: This precise moment of encounter with an Abyssean, I have dubbed "contact."
- **14452**: Not only are Abysseans known to be temperamental and unpredictable; there are those that demonstrate a degree of cunning and guile far beyond that seen in this world.
- **14453**: Consider yourself warned.
- **14454**: For as surely as the beam of light emitted by the $3 guides you to a Voidwalker, so too does it guide the Voidwalker to you. Be ever mindful of this fact.
- **14455**: Know also that not one, but numerous Voidwalkers may roam the land at any given time, and the readings indicate only the creature nearest you.
- **14456**: You would do well to check the readings regularly, as a sudden change in the light's direction could mean a different Voidwalker has wandered your way.
- **14457**: Voidwalkers will only reveal their true form at the point of contact, and seeking one only to be met with another is a scenario all adventurers want to avoid.
- **14458**: But surely, you grow weary of my ramblings. I for one believe this is something best learned through doing.
- **14459**: Has the burden of this responsibility proven too heavy to bear? Very well, I will take it off your hands and see to its disposal.
- **14460**: Discard which one? [3/$3/$3/$3/$3/$3/$3/$3/$3/$3/None of them.]
- **14461**: Are you certain? [Aye./Nay.]
- **14462**: It is done. You needn't concern yourself with unseen foes any longer. A tame, tranquil adventuring life bereft of exhilaration will be yours once more.
- **14463**: Forgive me. My personal thirst for the unknown has no bearing on the decisions of others. I will be here, however, should you have a change of heart.

## Events

### Event 65535

#### Metadata

| Field        | Value   |
|--------------|---------|
| Entrypoint   | 0x0000  |
| Data Size    | 1 bytes |
| Instructions | 1       |

```
      00 01 02 03 04 05 06 07  08 09 0A 0B 0C 0D 0E 0F
      -- -- -- -- -- -- -- --  -- -- -- -- -- -- -- --
0000: 00                                                .               
```

#### Opcodes

```
  0: 0x0000 [0x00] END_REQSTACK()
```

### Event 10120

#### Metadata

| Field        | Value      |
|--------------|------------|
| Entrypoint   | 0x0001     |
| Data Size    | 1201 bytes |
| Instructions | 287        |

```
      00 01 02 03 04 05 06 07  08 09 0A 0B 0C 0D 0E 0F
      -- -- -- -- -- -- -- --  -- -- -- -- -- -- -- --
0000:    06 03 00 06 04 00 03  00 00 02 10 1D 00 80 23   ..............#
0010: 66 01 80 F8 FF FF 7F F8  FF FF 7F 70 61 73 30 03  f..........pas0.
0020: 02 10 02 80 03 03 10 03  80 1D 04 80 23 1D 05 80  ............#...
0030: 23 53 F8 FF FF 7F F8 FF  FF 7F 70 61 73 30 03 01  #S........pas0..
0040: 00 06 80 02 00 00 06 80  00 52 00 3C 01 00 07 80  .........R.<....
0050: 08 80 05 03 00 02 03 00  06 80 02 B0 04 03 02 10  ................
0060: 02 80 24 09 80 06 80 01  00 25 02 00 10 06 80 00  ..$......%......
0070: E3 00 1D 0A 80 23 1D 0B  80 23 03 02 10 02 80 1D  .....#...#......
0080: 0C 80 23 1D 0D 80 23 1D  0E 80 23 1D 0F 80 23 03  ..#...#...#...#.
0090: 02 10 02 80 1D 10 80 23  03 02 10 02 80 1D 11 80  .......#........
00A0: 23 03 02 10 02 80 1D 12  80 23 03 02 10 02 80 1D  #........#......
00B0: 13 80 23 1D 14 80 23 1D  15 80 23 03 02 10 02 80  ..#...#...#.....
00C0: 1D 16 80 23 1D 17 80 23  1D 18 80 23 1D 19 80 23  ...#...#...#...#
00D0: 1D 1A 80 23 1D 1B 80 23  1D 1C 80 23 1D 1D 80 23  ...#...#...#...#
00E0: 01 AD 04 02 00 10 08 80  00 8A 01 03 02 10 03 80  ................
00F0: 1D 1E 80 23 03 02 10 03  80 24 1F 80 08 80 06 80  ...#.....$......
0100: 25 02 00 10 06 80 00 75  01 3E 00 00 06 80 1F 01  %......u.>......
0110: 03 02 10 02 80 1D 20 80  23 06 03 00 01 72 01 40  ...... .#....r.@
0120: 06 80 07 80 01 10 07 80  40 21 80 22 80 01 10 06  ........@!."....
0130: 80 43 00 43 01 03 02 00  02 10 02 02 00 08 80 00  .C.C............
0140: 6B 01 03 02 10 02 80 1D  23 80 23 1D 24 80 23 1D  k.......#.#.$.#.
0150: 25 80 23 40 06 80 07 80  01 10 08 80 40 21 80 22  %.#@........@!."
0160: 80 01 10 06 80 06 03 00  01 72 01 1D 26 80 23 06  .........r..&.#.
0170: 03 00 01 87 01 02 00 10  08 80 00 87 01 1D 27 80  ..............'.
0180: 23 06 03 00 01 87 01 01  AD 04 02 00 10 28 80 00  #............(..
0190: 1F 02 03 02 10 02 80 1D  29 80 23 2C F8 FF FF 7F  ........).#,....
01A0: F8 FF FF 7F 72 65 73 30  03 02 10 02 80 1D 2A 80  ....res0......*.
01B0: 23 03 02 10 02 80 1D 2B  80 23 1D 2C 80 23 1D 2D  #......+.#.,.#.-
01C0: 80 23 1D 2E 80 23 2C F8  FF FF 7F F8 FF FF 7F 72  .#...#,........r
01D0: 65 73 32 03 02 10 02 80  1D 2F 80 23 1D 30 80 23  es2....../.#.0.#
01E0: 1D 31 80 23 03 02 10 02  80 1D 32 80 23 1D 33 80  .1.#......2.#.3.
01F0: 23 03 02 10 02 80 1D 34  80 23 1D 35 80 23 03 02  #......4.#.5.#..
0200: 10 02 80 1D 36 80 23 1D  37 80 23 1D 38 80 23 1D  ....6.#.7.#.8.#.
0210: 39 80 23 03 02 10 02 80  1D 3A 80 23 01 AD 04 02  9.#......:.#....
0220: 00 10 07 80 00 9F 04 1D  3B 80 23 05 04 00 02 04  ........;.#.....
0230: 00 06 80 02 9C 04 03 06  00 06 80 3E 00 00 06 80  ...........>....
0240: 45 02 01 4C 02 3C 06 00  06 80 08 80 3E 00 00 08  E..L.<......>...
0250: 80 56 02 01 5D 02 3C 06  00 08 80 08 80 3E 00 00  .V..].<......>..
0260: 28 80 67 02 01 6E 02 3C  06 00 28 80 08 80 3E 00  (.g..n.<..(...>.
0270: 00 07 80 78 02 01 7F 02  3C 06 00 07 80 08 80 3E  ...x....<......>
0280: 00 00 21 80 89 02 01 90  02 3C 06 00 21 80 08 80  ..!......<..!...
0290: 3E 00 00 3C 80 9A 02 01  A1 02 3C 06 00 3C 80 08  >..<......<..<..
02A0: 80 3E 00 00 3D 80 AB 02  01 B2 02 3C 06 00 3D 80  .>..=......<..=.
02B0: 08 80 3E 00 00 22 80 BC  02 01 C3 02 3C 06 00 22  ..>.."......<.."
02C0: 80 08 80 3E 00 00 3E 80  CD 02 01 D4 02 3C 06 00  ...>..>......<..
02D0: 3E 80 08 80 3C 06 00 3F  80 08 80 03 02 10 02 80  >...<..?........
02E0: 03 03 10 40 80 03 04 10  41 80 03 05 10 42 80 03  ...@....A....B..
02F0: 06 10 43 80 03 07 10 44  80 03 08 10 45 80 03 09  ..C....D....E...
0300: 10 46 80 03 00 17 47 80  03 05 00 06 80 24 48 80  .F....G......$H.
0310: 06 80 06 00 25 02 00 10  06 80 00 25 03 03 05 00  ....%......%....
0320: 08 80 01 C3 03 02 00 10  08 80 00 35 03 03 05 00  ...........5....
0330: 28 80 01 C3 03 02 00 10  28 80 00 45 03 03 05 00  (.......(..E....
0340: 07 80 01 C3 03 02 00 10  07 80 00 55 03 03 05 00  ...........U....
0350: 21 80 01 C3 03 02 00 10  21 80 00 65 03 03 05 00  !.......!..e....
0360: 3C 80 01 C3 03 02 00 10  3C 80 00 75 03 03 05 00  <.......<..u....
0370: 3D 80 01 C3 03 02 00 10  3D 80 00 85 03 03 05 00  =.......=.......
0380: 22 80 01 C3 03 02 00 10  22 80 00 95 03 03 05 00  ".......".......
0390: 3E 80 01 C3 03 02 00 10  3E 80 00 A5 03 03 05 00  >.......>.......
03A0: 3F 80 01 C3 03 02 00 10  3F 80 00 B5 03 03 05 00  ?.......?.......
03B0: 06 80 01 C3 03 02 00 10  49 80 00 C3 03 06 04 00  ........I.......
03C0: 01 C3 03 02 05 00 06 80  01 99 04 24 4A 80 08 80  ...........$J...
03D0: 06 80 25 02 00 10 06 80  00 8E 04 1D 4B 80 23 02  ..%.........K.#.
03E0: 05 00 08 80 80 EF 03 03  02 10 02 80 01 6F 04 02  .............o..
03F0: 05 00 28 80 80 FF 03 03  02 10 40 80 01 6F 04 02  ..(.......@..o..
0400: 05 00 07 80 80 0F 04 03  02 10 41 80 01 6F 04 02  ..........A..o..
0410: 05 00 21 80 80 1F 04 03  02 10 42 80 01 6F 04 02  ..!.......B..o..
0420: 05 00 3C 80 80 2F 04 03  02 10 43 80 01 6F 04 02  ..<../....C..o..
0430: 05 00 3D 80 80 3F 04 03  02 10 44 80 01 6F 04 02  ..=..?....D..o..
0440: 05 00 22 80 80 4F 04 03  02 10 45 80 01 6F 04 02  .."..O....E..o..
0450: 05 00 3E 80 80 5F 04 03  02 10 46 80 01 6F 04 02  ..>.._....F..o..
0460: 05 00 3F 80 80 6F 04 03  02 10 47 80 01 6F 04 1D  ..?..o....G..o..
0470: 4C 80 23 40 06 80 07 80  01 10 28 80 40 21 80 22  L.#@......(.@!."
0480: 80 01 10 05 00 06 04 00  06 03 00 01 99 04 02 00  ................
0490: 10 08 80 00 99 04 01 99  04 01 2E 02 01 AD 04 02  ................
04A0: 00 10 21 80 00 AD 04 06  03 00 01 AD 04 01 55 00  ..!...........U.
04B0: 21 00                                             !.              
```

#### Opcodes

```
  0: 0x0001 [0x06] ExtData[1]->WorkLocal[3] = 0
  1: 0x0004 [0x06] ExtData[1]->WorkLocal[4] = 0
  2: 0x0007 [0x03] ExtData[1]->WorkLocal[0] = Work_Zone[2]
  3: 0x000C [0x1D] PRINT_EVENT_MESSAGE(message_id=14409*)
    → "You there. Yes, you, adventurer! Your downcast countenance tells me your life wants for exhilaration."
  4: 0x000F [0x23] WAIT_FOR_DIALOG_INTERACTION
  5: 0x0010 [0x66] LOAD_EXT_SCHEDULER_MAIN: Load scheduler "pas0" with entities [EventEntity, EventEntity], work=71*
  6: 0x001F [0x03] Work_Zone[2] = 1253*
  7: 0x0024 [0x03] Work_Zone[3] = 1000*
  8: 0x0029 [0x1D] PRINT_EVENT_MESSAGE(message_id=14410*)
    → "Who am I, you ask? Let's just say I'm he who is about to banish all trace of tedium from your life with an irresistible offer--one of otherworldly proportions, to be sure. For a mere $1 gil, this $3 I hold is yours."
  9: 0x002C [0x23] WAIT_FOR_DIALOG_INTERACTION
 10: 0x002D [0x1D] PRINT_EVENT_MESSAGE(message_id=14411*)
    → ""But what in Slumbering Samwell's shank does it do," you ask? Consider yourself fortunate, for it's my policy to demystify before the customer buys."
 11: 0x0030 [0x23] WAIT_FOR_DIALOG_INTERACTION
 12: 0x0031 [0x53] WAIT_SCHEDULER_TASK: Wait for scheduler "pas0" with entities [EventEntity, EventEntity]
 13: 0x003E [0x03] ExtData[1]->WorkLocal[1] = 0*
 14: 0x0043 [0x02] IF !(ExtData[1]->WorkLocal[0] == 0*) GOTO 0x0052
 15: 0x004B [0x3C] SET_BIT_FLAG_CONDITIONAL(target_work_offset=ExtData[1]->WorkLocal[1], bit_index_work_offset=3*, condition_work_offset=1*)
 16: 0x0052 [0x05] ExtData[1]->WorkLocal[3] = 1
 17: 0x0055 [0x02] IF !(ExtData[1]->WorkLocal[3] <= 0*) GOTO 0x04B0
 18: 0x005D [0x03] Work_Zone[2] = 1253*
 19: 0x0062 [0x24] CREATE_DIALOG(message_id=14412*, default_option=0*, option_flags=ExtData[1]->WorkLocal[1])
    → "What will you do? [Let him ramble./Purchase $6./Learn how to use it./Discard abyssite./Leave.]"
 20: 0x0069 [0x25] WAIT_DIALOG_SELECT()
 21: 0x006A [0x02] IF !(Work_Zone[0] == 0*) GOTO 0x00E3
 22: 0x0072 [0x1D] PRINT_EVENT_MESSAGE(message_id=14413*)
    → "Ahem! Allow me to present you with a supposition."
 23: 0x0075 [0x23] WAIT_FOR_DIALOG_INTERACTION
 24: 0x0076 [0x1D] PRINT_EVENT_MESSAGE(message_id=14414*)
    → "Lying in parallel to the world upon which we stand exists another dimension."
 25: 0x0079 [0x23] WAIT_FOR_DIALOG_INTERACTION
 26: 0x007A [0x03] Work_Zone[2] = 1253*
 27: 0x007F [0x1D] PRINT_EVENT_MESSAGE(message_id=14415*)
    → ""Abyssea" is its name--or at least, the name I've bestowed upon it. It is a world of boundless beauty, mystique, and riches unclaimed."
 28: 0x0082 [0x23] WAIT_FOR_DIALOG_INTERACTION
 29: 0x0083 [0x1D] PRINT_EVENT_MESSAGE(message_id=14416*)
    → "Now, suppose this $3 I hold is a key to accessing Abyssea. Were you in possession of one, your curiosity would get the better of you, yes?"
 30: 0x0086 [0x23] WAIT_FOR_DIALOG_INTERACTION
 31: 0x0087 [0x1D] PRINT_EVENT_MESSAGE(message_id=14417*)
    → "Strictly speaking, this object does not grant entry into Abyssea itself."
 32: 0x008A [0x23] WAIT_FOR_DIALOG_INTERACTION
 33: 0x008B [0x1D] PRINT_EVENT_MESSAGE(message_id=14418*)
    → "It does, however, make it possible to interact with beings from that plane of existence--"Abysseans," I call them."
 34: 0x008E [0x23] WAIT_FOR_DIALOG_INTERACTION
 35: 0x008F [0x03] Work_Zone[2] = 1253*
 36: 0x0094 [0x1D] PRINT_EVENT_MESSAGE(message_id=14419*)
    → "The $3 serves to detect Abysseans that wander the gulf between worlds. How those hapless creatures--I refer to them as "Voidwalkers"--found their way there, mind you, is another subject entirely."
 37: 0x0097 [0x23] WAIT_FOR_DIALOG_INTERACTION
 38: 0x0098 [0x03] Work_Zone[2] = 1253*
 39: 0x009D [0x1D] PRINT_EVENT_MESSAGE(message_id=14420*)
    → "Having drifted to this realm from the world yonder, much like the Voidwalkers themselves, $5 are attuned to the presence of these creatures and will react--vibrate and emit light--when they draw near."
 40: 0x00A0 [0x23] WAIT_FOR_DIALOG_INTERACTION
 41: 0x00A1 [0x03] Work_Zone[2] = 1253*
 42: 0x00A6 [0x1D] PRINT_EVENT_MESSAGE(message_id=14421*)
    → "The closer your distance to a Voidwalker, the stronger the reaction becomes, until the creature is forcibly wrested into this dimension."
 43: 0x00A9 [0x23] WAIT_FOR_DIALOG_INTERACTION
 44: 0x00AA [0x03] Work_Zone[2] = 1253*
 45: 0x00AF [0x1D] PRINT_EVENT_MESSAGE(message_id=14422*)
    → "Repeated contact with Abysseans will cause the $3 to take on different hues, allowing it to respond to creatures belonging to the higher echelons of Voidwalkers."
 46: 0x00B2 [0x23] WAIT_FOR_DIALOG_INTERACTION
 47: 0x00B3 [0x1D] PRINT_EVENT_MESSAGE(message_id=14423*)
    → "Be forewarned! Abysseans are among the most foul-tempered, unpredictable creatures. You would do well to steel yourself for a trying encounter prior to making contact."
 48: 0x00B6 [0x23] WAIT_FOR_DIALOG_INTERACTION
 49: 0x00B7 [0x1D] PRINT_EVENT_MESSAGE(message_id=14424*)
    → "I trust your many adventures have made you familiar with those ghastly statues scattered across the land called cavernous maws."
 50: 0x00BA [0x23] WAIT_FOR_DIALOG_INTERACTION
 51: 0x00BB [0x03] Work_Zone[2] = 1253*
 52: 0x00C0 [0x1D] PRINT_EVENT_MESSAGE(message_id=14425*)
    → "My observations have revealed that the concentration of Voidwalkers is greatest in locations where these statues are found."
 53: 0x00C3 [0x23] WAIT_FOR_DIALOG_INTERACTION
 54: 0x00C4 [0x1D] PRINT_EVENT_MESSAGE(message_id=14426*)
    → "As yet, I have no plausible explanations for this phenomenon, but you needn't concern yourself with such details."
 55: 0x00C7 [0x23] WAIT_FOR_DIALOG_INTERACTION
 56: 0x00C8 [0x1D] PRINT_EVENT_MESSAGE(message_id=14427*)
    → "Yours, my friend, is a dilemma infinitely simpler in nature."
 57: 0x00CB [0x23] WAIT_FOR_DIALOG_INTERACTION
 58: 0x00CC [0x1D] PRINT_EVENT_MESSAGE(message_id=14428*)
    → "All this far-fetched talk of Abyssea, Abysseans, and Voidwalkers..."
 59: 0x00CF [0x23] WAIT_FOR_DIALOG_INTERACTION
 60: 0x00D0 [0x1D] PRINT_EVENT_MESSAGE(message_id=14429*)
    → "I'm fully aware of the fantastical nature of my tale, and do not think poorly of those inclined to skepticism."
 61: 0x00D3 [0x23] WAIT_FOR_DIALOG_INTERACTION
 62: 0x00D4 [0x1D] PRINT_EVENT_MESSAGE(message_id=14430*)
    → "Yet I feel no need to vouch further for the authenticity of my claims. Such is my confidence that the truth speaks for itself."
 63: 0x00D7 [0x23] WAIT_FOR_DIALOG_INTERACTION
 64: 0x00D8 [0x1D] PRINT_EVENT_MESSAGE(message_id=14431*)
    → "Now then. A great new world has presented itself before you. The question is, will you embrace this opportunity, or let it pass you by?"
 65: 0x00DB [0x23] WAIT_FOR_DIALOG_INTERACTION
 66: 0x00DC [0x1D] PRINT_EVENT_MESSAGE(message_id=14432*)
    → "As Abysseans cross from one realm to another, so too does gil pass from one individual to the next. In my mind, it is only fitting that gil is that which grants you the key to Abyssea."
 67: 0x00DF [0x23] WAIT_FOR_DIALOG_INTERACTION
 68: 0x00E0 [0x01] GOTO 0x04AD
 69: 0x00E3 [0x02] IF !(Work_Zone[0] == 1*) GOTO 0x018A
 70: 0x00EB [0x03] Work_Zone[2] = 1000*
 71: 0x00F0 [0x1D] PRINT_EVENT_MESSAGE(message_id=14433*)
    → "My tales have piqued your interest, have they? As I have mentioned prior, the price is $0 gil."
 72: 0x00F3 [0x23] WAIT_FOR_DIALOG_INTERACTION
 73: 0x00F4 [0x03] Work_Zone[2] = 1000*
 74: 0x00F9 [0x24] CREATE_DIALOG(message_id=14434*, default_option=1*, option_flags=0*)
    → "Hand over $0 gil? [Aye./Nay.]"
 75: 0x0100 [0x25] WAIT_DIALOG_SELECT()
 76: 0x0101 [0x02] IF !(Work_Zone[0] == 0*) GOTO 0x0175
 77: 0x0109 [0x3E] IF !(ExtData[1]->WorkLocal[0] bit 0*) GOTO 0x011F
 78: 0x0110 [0x03] Work_Zone[2] = 1253*
 79: 0x0115 [0x1D] PRINT_EVENT_MESSAGE(message_id=14440*)
    → "I see you've developed a taste for $5. Yet I fear I cannot furnish you further, for one alone is sufficient to invite misfortune upon the heedless."
 80: 0x0118 [0x23] WAIT_FOR_DIALOG_INTERACTION
 81: 0x0119 [0x06] ExtData[1]->WorkLocal[3] = 0
 82: 0x011C [0x01] GOTO 0x0172
 83: 0x011F [0x40] SET_BIT_WORK_RANGE(start_bit=0*, end_bit=3*, target=Work_Zone[1], source=3*)
 84: 0x0128 [0x40] SET_BIT_WORK_RANGE(start_bit=4*, end_bit=7*, target=Work_Zone[1], source=0*)
 85: 0x0131 [0x43] SEND_EVENT_UPDATE: Send pending tag to server (packet 0x005B)
 86: 0x0133 [0x43] SEND_EVENT_UPDATE: Check pending flag (skip if not pending)
 87: 0x0135 [0x03] ExtData[1]->WorkLocal[2] = Work_Zone[2]
 88: 0x013A [0x02] IF !(ExtData[1]->WorkLocal[2] == 1*) GOTO 0x016B
 89: 0x0142 [0x03] Work_Zone[2] = 1253*
 90: 0x0147 [0x1D] PRINT_EVENT_MESSAGE(message_id=14436*)
    → "I thank you for your custom. Here is your very own $3!"
 91: 0x014A [0x23] WAIT_FOR_DIALOG_INTERACTION
 92: 0x014B [0x1D] PRINT_EVENT_MESSAGE(message_id=14437*)
    → "As a service for all customers, upon request I will take your $3 off your hands and dispose of it in your stead."
 93: 0x014E [0x23] WAIT_FOR_DIALOG_INTERACTION
 94: 0x014F [0x1D] PRINT_EVENT_MESSAGE(message_id=14438*)
    → "The ability to meddle with inter-dimensional matter can be considered a great power, with which comes great responsibility. Indeed there have been those who found the burden beyond their capacity to cope."
 95: 0x0152 [0x23] WAIT_FOR_DIALOG_INTERACTION
 96: 0x0153 [0x40] SET_BIT_WORK_RANGE(start_bit=0*, end_bit=3*, target=Work_Zone[1], source=1*)
 97: 0x015C [0x40] SET_BIT_WORK_RANGE(start_bit=4*, end_bit=7*, target=Work_Zone[1], source=0*)
 98: 0x0165 [0x06] ExtData[1]->WorkLocal[3] = 0
 99: 0x0168 [0x01] GOTO 0x0172
100: 0x016B [0x1D] PRINT_EVENT_MESSAGE(message_id=14439*)
    → "It seems you are short on gil. Yet I cannot grant concessions, lest access to otherworldly realms lose its true value."
101: 0x016E [0x23] WAIT_FOR_DIALOG_INTERACTION
102: 0x016F [0x06] ExtData[1]->WorkLocal[3] = 0

SUBROUTINE_0172:
103: 0x0172 [0x01] GOTO 0x0187
104: 0x0175 [0x02] IF !(Work_Zone[0] == 1*) GOTO 0x0187
105: 0x017D [0x1D] PRINT_EVENT_MESSAGE(message_id=14435*)
    → "No? The sum I ask is by no means prohibitive. I'll be waiting here, should you ever change your mind."
106: 0x0180 [0x23] WAIT_FOR_DIALOG_INTERACTION
107: 0x0181 [0x06] ExtData[1]->WorkLocal[3] = 0
108: 0x0184 [0x01] GOTO 0x0187

SUBROUTINE_0187:
109: 0x0187 [0x01] GOTO 0x04AD
110: 0x018A [0x02] IF !(Work_Zone[0] == 2*) GOTO 0x021F
111: 0x0192 [0x03] Work_Zone[2] = 1253*
112: 0x0197 [0x1D] PRINT_EVENT_MESSAGE(message_id=14441*)
    → "You wish to know how to use the $3? There is no trick to it. Allow me to demonstrate."
113: 0x019A [0x23] WAIT_FOR_DIALOG_INTERACTION
114: 0x019B [0x2C] CREATE_SCHEDULER_TASK: Create scheduler "res0" with entities [EventEntity, EventEntity]
115: 0x01A8 [0x03] Work_Zone[2] = 1253*
116: 0x01AD [0x1D] PRINT_EVENT_MESSAGE(message_id=14442*)
    → "While in possession of $6, simply assume a resting pose. I'm given to understand it is second nature to all adventurers."
117: 0x01B0 [0x23] WAIT_FOR_DIALOG_INTERACTION
118: 0x01B1 [0x03] Work_Zone[2] = 1253*
119: 0x01B6 [0x1D] PRINT_EVENT_MESSAGE(message_id=14443*)
    → "Doing so will cause your $3 to react. Pertinent information can be gleaned by observing the magnitude of its vibration and the manner of light emitted."
120: 0x01B9 [0x23] WAIT_FOR_DIALOG_INTERACTION
121: 0x01BA [0x1D] PRINT_EVENT_MESSAGE(message_id=14444*)
    → "Should neither reaction occur, take it to mean that no Voidwalkers roam the area."
122: 0x01BD [0x23] WAIT_FOR_DIALOG_INTERACTION
123: 0x01BE [0x1D] PRINT_EVENT_MESSAGE(message_id=14445*)
    → "Should it vibrate softly but emit no light, take it to mean that Voidwalkers have recently passed through and may soon return."
124: 0x01C1 [0x23] WAIT_FOR_DIALOG_INTERACTION
125: 0x01C2 [0x1D] PRINT_EVENT_MESSAGE(message_id=14446*)
    → "Should it vibrate softly and emit a gentle light, take it to mean that Voidwalkers presently roam the area."
126: 0x01C5 [0x23] WAIT_FOR_DIALOG_INTERACTION
127: 0x01C6 [0x2C] CREATE_SCHEDULER_TASK: Create scheduler "res2" with entities [EventEntity, EventEntity]
128: 0x01D3 [0x03] Work_Zone[2] = 1253*
129: 0x01D8 [0x1D] PRINT_EVENT_MESSAGE(message_id=14447*)
    → "Now, pay particular attention to what I'm about to explain. The reaction of the $3 will change once a predetermined distance from a Voidwalker has been closed."
130: 0x01DB [0x23] WAIT_FOR_DIALOG_INTERACTION
131: 0x01DC [0x1D] PRINT_EVENT_MESSAGE(message_id=14448*)
    → "From that point onwards, the magnitude of the vibration corresponds directly to the creature's strength. Based on this knowledge, it is your decision whether to pursue it further."
132: 0x01DF [0x23] WAIT_FOR_DIALOG_INTERACTION
133: 0x01E0 [0x1D] PRINT_EVENT_MESSAGE(message_id=14449*)
    → "The gentle glow of light, on the other hand, will intensify to become a radiant beam pointing in the direction of the creature."
134: 0x01E3 [0x23] WAIT_FOR_DIALOG_INTERACTION
135: 0x01E4 [0x03] Work_Zone[2] = 1253*
136: 0x01E9 [0x1D] PRINT_EVENT_MESSAGE(message_id=14450*)
    → "Following that beam to its end will cause the heretofore invisible Voidwalker to cross fully over into this world and take form."
137: 0x01EC [0x23] WAIT_FOR_DIALOG_INTERACTION
138: 0x01ED [0x1D] PRINT_EVENT_MESSAGE(message_id=14451*)
    → "This precise moment of encounter with an Abyssean, I have dubbed "contact.""
139: 0x01F0 [0x23] WAIT_FOR_DIALOG_INTERACTION
140: 0x01F1 [0x03] Work_Zone[2] = 1253*
141: 0x01F6 [0x1D] PRINT_EVENT_MESSAGE(message_id=14452*)
    → "Not only are Abysseans known to be temperamental and unpredictable; there are those that demonstrate a degree of cunning and guile far beyond that seen in this world."
142: 0x01F9 [0x23] WAIT_FOR_DIALOG_INTERACTION
143: 0x01FA [0x1D] PRINT_EVENT_MESSAGE(message_id=14453*)
    → "Consider yourself warned."
144: 0x01FD [0x23] WAIT_FOR_DIALOG_INTERACTION
145: 0x01FE [0x03] Work_Zone[2] = 1253*
146: 0x0203 [0x1D] PRINT_EVENT_MESSAGE(message_id=14454*)
    → "For as surely as the beam of light emitted by the $3 guides you to a Voidwalker, so too does it guide the Voidwalker to you. Be ever mindful of this fact."
147: 0x0206 [0x23] WAIT_FOR_DIALOG_INTERACTION
148: 0x0207 [0x1D] PRINT_EVENT_MESSAGE(message_id=14455*)
    → "Know also that not one, but numerous Voidwalkers may roam the land at any given time, and the readings indicate only the creature nearest you."
149: 0x020A [0x23] WAIT_FOR_DIALOG_INTERACTION
150: 0x020B [0x1D] PRINT_EVENT_MESSAGE(message_id=14456*)
    → "You would do well to check the readings regularly, as a sudden change in the light's direction could mean a different Voidwalker has wandered your way."
151: 0x020E [0x23] WAIT_FOR_DIALOG_INTERACTION
152: 0x020F [0x1D] PRINT_EVENT_MESSAGE(message_id=14457*)
    → "Voidwalkers will only reveal their true form at the point of contact, and seeking one only to be met with another is a scenario all adventurers want to avoid."
153: 0x0212 [0x23] WAIT_FOR_DIALOG_INTERACTION
154: 0x0213 [0x03] Work_Zone[2] = 1253*
155: 0x0218 [0x1D] PRINT_EVENT_MESSAGE(message_id=14458*)
    → "But surely, you grow weary of my ramblings. I for one believe this is something best learned through doing."
156: 0x021B [0x23] WAIT_FOR_DIALOG_INTERACTION
157: 0x021C [0x01] GOTO 0x04AD
158: 0x021F [0x02] IF !(Work_Zone[0] == 3*) GOTO 0x049F
159: 0x0227 [0x1D] PRINT_EVENT_MESSAGE(message_id=14459*)
    → "Has the burden of this responsibility proven too heavy to bear? Very well, I will take it off your hands and see to its disposal."
160: 0x022A [0x23] WAIT_FOR_DIALOG_INTERACTION
161: 0x022B [0x05] ExtData[1]->WorkLocal[4] = 1

SUBROUTINE_022E:
162: 0x022E [0x02] IF !(ExtData[1]->WorkLocal[4] <= 0*) GOTO 0x049C
163: 0x0236 [0x03] ExtData[1]->WorkLocal[6] = 0*
164: 0x023B [0x3E] IF !(ExtData[1]->WorkLocal[0] bit 0*) GOTO 0x0245
165: 0x0242 [0x01] GOTO 0x024C
166: 0x0245 [0x3C] SET_BIT_FLAG_CONDITIONAL(target_work_offset=ExtData[1]->WorkLocal[6], bit_index_work_offset=0*, condition_work_offset=1*)

SUBROUTINE_024C:
167: 0x024C [0x3E] IF !(ExtData[1]->WorkLocal[0] bit 1*) GOTO 0x0256
168: 0x0253 [0x01] GOTO 0x025D
169: 0x0256 [0x3C] SET_BIT_FLAG_CONDITIONAL(target_work_offset=ExtData[1]->WorkLocal[6], bit_index_work_offset=1*, condition_work_offset=1*)

SUBROUTINE_025D:
170: 0x025D [0x3E] IF !(ExtData[1]->WorkLocal[0] bit 2*) GOTO 0x0267
171: 0x0264 [0x01] GOTO 0x026E
172: 0x0267 [0x3C] SET_BIT_FLAG_CONDITIONAL(target_work_offset=ExtData[1]->WorkLocal[6], bit_index_work_offset=2*, condition_work_offset=1*)

SUBROUTINE_026E:
173: 0x026E [0x3E] IF !(ExtData[1]->WorkLocal[0] bit 3*) GOTO 0x0278
174: 0x0275 [0x01] GOTO 0x027F
175: 0x0278 [0x3C] SET_BIT_FLAG_CONDITIONAL(target_work_offset=ExtData[1]->WorkLocal[6], bit_index_work_offset=3*, condition_work_offset=1*)

SUBROUTINE_027F:
176: 0x027F [0x3E] IF !(ExtData[1]->WorkLocal[0] bit 4*) GOTO 0x0289
177: 0x0286 [0x01] GOTO 0x0290
178: 0x0289 [0x3C] SET_BIT_FLAG_CONDITIONAL(target_work_offset=ExtData[1]->WorkLocal[6], bit_index_work_offset=4*, condition_work_offset=1*)

SUBROUTINE_0290:
179: 0x0290 [0x3E] IF !(ExtData[1]->WorkLocal[0] bit 5*) GOTO 0x029A
180: 0x0297 [0x01] GOTO 0x02A1
181: 0x029A [0x3C] SET_BIT_FLAG_CONDITIONAL(target_work_offset=ExtData[1]->WorkLocal[6], bit_index_work_offset=5*, condition_work_offset=1*)

SUBROUTINE_02A1:
182: 0x02A1 [0x3E] IF !(ExtData[1]->WorkLocal[0] bit 6*) GOTO 0x02AB
183: 0x02A8 [0x01] GOTO 0x02B2
184: 0x02AB [0x3C] SET_BIT_FLAG_CONDITIONAL(target_work_offset=ExtData[1]->WorkLocal[6], bit_index_work_offset=6*, condition_work_offset=1*)

SUBROUTINE_02B2:
185: 0x02B2 [0x3E] IF !(ExtData[1]->WorkLocal[0] bit 7*) GOTO 0x02BC
186: 0x02B9 [0x01] GOTO 0x02C3
187: 0x02BC [0x3C] SET_BIT_FLAG_CONDITIONAL(target_work_offset=ExtData[1]->WorkLocal[6], bit_index_work_offset=7*, condition_work_offset=1*)

SUBROUTINE_02C3:
188: 0x02C3 [0x3E] IF !(ExtData[1]->WorkLocal[0] bit 8*) GOTO 0x02CD
189: 0x02CA [0x01] GOTO 0x02D4
190: 0x02CD [0x3C] SET_BIT_FLAG_CONDITIONAL(target_work_offset=ExtData[1]->WorkLocal[6], bit_index_work_offset=8*, condition_work_offset=1*)

SUBROUTINE_02D4:
191: 0x02D4 [0x3C] SET_BIT_FLAG_CONDITIONAL(target_work_offset=ExtData[1]->WorkLocal[6], bit_index_work_offset=9*, condition_work_offset=1*)
192: 0x02DB [0x03] Work_Zone[2] = 1253*
193: 0x02E0 [0x03] Work_Zone[3] = 1254*
194: 0x02E5 [0x03] Work_Zone[4] = 1255*
195: 0x02EA [0x03] Work_Zone[5] = 1256*
196: 0x02EF [0x03] Work_Zone[6] = 1257*
197: 0x02F4 [0x03] Work_Zone[7] = 1258*
198: 0x02F9 [0x03] Work_Zone[8] = 1259*
199: 0x02FE [0x03] Work_Zone[9] = 1590*
200: 0x0303 [0x03] Work_Zone_1700[0] = 1260*
201: 0x0308 [0x03] ExtData[1]->WorkLocal[5] = 0*
202: 0x030D [0x24] CREATE_DIALOG(message_id=14460*, default_option=0*, option_flags=ExtData[1]->WorkLocal[6])
    → "Discard which one? [3/$3/$3/$3/$3/$3/$3/$3/$3/$3/None of them.]"
203: 0x0314 [0x25] WAIT_DIALOG_SELECT()
204: 0x0315 [0x02] IF !(Work_Zone[0] == 0*) GOTO 0x0325
205: 0x031D [0x03] ExtData[1]->WorkLocal[5] = 1*
206: 0x0322 [0x01] GOTO 0x03C3
207: 0x0325 [0x02] IF !(Work_Zone[0] == 1*) GOTO 0x0335
208: 0x032D [0x03] ExtData[1]->WorkLocal[5] = 2*
209: 0x0332 [0x01] GOTO 0x03C3
210: 0x0335 [0x02] IF !(Work_Zone[0] == 2*) GOTO 0x0345
211: 0x033D [0x03] ExtData[1]->WorkLocal[5] = 3*
212: 0x0342 [0x01] GOTO 0x03C3
213: 0x0345 [0x02] IF !(Work_Zone[0] == 3*) GOTO 0x0355
214: 0x034D [0x03] ExtData[1]->WorkLocal[5] = 4*
215: 0x0352 [0x01] GOTO 0x03C3
216: 0x0355 [0x02] IF !(Work_Zone[0] == 4*) GOTO 0x0365
217: 0x035D [0x03] ExtData[1]->WorkLocal[5] = 5*
218: 0x0362 [0x01] GOTO 0x03C3
219: 0x0365 [0x02] IF !(Work_Zone[0] == 5*) GOTO 0x0375
220: 0x036D [0x03] ExtData[1]->WorkLocal[5] = 6*
221: 0x0372 [0x01] GOTO 0x03C3
222: 0x0375 [0x02] IF !(Work_Zone[0] == 6*) GOTO 0x0385
223: 0x037D [0x03] ExtData[1]->WorkLocal[5] = 7*
224: 0x0382 [0x01] GOTO 0x03C3
225: 0x0385 [0x02] IF !(Work_Zone[0] == 7*) GOTO 0x0395
226: 0x038D [0x03] ExtData[1]->WorkLocal[5] = 8*
227: 0x0392 [0x01] GOTO 0x03C3
228: 0x0395 [0x02] IF !(Work_Zone[0] == 8*) GOTO 0x03A5
229: 0x039D [0x03] ExtData[1]->WorkLocal[5] = 9*
230: 0x03A2 [0x01] GOTO 0x03C3
231: 0x03A5 [0x02] IF !(Work_Zone[0] == 9*) GOTO 0x03B5
232: 0x03AD [0x03] ExtData[1]->WorkLocal[5] = 0*
233: 0x03B2 [0x01] GOTO 0x03C3
234: 0x03B5 [0x02] IF !(Work_Zone[0] == 10*) GOTO 0x03C3
235: 0x03BD [0x06] ExtData[1]->WorkLocal[4] = 0
236: 0x03C0 [0x01] GOTO 0x03C3

SUBROUTINE_03C3:
237: 0x03C3 [0x02] IF !(ExtData[1]->WorkLocal[5] == 0*) GOTO 0x0499
238: 0x03CB [0x24] CREATE_DIALOG(message_id=14461*, default_option=1*, option_flags=0*)
    → "Are you certain? [Aye./Nay.]"
239: 0x03D2 [0x25] WAIT_DIALOG_SELECT()
240: 0x03D3 [0x02] IF !(Work_Zone[0] == 0*) GOTO 0x048E
241: 0x03DB [0x1D] PRINT_EVENT_MESSAGE(message_id=14462*)
    → "It is done. You needn't concern yourself with unseen foes any longer. A tame, tranquil adventuring life bereft of exhilaration will be yours once more."
242: 0x03DE [0x23] WAIT_FOR_DIALOG_INTERACTION
243: 0x03DF [0x02] IF !(ExtData[1]->WorkLocal[5] == 1*) GOTO 0x03EF
244: 0x03E7 [0x03] Work_Zone[2] = 1253*
245: 0x03EC [0x01] GOTO 0x046F
246: 0x03EF [0x02] IF !(ExtData[1]->WorkLocal[5] == 2*) GOTO 0x03FF
247: 0x03F7 [0x03] Work_Zone[2] = 1254*
248: 0x03FC [0x01] GOTO 0x046F
249: 0x03FF [0x02] IF !(ExtData[1]->WorkLocal[5] == 3*) GOTO 0x040F
250: 0x0407 [0x03] Work_Zone[2] = 1255*
251: 0x040C [0x01] GOTO 0x046F
252: 0x040F [0x02] IF !(ExtData[1]->WorkLocal[5] == 4*) GOTO 0x041F
253: 0x0417 [0x03] Work_Zone[2] = 1256*
254: 0x041C [0x01] GOTO 0x046F
255: 0x041F [0x02] IF !(ExtData[1]->WorkLocal[5] == 5*) GOTO 0x042F
256: 0x0427 [0x03] Work_Zone[2] = 1257*
257: 0x042C [0x01] GOTO 0x046F
258: 0x042F [0x02] IF !(ExtData[1]->WorkLocal[5] == 6*) GOTO 0x043F
259: 0x0437 [0x03] Work_Zone[2] = 1258*
260: 0x043C [0x01] GOTO 0x046F
261: 0x043F [0x02] IF !(ExtData[1]->WorkLocal[5] == 7*) GOTO 0x044F
262: 0x0447 [0x03] Work_Zone[2] = 1259*
263: 0x044C [0x01] GOTO 0x046F
264: 0x044F [0x02] IF !(ExtData[1]->WorkLocal[5] == 8*) GOTO 0x045F
265: 0x0457 [0x03] Work_Zone[2] = 1590*
266: 0x045C [0x01] GOTO 0x046F
267: 0x045F [0x02] IF !(ExtData[1]->WorkLocal[5] == 9*) GOTO 0x046F
268: 0x0467 [0x03] Work_Zone[2] = 1260*
269: 0x046C [0x01] GOTO 0x046F

SUBROUTINE_046F:
270: 0x046F [0x1D] PRINT_EVENT_MESSAGE(message_id=14463*)
    → "Forgive me. My personal thirst for the unknown has no bearing on the decisions of others. I will be here, however, should you have a change of heart."
271: 0x0472 [0x23] WAIT_FOR_DIALOG_INTERACTION
272: 0x0473 [0x40] SET_BIT_WORK_RANGE(start_bit=0*, end_bit=3*, target=Work_Zone[1], source=2*)
273: 0x047C [0x40] SET_BIT_WORK_RANGE(start_bit=4*, end_bit=7*, target=Work_Zone[1], source=ExtData[1]->WorkLocal[5])
274: 0x0485 [0x06] ExtData[1]->WorkLocal[4] = 0
275: 0x0488 [0x06] ExtData[1]->WorkLocal[3] = 0
276: 0x048B [0x01] GOTO 0x0499
277: 0x048E [0x02] IF !(Work_Zone[0] == 1*) GOTO 0x0499
278: 0x0496 [0x01] GOTO 0x0499

SUBROUTINE_0499:
279: 0x0499 [0x01] GOTO 0x022E
280: 0x049C [0x01] GOTO 0x04AD
281: 0x049F [0x02] IF !(Work_Zone[0] == 4*) GOTO 0x04AD
282: 0x04A7 [0x06] ExtData[1]->WorkLocal[3] = 0
283: 0x04AA [0x01] GOTO 0x04AD

SUBROUTINE_04AD:
284: 0x04AD [0x01] GOTO 0x0055
285: 0x04B0 [0x21] END_EVENT
286: 0x04B1 [0x00] END_REQSTACK()
```
