# 17772549 - Pakh Jatalfih

## Common Data

| Field            | Value                     |
|------------------|---------------------------|
| Zone             | Ru'Lude Gardens (ID: 243) |
| Block Size       | 920 bytes                 |
| Total Events     | 24                        |
| References Count | 33                        |

## List of Events

| Event ID                 | Entrypoint   |   Size |   Instructions |
|--------------------------|--------------|--------|----------------|
| [65535](#event-65535)    | 0x0000       |      4 |              2 |
| [103](#event-103)        | 0x0004       |     11 |              5 |
| [52](#event-52)          | 0x000F       |     11 |              5 |
| [51](#event-51)          | 0x001A       |     11 |              5 |
| [43](#event-43)          | 0x0025       |      1 |              1 |
| [68](#event-68)          | 0x0026       |     41 |             11 |
| [141](#event-141)        | 0x004F       |     37 |              9 |
| [54](#event-54)          | 0x0074       |     37 |              9 |
| [53](#event-53)          | 0x0099       |     37 |              9 |
| [50](#event-50)          | 0x00BE       |     37 |              9 |
| [131](#event-131)        | 0x00E3       |      1 |              1 |
| [134](#event-134)        | 0x00E4       |     37 |              9 |
| [137](#event-137)        | 0x0109       |     41 |             11 |
| [37](#event-37)          | 0x0132       |    125 |             22 |
| [57](#event-57)          | 0x01AF       |     37 |              9 |
| [107](#event-107)        | 0x01D4       |     37 |              9 |
| [65535.1](#event-655351) | 0x01F9       |     34 |              9 |
| [65535.2](#event-655352) | 0x021B       |     19 |              3 |
| [65535.3](#event-655353) | 0x022E       |     29 |              3 |
| [65535.4](#event-655354) | 0x024B       |     19 |              3 |
| [65535.5](#event-655355) | 0x025E       |     29 |              3 |
| [65535.6](#event-655356) | 0x027B       |     29 |              3 |
| [65535.7](#event-655357) | 0x0298       |      9 |              3 |
| [65535.8](#event-655358) | 0x02A1       |      1 |              1 |

## DAT References (imed_data)

|   Index | Hex Value   |   Dec Value |
|---------|-------------|-------------|
|       0 | 0x000D      |          13 |
|       1 | 0x270D      |        9997 |
|       2 | 0x2712      |       10002 |
|       3 | 0x2713      |       10003 |
|       4 | 0x0032      |          50 |
|       5 | 0x2744      |       10052 |
|       6 | 0x2745      |       10053 |
|       7 | 0x2748      |       10056 |
|       8 | 0x275D      |       10077 |
|       9 | 0x2760      |       10080 |
|      10 | 0x2763      |       10083 |
|      11 | 0x2785      |       10117 |
|      12 | 0x27A0      |       10144 |
|      13 | 0x27A1      |       10145 |
|      14 | 0x27C9      |       10185 |
|      15 | 0x0035      |          53 |
|      16 | 0x005A      |          90 |
|      17 | 0x0014      |          20 |
|      18 | 0x00C9      |         201 |
|      19 | 0x0000      |           0 |
|      20 | 0x00D2      |         210 |
|      21 | 0x27CA      |       10186 |
|      22 | 0x27CB      |       10187 |
|      23 | 0x27CC      |       10188 |
|      24 | 0x27CD      |       10189 |
|      25 | 0x012C      |         300 |
|      26 | 0x7D53      |       32083 |
|      27 | 0xFFFFB2ED  |  4294947565 |
|      28 | 0x2327      |        8999 |
|      29 | 0x085B      |        2139 |
|      30 | 0x86EF      |       34543 |
|      31 | 0xFFFFC5F9  |  4294952441 |
|      32 | 0x003C      |          60 |

## String References

- **9997**: Welcome to the Embassy of Windurst. If you ever need help during your stay, be sure to stop by.
- **10002**: Welcome to the Embassy of Windurst. Oh, but you're San d'Orian, I see. The Embassy of San d'Oria is out on the other side.
- **10003**: Welcome to the Embassy of Windurst. But, ah, you're from Bastok... The Embassy of Bastok is outside to the left.
- **10052**: Delkfutt's Tower is on the island of Qufim. Don't forget to shop for upgrades. And get some help to tag along... You'll need it!
- **10053**: You'll surely run into some nasty company there, so be extra, extra careful.
- **10056**: Welcome back! The ambassador has returned, and wants to see you. He's in his office.
- **10077**: For now, we need your help in the conquest. We want to bring all of Jeuno's outlying regions under Windurst's umbrella.
- **10080**: Good day, <Player>. His Excellency needs your help. Do us a favor and come back once you've completed your current mission, okay?
- **10083**: His Excellency seeks your help in something important. Best head into the rear chamber.
- **10117**: Go, and the winds of fortune will follow you. You mustn't keep the archduke waiting!
- **10144**: So, you saw the archduke... Well, how did it go?
- **10145**: He wants you to gather magicite? I can't offer any advice on those. Maybe you can try learning about Davoi, Beadeaux, and Castle Oztroja...
- **10185**: There you are! Great work, <Player>!
- **10186**: I'm sorry, but you've got no time to rest! Our beloved Windurst is in grave danger!
- **10187**: With the ambassador away, I want you to take this back to the motherland. Take the airship; it's faster. I'll find out what I can here.
- **10188**: Hurry-scurry! Take the airship back to Windurst! I'll find out what I can here.
- **10189**: As long as the Star Sibyl is safe, then all is well. We don't have any tasks for you here, so continue your service to your country.

## Events

### Event 65535

#### Metadata

| Field        | Value   |
|--------------|---------|
| Entrypoint   | 0x0000  |
| Data Size    | 4 bytes |
| Instructions | 2       |

```
      00 01 02 03 04 05 06 07  08 09 0A 0B 0C 0D 0E 0F
      -- -- -- -- -- -- -- --  -- -- -- -- -- -- -- --
0000: 32 00 80 00                                       2...            
```

#### Opcodes

```
  0: 0x0000 [0x32] ExtData[1]->MainSpeed = 13* * 0.1
  1: 0x0003 [0x00] END_REQSTACK()
```

### Event 103

#### Metadata

| Field        | Value    |
|--------------|----------|
| Entrypoint   | 0x0004   |
| Data Size    | 11 bytes |
| Instructions | 5        |

```
      00 01 02 03 04 05 06 07  08 09 0A 0B 0C 0D 0E 0F
      -- -- -- -- -- -- -- --  -- -- -- -- -- -- -- --
0000:             1E F0 FF FF  7F 1D 01 80 23 21 00         ........#!. 
```

#### Opcodes

```
  0: 0x0004 [0x1E] EventEntity looks at LocalPlayer and starts talking
  1: 0x0009 [0x1D] PRINT_EVENT_MESSAGE(message_id=9997*)
    → "Welcome to the Embassy of Windurst. If you ever need help during your stay, be sure to stop by."
  2: 0x000C [0x23] WAIT_FOR_DIALOG_INTERACTION
  3: 0x000D [0x21] END_EVENT
  4: 0x000E [0x00] END_REQSTACK()
```

### Event 52

#### Metadata

| Field        | Value    |
|--------------|----------|
| Entrypoint   | 0x000F   |
| Data Size    | 11 bytes |
| Instructions | 5        |

```
      00 01 02 03 04 05 06 07  08 09 0A 0B 0C 0D 0E 0F
      -- -- -- -- -- -- -- --  -- -- -- -- -- -- -- --
0000:                                               1E                 .
0010: F0 FF FF 7F 1D 02 80 23  21 00                    .......#!.      
```

#### Opcodes

```
  0: 0x000F [0x1E] EventEntity looks at LocalPlayer and starts talking
  1: 0x0014 [0x1D] PRINT_EVENT_MESSAGE(message_id=10002*)
    → "Welcome to the Embassy of Windurst. Oh, but you're San d'Orian, I see. The Embassy of San d'Oria is out on the other side."
  2: 0x0017 [0x23] WAIT_FOR_DIALOG_INTERACTION
  3: 0x0018 [0x21] END_EVENT
  4: 0x0019 [0x00] END_REQSTACK()
```

### Event 51

#### Metadata

| Field        | Value    |
|--------------|----------|
| Entrypoint   | 0x001A   |
| Data Size    | 11 bytes |
| Instructions | 5        |

```
      00 01 02 03 04 05 06 07  08 09 0A 0B 0C 0D 0E 0F
      -- -- -- -- -- -- -- --  -- -- -- -- -- -- -- --
0010:                                1E F0 FF FF 7F 1D            ......
0020: 03 80 23 21 00                                    ..#!.           
```

#### Opcodes

```
  0: 0x001A [0x1E] EventEntity looks at LocalPlayer and starts talking
  1: 0x001F [0x1D] PRINT_EVENT_MESSAGE(message_id=10003*)
    → "Welcome to the Embassy of Windurst. But, ah, you're from Bastok... The Embassy of Bastok is outside to the left."
  2: 0x0022 [0x23] WAIT_FOR_DIALOG_INTERACTION
  3: 0x0023 [0x21] END_EVENT
  4: 0x0024 [0x00] END_REQSTACK()
```

### Event 43

#### Metadata

| Field        | Value   |
|--------------|---------|
| Entrypoint   | 0x0025  |
| Data Size    | 1 bytes |
| Instructions | 1       |

```
      00 01 02 03 04 05 06 07  08 09 0A 0B 0C 0D 0E 0F
      -- -- -- -- -- -- -- --  -- -- -- -- -- -- -- --
0020:                00                                      .          
```

#### Opcodes

```
  0: 0x0025 [0x00] END_REQSTACK()
```

### Event 68

#### Metadata

| Field        | Value    |
|--------------|----------|
| Entrypoint   | 0x0026   |
| Data Size    | 41 bytes |
| Instructions | 11       |

```
      00 01 02 03 04 05 06 07  08 09 0A 0B 0C 0D 0E 0F
      -- -- -- -- -- -- -- --  -- -- -- -- -- -- -- --
0020:                   4A F0  FF FF 7F F8 FF FF 7F 1E        J.........
0030: F0 FF FF 7F 6F 70 66 04  80 F8 FF FF 7F F8 FF FF  ....opf.........
0040: 7F 74 6C 6B 30 1D 05 80  23 1D 06 80 23 21 00     .tlk0...#...#!. 
```

#### Opcodes

```
  0: 0x0026 [0x4A] LocalPlayer looks at EventEntity
  1: 0x002F [0x1E] EventEntity looks at LocalPlayer and starts talking
  2: 0x0034 [0x6F] WAIT_FRAME_DELAY: Yield until WaitTime reaches zero
  3: 0x0035 [0x70] WAIT_ENTITY_RENDER_FLAG: Wait while EventEntity->Render.Flags3 bit 2 is set (cancel turn if not)
  4: 0x0036 [0x66] LOAD_EXT_SCHEDULER_MAIN: Load scheduler "tlk0" with entities [EventEntity, EventEntity], work=50*
  5: 0x0045 [0x1D] PRINT_EVENT_MESSAGE(message_id=10052*)
    → "Delkfutt's Tower is on the island of Qufim. Don't forget to shop for upgrades. And get some help to tag along... You'll need it!"
  6: 0x0048 [0x23] WAIT_FOR_DIALOG_INTERACTION
  7: 0x0049 [0x1D] PRINT_EVENT_MESSAGE(message_id=10053*)
    → "You'll surely run into some nasty company there, so be extra, extra careful."
  8: 0x004C [0x23] WAIT_FOR_DIALOG_INTERACTION
  9: 0x004D [0x21] END_EVENT
 10: 0x004E [0x00] END_REQSTACK()
```

### Event 141

#### Metadata

| Field        | Value    |
|--------------|----------|
| Entrypoint   | 0x004F   |
| Data Size    | 37 bytes |
| Instructions | 9        |

```
      00 01 02 03 04 05 06 07  08 09 0A 0B 0C 0D 0E 0F
      -- -- -- -- -- -- -- --  -- -- -- -- -- -- -- --
0040:                                               4A                 J
0050: F0 FF FF 7F F8 FF FF 7F  1E F0 FF FF 7F 6F 70 66  .............opf
0060: 04 80 F8 FF FF 7F F8 FF  FF 7F 74 6C 6B 30 1D 07  ..........tlk0..
0070: 80 23 21 00                                       .#!.            
```

#### Opcodes

```
  0: 0x004F [0x4A] LocalPlayer looks at EventEntity
  1: 0x0058 [0x1E] EventEntity looks at LocalPlayer and starts talking
  2: 0x005D [0x6F] WAIT_FRAME_DELAY: Yield until WaitTime reaches zero
  3: 0x005E [0x70] WAIT_ENTITY_RENDER_FLAG: Wait while EventEntity->Render.Flags3 bit 2 is set (cancel turn if not)
  4: 0x005F [0x66] LOAD_EXT_SCHEDULER_MAIN: Load scheduler "tlk0" with entities [EventEntity, EventEntity], work=50*
  5: 0x006E [0x1D] PRINT_EVENT_MESSAGE(message_id=10056*)
    → "Welcome back! The ambassador has returned, and wants to see you. He's in his office."
  6: 0x0071 [0x23] WAIT_FOR_DIALOG_INTERACTION
  7: 0x0072 [0x21] END_EVENT
  8: 0x0073 [0x00] END_REQSTACK()
```

### Event 54

#### Metadata

| Field        | Value    |
|--------------|----------|
| Entrypoint   | 0x0074   |
| Data Size    | 37 bytes |
| Instructions | 9        |

```
      00 01 02 03 04 05 06 07  08 09 0A 0B 0C 0D 0E 0F
      -- -- -- -- -- -- -- --  -- -- -- -- -- -- -- --
0070:             4A F0 FF FF  7F F8 FF FF 7F 1E F0 FF      J...........
0080: FF 7F 6F 70 66 04 80 F8  FF FF 7F F8 FF FF 7F 74  ..opf..........t
0090: 6C 6B 30 1D 08 80 23 21  00                       lk0...#!.       
```

#### Opcodes

```
  0: 0x0074 [0x4A] LocalPlayer looks at EventEntity
  1: 0x007D [0x1E] EventEntity looks at LocalPlayer and starts talking
  2: 0x0082 [0x6F] WAIT_FRAME_DELAY: Yield until WaitTime reaches zero
  3: 0x0083 [0x70] WAIT_ENTITY_RENDER_FLAG: Wait while EventEntity->Render.Flags3 bit 2 is set (cancel turn if not)
  4: 0x0084 [0x66] LOAD_EXT_SCHEDULER_MAIN: Load scheduler "tlk0" with entities [EventEntity, EventEntity], work=50*
  5: 0x0093 [0x1D] PRINT_EVENT_MESSAGE(message_id=10077*)
    → "For now, we need your help in the conquest. We want to bring all of Jeuno's outlying regions under Windurst's umbrella."
  6: 0x0096 [0x23] WAIT_FOR_DIALOG_INTERACTION
  7: 0x0097 [0x21] END_EVENT
  8: 0x0098 [0x00] END_REQSTACK()
```

### Event 53

#### Metadata

| Field        | Value    |
|--------------|----------|
| Entrypoint   | 0x0099   |
| Data Size    | 37 bytes |
| Instructions | 9        |

```
      00 01 02 03 04 05 06 07  08 09 0A 0B 0C 0D 0E 0F
      -- -- -- -- -- -- -- --  -- -- -- -- -- -- -- --
0090:                             4A F0 FF FF 7F F8 FF           J......
00A0: FF 7F 1E F0 FF FF 7F 6F  70 66 04 80 F8 FF FF 7F  .......opf......
00B0: F8 FF FF 7F 74 6C 6B 30  1D 09 80 23 21 00        ....tlk0...#!.  
```

#### Opcodes

```
  0: 0x0099 [0x4A] LocalPlayer looks at EventEntity
  1: 0x00A2 [0x1E] EventEntity looks at LocalPlayer and starts talking
  2: 0x00A7 [0x6F] WAIT_FRAME_DELAY: Yield until WaitTime reaches zero
  3: 0x00A8 [0x70] WAIT_ENTITY_RENDER_FLAG: Wait while EventEntity->Render.Flags3 bit 2 is set (cancel turn if not)
  4: 0x00A9 [0x66] LOAD_EXT_SCHEDULER_MAIN: Load scheduler "tlk0" with entities [EventEntity, EventEntity], work=50*
  5: 0x00B8 [0x1D] PRINT_EVENT_MESSAGE(message_id=10080*)
    → "Good day, <Player>. His Excellency needs your help. Do us a favor and come back once you've completed your current mission, okay?"
  6: 0x00BB [0x23] WAIT_FOR_DIALOG_INTERACTION
  7: 0x00BC [0x21] END_EVENT
  8: 0x00BD [0x00] END_REQSTACK()
```

### Event 50

#### Metadata

| Field        | Value    |
|--------------|----------|
| Entrypoint   | 0x00BE   |
| Data Size    | 37 bytes |
| Instructions | 9        |

```
      00 01 02 03 04 05 06 07  08 09 0A 0B 0C 0D 0E 0F
      -- -- -- -- -- -- -- --  -- -- -- -- -- -- -- --
00B0:                                            4A F0                J.
00C0: FF FF 7F F8 FF FF 7F 1E  F0 FF FF 7F 6F 70 66 04  ............opf.
00D0: 80 F8 FF FF 7F F8 FF FF  7F 74 6C 6B 30 1D 0A 80  .........tlk0...
00E0: 23 21 00                                          #!.             
```

#### Opcodes

```
  0: 0x00BE [0x4A] LocalPlayer looks at EventEntity
  1: 0x00C7 [0x1E] EventEntity looks at LocalPlayer and starts talking
  2: 0x00CC [0x6F] WAIT_FRAME_DELAY: Yield until WaitTime reaches zero
  3: 0x00CD [0x70] WAIT_ENTITY_RENDER_FLAG: Wait while EventEntity->Render.Flags3 bit 2 is set (cancel turn if not)
  4: 0x00CE [0x66] LOAD_EXT_SCHEDULER_MAIN: Load scheduler "tlk0" with entities [EventEntity, EventEntity], work=50*
  5: 0x00DD [0x1D] PRINT_EVENT_MESSAGE(message_id=10083*)
    → "His Excellency seeks your help in something important. Best head into the rear chamber."
  6: 0x00E0 [0x23] WAIT_FOR_DIALOG_INTERACTION
  7: 0x00E1 [0x21] END_EVENT
  8: 0x00E2 [0x00] END_REQSTACK()
```

### Event 131

#### Metadata

| Field        | Value   |
|--------------|---------|
| Entrypoint   | 0x00E3  |
| Data Size    | 1 bytes |
| Instructions | 1       |

```
      00 01 02 03 04 05 06 07  08 09 0A 0B 0C 0D 0E 0F
      -- -- -- -- -- -- -- --  -- -- -- -- -- -- -- --
00E0:          00                                          .            
```

#### Opcodes

```
  0: 0x00E3 [0x00] END_REQSTACK()
```

### Event 134

#### Metadata

| Field        | Value    |
|--------------|----------|
| Entrypoint   | 0x00E4   |
| Data Size    | 37 bytes |
| Instructions | 9        |

```
      00 01 02 03 04 05 06 07  08 09 0A 0B 0C 0D 0E 0F
      -- -- -- -- -- -- -- --  -- -- -- -- -- -- -- --
00E0:             4A F0 FF FF  7F F8 FF FF 7F 1E F0 FF      J...........
00F0: FF 7F 6F 70 66 04 80 F8  FF FF 7F F8 FF FF 7F 74  ..opf..........t
0100: 6C 6B 30 1D 0B 80 23 21  00                       lk0...#!.       
```

#### Opcodes

```
  0: 0x00E4 [0x4A] LocalPlayer looks at EventEntity
  1: 0x00ED [0x1E] EventEntity looks at LocalPlayer and starts talking
  2: 0x00F2 [0x6F] WAIT_FRAME_DELAY: Yield until WaitTime reaches zero
  3: 0x00F3 [0x70] WAIT_ENTITY_RENDER_FLAG: Wait while EventEntity->Render.Flags3 bit 2 is set (cancel turn if not)
  4: 0x00F4 [0x66] LOAD_EXT_SCHEDULER_MAIN: Load scheduler "tlk0" with entities [EventEntity, EventEntity], work=50*
  5: 0x0103 [0x1D] PRINT_EVENT_MESSAGE(message_id=10117*)
    → "Go, and the winds of fortune will follow you. You mustn't keep the archduke waiting!"
  6: 0x0106 [0x23] WAIT_FOR_DIALOG_INTERACTION
  7: 0x0107 [0x21] END_EVENT
  8: 0x0108 [0x00] END_REQSTACK()
```

### Event 137

#### Metadata

| Field        | Value    |
|--------------|----------|
| Entrypoint   | 0x0109   |
| Data Size    | 41 bytes |
| Instructions | 11       |

```
      00 01 02 03 04 05 06 07  08 09 0A 0B 0C 0D 0E 0F
      -- -- -- -- -- -- -- --  -- -- -- -- -- -- -- --
0100:                             4A F0 FF FF 7F F8 FF           J......
0110: FF 7F 1E F0 FF FF 7F 6F  70 66 04 80 F8 FF FF 7F  .......opf......
0120: F8 FF FF 7F 74 6C 6B 30  1D 0C 80 23 1D 0D 80 23  ....tlk0...#...#
0130: 21 00                                             !.              
```

#### Opcodes

```
  0: 0x0109 [0x4A] LocalPlayer looks at EventEntity
  1: 0x0112 [0x1E] EventEntity looks at LocalPlayer and starts talking
  2: 0x0117 [0x6F] WAIT_FRAME_DELAY: Yield until WaitTime reaches zero
  3: 0x0118 [0x70] WAIT_ENTITY_RENDER_FLAG: Wait while EventEntity->Render.Flags3 bit 2 is set (cancel turn if not)
  4: 0x0119 [0x66] LOAD_EXT_SCHEDULER_MAIN: Load scheduler "tlk0" with entities [EventEntity, EventEntity], work=50*
  5: 0x0128 [0x1D] PRINT_EVENT_MESSAGE(message_id=10144*)
    → "So, you saw the archduke... Well, how did it go?"
  6: 0x012B [0x23] WAIT_FOR_DIALOG_INTERACTION
  7: 0x012C [0x1D] PRINT_EVENT_MESSAGE(message_id=10145*)
    → "He wants you to gather magicite? I can't offer any advice on those. Maybe you can try learning about Davoi, Beadeaux, and Castle Oztroja..."
  8: 0x012F [0x23] WAIT_FOR_DIALOG_INTERACTION
  9: 0x0130 [0x21] END_EVENT
 10: 0x0131 [0x00] END_REQSTACK()
```

### Event 37

#### Metadata

| Field        | Value     |
|--------------|-----------|
| Entrypoint   | 0x0132    |
| Data Size    | 125 bytes |
| Instructions | 22        |

```
      00 01 02 03 04 05 06 07  08 09 0A 0B 0C 0D 0E 0F
      -- -- -- -- -- -- -- --  -- -- -- -- -- -- -- --
0130:       20 01 42 1E F0 FF  FF 7F 6F 76 F0 FF FF 7F     .B.....ov....
0140: 1D 0E 80 23 66 0F 80 F8  FF FF 7F F8 FF FF 7F 6B  ...#f..........k
0150: 77 69 31 1C 10 80 7D 11  80 45 12 80 F0 FF FF 7F  wi1...}..E......
0160: F0 FF FF 7F 71 73 74 63  13 80 1C 14 80 66 0F 80  ....qstc.....f..
0170: F8 FF FF 7F F8 FF FF 7F  6B 77 69 32 53 F8 FF FF  ........kwi2S...
0180: 7F F8 FF FF 7F 6B 77 69  32 1D 15 80 23 66 04 80  .....kwi2...#f..
0190: F8 FF FF 7F F8 FF FF 7F  70 61 73 30 53 F8 FF FF  ........pas0S...
01A0: 7F F8 FF FF 7F 70 61 73  30 1D 16 80 23 21 00     .....pas0...#!. 
```

#### Opcodes

```
  0: 0x0132 [0x20] SET_CLI_EVENT_UC_FLAG: Lock player control
  1: 0x0134 [0x42] SET_CLI_EVENT_CANCEL_DATA()
  2: 0x0135 [0x1E] EventEntity looks at LocalPlayer and starts talking
  3: 0x013A [0x6F] WAIT_FRAME_DELAY: Yield until WaitTime reaches zero
  4: 0x013B [0x76] CHECK_ENTITY_RENDER_FLAGS: Wait until LocalPlayer Render.Flags0 and Render.Flags3 conditions are met
  5: 0x0140 [0x1D] PRINT_EVENT_MESSAGE(message_id=10185*)
    → "There you are! Great work, <Player>!"
  6: 0x0143 [0x23] WAIT_FOR_DIALOG_INTERACTION
  7: 0x0144 [0x66] LOAD_EXT_SCHEDULER_MAIN: Load scheduler "kwi1" with entities [EventEntity, EventEntity], work=53*
  8: 0x0153 [0x1C] WAIT(90* ticks)
  9: 0x0156 [0x7D] LOAD_START_SCHEDULER_PLAYER: Load scheduler with animation_id 32785
 10: 0x0159 [0x45] LOAD_SCHEDULED_TASK: Load scheduler "qstc" with entities [LocalPlayer, LocalPlayer], work=[201*, 0*]
 11: 0x016A [0x1C] WAIT(210* ticks)
 12: 0x016D [0x66] LOAD_EXT_SCHEDULER_MAIN: Load scheduler "kwi2" with entities [EventEntity, EventEntity], work=53*
 13: 0x017C [0x53] WAIT_SCHEDULER_TASK: Wait for scheduler "kwi2" with entities [EventEntity, EventEntity]
 14: 0x0189 [0x1D] PRINT_EVENT_MESSAGE(message_id=10186*)
    → "I'm sorry, but you've got no time to rest! Our beloved Windurst is in grave danger!"
 15: 0x018C [0x23] WAIT_FOR_DIALOG_INTERACTION
 16: 0x018D [0x66] LOAD_EXT_SCHEDULER_MAIN: Load scheduler "pas0" with entities [EventEntity, EventEntity], work=50*
 17: 0x019C [0x53] WAIT_SCHEDULER_TASK: Wait for scheduler "pas0" with entities [EventEntity, EventEntity]
 18: 0x01A9 [0x1D] PRINT_EVENT_MESSAGE(message_id=10187*)
    → "With the ambassador away, I want you to take this back to the motherland. Take the airship; it's faster. I'll find out what I can here."
 19: 0x01AC [0x23] WAIT_FOR_DIALOG_INTERACTION
 20: 0x01AD [0x21] END_EVENT
 21: 0x01AE [0x00] END_REQSTACK()
```

### Event 57

#### Metadata

| Field        | Value    |
|--------------|----------|
| Entrypoint   | 0x01AF   |
| Data Size    | 37 bytes |
| Instructions | 9        |

```
      00 01 02 03 04 05 06 07  08 09 0A 0B 0C 0D 0E 0F
      -- -- -- -- -- -- -- --  -- -- -- -- -- -- -- --
01A0:                                               4A                 J
01B0: F0 FF FF 7F F8 FF FF 7F  1E F0 FF FF 7F 6F 70 66  .............opf
01C0: 04 80 F8 FF FF 7F F8 FF  FF 7F 74 6C 6B 30 1D 17  ..........tlk0..
01D0: 80 23 21 00                                       .#!.            
```

#### Opcodes

```
  0: 0x01AF [0x4A] LocalPlayer looks at EventEntity
  1: 0x01B8 [0x1E] EventEntity looks at LocalPlayer and starts talking
  2: 0x01BD [0x6F] WAIT_FRAME_DELAY: Yield until WaitTime reaches zero
  3: 0x01BE [0x70] WAIT_ENTITY_RENDER_FLAG: Wait while EventEntity->Render.Flags3 bit 2 is set (cancel turn if not)
  4: 0x01BF [0x66] LOAD_EXT_SCHEDULER_MAIN: Load scheduler "tlk0" with entities [EventEntity, EventEntity], work=50*
  5: 0x01CE [0x1D] PRINT_EVENT_MESSAGE(message_id=10188*)
    → "Hurry-scurry! Take the airship back to Windurst! I'll find out what I can here."
  6: 0x01D1 [0x23] WAIT_FOR_DIALOG_INTERACTION
  7: 0x01D2 [0x21] END_EVENT
  8: 0x01D3 [0x00] END_REQSTACK()
```

### Event 107

#### Metadata

| Field        | Value    |
|--------------|----------|
| Entrypoint   | 0x01D4   |
| Data Size    | 37 bytes |
| Instructions | 9        |

```
      00 01 02 03 04 05 06 07  08 09 0A 0B 0C 0D 0E 0F
      -- -- -- -- -- -- -- --  -- -- -- -- -- -- -- --
01D0:             4A F0 FF FF  7F F8 FF FF 7F 1E F0 FF      J...........
01E0: FF 7F 6F 70 66 04 80 F8  FF FF 7F F8 FF FF 7F 74  ..opf..........t
01F0: 6C 6B 30 1D 18 80 23 21  00                       lk0...#!.       
```

#### Opcodes

```
  0: 0x01D4 [0x4A] LocalPlayer looks at EventEntity
  1: 0x01DD [0x1E] EventEntity looks at LocalPlayer and starts talking
  2: 0x01E2 [0x6F] WAIT_FRAME_DELAY: Yield until WaitTime reaches zero
  3: 0x01E3 [0x70] WAIT_ENTITY_RENDER_FLAG: Wait while EventEntity->Render.Flags3 bit 2 is set (cancel turn if not)
  4: 0x01E4 [0x66] LOAD_EXT_SCHEDULER_MAIN: Load scheduler "tlk0" with entities [EventEntity, EventEntity], work=50*
  5: 0x01F3 [0x1D] PRINT_EVENT_MESSAGE(message_id=10189*)
    → "As long as the Star Sibyl is safe, then all is well. We don't have any tasks for you here, so continue your service to your country."
  6: 0x01F6 [0x23] WAIT_FOR_DIALOG_INTERACTION
  7: 0x01F7 [0x21] END_EVENT
  8: 0x01F8 [0x00] END_REQSTACK()
```

### Event 65535.1

#### Metadata

| Field        | Value    |
|--------------|----------|
| Entrypoint   | 0x01F9   |
| Data Size    | 34 bytes |
| Instructions | 9        |

```
      00 01 02 03 04 05 06 07  08 09 0A 0B 0C 0D 0E 0F
      -- -- -- -- -- -- -- --  -- -- -- -- -- -- -- --
01F0:                             1C 19 80 22 00 32 00           ...".2.
0200: 80 37 1A 80 1B 80 1C 80  1D 80 1F 00 1E 80 1F 80  .7..............
0210: 1C 80 1F 01 6F 1E F0 FF  FF 7F 00                 ....o......     
```

#### Opcodes

```
  0: 0x01F9 [0x1C] WAIT(300* ticks)
  1: 0x01FC [0x22] ENTITY_HIDE_FLAG(enabled=0x00)
  2: 0x01FE [0x32] ExtData[1]->MainSpeed = 13* * 0.1
  3: 0x0201 [0x37] UPDATE_EVENT_POSITION_AND_DIR: x=32.083*, z=-19.731*, y=8.999*, direction=188.0°*
  4: 0x020A [0x1F] MOVE_ENTITY: EventEntity moves to X=34.543*, Z=-14.855*, Y=8.999*
  5: 0x0212 [0x1F] MOVE_ENTITY: Update entity position (mode=1)
  6: 0x0214 [0x6F] WAIT_FRAME_DELAY: Yield until WaitTime reaches zero
  7: 0x0215 [0x1E] EventEntity looks at LocalPlayer and starts talking
  8: 0x021A [0x00] END_REQSTACK()
```

### Event 65535.2

#### Metadata

| Field        | Value    |
|--------------|----------|
| Entrypoint   | 0x021B   |
| Data Size    | 19 bytes |
| Instructions | 3        |

```
      00 01 02 03 04 05 06 07  08 09 0A 0B 0C 0D 0E 0F
      -- -- -- -- -- -- -- --  -- -- -- -- -- -- -- --
0210:                                   66 04 80 F8 FF             f....
0220: FF 7F F8 FF FF 7F 74 6C  6B 30 1C 20 80 00        ......tlk0. ..  
```

#### Opcodes

```
  0: 0x021B [0x66] LOAD_EXT_SCHEDULER_MAIN: Load scheduler "tlk0" with entities [EventEntity, EventEntity], work=50*
  1: 0x022A [0x1C] WAIT(60* ticks)
  2: 0x022D [0x00] END_REQSTACK()
```

### Event 65535.3

#### Metadata

| Field        | Value    |
|--------------|----------|
| Entrypoint   | 0x022E   |
| Data Size    | 29 bytes |
| Instructions | 3        |

```
      00 01 02 03 04 05 06 07  08 09 0A 0B 0C 0D 0E 0F
      -- -- -- -- -- -- -- --  -- -- -- -- -- -- -- --
0220:                                            66 04                f.
0230: 80 F8 FF FF 7F F8 FF FF  7F 74 6C 6B 32 53 F8 FF  .........tlk2S..
0240: FF 7F F8 FF FF 7F 74 6C  6B 32 00                 ......tlk2.     
```

#### Opcodes

```
  0: 0x022E [0x66] LOAD_EXT_SCHEDULER_MAIN: Load scheduler "tlk2" with entities [EventEntity, EventEntity], work=50*
  1: 0x023D [0x53] WAIT_SCHEDULER_TASK: Wait for scheduler "tlk2" with entities [EventEntity, EventEntity]
  2: 0x024A [0x00] END_REQSTACK()
```

### Event 65535.4

#### Metadata

| Field        | Value    |
|--------------|----------|
| Entrypoint   | 0x024B   |
| Data Size    | 19 bytes |
| Instructions | 3        |

```
      00 01 02 03 04 05 06 07  08 09 0A 0B 0C 0D 0E 0F
      -- -- -- -- -- -- -- --  -- -- -- -- -- -- -- --
0240:                                   66 04 80 F8 FF             f....
0250: FF 7F F8 FF FF 7F 74 68  6B 31 1C 20 80 00        ......thk1. ..  
```

#### Opcodes

```
  0: 0x024B [0x66] LOAD_EXT_SCHEDULER_MAIN: Load scheduler "thk1" with entities [EventEntity, EventEntity], work=50*
  1: 0x025A [0x1C] WAIT(60* ticks)
  2: 0x025D [0x00] END_REQSTACK()
```

### Event 65535.5

#### Metadata

| Field        | Value    |
|--------------|----------|
| Entrypoint   | 0x025E   |
| Data Size    | 29 bytes |
| Instructions | 3        |

```
      00 01 02 03 04 05 06 07  08 09 0A 0B 0C 0D 0E 0F
      -- -- -- -- -- -- -- --  -- -- -- -- -- -- -- --
0250:                                            66 04                f.
0260: 80 F8 FF FF 7F F8 FF FF  7F 74 68 6B 32 53 F8 FF  .........thk2S..
0270: FF 7F F8 FF FF 7F 74 68  6B 32 00                 ......thk2.     
```

#### Opcodes

```
  0: 0x025E [0x66] LOAD_EXT_SCHEDULER_MAIN: Load scheduler "thk2" with entities [EventEntity, EventEntity], work=50*
  1: 0x026D [0x53] WAIT_SCHEDULER_TASK: Wait for scheduler "thk2" with entities [EventEntity, EventEntity]
  2: 0x027A [0x00] END_REQSTACK()
```

### Event 65535.6

#### Metadata

| Field        | Value    |
|--------------|----------|
| Entrypoint   | 0x027B   |
| Data Size    | 29 bytes |
| Instructions | 3        |

```
      00 01 02 03 04 05 06 07  08 09 0A 0B 0C 0D 0E 0F
      -- -- -- -- -- -- -- --  -- -- -- -- -- -- -- --
0270:                                   66 04 80 F8 FF             f....
0280: FF 7F F8 FF FF 7F 70 61  73 30 53 F8 FF FF 7F F8  ......pas0S.....
0290: FF FF 7F 70 61 73 30 00                           ...pas0.        
```

#### Opcodes

```
  0: 0x027B [0x66] LOAD_EXT_SCHEDULER_MAIN: Load scheduler "pas0" with entities [EventEntity, EventEntity], work=50*
  1: 0x028A [0x53] WAIT_SCHEDULER_TASK: Wait for scheduler "pas0" with entities [EventEntity, EventEntity]
  2: 0x0297 [0x00] END_REQSTACK()
```

### Event 65535.7

#### Metadata

| Field        | Value   |
|--------------|---------|
| Entrypoint   | 0x0298  |
| Data Size    | 9 bytes |
| Instructions | 3       |

```
      00 01 02 03 04 05 06 07  08 09 0A 0B 0C 0D 0E 0F
      -- -- -- -- -- -- -- --  -- -- -- -- -- -- -- --
0290:                          5E 69 64 6C 30 1C 20 80          ^idl0. .
02A0: 00                                                .               
```

#### Opcodes

```
  0: 0x0298 [0x5E] EventEntity goes idle (kills current action) (animation: "idl0")
  1: 0x029D [0x1C] WAIT(60* ticks)
  2: 0x02A0 [0x00] END_REQSTACK()
```

### Event 65535.8

#### Metadata

| Field        | Value   |
|--------------|---------|
| Entrypoint   | 0x02A1  |
| Data Size    | 1 bytes |
| Instructions | 1       |

```
      00 01 02 03 04 05 06 07  08 09 0A 0B 0C 0D 0E 0F
      -- -- -- -- -- -- -- --  -- -- -- -- -- -- -- --
02A0:    00                                              .              
```

#### Opcodes

```
  0: 0x02A1 [0x00] END_REQSTACK()
```
