# 17772690 - DoorAudience Chamber

## Common Data

| Field            | Value                     |
|------------------|---------------------------|
| Zone             | Ru'Lude Gardens (ID: 243) |
| Block Size       | 2888 bytes                |
| Total Events     | 25                        |
| References Count | 70                        |

## List of Events

| Event ID                 | Entrypoint   |   Size |   Instructions |
|--------------------------|--------------|--------|----------------|
| [65535](#event-65535)    | 0x0000       |      1 |              1 |
| [65](#event-65)          | 0x0001       |      1 |              1 |
| [58](#event-58)          | 0x0002       |      1 |              1 |
| [65535.1](#event-655351) | 0x0003       |      2 |              2 |
| [65535.2](#event-655352) | 0x0005       |      2 |              2 |
| [138](#event-138)        | 0x0007       |     68 |             15 |
| [128](#event-128)        | 0x004B       |    933 |            138 |
| [60](#event-60)          | 0x03F0       |   1465 |            200 |
| [65535.3](#event-655353) | 0x09A9       |      2 |              2 |
| [65535.4](#event-655354) | 0x09AB       |      2 |              2 |
| [10050](#event-10050)    | 0x09AD       |      1 |              1 |
| [122](#event-122)        | 0x09AE       |      1 |              1 |
| [65535.5](#event-655355) | 0x09AF       |      1 |              1 |
| [142](#event-142)        | 0x09B0       |      1 |              1 |
| [143](#event-143)        | 0x09B1       |      1 |              1 |
| [161](#event-161)        | 0x09B2       |      1 |              1 |
| [162](#event-162)        | 0x09B3       |      1 |              1 |
| [123](#event-123)        | 0x09B4       |      1 |              1 |
| [10115](#event-10115)    | 0x09B5       |      1 |              1 |
| [10116](#event-10116)    | 0x09B6       |      1 |              1 |
| [10188](#event-10188)    | 0x09B7       |      1 |              1 |
| [10189](#event-10189)    | 0x09B8       |      1 |              1 |
| [10190](#event-10190)    | 0x09B9       |      1 |              1 |
| [10200](#event-10200)    | 0x09BA       |      1 |              1 |
| [10208](#event-10208)    | 0x09BB       |      1 |              1 |

## DAT References (imed_data)

|   Index | Hex Value   |   Dec Value |
|---------|-------------|-------------|
|       0 | 0x0038      |          56 |
|       1 | 0x0000      |           0 |
|       2 | 0x27CE      |       10190 |
|       3 | 0x27D0      |       10192 |
|       4 | 0x27CF      |       10191 |
|       5 | 0x0008      |           8 |
|       6 | 0x00C8      |         200 |
|       7 | 0x01B5      |         437 |
|       8 | 0x0003      |           3 |
|       9 | 0x008F      |         143 |
|      10 | 0x00B4      |         180 |
|      11 | 0x278A      |       10122 |
|      12 | 0x278B      |       10123 |
|      13 | 0x278C      |       10124 |
|      14 | 0x000F      |          15 |
|      15 | 0x278D      |       10125 |
|      16 | 0x001E      |          30 |
|      17 | 0x278E      |       10126 |
|      18 | 0x278F      |       10127 |
|      19 | 0x2790      |       10128 |
|      20 | 0x2791      |       10129 |
|      21 | 0x2792      |       10130 |
|      22 | 0x2793      |       10131 |
|      23 | 0x2794      |       10132 |
|      24 | 0x2795      |       10133 |
|      25 | 0x2796      |       10134 |
|      26 | 0x2797      |       10135 |
|      27 | 0x003C      |          60 |
|      28 | 0x0400      |        1024 |
|      29 | 0x005A      |          90 |
|      30 | 0x2798      |       10136 |
|      31 | 0x2799      |       10137 |
|      32 | 0x279A      |       10138 |
|      33 | 0x279B      |       10139 |
|      34 | 0x0096      |         150 |
|      35 | 0x0078      |         120 |
|      36 | 0x0075      |         117 |
|      37 | 0x0004      |           4 |
|      38 | 0x0005      |           5 |
|      39 | 0x0006      |           6 |
|      40 | 0x27A2      |       10146 |
|      41 | 0x27A3      |       10147 |
|      42 | 0x27A4      |       10148 |
|      43 | 0x27A5      |       10149 |
|      44 | 0x27A6      |       10150 |
|      45 | 0x27A7      |       10151 |
|      46 | 0x27A8      |       10152 |
|      47 | 0x27A9      |       10153 |
|      48 | 0x27AA      |       10154 |
|      49 | 0x27AB      |       10155 |
|      50 | 0x27AC      |       10156 |
|      51 | 0x27AD      |       10157 |
|      52 | 0x27AE      |       10158 |
|      53 | 0x27AF      |       10159 |
|      54 | 0x27B0      |       10160 |
|      55 | 0x27B1      |       10161 |
|      56 | 0x27B2      |       10162 |
|      57 | 0x27B3      |       10163 |
|      58 | 0x0001      |           1 |
|      59 | 0x27B4      |       10164 |
|      60 | 0x27B5      |       10165 |
|      61 | 0x27B6      |       10166 |
|      62 | 0x27B7      |       10167 |
|      63 | 0x27B8      |       10168 |
|      64 | 0x27B9      |       10169 |
|      65 | 0x27BA      |       10170 |
|      66 | 0x27BB      |       10171 |
|      67 | 0x27BC      |       10172 |
|      68 | 0x27BD      |       10173 |
|      69 | 0x27BE      |       10174 |

## Events

### Event 65535

#### Metadata

| Field        | Value   |
|--------------|---------|
| Entrypoint   | 0x0000  |
| Data Size    | 1 bytes |
| Instructions | 1       |

```
      00 01 02 03 04 05 06 07  08 09 0A 0B 0C 0D 0E 0F
      -- -- -- -- -- -- -- --  -- -- -- -- -- -- -- --
0000: 00                                                .               
```

#### Opcodes

```
  0: 0x0000 [0x00] END_REQSTACK()
```

### Event 65

#### Metadata

| Field        | Value   |
|--------------|---------|
| Entrypoint   | 0x0001  |
| Data Size    | 1 bytes |
| Instructions | 1       |

```
      00 01 02 03 04 05 06 07  08 09 0A 0B 0C 0D 0E 0F
      -- -- -- -- -- -- -- --  -- -- -- -- -- -- -- --
0000:    00                                              .              
```

#### Opcodes

```
  0: 0x0001 [0x00] END_REQSTACK()
```

### Event 58

#### Metadata

| Field        | Value   |
|--------------|---------|
| Entrypoint   | 0x0002  |
| Data Size    | 1 bytes |
| Instructions | 1       |

```
      00 01 02 03 04 05 06 07  08 09 0A 0B 0C 0D 0E 0F
      -- -- -- -- -- -- -- --  -- -- -- -- -- -- -- --
0000:       00                                            .             
```

#### Opcodes

```
  0: 0x0002 [0x00] END_REQSTACK()
```

### Event 65535.1

#### Metadata

| Field        | Value   |
|--------------|---------|
| Entrypoint   | 0x0003  |
| Data Size    | 2 bytes |
| Instructions | 2       |

```
      00 01 02 03 04 05 06 07  08 09 0A 0B 0C 0D 0E 0F
      -- -- -- -- -- -- -- --  -- -- -- -- -- -- -- --
0000:          4C 00                                       L.           
```

#### Opcodes

```
  0: 0x0003 [0x4C] EventEntity->StatusEvent = 8 // Open door
  1: 0x0004 [0x00] END_REQSTACK()
```

### Event 65535.2

#### Metadata

| Field        | Value   |
|--------------|---------|
| Entrypoint   | 0x0005  |
| Data Size    | 2 bytes |
| Instructions | 2       |

```
      00 01 02 03 04 05 06 07  08 09 0A 0B 0C 0D 0E 0F
      -- -- -- -- -- -- -- --  -- -- -- -- -- -- -- --
0000:                4D 00                                   M.         
```

#### Opcodes

```
  0: 0x0005 [0x4D] EventEntity->StatusEvent = 9 // Close door
  1: 0x0006 [0x00] END_REQSTACK()
```

### Event 138

#### Metadata

| Field        | Value    |
|--------------|----------|
| Entrypoint   | 0x0007   |
| Data Size    | 68 bytes |
| Instructions | 15       |

```
      00 01 02 03 04 05 06 07  08 09 0A 0B 0C 0D 0E 0F
      -- -- -- -- -- -- -- --  -- -- -- -- -- -- -- --
0000:                      4A  0D 30 0F 01 F0 FF FF 7F         J.0......
0010: 4A 0E 30 0F 01 F0 FF FF  7F 03 09 10 00 80 02 02  J.0.............
0020: 10 01 80 00 39 00 2B 0D  30 0F 01 02 80 23 2B 0E  ....9.+.0....#+.
0030: 30 0F 01 03 80 23 01 49  00 2B 0D 30 0F 01 04 80  0....#.I.+.0....
0040: 23 2B 0E 30 0F 01 03 80  23 21 00                 #+.0....#!.     
```

#### Opcodes

```
  0: 0x0007 [0x4A] High Wind (ID: 17772557/0x010F300D) looks at LocalPlayer
  1: 0x0010 [0x4A] Rainhard (ID: 17772558/0x010F300E) looks at LocalPlayer
  2: 0x0019 [0x03] Work_Zone[9] = 56*
  3: 0x001E [0x02] IF !(Work_Zone[2] == 0*) GOTO 0x0039
  4: 0x0026 [0x2B] High Wind (ID: 17772557/0x010F300D) [10190*]:
    → "You don't have $6."
  5: 0x002D [0x23] WAIT_FOR_DIALOG_INTERACTION
  6: 0x002E [0x2B] Rainhard (ID: 17772558/0x010F300E) [10192*]:
    → "Stand down!"
  7: 0x0035 [0x23] WAIT_FOR_DIALOG_INTERACTION
  8: 0x0036 [0x01] GOTO 0x0049
  9: 0x0039 [0x2B] High Wind (ID: 17772557/0x010F300D) [10191*]:
    → "Nobody sees the sovereign without an appointment!"
 10: 0x0040 [0x23] WAIT_FOR_DIALOG_INTERACTION
 11: 0x0041 [0x2B] Rainhard (ID: 17772558/0x010F300E) [10192*]:
    → "Stand down!"
 12: 0x0048 [0x23] WAIT_FOR_DIALOG_INTERACTION

SUBROUTINE_0049:
 13: 0x0049 [0x21] END_EVENT
 14: 0x004A [0x00] END_REQSTACK()
```

### Event 128

#### Metadata

| Field        | Value     |
|--------------|-----------|
| Entrypoint   | 0x004B    |
| Data Size    | 933 bytes |
| Instructions | 138       |

```
      00 01 02 03 04 05 06 07  08 09 0A 0B 0C 0D 0E 0F
      -- -- -- -- -- -- -- --  -- -- -- -- -- -- -- --
0040:                                   03 09 10 05 80             .....
0050: 20 01 46 01 42 45 06 80  F0 FF FF 7F F0 FF FF 7F   .F.BE..........
0060: 66 64 6F 31 01 80 55 06  80 F0 FF FF 7F F0 FF FF  fdo1..U.........
0070: 7F 66 64 6F 31 5C 00 01  80 5C 01 01 80 75 00 07  .fdo1\...\...u..
0080: 80 75 01 38 08 80 29 03  F0 FF FF 7F 36 45 09 80  .u.8..).....6E..
0090: F0 FF FF 7F F0 FF FF 7F  63 6D 30 61 01 80 4C 45  ........cm0a..LE
00A0: 06 80 F0 FF FF 7F F0 FF  FF 7F 66 64 69 31 01 80  ..........fdi1..
00B0: 55 06 80 F0 FF FF 7F F0  FF FF 7F 66 64 69 31 45  U..........fdi1E
00C0: 09 80 F0 FF FF 7F F0 FF  FF 7F 63 6D 30 30 01 80  ..........cm00..
00D0: 27 03 F0 FF FF 7F 37 1C  0A 80 4D 29 04 F0 FF FF  '.....7...M)....
00E0: 7F 33 4A 0B 30 0F 01 F0  FF FF 7F 4A 0C 30 0F 01  .3J.0......J.0..
00F0: F0 FF FF 7F 55 09 80 F0  FF FF 7F F0 FF FF 7F 63  ....U..........c
0100: 6D 30 30 2B 09 30 0F 01  0B 80 23 29 03 09 30 0F  m00+.0....#)..0.
0110: 01 05 45 09 80 F0 FF FF  7F F0 FF FF 7F 63 6D 30  ..E..........cm0
0120: 31 01 80 55 09 80 F0 FF  FF 7F F0 FF FF 7F 63 6D  1..U..........cm
0130: 30 31 2B 09 30 0F 01 0C  80 23 29 04 09 30 0F 01  01+.0....#)..0..
0140: 06 2B 0A 30 0F 01 0D 80  23 79 00 09 30 0F 01 0A  .+.0....#y..0...
0150: 30 0F 01 45 09 80 F0 FF  FF 7F F0 FF FF 7F 63 6D  0..E..........cm
0160: 30 32 01 80 55 09 80 F0  FF FF 7F F0 FF FF 7F 63  02..U..........c
0170: 6D 30 32 29 03 0A 30 0F  01 02 27 03 0A 30 0F 01  m02)..0...'..0..
0180: 06 1C 0E 80 45 09 80 F0  FF FF 7F F0 FF FF 7F 63  ....E..........c
0190: 6D 30 63 01 80 55 09 80  F0 FF FF 7F F0 FF FF 7F  m0c..U..........
01A0: 63 6D 30 63 2B 0A 30 0F  01 0F 80 23 27 04 0A 30  cm0c+.0....#'..0
01B0: 0F 01 07 1C 10 80 79 00  09 30 0F 01 F0 FF FF 7F  ......y..0......
01C0: 2B 09 30 0F 01 11 80 23  45 09 80 F0 FF FF 7F F0  +.0....#E.......
01D0: FF FF 7F 63 6D 30 62 01  80 55 09 80 F0 FF FF 7F  ...cm0b..U......
01E0: F0 FF FF 7F 63 6D 30 62  1C 10 80 4A F0 FF FF 7F  ....cm0b...J....
01F0: 09 30 0F 01 27 03 09 30  0F 01 05 2B 09 30 0F 01  .0..'..0...+.0..
0200: 12 80 23 29 04 09 30 0F  01 06 4A 0A 30 0F 01 09  ..#)..0...J.0...
0210: 30 0F 01 6F 76 0A 30 0F  01 27 04 0A 30 0F 01 0A  0..ov.0..'..0...
0220: 2B 0A 30 0F 01 13 80 23  27 05 0A 30 0F 01 0B 27  +.0....#'..0...'
0230: 03 09 30 0F 01 07 2B 09  30 0F 01 14 80 23 2B 09  ..0...+.0....#+.
0240: 30 0F 01 15 80 23 29 04  09 30 0F 01 08 27 03 09  0....#)..0...'..
0250: 30 0F 01 05 45 09 80 F0  FF FF 7F F0 FF FF 7F 63  0...E..........c
0260: 6D 30 64 01 80 55 09 80  F0 FF FF 7F F0 FF FF 7F  m0d..U..........
0270: 63 6D 30 64 2B 09 30 0F  01 16 80 23 2B 09 30 0F  cm0d+.0....#+.0.
0280: 01 17 80 23 29 04 09 30  0F 01 06 4A 0A 30 0F 01  ...#)..0...J.0..
0290: F0 FF FF 7F 6F 76 0A 30  0F 01 27 03 0A 30 0F 01  ....ov.0..'..0..
02A0: 0A 2B 0A 30 0F 01 18 80  23 2B 0A 30 0F 01 19 80  .+.0....#+.0....
02B0: 23 27 04 0A 30 0F 01 0B  27 03 09 30 0F 01 07 2B  #'..0...'..0...+
02C0: 09 30 0F 01 1A 80 23 29  04 09 30 0F 01 08 1C 1B  .0....#)..0.....
02D0: 80 4B F0 FF FF 7F 1C 80  6F 76 F0 FF FF 7F 27 03  .K......ov....'.
02E0: F0 FF FF 7F 3B 1C 1D 80  4A 0A 30 0F 01 09 30 0F  ....;...J.0...0.
02F0: 01 45 09 80 F0 FF FF 7F  F0 FF FF 7F 63 6D 30 33  .E..........cm03
0300: 01 80 55 09 80 F0 FF FF  7F F0 FF FF 7F 63 6D 30  ..U..........cm0
0310: 33 1C 1D 80 27 03 0B 30  0F 01 05 2B 0B 30 0F 01  3...'..0...+.0..
0320: 1E 80 23 29 04 0B 30 0F  01 0C 27 05 0B 30 0F 01  ..#)..0...'..0..
0330: 07 2B 0B 30 0F 01 1F 80  23 29 05 0B 30 0F 01 0B  .+.0....#)..0...
0340: 27 03 0B 30 0F 01 08 2B  0B 30 0F 01 20 80 23 2B  '..0...+.0.. .#+
0350: 0B 30 0F 01 21 80 23 29  04 0B 30 0F 01 0C 27 05  .0..!.#)..0...'.
0360: 0B 30 0F 01 06 4C 27 03  F0 FF FF 7F 3D 1C 22 80  .0...L'.....=.".
0370: 45 09 80 F0 FF FF 7F F0  FF FF 7F 63 6D 30 34 01  E..........cm04.
0380: 80 55 09 80 F0 FF FF 7F  F0 FF FF 7F 63 6D 30 34  .U..........cm04
0390: 1C 23 80 45 06 80 F0 FF  FF 7F F0 FF FF 7F 66 64  .#.E..........fd
03A0: 6F 32 01 80 55 06 80 F0  FF FF 7F F0 FF FF 7F 66  o2..U..........f
03B0: 64 6F 32 4C 1C 1B 80 4D  1C 1B 80 4E 01 0A 30 0F  do2L...M...N..0.
03C0: 01 4E 01 09 30 0F 01 4E  01 0B 30 0F 01 4E 01 0C  .N..0..N..0..N..
03D0: 30 0F 01 46 00 5C 00 24  80 5C 01 24 80 45 06 80  0..F.\.$.\.$.E..
03E0: F0 FF FF 7F F0 FF FF 7F  66 64 69 31 01 80 21 00  ........fdi1..!.
```

#### Opcodes

```
  0: 0x004B [0x03] Work_Zone[9] = 8*
  1: 0x0050 [0x20] SET_CLI_EVENT_UC_FLAG: Lock player control
  2: 0x0052 [0x46] CAMERA_CONTROL: Disable user control
  3: 0x0054 [0x42] SET_CLI_EVENT_CANCEL_DATA()
  4: 0x0055 [0x45] LOAD_SCHEDULED_TASK: Load scheduler "fdo1" with entities [LocalPlayer, LocalPlayer], work=[200*, 0*]
  5: 0x0066 [0x55] WAIT_LOAD_SCHEDULER: Wait for scheduler "fdo1" with entities [LocalPlayer, LocalPlayer], work=200*
  6: 0x0075 [0x5C] MUSIC_CONTROL: Set Idle (Day) music to song 0*
  7: 0x0079 [0x5C] MUSIC_CONTROL: Set Idle (Night) music to song 0*
  8: 0x007D [0x75] LOAD_ROOM(Load indoor room, room=437*)
  9: 0x0081 [0x75] LOAD_ROOM(No action)
 10: 0x0083 [0x38] SET_CLIENT_EVENT_MODE(mode=3*)
 11: 0x0086 [0x29] REQ_SET_WAIT(priority=0x03, entity_id=LocalPlayer, tag_num=0x36)
 12: 0x008D [0x45] LOAD_SCHEDULED_TASK: Load scheduler "cm0a" with entities [LocalPlayer, LocalPlayer], work=[143*, 0*]
 13: 0x009E [0x4C] EventEntity->StatusEvent = 8 // Open door
 14: 0x009F [0x45] LOAD_SCHEDULED_TASK: Load scheduler "fdi1" with entities [LocalPlayer, LocalPlayer], work=[200*, 0*]
 15: 0x00B0 [0x55] WAIT_LOAD_SCHEDULER: Wait for scheduler "fdi1" with entities [LocalPlayer, LocalPlayer], work=200*
 16: 0x00BF [0x45] LOAD_SCHEDULED_TASK: Load scheduler "cm00" with entities [LocalPlayer, LocalPlayer], work=[143*, 0*]
 17: 0x00D0 [0x27] REQ_SET(priority=0x03, entity_id=LocalPlayer, tag_num=0x37)
 18: 0x00D7 [0x1C] WAIT(180* ticks)
 19: 0x00DA [0x4D] EventEntity->StatusEvent = 9 // Close door
 20: 0x00DB [0x29] REQ_SET_WAIT(priority=0x04, entity_id=LocalPlayer, tag_num=0x33)
 21: 0x00E2 [0x4A] Mawl'gofaur (ID: 17772555/0x010F300B) looks at LocalPlayer
 22: 0x00EB [0x4A] Kareh'ayollio (ID: 17772556/0x010F300C) looks at LocalPlayer
 23: 0x00F4 [0x55] WAIT_LOAD_SCHEDULER: Wait for scheduler "cm00" with entities [LocalPlayer, LocalPlayer], work=143*
 24: 0x0103 [0x2B] Kam'lanaut (ID: 17772553/0x010F3009) [10122*]:
    → "So, you're the new attach<Player>i."
 25: 0x010A [0x23] WAIT_FOR_DIALOG_INTERACTION
 26: 0x010B [0x29] REQ_SET_WAIT(priority=0x03, entity_id=Kam'lanaut (ID: 17772553/0x010F3009), tag_num=0x05)
 27: 0x0112 [0x45] LOAD_SCHEDULED_TASK: Load scheduler "cm01" with entities [LocalPlayer, LocalPlayer], work=[143*, 0*]
 28: 0x0123 [0x55] WAIT_LOAD_SCHEDULER: Wait for scheduler "cm01" with entities [LocalPlayer, LocalPlayer], work=143*
 29: 0x0132 [0x2B] Kam'lanaut (ID: 17772553/0x010F3009) [10123*]:
    → "I am Kam'lanaut, Archduke of Jeuno. I'd like your nation's help with a certain matter."
 30: 0x0139 [0x23] WAIT_FOR_DIALOG_INTERACTION
 31: 0x013A [0x29] REQ_SET_WAIT(priority=0x04, entity_id=Kam'lanaut (ID: 17772553/0x010F3009), tag_num=0x06)
 32: 0x0141 [0x2B] Eald'narche (ID: 17772554/0x010F300A) [10124*]:
    → "Oh, a visitor?"
 33: 0x0148 [0x23] WAIT_FOR_DIALOG_INTERACTION
 34: 0x0149 [0x79] Kam'lanaut (ID: 17772553/0x010F3009) looks at Eald'narche (ID: 17772554/0x010F300A) (Basic look)
 35: 0x0153 [0x45] LOAD_SCHEDULED_TASK: Load scheduler "cm02" with entities [LocalPlayer, LocalPlayer], work=[143*, 0*]
 36: 0x0164 [0x55] WAIT_LOAD_SCHEDULER: Wait for scheduler "cm02" with entities [LocalPlayer, LocalPlayer], work=143*
 37: 0x0173 [0x29] REQ_SET_WAIT(priority=0x03, entity_id=Eald'narche (ID: 17772554/0x010F300A), tag_num=0x02)
 38: 0x017A [0x27] REQ_SET(priority=0x03, entity_id=Eald'narche (ID: 17772554/0x010F300A), tag_num=0x06)
 39: 0x0181 [0x1C] WAIT(15* ticks)
 40: 0x0184 [0x45] LOAD_SCHEDULED_TASK: Load scheduler "cm0c" with entities [LocalPlayer, LocalPlayer], work=[143*, 0*]
 41: 0x0195 [0x55] WAIT_LOAD_SCHEDULER: Wait for scheduler "cm0c" with entities [LocalPlayer, LocalPlayer], work=143*
 42: 0x01A4 [0x2B] Eald'narche (ID: 17772554/0x010F300A) [10125*]:
    → "Hello there. My name's Eald'narche. Pleased to meet ya."
 43: 0x01AB [0x23] WAIT_FOR_DIALOG_INTERACTION
 44: 0x01AC [0x27] REQ_SET(priority=0x04, entity_id=Eald'narche (ID: 17772554/0x010F300A), tag_num=0x07)
 45: 0x01B3 [0x1C] WAIT(30* ticks)
 46: 0x01B6 [0x79] Kam'lanaut (ID: 17772553/0x010F3009) looks at LocalPlayer (Basic look)
 47: 0x01C0 [0x2B] Kam'lanaut (ID: 17772553/0x010F3009) [10126*]:
    → "This is my brother. Don't let him bother you."
 48: 0x01C7 [0x23] WAIT_FOR_DIALOG_INTERACTION
 49: 0x01C8 [0x45] LOAD_SCHEDULED_TASK: Load scheduler "cm0b" with entities [LocalPlayer, LocalPlayer], work=[143*, 0*]
 50: 0x01D9 [0x55] WAIT_LOAD_SCHEDULER: Wait for scheduler "cm0b" with entities [LocalPlayer, LocalPlayer], work=143*
 51: 0x01E8 [0x1C] WAIT(30* ticks)
 52: 0x01EB [0x4A] LocalPlayer looks at Kam'lanaut (ID: 17772553/0x010F3009)
 53: 0x01F4 [0x27] REQ_SET(priority=0x03, entity_id=Kam'lanaut (ID: 17772553/0x010F3009), tag_num=0x05)
 54: 0x01FB [0x2B] Kam'lanaut (ID: 17772553/0x010F3009) [10127*]:
    → "Now, let us get down to business. I summoned you here for a certain mission. Have you heard word of the Shadow Lord?"
 55: 0x0202 [0x23] WAIT_FOR_DIALOG_INTERACTION
 56: 0x0203 [0x29] REQ_SET_WAIT(priority=0x04, entity_id=Kam'lanaut (ID: 17772553/0x010F3009), tag_num=0x06)
 57: 0x020A [0x4A] Eald'narche (ID: 17772554/0x010F300A) looks at Kam'lanaut (ID: 17772553/0x010F3009)
 58: 0x0213 [0x6F] WAIT_FRAME_DELAY: Yield until WaitTime reaches zero
 59: 0x0214 [0x76] CHECK_ENTITY_RENDER_FLAGS: Wait until Eald'narche (ID: 17772554/0x010F300A) Render.Flags0 and Render.Flags3 conditions are met
 60: 0x0219 [0x27] REQ_SET(priority=0x04, entity_id=Eald'narche (ID: 17772554/0x010F300A), tag_num=0x0A)
 61: 0x0220 [0x2B] Eald'narche (ID: 17772554/0x010F300A) [10128*]:
    → "My sources tell me that beastmen in Davoi, Beadeaux, and Castle Oztroja are conspiring to return him to Vana'diel."
 62: 0x0227 [0x23] WAIT_FOR_DIALOG_INTERACTION
 63: 0x0228 [0x27] REQ_SET(priority=0x05, entity_id=Eald'narche (ID: 17772554/0x010F300A), tag_num=0x0B)
 64: 0x022F [0x27] REQ_SET(priority=0x03, entity_id=Kam'lanaut (ID: 17772553/0x010F3009), tag_num=0x07)
 65: 0x0236 [0x2B] Kam'lanaut (ID: 17772553/0x010F3009) [10129*]:
    → "They seek to do so by harnessing the power of mysterious stones called magicite."
 66: 0x023D [0x23] WAIT_FOR_DIALOG_INTERACTION
 67: 0x023E [0x2B] Kam'lanaut (ID: 17772553/0x010F3009) [10130*]:
    → "To stop their nefarious plan, I want you to go to those three places and seize that magicite."
 68: 0x0245 [0x23] WAIT_FOR_DIALOG_INTERACTION
 69: 0x0246 [0x29] REQ_SET_WAIT(priority=0x04, entity_id=Kam'lanaut (ID: 17772553/0x010F3009), tag_num=0x08)
 70: 0x024D [0x27] REQ_SET(priority=0x03, entity_id=Kam'lanaut (ID: 17772553/0x010F3009), tag_num=0x05)
 71: 0x0254 [0x45] LOAD_SCHEDULED_TASK: Load scheduler "cm0d" with entities [LocalPlayer, LocalPlayer], work=[143*, 0*]
 72: 0x0265 [0x55] WAIT_LOAD_SCHEDULER: Wait for scheduler "cm0d" with entities [LocalPlayer, LocalPlayer], work=143*
 73: 0x0274 [0x2B] Kam'lanaut (ID: 17772553/0x010F3009) [10131*]:
    → "Of course, I intend to reward you for a task of this magnitude. I will issue $6 upon receipt of the three magicite."
 74: 0x027B [0x23] WAIT_FOR_DIALOG_INTERACTION
 75: 0x027C [0x2B] Kam'lanaut (ID: 17772553/0x010F3009) [10132*]:
    → "With it, you can swiftly travel home, or to any civilized land, for that matter."
 76: 0x0283 [0x23] WAIT_FOR_DIALOG_INTERACTION
 77: 0x0284 [0x29] REQ_SET_WAIT(priority=0x04, entity_id=Kam'lanaut (ID: 17772553/0x010F3009), tag_num=0x06)
 78: 0x028B [0x4A] Eald'narche (ID: 17772554/0x010F300A) looks at LocalPlayer
 79: 0x0294 [0x6F] WAIT_FRAME_DELAY: Yield until WaitTime reaches zero
 80: 0x0295 [0x76] CHECK_ENTITY_RENDER_FLAGS: Wait until Eald'narche (ID: 17772554/0x010F300A) Render.Flags0 and Render.Flags3 conditions are met
 81: 0x029A [0x27] REQ_SET(priority=0x03, entity_id=Eald'narche (ID: 17772554/0x010F300A), tag_num=0x0A)
 82: 0x02A1 [0x2B] Eald'narche (ID: 17772554/0x010F300A) [10133*]:
    → "So they're after magicite, are they? I wonder what this means... Take extra special care. The thought of a world under the control of the beastmen makes me shudder."
 83: 0x02A8 [0x23] WAIT_FOR_DIALOG_INTERACTION
 84: 0x02A9 [0x2B] Eald'narche (ID: 17772554/0x010F300A) [10134*]:
    → "I bet the beastmen have traps waiting. First, you've got to find out as much as you can."
 85: 0x02B0 [0x23] WAIT_FOR_DIALOG_INTERACTION
 86: 0x02B1 [0x27] REQ_SET(priority=0x04, entity_id=Eald'narche (ID: 17772554/0x010F300A), tag_num=0x0B)
 87: 0x02B8 [0x27] REQ_SET(priority=0x03, entity_id=Kam'lanaut (ID: 17772553/0x010F3009), tag_num=0x07)
 88: 0x02BF [0x2B] Kam'lanaut (ID: 17772553/0x010F3009) [10135*]:
    → "Eald'narche speaks the truth. Start by finding out what you can in town. I'm counting on you!"
 89: 0x02C6 [0x23] WAIT_FOR_DIALOG_INTERACTION
 90: 0x02C7 [0x29] REQ_SET_WAIT(priority=0x04, entity_id=Kam'lanaut (ID: 17772553/0x010F3009), tag_num=0x08)
 91: 0x02CE [0x1C] WAIT(60* ticks)
 92: 0x02D1 [0x4B] UPDATE_ENTITY_YAW(entity=LocalPlayer, yaw=5.6°*)
 93: 0x02D8 [0x6F] WAIT_FRAME_DELAY: Yield until WaitTime reaches zero
 94: 0x02D9 [0x76] CHECK_ENTITY_RENDER_FLAGS: Wait until LocalPlayer Render.Flags0 and Render.Flags3 conditions are met
 95: 0x02DE [0x27] REQ_SET(priority=0x03, entity_id=LocalPlayer, tag_num=0x3B)
 96: 0x02E5 [0x1C] WAIT(90* ticks)
 97: 0x02E8 [0x4A] Eald'narche (ID: 17772554/0x010F300A) looks at Kam'lanaut (ID: 17772553/0x010F3009)
 98: 0x02F1 [0x45] LOAD_SCHEDULED_TASK: Load scheduler "cm03" with entities [LocalPlayer, LocalPlayer], work=[143*, 0*]
 99: 0x0302 [0x55] WAIT_LOAD_SCHEDULER: Wait for scheduler "cm03" with entities [LocalPlayer, LocalPlayer], work=143*
100: 0x0311 [0x1C] WAIT(90* ticks)
101: 0x0314 [0x27] REQ_SET(priority=0x03, entity_id=Mawl'gofaur (ID: 17772555/0x010F300B), tag_num=0x05)
102: 0x031B [0x2B] Mawl'gofaur (ID: 17772555/0x010F300B) [10136*]:
    → "A moment, please."
103: 0x0322 [0x23] WAIT_FOR_DIALOG_INTERACTION
104: 0x0323 [0x29] REQ_SET_WAIT(priority=0x04, entity_id=Mawl'gofaur (ID: 17772555/0x010F300B), tag_num=0x0C)
105: 0x032A [0x27] REQ_SET(priority=0x05, entity_id=Mawl'gofaur (ID: 17772555/0x010F300B), tag_num=0x07)
106: 0x0331 [0x2B] Mawl'gofaur (ID: 17772555/0x010F300B) [10137*]:
    → "By the order of His Grace, we have decided to seek the assistance of the Tenshodo, the organization run by that Aldo fellow."
107: 0x0338 [0x23] WAIT_FOR_DIALOG_INTERACTION
108: 0x0339 [0x29] REQ_SET_WAIT(priority=0x05, entity_id=Mawl'gofaur (ID: 17772555/0x010F300B), tag_num=0x0B)
109: 0x0340 [0x27] REQ_SET(priority=0x03, entity_id=Mawl'gofaur (ID: 17772555/0x010F300B), tag_num=0x08)
110: 0x0347 [0x2B] Mawl'gofaur (ID: 17772555/0x010F300B) [10138*]:
    → "This secret dispatch outlines our wishes. Would you be so kind as to deliver it to him?"
111: 0x034E [0x23] WAIT_FOR_DIALOG_INTERACTION
112: 0x034F [0x2B] Mawl'gofaur (ID: 17772555/0x010F300B) [10139*]:
    → "He is a man of many talents. It would be wise to seek his acquaintance. Good luck!"
113: 0x0356 [0x23] WAIT_FOR_DIALOG_INTERACTION
114: 0x0357 [0x29] REQ_SET_WAIT(priority=0x04, entity_id=Mawl'gofaur (ID: 17772555/0x010F300B), tag_num=0x0C)
115: 0x035E [0x27] REQ_SET(priority=0x05, entity_id=Mawl'gofaur (ID: 17772555/0x010F300B), tag_num=0x06)
116: 0x0365 [0x4C] EventEntity->StatusEvent = 8 // Open door
117: 0x0366 [0x27] REQ_SET(priority=0x03, entity_id=LocalPlayer, tag_num=0x3D)
118: 0x036D [0x1C] WAIT(150* ticks)
119: 0x0370 [0x45] LOAD_SCHEDULED_TASK: Load scheduler "cm04" with entities [LocalPlayer, LocalPlayer], work=[143*, 0*]
120: 0x0381 [0x55] WAIT_LOAD_SCHEDULER: Wait for scheduler "cm04" with entities [LocalPlayer, LocalPlayer], work=143*
121: 0x0390 [0x1C] WAIT(120* ticks)
122: 0x0393 [0x45] LOAD_SCHEDULED_TASK: Load scheduler "fdo2" with entities [LocalPlayer, LocalPlayer], work=[200*, 0*]
123: 0x03A4 [0x55] WAIT_LOAD_SCHEDULER: Wait for scheduler "fdo2" with entities [LocalPlayer, LocalPlayer], work=200*
124: 0x03B3 [0x4C] EventEntity->StatusEvent = 8 // Open door
125: 0x03B4 [0x1C] WAIT(60* ticks)
126: 0x03B7 [0x4D] EventEntity->StatusEvent = 9 // Close door
127: 0x03B8 [0x1C] WAIT(60* ticks)
128: 0x03BB [0x4E] SET_ENTITY_HIDE_FLAG: Hide Eald'narche (ID: 17772554/0x010F300A)
129: 0x03C1 [0x4E] SET_ENTITY_HIDE_FLAG: Hide Kam'lanaut (ID: 17772553/0x010F3009)
130: 0x03C7 [0x4E] SET_ENTITY_HIDE_FLAG: Hide Mawl'gofaur (ID: 17772555/0x010F300B)
131: 0x03CD [0x4E] SET_ENTITY_HIDE_FLAG: Hide Kareh'ayollio (ID: 17772556/0x010F300C)
132: 0x03D3 [0x46] CAMERA_CONTROL: Restore default settings
133: 0x03D5 [0x5C] MUSIC_CONTROL: Set Idle (Day) music to song 117*
134: 0x03D9 [0x5C] MUSIC_CONTROL: Set Idle (Night) music to song 117*
135: 0x03DD [0x45] LOAD_SCHEDULED_TASK: Load scheduler "fdi1" with entities [LocalPlayer, LocalPlayer], work=[200*, 0*]
136: 0x03EE [0x21] END_EVENT
137: 0x03EF [0x00] END_REQSTACK()
```

### Event 60

#### Metadata

| Field        | Value      |
|--------------|------------|
| Entrypoint   | 0x03F0     |
| Data Size    | 1465 bytes |
| Instructions | 200        |

```
      00 01 02 03 04 05 06 07  08 09 0A 0B 0C 0D 0E 0F
      -- -- -- -- -- -- -- --  -- -- -- -- -- -- -- --
03F0: 03 00 00 02 10 03 09 10  05 80 03 01 00 03 10 46  ...............F
0400: 01 42 45 06 80 F0 FF FF  7F F0 FF FF 7F 66 64 6F  .BE..........fdo
0410: 31 01 80 55 06 80 F0 FF  FF 7F F0 FF FF 7F 66 64  1..U..........fd
0420: 6F 31 5C 00 01 80 5C 01  01 80 75 00 07 80 75 01  o1\...\...u...u.
0430: 38 08 80 29 03 F0 FF FF  7F 36 45 09 80 F0 FF FF  8..).....6E.....
0440: 7F F0 FF FF 7F 63 6D 34  61 01 80 55 09 80 F0 FF  .....cm4a..U....
0450: FF 7F F0 FF FF 7F 63 6D  34 61 45 06 80 F0 FF FF  ......cm4aE.....
0460: 7F F0 FF FF 7F 66 64 69  31 01 80 55 06 80 F0 FF  .....fdi1..U....
0470: FF 7F F0 FF FF 7F 66 64  69 31 4C 1C 1B 80 27 03  ......fdi1L...'.
0480: F0 FF FF 7F 38 45 06 80  F0 FF FF 7F F0 FF FF 7F  ....8E..........
0490: 66 64 6F 32 01 80 55 06  80 F0 FF FF 7F F0 FF FF  fdo2..U.........
04A0: 7F 66 64 6F 32 1C 1B 80  29 04 F0 FF FF 7F 33 29  .fdo2...).....3)
04B0: 04 F0 FF FF 7F 39 4A F0  FF FF 7F 09 30 0F 01 62  .....9J.....0..b
04C0: 25 80 25 30 0F 01 25 30  0F 01 6D 61 69 6E 01 80  %.%0..%0..main..
04D0: 62 26 80 26 30 0F 01 26  30 0F 01 6D 61 69 6E 01  b&.&0..&0..main.
04E0: 80 62 27 80 27 30 0F 01  27 30 0F 01 6D 61 69 6E  .b'.'0..'0..main
04F0: 01 80 45 09 80 F0 FF FF  7F F0 FF FF 7F 63 6D 34  ..E..........cm4
0500: 30 01 80 55 09 80 F0 FF  FF 7F F0 FF FF 7F 63 6D  0..U..........cm
0510: 34 30 45 06 80 F0 FF FF  7F F0 FF FF 7F 66 64 69  40E..........fdi
0520: 32 01 80 55 06 80 F0 FF  FF 7F F0 FF FF 7F 66 64  2..U..........fd
0530: 69 32 1C 1B 80 27 03 09  30 0F 01 05 2B 09 30 0F  i2...'..0...+.0.
0540: 01 28 80 23 2B 09 30 0F  01 29 80 23 2B 09 30 0F  .(.#+.0..).#+.0.
0550: 01 2A 80 23 29 04 09 30  0F 01 06 45 09 80 F0 FF  .*.#)..0...E....
0560: FF 7F F0 FF FF 7F 63 6D  34 66 01 80 29 03 09 30  ......cm4f..)..0
0570: 0F 01 09 02 00 00 01 80  00 86 05 2B 09 30 0F 01  ...........+.0..
0580: 2B 80 23 01 8E 05 2B 09  30 0F 01 2C 80 23 29 03  +.#...+.0..,.#).
0590: 09 30 0F 01 04 27 04 09  30 0F 01 0A 1C 1B 80 45  .0...'..0......E
05A0: 09 80 F0 FF FF 7F F0 FF  FF 7F 63 6D 34 31 01 80  ..........cm41..
05B0: 55 09 80 F0 FF FF 7F F0  FF FF 7F 63 6D 34 31 4A  U..........cm41J
05C0: 0B 30 0F 01 F0 FF FF 7F  6F 76 0B 30 0F 01 4A F0  .0......ov.0..J.
05D0: FF FF 7F 0B 30 0F 01 27  03 0B 30 0F 01 07 2B 0B  ....0..'..0...+.
05E0: 30 0F 01 2D 80 23 2B 0B  30 0F 01 2E 80 23 29 04  0..-.#+.0....#).
05F0: 0B 30 0F 01 0B 45 09 80  F0 FF FF 7F F0 FF FF 7F  .0...E..........
0600: 63 6D 34 32 01 80 55 09  80 F0 FF FF 7F F0 FF FF  cm42..U.........
0610: 7F 63 6D 34 32 4A 0C 30  0F 01 F0 FF FF 7F 6F 76  .cm42J.0......ov
0620: 0C 30 0F 01 4A F0 FF FF  7F 0C 30 0F 01 27 03 0C  .0..J.....0..'..
0630: 30 0F 01 05 2B 0C 30 0F  01 2F 80 23 2B 0C 30 0F  0...+.0../.#+.0.
0640: 01 30 80 23 29 04 0C 30  0F 01 09 1C 10 80 4E 00  .0.#)..0......N.
0650: 0D 30 0F 01 2B 0D 30 0F  01 31 80 23 4A 0B 30 0F  .0..+.0..1.#J.0.
0660: 01 0D 30 0F 01 4A 0C 30  0F 01 0D 30 0F 01 27 03  ..0..J.0...0..'.
0670: 0D 30 0F 01 09 1C 10 80  45 09 80 F0 FF FF 7F F0  .0......E.......
0680: FF FF 7F 63 6D 34 33 01  80 55 09 80 F0 FF FF 7F  ...cm43..U......
0690: F0 FF FF 7F 63 6D 34 33  4D 4A F0 FF FF 7F 0D 30  ....cm43MJ.....0
06A0: 0F 01 29 05 09 30 0F 01  09 2B 09 30 0F 01 32 80  ..)..0...+.0..2.
06B0: 23 29 04 0D 30 0F 01 0B  45 09 80 F0 FF FF 7F F0  #)..0...E.......
06C0: FF FF 7F 63 6D 34 63 01  80 55 09 80 F0 FF FF 7F  ...cm4c..U......
06D0: F0 FF FF 7F 63 6D 34 63  2B 0D 30 0F 01 33 80 23  ....cm4c+.0..3.#
06E0: 2B 09 30 0F 01 34 80 23  2B 0D 30 0F 01 35 80 23  +.0..4.#+.0..5.#
06F0: 4A F0 FF FF 7F 09 30 0F  01 1C 10 80 45 09 80 F0  J.....0.....E...
0700: FF FF 7F F0 FF FF 7F 63  6D 34 62 01 80 29 03 09  .......cm4b..)..
0710: 30 0F 01 0A 2B 09 30 0F  01 36 80 23 27 03 09 30  0...+.0..6.#'..0
0720: 0F 01 07 2B 09 30 0F 01  37 80 23 45 09 80 F0 FF  ...+.0..7.#E....
0730: FF 7F F0 FF FF 7F 63 6D  34 35 01 80 29 04 09 30  ......cm45..)..0
0740: 0F 01 08 27 03 09 30 0F  01 05 2B 09 30 0F 01 38  ...'..0...+.0..8
0750: 80 23 2B 09 30 0F 01 39  80 23 27 04 09 30 0F 01  .#+.0..9.#'..0..
0760: 06 1C 1B 80 27 03 F0 FF  FF 7F 3B 45 06 80 F0 FF  ....'.....;E....
0770: FF 7F F0 FF FF 7F 66 64  6F 32 01 80 55 06 80 F0  ......fdo2..U...
0780: FF FF 7F F0 FF FF 7F 66  64 6F 32 29 04 F0 FF FF  .......fdo2)....
0790: 7F 33 4E 00 0A 30 0F 01  62 25 80 25 30 0F 01 25  .3N..0..b%.%0..%
07A0: 30 0F 01 73 74 6D 31 01  80 62 26 80 26 30 0F 01  0..stm1..b&.&0..
07B0: 26 30 0F 01 73 74 6D 32  01 80 62 27 80 27 30 0F  &0..stm2..b'.'0.
07C0: 01 27 30 0F 01 73 74 6D  33 01 80 29 03 0D 30 0F  .'0..stm3..)..0.
07D0: 01 0A 29 03 F0 FF FF 7F  3A 02 01 00 3A 80 00 E4  ..).....:...:...
07E0: 07 01 80 09 45 09 80 F0  FF FF 7F F0 FF FF 7F 63  ....E..........c
07F0: 6D 34 34 01 80 27 03 F0  FF FF 7F 3C 45 06 80 F0  m44..'.....<E...
0800: FF FF 7F F0 FF FF 7F 66  64 69 32 01 80 55 06 80  .......fdi2..U..
0810: F0 FF FF 7F F0 FF FF 7F  66 64 69 32 4C 1C 1B 80  ........fdi2L...
0820: 27 03 0A 30 0F 01 04 29  04 F0 FF FF 7F 33 29 04  '..0...).....3).
0830: 0A 30 0F 01 0F 55 09 80  F0 FF FF 7F F0 FF FF 7F  .0...U..........
0840: 63 6D 34 34 2B 0A 30 0F  01 3B 80 23 45 09 80 F0  cm44+.0..;.#E...
0850: FF FF 7F F0 FF FF 7F 63  6D 34 64 01 80 29 03 0A  .......cm4d..)..
0860: 30 0F 01 0C 45 09 80 F0  FF FF 7F F0 FF FF 7F 73  0...E..........s
0870: 65 30 30 01 80 55 09 80  F0 FF FF 7F F0 FF FF 7F  e00..U..........
0880: 73 65 30 30 29 04 0A 30  0F 01 0D 2B 0A 30 0F 01  se00)..0...+.0..
0890: 3C 80 23 2B 0A 30 0F 01  3D 80 23 4B 0A 30 0F 01  <.#+.0..=.#K.0..
08A0: 1C 80 2B 0A 30 0F 01 3E  80 23 4E 00 07 30 0F 01  ..+.0..>.#N..0..
08B0: 27 03 07 30 0F 01 26 1C  1B 80 45 09 80 F0 FF FF  '..0..&...E.....
08C0: 7F F0 FF FF 7F 63 6D 34  65 01 80 55 09 80 F0 FF  .....cm4e..U....
08D0: FF 7F F0 FF FF 7F 63 6D  34 65 29 04 07 30 0F 01  ......cm4e)..0..
08E0: 2E 1E 07 30 0F 01 2B 07  30 0F 01 3F 80 23 2B 0A  ...0..+.0..?.#+.
08F0: 30 0F 01 40 80 23 2B 07  30 0F 01 41 80 23 2B 0A  0..@.#+.0..A.#+.
0900: 30 0F 01 42 80 23 2B 0A  30 0F 01 43 80 23 2B 07  0..B.#+.0..C.#+.
0910: 30 0F 01 44 80 23 27 03  07 30 0F 01 27 1C 1B 80  0..D.#'..0..'...
0920: 4A 0A 30 0F 01 F0 FF FF  7F 6F 76 0A 30 0F 01 27  J.0......ov.0..'
0930: 03 0A 30 0F 01 0A 1C 10  80 2B 0A 30 0F 01 45 80  ..0......+.0..E.
0940: 23 29 04 0A 30 0F 01 0B  27 03 0A 30 0F 01 05 1C  #)..0...'..0....
0950: 23 80 27 03 F0 FF FF 7F  3D 1C 1B 80 45 06 80 F0  #.'.....=...E...
0960: FF FF 7F F0 FF FF 7F 66  64 6F 32 01 80 55 06 80  .......fdo2..U..
0970: F0 FF FF 7F F0 FF FF 7F  66 64 6F 32 4D 1C 1D 80  ........fdo2M...
0980: 5C 00 24 80 5C 01 24 80  4E 01 0A 30 0F 01 4E 01  \.$.\.$.N..0..N.
0990: 07 30 0F 01 46 00 45 06  80 F0 FF FF 7F F0 FF FF  .0..F.E.........
09A0: 7F 66 64 69 31 01 80 21  00                       .fdi1..!.       
```

#### Opcodes

```
  0: 0x03F0 [0x03] ExtData[1]->WorkLocal[0] = Work_Zone[2]
  1: 0x03F5 [0x03] Work_Zone[9] = 8*
  2: 0x03FA [0x03] ExtData[1]->WorkLocal[1] = Work_Zone[3]
  3: 0x03FF [0x46] CAMERA_CONTROL: Disable user control
  4: 0x0401 [0x42] SET_CLI_EVENT_CANCEL_DATA()
  5: 0x0402 [0x45] LOAD_SCHEDULED_TASK: Load scheduler "fdo1" with entities [LocalPlayer, LocalPlayer], work=[200*, 0*]
  6: 0x0413 [0x55] WAIT_LOAD_SCHEDULER: Wait for scheduler "fdo1" with entities [LocalPlayer, LocalPlayer], work=200*
  7: 0x0422 [0x5C] MUSIC_CONTROL: Set Idle (Day) music to song 0*
  8: 0x0426 [0x5C] MUSIC_CONTROL: Set Idle (Night) music to song 0*
  9: 0x042A [0x75] LOAD_ROOM(Load indoor room, room=437*)
 10: 0x042E [0x75] LOAD_ROOM(No action)
 11: 0x0430 [0x38] SET_CLIENT_EVENT_MODE(mode=3*)
 12: 0x0433 [0x29] REQ_SET_WAIT(priority=0x03, entity_id=LocalPlayer, tag_num=0x36)
 13: 0x043A [0x45] LOAD_SCHEDULED_TASK: Load scheduler "cm4a" with entities [LocalPlayer, LocalPlayer], work=[143*, 0*]
 14: 0x044B [0x55] WAIT_LOAD_SCHEDULER: Wait for scheduler "cm4a" with entities [LocalPlayer, LocalPlayer], work=143*
 15: 0x045A [0x45] LOAD_SCHEDULED_TASK: Load scheduler "fdi1" with entities [LocalPlayer, LocalPlayer], work=[200*, 0*]
 16: 0x046B [0x55] WAIT_LOAD_SCHEDULER: Wait for scheduler "fdi1" with entities [LocalPlayer, LocalPlayer], work=200*
 17: 0x047A [0x4C] EventEntity->StatusEvent = 8 // Open door
 18: 0x047B [0x1C] WAIT(60* ticks)
 19: 0x047E [0x27] REQ_SET(priority=0x03, entity_id=LocalPlayer, tag_num=0x38)
 20: 0x0485 [0x45] LOAD_SCHEDULED_TASK: Load scheduler "fdo2" with entities [LocalPlayer, LocalPlayer], work=[200*, 0*]
 21: 0x0496 [0x55] WAIT_LOAD_SCHEDULER: Wait for scheduler "fdo2" with entities [LocalPlayer, LocalPlayer], work=200*
 22: 0x04A5 [0x1C] WAIT(60* ticks)
 23: 0x04A8 [0x29] REQ_SET_WAIT(priority=0x04, entity_id=LocalPlayer, tag_num=0x33)
 24: 0x04AF [0x29] REQ_SET_WAIT(priority=0x04, entity_id=LocalPlayer, tag_num=0x39)
 25: 0x04B6 [0x4A] LocalPlayer looks at Kam'lanaut (ID: 17772553/0x010F3009)
 26: 0x04BF [0x62] LOAD_EVENT_SCHEDULER: Load scheduler "main" with entities [Auction Counter (ID: 17772581/0x010F3025), Auction Counter (ID: 17772581/0x010F3025)], work=[4*, 0*]
 27: 0x04D0 [0x62] LOAD_EVENT_SCHEDULER: Load scheduler "main" with entities [Auction Counter (ID: 17772582/0x010F3026), Auction Counter (ID: 17772582/0x010F3026)], work=[5*, 0*]
 28: 0x04E1 [0x62] LOAD_EVENT_SCHEDULER: Load scheduler "main" with entities [Auction Counter (ID: 17772583/0x010F3027), Auction Counter (ID: 17772583/0x010F3027)], work=[6*, 0*]
 29: 0x04F2 [0x45] LOAD_SCHEDULED_TASK: Load scheduler "cm40" with entities [LocalPlayer, LocalPlayer], work=[143*, 0*]
 30: 0x0503 [0x55] WAIT_LOAD_SCHEDULER: Wait for scheduler "cm40" with entities [LocalPlayer, LocalPlayer], work=143*
 31: 0x0512 [0x45] LOAD_SCHEDULED_TASK: Load scheduler "fdi2" with entities [LocalPlayer, LocalPlayer], work=[200*, 0*]
 32: 0x0523 [0x55] WAIT_LOAD_SCHEDULER: Wait for scheduler "fdi2" with entities [LocalPlayer, LocalPlayer], work=200*
 33: 0x0532 [0x1C] WAIT(60* ticks)
 34: 0x0535 [0x27] REQ_SET(priority=0x03, entity_id=Kam'lanaut (ID: 17772553/0x010F3009), tag_num=0x05)
 35: 0x053C [0x2B] Kam'lanaut (ID: 17772553/0x010F3009) [10146*]:
    → "Magicite! Yes, these stones emit the same power as crystals. Though impure, that power is great indeed."
 36: 0x0543 [0x23] WAIT_FOR_DIALOG_INTERACTION
 37: 0x0544 [0x2B] Kam'lanaut (ID: 17772553/0x010F3009) [10147*]:
    → "Now it is clear why the beastmen gathered where they did. They were drawn to the magicite's great power!"
 38: 0x054B [0x23] WAIT_FOR_DIALOG_INTERACTION
 39: 0x054C [0x2B] Kam'lanaut (ID: 17772553/0x010F3009) [10148*]:
    → "Yes, it is time to eradicate the beastman threat once and for all."
 40: 0x0553 [0x23] WAIT_FOR_DIALOG_INTERACTION
 41: 0x0554 [0x29] REQ_SET_WAIT(priority=0x04, entity_id=Kam'lanaut (ID: 17772553/0x010F3009), tag_num=0x06)
 42: 0x055B [0x45] LOAD_SCHEDULED_TASK: Load scheduler "cm4f" with entities [LocalPlayer, LocalPlayer], work=[143*, 0*]
 43: 0x056C [0x29] REQ_SET_WAIT(priority=0x03, entity_id=Kam'lanaut (ID: 17772553/0x010F3009), tag_num=0x09)
 44: 0x0573 [0x02] IF !(ExtData[1]->WorkLocal[0] == 0*) GOTO 0x0586
 45: 0x057B [0x2B] Kam'lanaut (ID: 17772553/0x010F3009) [10149*]:
    → "I thank you for your service. Here is $6. With it, you may travel to any nation you please."
 46: 0x0582 [0x23] WAIT_FOR_DIALOG_INTERACTION
 47: 0x0583 [0x01] GOTO 0x058E
 48: 0x0586 [0x2B] Kam'lanaut (ID: 17772553/0x010F3009) [10150*]:
    → "For now, I thank you for your service. Since you already have $6, please accept this instead. May you spend it wisely."
 49: 0x058D [0x23] WAIT_FOR_DIALOG_INTERACTION

SUBROUTINE_058E:
 50: 0x058E [0x29] REQ_SET_WAIT(priority=0x03, entity_id=Kam'lanaut (ID: 17772553/0x010F3009), tag_num=0x04)
 51: 0x0595 [0x27] REQ_SET(priority=0x04, entity_id=Kam'lanaut (ID: 17772553/0x010F3009), tag_num=0x0A)
 52: 0x059C [0x1C] WAIT(60* ticks)
 53: 0x059F [0x45] LOAD_SCHEDULED_TASK: Load scheduler "cm41" with entities [LocalPlayer, LocalPlayer], work=[143*, 0*]
 54: 0x05B0 [0x55] WAIT_LOAD_SCHEDULER: Wait for scheduler "cm41" with entities [LocalPlayer, LocalPlayer], work=143*
 55: 0x05BF [0x4A] Mawl'gofaur (ID: 17772555/0x010F300B) looks at LocalPlayer
 56: 0x05C8 [0x6F] WAIT_FRAME_DELAY: Yield until WaitTime reaches zero
 57: 0x05C9 [0x76] CHECK_ENTITY_RENDER_FLAGS: Wait until Mawl'gofaur (ID: 17772555/0x010F300B) Render.Flags0 and Render.Flags3 conditions are met
 58: 0x05CE [0x4A] LocalPlayer looks at Mawl'gofaur (ID: 17772555/0x010F300B)
 59: 0x05D7 [0x27] REQ_SET(priority=0x03, entity_id=Mawl'gofaur (ID: 17772555/0x010F300B), tag_num=0x07)
 60: 0x05DE [0x2B] Mawl'gofaur (ID: 17772555/0x010F300B) [10151*]:
    → "The three stones are incomplete, but with the powers of the fourth stone that rests deep beneath Castle Zvahl..."
 61: 0x05E5 [0x23] WAIT_FOR_DIALOG_INTERACTION
 62: 0x05E6 [0x2B] Mawl'gofaur (ID: 17772555/0x010F300B) [10152*]:
    → "Perhaps then the Shadow Lord will rise again."
 63: 0x05ED [0x23] WAIT_FOR_DIALOG_INTERACTION
 64: 0x05EE [0x29] REQ_SET_WAIT(priority=0x04, entity_id=Mawl'gofaur (ID: 17772555/0x010F300B), tag_num=0x0B)
 65: 0x05F5 [0x45] LOAD_SCHEDULED_TASK: Load scheduler "cm42" with entities [LocalPlayer, LocalPlayer], work=[143*, 0*]
 66: 0x0606 [0x55] WAIT_LOAD_SCHEDULER: Wait for scheduler "cm42" with entities [LocalPlayer, LocalPlayer], work=143*
 67: 0x0615 [0x4A] Kareh'ayollio (ID: 17772556/0x010F300C) looks at LocalPlayer
 68: 0x061E [0x6F] WAIT_FRAME_DELAY: Yield until WaitTime reaches zero
 69: 0x061F [0x76] CHECK_ENTITY_RENDER_FLAGS: Wait until Kareh'ayollio (ID: 17772556/0x010F300C) Render.Flags0 and Render.Flags3 conditions are met
 70: 0x0624 [0x4A] LocalPlayer looks at Kareh'ayollio (ID: 17772556/0x010F300C)
 71: 0x062D [0x27] REQ_SET(priority=0x03, entity_id=Kareh'ayollio (ID: 17772556/0x010F300C), tag_num=0x05)
 72: 0x0634 [0x2B] Kareh'ayollio (ID: 17772556/0x010F300C) [10153*]:
    → "Of course, the talisman that seals Zvahl's inner depths was put in place over twenty years ago. It would stop any attempt."
 73: 0x063B [0x23] WAIT_FOR_DIALOG_INTERACTION
 74: 0x063C [0x2B] Kareh'ayollio (ID: 17772556/0x010F300C) [10154*]:
    → "I've also read that the three keys to open the seal were kept safely by the three great nations..."
 75: 0x0643 [0x23] WAIT_FOR_DIALOG_INTERACTION
 76: 0x0644 [0x29] REQ_SET_WAIT(priority=0x04, entity_id=Kareh'ayollio (ID: 17772556/0x010F300C), tag_num=0x09)
 77: 0x064B [0x1C] WAIT(30* ticks)
 78: 0x064E [0x4E] SET_ENTITY_HIDE_FLAG: Show High Wind (ID: 17772557/0x010F300D)
 79: 0x0654 [0x2B] High Wind (ID: 17772557/0x010F300D) [10155*]:
    → "Your Grace!"
 80: 0x065B [0x23] WAIT_FOR_DIALOG_INTERACTION
 81: 0x065C [0x4A] Mawl'gofaur (ID: 17772555/0x010F300B) looks at High Wind (ID: 17772557/0x010F300D)
 82: 0x0665 [0x4A] Kareh'ayollio (ID: 17772556/0x010F300C) looks at High Wind (ID: 17772557/0x010F300D)
 83: 0x066E [0x27] REQ_SET(priority=0x03, entity_id=High Wind (ID: 17772557/0x010F300D), tag_num=0x09)
 84: 0x0675 [0x1C] WAIT(30* ticks)
 85: 0x0678 [0x45] LOAD_SCHEDULED_TASK: Load scheduler "cm43" with entities [LocalPlayer, LocalPlayer], work=[143*, 0*]
 86: 0x0689 [0x55] WAIT_LOAD_SCHEDULER: Wait for scheduler "cm43" with entities [LocalPlayer, LocalPlayer], work=143*
 87: 0x0698 [0x4D] EventEntity->StatusEvent = 9 // Close door
 88: 0x0699 [0x4A] LocalPlayer looks at High Wind (ID: 17772557/0x010F300D)
 89: 0x06A2 [0x29] REQ_SET_WAIT(priority=0x05, entity_id=Kam'lanaut (ID: 17772553/0x010F3009), tag_num=0x09)
 90: 0x06A9 [0x2B] Kam'lanaut (ID: 17772553/0x010F3009) [10156*]:
    → "What is it?"
 91: 0x06B0 [0x23] WAIT_FOR_DIALOG_INTERACTION
 92: 0x06B1 [0x29] REQ_SET_WAIT(priority=0x04, entity_id=High Wind (ID: 17772557/0x010F300D), tag_num=0x0B)
 93: 0x06B8 [0x45] LOAD_SCHEDULED_TASK: Load scheduler "cm4c" with entities [LocalPlayer, LocalPlayer], work=[143*, 0*]
 94: 0x06C9 [0x55] WAIT_LOAD_SCHEDULER: Wait for scheduler "cm4c" with entities [LocalPlayer, LocalPlayer], work=143*
 95: 0x06D8 [0x2B] High Wind (ID: 17772557/0x010F300D) [10157*]:
    → "Dire news, Your Grace! The leaders of all three nations have been attacked!"
 96: 0x06DF [0x23] WAIT_FOR_DIALOG_INTERACTION
 97: 0x06E0 [0x2B] Kam'lanaut (ID: 17772553/0x010F3009) [10158*]:
    → "Attacked... By beastmen?"
 98: 0x06E7 [0x23] WAIT_FOR_DIALOG_INTERACTION
 99: 0x06E8 [0x2B] High Wind (ID: 17772557/0x010F300D) [10159*]:
    → "Yes, Your Grace."
100: 0x06EF [0x23] WAIT_FOR_DIALOG_INTERACTION
101: 0x06F0 [0x4A] LocalPlayer looks at Kam'lanaut (ID: 17772553/0x010F3009)
102: 0x06F9 [0x1C] WAIT(30* ticks)
103: 0x06FC [0x45] LOAD_SCHEDULED_TASK: Load scheduler "cm4b" with entities [LocalPlayer, LocalPlayer], work=[143*, 0*]
104: 0x070D [0x29] REQ_SET_WAIT(priority=0x03, entity_id=Kam'lanaut (ID: 17772553/0x010F3009), tag_num=0x0A)
105: 0x0714 [0x2B] Kam'lanaut (ID: 17772553/0x010F3009) [10160*]:
    → "Confound them! They're one step ahead of us."
106: 0x071B [0x23] WAIT_FOR_DIALOG_INTERACTION
107: 0x071C [0x27] REQ_SET(priority=0x03, entity_id=Kam'lanaut (ID: 17772553/0x010F3009), tag_num=0x07)
108: 0x0723 [0x2B] Kam'lanaut (ID: 17772553/0x010F3009) [10161*]:
    → "So, they seek to resurrect the Shadow Lord... Quite a lofty goal for beastmen."
109: 0x072A [0x23] WAIT_FOR_DIALOG_INTERACTION
110: 0x072B [0x45] LOAD_SCHEDULED_TASK: Load scheduler "cm45" with entities [LocalPlayer, LocalPlayer], work=[143*, 0*]
111: 0x073C [0x29] REQ_SET_WAIT(priority=0x04, entity_id=Kam'lanaut (ID: 17772553/0x010F3009), tag_num=0x08)
112: 0x0743 [0x27] REQ_SET(priority=0x03, entity_id=Kam'lanaut (ID: 17772553/0x010F3009), tag_num=0x05)
113: 0x074A [0x2B] Kam'lanaut (ID: 17772553/0x010F3009) [10162*]:
    → "So be it, then. Perhaps you should return to your embassy."
114: 0x0751 [0x23] WAIT_FOR_DIALOG_INTERACTION
115: 0x0752 [0x2B] Kam'lanaut (ID: 17772553/0x010F3009) [10163*]:
    → "I will call for your aid again soon. Until then, be well."
116: 0x0759 [0x23] WAIT_FOR_DIALOG_INTERACTION
117: 0x075A [0x27] REQ_SET(priority=0x04, entity_id=Kam'lanaut (ID: 17772553/0x010F3009), tag_num=0x06)
118: 0x0761 [0x1C] WAIT(60* ticks)
119: 0x0764 [0x27] REQ_SET(priority=0x03, entity_id=LocalPlayer, tag_num=0x3B)
120: 0x076B [0x45] LOAD_SCHEDULED_TASK: Load scheduler "fdo2" with entities [LocalPlayer, LocalPlayer], work=[200*, 0*]
121: 0x077C [0x55] WAIT_LOAD_SCHEDULER: Wait for scheduler "fdo2" with entities [LocalPlayer, LocalPlayer], work=200*
122: 0x078B [0x29] REQ_SET_WAIT(priority=0x04, entity_id=LocalPlayer, tag_num=0x33)
123: 0x0792 [0x4E] SET_ENTITY_HIDE_FLAG: Show Eald'narche (ID: 17772554/0x010F300A)
124: 0x0798 [0x62] LOAD_EVENT_SCHEDULER: Load scheduler "stm1" with entities [Auction Counter (ID: 17772581/0x010F3025), Auction Counter (ID: 17772581/0x010F3025)], work=[4*, 0*]
125: 0x07A9 [0x62] LOAD_EVENT_SCHEDULER: Load scheduler "stm2" with entities [Auction Counter (ID: 17772582/0x010F3026), Auction Counter (ID: 17772582/0x010F3026)], work=[5*, 0*]
126: 0x07BA [0x62] LOAD_EVENT_SCHEDULER: Load scheduler "stm3" with entities [Auction Counter (ID: 17772583/0x010F3027), Auction Counter (ID: 17772583/0x010F3027)], work=[6*, 0*]
127: 0x07CB [0x29] REQ_SET_WAIT(priority=0x03, entity_id=High Wind (ID: 17772557/0x010F300D), tag_num=0x0A)
128: 0x07D2 [0x29] REQ_SET_WAIT(priority=0x03, entity_id=LocalPlayer, tag_num=0x3A)
129: 0x07D9 [0x02] IF !(ExtData[1]->WorkLocal[1] == 1*) GOTO 0x07E4
130: 0x07E1 [0x01] GOTO 0x0980
131: 0x07E4 [0x45] LOAD_SCHEDULED_TASK: Load scheduler "cm44" with entities [LocalPlayer, LocalPlayer], work=[143*, 0*]
132: 0x07F5 [0x27] REQ_SET(priority=0x03, entity_id=LocalPlayer, tag_num=0x3C)
133: 0x07FC [0x45] LOAD_SCHEDULED_TASK: Load scheduler "fdi2" with entities [LocalPlayer, LocalPlayer], work=[200*, 0*]
134: 0x080D [0x55] WAIT_LOAD_SCHEDULER: Wait for scheduler "fdi2" with entities [LocalPlayer, LocalPlayer], work=200*
135: 0x081C [0x4C] EventEntity->StatusEvent = 8 // Open door
136: 0x081D [0x1C] WAIT(60* ticks)
137: 0x0820 [0x27] REQ_SET(priority=0x03, entity_id=Eald'narche (ID: 17772554/0x010F300A), tag_num=0x04)
138: 0x0827 [0x29] REQ_SET_WAIT(priority=0x04, entity_id=LocalPlayer, tag_num=0x33)
139: 0x082E [0x29] REQ_SET_WAIT(priority=0x04, entity_id=Eald'narche (ID: 17772554/0x010F300A), tag_num=0x0F)
140: 0x0835 [0x55] WAIT_LOAD_SCHEDULER: Wait for scheduler "cm44" with entities [LocalPlayer, LocalPlayer], work=143*
141: 0x0844 [0x2B] Eald'narche (ID: 17772554/0x010F300A) [10164*]:
    → "Hey, what's going on? Oh, you don't have to tell me."
142: 0x084B [0x23] WAIT_FOR_DIALOG_INTERACTION
143: 0x084C [0x45] LOAD_SCHEDULED_TASK: Load scheduler "cm4d" with entities [LocalPlayer, LocalPlayer], work=[143*, 0*]
144: 0x085D [0x29] REQ_SET_WAIT(priority=0x03, entity_id=Eald'narche (ID: 17772554/0x010F300A), tag_num=0x0C)
145: 0x0864 [0x45] LOAD_SCHEDULED_TASK: Load scheduler "se00" with entities [LocalPlayer, LocalPlayer], work=[143*, 0*]
146: 0x0875 [0x55] WAIT_LOAD_SCHEDULER: Wait for scheduler "se00" with entities [LocalPlayer, LocalPlayer], work=143*
147: 0x0884 [0x29] REQ_SET_WAIT(priority=0x04, entity_id=Eald'narche (ID: 17772554/0x010F300A), tag_num=0x0D)
148: 0x088B [0x2B] Eald'narche (ID: 17772554/0x010F300A) [10165*]:
    → "Oh, so you went to Castle Oztroja and met a girl named Verena there."
149: 0x0892 [0x23] WAIT_FOR_DIALOG_INTERACTION
150: 0x0893 [0x2B] Eald'narche (ID: 17772554/0x010F300A) [10166*]:
    → "And she gets along with the beastmen. Wow, so maybe we could get along."
151: 0x089A [0x23] WAIT_FOR_DIALOG_INTERACTION
152: 0x089B [0x4B] UPDATE_ENTITY_YAW(entity=Eald'narche (ID: 17772554/0x010F300A), yaw=5.6°*)
153: 0x08A2 [0x2B] Eald'narche (ID: 17772554/0x010F300A) [10167*]:
    → "Hey, Wolfgang! Wolfie, you here?"
154: 0x08A9 [0x23] WAIT_FOR_DIALOG_INTERACTION
155: 0x08AA [0x4E] SET_ENTITY_HIDE_FLAG: Show Wolfgang (ID: 17772551/0x010F3007)
156: 0x08B0 [0x27] REQ_SET(priority=0x03, entity_id=Wolfgang (ID: 17772551/0x010F3007), tag_num=0x26)
157: 0x08B7 [0x1C] WAIT(60* ticks)
158: 0x08BA [0x45] LOAD_SCHEDULED_TASK: Load scheduler "cm4e" with entities [LocalPlayer, LocalPlayer], work=[143*, 0*]
159: 0x08CB [0x55] WAIT_LOAD_SCHEDULER: Wait for scheduler "cm4e" with entities [LocalPlayer, LocalPlayer], work=143*
160: 0x08DA [0x29] REQ_SET_WAIT(priority=0x04, entity_id=Wolfgang (ID: 17772551/0x010F3007), tag_num=0x2E)
161: 0x08E1 [0x1E] EventEntity looks at Wolfgang (ID: 17772551/0x010F3007) and starts talking
162: 0x08E6 [0x2B] Wolfgang (ID: 17772551/0x010F3007) [10168*]:
    → "What would you ask of me, Lord Eald'narche?"
163: 0x08ED [0x23] WAIT_FOR_DIALOG_INTERACTION
164: 0x08EE [0x2B] Eald'narche (ID: 17772554/0x010F300A) [10169*]:
    → "Could you find someone named Verena and bring her here? I heard she's Aldo's little sister."
165: 0x08F5 [0x23] WAIT_FOR_DIALOG_INTERACTION
166: 0x08F6 [0x2B] Wolfgang (ID: 17772551/0x010F3007) [10170*]:
    → "Of course, my lord. But may I ask why? She seems of...questionable intentions."
167: 0x08FD [0x23] WAIT_FOR_DIALOG_INTERACTION
168: 0x08FE [0x2B] Eald'narche (ID: 17772554/0x010F300A) [10171*]:
    → "I think she has some nifty powers, so I just want to play with her. That's all."
169: 0x0905 [0x23] WAIT_FOR_DIALOG_INTERACTION
170: 0x0906 [0x2B] Eald'narche (ID: 17772554/0x010F300A) [10172*]:
    → "Oh, and don't tell this to Kam'lanaut. I want to surprise him."
171: 0x090D [0x23] WAIT_FOR_DIALOG_INTERACTION
172: 0x090E [0x2B] Wolfgang (ID: 17772551/0x010F3007) [10173*]:
    → "As you wish, my lord."
173: 0x0915 [0x23] WAIT_FOR_DIALOG_INTERACTION
174: 0x0916 [0x27] REQ_SET(priority=0x03, entity_id=Wolfgang (ID: 17772551/0x010F3007), tag_num=0x27)
175: 0x091D [0x1C] WAIT(60* ticks)
176: 0x0920 [0x4A] Eald'narche (ID: 17772554/0x010F300A) looks at LocalPlayer
177: 0x0929 [0x6F] WAIT_FRAME_DELAY: Yield until WaitTime reaches zero
178: 0x092A [0x76] CHECK_ENTITY_RENDER_FLAGS: Wait until Eald'narche (ID: 17772554/0x010F300A) Render.Flags0 and Render.Flags3 conditions are met
179: 0x092F [0x27] REQ_SET(priority=0x03, entity_id=Eald'narche (ID: 17772554/0x010F300A), tag_num=0x0A)
180: 0x0936 [0x1C] WAIT(30* ticks)
181: 0x0939 [0x2B] Eald'narche (ID: 17772554/0x010F300A) [10174*]:
    → "Heh. I can't wait!"
182: 0x0940 [0x23] WAIT_FOR_DIALOG_INTERACTION
183: 0x0941 [0x29] REQ_SET_WAIT(priority=0x04, entity_id=Eald'narche (ID: 17772554/0x010F300A), tag_num=0x0B)
184: 0x0948 [0x27] REQ_SET(priority=0x03, entity_id=Eald'narche (ID: 17772554/0x010F300A), tag_num=0x05)
185: 0x094F [0x1C] WAIT(120* ticks)
186: 0x0952 [0x27] REQ_SET(priority=0x03, entity_id=LocalPlayer, tag_num=0x3D)
187: 0x0959 [0x1C] WAIT(60* ticks)
188: 0x095C [0x45] LOAD_SCHEDULED_TASK: Load scheduler "fdo2" with entities [LocalPlayer, LocalPlayer], work=[200*, 0*]
189: 0x096D [0x55] WAIT_LOAD_SCHEDULER: Wait for scheduler "fdo2" with entities [LocalPlayer, LocalPlayer], work=200*
190: 0x097C [0x4D] EventEntity->StatusEvent = 9 // Close door
191: 0x097D [0x1C] WAIT(90* ticks)

SUBROUTINE_0980:
192: 0x0980 [0x5C] MUSIC_CONTROL: Set Idle (Day) music to song 117*
193: 0x0984 [0x5C] MUSIC_CONTROL: Set Idle (Night) music to song 117*
194: 0x0988 [0x4E] SET_ENTITY_HIDE_FLAG: Hide Eald'narche (ID: 17772554/0x010F300A)
195: 0x098E [0x4E] SET_ENTITY_HIDE_FLAG: Hide Wolfgang (ID: 17772551/0x010F3007)
196: 0x0994 [0x46] CAMERA_CONTROL: Restore default settings
197: 0x0996 [0x45] LOAD_SCHEDULED_TASK: Load scheduler "fdi1" with entities [LocalPlayer, LocalPlayer], work=[200*, 0*]
198: 0x09A7 [0x21] END_EVENT
199: 0x09A8 [0x00] END_REQSTACK()
```

### Event 65535.3

#### Metadata

| Field        | Value   |
|--------------|---------|
| Entrypoint   | 0x09A9  |
| Data Size    | 2 bytes |
| Instructions | 2       |

```
      00 01 02 03 04 05 06 07  08 09 0A 0B 0C 0D 0E 0F
      -- -- -- -- -- -- -- --  -- -- -- -- -- -- -- --
09A0:                             4C 00                          L.     
```

#### Opcodes

```
  0: 0x09A9 [0x4C] EventEntity->StatusEvent = 8 // Open door
  1: 0x09AA [0x00] END_REQSTACK()
```

### Event 65535.4

#### Metadata

| Field        | Value   |
|--------------|---------|
| Entrypoint   | 0x09AB  |
| Data Size    | 2 bytes |
| Instructions | 2       |

```
      00 01 02 03 04 05 06 07  08 09 0A 0B 0C 0D 0E 0F
      -- -- -- -- -- -- -- --  -- -- -- -- -- -- -- --
09A0:                                   4D 00                      M.   
```

#### Opcodes

```
  0: 0x09AB [0x4D] EventEntity->StatusEvent = 9 // Close door
  1: 0x09AC [0x00] END_REQSTACK()
```

### Event 10050

#### Metadata

| Field        | Value   |
|--------------|---------|
| Entrypoint   | 0x09AD  |
| Data Size    | 1 bytes |
| Instructions | 1       |

```
      00 01 02 03 04 05 06 07  08 09 0A 0B 0C 0D 0E 0F
      -- -- -- -- -- -- -- --  -- -- -- -- -- -- -- --
09A0:                                         00                     .  
```

#### Opcodes

```
  0: 0x09AD [0x00] END_REQSTACK()
```

### Event 122

#### Metadata

| Field        | Value   |
|--------------|---------|
| Entrypoint   | 0x09AE  |
| Data Size    | 1 bytes |
| Instructions | 1       |

```
      00 01 02 03 04 05 06 07  08 09 0A 0B 0C 0D 0E 0F
      -- -- -- -- -- -- -- --  -- -- -- -- -- -- -- --
09A0:                                            00                   . 
```

#### Opcodes

```
  0: 0x09AE [0x00] END_REQSTACK()
```

### Event 65535.5

#### Metadata

| Field        | Value   |
|--------------|---------|
| Entrypoint   | 0x09AF  |
| Data Size    | 1 bytes |
| Instructions | 1       |

```
      00 01 02 03 04 05 06 07  08 09 0A 0B 0C 0D 0E 0F
      -- -- -- -- -- -- -- --  -- -- -- -- -- -- -- --
09A0:                                               00                 .
```

#### Opcodes

```
  0: 0x09AF [0x00] END_REQSTACK()
```

### Event 142

#### Metadata

| Field        | Value   |
|--------------|---------|
| Entrypoint   | 0x09B0  |
| Data Size    | 1 bytes |
| Instructions | 1       |

```
      00 01 02 03 04 05 06 07  08 09 0A 0B 0C 0D 0E 0F
      -- -- -- -- -- -- -- --  -- -- -- -- -- -- -- --
09B0: 00                                                .               
```

#### Opcodes

```
  0: 0x09B0 [0x00] END_REQSTACK()
```

### Event 143

#### Metadata

| Field        | Value   |
|--------------|---------|
| Entrypoint   | 0x09B1  |
| Data Size    | 1 bytes |
| Instructions | 1       |

```
      00 01 02 03 04 05 06 07  08 09 0A 0B 0C 0D 0E 0F
      -- -- -- -- -- -- -- --  -- -- -- -- -- -- -- --
09B0:    00                                              .              
```

#### Opcodes

```
  0: 0x09B1 [0x00] END_REQSTACK()
```

### Event 161

#### Metadata

| Field        | Value   |
|--------------|---------|
| Entrypoint   | 0x09B2  |
| Data Size    | 1 bytes |
| Instructions | 1       |

```
      00 01 02 03 04 05 06 07  08 09 0A 0B 0C 0D 0E 0F
      -- -- -- -- -- -- -- --  -- -- -- -- -- -- -- --
09B0:       00                                            .             
```

#### Opcodes

```
  0: 0x09B2 [0x00] END_REQSTACK()
```

### Event 162

#### Metadata

| Field        | Value   |
|--------------|---------|
| Entrypoint   | 0x09B3  |
| Data Size    | 1 bytes |
| Instructions | 1       |

```
      00 01 02 03 04 05 06 07  08 09 0A 0B 0C 0D 0E 0F
      -- -- -- -- -- -- -- --  -- -- -- -- -- -- -- --
09B0:          00                                          .            
```

#### Opcodes

```
  0: 0x09B3 [0x00] END_REQSTACK()
```

### Event 123

#### Metadata

| Field        | Value   |
|--------------|---------|
| Entrypoint   | 0x09B4  |
| Data Size    | 1 bytes |
| Instructions | 1       |

```
      00 01 02 03 04 05 06 07  08 09 0A 0B 0C 0D 0E 0F
      -- -- -- -- -- -- -- --  -- -- -- -- -- -- -- --
09B0:             00                                        .           
```

#### Opcodes

```
  0: 0x09B4 [0x00] END_REQSTACK()
```

### Event 10115

#### Metadata

| Field        | Value   |
|--------------|---------|
| Entrypoint   | 0x09B5  |
| Data Size    | 1 bytes |
| Instructions | 1       |

```
      00 01 02 03 04 05 06 07  08 09 0A 0B 0C 0D 0E 0F
      -- -- -- -- -- -- -- --  -- -- -- -- -- -- -- --
09B0:                00                                      .          
```

#### Opcodes

```
  0: 0x09B5 [0x00] END_REQSTACK()
```

### Event 10116

#### Metadata

| Field        | Value   |
|--------------|---------|
| Entrypoint   | 0x09B6  |
| Data Size    | 1 bytes |
| Instructions | 1       |

```
      00 01 02 03 04 05 06 07  08 09 0A 0B 0C 0D 0E 0F
      -- -- -- -- -- -- -- --  -- -- -- -- -- -- -- --
09B0:                   00                                    .         
```

#### Opcodes

```
  0: 0x09B6 [0x00] END_REQSTACK()
```

### Event 10188

#### Metadata

| Field        | Value   |
|--------------|---------|
| Entrypoint   | 0x09B7  |
| Data Size    | 1 bytes |
| Instructions | 1       |

```
      00 01 02 03 04 05 06 07  08 09 0A 0B 0C 0D 0E 0F
      -- -- -- -- -- -- -- --  -- -- -- -- -- -- -- --
09B0:                      00                                  .        
```

#### Opcodes

```
  0: 0x09B7 [0x00] END_REQSTACK()
```

### Event 10189

#### Metadata

| Field        | Value   |
|--------------|---------|
| Entrypoint   | 0x09B8  |
| Data Size    | 1 bytes |
| Instructions | 1       |

```
      00 01 02 03 04 05 06 07  08 09 0A 0B 0C 0D 0E 0F
      -- -- -- -- -- -- -- --  -- -- -- -- -- -- -- --
09B0:                          00                               .       
```

#### Opcodes

```
  0: 0x09B8 [0x00] END_REQSTACK()
```

### Event 10190

#### Metadata

| Field        | Value   |
|--------------|---------|
| Entrypoint   | 0x09B9  |
| Data Size    | 1 bytes |
| Instructions | 1       |

```
      00 01 02 03 04 05 06 07  08 09 0A 0B 0C 0D 0E 0F
      -- -- -- -- -- -- -- --  -- -- -- -- -- -- -- --
09B0:                             00                             .      
```

#### Opcodes

```
  0: 0x09B9 [0x00] END_REQSTACK()
```

### Event 10200

#### Metadata

| Field        | Value   |
|--------------|---------|
| Entrypoint   | 0x09BA  |
| Data Size    | 1 bytes |
| Instructions | 1       |

```
      00 01 02 03 04 05 06 07  08 09 0A 0B 0C 0D 0E 0F
      -- -- -- -- -- -- -- --  -- -- -- -- -- -- -- --
09B0:                                00                           .     
```

#### Opcodes

```
  0: 0x09BA [0x00] END_REQSTACK()
```

### Event 10208

#### Metadata

| Field        | Value   |
|--------------|---------|
| Entrypoint   | 0x09BB  |
| Data Size    | 1 bytes |
| Instructions | 1       |

```
      00 01 02 03 04 05 06 07  08 09 0A 0B 0C 0D 0E 0F
      -- -- -- -- -- -- -- --  -- -- -- -- -- -- -- --
09B0:                                   00                         .    
```

#### Opcodes

```
  0: 0x09BB [0x00] END_REQSTACK()
```
