# 17772709

## Common Data

| Field            | Value                     |
|------------------|---------------------------|
| Zone             | Ru'Lude Gardens (ID: 243) |
| Block Size       | 33468 bytes               |
| Total Events     | 11                        |
| References Count | 422                       |

## List of Events

| Event ID              | Entrypoint   |   Size |   Instructions |
|-----------------------|--------------|--------|----------------|
| [65535](#event-65535) | 0x0000       |      1 |              1 |
| [10046](#event-10046) | 0x0001       |   1921 |            257 |
| [10047](#event-10047) | 0x0782       |   2712 |            359 |
| [10048](#event-10048) | 0x121A       |   1091 |            163 |
| [10049](#event-10049) | 0x165D       |   2850 |            389 |
| [10050](#event-10050) | 0x217F       |   5156 |            657 |
| [10051](#event-10051) | 0x35A3       |    497 |             74 |
| [10057](#event-10057) | 0x3794       |    578 |             88 |
| [10058](#event-10058) | 0x39D6       |    636 |             96 |
| [10235](#event-10235) | 0x3C52       |   7135 |            880 |
| [10241](#event-10241) | 0x5831       |   9140 |           1135 |

## DAT References (imed_data)

|   Index | Hex Value   |   Dec Value |
|---------|-------------|-------------|
|       0 | 0x00C8      |         200 |
|       1 | 0x0000      |           0 |
|       2 | 0x003C      |          60 |
|       3 | 0x0013      |          19 |
|       4 | 0x01B6      |         438 |
|       5 | 0x00AD      |         173 |
|       6 | 0x0064      |         100 |
|       7 | 0x0001      |           1 |
|       8 | 0x0033      |          51 |
|       9 | 0x0002      |           2 |
|      10 | 0x003B      |          59 |
|      11 | 0x0003      |           3 |
|      12 | 0x004D      |          77 |
|      13 | 0x0004      |           4 |
|      14 | 0x0045      |          69 |
|      15 | 0x01F4      |         500 |
|      16 | 0x3114      |       12564 |
|      17 | 0x3115      |       12565 |
|      18 | 0x3116      |       12566 |
|      19 | 0x3117      |       12567 |
|      20 | 0x3118      |       12568 |
|      21 | 0x001E      |          30 |
|      22 | 0x3119      |       12569 |
|      23 | 0x311A      |       12570 |
|      24 | 0x009F      |         159 |
|      25 | 0x0005      |           5 |
|      26 | 0x0006      |           6 |
|      27 | 0x311B      |       12571 |
|      28 | 0x311C      |       12572 |
|      29 | 0x0008      |           8 |
|      30 | 0x311D      |       12573 |
|      31 | 0x000A      |          10 |
|      32 | 0x311E      |       12574 |
|      33 | 0x07D0      |        2000 |
|      34 | 0x311F      |       12575 |
|      35 | 0x0050      |          80 |
|      36 | 0x3120      |       12576 |
|      37 | 0x3121      |       12577 |
|      38 | 0x3122      |       12578 |
|      39 | 0x3123      |       12579 |
|      40 | 0x3124      |       12580 |
|      41 | 0x3125      |       12581 |
|      42 | 0x3126      |       12582 |
|      43 | 0x0078      |         120 |
|      44 | 0x0075      |         117 |
|      45 | 0x012C      |         300 |
|      46 | 0x0014      |          20 |
|      47 | 0x3129      |       12585 |
|      48 | 0x312A      |       12586 |
|      49 | 0x312B      |       12587 |
|      50 | 0x312C      |       12588 |
|      51 | 0x312D      |       12589 |
|      52 | 0x4AAD      |       19117 |
|      53 | 0xFFFF1299  |  4294906521 |
|      54 | 0xFFFFF5D7  |  4294964695 |
|      55 | 0x0790      |        1936 |
|      56 | 0x312E      |       12590 |
|      57 | 0x312F      |       12591 |
|      58 | 0x005A      |          90 |
|      59 | 0x3130      |       12592 |
|      60 | 0x3131      |       12593 |
|      61 | 0x3132      |       12594 |
|      62 | 0x3133      |       12595 |
|      63 | 0x00F4      |         244 |
|      64 | 0x000C      |          12 |
|      65 | 0x01BE      |         446 |
|      66 | 0x007F      |         127 |
|      67 | 0x3134      |       12596 |
|      68 | 0x3135      |       12597 |
|      69 | 0x3136      |       12598 |
|      70 | 0x3137      |       12599 |
|      71 | 0x3138      |       12600 |
|      72 | 0x3139      |       12601 |
|      73 | 0x313A      |       12602 |
|      74 | 0x313B      |       12603 |
|      75 | 0x313C      |       12604 |
|      76 | 0x313D      |       12605 |
|      77 | 0x313E      |       12606 |
|      78 | 0x313F      |       12607 |
|      79 | 0x3140      |       12608 |
|      80 | 0x3141      |       12609 |
|      81 | 0x00F3      |         243 |
|      82 | 0x3142      |       12610 |
|      83 | 0x3143      |       12611 |
|      84 | 0x3144      |       12612 |
|      85 | 0x3145      |       12613 |
|      86 | 0x3146      |       12614 |
|      87 | 0x3147      |       12615 |
|      88 | 0x3148      |       12616 |
|      89 | 0x3149      |       12617 |
|      90 | 0x314A      |       12618 |
|      91 | 0x314B      |       12619 |
|      92 | 0x314C      |       12620 |
|      93 | 0x00E7      |         231 |
|      94 | 0x006E      |         110 |
|      95 | 0x314D      |       12621 |
|      96 | 0x314E      |       12622 |
|      97 | 0x314F      |       12623 |
|      98 | 0x3150      |       12624 |
|      99 | 0x3151      |       12625 |
|     100 | 0x3152      |       12626 |
|     101 | 0x3153      |       12627 |
|     102 | 0x3154      |       12628 |
|     103 | 0x3155      |       12629 |
|     104 | 0x3156      |       12630 |
|     105 | 0x3157      |       12631 |
|     106 | 0x06D3      |        1747 |
|     107 | 0x3158      |       12632 |
|     108 | 0x3159      |       12633 |
|     109 | 0x0007      |           7 |
|     110 | 0x315A      |       12634 |
|     111 | 0x315B      |       12635 |
|     112 | 0x315E      |       12638 |
|     113 | 0x315F      |       12639 |
|     114 | 0x3160      |       12640 |
|     115 | 0x00A3      |         163 |
|     116 | 0x3161      |       12641 |
|     117 | 0x3162      |       12642 |
|     118 | 0x3163      |       12643 |
|     119 | 0x0028      |          40 |
|     120 | 0x00F0      |         240 |
|     121 | 0x3164      |       12644 |
|     122 | 0x3165      |       12645 |
|     123 | 0x3166      |       12646 |
|     124 | 0x3167      |       12647 |
|     125 | 0x3168      |       12648 |
|     126 | 0x3169      |       12649 |
|     127 | 0x0060      |          96 |
|     128 | 0x0FA0      |        4000 |
|     129 | 0x316A      |       12650 |
|     130 | 0x316B      |       12651 |
|     131 | 0x316C      |       12652 |
|     132 | 0x316D      |       12653 |
|     133 | 0x316E      |       12654 |
|     134 | 0x316F      |       12655 |
|     135 | 0x3170      |       12656 |
|     136 | 0x3171      |       12657 |
|     137 | 0x3172      |       12658 |
|     138 | 0x3173      |       12659 |
|     139 | 0x3174      |       12660 |
|     140 | 0x3175      |       12661 |
|     141 | 0x3176      |       12662 |
|     142 | 0x3177      |       12663 |
|     143 | 0x3178      |       12664 |
|     144 | 0x3179      |       12665 |
|     145 | 0x317A      |       12666 |
|     146 | 0x317B      |       12667 |
|     147 | 0x0032      |          50 |
|     148 | 0x317E      |       12670 |
|     149 | 0x317F      |       12671 |
|     150 | 0x097B      |        2427 |
|     151 | 0x3180      |       12672 |
|     152 | 0x0B31      |        2865 |
|     153 | 0x3181      |       12673 |
|     154 | 0x3182      |       12674 |
|     155 | 0x3183      |       12675 |
|     156 | 0x3184      |       12676 |
|     157 | 0x0C72      |        3186 |
|     158 | 0x3185      |       12677 |
|     159 | 0x3186      |       12678 |
|     160 | 0x3187      |       12679 |
|     161 | 0x3188      |       12680 |
|     162 | 0x3189      |       12681 |
|     163 | 0x318A      |       12682 |
|     164 | 0x318B      |       12683 |
|     165 | 0x318C      |       12684 |
|     166 | 0x318D      |       12685 |
|     167 | 0x318E      |       12686 |
|     168 | 0x318F      |       12687 |
|     169 | 0x3190      |       12688 |
|     170 | 0x3191      |       12689 |
|     171 | 0x3192      |       12690 |
|     172 | 0x3193      |       12691 |
|     173 | 0x3194      |       12692 |
|     174 | 0x3195      |       12693 |
|     175 | 0x3196      |       12694 |
|     176 | 0x00C9      |         201 |
|     177 | 0x001B      |          27 |
|     178 | 0x01E3      |         483 |
|     179 | 0x0273      |         627 |
|     180 | 0x3197      |       12695 |
|     181 | 0x3198      |       12696 |
|     182 | 0x3199      |       12697 |
|     183 | 0x319A      |       12698 |
|     184 | 0x319B      |       12699 |
|     185 | 0x319C      |       12700 |
|     186 | 0x319D      |       12701 |
|     187 | 0x319E      |       12702 |
|     188 | 0x319F      |       12703 |
|     189 | 0x31A0      |       12704 |
|     190 | 0x31A1      |       12705 |
|     191 | 0x31A2      |       12706 |
|     192 | 0x31A3      |       12707 |
|     193 | 0x31A4      |       12708 |
|     194 | 0x31A5      |       12709 |
|     195 | 0x31A6      |       12710 |
|     196 | 0x31A7      |       12711 |
|     197 | 0x31A8      |       12712 |
|     198 | 0x31A9      |       12713 |
|     199 | 0x0640      |        1600 |
|     200 | 0x31AA      |       12714 |
|     201 | 0x31AB      |       12715 |
|     202 | 0x31AC      |       12716 |
|     203 | 0x31AD      |       12717 |
|     204 | 0x076C      |        1900 |
|     205 | 0x31AE      |       12718 |
|     206 | 0x31AF      |       12719 |
|     207 | 0x31B0      |       12720 |
|     208 | 0x04B0      |        1200 |
|     209 | 0x31B1      |       12721 |
|     210 | 0x31B2      |       12722 |
|     211 | 0x31B3      |       12723 |
|     212 | 0x00EC      |         236 |
|     213 | 0x31B4      |       12724 |
|     214 | 0x31B5      |       12725 |
|     215 | 0x0C00      |        3072 |
|     216 | 0x31B6      |       12726 |
|     217 | 0x31B7      |       12727 |
|     218 | 0x31B8      |       12728 |
|     219 | 0x31B9      |       12729 |
|     220 | 0x31BA      |       12730 |
|     221 | 0x31BB      |       12731 |
|     222 | 0x31BC      |       12732 |
|     223 | 0x31BD      |       12733 |
|     224 | 0x31BE      |       12734 |
|     225 | 0x31BF      |       12735 |
|     226 | 0x31C0      |       12736 |
|     227 | 0x00EA      |         234 |
|     228 | 0x31C6      |       12742 |
|     229 | 0x31C7      |       12743 |
|     230 | 0x31C8      |       12744 |
|     231 | 0x31C9      |       12745 |
|     232 | 0x31CA      |       12746 |
|     233 | 0x01B7      |         439 |
|     234 | 0x0019      |          25 |
|     235 | 0x31D0      |       12752 |
|     236 | 0x31D1      |       12753 |
|     237 | 0x31D2      |       12754 |
|     238 | 0x31D3      |       12755 |
|     239 | 0x31D4      |       12756 |
|     240 | 0x31D5      |       12757 |
|     241 | 0x31D6      |       12758 |
|     242 | 0x31D9      |       12761 |
|     243 | 0x31D7      |       12759 |
|     244 | 0x31D8      |       12760 |
|     245 | 0x31DD      |       12765 |
|     246 | 0x31DE      |       12766 |
|     247 | 0x31DF      |       12767 |
|     248 | 0x31E0      |       12768 |
|     249 | 0x31E1      |       12769 |
|     250 | 0x31E2      |       12770 |
|     251 | 0x31E3      |       12771 |
|     252 | 0x31E4      |       12772 |
|     253 | 0x31E5      |       12773 |
|     254 | 0x0190      |         400 |
|     255 | 0x6A65      |       27237 |
|     256 | 0xF788      |       63368 |
|     257 | 0x07CB      |        1995 |
|     258 | 0x0015      |          21 |
|     259 | 0x02A3      |         675 |
|     260 | 0x3C16      |       15382 |
|     261 | 0x3C17      |       15383 |
|     262 | 0x3C19      |       15385 |
|     263 | 0x3C1A      |       15386 |
|     264 | 0x3C1B      |       15387 |
|     265 | 0x3C1C      |       15388 |
|     266 | 0x3C1D      |       15389 |
|     267 | 0x3C1E      |       15390 |
|     268 | 0x0046      |          70 |
|     269 | 0x3C1F      |       15391 |
|     270 | 0x3C20      |       15392 |
|     271 | 0x3C21      |       15393 |
|     272 | 0x3C22      |       15394 |
|     273 | 0x3C23      |       15395 |
|     274 | 0x3C24      |       15396 |
|     275 | 0x3C25      |       15397 |
|     276 | 0x3C26      |       15398 |
|     277 | 0x3C27      |       15399 |
|     278 | 0x3C28      |       15400 |
|     279 | 0x3C29      |       15401 |
|     280 | 0x0105      |         261 |
|     281 | 0x3C2A      |       15402 |
|     282 | 0x0BC4      |        3012 |
|     283 | 0x3C2B      |       15403 |
|     284 | 0x3C2C      |       15404 |
|     285 | 0x3C2D      |       15405 |
|     286 | 0x3C2E      |       15406 |
|     287 | 0x3C2F      |       15407 |
|     288 | 0x3C30      |       15408 |
|     289 | 0x3C31      |       15409 |
|     290 | 0x3C32      |       15410 |
|     291 | 0x3C33      |       15411 |
|     292 | 0x3C34      |       15412 |
|     293 | 0x3C35      |       15413 |
|     294 | 0x3C36      |       15414 |
|     295 | 0x3C37      |       15415 |
|     296 | 0x3C38      |       15416 |
|     297 | 0x3C39      |       15417 |
|     298 | 0x3C3A      |       15418 |
|     299 | 0x0BE7      |        3047 |
|     300 | 0x3C3B      |       15419 |
|     301 | 0x002B      |          43 |
|     302 | 0x002D      |          45 |
|     303 | 0x000F      |          15 |
|     304 | 0x00DA      |         218 |
|     305 | 0x3C3C      |       15420 |
|     306 | 0x7686      |       30342 |
|     307 | 0xF0C0      |       61632 |
|     308 | 0x07C7      |        1991 |
|     309 | 0x0F73      |        3955 |
|     310 | 0x3C3D      |       15421 |
|     311 | 0x3C3E      |       15422 |
|     312 | 0x3C3F      |       15423 |
|     313 | 0x3C40      |       15424 |
|     314 | 0x00DB      |         219 |
|     315 | 0x3C41      |       15425 |
|     316 | 0x00A5      |         165 |
|     317 | 0x3C42      |       15426 |
|     318 | 0x3C43      |       15427 |
|     319 | 0x0080      |         128 |
|     320 | 0x3C44      |       15428 |
|     321 | 0x3C45      |       15429 |
|     322 | 0x3C46      |       15430 |
|     323 | 0x3C47      |       15431 |
|     324 | 0x3C48      |       15432 |
|     325 | 0x3C49      |       15433 |
|     326 | 0x02AB      |         683 |
|     327 | 0x3C4B      |       15435 |
|     328 | 0x3C4C      |       15436 |
|     329 | 0x3C4E      |       15438 |
|     330 | 0x3C4F      |       15439 |
|     331 | 0x3C4D      |       15437 |
|     332 | 0x3C50      |       15440 |
|     333 | 0x3C51      |       15441 |
|     334 | 0x3C52      |       15442 |
|     335 | 0x3C53      |       15443 |
|     336 | 0x3C54      |       15444 |
|     337 | 0x3C55      |       15445 |
|     338 | 0x3C56      |       15446 |
|     339 | 0x00AA      |         170 |
|     340 | 0x3C57      |       15447 |
|     341 | 0x03CD      |         973 |
|     342 | 0x3C58      |       15448 |
|     343 | 0x3C59      |       15449 |
|     344 | 0x3C5A      |       15450 |
|     345 | 0x3C5B      |       15451 |
|     346 | 0x3C5C      |       15452 |
|     347 | 0x3C5D      |       15453 |
|     348 | 0x3C5E      |       15454 |
|     349 | 0x3C5F      |       15455 |
|     350 | 0x3C60      |       15456 |
|     351 | 0x3C61      |       15457 |
|     352 | 0x3C62      |       15458 |
|     353 | 0x3C63      |       15459 |
|     354 | 0x3C64      |       15460 |
|     355 | 0x3C65      |       15461 |
|     356 | 0x3C66      |       15462 |
|     357 | 0x0800      |        2048 |
|     358 | 0x3C67      |       15463 |
|     359 | 0x3C68      |       15464 |
|     360 | 0x3C69      |       15465 |
|     361 | 0x3C6A      |       15466 |
|     362 | 0x3C6B      |       15467 |
|     363 | 0x007A      |         122 |
|     364 | 0x3C6C      |       15468 |
|     365 | 0x3C6D      |       15469 |
|     366 | 0x3C6E      |       15470 |
|     367 | 0x3C6F      |       15471 |
|     368 | 0x3C70      |       15472 |
|     369 | 0x3C71      |       15473 |
|     370 | 0x3C72      |       15474 |
|     371 | 0x3C73      |       15475 |
|     372 | 0x3C74      |       15476 |
|     373 | 0x3C75      |       15477 |
|     374 | 0x3C76      |       15478 |
|     375 | 0x3C77      |       15479 |
|     376 | 0x3C78      |       15480 |
|     377 | 0x3C79      |       15481 |
|     378 | 0x3C7A      |       15482 |
|     379 | 0x3C7B      |       15483 |
|     380 | 0x3C7C      |       15484 |
|     381 | 0x3C7D      |       15485 |
|     382 | 0x3C7E      |       15486 |
|     383 | 0x3C7F      |       15487 |
|     384 | 0x3C80      |       15488 |
|     385 | 0x3C81      |       15489 |
|     386 | 0x3C82      |       15490 |
|     387 | 0x3C83      |       15491 |
|     388 | 0x3C84      |       15492 |
|     389 | 0x3C85      |       15493 |
|     390 | 0x3C86      |       15494 |
|     391 | 0x3C87      |       15495 |
|     392 | 0x3C88      |       15496 |
|     393 | 0x3C89      |       15497 |
|     394 | 0x3C8A      |       15498 |
|     395 | 0x3C8B      |       15499 |
|     396 | 0x3C8C      |       15500 |
|     397 | 0x3C8D      |       15501 |
|     398 | 0x3C8E      |       15502 |
|     399 | 0x3C8F      |       15503 |
|     400 | 0x3C90      |       15504 |
|     401 | 0x3C91      |       15505 |
|     402 | 0x00AE      |         174 |
|     403 | 0x0096      |         150 |
|     404 | 0x00B1      |         177 |
|     405 | 0x0400      |        1024 |
|     406 | 0x3C92      |       15506 |
|     407 | 0x3C93      |       15507 |
|     408 | 0x3C94      |       15508 |
|     409 | 0x3C95      |       15509 |
|     410 | 0x3C96      |       15510 |
|     411 | 0x3C97      |       15511 |
|     412 | 0x3C98      |       15512 |
|     413 | 0x09E8      |        2536 |
|     414 | 0x1C0FA     |      114938 |
|     415 | 0x0C1D      |        3101 |
|     416 | 0x04B9      |        1209 |
|     417 | 0x00B2      |         178 |
|     418 | 0x3C99      |       15513 |
|     419 | 0x3C9A      |       15514 |
|     420 | 0x3C9B      |       15515 |
|     421 | 0x3C9C      |       15516 |

## String References

- **12616**: Do you dare to dream? [Yes, I'll fight to the end!/Reality is not that kind...]
- **12627**: Is this your doing? [All part of my plan./Of course not!]
- **12758**: Would you be so kind? [Certainly./I am afraid not.]
- **15400**: Smash her to bits? [Let me get my hammer./I want to see how this plays out.]
- **15410**: What does the ritual require? [Bonds of trust./Bonds of camaraderie./Bonds of friendship.]
- **15417**: What comes next? ["...te..."!]
- **15420**: A whispering voice floats to your ears from nowhere in particular...
- **15432**: You find the small scroll Cherukiki was holding crumpled in your bags.
- **15433**: You cannot shake the feeling that she is pulling a fast one...
- **15436**: Are you involved with the initiative? [Sure am!/Definitely not!]
- **15440**: Would you like Maat's alter ego? [Indubitably./Eeew.]

## Events

### Event 65535

#### Metadata

| Field        | Value   |
|--------------|---------|
| Entrypoint   | 0x0000  |
| Data Size    | 1 bytes |
| Instructions | 1       |

```
      00 01 02 03 04 05 06 07  08 09 0A 0B 0C 0D 0E 0F
      -- -- -- -- -- -- -- --  -- -- -- -- -- -- -- --
0000: 00                                                .               
```

#### Opcodes

```
  0: 0x0000 [0x00] END_REQSTACK()
```

### Event 10046

#### Metadata

| Field        | Value      |
|--------------|------------|
| Entrypoint   | 0x0001     |
| Data Size    | 1921 bytes |
| Instructions | 257        |

```
      00 01 02 03 04 05 06 07  08 09 0A 0B 0C 0D 0E 0F
      -- -- -- -- -- -- -- --  -- -- -- -- -- -- -- --
0000:    20 01 42 46 01 4A 0F  30 0F 01 F0 FF FF 7F 45    .BF.J.0......E
0010: 00 80 F8 FF FF 7F F8 FF  FF 7F 66 64 6F 31 01 80  ..........fdo1..
0020: 1C 02 80 6F 76 0F 30 0F  01 38 03 80 29 08 F0 FF  ...ov.0..8..)...
0030: FF 7F 69 29 0B F0 FF FF  7F 6A 29 0B A7 30 0F 01  ..i).....j)..0..
0040: 43 4E 00 A7 30 0F 01 80  A7 30 0F 01 4A 0F 30 0F  CN..0....0..J.0.
0050: 01 F0 FF FF 7F 6F 76 0F  30 0F 01 75 00 04 80 75  .....ov.0..u...u
0060: 01 29 0B 93 30 0F 01 02  1C 02 80 45 05 80 F8 FF  .)..0......E....
0070: FF 7F F8 FF FF 7F 73 30  30 30 01 80 45 00 80 F8  ......s000..E...
0080: FF FF 7F F8 FF FF 7F 66  64 69 31 01 80 1C 06 80  .......fdi1.....
0090: 9C 00 00 02 00 00 07 80  80 A1 00 7D 08 80 01 CB  ...........}....
00A0: 00 02 00 00 09 80 80 AF  00 7D 0A 80 01 CB 00 02  .........}......
00B0: 00 00 0B 80 80 BD 00 7D  0C 80 01 CB 00 02 00 00  .......}........
00C0: 0D 80 80 CB 00 7D 0E 80  01 CB 00 1C 0F 80 29 08  .....}........).
00D0: 0F 30 0F 01 17 2B 0F 30  0F 01 10 80 23 29 08 0F  .0...+.0....#)..
00E0: 30 0F 01 18 52 05 80 F8  FF FF 7F F8 FF FF 7F 73  0...R..........s
00F0: 30 30 30 45 05 80 F8 FF  FF 7F F8 FF FF 7F 73 30  000E..........s0
0100: 30 31 01 80 29 08 0F 30  0F 01 19 2B 0F 30 0F 01  01..)..0...+.0..
0110: 11 80 23 29 08 0F 30 0F  01 1A 2B 0F 30 0F 01 12  ..#)..0...+.0...
0120: 80 23 52 05 80 F8 FF FF  7F F8 FF FF 7F 73 30 30  .#R..........s00
0130: 31 45 05 80 F8 FF FF 7F  F8 FF FF 7F 73 30 30 33  1E..........s003
0140: 01 80 29 08 0F 30 0F 01  1B 2B 0F 30 0F 01 13 80  ..)..0...+.0....
0150: 23 29 08 0F 30 0F 01 1C  29 08 0F 30 0F 01 1D 2B  #)..0...)..0...+
0160: 0F 30 0F 01 14 80 23 29  08 0F 30 0F 01 1E 5D 01  .0....#)..0...].
0170: 80 06 80 29 0B 93 30 0F  01 02 79 00 0F 30 0F 01  ...)..0...y..0..
0180: A7 30 0F 01 1C 15 80 4A  0F 30 0F 01 A7 30 0F 01  .0.....J.0...0..
0190: 52 05 80 F8 FF FF 7F F8  FF FF 7F 73 30 30 33 45  R..........s003E
01A0: 05 80 F8 FF FF 7F F8 FF  FF 7F 73 30 30 34 01 80  ..........s004..
01B0: 4A F0 FF FF 7F A7 30 0F  01 79 00 A7 30 0F 01 F0  J.....0..y..0...
01C0: FF FF 7F 27 0B A7 30 0F  01 44 2A 0B A7 30 0F 01  ...'..0..D*..0..
01D0: 2B A7 30 0F 01 16 80 23  29 08 A7 30 0F 01 01 2B  +.0....#)..0...+
01E0: A7 30 0F 01 17 80 23 45  00 80 F8 FF FF 7F F8 FF  .0....#E........
01F0: FF 7F 66 64 6F 31 01 80  1C 02 80 29 08 A7 30 0F  ..fdo1.....)..0.
0200: 01 02 29 08 A7 30 0F 01  41 29 0B F0 FF FF 7F 6B  ..)..0..A).....k
0210: 29 0B A7 30 0F 01 45 29  0B 93 30 0F 01 03 29 0B  )..0..E)..0...).
0220: A8 30 0F 01 38 4E 00 A8  30 0F 01 80 A8 30 0F 01  .0..8N..0....0..
0230: 29 08 A7 30 0F 01 05 29  08 A7 30 0F 01 06 5C 00  )..0...)..0...\.
0240: 18 80 5C 01 18 80 1C 06  80 52 05 80 F8 FF FF 7F  ..\......R......
0250: F8 FF FF 7F 73 30 30 34  02 09 10 19 80 00 74 02  ....s004......t.
0260: 45 05 80 F8 FF FF 7F F8  FF FF 7F 73 30 31 37 01  E..........s017.
0270: 80 01 A1 02 02 09 10 1A  80 00 90 02 45 05 80 F8  ............E...
0280: FF FF 7F F8 FF FF 7F 73  30 31 37 01 80 01 A1 02  .......s017.....
0290: 45 05 80 F8 FF FF 7F F8  FF FF 7F 73 30 30 35 01  E..........s005.
02A0: 80 45 00 80 F8 FF FF 7F  F8 FF FF 7F 66 64 69 31  .E..........fdi1
02B0: 01 80 1C 02 80 29 08 A7  30 0F 01 07 29 08 A7 30  .....)..0...)..0
02C0: 0F 01 08 7B A7 30 0F 01  02 09 10 19 80 00 E2 02  ...{.0..........
02D0: 52 05 80 F8 FF FF 7F F8  FF FF 7F 73 30 31 37 01  R..........s017.
02E0: 0B 03 02 09 10 1A 80 00  FC 02 52 05 80 F8 FF FF  ..........R.....
02F0: 7F F8 FF FF 7F 73 30 31  37 01 0B 03 52 05 80 F8  .....s017...R...
0300: FF FF 7F F8 FF FF 7F 73  30 30 35 45 00 80 F0 FF  .......s005E....
0310: FF 7F F0 FF FF 7F 6F 76  6C 31 01 80 45 05 80 F8  ......ovl1..E...
0320: FF FF 7F F8 FF FF 7F 73  30 30 37 01 80 29 08 A7  .......s007..)..
0330: 30 0F 01 2B 2B A7 30 0F  01 1B 80 23 29 08 A7 30  0..++.0....#)..0
0340: 0F 01 2C 29 08 A7 30 0F  01 2D 2B A7 30 0F 01 1C  ..,)..0..-+.0...
0350: 80 23 29 08 A7 30 0F 01  2E 52 05 80 F8 FF FF 7F  .#)..0...R......
0360: F8 FF FF 7F 73 30 30 37  02 09 10 1D 80 00 84 03  ....s007........
0370: 45 05 80 F8 FF FF 7F F8  FF FF 7F 73 30 31 33 01  E..........s013.
0380: 80 01 CD 03 02 09 10 19  80 00 A0 03 45 05 80 F8  ............E...
0390: FF FF 7F F8 FF FF 7F 73  30 31 34 01 80 01 CD 03  .......s014.....
03A0: 02 09 10 1A 80 00 BC 03  45 05 80 F8 FF FF 7F F8  ........E.......
03B0: FF FF 7F 73 30 31 34 01  80 01 CD 03 45 05 80 F8  ...s014.....E...
03C0: FF FF 7F F8 FF FF 7F 73  30 30 36 01 80 27 0B A7  .......s006..'..
03D0: 30 0F 01 46 2B A7 30 0F  01 1E 80 23 2A 0B A7 30  0..F+.0....#*..0
03E0: 0F 01 4A A7 30 0F 01 F0  FF FF 7F 6F 76 A7 30 0F  ..J.0......ov.0.
03F0: 01 1C 1F 80 29 08 A7 30  0F 01 01 2B A7 30 0F 01  ....)..0...+.0..
0400: 20 80 23 29 08 A7 30 0F  01 02 27 0B A8 30 0F 01   .#)..0...'..0..
0410: 39 1C 1A 80 02 09 10 1D  80 00 2E 04 52 05 80 F8  9...........R...
0420: FF FF 7F F8 FF FF 7F 73  30 31 33 01 71 04 02 09  .......s013.q...
0430: 10 19 80 00 48 04 52 05  80 F8 FF FF 7F F8 FF FF  ....H.R.........
0440: 7F 73 30 31 34 01 71 04  02 09 10 1A 80 00 62 04  .s014.q.......b.
0450: 52 05 80 F8 FF FF 7F F8  FF FF 7F 73 30 31 34 01  R..........s014.
0460: 71 04 52 05 80 F8 FF FF  7F F8 FF FF 7F 73 30 30  q.R..........s00
0470: 36 45 05 80 F8 FF FF 7F  F8 FF FF 7F 73 30 30 38  6E..........s008
0480: 01 80 02 09 10 19 80 00  96 04 4A F0 FF FF 7F A8  ..........J.....
0490: 30 0F 01 01 BB 04 02 09  10 1A 80 00 AA 04 4A F0  0.............J.
04A0: FF FF 7F A8 30 0F 01 01  BB 04 79 00 F0 FF FF 7F  ....0.....y.....
04B0: A8 30 0F 01 4B F0 FF FF  7F 21 80 4A A7 30 0F 01  .0..K....!.J.0..
04C0: A8 30 0F 01 2B A8 30 0F  01 22 80 23 1C 23 80 52  .0..+.0..".#.#.R
04D0: 05 80 F8 FF FF 7F F8 FF  FF 7F 73 30 30 38 45 00  ..........s008E.
04E0: 80 F0 FF FF 7F F0 FF FF  7F 6F 76 6C 31 01 80 02  .........ovl1...
04F0: 09 10 19 80 00 0B 05 45  05 80 F8 FF FF 7F F8 FF  .......E........
0500: FF 7F 73 30 31 35 01 80  01 38 05 02 09 10 1A 80  ..s015...8......
0510: 00 27 05 45 05 80 F8 FF  FF 7F F8 FF FF 7F 73 30  .'.E..........s0
0520: 31 35 01 80 01 38 05 45  05 80 F8 FF FF 7F F8 FF  15...8.E........
0530: FF 7F 73 30 30 39 01 80  29 08 A7 30 0F 01 03 2B  ..s009..)..0...+
0540: A7 30 0F 01 24 80 23 29  08 A7 30 0F 01 04 2A 0B  .0..$.#)..0...*.
0550: A8 30 0F 01 02 09 10 19  80 00 6E 05 52 05 80 F8  .0........n.R...
0560: FF FF 7F F8 FF FF 7F 73  30 31 35 01 97 05 02 09  .......s015.....
0570: 10 1A 80 00 88 05 52 05  80 F8 FF FF 7F F8 FF FF  ......R.........
0580: 7F 73 30 31 35 01 97 05  52 05 80 F8 FF FF 7F F8  .s015...R.......
0590: FF FF 7F 73 30 30 39 45  05 80 F8 FF FF 7F F8 FF  ...s009E........
05A0: FF 7F 73 30 30 32 01 80  29 0B F0 FF FF 7F 6C 29  ..s002..).....l)
05B0: 0B A7 30 0F 01 47 4A A7  30 0F 01 A8 30 0F 01 4A  ..0..GJ.0...0..J
05C0: F0 FF FF 7F A8 30 0F 01  29 08 A8 30 0F 01 01 2B  .....0..)..0...+
05D0: A8 30 0F 01 25 80 23 2B  A8 30 0F 01 26 80 23 29  .0..%.#+.0..&.#)
05E0: 08 A8 30 0F 01 02 6F 76  F0 FF FF 7F 6F 76 A7 30  ..0...ov....ov.0
05F0: 0F 01 52 05 80 F8 FF FF  7F F8 FF FF 7F 73 30 30  ..R..........s00
0600: 32 02 09 10 19 80 00 1D  06 45 05 80 F8 FF FF 7F  2........E......
0610: F8 FF FF 7F 73 30 31 36  01 80 01 4A 06 02 09 10  ....s016...J....
0620: 1A 80 00 39 06 45 05 80  F8 FF FF 7F F8 FF FF 7F  ...9.E..........
0630: 73 30 31 36 01 80 01 4A  06 45 05 80 F8 FF FF 7F  s016...J.E......
0640: F8 FF FF 7F 73 30 31 30  01 80 29 08 A8 30 0F 01  ....s010..)..0..
0650: 03 2B A8 30 0F 01 27 80  23 29 08 A8 30 0F 01 04  .+.0..'.#)..0...
0660: 29 08 A7 30 0F 01 05 2B  A7 30 0F 01 28 80 23 02  )..0...+.0..(.#.
0670: 09 10 19 80 00 89 06 52  05 80 F8 FF FF 7F F8 FF  .......R........
0680: FF 7F 73 30 31 36 01 B2  06 02 09 10 1A 80 00 A3  ..s016..........
0690: 06 52 05 80 F8 FF FF 7F  F8 FF FF 7F 73 30 31 36  .R..........s016
06A0: 01 B2 06 52 05 80 F8 FF  FF 7F F8 FF FF 7F 73 30  ...R..........s0
06B0: 31 30 45 05 80 F8 FF FF  7F F8 FF FF 7F 73 30 31  10E..........s01
06C0: 31 01 80 7B A8 30 0F 01  27 0B A8 30 0F 01 3A 2B  1..{.0..'..0..:+
06D0: A8 30 0F 01 29 80 23 2A  0B A8 30 0F 01 79 00 A8  .0..).#*..0..y..
06E0: 30 0F 01 A7 30 0F 01 2B  A8 30 0F 01 2A 80 23 29  0...0..+.0..*.#)
06F0: 08 A7 30 0F 01 06 52 05  80 F8 FF FF 7F F8 FF FF  ..0...R.........
0700: 7F 73 30 31 31 5D 01 80  2B 80 45 05 80 F8 FF FF  .s011]..+.E.....
0710: 7F F8 FF FF 7F 73 30 31  32 01 80 29 08 A7 30 0F  .....s012..)..0.
0720: 01 07 27 0B A8 30 0F 01  3B 1C 2B 80 45 00 80 F0  ..'..0..;.+.E...
0730: FF FF 7F F0 FF FF 7F 66  64 6F 31 01 80 1C 02 80  .......fdo1.....
0740: 52 05 80 F8 FF FF 7F F8  FF FF 7F 73 30 31 32 2A  R..........s012*
0750: 0B A8 30 0F 01 5C 00 2C  80 5C 01 2C 80 1C 06 80  ..0..\.,.\.,....
0760: 4E 00 F0 FF FF 7F 80 F0  FF FF 7F 46 00 45 00 80  N..........F.E..
0770: F0 FF FF 7F F0 FF FF 7F  66 64 69 31 01 80 20 00  ........fdi1.. .
0780: 21 00                                             !.              
```

#### Opcodes

```
  0: 0x0001 [0x20] SET_CLI_EVENT_UC_FLAG: Lock player control
  1: 0x0003 [0x42] SET_CLI_EVENT_CANCEL_DATA()
  2: 0x0004 [0x46] CAMERA_CONTROL: Disable user control
  3: 0x0006 [0x4A] Pherimociel (ID: 17772559/0x010F300F) looks at LocalPlayer
  4: 0x000F [0x45] LOAD_SCHEDULED_TASK: Load scheduler "fdo1" with entities [EventEntity, EventEntity], work=[200*, 0*]
  5: 0x0020 [0x1C] WAIT(60* ticks)
  6: 0x0023 [0x6F] WAIT_FRAME_DELAY: Yield until WaitTime reaches zero
  7: 0x0024 [0x76] CHECK_ENTITY_RENDER_FLAGS: Wait until Pherimociel (ID: 17772559/0x010F300F) Render.Flags0 and Render.Flags3 conditions are met
  8: 0x0029 [0x38] SET_CLIENT_EVENT_MODE(mode=19*)
  9: 0x002C [0x29] REQ_SET_WAIT(priority=0x08, entity_id=LocalPlayer, tag_num=0x69)
 10: 0x0033 [0x29] REQ_SET_WAIT(priority=0x0B, entity_id=LocalPlayer, tag_num=0x6A)
 11: 0x003A [0x29] REQ_SET_WAIT(priority=0x0B, entity_id=Ulmia (ID: 17772711/0x010F30A7), tag_num=0x43)
 12: 0x0041 [0x4E] SET_ENTITY_HIDE_FLAG: Show Ulmia (ID: 17772711/0x010F30A7)
 13: 0x0047 [0x80] LOAD_WAIT(entity=Ulmia (ID: 17772711/0x010F30A7))
 14: 0x004C [0x4A] Pherimociel (ID: 17772559/0x010F300F) looks at LocalPlayer
 15: 0x0055 [0x6F] WAIT_FRAME_DELAY: Yield until WaitTime reaches zero
 16: 0x0056 [0x76] CHECK_ENTITY_RENDER_FLAGS: Wait until Pherimociel (ID: 17772559/0x010F300F) Render.Flags0 and Render.Flags3 conditions are met
 17: 0x005B [0x75] LOAD_ROOM(Load indoor room, room=438*)
 18: 0x005F [0x75] LOAD_ROOM(No action)
 19: 0x0061 [0x29] REQ_SET_WAIT(priority=0x0B, entity_id=Door:Guard Post (ID: 17772691/0x010F3093), tag_num=0x02)
 20: 0x0068 [0x1C] WAIT(60* ticks)
 21: 0x006B [0x45] LOAD_SCHEDULED_TASK: Load scheduler "s000" with entities [EventEntity, EventEntity], work=[173*, 0*]
 22: 0x007C [0x45] LOAD_SCHEDULED_TASK: Load scheduler "fdi1" with entities [EventEntity, EventEntity], work=[200*, 0*]
 23: 0x008D [0x1C] WAIT(100* ticks)
 24: 0x0090 [0x9C] STORE_CLIENT_LANGUAGE_ID(result=0x00)
 25: 0x0093 [0x02] IF !(ExtData[1]->WorkLocal[0] == 1*) GOTO 0x00A1
 26: 0x009B [0x7D] LOAD_START_SCHEDULER_PLAYER: Load scheduler with animation_id 32776
 27: 0x009E [0x01] GOTO 0x00CB
 28: 0x00A1 [0x02] IF !(ExtData[1]->WorkLocal[0] == 2*) GOTO 0x00AF
 29: 0x00A9 [0x7D] LOAD_START_SCHEDULER_PLAYER: Load scheduler with animation_id 32778
 30: 0x00AC [0x01] GOTO 0x00CB
 31: 0x00AF [0x02] IF !(ExtData[1]->WorkLocal[0] == 3*) GOTO 0x00BD
 32: 0x00B7 [0x7D] LOAD_START_SCHEDULER_PLAYER: Load scheduler with animation_id 32780
 33: 0x00BA [0x01] GOTO 0x00CB
 34: 0x00BD [0x02] IF !(ExtData[1]->WorkLocal[0] == 4*) GOTO 0x00CB
 35: 0x00C5 [0x7D] LOAD_START_SCHEDULER_PLAYER: Load scheduler with animation_id 32782
 36: 0x00C8 [0x01] GOTO 0x00CB

SUBROUTINE_00CB:
 37: 0x00CB [0x1C] WAIT(500* ticks)
 38: 0x00CE [0x29] REQ_SET_WAIT(priority=0x08, entity_id=Pherimociel (ID: 17772559/0x010F300F), tag_num=0x17)
 39: 0x00D5 [0x2B] Pherimociel (ID: 17772559/0x010F300F) [12564*]:
    → "<Player>. What business do you have here today? If you seek Captain Wolfgang, he is currently..."
 40: 0x00DC [0x23] WAIT_FOR_DIALOG_INTERACTION
 41: 0x00DD [0x29] REQ_SET_WAIT(priority=0x08, entity_id=Pherimociel (ID: 17772559/0x010F300F), tag_num=0x18)
 42: 0x00E4 [0x52] END_LOAD_SCHEDULER: End scheduler "s000" with entities [EventEntity, EventEntity], work=173*
 43: 0x00F3 [0x45] LOAD_SCHEDULED_TASK: Load scheduler "s001" with entities [EventEntity, EventEntity], work=[173*, 0*]
 44: 0x0104 [0x29] REQ_SET_WAIT(priority=0x08, entity_id=Pherimociel (ID: 17772559/0x010F300F), tag_num=0x19)
 45: 0x010B [0x2B] Pherimociel (ID: 17772559/0x010F300F) [12565*]:
    → "You are here about the girl, Prishe? And the warrant for her arrest?"
 46: 0x0112 [0x23] WAIT_FOR_DIALOG_INTERACTION
 47: 0x0113 [0x29] REQ_SET_WAIT(priority=0x08, entity_id=Pherimociel (ID: 17772559/0x010F300F), tag_num=0x1A)
 48: 0x011A [0x2B] Pherimociel (ID: 17772559/0x010F300F) [12566*]:
    → "She presented herself at the palace of her own free will, not so long ago."
 49: 0x0121 [0x23] WAIT_FOR_DIALOG_INTERACTION
 50: 0x0122 [0x52] END_LOAD_SCHEDULER: End scheduler "s001" with entities [EventEntity, EventEntity], work=173*
 51: 0x0131 [0x45] LOAD_SCHEDULED_TASK: Load scheduler "s003" with entities [EventEntity, EventEntity], work=[173*, 0*]
 52: 0x0142 [0x29] REQ_SET_WAIT(priority=0x08, entity_id=Pherimociel (ID: 17772559/0x010F300F), tag_num=0x1B)
 53: 0x0149 [0x2B] Pherimociel (ID: 17772559/0x010F300F) [12567*]:
    → "Naturally, she was taken into custody, but her demands for an audience with a higher authority are becoming increasingly vocal."
 54: 0x0150 [0x23] WAIT_FOR_DIALOG_INTERACTION
 55: 0x0151 [0x29] REQ_SET_WAIT(priority=0x08, entity_id=Pherimociel (ID: 17772559/0x010F300F), tag_num=0x1C)
 56: 0x0158 [0x29] REQ_SET_WAIT(priority=0x08, entity_id=Pherimociel (ID: 17772559/0x010F300F), tag_num=0x1D)
 57: 0x015F [0x2B] Pherimociel (ID: 17772559/0x010F300F) [12568*]:
    → "I wonder if Captain Wolfgang will return from his duties any time in the near future..."
 58: 0x0166 [0x23] WAIT_FOR_DIALOG_INTERACTION
 59: 0x0167 [0x29] REQ_SET_WAIT(priority=0x08, entity_id=Pherimociel (ID: 17772559/0x010F300F), tag_num=0x1E)
 60: 0x016E [0x5D] SET_MUSIC_VOLUME(volume=0*, fade_time=100*)
 61: 0x0173 [0x29] REQ_SET_WAIT(priority=0x0B, entity_id=Door:Guard Post (ID: 17772691/0x010F3093), tag_num=0x02)
 62: 0x017A [0x79] Pherimociel (ID: 17772559/0x010F300F) looks at Ulmia (ID: 17772711/0x010F30A7) (Basic look)
 63: 0x0184 [0x1C] WAIT(30* ticks)
 64: 0x0187 [0x4A] Pherimociel (ID: 17772559/0x010F300F) looks at Ulmia (ID: 17772711/0x010F30A7)
 65: 0x0190 [0x52] END_LOAD_SCHEDULER: End scheduler "s003" with entities [EventEntity, EventEntity], work=173*
 66: 0x019F [0x45] LOAD_SCHEDULED_TASK: Load scheduler "s004" with entities [EventEntity, EventEntity], work=[173*, 0*]
 67: 0x01B0 [0x4A] LocalPlayer looks at Ulmia (ID: 17772711/0x010F30A7)
 68: 0x01B9 [0x79] Ulmia (ID: 17772711/0x010F30A7) looks at LocalPlayer (Basic look)
 69: 0x01C3 [0x27] REQ_SET(priority=0x0B, entity_id=Ulmia (ID: 17772711/0x010F30A7), tag_num=0x44)
 70: 0x01CA [0x2A] GET_REQ_LEVEL(level=11, entity_id=Ulmia (ID: 17772711/0x010F30A7))
 71: 0x01D0 [0x2B] Ulmia (ID: 17772711/0x010F30A7) [12569*]:
    → "<Player>!"
 72: 0x01D7 [0x23] WAIT_FOR_DIALOG_INTERACTION
 73: 0x01D8 [0x29] REQ_SET_WAIT(priority=0x08, entity_id=Ulmia (ID: 17772711/0x010F30A7), tag_num=0x01)
 74: 0x01DF [0x2B] Ulmia (ID: 17772711/0x010F30A7) [12570*]:
    → "I apologize for interrupting your conversation, but...could you walk with me for a moment?"
 75: 0x01E6 [0x23] WAIT_FOR_DIALOG_INTERACTION
 76: 0x01E7 [0x45] LOAD_SCHEDULED_TASK: Load scheduler "fdo1" with entities [EventEntity, EventEntity], work=[200*, 0*]
 77: 0x01F8 [0x1C] WAIT(60* ticks)
 78: 0x01FB [0x29] REQ_SET_WAIT(priority=0x08, entity_id=Ulmia (ID: 17772711/0x010F30A7), tag_num=0x02)
 79: 0x0202 [0x29] REQ_SET_WAIT(priority=0x08, entity_id=Ulmia (ID: 17772711/0x010F30A7), tag_num=0x41)
 80: 0x0209 [0x29] REQ_SET_WAIT(priority=0x0B, entity_id=LocalPlayer, tag_num=0x6B)
 81: 0x0210 [0x29] REQ_SET_WAIT(priority=0x0B, entity_id=Ulmia (ID: 17772711/0x010F30A7), tag_num=0x45)
 82: 0x0217 [0x29] REQ_SET_WAIT(priority=0x0B, entity_id=Door:Guard Post (ID: 17772691/0x010F3093), tag_num=0x03)
 83: 0x021E [0x29] REQ_SET_WAIT(priority=0x0B, entity_id=Tenzen (ID: 17772712/0x010F30A8), tag_num=0x38)
 84: 0x0225 [0x4E] SET_ENTITY_HIDE_FLAG: Show Tenzen (ID: 17772712/0x010F30A8)
 85: 0x022B [0x80] LOAD_WAIT(entity=Tenzen (ID: 17772712/0x010F30A8))
 86: 0x0230 [0x29] REQ_SET_WAIT(priority=0x08, entity_id=Ulmia (ID: 17772711/0x010F30A7), tag_num=0x05)
 87: 0x0237 [0x29] REQ_SET_WAIT(priority=0x08, entity_id=Ulmia (ID: 17772711/0x010F30A7), tag_num=0x06)
 88: 0x023E [0x5C] MUSIC_CONTROL: Set Idle (Day) music to song 159*
 89: 0x0242 [0x5C] MUSIC_CONTROL: Set Idle (Night) music to song 159*
 90: 0x0246 [0x1C] WAIT(100* ticks)
 91: 0x0249 [0x52] END_LOAD_SCHEDULER: End scheduler "s004" with entities [EventEntity, EventEntity], work=173*
 92: 0x0258 [0x02] IF !(Work_Zone[9] == 5*) GOTO 0x0274
 93: 0x0260 [0x45] LOAD_SCHEDULED_TASK: Load scheduler "s017" with entities [EventEntity, EventEntity], work=[173*, 0*]
 94: 0x0271 [0x01] GOTO 0x02A1
 95: 0x0274 [0x02] IF !(Work_Zone[9] == 6*) GOTO 0x0290
 96: 0x027C [0x45] LOAD_SCHEDULED_TASK: Load scheduler "s017" with entities [EventEntity, EventEntity], work=[173*, 0*]
 97: 0x028D [0x01] GOTO 0x02A1
 98: 0x0290 [0x45] LOAD_SCHEDULED_TASK: Load scheduler "s005" with entities [EventEntity, EventEntity], work=[173*, 0*]

SUBROUTINE_02A1:
 99: 0x02A1 [0x45] LOAD_SCHEDULED_TASK: Load scheduler "fdi1" with entities [EventEntity, EventEntity], work=[200*, 0*]
100: 0x02B2 [0x1C] WAIT(60* ticks)
101: 0x02B5 [0x29] REQ_SET_WAIT(priority=0x08, entity_id=Ulmia (ID: 17772711/0x010F30A7), tag_num=0x07)
102: 0x02BC [0x29] REQ_SET_WAIT(priority=0x08, entity_id=Ulmia (ID: 17772711/0x010F30A7), tag_num=0x08)
103: 0x02C3 [0x7B] Ulmia (ID: 17772711/0x010F30A7) stops talking
104: 0x02C8 [0x02] IF !(Work_Zone[9] == 5*) GOTO 0x02E2
105: 0x02D0 [0x52] END_LOAD_SCHEDULER: End scheduler "s017" with entities [EventEntity, EventEntity], work=173*
106: 0x02DF [0x01] GOTO 0x030B
107: 0x02E2 [0x02] IF !(Work_Zone[9] == 6*) GOTO 0x02FC
108: 0x02EA [0x52] END_LOAD_SCHEDULER: End scheduler "s017" with entities [EventEntity, EventEntity], work=173*
109: 0x02F9 [0x01] GOTO 0x030B
110: 0x02FC [0x52] END_LOAD_SCHEDULER: End scheduler "s005" with entities [EventEntity, EventEntity], work=173*

SUBROUTINE_030B:
111: 0x030B [0x45] LOAD_SCHEDULED_TASK: Load scheduler "ovl1" with entities [LocalPlayer, LocalPlayer], work=[200*, 0*]
112: 0x031C [0x45] LOAD_SCHEDULED_TASK: Load scheduler "s007" with entities [EventEntity, EventEntity], work=[173*, 0*]
113: 0x032D [0x29] REQ_SET_WAIT(priority=0x08, entity_id=Ulmia (ID: 17772711/0x010F30A7), tag_num=0x2B)
114: 0x0334 [0x2B] Ulmia (ID: 17772711/0x010F30A7) [12571*]:
    → "Why would Prishe surrender herself so easily...?"
115: 0x033B [0x23] WAIT_FOR_DIALOG_INTERACTION
116: 0x033C [0x29] REQ_SET_WAIT(priority=0x08, entity_id=Ulmia (ID: 17772711/0x010F30A7), tag_num=0x2C)
117: 0x0343 [0x29] REQ_SET_WAIT(priority=0x08, entity_id=Ulmia (ID: 17772711/0x010F30A7), tag_num=0x2D)
118: 0x034A [0x2B] Ulmia (ID: 17772711/0x010F30A7) [12572*]:
    → "I have no idea what she could be thinking."
119: 0x0351 [0x23] WAIT_FOR_DIALOG_INTERACTION
120: 0x0352 [0x29] REQ_SET_WAIT(priority=0x08, entity_id=Ulmia (ID: 17772711/0x010F30A7), tag_num=0x2E)
121: 0x0359 [0x52] END_LOAD_SCHEDULER: End scheduler "s007" with entities [EventEntity, EventEntity], work=173*
122: 0x0368 [0x02] IF !(Work_Zone[9] == 8*) GOTO 0x0384
123: 0x0370 [0x45] LOAD_SCHEDULED_TASK: Load scheduler "s013" with entities [EventEntity, EventEntity], work=[173*, 0*]
124: 0x0381 [0x01] GOTO 0x03CD
125: 0x0384 [0x02] IF !(Work_Zone[9] == 5*) GOTO 0x03A0
126: 0x038C [0x45] LOAD_SCHEDULED_TASK: Load scheduler "s014" with entities [EventEntity, EventEntity], work=[173*, 0*]
127: 0x039D [0x01] GOTO 0x03CD
128: 0x03A0 [0x02] IF !(Work_Zone[9] == 6*) GOTO 0x03BC
129: 0x03A8 [0x45] LOAD_SCHEDULED_TASK: Load scheduler "s014" with entities [EventEntity, EventEntity], work=[173*, 0*]
130: 0x03B9 [0x01] GOTO 0x03CD
131: 0x03BC [0x45] LOAD_SCHEDULED_TASK: Load scheduler "s006" with entities [EventEntity, EventEntity], work=[173*, 0*]

SUBROUTINE_03CD:
132: 0x03CD [0x27] REQ_SET(priority=0x0B, entity_id=Ulmia (ID: 17772711/0x010F30A7), tag_num=0x46)
133: 0x03D4 [0x2B] Ulmia (ID: 17772711/0x010F30A7) [12573*]:
    → "Thank the mercy of Altana that Prishe has escaped any punishment while the Jeunoan government is occupied with other matters."
134: 0x03DB [0x23] WAIT_FOR_DIALOG_INTERACTION
135: 0x03DC [0x2A] GET_REQ_LEVEL(level=11, entity_id=Ulmia (ID: 17772711/0x010F30A7))
136: 0x03E2 [0x4A] Ulmia (ID: 17772711/0x010F30A7) looks at LocalPlayer
137: 0x03EB [0x6F] WAIT_FRAME_DELAY: Yield until WaitTime reaches zero
138: 0x03EC [0x76] CHECK_ENTITY_RENDER_FLAGS: Wait until Ulmia (ID: 17772711/0x010F30A7) Render.Flags0 and Render.Flags3 conditions are met
139: 0x03F1 [0x1C] WAIT(10* ticks)
140: 0x03F4 [0x29] REQ_SET_WAIT(priority=0x08, entity_id=Ulmia (ID: 17772711/0x010F30A7), tag_num=0x01)
141: 0x03FB [0x2B] Ulmia (ID: 17772711/0x010F30A7) [12574*]:
    → "If we could only use this opportunity to rescue her somehow..."
142: 0x0402 [0x23] WAIT_FOR_DIALOG_INTERACTION
143: 0x0403 [0x29] REQ_SET_WAIT(priority=0x08, entity_id=Ulmia (ID: 17772711/0x010F30A7), tag_num=0x02)
144: 0x040A [0x27] REQ_SET(priority=0x0B, entity_id=Tenzen (ID: 17772712/0x010F30A8), tag_num=0x39)
145: 0x0411 [0x1C] WAIT(6* ticks)
146: 0x0414 [0x02] IF !(Work_Zone[9] == 8*) GOTO 0x042E
147: 0x041C [0x52] END_LOAD_SCHEDULER: End scheduler "s013" with entities [EventEntity, EventEntity], work=173*
148: 0x042B [0x01] GOTO 0x0471
149: 0x042E [0x02] IF !(Work_Zone[9] == 5*) GOTO 0x0448
150: 0x0436 [0x52] END_LOAD_SCHEDULER: End scheduler "s014" with entities [EventEntity, EventEntity], work=173*
151: 0x0445 [0x01] GOTO 0x0471
152: 0x0448 [0x02] IF !(Work_Zone[9] == 6*) GOTO 0x0462
153: 0x0450 [0x52] END_LOAD_SCHEDULER: End scheduler "s014" with entities [EventEntity, EventEntity], work=173*
154: 0x045F [0x01] GOTO 0x0471
155: 0x0462 [0x52] END_LOAD_SCHEDULER: End scheduler "s006" with entities [EventEntity, EventEntity], work=173*

SUBROUTINE_0471:
156: 0x0471 [0x45] LOAD_SCHEDULED_TASK: Load scheduler "s008" with entities [EventEntity, EventEntity], work=[173*, 0*]
157: 0x0482 [0x02] IF !(Work_Zone[9] == 5*) GOTO 0x0496
158: 0x048A [0x4A] LocalPlayer looks at Tenzen (ID: 17772712/0x010F30A8)
159: 0x0493 [0x01] GOTO 0x04BB
160: 0x0496 [0x02] IF !(Work_Zone[9] == 6*) GOTO 0x04AA
161: 0x049E [0x4A] LocalPlayer looks at Tenzen (ID: 17772712/0x010F30A8)
162: 0x04A7 [0x01] GOTO 0x04BB
163: 0x04AA [0x79] LocalPlayer looks at Tenzen (ID: 17772712/0x010F30A8) (Basic look)
164: 0x04B4 [0x4B] UPDATE_ENTITY_YAW(entity=LocalPlayer, yaw=11.0°*)

SUBROUTINE_04BB:
165: 0x04BB [0x4A] Ulmia (ID: 17772711/0x010F30A7) looks at Tenzen (ID: 17772712/0x010F30A8)
166: 0x04C4 [0x2B] Tenzen (ID: 17772712/0x010F30A8) [12575*]:
    → "<Player>! Lady Ulmia!"
167: 0x04CB [0x23] WAIT_FOR_DIALOG_INTERACTION
168: 0x04CC [0x1C] WAIT(80* ticks)
169: 0x04CF [0x52] END_LOAD_SCHEDULER: End scheduler "s008" with entities [EventEntity, EventEntity], work=173*
170: 0x04DE [0x45] LOAD_SCHEDULED_TASK: Load scheduler "ovl1" with entities [LocalPlayer, LocalPlayer], work=[200*, 0*]
171: 0x04EF [0x02] IF !(Work_Zone[9] == 5*) GOTO 0x050B
172: 0x04F7 [0x45] LOAD_SCHEDULED_TASK: Load scheduler "s015" with entities [EventEntity, EventEntity], work=[173*, 0*]
173: 0x0508 [0x01] GOTO 0x0538
174: 0x050B [0x02] IF !(Work_Zone[9] == 6*) GOTO 0x0527
175: 0x0513 [0x45] LOAD_SCHEDULED_TASK: Load scheduler "s015" with entities [EventEntity, EventEntity], work=[173*, 0*]
176: 0x0524 [0x01] GOTO 0x0538
177: 0x0527 [0x45] LOAD_SCHEDULED_TASK: Load scheduler "s009" with entities [EventEntity, EventEntity], work=[173*, 0*]

SUBROUTINE_0538:
178: 0x0538 [0x29] REQ_SET_WAIT(priority=0x08, entity_id=Ulmia (ID: 17772711/0x010F30A7), tag_num=0x03)
179: 0x053F [0x2B] Ulmia (ID: 17772711/0x010F30A7) [12576*]:
    → "Tenzen!"
180: 0x0546 [0x23] WAIT_FOR_DIALOG_INTERACTION
181: 0x0547 [0x29] REQ_SET_WAIT(priority=0x08, entity_id=Ulmia (ID: 17772711/0x010F30A7), tag_num=0x04)
182: 0x054E [0x2A] GET_REQ_LEVEL(level=11, entity_id=Tenzen (ID: 17772712/0x010F30A8))
183: 0x0554 [0x02] IF !(Work_Zone[9] == 5*) GOTO 0x056E
184: 0x055C [0x52] END_LOAD_SCHEDULER: End scheduler "s015" with entities [EventEntity, EventEntity], work=173*
185: 0x056B [0x01] GOTO 0x0597
186: 0x056E [0x02] IF !(Work_Zone[9] == 6*) GOTO 0x0588
187: 0x0576 [0x52] END_LOAD_SCHEDULER: End scheduler "s015" with entities [EventEntity, EventEntity], work=173*
188: 0x0585 [0x01] GOTO 0x0597
189: 0x0588 [0x52] END_LOAD_SCHEDULER: End scheduler "s009" with entities [EventEntity, EventEntity], work=173*

SUBROUTINE_0597:
190: 0x0597 [0x45] LOAD_SCHEDULED_TASK: Load scheduler "s002" with entities [EventEntity, EventEntity], work=[173*, 0*]
191: 0x05A8 [0x29] REQ_SET_WAIT(priority=0x0B, entity_id=LocalPlayer, tag_num=0x6C)
192: 0x05AF [0x29] REQ_SET_WAIT(priority=0x0B, entity_id=Ulmia (ID: 17772711/0x010F30A7), tag_num=0x47)
193: 0x05B6 [0x4A] Ulmia (ID: 17772711/0x010F30A7) looks at Tenzen (ID: 17772712/0x010F30A8)
194: 0x05BF [0x4A] LocalPlayer looks at Tenzen (ID: 17772712/0x010F30A8)
195: 0x05C8 [0x29] REQ_SET_WAIT(priority=0x08, entity_id=Tenzen (ID: 17772712/0x010F30A8), tag_num=0x01)
196: 0x05CF [0x2B] Tenzen (ID: 17772712/0x010F30A8) [12577*]:
    → "I am glad to have found you. You have heard of young Lady Prishe's predicament?"
197: 0x05D6 [0x23] WAIT_FOR_DIALOG_INTERACTION
198: 0x05D7 [0x2B] Tenzen (ID: 17772712/0x010F30A8) [12578*]:
    → "We need to gather everyone together to unite our actions and plan our next move."
199: 0x05DE [0x23] WAIT_FOR_DIALOG_INTERACTION
200: 0x05DF [0x29] REQ_SET_WAIT(priority=0x08, entity_id=Tenzen (ID: 17772712/0x010F30A8), tag_num=0x02)
201: 0x05E6 [0x6F] WAIT_FRAME_DELAY: Yield until WaitTime reaches zero
202: 0x05E7 [0x76] CHECK_ENTITY_RENDER_FLAGS: Wait until LocalPlayer Render.Flags0 and Render.Flags3 conditions are met
203: 0x05EC [0x6F] WAIT_FRAME_DELAY: Yield until WaitTime reaches zero
204: 0x05ED [0x76] CHECK_ENTITY_RENDER_FLAGS: Wait until Ulmia (ID: 17772711/0x010F30A7) Render.Flags0 and Render.Flags3 conditions are met
205: 0x05F2 [0x52] END_LOAD_SCHEDULER: End scheduler "s002" with entities [EventEntity, EventEntity], work=173*
206: 0x0601 [0x02] IF !(Work_Zone[9] == 5*) GOTO 0x061D
207: 0x0609 [0x45] LOAD_SCHEDULED_TASK: Load scheduler "s016" with entities [EventEntity, EventEntity], work=[173*, 0*]
208: 0x061A [0x01] GOTO 0x064A
209: 0x061D [0x02] IF !(Work_Zone[9] == 6*) GOTO 0x0639
210: 0x0625 [0x45] LOAD_SCHEDULED_TASK: Load scheduler "s016" with entities [EventEntity, EventEntity], work=[173*, 0*]
211: 0x0636 [0x01] GOTO 0x064A
212: 0x0639 [0x45] LOAD_SCHEDULED_TASK: Load scheduler "s010" with entities [EventEntity, EventEntity], work=[173*, 0*]

SUBROUTINE_064A:
213: 0x064A [0x29] REQ_SET_WAIT(priority=0x08, entity_id=Tenzen (ID: 17772712/0x010F30A8), tag_num=0x03)
214: 0x0651 [0x2B] Tenzen (ID: 17772712/0x010F30A8) [12579*]:
    → "The rest of our friends are waiting in a tavern in Upper Jeuno."
215: 0x0658 [0x23] WAIT_FOR_DIALOG_INTERACTION
216: 0x0659 [0x29] REQ_SET_WAIT(priority=0x08, entity_id=Tenzen (ID: 17772712/0x010F30A8), tag_num=0x04)
217: 0x0660 [0x29] REQ_SET_WAIT(priority=0x08, entity_id=Ulmia (ID: 17772711/0x010F30A7), tag_num=0x05)
218: 0x0667 [0x2B] Ulmia (ID: 17772711/0x010F30A7) [12580*]:
    → "A tavern in Upper Jeuno...?"
219: 0x066E [0x23] WAIT_FOR_DIALOG_INTERACTION
220: 0x066F [0x02] IF !(Work_Zone[9] == 5*) GOTO 0x0689
221: 0x0677 [0x52] END_LOAD_SCHEDULER: End scheduler "s016" with entities [EventEntity, EventEntity], work=173*
222: 0x0686 [0x01] GOTO 0x06B2
223: 0x0689 [0x02] IF !(Work_Zone[9] == 6*) GOTO 0x06A3
224: 0x0691 [0x52] END_LOAD_SCHEDULER: End scheduler "s016" with entities [EventEntity, EventEntity], work=173*
225: 0x06A0 [0x01] GOTO 0x06B2
226: 0x06A3 [0x52] END_LOAD_SCHEDULER: End scheduler "s010" with entities [EventEntity, EventEntity], work=173*

SUBROUTINE_06B2:
227: 0x06B2 [0x45] LOAD_SCHEDULED_TASK: Load scheduler "s011" with entities [EventEntity, EventEntity], work=[173*, 0*]
228: 0x06C3 [0x7B] Tenzen (ID: 17772712/0x010F30A8) stops talking
229: 0x06C8 [0x27] REQ_SET(priority=0x0B, entity_id=Tenzen (ID: 17772712/0x010F30A8), tag_num=0x3A)
230: 0x06CF [0x2B] Tenzen (ID: 17772712/0x010F30A8) [12581*]:
    → "Aldo has used his influence to secure the establishment for our exclusive use, if only for a short while."
231: 0x06D6 [0x23] WAIT_FOR_DIALOG_INTERACTION
232: 0x06D7 [0x2A] GET_REQ_LEVEL(level=11, entity_id=Tenzen (ID: 17772712/0x010F30A8))
233: 0x06DD [0x79] Tenzen (ID: 17772712/0x010F30A8) looks at Ulmia (ID: 17772711/0x010F30A7) (Basic look)
234: 0x06E7 [0x2B] Tenzen (ID: 17772712/0x010F30A8) [12582*]:
    → "I will await you on the premises. Until then."
235: 0x06EE [0x23] WAIT_FOR_DIALOG_INTERACTION
236: 0x06EF [0x29] REQ_SET_WAIT(priority=0x08, entity_id=Ulmia (ID: 17772711/0x010F30A7), tag_num=0x06)
237: 0x06F6 [0x52] END_LOAD_SCHEDULER: End scheduler "s011" with entities [EventEntity, EventEntity], work=173*
238: 0x0705 [0x5D] SET_MUSIC_VOLUME(volume=0*, fade_time=120*)
239: 0x070A [0x45] LOAD_SCHEDULED_TASK: Load scheduler "s012" with entities [EventEntity, EventEntity], work=[173*, 0*]
240: 0x071B [0x29] REQ_SET_WAIT(priority=0x08, entity_id=Ulmia (ID: 17772711/0x010F30A7), tag_num=0x07)
241: 0x0722 [0x27] REQ_SET(priority=0x0B, entity_id=Tenzen (ID: 17772712/0x010F30A8), tag_num=0x3B)
242: 0x0729 [0x1C] WAIT(120* ticks)
243: 0x072C [0x45] LOAD_SCHEDULED_TASK: Load scheduler "fdo1" with entities [LocalPlayer, LocalPlayer], work=[200*, 0*]
244: 0x073D [0x1C] WAIT(60* ticks)
245: 0x0740 [0x52] END_LOAD_SCHEDULER: End scheduler "s012" with entities [EventEntity, EventEntity], work=173*
246: 0x074F [0x2A] GET_REQ_LEVEL(level=11, entity_id=Tenzen (ID: 17772712/0x010F30A8))
247: 0x0755 [0x5C] MUSIC_CONTROL: Set Idle (Day) music to song 117*
248: 0x0759 [0x5C] MUSIC_CONTROL: Set Idle (Night) music to song 117*
249: 0x075D [0x1C] WAIT(100* ticks)
250: 0x0760 [0x4E] SET_ENTITY_HIDE_FLAG: Show LocalPlayer
251: 0x0766 [0x80] LOAD_WAIT(entity=LocalPlayer)
252: 0x076B [0x46] CAMERA_CONTROL: Restore default settings
253: 0x076D [0x45] LOAD_SCHEDULED_TASK: Load scheduler "fdi1" with entities [LocalPlayer, LocalPlayer], work=[200*, 0*]
254: 0x077E [0x20] SET_CLI_EVENT_UC_FLAG: Unlock player control
255: 0x0780 [0x21] END_EVENT
256: 0x0781 [0x00] END_REQSTACK()
```

### Event 10047

#### Metadata

| Field        | Value      |
|--------------|------------|
| Entrypoint   | 0x0782     |
| Data Size    | 2712 bytes |
| Instructions | 359        |

```
      00 01 02 03 04 05 06 07  08 09 0A 0B 0C 0D 0E 0F
      -- -- -- -- -- -- -- --  -- -- -- -- -- -- -- --
0780:       20 01 42 46 01 5D  01 80 07 80 45 00 80 F8     .BF.]....E...
0790: FF FF 7F F8 FF FF 7F 66  64 6F 31 01 80 1C 02 80  .......fdo1.....
07A0: 38 03 80 29 08 F0 FF FF  7F 69 29 0B F0 FF FF 7F  8..).....i).....
07B0: 6D 29 0B A7 30 0F 01 4B  4E 00 A7 30 0F 01 4E 00  m)..0..KN..0..N.
07C0: F0 FF FF 7F 5C 00 18 80  5C 01 18 80 80 A7 30 0F  ....\...\.....0.
07D0: 01 80 F0 FF FF 7F 4A F0  FF FF 7F A7 30 0F 01 45  ......J.....0..E
07E0: 05 80 F8 FF FF 7F F8 FF  FF 7F 73 30 31 38 01 80  ..........s018..
07F0: 45 00 80 F8 FF FF 7F F8  FF FF 7F 66 64 69 31 01  E..........fdi1.
0800: 80 1C 2D 80 55 05 80 F8  FF FF 7F F8 FF FF 7F 73  ..-.U..........s
0810: 30 31 38 27 0B F0 FF FF  7F 6E 1C 2E 80 45 00 80  018'.....n...E..
0820: F0 FF FF 7F F0 FF FF 7F  6F 76 6C 31 01 80 02 09  ........ovl1....
0830: 10 19 80 00 4A 08 45 05  80 F8 FF FF 7F F8 FF FF  ....J.E.........
0840: 7F 73 30 34 39 01 80 01  77 08 02 09 10 1A 80 00  .s049...w.......
0850: 66 08 45 05 80 F8 FF FF  7F F8 FF FF 7F 73 30 34  f.E..........s04
0860: 39 01 80 01 77 08 45 05  80 F8 FF FF 7F F8 FF FF  9...w.E.........
0870: 7F 73 30 31 39 01 80 2A  0B F0 FF FF 7F 4A A7 30  .s019..*.....J.0
0880: 0F 01 F0 FF FF 7F 6F 76  A7 30 0F 01 2B A7 30 0F  ......ov.0..+.0.
0890: 01 2F 80 23 7B A7 30 0F  01 29 08 A7 30 0F 01 2B  ./.#{.0..)..0..+
08A0: 1C 23 80 2B A7 30 0F 01  30 80 23 29 08 A7 30 0F  .#.+.0..0.#)..0.
08B0: 01 2C 02 09 10 19 80 00  CC 08 52 05 80 F8 FF FF  .,........R.....
08C0: 7F F8 FF FF 7F 73 30 34  39 01 F5 08 02 09 10 1A  .....s049.......
08D0: 80 00 E6 08 52 05 80 F8  FF FF 7F F8 FF FF 7F 73  ....R..........s
08E0: 30 34 39 01 F5 08 52 05  80 F8 FF FF 7F F8 FF FF  049...R.........
08F0: 7F 73 30 31 39 45 05 80  F8 FF FF 7F F8 FF FF 7F  .s019E..........
0900: 73 30 32 30 01 80 29 08  A7 30 0F 01 2D 2B A7 30  s020..)..0..-+.0
0910: 0F 01 31 80 23 29 08 A7  30 0F 01 2E 55 05 80 F8  ..1.#)..0...U...
0920: FF FF 7F F8 FF FF 7F 73  30 32 30 45 00 80 F0 FF  .......s020E....
0930: FF 7F F0 FF FF 7F 6F 76  6C 31 01 80 45 05 80 F8  ......ovl1..E...
0940: FF FF 7F F8 FF FF 7F 73  30 32 33 01 80 79 00 A7  .......s023..y..
0950: 30 0F 01 F0 FF FF 7F 2B  A7 30 0F 01 32 80 23 2B  0......+.0..2.#+
0960: A7 30 0F 01 33 80 23 52  05 80 F8 FF FF 7F F8 FF  .0..3.#R........
0970: FF 7F 73 30 32 33 45 05  80 F8 FF FF 7F F8 FF FF  ..s023E.........
0980: 7F 73 30 32 31 01 80 33  01 37 34 80 35 80 36 80  .s021..3.74.5.6.
0990: 37 80 79 00 A7 30 0F 01  A5 30 0F 01 27 0B A7 30  7.y..0...0..'..0
09A0: 0F 01 4C 2B A7 30 0F 01  38 80 23 2A 0B A7 30 0F  ..L+.0..8.#*..0.
09B0: 01 4A F0 FF FF 7F A7 30  0F 01 52 05 80 F8 FF FF  .J.....0..R.....
09C0: 7F F8 FF FF 7F 73 30 32  31 45 00 80 F0 FF FF 7F  .....s021E......
09D0: F0 FF FF 7F 6F 76 6C 31  01 80 02 09 10 19 80 00  ....ovl1........
09E0: F6 09 45 05 80 F8 FF FF  7F F8 FF FF 7F 73 30 35  ..E..........s05
09F0: 30 01 80 01 23 0A 02 09  10 1A 80 00 12 0A 45 05  0...#.........E.
0A00: 80 F8 FF FF 7F F8 FF FF  7F 73 30 35 30 01 80 01  .........s050...
0A10: 23 0A 45 05 80 F8 FF FF  7F F8 FF FF 7F 73 30 32  #.E..........s02
0A20: 32 01 80 7B A7 30 0F 01  2B A7 30 0F 01 39 80 23  2..{.0..+.0..9.#
0A30: 6F 76 F0 FF FF 7F 1C 02  80 45 00 80 F8 FF FF 7F  ov.......E......
0A40: F8 FF FF 7F 66 64 6F 31  01 80 1C 02 80 52 05 80  ....fdo1.....R..
0A50: F8 FF FF 7F F8 FF FF 7F  73 30 32 32 29 08 A7 30  ........s022)..0
0A60: 0F 01 1F 29 08 A7 30 0F  01 20 79 00 A7 30 0F 01  ...)..0.. y..0..
0A70: A5 30 0F 01 1C 3A 80 45  00 80 F0 FF FF 7F F0 FF  .0...:.E........
0A80: FF 7F 6F 76 6C 31 01 80  45 05 80 F8 FF FF 7F F8  ..ovl1..E.......
0A90: FF FF 7F 73 30 32 34 01  80 45 00 80 F8 FF FF 7F  ...s024..E......
0AA0: F8 FF FF 7F 66 64 69 31  01 80 1C 02 80 2B A7 30  ....fdi1.....+.0
0AB0: 0F 01 3B 80 23 2B A7 30  0F 01 3C 80 23 29 08 A7  ..;.#+.0..<.#)..
0AC0: 30 0F 01 21 29 08 A7 30  0F 01 22 52 05 80 F8 FF  0..!)..0.."R....
0AD0: FF 7F F8 FF FF 7F 73 30  32 34 02 09 10 0B 80 00  ......s024......
0AE0: F6 0A 45 05 80 F8 FF FF  7F F8 FF FF 7F 73 30 34  ..E..........s04
0AF0: 38 01 80 01 5B 0B 02 09  10 19 80 00 12 0B 45 05  8...[.........E.
0B00: 80 F8 FF FF 7F F8 FF FF  7F 73 30 35 31 01 80 01  .........s051...
0B10: 5B 0B 02 09 10 1A 80 00  2E 0B 45 05 80 F8 FF FF  [.........E.....
0B20: 7F F8 FF FF 7F 73 30 35  31 01 80 01 5B 0B 02 09  .....s051...[...
0B30: 10 1D 80 00 4A 0B 45 05  80 F8 FF FF 7F F8 FF FF  ....J.E.........
0B40: 7F 73 30 34 38 01 80 01  5B 0B 45 05 80 F8 FF FF  .s048...[.E.....
0B50: 7F F8 FF FF 7F 73 30 32  35 01 80 4A A7 30 0F 01  .....s025..J.0..
0B60: F0 FF FF 7F 6F 76 A7 30  0F 01 2B A7 30 0F 01 3D  ....ov.0..+.0..=
0B70: 80 23 2B A7 30 0F 01 3E  80 23 5D 01 80 2B 80 45  .#+.0..>.#]..+.E
0B80: 00 80 F8 FF FF 7F F8 FF  FF 7F 66 64 6F 31 01 80  ..........fdo1..
0B90: 1C 02 80 02 09 10 0B 80  00 AD 0B 52 05 80 F8 FF  ...........R....
0BA0: FF 7F F8 FF FF 7F 73 30  34 38 01 0A 0C 02 09 10  ......s048......
0BB0: 19 80 00 C7 0B 52 05 80  F8 FF FF 7F F8 FF FF 7F  .....R..........
0BC0: 73 30 35 31 01 0A 0C 02  09 10 1A 80 00 E1 0B 52  s051...........R
0BD0: 05 80 F8 FF FF 7F F8 FF  FF 7F 73 30 35 31 01 0A  ..........s051..
0BE0: 0C 02 09 10 1D 80 00 FB  0B 52 05 80 F8 FF FF 7F  .........R......
0BF0: F8 FF FF 7F 73 30 34 38  01 0A 0C 52 05 80 F8 FF  ....s048...R....
0C00: FF 7F F8 FF FF 7F 73 30  32 35 34 3F 80 77 40 80  ......s0254?.w@.
0C10: 07 80 1C 06 80 75 00 41  80 75 01 29 0B A7 30 0F  .....u.A.u.)..0.
0C20: 01 4D 29 0B A6 30 0F 01  91 4E 00 A6 30 0F 01 80  .M)..0...N..0...
0C30: A6 30 0F 01 4A A7 30 0F  01 A6 30 0F 01 4A A6 30  .0..J.0...0..J.0
0C40: 0F 01 A7 30 0F 01 5C 00  42 80 5C 01 42 80 6F 76  ...0..\.B.\.B.ov
0C50: A7 30 0F 01 6F 76 A6 30  0F 01 4E 01 F0 FF FF 7F  .0..ov.0..N.....
0C60: 29 08 A6 30 0F 01 23 29  08 A7 30 0F 01 1F 29 08  )..0..#)..0...).
0C70: A6 30 0F 01 24 29 08 A7  30 0F 01 20 45 05 80 F8  .0..$)..0.. E...
0C80: FF FF 7F F8 FF FF 7F 73  30 33 31 01 80 45 00 80  .......s031..E..
0C90: F8 FF FF 7F F8 FF FF 7F  66 64 69 31 01 80 29 08  ........fdi1..).
0CA0: A7 30 0F 01 19 29 08 A7  30 0F 01 1A 29 08 A6 30  .0...)..0...)..0
0CB0: 0F 01 37 29 08 A6 30 0F  01 38 52 05 80 F8 FF FF  ..7)..0..8R.....
0CC0: 7F F8 FF FF 7F 73 30 33  31 45 00 80 F0 FF FF 7F  .....s031E......
0CD0: F0 FF FF 7F 6F 76 6C 31  01 80 45 05 80 F8 FF FF  ....ovl1..E.....
0CE0: 7F F8 FF FF 7F 73 30 33  32 01 80 29 08 A7 30 0F  .....s032..)..0.
0CF0: 01 03 29 08 A6 30 0F 01  2B 2B A6 30 0F 01 43 80  ..)..0..++.0..C.
0D00: 23 29 08 A6 30 0F 01 2C  29 08 A6 30 0F 01 2D 2B  #)..0..,)..0..-+
0D10: A6 30 0F 01 44 80 23 29  08 A6 30 0F 01 2E 29 08  .0..D.#)..0...).
0D20: A7 30 0F 01 04 52 05 80  F8 FF FF 7F F8 FF FF 7F  .0...R..........
0D30: 73 30 33 32 45 05 80 F8  FF FF 7F F8 FF FF 7F 73  s032E..........s
0D40: 30 33 33 01 80 29 08 A6  30 0F 01 29 29 08 A7 30  033..)..0..))..0
0D50: 0F 01 09 2B A7 30 0F 01  45 80 23 29 08 A7 30 0F  ...+.0..E.#)..0.
0D60: 01 0A 29 08 A7 30 0F 01  0B 2B A7 30 0F 01 46 80  ..)..0...+.0..F.
0D70: 23 29 08 A7 30 0F 01 0C  29 08 A6 30 0F 01 2A 52  #)..0...)..0..*R
0D80: 05 80 F8 FF FF 7F F8 FF  FF 7F 73 30 33 33 45 05  ..........s033E.
0D90: 80 F8 FF FF 7F F8 FF FF  7F 73 30 33 34 01 80 7B  .........s034..{
0DA0: A6 30 0F 01 27 0B A6 30  0F 01 92 2B A6 30 0F 01  .0..'..0...+.0..
0DB0: 47 80 23 2A 0B A6 30 0F  01 29 08 A6 30 0F 01 43  G.#*..0..)..0..C
0DC0: 2B A6 30 0F 01 48 80 23  29 08 A6 30 0F 01 44 29  +.0..H.#)..0..D)
0DD0: 08 A6 30 0F 01 45 29 08  A6 30 0F 01 46 52 05 80  ..0..E)..0..FR..
0DE0: F8 FF FF 7F F8 FF FF 7F  73 30 33 34 45 05 80 F8  ........s034E...
0DF0: FF FF 7F F8 FF FF 7F 73  30 33 35 01 80 27 0B A6  .......s035..'..
0E00: 30 0F 01 93 2B A6 30 0F  01 49 80 23 2A 0B A6 30  0...+.0..I.#*..0
0E10: 0F 01 29 08 A6 30 0F 01  0B 2B A6 30 0F 01 4A 80  ..)..0...+.0..J.
0E20: 23 29 08 A6 30 0F 01 0C  52 05 80 F8 FF FF 7F F8  #)..0...R.......
0E30: FF FF 7F 73 30 33 35 45  05 80 F8 FF FF 7F F8 FF  ...s035E........
0E40: FF 7F 73 30 33 36 01 80  29 08 A6 30 0F 01 0D 2B  ..s036..)..0...+
0E50: A6 30 0F 01 4B 80 23 29  08 A6 30 0F 01 0E 29 08  .0..K.#)..0...).
0E60: A7 30 0F 01 1B 2B A7 30  0F 01 4C 80 23 29 08 A7  .0...+.0..L.#)..
0E70: 30 0F 01 1C 52 05 80 F8  FF FF 7F F8 FF FF 7F 73  0...R..........s
0E80: 30 33 36 45 00 80 F0 FF  FF 7F F0 FF FF 7F 6F 76  036E..........ov
0E90: 6C 31 01 80 45 05 80 F8  FF FF 7F F8 FF FF 7F 73  l1..E..........s
0EA0: 30 33 37 01 80 29 08 A7  30 0F 01 1D 2B A7 30 0F  037..)..0...+.0.
0EB0: 01 4D 80 23 29 08 A7 30  0F 01 1E 29 08 A7 30 0F  .M.#)..0...)..0.
0EC0: 01 2B 2B A7 30 0F 01 4E  80 23 29 08 A7 30 0F 01  .++.0..N.#)..0..
0ED0: 2C 52 05 80 F8 FF FF 7F  F8 FF FF 7F 73 30 33 37  ,R..........s037
0EE0: 45 05 80 F8 FF FF 7F F8  FF FF 7F 73 30 33 38 01  E..........s038.
0EF0: 80 29 08 A7 30 0F 01 2D  29 08 A6 30 0F 01 0F 2B  .)..0..-)..0...+
0F00: A6 30 0F 01 4F 80 23 29  08 A6 30 0F 01 10 29 08  .0..O.#)..0...).
0F10: A7 30 0F 01 2E 2B A7 30  0F 01 50 80 23 5D 01 80  .0...+.0..P.#]..
0F20: 2B 80 45 00 80 F0 FF FF  7F F0 FF FF 7F 66 64 6F  +.E..........fdo
0F30: 31 01 80 1C 02 80 4E 01  A6 30 0F 01 35 51 80 78  1.....N..0..5Q.x
0F40: 1C 06 80 7B A7 30 0F 01  29 0B A7 30 0F 01 4E 4E  ...{.0..)..0..NN
0F50: 00 F0 FF FF 7F 5C 00 18  80 5C 01 18 80 80 F0 FF  .....\...\......
0F60: FF 7F 4A F0 FF FF 7F A7  30 0F 01 6F 76 F0 FF FF  ..J.....0..ov...
0F70: 7F 29 08 A7 30 0F 01 01  29 08 A7 30 0F 01 02 52  .)..0...)..0...R
0F80: 05 80 F8 FF FF 7F F8 FF  FF 7F 73 30 32 35 02 09  ..........s025..
0F90: 10 19 80 00 AA 0F 45 05  80 F8 FF FF 7F F8 FF FF  ......E.........
0FA0: 7F 73 30 35 32 01 80 01  D7 0F 02 09 10 1A 80 00  .s052...........
0FB0: C6 0F 45 05 80 F8 FF FF  7F F8 FF FF 7F 73 30 35  ..E..........s05
0FC0: 32 01 80 01 D7 0F 45 05  80 F8 FF FF 7F F8 FF FF  2.....E.........
0FD0: 7F 73 30 32 36 01 80 45  00 80 F8 FF FF 7F F8 FF  .s026..E........
0FE0: FF 7F 66 64 69 31 01 80  29 08 A7 30 0F 01 03 2B  ..fdi1..)..0...+
0FF0: A7 30 0F 01 52 80 23 29  08 A7 30 0F 01 04 29 08  .0..R.#)..0...).
1000: A7 30 0F 01 2B 2B A7 30  0F 01 53 80 23 29 08 A7  .0..++.0..S.#)..
1010: 30 0F 01 2C 29 08 A7 30  0F 01 2D 29 08 A7 30 0F  0..,)..0..-)..0.
1020: 01 2E 52 05 80 F8 FF FF  7F F8 FF FF 7F 73 30 32  ..R..........s02
1030: 36 45 05 80 F8 FF FF 7F  F8 FF FF 7F 73 30 32 37  6E..........s027
1040: 01 80 4A A7 30 0F 01 F0  FF FF 7F 2B A7 30 0F 01  ..J.0......+.0..
1050: 54 80 23 6F 76 A7 30 0F  01 29 08 A7 30 0F 01 09  T.#ov.0..)..0...
1060: 2B A7 30 0F 01 55 80 23  29 08 A7 30 0F 01 0A 52  +.0..U.#)..0...R
1070: 05 80 F8 FF FF 7F F8 FF  FF 7F 73 30 32 37 45 05  ..........s027E.
1080: 80 F8 FF FF 7F F8 FF FF  7F 73 30 32 38 01 80 02  .........s028...
1090: 09 10 1D 80 00 9D 10 4E  01 F0 FF FF 7F 29 08 A7  .......N.....)..
10A0: 30 0F 01 0F 2B A7 30 0F  01 56 80 23 2B A7 30 0F  0...+.0..V.#+.0.
10B0: 01 57 80 23 29 08 A7 30  0F 01 10 24 58 80 01 80  .W.#)..0...$X...
10C0: 01 80 25 02 00 10 01 80  00 E9 10 03 01 10 07 80  ..%.............
10D0: 29 08 A7 30 0F 01 13 2B  A7 30 0F 01 59 80 23 29  )..0...+.0..Y.#)
10E0: 08 A7 30 0F 01 14 01 0F  11 02 00 10 07 80 00 0F  ..0.............
10F0: 11 03 01 10 09 80 29 08  A7 30 0F 01 15 2B A7 30  ......)..0...+.0
1100: 0F 01 5A 80 23 29 08 A7  30 0F 01 16 01 0F 11 29  ..Z.#)..0......)
1110: 0B F0 FF FF 7F 6F 02 09  10 1D 80 00 24 11 4E 00  .....o......$.N.
1120: F0 FF FF 7F 52 05 80 F8  FF FF 7F F8 FF FF 7F 73  ....R..........s
1130: 30 32 38 45 05 80 F8 FF  FF 7F F8 FF FF 7F 73 30  028E..........s0
1140: 32 39 01 80 02 01 10 07  80 00 5D 11 29 08 A7 30  29........].)..0
1150: 0F 01 07 29 08 A7 30 0F  01 08 01 6B 11 29 08 A7  ...)..0....k.)..
1160: 30 0F 01 21 29 08 A7 30  0F 01 22 7B A7 30 0F 01  0..!)..0.."{.0..
1170: 27 0B A7 30 0F 01 4F 2B  A7 30 0F 01 5B 80 23 2A  '..0..O+.0..[.#*
1180: 0B A7 30 0F 01 52 05 80  F8 FF FF 7F F8 FF FF 7F  ..0..R..........
1190: 73 30 32 39 45 00 80 F0  FF FF 7F F0 FF FF 7F 6F  s029E..........o
11A0: 76 6C 31 01 80 45 05 80  F8 FF FF 7F F8 FF FF 7F  vl1..E..........
11B0: 73 30 33 30 01 80 2B A7  30 0F 01 5C 80 23 5D 01  s030..+.0..\.#].
11C0: 80 2B 80 27 0B A7 30 0F  01 50 1C 23 80 45 00 80  .+.'..0..P.#.E..
11D0: F0 FF FF 7F F0 FF FF 7F  66 64 6F 31 01 80 1C 02  ........fdo1....
11E0: 80 5C 00 2C 80 5C 01 2C  80 52 05 80 F8 FF FF 7F  .\.,.\.,.R......
11F0: F8 FF FF 7F 73 30 33 30  4E 00 F0 FF FF 7F 80 F0  ....s030N.......
1200: FF FF 7F 46 00 45 00 80  F0 FF FF 7F F0 FF FF 7F  ...F.E..........
1210: 66 64 69 31 01 80 20 00  21 00                    fdi1.. .!.      
```

#### Opcodes

```
  0: 0x0782 [0x20] SET_CLI_EVENT_UC_FLAG: Lock player control
  1: 0x0784 [0x42] SET_CLI_EVENT_CANCEL_DATA()
  2: 0x0785 [0x46] CAMERA_CONTROL: Disable user control
  3: 0x0787 [0x5D] SET_MUSIC_VOLUME(volume=0*, fade_time=1*)
  4: 0x078C [0x45] LOAD_SCHEDULED_TASK: Load scheduler "fdo1" with entities [EventEntity, EventEntity], work=[200*, 0*]
  5: 0x079D [0x1C] WAIT(60* ticks)
  6: 0x07A0 [0x38] SET_CLIENT_EVENT_MODE(mode=19*)
  7: 0x07A3 [0x29] REQ_SET_WAIT(priority=0x08, entity_id=LocalPlayer, tag_num=0x69)
  8: 0x07AA [0x29] REQ_SET_WAIT(priority=0x0B, entity_id=LocalPlayer, tag_num=0x6D)
  9: 0x07B1 [0x29] REQ_SET_WAIT(priority=0x0B, entity_id=Ulmia (ID: 17772711/0x010F30A7), tag_num=0x4B)
 10: 0x07B8 [0x4E] SET_ENTITY_HIDE_FLAG: Show Ulmia (ID: 17772711/0x010F30A7)
 11: 0x07BE [0x4E] SET_ENTITY_HIDE_FLAG: Show LocalPlayer
 12: 0x07C4 [0x5C] MUSIC_CONTROL: Set Idle (Day) music to song 159*
 13: 0x07C8 [0x5C] MUSIC_CONTROL: Set Idle (Night) music to song 159*
 14: 0x07CC [0x80] LOAD_WAIT(entity=Ulmia (ID: 17772711/0x010F30A7))
 15: 0x07D1 [0x80] LOAD_WAIT(entity=LocalPlayer)
 16: 0x07D6 [0x4A] LocalPlayer looks at Ulmia (ID: 17772711/0x010F30A7)
 17: 0x07DF [0x45] LOAD_SCHEDULED_TASK: Load scheduler "s018" with entities [EventEntity, EventEntity], work=[173*, 0*]
 18: 0x07F0 [0x45] LOAD_SCHEDULED_TASK: Load scheduler "fdi1" with entities [EventEntity, EventEntity], work=[200*, 0*]
 19: 0x0801 [0x1C] WAIT(300* ticks)
 20: 0x0804 [0x55] WAIT_LOAD_SCHEDULER: Wait for scheduler "s018" with entities [EventEntity, EventEntity], work=173*
 21: 0x0813 [0x27] REQ_SET(priority=0x0B, entity_id=LocalPlayer, tag_num=0x6E)
 22: 0x081A [0x1C] WAIT(20* ticks)
 23: 0x081D [0x45] LOAD_SCHEDULED_TASK: Load scheduler "ovl1" with entities [LocalPlayer, LocalPlayer], work=[200*, 0*]
 24: 0x082E [0x02] IF !(Work_Zone[9] == 5*) GOTO 0x084A
 25: 0x0836 [0x45] LOAD_SCHEDULED_TASK: Load scheduler "s049" with entities [EventEntity, EventEntity], work=[173*, 0*]
 26: 0x0847 [0x01] GOTO 0x0877
 27: 0x084A [0x02] IF !(Work_Zone[9] == 6*) GOTO 0x0866
 28: 0x0852 [0x45] LOAD_SCHEDULED_TASK: Load scheduler "s049" with entities [EventEntity, EventEntity], work=[173*, 0*]
 29: 0x0863 [0x01] GOTO 0x0877
 30: 0x0866 [0x45] LOAD_SCHEDULED_TASK: Load scheduler "s019" with entities [EventEntity, EventEntity], work=[173*, 0*]

SUBROUTINE_0877:
 31: 0x0877 [0x2A] GET_REQ_LEVEL(level=11, entity_id=LocalPlayer)
 32: 0x087D [0x4A] Ulmia (ID: 17772711/0x010F30A7) looks at LocalPlayer
 33: 0x0886 [0x6F] WAIT_FRAME_DELAY: Yield until WaitTime reaches zero
 34: 0x0887 [0x76] CHECK_ENTITY_RENDER_FLAGS: Wait until Ulmia (ID: 17772711/0x010F30A7) Render.Flags0 and Render.Flags3 conditions are met
 35: 0x088C [0x2B] Ulmia (ID: 17772711/0x010F30A7) [12585*]:
    → "<Player>."
 36: 0x0893 [0x23] WAIT_FOR_DIALOG_INTERACTION
 37: 0x0894 [0x7B] Ulmia (ID: 17772711/0x010F30A7) stops talking
 38: 0x0899 [0x29] REQ_SET_WAIT(priority=0x08, entity_id=Ulmia (ID: 17772711/0x010F30A7), tag_num=0x2B)
 39: 0x08A0 [0x1C] WAIT(80* ticks)
 40: 0x08A3 [0x2B] Ulmia (ID: 17772711/0x010F30A7) [12586*]:
    → "I must apologize for my childish behavior. I never should have run off in such a flustered state."
 41: 0x08AA [0x23] WAIT_FOR_DIALOG_INTERACTION
 42: 0x08AB [0x29] REQ_SET_WAIT(priority=0x08, entity_id=Ulmia (ID: 17772711/0x010F30A7), tag_num=0x2C)
 43: 0x08B2 [0x02] IF !(Work_Zone[9] == 5*) GOTO 0x08CC
 44: 0x08BA [0x52] END_LOAD_SCHEDULER: End scheduler "s049" with entities [EventEntity, EventEntity], work=173*
 45: 0x08C9 [0x01] GOTO 0x08F5
 46: 0x08CC [0x02] IF !(Work_Zone[9] == 6*) GOTO 0x08E6
 47: 0x08D4 [0x52] END_LOAD_SCHEDULER: End scheduler "s049" with entities [EventEntity, EventEntity], work=173*
 48: 0x08E3 [0x01] GOTO 0x08F5
 49: 0x08E6 [0x52] END_LOAD_SCHEDULER: End scheduler "s019" with entities [EventEntity, EventEntity], work=173*

SUBROUTINE_08F5:
 50: 0x08F5 [0x45] LOAD_SCHEDULED_TASK: Load scheduler "s020" with entities [EventEntity, EventEntity], work=[173*, 0*]
 51: 0x0906 [0x29] REQ_SET_WAIT(priority=0x08, entity_id=Ulmia (ID: 17772711/0x010F30A7), tag_num=0x2D)
 52: 0x090D [0x2B] Ulmia (ID: 17772711/0x010F30A7) [12587*]:
    → "I do understand what everyone is saying."
 53: 0x0914 [0x23] WAIT_FOR_DIALOG_INTERACTION
 54: 0x0915 [0x29] REQ_SET_WAIT(priority=0x08, entity_id=Ulmia (ID: 17772711/0x010F30A7), tag_num=0x2E)
 55: 0x091C [0x55] WAIT_LOAD_SCHEDULER: Wait for scheduler "s020" with entities [EventEntity, EventEntity], work=173*
 56: 0x092B [0x45] LOAD_SCHEDULED_TASK: Load scheduler "ovl1" with entities [LocalPlayer, LocalPlayer], work=[200*, 0*]
 57: 0x093C [0x45] LOAD_SCHEDULED_TASK: Load scheduler "s023" with entities [EventEntity, EventEntity], work=[173*, 0*]
 58: 0x094D [0x79] Ulmia (ID: 17772711/0x010F30A7) looks at LocalPlayer (Basic look)
 59: 0x0957 [0x2B] Ulmia (ID: 17772711/0x010F30A7) [12588*]:
    → "I understand that the Wyrmking, Bahamut, plans to obliterate all the peoples of Vana'diel."
 60: 0x095E [0x23] WAIT_FOR_DIALOG_INTERACTION
 61: 0x095F [0x2B] Ulmia (ID: 17772711/0x010F30A7) [12589*]:
    → "Even with the might of the Jeuno Armada, many more innocent lives will be lost in this conflict if something is not done."
 62: 0x0966 [0x23] WAIT_FOR_DIALOG_INTERACTION
 63: 0x0967 [0x52] END_LOAD_SCHEDULER: End scheduler "s023" with entities [EventEntity, EventEntity], work=173*
 64: 0x0976 [0x45] LOAD_SCHEDULED_TASK: Load scheduler "s021" with entities [EventEntity, EventEntity], work=[173*, 0*]
 65: 0x0987 [0x33] EventEntity->Render.Flags0 |= 0x200000 // Bit 21 (flag=0x01)
 66: 0x0989 [0x37] UPDATE_EVENT_POSITION_AND_DIR: x=19.117*, z=-60.775*, y=-2.601*, direction=170.2°*
 67: 0x0992 [0x79] Ulmia (ID: 17772711/0x010F30A7) looks at ??? (ID: 17772709/0x010F30A5) (Basic look)
 68: 0x099C [0x27] REQ_SET(priority=0x0B, entity_id=Ulmia (ID: 17772711/0x010F30A7), tag_num=0x4C)
 69: 0x09A3 [0x2B] Ulmia (ID: 17772711/0x010F30A7) [12590*]:
    → "And I do understand that everyone truly wishes to rescue Prishe from her destiny..."
 70: 0x09AA [0x23] WAIT_FOR_DIALOG_INTERACTION
 71: 0x09AB [0x2A] GET_REQ_LEVEL(level=11, entity_id=Ulmia (ID: 17772711/0x010F30A7))
 72: 0x09B1 [0x4A] LocalPlayer looks at Ulmia (ID: 17772711/0x010F30A7)
 73: 0x09BA [0x52] END_LOAD_SCHEDULER: End scheduler "s021" with entities [EventEntity, EventEntity], work=173*
 74: 0x09C9 [0x45] LOAD_SCHEDULED_TASK: Load scheduler "ovl1" with entities [LocalPlayer, LocalPlayer], work=[200*, 0*]
 75: 0x09DA [0x02] IF !(Work_Zone[9] == 5*) GOTO 0x09F6
 76: 0x09E2 [0x45] LOAD_SCHEDULED_TASK: Load scheduler "s050" with entities [EventEntity, EventEntity], work=[173*, 0*]
 77: 0x09F3 [0x01] GOTO 0x0A23
 78: 0x09F6 [0x02] IF !(Work_Zone[9] == 6*) GOTO 0x0A12
 79: 0x09FE [0x45] LOAD_SCHEDULED_TASK: Load scheduler "s050" with entities [EventEntity, EventEntity], work=[173*, 0*]
 80: 0x0A0F [0x01] GOTO 0x0A23
 81: 0x0A12 [0x45] LOAD_SCHEDULED_TASK: Load scheduler "s022" with entities [EventEntity, EventEntity], work=[173*, 0*]

SUBROUTINE_0A23:
 82: 0x0A23 [0x7B] Ulmia (ID: 17772711/0x010F30A7) stops talking
 83: 0x0A28 [0x2B] Ulmia (ID: 17772711/0x010F30A7) [12591*]:
    → "However, it is as Lord Diabolos has said. We cannot save both the world and all of her people."
 84: 0x0A2F [0x23] WAIT_FOR_DIALOG_INTERACTION
 85: 0x0A30 [0x6F] WAIT_FRAME_DELAY: Yield until WaitTime reaches zero
 86: 0x0A31 [0x76] CHECK_ENTITY_RENDER_FLAGS: Wait until LocalPlayer Render.Flags0 and Render.Flags3 conditions are met
 87: 0x0A36 [0x1C] WAIT(60* ticks)
 88: 0x0A39 [0x45] LOAD_SCHEDULED_TASK: Load scheduler "fdo1" with entities [EventEntity, EventEntity], work=[200*, 0*]
 89: 0x0A4A [0x1C] WAIT(60* ticks)
 90: 0x0A4D [0x52] END_LOAD_SCHEDULER: End scheduler "s022" with entities [EventEntity, EventEntity], work=173*
 91: 0x0A5C [0x29] REQ_SET_WAIT(priority=0x08, entity_id=Ulmia (ID: 17772711/0x010F30A7), tag_num=0x1F)
 92: 0x0A63 [0x29] REQ_SET_WAIT(priority=0x08, entity_id=Ulmia (ID: 17772711/0x010F30A7), tag_num=0x20)
 93: 0x0A6A [0x79] Ulmia (ID: 17772711/0x010F30A7) looks at ??? (ID: 17772709/0x010F30A5) (Basic look)
 94: 0x0A74 [0x1C] WAIT(90* ticks)
 95: 0x0A77 [0x45] LOAD_SCHEDULED_TASK: Load scheduler "ovl1" with entities [LocalPlayer, LocalPlayer], work=[200*, 0*]
 96: 0x0A88 [0x45] LOAD_SCHEDULED_TASK: Load scheduler "s024" with entities [EventEntity, EventEntity], work=[173*, 0*]
 97: 0x0A99 [0x45] LOAD_SCHEDULED_TASK: Load scheduler "fdi1" with entities [EventEntity, EventEntity], work=[200*, 0*]
 98: 0x0AAA [0x1C] WAIT(60* ticks)
 99: 0x0AAD [0x2B] Ulmia (ID: 17772711/0x010F30A7) [12592*]:
    → "Lord Diabolos... I wonder if he called Prishe into his dreamworld because he knew the truth of her identity--that she is the Keeper of the Apocalypse."
100: 0x0AB4 [0x23] WAIT_FOR_DIALOG_INTERACTION
101: 0x0AB5 [0x2B] Ulmia (ID: 17772711/0x010F30A7) [12593*]:
    → "Was Cardinal Mildaurion also aware of this truth? Is that why she gave Prishe that amulet? But I still..."
102: 0x0ABC [0x23] WAIT_FOR_DIALOG_INTERACTION
103: 0x0ABD [0x29] REQ_SET_WAIT(priority=0x08, entity_id=Ulmia (ID: 17772711/0x010F30A7), tag_num=0x21)
104: 0x0AC4 [0x29] REQ_SET_WAIT(priority=0x08, entity_id=Ulmia (ID: 17772711/0x010F30A7), tag_num=0x22)
105: 0x0ACB [0x52] END_LOAD_SCHEDULER: End scheduler "s024" with entities [EventEntity, EventEntity], work=173*
106: 0x0ADA [0x02] IF !(Work_Zone[9] == 3*) GOTO 0x0AF6
107: 0x0AE2 [0x45] LOAD_SCHEDULED_TASK: Load scheduler "s048" with entities [EventEntity, EventEntity], work=[173*, 0*]
108: 0x0AF3 [0x01] GOTO 0x0B5B
109: 0x0AF6 [0x02] IF !(Work_Zone[9] == 5*) GOTO 0x0B12
110: 0x0AFE [0x45] LOAD_SCHEDULED_TASK: Load scheduler "s051" with entities [EventEntity, EventEntity], work=[173*, 0*]
111: 0x0B0F [0x01] GOTO 0x0B5B
112: 0x0B12 [0x02] IF !(Work_Zone[9] == 6*) GOTO 0x0B2E
113: 0x0B1A [0x45] LOAD_SCHEDULED_TASK: Load scheduler "s051" with entities [EventEntity, EventEntity], work=[173*, 0*]
114: 0x0B2B [0x01] GOTO 0x0B5B
115: 0x0B2E [0x02] IF !(Work_Zone[9] == 8*) GOTO 0x0B4A
116: 0x0B36 [0x45] LOAD_SCHEDULED_TASK: Load scheduler "s048" with entities [EventEntity, EventEntity], work=[173*, 0*]
117: 0x0B47 [0x01] GOTO 0x0B5B
118: 0x0B4A [0x45] LOAD_SCHEDULED_TASK: Load scheduler "s025" with entities [EventEntity, EventEntity], work=[173*, 0*]

SUBROUTINE_0B5B:
119: 0x0B5B [0x4A] Ulmia (ID: 17772711/0x010F30A7) looks at LocalPlayer
120: 0x0B64 [0x6F] WAIT_FRAME_DELAY: Yield until WaitTime reaches zero
121: 0x0B65 [0x76] CHECK_ENTITY_RENDER_FLAGS: Wait until Ulmia (ID: 17772711/0x010F30A7) Render.Flags0 and Render.Flags3 conditions are met
122: 0x0B6A [0x2B] Ulmia (ID: 17772711/0x010F30A7) [12594*]:
    → "<Player>, it may be too late at this point, but there is something I must tell you."
123: 0x0B71 [0x23] WAIT_FOR_DIALOG_INTERACTION
124: 0x0B72 [0x2B] Ulmia (ID: 17772711/0x010F30A7) [12595*]:
    → "When Prishe had collapsed, and her amulet was stolen..."
125: 0x0B79 [0x23] WAIT_FOR_DIALOG_INTERACTION
126: 0x0B7A [0x5D] SET_MUSIC_VOLUME(volume=0*, fade_time=120*)
127: 0x0B7F [0x45] LOAD_SCHEDULED_TASK: Load scheduler "fdo1" with entities [EventEntity, EventEntity], work=[200*, 0*]
128: 0x0B90 [0x1C] WAIT(60* ticks)
129: 0x0B93 [0x02] IF !(Work_Zone[9] == 3*) GOTO 0x0BAD
130: 0x0B9B [0x52] END_LOAD_SCHEDULER: End scheduler "s048" with entities [EventEntity, EventEntity], work=173*
131: 0x0BAA [0x01] GOTO 0x0C0A
132: 0x0BAD [0x02] IF !(Work_Zone[9] == 5*) GOTO 0x0BC7
133: 0x0BB5 [0x52] END_LOAD_SCHEDULER: End scheduler "s051" with entities [EventEntity, EventEntity], work=173*
134: 0x0BC4 [0x01] GOTO 0x0C0A
135: 0x0BC7 [0x02] IF !(Work_Zone[9] == 6*) GOTO 0x0BE1
136: 0x0BCF [0x52] END_LOAD_SCHEDULER: End scheduler "s051" with entities [EventEntity, EventEntity], work=173*
137: 0x0BDE [0x01] GOTO 0x0C0A
138: 0x0BE1 [0x02] IF !(Work_Zone[9] == 8*) GOTO 0x0BFB
139: 0x0BE9 [0x52] END_LOAD_SCHEDULER: End scheduler "s048" with entities [EventEntity, EventEntity], work=173*
140: 0x0BF8 [0x01] GOTO 0x0C0A
141: 0x0BFB [0x52] END_LOAD_SCHEDULER: End scheduler "s025" with entities [EventEntity, EventEntity], work=173*

SUBROUTINE_0C0A:
142: 0x0C0A [0x34] LOAD_UNLOAD_ZONE(zone_id=244*)
143: 0x0C0D [0x77] SET_EVENT_TIME_WEATHER(hour=12*, weather=1*)
144: 0x0C12 [0x1C] WAIT(100* ticks)
145: 0x0C15 [0x75] LOAD_ROOM(Load indoor room, room=446*)
146: 0x0C19 [0x75] LOAD_ROOM(No action)
147: 0x0C1B [0x29] REQ_SET_WAIT(priority=0x0B, entity_id=Ulmia (ID: 17772711/0x010F30A7), tag_num=0x4D)
148: 0x0C22 [0x29] REQ_SET_WAIT(priority=0x0B, entity_id=Prishe (ID: 17772710/0x010F30A6), tag_num=0x91)
149: 0x0C29 [0x4E] SET_ENTITY_HIDE_FLAG: Show Prishe (ID: 17772710/0x010F30A6)
150: 0x0C2F [0x80] LOAD_WAIT(entity=Prishe (ID: 17772710/0x010F30A6))
151: 0x0C34 [0x4A] Ulmia (ID: 17772711/0x010F30A7) looks at Prishe (ID: 17772710/0x010F30A6)
152: 0x0C3D [0x4A] Prishe (ID: 17772710/0x010F30A6) looks at Ulmia (ID: 17772711/0x010F30A7)
153: 0x0C46 [0x5C] MUSIC_CONTROL: Set Idle (Day) music to song 127*
154: 0x0C4A [0x5C] MUSIC_CONTROL: Set Idle (Night) music to song 127*
155: 0x0C4E [0x6F] WAIT_FRAME_DELAY: Yield until WaitTime reaches zero
156: 0x0C4F [0x76] CHECK_ENTITY_RENDER_FLAGS: Wait until Ulmia (ID: 17772711/0x010F30A7) Render.Flags0 and Render.Flags3 conditions are met
157: 0x0C54 [0x6F] WAIT_FRAME_DELAY: Yield until WaitTime reaches zero
158: 0x0C55 [0x76] CHECK_ENTITY_RENDER_FLAGS: Wait until Prishe (ID: 17772710/0x010F30A6) Render.Flags0 and Render.Flags3 conditions are met
159: 0x0C5A [0x4E] SET_ENTITY_HIDE_FLAG: Hide LocalPlayer
160: 0x0C60 [0x29] REQ_SET_WAIT(priority=0x08, entity_id=Prishe (ID: 17772710/0x010F30A6), tag_num=0x23)
161: 0x0C67 [0x29] REQ_SET_WAIT(priority=0x08, entity_id=Ulmia (ID: 17772711/0x010F30A7), tag_num=0x1F)
162: 0x0C6E [0x29] REQ_SET_WAIT(priority=0x08, entity_id=Prishe (ID: 17772710/0x010F30A6), tag_num=0x24)
163: 0x0C75 [0x29] REQ_SET_WAIT(priority=0x08, entity_id=Ulmia (ID: 17772711/0x010F30A7), tag_num=0x20)
164: 0x0C7C [0x45] LOAD_SCHEDULED_TASK: Load scheduler "s031" with entities [EventEntity, EventEntity], work=[173*, 0*]
165: 0x0C8D [0x45] LOAD_SCHEDULED_TASK: Load scheduler "fdi1" with entities [EventEntity, EventEntity], work=[200*, 0*]
166: 0x0C9E [0x29] REQ_SET_WAIT(priority=0x08, entity_id=Ulmia (ID: 17772711/0x010F30A7), tag_num=0x19)
167: 0x0CA5 [0x29] REQ_SET_WAIT(priority=0x08, entity_id=Ulmia (ID: 17772711/0x010F30A7), tag_num=0x1A)
168: 0x0CAC [0x29] REQ_SET_WAIT(priority=0x08, entity_id=Prishe (ID: 17772710/0x010F30A6), tag_num=0x37)
169: 0x0CB3 [0x29] REQ_SET_WAIT(priority=0x08, entity_id=Prishe (ID: 17772710/0x010F30A6), tag_num=0x38)
170: 0x0CBA [0x52] END_LOAD_SCHEDULER: End scheduler "s031" with entities [EventEntity, EventEntity], work=173*
171: 0x0CC9 [0x45] LOAD_SCHEDULED_TASK: Load scheduler "ovl1" with entities [LocalPlayer, LocalPlayer], work=[200*, 0*]
172: 0x0CDA [0x45] LOAD_SCHEDULED_TASK: Load scheduler "s032" with entities [EventEntity, EventEntity], work=[173*, 0*]
173: 0x0CEB [0x29] REQ_SET_WAIT(priority=0x08, entity_id=Ulmia (ID: 17772711/0x010F30A7), tag_num=0x03)
174: 0x0CF2 [0x29] REQ_SET_WAIT(priority=0x08, entity_id=Prishe (ID: 17772710/0x010F30A6), tag_num=0x2B)
175: 0x0CF9 [0x2B] Prishe (ID: 17772710/0x010F30A6) [12596*]:
    → "It was only for a second, but I'm pretty damn sure."
176: 0x0D00 [0x23] WAIT_FOR_DIALOG_INTERACTION
177: 0x0D01 [0x29] REQ_SET_WAIT(priority=0x08, entity_id=Prishe (ID: 17772710/0x010F30A6), tag_num=0x2C)
178: 0x0D08 [0x29] REQ_SET_WAIT(priority=0x08, entity_id=Prishe (ID: 17772710/0x010F30A6), tag_num=0x2D)
179: 0x0D0F [0x2B] Prishe (ID: 17772710/0x010F30A6) [12597*]:
    → "The presence I felt when the amulet was stolen... It was definitely Miss Mildaurion!"
180: 0x0D16 [0x23] WAIT_FOR_DIALOG_INTERACTION
181: 0x0D17 [0x29] REQ_SET_WAIT(priority=0x08, entity_id=Prishe (ID: 17772710/0x010F30A6), tag_num=0x2E)
182: 0x0D1E [0x29] REQ_SET_WAIT(priority=0x08, entity_id=Ulmia (ID: 17772711/0x010F30A7), tag_num=0x04)
183: 0x0D25 [0x52] END_LOAD_SCHEDULER: End scheduler "s032" with entities [EventEntity, EventEntity], work=173*
184: 0x0D34 [0x45] LOAD_SCHEDULED_TASK: Load scheduler "s033" with entities [EventEntity, EventEntity], work=[173*, 0*]
185: 0x0D45 [0x29] REQ_SET_WAIT(priority=0x08, entity_id=Prishe (ID: 17772710/0x010F30A6), tag_num=0x29)
186: 0x0D4C [0x29] REQ_SET_WAIT(priority=0x08, entity_id=Ulmia (ID: 17772711/0x010F30A7), tag_num=0x09)
187: 0x0D53 [0x2B] Ulmia (ID: 17772711/0x010F30A7) [12598*]:
    → "You're saying that Cardinal Mildaurion took the amulet from you?"
188: 0x0D5A [0x23] WAIT_FOR_DIALOG_INTERACTION
189: 0x0D5B [0x29] REQ_SET_WAIT(priority=0x08, entity_id=Ulmia (ID: 17772711/0x010F30A7), tag_num=0x0A)
190: 0x0D62 [0x29] REQ_SET_WAIT(priority=0x08, entity_id=Ulmia (ID: 17772711/0x010F30A7), tag_num=0x0B)
191: 0x0D69 [0x2B] Ulmia (ID: 17772711/0x010F30A7) [12599*]:
    → "Why would she act in such a manner? Did not the cardinal give the amulet to you as a gift?"
192: 0x0D70 [0x23] WAIT_FOR_DIALOG_INTERACTION
193: 0x0D71 [0x29] REQ_SET_WAIT(priority=0x08, entity_id=Ulmia (ID: 17772711/0x010F30A7), tag_num=0x0C)
194: 0x0D78 [0x29] REQ_SET_WAIT(priority=0x08, entity_id=Prishe (ID: 17772710/0x010F30A6), tag_num=0x2A)
195: 0x0D7F [0x52] END_LOAD_SCHEDULER: End scheduler "s033" with entities [EventEntity, EventEntity], work=173*
196: 0x0D8E [0x45] LOAD_SCHEDULED_TASK: Load scheduler "s034" with entities [EventEntity, EventEntity], work=[173*, 0*]
197: 0x0D9F [0x7B] Prishe (ID: 17772710/0x010F30A6) stops talking
198: 0x0DA4 [0x27] REQ_SET(priority=0x0B, entity_id=Prishe (ID: 17772710/0x010F30A6), tag_num=0x92)
199: 0x0DAB [0x2B] Prishe (ID: 17772710/0x010F30A6) [12600*]:
    → "Yeah, she did. Miss Mildaurion was always watching over me through the amulet."
200: 0x0DB2 [0x23] WAIT_FOR_DIALOG_INTERACTION
201: 0x0DB3 [0x2A] GET_REQ_LEVEL(level=11, entity_id=Prishe (ID: 17772710/0x010F30A6))
202: 0x0DB9 [0x29] REQ_SET_WAIT(priority=0x08, entity_id=Prishe (ID: 17772710/0x010F30A6), tag_num=0x43)
203: 0x0DC0 [0x2B] Prishe (ID: 17772710/0x010F30A6) [12601*]:
    → "She was always making sure I wasn't thinking of doing something stupid or getting myself into trouble."
204: 0x0DC7 [0x23] WAIT_FOR_DIALOG_INTERACTION
205: 0x0DC8 [0x29] REQ_SET_WAIT(priority=0x08, entity_id=Prishe (ID: 17772710/0x010F30A6), tag_num=0x44)
206: 0x0DCF [0x29] REQ_SET_WAIT(priority=0x08, entity_id=Prishe (ID: 17772710/0x010F30A6), tag_num=0x45)
207: 0x0DD6 [0x29] REQ_SET_WAIT(priority=0x08, entity_id=Prishe (ID: 17772710/0x010F30A6), tag_num=0x46)
208: 0x0DDD [0x52] END_LOAD_SCHEDULER: End scheduler "s034" with entities [EventEntity, EventEntity], work=173*
209: 0x0DEC [0x45] LOAD_SCHEDULED_TASK: Load scheduler "s035" with entities [EventEntity, EventEntity], work=[173*, 0*]
210: 0x0DFD [0x27] REQ_SET(priority=0x0B, entity_id=Prishe (ID: 17772710/0x010F30A6), tag_num=0x93)
211: 0x0E04 [0x2B] Prishe (ID: 17772710/0x010F30A6) [12602*]:
    → "But she needed to take the amulet back."
212: 0x0E0B [0x23] WAIT_FOR_DIALOG_INTERACTION
213: 0x0E0C [0x2A] GET_REQ_LEVEL(level=11, entity_id=Prishe (ID: 17772710/0x010F30A6))
214: 0x0E12 [0x29] REQ_SET_WAIT(priority=0x08, entity_id=Prishe (ID: 17772710/0x010F30A6), tag_num=0x0B)
215: 0x0E19 [0x2B] Prishe (ID: 17772710/0x010F30A6) [12603*]:
    → "An old, old friend she'd waited a long, long time for had finally returned..."
216: 0x0E20 [0x23] WAIT_FOR_DIALOG_INTERACTION
217: 0x0E21 [0x29] REQ_SET_WAIT(priority=0x08, entity_id=Prishe (ID: 17772710/0x010F30A6), tag_num=0x0C)
218: 0x0E28 [0x52] END_LOAD_SCHEDULER: End scheduler "s035" with entities [EventEntity, EventEntity], work=173*
219: 0x0E37 [0x45] LOAD_SCHEDULED_TASK: Load scheduler "s036" with entities [EventEntity, EventEntity], work=[173*, 0*]
220: 0x0E48 [0x29] REQ_SET_WAIT(priority=0x08, entity_id=Prishe (ID: 17772710/0x010F30A6), tag_num=0x0D)
221: 0x0E4F [0x2B] Prishe (ID: 17772710/0x010F30A6) [12604*]:
    → "She apologized to me in her thoughts. Said that I would be safe while I was in Jeuno..."
222: 0x0E56 [0x23] WAIT_FOR_DIALOG_INTERACTION
223: 0x0E57 [0x29] REQ_SET_WAIT(priority=0x08, entity_id=Prishe (ID: 17772710/0x010F30A6), tag_num=0x0E)
224: 0x0E5E [0x29] REQ_SET_WAIT(priority=0x08, entity_id=Ulmia (ID: 17772711/0x010F30A7), tag_num=0x1B)
225: 0x0E65 [0x2B] Ulmia (ID: 17772711/0x010F30A7) [12605*]:
    → "But then..."
226: 0x0E6C [0x23] WAIT_FOR_DIALOG_INTERACTION
227: 0x0E6D [0x29] REQ_SET_WAIT(priority=0x08, entity_id=Ulmia (ID: 17772711/0x010F30A7), tag_num=0x1C)
228: 0x0E74 [0x52] END_LOAD_SCHEDULER: End scheduler "s036" with entities [EventEntity, EventEntity], work=173*
229: 0x0E83 [0x45] LOAD_SCHEDULED_TASK: Load scheduler "ovl1" with entities [LocalPlayer, LocalPlayer], work=[200*, 0*]
230: 0x0E94 [0x45] LOAD_SCHEDULED_TASK: Load scheduler "s037" with entities [EventEntity, EventEntity], work=[173*, 0*]
231: 0x0EA5 [0x29] REQ_SET_WAIT(priority=0x08, entity_id=Ulmia (ID: 17772711/0x010F30A7), tag_num=0x1D)
232: 0x0EAC [0x2B] Ulmia (ID: 17772711/0x010F30A7) [12606*]:
    → "Cardinal Mildaurion would have known that we, the survivors of the Great War, were unable to leave the island..."
233: 0x0EB3 [0x23] WAIT_FOR_DIALOG_INTERACTION
234: 0x0EB4 [0x29] REQ_SET_WAIT(priority=0x08, entity_id=Ulmia (ID: 17772711/0x010F30A7), tag_num=0x1E)
235: 0x0EBB [0x29] REQ_SET_WAIT(priority=0x08, entity_id=Ulmia (ID: 17772711/0x010F30A7), tag_num=0x2B)
236: 0x0EC2 [0x2B] Ulmia (ID: 17772711/0x010F30A7) [12607*]:
    → "She knew, but she did not come to help us. She abandoned us to our fate...?"
237: 0x0EC9 [0x23] WAIT_FOR_DIALOG_INTERACTION
238: 0x0ECA [0x29] REQ_SET_WAIT(priority=0x08, entity_id=Ulmia (ID: 17772711/0x010F30A7), tag_num=0x2C)
239: 0x0ED1 [0x52] END_LOAD_SCHEDULER: End scheduler "s037" with entities [EventEntity, EventEntity], work=173*
240: 0x0EE0 [0x45] LOAD_SCHEDULED_TASK: Load scheduler "s038" with entities [EventEntity, EventEntity], work=[173*, 0*]
241: 0x0EF1 [0x29] REQ_SET_WAIT(priority=0x08, entity_id=Ulmia (ID: 17772711/0x010F30A7), tag_num=0x2D)
242: 0x0EF8 [0x29] REQ_SET_WAIT(priority=0x08, entity_id=Prishe (ID: 17772710/0x010F30A6), tag_num=0x0F)
243: 0x0EFF [0x2B] Prishe (ID: 17772710/0x010F30A6) [12608*]:
    → "No, I don't think so. Miss Mildaurion left it to me."
244: 0x0F06 [0x23] WAIT_FOR_DIALOG_INTERACTION
245: 0x0F07 [0x29] REQ_SET_WAIT(priority=0x08, entity_id=Prishe (ID: 17772710/0x010F30A6), tag_num=0x10)
246: 0x0F0E [0x29] REQ_SET_WAIT(priority=0x08, entity_id=Ulmia (ID: 17772711/0x010F30A7), tag_num=0x2E)
247: 0x0F15 [0x2B] Ulmia (ID: 17772711/0x010F30A7) [12609*]:
    → "Left what to you...?"
248: 0x0F1C [0x23] WAIT_FOR_DIALOG_INTERACTION
249: 0x0F1D [0x5D] SET_MUSIC_VOLUME(volume=0*, fade_time=120*)
250: 0x0F22 [0x45] LOAD_SCHEDULED_TASK: Load scheduler "fdo1" with entities [LocalPlayer, LocalPlayer], work=[200*, 0*]
251: 0x0F33 [0x1C] WAIT(60* ticks)
252: 0x0F36 [0x4E] SET_ENTITY_HIDE_FLAG: Hide Prishe (ID: 17772710/0x010F30A6)
253: 0x0F3C [0x35] LOAD_ZONE_NO_CLOSE(zone_id=243*)
254: 0x0F3F [0x78] ENABLE_GAME_TIMER_RESET_WEATHER()
255: 0x0F40 [0x1C] WAIT(100* ticks)
256: 0x0F43 [0x7B] Ulmia (ID: 17772711/0x010F30A7) stops talking
257: 0x0F48 [0x29] REQ_SET_WAIT(priority=0x0B, entity_id=Ulmia (ID: 17772711/0x010F30A7), tag_num=0x4E)
258: 0x0F4F [0x4E] SET_ENTITY_HIDE_FLAG: Show LocalPlayer
259: 0x0F55 [0x5C] MUSIC_CONTROL: Set Idle (Day) music to song 159*
260: 0x0F59 [0x5C] MUSIC_CONTROL: Set Idle (Night) music to song 159*
261: 0x0F5D [0x80] LOAD_WAIT(entity=LocalPlayer)
262: 0x0F62 [0x4A] LocalPlayer looks at Ulmia (ID: 17772711/0x010F30A7)
263: 0x0F6B [0x6F] WAIT_FRAME_DELAY: Yield until WaitTime reaches zero
264: 0x0F6C [0x76] CHECK_ENTITY_RENDER_FLAGS: Wait until LocalPlayer Render.Flags0 and Render.Flags3 conditions are met
265: 0x0F71 [0x29] REQ_SET_WAIT(priority=0x08, entity_id=Ulmia (ID: 17772711/0x010F30A7), tag_num=0x01)
266: 0x0F78 [0x29] REQ_SET_WAIT(priority=0x08, entity_id=Ulmia (ID: 17772711/0x010F30A7), tag_num=0x02)
267: 0x0F7F [0x52] END_LOAD_SCHEDULER: End scheduler "s025" with entities [EventEntity, EventEntity], work=173*
268: 0x0F8E [0x02] IF !(Work_Zone[9] == 5*) GOTO 0x0FAA
269: 0x0F96 [0x45] LOAD_SCHEDULED_TASK: Load scheduler "s052" with entities [EventEntity, EventEntity], work=[173*, 0*]
270: 0x0FA7 [0x01] GOTO 0x0FD7
271: 0x0FAA [0x02] IF !(Work_Zone[9] == 6*) GOTO 0x0FC6
272: 0x0FB2 [0x45] LOAD_SCHEDULED_TASK: Load scheduler "s052" with entities [EventEntity, EventEntity], work=[173*, 0*]
273: 0x0FC3 [0x01] GOTO 0x0FD7
274: 0x0FC6 [0x45] LOAD_SCHEDULED_TASK: Load scheduler "s026" with entities [EventEntity, EventEntity], work=[173*, 0*]

SUBROUTINE_0FD7:
275: 0x0FD7 [0x45] LOAD_SCHEDULED_TASK: Load scheduler "fdi1" with entities [EventEntity, EventEntity], work=[200*, 0*]
276: 0x0FE8 [0x29] REQ_SET_WAIT(priority=0x08, entity_id=Ulmia (ID: 17772711/0x010F30A7), tag_num=0x03)
277: 0x0FEF [0x2B] Ulmia (ID: 17772711/0x010F30A7) [12610*]:
    → "What was Prishe about to say, I wonder."
278: 0x0FF6 [0x23] WAIT_FOR_DIALOG_INTERACTION
279: 0x0FF7 [0x29] REQ_SET_WAIT(priority=0x08, entity_id=Ulmia (ID: 17772711/0x010F30A7), tag_num=0x04)
280: 0x0FFE [0x29] REQ_SET_WAIT(priority=0x08, entity_id=Ulmia (ID: 17772711/0x010F30A7), tag_num=0x2B)
281: 0x1005 [0x2B] Ulmia (ID: 17772711/0x010F30A7) [12611*]:
    → "What could Cardinal Mildaurion have entrusted to us? Surely not the resurrection of the Twilight God...?"
282: 0x100C [0x23] WAIT_FOR_DIALOG_INTERACTION
283: 0x100D [0x29] REQ_SET_WAIT(priority=0x08, entity_id=Ulmia (ID: 17772711/0x010F30A7), tag_num=0x2C)
284: 0x1014 [0x29] REQ_SET_WAIT(priority=0x08, entity_id=Ulmia (ID: 17772711/0x010F30A7), tag_num=0x2D)
285: 0x101B [0x29] REQ_SET_WAIT(priority=0x08, entity_id=Ulmia (ID: 17772711/0x010F30A7), tag_num=0x2E)
286: 0x1022 [0x52] END_LOAD_SCHEDULER: End scheduler "s026" with entities [EventEntity, EventEntity], work=173*
287: 0x1031 [0x45] LOAD_SCHEDULED_TASK: Load scheduler "s027" with entities [EventEntity, EventEntity], work=[173*, 0*]
288: 0x1042 [0x4A] Ulmia (ID: 17772711/0x010F30A7) looks at LocalPlayer
289: 0x104B [0x2B] Ulmia (ID: 17772711/0x010F30A7) [12612*]:
    → "It might be naive of me to believe that you are on my side."
290: 0x1052 [0x23] WAIT_FOR_DIALOG_INTERACTION
291: 0x1053 [0x6F] WAIT_FRAME_DELAY: Yield until WaitTime reaches zero
292: 0x1054 [0x76] CHECK_ENTITY_RENDER_FLAGS: Wait until Ulmia (ID: 17772711/0x010F30A7) Render.Flags0 and Render.Flags3 conditions are met
293: 0x1059 [0x29] REQ_SET_WAIT(priority=0x08, entity_id=Ulmia (ID: 17772711/0x010F30A7), tag_num=0x09)
294: 0x1060 [0x2B] Ulmia (ID: 17772711/0x010F30A7) [12613*]:
    → "However, I am not willing to give up."
295: 0x1067 [0x23] WAIT_FOR_DIALOG_INTERACTION
296: 0x1068 [0x29] REQ_SET_WAIT(priority=0x08, entity_id=Ulmia (ID: 17772711/0x010F30A7), tag_num=0x0A)
297: 0x106F [0x52] END_LOAD_SCHEDULER: End scheduler "s027" with entities [EventEntity, EventEntity], work=173*
298: 0x107E [0x45] LOAD_SCHEDULED_TASK: Load scheduler "s028" with entities [EventEntity, EventEntity], work=[173*, 0*]
299: 0x108F [0x02] IF !(Work_Zone[9] == 8*) GOTO 0x109D
300: 0x1097 [0x4E] SET_ENTITY_HIDE_FLAG: Hide LocalPlayer
301: 0x109D [0x29] REQ_SET_WAIT(priority=0x08, entity_id=Ulmia (ID: 17772711/0x010F30A7), tag_num=0x0F)
302: 0x10A4 [0x2B] Ulmia (ID: 17772711/0x010F30A7) [12614*]:
    → "I want to sing of a world where both Vana'diel and all of her people are saved."
303: 0x10AB [0x23] WAIT_FOR_DIALOG_INTERACTION
304: 0x10AC [0x2B] Ulmia (ID: 17772711/0x010F30A7) [12615*]:
    → "Will you dream of such a world alongside me?"
305: 0x10B3 [0x23] WAIT_FOR_DIALOG_INTERACTION
306: 0x10B4 [0x29] REQ_SET_WAIT(priority=0x08, entity_id=Ulmia (ID: 17772711/0x010F30A7), tag_num=0x10)
307: 0x10BB [0x24] CREATE_DIALOG(message_id=12616*, default_option=0*, option_flags=0*)
    → "Do you dare to dream? [Yes, I'll fight to the end!/Reality is not that kind...]"
308: 0x10C2 [0x25] WAIT_DIALOG_SELECT()
309: 0x10C3 [0x02] IF !(Work_Zone[0] == 0*) GOTO 0x10E9
310: 0x10CB [0x03] Work_Zone[1] = 1*
311: 0x10D0 [0x29] REQ_SET_WAIT(priority=0x08, entity_id=Ulmia (ID: 17772711/0x010F30A7), tag_num=0x13)
312: 0x10D7 [0x2B] Ulmia (ID: 17772711/0x010F30A7) [12617*]:
    → "Thank you, <Player>!"
313: 0x10DE [0x23] WAIT_FOR_DIALOG_INTERACTION
314: 0x10DF [0x29] REQ_SET_WAIT(priority=0x08, entity_id=Ulmia (ID: 17772711/0x010F30A7), tag_num=0x14)
315: 0x10E6 [0x01] GOTO 0x110F
316: 0x10E9 [0x02] IF !(Work_Zone[0] == 1*) GOTO 0x110F
317: 0x10F1 [0x03] Work_Zone[1] = 2*
318: 0x10F6 [0x29] REQ_SET_WAIT(priority=0x08, entity_id=Ulmia (ID: 17772711/0x010F30A7), tag_num=0x15)
319: 0x10FD [0x2B] Ulmia (ID: 17772711/0x010F30A7) [12618*]:
    → "I am sorry. I have asked too much without considering your feelings."
320: 0x1104 [0x23] WAIT_FOR_DIALOG_INTERACTION
321: 0x1105 [0x29] REQ_SET_WAIT(priority=0x08, entity_id=Ulmia (ID: 17772711/0x010F30A7), tag_num=0x16)
322: 0x110C [0x01] GOTO 0x110F

SUBROUTINE_110F:
323: 0x110F [0x29] REQ_SET_WAIT(priority=0x0B, entity_id=LocalPlayer, tag_num=0x6F)
324: 0x1116 [0x02] IF !(Work_Zone[9] == 8*) GOTO 0x1124
325: 0x111E [0x4E] SET_ENTITY_HIDE_FLAG: Show LocalPlayer
326: 0x1124 [0x52] END_LOAD_SCHEDULER: End scheduler "s028" with entities [EventEntity, EventEntity], work=173*
327: 0x1133 [0x45] LOAD_SCHEDULED_TASK: Load scheduler "s029" with entities [EventEntity, EventEntity], work=[173*, 0*]
328: 0x1144 [0x02] IF !(Work_Zone[1] == 1*) GOTO 0x115D
329: 0x114C [0x29] REQ_SET_WAIT(priority=0x08, entity_id=Ulmia (ID: 17772711/0x010F30A7), tag_num=0x07)
330: 0x1153 [0x29] REQ_SET_WAIT(priority=0x08, entity_id=Ulmia (ID: 17772711/0x010F30A7), tag_num=0x08)
331: 0x115A [0x01] GOTO 0x116B
332: 0x115D [0x29] REQ_SET_WAIT(priority=0x08, entity_id=Ulmia (ID: 17772711/0x010F30A7), tag_num=0x21)
333: 0x1164 [0x29] REQ_SET_WAIT(priority=0x08, entity_id=Ulmia (ID: 17772711/0x010F30A7), tag_num=0x22)

SUBROUTINE_116B:
334: 0x116B [0x7B] Ulmia (ID: 17772711/0x010F30A7) stops talking
335: 0x1170 [0x27] REQ_SET(priority=0x0B, entity_id=Ulmia (ID: 17772711/0x010F30A7), tag_num=0x4F)
336: 0x1177 [0x2B] Ulmia (ID: 17772711/0x010F30A7) [12619*]:
    → "I will once again go to the Grand Duke Palace. I've not found anyone in town who has information, but Makki-Chebukki and the others have probably tracked down some rumors."
337: 0x117E [0x23] WAIT_FOR_DIALOG_INTERACTION
338: 0x117F [0x2A] GET_REQ_LEVEL(level=11, entity_id=Ulmia (ID: 17772711/0x010F30A7))
339: 0x1185 [0x52] END_LOAD_SCHEDULER: End scheduler "s029" with entities [EventEntity, EventEntity], work=173*
340: 0x1194 [0x45] LOAD_SCHEDULED_TASK: Load scheduler "ovl1" with entities [LocalPlayer, LocalPlayer], work=[200*, 0*]
341: 0x11A5 [0x45] LOAD_SCHEDULED_TASK: Load scheduler "s030" with entities [EventEntity, EventEntity], work=[173*, 0*]
342: 0x11B6 [0x2B] Ulmia (ID: 17772711/0x010F30A7) [12620*]:
    → "There must be something we can do to save Prishe... There must be someone who knows of the cardinal..."
343: 0x11BD [0x23] WAIT_FOR_DIALOG_INTERACTION
344: 0x11BE [0x5D] SET_MUSIC_VOLUME(volume=0*, fade_time=120*)
345: 0x11C3 [0x27] REQ_SET(priority=0x0B, entity_id=Ulmia (ID: 17772711/0x010F30A7), tag_num=0x50)
346: 0x11CA [0x1C] WAIT(80* ticks)
347: 0x11CD [0x45] LOAD_SCHEDULED_TASK: Load scheduler "fdo1" with entities [LocalPlayer, LocalPlayer], work=[200*, 0*]
348: 0x11DE [0x1C] WAIT(60* ticks)
349: 0x11E1 [0x5C] MUSIC_CONTROL: Set Idle (Day) music to song 117*
350: 0x11E5 [0x5C] MUSIC_CONTROL: Set Idle (Night) music to song 117*
351: 0x11E9 [0x52] END_LOAD_SCHEDULER: End scheduler "s030" with entities [EventEntity, EventEntity], work=173*
352: 0x11F8 [0x4E] SET_ENTITY_HIDE_FLAG: Show LocalPlayer
353: 0x11FE [0x80] LOAD_WAIT(entity=LocalPlayer)
354: 0x1203 [0x46] CAMERA_CONTROL: Restore default settings
355: 0x1205 [0x45] LOAD_SCHEDULED_TASK: Load scheduler "fdi1" with entities [LocalPlayer, LocalPlayer], work=[200*, 0*]
356: 0x1216 [0x20] SET_CLI_EVENT_UC_FLAG: Unlock player control
357: 0x1218 [0x21] END_EVENT
358: 0x1219 [0x00] END_REQSTACK()
```

### Event 10048

#### Metadata

| Field        | Value      |
|--------------|------------|
| Entrypoint   | 0x121A     |
| Data Size    | 1091 bytes |
| Instructions | 163        |

```
      00 01 02 03 04 05 06 07  08 09 0A 0B 0C 0D 0E 0F
      -- -- -- -- -- -- -- --  -- -- -- -- -- -- -- --
1210:                                20 01 42 46 01 5D             .BF.]
1220: 01 80 2B 80 45 00 80 F8  FF FF 7F F8 FF FF 7F 66  ..+.E..........f
1230: 64 6F 31 01 80 1C 02 80  38 03 80 29 08 F0 FF FF  do1.....8..)....
1240: 7F 69 4E 00 07 30 0F 01  4E 00 AF 30 0F 01 4E 00  .iN..0..N..0..N.
1250: 12 30 0F 01 80 07 30 0F  01 80 AF 30 0F 01 80 12  .0....0....0....
1260: 30 0F 01 29 0B F0 FF FF  7F 70 29 0B 07 30 0F 01  0..).....p)..0..
1270: 5D 29 0B AF 30 0F 01 02  29 0B 12 30 0F 01 08 29  ])..0...)..0...)
1280: 0B 0F 30 0F 01 4A 29 0B  AE 30 0F 01 30 5C 00 5D  ..0..J)..0..0\.]
1290: 80 5C 01 5D 80 22 01 27  0B F0 FF FF 7F 71 1C 19  .\.].".'.....q..
12A0: 80 45 05 80 F8 FF FF 7F  F8 FF FF 7F 73 30 33 39  .E..........s039
12B0: 01 80 45 00 80 F8 FF FF  7F F8 FF FF 7F 66 64 69  ..E..........fdi
12C0: 31 01 80 1C 5E 80 27 0B  07 30 0F 01 5E 1C 1A 80  1...^.'..0..^...
12D0: 27 0B AF 30 0F 01 03 1C  1A 80 27 0B 12 30 0F 01  '..0......'..0..
12E0: 09 2A 0B F0 FF FF 7F 52  05 80 F8 FF FF 7F F8 FF  .*.....R........
12F0: FF 7F 73 30 33 39 45 05  80 F8 FF FF 7F F8 FF FF  ..s039E.........
1300: 7F 73 30 34 30 01 80 4A  F0 FF FF 7F 07 30 0F 01  .s040..J.....0..
1310: 2B 07 30 0F 01 5F 80 23  2A 0B F0 FF FF 7F 2A 0B  +.0.._.#*.....*.
1320: 12 30 0F 01 2A 0B AF 30  0F 01 6F 76 F0 FF FF 7F  .0..*..0..ov....
1330: 29 08 07 30 0F 01 3E 2B  07 30 0F 01 60 80 23 52  )..0..>+.0..`.#R
1340: 05 80 F8 FF FF 7F F8 FF  FF 7F 73 30 34 30 45 00  ..........s040E.
1350: 80 F0 FF FF 7F F0 FF FF  7F 6F 76 6C 31 01 80 45  .........ovl1..E
1360: 05 80 F8 FF FF 7F F8 FF  FF 7F 73 30 34 31 01 80  ..........s041..
1370: 2B 07 30 0F 01 61 80 23  2B 07 30 0F 01 62 80 23  +.0..a.#+.0..b.#
1380: 29 08 07 30 0F 01 3F 29  0B F0 FF FF 7F 72 52 05  )..0..?).....rR.
1390: 80 F8 FF FF 7F F8 FF FF  7F 73 30 34 31 45 05 80  .........s041E..
13A0: F8 FF FF 7F F8 FF FF 7F  73 30 34 32 01 80 29 08  ........s042..).
13B0: 07 30 0F 01 42 29 08 07  30 0F 01 43 27 0B 07 30  .0..B)..0..C'..0
13C0: 0F 01 5F 2B 07 30 0F 01  63 80 23 2A 0B 07 30 0F  .._+.0..c.#*..0.
13D0: 01 29 08 07 30 0F 01 49  2B 07 30 0F 01 64 80 23  .)..0..I+.0..d.#
13E0: 29 08 07 30 0F 01 4A 52  05 80 F8 FF FF 7F F8 FF  )..0..JR........
13F0: FF 7F 73 30 34 32 24 65  80 01 80 01 80 25 02 00  ..s042$e.....%..
1400: 10 01 80 00 0E 14 03 01  10 07 80 01 1E 14 02 00  ................
1410: 10 07 80 00 1E 14 03 01  10 09 80 01 1E 14 45 05  ..............E.
1420: 80 F8 FF FF 7F F8 FF FF  7F 73 30 34 33 01 80 4E  .........s043..N
1430: 00 0F 30 0F 01 4E 00 AE  30 0F 01 27 0B 07 30 0F  ..0..N..0..'..0.
1440: 01 60 02 01 10 07 80 00  55 14 2B 07 30 0F 01 66  .`......U.+.0..f
1450: 80 23 01 5D 14 2B 07 30  0F 01 67 80 23 2A 0B 07  .#.].+.0..g.#*..
1460: 30 0F 01 2B 07 30 0F 01  68 80 23 79 00 07 30 0F  0..+.0..h.#y..0.
1470: 01 AF 30 0F 01 2B 07 30  0F 01 69 80 23 80 0F 30  ..0..+.0..i.#..0
1480: 0F 01 80 AE 30 0F 01 27  0B 0F 30 0F 01 4B 27 0B  ....0..'..0..K'.
1490: AE 30 0F 01 31 52 05 80  F8 FF FF 7F F8 FF FF 7F  .0..1R..........
14A0: 73 30 34 33 27 0B 0E 30  0F 01 0A 1C 02 80 4A F0  s043'..0......J.
14B0: FF FF 7F 0F 30 0F 01 4B  F0 FF FF 7F 6A 80 27 0B  ....0..K....j.'.
14C0: 07 30 0F 01 61 1C 40 80  4A 12 30 0F 01 0F 30 0F  .0..a.@.J.0...0.
14D0: 01 4A AF 30 0F 01 0F 30  0F 01 2B 0F 30 0F 01 6B  .J.0...0..+.0..k
14E0: 80 23 2A 0B 0F 30 0F 01  2A 0B AE 30 0F 01 2A 0B  .#*..0..*..0..*.
14F0: 07 30 0F 01 6F 76 F0 FF  FF 7F 02 09 10 1D 80 00  .0..ov..........
1500: 0C 15 29 0B F0 FF FF 7F  74 01 13 15 29 0B F0 FF  ..).....t...)...
1510: FF 7F 73 4B F0 FF FF 7F  6A 80 29 08 AE 30 0F 01  ..sK....j.)..0..
1520: 01 2B AE 30 0F 01 6C 80  23 6F 76 F0 FF FF 7F 2A  .+.0..l.#ov....*
1530: 0B 0E 30 0F 01 52 05 80  0E 30 0F 01 0E 30 0F 01  ..0..R...0...0..
1540: 73 30 34 35 02 09 10 09  80 00 60 15 45 05 80 F8  s045......`.E...
1550: FF FF 7F F8 FF FF 7F 73  30 34 37 01 80 01 8D 15  .......s047.....
1560: 02 09 10 6D 80 00 7C 15  45 05 80 F8 FF FF 7F F8  ...m..|.E.......
1570: FF FF 7F 73 30 34 37 01  80 01 8D 15 45 05 80 F8  ...s047.....E...
1580: FF FF 7F F8 FF FF 7F 73  30 34 36 01 80 79 00 F0  .......s046..y..
1590: FF FF 7F 07 30 0F 01 29  08 07 30 0F 01 49 2B 07  ....0..)..0..I+.
15A0: 30 0F 01 6E 80 23 29 08  07 30 0F 01 4A 29 08 AE  0..n.#)..0..J)..
15B0: 30 0F 01 02 27 08 AE 30  0F 01 09 29 08 07 30 0F  0...'..0...)..0.
15C0: 01 4B 2B 07 30 0F 01 6F  80 23 29 08 07 30 0F 01  .K+.0..o.#)..0..
15D0: 4C 5D 01 80 2B 80 45 00  80 F0 FF FF 7F F0 FF FF  L]..+.E.........
15E0: 7F 66 64 6F 31 01 80 1C  2B 80 2A 08 AE 30 0F 01  .fdo1...+.*..0..
