# 17772735 - Pieuje

## Common Data

| Field            | Value                     |
|------------------|---------------------------|
| Zone             | Ru'Lude Gardens (ID: 243) |
| Block Size       | 360 bytes                 |
| Total Events     | 12                        |
| References Count | 18                        |

## List of Events

| Event ID                   | Entrypoint   |   Size |   Instructions |
|----------------------------|--------------|--------|----------------|
| [65535](#event-65535)      | 0x0000       |      1 |              1 |
| [10094](#event-10094)      | 0x0001       |     18 |              4 |
| [65535.1](#event-655351)   | 0x0013       |     21 |              7 |
| [65535.2](#event-655352)   | 0x0028       |     10 |              2 |
| [65535.3](#event-655353)   | 0x0032       |     14 |              4 |
| [65535.4](#event-655354)   | 0x0040       |     14 |              4 |
| [65535.5](#event-655355)   | 0x004E       |     19 |              3 |
| [65535.6](#event-655356)   | 0x0061       |     29 |              3 |
| [65535.7](#event-655357)   | 0x007E       |     19 |              3 |
| [65535.8](#event-655358)   | 0x0091       |     29 |              3 |
| [65535.9](#event-655359)   | 0x00AE       |     19 |              3 |
| [65535.10](#event-6553510) | 0x00C1       |     29 |              3 |

## DAT References (imed_data)

|   Index | Hex Value   |   Dec Value |
|---------|-------------|-------------|
|       0 | 0x705B      |       28763 |
|       1 | 0xFD6B      |       64875 |
|       2 | 0x07CB      |        1995 |
|       3 | 0x0C58      |        3160 |
|       4 | 0x012C      |         300 |
|       5 | 0x000D      |          13 |
|       6 | 0x73F0      |       29680 |
|       7 | 0x10AD1     |       68305 |
|       8 | 0x07C7      |        1991 |
|       9 | 0x0FFD      |        4093 |
|      10 | 0x0008      |           8 |
|      11 | 0x7438      |       29752 |
|      12 | 0x105ED     |       67053 |
|      13 | 0x667C      |       26236 |
|      14 | 0xFB5F      |       64351 |
|      15 | 0x0078      |         120 |
|      16 | 0x001E      |          30 |
|      17 | 0x0079      |         121 |

## Events

### Event 65535

#### Metadata

| Field        | Value   |
|--------------|---------|
| Entrypoint   | 0x0000  |
| Data Size    | 1 bytes |
| Instructions | 1       |

```
      00 01 02 03 04 05 06 07  08 09 0A 0B 0C 0D 0E 0F
      -- -- -- -- -- -- -- --  -- -- -- -- -- -- -- --
0000: 00                                                .               
```

#### Opcodes

```
  0: 0x0000 [0x00] END_REQSTACK()
```

### Event 10094

#### Metadata

| Field        | Value    |
|--------------|----------|
| Entrypoint   | 0x0001   |
| Data Size    | 18 bytes |
| Instructions | 4        |

```
      00 01 02 03 04 05 06 07  08 09 0A 0B 0C 0D 0E 0F
      -- -- -- -- -- -- -- --  -- -- -- -- -- -- -- --
0000:    22 01 94 01 F8 FF FF  7F 37 00 80 01 80 02 80   ".......7......
0010: 03 80 00                                          ...             
```

#### Opcodes

```
  0: 0x0001 [0x22] ENTITY_HIDE_FLAG(enabled=0x01)
  1: 0x0003 [0x94] EventEntity->Render.Flags3 ^= 0x01
  2: 0x0009 [0x37] UPDATE_EVENT_POSITION_AND_DIR: x=28.763*, z=64.875*, y=1.995*, direction=277.7°*
  3: 0x0012 [0x00] END_REQSTACK()
```

### Event 65535.1

#### Metadata

| Field        | Value    |
|--------------|----------|
| Entrypoint   | 0x0013   |
| Data Size    | 21 bytes |
| Instructions | 7        |

```
      00 01 02 03 04 05 06 07  08 09 0A 0B 0C 0D 0E 0F
      -- -- -- -- -- -- -- --  -- -- -- -- -- -- -- --
0010:          1C 04 80 32 05  80 1F 00 06 80 07 80 08     ...2.........
0020: 80 1F 01 6F 39 09 80 00                           ...o9...        
```

#### Opcodes

```
  0: 0x0013 [0x1C] WAIT(300* ticks)
  1: 0x0016 [0x32] ExtData[1]->MainSpeed = 13* * 0.1
  2: 0x0019 [0x1F] MOVE_ENTITY: EventEntity moves to X=29.680*, Z=68.305*, Y=1.991*
  3: 0x0021 [0x1F] MOVE_ENTITY: Update entity position (mode=1)
  4: 0x0023 [0x6F] WAIT_FRAME_DELAY: Yield until WaitTime reaches zero
  5: 0x0024 [0x39] SET_ENTITY_DIRECTION(direction=22.5°*)
  6: 0x0027 [0x00] END_REQSTACK()
```

### Event 65535.2

#### Metadata

| Field        | Value    |
|--------------|----------|
| Entrypoint   | 0x0028   |
| Data Size    | 10 bytes |
| Instructions | 2        |

```
      00 01 02 03 04 05 06 07  08 09 0A 0B 0C 0D 0E 0F
      -- -- -- -- -- -- -- --  -- -- -- -- -- -- -- --
0020:                          37 06 80 07 80 08 80 09          7.......
0030: 80 00                                             ..              
```

#### Opcodes

```
  0: 0x0028 [0x37] UPDATE_EVENT_POSITION_AND_DIR: x=29.680*, z=68.305*, y=1.991*, direction=359.7°*
  1: 0x0031 [0x00] END_REQSTACK()
```

### Event 65535.3

#### Metadata

| Field        | Value    |
|--------------|----------|
| Entrypoint   | 0x0032   |
| Data Size    | 14 bytes |
| Instructions | 4        |

```
      00 01 02 03 04 05 06 07  08 09 0A 0B 0C 0D 0E 0F
      -- -- -- -- -- -- -- --  -- -- -- -- -- -- -- --
0030:       32 0A 80 1F 00 0B  80 0C 80 08 80 1F 01 00    2.............
```

#### Opcodes

```
  0: 0x0032 [0x32] ExtData[1]->MainSpeed = 8* * 0.1
  1: 0x0035 [0x1F] MOVE_ENTITY: EventEntity moves to X=29.752*, Z=67.053*, Y=1.991*
  2: 0x003D [0x1F] MOVE_ENTITY: Update entity position (mode=1)
  3: 0x003F [0x00] END_REQSTACK()
```

### Event 65535.4

#### Metadata

| Field        | Value    |
|--------------|----------|
| Entrypoint   | 0x0040   |
| Data Size    | 14 bytes |
| Instructions | 4        |

```
      00 01 02 03 04 05 06 07  08 09 0A 0B 0C 0D 0E 0F
      -- -- -- -- -- -- -- --  -- -- -- -- -- -- -- --
0040: 32 05 80 1F 00 0D 80 0E  80 02 80 1F 01 00        2.............  
```

#### Opcodes

```
  0: 0x0040 [0x32] ExtData[1]->MainSpeed = 13* * 0.1
  1: 0x0043 [0x1F] MOVE_ENTITY: EventEntity moves to X=26.236*, Z=64.351*, Y=1.995*
  2: 0x004B [0x1F] MOVE_ENTITY: Update entity position (mode=1)
  3: 0x004D [0x00] END_REQSTACK()
```

### Event 65535.5

#### Metadata

| Field        | Value    |
|--------------|----------|
| Entrypoint   | 0x004E   |
| Data Size    | 19 bytes |
| Instructions | 3        |

```
      00 01 02 03 04 05 06 07  08 09 0A 0B 0C 0D 0E 0F
      -- -- -- -- -- -- -- --  -- -- -- -- -- -- -- --
0040:                                            5B 0F                [.
0050: 80 BF 30 0F 01 BF 30 0F  01 74 6C 6B 30 1C 10 80  ..0...0..tlk0...
0060: 00                                                .               
```

#### Opcodes

```
  0: 0x004E [0x5B] LOAD_EXT_SCHEDULER: Load scheduler "tlk0" with entities [Pieuje (ID: 17772735/0x010F30BF), Pieuje (ID: 17772735/0x010F30BF)], work=120*
  1: 0x005D [0x1C] WAIT(30* ticks)
  2: 0x0060 [0x00] END_REQSTACK()
```

### Event 65535.6

#### Metadata

| Field        | Value    |
|--------------|----------|
| Entrypoint   | 0x0061   |
| Data Size    | 29 bytes |
| Instructions | 3        |

```
      00 01 02 03 04 05 06 07  08 09 0A 0B 0C 0D 0E 0F
      -- -- -- -- -- -- -- --  -- -- -- -- -- -- -- --
0060:    5B 0F 80 BF 30 0F 01  BF 30 0F 01 74 6C 6B 31   [...0...0..tlk1
0070: 53 BF 30 0F 01 BF 30 0F  01 74 6C 6B 31 00        S.0...0..tlk1.  
```

#### Opcodes

```
  0: 0x0061 [0x5B] LOAD_EXT_SCHEDULER: Load scheduler "tlk1" with entities [Pieuje (ID: 17772735/0x010F30BF), Pieuje (ID: 17772735/0x010F30BF)], work=120*
  1: 0x0070 [0x53] WAIT_SCHEDULER_TASK: Wait for scheduler "tlk1" with entities [Pieuje (ID: 17772735/0x010F30BF), Pieuje (ID: 17772735/0x010F30BF)]
  2: 0x007D [0x00] END_REQSTACK()
```

### Event 65535.7

#### Metadata

| Field        | Value    |
|--------------|----------|
| Entrypoint   | 0x007E   |
| Data Size    | 19 bytes |
| Instructions | 3        |

```
      00 01 02 03 04 05 06 07  08 09 0A 0B 0C 0D 0E 0F
      -- -- -- -- -- -- -- --  -- -- -- -- -- -- -- --
0070:                                            5B 11                [.
0080: 80 BF 30 0F 01 BF 30 0F  01 74 68 6B 30 1C 10 80  ..0...0..thk0...
0090: 00                                                .               
```

#### Opcodes

```
  0: 0x007E [0x5B] LOAD_EXT_SCHEDULER: Load scheduler "thk0" with entities [Pieuje (ID: 17772735/0x010F30BF), Pieuje (ID: 17772735/0x010F30BF)], work=121*
  1: 0x008D [0x1C] WAIT(30* ticks)
  2: 0x0090 [0x00] END_REQSTACK()
```

### Event 65535.8

#### Metadata

| Field        | Value    |
|--------------|----------|
| Entrypoint   | 0x0091   |
| Data Size    | 29 bytes |
| Instructions | 3        |

```
      00 01 02 03 04 05 06 07  08 09 0A 0B 0C 0D 0E 0F
      -- -- -- -- -- -- -- --  -- -- -- -- -- -- -- --
0090:    5B 11 80 BF 30 0F 01  BF 30 0F 01 74 68 6B 31   [...0...0..thk1
00A0: 53 BF 30 0F 01 BF 30 0F  01 74 68 6B 31 00        S.0...0..thk1.  
```

#### Opcodes

```
  0: 0x0091 [0x5B] LOAD_EXT_SCHEDULER: Load scheduler "thk1" with entities [Pieuje (ID: 17772735/0x010F30BF), Pieuje (ID: 17772735/0x010F30BF)], work=121*
  1: 0x00A0 [0x53] WAIT_SCHEDULER_TASK: Wait for scheduler "thk1" with entities [Pieuje (ID: 17772735/0x010F30BF), Pieuje (ID: 17772735/0x010F30BF)]
  2: 0x00AD [0x00] END_REQSTACK()
```

### Event 65535.9

#### Metadata

| Field        | Value    |
|--------------|----------|
| Entrypoint   | 0x00AE   |
| Data Size    | 19 bytes |
| Instructions | 3        |

```
      00 01 02 03 04 05 06 07  08 09 0A 0B 0C 0D 0E 0F
      -- -- -- -- -- -- -- --  -- -- -- -- -- -- -- --
00A0:                                            5B 11                [.
00B0: 80 BF 30 0F 01 BF 30 0F  01 70 75 69 30 1C 10 80  ..0...0..pui0...
00C0: 00                                                .               
```

#### Opcodes

```
  0: 0x00AE [0x5B] LOAD_EXT_SCHEDULER: Load scheduler "pui0" with entities [Pieuje (ID: 17772735/0x010F30BF), Pieuje (ID: 17772735/0x010F30BF)], work=121*
  1: 0x00BD [0x1C] WAIT(30* ticks)
  2: 0x00C0 [0x00] END_REQSTACK()
```

### Event 65535.10

#### Metadata

| Field        | Value    |
|--------------|----------|
| Entrypoint   | 0x00C1   |
| Data Size    | 29 bytes |
| Instructions | 3        |

```
      00 01 02 03 04 05 06 07  08 09 0A 0B 0C 0D 0E 0F
      -- -- -- -- -- -- -- --  -- -- -- -- -- -- -- --
00C0:    5B 11 80 BF 30 0F 01  BF 30 0F 01 70 75 69 31   [...0...0..pui1
00D0: 53 BF 30 0F 01 BF 30 0F  01 70 75 69 31 00        S.0...0..pui1.  
```

#### Opcodes

```
  0: 0x00C1 [0x5B] LOAD_EXT_SCHEDULER: Load scheduler "pui1" with entities [Pieuje (ID: 17772735/0x010F30BF), Pieuje (ID: 17772735/0x010F30BF)], work=121*
  1: 0x00D0 [0x53] WAIT_SCHEDULER_TASK: Wait for scheduler "pui1" with entities [Pieuje (ID: 17772735/0x010F30BF), Pieuje (ID: 17772735/0x010F30BF)]
  2: 0x00DD [0x00] END_REQSTACK()
```
