# 17772546 - Jima

## Common Data

| Field            | Value                     |
|------------------|---------------------------|
| Zone             | Ru'Lude Gardens (ID: 243) |
| Block Size       | 324 bytes                 |
| Total Events     | 11                        |
| References Count | 14                        |

## List of Events

| Event ID                 | Entrypoint   |   Size |   Instructions |
|--------------------------|--------------|--------|----------------|
| [65535](#event-65535)    | 0x0000       |      6 |              3 |
| [39](#event-39)          | 0x0006       |     10 |              2 |
| [130](#event-130)        | 0x0010       |     10 |              2 |
| [65535.1](#event-655351) | 0x001A       |     45 |             13 |
| [65535.2](#event-655352) | 0x0047       |     19 |              3 |
| [65535.3](#event-655353) | 0x005A       |     19 |              3 |
| [65535.4](#event-655354) | 0x006D       |     29 |              3 |
| [65535.5](#event-655355) | 0x008A       |     29 |              3 |
| [65535.6](#event-655356) | 0x00A7       |     29 |              3 |
| [65535.7](#event-655357) | 0x00C4       |      9 |              3 |
| [65535.8](#event-655358) | 0x00CD       |      1 |              1 |

## DAT References (imed_data)

|   Index | Hex Value   |   Dec Value |
|---------|-------------|-------------|
|       0 | 0x000D      |          13 |
|       1 | 0xFFFF81D9  |  4294935001 |
|       2 | 0xFFFEDE62  |  4294893154 |
|       3 | 0x2327      |        8999 |
|       4 | 0x0BA2      |        2978 |
|       5 | 0x003C      |          60 |
|       6 | 0xFFFF7821  |  4294932513 |
|       7 | 0xFFFEDE2C  |  4294893100 |
|       8 | 0xFFFF77F3  |  4294932467 |
|       9 | 0xFFFEE833  |  4294895667 |
|      10 | 0xFFFF8226  |  4294935078 |
|      11 | 0xFFFEE867  |  4294895719 |
|      12 | 0x001E      |          30 |
|      13 | 0x001F      |          31 |

## Events

### Event 65535

#### Metadata

| Field        | Value   |
|--------------|---------|
| Entrypoint   | 0x0000  |
| Data Size    | 6 bytes |
| Instructions | 3       |

```
      00 01 02 03 04 05 06 07  08 09 0A 0B 0C 0D 0E 0F
      -- -- -- -- -- -- -- --  -- -- -- -- -- -- -- --
0000: 22 00 32 00 80 00                                 ".2...          
```

#### Opcodes

```
  0: 0x0000 [0x22] ENTITY_HIDE_FLAG(enabled=0x00)
  1: 0x0002 [0x32] ExtData[1]->MainSpeed = 13* * 0.1
  2: 0x0005 [0x00] END_REQSTACK()
```

### Event 39

#### Metadata

| Field        | Value    |
|--------------|----------|
| Entrypoint   | 0x0006   |
| Data Size    | 10 bytes |
| Instructions | 2        |

```
      00 01 02 03 04 05 06 07  08 09 0A 0B 0C 0D 0E 0F
      -- -- -- -- -- -- -- --  -- -- -- -- -- -- -- --
0000:                   37 01  80 02 80 03 80 04 80 00        7.........
```

#### Opcodes

```
  0: 0x0006 [0x37] UPDATE_EVENT_POSITION_AND_DIR: x=-32.295*, z=-74.142*, y=8.999*, direction=261.7°*
  1: 0x000F [0x00] END_REQSTACK()
```

### Event 130

#### Metadata

| Field        | Value    |
|--------------|----------|
| Entrypoint   | 0x0010   |
| Data Size    | 10 bytes |
| Instructions | 2        |

```
      00 01 02 03 04 05 06 07  08 09 0A 0B 0C 0D 0E 0F
      -- -- -- -- -- -- -- --  -- -- -- -- -- -- -- --
0010: 37 01 80 02 80 03 80 04  80 00                    7.........      
```

#### Opcodes

```
  0: 0x0010 [0x37] UPDATE_EVENT_POSITION_AND_DIR: x=-32.295*, z=-74.142*, y=8.999*, direction=261.7°*
  1: 0x0019 [0x00] END_REQSTACK()
```

### Event 65535.1

#### Metadata

| Field        | Value    |
|--------------|----------|
| Entrypoint   | 0x001A   |
| Data Size    | 45 bytes |
| Instructions | 13       |

```
      00 01 02 03 04 05 06 07  08 09 0A 0B 0C 0D 0E 0F
      -- -- -- -- -- -- -- --  -- -- -- -- -- -- -- --
0010:                                1C 05 80 32 00 80            ...2..
0020: 1F 00 06 80 07 80 03 80  1F 01 1F 00 08 80 09 80  ................
0030: 03 80 1F 01 1F 00 0A 80  0B 80 03 80 1F 01 6F 1E  ..............o.
0040: F0 FF FF 7F 6F 70 00                              ....op.         
```

#### Opcodes

```
  0: 0x001A [0x1C] WAIT(60* ticks)
  1: 0x001D [0x32] ExtData[1]->MainSpeed = 13* * 0.1
  2: 0x0020 [0x1F] MOVE_ENTITY: EventEntity moves to X=-34.783*, Z=-74.196*, Y=8.999*
  3: 0x0028 [0x1F] MOVE_ENTITY: Update entity position (mode=1)
  4: 0x002A [0x1F] MOVE_ENTITY: EventEntity moves to X=-34.829*, Z=-71.629*, Y=8.999*
  5: 0x0032 [0x1F] MOVE_ENTITY: Update entity position (mode=1)
  6: 0x0034 [0x1F] MOVE_ENTITY: EventEntity moves to X=-32.218*, Z=-71.577*, Y=8.999*
  7: 0x003C [0x1F] MOVE_ENTITY: Update entity position (mode=1)
  8: 0x003E [0x6F] WAIT_FRAME_DELAY: Yield until WaitTime reaches zero
  9: 0x003F [0x1E] EventEntity looks at LocalPlayer and starts talking
 10: 0x0044 [0x6F] WAIT_FRAME_DELAY: Yield until WaitTime reaches zero
 11: 0x0045 [0x70] WAIT_ENTITY_RENDER_FLAG: Wait while EventEntity->Render.Flags3 bit 2 is set (cancel turn if not)
 12: 0x0046 [0x00] END_REQSTACK()
```

### Event 65535.2

#### Metadata

| Field        | Value    |
|--------------|----------|
| Entrypoint   | 0x0047   |
| Data Size    | 19 bytes |
| Instructions | 3        |

```
      00 01 02 03 04 05 06 07  08 09 0A 0B 0C 0D 0E 0F
      -- -- -- -- -- -- -- --  -- -- -- -- -- -- -- --
0040:                      66  0C 80 F8 FF FF 7F F8 FF         f........
0050: FF 7F 74 6C 6B 30 1C 05  80 00                    ..tlk0....      
```

#### Opcodes

```
  0: 0x0047 [0x66] LOAD_EXT_SCHEDULER_MAIN: Load scheduler "tlk0" with entities [EventEntity, EventEntity], work=30*
  1: 0x0056 [0x1C] WAIT(60* ticks)
  2: 0x0059 [0x00] END_REQSTACK()
```

### Event 65535.3

#### Metadata

| Field        | Value    |
|--------------|----------|
| Entrypoint   | 0x005A   |
| Data Size    | 19 bytes |
| Instructions | 3        |

```
      00 01 02 03 04 05 06 07  08 09 0A 0B 0C 0D 0E 0F
      -- -- -- -- -- -- -- --  -- -- -- -- -- -- -- --
0050:                                66 0C 80 F8 FF FF            f.....
0060: 7F F8 FF FF 7F 74 68 6B  31 1C 05 80 00           .....thk1....   
```

#### Opcodes

```
  0: 0x005A [0x66] LOAD_EXT_SCHEDULER_MAIN: Load scheduler "thk1" with entities [EventEntity, EventEntity], work=30*
  1: 0x0069 [0x1C] WAIT(60* ticks)
  2: 0x006C [0x00] END_REQSTACK()
```

### Event 65535.4

#### Metadata

| Field        | Value    |
|--------------|----------|
| Entrypoint   | 0x006D   |
| Data Size    | 29 bytes |
| Instructions | 3        |

```
      00 01 02 03 04 05 06 07  08 09 0A 0B 0C 0D 0E 0F
      -- -- -- -- -- -- -- --  -- -- -- -- -- -- -- --
0060:                                         66 0C 80               f..
0070: F8 FF FF 7F F8 FF FF 7F  74 68 6B 32 53 F8 FF FF  ........thk2S...
0080: 7F F8 FF FF 7F 74 68 6B  32 00                    .....thk2.      
```

#### Opcodes

```
  0: 0x006D [0x66] LOAD_EXT_SCHEDULER_MAIN: Load scheduler "thk2" with entities [EventEntity, EventEntity], work=30*
  1: 0x007C [0x53] WAIT_SCHEDULER_TASK: Wait for scheduler "thk2" with entities [EventEntity, EventEntity]
  2: 0x0089 [0x00] END_REQSTACK()
```

### Event 65535.5

#### Metadata

| Field        | Value    |
|--------------|----------|
| Entrypoint   | 0x008A   |
| Data Size    | 29 bytes |
| Instructions | 3        |

```
      00 01 02 03 04 05 06 07  08 09 0A 0B 0C 0D 0E 0F
      -- -- -- -- -- -- -- --  -- -- -- -- -- -- -- --
0080:                                66 0D 80 F8 FF FF            f.....
0090: 7F F8 FF FF 7F 73 61 6C  30 53 F8 FF FF 7F F8 FF  .....sal0S......
00A0: FF 7F 73 61 6C 30 00                              ..sal0.         
```

#### Opcodes

```
  0: 0x008A [0x66] LOAD_EXT_SCHEDULER_MAIN: Load scheduler "sal0" with entities [EventEntity, EventEntity], work=31*
  1: 0x0099 [0x53] WAIT_SCHEDULER_TASK: Wait for scheduler "sal0" with entities [EventEntity, EventEntity]
  2: 0x00A6 [0x00] END_REQSTACK()
```

### Event 65535.6

#### Metadata

| Field        | Value    |
|--------------|----------|
| Entrypoint   | 0x00A7   |
| Data Size    | 29 bytes |
| Instructions | 3        |

```
      00 01 02 03 04 05 06 07  08 09 0A 0B 0C 0D 0E 0F
      -- -- -- -- -- -- -- --  -- -- -- -- -- -- -- --
00A0:                      66  0D 80 F8 FF FF 7F F8 FF         f........
00B0: FF 7F 73 61 6C 31 53 F8  FF FF 7F F8 FF FF 7F 73  ..sal1S........s
00C0: 61 6C 31 00                                       al1.            
```

#### Opcodes

```
  0: 0x00A7 [0x66] LOAD_EXT_SCHEDULER_MAIN: Load scheduler "sal1" with entities [EventEntity, EventEntity], work=31*
  1: 0x00B6 [0x53] WAIT_SCHEDULER_TASK: Wait for scheduler "sal1" with entities [EventEntity, EventEntity]
  2: 0x00C3 [0x00] END_REQSTACK()
```

### Event 65535.7

#### Metadata

| Field        | Value   |
|--------------|---------|
| Entrypoint   | 0x00C4  |
| Data Size    | 9 bytes |
| Instructions | 3       |

```
      00 01 02 03 04 05 06 07  08 09 0A 0B 0C 0D 0E 0F
      -- -- -- -- -- -- -- --  -- -- -- -- -- -- -- --
00C0:             5E 69 64 6C  30 1C 05 80 00               ^idl0....   
```

#### Opcodes

```
  0: 0x00C4 [0x5E] EventEntity goes idle (kills current action) (animation: "idl0")
  1: 0x00C9 [0x1C] WAIT(60* ticks)
  2: 0x00CC [0x00] END_REQSTACK()
```

### Event 65535.8

#### Metadata

| Field        | Value   |
|--------------|---------|
| Entrypoint   | 0x00CD  |
| Data Size    | 1 bytes |
| Instructions | 1       |

```
      00 01 02 03 04 05 06 07  08 09 0A 0B 0C 0D 0E 0F
      -- -- -- -- -- -- -- --  -- -- -- -- -- -- -- --
00C0:                                         00                     .  
```

#### Opcodes

```
  0: 0x00CD [0x00] END_REQSTACK()
```
