# 17772834

## Common Data

| Field            | Value                     |
|------------------|---------------------------|
| Zone             | Ru'Lude Gardens (ID: 243) |
| Block Size       | 27072 bytes               |
| Total Events     | 9                         |
| References Count | 362                       |

## List of Events

| Event ID              | Entrypoint   |   Size |   Instructions |
|-----------------------|--------------|--------|----------------|
| [65535](#event-65535) | 0x0000       |      1 |              1 |
| [10163](#event-10163) | 0x0001       |   2135 |            329 |
| [10164](#event-10164) | 0x0858       |    913 |            141 |
| [10165](#event-10165) | 0x0BE9       |    913 |            141 |
| [10166](#event-10166) | 0x0F7A       |    913 |            141 |
| [10169](#event-10169) | 0x130B       |    379 |             57 |
| [10170](#event-10170) | 0x1486       |    379 |             57 |
| [10171](#event-10171) | 0x1601       |    379 |             57 |
| [10172](#event-10172) | 0x177C       |  19559 |           3299 |

## DAT References (imed_data)

|   Index | Hex Value   |   Dec Value |
|---------|-------------|-------------|
|       0 | 0x0013      |          19 |
|       1 | 0xFFFFD734  |  4294956852 |
|       2 | 0x1CD4C     |      118092 |
|       3 | 0x0C1D      |        3101 |
|       4 | 0x07E5      |        2021 |
|       5 | 0xFFFFF595  |  4294964629 |
|       6 | 0x1C8E4     |      116964 |
|       7 | 0x082F      |        2095 |
|       8 | 0x0000      |           0 |
|       9 | 0x0001      |           1 |
|      10 | 0x001E      |          30 |
|      11 | 0x0232      |         562 |
|      12 | 0x3893      |       14483 |
|      13 | 0x0096      |         150 |
|      14 | 0x06E8      |        1768 |
|      15 | 0x39B6      |       14774 |
|      16 | 0x0A4C      |        2636 |
|      17 | 0x39B7      |       14775 |
|      18 | 0x39B8      |       14776 |
|      19 | 0x0002      |           2 |
|      20 | 0x39B9      |       14777 |
|      21 | 0x0003      |           3 |
|      22 | 0x39BB      |       14779 |
|      23 | 0x0004      |           4 |
|      24 | 0x39BA      |       14778 |
|      25 | 0x0005      |           5 |
|      26 | 0x39BE      |       14782 |
|      27 | 0x0006      |           6 |
|      28 | 0x39BF      |       14783 |
|      29 | 0x0007      |           7 |
|      30 | 0x39C0      |       14784 |
|      31 | 0x0008      |           8 |
|      32 | 0x39C1      |       14785 |
|      33 | 0x0009      |           9 |
|      34 | 0x39C2      |       14786 |
|      35 | 0x000A      |          10 |
|      36 | 0x39BC      |       14780 |
|      37 | 0x000B      |          11 |
|      38 | 0x39BD      |       14781 |
|      39 | 0x000C      |          12 |
|      40 | 0x39C3      |       14787 |
|      41 | 0x000F      |          15 |
|      42 | 0x0384      |         900 |
|      43 | 0x0069      |         105 |
|      44 | 0x39C4      |       14788 |
|      45 | 0xFFFFD8B5  |  4294957237 |
|      46 | 0x1D1B2     |      119218 |
|      47 | 0x0687      |        1671 |
|      48 | 0xFFFFD53F  |  4294956351 |
|      49 | 0x1CD7D     |      118141 |
|      50 | 0x07F7      |        2039 |
|      51 | 0x36E6      |       14054 |
|      52 | 0x005A      |          90 |
|      53 | 0x39C5      |       14789 |
|      54 | 0x39C6      |       14790 |
|      55 | 0x39C7      |       14791 |
|      56 | 0x39C8      |       14792 |
|      57 | 0x39C9      |       14793 |
|      58 | 0x39CA      |       14794 |
|      59 | 0x39CB      |       14795 |
|      60 | 0x39CC      |       14796 |
|      61 | 0x39CD      |       14797 |
|      62 | 0x0023      |          35 |
|      63 | 0x002D      |          45 |
|      64 | 0x39CE      |       14798 |
|      65 | 0x39CF      |       14799 |
|      66 | 0x39D1      |       14801 |
|      67 | 0x39D0      |       14800 |
|      68 | 0x39D4      |       14804 |
|      69 | 0x39D5      |       14805 |
|      70 | 0x39D6      |       14806 |
|      71 | 0x39D7      |       14807 |
|      72 | 0x39D8      |       14808 |
|      73 | 0x39D2      |       14802 |
|      74 | 0x39D3      |       14803 |
|      75 | 0x39D9      |       14809 |
|      76 | 0x0800      |        2048 |
|      77 | 0x0A57      |        2647 |
|      78 | 0x39DA      |       14810 |
|      79 | 0x39DB      |       14811 |
|      80 | 0x39DC      |       14812 |
|      81 | 0x39DD      |       14813 |
|      82 | 0x39DE      |       14814 |
|      83 | 0x0086      |         134 |
|      84 | 0x39DF      |       14815 |
|      85 | 0x0078      |         120 |
|      86 | 0x39E0      |       14816 |
|      87 | 0x39E1      |       14817 |
|      88 | 0x39E2      |       14818 |
|      89 | 0x39E3      |       14819 |
|      90 | 0x39E4      |       14820 |
|      91 | 0x39E6      |       14822 |
|      92 | 0x39E5      |       14821 |
|      93 | 0x39E9      |       14825 |
|      94 | 0x39EA      |       14826 |
|      95 | 0x39EB      |       14827 |
|      96 | 0x39EC      |       14828 |
|      97 | 0x39ED      |       14829 |
|      98 | 0x39E7      |       14823 |
|      99 | 0x39E8      |       14824 |
|     100 | 0x39EE      |       14830 |
|     101 | 0x0AC3      |        2755 |
|     102 | 0x39EF      |       14831 |
|     103 | 0x0075      |         117 |
|     104 | 0x00C8      |         200 |
|     105 | 0xFFFFD7F9  |  4294957049 |
|     106 | 0x1CB88     |      117640 |
|     107 | 0x085D      |        2141 |
|     108 | 0xFFFFDB7E  |  4294957950 |
|     109 | 0x1CFE2     |      118754 |
|     110 | 0x0771      |        1905 |
|     111 | 0x39F1      |       14833 |
|     112 | 0x39F2      |       14834 |
|     113 | 0x39F3      |       14835 |
|     114 | 0x39F4      |       14836 |
|     115 | 0x39F5      |       14837 |
|     116 | 0x39F6      |       14838 |
|     117 | 0x39F7      |       14839 |
|     118 | 0x39F8      |       14840 |
|     119 | 0x0024      |          36 |
|     120 | 0x39F9      |       14841 |
|     121 | 0x39FA      |       14842 |
|     122 | 0x39FC      |       14844 |
|     123 | 0x39FB      |       14843 |
|     124 | 0x39FF      |       14847 |
|     125 | 0x3A00      |       14848 |
|     126 | 0x3A01      |       14849 |
|     127 | 0x3A02      |       14850 |
|     128 | 0x3A03      |       14851 |
|     129 | 0x39FD      |       14845 |
|     130 | 0x39FE      |       14846 |
|     131 | 0x3A04      |       14852 |
|     132 | 0x3A05      |       14853 |
|     133 | 0x003C      |          60 |
|     134 | 0x3A06      |       14854 |
|     135 | 0x3A07      |       14855 |
|     136 | 0x00C9      |         201 |
|     137 | 0x00D7      |         215 |
|     138 | 0x005F      |          95 |
|     139 | 0x0064      |         100 |
|     140 | 0x0052      |          82 |
|     141 | 0x0057      |          87 |
|     142 | 0x005C      |          92 |
|     143 | 0x0059      |          89 |
|     144 | 0x005D      |          93 |
|     145 | 0x0061      |          97 |
|     146 | 0x0060      |          96 |
|     147 | 0x000D      |          13 |
|     148 | 0x0012      |          18 |
|     149 | 0x0014      |          20 |
|     150 | 0x0017      |          23 |
|     151 | 0x000E      |          14 |
|     152 | 0x0018      |          24 |
|     153 | 0x001F      |          31 |
|     154 | 0x001B      |          27 |
|     155 | 0x0010      |          16 |
|     156 | 0x0015      |          21 |
|     157 | 0x018D      |         397 |
|     158 | 0x0175      |         373 |
|     159 | 0x0170      |         368 |
|     160 | 0x0171      |         369 |
|     161 | 0x014C      |         332 |
|     162 | 0x01C1      |         449 |
|     163 | 0x027C      |         636 |
|     164 | 0x027B      |         635 |
|     165 | 0x027D      |         637 |
|     166 | 0x02D3      |         723 |
|     167 | 0x0321      |         801 |
|     168 | 0x0326      |         806 |
|     169 | 0x01E1      |         481 |
|     170 | 0x0343      |         835 |
|     171 | 0x0386      |         902 |
|     172 | 0x0388      |         904 |
|     173 | 0x0361      |         865 |
|     174 | 0x0387      |         903 |
|     175 | 0x038A      |         906 |
|     176 | 0x003F      |          63 |
|     177 | 0x0282      |         642 |
|     178 | 0x0283      |         643 |
|     179 | 0x0288      |         648 |
|     180 | 0x0289      |         649 |
|     181 | 0x028A      |         650 |
|     182 | 0x028B      |         651 |
|     183 | 0x029E      |         670 |
|     184 | 0x0019      |          25 |
|     185 | 0x00C6      |         198 |
|     186 | 0x0032      |          50 |
|     187 | 0x00B5      |         181 |
|     188 | 0x008C      |         140 |
|     189 | 0x008E      |         142 |
|     190 | 0x007A      |         122 |
|     191 | 0x014B      |         331 |
|     192 | 0x0148      |         328 |
|     193 | 0x0166      |         358 |
|     194 | 0x017A      |         378 |
|     195 | 0x0182      |         386 |
|     196 | 0x0183      |         387 |
|     197 | 0x0192      |         402 |
|     198 | 0x01DF      |         479 |
|     199 | 0x01E9      |         489 |
|     200 | 0x001C      |          28 |
|     201 | 0x00E6      |         230 |
|     202 | 0x00EB      |         235 |
|     203 | 0x00F5      |         245 |
|     204 | 0x007E      |         126 |
|     205 | 0x007F      |         127 |
|     206 | 0x00F3      |         243 |
|     207 | 0x00F4      |         244 |
|     208 | 0x00E0      |         224 |
|     209 | 0x00E9      |         233 |
|     210 | 0x009E      |         158 |
|     211 | 0x009D      |         157 |
|     212 | 0x00E2      |         226 |
|     213 | 0x00E1      |         225 |
|     214 | 0x014F      |         335 |
|     215 | 0x014E      |         334 |
|     216 | 0x0167      |         359 |
|     217 | 0x00E5      |         229 |
|     218 | 0x0169      |         361 |
|     219 | 0x016A      |         362 |
|     220 | 0x0168      |         360 |
|     221 | 0x0133      |         307 |
|     222 | 0x0174      |         372 |
|     223 | 0x018C      |         396 |
|     224 | 0x0194      |         404 |
|     225 | 0x0195      |         405 |
|     226 | 0x0178      |         376 |
|     227 | 0x0240      |         576 |
|     228 | 0x0197      |         407 |
|     229 | 0x0198      |         408 |
|     230 | 0x01A3      |         419 |
|     231 | 0x019E      |         414 |
|     232 | 0x0246      |         582 |
|     233 | 0x0247      |         583 |
|     234 | 0x0248      |         584 |
|     235 | 0x024B      |         587 |
|     236 | 0x024A      |         586 |
|     237 | 0x0011      |          17 |
|     238 | 0x024F      |         591 |
|     239 | 0x01C3      |         451 |
|     240 | 0x01C4      |         452 |
|     241 | 0x01EF      |         495 |
|     242 | 0x01F0      |         496 |
|     243 | 0x001A      |          26 |
|     244 | 0x0095      |         149 |
|     245 | 0x001D      |          29 |
|     246 | 0x0073      |         115 |
|     247 | 0x0034      |          52 |
|     248 | 0x005E      |          94 |
|     249 | 0x0072      |         114 |
|     250 | 0x0031      |          49 |
|     251 | 0x006C      |         108 |
|     252 | 0x003A      |          58 |
|     253 | 0x0016      |          22 |
|     254 | 0x0035      |          53 |
|     255 | 0x0085      |         133 |
|     256 | 0x0081      |         129 |
|     257 | 0x0033      |          51 |
|     258 | 0x0082      |         130 |
|     259 | 0x0039      |          57 |
|     260 | 0x0020      |          32 |
|     261 | 0x0038      |          56 |
|     262 | 0x0036      |          54 |
|     263 | 0x0083      |         131 |
|     264 | 0x00A2      |         162 |
|     265 | 0x0022      |          34 |
|     266 | 0x0021      |          33 |
|     267 | 0x0065      |         101 |
|     268 | 0x0062      |          98 |
|     269 | 0x008D      |         141 |
|     270 | 0x0037      |          55 |
|     271 | 0x008A      |         138 |
|     272 | 0x008B      |         139 |
|     273 | 0x002B      |          43 |
|     274 | 0x0067      |         103 |
|     275 | 0x0030      |          48 |
|     276 | 0x00A1      |         161 |
|     277 | 0x0066      |         102 |
|     278 | 0x0068      |         104 |
|     279 | 0x007B      |         123 |
|     280 | 0x0077      |         119 |
|     281 | 0x01FE      |         510 |
|     282 | 0x009F      |         159 |
|     283 | 0x00A4      |         164 |
|     284 | 0x00A9      |         169 |
|     285 | 0x00AC      |         172 |
|     286 | 0x00B2      |         178 |
|     287 | 0x00B0      |         176 |
|     288 | 0x013D      |         317 |
|     289 | 0x0108      |         264 |
|     290 | 0x010C      |         268 |
|     291 | 0x0100      |         256 |
|     292 | 0x00FB      |         251 |
|     293 | 0x00B8      |         184 |
|     294 | 0x011C      |         284 |
|     295 | 0x0041      |          65 |
|     296 | 0x0042      |          66 |
|     297 | 0x0047      |          71 |
|     298 | 0x0160      |         352 |
|     299 | 0x0043      |          67 |
|     300 | 0x0048      |          72 |
|     301 | 0x004B      |          75 |
|     302 | 0x004C      |          76 |
|     303 | 0x004D      |          77 |
|     304 | 0x005B      |          91 |
|     305 | 0x0058      |          88 |
|     306 | 0x0053      |          83 |
|     307 | 0x0054      |          84 |
|     308 | 0x0161      |         353 |
|     309 | 0x015C      |         348 |
|     310 | 0x016D      |         365 |
|     311 | 0x00C5      |         197 |
|     312 | 0x00C3      |         195 |
|     313 | 0x00C7      |         199 |
|     314 | 0x015E      |         350 |
|     315 | 0x00C4      |         196 |
|     316 | 0x016E      |         366 |
|     317 | 0x00D0      |         208 |
|     318 | 0x00CD      |         205 |
|     319 | 0x00CA      |         202 |
|     320 | 0x00D2      |         210 |
|     321 | 0x00D8      |         216 |
|     322 | 0x00D5      |         213 |
|     323 | 0x00D6      |         214 |
|     324 | 0x013B      |         315 |
|     325 | 0x0136      |         310 |
|     326 | 0x013A      |         314 |
|     327 | 0x0137      |         311 |
|     328 | 0x016F      |         367 |
|     329 | 0x0138      |         312 |
|     330 | 0x0139      |         313 |
|     331 | 0x009A      |         154 |
|     332 | 0x0091      |         145 |
|     333 | 0x009B      |         155 |
|     334 | 0x0099      |         153 |
|     335 | 0x0093      |         147 |
|     336 | 0x0092      |         146 |
|     337 | 0x0098      |         152 |
|     338 | 0x0071      |         113 |
|     339 | 0x00E8      |         232 |
|     340 | 0x00DD      |         221 |
|     341 | 0x00F8      |         248 |
|     342 | 0x00F1      |         241 |
|     343 | 0x0124      |         292 |
|     344 | 0x012E      |         302 |
|     345 | 0x0129      |         297 |
|     346 | 0x0122      |         290 |
|     347 | 0x0132      |         306 |
|     348 | 0x0126      |         294 |
|     349 | 0x0155      |         341 |
|     350 | 0x0025      |          37 |
|     351 | 0x0029      |          41 |
|     352 | 0x0028      |          40 |
|     353 | 0x007D      |         125 |
|     354 | 0x0079      |         121 |
|     355 | 0x007C      |         124 |
|     356 | 0x0074      |         116 |
|     357 | 0x00EC      |         236 |
|     358 | 0x019C      |         412 |
|     359 | 0x0193      |         403 |
|     360 | 0x01C6      |         454 |
|     361 | 0x01C7      |         455 |

## String References

- **14054**: @@

## Events

### Event 65535

#### Metadata

| Field        | Value   |
|--------------|---------|
| Entrypoint   | 0x0000  |
| Data Size    | 1 bytes |
| Instructions | 1       |

```
      00 01 02 03 04 05 06 07  08 09 0A 0B 0C 0D 0E 0F
      -- -- -- -- -- -- -- --  -- -- -- -- -- -- -- --
0000: 00                                                .               
```

#### Opcodes

```
  0: 0x0000 [0x00] END_REQSTACK()
```

### Event 10163

#### Metadata

| Field        | Value      |
|--------------|------------|
| Entrypoint   | 0x0001     |
| Data Size    | 2135 bytes |
| Instructions | 329        |

```
      00 01 02 03 04 05 06 07  08 09 0A 0B 0C 0D 0E 0F
      -- -- -- -- -- -- -- --  -- -- -- -- -- -- -- --
0000:    42 1A 5A 19 46 01 38  00 80 27 10 23 31 0F 01   B.Z.F.8..'.#1..
0010: 15 92 01 EA 30 0F 01 92  01 F0 30 0F 01 92 01 EE  ....0.....0.....
0020: 30 0F 01 92 01 16 30 0F  01 92 01 31 30 0F 01 92  0.....0....10...
0030: 01 75 30 0F 01 94 01 F0  FF FF 7F 94 01 EA 30 0F  .u0...........0.
0040: 01 94 01 23 31 0F 01 BA  F0 FF FF 7F 01 80 02 80  ...#1...........
0050: 03 80 04 80 BA 23 31 0F  01 05 80 06 80 03 80 07  .....#1.........
0060: 80 29 0A 23 31 0F 01 01  80 23 31 0F 01 80 F0 FF  .).#1....#1.....
0070: FF 7F 80 EA 30 0F 01 4A  F0 FF FF 7F EA 30 0F 01  ....0..J.....0..
0080: 6C 23 31 0F 01 08 80 09  80 1C 0A 80 45 0B 80 F0  l#1.........E...
0090: FF FF 7F F0 FF FF 7F 37  35 32 30 08 80 1A 39 19  .......7520...9.
00A0: 2B EA 30 0F 01 0C 80 23  29 10 F0 FF FF 7F AB 1C  +.0....#).......
00B0: 0D 80 52 0B 80 F0 FF FF  7F F0 FF FF 7F 37 35 32  ..R..........752
00C0: 30 45 0B 80 F0 FF FF 7F  F0 FF FF 7F 37 35 32 31  0E..........7521
00D0: 08 80 03 02 10 0E 80 2B  EA 30 0F 01 0F 80 23 52  .......+.0....#R
00E0: 0B 80 F0 FF FF 7F F0 FF  FF 7F 37 35 32 31 45 0B  ..........7521E.
00F0: 80 F0 FF FF 7F F0 FF FF  7F 37 35 32 32 08 80 5B  .........7522..[
0100: 10 80 EA 30 0F 01 EA 30  0F 01 74 6C 6B 30 2B EA  ...0...0..tlk0+.
0110: 30 0F 01 11 80 23 5B 10  80 EA 30 0F 01 EA 30 0F  0....#[...0...0.
0120: 01 73 74 64 30 52 0B 80  F0 FF FF 7F F0 FF FF 7F  .std0R..........
0130: 37 35 32 32 45 0B 80 F0  FF FF 7F F0 FF FF 7F 37  7522E..........7
0140: 35 32 33 08 80 27 10 23  31 0F 01 18 1A BE 30 02  523..'.#1.....0.
0150: 08 00 09 80 80 61 01 2B  23 31 0F 01 12 80 01 27  .....a.+#1.....'
0160: 02 02 08 00 13 80 80 73  01 2B 23 31 0F 01 14 80  .......s.+#1....
0170: 01 27 02 02 08 00 15 80  80 85 01 2B 23 31 0F 01  .'.........+#1..
0180: 16 80 01 27 02 02 08 00  17 80 80 97 01 2B 23 31  ...'.........+#1
0190: 0F 01 18 80 01 27 02 02  08 00 19 80 80 A9 01 2B  .....'.........+
01A0: 23 31 0F 01 1A 80 01 27  02 02 08 00 1B 80 80 BB  #1.....'........
01B0: 01 2B 23 31 0F 01 1C 80  01 27 02 02 08 00 1D 80  .+#1.....'......
01C0: 80 CD 01 2B 23 31 0F 01  1E 80 01 27 02 02 08 00  ...+#1.....'....
01D0: 1F 80 80 DF 01 2B 23 31  0F 01 20 80 01 27 02 02  .....+#1.. ..'..
01E0: 08 00 21 80 80 F1 01 2B  23 31 0F 01 22 80 01 27  ..!....+#1.."..'
01F0: 02 02 08 00 23 80 80 03  02 2B 23 31 0F 01 24 80  ....#....+#1..$.
0200: 01 27 02 02 08 00 25 80  80 15 02 2B 23 31 0F 01  .'....%....+#1..
0210: 26 80 01 27 02 02 08 00  27 80 80 27 02 2B 23 31  &..'....'..'.+#1
0220: 0F 01 28 80 01 27 02 1C  29 80 79 00 F0 FF FF 7F  ..(..'..).y.....
0230: 23 31 0F 01 4B F0 FF FF  7F 2A 80 6F 76 F0 FF FF  #1..K....*.ov...
0240: 7F 1C 2B 80 23 2B EA 30  0F 01 2C 80 23 1A 5A 19  ..+.#+.0..,.#.Z.
0250: 1C 0A 80 BA F0 FF FF 7F  2D 80 2E 80 03 80 2F 80  ........-...../.
0260: BA 23 31 0F 01 30 80 31  80 03 80 32 80 29 0A 23  .#1..0.1...2.).#
0270: 31 0F 01 01 80 23 31 0F  01 80 F0 FF FF 7F 80 EA  1....#1.........
0280: 30 0F 01 79 00 F0 FF FF  7F EA 30 0F 01 79 00 23  0..y......0..y.#
0290: 31 0F 01 EA 30 0F 01 48  33 80 23 52 0B 80 F0 FF  1...0..H3.#R....
02A0: FF 7F F0 FF FF 7F 37 35  32 33 45 0B 80 F0 FF FF  ......7523E.....
02B0: 7F F0 FF FF 7F 37 35 32  35 08 80 1A 39 19 1C 34  .....7525...9..4
02C0: 80 1A D3 2F 1A DD 2F 03  02 10 01 00 02 0B 00 08  .../../.........
02D0: 80 80 DF 02 2B EA 30 0F  01 35 80 23 01 64 03 02  ....+.0..5.#.d..
02E0: 0B 00 09 80 80 F2 02 2B  EA 30 0F 01 36 80 23 01  .......+.0..6.#.
02F0: 64 03 02 0B 00 13 80 80  05 03 2B EA 30 0F 01 37  d.........+.0..7
0300: 80 23 01 64 03 02 0B 00  15 80 80 18 03 2B EA 30  .#.d.........+.0
0310: 0F 01 38 80 23 01 64 03  02 0B 00 17 80 80 2B 03  ..8.#.d.......+.
0320: 2B EA 30 0F 01 39 80 23  01 64 03 02 0B 00 19 80  +.0..9.#.d......
0330: 80 3E 03 2B EA 30 0F 01  3A 80 23 01 64 03 02 0B  .>.+.0..:.#.d...
0340: 00 1B 80 80 51 03 2B EA  30 0F 01 3B 80 23 01 64  ....Q.+.0..;.#.d
0350: 03 02 0B 00 1D 80 80 64  03 2B EA 30 0F 01 3C 80  .......d.+.0..<.
0360: 23 01 64 03 52 0B 80 F0  FF FF 7F F0 FF FF 7F 37  #.d.R..........7
0370: 35 32 35 45 0B 80 F0 FF  FF 7F F0 FF FF 7F 37 35  525E..........75
0380: 32 36 08 80 2B EA 30 0F  01 3D 80 23 52 0B 80 F0  26..+.0..=.#R...
0390: FF FF 7F F0 FF FF 7F 37  35 32 36 02 0B 00 17 80  .......7526.....
03A0: 80 B7 03 45 0B 80 F0 FF  FF 7F F0 FF FF 7F 37 35  ...E..........75
03B0: 32 38 08 80 01 E4 03 02  0B 00 19 80 80 D3 03 45  28.............E
03C0: 0B 80 F0 FF FF 7F F0 FF  FF 7F 37 35 32 38 08 80  ..........7528..
03D0: 01 E4 03 45 0B 80 F0 FF  FF 7F F0 FF FF 7F 37 35  ...E..........75
03E0: 32 37 08 80 6E 23 31 0F  01 3E 80 99 23 31 0F 01  27..n#1..>..#1..
03F0: 1C 3F 80 79 00 F0 FF FF  7F 23 31 0F 01 1A BE 30  .?.y.....#1....0
0400: 02 08 00 09 80 80 13 04  2B 23 31 0F 01 40 80 23  ........+#1..@.#
0410: 01 E4 04 02 08 00 13 80  80 26 04 2B 23 31 0F 01  .........&.+#1..
0420: 41 80 23 01 E4 04 02 08  00 15 80 80 39 04 2B 23  A.#.........9.+#
0430: 31 0F 01 42 80 23 01 E4  04 02 08 00 17 80 80 4C  1..B.#.........L
0440: 04 2B 23 31 0F 01 43 80  23 01 E4 04 02 08 00 19  .+#1..C.#.......
0450: 80 80 5F 04 2B 23 31 0F  01 44 80 23 01 E4 04 02  .._.+#1..D.#....
0460: 08 00 1B 80 80 72 04 2B  23 31 0F 01 45 80 23 01  .....r.+#1..E.#.
0470: E4 04 02 08 00 1D 80 80  85 04 2B 23 31 0F 01 46  ..........+#1..F
0480: 80 23 01 E4 04 02 08 00  1F 80 80 98 04 2B 23 31  .#...........+#1
0490: 0F 01 47 80 23 01 E4 04  02 08 00 21 80 80 AB 04  ..G.#......!....
04A0: 2B 23 31 0F 01 48 80 23  01 E4 04 02 08 00 23 80  +#1..H.#......#.
04B0: 80 BE 04 2B 23 31 0F 01  49 80 23 01 E4 04 02 08  ...+#1..I.#.....
04C0: 00 25 80 80 D1 04 2B 23  31 0F 01 4A 80 23 01 E4  .%....+#1..J.#..
04D0: 04 02 08 00 27 80 80 E4  04 2B 23 31 0F 01 4B 80  ....'....+#1..K.
04E0: 23 01 E4 04 52 0B 80 F0  FF FF 7F F0 FF FF 7F 37  #...R..........7
04F0: 35 32 37 52 0B 80 F0 FF  FF 7F F0 FF FF 7F 37 35  527R..........75
0500: 32 38 45 0B 80 F0 FF FF  7F F0 FF FF 7F 37 35 32  28E..........752
0510: 39 08 80 4B EA 30 0F 01  4C 80 6F 76 EA 30 0F 01  9..K.0..L.ov.0..
0520: 79 00 F0 FF FF 7F EA 30  0F 01 5B 4D 80 EA 30 0F  y......0..[M..0.
0530: 01 EA 30 0F 01 74 68 62  30 1C 3F 80 2B EA 30 0F  ..0..thb0.?.+.0.
0540: 01 4E 80 23 2B EA 30 0F  01 4F 80 23 52 0B 80 F0  .N.#+.0..O.#R...
0550: FF FF 7F F0 FF FF 7F 37  35 32 39 45 0B 80 F0 FF  .......7529E....
0560: FF 7F F0 FF FF 7F 37 35  33 30 08 80 5B 4D 80 EA  ......7530..[M..
0570: 30 0F 01 EA 30 0F 01 74  68 62 31 1C 0A 80 2B EA  0...0..thb1...+.
0580: 30 0F 01 50 80 23 52 0B  80 F0 FF FF 7F F0 FF FF  0..P.#R.........
0590: 7F 37 35 33 30 45 0B 80  F0 FF FF 7F F0 FF FF 7F  .7530E..........
05A0: 37 35 33 31 08 80 4B EA  30 0F 01 08 80 6F 76 EA  7531..K.0....ov.
05B0: 30 0F 01 2B EA 30 0F 01  51 80 23 2B EA 30 0F 01  0..+.0..Q.#+.0..
05C0: 52 80 23 52 0B 80 F0 FF  FF 7F F0 FF FF 7F 37 35  R.#R..........75
05D0: 33 31 45 0B 80 F0 FF FF  7F F0 FF FF 7F 37 35 33  31E..........753
05E0: 32 08 80 C5 53 80 EA 30  0F 01 EA 30 0F 01 73 30  2...S..0...0..s0
05F0: 30 30 08 80 2B EA 30 0F  01 54 80 1C 55 80 23 52  00..+.0..T..U.#R
0600: 0B 80 F0 FF FF 7F F0 FF  FF 7F 37 35 33 32 45 0B  ..........7532E.
0610: 80 F0 FF FF 7F F0 FF FF  7F 37 35 33 33 08 80 1C  .........7533...
0620: 55 80 5B 10 80 EA 30 0F  01 EA 30 0F 01 68 61 70  U.[...0...0..hap
0630: 30 2B EA 30 0F 01 56 80  23 5B 10 80 EA 30 0F 01  0+.0..V.#[...0..
0640: EA 30 0F 01 73 74 64 30  2B EA 30 0F 01 57 80 23  .0..std0+.0..W.#
0650: 52 0B 80 F0 FF FF 7F F0  FF FF 7F 37 35 33 33 45  R..........7533E
0660: 0B 80 F0 FF FF 7F F0 FF  FF 7F 37 35 33 34 08 80  ..........7534..
0670: 2B EA 30 0F 01 58 80 23  52 0B 80 F0 FF FF 7F F0  +.0..X.#R.......
0680: FF FF 7F 37 35 33 34 02  0B 00 17 80 80 A3 06 45  ...7534........E
0690: 0B 80 F0 FF FF 7F F0 FF  FF 7F 37 35 33 36 08 80  ..........7536..
06A0: 01 D0 06 02 0B 00 19 80  80 BF 06 45 0B 80 F0 FF  ...........E....
06B0: FF 7F F0 FF FF 7F 37 35  33 36 08 80 01 D0 06 45  ......7536.....E
06C0: 0B 80 F0 FF FF 7F F0 FF  FF 7F 37 35 33 35 08 80  ..........7535..
06D0: 27 10 23 31 0F 01 17 1A  BE 30 02 08 00 09 80 80  '.#1.....0......
06E0: ED 06 2B 23 31 0F 01 59  80 23 01 BE 07 02 08 00  ..+#1..Y.#......
06F0: 13 80 80 00 07 2B 23 31  0F 01 5A 80 23 01 BE 07  .....+#1..Z.#...
0700: 02 08 00 15 80 80 13 07  2B 23 31 0F 01 5B 80 23  ........+#1..[.#
0710: 01 BE 07 02 08 00 17 80  80 26 07 2B 23 31 0F 01  .........&.+#1..
0720: 5C 80 23 01 BE 07 02 08  00 19 80 80 39 07 2B 23  \.#.........9.+#
0730: 31 0F 01 5D 80 23 01 BE  07 02 08 00 1B 80 80 4C  1..].#.........L
0740: 07 2B 23 31 0F 01 5E 80  23 01 BE 07 02 08 00 1D  .+#1..^.#.......
0750: 80 80 5F 07 2B 23 31 0F  01 5F 80 23 01 BE 07 02  .._.+#1.._.#....
0760: 08 00 1F 80 80 72 07 2B  23 31 0F 01 60 80 23 01  .....r.+#1..`.#.
0770: BE 07 02 08 00 21 80 80  85 07 2B 23 31 0F 01 61  .....!....+#1..a
0780: 80 23 01 BE 07 02 08 00  23 80 80 98 07 2B 23 31  .#......#....+#1
0790: 0F 01 62 80 23 01 BE 07  02 08 00 25 80 80 AB 07  ..b.#......%....
07A0: 2B 23 31 0F 01 63 80 23  01 BE 07 02 08 00 27 80  +#1..c.#......'.
07B0: 80 BE 07 2B 23 31 0F 01  64 80 23 01 BE 07 53 EA  ...+#1..d.#...S.
07C0: 30 0F 01 EA 30 0F 01 73  72 64 30 52 0B 80 F0 FF  0...0..srd0R....
07D0: FF 7F F0 FF FF 7F 37 35  33 35 52 0B 80 F0 FF FF  ......7535R.....
07E0: 7F F0 FF FF 7F 37 35 33  36 45 0B 80 F0 FF FF 7F  .....7536E......
07F0: F0 FF FF 7F 37 35 33 37  08 80 5B 65 80 EA 30 0F  ....7537..[e..0.
0800: 01 EA 30 0F 01 70 61 73  30 1C 0A 80 2B EA 30 0F  ..0..pas0...+.0.
0810: 01 66 80 23 1A 5A 19 1C  0A 80 52 0B 80 F0 FF FF  .f.#.Z....R.....
0820: 7F F0 FF FF 7F 37 35 33  37 45 0B 80 F0 FF FF 7F  .....7537E......
0830: F0 FF FF 7F 30 62 6C 66  08 80 5C 00 67 80 5C 01  ....0blf..\.g.\.
0840: 67 80 9A 46 00 45 68 80  F0 FF FF 7F F0 FF FF 7F  g..F.Eh.........
0850: 66 64 69 32 08 80 21 00                           fdi2..!.        
```

#### Opcodes

```
  0: 0x0001 [0x42] SET_CLI_EVENT_CANCEL_DATA()
  1: 0x0002 [0x1A] CALL_SUBROUTINE(address=0x195A)
  2: 0x0005 [0x46] CAMERA_CONTROL: Disable user control
  3: 0x0007 [0x38] SET_CLIENT_EVENT_MODE(mode=19*)
  4: 0x000A [0x27] REQ_SET(priority=0x10, entity_id=Unnamed NPC (ID: 17772835/0x010F3123), tag_num=0x15)
  5: 0x0011 [0x92] Magian Moogle (ID: 17772778/0x010F30EA)->Render.Flags3 ^= 0x01
  6: 0x0017 [0x92] Magian Moogle (ID: 17772784/0x010F30F0)->Render.Flags3 ^= 0x01
  7: 0x001D [0x92] Magian Moogle (ID: 17772782/0x010F30EE)->Render.Flags3 ^= 0x01
  8: 0x0023 [0x92] Baran (ID: 17772566/0x010F3016)->Render.Flags3 ^= 0x01
  9: 0x0029 [0x92] Maat (ID: 17772593/0x010F3031)->Render.Flags3 ^= 0x01
 10: 0x002F [0x92] Nomad Moogle (ID: 17772661/0x010F3075)->Render.Flags3 ^= 0x01
 11: 0x0035 [0x94] LocalPlayer->Render.Flags3 ^= 0x01
 12: 0x003B [0x94] Magian Moogle (ID: 17772778/0x010F30EA)->Render.Flags3 ^= 0x01
 13: 0x0041 [0x94] Unnamed NPC (ID: 17772835/0x010F3123)->Render.Flags3 ^= 0x01
 14: 0x0047 [0xBA] SET_ENTITY_POSITION(entity_id=LocalPlayer, pos_x=-10.444*, pos_z=118.092*, pos_y=3.101*, direction=177.6°*)
 15: 0x0054 [0xBA] SET_ENTITY_POSITION(entity_id=Unnamed NPC (ID: 17772835/0x010F3123), pos_x=-2.667*, pos_z=116.964*, pos_y=3.101*, direction=184.1°*)
 16: 0x0061 [0x29] REQ_SET_WAIT(priority=0x0A, entity_id=Unnamed NPC (ID: 17772835/0x010F3123), tag_num=0x01)
 17: 0x0068 [0x80] LOAD_WAIT(entity=Unnamed NPC (ID: 17772835/0x010F3123))
 18: 0x006D [0x80] LOAD_WAIT(entity=LocalPlayer)
 19: 0x0072 [0x80] LOAD_WAIT(entity=Magian Moogle (ID: 17772778/0x010F30EA))
 20: 0x0077 [0x4A] LocalPlayer looks at Magian Moogle (ID: 17772778/0x010F30EA)
 21: 0x0080 [0x6C] FADE_ENTITY_COLOR(entity_id=Unnamed NPC (ID: 17772835/0x010F3123), end_alpha=0*, fade_time=1*)
 22: 0x0089 [0x1C] WAIT(30* ticks)
 23: 0x008C [0x45] LOAD_SCHEDULED_TASK: Load scheduler "7520" with entities [LocalPlayer, LocalPlayer], work=[562*, 0*]
 24: 0x009D [0x1A] CALL_SUBROUTINE(address=0x1939)
 25: 0x00A0 [0x2B] Magian Moogle (ID: 17772778/0x010F30EA) [14483*]:
    → "You, who would inherit the mysteries of the magians...speak unto me your wish, kupo."
 26: 0x00A7 [0x23] WAIT_FOR_DIALOG_INTERACTION
 27: 0x00A8 [0x29] REQ_SET_WAIT(priority=0x10, entity_id=LocalPlayer, tag_num=0xAB)
 28: 0x00AF [0x1C] WAIT(150* ticks)
 29: 0x00B2 [0x52] END_LOAD_SCHEDULER: End scheduler "7520" with entities [LocalPlayer, LocalPlayer], work=562*
 30: 0x00C1 [0x45] LOAD_SCHEDULED_TASK: Load scheduler "7521" with entities [LocalPlayer, LocalPlayer], work=[562*, 0*]
 31: 0x00D2 [0x03] Work_Zone[2] = 1768*
 32: 0x00D7 [0x2B] Magian Moogle (ID: 17772778/0x010F30EA) [14774*]:
    → "Kupo-ho-ho? Is that $6 I see?"
 33: 0x00DE [0x23] WAIT_FOR_DIALOG_INTERACTION
 34: 0x00DF [0x52] END_LOAD_SCHEDULER: End scheduler "7521" with entities [LocalPlayer, LocalPlayer], work=562*
 35: 0x00EE [0x45] LOAD_SCHEDULED_TASK: Load scheduler "7522" with entities [LocalPlayer, LocalPlayer], work=[562*, 0*]
 36: 0x00FF [0x5B] LOAD_EXT_SCHEDULER: Load scheduler "tlk0" with entities [Magian Moogle (ID: 17772778/0x010F30EA), Magian Moogle (ID: 17772778/0x010F30EA)], work=2636*
 37: 0x010E [0x2B] Magian Moogle (ID: 17772778/0x010F30EA) [14775*]:
    → "In that case, my infallible instincts tell me you possess a partner who will be paying a visit to this venue at any moment now..."
 38: 0x0115 [0x23] WAIT_FOR_DIALOG_INTERACTION
 39: 0x0116 [0x5B] LOAD_EXT_SCHEDULER: Load scheduler "std0" with entities [Magian Moogle (ID: 17772778/0x010F30EA), Magian Moogle (ID: 17772778/0x010F30EA)], work=2636*
 40: 0x0125 [0x52] END_LOAD_SCHEDULER: End scheduler "7522" with entities [LocalPlayer, LocalPlayer], work=562*
 41: 0x0134 [0x45] LOAD_SCHEDULED_TASK: Load scheduler "7523" with entities [LocalPlayer, LocalPlayer], work=[562*, 0*]
 42: 0x0145 [0x27] REQ_SET(priority=0x10, entity_id=Unnamed NPC (ID: 17772835/0x010F3123), tag_num=0x18)
 43: 0x014C [0x1A] CALL_SUBROUTINE(address=0x30BE)
 44: 0x014F [0x02] IF !(ExtData[1]->WorkLocal[8] == 1*) GOTO 0x0161
 45: 0x0157 [0x2B] Unnamed NPC (ID: 17772835/0x010F3123) [14776*]:
    → "<Player>. Here you are."
 46: 0x015E [0x01] GOTO 0x0227
 47: 0x0161 [0x02] IF !(ExtData[1]->WorkLocal[8] == 2*) GOTO 0x0173
 48: 0x0169 [0x2B] Unnamed NPC (ID: 17772835/0x010F3123) [14777*]:
    → "<Player>! Phew, I'm glad I caught up with you!"
 49: 0x0170 [0x01] GOTO 0x0227
 50: 0x0173 [0x02] IF !(ExtData[1]->WorkLocal[8] == 3*) GOTO 0x0185
 51: 0x017B [0x2B] Unnamed NPC (ID: 17772835/0x010F3123) [14779*]:
    → "Ever the elusive type, aren't you, <Player>?"
 52: 0x0182 [0x01] GOTO 0x0227
 53: 0x0185 [0x02] IF !(ExtData[1]->WorkLocal[8] == 4*) GOTO 0x0197
 54: 0x018D [0x2B] Unnamed NPC (ID: 17772835/0x010F3123) [14778*]:
    → "Ah, <Player>. I thought I might find you here."
 55: 0x0194 [0x01] GOTO 0x0227
 56: 0x0197 [0x02] IF !(ExtData[1]->WorkLocal[8] == 5*) GOTO 0x01A9
 57: 0x019F [0x2B] Unnamed NPC (ID: 17772835/0x010F3123) [14782*]:
    → "Ah, <Player>! I've been looking all over for you."
 58: 0x01A6 [0x01] GOTO 0x0227
 59: 0x01A9 [0x02] IF !(ExtData[1]->WorkLocal[8] == 6*) GOTO 0x01BB
 60: 0x01B1 [0x2B] Unnamed NPC (ID: 17772835/0x010F3123) [14783*]:
    → "<Player>! Found you at last!"
 61: 0x01B8 [0x01] GOTO 0x0227
 62: 0x01BB [0x02] IF !(ExtData[1]->WorkLocal[8] == 7*) GOTO 0x01CD
 63: 0x01C3 [0x2B] Unnamed NPC (ID: 17772835/0x010F3123) [14784*]:
    → "<Player>. I thought I might come across you here."
 64: 0x01CA [0x01] GOTO 0x0227
 65: 0x01CD [0x02] IF !(ExtData[1]->WorkLocal[8] == 8*) GOTO 0x01DF
 66: 0x01D5 [0x2B] Unnamed NPC (ID: 17772835/0x010F3123) [14785*]:
    → "Peekaboo! I found you, <Player>!"
 67: 0x01DC [0x01] GOTO 0x0227
 68: 0x01DF [0x02] IF !(ExtData[1]->WorkLocal[8] == 9*) GOTO 0x01F1
 69: 0x01E7 [0x2B] Unnamed NPC (ID: 17772835/0x010F3123) [14786*]:
    → "<Player>. I'm relieved to find you at last."
 70: 0x01EE [0x01] GOTO 0x0227
 71: 0x01F1 [0x02] IF !(ExtData[1]->WorkLocal[8] == 10*) GOTO 0x0203
 72: 0x01F9 [0x2B] Unnamed NPC (ID: 17772835/0x010F3123) [14780*]:
    → "There you are, <Player>! I thought I'd never find you!"
 73: 0x0200 [0x01] GOTO 0x0227
 74: 0x0203 [0x02] IF !(ExtData[1]->WorkLocal[8] == 11*) GOTO 0x0215
 75: 0x020B [0x2B] Unnamed NPC (ID: 17772835/0x010F3123) [14781*]:
    → "Tsk, tsk, <Player>... Playing hard to get, are we?"
 76: 0x0212 [0x01] GOTO 0x0227
 77: 0x0215 [0x02] IF !(ExtData[1]->WorkLocal[8] == 12*) GOTO 0x0227
 78: 0x021D [0x2B] Unnamed NPC (ID: 17772835/0x010F3123) [14787*]:
    → "<Player>. You've quite some nerve, making me hunt you down like this."
 79: 0x0224 [0x01] GOTO 0x0227

SUBROUTINE_0227:
 80: 0x0227 [0x1C] WAIT(15* ticks)
 81: 0x022A [0x79] LocalPlayer looks at Unnamed NPC (ID: 17772835/0x010F3123) (Basic look)
 82: 0x0234 [0x4B] UPDATE_ENTITY_YAW(entity=LocalPlayer, yaw=4.9°*)
 83: 0x023B [0x6F] WAIT_FRAME_DELAY: Yield until WaitTime reaches zero
 84: 0x023C [0x76] CHECK_ENTITY_RENDER_FLAGS: Wait until LocalPlayer Render.Flags0 and Render.Flags3 conditions are met
 85: 0x0241 [0x1C] WAIT(105* ticks)
 86: 0x0244 [0x23] WAIT_FOR_DIALOG_INTERACTION
 87: 0x0245 [0x2B] Magian Moogle (ID: 17772778/0x010F30EA) [14788*]:
    → "...Right on cue, kupo. Truly, I never cease to amaze myself."
 88: 0x024C [0x23] WAIT_FOR_DIALOG_INTERACTION
 89: 0x024D [0x1A] CALL_SUBROUTINE(address=0x195A)
 90: 0x0250 [0x1C] WAIT(30* ticks)
 91: 0x0253 [0xBA] SET_ENTITY_POSITION(entity_id=LocalPlayer, pos_x=-10.059*, pos_z=119.218*, pos_y=3.101*, direction=146.9°*)
 92: 0x0260 [0xBA] SET_ENTITY_POSITION(entity_id=Unnamed NPC (ID: 17772835/0x010F3123), pos_x=-10.945*, pos_z=118.141*, pos_y=3.101*, direction=179.2°*)
 93: 0x026D [0x29] REQ_SET_WAIT(priority=0x0A, entity_id=Unnamed NPC (ID: 17772835/0x010F3123), tag_num=0x01)
 94: 0x0274 [0x80] LOAD_WAIT(entity=Unnamed NPC (ID: 17772835/0x010F3123))
 95: 0x0279 [0x80] LOAD_WAIT(entity=LocalPlayer)
 96: 0x027E [0x80] LOAD_WAIT(entity=Magian Moogle (ID: 17772778/0x010F30EA))
 97: 0x0283 [0x79] LocalPlayer looks at Magian Moogle (ID: 17772778/0x010F30EA) (Basic look)
 98: 0x028D [0x79] Unnamed NPC (ID: 17772835/0x010F3123) looks at Magian Moogle (ID: 17772778/0x010F30EA) (Basic look)
 99: 0x0297 [0x48] [System] [14054*]:
    → "@@"
100: 0x029A [0x23] WAIT_FOR_DIALOG_INTERACTION
101: 0x029B [0x52] END_LOAD_SCHEDULER: End scheduler "7523" with entities [LocalPlayer, LocalPlayer], work=562*
102: 0x02AA [0x45] LOAD_SCHEDULED_TASK: Load scheduler "7525" with entities [LocalPlayer, LocalPlayer], work=[562*, 0*]
103: 0x02BB [0x1A] CALL_SUBROUTINE(address=0x1939)
104: 0x02BE [0x1C] WAIT(90* ticks)
105: 0x02C1 [0x1A] CALL_SUBROUTINE(address=0x2FD3)
106: 0x02C4 [0x1A] CALL_SUBROUTINE(address=0x2FDD)
107: 0x02C7 [0x03] Work_Zone[2] = ExtData[1]->WorkLocal[1]
108: 0x02CC [0x02] IF !(ExtData[1]->WorkLocal[11] == 0*) GOTO 0x02DF
109: 0x02D4 [0x2B] Magian Moogle (ID: 17772778/0x010F30EA) [14789*]:
    → "[Feliz/Ferdinand/Gunnar/Massimo/Oldrich/Siegward/Theobald/Zenji], was it?"
110: 0x02DB [0x23] WAIT_FOR_DIALOG_INTERACTION
111: 0x02DC [0x01] GOTO 0x0364
112: 0x02DF [0x02] IF !(ExtData[1]->WorkLocal[11] == 1*) GOTO 0x02F2
113: 0x02E7 [0x2B] Magian Moogle (ID: 17772778/0x010F30EA) [14790*]:
    → "[Amerita/Beatrice/Henrietta/Jesimae/Karyn/Nanako/Sharlene/Sieghilde], was it?"
114: 0x02EE [0x23] WAIT_FOR_DIALOG_INTERACTION
115: 0x02EF [0x01] GOTO 0x0364
116: 0x02F2 [0x02] IF !(ExtData[1]->WorkLocal[11] == 2*) GOTO 0x0305
117: 0x02FA [0x2B] Magian Moogle (ID: 17772778/0x010F30EA) [14791*]:
    → "[Chanandit/Deulmaeux/Demresinaux/Ephealgaux/Gauldeval/Grauffemart/Migaifongut/Romidiant], was it?"
118: 0x0301 [0x23] WAIT_FOR_DIALOG_INTERACTION
119: 0x0302 [0x01] GOTO 0x0364
120: 0x0305 [0x02] IF !(ExtData[1]->WorkLocal[11] == 3*) GOTO 0x0318
121: 0x030D [0x2B] Magian Moogle (ID: 17772778/0x010F30EA) [14792*]:
    → "[Armittie/Cadepure/Clearite/Epilleve/Liabelle/Nauthima/Radille/Vimechue], was it?"
122: 0x0314 [0x23] WAIT_FOR_DIALOG_INTERACTION
123: 0x0315 [0x01] GOTO 0x0364
124: 0x0318 [0x02] IF !(ExtData[1]->WorkLocal[11] == 4*) GOTO 0x032B
125: 0x0320 [0x2B] Magian Moogle (ID: 17772778/0x010F30EA) [14793*]:
    → "[Balu-Falu/Burg-Ladarg/Ehgo-Ryuhgo/Kolui-Pelui/Nokum-Akkum/Savul-Kivul/Vinja-Kanja/Yarga-Umiga], was it?"
126: 0x0327 [0x23] WAIT_FOR_DIALOG_INTERACTION
127: 0x0328 [0x01] GOTO 0x0364
128: 0x032B [0x02] IF !(ExtData[1]->WorkLocal[11] == 5*) GOTO 0x033E
129: 0x0333 [0x2B] Magian Moogle (ID: 17772778/0x010F30EA) [14794*]:
    → "[Cupapa/Jajuju/Kalokoko/Mahoyaya/Pakurara/Ripokeke/Yawawa/Yufafa], was it?"
130: 0x033A [0x23] WAIT_FOR_DIALOG_INTERACTION
131: 0x033B [0x01] GOTO 0x0364
132: 0x033E [0x02] IF !(ExtData[1]->WorkLocal[11] == 6*) GOTO 0x0351
133: 0x0346 [0x2B] Magian Moogle (ID: 17772778/0x010F30EA) [14795*]:
    → "[Fhig Lahrv/Khuma Tagyawhan/Pimy Kettihl/Raka Maimhov/Sahyu Banjyao/Sufhi Uchnouma/Tsuim Nhomango/Yoli Kohlpaka], was it?"
134: 0x034D [0x23] WAIT_FOR_DIALOG_INTERACTION
135: 0x034E [0x01] GOTO 0x0364
136: 0x0351 [0x02] IF !(ExtData[1]->WorkLocal[11] == 7*) GOTO 0x0364
137: 0x0359 [0x2B] Magian Moogle (ID: 17772778/0x010F30EA) [14796*]:
    → "[Durib/Dzapiwa/Jugowa/Mugido/Voldai/Wagwei/Zayag/Zoldof], was it?"
138: 0x0360 [0x23] WAIT_FOR_DIALOG_INTERACTION
139: 0x0361 [0x01] GOTO 0x0364

SUBROUTINE_0364:
140: 0x0364 [0x52] END_LOAD_SCHEDULER: End scheduler "7525" with entities [LocalPlayer, LocalPlayer], work=562*
141: 0x0373 [0x45] LOAD_SCHEDULED_TASK: Load scheduler "7526" with entities [LocalPlayer, LocalPlayer], work=[562*, 0*]
142: 0x0384 [0x2B] Magian Moogle (ID: 17772778/0x010F30EA) [14797*]:
    → "I have been apprised of your crisis of confidence from a certain mesmerizing Mithran lass, kupo. Said something must be done about this sorry state of affairs, kupo."
143: 0x038B [0x23] WAIT_FOR_DIALOG_INTERACTION
144: 0x038C [0x52] END_LOAD_SCHEDULER: End scheduler "7526" with entities [LocalPlayer, LocalPlayer], work=562*
145: 0x039B [0x02] IF !(ExtData[1]->WorkLocal[11] == 4*) GOTO 0x03B7
146: 0x03A3 [0x45] LOAD_SCHEDULED_TASK: Load scheduler "7528" with entities [LocalPlayer, LocalPlayer], work=[562*, 0*]
147: 0x03B4 [0x01] GOTO 0x03E4
148: 0x03B7 [0x02] IF !(ExtData[1]->WorkLocal[11] == 5*) GOTO 0x03D3
149: 0x03BF [0x45] LOAD_SCHEDULED_TASK: Load scheduler "7528" with entities [LocalPlayer, LocalPlayer], work=[562*, 0*]
150: 0x03D0 [0x01] GOTO 0x03E4
151: 0x03D3 [0x45] LOAD_SCHEDULED_TASK: Load scheduler "7527" with entities [LocalPlayer, LocalPlayer], work=[562*, 0*]

SUBROUTINE_03E4:
152: 0x03E4 [0x6E] Unnamed NPC (ID: 17772835/0x010F3123) uses emote 35*
153: 0x03EB [0x99] Wait for Unnamed NPC (ID: 17772835/0x010F3123) animation to complete
154: 0x03F0 [0x1C] WAIT(45* ticks)
155: 0x03F3 [0x79] LocalPlayer looks at Unnamed NPC (ID: 17772835/0x010F3123) (Basic look)
156: 0x03FD [0x1A] CALL_SUBROUTINE(address=0x30BE)
157: 0x0400 [0x02] IF !(ExtData[1]->WorkLocal[8] == 1*) GOTO 0x0413
158: 0x0408 [0x2B] Unnamed NPC (ID: 17772835/0x010F3123) [14798*]:
    → "...Luto. Hmph. She should mind her own business."
159: 0x040F [0x23] WAIT_FOR_DIALOG_INTERACTION
160: 0x0410 [0x01] GOTO 0x04E4
161: 0x0413 [0x02] IF !(ExtData[1]->WorkLocal[8] == 2*) GOTO 0x0426
162: 0x041B [0x2B] Unnamed NPC (ID: 17772835/0x010F3123) [14799*]:
    → "Mesmerizing! Who would have thought that moogles and Mithra-- Wait a minute, who are you calling "sorry"!?"
163: 0x0422 [0x23] WAIT_FOR_DIALOG_INTERACTION
164: 0x0423 [0x01] GOTO 0x04E4
165: 0x0426 [0x02] IF !(ExtData[1]->WorkLocal[8] == 3*) GOTO 0x0439
166: 0x042E [0x2B] Unnamed NPC (ID: 17772835/0x010F3123) [14801*]:
    → "...Indeed. Ever the observant one, that Luto."
167: 0x0435 [0x23] WAIT_FOR_DIALOG_INTERACTION
168: 0x0436 [0x01] GOTO 0x04E4
169: 0x0439 [0x02] IF !(ExtData[1]->WorkLocal[8] == 4*) GOTO 0x044C
170: 0x0441 [0x2B] Unnamed NPC (ID: 17772835/0x010F3123) [14800*]:
    → "Ah, Luto. Methinks the lass worries too much."
171: 0x0448 [0x23] WAIT_FOR_DIALOG_INTERACTION
172: 0x0449 [0x01] GOTO 0x04E4
173: 0x044C [0x02] IF !(ExtData[1]->WorkLocal[8] == 5*) GOTO 0x045F
174: 0x0454 [0x2B] Unnamed NPC (ID: 17772835/0x010F3123) [14804*]:
    → "What? Why, I never...!"
175: 0x045B [0x23] WAIT_FOR_DIALOG_INTERACTION
176: 0x045C [0x01] GOTO 0x04E4
177: 0x045F [0x02] IF !(ExtData[1]->WorkLocal[8] == 6*) GOTO 0x0472
178: 0x0467 [0x2B] Unnamed NPC (ID: 17772835/0x010F3123) [14805*]:
    → "Hey, be a little more gentle with a lady, will ya? Still, it's sweet of Luto to be looking after me."
179: 0x046E [0x23] WAIT_FOR_DIALOG_INTERACTION
180: 0x046F [0x01] GOTO 0x04E4
181: 0x0472 [0x02] IF !(ExtData[1]->WorkLocal[8] == 7*) GOTO 0x0485
182: 0x047A [0x2B] Unnamed NPC (ID: 17772835/0x010F3123) [14806*]:
    → "I suppose there was no hiding it. Though Luto could be a bit more gentle with her choice of words..."
183: 0x0481 [0x23] WAIT_FOR_DIALOG_INTERACTION
184: 0x0482 [0x01] GOTO 0x04E4
185: 0x0485 [0x02] IF !(ExtData[1]->WorkLocal[8] == 8*) GOTO 0x0498
186: 0x048D [0x2B] Unnamed NPC (ID: 17772835/0x010F3123) [14807*]:
    → "Aw, gee...was it that obvious? Tee hee hee!"
187: 0x0494 [0x23] WAIT_FOR_DIALOG_INTERACTION
188: 0x0495 [0x01] GOTO 0x04E4
189: 0x0498 [0x02] IF !(ExtData[1]->WorkLocal[8] == 9*) GOTO 0x04AB
190: 0x04A0 [0x2B] Unnamed NPC (ID: 17772835/0x010F3123) [14808*]:
    → "... That I struggle is true, but I think Luto overstates matters."
191: 0x04A7 [0x23] WAIT_FOR_DIALOG_INTERACTION
192: 0x04A8 [0x01] GOTO 0x04E4
193: 0x04AB [0x02] IF !(ExtData[1]->WorkLocal[8] == 10*) GOTO 0x04BE
194: 0x04B3 [0x2B] Unnamed NPC (ID: 17772835/0x010F3123) [14802*]:
    → "Crisis? No crisis here! Nuh-uh! I'm as calm and collected as ever! Right, <Player>? Right?"
195: 0x04BA [0x23] WAIT_FOR_DIALOG_INTERACTION
196: 0x04BB [0x01] GOTO 0x04E4
197: 0x04BE [0x02] IF !(ExtData[1]->WorkLocal[8] == 11*) GOTO 0x04D1
198: 0x04C6 [0x2B] Unnamed NPC (ID: 17772835/0x010F3123) [14803*]:
    → "Whoa there! Just hold your chocobos, Mister Moogle! I've got a reputation to uphold here."
199: 0x04CD [0x23] WAIT_FOR_DIALOG_INTERACTION
200: 0x04CE [0x01] GOTO 0x04E4
201: 0x04D1 [0x02] IF !(ExtData[1]->WorkLocal[8] == 12*) GOTO 0x04E4
202: 0x04D9 [0x2B] Unnamed NPC (ID: 17772835/0x010F3123) [14809*]:
    → "Hm. I am not surprised. I always figured that Luto for a sharp one."
203: 0x04E0 [0x23] WAIT_FOR_DIALOG_INTERACTION
204: 0x04E1 [0x01] GOTO 0x04E4

SUBROUTINE_04E4:
205: 0x04E4 [0x52] END_LOAD_SCHEDULER: End scheduler "7527" with entities [LocalPlayer, LocalPlayer], work=562*
206: 0x04F3 [0x52] END_LOAD_SCHEDULER: End scheduler "7528" with entities [LocalPlayer, LocalPlayer], work=562*
207: 0x0502 [0x45] LOAD_SCHEDULED_TASK: Load scheduler "7529" with entities [LocalPlayer, LocalPlayer], work=[562*, 0*]
208: 0x0513 [0x4B] UPDATE_ENTITY_YAW(entity=Magian Moogle (ID: 17772778/0x010F30EA), yaw=11.2°*)
209: 0x051A [0x6F] WAIT_FRAME_DELAY: Yield until WaitTime reaches zero
210: 0x051B [0x76] CHECK_ENTITY_RENDER_FLAGS: Wait until Magian Moogle (ID: 17772778/0x010F30EA) Render.Flags0 and Render.Flags3 conditions are met
211: 0x0520 [0x79] LocalPlayer looks at Magian Moogle (ID: 17772778/0x010F30EA) (Basic look)
212: 0x052A [0x5B] LOAD_EXT_SCHEDULER: Load scheduler "thb0" with entities [Magian Moogle (ID: 17772778/0x010F30EA), Magian Moogle (ID: 17772778/0x010F30EA)], work=2647*
213: 0x0539 [0x1C] WAIT(45* ticks)
214: 0x053C [0x2B] Magian Moogle (ID: 17772778/0x010F30EA) [14810*]:
    → "<Ahem>... Yes, yes. At any rate, the plight you suffer is not atypical of adventurers like yourself, kupo."
215: 0x0543 [0x23] WAIT_FOR_DIALOG_INTERACTION
216: 0x0544 [0x2B] Magian Moogle (ID: 17772778/0x010F30EA) [14811*]:
    → "Fortunately, I have crafted a challenge that should serve you well in your struggle to transcend your physical limits. <Player> here has already reaped the fruits of my ingenuity. Is that not right, <Player>?"
217: 0x054B [0x23] WAIT_FOR_DIALOG_INTERACTION
218: 0x054C [0x52] END_LOAD_SCHEDULER: End scheduler "7529" with entities [LocalPlayer, LocalPlayer], work=562*
219: 0x055B [0x45] LOAD_SCHEDULED_TASK: Load scheduler "7530" with entities [LocalPlayer, LocalPlayer], work=[562*, 0*]
220: 0x056C [0x5B] LOAD_EXT_SCHEDULER: Load scheduler "thb1" with entities [Magian Moogle (ID: 17772778/0x010F30EA), Magian Moogle (ID: 17772778/0x010F30EA)], work=2647*
221: 0x057B [0x1C] WAIT(30* ticks)
222: 0x057E [0x2B] Magian Moogle (ID: 17772778/0x010F30EA) [14812*]:
    → "Yes, this sensible and not-in-the-least-sadistic trial will see you to your goal with only the minimum required quota of charred skin and broken bones. This I vouch on the honor of the Magian Mooglehood, kupo."
223: 0x0585 [0x23] WAIT_FOR_DIALOG_INTERACTION
224: 0x0586 [0x52] END_LOAD_SCHEDULER: End scheduler "7530" with entities [LocalPlayer, LocalPlayer], work=562*
225: 0x0595 [0x45] LOAD_SCHEDULED_TASK: Load scheduler "7531" with entities [LocalPlayer, LocalPlayer], work=[562*, 0*]
226: 0x05A6 [0x4B] UPDATE_ENTITY_YAW(entity=Magian Moogle (ID: 17772778/0x010F30EA), yaw=0.0°*)
227: 0x05AD [0x6F] WAIT_FRAME_DELAY: Yield until WaitTime reaches zero
228: 0x05AE [0x76] CHECK_ENTITY_RENDER_FLAGS: Wait until Magian Moogle (ID: 17772778/0x010F30EA) Render.Flags0 and Render.Flags3 conditions are met
229: 0x05B3 [0x2B] Magian Moogle (ID: 17772778/0x010F30EA) [14813*]:
    → "Now listen closely, as I do not have all day."
230: 0x05BA [0x23] WAIT_FOR_DIALOG_INTERACTION
231: 0x05BB [0x2B] Magian Moogle (ID: 17772778/0x010F30EA) [14814*]:
    → "Long and hard did I ponder on a suitable task for partners such as the two of you. And I have found the answer..."
232: 0x05C2 [0x23] WAIT_FOR_DIALOG_INTERACTION
233: 0x05C3 [0x52] END_LOAD_SCHEDULER: End scheduler "7531" with entities [LocalPlayer, LocalPlayer], work=562*
234: 0x05D2 [0x45] LOAD_SCHEDULED_TASK: Load scheduler "7532" with entities [LocalPlayer, LocalPlayer], work=[562*, 0*]
235: 0x05E3 [0xC5] LOAD_SCHEDULED_TASK_ALT3: Load scheduler 0x80083030 for entities [Magian Moogle (ID: 17772778/0x010F30EA), Magian Moogle (ID: 17772778/0x010F30EA)], work=134*, param=12403
236: 0x05F4 [0x2B] Magian Moogle (ID: 17772778/0x010F30EA) [14815*]:
    → "A trial in tandem! Two hearts beating as one! You will cut through reams of foes in sublime synchronicity, with not a single step, not a single breath out of rhythm...or else!"
237: 0x05FB [0x1C] WAIT(120* ticks)
238: 0x05FE [0x23] WAIT_FOR_DIALOG_INTERACTION
239: 0x05FF [0x52] END_LOAD_SCHEDULER: End scheduler "7532" with entities [LocalPlayer, LocalPlayer], work=562*
240: 0x060E [0x45] LOAD_SCHEDULED_TASK: Load scheduler "7533" with entities [LocalPlayer, LocalPlayer], work=[562*, 0*]
241: 0x061F [0x1C] WAIT(120* ticks)
242: 0x0622 [0x5B] LOAD_EXT_SCHEDULER: Load scheduler "hap0" with entities [Magian Moogle (ID: 17772778/0x010F30EA), Magian Moogle (ID: 17772778/0x010F30EA)], work=2636*
243: 0x0631 [0x2B] Magian Moogle (ID: 17772778/0x010F30EA) [14816*]:
    → "...Ahem, kupo."
244: 0x0638 [0x23] WAIT_FOR_DIALOG_INTERACTION
245: 0x0639 [0x5B] LOAD_EXT_SCHEDULER: Load scheduler "std0" with entities [Magian Moogle (ID: 17772778/0x010F30EA), Magian Moogle (ID: 17772778/0x010F30EA)], work=2636*
246: 0x0648 [0x2B] Magian Moogle (ID: 17772778/0x010F30EA) [14817*]:
    → "Pardon me. It would seem I got carried away with myself for a moment there."
247: 0x064F [0x23] WAIT_FOR_DIALOG_INTERACTION
248: 0x0650 [0x52] END_LOAD_SCHEDULER: End scheduler "7533" with entities [LocalPlayer, LocalPlayer], work=562*
249: 0x065F [0x45] LOAD_SCHEDULED_TASK: Load scheduler "7534" with entities [LocalPlayer, LocalPlayer], work=[562*, 0*]
250: 0x0670 [0x2B] Magian Moogle (ID: 17772778/0x010F30EA) [14818*]:
    → "You need not synchronize your actions to such an extreme. Simply partnering up to perform a simple trial shall suffice."
251: 0x0677 [0x23] WAIT_FOR_DIALOG_INTERACTION
252: 0x0678 [0x52] END_LOAD_SCHEDULER: End scheduler "7534" with entities [LocalPlayer, LocalPlayer], work=562*
253: 0x0687 [0x02] IF !(ExtData[1]->WorkLocal[11] == 4*) GOTO 0x06A3
254: 0x068F [0x45] LOAD_SCHEDULED_TASK: Load scheduler "7536" with entities [LocalPlayer, LocalPlayer], work=[562*, 0*]
255: 0x06A0 [0x01] GOTO 0x06D0
256: 0x06A3 [0x02] IF !(ExtData[1]->WorkLocal[11] == 5*) GOTO 0x06BF
257: 0x06AB [0x45] LOAD_SCHEDULED_TASK: Load scheduler "7536" with entities [LocalPlayer, LocalPlayer], work=[562*, 0*]
258: 0x06BC [0x01] GOTO 0x06D0
259: 0x06BF [0x45] LOAD_SCHEDULED_TASK: Load scheduler "7535" with entities [LocalPlayer, LocalPlayer], work=[562*, 0*]

SUBROUTINE_06D0:
260: 0x06D0 [0x27] REQ_SET(priority=0x10, entity_id=Unnamed NPC (ID: 17772835/0x010F3123), tag_num=0x17)
261: 0x06D7 [0x1A] CALL_SUBROUTINE(address=0x30BE)
262: 0x06DA [0x02] IF !(ExtData[1]->WorkLocal[8] == 1*) GOTO 0x06ED
263: 0x06E2 [0x2B] Unnamed NPC (ID: 17772835/0x010F3123) [14819*]:
    → "A trial in tandem, the moogle says..."
264: 0x06E9 [0x23] WAIT_FOR_DIALOG_INTERACTION
265: 0x06EA [0x01] GOTO 0x07BE
266: 0x06ED [0x02] IF !(ExtData[1]->WorkLocal[8] == 2*) GOTO 0x0700
267: 0x06F5 [0x2B] Unnamed NPC (ID: 17772835/0x010F3123) [14820*]:
    → "A trial in tandem! This sounds like a challenge that we're ready to meet, <Player>!"
268: 0x06FC [0x23] WAIT_FOR_DIALOG_INTERACTION
269: 0x06FD [0x01] GOTO 0x07BE
270: 0x0700 [0x02] IF !(ExtData[1]->WorkLocal[8] == 3*) GOTO 0x0713
271: 0x0708 [0x2B] Unnamed NPC (ID: 17772835/0x010F3123) [14822*]:
    → "A trial in tandem...? I suspect this will not prove as "simple" as our moogle friend suggests."
272: 0x070F [0x23] WAIT_FOR_DIALOG_INTERACTION
273: 0x0710 [0x01] GOTO 0x07BE
274: 0x0713 [0x02] IF !(ExtData[1]->WorkLocal[8] == 4*) GOTO 0x0726
275: 0x071B [0x2B] Unnamed NPC (ID: 17772835/0x010F3123) [14821*]:
    → "A trial in tandem, eh? I daresay this might prove entertaining."
276: 0x0722 [0x23] WAIT_FOR_DIALOG_INTERACTION
277: 0x0723 [0x01] GOTO 0x07BE
278: 0x0726 [0x02] IF !(ExtData[1]->WorkLocal[8] == 5*) GOTO 0x0739
279: 0x072E [0x2B] Unnamed NPC (ID: 17772835/0x010F3123) [14825*]:
    → "A trial in tandem? Has a nice ring to it, I must say."
280: 0x0735 [0x23] WAIT_FOR_DIALOG_INTERACTION
281: 0x0736 [0x01] GOTO 0x07BE
282: 0x0739 [0x02] IF !(ExtData[1]->WorkLocal[8] == 6*) GOTO 0x074C
283: 0x0741 [0x2B] Unnamed NPC (ID: 17772835/0x010F3123) [14826*]:
    → "A trial in tandem? Sounds like we've got a rousing adventure in store for us, <Player>!"
284: 0x0748 [0x23] WAIT_FOR_DIALOG_INTERACTION
285: 0x0749 [0x01] GOTO 0x07BE
286: 0x074C [0x02] IF !(ExtData[1]->WorkLocal[8] == 7*) GOTO 0x075F
287: 0x0754 [0x2B] Unnamed NPC (ID: 17772835/0x010F3123) [14827*]:
    → "A trial in tandem, hm? It sounds like a daunting task, but I shall give it my all."
288: 0x075B [0x23] WAIT_FOR_DIALOG_INTERACTION
289: 0x075C [0x01] GOTO 0x07BE
290: 0x075F [0x02] IF !(ExtData[1]->WorkLocal[8] == 8*) GOTO 0x0772
291: 0x0767 [0x2B] Unnamed NPC (ID: 17772835/0x010F3123) [14828*]:
    → "Tandem? This moogle sure uses a lot of fancy words! But hey, I'll be just fine as long as I'm with you, <Player>!"
292: 0x076E [0x23] WAIT_FOR_DIALOG_INTERACTION
293: 0x076F [0x01] GOTO 0x07BE
294: 0x0772 [0x02] IF !(ExtData[1]->WorkLocal[8] == 9*) GOTO 0x0785
295: 0x077A [0x2B] Unnamed NPC (ID: 17772835/0x010F3123) [14829*]:
    → "A trial in tandem? I care not for the whimsical name, but I look forward to facing it with you, <Player>."
296: 0x0781 [0x23] WAIT_FOR_DIALOG_INTERACTION
297: 0x0782 [0x01] GOTO 0x07BE
298: 0x0785 [0x02] IF !(ExtData[1]->WorkLocal[8] == 10*) GOTO 0x0798
299: 0x078D [0x2B] Unnamed NPC (ID: 17772835/0x010F3123) [14823*]:
    → "A trial in tandem? I don't know, but the way this moogle talks gives me the heebie-jeebies."
300: 0x0794 [0x23] WAIT_FOR_DIALOG_INTERACTION
301: 0x0795 [0x01] GOTO 0x07BE
302: 0x0798 [0x02] IF !(ExtData[1]->WorkLocal[8] == 11*) GOTO 0x07AB
303: 0x07A0 [0x2B] Unnamed NPC (ID: 17772835/0x010F3123) [14824*]:
    → "A trial in tandem? I should hope it's as simple as the moogle says. I don't want to get any scratches on my perfectly polished armor."
304: 0x07A7 [0x23] WAIT_FOR_DIALOG_INTERACTION
305: 0x07A8 [0x01] GOTO 0x07BE
306: 0x07AB [0x02] IF !(ExtData[1]->WorkLocal[8] == 12*) GOTO 0x07BE
307: 0x07B3 [0x2B] Unnamed NPC (ID: 17772835/0x010F3123) [14830*]:
    → "A trial in tandem, hm? I can only hope the challenge lives up to its name."
308: 0x07BA [0x23] WAIT_FOR_DIALOG_INTERACTION
309: 0x07BB [0x01] GOTO 0x07BE

SUBROUTINE_07BE:
310: 0x07BE [0x53] WAIT_SCHEDULER_TASK: Wait for scheduler "srd0" with entities [Magian Moogle (ID: 17772778/0x010F30EA), Magian Moogle (ID: 17772778/0x010F30EA)]
311: 0x07CB [0x52] END_LOAD_SCHEDULER: End scheduler "7535" with entities [LocalPlayer, LocalPlayer], work=562*
312: 0x07DA [0x52] END_LOAD_SCHEDULER: End scheduler "7536" with entities [LocalPlayer, LocalPlayer], work=562*
313: 0x07E9 [0x45] LOAD_SCHEDULED_TASK: Load scheduler "7537" with entities [LocalPlayer, LocalPlayer], work=[562*, 0*]
314: 0x07FA [0x5B] LOAD_EXT_SCHEDULER: Load scheduler "pas0" with entities [Magian Moogle (ID: 17772778/0x010F30EA), Magian Moogle (ID: 17772778/0x010F30EA)], work=2755*
315: 0x0809 [0x1C] WAIT(30* ticks)
316: 0x080C [0x2B] Magian Moogle (ID: 17772778/0x010F30EA) [14831*]:
    → "At any rate, hand this over to Brother Blue to commence your challenge. Now take your leave of me, kupo."
317: 0x0813 [0x23] WAIT_FOR_DIALOG_INTERACTION
318: 0x0814 [0x1A] CALL_SUBROUTINE(address=0x195A)
319: 0x0817 [0x1C] WAIT(30* ticks)
320: 0x081A [0x52] END_LOAD_SCHEDULER: End scheduler "7537" with entities [LocalPlayer, LocalPlayer], work=562*
321: 0x0829 [0x45] LOAD_SCHEDULED_TASK: Load scheduler "0blf" with entities [LocalPlayer, LocalPlayer], work=[562*, 0*]
322: 0x083A [0x5C] MUSIC_CONTROL: Set Idle (Day) music to song 117*
323: 0x083E [0x5C] MUSIC_CONTROL: Set Idle (Night) music to song 117*
324: 0x0842 [0x9A] WAIT_MUSIC_SERVER()
325: 0x0843 [0x46] CAMERA_CONTROL: Restore default settings
326: 0x0845 [0x45] LOAD_SCHEDULED_TASK: Load scheduler "fdi2" with entities [LocalPlayer, LocalPlayer], work=[200*, 0*]
327: 0x0856 [0x21] END_EVENT
328: 0x0857 [0x00] END_REQSTACK()
```

### Event 10164

#### Metadata

| Field        | Value     |
|--------------|-----------|
| Entrypoint   | 0x0858    |
| Data Size    | 913 bytes |
| Instructions | 141       |

```
      00 01 02 03 04 05 06 07  08 09 0A 0B 0C 0D 0E 0F
      -- -- -- -- -- -- -- --  -- -- -- -- -- -- -- --
0850:                          42 1A 5A 19 46 01 38 00          B.Z.F.8.
0860: 80 27 10 23 31 0F 01 15  92 01 EA 30 0F 01 92 01  .'.#1......0....
0870: F0 30 0F 01 92 01 EE 30  0F 01 92 01 16 30 0F 01  .0.....0.....0..
0880: 92 01 31 30 0F 01 92 01  75 30 0F 01 94 01 F0 FF  ..10....u0......
0890: FF 7F 94 01 EA 30 0F 01  94 01 23 31 0F 01 BA F0  .....0....#1....
08A0: FF FF 7F 69 80 6A 80 03  80 6B 80 BA 23 31 0F 01  ...i.j...k..#1..
08B0: 6C 80 6D 80 03 80 6E 80  29 0A 23 31 0F 01 01 80  l.m...n.).#1....
08C0: 23 31 0F 01 80 F0 FF FF  7F 80 EA 30 0F 01 4A F0  #1.........0..J.
08D0: FF FF 7F EA 30 0F 01 79  00 23 31 0F 01 EA 30 0F  ....0..y.#1...0.
08E0: 01 1C 0A 80 45 0B 80 F0  FF FF 7F F0 FF FF 7F 65  ....E..........e
08F0: 74 30 30 08 80 1A 39 19  1A D3 2F 1A DD 2F 03 02  t00...9.../../..
0900: 10 01 00 02 0B 00 08 80  80 16 09 2B EA 30 0F 01  ...........+.0..
0910: 6F 80 23 01 9B 09 02 0B  00 09 80 80 29 09 2B EA  o.#.........).+.
0920: 30 0F 01 70 80 23 01 9B  09 02 0B 00 13 80 80 3C  0..p.#.........<
0930: 09 2B EA 30 0F 01 71 80  23 01 9B 09 02 0B 00 15  .+.0..q.#.......
0940: 80 80 4F 09 2B EA 30 0F  01 72 80 23 01 9B 09 02  ..O.+.0..r.#....
0950: 0B 00 17 80 80 62 09 2B  EA 30 0F 01 73 80 23 01  .....b.+.0..s.#.
0960: 9B 09 02 0B 00 19 80 80  75 09 2B EA 30 0F 01 74  ........u.+.0..t
0970: 80 23 01 9B 09 02 0B 00  1B 80 80 88 09 2B EA 30  .#...........+.0
0980: 0F 01 75 80 23 01 9B 09  02 0B 00 1D 80 80 9B 09  ..u.#...........
0990: 2B EA 30 0F 01 76 80 23  01 9B 09 52 0B 80 F0 FF  +.0..v.#...R....
09A0: FF 7F F0 FF FF 7F 65 74  30 30 02 0B 00 13 80 80  ......et00......
09B0: C6 09 45 0B 80 F0 FF FF  7F F0 FF FF 7F 65 74 6C  ..E..........etl
09C0: 6C 08 80 01 2B 0A 02 0B  00 17 80 80 E2 09 45 0B  l...+.........E.
09D0: 80 F0 FF FF 7F F0 FF FF  7F 65 74 73 73 08 80 01  .........etss...
09E0: 2B 0A 02 0B 00 19 80 80  FE 09 45 0B 80 F0 FF FF  +.........E.....
09F0: 7F F0 FF FF 7F 65 74 73  73 08 80 01 2B 0A 02 0B  .....etss...+...
0A00: 00 1D 80 80 1A 0A 45 0B  80 F0 FF FF 7F F0 FF FF  ......E.........
0A10: 7F 65 74 6C 6C 08 80 01  2B 0A 45 0B 80 F0 FF FF  .etll...+.E.....
0A20: 7F F0 FF FF 7F 65 74 6D  6D 08 80 6E 23 31 0F 01  .....etmm..n#1..
0A30: 77 80 99 23 31 0F 01 1A  BE 30 02 08 00 09 80 80  w..#1....0......
0A40: 4C 0A 2B 23 31 0F 01 78  80 01 12 0B 02 08 00 13  L.+#1..x........
0A50: 80 80 5E 0A 2B 23 31 0F  01 79 80 01 12 0B 02 08  ..^.+#1..y......
0A60: 00 15 80 80 70 0A 2B 23  31 0F 01 7A 80 01 12 0B  ....p.+#1..z....
0A70: 02 08 00 17 80 80 82 0A  2B 23 31 0F 01 7B 80 01  ........+#1..{..
0A80: 12 0B 02 08 00 19 80 80  94 0A 2B 23 31 0F 01 7C  ..........+#1..|
0A90: 80 01 12 0B 02 08 00 1B  80 80 A6 0A 2B 23 31 0F  ............+#1.
0AA0: 01 7D 80 01 12 0B 02 08  00 1D 80 80 B8 0A 2B 23  .}............+#
0AB0: 31 0F 01 7E 80 01 12 0B  02 08 00 1F 80 80 CA 0A  1..~............
0AC0: 2B 23 31 0F 01 7F 80 01  12 0B 02 08 00 21 80 80  +#1..........!..
0AD0: DC 0A 2B 23 31 0F 01 80  80 01 12 0B 02 08 00 23  ..+#1..........#
0AE0: 80 80 EE 0A 2B 23 31 0F  01 81 80 01 12 0B 02 08  ....+#1.........
0AF0: 00 25 80 80 00 0B 2B 23  31 0F 01 82 80 01 12 0B  .%....+#1.......
0B00: 02 08 00 27 80 80 12 0B  2B 23 31 0F 01 83 80 01  ...'....+#1.....
0B10: 12 0B 1C 55 80 23 52 0B  80 F0 FF FF 7F F0 FF FF  ...U.#R.........
0B20: 7F 65 74 73 73 52 0B 80  F0 FF FF 7F F0 FF FF 7F  .etssR..........
0B30: 65 74 6D 6D 52 0B 80 F0  FF FF 7F F0 FF FF 7F 65  etmmR..........e
0B40: 74 6C 6C 45 0B 80 F0 FF  FF 7F F0 FF FF 7F 65 74  tllE..........et
0B50: 30 31 08 80 2B EA 30 0F  01 84 80 23 52 0B 80 F0  01..+.0....#R...
0B60: FF FF 7F F0 FF FF 7F 65  74 30 31 45 0B 80 F0 FF  .......et01E....
0B70: FF 7F F0 FF FF 7F 65 74  30 32 08 80 5B 65 80 EA  ......et02..[e..
0B80: 30 0F 01 EA 30 0F 01 70  61 73 30 1C 0A 80 2B EA  0...0..pas0...+.
0B90: 30 0F 01 66 80 1C 0A 80  6E 23 31 0F 01 1D 80 99  0..f....n#1.....
0BA0: 23 31 0F 01 23 1A 5A 19  1C 0A 80 52 0B 80 F0 FF  #1..#.Z....R....
0BB0: FF 7F F0 FF FF 7F 65 74  30 32 45 0B 80 F0 FF FF  ......et02E.....
0BC0: 7F F0 FF FF 7F 30 62 6C  66 08 80 5C 00 67 80 5C  .....0blf..\.g.\
0BD0: 01 67 80 9A 46 00 45 68  80 F0 FF FF 7F F0 FF FF  .g..F.Eh........
0BE0: 7F 66 64 69 32 08 80 21  00                       .fdi2..!.       
```

#### Opcodes

```
  0: 0x0858 [0x42] SET_CLI_EVENT_CANCEL_DATA()
  1: 0x0859 [0x1A] CALL_SUBROUTINE(address=0x195A)
  2: 0x085C [0x46] CAMERA_CONTROL: Disable user control
  3: 0x085E [0x38] SET_CLIENT_EVENT_MODE(mode=19*)
  4: 0x0861 [0x27] REQ_SET(priority=0x10, entity_id=Unnamed NPC (ID: 17772835/0x010F3123), tag_num=0x15)
  5: 0x0868 [0x92] Magian Moogle (ID: 17772778/0x010F30EA)->Render.Flags3 ^= 0x01
  6: 0x086E [0x92] Magian Moogle (ID: 17772784/0x010F30F0)->Render.Flags3 ^= 0x01
  7: 0x0874 [0x92] Magian Moogle (ID: 17772782/0x010F30EE)->Render.Flags3 ^= 0x01
  8: 0x087A [0x92] Baran (ID: 17772566/0x010F3016)->Render.Flags3 ^= 0x01
  9: 0x0880 [0x92] Maat (ID: 17772593/0x010F3031)->Render.Flags3 ^= 0x01
 10: 0x0886 [0x92] Nomad Moogle (ID: 17772661/0x010F3075)->Render.Flags3 ^= 0x01
 11: 0x088C [0x94] LocalPlayer->Render.Flags3 ^= 0x01
 12: 0x0892 [0x94] Magian Moogle (ID: 17772778/0x010F30EA)->Render.Flags3 ^= 0x01
 13: 0x0898 [0x94] Unnamed NPC (ID: 17772835/0x010F3123)->Render.Flags3 ^= 0x01
 14: 0x089E [0xBA] SET_ENTITY_POSITION(entity_id=LocalPlayer, pos_x=-10.247*, pos_z=117.640*, pos_y=3.101*, direction=188.2°*)
 15: 0x08AB [0xBA] SET_ENTITY_POSITION(entity_id=Unnamed NPC (ID: 17772835/0x010F3123), pos_x=-9.346*, pos_z=118.754*, pos_y=3.101*, direction=167.4°*)
 16: 0x08B8 [0x29] REQ_SET_WAIT(priority=0x0A, entity_id=Unnamed NPC (ID: 17772835/0x010F3123), tag_num=0x01)
 17: 0x08BF [0x80] LOAD_WAIT(entity=Unnamed NPC (ID: 17772835/0x010F3123))
 18: 0x08C4 [0x80] LOAD_WAIT(entity=LocalPlayer)
 19: 0x08C9 [0x80] LOAD_WAIT(entity=Magian Moogle (ID: 17772778/0x010F30EA))
 20: 0x08CE [0x4A] LocalPlayer looks at Magian Moogle (ID: 17772778/0x010F30EA)
 21: 0x08D7 [0x79] Unnamed NPC (ID: 17772835/0x010F3123) looks at Magian Moogle (ID: 17772778/0x010F30EA) (Basic look)
 22: 0x08E1 [0x1C] WAIT(30* ticks)
 23: 0x08E4 [0x45] LOAD_SCHEDULED_TASK: Load scheduler "et00" with entities [LocalPlayer, LocalPlayer], work=[562*, 0*]
 24: 0x08F5 [0x1A] CALL_SUBROUTINE(address=0x1939)
 25: 0x08F8 [0x1A] CALL_SUBROUTINE(address=0x2FD3)
 26: 0x08FB [0x1A] CALL_SUBROUTINE(address=0x2FDD)
 27: 0x08FE [0x03] Work_Zone[2] = ExtData[1]->WorkLocal[1]
 28: 0x0903 [0x02] IF !(ExtData[1]->WorkLocal[11] == 0*) GOTO 0x0916
 29: 0x090B [0x2B] Magian Moogle (ID: 17772778/0x010F30EA) [14833*]:
    → "<Player> and [Feliz/Ferdinand/Gunnar/Massimo/Oldrich/Siegward/Theobald/Zenji], was it? You have done well to return. The time for your next trial is at hand, kupo."
 30: 0x0912 [0x23] WAIT_FOR_DIALOG_INTERACTION
 31: 0x0913 [0x01] GOTO 0x099B
 32: 0x0916 [0x02] IF !(ExtData[1]->WorkLocal[11] == 1*) GOTO 0x0929
 33: 0x091E [0x2B] Magian Moogle (ID: 17772778/0x010F30EA) [14834*]:
    → "<Player> and [Amerita/Beatrice/Henrietta/Jesimae/Karyn/Nanako/Sharlene/Sieghilde], was it? You have done well to return. The time for your next trial is at hand, kupo."
 34: 0x0925 [0x23] WAIT_FOR_DIALOG_INTERACTION
 35: 0x0926 [0x01] GOTO 0x099B
 36: 0x0929 [0x02] IF !(ExtData[1]->WorkLocal[11] == 2*) GOTO 0x093C
 37: 0x0931 [0x2B] Magian Moogle (ID: 17772778/0x010F30EA) [14835*]:
    → "<Player> and [Chanandit/Deulmaeux/Demresinaux/Ephealgaux/Gauldeval/Grauffemart/Migaifongut/Romidiant], was it? You have done well to return. The time for your next trial is at hand, kupo."
 38: 0x0938 [0x23] WAIT_FOR_DIALOG_INTERACTION
 39: 0x0939 [0x01] GOTO 0x099B
 40: 0x093C [0x02] IF !(ExtData[1]->WorkLocal[11] == 3*) GOTO 0x094F
 41: 0x0944 [0x2B] Magian Moogle (ID: 17772778/0x010F30EA) [14836*]:
    → "<Player> and [Armittie/Cadepure/Clearite/Epilleve/Liabelle/Nauthima/Radille/Vimechue], was it? You have done well to return. The time for your next trial is at hand, kupo."
 42: 0x094B [0x23] WAIT_FOR_DIALOG_INTERACTION
 43: 0x094C [0x01] GOTO 0x099B
 44: 0x094F [0x02] IF !(ExtData[1]->WorkLocal[11] == 4*) GOTO 0x0962
 45: 0x0957 [0x2B] Magian Moogle (ID: 17772778/0x010F30EA) [14837*]:
    → "<Player> and [Balu-Falu/Burg-Ladarg/Ehgo-Ryuhgo/Kolui-Pelui/Nokum-Akkum/Savul-Kivul/Vinja-Kanja/Yarga-Umiga], was it? You have done well to return. The time for your next trial is at hand, kupo."
 46: 0x095E [0x23] WAIT_FOR_DIALOG_INTERACTION
 47: 0x095F [0x01] GOTO 0x099B
 48: 0x0962 [0x02] IF !(ExtData[1]->WorkLocal[11] == 5*) GOTO 0x0975
 49: 0x096A [0x2B] Magian Moogle (ID: 17772778/0x010F30EA) [14838*]:
    → "<Player> and [Cupapa/Jajuju/Kalokoko/Mahoyaya/Pakurara/Ripokeke/Yawawa/Yufafa], was it? You have done well to return. The time for your next trial is at hand, kupo."
 50: 0x0971 [0x23] WAIT_FOR_DIALOG_INTERACTION
 51: 0x0972 [0x01] GOTO 0x099B
 52: 0x0975 [0x02] IF !(ExtData[1]->WorkLocal[11] == 6*) GOTO 0x0988
 53: 0x097D [0x2B] Magian Moogle (ID: 17772778/0x010F30EA) [14839*]:
    → "<Player> and [Fhig Lahrv/Khuma Tagyawhan/Pimy Kettihl/Raka Maimhov/Sahyu Banjyao/Sufhi Uchnouma/Tsuim Nhomango/Yoli Kohlpaka], was it? You have done well to return. The time for your next trial is at hand, kupo."
 54: 0x0984 [0x23] WAIT_FOR_DIALOG_INTERACTION
 55: 0x0985 [0x01] GOTO 0x099B
 56: 0x0988 [0x02] IF !(ExtData[1]->WorkLocal[11] == 7*) GOTO 0x099B
 57: 0x0990 [0x2B] Magian Moogle (ID: 17772778/0x010F30EA) [14840*]:
    → "<Player> and [Durib/Dzapiwa/Jugowa/Mugido/Voldai/Wagwei/Zayag/Zoldof], was it? You have done well to return. The time for your next trial is at hand, kupo."
 58: 0x0997 [0x23] WAIT_FOR_DIALOG_INTERACTION
 59: 0x0998 [0x01] GOTO 0x099B

SUBROUTINE_099B:
 60: 0x099B [0x52] END_LOAD_SCHEDULER: End scheduler "et00" with entities [LocalPlayer, LocalPlayer], work=562*
 61: 0x09AA [0x02] IF !(ExtData[1]->WorkLocal[11] == 2*) GOTO 0x09C6
 62: 0x09B2 [0x45] LOAD_SCHEDULED_TASK: Load scheduler "etll" with entities [LocalPlayer, LocalPlayer], work=[562*, 0*]
 63: 0x09C3 [0x01] GOTO 0x0A2B
 64: 0x09C6 [0x02] IF !(ExtData[1]->WorkLocal[11] == 4*) GOTO 0x09E2
 65: 0x09CE [0x45] LOAD_SCHEDULED_TASK: Load scheduler "etss" with entities [LocalPlayer, LocalPlayer], work=[562*, 0*]
 66: 0x09DF [0x01] GOTO 0x0A2B
 67: 0x09E2 [0x02] IF !(ExtData[1]->WorkLocal[11] == 5*) GOTO 0x09FE
 68: 0x09EA [0x45] LOAD_SCHEDULED_TASK: Load scheduler "etss" with entities [LocalPlayer, LocalPlayer], work=[562*, 0*]
 69: 0x09FB [0x01] GOTO 0x0A2B
 70: 0x09FE [0x02] IF !(ExtData[1]->WorkLocal[11] == 7*) GOTO 0x0A1A
 71: 0x0A06 [0x45] LOAD_SCHEDULED_TASK: Load scheduler "etll" with entities [LocalPlayer, LocalPlayer], work=[562*, 0*]
 72: 0x0A17 [0x01] GOTO 0x0A2B
 73: 0x0A1A [0x45] LOAD_SCHEDULED_TASK: Load scheduler "etmm" with entities [LocalPlayer, LocalPlayer], work=[562*, 0*]

SUBROUTINE_0A2B:
 74: 0x0A2B [0x6E] Unnamed NPC (ID: 17772835/0x010F3123) uses emote 36*
 75: 0x0A32 [0x99] Wait for Unnamed NPC (ID: 17772835/0x010F3123) animation to complete
 76: 0x0A37 [0x1A] CALL_SUBROUTINE(address=0x30BE)
 77: 0x0A3A [0x02] IF !(ExtData[1]->WorkLocal[8] == 1*) GOTO 0x0A4C
 78: 0x0A42 [0x2B] Unnamed NPC (ID: 17772835/0x010F3123) [14841*]:
    → "It's about time."
 79: 0x0A49 [0x01] GOTO 0x0B12
 80: 0x0A4C [0x02] IF !(ExtData[1]->WorkLocal[8] == 2*) GOTO 0x0A5E
 81: 0x0A54 [0x2B] Unnamed NPC (ID: 17772835/0x010F3123) [14842*]:
    → "Bring it on!"
 82: 0x0A5B [0x01] GOTO 0x0B12
 83: 0x0A5E [0x02] IF !(ExtData[1]->WorkLocal[8] == 3*) GOTO 0x0A70
 84: 0x0A66 [0x2B] Unnamed NPC (ID: 17772835/0x010F3123) [14844*]:
    → "Let's hear what you have in store for us this time."
 85: 0x0A6D [0x01] GOTO 0x0B12
 86: 0x0A70 [0x02] IF !(ExtData[1]->WorkLocal[8] == 4*) GOTO 0x0A82
 87: 0x0A78 [0x2B] Unnamed NPC (ID: 17772835/0x010F3123) [14843*]:
    → "...I am ready."
 88: 0x0A7F [0x01] GOTO 0x0B12
 89: 0x0A82 [0x02] IF !(ExtData[1]->WorkLocal[8] == 5*) GOTO 0x0A94
 90: 0x0A8A [0x2B] Unnamed NPC (ID: 17772835/0x010F3123) [14847*]:
    → "Why, I thought I'd die of waiting!"
 91: 0x0A91 [0x01] GOTO 0x0B12
 92: 0x0A94 [0x02] IF !(ExtData[1]->WorkLocal[8] == 6*) GOTO 0x0AA6
 93: 0x0A9C [0x2B] Unnamed NPC (ID: 17772835/0x010F3123) [14848*]:
    → "You hear that, <Player>? Let's go!"
 94: 0x0AA3 [0x01] GOTO 0x0B12
 95: 0x0AA6 [0x02] IF !(ExtData[1]->WorkLocal[8] == 7*) GOTO 0x0AB8
 96: 0x0AAE [0x2B] Unnamed NPC (ID: 17772835/0x010F3123) [14849*]:
    → "I wonder what challenges await us this time."
 97: 0x0AB5 [0x01] GOTO 0x0B12
 98: 0x0AB8 [0x02] IF !(ExtData[1]->WorkLocal[8] == 8*) GOTO 0x0ACA
 99: 0x0AC0 [0x2B] Unnamed NPC (ID: 17772835/0x010F3123) [14850*]:
    → "Ooh, ooh! What's on the menu this time, Mister Moogle?"
100: 0x0AC7 [0x01] GOTO 0x0B12
101: 0x0ACA [0x02] IF !(ExtData[1]->WorkLocal[8] == 9*) GOTO 0x0ADC
102: 0x0AD2 [0x2B] Unnamed NPC (ID: 17772835/0x010F3123) [14851*]:
    → "I am ready for whatever comes my way!"
103: 0x0AD9 [0x01] GOTO 0x0B12
104: 0x0ADC [0x02] IF !(ExtData[1]->WorkLocal[8] == 10*) GOTO 0x0AEE
105: 0x0AE4 [0x2B] Unnamed NPC (ID: 17772835/0x010F3123) [14845*]:
    → "Woo boy! My heart won't stop pounding."
106: 0x0AEB [0x01] GOTO 0x0B12
107: 0x0AEE [0x02] IF !(ExtData[1]->WorkLocal[8] == 11*) GOTO 0x0B00
108: 0x0AF6 [0x2B] Unnamed NPC (ID: 17772835/0x010F3123) [14846*]:
    → "Ahaha! These are the times I feel alive!"
109: 0x0AFD [0x01] GOTO 0x0B12
110: 0x0B00 [0x02] IF !(ExtData[1]->WorkLocal[8] == 12*) GOTO 0x0B12
111: 0x0B08 [0x2B] Unnamed NPC (ID: 17772835/0x010F3123) [14852*]:
    → "Spare us the dramatics and get on with it, would you?"
112: 0x0B0F [0x01] GOTO 0x0B12

SUBROUTINE_0B12:
113: 0x0B12 [0x1C] WAIT(120* ticks)
114: 0x0B15 [0x23] WAIT_FOR_DIALOG_INTERACTION
115: 0x0B16 [0x52] END_LOAD_SCHEDULER: End scheduler "etss" with entities [LocalPlayer, LocalPlayer], work=562*
116: 0x0B25 [0x52] END_LOAD_SCHEDULER: End scheduler "etmm" with entities [LocalPlayer, LocalPlayer], work=562*
117: 0x0B34 [0x52] END_LOAD_SCHEDULER: End scheduler "etll" with entities [LocalPlayer, LocalPlayer], work=562*
118: 0x0B43 [0x45] LOAD_SCHEDULED_TASK: Load scheduler "et01" with entities [LocalPlayer, LocalPlayer], work=[562*, 0*]
119: 0x0B54 [0x2B] Magian Moogle (ID: 17772778/0x010F30EA) [14853*]:
    → "Your eagerness is admirable, but let it not turn to impatience, lest it doom you to downfall..."
120: 0x0B5B [0x23] WAIT_FOR_DIALOG_INTERACTION
121: 0x0B5C [0x52] END_LOAD_SCHEDULER: End scheduler "et01" with entities [LocalPlayer, LocalPlayer], work=562*
122: 0x0B6B [0x45] LOAD_SCHEDULED_TASK: Load scheduler "et02" with entities [LocalPlayer, LocalPlayer], work=[562*, 0*]
123: 0x0B7C [0x5B] LOAD_EXT_SCHEDULER: Load scheduler "pas0" with entities [Magian Moogle (ID: 17772778/0x010F30EA), Magian Moogle (ID: 17772778/0x010F30EA)], work=2755*
124: 0x0B8B [0x1C] WAIT(30* ticks)
125: 0x0B8E [0x2B] Magian Moogle (ID: 17772778/0x010F30EA) [14831*]:
    → "At any rate, hand this over to Brother Blue to commence your challenge. Now take your leave of me, kupo."
126: 0x0B95 [0x1C] WAIT(30* ticks)
127: 0x0B98 [0x6E] Unnamed NPC (ID: 17772835/0x010F3123) uses emote 7*
128: 0x0B9F [0x99] Wait for Unnamed NPC (ID: 17772835/0x010F3123) animation to complete
129: 0x0BA4 [0x23] WAIT_FOR_DIALOG_INTERACTION
130: 0x0BA5 [0x1A] CALL_SUBROUTINE(address=0x195A)
131: 0x0BA8 [0x1C] WAIT(30* ticks)
132: 0x0BAB [0x52] END_LOAD_SCHEDULER: End scheduler "et02" with entities [LocalPlayer, LocalPlayer], work=562*
133: 0x0BBA [0x45] LOAD_SCHEDULED_TASK: Load scheduler "0blf" with entities [LocalPlayer, LocalPlayer], work=[562*, 0*]
134: 0x0BCB [0x5C] MUSIC_CONTROL: Set Idle (Day) music to song 117*
135: 0x0BCF [0x5C] MUSIC_CONTROL: Set Idle (Night) music to song 117*
136: 0x0BD3 [0x9A] WAIT_MUSIC_SERVER()
137: 0x0BD4 [0x46] CAMERA_CONTROL: Restore default settings
138: 0x0BD6 [0x45] LOAD_SCHEDULED_TASK: Load scheduler "fdi2" with entities [LocalPlayer, LocalPlayer], work=[200*, 0*]
139: 0x0BE7 [0x21] END_EVENT
140: 0x0BE8 [0x00] END_REQSTACK()
```

### Event 10165

#### Metadata

| Field        | Value     |
|--------------|-----------|
| Entrypoint   | 0x0BE9    |
| Data Size    | 913 bytes |
| Instructions | 141       |

```
      00 01 02 03 04 05 06 07  08 09 0A 0B 0C 0D 0E 0F
      -- -- -- -- -- -- -- --  -- -- -- -- -- -- -- --
0BE0:                             42 1A 5A 19 46 01 38           B.Z.F.8
0BF0: 00 80 27 10 23 31 0F 01  15 92 01 EA 30 0F 01 92  ..'.#1......0...
0C00: 01 F0 30 0F 01 92 01 EE  30 0F 01 92 01 16 30 0F  ..0.....0.....0.
0C10: 01 92 01 31 30 0F 01 92  01 75 30 0F 01 94 01 F0  ...10....u0.....
0C20: FF FF 7F 94 01 EA 30 0F  01 94 01 23 31 0F 01 BA  ......0....#1...
0C30: F0 FF FF 7F 69 80 6A 80  03 80 6B 80 BA 23 31 0F  ....i.j...k..#1.
0C40: 01 6C 80 6D 80 03 80 6E  80 29 0A 23 31 0F 01 01  .l.m...n.).#1...
0C50: 80 23 31 0F 01 80 F0 FF  FF 7F 80 EA 30 0F 01 4A  .#1.........0..J
0C60: F0 FF FF 7F EA 30 0F 01  79 00 23 31 0F 01 EA 30  .....0..y.#1...0
0C70: 0F 01 1C 0A 80 45 0B 80  F0 FF FF 7F F0 FF FF 7F  .....E..........
0C80: 65 74 30 30 08 80 1A 39  19 1A D3 2F 1A DD 2F 03  et00...9.../../.
0C90: 02 10 01 00 02 0B 00 08  80 80 A7 0C 2B EA 30 0F  ............+.0.
0CA0: 01 6F 80 23 01 2C 0D 02  0B 00 09 80 80 BA 0C 2B  .o.#.,.........+
0CB0: EA 30 0F 01 70 80 23 01  2C 0D 02 0B 00 13 80 80  .0..p.#.,.......
0CC0: CD 0C 2B EA 30 0F 01 71  80 23 01 2C 0D 02 0B 00  ..+.0..q.#.,....
0CD0: 15 80 80 E0 0C 2B EA 30  0F 01 72 80 23 01 2C 0D  .....+.0..r.#.,.
0CE0: 02 0B 00 17 80 80 F3 0C  2B EA 30 0F 01 73 80 23  ........+.0..s.#
0CF0: 01 2C 0D 02 0B 00 19 80  80 06 0D 2B EA 30 0F 01  .,.........+.0..
0D00: 74 80 23 01 2C 0D 02 0B  00 1B 80 80 19 0D 2B EA  t.#.,.........+.
0D10: 30 0F 01 75 80 23 01 2C  0D 02 0B 00 1D 80 80 2C  0..u.#.,.......,
0D20: 0D 2B EA 30 0F 01 76 80  23 01 2C 0D 52 0B 80 F0  .+.0..v.#.,.R...
0D30: FF FF 7F F0 FF FF 7F 65  74 30 30 02 0B 00 13 80  .......et00.....
0D40: 80 57 0D 45 0B 80 F0 FF  FF 7F F0 FF FF 7F 65 74  .W.E..........et
0D50: 6C 6C 08 80 01 BC 0D 02  0B 00 17 80 80 73 0D 45  ll...........s.E
0D60: 0B 80 F0 FF FF 7F F0 FF  FF 7F 65 74 73 73 08 80  ..........etss..
0D70: 01 BC 0D 02 0B 00 19 80  80 8F 0D 45 0B 80 F0 FF  ...........E....
0D80: FF 7F F0 FF FF 7F 65 74  73 73 08 80 01 BC 0D 02  ......etss......
0D90: 0B 00 1D 80 80 AB 0D 45  0B 80 F0 FF FF 7F F0 FF  .......E........
0DA0: FF 7F 65 74 6C 6C 08 80  01 BC 0D 45 0B 80 F0 FF  ..etll.....E....
0DB0: FF 7F F0 FF FF 7F 65 74  6D 6D 08 80 6E 23 31 0F  ......etmm..n#1.
0DC0: 01 77 80 99 23 31 0F 01  1A BE 30 02 08 00 09 80  .w..#1....0.....
0DD0: 80 DD 0D 2B 23 31 0F 01  78 80 01 A3 0E 02 08 00  ...+#1..x.......
0DE0: 13 80 80 EF 0D 2B 23 31  0F 01 79 80 01 A3 0E 02  .....+#1..y.....
0DF0: 08 00 15 80 80 01 0E 2B  23 31 0F 01 7A 80 01 A3  .......+#1..z...
0E00: 0E 02 08 00 17 80 80 13  0E 2B 23 31 0F 01 7B 80  .........+#1..{.
0E10: 01 A3 0E 02 08 00 19 80  80 25 0E 2B 23 31 0F 01  .........%.+#1..
0E20: 7C 80 01 A3 0E 02 08 00  1B 80 80 37 0E 2B 23 31  |..........7.+#1
0E30: 0F 01 7D 80 01 A3 0E 02  08 00 1D 80 80 49 0E 2B  ..}..........I.+
0E40: 23 31 0F 01 7E 80 01 A3  0E 02 08 00 1F 80 80 5B  #1..~..........[
0E50: 0E 2B 23 31 0F 01 7F 80  01 A3 0E 02 08 00 21 80  .+#1..........!.
0E60: 80 6D 0E 2B 23 31 0F 01  80 80 01 A3 0E 02 08 00  .m.+#1..........
0E70: 23 80 80 7F 0E 2B 23 31  0F 01 81 80 01 A3 0E 02  #....+#1........
0E80: 08 00 25 80 80 91 0E 2B  23 31 0F 01 82 80 01 A3  ..%....+#1......
0E90: 0E 02 08 00 27 80 80 A3  0E 2B 23 31 0F 01 83 80  ....'....+#1....
0EA0: 01 A3 0E 1C 55 80 23 52  0B 80 F0 FF FF 7F F0 FF  ....U.#R........
0EB0: FF 7F 65 74 73 73 52 0B  80 F0 FF FF 7F F0 FF FF  ..etssR.........
0EC0: 7F 65 74 6D 6D 52 0B 80  F0 FF FF 7F F0 FF FF 7F  .etmmR..........
0ED0: 65 74 6C 6C 45 0B 80 F0  FF FF 7F F0 FF FF 7F 65  etllE..........e
0EE0: 74 30 31 08 80 2B EA 30  0F 01 84 80 23 52 0B 80  t01..+.0....#R..
0EF0: F0 FF FF 7F F0 FF FF 7F  65 74 30 31 45 0B 80 F0  ........et01E...
0F00: FF FF 7F F0 FF FF 7F 65  74 30 32 08 80 5B 65 80  .......et02..[e.
0F10: EA 30 0F 01 EA 30 0F 01  70 61 73 30 1C 0A 80 2B  .0...0..pas0...+
0F20: EA 30 0F 01 66 80 1C 0A  80 6E 23 31 0F 01 1D 80  .0..f....n#1....
0F30: 99 23 31 0F 01 23 1A 5A  19 1C 0A 80 52 0B 80 F0  .#1..#.Z....R...
0F40: FF FF 7F F0 FF FF 7F 65  74 30 32 45 0B 80 F0 FF  .......et02E....
0F50: FF 7F F0 FF FF 7F 30 62  6C 66 08 80 5C 00 67 80  ......0blf..\.g.
0F60: 5C 01 67 80 9A 46 00 45  68 80 F0 FF FF 7F F0 FF  \.g..F.Eh.......
0F70: FF 7F 66 64 69 32 08 80  21 00                    ..fdi2..!.      
```

#### Opcodes

```
  0: 0x0BE9 [0x42] SET_CLI_EVENT_CANCEL_DATA()
  1: 0x0BEA [0x1A] CALL_SUBROUTINE(address=0x195A)
  2: 0x0BED [0x46] CAMERA_CONTROL: Disable user control
  3: 0x0BEF [0x38] SET_CLIENT_EVENT_MODE(mode=19*)
  4: 0x0BF2 [0x27] REQ_SET(priority=0x10, entity_id=Unnamed NPC (ID: 17772835/0x010F3123), tag_num=0x15)
  5: 0x0BF9 [0x92] Magian Moogle (ID: 17772778/0x010F30EA)->Render.Flags3 ^= 0x01
  6: 0x0BFF [0x92] Magian Moogle (ID: 17772784/0x010F30F0)->Render.Flags3 ^= 0x01
  7: 0x0C05 [0x92] Magian Moogle (ID: 17772782/0x010F30EE)->Render.Flags3 ^= 0x01
  8: 0x0C0B [0x92] Baran (ID: 17772566/0x010F3016)->Render.Flags3 ^= 0x01
  9: 0x0C11 [0x92] Maat (ID: 17772593/0x010F3031)->Render.Flags3 ^= 0x01
 10: 0x0C17 [0x92] Nomad Moogle (ID: 17772661/0x010F3075)->Render.Flags3 ^= 0x01
 11: 0x0C1D [0x94] LocalPlayer->Render.Flags3 ^= 0x01
 12: 0x0C23 [0x94] Magian Moogle (ID: 17772778/0x010F30EA)->Render.Flags3 ^= 0x01
 13: 0x0C29 [0x94] Unnamed NPC (ID: 17772835/0x010F3123)->Render.Flags3 ^= 0x01
 14: 0x0C2F [0xBA] SET_ENTITY_POSITION(entity_id=LocalPlayer, pos_x=-10.247*, pos_z=117.640*, pos_y=3.101*, direction=188.2°*)
 15: 0x0C3C [0xBA] SET_ENTITY_POSITION(entity_id=Unnamed NPC (ID: 17772835/0x010F3123), pos_x=-9.346*, pos_z=118.754*, pos_y=3.101*, direction=167.4°*)
 16: 0x0C49 [0x29] REQ_SET_WAIT(priority=0x0A, entity_id=Unnamed NPC (ID: 17772835/0x010F3123), tag_num=0x01)
 17: 0x0C50 [0x80] LOAD_WAIT(entity=Unnamed NPC (ID: 17772835/0x010F3123))
 18: 0x0C55 [0x80] LOAD_WAIT(entity=LocalPlayer)
 19: 0x0C5A [0x80] LOAD_WAIT(entity=Magian Moogle (ID: 17772778/0x010F30EA))
 20: 0x0C5F [0x4A] LocalPlayer looks at Magian Moogle (ID: 17772778/0x010F30EA)
 21: 0x0C68 [0x79] Unnamed NPC (ID: 17772835/0x010F3123) looks at Magian Moogle (ID: 17772778/0x010F30EA) (Basic look)
 22: 0x0C72 [0x1C] WAIT(30* ticks)
 23: 0x0C75 [0x45] LOAD_SCHEDULED_TASK: Load scheduler "et00" with entities [LocalPlayer, LocalPlayer], work=[562*, 0*]
 24: 0x0C86 [0x1A] CALL_SUBROUTINE(address=0x1939)
 25: 0x0C89 [0x1A] CALL_SUBROUTINE(address=0x2FD3)
 26: 0x0C8C [0x1A] CALL_SUBROUTINE(address=0x2FDD)
 27: 0x0C8F [0x03] Work_Zone[2] = ExtData[1]->WorkLocal[1]
 28: 0x0C94 [0x02] IF !(ExtData[1]->WorkLocal[11] == 0*) GOTO 0x0CA7
 29: 0x0C9C [0x2B] Magian Moogle (ID: 17772778/0x010F30EA) [14833*]:
    → "<Player> and [Feliz/Ferdinand/Gunnar/Massimo/Oldrich/Siegward/Theobald/Zenji], was it? You have done well to return. The time for your next trial is at hand, kupo."
 30: 0x0CA3 [0x23] WAIT_FOR_DIALOG_INTERACTION
 31: 0x0CA4 [0x01] GOTO 0x0D2C
 32: 0x0CA7 [0x02] IF !(ExtData[1]->WorkLocal[11] == 1*) GOTO 0x0CBA
 33: 0x0CAF [0x2B] Magian Moogle (ID: 17772778/0x010F30EA) [14834*]:
    → "<Player> and [Amerita/Beatrice/Henrietta/Jesimae/Karyn/Nanako/Sharlene/Sieghilde], was it? You have done well to return. The time for your next trial is at hand, kupo."
 34: 0x0CB6 [0x23] WAIT_FOR_DIALOG_INTERACTION
 35: 0x0CB7 [0x01] GOTO 0x0D2C
 36: 0x0CBA [0x02] IF !(ExtData[1]->WorkLocal[11] == 2*) GOTO 0x0CCD
 37: 0x0CC2 [0x2B] Magian Moogle (ID: 17772778/0x010F30EA) [14835*]:
    → "<Player> and [Chanandit/Deulmaeux/Demresinaux/Ephealgaux/Gauldeval/Grauffemart/Migaifongut/Romidiant], was it? You have done well to return. The time for your next trial is at hand, kupo."
 38: 0x0CC9 [0x23] WAIT_FOR_DIALOG_INTERACTION
 39: 0x0CCA [0x01] GOTO 0x0D2C
 40: 0x0CCD [0x02] IF !(ExtData[1]->WorkLocal[11] == 3*) GOTO 0x0CE0
 41: 0x0CD5 [0x2B] Magian Moogle (ID: 17772778/0x010F30EA) [14836*]:
    → "<Player> and [Armittie/Cadepure/Clearite/Epilleve/Liabelle/Nauthima/Radille/Vimechue], was it? You have done well to return. The time for your next trial is at hand, kupo."
 42: 0x0CDC [0x23] WAIT_FOR_DIALOG_INTERACTION
 43: 0x0CDD [0x01] GOTO 0x0D2C
 44: 0x0CE0 [0x02] IF !(ExtData[1]->WorkLocal[11] == 4*) GOTO 0x0CF3
 45: 0x0CE8 [0x2B] Magian Moogle (ID: 17772778/0x010F30EA) [14837*]:
    → "<Player> and [Balu-Falu/Burg-Ladarg/Ehgo-Ryuhgo/Kolui-Pelui/Nokum-Akkum/Savul-Kivul/Vinja-Kanja/Yarga-Umiga], was it? You have done well to return. The time for your next trial is at hand, kupo."
 46: 0x0CEF [0x23] WAIT_FOR_DIALOG_INTERACTION
 47: 0x0CF0 [0x01] GOTO 0x0D2C
 48: 0x0CF3 [0x02] IF !(ExtData[1]->WorkLocal[11] == 5*) GOTO 0x0D06
 49: 0x0CFB [0x2B] Magian Moogle (ID: 17772778/0x010F30EA) [14838*]:
    → "<Player> and [Cupapa/Jajuju/Kalokoko/Mahoyaya/Pakurara/Ripokeke/Yawawa/Yufafa], was it? You have done well to return. The time for your next trial is at hand, kupo."
 50: 0x0D02 [0x23] WAIT_FOR_DIALOG_INTERACTION
 51: 0x0D03 [0x01] GOTO 0x0D2C
 52: 0x0D06 [0x02] IF !(ExtData[1]->WorkLocal[11] == 6*) GOTO 0x0D19
 53: 0x0D0E [0x2B] Magian Moogle (ID: 17772778/0x010F30EA) [14839*]:
    → "<Player> and [Fhig Lahrv/Khuma Tagyawhan/Pimy Kettihl/Raka Maimhov/Sahyu Banjyao/Sufhi Uchnouma/Tsuim Nhomango/Yoli Kohlpaka], was it? You have done well to return. The time for your next trial is at hand, kupo."
 54: 0x0D15 [0x23] WAIT_FOR_DIALOG_INTERACTION
 55: 0x0D16 [0x01] GOTO 0x0D2C
 56: 0x0D19 [0x02] IF !(ExtData[1]->WorkLocal[11] == 7*) GOTO 0x0D2C
 57: 0x0D21 [0x2B] Magian Moogle (ID: 17772778/0x010F30EA) [14840*]:
    → "<Player> and [Durib/Dzapiwa/Jugowa/Mugido/Voldai/Wagwei/Zayag/Zoldof], was it? You have done well to return. The time for your next trial is at hand, kupo."
 58: 0x0D28 [0x23] WAIT_FOR_DIALOG_INTERACTION
 59: 0x0D29 [0x01] GOTO 0x0D2C

SUBROUTINE_0D2C:
 60: 0x0D2C [0x52] END_LOAD_SCHEDULER: End scheduler "et00" with entities [LocalPlayer, LocalPlayer], work=562*
 61: 0x0D3B [0x02] IF !(ExtData[1]->WorkLocal[11] == 2*) GOTO 0x0D57
 62: 0x0D43 [0x45] LOAD_SCHEDULED_TASK: Load scheduler "etll" with entities [LocalPlayer, LocalPlayer], work=[562*, 0*]
 63: 0x0D54 [0x01] GOTO 0x0DBC
 64: 0x0D57 [0x02] IF !(ExtData[1]->WorkLocal[11] == 4*) GOTO 0x0D73
 65: 0x0D5F [0x45] LOAD_SCHEDULED_TASK: Load scheduler "etss" with entities [LocalPlayer, LocalPlayer], work=[562*, 0*]
 66: 0x0D70 [0x01] GOTO 0x0DBC
 67: 0x0D73 [0x02] IF !(ExtData[1]->WorkLocal[11] == 5*) GOTO 0x0D8F
 68: 0x0D7B [0x45] LOAD_SCHEDULED_TASK: Load scheduler "etss" with entities [LocalPlayer, LocalPlayer], work=[562*, 0*]
 69: 0x0D8C [0x01] GOTO 0x0DBC
 70: 0x0D8F [0x02] IF !(ExtData[1]->WorkLocal[11] == 7*) GOTO 0x0DAB
 71: 0x0D97 [0x45] LOAD_SCHEDULED_TASK: Load scheduler "etll" with entities [LocalPlayer, LocalPlayer], work=[562*, 0*]
 72: 0x0DA8 [0x01] GOTO 0x0DBC
 73: 0x0DAB [0x45] LOAD_SCHEDULED_TASK: Load scheduler "etmm" with entities [LocalPlayer, LocalPlayer], work=[562*, 0*]

SUBROUTINE_0DBC:
 74: 0x0DBC [0x6E] Unnamed NPC (ID: 17772835/0x010F3123) uses emote 36*
 75: 0x0DC3 [0x99] Wait for Unnamed NPC (ID: 17772835/0x010F3123) animation to complete
 76: 0x0DC8 [0x1A] CALL_SUBROUTINE(address=0x30BE)
 77: 0x0DCB [0x02] IF !(ExtData[1]->WorkLocal[8] == 1*) GOTO 0x0DDD
 78: 0x0DD3 [0x2B] Unnamed NPC (ID: 17772835/0x010F3123) [14841*]:
    → "It's about time."
 79: 0x0DDA [0x01] GOTO 0x0EA3
 80: 0x0DDD [0x02] IF !(ExtData[1]->WorkLocal[8] == 2*) GOTO 0x0DEF
 81: 0x0DE5 [0x2B] Unnamed NPC (ID: 17772835/0x010F3123) [14842*]:
    → "Bring it on!"
 82: 0x0DEC [0x01] GOTO 0x0EA3
 83: 0x0DEF [0x02] IF !(ExtData[1]->WorkLocal[8] == 3*) GOTO 0x0E01
 84: 0x0DF7 [0x2B] Unnamed NPC (ID: 17772835/0x010F3123) [14844*]:
    → "Let's hear what you have in store for us this time."
 85: 0x0DFE [0x01] GOTO 0x0EA3
 86: 0x0E01 [0x02] IF !(ExtData[1]->WorkLocal[8] == 4*) GOTO 0x0E13
 87: 0x0E09 [0x2B] Unnamed NPC (ID: 17772835/0x010F3123) [14843*]:
    → "...I am ready."
 88: 0x0E10 [0x01] GOTO 0x0EA3
 89: 0x0E13 [0x02] IF !(ExtData[1]->WorkLocal[8] == 5*) GOTO 0x0E25
 90: 0x0E1B [0x2B] Unnamed NPC (ID: 17772835/0x010F3123) [14847*]:
    → "Why, I thought I'd die of waiting!"
 91: 0x0E22 [0x01] GOTO 0x0EA3
 92: 0x0E25 [0x02] IF !(ExtData[1]->WorkLocal[8] == 6*) GOTO 0x0E37
 93: 0x0E2D [0x2B] Unnamed NPC (ID: 17772835/0x010F3123) [14848*]:
    → "You hear that, <Player>? Let's go!"
 94: 0x0E34 [0x01] GOTO 0x0EA3
 95: 0x0E37 [0x02] IF !(ExtData[1]->WorkLocal[8] == 7*) GOTO 0x0E49
 96: 0x0E3F [0x2B] Unnamed NPC (ID: 17772835/0x010F3123) [14849*]:
    → "I wonder what challenges await us this time."
 97: 0x0E46 [0x01] GOTO 0x0EA3
 98: 0x0E49 [0x02] IF !(ExtData[1]->WorkLocal[8] == 8*) GOTO 0x0E5B
 99: 0x0E51 [0x2B] Unnamed NPC (ID: 17772835/0x010F3123) [14850*]:
    → "Ooh, ooh! What's on the menu this time, Mister Moogle?"
100: 0x0E58 [0x01] GOTO 0x0EA3
101: 0x0E5B [0x02] IF !(ExtData[1]->WorkLocal[8] == 9*) GOTO 0x0E6D
102: 0x0E63 [0x2B] Unnamed NPC (ID: 17772835/0x010F3123) [14851*]:
    → "I am ready for whatever comes my way!"
103: 0x0E6A [0x01] GOTO 0x0EA3
104: 0x0E6D [0x02] IF !(ExtData[1]->WorkLocal[8] == 10*) GOTO 0x0E7F
105: 0x0E75 [0x2B] Unnamed NPC (ID: 17772835/0x010F3123) [14845*]:
    → "Woo boy! My heart won't stop pounding."
106: 0x0E7C [0x01] GOTO 0x0EA3
107: 0x0E7F [0x02] IF !(ExtData[1]->WorkLocal[8] == 11*) GOTO 0x0E91
108: 0x0E87 [0x2B] Unnamed NPC (ID: 17772835/0x010F3123) [14846*]:
    → "Ahaha! These are the times I feel alive!"
109: 0x0E8E [0x01] GOTO 0x0EA3
110: 0x0E91 [0x02] IF !(ExtData[1]->WorkLocal[8] == 12*) GOTO 0x0EA3
111: 0x0E99 [0x2B] Unnamed NPC (ID: 17772835/0x010F3123) [14852*]:
    → "Spare us the dramatics and get on with it, would you?"
112: 0x0EA0 [0x01] GOTO 0x0EA3

SUBROUTINE_0EA3:
113: 0x0EA3 [0x1C] WAIT(120* ticks)
114: 0x0EA6 [0x23] WAIT_FOR_DIALOG_INTERACTION
115: 0x0EA7 [0x52] END_LOAD_SCHEDULER: End scheduler "etss" with entities [LocalPlayer, LocalPlayer], work=562*
116: 0x0EB6 [0x52] END_LOAD_SCHEDULER: End scheduler "etmm" with entities [LocalPlayer, LocalPlayer], work=562*
117: 0x0EC5 [0x52] END_LOAD_SCHEDULER: End scheduler "etll" with entities [LocalPlayer, LocalPlayer], work=562*
118: 0x0ED4 [0x45] LOAD_SCHEDULED_TASK: Load scheduler "et01" with entities [LocalPlayer, LocalPlayer], work=[562*, 0*]
119: 0x0EE5 [0x2B] Magian Moogle (ID: 17772778/0x010F30EA) [14853*]:
    → "Your eagerness is admirable, but let it not turn to impatience, lest it doom you to downfall..."
120: 0x0EEC [0x23] WAIT_FOR_DIALOG_INTERACTION
121: 0x0EED [0x52] END_LOAD_SCHEDULER: End scheduler "et01" with entities [LocalPlayer, LocalPlayer], work=562*
122: 0x0EFC [0x45] LOAD_SCHEDULED_TASK: Load scheduler "et02" with entities [LocalPlayer, LocalPlayer], work=[562*, 0*]
123: 0x0F0D [0x5B] LOAD_EXT_SCHEDULER: Load scheduler "pas0" with entities [Magian Moogle (ID: 17772778/0x010F30EA), Magian Moogle (ID: 17772778/0x010F30EA)], work=2755*
124: 0x0F1C [0x1C] WAIT(30* ticks)
125: 0x0F1F [0x2B] Magian Moogle (ID: 17772778/0x010F30EA) [14831*]:
    → "At any rate, hand this over to Brother Blue to commence your challenge. Now take your leave of me, kupo."
126: 0x0F26 [0x1C] WAIT(30* ticks)
127: 0x0F29 [0x6E] Unnamed NPC (ID: 17772835/0x010F3123) uses emote 7*
128: 0x0F30 [0x99] Wait for Unnamed NPC (ID: 17772835/0x010F3123) animation to complete
129: 0x0F35 [0x23] WAIT_FOR_DIALOG_INTERACTION
130: 0x0F36 [0x1A] CALL_SUBROUTINE(address=0x195A)
131: 0x0F39 [0x1C] WAIT(30* ticks)
132: 0x0F3C [0x52] END_LOAD_SCHEDULER: End scheduler "et02" with entities [LocalPlayer, LocalPlayer], work=562*
133: 0x0F4B [0x45] LOAD_SCHEDULED_TASK: Load scheduler "0blf" with entities [LocalPlayer, LocalPlayer], work=[562*, 0*]
134: 0x0F5C [0x5C] MUSIC_CONTROL: Set Idle (Day) music to song 117*
135: 0x0F60 [0x5C] MUSIC_CONTROL: Set Idle (Night) music to song 117*
136: 0x0F64 [0x9A] WAIT_MUSIC_SERVER()
137: 0x0F65 [0x46] CAMERA_CONTROL: Restore default settings
138: 0x0F67 [0x45] LOAD_SCHEDULED_TASK: Load scheduler "fdi2" with entities [LocalPlayer, LocalPlayer], work=[200*, 0*]
139: 0x0F78 [0x21] END_EVENT
140: 0x0F79 [0x00] END_REQSTACK()
```

### Event 10166

#### Metadata

| Field        | Value     |
|--------------|-----------|
| Entrypoint   | 0x0F7A    |
| Data Size    | 913 bytes |
| Instructions | 141       |

```
      00 01 02 03 04 05 06 07  08 09 0A 0B 0C 0D 0E 0F
      -- -- -- -- -- -- -- --  -- -- -- -- -- -- -- --
0F70:                                42 1A 5A 19 46 01            B.Z.F.
0F80: 38 00 80 27 10 23 31 0F  01 15 92 01 EA 30 0F 01  8..'.#1......0..
0F90: 92 01 F0 30 0F 01 92 01  EE 30 0F 01 92 01 16 30  ...0.....0.....0
0FA0: 0F 01 92 01 31 30 0F 01  92 01 75 30 0F 01 94 01  ....10....u0....
0FB0: F0 FF FF 7F 94 01 EA 30  0F 01 94 01 23 31 0F 01  .......0....#1..
0FC0: BA F0 FF FF 7F 69 80 6A  80 03 80 6B 80 BA 23 31  .....i.j...k..#1
0FD0: 0F 01 6C 80 6D 80 03 80  6E 80 29 0A 23 31 0F 01  ..l.m...n.).#1..
0FE0: 01 80 23 31 0F 01 80 F0  FF FF 7F 80 EA 30 0F 01  ..#1.........0..
0FF0: 4A F0 FF FF 7F EA 30 0F  01 79 00 23 31 0F 01 EA  J.....0..y.#1...
1000: 30 0F 01 1C 0A 80 45 0B  80 F0 FF FF 7F F0 FF FF  0.....E.........
1010: 7F 65 74 30 30 08 80 1A  39 19 1A D3 2F 1A DD 2F  .et00...9.../../
1020: 03 02 10 01 00 02 0B 00  08 80 80 38 10 2B EA 30  ...........8.+.0
1030: 0F 01 6F 80 23 01 BD 10  02 0B 00 09 80 80 4B 10  ..o.#.........K.
1040: 2B EA 30 0F 01 70 80 23  01 BD 10 02 0B 00 13 80  +.0..p.#........
1050: 80 5E 10 2B EA 30 0F 01  71 80 23 01 BD 10 02 0B  .^.+.0..q.#.....
1060: 00 15 80 80 71 10 2B EA  30 0F 01 72 80 23 01 BD  ....q.+.0..r.#..
1070: 10 02 0B 00 17 80 80 84  10 2B EA 30 0F 01 73 80  .........+.0..s.
1080: 23 01 BD 10 02 0B 00 19  80 80 97 10 2B EA 30 0F  #...........+.0.
1090: 01 74 80 23 01 BD 10 02  0B 00 1B 80 80 AA 10 2B  .t.#...........+
10A0: EA 30 0F 01 75 80 23 01  BD 10 02 0B 00 1D 80 80  .0..u.#.........
10B0: BD 10 2B EA 30 0F 01 76  80 23 01 BD 10 52 0B 80  ..+.0..v.#...R..
10C0: F0 FF FF 7F F0 FF FF 7F  65 74 30 30 02 0B 00 13  ........et00....
10D0: 80 80 E8 10 45 0B 80 F0  FF FF 7F F0 FF FF 7F 65  ....E..........e
10E0: 74 6C 6C 08 80 01 4D 11  02 0B 00 17 80 80 04 11  tll...M.........
10F0: 45 0B 80 F0 FF FF 7F F0  FF FF 7F 65 74 73 73 08  E..........etss.
1100: 80 01 4D 11 02 0B 00 19  80 80 20 11 45 0B 80 F0  ..M....... .E...
1110: FF FF 7F F0 FF FF 7F 65  74 73 73 08 80 01 4D 11  .......etss...M.
1120: 02 0B 00 1D 80 80 3C 11  45 0B 80 F0 FF FF 7F F0  ......<.E.......
1130: FF FF 7F 65 74 6C 6C 08  80 01 4D 11 45 0B 80 F0  ...etll...M.E...
1140: FF FF 7F F0 FF FF 7F 65  74 6D 6D 08 80 6E 23 31  .......etmm..n#1
1150: 0F 01 77 80 99 23 31 0F  01 1A BE 30 02 08 00 09  ..w..#1....0....
1160: 80 80 6E 11 2B 23 31 0F  01 78 80 01 34 12 02 08  ..n.+#1..x..4...
1170: 00 13 80 80 80 11 2B 23  31 0F 01 79 80 01 34 12  ......+#1..y..4.
1180: 02 08 00 15 80 80 92 11  2B 23 31 0F 01 7A 80 01  ........+#1..z..
1190: 34 12 02 08 00 17 80 80  A4 11 2B 23 31 0F 01 7B  4.........+#1..{
11A0: 80 01 34 12 02 08 00 19  80 80 B6 11 2B 23 31 0F  ..4.........+#1.
11B0: 01 7C 80 01 34 12 02 08  00 1B 80 80 C8 11 2B 23  .|..4.........+#
11C0: 31 0F 01 7D 80 01 34 12  02 08 00 1D 80 80 DA 11  1..}..4.........
11D0: 2B 23 31 0F 01 7E 80 01  34 12 02 08 00 1F 80 80  +#1..~..4.......
11E0: EC 11 2B 23 31 0F 01 7F  80 01 34 12 02 08 00 21  ..+#1.....4....!
11F0: 80 80 FE 11 2B 23 31 0F  01 80 80 01 34 12 02 08  ....+#1.....4...
1200: 00 23 80 80 10 12 2B 23  31 0F 01 81 80 01 34 12  .#....+#1.....4.
1210: 02 08 00 25 80 80 22 12  2B 23 31 0F 01 82 80 01  ...%..".+#1.....
1220: 34 12 02 08 00 27 80 80  34 12 2B 23 31 0F 01 83  4....'..4.+#1...
1230: 80 01 34 12 1C 55 80 23  52 0B 80 F0 FF FF 7F F0  ..4..U.#R.......
1240: FF FF 7F 65 74 73 73 52  0B 80 F0 FF FF 7F F0 FF  ...etssR........
1250: FF 7F 65 74 6D 6D 52 0B  80 F0 FF FF 7F F0 FF FF  ..etmmR.........
1260: 7F 65 74 6C 6C 45 0B 80  F0 FF FF 7F F0 FF FF 7F  .etllE..........
1270: 65 74 30 31 08 80 2B EA  30 0F 01 84 80 23 52 0B  et01..+.0....#R.
1280: 80 F0 FF FF 7F F0 FF FF  7F 65 74 30 31 45 0B 80  .........et01E..
1290: F0 FF FF 7F F0 FF FF 7F  65 74 30 32 08 80 5B 65  ........et02..[e
12A0: 80 EA 30 0F 01 EA 30 0F  01 70 61 73 30 1C 0A 80  ..0...0..pas0...
12B0: 2B EA 30 0F 01 66 80 1C  0A 80 6E 23 31 0F 01 1D  +.0..f....n#1...
12C0: 80 99 23 31 0F 01 23 1A  5A 19 1C 0A 80 52 0B 80  ..#1..#.Z....R..
12D0: F0 FF FF 7F F0 FF FF 7F  65 74 30 32 45 0B 80 F0  ........et02E...
12E0: FF FF 7F F0 FF FF 7F 30  62 6C 66 08 80 5C 00 67  .......0blf..\.g
12F0: 80 5C 01 67 80 9A 46 00  45 68 80 F0 FF FF 7F F0  .\.g..F.Eh......
1300: FF FF 7F 66 64 69 32 08  80 21 00                 ...fdi2..!.     
```

#### Opcodes

```
  0: 0x0F7A [0x42] SET_CLI_EVENT_CANCEL_DATA()
  1: 0x0F7B [0x1A] CALL_SUBROUTINE(address=0x195A)
  2: 0x0F7E [0x46] CAMERA_CONTROL: Disable user control
  3: 0x0F80 [0x38] SET_CLIENT_EVENT_MODE(mode=19*)
  4: 0x0F83 [0x27] REQ_SET(priority=0x10, entity_id=Unnamed NPC (ID: 17772835/0x010F3123), tag_num=0x15)
  5: 0x0F8A [0x92] Magian Moogle (ID: 17772778/0x010F30EA)->Render.Flags3 ^= 0x01
  6: 0x0F90 [0x92] Magian Moogle (ID: 17772784/0x010F30F0)->Render.Flags3 ^= 0x01
  7: 0x0F96 [0x92] Magian Moogle (ID: 17772782/0x010F30EE)->Render.Flags3 ^= 0x01
  8: 0x0F9C [0x92] Baran (ID: 17772566/0x010F3016)->Render.Flags3 ^= 0x01
  9: 0x0FA2 [0x92] Maat (ID: 17772593/0x010F3031)->Render.Flags3 ^= 0x01
 10: 0x0FA8 [0x92] Nomad Moogle (ID: 17772661/0x010F3075)->Render.Flags3 ^= 0x01
 11: 0x0FAE [0x94] LocalPlayer->Render.Flags3 ^= 0x01
 12: 0x0FB4 [0x94] Magian Moogle (ID: 17772778/0x010F30EA)->Render.Flags3 ^= 0x01
 13: 0x0FBA [0x94] Unnamed NPC (ID: 17772835/0x010F3123)->Render.Flags3 ^= 0x01
 14: 0x0FC0 [0xBA] SET_ENTITY_POSITION(entity_id=LocalPlayer, pos_x=-10.247*, pos_z=117.640*, pos_y=3.101*, direction=188.2°*)
 15: 0x0FCD [0xBA] SET_ENTITY_POSITION(entity_id=Unnamed NPC (ID: 17772835/0x010F3123), pos_x=-9.346*, pos_z=118.754*, pos_y=3.101*, direction=167.4°*)
 16: 0x0FDA [0x29] REQ_SET_WAIT(priority=0x0A, entity_id=Unnamed NPC (ID: 17772835/0x010F3123), tag_num=0x01)
 17: 0x0FE1 [0x80] LOAD_WAIT(entity=Unnamed NPC (ID: 17772835/0x010F3123))
 18: 0x0FE6 [0x80] LOAD_WAIT(entity=LocalPlayer)
 19: 0x0FEB [0x80] LOAD_WAIT(entity=Magian Moogle (ID: 17772778/0x010F30EA))
 20: 0x0FF0 [0x4A] LocalPlayer looks at Magian Moogle (ID: 17772778/0x010F30EA)
 21: 0x0FF9 [0x79] Unnamed NPC (ID: 17772835/0x010F3123) looks at Magian Moogle (ID: 17772778/0x010F30EA) (Basic look)
 22: 0x1003 [0x1C] WAIT(30* ticks)
 23: 0x1006 [0x45] LOAD_SCHEDULED_TASK: Load scheduler "et00" with entities [LocalPlayer, LocalPlayer], work=[562*, 0*]
 24: 0x1017 [0x1A] CALL_SUBROUTINE(address=0x1939)
 25: 0x101A [0x1A] CALL_SUBROUTINE(address=0x2FD3)
 26: 0x101D [0x1A] CALL_SUBROUTINE(address=0x2FDD)
 27: 0x1020 [0x03] Work_Zone[2] = ExtData[1]->WorkLocal[1]
 28: 0x1025 [0x02] IF !(ExtData[1]->WorkLocal[11] == 0*) GOTO 0x1038
 29: 0x102D [0x2B] Magian Moogle (ID: 17772778/0x010F30EA) [14833*]:
    → "<Player> and [Feliz/Ferdinand/Gunnar/Massimo/Oldrich/Siegward/Theobald/Zenji], was it? You have done well to return. The time for your next trial is at hand, kupo."
 30: 0x1034 [0x23] WAIT_FOR_DIALOG_INTERACTION
 31: 0x1035 [0x01] GOTO 0x10BD
 32: 0x1038 [0x02] IF !(ExtData[1]->WorkLocal[11] == 1*) GOTO 0x104B
 33: 0x1040 [0x2B] Magian Moogle (ID: 17772778/0x010F30EA) [14834*]:
    → "<Player> and [Amerita/Beatrice/Henrietta/Jesimae/Karyn/Nanako/Sharlene/Sieghilde], was it? You have done well to return. The time for your next trial is at hand, kupo."
 34: 0x1047 [0x23] WAIT_FOR_DIALOG_INTERACTION
 35: 0x1048 [0x01] GOTO 0x10BD
 36: 0x104B [0x02] IF !(ExtData[1]->WorkLocal[11] == 2*) GOTO 0x105E
 37: 0x1053 [0x2B] Magian Moogle (ID: 17772778/0x010F30EA) [14835*]:
    → "<Player> and [Chanandit/Deulmaeux/Demresinaux/Ephealgaux/Gauldeval/Grauffemart/Migaifongut/Romidiant], was it? You have done well to return. The time for your next trial is at hand, kupo."
 38: 0x105A [0x23] WAIT_FOR_DIALOG_INTERACTION
 39: 0x105B [0x01] GOTO 0x10BD
 40: 0x105E [0x02] IF !(ExtData[1]->WorkLocal[11] == 3*) GOTO 0x1071
 41: 0x1066 [0x2B] Magian Moogle (ID: 17772778/0x010F30EA) [14836*]:
    → "<Player> and [Armittie/Cadepure/Clearite/Epilleve/Liabelle/Nauthima/Radille/Vimechue], was it? You have done well to return. The time for your next trial is at hand, kupo."
 42: 0x106D [0x23] WAIT_FOR_DIALOG_INTERACTION
 43: 0x106E [0x01] GOTO 0x10BD
 44: 0x1071 [0x02] IF !(ExtData[1]->WorkLocal[11] == 4*) GOTO 0x1084
 45: 0x1079 [0x2B] Magian Moogle (ID: 17772778/0x010F30EA) [14837*]:
    → "<Player> and [Balu-Falu/Burg-Ladarg/Ehgo-Ryuhgo/Kolui-Pelui/Nokum-Akkum/Savul-Kivul/Vinja-Kanja/Yarga-Umiga], was it? You have done well to return. The time for your next trial is at hand, kupo."
 46: 0x1080 [0x23] WAIT_FOR_DIALOG_INTERACTION
 47: 0x1081 [0x01] GOTO 0x10BD
 48: 0x1084 [0x02] IF !(ExtData[1]->WorkLocal[11] == 5*) GOTO 0x1097
 49: 0x108C [0x2B] Magian Moogle (ID: 17772778/0x010F30EA) [14838*]:
    → "<Player> and [Cupapa/Jajuju/Kalokoko/Mahoyaya/Pakurara/Ripokeke/Yawawa/Yufafa], was it? You have done well to return. The time for your next trial is at hand, kupo."
 50: 0x1093 [0x23] WAIT_FOR_DIALOG_INTERACTION
 51: 0x1094 [0x01] GOTO 0x10BD
 52: 0x1097 [0x02] IF !(ExtData[1]->WorkLocal[11] == 6*) GOTO 0x10AA
 53: 0x109F [0x2B] Magian Moogle (ID: 17772778/0x010F30EA) [14839*]:
    → "<Player> and [Fhig Lahrv/Khuma Tagyawhan/Pimy Kettihl/Raka Maimhov/Sahyu Banjyao/Sufhi Uchnouma/Tsuim Nhomango/Yoli Kohlpaka], was it? You have done well to return. The time for your next trial is at hand, kupo."
 54: 0x10A6 [0x23] WAIT_FOR_DIALOG_INTERACTION
 55: 0x10A7 [0x01] GOTO 0x10BD
 56: 0x10AA [0x02] IF !(ExtData[1]->WorkLocal[11] == 7*) GOTO 0x10BD
 57: 0x10B2 [0x2B] Magian Moogle (ID: 17772778/0x010F30EA) [14840*]:
    → "<Player> and [Durib/Dzapiwa/Jugowa/Mugido/Voldai/Wagwei/Zayag/Zoldof], was it? You have done well to return. The time for your next trial is at hand, kupo."
 58: 0x10B9 [0x23] WAIT_FOR_DIALOG_INTERACTION
 59: 0x10BA [0x01] GOTO 0x10BD

SUBROUTINE_10BD:
 60: 0x10BD [0x52] END_LOAD_SCHEDULER: End scheduler "et00" with entities [LocalPlayer, LocalPlayer], work=562*
 61: 0x10CC [0x02] IF !(ExtData[1]->WorkLocal[11] == 2*) GOTO 0x10E8
 62: 0x10D4 [0x45] LOAD_SCHEDULED_TASK: Load scheduler "etll" with entities [LocalPlayer, LocalPlayer], work=[562*, 0*]
 63: 0x10E5 [0x01] GOTO 0x114D
 64: 0x10E8 [0x02] IF !(ExtData[1]->WorkLocal[11] == 4*) GOTO 0x1104
 65: 0x10F0 [0x45] LOAD_SCHEDULED_TASK: Load scheduler "etss" with entities [LocalPlayer, LocalPlayer], work=[562*, 0*]
 66: 0x1101 [0x01] GOTO 0x114D
 67: 0x1104 [0x02] IF !(ExtData[1]->WorkLocal[11] == 5*) GOTO 0x1120
 68: 0x110C [0x45] LOAD_SCHEDULED_TASK: Load scheduler "etss" with entities [LocalPlayer, LocalPlayer], work=[562*, 0*]
 69: 0x111D [0x01] GOTO 0x114D
 70: 0x1120 [0x02] IF !(ExtData[1]->WorkLocal[11] == 7*) GOTO 0x113C
 71: 0x1128 [0x45] LOAD_SCHEDULED_TASK: Load scheduler "etll" with entities [LocalPlayer, LocalPlayer], work=[562*, 0*]
 72: 0x1139 [0x01] GOTO 0x114D
 73: 0x113C [0x45] LOAD_SCHEDULED_TASK: Load scheduler "etmm" with entities [LocalPlayer, LocalPlayer], work=[562*, 0*]

SUBROUTINE_114D:
 74: 0x114D [0x6E] Unnamed NPC (ID: 17772835/0x010F3123) uses emote 36*
 75: 0x1154 [0x99] Wait for Unnamed NPC (ID: 17772835/0x010F3123) animation to complete
 76: 0x1159 [0x1A] CALL_SUBROUTINE(address=0x30BE)
 77: 0x115C [0x02] IF !(ExtData[1]->WorkLocal[8] == 1*) GOTO 0x116E
 78: 0x1164 [0x2B] Unnamed NPC (ID: 17772835/0x010F3123) [14841*]:
    → "It's about time."
 79: 0x116B [0x01] GOTO 0x1234
 80: 0x116E [0x02] IF !(ExtData[1]->WorkLocal[8] == 2*) GOTO 0x1180
 81: 0x1176 [0x2B] Unnamed NPC (ID: 17772835/0x010F3123) [14842*]:
    → "Bring it on!"
 82: 0x117D [0x01] GOTO 0x1234
 83: 0x1180 [0x02] IF !(ExtData[1]->WorkLocal[8] == 3*) GOTO 0x1192
 84: 0x1188 [0x2B] Unnamed NPC (ID: 17772835/0x010F3123) [14844*]:
    → "Let's hear what you have in store for us this time."
 85: 0x118F [0x01] GOTO 0x1234
 86: 0x1192 [0x02] IF !(ExtData[1]->WorkLocal[8] == 4*) GOTO 0x11A4
 87: 0x119A [0x2B] Unnamed NPC (ID: 17772835/0x010F3123) [14843*]:
    → "...I am ready."
 88: 0x11A1 [0x01] GOTO 0x1234
 89: 0x11A4 [0x02] IF !(ExtData[1]->WorkLocal[8] == 5*) GOTO 0x11B6
 90: 0x11AC [0x2B] Unnamed NPC (ID: 17772835/0x010F3123) [14847*]:
    → "Why, I thought I'd die of waiting!"
 91: 0x11B3 [0x01] GOTO 0x1234
 92: 0x11B6 [0x02] IF !(ExtData[1]->WorkLocal[8] == 6*) GOTO 0x11C8
 93: 0x11BE [0x2B] Unnamed NPC (ID: 17772835/0x010F3123) [14848*]:
    → "You hear that, <Player>? Let's go!"
 94: 0x11C5 [0x01] GOTO 0x1234
 95: 0x11C8 [0x02] IF !(ExtData[1]->WorkLocal[8] == 7*) GOTO 0x11DA
 96: 0x11D0 [0x2B] Unnamed NPC (ID: 17772835/0x010F3123) [14849*]:
    → "I wonder what challenges await us this time."
 97: 0x11D7 [0x01] GOTO 0x1234
 98: 0x11DA [0x02] IF !(ExtData[1]->WorkLocal[8] == 8*) GOTO 0x11EC
 99: 0x11E2 [0x2B] Unnamed NPC (ID: 17772835/0x010F3123) [14850*]:
    → "Ooh, ooh! What's on the menu this time, Mister Moogle?"
100: 0x11E9 [0x01] GOTO 0x1234
101: 0x11EC [0x02] IF !(ExtData[1]->WorkLocal[8] == 9*) GOTO 0x11FE
102: 0x11F4 [0x2B] Unnamed NPC (ID: 17772835/0x010F3123) [14851*]:
    → "I am ready for whatever comes my way!"
103: 0x11FB [0x01] GOTO 0x1234
104: 0x11FE [0x02] IF !(ExtData[1]->WorkLocal[8] == 10*) GOTO 0x1210
105: 0x1206 [0x2B] Unnamed NPC (ID: 17772835/0x010F3123) [14845*]:
    → "Woo boy! My heart won't stop pounding."
106: 0x120D [0x01] GOTO 0x1234
107: 0x1210 [0x02] IF !(ExtData[1]->WorkLocal[8] == 11*) GOTO 0x1222
