# 17772607 - Cornelia

## Common Data

| Field            | Value                     |
|------------------|---------------------------|
| Zone             | Ru'Lude Gardens (ID: 243) |
| Block Size       | 248 bytes                 |
| Total Events     | 6                         |
| References Count | 26                        |

## List of Events

| Event ID                 | Entrypoint   |   Size |   Instructions |
|--------------------------|--------------|--------|----------------|
| [65535](#event-65535)    | 0x0000       |      1 |              1 |
| [10009](#event-10009)    | 0x0001       |     12 |              3 |
| [65535.1](#event-655351) | 0x000D       |     20 |              6 |
| [65535.2](#event-655352) | 0x0021       |     27 |              7 |
| [65535.3](#event-655353) | 0x003C       |     12 |              3 |
| [65535.4](#event-655354) | 0x0048       |     31 |              4 |

## DAT References (imed_data)

|   Index | Hex Value   |   Dec Value |
|---------|-------------|-------------|
|       0 | 0x64200     |      410112 |
|       1 | 0x18497     |       99479 |
|       2 | 0x5E7B      |       24187 |
|       3 | 0x01EB      |         491 |
|       4 | 0x648F9     |      411897 |
|       5 | 0x18FD1     |      102353 |
|       6 | 0x5E6D      |       24173 |
|       7 | 0x0417      |        1047 |
|       8 | 0x0078      |         120 |
|       9 | 0x0028      |          40 |
|      10 | 0x63A0F     |      408079 |
|      11 | 0x1855C     |       99676 |
|      12 | 0x5E16      |       24086 |
|      13 | 0x000D      |          13 |
|      14 | 0x60A1B     |      395803 |
|      15 | 0x18A42     |      100930 |
|      16 | 0x5FF5      |       24565 |
|      17 | 0xFFFB28B6  |  4294650038 |
|      18 | 0x4AC9      |       19145 |
|      19 | 0xFFFF965D  |  4294940253 |
|      20 | 0x037C      |         892 |
|      21 | 0xFFFB29A2  |  4294650274 |
|      22 | 0x41A0      |       16800 |
|      23 | 0xFFFF95E8  |  4294940136 |
|      24 | 0x0E74      |        3700 |
|      25 | 0x000C      |          12 |

## Events

### Event 65535

#### Metadata

| Field        | Value   |
|--------------|---------|
| Entrypoint   | 0x0000  |
| Data Size    | 1 bytes |
| Instructions | 1       |

```
      00 01 02 03 04 05 06 07  08 09 0A 0B 0C 0D 0E 0F
      -- -- -- -- -- -- -- --  -- -- -- -- -- -- -- --
0000: 00                                                .               
```

#### Opcodes

```
  0: 0x0000 [0x00] END_REQSTACK()
```

### Event 10009

#### Metadata

| Field        | Value    |
|--------------|----------|
| Entrypoint   | 0x0001   |
| Data Size    | 12 bytes |
| Instructions | 3        |

```
      00 01 02 03 04 05 06 07  08 09 0A 0B 0C 0D 0E 0F
      -- -- -- -- -- -- -- --  -- -- -- -- -- -- -- --
0000:    22 01 37 00 80 01 80  02 80 03 80 00            ".7.........   
```

#### Opcodes

```
  0: 0x0001 [0x22] ENTITY_HIDE_FLAG(enabled=0x01)
  1: 0x0003 [0x37] UPDATE_EVENT_POSITION_AND_DIR: x=410.112*, z=99.479*, y=24.187*, direction=43.2째*
  2: 0x000C [0x00] END_REQSTACK()
```

### Event 65535.1

#### Metadata

| Field        | Value    |
|--------------|----------|
| Entrypoint   | 0x000D   |
| Data Size    | 20 bytes |
| Instructions | 6        |

```
      00 01 02 03 04 05 06 07  08 09 0A 0B 0C 0D 0E 0F
      -- -- -- -- -- -- -- --  -- -- -- -- -- -- -- --
0000:                                         37 04 80               7..
0010: 05 80 06 80 07 80 1C 08  80 1E 3E 30 0F 01 6F 70  ..........>0..op
0020: 00                                                .               
```

#### Opcodes

```
  0: 0x000D [0x37] UPDATE_EVENT_POSITION_AND_DIR: x=411.897*, z=102.353*, y=24.173*, direction=92.0째*
  1: 0x0016 [0x1C] WAIT(120* ticks)
  2: 0x0019 [0x1E] EventEntity looks at Raogrimm (ID: 17772606/0x010F303E) and starts talking
  3: 0x001E [0x6F] WAIT_FRAME_DELAY: Yield until WaitTime reaches zero
  4: 0x001F [0x70] WAIT_ENTITY_RENDER_FLAG: Wait while EventEntity->Render.Flags3 bit 2 is set (cancel turn if not)
  5: 0x0020 [0x00] END_REQSTACK()
```

### Event 65535.2

#### Metadata

| Field        | Value    |
|--------------|----------|
| Entrypoint   | 0x0021   |
| Data Size    | 27 bytes |
| Instructions | 7        |

```
      00 01 02 03 04 05 06 07  08 09 0A 0B 0C 0D 0E 0F
      -- -- -- -- -- -- -- --  -- -- -- -- -- -- -- --
0020:    32 09 80 1F 00 0A 80  0B 80 0C 80 1F 01 32 0D   2............2.
0030: 80 1F 00 0E 80 0F 80 10  80 1F 01 00              ............    
```

#### Opcodes

```
  0: 0x0021 [0x32] ExtData[1]->MainSpeed = 40* * 0.1
  1: 0x0024 [0x1F] MOVE_ENTITY: EventEntity moves to X=408.079*, Z=99.676*, Y=24.086*
  2: 0x002C [0x1F] MOVE_ENTITY: Update entity position (mode=1)
  3: 0x002E [0x32] ExtData[1]->MainSpeed = 13* * 0.1
  4: 0x0031 [0x1F] MOVE_ENTITY: EventEntity moves to X=395.803*, Z=100.930*, Y=24.565*
  5: 0x0039 [0x1F] MOVE_ENTITY: Update entity position (mode=1)
  6: 0x003B [0x00] END_REQSTACK()
```

### Event 65535.3

#### Metadata

| Field        | Value    |
|--------------|----------|
| Entrypoint   | 0x003C   |
| Data Size    | 12 bytes |
| Instructions | 3        |

```
      00 01 02 03 04 05 06 07  08 09 0A 0B 0C 0D 0E 0F
      -- -- -- -- -- -- -- --  -- -- -- -- -- -- -- --
0030:                                      37 11 80 12              7...
0040: 80 13 80 14 80 22 01 00                           ....."..        
```

#### Opcodes

```
  0: 0x003C [0x37] UPDATE_EVENT_POSITION_AND_DIR: x=-317.258*, z=19.145*, y=-27.043*, direction=78.4째*
  1: 0x0045 [0x22] ENTITY_HIDE_FLAG(enabled=0x01)
  2: 0x0047 [0x00] END_REQSTACK()
```

### Event 65535.4

#### Metadata

| Field        | Value    |
|--------------|----------|
| Entrypoint   | 0x0048   |
| Data Size    | 31 bytes |
| Instructions | 4        |

```
      00 01 02 03 04 05 06 07  08 09 0A 0B 0C 0D 0E 0F
      -- -- -- -- -- -- -- --  -- -- -- -- -- -- -- --
0040:                          86 01 F8 FF FF 7F 37 15          ......7.
0050: 80 16 80 17 80 18 80 66  19 80 3F 30 0F 01 3F 30  .......f..?0..?0
0060: 0F 01 6B 6B 61 30 00                              ..kka0.         
```

#### Opcodes

```
  0: 0x0048 [0x86] EventEntity->Render.Flags3 ^= 0x01
  1: 0x004E [0x37] UPDATE_EVENT_POSITION_AND_DIR: x=-317.022*, z=16.800*, y=-27.160*, direction=325.2째*
  2: 0x0057 [0x66] LOAD_EXT_SCHEDULER_MAIN: Load scheduler "kka0" with entities [Cornelia (ID: 17772607/0x010F303F), Cornelia (ID: 17772607/0x010F303F)], work=12*
  3: 0x0066 [0x00] END_REQSTACK()
```
