# 17772843 - Anastase

## Common Data

| Field            | Value                     |
|------------------|---------------------------|
| Zone             | Ru'Lude Gardens (ID: 243) |
| Block Size       | 7676 bytes                |
| Total Events     | 22                        |
| References Count | 204                       |

## List of Events

| Event ID              | Entrypoint   |   Size |   Instructions |
|-----------------------|--------------|--------|----------------|
| [65535](#event-65535) | 0x0000       |      1 |              1 |
| [10213](#event-10213) | 0x0001       |    684 |            131 |
| [10214](#event-10214) | 0x02AD       |    549 |            111 |
| [10215](#event-10215) | 0x04D2       |    154 |             26 |
| [10216](#event-10216) | 0x056C       |    100 |             20 |
| [10217](#event-10217) | 0x05D0       |    234 |             50 |
| [10218](#event-10218) | 0x06BA       |    237 |             41 |
| [10219](#event-10219) | 0x07A7       |    154 |             26 |
| [10220](#event-10220) | 0x0841       |    100 |             20 |
| [10221](#event-10221) | 0x08A5       |    234 |             50 |
| [10222](#event-10222) | 0x098F       |    237 |             41 |
| [10223](#event-10223) | 0x0A7C       |    154 |             26 |
| [10224](#event-10224) | 0x0B16       |     74 |             14 |
| [10225](#event-10225) | 0x0B60       |    682 |            132 |
| [10227](#event-10227) | 0x0E0A       |    133 |             21 |
| [10228](#event-10228) | 0x0E8F       |    108 |             16 |
| [10229](#event-10229) | 0x0EFB       |   2758 |            511 |
| [10230](#event-10230) | 0x19C1       |     44 |             16 |
| [10231](#event-10231) | 0x19ED       |     36 |             12 |
| [10232](#event-10232) | 0x1A11       |     26 |              8 |
| [10234](#event-10234) | 0x1A2B       |     17 |              7 |
| [10233](#event-10233) | 0x1A3C       |     40 |             14 |

## DAT References (imed_data)

|   Index | Hex Value   |   Dec Value |
|---------|-------------|-------------|
|       0 | 0x0003      |           3 |
|       1 | 0x001D      |          29 |
|       2 | 0x3B3A      |       15162 |
|       3 | 0x3B3B      |       15163 |
|       4 | 0x0014      |          20 |
|       5 | 0x3B3C      |       15164 |
|       6 | 0x0000      |           0 |
|       7 | 0x3B3D      |       15165 |
|       8 | 0x0001      |           1 |
|       9 | 0x3B40      |       15168 |
|      10 | 0x3B41      |       15169 |
|      11 | 0x3B42      |       15170 |
|      12 | 0x3B43      |       15171 |
|      13 | 0x3B3E      |       15166 |
|      14 | 0x3B3F      |       15167 |
|      15 | 0x00B4      |         180 |
|      16 | 0x3B47      |       15175 |
|      17 | 0x3B44      |       15172 |
|      18 | 0x0002      |           2 |
|      19 | 0x0876      |        2166 |
|      20 | 0x3B5A      |       15194 |
|      21 | 0x3B5B      |       15195 |
|      22 | 0x3B5C      |       15196 |
|      23 | 0x3B45      |       15173 |
|      24 | 0x3B46      |       15174 |
|      25 | 0x3B48      |       15176 |
|      26 | 0x3B49      |       15177 |
|      27 | 0x3B4A      |       15178 |
|      28 | 0x0005      |           5 |
|      29 | 0x3B52      |       15186 |
|      30 | 0x3B53      |       15187 |
|      31 | 0x3B54      |       15188 |
|      32 | 0x0007      |           7 |
|      33 | 0x086B      |        2155 |
|      34 | 0x3B55      |       15189 |
|      35 | 0x3B56      |       15190 |
|      36 | 0x3B57      |       15191 |
|      37 | 0x3B4B      |       15179 |
|      38 | 0x3B4C      |       15180 |
|      39 | 0x3B4D      |       15181 |
|      40 | 0x3B4E      |       15182 |
|      41 | 0x3B4F      |       15183 |
|      42 | 0x3B50      |       15184 |
|      43 | 0x3B51      |       15185 |
|      44 | 0x3B58      |       15192 |
|      45 | 0x3B59      |       15193 |
|      46 | 0x3B84      |       15236 |
|      47 | 0x3B5E      |       15198 |
|      48 | 0x3B5D      |       15197 |
|      49 | 0x3B5F      |       15199 |
|      50 | 0x3B60      |       15200 |
|      51 | 0x3B61      |       15201 |
|      52 | 0x3B62      |       15202 |
|      53 | 0x3B63      |       15203 |
|      54 | 0x3B67      |       15207 |
|      55 | 0x3B64      |       15204 |
|      56 | 0x0004      |           4 |
|      57 | 0x3B65      |       15205 |
|      58 | 0x3B66      |       15206 |
|      59 | 0x3B75      |       15221 |
|      60 | 0x3B76      |       15222 |
|      61 | 0x3B77      |       15223 |
|      62 | 0x3B78      |       15224 |
|      63 | 0x3B79      |       15225 |
|      64 | 0x3B7A      |       15226 |
|      65 | 0x3B7B      |       15227 |
|      66 | 0x3B7C      |       15228 |
|      67 | 0x3B7D      |       15229 |
|      68 | 0x00C9      |         201 |
|      69 | 0x00C8      |         200 |
|      70 | 0x3B7E      |       15230 |
|      71 | 0x3B7F      |       15231 |
|      72 | 0x3B80      |       15232 |
|      73 | 0x3B81      |       15233 |
|      74 | 0x0078      |         120 |
|      75 | 0x3B82      |       15234 |
|      76 | 0x3B83      |       15235 |
|      77 | 0x3B85      |       15237 |
|      78 | 0x3B86      |       15238 |
|      79 | 0x3B87      |       15239 |
|      80 | 0x3B88      |       15240 |
|      81 | 0x3B90      |       15248 |
|      82 | 0x3B91      |       15249 |
|      83 | 0x3B92      |       15250 |
|      84 | 0x3B93      |       15251 |
|      85 | 0x3B94      |       15252 |
|      86 | 0x0019      |          25 |
|      87 | 0x3B95      |       15253 |
|      88 | 0x003C      |          60 |
|      89 | 0x3B96      |       15254 |
|      90 | 0x3B97      |       15255 |
|      91 | 0x3B98      |       15256 |
|      92 | 0x3B99      |       15257 |
|      93 | 0x3B9A      |       15258 |
|      94 | 0x000B      |          11 |
|      95 | 0x3B9B      |       15259 |
|      96 | 0x3B9C      |       15260 |
|      97 | 0x3B9D      |       15261 |
|      98 | 0x3B9E      |       15262 |
|      99 | 0x3B9F      |       15263 |
|     100 | 0x3BA0      |       15264 |
|     101 | 0x3BA1      |       15265 |
|     102 | 0x3BA2      |       15266 |
|     103 | 0x3BA3      |       15267 |
|     104 | 0x3BA4      |       15268 |
|     105 | 0x3BA5      |       15269 |
|     106 | 0x3BAC      |       15276 |
|     107 | 0x0015      |          21 |
|     108 | 0x3BAD      |       15277 |
|     109 | 0x3BAE      |       15278 |
|     110 | 0x3BAF      |       15279 |
|     111 | 0x3BB0      |       15280 |
|     112 | 0x3BB1      |       15281 |
|     113 | 0x3BB2      |       15282 |
|     114 | 0x000A      |          10 |
|     115 | 0x3BB3      |       15283 |
|     116 | 0x3BB4      |       15284 |
|     117 | 0x3BB5      |       15285 |
|     118 | 0x3BB6      |       15286 |
|     119 | 0x3BB7      |       15287 |
|     120 | 0x0008      |           8 |
|     121 | 0x3BB8      |       15288 |
|     122 | 0x3BB9      |       15289 |
|     123 | 0x3B8B      |       15243 |
|     124 | 0x3BBA      |       15290 |
|     125 | 0x3BBB      |       15291 |
|     126 | 0x3BBC      |       15292 |
|     127 | 0x3BBD      |       15293 |
|     128 | 0x3BC9      |       15305 |
|     129 | 0x3BCA      |       15306 |
|     130 | 0x3BCB      |       15307 |
|     131 | 0x3BCC      |       15308 |
|     132 | 0x0894      |        2196 |
|     133 | 0x3BCD      |       15309 |
|     134 | 0x3BCE      |       15310 |
|     135 | 0x3BBE      |       15294 |
|     136 | 0x3BBF      |       15295 |
|     137 | 0x3BC0      |       15296 |
|     138 | 0x3BC1      |       15297 |
|     139 | 0x3BC2      |       15298 |
|     140 | 0x3BC3      |       15299 |
|     141 | 0x3BC4      |       15300 |
|     142 | 0x3BC5      |       15301 |
|     143 | 0x3BC6      |       15302 |
|     144 | 0x3BC7      |       15303 |
|     145 | 0x3BC8      |       15304 |
|     146 | 0x3BD2      |       15314 |
|     147 | 0x3BDA      |       15322 |
|     148 | 0x3BDB      |       15323 |
|     149 | 0x3BDC      |       15324 |
|     150 | 0x3BDD      |       15325 |
|     151 | 0x3BD3      |       15315 |
|     152 | 0x3BD4      |       15316 |
|     153 | 0x3BD5      |       15317 |
|     154 | 0x3BD6      |       15318 |
|     155 | 0x3BD7      |       15319 |
|     156 | 0x3BD8      |       15320 |
|     157 | 0x3BD9      |       15321 |
|     158 | 0x3B68      |       15208 |
|     159 | 0x3B69      |       15209 |
|     160 | 0x3B6A      |       15210 |
|     161 | 0x3B6B      |       15211 |
|     162 | 0x3B6C      |       15212 |
|     163 | 0x3B6D      |       15213 |
|     164 | 0x001E      |          30 |
|     165 | 0x3B6E      |       15214 |
|     166 | 0x3B6F      |       15215 |
|     167 | 0x3B70      |       15216 |
|     168 | 0x3B71      |       15217 |
|     169 | 0x3B72      |       15218 |
|     170 | 0x3B73      |       15219 |
|     171 | 0x3B74      |       15220 |
|     172 | 0x3B89      |       15241 |
|     173 | 0x3B8F      |       15247 |
|     174 | 0x0006      |           6 |
|     175 | 0x0009      |           9 |
|     176 | 0x000C      |          12 |
|     177 | 0x3B8A      |       15242 |
|     178 | 0x3B8C      |       15244 |
|     179 | 0x3B8D      |       15245 |
|     180 | 0x3B8E      |       15246 |
|     181 | 0x3BA6      |       15270 |
|     182 | 0x3BAB      |       15275 |
|     183 | 0x3BA7      |       15271 |
|     184 | 0x3BA8      |       15272 |
|     185 | 0x3BA9      |       15273 |
|     186 | 0x3BAA      |       15274 |
|     187 | 0x3BCF      |       15311 |
|     188 | 0x008C      |         140 |
|     189 | 0x006E      |         110 |
|     190 | 0x3BD0      |       15312 |
|     191 | 0x3BD1      |       15313 |
|     192 | 0x005A      |          90 |
|     193 | 0x002D      |          45 |
|     194 | 0x00D7      |         215 |
|     195 | 0x3BDE      |       15326 |
|     196 | 0x3BDF      |       15327 |
|     197 | 0x094B      |        2379 |
|     198 | 0x3BE0      |       15328 |
|     199 | 0x3BE1      |       15329 |
|     200 | 0x3BE4      |       15332 |
|     201 | 0x3BE5      |       15333 |
|     202 | 0x3BE2      |       15330 |
|     203 | 0x3BE3      |       15331 |

## String References

- **15165**: Well? Are you? [Of course!/No...]
- **15172**: Lend your aid? [I shall./Not interested./Hear more.]
- **15198**: Any questions? [Tell me your prognostications./Tell me about these waypoints./Explain all this to me./None in particular.]
- **15199**: Which prognostication? [None, actually./How do I record these founts?/<Port>.[ /: Complete]/<Dwelling>.[ /: Complete]/<Spring>.[ /: Complete]/<Fort>.[ /: Complete]]
- **15237**: Any questions? [Let's expand these warp options./Any new predictions?/What about these waypoints?/What am I supposed to do again?/None in particular.]
- **15241**: Which spot are you interested in? [None./How do I record data?/<Green Light>.[ /: Complete]/<Clear Waters>.[ /: Complete]/<Crowned Tower>.[ /: Complete]/<Deep Cliffs>.[ /: Complete]/<Windmill>.[ /: Complete]/<Dust Cloud>.[ /: Complete]/<Lakeside>.[ /: Complete]/<Swamps>.[ /: Complete]/<Backbone>.[ /: Complete]/<Crags>.[ /: Complete]/<Silver>.[ /: Complete]]
- **15266**: Any questions? [Must have more warp destinations!/Any new founts?/What about these waypoints?/What do I do again?/Thanks, but no thanks.]
- **15270**: Which prediction would you like to hear? [None./How do I record the areas?/<Abandoned Village>.[ /: Complete]/<Malediction>.[ /: Complete]/<Faeries>.[ /: Complete]/<City Ruins>.[ /: Complete]/<Grotto>.[ /: Complete]/<Shrine>.[ /: Complete]/<Forest>.[ /: Complete]/<Urban Locale>.[ /: Complete]/<Belfry>.[ /: Complete]/<Darkness>.[ /: Complete]]
- **15288**: What would you like to know? [What about these waypoints?/I need more information./ /Can I give you a hand with...you know?/Thank you, and good day.]
- **15293**: Accept his task? [It couldn't hurt...much./On second thought.../Tell me more.]
- **15306**: Are you absolutely sure? [Adventure awaits!/You couldn't pay me enough.]
- **15311**: Just how tough do you want this to be? [On second thought.../Tough as butter./Tough as nails./Tough as diamond./I require further explanation.]
- **15326**: Why, <Player>! What a most pleasant surprise. How can I help you this fine... What's this? A present from my beloved Alienor?
- **15327**: What a thoughtful young lady she has grown up to be, making me such a delectable treat.
- **15328**: You wish to know more about how our research is going? Well, to be frank...I have not received word from [Jillia/Zurko-Bazurko/Quwi Orihbhe/Wistful Bison] of late.
- **15329**: I hesitate to ask this of you, since I am certain you have other pressing matters to attend to, but would you deliver some of this $3 to [Selbina/Mhaura/Rabao/Norg] for me?
- **15330**: The enchanting smell of brine upon the wind... A tantalizing dish from a devoted granddaughter... What more is there to life?
- **15331**: There is always a snag somewhere with complicated operations such as the one we are engaged in here. This time, I have not received word from [Jillia/Zurko-Bazurko/Quwi Orihbhe/Wistful Bison].
- **15332**: Thank you for checking up on [Jillia/Zurko-Bazurko/Quwi Orihbhe/Wistful Bison]. I am relieved to hear that all is well.
- **15333**: Please tell Alienor that I am grateful for her gift and that the people here in Jeuno are treating me with the utmost kindness.

## Events

### Event 65535

#### Metadata

| Field        | Value   |
|--------------|---------|
| Entrypoint   | 0x0000  |
| Data Size    | 1 bytes |
| Instructions | 1       |

```
      00 01 02 03 04 05 06 07  08 09 0A 0B 0C 0D 0E 0F
      -- -- -- -- -- -- -- --  -- -- -- -- -- -- -- --
0000: 00                                                .               
```

#### Opcodes

```
  0: 0x0000 [0x00] END_REQSTACK()
```

### Event 10213

#### Metadata

| Field        | Value     |
|--------------|-----------|
| Entrypoint   | 0x0001    |
| Data Size    | 684 bytes |
| Instructions | 89        |

```
      00 01 02 03 04 05 06 07  08 09 0A 0B 0C 0D 0E 0F
      -- -- -- -- -- -- -- --  -- -- -- -- -- -- -- --
0000:    03 01 00 09 10 02 08  10 00 80 00 14 00 01 E6   ...............
0010: 00 01 E6 00 4A F0 FF FF  7F 2B 31 0F 01 66 01 80  ....J....+1..f..
0020: 2B 31 0F 01 2B 31 0F 01  74 68 6B 31 2B 2B 31 0F  +1..+1..thk1++1.
0030: 01 02 80 23 2B 2B 31 0F  01 03 80 23 1C 04 80 66  ...#++1....#...f
0040: 01 80 2B 31 0F 01 2B 31  0F 01 74 68 6B 32 1E F0  ..+1..+1..thk2..
0050: FF FF 7F 2B 2B 31 0F 01  05 80 23 03 01 10 06 80  ...++1....#.....
0060: 24 07 80 06 80 06 80 25  02 00 10 06 80 00 BA 00  $......%........
0070: 42 03 01 10 08 80 66 01  80 2B 31 0F 01 2B 31 0F  B.....f..+1..+1.
0080: 01 74 77 61 30 2B 2B 31  0F 01 09 80 23 2B 2B 31  .twa0++1....#++1
0090: 0F 01 0A 80 23 66 01 80  2B 31 0F 01 2B 31 0F 01  ....#f..+1..+1..
00A0: 74 77 61 31 2B 2B 31 0F  01 0B 80 23 2B 2B 31 0F  twa1++1....#++1.
00B0: 01 0C 80 23 01 FF 00 01  E6 00 02 00 10 08 80 00  ...#............
00C0: E6 00 2B 2B 31 0F 01 0D  80 23 6E 2B 31 0F 01 08  ..++1....#n+1...
00D0: 80 99 2B 31 0F 01 2B 2B  31 0F 01 0E 80 1C 0F 80  ..+1..++1.......
00E0: 23 21 00 01 E6 00 4A F0  FF FF 7F 2B 31 0F 01 1C  #!....J....+1...
00F0: 04 80 1E F0 FF FF 7F 2B  2B 31 0F 01 10 80 23 03  .......++1....#.
0100: 01 10 06 80 24 11 80 06  80 06 80 25 02 00 10 06  ....$......%....
0110: 80 00 58 01 42 03 01 10  12 80 66 01 80 2B 31 0F  ..X.B.....f..+1.
0120: 01 2B 31 0F 01 74 77 61  30 03 02 10 13 80 2B 2B  .+1..twa0.....++
0130: 31 0F 01 14 80 23 2B 2B  31 0F 01 15 80 23 66 01  1....#++1....#f.
0140: 80 2B 31 0F 01 2B 31 0F  01 74 77 61 31 2B 2B 31  .+1..+1..twa1++1
0150: 0F 01 16 80 23 01 AB 02  02 00 10 08 80 00 79 01  ....#.........y.
0160: 42 03 01 10 08 80 2B 2B  31 0F 01 17 80 23 2B 2B  B.....++1....#++
0170: 31 0F 01 18 80 23 01 AB  02 02 00 10 12 80 00 AB  1....#..........
0180: 02 2B 2B 31 0F 01 19 80  23 2B 2B 31 0F 01 1A 80  .++1....#++1....
0190: 23 66 01 80 2B 31 0F 01  2B 31 0F 01 74 6C 6B 30  #f..+1..+1..tlk0
01A0: 2B 2B 31 0F 01 1B 80 23  02 01 00 1C 80 00 26 02  ++1....#......&.
01B0: 2B 2B 31 0F 01 1D 80 23  2B 2B 31 0F 01 1E 80 23  ++1....#++1....#
01C0: 66 01 80 2B 31 0F 01 2B  31 0F 01 74 6C 6B 31 03  f..+1..+1..tlk1.
01D0: 02 10 13 80 2B 2B 31 0F  01 1F 80 23 6E 2B 31 0F  ....++1....#n+1.
01E0: 01 20 80 99 2B 31 0F 01  66 01 80 2B 31 0F 01 2B  . ..+1..f..+1..+
01F0: 31 0F 01 74 77 62 30 03  02 10 21 80 2B 2B 31 0F  1..twb0...!.++1.
0200: 01 22 80 23 03 02 10 13  80 03 03 10 21 80 2B 2B  .".#........!.++
0210: 31 0F 01 23 80 23 03 02  10 13 80 2B 2B 31 0F 01  1..#.#.....++1..
0220: 24 80 23 01 86 02 2B 2B  31 0F 01 25 80 23 66 01  $.#...++1..%.#f.
0230: 80 2B 31 0F 01 2B 31 0F  01 74 6C 6B 31 2B 2B 31  .+1..+1..tlk1++1
0240: 0F 01 26 80 23 2B 2B 31  0F 01 27 80 23 66 01 80  ..&.#++1..'.#f..
0250: 2B 31 0F 01 2B 31 0F 01  74 77 62 30 2B 2B 31 0F  +1..+1..twb0++1.
0260: 01 28 80 23 2B 2B 31 0F  01 29 80 23 03 02 10 21  .(.#++1..).#...!
0270: 80 2B 2B 31 0F 01 2A 80  23 03 02 10 13 80 2B 2B  .++1..*.#.....++
0280: 31 0F 01 2B 80 23 66 01  80 2B 31 0F 01 2B 31 0F  1..+.#f..+1..+1.
0290: 01 74 77 62 31 2B 2B 31  0F 01 2C 80 23 2B 2B 31  .twb1++1..,.#++1
02A0: 0F 01 2D 80 23 01 FF 00  01 AB 02 21 00           ..-.#......!.   
```

#### Opcodes

```
  0: 0x0001 [0x03] ExtData[1]->WorkLocal[1] = Work_Zone[9]
  1: 0x0006 [0x02] IF !(Work_Zone[8] == 3*) GOTO 0x0014
  2: 0x000E [0x01] GOTO 0x00E6

SUBROUTINE_00E6:
  3: 0x00E6 [0x4A] LocalPlayer looks at Anastase (ID: 17772843/0x010F312B)
  4: 0x00EF [0x1C] WAIT(20* ticks)
  5: 0x00F2 [0x1E] EventEntity looks at LocalPlayer and starts talking
  6: 0x00F7 [0x2B] Anastase (ID: 17772843/0x010F312B) [15175*]:
    → "Have you changed your mind? Will you help me study the geomagnetic founts?"
  7: 0x00FE [0x23] WAIT_FOR_DIALOG_INTERACTION

SUBROUTINE_00FF:
  8: 0x00FF [0x03] Work_Zone[1] = 0*
  9: 0x0104 [0x24] CREATE_DIALOG(message_id=15172*, default_option=0*, option_flags=0*)
    → "Lend your aid? [I shall./Not interested./Hear more.]"
 10: 0x010B [0x25] WAIT_DIALOG_SELECT()
 11: 0x010C [0x02] IF !(Work_Zone[0] == 0*) GOTO 0x0158
 12: 0x0114 [0x42] SET_CLI_EVENT_CANCEL_DATA()
 13: 0x0115 [0x03] Work_Zone[1] = 2*
 14: 0x011A [0x66] LOAD_EXT_SCHEDULER_MAIN: Load scheduler "twa0" with entities [Anastase (ID: 17772843/0x010F312B), Anastase (ID: 17772843/0x010F312B)], work=29*
 15: 0x0129 [0x03] Work_Zone[2] = 2166*
 16: 0x012E [0x2B] Anastase (ID: 17772843/0x010F312B) [15194*]:
    → "Your help is sincerely appreciated. Let me present you with this $3."
 17: 0x0135 [0x23] WAIT_FOR_DIALOG_INTERACTION
 18: 0x0136 [0x2B] Anastase (ID: 17772843/0x010F312B) [15195*]:
    → "Attuning it to a geomagnetic fount will, if my calculations are correct, permit you to use the waypoints."
 19: 0x013D [0x23] WAIT_FOR_DIALOG_INTERACTION
 20: 0x013E [0x66] LOAD_EXT_SCHEDULER_MAIN: Load scheduler "twa1" with entities [Anastase (ID: 17772843/0x010F312B), Anastase (ID: 17772843/0x010F312B)], work=29*
 21: 0x014D [0x2B] Anastase (ID: 17772843/0x010F312B) [15196*]:
    → "I have already recorded the energies of the Ru'Lude Gardens fount. Please, travel throughout the world and proceed with your activities, and return to me when you have attuned it to another fount."
 22: 0x0154 [0x23] WAIT_FOR_DIALOG_INTERACTION
 23: 0x0155 [0x01] GOTO 0x02AB
 24: 0x0158 [0x02] IF !(Work_Zone[0] == 1*) GOTO 0x0179
 25: 0x0160 [0x42] SET_CLI_EVENT_CANCEL_DATA()
 26: 0x0161 [0x03] Work_Zone[1] = 1*
 27: 0x0166 [0x2B] Anastase (ID: 17772843/0x010F312B) [15173*]:
    → "I see. I must admit to feeling a twinge of disappointment, but I understand."
 28: 0x016D [0x23] WAIT_FOR_DIALOG_INTERACTION
 29: 0x016E [0x2B] Anastase (ID: 17772843/0x010F312B) [15174*]:
    → "My stay here will be a long one, so if you have a change of heart, please come and see me again."
 30: 0x0175 [0x23] WAIT_FOR_DIALOG_INTERACTION
 31: 0x0176 [0x01] GOTO 0x02AB
 32: 0x0179 [0x02] IF !(Work_Zone[0] == 2*) GOTO 0x02AB
 33: 0x0181 [0x2B] Anastase (ID: 17772843/0x010F312B) [15176*]:
    → "I come from the Sacred City of Adoulin, an island that lies far to the west, beyond the great Sea of Zafmlug."
 34: 0x0188 [0x23] WAIT_FOR_DIALOG_INTERACTION
 35: 0x0189 [0x2B] Anastase (ID: 17772843/0x010F312B) [15177*]:
    → "Further still beyond the island is the continent of Ulbuka, where a pristine expanse of nature sits unsullied by mortal hands."
 36: 0x0190 [0x23] WAIT_FOR_DIALOG_INTERACTION
 37: 0x0191 [0x66] LOAD_EXT_SCHEDULER_MAIN: Load scheduler "tlk0" with entities [Anastase (ID: 17772843/0x010F312B), Anastase (ID: 17772843/0x010F312B)], work=29*
 38: 0x01A0 [0x2B] Anastase (ID: 17772843/0x010F312B) [15178*]:
    → "Tales of men and women from the Middle Lands who cannot resist the clarion call of a good deed left undone have stretched across the sea and reached my ears. Hearing these tales prompted me to make the arduous journey here."
 39: 0x01A7 [0x23] WAIT_FOR_DIALOG_INTERACTION
 40: 0x01A8 [0x02] IF !(ExtData[1]->WorkLocal[1] == 5*) GOTO 0x0226
 41: 0x01B0 [0x2B] Anastase (ID: 17772843/0x010F312B) [15186*]:
    → "Unfortunately, there is precious little time to collect this information."
 42: 0x01B7 [0x23] WAIT_FOR_DIALOG_INTERACTION
 43: 0x01B8 [0x2B] Anastase (ID: 17772843/0x010F312B) [15187*]:
    → "As I have previously mentioned, my fervent hope is that you will undertake this mission. The very fate of my homeland hangs in the balance."
 44: 0x01BF [0x23] WAIT_FOR_DIALOG_INTERACTION
 45: 0x01C0 [0x66] LOAD_EXT_SCHEDULER_MAIN: Load scheduler "tlk1" with entities [Anastase (ID: 17772843/0x010F312B), Anastase (ID: 17772843/0x010F312B)], work=29*
 46: 0x01CF [0x03] Work_Zone[2] = 2166*
 47: 0x01D4 [0x2B] Anastase (ID: 17772843/0x010F312B) [15188*]:
    → "What I ask is that you use $6 to...oh?"
 48: 0x01DB [0x23] WAIT_FOR_DIALOG_INTERACTION
 49: 0x01DC [0x6E] Anastase (ID: 17772843/0x010F312B) uses emote 7*
 50: 0x01E3 [0x99] Wait for Anastase (ID: 17772843/0x010F312B) animation to complete
 51: 0x01E8 [0x66] LOAD_EXT_SCHEDULER_MAIN: Load scheduler "twb0" with entities [Anastase (ID: 17772843/0x010F312B), Anastase (ID: 17772843/0x010F312B)], work=29*
 52: 0x01F7 [0x03] Work_Zone[2] = 2155*
 53: 0x01FC [0x2B] Anastase (ID: 17772843/0x010F312B) [15189*]:
    → "You mean to tell me that you already possess $6? Then this will be all the easier!"
 54: 0x0203 [0x23] WAIT_FOR_DIALOG_INTERACTION
 55: 0x0204 [0x03] Work_Zone[2] = 2166*
 56: 0x0209 [0x03] Work_Zone[3] = 2155*
 57: 0x020E [0x2B] Anastase (ID: 17772843/0x010F312B) [15190*]:
    → "This $3 is $6 for the Middle Lands."
 58: 0x0215 [0x23] WAIT_FOR_DIALOG_INTERACTION
 59: 0x0216 [0x03] Work_Zone[2] = 2166*
 60: 0x021B [0x2B] Anastase (ID: 17772843/0x010F312B) [15191*]:
    → "What I would ask of you is that you attune the $3 to the aforementioned geomagnetic founts."
 61: 0x0222 [0x23] WAIT_FOR_DIALOG_INTERACTION
 62: 0x0223 [0x01] GOTO 0x0286
 63: 0x0226 [0x2B] Anastase (ID: 17772843/0x010F312B) [15179*]:
    → "For you see, I desire your assistance in our quest to pioneer the undeveloped lands of Ulbuka."
 64: 0x022D [0x23] WAIT_FOR_DIALOG_INTERACTION
 65: 0x022E [0x66] LOAD_EXT_SCHEDULER_MAIN: Load scheduler "tlk1" with entities [Anastase (ID: 17772843/0x010F312B), Anastase (ID: 17772843/0x010F312B)], work=29*
 66: 0x023D [0x2B] Anastase (ID: 17772843/0x010F312B) [15180*]:
    → "I had hoped to secure transport in advance for those interested in cooperating with this enterprise."
 67: 0x0244 [0x23] WAIT_FOR_DIALOG_INTERACTION
 68: 0x0245 [0x2B] Anastase (ID: 17772843/0x010F312B) [15181*]:
    → "But executing a plan is never a simple affair. Air and sea vessels are indeed available, but unsustainable in the long term due to the staggering distance between the two continents."
 69: 0x024C [0x23] WAIT_FOR_DIALOG_INTERACTION
 70: 0x024D [0x66] LOAD_EXT_SCHEDULER_MAIN: Load scheduler "twb0" with entities [Anastase (ID: 17772843/0x010F312B), Anastase (ID: 17772843/0x010F312B)], work=29*
 71: 0x025C [0x2B] Anastase (ID: 17772843/0x010F312B) [15182*]:
    → "Yet one possibility exists. In our beloved city, devices called "waypoints" allow the user to instantaneously move from one location to another."
 72: 0x0263 [0x23] WAIT_FOR_DIALOG_INTERACTION
 73: 0x0264 [0x2B] Anastase (ID: 17772843/0x010F312B) [15183*]:
    → "However, I am not certain whether the ley lines to which these waypoints are attuned traverse the oceans to the Middle Lands. My first task, therefore, is to find locations suitable for such travel."
 74: 0x026B [0x23] WAIT_FOR_DIALOG_INTERACTION
 75: 0x026C [0x03] Work_Zone[2] = 2155*
 76: 0x0271 [0x2B] Anastase (ID: 17772843/0x010F312B) [15184*]:
    → "5 are needed to use our waypoints, but their efficacy is dependent on recording the energies of certain geomagnetic founts."
 77: 0x0278 [0x23] WAIT_FOR_DIALOG_INTERACTION
 78: 0x0279 [0x03] Work_Zone[2] = 2166*
 79: 0x027E [0x2B] Anastase (ID: 17772843/0x010F312B) [15185*]:
    → "As part of this mission, I have brought with me several such $5. What I would ask of you is that you take one to these various founts and attune it to them."
 80: 0x0285 [0x23] WAIT_FOR_DIALOG_INTERACTION

SUBROUTINE_0286:
 81: 0x0286 [0x66] LOAD_EXT_SCHEDULER_MAIN: Load scheduler "twb1" with entities [Anastase (ID: 17772843/0x010F312B), Anastase (ID: 17772843/0x010F312B)], work=29*
 82: 0x0295 [0x2B] Anastase (ID: 17772843/0x010F312B) [15192*]:
    → "If this survey is successful, then it will surely guarantee a prosperous trading partnership for our two homelands."
 83: 0x029C [0x23] WAIT_FOR_DIALOG_INTERACTION
 84: 0x029D [0x2B] Anastase (ID: 17772843/0x010F312B) [15193*]:
    → "I also imagine that there are many who would both honor and value your accomplishment."
 85: 0x02A4 [0x23] WAIT_FOR_DIALOG_INTERACTION
 86: 0x02A5 [0x01] GOTO 0x00FF

SUBROUTINE_02AB:
 87: 0x02AB [0x21] END_EVENT
 88: 0x02AC [0x00] END_REQSTACK()
```

#### Data or dead code:

```
# Dead code (unreachable instructions):
     0x0011 [0x01] GOTO 0x00E6
     0x00B7 [0x01] GOTO 0x00E6
     0x00E3 [0x01] GOTO 0x00E6
# Dead code (unreachable instructions):
     0x02A8 [0x01] GOTO 0x02AB
```

### Event 10214

#### Metadata

| Field        | Value     |
|--------------|-----------|
| Entrypoint   | 0x02AD    |
| Data Size    | 549 bytes |
| Instructions | 35        |

```
      00 01 02 03 04 05 06 07  08 09 0A 0B 0C 0D 0E 0F
      -- -- -- -- -- -- -- --  -- -- -- -- -- -- -- --
02A0:                                         4A F0 FF               J..
02B0: FF 7F 2B 31 0F 01 1C 04  80 1E F0 FF FF 7F 2B 2B  ..+1..........++
02C0: 31 0F 01 2E 80 23 43 00  43 01 03 02 00 03 10 06  1....#C.C.......
02D0: 02 10 24 2F 80 06 80 06  80 25 02 00 10 06 80 00  ..$/.....%......
02E0: 7B 04 2B 2B 31 0F 01 30  80 23 1A 31 13 24 31 80  {.++1..0.#.1.$1.
02F0: 06 80 06 80 25 02 00 10  06 80 00 03 03 01 A8 04  ....%...........
0300: 01 78 04 02 00 10 08 80  00 14 03 1A 00 0F 01 EA  .x..............
0310: 02 01 78 04 02 00 10 12  80 00 6D 03 03 02 10 06  ..x.......m.....
0320: 80 2B 2B 31 0F 01 32 80  23 2B 2B 31 0F 01 33 80  .++1..2.#++1..3.
0330: 23 66 01 80 2B 31 0F 01  2B 31 0F 01 74 68 6B 31  #f..+1..+1..thk1
0340: 2B 2B 31 0F 01 34 80 23  2B 2B 31 0F 01 35 80 23  ++1..4.#++1..5.#
0350: 2B 2B 31 0F 01 36 80 23  66 01 80 2B 31 0F 01 2B  ++1..6.#f..+1..+
0360: 31 0F 01 74 68 6B 32 01  EA 02 01 78 04 02 00 10  1..thk2....x....
0370: 00 80 00 C6 03 03 02 10  08 80 2B 2B 31 0F 01 32  ..........++1..2
0380: 80 23 2B 2B 31 0F 01 33  80 23 66 01 80 2B 31 0F  .#++1..3.#f..+1.
0390: 01 2B 31 0F 01 74 68 6B  31 2B 2B 31 0F 01 34 80  .+1..thk1++1..4.
03A0: 23 2B 2B 31 0F 01 37 80  23 2B 2B 31 0F 01 36 80  #++1..7.#++1..6.
03B0: 23 66 01 80 2B 31 0F 01  2B 31 0F 01 74 68 6B 32  #f..+1..+1..thk2
03C0: 01 EA 02 01 78 04 02 00  10 38 80 00 1F 04 03 02  ....x....8......
03D0: 10 12 80 2B 2B 31 0F 01  32 80 23 2B 2B 31 0F 01  ...++1..2.#++1..
03E0: 33 80 23 66 01 80 2B 31  0F 01 2B 31 0F 01 74 68  3.#f..+1..+1..th
03F0: 6B 31 2B 2B 31 0F 01 34  80 23 2B 2B 31 0F 01 39  k1++1..4.#++1..9
0400: 80 23 2B 2B 31 0F 01 36  80 23 66 01 80 2B 31 0F  .#++1..6.#f..+1.
0410: 01 2B 31 0F 01 74 68 6B  32 01 EA 02 01 78 04 02  .+1..thk2....x..
0420: 00 10 1C 80 00 78 04 03  02 10 00 80 2B 2B 31 0F  .....x......++1.
0430: 01 32 80 23 2B 2B 31 0F  01 33 80 23 66 01 80 2B  .2.#++1..3.#f..+
0440: 31 0F 01 2B 31 0F 01 74  68 6B 31 2B 2B 31 0F 01  1..+1..thk1++1..
0450: 34 80 23 2B 2B 31 0F 01  3A 80 23 2B 2B 31 0F 01  4.#++1..:.#++1..
0460: 36 80 23 66 01 80 2B 31  0F 01 2B 31 0F 01 74 68  6.#f..+1..+1..th
0470: 6B 32 01 EA 02 01 78 04  01 A8 04 02 00 10 08 80  k2....x.........
0480: 00 8C 04 1A 7C 0F 01 CF  02 01 A8 04 02 00 10 12  ....|...........
0490: 80 00 9D 04 1A F1 0F 01  CF 02 01 A8 04 02 00 10  ................
04A0: 00 80 00 A8 04 01 A8 04  2B 2B 31 0F 01 3B 80 23  ........++1..;.#
04B0: 2B 2B 31 0F 01 3C 80 23  6E 2B 31 0F 01 08 80 99  ++1..<.#n+1.....
04C0: 2B 31 0F 01 2B 2B 31 0F  01 3D 80 23 1C 0F 80 23  +1..++1..=.#...#
04D0: 21 00                                             !.              
```

#### Opcodes

```
  0: 0x02AD [0x4A] LocalPlayer looks at Anastase (ID: 17772843/0x010F312B)
  1: 0x02B6 [0x1C] WAIT(20* ticks)
  2: 0x02B9 [0x1E] EventEntity looks at LocalPlayer and starts talking
  3: 0x02BE [0x2B] Anastase (ID: 17772843/0x010F312B) [15236*]:
    → "<Player>, my friend! It is good to see you again. With what may I assist you today?"
  4: 0x02C5 [0x23] WAIT_FOR_DIALOG_INTERACTION
  5: 0x02C6 [0x43] SEND_EVENT_UPDATE: Send pending tag to server (packet 0x005B)
  6: 0x02C8 [0x43] SEND_EVENT_UPDATE: Check pending flag (skip if not pending)
  7: 0x02CA [0x03] ExtData[1]->WorkLocal[2] = Work_Zone[3]
  8: 0x02CF [0x06] Work_Zone[2] = 0
  9: 0x02D2 [0x24] CREATE_DIALOG(message_id=15198*, default_option=0*, option_flags=0*)
    → "Any questions? [Tell me your prognostications./Tell me about these waypoints./Explain all this to me./None in particular.]"
 10: 0x02D9 [0x25] WAIT_DIALOG_SELECT()
 11: 0x02DA [0x02] IF !(Work_Zone[0] == 0*) GOTO 0x047B
 12: 0x02E2 [0x2B] Anastase (ID: 17772843/0x010F312B) [15197*]:
    → "Having never been to this land, I am not familiar with the exact locations, but our powers of divination have given us a certain cryptic insight."
 13: 0x02E9 [0x23] WAIT_FOR_DIALOG_INTERACTION
 14: 0x02EA [0x1A] CALL_SUBROUTINE(address=0x1331)
 15: 0x02ED [0x24] CREATE_DIALOG(message_id=15199*, default_option=0*, option_flags=0*)
    → "Which prognostication? [None, actually./How do I record these founts?/<Port>.[ /: Complete]/<Dwelling>.[ /: Complete]/<Spring>.[ /: Complete]/<Fort>.[ /: Complete]]"
 16: 0x02F4 [0x25] WAIT_DIALOG_SELECT()
 17: 0x02F5 [0x02] IF !(Work_Zone[0] == 0*) GOTO 0x0303
 18: 0x02FD [0x01] GOTO 0x04A8

SUBROUTINE_0478:
 19: 0x0478 [0x01] GOTO 0x04A8
 20: 0x047B [0x02] IF !(Work_Zone[0] == 1*) GOTO 0x048C
 21: 0x0483 [0x1A] CALL_SUBROUTINE(address=0x0F7C)
 22: 0x0486 [0x01] GOTO 0x02CF

SUBROUTINE_04A8:
 23: 0x04A8 [0x2B] Anastase (ID: 17772843/0x010F312B) [15221*]:
    → "Ah yes, before I forget--other members of my expedition have already gone to survey these locations."
 24: 0x04AF [0x23] WAIT_FOR_DIALOG_INTERACTION
 25: 0x04B0 [0x2B] Anastase (ID: 17772843/0x010F312B) [15222*]:
    → "Should you happen to cross paths with them, make sure to emphasize that I am still waiting for their reports."
 26: 0x04B7 [0x23] WAIT_FOR_DIALOG_INTERACTION
 27: 0x04B8 [0x6E] Anastase (ID: 17772843/0x010F312B) uses emote 1*
 28: 0x04BF [0x99] Wait for Anastase (ID: 17772843/0x010F312B) animation to complete
 29: 0x04C4 [0x2B] Anastase (ID: 17772843/0x010F312B) [15223*]:
    → "May Altana keep you safe in this quest."
 30: 0x04CB [0x23] WAIT_FOR_DIALOG_INTERACTION
 31: 0x04CC [0x1C] WAIT(180* ticks)
 32: 0x04CF [0x23] WAIT_FOR_DIALOG_INTERACTION
 33: 0x04D0 [0x21] END_EVENT
 34: 0x04D1 [0x00] END_REQSTACK()
```

#### Data or dead code:

```
# Dead code (unreachable instructions):
     0x0300 [0x01] GOTO 0x0478
     0x0311 [0x01] GOTO 0x0478
     0x036A [0x01] GOTO 0x0478
     0x03C3 [0x01] GOTO 0x0478
     0x041C [0x01] GOTO 0x0478
     0x0475 [0x01] GOTO 0x0478
# Dead code (unreachable instructions):
     0x0489 [0x01] GOTO 0x04A8
     0x049A [0x01] GOTO 0x04A8
```

### Event 10215

#### Metadata

| Field        | Value     |
|--------------|-----------|
| Entrypoint   | 0x04D2    |
| Data Size    | 154 bytes |
| Instructions | 26        |

```
      00 01 02 03 04 05 06 07  08 09 0A 0B 0C 0D 0E 0F
      -- -- -- -- -- -- -- --  -- -- -- -- -- -- -- --
04D0:       42 4A F0 FF FF 7F  2B 31 0F 01 1C 04 80 1E    BJ....+1......
04E0: F0 FF FF 7F 03 02 10 13  80 66 01 80 2B 31 0F 01  .........f..+1..
04F0: 2B 31 0F 01 74 77 62 30  2B 2B 31 0F 01 3E 80 23  +1..twb0++1..>.#
0500: 2B 2B 31 0F 01 3F 80 23  66 01 80 2B 31 0F 01 2B  ++1..?.#f..+1..+
0510: 31 0F 01 74 77 62 31 2B  2B 31 0F 01 40 80 23 6E  1..twb1++1..@.#n
0520: 2B 31 0F 01 20 80 99 2B  31 0F 01 03 02 10 38 80  +1.. ..+1.....8.
0530: 2B 2B 31 0F 01 41 80 23  2B 2B 31 0F 01 42 80 23  ++1..A.#++1..B.#
0540: 2B 2B 31 0F 01 43 80 23  45 44 80 F0 FF FF 7F F0  ++1..C.#ED......
0550: FF FF 7F 71 73 74 63 06  80 45 45 80 F0 FF FF 7F  ...qstc..EE.....
0560: F0 FF FF 7F 66 64 69 32  06 80 21 00              ....fdi2..!.    
```

#### Opcodes

```
  0: 0x04D2 [0x42] SET_CLI_EVENT_CANCEL_DATA()
  1: 0x04D3 [0x4A] LocalPlayer looks at Anastase (ID: 17772843/0x010F312B)
  2: 0x04DC [0x1C] WAIT(20* ticks)
  3: 0x04DF [0x1E] EventEntity looks at LocalPlayer and starts talking
  4: 0x04E4 [0x03] Work_Zone[2] = 2166*
  5: 0x04E9 [0x66] LOAD_EXT_SCHEDULER_MAIN: Load scheduler "twb0" with entities [Anastase (ID: 17772843/0x010F312B), Anastase (ID: 17772843/0x010F312B)], work=29*
  6: 0x04F8 [0x2B] Anastase (ID: 17772843/0x010F312B) [15224*]:
    → "Hail, and good tidings. May I please take a look at your $3?"
  7: 0x04FF [0x23] WAIT_FOR_DIALOG_INTERACTION
  8: 0x0500 [0x2B] Anastase (ID: 17772843/0x010F312B) [15225*]:
    → "...!"
  9: 0x0507 [0x23] WAIT_FOR_DIALOG_INTERACTION
 10: 0x0508 [0x66] LOAD_EXT_SCHEDULER_MAIN: Load scheduler "twb1" with entities [Anastase (ID: 17772843/0x010F312B), Anastase (ID: 17772843/0x010F312B)], work=29*
 11: 0x0517 [0x2B] Anastase (ID: 17772843/0x010F312B) [15226*]:
    → "This...this is amazing!"
 12: 0x051E [0x23] WAIT_FOR_DIALOG_INTERACTION
 13: 0x051F [0x6E] Anastase (ID: 17772843/0x010F312B) uses emote 7*
 14: 0x0526 [0x99] Wait for Anastase (ID: 17772843/0x010F312B) animation to complete
 15: 0x052B [0x03] Work_Zone[2] = 4*
 16: 0x0530 [0x2B] Anastase (ID: 17772843/0x010F312B) [15227*]:
    → "You have traveled to the $0 locations I have requested and recorded the data in the geomagnetic founts there!"
 17: 0x0537 [0x23] WAIT_FOR_DIALOG_INTERACTION
 18: 0x0538 [0x2B] Anastase (ID: 17772843/0x010F312B) [15228*]:
    → "Adventurers are truly as reliable as I was led to believe. All in a day's work, I suppose."
 19: 0x053F [0x23] WAIT_FOR_DIALOG_INTERACTION
 20: 0x0540 [0x2B] Anastase (ID: 17772843/0x010F312B) [15229*]:
    → "You have my undying gratitude for your efforts. Allow me to present this to you as a mere token of my appreciation."
 21: 0x0547 [0x23] WAIT_FOR_DIALOG_INTERACTION
 22: 0x0548 [0x45] LOAD_SCHEDULED_TASK: Load scheduler "qstc" with entities [LocalPlayer, LocalPlayer], work=[201*, 0*]
 23: 0x0559 [0x45] LOAD_SCHEDULED_TASK: Load scheduler "fdi2" with entities [LocalPlayer, LocalPlayer], work=[200*, 0*]
 24: 0x056A [0x21] END_EVENT
 25: 0x056B [0x00] END_REQSTACK()
```

### Event 10216

#### Metadata

| Field        | Value     |
|--------------|-----------|
| Entrypoint   | 0x056C    |
| Data Size    | 100 bytes |
| Instructions | 20        |

```
      00 01 02 03 04 05 06 07  08 09 0A 0B 0C 0D 0E 0F
      -- -- -- -- -- -- -- --  -- -- -- -- -- -- -- --
0560:                                      4A F0 FF FF              J...
0570: 7F 2B 31 0F 01 1C 04 80  1E F0 FF FF 7F 2B 2B 31  .+1..........++1
0580: 0F 01 46 80 23 2B 2B 31  0F 01 47 80 23 2B 2B 31  ..F.#++1..G.#++1
0590: 0F 01 48 80 23 66 01 80  2B 31 0F 01 2B 31 0F 01  ..H.#f..+1..+1..
05A0: 74 68 6B 31 2B 2B 31 0F  01 49 80 23 1C 4A 80 66  thk1++1..I.#.J.f
05B0: 01 80 2B 31 0F 01 2B 31  0F 01 74 68 6B 32 2B 2B  ..+1..+1..thk2++
05C0: 31 0F 01 4B 80 23 2B 2B  31 0F 01 4C 80 23 21 00  1..K.#++1..L.#!.
```

#### Opcodes

```
  0: 0x056C [0x4A] LocalPlayer looks at Anastase (ID: 17772843/0x010F312B)
  1: 0x0575 [0x1C] WAIT(20* ticks)
  2: 0x0578 [0x1E] EventEntity looks at LocalPlayer and starts talking
  3: 0x057D [0x2B] Anastase (ID: 17772843/0x010F312B) [15230*]:
    → "As an aside, did you happen to meet with any of the other members of my expedition?"
  4: 0x0584 [0x23] WAIT_FOR_DIALOG_INTERACTION
  5: 0x0585 [0x2B] Anastase (ID: 17772843/0x010F312B) [15231*]:
    → "Though a bit wet behind the ears, their skills and talents are unparalleled."
  6: 0x058C [0x23] WAIT_FOR_DIALOG_INTERACTION
  7: 0x058D [0x2B] Anastase (ID: 17772843/0x010F312B) [15232*]:
    → "Among their ranks are geomancers and rune fencers--a rare sight in the Middle Lands, to be sure."
  8: 0x0594 [0x23] WAIT_FOR_DIALOG_INTERACTION
  9: 0x0595 [0x66] LOAD_EXT_SCHEDULER_MAIN: Load scheduler "thk1" with entities [Anastase (ID: 17772843/0x010F312B), Anastase (ID: 17772843/0x010F312B)], work=29*
 10: 0x05A4 [0x2B] Anastase (ID: 17772843/0x010F312B) [15233*]:
    → "If you were to visit Adoulin, you may be able to find out about their secrets for yourself."
 11: 0x05AB [0x23] WAIT_FOR_DIALOG_INTERACTION
 12: 0x05AC [0x1C] WAIT(120* ticks)
 13: 0x05AF [0x66] LOAD_EXT_SCHEDULER_MAIN: Load scheduler "thk2" with entities [Anastase (ID: 17772843/0x010F312B), Anastase (ID: 17772843/0x010F312B)], work=29*
 14: 0x05BE [0x2B] Anastase (ID: 17772843/0x010F312B) [15234*]:
    → "Forgive my loose tongue. Some things should be found out for oneself."
 15: 0x05C5 [0x23] WAIT_FOR_DIALOG_INTERACTION
 16: 0x05C6 [0x2B] Anastase (ID: 17772843/0x010F312B) [15235*]:
    → "My efforts now are focused on obtaining information about any more geomagnetic founts that may exist. I may have more information for you at a later date."
 17: 0x05CD [0x23] WAIT_FOR_DIALOG_INTERACTION
 18: 0x05CE [0x21] END_EVENT
 19: 0x05CF [0x00] END_REQSTACK()
```

### Event 10217

#### Metadata

| Field        | Value     |
|--------------|-----------|
| Entrypoint   | 0x05D0    |
| Data Size    | 234 bytes |
| Instructions | 38        |

```
      00 01 02 03 04 05 06 07  08 09 0A 0B 0C 0D 0E 0F
      -- -- -- -- -- -- -- --  -- -- -- -- -- -- -- --
05D0: 02 08 10 00 80 00 E0 05  0F 00 00 08 80 01 E5 05  ................
05E0: 0F 00 00 12 80 4A F0 FF  FF 7F 2B 31 0F 01 1C 04  .....J....+1....
05F0: 80 1E F0 FF FF 7F 2B 2B  31 0F 01 2E 80 23 43 00  ......++1....#C.
0600: 43 01 03 03 00 04 10 03  01 10 06 80 24 4D 80 06  C...........$M..
0610: 80 00 00 25 02 00 10 06  80 00 5E 06 42 03 01 10  ...%......^.B...
0620: 08 80 66 01 80 2B 31 0F  01 2B 31 0F 01 74 77 62  ..f..+1..+1..twb
0630: 30 2B 2B 31 0F 01 4E 80  23 2B 2B 31 0F 01 4F 80  0++1..N.#++1..O.
0640: 23 2B 2B 31 0F 01 50 80  23 66 01 80 2B 31 0F 01  #++1..P.#f..+1..
0650: 2B 31 0F 01 74 77 62 31  1A 55 10 01 B8 06 02 00  +1..twb1.U......
0660: 10 08 80 00 74 06 2B 2B  31 0F 01 50 80 23 1A 55  ....t.++1..P.#.U
0670: 10 01 B8 06 02 00 10 12  80 00 85 06 1A 7C 0F 01  .............|..
0680: 07 06 01 B8 06 02 00 10  00 80 00 96 06 1A F1 0F  ................
0690: 01 07 06 01 B8 06 02 00  10 38 80 00 B8 06 6E 2B  .........8....n+
06A0: 31 0F 01 08 80 99 2B 31  0F 01 2B 2B 31 0F 01 0E  1.....+1..++1...
06B0: 80 1C 0F 80 23 01 B8 06  21 00                    ....#...!.      
```

#### Opcodes

```
  0: 0x05D0 [0x02] IF !(Work_Zone[8] == 3*) GOTO 0x05E0
  1: 0x05D8 [0x0F] ExtData[1]->WorkLocal[0] ^= 1*
  2: 0x05DD [0x01] GOTO 0x05E5
  3: 0x05E0 [0x0F] ExtData[1]->WorkLocal[0] ^= 2*

SUBROUTINE_05E5:
  4: 0x05E5 [0x4A] LocalPlayer looks at Anastase (ID: 17772843/0x010F312B)
  5: 0x05EE [0x1C] WAIT(20* ticks)
  6: 0x05F1 [0x1E] EventEntity looks at LocalPlayer and starts talking
  7: 0x05F6 [0x2B] Anastase (ID: 17772843/0x010F312B) [15236*]:
    → "<Player>, my friend! It is good to see you again. With what may I assist you today?"
  8: 0x05FD [0x23] WAIT_FOR_DIALOG_INTERACTION
  9: 0x05FE [0x43] SEND_EVENT_UPDATE: Send pending tag to server (packet 0x005B)
 10: 0x0600 [0x43] SEND_EVENT_UPDATE: Check pending flag (skip if not pending)
 11: 0x0602 [0x03] ExtData[1]->WorkLocal[3] = Work_Zone[4]

SUBROUTINE_0607:
 12: 0x0607 [0x03] Work_Zone[1] = 0*
 13: 0x060C [0x24] CREATE_DIALOG(message_id=15237*, default_option=0*, option_flags=ExtData[1]->WorkLocal[0])
    → "Any questions? [Let's expand these warp options./Any new predictions?/What about these waypoints?/What am I supposed to do again?/None in particular.]"
 14: 0x0613 [0x25] WAIT_DIALOG_SELECT()
 15: 0x0614 [0x02] IF !(Work_Zone[0] == 0*) GOTO 0x065E
 16: 0x061C [0x42] SET_CLI_EVENT_CANCEL_DATA()
 17: 0x061D [0x03] Work_Zone[1] = 1*
 18: 0x0622 [0x66] LOAD_EXT_SCHEDULER_MAIN: Load scheduler "twb0" with entities [Anastase (ID: 17772843/0x010F312B), Anastase (ID: 17772843/0x010F312B)], work=29*
 19: 0x0631 [0x2B] Anastase (ID: 17772843/0x010F312B) [15238*]:
    → "Utterly magnificent! I suppose adventurers always have to have a sixth sense about these sorts of things."
 20: 0x0638 [0x23] WAIT_FOR_DIALOG_INTERACTION
 21: 0x0639 [0x2B] Anastase (ID: 17772843/0x010F312B) [15239*]:
    → "I have just received word that my colleague, Quwi Orihbhe, has predicted the existence of geomagnetic founts in new lands."
 22: 0x0640 [0x23] WAIT_FOR_DIALOG_INTERACTION
 23: 0x0641 [0x2B] Anastase (ID: 17772843/0x010F312B) [15240*]:
    → "Would you like to hear more information about these hotspots?"
 24: 0x0648 [0x23] WAIT_FOR_DIALOG_INTERACTION
 25: 0x0649 [0x66] LOAD_EXT_SCHEDULER_MAIN: Load scheduler "twb1" with entities [Anastase (ID: 17772843/0x010F312B), Anastase (ID: 17772843/0x010F312B)], work=29*
 26: 0x0658 [0x1A] CALL_SUBROUTINE(address=0x1055)
 27: 0x065B [0x01] GOTO 0x06B8
 28: 0x065E [0x02] IF !(Work_Zone[0] == 1*) GOTO 0x0674
 29: 0x0666 [0x2B] Anastase (ID: 17772843/0x010F312B) [15240*]:
    → "Would you like to hear more information about these hotspots?"
 30: 0x066D [0x23] WAIT_FOR_DIALOG_INTERACTION
 31: 0x066E [0x1A] CALL_SUBROUTINE(address=0x1055)
 32: 0x0671 [0x01] GOTO 0x06B8
 33: 0x0674 [0x02] IF !(Work_Zone[0] == 2*) GOTO 0x0685
 34: 0x067C [0x1A] CALL_SUBROUTINE(address=0x0F7C)
 35: 0x067F [0x01] GOTO 0x0607

SUBROUTINE_06B8:
 36: 0x06B8 [0x21] END_EVENT
 37: 0x06B9 [0x00] END_REQSTACK()
```

#### Data or dead code:

```
# Dead code (unreachable instructions):
     0x0682 [0x01] GOTO 0x06B8
     0x0693 [0x01] GOTO 0x06B8
```

### Event 10218

#### Metadata

| Field        | Value     |
|--------------|-----------|
| Entrypoint   | 0x06BA    |
| Data Size    | 237 bytes |
| Instructions | 41        |

```
      00 01 02 03 04 05 06 07  08 09 0A 0B 0C 0D 0E 0F
      -- -- -- -- -- -- -- --  -- -- -- -- -- -- -- --
06B0:                                42 4A F0 FF FF 7F            BJ....
06C0: 2B 31 0F 01 1C 04 80 1E  F0 FF FF 7F 2B 2B 31 0F  +1..........++1.
06D0: 01 51 80 23 2B 2B 31 0F  01 52 80 23 6E 2B 31 0F  .Q.#++1..R.#n+1.
06E0: 01 01 80 99 2B 31 0F 01  03 02 10 13 80 2B 2B 31  ....+1.......++1
06F0: 0F 01 53 80 23 2B 2B 31  0F 01 54 80 23 2B 2B 31  ..S.#++1..T.#++1
0700: 0F 01 55 80 23 6E 2B 31  0F 01 56 80 99 2B 31 0F  ..U.#n+1..V..+1.
0710: 01 2B 2B 31 0F 01 57 80  23 1C 58 80 66 01 80 2B  .++1..W.#.X.f..+
0720: 31 0F 01 2B 31 0F 01 74  68 6B 31 2B 2B 31 0F 01  1..+1..thk1++1..
0730: 59 80 23 1C 0F 80 66 01  80 2B 31 0F 01 2B 31 0F  Y.#...f..+1..+1.
0740: 01 74 68 6B 32 2B 2B 31  0F 01 5A 80 23 2B 2B 31  .thk2++1..Z.#++1
0750: 0F 01 5B 80 23 66 01 80  2B 31 0F 01 2B 31 0F 01  ..[.#f..+1..+1..
0760: 74 77 62 30 2B 2B 31 0F  01 5C 80 23 2B 2B 31 0F  twb0++1..\.#++1.
0770: 01 5D 80 23 66 01 80 2B  31 0F 01 2B 31 0F 01 74  .].#f..+1..+1..t
0780: 77 62 31 45 44 80 F0 FF  FF 7F F0 FF FF 7F 71 73  wb1ED.........qs
0790: 74 63 06 80 45 45 80 F0  FF FF 7F F0 FF FF 7F 66  tc..EE.........f
07A0: 64 69 32 06 80 21 00                              di2..!.         
```

#### Opcodes

```
  0: 0x06BA [0x42] SET_CLI_EVENT_CANCEL_DATA()
  1: 0x06BB [0x4A] LocalPlayer looks at Anastase (ID: 17772843/0x010F312B)
  2: 0x06C4 [0x1C] WAIT(20* ticks)
  3: 0x06C7 [0x1E] EventEntity looks at LocalPlayer and starts talking
  4: 0x06CC [0x2B] Anastase (ID: 17772843/0x010F312B) [15248*]:
    → "Ah yes, <Player>. I had been hoping you would grace me with your presence."
  5: 0x06D3 [0x23] WAIT_FOR_DIALOG_INTERACTION
  6: 0x06D4 [0x2B] Anastase (ID: 17772843/0x010F312B) [15249*]:
    → "I have just received a report from Quwi Orihbhe that...hm?"
  7: 0x06DB [0x23] WAIT_FOR_DIALOG_INTERACTION
  8: 0x06DC [0x6E] Anastase (ID: 17772843/0x010F312B) uses emote 29*
  9: 0x06E3 [0x99] Wait for Anastase (ID: 17772843/0x010F312B) animation to complete
 10: 0x06E8 [0x03] Work_Zone[2] = 2166*
 11: 0x06ED [0x2B] Anastase (ID: 17772843/0x010F312B) [15250*]:
    → "What is this aura I sense coming from your $3? May I...?"
 12: 0x06F4 [0x23] WAIT_FOR_DIALOG_INTERACTION
 13: 0x06F5 [0x2B] Anastase (ID: 17772843/0x010F312B) [15251*]:
    → "...?"
 14: 0x06FC [0x23] WAIT_FOR_DIALOG_INTERACTION
 15: 0x06FD [0x2B] Anastase (ID: 17772843/0x010F312B) [15252*]:
    → "...! You...you have already recorded the geomagnetic founts!?"
 16: 0x0704 [0x23] WAIT_FOR_DIALOG_INTERACTION
 17: 0x0705 [0x6E] Anastase (ID: 17772843/0x010F312B) uses emote 25*
 18: 0x070C [0x99] Wait for Anastase (ID: 17772843/0x010F312B) animation to complete
 19: 0x0711 [0x2B] Anastase (ID: 17772843/0x010F312B) [15253*]:
    → "Impossible! Does this mean that you, too, possess the power of prognostication?"
 20: 0x0718 [0x23] WAIT_FOR_DIALOG_INTERACTION
 21: 0x0719 [0x1C] WAIT(60* ticks)
 22: 0x071C [0x66] LOAD_EXT_SCHEDULER_MAIN: Load scheduler "thk1" with entities [Anastase (ID: 17772843/0x010F312B), Anastase (ID: 17772843/0x010F312B)], work=29*
 23: 0x072B [0x2B] Anastase (ID: 17772843/0x010F312B) [15254*]:
    → "Or, perhaps, are the geomagnetic founts of the Middle Land so rich in power that...? No, such a conclusion goes in the face of decades of research!"
 24: 0x0732 [0x23] WAIT_FOR_DIALOG_INTERACTION
 25: 0x0733 [0x1C] WAIT(180* ticks)
 26: 0x0736 [0x66] LOAD_EXT_SCHEDULER_MAIN: Load scheduler "thk2" with entities [Anastase (ID: 17772843/0x010F312B), Anastase (ID: 17772843/0x010F312B)], work=29*
 27: 0x0745 [0x2B] Anastase (ID: 17772843/0x010F312B) [15255*]:
    → "Ah! Forgive my sudden outburst. Your actions have stirred latent emotions within me."
 28: 0x074C [0x23] WAIT_FOR_DIALOG_INTERACTION
 29: 0x074D [0x2B] Anastase (ID: 17772843/0x010F312B) [15256*]:
    → "Setting that aside--there is no denying that you have recorded the information I desired."
 30: 0x0754 [0x23] WAIT_FOR_DIALOG_INTERACTION
 31: 0x0755 [0x66] LOAD_EXT_SCHEDULER_MAIN: Load scheduler "twb0" with entities [Anastase (ID: 17772843/0x010F312B), Anastase (ID: 17772843/0x010F312B)], work=29*
 32: 0x0764 [0x2B] Anastase (ID: 17772843/0x010F312B) [15257*]:
    → "You have convinced me that the ability to further your scope of operations is a blessing like none other."
 33: 0x076B [0x23] WAIT_FOR_DIALOG_INTERACTION
 34: 0x076C [0x2B] Anastase (ID: 17772843/0x010F312B) [15258*]:
    → "I presume it best to offer you this in compensation for your troubles...even though in this case, you have completed my task without any intervention on my part."
 35: 0x0773 [0x23] WAIT_FOR_DIALOG_INTERACTION
 36: 0x0774 [0x66] LOAD_EXT_SCHEDULER_MAIN: Load scheduler "twb1" with entities [Anastase (ID: 17772843/0x010F312B), Anastase (ID: 17772843/0x010F312B)], work=29*
 37: 0x0783 [0x45] LOAD_SCHEDULED_TASK: Load scheduler "qstc" with entities [LocalPlayer, LocalPlayer], work=[201*, 0*]
 38: 0x0794 [0x45] LOAD_SCHEDULED_TASK: Load scheduler "fdi2" with entities [LocalPlayer, LocalPlayer], work=[200*, 0*]
 39: 0x07A5 [0x21] END_EVENT
 40: 0x07A6 [0x00] END_REQSTACK()
```

### Event 10219

#### Metadata

| Field        | Value     |
|--------------|-----------|
| Entrypoint   | 0x07A7    |
| Data Size    | 154 bytes |
| Instructions | 26        |

```
      00 01 02 03 04 05 06 07  08 09 0A 0B 0C 0D 0E 0F
      -- -- -- -- -- -- -- --  -- -- -- -- -- -- -- --
07A0:                      42  4A F0 FF FF 7F 2B 31 0F         BJ....+1.
07B0: 01 1C 04 80 1E F0 FF FF  7F 03 02 10 13 80 66 01  ..............f.
07C0: 80 2B 31 0F 01 2B 31 0F  01 74 77 62 30 2B 2B 31  .+1..+1..twb0++1
07D0: 0F 01 3E 80 23 2B 2B 31  0F 01 3F 80 23 66 01 80  ..>.#++1..?.#f..
07E0: 2B 31 0F 01 2B 31 0F 01  74 77 62 31 2B 2B 31 0F  +1..+1..twb1++1.
07F0: 01 40 80 23 6E 2B 31 0F  01 20 80 99 2B 31 0F 01  .@.#n+1.. ..+1..
0800: 03 02 10 5E 80 2B 2B 31  0F 01 41 80 23 2B 2B 31  ...^.++1..A.#++1
0810: 0F 01 5F 80 23 2B 2B 31  0F 01 60 80 23 45 44 80  .._.#++1..`.#ED.
0820: F0 FF FF 7F F0 FF FF 7F  71 73 74 63 06 80 45 45  ........qstc..EE
0830: 80 F0 FF FF 7F F0 FF FF  7F 66 64 69 32 06 80 21  .........fdi2..!
0840: 00                                                .               
```

#### Opcodes

```
  0: 0x07A7 [0x42] SET_CLI_EVENT_CANCEL_DATA()
  1: 0x07A8 [0x4A] LocalPlayer looks at Anastase (ID: 17772843/0x010F312B)
  2: 0x07B1 [0x1C] WAIT(20* ticks)
  3: 0x07B4 [0x1E] EventEntity looks at LocalPlayer and starts talking
  4: 0x07B9 [0x03] Work_Zone[2] = 2166*
  5: 0x07BE [0x66] LOAD_EXT_SCHEDULER_MAIN: Load scheduler "twb0" with entities [Anastase (ID: 17772843/0x010F312B), Anastase (ID: 17772843/0x010F312B)], work=29*
  6: 0x07CD [0x2B] Anastase (ID: 17772843/0x010F312B) [15224*]:
    → "Hail, and good tidings. May I please take a look at your $3?"
  7: 0x07D4 [0x23] WAIT_FOR_DIALOG_INTERACTION
  8: 0x07D5 [0x2B] Anastase (ID: 17772843/0x010F312B) [15225*]:
    → "...!"
  9: 0x07DC [0x23] WAIT_FOR_DIALOG_INTERACTION
 10: 0x07DD [0x66] LOAD_EXT_SCHEDULER_MAIN: Load scheduler "twb1" with entities [Anastase (ID: 17772843/0x010F312B), Anastase (ID: 17772843/0x010F312B)], work=29*
 11: 0x07EC [0x2B] Anastase (ID: 17772843/0x010F312B) [15226*]:
    → "This...this is amazing!"
 12: 0x07F3 [0x23] WAIT_FOR_DIALOG_INTERACTION
 13: 0x07F4 [0x6E] Anastase (ID: 17772843/0x010F312B) uses emote 7*
 14: 0x07FB [0x99] Wait for Anastase (ID: 17772843/0x010F312B) animation to complete
 15: 0x0800 [0x03] Work_Zone[2] = 11*
 16: 0x0805 [0x2B] Anastase (ID: 17772843/0x010F312B) [15227*]:
    → "You have traveled to the $0 locations I have requested and recorded the data in the geomagnetic founts there!"
 17: 0x080C [0x23] WAIT_FOR_DIALOG_INTERACTION
 18: 0x080D [0x2B] Anastase (ID: 17772843/0x010F312B) [15259*]:
    → "The vim and vigor of you adventurers surely knows no bounds!"
 19: 0x0814 [0x23] WAIT_FOR_DIALOG_INTERACTION
 20: 0x0815 [0x2B] Anastase (ID: 17772843/0x010F312B) [15260*]:
    → "To imagine that one could accomplish my charge without shedding as much as a drop of sweat! And now, for your reward."
 21: 0x081C [0x23] WAIT_FOR_DIALOG_INTERACTION
 22: 0x081D [0x45] LOAD_SCHEDULED_TASK: Load scheduler "qstc" with entities [LocalPlayer, LocalPlayer], work=[201*, 0*]
 23: 0x082E [0x45] LOAD_SCHEDULED_TASK: Load scheduler "fdi2" with entities [LocalPlayer, LocalPlayer], work=[200*, 0*]
 24: 0x083F [0x21] END_EVENT
 25: 0x0840 [0x00] END_REQSTACK()
```

### Event 10220

#### Metadata

| Field        | Value     |
|--------------|-----------|
| Entrypoint   | 0x0841    |
| Data Size    | 100 bytes |
| Instructions | 20        |

```
      00 01 02 03 04 05 06 07  08 09 0A 0B 0C 0D 0E 0F
      -- -- -- -- -- -- -- --  -- -- -- -- -- -- -- --
0840:    4A F0 FF FF 7F 2B 31  0F 01 1C 04 80 1E F0 FF   J....+1........
0850: FF 7F 2B 2B 31 0F 01 61  80 23 2B 2B 31 0F 01 62  ..++1..a.#++1..b
0860: 80 23 66 01 80 2B 31 0F  01 2B 31 0F 01 74 68 6B  .#f..+1..+1..thk
0870: 31 2B 2B 31 0F 01 63 80  23 2B 2B 31 0F 01 64 80  1++1..c.#++1..d.
0880: 23 1C 4A 80 66 01 80 2B  31 0F 01 2B 31 0F 01 74  #.J.f..+1..+1..t
0890: 68 6B 32 2B 2B 31 0F 01  4B 80 23 2B 2B 31 0F 01  hk2++1..K.#++1..
08A0: 65 80 23 21 00                                    e.#!.           
```

#### Opcodes

```
  0: 0x0841 [0x4A] LocalPlayer looks at Anastase (ID: 17772843/0x010F312B)
  1: 0x084A [0x1C] WAIT(20* ticks)
  2: 0x084D [0x1E] EventEntity looks at LocalPlayer and starts talking
  3: 0x0852 [0x2B] Anastase (ID: 17772843/0x010F312B) [15261*]:
    → "Still, I have one concern. My compatriots have yet to return from their dispatch."
  4: 0x0859 [0x23] WAIT_FOR_DIALOG_INTERACTION
  5: 0x085A [0x2B] Anastase (ID: 17772843/0x010F312B) [15262*]:
    → "Though you have indicated to me that they are in good health, I remain concerned..."
  6: 0x0861 [0x23] WAIT_FOR_DIALOG_INTERACTION
  7: 0x0862 [0x66] LOAD_EXT_SCHEDULER_MAIN: Load scheduler "thk1" with entities [Anastase (ID: 17772843/0x010F312B), Anastase (ID: 17772843/0x010F312B)], work=29*
  8: 0x0871 [0x2B] Anastase (ID: 17772843/0x010F312B) [15263*]:
    → "Each must have their own reasons for not returning. With every step, a new journey..."
  9: 0x0878 [0x23] WAIT_FOR_DIALOG_INTERACTION
 10: 0x0879 [0x2B] Anastase (ID: 17772843/0x010F312B) [15264*]:
    → "Their commitment to our research must preclude their return. If that is so, then I must remain diligent as well!"
 11: 0x0880 [0x23] WAIT_FOR_DIALOG_INTERACTION
 12: 0x0881 [0x1C] WAIT(120* ticks)
 13: 0x0884 [0x66] LOAD_EXT_SCHEDULER_MAIN: Load scheduler "thk2" with entities [Anastase (ID: 17772843/0x010F312B), Anastase (ID: 17772843/0x010F312B)], work=29*
 14: 0x0893 [0x2B] Anastase (ID: 17772843/0x010F312B) [15234*]:
    → "Forgive my loose tongue. Some things should be found out for oneself."
 15: 0x089A [0x23] WAIT_FOR_DIALOG_INTERACTION
 16: 0x089B [0x2B] Anastase (ID: 17772843/0x010F312B) [15265*]:
    → "I shall inform you when I have new predictions in place, and pray that you will aid me yet again when the time comes."
 17: 0x08A2 [0x23] WAIT_FOR_DIALOG_INTERACTION
 18: 0x08A3 [0x21] END_EVENT
 19: 0x08A4 [0x00] END_REQSTACK()
```

### Event 10221

#### Metadata

| Field        | Value     |
|--------------|-----------|
| Entrypoint   | 0x08A5    |
| Data Size    | 234 bytes |
| Instructions | 38        |

```
      00 01 02 03 04 05 06 07  08 09 0A 0B 0C 0D 0E 0F
      -- -- -- -- -- -- -- --  -- -- -- -- -- -- -- --
08A0:                02 08 10  00 80 00 B5 08 0F 00 00       ...........
08B0: 08 80 01 BA 08 0F 00 00  12 80 4A F0 FF FF 7F 2B  ..........J....+
08C0: 31 0F 01 1C 04 80 1E F0  FF FF 7F 2B 2B 31 0F 01  1..........++1..
08D0: 2E 80 23 43 00 43 01 03  04 00 05 10 03 01 10 06  ..#C.C..........
08E0: 80 24 66 80 06 80 00 00  25 02 00 10 06 80 00 33  .$f.....%......3
08F0: 09 42 03 01 10 08 80 66  01 80 2B 31 0F 01 2B 31  .B.....f..+1..+1
0900: 0F 01 74 77 62 30 2B 2B  31 0F 01 67 80 23 2B 2B  ..twb0++1..g.#++
0910: 31 0F 01 68 80 23 2B 2B  31 0F 01 69 80 23 66 01  1..h.#++1..i.#f.
0920: 80 2B 31 0F 01 2B 31 0F  01 74 77 62 31 1A CE 11  .+1..+1..twb1...
0930: 01 8D 09 02 00 10 08 80  00 49 09 2B 2B 31 0F 01  .........I.++1..
0940: 69 80 23 1A CE 11 01 8D  09 02 00 10 12 80 00 5A  i.#............Z
0950: 09 1A 7C 0F 01 DC 08 01  8D 09 02 00 10 00 80 00  ..|.............
0960: 6B 09 1A F1 0F 01 DC 08  01 8D 09 02 00 10 38 80  k.............8.
0970: 00 8D 09 6E 2B 31 0F 01  08 80 99 2B 31 0F 01 2B  ...n+1.....+1..+
0980: 2B 31 0F 01 0E 80 1C 0F  80 23 01 8D 09 21 00     +1.......#...!. 
```

#### Opcodes

```
  0: 0x08A5 [0x02] IF !(Work_Zone[8] == 3*) GOTO 0x08B5
  1: 0x08AD [0x0F] ExtData[1]->WorkLocal[0] ^= 1*
  2: 0x08B2 [0x01] GOTO 0x08BA
  3: 0x08B5 [0x0F] ExtData[1]->WorkLocal[0] ^= 2*

SUBROUTINE_08BA:
  4: 0x08BA [0x4A] LocalPlayer looks at Anastase (ID: 17772843/0x010F312B)
  5: 0x08C3 [0x1C] WAIT(20* ticks)
  6: 0x08C6 [0x1E] EventEntity looks at LocalPlayer and starts talking
  7: 0x08CB [0x2B] Anastase (ID: 17772843/0x010F312B) [15236*]:
    → "<Player>, my friend! It is good to see you again. With what may I assist you today?"
  8: 0x08D2 [0x23] WAIT_FOR_DIALOG_INTERACTION
  9: 0x08D3 [0x43] SEND_EVENT_UPDATE: Send pending tag to server (packet 0x005B)
 10: 0x08D5 [0x43] SEND_EVENT_UPDATE: Check pending flag (skip if not pending)
 11: 0x08D7 [0x03] ExtData[1]->WorkLocal[4] = Work_Zone[5]

SUBROUTINE_08DC:
 12: 0x08DC [0x03] Work_Zone[1] = 0*
 13: 0x08E1 [0x24] CREATE_DIALOG(message_id=15266*, default_option=0*, option_flags=ExtData[1]->WorkLocal[0])
    → "Any questions? [Must have more warp destinations!/Any new founts?/What about these waypoints?/What do I do again?/Thanks, but no thanks.]"
 14: 0x08E8 [0x25] WAIT_DIALOG_SELECT()
 15: 0x08E9 [0x02] IF !(Work_Zone[0] == 0*) GOTO 0x0933
 16: 0x08F1 [0x42] SET_CLI_EVENT_CANCEL_DATA()
 17: 0x08F2 [0x03] Work_Zone[1] = 1*
 18: 0x08F7 [0x66] LOAD_EXT_SCHEDULER_MAIN: Load scheduler "twb0" with entities [Anastase (ID: 17772843/0x010F312B), Anastase (ID: 17772843/0x010F312B)], work=29*
 19: 0x0906 [0x2B] Anastase (ID: 17772843/0x010F312B) [15267*]:
    → "I sense the hands of fate have bound us together through our mutually insatiable curiosity."
 20: 0x090D [0x23] WAIT_FOR_DIALOG_INTERACTION
 21: 0x090E [0x2B] Anastase (ID: 17772843/0x010F312B) [15268*]:
    → "And yes, my intrepid friend, Quwi Orihbhe has found yet more locations for us...well, you...to examine."
 22: 0x0915 [0x23] WAIT_FOR_DIALOG_INTERACTION
 23: 0x0916 [0x2B] Anastase (ID: 17772843/0x010F312B) [15269*]:
    → "Would you like to hear more?"
 24: 0x091D [0x23] WAIT_FOR_DIALOG_INTERACTION
 25: 0x091E [0x66] LOAD_EXT_SCHEDULER_MAIN: Load scheduler "twb1" with entities [Anastase (ID: 17772843/0x010F312B), Anastase (ID: 17772843/0x010F312B)], work=29*
 26: 0x092D [0x1A] CALL_SUBROUTINE(address=0x11CE)
 27: 0x0930 [0x01] GOTO 0x098D
 28: 0x0933 [0x02] IF !(Work_Zone[0] == 1*) GOTO 0x0949
 29: 0x093B [0x2B] Anastase (ID: 17772843/0x010F312B) [15269*]:
    → "Would you like to hear more?"
 30: 0x0942 [0x23] WAIT_FOR_DIALOG_INTERACTION
 31: 0x0943 [0x1A] CALL_SUBROUTINE(address=0x11CE)
 32: 0x0946 [0x01] GOTO 0x098D
 33: 0x0949 [0x02] IF !(Work_Zone[0] == 2*) GOTO 0x095A
 34: 0x0951 [0x1A] CALL_SUBROUTINE(address=0x0F7C)
 35: 0x0954 [0x01] GOTO 0x08DC

SUBROUTINE_098D:
 36: 0x098D [0x21] END_EVENT
 37: 0x098E [0x00] END_REQSTACK()
```

#### Data or dead code:

```
# Dead code (unreachable instructions):
     0x0957 [0x01] GOTO 0x098D
     0x0968 [0x01] GOTO 0x098D
```

### Event 10222

#### Metadata

| Field        | Value     |
|--------------|-----------|
| Entrypoint   | 0x098F    |
| Data Size    | 237 bytes |
| Instructions | 41        |

```
      00 01 02 03 04 05 06 07  08 09 0A 0B 0C 0D 0E 0F
      -- -- -- -- -- -- -- --  -- -- -- -- -- -- -- --
0980:                                               42                 B
0990: 4A F0 FF FF 7F 2B 31 0F  01 1C 04 80 1E F0 FF FF  J....+1.........
09A0: 7F 2B 2B 31 0F 01 51 80  23 2B 2B 31 0F 01 6A 80  .++1..Q.#++1..j.
09B0: 23 6E 2B 31 0F 01 01 80  99 2B 31 0F 01 03 02 10  #n+1.....+1.....
09C0: 13 80 2B 2B 31 0F 01 53  80 23 2B 2B 31 0F 01 54  ..++1..S.#++1..T
09D0: 80 23 6E 2B 31 0F 01 6B  80 99 2B 31 0F 01 2B 2B  .#n+1..k..+1..++
09E0: 31 0F 01 6C 80 23 1C 58  80 2B 2B 31 0F 01 6D 80  1..l.#.X.++1..m.
09F0: 23 66 01 80 2B 31 0F 01  2B 31 0F 01 74 68 6B 31  #f..+1..+1..thk1
0A00: 2B 2B 31 0F 01 6E 80 23  1C 0F 80 66 01 80 2B 31  ++1..n.#...f..+1
0A10: 0F 01 2B 31 0F 01 74 68  6B 32 2B 2B 31 0F 01 5A  ..+1..thk2++1..Z
0A20: 80 23 2B 2B 31 0F 01 6F  80 23 66 01 80 2B 31 0F  .#++1..o.#f..+1.
0A30: 01 2B 31 0F 01 74 77 62  30 2B 2B 31 0F 01 70 80  .+1..twb0++1..p.
0A40: 23 2B 2B 31 0F 01 5D 80  23 66 01 80 2B 31 0F 01  #++1..].#f..+1..
0A50: 2B 31 0F 01 74 77 62 31  45 44 80 F0 FF FF 7F F0  +1..twb1ED......
0A60: FF FF 7F 71 73 74 63 06  80 45 45 80 F0 FF FF 7F  ...qstc..EE.....
0A70: F0 FF FF 7F 66 64 69 32  06 80 21 00              ....fdi2..!.    
```

#### Opcodes

```
  0: 0x098F [0x42] SET_CLI_EVENT_CANCEL_DATA()
  1: 0x0990 [0x4A] LocalPlayer looks at Anastase (ID: 17772843/0x010F312B)
  2: 0x0999 [0x1C] WAIT(20* ticks)
  3: 0x099C [0x1E] EventEntity looks at LocalPlayer and starts talking
  4: 0x09A1 [0x2B] Anastase (ID: 17772843/0x010F312B) [15248*]:
    → "Ah yes, <Player>. I had been hoping you would grace me with your presence."
  5: 0x09A8 [0x23] WAIT_FOR_DIALOG_INTERACTION
  6: 0x09A9 [0x2B] Anastase (ID: 17772843/0x010F312B) [15276*]:
    → "As you most likely have presumed, Quwi Orhibhe has...oh?"
  7: 0x09B0 [0x23] WAIT_FOR_DIALOG_INTERACTION
  8: 0x09B1 [0x6E] Anastase (ID: 17772843/0x010F312B) uses emote 29*
  9: 0x09B8 [0x99] Wait for Anastase (ID: 17772843/0x010F312B) animation to complete
 10: 0x09BD [0x03] Work_Zone[2] = 2166*
 11: 0x09C2 [0x2B] Anastase (ID: 17772843/0x010F312B) [15250*]:
    → "What is this aura I sense coming from your $3? May I...?"
 12: 0x09C9 [0x23] WAIT_FOR_DIALOG_INTERACTION
 13: 0x09CA [0x2B] Anastase (ID: 17772843/0x010F312B) [15251*]:
    → "...?"
 14: 0x09D1 [0x23] WAIT_FOR_DIALOG_INTERACTION
 15: 0x09D2 [0x6E] Anastase (ID: 17772843/0x010F312B) uses emote 21*
 16: 0x09D9 [0x99] Wait for Anastase (ID: 17772843/0x010F312B) animation to complete
 17: 0x09DE [0x2B] Anastase (ID: 17772843/0x010F312B) [15277*]:
    → "...! The founts are...already recorded!?"
 18: 0x09E5 [0x23] WAIT_FOR_DIALOG_INTERACTION
 19: 0x09E6 [0x1C] WAIT(60* ticks)
 20: 0x09E9 [0x2B] Anastase (ID: 17772843/0x010F312B) [15278*]:
    → "What...what sorcery is this?"
 21: 0x09F0 [0x23] WAIT_FOR_DIALOG_INTERACTION
 22: 0x09F1 [0x66] LOAD_EXT_SCHEDULER_MAIN: Load scheduler "thk1" with entities [Anastase (ID: 17772843/0x010F312B), Anastase (ID: 17772843/0x010F312B)], work=29*
 23: 0x0A00 [0x2B] Anastase (ID: 17772843/0x010F312B) [15279*]:
    → "Do you have feelers throughout the far reaches of the land? Or...are you a wizard?"
 24: 0x0A07 [0x23] WAIT_FOR_DIALOG_INTERACTION
 25: 0x0A08 [0x1C] WAIT(180* ticks)
 26: 0x0A0B [0x66] LOAD_EXT_SCHEDULER_MAIN: Load scheduler "thk2" with entities [Anastase (ID: 17772843/0x010F312B), Anastase (ID: 17772843/0x010F312B)], work=29*
 27: 0x0A1A [0x2B] Anastase (ID: 17772843/0x010F312B) [15255*]:
    → "Ah! Forgive my sudden outburst. Your actions have stirred latent emotions within me."
 28: 0x0A21 [0x23] WAIT_FOR_DIALOG_INTERACTION
 29: 0x0A22 [0x2B] Anastase (ID: 17772843/0x010F312B) [15280*]:
    → "My feeble mind cannot comprehend how you have already found the geomagnetic founts that have only just now been divined. H-how..."
 30: 0x0A29 [0x23] WAIT_FOR_DIALOG_INTERACTION
 31: 0x0A2A [0x66] LOAD_EXT_SCHEDULER_MAIN: Load scheduler "twb0" with entities [Anastase (ID: 17772843/0x010F312B), Anastase (ID: 17772843/0x010F312B)], work=29*
 32: 0x0A39 [0x2B] Anastase (ID: 17772843/0x010F312B) [15281*]:
    → "I do not know by what means you have obtained such information, but I sense that it was some extra-dimensional force...where information is contained for all to see."
 33: 0x0A40 [0x23] WAIT_FOR_DIALOG_INTERACTION
 34: 0x0A41 [0x2B] Anastase (ID: 17772843/0x010F312B) [15258*]:
    → "I presume it best to offer you this in compensation for your troubles...even though in this case, you have completed my task without any intervention on my part."
 35: 0x0A48 [0x23] WAIT_FOR_DIALOG_INTERACTION
 36: 0x0A49 [0x66] LOAD_EXT_SCHEDULER_MAIN: Load scheduler "twb1" with entities [Anastase (ID: 17772843/0x010F312B), Anastase (ID: 17772843/0x010F312B)], work=29*
 37: 0x0A58 [0x45] LOAD_SCHEDULED_TASK: Load scheduler "qstc" with entities [LocalPlayer, LocalPlayer], work=[201*, 0*]
 38: 0x0A69 [0x45] LOAD_SCHEDULED_TASK: Load scheduler "fdi2" with entities [LocalPlayer, LocalPlayer], work=[200*, 0*]
 39: 0x0A7A [0x21] END_EVENT
 40: 0x0A7B [0x00] END_REQSTACK()
```

### Event 10223

#### Metadata

| Field        | Value     |
|--------------|-----------|
| Entrypoint   | 0x0A7C    |
| Data Size    | 154 bytes |
| Instructions | 26        |

```
      00 01 02 03 04 05 06 07  08 09 0A 0B 0C 0D 0E 0F
      -- -- -- -- -- -- -- --  -- -- -- -- -- -- -- --
0A70:                                      42 4A F0 FF              BJ..
0A80: FF 7F 2B 31 0F 01 1C 04  80 1E F0 FF FF 7F 03 02  ..+1............
0A90: 10 13 80 66 01 80 2B 31  0F 01 2B 31 0F 01 74 77  ...f..+1..+1..tw
0AA0: 62 30 2B 2B 31 0F 01 71  80 23 2B 2B 31 0F 01 3F  b0++1..q.#++1..?
0AB0: 80 23 66 01 80 2B 31 0F  01 2B 31 0F 01 74 77 62  .#f..+1..+1..twb
0AC0: 31 2B 2B 31 0F 01 40 80  23 6E 2B 31 0F 01 20 80  1++1..@.#n+1.. .
0AD0: 99 2B 31 0F 01 03 02 10  72 80 2B 2B 31 0F 01 41  .+1.....r.++1..A
0AE0: 80 23 2B 2B 31 0F 01 73  80 23 2B 2B 31 0F 01 74  .#++1..s.#++1..t
0AF0: 80 23 45 44 80 F0 FF FF  7F F0 FF FF 7F 71 73 74  .#ED.........qst
0B00: 63 06 80 45 45 80 F0 FF  FF 7F F0 FF FF 7F 66 64  c..EE.........fd
0B10: 69 32 06 80 21 00                                 i2..!.          
```

#### Opcodes

```
  0: 0x0A7C [0x42] SET_CLI_EVENT_CANCEL_DATA()
  1: 0x0A7D [0x4A] LocalPlayer looks at Anastase (ID: 17772843/0x010F312B)
  2: 0x0A86 [0x1C] WAIT(20* ticks)
  3: 0x0A89 [0x1E] EventEntity looks at LocalPlayer and starts talking
  4: 0x0A8E [0x03] Work_Zone[2] = 2166*
  5: 0x0A93 [0x66] LOAD_EXT_SCHEDULER_MAIN: Load scheduler "twb0" with entities [Anastase (ID: 17772843/0x010F312B), Anastase (ID: 17772843/0x010F312B)], work=29*
  6: 0x0AA2 [0x2B] Anastase (ID: 17772843/0x010F312B) [15282*]:
    → "I am pleased that you have returned safely. May I see your $3?"
  7: 0x0AA9 [0x23] WAIT_FOR_DIALOG_INTERACTION
  8: 0x0AAA [0x2B] Anastase (ID: 17772843/0x010F312B) [15225*]:
    → "...!"
  9: 0x0AB1 [0x23] WAIT_FOR_DIALOG_INTERACTION
 10: 0x0AB2 [0x66] LOAD_EXT_SCHEDULER_MAIN: Load scheduler "twb1" with entities [Anastase (ID: 17772843/0x010F312B), Anastase (ID: 17772843/0x010F312B)], work=29*
 11: 0x0AC1 [0x2B] Anastase (ID: 17772843/0x010F312B) [15226*]:
    → "This...this is amazing!"
 12: 0x0AC8 [0x23] WAIT_FOR_DIALOG_INTERACTION
 13: 0x0AC9 [0x6E] Anastase (ID: 17772843/0x010F312B) uses emote 7*
 14: 0x0AD0 [0x99] Wait for Anastase (ID: 17772843/0x010F312B) animation to complete
 15: 0x0AD5 [0x03] Work_Zone[2] = 10*
 16: 0x0ADA [0x2B] Anastase (ID: 17772843/0x010F312B) [15227*]:
    → "You have traveled to the $0 locations I have requested and recorded the data in the geomagnetic founts there!"
 17: 0x0AE1 [0x23] WAIT_FOR_DIALOG_INTERACTION
 18: 0x0AE2 [0x2B] Anastase (ID: 17772843/0x010F312B) [15283*]:
    → "Your efforts have taken you to lands both far and wide. I congratulate you on having trekked so far throughout Vana'diel."
 19: 0x0AE9 [0x23] WAIT_FOR_DIALOG_INTERACTION
 20: 0x0AEA [0x2B] Anastase (ID: 17772843/0x010F312B) [15284*]:
    → "There are no words to describe how I feel for all you have done. Even my most compelling reward is an insufficient prize."
 21: 0x0AF1 [0x23] WAIT_FOR_DIALOG_INTERACTION
 22: 0x0AF2 [0x45] LOAD_SCHEDULED_TASK: Load scheduler "qstc" with entities [LocalPlayer, LocalPlayer], work=[201*, 0*]
 23: 0x0B03 [0x45] LOAD_SCHEDULED_TASK: Load scheduler "fdi2" with entities [LocalPlayer, LocalPlayer], work=[200*, 0*]
 24: 0x0B14 [0x21] END_EVENT
 25: 0x0B15 [0x00] END_REQSTACK()
```

### Event 10224

#### Metadata

| Field        | Value    |
|--------------|----------|
| Entrypoint   | 0x0B16   |
| Data Size    | 74 bytes |
| Instructions | 14       |

```
      00 01 02 03 04 05 06 07  08 09 0A 0B 0C 0D 0E 0F
      -- -- -- -- -- -- -- --  -- -- -- -- -- -- -- --
0B10:                   4A F0  FF FF 7F 2B 31 0F 01 1C        J....+1...
0B20: 04 80 1E F0 FF FF 7F 2B  2B 31 0F 01 75 80 23 66  .......++1..u.#f
0B30: 01 80 2B 31 0F 01 2B 31  0F 01 74 6C 6B 30 2B 2B  ..+1..+1..tlk0++
0B40: 31 0F 01 76 80 23 2B 2B  31 0F 01 77 80 23 66 01  1..v.#++1..w.#f.
0B50: 80 2B 31 0F 01 2B 31 0F  01 74 6C 6B 31 23 21 00  .+1..+1..tlk1#!.
```

#### Opcodes

```
  0: 0x0B16 [0x4A] LocalPlayer looks at Anastase (ID: 17772843/0x010F312B)
  1: 0x0B1F [0x1C] WAIT(20* ticks)
  2: 0x0B22 [0x1E] EventEntity looks at LocalPlayer and starts talking
  3: 0x0B27 [0x2B] Anastase (ID: 17772843/0x010F312B) [15285*]:
    → "Have you gotten used to using our warp technology? Is it to your liking?"
  4: 0x0B2E [0x23] WAIT_FOR_DIALOG_INTERACTION
  5: 0x0B2F [0x66] LOAD_EXT_SCHEDULER_MAIN: Load scheduler "tlk0" with entities [Anastase (ID: 17772843/0x010F312B), Anastase (ID: 17772843/0x010F312B)], work=29*
  6: 0x0B3E [0x2B] Anastase (ID: 17772843/0x010F312B) [15286*]:
    → "The theoretical magical calculations behind these waypoints are based on, if my records are correct, studies done here in the Middle Lands."
  7: 0x0B45 [0x23] WAIT_FOR_DIALOG_INTERACTION
  8: 0x0B46 [0x2B] Anastase (ID: 17772843/0x010F312B) [15287*]:
    → "I was but a fledgling researcher at that time, so I am a tad hazy on the details of it all, but my journey from Adoulin has more meaning in light of that fact."
  9: 0x0B4D [0x23] WAIT_FOR_DIALOG_INTERACTION
 10: 0x0B4E [0x66] LOAD_EXT_SCHEDULER_MAIN: Load scheduler "tlk1" with entities [Anastase (ID: 17772843/0x010F312B), Anastase (ID: 17772843/0x010F312B)], work=29*
 11: 0x0B5D [0x23] WAIT_FOR_DIALOG_INTERACTION
 12: 0x0B5E [0x21] END_EVENT
 13: 0x0B5F [0x00] END_REQSTACK()
```

### Event 10225

#### Metadata

| Field        | Value     |
|--------------|-----------|
| Entrypoint   | 0x0B60    |
| Data Size    | 682 bytes |
| Instructions | 112       |

```
      00 01 02 03 04 05 06 07  08 09 0A 0B 0C 0D 0E 0F
      -- -- -- -- -- -- -- --  -- -- -- -- -- -- -- --
0B60: 02 08 10 00 80 00 70 0B  0F 00 00 38 80 01 75 0B  ......p....8..u.
0B70: 0F 00 00 78 80 03 01 00  09 10 4A F0 FF FF 7F 2B  ...x......J....+
0B80: 31 0F 01 1C 04 80 1E F0  FF FF 7F 2B 2B 31 0F 01  1..........++1..
0B90: 2E 80 23 03 01 10 06 80  24 79 80 06 80 00 00 25  ..#.....$y.....%
0BA0: 02 00 10 06 80 00 B1 0B  1A 7C 0F 01 93 0B 01 08  .........|......
0BB0: 0E 02 00 10 08 80 00 C2  0B 1A F1 0F 01 93 0B 01  ................
0BC0: 08 0E 02 00 10 12 80 00  81 0D 66 01 80 2B 31 0F  ..........f..+1.
0BD0: 01 2B 31 0F 01 74 77 62  30 2B 2B 31 0F 01 7A 80  .+1..twb0++1..z.
0BE0: 23 2B 2B 31 0F 01 7B 80  23 1C 0F 80 66 01 80 2B  #++1..{.#...f..+
0BF0: 31 0F 01 2B 31 0F 01 74  77 62 31 2B 2B 31 0F 01  1..+1..twb1++1..
0C00: 7C 80 23 2B 2B 31 0F 01  7D 80 23 2B 2B 31 0F 01  |.#++1..}.#++1..
0C10: 7E 80 23 24 7F 80 06 80  06 80 25 02 00 10 06 80  ~.#$......%.....
0C20: 00 B9 0C 66 01 80 2B 31  0F 01 2B 31 0F 01 74 6C  ...f..+1..+1..tl
0C30: 6B 30 2B 2B 31 0F 01 80  80 23 24 81 80 06 80 06  k0++1....#$.....
0C40: 80 25 02 00 10 06 80 00  84 0C 66 01 80 2B 31 0F  .%........f..+1.
0C50: 01 2B 31 0F 01 74 6C 6B  31 2B 2B 31 0F 01 82 80  .+1..tlk1++1....
0C60: 23 2B 2B 31 0F 01 83 80  23 03 02 10 84 80 2B 2B  #++1....#.....++
0C70: 31 0F 01 85 80 23 2B 2B  31 0F 01 86 80 23 1A 00  1....#++1....#..
0C80: 15 01 B6 0C 02 00 10 08  80 00 B6 0C 66 01 80 2B  ............f..+
0C90: 31 0F 01 2B 31 0F 01 74  6C 6B 31 6E 2B 31 0F 01  1..+1..tlk1n+1..
0CA0: 20 80 99 2B 31 0F 01 2B  2B 31 0F 01 87 80 23 1C   ..+1..++1....#.
0CB0: 4A 80 23 01 B6 0C 01 7E  0D 02 00 10 08 80 00 DC  J.#....~........
0CC0: 0C 6E 2B 31 0F 01 20 80  99 2B 31 0F 01 2B 2B 31  .n+1.. ..+1..++1
0CD0: 0F 01 87 80 23 1C 4A 80  23 01 7E 0D 02 00 10 12  ....#.J.#.~.....
0CE0: 80 00 7E 0D 2B 2B 31 0F  01 88 80 23 2B 2B 31 0F  ..~.++1....#++1.
0CF0: 01 89 80 23 2B 2B 31 0F  01 8A 80 23 66 01 80 2B  ...#++1....#f..+
0D00: 31 0F 01 2B 31 0F 01 74  77 62 30 03 02 10 84 80  1..+1..twb0.....
0D10: 2B 2B 31 0F 01 8B 80 23  2B 2B 31 0F 01 8C 80 23  ++1....#++1....#
0D20: 2B 2B 31 0F 01 8D 80 23  66 01 80 2B 31 0F 01 2B  ++1....#f..+1..+
0D30: 31 0F 01 74 77 62 31 2B  2B 31 0F 01 8E 80 23 66  1..twb1++1....#f
0D40: 01 80 2B 31 0F 01 2B 31  0F 01 74 68 6B 31 2B 2B  ..+1..+1..thk1++
0D50: 31 0F 01 8F 80 23 1C 0F  80 66 01 80 2B 31 0F 01  1....#...f..+1..
0D60: 2B 31 0F 01 74 68 6B 32  2B 2B 31 0F 01 90 80 23  +1..thk2++1....#
0D70: 2B 2B 31 0F 01 91 80 23  01 13 0C 01 7E 0D 01 08  ++1....#....~...
0D80: 0E 02 00 10 00 80 00 98  0D 42 2B 2B 31 0F 01 92  .........B++1...
0D90: 80 23 1A 00 15 01 08 0E  02 00 10 38 80 00 08 0E  .#.........8....
0DA0: 02 01 00 1C 80 00 EE 0D  2B 2B 31 0F 01 93 80 23  ........++1....#
0DB0: 66 01 80 2B 31 0F 01 2B  31 0F 01 74 77 62 30 03  f..+1..+1..twb0.
0DC0: 02 10 21 80 2B 2B 31 0F  01 94 80 23 2B 2B 31 0F  ..!.++1....#++1.
0DD0: 01 95 80 23 2B 2B 31 0F  01 96 80 23 66 01 80 2B  ...#++1....#f..+
0DE0: 31 0F 01 2B 31 0F 01 74  77 62 31 01 05 0E 6E 2B  1..+1..twb1...n+
0DF0: 31 0F 01 08 80 99 2B 31  0F 01 2B 2B 31 0F 01 0E  1.....+1..++1...
0E00: 80 1C 0F 80 23 01 08 0E  21 00                    ....#...!.      
```

#### Opcodes

```
  0: 0x0B60 [0x02] IF !(Work_Zone[8] == 3*) GOTO 0x0B70
  1: 0x0B68 [0x0F] ExtData[1]->WorkLocal[0] ^= 4*
  2: 0x0B6D [0x01] GOTO 0x0B75
  3: 0x0B70 [0x0F] ExtData[1]->WorkLocal[0] ^= 8*

SUBROUTINE_0B75:
  4: 0x0B75 [0x03] ExtData[1]->WorkLocal[1] = Work_Zone[9]
  5: 0x0B7A [0x4A] LocalPlayer looks at Anastase (ID: 17772843/0x010F312B)
  6: 0x0B83 [0x1C] WAIT(20* ticks)
  7: 0x0B86 [0x1E] EventEntity looks at LocalPlayer and starts talking
  8: 0x0B8B [0x2B] Anastase (ID: 17772843/0x010F312B) [15236*]:
    → "<Player>, my friend! It is good to see you again. With what may I assist you today?"
  9: 0x0B92 [0x23] WAIT_FOR_DIALOG_INTERACTION

SUBROUTINE_0B93:
 10: 0x0B93 [0x03] Work_Zone[1] = 0*
 11: 0x0B98 [0x24] CREATE_DIALOG(message_id=15288*, default_option=0*, option_flags=ExtData[1]->WorkLocal[0])
    → "What would you like to know? [What about these waypoints?/I need more information./ /Can I give you a hand with...you know?/Thank you, and good day.]"
 12: 0x0B9F [0x25] WAIT_DIALOG_SELECT()
 13: 0x0BA0 [0x02] IF !(Work_Zone[0] == 0*) GOTO 0x0BB1
 14: 0x0BA8 [0x1A] CALL_SUBROUTINE(address=0x0F7C)
 15: 0x0BAB [0x01] GOTO 0x0B93

SUBROUTINE_0C13:
 16: 0x0C13 [0x24] CREATE_DIALOG(message_id=15293*, default_option=0*, option_flags=0*)
    → "Accept his task? [It couldn't hurt...much./On second thought.../Tell me more.]"
 17: 0x0C1A [0x25] WAIT_DIALOG_SELECT()
 18: 0x0C1B [0x02] IF !(Work_Zone[0] == 0*) GOTO 0x0CB9
 19: 0x0C23 [0x66] LOAD_EXT_SCHEDULER_MAIN: Load scheduler "tlk0" with entities [Anastase (ID: 17772843/0x010F312B), Anastase (ID: 17772843/0x010F312B)], work=29*
 20: 0x0C32 [0x2B] Anastase (ID: 17772843/0x010F312B) [15305*]:
    → "Y-you mean it? I had just been bluffing, but you're really going to...?"
 21: 0x0C39 [0x23] WAIT_FOR_DIALOG_INTERACTION
 22: 0x0C3A [0x24] CREATE_DIALOG(message_id=15306*, default_option=0*, option_flags=0*)
    → "Are you absolutely sure? [Adventure awaits!/You couldn't pay me enough.]"
 23: 0x0C41 [0x25] WAIT_DIALOG_SELECT()
 24: 0x0C42 [0x02] IF !(Work_Zone[0] == 0*) GOTO 0x0C84
 25: 0x0C4A [0x66] LOAD_EXT_SCHEDULER_MAIN: Load scheduler "tlk1" with entities [Anastase (ID: 17772843/0x010F312B), Anastase (ID: 17772843/0x010F312B)], work=29*
 26: 0x0C59 [0x2B] Anastase (ID: 17772843/0x010F312B) [15307*]:
    → "An adventurer you are, in the literal sense of the word!"
 27: 0x0C60 [0x23] WAIT_FOR_DIALOG_INTERACTION
 28: 0x0C61 [0x2B] Anastase (ID: 17772843/0x010F312B) [15308*]:
    → "Let me respond to your courageous request with the utmost confidence!"
 29: 0x0C68 [0x23] WAIT_FOR_DIALOG_INTERACTION
 30: 0x0C69 [0x03] Work_Zone[2] = 2196*
 31: 0x0C6E [0x2B] Anastase (ID: 17772843/0x010F312B) [15309*]:
    → "I hereby present you with this $3. Take it with you to areas for which the recorded data has begun to deteriorate."
 32: 0x0C75 [0x23] WAIT_FOR_DIALOG_INTERACTION
 33: 0x0C76 [0x2B] Anastase (ID: 17772843/0x010F312B) [15310*]:
    → "There are several locations in question. Which will you choose?"
 34: 0x0C7D [0x23] WAIT_FOR_DIALOG_INTERACTION
 35: 0x0C7E [0x1A] CALL_SUBROUTINE(address=0x1500)
 36: 0x0C81 [0x01] GOTO 0x0CB6
 37: 0x0C84 [0x02] IF !(Work_Zone[0] == 1*) GOTO 0x0CB6
 38: 0x0C8C [0x66] LOAD_EXT_SCHEDULER_MAIN: Load scheduler "tlk1" with entities [Anastase (ID: 17772843/0x010F312B), Anastase (ID: 17772843/0x010F312B)], work=29*
 39: 0x0C9B [0x6E] Anastase (ID: 17772843/0x010F312B) uses emote 7*
 40: 0x0CA2 [0x99] Wait for Anastase (ID: 17772843/0x010F312B) animation to complete
 41: 0x0CA7 [0x2B] Anastase (ID: 17772843/0x010F312B) [15294*]:
    → "A dead adventurer is of no use to anyone. I cannot fault you for choosing the better part of valor."
 42: 0x0CAE [0x23] WAIT_FOR_DIALOG_INTERACTION
 43: 0x0CAF [0x1C] WAIT(120* ticks)
 44: 0x0CB2 [0x23] WAIT_FOR_DIALOG_INTERACTION
 45: 0x0CB3 [0x01] GOTO 0x0CB6

SUBROUTINE_0CB6:
 46: 0x0CB6 [0x01] GOTO 0x0D7E
 47: 0x0CB9 [0x02] IF !(Work_Zone[0] == 1*) GOTO 0x0CDC
 48: 0x0CC1 [0x6E] Anastase (ID: 17772843/0x010F312B) uses emote 7*
 49: 0x0CC8 [0x99] Wait for Anastase (ID: 17772843/0x010F312B) animation to complete
 50: 0x0CCD [0x2B] Anastase (ID: 17772843/0x010F312B) [15294*]:
    → "A dead adventurer is of no use to anyone. I cannot fault you for choosing the better part of valor."
 51: 0x0CD4 [0x23] WAIT_FOR_DIALOG_INTERACTION
 52: 0x0CD5 [0x1C] WAIT(120* ticks)
 53: 0x0CD8 [0x23] WAIT_FOR_DIALOG_INTERACTION
 54: 0x0CD9 [0x01] GOTO 0x0D7E
 55: 0x0CDC [0x02] IF !(Work_Zone[0] == 2*) GOTO 0x0D7E
 56: 0x0CE4 [0x2B] Anastase (ID: 17772843/0x010F312B) [15295*]:
    → "What I am about to tell you has never before occurred in Adoulin, so I admit to being at a bit of a loss."
 57: 0x0CEB [0x23] WAIT_FOR_DIALOG_INTERACTION
 58: 0x0CEC [0x2B] Anastase (ID: 17772843/0x010F312B) [15296*]:
    → "Parties representing, er, former patrons of these waypoints have reported certain...anomalies. Specifically, they occasionally fall down from the heavens. Splat."
 59: 0x0CF3 [0x23] WAIT_FOR_DIALOG_INTERACTION
 60: 0x0CF4 [0x2B] Anastase (ID: 17772843/0x010F312B) [15297*]:
    → "My confidantes have been working tirelessly to determine the root cause, and our working theory is that over time, the recorded information becomes weak and unstable."
 61: 0x0CFB [0x23] WAIT_FOR_DIALOG_INTERACTION
 62: 0x0CFC [0x66] LOAD_EXT_SCHEDULER_MAIN: Load scheduler "twb0" with entities [Anastase (ID: 17772843/0x010F312B), Anastase (ID: 17772843/0x010F312B)], work=29*
 63: 0x0D0B [0x03] Work_Zone[2] = 2196*
 64: 0x0D10 [0x2B] Anastase (ID: 17772843/0x010F312B) [15298*]:
    → "I would ask that you take this $3 and warp to the problematic locales."
 65: 0x0D17 [0x23] WAIT_FOR_DIALOG_INTERACTION
 66: 0x0D18 [0x2B] Anastase (ID: 17772843/0x010F312B) [15299*]:
    → "Once there, you can confirm the integrity of the spot and correct the recorded information as necessary."
 67: 0x0D1F [0x23] WAIT_FOR_DIALOG_INTERACTION
 68: 0x0D20 [0x2B] Anastase (ID: 17772843/0x010F312B) [15300*]:
    → "This all sounds more complicated than it really is. All you must do is re-attune the stone to the geomagnetic fount."
 69: 0x0D27 [0x23] WAIT_FOR_DIALOG_INTERACTION
 70: 0x0D28 [0x66] LOAD_EXT_SCHEDULER_MAIN: Load scheduler "twb1" with entities [Anastase (ID: 17772843/0x010F312B), Anastase (ID: 17772843/0x010F312B)], work=29*
 71: 0x0D37 [0x2B] Anastase (ID: 17772843/0x010F312B) [15301*]:
    → "As you have likely gathered, the instability means that I cannot guarantee that you will arrive at your intended destination."
 72: 0x0D3E [0x23] WAIT_FOR_DIALOG_INTERACTION
 73: 0x0D3F [0x66] LOAD_EXT_SCHEDULER_MAIN: Load scheduler "thk1" with entities [Anastase (ID: 17772843/0x010F312B), Anastase (ID: 17772843/0x010F312B)], work=29*
 74: 0x0D4E [0x2B] Anastase (ID: 17772843/0x010F312B) [15302*]:
    → "You could end up facing monsters tooth and claw, or be surrounded by an impenetrable mist that seeps into your very soul."
 75: 0x0D55 [0x23] WAIT_FOR_DIALOG_INTERACTION
 76: 0x0D56 [0x1C] WAIT(180* ticks)
 77: 0x0D59 [0x66] LOAD_EXT_SCHEDULER_MAIN: Load scheduler "thk2" with entities [Anastase (ID: 17772843/0x010F312B), Anastase (ID: 17772843/0x010F312B)], work=29*
 78: 0x0D68 [0x2B] Anastase (ID: 17772843/0x010F312B) [15303*]:
    → "Quite fraught with peril, indeed."
 79: 0x0D6F [0x23] WAIT_FOR_DIALOG_INTERACTION
 80: 0x0D70 [0x2B] Anastase (ID: 17772843/0x010F312B) [15304*]:
    → "Yet if anyone could accomplish this task, it would be you."
 81: 0x0D77 [0x23] WAIT_FOR_DIALOG_INTERACTION
 82: 0x0D78 [0x01] GOTO 0x0C13

SUBROUTINE_0D7E:
 83: 0x0D7E [0x01] GOTO 0x0E08
 84: 0x0D81 [0x02] IF !(Work_Zone[0] == 3*) GOTO 0x0D98
 85: 0x0D89 [0x42] SET_CLI_EVENT_CANCEL_DATA()
 86: 0x0D8A [0x2B] Anastase (ID: 17772843/0x010F312B) [15314*]:
    → "Back for more? Very well. Pick your poison."
 87: 0x0D91 [0x23] WAIT_FOR_DIALOG_INTERACTION
 88: 0x0D92 [0x1A] CALL_SUBROUTINE(address=0x1500)
 89: 0x0D95 [0x01] GOTO 0x0E08
 90: 0x0D98 [0x02] IF !(Work_Zone[0] == 4*) GOTO 0x0E08
 91: 0x0DA0 [0x02] IF !(ExtData[1]->WorkLocal[1] == 5*) GOTO 0x0DEE
 92: 0x0DA8 [0x2B] Anastase (ID: 17772843/0x010F312B) [15322*]:
    → "It is my understanding, <Player>, that you deign to serve as a pioneer in Adoulin."
 93: 0x0DAF [0x23] WAIT_FOR_DIALOG_INTERACTION
 94: 0x0DB0 [0x66] LOAD_EXT_SCHEDULER_MAIN: Load scheduler "twb0" with entities [Anastase (ID: 17772843/0x010F312B), Anastase (ID: 17772843/0x010F312B)], work=29*
 95: 0x0DBF [0x03] Work_Zone[2] = 2155*
 96: 0x0DC4 [0x2B] Anastase (ID: 17772843/0x010F312B) [15323*]:
    → "Oh yes, not only do I have ears everywhere, but I can see that glowing $3 you hold in your very hands."
 97: 0x0DCB [0x23] WAIT_FOR_DIALOG_INTERACTION
 98: 0x0DCC [0x2B] Anastase (ID: 17772843/0x010F312B) [15324*]:
    → "My granddaughter guides those new to Adoulin, instructing them in the mysteries of waypoints. Please, give her my regards if you meet her by happenstance."
 99: 0x0DD3 [0x23] WAIT_FOR_DIALOG_INTERACTION
100: 0x0DD4 [0x2B] Anastase (ID: 17772843/0x010F312B) [15325*]:
    → "She is a sweet girl, very refined, thanks largely to her strict upbringing. I am sure that she will provide you with any assistance you should require."
101: 0x0DDB [0x23] WAIT_FOR_DIALOG_INTERACTION
102: 0x0DDC [0x66] LOAD_EXT_SCHEDULER_MAIN: Load scheduler "twb1" with entities [Anastase (ID: 17772843/0x010F312B), Anastase (ID: 17772843/0x010F312B)], work=29*
103: 0x0DEB [0x01] GOTO 0x0E05
104: 0x0DEE [0x6E] Anastase (ID: 17772843/0x010F312B) uses emote 1*
105: 0x0DF5 [0x99] Wait for Anastase (ID: 17772843/0x010F312B) animation to complete
106: 0x0DFA [0x2B] Anastase (ID: 17772843/0x010F312B) [15167*]:
    → "I wish you well in all your endeavors."
107: 0x0E01 [0x1C] WAIT(180* ticks)
108: 0x0E04 [0x23] WAIT_FOR_DIALOG_INTERACTION

SUBROUTINE_0E05:
109: 0x0E05 [0x01] GOTO 0x0E08

SUBROUTINE_0E08:
110: 0x0E08 [0x21] END_EVENT
111: 0x0E09 [0x00] END_REQSTACK()
```

#### Data or dead code:

```
# Dead code (unreachable instructions):
     0x0BAE [0x01] GOTO 0x0E08
     0x0BBF [0x01] GOTO 0x0E08
# Dead code (unreachable instructions):
     0x0D7B [0x01] GOTO 0x0D7E
```

### Event 10227

#### Metadata

| Field        | Value     |
|--------------|-----------|
| Entrypoint   | 0x0E0A    |
| Data Size    | 133 bytes |
| Instructions | 21        |

```
      00 01 02 03 04 05 06 07  08 09 0A 0B 0C 0D 0E 0F
      -- -- -- -- -- -- -- --  -- -- -- -- -- -- -- --
0E00:                                42 4A F0 FF FF 7F            BJ....
0E10: 2B 31 0F 01 1C 04 80 1E  F0 FF FF 7F 66 01 80 2B  +1..........f..+
0E20: 31 0F 01 2B 31 0F 01 74  77 62 30 2B 2B 31 0F 01  1..+1..twb0++1..
0E30: 97 80 23 03 02 10 84 80  2B 2B 31 0F 01 98 80 23  ..#.....++1....#
0E40: 66 01 80 2B 31 0F 01 2B  31 0F 01 74 77 62 31 6E  f..+1..+1..twb1n
0E50: 2B 31 0F 01 20 80 99 2B  31 0F 01 2B 2B 31 0F 01  +1.. ..+1..++1..
0E60: 99 80 23 2B 2B 31 0F 01  9A 80 23 45 44 80 F0 FF  ..#++1....#ED...
0E70: FF 7F F0 FF FF 7F 71 73  74 63 06 80 45 45 80 F0  ......qstc..EE..
0E80: FF FF 7F F0 FF FF 7F 66  64 69 32 06 80 21 00     .......fdi2..!. 
```

#### Opcodes

```
  0: 0x0E0A [0x42] SET_CLI_EVENT_CANCEL_DATA()
  1: 0x0E0B [0x4A] LocalPlayer looks at Anastase (ID: 17772843/0x010F312B)
  2: 0x0E14 [0x1C] WAIT(20* ticks)
  3: 0x0E17 [0x1E] EventEntity looks at LocalPlayer and starts talking
  4: 0x0E1C [0x66] LOAD_EXT_SCHEDULER_MAIN: Load scheduler "twb0" with entities [Anastase (ID: 17772843/0x010F312B), Anastase (ID: 17772843/0x010F312B)], work=29*
  5: 0x0E2B [0x2B] Anastase (ID: 17772843/0x010F312B) [15315*]:
    → "That twinkle in your eye... Is that success I sense?"
  6: 0x0E32 [0x23] WAIT_FOR_DIALOG_INTERACTION
  7: 0x0E33 [0x03] Work_Zone[2] = 2196*
  8: 0x0E38 [0x2B] Anastase (ID: 17772843/0x010F312B) [15316*]:
    → "Your $3, please!"
  9: 0x0E3F [0x23] WAIT_FOR_DIALOG_INTERACTION
 10: 0x0E40 [0x66] LOAD_EXT_SCHEDULER_MAIN: Load scheduler "twb1" with entities [Anastase (ID: 17772843/0x010F312B), Anastase (ID: 17772843/0x010F312B)], work=29*
 11: 0x0E4F [0x6E] Anastase (ID: 17772843/0x010F312B) uses emote 7*
 12: 0x0E56 [0x99] Wait for Anastase (ID: 17772843/0x010F312B) animation to complete
 13: 0x0E5B [0x2B] Anastase (ID: 17772843/0x010F312B) [15317*]:
    → "Yes, the data for the geomagnetic fount has been recorded properly."
 14: 0x0E62 [0x23] WAIT_FOR_DIALOG_INTERACTION
 15: 0x0E63 [0x2B] Anastase (ID: 17772843/0x010F312B) [15318*]:
    → "From recording to fixing...is there nothing that adventurers cannot do? Here, a token of my esteem."
 16: 0x0E6A [0x23] WAIT_FOR_DIALOG_INTERACTION
 17: 0x0E6B [0x45] LOAD_SCHEDULED_TASK: Load scheduler "qstc" with entities [LocalPlayer, LocalPlayer], work=[201*, 0*]
 18: 0x0E7C [0x45] LOAD_SCHEDULED_TASK: Load scheduler "fdi2" with entities [LocalPlayer, LocalPlayer], work=[200*, 0*]
 19: 0x0E8D [0x21] END_EVENT
 20: 0x0E8E [0x00] END_REQSTACK()
```

### Event 10228

#### Metadata

| Field        | Value     |
|--------------|-----------|
| Entrypoint   | 0x0E8F    |
| Data Size    | 108 bytes |
| Instructions | 16        |

```
      00 01 02 03 04 05 06 07  08 09 0A 0B 0C 0D 0E 0F
      -- -- -- -- -- -- -- --  -- -- -- -- -- -- -- --
0E80:                                               42                 B
0E90: 4A F0 FF FF 7F 2B 31 0F  01 1C 04 80 1E F0 FF FF  J....+1.........
0EA0: 7F 66 01 80 2B 31 0F 01  2B 31 0F 01 74 77 62 30  .f..+1..+1..twb0
0EB0: 2B 2B 31 0F 01 9B 80 23  2B 2B 31 0F 01 9C 80 23  ++1....#++1....#
0EC0: 66 01 80 2B 31 0F 01 2B  31 0F 01 74 77 62 31 2B  f..+1..+1..twb1+
0ED0: 2B 31 0F 01 9D 80 23 45  44 80 F0 FF FF 7F F0 FF  +1....#ED.......
0EE0: FF 7F 71 73 74 63 06 80  45 45 80 F0 FF FF 7F F0  ..qstc..EE......
0EF0: FF FF 7F 66 64 69 32 06  80 21 00                 ...fdi2..!.     
```

#### Opcodes

```
  0: 0x0E8F [0x42] SET_CLI_EVENT_CANCEL_DATA()
  1: 0x0E90 [0x4A] LocalPlayer looks at Anastase (ID: 17772843/0x010F312B)
  2: 0x0E99 [0x1C] WAIT(20* ticks)
  3: 0x0E9C [0x1E] EventEntity looks at LocalPlayer and starts talking
  4: 0x0EA1 [0x66] LOAD_EXT_SCHEDULER_MAIN: Load scheduler "twb0" with entities [Anastase (ID: 17772843/0x010F312B), Anastase (ID: 17772843/0x010F312B)], work=29*
  5: 0x0EB0 [0x2B] Anastase (ID: 17772843/0x010F312B) [15319*]:
    → "Well, would you look..."
  6: 0x0EB7 [0x23] WAIT_FOR_DIALOG_INTERACTION
  7: 0x0EB8 [0x2B] Anastase (ID: 17772843/0x010F312B) [15320*]:
    → "I am quite pleased to see that you have returned whole."
  8: 0x0EBF [0x23] WAIT_FOR_DIALOG_INTERACTION
  9: 0x0EC0 [0x66] LOAD_EXT_SCHEDULER_MAIN: Load scheduler "twb1" with entities [Anastase (ID: 17772843/0x010F312B), Anastase (ID: 17772843/0x010F312B)], work=29*
 10: 0x0ECF [0x2B] Anastase (ID: 17772843/0x010F312B) [15321*]:
    → "Do not be worried. Though you may not have succeeded this time, the important thing is the waypoints did not spell out your demise."
 11: 0x0ED6 [0x23] WAIT_FOR_DIALOG_INTERACTION
 12: 0x0ED7 [0x45] LOAD_SCHEDULED_TASK: Load scheduler "qstc" with entities [LocalPlayer, LocalPlayer], work=[201*, 0*]
 13: 0x0EE8 [0x45] LOAD_SCHEDULED_TASK: Load scheduler "fdi2" with entities [LocalPlayer, LocalPlayer], work=[200*, 0*]
 14: 0x0EF9 [0x21] END_EVENT
 15: 0x0EFA [0x00] END_REQSTACK()
```

### Event 10229

#### Metadata

| Field        | Value      |
|--------------|------------|
| Entrypoint   | 0x0EFB     |
| Data Size    | 2758 bytes |
| Instructions | 26         |

```
      00 01 02 03 04 05 06 07  08 09 0A 0B 0C 0D 0E 0F
      -- -- -- -- -- -- -- --  -- -- -- -- -- -- -- --
0EF0:                                   1A 7C 0F 21 00             .|.!.
0F00: 03 02 10 13 80 2B 2B 31  0F 01 9E 80 23 66 01 80  .....++1....#f..
0F10: 2B 31 0F 01 2B 31 0F 01  74 6C 6B 30 2B 2B 31 0F  +1..+1..tlk0++1.
0F20: 01 9F 80 23 66 01 80 2B  31 0F 01 2B 31 0F 01 74  ...#f..+1..+1..t
0F30: 6C 6B 31 03 02 10 13 80  2B 2B 31 0F 01 A0 80 23  lk1.....++1....#
0F40: 66 01 80 2B 31 0F 01 2B  31 0F 01 74 77 62 30 03  f..+1..+1..twb0.
0F50: 02 10 21 80 2B 2B 31 0F  01 A1 80 23 2B 2B 31 0F  ..!.++1....#++1.
0F60: 01 A2 80 23 2B 2B 31 0F  01 A3 80 23 66 01 80 2B  ...#++1....#f..+
0F70: 31 0F 01 2B 31 0F 01 74  77 62 31 1B 1E 2C 31 0F  1..+1..twb1..,1.
0F80: 01 1C A4 80 6E 2B 31 0F  01 06 80 99 2B 31 0F 01  ....n+1.....+1..
0F90: 2B 2B 31 0F 01 A5 80 23  03 02 10 13 80 2B 2B 31  ++1....#.....++1
0FA0: 0F 01 A6 80 23 1E F0 FF  FF 7F 66 01 80 2B 31 0F  ....#.....f..+1.
0FB0: 01 2B 31 0F 01 74 6C 6B  30 2B 2B 31 0F 01 A7 80  .+1..tlk0++1....
0FC0: 23 2B 2B 31 0F 01 A8 80  23 66 01 80 2B 31 0F 01  #++1....#f..+1..
0FD0: 2B 31 0F 01 74 6C 6B 31  2B 2B 31 0F 01 A9 80 23  +1..tlk1++1....#
0FE0: 2B 2B 31 0F 01 AA 80 23  2B 2B 31 0F 01 AB 80 23  ++1....#++1....#
0FF0: 1B 2B 2B 31 0F 01 19 80  23 2B 2B 31 0F 01 1A 80  .++1....#++1....
1000: 23 66 01 80 2B 31 0F 01  2B 31 0F 01 74 6C 6B 30  #f..+1..+1..tlk0
1010: 2B 2B 31 0F 01 1B 80 23  2B 2B 31 0F 01 1D 80 23  ++1....#++1....#
1020: 2B 2B 31 0F 01 1E 80 23  03 02 10 13 80 2B 2B 31  ++1....#.....++1
1030: 0F 01 24 80 23 66 01 80  2B 31 0F 01 2B 31 0F 01  ..$.#f..+1..+1..
1040: 74 6C 6B 31 2B 2B 31 0F  01 2C 80 23 2B 2B 31 0F  tlk1++1..,.#++1.
1050: 01 2D 80 23 1B 1A 71 13  24 AC 80 06 80 06 80 25  .-.#..q.$......%
1060: 02 00 10 06 80 00 83 10  6E 2B 31 0F 01 08 80 99  ........n+1.....
1070: 2B 31 0F 01 2B 2B 31 0F  01 AD 80 23 1C 0F 80 23  +1..++1....#...#
1080: 01 86 11 02 00 10 08 80  00 94 10 1A 00 0F 01 55  ...............U
1090: 10 01 86 11 02 00 10 12  80 00 AA 10 03 02 10 06  ................
10A0: 80 1A 87 11 01 55 10 01  86 11 02 00 10 00 80 00  .....U..........
10B0: C0 10 03 02 10 08 80 1A  87 11 01 55 10 01 86 11  ...........U....
10C0: 02 00 10 38 80 00 D6 10  03 02 10 12 80 1A 87 11  ...8............
10D0: 01 55 10 01 86 11 02 00  10 1C 80 00 EC 10 03 02  .U..............
10E0: 10 00 80 1A 87 11 01 55  10 01 86 11 02 00 10 AE  .......U........
10F0: 80 00 02 11 03 02 10 38  80 1A 87 11 01 55 10 01  .......8.....U..
1100: 86 11 02 00 10 20 80 00  18 11 03 02 10 1C 80 1A  ..... ..........
1110: 87 11 01 55 10 01 86 11  02 00 10 78 80 00 2E 11  ...U.......x....
1120: 03 02 10 AE 80 1A 87 11  01 55 10 01 86 11 02 00  .........U......
1130: 10 AF 80 00 44 11 03 02  10 20 80 1A 87 11 01 55  ....D.... .....U
1140: 10 01 86 11 02 00 10 72  80 00 5A 11 03 02 10 78  .......r..Z....x
1150: 80 1A 87 11 01 55 10 01  86 11 02 00 10 5E 80 00  .....U.......^..
1160: 70 11 03 02 10 AF 80 1A  87 11 01 55 10 01 86 11  p..........U....
1170: 02 00 10 B0 80 00 86 11  03 02 10 72 80 1A 87 11  ...........r....
1180: 01 55 10 01 86 11 1B 66  01 80 2B 31 0F 01 2B 31  .U.....f..+1..+1
1190: 0F 01 74 68 6B 31 2B 2B  31 0F 01 B1 80 23 2B 2B  ..thk1++1....#++
11A0: 31 0F 01 7B 80 23 66 01  80 2B 31 0F 01 2B 31 0F  1..{.#f..+1..+1.
11B0: 01 74 68 6B 32 2B 2B 31  0F 01 B2 80 23 2B 2B 31  .thk2++1....#++1
11C0: 0F 01 B3 80 23 2B 2B 31  0F 01 B4 80 23 1B 1A 1A  ....#++1....#...
11D0: 14 24 B5 80 06 80 06 80  25 02 00 10 06 80 00 FC  .$......%.......
11E0: 11 6E 2B 31 0F 01 08 80  99 2B 31 0F 01 2B 2B 31  .n+1.....+1..++1
11F0: 0F 01 B6 80 23 1C 0F 80  23 01 E9 12 02 00 10 08  ....#...#.......
1200: 80 00 0D 12 1A 00 0F 01  CE 11 01 E9 12 02 00 10  ................
1210: 12 80 00 23 12 03 02 10  06 80 1A EA 12 01 CE 11  ...#............
1220: 01 E9 12 02 00 10 00 80  00 39 12 03 02 10 08 80  .........9......
1230: 1A EA 12 01 CE 11 01 E9  12 02 00 10 38 80 00 4F  ............8..O
1240: 12 03 02 10 12 80 1A EA  12 01 CE 11 01 E9 12 02  ................
1250: 00 10 1C 80 00 65 12 03  02 10 00 80 1A EA 12 01  .....e..........
1260: CE 11 01 E9 12 02 00 10  AE 80 00 7B 12 03 02 10  ...........{....
1270: 38 80 1A EA 12 01 CE 11  01 E9 12 02 00 10 20 80  8............. .
1280: 00 91 12 03 02 10 1C 80  1A EA 12 01 CE 11 01 E9  ................
1290: 12 02 00 10 78 80 00 A7  12 03 02 10 AE 80 1A EA  ....x...........
12A0: 12 01 CE 11 01 E9 12 02  00 10 AF 80 00 BD 12 03  ................
12B0: 02 10 20 80 1A EA 12 01  CE 11 01 E9 12 02 00 10  .. .............
12C0: 72 80 00 D3 12 03 02 10  78 80 1A EA 12 01 CE 11  r.......x.......
12D0: 01 E9 12 02 00 10 5E 80  00 E9 12 03 02 10 AF 80  ......^.........
12E0: 1A EA 12 01 CE 11 01 E9  12 1B 66 01 80 2B 31 0F  ..........f..+1.
12F0: 01 2B 31 0F 01 74 68 6B  31 2B 2B 31 0F 01 B7 80  .+1..thk1++1....
1300: 23 2B 2B 31 0F 01 7B 80  23 66 01 80 2B 31 0F 01  #++1..{.#f..+1..
1310: 2B 31 0F 01 74 68 6B 32  2B 2B 31 0F 01 B8 80 23  +1..thk2++1....#
1320: 2B 2B 31 0F 01 B9 80 23  2B 2B 31 0F 01 BA 80 23  ++1....#++1....#
1330: 1B 1A B4 14 3E 02 00 06  80 43 13 03 03 10 08 80  ....>....C......
1340: 01 43 13 3E 02 00 08 80  52 13 03 04 10 08 80 01  .C.>....R.......
1350: 52 13 3E 02 00 12 80 61  13 03 05 10 08 80 01 61  R.>....a.......a
1360: 13 3E 02 00 00 80 70 13  03 06 10 08 80 01 70 13  .>....p.......p.
1370: 1B 1A B4 14 3E 03 00 06  80 83 13 03 07 10 08 80  ....>...........
1380: 01 83 13 3E 03 00 08 80  92 13 03 08 10 08 80 01  ...>............
1390: 92 13 3E 03 00 12 80 A1  13 03 09 10 08 80 01 A1  ..>.............
13A0: 13 3E 03 00 00 80 B0 13  03 00 17 08 80 01 B0 13  .>..............
13B0: 3E 03 00 38 80 BF 13 03  01 17 08 80 01 BF 13 3E  >..8...........>
13C0: 03 00 1C 80 CE 13 03 02  17 08 80 01 CE 13 3E 03  ..............>.
13D0: 00 AE 80 DD 13 03 03 17  08 80 01 DD 13 3E 03 00  .............>..
13E0: 20 80 EC 13 03 04 17 08  80 01 EC 13 3E 03 00 78   ...........>..x
13F0: 80 FB 13 03 05 17 08 80  01 FB 13 3E 03 00 AF 80  ...........>....
1400: 0A 14 03 06 17 08 80 01  0A 14 3E 03 00 72 80 19  ..........>..r..
1410: 14 03 07 17 08 80 01 19  14 1B 1A B4 14 3E 04 00  .............>..
1420: 06 80 2C 14 03 08 17 08  80 01 2C 14 3E 04 00 08  ..,.......,.>...
1430: 80 3B 14 03 09 17 08 80  01 3B 14 3E 04 00 12 80  .;.......;.>....
1440: 4A 14 03 0A 17 08 80 01  4A 14 3E 04 00 00 80 59  J.......J.>....Y
1450: 14 03 0B 17 08 80 01 59  14 3E 04 00 38 80 68 14  .......Y.>..8.h.
1460: 03 0C 17 08 80 01 68 14  3E 04 00 1C 80 77 14 03  ......h.>....w..
1470: 0D 17 08 80 01 77 14 3E  04 00 AE 80 86 14 03 0E  .....w.>........
1480: 17 08 80 01 86 14 3E 04  00 20 80 95 14 03 0F 17  ......>.. ......
1490: 08 80 01 95 14 3E 04 00  78 80 A4 14 03 10 17 08  .....>..x.......
14A0: 80 01 A4 14 3E 04 00 AF  80 B3 14 03 11 17 08 80  ....>...........
14B0: 01 B3 14 1B 06 03 10 06  04 10 06 05 10 06 06 10  ................
14C0: 06 07 10 06 08 10 06 09  10 06 00 17 06 01 17 06  ................
14D0: 02 17 06 03 17 06 04 17  06 05 17 06 06 17 06 07  ................
14E0: 17 06 08 17 06 09 17 06  0A 17 06 0B 17 06 0C 17  ................
14F0: 06 0D 17 06 0E 17 06 0F  17 06 10 17 06 11 17 1B  ................
1500: 42 03 01 10 06 80 24 BB  80 06 80 06 80 25 02 00  B.....$......%..
1510: 10 06 80 00 31 15 6E 2B  31 0F 01 20 80 99 2B 31  ....1.n+1.. ..+1
1520: 0F 01 2B 2B 31 0F 01 87  80 23 1C 4A 80 23 01 2F  ..++1....#.J.#./
1530: 17 02 00 10 08 80 00 A5  15 03 01 10 08 80 1E 2C  ...............,
1540: 31 0F 01 4A 2C 31 0F 01  F0 FF FF 7F CD BC 80 2C  1..J,1.........,
1550: 31 0F 01 2C 31 0F 01 73  30 30 30 06 80 1C BD 80  1..,1..s000.....
1560: 2B 2B 31 0F 01 BE 80 23  1C A4 80 23 1E F0 FF FF  ++1....#...#....
1570: 7F 2B 2B 31 0F 01 BF 80  23 1C 4A 80 23 CD BC 80  .++1....#.J.#...
1580: 2C 31 0F 01 F0 FF FF 7F  6D 61 69 6E 06 80 1C C0  ,1......main....
1590: 80 92 01 F0 FF FF 7F 1C  A4 80 1A 93 17 1C A4 80  ................
15A0: 21 00 01 2F 17 02 00 10  12 80 00 19 16 03 01 10  !../............
15B0: 12 80 1E 2C 31 0F 01 4A  2C 31 0F 01 F0 FF FF 7F  ...,1..J,1......
15C0: CD BC 80 2C 31 0F 01 2C  31 0F 01 73 30 30 30 06  ...,1..,1..s000.
15D0: 80 1C BD 80 2B 2B 31 0F  01 BE 80 23 1C A4 80 23  ....++1....#...#
15E0: 1E F0 FF FF 7F 2B 2B 31  0F 01 BF 80 23 1C 4A 80  .....++1....#.J.
15F0: 23 CD BC 80 2C 31 0F 01  F0 FF FF 7F 6D 61 69 6E  #...,1......main
1600: 06 80 1C C0 80 92 01 F0  FF FF 7F 1C A4 80 1A 93  ................
1610: 17 1C A4 80 21 00 01 2F  17 02 00 10 00 80 00 8D  ....!../........
1620: 16 03 01 10 00 80 1E 2C  31 0F 01 4A 2C 31 0F 01  .......,1..J,1..
1630: F0 FF FF 7F CD BC 80 2C  31 0F 01 2C 31 0F 01 73  .......,1..,1..s
1640: 30 30 30 06 80 1C BD 80  2B 2B 31 0F 01 BE 80 23  000.....++1....#
1650: 1C A4 80 23 1E F0 FF FF  7F 2B 2B 31 0F 01 BF 80  ...#.....++1....
1660: 23 1C 4A 80 23 CD BC 80  2C 31 0F 01 F0 FF FF 7F  #.J.#...,1......
1670: 6D 61 69 6E 06 80 1C C0  80 92 01 F0 FF FF 7F 1C  main............
1680: A4 80 1A 93 17 1C A4 80  21 00 01 2F 17 02 00 10  ........!../....
1690: 38 80 00 2F 17 2B 2B 31  0F 01 88 80 23 2B 2B 31  8../.++1....#++1
16A0: 0F 01 89 80 23 2B 2B 31  0F 01 8A 80 23 66 01 80  ....#++1....#f..
16B0: 2B 31 0F 01 2B 31 0F 01  74 77 62 30 03 02 10 84  +1..+1..twb0....
16C0: 80 2B 2B 31 0F 01 8B 80  23 2B 2B 31 0F 01 8C 80  .++1....#++1....
16D0: 23 2B 2B 31 0F 01 8D 80  23 66 01 80 2B 31 0F 01  #++1....#f..+1..
16E0: 2B 31 0F 01 74 77 62 31  2B 2B 31 0F 01 8E 80 23  +1..twb1++1....#
16F0: 66 01 80 2B 31 0F 01 2B  31 0F 01 74 68 6B 31 2B  f..+1..+1..thk1+
1700: 2B 31 0F 01 8F 80 23 1C  0F 80 66 01 80 2B 31 0F  +1....#...f..+1.
1710: 01 2B 31 0F 01 74 68 6B  32 2B 2B 31 0F 01 90 80  .+1..thk2++1....
1720: 23 2B 2B 31 0F 01 91 80  23 01 00 15 01 2F 17 1B  #++1....#..../..
1730: 45 45 80 F0 FF FF 7F F0  FF FF 7F 66 64 69 30 06  EE.........fdi0.
1740: 80 55 45 80 F0 FF FF 7F  F0 FF FF 7F 66 64 69 30  .UE.........fdi0
1750: 1B 45 45 80 F0 FF FF 7F  F0 FF FF 7F 66 64 6F 30  .EE.........fdo0
1760: 06 80 55 45 80 F0 FF FF  7F F0 FF FF 7F 66 64 6F  ..UE.........fdo
1770: 30 1B 45 45 80 F0 FF FF  7F F0 FF FF 7F 66 64 69  0.EE.........fdi
1780: 31 06 80 55 45 80 F0 FF  FF 7F F0 FF FF 7F 66 64  1..UE.........fd
1790: 69 31 1B 45 45 80 F0 FF  FF 7F F0 FF FF 7F 66 64  i1.EE.........fd
17A0: 6F 31 06 80 55 45 80 F0  FF FF 7F F0 FF FF 7F 66  o1..UE.........f
17B0: 64 6F 31 1B 45 44 80 F0  FF FF 7F F0 FF FF 7F 77  do1.ED.........w
17C0: 68 69 31 06 80 55 44 80  F0 FF FF 7F F0 FF FF 7F  hi1..UD.........
17D0: 77 68 69 31 1B 45 44 80  F0 FF FF 7F F0 FF FF 7F  whi1.ED.........
17E0: 77 68 6F 31 06 80 55 44  80 F0 FF FF 7F F0 FF FF  who1..UD........
17F0: 7F 77 68 6F 31 1B 45 44  80 F0 FF FF 7F F0 FF FF  .who1.ED........
1800: 7F 77 68 6F 32 06 80 55  44 80 F0 FF FF 7F F0 FF  .who2..UD.......
1810: FF 7F 77 68 6F 32 1B 45  44 80 F0 FF FF 7F F0 FF  ..who2.ED.......
1820: FF 7F 77 68 6F 33 06 80  55 44 80 F0 FF FF 7F F0  ..who3..UD......
1830: FF FF 7F 77 68 6F 33 1B  62 08 80 F0 FF FF 7F F0  ...who3.b.......
1840: FF FF 7F 6D 61 69 6E 06  80 1C C1 80 45 45 80 F0  ...main.....EE..
1850: FF FF 7F F0 FF FF 7F 66  64 6F 31 06 80 55 45 80  .......fdo1..UE.
1860: F0 FF FF 7F F0 FF FF 7F  66 64 6F 31 1B 45 45 80  ........fdo1.EE.
1870: F0 FF FF 7F F0 FF FF 7F  66 64 69 31 06 80 62 12  ........fdi1..b.
1880: 80 F0 FF FF 7F F0 FF FF  7F 6D 61 69 6E 06 80 1C  .........main...
1890: A4 80 55 45 80 F0 FF FF  7F F0 FF FF 7F 66 64 69  ..UE.........fdi
18A0: 31 1B 45 45 80 F0 FF FF  7F F0 FF FF 7F 62 6C 6F  1.EE.........blo
18B0: 6E 06 80 45 44 80 F0 FF  FF 7F F0 FF FF 7F 62 6C  n..ED.........bl
18C0: 6F 6E 06 80 1B 45 44 80  F0 FF FF 7F F0 FF FF 7F  on...ED.........
18D0: 77 68 69 30 06 80 55 44  80 F0 FF FF 7F F0 FF FF  whi0..UD........
18E0: 7F 77 68 69 30 1B 45 44  80 F0 FF FF 7F F0 FF FF  .whi0.ED........
18F0: 7F 77 68 6F 30 06 80 55  44 80 F0 FF FF 7F F0 FF  .who0..UD.......
1900: FF 7F 77 68 6F 30 1B 45  C2 80 F0 FF FF 7F F0 FF  ..who0.E........
1910: FF 7F 65 66 6F 6E 06 80  55 C2 80 F0 FF FF 7F F0  ..efon..U.......
1920: FF FF 7F 65 66 6F 6E 1B  45 45 80 F0 FF FF 7F F0  ...efon.EE......
