# 17772726 - Venessa

## Common Data

| Field            | Value                     |
|------------------|---------------------------|
| Zone             | Ru'Lude Gardens (ID: 243) |
| Block Size       | 1064 bytes                |
| Total Events     | 4                         |
| References Count | 41                        |

## List of Events

| Event ID              | Entrypoint   |   Size |   Instructions |
|-----------------------|--------------|--------|----------------|
| [65535](#event-65535) | 0x0000       |      1 |              1 |
| [10064](#event-10064) | 0x0001       |    498 |            120 |
| [10065](#event-10065) | 0x01F3       |    329 |             82 |
| [10066](#event-10066) | 0x033C       |     37 |             13 |

## DAT References (imed_data)

|   Index | Hex Value   |   Dec Value |
|---------|-------------|-------------|
|       0 | 0x0063      |          99 |
|       1 | 0x32A6      |       12966 |
|       2 | 0x328C      |       12940 |
|       3 | 0x0013      |          19 |
|       4 | 0x328D      |       12941 |
|       5 | 0x328E      |       12942 |
|       6 | 0x328F      |       12943 |
|       7 | 0x3290      |       12944 |
|       8 | 0x0007      |           7 |
|       9 | 0x3291      |       12945 |
|      10 | 0x3292      |       12946 |
|      11 | 0x0000      |           0 |
|      12 | 0x3296      |       12950 |
|      13 | 0x3297      |       12951 |
|      14 | 0x3298      |       12952 |
|      15 | 0x3299      |       12953 |
|      16 | 0x329A      |       12954 |
|      17 | 0x0001      |           1 |
|      18 | 0x029E      |         670 |
|      19 | 0x0002      |           2 |
|      20 | 0x029F      |         671 |
|      21 | 0x0003      |           3 |
|      22 | 0x02A0      |         672 |
|      23 | 0x0004      |           4 |
|      24 | 0x02A1      |         673 |
|      25 | 0x329B      |       12955 |
|      26 | 0x329F      |       12959 |
|      27 | 0x0022      |          34 |
|      28 | 0x32A0      |       12960 |
|      29 | 0x329C      |       12956 |
|      30 | 0x329D      |       12957 |
|      31 | 0x329E      |       12958 |
|      32 | 0x0006      |           6 |
|      33 | 0x3293      |       12947 |
|      34 | 0x3294      |       12948 |
|      35 | 0x3295      |       12949 |
|      36 | 0x32A4      |       12964 |
|      37 | 0x32A5      |       12965 |
|      38 | 0x32A1      |       12961 |
|      39 | 0x32A2      |       12962 |
|      40 | 0x32A3      |       12963 |

## String References

- **12940**: Out of my... Wait just a moment. Let me have a good look at you...
- **12941**: Yes... You may be of some use to me after all.
- **12942**: My name is Venessa. I have traveled from my homeland far to the west to hone my skills under the supervision of the ducal alchemists.
- **12943**: I am currently studying the phenomenon known as the "Emptiness" and how its byproducts can be better utilized in my field.
- **12944**: My recent research has shown that in addition to the variety of creatures that roam the plains of Promyvion, there are a handful of even stronger manifests that dwell deep within towers that loom above the vast expanses of darkness.
- **12945**: To continue my work, I require fresh remnants of these rare beasts. Of course, your efforts will not go unrewarded.
- **12946**: Will you accept my offer? [Of course./Not today./Tell me more./You've lost me.]
- **12947**: Then you are wasting my time.
- **12948**: I have told you enough!
- **12949**: Then you are of no use to me. Begone!
- **12950**: Excellent.
- **12951**: According to data collected by the Duchy, there are several different locations around Vana'diel where the Empty thrive. Adventurers have given these realms the name "Promyvion."
- **12952**: If my hypothesis is correct, I believe there are four types of special remnants--one to coincide with each area. Which area do you wish to investigate?
- **12953**: Travel to... [Nowhere at this time./The Spire of Holla./The Spire of Dem./The Spire of Mea./The Spire of Vahzl.]
- **12954**: If you have no intentions of assisting me, then stop wasting my time!
- **12955**: [Holla/Dem/Mea/Vahzl], you say? Then you will need this $3.
- **12956**: Wait just a moment... I remember you.
- **12957**: While I appreciate your assistance, I do not have any more censers to aid you on your travels into Promyvion. I must ask you to return at a later date.
- **12958**: Yes, I may be able to provide you with another $3 on ( Earth time) and not a day sooner.
- **12959**: Here, you may have this one, but take care not to lose it. These artifacts are extremely difficult to come by, and I have only a limited supply.
- **12960**: And if you happen to come across one of the rare remnants that I seek, bring it directly to me. Only then will you receive your reward.
- **12961**: What is this? You say you found something that may be of interest?
- **12962**: Yes... Yes! With this I can prove my ability to the society! I am guaranteed a position within their ranks for sure!
- **12963**: Hm? Your reward? Oh, I do remember promising you something if you succeeded at your mission. How about this $0? I don't think the society will be missing it.
- **12964**: Out of my... Wait just a moment. You wouldn't happen to have returned because you wish to delve into the depths of Promyvion once more, would you?
- **12965**: Well? [That's why I'm here./I was just passing by.]
- **12966**: I have neither the time nor patience to be bothered by every ignorant cretin that happens to wander by. Begone!

## Events

### Event 65535

#### Metadata

| Field        | Value   |
|--------------|---------|
| Entrypoint   | 0x0000  |
| Data Size    | 1 bytes |
| Instructions | 1       |

```
      00 01 02 03 04 05 06 07  08 09 0A 0B 0C 0D 0E 0F
      -- -- -- -- -- -- -- --  -- -- -- -- -- -- -- --
0000: 00                                                .               
```

#### Opcodes

```
  0: 0x0000 [0x00] END_REQSTACK()
```

### Event 10064

#### Metadata

| Field        | Value     |
|--------------|-----------|
| Entrypoint   | 0x0001    |
| Data Size    | 498 bytes |
| Instructions | 103       |

```
      00 01 02 03 04 05 06 07  08 09 0A 0B 0C 0D 0E 0F
      -- -- -- -- -- -- -- --  -- -- -- -- -- -- -- --
0000:    1E F0 FF FF 7F 02 02  10 00 80 00 15 00 1D 01   ...............
0010: 80 23 01 F1 01 1D 02 80  23 66 03 80 F8 FF FF 7F  .#......#f......
0020: F8 FF FF 7F 74 6C 6B 30  1D 04 80 23 66 03 80 F8  ....tlk0...#f...
0030: FF FF 7F F8 FF FF 7F 74  6C 6B 31 1D 05 80 23 1D  .......tlk1...#.
0040: 06 80 23 1D 07 80 23 6E  F8 FF FF 7F 08 80 99 F8  ..#...#n........
0050: FF FF 7F 1D 09 80 23 24  0A 80 0B 80 0B 80 25 02  ......#$......%.
0060: 00 10 0B 80 00 91 01 6E  F8 FF FF 7F 08 80 99 F8  .......n........
0070: FF FF 7F 1D 0C 80 23 1D  0D 80 23 1D 0E 80 23 24  ......#...#...#$
0080: 0F 80 0B 80 02 10 25 02  00 10 0B 80 00 9D 00 1D  ......%.........
0090: 10 80 23 03 01 10 0B 80  21 00 01 F1 00 02 00 10  ..#.....!.......
00A0: 11 80 00 B2 00 03 01 10  11 80 03 04 10 12 80 01  ................
00B0: F1 00 02 00 10 13 80 00  C7 00 03 01 10 13 80 03  ................
00C0: 04 10 14 80 01 F1 00 02  00 10 15 80 00 DC 00 03  ................
00D0: 01 10 15 80 03 04 10 16  80 01 F1 00 02 00 10 17  ................
00E0: 80 00 F1 00 03 01 10 17  80 03 04 10 18 80 01 F1  ................
00F0: 00 03 03 10 00 10 0C 03  10 42 1D 19 80 23 43 00  .........B...#C.
0100: 43 01 02 02 10 11 80 80  17 01 03 01 10 11 80 03  C...............
0110: 04 10 12 80 01 56 01 02  02 10 13 80 80 2C 01 03  .....V.......,..
0120: 01 10 13 80 03 04 10 14  80 01 56 01 02 02 10 15  ..........V.....
0130: 80 80 41 01 03 01 10 15  80 03 04 10 16 80 01 56  ..A............V
0140: 01 02 02 10 17 80 80 56  01 03 01 10 17 80 03 04  .......V........
0150: 10 18 80 01 56 01 02 05  10 11 80 00 75 01 1D 1A  ....V.......u...
0160: 80 23 6E F8 FF FF 7F 1B  80 99 F8 FF FF 7F 1D 1C  .#n.............
0170: 80 23 01 8E 01 1D 1D 80  23 1D 1E 80 23 02 07 10  .#......#...#...
0180: 0B 80 01 89 01 1D 1F 80  23 03 01 10 0B 80 01 F1  ........#.......
0190: 01 02 00 10 11 80 00 B1  01 6E F8 FF FF 7F 20 80  .........n.... .
01A0: 99 F8 FF FF 7F 1D 21 80  23 03 01 10 0B 80 01 F1  ......!.#.......
01B0: 01 02 00 10 13 80 00 D1  01 6E F8 FF FF 7F 20 80  .........n.... .
01C0: 99 F8 FF FF 7F 1D 22 80  23 03 01 10 0B 80 01 F1  ......".#.......
01D0: 01 02 00 10 15 80 00 F1  01 6E F8 FF FF 7F 20 80  .........n.... .
01E0: 99 F8 FF FF 7F 1D 23 80  23 03 01 10 0B 80 01 F1  ......#.#.......
01F0: 01 21 00                                          .!.             
```

#### Opcodes

```
  0: 0x0001 [0x1E] EventEntity looks at LocalPlayer and starts talking
  1: 0x0006 [0x02] IF !(Work_Zone[2] == 99*) GOTO 0x0015
  2: 0x000E [0x1D] PRINT_EVENT_MESSAGE(message_id=12966*)
    → "I have neither the time nor patience to be bothered by every ignorant cretin that happens to wander by. Begone!"
  3: 0x0011 [0x23] WAIT_FOR_DIALOG_INTERACTION
  4: 0x0012 [0x01] GOTO 0x01F1
  5: 0x0015 [0x1D] PRINT_EVENT_MESSAGE(message_id=12940*)
    → "Out of my... Wait just a moment. Let me have a good look at you..."
  6: 0x0018 [0x23] WAIT_FOR_DIALOG_INTERACTION
  7: 0x0019 [0x66] LOAD_EXT_SCHEDULER_MAIN: Load scheduler "tlk0" with entities [EventEntity, EventEntity], work=19*
  8: 0x0028 [0x1D] PRINT_EVENT_MESSAGE(message_id=12941*)
    → "Yes... You may be of some use to me after all."
  9: 0x002B [0x23] WAIT_FOR_DIALOG_INTERACTION
 10: 0x002C [0x66] LOAD_EXT_SCHEDULER_MAIN: Load scheduler "tlk1" with entities [EventEntity, EventEntity], work=19*
 11: 0x003B [0x1D] PRINT_EVENT_MESSAGE(message_id=12942*)
    → "My name is Venessa. I have traveled from my homeland far to the west to hone my skills under the supervision of the ducal alchemists."
 12: 0x003E [0x23] WAIT_FOR_DIALOG_INTERACTION
 13: 0x003F [0x1D] PRINT_EVENT_MESSAGE(message_id=12943*)
    → "I am currently studying the phenomenon known as the "Emptiness" and how its byproducts can be better utilized in my field."
 14: 0x0042 [0x23] WAIT_FOR_DIALOG_INTERACTION
 15: 0x0043 [0x1D] PRINT_EVENT_MESSAGE(message_id=12944*)
    → "My recent research has shown that in addition to the variety of creatures that roam the plains of Promyvion, there are a handful of even stronger manifests that dwell deep within towers that loom above the vast expanses of darkness."
 16: 0x0046 [0x23] WAIT_FOR_DIALOG_INTERACTION
 17: 0x0047 [0x6E] EventEntity uses emote 7*
 18: 0x004E [0x99] Wait for EventEntity animation to complete
 19: 0x0053 [0x1D] PRINT_EVENT_MESSAGE(message_id=12945*)
    → "To continue my work, I require fresh remnants of these rare beasts. Of course, your efforts will not go unrewarded."
 20: 0x0056 [0x23] WAIT_FOR_DIALOG_INTERACTION
 21: 0x0057 [0x24] CREATE_DIALOG(message_id=12946*, default_option=0*, option_flags=0*)
    → "Will you accept my offer? [Of course./Not today./Tell me more./You've lost me.]"
 22: 0x005E [0x25] WAIT_DIALOG_SELECT()
 23: 0x005F [0x02] IF !(Work_Zone[0] == 0*) GOTO 0x0191
 24: 0x0067 [0x6E] EventEntity uses emote 7*
 25: 0x006E [0x99] Wait for EventEntity animation to complete
 26: 0x0073 [0x1D] PRINT_EVENT_MESSAGE(message_id=12950*)
    → "Excellent."
 27: 0x0076 [0x23] WAIT_FOR_DIALOG_INTERACTION
 28: 0x0077 [0x1D] PRINT_EVENT_MESSAGE(message_id=12951*)
    → "According to data collected by the Duchy, there are several different locations around Vana'diel where the Empty thrive. Adventurers have given these realms the name "Promyvion.""
 29: 0x007A [0x23] WAIT_FOR_DIALOG_INTERACTION
 30: 0x007B [0x1D] PRINT_EVENT_MESSAGE(message_id=12952*)
    → "If my hypothesis is correct, I believe there are four types of special remnants--one to coincide with each area. Which area do you wish to investigate?"
 31: 0x007E [0x23] WAIT_FOR_DIALOG_INTERACTION
 32: 0x007F [0x24] CREATE_DIALOG(message_id=12953*, default_option=0*, option_flags=Work_Zone[2])
    → "Travel to... [Nowhere at this time./The Spire of Holla./The Spire of Dem./The Spire of Mea./The Spire of Vahzl.]"
 33: 0x0086 [0x25] WAIT_DIALOG_SELECT()
 34: 0x0087 [0x02] IF !(Work_Zone[0] == 0*) GOTO 0x009D
 35: 0x008F [0x1D] PRINT_EVENT_MESSAGE(message_id=12954*)
    → "If you have no intentions of assisting me, then stop wasting my time!"
 36: 0x0092 [0x23] WAIT_FOR_DIALOG_INTERACTION
 37: 0x0093 [0x03] Work_Zone[1] = 0*
 38: 0x0098 [0x21] END_EVENT
 39: 0x0099 [0x00] END_REQSTACK()

SUBROUTINE_00F1:
 40: 0x00F1 [0x03] Work_Zone[3] = Work_Zone[0]
 41: 0x00F6 [0x0C] Work_Zone[3]--
 42: 0x00F9 [0x42] SET_CLI_EVENT_CANCEL_DATA()
 43: 0x00FA [0x1D] PRINT_EVENT_MESSAGE(message_id=12955*)
    → "[Holla/Dem/Mea/Vahzl], you say? Then you will need this $3."
 44: 0x00FD [0x23] WAIT_FOR_DIALOG_INTERACTION
 45: 0x00FE [0x43] SEND_EVENT_UPDATE: Send pending tag to server (packet 0x005B)
 46: 0x0100 [0x43] SEND_EVENT_UPDATE: Check pending flag (skip if not pending)
 47: 0x0102 [0x02] IF !(Work_Zone[2] == 1*) GOTO 0x0117
 48: 0x010A [0x03] Work_Zone[1] = 1*
 49: 0x010F [0x03] Work_Zone[4] = 670*
 50: 0x0114 [0x01] GOTO 0x0156
 51: 0x0117 [0x02] IF !(Work_Zone[2] == 2*) GOTO 0x012C
 52: 0x011F [0x03] Work_Zone[1] = 2*
 53: 0x0124 [0x03] Work_Zone[4] = 671*
 54: 0x0129 [0x01] GOTO 0x0156
 55: 0x012C [0x02] IF !(Work_Zone[2] == 3*) GOTO 0x0141
 56: 0x0134 [0x03] Work_Zone[1] = 3*
 57: 0x0139 [0x03] Work_Zone[4] = 672*
 58: 0x013E [0x01] GOTO 0x0156
 59: 0x0141 [0x02] IF !(Work_Zone[2] == 4*) GOTO 0x0156
 60: 0x0149 [0x03] Work_Zone[1] = 4*
 61: 0x014E [0x03] Work_Zone[4] = 673*
 62: 0x0153 [0x01] GOTO 0x0156

SUBROUTINE_0156:
 63: 0x0156 [0x02] IF !(Work_Zone[5] == 1*) GOTO 0x0175
 64: 0x015E [0x1D] PRINT_EVENT_MESSAGE(message_id=12959*)
    → "Here, you may have this one, but take care not to lose it. These artifacts are extremely difficult to come by, and I have only a limited supply."
 65: 0x0161 [0x23] WAIT_FOR_DIALOG_INTERACTION
 66: 0x0162 [0x6E] EventEntity uses emote 34*
 67: 0x0169 [0x99] Wait for EventEntity animation to complete
 68: 0x016E [0x1D] PRINT_EVENT_MESSAGE(message_id=12960*)
    → "And if you happen to come across one of the rare remnants that I seek, bring it directly to me. Only then will you receive your reward."
 69: 0x0171 [0x23] WAIT_FOR_DIALOG_INTERACTION
 70: 0x0172 [0x01] GOTO 0x018E
 71: 0x0175 [0x1D] PRINT_EVENT_MESSAGE(message_id=12956*)
    → "Wait just a moment... I remember you."
 72: 0x0178 [0x23] WAIT_FOR_DIALOG_INTERACTION
 73: 0x0179 [0x1D] PRINT_EVENT_MESSAGE(message_id=12957*)
    → "While I appreciate your assistance, I do not have any more censers to aid you on your travels into Promyvion. I must ask you to return at a later date."
 74: 0x017C [0x23] WAIT_FOR_DIALOG_INTERACTION
 75: 0x017D [0x02] IF !(Work_Zone[7] == 0*) GOTO 0x0189
 76: 0x0185 [0x1D] PRINT_EVENT_MESSAGE(message_id=12958*)
    → "Yes, I may be able to provide you with another $3 on ( Earth time) and not a day sooner."
 77: 0x0188 [0x23] WAIT_FOR_DIALOG_INTERACTION
 78: 0x0189 [0x03] Work_Zone[1] = 0*

SUBROUTINE_018E:
 79: 0x018E [0x01] GOTO 0x01F1
 80: 0x0191 [0x02] IF !(Work_Zone[0] == 1*) GOTO 0x01B1
 81: 0x0199 [0x6E] EventEntity uses emote 6*
 82: 0x01A0 [0x99] Wait for EventEntity animation to complete
 83: 0x01A5 [0x1D] PRINT_EVENT_MESSAGE(message_id=12947*)
    → "Then you are wasting my time."
 84: 0x01A8 [0x23] WAIT_FOR_DIALOG_INTERACTION
 85: 0x01A9 [0x03] Work_Zone[1] = 0*
 86: 0x01AE [0x01] GOTO 0x01F1
 87: 0x01B1 [0x02] IF !(Work_Zone[0] == 2*) GOTO 0x01D1
 88: 0x01B9 [0x6E] EventEntity uses emote 6*
 89: 0x01C0 [0x99] Wait for EventEntity animation to complete
 90: 0x01C5 [0x1D] PRINT_EVENT_MESSAGE(message_id=12948*)
    → "I have told you enough!"
 91: 0x01C8 [0x23] WAIT_FOR_DIALOG_INTERACTION
 92: 0x01C9 [0x03] Work_Zone[1] = 0*
 93: 0x01CE [0x01] GOTO 0x01F1
 94: 0x01D1 [0x02] IF !(Work_Zone[0] == 3*) GOTO 0x01F1
 95: 0x01D9 [0x6E] EventEntity uses emote 6*
 96: 0x01E0 [0x99] Wait for EventEntity animation to complete
 97: 0x01E5 [0x1D] PRINT_EVENT_MESSAGE(message_id=12949*)
    → "Then you are of no use to me. Begone!"
 98: 0x01E8 [0x23] WAIT_FOR_DIALOG_INTERACTION
 99: 0x01E9 [0x03] Work_Zone[1] = 0*
100: 0x01EE [0x01] GOTO 0x01F1

SUBROUTINE_01F1:
101: 0x01F1 [0x21] END_EVENT
102: 0x01F2 [0x00] END_REQSTACK()
```

#### Data or dead code:

```
# Dead code (unreachable instructions):
     0x009A [0x01] GOTO 0x00F1
```

### Event 10065

#### Metadata

| Field        | Value     |
|--------------|-----------|
| Entrypoint   | 0x01F3    |
| Data Size    | 329 bytes |
| Instructions | 65        |

```
      00 01 02 03 04 05 06 07  08 09 0A 0B 0C 0D 0E 0F
      -- -- -- -- -- -- -- --  -- -- -- -- -- -- -- --
01F0:          1E F0 FF FF 7F  1D 24 80 23 24 25 80 11     ......$.#$%..
0200: 80 0B 80 25 02 00 10 0B  80 00 2A 03 1D 0C 80 23  ...%......*....#
0210: 1D 0D 80 23 1D 0E 80 23  24 0F 80 0B 80 02 10 25  ...#...#$......%
0220: 02 00 10 0B 80 00 36 02  1D 10 80 23 03 01 10 0B  ......6....#....
0230: 80 21 00 01 8A 02 02 00  10 11 80 00 4B 02 03 01  .!..........K...
0240: 10 11 80 03 04 10 12 80  01 8A 02 02 00 10 13 80  ................
0250: 00 60 02 03 01 10 13 80  03 04 10 14 80 01 8A 02  .`..............
0260: 02 00 10 15 80 00 75 02  03 01 10 15 80 03 04 10  ......u.........
0270: 16 80 01 8A 02 02 00 10  17 80 00 8A 02 03 01 10  ................
0280: 17 80 03 04 10 18 80 01  8A 02 03 03 10 00 10 0C  ................
0290: 03 10 42 1D 19 80 23 43  00 43 01 02 02 10 11 80  ..B...#C.C......
02A0: 80 B0 02 03 01 10 11 80  03 04 10 12 80 01 EF 02  ................
02B0: 02 02 10 13 80 80 C5 02  03 01 10 13 80 03 04 10  ................
02C0: 14 80 01 EF 02 02 02 10  15 80 80 DA 02 03 01 10  ................
02D0: 15 80 03 04 10 16 80 01  EF 02 02 02 10 17 80 80  ................
02E0: EF 02 03 01 10 17 80 03  04 10 18 80 01 EF 02 02  ................
02F0: 05 10 11 80 00 0E 03 1D  1A 80 23 6E F8 FF FF 7F  ..........#n....
0300: 1B 80 99 F8 FF FF 7F 1D  1C 80 23 01 27 03 1D 1D  ..........#.'...
0310: 80 23 1D 1E 80 23 02 07  10 0B 80 01 22 03 1D 1F  .#...#......"...
0320: 80 23 03 01 10 0B 80 01  3A 03 02 00 10 11 80 00  .#......:.......
0330: 3A 03 03 01 10 0B 80 01  3A 03 21 00              :.......:.!.    
```

#### Opcodes

```
  0: 0x01F3 [0x1E] EventEntity looks at LocalPlayer and starts talking
  1: 0x01F8 [0x1D] PRINT_EVENT_MESSAGE(message_id=12964*)
    → "Out of my... Wait just a moment. You wouldn't happen to have returned because you wish to delve into the depths of Promyvion once more, would you?"
  2: 0x01FB [0x23] WAIT_FOR_DIALOG_INTERACTION
  3: 0x01FC [0x24] CREATE_DIALOG(message_id=12965*, default_option=1*, option_flags=0*)
    → "Well? [That's why I'm here./I was just passing by.]"
  4: 0x0203 [0x25] WAIT_DIALOG_SELECT()
  5: 0x0204 [0x02] IF !(Work_Zone[0] == 0*) GOTO 0x032A
  6: 0x020C [0x1D] PRINT_EVENT_MESSAGE(message_id=12950*)
    → "Excellent."
  7: 0x020F [0x23] WAIT_FOR_DIALOG_INTERACTION
  8: 0x0210 [0x1D] PRINT_EVENT_MESSAGE(message_id=12951*)
    → "According to data collected by the Duchy, there are several different locations around Vana'diel where the Empty thrive. Adventurers have given these realms the name "Promyvion.""
  9: 0x0213 [0x23] WAIT_FOR_DIALOG_INTERACTION
 10: 0x0214 [0x1D] PRINT_EVENT_MESSAGE(message_id=12952*)
    → "If my hypothesis is correct, I believe there are four types of special remnants--one to coincide with each area. Which area do you wish to investigate?"
 11: 0x0217 [0x23] WAIT_FOR_DIALOG_INTERACTION
 12: 0x0218 [0x24] CREATE_DIALOG(message_id=12953*, default_option=0*, option_flags=Work_Zone[2])
    → "Travel to... [Nowhere at this time./The Spire of Holla./The Spire of Dem./The Spire of Mea./The Spire of Vahzl.]"
 13: 0x021F [0x25] WAIT_DIALOG_SELECT()
 14: 0x0220 [0x02] IF !(Work_Zone[0] == 0*) GOTO 0x0236
 15: 0x0228 [0x1D] PRINT_EVENT_MESSAGE(message_id=12954*)
    → "If you have no intentions of assisting me, then stop wasting my time!"
 16: 0x022B [0x23] WAIT_FOR_DIALOG_INTERACTION
 17: 0x022C [0x03] Work_Zone[1] = 0*
 18: 0x0231 [0x21] END_EVENT
 19: 0x0232 [0x00] END_REQSTACK()

SUBROUTINE_028A:
 20: 0x028A [0x03] Work_Zone[3] = Work_Zone[0]
 21: 0x028F [0x0C] Work_Zone[3]--
 22: 0x0292 [0x42] SET_CLI_EVENT_CANCEL_DATA()
 23: 0x0293 [0x1D] PRINT_EVENT_MESSAGE(message_id=12955*)
    → "[Holla/Dem/Mea/Vahzl], you say? Then you will need this $3."
 24: 0x0296 [0x23] WAIT_FOR_DIALOG_INTERACTION
 25: 0x0297 [0x43] SEND_EVENT_UPDATE: Send pending tag to server (packet 0x005B)
 26: 0x0299 [0x43] SEND_EVENT_UPDATE: Check pending flag (skip if not pending)
 27: 0x029B [0x02] IF !(Work_Zone[2] == 1*) GOTO 0x02B0
 28: 0x02A3 [0x03] Work_Zone[1] = 1*
 29: 0x02A8 [0x03] Work_Zone[4] = 670*
 30: 0x02AD [0x01] GOTO 0x02EF
 31: 0x02B0 [0x02] IF !(Work_Zone[2] == 2*) GOTO 0x02C5
 32: 0x02B8 [0x03] Work_Zone[1] = 2*
 33: 0x02BD [0x03] Work_Zone[4] = 671*
 34: 0x02C2 [0x01] GOTO 0x02EF
 35: 0x02C5 [0x02] IF !(Work_Zone[2] == 3*) GOTO 0x02DA
 36: 0x02CD [0x03] Work_Zone[1] = 3*
 37: 0x02D2 [0x03] Work_Zone[4] = 672*
 38: 0x02D7 [0x01] GOTO 0x02EF
 39: 0x02DA [0x02] IF !(Work_Zone[2] == 4*) GOTO 0x02EF
 40: 0x02E2 [0x03] Work_Zone[1] = 4*
 41: 0x02E7 [0x03] Work_Zone[4] = 673*
 42: 0x02EC [0x01] GOTO 0x02EF

SUBROUTINE_02EF:
 43: 0x02EF [0x02] IF !(Work_Zone[5] == 1*) GOTO 0x030E
 44: 0x02F7 [0x1D] PRINT_EVENT_MESSAGE(message_id=12959*)
    → "Here, you may have this one, but take care not to lose it. These artifacts are extremely difficult to come by, and I have only a limited supply."
 45: 0x02FA [0x23] WAIT_FOR_DIALOG_INTERACTION
 46: 0x02FB [0x6E] EventEntity uses emote 34*
 47: 0x0302 [0x99] Wait for EventEntity animation to complete
 48: 0x0307 [0x1D] PRINT_EVENT_MESSAGE(message_id=12960*)
    → "And if you happen to come across one of the rare remnants that I seek, bring it directly to me. Only then will you receive your reward."
 49: 0x030A [0x23] WAIT_FOR_DIALOG_INTERACTION
 50: 0x030B [0x01] GOTO 0x0327
 51: 0x030E [0x1D] PRINT_EVENT_MESSAGE(message_id=12956*)
    → "Wait just a moment... I remember you."
 52: 0x0311 [0x23] WAIT_FOR_DIALOG_INTERACTION
 53: 0x0312 [0x1D] PRINT_EVENT_MESSAGE(message_id=12957*)
    → "While I appreciate your assistance, I do not have any more censers to aid you on your travels into Promyvion. I must ask you to return at a later date."
 54: 0x0315 [0x23] WAIT_FOR_DIALOG_INTERACTION
 55: 0x0316 [0x02] IF !(Work_Zone[7] == 0*) GOTO 0x0322
 56: 0x031E [0x1D] PRINT_EVENT_MESSAGE(message_id=12958*)
    → "Yes, I may be able to provide you with another $3 on ( Earth time) and not a day sooner."
 57: 0x0321 [0x23] WAIT_FOR_DIALOG_INTERACTION
 58: 0x0322 [0x03] Work_Zone[1] = 0*

SUBROUTINE_0327:
 59: 0x0327 [0x01] GOTO 0x033A
 60: 0x032A [0x02] IF !(Work_Zone[0] == 1*) GOTO 0x033A
 61: 0x0332 [0x03] Work_Zone[1] = 0*
 62: 0x0337 [0x01] GOTO 0x033A

SUBROUTINE_033A:
 63: 0x033A [0x21] END_EVENT
 64: 0x033B [0x00] END_REQSTACK()
```

#### Data or dead code:

```
# Dead code (unreachable instructions):
     0x0233 [0x01] GOTO 0x028A
```

### Event 10066

#### Metadata

| Field        | Value    |
|--------------|----------|
| Entrypoint   | 0x033C   |
| Data Size    | 37 bytes |
| Instructions | 13       |

```
      00 01 02 03 04 05 06 07  08 09 0A 0B 0C 0D 0E 0F
      -- -- -- -- -- -- -- --  -- -- -- -- -- -- -- --
0330:                                      42 03 01 10              B...
0340: 02 10 1E F0 FF FF 7F 1D  26 80 23 6E F8 FF FF 7F  ........&.#n....
0350: 17 80 99 F8 FF FF 7F 1D  27 80 23 1D 28 80 23 21  ........'.#.(.#!
0360: 00                                                .               
```

#### Opcodes

```
  0: 0x033C [0x42] SET_CLI_EVENT_CANCEL_DATA()
  1: 0x033D [0x03] Work_Zone[1] = Work_Zone[2]
  2: 0x0342 [0x1E] EventEntity looks at LocalPlayer and starts talking
  3: 0x0347 [0x1D] PRINT_EVENT_MESSAGE(message_id=12961*)
    → "What is this? You say you found something that may be of interest?"
  4: 0x034A [0x23] WAIT_FOR_DIALOG_INTERACTION
  5: 0x034B [0x6E] EventEntity uses emote 4*
  6: 0x0352 [0x99] Wait for EventEntity animation to complete
  7: 0x0357 [0x1D] PRINT_EVENT_MESSAGE(message_id=12962*)
    → "Yes... Yes! With this I can prove my ability to the society! I am guaranteed a position within their ranks for sure!"
  8: 0x035A [0x23] WAIT_FOR_DIALOG_INTERACTION
  9: 0x035B [0x1D] PRINT_EVENT_MESSAGE(message_id=12963*)
    → "Hm? Your reward? Oh, I do remember promising you something if you succeeded at your mission. How about this $0? I don't think the society will be missing it."
 10: 0x035E [0x23] WAIT_FOR_DIALOG_INTERACTION
 11: 0x035F [0x21] END_EVENT
 12: 0x0360 [0x00] END_REQSTACK()
```
