# 17772659 - Tillecoe

## Common Data

| Field            | Value                     |
|------------------|---------------------------|
| Zone             | Ru'Lude Gardens (ID: 243) |
| Block Size       | 5120 bytes                |
| Total Events     | 12                        |
| References Count | 174                       |

## List of Events

| Event ID              | Entrypoint   |   Size |   Instructions |
|-----------------------|--------------|--------|----------------|
| [65535](#event-65535) | 0x0000       |      1 |              1 |
| [71](#event-71)       | 0x0001       |     67 |             31 |
| [95](#event-95)       | 0x0044       |     24 |             13 |
| [96](#event-96)       | 0x005C       |     28 |             15 |
| [126](#event-126)     | 0x0078       |     48 |             24 |
| [127](#event-127)     | 0x00A8       |    108 |             29 |
| [72](#event-72)       | 0x0114       |    156 |             26 |
| [73](#event-73)       | 0x01B0       |     13 |              7 |
| [70](#event-70)       | 0x01BD       |   3539 |            795 |
| [124](#event-124)     | 0x0F90       |    117 |             37 |
| [166](#event-166)     | 0x1005       |     87 |             26 |
| [144](#event-144)     | 0x105C       |    169 |             41 |

## DAT References (imed_data)

|   Index | Hex Value   |   Dec Value |
|---------|-------------|-------------|
|       0 | 0x326A      |       12906 |
|       1 | 0x326B      |       12907 |
|       2 | 0x0000      |           0 |
|       3 | 0x326C      |       12908 |
|       4 | 0x326D      |       12909 |
|       5 | 0x326E      |       12910 |
|       6 | 0x326F      |       12911 |
|       7 | 0x3270      |       12912 |
|       8 | 0x3271      |       12913 |
|       9 | 0x3272      |       12914 |
|      10 | 0x3273      |       12915 |
|      11 | 0x3274      |       12916 |
|      12 | 0x3279      |       12921 |
|      13 | 0x327A      |       12922 |
|      14 | 0x327B      |       12923 |
|      15 | 0x327C      |       12924 |
|      16 | 0x327D      |       12925 |
|      17 | 0x327E      |       12926 |
|      18 | 0x327F      |       12927 |
|      19 | 0x3275      |       12917 |
|      20 | 0x3276      |       12918 |
|      21 | 0x3277      |       12919 |
|      22 | 0x323C      |       12860 |
|      23 | 0x0001      |           1 |
|      24 | 0x007A      |         122 |
|      25 | 0x0104      |         260 |
|      26 | 0xFFFFFFFF  |  4294967295 |
|      27 | 0x007F      |         127 |
|      28 | 0x323D      |       12861 |
|      29 | 0xFFFFFFFE  |  4294967294 |
|      30 | 0x323E      |       12862 |
|      31 | 0x3278      |       12920 |
|      32 | 0x0007      |           7 |
|      33 | 0x0008      |           8 |
|      34 | 0x000F      |          15 |
|      35 | 0x0010      |          16 |
|      36 | 0x0017      |          23 |
|      37 | 0x0018      |          24 |
|      38 | 0x001F      |          31 |
|      39 | 0x02CA      |         714 |
|      40 | 0x02CD      |         717 |
|      41 | 0x320E      |       12814 |
|      42 | 0x0002      |           2 |
|      43 | 0x0003      |           3 |
|      44 | 0x0004      |           4 |
|      45 | 0x0005      |           5 |
|      46 | 0x0006      |           6 |
|      47 | 0x0009      |           9 |
|      48 | 0x000A      |          10 |
|      49 | 0x000B      |          11 |
|      50 | 0x000C      |          12 |
|      51 | 0x000D      |          13 |
|      52 | 0x1C20      |        7200 |
|      53 | 0x31FB      |       12795 |
|      54 | 0x31FC      |       12796 |
|      55 | 0x31FD      |       12797 |
|      56 | 0x31FE      |       12798 |
|      57 | 0x31FF      |       12799 |
|      58 | 0x3207      |       12807 |
|      59 | 0x14B6      |        5302 |
|      60 | 0x3240      |       12864 |
|      61 | 0x3200      |       12800 |
|      62 | 0x0240      |         576 |
|      63 | 0x320D      |       12813 |
|      64 | 0x3208      |       12808 |
|      65 | 0x3209      |       12809 |
|      66 | 0x320A      |       12810 |
|      67 | 0x3206      |       12806 |
|      68 | 0x0021      |          33 |
|      69 | 0x2DA4      |       11684 |
|      70 | 0x16DA0     |       93600 |
|      71 | 0x2000      |        8192 |
|      72 | 0x2A300     |      172800 |
|      73 | 0x3224      |       12836 |
|      74 | 0x000E      |          14 |
|      75 | 0x3227      |       12839 |
|      76 | 0x14B4      |        5300 |
|      77 | 0x3228      |       12840 |
|      78 | 0x3226      |       12838 |
|      79 | 0x320B      |       12811 |
|      80 | 0x3225      |       12837 |
|      81 | 0x14B5      |        5301 |
|      82 | 0x3229      |       12841 |
|      83 | 0x322A      |       12842 |
|      84 | 0x322B      |       12843 |
|      85 | 0x3243      |       12867 |
|      86 | 0x3244      |       12868 |
|      87 | 0x3245      |       12869 |
|      88 | 0x3246      |       12870 |
|      89 | 0x14B7      |        5303 |
|      90 | 0x3247      |       12871 |
|      91 | 0x3248      |       12872 |
|      92 | 0x3249      |       12873 |
|      93 | 0x324A      |       12874 |
|      94 | 0x0064      |         100 |
|      95 | 0x324B      |       12875 |
|      96 | 0x324C      |       12876 |
|      97 | 0x02EE      |         750 |
|      98 | 0x0258      |         600 |
|      99 | 0x01F4      |         500 |
|     100 | 0x0190      |         400 |
|     101 | 0x012C      |         300 |
|     102 | 0x00C8      |         200 |
|     103 | 0x324D      |       12877 |
|     104 | 0x324E      |       12878 |
|     105 | 0x324F      |       12879 |
|     106 | 0x3250      |       12880 |
|     107 | 0x3258      |       12888 |
|     108 | 0x3259      |       12889 |
|     109 | 0x3251      |       12881 |
|     110 | 0x3252      |       12882 |
|     111 | 0x3253      |       12883 |
|     112 | 0x3254      |       12884 |
|     113 | 0x3255      |       12885 |
|     114 | 0x3256      |       12886 |
|     115 | 0x3257      |       12887 |
|     116 | 0x325A      |       12890 |
|     117 | 0x325B      |       12891 |
|     118 | 0x325C      |       12892 |
|     119 | 0x325D      |       12893 |
|     120 | 0x325E      |       12894 |
|     121 | 0x3260      |       12896 |
|     122 | 0x3261      |       12897 |
|     123 | 0x3262      |       12898 |
|     124 | 0x3263      |       12899 |
|     125 | 0x3268      |       12904 |
|     126 | 0x3269      |       12905 |
|     127 | 0x3264      |       12900 |
|     128 | 0x3265      |       12901 |
|     129 | 0x3266      |       12902 |
|     130 | 0x3267      |       12903 |
|     131 | 0x325F      |       12895 |
|     132 | 0x320F      |       12815 |
|     133 | 0x3210      |       12816 |
|     134 | 0x3211      |       12817 |
|     135 | 0x3212      |       12818 |
|     136 | 0x3213      |       12819 |
|     137 | 0x3214      |       12820 |
|     138 | 0x3215      |       12821 |
|     139 | 0x3216      |       12822 |
|     140 | 0x3217      |       12823 |
|     141 | 0x3218      |       12824 |
|     142 | 0x0384      |         900 |
|     143 | 0x3219      |       12825 |
|     144 | 0x321A      |       12826 |
|     145 | 0x321B      |       12827 |
|     146 | 0x321C      |       12828 |
|     147 | 0x321D      |       12829 |
|     148 | 0x321E      |       12830 |
|     149 | 0x321F      |       12831 |
|     150 | 0x3220      |       12832 |
|     151 | 0x3221      |       12833 |
|     152 | 0x3222      |       12834 |
|     153 | 0x320C      |       12812 |
|     154 | 0xFFFFFFFD  |  4294967293 |
|     155 | 0x3223      |       12835 |
|     156 | 0xFFFFFFFC  |  4294967292 |
|     157 | 0x322C      |       12844 |
|     158 | 0x3234      |       12852 |
|     159 | 0x3237      |       12855 |
|     160 | 0x3238      |       12856 |
|     161 | 0x3239      |       12857 |
|     162 | 0xFFFFFFFB  |  4294967291 |
|     163 | 0x322D      |       12845 |
|     164 | 0x322E      |       12846 |
|     165 | 0x3232      |       12850 |
|     166 | 0x3233      |       12851 |
|     167 | 0x3235      |       12853 |
|     168 | 0x322F      |       12847 |
|     169 | 0x3230      |       12848 |
|     170 | 0x40000000  |  1073741824 |
|     171 | 0x3231      |       12849 |
|     172 | 0x323A      |       12858 |
|     173 | 0x323B      |       12859 |

## String References

- **11684**: I'm sorry. I wasn't listening. Could you start over from the beginning?
- **12795**: Greetings, adventurer! My name is Tillecoe, pupil of the great and powerful mage Abdhaljs, and I have been assigned with the management of my master's greatest creation--Diorama Abdhaljs-Ghelsba.
- **12796**: Diorama access for the period of to is no longer available.
- **12797**: Since you are a candidate for Master of Ceremonies (MC), you are authorized to make certain rule changes concerning participation.
- **12798**: The current Diorama Ballista participation rules set by the Master of Ceremonies are as follows: [ /Anyone can attend/Anyone can participate/Anyone can attend or participate].
- **12799**: Select one... [Quit./Reserve the Diorama (2 days from now)./Reserve the Diorama (now)./View the reservation list./[Allow/Restrict] gallery./[Allow/Restrict] participation./View a match./Participate in a match./Enter the Diorama./FAQ: What is the Diorama?/FAQ: Reserving the Diorama.]
- **12800**: I see that you have recently utilized our Diorama services. I apologize, but I must ask that you wait a few more moments before attempting any further transactions.
- **12806**: I apologize, but the Diorama is currently out of service.
- **12807**: Currently, no parties occupy the Diorama.
- **12808**: The Diorama is currently under occupation from until .
- **12809**: In addition, reservations for to have also come to a close.
- **12810**: Reservations for the next available block will be accepted from .
- **12811**: Since you already possess $0, I cannot allow you to make any further reservations. Also, remember to dispose of the $0 after the time inscribed on it has passed.
- **12812**: $0 for has already been distributed.
- **12813**: To provide you with $0, you must have already earned your $3.
- **12814**: I do not think you meet the requirements necessary to participate in events held in Diora... Ahem! Excuse me, [sir/madame]. I am not authorized to disclose any further information to those who have not yet met all IRNC qualifications.
- **12815**: $1 Ballista Points are required to purchase $0 (you currently have $2 [point/points]).
- **12816**: Would you like a copy? [Not at this time./Level restriction: $7./Level restriction: 60./Level restriction: 50./Level restriction: 40./Level restriction: 30./Level restriction: 20./Level restriction: 10.]
- **12817**: Please note that teleportation to the Diorama will require a one-time fee of $4 gil.
- **12818**: When you set a reservation comment, it will be reflected in your reservation status information.
- **12819**: Set a reservation comment? [Set to "Recruiting Members."/No thanks.]
- **12820**: By setting your comment to "Recruiting Members," I can provide $6 for that time block to anyone who wishes to join the match.
- **12821**: Set to "Recruiting Members"? [Set comment./Return.]
- **12822**: Are you sure you wish to purchase $0 ([no level restriction/level restriction: 60/level restriction: 50/level restriction: 40/level restriction: 30/level restriction: 20/level restriction: 10]) with a reservation comment of [no comment/Recruiting Members] and reserve the Diorama for ?
- **12823**: Are you sure you wish to purchase $0 ([no level restriction/level restriction: 60/level restriction: 50/level restriction: 40/level restriction: 30/level restriction: 20/level restriction: 10]) and reserve the Diorama for ?
- **12824**: Complete the transaction? [Yes./No.]
- **12825**: Congratulations. You have reserved the Diorama from to . The level restriction will be set to [$7/60/50/40/30/20/10].
- **12826**: All other rules regarding gameplay can be changed by speaking with the Herald stationed within the Diorama.
- **12827**: Finally, remember that your reservation at this time does not guarantee your entry into the Diorama.
- **12828**: Only by showing me $0 or $3 between and will you be granted access to the area.
- **12829**: If you fail to speak with me during this period, your reservation will be lost. In this event, no Ballista Points will be refunded.
- **12830**: Access to the Diorama is currently possible. [There is no level limit set/The level limit is set to 60/The level limit is set to 50/The level limit is set to 40/The level limit is set to 30/The level limit is set to 20/The level limit is set to 10].
- **12831**: Since you are a candidate for Master of Ceremonies (MC), you are authorized to make certain rule changes concerning participation. You can also adjust the rules of play after entering the Diorama.
- **12832**: You must be in possession of your $0 if you wish to make any rule adjustments, so take care not to misplace it. No refunds will be granted in the event of loss and/or theft.
- **12833**: Also, $3 can be taken from the $0 by using it. Give the pages to any and all adventurers you wish to join you in the Diorama.
- **12834**: $3 can also be reproduced by using them in the same manner as you would with the book.
- **12835**: I am sorry. The reservation period starting on has just concluded. Please start the application process once again.
- **12836**: Reservation status is as follows: [Previous page./ [H/|/~/~!/OM] [$7/60/50/40/30/20/10/]/ [H/|/~/~!/OM] [$7/60/50/40/30/20/10/]/ [H/|/~/~!/OM] [$7/60/50/40/30/20/10/]/ [H/|/~/~!/OM] [$7/60/50/40/30/20/10/]/ [H/|/~/~!/OM] [$7/60/50/40/30/20/10/]/ [H/|/~/~!/OM] [$7/60/50/40/30/20/10/]/ [H/|/~/~!/OM] [$7/60/50/40/30/20/10/]/ [H/|/~/~!/OM] [$7/60/50/40/30/20/10/]/ [H/|/~/~!/OM] [$7/60/50/40/30/20/10/]/ [H/|/~/~!/OM] [$7/60/50/40/30/20/10/]/ [H/|/~/~!/OM] "[$7/60/50/40/30/20/10/]/ [H/|/~/~!/OM] #[$7/60/50/40/30/20/10/]/Next Page./Return.]
- **12837**: There is currently a reservation for the Diorama on . Level restriction: [None/60/50/40/30/20/10] Comment: [None/Recruiting]
- **12838**: Currently, no reservations have been made for .
- **12839**: I am sorry. I seem to have misplaced the reservation documents for ...
- **12840**: However, any reservation you might have made for this block is still in effect. I can replace the information if you bring me the correct $0.
- **12841**: Current settings allow anyone who wishes to join the match to receive $6.
- **12842**: Would you like to apply for the match? [Yes./No.]
- **12843**: I apologize, but I was unable to process your application. Please try again.
- **12844**: According to the $0 you currently possess, you must apply with me between and for access to the Diorama.
- **12845**: Thanks to your efforts, I have recovered your reservation information for .
- **12846**: Now you may change your reservation comment by trading the $0 to me.
- **12847**: Currently, your reservation comment is set to: [None/Recruiting]
- **12848**: Change your reservation comment? [No changes./Delete comment./Change to "Recruiting Members."]
- **12849**: Your reservation comment has been set to: [None/Recruiting Members]
- **12850**: Your application for access to the Diorama ( \` ) has been granted. Teleportation services will begin shortly. Please wait one moment.
- **12851**: You must present your $0 at the time of teleportation. Take care not to lose it.
- **12852**: Your have been granted access to the Diorama ( \` ). Teleportation services will begin shortly. Please wait one moment.
- **12853**: As Master of Ceremonies (MC), you will be required to conduct the proceedings of all matches held within the Diorama. This includes the adjustment of participation rules (speak with me) and the setting of match rules (speak with the Herald).
- **12855**: I am sorry, but you were required to reconfirm your reservation on . You no longer have access to the Diorama.
- **12856**: Your $0 can no longer be used. Please dispose of it (and remember to recycle).
- **12857**: This $0 can no longer be used. Please dispose of it (and remember to recycle).
- **12858**: Your level is lower than the restriction. Please be warned that by entering the Diorama at this level, you may not be eligible to participate in the match(es) held.
- **12859**: Travel to the Diorama? ($0 gil) [Yes./Not yet.]
- **12860**: Travel to the Diorama? [Yes./Not yet.]
- **12861**: You do not possess the $0 gil necessary for teleportation.
- **12862**: The current Diorama reservation has expired. I can no longer teleport you.
- **12864**: Since you already possess $0, I cannot allow you to make any further reservations. Also, remember to dispose of the $0 after the time inscribed on it has passed.
- **12867**: By allowing a gallery, I can teleport to the Diorama (for a small fee) anyone who wishes to view the matches.
- **12868**: However, remember that these gallery members will be restricted from match participation.
- **12869**: Allow gallery attendance? [No./Yes./Leave at current setting.]
- **12870**: Understood. Gallery attendance will [not /]be allowed in the Diorama.
- **12871**: By allowing general participation, I can provide adventurers with $0 that they can use to travel to the Diorama and take part in any Ballista matches held within.
- **12872**: Allow general participation? [No./Yes./Leave at current setting.]
- **12873**: Understood. General participation will [not /]be allowed in the Diorama.
- **12874**: Any adventurers who wish to travel to the Diorama to witness the events currently being held may do so. However, please note that all "gallery members" will not be allowed to participate in any matches.
- **12875**: If you still wish to be teleported, I will require a fee of $0 gil.
- **12876**: Become a gallery member? [Yes./No.]
- **12877**: General participation is currently being allowed for the next Diorama Ballista match. [There is no level limit set/The level limit is set to 60/The level limit is set to 50/The level limit is set to 40/The level limit is set to 30/The level limit is set to 20/The level limit is set to 10].
- **12878**: I have been given authorization by the acting Master of Ceremonies to provide any adventurer who wishes to take part in the event with $1, as well as teleport him or her to the battlefield (for a small fee of $0 gil).
- **12879**: Do you wish to participate? [Yes./No.]
- **12880**: When you have made your preparations, show me your $0 and I shall teleport you to the Diorama.
- **12881**: Many years ago, before Conflict was banned, my master, the almighty Abdhaljs, honed his magical battle techniques on the fields of Ballista.
- **12882**: And now with the recent reinstatement of the exercises, the great mage has been working feverishly to complete a creation he believes can be of great assistance to Conflict--Diorama Abdhaljs-Ghelsba.
- **12883**: What is a Diorama? Similar to the one used in the popular children's board game "Battleista," Diorama Abdhaljs is a miniature version of an actual location in Vana'diel.
- **12884**: However, there is one thing that sets Diorama Abdhaljs apart from its counterpart. In the place of wooden game pieces, living, breathing warriors are used!
- **12885**: How is that possible, you ask? Well, in his studies, my master was able to unlock the secrets of the ancient magic known as "Mini"--a forbidden spell with the power to reduce objects to a fraction of their original size.
- **12886**: By using the incantations inscribed on codices authored by Abdhaljs, players can be temporarily shrunk down and teleported to the miniature battlefield hidden on a secluded island somewhere in the Tavnazian Archipelago.
- **12887**: It is all perfectly safe, and the all-seeing Abdhaljs guarantees that you will be satisfied with your experience within his creation (though no refunds will be offered if you are not).
- **12888**: A valid $0, $1, $2, or $3 is required for access to the Diorama.
- **12889**: Present one to me when you have completed your preparations.
- **12890**: What would you like to know? [About making reservations./About reservation guidelines./About reservation status./About the waiting list./Return.]
- **12891**: The Diorama can be reserved in blocks of two hours (Earth time).
- **12892**: Reservations can be made for same-day blocks, as well as blocks two days in advance. For example, you could currently reserve the two-hour block from to .
- **12893**: If no reservations have been made for the current block, or a person fails to reconfirm his or her reservation, other adventurers may be granted access to the area.
- **12894**: At the time of the reservation, the client will be required to decide on a level restriction. Once this is set, $0 inscribed with the Diorama access time and the level restriction will be presented.
- **12895**: If there is no reservation for the current two-hour block, or a person fails to reconfirm his or her reservation, other adventurers may be granted access to the area.
- **12896**: The person who possesses the original $0 is automatically named the Master of Ceremonies (MC), and will be granted authorization to change various Diorama access settings, as well as Ballista-related rules within the area.
- **12897**: Reservations are only good for blocks of two hours. When a party's time in the Diorama is up, all participants will be teleported back here to the Ru'Lude Gardens.
- **12898**: By using $0, adventurers can create $1. Any person who possesses one of these pages will be granted access to the Diorama from the time indicated on the bottom.
- **12899**: Also, more $1 can be made by simply using the page as one would a normal item.
- **12900**: You can now make and confirm reservations using the reservation status list.
- **12901**: The status of each time block will be displayed in symbols. The symbols' meanings are as follows: "H": The reservation documents have been misplaced. "|": No reservation. "OM": Official match.
- **12902**: You can select a block marked with "|" to make a reservation.
- **12903**: A "~" mark represents a block that is already reserved. "~!" designates a reserved block whose team is still recruiting. You can select the block to find out more.
- **12904**: If not a single adventurer possessing the appropriate $0 or $1 reports for reservation reconfirmation (up until 15 Earth minutes before the reserved time), the reservation will be cancelled.
- **12905**: Once the reservation has been cancelled, the $0 and all $1 will become void. At this time, other adventurers will have the opportunity to immediately reserve the area.
- **12906**: Ah, welcome, <Player>! I see that you are on the Ballista Royale participation list. I will now present you with the item you will need to enter the special Ballista area being used for the event.
- **12907**: Please review the time inscribed on the bottom of the codex. This is when the check-in period will begin. At that time, please show me the item once more and I shall teleport you to the Diorama.
- **12908**: The entry period will end and briefing will commence $10 [minute/minutes] (Earth time) after the check-in period starts.
- **12909**: The maximum number of members allowed on one team is $11. Entries during matches are [not allowed/allowed], and entry cancellation during matches is [not permitted/permitted]. Also, players with the same job are not allowed to serve on the same team, [and support jobs are prohibited./though there are no restrictions on support jobs.]
- **12910**: The maximum level allowed is [not set/set to 60/set to 50/set to 40/set to 30/set to 20/set to 10]. The minimum level required is [not set/set to 60/set to 50/set to 40/set to 30/set to 20/set to 10].
- **12911**: Matches will be played in the "[all or nothing/best of three/]" style, with [/single-]match length set at [10 minutes/15 minutes/20 minutes/30 minutes/45 minutes/1 Vana'diel day (57 minutes, 36 seconds)/60 minutes/] (Earth time). Normal item usage is [not allowed/allowed] and the maximum number of temporary items carryable is [10/15/20].
- **12912**: Participants will[ not/] be able to choose whether or not they can keep Petras they find, and Petras or items will[/ not] be found with every /quarry. The maximum number of Petras a player can score at one time is [1/2/3/4/5/10/15/not set], and a match will [not be called as a result of a large lead/be called the moment one team leads by 10/be called the moment one team leads by 20/be called the moment one team leads by 30/be called the moment one team leads by 40/be called the moment one team leads by 50/be called the moment one team leads by 60/be called the moment one team leads by 70/be called the moment one team leads by 80/be called the moment one team leads by 90/be called the moment one team leads by 100].
- **12913**: Also, it is possible to use $6 and $6.
- **12914**: You may review these rules again by showing me your proof of participation.
- **12915**: Also, the tournament rules can be reconfirmed by speaking with a Herald within the Diorama.
- **12916**: Finally, if you lose your proof of participation, please speak with me again and I shall reissue you a new one.
- **12917**: I am not yet authorized to teleport you to the Ballista Royale tournament. While you wait, let me explain the rules of the event.
- **12918**: That is all. I suggest you spend your remaining time preparing for the match.
- **12919**: The Ballista Royale is about to begin! Let me teleport you to Diorama Abdhaljs-Ghelsba immediately!
- **12920**: This $0 is no longer valid. Please dispose of it in one of the Duchy's fine waste receptacle units.
- **12921**: We've been waiting for your arrival [Mr./Ms.]... Ah, yes, here it is--[Mr./Ms.] <Player>. Congratulations on your team's victory in the Ballista Royale preliminaries. You have successfully earned your ticket to the finals!
- **12922**: Come to think of it, I knew that [Mr./Ms.]...<Player>...yes, [Mr./Ms.] <Player>'s team would win all along! There was just something different about you... Something that smelled...like a winner, of course!
- **12923**: Ahem! Anyway, now let me present you with your prize and a new title. I'm looking forward to seeing your name in my register again in the near future! Au Revoir!
- **12924**: Ah, we've been waiting for you arrival [Mr./Ms.] <Player>. (You see? Win enough times and I'm bound to remember your name!) Congratulations on your team's victory in the Ballista Royale Grand Tournament!
- **12925**: I knew that you were talented, but it looks like you also had a smite of fortune on your side. How much did you pay off Lady Luck to have her smile down on only you? Hah hah hah... I'm sorry. That wasn't very funny...
- **12926**: But seriously, the blood you spilled, the tears you shed, the sweat you...you...sweat--all of these made you and your companions that much stronger. It was truly your hard work and perserverance that lead you to victory. Though, I knew all along that your team would win.
- **12927**: Ahem! Now let me present you with your royale prize and new title, fit for a champion! Good show, [Lord/Lady] <Player>!

## Events

### Event 65535

#### Metadata

| Field        | Value   |
|--------------|---------|
| Entrypoint   | 0x0000  |
| Data Size    | 1 bytes |
| Instructions | 1       |

```
      00 01 02 03 04 05 06 07  08 09 0A 0B 0C 0D 0E 0F
      -- -- -- -- -- -- -- --  -- -- -- -- -- -- -- --
0000: 00                                                .               
```

#### Opcodes

```
  0: 0x0000 [0x00] END_REQSTACK()
```

### Event 71

#### Metadata

| Field        | Value    |
|--------------|----------|
| Entrypoint   | 0x0001   |
| Data Size    | 67 bytes |
| Instructions | 31       |

```
      00 01 02 03 04 05 06 07  08 09 0A 0B 0C 0D 0E 0F
      -- -- -- -- -- -- -- --  -- -- -- -- -- -- -- --
0000:    20 01 42 1E F0 FF FF  7F 6F 70 1A 21 01 1D 00    .B.....op.!...
0010: 80 23 1D 01 80 23 02 1A  00 02 80 00 3E 00 1D 03  .#...#......>...
0020: 80 23 1D 04 80 23 1D 05  80 23 1D 06 80 23 1D 07  .#...#...#...#..
0030: 80 23 1D 08 80 23 1D 09  80 23 1D 0A 80 23 1D 0B  .#...#...#...#..
0040: 80 23 21 00                                       .#!.            
```

#### Opcodes

```
  0: 0x0001 [0x20] SET_CLI_EVENT_UC_FLAG: Lock player control
  1: 0x0003 [0x42] SET_CLI_EVENT_CANCEL_DATA()
  2: 0x0004 [0x1E] EventEntity looks at LocalPlayer and starts talking
  3: 0x0009 [0x6F] WAIT_FRAME_DELAY: Yield until WaitTime reaches zero
  4: 0x000A [0x70] WAIT_ENTITY_RENDER_FLAG: Wait while EventEntity->Render.Flags3 bit 2 is set (cancel turn if not)
  5: 0x000B [0x1A] CALL_SUBROUTINE(address=0x0121)
  6: 0x000E [0x1D] PRINT_EVENT_MESSAGE(message_id=12906*)
    → "Ah, welcome, <Player>! I see that you are on the Ballista Royale participation list. I will now present you with the item you will need to enter the special Ballista area being used for the event."
  7: 0x0011 [0x23] WAIT_FOR_DIALOG_INTERACTION
  8: 0x0012 [0x1D] PRINT_EVENT_MESSAGE(message_id=12907*)
    → "Please review the time inscribed on the bottom of the codex. This is when the check-in period will begin. At that time, please show me the item once more and I shall teleport you to the Diorama."
  9: 0x0015 [0x23] WAIT_FOR_DIALOG_INTERACTION
 10: 0x0016 [0x02] IF !(ExtData[1]->WorkLocal[26] == 0*) GOTO 0x003E
 11: 0x001E [0x1D] PRINT_EVENT_MESSAGE(message_id=12908*)
    → "The entry period will end and briefing will commence $10 [minute/minutes] (Earth time) after the check-in period starts."
 12: 0x0021 [0x23] WAIT_FOR_DIALOG_INTERACTION
 13: 0x0022 [0x1D] PRINT_EVENT_MESSAGE(message_id=12909*)
    → "The maximum number of members allowed on one team is $11. Entries during matches are [not allowed/allowed], and entry cancellation during matches is [not permitted/permitted]. Also, players with the same job are not allowed to serve on the same team, [and support jobs are prohibited./though there are no restrictions on support jobs.]"
 14: 0x0025 [0x23] WAIT_FOR_DIALOG_INTERACTION
 15: 0x0026 [0x1D] PRINT_EVENT_MESSAGE(message_id=12910*)
    → "The maximum level allowed is [not set/set to 60/set to 50/set to 40/set to 30/set to 20/set to 10]. The minimum level required is [not set/set to 60/set to 50/set to 40/set to 30/set to 20/set to 10]."
 16: 0x0029 [0x23] WAIT_FOR_DIALOG_INTERACTION
 17: 0x002A [0x1D] PRINT_EVENT_MESSAGE(message_id=12911*)
    → "Matches will be played in the "[all or nothing/best of three/]" style, with [/single-]match length set at [10 minutes/15 minutes/20 minutes/30 minutes/45 minutes/1 Vana'diel day (57 minutes, 36 seconds)/60 minutes/] (Earth time). Normal item usage is [not allowed/allowed] and the maximum number of temporary items carryable is [10/15/20]."
 18: 0x002D [0x23] WAIT_FOR_DIALOG_INTERACTION
 19: 0x002E [0x1D] PRINT_EVENT_MESSAGE(message_id=12912*)
    → "Participants will[ not/] be able to choose whether or not they can keep Petras they find, and Petras or items will[/ not] be found with every /quarry. The maximum number of Petras a player can score at one time is [1/2/3/4/5/10/15/not set], and a match will [not be called as a result of a large lead/be called the moment one team leads by 10/be called the moment one team leads by 20/be called the moment one team leads by 30/be called the moment one team leads by 40/be called the moment one team leads by 50/be called the moment one team leads by 60/be called the moment one team leads by 70/be called the moment one team leads by 80/be called the moment one team leads by 90/be called the moment one team leads by 100]."
 20: 0x0031 [0x23] WAIT_FOR_DIALOG_INTERACTION
 21: 0x0032 [0x1D] PRINT_EVENT_MESSAGE(message_id=12913*)
    → "Also, it is possible to use $6 and $6."
 22: 0x0035 [0x23] WAIT_FOR_DIALOG_INTERACTION
 23: 0x0036 [0x1D] PRINT_EVENT_MESSAGE(message_id=12914*)
    → "You may review these rules again by showing me your proof of participation."
 24: 0x0039 [0x23] WAIT_FOR_DIALOG_INTERACTION
 25: 0x003A [0x1D] PRINT_EVENT_MESSAGE(message_id=12915*)
    → "Also, the tournament rules can be reconfirmed by speaking with a Herald within the Diorama."
 26: 0x003D [0x23] WAIT_FOR_DIALOG_INTERACTION
 27: 0x003E [0x1D] PRINT_EVENT_MESSAGE(message_id=12916*)
    → "Finally, if you lose your proof of participation, please speak with me again and I shall reissue you a new one."
 28: 0x0041 [0x23] WAIT_FOR_DIALOG_INTERACTION
 29: 0x0042 [0x21] END_EVENT
 30: 0x0043 [0x00] END_REQSTACK()
```

### Event 95

#### Metadata

| Field        | Value    |
|--------------|----------|
| Entrypoint   | 0x0044   |
| Data Size    | 24 bytes |
| Instructions | 13       |

```
      00 01 02 03 04 05 06 07  08 09 0A 0B 0C 0D 0E 0F
      -- -- -- -- -- -- -- --  -- -- -- -- -- -- -- --
0040:             20 01 42 1E  F0 FF FF 7F 6F 70 1D 0C       .B.....op..
0050: 80 23 1D 0D 80 23 1D 0E  80 23 21 00              .#...#...#!.    
```

#### Opcodes

```
  0: 0x0044 [0x20] SET_CLI_EVENT_UC_FLAG: Lock player control
  1: 0x0046 [0x42] SET_CLI_EVENT_CANCEL_DATA()
  2: 0x0047 [0x1E] EventEntity looks at LocalPlayer and starts talking
  3: 0x004C [0x6F] WAIT_FRAME_DELAY: Yield until WaitTime reaches zero
  4: 0x004D [0x70] WAIT_ENTITY_RENDER_FLAG: Wait while EventEntity->Render.Flags3 bit 2 is set (cancel turn if not)
  5: 0x004E [0x1D] PRINT_EVENT_MESSAGE(message_id=12921*)
    → "We've been waiting for your arrival [Mr./Ms.]... Ah, yes, here it is--[Mr./Ms.] <Player>. Congratulations on your team's victory in the Ballista Royale preliminaries. You have successfully earned your ticket to the finals!"
  6: 0x0051 [0x23] WAIT_FOR_DIALOG_INTERACTION
  7: 0x0052 [0x1D] PRINT_EVENT_MESSAGE(message_id=12922*)
    → "Come to think of it, I knew that [Mr./Ms.]...<Player>...yes, [Mr./Ms.] <Player>'s team would win all along! There was just something different about you... Something that smelled...like a winner, of course!"
  8: 0x0055 [0x23] WAIT_FOR_DIALOG_INTERACTION
  9: 0x0056 [0x1D] PRINT_EVENT_MESSAGE(message_id=12923*)
    → "Ahem! Anyway, now let me present you with your prize and a new title. I'm looking forward to seeing your name in my register again in the near future! Au Revoir!"
 10: 0x0059 [0x23] WAIT_FOR_DIALOG_INTERACTION
 11: 0x005A [0x21] END_EVENT
 12: 0x005B [0x00] END_REQSTACK()
```

### Event 96

#### Metadata

| Field        | Value    |
|--------------|----------|
| Entrypoint   | 0x005C   |
| Data Size    | 28 bytes |
| Instructions | 15       |

```
      00 01 02 03 04 05 06 07  08 09 0A 0B 0C 0D 0E 0F
      -- -- -- -- -- -- -- --  -- -- -- -- -- -- -- --
0050:                                      20 01 42 1E               .B.
0060: F0 FF FF 7F 6F 70 1D 0F  80 23 1D 10 80 23 1D 11  ....op...#...#..
0070: 80 23 1D 12 80 23 21 00                           .#...#!.        
```

#### Opcodes

```
  0: 0x005C [0x20] SET_CLI_EVENT_UC_FLAG: Lock player control
  1: 0x005E [0x42] SET_CLI_EVENT_CANCEL_DATA()
  2: 0x005F [0x1E] EventEntity looks at LocalPlayer and starts talking
  3: 0x0064 [0x6F] WAIT_FRAME_DELAY: Yield until WaitTime reaches zero
  4: 0x0065 [0x70] WAIT_ENTITY_RENDER_FLAG: Wait while EventEntity->Render.Flags3 bit 2 is set (cancel turn if not)
  5: 0x0066 [0x1D] PRINT_EVENT_MESSAGE(message_id=12924*)
    → "Ah, we've been waiting for you arrival [Mr./Ms.] <Player>. (You see? Win enough times and I'm bound to remember your name!) Congratulations on your team's victory in the Ballista Royale Grand Tournament!"
  6: 0x0069 [0x23] WAIT_FOR_DIALOG_INTERACTION
  7: 0x006A [0x1D] PRINT_EVENT_MESSAGE(message_id=12925*)
    → "I knew that you were talented, but it looks like you also had a smite of fortune on your side. How much did you pay off Lady Luck to have her smile down on only you? Hah hah hah... I'm sorry. That wasn't very funny..."
  8: 0x006D [0x23] WAIT_FOR_DIALOG_INTERACTION
  9: 0x006E [0x1D] PRINT_EVENT_MESSAGE(message_id=12926*)
    → "But seriously, the blood you spilled, the tears you shed, the sweat you...you...sweat--all of these made you and your companions that much stronger. It was truly your hard work and perserverance that lead you to victory. Though, I knew all along that your team would win."
 10: 0x0071 [0x23] WAIT_FOR_DIALOG_INTERACTION
 11: 0x0072 [0x1D] PRINT_EVENT_MESSAGE(message_id=12927*)
    → "Ahem! Now let me present you with your royale prize and new title, fit for a champion! Good show, [Lord/Lady] <Player>!"
 12: 0x0075 [0x23] WAIT_FOR_DIALOG_INTERACTION
 13: 0x0076 [0x21] END_EVENT
 14: 0x0077 [0x00] END_REQSTACK()
```

### Event 126

#### Metadata

| Field        | Value    |
|--------------|----------|
| Entrypoint   | 0x0078   |
| Data Size    | 48 bytes |
| Instructions | 24       |

```
      00 01 02 03 04 05 06 07  08 09 0A 0B 0C 0D 0E 0F
      -- -- -- -- -- -- -- --  -- -- -- -- -- -- -- --
0070:                          1E F0 FF FF 7F 6F 70 1A          .....op.
0080: 21 01 1D 13 80 23 1D 03  80 23 1D 04 80 23 1D 05  !....#...#...#..
0090: 80 23 1D 06 80 23 1D 07  80 23 1D 08 80 23 1D 14  .#...#...#...#..
00A0: 80 23 1D 01 80 23 21 00                           .#...#!.        
```

#### Opcodes

```
  0: 0x0078 [0x1E] EventEntity looks at LocalPlayer and starts talking
  1: 0x007D [0x6F] WAIT_FRAME_DELAY: Yield until WaitTime reaches zero
  2: 0x007E [0x70] WAIT_ENTITY_RENDER_FLAG: Wait while EventEntity->Render.Flags3 bit 2 is set (cancel turn if not)
  3: 0x007F [0x1A] CALL_SUBROUTINE(address=0x0121)
  4: 0x0082 [0x1D] PRINT_EVENT_MESSAGE(message_id=12917*)
    → "I am not yet authorized to teleport you to the Ballista Royale tournament. While you wait, let me explain the rules of the event."
  5: 0x0085 [0x23] WAIT_FOR_DIALOG_INTERACTION
  6: 0x0086 [0x1D] PRINT_EVENT_MESSAGE(message_id=12908*)
    → "The entry period will end and briefing will commence $10 [minute/minutes] (Earth time) after the check-in period starts."
  7: 0x0089 [0x23] WAIT_FOR_DIALOG_INTERACTION
  8: 0x008A [0x1D] PRINT_EVENT_MESSAGE(message_id=12909*)
    → "The maximum number of members allowed on one team is $11. Entries during matches are [not allowed/allowed], and entry cancellation during matches is [not permitted/permitted]. Also, players with the same job are not allowed to serve on the same team, [and support jobs are prohibited./though there are no restrictions on support jobs.]"
  9: 0x008D [0x23] WAIT_FOR_DIALOG_INTERACTION
 10: 0x008E [0x1D] PRINT_EVENT_MESSAGE(message_id=12910*)
    → "The maximum level allowed is [not set/set to 60/set to 50/set to 40/set to 30/set to 20/set to 10]. The minimum level required is [not set/set to 60/set to 50/set to 40/set to 30/set to 20/set to 10]."
 11: 0x0091 [0x23] WAIT_FOR_DIALOG_INTERACTION
 12: 0x0092 [0x1D] PRINT_EVENT_MESSAGE(message_id=12911*)
    → "Matches will be played in the "[all or nothing/best of three/]" style, with [/single-]match length set at [10 minutes/15 minutes/20 minutes/30 minutes/45 minutes/1 Vana'diel day (57 minutes, 36 seconds)/60 minutes/] (Earth time). Normal item usage is [not allowed/allowed] and the maximum number of temporary items carryable is [10/15/20]."
 13: 0x0095 [0x23] WAIT_FOR_DIALOG_INTERACTION
 14: 0x0096 [0x1D] PRINT_EVENT_MESSAGE(message_id=12912*)
    → "Participants will[ not/] be able to choose whether or not they can keep Petras they find, and Petras or items will[/ not] be found with every /quarry. The maximum number of Petras a player can score at one time is [1/2/3/4/5/10/15/not set], and a match will [not be called as a result of a large lead/be called the moment one team leads by 10/be called the moment one team leads by 20/be called the moment one team leads by 30/be called the moment one team leads by 40/be called the moment one team leads by 50/be called the moment one team leads by 60/be called the moment one team leads by 70/be called the moment one team leads by 80/be called the moment one team leads by 90/be called the moment one team leads by 100]."
 15: 0x0099 [0x23] WAIT_FOR_DIALOG_INTERACTION
 16: 0x009A [0x1D] PRINT_EVENT_MESSAGE(message_id=12913*)
    → "Also, it is possible to use $6 and $6."
 17: 0x009D [0x23] WAIT_FOR_DIALOG_INTERACTION
 18: 0x009E [0x1D] PRINT_EVENT_MESSAGE(message_id=12918*)
    → "That is all. I suggest you spend your remaining time preparing for the match."
 19: 0x00A1 [0x23] WAIT_FOR_DIALOG_INTERACTION
 20: 0x00A2 [0x1D] PRINT_EVENT_MESSAGE(message_id=12907*)
    → "Please review the time inscribed on the bottom of the codex. This is when the check-in period will begin. At that time, please show me the item once more and I shall teleport you to the Diorama."
 21: 0x00A5 [0x23] WAIT_FOR_DIALOG_INTERACTION
 22: 0x00A6 [0x21] END_EVENT
 23: 0x00A7 [0x00] END_REQSTACK()
```

### Event 127

#### Metadata

| Field        | Value     |
|--------------|-----------|
| Entrypoint   | 0x00A8    |
| Data Size    | 108 bytes |
| Instructions | 29        |

```
      00 01 02 03 04 05 06 07  08 09 0A 0B 0C 0D 0E 0F
      -- -- -- -- -- -- -- --  -- -- -- -- -- -- -- --
00A0:                          1E F0 FF FF 7F 6F 70 1D          .....op.
00B0: 15 80 23 06 01 10 24 16  80 17 80 02 80 25 02 00  ..#...$......%..
00C0: 10 02 80 00 12 01 42 73  18 80 F8 FF FF 7F F0 FF  ......Bs........
00D0: FF 7F 1C 19 80 03 01 10  17 80 43 00 43 01 02 09  ..........C.C...
00E0: 10 1A 80 80 F6 00 6C F0  FF FF 7F 1B 80 17 80 1D  ......l.........
00F0: 1C 80 23 01 0F 01 02 09  10 1D 80 80 0E 01 6C F0  ..#...........l.
0100: FF FF 7F 1B 80 17 80 1D  1E 80 23 01 0F 01 30 01  ..........#...0.
0110: 12 01 21 00                                       ..!.            
```

#### Opcodes

```
  0: 0x00A8 [0x1E] EventEntity looks at LocalPlayer and starts talking
  1: 0x00AD [0x6F] WAIT_FRAME_DELAY: Yield until WaitTime reaches zero
  2: 0x00AE [0x70] WAIT_ENTITY_RENDER_FLAG: Wait while EventEntity->Render.Flags3 bit 2 is set (cancel turn if not)
  3: 0x00AF [0x1D] PRINT_EVENT_MESSAGE(message_id=12919*)
    → "The Ballista Royale is about to begin! Let me teleport you to Diorama Abdhaljs-Ghelsba immediately!"
  4: 0x00B2 [0x23] WAIT_FOR_DIALOG_INTERACTION
  5: 0x00B3 [0x06] Work_Zone[1] = 0
  6: 0x00B6 [0x24] CREATE_DIALOG(message_id=12860*, default_option=1*, option_flags=0*)
    → "Travel to the Diorama? [Yes./Not yet.]"
  7: 0x00BD [0x25] WAIT_DIALOG_SELECT()
  8: 0x00BE [0x02] IF !(Work_Zone[0] == 0*) GOTO 0x0112
  9: 0x00C6 [0x42] SET_CLI_EVENT_CANCEL_DATA()
 10: 0x00C7 [0x73] EventEntity casts magic 122* on LocalPlayer
 11: 0x00D2 [0x1C] WAIT(260* ticks)
 12: 0x00D5 [0x03] Work_Zone[1] = 1*
 13: 0x00DA [0x43] SEND_EVENT_UPDATE: Send pending tag to server (packet 0x005B)
 14: 0x00DC [0x43] SEND_EVENT_UPDATE: Check pending flag (skip if not pending)
 15: 0x00DE [0x02] IF !(Work_Zone[9] == 4294967295*) GOTO 0x00F6
 16: 0x00E6 [0x6C] FADE_ENTITY_COLOR(entity_id=LocalPlayer, end_alpha=127*, fade_time=1*)
 17: 0x00EF [0x1D] PRINT_EVENT_MESSAGE(message_id=12861*)
    → "You do not possess the $0 gil necessary for teleportation."
 18: 0x00F2 [0x23] WAIT_FOR_DIALOG_INTERACTION
 19: 0x00F3 [0x01] GOTO 0x010F
 20: 0x00F6 [0x02] IF !(Work_Zone[9] == 4294967294*) GOTO 0x010E
 21: 0x00FE [0x6C] FADE_ENTITY_COLOR(entity_id=LocalPlayer, end_alpha=127*, fade_time=1*)
 22: 0x0107 [0x1D] PRINT_EVENT_MESSAGE(message_id=12862*)
    → "The current Diorama reservation has expired. I can no longer teleport you."
 23: 0x010A [0x23] WAIT_FOR_DIALOG_INTERACTION
 24: 0x010B [0x01] GOTO 0x010F
 25: 0x010E [0x30] SET_UCOFF_CONTINUE_ZERO()

SUBROUTINE_010F:
 26: 0x010F [0x01] GOTO 0x0112

SUBROUTINE_0112:
 27: 0x0112 [0x21] END_EVENT
 28: 0x0113 [0x00] END_REQSTACK()
```

### Event 72

#### Metadata

| Field        | Value     |
|--------------|-----------|
| Entrypoint   | 0x0114    |
| Data Size    | 156 bytes |
| Instructions | 7         |

```
      00 01 02 03 04 05 06 07  08 09 0A 0B 0C 0D 0E 0F
      -- -- -- -- -- -- -- --  -- -- -- -- -- -- -- --
0110:             1E F0 FF FF  7F 6F 70 1D 1F 80 23 21      .....op...#!
0120: 00 03 02 17 02 10 03 03  17 03 10 41 02 80 20 80  ...........A.. .
0130: 04 10 04 17 41 21 80 22  80 04 10 05 17 41 23 80  ....A!.".....A#.
0140: 24 80 04 10 06 17 41 25  80 26 80 04 10 07 17 41  $.....A%.&.....A
0150: 02 80 20 80 05 10 08 17  41 21 80 22 80 05 10 09  .. .....A!."....
0160: 17 41 23 80 24 80 05 10  0A 17 41 25 80 26 80 05  .A#.$.....A%.&..
0170: 10 0B 17 41 02 80 20 80  06 10 0C 17 41 21 80 22  ...A.. .....A!."
0180: 80 06 10 0D 17 41 23 80  24 80 06 10 0E 17 41 25  .....A#.$.....A%
0190: 80 26 80 06 10 0F 17 41  02 80 20 80 07 10 10 17  .&.....A.. .....
01A0: 03 11 17 27 80 03 12 17  28 80 03 1A 00 09 10 1B  ...'....(.......
```

#### Opcodes

```
  0: 0x0114 [0x1E] EventEntity looks at LocalPlayer and starts talking
  1: 0x0119 [0x6F] WAIT_FRAME_DELAY: Yield until WaitTime reaches zero
  2: 0x011A [0x70] WAIT_ENTITY_RENDER_FLAG: Wait while EventEntity->Render.Flags3 bit 2 is set (cancel turn if not)
  3: 0x011B [0x1D] PRINT_EVENT_MESSAGE(message_id=12920*)
    → "This $0 is no longer valid. Please dispose of it in one of the Duchy's fine waste receptacle units."
  4: 0x011E [0x23] WAIT_FOR_DIALOG_INTERACTION
  5: 0x011F [0x21] END_EVENT
  6: 0x0120 [0x00] END_REQSTACK()
```

#### Data or dead code:

```
# Dead code (unreachable instructions):
     0x0121 [0x03] Work_Zone_1700[2] = Work_Zone[2]
     0x0126 [0x03] Work_Zone_1700[3] = Work_Zone[3]
     0x012B [0x41] Work_Zone_1700[4] = Work_Zone[4] (bits 0*-7*)
     0x0134 [0x41] Work_Zone_1700[5] = Work_Zone[4] (bits 8*-15*)
     0x013D [0x41] Work_Zone_1700[6] = Work_Zone[4] (bits 16*-23*)
     0x0146 [0x41] Work_Zone_1700[7] = Work_Zone[4] (bits 24*-31*)
     0x014F [0x41] Work_Zone_1700[8] = Work_Zone[5] (bits 0*-7*)
     0x0158 [0x41] Work_Zone_1700[9] = Work_Zone[5] (bits 8*-15*)
     0x0161 [0x41] Work_Zone_1700[10] = Work_Zone[5] (bits 16*-23*)
     0x016A [0x41] Work_Zone_1700[11] = Work_Zone[5] (bits 24*-31*)
     0x0173 [0x41] Work_Zone_1700[12] = Work_Zone[6] (bits 0*-7*)
     0x017C [0x41] Work_Zone_1700[13] = Work_Zone[6] (bits 8*-15*)
     0x0185 [0x41] Work_Zone_1700[14] = Work_Zone[6] (bits 16*-23*)
     0x018E [0x41] Work_Zone_1700[15] = Work_Zone[6] (bits 24*-31*)
     0x0197 [0x41] Work_Zone_1700[16] = Work_Zone[7] (bits 0*-7*)
     0x01A0 [0x03] Work_Zone_1700[17] = 714*
     0x01A5 [0x03] Work_Zone_1700[18] = 717*
     0x01AA [0x03] ExtData[1]->WorkLocal[26] = Work_Zone[9]
     0x01AF [0x1B] RETURN
```

### Event 73

#### Metadata

| Field        | Value    |
|--------------|----------|
| Entrypoint   | 0x01B0   |
| Data Size    | 13 bytes |
| Instructions | 7        |

```
      00 01 02 03 04 05 06 07  08 09 0A 0B 0C 0D 0E 0F
      -- -- -- -- -- -- -- --  -- -- -- -- -- -- -- --
01B0: 1E F0 FF FF 7F 6F 70 1D  29 80 23 21 00           .....op.).#!.   
```

#### Opcodes

```
  0: 0x01B0 [0x1E] EventEntity looks at LocalPlayer and starts talking
  1: 0x01B5 [0x6F] WAIT_FRAME_DELAY: Yield until WaitTime reaches zero
  2: 0x01B6 [0x70] WAIT_ENTITY_RENDER_FLAG: Wait while EventEntity->Render.Flags3 bit 2 is set (cancel turn if not)
  3: 0x01B7 [0x1D] PRINT_EVENT_MESSAGE(message_id=12814*)
    → "I do not think you meet the requirements necessary to participate in events held in Diora... Ahem! Excuse me, [sir/madame]. I am not authorized to disclose any further information to those who have not yet met all IRNC qualifications."
  4: 0x01BA [0x23] WAIT_FOR_DIALOG_INTERACTION
  5: 0x01BB [0x21] END_EVENT
  6: 0x01BC [0x00] END_REQSTACK()
```

### Event 70

#### Metadata

| Field        | Value      |
|--------------|------------|
| Entrypoint   | 0x01BD     |
| Data Size    | 3539 bytes |
| Instructions | 610        |

```
      00 01 02 03 04 05 06 07  08 09 0A 0B 0C 0D 0E 0F
      -- -- -- -- -- -- -- --  -- -- -- -- -- -- -- --
01B0:                                         1E F0 FF               ...
01C0: FF 7F 6F 70 03 00 00 02  10 41 02 80 02 80 03 10  ..op.....A......
01D0: 01 00 41 17 80 2A 80 03  10 04 00 41 2B 80 2B 80  ..A..*.....A+.+.
01E0: 03 10 06 00 41 2C 80 2C  80 03 10 11 00 41 2D 80  ....A,.,.....A-.
01F0: 2D 80 03 10 12 00 41 2E  80 2E 80 03 10 13 00 41  -.....A........A
0200: 20 80 20 80 03 10 14 00  41 21 80 21 80 03 10 15   . .....A!.!....
0210: 00 41 2F 80 2F 80 03 10  02 00 41 30 80 30 80 03  .A/./.....A0.0..
0220: 10 03 00 41 31 80 31 80  03 10 19 00 41 32 80 32  ...A1.1.....A2.2
0230: 80 03 10 1B 00 41 33 80  33 80 03 10 1C 00 03 07  .....A3.3.......
0240: 00 04 10 03 08 00 07 00  07 08 00 34 80 03 18 00  ...........4....
0250: 05 10 03 1D 00 06 10 41  02 80 22 80 07 10 0F 00  .......A..".....
0260: 41 23 80 26 80 07 10 10  00 03 1E 00 08 10 1D 35  A#.&...........5
0270: 80 23 02 06 00 17 80 00  8D 02 03 02 10 08 00 03  .#..............
0280: 03 10 08 00 07 03 10 34  80 1D 36 80 23 02 11 00  .......4..6.#...
0290: 17 80 00 9C 02 1D 37 80  23 01 C9 02 06 02 10 02  ......7.#.......
02A0: 12 00 17 80 00 AE 02 3C  02 10 02 80 17 80 02 13  .......<........
02B0: 00 17 80 00 BD 02 3C 02  10 17 80 17 80 02 02 10  ......<.........
02C0: 02 80 01 C9 02 1D 38 80  23 06 0B 00 06 0A 00 3C  ......8.#......<
02D0: 0A 00 17 80 17 80 02 11  00 02 80 00 EC 02 3C 0A  ..............<.
02E0: 00 2C 80 17 80 3C 0A 00  2D 80 17 80 02 12 00 02  .,...<..-.......
02F0: 80 00 FB 02 3C 0A 00 2E  80 17 80 02 13 00 02 80  ....<...........
0300: 00 0A 03 3C 0A 00 20 80  17 80 02 00 00 02 80 00  ...<.. .........
0310: 19 03 3C 0A 00 21 80 17  80 03 02 10 12 00 03 03  ..<..!..........
0320: 10 13 00 24 39 80 0B 00  0A 00 25 40 23 80 26 80  ...$9.....%@#.&.
0330: 01 10 00 10 03 0B 00 00  10 02 00 10 17 80 00 44  ...............D
0340: 03 01 5A 0D 02 00 10 2A  80 00 DD 03 02 03 00 02  ..Z....*........
0350: 80 00 D6 03 02 04 00 02  80 00 A1 03 1D 3A 80 23  .............:.#
0360: 03 02 10 3B 80 02 15 00  17 80 00 95 03 02 19 00  ...;............
0370: 02 80 00 8E 03 3E 00 00  2A 80 83 03 1D 3C 80 23  .....>..*....<.#
0380: 01 8B 03 03 20 00 07 00  1A 5C 0D 01 92 03 1D 3D  .... ....\.....=
0390: 80 23 01 9E 03 03 03 10  3E 80 1D 3F 80 23 01 D3  .#......>..?.#..
03A0: 03 03 02 10 07 00 03 03  10 02 10 07 03 10 34 80  ..............4.
03B0: 1D 40 80 23 02 06 00 17  80 00 CA 03 07 02 10 34  .@.#...........4
03C0: 80 07 03 10 34 80 1D 41  80 23 07 02 10 34 80 1D  ....4..A.#...4..
03D0: 42 80 23 01 DA 03 1D 43  80 23 01 5A 0D 02 00 10  B.#....C.#.Z....
03E0: 2B 80 00 1D 0A 06 22 00  03 0B 00 02 80 40 2B 80  +....."......@+.
03F0: 21 80 01 10 44 80 43 00  43 01 02 09 10 1A 80 00  !...D.C.C.......
0400: 09 04 48 45 80 23 01 1A  0A 03 25 00 02 10 03 26  ..HE.#....%....&
0410: 00 03 10 03 27 00 04 10  03 28 00 05 10 03 1F 00  ....'....(......
0420: 07 00 02 22 00 02 80 00  3C 04 07 1F 00 34 80 03  ..."....<....4..
0430: 21 00 02 80 03 0A 00 17  80 01 50 04 03 21 00 32  !.........P..!.2
0440: 80 03 1F 00 07 00 07 1F  00 46 80 03 0A 00 47 80  .........F....G.
0450: 06 23 00 06 02 10 06 03  10 06 04 10 06 05 10 06  .#..............
0460: 06 10 06 07 10 06 08 10  06 09 10 06 00 17 06 01  ................
0470: 17 06 02 17 06 03 17 06  04 17 06 05 17 06 06 17  ................
0480: 06 07 17 06 08 17 06 09  17 06 0A 17 06 0B 17 06  ................
0490: 0C 17 06 0D 17 06 0E 17  06 0F 17 06 10 17 06 11  ................
04A0: 17 06 12 17 06 13 17 06  14 17 06 15 17 06 16 17  ................
04B0: 06 17 17 02 23 00 31 80  05 82 07 02 23 00 02 80  ....#.1.....#...
04C0: 80 CB 04 03 02 10 1F 00  01 7B 05 02 23 00 17 80  .........{..#...
04D0: 80 DB 04 03 03 10 1F 00  01 7B 05 02 23 00 2A 80  .........{..#.*.
04E0: 80 EB 04 03 04 10 1F 00  01 7B 05 02 23 00 2B 80  .........{..#.+.
04F0: 80 FB 04 03 05 10 1F 00  01 7B 05 02 23 00 2C 80  .........{..#.,.
0500: 80 0B 05 03 06 10 1F 00  01 7B 05 02 23 00 2D 80  .........{..#.-.
0510: 80 1B 05 03 07 10 1F 00  01 7B 05 02 23 00 2E 80  .........{..#...
0520: 80 2B 05 03 08 10 1F 00  01 7B 05 02 23 00 20 80  .+.......{..#. .
0530: 80 3B 05 03 09 10 1F 00  01 7B 05 02 23 00 21 80  .;.......{..#.!.
0540: 80 4B 05 03 00 17 1F 00  01 7B 05 02 23 00 2F 80  .K.......{..#./.
0550: 80 5B 05 03 01 17 1F 00  01 7B 05 02 23 00 30 80  .[.......{..#.0.
0560: 80 6B 05 03 02 17 1F 00  01 7B 05 02 23 00 31 80  .k.......{..#.1.
0570: 80 7B 05 03 03 17 1F 00  01 7B 05 03 20 00 1F 00  .{.......{.. ...
0580: 08 20 00 48 80 3E 1D 00  21 00 A3 05 3E 28 00 21  . .H.>..!...>(.!
0590: 00 9B 05 03 16 00 2B 80  01 A0 05 03 16 00 2A 80  ......+.......*.
05A0: 01 B8 05 02 20 00 1E 00  05 B3 05 03 16 00 02 80  .... ...........
05B0: 01 B8 05 03 16 00 17 80  02 23 00 02 80 80 C8 05  .........#......
05C0: 03 04 17 16 00 01 78 06  02 23 00 17 80 80 D8 05  ......x..#......
05D0: 03 05 17 16 00 01 78 06  02 23 00 2A 80 80 E8 05  ......x..#.*....
05E0: 03 06 17 16 00 01 78 06  02 23 00 2B 80 80 F8 05  ......x..#.+....
05F0: 03 07 17 16 00 01 78 06  02 23 00 2C 80 80 08 06  ......x..#.,....
0600: 03 08 17 16 00 01 78 06  02 23 00 2D 80 80 18 06  ......x..#.-....
0610: 03 09 17 16 00 01 78 06  02 23 00 2E 80 80 28 06  ......x..#....(.
0620: 03 0A 17 16 00 01 78 06  02 23 00 20 80 80 38 06  ......x..#. ..8.
0630: 03 0B 17 16 00 01 78 06  02 23 00 21 80 80 48 06  ......x..#.!..H.
0640: 03 0C 17 16 00 01 78 06  02 23 00 2F 80 80 58 06  ......x..#./..X.
0650: 03 0D 17 16 00 01 78 06  02 23 00 30 80 80 68 06  ......x..#.0..h.
0660: 03 0E 17 16 00 01 78 06  02 23 00 31 80 80 78 06  ......x..#.1..x.
0670: 03 0F 17 16 00 01 78 06  06 16 00 3E 1D 00 21 00  ......x....>..!.
0680: AF 06 3E 25 00 21 00 90  06 3C 16 00 02 80 17 80  ..>%.!...<......
0690: 3E 26 00 21 00 9E 06 3C  16 00 17 80 17 80 3E 27  >&.!...<......>'
06A0: 00 21 00 AC 06 3C 16 00  2A 80 17 80 01 B4 06 03  .!...<..*.......
06B0: 16 00 20 80 02 23 00 02  80 80 C4 06 03 10 17 16  .. ..#..........
06C0: 00 01 74 07 02 23 00 17  80 80 D4 06 03 11 17 16  ..t..#..........
06D0: 00 01 74 07 02 23 00 2A  80 80 E4 06 03 12 17 16  ..t..#.*........
06E0: 00 01 74 07 02 23 00 2B  80 80 F4 06 03 13 17 16  ..t..#.+........
06F0: 00 01 74 07 02 23 00 2C  80 80 04 07 03 14 17 16  ..t..#.,........
0700: 00 01 74 07 02 23 00 2D  80 80 14 07 03 15 17 16  ..t..#.-........
0710: 00 01 74 07 02 23 00 2E  80 80 24 07 03 16 17 16  ..t..#....$.....
0720: 00 01 74 07 02 23 00 20  80 80 34 07 03 17 17 16  ..t..#. ..4.....
0730: 00 01 74 07 02 23 00 21  80 80 44 07 03 18 17 16  ..t..#.!..D.....
0740: 00 01 74 07 02 23 00 2F  80 80 54 07 03 19 17 16  ..t..#./..T.....
0750: 00 01 74 07 02 23 00 30  80 80 64 07 03 1A 17 16  ..t..#.0..d.....
0760: 00 01 74 07 02 23 00 31  80 80 74 07 03 1B 17 16  ..t..#.1..t.....
0770: 00 01 74 07 07 1F 00 34  80 0B 21 00 0B 23 00 01  ..t....4..!..#..
0780: B3 04 24 49 80 0B 00 0A  00 25 02 00 10 02 80 00  ..$I.....%......
0790: A0 07 06 22 00 03 0B 00  33 80 01 1D 04 01 1A 0A  ..."....3.......
07A0: 02 00 10 33 80 00 B6 07  05 22 00 03 0B 00 02 80  ...3....."......
07B0: 01 1D 04 01 1A 0A 02 00  10 4A 80 00 C9 07 03 0B  .........J......
07C0: 00 2B 80 01 CC 02 01 1A  0A 06 24 00 03 0B 00 00  .+........$.....
07D0: 10 03 16 00 00 10 0C 16  00 02 16 00 02 80 80 F3  ................
07E0: 07 03 20 00 02 10 03 24  00 04 17 03 29 00 10 17  .. ....$....)...
07F0: 01 11 09 02 16 00 17 80  80 0D 08 03 20 00 03 10  ............ ...
0800: 03 24 00 05 17 03 29 00  11 17 01 11 09 02 16 00  .$....).........
0810: 2A 80 80 27 08 03 20 00  04 10 03 24 00 06 17 03  *..'.. ....$....
0820: 29 00 12 17 01 11 09 02  16 00 2B 80 80 41 08 03  ).........+..A..
0830: 20 00 05 10 03 24 00 07  17 03 29 00 13 17 01 11   ....$....).....
0840: 09 02 16 00 2C 80 80 5B  08 03 20 00 06 10 03 24  ....,..[.. ....$
0850: 00 08 17 03 29 00 14 17  01 11 09 02 16 00 2D 80  ....).........-.
0860: 80 75 08 03 20 00 07 10  03 24 00 09 17 03 29 00  .u.. ....$....).
0870: 15 17 01 11 09 02 16 00  2E 80 80 8F 08 03 20 00  .............. .
0880: 08 10 03 24 00 0A 17 03  29 00 16 17 01 11 09 02  ...$....).......
0890: 16 00 20 80 80 A9 08 03  20 00 09 10 03 24 00 0B  .. ..... ....$..
08A0: 17 03 29 00 17 17 01 11  09 02 16 00 21 80 80 C3  ..).........!...
08B0: 08 03 20 00 00 17 03 24  00 0C 17 03 29 00 18 17  .. ....$....)...
08C0: 01 11 09 02 16 00 2F 80  80 DD 08 03 20 00 01 17  ....../..... ...
08D0: 03 24 00 0D 17 03 29 00  19 17 01 11 09 02 16 00  .$....).........
08E0: 30 80 80 F7 08 03 20 00  02 17 03 24 00 0E 17 03  0..... ....$....
08F0: 29 00 1A 17 01 11 09 02  16 00 31 80 80 11 09 03  ).........1.....
0900: 20 00 03 17 03 24 00 0F  17 03 29 00 1B 17 01 11   ....$....).....
0910: 09 06 09 10 03 0E 00 20  00 08 0E 00 07 00 15 0E  ....... ........
0920: 00 34 80 0C 0E 00 02 24  00 02 80 80 46 09 03 03  .4.....$....F...
0930: 10 20 00 1D 4B 80 23 03  02 10 4C 80 1D 4D 80 23  . ..K.#...L..M.#
0940: 01 1D 04 01 FF 09 02 24  00 17 80 80 93 09 03 03  .......$........
0950: 10 20 00 1D 4E 80 23 03  02 10 4C 80 02 15 00 17  . ..N.#...L.....
0960: 80 00 87 09 3E 00 00 02  80 72 09 1D 4F 80 23 01  ....>....r..O.#.
0970: 84 09 02 19 00 02 80 00  80 09 1A 5C 0D 01 84 09  ...........\....
0980: 1D 3D 80 23 01 90 09 03  03 10 3E 80 1D 3F 80 23  .=.#......>..?.#
0990: 01 FF 09 02 24 00 2C 80  80 9E 09 01 FF 09 03 02  ....$.,.........
09A0: 10 29 00 03 03 10 20 00  3E 28 00 0E 00 B7 09 03  .).... .>(......
09B0: 17 00 17 80 01 BC 09 03  17 00 02 80 03 04 10 17  ................
09C0: 00 1D 50 80 23 40 2B 80  21 80 01 10 0E 00 03 02  ..P.#@+.!.......
09D0: 10 0E 00 02 17 00 17 80  80 FF 09 03 08 10 51 80  ..............Q.
09E0: 1D 52 80 23 24 53 80 17  80 02 80 25 02 00 10 02  .R.#$S.....%....
09F0: 80 00 FC 09 42 43 00 43  01 01 FC 09 01 FF 09 2E  ....BC.C........
0A00: 02 09 10 17 80 01 1A 0A  02 09 10 1A 80 00 17 0A  ................
0A10: 1D 54 80 23 01 1A 0A 01  1D 04 01 5A 0D 02 00 10  .T.#.......Z....
0A20: 2C 80 00 6F 0A 1D 55 80  23 1D 56 80 23 24 57 80  ,..o..U.#.V.#$W.
0A30: 12 00 02 80 25 02 00 10  2A 80 00 43 0A 01 CC 02  ....%...*..C....
0A40: 01 6C 0A 02 12 00 00 10  01 6C 0A 42 40 02 80 22  .l.......l.B@.."
0A50: 80 01 10 00 10 43 00 43  01 02 02 10 1A 80 00 68  .....C.C.......h
0A60: 0A 48 45 80 23 01 6C 0A  1D 58 80 23 01 5A 0D 02  .HE.#.l..X.#.Z..
0A70: 00 10 2D 80 00 D2 0A 02  04 00 17 80 00 87 0A 03  ..-.............
0A80: 02 10 51 80 01 8C 0A 03  02 10 59 80 1D 5A 80 23  ..Q.......Y..Z.#
0A90: 24 5B 80 13 00 02 80 25  02 00 10 2A 80 00 A6 0A  $[.....%...*....
0AA0: 01 CC 02 01 CF 0A 02 13  00 00 10 01 CF 0A 42 40  ..............B@
0AB0: 02 80 22 80 01 10 00 10  43 00 43 01 02 02 10 1A  ..".....C.C.....
0AC0: 80 00 CB 0A 48 45 80 23  01 CF 0A 1D 5C 80 23 01  ....HE.#....\.#.
0AD0: 5A 0D 02 00 10 2E 80 00  66 0B 1D 5D 80 23 02 1C  Z.......f..].#..
0AE0: 00 02 80 00 EF 0A 03 02  10 5E 80 1D 5F 80 23 24  .........^.._.#$
0AF0: 60 80 17 80 02 80 25 02  00 10 02 80 00 63 0B 42  `.....%......c.B
0B00: 73 18 80 F8 FF FF 7F F0  FF FF 7F 1C 19 80 40 02  s.............@.
0B10: 80 22 80 01 10 17 80 43  00 43 01 02 02 10 1A 80  .".....C.C......
0B20: 00 33 0B 6C F0 FF FF 7F  1B 80 17 80 48 45 80 23  .3.l........HE.#
0B30: 01 60 0B 02 09 10 1A 80  80 4B 0B 6C F0 FF FF 7F  .`.......K.l....
0B40: 1B 80 17 80 1D 1C 80 23  01 60 0B 02 09 10 02 80  .......#.`......
0B50: 00 57 0B 30 01 60 0B 6C  F0 FF FF 7F 1B 80 17 80  .W.0.`.l........
0B60: 01 63 0B 01 5A 0D 02 00  10 20 80 00 36 0C 02 04  .c..Z.... ..6...
0B70: 00 17 80 00 7E 0B 03 03  10 51 80 01 83 0B 03 03  ....~....Q......
0B80: 10 59 80 03 04 10 18 00  02 18 00 02 80 80 98 0B  .Y..............
0B90: 03 02 10 61 80 01 F8 0B  02 18 00 17 80 80 A8 0B  ...a............
0BA0: 03 02 10 62 80 01 F8 0B  02 18 00 2A 80 80 B8 0B  ...b.......*....
0BB0: 03 02 10 63 80 01 F8 0B  02 18 00 2B 80 80 C8 0B  ...c.......+....
0BC0: 03 02 10 64 80 01 F8 0B  02 18 00 2C 80 80 D8 0B  ...d.......,....
0BD0: 03 02 10 65 80 01 F8 0B  02 18 00 2D 80 80 E8 0B  ...e.......-....
0BE0: 03 02 10 66 80 01 F8 0B  02 18 00 2E 80 80 F8 0B  ...f............
0BF0: 03 02 10 5E 80 01 F8 0B  1D 67 80 23 1D 68 80 23  ...^.....g.#.h.#
0C00: 24 69 80 17 80 02 80 25  02 00 10 02 80 00 33 0C  $i.....%......3.
0C10: 40 02 80 22 80 01 10 17  80 43 00 43 01 02 02 10  @..".....C.C....
0C20: 1A 80 00 2C 0C 48 45 80  23 01 30 0C 1D 6A 80 23  ...,.HE.#.0..j.#
0C30: 01 33 0C 01 5A 0D 02 00  10 21 80 00 60 0C 03 02  .3..Z....!..`...
0C40: 10 4C 80 03 03 10 51 80  03 04 10 3B 80 03 05 10  .L....Q....;....
0C50: 59 80 1D 6B 80 23 1D 6C  80 23 01 CC 02 01 5A 0D  Y..k.#.l.#....Z.
0C60: 02 00 10 2F 80 00 8A 0C  1D 6D 80 23 1D 6E 80 23  .../.....m.#.n.#
0C70: 1D 6F 80 23 1D 70 80 23  1D 71 80 23 1D 72 80 23  .o.#.p.#.q.#.r.#
0C80: 1D 73 80 23 01 CC 02 01  5A 0D 02 00 10 30 80 00  .s.#....Z....0..
0C90: 5A 0D 06 2A 00 24 74 80  2A 00 02 80 25 03 2A 00  Z..*.$t.*...%.*.
0CA0: 00 10 02 00 10 02 80 00  C6 0C 03 02 10 07 00 07  ................
0CB0: 02 10 48 80 1D 75 80 23  1D 76 80 23 1D 77 80 23  ..H..u.#.v.#.w.#
0CC0: 01 95 0C 01 57 0D 02 00  10 17 80 00 FA 0C 03 02  ....W...........
0CD0: 10 4C 80 03 03 10 51 80  1D 78 80 23 1D 79 80 23  .L....Q..x.#.y.#
0CE0: 1D 7A 80 23 1D 7B 80 23  1D 7C 80 23 1D 7D 80 23  .z.#.{.#.|.#.}.#
0CF0: 1D 7E 80 23 01 95 0C 01  57 0D 02 00 10 2A 80 00  .~.#....W....*..
0D00: 1D 0D 03 03 10 51 80 1D  7F 80 23 1D 80 80 23 1D  .....Q....#...#.
0D10: 81 80 23 1D 82 80 23 01  95 0C 01 57 0D 02 00 10  ..#...#....W....
0D20: 2B 80 00 49 0D 03 02 10  3B 80 03 03 10 59 80 1D  +..I....;....Y..
0D30: 83 80 23 1D 79 80 23 1D  7A 80 23 1D 7B 80 23 1D  ..#.y.#.z.#.{.#.
0D40: 7C 80 23 01 95 0C 01 57  0D 02 00 10 2C 80 00 57  |.#....W....,..W
0D50: 0D 01 CC 02 01 57 0D 01  5A 0D 21 00 03 03 10 10  .....W..Z.!.....
0D60: 00 03 04 10 0F 00 1D 84  80 23 02 0F 00 10 00 04  .........#......
0D70: 66 0F 24 85 80 02 80 02  80 25 02 00 10 02 80 00  f.$......%......
0D80: 85 0D 01 66 0F 03 0C 00  00 10 0C 0C 00 03 05 10  ...f............
0D90: 0C 00 02 0C 00 02 80 80  A2 0D 03 06 10 61 80 01  .............a..
0DA0: 02 0E 02 0C 00 17 80 80  B2 0D 03 06 10 62 80 01  .............b..
0DB0: 02 0E 02 0C 00 2A 80 80  C2 0D 03 06 10 63 80 01  .....*.......c..
0DC0: 02 0E 02 0C 00 2B 80 80  D2 0D 03 06 10 64 80 01  .....+.......d..
0DD0: 02 0E 02 0C 00 2C 80 80  E2 0D 03 06 10 65 80 01  .....,.......e..
0DE0: 02 0E 02 0C 00 2D 80 80  F2 0D 03 06 10 66 80 01  .....-.......f..
0DF0: 02 0E 02 0C 00 2E 80 80  02 0E 03 06 10 5E 80 01  .............^..
0E00: 02 0E 1D 86 80 23 41 23  80 26 80 01 10 16 00 02  .....#A#.&......
0E10: 16 00 2A 80 01 71 0E 1D  87 80 23 06 0D 00 24 88  ..*..q....#...$.
0E20: 80 17 80 02 80 25 02 00  10 02 80 00 60 0E 03 08  .....%......`...
0E30: 10 51 80 1D 89 80 23 24  8A 80 17 80 02 80 25 02  .Q....#$......%.
0E40: 00 10 02 80 00 4F 0E 03  0D 00 17 80 01 5D 0E 02  .....O.......]..
0E50: 00 10 17 80 00 5D 0E 01  1B 0E 01 5D 0E 01 60 0E  .....].....]..`.
0E60: 03 03 10 20 00 03 07 10  0D 00 1D 8B 80 23 01 7A  ... .........#.z
0E70: 0E 03 03 10 20 00 1D 8C  80 23 24 8D 80 17 80 02  .... ....#$.....
0E80: 80 25 02 00 10 02 80 00  66 0F 42 02 0C 00 02 80  .%......f.B.....
0E90: 04 63 0F 02 0C 00 20 80  05 63 0F 40 02 80 2A 80  .c.... ..c.@..*.
0EA0: 01 10 0C 00 40 2B 80 21  80 01 10 0E 00 40 2F 80  ....@+.!.....@/.
0EB0: 22 80 01 10 0D 00 43 00  43 01 02 09 10 17 80 80  ".....C.C.......
0EC0: 1B 0F 02 02 10 4C 80 00  FA 0E 03 05 10 51 80 03  .....L.......Q..
0ED0: 06 10 03 10 08 06 10 8E  80 03 07 10 03 10 07 07  ................
0EE0: 10 34 80 1D 8F 80 23 1D  90 80 23 1D 91 80 23 1D  .4....#...#...#.
0EF0: 92 80 23 1D 93 80 23 01  0C 0F 07 03 10 34 80 03  ..#...#......4..
0F00: 05 10 59 80 1D 94 80 23  1D 95 80 23 1D 96 80 23  ..Y....#...#...#
0F10: 1D 97 80 23 1D 98 80 23  01 63 0F 02 09 10 1A 80  ...#...#.c......
0F20: 80 26 0F 01 63 0F 02 09  10 1D 80 80 38 0F 1A 67  .&..c.......8..g
0F30: 0F 1D 99 80 23 01 63 0F  02 09 10 9A 80 80 4A 0F  ....#.c.......J.
0F40: 1A 67 0F 1D 9B 80 23 01  63 0F 02 09 10 9C 80 80  .g....#.c.......
0F50: 63 0F 03 03 10 10 00 03  04 10 0F 00 1D 84 80 23  c..............#
0F60: 01 63 0F 01 66 0F 1B 03  03 10 07 00 41 23 80 26  .c..f.......A#.&
0F70: 80 01 10 16 00 02 16 00  17 80 00 8A 0F 03 02 10  ................
0F80: 4C 80 07 03 10 48 80 01  8F 0F 03 02 10 3B 80 1B  L....H.......;..
```

#### Opcodes

```
  0: 0x01BD [0x1E] EventEntity looks at LocalPlayer and starts talking
  1: 0x01C2 [0x6F] WAIT_FRAME_DELAY: Yield until WaitTime reaches zero
  2: 0x01C3 [0x70] WAIT_ENTITY_RENDER_FLAG: Wait while EventEntity->Render.Flags3 bit 2 is set (cancel turn if not)
  3: 0x01C4 [0x03] ExtData[1]->WorkLocal[0] = Work_Zone[2]
  4: 0x01C9 [0x41] ExtData[1]->WorkLocal[1] = Work_Zone[3] (bits 0*-0*)
  5: 0x01D2 [0x41] ExtData[1]->WorkLocal[4] = Work_Zone[3] (bits 1*-2*)
  6: 0x01DB [0x41] ExtData[1]->WorkLocal[6] = Work_Zone[3] (bits 3*-3*)
  7: 0x01E4 [0x41] ExtData[1]->WorkLocal[17] = Work_Zone[3] (bits 4*-4*)
  8: 0x01ED [0x41] ExtData[1]->WorkLocal[18] = Work_Zone[3] (bits 5*-5*)
  9: 0x01F6 [0x41] ExtData[1]->WorkLocal[19] = Work_Zone[3] (bits 6*-6*)
 10: 0x01FF [0x41] ExtData[1]->WorkLocal[20] = Work_Zone[3] (bits 7*-7*)
 11: 0x0208 [0x41] ExtData[1]->WorkLocal[21] = Work_Zone[3] (bits 8*-8*)
 12: 0x0211 [0x41] ExtData[1]->WorkLocal[2] = Work_Zone[3] (bits 9*-9*)
 13: 0x021A [0x41] ExtData[1]->WorkLocal[3] = Work_Zone[3] (bits 10*-10*)
 14: 0x0223 [0x41] ExtData[1]->WorkLocal[25] = Work_Zone[3] (bits 11*-11*)
 15: 0x022C [0x41] ExtData[1]->WorkLocal[27] = Work_Zone[3] (bits 12*-12*)
 16: 0x0235 [0x41] ExtData[1]->WorkLocal[28] = Work_Zone[3] (bits 13*-13*)
 17: 0x023E [0x03] ExtData[1]->WorkLocal[7] = Work_Zone[4]
 18: 0x0243 [0x03] ExtData[1]->WorkLocal[8] = ExtData[1]->WorkLocal[7]
 19: 0x0248 [0x07] ExtData[1]->WorkLocal[8] += 7200*
 20: 0x024D [0x03] ExtData[1]->WorkLocal[24] = Work_Zone[5]
 21: 0x0252 [0x03] ExtData[1]->WorkLocal[29] = Work_Zone[6]
 22: 0x0257 [0x41] ExtData[1]->WorkLocal[15] = Work_Zone[7] (bits 0*-15*)
 23: 0x0260 [0x41] ExtData[1]->WorkLocal[16] = Work_Zone[7] (bits 16*-31*)
 24: 0x0269 [0x03] ExtData[1]->WorkLocal[30] = Work_Zone[8]
 25: 0x026E [0x1D] PRINT_EVENT_MESSAGE(message_id=12795*)
    → "Greetings, adventurer! My name is Tillecoe, pupil of the great and powerful mage Abdhaljs, and I have been assigned with the management of my master's greatest creation--Diorama Abdhaljs-Ghelsba."
 26: 0x0271 [0x23] WAIT_FOR_DIALOG_INTERACTION
 27: 0x0272 [0x02] IF !(ExtData[1]->WorkLocal[6] == 1*) GOTO 0x028D
 28: 0x027A [0x03] Work_Zone[2] = ExtData[1]->WorkLocal[8]
 29: 0x027F [0x03] Work_Zone[3] = ExtData[1]->WorkLocal[8]
 30: 0x0284 [0x07] Work_Zone[3] += 7200*
 31: 0x0289 [0x1D] PRINT_EVENT_MESSAGE(message_id=12796*)
    → "Diorama access for the period of to is no longer available."
 32: 0x028C [0x23] WAIT_FOR_DIALOG_INTERACTION
 33: 0x028D [0x02] IF !(ExtData[1]->WorkLocal[17] == 1*) GOTO 0x029C
 34: 0x0295 [0x1D] PRINT_EVENT_MESSAGE(message_id=12797*)
    → "Since you are a candidate for Master of Ceremonies (MC), you are authorized to make certain rule changes concerning participation."
 35: 0x0298 [0x23] WAIT_FOR_DIALOG_INTERACTION
 36: 0x0299 [0x01] GOTO 0x02C9
 37: 0x029C [0x06] Work_Zone[2] = 0
 38: 0x029F [0x02] IF !(ExtData[1]->WorkLocal[18] == 1*) GOTO 0x02AE
 39: 0x02A7 [0x3C] SET_BIT_FLAG_CONDITIONAL(target_work_offset=Work_Zone[2], bit_index_work_offset=0*, condition_work_offset=1*)
 40: 0x02AE [0x02] IF !(ExtData[1]->WorkLocal[19] == 1*) GOTO 0x02BD
 41: 0x02B6 [0x3C] SET_BIT_FLAG_CONDITIONAL(target_work_offset=Work_Zone[2], bit_index_work_offset=1*, condition_work_offset=1*)
 42: 0x02BD [0x02] IF !(Work_Zone[2] == 0*) GOTO 0x02C9
 43: 0x02C5 [0x1D] PRINT_EVENT_MESSAGE(message_id=12798*)
    → "The current Diorama Ballista participation rules set by the Master of Ceremonies are as follows: [ /Anyone can attend/Anyone can participate/Anyone can attend or participate]."
 44: 0x02C8 [0x23] WAIT_FOR_DIALOG_INTERACTION

SUBROUTINE_02C9:
 45: 0x02C9 [0x06] ExtData[1]->WorkLocal[11] = 0

SUBROUTINE_02CC:
 46: 0x02CC [0x06] ExtData[1]->WorkLocal[10] = 0
 47: 0x02CF [0x3C] SET_BIT_FLAG_CONDITIONAL(target_work_offset=ExtData[1]->WorkLocal[10], bit_index_work_offset=1*, condition_work_offset=1*)
 48: 0x02D6 [0x02] IF !(ExtData[1]->WorkLocal[17] == 0*) GOTO 0x02EC
 49: 0x02DE [0x3C] SET_BIT_FLAG_CONDITIONAL(target_work_offset=ExtData[1]->WorkLocal[10], bit_index_work_offset=4*, condition_work_offset=1*)
 50: 0x02E5 [0x3C] SET_BIT_FLAG_CONDITIONAL(target_work_offset=ExtData[1]->WorkLocal[10], bit_index_work_offset=5*, condition_work_offset=1*)
 51: 0x02EC [0x02] IF !(ExtData[1]->WorkLocal[18] == 0*) GOTO 0x02FB
 52: 0x02F4 [0x3C] SET_BIT_FLAG_CONDITIONAL(target_work_offset=ExtData[1]->WorkLocal[10], bit_index_work_offset=6*, condition_work_offset=1*)
 53: 0x02FB [0x02] IF !(ExtData[1]->WorkLocal[19] == 0*) GOTO 0x030A
 54: 0x0303 [0x3C] SET_BIT_FLAG_CONDITIONAL(target_work_offset=ExtData[1]->WorkLocal[10], bit_index_work_offset=7*, condition_work_offset=1*)
 55: 0x030A [0x02] IF !(ExtData[1]->WorkLocal[0] == 0*) GOTO 0x0319
 56: 0x0312 [0x3C] SET_BIT_FLAG_CONDITIONAL(target_work_offset=ExtData[1]->WorkLocal[10], bit_index_work_offset=8*, condition_work_offset=1*)
 57: 0x0319 [0x03] Work_Zone[2] = ExtData[1]->WorkLocal[18]
 58: 0x031E [0x03] Work_Zone[3] = ExtData[1]->WorkLocal[19]
 59: 0x0323 [0x24] CREATE_DIALOG(message_id=12799*, default_option=ExtData[1]->WorkLocal[11], option_flags=ExtData[1]->WorkLocal[10])
    → "Select one... [Quit./Reserve the Diorama (2 days from now)./Reserve the Diorama (now)./View the reservation list./[Allow/Restrict] gallery./[Allow/Restrict] participation./View a match./Participate in a match./Enter the Diorama./FAQ: What is the Diorama?/FAQ: Reserving the Diorama.]"
 60: 0x032A [0x25] WAIT_DIALOG_SELECT()
 61: 0x032B [0x40] SET_BIT_WORK_RANGE(start_bit=16*, end_bit=31*, target=Work_Zone[1], source=Work_Zone[0])
 62: 0x0334 [0x03] ExtData[1]->WorkLocal[11] = Work_Zone[0]
 63: 0x0339 [0x02] IF !(Work_Zone[0] == 1*) GOTO 0x0344
 64: 0x0341 [0x01] GOTO 0x0D5A
 65: 0x0344 [0x02] IF !(Work_Zone[0] == 2*) GOTO 0x03DD
 66: 0x034C [0x02] IF !(ExtData[1]->WorkLocal[3] == 0*) GOTO 0x03D6
 67: 0x0354 [0x02] IF !(ExtData[1]->WorkLocal[4] == 0*) GOTO 0x03A1
 68: 0x035C [0x1D] PRINT_EVENT_MESSAGE(message_id=12807*)
    → "Currently, no parties occupy the Diorama."
 69: 0x035F [0x23] WAIT_FOR_DIALOG_INTERACTION
 70: 0x0360 [0x03] Work_Zone[2] = 5302*
 71: 0x0365 [0x02] IF !(ExtData[1]->WorkLocal[21] == 1*) GOTO 0x0395
 72: 0x036D [0x02] IF !(ExtData[1]->WorkLocal[25] == 0*) GOTO 0x038E
 73: 0x0375 [0x3E] IF !(ExtData[1]->WorkLocal[0] bit 2*) GOTO 0x0383
 74: 0x037C [0x1D] PRINT_EVENT_MESSAGE(message_id=12864*)
    → "Since you already possess $0, I cannot allow you to make any further reservations. Also, remember to dispose of the $0 after the time inscribed on it has passed."
 75: 0x037F [0x23] WAIT_FOR_DIALOG_INTERACTION
 76: 0x0380 [0x01] GOTO 0x038B
 77: 0x0383 [0x03] ExtData[1]->WorkLocal[32] = ExtData[1]->WorkLocal[7]
 78: 0x0388 [0x1A] CALL_SUBROUTINE(address=0x0D5C)

SUBROUTINE_038B:
 79: 0x038B [0x01] GOTO 0x0392
 80: 0x038E [0x1D] PRINT_EVENT_MESSAGE(message_id=12800*)
    → "I see that you have recently utilized our Diorama services. I apologize, but I must ask that you wait a few more moments before attempting any further transactions."
 81: 0x0391 [0x23] WAIT_FOR_DIALOG_INTERACTION

SUBROUTINE_0392:
 82: 0x0392 [0x01] GOTO 0x039E
 83: 0x0395 [0x03] Work_Zone[3] = 576*
 84: 0x039A [0x1D] PRINT_EVENT_MESSAGE(message_id=12813*)
    → "To provide you with $0, you must have already earned your $3."
 85: 0x039D [0x23] WAIT_FOR_DIALOG_INTERACTION

SUBROUTINE_039E:
 86: 0x039E [0x01] GOTO 0x03D3
 87: 0x03A1 [0x03] Work_Zone[2] = ExtData[1]->WorkLocal[7]
 88: 0x03A6 [0x03] Work_Zone[3] = Work_Zone[2]
 89: 0x03AB [0x07] Work_Zone[3] += 7200*
 90: 0x03B0 [0x1D] PRINT_EVENT_MESSAGE(message_id=12808*)
    → "The Diorama is currently under occupation from until ."
 91: 0x03B3 [0x23] WAIT_FOR_DIALOG_INTERACTION
 92: 0x03B4 [0x02] IF !(ExtData[1]->WorkLocal[6] == 1*) GOTO 0x03CA
 93: 0x03BC [0x07] Work_Zone[2] += 7200*
 94: 0x03C1 [0x07] Work_Zone[3] += 7200*
 95: 0x03C6 [0x1D] PRINT_EVENT_MESSAGE(message_id=12809*)
    → "In addition, reservations for to have also come to a close."
 96: 0x03C9 [0x23] WAIT_FOR_DIALOG_INTERACTION
 97: 0x03CA [0x07] Work_Zone[2] += 7200*
 98: 0x03CF [0x1D] PRINT_EVENT_MESSAGE(message_id=12810*)
    → "Reservations for the next available block will be accepted from ."
 99: 0x03D2 [0x23] WAIT_FOR_DIALOG_INTERACTION

SUBROUTINE_03D3:
100: 0x03D3 [0x01] GOTO 0x03DA
101: 0x03D6 [0x1D] PRINT_EVENT_MESSAGE(message_id=12806*)
    → "I apologize, but the Diorama is currently out of service."
102: 0x03D9 [0x23] WAIT_FOR_DIALOG_INTERACTION

SUBROUTINE_03DA:
103: 0x03DA [0x01] GOTO 0x0D5A
104: 0x03DD [0x02] IF !(Work_Zone[0] == 3*) GOTO 0x0A1D
105: 0x03E5 [0x06] ExtData[1]->WorkLocal[34] = 0
106: 0x03E8 [0x03] ExtData[1]->WorkLocal[11] = 0*
107: 0x03ED [0x40] SET_BIT_WORK_RANGE(start_bit=3*, end_bit=8*, target=Work_Zone[1], source=33*)
108: 0x03F6 [0x43] SEND_EVENT_UPDATE: Send pending tag to server (packet 0x005B)
109: 0x03F8 [0x43] SEND_EVENT_UPDATE: Check pending flag (skip if not pending)
110: 0x03FA [0x02] IF !(Work_Zone[9] == 4294967295*) GOTO 0x0409
111: 0x0402 [0x48] [System] [11684*]:
    → "I'm sorry. I wasn't listening. Could you start over from the beginning?"
112: 0x0405 [0x23] WAIT_FOR_DIALOG_INTERACTION
113: 0x0406 [0x01] GOTO 0x0A1A
114: 0x0409 [0x03] ExtData[1]->WorkLocal[37] = Work_Zone[2]
115: 0x040E [0x03] ExtData[1]->WorkLocal[38] = Work_Zone[3]
116: 0x0413 [0x03] ExtData[1]->WorkLocal[39] = Work_Zone[4]
117: 0x0418 [0x03] ExtData[1]->WorkLocal[40] = Work_Zone[5]

SUBROUTINE_041D:
118: 0x041D [0x03] ExtData[1]->WorkLocal[31] = ExtData[1]->WorkLocal[7]
119: 0x0422 [0x02] IF !(ExtData[1]->WorkLocal[34] == 0*) GOTO 0x043C
120: 0x042A [0x07] ExtData[1]->WorkLocal[31] += 7200*
121: 0x042F [0x03] ExtData[1]->WorkLocal[33] = 0*
122: 0x0434 [0x03] ExtData[1]->WorkLocal[10] = 1*
123: 0x0439 [0x01] GOTO 0x0450
124: 0x043C [0x03] ExtData[1]->WorkLocal[33] = 12*
125: 0x0441 [0x03] ExtData[1]->WorkLocal[31] = ExtData[1]->WorkLocal[7]
126: 0x0446 [0x07] ExtData[1]->WorkLocal[31] += 93600*
127: 0x044B [0x03] ExtData[1]->WorkLocal[10] = 8192*

SUBROUTINE_0450:
128: 0x0450 [0x06] ExtData[1]->WorkLocal[35] = 0
129: 0x0453 [0x06] Work_Zone[2] = 0
130: 0x0456 [0x06] Work_Zone[3] = 0
131: 0x0459 [0x06] Work_Zone[4] = 0
132: 0x045C [0x06] Work_Zone[5] = 0
133: 0x045F [0x06] Work_Zone[6] = 0
134: 0x0462 [0x06] Work_Zone[7] = 0
135: 0x0465 [0x06] Work_Zone[8] = 0
136: 0x0468 [0x06] Work_Zone[9] = 0
137: 0x046B [0x06] Work_Zone_1700[0] = 0
138: 0x046E [0x06] Work_Zone_1700[1] = 0
139: 0x0471 [0x06] Work_Zone_1700[2] = 0
140: 0x0474 [0x06] Work_Zone_1700[3] = 0
141: 0x0477 [0x06] Work_Zone_1700[4] = 0
142: 0x047A [0x06] Work_Zone_1700[5] = 0
143: 0x047D [0x06] Work_Zone_1700[6] = 0
144: 0x0480 [0x06] Work_Zone_1700[7] = 0
145: 0x0483 [0x06] Work_Zone_1700[8] = 0
146: 0x0486 [0x06] Work_Zone_1700[9] = 0
147: 0x0489 [0x06] Work_Zone_1700[10] = 0
148: 0x048C [0x06] Work_Zone_1700[11] = 0
149: 0x048F [0x06] Work_Zone_1700[12] = 0
150: 0x0492 [0x06] Work_Zone_1700[13] = 0
151: 0x0495 [0x06] Work_Zone_1700[14] = 0
152: 0x0498 [0x06] Work_Zone_1700[15] = 0
153: 0x049B [0x06] Work_Zone_1700[16] = 0
154: 0x049E [0x06] Work_Zone_1700[17] = 0
155: 0x04A1 [0x06] Work_Zone_1700[18] = 0
156: 0x04A4 [0x06] Work_Zone_1700[19] = 0
157: 0x04A7 [0x06] Work_Zone_1700[20] = 0
158: 0x04AA [0x06] Work_Zone_1700[21] = 0
159: 0x04AD [0x06] Work_Zone_1700[22] = 0
160: 0x04B0 [0x06] Work_Zone_1700[23] = 0

SUBROUTINE_04B3:
161: 0x04B3 [0x02] IF !(ExtData[1]->WorkLocal[35] > 11*) GOTO 0x0782
162: 0x04BB [0x02] IF !(ExtData[1]->WorkLocal[35] == 0*) GOTO 0x04CB
163: 0x04C3 [0x03] Work_Zone[2] = ExtData[1]->WorkLocal[31]
164: 0x04C8 [0x01] GOTO 0x057B
165: 0x04CB [0x02] IF !(ExtData[1]->WorkLocal[35] == 1*) GOTO 0x04DB
166: 0x04D3 [0x03] Work_Zone[3] = ExtData[1]->WorkLocal[31]
167: 0x04D8 [0x01] GOTO 0x057B
168: 0x04DB [0x02] IF !(ExtData[1]->WorkLocal[35] == 2*) GOTO 0x04EB
169: 0x04E3 [0x03] Work_Zone[4] = ExtData[1]->WorkLocal[31]
170: 0x04E8 [0x01] GOTO 0x057B
171: 0x04EB [0x02] IF !(ExtData[1]->WorkLocal[35] == 3*) GOTO 0x04FB
172: 0x04F3 [0x03] Work_Zone[5] = ExtData[1]->WorkLocal[31]
173: 0x04F8 [0x01] GOTO 0x057B
174: 0x04FB [0x02] IF !(ExtData[1]->WorkLocal[35] == 4*) GOTO 0x050B
175: 0x0503 [0x03] Work_Zone[6] = ExtData[1]->WorkLocal[31]
176: 0x0508 [0x01] GOTO 0x057B
177: 0x050B [0x02] IF !(ExtData[1]->WorkLocal[35] == 5*) GOTO 0x051B
178: 0x0513 [0x03] Work_Zone[7] = ExtData[1]->WorkLocal[31]
179: 0x0518 [0x01] GOTO 0x057B
180: 0x051B [0x02] IF !(ExtData[1]->WorkLocal[35] == 6*) GOTO 0x052B
181: 0x0523 [0x03] Work_Zone[8] = ExtData[1]->WorkLocal[31]
182: 0x0528 [0x01] GOTO 0x057B
183: 0x052B [0x02] IF !(ExtData[1]->WorkLocal[35] == 7*) GOTO 0x053B
184: 0x0533 [0x03] Work_Zone[9] = ExtData[1]->WorkLocal[31]
185: 0x0538 [0x01] GOTO 0x057B
186: 0x053B [0x02] IF !(ExtData[1]->WorkLocal[35] == 8*) GOTO 0x054B
187: 0x0543 [0x03] Work_Zone_1700[0] = ExtData[1]->WorkLocal[31]
188: 0x0548 [0x01] GOTO 0x057B
189: 0x054B [0x02] IF !(ExtData[1]->WorkLocal[35] == 9*) GOTO 0x055B
190: 0x0553 [0x03] Work_Zone_1700[1] = ExtData[1]->WorkLocal[31]
191: 0x0558 [0x01] GOTO 0x057B
192: 0x055B [0x02] IF !(ExtData[1]->WorkLocal[35] == 10*) GOTO 0x056B
193: 0x0563 [0x03] Work_Zone_1700[2] = ExtData[1]->WorkLocal[31]
194: 0x0568 [0x01] GOTO 0x057B
195: 0x056B [0x02] IF !(ExtData[1]->WorkLocal[35] == 11*) GOTO 0x057B
196: 0x0573 [0x03] Work_Zone_1700[3] = ExtData[1]->WorkLocal[31]
197: 0x0578 [0x01] GOTO 0x057B

SUBROUTINE_057B:
198: 0x057B [0x03] ExtData[1]->WorkLocal[32] = ExtData[1]->WorkLocal[31]
199: 0x0580 [0x08] ExtData[1]->WorkLocal[32] -= 172800*
200: 0x0585 [0x3E] IF !(ExtData[1]->WorkLocal[29] bit ExtData[1]->WorkLocal[33]) GOTO 0x05A3
201: 0x058C [0x3E] IF !(ExtData[1]->WorkLocal[40] bit ExtData[1]->WorkLocal[33]) GOTO 0x059B
202: 0x0593 [0x03] ExtData[1]->WorkLocal[22] = 3*
203: 0x0598 [0x01] GOTO 0x05A0
204: 0x059B [0x03] ExtData[1]->WorkLocal[22] = 2*

SUBROUTINE_05A0:
205: 0x05A0 [0x01] GOTO 0x05B8
206: 0x05A3 [0x02] IF !(ExtData[1]->WorkLocal[32] > ExtData[1]->WorkLocal[30]) GOTO 0x05B3
207: 0x05AB [0x03] ExtData[1]->WorkLocal[22] = 0*
208: 0x05B0 [0x01] GOTO 0x05B8
209: 0x05B3 [0x03] ExtData[1]->WorkLocal[22] = 1*

SUBROUTINE_05B8:
210: 0x05B8 [0x02] IF !(ExtData[1]->WorkLocal[35] == 0*) GOTO 0x05C8
211: 0x05C0 [0x03] Work_Zone_1700[4] = ExtData[1]->WorkLocal[22]
212: 0x05C5 [0x01] GOTO 0x0678
213: 0x05C8 [0x02] IF !(ExtData[1]->WorkLocal[35] == 1*) GOTO 0x05D8
214: 0x05D0 [0x03] Work_Zone_1700[5] = ExtData[1]->WorkLocal[22]
215: 0x05D5 [0x01] GOTO 0x0678
216: 0x05D8 [0x02] IF !(ExtData[1]->WorkLocal[35] == 2*) GOTO 0x05E8
217: 0x05E0 [0x03] Work_Zone_1700[6] = ExtData[1]->WorkLocal[22]
218: 0x05E5 [0x01] GOTO 0x0678
219: 0x05E8 [0x02] IF !(ExtData[1]->WorkLocal[35] == 3*) GOTO 0x05F8
220: 0x05F0 [0x03] Work_Zone_1700[7] = ExtData[1]->WorkLocal[22]
221: 0x05F5 [0x01] GOTO 0x0678
222: 0x05F8 [0x02] IF !(ExtData[1]->WorkLocal[35] == 4*) GOTO 0x0608
223: 0x0600 [0x03] Work_Zone_1700[8] = ExtData[1]->WorkLocal[22]
224: 0x0605 [0x01] GOTO 0x0678
225: 0x0608 [0x02] IF !(ExtData[1]->WorkLocal[35] == 5*) GOTO 0x0618
226: 0x0610 [0x03] Work_Zone_1700[9] = ExtData[1]->WorkLocal[22]
227: 0x0615 [0x01] GOTO 0x0678
228: 0x0618 [0x02] IF !(ExtData[1]->WorkLocal[35] == 6*) GOTO 0x0628
229: 0x0620 [0x03] Work_Zone_1700[10] = ExtData[1]->WorkLocal[22]
230: 0x0625 [0x01] GOTO 0x0678
231: 0x0628 [0x02] IF !(ExtData[1]->WorkLocal[35] == 7*) GOTO 0x0638
232: 0x0630 [0x03] Work_Zone_1700[11] = ExtData[1]->WorkLocal[22]
233: 0x0635 [0x01] GOTO 0x0678
234: 0x0638 [0x02] IF !(ExtData[1]->WorkLocal[35] == 8*) GOTO 0x0648
235: 0x0640 [0x03] Work_Zone_1700[12] = ExtData[1]->WorkLocal[22]
236: 0x0645 [0x01] GOTO 0x0678
237: 0x0648 [0x02] IF !(ExtData[1]->WorkLocal[35] == 9*) GOTO 0x0658
238: 0x0650 [0x03] Work_Zone_1700[13] = ExtData[1]->WorkLocal[22]
239: 0x0655 [0x01] GOTO 0x0678
240: 0x0658 [0x02] IF !(ExtData[1]->WorkLocal[35] == 10*) GOTO 0x0668
241: 0x0660 [0x03] Work_Zone_1700[14] = ExtData[1]->WorkLocal[22]
242: 0x0665 [0x01] GOTO 0x0678
243: 0x0668 [0x02] IF !(ExtData[1]->WorkLocal[35] == 11*) GOTO 0x0678
244: 0x0670 [0x03] Work_Zone_1700[15] = ExtData[1]->WorkLocal[22]
245: 0x0675 [0x01] GOTO 0x0678

SUBROUTINE_0678:
246: 0x0678 [0x06] ExtData[1]->WorkLocal[22] = 0
247: 0x067B [0x3E] IF !(ExtData[1]->WorkLocal[29] bit ExtData[1]->WorkLocal[33]) GOTO 0x06AF
248: 0x0682 [0x3E] IF !(ExtData[1]->WorkLocal[37] bit ExtData[1]->WorkLocal[33]) GOTO 0x0690
249: 0x0689 [0x3C] SET_BIT_FLAG_CONDITIONAL(target_work_offset=ExtData[1]->WorkLocal[22], bit_index_work_offset=0*, condition_work_offset=1*)
250: 0x0690 [0x3E] IF !(ExtData[1]->WorkLocal[38] bit ExtData[1]->WorkLocal[33]) GOTO 0x069E
251: 0x0697 [0x3C] SET_BIT_FLAG_CONDITIONAL(target_work_offset=ExtData[1]->WorkLocal[22], bit_index_work_offset=1*, condition_work_offset=1*)
252: 0x069E [0x3E] IF !(ExtData[1]->WorkLocal[39] bit ExtData[1]->WorkLocal[33]) GOTO 0x06AC
253: 0x06A5 [0x3C] SET_BIT_FLAG_CONDITIONAL(target_work_offset=ExtData[1]->WorkLocal[22], bit_index_work_offset=2*, condition_work_offset=1*)
254: 0x06AC [0x01] GOTO 0x06B4
255: 0x06AF [0x03] ExtData[1]->WorkLocal[22] = 7*

SUBROUTINE_06B4:
256: 0x06B4 [0x02] IF !(ExtData[1]->WorkLocal[35] == 0*) GOTO 0x06C4
257: 0x06BC [0x03] Work_Zone_1700[16] = ExtData[1]->WorkLocal[22]
258: 0x06C1 [0x01] GOTO 0x0774
259: 0x06C4 [0x02] IF !(ExtData[1]->WorkLocal[35] == 1*) GOTO 0x06D4
260: 0x06CC [0x03] Work_Zone_1700[17] = ExtData[1]->WorkLocal[22]
261: 0x06D1 [0x01] GOTO 0x0774
262: 0x06D4 [0x02] IF !(ExtData[1]->WorkLocal[35] == 2*) GOTO 0x06E4
263: 0x06DC [0x03] Work_Zone_1700[18] = ExtData[1]->WorkLocal[22]
264: 0x06E1 [0x01] GOTO 0x0774
265: 0x06E4 [0x02] IF !(ExtData[1]->WorkLocal[35] == 3*) GOTO 0x06F4
266: 0x06EC [0x03] Work_Zone_1700[19] = ExtData[1]->WorkLocal[22]
267: 0x06F1 [0x01] GOTO 0x0774
268: 0x06F4 [0x02] IF !(ExtData[1]->WorkLocal[35] == 4*) GOTO 0x0704
269: 0x06FC [0x03] Work_Zone_1700[20] = ExtData[1]->WorkLocal[22]
270: 0x0701 [0x01] GOTO 0x0774
271: 0x0704 [0x02] IF !(ExtData[1]->WorkLocal[35] == 5*) GOTO 0x0714
272: 0x070C [0x03] Work_Zone_1700[21] = ExtData[1]->WorkLocal[22]
273: 0x0711 [0x01] GOTO 0x0774
274: 0x0714 [0x02] IF !(ExtData[1]->WorkLocal[35] == 6*) GOTO 0x0724
275: 0x071C [0x03] Work_Zone_1700[22] = ExtData[1]->WorkLocal[22]
276: 0x0721 [0x01] GOTO 0x0774
277: 0x0724 [0x02] IF !(ExtData[1]->WorkLocal[35] == 7*) GOTO 0x0734
278: 0x072C [0x03] Work_Zone_1700[23] = ExtData[1]->WorkLocal[22]
279: 0x0731 [0x01] GOTO 0x0774
280: 0x0734 [0x02] IF !(ExtData[1]->WorkLocal[35] == 8*) GOTO 0x0744
281: 0x073C [0x03] Work_Zone_1700[24] = ExtData[1]->WorkLocal[22]
282: 0x0741 [0x01] GOTO 0x0774
283: 0x0744 [0x02] IF !(ExtData[1]->WorkLocal[35] == 9*) GOTO 0x0754
284: 0x074C [0x03] Work_Zone_1700[25] = ExtData[1]->WorkLocal[22]
285: 0x0751 [0x01] GOTO 0x0774
286: 0x0754 [0x02] IF !(ExtData[1]->WorkLocal[35] == 10*) GOTO 0x0764
287: 0x075C [0x03] Work_Zone_1700[26] = ExtData[1]->WorkLocal[22]
288: 0x0761 [0x01] GOTO 0x0774
289: 0x0764 [0x02] IF !(ExtData[1]->WorkLocal[35] == 11*) GOTO 0x0774
290: 0x076C [0x03] Work_Zone_1700[27] = ExtData[1]->WorkLocal[22]
291: 0x0771 [0x01] GOTO 0x0774

SUBROUTINE_0774:
292: 0x0774 [0x07] ExtData[1]->WorkLocal[31] += 7200*
293: 0x0779 [0x0B] ExtData[1]->WorkLocal[33]++
294: 0x077C [0x0B] ExtData[1]->WorkLocal[35]++
295: 0x077F [0x01] GOTO 0x04B3
296: 0x0782 [0x24] CREATE_DIALOG(message_id=12836*, default_option=ExtData[1]->WorkLocal[11], option_flags=ExtData[1]->WorkLocal[10])
    → "Reservation status is as follows: [Previous page./ [H/|/~/~!/OM] [$7/60/50/40/30/20/10/]/ [H/|/~/~!/OM] [$7/60/50/40/30/20/10/]/ [H/|/~/~!/OM] [$7/60/50/40/30/20/10/]/ [H/|/~/~!/OM] [$7/60/50/40/30/20/10/]/ [H/|/~/~!/OM] [$7/60/50/40/30/20/10/]/ [H/|/~/~!/OM] [$7/60/50/40/30/20/10/]/ [H/|/~/~!/OM] [$7/60/50/40/30/20/10/]/ [H/|/~/~!/OM] [$7/60/50/40/30/20/10/]/ [H/|/~/~!/OM] [$7/60/50/40/30/20/10/]/ [H/|/~/~!/OM] [$7/60/50/40/30/20/10/]/ [H/|/~/~!/OM] "[$7/60/50/40/30/20/10/]/ [H/|/~/~!/OM] #[$7/60/50/40/30/20/10/]/Next Page./Return.]"
297: 0x0789 [0x25] WAIT_DIALOG_SELECT()
298: 0x078A [0x02] IF !(Work_Zone[0] == 0*) GOTO 0x07A0
299: 0x0792 [0x06] ExtData[1]->WorkLocal[34] = 0
300: 0x0795 [0x03] ExtData[1]->WorkLocal[11] = 13*
301: 0x079A [0x01] GOTO 0x041D

SUBROUTINE_0911:
302: 0x0911 [0x06] Work_Zone[9] = 0
303: 0x0914 [0x03] ExtData[1]->WorkLocal[14] = ExtData[1]->WorkLocal[32]
304: 0x0919 [0x08] ExtData[1]->WorkLocal[14] -= ExtData[1]->WorkLocal[7]
305: 0x091E [0x15] ExtData[1]->WorkLocal[14] /= 7200*
306: 0x0923 [0x0C] ExtData[1]->WorkLocal[14]--
307: 0x0926 [0x02] IF !(ExtData[1]->WorkLocal[36] == 0*) GOTO 0x0946
308: 0x092E [0x03] Work_Zone[3] = ExtData[1]->WorkLocal[32]
309: 0x0933 [0x1D] PRINT_EVENT_MESSAGE(message_id=12839*)
    → "I am sorry. I seem to have misplaced the reservation documents for ..."
310: 0x0936 [0x23] WAIT_FOR_DIALOG_INTERACTION
311: 0x0937 [0x03] Work_Zone[2] = 5300*
312: 0x093C [0x1D] PRINT_EVENT_MESSAGE(message_id=12840*)
    → "However, any reservation you might have made for this block is still in effect. I can replace the information if you bring me the correct $0."
313: 0x093F [0x23] WAIT_FOR_DIALOG_INTERACTION
314: 0x0940 [0x01] GOTO 0x041D

SUBROUTINE_0984:
315: 0x0984 [0x01] GOTO 0x0990
316: 0x0987 [0x03] Work_Zone[3] = 576*
317: 0x098C [0x1D] PRINT_EVENT_MESSAGE(message_id=12813*)
    → "To provide you with $0, you must have already earned your $3."
318: 0x098F [0x23] WAIT_FOR_DIALOG_INTERACTION

SUBROUTINE_0990:
319: 0x0990 [0x01] GOTO 0x09FF
320: 0x0993 [0x02] IF !(ExtData[1]->WorkLocal[36] == 4*) GOTO 0x099E
321: 0x099B [0x01] GOTO 0x09FF
322: 0x099E [0x03] Work_Zone[2] = ExtData[1]->WorkLocal[41]
323: 0x09A3 [0x03] Work_Zone[3] = ExtData[1]->WorkLocal[32]
324: 0x09A8 [0x3E] IF !(ExtData[1]->WorkLocal[40] bit ExtData[1]->WorkLocal[14]) GOTO 0x09B7
325: 0x09AF [0x03] ExtData[1]->WorkLocal[23] = 1*
326: 0x09B4 [0x01] GOTO 0x09BC
327: 0x09B7 [0x03] ExtData[1]->WorkLocal[23] = 0*

SUBROUTINE_09BC:
328: 0x09BC [0x03] Work_Zone[4] = ExtData[1]->WorkLocal[23]
329: 0x09C1 [0x1D] PRINT_EVENT_MESSAGE(message_id=12837*)
    → "There is currently a reservation for the Diorama on . Level restriction: [None/60/50/40/30/20/10] Comment: [None/Recruiting]"
330: 0x09C4 [0x23] WAIT_FOR_DIALOG_INTERACTION
331: 0x09C5 [0x40] SET_BIT_WORK_RANGE(start_bit=3*, end_bit=8*, target=Work_Zone[1], source=ExtData[1]->WorkLocal[14])
332: 0x09CE [0x03] Work_Zone[2] = ExtData[1]->WorkLocal[14]
333: 0x09D3 [0x02] IF !(ExtData[1]->WorkLocal[23] == 1*) GOTO 0x09FF
334: 0x09DB [0x03] Work_Zone[8] = 5301*
335: 0x09E0 [0x1D] PRINT_EVENT_MESSAGE(message_id=12841*)
    → "Current settings allow anyone who wishes to join the match to receive $6."
336: 0x09E3 [0x23] WAIT_FOR_DIALOG_INTERACTION
337: 0x09E4 [0x24] CREATE_DIALOG(message_id=12842*, default_option=1*, option_flags=0*)
    → "Would you like to apply for the match? [Yes./No.]"
338: 0x09EB [0x25] WAIT_DIALOG_SELECT()
339: 0x09EC [0x02] IF !(Work_Zone[0] == 0*) GOTO 0x09FC
340: 0x09F4 [0x42] SET_CLI_EVENT_CANCEL_DATA()
341: 0x09F5 [0x43] SEND_EVENT_UPDATE: Send pending tag to server (packet 0x005B)
342: 0x09F7 [0x43] SEND_EVENT_UPDATE: Check pending flag (skip if not pending)
343: 0x09F9 [0x01] GOTO 0x09FC

SUBROUTINE_09FC:
344: 0x09FC [0x01] GOTO 0x09FF

SUBROUTINE_09FF:
345: 0x09FF [0x2E] SET_CLI_EVENT_CANCEL_FLAGS()
346: 0x0A00 [0x02] IF !(Work_Zone[9] == 1*) GOTO 0x0A1A
347: 0x0A08 [0x02] IF !(Work_Zone[9] == 4294967295*) GOTO 0x0A17
348: 0x0A10 [0x1D] PRINT_EVENT_MESSAGE(message_id=12843*)
    → "I apologize, but I was unable to process your application. Please try again."
349: 0x0A13 [0x23] WAIT_FOR_DIALOG_INTERACTION
350: 0x0A14 [0x01] GOTO 0x0A1A
351: 0x0A17 [0x01] GOTO 0x041D

SUBROUTINE_0A1A:
352: 0x0A1A [0x01] GOTO 0x0D5A
353: 0x0A1D [0x02] IF !(Work_Zone[0] == 4*) GOTO 0x0A6F
354: 0x0A25 [0x1D] PRINT_EVENT_MESSAGE(message_id=12867*)
    → "By allowing a gallery, I can teleport to the Diorama (for a small fee) anyone who wishes to view the matches."
355: 0x0A28 [0x23] WAIT_FOR_DIALOG_INTERACTION
356: 0x0A29 [0x1D] PRINT_EVENT_MESSAGE(message_id=12868*)
    → "However, remember that these gallery members will be restricted from match participation."
357: 0x0A2C [0x23] WAIT_FOR_DIALOG_INTERACTION
358: 0x0A2D [0x24] CREATE_DIALOG(message_id=12869*, default_option=ExtData[1]->WorkLocal[18], option_flags=0*)
    → "Allow gallery attendance? [No./Yes./Leave at current setting.]"
359: 0x0A34 [0x25] WAIT_DIALOG_SELECT()
360: 0x0A35 [0x02] IF !(Work_Zone[0] == 2*) GOTO 0x0A43
361: 0x0A3D [0x01] GOTO 0x02CC

SUBROUTINE_0A6C:
362: 0x0A6C [0x01] GOTO 0x0D5A
363: 0x0A6F [0x02] IF !(Work_Zone[0] == 5*) GOTO 0x0AD2
364: 0x0A77 [0x02] IF !(ExtData[1]->WorkLocal[4] == 1*) GOTO 0x0A87
365: 0x0A7F [0x03] Work_Zone[2] = 5301*
366: 0x0A84 [0x01] GOTO 0x0A8C
367: 0x0A87 [0x03] Work_Zone[2] = 5303*

SUBROUTINE_0A8C:
368: 0x0A8C [0x1D] PRINT_EVENT_MESSAGE(message_id=12871*)
    → "By allowing general participation, I can provide adventurers with $0 that they can use to travel to the Diorama and take part in any Ballista matches held within."
369: 0x0A8F [0x23] WAIT_FOR_DIALOG_INTERACTION
370: 0x0A90 [0x24] CREATE_DIALOG(message_id=12872*, default_option=ExtData[1]->WorkLocal[19], option_flags=0*)
    → "Allow general participation? [No./Yes./Leave at current setting.]"
371: 0x0A97 [0x25] WAIT_DIALOG_SELECT()
372: 0x0A98 [0x02] IF !(Work_Zone[0] == 2*) GOTO 0x0AA6
373: 0x0AA0 [0x01] GOTO 0x02CC

SUBROUTINE_0ACF:
374: 0x0ACF [0x01] GOTO 0x0D5A
375: 0x0AD2 [0x02] IF !(Work_Zone[0] == 6*) GOTO 0x0B66
376: 0x0ADA [0x1D] PRINT_EVENT_MESSAGE(message_id=12874*)
    → "Any adventurers who wish to travel to the Diorama to witness the events currently being held may do so. However, please note that all "gallery members" will not be allowed to participate in any matches."
377: 0x0ADD [0x23] WAIT_FOR_DIALOG_INTERACTION
378: 0x0ADE [0x02] IF !(ExtData[1]->WorkLocal[28] == 0*) GOTO 0x0AEF
379: 0x0AE6 [0x03] Work_Zone[2] = 100*
380: 0x0AEB [0x1D] PRINT_EVENT_MESSAGE(message_id=12875*)
    → "If you still wish to be teleported, I will require a fee of $0 gil."
381: 0x0AEE [0x23] WAIT_FOR_DIALOG_INTERACTION
382: 0x0AEF [0x24] CREATE_DIALOG(message_id=12876*, default_option=1*, option_flags=0*)
    → "Become a gallery member? [Yes./No.]"
383: 0x0AF6 [0x25] WAIT_DIALOG_SELECT()
384: 0x0AF7 [0x02] IF !(Work_Zone[0] == 0*) GOTO 0x0B63
385: 0x0AFF [0x42] SET_CLI_EVENT_CANCEL_DATA()
386: 0x0B00 [0x73] EventEntity casts magic 122* on LocalPlayer
387: 0x0B0B [0x1C] WAIT(260* ticks)
388: 0x0B0E [0x40] SET_BIT_WORK_RANGE(start_bit=0*, end_bit=15*, target=Work_Zone[1], source=1*)
389: 0x0B17 [0x43] SEND_EVENT_UPDATE: Send pending tag to server (packet 0x005B)
390: 0x0B19 [0x43] SEND_EVENT_UPDATE: Check pending flag (skip if not pending)
391: 0x0B1B [0x02] IF !(Work_Zone[2] == 4294967295*) GOTO 0x0B33
392: 0x0B23 [0x6C] FADE_ENTITY_COLOR(entity_id=LocalPlayer, end_alpha=127*, fade_time=1*)
393: 0x0B2C [0x48] [System] [11684*]:
    → "I'm sorry. I wasn't listening. Could you start over from the beginning?"
394: 0x0B2F [0x23] WAIT_FOR_DIALOG_INTERACTION
395: 0x0B30 [0x01] GOTO 0x0B60
396: 0x0B33 [0x02] IF !(Work_Zone[9] == 4294967295*) GOTO 0x0B4B
397: 0x0B3B [0x6C] FADE_ENTITY_COLOR(entity_id=LocalPlayer, end_alpha=127*, fade_time=1*)
398: 0x0B44 [0x1D] PRINT_EVENT_MESSAGE(message_id=12861*)
    → "You do not possess the $0 gil necessary for teleportation."
399: 0x0B47 [0x23] WAIT_FOR_DIALOG_INTERACTION
400: 0x0B48 [0x01] GOTO 0x0B60
401: 0x0B4B [0x02] IF !(Work_Zone[9] == 0*) GOTO 0x0B57
402: 0x0B53 [0x30] SET_UCOFF_CONTINUE_ZERO()
403: 0x0B54 [0x01] GOTO 0x0B60
404: 0x0B57 [0x6C] FADE_ENTITY_COLOR(entity_id=LocalPlayer, end_alpha=127*, fade_time=1*)

SUBROUTINE_0B60:
405: 0x0B60 [0x01] GOTO 0x0B63

SUBROUTINE_0B63:
406: 0x0B63 [0x01] GOTO 0x0D5A
407: 0x0B66 [0x02] IF !(Work_Zone[0] == 7*) GOTO 0x0C36
408: 0x0B6E [0x02] IF !(ExtData[1]->WorkLocal[4] == 1*) GOTO 0x0B7E
409: 0x0B76 [0x03] Work_Zone[3] = 5301*
410: 0x0B7B [0x01] GOTO 0x0B83
411: 0x0B7E [0x03] Work_Zone[3] = 5303*

SUBROUTINE_0B83:
412: 0x0B83 [0x03] Work_Zone[4] = ExtData[1]->WorkLocal[24]
413: 0x0B88 [0x02] IF !(ExtData[1]->WorkLocal[24] == 0*) GOTO 0x0B98
414: 0x0B90 [0x03] Work_Zone[2] = 750*
415: 0x0B95 [0x01] GOTO 0x0BF8
416: 0x0B98 [0x02] IF !(ExtData[1]->WorkLocal[24] == 1*) GOTO 0x0BA8
417: 0x0BA0 [0x03] Work_Zone[2] = 600*
418: 0x0BA5 [0x01] GOTO 0x0BF8
419: 0x0BA8 [0x02] IF !(ExtData[1]->WorkLocal[24] == 2*) GOTO 0x0BB8
420: 0x0BB0 [0x03] Work_Zone[2] = 500*
421: 0x0BB5 [0x01] GOTO 0x0BF8
422: 0x0BB8 [0x02] IF !(ExtData[1]->WorkLocal[24] == 3*) GOTO 0x0BC8
423: 0x0BC0 [0x03] Work_Zone[2] = 400*
424: 0x0BC5 [0x01] GOTO 0x0BF8
425: 0x0BC8 [0x02] IF !(ExtData[1]->WorkLocal[24] == 4*) GOTO 0x0BD8
426: 0x0BD0 [0x03] Work_Zone[2] = 300*
427: 0x0BD5 [0x01] GOTO 0x0BF8
428: 0x0BD8 [0x02] IF !(ExtData[1]->WorkLocal[24] == 5*) GOTO 0x0BE8
429: 0x0BE0 [0x03] Work_Zone[2] = 200*
430: 0x0BE5 [0x01] GOTO 0x0BF8
431: 0x0BE8 [0x02] IF !(ExtData[1]->WorkLocal[24] == 6*) GOTO 0x0BF8
432: 0x0BF0 [0x03] Work_Zone[2] = 100*
433: 0x0BF5 [0x01] GOTO 0x0BF8

SUBROUTINE_0BF8:
434: 0x0BF8 [0x1D] PRINT_EVENT_MESSAGE(message_id=12877*)
    → "General participation is currently being allowed for the next Diorama Ballista match. [There is no level limit set/The level limit is set to 60/The level limit is set to 50/The level limit is set to 40/The level limit is set to 30/The level limit is set to 20/The level limit is set to 10]."
435: 0x0BFB [0x23] WAIT_FOR_DIALOG_INTERACTION
436: 0x0BFC [0x1D] PRINT_EVENT_MESSAGE(message_id=12878*)
    → "I have been given authorization by the acting Master of Ceremonies to provide any adventurer who wishes to take part in the event with $1, as well as teleport him or her to the battlefield (for a small fee of $0 gil)."
437: 0x0BFF [0x23] WAIT_FOR_DIALOG_INTERACTION
438: 0x0C00 [0x24] CREATE_DIALOG(message_id=12879*, default_option=1*, option_flags=0*)
    → "Do you wish to participate? [Yes./No.]"
439: 0x0C07 [0x25] WAIT_DIALOG_SELECT()
440: 0x0C08 [0x02] IF !(Work_Zone[0] == 0*) GOTO 0x0C33
441: 0x0C10 [0x40] SET_BIT_WORK_RANGE(start_bit=0*, end_bit=15*, target=Work_Zone[1], source=1*)
442: 0x0C19 [0x43] SEND_EVENT_UPDATE: Send pending tag to server (packet 0x005B)
443: 0x0C1B [0x43] SEND_EVENT_UPDATE: Check pending flag (skip if not pending)
444: 0x0C1D [0x02] IF !(Work_Zone[2] == 4294967295*) GOTO 0x0C2C
445: 0x0C25 [0x48] [System] [11684*]:
    → "I'm sorry. I wasn't listening. Could you start over from the beginning?"
446: 0x0C28 [0x23] WAIT_FOR_DIALOG_INTERACTION
447: 0x0C29 [0x01] GOTO 0x0C30
448: 0x0C2C [0x1D] PRINT_EVENT_MESSAGE(message_id=12880*)
    → "When you have made your preparations, show me your $0 and I shall teleport you to the Diorama."
449: 0x0C2F [0x23] WAIT_FOR_DIALOG_INTERACTION

SUBROUTINE_0C30:
450: 0x0C30 [0x01] GOTO 0x0C33

SUBROUTINE_0C33:
451: 0x0C33 [0x01] GOTO 0x0D5A
452: 0x0C36 [0x02] IF !(Work_Zone[0] == 8*) GOTO 0x0C60
453: 0x0C3E [0x03] Work_Zone[2] = 5300*
454: 0x0C43 [0x03] Work_Zone[3] = 5301*
455: 0x0C48 [0x03] Work_Zone[4] = 5302*
456: 0x0C4D [0x03] Work_Zone[5] = 5303*
457: 0x0C52 [0x1D] PRINT_EVENT_MESSAGE(message_id=12888*)
    → "A valid $0, $1, $2, or $3 is required for access to the Diorama."
458: 0x0C55 [0x23] WAIT_FOR_DIALOG_INTERACTION
459: 0x0C56 [0x1D] PRINT_EVENT_MESSAGE(message_id=12889*)
    → "Present one to me when you have completed your preparations."
460: 0x0C59 [0x23] WAIT_FOR_DIALOG_INTERACTION
461: 0x0C5A [0x01] GOTO 0x02CC

SUBROUTINE_0C95:
462: 0x0C95 [0x24] CREATE_DIALOG(message_id=12890*, default_option=ExtData[1]->WorkLocal[42], option_flags=0*)
    → "What would you like to know? [About making reservations./About reservation guidelines./About reservation status./About the waiting list./Return.]"
463: 0x0C9C [0x25] WAIT_DIALOG_SELECT()
464: 0x0C9D [0x03] ExtData[1]->WorkLocal[42] = Work_Zone[0]
465: 0x0CA2 [0x02] IF !(Work_Zone[0] == 0*) GOTO 0x0CC6
466: 0x0CAA [0x03] Work_Zone[2] = ExtData[1]->WorkLocal[7]
467: 0x0CAF [0x07] Work_Zone[2] += 172800*
468: 0x0CB4 [0x1D] PRINT_EVENT_MESSAGE(message_id=12891*)
    → "The Diorama can be reserved in blocks of two hours (Earth time)."
469: 0x0CB7 [0x23] WAIT_FOR_DIALOG_INTERACTION
470: 0x0CB8 [0x1D] PRINT_EVENT_MESSAGE(message_id=12892*)
    → "Reservations can be made for same-day blocks, as well as blocks two days in advance. For example, you could currently reserve the two-hour block from to ."
471: 0x0CBB [0x23] WAIT_FOR_DIALOG_INTERACTION
472: 0x0CBC [0x1D] PRINT_EVENT_MESSAGE(message_id=12893*)
    → "If no reservations have been made for the current block, or a person fails to reconfirm his or her reservation, other adventurers may be granted access to the area."
473: 0x0CBF [0x23] WAIT_FOR_DIALOG_INTERACTION
474: 0x0CC0 [0x01] GOTO 0x0C95

SUBROUTINE_0D57:
475: 0x0D57 [0x01] GOTO 0x0D5A

SUBROUTINE_0D5A:
476: 0x0D5A [0x21] END_EVENT
477: 0x0D5B [0x00] END_REQSTACK()

SUBROUTINE_0D5C:
478: 0x0D5C [0x03] Work_Zone[3] = ExtData[1]->WorkLocal[16]
479: 0x0D61 [0x03] Work_Zone[4] = ExtData[1]->WorkLocal[15]
480: 0x0D66 [0x1D] PRINT_EVENT_MESSAGE(message_id=12815*)
    → "$1 Ballista Points are required to purchase $0 (you currently have $2 [point/points])."
481: 0x0D69 [0x23] WAIT_FOR_DIALOG_INTERACTION
482: 0x0D6A [0x02] IF !(ExtData[1]->WorkLocal[15] < ExtData[1]->WorkLocal[16]) GOTO 0x0F66
483: 0x0D72 [0x24] CREATE_DIALOG(message_id=12816*, default_option=0*, option_flags=0*)
    → "Would you like a copy? [Not at this time./Level restriction: $7./Level restriction: 60./Level restriction: 50./Level restriction: 40./Level restriction: 30./Level restriction: 20./Level restriction: 10.]"
484: 0x0D79 [0x25] WAIT_DIALOG_SELECT()
485: 0x0D7A [0x02] IF !(Work_Zone[0] == 0*) GOTO 0x0D85
486: 0x0D82 [0x01] GOTO 0x0F66
487: 0x0D85 [0x03] ExtData[1]->WorkLocal[12] = Work_Zone[0]
488: 0x0D8A [0x0C] ExtData[1]->WorkLocal[12]--
489: 0x0D8D [0x03] Work_Zone[5] = ExtData[1]->WorkLocal[12]
490: 0x0D92 [0x02] IF !(ExtData[1]->WorkLocal[12] == 0*) GOTO 0x0DA2
491: 0x0D9A [0x03] Work_Zone[6] = 750*
492: 0x0D9F [0x01] GOTO 0x0E02
493: 0x0DA2 [0x02] IF !(ExtData[1]->WorkLocal[12] == 1*) GOTO 0x0DB2
494: 0x0DAA [0x03] Work_Zone[6] = 600*
495: 0x0DAF [0x01] GOTO 0x0E02
496: 0x0DB2 [0x02] IF !(ExtData[1]->WorkLocal[12] == 2*) GOTO 0x0DC2
497: 0x0DBA [0x03] Work_Zone[6] = 500*
498: 0x0DBF [0x01] GOTO 0x0E02
499: 0x0DC2 [0x02] IF !(ExtData[1]->WorkLocal[12] == 3*) GOTO 0x0DD2
500: 0x0DCA [0x03] Work_Zone[6] = 400*
501: 0x0DCF [0x01] GOTO 0x0E02
502: 0x0DD2 [0x02] IF !(ExtData[1]->WorkLocal[12] == 4*) GOTO 0x0DE2
503: 0x0DDA [0x03] Work_Zone[6] = 300*
504: 0x0DDF [0x01] GOTO 0x0E02
505: 0x0DE2 [0x02] IF !(ExtData[1]->WorkLocal[12] == 5*) GOTO 0x0DF2
506: 0x0DEA [0x03] Work_Zone[6] = 200*
507: 0x0DEF [0x01] GOTO 0x0E02
508: 0x0DF2 [0x02] IF !(ExtData[1]->WorkLocal[12] == 6*) GOTO 0x0E02
509: 0x0DFA [0x03] Work_Zone[6] = 100*
510: 0x0DFF [0x01] GOTO 0x0E02

SUBROUTINE_0E02:
511: 0x0E02 [0x1D] PRINT_EVENT_MESSAGE(message_id=12817*)
    → "Please note that teleportation to the Diorama will require a one-time fee of $4 gil."
512: 0x0E05 [0x23] WAIT_FOR_DIALOG_INTERACTION
513: 0x0E06 [0x41] ExtData[1]->WorkLocal[22] = Work_Zone[1] (bits 16*-31*)
514: 0x0E0F [0x02] IF !(ExtData[1]->WorkLocal[22] == 2*) GOTO 0x0E71
515: 0x0E17 [0x1D] PRINT_EVENT_MESSAGE(message_id=12818*)
    → "When you set a reservation comment, it will be reflected in your reservation status information."
516: 0x0E1A [0x23] WAIT_FOR_DIALOG_INTERACTION

SUBROUTINE_0E1B:
517: 0x0E1B [0x06] ExtData[1]->WorkLocal[13] = 0
518: 0x0E1E [0x24] CREATE_DIALOG(message_id=12819*, default_option=1*, option_flags=0*)
    → "Set a reservation comment? [Set to "Recruiting Members."/No thanks.]"
519: 0x0E25 [0x25] WAIT_DIALOG_SELECT()
520: 0x0E26 [0x02] IF !(Work_Zone[0] == 0*) GOTO 0x0E60
521: 0x0E2E [0x03] Work_Zone[8] = 5301*
522: 0x0E33 [0x1D] PRINT_EVENT_MESSAGE(message_id=12820*)
