# 17772595 - Harith

## Common Data

| Field            | Value                     |
|------------------|---------------------------|
| Zone             | Ru'Lude Gardens (ID: 243) |
| Block Size       | 788 bytes                 |
| Total Events     | 8                         |
| References Count | 35                        |

## List of Events

| Event ID              | Entrypoint   |   Size |   Instructions |
|-----------------------|--------------|--------|----------------|
| [65535](#event-65535) | 0x0000       |      1 |              1 |
| [111](#event-111)     | 0x0001       |     39 |              7 |
| [113](#event-113)     | 0x0028       |    166 |             34 |
| [114](#event-114)     | 0x00CE       |     51 |             15 |
| [108](#event-108)     | 0x0101       |     42 |             12 |
| [109](#event-109)     | 0x012B       |    166 |             27 |
| [112](#event-112)     | 0x01D1       |     28 |              8 |
| [110](#event-110)     | 0x01ED       |    105 |             23 |

## DAT References (imed_data)

|   Index | Hex Value   |   Dec Value |
|---------|-------------|-------------|
|       0 | 0x0000      |           0 |
|       1 | 0x31E7      |       12775 |
|       2 | 0x005A      |          90 |
|       3 | 0x31E8      |       12776 |
|       4 | 0x31E9      |       12777 |
|       5 | 0x31EA      |       12778 |
|       6 | 0x31EB      |       12779 |
|       7 | 0x0001      |           1 |
|       8 | 0x31ED      |       12781 |
|       9 | 0x31EE      |       12782 |
|      10 | 0x31EF      |       12783 |
|      11 | 0x31EC      |       12780 |
|      12 | 0x31F0      |       12784 |
|      13 | 0x31F1      |       12785 |
|      14 | 0x06DF      |        1759 |
|      15 | 0x06E0      |        1760 |
|      16 | 0x06E1      |        1761 |
|      17 | 0x31F2      |       12786 |
|      18 | 0x31F3      |       12787 |
|      19 | 0x31F4      |       12788 |
|      20 | 0x31F8      |       12792 |
|      21 | 0x00B4      |         180 |
|      22 | 0x00C8      |         200 |
|      23 | 0x0078      |         120 |
|      24 | 0x007F      |         127 |
|      25 | 0x012C      |         300 |
|      26 | 0x0014      |          20 |
|      27 | 0x31F9      |       12793 |
|      28 | 0x31FA      |       12794 |
|      29 | 0x00C9      |         201 |
|      30 | 0x31F6      |       12790 |
|      31 | 0x31F7      |       12791 |
|      32 | 0x4338      |       17208 |
|      33 | 0x443A      |       17466 |
|      34 | 0x3379      |       13177 |

## String References

- **12775**: ...Emptiness...... ......Possible weaknesses... Hmmm......
- **12776**: Greetings, adventurer. I am Harith, alchemist and member of a certain prestigious society here in Jeuno.
- **12777**: Perchance you have heard of creatures known as the Empty? Currently, other alchemists in the society are working feverishly on methods to manipulate these mysterious beasts.
- **12778**: Would you like me to continue?
- **12779**: Well...? [Please, go on./I'm busy at the moment.]
- **12780**: I apologize for taking up your valuable time. May fortune smile upon you in your journey.
- **12781**: The Empty are a cold and hollow species--their very existence a void of nothingness. They possess no feeling, no will, no purpose... It is this lack of characteristics that makes them powerful, as they have no known weaknesses.
- **12782**: However, deep within their dark shells we have discovered that something does exist--that "something" being a fragment of a memory lost in the pages of time.
- **12783**: If you happen to have the fortune of coming across one of these incomplete memories on your journeys, bring it to me and I shall purify it into a form known as "anima" using the methods discovered by the society.
- **12784**: By studying the various types of memories left by the Empty, we may be able to discover their strengths and weaknesses.
- **12785**: If you happen to have the fortune of coming across one of these incomplete memories on your journeys, bring it to me and I shall purify it into a form known as "anima" using the methods discovered by the society.
- **12786**: In addition to these memory fragments, we are also collecting $0, $1, and $2 to help us better understand how these creatures evolved. Worry not, as you will be duly rewarded for any and all contributions.
- **12787**: Yes... This is definitely the memory of one of the Empty--and in quite excellent condition, I must say.
- **12788**: I can synthesize it into a concentrated form of anima; however, I will require a small fee of $0 gil.
- **12790**: What a remarkable specimen! This $0 may be the key to unlocking the secrets of the Empty!
- **12791**: Here, please accept this as a token of my gratitude.
- **12792**: I will begin the synthesis right away. Please wait a few moments.
- **12793**: Ah, what a heavenly glow!
- **12794**: By throwing this anima back at the Empty, they will temporarily regain a splinter of consciousness. It is during this time that you may be able to find their weaknesses.

## Events

### Event 65535

#### Metadata

| Field        | Value   |
|--------------|---------|
| Entrypoint   | 0x0000  |
| Data Size    | 1 bytes |
| Instructions | 1       |

```
      00 01 02 03 04 05 06 07  08 09 0A 0B 0C 0D 0E 0F
      -- -- -- -- -- -- -- --  -- -- -- -- -- -- -- --
0000: 00                                                .               
```

#### Opcodes

```
  0: 0x0000 [0x00] END_REQSTACK()
```

### Event 111

#### Metadata

| Field        | Value    |
|--------------|----------|
| Entrypoint   | 0x0001   |
| Data Size    | 39 bytes |
| Instructions | 7        |

```
      00 01 02 03 04 05 06 07  08 09 0A 0B 0C 0D 0E 0F
      -- -- -- -- -- -- -- --  -- -- -- -- -- -- -- --
0000:    66 00 80 F8 FF FF 7F  F8 FF FF 7F 74 68 6B 31   f..........thk1
0010: 1D 01 80 23 66 00 80 F8  FF FF 7F F8 FF FF 7F 74  ...#f..........t
0020: 68 6B 32 1C 02 80 21 00                           hk2...!.        
```

#### Opcodes

```
  0: 0x0001 [0x66] LOAD_EXT_SCHEDULER_MAIN: Load scheduler "thk1" with entities [EventEntity, EventEntity], work=0*
  1: 0x0010 [0x1D] PRINT_EVENT_MESSAGE(message_id=12775*)
    → "...Emptiness...... ......Possible weaknesses... Hmmm......"
  2: 0x0013 [0x23] WAIT_FOR_DIALOG_INTERACTION
  3: 0x0014 [0x66] LOAD_EXT_SCHEDULER_MAIN: Load scheduler "thk2" with entities [EventEntity, EventEntity], work=0*
  4: 0x0023 [0x1C] WAIT(90* ticks)
  5: 0x0026 [0x21] END_EVENT
  6: 0x0027 [0x00] END_REQSTACK()
```

### Event 113

#### Metadata

| Field        | Value     |
|--------------|-----------|
| Entrypoint   | 0x0028    |
| Data Size    | 166 bytes |
| Instructions | 34        |

```
      00 01 02 03 04 05 06 07  08 09 0A 0B 0C 0D 0E 0F
      -- -- -- -- -- -- -- --  -- -- -- -- -- -- -- --
0020:                          1E F0 FF FF 7F 6F 70 06          .....op.
0030: 01 10 66 00 80 F8 FF FF  7F F8 FF FF 7F 74 6C 6B  ..f..........tlk
0040: 30 1D 03 80 23 1D 04 80  23 66 00 80 F8 FF FF 7F  0...#...#f......
0050: F8 FF FF 7F 74 68 6B 31  1D 05 80 23 24 06 80 07  ....thk1...#$...
0060: 80 00 80 25 02 00 10 00  80 00 AE 00 42 66 00 80  ...%........Bf..
0070: F8 FF FF 7F F8 FF FF 7F  74 68 6B 32 1D 08 80 23  ........thk2...#
0080: 66 00 80 F8 FF FF 7F F8  FF FF 7F 74 6C 6B 31 1D  f..........tlk1.
0090: 09 80 23 66 00 80 F8 FF  FF 7F F8 FF FF 7F 74 65  ..#f..........te
00A0: 6E 32 1D 0A 80 23 03 01  10 07 80 01 CC 00 02 00  n2...#..........
00B0: 10 07 80 00 CC 00 66 00  80 F8 FF FF 7F F8 FF FF  ......f.........
00C0: 7F 74 68 6B 32 1D 0B 80  23 01 CC 00 21 00        .thk2...#...!.  
```

#### Opcodes

```
  0: 0x0028 [0x1E] EventEntity looks at LocalPlayer and starts talking
  1: 0x002D [0x6F] WAIT_FRAME_DELAY: Yield until WaitTime reaches zero
  2: 0x002E [0x70] WAIT_ENTITY_RENDER_FLAG: Wait while EventEntity->Render.Flags3 bit 2 is set (cancel turn if not)
  3: 0x002F [0x06] Work_Zone[1] = 0
  4: 0x0032 [0x66] LOAD_EXT_SCHEDULER_MAIN: Load scheduler "tlk0" with entities [EventEntity, EventEntity], work=0*
  5: 0x0041 [0x1D] PRINT_EVENT_MESSAGE(message_id=12776*)
    → "Greetings, adventurer. I am Harith, alchemist and member of a certain prestigious society here in Jeuno."
  6: 0x0044 [0x23] WAIT_FOR_DIALOG_INTERACTION
  7: 0x0045 [0x1D] PRINT_EVENT_MESSAGE(message_id=12777*)
    → "Perchance you have heard of creatures known as the Empty? Currently, other alchemists in the society are working feverishly on methods to manipulate these mysterious beasts."
  8: 0x0048 [0x23] WAIT_FOR_DIALOG_INTERACTION
  9: 0x0049 [0x66] LOAD_EXT_SCHEDULER_MAIN: Load scheduler "thk1" with entities [EventEntity, EventEntity], work=0*
 10: 0x0058 [0x1D] PRINT_EVENT_MESSAGE(message_id=12778*)
    → "Would you like me to continue?"
 11: 0x005B [0x23] WAIT_FOR_DIALOG_INTERACTION
 12: 0x005C [0x24] CREATE_DIALOG(message_id=12779*, default_option=1*, option_flags=0*)
    → "Well...? [Please, go on./I'm busy at the moment.]"
 13: 0x0063 [0x25] WAIT_DIALOG_SELECT()
 14: 0x0064 [0x02] IF !(Work_Zone[0] == 0*) GOTO 0x00AE
 15: 0x006C [0x42] SET_CLI_EVENT_CANCEL_DATA()
 16: 0x006D [0x66] LOAD_EXT_SCHEDULER_MAIN: Load scheduler "thk2" with entities [EventEntity, EventEntity], work=0*
 17: 0x007C [0x1D] PRINT_EVENT_MESSAGE(message_id=12781*)
    → "The Empty are a cold and hollow species--their very existence a void of nothingness. They possess no feeling, no will, no purpose... It is this lack of characteristics that makes them powerful, as they have no known weaknesses."
 18: 0x007F [0x23] WAIT_FOR_DIALOG_INTERACTION
 19: 0x0080 [0x66] LOAD_EXT_SCHEDULER_MAIN: Load scheduler "tlk1" with entities [EventEntity, EventEntity], work=0*
 20: 0x008F [0x1D] PRINT_EVENT_MESSAGE(message_id=12782*)
    → "However, deep within their dark shells we have discovered that something does exist--that "something" being a fragment of a memory lost in the pages of time."
 21: 0x0092 [0x23] WAIT_FOR_DIALOG_INTERACTION
 22: 0x0093 [0x66] LOAD_EXT_SCHEDULER_MAIN: Load scheduler "ten2" with entities [EventEntity, EventEntity], work=0*
 23: 0x00A2 [0x1D] PRINT_EVENT_MESSAGE(message_id=12783*)
    → "If you happen to have the fortune of coming across one of these incomplete memories on your journeys, bring it to me and I shall purify it into a form known as "anima" using the methods discovered by the society."
 24: 0x00A5 [0x23] WAIT_FOR_DIALOG_INTERACTION
 25: 0x00A6 [0x03] Work_Zone[1] = 1*
 26: 0x00AB [0x01] GOTO 0x00CC
 27: 0x00AE [0x02] IF !(Work_Zone[0] == 1*) GOTO 0x00CC
 28: 0x00B6 [0x66] LOAD_EXT_SCHEDULER_MAIN: Load scheduler "thk2" with entities [EventEntity, EventEntity], work=0*
 29: 0x00C5 [0x1D] PRINT_EVENT_MESSAGE(message_id=12780*)
    → "I apologize for taking up your valuable time. May fortune smile upon you in your journey."
 30: 0x00C8 [0x23] WAIT_FOR_DIALOG_INTERACTION
 31: 0x00C9 [0x01] GOTO 0x00CC

SUBROUTINE_00CC:
 32: 0x00CC [0x21] END_EVENT
 33: 0x00CD [0x00] END_REQSTACK()
```

### Event 114

#### Metadata

| Field        | Value    |
|--------------|----------|
| Entrypoint   | 0x00CE   |
| Data Size    | 51 bytes |
| Instructions | 15       |

```
      00 01 02 03 04 05 06 07  08 09 0A 0B 0C 0D 0E 0F
      -- -- -- -- -- -- -- --  -- -- -- -- -- -- -- --
00C0:                                            1E F0                ..
00D0: FF FF 7F 6F 70 66 00 80  F8 FF FF 7F F8 FF FF 7F  ...opf..........
00E0: 74 6C 6B 30 1D 0C 80 23  1D 0D 80 23 03 02 10 0E  tlk0...#...#....
00F0: 80 03 03 10 0F 80 03 04  10 10 80 1D 11 80 23 21  ..............#!
0100: 00                                                .               
```

#### Opcodes

```
  0: 0x00CE [0x1E] EventEntity looks at LocalPlayer and starts talking
  1: 0x00D3 [0x6F] WAIT_FRAME_DELAY: Yield until WaitTime reaches zero
  2: 0x00D4 [0x70] WAIT_ENTITY_RENDER_FLAG: Wait while EventEntity->Render.Flags3 bit 2 is set (cancel turn if not)
  3: 0x00D5 [0x66] LOAD_EXT_SCHEDULER_MAIN: Load scheduler "tlk0" with entities [EventEntity, EventEntity], work=0*
  4: 0x00E4 [0x1D] PRINT_EVENT_MESSAGE(message_id=12784*)
    → "By studying the various types of memories left by the Empty, we may be able to discover their strengths and weaknesses."
  5: 0x00E7 [0x23] WAIT_FOR_DIALOG_INTERACTION
  6: 0x00E8 [0x1D] PRINT_EVENT_MESSAGE(message_id=12785*)
    → "If you happen to have the fortune of coming across one of these incomplete memories on your journeys, bring it to me and I shall purify it into a form known as "anima" using the methods discovered by the society."
  7: 0x00EB [0x23] WAIT_FOR_DIALOG_INTERACTION
  8: 0x00EC [0x03] Work_Zone[2] = 1759*
  9: 0x00F1 [0x03] Work_Zone[3] = 1760*
 10: 0x00F6 [0x03] Work_Zone[4] = 1761*
 11: 0x00FB [0x1D] PRINT_EVENT_MESSAGE(message_id=12786*)
    → "In addition to these memory fragments, we are also collecting $0, $1, and $2 to help us better understand how these creatures evolved. Worry not, as you will be duly rewarded for any and all contributions."
 12: 0x00FE [0x23] WAIT_FOR_DIALOG_INTERACTION
 13: 0x00FF [0x21] END_EVENT
 14: 0x0100 [0x00] END_REQSTACK()
```

### Event 108

#### Metadata

| Field        | Value    |
|--------------|----------|
| Entrypoint   | 0x0101   |
| Data Size    | 42 bytes |
| Instructions | 12       |

```
      00 01 02 03 04 05 06 07  08 09 0A 0B 0C 0D 0E 0F
      -- -- -- -- -- -- -- --  -- -- -- -- -- -- -- --
0100:    03 00 00 02 10 1E F0  FF FF 7F 6F 70 66 00 80   ..........opf..
0110: F8 FF FF 7F F8 FF FF 7F  74 6C 6B 31 1D 12 80 23  ........tlk1...#
0120: 03 02 10 00 00 1D 13 80  23 21 00                 ........#!.     
```

#### Opcodes

```
  0: 0x0101 [0x03] ExtData[1]->WorkLocal[0] = Work_Zone[2]
  1: 0x0106 [0x1E] EventEntity looks at LocalPlayer and starts talking
  2: 0x010B [0x6F] WAIT_FRAME_DELAY: Yield until WaitTime reaches zero
  3: 0x010C [0x70] WAIT_ENTITY_RENDER_FLAG: Wait while EventEntity->Render.Flags3 bit 2 is set (cancel turn if not)
  4: 0x010D [0x66] LOAD_EXT_SCHEDULER_MAIN: Load scheduler "tlk1" with entities [EventEntity, EventEntity], work=0*
  5: 0x011C [0x1D] PRINT_EVENT_MESSAGE(message_id=12787*)
    → "Yes... This is definitely the memory of one of the Empty--and in quite excellent condition, I must say."
  6: 0x011F [0x23] WAIT_FOR_DIALOG_INTERACTION
  7: 0x0120 [0x03] Work_Zone[2] = ExtData[1]->WorkLocal[0]
  8: 0x0125 [0x1D] PRINT_EVENT_MESSAGE(message_id=12788*)
    → "I can synthesize it into a concentrated form of anima; however, I will require a small fee of $0 gil."
  9: 0x0128 [0x23] WAIT_FOR_DIALOG_INTERACTION
 10: 0x0129 [0x21] END_EVENT
 11: 0x012A [0x00] END_REQSTACK()
```

### Event 109

#### Metadata

| Field        | Value     |
|--------------|-----------|
| Entrypoint   | 0x012B    |
| Data Size    | 166 bytes |
| Instructions | 27        |

```
      00 01 02 03 04 05 06 07  08 09 0A 0B 0C 0D 0E 0F
      -- -- -- -- -- -- -- --  -- -- -- -- -- -- -- --
0120:                                   20 01 42 1E F0              .B..
0130: FF FF 7F 6F 70 66 00 80  F8 FF FF 7F F8 FF FF 7F  ...opf..........
0140: 74 6C 6B 30 1D 14 80 23  5D 00 80 15 80 45 16 80  tlk0...#]....E..
0150: F0 FF FF 7F F0 FF FF 7F  66 64 6F 32 00 80 1C 17  ........fdo2....
0160: 80 55 16 80 F0 FF FF 7F  F0 FF FF 7F 66 64 6F 32  .U..........fdo2
0170: 1C 15 80 6B 69 64 6C 30  33 30 0F 01 5D 18 80 19  ...kidl030..]...
0180: 80 1C 15 80 45 16 80 F0  FF FF 7F F0 FF FF 7F 66  ....E..........f
0190: 64 69 32 00 80 1C 1A 80  66 00 80 F8 FF FF 7F F8  di2.....f.......
01A0: FF FF 7F 70 61 73 30 55  16 80 F0 FF FF 7F F0 FF  ...pas0U........
01B0: FF 7F 66 64 69 32 1D 1B  80 23 1D 1C 80 23 45 1D  ..fdi2...#...#E.
01C0: 80 F0 FF FF 7F F0 FF FF  7F 71 73 74 63 00 80 21  .........qstc..!
01D0: 00                                                .               
```

#### Opcodes

```
  0: 0x012B [0x20] SET_CLI_EVENT_UC_FLAG: Lock player control
  1: 0x012D [0x42] SET_CLI_EVENT_CANCEL_DATA()
  2: 0x012E [0x1E] EventEntity looks at LocalPlayer and starts talking
  3: 0x0133 [0x6F] WAIT_FRAME_DELAY: Yield until WaitTime reaches zero
  4: 0x0134 [0x70] WAIT_ENTITY_RENDER_FLAG: Wait while EventEntity->Render.Flags3 bit 2 is set (cancel turn if not)
  5: 0x0135 [0x66] LOAD_EXT_SCHEDULER_MAIN: Load scheduler "tlk0" with entities [EventEntity, EventEntity], work=0*
  6: 0x0144 [0x1D] PRINT_EVENT_MESSAGE(message_id=12792*)
    → "I will begin the synthesis right away. Please wait a few moments."
  7: 0x0147 [0x23] WAIT_FOR_DIALOG_INTERACTION
  8: 0x0148 [0x5D] SET_MUSIC_VOLUME(volume=0*, fade_time=180*)
  9: 0x014D [0x45] LOAD_SCHEDULED_TASK: Load scheduler "fdo2" with entities [LocalPlayer, LocalPlayer], work=[200*, 0*]
 10: 0x015E [0x1C] WAIT(120* ticks)
 11: 0x0161 [0x55] WAIT_LOAD_SCHEDULER: Wait for scheduler "fdo2" with entities [LocalPlayer, LocalPlayer], work=200*
 12: 0x0170 [0x1C] WAIT(180* ticks)
 13: 0x0173 [0x6B] STOP_AND_IDLE: Harith (ID: 17772595/0x010F3033) stops current action and resets to idle (animation="idl0")
 14: 0x017C [0x5D] SET_MUSIC_VOLUME(volume=127*, fade_time=300*)
 15: 0x0181 [0x1C] WAIT(180* ticks)
 16: 0x0184 [0x45] LOAD_SCHEDULED_TASK: Load scheduler "fdi2" with entities [LocalPlayer, LocalPlayer], work=[200*, 0*]
 17: 0x0195 [0x1C] WAIT(20* ticks)
 18: 0x0198 [0x66] LOAD_EXT_SCHEDULER_MAIN: Load scheduler "pas0" with entities [EventEntity, EventEntity], work=0*
 19: 0x01A7 [0x55] WAIT_LOAD_SCHEDULER: Wait for scheduler "fdi2" with entities [LocalPlayer, LocalPlayer], work=200*
 20: 0x01B6 [0x1D] PRINT_EVENT_MESSAGE(message_id=12793*)
    → "Ah, what a heavenly glow!"
 21: 0x01B9 [0x23] WAIT_FOR_DIALOG_INTERACTION
 22: 0x01BA [0x1D] PRINT_EVENT_MESSAGE(message_id=12794*)
    → "By throwing this anima back at the Empty, they will temporarily regain a splinter of consciousness. It is during this time that you may be able to find their weaknesses."
 23: 0x01BD [0x23] WAIT_FOR_DIALOG_INTERACTION
 24: 0x01BE [0x45] LOAD_SCHEDULED_TASK: Load scheduler "qstc" with entities [LocalPlayer, LocalPlayer], work=[201*, 0*]
 25: 0x01CF [0x21] END_EVENT
 26: 0x01D0 [0x00] END_REQSTACK()
```

### Event 112

#### Metadata

| Field        | Value    |
|--------------|----------|
| Entrypoint   | 0x01D1   |
| Data Size    | 28 bytes |
| Instructions | 8        |

```
      00 01 02 03 04 05 06 07  08 09 0A 0B 0C 0D 0E 0F
      -- -- -- -- -- -- -- --  -- -- -- -- -- -- -- --
01D0:    1E F0 FF FF 7F 6F 70  66 00 80 F8 FF FF 7F F8   .....opf.......
01E0: FF FF 7F 74 6C 6B 30 1D  1C 80 23 21 00           ...tlk0...#!.   
```

#### Opcodes

```
  0: 0x01D1 [0x1E] EventEntity looks at LocalPlayer and starts talking
  1: 0x01D6 [0x6F] WAIT_FRAME_DELAY: Yield until WaitTime reaches zero
  2: 0x01D7 [0x70] WAIT_ENTITY_RENDER_FLAG: Wait while EventEntity->Render.Flags3 bit 2 is set (cancel turn if not)
  3: 0x01D8 [0x66] LOAD_EXT_SCHEDULER_MAIN: Load scheduler "tlk0" with entities [EventEntity, EventEntity], work=0*
  4: 0x01E7 [0x1D] PRINT_EVENT_MESSAGE(message_id=12794*)
    → "By throwing this anima back at the Empty, they will temporarily regain a splinter of consciousness. It is during this time that you may be able to find their weaknesses."
  5: 0x01EA [0x23] WAIT_FOR_DIALOG_INTERACTION
  6: 0x01EB [0x21] END_EVENT
  7: 0x01EC [0x00] END_REQSTACK()
```

### Event 110

#### Metadata

| Field        | Value     |
|--------------|-----------|
| Entrypoint   | 0x01ED    |
| Data Size    | 105 bytes |
| Instructions | 23        |

```
      00 01 02 03 04 05 06 07  08 09 0A 0B 0C 0D 0E 0F
      -- -- -- -- -- -- -- --  -- -- -- -- -- -- -- --
01E0:                                         20 01 42                .B
01F0: 1E F0 FF FF 7F 6F 70 66  00 80 F8 FF FF 7F F8 FF  .....opf........
0200: FF 7F 74 6C 6B 30 1D 1E  80 23 1D 1F 80 23 02 02  ..tlk0...#...#..
0210: 10 0E 80 80 1E 02 03 02  10 20 80 01 3E 02 02 02  ......... ..>...
0220: 10 0F 80 80 2E 02 03 02  10 21 80 01 3E 02 02 02  .........!..>...
0230: 10 10 80 80 3E 02 03 02  10 22 80 01 3E 02 45 1D  ....>...."..>.E.
0240: 80 F0 FF FF 7F F0 FF FF  7F 71 73 74 63 00 80 03  .........qstc...
0250: 01 10 02 10 21 00                                 ....!.          
```

#### Opcodes

```
  0: 0x01ED [0x20] SET_CLI_EVENT_UC_FLAG: Lock player control
  1: 0x01EF [0x42] SET_CLI_EVENT_CANCEL_DATA()
  2: 0x01F0 [0x1E] EventEntity looks at LocalPlayer and starts talking
  3: 0x01F5 [0x6F] WAIT_FRAME_DELAY: Yield until WaitTime reaches zero
  4: 0x01F6 [0x70] WAIT_ENTITY_RENDER_FLAG: Wait while EventEntity->Render.Flags3 bit 2 is set (cancel turn if not)
  5: 0x01F7 [0x66] LOAD_EXT_SCHEDULER_MAIN: Load scheduler "tlk0" with entities [EventEntity, EventEntity], work=0*
  6: 0x0206 [0x1D] PRINT_EVENT_MESSAGE(message_id=12790*)
    → "What a remarkable specimen! This $0 may be the key to unlocking the secrets of the Empty!"
  7: 0x0209 [0x23] WAIT_FOR_DIALOG_INTERACTION
  8: 0x020A [0x1D] PRINT_EVENT_MESSAGE(message_id=12791*)
    → "Here, please accept this as a token of my gratitude."
  9: 0x020D [0x23] WAIT_FOR_DIALOG_INTERACTION
 10: 0x020E [0x02] IF !(Work_Zone[2] == 1759*) GOTO 0x021E
 11: 0x0216 [0x03] Work_Zone[2] = 17208*
 12: 0x021B [0x01] GOTO 0x023E
 13: 0x021E [0x02] IF !(Work_Zone[2] == 1760*) GOTO 0x022E
 14: 0x0226 [0x03] Work_Zone[2] = 17466*
 15: 0x022B [0x01] GOTO 0x023E
 16: 0x022E [0x02] IF !(Work_Zone[2] == 1761*) GOTO 0x023E
 17: 0x0236 [0x03] Work_Zone[2] = 13177*
 18: 0x023B [0x01] GOTO 0x023E

SUBROUTINE_023E:
 19: 0x023E [0x45] LOAD_SCHEDULED_TASK: Load scheduler "qstc" with entities [LocalPlayer, LocalPlayer], work=[201*, 0*]
 20: 0x024F [0x03] Work_Zone[1] = Work_Zone[2]
 21: 0x0254 [0x21] END_EVENT
 22: 0x0255 [0x00] END_REQSTACK()
```
