# 17772600 - Lion

## Common Data

| Field            | Value                     |
|------------------|---------------------------|
| Zone             | Ru'Lude Gardens (ID: 243) |
| Block Size       | 940 bytes                 |
| Total Events     | 38                        |
| References Count | 56                        |

## List of Events

| Event ID                   | Entrypoint   |   Size |   Instructions |
|----------------------------|--------------|--------|----------------|
| [65535](#event-65535)      | 0x0000       |      1 |              1 |
| [10008](#event-10008)      | 0x0001       |      1 |              1 |
| [65535.1](#event-655351)   | 0x0002       |      1 |              1 |
| [65535.2](#event-655352)   | 0x0003       |     18 |              4 |
| [65535.3](#event-655353)   | 0x0015       |     14 |              4 |
| [65535.4](#event-655354)   | 0x0023       |     19 |              4 |
| [65535.5](#event-655355)   | 0x0036       |     11 |              2 |
| [65535.6](#event-655356)   | 0x0041       |     16 |              3 |
| [65535.7](#event-655357)   | 0x0051       |      5 |              3 |
| [65535.8](#event-655358)   | 0x0056       |     51 |             11 |
| [10009](#event-10009)      | 0x0089       |      1 |              1 |
| [65535.9](#event-655359)   | 0x008A       |     25 |              6 |
| [65535.10](#event-6553510) | 0x00A3       |     14 |              4 |
| [65535.11](#event-6553511) | 0x00B1       |     14 |              4 |
| [65535.12](#event-6553512) | 0x00BF       |     16 |              2 |
| [65535.13](#event-6553513) | 0x00CF       |     14 |              2 |
| [65535.14](#event-6553514) | 0x00DD       |     16 |              2 |
| [65535.15](#event-6553515) | 0x00ED       |     14 |              2 |
| [65535.16](#event-6553516) | 0x00FB       |     22 |              3 |
| [65535.17](#event-6553517) | 0x0111       |     14 |              2 |
| [65535.18](#event-6553518) | 0x011F       |     16 |              2 |
| [65535.19](#event-6553519) | 0x012F       |     20 |              3 |
| [65535.20](#event-6553520) | 0x0143       |     22 |              3 |
| [65535.21](#event-6553521) | 0x0159       |     20 |              3 |
| [65535.22](#event-6553522) | 0x016D       |      9 |              3 |
| [65535.23](#event-6553523) | 0x0176       |      1 |              1 |
| [65535.24](#event-6553524) | 0x0177       |      1 |              1 |
| [10010](#event-10010)      | 0x0178       |      1 |              1 |
| [65535.25](#event-6553525) | 0x0179       |     14 |              4 |
| [65535.26](#event-6553526) | 0x0187       |     29 |              6 |
| [65535.27](#event-6553527) | 0x01A4       |     13 |              3 |
| [65535.28](#event-6553528) | 0x01B1       |     14 |              4 |
| [65535.29](#event-6553529) | 0x01BF       |     14 |              4 |
| [65535.30](#event-6553530) | 0x01CD       |      5 |              3 |
| [65535.31](#event-6553531) | 0x01D2       |     33 |              7 |
| [65535.32](#event-6553532) | 0x01F3       |      5 |              3 |
| [65535.33](#event-6553533) | 0x01F8       |     37 |              9 |
| [65535.34](#event-6553534) | 0x021D       |      5 |              3 |

## DAT References (imed_data)

|   Index | Hex Value   |   Dec Value |
|---------|-------------|-------------|
|       0 | 0xFFFD9860  |  4294809696 |
|       1 | 0xFFFFF04E  |  4294963278 |
|       2 | 0xFFFFE245  |  4294959685 |
|       3 | 0x0B6E      |        2926 |
|       4 | 0x000D      |          13 |
|       5 | 0xFFFD9077  |  4294807671 |
|       6 | 0x112B      |        4395 |
|       7 | 0xFFFFE2AC  |  4294959788 |
|       8 | 0x003C      |          60 |
|       9 | 0x2ABC      |       10940 |
|      10 | 0x2ABD      |       10941 |
|      11 | 0x00C8      |         200 |
|      12 | 0x0000      |           0 |
|      13 | 0xFFFD97E0  |  4294809568 |
|      14 | 0xFFFFF411  |  4294964241 |
|      15 | 0xFFFFE27E  |  4294959742 |
|      16 | 0x3706      |       14086 |
|      17 | 0xFFFED21D  |  4294890013 |
|      18 | 0x6551      |       25937 |
|      19 | 0x05E1      |        1505 |
|      20 | 0x2FF6      |       12278 |
|      21 | 0xFFFEC774  |  4294887284 |
|      22 | 0x0028      |          40 |
|      23 | 0x30FE      |       12542 |
|      24 | 0xFFFEC07F  |  4294885503 |
|      25 | 0x2E99      |       11929 |
|      26 | 0xFFFED57C  |  4294890876 |
|      27 | 0x6409      |       25609 |
|      28 | 0x0060      |          96 |
|      29 | 0x005F      |          95 |
|      30 | 0x001E      |          30 |
|      31 | 0xFFFAB410  |  4294620176 |
|      32 | 0xA4B1      |       42161 |
|      33 | 0x6283      |       25219 |
|      34 | 0xFFFAC6FA  |  4294625018 |
|      35 | 0x93E4      |       37860 |
|      36 | 0x62A1      |       25249 |
|      37 | 0x0ACC      |        2764 |
|      38 | 0xFFFAC293  |  4294623891 |
|      39 | 0xA20A      |       41482 |
|      40 | 0x0050      |          80 |
|      41 | 0xFFFAB284  |  4294619780 |
|      42 | 0xA6D9      |       42713 |
|      43 | 0x6248      |       25160 |
|      44 | 0x08FD      |        2301 |
|      45 | 0xFFFAA280  |  4294615680 |
|      46 | 0xACE4      |       44260 |
|      47 | 0xFFFA7827  |  4294604839 |
|      48 | 0xB27B      |       45691 |
|      49 | 0x5F0B      |       24331 |
|      50 | 0x2AF4      |       10996 |
|      51 | 0x2AF6      |       10998 |
|      52 | 0x2AF9      |       11001 |
|      53 | 0x2AFC      |       11004 |
|      54 | 0x2AFD      |       11005 |
|      55 | 0x2AFE      |       11006 |

## String References

- **10940**: The Shadow Lord? It can't be! His powers have returned!
- **10941**: Then it is true! The beastmen are trying to resurrect the Shadow Lord.
- **10996**: So, that's what magicite looks like.
- **10998**: What the...!?
- **11001**: Who are you!?
- **11004**: Was that a phantom? An image...of the Shadow Lord?
- **11005**: The Shadow Lord? It can't be! His powers can't have returned!
- **11006**: Then it is true. The beastmen are trying to bring the Shadow Lord back.

## Events

### Event 65535

#### Metadata

| Field        | Value   |
|--------------|---------|
| Entrypoint   | 0x0000  |
| Data Size    | 1 bytes |
| Instructions | 1       |

```
      00 01 02 03 04 05 06 07  08 09 0A 0B 0C 0D 0E 0F
      -- -- -- -- -- -- -- --  -- -- -- -- -- -- -- --
0000: 00                                                .               
```

#### Opcodes

```
  0: 0x0000 [0x00] END_REQSTACK()
```

### Event 10008

#### Metadata

| Field        | Value   |
|--------------|---------|
| Entrypoint   | 0x0001  |
| Data Size    | 1 bytes |
| Instructions | 1       |

```
      00 01 02 03 04 05 06 07  08 09 0A 0B 0C 0D 0E 0F
      -- -- -- -- -- -- -- --  -- -- -- -- -- -- -- --
0000:    00                                              .              
```

#### Opcodes

```
  0: 0x0001 [0x00] END_REQSTACK()
```

### Event 65535.1

#### Metadata

| Field        | Value   |
|--------------|---------|
| Entrypoint   | 0x0002  |
| Data Size    | 1 bytes |
| Instructions | 1       |

```
      00 01 02 03 04 05 06 07  08 09 0A 0B 0C 0D 0E 0F
      -- -- -- -- -- -- -- --  -- -- -- -- -- -- -- --
0000:       00                                            .             
```

#### Opcodes

```
  0: 0x0002 [0x00] END_REQSTACK()
```

### Event 65535.2

#### Metadata

| Field        | Value    |
|--------------|----------|
| Entrypoint   | 0x0003   |
| Data Size    | 18 bytes |
| Instructions | 4        |

```
      00 01 02 03 04 05 06 07  08 09 0A 0B 0C 0D 0E 0F
      -- -- -- -- -- -- -- --  -- -- -- -- -- -- -- --
0000:          2F 00 38 30 0F  01 22 00 37 00 80 01 80     /.80..".7....
0010: 02 80 03 80 00                                    .....           
```

#### Opcodes

```
  0: 0x0003 [0x2F] Lion (ID: 17772600/0x010F3038)->Render.Flags0 &= ~0x80000 // Bit 19
  1: 0x0009 [0x22] ENTITY_HIDE_FLAG(enabled=0x00)
  2: 0x000B [0x37] UPDATE_EVENT_POSITION_AND_DIR: x=-157.600*, z=-4.018*, y=-7.611*, direction=257.2°*
  3: 0x0014 [0x00] END_REQSTACK()
```

### Event 65535.3

#### Metadata

| Field        | Value    |
|--------------|----------|
| Entrypoint   | 0x0015   |
| Data Size    | 14 bytes |
| Instructions | 4        |

```
      00 01 02 03 04 05 06 07  08 09 0A 0B 0C 0D 0E 0F
      -- -- -- -- -- -- -- --  -- -- -- -- -- -- -- --
0010:                32 04 80  1F 00 05 80 06 80 07 80       2..........
0020: 1F 01 00                                          ...             
```

#### Opcodes

```
  0: 0x0015 [0x32] ExtData[1]->MainSpeed = 13* * 0.1
  1: 0x0018 [0x1F] MOVE_ENTITY: EventEntity moves to X=-159.625*, Z=4.395*, Y=-7.508*
  2: 0x0020 [0x1F] MOVE_ENTITY: Update entity position (mode=1)
  3: 0x0022 [0x00] END_REQSTACK()
```

### Event 65535.4

#### Metadata

| Field        | Value    |
|--------------|----------|
| Entrypoint   | 0x0023   |
| Data Size    | 19 bytes |
| Instructions | 4        |

```
      00 01 02 03 04 05 06 07  08 09 0A 0B 0C 0D 0E 0F
      -- -- -- -- -- -- -- --  -- -- -- -- -- -- -- --
0020:          79 00 38 30 0F  01 3A 30 0F 01 1C 08 80     y.80..:0.....
0030: 7B 38 30 0F 01 00                                 {80...          
```

#### Opcodes

```
  0: 0x0023 [0x79] Lion (ID: 17772600/0x010F3038) looks at Unnamed NPC (ID: 17772602/0x010F303A) (Basic look)
  1: 0x002D [0x1C] WAIT(60* ticks)
  2: 0x0030 [0x7B] Lion (ID: 17772600/0x010F3038) stops talking
  3: 0x0035 [0x00] END_REQSTACK()
```

### Event 65535.5

#### Metadata

| Field        | Value    |
|--------------|----------|
| Entrypoint   | 0x0036   |
| Data Size    | 11 bytes |
| Instructions | 2        |

```
      00 01 02 03 04 05 06 07  08 09 0A 0B 0C 0D 0E 0F
      -- -- -- -- -- -- -- --  -- -- -- -- -- -- -- --
0030:                   79 00  38 30 0F 01 37 30 0F 01        y.80..70..
0040: 00                                                .               
```

#### Opcodes

```
  0: 0x0036 [0x79] Lion (ID: 17772600/0x010F3038) looks at Magicite (ID: 17772599/0x010F3037) (Basic look)
  1: 0x0040 [0x00] END_REQSTACK()
```

### Event 65535.6

#### Metadata

| Field        | Value    |
|--------------|----------|
| Entrypoint   | 0x0041   |
| Data Size    | 16 bytes |
| Instructions | 3        |

```
      00 01 02 03 04 05 06 07  08 09 0A 0B 0C 0D 0E 0F
      -- -- -- -- -- -- -- --  -- -- -- -- -- -- -- --
0040:    1E 39 30 0F 01 79 00  38 30 0F 01 39 30 0F 01   .90..y.80..90..
0050: 00                                                .               
```

#### Opcodes

```
  0: 0x0041 [0x1E] EventEntity looks at Shadow of Darkness (ID: 17772601/0x010F3039) and starts talking
  1: 0x0046 [0x79] Lion (ID: 17772600/0x010F3038) looks at Shadow of Darkness (ID: 17772601/0x010F3039) (Basic look)
  2: 0x0050 [0x00] END_REQSTACK()
```

### Event 65535.7

#### Metadata

| Field        | Value   |
|--------------|---------|
| Entrypoint   | 0x0051  |
| Data Size    | 5 bytes |
| Instructions | 3       |

```
      00 01 02 03 04 05 06 07  08 09 0A 0B 0C 0D 0E 0F
      -- -- -- -- -- -- -- --  -- -- -- -- -- -- -- --
0050:    1D 09 80 23 00                                  ...#.          
```

#### Opcodes

```
  0: 0x0051 [0x1D] PRINT_EVENT_MESSAGE(message_id=10940*)
    → "The Shadow Lord? It can't be! His powers have returned!"
  1: 0x0054 [0x23] WAIT_FOR_DIALOG_INTERACTION
  2: 0x0055 [0x00] END_REQSTACK()
```

### Event 65535.8

#### Metadata

| Field        | Value    |
|--------------|----------|
| Entrypoint   | 0x0056   |
| Data Size    | 51 bytes |
| Instructions | 11       |

```
      00 01 02 03 04 05 06 07  08 09 0A 0B 0C 0D 0E 0F
      -- -- -- -- -- -- -- --  -- -- -- -- -- -- -- --
0050:                   1E F0  FF FF 7F 1C 08 80 1D 0A        ..........
0060: 80 23 1C 08 80 45 0B 80  F8 FF FF 7F F8 FF FF 7F  .#...E..........
0070: 66 64 6F 31 0C 80 1F 00  0D 80 0E 80 0F 80 1F 01  fdo1............
0080: 2F 01 38 30 0F 01 22 01  00                       /.80.."..       
```

#### Opcodes

```
  0: 0x0056 [0x1E] EventEntity looks at LocalPlayer and starts talking
  1: 0x005B [0x1C] WAIT(60* ticks)
  2: 0x005E [0x1D] PRINT_EVENT_MESSAGE(message_id=10941*)
    → "Then it is true! The beastmen are trying to resurrect the Shadow Lord."
  3: 0x0061 [0x23] WAIT_FOR_DIALOG_INTERACTION
  4: 0x0062 [0x1C] WAIT(60* ticks)
  5: 0x0065 [0x45] LOAD_SCHEDULED_TASK: Load scheduler "fdo1" with entities [EventEntity, EventEntity], work=[200*, 0*]
  6: 0x0076 [0x1F] MOVE_ENTITY: EventEntity moves to X=-157.728*, Z=-3.055*, Y=-7.554*
  7: 0x007E [0x1F] MOVE_ENTITY: Update entity position (mode=1)
  8: 0x0080 [0x2F] Lion (ID: 17772600/0x010F3038)->Render.Flags0 |= 0x80000 // Bit 19
  9: 0x0086 [0x22] ENTITY_HIDE_FLAG(enabled=0x01)
 10: 0x0088 [0x00] END_REQSTACK()
```

### Event 10009

#### Metadata

| Field        | Value   |
|--------------|---------|
| Entrypoint   | 0x0089  |
| Data Size    | 1 bytes |
| Instructions | 1       |

```
      00 01 02 03 04 05 06 07  08 09 0A 0B 0C 0D 0E 0F
      -- -- -- -- -- -- -- --  -- -- -- -- -- -- -- --
0080:                             00                             .      
```

#### Opcodes

```
  0: 0x0089 [0x00] END_REQSTACK()
```

### Event 65535.9

#### Metadata

| Field        | Value    |
|--------------|----------|
| Entrypoint   | 0x008A   |
| Data Size    | 25 bytes |
| Instructions | 6        |

```
      00 01 02 03 04 05 06 07  08 09 0A 0B 0C 0D 0E 0F
      -- -- -- -- -- -- -- --  -- -- -- -- -- -- -- --
0080:                                22 00 32 04 80 37            ".2..7
0090: 10 80 11 80 12 80 13 80  1F 00 14 80 15 80 12 80  ................
00A0: 1F 01 00                                          ...             
```

#### Opcodes

```
  0: 0x008A [0x22] ENTITY_HIDE_FLAG(enabled=0x00)
  1: 0x008C [0x32] ExtData[1]->MainSpeed = 13* * 0.1
  2: 0x008F [0x37] UPDATE_EVENT_POSITION_AND_DIR: x=14.086*, z=-77.283*, y=25.937*, direction=132.3°*
  3: 0x0098 [0x1F] MOVE_ENTITY: EventEntity moves to X=12.278*, Z=-80.012*, Y=25.937*
  4: 0x00A0 [0x1F] MOVE_ENTITY: Update entity position (mode=1)
  5: 0x00A2 [0x00] END_REQSTACK()
```

### Event 65535.10

#### Metadata

| Field        | Value    |
|--------------|----------|
| Entrypoint   | 0x00A3   |
| Data Size    | 14 bytes |
| Instructions | 4        |

```
      00 01 02 03 04 05 06 07  08 09 0A 0B 0C 0D 0E 0F
      -- -- -- -- -- -- -- --  -- -- -- -- -- -- -- --
00A0:          32 16 80 1F 00  17 80 18 80 12 80 1F 01     2............
00B0: 00                                                .               
```

#### Opcodes

```
  0: 0x00A3 [0x32] ExtData[1]->MainSpeed = 40* * 0.1
  1: 0x00A6 [0x1F] MOVE_ENTITY: EventEntity moves to X=12.542*, Z=-81.793*, Y=25.937*
  2: 0x00AE [0x1F] MOVE_ENTITY: Update entity position (mode=1)
  3: 0x00B0 [0x00] END_REQSTACK()
```

### Event 65535.11

#### Metadata

| Field        | Value    |
|--------------|----------|
| Entrypoint   | 0x00B1   |
| Data Size    | 14 bytes |
| Instructions | 4        |

```
      00 01 02 03 04 05 06 07  08 09 0A 0B 0C 0D 0E 0F
      -- -- -- -- -- -- -- --  -- -- -- -- -- -- -- --
00B0:    32 04 80 1F 00 19 80  1A 80 1B 80 1F 01 00      2............. 
```

#### Opcodes

```
  0: 0x00B1 [0x32] ExtData[1]->MainSpeed = 13* * 0.1
  1: 0x00B4 [0x1F] MOVE_ENTITY: EventEntity moves to X=11.929*, Z=-76.420*, Y=25.609*
  2: 0x00BC [0x1F] MOVE_ENTITY: Update entity position (mode=1)
  3: 0x00BE [0x00] END_REQSTACK()
```

### Event 65535.12

#### Metadata

| Field        | Value    |
|--------------|----------|
| Entrypoint   | 0x00BF   |
| Data Size    | 16 bytes |
| Instructions | 2        |

```
      00 01 02 03 04 05 06 07  08 09 0A 0B 0C 0D 0E 0F
      -- -- -- -- -- -- -- --  -- -- -- -- -- -- -- --
00B0:                                               5B                 [
00C0: 1C 80 F8 FF FF 7F F8 FF  FF 7F 74 6C 63 30 00     ..........tlc0. 
```

#### Opcodes

```
  0: 0x00BF [0x5B] LOAD_EXT_SCHEDULER: Load scheduler "tlc0" with entities [EventEntity, EventEntity], work=96*
  1: 0x00CE [0x00] END_REQSTACK()
```

### Event 65535.13

#### Metadata

| Field        | Value    |
|--------------|----------|
| Entrypoint   | 0x00CF   |
| Data Size    | 14 bytes |
| Instructions | 2        |

```
      00 01 02 03 04 05 06 07  08 09 0A 0B 0C 0D 0E 0F
      -- -- -- -- -- -- -- --  -- -- -- -- -- -- -- --
00C0:                                               53                 S
00D0: F8 FF FF 7F F8 FF FF 7F  74 6C 63 30 00           ........tlc0.   
```

#### Opcodes

```
  0: 0x00CF [0x53] WAIT_SCHEDULER_TASK: Wait for scheduler "tlc0" with entities [EventEntity, EventEntity]
  1: 0x00DC [0x00] END_REQSTACK()
```

### Event 65535.14

#### Metadata

| Field        | Value    |
|--------------|----------|
| Entrypoint   | 0x00DD   |
| Data Size    | 16 bytes |
| Instructions | 2        |

```
      00 01 02 03 04 05 06 07  08 09 0A 0B 0C 0D 0E 0F
      -- -- -- -- -- -- -- --  -- -- -- -- -- -- -- --
00D0:                                         5B 1C 80               [..
00E0: F8 FF FF 7F F8 FF FF 7F  74 6C 63 31 00           ........tlc1.   
```

#### Opcodes

```
  0: 0x00DD [0x5B] LOAD_EXT_SCHEDULER: Load scheduler "tlc1" with entities [EventEntity, EventEntity], work=96*
  1: 0x00EC [0x00] END_REQSTACK()
```

### Event 65535.15

#### Metadata

| Field        | Value    |
|--------------|----------|
| Entrypoint   | 0x00ED   |
| Data Size    | 14 bytes |
| Instructions | 2        |

```
      00 01 02 03 04 05 06 07  08 09 0A 0B 0C 0D 0E 0F
      -- -- -- -- -- -- -- --  -- -- -- -- -- -- -- --
00E0:                                         53 F8 FF               S..
00F0: FF 7F F8 FF FF 7F 74 6C  63 31 00                 ......tlc1.     
```

#### Opcodes

```
  0: 0x00ED [0x53] WAIT_SCHEDULER_TASK: Wait for scheduler "tlc1" with entities [EventEntity, EventEntity]
  1: 0x00FA [0x00] END_REQSTACK()
```

### Event 65535.16

#### Metadata

| Field        | Value    |
|--------------|----------|
| Entrypoint   | 0x00FB   |
| Data Size    | 22 bytes |
| Instructions | 3        |

```
      00 01 02 03 04 05 06 07  08 09 0A 0B 0C 0D 0E 0F
      -- -- -- -- -- -- -- --  -- -- -- -- -- -- -- --
00F0:                                   81 00 F8 FF FF             .....
0100: 7F 5B 1D 80 F8 FF FF 7F  F8 FF FF 7F 74 68 6B 31  .[..........thk1
0110: 00                                                .               
```

#### Opcodes

```
  0: 0x00FB [0x81] SET_ENTITY_BLINKING(blink_flag=0x00, entity=EventEntity)
  1: 0x0101 [0x5B] LOAD_EXT_SCHEDULER: Load scheduler "thk1" with entities [EventEntity, EventEntity], work=95*
  2: 0x0110 [0x00] END_REQSTACK()
```

### Event 65535.17

#### Metadata

| Field        | Value    |
|--------------|----------|
| Entrypoint   | 0x0111   |
| Data Size    | 14 bytes |
| Instructions | 2        |

```
      00 01 02 03 04 05 06 07  08 09 0A 0B 0C 0D 0E 0F
      -- -- -- -- -- -- -- --  -- -- -- -- -- -- -- --
0110:    53 F8 FF FF 7F F8 FF  FF 7F 74 68 6B 31 00      S........thk1. 
```

#### Opcodes

```
  0: 0x0111 [0x53] WAIT_SCHEDULER_TASK: Wait for scheduler "thk1" with entities [EventEntity, EventEntity]
  1: 0x011E [0x00] END_REQSTACK()
```

### Event 65535.18

#### Metadata

| Field        | Value    |
|--------------|----------|
| Entrypoint   | 0x011F   |
| Data Size    | 16 bytes |
| Instructions | 2        |

```
      00 01 02 03 04 05 06 07  08 09 0A 0B 0C 0D 0E 0F
      -- -- -- -- -- -- -- --  -- -- -- -- -- -- -- --
0110:                                               5B                 [
0120: 1D 80 F8 FF FF 7F F8 FF  FF 7F 74 68 6B 32 00     ..........thk2. 
```

#### Opcodes

```
  0: 0x011F [0x5B] LOAD_EXT_SCHEDULER: Load scheduler "thk2" with entities [EventEntity, EventEntity], work=95*
  1: 0x012E [0x00] END_REQSTACK()
```

### Event 65535.19

#### Metadata

| Field        | Value    |
|--------------|----------|
| Entrypoint   | 0x012F   |
| Data Size    | 20 bytes |
| Instructions | 3        |

```
      00 01 02 03 04 05 06 07  08 09 0A 0B 0C 0D 0E 0F
      -- -- -- -- -- -- -- --  -- -- -- -- -- -- -- --
0120:                                               53                 S
0130: F8 FF FF 7F F8 FF FF 7F  74 68 6B 32 81 01 F8 FF  ........thk2....
0140: FF 7F 00                                          ...             
```

#### Opcodes

```
  0: 0x012F [0x53] WAIT_SCHEDULER_TASK: Wait for scheduler "thk2" with entities [EventEntity, EventEntity]
  1: 0x013C [0x81] SET_ENTITY_BLINKING(blink_flag=0x01, entity=EventEntity)
  2: 0x0142 [0x00] END_REQSTACK()
```

### Event 65535.20

#### Metadata

| Field        | Value    |
|--------------|----------|
| Entrypoint   | 0x0143   |
| Data Size    | 22 bytes |
| Instructions | 3        |

```
      00 01 02 03 04 05 06 07  08 09 0A 0B 0C 0D 0E 0F
      -- -- -- -- -- -- -- --  -- -- -- -- -- -- -- --
0140:          81 00 F8 FF FF  7F 5B 1D 80 F8 FF FF 7F     ......[......
0150: F8 FF FF 7F 69 61 6D 30  00                       ....iam0.       
```

#### Opcodes

```
  0: 0x0143 [0x81] SET_ENTITY_BLINKING(blink_flag=0x00, entity=EventEntity)
  1: 0x0149 [0x5B] LOAD_EXT_SCHEDULER: Load scheduler "iam0" with entities [EventEntity, EventEntity], work=95*
  2: 0x0158 [0x00] END_REQSTACK()
```

### Event 65535.21

#### Metadata

| Field        | Value    |
|--------------|----------|
| Entrypoint   | 0x0159   |
| Data Size    | 20 bytes |
| Instructions | 3        |

```
      00 01 02 03 04 05 06 07  08 09 0A 0B 0C 0D 0E 0F
      -- -- -- -- -- -- -- --  -- -- -- -- -- -- -- --
0150:                             53 F8 FF FF 7F F8 FF           S......
0160: FF 7F 69 61 6D 30 81 01  F8 FF FF 7F 00           ..iam0.......   
```

#### Opcodes

```
  0: 0x0159 [0x53] WAIT_SCHEDULER_TASK: Wait for scheduler "iam0" with entities [EventEntity, EventEntity]
  1: 0x0166 [0x81] SET_ENTITY_BLINKING(blink_flag=0x01, entity=EventEntity)
  2: 0x016C [0x00] END_REQSTACK()
```

### Event 65535.22

#### Metadata

| Field        | Value   |
|--------------|---------|
| Entrypoint   | 0x016D  |
| Data Size    | 9 bytes |
| Instructions | 3       |

```
      00 01 02 03 04 05 06 07  08 09 0A 0B 0C 0D 0E 0F
      -- -- -- -- -- -- -- --  -- -- -- -- -- -- -- --
0160:                                         5E 69 64               ^id
0170: 6C 30 1C 1E 80 00                                 l0....          
```

#### Opcodes

```
  0: 0x016D [0x5E] EventEntity goes idle (kills current action) (animation: "idl0")
  1: 0x0172 [0x1C] WAIT(30* ticks)
  2: 0x0175 [0x00] END_REQSTACK()
```

### Event 65535.23

#### Metadata

| Field        | Value   |
|--------------|---------|
| Entrypoint   | 0x0176  |
| Data Size    | 1 bytes |
| Instructions | 1       |

```
      00 01 02 03 04 05 06 07  08 09 0A 0B 0C 0D 0E 0F
      -- -- -- -- -- -- -- --  -- -- -- -- -- -- -- --
0170:                   00                                    .         
```

#### Opcodes

```
  0: 0x0176 [0x00] END_REQSTACK()
```

### Event 65535.24

#### Metadata

| Field        | Value   |
|--------------|---------|
| Entrypoint   | 0x0177  |
| Data Size    | 1 bytes |
| Instructions | 1       |

```
      00 01 02 03 04 05 06 07  08 09 0A 0B 0C 0D 0E 0F
      -- -- -- -- -- -- -- --  -- -- -- -- -- -- -- --
0170:                      00                                  .        
```

#### Opcodes

```
  0: 0x0177 [0x00] END_REQSTACK()
```

### Event 10010

#### Metadata

| Field        | Value   |
|--------------|---------|
| Entrypoint   | 0x0178  |
| Data Size    | 1 bytes |
| Instructions | 1       |

```
      00 01 02 03 04 05 06 07  08 09 0A 0B 0C 0D 0E 0F
      -- -- -- -- -- -- -- --  -- -- -- -- -- -- -- --
0170:                          00                               .       
```

#### Opcodes

```
  0: 0x0178 [0x00] END_REQSTACK()
```

### Event 65535.25

#### Metadata

| Field        | Value    |
|--------------|----------|
| Entrypoint   | 0x0179   |
| Data Size    | 14 bytes |
| Instructions | 4        |

```
      00 01 02 03 04 05 06 07  08 09 0A 0B 0C 0D 0E 0F
      -- -- -- -- -- -- -- --  -- -- -- -- -- -- -- --
0170:                             32 16 80 1F 00 1F 80           2......
0180: 20 80 21 80 1F 01 00                               .!....         
```

#### Opcodes

```
  0: 0x0179 [0x32] ExtData[1]->MainSpeed = 40* * 0.1
  1: 0x017C [0x1F] MOVE_ENTITY: EventEntity moves to X=-347.120*, Z=42.161*, Y=25.219*
  2: 0x0184 [0x1F] MOVE_ENTITY: Update entity position (mode=1)
  3: 0x0186 [0x00] END_REQSTACK()
```

### Event 65535.26

#### Metadata

| Field        | Value    |
|--------------|----------|
| Entrypoint   | 0x0187   |
| Data Size    | 29 bytes |
| Instructions | 6        |

```
      00 01 02 03 04 05 06 07  08 09 0A 0B 0C 0D 0E 0F
      -- -- -- -- -- -- -- --  -- -- -- -- -- -- -- --
0180:                      37  22 80 23 80 24 80 25 80         7".#.$.%.
0190: 4E 00 38 30 0F 01 32 04  80 1F 00 26 80 27 80 24  N.80..2....&.'.$
01A0: 80 1F 01 00                                       ....            
```

#### Opcodes

```
  0: 0x0187 [0x37] UPDATE_EVENT_POSITION_AND_DIR: x=-342.278*, z=37.860*, y=25.249*, direction=242.9°*
  1: 0x0190 [0x4E] SET_ENTITY_HIDE_FLAG: Show Lion (ID: 17772600/0x010F3038)
  2: 0x0196 [0x32] ExtData[1]->MainSpeed = 13* * 0.1
  3: 0x0199 [0x1F] MOVE_ENTITY: EventEntity moves to X=-343.405*, Z=41.482*, Y=25.249*
  4: 0x01A1 [0x1F] MOVE_ENTITY: Update entity position (mode=1)
  5: 0x01A3 [0x00] END_REQSTACK()
```

### Event 65535.27

#### Metadata

| Field        | Value    |
|--------------|----------|
| Entrypoint   | 0x01A4   |
| Data Size    | 13 bytes |
| Instructions | 3        |

```
      00 01 02 03 04 05 06 07  08 09 0A 0B 0C 0D 0E 0F
      -- -- -- -- -- -- -- --  -- -- -- -- -- -- -- --
01A0:             1C 28 80 37  29 80 2A 80 2B 80 2C 80      .(.7).*.+.,.
01B0: 00                                                .               
```

#### Opcodes

```
  0: 0x01A4 [0x1C] WAIT(80* ticks)
  1: 0x01A7 [0x37] UPDATE_EVENT_POSITION_AND_DIR: x=-347.516*, z=42.713*, y=25.160*, direction=202.2°*
  2: 0x01B0 [0x00] END_REQSTACK()
```

### Event 65535.28

#### Metadata

| Field        | Value    |
|--------------|----------|
| Entrypoint   | 0x01B1   |
| Data Size    | 14 bytes |
| Instructions | 4        |

```
      00 01 02 03 04 05 06 07  08 09 0A 0B 0C 0D 0E 0F
      -- -- -- -- -- -- -- --  -- -- -- -- -- -- -- --
01B0:    32 04 80 1F 00 2D 80  2E 80 24 80 1F 01 00      2....-...$.... 
```

#### Opcodes

```
  0: 0x01B1 [0x32] ExtData[1]->MainSpeed = 13* * 0.1
  1: 0x01B4 [0x1F] MOVE_ENTITY: EventEntity moves to X=-351.616*, Z=44.260*, Y=25.249*
  2: 0x01BC [0x1F] MOVE_ENTITY: Update entity position (mode=1)
  3: 0x01BE [0x00] END_REQSTACK()
```

### Event 65535.29

#### Metadata

| Field        | Value    |
|--------------|----------|
| Entrypoint   | 0x01BF   |
| Data Size    | 14 bytes |
| Instructions | 4        |

```
      00 01 02 03 04 05 06 07  08 09 0A 0B 0C 0D 0E 0F
      -- -- -- -- -- -- -- --  -- -- -- -- -- -- -- --
01B0:                                               32                 2
01C0: 16 80 1F 00 2F 80 30 80  31 80 1F 01 00           ..../.0.1....   
```

#### Opcodes

```
  0: 0x01BF [0x32] ExtData[1]->MainSpeed = 40* * 0.1
  1: 0x01C2 [0x1F] MOVE_ENTITY: EventEntity moves to X=-362.457*, Z=45.691*, Y=24.331*
  2: 0x01CA [0x1F] MOVE_ENTITY: Update entity position (mode=1)
  3: 0x01CC [0x00] END_REQSTACK()
```

### Event 65535.30

#### Metadata

| Field        | Value   |
|--------------|---------|
| Entrypoint   | 0x01CD  |
| Data Size    | 5 bytes |
| Instructions | 3       |

```
      00 01 02 03 04 05 06 07  08 09 0A 0B 0C 0D 0E 0F
      -- -- -- -- -- -- -- --  -- -- -- -- -- -- -- --
01C0:                                         1D 32 80               .2.
01D0: 23 00                                             #.              
```

#### Opcodes

```
  0: 0x01CD [0x1D] PRINT_EVENT_MESSAGE(message_id=10996*)
    → "So, that's what magicite looks like."
  1: 0x01D0 [0x23] WAIT_FOR_DIALOG_INTERACTION
  2: 0x01D1 [0x00] END_REQSTACK()
```

### Event 65535.31

#### Metadata

| Field        | Value    |
|--------------|----------|
| Entrypoint   | 0x01D2   |
| Data Size    | 33 bytes |
| Instructions | 7        |

```
      00 01 02 03 04 05 06 07  08 09 0A 0B 0C 0D 0E 0F
      -- -- -- -- -- -- -- --  -- -- -- -- -- -- -- --
01D0:       29 08 38 30 0F 01  0E 1D 33 80 23 29 08 38    ).80....3.#).8
01E0: 30 0F 01 0F 29 08 38 30  0F 01 10 29 08 38 30 0F  0...).80...).80.
01F0: 01 11 00                                          ...             
```

#### Opcodes

```
  0: 0x01D2 [0x29] REQ_SET_WAIT(priority=0x08, entity_id=Lion (ID: 17772600/0x010F3038), tag_num=0x0E)
  1: 0x01D9 [0x1D] PRINT_EVENT_MESSAGE(message_id=10998*)
    → "What the...!?"
  2: 0x01DC [0x23] WAIT_FOR_DIALOG_INTERACTION
  3: 0x01DD [0x29] REQ_SET_WAIT(priority=0x08, entity_id=Lion (ID: 17772600/0x010F3038), tag_num=0x0F)
  4: 0x01E4 [0x29] REQ_SET_WAIT(priority=0x08, entity_id=Lion (ID: 17772600/0x010F3038), tag_num=0x10)
  5: 0x01EB [0x29] REQ_SET_WAIT(priority=0x08, entity_id=Lion (ID: 17772600/0x010F3038), tag_num=0x11)
  6: 0x01F2 [0x00] END_REQSTACK()
```

### Event 65535.32

#### Metadata

| Field        | Value   |
|--------------|---------|
| Entrypoint   | 0x01F3  |
| Data Size    | 5 bytes |
| Instructions | 3       |

```
      00 01 02 03 04 05 06 07  08 09 0A 0B 0C 0D 0E 0F
      -- -- -- -- -- -- -- --  -- -- -- -- -- -- -- --
01F0:          1D 34 80 23 00                              .4.#.        
```

#### Opcodes

```
  0: 0x01F3 [0x1D] PRINT_EVENT_MESSAGE(message_id=11001*)
    → "Who are you!?"
  1: 0x01F6 [0x23] WAIT_FOR_DIALOG_INTERACTION
  2: 0x01F7 [0x00] END_REQSTACK()
```

### Event 65535.33

#### Metadata

| Field        | Value    |
|--------------|----------|
| Entrypoint   | 0x01F8   |
| Data Size    | 37 bytes |
| Instructions | 9        |

```
      00 01 02 03 04 05 06 07  08 09 0A 0B 0C 0D 0E 0F
      -- -- -- -- -- -- -- --  -- -- -- -- -- -- -- --
01F0:                          29 08 38 30 0F 01 0E 1D          ).80....
0200: 35 80 23 29 08 38 30 0F  01 0F 29 08 38 30 0F 01  5.#).80...).80..
0210: 10 1D 36 80 23 29 08 38  30 0F 01 11 00           ..6.#).80....   
```

#### Opcodes

```
  0: 0x01F8 [0x29] REQ_SET_WAIT(priority=0x08, entity_id=Lion (ID: 17772600/0x010F3038), tag_num=0x0E)
  1: 0x01FF [0x1D] PRINT_EVENT_MESSAGE(message_id=11004*)
    → "Was that a phantom? An image...of the Shadow Lord?"
  2: 0x0202 [0x23] WAIT_FOR_DIALOG_INTERACTION
  3: 0x0203 [0x29] REQ_SET_WAIT(priority=0x08, entity_id=Lion (ID: 17772600/0x010F3038), tag_num=0x0F)
  4: 0x020A [0x29] REQ_SET_WAIT(priority=0x08, entity_id=Lion (ID: 17772600/0x010F3038), tag_num=0x10)
  5: 0x0211 [0x1D] PRINT_EVENT_MESSAGE(message_id=11005*)
    → "The Shadow Lord? It can't be! His powers can't have returned!"
  6: 0x0214 [0x23] WAIT_FOR_DIALOG_INTERACTION
  7: 0x0215 [0x29] REQ_SET_WAIT(priority=0x08, entity_id=Lion (ID: 17772600/0x010F3038), tag_num=0x11)
  8: 0x021C [0x00] END_REQSTACK()
```

### Event 65535.34

#### Metadata

| Field        | Value   |
|--------------|---------|
| Entrypoint   | 0x021D  |
| Data Size    | 5 bytes |
| Instructions | 3       |

```
      00 01 02 03 04 05 06 07  08 09 0A 0B 0C 0D 0E 0F
      -- -- -- -- -- -- -- --  -- -- -- -- -- -- -- --
0210:                                         1D 37 80               .7.
0220: 23 00                                             #.              
```

#### Opcodes

```
  0: 0x021D [0x1D] PRINT_EVENT_MESSAGE(message_id=11006*)
    → "Then it is true. The beastmen are trying to bring the Shadow Lord back."
  1: 0x0220 [0x23] WAIT_FOR_DIALOG_INTERACTION
  2: 0x0221 [0x00] END_REQSTACK()
```
