# 17772692 - DoorDining Hall

## Common Data

| Field            | Value                     |
|------------------|---------------------------|
| Zone             | Ru'Lude Gardens (ID: 243) |
| Block Size       | 17496 bytes               |
| Total Events     | 6                         |
| References Count | 418                       |

## List of Events

| Event ID                 | Entrypoint   |   Size |   Instructions |
|--------------------------|--------------|--------|----------------|
| [65535](#event-65535)    | 0x0000       |      1 |              1 |
| [10235](#event-10235)    | 0x0001       |      1 |              1 |
| [65535.1](#event-655351) | 0x0002       |      2 |              2 |
| [65535.2](#event-655352) | 0x0004       |      2 |              2 |
| [10094](#event-10094)    | 0x0006       |   5298 |            698 |
| [10097](#event-10097)    | 0x14B8       |  10479 |           1115 |

## DAT References (imed_data)

|   Index | Hex Value   |   Dec Value |
|---------|-------------|-------------|
|       0 | 0x00C8      |         200 |
|       1 | 0x0000      |           0 |
|       2 | 0x0003      |           3 |
|       3 | 0x0001      |           1 |
|       4 | 0x01B7      |         439 |
|       5 | 0x007F      |         127 |
|       6 | 0x0058      |          88 |
|       7 | 0x361B      |       13851 |
|       8 | 0x361C      |       13852 |
|       9 | 0x361D      |       13853 |
|      10 | 0x000A      |          10 |
|      11 | 0x0014      |          20 |
|      12 | 0x361E      |       13854 |
|      13 | 0x0FFD      |        4093 |
|      14 | 0x361F      |       13855 |
|      15 | 0x3620      |       13856 |
|      16 | 0x3621      |       13857 |
|      17 | 0x3622      |       13858 |
|      18 | 0x3625      |       13861 |
|      19 | 0x3623      |       13859 |
|      20 | 0x001E      |          30 |
|      21 | 0x3624      |       13860 |
|      22 | 0x3626      |       13862 |
|      23 | 0x3627      |       13863 |
|      24 | 0x3628      |       13864 |
|      25 | 0x3629      |       13865 |
|      26 | 0x362A      |       13866 |
|      27 | 0x362B      |       13867 |
|      28 | 0x362C      |       13868 |
|      29 | 0x362D      |       13869 |
|      30 | 0x362E      |       13870 |
|      31 | 0x362F      |       13871 |
|      32 | 0x3630      |       13872 |
|      33 | 0x3631      |       13873 |
|      34 | 0x3632      |       13874 |
|      35 | 0x3633      |       13875 |
|      36 | 0x3634      |       13876 |
|      37 | 0x3635      |       13877 |
|      38 | 0x3636      |       13878 |
|      39 | 0x3637      |       13879 |
|      40 | 0x3638      |       13880 |
|      41 | 0x3639      |       13881 |
|      42 | 0x000F      |          15 |
|      43 | 0x363A      |       13882 |
|      44 | 0x363B      |       13883 |
|      45 | 0x363C      |       13884 |
|      46 | 0x363D      |       13885 |
|      47 | 0x363E      |       13886 |
|      48 | 0x363F      |       13887 |
|      49 | 0x0032      |          50 |
|      50 | 0x0168      |         360 |
|      51 | 0x3640      |       13888 |
|      52 | 0x3641      |       13889 |
|      53 | 0x3642      |       13890 |
|      54 | 0x00B9      |         185 |
|      55 | 0x3643      |       13891 |
|      56 | 0x3644      |       13892 |
|      57 | 0x3645      |       13893 |
|      58 | 0x3646      |       13894 |
|      59 | 0x3647      |       13895 |
|      60 | 0x3648      |       13896 |
|      61 | 0x3649      |       13897 |
|      62 | 0x364A      |       13898 |
|      63 | 0x364B      |       13899 |
|      64 | 0x364C      |       13900 |
|      65 | 0x364D      |       13901 |
|      66 | 0x364E      |       13902 |
|      67 | 0x364F      |       13903 |
|      68 | 0x3650      |       13904 |
|      69 | 0x3651      |       13905 |
|      70 | 0x3652      |       13906 |
|      71 | 0x3653      |       13907 |
|      72 | 0x3654      |       13908 |
|      73 | 0x3655      |       13909 |
|      74 | 0x3656      |       13910 |
|      75 | 0x3657      |       13911 |
|      76 | 0x3658      |       13912 |
|      77 | 0x3659      |       13913 |
|      78 | 0x365A      |       13914 |
|      79 | 0x365B      |       13915 |
|      80 | 0x365C      |       13916 |
|      81 | 0x365D      |       13917 |
|      82 | 0x365E      |       13918 |
|      83 | 0x365F      |       13919 |
|      84 | 0x3660      |       13920 |
|      85 | 0x3661      |       13921 |
|      86 | 0x3662      |       13922 |
|      87 | 0x3663      |       13923 |
|      88 | 0x3664      |       13924 |
|      89 | 0x3665      |       13925 |
|      90 | 0x3666      |       13926 |
|      91 | 0x3667      |       13927 |
|      92 | 0x3668      |       13928 |
|      93 | 0x3669      |       13929 |
|      94 | 0x366A      |       13930 |
|      95 | 0x366B      |       13931 |
|      96 | 0x0007      |           7 |
|      97 | 0x005A      |          90 |
|      98 | 0x366C      |       13932 |
|      99 | 0x0006      |           6 |
|     100 | 0x366D      |       13933 |
|     101 | 0x366E      |       13934 |
|     102 | 0x366F      |       13935 |
|     103 | 0x3670      |       13936 |
|     104 | 0x3671      |       13937 |
|     105 | 0x3672      |       13938 |
|     106 | 0x3674      |       13940 |
|     107 | 0x003C      |          60 |
|     108 | 0x3675      |       13941 |
|     109 | 0x3676      |       13942 |
|     110 | 0x3677      |       13943 |
|     111 | 0x3678      |       13944 |
|     112 | 0x3679      |       13945 |
|     113 | 0x367A      |       13946 |
|     114 | 0x367B      |       13947 |
|     115 | 0x367C      |       13948 |
|     116 | 0x367D      |       13949 |
|     117 | 0x367E      |       13950 |
|     118 | 0x367F      |       13951 |
|     119 | 0x3680      |       13952 |
|     120 | 0x3681      |       13953 |
|     121 | 0x0002      |           2 |
|     122 | 0x3682      |       13954 |
|     123 | 0x3683      |       13955 |
|     124 | 0x3684      |       13956 |
|     125 | 0x3685      |       13957 |
|     126 | 0x3686      |       13958 |
|     127 | 0x3673      |       13939 |
|     128 | 0x3687      |       13959 |
|     129 | 0x3688      |       13960 |
|     130 | 0x3689      |       13961 |
|     131 | 0x368A      |       13962 |
|     132 | 0x368B      |       13963 |
|     133 | 0x368C      |       13964 |
|     134 | 0x368D      |       13965 |
|     135 | 0x368E      |       13966 |
|     136 | 0x368F      |       13967 |
|     137 | 0x3690      |       13968 |
|     138 | 0x3691      |       13969 |
|     139 | 0x3692      |       13970 |
|     140 | 0x3693      |       13971 |
|     141 | 0x009D      |         157 |
|     142 | 0x3694      |       13972 |
|     143 | 0x3695      |       13973 |
|     144 | 0x3696      |       13974 |
|     145 | 0x3697      |       13975 |
|     146 | 0x3698      |       13976 |
|     147 | 0x3699      |       13977 |
|     148 | 0x369A      |       13978 |
|     149 | 0x369B      |       13979 |
|     150 | 0x369C      |       13980 |
|     151 | 0x369D      |       13981 |
|     152 | 0x369E      |       13982 |
|     153 | 0x369F      |       13983 |
|     154 | 0x36A0      |       13984 |
|     155 | 0x36A1      |       13985 |
|     156 | 0x36A2      |       13986 |
|     157 | 0x36A3      |       13987 |
|     158 | 0x36A4      |       13988 |
|     159 | 0x36A5      |       13989 |
|     160 | 0x36A6      |       13990 |
|     161 | 0x36A7      |       13991 |
|     162 | 0x36A8      |       13992 |
|     163 | 0x36A9      |       13993 |
|     164 | 0x36AA      |       13994 |
|     165 | 0x36AB      |       13995 |
|     166 | 0x36AC      |       13996 |
|     167 | 0x36AD      |       13997 |
|     168 | 0x36AE      |       13998 |
|     169 | 0x36AF      |       13999 |
|     170 | 0x36B0      |       14000 |
|     171 | 0x36B1      |       14001 |
|     172 | 0x36B2      |       14002 |
|     173 | 0x36B3      |       14003 |
|     174 | 0x36B4      |       14004 |
|     175 | 0x36B5      |       14005 |
|     176 | 0x36B6      |       14006 |
|     177 | 0x36B7      |       14007 |
|     178 | 0x012C      |         300 |
|     179 | 0x36B8      |       14008 |
|     180 | 0x36B9      |       14009 |
|     181 | 0x36BA      |       14010 |
|     182 | 0x0075      |         117 |
|     183 | 0x0013      |          19 |
|     184 | 0x0109      |         265 |
|     185 | 0x84E8      |       34024 |
|     186 | 0x07D0      |        2000 |
|     187 | 0x0B8A      |        2954 |
|     188 | 0x000B      |          11 |
|     189 | 0x44B5      |       17589 |
|     190 | 0x0BB7      |        2999 |
|     191 | 0x04B9      |        1209 |
|     192 | 0x0121      |         289 |
|     193 | 0x36E1      |       14049 |
|     194 | 0xFFFFFFC5  |  4294967237 |
|     195 | 0x80BB      |       32955 |
|     196 | 0x035B      |         859 |
|     197 | 0x36E2      |       14050 |
|     198 | 0x36E3      |       14051 |
|     199 | 0x36E4      |       14052 |
|     200 | 0x0016      |          22 |
|     201 | 0x36E5      |       14053 |
|     202 | 0x0078      |         120 |
|     203 | 0x7A1A      |       31258 |
|     204 | 0x116CB     |       71371 |
|     205 | 0x07C7      |        1991 |
|     206 | 0x03C4      |         964 |
|     207 | 0x73F0      |       29680 |
|     208 | 0x10AD1     |       68305 |
|     209 | 0x6D3E      |       27966 |
|     210 | 0x106CF     |       67279 |
|     211 | 0x07CB      |        1995 |
|     212 | 0x0FF2      |        4082 |
|     213 | 0x8744      |       34628 |
|     214 | 0x10378     |       66424 |
|     215 | 0x0A53      |        2643 |
|     216 | 0x8C7C      |       35964 |
|     217 | 0xFD93      |       64915 |
|     218 | 0x08A0      |        2208 |
|     219 | 0x5EBA      |       24250 |
|     220 | 0xF9BE      |       63934 |
|     221 | 0x07CF      |        1999 |
|     222 | 0x8DAF      |       36271 |
|     223 | 0x10E57     |       69207 |
|     224 | 0x0872      |        2162 |
|     225 | 0x855F      |       34143 |
|     226 | 0xEA56      |       59990 |
|     227 | 0x0BEC      |        3052 |
|     228 | 0x7535      |       30005 |
|     229 | 0xEAB3      |       60083 |
|     230 | 0x0C30      |        3120 |
|     231 | 0x0074      |         116 |
|     232 | 0x36E6      |       14054 |
|     233 | 0x00B4      |         180 |
|     234 | 0x36E7      |       14055 |
|     235 | 0x36E8      |       14056 |
|     236 | 0x0028      |          40 |
|     237 | 0x36E9      |       14057 |
|     238 | 0x0073      |         115 |
|     239 | 0x36EA      |       14058 |
|     240 | 0x36EB      |       14059 |
|     241 | 0x36EC      |       14060 |
|     242 | 0x36ED      |       14061 |
|     243 | 0x36EE      |       14062 |
|     244 | 0x36EF      |       14063 |
|     245 | 0x36F0      |       14064 |
|     246 | 0x36F1      |       14065 |
|     247 | 0x36F2      |       14066 |
|     248 | 0x36F3      |       14067 |
|     249 | 0x36F4      |       14068 |
|     250 | 0x36F5      |       14069 |
|     251 | 0x36F6      |       14070 |
|     252 | 0x36F7      |       14071 |
|     253 | 0x36F8      |       14072 |
|     254 | 0xFFFFFFFC  |  4294967292 |
|     255 | 0x36F9      |       14073 |
|     256 | 0x36FA      |       14074 |
|     257 | 0x36FB      |       14075 |
|     258 | 0x36FC      |       14076 |
|     259 | 0x36FD      |       14077 |
|     260 | 0x36FE      |       14078 |
|     261 | 0x36FF      |       14079 |
|     262 | 0x3700      |       14080 |
|     263 | 0x3701      |       14081 |
|     264 | 0x3702      |       14082 |
|     265 | 0x3703      |       14083 |
|     266 | 0x3704      |       14084 |
|     267 | 0x3705      |       14085 |
|     268 | 0x3706      |       14086 |
|     269 | 0x3707      |       14087 |
|     270 | 0x3708      |       14088 |
|     271 | 0x3709      |       14089 |
|     272 | 0x370A      |       14090 |
|     273 | 0x370B      |       14091 |
|     274 | 0x370C      |       14092 |
|     275 | 0x370D      |       14093 |
|     276 | 0x370E      |       14094 |
|     277 | 0x370F      |       14095 |
|     278 | 0x55F0      |       22000 |
|     279 | 0xFA00      |       64000 |
|     280 | 0x3710      |       14096 |
|     281 | 0x3711      |       14097 |
|     282 | 0x3712      |       14098 |
|     283 | 0x0015      |          21 |
|     284 | 0x3713      |       14099 |
|     285 | 0x73B1      |       29617 |
|     286 | 0x104C8     |       66760 |
|     287 | 0x0E8C      |        3724 |
|     288 | 0x3714      |       14100 |
|     289 | 0x3715      |       14101 |
|     290 | 0x022F      |         559 |
|     291 | 0xA37F      |       41855 |
|     292 | 0x0C00      |        3072 |
|     293 | 0xFFFFF515  |  4294964501 |
|     294 | 0xAF00      |       44800 |
|     295 | 0x109D      |        4253 |
|     296 | 0xA456      |       42070 |
|     297 | 0x0800      |        2048 |
|     298 | 0x13F7      |        5111 |
|     299 | 0x9EE5      |       40677 |
|     300 | 0x05AF      |        1455 |
|     301 | 0x98C3      |       39107 |
|     302 | 0x0BE9      |        3049 |
|     303 | 0xFFFFF876  |  4294965366 |
|     304 | 0xAE38      |       44600 |
|     305 | 0x0D0B      |        3339 |
|     306 | 0x078A      |        1930 |
|     307 | 0x0B0B      |        2827 |
|     308 | 0x0345      |         837 |
|     309 | 0x0023      |          35 |
|     310 | 0x005D      |          93 |
|     311 | 0x035F      |         863 |
|     312 | 0x0454      |        1108 |
|     313 | 0x0494      |        1172 |
|     314 | 0x00E9      |         233 |
|     315 | 0x3716      |       14102 |
|     316 | 0x3717      |       14103 |
|     317 | 0x3718      |       14104 |
|     318 | 0x3719      |       14105 |
|     319 | 0x0096      |         150 |
|     320 | 0x042B      |        1067 |
|     321 | 0xFFFFF1D1  |  4294963665 |
|     322 | 0xAF40      |       44864 |
|     323 | 0x00B6      |         182 |
|     324 | 0x371A      |       14106 |
|     325 | 0x042A      |        1066 |
|     326 | 0x0063      |          99 |
|     327 | 0x0062      |          98 |
|     328 | 0x004B      |          75 |
|     329 | 0x371B      |       14107 |
|     330 | 0x371C      |       14108 |
|     331 | 0x042E      |        1070 |
|     332 | 0x371D      |       14109 |
|     333 | 0x371E      |       14110 |
|     334 | 0x371F      |       14111 |
|     335 | 0x3720      |       14112 |
|     336 | 0x3721      |       14113 |
|     337 | 0x3722      |       14114 |
|     338 | 0x3723      |       14115 |
|     339 | 0x3724      |       14116 |
|     340 | 0x3725      |       14117 |
|     341 | 0x3726      |       14118 |
|     342 | 0x0064      |         100 |
|     343 | 0x00F0      |         240 |
|     344 | 0x042F      |        1071 |
|     345 | 0x3727      |       14119 |
|     346 | 0x00C9      |         201 |
|     347 | 0x0068      |         104 |
|     348 | 0x006A      |         106 |
|     349 | 0x005C      |          92 |
|     350 | 0x3728      |       14120 |
|     351 | 0x3729      |       14121 |
|     352 | 0x008C      |         140 |
|     353 | 0x372A      |       14122 |
|     354 | 0x372B      |       14123 |
|     355 | 0x372C      |       14124 |
|     356 | 0x046C      |        1132 |
|     357 | 0x372D      |       14125 |
|     358 | 0x372E      |       14126 |
|     359 | 0x00F3      |         243 |
|     360 | 0x8EBC      |       36540 |
|     361 | 0xF957      |       63831 |
|     362 | 0x0C1B      |        3099 |
|     363 | 0x372F      |       14127 |
|     364 | 0x3730      |       14128 |
|     365 | 0x3731      |       14129 |
|     366 | 0x3732      |       14130 |
|     367 | 0x3733      |       14131 |
|     368 | 0x3734      |       14132 |
|     369 | 0x3735      |       14133 |
|     370 | 0x001D      |          29 |
|     371 | 0x0029      |          41 |
|     372 | 0x3736      |       14134 |
|     373 | 0x3737      |       14135 |
|     374 | 0x3738      |       14136 |
|     375 | 0x3739      |       14137 |
|     376 | 0x373A      |       14138 |
|     377 | 0x007A      |         122 |
|     378 | 0x0009      |           9 |
|     379 | 0x373B      |       14139 |
|     380 | 0x373C      |       14140 |
|     381 | 0x373D      |       14141 |
|     382 | 0x373E      |       14142 |
|     383 | 0x373F      |       14143 |
|     384 | 0x3740      |       14144 |
|     385 | 0x3741      |       14145 |
|     386 | 0x3742      |       14146 |
|     387 | 0x3743      |       14147 |
|     388 | 0x3744      |       14148 |
|     389 | 0x3745      |       14149 |
|     390 | 0x3746      |       14150 |
|     391 | 0x3747      |       14151 |
|     392 | 0x3748      |       14152 |
|     393 | 0x3749      |       14153 |
|     394 | 0x374A      |       14154 |
|     395 | 0x374B      |       14155 |
|     396 | 0x374C      |       14156 |
|     397 | 0x374D      |       14157 |
|     398 | 0x374E      |       14158 |
|     399 | 0x374F      |       14159 |
|     400 | 0x3750      |       14160 |
|     401 | 0x0004      |           4 |
|     402 | 0x0005      |           5 |
|     403 | 0x0008      |           8 |
|     404 | 0x3751      |       14161 |
|     405 | 0x3753      |       14163 |
|     406 | 0x3752      |       14162 |
|     407 | 0x3754      |       14164 |
|     408 | 0x3755      |       14165 |
|     409 | 0x3757      |       14167 |
|     410 | 0x3756      |       14166 |
|     411 | 0x3758      |       14168 |
|     412 | 0x3759      |       14169 |
|     413 | 0x375A      |       14170 |
|     414 | 0x375B      |       14171 |
|     415 | 0x375C      |       14172 |
|     416 | 0x375D      |       14173 |
|     417 | 0x0346      |         838 |

## String References

- **13931**: Give Pieuje your honest opinion? [Yes./No.]
- **13938**: Any thoughts? [Sage Walahra.../The Gordeus.../The Walahra Philosophy.../Not really...]
- **14002**: Take up the burden? [That's what I'm here for!/What am I, a donkey?]
- **14054**: @@
- **14161**: Join the mission to rescue Luzaf? [Count me in!/I just left the Empire...]

## Events

### Event 65535

#### Metadata

| Field        | Value   |
|--------------|---------|
| Entrypoint   | 0x0000  |
| Data Size    | 1 bytes |
| Instructions | 1       |

```
      00 01 02 03 04 05 06 07  08 09 0A 0B 0C 0D 0E 0F
      -- -- -- -- -- -- -- --  -- -- -- -- -- -- -- --
0000: 00                                                .               
```

#### Opcodes

```
  0: 0x0000 [0x00] END_REQSTACK()
```

### Event 10235

#### Metadata

| Field        | Value   |
|--------------|---------|
| Entrypoint   | 0x0001  |
| Data Size    | 1 bytes |
| Instructions | 1       |

```
      00 01 02 03 04 05 06 07  08 09 0A 0B 0C 0D 0E 0F
      -- -- -- -- -- -- -- --  -- -- -- -- -- -- -- --
0000:    00                                              .              
```

#### Opcodes

```
  0: 0x0001 [0x00] END_REQSTACK()
```

### Event 65535.1

#### Metadata

| Field        | Value   |
|--------------|---------|
| Entrypoint   | 0x0002  |
| Data Size    | 2 bytes |
| Instructions | 2       |

```
      00 01 02 03 04 05 06 07  08 09 0A 0B 0C 0D 0E 0F
      -- -- -- -- -- -- -- --  -- -- -- -- -- -- -- --
0000:       4C 00                                         L.            
```

#### Opcodes

```
  0: 0x0002 [0x4C] EventEntity->StatusEvent = 8 // Open door
  1: 0x0003 [0x00] END_REQSTACK()
```

### Event 65535.2

#### Metadata

| Field        | Value   |
|--------------|---------|
| Entrypoint   | 0x0004  |
| Data Size    | 2 bytes |
| Instructions | 2       |

```
      00 01 02 03 04 05 06 07  08 09 0A 0B 0C 0D 0E 0F
      -- -- -- -- -- -- -- --  -- -- -- -- -- -- -- --
0000:             4D 00                                     M.          
```

#### Opcodes

```
  0: 0x0004 [0x4D] EventEntity->StatusEvent = 9 // Close door
  1: 0x0005 [0x00] END_REQSTACK()
```

### Event 10094

#### Metadata

| Field        | Value      |
|--------------|------------|
| Entrypoint   | 0x0006     |
| Data Size    | 5298 bytes |
| Instructions | 697        |

```
      00 01 02 03 04 05 06 07  08 09 0A 0B 0C 0D 0E 0F
      -- -- -- -- -- -- -- --  -- -- -- -- -- -- -- --
0000:                   20 01  46 01 42 45 00 80 F0 FF         .F.BE....
0010: FF 7F F0 FF FF 7F 66 64  6F 31 01 80 55 00 80 F0  ......fdo1..U...
0020: FF FF 7F F0 FF FF 7F 66  64 6F 31 38 02 80 94 01  .......fdo18....
0030: F0 FF FF 7F 97 01 80 03  80 75 00 04 80 75 01 27  .........u...u.'
0040: 03 F0 FF FF 7F 18 4E 01  F0 FF FF 7F 4E 00 07 30  ......N.....N..0
0050: 0F 01 4E 00 BF 30 0F 01  4E 00 C3 30 0F 01 4E 00  ..N..0..N..0..N.
0060: C1 30 0F 01 4E 00 C2 30  0F 01 4E 00 C0 30 0F 01  .0..N..0..N..0..
0070: 92 01 07 30 0F 01 92 01  BF 30 0F 01 92 01 C3 30  ...0.....0.....0
0080: 0F 01 92 01 C1 30 0F 01  92 01 C2 30 0F 01 92 01  .....0.....0....
0090: C0 30 0F 01 92 01 1D 30  0F 01 92 01 1F 30 0F 01  .0.....0.....0..
00A0: 4E 01 B0 30 0F 01 80 07  30 0F 01 80 BF 30 0F 01  N..0....0....0..
00B0: 80 C3 30 0F 01 80 C1 30  0F 01 80 C2 30 0F 01 80  ..0....0....0...
00C0: C0 30 0F 01 5C 00 05 80  5C 01 05 80 9A 27 03 BF  .0..\...\....'..
00D0: 30 0F 01 02 45 06 80 F0  FF FF 7F F0 FF FF 7F 78  0...E..........x
00E0: 30 30 30 01 80 45 00 80  F0 FF FF 7F F0 FF FF 7F  000..E..........
00F0: 66 64 69 31 01 80 55 00  80 F0 FF FF 7F F0 FF FF  fdi1..U.........
0100: 7F 66 64 69 31 4A 07 30  0F 01 BF 30 0F 01 4A C1  .fdi1J.0...0..J.
0110: 30 0F 01 BF 30 0F 01 4A  C0 30 0F 01 BF 30 0F 01  0...0..J.0...0..
0120: 2A 03 BF 30 0F 01 55 06  80 F0 FF FF 7F F0 FF FF  *..0..U.........
0130: 7F 78 30 30 30 79 00 07  30 0F 01 BF 30 0F 01 2B  .x000y..0...0..+
0140: BF 30 0F 01 07 80 23 45  06 80 F0 FF FF 7F F0 FF  .0....#E........
0150: FF 7F 78 30 30 31 01 80  2B BF 30 0F 01 08 80 23  ..x001..+.0....#
0160: 4A 07 30 0F 01 F0 FF FF  7F 4C 2B 07 30 0F 01 09  J.0......L+.0...
0170: 80 23 4E 00 F0 FF FF 7F  79 00 F0 FF FF 7F BF 30  .#N.....y......0
0180: 0F 01 27 03 F0 FF FF 7F  19 1C 0A 80 52 06 80 F0  ..'.........R...
0190: FF FF 7F F0 FF FF 7F 78  30 30 31 45 06 80 F0 FF  .......x001E....
01A0: FF 7F F0 FF FF 7F 78 30  30 32 01 80 1C 0B 80 4A  ......x002.....J
01B0: BF 30 0F 01 F0 FF FF 7F  2A 03 F0 FF FF 7F 4D 2B  .0......*.....M+
01C0: BF 30 0F 01 0C 80 23 52  06 80 F0 FF FF 7F F0 FF  .0....#R........
01D0: FF 7F 78 30 30 32 7B BF  30 0F 01 4B BF 30 0F 01  ..x002{.0..K.0..
01E0: 0D 80 1C 0A 80 45 06 80  F0 FF FF 7F F0 FF FF 7F  .....E..........
01F0: 78 30 30 33 01 80 79 00  07 30 0F 01 BF 30 0F 01  x003..y..0...0..
0200: 2B BF 30 0F 01 0E 80 23  2B BF 30 0F 01 0F 80 23  +.0....#+.0....#
0210: 52 06 80 F0 FF FF 7F F0  FF FF 7F 78 30 30 33 45  R..........x003E
0220: 06 80 F0 FF FF 7F F0 FF  FF 7F 78 30 30 34 01 80  ..........x004..
0230: 2B BF 30 0F 01 10 80 23  2B BF 30 0F 01 11 80 23  +.0....#+.0....#
0240: 52 06 80 F0 FF FF 7F F0  FF FF 7F 78 30 30 34 45  R..........x004E
0250: 06 80 F0 FF FF 7F F0 FF  FF 7F 78 30 30 35 01 80  ..........x005..
0260: 2B C1 30 0F 01 12 80 23  55 06 80 F0 FF FF 7F F0  +.0....#U.......
0270: FF FF 7F 78 30 30 35 45  06 80 F0 FF FF 7F F0 FF  ...x005E........
0280: FF 7F 78 30 30 61 01 80  2B 07 30 0F 01 13 80 1C  ..x00a..+.0.....
0290: 14 80 79 00 BF 30 0F 01  07 30 0F 01 23 2B BF 30  ..y..0...0..#+.0
02A0: 0F 01 15 80 23 2B BF 30  0F 01 16 80 23 2B 07 30  ....#+.0....#+.0
02B0: 0F 01 17 80 23 52 06 80  F0 FF FF 7F F0 FF FF 7F  ....#R..........
02C0: 78 30 30 61 45 06 80 F0  FF FF 7F F0 FF FF 7F 78  x00aE..........x
02D0: 30 30 36 01 80 2B C1 30  0F 01 18 80 23 2B C1 30  006..+.0....#+.0
02E0: 0F 01 19 80 23 2B C1 30  0F 01 1A 80 23 52 06 80  ....#+.0....#R..
02F0: F0 FF FF 7F F0 FF FF 7F  78 30 30 36 45 00 80 C0  ........x006E...
0300: 30 0F 01 C0 30 0F 01 6F  76 6C 31 01 80 45 06 80  0...0..ovl1..E..
0310: F0 FF FF 7F F0 FF FF 7F  78 30 30 37 01 80 55 06  ........x007..U.
0320: 80 F0 FF FF 7F F0 FF FF  7F 78 30 30 37 2B C0 30  .........x007+.0
0330: 0F 01 1B 80 23 4A BF 30  0F 01 C1 30 0F 01 45 06  ....#J.0...0..E.
0340: 80 F0 FF FF 7F F0 FF FF  7F 78 30 30 38 01 80 2B  .........x008..+
0350: BF 30 0F 01 1C 80 23 2B  BF 30 0F 01 1D 80 23 2B  .0....#+.0....#+
0360: BF 30 0F 01 1E 80 23 52  06 80 F0 FF FF 7F F0 FF  .0....#R........
0370: FF 7F 78 30 30 38 45 06  80 F0 FF FF 7F F0 FF FF  ..x008E.........
0380: 7F 78 30 30 39 01 80 2B  C1 30 0F 01 1F 80 23 2B  .x009..+.0....#+
0390: C1 30 0F 01 20 80 23 4A  C0 30 0F 01 C1 30 0F 01  .0.. .#J.0...0..
03A0: 52 06 80 F0 FF FF 7F F0  FF FF 7F 78 30 30 39 45  R..........x009E
03B0: 06 80 F0 FF FF 7F F0 FF  FF 7F 77 30 30 30 01 80  ..........w000..
03C0: 2B C0 30 0F 01 21 80 23  4A C1 30 0F 01 C0 30 0F  +.0..!.#J.0...0.
03D0: 01 1C 0A 80 52 06 80 F0  FF FF 7F F0 FF FF 7F 77  ....R..........w
03E0: 30 30 30 45 06 80 F0 FF  FF 7F F0 FF FF 7F 77 30  000E..........w0
03F0: 30 31 01 80 2B C1 30 0F  01 22 80 23 2B C1 30 0F  01..+.0..".#+.0.
0400: 01 23 80 23 27 03 C0 30  0F 01 0B 2B C0 30 0F 01  .#.#'..0...+.0..
0410: 24 80 23 52 06 80 F0 FF  FF 7F F0 FF FF 7F 77 30  $.#R..........w0
0420: 30 31 45 06 80 F0 FF FF  7F F0 FF FF 7F 77 30 30  01E..........w00
0430: 33 01 80 2B C1 30 0F 01  25 80 23 52 06 80 F0 FF  3..+.0..%.#R....
0440: FF 7F F0 FF FF 7F 77 30  30 33 45 06 80 F0 FF FF  ......w003E.....
0450: 7F F0 FF FF 7F 77 30 30  32 01 80 2B C0 30 0F 01  .....w002..+.0..
0460: 26 80 23 2B C0 30 0F 01  27 80 23 2B C0 30 0F 01  &.#+.0..'.#+.0..
0470: 28 80 23 52 06 80 F0 FF  FF 7F F0 FF FF 7F 77 30  (.#R..........w0
0480: 30 32 45 06 80 F0 FF FF  7F F0 FF FF 7F 77 30 30  02E..........w00
0490: 34 01 80 2B C1 30 0F 01  29 80 23 1C 2A 80 2B BF  4..+.0..).#.*.+.
04A0: 30 0F 01 2B 80 23 52 06  80 F0 FF FF 7F F0 FF FF  0..+.#R.........
04B0: 7F 77 30 30 34 45 06 80  F0 FF FF 7F F0 FF FF 7F  .w004E..........
04C0: 77 30 30 35 01 80 2B C1  30 0F 01 2C 80 23 7B C0  w005..+.0..,.#{.
04D0: 30 0F 01 27 03 C0 30 0F  01 09 2B C0 30 0F 01 2D  0..'..0...+.0..-
04E0: 80 23 2B C0 30 0F 01 2E  80 23 6B 69 64 6C 30 C0  .#+.0....#kidl0.
04F0: 30 0F 01 52 06 80 F0 FF  FF 7F F0 FF FF 7F 77 30  0..R..........w0
0500: 30 35 45 06 80 F0 FF FF  7F F0 FF FF 7F 77 30 30  05E..........w00
0510: 33 01 80 2B C1 30 0F 01  2F 80 23 52 06 80 F0 FF  3..+.0../.#R....
0520: FF 7F F0 FF FF 7F 77 30  30 33 45 06 80 F0 FF FF  ......w003E.....
0530: 7F F0 FF FF 7F 77 30 30  36 01 80 2B BF 30 0F 01  .....w006..+.0..
0540: 30 80 1C 31 80 4A C0 30  0F 01 BF 30 0F 01 4A C1  0..1.J.0...0..J.
0550: 30 0F 01 BF 30 0F 01 23  52 06 80 F0 FF FF 7F F0  0...0..#R.......
0560: FF FF 7F 77 30 30 36 5D  01 80 32 80 45 06 80 F0  ...w006]..2.E...
0570: FF FF 7F F0 FF FF 7F 77  30 30 37 01 80 2B 07 30  .......w007..+.0
0580: 0F 01 33 80 23 2B BF 30  0F 01 34 80 23 2B C1 30  ..3.#+.0..4.#+.0
0590: 0F 01 35 80 23 5C 00 36  80 5C 01 36 80 2B BF 30  ..5.#\.6.\.6.+.0
05A0: 0F 01 37 80 23 9A 52 06  80 F0 FF FF 7F F0 FF FF  ..7.#.R.........
05B0: 7F 77 30 30 37 45 06 80  F0 FF FF 7F F0 FF FF 7F  .w007E..........
05C0: 77 30 30 38 01 80 2B BF  30 0F 01 38 80 23 2B BF  w008..+.0..8.#+.
05D0: 30 0F 01 39 80 23 52 06  80 F0 FF FF 7F F0 FF FF  0..9.#R.........
05E0: 7F 77 30 30 38 45 06 80  F0 FF FF 7F F0 FF FF 7F  .w008E..........
05F0: 77 30 30 39 01 80 2B 07  30 0F 01 3A 80 23 27 03  w009..+.0..:.#'.
0600: C0 30 0F 01 06 2B C0 30  0F 01 3B 80 23 52 06 80  .0...+.0..;.#R..
0610: F0 FF FF 7F F0 FF FF 7F  77 30 30 39 45 06 80 F0  ........w009E...
0620: FF FF 7F F0 FF FF 7F 76  30 30 31 01 80 2B C1 30  .......v001..+.0
0630: 0F 01 3C 80 23 52 06 80  F0 FF FF 7F F0 FF FF 7F  ..<.#R..........
0640: 76 30 30 31 45 00 80 C3  30 0F 01 C3 30 0F 01 6F  v001E...0...0..o
0650: 76 6C 31 01 80 45 06 80  F0 FF FF 7F F0 FF FF 7F  vl1..E..........
0660: 76 30 30 30 01 80 2B C0  30 0F 01 3D 80 23 52 06  v000..+.0..=.#R.
0670: 80 F0 FF FF 7F F0 FF FF  7F 76 30 30 30 45 06 80  .........v000E..
0680: F0 FF FF 7F F0 FF FF 7F  76 30 30 31 01 80 2B C1  ........v001..+.
0690: 30 0F 01 3E 80 23 52 06  80 F0 FF FF 7F F0 FF FF  0..>.#R.........
06A0: 7F 76 30 30 31 45 00 80  C3 30 0F 01 C3 30 0F 01  .v001E...0...0..
06B0: 6F 76 6C 31 01 80 45 06  80 F0 FF FF 7F F0 FF FF  ovl1..E.........
06C0: 7F 76 30 30 30 01 80 2B  C0 30 0F 01 3F 80 23 52  .v000..+.0..?.#R
06D0: 06 80 F0 FF FF 7F F0 FF  FF 7F 76 30 30 30 45 06  ..........v000E.
06E0: 80 F0 FF FF 7F F0 FF FF  7F 76 30 30 31 01 80 4A  .........v001..J
06F0: C1 30 0F 01 C0 30 0F 01  2B C1 30 0F 01 40 80 23  .0...0..+.0..@.#
0700: 52 06 80 F0 FF FF 7F F0  FF FF 7F 76 30 30 31 45  R..........v001E
0710: 06 80 F0 FF FF 7F F0 FF  FF 7F 76 30 30 30 01 80  ..........v000..
0720: 2B C0 30 0F 01 41 80 23  2B C0 30 0F 01 42 80 23  +.0..A.#+.0..B.#
0730: 52 06 80 F0 FF FF 7F F0  FF FF 7F 76 30 30 30 45  R..........v000E
0740: 00 80 C3 30 0F 01 C3 30  0F 01 6F 76 6C 31 01 80  ...0...0..ovl1..
0750: 45 06 80 F0 FF FF 7F F0  FF FF 7F 76 30 30 32 01  E..........v002.
0760: 80 1C 14 80 2B C1 30 0F  01 43 80 23 27 03 C0 30  ....+.0..C.#'..0
0770: 0F 01 07 7C 00 C0 30 0F  01 52 06 80 F0 FF FF 7F  ...|..0..R......
0780: F0 FF FF 7F 76 30 30 32  45 06 80 F0 FF FF 7F F0  ....v002E.......
0790: FF FF 7F 76 30 30 61 01  80 2B C0 30 0F 01 44 80  ...v00a..+.0..D.
07A0: 23 7C 01 C0 30 0F 01 2A  03 C0 30 0F 01 27 03 C0  #|..0..*..0..'..
07B0: 30 0F 01 09 2B C0 30 0F  01 45 80 23 2B C0 30 0F  0...+.0..E.#+.0.
07C0: 01 46 80 23 52 06 80 F0  FF FF 7F F0 FF FF 7F 76  .F.#R..........v
07D0: 30 30 61 45 06 80 F0 FF  FF 7F F0 FF FF 7F 76 30  00aE..........v0
07E0: 30 33 01 80 2B BF 30 0F  01 47 80 23 4A C1 30 0F  03..+.0..G.#J.0.
07F0: 01 BF 30 0F 01 2B C1 30  0F 01 48 80 23 2B BF 30  ..0..+.0..H.#+.0
0800: 0F 01 49 80 23 2B BF 30  0F 01 4A 80 23 52 06 80  ..I.#+.0..J.#R..
0810: F0 FF FF 7F F0 FF FF 7F  76 30 30 33 45 06 80 F0  ........v003E...
0820: FF FF 7F F0 FF FF 7F 76  30 30 34 01 80 6B 69 64  .......v004..kid
0830: 6C 30 C0 30 0F 01 27 03  C1 30 0F 01 03 2B C1 30  l0.0..'..0...+.0
0840: 0F 01 4B 80 23 27 03 C1  30 0F 01 04 2B BF 30 0F  ..K.#'..0...+.0.
0850: 01 4C 80 23 2B C1 30 0F  01 4D 80 23 52 06 80 F0  .L.#+.0..M.#R...
0860: FF FF 7F F0 FF FF 7F 76  30 30 34 45 06 80 F0 FF  .......v004E....
0870: FF 7F F0 FF FF 7F 76 30  30 35 01 80 2B BF 30 0F  ......v005..+.0.
0880: 01 4E 80 23 2B BF 30 0F  01 4F 80 23 27 03 07 30  .N.#+.0..O.#'..0
0890: 0F 01 2A 2B 07 30 0F 01  50 80 23 27 03 07 30 0F  ..*+.0..P.#'..0.
08A0: 01 2B 52 06 80 F0 FF FF  7F F0 FF FF 7F 76 30 30  .+R..........v00
08B0: 35 45 06 80 F0 FF FF 7F  F0 FF FF 7F 76 30 30 36  5E..........v006
08C0: 01 80 79 00 BF 30 0F 01  07 30 0F 01 2B BF 30 0F  ..y..0...0..+.0.
08D0: 01 51 80 23 2B BF 30 0F  01 52 80 23 52 06 80 F0  .Q.#+.0..R.#R...
08E0: FF FF 7F F0 FF FF 7F 76  30 30 36 45 06 80 F0 FF  .......v006E....
08F0: FF 7F F0 FF FF 7F 76 30  30 62 01 80 2B 07 30 0F  ......v00b..+.0.
0900: 01 53 80 23 52 06 80 F0  FF FF 7F F0 FF FF 7F 76  .S.#R..........v
0910: 30 30 62 45 06 80 F0 FF  FF 7F F0 FF FF 7F 76 30  00bE..........v0
0920: 30 63 01 80 2B C1 30 0F  01 54 80 23 52 06 80 F0  0c..+.0..T.#R...
0930: FF FF 7F F0 FF FF 7F 76  30 30 63 45 06 80 F0 FF  .......v00cE....
0940: FF 7F F0 FF FF 7F 76 30  30 37 01 80 79 00 BF 30  ......v007..y..0
0950: 0F 01 C1 30 0F 01 2B BF  30 0F 01 55 80 23 2B BF  ...0..+.0..U.#+.
0960: 30 0F 01 56 80 23 2B C1  30 0F 01 57 80 23 52 06  0..V.#+.0..W.#R.
0970: 80 F0 FF FF 7F F0 FF FF  7F 76 30 30 37 45 06 80  .........v007E..
0980: F0 FF FF 7F F0 FF FF 7F  76 30 30 38 01 80 2B 07  ........v008..+.
0990: 30 0F 01 58 80 1C 0A 80  79 00 BF 30 0F 01 07 30  0..X....y..0...0
09A0: 0F 01 79 00 C1 30 0F 01  07 30 0F 01 79 00 C0 30  ..y..0...0..y..0
09B0: 0F 01 07 30 0F 01 23 27  03 07 30 0F 01 28 2B 07  ...0..#'..0..(+.
09C0: 30 0F 01 59 80 23 2B 07  30 0F 01 5A 80 23 27 03  0..Y.#+.0..Z.#'.
09D0: 07 30 0F 01 29 2B 07 30  0F 01 5B 80 23 52 06 80  .0..)+.0..[.#R..
09E0: F0 FF FF 7F F0 FF FF 7F  76 30 30 38 45 06 80 F0  ........v008E...
09F0: FF FF 7F F0 FF FF 7F 76  30 30 39 01 80 27 03 C0  .......v009..'..
0A00: 30 0F 01 0B 2B C0 30 0F  01 5C 80 23 52 06 80 F0  0...+.0..\.#R...
0A10: FF FF 7F F0 FF FF 7F 76  30 30 39 45 06 80 F0 FF  .......v009E....
0A20: FF 7F F0 FF FF 7F 74 30  30 30 01 80 4A BF 30 0F  ......t000..J.0.
0A30: 01 F0 FF FF 7F 2B BF 30  0F 01 5D 80 23 2B BF 30  .....+.0..].#+.0
0A40: 0F 01 5E 80 23 52 06 80  F0 FF FF 7F F0 FF FF 7F  ..^.#R..........
0A50: 74 30 30 30 24 5F 80 01  80 01 80 25 02 00 10 01  t000$_.....%....
0A60: 80 00 7E 0A 6E F0 FF FF  7F 60 80 99 F0 FF FF 7F  ..~.n....`......
0A70: 1C 61 80 2B BF 30 0F 01  62 80 23 01 A0 0A 02 00  .a.+.0..b.#.....
0A80: 10 03 80 00 A0 0A 6E F0  FF FF 7F 63 80 99 F0 FF  ......n....c....
0A90: FF 7F 1C 61 80 2B BF 30  0F 01 64 80 23 01 A0 0A  ...a.+.0..d.#...
0AA0: 4B BF 30 0F 01 0D 80 7B  BF 30 0F 01 45 06 80 F0  K.0....{.0..E...
0AB0: FF FF 7F F0 FF FF 7F 74  30 30 31 01 80 2B BF 30  .......t001..+.0
0AC0: 0F 01 65 80 23 2B BF 30  0F 01 66 80 23 2B BF 30  ..e.#+.0..f.#+.0
0AD0: 0F 01 67 80 23 4A BF 30  0F 01 F0 FF FF 7F 1C 0A  ..g.#J.0........
0AE0: 80 52 06 80 F0 FF FF 7F  F0 FF FF 7F 74 30 30 31  .R..........t001
0AF0: 45 06 80 F0 FF FF 7F F0  FF FF 7F 74 30 30 32 01  E..........t002.
0B00: 80 2B BF 30 0F 01 68 80  1C 14 80 4A F0 FF FF 7F  .+.0..h....J....
0B10: BF 30 0F 01 23 55 06 80  F0 FF FF 7F F0 FF FF 7F  .0..#U..........
0B20: 74 30 30 32 24 69 80 01  80 01 80 25 02 00 10 01  t002$i.....%....
0B30: 80 00 1C 0C 45 06 80 F0  FF FF 7F F0 FF FF 7F 74  ....E..........t
0B40: 30 30 36 01 80 55 06 80  F0 FF FF 7F F0 FF FF 7F  006..U..........
0B50: 74 30 30 36 2B BF 30 0F  01 6A 80 23 1C 6B 80 45  t006+.0..j.#.k.E
0B60: 06 80 F0 FF FF 7F F0 FF  FF 7F 74 30 30 33 01 80  ..........t003..
0B70: 2B BF 30 0F 01 6C 80 23  2B BF 30 0F 01 6D 80 23  +.0..l.#+.0..m.#
0B80: 27 03 BF 30 0F 01 08 1C  2A 80 52 06 80 F0 FF FF  '..0....*.R.....
0B90: 7F F0 FF FF 7F 74 30 30  33 45 06 80 F0 FF FF 7F  .....t003E......
0BA0: F0 FF FF 7F 74 30 30 35  01 80 2B BF 30 0F 01 6E  ....t005..+.0..n
0BB0: 80 23 2B BF 30 0F 01 6F  80 23 27 03 BF 30 0F 01  .#+.0..o.#'..0..
0BC0: 09 2B BF 30 0F 01 70 80  23 52 06 80 F0 FF FF 7F  .+.0..p.#R......
0BD0: F0 FF FF 7F 74 30 30 35  45 06 80 F0 FF FF 7F F0  ....t005E.......
0BE0: FF FF 7F 74 30 30 34 01  80 2B 07 30 0F 01 71 80  ...t004..+.0..q.
0BF0: 23 4B BF 30 0F 01 0D 80  79 00 BF 30 0F 01 07 30  #K.0....y..0...0
0C00: 0F 01 2B BF 30 0F 01 72  80 23 52 06 80 F0 FF FF  ..+.0..r.#R.....
0C10: 7F F0 FF FF 7F 74 30 30  34 01 62 0D 02 00 10 03  .....t004.b.....
0C20: 80 00 C8 0C 45 06 80 F0  FF FF 7F F0 FF FF 7F 74  ....E..........t
0C30: 30 30 36 01 80 55 06 80  F0 FF FF 7F F0 FF FF 7F  006..U..........
0C40: 74 30 30 36 2B BF 30 0F  01 73 80 23 2B BF 30 0F  t006+.0..s.#+.0.
0C50: 01 74 80 23 1C 6B 80 45  06 80 F0 FF FF 7F F0 FF  .t.#.k.E........
0C60: FF 7F 74 30 30 33 01 80  2B BF 30 0F 01 75 80 23  ..t003..+.0..u.#
0C70: 27 03 BF 30 0F 01 08 52  06 80 F0 FF FF 7F F0 FF  '..0...R........
0C80: FF 7F 74 30 30 33 45 06  80 F0 FF FF 7F F0 FF FF  ..t003E.........
0C90: 7F 74 30 30 35 01 80 2B  BF 30 0F 01 76 80 23 2B  .t005..+.0..v.#+
0CA0: BF 30 0F 01 77 80 23 27  03 BF 30 0F 01 09 2B BF  .0..w.#'..0...+.
0CB0: 30 0F 01 78 80 23 52 06  80 F0 FF FF 7F F0 FF FF  0..x.#R.........
0CC0: 7F 74 30 30 35 01 62 0D  02 00 10 79 80 00 4C 0D  .t005.b....y..L.
0CD0: 45 06 80 F0 FF FF 7F F0  FF FF 7F 74 30 30 36 01  E..........t006.
0CE0: 80 55 06 80 F0 FF FF 7F  F0 FF FF 7F 74 30 30 36  .U..........t006
0CF0: 2B BF 30 0F 01 7A 80 23  2B BF 30 0F 01 7B 80 23  +.0..z.#+.0..{.#
0D00: 1C 6B 80 45 06 80 F0 FF  FF 7F F0 FF FF 7F 74 30  .k.E..........t0
0D10: 30 35 01 80 27 03 BF 30  0F 01 08 2B BF 30 0F 01  05..'..0...+.0..
0D20: 7C 80 23 2B BF 30 0F 01  7D 80 23 27 03 BF 30 0F  |.#+.0..}.#'..0.
0D30: 01 09 2B BF 30 0F 01 7E  80 23 52 06 80 F0 FF FF  ..+.0..~.#R.....
0D40: 7F F0 FF FF 7F 74 30 30  35 01 62 0D 02 00 10 02  .....t005.b.....
0D50: 80 00 62 0D 2B BF 30 0F  01 7F 80 23 01 24 0B 01  ..b.+.0....#.$..
0D60: 62 0D 27 03 C0 30 0F 01  09 45 06 80 F0 FF FF 7F  b.'..0...E......
0D70: F0 FF FF 7F 74 30 30 37  01 80 4A BF 30 0F 01 C0  ....t007..J.0...
0D80: 30 0F 01 4A F0 FF FF 7F  C0 30 0F 01 4A 07 30 0F  0..J.....0..J.0.
0D90: 01 C0 30 0F 01 4A C1 30  0F 01 C0 30 0F 01 2B C0  ..0..J.0...0..+.
0DA0: 30 0F 01 80 80 23 52 06  80 F0 FF FF 7F F0 FF FF  0....#R.........
0DB0: 7F 74 30 30 37 45 06 80  F0 FF FF 7F F0 FF FF 7F  .t007E..........
0DC0: 74 30 30 38 01 80 2B BF  30 0F 01 81 80 23 6B 69  t008..+.0....#ki
0DD0: 64 6C 30 C0 30 0F 01 1C  2A 80 52 06 80 F0 FF FF  dl0.0...*.R.....
0DE0: 7F F0 FF FF 7F 74 30 30  38 45 06 80 F0 FF FF 7F  .....t008E......
0DF0: F0 FF FF 7F 74 30 30 39  01 80 2B C0 30 0F 01 82  ....t009..+.0...
0E00: 80 1C 14 80 27 03 C0 30  0F 01 0D 23 27 03 C1 30  ....'..0...#'..0
0E10: 0F 01 03 2B C1 30 0F 01  83 80 23 27 03 C1 30 0F  ...+.0....#'..0.
0E20: 01 04 52 06 80 F0 FF FF  7F F0 FF FF 7F 74 30 30  ..R..........t00
0E30: 39 45 06 80 F0 FF FF 7F  F0 FF FF 7F 72 30 30 30  9E..........r000
0E40: 01 80 6B 69 64 6C 30 C0  30 0F 01 79 00 C0 30 0F  ..kidl0.0..y..0.
0E50: 01 C1 30 0F 01 2B C0 30  0F 01 84 80 23 2B C0 30  ..0..+.0....#+.0
0E60: 0F 01 85 80 23 2B C1 30  0F 01 86 80 23 52 06 80  ....#+.0....#R..
0E70: F0 FF FF 7F F0 FF FF 7F  72 30 30 30 45 06 80 F0  ........r000E...
0E80: FF FF 7F F0 FF FF 7F 72  30 30 31 01 80 7B C0 30  .......r001..{.0
0E90: 0F 01 2B C0 30 0F 01 87  80 23 27 03 C0 30 0F 01  ..+.0....#'..0..
0EA0: 06 2B C0 30 0F 01 88 80  23 52 06 80 F0 FF FF 7F  .+.0....#R......
0EB0: F0 FF FF 7F 72 30 30 31  45 00 80 C3 30 0F 01 C3  ....r001E...0...
0EC0: 30 0F 01 6F 76 6C 31 01  80 45 06 80 F0 FF FF 7F  0..ovl1..E......
0ED0: F0 FF FF 7F 72 30 30 32  01 80 2B C0 30 0F 01 89  ....r002..+.0...
0EE0: 80 23 2B C0 30 0F 01 8A  80 23 52 06 80 F0 FF FF  .#+.0....#R.....
0EF0: 7F F0 FF FF 7F 72 30 30  32 45 06 80 F0 FF FF 7F  .....r002E......
0F00: F0 FF FF 7F 72 30 30 33  01 80 5D 01 80 32 80 27  ....r003..]..2.'
0F10: 03 BF 30 0F 01 08 2B BF  30 0F 01 8B 80 23 27 03  ..0...+.0....#'.
0F20: C0 30 0F 01 07 1C 14 80  2B C0 30 0F 01 8C 80 23  .0......+.0....#
0F30: 5C 00 8D 80 5C 01 8D 80  9A 52 06 80 F0 FF FF 7F  \...\....R......
0F40: F0 FF FF 7F 72 30 30 33  45 00 80 C3 30 0F 01 C3  ....r003E...0...
0F50: 30 0F 01 62 6C 6F 6E 01  80 45 06 80 F0 FF FF 7F  0..blon..E......
0F60: F0 FF FF 7F 72 30 30 34  01 80 55 06 80 F0 FF FF  ....r004..U.....
0F70: 7F F0 FF FF 7F 72 30 30  34 45 00 80 F0 FF FF 7F  .....r004E......
0F80: F0 FF FF 7F 62 6C 6F 66  01 80 2B C0 30 0F 01 8E  ....blof..+.0...
0F90: 80 23 45 00 80 C3 30 0F  01 C3 30 0F 01 62 6C 6F  .#E...0...0..blo
0FA0: 6E 01 80 45 06 80 F0 FF  FF 7F F0 FF FF 7F 72 30  n..E..........r0
0FB0: 30 35 01 80 27 03 BF 30  0F 01 09 55 06 80 F0 FF  05..'..0...U....
0FC0: FF 7F F0 FF FF 7F 72 30  30 35 45 06 80 F0 FF FF  ......r005E.....
0FD0: 7F F0 FF FF 7F 72 30 30  36 01 80 2B BF 30 0F 01  .....r006..+.0..
0FE0: 8F 80 1C 14 80 45 00 80  F0 FF FF 7F F0 FF FF 7F  .....E..........
0FF0: 62 6C 6F 66 01 80 23 2B  C1 30 0F 01 90 80 1C 0A  blof..#+.0......
1000: 80 79 00 C0 30 0F 01 C1  30 0F 01 23 55 06 80 F0  .y..0...0..#U...
1010: FF FF 7F F0 FF FF 7F 72  30 30 36 45 06 80 F0 FF  .......r006E....
1020: FF 7F F0 FF FF 7F 72 30  30 37 01 80 27 03 07 30  ......r007..'..0
1030: 0F 01 28 2B 07 30 0F 01  91 80 1C 0A 80 4A C0 30  ..(+.0.......J.0
1040: 0F 01 07 30 0F 01 23 27  03 07 30 0F 01 29 27 03  ...0..#'..0..)'.
1050: C0 30 0F 01 0B 2B C0 30  0F 01 92 80 23 55 06 80  .0...+.0....#U..
1060: F0 FF FF 7F F0 FF FF 7F  72 30 30 37 45 06 80 F0  ........r007E...
1070: FF FF 7F F0 FF FF 7F 72  30 30 38 01 80 27 03 BF  .......r008..'..
1080: 30 0F 01 06 2B BF 30 0F  01 93 80 23 27 03 BF 30  0...+.0....#'..0
1090: 0F 01 07 4A C1 30 0F 01  BF 30 0F 01 2B C1 30 0F  ...J.0...0..+.0.
10A0: 01 94 80 23 4A 07 30 0F  01 BF 30 0F 01 1C 0A 80  ...#J.0...0.....
10B0: 52 06 80 F0 FF FF 7F F0  FF FF 7F 72 30 30 38 45  R..........r008E
10C0: 06 80 F0 FF FF 7F F0 FF  FF 7F 72 30 30 39 01 80  ..........r009..
10D0: 4A C0 30 0F 01 BF 30 0F  01 2B 07 30 0F 01 95 80  J.0...0..+.0....
10E0: 1C 0A 80 79 00 BF 30 0F  01 07 30 0F 01 23 2B BF  ...y..0...0..#+.
10F0: 30 0F 01 96 80 23 7B BF  30 0F 01 1C 0A 80 52 06  0....#{.0.....R.
1100: 80 F0 FF FF 7F F0 FF FF  7F 72 30 30 39 45 06 80  .........r009E..
1110: F0 FF FF 7F F0 FF FF 7F  71 30 30 30 01 80 1C 0B  ........q000....
1120: 80 2B BF 30 0F 01 97 80  23 2B BF 30 0F 01 98 80  .+.0....#+.0....
1130: 23 29 10 F0 FF FF 7F 97  2B BF 30 0F 01 99 80 23  #)......+.0....#
1140: 52 06 80 F0 FF FF 7F F0  FF FF 7F 71 30 30 30 45  R..........q000E
1150: 00 80 C3 30 0F 01 C3 30  0F 01 6F 76 6C 31 01 80  ...0...0..ovl1..
1160: 45 06 80 F0 FF FF 7F F0  FF FF 7F 71 30 30 31 01  E..........q001.
1170: 80 2B BF 30 0F 01 9A 80  23 52 06 80 F0 FF FF 7F  .+.0....#R......
1180: F0 FF FF 7F 71 30 30 31  45 00 80 C3 30 0F 01 C3  ....q001E...0...
1190: 30 0F 01 6F 76 6C 31 01  80 45 06 80 F0 FF FF 7F  0..ovl1..E......
11A0: F0 FF FF 7F 71 30 30 32  01 80 2B BF 30 0F 01 9B  ....q002..+.0...
11B0: 80 23 52 06 80 F0 FF FF  7F F0 FF FF 7F 71 30 30  .#R..........q00
11C0: 32 45 00 80 C3 30 0F 01  C3 30 0F 01 6F 76 6C 31  2E...0...0..ovl1
11D0: 01 80 45 06 80 F0 FF FF  7F F0 FF FF 7F 71 30 30  ..E..........q00
11E0: 33 01 80 2B BF 30 0F 01  9C 80 23 52 06 80 F0 FF  3..+.0....#R....
11F0: FF 7F F0 FF FF 7F 71 30  30 33 45 00 80 C3 30 0F  ......q003E...0.
1200: 01 C3 30 0F 01 6F 76 6C  31 01 80 45 06 80 F0 FF  ..0..ovl1..E....
1210: FF 7F F0 FF FF 7F 71 30  30 34 01 80 2B BF 30 0F  ......q004..+.0.
1220: 01 9D 80 23 2B BF 30 0F  01 9E 80 23 2B BF 30 0F  ...#+.0....#+.0.
1230: 01 9F 80 23 52 06 80 F0  FF FF 7F F0 FF FF 7F 71  ...#R..........q
1240: 30 30 34 45 00 80 C3 30  0F 01 C3 30 0F 01 6F 76  004E...0...0..ov
1250: 6C 31 01 80 45 06 80 F0  FF FF 7F F0 FF FF 7F 71  l1..E..........q
1260: 30 30 35 01 80 2B BF 30  0F 01 A0 80 23 2B BF 30  005..+.0....#+.0
1270: 0F 01 A1 80 23 52 06 80  F0 FF FF 7F F0 FF FF 7F  ....#R..........
1280: 71 30 30 35 45 06 80 F0  FF FF 7F F0 FF FF 7F 71  q005E..........q
1290: 30 30 36 01 80 2B C1 30  0F 01 A2 80 23 52 06 80  006..+.0....#R..
12A0: F0 FF FF 7F F0 FF FF 7F  71 30 30 36 45 06 80 F0  ........q006E...
12B0: FF FF 7F F0 FF FF 7F 71  30 30 37 01 80 2B C0 30  .......q007..+.0
12C0: 0F 01 A3 80 23 52 06 80  F0 FF FF 7F F0 FF FF 7F  ....#R..........
12D0: 71 30 30 37 45 06 80 F0  FF FF 7F F0 FF FF 7F 71  q007E..........q
12E0: 30 30 38 01 80 79 00 BF  30 0F 01 07 30 0F 01 2B  008..y..0...0..+
12F0: BF 30 0F 01 A4 80 23 2B  07 30 0F 01 A5 80 23 2B  .0....#+.0....#+
1300: 07 30 0F 01 A6 80 23 52  06 80 F0 FF FF 7F F0 FF  .0....#R........
1310: FF 7F 71 30 30 38 45 06  80 F0 FF FF 7F F0 FF FF  ..q008E.........
1320: 7F 71 30 30 39 01 80 27  03 C0 30 0F 01 0B 2B C0  .q009..'..0...+.
1330: 30 0F 01 A7 80 23 7B BF  30 0F 01 2B BF 30 0F 01  0....#{.0..+.0..
1340: A8 80 23 52 06 80 F0 FF  FF 7F F0 FF FF 7F 71 30  ..#R..........q0
1350: 30 39 45 06 80 F0 FF FF  7F F0 FF FF 7F 70 30 30  09E..........p00
1360: 30 01 80 2B BF 30 0F 01  A9 80 23 2B BF 30 0F 01  0..+.0....#+.0..
1370: AA 80 23 4A BF 30 0F 01  F0 FF FF 7F 1C 0A 80 52  ..#J.0.........R
1380: 06 80 F0 FF FF 7F F0 FF  FF 7F 70 30 30 30 45 06  ..........p000E.
1390: 80 F0 FF FF 7F F0 FF FF  7F 70 30 30 31 01 80 2B  .........p001..+
13A0: BF 30 0F 01 AB 80 1C 0B  80 4A F0 FF FF 7F BF 30  .0.......J.....0
13B0: 0F 01 23 24 AC 80 01 80  01 80 25 02 00 10 01 80  ..#$......%.....
13C0: 00 12 14 6E F0 FF FF 7F  60 80 99 F0 FF FF 7F 1C  ...n....`.......
13D0: 61 80 55 06 80 F0 FF FF  7F F0 FF FF 7F 70 30 30  a.U..........p00
13E0: 31 45 06 80 F0 FF FF 7F  F0 FF FF 7F 70 30 30 32  1E..........p002
13F0: 01 80 2B BF 30 0F 01 AD  80 23 2B BF 30 0F 01 AE  ..+.0....#+.0...
1400: 80 23 2B BF 30 0F 01 AF  80 23 03 01 10 03 80 01  .#+.0....#......
1410: 5C 14 02 00 10 03 80 00  5C 14 6E F0 FF FF 7F 63  \.......\.n....c
1420: 80 99 F0 FF FF 7F 1C 61  80 55 06 80 F0 FF FF 7F  .......a.U......
1430: F0 FF FF 7F 70 30 30 31  45 06 80 F0 FF FF 7F F0  ....p001E.......
1440: FF FF 7F 70 30 30 32 01  80 2B BF 30 0F 01 B0 80  ...p002..+.0....
1450: 23 2B BF 30 0F 01 B1 80  23 01 5C 14 45 00 80 F0  #+.0....#.\.E...
1460: FF FF 7F F0 FF FF 7F 66  64 6F 32 01 80 1C B2 80  .......fdo2.....
1470: 52 06 80 F0 FF FF 7F F0  FF FF 7F 70 30 30 32 2B  R..........p002+
1480: 2B 30 0F 01 B3 80 23 2B  2B 30 0F 01 B4 80 23 2B  +0....#++0....#+
1490: 2B 30 0F 01 B5 80 23 1C  14 80 5C 00 B6 80 5C 01  +0....#...\...\.
14A0: B6 80 9A 46 00 45 00 80  F0 FF FF 7F F0 FF FF 7F  ...F.E..........
14B0: 66 64 69 32 01 80 21 00                           fdi2..!.        
```

#### Opcodes

```
  0: 0x0006 [0x20] SET_CLI_EVENT_UC_FLAG: Lock player control
  1: 0x0008 [0x46] CAMERA_CONTROL: Disable user control
  2: 0x000A [0x42] SET_CLI_EVENT_CANCEL_DATA()
  3: 0x000B [0x45] LOAD_SCHEDULED_TASK: Load scheduler "fdo1" with entities [LocalPlayer, LocalPlayer], work=[200*, 0*]
  4: 0x001C [0x55] WAIT_LOAD_SCHEDULER: Wait for scheduler "fdo1" with entities [LocalPlayer, LocalPlayer], work=200*
  5: 0x002B [0x38] SET_CLIENT_EVENT_MODE(mode=3*)
  6: 0x002E [0x94] LocalPlayer->Render.Flags3 ^= 0x01
  7: 0x0034 [0x97] SAVE_SET_WIND_VALUES(wind_base=0x8001, wind_width=0x8003)
  8: 0x0039 [0x75] LOAD_ROOM(Load indoor room, room=439*)
  9: 0x003D [0x75] LOAD_ROOM(No action)
 10: 0x003F [0x27] REQ_SET(priority=0x03, entity_id=LocalPlayer, tag_num=0x18)
 11: 0x0046 [0x4E] SET_ENTITY_HIDE_FLAG: Hide LocalPlayer
 12: 0x004C [0x4E] SET_ENTITY_HIDE_FLAG: Show Wolfgang (ID: 17772551/0x010F3007)
 13: 0x0052 [0x4E] SET_ENTITY_HIDE_FLAG: Show Pieuje (ID: 17772735/0x010F30BF)
 14: 0x0058 [0x4E] SET_ENTITY_HIDE_FLAG: Show Rahal (ID: 17772739/0x010F30C3)
 15: 0x005E [0x4E] SET_ENTITY_HIDE_FLAG: Show Volker (ID: 17772737/0x010F30C1)
 16: 0x0064 [0x4E] SET_ENTITY_HIDE_FLAG: Show Ayame (ID: 17772738/0x010F30C2)
 17: 0x006A [0x4E] SET_ENTITY_HIDE_FLAG: Show Shantotto (ID: 17772736/0x010F30C0)
 18: 0x0070 [0x92] Wolfgang (ID: 17772551/0x010F3007)->Render.Flags3 ^= 0x01
 19: 0x0076 [0x92] Pieuje (ID: 17772735/0x010F30BF)->Render.Flags3 ^= 0x01
 20: 0x007C [0x92] Rahal (ID: 17772739/0x010F30C3)->Render.Flags3 ^= 0x01
 21: 0x0082 [0x92] Volker (ID: 17772737/0x010F30C1)->Render.Flags3 ^= 0x01
 22: 0x0088 [0x92] Ayame (ID: 17772738/0x010F30C2)->Render.Flags3 ^= 0x01
 23: 0x008E [0x92] Shantotto (ID: 17772736/0x010F30C0)->Render.Flags3 ^= 0x01
 24: 0x0094 [0x92] Yavoraile (ID: 17772573/0x010F301D)->Render.Flags3 ^= 0x01
 25: 0x009A [0x92] Arenuel (ID: 17772575/0x010F301F)->Render.Flags3 ^= 0x01
 26: 0x00A0 [0x4E] SET_ENTITY_HIDE_FLAG: Hide Taillegeas (ID: 17772720/0x010F30B0)
 27: 0x00A6 [0x80] LOAD_WAIT(entity=Wolfgang (ID: 17772551/0x010F3007))
 28: 0x00AB [0x80] LOAD_WAIT(entity=Pieuje (ID: 17772735/0x010F30BF))
 29: 0x00B0 [0x80] LOAD_WAIT(entity=Rahal (ID: 17772739/0x010F30C3))
 30: 0x00B5 [0x80] LOAD_WAIT(entity=Volker (ID: 17772737/0x010F30C1))
 31: 0x00BA [0x80] LOAD_WAIT(entity=Ayame (ID: 17772738/0x010F30C2))
 32: 0x00BF [0x80] LOAD_WAIT(entity=Shantotto (ID: 17772736/0x010F30C0))
 33: 0x00C4 [0x5C] MUSIC_CONTROL: Set Idle (Day) music to song 127*
 34: 0x00C8 [0x5C] MUSIC_CONTROL: Set Idle (Night) music to song 127*
 35: 0x00CC [0x9A] WAIT_MUSIC_SERVER()
 36: 0x00CD [0x27] REQ_SET(priority=0x03, entity_id=Pieuje (ID: 17772735/0x010F30BF), tag_num=0x02)
 37: 0x00D4 [0x45] LOAD_SCHEDULED_TASK: Load scheduler "x000" with entities [LocalPlayer, LocalPlayer], work=[88*, 0*]
 38: 0x00E5 [0x45] LOAD_SCHEDULED_TASK: Load scheduler "fdi1" with entities [LocalPlayer, LocalPlayer], work=[200*, 0*]
 39: 0x00F6 [0x55] WAIT_LOAD_SCHEDULER: Wait for scheduler "fdi1" with entities [LocalPlayer, LocalPlayer], work=200*
 40: 0x0105 [0x4A] Wolfgang (ID: 17772551/0x010F3007) looks at Pieuje (ID: 17772735/0x010F30BF)
 41: 0x010E [0x4A] Volker (ID: 17772737/0x010F30C1) looks at Pieuje (ID: 17772735/0x010F30BF)
 42: 0x0117 [0x4A] Shantotto (ID: 17772736/0x010F30C0) looks at Pieuje (ID: 17772735/0x010F30BF)
 43: 0x0120 [0x2A] GET_REQ_LEVEL(level=3, entity_id=Pieuje (ID: 17772735/0x010F30BF))
 44: 0x0126 [0x55] WAIT_LOAD_SCHEDULER: Wait for scheduler "x000" with entities [LocalPlayer, LocalPlayer], work=88*
 45: 0x0135 [0x79] Wolfgang (ID: 17772551/0x010F3007) looks at Pieuje (ID: 17772735/0x010F30BF) (Basic look)
 46: 0x013F [0x2B] Pieuje (ID: 17772735/0x010F30BF) [13851*]:
    → "You have gathered here today at the request of the Kingdom of San d'Oria. I thank you on behalf of the king."
 47: 0x0146 [0x23] WAIT_FOR_DIALOG_INTERACTION
 48: 0x0147 [0x45] LOAD_SCHEDULED_TASK: Load scheduler "x001" with entities [LocalPlayer, LocalPlayer], work=[88*, 0*]
 49: 0x0158 [0x2B] Pieuje (ID: 17772735/0x010F30BF) [13852*]:
    → "This is the first time in history that an emergency summit of this nature has taken place. The issue I lay before you is beyond the scope of a single nation..."
 50: 0x015F [0x23] WAIT_FOR_DIALOG_INTERACTION
 51: 0x0160 [0x4A] Wolfgang (ID: 17772551/0x010F3007) looks at LocalPlayer
 52: 0x0169 [0x4C] EventEntity->StatusEvent = 8 // Open door
 53: 0x016A [0x2B] Wolfgang (ID: 17772551/0x010F3007) [13853*]:
    → "Prince Pieuje! The adventurer you have permitted to attend the summit has arrived."
 54: 0x0171 [0x23] WAIT_FOR_DIALOG_INTERACTION
 55: 0x0172 [0x4E] SET_ENTITY_HIDE_FLAG: Show LocalPlayer
 56: 0x0178 [0x79] LocalPlayer looks at Pieuje (ID: 17772735/0x010F30BF) (Basic look)
 57: 0x0182 [0x27] REQ_SET(priority=0x03, entity_id=LocalPlayer, tag_num=0x19)
 58: 0x0189 [0x1C] WAIT(10* ticks)
 59: 0x018C [0x52] END_LOAD_SCHEDULER: End scheduler "x001" with entities [LocalPlayer, LocalPlayer], work=88*
 60: 0x019B [0x45] LOAD_SCHEDULED_TASK: Load scheduler "x002" with entities [LocalPlayer, LocalPlayer], work=[88*, 0*]
 61: 0x01AC [0x1C] WAIT(20* ticks)
 62: 0x01AF [0x4A] Pieuje (ID: 17772735/0x010F30BF) looks at LocalPlayer
 63: 0x01B8 [0x2A] GET_REQ_LEVEL(level=3, entity_id=LocalPlayer)
 64: 0x01BE [0x4D] EventEntity->StatusEvent = 9 // Close door
 65: 0x01BF [0x2B] Pieuje (ID: 17772735/0x010F30BF) [13854*]:
    → "Thank you for coming, <Player>."
 66: 0x01C6 [0x23] WAIT_FOR_DIALOG_INTERACTION
 67: 0x01C7 [0x52] END_LOAD_SCHEDULER: End scheduler "x002" with entities [LocalPlayer, LocalPlayer], work=88*
 68: 0x01D6 [0x7B] Pieuje (ID: 17772735/0x010F30BF) stops talking
 69: 0x01DB [0x4B] UPDATE_ENTITY_YAW(entity=Pieuje (ID: 17772735/0x010F30BF), yaw=22.5°*)
 70: 0x01E2 [0x1C] WAIT(10* ticks)
 71: 0x01E5 [0x45] LOAD_SCHEDULED_TASK: Load scheduler "x003" with entities [LocalPlayer, LocalPlayer], work=[88*, 0*]
 72: 0x01F6 [0x79] Wolfgang (ID: 17772551/0x010F3007) looks at Pieuje (ID: 17772735/0x010F30BF) (Basic look)
 73: 0x0200 [0x2B] Pieuje (ID: 17772735/0x010F30BF) [13855*]:
    → "Allow me to begin by explaining the events that have led to today's meeting."
 74: 0x0207 [0x23] WAIT_FOR_DIALOG_INTERACTION
 75: 0x0208 [0x2B] Pieuje (ID: 17772735/0x010F30BF) [13856*]:
    → "It began when <Player>, mercenary and adventurer, arrived at the gate of the Chateau d'Oraguille bearing a letter of extreme importance."
 76: 0x020F [0x23] WAIT_FOR_DIALOG_INTERACTION
 77: 0x0210 [0x52] END_LOAD_SCHEDULER: End scheduler "x003" with entities [LocalPlayer, LocalPlayer], work=88*
 78: 0x021F [0x45] LOAD_SCHEDULED_TASK: Load scheduler "x004" with entities [LocalPlayer, LocalPlayer], work=[88*, 0*]
 79: 0x0230 [0x2B] Pieuje (ID: 17772735/0x010F30BF) [13857*]:
    → "The contents of that letter prompted me to call the nations together..."
 80: 0x0237 [0x23] WAIT_FOR_DIALOG_INTERACTION
 81: 0x0238 [0x2B] Pieuje (ID: 17772735/0x010F30BF) [13858*]:
    → "It was penned by a sage known as Raillefal, and described in painstaking detail the current state of Aht Urhgan."
 82: 0x023F [0x23] WAIT_FOR_DIALOG_INTERACTION
 83: 0x0240 [0x52] END_LOAD_SCHEDULER: End scheduler "x004" with entities [LocalPlayer, LocalPlayer], work=88*
 84: 0x024F [0x45] LOAD_SCHEDULED_TASK: Load scheduler "x005" with entities [LocalPlayer, LocalPlayer], work=[88*, 0*]
 85: 0x0260 [0x2B] Volker (ID: 17772737/0x010F30C1) [13861*]:
    → "The Empire!?"
 86: 0x0267 [0x23] WAIT_FOR_DIALOG_INTERACTION
 87: 0x0268 [0x55] WAIT_LOAD_SCHEDULER: Wait for scheduler "x005" with entities [LocalPlayer, LocalPlayer], work=88*
 88: 0x0277 [0x45] LOAD_SCHEDULED_TASK: Load scheduler "x00a" with entities [LocalPlayer, LocalPlayer], work=[88*, 0*]
 89: 0x0288 [0x2B] Wolfgang (ID: 17772551/0x010F3007) [13859*]:
    → "This is the same nation that has the port in a frenzy over mercenary recruitment...?"
 90: 0x028F [0x1C] WAIT(30* ticks)
 91: 0x0292 [0x79] Pieuje (ID: 17772735/0x010F30BF) looks at Wolfgang (ID: 17772551/0x010F3007) (Basic look)
 92: 0x029C [0x23] WAIT_FOR_DIALOG_INTERACTION
 93: 0x029D [0x2B] Pieuje (ID: 17772735/0x010F30BF) [13860*]:
    → "The very same. I speak of the Near Eastern nation, the Empire of Aht Urhgan."
 94: 0x02A4 [0x23] WAIT_FOR_DIALOG_INTERACTION
 95: 0x02A5 [0x2B] Pieuje (ID: 17772735/0x010F30BF) [13862*]:
    → "Aht Urhgan is now under pressure from three separate beastman armies, and Al Zahbi, the mighty capital itself, is in danger of falling."
 96: 0x02AC [0x23] WAIT_FOR_DIALOG_INTERACTION
 97: 0x02AD [0x2B] Wolfgang (ID: 17772551/0x010F3007) [13863*]:
    → "Great Altana..."
 98: 0x02B4 [0x23] WAIT_FOR_DIALOG_INTERACTION
 99: 0x02B5 [0x52] END_LOAD_SCHEDULER: End scheduler "x00a" with entities [LocalPlayer, LocalPlayer], work=88*
100: 0x02C4 [0x45] LOAD_SCHEDULED_TASK: Load scheduler "x006" with entities [LocalPlayer, LocalPlayer], work=[88*, 0*]
101: 0x02D5 [0x2B] Volker (ID: 17772737/0x010F30C1) [13864*]:
    → "The Silent Empire..."
102: 0x02DC [0x23] WAIT_FOR_DIALOG_INTERACTION
103: 0x02DD [0x2B] Volker (ID: 17772737/0x010F30C1) [13865*]:
    → "It was once called that."
104: 0x02E4 [0x23] WAIT_FOR_DIALOG_INTERACTION
105: 0x02E5 [0x2B] Volker (ID: 17772737/0x010F30C1) [13866*]:
    → "You may have been too young to know this, Your Highness, but the rest of us should remember."
106: 0x02EC [0x23] WAIT_FOR_DIALOG_INTERACTION
107: 0x02ED [0x52] END_LOAD_SCHEDULER: End scheduler "x006" with entities [LocalPlayer, LocalPlayer], work=88*
108: 0x02FC [0x45] LOAD_SCHEDULED_TASK: Load scheduler "ovl1" with entities [Shantotto (ID: 17772736/0x010F30C0), Shantotto (ID: 17772736/0x010F30C0)], work=[200*, 0*]
109: 0x030D [0x45] LOAD_SCHEDULED_TASK: Load scheduler "x007" with entities [LocalPlayer, LocalPlayer], work=[88*, 0*]
110: 0x031E [0x55] WAIT_LOAD_SCHEDULER: Wait for scheduler "x007" with entities [LocalPlayer, LocalPlayer], work=88*
111: 0x032D [0x2B] Shantotto (ID: 17772736/0x010F30C0) [13867*]:
    → "..."
112: 0x0334 [0x23] WAIT_FOR_DIALOG_INTERACTION
113: 0x0335 [0x4A] Pieuje (ID: 17772735/0x010F30BF) looks at Volker (ID: 17772737/0x010F30C1)
114: 0x033E [0x45] LOAD_SCHEDULED_TASK: Load scheduler "x008" with entities [LocalPlayer, LocalPlayer], work=[88*, 0*]
115: 0x034F [0x2B] Pieuje (ID: 17772735/0x010F30BF) [13868*]:
    → "I am aware of the term."
116: 0x0356 [0x23] WAIT_FOR_DIALOG_INTERACTION
117: 0x0357 [0x2B] Pieuje (ID: 17772735/0x010F30BF) [13869*]:
    → "In the time of the Great War, the Empire possessed an army greater than the combined forces of the allied nations."
118: 0x035E [0x23] WAIT_FOR_DIALOG_INTERACTION
119: 0x035F [0x2B] Pieuje (ID: 17772735/0x010F30BF) [13870*]:
    → "Yet not a single soldier was sent in response to calls for aid..."
120: 0x0366 [0x23] WAIT_FOR_DIALOG_INTERACTION
121: 0x0367 [0x52] END_LOAD_SCHEDULER: End scheduler "x008" with entities [LocalPlayer, LocalPlayer], work=88*
122: 0x0376 [0x45] LOAD_SCHEDULED_TASK: Load scheduler "x009" with entities [LocalPlayer, LocalPlayer], work=[88*, 0*]
123: 0x0387 [0x2B] Volker (ID: 17772737/0x010F30C1) [13871*]:
    → "My apologies. You are well versed in history."
124: 0x038E [0x23] WAIT_FOR_DIALOG_INTERACTION
125: 0x038F [0x2B] Volker (ID: 17772737/0x010F30C1) [13872*]:
    → "But knowing this, you should also know that we have no obligation to lift even a finger for Aht Urhgan, no matter how serious her predicament."
126: 0x0396 [0x23] WAIT_FOR_DIALOG_INTERACTION
127: 0x0397 [0x4A] Shantotto (ID: 17772736/0x010F30C0) looks at Volker (ID: 17772737/0x010F30C1)
128: 0x03A0 [0x52] END_LOAD_SCHEDULER: End scheduler "x009" with entities [LocalPlayer, LocalPlayer], work=88*
129: 0x03AF [0x45] LOAD_SCHEDULED_TASK: Load scheduler "w000" with entities [LocalPlayer, LocalPlayer], work=[88*, 0*]
130: 0x03C0 [0x2B] Shantotto (ID: 17772736/0x010F30C0) [13873*]:
    → "Why, Volker, always so calm and cool. You've grown hot and bothered, and your speech is most cruel."
131: 0x03C7 [0x23] WAIT_FOR_DIALOG_INTERACTION
132: 0x03C8 [0x4A] Volker (ID: 17772737/0x010F30C1) looks at Shantotto (ID: 17772736/0x010F30C0)
133: 0x03D1 [0x1C] WAIT(10* ticks)
134: 0x03D4 [0x52] END_LOAD_SCHEDULER: End scheduler "w000" with entities [LocalPlayer, LocalPlayer], work=88*
135: 0x03E3 [0x45] LOAD_SCHEDULED_TASK: Load scheduler "w001" with entities [LocalPlayer, LocalPlayer], work=[88*, 0*]
136: 0x03F4 [0x2B] Volker (ID: 17772737/0x010F30C1) [13874*]:
    → "You should understand, Doctor Shantotto."
137: 0x03FB [0x23] WAIT_FOR_DIALOG_INTERACTION
138: 0x03FC [0x2B] Volker (ID: 17772737/0x010F30C1) [13875*]:
    → "You were there on that battlefield. Who knows how much suffering could've been avoided if we'd had the help of the Empire..."
139: 0x0403 [0x23] WAIT_FOR_DIALOG_INTERACTION
140: 0x0404 [0x27] REQ_SET(priority=0x03, entity_id=Shantotto (ID: 17772736/0x010F30C0), tag_num=0x0B)
141: 0x040B [0x2B] Shantotto (ID: 17772736/0x010F30C0) [13876*]:
    → "On the contrary, my dear musketeer. We owe them more than you can imagine, I fear."
142: 0x0412 [0x23] WAIT_FOR_DIALOG_INTERACTION
143: 0x0413 [0x52] END_LOAD_SCHEDULER: End scheduler "w001" with entities [LocalPlayer, LocalPlayer], work=88*
144: 0x0422 [0x45] LOAD_SCHEDULED_TASK: Load scheduler "w003" with entities [LocalPlayer, LocalPlayer], work=[88*, 0*]
145: 0x0433 [0x2B] Volker (ID: 17772737/0x010F30C1) [13877*]:
    → "What do you mean!?"
146: 0x043A [0x23] WAIT_FOR_DIALOG_INTERACTION
147: 0x043B [0x52] END_LOAD_SCHEDULER: End scheduler "w003" with entities [LocalPlayer, LocalPlayer], work=88*
148: 0x044A [0x45] LOAD_SCHEDULED_TASK: Load scheduler "w002" with entities [LocalPlayer, LocalPlayer], work=[88*, 0*]
149: 0x045B [0x2B] Shantotto (ID: 17772736/0x010F30C0) [13878*]:
    → "Aht Urhgan has taken many countries under her yoke..."
150: 0x0462 [0x23] WAIT_FOR_DIALOG_INTERACTION
151: 0x0463 [0x2B] Shantotto (ID: 17772736/0x010F30C0) [13879*]:
    → "A ferocious nation that has even bared fangs at the Far Eastern folk."
152: 0x046A [0x23] WAIT_FOR_DIALOG_INTERACTION
153: 0x046B [0x2B] Shantotto (ID: 17772736/0x010F30C0) [13880*]:
    → "Calling the Empire to help in our cause, would be like freeing us from demons in return for dragon jaws."
154: 0x0472 [0x23] WAIT_FOR_DIALOG_INTERACTION
155: 0x0473 [0x52] END_LOAD_SCHEDULER: End scheduler "w002" with entities [LocalPlayer, LocalPlayer], work=88*
156: 0x0482 [0x45] LOAD_SCHEDULED_TASK: Load scheduler "w004" with entities [LocalPlayer, LocalPlayer], work=[88*, 0*]
157: 0x0493 [0x2B] Volker (ID: 17772737/0x010F30C1) [13881*]:
    → "That may be true, but even the close relationship Aht Urhgan had with Tavnazia..."
158: 0x049A [0x23] WAIT_FOR_DIALOG_INTERACTION
159: 0x049B [0x1C] WAIT(15* ticks)
160: 0x049E [0x2B] Pieuje (ID: 17772735/0x010F30BF) [13882*]:
    → "That subject is not--"
161: 0x04A5 [0x23] WAIT_FOR_DIALOG_INTERACTION
162: 0x04A6 [0x52] END_LOAD_SCHEDULER: End scheduler "w004" with entities [LocalPlayer, LocalPlayer], work=88*
163: 0x04B5 [0x45] LOAD_SCHEDULED_TASK: Load scheduler "w005" with entities [LocalPlayer, LocalPlayer], work=[88*, 0*]
164: 0x04C6 [0x2B] Volker (ID: 17772737/0x010F30C1) [13883*]:
    → "...the issue here, I know. Doctor Shantotto, why did Windurst open Mhaura's port to the Empire?"
165: 0x04CD [0x23] WAIT_FOR_DIALOG_INTERACTION
166: 0x04CE [0x7B] Shantotto (ID: 17772736/0x010F30C0) stops talking
167: 0x04D3 [0x27] REQ_SET(priority=0x03, entity_id=Shantotto (ID: 17772736/0x010F30C0), tag_num=0x09)
168: 0x04DA [0x2B] Shantotto (ID: 17772736/0x010F30C0) [13884*]:
    → "My nation's actions are none of your concern."
169: 0x04E1 [0x23] WAIT_FOR_DIALOG_INTERACTION
170: 0x04E2 [0x2B] Shantotto (ID: 17772736/0x010F30C0) [13885*]:
    → "At least we have a backbone--when will Bastok learn...?"
171: 0x04E9 [0x23] WAIT_FOR_DIALOG_INTERACTION
172: 0x04EA [0x6B] STOP_AND_IDLE: Shantotto (ID: 17772736/0x010F30C0) stops current action and resets to idle (animation="idl0")
173: 0x04F3 [0x52] END_LOAD_SCHEDULER: End scheduler "w005" with entities [LocalPlayer, LocalPlayer], work=88*
174: 0x0502 [0x45] LOAD_SCHEDULED_TASK: Load scheduler "w003" with entities [LocalPlayer, LocalPlayer], work=[88*, 0*]
175: 0x0513 [0x2B] Volker (ID: 17772737/0x010F30C1) [13886*]:
    → "You go too far, Doctor Shantotto..."
176: 0x051A [0x23] WAIT_FOR_DIALOG_INTERACTION
177: 0x051B [0x52] END_LOAD_SCHEDULER: End scheduler "w003" with entities [LocalPlayer, LocalPlayer], work=88*
178: 0x052A [0x45] LOAD_SCHEDULED_TASK: Load scheduler "w006" with entities [LocalPlayer, LocalPlayer], work=[88*, 0*]
179: 0x053B [0x2B] Pieuje (ID: 17772735/0x010F30BF) [13887*]:
    → "Enough! I did not call you here to speak of possible troop contributions."
180: 0x0542 [0x1C] WAIT(50* ticks)
181: 0x0545 [0x4A] Shantotto (ID: 17772736/0x010F30C0) looks at Pieuje (ID: 17772735/0x010F30BF)
182: 0x054E [0x4A] Volker (ID: 17772737/0x010F30C1) looks at Pieuje (ID: 17772735/0x010F30BF)
183: 0x0557 [0x23] WAIT_FOR_DIALOG_INTERACTION
184: 0x0558 [0x52] END_LOAD_SCHEDULER: End scheduler "w006" with entities [LocalPlayer, LocalPlayer], work=88*
185: 0x0567 [0x5D] SET_MUSIC_VOLUME(volume=0*, fade_time=360*)
186: 0x056C [0x45] LOAD_SCHEDULED_TASK: Load scheduler "w007" with entities [LocalPlayer, LocalPlayer], work=[88*, 0*]
187: 0x057D [0x2B] Wolfgang (ID: 17772551/0x010F3007) [13888*]:
    → "Then why are we here, Your Highness?"
188: 0x0584 [0x23] WAIT_FOR_DIALOG_INTERACTION
189: 0x0585 [0x2B] Pieuje (ID: 17772735/0x010F30BF) [13889*]:
    → "Our main concern is the treasure thought to be at the center of this conflict--the Astral Candescence."
190: 0x058C [0x23] WAIT_FOR_DIALOG_INTERACTION
191: 0x058D [0x2B] Volker (ID: 17772737/0x010F30C1) [13890*]:
    → ""Astral Candescence"?"
192: 0x0594 [0x23] WAIT_FOR_DIALOG_INTERACTION
193: 0x0595 [0x5C] MUSIC_CONTROL: Set Idle (Day) music to song 185*
194: 0x0599 [0x5C] MUSIC_CONTROL: Set Idle (Night) music to song 185*
195: 0x059D [0x2B] Pieuje (ID: 17772735/0x010F30BF) [13891*]:
    → "It is described as some manner of musical instrument, but apparently is much more than that."
196: 0x05A4 [0x23] WAIT_FOR_DIALOG_INTERACTION
197: 0x05A5 [0x9A] WAIT_MUSIC_SERVER()
198: 0x05A6 [0x52] END_LOAD_SCHEDULER: End scheduler "w007" with entities [LocalPlayer, LocalPlayer], work=88*
199: 0x05B5 [0x45] LOAD_SCHEDULED_TASK: Load scheduler "w008" with entities [LocalPlayer, LocalPlayer], work=[88*, 0*]
200: 0x05C6 [0x2B] Pieuje (ID: 17772735/0x010F30BF) [13892*]:
    → "This instrument is said to produce a phenomenon known as the "Astral Wind," a breeze that blows from an unidentifiable source."
201: 0x05CD [0x23] WAIT_FOR_DIALOG_INTERACTION
202: 0x05CE [0x2B] Pieuje (ID: 17772735/0x010F30BF) [13893*]:
    → "It creates a melody in a timbre unheard by mortal ears..."
203: 0x05D5 [0x23] WAIT_FOR_DIALOG_INTERACTION
204: 0x05D6 [0x52] END_LOAD_SCHEDULER: End scheduler "w008" with entities [LocalPlayer, LocalPlayer], work=88*
205: 0x05E5 [0x45] LOAD_SCHEDULED_TASK: Load scheduler "w009" with entities [LocalPlayer, LocalPlayer], work=[88*, 0*]
206: 0x05F6 [0x2B] Wolfgang (ID: 17772551/0x010F3007) [13894*]:
    → "I'm confused. How can there be a melody if nothing can be heard...?"
207: 0x05FD [0x23] WAIT_FOR_DIALOG_INTERACTION
208: 0x05FE [0x27] REQ_SET(priority=0x03, entity_id=Shantotto (ID: 17772736/0x010F30C0), tag_num=0x06)
209: 0x0605 [0x2B] Shantotto (ID: 17772736/0x010F30C0) [13895*]:
    → "Astral Wind..."
210: 0x060C [0x23] WAIT_FOR_DIALOG_INTERACTION
211: 0x060D [0x52] END_LOAD_SCHEDULER: End scheduler "w009" with entities [LocalPlayer, LocalPlayer], work=88*
212: 0x061C [0x45] LOAD_SCHEDULED_TASK: Load scheduler "v001" with entities [LocalPlayer, LocalPlayer], work=[88*, 0*]
213: 0x062D [0x2B] Volker (ID: 17772737/0x010F30C1) [13896*]:
    → "Hmph. This is all very unusual, but I'm sure we've all seen stranger things before."
214: 0x0634 [0x23] WAIT_FOR_DIALOG_INTERACTION
215: 0x0635 [0x52] END_LOAD_SCHEDULER: End scheduler "v001" with entities [LocalPlayer, LocalPlayer], work=88*
216: 0x0644 [0x45] LOAD_SCHEDULED_TASK: Load scheduler "ovl1" with entities [Rahal (ID: 17772739/0x010F30C3), Rahal (ID: 17772739/0x010F30C3)], work=[200*, 0*]
217: 0x0655 [0x45] LOAD_SCHEDULED_TASK: Load scheduler "v000" with entities [LocalPlayer, LocalPlayer], work=[88*, 0*]
218: 0x0666 [0x2B] Shantotto (ID: 17772736/0x010F30C0) [13897*]:
    → "An unidentifiable source..."
219: 0x066D [0x23] WAIT_FOR_DIALOG_INTERACTION
220: 0x066E [0x52] END_LOAD_SCHEDULER: End scheduler "v000" with entities [LocalPlayer, LocalPlayer], work=88*
221: 0x067D [0x45] LOAD_SCHEDULED_TASK: Load scheduler "v001" with entities [LocalPlayer, LocalPlayer], work=[88*, 0*]
222: 0x068E [0x2B] Volker (ID: 17772737/0x010F30C1) [13898*]:
    → "In Windurst there is no shortage of magical gadgets. Pens that write by themselves. Brooms that sweep on command..."
223: 0x0695 [0x23] WAIT_FOR_DIALOG_INTERACTION
224: 0x0696 [0x52] END_LOAD_SCHEDULER: End scheduler "v001" with entities [LocalPlayer, LocalPlayer], work=88*
225: 0x06A5 [0x45] LOAD_SCHEDULED_TASK: Load scheduler "ovl1" with entities [Rahal (ID: 17772739/0x010F30C3), Rahal (ID: 17772739/0x010F30C3)], work=[200*, 0*]
226: 0x06B6 [0x45] LOAD_SCHEDULED_TASK: Load scheduler "v000" with entities [LocalPlayer, LocalPlayer], work=[88*, 0*]
227: 0x06C7 [0x2B] Shantotto (ID: 17772736/0x010F30C0) [13899*]:
    → "A breeze..."
228: 0x06CE [0x23] WAIT_FOR_DIALOG_INTERACTION
229: 0x06CF [0x52] END_LOAD_SCHEDULER: End scheduler "v000" with entities [LocalPlayer, LocalPlayer], work=88*
230: 0x06DE [0x45] LOAD_SCHEDULED_TASK: Load scheduler "v001" with entities [LocalPlayer, LocalPlayer], work=[88*, 0*]
231: 0x06EF [0x4A] Volker (ID: 17772737/0x010F30C1) looks at Shantotto (ID: 17772736/0x010F30C0)
232: 0x06F8 [0x2B] Volker (ID: 17772737/0x010F30C1) [13900*]:
    → "I mean, they even have that Cardian band. That's similar, don't you think, Doctor Shantotto?"
233: 0x06FF [0x23] WAIT_FOR_DIALOG_INTERACTION
234: 0x0700 [0x52] END_LOAD_SCHEDULER: End scheduler "v001" with entities [LocalPlayer, LocalPlayer], work=88*
235: 0x070F [0x45] LOAD_SCHEDULED_TASK: Load scheduler "v000" with entities [LocalPlayer, LocalPlayer], work=[88*, 0*]
236: 0x0720 [0x2B] Shantotto (ID: 17772736/0x010F30C0) [13901*]:
    → "Astral..."
237: 0x0727 [0x23] WAIT_FOR_DIALOG_INTERACTION
238: 0x0728 [0x2B] Shantotto (ID: 17772736/0x010F30C0) [13902*]:
    → "Wind..."
239: 0x072F [0x23] WAIT_FOR_DIALOG_INTERACTION
240: 0x0730 [0x52] END_LOAD_SCHEDULER: End scheduler "v000" with entities [LocalPlayer, LocalPlayer], work=88*
241: 0x073F [0x45] LOAD_SCHEDULED_TASK: Load scheduler "ovl1" with entities [Rahal (ID: 17772739/0x010F30C3), Rahal (ID: 17772739/0x010F30C3)], work=[200*, 0*]
242: 0x0750 [0x45] LOAD_SCHEDULED_TASK: Load scheduler "v002" with entities [LocalPlayer, LocalPlayer], work=[88*, 0*]
243: 0x0761 [0x1C] WAIT(30* ticks)
244: 0x0764 [0x2B] Volker (ID: 17772737/0x010F30C1) [13903*]:
    → "Doctor Shantotto? Is everything alright?"
245: 0x076B [0x23] WAIT_FOR_DIALOG_INTERACTION
246: 0x076C [0x27] REQ_SET(priority=0x03, entity_id=Shantotto (ID: 17772736/0x010F30C0), tag_num=0x07)
247: 0x0773 [0x7C] Shantotto (ID: 17772736/0x010F30C0)->Render.Flags2 |= 0x00
248: 0x0779 [0x52] END_LOAD_SCHEDULER: End scheduler "v002" with entities [LocalPlayer, LocalPlayer], work=88*
249: 0x0788 [0x45] LOAD_SCHEDULED_TASK: Load scheduler "v00a" with entities [LocalPlayer, LocalPlayer], work=[88*, 0*]
250: 0x0799 [0x2B] Shantotto (ID: 17772736/0x010F30C0) [13904*]:
    → "!!!"
251: 0x07A0 [0x23] WAIT_FOR_DIALOG_INTERACTION
252: 0x07A1 [0x7C] Shantotto (ID: 17772736/0x010F30C0)->Render.Flags2 |= 0x01
253: 0x07A7 [0x2A] GET_REQ_LEVEL(level=3, entity_id=Shantotto (ID: 17772736/0x010F30C0))
254: 0x07AD [0x27] REQ_SET(priority=0x03, entity_id=Shantotto (ID: 17772736/0x010F30C0), tag_num=0x09)
255: 0x07B4 [0x2B] Shantotto (ID: 17772736/0x010F30C0) [13905*]:
    → "Ohohohoho!"
256: 0x07BB [0x23] WAIT_FOR_DIALOG_INTERACTION
257: 0x07BC [0x2B] Shantotto (ID: 17772736/0x010F30C0) [13906*]:
    → "If it's automatic instruments you need, our children make such things before they learn how to read!"
258: 0x07C3 [0x23] WAIT_FOR_DIALOG_INTERACTION
259: 0x07C4 [0x52] END_LOAD_SCHEDULER: End scheduler "v00a" with entities [LocalPlayer, LocalPlayer], work=88*
260: 0x07D3 [0x45] LOAD_SCHEDULED_TASK: Load scheduler "v003" with entities [LocalPlayer, LocalPlayer], work=[88*, 0*]
261: 0x07E4 [0x2B] Pieuje (ID: 17772735/0x010F30BF) [13907*]:
    → "The problem lies in the power of the wind."
262: 0x07EB [0x23] WAIT_FOR_DIALOG_INTERACTION
263: 0x07EC [0x4A] Volker (ID: 17772737/0x010F30C1) looks at Pieuje (ID: 17772735/0x010F30BF)
264: 0x07F5 [0x2B] Volker (ID: 17772737/0x010F30C1) [13908*]:
    → "The wind?"
265: 0x07FC [0x23] WAIT_FOR_DIALOG_INTERACTION
266: 0x07FD [0x2B] Pieuje (ID: 17772735/0x010F30BF) [13909*]:
    → "It envelops those close by, and fills them with a mysterious strength. There are few who can resist the lure of this energy."
267: 0x0804 [0x23] WAIT_FOR_DIALOG_INTERACTION
268: 0x0805 [0x2B] Pieuje (ID: 17772735/0x010F30BF) [13910*]:
    → "Even among the beastmen..."
269: 0x080C [0x23] WAIT_FOR_DIALOG_INTERACTION
270: 0x080D [0x52] END_LOAD_SCHEDULER: End scheduler "v003" with entities [LocalPlayer, LocalPlayer], work=88*
271: 0x081C [0x45] LOAD_SCHEDULED_TASK: Load scheduler "v004" with entities [LocalPlayer, LocalPlayer], work=[88*, 0*]
272: 0x082D [0x6B] STOP_AND_IDLE: Shantotto (ID: 17772736/0x010F30C0) stops current action and resets to idle (animation="idl0")
273: 0x0836 [0x27] REQ_SET(priority=0x03, entity_id=Volker (ID: 17772737/0x010F30C1), tag_num=0x03)
274: 0x083D [0x2B] Volker (ID: 17772737/0x010F30C1) [13911*]:
    → "If the instrument is that dangerous, why not just give it to the beastmen, or smash it out of hand?"
275: 0x0844 [0x23] WAIT_FOR_DIALOG_INTERACTION
276: 0x0845 [0x27] REQ_SET(priority=0x03, entity_id=Volker (ID: 17772737/0x010F30C1), tag_num=0x04)
277: 0x084C [0x2B] Pieuje (ID: 17772735/0x010F30BF) [13912*]:
    → "That is what common sense would tell us. If it were up to an individual, or even an entire town..."
278: 0x0853 [0x23] WAIT_FOR_DIALOG_INTERACTION
279: 0x0854 [0x2B] Volker (ID: 17772737/0x010F30C1) [13913*]:
    → "What are you trying to say?"
280: 0x085B [0x23] WAIT_FOR_DIALOG_INTERACTION
281: 0x085C [0x52] END_LOAD_SCHEDULER: End scheduler "v004" with entities [LocalPlayer, LocalPlayer], work=88*
282: 0x086B [0x45] LOAD_SCHEDULED_TASK: Load scheduler "v005" with entities [LocalPlayer, LocalPlayer], work=[88*, 0*]
283: 0x087C [0x2B] Pieuje (ID: 17772735/0x010F30BF) [13914*]:
    → "What if that decision lay in the hands of a nation?"
284: 0x0883 [0x23] WAIT_FOR_DIALOG_INTERACTION
285: 0x0884 [0x2B] Pieuje (ID: 17772735/0x010F30BF) [13915*]:
    → "Even if it posed a threat to your own citizens, if that treasure could one day be your salvation, would you not choose to protect it?"
286: 0x088B [0x23] WAIT_FOR_DIALOG_INTERACTION
287: 0x088C [0x27] REQ_SET(priority=0x03, entity_id=Wolfgang (ID: 17772551/0x010F3007), tag_num=0x2A)
288: 0x0893 [0x2B] Wolfgang (ID: 17772551/0x010F3007) [13916*]:
    → "How could a mere instrument hold that kind of power...?"
289: 0x089A [0x23] WAIT_FOR_DIALOG_INTERACTION
290: 0x089B [0x27] REQ_SET(priority=0x03, entity_id=Wolfgang (ID: 17772551/0x010F3007), tag_num=0x2B)
291: 0x08A2 [0x52] END_LOAD_SCHEDULER: End scheduler "v005" with entities [LocalPlayer, LocalPlayer], work=88*
292: 0x08B1 [0x45] LOAD_SCHEDULED_TASK: Load scheduler "v006" with entities [LocalPlayer, LocalPlayer], work=[88*, 0*]
293: 0x08C2 [0x79] Pieuje (ID: 17772735/0x010F30BF) looks at Wolfgang (ID: 17772551/0x010F3007) (Basic look)
294: 0x08CC [0x2B] Pieuje (ID: 17772735/0x010F30BF) [13917*]:
    → "The sage who composed this letter is afraid..."
295: 0x08D3 [0x23] WAIT_FOR_DIALOG_INTERACTION
296: 0x08D4 [0x2B] Pieuje (ID: 17772735/0x010F30BF) [13918*]:
    → "Afraid that this Astral Candescence will one day be the catalyst for a conflict to rival the Crystal War."
297: 0x08DB [0x23] WAIT_FOR_DIALOG_INTERACTION
298: 0x08DC [0x52] END_LOAD_SCHEDULER: End scheduler "v006" with entities [LocalPlayer, LocalPlayer], work=88*
299: 0x08EB [0x45] LOAD_SCHEDULED_TASK: Load scheduler "v00b" with entities [LocalPlayer, LocalPlayer], work=[88*, 0*]
300: 0x08FC [0x2B] Wolfgang (ID: 17772551/0x010F3007) [13919*]:
    → "No!"
301: 0x0903 [0x23] WAIT_FOR_DIALOG_INTERACTION
302: 0x0904 [0x52] END_LOAD_SCHEDULER: End scheduler "v00b" with entities [LocalPlayer, LocalPlayer], work=88*
303: 0x0913 [0x45] LOAD_SCHEDULED_TASK: Load scheduler "v00c" with entities [LocalPlayer, LocalPlayer], work=[88*, 0*]
304: 0x0924 [0x2B] Volker (ID: 17772737/0x010F30C1) [13920*]:
    → "Prince Pieuje... As a representative for an entire nation, you would do well not to throw those words around so lightly!"
305: 0x092B [0x23] WAIT_FOR_DIALOG_INTERACTION
306: 0x092C [0x52] END_LOAD_SCHEDULER: End scheduler "v00c" with entities [LocalPlayer, LocalPlayer], work=88*
307: 0x093B [0x45] LOAD_SCHEDULED_TASK: Load scheduler "v007" with entities [LocalPlayer, LocalPlayer], work=[88*, 0*]
308: 0x094C [0x79] Pieuje (ID: 17772735/0x010F30BF) looks at Volker (ID: 17772737/0x010F30C1) (Basic look)
309: 0x0956 [0x2B] Pieuje (ID: 17772735/0x010F30BF) [13921*]:
    → "My apologies. This is merely based on the conjecture of a sage."
310: 0x095D [0x23] WAIT_FOR_DIALOG_INTERACTION
311: 0x095E [0x2B] Pieuje (ID: 17772735/0x010F30BF) [13922*]:
    → "Why don't we have <Player>, who has seen and heard these things in person, give us [his/her] account?"
312: 0x0965 [0x23] WAIT_FOR_DIALOG_INTERACTION
313: 0x0966 [0x2B] Volker (ID: 17772737/0x010F30C1) [13923*]:
    → "..."
314: 0x096D [0x23] WAIT_FOR_DIALOG_INTERACTION
315: 0x096E [0x52] END_LOAD_SCHEDULER: End scheduler "v007" with entities [LocalPlayer, LocalPlayer], work=88*
316: 0x097D [0x45] LOAD_SCHEDULED_TASK: Load scheduler "v008" with entities [LocalPlayer, LocalPlayer], work=[88*, 0*]
317: 0x098E [0x2B] Wolfgang (ID: 17772551/0x010F3007) [13924*]:
    → "We cannot make a decision based on this tale alone."
318: 0x0995 [0x1C] WAIT(10* ticks)
319: 0x0998 [0x79] Pieuje (ID: 17772735/0x010F30BF) looks at Wolfgang (ID: 17772551/0x010F3007) (Basic look)
320: 0x09A2 [0x79] Volker (ID: 17772737/0x010F30C1) looks at Wolfgang (ID: 17772551/0x010F3007) (Basic look)
321: 0x09AC [0x79] Shantotto (ID: 17772736/0x010F30C0) looks at Wolfgang (ID: 17772551/0x010F3007) (Basic look)
322: 0x09B6 [0x23] WAIT_FOR_DIALOG_INTERACTION
323: 0x09B7 [0x27] REQ_SET(priority=0x03, entity_id=Wolfgang (ID: 17772551/0x010F3007), tag_num=0x28)
324: 0x09BE [0x2B] Wolfgang (ID: 17772551/0x010F3007) [13925*]:
    → "A nation has a responsibility to maintain soldiers and weaponry for the defense of its people."
325: 0x09C5 [0x23] WAIT_FOR_DIALOG_INTERACTION
326: 0x09C6 [0x2B] Wolfgang (ID: 17772551/0x010F3007) [13926*]:
    → "And for a city in this situation, I would go so far as to say that some sort of secret weapon is almost a necessity."
327: 0x09CD [0x23] WAIT_FOR_DIALOG_INTERACTION
328: 0x09CE [0x27] REQ_SET(priority=0x03, entity_id=Wolfgang (ID: 17772551/0x010F3007), tag_num=0x29)
329: 0x09D5 [0x2B] Wolfgang (ID: 17772551/0x010F3007) [13927*]:
    → "In any case, it doesn't seem that this Astral Candescence presents any immediate danger to the people of Al Zahbi."
330: 0x09DC [0x23] WAIT_FOR_DIALOG_INTERACTION
331: 0x09DD [0x52] END_LOAD_SCHEDULER: End scheduler "v008" with entities [LocalPlayer, LocalPlayer], work=88*
332: 0x09EC [0x45] LOAD_SCHEDULED_TASK: Load scheduler "v009" with entities [LocalPlayer, LocalPlayer], work=[88*, 0*]
333: 0x09FD [0x27] REQ_SET(priority=0x03, entity_id=Shantotto (ID: 17772736/0x010F30C0), tag_num=0x0B)
334: 0x0A04 [0x2B] Shantotto (ID: 17772736/0x010F30C0) [13928*]:
    → "I wouldn't say that was entirely true, if you were me, and I were you."
335: 0x0A0B [0x23] WAIT_FOR_DIALOG_INTERACTION
336: 0x0A0C [0x52] END_LOAD_SCHEDULER: End scheduler "v009" with entities [LocalPlayer, LocalPlayer], work=88*
337: 0x0A1B [0x45] LOAD_SCHEDULED_TASK: Load scheduler "t000" with entities [LocalPlayer, LocalPlayer], work=[88*, 0*]
338: 0x0A2C [0x4A] Pieuje (ID: 17772735/0x010F30BF) looks at LocalPlayer
339: 0x0A35 [0x2B] Pieuje (ID: 17772735/0x010F30BF) [13929*]:
    → "<Player>. I came to a conclusion after you left the chateau."
340: 0x0A3C [0x23] WAIT_FOR_DIALOG_INTERACTION
341: 0x0A3D [0x2B] Pieuje (ID: 17772735/0x010F30BF) [13930*]:
    → "I wish to hear your honest opinion."
342: 0x0A44 [0x23] WAIT_FOR_DIALOG_INTERACTION
343: 0x0A45 [0x52] END_LOAD_SCHEDULER: End scheduler "t000" with entities [LocalPlayer, LocalPlayer], work=88*
344: 0x0A54 [0x24] CREATE_DIALOG(message_id=13931*, default_option=0*, option_flags=0*)
    → "Give Pieuje your honest opinion? [Yes./No.]"
345: 0x0A5B [0x25] WAIT_DIALOG_SELECT()
346: 0x0A5C [0x02] IF !(Work_Zone[0] == 0*) GOTO 0x0A7E
347: 0x0A64 [0x6E] LocalPlayer uses emote 7*
348: 0x0A6B [0x99] Wait for LocalPlayer animation to complete
349: 0x0A70 [0x1C] WAIT(90* ticks)
350: 0x0A73 [0x2B] Pieuje (ID: 17772735/0x010F30BF) [13932*]:
    → "Excellent. I knew asking you here was the right decision. I rely upon your vast experience as an adventurer."
351: 0x0A7A [0x23] WAIT_FOR_DIALOG_INTERACTION
352: 0x0A7B [0x01] GOTO 0x0AA0
353: 0x0A7E [0x02] IF !(Work_Zone[0] == 1*) GOTO 0x0AA0
354: 0x0A86 [0x6E] LocalPlayer uses emote 6*
355: 0x0A8D [0x99] Wait for LocalPlayer animation to complete
356: 0x0A92 [0x1C] WAIT(90* ticks)
357: 0x0A95 [0x2B] Pieuje (ID: 17772735/0x010F30BF) [13933*]:
    → "Ahaha. Only an adventurer would choose to jest in such company as this."
358: 0x0A9C [0x23] WAIT_FOR_DIALOG_INTERACTION
359: 0x0A9D [0x01] GOTO 0x0AA0

SUBROUTINE_0AA0:
360: 0x0AA0 [0x4B] UPDATE_ENTITY_YAW(entity=Pieuje (ID: 17772735/0x010F30BF), yaw=22.5°*)
361: 0x0AA7 [0x7B] Pieuje (ID: 17772735/0x010F30BF) stops talking
362: 0x0AAC [0x45] LOAD_SCHEDULED_TASK: Load scheduler "t001" with entities [LocalPlayer, LocalPlayer], work=[88*, 0*]
363: 0x0ABD [0x2B] Pieuje (ID: 17772735/0x010F30BF) [13934*]:
    → "What is the Astral Candescence?"
364: 0x0AC4 [0x23] WAIT_FOR_DIALOG_INTERACTION
365: 0x0AC5 [0x2B] Pieuje (ID: 17772735/0x010F30BF) [13935*]:
    → "If it is such an important treasure, then why not secret it away inside the palace instead of placing it in the area most vulnerable to beastman attacks?"
366: 0x0ACC [0x23] WAIT_FOR_DIALOG_INTERACTION
367: 0x0ACD [0x2B] Pieuje (ID: 17772735/0x010F30BF) [13936*]:
    → "I sense some hidden purpose for this dangerous object..."
368: 0x0AD4 [0x23] WAIT_FOR_DIALOG_INTERACTION
369: 0x0AD5 [0x4A] Pieuje (ID: 17772735/0x010F30BF) looks at LocalPlayer
370: 0x0ADE [0x1C] WAIT(10* ticks)
371: 0x0AE1 [0x52] END_LOAD_SCHEDULER: End scheduler "t001" with entities [LocalPlayer, LocalPlayer], work=88*
372: 0x0AF0 [0x45] LOAD_SCHEDULED_TASK: Load scheduler "t002" with entities [LocalPlayer, LocalPlayer], work=[88*, 0*]
373: 0x0B01 [0x2B] Pieuje (ID: 17772735/0x010F30BF) [13937*]:
    → "Do you have any thoughts on the matter, <Player>?"
374: 0x0B08 [0x1C] WAIT(30* ticks)
375: 0x0B0B [0x4A] LocalPlayer looks at Pieuje (ID: 17772735/0x010F30BF)
376: 0x0B14 [0x23] WAIT_FOR_DIALOG_INTERACTION
377: 0x0B15 [0x55] WAIT_LOAD_SCHEDULER: Wait for scheduler "t002" with entities [LocalPlayer, LocalPlayer], work=88*

SUBROUTINE_0B24:
378: 0x0B24 [0x24] CREATE_DIALOG(message_id=13938*, default_option=0*, option_flags=0*)
    → "Any thoughts? [Sage Walahra.../The Gordeus.../The Walahra Philosophy.../Not really...]"
379: 0x0B2B [0x25] WAIT_DIALOG_SELECT()
380: 0x0B2C [0x02] IF !(Work_Zone[0] == 0*) GOTO 0x0C1C
381: 0x0B34 [0x45] LOAD_SCHEDULED_TASK: Load scheduler "t006" with entities [LocalPlayer, LocalPlayer], work=[88*, 0*]
382: 0x0B45 [0x55] WAIT_LOAD_SCHEDULER: Wait for scheduler "t006" with entities [LocalPlayer, LocalPlayer], work=88*
383: 0x0B54 [0x2B] Pieuje (ID: 17772735/0x010F30BF) [13940*]:
    → "Sage Walahra? What manner of person is this?"
384: 0x0B5B [0x23] WAIT_FOR_DIALOG_INTERACTION
385: 0x0B5C [0x1C] WAIT(60* ticks)
386: 0x0B5F [0x45] LOAD_SCHEDULED_TASK: Load scheduler "t003" with entities [LocalPlayer, LocalPlayer], work=[88*, 0*]
387: 0x0B70 [0x2B] Pieuje (ID: 17772735/0x010F30BF) [13941*]:
    → "...I see."
388: 0x0B77 [0x23] WAIT_FOR_DIALOG_INTERACTION
389: 0x0B78 [0x2B] Pieuje (ID: 17772735/0x010F30BF) [13942*]:
    → "The father of the Walahra Philosophy and an alchemist of great renown..."
390: 0x0B7F [0x23] WAIT_FOR_DIALOG_INTERACTION
391: 0x0B80 [0x27] REQ_SET(priority=0x03, entity_id=Pieuje (ID: 17772735/0x010F30BF), tag_num=0x08)
392: 0x0B87 [0x1C] WAIT(15* ticks)
393: 0x0B8A [0x52] END_LOAD_SCHEDULER: End scheduler "t003" with entities [LocalPlayer, LocalPlayer], work=88*
394: 0x0B99 [0x45] LOAD_SCHEDULED_TASK: Load scheduler "t005" with entities [LocalPlayer, LocalPlayer], work=[88*, 0*]
395: 0x0BAA [0x2B] Pieuje (ID: 17772735/0x010F30BF) [13943*]:
    → ""I, alone, do not possess all the answers. Let us ponder the mysteries of the universe together.""
396: 0x0BB1 [0x23] WAIT_FOR_DIALOG_INTERACTION
397: 0x0BB2 [0x2B] Pieuje (ID: 17772735/0x010F30BF) [13944*]:
    → ""Shared knowledge is the shortest path to enlightenment...""
398: 0x0BB9 [0x23] WAIT_FOR_DIALOG_INTERACTION
399: 0x0BBA [0x27] REQ_SET(priority=0x03, entity_id=Pieuje (ID: 17772735/0x010F30BF), tag_num=0x09)
400: 0x0BC1 [0x2B] Pieuje (ID: 17772735/0x010F30BF) [13945*]:
    → "Hmm. Not a philosophy that would appeal to my brother..."
401: 0x0BC8 [0x23] WAIT_FOR_DIALOG_INTERACTION
402: 0x0BC9 [0x52] END_LOAD_SCHEDULER: End scheduler "t005" with entities [LocalPlayer, LocalPlayer], work=88*
403: 0x0BD8 [0x45] LOAD_SCHEDULED_TASK: Load scheduler "t004" with entities [LocalPlayer, LocalPlayer], work=[88*, 0*]
404: 0x0BE9 [0x2B] Wolfgang (ID: 17772551/0x010F3007) [13946*]:
    → "Is Prince Trion somehow involved...?"
405: 0x0BF0 [0x23] WAIT_FOR_DIALOG_INTERACTION
406: 0x0BF1 [0x4B] UPDATE_ENTITY_YAW(entity=Pieuje (ID: 17772735/0x010F30BF), yaw=22.5°*)
407: 0x0BF8 [0x79] Pieuje (ID: 17772735/0x010F30BF) looks at Wolfgang (ID: 17772551/0x010F3007) (Basic look)
408: 0x0C02 [0x2B] Pieuje (ID: 17772735/0x010F30BF) [13947*]:
    → "Ah, forgive me. I was merely thinking aloud..."
409: 0x0C09 [0x23] WAIT_FOR_DIALOG_INTERACTION
410: 0x0C0A [0x52] END_LOAD_SCHEDULER: End scheduler "t004" with entities [LocalPlayer, LocalPlayer], work=88*
411: 0x0C19 [0x01] GOTO 0x0D62
412: 0x0C1C [0x02] IF !(Work_Zone[0] == 1*) GOTO 0x0CC8
413: 0x0C24 [0x45] LOAD_SCHEDULED_TASK: Load scheduler "t006" with entities [LocalPlayer, LocalPlayer], work=[88*, 0*]
414: 0x0C35 [0x55] WAIT_LOAD_SCHEDULER: Wait for scheduler "t006" with entities [LocalPlayer, LocalPlayer], work=88*
415: 0x0C44 [0x2B] Pieuje (ID: 17772735/0x010F30BF) [13948*]:
    → "The "Gordeus." I have heard this name somewhere before..."
416: 0x0C4B [0x23] WAIT_FOR_DIALOG_INTERACTION
417: 0x0C4C [0x2B] Pieuje (ID: 17772735/0x010F30BF) [13949*]:
    → "What manner of person is this?"
418: 0x0C53 [0x23] WAIT_FOR_DIALOG_INTERACTION
419: 0x0C54 [0x1C] WAIT(60* ticks)
420: 0x0C57 [0x45] LOAD_SCHEDULED_TASK: Load scheduler "t003" with entities [LocalPlayer, LocalPlayer], work=[88*, 0*]
421: 0x0C68 [0x2B] Pieuje (ID: 17772735/0x010F30BF) [13950*]:
    → "Not a person? So, it is a holy relic enshrined in Walahra Temple..."
422: 0x0C6F [0x23] WAIT_FOR_DIALOG_INTERACTION
423: 0x0C70 [0x27] REQ_SET(priority=0x03, entity_id=Pieuje (ID: 17772735/0x010F30BF), tag_num=0x08)
424: 0x0C77 [0x52] END_LOAD_SCHEDULER: End scheduler "t003" with entities [LocalPlayer, LocalPlayer], work=88*
425: 0x0C86 [0x45] LOAD_SCHEDULED_TASK: Load scheduler "t005" with entities [LocalPlayer, LocalPlayer], work=[88*, 0*]
426: 0x0C97 [0x2B] Pieuje (ID: 17772735/0x010F30BF) [13951*]:
    → "In the distant past, Sage Walahra once unraveled the Gordeus and grasped the fundamental principle of existence..."
427: 0x0C9E [0x23] WAIT_FOR_DIALOG_INTERACTION
428: 0x0C9F [0x2B] Pieuje (ID: 17772735/0x010F30BF) [13952*]:
    → "And now a host of like-minded scholars toil day and night to discover the same loose thread to unravel the Gordeus for themselves."
429: 0x0CA6 [0x23] WAIT_FOR_DIALOG_INTERACTION
430: 0x0CA7 [0x27] REQ_SET(priority=0x03, entity_id=Pieuje (ID: 17772735/0x010F30BF), tag_num=0x09)
431: 0x0CAE [0x2B] Pieuje (ID: 17772735/0x010F30BF) [13953*]:
    → "It appears the people of the Empire search for quite different truths than the ones we seek..."
432: 0x0CB5 [0x23] WAIT_FOR_DIALOG_INTERACTION
433: 0x0CB6 [0x52] END_LOAD_SCHEDULER: End scheduler "t005" with entities [LocalPlayer, LocalPlayer], work=88*
434: 0x0CC5 [0x01] GOTO 0x0D62
435: 0x0CC8 [0x02] IF !(Work_Zone[0] == 2*) GOTO 0x0D4C
436: 0x0CD0 [0x45] LOAD_SCHEDULED_TASK: Load scheduler "t006" with entities [LocalPlayer, LocalPlayer], work=[88*, 0*]
437: 0x0CE1 [0x55] WAIT_LOAD_SCHEDULER: Wait for scheduler "t006" with entities [LocalPlayer, LocalPlayer], work=88*
438: 0x0CF0 [0x2B] Pieuje (ID: 17772735/0x010F30BF) [13954*]:
    → "The Walahra Philosophy? What manner of learning is this?"
439: 0x0CF7 [0x23] WAIT_FOR_DIALOG_INTERACTION
440: 0x0CF8 [0x2B] Pieuje (ID: 17772735/0x010F30BF) [13955*]:
    → "What connection does this philosophy have to the Astral Candescence?"
441: 0x0CFF [0x23] WAIT_FOR_DIALOG_INTERACTION
442: 0x0D00 [0x1C] WAIT(60* ticks)
443: 0x0D03 [0x45] LOAD_SCHEDULED_TASK: Load scheduler "t005" with entities [LocalPlayer, LocalPlayer], work=[88*, 0*]
444: 0x0D14 [0x27] REQ_SET(priority=0x03, entity_id=Pieuje (ID: 17772735/0x010F30BF), tag_num=0x08)
445: 0x0D1B [0x2B] Pieuje (ID: 17772735/0x010F30BF) [13956*]:
    → ""From the void all things are born. To the void all things return.""
446: 0x0D22 [0x23] WAIT_FOR_DIALOG_INTERACTION
447: 0x0D23 [0x2B] Pieuje (ID: 17772735/0x010F30BF) [13957*]:
    → "I do not understand what this "void" they speak of refers to."
448: 0x0D2A [0x23] WAIT_FOR_DIALOG_INTERACTION
449: 0x0D2B [0x27] REQ_SET(priority=0x03, entity_id=Pieuje (ID: 17772735/0x010F30BF), tag_num=0x09)
450: 0x0D32 [0x2B] Pieuje (ID: 17772735/0x010F30BF) [13958*]:
    → "Though this philosophy is not so far from our own belief that all life begins and ends with Great Altana and the mothercrystals..."
451: 0x0D39 [0x23] WAIT_FOR_DIALOG_INTERACTION
452: 0x0D3A [0x52] END_LOAD_SCHEDULER: End scheduler "t005" with entities [LocalPlayer, LocalPlayer], work=88*
453: 0x0D49 [0x01] GOTO 0x0D62
454: 0x0D4C [0x02] IF !(Work_Zone[0] == 3*) GOTO 0x0D62
455: 0x0D54 [0x2B] Pieuje (ID: 17772735/0x010F30BF) [13939*]:
    → "<Player>. If you have nothing to contribute, then there is little point in you being here..."
456: 0x0D5B [0x23] WAIT_FOR_DIALOG_INTERACTION
457: 0x0D5C [0x01] GOTO 0x0B24

SUBROUTINE_0D62:
458: 0x0D62 [0x27] REQ_SET(priority=0x03, entity_id=Shantotto (ID: 17772736/0x010F30C0), tag_num=0x09)
459: 0x0D69 [0x45] LOAD_SCHEDULED_TASK: Load scheduler "t007" with entities [LocalPlayer, LocalPlayer], work=[88*, 0*]
460: 0x0D7A [0x4A] Pieuje (ID: 17772735/0x010F30BF) looks at Shantotto (ID: 17772736/0x010F30C0)
461: 0x0D83 [0x4A] LocalPlayer looks at Shantotto (ID: 17772736/0x010F30C0)
462: 0x0D8C [0x4A] Wolfgang (ID: 17772551/0x010F3007) looks at Shantotto (ID: 17772736/0x010F30C0)
463: 0x0D95 [0x4A] Volker (ID: 17772737/0x010F30C1) looks at Shantotto (ID: 17772736/0x010F30C0)
464: 0x0D9E [0x2B] Shantotto (ID: 17772736/0x010F30C0) [13959*]:
    → "Ohohoho! Too much time in the cathedral for Destin's little boy! The mind is a tool you must sharpen, not a child's toy!"
465: 0x0DA5 [0x23] WAIT_FOR_DIALOG_INTERACTION
466: 0x0DA6 [0x52] END_LOAD_SCHEDULER: End scheduler "t007" with entities [LocalPlayer, LocalPlayer], work=88*
467: 0x0DB5 [0x45] LOAD_SCHEDULED_TASK: Load scheduler "t008" with entities [LocalPlayer, LocalPlayer], work=[88*, 0*]
468: 0x0DC6 [0x2B] Pieuje (ID: 17772735/0x010F30BF) [13960*]:
    → "Do you mock me, Doctor Shantotto!?"
469: 0x0DCD [0x23] WAIT_FOR_DIALOG_INTERACTION
470: 0x0DCE [0x6B] STOP_AND_IDLE: Shantotto (ID: 17772736/0x010F30C0) stops current action and resets to idle (animation="idl0")
471: 0x0DD7 [0x1C] WAIT(15* ticks)
472: 0x0DDA [0x52] END_LOAD_SCHEDULER: End scheduler "t008" with entities [LocalPlayer, LocalPlayer], work=88*
473: 0x0DE9 [0x45] LOAD_SCHEDULED_TASK: Load scheduler "t009" with entities [LocalPlayer, LocalPlayer], work=[88*, 0*]
474: 0x0DFA [0x2B] Shantotto (ID: 17772736/0x010F30C0) [13961*]:
    → "You look for your answers in all the wrong places. Shall I bring a little hope to your long, dreary faces?"
475: 0x0E01 [0x1C] WAIT(30* ticks)
476: 0x0E04 [0x27] REQ_SET(priority=0x03, entity_id=Shantotto (ID: 17772736/0x010F30C0), tag_num=0x0D)
477: 0x0E0B [0x23] WAIT_FOR_DIALOG_INTERACTION
478: 0x0E0C [0x27] REQ_SET(priority=0x03, entity_id=Volker (ID: 17772737/0x010F30C1), tag_num=0x03)
479: 0x0E13 [0x2B] Volker (ID: 17772737/0x010F30C1) [13962*]:
    → "What are you hiding, Shantotto?"
480: 0x0E1A [0x23] WAIT_FOR_DIALOG_INTERACTION
481: 0x0E1B [0x27] REQ_SET(priority=0x03, entity_id=Volker (ID: 17772737/0x010F30C1), tag_num=0x04)
482: 0x0E22 [0x52] END_LOAD_SCHEDULER: End scheduler "t009" with entities [LocalPlayer, LocalPlayer], work=88*
483: 0x0E31 [0x45] LOAD_SCHEDULED_TASK: Load scheduler "r000" with entities [LocalPlayer, LocalPlayer], work=[88*, 0*]
484: 0x0E42 [0x6B] STOP_AND_IDLE: Shantotto (ID: 17772736/0x010F30C0) stops current action and resets to idle (animation="idl0")
485: 0x0E4B [0x79] Shantotto (ID: 17772736/0x010F30C0) looks at Volker (ID: 17772737/0x010F30C1) (Basic look)
486: 0x0E55 [0x2B] Shantotto (ID: 17772736/0x010F30C0) [13963*]:
    → "The servants of Walahra control the Hall of Binding--the treasure's little nest."
487: 0x0E5C [0x23] WAIT_FOR_DIALOG_INTERACTION
488: 0x0E5D [0x2B] Shantotto (ID: 17772736/0x010F30C0) [13964*]:
    → "The Hall of Binding is defended by the Serpent Generals--the best of the best!"
489: 0x0E64 [0x23] WAIT_FOR_DIALOG_INTERACTION
490: 0x0E65 [0x2B] Volker (ID: 17772737/0x010F30C1) [13965*]:
    → "The Serpent Generals? A name I have heard. Each one is said to be worth a thousand soldiers."
491: 0x0E6C [0x23] WAIT_FOR_DIALOG_INTERACTION
492: 0x0E6D [0x52] END_LOAD_SCHEDULER: End scheduler "r000" with entities [LocalPlayer, LocalPlayer], work=88*
493: 0x0E7C [0x45] LOAD_SCHEDULED_TASK: Load scheduler "r001" with entities [LocalPlayer, LocalPlayer], work=[88*, 0*]
494: 0x0E8D [0x7B] Shantotto (ID: 17772736/0x010F30C0) stops talking
495: 0x0E92 [0x2B] Shantotto (ID: 17772736/0x010F30C0) [13966*]:
    → "The Astral Candescence is strictly monitored by the Walahra Temple, according to the adventurer's speech..."
496: 0x0E99 [0x23] WAIT_FOR_DIALOG_INTERACTION
497: 0x0E9A [0x27] REQ_SET(priority=0x03, entity_id=Shantotto (ID: 17772736/0x010F30C0), tag_num=0x06)
498: 0x0EA1 [0x2B] Shantotto (ID: 17772736/0x010F30C0) [13967*]:
    → "But the treasure is kept in an area that the beastmen can easily reach."
499: 0x0EA8 [0x23] WAIT_FOR_DIALOG_INTERACTION
500: 0x0EA9 [0x52] END_LOAD_SCHEDULER: End scheduler "r001" with entities [LocalPlayer, LocalPlayer], work=88*
501: 0x0EB8 [0x45] LOAD_SCHEDULED_TASK: Load scheduler "ovl1" with entities [Rahal (ID: 17772739/0x010F30C3), Rahal (ID: 17772739/0x010F30C3)], work=[200*, 0*]
502: 0x0EC9 [0x45] LOAD_SCHEDULED_TASK: Load scheduler "r002" with entities [LocalPlayer, LocalPlayer], work=[88*, 0*]
503: 0x0EDA [0x2B] Shantotto (ID: 17772736/0x010F30C0) [13968*]:
    → "And there we find the Serpent Generals, the strongest of the strong..."
504: 0x0EE1 [0x23] WAIT_FOR_DIALOG_INTERACTION
505: 0x0EE2 [0x2B] Shantotto (ID: 17772736/0x010F30C0) [13969*]:
    → "Plus mercenaries like <Player> to help them, if I'm not wrong?"
506: 0x0EE9 [0x23] WAIT_FOR_DIALOG_INTERACTION
507: 0x0EEA [0x52] END_LOAD_SCHEDULER: End scheduler "r002" with entities [LocalPlayer, LocalPlayer], work=88*
508: 0x0EF9 [0x45] LOAD_SCHEDULED_TASK: Load scheduler "r003" with entities [LocalPlayer, LocalPlayer], work=[88*, 0*]
509: 0x0F0A [0x5D] SET_MUSIC_VOLUME(volume=0*, fade_time=360*)
510: 0x0F0F [0x27] REQ_SET(priority=0x03, entity_id=Pieuje (ID: 17772735/0x010F30BF), tag_num=0x08)
511: 0x0F16 [0x2B] Pieuje (ID: 17772735/0x010F30BF) [13970*]:
    → "Yes, there does seem to be some contradiction to be found here."
512: 0x0F1D [0x23] WAIT_FOR_DIALOG_INTERACTION
513: 0x0F1E [0x27] REQ_SET(priority=0x03, entity_id=Shantotto (ID: 17772736/0x010F30C0), tag_num=0x07)
514: 0x0F25 [0x1C] WAIT(30* ticks)
515: 0x0F28 [0x2B] Shantotto (ID: 17772736/0x010F30C0) [13971*]:
    → "You see..."
516: 0x0F2F [0x23] WAIT_FOR_DIALOG_INTERACTION
517: 0x0F30 [0x5C] MUSIC_CONTROL: Set Idle (Day) music to song 157*
518: 0x0F34 [0x5C] MUSIC_CONTROL: Set Idle (Night) music to song 157*
519: 0x0F38 [0x9A] WAIT_MUSIC_SERVER()
520: 0x0F39 [0x52] END_LOAD_SCHEDULER: End scheduler "r003" with entities [LocalPlayer, LocalPlayer], work=88*
521: 0x0F48 [0x45] LOAD_SCHEDULED_TASK: Load scheduler "blon" with entities [Rahal (ID: 17772739/0x010F30C3), Rahal (ID: 17772739/0x010F30C3)], work=[200*, 0*]
522: 0x0F59 [0x45] LOAD_SCHEDULED_TASK: Load scheduler "r004" with entities [LocalPlayer, LocalPlayer], work=[88*, 0*]
523: 0x0F6A [0x55] WAIT_LOAD_SCHEDULER: Wait for scheduler "r004" with entities [LocalPlayer, LocalPlayer], work=88*
524: 0x0F79 [0x45] LOAD_SCHEDULED_TASK: Load scheduler "blof" with entities [LocalPlayer, LocalPlayer], work=[200*, 0*]
525: 0x0F8A [0x2B] Shantotto (ID: 17772736/0x010F30C0) [13972*]:
    → "This is a huge game of "set the trap and wait." And the Astral Candescence is the very tasty bait!"
526: 0x0F91 [0x23] WAIT_FOR_DIALOG_INTERACTION
527: 0x0F92 [0x45] LOAD_SCHEDULED_TASK: Load scheduler "blon" with entities [Rahal (ID: 17772739/0x010F30C3), Rahal (ID: 17772739/0x010F30C3)], work=[200*, 0*]
528: 0x0FA3 [0x45] LOAD_SCHEDULED_TASK: Load scheduler "r005" with entities [LocalPlayer, LocalPlayer], work=[88*, 0*]
529: 0x0FB4 [0x27] REQ_SET(priority=0x03, entity_id=Pieuje (ID: 17772735/0x010F30BF), tag_num=0x09)
530: 0x0FBB [0x55] WAIT_LOAD_SCHEDULER: Wait for scheduler "r005" with entities [LocalPlayer, LocalPlayer], work=88*
531: 0x0FCA [0x45] LOAD_SCHEDULED_TASK: Load scheduler "r006" with entities [LocalPlayer, LocalPlayer], work=[88*, 0*]
532: 0x0FDB [0x2B] Pieuje (ID: 17772735/0x010F30BF) [13973*]:
    → "...!"
533: 0x0FE2 [0x1C] WAIT(30* ticks)
534: 0x0FE5 [0x45] LOAD_SCHEDULED_TASK: Load scheduler "blof" with entities [LocalPlayer, LocalPlayer], work=[200*, 0*]
535: 0x0FF6 [0x23] WAIT_FOR_DIALOG_INTERACTION
536: 0x0FF7 [0x2B] Volker (ID: 17772737/0x010F30C1) [13974*]:
    → "Of course! Why didn't I see it?"
537: 0x0FFE [0x1C] WAIT(10* ticks)
538: 0x1001 [0x79] Shantotto (ID: 17772736/0x010F30C0) looks at Volker (ID: 17772737/0x010F30C1) (Basic look)
539: 0x100B [0x23] WAIT_FOR_DIALOG_INTERACTION
540: 0x100C [0x55] WAIT_LOAD_SCHEDULER: Wait for scheduler "r006" with entities [LocalPlayer, LocalPlayer], work=88*
541: 0x101B [0x45] LOAD_SCHEDULED_TASK: Load scheduler "r007" with entities [LocalPlayer, LocalPlayer], work=[88*, 0*]
542: 0x102C [0x27] REQ_SET(priority=0x03, entity_id=Wolfgang (ID: 17772551/0x010F3007), tag_num=0x28)
543: 0x1033 [0x2B] Wolfgang (ID: 17772551/0x010F3007) [13975*]:
    → "But wait. This creates a whole new set of questions. Why would they want the beastmen in the city?"
544: 0x103A [0x1C] WAIT(10* ticks)
545: 0x103D [0x4A] Shantotto (ID: 17772736/0x010F30C0) looks at Wolfgang (ID: 17772551/0x010F3007)
546: 0x1046 [0x23] WAIT_FOR_DIALOG_INTERACTION
547: 0x1047 [0x27] REQ_SET(priority=0x03, entity_id=Wolfgang (ID: 17772551/0x010F3007), tag_num=0x29)
548: 0x104E [0x27] REQ_SET(priority=0x03, entity_id=Shantotto (ID: 17772736/0x010F30C0), tag_num=0x0B)
549: 0x1055 [0x2B] Shantotto (ID: 17772736/0x010F30C0) [13976*]:
    → "There are some things that even I cannot divine. It's time to sit back and wait for a sign."
550: 0x105C [0x23] WAIT_FOR_DIALOG_INTERACTION
551: 0x105D [0x55] WAIT_LOAD_SCHEDULER: Wait for scheduler "r007" with entities [LocalPlayer, LocalPlayer], work=88*
552: 0x106C [0x45] LOAD_SCHEDULED_TASK: Load scheduler "r008" with entities [LocalPlayer, LocalPlayer], work=[88*, 0*]
553: 0x107D [0x27] REQ_SET(priority=0x03, entity_id=Pieuje (ID: 17772735/0x010F30BF), tag_num=0x06)
554: 0x1084 [0x2B] Pieuje (ID: 17772735/0x010F30BF) [13977*]:
    → "But it does seem that this problem lies at the center of some grand plan."
555: 0x108B [0x23] WAIT_FOR_DIALOG_INTERACTION
556: 0x108C [0x27] REQ_SET(priority=0x03, entity_id=Pieuje (ID: 17772735/0x010F30BF), tag_num=0x07)
557: 0x1093 [0x4A] Volker (ID: 17772737/0x010F30C1) looks at Pieuje (ID: 17772735/0x010F30BF)
558: 0x109C [0x2B] Volker (ID: 17772737/0x010F30C1) [13978*]:
    → "Without concern for the people of Al Zahbi..."
559: 0x10A3 [0x23] WAIT_FOR_DIALOG_INTERACTION
560: 0x10A4 [0x4A] Wolfgang (ID: 17772551/0x010F3007) looks at Pieuje (ID: 17772735/0x010F30BF)
561: 0x10AD [0x1C] WAIT(10* ticks)
562: 0x10B0 [0x52] END_LOAD_SCHEDULER: End scheduler "r008" with entities [LocalPlayer, LocalPlayer], work=88*
563: 0x10BF [0x45] LOAD_SCHEDULED_TASK: Load scheduler "r009" with entities [LocalPlayer, LocalPlayer], work=[88*, 0*]
564: 0x10D0 [0x4A] Shantotto (ID: 17772736/0x010F30C0) looks at Pieuje (ID: 17772735/0x010F30BF)
565: 0x10D9 [0x2B] Wolfgang (ID: 17772551/0x010F3007) [13979*]:
    → "We need more information."
566: 0x10E0 [0x1C] WAIT(10* ticks)
567: 0x10E3 [0x79] Pieuje (ID: 17772735/0x010F30BF) looks at Wolfgang (ID: 17772551/0x010F3007) (Basic look)
568: 0x10ED [0x23] WAIT_FOR_DIALOG_INTERACTION
569: 0x10EE [0x2B] Pieuje (ID: 17772735/0x010F30BF) [13980*]:
    → "Yes. An individual of keen wits and sharp senses..."
570: 0x10F5 [0x23] WAIT_FOR_DIALOG_INTERACTION
571: 0x10F6 [0x7B] Pieuje (ID: 17772735/0x010F30BF) stops talking
572: 0x10FB [0x1C] WAIT(10* ticks)
573: 0x10FE [0x52] END_LOAD_SCHEDULER: End scheduler "r009" with entities [LocalPlayer, LocalPlayer], work=88*
574: 0x110D [0x45] LOAD_SCHEDULED_TASK: Load scheduler "q000" with entities [LocalPlayer, LocalPlayer], work=[88*, 0*]
575: 0x111E [0x1C] WAIT(20* ticks)
576: 0x1121 [0x2B] Pieuje (ID: 17772735/0x010F30BF) [13981*]:
    → "My lords, I have a suggestion."
577: 0x1128 [0x23] WAIT_FOR_DIALOG_INTERACTION
578: 0x1129 [0x2B] Pieuje (ID: 17772735/0x010F30BF) [13982*]:
    → "<Player> is employed as a mercenary in the Empire."
579: 0x1130 [0x23] WAIT_FOR_DIALOG_INTERACTION
580: 0x1131 [0x29] REQ_SET_WAIT(priority=0x10, entity_id=LocalPlayer, tag_num=0x97)
581: 0x1138 [0x2B] Pieuje (ID: 17772735/0x010F30BF) [13983*]:
    → "However, [she/he] is a distinguished adventurer, who will not sell [his/her] principles for a bag of gil."
582: 0x113F [0x23] WAIT_FOR_DIALOG_INTERACTION
583: 0x1140 [0x52] END_LOAD_SCHEDULER: End scheduler "q000" with entities [LocalPlayer, LocalPlayer], work=88*
584: 0x114F [0x45] LOAD_SCHEDULED_TASK: Load scheduler "ovl1" with entities [Rahal (ID: 17772739/0x010F30C3), Rahal (ID: 17772739/0x010F30C3)], work=[200*, 0*]
585: 0x1160 [0x45] LOAD_SCHEDULED_TASK: Load scheduler "q001" with entities [LocalPlayer, LocalPlayer], work=[88*, 0*]
586: 0x1171 [0x2B] Pieuje (ID: 17772735/0x010F30BF) [13984*]:
    → "I point to the safe delivery of the sage's letter as proof of [his/her] dedication."
587: 0x1178 [0x23] WAIT_FOR_DIALOG_INTERACTION
588: 0x1179 [0x52] END_LOAD_SCHEDULER: End scheduler "q001" with entities [LocalPlayer, LocalPlayer], work=88*
589: 0x1188 [0x45] LOAD_SCHEDULED_TASK: Load scheduler "ovl1" with entities [Rahal (ID: 17772739/0x010F30C3), Rahal (ID: 17772739/0x010F30C3)], work=[200*, 0*]
