# 17772727

## Common Data

| Field            | Value                     |
|------------------|---------------------------|
| Zone             | Ru'Lude Gardens (ID: 243) |
| Block Size       | 6384 bytes                |
| Total Events     | 7                         |
| References Count | 95                        |

## List of Events

| Event ID              | Entrypoint   |   Size |   Instructions |
|-----------------------|--------------|--------|----------------|
| [65535](#event-65535) | 0x0000       |      1 |              1 |
| [122](#event-122)     | 0x0001       |    589 |             86 |
| [142](#event-142)     | 0x024E       |    732 |            101 |
| [143](#event-143)     | 0x052A       |   1011 |            126 |
| [161](#event-161)     | 0x091D       |   1364 |            172 |
| [162](#event-162)     | 0x0E71       |    504 |             72 |
| [123](#event-123)     | 0x1069       |   1759 |            200 |

## DAT References (imed_data)

|   Index | Hex Value   |   Dec Value |
|---------|-------------|-------------|
|       0 | 0x0013      |          19 |
|       1 | 0x0000      |           0 |
|       2 | 0x00EA      |         234 |
|       3 | 0x000F      |          15 |
|       4 | 0x001E      |          30 |
|       5 | 0x32A7      |       12967 |
|       6 | 0x32A8      |       12968 |
|       7 | 0x32A9      |       12969 |
|       8 | 0x003C      |          60 |
|       9 | 0x01E0      |         480 |
|      10 | 0x32AA      |       12970 |
|      11 | 0x0075      |         117 |
|      12 | 0x00C8      |         200 |
|      13 | 0x009D      |         157 |
|      14 | 0x002D      |          45 |
|      15 | 0x01C2      |         450 |
|      16 | 0x3583      |       13699 |
|      17 | 0x00E8      |         232 |
|      18 | 0x3584      |       13700 |
|      19 | 0x3585      |       13701 |
|      20 | 0x3586      |       13702 |
|      21 | 0x3587      |       13703 |
|      22 | 0x012C      |         300 |
|      23 | 0x3588      |       13704 |
|      24 | 0x0007      |           7 |
|      25 | 0x005A      |          90 |
|      26 | 0x0001      |           1 |
|      27 | 0x3589      |       13705 |
|      28 | 0x0016      |          22 |
|      29 | 0x358A      |       13706 |
|      30 | 0x358B      |       13707 |
|      31 | 0x0316      |         790 |
|      32 | 0x007F      |         127 |
|      33 | 0x35A8      |       13736 |
|      34 | 0x35A9      |       13737 |
|      35 | 0x35AA      |       13738 |
|      36 | 0x35AB      |       13739 |
|      37 | 0x0002      |           2 |
|      38 | 0x0003      |           3 |
|      39 | 0x0004      |           4 |
|      40 | 0x0005      |           5 |
|      41 | 0x0006      |           6 |
|      42 | 0x0008      |           8 |
|      43 | 0x35AC      |       13740 |
|      44 | 0x35AD      |       13741 |
|      45 | 0x35AE      |       13742 |
|      46 | 0x35AF      |       13743 |
|      47 | 0x35B0      |       13744 |
|      48 | 0x00C9      |         201 |
|      49 | 0x0101      |         257 |
|      50 | 0x35B4      |       13748 |
|      51 | 0x0078      |         120 |
|      52 | 0x00B9      |         185 |
|      53 | 0x00BE      |         190 |
|      54 | 0x35B5      |       13749 |
|      55 | 0x35B6      |       13750 |
|      56 | 0x35B7      |       13751 |
|      57 | 0x35B8      |       13752 |
|      58 | 0x35B9      |       13753 |
|      59 | 0x35BA      |       13754 |
|      60 | 0x35BB      |       13755 |
|      61 | 0x00C0      |         192 |
|      62 | 0x35BC      |       13756 |
|      63 | 0x35BD      |       13757 |
|      64 | 0x35BE      |       13758 |
|      65 | 0x0096      |         150 |
|      66 | 0x35BF      |       13759 |
|      67 | 0x35C0      |       13760 |
|      68 | 0x35C1      |       13761 |
|      69 | 0x35C2      |       13762 |
|      70 | 0x35C3      |       13763 |
|      71 | 0x0079      |         121 |
|      72 | 0x35C4      |       13764 |
|      73 | 0x35C5      |       13765 |
|      74 | 0x35C6      |       13766 |
|      75 | 0x35C7      |       13767 |
|      76 | 0x35C8      |       13768 |
|      77 | 0x00DB      |         219 |
|      78 | 0x01C4      |         452 |
|      79 | 0x35C9      |       13769 |
|      80 | 0x35CA      |       13770 |
|      81 | 0x35CC      |       13772 |
|      82 | 0x35CB      |       13771 |
|      83 | 0x35CE      |       13774 |
|      84 | 0x00DF      |         223 |
|      85 | 0x35CF      |       13775 |
|      86 | 0x35D0      |       13776 |
|      87 | 0x0258      |         600 |
|      88 | 0x35D1      |       13777 |
|      89 | 0x35D2      |       13778 |
|      90 | 0x00B4      |         180 |
|      91 | 0x35D3      |       13779 |
|      92 | 0x35D4      |       13780 |
|      93 | 0x35D5      |       13781 |
|      94 | 0x00D7      |         215 |

## String References

- **13704**: Help out? [Yes./Not yet.]

## Events

### Event 65535

#### Metadata

| Field        | Value   |
|--------------|---------|
| Entrypoint   | 0x0000  |
| Data Size    | 1 bytes |
| Instructions | 1       |

```
      00 01 02 03 04 05 06 07  08 09 0A 0B 0C 0D 0E 0F
      -- -- -- -- -- -- -- --  -- -- -- -- -- -- -- --
0000: 00                                                .               
```

#### Opcodes

```
  0: 0x0000 [0x00] END_REQSTACK()
```

### Event 122

#### Metadata

| Field        | Value     |
|--------------|-----------|
| Entrypoint   | 0x0001    |
| Data Size    | 589 bytes |
| Instructions | 86        |

```
      00 01 02 03 04 05 06 07  08 09 0A 0B 0C 0D 0E 0F
      -- -- -- -- -- -- -- --  -- -- -- -- -- -- -- --
0000:    42 1A 1A 15 46 01 38  00 80 79 00 F0 FF FF 7F   B...F.8..y.....
0010: F0 FF FF 7F 4E 00 07 30  0F 01 4E 00 AF 30 0F 01  ....N..0..N..0..
0020: 4E 00 12 30 0F 01 92 01  07 30 0F 01 92 01 AF 30  N..0.....0.....0
0030: 0F 01 92 01 12 30 0F 01  94 01 F0 FF FF 7F 94 01  .....0..........
0040: 07 30 0F 01 94 01 AF 30  0F 01 94 01 12 30 0F 01  .0.....0.....0..
0050: 29 10 F0 FF FF 7F 87 29  10 07 30 0F 01 67 29 10  )......)..0..g).
0060: AF 30 0F 01 06 29 10 12  30 0F 01 0F 80 F0 FF FF  .0...)..0.......
0070: 7F 80 07 30 0F 01 80 AF  30 0F 01 80 12 30 0F 01  ...0....0....0..
0080: 66 01 80 07 30 0F 01 07  30 0F 01 74 6C 6B 31 4A  f...0...0..tlk1J
0090: AF 30 0F 01 07 30 0F 01  4A 12 30 0F 01 07 30 0F  .0...0..J.0...0.
00A0: 01 5C 00 02 80 5C 01 02  80 9A 1C 03 80 27 10 F0  .\...\.......'..
00B0: FF FF 7F 88 45 04 80 F0  FF FF 7F F0 FF FF 7F 6A  ....E..........j
00C0: 61 30 30 01 80 1A F9 14  1C 04 80 4A 12 30 0F 01  a00........J.0..
00D0: F0 FF FF 7F 1C 03 80 4A  AF 30 0F 01 F0 FF FF 7F  .......J.0......
00E0: 1C 04 80 66 01 80 07 30  0F 01 07 30 0F 01 74 65  ...f...0...0..te
00F0: 6E 31 4A 07 30 0F 01 F0  FF FF 7F 2A 10 F0 FF FF  n1J.0......*....
0100: 7F 1C 04 80 52 04 80 F0  FF FF 7F F0 FF FF 7F 6A  ....R..........j
0110: 61 30 30 45 04 80 F0 FF  FF 7F F0 FF FF 7F 6A 61  a00E..........ja
0120: 30 31 01 80 66 01 80 07  30 0F 01 07 30 0F 01 74  01..f...0...0..t
0130: 6C 6B 30 2B 07 30 0F 01  05 80 23 2B 07 30 0F 01  lk0+.0....#+.0..
0140: 06 80 23 66 01 80 07 30  0F 01 07 30 0F 01 74 65  ..#f...0...0..te
0150: 6E 30 53 07 30 0F 01 07  30 0F 01 74 65 6E 30 2B  n0S.0...0..ten0+
0160: 07 30 0F 01 07 80 23 7B  AF 30 0F 01 7B 12 30 0F  .0....#{.0..{.0.
0170: 01 52 04 80 F0 FF FF 7F  F0 FF FF 7F 6A 61 30 31  .R..........ja01
0180: 45 04 80 F0 FF FF 7F F0  FF FF 7F 6A 61 30 32 01  E..........ja02.
0190: 80 1C 08 80 27 10 AF 30  0F 01 07 1C 04 80 27 10  ....'..0......'.
01A0: 12 30 0F 01 10 1C 03 80  7B 07 30 0F 01 27 10 07  .0......{.0..'..
01B0: 30 0F 01 68 1C 09 80 52  04 80 F0 FF FF 7F F0 FF  0..h...R........
01C0: FF 7F 6A 61 30 32 45 04  80 F0 FF FF 7F F0 FF FF  ..ja02E.........
01D0: 7F 6A 61 30 33 01 80 55  04 80 F0 FF FF 7F F0 FF  .ja03..U........
01E0: FF 7F 6A 61 30 33 2A 10  07 30 0F 01 1C 08 80 4A  ..ja03*..0.....J
01F0: F0 FF FF 7F 07 30 0F 01  2B 07 30 0F 01 0A 80 23  .....0..+.0....#
0200: 45 04 80 F0 FF FF 7F F0  FF FF 7F 6A 61 30 34 01  E..........ja04.
0210: 80 27 10 07 30 0F 01 69  1C 08 80 1A 1A 15 1C 04  .'..0..i........
0220: 80 52 04 80 F0 FF FF 7F  F0 FF FF 7F 6A 61 30 34  .R..........ja04
0230: 5C 00 0B 80 5C 01 0B 80  9A 46 00 45 0C 80 F0 FF  \...\....F.E....
0240: FF 7F F0 FF FF 7F 66 64  69 32 01 80 21 00        ......fdi2..!.  
```

#### Opcodes

```
  0: 0x0001 [0x42] SET_CLI_EVENT_CANCEL_DATA()
  1: 0x0002 [0x1A] CALL_SUBROUTINE(address=0x151A)
  2: 0x0005 [0x46] CAMERA_CONTROL: Disable user control
  3: 0x0007 [0x38] SET_CLIENT_EVENT_MODE(mode=19*)
  4: 0x000A [0x79] LocalPlayer looks at LocalPlayer (Basic look)
  5: 0x0014 [0x4E] SET_ENTITY_HIDE_FLAG: Show Wolfgang (ID: 17772551/0x010F3007)
  6: 0x001A [0x4E] SET_ENTITY_HIDE_FLAG: Show Crooked Arrow (ID: 17772719/0x010F30AF)
  7: 0x0020 [0x4E] SET_ENTITY_HIDE_FLAG: Show Auchefort (ID: 17772562/0x010F3012)
  8: 0x0026 [0x92] Wolfgang (ID: 17772551/0x010F3007)->Render.Flags3 ^= 0x01
  9: 0x002C [0x92] Crooked Arrow (ID: 17772719/0x010F30AF)->Render.Flags3 ^= 0x01
 10: 0x0032 [0x92] Auchefort (ID: 17772562/0x010F3012)->Render.Flags3 ^= 0x01
 11: 0x0038 [0x94] LocalPlayer->Render.Flags3 ^= 0x01
 12: 0x003E [0x94] Wolfgang (ID: 17772551/0x010F3007)->Render.Flags3 ^= 0x01
 13: 0x0044 [0x94] Crooked Arrow (ID: 17772719/0x010F30AF)->Render.Flags3 ^= 0x01
 14: 0x004A [0x94] Auchefort (ID: 17772562/0x010F3012)->Render.Flags3 ^= 0x01
 15: 0x0050 [0x29] REQ_SET_WAIT(priority=0x10, entity_id=LocalPlayer, tag_num=0x87)
 16: 0x0057 [0x29] REQ_SET_WAIT(priority=0x10, entity_id=Wolfgang (ID: 17772551/0x010F3007), tag_num=0x67)
 17: 0x005E [0x29] REQ_SET_WAIT(priority=0x10, entity_id=Crooked Arrow (ID: 17772719/0x010F30AF), tag_num=0x06)
 18: 0x0065 [0x29] REQ_SET_WAIT(priority=0x10, entity_id=Auchefort (ID: 17772562/0x010F3012), tag_num=0x0F)
 19: 0x006C [0x80] LOAD_WAIT(entity=LocalPlayer)
 20: 0x0071 [0x80] LOAD_WAIT(entity=Wolfgang (ID: 17772551/0x010F3007))
 21: 0x0076 [0x80] LOAD_WAIT(entity=Crooked Arrow (ID: 17772719/0x010F30AF))
 22: 0x007B [0x80] LOAD_WAIT(entity=Auchefort (ID: 17772562/0x010F3012))
 23: 0x0080 [0x66] LOAD_EXT_SCHEDULER_MAIN: Load scheduler "tlk1" with entities [Wolfgang (ID: 17772551/0x010F3007), Wolfgang (ID: 17772551/0x010F3007)], work=0*
 24: 0x008F [0x4A] Crooked Arrow (ID: 17772719/0x010F30AF) looks at Wolfgang (ID: 17772551/0x010F3007)
 25: 0x0098 [0x4A] Auchefort (ID: 17772562/0x010F3012) looks at Wolfgang (ID: 17772551/0x010F3007)
 26: 0x00A1 [0x5C] MUSIC_CONTROL: Set Idle (Day) music to song 234*
 27: 0x00A5 [0x5C] MUSIC_CONTROL: Set Idle (Night) music to song 234*
 28: 0x00A9 [0x9A] WAIT_MUSIC_SERVER()
 29: 0x00AA [0x1C] WAIT(15* ticks)
 30: 0x00AD [0x27] REQ_SET(priority=0x10, entity_id=LocalPlayer, tag_num=0x88)
 31: 0x00B4 [0x45] LOAD_SCHEDULED_TASK: Load scheduler "ja00" with entities [LocalPlayer, LocalPlayer], work=[30*, 0*]
 32: 0x00C5 [0x1A] CALL_SUBROUTINE(address=0x14F9)
 33: 0x00C8 [0x1C] WAIT(30* ticks)
 34: 0x00CB [0x4A] Auchefort (ID: 17772562/0x010F3012) looks at LocalPlayer
 35: 0x00D4 [0x1C] WAIT(15* ticks)
 36: 0x00D7 [0x4A] Crooked Arrow (ID: 17772719/0x010F30AF) looks at LocalPlayer
 37: 0x00E0 [0x1C] WAIT(30* ticks)
 38: 0x00E3 [0x66] LOAD_EXT_SCHEDULER_MAIN: Load scheduler "ten1" with entities [Wolfgang (ID: 17772551/0x010F3007), Wolfgang (ID: 17772551/0x010F3007)], work=0*
 39: 0x00F2 [0x4A] Wolfgang (ID: 17772551/0x010F3007) looks at LocalPlayer
 40: 0x00FB [0x2A] GET_REQ_LEVEL(level=16, entity_id=LocalPlayer)
 41: 0x0101 [0x1C] WAIT(30* ticks)
 42: 0x0104 [0x52] END_LOAD_SCHEDULER: End scheduler "ja00" with entities [LocalPlayer, LocalPlayer], work=30*
 43: 0x0113 [0x45] LOAD_SCHEDULED_TASK: Load scheduler "ja01" with entities [LocalPlayer, LocalPlayer], work=[30*, 0*]
 44: 0x0124 [0x66] LOAD_EXT_SCHEDULER_MAIN: Load scheduler "tlk0" with entities [Wolfgang (ID: 17772551/0x010F3007), Wolfgang (ID: 17772551/0x010F3007)], work=0*
 45: 0x0133 [0x2B] Wolfgang (ID: 17772551/0x010F3007) [12967*]:
    → "<Player>! Lady Esha'ntarl's ship has returned."
 46: 0x013A [0x23] WAIT_FOR_DIALOG_INTERACTION
 47: 0x013B [0x2B] Wolfgang (ID: 17772551/0x010F3007) [12968*]:
    → "This is excellent timing. I was ordered to find you and ask that you proceed to the Marble Bridge--the tavern in Upper Jeuno."
 48: 0x0142 [0x23] WAIT_FOR_DIALOG_INTERACTION
 49: 0x0143 [0x66] LOAD_EXT_SCHEDULER_MAIN: Load scheduler "ten0" with entities [Wolfgang (ID: 17772551/0x010F3007), Wolfgang (ID: 17772551/0x010F3007)], work=0*
 50: 0x0152 [0x53] WAIT_SCHEDULER_TASK: Wait for scheduler "ten0" with entities [Wolfgang (ID: 17772551/0x010F3007), Wolfgang (ID: 17772551/0x010F3007)]
 51: 0x015F [0x2B] Wolfgang (ID: 17772551/0x010F3007) [12969*]:
    → "My duty here is done. I must now journey to each nation and report that the Wyrmking Bahamut no longer poses a threat."
 52: 0x0166 [0x23] WAIT_FOR_DIALOG_INTERACTION
 53: 0x0167 [0x7B] Crooked Arrow (ID: 17772719/0x010F30AF) stops talking
 54: 0x016C [0x7B] Auchefort (ID: 17772562/0x010F3012) stops talking
 55: 0x0171 [0x52] END_LOAD_SCHEDULER: End scheduler "ja01" with entities [LocalPlayer, LocalPlayer], work=30*
 56: 0x0180 [0x45] LOAD_SCHEDULED_TASK: Load scheduler "ja02" with entities [LocalPlayer, LocalPlayer], work=[30*, 0*]
 57: 0x0191 [0x1C] WAIT(60* ticks)
 58: 0x0194 [0x27] REQ_SET(priority=0x10, entity_id=Crooked Arrow (ID: 17772719/0x010F30AF), tag_num=0x07)
 59: 0x019B [0x1C] WAIT(30* ticks)
 60: 0x019E [0x27] REQ_SET(priority=0x10, entity_id=Auchefort (ID: 17772562/0x010F3012), tag_num=0x10)
 61: 0x01A5 [0x1C] WAIT(15* ticks)
 62: 0x01A8 [0x7B] Wolfgang (ID: 17772551/0x010F3007) stops talking
 63: 0x01AD [0x27] REQ_SET(priority=0x10, entity_id=Wolfgang (ID: 17772551/0x010F3007), tag_num=0x68)
 64: 0x01B4 [0x1C] WAIT(480* ticks)
 65: 0x01B7 [0x52] END_LOAD_SCHEDULER: End scheduler "ja02" with entities [LocalPlayer, LocalPlayer], work=30*
 66: 0x01C6 [0x45] LOAD_SCHEDULED_TASK: Load scheduler "ja03" with entities [LocalPlayer, LocalPlayer], work=[30*, 0*]
 67: 0x01D7 [0x55] WAIT_LOAD_SCHEDULER: Wait for scheduler "ja03" with entities [LocalPlayer, LocalPlayer], work=30*
 68: 0x01E6 [0x2A] GET_REQ_LEVEL(level=16, entity_id=Wolfgang (ID: 17772551/0x010F3007))
 69: 0x01EC [0x1C] WAIT(60* ticks)
 70: 0x01EF [0x4A] LocalPlayer looks at Wolfgang (ID: 17772551/0x010F3007)
 71: 0x01F8 [0x2B] Wolfgang (ID: 17772551/0x010F3007) [12970*]:
    → "I hear that this development is all thanks to you and your companions. You have the gratitude of all Jeunoans."
 72: 0x01FF [0x23] WAIT_FOR_DIALOG_INTERACTION
 73: 0x0200 [0x45] LOAD_SCHEDULED_TASK: Load scheduler "ja04" with entities [LocalPlayer, LocalPlayer], work=[30*, 0*]
 74: 0x0211 [0x27] REQ_SET(priority=0x10, entity_id=Wolfgang (ID: 17772551/0x010F3007), tag_num=0x69)
 75: 0x0218 [0x1C] WAIT(60* ticks)
 76: 0x021B [0x1A] CALL_SUBROUTINE(address=0x151A)
 77: 0x021E [0x1C] WAIT(30* ticks)
 78: 0x0221 [0x52] END_LOAD_SCHEDULER: End scheduler "ja04" with entities [LocalPlayer, LocalPlayer], work=30*
 79: 0x0230 [0x5C] MUSIC_CONTROL: Set Idle (Day) music to song 117*
 80: 0x0234 [0x5C] MUSIC_CONTROL: Set Idle (Night) music to song 117*
 81: 0x0238 [0x9A] WAIT_MUSIC_SERVER()
 82: 0x0239 [0x46] CAMERA_CONTROL: Restore default settings
 83: 0x023B [0x45] LOAD_SCHEDULED_TASK: Load scheduler "fdi2" with entities [LocalPlayer, LocalPlayer], work=[200*, 0*]
 84: 0x024C [0x21] END_EVENT
 85: 0x024D [0x00] END_REQSTACK()
```

### Event 142

#### Metadata

| Field        | Value     |
|--------------|-----------|
| Entrypoint   | 0x024E    |
| Data Size    | 732 bytes |
| Instructions | 101       |

```
      00 01 02 03 04 05 06 07  08 09 0A 0B 0C 0D 0E 0F
      -- -- -- -- -- -- -- --  -- -- -- -- -- -- -- --
0240:                                            42 1A                B.
0250: 1A 15 46 01 38 00 80 79  00 F0 FF FF 7F F0 FF FF  ..F.8..y........
0260: 7F 4E 00 76 30 0F 01 2F  00 76 30 0F 01 92 01 0D  .N.v0../.v0.....
0270: 30 0F 01 92 01 0E 30 0F  01 92 01 76 30 0F 01 29  0.....0....v0..)
0280: 10 F0 FF FF 7F 8C 29 10  76 30 0F 01 23 80 F0 FF  ......).v0..#...
0290: FF 7F 80 76 30 0F 01 1C  03 80 27 10 F0 FF FF 7F  ...v0.....'.....
02A0: 8D 45 0D 80 F0 FF FF 7F  F0 FF FF 7F 62 6A 30 30  .E..........bj00
02B0: 01 80 1A F9 14 2A 10 F0  FF FF 7F 1C 04 80 79 00  .....*........y.
02C0: F0 FF FF 7F 76 30 0F 01  1C 0E 80 52 0D 80 F0 FF  ....v0.....R....
02D0: FF 7F F0 FF FF 7F 62 6A  30 30 45 0D 80 F0 FF FF  ......bj00E.....
02E0: 7F F0 FF FF 7F 62 6A 30  31 01 80 29 10 92 30 0F  .....bj01..)..0.
02F0: 01 08 1C 0E 80 29 10 76  30 0F 01 24 79 00 76 30  .....).v0..$y.v0
0300: 0F 01 F0 FF FF 7F 1C 0E  80 5B 0F 80 76 30 0F 01  .........[..v0..
0310: 76 30 0F 01 74 6C 61 30  2B 76 30 0F 01 10 80 23  v0..tla0+v0....#
0320: 1A 1A 15 1C 04 80 29 10  F0 FF FF 7F 8E 29 10 76  ......)......).v
0330: 30 0F 01 25 7B 76 30 0F  01 5C 00 11 80 5C 01 11  0..%{v0..\...\..
0340: 80 9A 1C 03 80 5B 0F 80  76 30 0F 01 76 30 0F 01  .....[..v0..v0..
0350: 74 6C 62 30 52 0D 80 F0  FF FF 7F F0 FF FF 7F 62  tlb0R..........b
0360: 6A 30 31 45 0D 80 F0 FF  FF 7F F0 FF FF 7F 62 6A  j01E..........bj
0370: 30 33 01 80 45 0C 80 F0  FF FF 7F F0 FF FF 7F 66  03..E..........f
0380: 64 69 32 01 80 1C 08 80  2B 76 30 0F 01 12 80 23  di2.....+v0....#
0390: 52 0D 80 F0 FF FF 7F F0  FF FF 7F 62 6A 30 33 45  R..........bj03E
03A0: 0D 80 F0 FF FF 7F F0 FF  FF 7F 62 6A 30 34 01 80  ..........bj04..
03B0: 2B 76 30 0F 01 13 80 23  5B 0F 80 76 30 0F 01 76  +v0....#[..v0..v
03C0: 30 0F 01 74 62 74 68 2B  76 30 0F 01 14 80 23 52  0..tbth+v0....#R
03D0: 0D 80 F0 FF FF 7F F0 FF  FF 7F 62 6A 30 34 45 0D  ..........bj04E.
03E0: 80 F0 FF FF 7F F0 FF FF  7F 62 6A 30 35 01 80 5B  .........bj05..[
03F0: 0F 80 76 30 0F 01 76 30  0F 01 74 68 6B 31 53 76  ..v0..v0..thk1Sv
0400: 30 0F 01 76 30 0F 01 74  68 6B 31 2B 76 30 0F 01  0..v0..thk1+v0..
0410: 15 80 23 5D 01 80 16 80  24 17 80 01 80 01 80 25  ..#]....$......%
0420: 02 00 10 01 80 00 8A 04  6E F0 FF FF 7F 18 80 99  ........n.......
0430: F0 FF FF 7F 99 F0 FF FF  7F 1C 19 80 52 0D 80 F0  ............R...
0440: FF FF 7F F0 FF FF 7F 62  6A 30 35 45 0D 80 F0 FF  .......bj05E....
0450: FF 7F F0 FF FF 7F 62 6A  30 36 01 80 03 01 10 1A  ......bj06......
0460: 80 5B 0F 80 76 30 0F 01  76 30 0F 01 74 6C 63 30  .[..v0..v0..tlc0
0470: 2B 76 30 0F 01 1B 80 23  5B 0F 80 76 30 0F 01 76  +v0....#[..v0..v
0480: 30 0F 01 74 6C 63 31 01  F7 04 02 00 10 1A 80 00  0..tlc1.........
0490: F7 04 6E F0 FF FF 7F 1C  80 99 F0 FF FF 7F 99 F0  ..n.............
04A0: FF FF 7F 1C 19 80 52 0D  80 F0 FF FF 7F F0 FF FF  ......R.........
04B0: 7F 62 6A 30 35 45 0D 80  F0 FF FF 7F F0 FF FF 7F  .bj05E..........
04C0: 62 6A 30 36 01 80 5B 0F  80 76 30 0F 01 76 30 0F  bj06..[..v0..v0.
04D0: 01 74 6C 61 30 2B 76 30  0F 01 1D 80 23 2B 76 30  .tla0+v0....#+v0
04E0: 0F 01 1E 80 23 5B 0F 80  76 30 0F 01 76 30 0F 01  ....#[..v0..v0..
04F0: 74 6C 61 31 01 F7 04 1A  1A 15 1C 04 80 52 04 80  tla1.........R..
0500: F0 FF FF 7F F0 FF FF 7F  62 6A 30 36 5C 00 0B 80  ........bj06\...
0510: 5C 01 0B 80 9A 46 00 45  0C 80 F0 FF FF 7F F0 FF  \....F.E........
0520: FF 7F 66 64 69 32 01 80  21 00                    ..fdi2..!.      
```

#### Opcodes

```
  0: 0x024E [0x42] SET_CLI_EVENT_CANCEL_DATA()
  1: 0x024F [0x1A] CALL_SUBROUTINE(address=0x151A)
  2: 0x0252 [0x46] CAMERA_CONTROL: Disable user control
  3: 0x0254 [0x38] SET_CLIENT_EVENT_MODE(mode=19*)
  4: 0x0257 [0x79] LocalPlayer looks at LocalPlayer (Basic look)
  5: 0x0261 [0x4E] SET_ENTITY_HIDE_FLAG: Show Esha'ntarl (ID: 17772662/0x010F3076)
  6: 0x0267 [0x2F] Esha'ntarl (ID: 17772662/0x010F3076)->Render.Flags0 &= ~0x80000 // Bit 19
  7: 0x026D [0x92] High Wind (ID: 17772557/0x010F300D)->Render.Flags3 ^= 0x01
  8: 0x0273 [0x92] Rainhard (ID: 17772558/0x010F300E)->Render.Flags3 ^= 0x01
  9: 0x0279 [0x92] Esha'ntarl (ID: 17772662/0x010F3076)->Render.Flags3 ^= 0x01
 10: 0x027F [0x29] REQ_SET_WAIT(priority=0x10, entity_id=LocalPlayer, tag_num=0x8C)
 11: 0x0286 [0x29] REQ_SET_WAIT(priority=0x10, entity_id=Esha'ntarl (ID: 17772662/0x010F3076), tag_num=0x23)
 12: 0x028D [0x80] LOAD_WAIT(entity=LocalPlayer)
 13: 0x0292 [0x80] LOAD_WAIT(entity=Esha'ntarl (ID: 17772662/0x010F3076))
 14: 0x0297 [0x1C] WAIT(15* ticks)
 15: 0x029A [0x27] REQ_SET(priority=0x10, entity_id=LocalPlayer, tag_num=0x8D)
 16: 0x02A1 [0x45] LOAD_SCHEDULED_TASK: Load scheduler "bj00" with entities [LocalPlayer, LocalPlayer], work=[157*, 0*]
 17: 0x02B2 [0x1A] CALL_SUBROUTINE(address=0x14F9)
 18: 0x02B5 [0x2A] GET_REQ_LEVEL(level=16, entity_id=LocalPlayer)
 19: 0x02BB [0x1C] WAIT(30* ticks)
 20: 0x02BE [0x79] LocalPlayer looks at Esha'ntarl (ID: 17772662/0x010F3076) (Basic look)
 21: 0x02C8 [0x1C] WAIT(45* ticks)
 22: 0x02CB [0x52] END_LOAD_SCHEDULER: End scheduler "bj00" with entities [LocalPlayer, LocalPlayer], work=157*
 23: 0x02DA [0x45] LOAD_SCHEDULED_TASK: Load scheduler "bj01" with entities [LocalPlayer, LocalPlayer], work=[157*, 0*]
 24: 0x02EB [0x29] REQ_SET_WAIT(priority=0x10, entity_id=Door:Audience Chamber (ID: 17772690/0x010F3092), tag_num=0x08)
 25: 0x02F2 [0x1C] WAIT(45* ticks)
 26: 0x02F5 [0x29] REQ_SET_WAIT(priority=0x10, entity_id=Esha'ntarl (ID: 17772662/0x010F3076), tag_num=0x24)
 27: 0x02FC [0x79] Esha'ntarl (ID: 17772662/0x010F3076) looks at LocalPlayer (Basic look)
 28: 0x0306 [0x1C] WAIT(45* ticks)
 29: 0x0309 [0x5B] LOAD_EXT_SCHEDULER: Load scheduler "tla0" with entities [Esha'ntarl (ID: 17772662/0x010F3076), Esha'ntarl (ID: 17772662/0x010F3076)], work=450*
 30: 0x0318 [0x2B] Esha'ntarl (ID: 17772662/0x010F3076) [13699*]:
    → "<Player>, I have been looking for you. Come. We have confidential matters to discuss."
 31: 0x031F [0x23] WAIT_FOR_DIALOG_INTERACTION
 32: 0x0320 [0x1A] CALL_SUBROUTINE(address=0x151A)
 33: 0x0323 [0x1C] WAIT(30* ticks)
 34: 0x0326 [0x29] REQ_SET_WAIT(priority=0x10, entity_id=LocalPlayer, tag_num=0x8E)
 35: 0x032D [0x29] REQ_SET_WAIT(priority=0x10, entity_id=Esha'ntarl (ID: 17772662/0x010F3076), tag_num=0x25)
 36: 0x0334 [0x7B] Esha'ntarl (ID: 17772662/0x010F3076) stops talking
 37: 0x0339 [0x5C] MUSIC_CONTROL: Set Idle (Day) music to song 232*
 38: 0x033D [0x5C] MUSIC_CONTROL: Set Idle (Night) music to song 232*
 39: 0x0341 [0x9A] WAIT_MUSIC_SERVER()
 40: 0x0342 [0x1C] WAIT(15* ticks)
 41: 0x0345 [0x5B] LOAD_EXT_SCHEDULER: Load scheduler "tlb0" with entities [Esha'ntarl (ID: 17772662/0x010F3076), Esha'ntarl (ID: 17772662/0x010F3076)], work=450*
 42: 0x0354 [0x52] END_LOAD_SCHEDULER: End scheduler "bj01" with entities [LocalPlayer, LocalPlayer], work=157*
 43: 0x0363 [0x45] LOAD_SCHEDULED_TASK: Load scheduler "bj03" with entities [LocalPlayer, LocalPlayer], work=[157*, 0*]
 44: 0x0374 [0x45] LOAD_SCHEDULED_TASK: Load scheduler "fdi2" with entities [LocalPlayer, LocalPlayer], work=[200*, 0*]
 45: 0x0385 [0x1C] WAIT(60* ticks)
 46: 0x0388 [0x2B] Esha'ntarl (ID: 17772662/0x010F3076) [13700*]:
    → "I must speak with you regarding the Wyrmking Bahamut."
 47: 0x038F [0x23] WAIT_FOR_DIALOG_INTERACTION
 48: 0x0390 [0x52] END_LOAD_SCHEDULER: End scheduler "bj03" with entities [LocalPlayer, LocalPlayer], work=157*
 49: 0x039F [0x45] LOAD_SCHEDULED_TASK: Load scheduler "bj04" with entities [LocalPlayer, LocalPlayer], work=[157*, 0*]
 50: 0x03B0 [0x2B] Esha'ntarl (ID: 17772662/0x010F3076) [13701*]:
    → "You may recall him returning to the heavens, but I have received confirmation that he has once again descended upon Cape Riverne."
 51: 0x03B7 [0x23] WAIT_FOR_DIALOG_INTERACTION
 52: 0x03B8 [0x5B] LOAD_EXT_SCHEDULER: Load scheduler "tbth" with entities [Esha'ntarl (ID: 17772662/0x010F3076), Esha'ntarl (ID: 17772662/0x010F3076)], work=450*
 53: 0x03C7 [0x2B] Esha'ntarl (ID: 17772662/0x010F3076) [13702*]:
    → "Judging from the activity of the wyrms remaining in the various regions of Vana'diel, I suspected that they had yet to regain their faith in mankind."
 54: 0x03CE [0x23] WAIT_FOR_DIALOG_INTERACTION
 55: 0x03CF [0x52] END_LOAD_SCHEDULER: End scheduler "bj04" with entities [LocalPlayer, LocalPlayer], work=157*
 56: 0x03DE [0x45] LOAD_SCHEDULED_TASK: Load scheduler "bj05" with entities [LocalPlayer, LocalPlayer], work=[157*, 0*]
 57: 0x03EF [0x5B] LOAD_EXT_SCHEDULER: Load scheduler "thk1" with entities [Esha'ntarl (ID: 17772662/0x010F3076), Esha'ntarl (ID: 17772662/0x010F3076)], work=450*
 58: 0x03FE [0x53] WAIT_SCHEDULER_TASK: Wait for scheduler "thk1" with entities [Esha'ntarl (ID: 17772662/0x010F3076), Esha'ntarl (ID: 17772662/0x010F3076)]
 59: 0x040B [0x2B] Esha'ntarl (ID: 17772662/0x010F3076) [13703*]:
    → "Most importantly, Tavnazia is in danger. Prishe and Ulmia have already been informed. I assume that you will also lend them your aid."
 60: 0x0412 [0x23] WAIT_FOR_DIALOG_INTERACTION
 61: 0x0413 [0x5D] SET_MUSIC_VOLUME(volume=0*, fade_time=300*)
 62: 0x0418 [0x24] CREATE_DIALOG(message_id=13704*, default_option=0*, option_flags=0*)
    → "Help out? [Yes./Not yet.]"
 63: 0x041F [0x25] WAIT_DIALOG_SELECT()
 64: 0x0420 [0x02] IF !(Work_Zone[0] == 0*) GOTO 0x048A
 65: 0x0428 [0x6E] LocalPlayer uses emote 7*
 66: 0x042F [0x99] Wait for LocalPlayer animation to complete
 67: 0x0434 [0x99] Wait for LocalPlayer animation to complete
 68: 0x0439 [0x1C] WAIT(90* ticks)
 69: 0x043C [0x52] END_LOAD_SCHEDULER: End scheduler "bj05" with entities [LocalPlayer, LocalPlayer], work=157*
 70: 0x044B [0x45] LOAD_SCHEDULED_TASK: Load scheduler "bj06" with entities [LocalPlayer, LocalPlayer], work=[157*, 0*]
 71: 0x045C [0x03] Work_Zone[1] = 1*
 72: 0x0461 [0x5B] LOAD_EXT_SCHEDULER: Load scheduler "tlc0" with entities [Esha'ntarl (ID: 17772662/0x010F3076), Esha'ntarl (ID: 17772662/0x010F3076)], work=450*
 73: 0x0470 [0x2B] Esha'ntarl (ID: 17772662/0x010F3076) [13705*]:
    → "Then you should head to Cape Riverne. Prishe and Ulmia have probably already departed."
 74: 0x0477 [0x23] WAIT_FOR_DIALOG_INTERACTION
 75: 0x0478 [0x5B] LOAD_EXT_SCHEDULER: Load scheduler "tlc1" with entities [Esha'ntarl (ID: 17772662/0x010F3076), Esha'ntarl (ID: 17772662/0x010F3076)], work=450*
 76: 0x0487 [0x01] GOTO 0x04F7
 77: 0x048A [0x02] IF !(Work_Zone[0] == 1*) GOTO 0x04F7
 78: 0x0492 [0x6E] LocalPlayer uses emote 22*
 79: 0x0499 [0x99] Wait for LocalPlayer animation to complete
 80: 0x049E [0x99] Wait for LocalPlayer animation to complete
 81: 0x04A3 [0x1C] WAIT(90* ticks)
 82: 0x04A6 [0x52] END_LOAD_SCHEDULER: End scheduler "bj05" with entities [LocalPlayer, LocalPlayer], work=157*
 83: 0x04B5 [0x45] LOAD_SCHEDULED_TASK: Load scheduler "bj06" with entities [LocalPlayer, LocalPlayer], work=[157*, 0*]
 84: 0x04C6 [0x5B] LOAD_EXT_SCHEDULER: Load scheduler "tla0" with entities [Esha'ntarl (ID: 17772662/0x010F3076), Esha'ntarl (ID: 17772662/0x010F3076)], work=450*
 85: 0x04D5 [0x2B] Esha'ntarl (ID: 17772662/0x010F3076) [13706*]:
    → "I see you have other matters to attend to. I know that you would not turn your back on Prishe and Ulmia, though."
 86: 0x04DC [0x23] WAIT_FOR_DIALOG_INTERACTION
 87: 0x04DD [0x2B] Esha'ntarl (ID: 17772662/0x010F3076) [13707*]:
    → "I am sure we have a little time. Return here when you are ready."
 88: 0x04E4 [0x23] WAIT_FOR_DIALOG_INTERACTION
 89: 0x04E5 [0x5B] LOAD_EXT_SCHEDULER: Load scheduler "tla1" with entities [Esha'ntarl (ID: 17772662/0x010F3076), Esha'ntarl (ID: 17772662/0x010F3076)], work=450*
 90: 0x04F4 [0x01] GOTO 0x04F7

SUBROUTINE_04F7:
 91: 0x04F7 [0x1A] CALL_SUBROUTINE(address=0x151A)
 92: 0x04FA [0x1C] WAIT(30* ticks)
 93: 0x04FD [0x52] END_LOAD_SCHEDULER: End scheduler "bj06" with entities [LocalPlayer, LocalPlayer], work=30*
 94: 0x050C [0x5C] MUSIC_CONTROL: Set Idle (Day) music to song 117*
 95: 0x0510 [0x5C] MUSIC_CONTROL: Set Idle (Night) music to song 117*
 96: 0x0514 [0x9A] WAIT_MUSIC_SERVER()
 97: 0x0515 [0x46] CAMERA_CONTROL: Restore default settings
 98: 0x0517 [0x45] LOAD_SCHEDULED_TASK: Load scheduler "fdi2" with entities [LocalPlayer, LocalPlayer], work=[200*, 0*]
 99: 0x0528 [0x21] END_EVENT
100: 0x0529 [0x00] END_REQSTACK()
```

### Event 143

#### Metadata

| Field        | Value      |
|--------------|------------|
| Entrypoint   | 0x052A     |
| Data Size    | 1011 bytes |
| Instructions | 126        |

```
      00 01 02 03 04 05 06 07  08 09 0A 0B 0C 0D 0E 0F
      -- -- -- -- -- -- -- --  -- -- -- -- -- -- -- --
0520:                                42 1A 1A 15 46 01            B...F.
0530: 38 00 80 79 00 F0 FF FF  7F F0 FF FF 7F 4E 00 76  8..y.........N.v
0540: 30 0F 01 2F 00 76 30 0F  01 92 01 0D 30 0F 01 92  0../.v0.....0...
0550: 01 0E 30 0F 01 92 01 76  30 0F 01 29 10 F0 FF FF  ..0....v0..)....
0560: 7F 8E 29 10 76 30 0F 01  25 80 F0 FF FF 7F 80 76  ..).v0..%......v
0570: 30 0F 01 79 00 F0 FF FF  7F 76 30 0F 01 4B 76 30  0..y.....v0..Kv0
0580: 0F 01 1F 80 5B 0F 80 76  30 0F 01 76 30 0F 01 74  ....[..v0..v0..t
0590: 68 6B 30 5C 00 20 80 5C  01 20 80 9A 1C 03 80 45  hk0\. .\. .....E
05A0: 0D 80 F0 FF FF 7F F0 FF  FF 7F 62 6A 31 30 01 80  ..........bj10..
05B0: 1A F9 14 2B 76 30 0F 01  21 80 23 52 0D 80 F0 FF  ...+v0..!.#R....
05C0: FF 7F F0 FF FF 7F 62 6A  31 30 45 0D 80 F0 FF FF  ......bj10E.....
05D0: 7F F0 FF FF 7F 62 6A 31  31 01 80 2B 76 30 0F 01  .....bj11..+v0..
05E0: 22 80 23 2B 76 30 0F 01  23 80 23 5D 01 80 16 80  ".#+v0..#.#]....
05F0: 52 0D 80 F0 FF FF 7F F0  FF FF 7F 62 6A 31 31 45  R..........bj11E
0600: 0D 80 F0 FF FF 7F F0 FF  FF 7F 62 6A 31 32 01 80  ..........bj12..
0610: 5B 0F 80 76 30 0F 01 76  30 0F 01 74 68 6B 31 53  [..v0..v0..thk1S
0620: 76 30 0F 01 76 30 0F 01  74 68 6B 31 4A 76 30 0F  v0..v0..thk1Jv0.
0630: 01 F0 FF FF 7F 1C 0E 80  5B 0F 80 76 30 0F 01 76  ........[..v0..v
0640: 30 0F 01 74 6C 61 30 2B  76 30 0F 01 24 80 23 29  0..tla0+v0..$.#)
0650: 10 F0 FF FF 7F 8F 03 00  00 02 10 52 0D 80 F0 FF  ...........R....
0660: FF 7F F0 FF FF 7F 62 6A  31 32 02 00 00 1A 80 80  ......bj12......
0670: 86 06 45 0D 80 F0 FF FF  7F F0 FF FF 7F 62 68 6D  ..E..........bhm
0680: 30 01 80 01 4A 07 02 00  00 25 80 80 A2 06 45 0D  0...J....%....E.
0690: 80 F0 FF FF 7F F0 FF FF  7F 62 68 66 30 01 80 01  .........bhf0...
06A0: 4A 07 02 00 00 26 80 80  BE 06 45 0D 80 F0 FF FF  J....&....E.....
06B0: 7F F0 FF FF 7F 62 65 6D  30 01 80 01 4A 07 02 00  .....bem0...J...
06C0: 00 27 80 80 DA 06 45 0D  80 F0 FF FF 7F F0 FF FF  .'....E.........
06D0: 7F 62 65 66 30 01 80 01  4A 07 02 00 00 28 80 80  .bef0...J....(..
06E0: F6 06 45 0D 80 F0 FF FF  7F F0 FF FF 7F 62 74 72  ..E..........btr
06F0: 30 01 80 01 4A 07 02 00  00 29 80 80 12 07 45 0D  0...J....)....E.
0700: 80 F0 FF FF 7F F0 FF FF  7F 62 74 72 30 01 80 01  .........btr0...
0710: 4A 07 02 00 00 18 80 80  2E 07 45 0D 80 F0 FF FF  J.........E.....
0720: 7F F0 FF FF 7F 62 6D 74  30 01 80 01 4A 07 02 00  .....bmt0...J...
0730: 00 2A 80 80 4A 07 45 0D  80 F0 FF FF 7F F0 FF FF  .*..J.E.........
0740: 7F 62 67 6C 30 01 80 01  4A 07 2B 76 30 0F 01 2B  .bgl0...J.+v0..+
0750: 80 23 02 00 00 1A 80 80  6C 07 52 0D 80 F0 FF FF  .#......l.R.....
0760: 7F F0 FF FF 7F 62 68 6D  30 01 22 08 02 00 00 25  .....bhm0."....%
0770: 80 80 86 07 52 0D 80 F0  FF FF 7F F0 FF FF 7F 62  ....R..........b
0780: 68 66 30 01 22 08 02 00  00 26 80 80 A0 07 52 0D  hf0."....&....R.
0790: 80 F0 FF FF 7F F0 FF FF  7F 62 65 6D 30 01 22 08  .........bem0.".
07A0: 02 00 00 27 80 80 BA 07  52 0D 80 F0 FF FF 7F F0  ...'....R.......
07B0: FF FF 7F 62 65 66 30 01  22 08 02 00 00 28 80 80  ...bef0."....(..
07C0: D4 07 52 0D 80 F0 FF FF  7F F0 FF FF 7F 62 74 72  ..R..........btr
07D0: 30 01 22 08 02 00 00 29  80 80 EE 07 52 0D 80 F0  0."....)....R...
07E0: FF FF 7F F0 FF FF 7F 62  74 72 30 01 22 08 02 00  .......btr0."...
07F0: 00 18 80 80 08 08 52 0D  80 F0 FF FF 7F F0 FF FF  ......R.........
0800: 7F 62 6D 74 30 01 22 08  02 00 00 2A 80 80 22 08  .bmt0."....*..".
0810: 52 0D 80 F0 FF FF 7F F0  FF FF 7F 62 67 6C 30 01  R..........bgl0.
0820: 22 08 45 0D 80 F0 FF FF  7F F0 FF FF 7F 62 6A 31  ".E..........bj1
0830: 33 01 80 2B 76 30 0F 01  2C 80 23 52 0D 80 F0 FF  3..+v0..,.#R....
0840: FF 7F F0 FF FF 7F 62 6A  31 33 45 0D 80 F0 FF FF  ......bj13E.....
0850: 7F F0 FF FF 7F 62 6A 31  34 01 80 5B 0F 80 76 30  .....bj14..[..v0
0860: 0F 01 76 30 0F 01 74 61  63 30 2B 76 30 0F 01 2D  ..v0..tac0+v0..-
0870: 80 23 5B 0F 80 76 30 0F  01 76 30 0F 01 74 6C 63  .#[..v0..v0..tlc
0880: 31 5C 00 02 80 5C 01 02  80 9A 2B 76 30 0F 01 2E  1\...\....+v0...
0890: 80 23 53 76 30 0F 01 76  30 0F 01 74 6C 63 31 5B  .#Sv0..v0..tlc1[
08A0: 0F 80 76 30 0F 01 76 30  0F 01 74 6C 62 30 1C 03  ..v0..v0..tlb0..
08B0: 80 52 0D 80 F0 FF FF 7F  F0 FF FF 7F 62 6A 31 34  .R..........bj14
08C0: 45 0D 80 F0 FF FF 7F F0  FF FF 7F 62 6A 31 35 01  E..........bj15.
08D0: 80 2B 76 30 0F 01 2F 80  23 1A 1A 15 1C 04 80 52  .+v0../.#......R
08E0: 0D 80 F0 FF FF 7F F0 FF  FF 7F 62 6A 31 35 5C 00  ..........bj15\.
08F0: 0B 80 5C 01 0B 80 9A 46  00 45 30 80 F0 FF FF 7F  ..\....F.E0.....
0900: F0 FF FF 7F 71 73 74 63  01 80 45 0C 80 F0 FF FF  ....qstc..E.....
0910: 7F F0 FF FF 7F 66 64 69  32 01 80 21 00           .....fdi2..!.   
```

#### Opcodes

```
  0: 0x052A [0x42] SET_CLI_EVENT_CANCEL_DATA()
  1: 0x052B [0x1A] CALL_SUBROUTINE(address=0x151A)
  2: 0x052E [0x46] CAMERA_CONTROL: Disable user control
  3: 0x0530 [0x38] SET_CLIENT_EVENT_MODE(mode=19*)
  4: 0x0533 [0x79] LocalPlayer looks at LocalPlayer (Basic look)
  5: 0x053D [0x4E] SET_ENTITY_HIDE_FLAG: Show Esha'ntarl (ID: 17772662/0x010F3076)
  6: 0x0543 [0x2F] Esha'ntarl (ID: 17772662/0x010F3076)->Render.Flags0 &= ~0x80000 // Bit 19
  7: 0x0549 [0x92] High Wind (ID: 17772557/0x010F300D)->Render.Flags3 ^= 0x01
  8: 0x054F [0x92] Rainhard (ID: 17772558/0x010F300E)->Render.Flags3 ^= 0x01
  9: 0x0555 [0x92] Esha'ntarl (ID: 17772662/0x010F3076)->Render.Flags3 ^= 0x01
 10: 0x055B [0x29] REQ_SET_WAIT(priority=0x10, entity_id=LocalPlayer, tag_num=0x8E)
 11: 0x0562 [0x29] REQ_SET_WAIT(priority=0x10, entity_id=Esha'ntarl (ID: 17772662/0x010F3076), tag_num=0x25)
 12: 0x0569 [0x80] LOAD_WAIT(entity=LocalPlayer)
 13: 0x056E [0x80] LOAD_WAIT(entity=Esha'ntarl (ID: 17772662/0x010F3076))
 14: 0x0573 [0x79] LocalPlayer looks at Esha'ntarl (ID: 17772662/0x010F3076) (Basic look)
 15: 0x057D [0x4B] UPDATE_ENTITY_YAW(entity=Esha'ntarl (ID: 17772662/0x010F3076), yaw=4.3°*)
 16: 0x0584 [0x5B] LOAD_EXT_SCHEDULER: Load scheduler "thk0" with entities [Esha'ntarl (ID: 17772662/0x010F3076), Esha'ntarl (ID: 17772662/0x010F3076)], work=450*
 17: 0x0593 [0x5C] MUSIC_CONTROL: Set Idle (Day) music to song 127*
 18: 0x0597 [0x5C] MUSIC_CONTROL: Set Idle (Night) music to song 127*
 19: 0x059B [0x9A] WAIT_MUSIC_SERVER()
 20: 0x059C [0x1C] WAIT(15* ticks)
 21: 0x059F [0x45] LOAD_SCHEDULED_TASK: Load scheduler "bj10" with entities [LocalPlayer, LocalPlayer], work=[157*, 0*]
 22: 0x05B0 [0x1A] CALL_SUBROUTINE(address=0x14F9)
 23: 0x05B3 [0x2B] Esha'ntarl (ID: 17772662/0x010F3076) [13736*]:
    → "The "Star of Tavnazia"... The stone Prishe released when Promathia was defeated..."
 24: 0x05BA [0x23] WAIT_FOR_DIALOG_INTERACTION
 25: 0x05BB [0x52] END_LOAD_SCHEDULER: End scheduler "bj10" with entities [LocalPlayer, LocalPlayer], work=157*
 26: 0x05CA [0x45] LOAD_SCHEDULED_TASK: Load scheduler "bj11" with entities [LocalPlayer, LocalPlayer], work=[157*, 0*]
 27: 0x05DB [0x2B] Esha'ntarl (ID: 17772662/0x010F3076) [13737*]:
    → "The children of Vana'diel harbor the Emptiness inside their bodies, even if just a small amount. I envisioned it causing problems before too many thousands of years passed."
 28: 0x05E2 [0x23] WAIT_FOR_DIALOG_INTERACTION
 29: 0x05E3 [0x2B] Esha'ntarl (ID: 17772662/0x010F3076) [13738*]:
    → "However, I never dreamed that we would face such a threat so soon."
 30: 0x05EA [0x23] WAIT_FOR_DIALOG_INTERACTION
 31: 0x05EB [0x5D] SET_MUSIC_VOLUME(volume=0*, fade_time=300*)
 32: 0x05F0 [0x52] END_LOAD_SCHEDULER: End scheduler "bj11" with entities [LocalPlayer, LocalPlayer], work=157*
 33: 0x05FF [0x45] LOAD_SCHEDULED_TASK: Load scheduler "bj12" with entities [LocalPlayer, LocalPlayer], work=[157*, 0*]
 34: 0x0610 [0x5B] LOAD_EXT_SCHEDULER: Load scheduler "thk1" with entities [Esha'ntarl (ID: 17772662/0x010F3076), Esha'ntarl (ID: 17772662/0x010F3076)], work=450*
 35: 0x061F [0x53] WAIT_SCHEDULER_TASK: Wait for scheduler "thk1" with entities [Esha'ntarl (ID: 17772662/0x010F3076), Esha'ntarl (ID: 17772662/0x010F3076)]
 36: 0x062C [0x4A] Esha'ntarl (ID: 17772662/0x010F3076) looks at LocalPlayer
 37: 0x0635 [0x1C] WAIT(45* ticks)
 38: 0x0638 [0x5B] LOAD_EXT_SCHEDULER: Load scheduler "tla0" with entities [Esha'ntarl (ID: 17772662/0x010F3076), Esha'ntarl (ID: 17772662/0x010F3076)], work=450*
 39: 0x0647 [0x2B] Esha'ntarl (ID: 17772662/0x010F3076) [13739*]:
    → "We have no choice now but to stop Bahamut."
 40: 0x064E [0x23] WAIT_FOR_DIALOG_INTERACTION
 41: 0x064F [0x29] REQ_SET_WAIT(priority=0x10, entity_id=LocalPlayer, tag_num=0x8F)
 42: 0x0656 [0x03] ExtData[1]->WorkLocal[0] = Work_Zone[2]
 43: 0x065B [0x52] END_LOAD_SCHEDULER: End scheduler "bj12" with entities [LocalPlayer, LocalPlayer], work=157*
 44: 0x066A [0x02] IF !(ExtData[1]->WorkLocal[0] == 1*) GOTO 0x0686
 45: 0x0672 [0x45] LOAD_SCHEDULED_TASK: Load scheduler "bhm0" with entities [LocalPlayer, LocalPlayer], work=[157*, 0*]
 46: 0x0683 [0x01] GOTO 0x074A
 47: 0x0686 [0x02] IF !(ExtData[1]->WorkLocal[0] == 2*) GOTO 0x06A2
 48: 0x068E [0x45] LOAD_SCHEDULED_TASK: Load scheduler "bhf0" with entities [LocalPlayer, LocalPlayer], work=[157*, 0*]
 49: 0x069F [0x01] GOTO 0x074A
 50: 0x06A2 [0x02] IF !(ExtData[1]->WorkLocal[0] == 3*) GOTO 0x06BE
 51: 0x06AA [0x45] LOAD_SCHEDULED_TASK: Load scheduler "bem0" with entities [LocalPlayer, LocalPlayer], work=[157*, 0*]
 52: 0x06BB [0x01] GOTO 0x074A
 53: 0x06BE [0x02] IF !(ExtData[1]->WorkLocal[0] == 4*) GOTO 0x06DA
 54: 0x06C6 [0x45] LOAD_SCHEDULED_TASK: Load scheduler "bef0" with entities [LocalPlayer, LocalPlayer], work=[157*, 0*]
 55: 0x06D7 [0x01] GOTO 0x074A
 56: 0x06DA [0x02] IF !(ExtData[1]->WorkLocal[0] == 5*) GOTO 0x06F6
 57: 0x06E2 [0x45] LOAD_SCHEDULED_TASK: Load scheduler "btr0" with entities [LocalPlayer, LocalPlayer], work=[157*, 0*]
 58: 0x06F3 [0x01] GOTO 0x074A
 59: 0x06F6 [0x02] IF !(ExtData[1]->WorkLocal[0] == 6*) GOTO 0x0712
 60: 0x06FE [0x45] LOAD_SCHEDULED_TASK: Load scheduler "btr0" with entities [LocalPlayer, LocalPlayer], work=[157*, 0*]
 61: 0x070F [0x01] GOTO 0x074A
 62: 0x0712 [0x02] IF !(ExtData[1]->WorkLocal[0] == 7*) GOTO 0x072E
 63: 0x071A [0x45] LOAD_SCHEDULED_TASK: Load scheduler "bmt0" with entities [LocalPlayer, LocalPlayer], work=[157*, 0*]
 64: 0x072B [0x01] GOTO 0x074A
 65: 0x072E [0x02] IF !(ExtData[1]->WorkLocal[0] == 8*) GOTO 0x074A
 66: 0x0736 [0x45] LOAD_SCHEDULED_TASK: Load scheduler "bgl0" with entities [LocalPlayer, LocalPlayer], work=[157*, 0*]
 67: 0x0747 [0x01] GOTO 0x074A

SUBROUTINE_074A:
 68: 0x074A [0x2B] Esha'ntarl (ID: 17772662/0x010F3076) [13740*]:
    → "I have a feeling that he was waiting for you, desiring a confrontation."
 69: 0x0751 [0x23] WAIT_FOR_DIALOG_INTERACTION
 70: 0x0752 [0x02] IF !(ExtData[1]->WorkLocal[0] == 1*) GOTO 0x076C
 71: 0x075A [0x52] END_LOAD_SCHEDULER: End scheduler "bhm0" with entities [LocalPlayer, LocalPlayer], work=157*
 72: 0x0769 [0x01] GOTO 0x0822
 73: 0x076C [0x02] IF !(ExtData[1]->WorkLocal[0] == 2*) GOTO 0x0786
 74: 0x0774 [0x52] END_LOAD_SCHEDULER: End scheduler "bhf0" with entities [LocalPlayer, LocalPlayer], work=157*
 75: 0x0783 [0x01] GOTO 0x0822
 76: 0x0786 [0x02] IF !(ExtData[1]->WorkLocal[0] == 3*) GOTO 0x07A0
 77: 0x078E [0x52] END_LOAD_SCHEDULER: End scheduler "bem0" with entities [LocalPlayer, LocalPlayer], work=157*
 78: 0x079D [0x01] GOTO 0x0822
 79: 0x07A0 [0x02] IF !(ExtData[1]->WorkLocal[0] == 4*) GOTO 0x07BA
 80: 0x07A8 [0x52] END_LOAD_SCHEDULER: End scheduler "bef0" with entities [LocalPlayer, LocalPlayer], work=157*
 81: 0x07B7 [0x01] GOTO 0x0822
 82: 0x07BA [0x02] IF !(ExtData[1]->WorkLocal[0] == 5*) GOTO 0x07D4
 83: 0x07C2 [0x52] END_LOAD_SCHEDULER: End scheduler "btr0" with entities [LocalPlayer, LocalPlayer], work=157*
 84: 0x07D1 [0x01] GOTO 0x0822
 85: 0x07D4 [0x02] IF !(ExtData[1]->WorkLocal[0] == 6*) GOTO 0x07EE
 86: 0x07DC [0x52] END_LOAD_SCHEDULER: End scheduler "btr0" with entities [LocalPlayer, LocalPlayer], work=157*
 87: 0x07EB [0x01] GOTO 0x0822
 88: 0x07EE [0x02] IF !(ExtData[1]->WorkLocal[0] == 7*) GOTO 0x0808
 89: 0x07F6 [0x52] END_LOAD_SCHEDULER: End scheduler "bmt0" with entities [LocalPlayer, LocalPlayer], work=157*
 90: 0x0805 [0x01] GOTO 0x0822
 91: 0x0808 [0x02] IF !(ExtData[1]->WorkLocal[0] == 8*) GOTO 0x0822
 92: 0x0810 [0x52] END_LOAD_SCHEDULER: End scheduler "bgl0" with entities [LocalPlayer, LocalPlayer], work=157*
 93: 0x081F [0x01] GOTO 0x0822

SUBROUTINE_0822:
 94: 0x0822 [0x45] LOAD_SCHEDULED_TASK: Load scheduler "bj13" with entities [LocalPlayer, LocalPlayer], work=[157*, 0*]
 95: 0x0833 [0x2B] Esha'ntarl (ID: 17772662/0x010F3076) [13741*]:
    → "Bahamut pays respect to the strong, regardless of stature. It is for that reason he is called the Wyrmking."
 96: 0x083A [0x23] WAIT_FOR_DIALOG_INTERACTION
 97: 0x083B [0x52] END_LOAD_SCHEDULER: End scheduler "bj13" with entities [LocalPlayer, LocalPlayer], work=157*
 98: 0x084A [0x45] LOAD_SCHEDULED_TASK: Load scheduler "bj14" with entities [LocalPlayer, LocalPlayer], work=[157*, 0*]
 99: 0x085B [0x5B] LOAD_EXT_SCHEDULER: Load scheduler "tac0" with entities [Esha'ntarl (ID: 17772662/0x010F3076), Esha'ntarl (ID: 17772662/0x010F3076)], work=450*
100: 0x086A [0x2B] Esha'ntarl (ID: 17772662/0x010F3076) [13742*]:
    → "You must gather an army of adventurers and challenge him yet again. Show our adversary the strength of mankind!"
101: 0x0871 [0x23] WAIT_FOR_DIALOG_INTERACTION
102: 0x0872 [0x5B] LOAD_EXT_SCHEDULER: Load scheduler "tlc1" with entities [Esha'ntarl (ID: 17772662/0x010F3076), Esha'ntarl (ID: 17772662/0x010F3076)], work=450*
103: 0x0881 [0x5C] MUSIC_CONTROL: Set Idle (Day) music to song 234*
104: 0x0885 [0x5C] MUSIC_CONTROL: Set Idle (Night) music to song 234*
105: 0x0889 [0x9A] WAIT_MUSIC_SERVER()
106: 0x088A [0x2B] Esha'ntarl (ID: 17772662/0x010F3076) [13743*]:
    → "As for me, I will conduct a thorough investigation of the emanations coming from the mothercrystals. Perhaps I will find something of interest."
107: 0x0891 [0x23] WAIT_FOR_DIALOG_INTERACTION
108: 0x0892 [0x53] WAIT_SCHEDULER_TASK: Wait for scheduler "tlc1" with entities [Esha'ntarl (ID: 17772662/0x010F3076), Esha'ntarl (ID: 17772662/0x010F3076)]
109: 0x089F [0x5B] LOAD_EXT_SCHEDULER: Load scheduler "tlb0" with entities [Esha'ntarl (ID: 17772662/0x010F3076), Esha'ntarl (ID: 17772662/0x010F3076)], work=450*
110: 0x08AE [0x1C] WAIT(15* ticks)
111: 0x08B1 [0x52] END_LOAD_SCHEDULER: End scheduler "bj14" with entities [LocalPlayer, LocalPlayer], work=157*
112: 0x08C0 [0x45] LOAD_SCHEDULED_TASK: Load scheduler "bj15" with entities [LocalPlayer, LocalPlayer], work=[157*, 0*]
113: 0x08D1 [0x2B] Esha'ntarl (ID: 17772662/0x010F3076) [13744*]:
    → "If you can unlock all the secrets of Vana'diel, we may meet again. I hope with every fabric of my being that that time will come."
114: 0x08D8 [0x23] WAIT_FOR_DIALOG_INTERACTION
115: 0x08D9 [0x1A] CALL_SUBROUTINE(address=0x151A)
116: 0x08DC [0x1C] WAIT(30* ticks)
117: 0x08DF [0x52] END_LOAD_SCHEDULER: End scheduler "bj15" with entities [LocalPlayer, LocalPlayer], work=157*
118: 0x08EE [0x5C] MUSIC_CONTROL: Set Idle (Day) music to song 117*
119: 0x08F2 [0x5C] MUSIC_CONTROL: Set Idle (Night) music to song 117*
120: 0x08F6 [0x9A] WAIT_MUSIC_SERVER()
121: 0x08F7 [0x46] CAMERA_CONTROL: Restore default settings
122: 0x08F9 [0x45] LOAD_SCHEDULED_TASK: Load scheduler "qstc" with entities [LocalPlayer, LocalPlayer], work=[201*, 0*]
123: 0x090A [0x45] LOAD_SCHEDULED_TASK: Load scheduler "fdi2" with entities [LocalPlayer, LocalPlayer], work=[200*, 0*]
124: 0x091B [0x21] END_EVENT
125: 0x091C [0x00] END_REQSTACK()
```

### Event 161

#### Metadata

| Field        | Value      |
|--------------|------------|
| Entrypoint   | 0x091D     |
| Data Size    | 1364 bytes |
| Instructions | 172        |

```
      00 01 02 03 04 05 06 07  08 09 0A 0B 0C 0D 0E 0F
      -- -- -- -- -- -- -- --  -- -- -- -- -- -- -- --
0910:                                         42 1A 1A               B..
0920: 15 46 01 38 00 80 79 00  F0 FF FF 7F F0 FF FF 7F  .F.8..y.........
0930: 4E 00 76 30 0F 01 2F 00  76 30 0F 01 29 10 BD 30  N.v0../.v0..)..0
0940: 0F 01 04 29 10 BE 30 0F  01 04 92 01 0D 30 0F 01  ...)..0......0..
0950: 92 01 0E 30 0F 01 92 01  76 30 0F 01 92 01 BD 30  ...0....v0.....0
0960: 0F 01 92 01 BE 30 0F 01  29 10 F0 FF FF 7F 90 29  .....0..)......)
0970: 10 76 30 0F 01 29 29 10  BD 30 0F 01 09 29 10 BE  .v0..))..0...)..
0980: 30 0F 01 09 80 F0 FF FF  7F 80 76 30 0F 01 80 BD  0.........v0....
0990: 30 0F 01 80 BE 30 0F 01  27 10 F0 FF FF 7F 91 45  0....0..'......E
09A0: 31 80 F0 FF FF 7F F0 FF  FF 7F 6D 6F 30 30 01 80  1.........mo00..
09B0: 1A F9 14 2A 10 F0 FF FF  7F 1C 04 80 79 00 76 30  ...*........y.v0
09C0: 0F 01 F0 FF FF 7F 27 10  76 30 0F 01 2A 1C 03 80  ......'.v0..*...
09D0: 79 00 F0 FF FF 7F 76 30  0F 01 52 31 80 F0 FF FF  y.....v0..R1....
09E0: 7F F0 FF FF 7F 6D 6F 30  30 45 31 80 F0 FF FF 7F  .....mo00E1.....
09F0: F0 FF FF 7F 6D 6F 30 31  01 80 2A 10 76 30 0F 01  ....mo01..*.v0..
0A00: 52 31 80 F0 FF FF 7F F0  FF FF 7F 6D 6F 30 31 45  R1.........mo01E
0A10: 31 80 F0 FF FF 7F F0 FF  FF 7F 6D 6F 30 32 01 80  1.........mo02..
0A20: 5B 0F 80 76 30 0F 01 76  30 0F 01 74 6C 61 30 2B  [..v0..v0..tla0+
0A30: 76 30 0F 01 32 80 23 5B  0F 80 76 30 0F 01 76 30  v0..2.#[..v0..v0
0A40: 0F 01 74 6C 61 31 53 76  30 0F 01 76 30 0F 01 74  ..tla1Sv0..v0..t
0A50: 6C 61 31 5D 01 80 33 80  1A 1A 15 1C 04 80 2A 10  la1]..3.......*.
0A60: F0 FF FF 7F 52 31 80 F0  FF FF 7F F0 FF FF 7F 6D  ....R1.........m
0A70: 6F 30 32 29 10 76 30 0F  01 2B 29 10 F0 FF FF 7F  o02).v0..+).....
0A80: 92 5B 34 80 BD 30 0F 01  BD 30 0F 01 6B 6F 73 30  .[4..0...0..kos0
0A90: 5B 35 80 BE 30 0F 01 BE  30 0F 01 75 74 73 30 5C  [5..0...0..uts0\
0AA0: 00 20 80 5C 01 20 80 9A  1C 04 80 27 10 76 30 0F  . .\. .....'.v0.
0AB0: 01 2C 27 10 F0 FF FF 7F  93 45 31 80 F0 FF FF 7F  .,'......E1.....
0AC0: F0 FF FF 7F 6D 6F 30 33  01 80 1A F9 14 1C 04 80  ....mo03........
0AD0: 5B 35 80 BE 30 0F 01 BE  30 0F 01 75 74 73 31 2A  [5..0...0..uts1*
0AE0: 10 F0 FF FF 7F 52 31 80  F0 FF FF 7F F0 FF FF 7F  .....R1.........
0AF0: 6D 6F 30 33 45 31 80 F0  FF FF 7F F0 FF FF 7F 6D  mo03E1.........m
0B00: 6F 30 34 01 80 2B BD 30  0F 01 36 80 23 1C 04 80  o04..+.0..6.#...
0B10: 7B 76 30 0F 01 79 00 BD  30 0F 01 76 30 0F 01 27  {v0..y..0..v0..'
0B20: 10 76 30 0F 01 2D 1C 19  80 79 00 BE 30 0F 01 76  .v0..-...y..0..v
0B30: 30 0F 01 52 31 80 F0 FF  FF 7F F0 FF FF 7F 6D 6F  0..R1.........mo
0B40: 30 34 45 31 80 F0 FF FF  7F F0 FF FF 7F 6D 6F 30  04E1.........mo0
0B50: 35 01 80 2A 10 76 30 0F  01 1C 04 80 2B 76 30 0F  5..*.v0.....+v0.
0B60: 01 37 80 23 2B 76 30 0F  01 38 80 23 52 31 80 F0  .7.#+v0..8.#R1..
0B70: FF FF 7F F0 FF FF 7F 6D  6F 30 35 45 31 80 F0 FF  .......mo05E1...
0B80: FF 7F F0 FF FF 7F 6D 6F  30 36 01 80 4B 76 30 0F  ......mo06..Kv0.
0B90: 01 01 80 6F 76 76 30 0F  01 5B 34 80 BD 30 0F 01  ...ovv0..[4..0..
0BA0: BD 30 0F 01 6B 6F 73 31  2B 76 30 0F 01 39 80 23  .0..kos1+v0..9.#
0BB0: 79 00 76 30 0F 01 F0 FF  FF 7F 1C 04 80 79 00 F0  y.v0.........y..
0BC0: FF FF 7F BD 30 0F 01 2B  76 30 0F 01 3A 80 23 53  ....0..+v0..:.#S
0BD0: BD 30 0F 01 BD 30 0F 01  6B 6F 73 31 52 31 80 F0  .0...0..kos1R1..
0BE0: FF FF 7F F0 FF FF 7F 6D  6F 30 36 45 31 80 F0 FF  .......mo06E1...
0BF0: FF 7F F0 FF FF 7F 6D 6F  30 37 01 80 5B 34 80 BD  ......mo07..[4..
0C00: 30 0F 01 BD 30 0F 01 75  64 65 30 1C 04 80 79 00  0...0..ude0...y.
0C10: BE 30 0F 01 BD 30 0F 01  2B BD 30 0F 01 3B 80 23  .0...0..+.0..;.#
0C20: 79 00 BD 30 0F 01 F0 FF  FF 7F 1C 0E 80 52 31 80  y..0.........R1.
0C30: F0 FF FF 7F F0 FF FF 7F  6D 6F 30 37 45 31 80 F0  ........mo07E1..
0C40: FF FF 7F F0 FF FF 7F 6D  6F 30 38 01 80 2B BD 30  .......mo08..+.0
0C50: 0F 01 3C 80 23 7B BE 30  0F 01 5B 34 80 BD 30 0F  ..<.#{.0..[4..0.
0C60: 01 BD 30 0F 01 75 64 65  31 1C 33 80 5B 3D 80 BE  ..0..ude1.3.[=..
0C70: 30 0F 01 BE 30 0F 01 70  61 73 30 2B BE 30 0F 01  0...0..pas0+.0..
0C80: 3E 80 23 79 00 BD 30 0F  01 F0 FF FF 7F 53 BE 30  >.#y..0......S.0
0C90: 0F 01 BE 30 0F 01 70 61  73 30 52 31 80 F0 FF FF  ...0..pas0R1....
0CA0: 7F F0 FF FF 7F 6D 6F 30  38 45 31 80 F0 FF FF 7F  .....mo08E1.....
0CB0: F0 FF FF 7F 6D 6F 30 39  01 80 79 00 BE 30 0F 01  ....mo09..y..0..
0CC0: BD 30 0F 01 2B BD 30 0F  01 3F 80 23 7B BD 30 0F  .0..+.0..?.#{.0.
0CD0: 01 27 10 BD 30 0F 01 0A  1C 08 80 4A 76 30 0F 01  .'..0......Jv0..
0CE0: F0 FF FF 7F 52 31 80 F0  FF FF 7F F0 FF FF 7F 6D  ....R1.........m
0CF0: 6F 30 39 45 31 80 F0 FF  FF 7F F0 FF FF 7F 6D 6F  o09E1.........mo
0D00: 31 30 01 80 2A 10 BD 30  0F 01 79 00 BD 30 0F 01  10..*..0..y..0..
0D10: F0 FF FF 7F 1C 04 80 2B  BD 30 0F 01 40 80 23 52  .......+.0..@.#R
0D20: 31 80 F0 FF FF 7F F0 FF  FF 7F 6D 6F 31 30 45 31  1.........mo10E1
0D30: 80 F0 FF FF 7F F0 FF FF  7F 6D 6F 31 31 01 80 1C  .........mo11...
0D40: 41 80 2B 76 30 0F 01 42  80 23 4A BD 30 0F 01 76  A.+v0..B.#J.0..v
0D50: 30 0F 01 79 00 F0 FF FF  7F 76 30 0F 01 52 31 80  0..y.....v0..R1.
0D60: F0 FF FF 7F F0 FF FF 7F  6D 6F 31 31 45 31 80 F0  ........mo11E1..
0D70: FF FF 7F F0 FF FF 7F 6D  6F 31 32 01 80 5B 0F 80  .......mo12..[..
0D80: 76 30 0F 01 76 30 0F 01  74 6C 63 30 2B 76 30 0F  v0..v0..tlc0+v0.
0D90: 01 43 80 23 52 31 80 F0  FF FF 7F F0 FF FF 7F 6D  .C.#R1.........m
0DA0: 6F 31 32 45 31 80 F0 FF  FF 7F F0 FF FF 7F 6D 6F  o12E1.........mo
0DB0: 31 33 01 80 5B 0F 80 76  30 0F 01 76 30 0F 01 74  13..[..v0..v0..t
0DC0: 63 74 68 1C 04 80 2B 76  30 0F 01 44 80 23 7B BE  cth...+v0..D.#{.
0DD0: 30 0F 01 27 10 BD 30 0F  01 0B 1C 04 80 52 31 80  0..'..0......R1.
0DE0: F0 FF FF 7F F0 FF FF 7F  6D 6F 31 33 45 31 80 F0  ........mo13E1..
0DF0: FF FF 7F F0 FF FF 7F 6D  6F 31 34 01 80 79 00 F0  .......mo14..y..
0E00: FF FF 7F BD 30 0F 01 2B  BD 30 0F 01 45 80 23 2A  ....0..+.0..E.#*
0E10: 10 BD 30 0F 01 1C 04 80  5B 35 80 BE 30 0F 01 BE  ..0.....[5..0...
0E20: 30 0F 01 75 74 73 30 2B  BE 30 0F 01 46 80 23 5B  0..uts0+.0..F.#[
0E30: 35 80 BE 30 0F 01 BE 30  0F 01 75 74 73 31 1A 1A  5..0...0..uts1..
0E40: 15 1C 04 80 52 31 80 F0  FF FF 7F F0 FF FF 7F 6D  ....R1.........m
0E50: 6F 31 34 5C 00 0B 80 5C  01 0B 80 9A 46 00 45 0C  o14\...\....F.E.
0E60: 80 F0 FF FF 7F F0 FF FF  7F 66 64 69 32 01 80 21  .........fdi2..!
0E70: 00                                                .               
```

#### Opcodes

```
  0: 0x091D [0x42] SET_CLI_EVENT_CANCEL_DATA()
  1: 0x091E [0x1A] CALL_SUBROUTINE(address=0x151A)
  2: 0x0921 [0x46] CAMERA_CONTROL: Disable user control
  3: 0x0923 [0x38] SET_CLIENT_EVENT_MODE(mode=19*)
  4: 0x0926 [0x79] LocalPlayer looks at LocalPlayer (Basic look)
  5: 0x0930 [0x4E] SET_ENTITY_HIDE_FLAG: Show Esha'ntarl (ID: 17772662/0x010F3076)
  6: 0x0936 [0x2F] Esha'ntarl (ID: 17772662/0x010F3076)->Render.Flags0 &= ~0x80000 // Bit 19
  7: 0x093C [0x29] REQ_SET_WAIT(priority=0x10, entity_id=Aldo (ID: 17772733/0x010F30BD), tag_num=0x04)
  8: 0x0943 [0x29] REQ_SET_WAIT(priority=0x10, entity_id=Verena (ID: 17772734/0x010F30BE), tag_num=0x04)
  9: 0x094A [0x92] High Wind (ID: 17772557/0x010F300D)->Render.Flags3 ^= 0x01
 10: 0x0950 [0x92] Rainhard (ID: 17772558/0x010F300E)->Render.Flags3 ^= 0x01
 11: 0x0956 [0x92] Esha'ntarl (ID: 17772662/0x010F3076)->Render.Flags3 ^= 0x01
 12: 0x095C [0x92] Aldo (ID: 17772733/0x010F30BD)->Render.Flags3 ^= 0x01
 13: 0x0962 [0x92] Verena (ID: 17772734/0x010F30BE)->Render.Flags3 ^= 0x01
 14: 0x0968 [0x29] REQ_SET_WAIT(priority=0x10, entity_id=LocalPlayer, tag_num=0x90)
 15: 0x096F [0x29] REQ_SET_WAIT(priority=0x10, entity_id=Esha'ntarl (ID: 17772662/0x010F3076), tag_num=0x29)
 16: 0x0976 [0x29] REQ_SET_WAIT(priority=0x10, entity_id=Aldo (ID: 17772733/0x010F30BD), tag_num=0x09)
 17: 0x097D [0x29] REQ_SET_WAIT(priority=0x10, entity_id=Verena (ID: 17772734/0x010F30BE), tag_num=0x09)
 18: 0x0984 [0x80] LOAD_WAIT(entity=LocalPlayer)
 19: 0x0989 [0x80] LOAD_WAIT(entity=Esha'ntarl (ID: 17772662/0x010F3076))
 20: 0x098E [0x80] LOAD_WAIT(entity=Aldo (ID: 17772733/0x010F30BD))
 21: 0x0993 [0x80] LOAD_WAIT(entity=Verena (ID: 17772734/0x010F30BE))
 22: 0x0998 [0x27] REQ_SET(priority=0x10, entity_id=LocalPlayer, tag_num=0x91)
 23: 0x099F [0x45] LOAD_SCHEDULED_TASK: Load scheduler "mo00" with entities [LocalPlayer, LocalPlayer], work=[257*, 0*]
 24: 0x09B0 [0x1A] CALL_SUBROUTINE(address=0x14F9)
 25: 0x09B3 [0x2A] GET_REQ_LEVEL(level=16, entity_id=LocalPlayer)
 26: 0x09B9 [0x1C] WAIT(30* ticks)
 27: 0x09BC [0x79] Esha'ntarl (ID: 17772662/0x010F3076) looks at LocalPlayer (Basic look)
 28: 0x09C6 [0x27] REQ_SET(priority=0x10, entity_id=Esha'ntarl (ID: 17772662/0x010F3076), tag_num=0x2A)
 29: 0x09CD [0x1C] WAIT(15* ticks)
 30: 0x09D0 [0x79] LocalPlayer looks at Esha'ntarl (ID: 17772662/0x010F3076) (Basic look)
 31: 0x09DA [0x52] END_LOAD_SCHEDULER: End scheduler "mo00" with entities [LocalPlayer, LocalPlayer], work=257*
 32: 0x09E9 [0x45] LOAD_SCHEDULED_TASK: Load scheduler "mo01" with entities [LocalPlayer, LocalPlayer], work=[257*, 0*]
 33: 0x09FA [0x2A] GET_REQ_LEVEL(level=16, entity_id=Esha'ntarl (ID: 17772662/0x010F3076))
 34: 0x0A00 [0x52] END_LOAD_SCHEDULER: End scheduler "mo01" with entities [LocalPlayer, LocalPlayer], work=257*
 35: 0x0A0F [0x45] LOAD_SCHEDULED_TASK: Load scheduler "mo02" with entities [LocalPlayer, LocalPlayer], work=[257*, 0*]
 36: 0x0A20 [0x5B] LOAD_EXT_SCHEDULER: Load scheduler "tla0" with entities [Esha'ntarl (ID: 17772662/0x010F3076), Esha'ntarl (ID: 17772662/0x010F3076)], work=450*
 37: 0x0A2F [0x2B] Esha'ntarl (ID: 17772662/0x010F3076) [13748*]:
    → "<Player>, there is someone I would like you to meet. Please come this way..."
 38: 0x0A36 [0x23] WAIT_FOR_DIALOG_INTERACTION
 39: 0x0A37 [0x5B] LOAD_EXT_SCHEDULER: Load scheduler "tla1" with entities [Esha'ntarl (ID: 17772662/0x010F3076), Esha'ntarl (ID: 17772662/0x010F3076)], work=450*
 40: 0x0A46 [0x53] WAIT_SCHEDULER_TASK: Wait for scheduler "tla1" with entities [Esha'ntarl (ID: 17772662/0x010F3076), Esha'ntarl (ID: 17772662/0x010F3076)]
 41: 0x0A53 [0x5D] SET_MUSIC_VOLUME(volume=0*, fade_time=120*)
 42: 0x0A58 [0x1A] CALL_SUBROUTINE(address=0x151A)
 43: 0x0A5B [0x1C] WAIT(30* ticks)
 44: 0x0A5E [0x2A] GET_REQ_LEVEL(level=16, entity_id=LocalPlayer)
 45: 0x0A64 [0x52] END_LOAD_SCHEDULER: End scheduler "mo02" with entities [LocalPlayer, LocalPlayer], work=257*
 46: 0x0A73 [0x29] REQ_SET_WAIT(priority=0x10, entity_id=Esha'ntarl (ID: 17772662/0x010F3076), tag_num=0x2B)
 47: 0x0A7A [0x29] REQ_SET_WAIT(priority=0x10, entity_id=LocalPlayer, tag_num=0x92)
 48: 0x0A81 [0x5B] LOAD_EXT_SCHEDULER: Load scheduler "kos0" with entities [Aldo (ID: 17772733/0x010F30BD), Aldo (ID: 17772733/0x010F30BD)], work=185*
 49: 0x0A90 [0x5B] LOAD_EXT_SCHEDULER: Load scheduler "uts0" with entities [Verena (ID: 17772734/0x010F30BE), Verena (ID: 17772734/0x010F30BE)], work=190*
 50: 0x0A9F [0x5C] MUSIC_CONTROL: Set Idle (Day) music to song 127*
 51: 0x0AA3 [0x5C] MUSIC_CONTROL: Set Idle (Night) music to song 127*
 52: 0x0AA7 [0x9A] WAIT_MUSIC_SERVER()
 53: 0x0AA8 [0x1C] WAIT(30* ticks)
 54: 0x0AAB [0x27] REQ_SET(priority=0x10, entity_id=Esha'ntarl (ID: 17772662/0x010F3076), tag_num=0x2C)
 55: 0x0AB2 [0x27] REQ_SET(priority=0x10, entity_id=LocalPlayer, tag_num=0x93)
 56: 0x0AB9 [0x45] LOAD_SCHEDULED_TASK: Load scheduler "mo03" with entities [LocalPlayer, LocalPlayer], work=[257*, 0*]
 57: 0x0ACA [0x1A] CALL_SUBROUTINE(address=0x14F9)
 58: 0x0ACD [0x1C] WAIT(30* ticks)
 59: 0x0AD0 [0x5B] LOAD_EXT_SCHEDULER: Load scheduler "uts1" with entities [Verena (ID: 17772734/0x010F30BE), Verena (ID: 17772734/0x010F30BE)], work=190*
 60: 0x0ADF [0x2A] GET_REQ_LEVEL(level=16, entity_id=LocalPlayer)
 61: 0x0AE5 [0x52] END_LOAD_SCHEDULER: End scheduler "mo03" with entities [LocalPlayer, LocalPlayer], work=257*
 62: 0x0AF4 [0x45] LOAD_SCHEDULED_TASK: Load scheduler "mo04" with entities [LocalPlayer, LocalPlayer], work=[257*, 0*]
 63: 0x0B05 [0x2B] Aldo (ID: 17772733/0x010F30BD) [13749*]:
    → "I have a fair idea of what's going on. It's surprising to find a Zilartian with a level head on her shoulders."
 64: 0x0B0C [0x23] WAIT_FOR_DIALOG_INTERACTION
 65: 0x0B0D [0x1C] WAIT(30* ticks)
 66: 0x0B10 [0x7B] Esha'ntarl (ID: 17772662/0x010F3076) stops talking
 67: 0x0B15 [0x79] Aldo (ID: 17772733/0x010F30BD) looks at Esha'ntarl (ID: 17772662/0x010F3076) (Basic look)
 68: 0x0B1F [0x27] REQ_SET(priority=0x10, entity_id=Esha'ntarl (ID: 17772662/0x010F3076), tag_num=0x2D)
 69: 0x0B26 [0x1C] WAIT(90* ticks)
 70: 0x0B29 [0x79] Verena (ID: 17772734/0x010F30BE) looks at Esha'ntarl (ID: 17772662/0x010F3076) (Basic look)
 71: 0x0B33 [0x52] END_LOAD_SCHEDULER: End scheduler "mo04" with entities [LocalPlayer, LocalPlayer], work=257*
 72: 0x0B42 [0x45] LOAD_SCHEDULED_TASK: Load scheduler "mo05" with entities [LocalPlayer, LocalPlayer], work=[257*, 0*]
 73: 0x0B53 [0x2A] GET_REQ_LEVEL(level=16, entity_id=Esha'ntarl (ID: 17772662/0x010F3076))
 74: 0x0B59 [0x1C] WAIT(30* ticks)
 75: 0x0B5C [0x2B] Esha'ntarl (ID: 17772662/0x010F3076) [13750*]:
    → "There are four mothercrystal locations: the Crag of Holla, the Crag of Dem, the Crag of Mea, and the ruins of Pso'Xja."
 76: 0x0B63 [0x23] WAIT_FOR_DIALOG_INTERACTION
 77: 0x0B64 [0x2B] Esha'ntarl (ID: 17772662/0x010F3076) [13751*]:
    → "Our investigation into the Emptiness surrounding these locations has produced some unusual readings."
 78: 0x0B6B [0x23] WAIT_FOR_DIALOG_INTERACTION
 79: 0x0B6C [0x52] END_LOAD_SCHEDULER: End scheduler "mo05" with entities [LocalPlayer, LocalPlayer], work=257*
 80: 0x0B7B [0x45] LOAD_SCHEDULED_TASK: Load scheduler "mo06" with entities [LocalPlayer, LocalPlayer], work=[257*, 0*]
 81: 0x0B8C [0x4B] UPDATE_ENTITY_YAW(entity=Esha'ntarl (ID: 17772662/0x010F3076), yaw=0.0°*)
 82: 0x0B93 [0x6F] WAIT_FRAME_DELAY: Yield until WaitTime reaches zero
 83: 0x0B94 [0x76] CHECK_ENTITY_RENDER_FLAGS: Wait until Esha'ntarl (ID: 17772662/0x010F3076) Render.Flags0 and Render.Flags3 conditions are met
 84: 0x0B99 [0x5B] LOAD_EXT_SCHEDULER: Load scheduler "kos1" with entities [Aldo (ID: 17772733/0x010F30BD), Aldo (ID: 17772733/0x010F30BD)], work=185*
 85: 0x0BA8 [0x2B] Esha'ntarl (ID: 17772662/0x010F3076) [13752*]:
    → "We put together a research team equipped with the latest weapons--weapons designed to combat the Emptiness--and sent them to Pso'Xja."
 86: 0x0BAF [0x23] WAIT_FOR_DIALOG_INTERACTION
 87: 0x0BB0 [0x79] Esha'ntarl (ID: 17772662/0x010F3076) looks at LocalPlayer (Basic look)
 88: 0x0BBA [0x1C] WAIT(30* ticks)
 89: 0x0BBD [0x79] LocalPlayer looks at Aldo (ID: 17772733/0x010F30BD) (Basic look)
 90: 0x0BC7 [0x2B] Esha'ntarl (ID: 17772662/0x010F3076) [13753*]:
    → "And you wouldn't guess who they encountered..."
 91: 0x0BCE [0x23] WAIT_FOR_DIALOG_INTERACTION
 92: 0x0BCF [0x53] WAIT_SCHEDULER_TASK: Wait for scheduler "kos1" with entities [Aldo (ID: 17772733/0x010F30BD), Aldo (ID: 17772733/0x010F30BD)]
 93: 0x0BDC [0x52] END_LOAD_SCHEDULER: End scheduler "mo06" with entities [LocalPlayer, LocalPlayer], work=257*
 94: 0x0BEB [0x45] LOAD_SCHEDULED_TASK: Load scheduler "mo07" with entities [LocalPlayer, LocalPlayer], work=[257*, 0*]
 95: 0x0BFC [0x5B] LOAD_EXT_SCHEDULER: Load scheduler "ude0" with entities [Aldo (ID: 17772733/0x010F30BD), Aldo (ID: 17772733/0x010F30BD)], work=185*
 96: 0x0C0B [0x1C] WAIT(30* ticks)
 97: 0x0C0E [0x79] Verena (ID: 17772734/0x010F30BE) looks at Aldo (ID: 17772733/0x010F30BD) (Basic look)
 98: 0x0C18 [0x2B] Aldo (ID: 17772733/0x010F30BD) [13754*]:
    → "The ruins of Pso'Xja are under Tenshodo authority. Technically speaking, your researchers were trespassing."
 99: 0x0C1F [0x23] WAIT_FOR_DIALOG_INTERACTION
100: 0x0C20 [0x79] Aldo (ID: 17772733/0x010F30BD) looks at LocalPlayer (Basic look)
101: 0x0C2A [0x1C] WAIT(45* ticks)
102: 0x0C2D [0x52] END_LOAD_SCHEDULER: End scheduler "mo07" with entities [LocalPlayer, LocalPlayer], work=257*
103: 0x0C3C [0x45] LOAD_SCHEDULED_TASK: Load scheduler "mo08" with entities [LocalPlayer, LocalPlayer], work=[257*, 0*]
104: 0x0C4D [0x2B] Aldo (ID: 17772733/0x010F30BD) [13755*]:
    → "Verena had wandered down there like she was being guided by something."
105: 0x0C54 [0x23] WAIT_FOR_DIALOG_INTERACTION
106: 0x0C55 [0x7B] Verena (ID: 17772734/0x010F30BE) stops talking
107: 0x0C5A [0x5B] LOAD_EXT_SCHEDULER: Load scheduler "ude1" with entities [Aldo (ID: 17772733/0x010F30BD), Aldo (ID: 17772733/0x010F30BD)], work=185*
108: 0x0C69 [0x1C] WAIT(120* ticks)
109: 0x0C6C [0x5B] LOAD_EXT_SCHEDULER: Load scheduler "pas0" with entities [Verena (ID: 17772734/0x010F30BE), Verena (ID: 17772734/0x010F30BE)], work=192*
110: 0x0C7B [0x2B] Verena (ID: 17772734/0x010F30BE) [13756*]:
    → "I found this at the place to where I was drawn."
111: 0x0C82 [0x23] WAIT_FOR_DIALOG_INTERACTION
112: 0x0C83 [0x79] Aldo (ID: 17772733/0x010F30BD) looks at LocalPlayer (Basic look)
113: 0x0C8D [0x53] WAIT_SCHEDULER_TASK: Wait for scheduler "pas0" with entities [Verena (ID: 17772734/0x010F30BE), Verena (ID: 17772734/0x010F30BE)]
114: 0x0C9A [0x52] END_LOAD_SCHEDULER: End scheduler "mo08" with entities [LocalPlayer, LocalPlayer], work=257*
115: 0x0CA9 [0x45] LOAD_SCHEDULED_TASK: Load scheduler "mo09" with entities [LocalPlayer, LocalPlayer], work=[257*, 0*]
116: 0x0CBA [0x79] Verena (ID: 17772734/0x010F30BE) looks at Aldo (ID: 17772733/0x010F30BD) (Basic look)
117: 0x0CC4 [0x2B] Aldo (ID: 17772733/0x010F30BD) [13757*]:
    → "Apparently it belonged to a Galka known as Raogrimm--I'm sure you remember the name."
118: 0x0CCB [0x23] WAIT_FOR_DIALOG_INTERACTION
119: 0x0CCC [0x7B] Aldo (ID: 17772733/0x010F30BD) stops talking
120: 0x0CD1 [0x27] REQ_SET(priority=0x10, entity_id=Aldo (ID: 17772733/0x010F30BD), tag_num=0x0A)
121: 0x0CD8 [0x1C] WAIT(60* ticks)
122: 0x0CDB [0x4A] Esha'ntarl (ID: 17772662/0x010F3076) looks at LocalPlayer
123: 0x0CE4 [0x52] END_LOAD_SCHEDULER: End scheduler "mo09" with entities [LocalPlayer, LocalPlayer], work=257*
124: 0x0CF3 [0x45] LOAD_SCHEDULED_TASK: Load scheduler "mo10" with entities [LocalPlayer, LocalPlayer], work=[257*, 0*]
125: 0x0D04 [0x2A] GET_REQ_LEVEL(level=16, entity_id=Aldo (ID: 17772733/0x010F30BD))
126: 0x0D0A [0x79] Aldo (ID: 17772733/0x010F30BD) looks at LocalPlayer (Basic look)
127: 0x0D14 [0x1C] WAIT(30* ticks)
128: 0x0D17 [0x2B] Aldo (ID: 17772733/0x010F30BD) [13758*]:
    → "Verena was once the receptacle for the memories of the Shadow Lord. This must be the reason behind her behavior."
129: 0x0D1E [0x23] WAIT_FOR_DIALOG_INTERACTION
130: 0x0D1F [0x52] END_LOAD_SCHEDULER: End scheduler "mo10" with entities [LocalPlayer, LocalPlayer], work=257*
131: 0x0D2E [0x45] LOAD_SCHEDULED_TASK: Load scheduler "mo11" with entities [LocalPlayer, LocalPlayer], work=[257*, 0*]
132: 0x0D3F [0x1C] WAIT(150* ticks)
133: 0x0D42 [0x2B] Esha'ntarl (ID: 17772662/0x010F3076) [13759*]:
    → "Similar readings have been recorded from the Emptiness found below the crags of Holla, Dem, and Mea."
134: 0x0D49 [0x23] WAIT_FOR_DIALOG_INTERACTION
135: 0x0D4A [0x4A] Aldo (ID: 17772733/0x010F30BD) looks at Esha'ntarl (ID: 17772662/0x010F3076)
136: 0x0D53 [0x79] LocalPlayer looks at Esha'ntarl (ID: 17772662/0x010F3076) (Basic look)
137: 0x0D5D [0x52] END_LOAD_SCHEDULER: End scheduler "mo11" with entities [LocalPlayer, LocalPlayer], work=257*
138: 0x0D6C [0x45] LOAD_SCHEDULED_TASK: Load scheduler "mo12" with entities [LocalPlayer, LocalPlayer], work=[257*, 0*]
139: 0x0D7D [0x5B] LOAD_EXT_SCHEDULER: Load scheduler "tlc0" with entities [Esha'ntarl (ID: 17772662/0x010F3076), Esha'ntarl (ID: 17772662/0x010F3076)], work=450*
140: 0x0D8C [0x2B] Esha'ntarl (ID: 17772662/0x010F3076) [13760*]:
    → "We have marked the points where the fluctuations were the strongest. I would like to entrust the investigation of these areas to you, <Player>."
141: 0x0D93 [0x23] WAIT_FOR_DIALOG_INTERACTION
142: 0x0D94 [0x52] END_LOAD_SCHEDULER: End scheduler "mo12" with entities [LocalPlayer, LocalPlayer], work=257*
143: 0x0DA3 [0x45] LOAD_SCHEDULED_TASK: Load scheduler "mo13" with entities [LocalPlayer, LocalPlayer], work=[257*, 0*]
144: 0x0DB4 [0x5B] LOAD_EXT_SCHEDULER: Load scheduler "tcth" with entities [Esha'ntarl (ID: 17772662/0x010F3076), Esha'ntarl (ID: 17772662/0x010F3076)], work=450*
145: 0x0DC3 [0x1C] WAIT(30* ticks)
146: 0x0DC6 [0x2B] Esha'ntarl (ID: 17772662/0x010F3076) [13761*]:
    → "If my intuition on what lies out there is correct, you will make some fascinating discoveries indeed."
147: 0x0DCD [0x23] WAIT_FOR_DIALOG_INTERACTION
148: 0x0DCE [0x7B] Verena (ID: 17772734/0x010F30BE) stops talking
149: 0x0DD3 [0x27] REQ_SET(priority=0x10, entity_id=Aldo (ID: 17772733/0x010F30BD), tag_num=0x0B)
150: 0x0DDA [0x1C] WAIT(30* ticks)
151: 0x0DDD [0x52] END_LOAD_SCHEDULER: End scheduler "mo13" with entities [LocalPlayer, LocalPlayer], work=257*
152: 0x0DEC [0x45] LOAD_SCHEDULED_TASK: Load scheduler "mo14" with entities [LocalPlayer, LocalPlayer], work=[257*, 0*]
153: 0x0DFD [0x79] LocalPlayer looks at Aldo (ID: 17772733/0x010F30BD) (Basic look)
154: 0x0E07 [0x2B] Aldo (ID: 17772733/0x010F30BD) [13762*]:
    → "You're a brave soul, <Player>. You'll never catch me in that awful place again. Once is more than enough..."
155: 0x0E0E [0x23] WAIT_FOR_DIALOG_INTERACTION
156: 0x0E0F [0x2A] GET_REQ_LEVEL(level=16, entity_id=Aldo (ID: 17772733/0x010F30BD))
157: 0x0E15 [0x1C] WAIT(30* ticks)
158: 0x0E18 [0x5B] LOAD_EXT_SCHEDULER: Load scheduler "uts0" with entities [Verena (ID: 17772734/0x010F30BE), Verena (ID: 17772734/0x010F30BE)], work=190*
159: 0x0E27 [0x2B] Verena (ID: 17772734/0x010F30BE) [13763*]:
    → "Please be careful. We'll be praying for your safe return."
160: 0x0E2E [0x23] WAIT_FOR_DIALOG_INTERACTION
161: 0x0E2F [0x5B] LOAD_EXT_SCHEDULER: Load scheduler "uts1" with entities [Verena (ID: 17772734/0x010F30BE), Verena (ID: 17772734/0x010F30BE)], work=190*
162: 0x0E3E [0x1A] CALL_SUBROUTINE(address=0x151A)
163: 0x0E41 [0x1C] WAIT(30* ticks)
164: 0x0E44 [0x52] END_LOAD_SCHEDULER: End scheduler "mo14" with entities [LocalPlayer, LocalPlayer], work=257*
165: 0x0E53 [0x5C] MUSIC_CONTROL: Set Idle (Day) music to song 117*
166: 0x0E57 [0x5C] MUSIC_CONTROL: Set Idle (Night) music to song 117*
167: 0x0E5B [0x9A] WAIT_MUSIC_SERVER()
168: 0x0E5C [0x46] CAMERA_CONTROL: Restore default settings
169: 0x0E5E [0x45] LOAD_SCHEDULED_TASK: Load scheduler "fdi2" with entities [LocalPlayer, LocalPlayer], work=[200*, 0*]
170: 0x0E6F [0x21] END_EVENT
171: 0x0E70 [0x00] END_REQSTACK()
```

### Event 162

#### Metadata

| Field        | Value     |
|--------------|-----------|
| Entrypoint   | 0x0E71    |
| Data Size    | 504 bytes |
| Instructions | 72        |

```
      00 01 02 03 04 05 06 07  08 09 0A 0B 0C 0D 0E 0F
      -- -- -- -- -- -- -- --  -- -- -- -- -- -- -- --
0E70:    42 1A 1A 15 46 01 38  00 80 79 00 F0 FF FF 7F   B...F.8..y.....
0E80: F0 FF FF 7F 4E 00 76 30  0F 01 2F 00 76 30 0F 01  ....N.v0../.v0..
0E90: 92 01 0D 30 0F 01 92 01  0E 30 0F 01 92 01 76 30  ...0.....0....v0
0EA0: 0F 01 29 10 F0 FF FF 7F  8E 29 10 76 30 0F 01 25  ..)......).v0..%
0EB0: 80 F0 FF FF 7F 80 76 30  0F 01 5C 00 47 80 5C 01  ......v0..\.G.\.
0EC0: 47 80 9A 1C 04 80 45 31  80 F0 FF FF 7F F0 FF FF  G.....E1........
0ED0: 7F 6D 6F 32 30 01 80 1A  F9 14 2B 76 30 0F 01 48  .mo20.....+v0..H
0EE0: 80 23 52 31 80 F0 FF FF  7F F0 FF FF 7F 6D 6F 32  .#R1.........mo2
0EF0: 30 45 31 80 F0 FF FF 7F  F0 FF FF 7F 6D 6F 32 31  0E1.........mo21
0F00: 01 80 1C 33 80 2B 76 30  0F 01 49 80 23 2B 76 30  ...3.+v0..I.#+v0
0F10: 0F 01 4A 80 23 52 31 80  F0 FF FF 7F F0 FF FF 7F  ..J.#R1.........
0F20: 6D 6F 32 31 45 31 80 F0  FF FF 7F F0 FF FF 7F 6D  mo21E1.........m
0F30: 6F 32 32 01 80 5B 0F 80  76 30 0F 01 76 30 0F 01  o22..[..v0..v0..
0F40: 74 68 6B 30 2B 76 30 0F  01 4B 80 23 52 31 80 F0  thk0+v0..K.#R1..
0F50: FF FF 7F F0 FF FF 7F 6D  6F 32 32 45 31 80 F0 FF  .......mo22E1...
0F60: FF 7F F0 FF FF 7F 6D 6F  32 33 01 80 5D 01 80 16  ......mo23..]...
0F70: 80 1C 08 80 2B 76 30 0F  01 4C 80 23 5B 0F 80 76  ....+v0..L.#[..v
0F80: 30 0F 01 76 30 0F 01 74  68 6B 31 53 76 30 0F 01  0..v0..thk1Sv0..
0F90: 76 30 0F 01 74 68 6B 31  1C 08 80 5C 00 4D 80 5C  v0..thk1...\.M.\
0FA0: 01 4D 80 9A 52 31 80 F0  FF FF 7F F0 FF FF 7F 6D  .M..R1.........m
0FB0: 6F 32 33 45 31 80 F0 FF  FF 7F F0 FF FF 7F 6D 6F  o23E1.........mo
0FC0: 32 34 01 80 5B 4E 80 76  30 0F 01 76 30 0F 01 79  24..[N.v0..v0..y
0FD0: 65 73 30 1C 04 80 2B 76  30 0F 01 4F 80 23 2B 76  es0...+v0..O.#+v
0FE0: 30 0F 01 50 80 23 2B 76  30 0F 01 51 80 23 52 31  0..P.#+v0..Q.#R1
0FF0: 80 F0 FF FF 7F F0 FF FF  7F 6D 6F 32 34 45 31 80  .........mo24E1.
1000: F0 FF FF 7F F0 FF FF 7F  6D 6F 32 35 01 80 5B 4E  ........mo25..[N
1010: 80 76 30 0F 01 76 30 0F  01 73 6A 69 30 2B 76 30  .v0..v0..sji0+v0
1020: 0F 01 52 80 23 1A 1A 15  1C 04 80 52 31 80 F0 FF  ..R.#......R1...
1030: FF 7F F0 FF FF 7F 6D 6F  32 35 5C 00 0B 80 5C 01  ......mo25\...\.
1040: 0B 80 9A 46 00 45 30 80  F0 FF FF 7F F0 FF FF 7F  ...F.E0.........
1050: 71 73 74 63 01 80 45 0C  80 F0 FF FF 7F F0 FF FF  qstc..E.........
1060: 7F 66 64 69 32 01 80 21  00                       .fdi2..!.       
```

#### Opcodes

```
  0: 0x0E71 [0x42] SET_CLI_EVENT_CANCEL_DATA()
  1: 0x0E72 [0x1A] CALL_SUBROUTINE(address=0x151A)
  2: 0x0E75 [0x46] CAMERA_CONTROL: Disable user control
  3: 0x0E77 [0x38] SET_CLIENT_EVENT_MODE(mode=19*)
  4: 0x0E7A [0x79] LocalPlayer looks at LocalPlayer (Basic look)
  5: 0x0E84 [0x4E] SET_ENTITY_HIDE_FLAG: Show Esha'ntarl (ID: 17772662/0x010F3076)
  6: 0x0E8A [0x2F] Esha'ntarl (ID: 17772662/0x010F3076)->Render.Flags0 &= ~0x80000 // Bit 19
  7: 0x0E90 [0x92] High Wind (ID: 17772557/0x010F300D)->Render.Flags3 ^= 0x01
  8: 0x0E96 [0x92] Rainhard (ID: 17772558/0x010F300E)->Render.Flags3 ^= 0x01
  9: 0x0E9C [0x92] Esha'ntarl (ID: 17772662/0x010F3076)->Render.Flags3 ^= 0x01
 10: 0x0EA2 [0x29] REQ_SET_WAIT(priority=0x10, entity_id=LocalPlayer, tag_num=0x8E)
 11: 0x0EA9 [0x29] REQ_SET_WAIT(priority=0x10, entity_id=Esha'ntarl (ID: 17772662/0x010F3076), tag_num=0x25)
 12: 0x0EB0 [0x80] LOAD_WAIT(entity=LocalPlayer)
 13: 0x0EB5 [0x80] LOAD_WAIT(entity=Esha'ntarl (ID: 17772662/0x010F3076))
 14: 0x0EBA [0x5C] MUSIC_CONTROL: Set Idle (Day) music to song 121*
 15: 0x0EBE [0x5C] MUSIC_CONTROL: Set Idle (Night) music to song 121*
 16: 0x0EC2 [0x9A] WAIT_MUSIC_SERVER()
 17: 0x0EC3 [0x1C] WAIT(30* ticks)
 18: 0x0EC6 [0x45] LOAD_SCHEDULED_TASK: Load scheduler "mo20" with entities [LocalPlayer, LocalPlayer], work=[257*, 0*]
 19: 0x0ED7 [0x1A] CALL_SUBROUTINE(address=0x14F9)
 20: 0x0EDA [0x2B] Esha'ntarl (ID: 17772662/0x010F3076) [13764*]:
    → "So these are what were causing such unusual activity within the Emptiness."
 21: 0x0EE1 [0x23] WAIT_FOR_DIALOG_INTERACTION
 22: 0x0EE2 [0x52] END_LOAD_SCHEDULER: End scheduler "mo20" with entities [LocalPlayer, LocalPlayer], work=257*
 23: 0x0EF1 [0x45] LOAD_SCHEDULED_TASK: Load scheduler "mo21" with entities [LocalPlayer, LocalPlayer], work=[257*, 0*]
 24: 0x0F02 [0x1C] WAIT(120* ticks)
 25: 0x0F05 [0x2B] Esha'ntarl (ID: 17772662/0x010F3076) [13765*]:
    → "I can feel the aura of those who returned to the mothercrystals..."
 26: 0x0F0C [0x23] WAIT_FOR_DIALOG_INTERACTION
 27: 0x0F0D [0x2B] Esha'ntarl (ID: 17772662/0x010F3076) [13766*]:
    → "Nag'molada, Eald'narche, and even Archduke Kam'lanaut..."
 28: 0x0F14 [0x23] WAIT_FOR_DIALOG_INTERACTION
 29: 0x0F15 [0x52] END_LOAD_SCHEDULER: End scheduler "mo21" with entities [LocalPlayer, LocalPlayer], work=257*
 30: 0x0F24 [0x45] LOAD_SCHEDULED_TASK: Load scheduler "mo22" with entities [LocalPlayer, LocalPlayer], work=[257*, 0*]
 31: 0x0F35 [0x5B] LOAD_EXT_SCHEDULER: Load scheduler "thk0" with entities [Esha'ntarl (ID: 17772662/0x010F3076), Esha'ntarl (ID: 17772662/0x010F3076)], work=450*
 32: 0x0F44 [0x2B] Esha'ntarl (ID: 17772662/0x010F3076) [13767*]:
    → "Could it be possible that these entities are attempting to break back into this world?"
 33: 0x0F4B [0x23] WAIT_FOR_DIALOG_INTERACTION
 34: 0x0F4C [0x52] END_LOAD_SCHEDULER: End scheduler "mo22" with entities [LocalPlayer, LocalPlayer], work=257*
 35: 0x0F5B [0x45] LOAD_SCHEDULED_TASK: Load scheduler "mo23" with entities [LocalPlayer, LocalPlayer], work=[257*, 0*]
 36: 0x0F6C [0x5D] SET_MUSIC_VOLUME(volume=0*, fade_time=300*)
 37: 0x0F71 [0x1C] WAIT(60* ticks)
 38: 0x0F74 [0x2B] Esha'ntarl (ID: 17772662/0x010F3076) [13768*]:
    → "Will they return as they once were? Or as something more sinister?"
 39: 0x0F7B [0x23] WAIT_FOR_DIALOG_INTERACTION
 40: 0x0F7C [0x5B] LOAD_EXT_SCHEDULER: Load scheduler "thk1" with entities [Esha'ntarl (ID: 17772662/0x010F3076), Esha'ntarl (ID: 17772662/0x010F3076)], work=450*
 41: 0x0F8B [0x53] WAIT_SCHEDULER_TASK: Wait for scheduler "thk1" with entities [Esha'ntarl (ID: 17772662/0x010F3076), Esha'ntarl (ID: 17772662/0x010F3076)]
 42: 0x0F98 [0x1C] WAIT(60* ticks)
 43: 0x0F9B [0x5C] MUSIC_CONTROL: Set Idle (Day) music to song 219*
 44: 0x0F9F [0x5C] MUSIC_CONTROL: Set Idle (Night) music to song 219*
 45: 0x0FA3 [0x9A] WAIT_MUSIC_SERVER()
 46: 0x0FA4 [0x52] END_LOAD_SCHEDULER: End scheduler "mo23" with entities [LocalPlayer, LocalPlayer], work=257*
 47: 0x0FB3 [0x45] LOAD_SCHEDULED_TASK: Load scheduler "mo24" with entities [LocalPlayer, LocalPlayer], work=[257*, 0*]
 48: 0x0FC4 [0x5B] LOAD_EXT_SCHEDULER: Load scheduler "yes0" with entities [Esha'ntarl (ID: 17772662/0x010F3076), Esha'ntarl (ID: 17772662/0x010F3076)], work=452*
 49: 0x0FD3 [0x1C] WAIT(30* ticks)
 50: 0x0FD6 [0x2B] Esha'ntarl (ID: 17772662/0x010F3076) [13769*]:
    → "<Player>. We must put a stop to this."
 51: 0x0FDD [0x23] WAIT_FOR_DIALOG_INTERACTION
 52: 0x0FDE [0x2B] Esha'ntarl (ID: 17772662/0x010F3076) [13770*]:
    → "These reincarnations are beings that have chosen--and been chosen by--the Emptiness."
 53: 0x0FE5 [0x23] WAIT_FOR_DIALOG_INTERACTION
 54: 0x0FE6 [0x2B] Esha'ntarl (ID: 17772662/0x010F3076) [13772*]:
    → "I fear their powers will be beyond any race that has walked Vana'diel."
 55: 0x0FED [0x23] WAIT_FOR_DIALOG_INTERACTION
 56: 0x0FEE [0x52] END_LOAD_SCHEDULER: End scheduler "mo24" with entities [LocalPlayer, LocalPlayer], work=257*
 57: 0x0FFD [0x45] LOAD_SCHEDULED_TASK: Load scheduler "mo25" with entities [LocalPlayer, LocalPlayer], work=[257*, 0*]
 58: 0x100E [0x5B] LOAD_EXT_SCHEDULER: Load scheduler "sji0" with entities [Esha'ntarl (ID: 17772662/0x010F3076), Esha'ntarl (ID: 17772662/0x010F3076)], work=452*
 59: 0x101D [0x2B] Esha'ntarl (ID: 17772662/0x010F3076) [13771*]:
    → "Go. Prepare yourself for battle, then return to me here. Let us raise the curtain on the final conflict."
 60: 0x1024 [0x23] WAIT_FOR_DIALOG_INTERACTION
 61: 0x1025 [0x1A] CALL_SUBROUTINE(address=0x151A)
 62: 0x1028 [0x1C] WAIT(30* ticks)
 63: 0x102B [0x52] END_LOAD_SCHEDULER: End scheduler "mo25" with entities [LocalPlayer, LocalPlayer], work=257*
 64: 0x103A [0x5C] MUSIC_CONTROL: Set Idle (Day) music to song 117*
 65: 0x103E [0x5C] MUSIC_CONTROL: Set Idle (Night) music to song 117*
 66: 0x1042 [0x9A] WAIT_MUSIC_SERVER()
 67: 0x1043 [0x46] CAMERA_CONTROL: Restore default settings
 68: 0x1045 [0x45] LOAD_SCHEDULED_TASK: Load scheduler "qstc" with entities [LocalPlayer, LocalPlayer], work=[201*, 0*]
 69: 0x1056 [0x45] LOAD_SCHEDULED_TASK: Load scheduler "fdi2" with entities [LocalPlayer, LocalPlayer], work=[200*, 0*]
 70: 0x1067 [0x21] END_EVENT
 71: 0x1068 [0x00] END_REQSTACK()
```

### Event 123

#### Metadata

| Field        | Value      |
|--------------|------------|
| Entrypoint   | 0x1069     |
| Data Size    | 1759 bytes |
| Instructions | 145        |

```
      00 01 02 03 04 05 06 07  08 09 0A 0B 0C 0D 0E 0F
      -- -- -- -- -- -- -- --  -- -- -- -- -- -- -- --
1060:                             42 1A 1A 15 46 01 38           B...F.8
1070: 00 80 79 00 F0 FF FF 7F  F0 FF FF 7F 4E 00 76 30  ..y.........N.v0
1080: 0F 01 2F 00 76 30 0F 01  92 01 0D 30 0F 01 92 01  ../.v0.....0....
1090: 0E 30 0F 01 92 01 76 30  0F 01 29 10 F0 FF FF 7F  .0....v0..).....
10A0: 94 29 10 76 30 0F 01 2E  80 F0 FF FF 7F 80 76 30  .).v0.........v0
10B0: 0F 01 1C 04 80 79 00 76  30 0F 01 F0 FF FF 7F 27  .....y.v0......'
10C0: 10 F0 FF FF 7F 95 45 31  80 F0 FF FF 7F F0 FF FF  ......E1........
10D0: 7F 73 65 30 30 01 80 1A  F9 14 2A 10 F0 FF FF 7F  .se00.....*.....
10E0: 79 00 F0 FF FF 7F 76 30  0F 01 55 31 80 F0 FF FF  y.....v0..U1....
10F0: 7F F0 FF FF 7F 73 65 30  30 45 31 80 F0 FF FF 7F  .....se00E1.....
1100: F0 FF FF 7F 73 65 30 31  01 80 55 31 80 F0 FF FF  ....se01..U1....
1110: 7F F0 FF FF 7F 73 65 30  31 45 31 80 F0 FF FF 7F  .....se01E1.....
1120: F0 FF FF 7F 73 65 30 32  01 80 1C 04 80 2B 76 30  ....se02.....+v0
1130: 0F 01 53 80 23 1A 1A 15  1C 04 80 52 31 80 F0 FF  ..S.#......R1...
1140: FF 7F F0 FF FF 7F 73 65  30 32 29 10 76 30 0F 01  ......se02).v0..
1150: 2F 29 10 F0 FF FF 7F 96  80 76 30 0F 01 5B 0F 80  /).......v0..[..
1160: 76 30 0F 01 76 30 0F 01  74 68 6B 30 7B 76 30 0F  v0..v0..thk0{v0.
1170: 01 5C 00 54 80 5C 01 54  80 9A 1C 04 80 45 31 80  .\.T.\.T.....E1.
1180: F0 FF FF 7F F0 FF FF 7F  73 65 30 33 01 80 1A F9  ........se03....
1190: 14 1C 08 80 2B 76 30 0F  01 55 80 23 52 31 80 F0  ....+v0..U.#R1..
11A0: FF FF 7F F0 FF FF 7F 73  65 30 33 45 31 80 F0 FF  .......se03E1...
11B0: FF 7F F0 FF FF 7F 73 65  30 34 01 80 5B 0F 80 76  ......se04..[..v
11C0: 30 0F 01 76 30 0F 01 74  68 6B 31 1C 04 80 2B 76  0..v0..thk1...+v
11D0: 30 0F 01 56 80 23 5D 01  80 57 80 52 31 80 F0 FF  0..V.#]..W.R1...
11E0: FF 7F F0 FF FF 7F 73 65  30 34 45 31 80 F0 FF FF  ......se04E1....
11F0: 7F F0 FF FF 7F 73 65 30  35 01 80 81 00 76 30 0F  .....se05....v0.
1200: 01 1C 08 80 2B 76 30 0F  01 58 80 23 53 76 30 0F  ....+v0..X.#Sv0.
1210: 01 76 30 0F 01 74 68 6B  31 2B 76 30 0F 01 59 80  .v0..thk1+v0..Y.
1220: 23 4A 76 30 0F 01 F0 FF  FF 7F 52 31 80 F0 FF FF  #Jv0......R1....
1230: 7F F0 FF FF 7F 73 65 30  35 45 31 80 F0 FF FF 7F  .....se05E1.....
1240: F0 FF FF 7F 73 65 30 36  01 80 81 01 76 30 0F 01  ....se06....v0..
1250: 1C 5A 80 5B 0F 80 76 30  0F 01 76 30 0F 01 74 6C  .Z.[..v0..v0..tl
1260: 62 30 2B 76 30 0F 01 5B  80 23 29 10 F0 FF FF 7F  b0+v0..[.#).....
1270: 8F 03 00 00 02 10 52 31  80 F0 FF FF 7F F0 FF FF  ......R1........
1280: 7F 73 65 30 36 02 00 00  1A 80 80 A1 12 45 31 80  .se06........E1.
1290: F0 FF FF 7F F0 FF FF 7F  73 65 68 6D 01 80 01 65  ........sehm...e
12A0: 13 02 00 00 25 80 80 BD  12 45 31 80 F0 FF FF 7F  ....%....E1.....
12B0: F0 FF FF 7F 73 65 68 66  01 80 01 65 13 02 00 00  ....sehf...e....
12C0: 26 80 80 D9 12 45 31 80  F0 FF FF 7F F0 FF FF 7F  &....E1.........
12D0: 73 65 65 6D 01 80 01 65  13 02 00 00 27 80 80 F5  seem...e....'...
12E0: 12 45 31 80 F0 FF FF 7F  F0 FF FF 7F 73 65 65 66  .E1.........seef
12F0: 01 80 01 65 13 02 00 00  28 80 80 11 13 45 31 80  ...e....(....E1.
1300: F0 FF FF 7F F0 FF FF 7F  73 65 74 72 01 80 01 65  ........setr...e
1310: 13 02 00 00 29 80 80 2D  13 45 31 80 F0 FF FF 7F  ....)..-.E1.....
1320: F0 FF FF 7F 73 65 74 72  01 80 01 65 13 02 00 00  ....setr...e....
1330: 18 80 80 49 13 45 31 80  F0 FF FF 7F F0 FF FF 7F  ...I.E1.........
1340: 73 65 6D 74 01 80 01 65  13 02 00 00 2A 80 80 65  semt...e....*..e
1350: 13 45 31 80 F0 FF FF 7F  F0 FF FF 7F 73 65 67 6C  .E1.........segl
1360: 01 80 01 65 13 2B 76 30  0F 01 5C 80 23 5B 0F 80  ...e.+v0..\.#[..
1370: 76 30 0F 01 76 30 0F 01  74 6C 62 31 1C 04 80 02  v0..v0..tlb1....
1380: 00 00 1A 80 80 99 13 52  31 80 F0 FF FF 7F F0 FF  .......R1.......
1390: FF 7F 73 65 68 6D 01 4F  14 02 00 00 25 80 80 B3  ..sehm.O....%...
13A0: 13 52 31 80 F0 FF FF 7F  F0 FF FF 7F 73 65 68 66  .R1.........sehf
13B0: 01 4F 14 02 00 00 26 80  80 CD 13 52 31 80 F0 FF  .O....&....R1...
13C0: FF 7F F0 FF FF 7F 73 65  65 6D 01 4F 14 02 00 00  ......seem.O....
13D0: 27 80 80 E7 13 52 31 80  F0 FF FF 7F F0 FF FF 7F  '....R1.........
13E0: 73 65 65 66 01 4F 14 02  00 00 28 80 80 01 14 52  seef.O....(....R
13F0: 31 80 F0 FF FF 7F F0 FF  FF 7F 73 65 74 72 01 4F  1.........setr.O
1400: 14 02 00 00 29 80 80 1B  14 52 31 80 F0 FF FF 7F  ....)....R1.....
1410: F0 FF FF 7F 73 65 74 72  01 4F 14 02 00 00 18 80  ....setr.O......
1420: 80 35 14 52 31 80 F0 FF  FF 7F F0 FF FF 7F 73 65  .5.R1.........se
1430: 6D 74 01 4F 14 02 00 00  2A 80 80 4F 14 52 31 80  mt.O....*..O.R1.
1440: F0 FF FF 7F F0 FF FF 7F  73 65 67 6C 01 4F 14 45  ........segl.O.E
1450: 31 80 F0 FF FF 7F F0 FF  FF 7F 73 65 30 37 01 80  1.........se07..
1460: 53 76 30 0F 01 76 30 0F  01 74 6C 62 31 5B 4E 80  Sv0..v0..tlb1[N.
1470: 76 30 0F 01 76 30 0F 01  73 6A 69 30 2B 76 30 0F  v0..v0..sji0+v0.
1480: 01 5D 80 23 1A 1A 15 1C  04 80 52 31 80 F0 FF FF  .].#......R1....
1490: 7F F0 FF FF 7F 73 65 30  37 5C 00 0B 80 5C 01 0B  .....se07\...\..
14A0: 80 9A 46 00 45 0C 80 F0  FF FF 7F F0 FF FF 7F 66  ..F.E..........f
14B0: 64 69 32 01 80 21 00 45  0C 80 F0 FF FF 7F F0 FF  di2..!.E........
14C0: FF 7F 66 64 69 30 01 80  55 0C 80 F0 FF FF 7F F0  ..fdi0..U.......
14D0: FF FF 7F 66 64 69 30 1B  45 0C 80 F0 FF FF 7F F0  ...fdi0.E.......
14E0: FF FF 7F 66 64 6F 30 01  80 55 0C 80 F0 FF FF 7F  ...fdo0..U......
14F0: F0 FF FF 7F 66 64 6F 30  1B 45 0C 80 F0 FF FF 7F  ....fdo0.E......
1500: F0 FF FF 7F 66 64 69 31  01 80 55 0C 80 F0 FF FF  ....fdi1..U.....
1510: 7F F0 FF FF 7F 66 64 69  31 1B 45 0C 80 F0 FF FF  .....fdi1.E.....
1520: 7F F0 FF FF 7F 66 64 6F  31 01 80 55 0C 80 F0 FF  .....fdo1..U....
1530: FF 7F F0 FF FF 7F 66 64  6F 31 1B 45 30 80 F0 FF  ......fdo1.E0...
1540: FF 7F F0 FF FF 7F 77 68  69 31 01 80 55 30 80 F0  ......whi1..U0..
1550: FF FF 7F F0 FF FF 7F 77  68 69 31 1B 45 30 80 F0  .......whi1.E0..
1560: FF FF 7F F0 FF FF 7F 77  68 6F 31 01 80 55 30 80  .......who1..U0.
1570: F0 FF FF 7F F0 FF FF 7F  77 68 6F 31 1B 45 30 80  ........who1.E0.
1580: F0 FF FF 7F F0 FF FF 7F  77 68 6F 32 01 80 55 30  ........who2..U0
1590: 80 F0 FF FF 7F F0 FF FF  7F 77 68 6F 32 1B 45 30  .........who2.E0
15A0: 80 F0 FF FF 7F F0 FF FF  7F 77 68 6F 33 01 80 55  .........who3..U
15B0: 30 80 F0 FF FF 7F F0 FF  FF 7F 77 68 6F 33 1B 62  0.........who3.b
15C0: 1A 80 F0 FF FF 7F F0 FF  FF 7F 6D 61 69 6E 01 80  ..........main..
15D0: 1C 0E 80 45 0C 80 F0 FF  FF 7F F0 FF FF 7F 66 64  ...E..........fd
15E0: 6F 31 01 80 55 0C 80 F0  FF FF 7F F0 FF FF 7F 66  o1..U..........f
15F0: 64 6F 31 1B 45 0C 80 F0  FF FF 7F F0 FF FF 7F 66  do1.E..........f
1600: 64 69 31 01 80 62 25 80  F0 FF FF 7F F0 FF FF 7F  di1..b%.........
1610: 6D 61 69 6E 01 80 1C 04  80 55 0C 80 F0 FF FF 7F  main.....U......
1620: F0 FF FF 7F 66 64 69 31  1B 45 0C 80 F0 FF FF 7F  ....fdi1.E......
1630: F0 FF FF 7F 62 6C 6F 6E  01 80 45 30 80 F0 FF FF  ....blon..E0....
1640: 7F F0 FF FF 7F 62 6C 6F  6E 01 80 1B 45 30 80 F0  .....blon...E0..
1650: FF FF 7F F0 FF FF 7F 77  68 69 30 01 80 55 30 80  .......whi0..U0.
1660: F0 FF FF 7F F0 FF FF 7F  77 68 69 30 1B 45 30 80  ........whi0.E0.
1670: F0 FF FF 7F F0 FF FF 7F  77 68 6F 30 01 80 55 30  ........who0..U0
1680: 80 F0 FF FF 7F F0 FF FF  7F 77 68 6F 30 1B 45 5E  .........who0.E^
1690: 80 F0 FF FF 7F F0 FF FF  7F 65 66 6F 6E 01 80 55  .........efon..U
16A0: 5E 80 F0 FF FF 7F F0 FF  FF 7F 65 66 6F 6E 1B 45  ^.........efon.E
16B0: 0C 80 F0 FF FF 7F F0 FF  FF 7F 66 64 69 73 01 80  ..........fdis..
16C0: 1B 45 0C 80 F0 FF FF 7F  F0 FF FF 7F 66 64 6F 73  .E..........fdos
16D0: 01 80 55 0C 80 F0 FF FF  7F F0 FF FF 7F 66 64 6F  ..U..........fdo
16E0: 73 1B 45 0C 80 F0 FF FF  7F F0 FF FF 7F 66 64 69  s.E..........fdi
16F0: 66 01 80 1B 45 0C 80 F0  FF FF 7F F0 FF FF 7F 66  f...E..........f
1700: 64 6F 66 01 80 55 0C 80  F0 FF FF 7F F0 FF FF 7F  dof..U..........
1710: 66 64 6F 66 1B 45 0C 80  F0 FF FF 7F F0 FF FF 7F  fdof.E..........
1720: 66 64 69 70 01 80 1B 45  0C 80 F0 FF FF 7F F0 FF  fdip...E........
1730: FF 7F 66 64 6F 70 01 80  55 0C 80 F0 FF FF 7F F0  ..fdop..U.......
1740: FF FF 7F 66 64 6F 70 1B                           ...fdop.        
```

#### Opcodes

```
  0: 0x1069 [0x42] SET_CLI_EVENT_CANCEL_DATA()
  1: 0x106A [0x1A] CALL_SUBROUTINE(address=0x151A)
  2: 0x106D [0x46] CAMERA_CONTROL: Disable user control
  3: 0x106F [0x38] SET_CLIENT_EVENT_MODE(mode=19*)
  4: 0x1072 [0x79] LocalPlayer looks at LocalPlayer (Basic look)
  5: 0x107C [0x4E] SET_ENTITY_HIDE_FLAG: Show Esha'ntarl (ID: 17772662/0x010F3076)
  6: 0x1082 [0x2F] Esha'ntarl (ID: 17772662/0x010F3076)->Render.Flags0 &= ~0x80000 // Bit 19
  7: 0x1088 [0x92] High Wind (ID: 17772557/0x010F300D)->Render.Flags3 ^= 0x01
  8: 0x108E [0x92] Rainhard (ID: 17772558/0x010F300E)->Render.Flags3 ^= 0x01
  9: 0x1094 [0x92] Esha'ntarl (ID: 17772662/0x010F3076)->Render.Flags3 ^= 0x01
 10: 0x109A [0x29] REQ_SET_WAIT(priority=0x10, entity_id=LocalPlayer, tag_num=0x94)
 11: 0x10A1 [0x29] REQ_SET_WAIT(priority=0x10, entity_id=Esha'ntarl (ID: 17772662/0x010F3076), tag_num=0x2E)
 12: 0x10A8 [0x80] LOAD_WAIT(entity=LocalPlayer)
 13: 0x10AD [0x80] LOAD_WAIT(entity=Esha'ntarl (ID: 17772662/0x010F3076))
 14: 0x10B2 [0x1C] WAIT(30* ticks)
 15: 0x10B5 [0x79] Esha'ntarl (ID: 17772662/0x010F3076) looks at LocalPlayer (Basic look)
 16: 0x10BF [0x27] REQ_SET(priority=0x10, entity_id=LocalPlayer, tag_num=0x95)
 17: 0x10C6 [0x45] LOAD_SCHEDULED_TASK: Load scheduler "se00" with entities [LocalPlayer, LocalPlayer], work=[257*, 0*]
 18: 0x10D7 [0x1A] CALL_SUBROUTINE(address=0x14F9)
 19: 0x10DA [0x2A] GET_REQ_LEVEL(level=16, entity_id=LocalPlayer)
 20: 0x10E0 [0x79] LocalPlayer looks at Esha'ntarl (ID: 17772662/0x010F3076) (Basic look)
 21: 0x10EA [0x55] WAIT_LOAD_SCHEDULER: Wait for scheduler "se00" with entities [LocalPlayer, LocalPlayer], work=257*
 22: 0x10F9 [0x45] LOAD_SCHEDULED_TASK: Load scheduler "se01" with entities [LocalPlayer, LocalPlayer], work=[257*, 0*]
 23: 0x110A [0x55] WAIT_LOAD_SCHEDULER: Wait for scheduler "se01" with entities [LocalPlayer, LocalPlayer], work=257*
 24: 0x1119 [0x45] LOAD_SCHEDULED_TASK: Load scheduler "se02" with entities [LocalPlayer, LocalPlayer], work=[257*, 0*]
 25: 0x112A [0x1C] WAIT(30* ticks)
 26: 0x112D [0x2B] Esha'ntarl (ID: 17772662/0x010F3076) [13774*]:
    → "<Player>. Let us discuss what needs to be done."
 27: 0x1134 [0x23] WAIT_FOR_DIALOG_INTERACTION
 28: 0x1135 [0x1A] CALL_SUBROUTINE(address=0x151A)
 29: 0x1138 [0x1C] WAIT(30* ticks)
 30: 0x113B [0x52] END_LOAD_SCHEDULER: End scheduler "se02" with entities [LocalPlayer, LocalPlayer], work=257*
 31: 0x114A [0x29] REQ_SET_WAIT(priority=0x10, entity_id=Esha'ntarl (ID: 17772662/0x010F3076), tag_num=0x2F)
 32: 0x1151 [0x29] REQ_SET_WAIT(priority=0x10, entity_id=LocalPlayer, tag_num=0x96)
 33: 0x1158 [0x80] LOAD_WAIT(entity=Esha'ntarl (ID: 17772662/0x010F3076))
 34: 0x115D [0x5B] LOAD_EXT_SCHEDULER: Load scheduler "thk0" with entities [Esha'ntarl (ID: 17772662/0x010F3076), Esha'ntarl (ID: 17772662/0x010F3076)], work=450*
 35: 0x116C [0x7B] Esha'ntarl (ID: 17772662/0x010F3076) stops talking
 36: 0x1171 [0x5C] MUSIC_CONTROL: Set Idle (Day) music to song 223*
 37: 0x1175 [0x5C] MUSIC_CONTROL: Set Idle (Night) music to song 223*
 38: 0x1179 [0x9A] WAIT_MUSIC_SERVER()
 39: 0x117A [0x1C] WAIT(30* ticks)
 40: 0x117D [0x45] LOAD_SCHEDULED_TASK: Load scheduler "se03" with entities [LocalPlayer, LocalPlayer], work=[257*, 0*]
 41: 0x118E [0x1A] CALL_SUBROUTINE(address=0x14F9)
 42: 0x1191 [0x1C] WAIT(60* ticks)
 43: 0x1194 [0x2B] Esha'ntarl (ID: 17772662/0x010F3076) [13775*]:
    → "I have returned from an audience with the Wyrmking."
 44: 0x119B [0x23] WAIT_FOR_DIALOG_INTERACTION
 45: 0x119C [0x52] END_LOAD_SCHEDULER: End scheduler "se03" with entities [LocalPlayer, LocalPlayer], work=257*
 46: 0x11AB [0x45] LOAD_SCHEDULED_TASK: Load scheduler "se04" with entities [LocalPlayer, LocalPlayer], work=[257*, 0*]
 47: 0x11BC [0x5B] LOAD_EXT_SCHEDULER: Load scheduler "thk1" with entities [Esha'ntarl (ID: 17772662/0x010F3076), Esha'ntarl (ID: 17772662/0x010F3076)], work=450*
 48: 0x11CB [0x1C] WAIT(30* ticks)
 49: 0x11CE [0x2B] Esha'ntarl (ID: 17772662/0x010F3076) [13776*]:
    → "If the Keeper of the Apocalypse is indeed attempting to cross over into this world, there is but one option left to us."
 50: 0x11D5 [0x23] WAIT_FOR_DIALOG_INTERACTION
 51: 0x11D6 [0x5D] SET_MUSIC_VOLUME(volume=0*, fade_time=600*)
 52: 0x11DB [0x52] END_LOAD_SCHEDULER: End scheduler "se04" with entities [LocalPlayer, LocalPlayer], work=257*
 53: 0x11EA [0x45] LOAD_SCHEDULED_TASK: Load scheduler "se05" with entities [LocalPlayer, LocalPlayer], work=[257*, 0*]
 54: 0x11FB [0x81] SET_ENTITY_BLINKING(blink_flag=0x00, entity=Esha'ntarl (ID: 17772662/0x010F3076))
 55: 0x1201 [0x1C] WAIT(60* ticks)
 56: 0x1204 [0x2B] Esha'ntarl (ID: 17772662/0x010F3076) [13777*]:
    → "We force the keeper to appear on our terms. Then we crush him."
 57: 0x120B [0x23] WAIT_FOR_DIALOG_INTERACTION
 58: 0x120C [0x53] WAIT_SCHEDULER_TASK: Wait for scheduler "thk1" with entities [Esha'ntarl (ID: 17772662/0x010F3076), Esha'ntarl (ID: 17772662/0x010F3076)]
 59: 0x1219 [0x2B] Esha'ntarl (ID: 17772662/0x010F3076) [13778*]:
    → "This was Prishe's original plan."
 60: 0x1220 [0x23] WAIT_FOR_DIALOG_INTERACTION
 61: 0x1221 [0x4A] Esha'ntarl (ID: 17772662/0x010F3076) looks at LocalPlayer
 62: 0x122A [0x52] END_LOAD_SCHEDULER: End scheduler "se05" with entities [LocalPlayer, LocalPlayer], work=257*
 63: 0x1239 [0x45] LOAD_SCHEDULED_TASK: Load scheduler "se06" with entities [LocalPlayer, LocalPlayer], work=[257*, 0*]
 64: 0x124A [0x81] SET_ENTITY_BLINKING(blink_flag=0x01, entity=Esha'ntarl (ID: 17772662/0x010F3076))
 65: 0x1250 [0x1C] WAIT(180* ticks)
 66: 0x1253 [0x5B] LOAD_EXT_SCHEDULER: Load scheduler "tlb0" with entities [Esha'ntarl (ID: 17772662/0x010F3076), Esha'ntarl (ID: 17772662/0x010F3076)], work=450*
 67: 0x1262 [0x2B] Esha'ntarl (ID: 17772662/0x010F3076) [13779*]:
    → "Ulmia will sing the Lay of the Immortals in the presence of the fifth mothercrystal."
 68: 0x1269 [0x23] WAIT_FOR_DIALOG_INTERACTION
 69: 0x126A [0x29] REQ_SET_WAIT(priority=0x10, entity_id=LocalPlayer, tag_num=0x8F)
 70: 0x1271 [0x03] ExtData[1]->WorkLocal[0] = Work_Zone[2]
 71: 0x1276 [0x52] END_LOAD_SCHEDULER: End scheduler "se06" with entities [LocalPlayer, LocalPlayer], work=257*
 72: 0x1285 [0x02] IF !(ExtData[1]->WorkLocal[0] == 1*) GOTO 0x12A1
 73: 0x128D [0x45] LOAD_SCHEDULED_TASK: Load scheduler "sehm" with entities [LocalPlayer, LocalPlayer], work=[257*, 0*]
 74: 0x129E [0x01] GOTO 0x1365
 75: 0x12A1 [0x02] IF !(ExtData[1]->WorkLocal[0] == 2*) GOTO 0x12BD
 76: 0x12A9 [0x45] LOAD_SCHEDULED_TASK: Load scheduler "sehf" with entities [LocalPlayer, LocalPlayer], work=[257*, 0*]
 77: 0x12BA [0x01] GOTO 0x1365
 78: 0x12BD [0x02] IF !(ExtData[1]->WorkLocal[0] == 3*) GOTO 0x12D9
 79: 0x12C5 [0x45] LOAD_SCHEDULED_TASK: Load scheduler "seem" with entities [LocalPlayer, LocalPlayer], work=[257*, 0*]
 80: 0x12D6 [0x01] GOTO 0x1365
 81: 0x12D9 [0x02] IF !(ExtData[1]->WorkLocal[0] == 4*) GOTO 0x12F5
 82: 0x12E1 [0x45] LOAD_SCHEDULED_TASK: Load scheduler "seef" with entities [LocalPlayer, LocalPlayer], work=[257*, 0*]
 83: 0x12F2 [0x01] GOTO 0x1365
 84: 0x12F5 [0x02] IF !(ExtData[1]->WorkLocal[0] == 5*) GOTO 0x1311
 85: 0x12FD [0x45] LOAD_SCHEDULED_TASK: Load scheduler "setr" with entities [LocalPlayer, LocalPlayer], work=[257*, 0*]
 86: 0x130E [0x01] GOTO 0x1365
 87: 0x1311 [0x02] IF !(ExtData[1]->WorkLocal[0] == 6*) GOTO 0x132D
 88: 0x1319 [0x45] LOAD_SCHEDULED_TASK: Load scheduler "setr" with entities [LocalPlayer, LocalPlayer], work=[257*, 0*]
 89: 0x132A [0x01] GOTO 0x1365
 90: 0x132D [0x02] IF !(ExtData[1]->WorkLocal[0] == 7*) GOTO 0x1349
 91: 0x1335 [0x45] LOAD_SCHEDULED_TASK: Load scheduler "semt" with entities [LocalPlayer, LocalPlayer], work=[257*, 0*]
 92: 0x1346 [0x01] GOTO 0x1365
 93: 0x1349 [0x02] IF !(ExtData[1]->WorkLocal[0] == 8*) GOTO 0x1365
 94: 0x1351 [0x45] LOAD_SCHEDULED_TASK: Load scheduler "segl" with entities [LocalPlayer, LocalPlayer], work=[257*, 0*]
 95: 0x1362 [0x01] GOTO 0x1365

SUBROUTINE_1365:
 96: 0x1365 [0x2B] Esha'ntarl (ID: 17772662/0x010F3076) [13780*]:
    → "The time has finally come to use the completed song--the verses you discovered on your journey. I have faith that Ulmia can perform the piece with little trouble."
 97: 0x136C [0x23] WAIT_FOR_DIALOG_INTERACTION
 98: 0x136D [0x5B] LOAD_EXT_SCHEDULER: Load scheduler "tlb1" with entities [Esha'ntarl (ID: 17772662/0x010F3076), Esha'ntarl (ID: 17772662/0x010F3076)], work=450*
 99: 0x137C [0x1C] WAIT(30* ticks)
100: 0x137F [0x02] IF !(ExtData[1]->WorkLocal[0] == 1*) GOTO 0x1399
101: 0x1387 [0x52] END_LOAD_SCHEDULER: End scheduler "sehm" with entities [LocalPlayer, LocalPlayer], work=257*
102: 0x1396 [0x01] GOTO 0x144F
103: 0x1399 [0x02] IF !(ExtData[1]->WorkLocal[0] == 2*) GOTO 0x13B3
104: 0x13A1 [0x52] END_LOAD_SCHEDULER: End scheduler "sehf" with entities [LocalPlayer, LocalPlayer], work=257*
105: 0x13B0 [0x01] GOTO 0x144F
106: 0x13B3 [0x02] IF !(ExtData[1]->WorkLocal[0] == 3*) GOTO 0x13CD
107: 0x13BB [0x52] END_LOAD_SCHEDULER: End scheduler "seem" with entities [LocalPlayer, LocalPlayer], work=257*
108: 0x13CA [0x01] GOTO 0x144F
109: 0x13CD [0x02] IF !(ExtData[1]->WorkLocal[0] == 4*) GOTO 0x13E7
110: 0x13D5 [0x52] END_LOAD_SCHEDULER: End scheduler "seef" with entities [LocalPlayer, LocalPlayer], work=257*
111: 0x13E4 [0x01] GOTO 0x144F
112: 0x13E7 [0x02] IF !(ExtData[1]->WorkLocal[0] == 5*) GOTO 0x1401
113: 0x13EF [0x52] END_LOAD_SCHEDULER: End scheduler "setr" with entities [LocalPlayer, LocalPlayer], work=257*
114: 0x13FE [0x01] GOTO 0x144F
115: 0x1401 [0x02] IF !(ExtData[1]->WorkLocal[0] == 6*) GOTO 0x141B
116: 0x1409 [0x52] END_LOAD_SCHEDULER: End scheduler "setr" with entities [LocalPlayer, LocalPlayer], work=257*
117: 0x1418 [0x01] GOTO 0x144F
118: 0x141B [0x02] IF !(ExtData[1]->WorkLocal[0] == 7*) GOTO 0x1435
119: 0x1423 [0x52] END_LOAD_SCHEDULER: End scheduler "semt" with entities [LocalPlayer, LocalPlayer], work=257*
120: 0x1432 [0x01] GOTO 0x144F
121: 0x1435 [0x02] IF !(ExtData[1]->WorkLocal[0] == 8*) GOTO 0x144F
122: 0x143D [0x52] END_LOAD_SCHEDULER: End scheduler "segl" with entities [LocalPlayer, LocalPlayer], work=257*
123: 0x144C [0x01] GOTO 0x144F

SUBROUTINE_144F:
124: 0x144F [0x45] LOAD_SCHEDULED_TASK: Load scheduler "se07" with entities [LocalPlayer, LocalPlayer], work=[257*, 0*]
125: 0x1460 [0x53] WAIT_SCHEDULER_TASK: Wait for scheduler "tlb1" with entities [Esha'ntarl (ID: 17772662/0x010F3076), Esha'ntarl (ID: 17772662/0x010F3076)]
126: 0x146D [0x5B] LOAD_EXT_SCHEDULER: Load scheduler "sji0" with entities [Esha'ntarl (ID: 17772662/0x010F3076), Esha'ntarl (ID: 17772662/0x010F3076)], work=452*
127: 0x147C [0x2B] Esha'ntarl (ID: 17772662/0x010F3076) [13781*]:
    → "Make your way to the Sealion's Den in Tavnazia. Al'Taieu beckons once again."
128: 0x1483 [0x23] WAIT_FOR_DIALOG_INTERACTION
129: 0x1484 [0x1A] CALL_SUBROUTINE(address=0x151A)
130: 0x1487 [0x1C] WAIT(30* ticks)
131: 0x148A [0x52] END_LOAD_SCHEDULER: End scheduler "se07" with entities [LocalPlayer, LocalPlayer], work=257*
132: 0x1499 [0x5C] MUSIC_CONTROL: Set Idle (Day) music to song 117*
133: 0x149D [0x5C] MUSIC_CONTROL: Set Idle (Night) music to song 117*
134: 0x14A1 [0x9A] WAIT_MUSIC_SERVER()
135: 0x14A2 [0x46] CAMERA_CONTROL: Restore default settings
136: 0x14A4 [0x45] LOAD_SCHEDULED_TASK: Load scheduler "fdi2" with entities [LocalPlayer, LocalPlayer], work=[200*, 0*]
137: 0x14B5 [0x21] END_EVENT
138: 0x14B6 [0x00] END_REQSTACK()

SUBROUTINE_14F9:
139: 0x14F9 [0x45] LOAD_SCHEDULED_TASK: Load scheduler "fdi1" with entities [LocalPlayer, LocalPlayer], work=[200*, 0*]
140: 0x150A [0x55] WAIT_LOAD_SCHEDULER: Wait for scheduler "fdi1" with entities [LocalPlayer, LocalPlayer], work=200*
141: 0x1519 [0x1B] RETURN

SUBROUTINE_151A:
142: 0x151A [0x45] LOAD_SCHEDULED_TASK: Load scheduler "fdo1" with entities [LocalPlayer, LocalPlayer], work=[200*, 0*]
143: 0x152B [0x55] WAIT_LOAD_SCHEDULER: Wait for scheduler "fdo1" with entities [LocalPlayer, LocalPlayer], work=200*
144: 0x153A [0x1B] RETURN
```

#### Data or dead code:

```
# Dead code (unreachable instructions):
     0x14B7 [0x45] LOAD_SCHEDULED_TASK: Load scheduler "fdi0" with entities [LocalPlayer, LocalPlayer], work=[200*, 0*]
     0x14C8 [0x55] WAIT_LOAD_SCHEDULER: Wait for scheduler "fdi0" with entities [LocalPlayer, LocalPlayer], work=200*
     0x14D7 [0x1B] RETURN
     0x14D8 [0x45] LOAD_SCHEDULED_TASK: Load scheduler "fdo0" with entities [LocalPlayer, LocalPlayer], work=[200*, 0*]
     0x14E9 [0x55] WAIT_LOAD_SCHEDULER: Wait for scheduler "fdo0" with entities [LocalPlayer, LocalPlayer], work=200*
     0x14F8 [0x1B] RETURN
# Dead code (unreachable instructions):
     0x153B [0x45] LOAD_SCHEDULED_TASK: Load scheduler "whi1" with entities [LocalPlayer, LocalPlayer], work=[201*, 0*]
     0x154C [0x55] WAIT_LOAD_SCHEDULER: Wait for scheduler "whi1" with entities [LocalPlayer, LocalPlayer], work=201*
     0x155B [0x1B] RETURN
     0x155C [0x45] LOAD_SCHEDULED_TASK: Load scheduler "who1" with entities [LocalPlayer, LocalPlayer], work=[201*, 0*]
     0x156D [0x55] WAIT_LOAD_SCHEDULER: Wait for scheduler "who1" with entities [LocalPlayer, LocalPlayer], work=201*
     0x157C [0x1B] RETURN
     0x157D [0x45] LOAD_SCHEDULED_TASK: Load scheduler "who2" with entities [LocalPlayer, LocalPlayer], work=[201*, 0*]
     0x158E [0x55] WAIT_LOAD_SCHEDULER: Wait for scheduler "who2" with entities [LocalPlayer, LocalPlayer], work=201*
     0x159D [0x1B] RETURN
     0x159E [0x45] LOAD_SCHEDULED_TASK: Load scheduler "who3" with entities [LocalPlayer, LocalPlayer], work=[201*, 0*]
     0x15AF [0x55] WAIT_LOAD_SCHEDULER: Wait for scheduler "who3" with entities [LocalPlayer, LocalPlayer], work=201*
     0x15BE [0x1B] RETURN
     0x15BF [0x62] LOAD_EVENT_SCHEDULER: Load scheduler "main" with entities [LocalPlayer, LocalPlayer], work=[1*, 0*]
     0x15D0 [0x1C] WAIT(45* ticks)
     0x15D3 [0x45] LOAD_SCHEDULED_TASK: Load scheduler "fdo1" with entities [LocalPlayer, LocalPlayer], work=[200*, 0*]
     0x15E4 [0x55] WAIT_LOAD_SCHEDULER: Wait for scheduler "fdo1" with entities [LocalPlayer, LocalPlayer], work=200*
     0x15F3 [0x1B] RETURN
     0x15F4 [0x45] LOAD_SCHEDULED_TASK: Load scheduler "fdi1" with entities [LocalPlayer, LocalPlayer], work=[200*, 0*]
     0x1605 [0x62] LOAD_EVENT_SCHEDULER: Load scheduler "main" with entities [LocalPlayer, LocalPlayer], work=[2*, 0*]
     0x1616 [0x1C] WAIT(30* ticks)
     0x1619 [0x55] WAIT_LOAD_SCHEDULER: Wait for scheduler "fdi1" with entities [LocalPlayer, LocalPlayer], work=200*
     0x1628 [0x1B] RETURN
     0x1629 [0x45] LOAD_SCHEDULED_TASK: Load scheduler "blon" with entities [LocalPlayer, LocalPlayer], work=[200*, 0*]
     0x163A [0x45] LOAD_SCHEDULED_TASK: Load scheduler "blon" with entities [LocalPlayer, LocalPlayer], work=[201*, 0*]
     0x164B [0x1B] RETURN
     0x164C [0x45] LOAD_SCHEDULED_TASK: Load scheduler "whi0" with entities [LocalPlayer, LocalPlayer], work=[201*, 0*]
     0x165D [0x55] WAIT_LOAD_SCHEDULER: Wait for scheduler "whi0" with entities [LocalPlayer, LocalPlayer], work=201*
     0x166C [0x1B] RETURN
     0x166D [0x45] LOAD_SCHEDULED_TASK: Load scheduler "who0" with entities [LocalPlayer, LocalPlayer], work=[201*, 0*]
     0x167E [0x55] WAIT_LOAD_SCHEDULER: Wait for scheduler "who0" with entities [LocalPlayer, LocalPlayer], work=201*
     0x168D [0x1B] RETURN
     0x168E [0x45] LOAD_SCHEDULED_TASK: Load scheduler "efon" with entities [LocalPlayer, LocalPlayer], work=[215*, 0*]
     0x169F [0x55] WAIT_LOAD_SCHEDULER: Wait for scheduler "efon" with entities [LocalPlayer, LocalPlayer], work=215*
     0x16AE [0x1B] RETURN
     0x16AF [0x45] LOAD_SCHEDULED_TASK: Load scheduler "fdis" with entities [LocalPlayer, LocalPlayer], work=[200*, 0*]
     0x16C0 [0x1B] RETURN
     0x16C1 [0x45] LOAD_SCHEDULED_TASK: Load scheduler "fdos" with entities [LocalPlayer, LocalPlayer], work=[200*, 0*]
     0x16D2 [0x55] WAIT_LOAD_SCHEDULER: Wait for scheduler "fdos" with entities [LocalPlayer, LocalPlayer], work=200*
     0x16E1 [0x1B] RETURN
     0x16E2 [0x45] LOAD_SCHEDULED_TASK: Load scheduler "fdif" with entities [LocalPlayer, LocalPlayer], work=[200*, 0*]
     0x16F3 [0x1B] RETURN
     0x16F4 [0x45] LOAD_SCHEDULED_TASK: Load scheduler "fdof" with entities [LocalPlayer, LocalPlayer], work=[200*, 0*]
     0x1705 [0x55] WAIT_LOAD_SCHEDULER: Wait for scheduler "fdof" with entities [LocalPlayer, LocalPlayer], work=200*
     0x1714 [0x1B] RETURN
