# 17772552 - Monberaux

## Common Data

| Field            | Value                     |
|------------------|---------------------------|
| Zone             | Ru'Lude Gardens (ID: 243) |
| Block Size       | 800 bytes                 |
| Total Events     | 24                        |
| References Count | 55                        |

## List of Events

| Event ID                   | Entrypoint   |   Size |   Instructions |
|----------------------------|--------------|--------|----------------|
| [65535](#event-65535)      | 0x0000       |      6 |              3 |
| [93](#event-93)            | 0x0006       |     22 |              4 |
| [65535.1](#event-655351)   | 0x001C       |     24 |              6 |
| [65535.2](#event-655352)   | 0x0034       |     23 |              6 |
| [42](#event-42)            | 0x004B       |     10 |              2 |
| [65535.3](#event-655353)   | 0x0055       |     19 |              7 |
| [65535.4](#event-655354)   | 0x0068       |     20 |              6 |
| [65535.5](#event-655355)   | 0x007C       |     35 |              9 |
| [41](#event-41)            | 0x009F       |     10 |              2 |
| [65535.6](#event-655356)   | 0x00A9       |     19 |              7 |
| [65535.7](#event-655357)   | 0x00BC       |     20 |              6 |
| [65535.8](#event-655358)   | 0x00D0       |     37 |             10 |
| [43](#event-43)            | 0x00F5       |     10 |              2 |
| [65535.9](#event-655359)   | 0x00FF       |     19 |              7 |
| [65535.10](#event-6553510) | 0x0112       |     20 |              6 |
| [65535.11](#event-6553511) | 0x0126       |     37 |             10 |
| [65535.12](#event-6553512) | 0x014B       |     27 |              6 |
| [65535.13](#event-6553513) | 0x0166       |     27 |              6 |
| [65535.14](#event-6553514) | 0x0181       |      3 |              2 |
| [65535.15](#event-6553515) | 0x0184       |     19 |              3 |
| [65535.16](#event-6553516) | 0x0197       |     19 |              3 |
| [65535.17](#event-6553517) | 0x01AA       |     29 |              3 |
| [65535.18](#event-6553518) | 0x01C7       |      9 |              3 |
| [65535.19](#event-6553519) | 0x01D0       |      1 |              1 |

## DAT References (imed_data)

|   Index | Hex Value   |   Dec Value |
|---------|-------------|-------------|
|       0 | 0x000D      |          13 |
|       1 | 0x0A43      |        2627 |
|       2 | 0x1C632     |      116274 |
|       3 | 0x0C1D      |        3101 |
|       4 | 0x0DB0      |        3504 |
|       5 | 0x003C      |          60 |
|       6 | 0x0F4F      |        3919 |
|       7 | 0x1CCB7     |      117943 |
|       8 | 0x0731      |        1841 |
|       9 | 0x1C5DE     |      116190 |
|      10 | 0x04A2      |        1186 |
|      11 | 0x142AE     |       82606 |
|      12 | 0x07D0      |        2000 |
|      13 | 0xFFFF9F9C  |  4294942620 |
|      14 | 0xFFFF3C64  |  4294917220 |
|      15 | 0x2326      |        8998 |
|      16 | 0x07F3      |        2035 |
|      17 | 0xFFFF90FB  |  4294938875 |
|      18 | 0xFFFF3A0A  |  4294916618 |
|      19 | 0x2327      |        8999 |
|      20 | 0x000F      |          15 |
|      21 | 0xFFFF8FB4  |  4294938548 |
|      22 | 0xFFFF3749  |  4294915913 |
|      23 | 0xFFFF9651  |  4294940241 |
|      24 | 0xFFFF3CC7  |  4294917319 |
|      25 | 0x0000      |           0 |
|      26 | 0xFFFFBF57  |  4294950743 |
|      27 | 0xFFFF3CA6  |  4294917286 |
|      28 | 0x2329      |        9001 |
|      29 | 0x0F7D      |        3965 |
|      30 | 0xFFFEF315  |  4294898453 |
|      31 | 0x2328      |        9000 |
|      32 | 0x03E2      |         994 |
|      33 | 0x0C74      |        3188 |
|      34 | 0xFFFEE3A1  |  4294894497 |
|      35 | 0x1164      |        4452 |
|      36 | 0xFFFEE3A3  |  4294894499 |
|      37 | 0x0FA6      |        4006 |
|      38 | 0xFFFEED09  |  4294896905 |
|      39 | 0x0C00      |        3072 |
|      40 | 0x0F9B      |        3995 |
|      41 | 0xFFFF1DF9  |  4294909433 |
|      42 | 0x638B      |       25483 |
|      43 | 0xFFFF7396  |  4294931350 |
|      44 | 0x740A      |       29706 |
|      45 | 0xFFFF7383  |  4294931331 |
|      46 | 0x7505      |       29957 |
|      47 | 0xFFFF778D  |  4294932365 |
|      48 | 0x69AC      |       27052 |
|      49 | 0xFFFF7381  |  4294931329 |
|      50 | 0x0800      |        2048 |
|      51 | 0x4098      |       16536 |
|      52 | 0xFFFF73A2  |  4294931362 |
|      53 | 0x0001      |           1 |
|      54 | 0x0129      |         297 |

## Events

### Event 65535

#### Metadata

| Field        | Value   |
|--------------|---------|
| Entrypoint   | 0x0000  |
| Data Size    | 6 bytes |
| Instructions | 3       |

```
      00 01 02 03 04 05 06 07  08 09 0A 0B 0C 0D 0E 0F
      -- -- -- -- -- -- -- --  -- -- -- -- -- -- -- --
0000: 22 01 32 00 80 00                                 ".2...          
```

#### Opcodes

```
  0: 0x0000 [0x22] ENTITY_HIDE_FLAG(enabled=0x01)
  1: 0x0002 [0x32] ExtData[1]->MainSpeed = 13* * 0.1
  2: 0x0005 [0x00] END_REQSTACK()
```

### Event 93

#### Metadata

| Field        | Value    |
|--------------|----------|
| Entrypoint   | 0x0006   |
| Data Size    | 22 bytes |
| Instructions | 4        |

```
      00 01 02 03 04 05 06 07  08 09 0A 0B 0C 0D 0E 0F
      -- -- -- -- -- -- -- --  -- -- -- -- -- -- -- --
0000:                   37 01  80 02 80 03 80 04 80 1C        7.........
0010: 05 80 4A 08 30 0F 01 32  30 0F 01 00              ..J.0..20...    
```

#### Opcodes

```
  0: 0x0006 [0x37] UPDATE_EVENT_POSITION_AND_DIR: x=2.627*, z=116.274*, y=3.101*, direction=308.0°*
  1: 0x000F [0x1C] WAIT(60* ticks)
  2: 0x0012 [0x4A] Monberaux (ID: 17772552/0x010F3008) looks at Maat (ID: 17772594/0x010F3032)
  3: 0x001B [0x00] END_REQSTACK()
```

### Event 65535.1

#### Metadata

| Field        | Value    |
|--------------|----------|
| Entrypoint   | 0x001C   |
| Data Size    | 24 bytes |
| Instructions | 6        |

```
      00 01 02 03 04 05 06 07  08 09 0A 0B 0C 0D 0E 0F
      -- -- -- -- -- -- -- --  -- -- -- -- -- -- -- --
0010:                                      32 00 80 1F              2...
0020: 00 06 80 07 80 03 80 1F  01 6F 4A 08 30 0F 01 32  .........oJ.0..2
0030: 30 0F 01 00                                       0...            
```

#### Opcodes

```
  0: 0x001C [0x32] ExtData[1]->MainSpeed = 13* * 0.1
  1: 0x001F [0x1F] MOVE_ENTITY: EventEntity moves to X=3.919*, Z=117.943*, Y=3.101*
  2: 0x0027 [0x1F] MOVE_ENTITY: Update entity position (mode=1)
  3: 0x0029 [0x6F] WAIT_FRAME_DELAY: Yield until WaitTime reaches zero
  4: 0x002A [0x4A] Monberaux (ID: 17772552/0x010F3008) looks at Maat (ID: 17772594/0x010F3032)
  5: 0x0033 [0x00] END_REQSTACK()
```

### Event 65535.2

#### Metadata

| Field        | Value    |
|--------------|----------|
| Entrypoint   | 0x0034   |
| Data Size    | 23 bytes |
| Instructions | 6        |

```
      00 01 02 03 04 05 06 07  08 09 0A 0B 0C 0D 0E 0F
      -- -- -- -- -- -- -- --  -- -- -- -- -- -- -- --
0030:             1F 00 08 80  09 80 03 80 1F 01 1F 00      ............
0040: 0A 80 0B 80 0C 80 1F 01  22 01 00                 ........"..     
```

#### Opcodes

```
  0: 0x0034 [0x1F] MOVE_ENTITY: EventEntity moves to X=1.841*, Z=116.190*, Y=3.101*
  1: 0x003C [0x1F] MOVE_ENTITY: Update entity position (mode=1)
  2: 0x003E [0x1F] MOVE_ENTITY: EventEntity moves to X=1.186*, Z=82.606*, Y=2.000*
  3: 0x0046 [0x1F] MOVE_ENTITY: Update entity position (mode=1)
  4: 0x0048 [0x22] ENTITY_HIDE_FLAG(enabled=0x01)
  5: 0x004A [0x00] END_REQSTACK()
```

### Event 42

#### Metadata

| Field        | Value    |
|--------------|----------|
| Entrypoint   | 0x004B   |
| Data Size    | 10 bytes |
| Instructions | 2        |

```
      00 01 02 03 04 05 06 07  08 09 0A 0B 0C 0D 0E 0F
      -- -- -- -- -- -- -- --  -- -- -- -- -- -- -- --
0040:                                   37 0D 80 0E 80             7....
0050: 0F 80 10 80 00                                    .....           
```

#### Opcodes

```
  0: 0x004B [0x37] UPDATE_EVENT_POSITION_AND_DIR: x=-24.676*, z=-50.076*, y=8.998*, direction=178.9°*
  1: 0x0054 [0x00] END_REQSTACK()
```

### Event 65535.3

#### Metadata

| Field        | Value    |
|--------------|----------|
| Entrypoint   | 0x0055   |
| Data Size    | 19 bytes |
| Instructions | 7        |

```
      00 01 02 03 04 05 06 07  08 09 0A 0B 0C 0D 0E 0F
      -- -- -- -- -- -- -- --  -- -- -- -- -- -- -- --
0050:                1F 00 11  80 12 80 13 80 1F 01 6F       ..........o
0060: 1E 01 30 0F 01 6F 70 00                           ..0..op.        
```

#### Opcodes

```
  0: 0x0055 [0x1F] MOVE_ENTITY: EventEntity moves to X=-28.421*, Z=-50.678*, Y=8.999*
  1: 0x005D [0x1F] MOVE_ENTITY: Update entity position (mode=1)
  2: 0x005F [0x6F] WAIT_FRAME_DELAY: Yield until WaitTime reaches zero
  3: 0x0060 [0x1E] EventEntity looks at Nelcabrit (ID: 17772545/0x010F3001) and starts talking
  4: 0x0065 [0x6F] WAIT_FRAME_DELAY: Yield until WaitTime reaches zero
  5: 0x0066 [0x70] WAIT_ENTITY_RENDER_FLAG: Wait while EventEntity->Render.Flags3 bit 2 is set (cancel turn if not)
  6: 0x0067 [0x00] END_REQSTACK()
```

### Event 65535.4

#### Metadata

| Field        | Value    |
|--------------|----------|
| Entrypoint   | 0x0068   |
| Data Size    | 20 bytes |
| Instructions | 6        |

```
      00 01 02 03 04 05 06 07  08 09 0A 0B 0C 0D 0E 0F
      -- -- -- -- -- -- -- --  -- -- -- -- -- -- -- --
0060:                          1C 14 80 1F 00 15 80 16          ........
0070: 80 13 80 1F 01 6F 1E 07  30 0F 01 00              .....o..0...    
```

#### Opcodes

```
  0: 0x0068 [0x1C] WAIT(15* ticks)
  1: 0x006B [0x1F] MOVE_ENTITY: EventEntity moves to X=-28.748*, Z=-51.383*, Y=8.999*
  2: 0x0073 [0x1F] MOVE_ENTITY: Update entity position (mode=1)
  3: 0x0075 [0x6F] WAIT_FRAME_DELAY: Yield until WaitTime reaches zero
  4: 0x0076 [0x1E] EventEntity looks at Wolfgang (ID: 17772551/0x010F3007) and starts talking
  5: 0x007B [0x00] END_REQSTACK()
```

### Event 65535.5

#### Metadata

| Field        | Value    |
|--------------|----------|
| Entrypoint   | 0x007C   |
| Data Size    | 35 bytes |
| Instructions | 9        |

```
      00 01 02 03 04 05 06 07  08 09 0A 0B 0C 0D 0E 0F
      -- -- -- -- -- -- -- --  -- -- -- -- -- -- -- --
0070:                                      1F 00 17 80              ....
0080: 18 80 13 80 1F 01 6F 39  19 80 27 03 8C 30 0F 01  ......o9..'..0..
0090: 02 1C 05 80 1F 00 1A 80  1B 80 1C 80 1F 01 00     ............... 
```

#### Opcodes

```
  0: 0x007C [0x1F] MOVE_ENTITY: EventEntity moves to X=-27.055*, Z=-49.977*, Y=8.999*
  1: 0x0084 [0x1F] MOVE_ENTITY: Update entity position (mode=1)
  2: 0x0086 [0x6F] WAIT_FRAME_DELAY: Yield until WaitTime reaches zero
  3: 0x0087 [0x39] SET_ENTITY_DIRECTION(direction=0.0°*)
  4: 0x008A [0x27] REQ_SET(priority=0x03, entity_id=Door:San d'Orian Emb. (ID: 17772684/0x010F308C), tag_num=0x02)
  5: 0x0091 [0x1C] WAIT(60* ticks)
  6: 0x0094 [0x1F] MOVE_ENTITY: EventEntity moves to X=-16.553*, Z=-50.010*, Y=9.001*
  7: 0x009C [0x1F] MOVE_ENTITY: Update entity position (mode=1)
  8: 0x009E [0x00] END_REQSTACK()
```

### Event 41

#### Metadata

| Field        | Value    |
|--------------|----------|
| Entrypoint   | 0x009F   |
| Data Size    | 10 bytes |
| Instructions | 2        |

```
      00 01 02 03 04 05 06 07  08 09 0A 0B 0C 0D 0E 0F
      -- -- -- -- -- -- -- --  -- -- -- -- -- -- -- --
0090:                                               37                 7
00A0: 1D 80 1E 80 1F 80 20 80  00                       ...... ..       
```

#### Opcodes

```
  0: 0x009F [0x37] UPDATE_EVENT_POSITION_AND_DIR: x=3.965*, z=-68.843*, y=9.000*, direction=87.4°*
  1: 0x00A8 [0x00] END_REQSTACK()
```

### Event 65535.6

#### Metadata

| Field        | Value    |
|--------------|----------|
| Entrypoint   | 0x00A9   |
| Data Size    | 19 bytes |
| Instructions | 7        |

```
      00 01 02 03 04 05 06 07  08 09 0A 0B 0C 0D 0E 0F
      -- -- -- -- -- -- -- --  -- -- -- -- -- -- -- --
00A0:                             1F 00 21 80 22 80 13           ..!."..
00B0: 80 1F 01 6F 1E 03 30 0F  01 6F 70 00              ...o..0..op.    
```

#### Opcodes

```
  0: 0x00A9 [0x1F] MOVE_ENTITY: EventEntity moves to X=3.188*, Z=-72.799*, Y=8.999*
  1: 0x00B1 [0x1F] MOVE_ENTITY: Update entity position (mode=1)
  2: 0x00B3 [0x6F] WAIT_FRAME_DELAY: Yield until WaitTime reaches zero
  3: 0x00B4 [0x1E] EventEntity looks at Goggehn (ID: 17772547/0x010F3003) and starts talking
  4: 0x00B9 [0x6F] WAIT_FRAME_DELAY: Yield until WaitTime reaches zero
  5: 0x00BA [0x70] WAIT_ENTITY_RENDER_FLAG: Wait while EventEntity->Render.Flags3 bit 2 is set (cancel turn if not)
  6: 0x00BB [0x00] END_REQSTACK()
```

### Event 65535.7

#### Metadata

| Field        | Value    |
|--------------|----------|
| Entrypoint   | 0x00BC   |
| Data Size    | 20 bytes |
| Instructions | 6        |

```
      00 01 02 03 04 05 06 07  08 09 0A 0B 0C 0D 0E 0F
      -- -- -- -- -- -- -- --  -- -- -- -- -- -- -- --
00B0:                                      1C 14 80 1F              ....
00C0: 00 23 80 24 80 13 80 1F  01 6F 1E 07 30 0F 01 00  .#.$.....o..0...
```

#### Opcodes

```
  0: 0x00BC [0x1C] WAIT(15* ticks)
  1: 0x00BF [0x1F] MOVE_ENTITY: EventEntity moves to X=4.452*, Z=-72.797*, Y=8.999*
  2: 0x00C7 [0x1F] MOVE_ENTITY: Update entity position (mode=1)
  3: 0x00C9 [0x6F] WAIT_FRAME_DELAY: Yield until WaitTime reaches zero
  4: 0x00CA [0x1E] EventEntity looks at Wolfgang (ID: 17772551/0x010F3007) and starts talking
  5: 0x00CF [0x00] END_REQSTACK()
```

### Event 65535.8

#### Metadata

| Field        | Value    |
|--------------|----------|
| Entrypoint   | 0x00D0   |
| Data Size    | 37 bytes |
| Instructions | 10       |

```
      00 01 02 03 04 05 06 07  08 09 0A 0B 0C 0D 0E 0F
      -- -- -- -- -- -- -- --  -- -- -- -- -- -- -- --
00D0: 1F 00 25 80 26 80 1F 80  1F 01 6F 39 27 80 27 03  ..%.&.....o9'.'.
00E0: 89 30 0F 01 02 1C 05 80  1F 00 28 80 29 80 13 80  .0........(.)...
00F0: 1F 01 22 01 00                                    .."..           
```

#### Opcodes

```
  0: 0x00D0 [0x1F] MOVE_ENTITY: EventEntity moves to X=4.006*, Z=-70.391*, Y=9.000*
  1: 0x00D8 [0x1F] MOVE_ENTITY: Update entity position (mode=1)
  2: 0x00DA [0x6F] WAIT_FRAME_DELAY: Yield until WaitTime reaches zero
  3: 0x00DB [0x39] SET_ENTITY_DIRECTION(direction=16.9°*)
  4: 0x00DE [0x27] REQ_SET(priority=0x03, entity_id=Door:Bastokan Emb. (ID: 17772681/0x010F3089), tag_num=0x02)
  5: 0x00E5 [0x1C] WAIT(60* ticks)
  6: 0x00E8 [0x1F] MOVE_ENTITY: EventEntity moves to X=3.995*, Z=-57.863*, Y=8.999*
  7: 0x00F0 [0x1F] MOVE_ENTITY: Update entity position (mode=1)
  8: 0x00F2 [0x22] ENTITY_HIDE_FLAG(enabled=0x01)
  9: 0x00F4 [0x00] END_REQSTACK()
```

### Event 43

#### Metadata

| Field        | Value    |
|--------------|----------|
| Entrypoint   | 0x00F5   |
| Data Size    | 10 bytes |
| Instructions | 2        |

```
      00 01 02 03 04 05 06 07  08 09 0A 0B 0C 0D 0E 0F
      -- -- -- -- -- -- -- --  -- -- -- -- -- -- -- --
00F0:                37 2A 80  2B 80 13 80 19 80 00          7*.+...... 
```

#### Opcodes

```
  0: 0x00F5 [0x37] UPDATE_EVENT_POSITION_AND_DIR: x=25.483*, z=-35.946*, y=8.999*, direction=0.0°*
  1: 0x00FE [0x00] END_REQSTACK()
```

### Event 65535.9

#### Metadata

| Field        | Value    |
|--------------|----------|
| Entrypoint   | 0x00FF   |
| Data Size    | 19 bytes |
| Instructions | 7        |

```
      00 01 02 03 04 05 06 07  08 09 0A 0B 0C 0D 0E 0F
      -- -- -- -- -- -- -- --  -- -- -- -- -- -- -- --
00F0:                                               1F                 .
0100: 00 2C 80 2D 80 13 80 1F  01 6F 1E 05 30 0F 01 6F  .,.-.....o..0..o
0110: 70 00                                             p.              
```

#### Opcodes

```
  0: 0x00FF [0x1F] MOVE_ENTITY: EventEntity moves to X=29.706*, Z=-35.965*, Y=8.999*
  1: 0x0107 [0x1F] MOVE_ENTITY: Update entity position (mode=1)
  2: 0x0109 [0x6F] WAIT_FRAME_DELAY: Yield until WaitTime reaches zero
  3: 0x010A [0x1E] EventEntity looks at Pakh Jatalfih (ID: 17772549/0x010F3005) and starts talking
  4: 0x010F [0x6F] WAIT_FRAME_DELAY: Yield until WaitTime reaches zero
  5: 0x0110 [0x70] WAIT_ENTITY_RENDER_FLAG: Wait while EventEntity->Render.Flags3 bit 2 is set (cancel turn if not)
  6: 0x0111 [0x00] END_REQSTACK()
```

### Event 65535.10

#### Metadata

| Field        | Value    |
|--------------|----------|
| Entrypoint   | 0x0112   |
| Data Size    | 20 bytes |
| Instructions | 6        |

```
      00 01 02 03 04 05 06 07  08 09 0A 0B 0C 0D 0E 0F
      -- -- -- -- -- -- -- --  -- -- -- -- -- -- -- --
0110:       1C 14 80 1F 00 2E  80 2F 80 13 80 1F 01 6F    ......./.....o
0120: 1E 07 30 0F 01 00                                 ..0...          
```

#### Opcodes

```
  0: 0x0112 [0x1C] WAIT(15* ticks)
  1: 0x0115 [0x1F] MOVE_ENTITY: EventEntity moves to X=29.957*, Z=-34.931*, Y=8.999*
  2: 0x011D [0x1F] MOVE_ENTITY: Update entity position (mode=1)
  3: 0x011F [0x6F] WAIT_FRAME_DELAY: Yield until WaitTime reaches zero
  4: 0x0120 [0x1E] EventEntity looks at Wolfgang (ID: 17772551/0x010F3007) and starts talking
  5: 0x0125 [0x00] END_REQSTACK()
```

### Event 65535.11

#### Metadata

| Field        | Value    |
|--------------|----------|
| Entrypoint   | 0x0126   |
| Data Size    | 37 bytes |
| Instructions | 10       |

```
      00 01 02 03 04 05 06 07  08 09 0A 0B 0C 0D 0E 0F
      -- -- -- -- -- -- -- --  -- -- -- -- -- -- -- --
0120:                   1F 00  30 80 31 80 13 80 1F 01        ..0.1.....
0130: 6F 39 32 80 27 03 8F 30  0F 01 02 1C 05 80 1F 00  o92.'..0........
0140: 33 80 34 80 13 80 1F 01  22 01 00                 3.4....."..     
```

#### Opcodes

```
  0: 0x0126 [0x1F] MOVE_ENTITY: EventEntity moves to X=27.052*, Z=-35.967*, Y=8.999*
  1: 0x012E [0x1F] MOVE_ENTITY: Update entity position (mode=1)
  2: 0x0130 [0x6F] WAIT_FRAME_DELAY: Yield until WaitTime reaches zero
  3: 0x0131 [0x39] SET_ENTITY_DIRECTION(direction=11.2°*)
  4: 0x0134 [0x27] REQ_SET(priority=0x03, entity_id=Door:Windurstian Emb. (ID: 17772687/0x010F308F), tag_num=0x02)
  5: 0x013B [0x1C] WAIT(60* ticks)
  6: 0x013E [0x1F] MOVE_ENTITY: EventEntity moves to X=16.536*, Z=-35.934*, Y=8.999*
  7: 0x0146 [0x1F] MOVE_ENTITY: Update entity position (mode=1)
  8: 0x0148 [0x22] ENTITY_HIDE_FLAG(enabled=0x01)
  9: 0x014A [0x00] END_REQSTACK()
```

### Event 65535.12

#### Metadata

| Field        | Value    |
|--------------|----------|
| Entrypoint   | 0x014B   |
| Data Size    | 27 bytes |
| Instructions | 6        |

```
      00 01 02 03 04 05 06 07  08 09 0A 0B 0C 0D 0E 0F
      -- -- -- -- -- -- -- --  -- -- -- -- -- -- -- --
0140:                                   02 20 10 35 80             . .5.
0150: 00 65 01 4A F0 FF FF 7F  07 30 0F 01 6F 76 F0 FF  .e.J.....0..ov..
0160: FF 7F 01 4B 01 00                                 ...K..          
```

#### Opcodes

```
  0: 0x014B [0x02] IF !(Work_Zone[32] == 1*) GOTO 0x0165
  1: 0x0153 [0x4A] LocalPlayer looks at Wolfgang (ID: 17772551/0x010F3007)
  2: 0x015C [0x6F] WAIT_FRAME_DELAY: Yield until WaitTime reaches zero
  3: 0x015D [0x76] CHECK_ENTITY_RENDER_FLAGS: Wait until LocalPlayer Render.Flags0 and Render.Flags3 conditions are met
  4: 0x0162 [0x01] GOTO 0x014B
  5: 0x0165 [0x00] END_REQSTACK()
```

### Event 65535.13

#### Metadata

| Field        | Value    |
|--------------|----------|
| Entrypoint   | 0x0166   |
| Data Size    | 27 bytes |
| Instructions | 6        |

```
      00 01 02 03 04 05 06 07  08 09 0A 0B 0C 0D 0E 0F
      -- -- -- -- -- -- -- --  -- -- -- -- -- -- -- --
0160:                   02 20  10 35 80 00 80 01 4A 08        . .5....J.
0170: 30 0F 01 07 30 0F 01 6F  76 08 30 0F 01 01 66 01  0...0..ov.0...f.
0180: 00                                                .               
```

#### Opcodes

```
  0: 0x0166 [0x02] IF !(Work_Zone[32] == 1*) GOTO 0x0180
  1: 0x016E [0x4A] Monberaux (ID: 17772552/0x010F3008) looks at Wolfgang (ID: 17772551/0x010F3007)
  2: 0x0177 [0x6F] WAIT_FRAME_DELAY: Yield until WaitTime reaches zero
  3: 0x0178 [0x76] CHECK_ENTITY_RENDER_FLAGS: Wait until Monberaux (ID: 17772552/0x010F3008) Render.Flags0 and Render.Flags3 conditions are met
  4: 0x017D [0x01] GOTO 0x0166
  5: 0x0180 [0x00] END_REQSTACK()
```

### Event 65535.14

#### Metadata

| Field        | Value   |
|--------------|---------|
| Entrypoint   | 0x0181  |
| Data Size    | 3 bytes |
| Instructions | 2       |

```
      00 01 02 03 04 05 06 07  08 09 0A 0B 0C 0D 0E 0F
      -- -- -- -- -- -- -- --  -- -- -- -- -- -- -- --
0180:    22 00 00                                        "..            
```

#### Opcodes

```
  0: 0x0181 [0x22] ENTITY_HIDE_FLAG(enabled=0x00)
  1: 0x0183 [0x00] END_REQSTACK()
```

### Event 65535.15

#### Metadata

| Field        | Value    |
|--------------|----------|
| Entrypoint   | 0x0184   |
| Data Size    | 19 bytes |
| Instructions | 3        |

```
      00 01 02 03 04 05 06 07  08 09 0A 0B 0C 0D 0E 0F
      -- -- -- -- -- -- -- --  -- -- -- -- -- -- -- --
0180:             5B 36 80 F8  FF FF 7F F8 FF FF 7F 74      [6.........t
0190: 6C 6B 30 1C 05 80 00                              lk0....         
```

#### Opcodes

```
  0: 0x0184 [0x5B] LOAD_EXT_SCHEDULER: Load scheduler "tlk0" with entities [EventEntity, EventEntity], work=297*
  1: 0x0193 [0x1C] WAIT(60* ticks)
  2: 0x0196 [0x00] END_REQSTACK()
```

### Event 65535.16

#### Metadata

| Field        | Value    |
|--------------|----------|
| Entrypoint   | 0x0197   |
| Data Size    | 19 bytes |
| Instructions | 3        |

```
      00 01 02 03 04 05 06 07  08 09 0A 0B 0C 0D 0E 0F
      -- -- -- -- -- -- -- --  -- -- -- -- -- -- -- --
0190:                      5B  36 80 F8 FF FF 7F F8 FF         [6.......
01A0: FF 7F 74 68 6B 31 1C 05  80 00                    ..thk1....      
```

#### Opcodes

```
  0: 0x0197 [0x5B] LOAD_EXT_SCHEDULER: Load scheduler "thk1" with entities [EventEntity, EventEntity], work=297*
  1: 0x01A6 [0x1C] WAIT(60* ticks)
  2: 0x01A9 [0x00] END_REQSTACK()
```

### Event 65535.17

#### Metadata

| Field        | Value    |
|--------------|----------|
| Entrypoint   | 0x01AA   |
| Data Size    | 29 bytes |
| Instructions | 3        |

```
      00 01 02 03 04 05 06 07  08 09 0A 0B 0C 0D 0E 0F
      -- -- -- -- -- -- -- --  -- -- -- -- -- -- -- --
01A0:                                5B 36 80 F8 FF FF            [6....
01B0: 7F F8 FF FF 7F 74 68 6B  32 53 F8 FF FF 7F F8 FF  .....thk2S......
01C0: FF 7F 74 68 6B 32 00                              ..thk2.         
```

#### Opcodes

```
  0: 0x01AA [0x5B] LOAD_EXT_SCHEDULER: Load scheduler "thk2" with entities [EventEntity, EventEntity], work=297*
  1: 0x01B9 [0x53] WAIT_SCHEDULER_TASK: Wait for scheduler "thk2" with entities [EventEntity, EventEntity]
  2: 0x01C6 [0x00] END_REQSTACK()
```

### Event 65535.18

#### Metadata

| Field        | Value   |
|--------------|---------|
| Entrypoint   | 0x01C7  |
| Data Size    | 9 bytes |
| Instructions | 3       |

```
      00 01 02 03 04 05 06 07  08 09 0A 0B 0C 0D 0E 0F
      -- -- -- -- -- -- -- --  -- -- -- -- -- -- -- --
01C0:                      5E  69 64 6C 30 1C 05 80 00         ^idl0....
```

#### Opcodes

```
  0: 0x01C7 [0x5E] EventEntity goes idle (kills current action) (animation: "idl0")
  1: 0x01CC [0x1C] WAIT(60* ticks)
  2: 0x01CF [0x00] END_REQSTACK()
```

### Event 65535.19

#### Metadata

| Field        | Value   |
|--------------|---------|
| Entrypoint   | 0x01D0  |
| Data Size    | 1 bytes |
| Instructions | 1       |

```
      00 01 02 03 04 05 06 07  08 09 0A 0B 0C 0D 0E 0F
      -- -- -- -- -- -- -- --  -- -- -- -- -- -- -- --
01D0: 00                                                .               
```

#### Opcodes

```
  0: 0x01D0 [0x00] END_REQSTACK()
```
