# 17772839

## Common Data

| Field            | Value                     |
|------------------|---------------------------|
| Zone             | Ru'Lude Gardens (ID: 243) |
| Block Size       | 7592 bytes                |
| Total Events     | 7                         |
| References Count | 167                       |

## List of Events

| Event ID              | Entrypoint   |   Size |   Instructions |
|-----------------------|--------------|--------|----------------|
| [65535](#event-65535) | 0x0000       |      1 |              1 |
| [10188](#event-10188) | 0x0001       |   1285 |            175 |
| [10189](#event-10189) | 0x0506       |    785 |            104 |
| [10190](#event-10190) | 0x0817       |   1187 |            158 |
| [10199](#event-10199) | 0x0CBA       |    765 |            101 |
| [10200](#event-10200) | 0x0FB7       |   1600 |            208 |
| [10208](#event-10208) | 0x15F7       |   1254 |            141 |

## DAT References (imed_data)

|   Index | Hex Value   |   Dec Value |
|---------|-------------|-------------|
|       0 | 0x0013      |          19 |
|       1 | 0x001B      |          27 |
|       2 | 0x106F4     |       67316 |
|       3 | 0xFFFFEC79  |  4294962297 |
|       4 | 0x0BE5      |        3045 |
|       5 | 0x0000      |           0 |
|       6 | 0x0032      |          50 |
|       7 | 0x1737C     |       95100 |
|       8 | 0xFFFFE230  |  4294959664 |
|       9 | 0x0400      |        1024 |
|      10 | 0x0069      |         105 |
|      11 | 0x000B      |          11 |
|      12 | 0x169DB     |       92635 |
|      13 | 0xFFFFE4AC  |  4294960300 |
|      14 | 0x001E      |          30 |
|      15 | 0x0158      |         344 |
|      16 | 0x0038      |          56 |
|      17 | 0x3AA1      |       15009 |
|      18 | 0x0096      |         150 |
|      19 | 0x0800      |        2048 |
|      20 | 0x3AA2      |       15010 |
|      21 | 0x3AA3      |       15011 |
|      22 | 0x003C      |          60 |
|      23 | 0xFFFFFFFC  |  4294967292 |
|      24 | 0x1216A     |       74090 |
|      25 | 0xFFFFEC78  |  4294962296 |
|      26 | 0x36E6      |       14054 |
|      27 | 0x005A      |          90 |
|      28 | 0x0001      |           1 |
|      29 | 0x3AA4      |       15012 |
|      30 | 0x010E      |         270 |
|      31 | 0x001C      |          28 |
|      32 | 0x14B1B     |       84763 |
|      33 | 0x0C00      |        3072 |
|      34 | 0x0078      |         120 |
|      35 | 0x3AA5      |       15013 |
|      36 | 0x3AA6      |       15014 |
|      37 | 0x3AA7      |       15015 |
|      38 | 0x3AA8      |       15016 |
|      39 | 0x3AA9      |       15017 |
|      40 | 0x3AAA      |       15018 |
|      41 | 0x3AAB      |       15019 |
|      42 | 0x3AAC      |       15020 |
|      43 | 0x3AAD      |       15021 |
|      44 | 0x3AAE      |       15022 |
|      45 | 0x3AAF      |       15023 |
|      46 | 0x3AB0      |       15024 |
|      47 | 0x3AB1      |       15025 |
|      48 | 0x3AB2      |       15026 |
|      49 | 0x3AB3      |       15027 |
|      50 | 0x3AB4      |       15028 |
|      51 | 0x000F      |          15 |
|      52 | 0x00C8      |         200 |
|      53 | 0x3AB6      |       15030 |
|      54 | 0x3AB7      |       15031 |
|      55 | 0x3AB8      |       15032 |
|      56 | 0x3AB9      |       15033 |
|      57 | 0x3ABA      |       15034 |
|      58 | 0x3ABB      |       15035 |
|      59 | 0x3ABC      |       15036 |
|      60 | 0x3ABD      |       15037 |
|      61 | 0x3ABE      |       15038 |
|      62 | 0x3AB5      |       15029 |
|      63 | 0x3ABF      |       15039 |
|      64 | 0x3AC1      |       15041 |
|      65 | 0x3AC2      |       15042 |
|      66 | 0x002D      |          45 |
|      67 | 0x3AC3      |       15043 |
|      68 | 0x3AC4      |       15044 |
|      69 | 0x3AC5      |       15045 |
|      70 | 0x3AC6      |       15046 |
|      71 | 0x3AC7      |       15047 |
|      72 | 0x3AC8      |       15048 |
|      73 | 0x3AC9      |       15049 |
|      74 | 0x3ACA      |       15050 |
|      75 | 0x3ACB      |       15051 |
|      76 | 0x3ACC      |       15052 |
|      77 | 0x3ACD      |       15053 |
|      78 | 0xFFFF8E97  |  4294938263 |
|      79 | 0xFFFF55A1  |  4294923681 |
|      80 | 0x0003      |           3 |
|      81 | 0x03F1      |        1009 |
|      82 | 0xFFFF9589  |  4294940041 |
|      83 | 0xFFFF3EC9  |  4294917833 |
|      84 | 0xFFFFF894  |  4294965396 |
|      85 | 0x03FE      |        1022 |
|      86 | 0x3ACE      |       15054 |
|      87 | 0x0033      |          51 |
|      88 | 0x3ACF      |       15055 |
|      89 | 0x3AD0      |       15056 |
|      90 | 0x0020      |          32 |
|      91 | 0x3AD1      |       15057 |
|      92 | 0x3AD2      |       15058 |
|      93 | 0x3AD3      |       15059 |
|      94 | 0x022B      |         555 |
|      95 | 0x3B05      |       15109 |
|      96 | 0x3B06      |       15110 |
|      97 | 0x3B07      |       15111 |
|      98 | 0x3B08      |       15112 |
|      99 | 0x3B09      |       15113 |
|     100 | 0x3B0A      |       15114 |
|     101 | 0x3B0B      |       15115 |
|     102 | 0x3B0C      |       15116 |
|     103 | 0x3B0D      |       15117 |
|     104 | 0x3B0E      |       15118 |
|     105 | 0x3B0F      |       15119 |
|     106 | 0x3B10      |       15120 |
|     107 | 0x3B11      |       15121 |
|     108 | 0x0242      |         578 |
|     109 | 0xFFFFFFCD  |  4294967245 |
|     110 | 0x10E24     |       69156 |
|     111 | 0x3B12      |       15122 |
|     112 | 0x3B13      |       15123 |
|     113 | 0x3B14      |       15124 |
|     114 | 0x3B15      |       15125 |
|     115 | 0x3B16      |       15126 |
|     116 | 0x3B28      |       15144 |
|     117 | 0x3B29      |       15145 |
|     118 | 0x3B2A      |       15146 |
|     119 | 0x3B2B      |       15147 |
|     120 | 0x3B2C      |       15148 |
|     121 | 0x3B17      |       15127 |
|     122 | 0x3B18      |       15128 |
|     123 | 0x3B19      |       15129 |
|     124 | 0x3B1A      |       15130 |
|     125 | 0x3B1B      |       15131 |
|     126 | 0x3B1C      |       15132 |
|     127 | 0x0603      |        1539 |
|     128 | 0x05AB      |        1451 |
|     129 | 0x3B1D      |       15133 |
|     130 | 0x3B1E      |       15134 |
|     131 | 0x3B1F      |       15135 |
|     132 | 0x3B20      |       15136 |
|     133 | 0x0045      |          69 |
|     134 | 0x0412      |        1042 |
|     135 | 0x004B      |          75 |
|     136 | 0x3B21      |       15137 |
|     137 | 0xFFFFFFF1  |  4294967281 |
|     138 | 0x1637E     |       91006 |
|     139 | 0xFFFFE63F  |  4294960703 |
|     140 | 0x3B22      |       15138 |
|     141 | 0x007F      |         127 |
|     142 | 0x3B23      |       15139 |
|     143 | 0x3B24      |       15140 |
|     144 | 0x3B25      |       15141 |
|     145 | 0x3B26      |       15142 |
|     146 | 0x3B27      |       15143 |
|     147 | 0x0075      |         117 |
|     148 | 0xFFFFF1C4  |  4294963652 |
|     149 | 0x16B01     |       92929 |
|     150 | 0x0267      |         615 |
|     151 | 0x3B2D      |       15149 |
|     152 | 0x3B2E      |       15150 |
|     153 | 0x3B2F      |       15151 |
|     154 | 0x3B30      |       15152 |
|     155 | 0x3B31      |       15153 |
|     156 | 0x3B32      |       15154 |
|     157 | 0x3B33      |       15155 |
|     158 | 0x3B34      |       15156 |
|     159 | 0x3B35      |       15157 |
|     160 | 0x3B36      |       15158 |
|     161 | 0x3B37      |       15159 |
|     162 | 0x3B38      |       15160 |
|     163 | 0x3B39      |       15161 |
|     164 | 0x00C9      |         201 |
|     165 | 0x0002      |           2 |
|     166 | 0x00D7      |         215 |

## String References

- **14054**: @@

## Events

### Event 65535

#### Metadata

| Field        | Value   |
|--------------|---------|
| Entrypoint   | 0x0000  |
| Data Size    | 1 bytes |
| Instructions | 1       |

```
      00 01 02 03 04 05 06 07  08 09 0A 0B 0C 0D 0E 0F
      -- -- -- -- -- -- -- --  -- -- -- -- -- -- -- --
0000: 00                                                .               
```

#### Opcodes

```
  0: 0x0000 [0x00] END_REQSTACK()
```

### Event 10188

#### Metadata

| Field        | Value      |
|--------------|------------|
| Entrypoint   | 0x0001     |
| Data Size    | 1285 bytes |
| Instructions | 175        |

```
      00 01 02 03 04 05 06 07  08 09 0A 0B 0C 0D 0E 0F
      -- -- -- -- -- -- -- --  -- -- -- -- -- -- -- --
0000:    42 03 02 00 02 10 03  01 00 09 10 1A AF 18 46   B.............F
0010: 01 38 00 80 92 01 0B 30  0F 01 92 01 0C 30 0F 01  .8.....0.....0..
0020: 92 01 0D 30 0F 01 92 01  0E 30 0F 01 94 01 F0 FF  ...0.....0......
0030: FF 7F 94 01 0B 30 0F 01  94 01 0C 30 0F 01 94 01  .....0.....0....
0040: 0D 30 0F 01 94 01 0E 30  0F 01 BA F0 FF FF 7F 01  .0.....0........
0050: 80 02 80 03 80 04 80 80  F0 FF FF 7F 80 0B 30 0F  ..............0.
0060: 01 80 0C 30 0F 01 80 0D  30 0F 01 80 0E 30 0F 01  ...0....0....0..
0070: 02 01 00 05 80 00 BB 00  4E 00 09 30 0F 01 2F 00  ........N..0../.
0080: 09 30 0F 01 92 01 09 30  0F 01 94 01 09 30 0F 01  .0.....0.....0..
0090: 59 05 09 30 0F 01 01 BA  09 30 0F 01 06 80 07 80  Y..0.....0......
00A0: 08 80 09 80 80 09 30 0F  01 5B 0A 80 09 30 0F 01  ......0..[...0..
00B0: 09 30 0F 01 73 69 74 6C  01 C8 00 BA 0B 30 0F 01  .0..sitl.....0..
00C0: 0B 80 0C 80 0D 80 09 80  1C 0E 80 45 0F 80 F0 FF  ...........E....
00D0: FF 7F F0 FF FF 7F 6A 31  30 31 05 80 1A 8E 18 79  ......j101.....y
00E0: 00 0E 30 0F 01 F0 FF FF  7F 79 00 F0 FF FF 7F 0D  ..0......y......
00F0: 30 0F 01 29 10 0D 30 0F  01 1F 03 09 10 10 80 2B  0..)..0........+
0100: 0D 30 0F 01 11 80 23 29  10 F0 FF FF 7F AB 1C 12  .0....#)........
0110: 80 52 0F 80 F0 FF FF 7F  F0 FF FF 7F 6A 31 30 31  .R..........j101
0120: 45 0F 80 F0 FF FF 7F F0  FF FF 7F 6A 31 30 32 05  E..........j102.
0130: 80 03 02 10 02 00 03 03  10 13 80 2B 0D 30 0F 01  ...........+.0..
0140: 14 80 23 2B 0D 30 0F 01  15 80 23 29 10 0D 30 0F  ..#+.0....#)..0.
0150: 01 20 4A 0D 30 0F 01 92  30 0F 01 6F 76 F8 FF FF  . J.0...0..ov...
0160: 7F 27 10 92 30 0F 01 03  1C 0E 80 52 0F 80 F0 FF  .'..0......R....
0170: FF 7F F0 FF FF 7F 6A 31  30 32 45 0F 80 F0 FF FF  ......j102E.....
0180: 7F F0 FF FF 7F 6A 31 30  33 05 80 1C 0E 80 27 10  .....j103.....'.
0190: 0E 30 0F 01 1C 29 10 0D  30 0F 01 21 27 10 92 30  .0...)..0..!'..0
01A0: 0F 01 04 1A AF 18 1C 16  80 BA 0D 30 0F 01 17 80  ...........0....
01B0: 18 80 19 80 09 80 48 1A  80 23 52 0F 80 F0 FF FF  ......H..#R.....
01C0: 7F F0 FF FF 7F 6A 31 30  33 45 0F 80 F0 FF FF 7F  .....j103E......
01D0: F0 FF FF 7F 6A 31 30 34  05 80 1A 8E 18 27 10 92  ....j104.....'..
01E0: 30 0F 01 03 27 10 0E 30  0F 01 1D 1C 1B 80 29 10  0...'..0......).
01F0: 0D 30 0F 01 20 6E 0D 30  0F 01 1C 80 99 0D 30 0F  .0.. n.0......0.
0200: 01 2B 0D 30 0F 01 1D 80  1C 12 80 23 7B 0D 30 0F  .+.0.......#{.0.
0210: 01 29 10 0D 30 0F 01 22  52 0F 80 F0 FF FF 7F F0  .)..0.."R.......
0220: FF FF 7F 6A 31 30 34 45  0F 80 F0 FF FF 7F F0 FF  ...j104E........
0230: FF 7F 6A 31 30 35 05 80  7B F0 FF FF 7F 27 10 F0  ..j105..{....'..
0240: FF FF 7F AE 1C 1E 80 1A  AF 18 1C 0E 80 7A 00 F0  .............z..
0250: FF FF 7F 1C 0E 80 BA F0  FF FF 7F 1F 80 20 80 03  ............. ..
0260: 80 21 80 29 10 F0 FF FF  7F A9 48 1A 80 23 52 0F  .!.)......H..#R.
0270: 80 F0 FF FF 7F F0 FF FF  7F 6A 31 30 35 45 0F 80  .........j105E..
0280: F0 FF FF 7F F0 FF FF 7F  6A 31 30 36 05 80 1A 8E  ........j106....
0290: 18 1C 22 80 52 0F 80 F0  FF FF 7F F0 FF FF 7F 6A  ..".R..........j
02A0: 31 30 36 02 01 00 05 80  00 82 03 45 0F 80 F0 FF  106........E....
02B0: FF 7F F0 FF FF 7F 6A 31  30 38 05 80 2B 09 30 0F  ......j108..+.0.
02C0: 01 23 80 23 2B 09 30 0F  01 24 80 23 52 0F 80 F0  .#.#+.0..$.#R...
02D0: FF FF 7F F0 FF FF 7F 6A  31 30 38 45 0F 80 F0 FF  .......j108E....
02E0: FF 7F F0 FF FF 7F 6A 31  30 37 05 80 5B 0A 80 09  ......j107..[...
02F0: 30 0F 01 09 30 0F 01 74  6C 6B 30 2B 09 30 0F 01  0...0..tlk0+.0..
0300: 25 80 23 2B 09 30 0F 01  26 80 23 52 0F 80 F0 FF  %.#+.0..&.#R....
0310: FF 7F F0 FF FF 7F 6A 31  30 37 45 0F 80 F0 FF FF  ......j107E.....
0320: 7F F0 FF FF 7F 6A 31 30  39 05 80 2B 09 30 0F 01  .....j109..+.0..
0330: 27 80 23 52 0F 80 F0 FF  FF 7F F0 FF FF 7F 6A 31  '.#R..........j1
0340: 30 39 45 0F 80 F0 FF FF  7F F0 FF FF 7F 6A 31 31  09E..........j11
0350: 30 05 80 5B 0A 80 09 30  0F 01 09 30 0F 01 74 6C  0..[...0...0..tl
0360: 6B 31 1C 0E 80 03 02 10  02 00 2B 09 30 0F 01 28  k1........+.0..(
0370: 80 23 53 09 30 0F 01 09  30 0F 01 74 6C 6B 31 01  .#S.0...0..tlk1.
0380: 2B 04 45 0F 80 F0 FF FF  7F F0 FF FF 7F 6A 31 32  +.E..........j12
0390: 30 05 80 2B 0B 30 0F 01  29 80 23 2B 0B 30 0F 01  0..+.0..).#+.0..
03A0: 2A 80 23 52 0F 80 F0 FF  FF 7F F0 FF FF 7F 6A 31  *.#R..........j1
03B0: 32 30 45 0F 80 F0 FF FF  7F F0 FF FF 7F 6A 31 32  20E..........j12
03C0: 31 05 80 2B 0B 30 0F 01  2B 80 23 2B 0B 30 0F 01  1..+.0..+.#+.0..
03D0: 2C 80 23 52 0F 80 F0 FF  FF 7F F0 FF FF 7F 6A 31  ,.#R..........j1
03E0: 32 31 45 0F 80 F0 FF FF  7F F0 FF FF 7F 6A 31 32  21E..........j12
03F0: 32 05 80 2B 0B 30 0F 01  2D 80 23 2B 0B 30 0F 01  2..+.0..-.#+.0..
0400: 2E 80 23 52 0F 80 F0 FF  FF 7F F0 FF FF 7F 6A 31  ..#R..........j1
0410: 32 32 45 0F 80 F0 FF FF  7F F0 FF FF 7F 6A 31 32  22E..........j12
0420: 33 05 80 2B 0B 30 0F 01  2F 80 23 52 0F 80 F0 FF  3..+.0../.#R....
0430: FF 7F F0 FF FF 7F 6A 31  31 30 52 0F 80 F0 FF FF  ......j110R.....
0440: 7F F0 FF FF 7F 6A 31 32  33 45 0F 80 F0 FF FF 7F  .....j123E......
0450: F0 FF FF 7F 6A 31 33 30  05 80 2B 0C 30 0F 01 30  ....j130..+.0..0
0460: 80 23 2B 0C 30 0F 01 31  80 23 52 0F 80 F0 FF FF  .#+.0..1.#R.....
0470: 7F F0 FF FF 7F 6A 31 33  30 45 0F 80 F0 FF FF 7F  .....j130E......
0480: F0 FF FF 7F 6A 31 33 31  05 80 2B 0C 30 0F 01 32  ....j131..+.0..2
0490: 80 23 45 0F 80 F0 FF FF  7F F0 FF FF 7F 6A 31 31  .#E..........j11
04A0: 32 05 80 29 10 F0 FF FF  7F AA 1C 22 80 1A AF 18  2..)......."....
04B0: 1C 0E 80 02 01 00 05 80  00 C7 04 29 10 09 30 0F  ...........)..0.
04C0: 01 17 80 09 30 0F 01 52  0F 80 F0 FF FF 7F F0 FF  ....0..R........
04D0: FF 7F 6A 31 31 32 45 0F  80 F0 FF FF 7F F0 FF FF  ..j112E.........
04E0: 7F 30 62 6C 66 05 80 1C  33 80 AB 11 05 80 1C 1C  .0blf...3.......
04F0: 80 46 00 45 34 80 F0 FF  FF 7F F0 FF FF 7F 66 64  .F.E4.........fd
0500: 69 32 05 80 21 00                                 i2..!.          
```

#### Opcodes

```
  0: 0x0001 [0x42] SET_CLI_EVENT_CANCEL_DATA()
  1: 0x0002 [0x03] ExtData[1]->WorkLocal[2] = Work_Zone[2]
  2: 0x0007 [0x03] ExtData[1]->WorkLocal[1] = Work_Zone[9]
  3: 0x000C [0x1A] CALL_SUBROUTINE(address=0x18AF)
  4: 0x000F [0x46] CAMERA_CONTROL: Disable user control
  5: 0x0011 [0x38] SET_CLIENT_EVENT_MODE(mode=19*)
  6: 0x0014 [0x92] Mawl'gofaur (ID: 17772555/0x010F300B)->Render.Flags3 ^= 0x01
  7: 0x001A [0x92] Kareh'ayollio (ID: 17772556/0x010F300C)->Render.Flags3 ^= 0x01
  8: 0x0020 [0x92] High Wind (ID: 17772557/0x010F300D)->Render.Flags3 ^= 0x01
  9: 0x0026 [0x92] Rainhard (ID: 17772558/0x010F300E)->Render.Flags3 ^= 0x01
 10: 0x002C [0x94] LocalPlayer->Render.Flags3 ^= 0x01
 11: 0x0032 [0x94] Mawl'gofaur (ID: 17772555/0x010F300B)->Render.Flags3 ^= 0x01
 12: 0x0038 [0x94] Kareh'ayollio (ID: 17772556/0x010F300C)->Render.Flags3 ^= 0x01
 13: 0x003E [0x94] High Wind (ID: 17772557/0x010F300D)->Render.Flags3 ^= 0x01
 14: 0x0044 [0x94] Rainhard (ID: 17772558/0x010F300E)->Render.Flags3 ^= 0x01
 15: 0x004A [0xBA] SET_ENTITY_POSITION(entity_id=LocalPlayer, pos_x=0.027*, pos_z=67.316*, pos_y=-4.999*, direction=267.6°*)
 16: 0x0057 [0x80] LOAD_WAIT(entity=LocalPlayer)
 17: 0x005C [0x80] LOAD_WAIT(entity=Mawl'gofaur (ID: 17772555/0x010F300B))
 18: 0x0061 [0x80] LOAD_WAIT(entity=Kareh'ayollio (ID: 17772556/0x010F300C))
 19: 0x0066 [0x80] LOAD_WAIT(entity=High Wind (ID: 17772557/0x010F300D))
 20: 0x006B [0x80] LOAD_WAIT(entity=Rainhard (ID: 17772558/0x010F300E))
 21: 0x0070 [0x02] IF !(ExtData[1]->WorkLocal[1] == 0*) GOTO 0x00BB
 22: 0x0078 [0x4E] SET_ENTITY_HIDE_FLAG: Show Kam'lanaut (ID: 17772553/0x010F3009)
 23: 0x007E [0x2F] Kam'lanaut (ID: 17772553/0x010F3009)->Render.Flags0 &= ~0x80000 // Bit 19
 24: 0x0084 [0x92] Kam'lanaut (ID: 17772553/0x010F3009)->Render.Flags3 ^= 0x01
 25: 0x008A [0x94] Kam'lanaut (ID: 17772553/0x010F3009)->Render.Flags3 ^= 0x01
 26: 0x0090 [0x59] UPDATE_ENTITY_DATA: Kam'lanaut (ID: 17772553/0x010F3009)->Render.Flags0 |= 0x200000
 27: 0x0097 [0xBA] SET_ENTITY_POSITION(entity_id=Kam'lanaut (ID: 17772553/0x010F3009), pos_x=0.050*, pos_z=95.100*, pos_y=-7.632*, direction=90.0°*)
 28: 0x00A4 [0x80] LOAD_WAIT(entity=Kam'lanaut (ID: 17772553/0x010F3009))
 29: 0x00A9 [0x5B] LOAD_EXT_SCHEDULER: Load scheduler "sitl" with entities [Kam'lanaut (ID: 17772553/0x010F3009), Kam'lanaut (ID: 17772553/0x010F3009)], work=105*
 30: 0x00B8 [0x01] GOTO 0x00C8
 31: 0x00BB [0xBA] SET_ENTITY_POSITION(entity_id=Mawl'gofaur (ID: 17772555/0x010F300B), pos_x=0.011*, pos_z=92.635*, pos_y=-6.996*, direction=90.0°*)

SUBROUTINE_00C8:
 32: 0x00C8 [0x1C] WAIT(30* ticks)
 33: 0x00CB [0x45] LOAD_SCHEDULED_TASK: Load scheduler "j101" with entities [LocalPlayer, LocalPlayer], work=[344*, 0*]
 34: 0x00DC [0x1A] CALL_SUBROUTINE(address=0x188E)
 35: 0x00DF [0x79] Rainhard (ID: 17772558/0x010F300E) looks at LocalPlayer (Basic look)
 36: 0x00E9 [0x79] LocalPlayer looks at High Wind (ID: 17772557/0x010F300D) (Basic look)
 37: 0x00F3 [0x29] REQ_SET_WAIT(priority=0x10, entity_id=High Wind (ID: 17772557/0x010F300D), tag_num=0x1F)
 38: 0x00FA [0x03] Work_Zone[9] = 56*
 39: 0x00FF [0x2B] High Wind (ID: 17772557/0x010F300D) [15009*]:
    → "Only those with $6 are allowed to pass. Be on your way."
 40: 0x0106 [0x23] WAIT_FOR_DIALOG_INTERACTION
 41: 0x0107 [0x29] REQ_SET_WAIT(priority=0x10, entity_id=LocalPlayer, tag_num=0xAB)
 42: 0x010E [0x1C] WAIT(150* ticks)
 43: 0x0111 [0x52] END_LOAD_SCHEDULER: End scheduler "j101" with entities [LocalPlayer, LocalPlayer], work=344*
 44: 0x0120 [0x45] LOAD_SCHEDULED_TASK: Load scheduler "j102" with entities [LocalPlayer, LocalPlayer], work=[344*, 0*]
 45: 0x0131 [0x03] Work_Zone[2] = ExtData[1]->WorkLocal[2]
 46: 0x0136 [0x03] Work_Zone[3] = 2048*
 47: 0x013B [0x2B] High Wind (ID: 17772557/0x010F300D) [15010*]:
    → "What's this? $6? Ah, you must be one of the [adventurers/Allied soldiers] participating in the Voidwatch operation. Pray forgive my oversight."
 48: 0x0142 [0x23] WAIT_FOR_DIALOG_INTERACTION
 49: 0x0143 [0x2B] High Wind (ID: 17772557/0x010F300D) [15011*]:
    → "If you could wait but one moment, I shall announce your arrival."
 50: 0x014A [0x23] WAIT_FOR_DIALOG_INTERACTION
 51: 0x014B [0x29] REQ_SET_WAIT(priority=0x10, entity_id=High Wind (ID: 17772557/0x010F300D), tag_num=0x20)
 52: 0x0152 [0x4A] High Wind (ID: 17772557/0x010F300D) looks at Door:Audience Chamber (ID: 17772690/0x010F3092)
 53: 0x015B [0x6F] WAIT_FRAME_DELAY: Yield until WaitTime reaches zero
 54: 0x015C [0x76] CHECK_ENTITY_RENDER_FLAGS: Wait until EventEntity Render.Flags0 and Render.Flags3 conditions are met
 55: 0x0161 [0x27] REQ_SET(priority=0x10, entity_id=Door:Audience Chamber (ID: 17772690/0x010F3092), tag_num=0x03)
 56: 0x0168 [0x1C] WAIT(30* ticks)
 57: 0x016B [0x52] END_LOAD_SCHEDULER: End scheduler "j102" with entities [LocalPlayer, LocalPlayer], work=344*
 58: 0x017A [0x45] LOAD_SCHEDULED_TASK: Load scheduler "j103" with entities [LocalPlayer, LocalPlayer], work=[344*, 0*]
 59: 0x018B [0x1C] WAIT(30* ticks)
 60: 0x018E [0x27] REQ_SET(priority=0x10, entity_id=Rainhard (ID: 17772558/0x010F300E), tag_num=0x1C)
 61: 0x0195 [0x29] REQ_SET_WAIT(priority=0x10, entity_id=High Wind (ID: 17772557/0x010F300D), tag_num=0x21)
 62: 0x019C [0x27] REQ_SET(priority=0x10, entity_id=Door:Audience Chamber (ID: 17772690/0x010F3092), tag_num=0x04)
 63: 0x01A3 [0x1A] CALL_SUBROUTINE(address=0x18AF)
 64: 0x01A6 [0x1C] WAIT(60* ticks)
 65: 0x01A9 [0xBA] SET_ENTITY_POSITION(entity_id=High Wind (ID: 17772557/0x010F300D), pos_x=-0.004*, pos_z=74.090*, pos_y=-5.000*, direction=90.0°*)
 66: 0x01B6 [0x48] [System] [14054*]:
    → "@@"
 67: 0x01B9 [0x23] WAIT_FOR_DIALOG_INTERACTION
 68: 0x01BA [0x52] END_LOAD_SCHEDULER: End scheduler "j103" with entities [LocalPlayer, LocalPlayer], work=344*
 69: 0x01C9 [0x45] LOAD_SCHEDULED_TASK: Load scheduler "j104" with entities [LocalPlayer, LocalPlayer], work=[344*, 0*]
 70: 0x01DA [0x1A] CALL_SUBROUTINE(address=0x188E)
 71: 0x01DD [0x27] REQ_SET(priority=0x10, entity_id=Door:Audience Chamber (ID: 17772690/0x010F3092), tag_num=0x03)
 72: 0x01E4 [0x27] REQ_SET(priority=0x10, entity_id=Rainhard (ID: 17772558/0x010F300E), tag_num=0x1D)
 73: 0x01EB [0x1C] WAIT(90* ticks)
 74: 0x01EE [0x29] REQ_SET_WAIT(priority=0x10, entity_id=High Wind (ID: 17772557/0x010F300D), tag_num=0x20)
 75: 0x01F5 [0x6E] High Wind (ID: 17772557/0x010F300D) uses emote 1*
 76: 0x01FC [0x99] Wait for High Wind (ID: 17772557/0x010F300D) animation to complete
 77: 0x0201 [0x2B] High Wind (ID: 17772557/0x010F300D) [15012*]:
    → "My apologies for the delay. You may proceed within."
 78: 0x0208 [0x1C] WAIT(150* ticks)
 79: 0x020B [0x23] WAIT_FOR_DIALOG_INTERACTION
 80: 0x020C [0x7B] High Wind (ID: 17772557/0x010F300D) stops talking
 81: 0x0211 [0x29] REQ_SET_WAIT(priority=0x10, entity_id=High Wind (ID: 17772557/0x010F300D), tag_num=0x22)
 82: 0x0218 [0x52] END_LOAD_SCHEDULER: End scheduler "j104" with entities [LocalPlayer, LocalPlayer], work=344*
 83: 0x0227 [0x45] LOAD_SCHEDULED_TASK: Load scheduler "j105" with entities [LocalPlayer, LocalPlayer], work=[344*, 0*]
 84: 0x0238 [0x7B] LocalPlayer stops talking
 85: 0x023D [0x27] REQ_SET(priority=0x10, entity_id=LocalPlayer, tag_num=0xAE)
 86: 0x0244 [0x1C] WAIT(270* ticks)
 87: 0x0247 [0x1A] CALL_SUBROUTINE(address=0x18AF)
 88: 0x024A [0x1C] WAIT(30* ticks)
 89: 0x024D [0x7A] VM_CONTROL: Reset VM for LocalPlayer
 90: 0x0253 [0x1C] WAIT(30* ticks)
 91: 0x0256 [0xBA] SET_ENTITY_POSITION(entity_id=LocalPlayer, pos_x=0.028*, pos_z=84.763*, pos_y=-4.999*, direction=270.0°*)
 92: 0x0263 [0x29] REQ_SET_WAIT(priority=0x10, entity_id=LocalPlayer, tag_num=0xA9)
 93: 0x026A [0x48] [System] [14054*]:
    → "@@"
 94: 0x026D [0x23] WAIT_FOR_DIALOG_INTERACTION
 95: 0x026E [0x52] END_LOAD_SCHEDULER: End scheduler "j105" with entities [LocalPlayer, LocalPlayer], work=344*
 96: 0x027D [0x45] LOAD_SCHEDULED_TASK: Load scheduler "j106" with entities [LocalPlayer, LocalPlayer], work=[344*, 0*]
 97: 0x028E [0x1A] CALL_SUBROUTINE(address=0x188E)
 98: 0x0291 [0x1C] WAIT(120* ticks)
 99: 0x0294 [0x52] END_LOAD_SCHEDULER: End scheduler "j106" with entities [LocalPlayer, LocalPlayer], work=344*
100: 0x02A3 [0x02] IF !(ExtData[1]->WorkLocal[1] == 0*) GOTO 0x0382
101: 0x02AB [0x45] LOAD_SCHEDULED_TASK: Load scheduler "j108" with entities [LocalPlayer, LocalPlayer], work=[344*, 0*]
102: 0x02BC [0x2B] Kam'lanaut (ID: 17772553/0x010F3009) [15013*]:
    → "Ah, you've come. I've heard much of your exploits. We are fortunate indeed to have you on our side."
103: 0x02C3 [0x23] WAIT_FOR_DIALOG_INTERACTION
104: 0x02C4 [0x2B] Kam'lanaut (ID: 17772553/0x010F3009) [15014*]:
    → "No doubt you're wondering why I've summoned you here today."
105: 0x02CB [0x23] WAIT_FOR_DIALOG_INTERACTION
106: 0x02CC [0x52] END_LOAD_SCHEDULER: End scheduler "j108" with entities [LocalPlayer, LocalPlayer], work=344*
107: 0x02DB [0x45] LOAD_SCHEDULED_TASK: Load scheduler "j107" with entities [LocalPlayer, LocalPlayer], work=[344*, 0*]
108: 0x02EC [0x5B] LOAD_EXT_SCHEDULER: Load scheduler "tlk0" with entities [Kam'lanaut (ID: 17772553/0x010F3009), Kam'lanaut (ID: 17772553/0x010F3009)], work=105*
109: 0x02FB [0x2B] Kam'lanaut (ID: 17772553/0x010F3009) [15015*]:
    → "Time is of the essence, so I'll get straight to the heart of the matter. We are engaged in an operation of the utmost importance, and I thought you'd be just the [man/woman] for the task."
110: 0x0302 [0x23] WAIT_FOR_DIALOG_INTERACTION
111: 0x0303 [0x2B] Kam'lanaut (ID: 17772553/0x010F3009) [15016*]:
    → "As you may have already noticed, the Voidwalker threat grows more menacing by the day. In particular, the fiends we have encountered here in the vicinity of the Duchy are possessed of powers that dwarf their already-formidable brethren."
112: 0x030A [0x23] WAIT_FOR_DIALOG_INTERACTION
113: 0x030B [0x52] END_LOAD_SCHEDULER: End scheduler "j107" with entities [LocalPlayer, LocalPlayer], work=344*
114: 0x031A [0x45] LOAD_SCHEDULED_TASK: Load scheduler "j109" with entities [LocalPlayer, LocalPlayer], work=[344*, 0*]
115: 0x032B [0x2B] Kam'lanaut (ID: 17772553/0x010F3009) [15017*]:
    → "I hereby authorize you for participation in Voidwatch operations in the Jeuno region. Serve us well, and you will be duly compensated for your efforts."
116: 0x0332 [0x23] WAIT_FOR_DIALOG_INTERACTION
117: 0x0333 [0x52] END_LOAD_SCHEDULER: End scheduler "j109" with entities [LocalPlayer, LocalPlayer], work=344*
118: 0x0342 [0x45] LOAD_SCHEDULED_TASK: Load scheduler "j110" with entities [LocalPlayer, LocalPlayer], work=[344*, 0*]
119: 0x0353 [0x5B] LOAD_EXT_SCHEDULER: Load scheduler "tlk1" with entities [Kam'lanaut (ID: 17772553/0x010F3009), Kam'lanaut (ID: 17772553/0x010F3009)], work=105*
120: 0x0362 [0x1C] WAIT(30* ticks)
121: 0x0365 [0x03] Work_Zone[2] = ExtData[1]->WorkLocal[2]
122: 0x036A [0x2B] Kam'lanaut (ID: 17772553/0x010F3009) [15018*]:
    → "You are not the only [adventurer/Allied soldier] I have recruited for this operation. Should you chance upon any others, you may join up with them if you so choose. The Duchy--no, the entire realm--is counting on you, <Player>. Do not let us down."
123: 0x0371 [0x23] WAIT_FOR_DIALOG_INTERACTION
124: 0x0372 [0x53] WAIT_SCHEDULER_TASK: Wait for scheduler "tlk1" with entities [Kam'lanaut (ID: 17772553/0x010F3009), Kam'lanaut (ID: 17772553/0x010F3009)]
125: 0x037F [0x01] GOTO 0x042B
126: 0x0382 [0x45] LOAD_SCHEDULED_TASK: Load scheduler "j120" with entities [LocalPlayer, LocalPlayer], work=[344*, 0*]
127: 0x0393 [0x2B] Mawl'gofaur (ID: 17772555/0x010F300B) [15019*]:
    → "So you have finally come. I am Mawl'gofaur, aide to the Archduke and overseer of the Voidwatch operation in His Excellency's absence."
128: 0x039A [0x23] WAIT_FOR_DIALOG_INTERACTION
129: 0x039B [0x2B] Mawl'gofaur (ID: 17772555/0x010F300B) [15020*]:
    → "I hear you have proven yourself capable on the field. The Grand Duchy has need of your services."
130: 0x03A2 [0x23] WAIT_FOR_DIALOG_INTERACTION
131: 0x03A3 [0x52] END_LOAD_SCHEDULER: End scheduler "j120" with entities [LocalPlayer, LocalPlayer], work=344*
132: 0x03B2 [0x45] LOAD_SCHEDULED_TASK: Load scheduler "j121" with entities [LocalPlayer, LocalPlayer], work=[344*, 0*]
133: 0x03C3 [0x2B] Mawl'gofaur (ID: 17772555/0x010F300B) [15021*]:
    → "The Voidwalker threat grows ever more grave by the day. The fiends that have been sighted in the immediate vicinity of Jeuno, in particular, possess powers unlike anything we've seen before."
134: 0x03CA [0x23] WAIT_FOR_DIALOG_INTERACTION
135: 0x03CB [0x2B] Mawl'gofaur (ID: 17772555/0x010F300B) [15022*]:
    → "Were the Duchy to fall to this extradimensional menace, it would spell disaster for the realm. This should be evident to even a grunt such as yourself."
136: 0x03D2 [0x23] WAIT_FOR_DIALOG_INTERACTION
137: 0x03D3 [0x52] END_LOAD_SCHEDULER: End scheduler "j121" with entities [LocalPlayer, LocalPlayer], work=344*
138: 0x03E2 [0x45] LOAD_SCHEDULED_TASK: Load scheduler "j122" with entities [LocalPlayer, LocalPlayer], work=[344*, 0*]
139: 0x03F3 [0x2B] Mawl'gofaur (ID: 17772555/0x010F300B) [15023*]:
    → "In the name of His Excellency Kam'lanaut, Archduke of Jeuno, I hereby authorize you for participation in all Voidwatch operations conducted under the Duchy's jurisdiction."
140: 0x03FA [0x23] WAIT_FOR_DIALOG_INTERACTION
141: 0x03FB [0x2B] Mawl'gofaur (ID: 17772555/0x010F300B) [15024*]:
    → "Mind you, you are not the only one to whom I have bestowed this clearance. Should you chance upon any of the others, you may band together against the fiends. Or do not. It matters little to me so long as you succeed in your efforts."
142: 0x0402 [0x23] WAIT_FOR_DIALOG_INTERACTION
143: 0x0403 [0x52] END_LOAD_SCHEDULER: End scheduler "j122" with entities [LocalPlayer, LocalPlayer], work=344*
144: 0x0412 [0x45] LOAD_SCHEDULED_TASK: Load scheduler "j123" with entities [LocalPlayer, LocalPlayer], work=[344*, 0*]
145: 0x0423 [0x2B] Mawl'gofaur (ID: 17772555/0x010F300B) [15025*]:
    → "We lack for capable soldiers, so do try to stay alive. Now be off with you. More pressing matters require my attention."
146: 0x042A [0x23] WAIT_FOR_DIALOG_INTERACTION

SUBROUTINE_042B:
147: 0x042B [0x52] END_LOAD_SCHEDULER: End scheduler "j110" with entities [LocalPlayer, LocalPlayer], work=344*
148: 0x043A [0x52] END_LOAD_SCHEDULER: End scheduler "j123" with entities [LocalPlayer, LocalPlayer], work=344*
149: 0x0449 [0x45] LOAD_SCHEDULED_TASK: Load scheduler "j130" with entities [LocalPlayer, LocalPlayer], work=[344*, 0*]
150: 0x045A [0x2B] Kareh'ayollio (ID: 17772556/0x010F300C) [15026*]:
    → "The assignment of individual objectives will be handled by our officers stationed throughout the greater Jeuno region. Report to one posthaste to receive your orders."
151: 0x0461 [0x23] WAIT_FOR_DIALOG_INTERACTION
152: 0x0462 [0x2B] Kareh'ayollio (ID: 17772556/0x010F300C) [15027*]:
    → "Do not forget to report back to an officer upon completing an objective, lest your accomplishments go overlooked."
153: 0x0469 [0x23] WAIT_FOR_DIALOG_INTERACTION
154: 0x046A [0x52] END_LOAD_SCHEDULER: End scheduler "j130" with entities [LocalPlayer, LocalPlayer], work=344*
155: 0x0479 [0x45] LOAD_SCHEDULED_TASK: Load scheduler "j131" with entities [LocalPlayer, LocalPlayer], work=[344*, 0*]
156: 0x048A [0x2B] Kareh'ayollio (ID: 17772556/0x010F300C) [15028*]:
    → "...That is all. You are dismissed."
157: 0x0491 [0x23] WAIT_FOR_DIALOG_INTERACTION
158: 0x0492 [0x45] LOAD_SCHEDULED_TASK: Load scheduler "j112" with entities [LocalPlayer, LocalPlayer], work=[344*, 0*]
159: 0x04A3 [0x29] REQ_SET_WAIT(priority=0x10, entity_id=LocalPlayer, tag_num=0xAA)
160: 0x04AA [0x1C] WAIT(120* ticks)
161: 0x04AD [0x1A] CALL_SUBROUTINE(address=0x18AF)
162: 0x04B0 [0x1C] WAIT(30* ticks)
163: 0x04B3 [0x02] IF !(ExtData[1]->WorkLocal[1] == 0*) GOTO 0x04C7
164: 0x04BB [0x29] REQ_SET_WAIT(priority=0x10, entity_id=Kam'lanaut (ID: 17772553/0x010F3009), tag_num=0x17)
165: 0x04C2 [0x80] LOAD_WAIT(entity=Kam'lanaut (ID: 17772553/0x010F3009))
166: 0x04C7 [0x52] END_LOAD_SCHEDULER: End scheduler "j112" with entities [LocalPlayer, LocalPlayer], work=344*
167: 0x04D6 [0x45] LOAD_SCHEDULED_TASK: Load scheduler "0blf" with entities [LocalPlayer, LocalPlayer], work=[344*, 0*]
168: 0x04E7 [0x1C] WAIT(15* ticks)
169: 0x04EA [0xAB] EventEntity->DespawnValue = 0* // Set despawn value
170: 0x04EE [0x1C] WAIT(1* ticks)
171: 0x04F1 [0x46] CAMERA_CONTROL: Restore default settings
172: 0x04F3 [0x45] LOAD_SCHEDULED_TASK: Load scheduler "fdi2" with entities [LocalPlayer, LocalPlayer], work=[200*, 0*]
173: 0x0504 [0x21] END_EVENT
174: 0x0505 [0x00] END_REQSTACK()
```

### Event 10189

#### Metadata

| Field        | Value     |
|--------------|-----------|
| Entrypoint   | 0x0506    |
| Data Size    | 785 bytes |
| Instructions | 104       |

```
      00 01 02 03 04 05 06 07  08 09 0A 0B 0C 0D 0E 0F
      -- -- -- -- -- -- -- --  -- -- -- -- -- -- -- --
0500:                   42 03  01 00 09 10 1A AF 18 46        B........F
0510: 01 38 00 80 92 01 0B 30  0F 01 92 01 0C 30 0F 01  .8.....0.....0..
0520: 92 01 0D 30 0F 01 92 01  0E 30 0F 01 94 01 F0 FF  ...0.....0......
0530: FF 7F 94 01 0B 30 0F 01  94 01 0C 30 0F 01 94 01  .....0.....0....
0540: 0D 30 0F 01 94 01 0E 30  0F 01 BA F0 FF FF 7F 1F  .0.....0........
0550: 80 20 80 03 80 21 80 80  F0 FF FF 7F 80 0B 30 0F  . ...!........0.
0560: 01 80 0C 30 0F 01 80 0D  30 0F 01 80 0E 30 0F 01  ...0....0....0..
0570: 02 01 00 05 80 00 BB 05  4E 00 09 30 0F 01 2F 00  ........N..0../.
0580: 09 30 0F 01 92 01 09 30  0F 01 94 01 09 30 0F 01  .0.....0.....0..
0590: 59 05 09 30 0F 01 01 BA  09 30 0F 01 06 80 07 80  Y..0.....0......
05A0: 08 80 09 80 80 09 30 0F  01 5B 0A 80 09 30 0F 01  ......0..[...0..
05B0: 09 30 0F 01 73 69 74 6C  01 C8 05 BA 0B 30 0F 01  .0..sitl.....0..
05C0: 0B 80 0C 80 0D 80 09 80  29 10 F0 FF FF 7F A9 1C  ........).......
05D0: 0E 80 45 0F 80 F0 FF FF  7F F0 FF FF 7F 6A 32 30  ..E..........j20
05E0: 31 05 80 1A 8E 18 1C 22  80 02 01 00 05 80 00 9D  1......"........
05F0: 06 52 0F 80 F0 FF FF 7F  F0 FF FF 7F 6A 32 30 31  .R..........j201
0600: 45 0F 80 F0 FF FF 7F F0  FF FF 7F 6A 32 30 32 05  E..........j202.
0610: 80 2B 09 30 0F 01 35 80  23 5B 0A 80 09 30 0F 01  .+.0..5.#[...0..
0620: 09 30 0F 01 74 6C 6B 30  1C 0E 80 2B 09 30 0F 01  .0..tlk0...+.0..
0630: 36 80 23 52 0F 80 F0 FF  FF 7F F0 FF FF 7F 6A 32  6.#R..........j2
0640: 30 32 45 0F 80 F0 FF FF  7F F0 FF FF 7F 6A 32 30  02E..........j20
0650: 33 05 80 2B 09 30 0F 01  37 80 23 5B 0A 80 09 30  3..+.0..7.#[...0
0660: 0F 01 09 30 0F 01 74 6C  6B 31 2B 09 30 0F 01 38  ...0..tlk1+.0..8
0670: 80 23 52 0F 80 F0 FF FF  7F F0 FF FF 7F 6A 32 30  .#R..........j20
0680: 33 45 0F 80 F0 FF FF 7F  F0 FF FF 7F 6A 32 30 34  3E..........j204
0690: 05 80 2B 09 30 0F 01 39  80 23 01 25 07 2B 0B 30  ..+.0..9.#.%.+.0
06A0: 0F 01 29 80 23 52 0F 80  F0 FF FF 7F F0 FF FF 7F  ..).#R..........
06B0: 6A 32 30 31 45 0F 80 F0  FF FF 7F F0 FF FF 7F 6A  j201E..........j
06C0: 32 31 30 05 80 2B 0B 30  0F 01 3A 80 23 2B 0B 30  210..+.0..:.#+.0
06D0: 0F 01 3B 80 23 52 0F 80  F0 FF FF 7F F0 FF FF 7F  ..;.#R..........
06E0: 6A 32 31 30 45 0F 80 F0  FF FF 7F F0 FF FF 7F 6A  j210E..........j
06F0: 32 31 31 05 80 2B 0B 30  0F 01 3C 80 23 52 0F 80  211..+.0..<.#R..
0700: F0 FF FF 7F F0 FF FF 7F  6A 32 31 31 45 0F 80 F0  ........j211E...
0710: FF FF 7F F0 FF FF 7F 6A  32 31 32 05 80 2B 0B 30  .......j212..+.0
0720: 0F 01 3D 80 23 52 0F 80  F0 FF FF 7F F0 FF FF 7F  ..=.#R..........
0730: 6A 32 30 34 52 0F 80 F0  FF FF 7F F0 FF FF 7F 6A  j204R..........j
0740: 32 31 32 45 0F 80 F0 FF  FF 7F F0 FF FF 7F 6A 32  212E..........j2
0750: 32 30 05 80 2B 0C 30 0F  01 3E 80 23 52 0F 80 F0  20..+.0..>.#R...
0760: FF FF 7F F0 FF FF 7F 6A  32 32 30 45 0F 80 F0 FF  .......j220E....
0770: FF 7F F0 FF FF 7F 6A 32  32 31 05 80 2B 0C 30 0F  ......j221..+.0.
0780: 01 30 80 23 2B 0C 30 0F  01 31 80 23 52 0F 80 F0  .0.#+.0..1.#R...
0790: FF FF 7F F0 FF FF 7F 6A  32 32 31 45 0F 80 F0 FF  .......j221E....
07A0: FF 7F F0 FF FF 7F 6A 32  32 32 05 80 2B 0C 30 0F  ......j222..+.0.
07B0: 01 32 80 23 29 10 F0 FF  FF 7F AA 1C 16 80 1A AF  .2.#)...........
07C0: 18 1C 0E 80 02 01 00 05  80 00 D8 07 29 10 09 30  ............)..0
07D0: 0F 01 17 80 09 30 0F 01  52 0F 80 F0 FF FF 7F F0  .....0..R.......
07E0: FF FF 7F 6A 32 32 32 45  0F 80 F0 FF FF 7F F0 FF  ...j222E........
07F0: FF 7F 30 62 6C 66 05 80  1C 33 80 AB 11 05 80 1C  ..0blf...3......
0800: 1C 80 46 00 45 34 80 F0  FF FF 7F F0 FF FF 7F 66  ..F.E4.........f
0810: 64 69 32 05 80 21 00                              di2..!.         
```

#### Opcodes

```
  0: 0x0506 [0x42] SET_CLI_EVENT_CANCEL_DATA()
  1: 0x0507 [0x03] ExtData[1]->WorkLocal[1] = Work_Zone[9]
  2: 0x050C [0x1A] CALL_SUBROUTINE(address=0x18AF)
  3: 0x050F [0x46] CAMERA_CONTROL: Disable user control
  4: 0x0511 [0x38] SET_CLIENT_EVENT_MODE(mode=19*)
  5: 0x0514 [0x92] Mawl'gofaur (ID: 17772555/0x010F300B)->Render.Flags3 ^= 0x01
  6: 0x051A [0x92] Kareh'ayollio (ID: 17772556/0x010F300C)->Render.Flags3 ^= 0x01
  7: 0x0520 [0x92] High Wind (ID: 17772557/0x010F300D)->Render.Flags3 ^= 0x01
  8: 0x0526 [0x92] Rainhard (ID: 17772558/0x010F300E)->Render.Flags3 ^= 0x01
  9: 0x052C [0x94] LocalPlayer->Render.Flags3 ^= 0x01
 10: 0x0532 [0x94] Mawl'gofaur (ID: 17772555/0x010F300B)->Render.Flags3 ^= 0x01
 11: 0x0538 [0x94] Kareh'ayollio (ID: 17772556/0x010F300C)->Render.Flags3 ^= 0x01
 12: 0x053E [0x94] High Wind (ID: 17772557/0x010F300D)->Render.Flags3 ^= 0x01
 13: 0x0544 [0x94] Rainhard (ID: 17772558/0x010F300E)->Render.Flags3 ^= 0x01
 14: 0x054A [0xBA] SET_ENTITY_POSITION(entity_id=LocalPlayer, pos_x=0.028*, pos_z=84.763*, pos_y=-4.999*, direction=270.0°*)
 15: 0x0557 [0x80] LOAD_WAIT(entity=LocalPlayer)
 16: 0x055C [0x80] LOAD_WAIT(entity=Mawl'gofaur (ID: 17772555/0x010F300B))
 17: 0x0561 [0x80] LOAD_WAIT(entity=Kareh'ayollio (ID: 17772556/0x010F300C))
 18: 0x0566 [0x80] LOAD_WAIT(entity=High Wind (ID: 17772557/0x010F300D))
 19: 0x056B [0x80] LOAD_WAIT(entity=Rainhard (ID: 17772558/0x010F300E))
 20: 0x0570 [0x02] IF !(ExtData[1]->WorkLocal[1] == 0*) GOTO 0x05BB
 21: 0x0578 [0x4E] SET_ENTITY_HIDE_FLAG: Show Kam'lanaut (ID: 17772553/0x010F3009)
 22: 0x057E [0x2F] Kam'lanaut (ID: 17772553/0x010F3009)->Render.Flags0 &= ~0x80000 // Bit 19
 23: 0x0584 [0x92] Kam'lanaut (ID: 17772553/0x010F3009)->Render.Flags3 ^= 0x01
 24: 0x058A [0x94] Kam'lanaut (ID: 17772553/0x010F3009)->Render.Flags3 ^= 0x01
 25: 0x0590 [0x59] UPDATE_ENTITY_DATA: Kam'lanaut (ID: 17772553/0x010F3009)->Render.Flags0 |= 0x200000
 26: 0x0597 [0xBA] SET_ENTITY_POSITION(entity_id=Kam'lanaut (ID: 17772553/0x010F3009), pos_x=0.050*, pos_z=95.100*, pos_y=-7.632*, direction=90.0°*)
 27: 0x05A4 [0x80] LOAD_WAIT(entity=Kam'lanaut (ID: 17772553/0x010F3009))
 28: 0x05A9 [0x5B] LOAD_EXT_SCHEDULER: Load scheduler "sitl" with entities [Kam'lanaut (ID: 17772553/0x010F3009), Kam'lanaut (ID: 17772553/0x010F3009)], work=105*
 29: 0x05B8 [0x01] GOTO 0x05C8
 30: 0x05BB [0xBA] SET_ENTITY_POSITION(entity_id=Mawl'gofaur (ID: 17772555/0x010F300B), pos_x=0.011*, pos_z=92.635*, pos_y=-6.996*, direction=90.0°*)

SUBROUTINE_05C8:
 31: 0x05C8 [0x29] REQ_SET_WAIT(priority=0x10, entity_id=LocalPlayer, tag_num=0xA9)
 32: 0x05CF [0x1C] WAIT(30* ticks)
 33: 0x05D2 [0x45] LOAD_SCHEDULED_TASK: Load scheduler "j201" with entities [LocalPlayer, LocalPlayer], work=[344*, 0*]
 34: 0x05E3 [0x1A] CALL_SUBROUTINE(address=0x188E)
 35: 0x05E6 [0x1C] WAIT(120* ticks)
 36: 0x05E9 [0x02] IF !(ExtData[1]->WorkLocal[1] == 0*) GOTO 0x069D
 37: 0x05F1 [0x52] END_LOAD_SCHEDULER: End scheduler "j201" with entities [LocalPlayer, LocalPlayer], work=344*
 38: 0x0600 [0x45] LOAD_SCHEDULED_TASK: Load scheduler "j202" with entities [LocalPlayer, LocalPlayer], work=[344*, 0*]
 39: 0x0611 [0x2B] Kam'lanaut (ID: 17772553/0x010F3009) [15030*]:
    → "Ah, you've returned! Your exploits in the Jeuno operation have been remarkable to observe. On behalf of the entire Grand Duchy, I commend you."
 40: 0x0618 [0x23] WAIT_FOR_DIALOG_INTERACTION
 41: 0x0619 [0x5B] LOAD_EXT_SCHEDULER: Load scheduler "tlk0" with entities [Kam'lanaut (ID: 17772553/0x010F3009), Kam'lanaut (ID: 17772553/0x010F3009)], work=105*
 42: 0x0628 [0x1C] WAIT(30* ticks)
 43: 0x062B [0x2B] Kam'lanaut (ID: 17772553/0x010F3009) [15031*]:
    → "...Very well. The next step is clear. I hereby authorize you to participate in our Qufim operation."
 44: 0x0632 [0x23] WAIT_FOR_DIALOG_INTERACTION
 45: 0x0633 [0x52] END_LOAD_SCHEDULER: End scheduler "j202" with entities [LocalPlayer, LocalPlayer], work=344*
 46: 0x0642 [0x45] LOAD_SCHEDULED_TASK: Load scheduler "j203" with entities [LocalPlayer, LocalPlayer], work=[344*, 0*]
 47: 0x0653 [0x2B] Kam'lanaut (ID: 17772553/0x010F3009) [15032*]:
    → "Again, I must warn you. The enemy you face in Qufim will be unlike anything you've faced thus far."
 48: 0x065A [0x23] WAIT_FOR_DIALOG_INTERACTION
 49: 0x065B [0x5B] LOAD_EXT_SCHEDULER: Load scheduler "tlk1" with entities [Kam'lanaut (ID: 17772553/0x010F3009), Kam'lanaut (ID: 17772553/0x010F3009)], work=105*
 50: 0x066A [0x2B] Kam'lanaut (ID: 17772553/0x010F3009) [15033*]:
    → "The Voidwalker menace grows more dire with each passing hour. Where do these beasts come from, and what brings them to our world? Sometimes it seems as if the tireless efforts of our researchers yield more questions than answers."
 51: 0x0671 [0x23] WAIT_FOR_DIALOG_INTERACTION
 52: 0x0672 [0x52] END_LOAD_SCHEDULER: End scheduler "j203" with entities [LocalPlayer, LocalPlayer], work=344*
 53: 0x0681 [0x45] LOAD_SCHEDULED_TASK: Load scheduler "j204" with entities [LocalPlayer, LocalPlayer], work=[344*, 0*]
 54: 0x0692 [0x2B] Kam'lanaut (ID: 17772553/0x010F3009) [15034*]:
    → "And yet we can do nothing but continue the fight. I'm counting on you, <Player>."
 55: 0x0699 [0x23] WAIT_FOR_DIALOG_INTERACTION
 56: 0x069A [0x01] GOTO 0x0725
 57: 0x069D [0x2B] Mawl'gofaur (ID: 17772555/0x010F300B) [15019*]:
    → "So you have finally come. I am Mawl'gofaur, aide to the Archduke and overseer of the Voidwatch operation in His Excellency's absence."
 58: 0x06A4 [0x23] WAIT_FOR_DIALOG_INTERACTION
 59: 0x06A5 [0x52] END_LOAD_SCHEDULER: End scheduler "j201" with entities [LocalPlayer, LocalPlayer], work=344*
 60: 0x06B4 [0x45] LOAD_SCHEDULED_TASK: Load scheduler "j210" with entities [LocalPlayer, LocalPlayer], work=[344*, 0*]
 61: 0x06C5 [0x2B] Mawl'gofaur (ID: 17772555/0x010F300B) [15035*]:
    → "On behalf of the Grand Duchy, I commend your efforts in the Jeuno Voidwatch operation. Yet the battle is far from won."
 62: 0x06CC [0x23] WAIT_FOR_DIALOG_INTERACTION
 63: 0x06CD [0x2B] Mawl'gofaur (ID: 17772555/0x010F300B) [15036*]:
    → "I hereby issue you your next assignment. You are to travel to the Qufim region and assist in our operation there."
 64: 0x06D4 [0x23] WAIT_FOR_DIALOG_INTERACTION
 65: 0x06D5 [0x52] END_LOAD_SCHEDULER: End scheduler "j210" with entities [LocalPlayer, LocalPlayer], work=344*
 66: 0x06E4 [0x45] LOAD_SCHEDULED_TASK: Load scheduler "j211" with entities [LocalPlayer, LocalPlayer], work=[344*, 0*]
 67: 0x06F5 [0x2B] Mawl'gofaur (ID: 17772555/0x010F300B) [15037*]:
    → "The Voidwalker menace is at its most fierce in Qufim. We have already lost our share of capable men."
 68: 0x06FC [0x23] WAIT_FOR_DIALOG_INTERACTION
 69: 0x06FD [0x52] END_LOAD_SCHEDULER: End scheduler "j211" with entities [LocalPlayer, LocalPlayer], work=344*
 70: 0x070C [0x45] LOAD_SCHEDULED_TASK: Load scheduler "j212" with entities [LocalPlayer, LocalPlayer], work=[344*, 0*]
 71: 0x071D [0x2B] Mawl'gofaur (ID: 17772555/0x010F300B) [15038*]:
    → "Do your best not to join them. Now be along on your way."
 72: 0x0724 [0x23] WAIT_FOR_DIALOG_INTERACTION

SUBROUTINE_0725:
 73: 0x0725 [0x52] END_LOAD_SCHEDULER: End scheduler "j204" with entities [LocalPlayer, LocalPlayer], work=344*
 74: 0x0734 [0x52] END_LOAD_SCHEDULER: End scheduler "j212" with entities [LocalPlayer, LocalPlayer], work=344*
 75: 0x0743 [0x45] LOAD_SCHEDULED_TASK: Load scheduler "j220" with entities [LocalPlayer, LocalPlayer], work=[344*, 0*]
 76: 0x0754 [0x2B] Kareh'ayollio (ID: 17772556/0x010F300C) [15029*]:
    → "I remind you again..."
 77: 0x075B [0x23] WAIT_FOR_DIALOG_INTERACTION
 78: 0x075C [0x52] END_LOAD_SCHEDULER: End scheduler "j220" with entities [LocalPlayer, LocalPlayer], work=344*
 79: 0x076B [0x45] LOAD_SCHEDULED_TASK: Load scheduler "j221" with entities [LocalPlayer, LocalPlayer], work=[344*, 0*]
 80: 0x077C [0x2B] Kareh'ayollio (ID: 17772556/0x010F300C) [15026*]:
    → "The assignment of individual objectives will be handled by our officers stationed throughout the greater Jeuno region. Report to one posthaste to receive your orders."
 81: 0x0783 [0x23] WAIT_FOR_DIALOG_INTERACTION
 82: 0x0784 [0x2B] Kareh'ayollio (ID: 17772556/0x010F300C) [15027*]:
    → "Do not forget to report back to an officer upon completing an objective, lest your accomplishments go overlooked."
 83: 0x078B [0x23] WAIT_FOR_DIALOG_INTERACTION
 84: 0x078C [0x52] END_LOAD_SCHEDULER: End scheduler "j221" with entities [LocalPlayer, LocalPlayer], work=344*
 85: 0x079B [0x45] LOAD_SCHEDULED_TASK: Load scheduler "j222" with entities [LocalPlayer, LocalPlayer], work=[344*, 0*]
 86: 0x07AC [0x2B] Kareh'ayollio (ID: 17772556/0x010F300C) [15028*]:
    → "...That is all. You are dismissed."
 87: 0x07B3 [0x23] WAIT_FOR_DIALOG_INTERACTION
 88: 0x07B4 [0x29] REQ_SET_WAIT(priority=0x10, entity_id=LocalPlayer, tag_num=0xAA)
 89: 0x07BB [0x1C] WAIT(60* ticks)
 90: 0x07BE [0x1A] CALL_SUBROUTINE(address=0x18AF)
 91: 0x07C1 [0x1C] WAIT(30* ticks)
 92: 0x07C4 [0x02] IF !(ExtData[1]->WorkLocal[1] == 0*) GOTO 0x07D8
 93: 0x07CC [0x29] REQ_SET_WAIT(priority=0x10, entity_id=Kam'lanaut (ID: 17772553/0x010F3009), tag_num=0x17)
 94: 0x07D3 [0x80] LOAD_WAIT(entity=Kam'lanaut (ID: 17772553/0x010F3009))
 95: 0x07D8 [0x52] END_LOAD_SCHEDULER: End scheduler "j222" with entities [LocalPlayer, LocalPlayer], work=344*
 96: 0x07E7 [0x45] LOAD_SCHEDULED_TASK: Load scheduler "0blf" with entities [LocalPlayer, LocalPlayer], work=[344*, 0*]
 97: 0x07F8 [0x1C] WAIT(15* ticks)
 98: 0x07FB [0xAB] EventEntity->DespawnValue = 0* // Set despawn value
 99: 0x07FF [0x1C] WAIT(1* ticks)
100: 0x0802 [0x46] CAMERA_CONTROL: Restore default settings
101: 0x0804 [0x45] LOAD_SCHEDULED_TASK: Load scheduler "fdi2" with entities [LocalPlayer, LocalPlayer], work=[200*, 0*]
102: 0x0815 [0x21] END_EVENT
103: 0x0816 [0x00] END_REQSTACK()
```

### Event 10190

#### Metadata

| Field        | Value      |
|--------------|------------|
| Entrypoint   | 0x0817     |
| Data Size    | 1187 bytes |
| Instructions | 158        |

```
      00 01 02 03 04 05 06 07  08 09 0A 0B 0C 0D 0E 0F
      -- -- -- -- -- -- -- --  -- -- -- -- -- -- -- --
0810:                      42  03 01 00 09 10 1A AF 18         B........
0820: 46 01 38 00 80 92 01 0B  30 0F 01 92 01 0C 30 0F  F.8.....0.....0.
0830: 01 94 01 F0 FF FF 7F 94  01 0B 30 0F 01 94 01 0C  ..........0.....
0840: 30 0F 01 BA F0 FF FF 7F  1F 80 20 80 03 80 21 80  0......... ...!.
0850: 80 F0 FF FF 7F 80 0B 30  0F 01 80 0C 30 0F 01 02  .......0....0...
0860: 01 00 05 80 00 AA 08 4E  00 09 30 0F 01 2F 00 09  .......N..0../..
0870: 30 0F 01 92 01 09 30 0F  01 94 01 09 30 0F 01 59  0.....0.....0..Y
0880: 05 09 30 0F 01 01 BA 09  30 0F 01 06 80 07 80 08  ..0.....0.......
0890: 80 09 80 80 09 30 0F 01  5B 0A 80 09 30 0F 01 09  .....0..[...0...
08A0: 30 0F 01 73 69 74 6C 01  B7 08 BA 0B 30 0F 01 0B  0..sitl.....0...
08B0: 80 0C 80 0D 80 09 80 29  10 F0 FF FF 7F A9 1C 0E  .......)........
08C0: 80 45 0F 80 F0 FF FF 7F  F0 FF FF 7F 6A 33 30 31  .E..........j301
08D0: 05 80 1A 8E 18 1C 22 80  02 01 00 05 80 00 FF 09  ......".........
08E0: 52 0F 80 F0 FF FF 7F F0  FF FF 7F 6A 33 30 31 45  R..........j301E
08F0: 0F 80 F0 FF FF 7F F0 FF  FF 7F 6A 33 30 32 05 80  ..........j302..
0900: 5B 0A 80 09 30 0F 01 09  30 0F 01 74 6C 6B 30 2B  [...0...0..tlk0+
0910: 09 30 0F 01 3F 80 23 2B  09 30 0F 01 40 80 23 52  .0..?.#+.0..@.#R
0920: 0F 80 F0 FF FF 7F F0 FF  FF 7F 6A 33 30 32 45 0F  ..........j302E.
0930: 80 F0 FF FF 7F F0 FF FF  7F 6A 33 30 33 05 80 5B  .........j303..[
0940: 0A 80 09 30 0F 01 09 30  0F 01 74 6C 6B 31 1C 0E  ...0...0..tlk1..
0950: 80 2B 09 30 0F 01 41 80  23 53 09 30 0F 01 09 30  .+.0..A.#S.0...0
0960: 0F 01 74 6C 6B 31 27 10  09 30 0F 01 09 1C 42 80  ..tlk1'..0....B.
0970: 52 0F 80 F0 FF FF 7F F0  FF FF 7F 6A 33 30 33 45  R..........j303E
0980: 0F 80 F0 FF FF 7F F0 FF  FF 7F 6A 33 30 34 05 80  ..........j304..
0990: 2A 10 09 30 0F 01 2B 09  30 0F 01 43 80 23 2B 09  *..0..+.0..C.#+.
09A0: 30 0F 01 44 80 23 52 0F  80 F0 FF FF 7F F0 FF FF  0..D.#R.........
09B0: 7F 6A 33 30 34 45 0F 80  F0 FF FF 7F F0 FF FF 7F  .j304E..........
09C0: 6A 33 30 35 05 80 2B 09  30 0F 01 45 80 23 52 0F  j305..+.0..E.#R.
09D0: 80 F0 FF FF 7F F0 FF FF  7F 6A 33 30 35 45 0F 80  .........j305E..
09E0: F0 FF FF 7F F0 FF FF 7F  6A 33 30 36 05 80 27 10  ........j306..'.
09F0: 09 30 0F 01 0A 27 10 0B  30 0F 01 1F 01 E6 0A 52  .0...'..0......R
0A00: 0F 80 F0 FF FF 7F F0 FF  FF 7F 6A 33 30 31 45 0F  ..........j301E.
0A10: 80 F0 FF FF 7F F0 FF FF  7F 6A 33 31 30 05 80 2B  .........j310..+
0A20: 0B 30 0F 01 46 80 23 2B  0B 30 0F 01 47 80 23 52  .0..F.#+.0..G.#R
0A30: 0F 80 F0 FF FF 7F F0 FF  FF 7F 6A 33 31 30 45 0F  ..........j310E.
0A40: 80 F0 FF FF 7F F0 FF FF  7F 6A 33 31 31 05 80 2B  .........j311..+
0A50: 0B 30 0F 01 48 80 23 2B  0B 30 0F 01 49 80 23 52  .0..H.#+.0..I.#R
0A60: 0F 80 F0 FF FF 7F F0 FF  FF 7F 6A 33 31 31 45 0F  ..........j311E.
0A70: 80 F0 FF FF 7F F0 FF FF  7F 6A 33 31 32 05 80 2B  .........j312..+
0A80: 0B 30 0F 01 4A 80 23 2B  0B 30 0F 01 4B 80 23 52  .0..J.#+.0..K.#R
0A90: 0F 80 F0 FF FF 7F F0 FF  FF 7F 6A 33 31 32 45 0F  ..........j312E.
0AA0: 80 F0 FF FF 7F F0 FF FF  7F 6A 33 31 33 05 80 2B  .........j313..+
0AB0: 0B 30 0F 01 4C 80 23 2B  0B 30 0F 01 4D 80 23 52  .0..L.#+.0..M.#R
0AC0: 0F 80 F0 FF FF 7F F0 FF  FF 7F 6A 33 31 33 45 0F  ..........j313E.
0AD0: 80 F0 FF FF 7F F0 FF FF  7F 6A 33 31 34 05 80 27  .........j314..'
0AE0: 10 0C 30 0F 01 1D 1C 16  80 27 10 F0 FF FF 7F AA  ..0......'......
0AF0: 1C 12 80 1A AF 18 1C 1B  80 7A 00 0B 30 0F 01 7A  .........z..0..z
0B00: 00 0C 30 0F 01 52 0F 80  F0 FF FF 7F F0 FF FF 7F  ..0..R..........
0B10: 6A 33 30 36 52 0F 80 F0  FF FF 7F F0 FF FF 7F 6A  j306R..........j
0B20: 33 31 34 27 10 28 31 0F  01 02 94 01 28 31 0F 01  314'.(1.....(1..
0B30: 29 10 28 31 0F 01 09 BA  F0 FF FF 7F 4E 80 4F 80  ).(1........N.O.
0B40: 50 80 51 80 59 05 28 31  0F 01 01 BA 28 31 0F 01  P.Q.Y.(1....(1..
0B50: 52 80 53 80 54 80 55 80  80 28 31 0F 01 48 1A 80  R.S.T.U..(1..H..
0B60: 23 27 10 F0 FF FF 7F AF  45 0F 80 F0 FF FF 7F F0  #'......E.......
0B70: FF FF 7F 6A 33 32 30 05  80 1A 8E 18 1C 0E 80 2B  ...j320........+
0B80: 28 31 0F 01 56 80 1C 1B  80 7A 00 F0 FF FF 7F 1C  (1..V....z......
0B90: 0E 80 27 10 F0 FF FF 7F  B0 23 52 0F 80 F0 FF FF  ..'......#R.....
0BA0: 7F F0 FF FF 7F 6A 33 32  30 45 0F 80 F0 FF FF 7F  .....j320E......
0BB0: F0 FF FF 7F 6A 33 32 32  05 80 29 10 28 31 0F 01  ....j322..).(1..
0BC0: 0B CD 57 80 28 31 0F 01  28 31 0F 01 73 30 30 30  ..W.(1..(1..s000
0BD0: 05 80 1C 0E 80 2B 28 31  0F 01 58 80 1C 0E 80 4A  .....+(1..X....J
0BE0: F0 FF FF 7F 28 31 0F 01  6F 76 F0 FF FF 7F 23 2B  ....(1..ov....#+
0BF0: 28 31 0F 01 59 80 23 6E  F0 FF FF 7F 5A 80 99 F0  (1..Y.#n....Z...
0C00: FF FF 7F 1C 1B 80 52 0F  80 F0 FF FF 7F F0 FF FF  ......R.........
0C10: 7F 6A 33 32 32 45 0F 80  F0 FF FF 7F F0 FF FF 7F  .j322E..........
0C20: 6A 33 32 33 05 80 1C 0E  80 2B 28 31 0F 01 5B 80  j323.....+(1..[.
0C30: 23 52 0F 80 F0 FF FF 7F  F0 FF FF 7F 6A 33 32 33  #R..........j323
0C40: 45 0F 80 F0 FF FF 7F F0  FF FF 7F 6A 33 32 31 05  E..........j321.
0C50: 80 2B 28 31 0F 01 5C 80  23 2B 28 31 0F 01 5D 80  .+(1..\.#+(1..].
0C60: 23 CD 57 80 28 31 0F 01  28 31 0F 01 73 74 30 30  #.W.(1..(1..st00
0C70: 05 80 1C 16 80 1A AF 18  1C 0E 80 52 0F 80 F0 FF  ...........R....
0C80: FF 7F F0 FF FF 7F 6A 33  32 31 45 0F 80 F0 FF FF  ......j321E.....
0C90: 7F F0 FF FF 7F 30 62 6C  66 05 80 1C 33 80 AB 11  .....0blf...3...
0CA0: 05 80 1C 1C 80 46 00 45  34 80 F0 FF FF 7F F0 FF  .....F.E4.......
0CB0: FF 7F 66 64 69 32 05 80  21 00                    ..fdi2..!.      
```

#### Opcodes

```
  0: 0x0817 [0x42] SET_CLI_EVENT_CANCEL_DATA()
  1: 0x0818 [0x03] ExtData[1]->WorkLocal[1] = Work_Zone[9]
  2: 0x081D [0x1A] CALL_SUBROUTINE(address=0x18AF)
  3: 0x0820 [0x46] CAMERA_CONTROL: Disable user control
  4: 0x0822 [0x38] SET_CLIENT_EVENT_MODE(mode=19*)
  5: 0x0825 [0x92] Mawl'gofaur (ID: 17772555/0x010F300B)->Render.Flags3 ^= 0x01
  6: 0x082B [0x92] Kareh'ayollio (ID: 17772556/0x010F300C)->Render.Flags3 ^= 0x01
  7: 0x0831 [0x94] LocalPlayer->Render.Flags3 ^= 0x01
  8: 0x0837 [0x94] Mawl'gofaur (ID: 17772555/0x010F300B)->Render.Flags3 ^= 0x01
  9: 0x083D [0x94] Kareh'ayollio (ID: 17772556/0x010F300C)->Render.Flags3 ^= 0x01
 10: 0x0843 [0xBA] SET_ENTITY_POSITION(entity_id=LocalPlayer, pos_x=0.028*, pos_z=84.763*, pos_y=-4.999*, direction=270.0°*)
 11: 0x0850 [0x80] LOAD_WAIT(entity=LocalPlayer)
 12: 0x0855 [0x80] LOAD_WAIT(entity=Mawl'gofaur (ID: 17772555/0x010F300B))
 13: 0x085A [0x80] LOAD_WAIT(entity=Kareh'ayollio (ID: 17772556/0x010F300C))
 14: 0x085F [0x02] IF !(ExtData[1]->WorkLocal[1] == 0*) GOTO 0x08AA
 15: 0x0867 [0x4E] SET_ENTITY_HIDE_FLAG: Show Kam'lanaut (ID: 17772553/0x010F3009)
 16: 0x086D [0x2F] Kam'lanaut (ID: 17772553/0x010F3009)->Render.Flags0 &= ~0x80000 // Bit 19
 17: 0x0873 [0x92] Kam'lanaut (ID: 17772553/0x010F3009)->Render.Flags3 ^= 0x01
 18: 0x0879 [0x94] Kam'lanaut (ID: 17772553/0x010F3009)->Render.Flags3 ^= 0x01
 19: 0x087F [0x59] UPDATE_ENTITY_DATA: Kam'lanaut (ID: 17772553/0x010F3009)->Render.Flags0 |= 0x200000
 20: 0x0886 [0xBA] SET_ENTITY_POSITION(entity_id=Kam'lanaut (ID: 17772553/0x010F3009), pos_x=0.050*, pos_z=95.100*, pos_y=-7.632*, direction=90.0°*)
 21: 0x0893 [0x80] LOAD_WAIT(entity=Kam'lanaut (ID: 17772553/0x010F3009))
 22: 0x0898 [0x5B] LOAD_EXT_SCHEDULER: Load scheduler "sitl" with entities [Kam'lanaut (ID: 17772553/0x010F3009), Kam'lanaut (ID: 17772553/0x010F3009)], work=105*
 23: 0x08A7 [0x01] GOTO 0x08B7
 24: 0x08AA [0xBA] SET_ENTITY_POSITION(entity_id=Mawl'gofaur (ID: 17772555/0x010F300B), pos_x=0.011*, pos_z=92.635*, pos_y=-6.996*, direction=90.0°*)

SUBROUTINE_08B7:
 25: 0x08B7 [0x29] REQ_SET_WAIT(priority=0x10, entity_id=LocalPlayer, tag_num=0xA9)
 26: 0x08BE [0x1C] WAIT(30* ticks)
 27: 0x08C1 [0x45] LOAD_SCHEDULED_TASK: Load scheduler "j301" with entities [LocalPlayer, LocalPlayer], work=[344*, 0*]
 28: 0x08D2 [0x1A] CALL_SUBROUTINE(address=0x188E)
 29: 0x08D5 [0x1C] WAIT(120* ticks)
 30: 0x08D8 [0x02] IF !(ExtData[1]->WorkLocal[1] == 0*) GOTO 0x09FF
 31: 0x08E0 [0x52] END_LOAD_SCHEDULER: End scheduler "j301" with entities [LocalPlayer, LocalPlayer], work=344*
 32: 0x08EF [0x45] LOAD_SCHEDULED_TASK: Load scheduler "j302" with entities [LocalPlayer, LocalPlayer], work=[344*, 0*]
 33: 0x0900 [0x5B] LOAD_EXT_SCHEDULER: Load scheduler "tlk0" with entities [Kam'lanaut (ID: 17772553/0x010F3009), Kam'lanaut (ID: 17772553/0x010F3009)], work=105*
 34: 0x090F [0x2B] Kam'lanaut (ID: 17772553/0x010F3009) [15039*]:
    → "<Player>! I've received word of your accomplishments in Qufim. Truly, your service to the Voidwatch has exceeded even my initial expectations."
 35: 0x0916 [0x23] WAIT_FOR_DIALOG_INTERACTION
 36: 0x0917 [0x2B] Kam'lanaut (ID: 17772553/0x010F3009) [15041*]:
    → "And yet it is hardly the time to rejoice. You have seen it with your own eyes--no sooner is one fiend slain than another of its brethren emerges to take its place."
 37: 0x091E [0x23] WAIT_FOR_DIALOG_INTERACTION
 38: 0x091F [0x52] END_LOAD_SCHEDULER: End scheduler "j302" with entities [LocalPlayer, LocalPlayer], work=344*
 39: 0x092E [0x45] LOAD_SCHEDULED_TASK: Load scheduler "j303" with entities [LocalPlayer, LocalPlayer], work=[344*, 0*]
 40: 0x093F [0x5B] LOAD_EXT_SCHEDULER: Load scheduler "tlk1" with entities [Kam'lanaut (ID: 17772553/0x010F3009), Kam'lanaut (ID: 17772553/0x010F3009)], work=105*
 41: 0x094E [0x1C] WAIT(30* ticks)
 42: 0x0951 [0x2B] Kam'lanaut (ID: 17772553/0x010F3009) [15042*]:
    → "We must find a way to seal the planar rifts. Then, and only then, will we be able to quash this extradimensional menace once and for all."
 43: 0x0958 [0x23] WAIT_FOR_DIALOG_INTERACTION
 44: 0x0959 [0x53] WAIT_SCHEDULER_TASK: Wait for scheduler "tlk1" with entities [Kam'lanaut (ID: 17772553/0x010F3009), Kam'lanaut (ID: 17772553/0x010F3009)]
 45: 0x0966 [0x27] REQ_SET(priority=0x10, entity_id=Kam'lanaut (ID: 17772553/0x010F3009), tag_num=0x09)
 46: 0x096D [0x1C] WAIT(45* ticks)
 47: 0x0970 [0x52] END_LOAD_SCHEDULER: End scheduler "j303" with entities [LocalPlayer, LocalPlayer], work=344*
 48: 0x097F [0x45] LOAD_SCHEDULED_TASK: Load scheduler "j304" with entities [LocalPlayer, LocalPlayer], work=[344*, 0*]
 49: 0x0990 [0x2A] GET_REQ_LEVEL(level=16, entity_id=Kam'lanaut (ID: 17772553/0x010F3009))
 50: 0x0996 [0x2B] Kam'lanaut (ID: 17772553/0x010F3009) [15043*]:
    → "Even as we speak, an elite team of my best researchers works tirelessly to that very end. Sadly, the true nature of the rifts remains very much an enigma..."
 51: 0x099D [0x23] WAIT_FOR_DIALOG_INTERACTION
 52: 0x099E [0x2B] Kam'lanaut (ID: 17772553/0x010F3009) [15044*]:
    → "And so I have no choice but to employ capable adventurers such as yourself to keep the fiends at bay. As inefficient as it may seem, it is the best course of action available to us under these conditions."
 53: 0x09A5 [0x23] WAIT_FOR_DIALOG_INTERACTION
 54: 0x09A6 [0x52] END_LOAD_SCHEDULER: End scheduler "j304" with entities [LocalPlayer, LocalPlayer], work=344*
 55: 0x09B5 [0x45] LOAD_SCHEDULED_TASK: Load scheduler "j305" with entities [LocalPlayer, LocalPlayer], work=[344*, 0*]
 56: 0x09C6 [0x2B] Kam'lanaut (ID: 17772553/0x010F3009) [15045*]:
    → "We are counting on your continued efforts, <Player>. In the meantime, take this for your service. May it serve you well."
 57: 0x09CD [0x23] WAIT_FOR_DIALOG_INTERACTION
 58: 0x09CE [0x52] END_LOAD_SCHEDULER: End scheduler "j305" with entities [LocalPlayer, LocalPlayer], work=344*
 59: 0x09DD [0x45] LOAD_SCHEDULED_TASK: Load scheduler "j306" with entities [LocalPlayer, LocalPlayer], work=[344*, 0*]
 60: 0x09EE [0x27] REQ_SET(priority=0x10, entity_id=Kam'lanaut (ID: 17772553/0x010F3009), tag_num=0x0A)
 61: 0x09F5 [0x27] REQ_SET(priority=0x10, entity_id=Mawl'gofaur (ID: 17772555/0x010F300B), tag_num=0x1F)
 62: 0x09FC [0x01] GOTO 0x0AE6
 63: 0x09FF [0x52] END_LOAD_SCHEDULER: End scheduler "j301" with entities [LocalPlayer, LocalPlayer], work=344*
 64: 0x0A0E [0x45] LOAD_SCHEDULED_TASK: Load scheduler "j310" with entities [LocalPlayer, LocalPlayer], work=[344*, 0*]
 65: 0x0A1F [0x2B] Mawl'gofaur (ID: 17772555/0x010F300B) [15046*]:
    → "Admirable work in Qufim, soldier. I did not think you had it in you. His Excellency has expressed great satisfaction in your accomplishments as well."
 66: 0x0A26 [0x23] WAIT_FOR_DIALOG_INTERACTION
 67: 0x0A27 [0x2B] Mawl'gofaur (ID: 17772555/0x010F300B) [15047*]:
    → "And yet we cannot afford to become complacent. For each fiend we dispatch, a more abominable monstrosity rises to take its place."
 68: 0x0A2E [0x23] WAIT_FOR_DIALOG_INTERACTION
 69: 0x0A2F [0x52] END_LOAD_SCHEDULER: End scheduler "j310" with entities [LocalPlayer, LocalPlayer], work=344*
 70: 0x0A3E [0x45] LOAD_SCHEDULED_TASK: Load scheduler "j311" with entities [LocalPlayer, LocalPlayer], work=[344*, 0*]
 71: 0x0A4F [0x2B] Mawl'gofaur (ID: 17772555/0x010F300B) [15048*]:
    → "We have recovered much useful data from your encounters with the Voidwalkers. Data that an elite team of our best researchers works tirelessly to analyze."
 72: 0x0A56 [0x23] WAIT_FOR_DIALOG_INTERACTION
 73: 0x0A57 [0x2B] Mawl'gofaur (ID: 17772555/0x010F300B) [15049*]:
    → "Yes, we must discover a means to seal the rifts once and for all. Then, and only then, will victory truly be ours."
 74: 0x0A5E [0x23] WAIT_FOR_DIALOG_INTERACTION
 75: 0x0A5F [0x52] END_LOAD_SCHEDULER: End scheduler "j311" with entities [LocalPlayer, LocalPlayer], work=344*
 76: 0x0A6E [0x45] LOAD_SCHEDULED_TASK: Load scheduler "j312" with entities [LocalPlayer, LocalPlayer], work=[344*, 0*]
 77: 0x0A7F [0x2B] Mawl'gofaur (ID: 17772555/0x010F300B) [15050*]:
    → "Until that day, we have no choice but to continue the fight."
 78: 0x0A86 [0x23] WAIT_FOR_DIALOG_INTERACTION
 79: 0x0A87 [0x2B] Mawl'gofaur (ID: 17772555/0x010F300B) [15051*]:
    → "You have proven yourself a valuable ally to our cause."
 80: 0x0A8E [0x23] WAIT_FOR_DIALOG_INTERACTION
 81: 0x0A8F [0x52] END_LOAD_SCHEDULER: End scheduler "j312" with entities [LocalPlayer, LocalPlayer], work=344*
 82: 0x0A9E [0x45] LOAD_SCHEDULED_TASK: Load scheduler "j313" with entities [LocalPlayer, LocalPlayer], work=[344*, 0*]
 83: 0x0AAF [0x2B] Mawl'gofaur (ID: 17772555/0x010F300B) [15052*]:
    → "The Archduke himself trusts you greatly. That is one trust that you would do well not to betray."
 84: 0x0AB6 [0x23] WAIT_FOR_DIALOG_INTERACTION
 85: 0x0AB7 [0x2B] Mawl'gofaur (ID: 17772555/0x010F300B) [15053*]:
    → "Take this for your efforts, and do not let up the fight. We will be watching you with great interest, <Player>."
 86: 0x0ABE [0x23] WAIT_FOR_DIALOG_INTERACTION
 87: 0x0ABF [0x52] END_LOAD_SCHEDULER: End scheduler "j313" with entities [LocalPlayer, LocalPlayer], work=344*
 88: 0x0ACE [0x45] LOAD_SCHEDULED_TASK: Load scheduler "j314" with entities [LocalPlayer, LocalPlayer], work=[344*, 0*]
 89: 0x0ADF [0x27] REQ_SET(priority=0x10, entity_id=Kareh'ayollio (ID: 17772556/0x010F300C), tag_num=0x1D)

SUBROUTINE_0AE6:
 90: 0x0AE6 [0x1C] WAIT(60* ticks)
 91: 0x0AE9 [0x27] REQ_SET(priority=0x10, entity_id=LocalPlayer, tag_num=0xAA)
 92: 0x0AF0 [0x1C] WAIT(150* ticks)
 93: 0x0AF3 [0x1A] CALL_SUBROUTINE(address=0x18AF)
 94: 0x0AF6 [0x1C] WAIT(90* ticks)
 95: 0x0AF9 [0x7A] VM_CONTROL: Reset VM for Mawl'gofaur (ID: 17772555/0x010F300B)
 96: 0x0AFF [0x7A] VM_CONTROL: Reset VM for Kareh'ayollio (ID: 17772556/0x010F300C)
 97: 0x0B05 [0x52] END_LOAD_SCHEDULER: End scheduler "j306" with entities [LocalPlayer, LocalPlayer], work=344*
 98: 0x0B14 [0x52] END_LOAD_SCHEDULER: End scheduler "j314" with entities [LocalPlayer, LocalPlayer], work=344*
 99: 0x0B23 [0x27] REQ_SET(priority=0x10, entity_id=Unnamed NPC (ID: 17772840/0x010F3128), tag_num=0x02)
100: 0x0B2A [0x94] Unnamed NPC (ID: 17772840/0x010F3128)->Render.Flags3 ^= 0x01
101: 0x0B30 [0x29] REQ_SET_WAIT(priority=0x10, entity_id=Unnamed NPC (ID: 17772840/0x010F3128), tag_num=0x09)
102: 0x0B37 [0xBA] SET_ENTITY_POSITION(entity_id=LocalPlayer, pos_x=-29.033*, pos_z=-43.615*, pos_y=0.003*, direction=88.7°*)
103: 0x0B44 [0x59] UPDATE_ENTITY_DATA: Unnamed NPC (ID: 17772840/0x010F3128)->Render.Flags0 |= 0x200000
104: 0x0B4B [0xBA] SET_ENTITY_POSITION(entity_id=Unnamed NPC (ID: 17772840/0x010F3128), pos_x=-27.255*, pos_z=-49.463*, pos_y=-1.900*, direction=89.8°*)
105: 0x0B58 [0x80] LOAD_WAIT(entity=Unnamed NPC (ID: 17772840/0x010F3128))
106: 0x0B5D [0x48] [System] [14054*]:
    → "@@"
107: 0x0B60 [0x23] WAIT_FOR_DIALOG_INTERACTION
108: 0x0B61 [0x27] REQ_SET(priority=0x10, entity_id=LocalPlayer, tag_num=0xAF)
109: 0x0B68 [0x45] LOAD_SCHEDULED_TASK: Load scheduler "j320" with entities [LocalPlayer, LocalPlayer], work=[344*, 0*]
110: 0x0B79 [0x1A] CALL_SUBROUTINE(address=0x188E)
111: 0x0B7C [0x1C] WAIT(30* ticks)
112: 0x0B7F [0x2B] Unnamed NPC (ID: 17772840/0x010F3128) [15054*]:
    → "Pssst! <Player>!"
113: 0x0B86 [0x1C] WAIT(90* ticks)
114: 0x0B89 [0x7A] VM_CONTROL: Reset VM for LocalPlayer
115: 0x0B8F [0x1C] WAIT(30* ticks)
116: 0x0B92 [0x27] REQ_SET(priority=0x10, entity_id=LocalPlayer, tag_num=0xB0)
117: 0x0B99 [0x23] WAIT_FOR_DIALOG_INTERACTION
118: 0x0B9A [0x52] END_LOAD_SCHEDULER: End scheduler "j320" with entities [LocalPlayer, LocalPlayer], work=344*
119: 0x0BA9 [0x45] LOAD_SCHEDULED_TASK: Load scheduler "j322" with entities [LocalPlayer, LocalPlayer], work=[344*, 0*]
120: 0x0BBA [0x29] REQ_SET_WAIT(priority=0x10, entity_id=Unnamed NPC (ID: 17772840/0x010F3128), tag_num=0x0B)
121: 0x0BC1 [0xCD] LOAD_SCHEDULED_TASK_ALT4: Load scheduler "s000" with entities [Unnamed NPC (ID: 17772840/0x010F3128), Unnamed NPC (ID: 17772840/0x010F3128)], work=[51*, 0*]
122: 0x0BD2 [0x1C] WAIT(30* ticks)
123: 0x0BD5 [0x2B] Unnamed NPC (ID: 17772840/0x010F3128) [15055*]:
    → "Over here! This way, I say! It's me! Cait Sith, your feline friend!"
124: 0x0BDC [0x1C] WAIT(30* ticks)
125: 0x0BDF [0x4A] LocalPlayer looks at Unnamed NPC (ID: 17772840/0x010F3128)
126: 0x0BE8 [0x6F] WAIT_FRAME_DELAY: Yield until WaitTime reaches zero
127: 0x0BE9 [0x76] CHECK_ENTITY_RENDER_FLAGS: Wait until LocalPlayer Render.Flags0 and Render.Flags3 conditions are met
128: 0x0BEE [0x23] WAIT_FOR_DIALOG_INTERACTION
129: 0x0BEF [0x2B] Unnamed NPC (ID: 17772840/0x010F3128) [15056*]:
    → "Do forgive me for my appearance. Pardon my unfamiliar manifestation."
130: 0x0BF6 [0x23] WAIT_FOR_DIALOG_INTERACTION
131: 0x0BF7 [0x6E] LocalPlayer uses emote 32*
132: 0x0BFE [0x99] Wait for LocalPlayer animation to complete
133: 0x0C03 [0x1C] WAIT(90* ticks)
134: 0x0C06 [0x52] END_LOAD_SCHEDULER: End scheduler "j322" with entities [LocalPlayer, LocalPlayer], work=344*
135: 0x0C15 [0x45] LOAD_SCHEDULED_TASK: Load scheduler "j323" with entities [LocalPlayer, LocalPlayer], work=[344*, 0*]
136: 0x0C26 [0x1C] WAIT(30* ticks)
137: 0x0C29 [0x2B] Unnamed NPC (ID: 17772840/0x010F3128) [15057*]:
    → "You may think of it as sort of passing fancy. A cait's caprice."
138: 0x0C30 [0x23] WAIT_FOR_DIALOG_INTERACTION
139: 0x0C31 [0x52] END_LOAD_SCHEDULER: End scheduler "j323" with entities [LocalPlayer, LocalPlayer], work=344*
140: 0x0C40 [0x45] LOAD_SCHEDULED_TASK: Load scheduler "j321" with entities [LocalPlayer, LocalPlayer], work=[344*, 0*]
141: 0x0C51 [0x2B] Unnamed NPC (ID: 17772840/0x010F3128) [15058*]:
    → "But there are more important matters a-paw. Matters that would best be discussed somewhere other than here, I fear."
142: 0x0C58 [0x23] WAIT_FOR_DIALOG_INTERACTION
143: 0x0C59 [0x2B] Unnamed NPC (ID: 17772840/0x010F3128) [15059*]:
    → "Let us rendezvous in the Pashhow Marshlands of the past. The age-old swamp. It's quite a trek, so take care and don't be late! Ta-ta, <Player>!"
144: 0x0C60 [0x23] WAIT_FOR_DIALOG_INTERACTION
145: 0x0C61 [0xCD] LOAD_SCHEDULED_TASK_ALT4: Load scheduler "st00" with entities [Unnamed NPC (ID: 17772840/0x010F3128), Unnamed NPC (ID: 17772840/0x010F3128)], work=[51*, 0*]
146: 0x0C72 [0x1C] WAIT(60* ticks)
147: 0x0C75 [0x1A] CALL_SUBROUTINE(address=0x18AF)
148: 0x0C78 [0x1C] WAIT(30* ticks)
149: 0x0C7B [0x52] END_LOAD_SCHEDULER: End scheduler "j321" with entities [LocalPlayer, LocalPlayer], work=344*
150: 0x0C8A [0x45] LOAD_SCHEDULED_TASK: Load scheduler "0blf" with entities [LocalPlayer, LocalPlayer], work=[344*, 0*]
151: 0x0C9B [0x1C] WAIT(15* ticks)
152: 0x0C9E [0xAB] EventEntity->DespawnValue = 0* // Set despawn value
153: 0x0CA2 [0x1C] WAIT(1* ticks)
154: 0x0CA5 [0x46] CAMERA_CONTROL: Restore default settings
155: 0x0CA7 [0x45] LOAD_SCHEDULED_TASK: Load scheduler "fdi2" with entities [LocalPlayer, LocalPlayer], work=[200*, 0*]
156: 0x0CB8 [0x21] END_EVENT
157: 0x0CB9 [0x00] END_REQSTACK()
```

### Event 10199

#### Metadata

| Field        | Value     |
|--------------|-----------|
| Entrypoint   | 0x0CBA    |
| Data Size    | 765 bytes |
| Instructions | 101       |

```
      00 01 02 03 04 05 06 07  08 09 0A 0B 0C 0D 0E 0F
      -- -- -- -- -- -- -- --  -- -- -- -- -- -- -- --
0CB0:                                42 03 01 00 09 10            B.....
0CC0: 1A AF 18 46 01 38 00 80  92 01 0B 30 0F 01 92 01  ...F.8.....0....
0CD0: 0C 30 0F 01 92 01 0D 30  0F 01 92 01 0E 30 0F 01  .0.....0.....0..
0CE0: 94 01 F0 FF FF 7F 94 01  0B 30 0F 01 94 01 0C 30  .........0.....0
0CF0: 0F 01 94 01 0D 30 0F 01  94 01 0E 30 0F 01 BA F0  .....0.....0....
0D00: FF FF 7F 1F 80 20 80 03  80 21 80 80 F0 FF FF 7F  ..... ...!......
0D10: 80 0B 30 0F 01 80 0C 30  0F 01 80 0D 30 0F 01 80  ..0....0....0...
0D20: 0E 30 0F 01 02 01 00 05  80 00 6F 0D 4E 00 09 30  .0........o.N..0
0D30: 0F 01 2F 00 09 30 0F 01  92 01 09 30 0F 01 94 01  ../..0.....0....
0D40: 09 30 0F 01 59 05 09 30  0F 01 01 BA 09 30 0F 01  .0..Y..0.....0..
0D50: 06 80 07 80 08 80 09 80  80 09 30 0F 01 5B 0A 80  ..........0..[..
0D60: 09 30 0F 01 09 30 0F 01  73 69 74 6C 01 7C 0D BA  .0...0..sitl.|..
0D70: 0B 30 0F 01 0B 80 0C 80  0D 80 09 80 29 10 F0 FF  .0..........)...
0D80: FF 7F A9 1C 0E 80 45 5E  80 F8 FF FF 7F F8 FF FF  ......E^........
0D90: 7F 73 30 37 39 05 80 1A  8E 18 02 01 00 05 80 00  .s079...........
0DA0: 82 0E 2B 09 30 0F 01 5F  80 23 52 5E 80 F8 FF FF  ..+.0.._.#R^....
0DB0: 7F F8 FF FF 7F 73 30 37  39 45 5E 80 F8 FF FF 7F  .....s079E^.....
0DC0: F8 FF FF 7F 73 30 38 30  05 80 2B 09 30 0F 01 60  ....s080..+.0..`
0DD0: 80 23 2B 09 30 0F 01 61  80 23 52 5E 80 F8 FF FF  .#+.0..a.#R^....
0DE0: 7F F8 FF FF 7F 73 30 38  30 45 5E 80 F8 FF FF 7F  .....s080E^.....
0DF0: F8 FF FF 7F 73 30 38 31  05 80 2B 09 30 0F 01 62  ....s081..+.0..b
0E00: 80 23 52 5E 80 F8 FF FF  7F F8 FF FF 7F 73 30 38  .#R^.........s08
0E10: 31 45 5E 80 F8 FF FF 7F  F8 FF FF 7F 73 30 38 32  1E^.........s082
0E20: 05 80 5B 0A 80 09 30 0F  01 09 30 0F 01 74 6C 6B  ..[...0...0..tlk
0E30: 30 2B 09 30 0F 01 63 80  23 52 5E 80 F8 FF FF 7F  0+.0..c.#R^.....
0E40: F8 FF FF 7F 73 30 38 32  45 5E 80 F8 FF FF 7F F8  ....s082E^......
0E50: FF FF 7F 73 30 38 33 05  80 5B 0A 80 09 30 0F 01  ...s083..[...0..
0E60: 09 30 0F 01 74 6C 6B 31  2B 09 30 0F 01 64 80 23  .0..tlk1+.0..d.#
0E70: 52 5E 80 F8 FF FF 7F F8  FF FF 7F 73 30 38 33 01  R^.........s083.
0E80: 21 0F 2B 0B 30 0F 01 29  80 23 2B 0B 30 0F 01 65  !.+.0..).#+.0..e
0E90: 80 23 52 5E 80 F8 FF FF  7F F8 FF FF 7F 73 30 37  .#R^.........s07
0EA0: 39 45 5E 80 F8 FF FF 7F  F8 FF FF 7F 73 30 38 36  9E^.........s086
0EB0: 05 80 2B 0B 30 0F 01 66  80 23 2B 0B 30 0F 01 67  ..+.0..f.#+.0..g
0EC0: 80 23 52 5E 80 F8 FF FF  7F F8 FF FF 7F 73 30 38  .#R^.........s08
0ED0: 36 45 5E 80 F8 FF FF 7F  F8 FF FF 7F 73 30 38 37  6E^.........s087
0EE0: 05 80 2B 0B 30 0F 01 68  80 23 52 5E 80 F8 FF FF  ..+.0..h.#R^....
0EF0: 7F F8 FF FF 7F 73 30 38  37 45 5E 80 F8 FF FF 7F  .....s087E^.....
0F00: F8 FF FF 7F 73 30 38 38  05 80 2B 0B 30 0F 01 69  ....s088..+.0..i
0F10: 80 23 52 5E 80 F8 FF FF  7F F8 FF FF 7F 73 30 38  .#R^.........s08
0F20: 38 45 5E 80 F8 FF FF 7F  F8 FF FF 7F 73 30 38 34  8E^.........s084
0F30: 05 80 2B 0C 30 0F 01 6A  80 23 2B 0C 30 0F 01 6B  ..+.0..j.#+.0..k
0F40: 80 23 52 5E 80 F8 FF FF  7F F8 FF FF 7F 73 30 38  .#R^.........s08
0F50: 34 45 5E 80 F8 FF FF 7F  F8 FF FF 7F 73 30 38 35  4E^.........s085
0F60: 05 80 2B 0C 30 0F 01 31  80 23 2B 0C 30 0F 01 32  ..+.0..1.#+.0..2
0F70: 80 23 1A AF 18 1C 0E 80  52 5E 80 F8 FF FF 7F F8  .#......R^......
0F80: FF FF 7F 73 30 38 35 45  6C 80 F8 FF FF 7F F8 FF  ...s085El.......
0F90: FF 7F 30 62 6C 66 05 80  1C 33 80 AB 11 05 80 1C  ..0blf...3......
0FA0: 1C 80 46 00 45 34 80 F0  FF FF 7F F0 FF FF 7F 66  ..F.E4.........f
0FB0: 64 69 32 05 80 21 00                              di2..!.         
```

#### Opcodes

```
  0: 0x0CBA [0x42] SET_CLI_EVENT_CANCEL_DATA()
  1: 0x0CBB [0x03] ExtData[1]->WorkLocal[1] = Work_Zone[9]
  2: 0x0CC0 [0x1A] CALL_SUBROUTINE(address=0x18AF)
  3: 0x0CC3 [0x46] CAMERA_CONTROL: Disable user control
  4: 0x0CC5 [0x38] SET_CLIENT_EVENT_MODE(mode=19*)
  5: 0x0CC8 [0x92] Mawl'gofaur (ID: 17772555/0x010F300B)->Render.Flags3 ^= 0x01
  6: 0x0CCE [0x92] Kareh'ayollio (ID: 17772556/0x010F300C)->Render.Flags3 ^= 0x01
  7: 0x0CD4 [0x92] High Wind (ID: 17772557/0x010F300D)->Render.Flags3 ^= 0x01
  8: 0x0CDA [0x92] Rainhard (ID: 17772558/0x010F300E)->Render.Flags3 ^= 0x01
  9: 0x0CE0 [0x94] LocalPlayer->Render.Flags3 ^= 0x01
 10: 0x0CE6 [0x94] Mawl'gofaur (ID: 17772555/0x010F300B)->Render.Flags3 ^= 0x01
 11: 0x0CEC [0x94] Kareh'ayollio (ID: 17772556/0x010F300C)->Render.Flags3 ^= 0x01
 12: 0x0CF2 [0x94] High Wind (ID: 17772557/0x010F300D)->Render.Flags3 ^= 0x01
 13: 0x0CF8 [0x94] Rainhard (ID: 17772558/0x010F300E)->Render.Flags3 ^= 0x01
 14: 0x0CFE [0xBA] SET_ENTITY_POSITION(entity_id=LocalPlayer, pos_x=0.028*, pos_z=84.763*, pos_y=-4.999*, direction=270.0°*)
 15: 0x0D0B [0x80] LOAD_WAIT(entity=LocalPlayer)
 16: 0x0D10 [0x80] LOAD_WAIT(entity=Mawl'gofaur (ID: 17772555/0x010F300B))
 17: 0x0D15 [0x80] LOAD_WAIT(entity=Kareh'ayollio (ID: 17772556/0x010F300C))
 18: 0x0D1A [0x80] LOAD_WAIT(entity=High Wind (ID: 17772557/0x010F300D))
 19: 0x0D1F [0x80] LOAD_WAIT(entity=Rainhard (ID: 17772558/0x010F300E))
 20: 0x0D24 [0x02] IF !(ExtData[1]->WorkLocal[1] == 0*) GOTO 0x0D6F
 21: 0x0D2C [0x4E] SET_ENTITY_HIDE_FLAG: Show Kam'lanaut (ID: 17772553/0x010F3009)
 22: 0x0D32 [0x2F] Kam'lanaut (ID: 17772553/0x010F3009)->Render.Flags0 &= ~0x80000 // Bit 19
 23: 0x0D38 [0x92] Kam'lanaut (ID: 17772553/0x010F3009)->Render.Flags3 ^= 0x01
 24: 0x0D3E [0x94] Kam'lanaut (ID: 17772553/0x010F3009)->Render.Flags3 ^= 0x01
 25: 0x0D44 [0x59] UPDATE_ENTITY_DATA: Kam'lanaut (ID: 17772553/0x010F3009)->Render.Flags0 |= 0x200000
 26: 0x0D4B [0xBA] SET_ENTITY_POSITION(entity_id=Kam'lanaut (ID: 17772553/0x010F3009), pos_x=0.050*, pos_z=95.100*, pos_y=-7.632*, direction=90.0°*)
 27: 0x0D58 [0x80] LOAD_WAIT(entity=Kam'lanaut (ID: 17772553/0x010F3009))
 28: 0x0D5D [0x5B] LOAD_EXT_SCHEDULER: Load scheduler "sitl" with entities [Kam'lanaut (ID: 17772553/0x010F3009), Kam'lanaut (ID: 17772553/0x010F3009)], work=105*
 29: 0x0D6C [0x01] GOTO 0x0D7C
 30: 0x0D6F [0xBA] SET_ENTITY_POSITION(entity_id=Mawl'gofaur (ID: 17772555/0x010F300B), pos_x=0.011*, pos_z=92.635*, pos_y=-6.996*, direction=90.0°*)

SUBROUTINE_0D7C:
 31: 0x0D7C [0x29] REQ_SET_WAIT(priority=0x10, entity_id=LocalPlayer, tag_num=0xA9)
 32: 0x0D83 [0x1C] WAIT(30* ticks)
 33: 0x0D86 [0x45] LOAD_SCHEDULED_TASK: Load scheduler "s079" with entities [EventEntity, EventEntity], work=[555*, 0*]
 34: 0x0D97 [0x1A] CALL_SUBROUTINE(address=0x188E)
 35: 0x0D9A [0x02] IF !(ExtData[1]->WorkLocal[1] == 0*) GOTO 0x0E82
 36: 0x0DA2 [0x2B] Kam'lanaut (ID: 17772553/0x010F3009) [15109*]:
    → "You've come. Splendid. We regret having to summon you again so soon after your last tour of duty, but the Duchy has need of your services again."
 37: 0x0DA9 [0x23] WAIT_FOR_DIALOG_INTERACTION
 38: 0x0DAA [0x52] END_LOAD_SCHEDULER: End scheduler "s079" with entities [EventEntity, EventEntity], work=555*
 39: 0x0DB9 [0x45] LOAD_SCHEDULED_TASK: Load scheduler "s080" with entities [EventEntity, EventEntity], work=[555*, 0*]
 40: 0x0DCA [0x2B] Kam'lanaut (ID: 17772553/0x010F3009) [15110*]:
    → "Our research team has confirmed the presence of new rifts in the greater three nations area."
 41: 0x0DD1 [0x23] WAIT_FOR_DIALOG_INTERACTION
 42: 0x0DD2 [0x2B] Kam'lanaut (ID: 17772553/0x010F3009) [15111*]:
    → "Under normal circumstances, the defense effort would fall under the jurisdiction of the local governments. This time, however, I fear the circumstances are far from normal."
 43: 0x0DD9 [0x23] WAIT_FOR_DIALOG_INTERACTION
 44: 0x0DDA [0x52] END_LOAD_SCHEDULER: End scheduler "s080" with entities [EventEntity, EventEntity], work=555*
 45: 0x0DE9 [0x45] LOAD_SCHEDULED_TASK: Load scheduler "s081" with entities [EventEntity, EventEntity], work=[555*, 0*]
 46: 0x0DFA [0x2B] Kam'lanaut (ID: 17772553/0x010F3009) [15112*]:
    → "I will be frank with you, <Player>. The strength of the enemy is beyond anything we've faced thus far."
 47: 0x0E01 [0x23] WAIT_FOR_DIALOG_INTERACTION
 48: 0x0E02 [0x52] END_LOAD_SCHEDULER: End scheduler "s081" with entities [EventEntity, EventEntity], work=555*
 49: 0x0E11 [0x45] LOAD_SCHEDULED_TASK: Load scheduler "s082" with entities [EventEntity, EventEntity], work=[555*, 0*]
 50: 0x0E22 [0x5B] LOAD_EXT_SCHEDULER: Load scheduler "tlk0" with entities [Kam'lanaut (ID: 17772553/0x010F3009), Kam'lanaut (ID: 17772553/0x010F3009)], work=105*
 51: 0x0E31 [0x2B] Kam'lanaut (ID: 17772553/0x010F3009) [15113*]:
    → "Here is your badge of authorization. Take it and report to the Voidwatch officers stationed afield for further orders."
 52: 0x0E38 [0x23] WAIT_FOR_DIALOG_INTERACTION
 53: 0x0E39 [0x52] END_LOAD_SCHEDULER: End scheduler "s082" with entities [EventEntity, EventEntity], work=555*
 54: 0x0E48 [0x45] LOAD_SCHEDULED_TASK: Load scheduler "s083" with entities [EventEntity, EventEntity], work=[555*, 0*]
 55: 0x0E59 [0x5B] LOAD_EXT_SCHEDULER: Load scheduler "tlk1" with entities [Kam'lanaut (ID: 17772553/0x010F3009), Kam'lanaut (ID: 17772553/0x010F3009)], work=105*
 56: 0x0E68 [0x2B] Kam'lanaut (ID: 17772553/0x010F3009) [15114*]:
    → "Once again, we have recruited other promising adventurers to our cause. You may find it in your best interests to join up with them before taking on the enemy. We're counting on you, <Player>."
 57: 0x0E6F [0x23] WAIT_FOR_DIALOG_INTERACTION
 58: 0x0E70 [0x52] END_LOAD_SCHEDULER: End scheduler "s083" with entities [EventEntity, EventEntity], work=555*
 59: 0x0E7F [0x01] GOTO 0x0F21
 60: 0x0E82 [0x2B] Mawl'gofaur (ID: 17772555/0x010F300B) [15019*]:
    → "So you have finally come. I am Mawl'gofaur, aide to the Archduke and overseer of the Voidwatch operation in His Excellency's absence."
 61: 0x0E89 [0x23] WAIT_FOR_DIALOG_INTERACTION
 62: 0x0E8A [0x2B] Mawl'gofaur (ID: 17772555/0x010F300B) [15115*]:
    → "I trust you've recovered from your last tour of duty. If not, so be it. Full strength or no, the Duchy requires your service."
 63: 0x0E91 [0x23] WAIT_FOR_DIALOG_INTERACTION
 64: 0x0E92 [0x52] END_LOAD_SCHEDULER: End scheduler "s079" with entities [EventEntity, EventEntity], work=555*
 65: 0x0EA1 [0x45] LOAD_SCHEDULED_TASK: Load scheduler "s086" with entities [EventEntity, EventEntity], work=[555*, 0*]
 66: 0x0EB2 [0x2B] Mawl'gofaur (ID: 17772555/0x010F300B) [15116*]:
    → "Ducal researchers have alerted us to the presence of newly formed planar rifts in the vicinity of the three kingdoms."
 67: 0x0EB9 [0x23] WAIT_FOR_DIALOG_INTERACTION
 68: 0x0EBA [0x2B] Mawl'gofaur (ID: 17772555/0x010F300B) [15117*]:
    → "Under normal circumstances we would let the nations fend for themselves. We fear that this time, however, their limited resources and manpower will do little to stem the tide of this formidable enemy."
 69: 0x0EC1 [0x23] WAIT_FOR_DIALOG_INTERACTION
 70: 0x0EC2 [0x52] END_LOAD_SCHEDULER: End scheduler "s086" with entities [EventEntity, EventEntity], work=555*
 71: 0x0ED1 [0x45] LOAD_SCHEDULED_TASK: Load scheduler "s087" with entities [EventEntity, EventEntity], work=[555*, 0*]
 72: 0x0EE2 [0x2B] Mawl'gofaur (ID: 17772555/0x010F300B) [15118*]:
    → "Hence, we turn to you. Take this badge of authorization and present it to our officers afield for further orders."
 73: 0x0EE9 [0x23] WAIT_FOR_DIALOG_INTERACTION
 74: 0x0EEA [0x52] END_LOAD_SCHEDULER: End scheduler "s087" with entities [EventEntity, EventEntity], work=555*
 75: 0x0EF9 [0x45] LOAD_SCHEDULED_TASK: Load scheduler "s088" with entities [EventEntity, EventEntity], work=[555*, 0*]
 76: 0x0F0A [0x2B] Mawl'gofaur (ID: 17772555/0x010F300B) [15119*]:
    → "We have recruited others for the effort as well. Join forces with them if you wish, or fight alone. Just remember: the success of the operation is more important than the life of any single soldier, including yours."
 77: 0x0F11 [0x23] WAIT_FOR_DIALOG_INTERACTION
 78: 0x0F12 [0x52] END_LOAD_SCHEDULER: End scheduler "s088" with entities [EventEntity, EventEntity], work=555*

SUBROUTINE_0F21:
 79: 0x0F21 [0x45] LOAD_SCHEDULED_TASK: Load scheduler "s084" with entities [EventEntity, EventEntity], work=[555*, 0*]
 80: 0x0F32 [0x2B] Kareh'ayollio (ID: 17772556/0x010F300C) [15120*]:
    → "As we trust you are already aware..."
 81: 0x0F39 [0x23] WAIT_FOR_DIALOG_INTERACTION
 82: 0x0F3A [0x2B] Kareh'ayollio (ID: 17772556/0x010F300C) [15121*]:
    → "Direct supervision of the Voidwatch operation will be conducted by our officers dispatched to the three nations. You are to follow their instructions to the letter."
 83: 0x0F41 [0x23] WAIT_FOR_DIALOG_INTERACTION
 84: 0x0F42 [0x52] END_LOAD_SCHEDULER: End scheduler "s084" with entities [EventEntity, EventEntity], work=555*
 85: 0x0F51 [0x45] LOAD_SCHEDULED_TASK: Load scheduler "s085" with entities [EventEntity, EventEntity], work=[555*, 0*]
 86: 0x0F62 [0x2B] Kareh'ayollio (ID: 17772556/0x010F300C) [15027*]:
    → "Do not forget to report back to an officer upon completing an objective, lest your accomplishments go overlooked."
 87: 0x0F69 [0x23] WAIT_FOR_DIALOG_INTERACTION
 88: 0x0F6A [0x2B] Kareh'ayollio (ID: 17772556/0x010F300C) [15028*]:
    → "...That is all. You are dismissed."
 89: 0x0F71 [0x23] WAIT_FOR_DIALOG_INTERACTION
 90: 0x0F72 [0x1A] CALL_SUBROUTINE(address=0x18AF)
 91: 0x0F75 [0x1C] WAIT(30* ticks)
 92: 0x0F78 [0x52] END_LOAD_SCHEDULER: End scheduler "s085" with entities [EventEntity, EventEntity], work=555*
 93: 0x0F87 [0x45] LOAD_SCHEDULED_TASK: Load scheduler "0blf" with entities [EventEntity, EventEntity], work=[578*, 0*]
 94: 0x0F98 [0x1C] WAIT(15* ticks)
 95: 0x0F9B [0xAB] EventEntity->DespawnValue = 0* // Set despawn value
 96: 0x0F9F [0x1C] WAIT(1* ticks)
 97: 0x0FA2 [0x46] CAMERA_CONTROL: Restore default settings
 98: 0x0FA4 [0x45] LOAD_SCHEDULED_TASK: Load scheduler "fdi2" with entities [LocalPlayer, LocalPlayer], work=[200*, 0*]
 99: 0x0FB5 [0x21] END_EVENT
100: 0x0FB6 [0x00] END_REQSTACK()
```

### Event 10200

#### Metadata

| Field        | Value      |
|--------------|------------|
| Entrypoint   | 0x0FB7     |
| Data Size    | 1600 bytes |
| Instructions | 208        |

```
      00 01 02 03 04 05 06 07  08 09 0A 0B 0C 0D 0E 0F
      -- -- -- -- -- -- -- --  -- -- -- -- -- -- -- --
0FB0:                      42  03 01 00 09 10 1A AF 18         B........
0FC0: 46 01 38 00 80 92 01 0B  30 0F 01 92 01 0C 30 0F  F.8.....0.....0.
0FD0: 01 92 01 0D 30 0F 01 92  01 0E 30 0F 01 94 01 F0  ....0.....0.....
0FE0: FF FF 7F 94 01 0B 30 0F  01 94 01 0C 30 0F 01 94  ......0.....0...
0FF0: 01 0D 30 0F 01 94 01 0E  30 0F 01 BA F0 FF FF 7F  ..0.....0.......
1000: 1F 80 20 80 03 80 21 80  BA 0D 30 0F 01 6D 80 6E  .. ...!...0..m.n
1010: 80 03 80 21 80 80 F0 FF  FF 7F 80 0B 30 0F 01 80  ...!........0...
1020: 0C 30 0F 01 80 0D 30 0F  01 80 0E 30 0F 01 02 01  .0....0....0....
1030: 00 05 80 00 79 10 4E 00  09 30 0F 01 2F 00 09 30  ....y.N..0../..0
1040: 0F 01 92 01 09 30 0F 01  94 01 09 30 0F 01 59 05  .....0.....0..Y.
1050: 09 30 0F 01 01 BA 09 30  0F 01 06 80 07 80 08 80  .0.....0........
1060: 09 80 80 09 30 0F 01 5B  0A 80 09 30 0F 01 09 30  ....0..[...0...0
1070: 0F 01 73 69 74 6C 01 86  10 BA 0B 30 0F 01 0B 80  ..sitl.....0....
1080: 0C 80 0D 80 09 80 29 10  F0 FF FF 7F A9 1C 0E 80  ......).........
1090: 45 5E 80 F8 FF FF 7F F8  FF FF 7F 73 30 38 39 05  E^.........s089.
10A0: 80 1A 8E 18 02 01 00 05  80 00 64 11 5B 0A 80 09  ..........d.[...
10B0: 30 0F 01 09 30 0F 01 74  6C 6B 30 2B 09 30 0F 01  0...0..tlk0+.0..
10C0: 6F 80 23 5B 0A 80 09 30  0F 01 09 30 0F 01 74 6C  o.#[...0...0..tl
10D0: 6B 31 52 5E 80 F8 FF FF  7F F8 FF FF 7F 73 30 38  k1R^.........s08
10E0: 39 45 5E 80 F8 FF FF 7F  F8 FF FF 7F 73 30 39 30  9E^.........s090
10F0: 05 80 2B 09 30 0F 01 70  80 23 52 5E 80 F8 FF FF  ..+.0..p.#R^....
1100: 7F F8 FF FF 7F 73 30 39  30 45 5E 80 F8 FF FF 7F  .....s090E^.....
1110: F8 FF FF 7F 73 30 39 31  05 80 2B 09 30 0F 01 71  ....s091..+.0..q
1120: 80 23 2B 09 30 0F 01 72  80 23 52 5E 80 F8 FF FF  .#+.0..r.#R^....
1130: 7F F8 FF FF 7F 73 30 39  31 45 5E 80 F8 FF FF 7F  .....s091E^.....
1140: F8 FF FF 7F 73 30 39 32  05 80 2B 09 30 0F 01 73  ....s092..+.0..s
1150: 80 23 52 5E 80 F8 FF FF  7F F8 FF FF 7F 73 30 39  .#R^.........s09
1160: 32 01 27 12 2B 0B 30 0F  01 74 80 23 52 5E 80 F8  2.'.+.0..t.#R^..
1170: FF FF 7F F8 FF FF 7F 73  30 38 39 45 5E 80 F8 FF  .......s089E^...
1180: FF 7F F8 FF FF 7F 73 31  30 36 05 80 2B 0B 30 0F  ......s106..+.0.
1190: 01 75 80 23 2B 0B 30 0F  01 76 80 23 52 5E 80 F8  .u.#+.0..v.#R^..
11A0: FF FF 7F F8 FF FF 7F 73  31 30 36 45 5E 80 F8 FF  .......s106E^...
11B0: FF 7F F8 FF FF 7F 73 31  30 37 05 80 2B 0B 30 0F  ......s107..+.0.
11C0: 01 77 80 23 52 5E 80 F8  FF FF 7F F8 FF FF 7F 73  .w.#R^.........s
11D0: 31 30 37 45 5E 80 F8 FF  FF 7F F8 FF FF 7F 73 31  107E^.........s1
11E0: 30 38 05 80 2B 0B 30 0F  01 78 80 23 27 05 0B 30  08..+.0..x.#'..0
11F0: 0F 01 21 1C 0E 80 52 5E  80 F8 FF FF 7F F8 FF FF  ..!...R^........
1200: 7F 73 31 30 38 45 5E 80  F8 FF FF 7F F8 FF FF 7F  .s108E^.........
1210: 73 31 30 39 05 80 1C 1B  80 2B 0B 30 0F 01 4D 80  s109.....+.0..M.
1220: 23 2A 05 0B 30 0F 01 45  5E 80 F8 FF FF 7F F8 FF  #*..0..E^.......
1230: FF 7F 73 31 30 35 05 80  27 05 92 30 0F 01 03 1C  ..s105..'..0....
1240: 1B 80 27 05 0D 30 0F 01  25 52 5E 80 F8 FF FF 7F  ..'..0..%R^.....
1250: F8 FF FF 7F 73 31 30 35  45 5E 80 F8 FF FF 7F F8  ....s105E^......
1260: FF FF 7F 73 30 39 33 05  80 4A 0C 30 0F 01 0D 30  ...s093..J.0...0
1270: 0F 01 1C 0E 80 2B 0C 30  0F 01 79 80 23 52 5E 80  .....+.0..y.#R^.
1280: F8 FF FF 7F F8 FF FF 7F  73 30 39 33 45 5E 80 F8  ........s093E^..
1290: FF FF 7F F8 FF FF 7F 73  30 39 34 05 80 2B 0D 30  .......s094..+.0
12A0: 0F 01 7A 80 23 52 5E 80  F8 FF FF 7F F8 FF FF 7F  ..z.#R^.........
12B0: 73 30 39 34 02 01 00 05  80 00 D0 12 45 5E 80 F8  s094........E^..
12C0: FF FF 7F F8 FF FF 7F 73  30 39 35 05 80 01 E1 12  .......s095.....
12D0: 45 5E 80 F8 FF FF 7F F8  FF FF 7F 73 31 31 30 05  E^.........s110.
12E0: 80 27 05 92 30 0F 01 04  2B 0B 30 0F 01 7B 80 1C  .'..0...+.0..{..
12F0: 22 80 23 52 5E 80 F8 FF  FF 7F F8 FF FF 7F 73 30  ".#R^.........s0
1300: 39 35 52 5E 80 F8 FF FF  7F F8 FF FF 7F 73 31 31  95R^.........s11
1310: 30 45 5E 80 F8 FF FF 7F  F8 FF FF 7F 73 30 39 36  0E^.........s096
1320: 05 80 2B 0D 30 0F 01 7C  80 23 79 00 0D 30 0F 01  ..+.0..|.#y..0..
1330: 0C 30 0F 01 1C 33 80 2B  0D 30 0F 01 7D 80 23 1C  .0...3.+.0..}.#.
1340: 0E 80 52 5E 80 F8 FF FF  7F F8 FF FF 7F 73 30 39  ..R^.........s09
1350: 36 02 01 00 05 80 00 6D  13 45 5E 80 F8 FF FF 7F  6......m.E^.....
1360: F8 FF FF 7F 73 30 39 37  05 80 01 7E 13 45 5E 80  ....s097...~.E^.
1370: F8 FF FF 7F F8 FF FF 7F  73 31 31 31 05 80 79 00  ........s111..y.
1380: 0D 30 0F 01 0B 30 0F 01  2B 0B 30 0F 01 7E 80 23  .0...0..+.0..~.#
1390: 03 02 10 7F 80 03 03 10  80 80 2B 0D 30 0F 01 81  ..........+.0...
13A0: 80 23 52 5E 80 F8 FF FF  7F F8 FF FF 7F 73 30 39  .#R^.........s09
13B0: 37 52 5E 80 F8 FF FF 7F  F8 FF FF 7F 73 31 31 31  7R^.........s111
13C0: 02 01 00 05 80 00 0B 14  45 5E 80 F8 FF FF 7F F8  ........E^......
13D0: FF FF 7F 73 30 39 38 05  80 1C 0E 80 4A 0B 30 0F  ...s098.....J.0.
13E0: 01 0D 30 0F 01 1C 16 80  52 5E 80 F8 FF FF 7F F8  ..0.....R^......
13F0: FF FF 7F 73 30 39 38 45  5E 80 F8 FF FF 7F F8 FF  ...s098E^.......
1400: FF 7F 73 30 39 39 05 80  01 1C 14 45 5E 80 F8 FF  ..s099.....E^...
1410: FF 7F F8 FF FF 7F 73 31  31 32 05 80 2B 0B 30 0F  ......s112..+.0.
1420: 01 82 80 23 52 5E 80 F8  FF FF 7F F8 FF FF 7F 73  ...#R^.........s
1430: 30 39 39 52 5E 80 F8 FF  FF 7F F8 FF FF 7F 73 31  099R^.........s1
1440: 31 32 45 5E 80 F8 FF FF  7F F8 FF FF 7F 73 31 30  12E^.........s10
1450: 30 05 80 2B 0C 30 0F 01  83 80 23 2B 0D 30 0F 01  0..+.0....#+.0..
1460: 84 80 23 66 85 80 0D 30  0F 01 0D 30 0F 01 73 68  ..#f...0...0..sh
1470: 61 31 52 5E 80 F8 FF FF  7F F8 FF FF 7F 73 31 30  a1R^.........s10
1480: 30 45 5E 80 F8 FF FF 7F  F8 FF FF 7F 73 31 30 31  0E^.........s101
1490: 05 80 1C 0E 80 4A 0C 30  0F 01 F0 FF FF 7F 7B 0C  .....J.0......{.
14A0: 30 0F 01 1C 16 80 52 5E  80 F8 FF FF 7F F8 FF FF  0.....R^........
14B0: 7F 73 31 30 31 45 5E 80  F8 FF FF 7F F8 FF FF 7F  .s101E^.........
14C0: 73 31 30 32 05 80 4B 0D  30 0F 01 86 80 27 05 92  s102..K.0....'..
14D0: 30 0F 01 03 1C 42 80 27  05 0D 30 0F 01 26 1C 87  0....B.'..0..&..
14E0: 80 27 05 92 30 0F 01 04  52 5E 80 F8 FF FF 7F F8  .'..0...R^......
14F0: FF FF 7F 73 31 30 32 45  5E 80 F8 FF FF 7F F8 FF  ...s102E^.......
1500: FF 7F 73 31 30 33 05 80  2B 0C 30 0F 01 88 80 23  ..s103..+.0....#
1510: 02 01 00 05 80 00 1B 15  01 32 15 BA 0B 30 0F 01  .........2...0..
1520: 89 80 8A 80 8B 80 21 80  27 05 0B 30 0F 01 22 1C  ......!.'..0..".
1530: 0E 80 52 5E 80 F8 FF FF  7F F8 FF FF 7F 73 31 30  ..R^.........s10
1540: 33 45 5E 80 F8 FF FF 7F  F8 FF FF 7F 73 31 30 34  3E^.........s104
1550: 05 80 2B 0C 30 0F 01 8C  80 23 2B 0C 30 0F 01 32  ..+.0....#+.0..2
1560: 80 23 1A AF 18 1C 0E 80  45 5E 80 F8 FF FF 7F F8  .#......E^......
1570: FF FF 7F 73 31 30 34 05  80 45 6C 80 F8 FF FF 7F  ...s104..El.....
1580: F8 FF FF 7F 30 62 6C 66  05 80 02 01 00 05 80 00  ....0blf........
1590: D8 15 5C 00 8D 80 5C 01  8D 80 9A 48 1A 80 23 2B  ..\...\....H..#+
15A0: 2A 31 0F 01 8E 80 23 2B  2A 31 0F 01 8F 80 23 2B  *1....#+*1....#+
15B0: 2A 31 0F 01 90 80 23 2B  2A 31 0F 01 91 80 23 2B  *1....#+*1....#+
15C0: 2A 31 0F 01 92 80 23 5D  05 80 22 80 1C 16 80 5C  *1....#].."....\
15D0: 00 93 80 5C 01 93 80 9A  1C 33 80 AB 11 05 80 1C  ...\.....3......
15E0: 1C 80 46 00 45 34 80 F0  FF FF 7F F0 FF FF 7F 66  ..F.E4.........f
15F0: 64 69 32 05 80 21 00                              di2..!.         
```

#### Opcodes

```
  0: 0x0FB7 [0x42] SET_CLI_EVENT_CANCEL_DATA()
  1: 0x0FB8 [0x03] ExtData[1]->WorkLocal[1] = Work_Zone[9]
  2: 0x0FBD [0x1A] CALL_SUBROUTINE(address=0x18AF)
  3: 0x0FC0 [0x46] CAMERA_CONTROL: Disable user control
  4: 0x0FC2 [0x38] SET_CLIENT_EVENT_MODE(mode=19*)
  5: 0x0FC5 [0x92] Mawl'gofaur (ID: 17772555/0x010F300B)->Render.Flags3 ^= 0x01
  6: 0x0FCB [0x92] Kareh'ayollio (ID: 17772556/0x010F300C)->Render.Flags3 ^= 0x01
  7: 0x0FD1 [0x92] High Wind (ID: 17772557/0x010F300D)->Render.Flags3 ^= 0x01
  8: 0x0FD7 [0x92] Rainhard (ID: 17772558/0x010F300E)->Render.Flags3 ^= 0x01
  9: 0x0FDD [0x94] LocalPlayer->Render.Flags3 ^= 0x01
 10: 0x0FE3 [0x94] Mawl'gofaur (ID: 17772555/0x010F300B)->Render.Flags3 ^= 0x01
 11: 0x0FE9 [0x94] Kareh'ayollio (ID: 17772556/0x010F300C)->Render.Flags3 ^= 0x01
 12: 0x0FEF [0x94] High Wind (ID: 17772557/0x010F300D)->Render.Flags3 ^= 0x01
 13: 0x0FF5 [0x94] Rainhard (ID: 17772558/0x010F300E)->Render.Flags3 ^= 0x01
 14: 0x0FFB [0xBA] SET_ENTITY_POSITION(entity_id=LocalPlayer, pos_x=0.028*, pos_z=84.763*, pos_y=-4.999*, direction=270.0°*)
 15: 0x1008 [0xBA] SET_ENTITY_POSITION(entity_id=High Wind (ID: 17772557/0x010F300D), pos_x=-0.051*, pos_z=69.156*, pos_y=-4.999*, direction=270.0°*)
 16: 0x1015 [0x80] LOAD_WAIT(entity=LocalPlayer)
 17: 0x101A [0x80] LOAD_WAIT(entity=Mawl'gofaur (ID: 17772555/0x010F300B))
 18: 0x101F [0x80] LOAD_WAIT(entity=Kareh'ayollio (ID: 17772556/0x010F300C))
 19: 0x1024 [0x80] LOAD_WAIT(entity=High Wind (ID: 17772557/0x010F300D))
 20: 0x1029 [0x80] LOAD_WAIT(entity=Rainhard (ID: 17772558/0x010F300E))
 21: 0x102E [0x02] IF !(ExtData[1]->WorkLocal[1] == 0*) GOTO 0x1079
 22: 0x1036 [0x4E] SET_ENTITY_HIDE_FLAG: Show Kam'lanaut (ID: 17772553/0x010F3009)
 23: 0x103C [0x2F] Kam'lanaut (ID: 17772553/0x010F3009)->Render.Flags0 &= ~0x80000 // Bit 19
 24: 0x1042 [0x92] Kam'lanaut (ID: 17772553/0x010F3009)->Render.Flags3 ^= 0x01
 25: 0x1048 [0x94] Kam'lanaut (ID: 17772553/0x010F3009)->Render.Flags3 ^= 0x01
 26: 0x104E [0x59] UPDATE_ENTITY_DATA: Kam'lanaut (ID: 17772553/0x010F3009)->Render.Flags0 |= 0x200000
 27: 0x1055 [0xBA] SET_ENTITY_POSITION(entity_id=Kam'lanaut (ID: 17772553/0x010F3009), pos_x=0.050*, pos_z=95.100*, pos_y=-7.632*, direction=90.0°*)
 28: 0x1062 [0x80] LOAD_WAIT(entity=Kam'lanaut (ID: 17772553/0x010F3009))
 29: 0x1067 [0x5B] LOAD_EXT_SCHEDULER: Load scheduler "sitl" with entities [Kam'lanaut (ID: 17772553/0x010F3009), Kam'lanaut (ID: 17772553/0x010F3009)], work=105*
 30: 0x1076 [0x01] GOTO 0x1086
 31: 0x1079 [0xBA] SET_ENTITY_POSITION(entity_id=Mawl'gofaur (ID: 17772555/0x010F300B), pos_x=0.011*, pos_z=92.635*, pos_y=-6.996*, direction=90.0°*)

SUBROUTINE_1086:
 32: 0x1086 [0x29] REQ_SET_WAIT(priority=0x10, entity_id=LocalPlayer, tag_num=0xA9)
 33: 0x108D [0x1C] WAIT(30* ticks)
 34: 0x1090 [0x45] LOAD_SCHEDULED_TASK: Load scheduler "s089" with entities [EventEntity, EventEntity], work=[555*, 0*]
 35: 0x10A1 [0x1A] CALL_SUBROUTINE(address=0x188E)
 36: 0x10A4 [0x02] IF !(ExtData[1]->WorkLocal[1] == 0*) GOTO 0x1164
 37: 0x10AC [0x5B] LOAD_EXT_SCHEDULER: Load scheduler "tlk0" with entities [Kam'lanaut (ID: 17772553/0x010F3009), Kam'lanaut (ID: 17772553/0x010F3009)], work=105*
 38: 0x10BB [0x2B] Kam'lanaut (ID: 17772553/0x010F3009) [15122*]:
    → "<Player>. Once again you prove that the Duchy's faith in you was not misplaced."
 39: 0x10C2 [0x23] WAIT_FOR_DIALOG_INTERACTION
 40: 0x10C3 [0x5B] LOAD_EXT_SCHEDULER: Load scheduler "tlk1" with entities [Kam'lanaut (ID: 17772553/0x010F3009), Kam'lanaut (ID: 17772553/0x010F3009)], work=105*
 41: 0x10D2 [0x52] END_LOAD_SCHEDULER: End scheduler "s089" with entities [EventEntity, EventEntity], work=555*
 42: 0x10E1 [0x45] LOAD_SCHEDULED_TASK: Load scheduler "s090" with entities [EventEntity, EventEntity], work=[555*, 0*]
 43: 0x10F2 [0x2B] Kam'lanaut (ID: 17772553/0x010F3009) [15123*]:
    → "You are an asset to the Voidwatch. And yet the data we have recovered from your efforts yields as many questions as answers."
 44: 0x10F9 [0x23] WAIT_FOR_DIALOG_INTERACTION
 45: 0x10FA [0x52] END_LOAD_SCHEDULER: End scheduler "s090" with entities [EventEntity, EventEntity], work=555*
 46: 0x1109 [0x45] LOAD_SCHEDULED_TASK: Load scheduler "s091" with entities [EventEntity, EventEntity], work=[555*, 0*]
 47: 0x111A [0x2B] Kam'lanaut (ID: 17772553/0x010F3009) [15124*]:
    → "The Voidwalker menace has been quieted for now. Yet we would be fools to believe that our foe will remain silent for long."
 48: 0x1121 [0x23] WAIT_FOR_DIALOG_INTERACTION
 49: 0x1122 [0x2B] Kam'lanaut (ID: 17772553/0x010F3009) [15125*]:
    → "Until we can identify and eliminate the source of the threat, we have no recourse but to call upon you again."
 50: 0x1129 [0x23] WAIT_FOR_DIALOG_INTERACTION
 51: 0x112A [0x52] END_LOAD_SCHEDULER: End scheduler "s091" with entities [EventEntity, EventEntity], work=555*
 52: 0x1139 [0x45] LOAD_SCHEDULED_TASK: Load scheduler "s092" with entities [EventEntity, EventEntity], work=[555*, 0*]
 53: 0x114A [0x2B] Kam'lanaut (ID: 17772553/0x010F3009) [15126*]:
    → "In the meantime, take this as recompense for your efforts. I trust you shall put it to good use."
 54: 0x1151 [0x23] WAIT_FOR_DIALOG_INTERACTION
 55: 0x1152 [0x52] END_LOAD_SCHEDULER: End scheduler "s092" with entities [EventEntity, EventEntity], work=555*
 56: 0x1161 [0x01] GOTO 0x1227
 57: 0x1164 [0x2B] Mawl'gofaur (ID: 17772555/0x010F300B) [15144*]:
    → "It would seem the Voidwatch effort in the three nations was a success. Once again, you prove yourself not entirely useless."
 58: 0x116B [0x23] WAIT_FOR_DIALOG_INTERACTION
 59: 0x116C [0x52] END_LOAD_SCHEDULER: End scheduler "s089" with entities [EventEntity, EventEntity], work=555*
 60: 0x117B [0x45] LOAD_SCHEDULED_TASK: Load scheduler "s106" with entities [EventEntity, EventEntity], work=[555*, 0*]
 61: 0x118C [0x2B] Mawl'gofaur (ID: 17772555/0x010F300B) [15145*]:
    → "The Archduke will be pleased. And yet the Voidwalker menace persists."
 62: 0x1193 [0x23] WAIT_FOR_DIALOG_INTERACTION
 63: 0x1194 [0x2B] Mawl'gofaur (ID: 17772555/0x010F300B) [15146*]:
    → "The data we have recovered from your latest mission is...not promising."
 64: 0x119B [0x23] WAIT_FOR_DIALOG_INTERACTION
 65: 0x119C [0x52] END_LOAD_SCHEDULER: End scheduler "s106" with entities [EventEntity, EventEntity], work=555*
 66: 0x11AB [0x45] LOAD_SCHEDULED_TASK: Load scheduler "s107" with entities [EventEntity, EventEntity], work=[555*, 0*]
 67: 0x11BC [0x2B] Mawl'gofaur (ID: 17772555/0x010F300B) [15147*]:
    → "More details? I think you forget your station, soldier. You will get the information you are authorized to receive, and no more."
 68: 0x11C3 [0x23] WAIT_FOR_DIALOG_INTERACTION
 69: 0x11C4 [0x52] END_LOAD_SCHEDULER: End scheduler "s107" with entities [EventEntity, EventEntity], work=555*
 70: 0x11D3 [0x45] LOAD_SCHEDULED_TASK: Load scheduler "s108" with entities [EventEntity, EventEntity], work=[555*, 0*]
 71: 0x11E4 [0x2B] Mawl'gofaur (ID: 17772555/0x010F300B) [15148*]:
    → "Let it suffice to say that we will have need of your services again. Stay alive, and do not stray too far."
 72: 0x11EB [0x23] WAIT_FOR_DIALOG_INTERACTION
 73: 0x11EC [0x27] REQ_SET(priority=0x05, entity_id=Mawl'gofaur (ID: 17772555/0x010F300B), tag_num=0x21)
 74: 0x11F3 [0x1C] WAIT(30* ticks)
 75: 0x11F6 [0x52] END_LOAD_SCHEDULER: End scheduler "s108" with entities [EventEntity, EventEntity], work=555*
 76: 0x1205 [0x45] LOAD_SCHEDULED_TASK: Load scheduler "s109" with entities [EventEntity, EventEntity], work=[555*, 0*]
 77: 0x1216 [0x1C] WAIT(90* ticks)
 78: 0x1219 [0x2B] Mawl'gofaur (ID: 17772555/0x010F300B) [15053*]:
    → "Take this for your efforts, and do not let up the fight. We will be watching you with great interest, <Player>."
 79: 0x1220 [0x23] WAIT_FOR_DIALOG_INTERACTION
 80: 0x1221 [0x2A] GET_REQ_LEVEL(level=5, entity_id=Mawl'gofaur (ID: 17772555/0x010F300B))

SUBROUTINE_1227:
 81: 0x1227 [0x45] LOAD_SCHEDULED_TASK: Load scheduler "s105" with entities [EventEntity, EventEntity], work=[555*, 0*]
 82: 0x1238 [0x27] REQ_SET(priority=0x05, entity_id=Door:Audience Chamber (ID: 17772690/0x010F3092), tag_num=0x03)
 83: 0x123F [0x1C] WAIT(90* ticks)
 84: 0x1242 [0x27] REQ_SET(priority=0x05, entity_id=High Wind (ID: 17772557/0x010F300D), tag_num=0x25)
 85: 0x1249 [0x52] END_LOAD_SCHEDULER: End scheduler "s105" with entities [EventEntity, EventEntity], work=555*
 86: 0x1258 [0x45] LOAD_SCHEDULED_TASK: Load scheduler "s093" with entities [EventEntity, EventEntity], work=[555*, 0*]
 87: 0x1269 [0x4A] Kareh'ayollio (ID: 17772556/0x010F300C) looks at High Wind (ID: 17772557/0x010F300D)
 88: 0x1272 [0x1C] WAIT(30* ticks)
 89: 0x1275 [0x2B] Kareh'ayollio (ID: 17772556/0x010F300C) [15127*]:
    → "What is the meaning of this interruption!?"
 90: 0x127C [0x23] WAIT_FOR_DIALOG_INTERACTION
 91: 0x127D [0x52] END_LOAD_SCHEDULER: End scheduler "s093" with entities [EventEntity, EventEntity], work=555*
 92: 0x128C [0x45] LOAD_SCHEDULED_TASK: Load scheduler "s094" with entities [EventEntity, EventEntity], work=[555*, 0*]
 93: 0x129D [0x2B] High Wind (ID: 17772557/0x010F300D) [15128*]:
    → "My pardons. Your Excellency, we've received dire news from the field. Two new rifts have been confirmed at previously unbreached locations..."
 94: 0x12A4 [0x23] WAIT_FOR_DIALOG_INTERACTION
 95: 0x12A5 [0x52] END_LOAD_SCHEDULER: End scheduler "s094" with entities [EventEntity, EventEntity], work=555*
 96: 0x12B4 [0x02] IF !(ExtData[1]->WorkLocal[1] == 0*) GOTO 0x12D0
 97: 0x12BC [0x45] LOAD_SCHEDULED_TASK: Load scheduler "s095" with entities [EventEntity, EventEntity], work=[555*, 0*]
 98: 0x12CD [0x01] GOTO 0x12E1
 99: 0x12D0 [0x45] LOAD_SCHEDULED_TASK: Load scheduler "s110" with entities [EventEntity, EventEntity], work=[555*, 0*]

SUBROUTINE_12E1:
100: 0x12E1 [0x27] REQ_SET(priority=0x05, entity_id=Door:Audience Chamber (ID: 17772690/0x010F3092), tag_num=0x04)
101: 0x12E8 [0x2B] Mawl'gofaur (ID: 17772555/0x010F300B) [15129*]:
    → "Hmph. Two, you say?"
102: 0x12EF [0x1C] WAIT(120* ticks)
103: 0x12F2 [0x23] WAIT_FOR_DIALOG_INTERACTION
104: 0x12F3 [0x52] END_LOAD_SCHEDULER: End scheduler "s095" with entities [EventEntity, EventEntity], work=555*
105: 0x1302 [0x52] END_LOAD_SCHEDULER: End scheduler "s110" with entities [EventEntity, EventEntity], work=555*
106: 0x1311 [0x45] LOAD_SCHEDULED_TASK: Load scheduler "s096" with entities [EventEntity, EventEntity], work=[555*, 0*]
107: 0x1322 [0x2B] High Wind (ID: 17772557/0x010F300D) [15130*]:
    → "Aye. One buried in the sands of the Valkurm Dunes, the other on Buburimu Peninsula."
108: 0x1329 [0x23] WAIT_FOR_DIALOG_INTERACTION
109: 0x132A [0x79] High Wind (ID: 17772557/0x010F300D) looks at Kareh'ayollio (ID: 17772556/0x010F300C) (Basic look)
110: 0x1334 [0x1C] WAIT(15* ticks)
111: 0x1337 [0x2B] High Wind (ID: 17772557/0x010F300D) [15131*]:
    → "Your Excellency...?"
112: 0x133E [0x23] WAIT_FOR_DIALOG_INTERACTION
113: 0x133F [0x1C] WAIT(30* ticks)
114: 0x1342 [0x52] END_LOAD_SCHEDULER: End scheduler "s096" with entities [EventEntity, EventEntity], work=555*
115: 0x1351 [0x02] IF !(ExtData[1]->WorkLocal[1] == 0*) GOTO 0x136D
116: 0x1359 [0x45] LOAD_SCHEDULED_TASK: Load scheduler "s097" with entities [EventEntity, EventEntity], work=[555*, 0*]
117: 0x136A [0x01] GOTO 0x137E
118: 0x136D [0x45] LOAD_SCHEDULED_TASK: Load scheduler "s111" with entities [EventEntity, EventEntity], work=[555*, 0*]

SUBROUTINE_137E:
119: 0x137E [0x79] High Wind (ID: 17772557/0x010F300D) looks at Mawl'gofaur (ID: 17772555/0x010F300B) (Basic look)
120: 0x1388 [0x2B] Mawl'gofaur (ID: 17772555/0x010F300B) [15132*]:
    → "This adventurer is a veteran Voidwatcher. I would have [him/her] hear your findings as well."
121: 0x138F [0x23] WAIT_FOR_DIALOG_INTERACTION
122: 0x1390 [0x03] Work_Zone[2] = 1539*
123: 0x1395 [0x03] Work_Zone[3] = 1451*
124: 0x139A [0x2B] High Wind (ID: 17772557/0x010F300D) [15133*]:
    → "At present, it responds to neither $3 nor $3. We are unable to gauge the potential danger of any Voidwalkers that may lie beyond."
125: 0x13A1 [0x23] WAIT_FOR_DIALOG_INTERACTION
126: 0x13A2 [0x52] END_LOAD_SCHEDULER: End scheduler "s097" with entities [EventEntity, EventEntity], work=555*
127: 0x13B1 [0x52] END_LOAD_SCHEDULER: End scheduler "s111" with entities [EventEntity, EventEntity], work=555*
128: 0x13C0 [0x02] IF !(ExtData[1]->WorkLocal[1] == 0*) GOTO 0x140B
129: 0x13C8 [0x45] LOAD_SCHEDULED_TASK: Load scheduler "s098" with entities [EventEntity, EventEntity], work=[555*, 0*]
130: 0x13D9 [0x1C] WAIT(30* ticks)
131: 0x13DC [0x4A] Mawl'gofaur (ID: 17772555/0x010F300B) looks at High Wind (ID: 17772557/0x010F300D)
