# 17772557 - High Wind

## Common Data

| Field            | Value                     |
|------------------|---------------------------|
| Zone             | Ru'Lude Gardens (ID: 243) |
| Block Size       | 736 bytes                 |
| Total Events     | 39                        |
| References Count | 39                        |

## List of Events

| Event ID                   | Entrypoint   |   Size |   Instructions |
|----------------------------|--------------|--------|----------------|
| [65535](#event-65535)      | 0x0000       |      1 |              1 |
| [33](#event-33)            | 0x0001       |     21 |              9 |
| [65](#event-65)            | 0x0016       |      1 |              1 |
| [58](#event-58)            | 0x0017       |      1 |              1 |
| [65535.1](#event-655351)   | 0x0018       |     24 |              5 |
| [65535.2](#event-655352)   | 0x0030       |     10 |              2 |
| [164](#event-164)          | 0x003A       |     46 |             15 |
| [138](#event-138)          | 0x0068       |      1 |              1 |
| [60](#event-60)            | 0x0069       |     19 |              3 |
| [65535.3](#event-655353)   | 0x007C       |     20 |              4 |
| [65535.4](#event-655354)   | 0x0090       |     10 |              2 |
| [65535.5](#event-655355)   | 0x009A       |      1 |              1 |
| [10048](#event-10048)      | 0x009B       |      7 |              2 |
| [10050](#event-10050)      | 0x00A2       |     13 |              3 |
| [10051](#event-10051)      | 0x00AF       |     13 |              3 |
| [142](#event-142)          | 0x00BC       |      1 |              1 |
| [143](#event-143)          | 0x00BD       |      1 |              1 |
| [161](#event-161)          | 0x00BE       |      1 |              1 |
| [162](#event-162)          | 0x00BF       |      1 |              1 |
| [123](#event-123)          | 0x00C0       |      1 |              1 |
| [10115](#event-10115)      | 0x00C1       |      1 |              1 |
| [10116](#event-10116)      | 0x00C2       |      1 |              1 |
| [10117](#event-10117)      | 0x00C3       |     17 |              7 |
| [65535.6](#event-655356)   | 0x00D4       |      1 |              1 |
| [65535.7](#event-655357)   | 0x00D5       |     18 |              4 |
| [65535.8](#event-655358)   | 0x00E7       |     10 |              2 |
| [65535.9](#event-655359)   | 0x00F1       |      9 |              3 |
| [65535.10](#event-6553510) | 0x00FA       |      9 |              3 |
| [65535.11](#event-6553511) | 0x0103       |     10 |              2 |
| [65535.12](#event-6553512) | 0x010D       |     10 |              2 |
| [10188](#event-10188)      | 0x0117       |      1 |              1 |
| [65535.13](#event-6553513) | 0x0118       |     20 |              6 |
| [65535.14](#event-6553514) | 0x012C       |     15 |              5 |
| [65535.15](#event-6553515) | 0x013B       |     15 |              5 |
| [65535.16](#event-6553516) | 0x014A       |     32 |              8 |
| [10199](#event-10199)      | 0x016A       |      1 |              1 |
| [10200](#event-10200)      | 0x016B       |      1 |              1 |
| [65535.17](#event-6553517) | 0x016C       |     30 |              6 |
| [65535.18](#event-6553518) | 0x018A       |     14 |              4 |

## DAT References (imed_data)

|   Index | Hex Value   |   Dec Value |
|---------|-------------|-------------|
|       0 | 0x2B2F      |       11055 |
|       1 | 0x2B30      |       11056 |
|       2 | 0x000D      |          13 |
|       3 | 0x0591      |        1425 |
|       4 | 0xEFCC      |       61388 |
|       5 | 0xFFFFEC79  |  4294962297 |
|       6 | 0x03E8      |        1000 |
|       7 | 0x10D6F     |       68975 |
|       8 | 0xFFFFEC78  |  4294962296 |
|       9 | 0x0BF1      |        3057 |
|      10 | 0x0038      |          56 |
|      11 | 0x27D1      |       10193 |
|      12 | 0x0001      |           1 |
|      13 | 0x27D2      |       10194 |
|      14 | 0x27D3      |       10195 |
|      15 | 0x0000      |           0 |
|      16 | 0x12BB6     |       76726 |
|      17 | 0x0C00      |        3072 |
|      18 | 0x0020      |          32 |
|      19 | 0x14FF0     |       86000 |
|      20 | 0xFFFFEC7C  |  4294962300 |
|      21 | 0x3845      |       14405 |
|      22 | 0x0080      |         128 |
|      23 | 0x000B      |          11 |
|      24 | 0x0329      |         809 |
|      25 | 0x10BE9     |       68585 |
|      26 | 0xFFFFFFE7  |  4294967271 |
|      27 | 0x11038     |       69688 |
|      28 | 0xFFFFFFFC  |  4294967292 |
|      29 | 0x1216A     |       74090 |
|      30 | 0x095D      |        2397 |
|      31 | 0x10C8D     |       68749 |
|      32 | 0x0400      |        1024 |
|      33 | 0x0028      |          40 |
|      34 | 0x0007      |           7 |
|      35 | 0x11FDD     |       73693 |
|      36 | 0x0045      |          69 |
|      37 | 0xFFFFFF78  |  4294967160 |
|      38 | 0x10BD2     |       68562 |

## String References

- **10193**: Just a moment. I need to see your $3...
- **10194**: Thank you. If the sovereign requests your audience, access to the chamber will be granted by the guards inside.
- **10195**: I'm sorry, but you will need $6 to get in.
- **11055**: No one is allowed to meet with the archduke or the ducal scientists unless it absolutely necessary.
- **11056**: The officials have been extremely busy making arrangements for numerous expeditionary forces to be sent to various locations around Quon and Mindartia.
- **14405**: Have you received consent from the three nations? Not yet, you say? Then I suggest you get moving.

## Events

### Event 65535

#### Metadata

| Field        | Value   |
|--------------|---------|
| Entrypoint   | 0x0000  |
| Data Size    | 1 bytes |
| Instructions | 1       |

```
      00 01 02 03 04 05 06 07  08 09 0A 0B 0C 0D 0E 0F
      -- -- -- -- -- -- -- --  -- -- -- -- -- -- -- --
0000: 00                                                .               
```

#### Opcodes

```
  0: 0x0000 [0x00] END_REQSTACK()
```

### Event 33

#### Metadata

| Field        | Value    |
|--------------|----------|
| Entrypoint   | 0x0001   |
| Data Size    | 21 bytes |
| Instructions | 9        |

```
      00 01 02 03 04 05 06 07  08 09 0A 0B 0C 0D 0E 0F
      -- -- -- -- -- -- -- --  -- -- -- -- -- -- -- --
0000:    1E F0 FF FF 7F 6F 76  F8 FF FF 7F 1D 00 80 23   .....ov.......#
0010: 1D 01 80 23 21 00                                 ...#!.          
```

#### Opcodes

```
  0: 0x0001 [0x1E] EventEntity looks at LocalPlayer and starts talking
  1: 0x0006 [0x6F] WAIT_FRAME_DELAY: Yield until WaitTime reaches zero
  2: 0x0007 [0x76] CHECK_ENTITY_RENDER_FLAGS: Wait until EventEntity Render.Flags0 and Render.Flags3 conditions are met
  3: 0x000C [0x1D] PRINT_EVENT_MESSAGE(message_id=11055*)
    → "No one is allowed to meet with the archduke or the ducal scientists unless it absolutely necessary."
  4: 0x000F [0x23] WAIT_FOR_DIALOG_INTERACTION
  5: 0x0010 [0x1D] PRINT_EVENT_MESSAGE(message_id=11056*)
    → "The officials have been extremely busy making arrangements for numerous expeditionary forces to be sent to various locations around Quon and Mindartia."
  6: 0x0013 [0x23] WAIT_FOR_DIALOG_INTERACTION
  7: 0x0014 [0x21] END_EVENT
  8: 0x0015 [0x00] END_REQSTACK()
```

### Event 65

#### Metadata

| Field        | Value   |
|--------------|---------|
| Entrypoint   | 0x0016  |
| Data Size    | 1 bytes |
| Instructions | 1       |

```
      00 01 02 03 04 05 06 07  08 09 0A 0B 0C 0D 0E 0F
      -- -- -- -- -- -- -- --  -- -- -- -- -- -- -- --
0010:                   00                                    .         
```

#### Opcodes

```
  0: 0x0016 [0x00] END_REQSTACK()
```

### Event 58

#### Metadata

| Field        | Value   |
|--------------|---------|
| Entrypoint   | 0x0017  |
| Data Size    | 1 bytes |
| Instructions | 1       |

```
      00 01 02 03 04 05 06 07  08 09 0A 0B 0C 0D 0E 0F
      -- -- -- -- -- -- -- --  -- -- -- -- -- -- -- --
0010:                      00                                  .        
```

#### Opcodes

```
  0: 0x0017 [0x00] END_REQSTACK()
```

### Event 65535.1

#### Metadata

| Field        | Value    |
|--------------|----------|
| Entrypoint   | 0x0018   |
| Data Size    | 24 bytes |
| Instructions | 5        |

```
      00 01 02 03 04 05 06 07  08 09 0A 0B 0C 0D 0E 0F
      -- -- -- -- -- -- -- --  -- -- -- -- -- -- -- --
0010:                          79 00 F8 FF FF 7F F0 FF          y.......
0020: FF 7F 32 02 80 1F 00 03  80 04 80 05 80 1F 01 00  ..2.............
```

#### Opcodes

```
  0: 0x0018 [0x79] EventEntity looks at LocalPlayer (Basic look)
  1: 0x0022 [0x32] ExtData[1]->MainSpeed = 13* * 0.1
  2: 0x0025 [0x1F] MOVE_ENTITY: EventEntity moves to X=1.425*, Z=61.388*, Y=-4.999*
  3: 0x002D [0x1F] MOVE_ENTITY: Update entity position (mode=1)
  4: 0x002F [0x00] END_REQSTACK()
```

### Event 65535.2

#### Metadata

| Field        | Value    |
|--------------|----------|
| Entrypoint   | 0x0030   |
| Data Size    | 10 bytes |
| Instructions | 2        |

```
      00 01 02 03 04 05 06 07  08 09 0A 0B 0C 0D 0E 0F
      -- -- -- -- -- -- -- --  -- -- -- -- -- -- -- --
0030: 37 06 80 07 80 08 80 09  80 00                    7.........      
```

#### Opcodes

```
  0: 0x0030 [0x37] UPDATE_EVENT_POSITION_AND_DIR: x=1.000*, z=68.975*, y=-5.000*, direction=268.7°*
  1: 0x0039 [0x00] END_REQSTACK()
```

### Event 164

#### Metadata

| Field        | Value    |
|--------------|----------|
| Entrypoint   | 0x003A   |
| Data Size    | 46 bytes |
| Instructions | 15       |

```
      00 01 02 03 04 05 06 07  08 09 0A 0B 0C 0D 0E 0F
      -- -- -- -- -- -- -- --  -- -- -- -- -- -- -- --
0030:                                03 00 00 02 10 1E            ......
0040: F0 FF FF 7F 6F 76 F8 FF  FF 7F 03 09 10 0A 80 1D  ....ov..........
0050: 0B 80 23 02 00 00 0C 80  00 62 00 1D 0D 80 23 01  ..#......b....#.
0060: 66 00 1D 0E 80 23 21 00                           f....#!.        
```

#### Opcodes

```
  0: 0x003A [0x03] ExtData[1]->WorkLocal[0] = Work_Zone[2]
  1: 0x003F [0x1E] EventEntity looks at LocalPlayer and starts talking
  2: 0x0044 [0x6F] WAIT_FRAME_DELAY: Yield until WaitTime reaches zero
  3: 0x0045 [0x76] CHECK_ENTITY_RENDER_FLAGS: Wait until EventEntity Render.Flags0 and Render.Flags3 conditions are met
  4: 0x004A [0x03] Work_Zone[9] = 56*
  5: 0x004F [0x1D] PRINT_EVENT_MESSAGE(message_id=10193*)
    → "Just a moment. I need to see your $3..."
  6: 0x0052 [0x23] WAIT_FOR_DIALOG_INTERACTION
  7: 0x0053 [0x02] IF !(ExtData[1]->WorkLocal[0] == 1*) GOTO 0x0062
  8: 0x005B [0x1D] PRINT_EVENT_MESSAGE(message_id=10194*)
    → "Thank you. If the sovereign requests your audience, access to the chamber will be granted by the guards inside."
  9: 0x005E [0x23] WAIT_FOR_DIALOG_INTERACTION
 10: 0x005F [0x01] GOTO 0x0066
 11: 0x0062 [0x1D] PRINT_EVENT_MESSAGE(message_id=10195*)
    → "I'm sorry, but you will need $6 to get in."
 12: 0x0065 [0x23] WAIT_FOR_DIALOG_INTERACTION

SUBROUTINE_0066:
 13: 0x0066 [0x21] END_EVENT
 14: 0x0067 [0x00] END_REQSTACK()
```

### Event 138

#### Metadata

| Field        | Value   |
|--------------|---------|
| Entrypoint   | 0x0068  |
| Data Size    | 1 bytes |
| Instructions | 1       |

```
      00 01 02 03 04 05 06 07  08 09 0A 0B 0C 0D 0E 0F
      -- -- -- -- -- -- -- --  -- -- -- -- -- -- -- --
0060:                          00                               .       
```

#### Opcodes

```
  0: 0x0068 [0x00] END_REQSTACK()
```

### Event 60

#### Metadata

| Field        | Value    |
|--------------|----------|
| Entrypoint   | 0x0069   |
| Data Size    | 19 bytes |
| Instructions | 3        |

```
      00 01 02 03 04 05 06 07  08 09 0A 0B 0C 0D 0E 0F
      -- -- -- -- -- -- -- --  -- -- -- -- -- -- -- --
0060:                             3B F8 FF FF 7F 01 00           ;......
0070: 02 00 03 00 3A F8 FF FF  7F 04 00 00              ....:.......    
```

#### Opcodes

```
  0: 0x0069 [0x3B] GET_ENTITY_POSITION(entity=EventEntity, x_destination=ExtData[1]->WorkLocal[1], y_destination=ExtData[1]->WorkLocal[2], z_destination=ExtData[1]->WorkLocal[3])
  1: 0x0074 [0x3A] CONVERT_YAW_TO_BYTE(entity=EventEntity, result_destination=ExtData[1]->WorkLocal[4])
  2: 0x007B [0x00] END_REQSTACK()
```

### Event 65535.3

#### Metadata

| Field        | Value    |
|--------------|----------|
| Entrypoint   | 0x007C   |
| Data Size    | 20 bytes |
| Instructions | 4        |

```
      00 01 02 03 04 05 06 07  08 09 0A 0B 0C 0D 0E 0F
      -- -- -- -- -- -- -- --  -- -- -- -- -- -- -- --
0070:                                      37 0F 80 10              7...
0080: 80 08 80 11 80 1F 00 12  80 13 80 14 80 1F 01 00  ................
```

#### Opcodes

```
  0: 0x007C [0x37] UPDATE_EVENT_POSITION_AND_DIR: x=0.000*, z=76.726*, y=-5.000*, direction=270.0°*
  1: 0x0085 [0x1F] MOVE_ENTITY: EventEntity moves to X=0.032*, Z=86.000*, Y=-4.996*
  2: 0x008D [0x1F] MOVE_ENTITY: Update entity position (mode=1)
  3: 0x008F [0x00] END_REQSTACK()
```

### Event 65535.4

#### Metadata

| Field        | Value    |
|--------------|----------|
| Entrypoint   | 0x0090   |
| Data Size    | 10 bytes |
| Instructions | 2        |

```
      00 01 02 03 04 05 06 07  08 09 0A 0B 0C 0D 0E 0F
      -- -- -- -- -- -- -- --  -- -- -- -- -- -- -- --
0090: 37 01 00 02 00 03 00 04  00 00                    7.........      
```

#### Opcodes

```
  0: 0x0090 [0x37] UPDATE_EVENT_POSITION_AND_DIR: x=ExtData[1]->WorkLocal[1], z=ExtData[1]->WorkLocal[2], y=ExtData[1]->WorkLocal[3], direction=ExtData[1]->WorkLocal[4]
  1: 0x0099 [0x00] END_REQSTACK()
```

### Event 65535.5

#### Metadata

| Field        | Value   |
|--------------|---------|
| Entrypoint   | 0x009A  |
| Data Size    | 1 bytes |
| Instructions | 1       |

```
      00 01 02 03 04 05 06 07  08 09 0A 0B 0C 0D 0E 0F
      -- -- -- -- -- -- -- --  -- -- -- -- -- -- -- --
0090:                                00                           .     
```

#### Opcodes

```
  0: 0x009A [0x00] END_REQSTACK()
```

### Event 10048

#### Metadata

| Field        | Value   |
|--------------|---------|
| Entrypoint   | 0x009B  |
| Data Size    | 7 bytes |
| Instructions | 2       |

```
      00 01 02 03 04 05 06 07  08 09 0A 0B 0C 0D 0E 0F
      -- -- -- -- -- -- -- --  -- -- -- -- -- -- -- --
0090:                                   92 01 F8 FF FF             .....
00A0: 7F 00                                             ..              
```

#### Opcodes

```
  0: 0x009B [0x92] EventEntity->Render.Flags3 ^= 0x01
  1: 0x00A1 [0x00] END_REQSTACK()
```

### Event 10050

#### Metadata

| Field        | Value    |
|--------------|----------|
| Entrypoint   | 0x00A2   |
| Data Size    | 13 bytes |
| Instructions | 3        |

```
      00 01 02 03 04 05 06 07  08 09 0A 0B 0C 0D 0E 0F
      -- -- -- -- -- -- -- --  -- -- -- -- -- -- -- --
00A0:       92 01 F8 FF FF 7F  94 01 F8 FF FF 7F 00       ............. 
```

#### Opcodes

```
  0: 0x00A2 [0x92] EventEntity->Render.Flags3 ^= 0x01
  1: 0x00A8 [0x94] EventEntity->Render.Flags3 ^= 0x01
  2: 0x00AE [0x00] END_REQSTACK()
```

### Event 10051

#### Metadata

| Field        | Value    |
|--------------|----------|
| Entrypoint   | 0x00AF   |
| Data Size    | 13 bytes |
| Instructions | 3        |

```
      00 01 02 03 04 05 06 07  08 09 0A 0B 0C 0D 0E 0F
      -- -- -- -- -- -- -- --  -- -- -- -- -- -- -- --
00A0:                                               92                 .
00B0: 01 F8 FF FF 7F 94 01 F8  FF FF 7F 00              ............    
```

#### Opcodes

```
  0: 0x00AF [0x92] EventEntity->Render.Flags3 ^= 0x01
  1: 0x00B5 [0x94] EventEntity->Render.Flags3 ^= 0x01
  2: 0x00BB [0x00] END_REQSTACK()
```

### Event 142

#### Metadata

| Field        | Value   |
|--------------|---------|
| Entrypoint   | 0x00BC  |
| Data Size    | 1 bytes |
| Instructions | 1       |

```
      00 01 02 03 04 05 06 07  08 09 0A 0B 0C 0D 0E 0F
      -- -- -- -- -- -- -- --  -- -- -- -- -- -- -- --
00B0:                                      00                       .   
```

#### Opcodes

```
  0: 0x00BC [0x00] END_REQSTACK()
```

### Event 143

#### Metadata

| Field        | Value   |
|--------------|---------|
| Entrypoint   | 0x00BD  |
| Data Size    | 1 bytes |
| Instructions | 1       |

```
      00 01 02 03 04 05 06 07  08 09 0A 0B 0C 0D 0E 0F
      -- -- -- -- -- -- -- --  -- -- -- -- -- -- -- --
00B0:                                         00                     .  
```

#### Opcodes

```
  0: 0x00BD [0x00] END_REQSTACK()
```

### Event 161

#### Metadata

| Field        | Value   |
|--------------|---------|
| Entrypoint   | 0x00BE  |
| Data Size    | 1 bytes |
| Instructions | 1       |

```
      00 01 02 03 04 05 06 07  08 09 0A 0B 0C 0D 0E 0F
      -- -- -- -- -- -- -- --  -- -- -- -- -- -- -- --
00B0:                                            00                   . 
```

#### Opcodes

```
  0: 0x00BE [0x00] END_REQSTACK()
```

### Event 162

#### Metadata

| Field        | Value   |
|--------------|---------|
| Entrypoint   | 0x00BF  |
| Data Size    | 1 bytes |
| Instructions | 1       |

```
      00 01 02 03 04 05 06 07  08 09 0A 0B 0C 0D 0E 0F
      -- -- -- -- -- -- -- --  -- -- -- -- -- -- -- --
00B0:                                               00                 .
```

#### Opcodes

```
  0: 0x00BF [0x00] END_REQSTACK()
```

### Event 123

#### Metadata

| Field        | Value   |
|--------------|---------|
| Entrypoint   | 0x00C0  |
| Data Size    | 1 bytes |
| Instructions | 1       |

```
      00 01 02 03 04 05 06 07  08 09 0A 0B 0C 0D 0E 0F
      -- -- -- -- -- -- -- --  -- -- -- -- -- -- -- --
00C0: 00                                                .               
```

#### Opcodes

```
  0: 0x00C0 [0x00] END_REQSTACK()
```

### Event 10115

#### Metadata

| Field        | Value   |
|--------------|---------|
| Entrypoint   | 0x00C1  |
| Data Size    | 1 bytes |
| Instructions | 1       |

```
      00 01 02 03 04 05 06 07  08 09 0A 0B 0C 0D 0E 0F
      -- -- -- -- -- -- -- --  -- -- -- -- -- -- -- --
00C0:    00                                              .              
```

#### Opcodes

```
  0: 0x00C1 [0x00] END_REQSTACK()
```

### Event 10116

#### Metadata

| Field        | Value   |
|--------------|---------|
| Entrypoint   | 0x00C2  |
| Data Size    | 1 bytes |
| Instructions | 1       |

```
      00 01 02 03 04 05 06 07  08 09 0A 0B 0C 0D 0E 0F
      -- -- -- -- -- -- -- --  -- -- -- -- -- -- -- --
00C0:       00                                            .             
```

#### Opcodes

```
  0: 0x00C2 [0x00] END_REQSTACK()
```

### Event 10117

#### Metadata

| Field        | Value    |
|--------------|----------|
| Entrypoint   | 0x00C3   |
| Data Size    | 17 bytes |
| Instructions | 7        |

```
      00 01 02 03 04 05 06 07  08 09 0A 0B 0C 0D 0E 0F
      -- -- -- -- -- -- -- --  -- -- -- -- -- -- -- --
00C0:          1E F0 FF FF 7F  6F 76 F8 FF FF 7F 1D 15     .....ov......
00D0: 80 23 21 00                                       .#!.            
```

#### Opcodes

```
  0: 0x00C3 [0x1E] EventEntity looks at LocalPlayer and starts talking
  1: 0x00C8 [0x6F] WAIT_FRAME_DELAY: Yield until WaitTime reaches zero
  2: 0x00C9 [0x76] CHECK_ENTITY_RENDER_FLAGS: Wait until EventEntity Render.Flags0 and Render.Flags3 conditions are met
  3: 0x00CE [0x1D] PRINT_EVENT_MESSAGE(message_id=14405*)
    → "Have you received consent from the three nations? Not yet, you say? Then I suggest you get moving."
  4: 0x00D1 [0x23] WAIT_FOR_DIALOG_INTERACTION
  5: 0x00D2 [0x21] END_EVENT
  6: 0x00D3 [0x00] END_REQSTACK()
```

### Event 65535.6

#### Metadata

| Field        | Value   |
|--------------|---------|
| Entrypoint   | 0x00D4  |
| Data Size    | 1 bytes |
| Instructions | 1       |

```
      00 01 02 03 04 05 06 07  08 09 0A 0B 0C 0D 0E 0F
      -- -- -- -- -- -- -- --  -- -- -- -- -- -- -- --
00D0:             00                                        .           
```

#### Opcodes

```
  0: 0x00D4 [0x00] END_REQSTACK()
```

### Event 65535.7

#### Metadata

| Field        | Value    |
|--------------|----------|
| Entrypoint   | 0x00D5   |
| Data Size    | 18 bytes |
| Instructions | 4        |

```
      00 01 02 03 04 05 06 07  08 09 0A 0B 0C 0D 0E 0F
      -- -- -- -- -- -- -- --  -- -- -- -- -- -- -- --
00D0:                22 00 2F  00 F8 FF FF 7F 6C F8 FF       "./.....l..
00E0: FF 7F 0F 80 0C 80 00                              .......         
```

#### Opcodes

```
  0: 0x00D5 [0x22] ENTITY_HIDE_FLAG(enabled=0x00)
  1: 0x00D7 [0x2F] EventEntity->Render.Flags0 &= ~0x80000 // Bit 19
  2: 0x00DD [0x6C] FADE_ENTITY_COLOR(entity_id=EventEntity, end_alpha=0*, fade_time=1*)
  3: 0x00E6 [0x00] END_REQSTACK()
```

### Event 65535.8

#### Metadata

| Field        | Value    |
|--------------|----------|
| Entrypoint   | 0x00E7   |
| Data Size    | 10 bytes |
| Instructions | 2        |

```
      00 01 02 03 04 05 06 07  08 09 0A 0B 0C 0D 0E 0F
      -- -- -- -- -- -- -- --  -- -- -- -- -- -- -- --
00E0:                      6C  F8 FF FF 7F 16 80 0C 80         l........
00F0: 00                                                .               
```

#### Opcodes

```
  0: 0x00E7 [0x6C] FADE_ENTITY_COLOR(entity_id=EventEntity, end_alpha=128*, fade_time=1*)
  1: 0x00F0 [0x00] END_REQSTACK()
```

### Event 65535.9

#### Metadata

| Field        | Value   |
|--------------|---------|
| Entrypoint   | 0x00F1  |
| Data Size    | 9 bytes |
| Instructions | 3       |

```
      00 01 02 03 04 05 06 07  08 09 0A 0B 0C 0D 0E 0F
      -- -- -- -- -- -- -- --  -- -- -- -- -- -- -- --
00F0:    22 00 2F 00 F8 FF FF  7F 00                     "./......      
```

#### Opcodes

```
  0: 0x00F1 [0x22] ENTITY_HIDE_FLAG(enabled=0x00)
  1: 0x00F3 [0x2F] EventEntity->Render.Flags0 &= ~0x80000 // Bit 19
  2: 0x00F9 [0x00] END_REQSTACK()
```

### Event 65535.10

#### Metadata

| Field        | Value   |
|--------------|---------|
| Entrypoint   | 0x00FA  |
| Data Size    | 9 bytes |
| Instructions | 3       |

```
      00 01 02 03 04 05 06 07  08 09 0A 0B 0C 0D 0E 0F
      -- -- -- -- -- -- -- --  -- -- -- -- -- -- -- --
00F0:                                22 01 2F 01 F8 FF            "./...
0100: FF 7F 00                                          ...             
```

#### Opcodes

```
  0: 0x00FA [0x22] ENTITY_HIDE_FLAG(enabled=0x01)
  1: 0x00FC [0x2F] EventEntity->Render.Flags0 |= 0x80000 // Bit 19
  2: 0x0102 [0x00] END_REQSTACK()
```

### Event 65535.11

#### Metadata

| Field        | Value    |
|--------------|----------|
| Entrypoint   | 0x0103   |
| Data Size    | 10 bytes |
| Instructions | 2        |

```
      00 01 02 03 04 05 06 07  08 09 0A 0B 0C 0D 0E 0F
      -- -- -- -- -- -- -- --  -- -- -- -- -- -- -- --
0100:          6C F8 FF FF 7F  0F 80 0C 80 00              l.........   
```

#### Opcodes

```
  0: 0x0103 [0x6C] FADE_ENTITY_COLOR(entity_id=EventEntity, end_alpha=0*, fade_time=1*)
  1: 0x010C [0x00] END_REQSTACK()
```

### Event 65535.12

#### Metadata

| Field        | Value    |
|--------------|----------|
| Entrypoint   | 0x010D   |
| Data Size    | 10 bytes |
| Instructions | 2        |

```
      00 01 02 03 04 05 06 07  08 09 0A 0B 0C 0D 0E 0F
      -- -- -- -- -- -- -- --  -- -- -- -- -- -- -- --
0100:                                         6C F8 FF               l..
0110: FF 7F 16 80 0C 80 00                              .......         
```

#### Opcodes

```
  0: 0x010D [0x6C] FADE_ENTITY_COLOR(entity_id=EventEntity, end_alpha=128*, fade_time=1*)
  1: 0x0116 [0x00] END_REQSTACK()
```

### Event 10188

#### Metadata

| Field        | Value   |
|--------------|---------|
| Entrypoint   | 0x0117  |
| Data Size    | 1 bytes |
| Instructions | 1       |

```
      00 01 02 03 04 05 06 07  08 09 0A 0B 0C 0D 0E 0F
      -- -- -- -- -- -- -- --  -- -- -- -- -- -- -- --
0110:                      00                                  .        
```

#### Opcodes

```
  0: 0x0117 [0x00] END_REQSTACK()
```

### Event 65535.13

#### Metadata

| Field        | Value    |
|--------------|----------|
| Entrypoint   | 0x0118   |
| Data Size    | 20 bytes |
| Instructions | 6        |

```
      00 01 02 03 04 05 06 07  08 09 0A 0B 0C 0D 0E 0F
      -- -- -- -- -- -- -- --  -- -- -- -- -- -- -- --
0110:                          32 17 80 1F 00 18 80 19          2.......
0120: 80 05 80 1F 01 6F 1E F0  FF FF 7F 00              .....o......    
```

#### Opcodes

```
  0: 0x0118 [0x32] ExtData[1]->MainSpeed = 11* * 0.1
  1: 0x011B [0x1F] MOVE_ENTITY: EventEntity moves to X=0.809*, Z=68.585*, Y=-4.999*
  2: 0x0123 [0x1F] MOVE_ENTITY: Update entity position (mode=1)
  3: 0x0125 [0x6F] WAIT_FRAME_DELAY: Yield until WaitTime reaches zero
  4: 0x0126 [0x1E] EventEntity looks at LocalPlayer and starts talking
  5: 0x012B [0x00] END_REQSTACK()
```

### Event 65535.14

#### Metadata

| Field        | Value    |
|--------------|----------|
| Entrypoint   | 0x012C   |
| Data Size    | 15 bytes |
| Instructions | 5        |

```
      00 01 02 03 04 05 06 07  08 09 0A 0B 0C 0D 0E 0F
      -- -- -- -- -- -- -- --  -- -- -- -- -- -- -- --
0120:                                      32 17 80 1F              2...
0130: 00 1A 80 1B 80 05 80 1F  01 6F 00                 .........o.     
```

#### Opcodes

```
  0: 0x012C [0x32] ExtData[1]->MainSpeed = 11* * 0.1
  1: 0x012F [0x1F] MOVE_ENTITY: EventEntity moves to X=-0.025*, Z=69.688*, Y=-4.999*
  2: 0x0137 [0x1F] MOVE_ENTITY: Update entity position (mode=1)
  3: 0x0139 [0x6F] WAIT_FRAME_DELAY: Yield until WaitTime reaches zero
  4: 0x013A [0x00] END_REQSTACK()
```

### Event 65535.15

#### Metadata

| Field        | Value    |
|--------------|----------|
| Entrypoint   | 0x013B   |
| Data Size    | 15 bytes |
| Instructions | 5        |

```
      00 01 02 03 04 05 06 07  08 09 0A 0B 0C 0D 0E 0F
      -- -- -- -- -- -- -- --  -- -- -- -- -- -- -- --
0130:                                   32 17 80 1F 00             2....
0140: 1C 80 1D 80 08 80 1F 01  6F 00                    ........o.      
```

#### Opcodes

```
  0: 0x013B [0x32] ExtData[1]->MainSpeed = 11* * 0.1
  1: 0x013E [0x1F] MOVE_ENTITY: EventEntity moves to X=-0.004*, Z=74.090*, Y=-5.000*
  2: 0x0146 [0x1F] MOVE_ENTITY: Update entity position (mode=1)
  3: 0x0148 [0x6F] WAIT_FRAME_DELAY: Yield until WaitTime reaches zero
  4: 0x0149 [0x00] END_REQSTACK()
```

### Event 65535.16

#### Metadata

| Field        | Value    |
|--------------|----------|
| Entrypoint   | 0x014A   |
| Data Size    | 32 bytes |
| Instructions | 8        |

```
      00 01 02 03 04 05 06 07  08 09 0A 0B 0C 0D 0E 0F
      -- -- -- -- -- -- -- --  -- -- -- -- -- -- -- --
0140:                                32 17 80 1F 00 18            2.....
0150: 80 19 80 05 80 1F 01 1F  00 1E 80 1F 80 05 80 1F  ................
0160: 01 6F 4B F8 FF FF 7F 20  80 00                    .oK.... ..      
```

#### Opcodes

```
  0: 0x014A [0x32] ExtData[1]->MainSpeed = 11* * 0.1
  1: 0x014D [0x1F] MOVE_ENTITY: EventEntity moves to X=0.809*, Z=68.585*, Y=-4.999*
  2: 0x0155 [0x1F] MOVE_ENTITY: Update entity position (mode=1)
  3: 0x0157 [0x1F] MOVE_ENTITY: EventEntity moves to X=2.397*, Z=68.749*, Y=-4.999*
  4: 0x015F [0x1F] MOVE_ENTITY: Update entity position (mode=1)
  5: 0x0161 [0x6F] WAIT_FRAME_DELAY: Yield until WaitTime reaches zero
  6: 0x0162 [0x4B] UPDATE_ENTITY_YAW(entity=EventEntity, yaw=5.6°*)
  7: 0x0169 [0x00] END_REQSTACK()
```

### Event 10199

#### Metadata

| Field        | Value   |
|--------------|---------|
| Entrypoint   | 0x016A  |
| Data Size    | 1 bytes |
| Instructions | 1       |

```
      00 01 02 03 04 05 06 07  08 09 0A 0B 0C 0D 0E 0F
      -- -- -- -- -- -- -- --  -- -- -- -- -- -- -- --
0160:                                00                           .     
```

#### Opcodes

```
  0: 0x016A [0x00] END_REQSTACK()
```

### Event 10200

#### Metadata

| Field        | Value   |
|--------------|---------|
| Entrypoint   | 0x016B  |
| Data Size    | 1 bytes |
| Instructions | 1       |

```
      00 01 02 03 04 05 06 07  08 09 0A 0B 0C 0D 0E 0F
      -- -- -- -- -- -- -- --  -- -- -- -- -- -- -- --
0160:                                   00                         .    
```

#### Opcodes

```
  0: 0x016B [0x00] END_REQSTACK()
```

### Event 65535.17

#### Metadata

| Field        | Value    |
|--------------|----------|
| Entrypoint   | 0x016C   |
| Data Size    | 30 bytes |
| Instructions | 6        |

```
      00 01 02 03 04 05 06 07  08 09 0A 0B 0C 0D 0E 0F
      -- -- -- -- -- -- -- --  -- -- -- -- -- -- -- --
0160:                                      32 21 80 1F              2!..
0170: 00 22 80 23 80 05 80 1F  01 6F 66 24 80 0D 30 0F  .".#.....of$..0.
0180: 01 0D 30 0F 01 73 68 61  30 00                    ..0..sha0.      
```

#### Opcodes

```
  0: 0x016C [0x32] ExtData[1]->MainSpeed = 40* * 0.1
  1: 0x016F [0x1F] MOVE_ENTITY: EventEntity moves to X=0.007*, Z=73.693*, Y=-4.999*
  2: 0x0177 [0x1F] MOVE_ENTITY: Update entity position (mode=1)
  3: 0x0179 [0x6F] WAIT_FRAME_DELAY: Yield until WaitTime reaches zero
  4: 0x017A [0x66] LOAD_EXT_SCHEDULER_MAIN: Load scheduler "sha0" with entities [High Wind (ID: 17772557/0x010F300D), High Wind (ID: 17772557/0x010F300D)], work=69*
  5: 0x0189 [0x00] END_REQSTACK()
```

### Event 65535.18

#### Metadata

| Field        | Value    |
|--------------|----------|
| Entrypoint   | 0x018A   |
| Data Size    | 14 bytes |
| Instructions | 4        |

```
      00 01 02 03 04 05 06 07  08 09 0A 0B 0C 0D 0E 0F
      -- -- -- -- -- -- -- --  -- -- -- -- -- -- -- --
0180:                                32 21 80 1F 00 25            2!...%
0190: 80 26 80 05 80 1F 01 00                           .&......        
```

#### Opcodes

```
  0: 0x018A [0x32] ExtData[1]->MainSpeed = 40* * 0.1
  1: 0x018D [0x1F] MOVE_ENTITY: EventEntity moves to X=-0.136*, Z=68.562*, Y=-4.999*
  2: 0x0195 [0x1F] MOVE_ENTITY: Update entity position (mode=1)
  3: 0x0197 [0x00] END_REQSTACK()
```
