# 17772561 - Adolie

## Common Data

| Field            | Value                     |
|------------------|---------------------------|
| Zone             | Ru'Lude Gardens (ID: 243) |
| Block Size       | 332 bytes                 |
| Total Events     | 11                        |
| References Count | 8                         |

## List of Events

| Event ID              | Entrypoint   |   Size |   Instructions |
|-----------------------|--------------|--------|----------------|
| [65535](#event-65535) | 0x0000       |      1 |              1 |
| [24](#event-24)       | 0x0001       |      1 |              1 |
| [30](#event-30)       | 0x0002       |      1 |              1 |
| [31](#event-31)       | 0x0003       |      1 |              1 |
| [32](#event-32)       | 0x0004       |      1 |              1 |
| [158](#event-158)     | 0x0005       |     60 |             10 |
| [98](#event-98)       | 0x0041       |      1 |              1 |
| [157](#event-157)     | 0x0042       |     60 |             10 |
| [97](#event-97)       | 0x007E       |      1 |              1 |
| [100](#event-100)     | 0x007F       |     60 |             10 |
| [10091](#event-10091) | 0x00BB       |     52 |             12 |

## DAT References (imed_data)

|   Index | Hex Value   |   Dec Value |
|---------|-------------|-------------|
|       0 | 0x0027      |          39 |
|       1 | 0x27F2      |       10226 |
|       2 | 0x27FF      |       10239 |
|       3 | 0x2802      |       10242 |
|       4 | 0x3610      |       13840 |
|       5 | 0x001E      |          30 |
|       6 | 0x3615      |       13845 |
|       7 | 0x3616      |       13846 |

## String References

- **13840**: <Player>'s badge flashes brightly.
- **13845**: Hm? I see you have one of those brass badges that Salaheem's Sentinels are handing out unauthorized. Let me take a look at it.
- **13846**: Interesting. Objects from the Near East seem to shine with a different light. I've heard that the president of Salaheem's Sentinels is quite tight-fisted, but at least this badge is quite luxurious.

## Events

### Event 65535

#### Metadata

| Field        | Value   |
|--------------|---------|
| Entrypoint   | 0x0000  |
| Data Size    | 1 bytes |
| Instructions | 1       |

```
      00 01 02 03 04 05 06 07  08 09 0A 0B 0C 0D 0E 0F
      -- -- -- -- -- -- -- --  -- -- -- -- -- -- -- --
0000: 00                                                .               
```

#### Opcodes

```
  0: 0x0000 [0x00] END_REQSTACK()
```

### Event 24

#### Metadata

| Field        | Value   |
|--------------|---------|
| Entrypoint   | 0x0001  |
| Data Size    | 1 bytes |
| Instructions | 1       |

```
      00 01 02 03 04 05 06 07  08 09 0A 0B 0C 0D 0E 0F
      -- -- -- -- -- -- -- --  -- -- -- -- -- -- -- --
0000:    00                                              .              
```

#### Opcodes

```
  0: 0x0001 [0x00] END_REQSTACK()
```

### Event 30

#### Metadata

| Field        | Value   |
|--------------|---------|
| Entrypoint   | 0x0002  |
| Data Size    | 1 bytes |
| Instructions | 1       |

```
      00 01 02 03 04 05 06 07  08 09 0A 0B 0C 0D 0E 0F
      -- -- -- -- -- -- -- --  -- -- -- -- -- -- -- --
0000:       00                                            .             
```

#### Opcodes

```
  0: 0x0002 [0x00] END_REQSTACK()
```

### Event 31

#### Metadata

| Field        | Value   |
|--------------|---------|
| Entrypoint   | 0x0003  |
| Data Size    | 1 bytes |
| Instructions | 1       |

```
      00 01 02 03 04 05 06 07  08 09 0A 0B 0C 0D 0E 0F
      -- -- -- -- -- -- -- --  -- -- -- -- -- -- -- --
0000:          00                                          .            
```

#### Opcodes

```
  0: 0x0003 [0x00] END_REQSTACK()
```

### Event 32

#### Metadata

| Field        | Value   |
|--------------|---------|
| Entrypoint   | 0x0004  |
| Data Size    | 1 bytes |
| Instructions | 1       |

```
      00 01 02 03 04 05 06 07  08 09 0A 0B 0C 0D 0E 0F
      -- -- -- -- -- -- -- --  -- -- -- -- -- -- -- --
0000:             00                                        .           
```

#### Opcodes

```
  0: 0x0004 [0x00] END_REQSTACK()
```

### Event 158

#### Metadata

| Field        | Value    |
|--------------|----------|
| Entrypoint   | 0x0005   |
| Data Size    | 60 bytes |
| Instructions | 10       |

```
      00 01 02 03 04 05 06 07  08 09 0A 0B 0C 0D 0E 0F
      -- -- -- -- -- -- -- --  -- -- -- -- -- -- -- --
0000:                1E F0 FF  FF 7F 6F 70 66 00 80 F8       .....opf...
0010: FF FF 7F F8 FF FF 7F 74  6C 6B 30 2B 11 30 0F 01  .......tlk0+.0..
0020: 01 80 23 66 00 80 F8 FF  FF 7F F8 FF FF 7F 74 6C  ..#f..........tl
0030: 6B 31 53 F8 FF FF 7F F8  FF FF 7F 74 6C 6B 31 21  k1S........tlk1!
0040: 00                                                .               
```

#### Opcodes

```
  0: 0x0005 [0x1E] EventEntity looks at LocalPlayer and starts talking
  1: 0x000A [0x6F] WAIT_FRAME_DELAY: Yield until WaitTime reaches zero
  2: 0x000B [0x70] WAIT_ENTITY_RENDER_FLAG: Wait while EventEntity->Render.Flags3 bit 2 is set (cancel turn if not)
  3: 0x000C [0x66] LOAD_EXT_SCHEDULER_MAIN: Load scheduler "tlk0" with entities [EventEntity, EventEntity], work=39*
  4: 0x001B [0x2B] Adolie (ID: 17772561/0x010F3011) [10226*]:
    → "I bet things are brewing that are way too crazy for us to imagine."
  5: 0x0022 [0x23] WAIT_FOR_DIALOG_INTERACTION
  6: 0x0023 [0x66] LOAD_EXT_SCHEDULER_MAIN: Load scheduler "tlk1" with entities [EventEntity, EventEntity], work=39*
  7: 0x0032 [0x53] WAIT_SCHEDULER_TASK: Wait for scheduler "tlk1" with entities [EventEntity, EventEntity]
  8: 0x003F [0x21] END_EVENT
  9: 0x0040 [0x00] END_REQSTACK()
```

### Event 98

#### Metadata

| Field        | Value   |
|--------------|---------|
| Entrypoint   | 0x0041  |
| Data Size    | 1 bytes |
| Instructions | 1       |

```
      00 01 02 03 04 05 06 07  08 09 0A 0B 0C 0D 0E 0F
      -- -- -- -- -- -- -- --  -- -- -- -- -- -- -- --
0040:    00                                              .              
```

#### Opcodes

```
  0: 0x0041 [0x00] END_REQSTACK()
```

### Event 157

#### Metadata

| Field        | Value    |
|--------------|----------|
| Entrypoint   | 0x0042   |
| Data Size    | 60 bytes |
| Instructions | 10       |

```
      00 01 02 03 04 05 06 07  08 09 0A 0B 0C 0D 0E 0F
      -- -- -- -- -- -- -- --  -- -- -- -- -- -- -- --
0040:       1E F0 FF FF 7F 6F  70 66 00 80 F8 FF FF 7F    .....opf......
0050: F8 FF FF 7F 74 6C 6B 30  2B 11 30 0F 01 02 80 23  ....tlk0+.0....#
0060: 66 00 80 F8 FF FF 7F F8  FF FF 7F 74 6C 6B 31 53  f..........tlk1S
0070: F8 FF FF 7F F8 FF FF 7F  74 6C 6B 31 21 00        ........tlk1!.  
```

#### Opcodes

```
  0: 0x0042 [0x1E] EventEntity looks at LocalPlayer and starts talking
  1: 0x0047 [0x6F] WAIT_FRAME_DELAY: Yield until WaitTime reaches zero
  2: 0x0048 [0x70] WAIT_ENTITY_RENDER_FLAG: Wait while EventEntity->Render.Flags3 bit 2 is set (cancel turn if not)
  3: 0x0049 [0x66] LOAD_EXT_SCHEDULER_MAIN: Load scheduler "tlk0" with entities [EventEntity, EventEntity], work=39*
  4: 0x0058 [0x2B] Adolie (ID: 17772561/0x010F3011) [10239*]:
    → "If you knew exactly which spirit is doing the possessing, then you can figure out how to exorcise it. But that's the last resort, you know?"
  5: 0x005F [0x23] WAIT_FOR_DIALOG_INTERACTION
  6: 0x0060 [0x66] LOAD_EXT_SCHEDULER_MAIN: Load scheduler "tlk1" with entities [EventEntity, EventEntity], work=39*
  7: 0x006F [0x53] WAIT_SCHEDULER_TASK: Wait for scheduler "tlk1" with entities [EventEntity, EventEntity]
  8: 0x007C [0x21] END_EVENT
  9: 0x007D [0x00] END_REQSTACK()
```

### Event 97

#### Metadata

| Field        | Value   |
|--------------|---------|
| Entrypoint   | 0x007E  |
| Data Size    | 1 bytes |
| Instructions | 1       |

```
      00 01 02 03 04 05 06 07  08 09 0A 0B 0C 0D 0E 0F
      -- -- -- -- -- -- -- --  -- -- -- -- -- -- -- --
0070:                                            00                   . 
```

#### Opcodes

```
  0: 0x007E [0x00] END_REQSTACK()
```

### Event 100

#### Metadata

| Field        | Value    |
|--------------|----------|
| Entrypoint   | 0x007F   |
| Data Size    | 60 bytes |
| Instructions | 10       |

```
      00 01 02 03 04 05 06 07  08 09 0A 0B 0C 0D 0E 0F
      -- -- -- -- -- -- -- --  -- -- -- -- -- -- -- --
0070:                                               1E                 .
0080: F0 FF FF 7F 6F 70 66 00  80 F8 FF FF 7F F8 FF FF  ....opf.........
0090: 7F 74 6C 6B 30 2B 11 30  0F 01 03 80 23 66 00 80  .tlk0+.0....#f..
00A0: F8 FF FF 7F F8 FF FF 7F  74 6C 6B 31 53 F8 FF FF  ........tlk1S...
00B0: 7F F8 FF FF 7F 74 6C 6B  31 21 00                 .....tlk1!.     
```

#### Opcodes

```
  0: 0x007F [0x1E] EventEntity looks at LocalPlayer and starts talking
  1: 0x0084 [0x6F] WAIT_FRAME_DELAY: Yield until WaitTime reaches zero
  2: 0x0085 [0x70] WAIT_ENTITY_RENDER_FLAG: Wait while EventEntity->Render.Flags3 bit 2 is set (cancel turn if not)
  3: 0x0086 [0x66] LOAD_EXT_SCHEDULER_MAIN: Load scheduler "tlk0" with entities [EventEntity, EventEntity], work=39*
  4: 0x0095 [0x2B] Adolie (ID: 17772561/0x010F3011) [10242*]:
    → "I always wondered how someone of his height lit that lantern."
  5: 0x009C [0x23] WAIT_FOR_DIALOG_INTERACTION
  6: 0x009D [0x66] LOAD_EXT_SCHEDULER_MAIN: Load scheduler "tlk1" with entities [EventEntity, EventEntity], work=39*
  7: 0x00AC [0x53] WAIT_SCHEDULER_TASK: Wait for scheduler "tlk1" with entities [EventEntity, EventEntity]
  8: 0x00B9 [0x21] END_EVENT
  9: 0x00BA [0x00] END_REQSTACK()
```

### Event 10091

#### Metadata

| Field        | Value    |
|--------------|----------|
| Entrypoint   | 0x00BB   |
| Data Size    | 52 bytes |
| Instructions | 12       |

```
      00 01 02 03 04 05 06 07  08 09 0A 0B 0C 0D 0E 0F
      -- -- -- -- -- -- -- --  -- -- -- -- -- -- -- --
00B0:                                   42 48 04 80 1E             BH...
00C0: F0 FF FF 7F 1C 05 80 1D  06 80 23 66 00 80 F8 FF  ..........#f....
00D0: FF 7F F8 FF FF 7F 74 6C  6B 30 1D 07 80 23 66 00  ......tlk0...#f.
00E0: 80 F8 FF FF 7F F8 FF FF  7F 74 6C 6B 31 21 00     .........tlk1!. 
```

#### Opcodes

```
  0: 0x00BB [0x42] SET_CLI_EVENT_CANCEL_DATA()
  1: 0x00BC [0x48] [System] [13840*]:
    → "<Player>'s badge flashes brightly."
  2: 0x00BF [0x1E] EventEntity looks at LocalPlayer and starts talking
  3: 0x00C4 [0x1C] WAIT(30* ticks)
  4: 0x00C7 [0x1D] PRINT_EVENT_MESSAGE(message_id=13845*)
    → "Hm? I see you have one of those brass badges that Salaheem's Sentinels are handing out unauthorized. Let me take a look at it."
  5: 0x00CA [0x23] WAIT_FOR_DIALOG_INTERACTION
  6: 0x00CB [0x66] LOAD_EXT_SCHEDULER_MAIN: Load scheduler "tlk0" with entities [EventEntity, EventEntity], work=39*
  7: 0x00DA [0x1D] PRINT_EVENT_MESSAGE(message_id=13846*)
    → "Interesting. Objects from the Near East seem to shine with a different light. I've heard that the president of Salaheem's Sentinels is quite tight-fisted, but at least this badge is quite luxurious."
  8: 0x00DD [0x23] WAIT_FOR_DIALOG_INTERACTION
  9: 0x00DE [0x66] LOAD_EXT_SCHEDULER_MAIN: Load scheduler "tlk1" with entities [EventEntity, EventEntity], work=39*
 10: 0x00ED [0x21] END_EVENT
 11: 0x00EE [0x00] END_REQSTACK()
```
