# 17772769

## Common Data

| Field            | Value                     |
|------------------|---------------------------|
| Zone             | Ru'Lude Gardens (ID: 243) |
| Block Size       | 360 bytes                 |
| Total Events     | 9                         |
| References Count | 18                        |

## List of Events

| Event ID                 | Entrypoint   |   Size |   Instructions |
|--------------------------|--------------|--------|----------------|
| [65535](#event-65535)    | 0x0000       |      1 |              1 |
| [10192](#event-10192)    | 0x0001       |      4 |              2 |
| [65535.1](#event-655351) | 0x0005       |     10 |              2 |
| [65535.2](#event-655352) | 0x000F       |     45 |              9 |
| [65535.3](#event-655353) | 0x003C       |     84 |             12 |
| [65535.4](#event-655354) | 0x0090       |     27 |              7 |
| [65535.5](#event-655355) | 0x00AB       |     27 |              7 |
| [65535.6](#event-655356) | 0x00C6       |     27 |              7 |
| [65535.7](#event-655357) | 0x00E1       |     10 |              2 |

## DAT References (imed_data)

|   Index | Hex Value   |   Dec Value |
|---------|-------------|-------------|
|       0 | 0x0001      |           1 |
|       1 | 0x2215      |        8725 |
|       2 | 0x1D048     |      118856 |
|       3 | 0x0C1C      |        3100 |
|       4 | 0x0C78      |        3192 |
|       5 | 0x012C      |         300 |
|       6 | 0x005A      |          90 |
|       7 | 0x0000      |           0 |
|       8 | 0x0040      |          64 |
|       9 | 0x00B4      |         180 |
|      10 | 0x0124      |         292 |
|      11 | 0x003C      |          60 |
|      12 | 0x0080      |         128 |
|      13 | 0x0078      |         120 |
|      14 | 0x07CC      |        1996 |
|      15 | 0x0046      |          70 |
|      16 | 0x0096      |         150 |
|      17 | 0x0064      |         100 |

## Events

### Event 65535

#### Metadata

| Field        | Value   |
|--------------|---------|
| Entrypoint   | 0x0000  |
| Data Size    | 1 bytes |
| Instructions | 1       |

```
      00 01 02 03 04 05 06 07  08 09 0A 0B 0C 0D 0E 0F
      -- -- -- -- -- -- -- --  -- -- -- -- -- -- -- --
0000: 00                                                .               
```

#### Opcodes

```
  0: 0x0000 [0x00] END_REQSTACK()
```

### Event 10192

#### Metadata

| Field        | Value   |
|--------------|---------|
| Entrypoint   | 0x0001  |
| Data Size    | 4 bytes |
| Instructions | 2       |

```
      00 01 02 03 04 05 06 07  08 09 0A 0B 0C 0D 0E 0F
      -- -- -- -- -- -- -- --  -- -- -- -- -- -- -- --
0000:    C0 00 80 00                                     ....           
```

#### Opcodes

```
  0: 0x0001 [0xC0] EventEntity->Render.Flags3 |= 0x1000 // Set bit 12 (from 1*)
  1: 0x0004 [0x00] END_REQSTACK()
```

### Event 65535.1

#### Metadata

| Field        | Value    |
|--------------|----------|
| Entrypoint   | 0x0005   |
| Data Size    | 10 bytes |
| Instructions | 2        |

```
      00 01 02 03 04 05 06 07  08 09 0A 0B 0C 0D 0E 0F
      -- -- -- -- -- -- -- --  -- -- -- -- -- -- -- --
0000:                37 01 80  02 80 03 80 04 80 00          7......... 
```

#### Opcodes

```
  0: 0x0005 [0x37] UPDATE_EVENT_POSITION_AND_DIR: x=8.725*, z=118.856*, y=3.100*, direction=280.5°*
  1: 0x000E [0x00] END_REQSTACK()
```

### Event 65535.2

#### Metadata

| Field        | Value    |
|--------------|----------|
| Entrypoint   | 0x000F   |
| Data Size    | 45 bytes |
| Instructions | 9        |

```
      00 01 02 03 04 05 06 07  08 09 0A 0B 0C 0D 0E 0F
      -- -- -- -- -- -- -- --  -- -- -- -- -- -- -- --
0000:                                               22                 "
0010: 01 B6 00 05 80 B6 0F 06  80 80 F8 FF FF 7F 6C F8  ..............l.
0020: FF FF 7F 07 80 00 80 22  00 6C F8 FF FF 7F 08 80  .......".l......
0030: 09 80 6C F8 FF FF 7F 07  80 09 80 00              ..l.........    
```

#### Opcodes

```
  0: 0x000F [0x22] ENTITY_HIDE_FLAG(enabled=0x01)
  1: 0x0011 [0xB6] ENTITY_APPEARANCE_HANDLER(case=Hair style, value=300*)
  2: 0x0015 [0xB6] ENTITY_APPEARANCE_HANDLER(case=Model size, value=90*)
  3: 0x0019 [0x80] LOAD_WAIT(entity=EventEntity)
  4: 0x001E [0x6C] FADE_ENTITY_COLOR(entity_id=EventEntity, end_alpha=0*, fade_time=1*)
  5: 0x0027 [0x22] ENTITY_HIDE_FLAG(enabled=0x00)
  6: 0x0029 [0x6C] FADE_ENTITY_COLOR(entity_id=EventEntity, end_alpha=64*, fade_time=180*)
  7: 0x0032 [0x6C] FADE_ENTITY_COLOR(entity_id=EventEntity, end_alpha=0*, fade_time=180*)
  8: 0x003B [0x00] END_REQSTACK()
```

### Event 65535.3

#### Metadata

| Field        | Value    |
|--------------|----------|
| Entrypoint   | 0x003C   |
| Data Size    | 84 bytes |
| Instructions | 12       |

```
      00 01 02 03 04 05 06 07  08 09 0A 0B 0C 0D 0E 0F
      -- -- -- -- -- -- -- --  -- -- -- -- -- -- -- --
0030:                                      22 01 2C F8              ".,.
0040: FF FF 7F F8 FF FF 7F 70  6F 70 30 B6 00 0A 80 B6  .......pop0.....
0050: 0F 0B 80 80 F8 FF FF 7F  6C F8 FF FF 7F 07 80 00  ........l.......
0060: 80 22 00 6C F8 FF FF 7F  0C 80 09 80 2C F8 FF FF  .".l........,...
0070: 7F F8 FF FF 7F 64 65 61  64 53 F8 FF FF 7F F8 FF  .....deadS......
0080: FF 7F 64 65 61 64 6C F8  FF FF 7F 07 80 0D 80 00  ..deadl.........
```

#### Opcodes

```
  0: 0x003C [0x22] ENTITY_HIDE_FLAG(enabled=0x01)
  1: 0x003E [0x2C] CREATE_SCHEDULER_TASK: Create scheduler "pop0" with entities [EventEntity, EventEntity]
  2: 0x004B [0xB6] ENTITY_APPEARANCE_HANDLER(case=Hair style, value=292*)
  3: 0x004F [0xB6] ENTITY_APPEARANCE_HANDLER(case=Model size, value=60*)
  4: 0x0053 [0x80] LOAD_WAIT(entity=EventEntity)
  5: 0x0058 [0x6C] FADE_ENTITY_COLOR(entity_id=EventEntity, end_alpha=0*, fade_time=1*)
  6: 0x0061 [0x22] ENTITY_HIDE_FLAG(enabled=0x00)
  7: 0x0063 [0x6C] FADE_ENTITY_COLOR(entity_id=EventEntity, end_alpha=128*, fade_time=180*)
  8: 0x006C [0x2C] CREATE_SCHEDULER_TASK: Create scheduler "dead" with entities [EventEntity, EventEntity]
  9: 0x0079 [0x53] WAIT_SCHEDULER_TASK: Wait for scheduler "dead" with entities [EventEntity, EventEntity]
 10: 0x0086 [0x6C] FADE_ENTITY_COLOR(entity_id=EventEntity, end_alpha=0*, fade_time=120*)
 11: 0x008F [0x00] END_REQSTACK()
```

### Event 65535.4

#### Metadata

| Field        | Value    |
|--------------|----------|
| Entrypoint   | 0x0090   |
| Data Size    | 27 bytes |
| Instructions | 7        |

```
      00 01 02 03 04 05 06 07  08 09 0A 0B 0C 0D 0E 0F
      -- -- -- -- -- -- -- --  -- -- -- -- -- -- -- --
0090: 22 01 B6 00 0E 80 B6 0F  0F 80 80 F8 FF FF 7F 22  ".............."
00A0: 00 6C F8 FF FF 7F 0C 80  09 80 00                 .l.........     
```

#### Opcodes

```
  0: 0x0090 [0x22] ENTITY_HIDE_FLAG(enabled=0x01)
  1: 0x0092 [0xB6] ENTITY_APPEARANCE_HANDLER(case=Hair style, value=1996*)
  2: 0x0096 [0xB6] ENTITY_APPEARANCE_HANDLER(case=Model size, value=70*)
  3: 0x009A [0x80] LOAD_WAIT(entity=EventEntity)
  4: 0x009F [0x22] ENTITY_HIDE_FLAG(enabled=0x00)
  5: 0x00A1 [0x6C] FADE_ENTITY_COLOR(entity_id=EventEntity, end_alpha=128*, fade_time=180*)
  6: 0x00AA [0x00] END_REQSTACK()
```

### Event 65535.5

#### Metadata

| Field        | Value    |
|--------------|----------|
| Entrypoint   | 0x00AB   |
| Data Size    | 27 bytes |
| Instructions | 7        |

```
      00 01 02 03 04 05 06 07  08 09 0A 0B 0C 0D 0E 0F
      -- -- -- -- -- -- -- --  -- -- -- -- -- -- -- --
00A0:                                   22 01 B6 00 0E             "....
00B0: 80 B6 0F 10 80 80 F8 FF  FF 7F 22 00 6C F8 FF FF  ..........".l...
00C0: 7F 0C 80 09 80 00                                 ......          
```

#### Opcodes

```
  0: 0x00AB [0x22] ENTITY_HIDE_FLAG(enabled=0x01)
  1: 0x00AD [0xB6] ENTITY_APPEARANCE_HANDLER(case=Hair style, value=1996*)
  2: 0x00B1 [0xB6] ENTITY_APPEARANCE_HANDLER(case=Model size, value=150*)
  3: 0x00B5 [0x80] LOAD_WAIT(entity=EventEntity)
  4: 0x00BA [0x22] ENTITY_HIDE_FLAG(enabled=0x00)
  5: 0x00BC [0x6C] FADE_ENTITY_COLOR(entity_id=EventEntity, end_alpha=128*, fade_time=180*)
  6: 0x00C5 [0x00] END_REQSTACK()
```

### Event 65535.6

#### Metadata

| Field        | Value    |
|--------------|----------|
| Entrypoint   | 0x00C6   |
| Data Size    | 27 bytes |
| Instructions | 7        |

```
      00 01 02 03 04 05 06 07  08 09 0A 0B 0C 0D 0E 0F
      -- -- -- -- -- -- -- --  -- -- -- -- -- -- -- --
00C0:                   22 01  B6 00 0E 80 B6 0F 11 80        ".........
00D0: 80 F8 FF FF 7F 22 00 6C  F8 FF FF 7F 0C 80 09 80  .....".l........
00E0: 00                                                .               
```

#### Opcodes

```
  0: 0x00C6 [0x22] ENTITY_HIDE_FLAG(enabled=0x01)
  1: 0x00C8 [0xB6] ENTITY_APPEARANCE_HANDLER(case=Hair style, value=1996*)
  2: 0x00CC [0xB6] ENTITY_APPEARANCE_HANDLER(case=Model size, value=100*)
  3: 0x00D0 [0x80] LOAD_WAIT(entity=EventEntity)
  4: 0x00D5 [0x22] ENTITY_HIDE_FLAG(enabled=0x00)
  5: 0x00D7 [0x6C] FADE_ENTITY_COLOR(entity_id=EventEntity, end_alpha=128*, fade_time=180*)
  6: 0x00E0 [0x00] END_REQSTACK()
```

### Event 65535.7

#### Metadata

| Field        | Value    |
|--------------|----------|
| Entrypoint   | 0x00E1   |
| Data Size    | 10 bytes |
| Instructions | 2        |

```
      00 01 02 03 04 05 06 07  08 09 0A 0B 0C 0D 0E 0F
      -- -- -- -- -- -- -- --  -- -- -- -- -- -- -- --
00E0:    6C F8 FF FF 7F 07 80  0D 80 00                  l.........     
```

#### Opcodes

```
  0: 0x00E1 [0x6C] FADE_ENTITY_COLOR(entity_id=EventEntity, end_alpha=0*, fade_time=120*)
  1: 0x00EA [0x00] END_REQSTACK()
```
