# 17772588

## Common Data

| Field            | Value                     |
|------------------|---------------------------|
| Zone             | Ru'Lude Gardens (ID: 243) |
| Block Size       | 112 bytes                 |
| Total Events     | 3                         |
| References Count | 4                         |

## List of Events

| Event ID                 | Entrypoint   |   Size |   Instructions |
|--------------------------|--------------|--------|----------------|
| [65535](#event-65535)    | 0x0000       |      1 |              1 |
| [59](#event-59)          | 0x0001       |     35 |              6 |
| [65535.1](#event-655351) | 0x0024       |     31 |              7 |

## DAT References (imed_data)

|   Index | Hex Value   |   Dec Value |
|---------|-------------|-------------|
|       0 | 0x32C7      |       12999 |
|       1 | 0x270F      |        9999 |
|       2 | 0x0032      |          50 |
|       3 | 0x0001      |           1 |

## Events

### Event 65535

#### Metadata

| Field        | Value   |
|--------------|---------|
| Entrypoint   | 0x0000  |
| Data Size    | 1 bytes |
| Instructions | 1       |

```
      00 01 02 03 04 05 06 07  08 09 0A 0B 0C 0D 0E 0F
      -- -- -- -- -- -- -- --  -- -- -- -- -- -- -- --
0000: 00                                                .               
```

#### Opcodes

```
  0: 0x0000 [0x00] END_REQSTACK()
```

### Event 59

#### Metadata

| Field        | Value    |
|--------------|----------|
| Entrypoint   | 0x0001   |
| Data Size    | 35 bytes |
| Instructions | 6        |

```
      00 01 02 03 04 05 06 07  08 09 0A 0B 0C 0D 0E 0F
      -- -- -- -- -- -- -- --  -- -- -- -- -- -- -- --
0000:    33 01 3B F8 FF FF 7F  00 00 01 00 02 00 3A F8   3.;..........:.
0010: FF FF 7F 03 00 03 02 00  00 80 37 00 00 01 00 02  ..........7.....
0020: 00 03 00 00                                       ....            
```

#### Opcodes

```
  0: 0x0001 [0x33] EventEntity->Render.Flags0 |= 0x200000 // Bit 21 (flag=0x01)
  1: 0x0003 [0x3B] GET_ENTITY_POSITION(entity=EventEntity, x_destination=ExtData[1]->WorkLocal[0], y_destination=ExtData[1]->WorkLocal[1], z_destination=ExtData[1]->WorkLocal[2])
  2: 0x000E [0x3A] CONVERT_YAW_TO_BYTE(entity=EventEntity, result_destination=ExtData[1]->WorkLocal[3])
  3: 0x0015 [0x03] ExtData[1]->WorkLocal[2] = 12999*
  4: 0x001A [0x37] UPDATE_EVENT_POSITION_AND_DIR: x=ExtData[1]->WorkLocal[0], z=ExtData[1]->WorkLocal[1], y=ExtData[1]->WorkLocal[2], direction=ExtData[1]->WorkLocal[3]
  5: 0x0023 [0x00] END_REQSTACK()
```

### Event 65535.1

#### Metadata

| Field        | Value    |
|--------------|----------|
| Entrypoint   | 0x0024   |
| Data Size    | 31 bytes |
| Instructions | 7        |

```
      00 01 02 03 04 05 06 07  08 09 0A 0B 0C 0D 0E 0F
      -- -- -- -- -- -- -- --  -- -- -- -- -- -- -- --
0020:             02 02 00 01  80 04 40 00 37 00 00 01      ......@.7...
0030: 00 02 00 03 00 08 02 00  02 80 1C 03 80 01 24 00  ..............$.
0040: 33 00 00                                          3..             
```

#### Opcodes

```
  0: 0x0024 [0x02] IF !(ExtData[1]->WorkLocal[2] < 9999*) GOTO 0x0040
  1: 0x002C [0x37] UPDATE_EVENT_POSITION_AND_DIR: x=ExtData[1]->WorkLocal[0], z=ExtData[1]->WorkLocal[1], y=ExtData[1]->WorkLocal[2], direction=ExtData[1]->WorkLocal[3]
  2: 0x0035 [0x08] ExtData[1]->WorkLocal[2] -= 50*
  3: 0x003A [0x1C] WAIT(1* ticks)
  4: 0x003D [0x01] GOTO 0x0024
  5: 0x0040 [0x33] EventEntity->Render.Flags0 &= ~ 0x200000 // Bit 21 (flag=0x00)
  6: 0x0042 [0x00] END_REQSTACK()
```
