# 17772867 - Enigmatic Footprints 1

## Common Data

| Field            | Value                     |
|------------------|---------------------------|
| Zone             | Ru'Lude Gardens (ID: 243) |
| Block Size       | 1684 bytes                |
| Total Events     | 6                         |
| References Count | 48                        |

## List of Events

| Event ID              | Entrypoint   |   Size |   Instructions |
|-----------------------|--------------|--------|----------------|
| [65535](#event-65535) | 0x0000       |      1 |              1 |
| [10276](#event-10276) | 0x0001       |    545 |            132 |
| [10279](#event-10279) | 0x0222       |    168 |             38 |
| [10280](#event-10280) | 0x02CA       |    230 |             52 |
| [10298](#event-10298) | 0x03B0       |    147 |             28 |
| [10281](#event-10281) | 0x0443       |    361 |             69 |

## DAT References (imed_data)

|   Index | Hex Value   |   Dec Value |
|---------|-------------|-------------|
|       0 | 0x0000      |           0 |
|       1 | 0x0002      |           2 |
|       2 | 0x0004      |           4 |
|       3 | 0x00E6      |         230 |
|       4 | 0x00EA      |         234 |
|       5 | 0x0001      |           1 |
|       6 | 0x00EF      |         239 |
|       7 | 0x00F3      |         243 |
|       8 | 0x0003      |           3 |
|       9 | 0x0C54      |        3156 |
|      10 | 0x3E31      |       15921 |
|      11 | 0x000E      |          14 |
|      12 | 0x3E5E      |       15966 |
|      13 | 0x0018      |          24 |
|      14 | 0x001F      |          31 |
|      15 | 0x0005      |           5 |
|      16 | 0x40000000  |  1073741824 |
|      17 | 0x3E43      |       15939 |
|      18 | 0x3E42      |       15938 |
|      19 | 0x3E49      |       15945 |
|      20 | 0x3E34      |       15924 |
|      21 | 0x000B      |          11 |
|      22 | 0x3E36      |       15926 |
|      23 | 0x003C      |          60 |
|      24 | 0x3E63      |       15971 |
|      25 | 0x3E64      |       15972 |
|      26 | 0x3E65      |       15973 |
|      27 | 0x3E66      |       15974 |
|      28 | 0x3E67      |       15975 |
|      29 | 0x3E4D      |       15949 |
|      30 | 0x3E4F      |       15951 |
|      31 | 0x3E4C      |       15948 |
|      32 | 0x3E4E      |       15950 |
|      33 | 0x3E50      |       15952 |
|      34 | 0x3E33      |       15923 |
|      35 | 0x3E35      |       15925 |
|      36 | 0x3E5B      |       15963 |
|      37 | 0x3E32      |       15922 |
|      38 | 0x3E75      |       15989 |
|      39 | 0x0032      |          50 |
|      40 | 0x3E7E      |       15998 |
|      41 | 0x0008      |           8 |
|      42 | 0x000F      |          15 |
|      43 | 0x0006      |           6 |
|      44 | 0x005A      |          90 |
|      45 | 0x00C9      |         201 |
|      46 | 0x002D      |          45 |
|      47 | 0x00C8      |         200 |

## String References

- **15921**: Attempt which? (Auto-transport: [off/on]) [None./[D. San d'Oria/D. Bastok/D. Windurst/ D. Jeuno] (CL:$1)/$3 status./Switch $3 use state. ([off/on])/Occupying Dynamis./Toggle auto-transport.]
- **15922**: Instance Setting (Auto-transport: ([off/on]) [Back./$3 status./Switch $3 use state. ([off/on])/Toggle auto-transport.]
- **15923**: Only party members present with you in this area will be transported to [D. San d'Oria/D. Bastok/D. Windurst/D. Jeuno].
- **15924**: [Apply to proceed/Proceed]? [Definitely!/Not yet.]
- **15925**: Entering [D. San d'Oria/D. Bastok/D. Windurst/D. Jeuno].
- **15926**: You have chosen not to [apply to/enter] [D. San d'Oria/D. Bastok/D. Windurst/D. Jeuno].
- **15938**: You will be able to call forth up to $4 alter ego[/s] given the current number of players in your party.
- **15939**: Treasure chest bonuses are now active!
- **15945**: Applying to enter [D. San d'Oria/D. Bastok/D. Windurst/D. Jeuno]. You will be unable to participate if you add any more party members. Are you sure?
- **15948**: You are currently number $3 in line to be drawn into this nightmare.
- **15949**: You are currently number $3 in line, with $2 in front of you.
- **15950**: Prepare yourselves! The battlefield is almost ready!
- **15951**: You are currently applying to enter [D. San d'Oria/D. Bastok/D. Windurst/D. Jeuno].
- **15952**: Your number: $3. (Auto-transport: [off/on]) [Remove your name./Toggle auto-transport./Close dialogue.]
- **15963**: Your $3 fills with sand.
- **15966**: Enter by :: on //.
- **15971**: Between 3 and 18 people may enter. The party leader must apply to enter.
- **15972**: At least 60 minutes must have passed since your previous entry for you to enter again. This applies to all Dynamis - Divergence areas.
- **15973**: Your $3 stores time inside of it, enabling you to decrease the amount of time needed until you can enter once more.
- **15974**: The time limit is $11 minutes, although this can be extended by completing certain objectives.
- **15975**: You will be forceably removed once time expires.
- **15989**: Debug menu. [Check information./View applicants./Applicant parameters./Change maximum limit./Clear applications./Testing./Jump./Close dialogue.]
- **15998**: Designate a value between $0 and $1.

## Events

### Event 65535

#### Metadata

| Field        | Value   |
|--------------|---------|
| Entrypoint   | 0x0000  |
| Data Size    | 1 bytes |
| Instructions | 1       |

```
      00 01 02 03 04 05 06 07  08 09 0A 0B 0C 0D 0E 0F
      -- -- -- -- -- -- -- --  -- -- -- -- -- -- -- --
0000: 00                                                .               
```

#### Opcodes

```
  0: 0x0000 [0x00] END_REQSTACK()
```

### Event 10276

#### Metadata

| Field        | Value     |
|--------------|-----------|
| Entrypoint   | 0x0001    |
| Data Size    | 545 bytes |
| Instructions | 104       |

```
      00 01 02 03 04 05 06 07  08 09 0A 0B 0C 0D 0E 0F
      -- -- -- -- -- -- -- --  -- -- -- -- -- -- -- --
0000:    42 03 07 00 02 10 03  04 00 03 10 03 13 00 04   B..............
0010: 10 03 0B 00 06 10 03 0E  00 07 10 03 10 00 08 10  ................
0020: 03 12 00 09 10 05 08 00  03 02 00 00 80 03 03 00  ................
0030: 00 80 03 01 00 00 80 3E  0E 00 01 80 3E 00 3E 0E  .......>....>.>.
0040: 00 02 80 4B 00 05 14 00  01 4E 00 06 14 00 02 10  ...K.....N......
0050: 00 03 80 80 5E 00 03 0F  00 00 80 01 93 00 02 10  ....^...........
0060: 00 04 80 80 6E 00 03 0F  00 05 80 01 93 00 02 10  ....n...........
0070: 00 06 80 80 7E 00 03 0F  00 01 80 01 93 00 02 10  ....~...........
0080: 00 07 80 80 8E 00 03 0F  00 08 80 01 93 00 03 0F  ................
0090: 00 00 80 03 02 10 0F 00  03 04 10 09 80 3E 0E 00  .............>..
00A0: 00 80 AC 00 03 07 10 05  80 01 B1 00 03 07 10 00  ................
00B0: 80 3E 0E 00 05 80 C0 00  03 08 10 05 80 01 C5 00  .>..............
00C0: 03 08 10 00 80 24 0A 80  00 80 07 00 25 02 00 10  .....$......%...
00D0: 05 80 00 11 01 02 14 00  00 80 00 F3 00 1A 03 02  ................
00E0: 03 01 10 00 80 3C 01 10  0B 80 05 80 43 00 43 01  .....<......C.C.
00F0: 05 14 00 02 13 00 00 80  00 03 01 03 02 00 05 80  ................
0100: 01 0E 01 03 02 10 13 00  48 0C 80 23 21 00 01 97  ........H..#!...
0110: 01 02 00 10 01 80 00 2C  01 03 01 10 00 80 40 0D  .......,......@.
0120: 80 0E 80 01 10 08 80 21  00 01 97 01 02 00 10 08  .......!........
0130: 80 00 47 01 03 01 10 00  80 40 0D 80 0E 80 01 10  ..G......@......
0140: 01 80 21 00 01 97 01 02  00 10 02 80 00 75 01 1A  ..!..........u..
0150: 03 02 02 14 00 00 80 00  6F 01 42 03 01 10 00 80  ........o.B.....
0160: 3C 01 10 0B 80 05 80 43  00 43 01 05 14 00 2E 01  <......C.C......
0170: 4E 00 01 97 01 02 00 10  0F 80 00 90 01 03 01 10  N...............
0180: 00 80 40 0D 80 0E 80 01  10 05 80 21 00 01 97 01  ..@........!....
0190: 03 01 10 10 80 21 00 03  01 00 02 00 02 12 00 00  .....!..........
01A0: 80 01 A7 01 48 11 80 03  06 10 0B 00 48 12 80 03  ....H.......H...
01B0: 02 10 0F 00 48 13 80 23  03 03 10 00 80 24 14 80  ....H..#.....$..
01C0: 00 80 00 80 25 02 00 10  00 80 00 ED 01 03 01 10  ....%...........
01D0: 00 80 40 00 80 15 80 01  10 01 00 43 00 43 01 02  ..@........C.C..
01E0: 09 10 00 80 01 EA 01 01  A7 01 01 01 02 03 02 10  ................
01F0: 0F 00 03 03 10 00 80 48  16 80 03 01 10 10 80 21  .......H.......!
0200: 00 21 00 03 04 10 09 80  03 03 17 17 80 48 18 80  .!...........H..
0210: 23 48 19 80 23 48 1A 80  23 48 1B 80 23 48 1C 80  #H..#H..#H..#H..
0220: 23 1B                                             #.              
```

#### Opcodes

```
  0: 0x0001 [0x42] SET_CLI_EVENT_CANCEL_DATA()
  1: 0x0002 [0x03] ExtData[1]->WorkLocal[7] = Work_Zone[2]
  2: 0x0007 [0x03] ExtData[1]->WorkLocal[4] = Work_Zone[3]
  3: 0x000C [0x03] ExtData[1]->WorkLocal[19] = Work_Zone[4]
  4: 0x0011 [0x03] ExtData[1]->WorkLocal[11] = Work_Zone[6]
  5: 0x0016 [0x03] ExtData[1]->WorkLocal[14] = Work_Zone[7]
  6: 0x001B [0x03] ExtData[1]->WorkLocal[16] = Work_Zone[8]
  7: 0x0020 [0x03] ExtData[1]->WorkLocal[18] = Work_Zone[9]
  8: 0x0025 [0x05] ExtData[1]->WorkLocal[8] = 1
  9: 0x0028 [0x03] ExtData[1]->WorkLocal[2] = 0*
 10: 0x002D [0x03] ExtData[1]->WorkLocal[3] = 0*
 11: 0x0032 [0x03] ExtData[1]->WorkLocal[1] = 0*
 12: 0x0037 [0x3E] IF !(ExtData[1]->WorkLocal[14] bit 2*) GOTO 0x003E
 13: 0x003E [0x3E] IF !(ExtData[1]->WorkLocal[14] bit 4*) GOTO 0x004B
 14: 0x0045 [0x05] ExtData[1]->WorkLocal[20] = 1
 15: 0x0048 [0x01] GOTO 0x004E
 16: 0x004B [0x06] ExtData[1]->WorkLocal[20] = 0

SUBROUTINE_004E:
 17: 0x004E [0x02] IF !(ExtData[1]->WorkLocal[16] == 230*) GOTO 0x005E
 18: 0x0056 [0x03] ExtData[1]->WorkLocal[15] = 0*
 19: 0x005B [0x01] GOTO 0x0093
 20: 0x005E [0x02] IF !(ExtData[1]->WorkLocal[16] == 234*) GOTO 0x006E
 21: 0x0066 [0x03] ExtData[1]->WorkLocal[15] = 1*
 22: 0x006B [0x01] GOTO 0x0093
 23: 0x006E [0x02] IF !(ExtData[1]->WorkLocal[16] == 239*) GOTO 0x007E
 24: 0x0076 [0x03] ExtData[1]->WorkLocal[15] = 2*
 25: 0x007B [0x01] GOTO 0x0093
 26: 0x007E [0x02] IF !(ExtData[1]->WorkLocal[16] == 243*) GOTO 0x008E
 27: 0x0086 [0x03] ExtData[1]->WorkLocal[15] = 3*
 28: 0x008B [0x01] GOTO 0x0093
 29: 0x008E [0x03] ExtData[1]->WorkLocal[15] = 0*

SUBROUTINE_0093:
 30: 0x0093 [0x03] Work_Zone[2] = ExtData[1]->WorkLocal[15]
 31: 0x0098 [0x03] Work_Zone[4] = 3156*
 32: 0x009D [0x3E] IF !(ExtData[1]->WorkLocal[14] bit 0*) GOTO 0x00AC
 33: 0x00A4 [0x03] Work_Zone[7] = 1*
 34: 0x00A9 [0x01] GOTO 0x00B1
 35: 0x00AC [0x03] Work_Zone[7] = 0*

SUBROUTINE_00B1:
 36: 0x00B1 [0x3E] IF !(ExtData[1]->WorkLocal[14] bit 1*) GOTO 0x00C0
 37: 0x00B8 [0x03] Work_Zone[8] = 1*
 38: 0x00BD [0x01] GOTO 0x00C5
 39: 0x00C0 [0x03] Work_Zone[8] = 0*

SUBROUTINE_00C5:
 40: 0x00C5 [0x24] CREATE_DIALOG(message_id=15921*, default_option=0*, option_flags=ExtData[1]->WorkLocal[7])
    → "Attempt which? (Auto-transport: [off/on]) [None./[D. San d'Oria/D. Bastok/D. Windurst/ D. Jeuno] (CL:$1)/$3 status./Switch $3 use state. ([off/on])/Occupying Dynamis./Toggle auto-transport.]"
 41: 0x00CC [0x25] WAIT_DIALOG_SELECT()
 42: 0x00CD [0x02] IF !(Work_Zone[0] == 1*) GOTO 0x0111
 43: 0x00D5 [0x02] IF !(ExtData[1]->WorkLocal[20] == 0*) GOTO 0x00F3
 44: 0x00DD [0x1A] CALL_SUBROUTINE(address=0x0203)
 45: 0x00E0 [0x03] Work_Zone[1] = 0*
 46: 0x00E5 [0x3C] SET_BIT_FLAG_CONDITIONAL(target_work_offset=Work_Zone[1], bit_index_work_offset=14*, condition_work_offset=1*)
 47: 0x00EC [0x43] SEND_EVENT_UPDATE: Send pending tag to server (packet 0x005B)
 48: 0x00EE [0x43] SEND_EVENT_UPDATE: Check pending flag (skip if not pending)
 49: 0x00F0 [0x05] ExtData[1]->WorkLocal[20] = 1
 50: 0x00F3 [0x02] IF !(ExtData[1]->WorkLocal[19] == 0*) GOTO 0x0103
 51: 0x00FB [0x03] ExtData[1]->WorkLocal[2] = 1*
 52: 0x0100 [0x01] GOTO 0x010E
 53: 0x0103 [0x03] Work_Zone[2] = ExtData[1]->WorkLocal[19]
 54: 0x0108 [0x48] [System] [15966*]:
    → "Enter by :: on //."
 55: 0x010B [0x23] WAIT_FOR_DIALOG_INTERACTION
 56: 0x010C [0x21] END_EVENT
 57: 0x010D [0x00] END_REQSTACK()

SUBROUTINE_010E:
 58: 0x010E [0x01] GOTO 0x0197
 59: 0x0111 [0x02] IF !(Work_Zone[0] == 2*) GOTO 0x012C
 60: 0x0119 [0x03] Work_Zone[1] = 0*
 61: 0x011E [0x40] SET_BIT_WORK_RANGE(start_bit=24*, end_bit=31*, target=Work_Zone[1], source=3*)
 62: 0x0127 [0x21] END_EVENT
 63: 0x0128 [0x00] END_REQSTACK()

SUBROUTINE_0197:
 64: 0x0197 [0x03] ExtData[1]->WorkLocal[1] = ExtData[1]->WorkLocal[2]
 65: 0x019C [0x02] IF !(ExtData[1]->WorkLocal[18] == 0*) GOTO 0x01A7
 66: 0x01A4 [0x48] [System] [15939*]:
    → "Treasure chest bonuses are now active!"

SUBROUTINE_01A7:
 67: 0x01A7 [0x03] Work_Zone[6] = ExtData[1]->WorkLocal[11]
 68: 0x01AC [0x48] [System] [15938*]:
    → "You will be able to call forth up to $4 alter ego[/s] given the current number of players in your party."
 69: 0x01AF [0x03] Work_Zone[2] = ExtData[1]->WorkLocal[15]
 70: 0x01B4 [0x48] [System] [15945*]:
    → "Applying to enter [D. San d'Oria/D. Bastok/D. Windurst/D. Jeuno]. You will be unable to participate if you add any more party members. Are you sure?"
 71: 0x01B7 [0x23] WAIT_FOR_DIALOG_INTERACTION
 72: 0x01B8 [0x03] Work_Zone[3] = 0*
 73: 0x01BD [0x24] CREATE_DIALOG(message_id=15924*, default_option=0*, option_flags=0*)
    → "[Apply to proceed/Proceed]? [Definitely!/Not yet.]"
 74: 0x01C4 [0x25] WAIT_DIALOG_SELECT()
 75: 0x01C5 [0x02] IF !(Work_Zone[0] == 0*) GOTO 0x01ED
 76: 0x01CD [0x03] Work_Zone[1] = 0*
 77: 0x01D2 [0x40] SET_BIT_WORK_RANGE(start_bit=0*, end_bit=11*, target=Work_Zone[1], source=ExtData[1]->WorkLocal[1])
 78: 0x01DB [0x43] SEND_EVENT_UPDATE: Send pending tag to server (packet 0x005B)
 79: 0x01DD [0x43] SEND_EVENT_UPDATE: Check pending flag (skip if not pending)
 80: 0x01DF [0x02] IF !(Work_Zone[9] == 0*) GOTO 0x01EA
 81: 0x01E7 [0x01] GOTO 0x01A7
 82: 0x01EA [0x01] GOTO 0x0201
 83: 0x01ED [0x03] Work_Zone[2] = ExtData[1]->WorkLocal[15]
 84: 0x01F2 [0x03] Work_Zone[3] = 0*
 85: 0x01F7 [0x48] [System] [15926*]:
    → "You have chosen not to [apply to/enter] [D. San d'Oria/D. Bastok/D. Windurst/D. Jeuno]."
 86: 0x01FA [0x03] Work_Zone[1] = 1073741824*
 87: 0x01FF [0x21] END_EVENT
 88: 0x0200 [0x00] END_REQSTACK()

SUBROUTINE_0201:
 89: 0x0201 [0x21] END_EVENT
 90: 0x0202 [0x00] END_REQSTACK()

SUBROUTINE_0203:
 91: 0x0203 [0x03] Work_Zone[4] = 3156*
 92: 0x0208 [0x03] Work_Zone_1700[3] = 60*
 93: 0x020D [0x48] [System] [15971*]:
    → "Between 3 and 18 people may enter. The party leader must apply to enter."
 94: 0x0210 [0x23] WAIT_FOR_DIALOG_INTERACTION
 95: 0x0211 [0x48] [System] [15972*]:
    → "At least 60 minutes must have passed since your previous entry for you to enter again. This applies to all Dynamis - Divergence areas."
 96: 0x0214 [0x23] WAIT_FOR_DIALOG_INTERACTION
 97: 0x0215 [0x48] [System] [15973*]:
    → "Your $3 stores time inside of it, enabling you to decrease the amount of time needed until you can enter once more."
 98: 0x0218 [0x23] WAIT_FOR_DIALOG_INTERACTION
 99: 0x0219 [0x48] [System] [15974*]:
    → "The time limit is $11 minutes, although this can be extended by completing certain objectives."
100: 0x021C [0x23] WAIT_FOR_DIALOG_INTERACTION
101: 0x021D [0x48] [System] [15975*]:
    → "You will be forceably removed once time expires."
102: 0x0220 [0x23] WAIT_FOR_DIALOG_INTERACTION
103: 0x0221 [0x1B] RETURN
```

#### Data or dead code:

```
# Dead code (unreachable instructions):
     0x0129 [0x01] GOTO 0x0197
     0x0144 [0x01] GOTO 0x0197
     0x0172 [0x01] GOTO 0x0197
     0x018D [0x01] GOTO 0x0197
```

### Event 10279

#### Metadata

| Field        | Value     |
|--------------|-----------|
| Entrypoint   | 0x0222    |
| Data Size    | 168 bytes |
| Instructions | 38        |

```
      00 01 02 03 04 05 06 07  08 09 0A 0B 0C 0D 0E 0F
      -- -- -- -- -- -- -- --  -- -- -- -- -- -- -- --
0220:       03 10 00 02 10 02  10 00 03 80 80 37 02 03    ...........7..
0230: 02 10 00 80 01 6C 02 02  10 00 04 80 80 47 02 03  .....l.......G..
0240: 02 10 05 80 01 6C 02 02  10 00 06 80 80 57 02 03  .....l.......W..
0250: 02 10 01 80 01 6C 02 02  10 00 07 80 80 67 02 03  .....l.......g..
0260: 02 10 08 80 01 6C 02 03  02 10 00 80 02 04 10 00  .....l..........
0270: 80 02 7B 02 48 1D 80 23  01 7F 02 48 1E 80 23 48  ..{.H..#...H..#H
0280: 1F 80 23 02 03 10 00 80  00 96 02 48 20 80 03 01  ..#........H ...
0290: 10 10 80 01 C8 02 03 02  10 05 80 24 21 80 05 80  ...........$!...
02A0: 00 80 25 02 00 10 00 80  00 B3 02 03 01 10 05 80  ..%.............
02B0: 01 C8 02 02 00 10 05 80  00 C3 02 03 01 10 01 80  ................
02C0: 01 C8 02 03 01 10 10 80  21 00                    ........!.      
```

#### Opcodes

```
  0: 0x0222 [0x03] ExtData[1]->WorkLocal[16] = Work_Zone[2]
  1: 0x0227 [0x02] IF !(ExtData[1]->WorkLocal[16] == 230*) GOTO 0x0237
  2: 0x022F [0x03] Work_Zone[2] = 0*
  3: 0x0234 [0x01] GOTO 0x026C
  4: 0x0237 [0x02] IF !(ExtData[1]->WorkLocal[16] == 234*) GOTO 0x0247
  5: 0x023F [0x03] Work_Zone[2] = 1*
  6: 0x0244 [0x01] GOTO 0x026C
  7: 0x0247 [0x02] IF !(ExtData[1]->WorkLocal[16] == 239*) GOTO 0x0257
  8: 0x024F [0x03] Work_Zone[2] = 2*
  9: 0x0254 [0x01] GOTO 0x026C
 10: 0x0257 [0x02] IF !(ExtData[1]->WorkLocal[16] == 243*) GOTO 0x0267
 11: 0x025F [0x03] Work_Zone[2] = 3*
 12: 0x0264 [0x01] GOTO 0x026C
 13: 0x0267 [0x03] Work_Zone[2] = 0*

SUBROUTINE_026C:
 14: 0x026C [0x02] IF !(Work_Zone[4] <= 0*) GOTO 0x027B
 15: 0x0274 [0x48] [System] [15949*]:
    → "You are currently number $3 in line, with $2 in front of you."
 16: 0x0277 [0x23] WAIT_FOR_DIALOG_INTERACTION
 17: 0x0278 [0x01] GOTO 0x027F
 18: 0x027B [0x48] [System] [15951*]:
    → "You are currently applying to enter [D. San d'Oria/D. Bastok/D. Windurst/D. Jeuno]."
 19: 0x027E [0x23] WAIT_FOR_DIALOG_INTERACTION

SUBROUTINE_027F:
 20: 0x027F [0x48] [System] [15948*]:
    → "You are currently number $3 in line to be drawn into this nightmare."
 21: 0x0282 [0x23] WAIT_FOR_DIALOG_INTERACTION
 22: 0x0283 [0x02] IF !(Work_Zone[3] == 0*) GOTO 0x0296
 23: 0x028B [0x48] [System] [15950*]:
    → "Prepare yourselves! The battlefield is almost ready!"
 24: 0x028E [0x03] Work_Zone[1] = 1073741824*
 25: 0x0293 [0x01] GOTO 0x02C8
 26: 0x0296 [0x03] Work_Zone[2] = 1*
 27: 0x029B [0x24] CREATE_DIALOG(message_id=15952*, default_option=1*, option_flags=0*)
    → "Your number: $3. (Auto-transport: [off/on]) [Remove your name./Toggle auto-transport./Close dialogue.]"
 28: 0x02A2 [0x25] WAIT_DIALOG_SELECT()
 29: 0x02A3 [0x02] IF !(Work_Zone[0] == 0*) GOTO 0x02B3
 30: 0x02AB [0x03] Work_Zone[1] = 1*
 31: 0x02B0 [0x01] GOTO 0x02C8
 32: 0x02B3 [0x02] IF !(Work_Zone[0] == 1*) GOTO 0x02C3
 33: 0x02BB [0x03] Work_Zone[1] = 2*
 34: 0x02C0 [0x01] GOTO 0x02C8
 35: 0x02C3 [0x03] Work_Zone[1] = 1073741824*

SUBROUTINE_02C8:
 36: 0x02C8 [0x21] END_EVENT
 37: 0x02C9 [0x00] END_REQSTACK()
```

### Event 10280

#### Metadata

| Field        | Value     |
|--------------|-----------|
| Entrypoint   | 0x02CA    |
| Data Size    | 230 bytes |
| Instructions | 52        |

```
      00 01 02 03 04 05 06 07  08 09 0A 0B 0C 0D 0E 0F
      -- -- -- -- -- -- -- --  -- -- -- -- -- -- -- --
02C0:                                42 03 10 00 02 10            B.....
02D0: 02 10 00 03 80 80 E0 02  03 02 10 00 80 01 15 03  ................
02E0: 02 10 00 04 80 80 F0 02  03 02 10 05 80 01 15 03  ................
02F0: 02 10 00 06 80 80 00 03  03 02 10 01 80 01 15 03  ................
0300: 02 10 00 07 80 80 10 03  03 02 10 08 80 01 15 03  ................
0310: 03 02 10 00 80 03 11 00  04 10 48 22 80 23 03 03  ..........H".#..
0320: 10 05 80 24 14 80 00 80  00 80 25 02 00 10 00 80  ...$......%.....
0330: 00 A9 03 03 01 10 05 80  43 00 43 01 02 09 10 00  ........C.C.....
0340: 80 00 A1 03 02 10 00 03  80 80 54 03 03 02 10 00  ..........T.....
0350: 80 01 89 03 02 10 00 04  80 80 64 03 03 02 10 05  ..........d.....
0360: 80 01 89 03 02 10 00 06  80 80 74 03 03 02 10 01  ..........t.....
0370: 80 01 89 03 02 10 00 07  80 80 84 03 03 02 10 08  ................
0380: 80 01 89 03 03 02 10 00  80 48 23 80 23 03 04 10  .........H#.#...
0390: 11 00 48 24 80 23 1A 3F  05 03 01 10 01 80 01 A6  ..H$.#.?........
03A0: 03 03 01 10 10 80 01 AE  03 03 01 10 10 80 21 00  ..............!.
```

#### Opcodes

```
  0: 0x02CA [0x42] SET_CLI_EVENT_CANCEL_DATA()
  1: 0x02CB [0x03] ExtData[1]->WorkLocal[16] = Work_Zone[2]
  2: 0x02D0 [0x02] IF !(ExtData[1]->WorkLocal[16] == 230*) GOTO 0x02E0
  3: 0x02D8 [0x03] Work_Zone[2] = 0*
  4: 0x02DD [0x01] GOTO 0x0315
  5: 0x02E0 [0x02] IF !(ExtData[1]->WorkLocal[16] == 234*) GOTO 0x02F0
  6: 0x02E8 [0x03] Work_Zone[2] = 1*
  7: 0x02ED [0x01] GOTO 0x0315
  8: 0x02F0 [0x02] IF !(ExtData[1]->WorkLocal[16] == 239*) GOTO 0x0300
  9: 0x02F8 [0x03] Work_Zone[2] = 2*
 10: 0x02FD [0x01] GOTO 0x0315
 11: 0x0300 [0x02] IF !(ExtData[1]->WorkLocal[16] == 243*) GOTO 0x0310
 12: 0x0308 [0x03] Work_Zone[2] = 3*
 13: 0x030D [0x01] GOTO 0x0315
 14: 0x0310 [0x03] Work_Zone[2] = 0*

SUBROUTINE_0315:
 15: 0x0315 [0x03] ExtData[1]->WorkLocal[17] = Work_Zone[4]
 16: 0x031A [0x48] [System] [15923*]:
    → "Only party members present with you in this area will be transported to [D. San d'Oria/D. Bastok/D. Windurst/D. Jeuno]."
 17: 0x031D [0x23] WAIT_FOR_DIALOG_INTERACTION
 18: 0x031E [0x03] Work_Zone[3] = 1*
 19: 0x0323 [0x24] CREATE_DIALOG(message_id=15924*, default_option=0*, option_flags=0*)
    → "[Apply to proceed/Proceed]? [Definitely!/Not yet.]"
 20: 0x032A [0x25] WAIT_DIALOG_SELECT()
 21: 0x032B [0x02] IF !(Work_Zone[0] == 0*) GOTO 0x03A9
 22: 0x0333 [0x03] Work_Zone[1] = 1*
 23: 0x0338 [0x43] SEND_EVENT_UPDATE: Send pending tag to server (packet 0x005B)
 24: 0x033A [0x43] SEND_EVENT_UPDATE: Check pending flag (skip if not pending)
 25: 0x033C [0x02] IF !(Work_Zone[9] == 0*) GOTO 0x03A1
 26: 0x0344 [0x02] IF !(ExtData[1]->WorkLocal[16] == 230*) GOTO 0x0354
 27: 0x034C [0x03] Work_Zone[2] = 0*
 28: 0x0351 [0x01] GOTO 0x0389
 29: 0x0354 [0x02] IF !(ExtData[1]->WorkLocal[16] == 234*) GOTO 0x0364
 30: 0x035C [0x03] Work_Zone[2] = 1*
 31: 0x0361 [0x01] GOTO 0x0389
 32: 0x0364 [0x02] IF !(ExtData[1]->WorkLocal[16] == 239*) GOTO 0x0374
 33: 0x036C [0x03] Work_Zone[2] = 2*
 34: 0x0371 [0x01] GOTO 0x0389
 35: 0x0374 [0x02] IF !(ExtData[1]->WorkLocal[16] == 243*) GOTO 0x0384
 36: 0x037C [0x03] Work_Zone[2] = 3*
 37: 0x0381 [0x01] GOTO 0x0389
 38: 0x0384 [0x03] Work_Zone[2] = 0*

SUBROUTINE_0389:
 39: 0x0389 [0x48] [System] [15925*]:
    → "Entering [D. San d'Oria/D. Bastok/D. Windurst/D. Jeuno]."
 40: 0x038C [0x23] WAIT_FOR_DIALOG_INTERACTION
 41: 0x038D [0x03] Work_Zone[4] = ExtData[1]->WorkLocal[17]
 42: 0x0392 [0x48] [System] [15963*]:
    → "Your $3 fills with sand."
 43: 0x0395 [0x23] WAIT_FOR_DIALOG_INTERACTION
 44: 0x0396 [0x1A] CALL_SUBROUTINE(address=0x053F)
 45: 0x0399 [0x03] Work_Zone[1] = 2*
 46: 0x039E [0x01] GOTO 0x03A6
 47: 0x03A1 [0x03] Work_Zone[1] = 1073741824*

SUBROUTINE_03A6:
 48: 0x03A6 [0x01] GOTO 0x03AE
 49: 0x03A9 [0x03] Work_Zone[1] = 1073741824*

SUBROUTINE_03AE:
 50: 0x03AE [0x21] END_EVENT
 51: 0x03AF [0x00] END_REQSTACK()
```

### Event 10298

#### Metadata

| Field        | Value     |
|--------------|-----------|
| Entrypoint   | 0x03B0    |
| Data Size    | 147 bytes |
| Instructions | 28        |

```
      00 01 02 03 04 05 06 07  08 09 0A 0B 0C 0D 0E 0F
      -- -- -- -- -- -- -- --  -- -- -- -- -- -- -- --
03B0: 03 04 10 09 80 03 0E 00  07 10 3E 0E 00 00 80 C9  ..........>.....
03C0: 03 03 07 10 05 80 01 CE  03 03 07 10 00 80 3E 0E  ..............>.
03D0: 00 05 80 DD 03 03 08 10  05 80 01 E2 03 03 08 10  ................
03E0: 00 80 3E 0E 00 01 80 E9  03 24 25 80 00 80 07 00  ..>......$%.....
03F0: 25 02 00 10 05 80 00 0A  04 03 01 10 00 80 40 0D  %.............@.
0400: 80 0E 80 01 10 08 80 01  41 04 02 00 10 01 80 00  ........A.......
0410: 23 04 03 01 10 00 80 40  0D 80 0E 80 01 10 01 80  #......@........
0420: 01 41 04 02 00 10 08 80  00 3C 04 03 01 10 00 80  .A.......<......
0430: 40 0D 80 0E 80 01 10 05  80 01 41 04 03 01 10 10  @.........A.....
0440: 80 21 00                                          .!.             
```

#### Opcodes

```
  0: 0x03B0 [0x03] Work_Zone[4] = 3156*
  1: 0x03B5 [0x03] ExtData[1]->WorkLocal[14] = Work_Zone[7]
  2: 0x03BA [0x3E] IF !(ExtData[1]->WorkLocal[14] bit 0*) GOTO 0x03C9
  3: 0x03C1 [0x03] Work_Zone[7] = 1*
  4: 0x03C6 [0x01] GOTO 0x03CE
  5: 0x03C9 [0x03] Work_Zone[7] = 0*

SUBROUTINE_03CE:
  6: 0x03CE [0x3E] IF !(ExtData[1]->WorkLocal[14] bit 1*) GOTO 0x03DD
  7: 0x03D5 [0x03] Work_Zone[8] = 1*
  8: 0x03DA [0x01] GOTO 0x03E2
  9: 0x03DD [0x03] Work_Zone[8] = 0*

SUBROUTINE_03E2:
 10: 0x03E2 [0x3E] IF !(ExtData[1]->WorkLocal[14] bit 2*) GOTO 0x03E9
 11: 0x03E9 [0x24] CREATE_DIALOG(message_id=15922*, default_option=0*, option_flags=ExtData[1]->WorkLocal[7])
    → "Instance Setting (Auto-transport: ([off/on]) [Back./$3 status./Switch $3 use state. ([off/on])/Toggle auto-transport.]"
 12: 0x03F0 [0x25] WAIT_DIALOG_SELECT()
 13: 0x03F1 [0x02] IF !(Work_Zone[0] == 1*) GOTO 0x040A
 14: 0x03F9 [0x03] Work_Zone[1] = 0*
 15: 0x03FE [0x40] SET_BIT_WORK_RANGE(start_bit=24*, end_bit=31*, target=Work_Zone[1], source=3*)
 16: 0x0407 [0x01] GOTO 0x0441
 17: 0x040A [0x02] IF !(Work_Zone[0] == 2*) GOTO 0x0423
 18: 0x0412 [0x03] Work_Zone[1] = 0*
 19: 0x0417 [0x40] SET_BIT_WORK_RANGE(start_bit=24*, end_bit=31*, target=Work_Zone[1], source=2*)
 20: 0x0420 [0x01] GOTO 0x0441
 21: 0x0423 [0x02] IF !(Work_Zone[0] == 3*) GOTO 0x043C
 22: 0x042B [0x03] Work_Zone[1] = 0*
 23: 0x0430 [0x40] SET_BIT_WORK_RANGE(start_bit=24*, end_bit=31*, target=Work_Zone[1], source=1*)
 24: 0x0439 [0x01] GOTO 0x0441
 25: 0x043C [0x03] Work_Zone[1] = 1073741824*

SUBROUTINE_0441:
 26: 0x0441 [0x21] END_EVENT
 27: 0x0442 [0x00] END_REQSTACK()
```

### Event 10281

#### Metadata

| Field        | Value     |
|--------------|-----------|
| Entrypoint   | 0x0443    |
| Data Size    | 361 bytes |
| Instructions | 58        |

```
      00 01 02 03 04 05 06 07  08 09 0A 0B 0C 0D 0E 0F
      -- -- -- -- -- -- -- --  -- -- -- -- -- -- -- --
0440:          05 0A 00 02 0A  00 05 80 00 3D 05 24 26     .........=.$&
0450: 80 00 80 00 80 25 02 00  10 00 80 00 6A 04 03 01  .....%......j...
0460: 10 05 80 43 00 43 01 01  3A 05 02 00 10 05 80 00  ...C.C..:.......
0470: 7E 04 03 01 10 01 80 43  00 43 01 01 3A 05 02 00  ~......C.C..:...
0480: 10 01 80 00 B2 04 03 02  10 05 80 03 03 10 27 80  ..............'.
0490: 48 28 80 71 12 05 80 01  80 71 13 00 00 03 01 10  H(.q.....q......
04A0: 08 80 40 29 80 2A 80 01  10 00 00 43 00 43 01 01  ..@).*.....C.C..
04B0: 3A 05 02 00 10 08 80 00  E6 04 03 02 10 05 80 03  :...............
04C0: 03 10 27 80 48 28 80 71  12 05 80 01 80 71 13 00  ..'.H(.q.....q..
04D0: 00 03 01 10 02 80 40 29  80 2A 80 01 10 00 00 43  ......@).*.....C
04E0: 00 43 01 01 3A 05 02 00  10 02 80 00 FA 04 03 01  .C..:...........
04F0: 10 0F 80 43 00 43 01 01  3A 05 02 00 10 0F 80 00  ...C.C..:.......
0500: 24 05 48 28 80 71 12 05  80 01 80 71 13 00 00 03  $.H(.q.....q....
0510: 01 10 2B 80 40 29 80 2A  80 01 10 00 00 43 00 43  ..+.@).*.....C.C
0520: 01 01 3A 05 02 00 10 2B  80 00 37 05 03 01 10 05  ..:....+..7.....
0530: 80 06 0A 00 01 3A 05 06  0A 00 01 46 04 21 00 62  .....:.....F.!.b
0540: 05 80 F0 FF FF 7F F0 FF  FF 7F 6D 61 69 6E 00 80  ..........main..
0550: 1C 2C 80 45 2D 80 F0 FF  FF 7F F0 FF FF 7F 77 68  .,.E-.........wh
0560: 6F 31 00 80 55 2D 80 F0  FF FF 7F F0 FF FF 7F 77  o1..U-.........w
0570: 68 6F 31 1C 2E 80 45 2F  80 F0 FF FF 7F F0 FF FF  ho1...E/........
0580: 7F 66 64 6F 31 00 80 55  2F 80 F0 FF FF 7F F0 FF  .fdo1..U/.......
0590: FF 7F 66 64 6F 31 45 2D  80 F0 FF FF 7F F0 FF FF  ..fdo1E-........
05A0: 7F 77 68 69 31 00 80 1C  2A 80 30 1B              .whi1...*.0.    
```

#### Opcodes

```
  0: 0x0443 [0x05] ExtData[1]->WorkLocal[10] = 1
  1: 0x0446 [0x02] IF !(ExtData[1]->WorkLocal[10] == 1*) GOTO 0x053D
  2: 0x044E [0x24] CREATE_DIALOG(message_id=15989*, default_option=0*, option_flags=0*)
    → "Debug menu. [Check information./View applicants./Applicant parameters./Change maximum limit./Clear applications./Testing./Jump./Close dialogue.]"
  3: 0x0455 [0x25] WAIT_DIALOG_SELECT()
  4: 0x0456 [0x02] IF !(Work_Zone[0] == 0*) GOTO 0x046A
  5: 0x045E [0x03] Work_Zone[1] = 1*
  6: 0x0463 [0x43] SEND_EVENT_UPDATE: Send pending tag to server (packet 0x005B)
  7: 0x0465 [0x43] SEND_EVENT_UPDATE: Check pending flag (skip if not pending)
  8: 0x0467 [0x01] GOTO 0x053A
  9: 0x046A [0x02] IF !(Work_Zone[0] == 1*) GOTO 0x047E
 10: 0x0472 [0x03] Work_Zone[1] = 2*
 11: 0x0477 [0x43] SEND_EVENT_UPDATE: Send pending tag to server (packet 0x005B)
 12: 0x0479 [0x43] SEND_EVENT_UPDATE: Check pending flag (skip if not pending)
 13: 0x047B [0x01] GOTO 0x053A
 14: 0x047E [0x02] IF !(Work_Zone[0] == 2*) GOTO 0x04B2
 15: 0x0486 [0x03] Work_Zone[2] = 1*
 16: 0x048B [0x03] Work_Zone[3] = 50*
 17: 0x0490 [0x48] [System] [15998*]:
    → "Designate a value between $0 and $1."
 18: 0x0493 [0x71] USER_INPUT_HANDLER: Open numerical input with params (work=[1*, 2*])
 19: 0x0499 [0x71] USER_INPUT_HANDLER: Process numerical input B (work=ExtData[1]->WorkLocal[0])
 20: 0x049D [0x03] Work_Zone[1] = 3*
 21: 0x04A2 [0x40] SET_BIT_WORK_RANGE(start_bit=8*, end_bit=15*, target=Work_Zone[1], source=ExtData[1]->WorkLocal[0])
 22: 0x04AB [0x43] SEND_EVENT_UPDATE: Send pending tag to server (packet 0x005B)
 23: 0x04AD [0x43] SEND_EVENT_UPDATE: Check pending flag (skip if not pending)
 24: 0x04AF [0x01] GOTO 0x053A
 25: 0x04B2 [0x02] IF !(Work_Zone[0] == 3*) GOTO 0x04E6
 26: 0x04BA [0x03] Work_Zone[2] = 1*
 27: 0x04BF [0x03] Work_Zone[3] = 50*
 28: 0x04C4 [0x48] [System] [15998*]:
    → "Designate a value between $0 and $1."
 29: 0x04C7 [0x71] USER_INPUT_HANDLER: Open numerical input with params (work=[1*, 2*])
 30: 0x04CD [0x71] USER_INPUT_HANDLER: Process numerical input B (work=ExtData[1]->WorkLocal[0])
 31: 0x04D1 [0x03] Work_Zone[1] = 4*
 32: 0x04D6 [0x40] SET_BIT_WORK_RANGE(start_bit=8*, end_bit=15*, target=Work_Zone[1], source=ExtData[1]->WorkLocal[0])
 33: 0x04DF [0x43] SEND_EVENT_UPDATE: Send pending tag to server (packet 0x005B)
 34: 0x04E1 [0x43] SEND_EVENT_UPDATE: Check pending flag (skip if not pending)
 35: 0x04E3 [0x01] GOTO 0x053A
 36: 0x04E6 [0x02] IF !(Work_Zone[0] == 4*) GOTO 0x04FA
 37: 0x04EE [0x03] Work_Zone[1] = 5*
 38: 0x04F3 [0x43] SEND_EVENT_UPDATE: Send pending tag to server (packet 0x005B)
 39: 0x04F5 [0x43] SEND_EVENT_UPDATE: Check pending flag (skip if not pending)
 40: 0x04F7 [0x01] GOTO 0x053A
 41: 0x04FA [0x02] IF !(Work_Zone[0] == 5*) GOTO 0x0524
 42: 0x0502 [0x48] [System] [15998*]:
    → "Designate a value between $0 and $1."
 43: 0x0505 [0x71] USER_INPUT_HANDLER: Open numerical input with params (work=[1*, 2*])
 44: 0x050B [0x71] USER_INPUT_HANDLER: Process numerical input B (work=ExtData[1]->WorkLocal[0])
 45: 0x050F [0x03] Work_Zone[1] = 6*
 46: 0x0514 [0x40] SET_BIT_WORK_RANGE(start_bit=8*, end_bit=15*, target=Work_Zone[1], source=ExtData[1]->WorkLocal[0])
 47: 0x051D [0x43] SEND_EVENT_UPDATE: Send pending tag to server (packet 0x005B)
 48: 0x051F [0x43] SEND_EVENT_UPDATE: Check pending flag (skip if not pending)
 49: 0x0521 [0x01] GOTO 0x053A
 50: 0x0524 [0x02] IF !(Work_Zone[0] == 6*) GOTO 0x0537
 51: 0x052C [0x03] Work_Zone[1] = 1*
 52: 0x0531 [0x06] ExtData[1]->WorkLocal[10] = 0
 53: 0x0534 [0x01] GOTO 0x053A
 54: 0x0537 [0x06] ExtData[1]->WorkLocal[10] = 0

SUBROUTINE_053A:
 55: 0x053A [0x01] GOTO 0x0446
 56: 0x053D [0x21] END_EVENT
 57: 0x053E [0x00] END_REQSTACK()
```

#### Data or dead code:

```
# Dead code (unreachable instructions):
     0x053F [0x62] LOAD_EVENT_SCHEDULER: Load scheduler "main" with entities [LocalPlayer, LocalPlayer], work=[1*, 0*]
     0x0550 [0x1C] WAIT(90* ticks)
     0x0553 [0x45] LOAD_SCHEDULED_TASK: Load scheduler "who1" with entities [LocalPlayer, LocalPlayer], work=[201*, 0*]
     0x0564 [0x55] WAIT_LOAD_SCHEDULER: Wait for scheduler "who1" with entities [LocalPlayer, LocalPlayer], work=201*
     0x0573 [0x1C] WAIT(45* ticks)
     0x0576 [0x45] LOAD_SCHEDULED_TASK: Load scheduler "fdo1" with entities [LocalPlayer, LocalPlayer], work=[200*, 0*]
     0x0587 [0x55] WAIT_LOAD_SCHEDULER: Wait for scheduler "fdo1" with entities [LocalPlayer, LocalPlayer], work=200*
     0x0596 [0x45] LOAD_SCHEDULED_TASK: Load scheduler "whi1" with entities [LocalPlayer, LocalPlayer], work=[201*, 0*]
     0x05A7 [0x1C] WAIT(15* ticks)
     0x05AA [0x30] SET_UCOFF_CONTINUE_ZERO()
     0x05AB [0x1B] RETURN
```
