# 17772559 - Pherimociel

## Common Data

| Field            | Value                     |
|------------------|---------------------------|
| Zone             | Ru'Lude Gardens (ID: 243) |
| Block Size       | 7104 bytes                |
| Total Events     | 91                        |
| References Count | 191                       |

## List of Events

| Event ID                   | Entrypoint   |   Size |   Instructions |
|----------------------------|--------------|--------|----------------|
| [65535](#event-65535)      | 0x0000       |      1 |              1 |
| [58](#event-58)            | 0x0001       |      1 |              1 |
| [24](#event-24)            | 0x0002       |      1 |              1 |
| [25](#event-25)            | 0x0003       |     60 |             12 |
| [26](#event-26)            | 0x003F       |     60 |             12 |
| [27](#event-27)            | 0x007B       |     56 |             10 |
| [28](#event-28)            | 0x00B3       |     56 |             10 |
| [29](#event-29)            | 0x00EB       |     41 |              9 |
| [155](#event-155)          | 0x0114       |     60 |             12 |
| [65535.1](#event-655351)   | 0x0150       |     16 |              2 |
| [65535.2](#event-655352)   | 0x0160       |     14 |              2 |
| [65535.3](#event-655353)   | 0x016E       |     16 |              2 |
| [65535.4](#event-655354)   | 0x017E       |     14 |              2 |
| [65535.5](#event-655355)   | 0x018C       |     16 |              2 |
| [65535.6](#event-655356)   | 0x019C       |     14 |              2 |
| [65535.7](#event-655357)   | 0x01AA       |     16 |              2 |
| [65535.8](#event-655358)   | 0x01BA       |     14 |              2 |
| [65535.9](#event-655359)   | 0x01C8       |     16 |              2 |
| [65535.10](#event-6553510) | 0x01D8       |     14 |              2 |
| [65535.11](#event-6553511) | 0x01E6       |     16 |              2 |
| [65535.12](#event-6553512) | 0x01F6       |     14 |              2 |
| [65535.13](#event-6553513) | 0x0204       |     16 |              2 |
| [65535.14](#event-6553514) | 0x0214       |     14 |              2 |
| [65535.15](#event-6553515) | 0x0222       |     16 |              2 |
| [65535.16](#event-6553516) | 0x0232       |     14 |              2 |
| [65535.17](#event-6553517) | 0x0240       |     16 |              2 |
| [65535.18](#event-6553518) | 0x0250       |     14 |              2 |
| [65535.19](#event-6553519) | 0x025E       |     16 |              2 |
| [65535.20](#event-6553520) | 0x026E       |     14 |              2 |
| [65535.21](#event-6553521) | 0x027C       |     16 |              2 |
| [65535.22](#event-6553522) | 0x028C       |     14 |              2 |
| [65535.23](#event-6553523) | 0x029A       |     16 |              2 |
| [65535.24](#event-6553524) | 0x02AA       |     14 |              2 |
| [65535.25](#event-6553525) | 0x02B8       |     16 |              2 |
| [65535.26](#event-6553526) | 0x02C8       |     14 |              2 |
| [65535.27](#event-6553527) | 0x02D6       |     57 |              5 |
| [65535.28](#event-6553528) | 0x030F       |     16 |              2 |
| [65535.29](#event-6553529) | 0x031F       |     14 |              2 |
| [65535.30](#event-6553530) | 0x032D       |     16 |              2 |
| [65535.31](#event-6553531) | 0x033D       |     14 |              2 |
| [65535.32](#event-6553532) | 0x034B       |     16 |              2 |
| [65535.33](#event-6553533) | 0x035B       |     14 |              2 |
| [65535.34](#event-6553534) | 0x0369       |     16 |              2 |
| [65535.35](#event-6553535) | 0x0379       |     14 |              2 |
| [65535.36](#event-6553536) | 0x0387       |     16 |              2 |
| [65535.37](#event-6553537) | 0x0397       |     14 |              2 |
| [65535.38](#event-6553538) | 0x03A5       |     16 |              2 |
| [65535.39](#event-6553539) | 0x03B5       |     14 |              2 |
| [65535.40](#event-6553540) | 0x03C3       |     16 |              2 |
| [65535.41](#event-6553541) | 0x03D3       |     14 |              2 |
| [65535.42](#event-6553542) | 0x03E1       |     16 |              2 |
| [65535.43](#event-6553543) | 0x03F1       |     14 |              2 |
| [65535.44](#event-6553544) | 0x03FF       |     16 |              2 |
| [65535.45](#event-6553545) | 0x040F       |     14 |              2 |
| [65535.46](#event-6553546) | 0x041D       |     16 |              2 |
| [65535.47](#event-6553547) | 0x042D       |     14 |              2 |
| [65535.48](#event-6553548) | 0x043B       |     16 |              2 |
| [65535.49](#event-6553549) | 0x044B       |     14 |              2 |
| [65535.50](#event-6553550) | 0x0459       |     16 |              2 |
| [65535.51](#event-6553551) | 0x0469       |     14 |              2 |
| [65535.52](#event-6553552) | 0x0477       |     18 |              4 |
| [65535.53](#event-6553553) | 0x0489       |     18 |              4 |
| [65535.54](#event-6553554) | 0x049B       |     18 |              4 |
| [65535.55](#event-6553555) | 0x04AD       |     18 |              4 |
| [65535.56](#event-6553556) | 0x04BF       |     18 |              4 |
| [65535.57](#event-6553557) | 0x04D1       |     18 |              4 |
| [65535.58](#event-6553558) | 0x04E3       |      9 |              3 |
| [65535.59](#event-6553559) | 0x04EC       |     27 |              3 |
| [65535.60](#event-6553560) | 0x0507       |     27 |              3 |
| [65535.61](#event-6553561) | 0x0522       |     27 |              3 |
| [10046](#event-10046)      | 0x053D       |      7 |              2 |
| [65535.62](#event-6553562) | 0x0544       |     15 |              5 |
| [10052](#event-10052)      | 0x0553       |     62 |             13 |
| [10048](#event-10048)      | 0x0591       |      7 |              2 |
| [65535.63](#event-6553563) | 0x0598       |     10 |              2 |
| [65535.64](#event-6553564) | 0x05A2       |     32 |             10 |
| [10063](#event-10063)      | 0x05C2       |     66 |             15 |
| [10051](#event-10051)      | 0x0604       |     13 |              3 |
| [10062](#event-10062)      | 0x0611       |     62 |             13 |
| [10049](#event-10049)      | 0x064F       |     13 |              3 |
| [65535.65](#event-6553565) | 0x065C       |     10 |              2 |
| [65535.66](#event-6553566) | 0x0666       |     14 |              4 |
| [65535.67](#event-6553567) | 0x0674       |     10 |              2 |
| [65535.68](#event-6553568) | 0x067E       |     15 |              5 |
| [65535.69](#event-6553569) | 0x068D       |     42 |              7 |
| [10053](#event-10053)      | 0x06B7       |     47 |             14 |
| [10098](#event-10098)      | 0x06E6       |   3789 |            454 |
| [10099](#event-10099)      | 0x15B3       |    360 |             50 |
| [10100](#event-10100)      | 0x171B       |     15 |              7 |
| [10101](#event-10101)      | 0x172A       |     15 |              7 |
| [10102](#event-10102)      | 0x1739       |     15 |              7 |

## DAT References (imed_data)

|   Index | Hex Value   |   Dec Value |
|---------|-------------|-------------|
|       0 | 0x001D      |          29 |
|       1 | 0x2B3B      |       11067 |
|       2 | 0x2B39      |       11065 |
|       3 | 0x2B3C      |       11068 |
|       4 | 0x2B3D      |       11069 |
|       5 | 0x2B4A      |       11082 |
|       6 | 0x2B55      |       11093 |
|       7 | 0x2B56      |       11094 |
|       8 | 0x27D4      |       10196 |
|       9 | 0x27D5      |       10197 |
|      10 | 0x01A1      |         417 |
|      11 | 0x01A0      |         416 |
|      12 | 0x0018      |          24 |
|      13 | 0x01A2      |         418 |
|      14 | 0x0290      |         656 |
|      15 | 0x01A3      |         419 |
|      16 | 0x002B      |          43 |
|      17 | 0x0019      |          25 |
|      18 | 0x0007      |           7 |
|      19 | 0x0000      |           0 |
|      20 | 0x000D      |          13 |
|      21 | 0x001E      |          30 |
|      22 | 0xFFFF87E1  |  4294936545 |
|      23 | 0x105DC     |       67036 |
|      24 | 0x07D2      |        2002 |
|      25 | 0x3127      |       12583 |
|      26 | 0x3128      |       12584 |
|      27 | 0xFFFFD8F0  |  4294957296 |
|      28 | 0xE33D      |       58173 |
|      29 | 0x07CF      |        1999 |
|      30 | 0x0438      |        1080 |
|      31 | 0x0028      |          40 |
|      32 | 0xFFFFD8A5  |  4294957221 |
|      33 | 0xBBF9      |       48121 |
|      34 | 0xFFFFEC84  |  4294962308 |
|      35 | 0xAFC9      |       45001 |
|      36 | 0x31C3      |       12739 |
|      37 | 0x31C4      |       12740 |
|      38 | 0x31C5      |       12741 |
|      39 | 0x31CD      |       12749 |
|      40 | 0x31CE      |       12750 |
|      41 | 0xFFFF845B  |  4294935643 |
|      42 | 0x104AC     |       66732 |
|      43 | 0x0530      |        1328 |
|      44 | 0xFFFF8EEE  |  4294938350 |
|      45 | 0x10149     |       65865 |
|      46 | 0x0414      |        1044 |
|      47 | 0xFFFF9537  |  4294939959 |
|      48 | 0xFCD1      |       64721 |
|      49 | 0x005A      |          90 |
|      50 | 0x00C8      |         200 |
|      51 | 0x003C      |          60 |
|      52 | 0x317C      |       12668 |
|      53 | 0x317D      |       12669 |
|      54 | 0x0013      |          19 |
|      55 | 0xFFFF8EFF  |  4294938367 |
|      56 | 0x10955     |       67925 |
|      57 | 0x094E      |        2382 |
|      58 | 0x01B6      |         438 |
|      59 | 0x002D      |          45 |
|      60 | 0x0138      |         312 |
|      61 | 0x3762      |       14178 |
|      62 | 0x3763      |       14179 |
|      63 | 0x3764      |       14180 |
|      64 | 0x0001      |           1 |
|      65 | 0x3765      |       14181 |
|      66 | 0x3766      |       14182 |
|      67 | 0x3767      |       14183 |
|      68 | 0x3768      |       14184 |
|      69 | 0x0078      |         120 |
|      70 | 0x18A29     |      100905 |
|      71 | 0x0BB7      |        2999 |
|      72 | 0x0D3B      |        3387 |
|      73 | 0x0795      |        1941 |
|      74 | 0x1BDCF     |      114127 |
|      75 | 0x0C1D      |        3101 |
|      76 | 0x0528      |        1320 |
|      77 | 0xFFFFF82D  |  4294965293 |
|      78 | 0x1898D     |      100749 |
|      79 | 0x0BF6      |        3062 |
|      80 | 0xFFFFF5D9  |  4294964697 |
|      81 | 0x1AE2E     |      110126 |
|      82 | 0x0E10      |        3600 |
|      83 | 0xFFFFF5C3  |  4294964675 |
|      84 | 0x1A52F     |      107823 |
|      85 | 0x36E6      |       14054 |
|      86 | 0xFFFFF92A  |  4294965546 |
|      87 | 0x192A1     |      103073 |
|      88 | 0x00A0      |         160 |
|      89 | 0x3769      |       14185 |
|      90 | 0x376A      |       14186 |
|      91 | 0x00B6      |         182 |
|      92 | 0x376B      |       14187 |
|      93 | 0x376C      |       14188 |
|      94 | 0x07FE      |        2046 |
|      95 | 0x1961F     |      103967 |
|      96 | 0x000F      |          15 |
|      97 | 0x000A      |          10 |
|      98 | 0x376D      |       14189 |
|      99 | 0x376E      |       14190 |
|     100 | 0x376F      |       14191 |
|     101 | 0x0009      |           9 |
|     102 | 0x3770      |       14192 |
|     103 | 0x00B5      |         181 |
|     104 | 0x3771      |       14193 |
|     105 | 0x0016      |          22 |
|     106 | 0x3772      |       14194 |
|     107 | 0x3773      |       14195 |
|     108 | 0x3774      |       14196 |
|     109 | 0x3775      |       14197 |
|     110 | 0x0022      |          34 |
|     111 | 0x3776      |       14198 |
|     112 | 0x3777      |       14199 |
|     113 | 0xFFFFF6A1  |  4294964897 |
|     114 | 0x1BAD8     |      113368 |
|     115 | 0x0012      |          18 |
|     116 | 0xFFFFF6C7  |  4294964935 |
|     117 | 0x1B640     |      112192 |
|     118 | 0x0268      |         616 |
|     119 | 0x1AC72     |      109682 |
|     120 | 0x0BD7      |        3031 |
|     121 | 0x3778      |       14200 |
|     122 | 0x3779      |       14201 |
|     123 | 0x377A      |       14202 |
|     124 | 0x00E1      |         225 |
|     125 | 0xFFFFF140  |  4294963520 |
|     126 | 0xFFFFB32C  |  4294947628 |
|     127 | 0x0426      |        1062 |
|     128 | 0xFFFFF895  |  4294965397 |
|     129 | 0xFFFFBA8F  |  4294949519 |
|     130 | 0x0FFF      |        4095 |
|     131 | 0xFFFFF317  |  4294963991 |
|     132 | 0xFFFFB8F3  |  4294949107 |
|     133 | 0x0147      |         327 |
|     134 | 0xFFFFFFF8  |  4294967288 |
|     135 | 0x43E0      |       17376 |
|     136 | 0x0FDE      |        4062 |
|     137 | 0x0C00      |        3072 |
|     138 | 0xFFFFFC04  |  4294966276 |
|     139 | 0x4017      |       16407 |
|     140 | 0x0490      |        1168 |
|     141 | 0x009A      |         154 |
|     142 | 0x0118      |         280 |
|     143 | 0x0024      |          36 |
|     144 | 0x377B      |       14203 |
|     145 | 0x377C      |       14204 |
|     146 | 0x377D      |       14205 |
|     147 | 0x377E      |       14206 |
|     148 | 0x377F      |       14207 |
|     149 | 0x3780      |       14208 |
|     150 | 0x3781      |       14209 |
|     151 | 0x0020      |          32 |
|     152 | 0x3782      |       14210 |
|     153 | 0x010E      |         270 |
|     154 | 0x0096      |         150 |
|     155 | 0x012C      |         300 |
|     156 | 0x3783      |       14211 |
|     157 | 0x3784      |       14212 |
|     158 | 0x005F      |          95 |
|     159 | 0x3785      |       14213 |
|     160 | 0x00C9      |         201 |
|     161 | 0x007F      |         127 |
|     162 | 0x3786      |       14214 |
|     163 | 0x0047      |          71 |
|     164 | 0xFFF75107  |  4294398215 |
|     165 | 0xA541      |       42305 |
|     166 | 0x03E8      |        1000 |
|     167 | 0xFFF74A3C  |  4294396476 |
|     168 | 0xB71A      |       46874 |
|     169 | 0x038B      |         907 |
|     170 | 0xFFF75FB6  |  4294401974 |
|     171 | 0xB593      |       46483 |
|     172 | 0x038C      |         908 |
|     173 | 0x035F      |         863 |
|     174 | 0x005B      |          91 |
|     175 | 0x00A1      |         161 |
|     176 | 0x047C      |        1148 |
|     177 | 0x00AA      |         170 |
|     178 | 0x3787      |       14215 |
|     179 | 0x3788      |       14216 |
|     180 | 0x3789      |       14217 |
|     181 | 0x01F4      |         500 |
|     182 | 0x00F3      |         243 |
|     183 | 0x0075      |         117 |
|     184 | 0x375F      |       14175 |
|     185 | 0x3760      |       14176 |
|     186 | 0x3761      |       14177 |
|     187 | 0x378A      |       14218 |
|     188 | 0x378C      |       14220 |
|     189 | 0x378D      |       14221 |
|     190 | 0x378E      |       14222 |

## String References

- **10196**: This the hall of the Ducal Guards. Only the finest warriors may join. Come to think of it, this is no place for civilians like you.
- **10197**: Sir Wolfgang is our leader. He was selected not just for his skill at arms, but also for his unwavering determination.
- **11065**: From what I gather, the ducal scientists believe this phenomenon has something to do with the shattered Telepoints at the Crags of Holla, Dem, and Mea.
- **11067**: Strange whirlpools in Valkurm and Qufim... Shattered Telepoints... What could it all mean?
- **11068**: The investigatory report written by the Ducal Guards mentioned that the whirlpools in Valkurm and Qufim are made up of an unknown substance that they call the "Emptiness."
- **11069**: And now there are rumors stating that by jumping into these dark vortexes, people can instantly teleport themselves to the lost island of Tavnazia! I don't know about you, but I am staying right here where it is safe!
- **11082**: While the Jeuno Armada is making preparations for battle, it remains the duty of the Ducal Guard to ensure the safety of the citizens of Jeuno.
- **11093**: One of the armada warships is missing! With all the tightened security, how could anyone have pulled off a feat as grand as stealing an airship!?
- **11094**: While the Jeuno Armada is conducting its mission in the skies, it remains the duty of the Ducal Guard to ensure the safety of the citizens of Jeuno.
- **12583**: What could be the purpose for this meeting being held at the Marble Bridge in Upper Jeuno?
- **12584**: If that Aldo is involved, I am positive it cannot be anything good. Just keep me out of it. If I lose this job, I'm through!
- **12668**: Ah, that energetic young Elvaan girl just entered the audience chamber. Hmmm... I thought she had been taken into custody...
- **12669**: With all the preparations for the launch of the armada, there are currently few people remaining in the Grand Palace. I wonder who gave the girl permission to enter...
- **12739**: Those three Tarutaru brought to Jeuno by Nag'molada have been granted amnesty by Lady Esha'ntarl.
- **12740**: However, I don't believe they have much of a future here in the Duchy.
- **12741**: Once you have angered [the Armathrwn Society/the archduke], it would take no less than a miracle to regain [their/his] trust.
- **12749**: Recently, there have been no signs of Nag'molada or those annoying Tarutaru entering the Grand Duke Palace.
- **12750**: I heard from one of the guards that the Tarutaru were seen riding an airship to Bastok, but as for Nag'molada...
- **14054**: @@
- **14180**: Are you ready? [Ready./Not yet.]
- **14220**: I find it hard to believe that anyone could knock the Endymion out of the sky so easily. There must be some mistake...
- **14221**: The entire port is rushing to prepare the allied airship fleet to avenge the crew of the Endymion. We'll make those Imperial curs pay!
- **14222**: The alliance fleet has returned to Jeuno without firing a single shot in the name of the Endymion. Aht Urhgan has escaped a fiery fate...

## Events

### Event 65535

#### Metadata

| Field        | Value   |
|--------------|---------|
| Entrypoint   | 0x0000  |
| Data Size    | 1 bytes |
| Instructions | 1       |

```
      00 01 02 03 04 05 06 07  08 09 0A 0B 0C 0D 0E 0F
      -- -- -- -- -- -- -- --  -- -- -- -- -- -- -- --
0000: 00                                                .               
```

#### Opcodes

```
  0: 0x0000 [0x00] END_REQSTACK()
```

### Event 58

#### Metadata

| Field        | Value   |
|--------------|---------|
| Entrypoint   | 0x0001  |
| Data Size    | 1 bytes |
| Instructions | 1       |

```
      00 01 02 03 04 05 06 07  08 09 0A 0B 0C 0D 0E 0F
      -- -- -- -- -- -- -- --  -- -- -- -- -- -- -- --
0000:    00                                              .              
```

#### Opcodes

```
  0: 0x0001 [0x00] END_REQSTACK()
```

### Event 24

#### Metadata

| Field        | Value   |
|--------------|---------|
| Entrypoint   | 0x0002  |
| Data Size    | 1 bytes |
| Instructions | 1       |

```
      00 01 02 03 04 05 06 07  08 09 0A 0B 0C 0D 0E 0F
      -- -- -- -- -- -- -- --  -- -- -- -- -- -- -- --
0000:       00                                            .             
```

#### Opcodes

```
  0: 0x0002 [0x00] END_REQSTACK()
```

### Event 25

#### Metadata

| Field        | Value    |
|--------------|----------|
| Entrypoint   | 0x0003   |
| Data Size    | 60 bytes |
| Instructions | 12       |

```
      00 01 02 03 04 05 06 07  08 09 0A 0B 0C 0D 0E 0F
      -- -- -- -- -- -- -- --  -- -- -- -- -- -- -- --
0000:          1E F0 FF FF 7F  6F 70 66 00 80 F8 FF FF     .....opf.....
0010: 7F F8 FF FF 7F 74 6C 6B  30 1D 01 80 23 1D 02 80  .....tlk0...#...
0020: 23 66 00 80 F8 FF FF 7F  F8 FF FF 7F 74 6C 6B 31  #f..........tlk1
0030: 53 F8 FF FF 7F F8 FF FF  7F 74 6C 6B 31 21 00     S........tlk1!. 
```

#### Opcodes

```
  0: 0x0003 [0x1E] EventEntity looks at LocalPlayer and starts talking
  1: 0x0008 [0x6F] WAIT_FRAME_DELAY: Yield until WaitTime reaches zero
  2: 0x0009 [0x70] WAIT_ENTITY_RENDER_FLAG: Wait while EventEntity->Render.Flags3 bit 2 is set (cancel turn if not)
  3: 0x000A [0x66] LOAD_EXT_SCHEDULER_MAIN: Load scheduler "tlk0" with entities [EventEntity, EventEntity], work=29*
  4: 0x0019 [0x1D] PRINT_EVENT_MESSAGE(message_id=11067*)
    → "Strange whirlpools in Valkurm and Qufim... Shattered Telepoints... What could it all mean?"
  5: 0x001C [0x23] WAIT_FOR_DIALOG_INTERACTION
  6: 0x001D [0x1D] PRINT_EVENT_MESSAGE(message_id=11065*)
    → "From what I gather, the ducal scientists believe this phenomenon has something to do with the shattered Telepoints at the Crags of Holla, Dem, and Mea."
  7: 0x0020 [0x23] WAIT_FOR_DIALOG_INTERACTION
  8: 0x0021 [0x66] LOAD_EXT_SCHEDULER_MAIN: Load scheduler "tlk1" with entities [EventEntity, EventEntity], work=29*
  9: 0x0030 [0x53] WAIT_SCHEDULER_TASK: Wait for scheduler "tlk1" with entities [EventEntity, EventEntity]
 10: 0x003D [0x21] END_EVENT
 11: 0x003E [0x00] END_REQSTACK()
```

### Event 26

#### Metadata

| Field        | Value    |
|--------------|----------|
| Entrypoint   | 0x003F   |
| Data Size    | 60 bytes |
| Instructions | 12       |

```
      00 01 02 03 04 05 06 07  08 09 0A 0B 0C 0D 0E 0F
      -- -- -- -- -- -- -- --  -- -- -- -- -- -- -- --
0030:                                               1E                 .
0040: F0 FF FF 7F 6F 70 66 00  80 F8 FF FF 7F F8 FF FF  ....opf.........
0050: 7F 74 6C 6B 30 1D 03 80  23 1D 04 80 23 66 00 80  .tlk0...#...#f..
0060: F8 FF FF 7F F8 FF FF 7F  74 6C 6B 31 53 F8 FF FF  ........tlk1S...
0070: 7F F8 FF FF 7F 74 6C 6B  31 21 00                 .....tlk1!.     
```

#### Opcodes

```
  0: 0x003F [0x1E] EventEntity looks at LocalPlayer and starts talking
  1: 0x0044 [0x6F] WAIT_FRAME_DELAY: Yield until WaitTime reaches zero
  2: 0x0045 [0x70] WAIT_ENTITY_RENDER_FLAG: Wait while EventEntity->Render.Flags3 bit 2 is set (cancel turn if not)
  3: 0x0046 [0x66] LOAD_EXT_SCHEDULER_MAIN: Load scheduler "tlk0" with entities [EventEntity, EventEntity], work=29*
  4: 0x0055 [0x1D] PRINT_EVENT_MESSAGE(message_id=11068*)
    → "The investigatory report written by the Ducal Guards mentioned that the whirlpools in Valkurm and Qufim are made up of an unknown substance that they call the "Emptiness.""
  5: 0x0058 [0x23] WAIT_FOR_DIALOG_INTERACTION
  6: 0x0059 [0x1D] PRINT_EVENT_MESSAGE(message_id=11069*)
    → "And now there are rumors stating that by jumping into these dark vortexes, people can instantly teleport themselves to the lost island of Tavnazia! I don't know about you, but I am staying right here where it is safe!"
  7: 0x005C [0x23] WAIT_FOR_DIALOG_INTERACTION
  8: 0x005D [0x66] LOAD_EXT_SCHEDULER_MAIN: Load scheduler "tlk1" with entities [EventEntity, EventEntity], work=29*
  9: 0x006C [0x53] WAIT_SCHEDULER_TASK: Wait for scheduler "tlk1" with entities [EventEntity, EventEntity]
 10: 0x0079 [0x21] END_EVENT
 11: 0x007A [0x00] END_REQSTACK()
```

### Event 27

#### Metadata

| Field        | Value    |
|--------------|----------|
| Entrypoint   | 0x007B   |
| Data Size    | 56 bytes |
| Instructions | 10       |

```
      00 01 02 03 04 05 06 07  08 09 0A 0B 0C 0D 0E 0F
      -- -- -- -- -- -- -- --  -- -- -- -- -- -- -- --
0070:                                   1E F0 FF FF 7F             .....
0080: 6F 70 66 00 80 F8 FF FF  7F F8 FF FF 7F 74 6C 6B  opf..........tlk
0090: 30 1D 05 80 23 66 00 80  F8 FF FF 7F F8 FF FF 7F  0...#f..........
00A0: 74 6C 6B 31 53 F8 FF FF  7F F8 FF FF 7F 74 6C 6B  tlk1S........tlk
00B0: 31 21 00                                          1!.             
```

#### Opcodes

```
  0: 0x007B [0x1E] EventEntity looks at LocalPlayer and starts talking
  1: 0x0080 [0x6F] WAIT_FRAME_DELAY: Yield until WaitTime reaches zero
  2: 0x0081 [0x70] WAIT_ENTITY_RENDER_FLAG: Wait while EventEntity->Render.Flags3 bit 2 is set (cancel turn if not)
  3: 0x0082 [0x66] LOAD_EXT_SCHEDULER_MAIN: Load scheduler "tlk0" with entities [EventEntity, EventEntity], work=29*
  4: 0x0091 [0x1D] PRINT_EVENT_MESSAGE(message_id=11082*)
    → "While the Jeuno Armada is making preparations for battle, it remains the duty of the Ducal Guard to ensure the safety of the citizens of Jeuno."
  5: 0x0094 [0x23] WAIT_FOR_DIALOG_INTERACTION
  6: 0x0095 [0x66] LOAD_EXT_SCHEDULER_MAIN: Load scheduler "tlk1" with entities [EventEntity, EventEntity], work=29*
  7: 0x00A4 [0x53] WAIT_SCHEDULER_TASK: Wait for scheduler "tlk1" with entities [EventEntity, EventEntity]
  8: 0x00B1 [0x21] END_EVENT
  9: 0x00B2 [0x00] END_REQSTACK()
```

### Event 28

#### Metadata

| Field        | Value    |
|--------------|----------|
| Entrypoint   | 0x00B3   |
| Data Size    | 56 bytes |
| Instructions | 10       |

```
      00 01 02 03 04 05 06 07  08 09 0A 0B 0C 0D 0E 0F
      -- -- -- -- -- -- -- --  -- -- -- -- -- -- -- --
00B0:          1E F0 FF FF 7F  6F 70 66 00 80 F8 FF FF     .....opf.....
00C0: 7F F8 FF FF 7F 74 6C 6B  30 1D 06 80 23 66 00 80  .....tlk0...#f..
00D0: F8 FF FF 7F F8 FF FF 7F  74 6C 6B 31 53 F8 FF FF  ........tlk1S...
00E0: 7F F8 FF FF 7F 74 6C 6B  31 21 00                 .....tlk1!.     
```

#### Opcodes

```
  0: 0x00B3 [0x1E] EventEntity looks at LocalPlayer and starts talking
  1: 0x00B8 [0x6F] WAIT_FRAME_DELAY: Yield until WaitTime reaches zero
  2: 0x00B9 [0x70] WAIT_ENTITY_RENDER_FLAG: Wait while EventEntity->Render.Flags3 bit 2 is set (cancel turn if not)
  3: 0x00BA [0x66] LOAD_EXT_SCHEDULER_MAIN: Load scheduler "tlk0" with entities [EventEntity, EventEntity], work=29*
  4: 0x00C9 [0x1D] PRINT_EVENT_MESSAGE(message_id=11093*)
    → "One of the armada warships is missing! With all the tightened security, how could anyone have pulled off a feat as grand as stealing an airship!?"
  5: 0x00CC [0x23] WAIT_FOR_DIALOG_INTERACTION
  6: 0x00CD [0x66] LOAD_EXT_SCHEDULER_MAIN: Load scheduler "tlk1" with entities [EventEntity, EventEntity], work=29*
  7: 0x00DC [0x53] WAIT_SCHEDULER_TASK: Wait for scheduler "tlk1" with entities [EventEntity, EventEntity]
  8: 0x00E9 [0x21] END_EVENT
  9: 0x00EA [0x00] END_REQSTACK()
```

### Event 29

#### Metadata

| Field        | Value    |
|--------------|----------|
| Entrypoint   | 0x00EB   |
| Data Size    | 41 bytes |
| Instructions | 9        |

```
      00 01 02 03 04 05 06 07  08 09 0A 0B 0C 0D 0E 0F
      -- -- -- -- -- -- -- --  -- -- -- -- -- -- -- --
00E0:                                   1E F0 FF FF 7F             .....
00F0: 6F 70 1D 07 80 23 66 00  80 F8 FF FF 7F F8 FF FF  op...#f.........
0100: 7F 74 6C 6B 31 53 F8 FF  FF 7F F8 FF FF 7F 74 6C  .tlk1S........tl
0110: 6B 31 21 00                                       k1!.            
```

#### Opcodes

```
  0: 0x00EB [0x1E] EventEntity looks at LocalPlayer and starts talking
  1: 0x00F0 [0x6F] WAIT_FRAME_DELAY: Yield until WaitTime reaches zero
  2: 0x00F1 [0x70] WAIT_ENTITY_RENDER_FLAG: Wait while EventEntity->Render.Flags3 bit 2 is set (cancel turn if not)
  3: 0x00F2 [0x1D] PRINT_EVENT_MESSAGE(message_id=11094*)
    → "While the Jeuno Armada is conducting its mission in the skies, it remains the duty of the Ducal Guard to ensure the safety of the citizens of Jeuno."
  4: 0x00F5 [0x23] WAIT_FOR_DIALOG_INTERACTION
  5: 0x00F6 [0x66] LOAD_EXT_SCHEDULER_MAIN: Load scheduler "tlk1" with entities [EventEntity, EventEntity], work=29*
  6: 0x0105 [0x53] WAIT_SCHEDULER_TASK: Wait for scheduler "tlk1" with entities [EventEntity, EventEntity]
  7: 0x0112 [0x21] END_EVENT
  8: 0x0113 [0x00] END_REQSTACK()
```

### Event 155

#### Metadata

| Field        | Value    |
|--------------|----------|
| Entrypoint   | 0x0114   |
| Data Size    | 60 bytes |
| Instructions | 12       |

```
      00 01 02 03 04 05 06 07  08 09 0A 0B 0C 0D 0E 0F
      -- -- -- -- -- -- -- --  -- -- -- -- -- -- -- --
0110:             1E F0 FF FF  7F 6F 70 66 00 80 F8 FF      .....opf....
0120: FF 7F F8 FF FF 7F 74 6C  6B 30 1D 08 80 23 1D 09  ......tlk0...#..
0130: 80 23 66 00 80 F8 FF FF  7F F8 FF FF 7F 74 6C 6B  .#f..........tlk
0140: 31 53 F8 FF FF 7F F8 FF  FF 7F 74 6C 6B 31 21 00  1S........tlk1!.
```

#### Opcodes

```
  0: 0x0114 [0x1E] EventEntity looks at LocalPlayer and starts talking
  1: 0x0119 [0x6F] WAIT_FRAME_DELAY: Yield until WaitTime reaches zero
  2: 0x011A [0x70] WAIT_ENTITY_RENDER_FLAG: Wait while EventEntity->Render.Flags3 bit 2 is set (cancel turn if not)
  3: 0x011B [0x66] LOAD_EXT_SCHEDULER_MAIN: Load scheduler "tlk0" with entities [EventEntity, EventEntity], work=29*
  4: 0x012A [0x1D] PRINT_EVENT_MESSAGE(message_id=10196*)
    → "This the hall of the Ducal Guards. Only the finest warriors may join. Come to think of it, this is no place for civilians like you."
  5: 0x012D [0x23] WAIT_FOR_DIALOG_INTERACTION
  6: 0x012E [0x1D] PRINT_EVENT_MESSAGE(message_id=10197*)
    → "Sir Wolfgang is our leader. He was selected not just for his skill at arms, but also for his unwavering determination."
  7: 0x0131 [0x23] WAIT_FOR_DIALOG_INTERACTION
  8: 0x0132 [0x66] LOAD_EXT_SCHEDULER_MAIN: Load scheduler "tlk1" with entities [EventEntity, EventEntity], work=29*
  9: 0x0141 [0x53] WAIT_SCHEDULER_TASK: Wait for scheduler "tlk1" with entities [EventEntity, EventEntity]
 10: 0x014E [0x21] END_EVENT
 11: 0x014F [0x00] END_REQSTACK()
```

### Event 65535.1

#### Metadata

| Field        | Value    |
|--------------|----------|
| Entrypoint   | 0x0150   |
| Data Size    | 16 bytes |
| Instructions | 2        |

```
      00 01 02 03 04 05 06 07  08 09 0A 0B 0C 0D 0E 0F
      -- -- -- -- -- -- -- --  -- -- -- -- -- -- -- --
0150: 5B 0A 80 F8 FF FF 7F F8  FF FF 7F 6C 6B 6C 72 00  [..........lklr.
```

#### Opcodes

```
  0: 0x0150 [0x5B] LOAD_EXT_SCHEDULER: Load scheduler "lklr" with entities [EventEntity, EventEntity], work=417*
  1: 0x015F [0x00] END_REQSTACK()
```

### Event 65535.2

#### Metadata

| Field        | Value    |
|--------------|----------|
| Entrypoint   | 0x0160   |
| Data Size    | 14 bytes |
| Instructions | 2        |

```
      00 01 02 03 04 05 06 07  08 09 0A 0B 0C 0D 0E 0F
      -- -- -- -- -- -- -- --  -- -- -- -- -- -- -- --
0160: 53 F8 FF FF 7F F8 FF FF  7F 6C 6B 6C 72 00        S........lklr.  
```

#### Opcodes

```
  0: 0x0160 [0x53] WAIT_SCHEDULER_TASK: Wait for scheduler "lklr" with entities [EventEntity, EventEntity]
  1: 0x016D [0x00] END_REQSTACK()
```

### Event 65535.3

#### Metadata

| Field        | Value    |
|--------------|----------|
| Entrypoint   | 0x016E   |
| Data Size    | 16 bytes |
| Instructions | 2        |

```
      00 01 02 03 04 05 06 07  08 09 0A 0B 0C 0D 0E 0F
      -- -- -- -- -- -- -- --  -- -- -- -- -- -- -- --
0160:                                            5B 0B                [.
0170: 80 F8 FF FF 7F F8 FF FF  7F 75 74 61 68 00        .........utah.  
```

#### Opcodes

```
  0: 0x016E [0x5B] LOAD_EXT_SCHEDULER: Load scheduler "utah" with entities [EventEntity, EventEntity], work=416*
  1: 0x017D [0x00] END_REQSTACK()
```

### Event 65535.4

#### Metadata

| Field        | Value    |
|--------------|----------|
| Entrypoint   | 0x017E   |
| Data Size    | 14 bytes |
| Instructions | 2        |

```
      00 01 02 03 04 05 06 07  08 09 0A 0B 0C 0D 0E 0F
      -- -- -- -- -- -- -- --  -- -- -- -- -- -- -- --
0170:                                            53 F8                S.
0180: FF FF 7F F8 FF FF 7F 75  74 61 68 00              .......utah.    
```

#### Opcodes

```
  0: 0x017E [0x53] WAIT_SCHEDULER_TASK: Wait for scheduler "utah" with entities [EventEntity, EventEntity]
  1: 0x018B [0x00] END_REQSTACK()
```

### Event 65535.5

#### Metadata

| Field        | Value    |
|--------------|----------|
| Entrypoint   | 0x018C   |
| Data Size    | 16 bytes |
| Instructions | 2        |

```
      00 01 02 03 04 05 06 07  08 09 0A 0B 0C 0D 0E 0F
      -- -- -- -- -- -- -- --  -- -- -- -- -- -- -- --
0180:                                      5B 0B 80 F8              [...
0190: FF FF 7F F8 FF FF 7F 75  74 61 6E 00              .......utan.    
```

#### Opcodes

```
  0: 0x018C [0x5B] LOAD_EXT_SCHEDULER: Load scheduler "utan" with entities [EventEntity, EventEntity], work=416*
  1: 0x019B [0x00] END_REQSTACK()
```

### Event 65535.6

#### Metadata

| Field        | Value    |
|--------------|----------|
| Entrypoint   | 0x019C   |
| Data Size    | 14 bytes |
| Instructions | 2        |

```
      00 01 02 03 04 05 06 07  08 09 0A 0B 0C 0D 0E 0F
      -- -- -- -- -- -- -- --  -- -- -- -- -- -- -- --
0190:                                      53 F8 FF FF              S...
01A0: 7F F8 FF FF 7F 75 74 61  6E 00                    .....utan.      
```

#### Opcodes

```
  0: 0x019C [0x53] WAIT_SCHEDULER_TASK: Wait for scheduler "utan" with entities [EventEntity, EventEntity]
  1: 0x01A9 [0x00] END_REQSTACK()
```

### Event 65535.7

#### Metadata

| Field        | Value    |
|--------------|----------|
| Entrypoint   | 0x01AA   |
| Data Size    | 16 bytes |
| Instructions | 2        |

```
      00 01 02 03 04 05 06 07  08 09 0A 0B 0C 0D 0E 0F
      -- -- -- -- -- -- -- --  -- -- -- -- -- -- -- --
01A0:                                5B 0B 80 F8 FF FF            [.....
01B0: 7F F8 FF FF 7F 68 61 70  79 00                    .....hapy.      
```

#### Opcodes

```
  0: 0x01AA [0x5B] LOAD_EXT_SCHEDULER: Load scheduler "hapy" with entities [EventEntity, EventEntity], work=416*
  1: 0x01B9 [0x00] END_REQSTACK()
```

### Event 65535.8

#### Metadata

| Field        | Value    |
|--------------|----------|
| Entrypoint   | 0x01BA   |
| Data Size    | 14 bytes |
| Instructions | 2        |

```
      00 01 02 03 04 05 06 07  08 09 0A 0B 0C 0D 0E 0F
      -- -- -- -- -- -- -- --  -- -- -- -- -- -- -- --
01B0:                                53 F8 FF FF 7F F8            S.....
01C0: FF FF 7F 68 61 70 79 00                           ...hapy.        
```

#### Opcodes

```
  0: 0x01BA [0x53] WAIT_SCHEDULER_TASK: Wait for scheduler "hapy" with entities [EventEntity, EventEntity]
  1: 0x01C7 [0x00] END_REQSTACK()
```

### Event 65535.9

#### Metadata

| Field        | Value    |
|--------------|----------|
| Entrypoint   | 0x01C8   |
| Data Size    | 16 bytes |
| Instructions | 2        |

```
      00 01 02 03 04 05 06 07  08 09 0A 0B 0C 0D 0E 0F
      -- -- -- -- -- -- -- --  -- -- -- -- -- -- -- --
01C0:                          5B 0A 80 F8 FF FF 7F F8          [.......
01D0: FF FF 7F 73 69 6E 30 00                           ...sin0.        
```

#### Opcodes

```
  0: 0x01C8 [0x5B] LOAD_EXT_SCHEDULER: Load scheduler "sin0" with entities [EventEntity, EventEntity], work=417*
  1: 0x01D7 [0x00] END_REQSTACK()
```

### Event 65535.10

#### Metadata

| Field        | Value    |
|--------------|----------|
| Entrypoint   | 0x01D8   |
| Data Size    | 14 bytes |
| Instructions | 2        |

```
      00 01 02 03 04 05 06 07  08 09 0A 0B 0C 0D 0E 0F
      -- -- -- -- -- -- -- --  -- -- -- -- -- -- -- --
01D0:                          53 F8 FF FF 7F F8 FF FF          S.......
01E0: 7F 73 69 6E 30 00                                 .sin0.          
```

#### Opcodes

```
  0: 0x01D8 [0x53] WAIT_SCHEDULER_TASK: Wait for scheduler "sin0" with entities [EventEntity, EventEntity]
  1: 0x01E5 [0x00] END_REQSTACK()
```

### Event 65535.11

#### Metadata

| Field        | Value    |
|--------------|----------|
| Entrypoint   | 0x01E6   |
| Data Size    | 16 bytes |
| Instructions | 2        |

```
      00 01 02 03 04 05 06 07  08 09 0A 0B 0C 0D 0E 0F
      -- -- -- -- -- -- -- --  -- -- -- -- -- -- -- --
01E0:                   66 0C  80 F8 FF FF 7F F8 FF FF        f.........
01F0: 7F 73 77 6F 30 00                                 .swo0.          
```

#### Opcodes

```
  0: 0x01E6 [0x66] LOAD_EXT_SCHEDULER_MAIN: Load scheduler "swo0" with entities [EventEntity, EventEntity], work=24*
  1: 0x01F5 [0x00] END_REQSTACK()
```

### Event 65535.12

#### Metadata

| Field        | Value    |
|--------------|----------|
| Entrypoint   | 0x01F6   |
| Data Size    | 14 bytes |
| Instructions | 2        |

```
      00 01 02 03 04 05 06 07  08 09 0A 0B 0C 0D 0E 0F
      -- -- -- -- -- -- -- --  -- -- -- -- -- -- -- --
01F0:                   53 F8  FF FF 7F F8 FF FF 7F 73        S........s
0200: 77 6F 30 00                                       wo0.            
```

#### Opcodes

```
  0: 0x01F6 [0x53] WAIT_SCHEDULER_TASK: Wait for scheduler "swo0" with entities [EventEntity, EventEntity]
  1: 0x0203 [0x00] END_REQSTACK()
```

### Event 65535.13

#### Metadata

| Field        | Value    |
|--------------|----------|
| Entrypoint   | 0x0204   |
| Data Size    | 16 bytes |
| Instructions | 2        |

```
      00 01 02 03 04 05 06 07  08 09 0A 0B 0C 0D 0E 0F
      -- -- -- -- -- -- -- --  -- -- -- -- -- -- -- --
0200:             66 0C 80 F8  FF FF 7F F8 FF FF 7F 73      f..........s
0210: 77 6F 31 00                                       wo1.            
```

#### Opcodes

```
  0: 0x0204 [0x66] LOAD_EXT_SCHEDULER_MAIN: Load scheduler "swo1" with entities [EventEntity, EventEntity], work=24*
  1: 0x0213 [0x00] END_REQSTACK()
```

### Event 65535.14

#### Metadata

| Field        | Value    |
|--------------|----------|
| Entrypoint   | 0x0214   |
| Data Size    | 14 bytes |
| Instructions | 2        |

```
      00 01 02 03 04 05 06 07  08 09 0A 0B 0C 0D 0E 0F
      -- -- -- -- -- -- -- --  -- -- -- -- -- -- -- --
0210:             53 F8 FF FF  7F F8 FF FF 7F 73 77 6F      S........swo
0220: 31 00                                             1.              
```

#### Opcodes

```
  0: 0x0214 [0x53] WAIT_SCHEDULER_TASK: Wait for scheduler "swo1" with entities [EventEntity, EventEntity]
  1: 0x0221 [0x00] END_REQSTACK()
```

### Event 65535.15

#### Metadata

| Field        | Value    |
|--------------|----------|
| Entrypoint   | 0x0222   |
| Data Size    | 16 bytes |
| Instructions | 2        |

```
      00 01 02 03 04 05 06 07  08 09 0A 0B 0C 0D 0E 0F
      -- -- -- -- -- -- -- --  -- -- -- -- -- -- -- --
0220:       66 00 80 F8 FF FF  7F F8 FF FF 7F 74 6C 6B    f..........tlk
0230: 30 00                                             0.              
```

#### Opcodes

```
  0: 0x0222 [0x66] LOAD_EXT_SCHEDULER_MAIN: Load scheduler "tlk0" with entities [EventEntity, EventEntity], work=29*
  1: 0x0231 [0x00] END_REQSTACK()
```

### Event 65535.16

#### Metadata

| Field        | Value    |
|--------------|----------|
| Entrypoint   | 0x0232   |
| Data Size    | 14 bytes |
| Instructions | 2        |

```
      00 01 02 03 04 05 06 07  08 09 0A 0B 0C 0D 0E 0F
      -- -- -- -- -- -- -- --  -- -- -- -- -- -- -- --
0230:       53 F8 FF FF 7F F8  FF FF 7F 74 6C 6B 30 00    S........tlk0.
```

#### Opcodes

```
  0: 0x0232 [0x53] WAIT_SCHEDULER_TASK: Wait for scheduler "tlk0" with entities [EventEntity, EventEntity]
  1: 0x023F [0x00] END_REQSTACK()
```

### Event 65535.17

#### Metadata

| Field        | Value    |
|--------------|----------|
| Entrypoint   | 0x0240   |
| Data Size    | 16 bytes |
| Instructions | 2        |

```
      00 01 02 03 04 05 06 07  08 09 0A 0B 0C 0D 0E 0F
      -- -- -- -- -- -- -- --  -- -- -- -- -- -- -- --
0240: 66 00 80 F8 FF FF 7F F8  FF FF 7F 74 6C 6B 31 00  f..........tlk1.
```

#### Opcodes

```
  0: 0x0240 [0x66] LOAD_EXT_SCHEDULER_MAIN: Load scheduler "tlk1" with entities [EventEntity, EventEntity], work=29*
  1: 0x024F [0x00] END_REQSTACK()
```

### Event 65535.18

#### Metadata

| Field        | Value    |
|--------------|----------|
| Entrypoint   | 0x0250   |
| Data Size    | 14 bytes |
| Instructions | 2        |

```
      00 01 02 03 04 05 06 07  08 09 0A 0B 0C 0D 0E 0F
      -- -- -- -- -- -- -- --  -- -- -- -- -- -- -- --
0250: 53 F8 FF FF 7F F8 FF FF  7F 74 6C 6B 31 00        S........tlk1.  
```

#### Opcodes

```
  0: 0x0250 [0x53] WAIT_SCHEDULER_TASK: Wait for scheduler "tlk1" with entities [EventEntity, EventEntity]
  1: 0x025D [0x00] END_REQSTACK()
```

### Event 65535.19

#### Metadata

| Field        | Value    |
|--------------|----------|
| Entrypoint   | 0x025E   |
| Data Size    | 16 bytes |
| Instructions | 2        |

```
      00 01 02 03 04 05 06 07  08 09 0A 0B 0C 0D 0E 0F
      -- -- -- -- -- -- -- --  -- -- -- -- -- -- -- --
0250:                                            66 00                f.
0260: 80 F8 FF FF 7F F8 FF FF  7F 74 68 6B 31 00        .........thk1.  
```

#### Opcodes

```
  0: 0x025E [0x66] LOAD_EXT_SCHEDULER_MAIN: Load scheduler "thk1" with entities [EventEntity, EventEntity], work=29*
  1: 0x026D [0x00] END_REQSTACK()
```

### Event 65535.20

#### Metadata

| Field        | Value    |
|--------------|----------|
| Entrypoint   | 0x026E   |
| Data Size    | 14 bytes |
| Instructions | 2        |

```
      00 01 02 03 04 05 06 07  08 09 0A 0B 0C 0D 0E 0F
      -- -- -- -- -- -- -- --  -- -- -- -- -- -- -- --
0260:                                            53 F8                S.
0270: FF FF 7F F8 FF FF 7F 74  68 6B 31 00              .......thk1.    
```

#### Opcodes

```
  0: 0x026E [0x53] WAIT_SCHEDULER_TASK: Wait for scheduler "thk1" with entities [EventEntity, EventEntity]
  1: 0x027B [0x00] END_REQSTACK()
```

### Event 65535.21

#### Metadata

| Field        | Value    |
|--------------|----------|
| Entrypoint   | 0x027C   |
| Data Size    | 16 bytes |
| Instructions | 2        |

```
      00 01 02 03 04 05 06 07  08 09 0A 0B 0C 0D 0E 0F
      -- -- -- -- -- -- -- --  -- -- -- -- -- -- -- --
0270:                                      66 00 80 F8              f...
0280: FF FF 7F F8 FF FF 7F 74  68 6B 32 00              .......thk2.    
```

#### Opcodes

```
  0: 0x027C [0x66] LOAD_EXT_SCHEDULER_MAIN: Load scheduler "thk2" with entities [EventEntity, EventEntity], work=29*
  1: 0x028B [0x00] END_REQSTACK()
```

### Event 65535.22

#### Metadata

| Field        | Value    |
|--------------|----------|
| Entrypoint   | 0x028C   |
| Data Size    | 14 bytes |
| Instructions | 2        |

```
      00 01 02 03 04 05 06 07  08 09 0A 0B 0C 0D 0E 0F
      -- -- -- -- -- -- -- --  -- -- -- -- -- -- -- --
0280:                                      53 F8 FF FF              S...
0290: 7F F8 FF FF 7F 74 68 6B  32 00                    .....thk2.      
```

#### Opcodes

```
  0: 0x028C [0x53] WAIT_SCHEDULER_TASK: Wait for scheduler "thk2" with entities [EventEntity, EventEntity]
  1: 0x0299 [0x00] END_REQSTACK()
```

### Event 65535.23

#### Metadata

| Field        | Value    |
|--------------|----------|
| Entrypoint   | 0x029A   |
| Data Size    | 16 bytes |
| Instructions | 2        |

```
      00 01 02 03 04 05 06 07  08 09 0A 0B 0C 0D 0E 0F
      -- -- -- -- -- -- -- --  -- -- -- -- -- -- -- --
0290:                                66 00 80 F8 FF FF            f.....
02A0: 7F F8 FF FF 7F 73 68 61  30 00                    .....sha0.      
```

#### Opcodes

```
  0: 0x029A [0x66] LOAD_EXT_SCHEDULER_MAIN: Load scheduler "sha0" with entities [EventEntity, EventEntity], work=29*
  1: 0x02A9 [0x00] END_REQSTACK()
```

### Event 65535.24

#### Metadata

| Field        | Value    |
|--------------|----------|
| Entrypoint   | 0x02AA   |
| Data Size    | 14 bytes |
| Instructions | 2        |

```
      00 01 02 03 04 05 06 07  08 09 0A 0B 0C 0D 0E 0F
      -- -- -- -- -- -- -- --  -- -- -- -- -- -- -- --
02A0:                                53 F8 FF FF 7F F8            S.....
02B0: FF FF 7F 73 68 61 30 00                           ...sha0.        
```

#### Opcodes

```
  0: 0x02AA [0x53] WAIT_SCHEDULER_TASK: Wait for scheduler "sha0" with entities [EventEntity, EventEntity]
  1: 0x02B7 [0x00] END_REQSTACK()
```

### Event 65535.25

#### Metadata

| Field        | Value    |
|--------------|----------|
| Entrypoint   | 0x02B8   |
| Data Size    | 16 bytes |
| Instructions | 2        |

```
      00 01 02 03 04 05 06 07  08 09 0A 0B 0C 0D 0E 0F
      -- -- -- -- -- -- -- --  -- -- -- -- -- -- -- --
02B0:                          66 00 80 F8 FF FF 7F F8          f.......
02C0: FF FF 7F 73 68 61 31 00                           ...sha1.        
```

#### Opcodes

```
  0: 0x02B8 [0x66] LOAD_EXT_SCHEDULER_MAIN: Load scheduler "sha1" with entities [EventEntity, EventEntity], work=29*
  1: 0x02C7 [0x00] END_REQSTACK()
```

### Event 65535.26

#### Metadata

| Field        | Value    |
|--------------|----------|
| Entrypoint   | 0x02C8   |
| Data Size    | 14 bytes |
| Instructions | 2        |

```
      00 01 02 03 04 05 06 07  08 09 0A 0B 0C 0D 0E 0F
      -- -- -- -- -- -- -- --  -- -- -- -- -- -- -- --
02C0:                          53 F8 FF FF 7F F8 FF FF          S.......
02D0: 7F 73 68 61 31 00                                 .sha1.          
```

#### Opcodes

```
  0: 0x02C8 [0x53] WAIT_SCHEDULER_TASK: Wait for scheduler "sha1" with entities [EventEntity, EventEntity]
  1: 0x02D5 [0x00] END_REQSTACK()
```

### Event 65535.27

#### Metadata

| Field        | Value    |
|--------------|----------|
| Entrypoint   | 0x02D6   |
| Data Size    | 57 bytes |
| Instructions | 5        |

```
      00 01 02 03 04 05 06 07  08 09 0A 0B 0C 0D 0E 0F
      -- -- -- -- -- -- -- --  -- -- -- -- -- -- -- --
02D0:                   66 00  80 F8 FF FF 7F F8 FF FF        f.........
02E0: 7F 73 68 61 30 53 F8 FF  FF 7F F8 FF FF 7F 73 68  .sha0S........sh
02F0: 61 30 66 00 80 F8 FF FF  7F F8 FF FF 7F 73 68 61  a0f..........sha
0300: 31 53 F8 FF FF 7F F8 FF  FF 7F 73 68 61 31 00     1S........sha1. 
```

#### Opcodes

```
  0: 0x02D6 [0x66] LOAD_EXT_SCHEDULER_MAIN: Load scheduler "sha0" with entities [EventEntity, EventEntity], work=29*
  1: 0x02E5 [0x53] WAIT_SCHEDULER_TASK: Wait for scheduler "sha0" with entities [EventEntity, EventEntity]
  2: 0x02F2 [0x66] LOAD_EXT_SCHEDULER_MAIN: Load scheduler "sha1" with entities [EventEntity, EventEntity], work=29*
  3: 0x0301 [0x53] WAIT_SCHEDULER_TASK: Wait for scheduler "sha1" with entities [EventEntity, EventEntity]
  4: 0x030E [0x00] END_REQSTACK()
```

### Event 65535.28

#### Metadata

| Field        | Value    |
|--------------|----------|
| Entrypoint   | 0x030F   |
| Data Size    | 16 bytes |
| Instructions | 2        |

```
      00 01 02 03 04 05 06 07  08 09 0A 0B 0C 0D 0E 0F
      -- -- -- -- -- -- -- --  -- -- -- -- -- -- -- --
0300:                                               66                 f
0310: 00 80 F8 FF FF 7F F8 FF  FF 7F 73 69 72 30 00     ..........sir0. 
```

#### Opcodes

```
  0: 0x030F [0x66] LOAD_EXT_SCHEDULER_MAIN: Load scheduler "sir0" with entities [EventEntity, EventEntity], work=29*
  1: 0x031E [0x00] END_REQSTACK()
```

### Event 65535.29

#### Metadata

| Field        | Value    |
|--------------|----------|
| Entrypoint   | 0x031F   |
| Data Size    | 14 bytes |
| Instructions | 2        |

```
      00 01 02 03 04 05 06 07  08 09 0A 0B 0C 0D 0E 0F
      -- -- -- -- -- -- -- --  -- -- -- -- -- -- -- --
0310:                                               53                 S
0320: F8 FF FF 7F F8 FF FF 7F  73 69 72 30 00           ........sir0.   
```

#### Opcodes

```
  0: 0x031F [0x53] WAIT_SCHEDULER_TASK: Wait for scheduler "sir0" with entities [EventEntity, EventEntity]
  1: 0x032C [0x00] END_REQSTACK()
```

### Event 65535.30

#### Metadata

| Field        | Value    |
|--------------|----------|
| Entrypoint   | 0x032D   |
| Data Size    | 16 bytes |
| Instructions | 2        |

```
      00 01 02 03 04 05 06 07  08 09 0A 0B 0C 0D 0E 0F
      -- -- -- -- -- -- -- --  -- -- -- -- -- -- -- --
0320:                                         66 00 80               f..
0330: F8 FF FF 7F F8 FF FF 7F  73 69 72 31 00           ........sir1.   
```

#### Opcodes

```
  0: 0x032D [0x66] LOAD_EXT_SCHEDULER_MAIN: Load scheduler "sir1" with entities [EventEntity, EventEntity], work=29*
  1: 0x033C [0x00] END_REQSTACK()
```

### Event 65535.31

#### Metadata

| Field        | Value    |
|--------------|----------|
| Entrypoint   | 0x033D   |
| Data Size    | 14 bytes |
| Instructions | 2        |

```
      00 01 02 03 04 05 06 07  08 09 0A 0B 0C 0D 0E 0F
      -- -- -- -- -- -- -- --  -- -- -- -- -- -- -- --
0330:                                         53 F8 FF               S..
0340: FF 7F F8 FF FF 7F 73 69  72 31 00                 ......sir1.     
```

#### Opcodes

```
  0: 0x033D [0x53] WAIT_SCHEDULER_TASK: Wait for scheduler "sir1" with entities [EventEntity, EventEntity]
  1: 0x034A [0x00] END_REQSTACK()
```

### Event 65535.32

#### Metadata

| Field        | Value    |
|--------------|----------|
| Entrypoint   | 0x034B   |
| Data Size    | 16 bytes |
| Instructions | 2        |

```
      00 01 02 03 04 05 06 07  08 09 0A 0B 0C 0D 0E 0F
      -- -- -- -- -- -- -- --  -- -- -- -- -- -- -- --
0340:                                   5B 0A 80 F8 FF             [....
0350: FF 7F F8 FF FF 7F 62 74  6C 73 00                 ......btls.     
```

#### Opcodes

```
  0: 0x034B [0x5B] LOAD_EXT_SCHEDULER: Load scheduler "btls" with entities [EventEntity, EventEntity], work=417*
  1: 0x035A [0x00] END_REQSTACK()
```

### Event 65535.33

#### Metadata

| Field        | Value    |
|--------------|----------|
| Entrypoint   | 0x035B   |
| Data Size    | 14 bytes |
| Instructions | 2        |

```
      00 01 02 03 04 05 06 07  08 09 0A 0B 0C 0D 0E 0F
      -- -- -- -- -- -- -- --  -- -- -- -- -- -- -- --
0350:                                   53 F8 FF FF 7F             S....
0360: F8 FF FF 7F 62 74 6C 73  00                       ....btls.       
```

#### Opcodes

```
  0: 0x035B [0x53] WAIT_SCHEDULER_TASK: Wait for scheduler "btls" with entities [EventEntity, EventEntity]
  1: 0x0368 [0x00] END_REQSTACK()
```

### Event 65535.34

#### Metadata

| Field        | Value    |
|--------------|----------|
| Entrypoint   | 0x0369   |
| Data Size    | 16 bytes |
| Instructions | 2        |

```
      00 01 02 03 04 05 06 07  08 09 0A 0B 0C 0D 0E 0F
      -- -- -- -- -- -- -- --  -- -- -- -- -- -- -- --
0360:                             5B 0D 80 F8 FF FF 7F           [......
0370: F8 FF FF 7F 6B 65 69 30  00                       ....kei0.       
```

#### Opcodes

```
  0: 0x0369 [0x5B] LOAD_EXT_SCHEDULER: Load scheduler "kei0" with entities [EventEntity, EventEntity], work=418*
  1: 0x0378 [0x00] END_REQSTACK()
```

### Event 65535.35

#### Metadata

| Field        | Value    |
|--------------|----------|
| Entrypoint   | 0x0379   |
| Data Size    | 14 bytes |
| Instructions | 2        |

```
      00 01 02 03 04 05 06 07  08 09 0A 0B 0C 0D 0E 0F
      -- -- -- -- -- -- -- --  -- -- -- -- -- -- -- --
0370:                             53 F8 FF FF 7F F8 FF           S......
0380: FF 7F 6B 65 69 30 00                              ..kei0.         
```

#### Opcodes

```
  0: 0x0379 [0x53] WAIT_SCHEDULER_TASK: Wait for scheduler "kei0" with entities [EventEntity, EventEntity]
  1: 0x0386 [0x00] END_REQSTACK()
```

### Event 65535.36

#### Metadata

| Field        | Value    |
|--------------|----------|
| Entrypoint   | 0x0387   |
| Data Size    | 16 bytes |
| Instructions | 2        |

```
      00 01 02 03 04 05 06 07  08 09 0A 0B 0C 0D 0E 0F
      -- -- -- -- -- -- -- --  -- -- -- -- -- -- -- --
0380:                      5B  0D 80 F8 FF FF 7F F8 FF         [........
0390: FF 7F 6B 65 69 31 00                              ..kei1.         
```

#### Opcodes

```
  0: 0x0387 [0x5B] LOAD_EXT_SCHEDULER: Load scheduler "kei1" with entities [EventEntity, EventEntity], work=418*
  1: 0x0396 [0x00] END_REQSTACK()
```

### Event 65535.37

#### Metadata

| Field        | Value    |
|--------------|----------|
| Entrypoint   | 0x0397   |
| Data Size    | 14 bytes |
| Instructions | 2        |

```
      00 01 02 03 04 05 06 07  08 09 0A 0B 0C 0D 0E 0F
      -- -- -- -- -- -- -- --  -- -- -- -- -- -- -- --
0390:                      53  F8 FF FF 7F F8 FF FF 7F         S........
03A0: 6B 65 69 31 00                                    kei1.           
```

#### Opcodes

```
  0: 0x0397 [0x53] WAIT_SCHEDULER_TASK: Wait for scheduler "kei1" with entities [EventEntity, EventEntity]
  1: 0x03A4 [0x00] END_REQSTACK()
```

### Event 65535.38

#### Metadata

| Field        | Value    |
|--------------|----------|
| Entrypoint   | 0x03A5   |
| Data Size    | 16 bytes |
| Instructions | 2        |

```
      00 01 02 03 04 05 06 07  08 09 0A 0B 0C 0D 0E 0F
      -- -- -- -- -- -- -- --  -- -- -- -- -- -- -- --
03A0:                5B 0E 80  F8 FF FF 7F F8 FF FF 7F       [..........
03B0: 73 72 64 30 00                                    srd0.           
```

#### Opcodes

```
  0: 0x03A5 [0x5B] LOAD_EXT_SCHEDULER: Load scheduler "srd0" with entities [EventEntity, EventEntity], work=656*
  1: 0x03B4 [0x00] END_REQSTACK()
```

### Event 65535.39

#### Metadata

| Field        | Value    |
|--------------|----------|
| Entrypoint   | 0x03B5   |
| Data Size    | 14 bytes |
| Instructions | 2        |

```
      00 01 02 03 04 05 06 07  08 09 0A 0B 0C 0D 0E 0F
      -- -- -- -- -- -- -- --  -- -- -- -- -- -- -- --
03B0:                53 F8 FF  FF 7F F8 FF FF 7F 73 72       S........sr
03C0: 64 30 00                                          d0.             
```

#### Opcodes

```
  0: 0x03B5 [0x53] WAIT_SCHEDULER_TASK: Wait for scheduler "srd0" with entities [EventEntity, EventEntity]
  1: 0x03C2 [0x00] END_REQSTACK()
```

### Event 65535.40

#### Metadata

| Field        | Value    |
|--------------|----------|
| Entrypoint   | 0x03C3   |
| Data Size    | 16 bytes |
| Instructions | 2        |

```
      00 01 02 03 04 05 06 07  08 09 0A 0B 0C 0D 0E 0F
      -- -- -- -- -- -- -- --  -- -- -- -- -- -- -- --
03C0:          5B 0E 80 F8 FF  FF 7F F8 FF FF 7F 73 72     [..........sr
03D0: 64 31 00                                          d1.             
```

#### Opcodes

```
  0: 0x03C3 [0x5B] LOAD_EXT_SCHEDULER: Load scheduler "srd1" with entities [EventEntity, EventEntity], work=656*
  1: 0x03D2 [0x00] END_REQSTACK()
```

### Event 65535.41

#### Metadata

| Field        | Value    |
|--------------|----------|
| Entrypoint   | 0x03D3   |
| Data Size    | 14 bytes |
| Instructions | 2        |

```
      00 01 02 03 04 05 06 07  08 09 0A 0B 0C 0D 0E 0F
      -- -- -- -- -- -- -- --  -- -- -- -- -- -- -- --
03D0:          53 F8 FF FF 7F  F8 FF FF 7F 73 72 64 31     S........srd1
03E0: 00                                                .               
```

#### Opcodes

```
  0: 0x03D3 [0x53] WAIT_SCHEDULER_TASK: Wait for scheduler "srd1" with entities [EventEntity, EventEntity]
  1: 0x03E0 [0x00] END_REQSTACK()
```

### Event 65535.42

#### Metadata

| Field        | Value    |
|--------------|----------|
| Entrypoint   | 0x03E1   |
| Data Size    | 16 bytes |
| Instructions | 2        |

```
      00 01 02 03 04 05 06 07  08 09 0A 0B 0C 0D 0E 0F
      -- -- -- -- -- -- -- --  -- -- -- -- -- -- -- --
03E0:    5B 0F 80 F8 FF FF 7F  F8 FF FF 7F 6A 6D 70 30   [..........jmp0
03F0: 00                                                .               
```

#### Opcodes

```
  0: 0x03E1 [0x5B] LOAD_EXT_SCHEDULER: Load scheduler "jmp0" with entities [EventEntity, EventEntity], work=419*
  1: 0x03F0 [0x00] END_REQSTACK()
```

### Event 65535.43

#### Metadata

| Field        | Value    |
|--------------|----------|
| Entrypoint   | 0x03F1   |
| Data Size    | 14 bytes |
| Instructions | 2        |

```
      00 01 02 03 04 05 06 07  08 09 0A 0B 0C 0D 0E 0F
      -- -- -- -- -- -- -- --  -- -- -- -- -- -- -- --
03F0:    53 F8 FF FF 7F F8 FF  FF 7F 6A 6D 70 30 00      S........jmp0. 
```

#### Opcodes

```
  0: 0x03F1 [0x53] WAIT_SCHEDULER_TASK: Wait for scheduler "jmp0" with entities [EventEntity, EventEntity]
  1: 0x03FE [0x00] END_REQSTACK()
```

### Event 65535.44

#### Metadata

| Field        | Value    |
|--------------|----------|
| Entrypoint   | 0x03FF   |
| Data Size    | 16 bytes |
| Instructions | 2        |

```
      00 01 02 03 04 05 06 07  08 09 0A 0B 0C 0D 0E 0F
      -- -- -- -- -- -- -- --  -- -- -- -- -- -- -- --
03F0:                                               66                 f
0400: 00 80 F8 FF FF 7F F8 FF  FF 7F 74 77 61 30 00     ..........twa0. 
```

#### Opcodes

```
  0: 0x03FF [0x66] LOAD_EXT_SCHEDULER_MAIN: Load scheduler "twa0" with entities [EventEntity, EventEntity], work=29*
  1: 0x040E [0x00] END_REQSTACK()
```

### Event 65535.45

#### Metadata

| Field        | Value    |
|--------------|----------|
| Entrypoint   | 0x040F   |
| Data Size    | 14 bytes |
| Instructions | 2        |

```
      00 01 02 03 04 05 06 07  08 09 0A 0B 0C 0D 0E 0F
      -- -- -- -- -- -- -- --  -- -- -- -- -- -- -- --
0400:                                               53                 S
0410: F8 FF FF 7F F8 FF FF 7F  74 77 61 30 00           ........twa0.   
```

#### Opcodes

```
  0: 0x040F [0x53] WAIT_SCHEDULER_TASK: Wait for scheduler "twa0" with entities [EventEntity, EventEntity]
  1: 0x041C [0x00] END_REQSTACK()
```

### Event 65535.46

#### Metadata

| Field        | Value    |
|--------------|----------|
| Entrypoint   | 0x041D   |
| Data Size    | 16 bytes |
| Instructions | 2        |

```
      00 01 02 03 04 05 06 07  08 09 0A 0B 0C 0D 0E 0F
      -- -- -- -- -- -- -- --  -- -- -- -- -- -- -- --
0410:                                         66 00 80               f..
0420: F8 FF FF 7F F8 FF FF 7F  74 77 61 31 00           ........twa1.   
```

#### Opcodes

```
  0: 0x041D [0x66] LOAD_EXT_SCHEDULER_MAIN: Load scheduler "twa1" with entities [EventEntity, EventEntity], work=29*
  1: 0x042C [0x00] END_REQSTACK()
```

### Event 65535.47

#### Metadata

| Field        | Value    |
|--------------|----------|
| Entrypoint   | 0x042D   |
| Data Size    | 14 bytes |
| Instructions | 2        |

```
      00 01 02 03 04 05 06 07  08 09 0A 0B 0C 0D 0E 0F
      -- -- -- -- -- -- -- --  -- -- -- -- -- -- -- --
0420:                                         53 F8 FF               S..
0430: FF 7F F8 FF FF 7F 74 77  61 31 00                 ......twa1.     
```

#### Opcodes

```
  0: 0x042D [0x53] WAIT_SCHEDULER_TASK: Wait for scheduler "twa1" with entities [EventEntity, EventEntity]
  1: 0x043A [0x00] END_REQSTACK()
```

### Event 65535.48

#### Metadata

| Field        | Value    |
|--------------|----------|
| Entrypoint   | 0x043B   |
| Data Size    | 16 bytes |
| Instructions | 2        |

```
      00 01 02 03 04 05 06 07  08 09 0A 0B 0C 0D 0E 0F
      -- -- -- -- -- -- -- --  -- -- -- -- -- -- -- --
0430:                                   66 00 80 F8 FF             f....
0440: FF 7F F8 FF FF 7F 74 77  62 30 00                 ......twb0.     
```

#### Opcodes

```
  0: 0x043B [0x66] LOAD_EXT_SCHEDULER_MAIN: Load scheduler "twb0" with entities [EventEntity, EventEntity], work=29*
  1: 0x044A [0x00] END_REQSTACK()
```

### Event 65535.49

#### Metadata

| Field        | Value    |
|--------------|----------|
| Entrypoint   | 0x044B   |
| Data Size    | 14 bytes |
| Instructions | 2        |

```
      00 01 02 03 04 05 06 07  08 09 0A 0B 0C 0D 0E 0F
      -- -- -- -- -- -- -- --  -- -- -- -- -- -- -- --
0440:                                   53 F8 FF FF 7F             S....
0450: F8 FF FF 7F 74 77 62 30  00                       ....twb0.       
```

#### Opcodes

```
  0: 0x044B [0x53] WAIT_SCHEDULER_TASK: Wait for scheduler "twb0" with entities [EventEntity, EventEntity]
  1: 0x0458 [0x00] END_REQSTACK()
```

### Event 65535.50

#### Metadata

| Field        | Value    |
|--------------|----------|
| Entrypoint   | 0x0459   |
| Data Size    | 16 bytes |
| Instructions | 2        |

```
      00 01 02 03 04 05 06 07  08 09 0A 0B 0C 0D 0E 0F
      -- -- -- -- -- -- -- --  -- -- -- -- -- -- -- --
0450:                             66 00 80 F8 FF FF 7F           f......
0460: F8 FF FF 7F 74 77 62 31  00                       ....twb1.       
```

#### Opcodes

```
  0: 0x0459 [0x66] LOAD_EXT_SCHEDULER_MAIN: Load scheduler "twb1" with entities [EventEntity, EventEntity], work=29*
  1: 0x0468 [0x00] END_REQSTACK()
```

### Event 65535.51

#### Metadata

| Field        | Value    |
|--------------|----------|
| Entrypoint   | 0x0469   |
| Data Size    | 14 bytes |
| Instructions | 2        |

```
      00 01 02 03 04 05 06 07  08 09 0A 0B 0C 0D 0E 0F
      -- -- -- -- -- -- -- --  -- -- -- -- -- -- -- --
0460:                             53 F8 FF FF 7F F8 FF           S......
0470: FF 7F 74 77 62 31 00                              ..twb1.         
```

#### Opcodes

```
  0: 0x0469 [0x53] WAIT_SCHEDULER_TASK: Wait for scheduler "twb1" with entities [EventEntity, EventEntity]
  1: 0x0476 [0x00] END_REQSTACK()
```

### Event 65535.52

#### Metadata

| Field        | Value    |
|--------------|----------|
| Entrypoint   | 0x0477   |
| Data Size    | 18 bytes |
| Instructions | 4        |

```
      00 01 02 03 04 05 06 07  08 09 0A 0B 0C 0D 0E 0F
      -- -- -- -- -- -- -- --  -- -- -- -- -- -- -- --
0470:                      6E  F8 FF FF 7F 0C 80 99 F8         n........
0480: FF FF 7F 99 F8 FF FF 7F  00                       .........       
```

#### Opcodes

```
  0: 0x0477 [0x6E] EventEntity uses emote 24*
  1: 0x047E [0x99] Wait for EventEntity animation to complete
  2: 0x0483 [0x99] Wait for EventEntity animation to complete
  3: 0x0488 [0x00] END_REQSTACK()
```

### Event 65535.53

#### Metadata

| Field        | Value    |
|--------------|----------|
| Entrypoint   | 0x0489   |
| Data Size    | 18 bytes |
| Instructions | 4        |

```
      00 01 02 03 04 05 06 07  08 09 0A 0B 0C 0D 0E 0F
      -- -- -- -- -- -- -- --  -- -- -- -- -- -- -- --
0480:                             6E F8 FF FF 7F 10 80           n......
0490: 99 F8 FF FF 7F 99 F8 FF  FF 7F 00                 ...........     
```

#### Opcodes

```
  0: 0x0489 [0x6E] EventEntity uses emote 43*
  1: 0x0490 [0x99] Wait for EventEntity animation to complete
  2: 0x0495 [0x99] Wait for EventEntity animation to complete
  3: 0x049A [0x00] END_REQSTACK()
```

### Event 65535.54

#### Metadata

| Field        | Value    |
|--------------|----------|
| Entrypoint   | 0x049B   |
| Data Size    | 18 bytes |
| Instructions | 4        |

```
      00 01 02 03 04 05 06 07  08 09 0A 0B 0C 0D 0E 0F
      -- -- -- -- -- -- -- --  -- -- -- -- -- -- -- --
0490:                                   6E F8 FF FF 7F             n....
04A0: 11 80 99 F8 FF FF 7F 99  F8 FF FF 7F 00           .............   
```

#### Opcodes

```
  0: 0x049B [0x6E] EventEntity uses emote 25*
  1: 0x04A2 [0x99] Wait for EventEntity animation to complete
  2: 0x04A7 [0x99] Wait for EventEntity animation to complete
  3: 0x04AC [0x00] END_REQSTACK()
```

### Event 65535.55

#### Metadata

| Field        | Value    |
|--------------|----------|
| Entrypoint   | 0x04AD   |
| Data Size    | 18 bytes |
| Instructions | 4        |

```
      00 01 02 03 04 05 06 07  08 09 0A 0B 0C 0D 0E 0F
      -- -- -- -- -- -- -- --  -- -- -- -- -- -- -- --
04A0:                                         6E F8 FF               n..
04B0: FF 7F 12 80 99 F8 FF FF  7F 99 F8 FF FF 7F 00     ............... 
```

#### Opcodes

```
  0: 0x04AD [0x6E] EventEntity uses emote 7*
  1: 0x04B4 [0x99] Wait for EventEntity animation to complete
  2: 0x04B9 [0x99] Wait for EventEntity animation to complete
  3: 0x04BE [0x00] END_REQSTACK()
```

### Event 65535.56

#### Metadata

| Field        | Value    |
|--------------|----------|
| Entrypoint   | 0x04BF   |
| Data Size    | 18 bytes |
| Instructions | 4        |

```
      00 01 02 03 04 05 06 07  08 09 0A 0B 0C 0D 0E 0F
      -- -- -- -- -- -- -- --  -- -- -- -- -- -- -- --
04B0:                                               6E                 n
04C0: F8 FF FF 7F 13 80 99 F8  FF FF 7F 99 F8 FF FF 7F  ................
04D0: 00                                                .               
```

#### Opcodes

```
  0: 0x04BF [0x6E] EventEntity uses emote 0*
  1: 0x04C6 [0x99] Wait for EventEntity animation to complete
  2: 0x04CB [0x99] Wait for EventEntity animation to complete
  3: 0x04D0 [0x00] END_REQSTACK()
```

### Event 65535.57

#### Metadata

| Field        | Value    |
|--------------|----------|
| Entrypoint   | 0x04D1   |
| Data Size    | 18 bytes |
| Instructions | 4        |

```
      00 01 02 03 04 05 06 07  08 09 0A 0B 0C 0D 0E 0F
      -- -- -- -- -- -- -- --  -- -- -- -- -- -- -- --
04D0:    6E F8 FF FF 7F 14 80  99 F8 FF FF 7F 99 F8 FF   n..............
04E0: FF 7F 00                                          ...             
```

#### Opcodes

```
  0: 0x04D1 [0x6E] EventEntity uses emote 13*
  1: 0x04D8 [0x99] Wait for EventEntity animation to complete
  2: 0x04DD [0x99] Wait for EventEntity animation to complete
  3: 0x04E2 [0x00] END_REQSTACK()
```

### Event 65535.58

#### Metadata

| Field        | Value   |
|--------------|---------|
| Entrypoint   | 0x04E3  |
| Data Size    | 9 bytes |
| Instructions | 3       |

```
      00 01 02 03 04 05 06 07  08 09 0A 0B 0C 0D 0E 0F
      -- -- -- -- -- -- -- --  -- -- -- -- -- -- -- --
04E0:          5E 69 64 6C 30  1C 15 80 00                 ^idl0....    
```

#### Opcodes

```
  0: 0x04E3 [0x5E] EventEntity goes idle (kills current action) (animation: "idl0")
  1: 0x04E8 [0x1C] WAIT(30* ticks)
  2: 0x04EB [0x00] END_REQSTACK()
```

### Event 65535.59

#### Metadata

| Field        | Value    |
|--------------|----------|
| Entrypoint   | 0x04EC   |
| Data Size    | 27 bytes |
| Instructions | 3        |

```
      00 01 02 03 04 05 06 07  08 09 0A 0B 0C 0D 0E 0F
      -- -- -- -- -- -- -- --  -- -- -- -- -- -- -- --
04E0:                                      2C F8 FF FF              ,...
04F0: 7F F8 FF FF 7F 63 6F 72  70 53 F8 FF FF 7F F8 FF  .....corpS......
0500: FF 7F 63 6F 72 70 00                              ..corp.         
```

#### Opcodes

```
  0: 0x04EC [0x2C] CREATE_SCHEDULER_TASK: Create scheduler "corp" with entities [EventEntity, EventEntity]
  1: 0x04F9 [0x53] WAIT_SCHEDULER_TASK: Wait for scheduler "corp" with entities [EventEntity, EventEntity]
  2: 0x0506 [0x00] END_REQSTACK()
```

### Event 65535.60

#### Metadata

| Field        | Value    |
|--------------|----------|
| Entrypoint   | 0x0507   |
| Data Size    | 27 bytes |
| Instructions | 3        |

```
      00 01 02 03 04 05 06 07  08 09 0A 0B 0C 0D 0E 0F
      -- -- -- -- -- -- -- --  -- -- -- -- -- -- -- --
0500:                      2C  F8 FF FF 7F F8 FF FF 7F         ,........
0510: 72 65 73 31 53 F8 FF FF  7F F8 FF FF 7F 72 65 73  res1S........res
0520: 31 00                                             1.              
```

#### Opcodes

```
  0: 0x0507 [0x2C] CREATE_SCHEDULER_TASK: Create scheduler "res1" with entities [EventEntity, EventEntity]
  1: 0x0514 [0x53] WAIT_SCHEDULER_TASK: Wait for scheduler "res1" with entities [EventEntity, EventEntity]
  2: 0x0521 [0x00] END_REQSTACK()
```

### Event 65535.61

#### Metadata

| Field        | Value    |
|--------------|----------|
| Entrypoint   | 0x0522   |
| Data Size    | 27 bytes |
| Instructions | 3        |

```
      00 01 02 03 04 05 06 07  08 09 0A 0B 0C 0D 0E 0F
      -- -- -- -- -- -- -- --  -- -- -- -- -- -- -- --
0520:       2C F8 FF FF 7F F8  FF FF 7F 72 65 73 32 53    ,........res2S
0530: F8 FF FF 7F F8 FF FF 7F  72 65 73 32 00           ........res2.   
```

#### Opcodes

```
  0: 0x0522 [0x2C] CREATE_SCHEDULER_TASK: Create scheduler "res2" with entities [EventEntity, EventEntity]
  1: 0x052F [0x53] WAIT_SCHEDULER_TASK: Wait for scheduler "res2" with entities [EventEntity, EventEntity]
  2: 0x053C [0x00] END_REQSTACK()
```

### Event 10046

#### Metadata

| Field        | Value   |
|--------------|---------|
| Entrypoint   | 0x053D  |
| Data Size    | 7 bytes |
| Instructions | 2       |

```
      00 01 02 03 04 05 06 07  08 09 0A 0B 0C 0D 0E 0F
      -- -- -- -- -- -- -- --  -- -- -- -- -- -- -- --
0530:                                         92 01 F8               ...
0540: FF FF 7F 00                                       ....            
```

#### Opcodes

```
  0: 0x053D [0x92] EventEntity->Render.Flags3 ^= 0x01
  1: 0x0543 [0x00] END_REQSTACK()
```

### Event 65535.62

#### Metadata

| Field        | Value    |
|--------------|----------|
| Entrypoint   | 0x0544   |
| Data Size    | 15 bytes |
| Instructions | 5        |

```
      00 01 02 03 04 05 06 07  08 09 0A 0B 0C 0D 0E 0F
      -- -- -- -- -- -- -- --  -- -- -- -- -- -- -- --
0540:             32 14 80 1F  00 16 80 17 80 18 80 1F      2...........
0550: 01 6F 00                                          .o.             
```

#### Opcodes

```
  0: 0x0544 [0x32] ExtData[1]->MainSpeed = 13* * 0.1
  1: 0x0547 [0x1F] MOVE_ENTITY: EventEntity moves to X=-30.751*, Z=67.036*, Y=2.002*
  2: 0x054F [0x1F] MOVE_ENTITY: Update entity position (mode=1)
  3: 0x0551 [0x6F] WAIT_FRAME_DELAY: Yield until WaitTime reaches zero
  4: 0x0552 [0x00] END_REQSTACK()
```

### Event 10052

#### Metadata

| Field        | Value    |
|--------------|----------|
| Entrypoint   | 0x0553   |
| Data Size    | 62 bytes |
| Instructions | 13       |

```
      00 01 02 03 04 05 06 07  08 09 0A 0B 0C 0D 0E 0F
      -- -- -- -- -- -- -- --  -- -- -- -- -- -- -- --
0550:          1E F0 FF FF 7F  6F 70 66 00 80 F8 FF FF     .....opf.....
0560: 7F F8 FF FF 7F 74 6C 6B  30 1D 19 80 23 1D 1A 80  .....tlk0...#...
0570: 23 66 00 80 F8 FF FF 7F  F8 FF FF 7F 74 6C 6B 31  #f..........tlk1
0580: 53 F8 FF FF 7F F8 FF FF  7F 74 6C 6B 31 20 00 21  S........tlk1 .!
0590: 00                                                .               
```

#### Opcodes

```
  0: 0x0553 [0x1E] EventEntity looks at LocalPlayer and starts talking
  1: 0x0558 [0x6F] WAIT_FRAME_DELAY: Yield until WaitTime reaches zero
  2: 0x0559 [0x70] WAIT_ENTITY_RENDER_FLAG: Wait while EventEntity->Render.Flags3 bit 2 is set (cancel turn if not)
  3: 0x055A [0x66] LOAD_EXT_SCHEDULER_MAIN: Load scheduler "tlk0" with entities [EventEntity, EventEntity], work=29*
  4: 0x0569 [0x1D] PRINT_EVENT_MESSAGE(message_id=12583*)
    → "What could be the purpose for this meeting being held at the Marble Bridge in Upper Jeuno?"
  5: 0x056C [0x23] WAIT_FOR_DIALOG_INTERACTION
  6: 0x056D [0x1D] PRINT_EVENT_MESSAGE(message_id=12584*)
    → "If that Aldo is involved, I am positive it cannot be anything good. Just keep me out of it. If I lose this job, I'm through!"
  7: 0x0570 [0x23] WAIT_FOR_DIALOG_INTERACTION
  8: 0x0571 [0x66] LOAD_EXT_SCHEDULER_MAIN: Load scheduler "tlk1" with entities [EventEntity, EventEntity], work=29*
  9: 0x0580 [0x53] WAIT_SCHEDULER_TASK: Wait for scheduler "tlk1" with entities [EventEntity, EventEntity]
 10: 0x058D [0x20] SET_CLI_EVENT_UC_FLAG: Unlock player control
 11: 0x058F [0x21] END_EVENT
 12: 0x0590 [0x00] END_REQSTACK()
```

### Event 10048

#### Metadata

| Field        | Value   |
|--------------|---------|
| Entrypoint   | 0x0591  |
| Data Size    | 7 bytes |
| Instructions | 2       |

```
      00 01 02 03 04 05 06 07  08 09 0A 0B 0C 0D 0E 0F
      -- -- -- -- -- -- -- --  -- -- -- -- -- -- -- --
0590:    92 01 F8 FF FF 7F 00                            .......        
```

#### Opcodes

```
  0: 0x0591 [0x92] EventEntity->Render.Flags3 ^= 0x01
  1: 0x0597 [0x00] END_REQSTACK()
```

### Event 65535.63

#### Metadata

| Field        | Value    |
|--------------|----------|
| Entrypoint   | 0x0598   |
| Data Size    | 10 bytes |
| Instructions | 2        |

```
      00 01 02 03 04 05 06 07  08 09 0A 0B 0C 0D 0E 0F
      -- -- -- -- -- -- -- --  -- -- -- -- -- -- -- --
0590:                          37 1B 80 1C 80 1D 80 1E          7.......
05A0: 80 00                                             ..              
```

#### Opcodes

```
  0: 0x0598 [0x37] UPDATE_EVENT_POSITION_AND_DIR: x=-10.000*, z=58.173*, y=1.999*, direction=94.9°*
  1: 0x05A1 [0x00] END_REQSTACK()
```

### Event 65535.64

#### Metadata

| Field        | Value    |
|--------------|----------|
| Entrypoint   | 0x05A2   |
| Data Size    | 32 bytes |
| Instructions | 10       |

```
      00 01 02 03 04 05 06 07  08 09 0A 0B 0C 0D 0E 0F
      -- -- -- -- -- -- -- --  -- -- -- -- -- -- -- --
05A0:       32 1F 80 1F 00 20  80 21 80 1D 80 1F 01 1F    2.... .!......
05B0: 00 22 80 23 80 1D 80 1F  01 6F 1E 07 30 0F 01 6F  .".#.....o..0..o
05C0: 70 00                                             p.              
```

#### Opcodes

```
  0: 0x05A2 [0x32] ExtData[1]->MainSpeed = 40* * 0.1
  1: 0x05A5 [0x1F] MOVE_ENTITY: EventEntity moves to X=-10.075*, Z=48.121*, Y=1.999*
  2: 0x05AD [0x1F] MOVE_ENTITY: Update entity position (mode=1)
  3: 0x05AF [0x1F] MOVE_ENTITY: EventEntity moves to X=-4.988*, Z=45.001*, Y=1.999*
  4: 0x05B7 [0x1F] MOVE_ENTITY: Update entity position (mode=1)
  5: 0x05B9 [0x6F] WAIT_FRAME_DELAY: Yield until WaitTime reaches zero
  6: 0x05BA [0x1E] EventEntity looks at Wolfgang (ID: 17772551/0x010F3007) and starts talking
  7: 0x05BF [0x6F] WAIT_FRAME_DELAY: Yield until WaitTime reaches zero
  8: 0x05C0 [0x70] WAIT_ENTITY_RENDER_FLAG: Wait while EventEntity->Render.Flags3 bit 2 is set (cancel turn if not)
  9: 0x05C1 [0x00] END_REQSTACK()
```

### Event 10063

#### Metadata

| Field        | Value    |
|--------------|----------|
| Entrypoint   | 0x05C2   |
| Data Size    | 66 bytes |
| Instructions | 15       |

```
      00 01 02 03 04 05 06 07  08 09 0A 0B 0C 0D 0E 0F
      -- -- -- -- -- -- -- --  -- -- -- -- -- -- -- --
05C0:       1E F0 FF FF 7F 6F  70 66 00 80 F8 FF FF 7F    .....opf......
05D0: F8 FF FF 7F 74 6C 6B 30  1D 24 80 23 1D 25 80 23  ....tlk0.$.#.%.#
05E0: 1D 26 80 23 66 00 80 F8  FF FF 7F F8 FF FF 7F 74  .&.#f..........t
05F0: 6C 6B 31 53 F8 FF FF 7F  F8 FF FF 7F 74 6C 6B 31  lk1S........tlk1
0600: 20 00 21 00                                        .!.            
```

#### Opcodes

```
  0: 0x05C2 [0x1E] EventEntity looks at LocalPlayer and starts talking
  1: 0x05C7 [0x6F] WAIT_FRAME_DELAY: Yield until WaitTime reaches zero
  2: 0x05C8 [0x70] WAIT_ENTITY_RENDER_FLAG: Wait while EventEntity->Render.Flags3 bit 2 is set (cancel turn if not)
  3: 0x05C9 [0x66] LOAD_EXT_SCHEDULER_MAIN: Load scheduler "tlk0" with entities [EventEntity, EventEntity], work=29*
  4: 0x05D8 [0x1D] PRINT_EVENT_MESSAGE(message_id=12739*)
    → "Those three Tarutaru brought to Jeuno by Nag'molada have been granted amnesty by Lady Esha'ntarl."
  5: 0x05DB [0x23] WAIT_FOR_DIALOG_INTERACTION
  6: 0x05DC [0x1D] PRINT_EVENT_MESSAGE(message_id=12740*)
    → "However, I don't believe they have much of a future here in the Duchy."
  7: 0x05DF [0x23] WAIT_FOR_DIALOG_INTERACTION
  8: 0x05E0 [0x1D] PRINT_EVENT_MESSAGE(message_id=12741*)
    → "Once you have angered [the Armathrwn Society/the archduke], it would take no less than a miracle to regain [their/his] trust."
  9: 0x05E3 [0x23] WAIT_FOR_DIALOG_INTERACTION
 10: 0x05E4 [0x66] LOAD_EXT_SCHEDULER_MAIN: Load scheduler "tlk1" with entities [EventEntity, EventEntity], work=29*
 11: 0x05F3 [0x53] WAIT_SCHEDULER_TASK: Wait for scheduler "tlk1" with entities [EventEntity, EventEntity]
 12: 0x0600 [0x20] SET_CLI_EVENT_UC_FLAG: Unlock player control
 13: 0x0602 [0x21] END_EVENT
 14: 0x0603 [0x00] END_REQSTACK()
```

### Event 10051

#### Metadata

| Field        | Value    |
|--------------|----------|
| Entrypoint   | 0x0604   |
| Data Size    | 13 bytes |
| Instructions | 3        |

```
      00 01 02 03 04 05 06 07  08 09 0A 0B 0C 0D 0E 0F
      -- -- -- -- -- -- -- --  -- -- -- -- -- -- -- --
0600:             92 01 F8 FF  FF 7F 94 01 F8 FF FF 7F      ............
0610: 00                                                .               
```

#### Opcodes

```
  0: 0x0604 [0x92] EventEntity->Render.Flags3 ^= 0x01
  1: 0x060A [0x94] EventEntity->Render.Flags3 ^= 0x01
  2: 0x0610 [0x00] END_REQSTACK()
```

### Event 10062

#### Metadata

| Field        | Value    |
|--------------|----------|
| Entrypoint   | 0x0611   |
| Data Size    | 62 bytes |
| Instructions | 13       |

```
      00 01 02 03 04 05 06 07  08 09 0A 0B 0C 0D 0E 0F
      -- -- -- -- -- -- -- --  -- -- -- -- -- -- -- --
0610:    1E F0 FF FF 7F 6F 70  66 00 80 F8 FF FF 7F F8   .....opf.......
0620: FF FF 7F 74 6C 6B 30 1D  27 80 23 1D 28 80 23 66  ...tlk0.'.#.(.#f
0630: 00 80 F8 FF FF 7F F8 FF  FF 7F 74 6C 6B 31 53 F8  ..........tlk1S.
0640: FF FF 7F F8 FF FF 7F 74  6C 6B 31 20 00 21 00     .......tlk1 .!. 
```

#### Opcodes

```
  0: 0x0611 [0x1E] EventEntity looks at LocalPlayer and starts talking
  1: 0x0616 [0x6F] WAIT_FRAME_DELAY: Yield until WaitTime reaches zero
  2: 0x0617 [0x70] WAIT_ENTITY_RENDER_FLAG: Wait while EventEntity->Render.Flags3 bit 2 is set (cancel turn if not)
  3: 0x0618 [0x66] LOAD_EXT_SCHEDULER_MAIN: Load scheduler "tlk0" with entities [EventEntity, EventEntity], work=29*
  4: 0x0627 [0x1D] PRINT_EVENT_MESSAGE(message_id=12749*)
    → "Recently, there have been no signs of Nag'molada or those annoying Tarutaru entering the Grand Duke Palace."
  5: 0x062A [0x23] WAIT_FOR_DIALOG_INTERACTION
  6: 0x062B [0x1D] PRINT_EVENT_MESSAGE(message_id=12750*)
    → "I heard from one of the guards that the Tarutaru were seen riding an airship to Bastok, but as for Nag'molada..."
  7: 0x062E [0x23] WAIT_FOR_DIALOG_INTERACTION
  8: 0x062F [0x66] LOAD_EXT_SCHEDULER_MAIN: Load scheduler "tlk1" with entities [EventEntity, EventEntity], work=29*
  9: 0x063E [0x53] WAIT_SCHEDULER_TASK: Wait for scheduler "tlk1" with entities [EventEntity, EventEntity]
 10: 0x064B [0x20] SET_CLI_EVENT_UC_FLAG: Unlock player control
 11: 0x064D [0x21] END_EVENT
 12: 0x064E [0x00] END_REQSTACK()
```

### Event 10049

#### Metadata

| Field        | Value    |
|--------------|----------|
| Entrypoint   | 0x064F   |
| Data Size    | 13 bytes |
| Instructions | 3        |

```
      00 01 02 03 04 05 06 07  08 09 0A 0B 0C 0D 0E 0F
      -- -- -- -- -- -- -- --  -- -- -- -- -- -- -- --
0640:                                               92                 .
0650: 01 F8 FF FF 7F 94 01 F8  FF FF 7F 00              ............    
```

#### Opcodes

```
  0: 0x064F [0x92] EventEntity->Render.Flags3 ^= 0x01
  1: 0x0655 [0x94] EventEntity->Render.Flags3 ^= 0x01
  2: 0x065B [0x00] END_REQSTACK()
```

### Event 65535.65

#### Metadata

| Field        | Value    |
|--------------|----------|
| Entrypoint   | 0x065C   |
| Data Size    | 10 bytes |
| Instructions | 2        |

```
      00 01 02 03 04 05 06 07  08 09 0A 0B 0C 0D 0E 0F
      -- -- -- -- -- -- -- --  -- -- -- -- -- -- -- --
0650:                                      37 29 80 2A              7).*
0660: 80 18 80 2B 80 00                                 ...+..          
```

#### Opcodes

```
  0: 0x065C [0x37] UPDATE_EVENT_POSITION_AND_DIR: x=-31.653*, z=66.732*, y=2.002*, direction=116.7°*
  1: 0x0665 [0x00] END_REQSTACK()
```

### Event 65535.66

#### Metadata

| Field        | Value    |
|--------------|----------|
| Entrypoint   | 0x0666   |
| Data Size    | 14 bytes |
| Instructions | 4        |

```
      00 01 02 03 04 05 06 07  08 09 0A 0B 0C 0D 0E 0F
      -- -- -- -- -- -- -- --  -- -- -- -- -- -- -- --
0660:                   32 14  80 1F 00 2C 80 2D 80 18        2....,.-..
0670: 80 1F 01 00                                       ....            
```

#### Opcodes

```
  0: 0x0666 [0x32] ExtData[1]->MainSpeed = 13* * 0.1
  1: 0x0669 [0x1F] MOVE_ENTITY: EventEntity moves to X=-28.946*, Z=65.865*, Y=2.002*
  2: 0x0671 [0x1F] MOVE_ENTITY: Update entity position (mode=1)
  3: 0x0673 [0x00] END_REQSTACK()
```

### Event 65535.67

#### Metadata

| Field        | Value    |
|--------------|----------|
| Entrypoint   | 0x0674   |
| Data Size    | 10 bytes |
| Instructions | 2        |

```
      00 01 02 03 04 05 06 07  08 09 0A 0B 0C 0D 0E 0F
      -- -- -- -- -- -- -- --  -- -- -- -- -- -- -- --
0670:             37 2C 80 2D  80 18 80 2E 80 00            7,.-......  
```

#### Opcodes

```
  0: 0x0674 [0x37] UPDATE_EVENT_POSITION_AND_DIR: x=-28.946*, z=65.865*, y=2.002*, direction=91.8°*
  1: 0x067D [0x00] END_REQSTACK()
```

### Event 65535.68

#### Metadata

| Field        | Value    |
|--------------|----------|
| Entrypoint   | 0x067E   |
| Data Size    | 15 bytes |
| Instructions | 5        |

```
      00 01 02 03 04 05 06 07  08 09 0A 0B 0C 0D 0E 0F
      -- -- -- -- -- -- -- --  -- -- -- -- -- -- -- --
0670:                                            32 14                2.
0680: 80 1F 00 2F 80 30 80 18  80 1F 01 6F 00           .../.0.....o.   
```

#### Opcodes

```
  0: 0x067E [0x32] ExtData[1]->MainSpeed = 13* * 0.1
  1: 0x0681 [0x1F] MOVE_ENTITY: EventEntity moves to X=-27.337*, Z=64.721*, Y=2.002*
  2: 0x0689 [0x1F] MOVE_ENTITY: Update entity position (mode=1)
  3: 0x068B [0x6F] WAIT_FRAME_DELAY: Yield until WaitTime reaches zero
  4: 0x068C [0x00] END_REQSTACK()
```

### Event 65535.69

#### Metadata

| Field        | Value    |
|--------------|----------|
| Entrypoint   | 0x068D   |
| Data Size    | 42 bytes |
| Instructions | 7        |

```
      00 01 02 03 04 05 06 07  08 09 0A 0B 0C 0D 0E 0F
      -- -- -- -- -- -- -- --  -- -- -- -- -- -- -- --
0680:                                         1C 31 80               .1.
0690: 45 32 80 0F 30 0F 01 0F  30 0F 01 66 64 6F 31 13  E2..0...0..fdo1.
06A0: 80 1C 33 80 4E 01 A9 30  0F 01 4E 01 AA 30 0F 01  ..3.N..0..N..0..
06B0: 4E 01 AB 30 0F 01 00                              N..0...         
```

#### Opcodes

```
  0: 0x068D [0x1C] WAIT(90* ticks)
  1: 0x0690 [0x45] LOAD_SCHEDULED_TASK: Load scheduler "fdo1" with entities [Pherimociel (ID: 17772559/0x010F300F), Pherimociel (ID: 17772559/0x010F300F)], work=[200*, 0*]
  2: 0x06A1 [0x1C] WAIT(60* ticks)
  3: 0x06A4 [0x4E] SET_ENTITY_HIDE_FLAG: Hide Makki-Chebukki (ID: 17772713/0x010F30A9)
  4: 0x06AA [0x4E] SET_ENTITY_HIDE_FLAG: Hide Kukki-Chebukki (ID: 17772714/0x010F30AA)
  5: 0x06B0 [0x4E] SET_ENTITY_HIDE_FLAG: Hide Cherukiki (ID: 17772715/0x010F30AB)
  6: 0x06B6 [0x00] END_REQSTACK()
```

### Event 10053

#### Metadata

| Field        | Value    |
|--------------|----------|
| Entrypoint   | 0x06B7   |
| Data Size    | 47 bytes |
| Instructions | 14       |

```
      00 01 02 03 04 05 06 07  08 09 0A 0B 0C 0D 0E 0F
      -- -- -- -- -- -- -- --  -- -- -- -- -- -- -- --
06B0:                      1E  F0 FF FF 7F 6F 70 29 08         .....op).
06C0: 0F 30 0F 01 1B 1D 34 80  23 29 08 0F 30 0F 01 1C  .0....4.#)..0...
06D0: 29 08 0F 30 0F 01 1D 1D  35 80 23 29 08 0F 30 0F  )..0....5.#)..0.
06E0: 01 1E 20 00 21 00                                 .. .!.          
```

#### Opcodes

```
  0: 0x06B7 [0x1E] EventEntity looks at LocalPlayer and starts talking
  1: 0x06BC [0x6F] WAIT_FRAME_DELAY: Yield until WaitTime reaches zero
  2: 0x06BD [0x70] WAIT_ENTITY_RENDER_FLAG: Wait while EventEntity->Render.Flags3 bit 2 is set (cancel turn if not)
  3: 0x06BE [0x29] REQ_SET_WAIT(priority=0x08, entity_id=Pherimociel (ID: 17772559/0x010F300F), tag_num=0x1B)
  4: 0x06C5 [0x1D] PRINT_EVENT_MESSAGE(message_id=12668*)
    → "Ah, that energetic young Elvaan girl just entered the audience chamber. Hmmm... I thought she had been taken into custody..."
  5: 0x06C8 [0x23] WAIT_FOR_DIALOG_INTERACTION
  6: 0x06C9 [0x29] REQ_SET_WAIT(priority=0x08, entity_id=Pherimociel (ID: 17772559/0x010F300F), tag_num=0x1C)
  7: 0x06D0 [0x29] REQ_SET_WAIT(priority=0x08, entity_id=Pherimociel (ID: 17772559/0x010F300F), tag_num=0x1D)
  8: 0x06D7 [0x1D] PRINT_EVENT_MESSAGE(message_id=12669*)
    → "With all the preparations for the launch of the armada, there are currently few people remaining in the Grand Palace. I wonder who gave the girl permission to enter..."
  9: 0x06DA [0x23] WAIT_FOR_DIALOG_INTERACTION
 10: 0x06DB [0x29] REQ_SET_WAIT(priority=0x08, entity_id=Pherimociel (ID: 17772559/0x010F300F), tag_num=0x1E)
 11: 0x06E2 [0x20] SET_CLI_EVENT_UC_FLAG: Unlock player control
 12: 0x06E4 [0x21] END_EVENT
 13: 0x06E5 [0x00] END_REQSTACK()
```

### Event 10098

#### Metadata

| Field        | Value      |
|--------------|------------|
| Entrypoint   | 0x06E6     |
| Data Size    | 3789 bytes |
| Instructions | 453        |

```
      00 01 02 03 04 05 06 07  08 09 0A 0B 0C 0D 0E 0F
      -- -- -- -- -- -- -- --  -- -- -- -- -- -- -- --
06E0:                   42 45  32 80 F8 FF FF 7F F8 FF        BE2.......
06F0: FF 7F 66 64 6F 31 13 80  55 32 80 F8 FF FF 7F F8  ..fdo1..U2......
0700: FF FF 7F 66 64 6F 31 46  01 38 36 80 AB 0F 92 01  ...fdo1F.86.....
0710: D3 30 0F 01 92 01 C6 30  0F 01 92 01 D2 30 0F 01  .0.....0.....0..
0720: 92 01 D6 30 0F 01 92 01  D7 30 0F 01 92 01 F8 FF  ...0.....0......
0730: FF 7F 92 01 D4 30 0F 01  92 01 D5 30 0F 01 4E 00  .....0.....0..N.
0740: C6 30 0F 01 2F 00 C6 30  0F 01 4E 00 D2 30 0F 01  .0../..0..N..0..
0750: 2F 00 D2 30 0F 01 4E 00  D6 30 0F 01 2F 00 D6 30  /..0..N..0../..0
0760: 0F 01 4E 00 D7 30 0F 01  2F 00 D7 30 0F 01 94 01  ..N..0../..0....
0770: C6 30 0F 01 94 01 D2 30  0F 01 94 01 D6 30 0F 01  .0.....0.....0..
0780: 94 01 D7 30 0F 01 94 01  F0 FF FF 7F 80 C6 30 0F  ...0..........0.
0790: 01 80 D2 30 0F 01 80 D6  30 0F 01 80 D7 30 0F 01  ...0....0....0..
07A0: 80 F0 FF FF 7F 80 F8 FF  FF 7F BA F0 FF FF 7F 37  ...............7
07B0: 80 38 80 18 80 39 80 75  00 3A 80 75 01 4A F0 FF  .8...9.u.:.u.J..
07C0: FF 7F F8 FF FF 7F 1E F0  FF FF 7F 1C 3B 80 45 3C  ............;.E<
07D0: 80 F0 FF FF 7F F0 FF FF  7F 7A 7A 7A 62 13 80 45  .........zzzb..E
07E0: 32 80 F8 FF FF 7F F8 FF  FF 7F 66 64 69 31 13 80  2.........fdi1..
07F0: 66 00 80 F8 FF FF 7F F8  FF FF 7F 74 6C 6B 30 2B  f..........tlk0+
0800: F8 FF FF 7F 3D 80 23 2B  F8 FF FF 7F 3E 80 23 66  ....=.#+....>.#f
0810: 00 80 F8 FF FF 7F F8 FF  FF 7F 74 6C 6B 31 52 3C  ..........tlk1R<
0820: 80 F0 FF FF 7F F0 FF FF  7F 7A 7A 7A 62 45 3C 80  .........zzzbE<.
0830: F0 FF FF 7F F0 FF FF 7F  7A 7A 7A 63 13 80 03 00  ........zzzc....
0840: 00 09 10 24 3F 80 40 80  13 80 25 02 00 10 13 80  ...$?.@...%.....
0850: 00 5F 08 03 01 10 40 80  43 00 43 01 01 DB 08 02  ._....@.C.C.....
0860: 00 10 40 80 00 DB 08 52  3C 80 F0 FF FF 7F F0 FF  ..@....R<.......
0870: FF 7F 7A 7A 7A 63 45 3C  80 F0 FF FF 7F F0 FF FF  ..zzzcE<........
0880: 7F 7A 7A 7A 61 13 80 6E  F8 FF FF 7F 12 80 99 F8  .zzza..n........
0890: FF FF 7F 2B F8 FF FF 7F  41 80 23 2B F8 FF FF 7F  ...+....A.#+....
08A0: 42 80 23 1C 33 80 45 32  80 F8 FF FF 7F F8 FF FF  B.#.3.E2........
08B0: 7F 66 64 6F 31 13 80 55  32 80 F8 FF FF 7F F8 FF  .fdo1..U2.......
08C0: FF 7F 66 64 6F 31 52 3C  80 F0 FF FF 7F F0 FF FF  ..fdo1R<........
08D0: 7F 7A 7A 7A 61 01 9E 15  01 DB 08 52 3C 80 F0 FF  .zzza......R<...
08E0: FF 7F F0 FF FF 7F 7A 7A  7A 63 45 3C 80 F0 FF FF  ......zzzcE<....
08F0: 7F F0 FF FF 7F 7A 7A 7A  64 13 80 6E F0 FF FF 7F  .....zzzd..n....
0900: 12 80 99 F0 FF FF 7F 1C  15 80 66 00 80 F8 FF FF  ..........f.....
0910: 7F F8 FF FF 7F 74 6C 6B  30 2B F8 FF FF 7F 43 80  .....tlk0+....C.
0920: 23 2B F8 FF FF 7F 44 80  23 66 00 80 F8 FF FF 7F  #+....D.#f......
0930: F8 FF FF 7F 74 6C 6B 31  1C 33 80 5D 13 80 45 80  ....tlk1.3.]..E.
0940: 45 32 80 F8 FF FF 7F F8  FF FF 7F 66 64 6F 31 13  E2.........fdo1.
0950: 80 55 32 80 F8 FF FF 7F  F8 FF FF 7F 66 64 6F 31  .U2.........fdo1
0960: 52 3C 80 F0 FF FF 7F F0  FF FF 7F 7A 7A 7A 64 1C  R<.........zzzd.
0970: 33 80 BA F0 FF FF 7F 31  80 46 80 47 80 48 80 BA  3......1.F.G.H..
0980: D2 30 0F 01 49 80 4A 80  4B 80 4C 80 BA 0F 30 0F  .0..I.J.K.L...0.
0990: 01 4D 80 4E 80 47 80 4F  80 BA D6 30 0F 01 50 80  .M.N.G.O...0..P.
09A0: 51 80 4B 80 52 80 BA D7  30 0F 01 53 80 54 80 47  Q.K.R...0..S.T.G
09B0: 80 48 80 5C 00 45 80 5C  01 45 80 9A 48 55 80 23  .H.\.E.\.E..HU.#
09C0: 27 10 F0 FF FF 7F 1B 1C  15 80 45 3C 80 F0 FF FF  '.........E<....
09D0: 7F F0 FF FF 7F 78 78 78  78 13 80 45 32 80 F8 FF  .....xxxx..E2...
09E0: FF 7F F8 FF FF 7F 66 64  69 31 13 80 32 14 80 1F  ......fdi1..2...
09F0: 00 56 80 57 80 47 80 1F  01 1E D2 30 0F 01 1C 58  .V.W.G.....0...X
0A00: 80 52 3C 80 F0 FF FF 7F  F0 FF FF 7F 78 78 78 78  .R<.........xxxx
0A10: 45 3C 80 F0 FF FF 7F F0  FF FF 7F 7A 30 30 30 13  E<.........z000.
0A20: 80 2B D2 30 0F 01 59 80  23 2B D2 30 0F 01 5A 80  .+.0..Y.#+.0..Z.
0A30: 23 52 3C 80 F0 FF FF 7F  F0 FF FF 7F 7A 30 30 30  #R<.........z000
0A40: 45 3C 80 F0 FF FF 7F F0  FF FF 7F 7A 30 30 32 13  E<.........z002.
0A50: 80 5B 5B 80 D2 30 0F 01  D2 30 0F 01 6B 61 69 30  .[[..0...0..kai0
0A60: 2B D2 30 0F 01 5C 80 23  2B D2 30 0F 01 5D 80 23  +.0..\.#+.0..].#
0A70: BA C6 30 0F 01 5E 80 5F  80 47 80 48 80 27 10 C6  ..0..^._.G.H.'..
0A80: 30 0F 01 08 1C 60 80 52  3C 80 F0 FF FF 7F F0 FF  0....`.R<.......
0A90: FF 7F 7A 30 30 32 45 3C  80 F0 FF FF 7F F0 FF FF  ..z002E<........
0AA0: 7F 7A 30 30 31 13 80 1C  61 80 2B C6 30 0F 01 62  .z001...a.+.0..b
0AB0: 80 23 2A 10 C6 30 0F 01  4A C6 30 0F 01 F0 FF FF  .#*..0..J.0.....
0AC0: 7F 4A D2 30 0F 01 C6 30  0F 01 52 3C 80 F0 FF FF  .J.0...0..R<....
0AD0: 7F F0 FF FF 7F 7A 30 30  31 45 3C 80 F0 FF FF 7F  .....z001E<.....
0AE0: F0 FF FF 7F 7A 30 31 30  13 80 4A D2 30 0F 01 C6  ....z010..J.0...
0AF0: 30 0F 01 1C 33 80 2B C6  30 0F 01 63 80 23 2B D2  0...3.+.0..c.#+.
0B00: 30 0F 01 64 80 23 2A 10  C6 30 0F 01 52 3C 80 F0  0..d.#*..0..R<..
0B10: FF FF 7F F0 FF FF 7F 7A  30 31 30 45 3C 80 F0 FF  .......z010E<...
0B20: FF 7F F0 FF FF 7F 7A 30  30 33 13 80 4A C6 30 0F  ......z003..J.0.
0B30: 01 D2 30 0F 01 66 65 80  C6 30 0F 01 C6 30 0F 01  ..0..fe..0...0..
0B40: 74 6C 6B 30 2B C6 30 0F  01 66 80 23 66 65 80 C6  tlk0+.0..f.#fe..
0B50: 30 0F 01 C6 30 0F 01 74  6C 6B 31 5B 67 80 D2 30  0...0..tlk1[g..0
0B60: 0F 01 D2 30 0F 01 74 6C  61 30 2B D2 30 0F 01 68  ...0..tla0+.0..h
0B70: 80 23 5B 67 80 D2 30 0F  01 D2 30 0F 01 74 6C 61  .#[g..0...0..tla
0B80: 31 6E C6 30 0F 01 69 80  99 C6 30 0F 01 2B C6 30  1n.0..i...0..+.0
0B90: 0F 01 6A 80 23 52 3C 80  F0 FF FF 7F F0 FF FF 7F  ..j.#R<.........
0BA0: 7A 30 30 33 45 3C 80 F0  FF FF 7F F0 FF FF 7F 7A  z003E<.........z
0BB0: 30 30 34 13 80 4A C6 30  0F 01 F0 FF FF 7F 66 65  004..J.0......fe
0BC0: 80 C6 30 0F 01 C6 30 0F  01 74 77 62 30 2B C6 30  ..0...0..twb0+.0
0BD0: 0F 01 6B 80 23 2B C6 30  0F 01 6C 80 23 66 65 80  ..k.#+.0..l.#fe.
0BE0: C6 30 0F 01 C6 30 0F 01  74 77 62 31 1C 60 80 52  .0...0..twb1.`.R
0BF0: 3C 80 F0 FF FF 7F F0 FF  FF 7F 7A 30 30 34 45 3C  <.........z004E<
0C00: 80 F0 FF FF 7F F0 FF FF  7F 7A 30 30 35 13 80 5B  .........z005..[
0C10: 5B 80 D2 30 0F 01 D2 30  0F 01 6B 61 69 30 2B D2  [..0...0..kai0+.
0C20: 30 0F 01 6D 80 23 4A C6  30 0F 01 D2 30 0F 01 6F  0..m.#J.0...0..o
0C30: 70 52 3C 80 F0 FF FF 7F  F0 FF FF 7F 7A 30 30 35  pR<.........z005
0C40: 45 3C 80 F0 FF FF 7F F0  FF FF 7F 7A 30 31 31 13  E<.........z011.
0C50: 80 6E C6 30 0F 01 6E 80  99 C6 30 0F 01 2B C6 30  .n.0..n...0..+.0
0C60: 0F 01 6F 80 23 2B D2 30  0F 01 70 80 23 BA D6 30  ..o.#+.0..p.#..0
0C70: 0F 01 71 80 72 80 4B 80  73 80 BA D7 30 0F 01 74  ..q.r.K.s...0..t
0C80: 80 75 80 4B 80 13 80 BA  F0 FF FF 7F 76 80 77 80  .u.K........v.w.
0C90: 4B 80 78 80 4E 01 F8 FF  FF 7F 99 C6 30 0F 01 52  K.x.N.......0..R
0CA0: 3C 80 F0 FF FF 7F F0 FF  FF 7F 7A 30 31 31 45 3C  <.........z011E<
0CB0: 80 F0 FF FF 7F F0 FF FF  7F 7A 30 30 36 13 80 6E  .........z006..n
0CC0: D6 30 0F 01 11 80 99 D6  30 0F 01 27 10 D7 30 0F  .0......0..'..0.
0CD0: 01 03 2B D6 30 0F 01 79  80 23 4A C6 30 0F 01 D7  ..+.0..y.#J.0...
0CE0: 30 0F 01 2A 10 D7 30 0F  01 27 10 D7 30 0F 01 02  0..*..0..'..0...
0CF0: 1C 15 80 27 10 D6 30 0F  01 02 1C 45 80 52 3C 80  ...'..0....E.R<.
0D00: F0 FF FF 7F F0 FF FF 7F  7A 30 30 36 45 3C 80 F0  ........z006E<..
0D10: FF FF 7F F0 FF FF 7F 7A  30 30 37 13 80 1C 45 80  .......z007...E.
0D20: 27 10 F0 FF FF 7F 1C 4A  C6 30 0F 01 F0 FF FF 7F  '......J.0......
0D30: 1C 45 80 52 3C 80 F0 FF  FF 7F F0 FF FF 7F 7A 30  .E.R<.........z0
0D40: 30 37 45 3C 80 F0 FF FF  7F F0 FF FF 7F 7A 30 30  07E<.........z00
0D50: 38 13 80 4A C6 30 0F 01  F0 FF FF 7F 4A D2 30 0F  8..J.0......J.0.
0D60: 01 F0 FF FF 7F 4E 01 D6  30 0F 01 4E 01 D7 30 0F  .....N..0..N..0.
0D70: 01 4E 01 F0 FF FF 7F 2B  C6 30 0F 01 7A 80 23 5B  .N.....+.0..z.#[
0D80: 5B 80 D2 30 0F 01 D2 30  0F 01 6B 61 69 30 2B D2  [..0...0..kai0+.
0D90: 30 0F 01 7B 80 23 52 3C  80 F0 FF FF 7F F0 FF FF  0..{.#R<........
0DA0: 7F 7A 30 30 38 45 3C 80  F0 FF FF 7F F0 FF FF 7F  .z008E<.........
0DB0: 7A 30 30 39 13 80 27 10  C6 30 0F 01 09 1C 33 80  z009..'..0....3.
0DC0: 27 10 D2 30 0F 01 02 1C  32 80 5D 13 80 45 80 45  '..0....2.]..E.E
0DD0: 32 80 F8 FF FF 7F F8 FF  FF 7F 66 64 6F 31 13 80  2.........fdo1..
0DE0: 55 32 80 F8 FF FF 7F F8  FF FF 7F 66 64 6F 31 52  U2.........fdo1R
0DF0: 3C 80 F0 FF FF 7F F0 FF  FF 7F 7A 30 30 39 2A 10  <.........z009*.
0E00: C6 30 0F 01 2A 10 D2 30  0F 01 2A 10 F0 FF FF 7F  .0..*..0..*.....
0E10: 34 7C 80 77 69 80 40 80  4E 00 D1 30 0F 01 2F 00  4|.wi.@.N..0../.
0E20: D1 30 0F 01 1C 15 80 29  10 D1 30 0F 01 02 AB 09  .0.....)..0.....
0E30: 80 D1 30 0F 01 BA F0 FF  FF 7F 7D 80 7E 80 7F 80  ..0.......}.~...
0E40: 13 80 BA C6 30 0F 01 80  80 81 80 7F 80 82 80 BA  ....0...........
0E50: D2 30 0F 01 83 80 84 80  7F 80 85 80 BA D6 30 0F  .0............0.
0E60: 01 86 80 87 80 88 80 89  80 BA D7 30 0F 01 8A 80  ...........0....
0E70: 8B 80 88 80 89 80 4E 00  D6 30 0F 01 4E 00 D7 30  ......N..0..N..0
0E80: 0F 01 4E 00 F0 FF FF 7F  80 D1 30 0F 01 80 F0 FF  ..N.......0.....
0E90: FF 7F 80 C6 30 0F 01 80  D2 30 0F 01 4A C6 30 0F  ....0....0..J.0.
0EA0: 01 F0 FF FF 7F 4A F0 FF  FF 7F C6 30 0F 01 7B C6  .....J.....0..{.
0EB0: 30 0F 01 5B 8C 80 D1 30  0F 01 D1 30 0F 01 6D 61  0..[...0...0..ma
0EC0: 62 6C 5C 00 8D 80 5C 01  8D 80 9A 48 55 80 23 1C  bl\...\....HU.#.
0ED0: 3B 80 45 3C 80 F0 FF FF  7F F0 FF FF 7F 79 30 30  ;.E<.........y00
0EE0: 37 13 80 45 3C 80 F0 FF  FF 7F F0 FF FF 7F 32 31  7..E<.........21
0EF0: 39 34 13 80 45 32 80 F8  FF FF 7F F8 FF FF 7F 66  94..E2.........f
0F00: 64 69 31 13 80 1C 8E 80  52 3C 80 F0 FF FF 7F F0  di1.....R<......
0F10: FF FF 7F 79 30 30 37 45  3C 80 F0 FF FF 7F F0 FF  ...y007E<.......
0F20: FF 7F 79 79 79 79 13 80  1C 33 80 6E C6 30 0F 01  ..yyyy...3.n.0..
0F30: 8F 80 99 C6 30 0F 01 2B  C6 30 0F 01 90 80 23 52  ....0..+.0....#R
0F40: 3C 80 F0 FF FF 7F F0 FF  FF 7F 79 79 79 79 45 3C  <.........yyyyE<
0F50: 80 F0 FF FF 7F F0 FF FF  7F 79 30 30 30 13 80 66  .........y000..f
0F60: 65 80 C6 30 0F 01 C6 30  0F 01 74 6C 6B 30 2B C6  e..0...0..tlk0+.
0F70: 30 0F 01 91 80 23 2B C6  30 0F 01 92 80 23 66 65  0....#+.0....#fe
0F80: 80 C6 30 0F 01 C6 30 0F  01 74 6C 6B 31 52 3C 80  ..0...0..tlk1R<.
0F90: F0 FF FF 7F F0 FF FF 7F  79 30 30 30 45 3C 80 F0  ........y000E<..
0FA0: FF FF 7F F0 FF FF 7F 79  30 30 31 13 80 4A D2 30  .......y001..J.0
0FB0: 0F 01 C6 30 0F 01 2B D2  30 0F 01 93 80 23 79 00  ...0..+.0....#y.
0FC0: C6 30 0F 01 D2 30 0F 01  2B C6 30 0F 01 94 80 23  .0...0..+.0....#
0FD0: 52 3C 80 F0 FF FF 7F F0  FF FF 7F 79 30 30 31 45  R<.........y001E
0FE0: 3C 80 F0 FF FF 7F F0 FF  FF 7F 79 30 30 32 13 80  <.........y002..
0FF0: 7B D2 30 0F 01 5B 67 80  D2 30 0F 01 D2 30 0F 01  {.0..[g..0...0..
1000: 74 6C 61 30 2B D2 30 0F  01 95 80 23 2B D2 30 0F  tla0+.0....#+.0.
1010: 01 96 80 23 5B 67 80 D2  30 0F 01 D2 30 0F 01 74  ...#[g..0...0..t
1020: 6C 61 31 52 3C 80 F0 FF  FF 7F F0 FF FF 7F 79 30  la1R<.........y0
1030: 30 32 45 3C 80 F0 FF FF  7F F0 FF FF 7F 79 30 30  02E<.........y00
1040: 33 13 80 6E C6 30 0F 01  97 80 99 C6 30 0F 01 1C  3..n.0......0...
1050: 15 80 27 10 D2 30 0F 01  03 27 10 D1 30 0F 01 03  ..'..0...'..0...
1060: 2B C6 30 0F 01 98 80 23  1C 15 80 45 32 80 F8 FF  +.0....#...E2...
1070: FF 7F F8 FF FF 7F 66 64  6F 31 13 80 55 32 80 F8  ......fdo1..U2..
1080: FF FF 7F F8 FF FF 7F 66  64 6F 31 52 3C 80 F0 FF  .......fdo1R<...
1090: FF 7F F0 FF FF 7F 79 30  30 33 1C 15 80 45 3C 80  ......y003...E<.
10A0: F0 FF FF 7F F0 FF FF 7F  79 30 30 38 13 80 45 32  ........y008..E2
10B0: 80 F8 FF FF 7F F8 FF FF  7F 66 64 69 31 13 80 1C  .........fdi1...
10C0: 99 80 52 3C 80 F0 FF FF  7F F0 FF FF 7F 79 30 30  ..R<.........y00
10D0: 38 45 3C 80 F0 FF FF 7F  F0 FF FF 7F 79 30 30 35  8E<.........y005
10E0: 13 80 1C 9A 80 52 3C 80  F0 FF FF 7F F0 FF FF 7F  .....R<.........
10F0: 79 30 30 35 45 3C 80 F0  FF FF 7F F0 FF FF 7F 79  y005E<.........y
1100: 30 30 34 13 80 1C 15 80  5D 13 80 9B 80 27 10 D6  004.....]....'..
1110: 30 0F 01 03 2B D1 30 0F  01 9C 80 23 5B 8C 80 D1  0...+.0....#[...
1120: 30 0F 01 D1 30 0F 01 6D  61 62 30 1C 33 80 52 3C  0...0..mab0.3.R<
1130: 80 F0 FF FF 7F F0 FF FF  7F 79 30 30 34 45 3C 80  .........y004E<.
1140: F0 FF FF 7F F0 FF FF 7F  6F 69 69 69 13 80 6E D6  ........oiii..n.
1150: 30 0F 01 13 80 99 D6 30  0F 01 2B D6 30 0F 01 9D  0......0..+.0...
1160: 80 23 1C 15 80 52 3C 80  F0 FF FF 7F F0 FF FF 7F  .#...R<.........
1170: 6F 69 69 69 45 3C 80 F0  FF FF 7F F0 FF FF 7F 79  oiiiE<.........y
1180: 30 31 30 13 80 1C 3B 80  BB 9E 80 F8 FF FF 7F F8  010...;.........
1190: FF FF 7F 73 30 30 31 13  80 1C 58 80 52 3C 80 F0  ...s001...X.R<..
11A0: FF FF 7F F0 FF FF 7F 79  30 31 30 BB 9E 80 F8 FF  .......y010.....
11B0: FF 7F F8 FF FF 7F 6B 6C  61 6C 13 80 BB 9E 80 F8  ......klal......
11C0: FF FF 7F F8 FF FF 7F 73  30 30 32 13 80 45 3C 80  .......s002..E<.
11D0: F0 FF FF 7F F0 FF FF 7F  79 30 30 36 13 80 1C 33  ........y006...3
11E0: 80 7C 00 D1 30 0F 01 5B  8C 80 D1 30 0F 01 D1 30  .|..0..[...0...0
11F0: 0F 01 6D 61 62 31 2B D1  30 0F 01 9F 80 7C 01 D1  ..mab1+.0....|..
1200: 30 0F 01 1C 31 80 45 A0  80 F0 FF FF 7F F0 FF FF  0...1.E.........
1210: 7F 77 68 6F 31 13 80 55  A0 80 F0 FF FF 7F F0 FF  .who1..U........
1220: FF 7F 77 68 6F 31 52 3C  80 F0 FF FF 7F F0 FF FF  ..who1R<........
1230: 7F 79 30 30 36 BB 9E 80  F8 FF FF 7F F8 FF FF 7F  .y006...........
1240: 6B 6C 61 6C 13 80 6B 73  6F 75 30 D1 30 0F 01 1C  klal..ksou0.0...
1250: 33 80 45 3C 80 F0 FF FF  7F F0 FF FF 7F 6B 30 30  3.E<.........k00
1260: 36 13 80 45 32 80 F8 FF  FF 7F F8 FF FF 7F 66 64  6..E2.........fd
1270: 6F 31 13 80 55 32 80 F8  FF FF 7F F8 FF FF 7F 66  o1..U2.........f
1280: 64 6F 31 45 A0 80 F0 FF  FF 7F F0 FF FF 7F 77 68  do1E..........wh
1290: 69 31 13 80 55 A0 80 F0  FF FF 7F F0 FF FF 7F 77  i1..U..........w
12A0: 68 69 31 1C 61 80 BA F0  FF FF 7F 7D 80 7E 80 7F  hi1.a......}.~..
12B0: 80 13 80 BA C6 30 0F 01  80 80 81 80 7F 80 82 80  .....0..........
12C0: BA D2 30 0F 01 83 80 84  80 7F 80 85 80 4A C6 30  ..0..........J.0
12D0: 0F 01 F0 FF FF 7F 80 C6  30 0F 01 80 D2 30 0F 01  ........0....0..
12E0: 80 F0 FF FF 7F 4A F0 FF  FF 7F C6 30 0F 01 1C 15  .....J.....0....
12F0: 80 9F A1 80 F8 FF FF 7F  F8 FF FF 7F 73 74 72 30  ............str0
1300: 13 80 45 3C 80 F0 FF FF  7F F0 FF FF 7F 79 30 30  ..E<.........y00
1310: 39 13 80 45 32 80 F8 FF  FF 7F F8 FF FF 7F 66 64  9..E2.........fd
1320: 69 31 13 80 1C 15 80 6E  C6 30 0F 01 00 80 99 C6  i1.....n.0......
1330: 30 0F 01 6E F0 FF FF 7F  00 80 99 F0 FF FF 7F 2B  0..n...........+
1340: C6 30 0F 01 A2 80 1C 31  80 45 32 80 F8 FF FF 7F  .0.....1.E2.....
1350: F8 FF FF 7F 66 64 6F 30  13 80 55 32 80 F8 FF FF  ....fdo0..U2....
1360: 7F F8 FF FF 7F 66 64 6F  30 45 3C 80 F0 FF FF 7F  .....fdo0E<.....
1370: F0 FF FF 7F 32 30 34 37  13 80 45 3C 80 F0 FF FF  ....2047..E<....
1380: 7F F0 FF FF 7F 31 30 34  6B 13 80 1C 1F 80 52 3C  .....104k.....R<
1390: 80 F0 FF FF 7F F0 FF FF  7F 79 30 30 39 9F A1 80  .........y009...
13A0: F8 FF FF 7F F8 FF FF 7F  6B 69 6C 6C 13 80 1C 3B  ........kill...;
13B0: 80 34 A3 80 77 13 80 40  80 1C 15 80 AB 09 4E 00  .4..w..@......N.
13C0: D3 30 0F 01 4E 00 D4 30  0F 01 4E 00 D5 30 0F 01  .0..N..0..N..0..
13D0: 2F 00 D3 30 0F 01 94 01  D3 30 0F 01 80 D3 30 0F  /..0.....0....0.
13E0: 01 80 D4 30 0F 01 80 D5  30 0F 01 BA D3 30 0F 01  ...0....0....0..
13F0: A4 80 A5 80 1D 80 A6 80  BA D4 30 0F 01 A7 80 A8  ..........0.....
1400: 80 1D 80 A9 80 BA D5 30  0F 01 AA 80 AB 80 1D 80  .......0........
1410: AC 80 4A D4 30 0F 01 D3  30 0F 01 4A D5 30 0F 01  ..J.0...0..J.0..
1420: D3 30 0F 01 5B AD 80 D4  30 0F 01 D4 30 0F 01 61  .0..[...0...0..a
1430: 73 74 6C 5B AD 80 D5 30  0F 01 D5 30 0F 01 61 73  stl[...0...0..as
1440: 74 6C BB AE 80 D3 30 0F  01 D3 30 0F 01 6D 61 69  tl....0...0..mai
1450: 6E 13 80 5C 00 AF 80 5C  01 AF 80 9A 48 55 80 23  n..\...\....HU.#
1460: 5B B0 80 D3 30 0F 01 D3  30 0F 01 74 6A 6F 30 45  [...0...0..tjo0E
1470: 3C 80 F0 FF FF 7F F0 FF  FF 7F 77 77 77 77 13 80  <.........wwww..
1480: 45 32 80 F8 FF FF 7F F8  FF FF 7F 66 64 69 31 13  E2.........fdi1.
1490: 80 1C B1 80 52 3C 80 F0  FF FF 7F F0 FF FF 7F 77  ....R<.........w
14A0: 77 77 77 45 3C 80 F0 FF  FF 7F F0 FF FF 7F 77 30  wwwE<.........w0
14B0: 30 30 13 80 1C 31 80 5B  B0 80 D3 30 0F 01 D3 30  00...1.[...0...0
14C0: 0F 01 74 6A 6F 31 2B D3  30 0F 01 B2 80 23 1C 33  ..tjo1+.0....#.3
14D0: 80 52 3C 80 F0 FF FF 7F  F0 FF FF 7F 77 30 30 30  .R<.........w000
