# 17772858 - Iroha

## Common Data

| Field            | Value                     |
|------------------|---------------------------|
| Zone             | Ru'Lude Gardens (ID: 243) |
| Block Size       | 132 bytes                 |
| Total Events     | 5                         |
| References Count | 10                        |

## List of Events

| Event ID                 | Entrypoint   |   Size |   Instructions |
|--------------------------|--------------|--------|----------------|
| [65535](#event-65535)    | 0x0000       |      1 |              1 |
| [10244](#event-10244)    | 0x0001       |      1 |              1 |
| [65535.1](#event-655351) | 0x0002       |     22 |              6 |
| [65535.2](#event-655352) | 0x0018       |     14 |              4 |
| [65535.3](#event-655353) | 0x0026       |     17 |              5 |

## DAT References (imed_data)

|   Index | Hex Value   |   Dec Value |
|---------|-------------|-------------|
|       0 | 0x000D      |          13 |
|       1 | 0xFFFFFFD9  |  4294967257 |
|       2 | 0xA35B      |       41819 |
|       3 | 0x07CF      |        1999 |
|       4 | 0x001E      |          30 |
|       5 | 0xFFFFFFD8  |  4294967256 |
|       6 | 0x7B40      |       31552 |
|       7 | 0xFFFFD5C8  |  4294956488 |
|       8 | 0xFFFFE8A4  |  4294961316 |
|       9 | 0x0BB7      |        2999 |

## Events

### Event 65535

#### Metadata

| Field        | Value   |
|--------------|---------|
| Entrypoint   | 0x0000  |
| Data Size    | 1 bytes |
| Instructions | 1       |

```
      00 01 02 03 04 05 06 07  08 09 0A 0B 0C 0D 0E 0F
      -- -- -- -- -- -- -- --  -- -- -- -- -- -- -- --
0000: 00                                                .               
```

#### Opcodes

```
  0: 0x0000 [0x00] END_REQSTACK()
```

### Event 10244

#### Metadata

| Field        | Value   |
|--------------|---------|
| Entrypoint   | 0x0001  |
| Data Size    | 1 bytes |
| Instructions | 1       |

```
      00 01 02 03 04 05 06 07  08 09 0A 0B 0C 0D 0E 0F
      -- -- -- -- -- -- -- --  -- -- -- -- -- -- -- --
0000:    00                                              .              
```

#### Opcodes

```
  0: 0x0001 [0x00] END_REQSTACK()
```

### Event 65535.1

#### Metadata

| Field        | Value    |
|--------------|----------|
| Entrypoint   | 0x0002   |
| Data Size    | 22 bytes |
| Instructions | 6        |

```
      00 01 02 03 04 05 06 07  08 09 0A 0B 0C 0D 0E 0F
      -- -- -- -- -- -- -- --  -- -- -- -- -- -- -- --
0000:       32 00 80 1F 00 01  80 02 80 03 80 1F 01 1E    2.............
0010: 3B 31 0F 01 1C 04 80 00                           ;1......        
```

#### Opcodes

```
  0: 0x0002 [0x32] ExtData[1]->MainSpeed = 13* * 0.1
  1: 0x0005 [0x1F] MOVE_ENTITY: EventEntity moves to X=-0.039*, Z=41.819*, Y=1.999*
  2: 0x000D [0x1F] MOVE_ENTITY: Update entity position (mode=1)
  3: 0x000F [0x1E] EventEntity looks at Tenzen (ID: 17772859/0x010F313B) and starts talking
  4: 0x0014 [0x1C] WAIT(30* ticks)
  5: 0x0017 [0x00] END_REQSTACK()
```

### Event 65535.2

#### Metadata

| Field        | Value    |
|--------------|----------|
| Entrypoint   | 0x0018   |
| Data Size    | 14 bytes |
| Instructions | 4        |

```
      00 01 02 03 04 05 06 07  08 09 0A 0B 0C 0D 0E 0F
      -- -- -- -- -- -- -- --  -- -- -- -- -- -- -- --
0010:                          32 00 80 1F 00 05 80 06          2.......
0020: 80 03 80 1F 01 00                                 ......          
```

#### Opcodes

```
  0: 0x0018 [0x32] ExtData[1]->MainSpeed = 13* * 0.1
  1: 0x001B [0x1F] MOVE_ENTITY: EventEntity moves to X=-0.040*, Z=31.552*, Y=1.999*
  2: 0x0023 [0x1F] MOVE_ENTITY: Update entity position (mode=1)
  3: 0x0025 [0x00] END_REQSTACK()
```

### Event 65535.3

#### Metadata

| Field        | Value    |
|--------------|----------|
| Entrypoint   | 0x0026   |
| Data Size    | 17 bytes |
| Instructions | 5        |

```
      00 01 02 03 04 05 06 07  08 09 0A 0B 0C 0D 0E 0F
      -- -- -- -- -- -- -- --  -- -- -- -- -- -- -- --
0020:                   32 00  80 1F 00 07 80 08 80 09        2.........
0030: 80 1F 01 1C 04 80 00                              .......         
```

#### Opcodes

```
  0: 0x0026 [0x32] ExtData[1]->MainSpeed = 13* * 0.1
  1: 0x0029 [0x1F] MOVE_ENTITY: EventEntity moves to X=-10.808*, Z=-5.980*, Y=2.999*
  2: 0x0031 [0x1F] MOVE_ENTITY: Update entity position (mode=1)
  3: 0x0033 [0x1C] WAIT(30* ticks)
  4: 0x0036 [0x00] END_REQSTACK()
```
