# 17772601 - Shadow of Darkness

## Common Data

| Field            | Value                     |
|------------------|---------------------------|
| Zone             | Ru'Lude Gardens (ID: 243) |
| Block Size       | 520 bytes                 |
| Total Events     | 29                        |
| References Count | 22                        |

## List of Events

| Event ID                   | Entrypoint   |   Size |   Instructions |
|----------------------------|--------------|--------|----------------|
| [65535](#event-65535)      | 0x0000       |      1 |              1 |
| [10008](#event-10008)      | 0x0001       |      1 |              1 |
| [65535.1](#event-655351)   | 0x0002       |      1 |              1 |
| [65535.2](#event-655352)   | 0x0003       |     16 |              3 |
| [65535.3](#event-655353)   | 0x0013       |     25 |              4 |
| [65535.4](#event-655354)   | 0x002C       |     10 |              2 |
| [65535.5](#event-655355)   | 0x0036       |      5 |              3 |
| [65535.6](#event-655356)   | 0x003B       |      5 |              3 |
| [65535.7](#event-655357)   | 0x0040       |      5 |              3 |
| [65535.8](#event-655358)   | 0x0045       |      5 |              3 |
| [10009](#event-10009)      | 0x004A       |      1 |              1 |
| [65535.9](#event-655359)   | 0x004B       |     34 |              5 |
| [65535.10](#event-6553510) | 0x006D       |     16 |              2 |
| [65535.11](#event-6553511) | 0x007D       |     14 |              2 |
| [65535.12](#event-6553512) | 0x008B       |     16 |              2 |
| [65535.13](#event-6553513) | 0x009B       |     14 |              2 |
| [65535.14](#event-6553514) | 0x00A9       |     16 |              2 |
| [65535.15](#event-6553515) | 0x00B9       |     14 |              2 |
| [65535.16](#event-6553516) | 0x00C7       |     16 |              2 |
| [65535.17](#event-6553517) | 0x00D7       |     14 |              2 |
| [65535.18](#event-6553518) | 0x00E5       |     16 |              2 |
| [65535.19](#event-6553519) | 0x00F5       |     14 |              2 |
| [65535.20](#event-6553520) | 0x0103       |      1 |              1 |
| [10010](#event-10010)      | 0x0104       |     16 |              3 |
| [65535.21](#event-6553521) | 0x0114       |      1 |              1 |
| [65535.22](#event-6553522) | 0x0115       |      5 |              3 |
| [65535.23](#event-6553523) | 0x011A       |      5 |              3 |
| [65535.24](#event-6553524) | 0x011F       |      5 |              3 |
| [65535.25](#event-6553525) | 0x0124       |      5 |              3 |

## DAT References (imed_data)

|   Index | Hex Value   |   Dec Value |
|---------|-------------|-------------|
|       0 | 0x0000      |           0 |
|       1 | 0x0001      |           1 |
|       2 | 0x0040      |          64 |
|       3 | 0x012C      |         300 |
|       4 | 0x2AB7      |       10935 |
|       5 | 0x2AB8      |       10936 |
|       6 | 0x2ABA      |       10938 |
|       7 | 0x2ABB      |       10939 |
|       8 | 0x35DD      |       13789 |
|       9 | 0xFFFEA463  |  4294878307 |
|      10 | 0x62C5      |       25285 |
|      11 | 0x0B46      |        2886 |
|      12 | 0x0048      |          72 |
|      13 | 0x00F8      |         248 |
|      14 | 0xFFFA65F5  |  4294600181 |
|      15 | 0xB248      |       45640 |
|      16 | 0x5DBF      |       23999 |
|      17 | 0x024D      |         589 |
|      18 | 0x2AF7      |       10999 |
|      19 | 0x2AF8      |       11000 |
|      20 | 0x2AFA      |       11002 |
|      21 | 0x2AFB      |       11003 |

## String References

- **10935**: You are too late. I have awoken.
- **10936**: Your rage, cowardice, envy, arrogance, and apathy... From these I will spread the bane of Vana'diel.
- **10938**: Your kind has awoken me...and this time, you will be destroyed!
- **10939**: You cannot stop me. Vana'diel will be a grave for you and all your kind!
- **10999**: You are too late... I have already awakened.
- **11000**: Your anger, cowardice, envy, arrogance, and apathy...from these I will spread the bane that will destroy Vana'diel.
- **11002**: Your kind has awakened me...and this time, you will be destroyed!
- **11003**: You cannot stop me. Vana'diel will be the grave for you and all your kind!

## Events

### Event 65535

#### Metadata

| Field        | Value   |
|--------------|---------|
| Entrypoint   | 0x0000  |
| Data Size    | 1 bytes |
| Instructions | 1       |

```
      00 01 02 03 04 05 06 07  08 09 0A 0B 0C 0D 0E 0F
      -- -- -- -- -- -- -- --  -- -- -- -- -- -- -- --
0000: 00                                                .               
```

#### Opcodes

```
  0: 0x0000 [0x00] END_REQSTACK()
```

### Event 10008

#### Metadata

| Field        | Value   |
|--------------|---------|
| Entrypoint   | 0x0001  |
| Data Size    | 1 bytes |
| Instructions | 1       |

```
      00 01 02 03 04 05 06 07  08 09 0A 0B 0C 0D 0E 0F
      -- -- -- -- -- -- -- --  -- -- -- -- -- -- -- --
0000:    00                                              .              
```

#### Opcodes

```
  0: 0x0001 [0x00] END_REQSTACK()
```

### Event 65535.1

#### Metadata

| Field        | Value   |
|--------------|---------|
| Entrypoint   | 0x0002  |
| Data Size    | 1 bytes |
| Instructions | 1       |

```
      00 01 02 03 04 05 06 07  08 09 0A 0B 0C 0D 0E 0F
      -- -- -- -- -- -- -- --  -- -- -- -- -- -- -- --
0000:       00                                            .             
```

#### Opcodes

```
  0: 0x0002 [0x00] END_REQSTACK()
```

### Event 65535.2

#### Metadata

| Field        | Value    |
|--------------|----------|
| Entrypoint   | 0x0003   |
| Data Size    | 16 bytes |
| Instructions | 3        |

```
      00 01 02 03 04 05 06 07  08 09 0A 0B 0C 0D 0E 0F
      -- -- -- -- -- -- -- --  -- -- -- -- -- -- -- --
0000:          2F 00 39 30 0F  01 6C F8 FF FF 7F 00 80     /.90..l......
0010: 01 80 00                                          ...             
```

#### Opcodes

```
  0: 0x0003 [0x2F] Shadow of Darkness (ID: 17772601/0x010F3039)->Render.Flags0 &= ~0x80000 // Bit 19
  1: 0x0009 [0x6C] FADE_ENTITY_COLOR(entity_id=EventEntity, end_alpha=0*, fade_time=1*)
  2: 0x0012 [0x00] END_REQSTACK()
```

### Event 65535.3

#### Metadata

| Field        | Value    |
|--------------|----------|
| Entrypoint   | 0x0013   |
| Data Size    | 25 bytes |
| Instructions | 4        |

```
      00 01 02 03 04 05 06 07  08 09 0A 0B 0C 0D 0E 0F
      -- -- -- -- -- -- -- --  -- -- -- -- -- -- -- --
0010:          22 00 2C F8 FF  FF 7F F8 FF FF 7F 69 6E     ".,........in
0020: 69 74 6C F8 FF FF 7F 02  80 03 80 00              itl.........    
```

#### Opcodes

```
  0: 0x0013 [0x22] ENTITY_HIDE_FLAG(enabled=0x00)
  1: 0x0015 [0x2C] CREATE_SCHEDULER_TASK: Create scheduler "init" with entities [EventEntity, EventEntity]
  2: 0x0022 [0x6C] FADE_ENTITY_COLOR(entity_id=EventEntity, end_alpha=64*, fade_time=300*)
  3: 0x002B [0x00] END_REQSTACK()
```

### Event 65535.4

#### Metadata

| Field        | Value    |
|--------------|----------|
| Entrypoint   | 0x002C   |
| Data Size    | 10 bytes |
| Instructions | 2        |

```
      00 01 02 03 04 05 06 07  08 09 0A 0B 0C 0D 0E 0F
      -- -- -- -- -- -- -- --  -- -- -- -- -- -- -- --
0020:                                      6C F8 FF FF              l...
0030: 7F 00 80 03 80 00                                 ......          
```

#### Opcodes

```
  0: 0x002C [0x6C] FADE_ENTITY_COLOR(entity_id=EventEntity, end_alpha=0*, fade_time=300*)
  1: 0x0035 [0x00] END_REQSTACK()
```

### Event 65535.5

#### Metadata

| Field        | Value   |
|--------------|---------|
| Entrypoint   | 0x0036  |
| Data Size    | 5 bytes |
| Instructions | 3       |

```
      00 01 02 03 04 05 06 07  08 09 0A 0B 0C 0D 0E 0F
      -- -- -- -- -- -- -- --  -- -- -- -- -- -- -- --
0030:                   1D 04  80 23 00                       ...#.     
```

#### Opcodes

```
  0: 0x0036 [0x1D] PRINT_EVENT_MESSAGE(message_id=10935*)
    → "You are too late. I have awoken."
  1: 0x0039 [0x23] WAIT_FOR_DIALOG_INTERACTION
  2: 0x003A [0x00] END_REQSTACK()
```

### Event 65535.6

#### Metadata

| Field        | Value   |
|--------------|---------|
| Entrypoint   | 0x003B  |
| Data Size    | 5 bytes |
| Instructions | 3       |

```
      00 01 02 03 04 05 06 07  08 09 0A 0B 0C 0D 0E 0F
      -- -- -- -- -- -- -- --  -- -- -- -- -- -- -- --
0030:                                   1D 05 80 23 00             ...#.
```

#### Opcodes

```
  0: 0x003B [0x1D] PRINT_EVENT_MESSAGE(message_id=10936*)
    → "Your rage, cowardice, envy, arrogance, and apathy... From these I will spread the bane of Vana'diel."
  1: 0x003E [0x23] WAIT_FOR_DIALOG_INTERACTION
  2: 0x003F [0x00] END_REQSTACK()
```

### Event 65535.7

#### Metadata

| Field        | Value   |
|--------------|---------|
| Entrypoint   | 0x0040  |
| Data Size    | 5 bytes |
| Instructions | 3       |

```
      00 01 02 03 04 05 06 07  08 09 0A 0B 0C 0D 0E 0F
      -- -- -- -- -- -- -- --  -- -- -- -- -- -- -- --
0040: 1D 06 80 23 00                                    ...#.           
```

#### Opcodes

```
  0: 0x0040 [0x1D] PRINT_EVENT_MESSAGE(message_id=10938*)
    → "Your kind has awoken me...and this time, you will be destroyed!"
  1: 0x0043 [0x23] WAIT_FOR_DIALOG_INTERACTION
  2: 0x0044 [0x00] END_REQSTACK()
```

### Event 65535.8

#### Metadata

| Field        | Value   |
|--------------|---------|
| Entrypoint   | 0x0045  |
| Data Size    | 5 bytes |
| Instructions | 3       |

```
      00 01 02 03 04 05 06 07  08 09 0A 0B 0C 0D 0E 0F
      -- -- -- -- -- -- -- --  -- -- -- -- -- -- -- --
0040:                1D 07 80  23 00                         ...#.      
```

#### Opcodes

```
  0: 0x0045 [0x1D] PRINT_EVENT_MESSAGE(message_id=10939*)
    → "You cannot stop me. Vana'diel will be a grave for you and all your kind!"
  1: 0x0048 [0x23] WAIT_FOR_DIALOG_INTERACTION
  2: 0x0049 [0x00] END_REQSTACK()
```

### Event 10009

#### Metadata

| Field        | Value   |
|--------------|---------|
| Entrypoint   | 0x004A  |
| Data Size    | 1 bytes |
| Instructions | 1       |

```
      00 01 02 03 04 05 06 07  08 09 0A 0B 0C 0D 0E 0F
      -- -- -- -- -- -- -- --  -- -- -- -- -- -- -- --
0040:                                00                           .     
```

#### Opcodes

```
  0: 0x004A [0x00] END_REQSTACK()
```

### Event 65535.9

#### Metadata

| Field        | Value    |
|--------------|----------|
| Entrypoint   | 0x004B   |
| Data Size    | 34 bytes |
| Instructions | 5        |

```
      00 01 02 03 04 05 06 07  08 09 0A 0B 0C 0D 0E 0F
      -- -- -- -- -- -- -- --  -- -- -- -- -- -- -- --
0040:                                   22 00 37 08 80             ".7..
0050: 09 80 0A 80 0B 80 2C F8  FF FF 7F F8 FF FF 7F 69  ......,........i
0060: 6E 69 74 6C F8 FF FF 7F  0C 80 01 80 00           nitl.........   
```

#### Opcodes

```
  0: 0x004B [0x22] ENTITY_HIDE_FLAG(enabled=0x00)
  1: 0x004D [0x37] UPDATE_EVENT_POSITION_AND_DIR: x=13.789*, z=-88.989*, y=25.285*, direction=253.6°*
  2: 0x0056 [0x2C] CREATE_SCHEDULER_TASK: Create scheduler "init" with entities [EventEntity, EventEntity]
  3: 0x0063 [0x6C] FADE_ENTITY_COLOR(entity_id=EventEntity, end_alpha=72*, fade_time=1*)
  4: 0x006C [0x00] END_REQSTACK()
```

### Event 65535.10

#### Metadata

| Field        | Value    |
|--------------|----------|
| Entrypoint   | 0x006D   |
| Data Size    | 16 bytes |
| Instructions | 2        |

```
      00 01 02 03 04 05 06 07  08 09 0A 0B 0C 0D 0E 0F
      -- -- -- -- -- -- -- --  -- -- -- -- -- -- -- --
0060:                                         5B 0D 80               [..
0070: F8 FF FF 7F F8 FF FF 7F  72 6B 6D 30 00           ........rkm0.   
```

#### Opcodes

```
  0: 0x006D [0x5B] LOAD_EXT_SCHEDULER: Load scheduler "rkm0" with entities [EventEntity, EventEntity], work=248*
  1: 0x007C [0x00] END_REQSTACK()
```

### Event 65535.11

#### Metadata

| Field        | Value    |
|--------------|----------|
| Entrypoint   | 0x007D   |
| Data Size    | 14 bytes |
| Instructions | 2        |

```
      00 01 02 03 04 05 06 07  08 09 0A 0B 0C 0D 0E 0F
      -- -- -- -- -- -- -- --  -- -- -- -- -- -- -- --
0070:                                         53 F8 FF               S..
0080: FF 7F F8 FF FF 7F 72 6B  6D 30 00                 ......rkm0.     
```

#### Opcodes

```
  0: 0x007D [0x53] WAIT_SCHEDULER_TASK: Wait for scheduler "rkm0" with entities [EventEntity, EventEntity]
  1: 0x008A [0x00] END_REQSTACK()
```

### Event 65535.12

#### Metadata

| Field        | Value    |
|--------------|----------|
| Entrypoint   | 0x008B   |
| Data Size    | 16 bytes |
| Instructions | 2        |

```
      00 01 02 03 04 05 06 07  08 09 0A 0B 0C 0D 0E 0F
      -- -- -- -- -- -- -- --  -- -- -- -- -- -- -- --
0080:                                   5B 0D 80 F8 FF             [....
0090: FF 7F F8 FF FF 7F 75 6B  6D 30 00                 ......ukm0.     
```

#### Opcodes

```
  0: 0x008B [0x5B] LOAD_EXT_SCHEDULER: Load scheduler "ukm0" with entities [EventEntity, EventEntity], work=248*
  1: 0x009A [0x00] END_REQSTACK()
```

### Event 65535.13

#### Metadata

| Field        | Value    |
|--------------|----------|
| Entrypoint   | 0x009B   |
| Data Size    | 14 bytes |
| Instructions | 2        |

```
      00 01 02 03 04 05 06 07  08 09 0A 0B 0C 0D 0E 0F
      -- -- -- -- -- -- -- --  -- -- -- -- -- -- -- --
0090:                                   53 F8 FF FF 7F             S....
00A0: F8 FF FF 7F 75 6B 6D 30  00                       ....ukm0.       
```

#### Opcodes

```
  0: 0x009B [0x53] WAIT_SCHEDULER_TASK: Wait for scheduler "ukm0" with entities [EventEntity, EventEntity]
  1: 0x00A8 [0x00] END_REQSTACK()
```

### Event 65535.14

#### Metadata

| Field        | Value    |
|--------------|----------|
| Entrypoint   | 0x00A9   |
| Data Size    | 16 bytes |
| Instructions | 2        |

```
      00 01 02 03 04 05 06 07  08 09 0A 0B 0C 0D 0E 0F
      -- -- -- -- -- -- -- --  -- -- -- -- -- -- -- --
00A0:                             5B 0D 80 F8 FF FF 7F           [......
00B0: F8 FF FF 7F 75 6B 6D 31  00                       ....ukm1.       
```

#### Opcodes

```
  0: 0x00A9 [0x5B] LOAD_EXT_SCHEDULER: Load scheduler "ukm1" with entities [EventEntity, EventEntity], work=248*
  1: 0x00B8 [0x00] END_REQSTACK()
```

### Event 65535.15

#### Metadata

| Field        | Value    |
|--------------|----------|
| Entrypoint   | 0x00B9   |
| Data Size    | 14 bytes |
| Instructions | 2        |

```
      00 01 02 03 04 05 06 07  08 09 0A 0B 0C 0D 0E 0F
      -- -- -- -- -- -- -- --  -- -- -- -- -- -- -- --
00B0:                             53 F8 FF FF 7F F8 FF           S......
00C0: FF 7F 75 6B 6D 31 00                              ..ukm1.         
```

#### Opcodes

```
  0: 0x00B9 [0x53] WAIT_SCHEDULER_TASK: Wait for scheduler "ukm1" with entities [EventEntity, EventEntity]
  1: 0x00C6 [0x00] END_REQSTACK()
```

### Event 65535.16

#### Metadata

| Field        | Value    |
|--------------|----------|
| Entrypoint   | 0x00C7   |
| Data Size    | 16 bytes |
| Instructions | 2        |

```
      00 01 02 03 04 05 06 07  08 09 0A 0B 0C 0D 0E 0F
      -- -- -- -- -- -- -- --  -- -- -- -- -- -- -- --
00C0:                      5B  0D 80 F8 FF FF 7F F8 FF         [........
00D0: FF 7F 75 74 75 30 00                              ..utu0.         
```

#### Opcodes

```
  0: 0x00C7 [0x5B] LOAD_EXT_SCHEDULER: Load scheduler "utu0" with entities [EventEntity, EventEntity], work=248*
  1: 0x00D6 [0x00] END_REQSTACK()
```

### Event 65535.17

#### Metadata

| Field        | Value    |
|--------------|----------|
| Entrypoint   | 0x00D7   |
| Data Size    | 14 bytes |
| Instructions | 2        |

```
      00 01 02 03 04 05 06 07  08 09 0A 0B 0C 0D 0E 0F
      -- -- -- -- -- -- -- --  -- -- -- -- -- -- -- --
00D0:                      53  F8 FF FF 7F F8 FF FF 7F         S........
00E0: 75 74 75 30 00                                    utu0.           
```

#### Opcodes

```
  0: 0x00D7 [0x53] WAIT_SCHEDULER_TASK: Wait for scheduler "utu0" with entities [EventEntity, EventEntity]
  1: 0x00E4 [0x00] END_REQSTACK()
```

### Event 65535.18

#### Metadata

| Field        | Value    |
|--------------|----------|
| Entrypoint   | 0x00E5   |
| Data Size    | 16 bytes |
| Instructions | 2        |

```
      00 01 02 03 04 05 06 07  08 09 0A 0B 0C 0D 0E 0F
      -- -- -- -- -- -- -- --  -- -- -- -- -- -- -- --
00E0:                5B 0D 80  F8 FF FF 7F F8 FF FF 7F       [..........
00F0: 75 74 75 31 00                                    utu1.           
```

#### Opcodes

```
  0: 0x00E5 [0x5B] LOAD_EXT_SCHEDULER: Load scheduler "utu1" with entities [EventEntity, EventEntity], work=248*
  1: 0x00F4 [0x00] END_REQSTACK()
```

### Event 65535.19

#### Metadata

| Field        | Value    |
|--------------|----------|
| Entrypoint   | 0x00F5   |
| Data Size    | 14 bytes |
| Instructions | 2        |

```
      00 01 02 03 04 05 06 07  08 09 0A 0B 0C 0D 0E 0F
      -- -- -- -- -- -- -- --  -- -- -- -- -- -- -- --
00F0:                53 F8 FF  FF 7F F8 FF FF 7F 75 74       S........ut
0100: 75 31 00                                          u1.             
```

#### Opcodes

```
  0: 0x00F5 [0x53] WAIT_SCHEDULER_TASK: Wait for scheduler "utu1" with entities [EventEntity, EventEntity]
  1: 0x0102 [0x00] END_REQSTACK()
```

### Event 65535.20

#### Metadata

| Field        | Value   |
|--------------|---------|
| Entrypoint   | 0x0103  |
| Data Size    | 1 bytes |
| Instructions | 1       |

```
      00 01 02 03 04 05 06 07  08 09 0A 0B 0C 0D 0E 0F
      -- -- -- -- -- -- -- --  -- -- -- -- -- -- -- --
0100:          00                                          .            
```

#### Opcodes

```
  0: 0x0103 [0x00] END_REQSTACK()
```

### Event 10010

#### Metadata

| Field        | Value    |
|--------------|----------|
| Entrypoint   | 0x0104   |
| Data Size    | 16 bytes |
| Instructions | 3        |

```
      00 01 02 03 04 05 06 07  08 09 0A 0B 0C 0D 0E 0F
      -- -- -- -- -- -- -- --  -- -- -- -- -- -- -- --
0100:             4E 01 39 30  0F 01 37 0E 80 0F 80 10      N.90..7.....
0110: 80 11 80 00                                       ....            
```

#### Opcodes

```
  0: 0x0104 [0x4E] SET_ENTITY_HIDE_FLAG: Hide Shadow of Darkness (ID: 17772601/0x010F3039)
  1: 0x010A [0x37] UPDATE_EVENT_POSITION_AND_DIR: x=-367.115*, z=45.640*, y=23.999*, direction=51.8°*
  2: 0x0113 [0x00] END_REQSTACK()
```

### Event 65535.21

#### Metadata

| Field        | Value   |
|--------------|---------|
| Entrypoint   | 0x0114  |
| Data Size    | 1 bytes |
| Instructions | 1       |

```
      00 01 02 03 04 05 06 07  08 09 0A 0B 0C 0D 0E 0F
      -- -- -- -- -- -- -- --  -- -- -- -- -- -- -- --
0110:             00                                        .           
```

#### Opcodes

```
  0: 0x0114 [0x00] END_REQSTACK()
```

### Event 65535.22

#### Metadata

| Field        | Value   |
|--------------|---------|
| Entrypoint   | 0x0115  |
| Data Size    | 5 bytes |
| Instructions | 3       |

```
      00 01 02 03 04 05 06 07  08 09 0A 0B 0C 0D 0E 0F
      -- -- -- -- -- -- -- --  -- -- -- -- -- -- -- --
0110:                1D 12 80  23 00                         ...#.      
```

#### Opcodes

```
  0: 0x0115 [0x1D] PRINT_EVENT_MESSAGE(message_id=10999*)
    → "You are too late... I have already awakened."
  1: 0x0118 [0x23] WAIT_FOR_DIALOG_INTERACTION
  2: 0x0119 [0x00] END_REQSTACK()
```

### Event 65535.23

#### Metadata

| Field        | Value   |
|--------------|---------|
| Entrypoint   | 0x011A  |
| Data Size    | 5 bytes |
| Instructions | 3       |

```
      00 01 02 03 04 05 06 07  08 09 0A 0B 0C 0D 0E 0F
      -- -- -- -- -- -- -- --  -- -- -- -- -- -- -- --
0110:                                1D 13 80 23 00               ...#. 
```

#### Opcodes

```
  0: 0x011A [0x1D] PRINT_EVENT_MESSAGE(message_id=11000*)
    → "Your anger, cowardice, envy, arrogance, and apathy...from these I will spread the bane that will destroy Vana'diel."
  1: 0x011D [0x23] WAIT_FOR_DIALOG_INTERACTION
  2: 0x011E [0x00] END_REQSTACK()
```

### Event 65535.24

#### Metadata

| Field        | Value   |
|--------------|---------|
| Entrypoint   | 0x011F  |
| Data Size    | 5 bytes |
| Instructions | 3       |

```
      00 01 02 03 04 05 06 07  08 09 0A 0B 0C 0D 0E 0F
      -- -- -- -- -- -- -- --  -- -- -- -- -- -- -- --
0110:                                               1D                 .
0120: 14 80 23 00                                       ..#.            
```

#### Opcodes

```
  0: 0x011F [0x1D] PRINT_EVENT_MESSAGE(message_id=11002*)
    → "Your kind has awakened me...and this time, you will be destroyed!"
  1: 0x0122 [0x23] WAIT_FOR_DIALOG_INTERACTION
  2: 0x0123 [0x00] END_REQSTACK()
```

### Event 65535.25

#### Metadata

| Field        | Value   |
|--------------|---------|
| Entrypoint   | 0x0124  |
| Data Size    | 5 bytes |
| Instructions | 3       |

```
      00 01 02 03 04 05 06 07  08 09 0A 0B 0C 0D 0E 0F
      -- -- -- -- -- -- -- --  -- -- -- -- -- -- -- --
0120:             1D 15 80 23  00                           ...#.       
```

#### Opcodes

```
  0: 0x0124 [0x1D] PRINT_EVENT_MESSAGE(message_id=11003*)
    → "You cannot stop me. Vana'diel will be the grave for you and all your kind!"
  1: 0x0127 [0x23] WAIT_FOR_DIALOG_INTERACTION
  2: 0x0128 [0x00] END_REQSTACK()
```
