# 17772835

## Common Data

| Field            | Value                     |
|------------------|---------------------------|
| Zone             | Ru'Lude Gardens (ID: 243) |
| Block Size       | 19768 bytes               |
| Total Events     | 26                        |
| References Count | 251                       |

## List of Events

| Event ID                   | Entrypoint   |   Size |   Instructions |
|----------------------------|--------------|--------|----------------|
| [65535](#event-65535)      | 0x0000       |      1 |              1 |
| [65535.1](#event-655351)   | 0x0001       |     13 |              5 |
| [10163](#event-10163)      | 0x000E       |      1 |              1 |
| [10164](#event-10164)      | 0x000F       |      1 |              1 |
| [10165](#event-10165)      | 0x0010       |      1 |              1 |
| [10166](#event-10166)      | 0x0011       |      1 |              1 |
| [10167](#event-10167)      | 0x0012       |      1 |              1 |
| [10168](#event-10168)      | 0x0013       |      1 |              1 |
| [65535.2](#event-655352)   | 0x0014       |      1 |              1 |
| [65535.3](#event-655353)   | 0x0015       |      1 |              1 |
| [65535.4](#event-655354)   | 0x0016       |      1 |              1 |
| [65535.5](#event-655355)   | 0x0017       |      1 |              1 |
| [65535.6](#event-655356)   | 0x0018       |      1 |              1 |
| [65535.7](#event-655357)   | 0x0019       |      1 |              1 |
| [10169](#event-10169)      | 0x001A       |      1 |              1 |
| [10170](#event-10170)      | 0x001B       |      1 |              1 |
| [10171](#event-10171)      | 0x001C       |      1 |              1 |
| [10172](#event-10172)      | 0x001D       |      1 |              1 |
| [10173](#event-10173)      | 0x001E       |      1 |              1 |
| [10174](#event-10174)      | 0x001F       |  18524 |           3182 |
| [65535.8](#event-655358)   | 0x487B       |     18 |              4 |
| [65535.9](#event-655359)   | 0x488D       |      9 |              3 |
| [65535.10](#event-6553510) | 0x4896       |     10 |              2 |
| [65535.11](#event-6553511) | 0x48A0       |     28 |              6 |
| [65535.12](#event-6553512) | 0x48BC       |     24 |              6 |

## DAT References (imed_data)

|   Index | Hex Value   |   Dec Value |
|---------|-------------|-------------|
|       0 | 0x0000      |           0 |
|       1 | 0x0001      |           1 |
|       2 | 0x0002      |           2 |
|       3 | 0x0003      |           3 |
|       4 | 0x0004      |           4 |
|       5 | 0x0005      |           5 |
|       6 | 0x0006      |           6 |
|       7 | 0x0007      |           7 |
|       8 | 0x005F      |          95 |
|       9 | 0x0064      |         100 |
|      10 | 0x0069      |         105 |
|      11 | 0x0052      |          82 |
|      12 | 0x0057      |          87 |
|      13 | 0x005C      |          92 |
|      14 | 0x0059      |          89 |
|      15 | 0x005D      |          93 |
|      16 | 0x0061      |          97 |
|      17 | 0x0060      |          96 |
|      18 | 0x0008      |           8 |
|      19 | 0x0009      |           9 |
|      20 | 0x000A      |          10 |
|      21 | 0x000D      |          13 |
|      22 | 0x0012      |          18 |
|      23 | 0x0013      |          19 |
|      24 | 0x0014      |          20 |
|      25 | 0x0017      |          23 |
|      26 | 0x000C      |          12 |
|      27 | 0x000F      |          15 |
|      28 | 0x000E      |          14 |
|      29 | 0x000B      |          11 |
|      30 | 0x0018      |          24 |
|      31 | 0x001F      |          31 |
|      32 | 0x001B      |          27 |
|      33 | 0x0010      |          16 |
|      34 | 0x0015      |          21 |
|      35 | 0x018D      |         397 |
|      36 | 0x0175      |         373 |
|      37 | 0x0170      |         368 |
|      38 | 0x0171      |         369 |
|      39 | 0x014C      |         332 |
|      40 | 0x01C1      |         449 |
|      41 | 0x027C      |         636 |
|      42 | 0x027B      |         635 |
|      43 | 0x027D      |         637 |
|      44 | 0x02D3      |         723 |
|      45 | 0x0321      |         801 |
|      46 | 0x0326      |         806 |
|      47 | 0x01E1      |         481 |
|      48 | 0x0343      |         835 |
|      49 | 0x0386      |         902 |
|      50 | 0x0388      |         904 |
|      51 | 0x0361      |         865 |
|      52 | 0x0387      |         903 |
|      53 | 0x038A      |         906 |
|      54 | 0x003F      |          63 |
|      55 | 0x0282      |         642 |
|      56 | 0x0283      |         643 |
|      57 | 0x0288      |         648 |
|      58 | 0x0289      |         649 |
|      59 | 0x028A      |         650 |
|      60 | 0x028B      |         651 |
|      61 | 0x029E      |         670 |
|      62 | 0x0019      |          25 |
|      63 | 0x00C6      |         198 |
|      64 | 0x0032      |          50 |
|      65 | 0x00B5      |         181 |
|      66 | 0x008C      |         140 |
|      67 | 0x008E      |         142 |
|      68 | 0x007A      |         122 |
|      69 | 0x014B      |         331 |
|      70 | 0x0148      |         328 |
|      71 | 0x0166      |         358 |
|      72 | 0x017A      |         378 |
|      73 | 0x0182      |         386 |
|      74 | 0x0183      |         387 |
|      75 | 0x0192      |         402 |
|      76 | 0x01DF      |         479 |
|      77 | 0x01E9      |         489 |
|      78 | 0x001C      |          28 |
|      79 | 0x00E6      |         230 |
|      80 | 0x00EB      |         235 |
|      81 | 0x00F5      |         245 |
|      82 | 0x007E      |         126 |
|      83 | 0x007F      |         127 |
|      84 | 0x00F3      |         243 |
|      85 | 0x00F4      |         244 |
|      86 | 0x00E0      |         224 |
|      87 | 0x00E9      |         233 |
|      88 | 0x009E      |         158 |
|      89 | 0x009D      |         157 |
|      90 | 0x00E2      |         226 |
|      91 | 0x00E1      |         225 |
|      92 | 0x014F      |         335 |
|      93 | 0x014E      |         334 |
|      94 | 0x0167      |         359 |
|      95 | 0x00E5      |         229 |
|      96 | 0x0169      |         361 |
|      97 | 0x016A      |         362 |
|      98 | 0x0168      |         360 |
|      99 | 0x0133      |         307 |
|     100 | 0x0174      |         372 |
|     101 | 0x018C      |         396 |
|     102 | 0x0194      |         404 |
|     103 | 0x0195      |         405 |
|     104 | 0x0178      |         376 |
|     105 | 0x0240      |         576 |
|     106 | 0x0197      |         407 |
|     107 | 0x0198      |         408 |
|     108 | 0x01A3      |         419 |
|     109 | 0x019E      |         414 |
|     110 | 0x0246      |         582 |
|     111 | 0x0247      |         583 |
|     112 | 0x0248      |         584 |
|     113 | 0x024B      |         587 |
|     114 | 0x024A      |         586 |
|     115 | 0x0011      |          17 |
|     116 | 0x024F      |         591 |
|     117 | 0x01C3      |         451 |
|     118 | 0x01C4      |         452 |
|     119 | 0x01EF      |         495 |
|     120 | 0x01F0      |         496 |
|     121 | 0x001A      |          26 |
|     122 | 0x0095      |         149 |
|     123 | 0x001D      |          29 |
|     124 | 0x0073      |         115 |
|     125 | 0x0034      |          52 |
|     126 | 0x0024      |          36 |
|     127 | 0x005E      |          94 |
|     128 | 0x0072      |         114 |
|     129 | 0x0031      |          49 |
|     130 | 0x006C      |         108 |
|     131 | 0x003A      |          58 |
|     132 | 0x0096      |         150 |
|     133 | 0x0016      |          22 |
|     134 | 0x0035      |          53 |
|     135 | 0x0085      |         133 |
|     136 | 0x0081      |         129 |
|     137 | 0x0023      |          35 |
|     138 | 0x0033      |          51 |
|     139 | 0x0082      |         130 |
|     140 | 0x0039      |          57 |
|     141 | 0x0020      |          32 |
|     142 | 0x0038      |          56 |
|     143 | 0x0036      |          54 |
|     144 | 0x0083      |         131 |
|     145 | 0x00A2      |         162 |
|     146 | 0x0022      |          34 |
|     147 | 0x0021      |          33 |
|     148 | 0x0065      |         101 |
|     149 | 0x0086      |         134 |
|     150 | 0x0062      |          98 |
|     151 | 0x008D      |         141 |
|     152 | 0x0037      |          55 |
|     153 | 0x008A      |         138 |
|     154 | 0x008B      |         139 |
|     155 | 0x002B      |          43 |
|     156 | 0x0067      |         103 |
|     157 | 0x0030      |          48 |
|     158 | 0x002D      |          45 |
|     159 | 0x00A1      |         161 |
|     160 | 0x0066      |         102 |
|     161 | 0x0075      |         117 |
|     162 | 0x0068      |         104 |
|     163 | 0x007B      |         123 |
|     164 | 0x0077      |         119 |
|     165 | 0x01FE      |         510 |
|     166 | 0x009F      |         159 |
|     167 | 0x00A4      |         164 |
|     168 | 0x00A9      |         169 |
|     169 | 0x00AC      |         172 |
|     170 | 0x00B2      |         178 |
|     171 | 0x00B0      |         176 |
|     172 | 0x013D      |         317 |
|     173 | 0x0108      |         264 |
|     174 | 0x010C      |         268 |
|     175 | 0x0100      |         256 |
|     176 | 0x00FB      |         251 |
|     177 | 0x00B8      |         184 |
|     178 | 0x011C      |         284 |
|     179 | 0x0041      |          65 |
|     180 | 0x0042      |          66 |
|     181 | 0x0047      |          71 |
|     182 | 0x0160      |         352 |
|     183 | 0x0043      |          67 |
|     184 | 0x0048      |          72 |
|     185 | 0x004B      |          75 |
|     186 | 0x004C      |          76 |
|     187 | 0x004D      |          77 |
|     188 | 0x005B      |          91 |
|     189 | 0x0058      |          88 |
|     190 | 0x0053      |          83 |
|     191 | 0x0054      |          84 |
|     192 | 0x0161      |         353 |
|     193 | 0x015C      |         348 |
|     194 | 0x016D      |         365 |
|     195 | 0x00C5      |         197 |
|     196 | 0x00C3      |         195 |
|     197 | 0x00C7      |         199 |
|     198 | 0x015E      |         350 |
|     199 | 0x00C4      |         196 |
|     200 | 0x016E      |         366 |
|     201 | 0x00D0      |         208 |
|     202 | 0x00CD      |         205 |
|     203 | 0x00CA      |         202 |
|     204 | 0x00D2      |         210 |
|     205 | 0x00D8      |         216 |
|     206 | 0x00D5      |         213 |
|     207 | 0x00D6      |         214 |
|     208 | 0x013B      |         315 |
|     209 | 0x0136      |         310 |
|     210 | 0x013A      |         314 |
|     211 | 0x0137      |         311 |
|     212 | 0x016F      |         367 |
|     213 | 0x0138      |         312 |
|     214 | 0x0139      |         313 |
|     215 | 0x009A      |         154 |
|     216 | 0x0091      |         145 |
|     217 | 0x009B      |         155 |
|     218 | 0x0099      |         153 |
|     219 | 0x0093      |         147 |
|     220 | 0x0092      |         146 |
|     221 | 0x0098      |         152 |
|     222 | 0x0071      |         113 |
|     223 | 0x00E8      |         232 |
|     224 | 0x00DD      |         221 |
|     225 | 0x00F8      |         248 |
|     226 | 0x00F1      |         241 |
|     227 | 0x0124      |         292 |
|     228 | 0x012E      |         302 |
|     229 | 0x0129      |         297 |
|     230 | 0x0122      |         290 |
|     231 | 0x0132      |         306 |
|     232 | 0x0126      |         294 |
|     233 | 0x0155      |         341 |
|     234 | 0x0025      |          37 |
|     235 | 0x0029      |          41 |
|     236 | 0x0028      |          40 |
|     237 | 0x007D      |         125 |
|     238 | 0x0079      |         121 |
|     239 | 0x007C      |         124 |
|     240 | 0x0074      |         116 |
|     241 | 0x00EC      |         236 |
|     242 | 0x019C      |         412 |
|     243 | 0x0193      |         403 |
|     244 | 0x01C6      |         454 |
|     245 | 0x01C7      |         455 |
|     246 | 0x0080      |         128 |
|     247 | 0x003C      |          60 |
|     248 | 0xFFFFE699  |  4294960793 |
|     249 | 0x1CA49     |      117321 |
|     250 | 0x0C1D      |        3101 |

## Events

### Event 65535

#### Metadata

| Field        | Value   |
|--------------|---------|
| Entrypoint   | 0x0000  |
| Data Size    | 1 bytes |
| Instructions | 1       |

```
      00 01 02 03 04 05 06 07  08 09 0A 0B 0C 0D 0E 0F
      -- -- -- -- -- -- -- --  -- -- -- -- -- -- -- --
0000: 00                                                .               
```

#### Opcodes

```
  0: 0x0000 [0x00] END_REQSTACK()
```

### Event 65535.1

#### Metadata

| Field        | Value    |
|--------------|----------|
| Entrypoint   | 0x0001   |
| Data Size    | 13 bytes |
| Instructions | 5        |

```
      00 01 02 03 04 05 06 07  08 09 0A 0B 0C 0D 0E 0F
      -- -- -- -- -- -- -- --  -- -- -- -- -- -- -- --
0000:    1A 20 00 1A 75 14 1A  35 19 1A 80 10 00         . ..u..5.....  
```

#### Opcodes

```
  0: 0x0001 [0x1A] CALL_SUBROUTINE(address=0x0020)
  1: 0x0004 [0x1A] CALL_SUBROUTINE(address=0x1475)
  2: 0x0007 [0x1A] CALL_SUBROUTINE(address=0x1935)
  3: 0x000A [0x1A] CALL_SUBROUTINE(address=0x1080)
  4: 0x000D [0x00] END_REQSTACK()
```

### Event 10163

#### Metadata

| Field        | Value   |
|--------------|---------|
| Entrypoint   | 0x000E  |
| Data Size    | 1 bytes |
| Instructions | 1       |

```
      00 01 02 03 04 05 06 07  08 09 0A 0B 0C 0D 0E 0F
      -- -- -- -- -- -- -- --  -- -- -- -- -- -- -- --
0000:                                            00                   . 
```

#### Opcodes

```
  0: 0x000E [0x00] END_REQSTACK()
```

### Event 10164

#### Metadata

| Field        | Value   |
|--------------|---------|
| Entrypoint   | 0x000F  |
| Data Size    | 1 bytes |
| Instructions | 1       |

```
      00 01 02 03 04 05 06 07  08 09 0A 0B 0C 0D 0E 0F
      -- -- -- -- -- -- -- --  -- -- -- -- -- -- -- --
0000:                                               00                 .
```

#### Opcodes

```
  0: 0x000F [0x00] END_REQSTACK()
```

### Event 10165

#### Metadata

| Field        | Value   |
|--------------|---------|
| Entrypoint   | 0x0010  |
| Data Size    | 1 bytes |
| Instructions | 1       |

```
      00 01 02 03 04 05 06 07  08 09 0A 0B 0C 0D 0E 0F
      -- -- -- -- -- -- -- --  -- -- -- -- -- -- -- --
0010: 00                                                .               
```

#### Opcodes

```
  0: 0x0010 [0x00] END_REQSTACK()
```

### Event 10166

#### Metadata

| Field        | Value   |
|--------------|---------|
| Entrypoint   | 0x0011  |
| Data Size    | 1 bytes |
| Instructions | 1       |

```
      00 01 02 03 04 05 06 07  08 09 0A 0B 0C 0D 0E 0F
      -- -- -- -- -- -- -- --  -- -- -- -- -- -- -- --
0010:    00                                              .              
```

#### Opcodes

```
  0: 0x0011 [0x00] END_REQSTACK()
```

### Event 10167

#### Metadata

| Field        | Value   |
|--------------|---------|
| Entrypoint   | 0x0012  |
| Data Size    | 1 bytes |
| Instructions | 1       |

```
      00 01 02 03 04 05 06 07  08 09 0A 0B 0C 0D 0E 0F
      -- -- -- -- -- -- -- --  -- -- -- -- -- -- -- --
0010:       00                                            .             
```

#### Opcodes

```
  0: 0x0012 [0x00] END_REQSTACK()
```

### Event 10168

#### Metadata

| Field        | Value   |
|--------------|---------|
| Entrypoint   | 0x0013  |
| Data Size    | 1 bytes |
| Instructions | 1       |

```
      00 01 02 03 04 05 06 07  08 09 0A 0B 0C 0D 0E 0F
      -- -- -- -- -- -- -- --  -- -- -- -- -- -- -- --
0010:          00                                          .            
```

#### Opcodes

```
  0: 0x0013 [0x00] END_REQSTACK()
```

### Event 65535.2

#### Metadata

| Field        | Value   |
|--------------|---------|
| Entrypoint   | 0x0014  |
| Data Size    | 1 bytes |
| Instructions | 1       |

```
      00 01 02 03 04 05 06 07  08 09 0A 0B 0C 0D 0E 0F
      -- -- -- -- -- -- -- --  -- -- -- -- -- -- -- --
0010:             00                                        .           
```

#### Opcodes

```
  0: 0x0014 [0x00] END_REQSTACK()
```

### Event 65535.3

#### Metadata

| Field        | Value   |
|--------------|---------|
| Entrypoint   | 0x0015  |
| Data Size    | 1 bytes |
| Instructions | 1       |

```
      00 01 02 03 04 05 06 07  08 09 0A 0B 0C 0D 0E 0F
      -- -- -- -- -- -- -- --  -- -- -- -- -- -- -- --
0010:                00                                      .          
```

#### Opcodes

```
  0: 0x0015 [0x00] END_REQSTACK()
```

### Event 65535.4

#### Metadata

| Field        | Value   |
|--------------|---------|
| Entrypoint   | 0x0016  |
| Data Size    | 1 bytes |
| Instructions | 1       |

```
      00 01 02 03 04 05 06 07  08 09 0A 0B 0C 0D 0E 0F
      -- -- -- -- -- -- -- --  -- -- -- -- -- -- -- --
0010:                   00                                    .         
```

#### Opcodes

```
  0: 0x0016 [0x00] END_REQSTACK()
```

### Event 65535.5

#### Metadata

| Field        | Value   |
|--------------|---------|
| Entrypoint   | 0x0017  |
| Data Size    | 1 bytes |
| Instructions | 1       |

```
      00 01 02 03 04 05 06 07  08 09 0A 0B 0C 0D 0E 0F
      -- -- -- -- -- -- -- --  -- -- -- -- -- -- -- --
0010:                      00                                  .        
```

#### Opcodes

```
  0: 0x0017 [0x00] END_REQSTACK()
```

### Event 65535.6

#### Metadata

| Field        | Value   |
|--------------|---------|
| Entrypoint   | 0x0018  |
| Data Size    | 1 bytes |
| Instructions | 1       |

```
      00 01 02 03 04 05 06 07  08 09 0A 0B 0C 0D 0E 0F
      -- -- -- -- -- -- -- --  -- -- -- -- -- -- -- --
0010:                          00                               .       
```

#### Opcodes

```
  0: 0x0018 [0x00] END_REQSTACK()
```

### Event 65535.7

#### Metadata

| Field        | Value   |
|--------------|---------|
| Entrypoint   | 0x0019  |
| Data Size    | 1 bytes |
| Instructions | 1       |

```
      00 01 02 03 04 05 06 07  08 09 0A 0B 0C 0D 0E 0F
      -- -- -- -- -- -- -- --  -- -- -- -- -- -- -- --
0010:                             00                             .      
```

#### Opcodes

```
  0: 0x0019 [0x00] END_REQSTACK()
```

### Event 10169

#### Metadata

| Field        | Value   |
|--------------|---------|
| Entrypoint   | 0x001A  |
| Data Size    | 1 bytes |
| Instructions | 1       |

```
      00 01 02 03 04 05 06 07  08 09 0A 0B 0C 0D 0E 0F
      -- -- -- -- -- -- -- --  -- -- -- -- -- -- -- --
0010:                                00                           .     
```

#### Opcodes

```
  0: 0x001A [0x00] END_REQSTACK()
```

### Event 10170

#### Metadata

| Field        | Value   |
|--------------|---------|
| Entrypoint   | 0x001B  |
| Data Size    | 1 bytes |
| Instructions | 1       |

```
      00 01 02 03 04 05 06 07  08 09 0A 0B 0C 0D 0E 0F
      -- -- -- -- -- -- -- --  -- -- -- -- -- -- -- --
0010:                                   00                         .    
```

#### Opcodes

```
  0: 0x001B [0x00] END_REQSTACK()
```

### Event 10171

#### Metadata

| Field        | Value   |
|--------------|---------|
| Entrypoint   | 0x001C  |
| Data Size    | 1 bytes |
| Instructions | 1       |

```
      00 01 02 03 04 05 06 07  08 09 0A 0B 0C 0D 0E 0F
      -- -- -- -- -- -- -- --  -- -- -- -- -- -- -- --
0010:                                      00                       .   
```

#### Opcodes

```
  0: 0x001C [0x00] END_REQSTACK()
```

### Event 10172

#### Metadata

| Field        | Value   |
|--------------|---------|
| Entrypoint   | 0x001D  |
| Data Size    | 1 bytes |
| Instructions | 1       |

```
      00 01 02 03 04 05 06 07  08 09 0A 0B 0C 0D 0E 0F
      -- -- -- -- -- -- -- --  -- -- -- -- -- -- -- --
0010:                                         00                     .  
```

#### Opcodes

```
  0: 0x001D [0x00] END_REQSTACK()
```

### Event 10173

#### Metadata

| Field        | Value   |
|--------------|---------|
| Entrypoint   | 0x001E  |
| Data Size    | 1 bytes |
| Instructions | 1       |

```
      00 01 02 03 04 05 06 07  08 09 0A 0B 0C 0D 0E 0F
      -- -- -- -- -- -- -- --  -- -- -- -- -- -- -- --
0010:                                            00                   . 
```

#### Opcodes

```
  0: 0x001E [0x00] END_REQSTACK()
```

### Event 10174

#### Metadata

| Field        | Value       |
|--------------|-------------|
| Entrypoint   | 0x001F      |
| Data Size    | 18524 bytes |
| Instructions | 1           |

```
      00 01 02 03 04 05 06 07  08 09 0A 0B 0C 0D 0E 0F
      -- -- -- -- -- -- -- --  -- -- -- -- -- -- -- --
0010:                                               00                 .
0020: 03 03 00 00 80 1A 6B 14  1A 75 14 02 0C 00 00 80  ......k..u......
0030: 80 2E 01 02 02 00 00 80  80 52 00 B4 00 03 00 46  .........R.....F
0040: 65 6C 69 7A 00 00 00 00  00 00 00 00 00 00 00 01  eliz............
0050: 2B 01 02 02 00 01 80 80  71 00 B4 00 03 00 46 65  +.......q.....Fe
0060: 72 64 69 6E 61 6E 64 00  00 00 00 00 00 00 01 2B  rdinand........+
0070: 01 02 02 00 02 80 80 90  00 B4 00 03 00 47 75 6E  .............Gun
0080: 6E 61 72 00 00 00 00 00  00 00 00 00 00 01 2B 01  nar...........+.
0090: 02 02 00 03 80 80 AF 00  B4 00 03 00 4D 61 73 73  ............Mass
00A0: 69 6D 6F 00 00 00 00 00  00 00 00 00 01 2B 01 02  imo..........+..
00B0: 02 00 04 80 80 CE 00 B4  00 03 00 4F 6C 64 72 69  ...........Oldri
00C0: 63 68 00 00 00 00 00 00  00 00 00 01 2B 01 02 02  ch..........+...
00D0: 00 05 80 80 ED 00 B4 00  03 00 53 69 65 67 77 61  ..........Siegwa
00E0: 72 64 00 00 00 00 00 00  00 00 01 2B 01 02 02 00  rd.........+....
00F0: 06 80 80 0C 01 B4 00 03  00 54 68 65 6F 62 61 6C  .........Theobal
0100: 64 00 00 00 00 00 00 00  00 01 2B 01 02 02 00 07  d.........+.....
0110: 80 80 2B 01 B4 00 03 00  5A 65 6E 6A 69 00 00 00  ..+.....Zenji...
0120: 00 00 00 00 00 00 00 00  01 2B 01 01 43 08 02 0C  .........+..C...
0130: 00 01 80 80 31 02 02 02  00 00 80 80 55 01 B4 00  ....1.......U...
0140: 03 00 41 6D 65 72 69 74  61 00 00 00 00 00 00 00  ..Amerita.......
0150: 00 00 01 2E 02 02 02 00  01 80 80 74 01 B4 00 03  ...........t....
0160: 00 42 65 61 74 72 69 63  65 00 00 00 00 00 00 00  .Beatrice.......
0170: 00 01 2E 02 02 02 00 02  80 80 93 01 B4 00 03 00  ................
0180: 48 65 6E 72 69 65 74 74  61 00 00 00 00 00 00 00  Henrietta.......
0190: 01 2E 02 02 02 00 03 80  80 B2 01 B4 00 03 00 4A  ...............J
01A0: 65 73 69 6D 61 65 00 00  00 00 00 00 00 00 00 01  esimae..........
01B0: 2E 02 02 02 00 04 80 80  D1 01 B4 00 03 00 4B 61  ..............Ka
01C0: 72 79 6E 00 00 00 00 00  00 00 00 00 00 00 01 2E  ryn.............
01D0: 02 02 02 00 05 80 80 F0  01 B4 00 03 00 4E 61 6E  .............Nan
01E0: 61 6B 6F 00 00 00 00 00  00 00 00 00 00 01 2E 02  ako.............
01F0: 02 02 00 06 80 80 0F 02  B4 00 03 00 53 68 61 72  ............Shar
0200: 6C 65 6E 65 00 00 00 00  00 00 00 00 01 2E 02 02  lene............
0210: 02 00 07 80 80 2E 02 B4  00 03 00 53 69 65 67 68  ...........Siegh
0220: 69 6C 64 65 00 00 00 00  00 00 00 01 2E 02 01 43  ilde...........C
0230: 08 02 0C 00 02 80 80 34  03 02 02 00 00 80 80 58  .......4.......X
0240: 02 B4 00 03 00 43 68 61  6E 61 6E 64 69 74 00 00  .....Chanandit..
0250: 00 00 00 00 00 01 31 03  02 02 00 01 80 80 77 02  ......1.......w.
0260: B4 00 03 00 44 65 75 6C  6D 61 65 75 78 00 00 00  ....Deulmaeux...
0270: 00 00 00 00 01 31 03 02  02 00 02 80 80 96 02 B4  .....1..........
0280: 00 03 00 44 65 6D 72 65  73 69 6E 61 75 78 00 00  ...Demresinaux..
0290: 00 00 00 01 31 03 02 02  00 03 80 80 B5 02 B4 00  ....1...........
02A0: 03 00 45 70 68 65 61 6C  67 61 75 78 00 00 00 00  ..Ephealgaux....
02B0: 00 00 01 31 03 02 02 00  04 80 80 D4 02 B4 00 03  ...1............
02C0: 00 47 61 75 6C 64 65 76  61 6C 00 00 00 00 00 00  .Gauldeval......
02D0: 00 01 31 03 02 02 00 05  80 80 F3 02 B4 00 03 00  ..1.............
02E0: 47 72 61 75 66 66 65 6D  61 72 74 00 00 00 00 00  Grauffemart.....
02F0: 01 31 03 02 02 00 06 80  80 12 03 B4 00 03 00 4D  .1.............M
0300: 69 67 61 69 66 6F 6E 67  75 74 00 00 00 00 00 01  igaifongut......
0310: 31 03 02 02 00 07 80 80  31 03 B4 00 03 00 52 6F  1.......1.....Ro
0320: 6D 69 64 69 61 6E 74 00  00 00 00 00 00 00 01 31  midiant........1
0330: 03 01 43 08 02 0C 00 03  80 80 37 04 02 02 00 00  ..C.......7.....
0340: 80 80 5B 03 B4 00 03 00  41 72 6D 69 74 74 69 65  ..[.....Armittie
0350: 00 00 00 00 00 00 00 00  01 34 04 02 02 00 01 80  .........4......
0360: 80 7A 03 B4 00 03 00 43  61 64 65 70 75 72 65 00  .z.....Cadepure.
0370: 00 00 00 00 00 00 00 01  34 04 02 02 00 02 80 80  ........4.......
0380: 99 03 B4 00 03 00 43 6C  65 61 72 69 74 65 00 00  ......Clearite..
0390: 00 00 00 00 00 00 01 34  04 02 02 00 03 80 80 B8  .......4........
03A0: 03 B4 00 03 00 45 70 69  6C 6C 65 76 65 00 00 00  .....Epilleve...
03B0: 00 00 00 00 00 01 34 04  02 02 00 04 80 80 D7 03  ......4.........
03C0: B4 00 03 00 4C 69 61 62  65 6C 6C 65 00 00 00 00  ....Liabelle....
03D0: 00 00 00 00 01 34 04 02  02 00 05 80 80 F6 03 B4  .....4..........
03E0: 00 03 00 4E 61 75 74 68  69 6D 61 00 00 00 00 00  ...Nauthima.....
03F0: 00 00 00 01 34 04 02 02  00 06 80 80 15 04 B4 00  ....4...........
0400: 03 00 52 61 64 69 6C 6C  65 00 00 00 00 00 00 00  ..Radille.......
0410: 00 00 01 34 04 02 02 00  07 80 80 34 04 B4 00 03  ...4.......4....
0420: 00 56 69 6D 65 63 68 75  65 00 00 00 00 00 00 00  .Vimechue.......
0430: 00 01 34 04 01 43 08 02  0C 00 04 80 80 3A 05 02  ..4..C.......:..
0440: 02 00 00 80 80 5E 04 B4  00 03 00 42 61 6C 75 2D  .....^.....Balu-
0450: 46 61 6C 75 00 00 00 00  00 00 00 01 37 05 02 02  Falu........7...
0460: 00 01 80 80 7D 04 B4 00  03 00 42 75 72 67 2D 4C  ....}.....Burg-L
0470: 61 64 61 72 67 00 00 00  00 00 01 37 05 02 02 00  adarg......7....
0480: 02 80 80 9C 04 B4 00 03  00 45 68 67 6F 2D 52 79  .........Ehgo-Ry
0490: 75 68 67 6F 00 00 00 00  00 01 37 05 02 02 00 03  uhgo......7.....
04A0: 80 80 BB 04 B4 00 03 00  4B 6F 6C 75 69 2D 50 65  ........Kolui-Pe
04B0: 6C 75 69 00 00 00 00 00  01 37 05 02 02 00 04 80  lui......7......
04C0: 80 DA 04 B4 00 03 00 4E  6F 6B 75 6D 2D 41 6B 6B  .......Nokum-Akk
04D0: 75 6D 00 00 00 00 00 01  37 05 02 02 00 05 80 80  um......7.......
04E0: F9 04 B4 00 03 00 53 61  76 75 6C 2D 4B 69 76 75  ......Savul-Kivu
04F0: 6C 00 00 00 00 00 01 37  05 02 02 00 06 80 80 18  l......7........
0500: 05 B4 00 03 00 56 69 6E  6A 61 2D 4B 61 6E 6A 61  .....Vinja-Kanja
0510: 00 00 00 00 00 01 37 05  02 02 00 07 80 80 37 05  ......7.......7.
0520: B4 00 03 00 59 61 72 67  61 2D 55 6D 69 67 61 00  ....Yarga-Umiga.
0530: 00 00 00 00 01 37 05 01  43 08 02 0C 00 05 80 80  .....7..C.......
0540: 3D 06 02 02 00 00 80 80  61 05 B4 00 03 00 43 75  =.......a.....Cu
0550: 70 61 70 61 00 00 00 00  00 00 00 00 00 00 01 3A  papa...........:
0560: 06 02 02 00 01 80 80 80  05 B4 00 03 00 4A 61 6A  .............Jaj
0570: 75 6A 75 00 00 00 00 00  00 00 00 00 00 01 3A 06  uju...........:.
0580: 02 02 00 02 80 80 9F 05  B4 00 03 00 4B 61 6C 6F  ............Kalo
0590: 6B 6F 6B 6F 00 00 00 00  00 00 00 00 01 3A 06 02  koko.........:..
05A0: 02 00 03 80 80 BE 05 B4  00 03 00 4D 61 68 6F 79  ...........Mahoy
05B0: 61 79 61 00 00 00 00 00  00 00 00 01 3A 06 02 02  aya.........:...
05C0: 00 04 80 80 DD 05 B4 00  03 00 50 61 6B 75 72 61  ..........Pakura
05D0: 72 61 00 00 00 00 00 00  00 00 01 3A 06 02 02 00  ra.........:....
05E0: 05 80 80 FC 05 B4 00 03  00 52 69 70 6F 6B 65 6B  .........Ripokek
05F0: 65 00 00 00 00 00 00 00  00 01 3A 06 02 02 00 06  e.........:.....
0600: 80 80 1B 06 B4 00 03 00  59 61 77 61 77 61 00 00  ........Yawawa..
0610: 00 00 00 00 00 00 00 00  01 3A 06 02 02 00 07 80  .........:......
0620: 80 3A 06 B4 00 03 00 59  75 66 61 66 61 00 00 00  .:.....Yufafa...
0630: 00 00 00 00 00 00 00 01  3A 06 01 43 08 02 0C 00  ........:..C....
0640: 06 80 80 40 07 02 02 00  00 80 80 64 06 B4 00 03  ...@.......d....
0650: 00 46 68 69 67 00 00 00  00 00 00 00 00 00 00 00  .Fhig...........
0660: 00 01 3D 07 02 02 00 01  80 80 83 06 B4 00 03 00  ..=.............
0670: 4B 68 75 6D 61 00 00 00  00 00 00 00 00 00 00 00  Khuma...........
0680: 01 3D 07 02 02 00 02 80  80 A2 06 B4 00 03 00 50  .=.............P
0690: 69 6D 79 00 00 00 00 00  00 00 00 00 00 00 00 01  imy.............
06A0: 3D 07 02 02 00 03 80 80  C1 06 B4 00 03 00 52 61  =.............Ra
06B0: 6B 61 00 00 00 00 00 00  00 00 00 00 00 00 01 3D  ka.............=
06C0: 07 02 02 00 04 80 80 E0  06 B4 00 03 00 53 61 68  .............Sah
06D0: 79 75 00 00 00 00 00 00  00 00 00 00 00 01 3D 07  yu............=.
06E0: 02 02 00 05 80 80 FF 06  B4 00 03 00 53 75 66 68  ............Sufh
06F0: 69 00 00 00 00 00 00 00  00 00 00 00 01 3D 07 02  i............=..
0700: 02 00 06 80 80 1E 07 B4  00 03 00 54 73 75 69 6D  ...........Tsuim
0710: 00 00 00 00 00 00 00 00  00 00 00 01 3D 07 02 02  ............=...
0720: 00 07 80 80 3D 07 B4 00  03 00 59 6F 6C 69 00 00  ....=.....Yoli..
0730: 00 00 00 00 00 00 00 00  00 00 01 3D 07 01 43 08  ...........=..C.
0740: 02 0C 00 07 80 80 43 08  02 02 00 00 80 80 67 07  ......C.......g.
0750: B4 00 03 00 44 75 72 69  62 00 00 00 00 00 00 00  ....Durib.......
0760: 00 00 00 00 01 40 08 02  02 00 01 80 80 86 07 B4  .....@..........
0770: 00 03 00 44 7A 61 70 69  77 61 00 00 00 00 00 00  ...Dzapiwa......
0780: 00 00 00 01 40 08 02 02  00 02 80 80 A5 07 B4 00  ....@...........
0790: 03 00 4A 75 67 6F 77 61  00 00 00 00 00 00 00 00  ..Jugowa........
07A0: 00 00 01 40 08 02 02 00  03 80 80 C4 07 B4 00 03  ...@............
07B0: 00 4D 75 67 69 64 6F 00  00 00 00 00 00 00 00 00  .Mugido.........
07C0: 00 01 40 08 02 02 00 04  80 80 E3 07 B4 00 03 00  ..@.............
07D0: 56 6F 6C 64 61 69 00 00  00 00 00 00 00 00 00 00  Voldai..........
07E0: 01 40 08 02 02 00 05 80  80 02 08 B4 00 03 00 57  .@.............W
07F0: 61 67 77 65 69 00 00 00  00 00 00 00 00 00 00 01  agwei...........
0800: 40 08 02 02 00 06 80 80  21 08 B4 00 03 00 5A 61  @.......!.....Za
0810: 79 61 67 00 00 00 00 00  00 00 00 00 00 00 01 40  yag............@
0820: 08 02 02 00 07 80 80 40  08 B4 00 03 00 5A 6F 6C  .......@.....Zol
0830: 64 6F 66 00 00 00 00 00  00 00 00 00 00 01 40 08  dof...........@.
0840: 01 43 08 02 03 00 00 80  01 4F 08 B5 00 03 00 1B  .C.......O......
0850: 03 03 00 00 80 1A 6B 14  1A 75 14 02 0C 00 00 80  ......k..u......
0860: 80 5E 09 02 02 00 00 80  80 82 08 B4 00 03 00 46  .^.............F
0870: 65 6C 69 7A 00 00 00 00  00 00 00 00 00 00 00 01  eliz............
0880: 5B 09 02 02 00 01 80 80  A1 08 B4 00 03 00 46 65  [.............Fe
0890: 72 64 69 6E 61 6E 64 00  00 00 00 00 00 00 01 5B  rdinand........[
08A0: 09 02 02 00 02 80 80 C0  08 B4 00 03 00 47 75 6E  .............Gun
08B0: 6E 61 72 00 00 00 00 00  00 00 00 00 00 01 5B 09  nar...........[.
08C0: 02 02 00 03 80 80 DF 08  B4 00 03 00 4D 61 73 73  ............Mass
08D0: 69 6D 6F 00 00 00 00 00  00 00 00 00 01 5B 09 02  imo..........[..
08E0: 02 00 04 80 80 FE 08 B4  00 03 00 4F 6C 64 72 69  ...........Oldri
08F0: 63 68 00 00 00 00 00 00  00 00 00 01 5B 09 02 02  ch..........[...
0900: 00 05 80 80 1D 09 B4 00  03 00 53 69 65 67 77 61  ..........Siegwa
0910: 72 64 00 00 00 00 00 00  00 00 01 5B 09 02 02 00  rd.........[....
0920: 06 80 80 3C 09 B4 00 03  00 54 68 65 6F 62 61 6C  ...<.....Theobal
0930: 64 00 00 00 00 00 00 00  00 01 5B 09 02 02 00 07  d.........[.....
0940: 80 80 5B 09 B4 00 03 00  5A 65 6E 6A 69 00 00 00  ..[.....Zenji...
0950: 00 00 00 00 00 00 00 00  01 5B 09 01 73 10 02 0C  .........[..s...
0960: 00 01 80 80 61 0A 02 02  00 00 80 80 85 09 B4 00  ....a...........
0970: 03 00 41 6D 65 72 69 74  61 00 00 00 00 00 00 00  ..Amerita.......
0980: 00 00 01 5E 0A 02 02 00  01 80 80 A4 09 B4 00 03  ...^............
0990: 00 42 65 61 74 72 69 63  65 00 00 00 00 00 00 00  .Beatrice.......
09A0: 00 01 5E 0A 02 02 00 02  80 80 C3 09 B4 00 03 00  ..^.............
09B0: 48 65 6E 72 69 65 74 74  61 00 00 00 00 00 00 00  Henrietta.......
09C0: 01 5E 0A 02 02 00 03 80  80 E2 09 B4 00 03 00 4A  .^.............J
09D0: 65 73 69 6D 61 65 00 00  00 00 00 00 00 00 00 01  esimae..........
09E0: 5E 0A 02 02 00 04 80 80  01 0A B4 00 03 00 4B 61  ^.............Ka
09F0: 72 79 6E 00 00 00 00 00  00 00 00 00 00 00 01 5E  ryn............^
0A00: 0A 02 02 00 05 80 80 20  0A B4 00 03 00 4E 61 6E  ....... .....Nan
0A10: 61 6B 6F 00 00 00 00 00  00 00 00 00 00 01 5E 0A  ako...........^.
0A20: 02 02 00 06 80 80 3F 0A  B4 00 03 00 53 68 61 72  ......?.....Shar
0A30: 6C 65 6E 65 00 00 00 00  00 00 00 00 01 5E 0A 02  lene.........^..
0A40: 02 00 07 80 80 5E 0A B4  00 03 00 53 69 65 67 68  .....^.....Siegh
0A50: 69 6C 64 65 00 00 00 00  00 00 00 01 5E 0A 01 73  ilde........^..s
0A60: 10 02 0C 00 02 80 80 64  0B 02 02 00 00 80 80 88  .......d........
0A70: 0A B4 00 03 00 43 68 61  6E 61 6E 64 69 74 00 00  .....Chanandit..
0A80: 00 00 00 00 00 01 61 0B  02 02 00 01 80 80 A7 0A  ......a.........
0A90: B4 00 03 00 44 65 75 6C  6D 61 65 75 78 00 00 00  ....Deulmaeux...
0AA0: 00 00 00 00 01 61 0B 02  02 00 02 80 80 C6 0A B4  .....a..........
0AB0: 00 03 00 44 65 6D 72 65  73 69 6E 61 75 78 00 00  ...Demresinaux..
0AC0: 00 00 00 01 61 0B 02 02  00 03 80 80 E5 0A B4 00  ....a...........
0AD0: 03 00 45 70 68 65 61 6C  67 61 75 78 00 00 00 00  ..Ephealgaux....
0AE0: 00 00 01 61 0B 02 02 00  04 80 80 04 0B B4 00 03  ...a............
0AF0: 00 47 61 75 6C 64 65 76  61 6C 00 00 00 00 00 00  .Gauldeval......
0B00: 00 01 61 0B 02 02 00 05  80 80 23 0B B4 00 03 00  ..a.......#.....
0B10: 47 72 61 75 66 66 65 6D  61 72 74 00 00 00 00 00  Grauffemart.....
0B20: 01 61 0B 02 02 00 06 80  80 42 0B B4 00 03 00 4D  .a.......B.....M
0B30: 69 67 61 69 66 6F 6E 67  75 74 00 00 00 00 00 01  igaifongut......
0B40: 61 0B 02 02 00 07 80 80  61 0B B4 00 03 00 52 6F  a.......a.....Ro
0B50: 6D 69 64 69 61 6E 74 00  00 00 00 00 00 00 01 61  midiant........a
0B60: 0B 01 73 10 02 0C 00 03  80 80 67 0C 02 02 00 00  ..s.......g.....
0B70: 80 80 8B 0B B4 00 03 00  41 72 6D 69 74 74 69 65  ........Armittie
0B80: 00 00 00 00 00 00 00 00  01 64 0C 02 02 00 01 80  .........d......
0B90: 80 AA 0B B4 00 03 00 43  61 64 65 70 75 72 65 00  .......Cadepure.
0BA0: 00 00 00 00 00 00 00 01  64 0C 02 02 00 02 80 80  ........d.......
0BB0: C9 0B B4 00 03 00 43 6C  65 61 72 69 74 65 00 00  ......Clearite..
0BC0: 00 00 00 00 00 00 01 64  0C 02 02 00 03 80 80 E8  .......d........
0BD0: 0B B4 00 03 00 45 70 69  6C 6C 65 76 65 00 00 00  .....Epilleve...
0BE0: 00 00 00 00 00 01 64 0C  02 02 00 04 80 80 07 0C  ......d.........
0BF0: B4 00 03 00 4C 69 61 62  65 6C 6C 65 00 00 00 00  ....Liabelle....
0C00: 00 00 00 00 01 64 0C 02  02 00 05 80 80 26 0C B4  .....d.......&..
0C10: 00 03 00 4E 61 75 74 68  69 6D 61 00 00 00 00 00  ...Nauthima.....
0C20: 00 00 00 01 64 0C 02 02  00 06 80 80 45 0C B4 00  ....d.......E...
0C30: 03 00 52 61 64 69 6C 6C  65 00 00 00 00 00 00 00  ..Radille.......
0C40: 00 00 01 64 0C 02 02 00  07 80 80 64 0C B4 00 03  ...d.......d....
0C50: 00 56 69 6D 65 63 68 75  65 00 00 00 00 00 00 00  .Vimechue.......
0C60: 00 01 64 0C 01 73 10 02  0C 00 04 80 80 6A 0D 02  ..d..s.......j..
0C70: 02 00 00 80 80 8E 0C B4  00 03 00 42 61 6C 75 2D  ...........Balu-
0C80: 46 61 6C 75 00 00 00 00  00 00 00 01 67 0D 02 02  Falu........g...
0C90: 00 01 80 80 AD 0C B4 00  03 00 42 75 72 67 2D 4C  ..........Burg-L
0CA0: 61 64 61 72 67 00 00 00  00 00 01 67 0D 02 02 00  adarg......g....
0CB0: 02 80 80 CC 0C B4 00 03  00 45 68 67 6F 2D 52 79  .........Ehgo-Ry
0CC0: 75 68 67 6F 00 00 00 00  00 01 67 0D 02 02 00 03  uhgo......g.....
0CD0: 80 80 EB 0C B4 00 03 00  4B 6F 6C 75 69 2D 50 65  ........Kolui-Pe
0CE0: 6C 75 69 00 00 00 00 00  01 67 0D 02 02 00 04 80  lui......g......
0CF0: 80 0A 0D B4 00 03 00 4E  6F 6B 75 6D 2D 41 6B 6B  .......Nokum-Akk
0D00: 75 6D 00 00 00 00 00 01  67 0D 02 02 00 05 80 80  um......g.......
0D10: 29 0D B4 00 03 00 53 61  76 75 6C 2D 4B 69 76 75  ).....Savul-Kivu
0D20: 6C 00 00 00 00 00 01 67  0D 02 02 00 06 80 80 48  l......g.......H
0D30: 0D B4 00 03 00 56 69 6E  6A 61 2D 4B 61 6E 6A 61  .....Vinja-Kanja
0D40: 00 00 00 00 00 01 67 0D  02 02 00 07 80 80 67 0D  ......g.......g.
0D50: B4 00 03 00 59 61 72 67  61 2D 55 6D 69 67 61 00  ....Yarga-Umiga.
0D60: 00 00 00 00 01 67 0D 01  73 10 02 0C 00 05 80 80  .....g..s.......
0D70: 6D 0E 02 02 00 00 80 80  91 0D B4 00 03 00 43 75  m.............Cu
0D80: 70 61 70 61 00 00 00 00  00 00 00 00 00 00 01 6A  papa...........j
0D90: 0E 02 02 00 01 80 80 B0  0D B4 00 03 00 4A 61 6A  .............Jaj
0DA0: 75 6A 75 00 00 00 00 00  00 00 00 00 00 01 6A 0E  uju...........j.
0DB0: 02 02 00 02 80 80 CF 0D  B4 00 03 00 4B 61 6C 6F  ............Kalo
0DC0: 6B 6F 6B 6F 00 00 00 00  00 00 00 00 01 6A 0E 02  koko.........j..
0DD0: 02 00 03 80 80 EE 0D B4  00 03 00 4D 61 68 6F 79  ...........Mahoy
0DE0: 61 79 61 00 00 00 00 00  00 00 00 01 6A 0E 02 02  aya.........j...
0DF0: 00 04 80 80 0D 0E B4 00  03 00 50 61 6B 75 72 61  ..........Pakura
0E00: 72 61 00 00 00 00 00 00  00 00 01 6A 0E 02 02 00  ra.........j....
0E10: 05 80 80 2C 0E B4 00 03  00 52 69 70 6F 6B 65 6B  ...,.....Ripokek
0E20: 65 00 00 00 00 00 00 00  00 01 6A 0E 02 02 00 06  e.........j.....
0E30: 80 80 4B 0E B4 00 03 00  59 61 77 61 77 61 00 00  ..K.....Yawawa..
0E40: 00 00 00 00 00 00 00 00  01 6A 0E 02 02 00 07 80  .........j......
0E50: 80 6A 0E B4 00 03 00 59  75 66 61 66 61 00 00 00  .j.....Yufafa...
0E60: 00 00 00 00 00 00 00 01  6A 0E 01 73 10 02 0C 00  ........j..s....
0E70: 06 80 80 70 0F 02 02 00  00 80 80 94 0E B4 00 03  ...p............
0E80: 00 46 68 69 67 00 00 00  00 00 00 00 00 00 00 00  .Fhig...........
0E90: 00 01 6D 0F 02 02 00 01  80 80 B3 0E B4 00 03 00  ..m.............
0EA0: 4B 68 75 6D 61 00 00 00  00 00 00 00 00 00 00 00  Khuma...........
0EB0: 01 6D 0F 02 02 00 02 80  80 D2 0E B4 00 03 00 50  .m.............P
0EC0: 69 6D 79 00 00 00 00 00  00 00 00 00 00 00 00 01  imy.............
0ED0: 6D 0F 02 02 00 03 80 80  F1 0E B4 00 03 00 52 61  m.............Ra
0EE0: 6B 61 00 00 00 00 00 00  00 00 00 00 00 00 01 6D  ka.............m
0EF0: 0F 02 02 00 04 80 80 10  0F B4 00 03 00 53 61 68  .............Sah
0F00: 79 75 00 00 00 00 00 00  00 00 00 00 00 01 6D 0F  yu............m.
0F10: 02 02 00 05 80 80 2F 0F  B4 00 03 00 53 75 66 68  ....../.....Sufh
0F20: 69 00 00 00 00 00 00 00  00 00 00 00 01 6D 0F 02  i............m..
0F30: 02 00 06 80 80 4E 0F B4  00 03 00 54 73 75 69 6D  .....N.....Tsuim
0F40: 00 00 00 00 00 00 00 00  00 00 00 01 6D 0F 02 02  ............m...
0F50: 00 07 80 80 6D 0F B4 00  03 00 59 6F 6C 69 00 00  ....m.....Yoli..
0F60: 00 00 00 00 00 00 00 00  00 00 01 6D 0F 01 73 10  ...........m..s.
0F70: 02 0C 00 07 80 80 73 10  02 02 00 00 80 80 97 0F  ......s.........
0F80: B4 00 03 00 44 75 72 69  62 00 00 00 00 00 00 00  ....Durib.......
0F90: 00 00 00 00 01 70 10 02  02 00 01 80 80 B6 0F B4  .....p..........
0FA0: 00 03 00 44 7A 61 70 69  77 61 00 00 00 00 00 00  ...Dzapiwa......
0FB0: 00 00 00 01 70 10 02 02  00 02 80 80 D5 0F B4 00  ....p...........
0FC0: 03 00 4A 75 67 6F 77 61  00 00 00 00 00 00 00 00  ..Jugowa........
0FD0: 00 00 01 70 10 02 02 00  03 80 80 F4 0F B4 00 03  ...p............
0FE0: 00 4D 75 67 69 64 6F 00  00 00 00 00 00 00 00 00  .Mugido.........
0FF0: 00 01 70 10 02 02 00 04  80 80 13 10 B4 00 03 00  ..p.............
1000: 56 6F 6C 64 61 69 00 00  00 00 00 00 00 00 00 00  Voldai..........
1010: 01 70 10 02 02 00 05 80  80 32 10 B4 00 03 00 57  .p.......2.....W
1020: 61 67 77 65 69 00 00 00  00 00 00 00 00 00 00 01  agwei...........
1030: 70 10 02 02 00 06 80 80  51 10 B4 00 03 00 5A 61  p.......Q.....Za
1040: 79 61 67 00 00 00 00 00  00 00 00 00 00 00 01 70  yag............p
1050: 10 02 02 00 07 80 80 70  10 B4 00 03 00 5A 6F 6C  .......p.....Zol
1060: 64 6F 66 00 00 00 00 00  00 00 00 00 00 01 70 10  dof...........p.
1070: 01 73 10 02 03 00 00 80  01 7F 10 B5 00 03 00 1B  .s..............
1080: 1A 46 14 02 0A 00 00 80  02 4B 12 02 0C 00 00 80  .F.......K......
1090: 80 C3 10 02 0A 00 01 80  80 A2 10 B6 0F 08 80 01  ................
10A0: C0 10 02 0A 00 02 80 80  B1 10 B6 0F 09 80 01 C0  ................
10B0: 10 02 0A 00 03 80 80 C0  10 B6 0F 0A 80 01 C0 10  ................
10C0: 01 4B 12 02 0C 00 01 80  80 FB 10 02 0A 00 01 80  .K..............
10D0: 80 DA 10 B6 0F 08 80 01  F8 10 02 0A 00 02 80 80  ................
10E0: E9 10 B6 0F 09 80 01 F8  10 02 0A 00 03 80 80 F8  ................
10F0: 10 B6 0F 0A 80 01 F8 10  01 4B 12 02 0C 00 02 80  .........K......
1100: 80 33 11 02 0A 00 01 80  80 12 11 B6 0F 08 80 01  .3..............
1110: 30 11 02 0A 00 02 80 80  21 11 B6 0F 09 80 01 30  0.......!......0
1120: 11 02 0A 00 03 80 80 30  11 B6 0F 0A 80 01 30 11  .......0......0.
1130: 01 4B 12 02 0C 00 03 80  80 6B 11 02 0A 00 01 80  .K.......k......
1140: 80 4A 11 B6 0F 08 80 01  68 11 02 0A 00 02 80 80  .J......h.......
1150: 59 11 B6 0F 09 80 01 68  11 02 0A 00 03 80 80 68  Y......h.......h
1160: 11 B6 0F 0A 80 01 68 11  01 4B 12 02 0C 00 04 80  ......h..K......
1170: 80 A3 11 02 0A 00 01 80  80 82 11 B6 0F 0B 80 01  ................
1180: A0 11 02 0A 00 02 80 80  91 11 B6 0F 0C 80 01 A0  ................
1190: 11 02 0A 00 03 80 80 A0  11 B6 0F 0D 80 01 A0 11  ................
11A0: 01 4B 12 02 0C 00 05 80  80 DB 11 02 0A 00 01 80  .K..............
11B0: 80 BA 11 B6 0F 0B 80 01  D8 11 02 0A 00 02 80 80  ................
11C0: C9 11 B6 0F 0C 80 01 D8  11 02 0A 00 03 80 80 D8  ................
11D0: 11 B6 0F 0D 80 01 D8 11  01 4B 12 02 0C 00 06 80  .........K......
11E0: 80 13 12 02 0A 00 01 80  80 F2 11 B6 0F 0E 80 01  ................
11F0: 10 12 02 0A 00 02 80 80  01 12 B6 0F 0F 80 01 10  ................
1200: 12 02 0A 00 03 80 80 10  12 B6 0F 10 80 01 10 12  ................
1210: 01 4B 12 02 0C 00 07 80  80 4B 12 02 0A 00 01 80  .K.......K......
1220: 80 2A 12 B6 0F 0D 80 01  48 12 02 0A 00 02 80 80  .*......H.......
1230: 39 12 B6 0F 11 80 01 48  12 02 0A 00 03 80 80 48  9......H.......H
1240: 12 B6 0F 09 80 01 48 12  01 4B 12 0B 0C 00 B6 0B  ......H..K......
1250: 0C 00 0D 00 0E 00 0F 00  10 00 11 00 12 00 00 80  ................
1260: 00 80 1B 1A 46 14 02 0A  00 00 80 02 2E 14 02 0C  ....F...........
1270: 00 00 80 80 A6 12 02 0A  00 01 80 80 85 12 B6 0F  ................
1280: 08 80 01 A3 12 02 0A 00  02 80 80 94 12 B6 0F 09  ................
1290: 80 01 A3 12 02 0A 00 03  80 80 A3 12 B6 0F 0A 80  ................
12A0: 01 A3 12 01 2E 14 02 0C  00 01 80 80 DE 12 02 0A  ................
12B0: 00 01 80 80 BD 12 B6 0F  08 80 01 DB 12 02 0A 00  ................
12C0: 02 80 80 CC 12 B6 0F 09  80 01 DB 12 02 0A 00 03  ................
12D0: 80 80 DB 12 B6 0F 0A 80  01 DB 12 01 2E 14 02 0C  ................
12E0: 00 02 80 80 16 13 02 0A  00 01 80 80 F5 12 B6 0F  ................
12F0: 08 80 01 13 13 02 0A 00  02 80 80 04 13 B6 0F 09  ................
1300: 80 01 13 13 02 0A 00 03  80 80 13 13 B6 0F 0A 80  ................
1310: 01 13 13 01 2E 14 02 0C  00 03 80 80 4E 13 02 0A  ............N...
1320: 00 01 80 80 2D 13 B6 0F  08 80 01 4B 13 02 0A 00  ....-......K....
1330: 02 80 80 3C 13 B6 0F 09  80 01 4B 13 02 0A 00 03  ...<......K.....
1340: 80 80 4B 13 B6 0F 0A 80  01 4B 13 01 2E 14 02 0C  ..K......K......
1350: 00 04 80 80 86 13 02 0A  00 01 80 80 65 13 B6 0F  ............e...
1360: 0B 80 01 83 13 02 0A 00  02 80 80 74 13 B6 0F 0C  ...........t....
1370: 80 01 83 13 02 0A 00 03  80 80 83 13 B6 0F 0D 80  ................
1380: 01 83 13 01 2E 14 02 0C  00 05 80 80 BE 13 02 0A  ................
1390: 00 01 80 80 9D 13 B6 0F  0B 80 01 BB 13 02 0A 00  ................
13A0: 02 80 80 AC 13 B6 0F 0C  80 01 BB 13 02 0A 00 03  ................
13B0: 80 80 BB 13 B6 0F 0D 80  01 BB 13 01 2E 14 02 0C  ................
13C0: 00 06 80 80 F6 13 02 0A  00 01 80 80 D5 13 B6 0F  ................
13D0: 0E 80 01 F3 13 02 0A 00  02 80 80 E4 13 B6 0F 0F  ................
13E0: 80 01 F3 13 02 0A 00 03  80 80 F3 13 B6 0F 10 80  ................
13F0: 01 F3 13 01 2E 14 02 0C  00 07 80 80 2E 14 02 0A  ................
1400: 00 01 80 80 0D 14 B6 0F  0D 80 01 2B 14 02 0A 00  ...........+....
1410: 02 80 80 1C 14 B6 0F 11  80 01 2B 14 02 0A 00 03  ..........+.....
1420: 80 80 2B 14 B6 0F 09 80  01 2B 14 01 2E 14 0B 0C  ..+......+......
1430: 00 B6 0B 0C 00 0D 00 0E  00 0F 00 10 00 11 00 12  ................
1440: 00 13 00 14 00 1B 1A 75  14 1A 6A 15 1A 60 15 1A  .......u..j..`..
1450: C1 19 1A D6 19 1A F6 19  1A 16 1A 1A 36 1A 1A 63  ............6..c
1460: 19 1A 83 19 1A 56 1A 1A  7E 1A 1B 41 00 80 03 80  .....V..~..A....
1470: 09 10 02 00 1B 41 04 80  06 80 09 10 0C 00 03 1E  .....A..........
1480: 17 00 80 02 0C 00 00 80  80 93 14 03 1F 17 00 80  ................
1490: 01 03 15 02 0C 00 01 80  80 A3 14 03 1F 17 01 80  ................
14A0: 01 03 15 02 0C 00 02 80  80 B3 14 03 1F 17 00 80  ................
14B0: 01 03 15 02 0C 00 03 80  80 C3 14 03 1F 17 01 80  ................
14C0: 01 03 15 02 0C 00 04 80  80 D3 14 03 1F 17 00 80  ................
14D0: 01 03 15 02 0C 00 05 80  80 E3 14 03 1F 17 01 80  ................
14E0: 01 03 15 02 0C 00 06 80  80 F3 14 03 1F 17 01 80  ................
14F0: 01 03 15 02 0C 00 07 80  80 03 15 03 1F 17 00 80  ................
1500: 01 03 15 02 1F 17 01 80  00 4B 15 02 87 7F 02 80  .........K......
1510: 80 1B 15 03 1E 17 01 80  01 4B 15 02 87 7F 04 80  .........K......
1520: 80 2B 15 03 1E 17 01 80  01 4B 15 02 87 7F 06 80  .+.......K......
1530: 80 3B 15 03 1E 17 01 80  01 4B 15 02 87 7F 07 80  .;.......K......
1540: 80 4B 15 03 1E 17 01 80  01 4B 15 1B 41 12 80 13  .K.......K..A...
1550: 80 09 10 07 00 1B 41 14  80 15 80 09 10 09 00 1B  ......A.........
1560: 41 16 80 17 80 09 10 0A  00 1B 1A 75 14 1A 4C 15  A..........u..L.
1570: 02 07 00 00 80 00 84 15  41 18 80 19 80 09 10 0D  ........A.......
1580: 00 01 C4 18 02 0C 00 00  80 80 EC 15 02 07 00 01  ................
1590: 80 80 AB 15 3E 09 10 07  80 A3 15 03 0D 00 15 80  ....>...........
15A0: 01 A8 15 03 0D 00 1A 80  01 E9 15 02 07 00 02 80  ................
15B0: 80 CA 15 3E 09 10 07 80  C2 15 03 0D 00 05 80 01  ...>............
15C0: C7 15 03 0D 00 04 80 01  E9 15 02 07 00 03 80 80  ................
15D0: E9 15 3E 09 10 07 80 E1  15 03 0D 00 01 80 01 E6  ..>.............
15E0: 15 03 0D 00 00 80 01 E9  15 01 C4 18 02 0C 00 01  ................
15F0: 80 80 54 16 02 07 00 01  80 80 13 16 3E 09 10 07  ..T.........>...
1600: 80 0B 16 03 0D 00 01 80  01 10 16 03 0D 00 00 80  ................
1610: 01 51 16 02 07 00 02 80  80 32 16 3E 09 10 07 80  .Q.......2.>....
1620: 2A 16 03 0D 00 05 80 01  2F 16 03 0D 00 04 80 01  *......./.......
1630: 51 16 02 07 00 03 80 80  51 16 3E 09 10 07 80 49  Q.......Q.>....I
1640: 16 03 0D 00 03 80 01 4E  16 03 0D 00 02 80 01 51  .......N.......Q
1650: 16 01 C4 18 02 0C 00 02  80 80 BC 16 02 07 00 01  ................
1660: 80 80 7B 16 3E 09 10 07  80 73 16 03 0D 00 03 80  ..{.>....s......
1670: 01 78 16 03 0D 00 02 80  01 B9 16 02 07 00 02 80  .x..............
1680: 80 9A 16 3E 09 10 07 80  92 16 03 0D 00 1B 80 01  ...>............
1690: 97 16 03 0D 00 1C 80 01  B9 16 02 07 00 03 80 80  ................
16A0: B9 16 3E 09 10 07 80 B1  16 03 0D 00 15 80 01 B6  ..>.............
16B0: 16 03 0D 00 1A 80 01 B9  16 01 C4 18 02 0C 00 03  ................
16C0: 80 80 24 17 02 07 00 01  80 80 E3 16 3E 09 10 07  ..$.........>...
16D0: 80 DB 16 03 0D 00 01 80  01 E0 16 03 0D 00 00 80  ................
16E0: 01 21 17 02 07 00 02 80  80 02 17 3E 09 10 07 80  .!.........>....
16F0: FA 16 03 0D 00 1D 80 01  FF 16 03 0D 00 14 80 01  ................
1700: 21 17 02 07 00 03 80 80  21 17 3E 09 10 07 80 19  !.......!.>.....
1710: 17 03 0D 00 07 80 01 1E  17 03 0D 00 06 80 01 21  ...............!
1720: 17 01 C4 18 02 0C 00 04  80 80 8C 17 02 07 00 01  ................
1730: 80 80 4B 17 3E 09 10 07  80 43 17 03 0D 00 05 80  ..K.>....C......
1740: 01 48 17 03 0D 00 04 80  01 89 17 02 07 00 02 80  .H..............
1750: 80 6A 17 3E 09 10 07 80  62 17 03 0D 00 03 80 01  .j.>....b.......
1760: 67 17 03 0D 00 02 80 01  89 17 02 07 00 03 80 80  g...............
1770: 89 17 3E 09 10 07 80 81  17 03 0D 00 07 80 01 86  ..>.............
1780: 17 03 0D 00 06 80 01 89  17 01 C4 18 02 0C 00 05  ................
1790: 80 80 F4 17 02 07 00 01  80 80 B3 17 3E 09 10 07  ............>...
17A0: 80 AB 17 03 0D 00 03 80  01 B0 17 03 0D 00 02 80  ................
17B0: 01 F1 17 02 07 00 02 80  80 D2 17 3E 09 10 07 80  ...........>....
17C0: CA 17 03 0D 00 07 80 01  CF 17 03 0D 00 06 80 01  ................
17D0: F1 17 02 07 00 03 80 80  F1 17 3E 09 10 07 80 E9  ..........>.....
17E0: 17 03 0D 00 01 80 01 EE  17 03 0D 00 00 80 01 F1  ................
17F0: 17 01 C4 18 02 0C 00 06  80 80 5C 18 02 07 00 01  ..........\.....
1800: 80 80 1B 18 3E 09 10 07  80 13 18 03 0D 00 13 80  ....>...........
1810: 01 18 18 03 0D 00 12 80  01 59 18 02 07 00 02 80  .........Y......
1820: 80 3A 18 3E 09 10 07 80  32 18 03 0D 00 1D 80 01  .:.>....2.......
1830: 37 18 03 0D 00 14 80 01  59 18 02 07 00 03 80 80  7.......Y.......
1840: 59 18 3E 09 10 07 80 51  18 03 0D 00 15 80 01 56  Y.>....Q.......V
1850: 18 03 0D 00 1A 80 01 59  18 01 C4 18 02 0C 00 07  .......Y........
1860: 80 80 C4 18 02 07 00 01  80 80 83 18 3E 09 10 07  ............>...
1870: 80 7B 18 03 0D 00 05 80  01 80 18 03 0D 00 04 80  .{..............
1880: 01 C1 18 02 07 00 02 80  80 A2 18 3E 09 10 07 80  ...........>....
1890: 9A 18 03 0D 00 15 80 01  9F 18 03 0D 00 1A 80 01  ................
18A0: C1 18 02 07 00 03 80 80  C1 18 3E 09 10 07 80 B9  ..........>.....
18B0: 18 03 0D 00 1D 80 01 BE  18 03 0D 00 14 80 01 C1  ................
18C0: 18 01 C4 18 1B 40 1E 80  1F 80 01 10 01 80 43 00  .....@........C.
18D0: 43 01 1B 40 1E 80 1F 80  01 10 02 80 43 00 43 01  C..@........C.C.
18E0: 1B 40 1E 80 1F 80 01 10  03 80 43 00 43 01 1B 40  .@........C.C..@
18F0: 1E 80 1F 80 01 10 04 80  43 00 43 01 1B 40 1E 80  ........C.C..@..
1900: 1F 80 01 10 05 80 43 00  43 01 1B 40 1E 80 1F 80  ......C.C..@....
1910: 01 10 06 80 43 00 43 01  1B 40 1E 80 1F 80 01 10  ....C.C..@......
1920: 07 80 43 00 43 01 1B 40  1E 80 1F 80 01 10 12 80  ..C.C..@........
1930: 43 00 43 01 1B 40 1E 80  1F 80 01 10 14 80 43 00  C.C..@........C.
1940: 43 01 1B 1A 75 14 03 0B  00 0C 00 02 0B 00 05 80  C...u...........
1950: 04 58 19 08 0B 00 01 80  14 0B 00 14 80 07 0B 00  .X..............
1960: 13 80 1B 03 17 00 00 80  03 18 00 00 80 41 18 80  .............A..
1970: 19 80 08 10 17 00 41 00  80 03 80 07 10 18 00 1A  ......A.........
1980: 09 40 1B 03 17 00 00 80  41 1E 80 20 80 08 10 17  .@......A.. ....
1990: 00 3E 07 10 18 80 A7 19  41 00 80 03 80 07 10 18  .>......A.......
19A0: 00 1A F1 45 01 C0 19 41  00 80 03 80 07 10 18 00  ...E...A........
19B0: 02 18 00 00 80 80 BB 19  01 C0 19 03 14 00 00 80  ................
19C0: 1B 03 17 00 00 80 41 00  80 03 80 08 10 17 00 1A  ......A.........
19D0: 56 15 1A 50 2B 1B 03 16  00 00 80 03 17 00 00 80  V..P+...........
19E0: 41 06 80 07 80 07 10 16  00 41 04 80 07 80 08 10  A........A......
19F0: 17 00 1A 55 33 1B 03 16  00 00 80 03 17 00 00 80  ...U3...........
1A00: 41 12 80 13 80 07 10 16  00 41 12 80 1D 80 08 10  A........A......
1A10: 17 00 1A 82 36 1B 03 16  00 00 80 03 17 00 00 80  ....6...........
1A20: 41 14 80 1D 80 07 10 16  00 41 1A 80 1B 80 08 10  A........A......
1A30: 17 00 1A AF 39 1B 03 16  00 00 80 03 17 00 00 80  ....9...........
1A40: 41 1A 80 15 80 07 10 16  00 41 21 80 17 80 08 10  A........A!.....
1A50: 17 00 1A DC 3C 1B 41 00  80 03 80 06 10 15 00 1A  ....<.A.........
1A60: 75 14 1A CD 46 41 04 80  07 80 06 10 15 00 1A D0  u...FA..........
1A70: 47 41 12 80 1D 80 06 10  15 00 1A 1A 48 1B 41 22  GA..........H.A"
1A80: 80 1E 80 07 10 01 00 02  01 00 01 80 80 97 1A 03  ................
1A90: 13 00 23 80 01 E0 1B 02  01 00 02 80 80 A7 1A 03  ..#.............
1AA0: 13 00 24 80 01 E0 1B 02  01 00 03 80 80 B7 1A 03  ..$.............
1AB0: 13 00 25 80 01 E0 1B 02  01 00 04 80 80 C7 1A 03  ..%.............
1AC0: 13 00 26 80 01 E0 1B 02  01 00 05 80 80 D7 1A 03  ..&.............
1AD0: 13 00 27 80 01 E0 1B 02  01 00 06 80 80 E7 1A 03  ..'.............
1AE0: 13 00 28 80 01 E0 1B 02  01 00 07 80 80 E0 1B 41  ..(............A
1AF0: 00 80 07 80 03 10 01 00  02 01 00 00 80 80 08 1B  ................
1B00: 03 13 00 23 80 01 DD 1B  02 01 00 01 80 80 18 1B  ...#............
1B10: 03 13 00 29 80 01 DD 1B  02 01 00 02 80 80 28 1B  ...)..........(.
1B20: 03 13 00 2A 80 01 DD 1B  02 01 00 03 80 80 38 1B  ...*..........8.
1B30: 03 13 00 2B 80 01 DD 1B  02 01 00 04 80 80 48 1B  ...+..........H.
1B40: 03 13 00 2C 80 01 DD 1B  02 01 00 05 80 80 58 1B  ...,..........X.
1B50: 03 13 00 2D 80 01 DD 1B  02 01 00 06 80 80 68 1B  ...-..........h.
1B60: 03 13 00 2E 80 01 DD 1B  02 01 00 07 80 80 7D 1B  ..............}.
1B70: 03 13 00 2F 80 03 14 00  2F 80 01 DD 1B 02 01 00  .../..../.......
1B80: 12 80 80 8D 1B 03 13 00  30 80 01 DD 1B 02 01 00  ........0.......
1B90: 13 80 80 9D 1B 03 13 00  31 80 01 DD 1B 02 01 00  ........1.......
1BA0: 14 80 80 AD 1B 03 13 00  32 80 01 DD 1B 02 01 00  ........2.......
1BB0: 1D 80 80 BD 1B 03 13 00  33 80 01 DD 1B 02 01 00  ........3.......
1BC0: 1A 80 80 CD 1B 03 13 00  34 80 01 DD 1B 02 01 00  ........4.......
1BD0: 15 80 80 DD 1B 03 13 00  35 80 01 DD 1B 01 E0 1B  ........5.......
1BE0: 3E 03 10 12 80 70 1C 41  13 80 1B 80 03 10 01 00  >....p.A........
1BF0: 02 01 00 00 80 80 00 1C  03 14 00 36 80 01 70 1C  ...........6..p.
1C00: 02 01 00 01 80 80 10 1C  03 14 00 37 80 01 70 1C  ...........7..p.
1C10: 02 01 00 02 80 80 20 1C  03 14 00 38 80 01 70 1C  ...... ....8..p.
1C20: 02 01 00 03 80 80 30 1C  03 14 00 39 80 01 70 1C  ......0....9..p.
1C30: 02 01 00 04 80 80 40 1C  03 14 00 3A 80 01 70 1C  ......@....:..p.
1C40: 02 01 00 05 80 80 50 1C  03 14 00 3B 80 01 70 1C  ......P....;..p.
1C50: 02 01 00 06 80 80 60 1C  03 14 00 3C 80 01 70 1C  ......`....<..p.
1C60: 02 01 00 07 80 80 70 1C  03 14 00 3D 80 01 70 1C  ......p....=..p.
1C70: 41 3E 80 20 80 07 10 01  00 02 01 00 01 80 80 89  A>. ............
1C80: 1C 03 0E 00 3F 80 01 38  1E 02 01 00 02 80 80 99  ....?..8........
1C90: 1C 03 0E 00 40 80 01 38  1E 02 01 00 03 80 80 A9  ....@..8........
1CA0: 1C 03 0E 00 41 80 01 38  1E 02 01 00 04 80 80 B9  ....A..8........
1CB0: 1C 03 0E 00 42 80 01 38  1E 02 01 00 05 80 80 C9  ....B..8........
1CC0: 1C 03 0E 00 43 80 01 38  1E 02 01 00 06 80 80 D9  ....C..8........
1CD0: 1C 03 0E 00 44 80 01 38  1E 02 01 00 07 80 80 38  ....D..8.......8
1CE0: 1E 41 21 80 19 80 03 10  01 00 02 01 00 00 80 80  .A!.............
1CF0: 75 1D 02 0C 00 00 80 80  02 1D 03 0E 00 45 80 01  u............E..
1D00: 72 1D 02 0C 00 01 80 80  12 1D 03 0E 00 27 80 01  r............'..
1D10: 72 1D 02 0C 00 02 80 80  22 1D 03 0E 00 45 80 01  r......."....E..
1D20: 72 1D 02 0C 00 03 80 80  32 1D 03 0E 00 27 80 01  r.......2....'..
1D30: 72 1D 02 0C 00 04 80 80  42 1D 03 0E 00 45 80 01  r.......B....E..
1D40: 72 1D 02 0C 00 05 80 80  52 1D 03 0E 00 27 80 01  r.......R....'..
1D50: 72 1D 02 0C 00 06 80 80  62 1D 03 0E 00 27 80 01  r.......b....'..
1D60: 72 1D 02 0C 00 07 80 80  72 1D 03 0E 00 45 80 01  r.......r....E..
1D70: 72 1D 01 35 1E 02 01 00  01 80 80 85 1D 03 0E 00  r..5............
1D80: 46 80 01 35 1E 02 01 00  02 80 80 95 1D 03 0E 00  F..5............
1D90: 47 80 01 35 1E 02 01 00  03 80 80 A5 1D 03 0E 00  G..5............
1DA0: 25 80 01 35 1E 02 01 00  04 80 80 B5 1D 03 0E 00  %..5............
1DB0: 26 80 01 35 1E 02 01 00  05 80 80 C5 1D 03 0E 00  &..5............
1DC0: 48 80 01 35 1E 02 01 00  06 80 80 D5 1D 03 0E 00  H..5............
1DD0: 44 80 01 35 1E 02 01 00  07 80 80 E5 1D 03 0E 00  D..5............
1DE0: 44 80 01 35 1E 02 01 00  12 80 80 F5 1D 03 0E 00  D..5............
1DF0: 49 80 01 35 1E 02 01 00  13 80 80 05 1E 03 0E 00  I..5............
1E00: 4A 80 01 35 1E 02 01 00  14 80 80 15 1E 03 0E 00  J..5............
1E10: 4B 80 01 35 1E 02 01 00  1D 80 80 25 1E 03 0E 00  K..5.......%....
1E20: 4C 80 01 35 1E 02 01 00  1A 80 80 35 1E 03 0E 00  L..5.......5....
1E30: 4D 80 01 35 1E 01 38 1E  41 4E 80 1F 80 07 10 01  M..5..8.AN......
1E40: 00 02 01 00 13 80 80 60  1E 03 0F 00 4F 80 03 10  .......`....O...
1E50: 00 4F 80 03 11 00 4F 80  03 12 00 4F 80 01 4F 2B  .O....O....O..O+
1E60: 02 01 00 14 80 80 63 1F  02 0C 00 00 80 80 87 1E  ......c.........
1E70: 03 0F 00 50 80 03 10 00  50 80 03 11 00 50 80 03  ...P....P....P..
1E80: 12 00 50 80 01 60 1F 02  0C 00 01 80 80 A6 1E 03  ..P..`..........
1E90: 0F 00 51 80 03 10 00 51  80 03 11 00 51 80 03 12  ..Q....Q....Q...
1EA0: 00 51 80 01 60 1F 02 0C  00 02 80 80 C5 1E 03 0F  .Q..`...........
1EB0: 00 50 80 03 10 00 50 80  03 11 00 50 80 03 12 00  .P....P....P....
1EC0: 50 80 01 60 1F 02 0C 00  03 80 80 E4 1E 03 0F 00  P..`............
1ED0: 51 80 03 10 00 51 80 03  11 00 51 80 03 12 00 51  Q....Q....Q....Q
1EE0: 80 01 60 1F 02 0C 00 04  80 80 03 1F 03 0F 00 50  ..`............P
1EF0: 80 03 10 00 50 80 03 11  00 50 80 03 12 00 50 80  ....P....P....P.
1F00: 01 60 1F 02 0C 00 05 80  80 22 1F 03 0F 00 51 80  .`......."....Q.
1F10: 03 10 00 51 80 03 11 00  51 80 03 12 00 51 80 01  ...Q....Q....Q..
1F20: 60 1F 02 0C 00 06 80 80  41 1F 03 0F 00 51 80 03  `.......A....Q..
1F30: 10 00 51 80 03 11 00 51  80 03 12 00 51 80 01 60  ..Q....Q....Q..`
1F40: 1F 02 0C 00 07 80 80 60  1F 03 0F 00 50 80 03 10  .......`....P...
1F50: 00 50 80 03 11 00 50 80  03 12 00 50 80 01 60 1F  .P....P....P..`.
1F60: 01 4F 2B 02 01 00 1D 80  80 66 20 02 0C 00 00 80  .O+......f .....
1F70: 80 8A 1F 03 0F 00 45 80  03 10 00 45 80 03 11 00  ......E....E....
1F80: 45 80 03 12 00 45 80 01  63 20 02 0C 00 01 80 80  E....E..c ......
1F90: A9 1F 03 0F 00 27 80 03  10 00 27 80 03 11 00 27  .....'....'....'
1FA0: 80 03 12 00 27 80 01 63  20 02 0C 00 02 80 80 C8  ....'..c .......
1FB0: 1F 03 0F 00 45 80 03 10  00 45 80 03 11 00 45 80  ....E....E....E.
1FC0: 03 12 00 45 80 01 63 20  02 0C 00 03 80 80 E7 1F  ...E..c ........
1FD0: 03 0F 00 27 80 03 10 00  27 80 03 11 00 27 80 03  ...'....'....'..
1FE0: 12 00 27 80 01 63 20 02  0C 00 04 80 80 06 20 03  ..'..c ....... .
1FF0: 0F 00 45 80 03 10 00 45  80 03 11 00 45 80 03 12  ..E....E....E...
2000: 00 45 80 01 63 20 02 0C  00 05 80 80 25 20 03 0F  .E..c ......% ..
2010: 00 27 80 03 10 00 27 80  03 11 00 27 80 03 12 00  .'....'....'....
2020: 27 80 01 63 20 02 0C 00  06 80 80 44 20 03 0F 00  '..c ......D ...
2030: 27 80 03 10 00 27 80 03  11 00 27 80 03 12 00 27  '....'....'....'
2040: 80 01 63 20 02 0C 00 07  80 80 63 20 03 0F 00 45  ..c ......c ...E
2050: 80 03 10 00 45 80 03 11  00 45 80 03 12 00 45 80  ....E....E....E.
2060: 01 63 20 01 4F 2B 02 01  00 01 80 80 FA 20 02 0C  .c .O+....... ..
2070: 00 00 80 80 7E 20 03 0F  00 52 80 01 EE 20 02 0C  ....~ ...R... ..
2080: 00 01 80 80 8E 20 03 0F  00 53 80 01 EE 20 02 0C  ..... ...S... ..
2090: 00 02 80 80 9E 20 03 0F  00 52 80 01 EE 20 02 0C  ..... ...R... ..
20A0: 00 03 80 80 AE 20 03 0F  00 53 80 01 EE 20 02 0C  ..... ...S... ..
20B0: 00 04 80 80 BE 20 03 0F  00 52 80 01 EE 20 02 0C  ..... ...R... ..
20C0: 00 05 80 80 CE 20 03 0F  00 53 80 01 EE 20 02 0C  ..... ...S... ..
20D0: 00 06 80 80 DE 20 03 0F  00 53 80 01 EE 20 02 0C  ..... ...S... ..
20E0: 00 07 80 80 EE 20 03 0F  00 52 80 01 EE 20 1A F6  ..... ...R... ..
20F0: 19 1A 16 1A 1A 36 1A 01  4F 2B 02 01 00 02 80 80  .....6..O+......
2100: 8E 21 02 0C 00 00 80 80  12 21 03 0F 00 54 80 01  .!.......!...T..
2110: 82 21 02 0C 00 01 80 80  22 21 03 0F 00 55 80 01  .!......"!...U..
2120: 82 21 02 0C 00 02 80 80  32 21 03 0F 00 54 80 01  .!......2!...T..
2130: 82 21 02 0C 00 03 80 80  42 21 03 0F 00 55 80 01  .!......B!...U..
2140: 82 21 02 0C 00 04 80 80  52 21 03 0F 00 54 80 01  .!......R!...T..
2150: 82 21 02 0C 00 05 80 80  62 21 03 0F 00 55 80 01  .!......b!...U..
2160: 82 21 02 0C 00 06 80 80  72 21 03 0F 00 55 80 01  .!......r!...U..
2170: 82 21 02 0C 00 07 80 80  82 21 03 0F 00 54 80 01  .!.......!...T..
2180: 82 21 1A F6 19 1A 16 1A  1A 36 1A 01 4F 2B 02 01  .!.......6..O+..
2190: 00 07 80 80 22 22 02 0C  00 00 80 80 A6 21 03 0F  ...."".......!..
21A0: 00 56 80 01 16 22 02 0C  00 01 80 80 B6 21 03 0F  .V...".......!..
21B0: 00 57 80 01 16 22 02 0C  00 02 80 80 C6 21 03 0F  .W...".......!..
21C0: 00 56 80 01 16 22 02 0C  00 03 80 80 D6 21 03 0F  .V...".......!..
21D0: 00 57 80 01 16 22 02 0C  00 04 80 80 E6 21 03 0F  .W...".......!..
21E0: 00 56 80 01 16 22 02 0C  00 05 80 80 F6 21 03 0F  .V...".......!..
21F0: 00 57 80 01 16 22 02 0C  00 06 80 80 06 22 03 0F  .W..."......."..
2200: 00 57 80 01 16 22 02 0C  00 07 80 80 16 22 03 0F  .W..."......."..
2210: 00 56 80 01 16 22 1A F6  19 1A 16 1A 1A 36 1A 01  .V...".......6..
2220: 4F 2B 02 01 00 03 80 80  60 22 02 0C 00 05 80 00  O+......`"......
2230: 49 22 03 0F 00 58 80 03  10 00 58 80 03 11 00 58  I"...X....X....X
2240: 80 03 12 00 58 80 01 5D  22 03 0F 00 59 80 03 10  ....X..]"...Y...
2250: 00 59 80 03 11 00 59 80  03 12 00 59 80 01 4F 2B  .Y....Y....Y..O+
2260: 02 01 00 04 80 80 9E 22  02 0C 00 05 80 00 87 22  ......."......."
2270: 03 0F 00 5A 80 03 10 00  5A 80 03 11 00 5A 80 03  ...Z....Z....Z..
2280: 12 00 5A 80 01 9B 22 03  0F 00 5B 80 03 10 00 5B  ..Z..."...[....[
2290: 80 03 11 00 5B 80 03 12  00 5B 80 01 4F 2B 02 01  ....[....[..O+..
22A0: 00 12 80 80 DC 22 02 0C  00 05 80 00 C5 22 03 0F  ....."......."..
22B0: 00 5C 80 03 10 00 5C 80  03 11 00 5C 80 03 12 00  .\....\....\....
22C0: 5C 80 01 D9 22 03 0F 00  5D 80 03 10 00 5D 80 03  \..."...]....]..
22D0: 11 00 5D 80 03 12 00 5D  80 01 4F 2B 02 01 00 1A  ..]....]..O+....
22E0: 80 80 DF 23 02 0C 00 00  80 80 03 23 03 0F 00 47  ...#.......#...G
22F0: 80 03 10 00 47 80 03 11  00 47 80 03 12 00 47 80  ....G....G....G.
2300: 01 DC 23 02 0C 00 01 80  80 22 23 03 0F 00 5E 80  ..#......"#...^.
2310: 03 10 00 5E 80 03 11 00  5E 80 03 12 00 5E 80 01  ...^....^....^..
2320: DC 23 02 0C 00 02 80 80  41 23 03 0F 00 47 80 03  .#......A#...G..
2330: 10 00 47 80 03 11 00 47  80 03 12 00 47 80 01 DC  ..G....G....G...
2340: 23 02 0C 00 03 80 80 60  23 03 0F 00 5E 80 03 10  #......`#...^...
2350: 00 5E 80 03 11 00 5E 80  03 12 00 5E 80 01 DC 23  .^....^....^...#
2360: 02 0C 00 04 80 80 7F 23  03 0F 00 47 80 03 10 00  .......#...G....
2370: 47 80 03 11 00 47 80 03  12 00 47 80 01 DC 23 02  G....G....G...#.
2380: 0C 00 05 80 80 9E 23 03  0F 00 5E 80 03 10 00 5E  ......#...^....^
2390: 80 03 11 00 5E 80 03 12  00 5E 80 01 DC 23 02 0C  ....^....^...#..
23A0: 00 06 80 80 BD 23 03 0F  00 5E 80 03 10 00 5E 80  .....#...^....^.
23B0: 03 11 00 5E 80 03 12 00  5E 80 01 DC 23 02 0C 00  ...^....^...#...
23C0: 07 80 80 DC 23 03 0F 00  47 80 03 10 00 47 80 03  ....#...G....G..
23D0: 11 00 47 80 03 12 00 47  80 01 DC 23 01 4F 2B 02  ..G....G...#.O+.
23E0: 01 00 05 80 80 FD 23 03  0E 00 00 80 03 0F 00 5F  ......#........_
23F0: 80 1A F6 19 1A 16 1A 1A  36 1A 01 4F 2B 02 01 00  ........6..O+...
2400: 06 80 80 97 24 03 0F 00  42 80 03 10 00 44 80 03  ....$...B....D..
2410: 12 00 42 80 02 0C 00 00  80 80 24 24 03 11 00 54  ..B.......$$...T
2420: 80 01 94 24 02 0C 00 01  80 80 34 24 03 11 00 55  ...$......4$...U
2430: 80 01 94 24 02 0C 00 02  80 80 44 24 03 11 00 54  ...$......D$...T
2440: 80 01 94 24 02 0C 00 03  80 80 54 24 03 11 00 55  ...$......T$...U
2450: 80 01 94 24 02 0C 00 04  80 80 64 24 03 11 00 54  ...$......d$...T
2460: 80 01 94 24 02 0C 00 05  80 80 74 24 03 11 00 55  ...$......t$...U
2470: 80 01 94 24 02 0C 00 06  80 80 84 24 03 11 00 55  ...$.......$...U
2480: 80 01 94 24 02 0C 00 07  80 80 94 24 03 11 00 54  ...$.......$...T
2490: 80 01 94 24 01 4F 2B 02  01 00 15 80 80 B5 24 03  ...$.O+.......$.
24A0: 0E 00 60 80 03 0F 00 60  80 1A F6 19 1A 16 1A 1A  ..`....`........
24B0: 36 1A 01 4F 2B 02 01 00  1C 80 80 D3 24 03 0E 00  6..O+.......$...
24C0: 61 80 03 0F 00 61 80 1A  F6 19 1A 16 1A 1A 36 1A  a....a........6.
24D0: 01 4F 2B 02 01 00 1B 80  80 4F 2B 41 1E 80 1F 80  .O+......O+A....
24E0: 03 10 01 00 02 01 00 00  80 80 02 25 03 0E 00 62  ...........%...b
24F0: 80 03 0F 00 62 80 1A F6  19 1A 16 1A 1A 36 1A 01  ....b........6..
2500: 4C 2B 02 01 00 01 80 80  26 25 03 0E 00 24 80 03  L+......&%...$..
2510: 0F 00 63 80 03 10 00 63  80 03 11 00 63 80 03 12  ..c....c....c...
2520: 00 63 80 01 4C 2B 02 01  00 02 80 80 4A 25 03 0E  .c..L+......J%..
2530: 00 64 80 03 0F 00 64 80  03 10 00 64 80 03 11 00  .d....d....d....
2540: 64 80 03 12 00 64 80 01  4C 2B 02 01 00 06 80 80  d....d..L+......
2550: 6E 25 03 0E 00 65 80 03  0F 00 65 80 03 10 00 65  n%...e....e....e
2560: 80 03 11 00 65 80 03 12  00 65 80 01 4C 2B 02 01  ....e....e..L+..
2570: 00 07 80 80 71 26 02 0C  00 00 80 80 95 25 03 0F  ....q&.......%..
2580: 00 66 80 03 10 00 66 80  03 11 00 66 80 03 12 00  .f....f....f....
2590: 66 80 01 6E 26 02 0C 00  01 80 80 B4 25 03 0F 00  f..n&.......%...
25A0: 67 80 03 10 00 67 80 03  11 00 67 80 03 12 00 67  g....g....g....g
25B0: 80 01 6E 26 02 0C 00 02  80 80 D3 25 03 0F 00 66  ..n&.......%...f
25C0: 80 03 10 00 66 80 03 11  00 66 80 03 12 00 66 80  ....f....f....f.
25D0: 01 6E 26 02 0C 00 03 80  80 F2 25 03 0F 00 67 80  .n&.......%...g.
25E0: 03 10 00 67 80 03 11 00  67 80 03 12 00 67 80 01  ...g....g....g..
25F0: 6E 26 02 0C 00 04 80 80  11 26 03 0F 00 66 80 03  n&.......&...f..
2600: 10 00 66 80 03 11 00 66  80 03 12 00 66 80 01 6E  ..f....f....f..n
2610: 26 02 0C 00 05 80 80 30  26 03 0F 00 67 80 03 10  &......0&...g...
2620: 00 67 80 03 11 00 67 80  03 12 00 67 80 01 6E 26  .g....g....g..n&
2630: 02 0C 00 06 80 80 4F 26  03 0F 00 67 80 03 10 00  ......O&...g....
2640: 67 80 03 11 00 67 80 03  12 00 67 80 01 6E 26 02  g....g....g..n&.
2650: 0C 00 07 80 80 6E 26 03  0F 00 66 80 03 10 00 66  .....n&...f....f
2660: 80 03 11 00 66 80 03 12  00 66 80 01 6E 26 01 4C  ....f....f..n&.L
2670: 2B 02 01 00 03 80 80 2A  27 02 0C 00 00 80 80 8E  +......*'.......
2680: 26 03 0F 00 25 80 03 11  00 25 80 01 21 27 02 0C  &...%....%..!'..
2690: 00 01 80 80 A3 26 03 0F  00 26 80 03 11 00 26 80  .....&...&....&.
26A0: 01 21 27 02 0C 00 02 80  80 B8 26 03 0F 00 25 80  .!'.......&...%.
26B0: 03 11 00 25 80 01 21 27  02 0C 00 03 80 80 CD 26  ...%..!'.......&
26C0: 03 0F 00 26 80 03 11 00  26 80 01 21 27 02 0C 00  ...&....&..!'...
26D0: 04 80 80 E2 26 03 0F 00  25 80 03 11 00 25 80 01  ....&...%....%..
26E0: 21 27 02 0C 00 05 80 80  F7 26 03 0F 00 26 80 03  !'.......&...&..
26F0: 11 00 26 80 01 21 27 02  0C 00 06 80 80 0C 27 03  ..&..!'.......'.
2700: 0F 00 26 80 03 11 00 26  80 01 21 27 02 0C 00 07  ..&....&..!'....
2710: 80 80 21 27 03 0F 00 25  80 03 11 00 25 80 01 21  ..!'...%....%..!
2720: 27 1A F6 19 1A 36 1A 01  4C 2B 02 01 00 04 80 80  '....6..L+......
2730: 4E 27 03 0E 00 68 80 03  0F 00 68 80 03 10 00 68  N'...h....h....h
2740: 80 03 11 00 68 80 03 12  00 68 80 01 4C 2B 02 01  ....h....h..L+..
2750: 00 05 80 80 67 27 03 0F  00 69 80 1A F6 19 1A 16  ....g'...i......
2760: 1A 1A 36 1A 01 4C 2B 02  01 00 12 80 80 92 28 02  ..6..L+.......(.
2770: 0C 00 00 80 80 93 27 03  0E 00 6A 80 03 0F 00 6A  ......'...j....j
2780: 80 03 10 00 6A 80 03 11  00 6A 80 03 12 00 6A 80  ....j....j....j.
2790: 01 8F 28 02 0C 00 01 80  80 B7 27 03 0E 00 6B 80  ..(.......'...k.
27A0: 03 0F 00 6B 80 03 10 00  6B 80 03 11 00 6B 80 03  ...k....k....k..
27B0: 12 00 6B 80 01 8F 28 02  0C 00 02 80 80 DB 27 03  ..k...(.......'.
27C0: 0E 00 6A 80 03 0F 00 6A  80 03 10 00 6A 80 03 11  ..j....j....j...
27D0: 00 6A 80 03 12 00 6A 80  01 8F 28 02 0C 00 03 80  .j....j...(.....
27E0: 80 FF 27 03 0E 00 6B 80  03 0F 00 6B 80 03 10 00  ..'...k....k....
27F0: 6B 80 03 11 00 6B 80 03  12 00 6B 80 01 8F 28 02  k....k....k...(.
2800: 0C 00 04 80 80 23 28 03  0E 00 6A 80 03 0F 00 6A  .....#(...j....j
2810: 80 03 10 00 6A 80 03 11  00 6A 80 03 12 00 6A 80  ....j....j....j.
2820: 01 8F 28 02 0C 00 05 80  80 47 28 03 0E 00 6B 80  ..(......G(...k.
2830: 03 0F 00 6B 80 03 10 00  6B 80 03 11 00 6B 80 03  ...k....k....k..
2840: 12 00 6B 80 01 8F 28 02  0C 00 06 80 80 6B 28 03  ..k...(......k(.
2850: 0E 00 6B 80 03 0F 00 6B  80 03 10 00 6B 80 03 11  ..k....k....k...
2860: 00 6B 80 03 12 00 6B 80  01 8F 28 02 0C 00 07 80  .k....k...(.....
2870: 80 8F 28 03 0E 00 6A 80  03 0F 00 6A 80 03 10 00  ..(...j....j....
2880: 6A 80 03 11 00 6A 80 03  12 00 6A 80 01 8F 28 01  j....j....j...(.
2890: 4C 2B 02 01 00 13 80 80  B2 28 03 0E 00 6C 80 03  L+.......(...l..
28A0: 0F 00 6C 80 03 10 00 6C  80 1A 16 1A 1A 36 1A 01  ..l....l.....6..
28B0: 4C 2B 02 01 00 14 80 80  D6 28 03 0E 00 6D 80 03  L+.......(...m..
28C0: 0F 00 6D 80 03 10 00 6D  80 03 11 00 6D 80 03 12  ..m....m....m...
28D0: 00 6D 80 01 4C 2B 02 01  00 1D 80 80 EF 28 03 0F  .m..L+.......(..
28E0: 00 6E 80 1A F6 19 1A 16  1A 1A 36 1A 01 4C 2B 02  .n........6..L+.
28F0: 01 00 1A 80 80 08 29 03  0F 00 6F 80 1A F6 19 1A  ......)...o.....
2900: 16 1A 1A 36 1A 01 4C 2B  02 01 00 15 80 80 2C 29  ...6..L+......,)
2910: 03 0E 00 28 80 03 0F 00  28 80 03 10 00 28 80 03  ...(....(....(..
2920: 11 00 28 80 03 12 00 28  80 01 4C 2B 02 01 00 1C  ..(....(..L+....
2930: 80 80 45 29 03 0F 00 70  80 1A F6 19 1A 16 1A 1A  ..E)...p........
2940: 36 1A 01 4C 2B 02 01 00  1B 80 80 5E 29 03 0F 00  6..L+......^)...
2950: 71 80 1A F6 19 1A 16 1A  1A 36 1A 01 4C 2B 02 01  q........6..L+..
2960: 00 21 80 80 77 29 03 0F  00 72 80 1A F6 19 1A 16  .!..w)...r......
2970: 1A 1A 36 1A 01 4C 2B 02  01 00 73 80 80 90 29 03  ..6..L+...s...).
2980: 0F 00 74 80 1A F6 19 1A  16 1A 1A 36 1A 01 4C 2B  ..t........6..L+
2990: 02 01 00 16 80 80 49 2A  02 0C 00 00 80 80 AD 29  ......I*.......)
29A0: 03 0F 00 75 80 03 11 00  25 80 01 40 2A 02 0C 00  ...u....%..@*...
29B0: 01 80 80 C2 29 03 0F 00  76 80 03 11 00 26 80 01  ....)...v....&..
29C0: 40 2A 02 0C 00 02 80 80  D7 29 03 0F 00 75 80 03  @*.......)...u..
29D0: 11 00 25 80 01 40 2A 02  0C 00 03 80 80 EC 29 03  ..%..@*.......).
29E0: 0F 00 76 80 03 11 00 26  80 01 40 2A 02 0C 00 04  ..v....&..@*....
29F0: 80 80 01 2A 03 0F 00 75  80 03 11 00 25 80 01 40  ...*...u....%..@
2A00: 2A 02 0C 00 05 80 80 16  2A 03 0F 00 76 80 03 11  *.......*...v...
2A10: 00 26 80 01 40 2A 02 0C  00 06 80 80 2B 2A 03 0F  .&..@*......+*..
2A20: 00 76 80 03 11 00 26 80  01 40 2A 02 0C 00 07 80  .v....&..@*.....
2A30: 80 40 2A 03 0F 00 75 80  03 11 00 25 80 01 40 2A  .@*...u....%..@*
2A40: 1A F6 19 1A 36 1A 01 4C  2B 02 01 00 17 80 80 4C  ....6..L+......L
2A50: 2B 02 0C 00 00 80 80 70  2A 03 0F 00 77 80 03 10  +......p*...w...
2A60: 00 77 80 03 11 00 77 80  03 12 00 77 80 01 49 2B  .w....w....w..I+
2A70: 02 0C 00 01 80 80 8F 2A  03 0F 00 78 80 03 10 00  .......*...x....
2A80: 78 80 03 11 00 78 80 03  12 00 78 80 01 49 2B 02  x....x....x..I+.
2A90: 0C 00 02 80 80 AE 2A 03  0F 00 77 80 03 10 00 77  ......*...w....w
2AA0: 80 03 11 00 77 80 03 12  00 77 80 01 49 2B 02 0C  ....w....w..I+..
2AB0: 00 03 80 80 CD 2A 03 0F  00 78 80 03 10 00 78 80  .....*...x....x.
2AC0: 03 11 00 78 80 03 12 00  78 80 01 49 2B 02 0C 00  ...x....x..I+...
2AD0: 04 80 80 EC 2A 03 0F 00  77 80 03 10 00 77 80 03  ....*...w....w..
2AE0: 11 00 77 80 03 12 00 77  80 01 49 2B 02 0C 00 05  ..w....w..I+....
2AF0: 80 80 0B 2B 03 0F 00 78  80 03 10 00 78 80 03 11  ...+...x....x...
2B00: 00 78 80 03 12 00 78 80  01 49 2B 02 0C 00 06 80  .x....x..I+.....
2B10: 80 2A 2B 03 0F 00 78 80  03 10 00 78 80 03 11 00  .*+...x....x....
2B20: 78 80 03 12 00 78 80 01  49 2B 02 0C 00 07 80 80  x....x..I+......
2B30: 49 2B 03 0F 00 77 80 03  10 00 77 80 03 11 00 77  I+...w....w....w
2B40: 80 03 12 00 77 80 01 49  2B 01 4C 2B 01 4F 2B 1B  ....w..I+.L+.O+.
2B50: 02 09 00 01 80 80 FB 2B  02 17 00 00 80 80 68 2B  .......+......h+
2B60: 03 0E 00 00 80 01 F8 2B  02 17 00 01 80 80 78 2B  .......+......x+
2B70: 03 0E 00 01 80 01 F8 2B  02 17 00 02 80 80 88 2B  .......+.......+
2B80: 03 0E 00 79 80 01 F8 2B  02 17 00 03 80 80 98 2B  ...y...+.......+
2B90: 03 0E 00 7A 80 01 F8 2B  02 17 00 04 80 80 A8 2B  ...z...+.......+
2BA0: 03 0E 00 05 80 01 F8 2B  02 17 00 05 80 80 B8 2B  .......+.......+
2BB0: 03 0E 00 7B 80 01 F8 2B  02 17 00 06 80 80 C8 2B  ...{...+.......+
2BC0: 03 0E 00 07 80 01 F8 2B  02 17 00 07 80 80 D8 2B  .......+.......+
2BD0: 03 0E 00 11 80 01 F8 2B  02 17 00 12 80 80 E8 2B  .......+.......+
2BE0: 03 0E 00 7C 80 01 F8 2B  02 17 00 13 80 80 F8 2B  ...|...+.......+
2BF0: 03 0E 00 7D 80 01 F8 2B  01 54 33 02 09 00 02 80  ...}...+.T3.....
2C00: 80 A6 2C 02 17 00 00 80  80 13 2C 03 0E 00 00 80  ..,.......,.....
2C10: 01 A3 2C 02 17 00 01 80  80 23 2C 03 0E 00 73 80  ..,......#,...s.
2C20: 01 A3 2C 02 17 00 02 80  80 33 2C 03 0E 00 02 80  ..,......3,.....
2C30: 01 A3 2C 02 17 00 03 80  80 43 2C 03 0E 00 13 80  ..,......C,.....
2C40: 01 A3 2C 02 17 00 04 80  80 53 2C 03 0E 00 7E 80  ..,......S,...~.
2C50: 01 A3 2C 02 17 00 05 80  80 63 2C 03 0E 00 7A 80  ..,......c,...z.
2C60: 01 A3 2C 02 17 00 06 80  80 73 2C 03 0E 00 19 80  ..,......s,.....
2C70: 01 A3 2C 02 17 00 07 80  80 83 2C 03 0E 00 7F 80  ..,.......,.....
2C80: 01 A3 2C 02 17 00 12 80  80 93 2C 03 0E 00 80 80  ..,.......,.....
2C90: 01 A3 2C 02 17 00 13 80  80 A3 2C 03 0E 00 81 80  ..,.......,.....
2CA0: 01 A3 2C 01 54 33 02 09  00 03 80 80 51 2D 02 17  ..,.T3......Q-..
2CB0: 00 00 80 80 BE 2C 03 0E  00 00 80 01 4E 2D 02 17  .....,......N-..
2CC0: 00 01 80 80 CE 2C 03 0E  00 05 80 01 4E 2D 02 17  .....,......N-..
2CD0: 00 02 80 80 DE 2C 03 0E  00 21 80 01 4E 2D 02 17  .....,...!..N-..
2CE0: 00 03 80 80 EE 2C 03 0E  00 20 80 01 4E 2D 02 17  .....,... ..N-..
2CF0: 00 04 80 80 FE 2C 03 0E  00 82 80 01 4E 2D 02 17  .....,......N-..
2D00: 00 05 80 80 0E 2D 03 0E  00 80 80 01 4E 2D 02 17  .....-......N-..
2D10: 00 06 80 80 1E 2D 03 0E  00 83 80 01 4E 2D 02 17  .....-......N-..
2D20: 00 07 80 80 2E 2D 03 0E  00 84 80 01 4E 2D 02 17  .....-......N-..
2D30: 00 12 80 80 3E 2D 03 0E  00 85 80 01 4E 2D 02 17  ....>-......N-..
2D40: 00 13 80 80 4E 2D 03 0E  00 86 80 01 4E 2D 01 54  ....N-......N-.T
2D50: 33 02 09 00 04 80 80 FC  2D 02 17 00 00 80 80 69  3.......-......i
2D60: 2D 03 0E 00 00 80 01 F9  2D 02 17 00 01 80 80 79  -.......-......y
2D70: 2D 03 0E 00 4E 80 01 F9  2D 02 17 00 02 80 80 89  -...N...-.......
2D80: 2D 03 0E 00 16 80 01 F9  2D 02 17 00 03 80 80 99  -.......-.......
2D90: 2D 03 0E 00 87 80 01 F9  2D 02 17 00 04 80 80 A9  -.......-.......
2DA0: 2D 03 0E 00 88 80 01 F9  2D 02 17 00 05 80 80 B9  -.......-.......
2DB0: 2D 03 0E 00 1A 80 01 F9  2D 02 17 00 06 80 80 C9  -.......-.......
2DC0: 2D 03 0E 00 89 80 01 F9  2D 02 17 00 07 80 80 D9  -.......-.......
2DD0: 2D 03 0E 00 05 80 01 F9  2D 02 17 00 12 80 80 E9  -.......-.......
2DE0: 2D 03 0E 00 1E 80 01 F9  2D 02 17 00 13 80 80 F9  -.......-.......
2DF0: 2D 03 0E 00 8A 80 01 F9  2D 01 54 33 02 09 00 05  -.......-.T3....
2E00: 80 80 A7 2E 02 17 00 00  80 80 14 2E 03 0E 00 00  ................
2E10: 80 01 A4 2E 02 17 00 01  80 80 24 2E 03 0E 00 18  ..........$.....
2E20: 80 01 A4 2E 02 17 00 02  80 80 34 2E 03 0E 00 7A  ..........4....z
2E30: 80 01 A4 2E 02 17 00 03  80 80 44 2E 03 0E 00 8B  ..........D.....
2E40: 80 01 A4 2E 02 17 00 04  80 80 54 2E 03 0E 00 17  ..........T.....
2E50: 80 01 A4 2E 02 17 00 05  80 80 64 2E 03 0E 00 19  ..........d.....
2E60: 80 01 A4 2E 02 17 00 06  80 80 74 2E 03 0E 00 05  ..........t.....
2E70: 80 01 A4 2E 02 17 00 07  80 80 84 2E 03 0E 00 15  ................
2E80: 80 01 A4 2E 02 17 00 12  80 80 94 2E 03 0E 00 8C  ................
2E90: 80 01 A4 2E 02 17 00 13  80 80 A4 2E 03 0E 00 86  ................
2EA0: 80 01 A4 2E 01 54 33 02  09 00 06 80 80 52 2F 02  .....T3......R/.
2EB0: 17 00 00 80 80 BF 2E 03  0E 00 00 80 01 4F 2F 02  .............O/.
2EC0: 17 00 01 80 80 CF 2E 03  0E 00 8D 80 01 4F 2F 02  .............O/.
2ED0: 17 00 02 80 80 DF 2E 03  0E 00 22 80 01 4F 2F 02  .........."..O/.
2EE0: 17 00 03 80 80 EF 2E 03  0E 00 7E 80 01 4F 2F 02  ..........~..O/.
2EF0: 17 00 04 80 80 FF 2E 03  0E 00 8E 80 01 4F 2F 02  .............O/.
2F00: 17 00 05 80 80 0F 2F 03  0E 00 8B 80 01 4F 2F 02  ....../......O/.
2F10: 17 00 06 80 80 1F 2F 03  0E 00 8F 80 01 4F 2F 02  ....../......O/.
2F20: 17 00 07 80 80 2F 2F 03  0E 00 16 80 01 4F 2F 02  .....//......O/.
2F30: 17 00 12 80 80 3F 2F 03  0E 00 04 80 01 4F 2F 02  .....?/......O/.
2F40: 17 00 13 80 80 4F 2F 03  0E 00 8A 80 01 4F 2F 01  .....O/......O/.
2F50: 54 33 02 09 00 07 80 80  FD 2F 02 17 00 00 80 80  T3......./......
2F60: 6A 2F 03 0E 00 00 80 01  FA 2F 02 17 00 01 80 80  j/......./......
2F70: 7A 2F 03 0E 00 90 80 01  FA 2F 02 17 00 02 80 80  z/......./......
2F80: 8A 2F 03 0E 00 17 80 01  FA 2F 02 17 00 03 80 80  ./......./......
2F90: 9A 2F 03 0E 00 18 80 01  FA 2F 02 17 00 04 80 80  ./......./......
2FA0: AA 2F 03 0E 00 87 80 01  FA 2F 02 17 00 05 80 80  ./......./......
2FB0: BA 2F 03 0E 00 15 80 01  FA 2F 02 17 00 06 80 80  ./......./......
2FC0: CA 2F 03 0E 00 7A 80 01  FA 2F 02 17 00 07 80 80  ./...z.../......
2FD0: DA 2F 03 0E 00 22 80 01  FA 2F 02 17 00 12 80 80  ./...".../......
2FE0: EA 2F 03 0E 00 91 80 01  FA 2F 02 17 00 13 80 80  ./......./......
2FF0: FA 2F 03 0E 00 86 80 01  FA 2F 01 54 33 02 09 00  ./......./.T3...
3000: 12 80 80 A8 30 02 17 00  00 80 80 15 30 03 0E 00  ....0.......0...
3010: 00 80 01 A5 30 02 17 00  01 80 80 25 30 03 0E 00  ....0......%0...
3020: 92 80 01 A5 30 02 17 00  02 80 80 35 30 03 0E 00  ....0......50...
3030: 1B 80 01 A5 30 02 17 00  03 80 80 45 30 03 0E 00  ....0......E0...
3040: 16 80 01 A5 30 02 17 00  04 80 80 55 30 03 0E 00  ....0......U0...
3050: 7A 80 01 A5 30 02 17 00  05 80 80 65 30 03 0E 00  z...0......e0...
3060: 18 80 01 A5 30 02 17 00  06 80 80 75 30 03 0E 00  ....0......u0...
3070: 87 80 01 A5 30 02 17 00  07 80 80 85 30 03 0E 00  ....0.......0...
3080: 07 80 01 A5 30 02 17 00  12 80 80 95 30 03 0E 00  ....0.......0...
3090: 17 80 01 A5 30 02 17 00  13 80 80 A5 30 03 0E 00  ....0.......0...
30A0: 81 80 01 A5 30 01 54 33  02 09 00 13 80 80 53 31  ....0.T3......S1
30B0: 02 17 00 00 80 80 C0 30  03 0E 00 00 80 01 50 31  .......0......P1
30C0: 02 17 00 01 80 80 D0 30  03 0E 00 1B 80 01 50 31  .......0......P1
30D0: 02 17 00 02 80 80 E0 30  03 0E 00 4E 80 01 50 31  .......0...N..P1
30E0: 02 17 00 03 80 80 F0 30  03 0E 00 88 80 01 50 31  .......0......P1
30F0: 02 17 00 04 80 80 00 31  03 0E 00 16 80 01 50 31  .......1......P1
3100: 02 17 00 05 80 80 10 31  03 0E 00 87 80 01 50 31  .......1......P1
3110: 02 17 00 06 80 80 20 31  03 0E 00 93 80 01 50 31  ...... 1......P1
3120: 02 17 00 07 80 80 30 31  03 0E 00 1A 80 01 50 31  ......01......P1
3130: 02 17 00 12 80 80 40 31  03 0E 00 94 80 01 50 31  ......@1......P1
3140: 02 17 00 13 80 80 50 31  03 0E 00 8A 80 01 50 31  ......P1......P1
3150: 01 54 33 02 09 00 14 80  80 FE 31 02 17 00 00 80  .T3.......1.....
3160: 80 6B 31 03 0E 00 00 80  01 FB 31 02 17 00 01 80  .k1.......1.....
3170: 80 7B 31 03 0E 00 06 80  01 FB 31 02 17 00 02 80  .{1.......1.....
3180: 80 8B 31 03 0E 00 8D 80  01 FB 31 02 17 00 03 80  ..1.......1.....
3190: 80 9B 31 03 0E 00 87 80  01 FB 31 02 17 00 04 80  ..1.......1.....
31A0: 80 AB 31 03 0E 00 7A 80  01 FB 31 02 17 00 05 80  ..1...z...1.....
31B0: 80 BB 31 03 0E 00 04 80  01 FB 31 02 17 00 06 80  ..1.......1.....
31C0: 80 CB 31 03 0E 00 16 80  01 FB 31 02 17 00 07 80  ..1.......1.....
31D0: 80 DB 31 03 0E 00 8E 80  01 FB 31 02 17 00 12 80  ..1.......1.....
31E0: 80 EB 31 03 0E 00 95 80  01 FB 31 02 17 00 13 80  ..1.......1.....
31F0: 80 FB 31 03 0E 00 81 80  01 FB 31 01 54 33 02 09  ..1.......1.T3..
3200: 00 1D 80 80 A9 32 02 17  00 00 80 80 16 32 03 0E  .....2.......2..
3210: 00 00 80 01 A6 32 02 17  00 01 80 80 26 32 03 0E  .....2......&2..
3220: 00 7A 80 01 A6 32 02 17  00 02 80 80 36 32 03 0E  .z...2......62..
3230: 00 88 80 01 A6 32 02 17  00 03 80 80 46 32 03 0E  .....2......F2..
3240: 00 05 80 01 A6 32 02 17  00 04 80 80 56 32 03 0E  .....2......V2..
3250: 00 84 80 01 A6 32 02 17  00 05 80 80 66 32 03 0E  .....2......f2..
3260: 00 8B 80 01 A6 32 02 17  00 06 80 80 76 32 03 0E  .....2......v2..
3270: 00 91 80 01 A6 32 02 17  00 07 80 80 86 32 03 0E  .....2.......2..
3280: 00 20 80 01 A6 32 02 17  00 12 80 80 96 32 03 0E  . ...2.......2..
3290: 00 96 80 01 A6 32 02 17  00 13 80 80 A6 32 03 0E  .....2.......2..
32A0: 00 7D 80 01 A6 32 01 54  33 02 09 00 1A 80 80 54  .}...2.T3......T
32B0: 33 02 17 00 00 80 80 C1  32 03 0E 00 00 80 01 51  3.......2......Q
32C0: 33 02 17 00 01 80 80 D1  32 03 0E 00 1C 80 01 51  3.......2......Q
32D0: 33 02 17 00 02 80 80 E1  32 03 0E 00 1A 80 01 51  3.......2......Q
32E0: 33 02 17 00 03 80 80 F1  32 03 0E 00 21 80 01 51  3.......2...!..Q
32F0: 33 02 17 00 04 80 80 01  33 03 0E 00 04 80 01 51  3.......3......Q
3300: 33 02 17 00 05 80 80 11  33 03 0E 00 83 80 01 51  3.......3......Q
3310: 33 02 17 00 06 80 80 21  33 03 0E 00 1E 80 01 51  3......!3......Q
3320: 33 02 17 00 07 80 80 31  33 03 0E 00 97 80 01 51  3......13......Q
3330: 33 02 17 00 12 80 80 41  33 03 0E 00 98 80 01 51  3......A3......Q
3340: 33 02 17 00 13 80 80 51  33 03 0E 00 7D 80 01 51  3......Q3...}..Q
3350: 33 01 54 33 1B 02 16 00  00 80 80 20 34 02 17 00  3.T3....... 4...
3360: 00 80 80 6D 33 03 0F 00  4E 80 01 1D 34 02 17 00  ...m3...N...4...
3370: 01 80 80 7D 33 03 0F 00  02 80 01 1D 34 02 17 00  ...}3.......4...
3380: 02 80 80 8D 33 03 0F 00  7B 80 01 1D 34 02 17 00  ....3...{...4...
3390: 03 80 80 9D 33 03 0F 00  99 80 01 1D 34 02 17 00  ....3.......4...
33A0: 04 80 80 AD 33 03 0F 00  82 80 01 1D 34 02 17 00  ....3.......4...
33B0: 05 80 80 BD 33 03 0F 00  3E 80 01 1D 34 02 17 00  ....3...>...4...
33C0: 06 80 80 CD 33 03 0F 00  13 80 01 1D 34 02 17 00  ....3.......4...
33D0: 07 80 80 DD 33 03 0F 00  80 80 01 1D 34 02 17 00  ....3.......4...
33E0: 12 80 80 ED 33 03 0F 00  85 80 01 1D 34 02 17 00  ....3.......4...
33F0: 13 80 80 FD 33 03 0F 00  98 80 01 1D 34 02 17 00  ....3.......4...
3400: 14 80 80 0D 34 03 0F 00  9A 80 01 1D 34 02 17 00  ....4.......4...
3410: 1D 80 80 1D 34 03 0F 00  97 80 01 1D 34 01 81 36  ....4.......4..6
3420: 02 16 00 01 80 80 EB 34  02 17 00 00 80 80 38 34  .......4......84
3430: 03 0F 00 06 80 01 E8 34  02 17 00 01 80 80 48 34  .......4......H4
3440: 03 0F 00 05 80 01 E8 34  02 17 00 02 80 80 58 34  .......4......X4
3450: 03 0F 00 79 80 01 E8 34  02 17 00 03 80 80 68 34  ...y...4......h4
3460: 03 0F 00 73 80 01 E8 34  02 17 00 04 80 80 78 34  ...s...4......x4
3470: 03 0F 00 88 80 01 E8 34  02 17 00 05 80 80 88 34  .......4.......4
3480: 03 0F 00 1A 80 01 E8 34  02 17 00 06 80 80 98 34  .......4.......4
3490: 03 0F 00 07 80 01 E8 34  02 17 00 07 80 80 A8 34  .......4.......4
34A0: 03 0F 00 04 80 01 E8 34  02 17 00 12 80 80 B8 34  .......4.......4
34B0: 03 0F 00 15 80 01 E8 34  02 17 00 13 80 80 C8 34  .......4.......4
34C0: 03 0F 00 20 80 01 E8 34  02 17 00 14 80 80 D8 34  ... ...4.......4
34D0: 03 0F 00 84 80 01 E8 34  02 17 00 1D 80 80 E8 34  .......4.......4
34E0: 03 0F 00 96 80 01 E8 34  01 81 36 02 16 00 02 80  .......4..6.....
34F0: 80 B6 35 02 17 00 00 80  80 03 35 03 0F 00 22 80  ..5.......5...".
3500: 01 B3 35 02 17 00 01 80  80 13 35 03 0F 00 7A 80  ..5.......5...z.
3510: 01 B3 35 02 17 00 02 80  80 23 35 03 0F 00 90 80  ..5......#5.....
3520: 01 B3 35 02 17 00 03 80  80 33 35 03 0F 00 19 80  ..5......35.....
3530: 01 B3 35 02 17 00 04 80  80 43 35 03 0F 00 16 80  ..5......C5.....
3540: 01 B3 35 02 17 00 05 80  80 53 35 03 0F 00 10 80  ..5......S5.....
3550: 01 B3 35 02 17 00 06 80  80 63 35 03 0F 00 17 80  ..5......c5.....
3560: 01 B3 35 02 17 00 07 80  80 73 35 03 0F 00 9B 80  ..5......s5.....
3570: 01 B3 35 02 17 00 12 80  80 83 35 03 0F 00 7C 80  ..5.......5...|.
3580: 01 B3 35 02 17 00 13 80  80 93 35 03 0F 00 8C 80  ..5.......5.....
3590: 01 B3 35 02 17 00 14 80  80 A3 35 03 0F 00 94 80  ..5.......5.....
35A0: 01 B3 35 02 17 00 1D 80  80 B3 35 03 0F 00 43 80  ..5.......5...C.
35B0: 01 B3 35 01 81 36 02 16  00 03 80 80 81 36 02 17  ..5..6.......6..
35C0: 00 00 80 80 CE 35 03 0F  00 12 80 01 7E 36 02 17  .....5......~6..
35D0: 00 01 80 80 DE 35 03 0F  00 9C 80 01 7E 36 02 17  .....5......~6..
35E0: 00 02 80 80 EE 35 03 0F  00 1B 80 01 7E 36 02 17  .....5......~6..
35F0: 00 03 80 80 FE 35 03 0F  00 1F 80 01 7E 36 02 17  .....5......~6..
3600: 00 04 80 80 0E 36 03 0F  00 9D 80 01 7E 36 02 17  .....6......~6..
3610: 00 05 80 80 1E 36 03 0F  00 92 80 01 7E 36 02 17  .....6......~6..
3620: 00 06 80 80 2E 36 03 0F  00 9E 80 01 7E 36 02 17  .....6......~6..
3630: 00 07 80 80 3E 36 03 0F  00 8E 80 01 7E 36 02 17  ....>6......~6..
3640: 00 12 80 80 4E 36 03 0F  00 93 80 01 7E 36 02 17  ....N6......~6..
3650: 00 13 80 80 5E 36 03 0F  00 89 80 01 7E 36 02 17  ....^6......~6..
3660: 00 14 80 80 6E 36 03 0F  00 95 80 01 7E 36 02 17  ....n6......~6..
3670: 00 1D 80 80 7E 36 03 0F  00 9F 80 01 7E 36 01 81  ....~6......~6..
3680: 36 1B 02 16 00 00 80 80  4D 37 02 17 00 00 80 80  6.......M7......
3690: 9A 36 03 10 00 4E 80 01  4A 37 02 17 00 01 80 80  .6...N..J7......
36A0: AA 36 03 10 00 02 80 01  4A 37 02 17 00 02 80 80  .6......J7......
36B0: BA 36 03 10 00 7B 80 01  4A 37 02 17 00 03 80 80  .6...{..J7......
36C0: CA 36 03 10 00 99 80 01  4A 37 02 17 00 04 80 80  .6......J7......
36D0: DA 36 03 10 00 82 80 01  4A 37 02 17 00 05 80 80  .6......J7......
36E0: EA 36 03 10 00 3E 80 01  4A 37 02 17 00 06 80 80  .6...>..J7......
36F0: FA 36 03 10 00 13 80 01  4A 37 02 17 00 07 80 80  .6......J7......
3700: 0A 37 03 10 00 80 80 01  4A 37 02 17 00 12 80 80  .7......J7......
3710: 1A 37 03 10 00 85 80 01  4A 37 02 17 00 13 80 80  .7......J7......
3720: 2A 37 03 10 00 98 80 01  4A 37 02 17 00 14 80 80  *7......J7......
3730: 3A 37 03 10 00 9A 80 01  4A 37 02 17 00 1D 80 80  :7......J7......
3740: 4A 37 03 10 00 97 80 01  4A 37 01 AE 39 02 16 00  J7......J7..9...
3750: 01 80 80 18 38 02 17 00  00 80 80 65 37 03 10 00  ....8......e7...
3760: 06 80 01 15 38 02 17 00  01 80 80 75 37 03 10 00  ....8......u7...
3770: 05 80 01 15 38 02 17 00  02 80 80 85 37 03 10 00  ....8.......7...
3780: 79 80 01 15 38 02 17 00  03 80 80 95 37 03 10 00  y...8.......7...
3790: 73 80 01 15 38 02 17 00  04 80 80 A5 37 03 10 00  s...8.......7...
37A0: 88 80 01 15 38 02 17 00  05 80 80 B5 37 03 10 00  ....8.......7...
37B0: 1A 80 01 15 38 02 17 00  06 80 80 C5 37 03 10 00  ....8.......7...
37C0: 07 80 01 15 38 02 17 00  07 80 80 D5 37 03 10 00  ....8.......7...
37D0: 04 80 01 15 38 02 17 00  12 80 80 E5 37 03 10 00  ....8.......7...
37E0: 15 80 01 15 38 02 17 00  13 80 80 F5 37 03 10 00  ....8.......7...
37F0: 20 80 01 15 38 02 17 00  14 80 80 05 38 03 10 00   ...8.......8...
3800: 84 80 01 15 38 02 17 00  1D 80 80 15 38 03 10 00  ....8.......8...
3810: 96 80 01 15 38 01 AE 39  02 16 00 02 80 80 E3 38  ....8..9.......8
3820: 02 17 00 00 80 80 30 38  03 10 00 22 80 01 E0 38  ......08..."...8
3830: 02 17 00 01 80 80 40 38  03 10 00 7A 80 01 E0 38  ......@8...z...8
3840: 02 17 00 02 80 80 50 38  03 10 00 90 80 01 E0 38  ......P8.......8
3850: 02 17 00 03 80 80 60 38  03 10 00 19 80 01 E0 38  ......`8.......8
3860: 02 17 00 04 80 80 70 38  03 10 00 16 80 01 E0 38  ......p8.......8
3870: 02 17 00 05 80 80 80 38  03 10 00 18 80 01 E0 38  .......8.......8
3880: 02 17 00 06 80 80 90 38  03 10 00 17 80 01 E0 38  .......8.......8
3890: 02 17 00 07 80 80 A0 38  03 10 00 1D 80 01 E0 38  .......8.......8
38A0: 02 17 00 12 80 80 B0 38  03 10 00 7C 80 01 E0 38  .......8...|...8
38B0: 02 17 00 13 80 80 C0 38  03 10 00 8C 80 01 E0 38  .......8.......8
38C0: 02 17 00 14 80 80 D0 38  03 10 00 94 80 01 E0 38  .......8.......8
38D0: 02 17 00 1D 80 80 E0 38  03 10 00 43 80 01 E0 38  .......8...C...8
38E0: 01 AE 39 02 16 00 03 80  80 AE 39 02 17 00 00 80  ..9.......9.....
38F0: 80 FB 38 03 10 00 12 80  01 AB 39 02 17 00 01 80  ..8.......9.....
3900: 80 0B 39 03 10 00 A0 80  01 AB 39 02 17 00 02 80  ..9.......9.....
3910: 80 1B 39 03 10 00 00 80  01 AB 39 02 17 00 03 80  ..9.......9.....
3920: 80 2B 39 03 10 00 1F 80  01 AB 39 02 17 00 04 80  .+9.......9.....
3930: 80 3B 39 03 10 00 9C 80  01 AB 39 02 17 00 05 80  .;9.......9.....
3940: 80 4B 39 03 10 00 A1 80  01 AB 39 02 17 00 06 80  .K9.......9.....
3950: 80 5B 39 03 10 00 1E 80  01 AB 39 02 17 00 07 80  .[9.......9.....
3960: 80 6B 39 03 10 00 8E 80  01 AB 39 02 17 00 12 80  .k9.......9.....
3970: 80 7B 39 03 10 00 03 80  01 AB 39 02 17 00 13 80  .{9.......9.....
3980: 80 8B 39 03 10 00 1B 80  01 AB 39 02 17 00 14 80  ..9.......9.....
3990: 80 9B 39 03 10 00 95 80  01 AB 39 02 17 00 1D 80  ..9.......9.....
39A0: 80 AB 39 03 10 00 9F 80  01 AB 39 01 AE 39 1B 02  ..9.......9..9..
39B0: 16 00 00 80 80 7A 3A 02  17 00 00 80 80 C7 39 03  .....z:.......9.
39C0: 11 00 4E 80 01 77 3A 02  17 00 01 80 80 D7 39 03  ..N..w:.......9.
39D0: 11 00 02 80 01 77 3A 02  17 00 02 80 80 E7 39 03  .....w:.......9.
39E0: 11 00 7B 80 01 77 3A 02  17 00 03 80 80 F7 39 03  ..{..w:.......9.
39F0: 11 00 99 80 01 77 3A 02  17 00 04 80 80 07 3A 03  .....w:.......:.
3A00: 11 00 7D 80 01 77 3A 02  17 00 05 80 80 17 3A 03  ..}..w:.......:.
3A10: 11 00 3E 80 01 77 3A 02  17 00 06 80 80 27 3A 03  ..>..w:......':.
3A20: 11 00 13 80 01 77 3A 02  17 00 07 80 80 37 3A 03  .....w:......7:.
3A30: 11 00 86 80 01 77 3A 02  17 00 12 80 80 47 3A 03  .....w:......G:.
3A40: 11 00 85 80 01 77 3A 02  17 00 13 80 80 57 3A 03  .....w:......W:.
3A50: 11 00 98 80 01 77 3A 02  17 00 14 80 80 67 3A 03  .....w:......g:.
3A60: 11 00 9A 80 01 77 3A 02  17 00 1D 80 80 77 3A 03  .....w:......w:.
3A70: 11 00 97 80 01 77 3A 01  DB 3C 02 16 00 01 80 80  .....w:..<......
3A80: 45 3B 02 17 00 00 80 80  92 3A 03 11 00 06 80 01  E;.......:......
3A90: 42 3B 02 17 00 01 80 80  A2 3A 03 11 00 05 80 01  B;.......:......
3AA0: 42 3B 02 17 00 02 80 80  B2 3A 03 11 00 79 80 01  B;.......:...y..
3AB0: 42 3B 02 17 00 03 80 80  C2 3A 03 11 00 73 80 01  B;.......:...s..
3AC0: 42 3B 02 17 00 04 80 80  D2 3A 03 11 00 88 80 01  B;.......:......
3AD0: 42 3B 02 17 00 05 80 80  E2 3A 03 11 00 1A 80 01  B;.......:......
3AE0: 42 3B 02 17 00 06 80 80  F2 3A 03 11 00 07 80 01  B;.......:......
3AF0: 42 3B 02 17 00 07 80 80  02 3B 03 11 00 04 80 01  B;.......;......
3B00: 42 3B 02 17 00 12 80 80  12 3B 03 11 00 15 80 01  B;.......;......
3B10: 42 3B 02 17 00 13 80 80  22 3B 03 11 00 20 80 01  B;......";... ..
3B20: 42 3B 02 17 00 14 80 80  32 3B 03 11 00 84 80 01  B;......2;......
3B30: 42 3B 02 17 00 1D 80 80  42 3B 03 11 00 96 80 01  B;......B;......
3B40: 42 3B 01 DB 3C 02 16 00  02 80 80 10 3C 02 17 00  B;..<.......<...
3B50: 00 80 80 5D 3B 03 11 00  22 80 01 0D 3C 02 17 00  ...];..."...<...
3B60: 01 80 80 6D 3B 03 11 00  7A 80 01 0D 3C 02 17 00  ...m;...z...<...
3B70: 02 80 80 7D 3B 03 11 00  90 80 01 0D 3C 02 17 00  ...};.......<...
3B80: 03 80 80 8D 3B 03 11 00  19 80 01 0D 3C 02 17 00  ....;.......<...
3B90: 04 80 80 9D 3B 03 11 00  16 80 01 0D 3C 02 17 00  ....;.......<...
3BA0: 05 80 80 AD 3B 03 11 00  18 80 01 0D 3C 02 17 00  ....;.......<...
3BB0: 06 80 80 BD 3B 03 11 00  17 80 01 0D 3C 02 17 00  ....;.......<...
3BC0: 07 80 80 CD 3B 03 11 00  1D 80 01 0D 3C 02 17 00  ....;.......<...
3BD0: 12 80 80 DD 3B 03 11 00  7C 80 01 0D 3C 02 17 00  ....;...|...<...
3BE0: 13 80 80 ED 3B 03 11 00  8C 80 01 0D 3C 02 17 00  ....;.......<...
3BF0: 14 80 80 FD 3B 03 11 00  94 80 01 0D 3C 02 17 00  ....;.......<...
3C00: 1D 80 80 0D 3C 03 11 00  43 80 01 0D 3C 01 DB 3C  ....<...C...<..<
3C10: 02 16 00 03 80 80 DB 3C  02 17 00 00 80 80 28 3C  .......<......(<
3C20: 03 11 00 12 80 01 D8 3C  02 17 00 01 80 80 38 3C  .......<......8<
3C30: 03 11 00 A2 80 01 D8 3C  02 17 00 02 80 80 48 3C  .......<......H<
3C40: 03 11 00 1B 80 01 D8 3C  02 17 00 03 80 80 58 3C  .......<......X<
3C50: 03 11 00 1F 80 01 D8 3C  02 17 00 04 80 80 68 3C  .......<......h<
3C60: 03 11 00 A0 80 01 D8 3C  02 17 00 05 80 80 78 3C  .......<......x<
3C70: 03 11 00 8D 80 01 D8 3C  02 17 00 06 80 80 88 3C  .......<.......<
3C80: 03 11 00 1E 80 01 D8 3C  02 17 00 07 80 80 98 3C  .......<.......<
3C90: 03 11 00 8E 80 01 D8 3C  02 17 00 12 80 80 A8 3C  .......<.......<
3CA0: 03 11 00 03 80 01 D8 3C  02 17 00 13 80 80 B8 3C  .......<.......<
3CB0: 03 11 00 93 80 01 D8 3C  02 17 00 14 80 80 C8 3C  .......<.......<
3CC0: 03 11 00 95 80 01 D8 3C  02 17 00 1D 80 80 D8 3C  .......<.......<
3CD0: 03 11 00 9F 80 01 D8 3C  01 DB 3C 1B 02 16 00 00  .......<..<.....
3CE0: 80 80 A7 3D 02 17 00 00  80 80 F4 3C 03 12 00 4E  ...=.......<...N
3CF0: 80 01 A4 3D 02 17 00 01  80 80 04 3D 03 12 00 02  ...=.......=....
3D00: 80 01 A4 3D 02 17 00 02  80 80 14 3D 03 12 00 7B  ...=.......=...{
3D10: 80 01 A4 3D 02 17 00 03  80 80 24 3D 03 12 00 99  ...=......$=....
3D20: 80 01 A4 3D 02 17 00 04  80 80 34 3D 03 12 00 7D  ...=......4=...}
3D30: 80 01 A4 3D 02 17 00 05  80 80 44 3D 03 12 00 3E  ...=......D=...>
3D40: 80 01 A4 3D 02 17 00 06  80 80 54 3D 03 12 00 13  ...=......T=....
3D50: 80 01 A4 3D 02 17 00 07  80 80 64 3D 03 12 00 86  ...=......d=....
3D60: 80 01 A4 3D 02 17 00 12  80 80 74 3D 03 12 00 85  ...=......t=....
3D70: 80 01 A4 3D 02 17 00 13  80 80 84 3D 03 12 00 98  ...=.......=....
3D80: 80 01 A4 3D 02 17 00 14  80 80 94 3D 03 12 00 9A  ...=.......=....
3D90: 80 01 A4 3D 02 17 00 1D  80 80 A4 3D 03 12 00 97  ...=.......=....
3DA0: 80 01 A4 3D 01 08 40 02  16 00 01 80 80 72 3E 02  ...=..@......r>.
3DB0: 17 00 00 80 80 BF 3D 03  12 00 06 80 01 6F 3E 02  ......=......o>.
3DC0: 17 00 01 80 80 CF 3D 03  12 00 05 80 01 6F 3E 02  ......=......o>.
3DD0: 17 00 02 80 80 DF 3D 03  12 00 79 80 01 6F 3E 02  ......=...y..o>.
3DE0: 17 00 03 80 80 EF 3D 03  12 00 73 80 01 6F 3E 02  ......=...s..o>.
3DF0: 17 00 04 80 80 FF 3D 03  12 00 88 80 01 6F 3E 02  ......=......o>.
3E00: 17 00 05 80 80 0F 3E 03  12 00 1A 80 01 6F 3E 02  ......>......o>.
3E10: 17 00 06 80 80 1F 3E 03  12 00 07 80 01 6F 3E 02  ......>......o>.
3E20: 17 00 07 80 80 2F 3E 03  12 00 04 80 01 6F 3E 02  ...../>......o>.
3E30: 17 00 12 80 80 3F 3E 03  12 00 15 80 01 6F 3E 02  .....?>......o>.
3E40: 17 00 13 80 80 4F 3E 03  12 00 20 80 01 6F 3E 02  .....O>... ..o>.
3E50: 17 00 14 80 80 5F 3E 03  12 00 84 80 01 6F 3E 02  ....._>......o>.
3E60: 17 00 1D 80 80 6F 3E 03  12 00 96 80 01 6F 3E 01  .....o>......o>.
3E70: 08 40 02 16 00 02 80 80  3D 3F 02 17 00 00 80 80  .@......=?......
3E80: 8A 3E 03 12 00 22 80 01  3A 3F 02 17 00 01 80 80  .>..."..:?......
3E90: 9A 3E 03 12 00 7A 80 01  3A 3F 02 17 00 02 80 80  .>...z..:?......
3EA0: AA 3E 03 12 00 90 80 01  3A 3F 02 17 00 03 80 80  .>......:?......
3EB0: BA 3E 03 12 00 19 80 01  3A 3F 02 17 00 04 80 80  .>......:?......
3EC0: CA 3E 03 12 00 16 80 01  3A 3F 02 17 00 05 80 80  .>......:?......
3ED0: DA 3E 03 12 00 18 80 01  3A 3F 02 17 00 06 80 80  .>......:?......
3EE0: EA 3E 03 12 00 17 80 01  3A 3F 02 17 00 07 80 80  .>......:?......
3EF0: FA 3E 03 12 00 1D 80 01  3A 3F 02 17 00 12 80 80  .>......:?......
3F00: 0A 3F 03 12 00 7C 80 01  3A 3F 02 17 00 13 80 80  .?...|..:?......
3F10: 1A 3F 03 12 00 8C 80 01  3A 3F 02 17 00 14 80 80  .?......:?......
3F20: 2A 3F 03 12 00 94 80 01  3A 3F 02 17 00 1D 80 80  *?......:?......
3F30: 3A 3F 03 12 00 43 80 01  3A 3F 01 08 40 02 16 00  :?...C..:?..@...
3F40: 03 80 80 08 40 02 17 00  00 80 80 55 3F 03 12 00  ....@......U?...
3F50: 12 80 01 05 40 02 17 00  01 80 80 65 3F 03 12 00  ....@......e?...
3F60: 0A 80 01 05 40 02 17 00  02 80 80 75 3F 03 12 00  ....@......u?...
3F70: 03 80 01 05 40 02 17 00  03 80 80 85 3F 03 12 00  ....@.......?...
3F80: 1F 80 01 05 40 02 17 00  04 80 80 95 3F 03 12 00  ....@.......?...
3F90: A2 80 01 05 40 02 17 00  05 80 80 A5 3F 03 12 00  ....@.......?...
3FA0: 00 80 01 05 40 02 17 00  06 80 80 B5 3F 03 12 00  ....@.......?...
3FB0: 1E 80 01 05 40 02 17 00  07 80 80 C5 3F 03 12 00  ....@.......?...
3FC0: 8E 80 01 05 40 02 17 00  12 80 80 D5 3F 03 12 00  ....@.......?...
3FD0: 14 80 01 05 40 02 17 00  13 80 80 E5 3F 03 12 00  ....@.......?...
3FE0: 1B 80 01 05 40 02 17 00  14 80 80 F5 3F 03 12 00  ....@.......?...
3FF0: 95 80 01 05 40 02 17 00  1D 80 80 05 40 03 12 00  ....@.......@...
4000: 9F 80 01 05 40 01 08 40  1B 02 18 00 00 80 80 A7  ....@..@........
4010: 40 02 17 00 00 80 80 26  40 03 13 00 52 80 03 14  @......&@...R...
4020: 00 52 80 01 A4 40 02 17  00 01 80 80 3B 40 03 13  .R...@......;@..
4030: 00 8B 80 03 14 00 8B 80  01 A4 40 02 17 00 02 80  ..........@.....
4040: 80 50 40 03 13 00 43 80  03 14 00 43 80 01 A4 40  .P@...C....C...@
4050: 02 17 00 03 80 80 65 40  03 13 00 A3 80 03 14 00  ......e@........
4060: A3 80 01 A4 40 02 17 00  04 80 80 7A 40 03 13 00  ....@......z@...
4070: A4 80 03 14 00 A4 80 01  A4 40 02 17 00 05 80 80  .........@......
4080: 8F 40 03 13 00 99 80 03  14 00 99 80 01 A4 40 02  .@............@.
4090: 17 00 06 80 80 A4 40 03  13 00 A5 80 03 14 00 A5  ......@.........
40A0: 80 01 A4 40 01 F0 45 02  18 00 01 80 80 22 41 02  ...@..E......"A.
40B0: 17 00 00 80 80 BF 40 03  13 00 A6 80 01 1F 41 02  ......@.......A.
40C0: 17 00 01 80 80 CF 40 03  13 00 A7 80 01 1F 41 02  ......@.......A.
40D0: 17 00 02 80 80 DF 40 03  13 00 A8 80 01 1F 41 02  ......@.......A.
40E0: 17 00 03 80 80 EF 40 03  13 00 A9 80 01 1F 41 02  ......@.......A.
40F0: 17 00 04 80 80 FF 40 03  13 00 AA 80 01 1F 41 02  ......@.......A.
4100: 17 00 05 80 80 0F 41 03  13 00 AB 80 01 1F 41 02  ......A.......A.
4110: 17 00 06 80 80 1F 41 03  13 00 AC 80 01 1F 41 01  ......A.......A.
4120: F0 45 02 18 00 02 80 80  9D 41 02 17 00 00 80 80  .E.......A......
4130: 3A 41 03 13 00 AD 80 01  9A 41 02 17 00 01 80 80  :A.......A......
4140: 4A 41 03 13 00 AE 80 01  9A 41 02 17 00 02 80 80  JA.......A......
4150: 5A 41 03 13 00 AF 80 01  9A 41 02 17 00 03 80 80  ZA.......A......
4160: 6A 41 03 13 00 B0 80 01  9A 41 02 17 00 04 80 80  jA.......A......
4170: 7A 41 03 13 00 B1 80 01  9A 41 02 17 00 05 80 80  zA.......A......
4180: 8A 41 03 13 00 B2 80 01  9A 41 02 17 00 06 80 80  .A.......A......
4190: 9A 41 03 13 00 47 80 01  9A 41 01 F0 45 02 18 00  .A...G...A..E...
41A0: 03 80 80 18 42 02 17 00  00 80 80 B5 41 03 13 00  ....B.......A...
41B0: B3 80 01 15 42 02 17 00  01 80 80 C5 41 03 13 00  ....B.......A...
41C0: B4 80 01 15 42 02 17 00  02 80 80 D5 41 03 13 00  ....B.......A...
41D0: B5 80 01 15 42 02 17 00  03 80 80 E5 41 03 13 00  ....B.......A...
41E0: B6 80 01 15 42 02 17 00  04 80 80 F5 41 03 13 00  ....B.......A...
41F0: B7 80 01 15 42 02 17 00  05 80 80 05 42 03 13 00  ....B.......B...
4200: B8 80 01 15 42 02 17 00  06 80 80 15 42 03 13 00  ....B.......B...
4210: B9 80 01 15 42 01 F0 45  02 18 00 04 80 80 93 42  ....B..E.......B
4220: 02 17 00 00 80 80 30 42  03 13 00 BA 80 01 90 42  ......0B.......B
4230: 02 17 00 01 80 80 40 42  03 13 00 BB 80 01 90 42  ......@B.......B
4240: 02 17 00 02 80 80 50 42  03 13 00 BC 80 01 90 42  ......PB.......B
4250: 02 17 00 03 80 80 60 42  03 13 00 BD 80 01 90 42  ......`B.......B
4260: 02 17 00 04 80 80 70 42  03 13 00 BE 80 01 90 42  ......pB.......B
4270: 02 17 00 05 80 80 80 42  03 13 00 BF 80 01 90 42  .......B.......B
4280: 02 17 00 06 80 80 90 42  03 13 00 C0 80 01 90 42  .......B.......B
4290: 01 F0 45 02 18 00 05 80  80 0E 43 02 17 00 00 80  ..E.......C.....
42A0: 80 AB 42 03 13 00 7F 80  01 0B 43 02 17 00 01 80  ..B.......C.....
42B0: 80 BB 42 03 13 00 08 80  01 0B 43 02 17 00 02 80  ..B.......C.....
42C0: 80 CB 42 03 13 00 C1 80  01 0B 43 02 17 00 03 80  ..B.......C.....
42D0: 80 DB 42 03 13 00 0F 80  01 0B 43 02 17 00 04 80  ..B.......C.....
42E0: 80 EB 42 03 13 00 10 80  01 0B 43 02 17 00 05 80  ..B.......C.....
42F0: 80 FB 42 03 13 00 C2 80  01 0B 43 02 17 00 06 80  ..B.......C.....
4300: 80 0B 43 03 13 00 5C 80  01 0B 43 01 F0 45 02 18  ..C...\...C..E..
4310: 00 06 80 80 89 43 02 17  00 00 80 80 26 43 03 13  .....C......&C..
4320: 00 C3 80 01 86 43 02 17  00 01 80 80 36 43 03 13  .....C......6C..
4330: 00 3F 80 01 86 43 02 17  00 02 80 80 46 43 03 13  .?...C......FC..
4340: 00 C4 80 01 86 43 02 17  00 03 80 80 56 43 03 13  .....C......VC..
4350: 00 C5 80 01 86 43 02 17  00 04 80 80 66 43 03 13  .....C......fC..
4360: 00 C6 80 01 86 43 02 17  00 05 80 80 76 43 03 13  .....C......vC..
4370: 00 C7 80 01 86 43 02 17  00 06 80 80 86 43 03 13  .....C.......C..
4380: 00 C8 80 01 86 43 01 F0  45 02 18 00 07 80 80 04  .....C..E.......
4390: 44 02 17 00 00 80 80 A1  43 03 13 00 C9 80 01 01  D.......C.......
43A0: 44 02 17 00 01 80 80 B1  43 03 13 00 CA 80 01 01  D.......C.......
43B0: 44 02 17 00 02 80 80 C1  43 03 13 00 CB 80 01 01  D.......C.......
