# 17772616 - Star Sibyl

## Common Data

| Field            | Value                     |
|------------------|---------------------------|
| Zone             | Ru'Lude Gardens (ID: 243) |
| Block Size       | 800 bytes                 |
| Total Events     | 37                        |
| References Count | 27                        |

## List of Events

| Event ID                   | Entrypoint   |   Size |   Instructions |
|----------------------------|--------------|--------|----------------|
| [65535](#event-65535)      | 0x0000       |      1 |              1 |
| [65535.1](#event-655351)   | 0x0001       |     16 |              2 |
| [65535.2](#event-655352)   | 0x0011       |     14 |              2 |
| [65535.3](#event-655353)   | 0x001F       |     16 |              2 |
| [65535.4](#event-655354)   | 0x002F       |     14 |              2 |
| [65535.5](#event-655355)   | 0x003D       |     29 |              3 |
| [65535.6](#event-655356)   | 0x005A       |     14 |              2 |
| [65535.7](#event-655357)   | 0x0068       |     16 |              2 |
| [65535.8](#event-655358)   | 0x0078       |     14 |              2 |
| [65535.9](#event-655359)   | 0x0086       |     16 |              2 |
| [65535.10](#event-6553510) | 0x0096       |     14 |              2 |
| [65535.11](#event-6553511) | 0x00A4       |     22 |              3 |
| [65535.12](#event-6553512) | 0x00BA       |     14 |              2 |
| [65535.13](#event-6553513) | 0x00C8       |     16 |              2 |
| [65535.14](#event-6553514) | 0x00D8       |     20 |              3 |
| [65535.15](#event-6553515) | 0x00EC       |     16 |              2 |
| [65535.16](#event-6553516) | 0x00FC       |     14 |              2 |
| [65535.17](#event-6553517) | 0x010A       |     16 |              2 |
| [65535.18](#event-6553518) | 0x011A       |     14 |              2 |
| [65535.19](#event-6553519) | 0x0128       |     16 |              2 |
| [65535.20](#event-6553520) | 0x0138       |     14 |              2 |
| [65535.21](#event-6553521) | 0x0146       |      9 |              3 |
| [10010](#event-10010)      | 0x014F       |      1 |              1 |
| [65535.22](#event-6553522) | 0x0150       |     19 |              5 |
| [65535.23](#event-6553523) | 0x0163       |      1 |              1 |
| [65535.24](#event-6553524) | 0x0164       |     19 |              5 |
| [65535.25](#event-6553525) | 0x0177       |     19 |              5 |
| [65535.26](#event-6553526) | 0x018A       |     19 |              5 |
| [65535.27](#event-6553527) | 0x019D       |     19 |              5 |
| [65535.28](#event-6553528) | 0x01B0       |     19 |              5 |
| [65535.29](#event-6553529) | 0x01C3       |      1 |              1 |
| [65535.30](#event-6553530) | 0x01C4       |     10 |              2 |
| [65535.31](#event-6553531) | 0x01CE       |     10 |              2 |
| [65535.32](#event-6553532) | 0x01D8       |     10 |              2 |
| [65535.33](#event-6553533) | 0x01E2       |     14 |              4 |
| [65535.34](#event-6553534) | 0x01F0       |     17 |              5 |
| [65535.35](#event-6553535) | 0x0201       |     14 |              4 |

## DAT References (imed_data)

|   Index | Hex Value   |   Dec Value |
|---------|-------------|-------------|
|       0 | 0x00AA      |         170 |
|       1 | 0x001E      |          30 |
|       2 | 0x0007      |           7 |
|       3 | 0x22E90     |      142992 |
|       4 | 0xFFFFA90B  |  4294945035 |
|       5 | 0x32C7      |       12999 |
|       6 | 0x2AE5      |       10981 |
|       7 | 0x2AE9      |       10985 |
|       8 | 0x2AEB      |       10987 |
|       9 | 0x2AEC      |       10988 |
|      10 | 0x2AED      |       10989 |
|      11 | 0xFFFFFFC2  |  4294967234 |
|      12 | 0x6048      |       24648 |
|      13 | 0xFFFF4099  |  4294918297 |
|      14 | 0x047C      |        1148 |
|      15 | 0x0010      |          16 |
|      16 | 0x1FC9      |        8137 |
|      17 | 0xFFFF4868  |  4294920296 |
|      18 | 0x03CB      |         971 |
|      19 | 0x0417      |        1047 |
|      20 | 0x0000      |           0 |
|      21 | 0xFFFF4869  |  4294920297 |
|      22 | 0x0815      |        2069 |
|      23 | 0xFFFFFFAB  |  4294967211 |
|      24 | 0x3F09      |       16137 |
|      25 | 0xFFFFFD72  |  4294966642 |
|      26 | 0xFFFFF5FD  |  4294964733 |

## String References

- **10981**: Summoning, you say?
- **10985**: Hmm...
- **10987**: Yes... Very.
- **10988**: Time is of the essence. The lines of battle are at Tahrongi Canyon, and draw close to Sarutabaruta.
- **10989**: The attack on Oztroja shall fail, and many flames of life will be extinguished...like the Star Reading, long ago.

## Events

### Event 65535

#### Metadata

| Field        | Value   |
|--------------|---------|
| Entrypoint   | 0x0000  |
| Data Size    | 1 bytes |
| Instructions | 1       |

```
      00 01 02 03 04 05 06 07  08 09 0A 0B 0C 0D 0E 0F
      -- -- -- -- -- -- -- --  -- -- -- -- -- -- -- --
0000: 00                                                .               
```

#### Opcodes

```
  0: 0x0000 [0x00] END_REQSTACK()
```

### Event 65535.1

#### Metadata

| Field        | Value    |
|--------------|----------|
| Entrypoint   | 0x0001   |
| Data Size    | 16 bytes |
| Instructions | 2        |

```
      00 01 02 03 04 05 06 07  08 09 0A 0B 0C 0D 0E 0F
      -- -- -- -- -- -- -- --  -- -- -- -- -- -- -- --
0000:    5B 00 80 F8 FF FF 7F  F8 FF FF 7F 74 6C 61 30   [..........tla0
0010: 00                                                .               
```

#### Opcodes

```
  0: 0x0001 [0x5B] LOAD_EXT_SCHEDULER: Load scheduler "tla0" with entities [EventEntity, EventEntity], work=170*
  1: 0x0010 [0x00] END_REQSTACK()
```

### Event 65535.2

#### Metadata

| Field        | Value    |
|--------------|----------|
| Entrypoint   | 0x0011   |
| Data Size    | 14 bytes |
| Instructions | 2        |

```
      00 01 02 03 04 05 06 07  08 09 0A 0B 0C 0D 0E 0F
      -- -- -- -- -- -- -- --  -- -- -- -- -- -- -- --
0010:    53 F8 FF FF 7F F8 FF  FF 7F 74 6C 61 30 00      S........tla0. 
```

#### Opcodes

```
  0: 0x0011 [0x53] WAIT_SCHEDULER_TASK: Wait for scheduler "tla0" with entities [EventEntity, EventEntity]
  1: 0x001E [0x00] END_REQSTACK()
```

### Event 65535.3

#### Metadata

| Field        | Value    |
|--------------|----------|
| Entrypoint   | 0x001F   |
| Data Size    | 16 bytes |
| Instructions | 2        |

```
      00 01 02 03 04 05 06 07  08 09 0A 0B 0C 0D 0E 0F
      -- -- -- -- -- -- -- --  -- -- -- -- -- -- -- --
0010:                                               5B                 [
0020: 00 80 F8 FF FF 7F F8 FF  FF 7F 74 6C 61 31 00     ..........tla1. 
```

#### Opcodes

```
  0: 0x001F [0x5B] LOAD_EXT_SCHEDULER: Load scheduler "tla1" with entities [EventEntity, EventEntity], work=170*
  1: 0x002E [0x00] END_REQSTACK()
```

### Event 65535.4

#### Metadata

| Field        | Value    |
|--------------|----------|
| Entrypoint   | 0x002F   |
| Data Size    | 14 bytes |
| Instructions | 2        |

```
      00 01 02 03 04 05 06 07  08 09 0A 0B 0C 0D 0E 0F
      -- -- -- -- -- -- -- --  -- -- -- -- -- -- -- --
0020:                                               53                 S
0030: F8 FF FF 7F F8 FF FF 7F  74 6C 61 31 00           ........tla1.   
```

#### Opcodes

```
  0: 0x002F [0x53] WAIT_SCHEDULER_TASK: Wait for scheduler "tla1" with entities [EventEntity, EventEntity]
  1: 0x003C [0x00] END_REQSTACK()
```

### Event 65535.5

#### Metadata

| Field        | Value    |
|--------------|----------|
| Entrypoint   | 0x003D   |
| Data Size    | 29 bytes |
| Instructions | 3        |

```
      00 01 02 03 04 05 06 07  08 09 0A 0B 0C 0D 0E 0F
      -- -- -- -- -- -- -- --  -- -- -- -- -- -- -- --
0030:                                         5B 00 80               [..
0040: F8 FF FF 7F F8 FF FF 7F  74 68 6B 31 53 F8 FF FF  ........thk1S...
0050: 7F F8 FF FF 7F 74 68 6B  31 00                    .....thk1.      
```

#### Opcodes

```
  0: 0x003D [0x5B] LOAD_EXT_SCHEDULER: Load scheduler "thk1" with entities [EventEntity, EventEntity], work=170*
  1: 0x004C [0x53] WAIT_SCHEDULER_TASK: Wait for scheduler "thk1" with entities [EventEntity, EventEntity]
  2: 0x0059 [0x00] END_REQSTACK()
```

### Event 65535.6

#### Metadata

| Field        | Value    |
|--------------|----------|
| Entrypoint   | 0x005A   |
| Data Size    | 14 bytes |
| Instructions | 2        |

```
      00 01 02 03 04 05 06 07  08 09 0A 0B 0C 0D 0E 0F
      -- -- -- -- -- -- -- --  -- -- -- -- -- -- -- --
0050:                                53 F8 FF FF 7F F8            S.....
0060: FF FF 7F 74 68 6B 31 00                           ...thk1.        
```

#### Opcodes

```
  0: 0x005A [0x53] WAIT_SCHEDULER_TASK: Wait for scheduler "thk1" with entities [EventEntity, EventEntity]
  1: 0x0067 [0x00] END_REQSTACK()
```

### Event 65535.7

#### Metadata

| Field        | Value    |
|--------------|----------|
| Entrypoint   | 0x0068   |
| Data Size    | 16 bytes |
| Instructions | 2        |

```
      00 01 02 03 04 05 06 07  08 09 0A 0B 0C 0D 0E 0F
      -- -- -- -- -- -- -- --  -- -- -- -- -- -- -- --
0060:                          5B 00 80 F8 FF FF 7F F8          [.......
0070: FF FF 7F 74 68 6B 32 00                           ...thk2.        
```

#### Opcodes

```
  0: 0x0068 [0x5B] LOAD_EXT_SCHEDULER: Load scheduler "thk2" with entities [EventEntity, EventEntity], work=170*
  1: 0x0077 [0x00] END_REQSTACK()
```

### Event 65535.8

#### Metadata

| Field        | Value    |
|--------------|----------|
| Entrypoint   | 0x0078   |
| Data Size    | 14 bytes |
| Instructions | 2        |

```
      00 01 02 03 04 05 06 07  08 09 0A 0B 0C 0D 0E 0F
      -- -- -- -- -- -- -- --  -- -- -- -- -- -- -- --
0070:                          53 F8 FF FF 7F F8 FF FF          S.......
0080: 7F 74 68 6B 32 00                                 .thk2.          
```

#### Opcodes

```
  0: 0x0078 [0x53] WAIT_SCHEDULER_TASK: Wait for scheduler "thk2" with entities [EventEntity, EventEntity]
  1: 0x0085 [0x00] END_REQSTACK()
```

### Event 65535.9

#### Metadata

| Field        | Value    |
|--------------|----------|
| Entrypoint   | 0x0086   |
| Data Size    | 16 bytes |
| Instructions | 2        |

```
      00 01 02 03 04 05 06 07  08 09 0A 0B 0C 0D 0E 0F
      -- -- -- -- -- -- -- --  -- -- -- -- -- -- -- --
0080:                   5B 00  80 F8 FF FF 7F F8 FF FF        [.........
0090: 7F 74 6C 62 30 00                                 .tlb0.          
```

#### Opcodes

```
  0: 0x0086 [0x5B] LOAD_EXT_SCHEDULER: Load scheduler "tlb0" with entities [EventEntity, EventEntity], work=170*
  1: 0x0095 [0x00] END_REQSTACK()
```

### Event 65535.10

#### Metadata

| Field        | Value    |
|--------------|----------|
| Entrypoint   | 0x0096   |
| Data Size    | 14 bytes |
| Instructions | 2        |

```
      00 01 02 03 04 05 06 07  08 09 0A 0B 0C 0D 0E 0F
      -- -- -- -- -- -- -- --  -- -- -- -- -- -- -- --
0090:                   53 F8  FF FF 7F F8 FF FF 7F 74        S........t
00A0: 6C 62 30 00                                       lb0.            
```

#### Opcodes

```
  0: 0x0096 [0x53] WAIT_SCHEDULER_TASK: Wait for scheduler "tlb0" with entities [EventEntity, EventEntity]
  1: 0x00A3 [0x00] END_REQSTACK()
```

### Event 65535.11

#### Metadata

| Field        | Value    |
|--------------|----------|
| Entrypoint   | 0x00A4   |
| Data Size    | 22 bytes |
| Instructions | 3        |

```
      00 01 02 03 04 05 06 07  08 09 0A 0B 0C 0D 0E 0F
      -- -- -- -- -- -- -- --  -- -- -- -- -- -- -- --
00A0:             81 00 F8 FF  FF 7F 5B 00 80 F8 FF FF      ......[.....
00B0: 7F F8 FF FF 7F 74 6C 63  30 00                    .....tlc0.      
```

#### Opcodes

```
  0: 0x00A4 [0x81] SET_ENTITY_BLINKING(blink_flag=0x00, entity=EventEntity)
  1: 0x00AA [0x5B] LOAD_EXT_SCHEDULER: Load scheduler "tlc0" with entities [EventEntity, EventEntity], work=170*
  2: 0x00B9 [0x00] END_REQSTACK()
```

### Event 65535.12

#### Metadata

| Field        | Value    |
|--------------|----------|
| Entrypoint   | 0x00BA   |
| Data Size    | 14 bytes |
| Instructions | 2        |

```
      00 01 02 03 04 05 06 07  08 09 0A 0B 0C 0D 0E 0F
      -- -- -- -- -- -- -- --  -- -- -- -- -- -- -- --
00B0:                                53 F8 FF FF 7F F8            S.....
00C0: FF FF 7F 74 6C 63 30 00                           ...tlc0.        
```

#### Opcodes

```
  0: 0x00BA [0x53] WAIT_SCHEDULER_TASK: Wait for scheduler "tlc0" with entities [EventEntity, EventEntity]
  1: 0x00C7 [0x00] END_REQSTACK()
```

### Event 65535.13

#### Metadata

| Field        | Value    |
|--------------|----------|
| Entrypoint   | 0x00C8   |
| Data Size    | 16 bytes |
| Instructions | 2        |

```
      00 01 02 03 04 05 06 07  08 09 0A 0B 0C 0D 0E 0F
      -- -- -- -- -- -- -- --  -- -- -- -- -- -- -- --
00C0:                          5B 00 80 F8 FF FF 7F F8          [.......
00D0: FF FF 7F 74 6C 63 31 00                           ...tlc1.        
```

#### Opcodes

```
  0: 0x00C8 [0x5B] LOAD_EXT_SCHEDULER: Load scheduler "tlc1" with entities [EventEntity, EventEntity], work=170*
  1: 0x00D7 [0x00] END_REQSTACK()
```

### Event 65535.14

#### Metadata

| Field        | Value    |
|--------------|----------|
| Entrypoint   | 0x00D8   |
| Data Size    | 20 bytes |
| Instructions | 3        |

```
      00 01 02 03 04 05 06 07  08 09 0A 0B 0C 0D 0E 0F
      -- -- -- -- -- -- -- --  -- -- -- -- -- -- -- --
00D0:                          53 F8 FF FF 7F F8 FF FF          S.......
00E0: 7F 74 6C 63 31 81 01 F8  FF FF 7F 00              .tlc1.......    
```

#### Opcodes

```
  0: 0x00D8 [0x53] WAIT_SCHEDULER_TASK: Wait for scheduler "tlc1" with entities [EventEntity, EventEntity]
  1: 0x00E5 [0x81] SET_ENTITY_BLINKING(blink_flag=0x01, entity=EventEntity)
  2: 0x00EB [0x00] END_REQSTACK()
```

### Event 65535.15

#### Metadata

| Field        | Value    |
|--------------|----------|
| Entrypoint   | 0x00EC   |
| Data Size    | 16 bytes |
| Instructions | 2        |

```
      00 01 02 03 04 05 06 07  08 09 0A 0B 0C 0D 0E 0F
      -- -- -- -- -- -- -- --  -- -- -- -- -- -- -- --
00E0:                                      5B 00 80 F8              [...
00F0: FF FF 7F F8 FF FF 7F 74  6C 63 30 00              .......tlc0.    
```

#### Opcodes

```
  0: 0x00EC [0x5B] LOAD_EXT_SCHEDULER: Load scheduler "tlc0" with entities [EventEntity, EventEntity], work=170*
  1: 0x00FB [0x00] END_REQSTACK()
```

### Event 65535.16

#### Metadata

| Field        | Value    |
|--------------|----------|
| Entrypoint   | 0x00FC   |
| Data Size    | 14 bytes |
| Instructions | 2        |

```
      00 01 02 03 04 05 06 07  08 09 0A 0B 0C 0D 0E 0F
      -- -- -- -- -- -- -- --  -- -- -- -- -- -- -- --
00F0:                                      53 F8 FF FF              S...
0100: 7F F8 FF FF 7F 74 6C 63  30 00                    .....tlc0.      
```

#### Opcodes

```
  0: 0x00FC [0x53] WAIT_SCHEDULER_TASK: Wait for scheduler "tlc0" with entities [EventEntity, EventEntity]
  1: 0x0109 [0x00] END_REQSTACK()
```

### Event 65535.17

#### Metadata

| Field        | Value    |
|--------------|----------|
| Entrypoint   | 0x010A   |
| Data Size    | 16 bytes |
| Instructions | 2        |

```
      00 01 02 03 04 05 06 07  08 09 0A 0B 0C 0D 0E 0F
      -- -- -- -- -- -- -- --  -- -- -- -- -- -- -- --
0100:                                5B 00 80 F8 FF FF            [.....
0110: 7F F8 FF FF 7F 74 6C 63  31 00                    .....tlc1.      
```

#### Opcodes

```
  0: 0x010A [0x5B] LOAD_EXT_SCHEDULER: Load scheduler "tlc1" with entities [EventEntity, EventEntity], work=170*
  1: 0x0119 [0x00] END_REQSTACK()
```

### Event 65535.18

#### Metadata

| Field        | Value    |
|--------------|----------|
| Entrypoint   | 0x011A   |
| Data Size    | 14 bytes |
| Instructions | 2        |

```
      00 01 02 03 04 05 06 07  08 09 0A 0B 0C 0D 0E 0F
      -- -- -- -- -- -- -- --  -- -- -- -- -- -- -- --
0110:                                53 F8 FF FF 7F F8            S.....
0120: FF FF 7F 74 6C 63 31 00                           ...tlc1.        
```

#### Opcodes

```
  0: 0x011A [0x53] WAIT_SCHEDULER_TASK: Wait for scheduler "tlc1" with entities [EventEntity, EventEntity]
  1: 0x0127 [0x00] END_REQSTACK()
```

### Event 65535.19

#### Metadata

| Field        | Value    |
|--------------|----------|
| Entrypoint   | 0x0128   |
| Data Size    | 16 bytes |
| Instructions | 2        |

```
      00 01 02 03 04 05 06 07  08 09 0A 0B 0C 0D 0E 0F
      -- -- -- -- -- -- -- --  -- -- -- -- -- -- -- --
0120:                          5B 00 80 F8 FF FF 7F F8          [.......
0130: FF FF 7F 7A 65 74 30 00                           ...zet0.        
```

#### Opcodes

```
  0: 0x0128 [0x5B] LOAD_EXT_SCHEDULER: Load scheduler "zet0" with entities [EventEntity, EventEntity], work=170*
  1: 0x0137 [0x00] END_REQSTACK()
```

### Event 65535.20

#### Metadata

| Field        | Value    |
|--------------|----------|
| Entrypoint   | 0x0138   |
| Data Size    | 14 bytes |
| Instructions | 2        |

```
      00 01 02 03 04 05 06 07  08 09 0A 0B 0C 0D 0E 0F
      -- -- -- -- -- -- -- --  -- -- -- -- -- -- -- --
0130:                          53 F8 FF FF 7F F8 FF FF          S.......
0140: 7F 7A 65 74 30 00                                 .zet0.          
```

#### Opcodes

```
  0: 0x0138 [0x53] WAIT_SCHEDULER_TASK: Wait for scheduler "zet0" with entities [EventEntity, EventEntity]
  1: 0x0145 [0x00] END_REQSTACK()
```

### Event 65535.21

#### Metadata

| Field        | Value   |
|--------------|---------|
| Entrypoint   | 0x0146  |
| Data Size    | 9 bytes |
| Instructions | 3       |

```
      00 01 02 03 04 05 06 07  08 09 0A 0B 0C 0D 0E 0F
      -- -- -- -- -- -- -- --  -- -- -- -- -- -- -- --
0140:                   5E 69  64 6C 30 1C 01 80 00           ^idl0.... 
```

#### Opcodes

```
  0: 0x0146 [0x5E] EventEntity goes idle (kills current action) (animation: "idl0")
  1: 0x014B [0x1C] WAIT(30* ticks)
  2: 0x014E [0x00] END_REQSTACK()
```

### Event 10010

#### Metadata

| Field        | Value   |
|--------------|---------|
| Entrypoint   | 0x014F  |
| Data Size    | 1 bytes |
| Instructions | 1       |

```
      00 01 02 03 04 05 06 07  08 09 0A 0B 0C 0D 0E 0F
      -- -- -- -- -- -- -- --  -- -- -- -- -- -- -- --
0140:                                               00                 .
```

#### Opcodes

```
  0: 0x014F [0x00] END_REQSTACK()
```

### Event 65535.22

#### Metadata

| Field        | Value    |
|--------------|----------|
| Entrypoint   | 0x0150   |
| Data Size    | 19 bytes |
| Instructions | 5        |

```
      00 01 02 03 04 05 06 07  08 09 0A 0B 0C 0D 0E 0F
      -- -- -- -- -- -- -- --  -- -- -- -- -- -- -- --
0150: 32 02 80 1F 00 03 80 04  80 05 80 1F 01 1E 49 30  2.............I0
0160: 0F 01 00                                          ...             
```

#### Opcodes

```
  0: 0x0150 [0x32] ExtData[1]->MainSpeed = 7* * 0.1
  1: 0x0153 [0x1F] MOVE_ENTITY: EventEntity moves to X=142.992*, Z=-22.261*, Y=12.999*
  2: 0x015B [0x1F] MOVE_ENTITY: Update entity position (mode=1)
  3: 0x015D [0x1E] EventEntity looks at Karaha-Baruha (ID: 17772617/0x010F3049) and starts talking
  4: 0x0162 [0x00] END_REQSTACK()
```

### Event 65535.23

#### Metadata

| Field        | Value   |
|--------------|---------|
| Entrypoint   | 0x0163  |
| Data Size    | 1 bytes |
| Instructions | 1       |

```
      00 01 02 03 04 05 06 07  08 09 0A 0B 0C 0D 0E 0F
      -- -- -- -- -- -- -- --  -- -- -- -- -- -- -- --
0160:          00                                          .            
```

#### Opcodes

```
  0: 0x0163 [0x00] END_REQSTACK()
```

### Event 65535.24

#### Metadata

| Field        | Value    |
|--------------|----------|
| Entrypoint   | 0x0164   |
| Data Size    | 19 bytes |
| Instructions | 5        |

```
      00 01 02 03 04 05 06 07  08 09 0A 0B 0C 0D 0E 0F
      -- -- -- -- -- -- -- --  -- -- -- -- -- -- -- --
0160:             29 08 48 30  0F 01 0B 1D 06 80 23 29      ).H0......#)
0170: 08 48 30 0F 01 0C 00                              .H0....         
```

#### Opcodes

```
  0: 0x0164 [0x29] REQ_SET_WAIT(priority=0x08, entity_id=Star Sibyl (ID: 17772616/0x010F3048), tag_num=0x0B)
  1: 0x016B [0x1D] PRINT_EVENT_MESSAGE(message_id=10981*)
    → "Summoning, you say?"
  2: 0x016E [0x23] WAIT_FOR_DIALOG_INTERACTION
  3: 0x016F [0x29] REQ_SET_WAIT(priority=0x08, entity_id=Star Sibyl (ID: 17772616/0x010F3048), tag_num=0x0C)
  4: 0x0176 [0x00] END_REQSTACK()
```

### Event 65535.25

#### Metadata

| Field        | Value    |
|--------------|----------|
| Entrypoint   | 0x0177   |
| Data Size    | 19 bytes |
| Instructions | 5        |

```
      00 01 02 03 04 05 06 07  08 09 0A 0B 0C 0D 0E 0F
      -- -- -- -- -- -- -- --  -- -- -- -- -- -- -- --
0170:                      29  08 48 30 0F 01 0B 1D 07         ).H0.....
0180: 80 23 29 08 48 30 0F 01  0C 00                    .#).H0....      
```

#### Opcodes

```
  0: 0x0177 [0x29] REQ_SET_WAIT(priority=0x08, entity_id=Star Sibyl (ID: 17772616/0x010F3048), tag_num=0x0B)
  1: 0x017E [0x1D] PRINT_EVENT_MESSAGE(message_id=10985*)
    → "Hmm..."
  2: 0x0181 [0x23] WAIT_FOR_DIALOG_INTERACTION
  3: 0x0182 [0x29] REQ_SET_WAIT(priority=0x08, entity_id=Star Sibyl (ID: 17772616/0x010F3048), tag_num=0x0C)
  4: 0x0189 [0x00] END_REQSTACK()
```

### Event 65535.26

#### Metadata

| Field        | Value    |
|--------------|----------|
| Entrypoint   | 0x018A   |
| Data Size    | 19 bytes |
| Instructions | 5        |

```
      00 01 02 03 04 05 06 07  08 09 0A 0B 0C 0D 0E 0F
      -- -- -- -- -- -- -- --  -- -- -- -- -- -- -- --
0180:                                29 08 48 30 0F 01            ).H0..
0190: 0D 1D 08 80 23 29 08 48  30 0F 01 0E 00           ....#).H0....   
```

#### Opcodes

```
  0: 0x018A [0x29] REQ_SET_WAIT(priority=0x08, entity_id=Star Sibyl (ID: 17772616/0x010F3048), tag_num=0x0D)
  1: 0x0191 [0x1D] PRINT_EVENT_MESSAGE(message_id=10987*)
    → "Yes... Very."
  2: 0x0194 [0x23] WAIT_FOR_DIALOG_INTERACTION
  3: 0x0195 [0x29] REQ_SET_WAIT(priority=0x08, entity_id=Star Sibyl (ID: 17772616/0x010F3048), tag_num=0x0E)
  4: 0x019C [0x00] END_REQSTACK()
```

### Event 65535.27

#### Metadata

| Field        | Value    |
|--------------|----------|
| Entrypoint   | 0x019D   |
| Data Size    | 19 bytes |
| Instructions | 5        |

```
      00 01 02 03 04 05 06 07  08 09 0A 0B 0C 0D 0E 0F
      -- -- -- -- -- -- -- --  -- -- -- -- -- -- -- --
0190:                                         29 08 48               ).H
01A0: 30 0F 01 01 1D 09 80 23  29 08 48 30 0F 01 02 00  0......#).H0....
```

#### Opcodes

```
  0: 0x019D [0x29] REQ_SET_WAIT(priority=0x08, entity_id=Star Sibyl (ID: 17772616/0x010F3048), tag_num=0x01)
  1: 0x01A4 [0x1D] PRINT_EVENT_MESSAGE(message_id=10988*)
    → "Time is of the essence. The lines of battle are at Tahrongi Canyon, and draw close to Sarutabaruta."
  2: 0x01A7 [0x23] WAIT_FOR_DIALOG_INTERACTION
  3: 0x01A8 [0x29] REQ_SET_WAIT(priority=0x08, entity_id=Star Sibyl (ID: 17772616/0x010F3048), tag_num=0x02)
  4: 0x01AF [0x00] END_REQSTACK()
```

### Event 65535.28

#### Metadata

| Field        | Value    |
|--------------|----------|
| Entrypoint   | 0x01B0   |
| Data Size    | 19 bytes |
| Instructions | 5        |

```
      00 01 02 03 04 05 06 07  08 09 0A 0B 0C 0D 0E 0F
      -- -- -- -- -- -- -- --  -- -- -- -- -- -- -- --
01B0: 29 08 48 30 0F 01 03 1D  0A 80 23 29 08 48 30 0F  ).H0......#).H0.
01C0: 01 04 00                                          ...             
```

#### Opcodes

```
  0: 0x01B0 [0x29] REQ_SET_WAIT(priority=0x08, entity_id=Star Sibyl (ID: 17772616/0x010F3048), tag_num=0x03)
  1: 0x01B7 [0x1D] PRINT_EVENT_MESSAGE(message_id=10989*)
    → "The attack on Oztroja shall fail, and many flames of life will be extinguished...like the Star Reading, long ago."
  2: 0x01BA [0x23] WAIT_FOR_DIALOG_INTERACTION
  3: 0x01BB [0x29] REQ_SET_WAIT(priority=0x08, entity_id=Star Sibyl (ID: 17772616/0x010F3048), tag_num=0x04)
  4: 0x01C2 [0x00] END_REQSTACK()
```

### Event 65535.29

#### Metadata

| Field        | Value   |
|--------------|---------|
| Entrypoint   | 0x01C3  |
| Data Size    | 1 bytes |
| Instructions | 1       |

```
      00 01 02 03 04 05 06 07  08 09 0A 0B 0C 0D 0E 0F
      -- -- -- -- -- -- -- --  -- -- -- -- -- -- -- --
01C0:          00                                          .            
```

#### Opcodes

```
  0: 0x01C3 [0x00] END_REQSTACK()
```

### Event 65535.30

#### Metadata

| Field        | Value    |
|--------------|----------|
| Entrypoint   | 0x01C4   |
| Data Size    | 10 bytes |
| Instructions | 2        |

```
      00 01 02 03 04 05 06 07  08 09 0A 0B 0C 0D 0E 0F
      -- -- -- -- -- -- -- --  -- -- -- -- -- -- -- --
01C0:             37 0B 80 0C  80 0D 80 0E 80 00            7.........  
```

#### Opcodes

```
  0: 0x01C4 [0x37] UPDATE_EVENT_POSITION_AND_DIR: x=-0.062*, z=24.648*, y=-48.999*, direction=100.9°*
  1: 0x01CD [0x00] END_REQSTACK()
```

### Event 65535.31

#### Metadata

| Field        | Value    |
|--------------|----------|
| Entrypoint   | 0x01CE   |
| Data Size    | 10 bytes |
| Instructions | 2        |

```
      00 01 02 03 04 05 06 07  08 09 0A 0B 0C 0D 0E 0F
      -- -- -- -- -- -- -- --  -- -- -- -- -- -- -- --
01C0:                                            37 0F                7.
01D0: 80 10 80 11 80 12 80 00                           ........        
```

#### Opcodes

```
  0: 0x01CE [0x37] UPDATE_EVENT_POSITION_AND_DIR: x=0.016*, z=8.137*, y=-47.000*, direction=85.3°*
  1: 0x01D7 [0x00] END_REQSTACK()
```

### Event 65535.32

#### Metadata

| Field        | Value    |
|--------------|----------|
| Entrypoint   | 0x01D8   |
| Data Size    | 10 bytes |
| Instructions | 2        |

```
      00 01 02 03 04 05 06 07  08 09 0A 0B 0C 0D 0E 0F
      -- -- -- -- -- -- -- --  -- -- -- -- -- -- -- --
01D0:                          37 13 80 14 80 15 80 16          7.......
01E0: 80 00                                             ..              
```

#### Opcodes

```
  0: 0x01D8 [0x37] UPDATE_EVENT_POSITION_AND_DIR: x=1.047*, z=0.000*, y=-46.999*, direction=181.8°*
  1: 0x01E1 [0x00] END_REQSTACK()
```

### Event 65535.33

#### Metadata

| Field        | Value    |
|--------------|----------|
| Entrypoint   | 0x01E2   |
| Data Size    | 14 bytes |
| Instructions | 4        |

```
      00 01 02 03 04 05 06 07  08 09 0A 0B 0C 0D 0E 0F
      -- -- -- -- -- -- -- --  -- -- -- -- -- -- -- --
01E0:       32 02 80 1F 00 17  80 18 80 11 80 1F 01 00    2.............
```

#### Opcodes

```
  0: 0x01E2 [0x32] ExtData[1]->MainSpeed = 7* * 0.1
  1: 0x01E5 [0x1F] MOVE_ENTITY: EventEntity moves to X=-0.085*, Z=16.137*, Y=-47.000*
  2: 0x01ED [0x1F] MOVE_ENTITY: Update entity position (mode=1)
  3: 0x01EF [0x00] END_REQSTACK()
```

### Event 65535.34

#### Metadata

| Field        | Value    |
|--------------|----------|
| Entrypoint   | 0x01F0   |
| Data Size    | 17 bytes |
| Instructions | 5        |

```
      00 01 02 03 04 05 06 07  08 09 0A 0B 0C 0D 0E 0F
      -- -- -- -- -- -- -- --  -- -- -- -- -- -- -- --
01F0: 32 02 80 1F 00 13 80 19  80 15 80 1F 01 39 16 80  2............9..
0200: 00                                                .               
```

#### Opcodes

```
  0: 0x01F0 [0x32] ExtData[1]->MainSpeed = 7* * 0.1
  1: 0x01F3 [0x1F] MOVE_ENTITY: EventEntity moves to X=1.047*, Z=-0.654*, Y=-46.999*
  2: 0x01FB [0x1F] MOVE_ENTITY: Update entity position (mode=1)
  3: 0x01FD [0x39] SET_ENTITY_DIRECTION(direction=11.4°*)
  4: 0x0200 [0x00] END_REQSTACK()
```

### Event 65535.35

#### Metadata

| Field        | Value    |
|--------------|----------|
| Entrypoint   | 0x0201   |
| Data Size    | 14 bytes |
| Instructions | 4        |

```
      00 01 02 03 04 05 06 07  08 09 0A 0B 0C 0D 0E 0F
      -- -- -- -- -- -- -- --  -- -- -- -- -- -- -- --
0200:    32 02 80 1F 00 1A 80  14 80 15 80 1F 01 00      2............. 
```

#### Opcodes

```
  0: 0x0201 [0x32] ExtData[1]->MainSpeed = 7* * 0.1
  1: 0x0204 [0x1F] MOVE_ENTITY: EventEntity moves to X=-2.563*, Z=0.000*, Y=-46.999*
  2: 0x020C [0x1F] MOVE_ENTITY: Update entity position (mode=1)
  3: 0x020E [0x00] END_REQSTACK()
```
