# 17772869

## Common Data

| Field            | Value                     |
|------------------|---------------------------|
| Zone             | Ru'Lude Gardens (ID: 243) |
| Block Size       | 10180 bytes               |
| Total Events     | 4                         |
| References Count | 168                       |

## List of Events

| Event ID              | Entrypoint   |   Size |   Instructions |
|-----------------------|--------------|--------|----------------|
| [65535](#event-65535) | 0x0000       |    658 |             62 |
| [10295](#event-10295) | 0x0292       |   2110 |            272 |
| [10296](#event-10296) | 0x0AD0       |   6539 |            808 |
| [10297](#event-10297) | 0x245B       |    168 |             36 |

## DAT References (imed_data)

|   Index | Hex Value   |   Dec Value |
|---------|-------------|-------------|
|       0 | 0x00C8      |         200 |
|       1 | 0x0000      |           0 |
|       2 | 0x00C9      |         201 |
|       3 | 0x0001      |           1 |
|       4 | 0x002D      |          45 |
|       5 | 0x0002      |           2 |
|       6 | 0x001E      |          30 |
|       7 | 0x00D7      |         215 |
|       8 | 0x0093      |         147 |
|       9 | 0x2B6F      |       11119 |
|      10 | 0x1CD06     |      118022 |
|      11 | 0x0C1D      |        3101 |
|      12 | 0x0DF1      |        3569 |
|      13 | 0x2000      |        8192 |
|      14 | 0x1CCF6     |      118006 |
|      15 | 0x0003      |           3 |
|      16 | 0x0020      |          32 |
|      17 | 0x007F      |         127 |
|      18 | 0x0005      |           5 |
|      19 | 0x037E      |         894 |
|      20 | 0x0006      |           6 |
|      21 | 0x3ED0      |       16080 |
|      22 | 0x3ED1      |       16081 |
|      23 | 0x3ED2      |       16082 |
|      24 | 0x3ED3      |       16083 |
|      25 | 0x0004      |           4 |
|      26 | 0x0008      |           8 |
|      27 | 0x3ED4      |       16084 |
|      28 | 0x3ED5      |       16085 |
|      29 | 0x0007      |           7 |
|      30 | 0x005A      |          90 |
|      31 | 0x0080      |         128 |
|      32 | 0x3ED6      |       16086 |
|      33 | 0x3ED7      |       16087 |
|      34 | 0x3ED8      |       16088 |
|      35 | 0x3ED9      |       16089 |
|      36 | 0x3EDA      |       16090 |
|      37 | 0x3EDB      |       16091 |
|      38 | 0x3EDC      |       16092 |
|      39 | 0x3EDD      |       16093 |
|      40 | 0x3EDE      |       16094 |
|      41 | 0x3EDF      |       16095 |
|      42 | 0x3EE0      |       16096 |
|      43 | 0x0046      |          70 |
|      44 | 0x0028      |          40 |
|      45 | 0x3EE1      |       16097 |
|      46 | 0x3EE2      |       16098 |
|      47 | 0x012C      |         300 |
|      48 | 0x003C      |          60 |
|      49 | 0x0075      |         117 |
|      50 | 0x000F      |          15 |
|      51 | 0x2A7D      |       10877 |
|      52 | 0x1D11E     |      119070 |
|      53 | 0x0C1B      |        3099 |
|      54 | 0x06FB      |        1787 |
|      55 | 0x245F      |        9311 |
|      56 | 0x1C9B5     |      117173 |
|      57 | 0x0C1C      |        3100 |
|      58 | 0x0CE4      |        3300 |
|      59 | 0x21AA      |        8618 |
|      60 | 0x1D186     |      119174 |
|      61 | 0x0FB9      |        4025 |
|      62 | 0x05B6      |        1462 |
|      63 | 0x1A6FF     |      108287 |
|      64 | 0x0C89      |        3209 |
|      65 | 0x293B      |       10555 |
|      66 | 0x1D017     |      118807 |
|      67 | 0x0739      |        1849 |
|      68 | 0x2694      |        9876 |
|      69 | 0x1CEC9     |      118473 |
|      70 | 0x0AF0      |        2800 |
|      71 | 0x0786      |        1926 |
|      72 | 0x1CCDA     |      117978 |
|      73 | 0x0FC4      |        4036 |
|      74 | 0x0368      |         872 |
|      75 | 0x3EE9      |       16105 |
|      76 | 0x3EEA      |       16106 |
|      77 | 0x3EEB      |       16107 |
|      78 | 0x3EEC      |       16108 |
|      79 | 0x3EED      |       16109 |
|      80 | 0x3EEE      |       16110 |
|      81 | 0x002C      |          44 |
|      82 | 0x27C0      |       10176 |
|      83 | 0x1D0BD     |      118973 |
|      84 | 0x0DAB      |        3499 |
|      85 | 0x00E9      |         233 |
|      86 | 0x00AF      |         175 |
|      87 | 0xFFFFFF6A  |  4294967146 |
|      88 | 0x00F0      |         240 |
|      89 | 0x3EEF      |       16111 |
|      90 | 0x0078      |         120 |
|      91 | 0x3EF0      |       16112 |
|      92 | 0x0090      |         144 |
|      93 | 0x3EF1      |       16113 |
|      94 | 0x3EF2      |       16114 |
|      95 | 0x3EF3      |       16115 |
|      96 | 0x0014      |          20 |
|      97 | 0x3EF4      |       16116 |
|      98 | 0x3EF5      |       16117 |
|      99 | 0x3EF6      |       16118 |
|     100 | 0x3EF7      |       16119 |
|     101 | 0x3EF8      |       16120 |
|     102 | 0x3EF9      |       16121 |
|     103 | 0x3EFA      |       16122 |
|     104 | 0x0015      |          21 |
|     105 | 0x3EFB      |       16123 |
|     106 | 0x3EFC      |       16124 |
|     107 | 0x3EFD      |       16125 |
|     108 | 0x3EFE      |       16126 |
|     109 | 0x0096      |         150 |
|     110 | 0x3EFF      |       16127 |
|     111 | 0x3F00      |       16128 |
|     112 | 0x3F01      |       16129 |
|     113 | 0x3F02      |       16130 |
|     114 | 0x3F03      |       16131 |
|     115 | 0x001C      |          28 |
|     116 | 0x3F04      |       16132 |
|     117 | 0x3F05      |       16133 |
|     118 | 0x3F06      |       16134 |
|     119 | 0x0DAC      |        3500 |
|     120 | 0x3F07      |       16135 |
|     121 | 0x3F08      |       16136 |
|     122 | 0x3F09      |       16137 |
|     123 | 0x3F0A      |       16138 |
|     124 | 0x1139      |        4409 |
|     125 | 0x3F0B      |       16139 |
|     126 | 0x0E36      |        3638 |
|     127 | 0xFFFDBAEB  |  4294818539 |
|     128 | 0x3A4CF     |      238799 |
|     129 | 0x0400      |        1024 |
|     130 | 0x0016      |          22 |
|     131 | 0x00FF      |         255 |
|     132 | 0x00D5      |         213 |
|     133 | 0x3DD9      |       15833 |
|     134 | 0x00AA      |         170 |
|     135 | 0x02DF      |         735 |
|     136 | 0x0034      |          52 |
|     137 | 0x3F0C      |       16140 |
|     138 | 0x3F0D      |       16141 |
|     139 | 0x0CA0      |        3232 |
|     140 | 0x3F0E      |       16142 |
|     141 | 0x3F0F      |       16143 |
|     142 | 0x3F10      |       16144 |
|     143 | 0x3F11      |       16145 |
|     144 | 0x3F12      |       16146 |
|     145 | 0x3F13      |       16147 |
|     146 | 0x3F14      |       16148 |
|     147 | 0x3F15      |       16149 |
|     148 | 0x3F16      |       16150 |
|     149 | 0x3F17      |       16151 |
|     150 | 0x3F18      |       16152 |
|     151 | 0x3F19      |       16153 |
|     152 | 0x01E2      |         482 |
|     153 | 0x01D6      |         470 |
|     154 | 0x0CE1      |        3297 |
|     155 | 0x3EE3      |       16099 |
|     156 | 0x3EE4      |       16100 |
|     157 | 0x01D8      |         472 |
|     158 | 0x3EE5      |       16101 |
|     159 | 0x3EE6      |       16102 |
|     160 | 0x01DA      |         474 |
|     161 | 0x01DE      |         478 |
|     162 | 0x3EE7      |       16103 |
|     163 | 0x3EE8      |       16104 |
|     164 | 0x3F1A      |       16154 |
|     165 | 0x01E4      |         484 |
|     166 | 0x3F1B      |       16155 |
|     167 | 0x3F1C      |       16156 |

## String References

- **15833**: @@
- **16085**: Are you worried about Maat? [Yes, actually./No, not really.]
- **16142**: You mean... [The World Eater Egg!?/The $3!?/An initial egg!?]

## Events

### Event 65535

#### Metadata

| Field        | Value     |
|--------------|-----------|
| Entrypoint   | 0x0000    |
| Data Size    | 658 bytes |
| Instructions | 1         |

```
      00 01 02 03 04 05 06 07  08 09 0A 0B 0C 0D 0E 0F
      -- -- -- -- -- -- -- --  -- -- -- -- -- -- -- --
0000: 00 45 00 80 F0 FF FF 7F  F0 FF FF 7F 66 64 69 30  .E..........fdi0
0010: 01 80 55 00 80 F0 FF FF  7F F0 FF FF 7F 66 64 69  ..U..........fdi
0020: 30 1B 45 00 80 F0 FF FF  7F F0 FF FF 7F 66 64 6F  0.E..........fdo
0030: 30 01 80 55 00 80 F0 FF  FF 7F F0 FF FF 7F 66 64  0..U..........fd
0040: 6F 30 1B 45 00 80 F0 FF  FF 7F F0 FF FF 7F 66 64  o0.E..........fd
0050: 69 31 01 80 55 00 80 F0  FF FF 7F F0 FF FF 7F 66  i1..U..........f
0060: 64 69 31 1B 45 00 80 F0  FF FF 7F F0 FF FF 7F 66  di1.E..........f
0070: 64 6F 31 01 80 55 00 80  F0 FF FF 7F F0 FF FF 7F  do1..U..........
0080: 66 64 6F 31 1B 45 02 80  F0 FF FF 7F F0 FF FF 7F  fdo1.E..........
0090: 77 68 69 31 01 80 55 02  80 F0 FF FF 7F F0 FF FF  whi1..U.........
00A0: 7F 77 68 69 31 1B 45 02  80 F0 FF FF 7F F0 FF FF  .whi1.E.........
00B0: 7F 77 68 6F 31 01 80 55  02 80 F0 FF FF 7F F0 FF  .who1..U........
00C0: FF 7F 77 68 6F 31 1B 45  02 80 F0 FF FF 7F F0 FF  ..who1.E........
00D0: FF 7F 77 68 6F 32 01 80  55 02 80 F0 FF FF 7F F0  ..who2..U.......
00E0: FF FF 7F 77 68 6F 32 1B  45 02 80 F0 FF FF 7F F0  ...who2.E.......
00F0: FF FF 7F 77 68 6F 33 01  80 55 02 80 F0 FF FF 7F  ...who3..U......
0100: F0 FF FF 7F 77 68 6F 33  1B 62 03 80 F0 FF FF 7F  ....who3.b......
0110: F0 FF FF 7F 6D 61 69 6E  01 80 1C 04 80 45 00 80  ....main.....E..
0120: F0 FF FF 7F F0 FF FF 7F  66 64 6F 31 01 80 55 00  ........fdo1..U.
0130: 80 F0 FF FF 7F F0 FF FF  7F 66 64 6F 31 1B 45 00  .........fdo1.E.
0140: 80 F0 FF FF 7F F0 FF FF  7F 66 64 69 31 01 80 62  .........fdi1..b
0150: 05 80 F0 FF FF 7F F0 FF  FF 7F 6D 61 69 6E 01 80  ..........main..
0160: 1C 06 80 55 00 80 F0 FF  FF 7F F0 FF FF 7F 66 64  ...U..........fd
0170: 69 31 1B 45 00 80 F0 FF  FF 7F F0 FF FF 7F 62 6C  i1.E..........bl
0180: 6F 6E 01 80 45 02 80 F0  FF FF 7F F0 FF FF 7F 62  on..E..........b
0190: 6C 6F 6E 01 80 1B 45 02  80 F0 FF FF 7F F0 FF FF  lon...E.........
01A0: 7F 77 68 69 30 01 80 55  02 80 F0 FF FF 7F F0 FF  .whi0..U........
01B0: FF 7F 77 68 69 30 1B 45  02 80 F0 FF FF 7F F0 FF  ..whi0.E........
01C0: FF 7F 77 68 6F 30 01 80  55 02 80 F0 FF FF 7F F0  ..who0..U.......
01D0: FF FF 7F 77 68 6F 30 1B  45 07 80 F0 FF FF 7F F0  ...who0.E.......
01E0: FF FF 7F 65 66 6F 6E 01  80 55 07 80 F0 FF FF 7F  ...efon..U......
01F0: F0 FF FF 7F 65 66 6F 6E  1B 45 00 80 F0 FF FF 7F  ....efon.E......
0200: F0 FF FF 7F 66 64 69 73  01 80 1B 45 00 80 F0 FF  ....fdis...E....
0210: FF 7F F0 FF FF 7F 66 64  6F 73 01 80 55 00 80 F0  ......fdos..U...
0220: FF FF 7F F0 FF FF 7F 66  64 6F 73 1B 45 00 80 F0  .......fdos.E...
0230: FF FF 7F F0 FF FF 7F 66  64 69 66 01 80 1B 45 00  .......fdif...E.
0240: 80 F0 FF FF 7F F0 FF FF  7F 66 64 6F 66 01 80 55  .........fdof..U
0250: 00 80 F0 FF FF 7F F0 FF  FF 7F 66 64 6F 66 1B 45  ..........fdof.E
0260: 00 80 F0 FF FF 7F F0 FF  FF 7F 66 64 69 70 01 80  ..........fdip..
0270: 1B 45 00 80 F0 FF FF 7F  F0 FF FF 7F 66 64 6F 70  .E..........fdop
0280: 01 80 55 00 80 F0 FF FF  7F F0 FF FF 7F 66 64 6F  ..U..........fdo
0290: 70 1B                                             p.              
```

#### Opcodes

```
  0: 0x0000 [0x00] END_REQSTACK()
```

#### Data or dead code:

```
# Dead code (unreachable instructions):
     0x0001 [0x45] LOAD_SCHEDULED_TASK: Load scheduler "fdi0" with entities [LocalPlayer, LocalPlayer], work=[200*, 0*]
     0x0012 [0x55] WAIT_LOAD_SCHEDULER: Wait for scheduler "fdi0" with entities [LocalPlayer, LocalPlayer], work=200*
     0x0021 [0x1B] RETURN
     0x0022 [0x45] LOAD_SCHEDULED_TASK: Load scheduler "fdo0" with entities [LocalPlayer, LocalPlayer], work=[200*, 0*]
     0x0033 [0x55] WAIT_LOAD_SCHEDULER: Wait for scheduler "fdo0" with entities [LocalPlayer, LocalPlayer], work=200*
     0x0042 [0x1B] RETURN
     0x0043 [0x45] LOAD_SCHEDULED_TASK: Load scheduler "fdi1" with entities [LocalPlayer, LocalPlayer], work=[200*, 0*]
     0x0054 [0x55] WAIT_LOAD_SCHEDULER: Wait for scheduler "fdi1" with entities [LocalPlayer, LocalPlayer], work=200*
     0x0063 [0x1B] RETURN
     0x0064 [0x45] LOAD_SCHEDULED_TASK: Load scheduler "fdo1" with entities [LocalPlayer, LocalPlayer], work=[200*, 0*]
     0x0075 [0x55] WAIT_LOAD_SCHEDULER: Wait for scheduler "fdo1" with entities [LocalPlayer, LocalPlayer], work=200*
     0x0084 [0x1B] RETURN
     0x0085 [0x45] LOAD_SCHEDULED_TASK: Load scheduler "whi1" with entities [LocalPlayer, LocalPlayer], work=[201*, 0*]
     0x0096 [0x55] WAIT_LOAD_SCHEDULER: Wait for scheduler "whi1" with entities [LocalPlayer, LocalPlayer], work=201*
     0x00A5 [0x1B] RETURN
     0x00A6 [0x45] LOAD_SCHEDULED_TASK: Load scheduler "who1" with entities [LocalPlayer, LocalPlayer], work=[201*, 0*]
     0x00B7 [0x55] WAIT_LOAD_SCHEDULER: Wait for scheduler "who1" with entities [LocalPlayer, LocalPlayer], work=201*
     0x00C6 [0x1B] RETURN
     0x00C7 [0x45] LOAD_SCHEDULED_TASK: Load scheduler "who2" with entities [LocalPlayer, LocalPlayer], work=[201*, 0*]
     0x00D8 [0x55] WAIT_LOAD_SCHEDULER: Wait for scheduler "who2" with entities [LocalPlayer, LocalPlayer], work=201*
     0x00E7 [0x1B] RETURN
     0x00E8 [0x45] LOAD_SCHEDULED_TASK: Load scheduler "who3" with entities [LocalPlayer, LocalPlayer], work=[201*, 0*]
     0x00F9 [0x55] WAIT_LOAD_SCHEDULER: Wait for scheduler "who3" with entities [LocalPlayer, LocalPlayer], work=201*
     0x0108 [0x1B] RETURN
     0x0109 [0x62] LOAD_EVENT_SCHEDULER: Load scheduler "main" with entities [LocalPlayer, LocalPlayer], work=[1*, 0*]
     0x011A [0x1C] WAIT(45* ticks)
     0x011D [0x45] LOAD_SCHEDULED_TASK: Load scheduler "fdo1" with entities [LocalPlayer, LocalPlayer], work=[200*, 0*]
     0x012E [0x55] WAIT_LOAD_SCHEDULER: Wait for scheduler "fdo1" with entities [LocalPlayer, LocalPlayer], work=200*
     0x013D [0x1B] RETURN
     0x013E [0x45] LOAD_SCHEDULED_TASK: Load scheduler "fdi1" with entities [LocalPlayer, LocalPlayer], work=[200*, 0*]
     0x014F [0x62] LOAD_EVENT_SCHEDULER: Load scheduler "main" with entities [LocalPlayer, LocalPlayer], work=[2*, 0*]
     0x0160 [0x1C] WAIT(30* ticks)
     0x0163 [0x55] WAIT_LOAD_SCHEDULER: Wait for scheduler "fdi1" with entities [LocalPlayer, LocalPlayer], work=200*
     0x0172 [0x1B] RETURN
     0x0173 [0x45] LOAD_SCHEDULED_TASK: Load scheduler "blon" with entities [LocalPlayer, LocalPlayer], work=[200*, 0*]
     0x0184 [0x45] LOAD_SCHEDULED_TASK: Load scheduler "blon" with entities [LocalPlayer, LocalPlayer], work=[201*, 0*]
     0x0195 [0x1B] RETURN
     0x0196 [0x45] LOAD_SCHEDULED_TASK: Load scheduler "whi0" with entities [LocalPlayer, LocalPlayer], work=[201*, 0*]
     0x01A7 [0x55] WAIT_LOAD_SCHEDULER: Wait for scheduler "whi0" with entities [LocalPlayer, LocalPlayer], work=201*
     0x01B6 [0x1B] RETURN
     0x01B7 [0x45] LOAD_SCHEDULED_TASK: Load scheduler "who0" with entities [LocalPlayer, LocalPlayer], work=[201*, 0*]
     0x01C8 [0x55] WAIT_LOAD_SCHEDULER: Wait for scheduler "who0" with entities [LocalPlayer, LocalPlayer], work=201*
     0x01D7 [0x1B] RETURN
     0x01D8 [0x45] LOAD_SCHEDULED_TASK: Load scheduler "efon" with entities [LocalPlayer, LocalPlayer], work=[215*, 0*]
     0x01E9 [0x55] WAIT_LOAD_SCHEDULER: Wait for scheduler "efon" with entities [LocalPlayer, LocalPlayer], work=215*
     0x01F8 [0x1B] RETURN
     0x01F9 [0x45] LOAD_SCHEDULED_TASK: Load scheduler "fdis" with entities [LocalPlayer, LocalPlayer], work=[200*, 0*]
     0x020A [0x1B] RETURN
     0x020B [0x45] LOAD_SCHEDULED_TASK: Load scheduler "fdos" with entities [LocalPlayer, LocalPlayer], work=[200*, 0*]
     0x021C [0x55] WAIT_LOAD_SCHEDULER: Wait for scheduler "fdos" with entities [LocalPlayer, LocalPlayer], work=200*
     0x022B [0x1B] RETURN
     0x022C [0x45] LOAD_SCHEDULED_TASK: Load scheduler "fdif" with entities [LocalPlayer, LocalPlayer], work=[200*, 0*]
     0x023D [0x1B] RETURN
     0x023E [0x45] LOAD_SCHEDULED_TASK: Load scheduler "fdof" with entities [LocalPlayer, LocalPlayer], work=[200*, 0*]
     0x024F [0x55] WAIT_LOAD_SCHEDULER: Wait for scheduler "fdof" with entities [LocalPlayer, LocalPlayer], work=200*
     0x025E [0x1B] RETURN
     0x025F [0x45] LOAD_SCHEDULED_TASK: Load scheduler "fdip" with entities [LocalPlayer, LocalPlayer], work=[200*, 0*]
     0x0270 [0x1B] RETURN
     0x0271 [0x45] LOAD_SCHEDULED_TASK: Load scheduler "fdop" with entities [LocalPlayer, LocalPlayer], work=[200*, 0*]
     0x0282 [0x55] WAIT_LOAD_SCHEDULER: Wait for scheduler "fdop" with entities [LocalPlayer, LocalPlayer], work=200*
     0x0291 [0x1B] RETURN
```

### Event 10295

#### Metadata

| Field        | Value      |
|--------------|------------|
| Entrypoint   | 0x0292     |
| Data Size    | 2110 bytes |
| Instructions | 272        |

```
      00 01 02 03 04 05 06 07  08 09 0A 0B 0C 0D 0E 0F
      -- -- -- -- -- -- -- --  -- -- -- -- -- -- -- --
0290:       42 1A 64 00 46 01  38 08 80 2F 00 32 30 0F    B.d.F.8../.20.
02A0: 01 4E 00 32 30 0F 01 92  01 31 30 0F 01 4E 00 31  .N.20....10..N.1
02B0: 30 0F 01 94 01 32 30 0F  01 94 01 F0 FF FF 7F 94  0....20.........
02C0: 01 31 30 0F 01 BA 32 30  0F 01 09 80 0A 80 0B 80  .10...20........
02D0: 0C 80 BA 31 30 0F 01 09  80 0A 80 0B 80 0C 80 BA  ...10...........
02E0: F0 FF FF 7F 0D 80 0E 80  0B 80 0F 80 80 32 30 0F  .............20.
02F0: 01 80 F0 FF FF 7F 80 31  30 0F 01 6C 32 30 0F 01  .......10..l20..
0300: 01 80 03 80 29 08 F0 FF  FF 7F 69 29 08 95 30 0F  ....).....i)..0.
0310: 01 0C 5C 00 10 80 5C 01  10 80 9A 5D 11 80 03 80  ..\...\....]....
0320: 02 09 10 12 80 00 3C 03  45 13 80 F8 FF FF 7F F8  ......<.E.......
0330: FF FF 7F 73 30 35 35 01  80 01 69 03 02 09 10 14  ...s055...i.....
0340: 80 00 58 03 45 13 80 F8  FF FF 7F F8 FF FF 7F 73  ..X.E..........s
0350: 30 35 35 01 80 01 69 03  45 13 80 F8 FF FF 7F F8  055...i.E.......
0360: FF FF 7F 73 30 34 35 01  80 1A 43 00 2B 31 30 0F  ...s045...C.+10.
0370: 01 15 80 23 2B 31 30 0F  01 16 80 23 02 09 10 12  ...#+10....#....
0380: 80 00 96 03 52 13 80 F8  FF FF 7F F8 FF FF 7F 73  ....R..........s
0390: 30 35 35 01 BF 03 02 09  10 14 80 00 B0 03 52 13  055...........R.
03A0: 80 F8 FF FF 7F F8 FF FF  7F 73 30 35 35 01 BF 03  .........s055...
03B0: 52 13 80 F8 FF FF 7F F8  FF FF 7F 73 30 34 35 45  R..........s045E
03C0: 13 80 F8 FF FF 7F F8 FF  FF 7F 73 30 34 36 01 80  ..........s046..
03D0: 2B 31 30 0F 01 17 80 23  2B 31 30 0F 01 18 80 23  +10....#+10....#
03E0: 52 13 80 F8 FF FF 7F F8  FF FF 7F 73 30 34 36 02  R..........s046.
03F0: 09 10 0F 80 00 0B 04 45  13 80 F8 FF FF 7F F8 FF  .......E........
0400: FF 7F 73 30 34 37 01 80  01 8C 04 02 09 10 19 80  ..s047..........
0410: 00 27 04 45 13 80 F8 FF  FF 7F F8 FF FF 7F 73 30  .'.E..........s0
0420: 34 37 01 80 01 8C 04 02  09 10 12 80 00 43 04 45  47...........C.E
0430: 13 80 F8 FF FF 7F F8 FF  FF 7F 73 30 35 36 01 80  ..........s056..
0440: 01 8C 04 02 09 10 14 80  00 5F 04 45 13 80 F8 FF  ........._.E....
0450: FF 7F F8 FF FF 7F 73 30  35 36 01 80 01 8C 04 02  ......s056......
0460: 09 10 1A 80 00 7B 04 45  13 80 F8 FF FF 7F F8 FF  .....{.E........
0470: FF 7F 73 30 34 37 01 80  01 8C 04 45 13 80 F8 FF  ..s047.....E....
0480: FF 7F F8 FF FF 7F 73 30  36 31 01 80 4A 31 30 0F  ......s061..J10.
0490: 01 F0 FF FF 7F 6F 76 31  30 0F 01 4A 32 30 0F 01  .....ov10..J20..
04A0: F0 FF FF 7F 6F 76 32 30  0F 01 2B 31 30 0F 01 1B  ....ov20..+10...
04B0: 80 23 24 1C 80 01 80 01  80 25 02 00 10 01 80 00  .#$......%......
04C0: 26 06 6E F0 FF FF 7F 1D  80 99 F0 FF FF 7F 1C 1E  &.n.............
04D0: 80 02 09 10 0F 80 00 EB  04 52 13 80 F8 FF FF 7F  .........R......
04E0: F8 FF FF 7F 73 30 34 37  01 62 05 02 09 10 19 80  ....s047.b......
04F0: 00 05 05 52 13 80 F8 FF  FF 7F F8 FF FF 7F 73 30  ...R..........s0
0500: 34 37 01 62 05 02 09 10  12 80 00 1F 05 52 13 80  47.b.........R..
0510: F8 FF FF 7F F8 FF FF 7F  73 30 35 36 01 62 05 02  ........s056.b..
0520: 09 10 14 80 00 39 05 52  13 80 F8 FF FF 7F F8 FF  .....9.R........
0530: FF 7F 73 30 35 36 01 62  05 02 09 10 1A 80 00 53  ..s056.b.......S
0540: 05 52 13 80 F8 FF FF 7F  F8 FF FF 7F 73 30 34 37  .R..........s047
0550: 01 62 05 52 13 80 F8 FF  FF 7F F8 FF FF 7F 73 30  .b.R..........s0
0560: 36 31 02 09 10 12 80 00  7E 05 45 13 80 F8 FF FF  61......~.E.....
0570: 7F F8 FF FF 7F 73 30 35  37 01 80 01 AB 05 02 09  .....s057.......
0580: 10 14 80 00 9A 05 45 13  80 F8 FF FF 7F F8 FF FF  ......E.........
0590: 7F 73 30 35 37 01 80 01  AB 05 45 13 80 F8 FF FF  .s057.....E.....
05A0: 7F F8 FF FF 7F 73 30 34  38 01 80 6C 31 30 0F 01  .....s048..l10..
05B0: 01 80 03 80 6C 32 30 0F  01 1F 80 03 80 29 0F 32  ....l20......).2
05C0: 30 0F 01 28 2B 31 30 0F  01 20 80 29 08 32 30 0F  0..(+10.. .).20.
05D0: 01 10 27 08 32 30 0F 01  11 23 2A 08 32 30 0F 01  ..'.20...#*.20..
05E0: 02 09 10 12 80 00 FA 05  52 13 80 F8 FF FF 7F F8  ........R.......
05F0: FF FF 7F 73 30 35 37 01  23 06 02 09 10 14 80 00  ...s057.#.......
0600: 14 06 52 13 80 F8 FF FF  7F F8 FF FF 7F 73 30 35  ..R..........s05
0610: 37 01 23 06 52 13 80 F8  FF FF 7F F8 FF FF 7F 73  7.#.R..........s
0620: 30 34 38 01 92 07 02 00  10 03 80 00 92 07 6E F0  048...........n.
0630: FF FF 7F 14 80 99 F0 FF  FF 7F 1C 1E 80 02 09 10  ................
0640: 0F 80 00 57 06 52 13 80  F8 FF FF 7F F8 FF FF 7F  ...W.R..........
0650: 73 30 34 37 01 CE 06 02  09 10 19 80 00 71 06 52  s047.........q.R
0660: 13 80 F8 FF FF 7F F8 FF  FF 7F 73 30 34 37 01 CE  ..........s047..
0670: 06 02 09 10 12 80 00 8B  06 52 13 80 F8 FF FF 7F  .........R......
0680: F8 FF FF 7F 73 30 35 36  01 CE 06 02 09 10 14 80  ....s056........
0690: 00 A5 06 52 13 80 F8 FF  FF 7F F8 FF FF 7F 73 30  ...R..........s0
06A0: 35 36 01 CE 06 02 09 10  1A 80 00 BF 06 52 13 80  56...........R..
06B0: F8 FF FF 7F F8 FF FF 7F  73 30 34 37 01 CE 06 52  ........s047...R
06C0: 13 80 F8 FF FF 7F F8 FF  FF 7F 73 30 36 31 02 09  ..........s061..
06D0: 10 12 80 00 EA 06 45 13  80 F8 FF FF 7F F8 FF FF  ......E.........
06E0: 7F 73 30 35 37 01 80 01  17 07 02 09 10 14 80 00  .s057...........
06F0: 06 07 45 13 80 F8 FF FF  7F F8 FF FF 7F 73 30 35  ..E..........s05
0700: 37 01 80 01 17 07 45 13  80 F8 FF FF 7F F8 FF FF  7.....E.........
0710: 7F 73 30 34 38 01 80 6C  31 30 0F 01 01 80 03 80  .s048..l10......
0720: 6C 32 30 0F 01 1F 80 03  80 29 0F 32 30 0F 01 28  l20......).20..(
0730: 2B 31 30 0F 01 21 80 29  08 32 30 0F 01 10 27 08  +10..!.).20...'.
0740: 32 30 0F 01 11 23 2A 08  32 30 0F 01 02 09 10 12  20...#*.20......
0750: 80 00 66 07 52 13 80 F8  FF FF 7F F8 FF FF 7F 73  ..f.R..........s
0760: 30 35 37 01 8F 07 02 09  10 14 80 00 80 07 52 13  057...........R.
0770: 80 F8 FF FF 7F F8 FF FF  7F 73 30 35 37 01 8F 07  .........s057...
0780: 52 13 80 F8 FF FF 7F F8  FF FF 7F 73 30 34 38 01  R..........s048.
0790: 92 07 45 13 80 F8 FF FF  7F F8 FF FF 7F 73 30 34  ..E..........s04
07A0: 39 01 80 79 00 F0 FF FF  7F 32 30 0F 01 7B 32 30  9..y.....20..{20
07B0: 0F 01 27 08 32 30 0F 01  12 2B 32 30 0F 01 22 80  ..'.20...+20..".
07C0: 23 2B 32 30 0F 01 23 80  23 2A 08 32 30 0F 01 52  #+20..#.#*.20..R
07D0: 13 80 F8 FF FF 7F F8 FF  FF 7F 73 30 34 39 02 09  ..........s049..
07E0: 10 12 80 00 FA 07 45 13  80 F8 FF FF 7F F8 FF FF  ......E.........
07F0: 7F 73 30 35 38 01 80 01  27 08 02 09 10 14 80 00  .s058...'.......
0800: 16 08 45 13 80 F8 FF FF  7F F8 FF FF 7F 73 30 35  ..E..........s05
0810: 38 01 80 01 27 08 45 13  80 F8 FF FF 7F F8 FF FF  8...'.E.........
0820: 7F 73 30 35 30 01 80 2B  32 30 0F 01 24 80 23 27  .s050..+20..$.#'
0830: 08 32 30 0F 01 13 2B 32  30 0F 01 25 80 23 2A 08  .20...+20..%.#*.
0840: 32 30 0F 01 02 09 10 12  80 00 5E 08 52 13 80 F8  20........^.R...
0850: FF FF 7F F8 FF FF 7F 73  30 35 38 01 87 08 02 09  .......s058.....
0860: 10 14 80 00 78 08 52 13  80 F8 FF FF 7F F8 FF FF  ....x.R.........
0870: 7F 73 30 35 38 01 87 08  52 13 80 F8 FF FF 7F F8  .s058...R.......
0880: FF FF 7F 73 30 35 30 45  13 80 F8 FF FF 7F F8 FF  ...s050E........
0890: FF 7F 73 30 35 31 01 80  27 08 32 30 0F 01 14 2B  ..s051..'.20...+
08A0: 32 30 0F 01 26 80 23 2A  08 32 30 0F 01 27 08 32  20..&.#*.20..'.2
08B0: 30 0F 01 15 2B 32 30 0F  01 27 80 23 2A 08 32 30  0...+20..'.#*.20
08C0: 0F 01 52 13 80 F8 FF FF  7F F8 FF FF 7F 73 30 35  ..R..........s05
08D0: 31 02 09 10 12 80 00 ED  08 45 13 80 F8 FF FF 7F  1........E......
08E0: F8 FF FF 7F 73 30 35 39  01 80 01 1A 09 02 09 10  ....s059........
08F0: 14 80 00 09 09 45 13 80  F8 FF FF 7F F8 FF FF 7F  .....E..........
0900: 73 30 35 39 01 80 01 1A  09 45 13 80 F8 FF FF 7F  s059.....E......
0910: F8 FF FF 7F 73 30 35 32  01 80 27 08 32 30 0F 01  ....s052..'.20..
0920: 12 2B 32 30 0F 01 28 80  23 2B 32 30 0F 01 29 80  .+20..(.#+20..).
0930: 23 2A 08 32 30 0F 01 02  09 10 12 80 00 51 09 52  #*.20........Q.R
0940: 13 80 F8 FF FF 7F F8 FF  FF 7F 73 30 35 39 01 7A  ..........s059.z
0950: 09 02 09 10 14 80 00 6B  09 52 13 80 F8 FF FF 7F  .......k.R......
0960: F8 FF FF 7F 73 30 35 39  01 7A 09 52 13 80 F8 FF  ....s059.z.R....
0970: FF 7F F8 FF FF 7F 73 30  35 32 02 09 10 12 80 00  ......s052......
0980: 96 09 45 13 80 F8 FF FF  7F F8 FF FF 7F 73 30 36  ..E..........s06
0990: 30 01 80 01 C3 09 02 09  10 14 80 00 B2 09 45 13  0.............E.
09A0: 80 F8 FF FF 7F F8 FF FF  7F 73 30 36 30 01 80 01  .........s060...
09B0: C3 09 45 13 80 F8 FF FF  7F F8 FF FF 7F 73 30 35  ..E..........s05
09C0: 33 01 80 27 08 32 30 0F  01 13 2A 08 32 30 0F 01  3..'.20...*.20..
09D0: 27 0F 32 30 0F 01 29 2A  0F 32 30 0F 01 27 08 32  '.20..)*.20..'.2
09E0: 30 0F 01 18 2B 32 30 0F  01 2A 80 1C 2B 80 29 0F  0...+20..*..+.).
09F0: F0 FF FF 7F 9D 2A 08 32  30 0F 01 1C 2C 80 29 0F  .....*.20...,.).
0A00: F0 FF FF 7F 9E 23 02 09  10 12 80 00 20 0A 52 13  .....#...... .R.
0A10: 80 F8 FF FF 7F F8 FF FF  7F 73 30 36 30 01 49 0A  .........s060.I.
0A20: 02 09 10 14 80 00 3A 0A  52 13 80 F8 FF FF 7F F8  ......:.R.......
0A30: FF FF 7F 73 30 36 30 01  49 0A 52 13 80 F8 FF FF  ...s060.I.R.....
0A40: 7F F8 FF FF 7F 73 30 35  33 45 13 80 F8 FF FF 7F  .....s053E......
0A50: F8 FF FF 7F 73 30 35 34  01 80 7B 32 30 0F 01 27  ....s054..{20..'
0A60: 08 32 30 0F 01 12 2B 32  30 0F 01 2D 80 23 2A 08  .20...+20..-.#*.
0A70: 32 30 0F 01 27 08 32 30  0F 01 13 2B 32 30 0F 01  20..'.20...+20..
0A80: 2E 80 23 5D 01 80 2F 80  1A 64 00 2A 08 32 30 0F  ..#]../..d.*.20.
0A90: 01 52 13 80 F8 FF FF 7F  F8 FF FF 7F 73 30 35 34  .R..........s054
0AA0: 1C 30 80 5C 00 31 80 5C  01 31 80 9A 5D 11 80 03  .0.\.1.\.1..]...
0AB0: 80 1C 32 80 AB 11 01 80  1C 03 80 46 00 45 00 80  ..2........F.E..
0AC0: F8 FF FF 7F F8 FF FF 7F  66 64 69 32 01 80 21 00  ........fdi2..!.
```

#### Opcodes

```
  0: 0x0292 [0x42] SET_CLI_EVENT_CANCEL_DATA()
  1: 0x0293 [0x1A] CALL_SUBROUTINE(address=0x0064)
  2: 0x0296 [0x46] CAMERA_CONTROL: Disable user control
  3: 0x0298 [0x38] SET_CLIENT_EVENT_MODE(mode=147*)
  4: 0x029B [0x2F] Maat (ID: 17772594/0x010F3032)->Render.Flags0 &= ~0x80000 // Bit 19
  5: 0x02A1 [0x4E] SET_ENTITY_HIDE_FLAG: Show Maat (ID: 17772594/0x010F3032)
  6: 0x02A7 [0x92] Maat (ID: 17772593/0x010F3031)->Render.Flags3 ^= 0x01
  7: 0x02AD [0x4E] SET_ENTITY_HIDE_FLAG: Show Maat (ID: 17772593/0x010F3031)
  8: 0x02B3 [0x94] Maat (ID: 17772594/0x010F3032)->Render.Flags3 ^= 0x01
  9: 0x02B9 [0x94] LocalPlayer->Render.Flags3 ^= 0x01
 10: 0x02BF [0x94] Maat (ID: 17772593/0x010F3031)->Render.Flags3 ^= 0x01
 11: 0x02C5 [0xBA] SET_ENTITY_POSITION(entity_id=Maat (ID: 17772594/0x010F3032), pos_x=11.119*, pos_z=118.022*, pos_y=3.101*, direction=313.7°*)
 12: 0x02D2 [0xBA] SET_ENTITY_POSITION(entity_id=Maat (ID: 17772593/0x010F3031), pos_x=11.119*, pos_z=118.022*, pos_y=3.101*, direction=313.7°*)
 13: 0x02DF [0xBA] SET_ENTITY_POSITION(entity_id=LocalPlayer, pos_x=8.192*, pos_z=118.006*, pos_y=3.101*, direction=0.3°*)
 14: 0x02EC [0x80] LOAD_WAIT(entity=Maat (ID: 17772594/0x010F3032))
 15: 0x02F1 [0x80] LOAD_WAIT(entity=LocalPlayer)
 16: 0x02F6 [0x80] LOAD_WAIT(entity=Maat (ID: 17772593/0x010F3031))
 17: 0x02FB [0x6C] FADE_ENTITY_COLOR(entity_id=Maat (ID: 17772594/0x010F3032), end_alpha=0*, fade_time=1*)
 18: 0x0304 [0x29] REQ_SET_WAIT(priority=0x08, entity_id=LocalPlayer, tag_num=0x69)
 19: 0x030B [0x29] REQ_SET_WAIT(priority=0x08, entity_id=Door:Archduke's House (ID: 17772693/0x010F3095), tag_num=0x0C)
 20: 0x0312 [0x5C] MUSIC_CONTROL: Set Idle (Day) music to song 32*
 21: 0x0316 [0x5C] MUSIC_CONTROL: Set Idle (Night) music to song 32*
 22: 0x031A [0x9A] WAIT_MUSIC_SERVER()
 23: 0x031B [0x5D] SET_MUSIC_VOLUME(volume=127*, fade_time=1*)
 24: 0x0320 [0x02] IF !(Work_Zone[9] == 5*) GOTO 0x033C
 25: 0x0328 [0x45] LOAD_SCHEDULED_TASK: Load scheduler "s055" with entities [EventEntity, EventEntity], work=[894*, 0*]
 26: 0x0339 [0x01] GOTO 0x0369
 27: 0x033C [0x02] IF !(Work_Zone[9] == 6*) GOTO 0x0358
 28: 0x0344 [0x45] LOAD_SCHEDULED_TASK: Load scheduler "s055" with entities [EventEntity, EventEntity], work=[894*, 0*]
 29: 0x0355 [0x01] GOTO 0x0369
 30: 0x0358 [0x45] LOAD_SCHEDULED_TASK: Load scheduler "s045" with entities [EventEntity, EventEntity], work=[894*, 0*]

SUBROUTINE_0369:
 31: 0x0369 [0x1A] CALL_SUBROUTINE(address=0x0043)
 32: 0x036C [0x2B] Maat (ID: 17772593/0x010F3031) [16080*]:
    → "Ungh... It's like every bone in this tired old body is aching..."
 33: 0x0373 [0x23] WAIT_FOR_DIALOG_INTERACTION
 34: 0x0374 [0x2B] Maat (ID: 17772593/0x010F3031) [16081*]:
    → "And where did all these bruises and scrapes come from anyway?"
 35: 0x037B [0x23] WAIT_FOR_DIALOG_INTERACTION
 36: 0x037C [0x02] IF !(Work_Zone[9] == 5*) GOTO 0x0396
 37: 0x0384 [0x52] END_LOAD_SCHEDULER: End scheduler "s055" with entities [EventEntity, EventEntity], work=894*
 38: 0x0393 [0x01] GOTO 0x03BF
 39: 0x0396 [0x02] IF !(Work_Zone[9] == 6*) GOTO 0x03B0
 40: 0x039E [0x52] END_LOAD_SCHEDULER: End scheduler "s055" with entities [EventEntity, EventEntity], work=894*
 41: 0x03AD [0x01] GOTO 0x03BF
 42: 0x03B0 [0x52] END_LOAD_SCHEDULER: End scheduler "s045" with entities [EventEntity, EventEntity], work=894*

SUBROUTINE_03BF:
 43: 0x03BF [0x45] LOAD_SCHEDULED_TASK: Load scheduler "s046" with entities [EventEntity, EventEntity], work=[894*, 0*]
 44: 0x03D0 [0x2B] Maat (ID: 17772593/0x010F3031) [16082*]:
    → "Am I sick? Or maybe it's some kind of ancient curse? Wait, I bet I'm being targeted by an evil assassin!"
 45: 0x03D7 [0x23] WAIT_FOR_DIALOG_INTERACTION
 46: 0x03D8 [0x2B] Maat (ID: 17772593/0x010F3031) [16083*]:
    → "I know I said something like "If you don't need me, then I'll go help someone else!" Is that why that greenhorn adventurer's so mad at me?"
 47: 0x03DF [0x23] WAIT_FOR_DIALOG_INTERACTION
 48: 0x03E0 [0x52] END_LOAD_SCHEDULER: End scheduler "s046" with entities [EventEntity, EventEntity], work=894*
 49: 0x03EF [0x02] IF !(Work_Zone[9] == 3*) GOTO 0x040B
 50: 0x03F7 [0x45] LOAD_SCHEDULED_TASK: Load scheduler "s047" with entities [EventEntity, EventEntity], work=[894*, 0*]
 51: 0x0408 [0x01] GOTO 0x048C
 52: 0x040B [0x02] IF !(Work_Zone[9] == 4*) GOTO 0x0427
 53: 0x0413 [0x45] LOAD_SCHEDULED_TASK: Load scheduler "s047" with entities [EventEntity, EventEntity], work=[894*, 0*]
 54: 0x0424 [0x01] GOTO 0x048C
 55: 0x0427 [0x02] IF !(Work_Zone[9] == 5*) GOTO 0x0443
 56: 0x042F [0x45] LOAD_SCHEDULED_TASK: Load scheduler "s056" with entities [EventEntity, EventEntity], work=[894*, 0*]
 57: 0x0440 [0x01] GOTO 0x048C
 58: 0x0443 [0x02] IF !(Work_Zone[9] == 6*) GOTO 0x045F
 59: 0x044B [0x45] LOAD_SCHEDULED_TASK: Load scheduler "s056" with entities [EventEntity, EventEntity], work=[894*, 0*]
 60: 0x045C [0x01] GOTO 0x048C
 61: 0x045F [0x02] IF !(Work_Zone[9] == 8*) GOTO 0x047B
 62: 0x0467 [0x45] LOAD_SCHEDULED_TASK: Load scheduler "s047" with entities [EventEntity, EventEntity], work=[894*, 0*]
 63: 0x0478 [0x01] GOTO 0x048C
 64: 0x047B [0x45] LOAD_SCHEDULED_TASK: Load scheduler "s061" with entities [EventEntity, EventEntity], work=[894*, 0*]

SUBROUTINE_048C:
 65: 0x048C [0x4A] Maat (ID: 17772593/0x010F3031) looks at LocalPlayer
 66: 0x0495 [0x6F] WAIT_FRAME_DELAY: Yield until WaitTime reaches zero
 67: 0x0496 [0x76] CHECK_ENTITY_RENDER_FLAGS: Wait until Maat (ID: 17772593/0x010F3031) Render.Flags0 and Render.Flags3 conditions are met
 68: 0x049B [0x4A] Maat (ID: 17772594/0x010F3032) looks at LocalPlayer
 69: 0x04A4 [0x6F] WAIT_FRAME_DELAY: Yield until WaitTime reaches zero
 70: 0x04A5 [0x76] CHECK_ENTITY_RENDER_FLAGS: Wait until Maat (ID: 17772594/0x010F3032) Render.Flags0 and Render.Flags3 conditions are met
 71: 0x04AA [0x2B] Maat (ID: 17772593/0x010F3031) [16084*]:
    → "Oh, hey there, young'un. Is that a look of concern on your face I see?"
 72: 0x04B1 [0x23] WAIT_FOR_DIALOG_INTERACTION
 73: 0x04B2 [0x24] CREATE_DIALOG(message_id=16085*, default_option=0*, option_flags=0*)
    → "Are you worried about Maat? [Yes, actually./No, not really.]"
 74: 0x04B9 [0x25] WAIT_DIALOG_SELECT()
 75: 0x04BA [0x02] IF !(Work_Zone[0] == 0*) GOTO 0x0626
 76: 0x04C2 [0x6E] LocalPlayer uses emote 7*
 77: 0x04C9 [0x99] Wait for LocalPlayer animation to complete
 78: 0x04CE [0x1C] WAIT(90* ticks)
 79: 0x04D1 [0x02] IF !(Work_Zone[9] == 3*) GOTO 0x04EB
 80: 0x04D9 [0x52] END_LOAD_SCHEDULER: End scheduler "s047" with entities [EventEntity, EventEntity], work=894*
 81: 0x04E8 [0x01] GOTO 0x0562
 82: 0x04EB [0x02] IF !(Work_Zone[9] == 4*) GOTO 0x0505
 83: 0x04F3 [0x52] END_LOAD_SCHEDULER: End scheduler "s047" with entities [EventEntity, EventEntity], work=894*
 84: 0x0502 [0x01] GOTO 0x0562
 85: 0x0505 [0x02] IF !(Work_Zone[9] == 5*) GOTO 0x051F
 86: 0x050D [0x52] END_LOAD_SCHEDULER: End scheduler "s056" with entities [EventEntity, EventEntity], work=894*
 87: 0x051C [0x01] GOTO 0x0562
 88: 0x051F [0x02] IF !(Work_Zone[9] == 6*) GOTO 0x0539
 89: 0x0527 [0x52] END_LOAD_SCHEDULER: End scheduler "s056" with entities [EventEntity, EventEntity], work=894*
 90: 0x0536 [0x01] GOTO 0x0562
 91: 0x0539 [0x02] IF !(Work_Zone[9] == 8*) GOTO 0x0553
 92: 0x0541 [0x52] END_LOAD_SCHEDULER: End scheduler "s047" with entities [EventEntity, EventEntity], work=894*
 93: 0x0550 [0x01] GOTO 0x0562
 94: 0x0553 [0x52] END_LOAD_SCHEDULER: End scheduler "s061" with entities [EventEntity, EventEntity], work=894*

SUBROUTINE_0562:
 95: 0x0562 [0x02] IF !(Work_Zone[9] == 5*) GOTO 0x057E
 96: 0x056A [0x45] LOAD_SCHEDULED_TASK: Load scheduler "s057" with entities [EventEntity, EventEntity], work=[894*, 0*]
 97: 0x057B [0x01] GOTO 0x05AB
 98: 0x057E [0x02] IF !(Work_Zone[9] == 6*) GOTO 0x059A
 99: 0x0586 [0x45] LOAD_SCHEDULED_TASK: Load scheduler "s057" with entities [EventEntity, EventEntity], work=[894*, 0*]
100: 0x0597 [0x01] GOTO 0x05AB
101: 0x059A [0x45] LOAD_SCHEDULED_TASK: Load scheduler "s048" with entities [EventEntity, EventEntity], work=[894*, 0*]

SUBROUTINE_05AB:
102: 0x05AB [0x6C] FADE_ENTITY_COLOR(entity_id=Maat (ID: 17772593/0x010F3031), end_alpha=0*, fade_time=1*)
103: 0x05B4 [0x6C] FADE_ENTITY_COLOR(entity_id=Maat (ID: 17772594/0x010F3032), end_alpha=128*, fade_time=1*)
104: 0x05BD [0x29] REQ_SET_WAIT(priority=0x0F, entity_id=Maat (ID: 17772594/0x010F3032), tag_num=0x28)
105: 0x05C4 [0x2B] Maat (ID: 17772593/0x010F3031) [16086*]:
    → "I had a feeling you'd understand my current plight. Yes, you're wise beyond your years."
106: 0x05CB [0x29] REQ_SET_WAIT(priority=0x08, entity_id=Maat (ID: 17772594/0x010F3032), tag_num=0x10)
107: 0x05D2 [0x27] REQ_SET(priority=0x08, entity_id=Maat (ID: 17772594/0x010F3032), tag_num=0x11)
108: 0x05D9 [0x23] WAIT_FOR_DIALOG_INTERACTION
109: 0x05DA [0x2A] GET_REQ_LEVEL(level=8, entity_id=Maat (ID: 17772594/0x010F3032))
110: 0x05E0 [0x02] IF !(Work_Zone[9] == 5*) GOTO 0x05FA
111: 0x05E8 [0x52] END_LOAD_SCHEDULER: End scheduler "s057" with entities [EventEntity, EventEntity], work=894*
112: 0x05F7 [0x01] GOTO 0x0623
113: 0x05FA [0x02] IF !(Work_Zone[9] == 6*) GOTO 0x0614
114: 0x0602 [0x52] END_LOAD_SCHEDULER: End scheduler "s057" with entities [EventEntity, EventEntity], work=894*
115: 0x0611 [0x01] GOTO 0x0623
116: 0x0614 [0x52] END_LOAD_SCHEDULER: End scheduler "s048" with entities [EventEntity, EventEntity], work=894*

SUBROUTINE_0623:
117: 0x0623 [0x01] GOTO 0x0792
118: 0x0626 [0x02] IF !(Work_Zone[0] == 1*) GOTO 0x0792
119: 0x062E [0x6E] LocalPlayer uses emote 6*
120: 0x0635 [0x99] Wait for LocalPlayer animation to complete
121: 0x063A [0x1C] WAIT(90* ticks)
122: 0x063D [0x02] IF !(Work_Zone[9] == 3*) GOTO 0x0657
123: 0x0645 [0x52] END_LOAD_SCHEDULER: End scheduler "s047" with entities [EventEntity, EventEntity], work=894*
124: 0x0654 [0x01] GOTO 0x06CE
125: 0x0657 [0x02] IF !(Work_Zone[9] == 4*) GOTO 0x0671
126: 0x065F [0x52] END_LOAD_SCHEDULER: End scheduler "s047" with entities [EventEntity, EventEntity], work=894*
127: 0x066E [0x01] GOTO 0x06CE
128: 0x0671 [0x02] IF !(Work_Zone[9] == 5*) GOTO 0x068B
129: 0x0679 [0x52] END_LOAD_SCHEDULER: End scheduler "s056" with entities [EventEntity, EventEntity], work=894*
130: 0x0688 [0x01] GOTO 0x06CE
131: 0x068B [0x02] IF !(Work_Zone[9] == 6*) GOTO 0x06A5
132: 0x0693 [0x52] END_LOAD_SCHEDULER: End scheduler "s056" with entities [EventEntity, EventEntity], work=894*
133: 0x06A2 [0x01] GOTO 0x06CE
134: 0x06A5 [0x02] IF !(Work_Zone[9] == 8*) GOTO 0x06BF
135: 0x06AD [0x52] END_LOAD_SCHEDULER: End scheduler "s047" with entities [EventEntity, EventEntity], work=894*
136: 0x06BC [0x01] GOTO 0x06CE
137: 0x06BF [0x52] END_LOAD_SCHEDULER: End scheduler "s061" with entities [EventEntity, EventEntity], work=894*

SUBROUTINE_06CE:
138: 0x06CE [0x02] IF !(Work_Zone[9] == 5*) GOTO 0x06EA
139: 0x06D6 [0x45] LOAD_SCHEDULED_TASK: Load scheduler "s057" with entities [EventEntity, EventEntity], work=[894*, 0*]
140: 0x06E7 [0x01] GOTO 0x0717
141: 0x06EA [0x02] IF !(Work_Zone[9] == 6*) GOTO 0x0706
142: 0x06F2 [0x45] LOAD_SCHEDULED_TASK: Load scheduler "s057" with entities [EventEntity, EventEntity], work=[894*, 0*]
143: 0x0703 [0x01] GOTO 0x0717
144: 0x0706 [0x45] LOAD_SCHEDULED_TASK: Load scheduler "s048" with entities [EventEntity, EventEntity], work=[894*, 0*]

SUBROUTINE_0717:
145: 0x0717 [0x6C] FADE_ENTITY_COLOR(entity_id=Maat (ID: 17772593/0x010F3031), end_alpha=0*, fade_time=1*)
146: 0x0720 [0x6C] FADE_ENTITY_COLOR(entity_id=Maat (ID: 17772594/0x010F3032), end_alpha=128*, fade_time=1*)
147: 0x0729 [0x29] REQ_SET_WAIT(priority=0x0F, entity_id=Maat (ID: 17772594/0x010F3032), tag_num=0x28)
148: 0x0730 [0x2B] Maat (ID: 17772593/0x010F3031) [16087*]:
    → "It's okay, there's no need to be shy. You can be honest with me."
149: 0x0737 [0x29] REQ_SET_WAIT(priority=0x08, entity_id=Maat (ID: 17772594/0x010F3032), tag_num=0x10)
150: 0x073E [0x27] REQ_SET(priority=0x08, entity_id=Maat (ID: 17772594/0x010F3032), tag_num=0x11)
151: 0x0745 [0x23] WAIT_FOR_DIALOG_INTERACTION
152: 0x0746 [0x2A] GET_REQ_LEVEL(level=8, entity_id=Maat (ID: 17772594/0x010F3032))
153: 0x074C [0x02] IF !(Work_Zone[9] == 5*) GOTO 0x0766
154: 0x0754 [0x52] END_LOAD_SCHEDULER: End scheduler "s057" with entities [EventEntity, EventEntity], work=894*
155: 0x0763 [0x01] GOTO 0x078F
156: 0x0766 [0x02] IF !(Work_Zone[9] == 6*) GOTO 0x0780
157: 0x076E [0x52] END_LOAD_SCHEDULER: End scheduler "s057" with entities [EventEntity, EventEntity], work=894*
158: 0x077D [0x01] GOTO 0x078F
159: 0x0780 [0x52] END_LOAD_SCHEDULER: End scheduler "s048" with entities [EventEntity, EventEntity], work=894*

SUBROUTINE_078F:
160: 0x078F [0x01] GOTO 0x0792

SUBROUTINE_0792:
161: 0x0792 [0x45] LOAD_SCHEDULED_TASK: Load scheduler "s049" with entities [EventEntity, EventEntity], work=[894*, 0*]
162: 0x07A3 [0x79] LocalPlayer looks at Maat (ID: 17772594/0x010F3032) (Basic look)
163: 0x07AD [0x7B] Maat (ID: 17772594/0x010F3032) stops talking
164: 0x07B2 [0x27] REQ_SET(priority=0x08, entity_id=Maat (ID: 17772594/0x010F3032), tag_num=0x12)
165: 0x07B9 [0x2B] Maat (ID: 17772594/0x010F3032) [16088*]:
    → "At any rate, I'm glad you're here. I could really use your help with something."
166: 0x07C0 [0x23] WAIT_FOR_DIALOG_INTERACTION
167: 0x07C1 [0x2B] Maat (ID: 17772594/0x010F3032) [16089*]:
    → "You see, this rather flashy young lady came by recently with a Goblin in tow..."
168: 0x07C8 [0x23] WAIT_FOR_DIALOG_INTERACTION
169: 0x07C9 [0x2A] GET_REQ_LEVEL(level=8, entity_id=Maat (ID: 17772594/0x010F3032))
170: 0x07CF [0x52] END_LOAD_SCHEDULER: End scheduler "s049" with entities [EventEntity, EventEntity], work=894*
171: 0x07DE [0x02] IF !(Work_Zone[9] == 5*) GOTO 0x07FA
172: 0x07E6 [0x45] LOAD_SCHEDULED_TASK: Load scheduler "s058" with entities [EventEntity, EventEntity], work=[894*, 0*]
173: 0x07F7 [0x01] GOTO 0x0827
174: 0x07FA [0x02] IF !(Work_Zone[9] == 6*) GOTO 0x0816
175: 0x0802 [0x45] LOAD_SCHEDULED_TASK: Load scheduler "s058" with entities [EventEntity, EventEntity], work=[894*, 0*]
176: 0x0813 [0x01] GOTO 0x0827
177: 0x0816 [0x45] LOAD_SCHEDULED_TASK: Load scheduler "s050" with entities [EventEntity, EventEntity], work=[894*, 0*]

SUBROUTINE_0827:
178: 0x0827 [0x2B] Maat (ID: 17772594/0x010F3032) [16090*]:
    → "She was talking about putting on a new show with some Goblins and that she needed to get stronger."
179: 0x082E [0x23] WAIT_FOR_DIALOG_INTERACTION
180: 0x082F [0x27] REQ_SET(priority=0x08, entity_id=Maat (ID: 17772594/0x010F3032), tag_num=0x13)
181: 0x0836 [0x2B] Maat (ID: 17772594/0x010F3032) [16091*]:
    → "The price was most definitely right, and she was eager enough. Indeed, she would've made a fabulous student, but that outfit of hers..."
182: 0x083D [0x23] WAIT_FOR_DIALOG_INTERACTION
183: 0x083E [0x2A] GET_REQ_LEVEL(level=8, entity_id=Maat (ID: 17772594/0x010F3032))
184: 0x0844 [0x02] IF !(Work_Zone[9] == 5*) GOTO 0x085E
185: 0x084C [0x52] END_LOAD_SCHEDULER: End scheduler "s058" with entities [EventEntity, EventEntity], work=894*
186: 0x085B [0x01] GOTO 0x0887
187: 0x085E [0x02] IF !(Work_Zone[9] == 6*) GOTO 0x0878
188: 0x0866 [0x52] END_LOAD_SCHEDULER: End scheduler "s058" with entities [EventEntity, EventEntity], work=894*
189: 0x0875 [0x01] GOTO 0x0887
190: 0x0878 [0x52] END_LOAD_SCHEDULER: End scheduler "s050" with entities [EventEntity, EventEntity], work=894*

SUBROUTINE_0887:
191: 0x0887 [0x45] LOAD_SCHEDULED_TASK: Load scheduler "s051" with entities [EventEntity, EventEntity], work=[894*, 0*]
192: 0x0898 [0x27] REQ_SET(priority=0x08, entity_id=Maat (ID: 17772594/0x010F3032), tag_num=0x14)
193: 0x089F [0x2B] Maat (ID: 17772594/0x010F3032) [16092*]:
    → "All that fabric fluttering about was quite distracting. I simply suggested she go change, but she immediately replied "What's wrong with this outfit!? What else should an idol wear!?""
194: 0x08A6 [0x23] WAIT_FOR_DIALOG_INTERACTION
195: 0x08A7 [0x2A] GET_REQ_LEVEL(level=8, entity_id=Maat (ID: 17772594/0x010F3032))
196: 0x08AD [0x27] REQ_SET(priority=0x08, entity_id=Maat (ID: 17772594/0x010F3032), tag_num=0x15)
197: 0x08B4 [0x2B] Maat (ID: 17772594/0x010F3032) [16093*]:
    → "The heart of a young maiden is a strange thing indeed. Even after all these years, I have yet to understand its many mysteries."
198: 0x08BB [0x23] WAIT_FOR_DIALOG_INTERACTION
199: 0x08BC [0x2A] GET_REQ_LEVEL(level=8, entity_id=Maat (ID: 17772594/0x010F3032))
200: 0x08C2 [0x52] END_LOAD_SCHEDULER: End scheduler "s051" with entities [EventEntity, EventEntity], work=894*
201: 0x08D1 [0x02] IF !(Work_Zone[9] == 5*) GOTO 0x08ED
202: 0x08D9 [0x45] LOAD_SCHEDULED_TASK: Load scheduler "s059" with entities [EventEntity, EventEntity], work=[894*, 0*]
203: 0x08EA [0x01] GOTO 0x091A
204: 0x08ED [0x02] IF !(Work_Zone[9] == 6*) GOTO 0x0909
205: 0x08F5 [0x45] LOAD_SCHEDULED_TASK: Load scheduler "s059" with entities [EventEntity, EventEntity], work=[894*, 0*]
206: 0x0906 [0x01] GOTO 0x091A
207: 0x0909 [0x45] LOAD_SCHEDULED_TASK: Load scheduler "s052" with entities [EventEntity, EventEntity], work=[894*, 0*]

SUBROUTINE_091A:
208: 0x091A [0x27] REQ_SET(priority=0x08, entity_id=Maat (ID: 17772594/0x010F3032), tag_num=0x12)
209: 0x0921 [0x2B] Maat (ID: 17772594/0x010F3032) [16094*]:
    → "Hm? Actually, now that I think about it... That was when I started feeling under the weather too."
210: 0x0928 [0x23] WAIT_FOR_DIALOG_INTERACTION
211: 0x0929 [0x2B] Maat (ID: 17772594/0x010F3032) [16095*]:
    → "Well, I can't say for sure that there is a connection. Anyway, the favor I want to ask you concerns this young lady, you see."
212: 0x0930 [0x23] WAIT_FOR_DIALOG_INTERACTION
213: 0x0931 [0x2A] GET_REQ_LEVEL(level=8, entity_id=Maat (ID: 17772594/0x010F3032))
214: 0x0937 [0x02] IF !(Work_Zone[9] == 5*) GOTO 0x0951
215: 0x093F [0x52] END_LOAD_SCHEDULER: End scheduler "s059" with entities [EventEntity, EventEntity], work=894*
216: 0x094E [0x01] GOTO 0x097A
217: 0x0951 [0x02] IF !(Work_Zone[9] == 6*) GOTO 0x096B
218: 0x0959 [0x52] END_LOAD_SCHEDULER: End scheduler "s059" with entities [EventEntity, EventEntity], work=894*
219: 0x0968 [0x01] GOTO 0x097A
220: 0x096B [0x52] END_LOAD_SCHEDULER: End scheduler "s052" with entities [EventEntity, EventEntity], work=894*

SUBROUTINE_097A:
221: 0x097A [0x02] IF !(Work_Zone[9] == 5*) GOTO 0x0996
222: 0x0982 [0x45] LOAD_SCHEDULED_TASK: Load scheduler "s060" with entities [EventEntity, EventEntity], work=[894*, 0*]
223: 0x0993 [0x01] GOTO 0x09C3
224: 0x0996 [0x02] IF !(Work_Zone[9] == 6*) GOTO 0x09B2
225: 0x099E [0x45] LOAD_SCHEDULED_TASK: Load scheduler "s060" with entities [EventEntity, EventEntity], work=[894*, 0*]
226: 0x09AF [0x01] GOTO 0x09C3
227: 0x09B2 [0x45] LOAD_SCHEDULED_TASK: Load scheduler "s053" with entities [EventEntity, EventEntity], work=[894*, 0*]

SUBROUTINE_09C3:
228: 0x09C3 [0x27] REQ_SET(priority=0x08, entity_id=Maat (ID: 17772594/0x010F3032), tag_num=0x13)
229: 0x09CA [0x2A] GET_REQ_LEVEL(level=8, entity_id=Maat (ID: 17772594/0x010F3032))
230: 0x09D0 [0x27] REQ_SET(priority=0x0F, entity_id=Maat (ID: 17772594/0x010F3032), tag_num=0x29)
231: 0x09D7 [0x2A] GET_REQ_LEVEL(level=15, entity_id=Maat (ID: 17772594/0x010F3032))
232: 0x09DD [0x27] REQ_SET(priority=0x08, entity_id=Maat (ID: 17772594/0x010F3032), tag_num=0x18)
233: 0x09E4 [0x2B] Maat (ID: 17772594/0x010F3032) [16096*]:
    → "I need you to find her and return this basket for me. She forgot it in all of the hoopla."
234: 0x09EB [0x1C] WAIT(70* ticks)
235: 0x09EE [0x29] REQ_SET_WAIT(priority=0x0F, entity_id=LocalPlayer, tag_num=0x9D)
236: 0x09F5 [0x2A] GET_REQ_LEVEL(level=8, entity_id=Maat (ID: 17772594/0x010F3032))
237: 0x09FB [0x1C] WAIT(40* ticks)
238: 0x09FE [0x29] REQ_SET_WAIT(priority=0x0F, entity_id=LocalPlayer, tag_num=0x9E)
239: 0x0A05 [0x23] WAIT_FOR_DIALOG_INTERACTION
240: 0x0A06 [0x02] IF !(Work_Zone[9] == 5*) GOTO 0x0A20
241: 0x0A0E [0x52] END_LOAD_SCHEDULER: End scheduler "s060" with entities [EventEntity, EventEntity], work=894*
242: 0x0A1D [0x01] GOTO 0x0A49
243: 0x0A20 [0x02] IF !(Work_Zone[9] == 6*) GOTO 0x0A3A
244: 0x0A28 [0x52] END_LOAD_SCHEDULER: End scheduler "s060" with entities [EventEntity, EventEntity], work=894*
245: 0x0A37 [0x01] GOTO 0x0A49
246: 0x0A3A [0x52] END_LOAD_SCHEDULER: End scheduler "s053" with entities [EventEntity, EventEntity], work=894*

SUBROUTINE_0A49:
247: 0x0A49 [0x45] LOAD_SCHEDULED_TASK: Load scheduler "s054" with entities [EventEntity, EventEntity], work=[894*, 0*]
248: 0x0A5A [0x7B] Maat (ID: 17772594/0x010F3032) stops talking
249: 0x0A5F [0x27] REQ_SET(priority=0x08, entity_id=Maat (ID: 17772594/0x010F3032), tag_num=0x12)
250: 0x0A66 [0x2B] Maat (ID: 17772594/0x010F3032) [16097*]:
    → "You should first pay a visit to the junk dealer known as Muckvix in Lower Jeuno. He might know where to find her."
251: 0x0A6D [0x23] WAIT_FOR_DIALOG_INTERACTION
252: 0x0A6E [0x2A] GET_REQ_LEVEL(level=8, entity_id=Maat (ID: 17772594/0x010F3032))
253: 0x0A74 [0x27] REQ_SET(priority=0x08, entity_id=Maat (ID: 17772594/0x010F3032), tag_num=0x13)
254: 0x0A7B [0x2B] Maat (ID: 17772594/0x010F3032) [16098*]:
    → "The Goblin that brought her here was from there, after all. I appreciate your help with this matter."
255: 0x0A82 [0x23] WAIT_FOR_DIALOG_INTERACTION
256: 0x0A83 [0x5D] SET_MUSIC_VOLUME(volume=0*, fade_time=300*)
257: 0x0A88 [0x1A] CALL_SUBROUTINE(address=0x0064)
258: 0x0A8B [0x2A] GET_REQ_LEVEL(level=8, entity_id=Maat (ID: 17772594/0x010F3032))
259: 0x0A91 [0x52] END_LOAD_SCHEDULER: End scheduler "s054" with entities [EventEntity, EventEntity], work=894*
260: 0x0AA0 [0x1C] WAIT(60* ticks)
261: 0x0AA3 [0x5C] MUSIC_CONTROL: Set Idle (Day) music to song 117*
262: 0x0AA7 [0x5C] MUSIC_CONTROL: Set Idle (Night) music to song 117*
263: 0x0AAB [0x9A] WAIT_MUSIC_SERVER()
264: 0x0AAC [0x5D] SET_MUSIC_VOLUME(volume=127*, fade_time=1*)
265: 0x0AB1 [0x1C] WAIT(15* ticks)
266: 0x0AB4 [0xAB] EventEntity->DespawnValue = 0* // Set despawn value
267: 0x0AB8 [0x1C] WAIT(1* ticks)
268: 0x0ABB [0x46] CAMERA_CONTROL: Restore default settings
269: 0x0ABD [0x45] LOAD_SCHEDULED_TASK: Load scheduler "fdi2" with entities [EventEntity, EventEntity], work=[200*, 0*]
270: 0x0ACE [0x21] END_EVENT
271: 0x0ACF [0x00] END_REQSTACK()
```

### Event 10296

#### Metadata

| Field        | Value      |
|--------------|------------|
| Entrypoint   | 0x0AD0     |
| Data Size    | 6539 bytes |
| Instructions | 808        |

```
      00 01 02 03 04 05 06 07  08 09 0A 0B 0C 0D 0E 0F
      -- -- -- -- -- -- -- --  -- -- -- -- -- -- -- --
0AD0: 42 03 01 00 03 10 5D 01  80 2F 80 1A 64 00 46 01  B.....]../..d.F.
0AE0: 38 08 80 2F 00 32 30 0F  01 2F 00 46 31 0F 01 2F  8../.20../.F1../
0AF0: 00 47 31 0F 01 2F 00 48  31 0F 01 2F 00 49 31 0F  .G1../.H1../.I1.
0B00: 01 2F 00 4A 31 0F 01 4E  00 32 30 0F 01 4E 00 46  ./.J1..N.20..N.F
0B10: 31 0F 01 4E 00 47 31 0F  01 4E 00 48 31 0F 01 4E  1..N.G1..N.H1..N
0B20: 00 49 31 0F 01 94 01 32  30 0F 01 94 01 46 31 0F  .I1....20....F1.
0B30: 01 94 01 47 31 0F 01 94  01 48 31 0F 01 94 01 4A  ...G1....H1....J
0B40: 31 0F 01 94 01 F0 FF FF  7F BA 32 30 0F 01 33 80  1.........20..3.
0B50: 34 80 35 80 36 80 BA 46  31 0F 01 37 80 38 80 39  4.5.6..F1..7.8.9
0B60: 80 3A 80 BA 47 31 0F 01  3B 80 3C 80 39 80 3D 80  .:..G1..;.<.9.=.
0B70: BA 48 31 0F 01 3E 80 3F  80 35 80 40 80 59 05 49  .H1..>.?.5.@.Y.I
0B80: 31 0F 01 01 BA 49 31 0F  01 41 80 42 80 35 80 43  1....I1..A.B.5.C
0B90: 80 BA 4A 31 0F 01 44 80  45 80 35 80 46 80 BA F0  ..J1..D.E.5.F...
0BA0: FF FF 7F 47 80 48 80 35  80 49 80 29 10 49 31 0F  ...G.H.5.I.).I1.
0BB0: 01 02 80 32 30 0F 01 80  46 31 0F 01 80 47 31 0F  ...20...F1...G1.
0BC0: 01 80 48 31 0F 01 80 49  31 0F 01 80 4A 31 0F 01  ..H1...I1...J1..
0BD0: 80 F0 FF FF 7F 6C 48 31  0F 01 01 80 03 80 6C 49  .....lH1......lI
0BE0: 31 0F 01 01 80 03 80 4A  46 31 0F 01 32 30 0F 01  1......JF1..20..
0BF0: 4A 47 31 0F 01 32 30 0F  01 6F 76 46 31 0F 01 6F  JG1..20..ovF1..o
0C00: 76 47 31 0F 01 5C 00 10  80 5C 01 10 80 9A 5D 11  vG1..\...\....].
0C10: 80 03 80 27 10 32 30 0F  01 10 1C 30 80 45 4A 80  ...'.20....0.EJ.
0C20: F8 FF FF 7F F8 FF FF 7F  73 30 30 30 01 80 1A 43  ........s000...C
0C30: 00 2B 32 30 0F 01 4B 80  2A 10 32 30 0F 01 1C 30  .+20..K.*.20...0
0C40: 80 23 27 10 32 30 0F 01  11 52 4A 80 F8 FF FF 7F  .#'.20...RJ.....
0C50: F8 FF FF 7F 73 30 30 30  45 4A 80 F8 FF FF 7F F8  ....s000EJ......
0C60: FF FF 7F 73 30 30 31 01  80 79 00 32 30 0F 01 46  ...s001..y.20..F
0C70: 31 0F 01 27 10 46 31 0F  01 01 2B 46 31 0F 01 4C  1..'.F1...+F1..L
0C80: 80 29 10 46 31 0F 01 02  1C 30 80 23 52 4A 80 F8  .).F1....0.#RJ..
0C90: FF FF 7F F8 FF FF 7F 73  30 30 31 45 4A 80 F8 FF  .......s001EJ...
0CA0: FF 7F F8 FF FF 7F 73 30  30 32 01 80 79 00 32 30  ......s002..y.20
0CB0: 0F 01 47 31 0F 01 27 10  47 31 0F 01 13 2B 47 31  ..G1..'.G1...+G1
0CC0: 0F 01 4D 80 23 29 10 47  31 0F 01 14 23 27 10 47  ..M.#).G1...#'.G
0CD0: 31 0F 01 17 6C 48 31 0F  01 1F 80 03 80 27 10 48  1...lH1......'.H
0CE0: 31 0F 01 2C 52 4A 80 F8  FF FF 7F F8 FF FF 7F 73  1..,RJ.........s
0CF0: 30 30 32 45 4A 80 F8 FF  FF 7F F8 FF FF 7F 73 30  002EJ.........s0
0D00: 30 33 01 80 2B 48 31 0F  01 4E 80 1C 30 80 4A F0  03..+H1..N..0.J.
0D10: FF FF 7F 48 31 0F 01 4A  46 31 0F 01 48 31 0F 01  ...H1..JF1..H1..
0D20: 4A 47 31 0F 01 48 31 0F  01 79 00 32 30 0F 01 48  JG1..H1..y.20..H
0D30: 31 0F 01 1C 30 80 4A F0  FF FF 7F 48 31 0F 01 2A  1...0.J....H1..*
0D40: 10 48 31 0F 01 4A 48 31  0F 01 32 30 0F 01 4A F0  .H1..JH1..20..J.
0D50: FF FF 7F 48 31 0F 01 4A  46 31 0F 01 48 31 0F 01  ...H1..JF1..H1..
0D60: 4A 47 31 0F 01 48 31 0F  01 27 10 48 31 0F 01 2D  JG1..H1..'.H1..-
0D70: 52 4A 80 F8 FF FF 7F F8  FF FF 7F 73 30 30 33 45  RJ.........s003E
0D80: 4A 80 F8 FF FF 7F F8 FF  FF 7F 73 30 30 34 01 80  J.........s004..
0D90: 2B 48 31 0F 01 4F 80 2A  10 48 31 0F 01 4A 48 31  +H1..O.*.H1..JH1
0DA0: 0F 01 32 30 0F 01 2A 10  F0 FF FF 7F 23 52 4A 80  ..20..*.....#RJ.
0DB0: F8 FF FF 7F F8 FF FF 7F  73 30 30 34 45 4A 80 F8  ........s004EJ..
0DC0: FF FF 7F F8 FF FF 7F 73  30 30 35 01 80 27 10 48  .......s005..'.H
0DD0: 31 0F 01 1D 2B 48 31 0F  01 50 80 29 10 48 31 0F  1...+H1..P.).H1.
0DE0: 01 1E 23 27 10 48 31 0F  01 1F 52 4A 80 F8 FF FF  ..#'.H1...RJ....
0DF0: 7F F8 FF FF 7F 73 30 30  35 45 4A 80 F8 FF FF 7F  .....s005EJ.....
0E00: F8 FF FF 7F 73 30 30 36  01 80 7B F0 FF FF 7F 27  ....s006..{....'
0E10: 10 F0 FF FF 7F C2 2A 10  F0 FF FF 7F 52 4A 80 F8  ......*.....RJ..
0E20: FF FF 7F F8 FF FF 7F 73  30 30 36 02 87 7F 0F 80  .......s006.....
0E30: 80 47 0E 45 4A 80 F8 FF  FF 7F F8 FF FF 7F 73 67  .G.EJ.........sg
0E40: 30 37 01 80 01 C8 0E 02  87 7F 19 80 80 63 0E 45  07...........c.E
0E50: 4A 80 F8 FF FF 7F F8 FF  FF 7F 73 67 30 37 01 80  J.........sg07..
0E60: 01 C8 0E 02 87 7F 12 80  80 7F 0E 45 4A 80 F8 FF  ...........EJ...
0E70: FF 7F F8 FF FF 7F 73 74  30 37 01 80 01 C8 0E 02  ......st07......
0E80: 87 7F 14 80 80 9B 0E 45  4A 80 F8 FF FF 7F F8 FF  .......EJ.......
0E90: FF 7F 73 74 30 37 01 80  01 C8 0E 02 87 7F 1A 80  ..st07..........
0EA0: 80 B7 0E 45 4A 80 F8 FF  FF 7F F8 FF FF 7F 73 67  ...EJ.........sg
0EB0: 30 37 01 80 01 C8 0E 45  4A 80 F8 FF FF 7F F8 FF  07.....EJ.......
0EC0: FF 7F 73 30 30 37 01 80  6E F0 FF FF 7F 51 80 99  ..s007..n....Q..
0ED0: F0 FF FF 7F 22 00 33 01  37 52 80 53 80 54 80 46  ....".3.7R.S.T.F
0EE0: 80 BB 55 80 F8 FF FF 7F  F8 FF FF 7F 73 30 30 31  ..U.........s001
0EF0: 01 80 1C 56 80 4E 00 4A  31 0F 01 D8 01 4A 31 0F  ...V.N.J1....J1.
0F00: 01 57 80 D8 03 4A 31 0F  01 57 80 02 87 7F 0F 80  .W...J1..W......
0F10: 80 25 0F 52 4A 80 F8 FF  FF 7F F8 FF FF 7F 73 67  .%.RJ.........sg
0F20: 30 37 01 9C 0F 02 87 7F  19 80 80 3F 0F 52 4A 80  07.........?.RJ.
0F30: F8 FF FF 7F F8 FF FF 7F  73 67 30 37 01 9C 0F 02  ........sg07....
0F40: 87 7F 12 80 80 59 0F 52  4A 80 F8 FF FF 7F F8 FF  .....Y.RJ.......
0F50: FF 7F 73 74 30 37 01 9C  0F 02 87 7F 14 80 80 73  ..st07.........s
0F60: 0F 52 4A 80 F8 FF FF 7F  F8 FF FF 7F 73 74 30 37  .RJ.........st07
0F70: 01 9C 0F 02 87 7F 1A 80  80 8D 0F 52 4A 80 F8 FF  ...........RJ...
0F80: FF 7F F8 FF FF 7F 73 67  30 37 01 9C 0F 52 4A 80  ......sg07...RJ.
0F90: F8 FF FF 7F F8 FF FF 7F  73 30 30 37 45 4A 80 F8  ........s007EJ..
0FA0: FF FF 7F F8 FF FF 7F 73  30 30 38 01 80 1C 0F 80  .......s008.....
0FB0: D8 00 4A 31 0F 01 45 4A  80 F8 FF FF 7F F8 FF FF  ..J1..EJ........
0FC0: 7F 32 30 30 36 01 80 1C  58 80 52 4A 80 F8 FF FF  .2006...X.RJ....
0FD0: 7F F8 FF FF 7F 73 30 30  38 45 4A 80 F8 FF FF 7F  .....s008EJ.....
0FE0: F8 FF FF 7F 73 30 30 39  01 80 27 10 48 31 0F 01  ....s009..'.H1..
0FF0: 21 2B 48 31 0F 01 59 80  1C 5A 80 23 52 4A 80 F8  !+H1..Y..Z.#RJ..
1000: FF FF 7F F8 FF FF 7F 73  30 30 39 45 4A 80 F8 FF  .......s009EJ...
1010: FF 7F F8 FF FF 7F 73 30  31 30 01 80 27 10 48 31  ......s010..'.H1
1020: 0F 01 23 2B 48 31 0F 01  5B 80 29 10 48 31 0F 01  ..#+H1..[.).H1..
1030: 24 23 22 01 33 00 5D 01  80 30 80 52 4A 80 F8 FF  $#".3.]..0.RJ...
1040: FF 7F F8 FF FF 7F 73 30  31 30 45 4A 80 F8 FF FF  ......s010EJ....
1050: 7F F8 FF FF 7F 73 30 31  31 01 80 CD 5C 80 F8 FF  .....s011...\...
1060: FF 7F F8 FF FF 7F 73 30  30 31 01 80 45 4A 80 F8  ......s001..EJ..
1070: FF FF 7F F8 FF FF 7F 31  31 30 38 01 80 1C 58 80  .......1108...X.
1080: 5D 11 80 30 80 27 10 46  31 0F 01 1D 1C 06 80 52  ]..0.'.F1......R
1090: 4A 80 F8 FF FF 7F F8 FF  FF 7F 73 30 31 31 45 4A  J.........s011EJ
10A0: 80 F8 FF FF 7F F8 FF FF  7F 73 30 31 32 01 80 2B  .........s012..+
10B0: 46 31 0F 01 5D 80 29 10  46 31 0F 01 1E 23 6B 69  F1..].).F1...#ki
10C0: 64 6C 30 48 31 0F 01 52  4A 80 F8 FF FF 7F F8 FF  dl0H1..RJ.......
10D0: FF 7F 73 30 31 32 45 4A  80 F8 FF FF 7F F8 FF FF  ..s012EJ........
10E0: 7F 73 30 31 33 01 80 27  10 47 31 0F 01 0F 2B 47  .s013..'.G1...+G
10F0: 31 0F 01 5E 80 29 10 47  31 0F 01 10 23 27 10 47  1..^.).G1...#'.G
1100: 31 0F 01 11 29 10 47 31  0F 01 12 52 4A 80 F8 FF  1...).G1...RJ...
1110: FF 7F F8 FF FF 7F 73 30  31 33 45 4A 80 F8 FF FF  ......s013EJ....
1120: 7F F8 FF FF 7F 73 30 31  34 01 80 27 10 47 31 0F  .....s014..'.G1.
1130: 01 24 2A 10 47 31 0F 01  27 10 47 31 0F 01 09 2B  .$*.G1..'.G1...+
1140: 47 31 0F 01 5F 80 1C 60  80 79 00 48 31 0F 01 47  G1.._..`.y.H1..G
1150: 31 0F 01 27 10 46 31 0F  01 17 29 10 47 31 0F 01  1..'.F1...).G1..
1160: 0A 23 27 10 47 31 0F 01  17 52 4A 80 F8 FF FF 7F  .#'.G1...RJ.....
1170: F8 FF FF 7F 73 30 31 34  45 4A 80 F8 FF FF 7F F8  ....s014EJ......
1180: FF FF 7F 73 30 31 35 01  80 27 10 48 31 0F 01 25  ...s015..'.H1..%
1190: 2B 48 31 0F 01 61 80 29  10 48 31 0F 01 26 23 52  +H1..a.).H1..&#R
11A0: 4A 80 F8 FF FF 7F F8 FF  FF 7F 73 30 31 35 45 4A  J.........s015EJ
11B0: 80 F8 FF FF 7F F8 FF FF  7F 73 30 31 36 01 80 27  .........s016..'
11C0: 10 47 31 0F 01 13 2B 47  31 0F 01 62 80 1C 06 80  .G1...+G1..b....
11D0: 6B 69 64 6C 30 48 31 0F  01 29 10 47 31 0F 01 14  kidl0H1..).G1...
11E0: 23 27 10 47 31 0F 01 17  52 4A 80 F8 FF FF 7F F8  #'.G1...RJ......
11F0: FF FF 7F 73 30 31 36 45  4A 80 F8 FF FF 7F F8 FF  ...s016EJ.......
1200: FF 7F 73 30 31 37 01 80  27 10 46 31 0F 01 1F 2B  ..s017..'.F1...+
1210: 46 31 0F 01 63 80 1C 60  80 79 00 48 31 0F 01 46  F1..c..`.y.H1..F
1220: 31 0F 01 29 10 46 31 0F  01 20 23 27 10 46 31 0F  1..).F1.. #'.F1.
1230: 01 17 52 4A 80 F8 FF FF  7F F8 FF FF 7F 73 30 31  ..RJ.........s01
1240: 37 45 4A 80 F8 FF FF 7F  F8 FF FF 7F 73 30 31 38  7EJ.........s018
1250: 01 80 79 00 48 31 0F 01  32 30 0F 01 27 10 48 31  ..y.H1..20..'.H1
1260: 0F 01 27 2B 48 31 0F 01  64 80 1C 5A 80 23 52 4A  ..'+H1..d..Z.#RJ
1270: 80 F8 FF FF 7F F8 FF FF  7F 73 30 31 38 45 4A 80  .........s018EJ.
1280: F8 FF FF 7F F8 FF FF 7F  73 30 31 39 01 80 2B 48  ........s019..+H
1290: 31 0F 01 65 80 1C 5A 80  29 10 48 31 0F 01 28 23  1..e..Z.).H1..(#
12A0: 27 10 48 31 0F 01 29 52  4A 80 F8 FF FF 7F F8 FF  '.H1..)RJ.......
12B0: FF 7F 73 30 31 39 45 4A  80 F8 FF FF 7F F8 FF FF  ..s019EJ........
12C0: 7F 73 30 32 30 01 80 27  10 32 30 0F 01 12 2B 32  .s020..'.20...+2
12D0: 30 0F 01 66 80 23 2B 32  30 0F 01 67 80 2A 10 32  0..f.#+20..g.*.2
12E0: 30 0F 01 23 27 10 32 30  0F 01 13 52 4A 80 F8 FF  0..#'.20...RJ...
12F0: FF 7F F8 FF FF 7F 73 30  32 30 45 4A 80 F8 FF FF  ......s020EJ....
1300: 7F F8 FF FF 7F 73 30 32  31 01 80 6E 48 31 0F 01  .....s021..nH1..
1310: 68 80 99 48 31 0F 01 2B  48 31 0F 01 69 80 1C 06  h..H1..+H1..i...
1320: 80 45 00 80 48 31 0F 01  48 31 0F 01 30 64 6B 6E  .E..H1..H1..0dkn
1330: 01 80 1C 1E 80 23 52 4A  80 F8 FF FF 7F F8 FF FF  .....#RJ........
1340: 7F 73 30 32 31 45 4A 80  F8 FF FF 7F F8 FF FF 7F  .s021EJ.........
1350: 73 30 32 32 01 80 27 10  46 31 0F 01 1D 2B 46 31  s022..'.F1...+F1
1360: 0F 01 6A 80 1C 30 80 23  27 10 47 31 0F 01 1F 2B  ..j..0.#'.G1...+
1370: 47 31 0F 01 6B 80 29 10  47 31 0F 01 20 23 52 4A  G1..k.).G1.. #RJ
1380: 80 F8 FF FF 7F F8 FF FF  7F 73 30 32 32 45 4A 80  .........s022EJ.
1390: F8 FF FF 7F F8 FF FF 7F  73 30 32 33 01 80 27 10  ........s023..'.
13A0: 48 31 0F 01 0D 2B 48 31  0F 01 6C 80 1C 06 80 45  H1...+H1..l....E
13B0: 00 80 48 31 0F 01 48 31  0F 01 30 64 6B 6E 01 80  ..H1..H1..0dkn..
13C0: 1C 30 80 45 00 80 48 31  0F 01 48 31 0F 01 30 64  .0.E..H1..H1..0d
13D0: 6B 6E 01 80 27 10 47 31  0F 01 17 27 10 46 31 0F  kn..'.G1...'.F1.
13E0: 01 17 1C 6D 80 23 27 10  48 31 0F 01 11 52 4A 80  ...m.#'.H1...RJ.
13F0: F8 FF FF 7F F8 FF FF 7F  73 30 32 33 45 4A 80 F8  ........s023EJ..
1400: FF FF 7F F8 FF FF 7F 73  30 32 34 01 80 27 10 32  .......s024..'.2
1410: 30 0F 01 10 2B 32 30 0F  01 6E 80 2A 10 32 30 0F  0...+20..n.*.20.
1420: 01 23 27 10 32 30 0F 01  11 52 4A 80 F8 FF FF 7F  .#'.20...RJ.....
1430: F8 FF FF 7F 73 30 32 34  45 4A 80 F8 FF FF 7F F8  ....s024EJ......
1440: FF FF 7F 73 30 32 35 01  80 27 10 46 31 0F 01 05  ...s025..'.F1...
1450: 2B 46 31 0F 01 6F 80 29  10 46 31 0F 01 06 1C 30  +F1..o.).F1....0
1460: 80 23 27 10 46 31 0F 01  07 52 4A 80 F8 FF FF 7F  .#'.F1...RJ.....
1470: F8 FF FF 7F 73 30 32 35  45 4A 80 F8 FF FF 7F F8  ....s025EJ......
1480: FF FF 7F 73 30 32 36 01  80 79 00 48 31 0F 01 47  ...s026..y.H1..G
1490: 31 0F 01 27 10 47 31 0F  01 13 2B 47 31 0F 01 70  1..'.G1...+G1..p
14A0: 80 23 2B 47 31 0F 01 71  80 29 10 47 31 0F 01 14  .#+G1..q.).G1...
14B0: 23 27 10 47 31 0F 01 17  52 4A 80 F8 FF FF 7F F8  #'.G1...RJ......
14C0: FF FF 7F 73 30 32 36 45  4A 80 F8 FF FF 7F F8 FF  ...s026EJ.......
14D0: FF 7F 73 30 32 37 01 80  6E 48 31 0F 01 1D 80 99  ..s027..nH1.....
14E0: 48 31 0F 01 2B 48 31 0F  01 72 80 1C 5A 80 23 52  H1..+H1..r..Z.#R
14F0: 4A 80 F8 FF FF 7F F8 FF  FF 7F 73 30 32 37 45 4A  J.........s027EJ
1500: 80 F8 FF FF 7F F8 FF FF  7F 73 30 32 38 01 80 1C  .........s028...
1510: 06 80 7B 48 31 0F 01 27  10 48 31 0F 01 2E 1C 30  ..{H1..'.H1....0
1520: 80 4A F0 FF FF 7F 48 31  0F 01 1C 58 80 4A 32 30  .J....H1...X.J20
1530: 0F 01 4A 31 0F 01 7B 32  30 0F 01 5C 00 73 80 5C  ..J1..{20..\.s.\
1540: 01 73 80 9A 4A 47 31 0F  01 F0 FF FF 7F 27 10 46  .s..JG1......'.F
1550: 31 0F 01 24 52 4A 80 F8  FF FF 7F F8 FF FF 7F 73  1..$RJ.........s
1560: 30 32 38 02 87 7F 0F 80  80 7F 15 45 4A 80 F8 FF  028........EJ...
1570: FF 7F F8 FF FF 7F 73 67  32 39 01 80 01 1C 16 02  ......sg29......
1580: 87 7F 19 80 80 9B 15 45  4A 80 F8 FF FF 7F F8 FF  .......EJ.......
1590: FF 7F 73 65 32 39 01 80  01 1C 16 02 87 7F 12 80  ..se29..........
15A0: 80 B7 15 45 4A 80 F8 FF  FF 7F F8 FF FF 7F 73 74  ...EJ.........st
15B0: 32 39 01 80 01 1C 16 02  87 7F 14 80 80 D3 15 45  29.............E
15C0: 4A 80 F8 FF FF 7F F8 FF  FF 7F 73 74 32 39 01 80  J.........st29..
15D0: 01 1C 16 02 87 7F 1D 80  80 EF 15 45 4A 80 F8 FF  ...........EJ...
15E0: FF 7F F8 FF FF 7F 73 6D  32 39 01 80 01 1C 16 02  ......sm29......
15F0: 87 7F 1A 80 80 0B 16 45  4A 80 F8 FF FF 7F F8 FF  .......EJ.......
1600: FF 7F 73 67 32 39 01 80  01 1C 16 45 4A 80 F8 FF  ..sg29.....EJ...
1610: FF 7F F8 FF FF 7F 73 30  32 39 01 80 6C 32 30 0F  ......s029..l20.
1620: 01 01 80 03 80 6C 49 31  0F 01 1F 80 03 80 2C 49  .....lI1......,I
1630: 31 0F 01 49 31 0F 01 63  6F 72 70 79 00 46 31 0F  1..I1..corpy.F1.
1640: 01 F0 FF FF 7F 2B 46 31  0F 01 74 80 2A 10 46 31  .....+F1..t.*.F1
1650: 0F 01 4A F0 FF FF 7F 46  31 0F 01 23 27 10 46 31  ..J....F1..#'.F1
1660: 0F 01 09 02 01 00 03 80  00 75 16 2B 46 31 0F 01  .........u.+F1..
1670: 75 80 01 7C 16 2B 46 31  0F 01 76 80 29 10 46 31  u..|.+F1..v.).F1
1680: 0F 01 0A 23 02 87 7F 0F  80 80 9E 16 52 4A 80 F8  ...#........RJ..
1690: FF FF 7F F8 FF FF 7F 73  67 32 39 01 2F 17 02 87  .......sg29./...
16A0: 7F 19 80 80 B8 16 52 4A  80 F8 FF FF 7F F8 FF FF  ......RJ........
16B0: 7F 73 65 32 39 01 2F 17  02 87 7F 12 80 80 D2 16  .se29./.........
16C0: 52 4A 80 F8 FF FF 7F F8  FF FF 7F 73 74 32 39 01  RJ.........st29.
16D0: 2F 17 02 87 7F 14 80 80  EC 16 52 4A 80 F8 FF FF  /.........RJ....
16E0: 7F F8 FF FF 7F 73 74 32  39 01 2F 17 02 87 7F 1D  .....st29./.....
16F0: 80 80 06 17 52 4A 80 F8  FF FF 7F F8 FF FF 7F 73  ....RJ.........s
1700: 6D 32 39 01 2F 17 02 87  7F 1A 80 80 20 17 52 4A  m29./....... .RJ
1710: 80 F8 FF FF 7F F8 FF FF  7F 73 67 32 39 01 2F 17  .........sg29./.
1720: 52 4A 80 F8 FF FF 7F F8  FF FF 7F 73 30 32 39 45  RJ.........s029E
1730: 4A 80 F8 FF FF 7F F8 FF  FF 7F 73 30 33 30 01 80  J.........s030..
1740: 4E 01 4A 31 0F 01 BA 32  30 0F 01 41 80 42 80 35  N.J1...20..A.B.5
1750: 80 43 80 6C 49 31 0F 01  01 80 03 80 6C 32 30 0F  .C.lI1......l20.
1760: 01 1F 80 03 80 4B 32 30  0F 01 77 80 6F 76 32 30  .....K20..w.ov20
1770: 0F 01 27 10 32 30 0F 01  2B 27 10 47 31 0F 01 01  ..'.20..+'.G1...
1780: 2B 46 31 0F 01 78 80 23  2B 46 31 0F 01 79 80 1C  +F1..x.#+F1..y..
1790: 5A 80 29 10 47 31 0F 01  02 23 52 4A 80 F8 FF FF  Z.).G1...#RJ....
17A0: 7F F8 FF FF 7F 73 30 33  30 02 87 7F 0F 80 80 C5  .....s030.......
17B0: 17 45 4A 80 F8 FF FF 7F  F8 FF FF 7F 73 67 33 31  .EJ.........sg31
17C0: 01 80 01 46 18 02 87 7F  19 80 80 E1 17 45 4A 80  ...F.........EJ.
17D0: F8 FF FF 7F F8 FF FF 7F  73 65 33 31 01 80 01 46  ........se31...F
17E0: 18 02 87 7F 12 80 80 FD  17 45 4A 80 F8 FF FF 7F  .........EJ.....
17F0: F8 FF FF 7F 73 74 33 31  01 80 01 46 18 02 87 7F  ....st31...F....
1800: 14 80 80 19 18 45 4A 80  F8 FF FF 7F F8 FF FF 7F  .....EJ.........
1810: 73 74 33 31 01 80 01 46  18 02 87 7F 1A 80 80 35  st31...F.......5
1820: 18 45 4A 80 F8 FF FF 7F  F8 FF FF 7F 73 67 33 31  .EJ.........sg31
1830: 01 80 01 46 18 45 4A 80  F8 FF FF 7F F8 FF FF 7F  ...F.EJ.........
1840: 73 30 33 31 01 80 27 10  46 31 0F 01 13 2B 46 31  s031..'.F1...+F1
1850: 0F 01 7A 80 23 2B 46 31  0F 01 7B 80 29 10 46 31  ..z.#+F1..{.).F1
1860: 0F 01 14 23 02 87 7F 0F  80 80 7E 18 52 4A 80 F8  ...#......~.RJ..
1870: FF FF 7F F8 FF FF 7F 73  67 33 31 01 F5 18 02 87  .......sg31.....
1880: 7F 19 80 80 98 18 52 4A  80 F8 FF FF 7F F8 FF FF  ......RJ........
1890: 7F 73 65 33 31 01 F5 18  02 87 7F 12 80 80 B2 18  .se31...........
18A0: 52 4A 80 F8 FF FF 7F F8  FF FF 7F 73 74 33 31 01  RJ.........st31.
18B0: F5 18 02 87 7F 14 80 80  CC 18 52 4A 80 F8 FF FF  ..........RJ....
18C0: 7F F8 FF FF 7F 73 74 33  31 01 F5 18 02 87 7F 1A  .....st31.......
18D0: 80 80 E6 18 52 4A 80 F8  FF FF 7F F8 FF FF 7F 73  ....RJ.........s
18E0: 67 33 31 01 F5 18 52 4A  80 F8 FF FF 7F F8 FF FF  g31...RJ........
18F0: 7F 73 30 33 31 45 4A 80  F8 FF FF 7F F8 FF FF 7F  .s031EJ.........
1900: 73 30 33 32 01 80 7B 46  31 0F 01 27 10 46 31 0F  s032..{F1..'.F1.
1910: 01 0F 03 03 10 7C 80 2B  46 31 0F 01 7D 80 29 10  .....|.+F1..}.).
1920: 46 31 0F 01 10 23 1A 64  00 36 01 80 01 80 01 80  F1...#.d.6......
1930: B6 00 7E 80 22 00 BA 49  31 0F 01 7F 80 80 80 39  ..~."..I1......9
1940: 80 81 80 6C 49 31 0F 01  1F 80 03 80 29 10 49 31  ...lI1......).I1
1950: 0F 01 03 1C 12 80 80 49  31 0F 01 77 82 80 83 80  .......I1..w....
1960: C5 84 80 49 31 0F 01 49  31 0F 01 73 30 30 30 01  ...I1..I1..s000.
1970: 80 48 85 80 5C 00 86 80  5C 01 86 80 9A 52 4A 80  .H..\...\....RJ.
1980: F8 FF FF 7F F8 FF FF 7F  73 30 33 32 45 4A 80 F8  ........s032EJ..
1990: FF FF 7F F8 FF FF 7F 73  30 33 33 01 80 1A 43 00  .......s033...C.
19A0: 1C 6D 80 52 4A 80 F8 FF  FF 7F F8 FF FF 7F 73 30  .m.RJ.........s0
19B0: 33 33 45 4A 80 F8 FF FF  7F F8 FF FF 7F 73 30 33  33EJ.........s03
19C0: 34 01 80 C4 02 87 80 49  31 0F 01 F8 FF FF 7F 1C  4......I1.......
19D0: 58 80 1A 64 00 C5 84 80  49 31 0F 01 49 31 0F 01  X..d....I1..I1..
19E0: 6B 69 6C 30 01 80 B6 00  88 80 22 01 59 05 49 31  kil0......".Y.I1
19F0: 0F 01 00 6C 49 31 0F 01  01 80 03 80 78 48 85 80  ...lI1......xH..
1A00: 5D 01 80 2F 80 5C 00 5A  80 5C 01 5A 80 9A 5D 11  ]../.\.Z.\.Z..].
1A10: 80 03 80 52 4A 80 F8 FF  FF 7F F8 FF FF 7F 73 30  ...RJ.........s0
1A20: 33 34 02 87 7F 0F 80 80  3E 1A 45 4A 80 F8 FF FF  34......>.EJ....
1A30: 7F F8 FF FF 7F 73 67 33  35 01 80 01 DB 1A 02 87  .....sg35.......
1A40: 7F 19 80 80 5A 1A 45 4A  80 F8 FF FF 7F F8 FF FF  ....Z.EJ........
1A50: 7F 73 65 33 35 01 80 01  DB 1A 02 87 7F 12 80 80  .se35...........
1A60: 76 1A 45 4A 80 F8 FF FF  7F F8 FF FF 7F 73 74 33  v.EJ.........st3
1A70: 35 01 80 01 DB 1A 02 87  7F 14 80 80 92 1A 45 4A  5.............EJ
1A80: 80 F8 FF FF 7F F8 FF FF  7F 73 74 33 35 01 80 01  .........st35...
1A90: DB 1A 02 87 7F 1D 80 80  AE 1A 45 4A 80 F8 FF FF  ..........EJ....
1AA0: 7F F8 FF FF 7F 73 6D 33  35 01 80 01 DB 1A 02 87  .....sm35.......
1AB0: 7F 1A 80 80 CA 1A 45 4A  80 F8 FF FF 7F F8 FF FF  ......EJ........
1AC0: 7F 73 67 33 35 01 80 01  DB 1A 45 4A 80 F8 FF FF  .sg35.....EJ....
1AD0: 7F F8 FF FF 7F 73 30 33  35 01 80 1A 43 00 27 10  .....s035...C.'.
1AE0: 46 31 0F 01 11 79 00 46  31 0F 01 F0 FF FF 7F 2B  F1...y.F1......+
1AF0: 46 31 0F 01 89 80 29 10  46 31 0F 01 12 23 27 10  F1....).F1...#'.
1B00: 46 31 0F 01 13 2B 46 31  0F 01 8A 80 29 10 46 31  F1...+F1....).F1
1B10: 0F 01 14 23 27 10 46 31  0F 01 17 03 02 00 01 80  ...#'.F1........
1B20: 03 00 10 03 80 02 00 10  01 80 01 B6 20 03 03 10  ............ ...
1B30: 8B 80 24 8C 80 01 80 02  00 25 02 00 10 01 80 00  ..$......%......
1B40: 0C 1D 7B 46 31 0F 01 02  87 7F 0F 80 80 61 1B 52  ..{F1........a.R
1B50: 4A 80 F8 FF FF 7F F8 FF  FF 7F 73 67 33 35 01 F2  J.........sg35..
1B60: 1B 02 87 7F 19 80 80 7B  1B 52 4A 80 F8 FF FF 7F  .......{.RJ.....
1B70: F8 FF FF 7F 73 65 33 35  01 F2 1B 02 87 7F 12 80  ....se35........
1B80: 80 95 1B 52 4A 80 F8 FF  FF 7F F8 FF FF 7F 73 74  ...RJ.........st
1B90: 33 35 01 F2 1B 02 87 7F  14 80 80 AF 1B 52 4A 80  35...........RJ.
1BA0: F8 FF FF 7F F8 FF FF 7F  73 74 33 35 01 F2 1B 02  ........st35....
1BB0: 87 7F 1D 80 80 C9 1B 52  4A 80 F8 FF FF 7F F8 FF  .......RJ.......
1BC0: FF 7F 73 6D 33 35 01 F2  1B 02 87 7F 1A 80 80 E3  ..sm35..........
1BD0: 1B 52 4A 80 F8 FF FF 7F  F8 FF FF 7F 73 67 33 35  .RJ.........sg35
1BE0: 01 F2 1B 52 4A 80 F8 FF  FF 7F F8 FF FF 7F 73 30  ...RJ.........s0
1BF0: 33 35 45 4A 80 F8 FF FF  7F F8 FF FF 7F 73 30 33  35EJ.........s03
1C00: 36 01 80 27 10 46 31 0F  01 1B 2B 46 31 0F 01 8D  6..'.F1...+F1...
1C10: 80 1C 2C 80 45 00 80 F8  FF FF 7F F8 FF FF 7F 73  ..,.E..........s
1C20: 30 32 39 01 80 29 10 46  31 0F 01 1C 23 27 10 46  029..).F1...#'.F
1C30: 31 0F 01 17 1C 06 80 79  00 46 31 0F 01 F0 FF FF  1......y.F1.....
1C40: 7F 52 4A 80 F8 FF FF 7F  F8 FF FF 7F 73 30 33 36  .RJ.........s036
1C50: 02 87 7F 0F 80 80 6C 1C  45 4A 80 F8 FF FF 7F F8  ......l.EJ......
1C60: FF FF 7F 73 67 33 38 01  80 01 09 1D 02 87 7F 19  ...sg38.........
1C70: 80 80 88 1C 45 4A 80 F8  FF FF 7F F8 FF FF 7F 73  ....EJ.........s
1C80: 65 33 38 01 80 01 09 1D  02 87 7F 12 80 80 A4 1C  e38.............
1C90: 45 4A 80 F8 FF FF 7F F8  FF FF 7F 73 74 33 38 01  EJ.........st38.
1CA0: 80 01 09 1D 02 87 7F 14  80 80 C0 1C 45 4A 80 F8  ............EJ..
1CB0: FF FF 7F F8 FF FF 7F 73  74 33 38 01 80 01 09 1D  .......st38.....
1CC0: 02 87 7F 1D 80 80 DC 1C  45 4A 80 F8 FF FF 7F F8  ........EJ......
1CD0: FF FF 7F 73 6D 33 38 01  80 01 09 1D 02 87 7F 1A  ...sm38.........
1CE0: 80 80 F8 1C 45 4A 80 F8  FF FF 7F F8 FF FF 7F 73  ....EJ.........s
1CF0: 67 33 38 01 80 01 09 1D  45 4A 80 F8 FF FF 7F F8  g38.....EJ......
1D00: FF FF 7F 73 30 33 38 01  80 01 B3 20 02 00 10 03  ...s038.... ....
1D10: 80 00 E2 1E 7B 46 31 0F  01 02 87 7F 0F 80 80 33  ....{F1........3
1D20: 1D 52 4A 80 F8 FF FF 7F  F8 FF FF 7F 73 67 33 35  .RJ.........sg35
1D30: 01 C4 1D 02 87 7F 19 80  80 4D 1D 52 4A 80 F8 FF  .........M.RJ...
1D40: FF 7F F8 FF FF 7F 73 65  33 35 01 C4 1D 02 87 7F  ......se35......
1D50: 12 80 80 67 1D 52 4A 80  F8 FF FF 7F F8 FF FF 7F  ...g.RJ.........
1D60: 73 74 33 35 01 C4 1D 02  87 7F 14 80 80 81 1D 52  st35...........R
1D70: 4A 80 F8 FF FF 7F F8 FF  FF 7F 73 74 33 35 01 C4  J.........st35..
1D80: 1D 02 87 7F 1D 80 80 9B  1D 52 4A 80 F8 FF FF 7F  .........RJ.....
1D90: F8 FF FF 7F 73 6D 33 35  01 C4 1D 02 87 7F 1A 80  ....sm35........
1DA0: 80 B5 1D 52 4A 80 F8 FF  FF 7F F8 FF FF 7F 73 67  ...RJ.........sg
1DB0: 33 35 01 C4 1D 52 4A 80  F8 FF FF 7F F8 FF FF 7F  35...RJ.........
1DC0: 73 30 33 35 45 4A 80 F8  FF FF 7F F8 FF FF 7F 73  s035EJ.........s
1DD0: 30 33 36 01 80 27 10 46  31 0F 01 1B 2B 46 31 0F  036..'.F1...+F1.
1DE0: 01 8E 80 1C 2C 80 45 00  80 F8 FF FF 7F F8 FF FF  ....,.E.........
1DF0: 7F 73 30 33 32 01 80 29  10 46 31 0F 01 1C 23 27  .s032..).F1...#'
1E00: 10 46 31 0F 01 17 79 00  46 31 0F 01 F0 FF FF 7F  .F1...y.F1......
1E10: 3C 02 00 03 80 03 80 52  4A 80 F8 FF FF 7F F8 FF  <......RJ.......
1E20: FF 7F 73 30 33 36 02 87  7F 0F 80 80 42 1E 45 4A  ..s036......B.EJ
1E30: 80 F8 FF FF 7F F8 FF FF  7F 73 67 33 35 01 80 01  .........sg35...
1E40: DF 1E 02 87 7F 19 80 80  5E 1E 45 4A 80 F8 FF FF  ........^.EJ....
1E50: 7F F8 FF FF 7F 73 65 33  35 01 80 01 DF 1E 02 87  .....se35.......
1E60: 7F 12 80 80 7A 1E 45 4A  80 F8 FF FF 7F F8 FF FF  ....z.EJ........
1E70: 7F 73 74 33 35 01 80 01  DF 1E 02 87 7F 14 80 80  .st35...........
1E80: 96 1E 45 4A 80 F8 FF FF  7F F8 FF FF 7F 73 74 33  ..EJ.........st3
1E90: 35 01 80 01 DF 1E 02 87  7F 1D 80 80 B2 1E 45 4A  5.............EJ
1EA0: 80 F8 FF FF 7F F8 FF FF  7F 73 6D 33 35 01 80 01  .........sm35...
1EB0: DF 1E 02 87 7F 1A 80 80  CE 1E 45 4A 80 F8 FF FF  ..........EJ....
1EC0: 7F F8 FF FF 7F 73 67 33  35 01 80 01 DF 1E 45 4A  .....sg35.....EJ
1ED0: 80 F8 FF FF 7F F8 FF FF  7F 73 30 33 35 01 80 01  .........s035...
1EE0: B3 20 02 00 10 05 80 00  B3 20 7B 46 31 0F 01 02  . ....... {F1...
1EF0: 87 7F 0F 80 80 09 1F 52  4A 80 F8 FF FF 7F F8 FF  .......RJ.......
1F00: FF 7F 73 67 33 35 01 9A  1F 02 87 7F 19 80 80 23  ..sg35.........#
1F10: 1F 52 4A 80 F8 FF FF 7F  F8 FF FF 7F 73 65 33 35  .RJ.........se35
1F20: 01 9A 1F 02 87 7F 12 80  80 3D 1F 52 4A 80 F8 FF  .........=.RJ...
1F30: FF 7F F8 FF FF 7F 73 74  33 35 01 9A 1F 02 87 7F  ......st35......
1F40: 14 80 80 57 1F 52 4A 80  F8 FF FF 7F F8 FF FF 7F  ...W.RJ.........
1F50: 73 74 33 35 01 9A 1F 02  87 7F 1D 80 80 71 1F 52  st35.........q.R
1F60: 4A 80 F8 FF FF 7F F8 FF  FF 7F 73 6D 33 35 01 9A  J.........sm35..
1F70: 1F 02 87 7F 1A 80 80 8B  1F 52 4A 80 F8 FF FF 7F  .........RJ.....
1F80: F8 FF FF 7F 73 67 33 35  01 9A 1F 52 4A 80 F8 FF  ....sg35...RJ...
1F90: FF 7F F8 FF FF 7F 73 30  33 35 45 4A 80 F8 FF FF  ......s035EJ....
1FA0: 7F F8 FF FF 7F 73 30 33  37 01 80 27 10 46 31 0F  .....s037..'.F1.
1FB0: 01 05 2B 46 31 0F 01 8F  80 29 10 46 31 0F 01 06  ..+F1....).F1...
1FC0: 23 79 00 46 31 0F 01 F0  FF FF 7F 52 4A 80 F8 FF  #y.F1......RJ...
1FD0: FF 7F F8 FF FF 7F 73 30  33 37 02 87 7F 0F 80 80  ......s037......
1FE0: F6 1F 45 4A 80 F8 FF FF  7F F8 FF FF 7F 73 67 33  ..EJ.........sg3
1FF0: 35 01 80 01 93 20 02 87  7F 19 80 80 12 20 45 4A  5.... ....... EJ
2000: 80 F8 FF FF 7F F8 FF FF  7F 73 65 33 35 01 80 01  .........se35...
2010: 93 20 02 87 7F 12 80 80  2E 20 45 4A 80 F8 FF FF  . ....... EJ....
2020: 7F F8 FF FF 7F 73 74 33  35 01 80 01 93 20 02 87  .....st35.... ..
2030: 7F 14 80 80 4A 20 45 4A  80 F8 FF FF 7F F8 FF FF  ....J EJ........
2040: 7F 73 74 33 35 01 80 01  93 20 02 87 7F 1D 80 80  .st35.... ......
2050: 66 20 45 4A 80 F8 FF FF  7F F8 FF FF 7F 73 6D 33  f EJ.........sm3
2060: 35 01 80 01 93 20 02 87  7F 1A 80 80 82 20 45 4A  5.... ....... EJ
2070: 80 F8 FF FF 7F F8 FF FF  7F 73 67 33 35 01 80 01  .........sg35...
2080: 93 20 45 4A 80 F8 FF FF  7F F8 FF FF 7F 73 30 33  . EJ.........s03
2090: 35 01 80 27 10 46 31 0F  01 07 2B 46 31 0F 01 90  5..'.F1...+F1...
20A0: 80 29 10 46 31 0F 01 08  23 3C 02 00 05 80 03 80  .).F1...#<......
20B0: 01 B3 20 01 25 1B 27 10  46 31 0F 01 13 2B 46 31  .. .%.'.F1...+F1
20C0: 0F 01 91 80 23 2B 46 31  0F 01 92 80 23 2B 46 31  ....#+F1....#+F1
20D0: 0F 01 93 80 29 10 46 31  0F 01 14 23 02 87 7F 0F  ....).F1...#....
20E0: 80 80 F6 20 52 4A 80 F8  FF FF 7F F8 FF FF 7F 73  ... RJ.........s
20F0: 67 33 38 01 87 21 02 87  7F 19 80 80 10 21 52 4A  g38..!.......!RJ
2100: 80 F8 FF FF 7F F8 FF FF  7F 73 65 33 38 01 87 21  .........se38..!
2110: 02 87 7F 12 80 80 2A 21  52 4A 80 F8 FF FF 7F F8  ......*!RJ......
2120: FF FF 7F 73 74 33 38 01  87 21 02 87 7F 14 80 80  ...st38..!......
2130: 44 21 52 4A 80 F8 FF FF  7F F8 FF FF 7F 73 74 33  D!RJ.........st3
2140: 38 01 87 21 02 87 7F 1D  80 80 5E 21 52 4A 80 F8  8..!......^!RJ..
2150: FF FF 7F F8 FF FF 7F 73  6D 33 38 01 87 21 02 87  .......sm38..!..
2160: 7F 1A 80 80 78 21 52 4A  80 F8 FF FF 7F F8 FF FF  ....x!RJ........
2170: 7F 73 67 33 38 01 87 21  52 4A 80 F8 FF FF 7F F8  .sg38..!RJ......
2180: FF FF 7F 73 30 33 38 45  4A 80 F8 FF FF 7F F8 FF  ...s038EJ.......
2190: FF 7F 73 30 33 39 01 80  7B 46 31 0F 01 27 10 46  ..s039..{F1..'.F
21A0: 31 0F 01 19 2B 46 31 0F  01 94 80 29 10 46 31 0F  1...+F1....).F1.
21B0: 01 1A 23 27 10 46 31 0F  01 17 79 00 46 31 0F 01  ..#'.F1...y.F1..
21C0: F0 FF FF 7F 29 10 46 31  0F 01 18 52 4A 80 F8 FF  ....).F1...RJ...
21D0: FF 7F F8 FF FF 7F 73 30  33 39 02 87 7F 0F 80 80  ......s039......
21E0: F6 21 45 4A 80 F8 FF FF  7F F8 FF FF 7F 73 67 34  .!EJ.........sg4
21F0: 30 01 80 01 77 22 02 87  7F 19 80 80 12 22 45 4A  0...w"......."EJ
2200: 80 F8 FF FF 7F F8 FF FF  7F 73 65 34 30 01 80 01  .........se40...
2210: 77 22 02 87 7F 12 80 80  2E 22 45 4A 80 F8 FF FF  w"......."EJ....
2220: 7F F8 FF FF 7F 73 74 34  30 01 80 01 77 22 02 87  .....st40...w"..
2230: 7F 14 80 80 4A 22 45 4A  80 F8 FF FF 7F F8 FF FF  ....J"EJ........
2240: 7F 73 74 34 30 01 80 01  77 22 02 87 7F 1A 80 80  .st40...w"......
2250: 66 22 45 4A 80 F8 FF FF  7F F8 FF FF 7F 73 67 34  f"EJ.........sg4
2260: 30 01 80 01 77 22 45 4A  80 F8 FF FF 7F F8 FF FF  0...w"EJ........
2270: 7F 73 30 34 30 01 80 27  10 46 31 0F 01 1F 2B 46  .s040..'.F1...+F
2280: 31 0F 01 95 80 23 2B 46  31 0F 01 96 80 29 10 46  1....#+F1....).F
2290: 31 0F 01 20 23 27 10 46  31 0F 01 17 29 10 46 31  1.. #'.F1...).F1
22A0: 0F 01 18 1C 06 80 7B 46  31 0F 01 02 87 7F 0F 80  ......{F1.......
22B0: 80 C5 22 52 4A 80 F8 FF  FF 7F F8 FF FF 7F 73 67  .."RJ.........sg
22C0: 34 30 01 3C 23 02 87 7F  19 80 80 DF 22 52 4A 80  40.<#......."RJ.
22D0: F8 FF FF 7F F8 FF FF 7F  73 65 34 30 01 3C 23 02  ........se40.<#.
22E0: 87 7F 12 80 80 F9 22 52  4A 80 F8 FF FF 7F F8 FF  ......"RJ.......
22F0: FF 7F 73 74 34 30 01 3C  23 02 87 7F 14 80 80 13  ..st40.<#.......
2300: 23 52 4A 80 F8 FF FF 7F  F8 FF FF 7F 73 74 34 30  #RJ.........st40
2310: 01 3C 23 02 87 7F 1A 80  80 2D 23 52 4A 80 F8 FF  .<#......-#RJ...
2320: FF 7F F8 FF FF 7F 73 67  34 30 01 3C 23 52 4A 80  ......sg40.<#RJ.
2330: F8 FF FF 7F F8 FF FF 7F  73 30 34 30 45 4A 80 F8  ........s040EJ..
2340: FF FF 7F F8 FF FF 7F 73  30 34 31 01 80 27 10 46  .......s041..'.F
2350: 31 0F 01 03 2B 46 31 0F  01 97 80 29 10 46 31 0F  1...+F1....).F1.
2360: 01 04 23 79 00 46 31 0F  01 F0 FF FF 7F 7B 47 31  ..#y.F1......{G1
2370: 0F 01 4A 47 31 0F 01 32  30 0F 01 52 4A 80 F8 FF  ..JG1..20..RJ...
2380: FF 7F F8 FF FF 7F 73 30  34 31 45 4A 80 F8 FF FF  ......s041EJ....
2390: 7F F8 FF FF 7F 73 30 34  32 01 80 6F 76 47 31 0F  .....s042..ovG1.
23A0: 01 27 10 47 31 0F 01 25  1C 30 80 7B 46 31 0F 01  .'.G1..%.0.{F1..
23B0: 4A 46 31 0F 01 32 30 0F  01 6F 76 46 31 0F 01 27  JF1..20..ovF1..'
23C0: 10 46 31 0F 01 25 2A 10  47 31 0F 01 27 10 47 31  .F1..%*.G1..'.G1
23D0: 0F 01 1F 29 10 32 30 0F  01 13 4A 32 30 0F 01 47  ...).20...J20..G
23E0: 31 0F 01 1C 5A 80 27 10  F0 FF FF 7F C3 1C 5A 80  1...Z.'.......Z.
23F0: 7A 00 47 31 0F 01 27 10  47 31 0F 01 17 1C 5A 80  z.G1..'.G1....Z.
2400: 5D 01 80 2F 80 1A 64 00  52 4A 80 F8 FF FF 7F F8  ]../..d.RJ......
2410: FF FF 7F 73 30 34 32 7A  00 F0 FF FF 7F 5C 00 31  ...s042z.....\.1
2420: 80 5C 01 31 80 9A 5D 11  80 03 80 1C 32 80 AB 11  .\.1..].....2...
2430: 01 80 1C 03 80 46 00 45  00 80 F8 FF FF 7F F8 FF  .....F.E........
2440: FF 7F 66 64 69 32 01 80  45 02 80 F8 FF FF 7F F8  ..fdi2..E.......
2450: FF FF 7F 71 73 74 63 01  80 21 00                 ...qstc..!.     
```

#### Opcodes

```
  0: 0x0AD0 [0x42] SET_CLI_EVENT_CANCEL_DATA()
  1: 0x0AD1 [0x03] ExtData[1]->WorkLocal[1] = Work_Zone[3]
  2: 0x0AD6 [0x5D] SET_MUSIC_VOLUME(volume=0*, fade_time=300*)
  3: 0x0ADB [0x1A] CALL_SUBROUTINE(address=0x0064)
  4: 0x0ADE [0x46] CAMERA_CONTROL: Disable user control
  5: 0x0AE0 [0x38] SET_CLIENT_EVENT_MODE(mode=147*)
  6: 0x0AE3 [0x2F] Maat (ID: 17772594/0x010F3032)->Render.Flags0 &= ~0x80000 // Bit 19
  7: 0x0AE9 [0x2F] Shami (ID: 17772870/0x010F3146)->Render.Flags0 &= ~0x80000 // Bit 19
  8: 0x0AEF [0x2F] Shemo (ID: 17772871/0x010F3147)->Render.Flags0 &= ~0x80000 // Bit 19
  9: 0x0AF5 [0x2F] Mumor (ID: 17772872/0x010F3148)->Render.Flags0 &= ~0x80000 // Bit 19
 10: 0x0AFB [0x2F] Maat (ID: 17772873/0x010F3149)->Render.Flags0 &= ~0x80000 // Bit 19
 11: 0x0B01 [0x2F] Unnamed NPC (ID: 17772874/0x010F314A)->Render.Flags0 &= ~0x80000 // Bit 19
 12: 0x0B07 [0x4E] SET_ENTITY_HIDE_FLAG: Show Maat (ID: 17772594/0x010F3032)
 13: 0x0B0D [0x4E] SET_ENTITY_HIDE_FLAG: Show Shami (ID: 17772870/0x010F3146)
 14: 0x0B13 [0x4E] SET_ENTITY_HIDE_FLAG: Show Shemo (ID: 17772871/0x010F3147)
 15: 0x0B19 [0x4E] SET_ENTITY_HIDE_FLAG: Show Mumor (ID: 17772872/0x010F3148)
 16: 0x0B1F [0x4E] SET_ENTITY_HIDE_FLAG: Show Maat (ID: 17772873/0x010F3149)
 17: 0x0B25 [0x94] Maat (ID: 17772594/0x010F3032)->Render.Flags3 ^= 0x01
 18: 0x0B2B [0x94] Shami (ID: 17772870/0x010F3146)->Render.Flags3 ^= 0x01
 19: 0x0B31 [0x94] Shemo (ID: 17772871/0x010F3147)->Render.Flags3 ^= 0x01
 20: 0x0B37 [0x94] Mumor (ID: 17772872/0x010F3148)->Render.Flags3 ^= 0x01
 21: 0x0B3D [0x94] Unnamed NPC (ID: 17772874/0x010F314A)->Render.Flags3 ^= 0x01
 22: 0x0B43 [0x94] LocalPlayer->Render.Flags3 ^= 0x01
 23: 0x0B49 [0xBA] SET_ENTITY_POSITION(entity_id=Maat (ID: 17772594/0x010F3032), pos_x=10.877*, pos_z=119.070*, pos_y=3.099*, direction=157.1°*)
 24: 0x0B56 [0xBA] SET_ENTITY_POSITION(entity_id=Shami (ID: 17772870/0x010F3146), pos_x=9.311*, pos_z=117.173*, pos_y=3.100*, direction=290.0°*)
 25: 0x0B63 [0xBA] SET_ENTITY_POSITION(entity_id=Shemo (ID: 17772871/0x010F3147), pos_x=8.618*, pos_z=119.174*, pos_y=3.100*, direction=353.7°*)
 26: 0x0B70 [0xBA] SET_ENTITY_POSITION(entity_id=Mumor (ID: 17772872/0x010F3148), pos_x=1.462*, pos_z=108.287*, pos_y=3.099*, direction=282.0°*)
 27: 0x0B7D [0x59] UPDATE_ENTITY_DATA: Maat (ID: 17772873/0x010F3149)->Render.Flags0 |= 0x200000
 28: 0x0B84 [0xBA] SET_ENTITY_POSITION(entity_id=Maat (ID: 17772873/0x010F3149), pos_x=10.555*, pos_z=118.807*, pos_y=3.099*, direction=162.5°*)
 29: 0x0B91 [0xBA] SET_ENTITY_POSITION(entity_id=Unnamed NPC (ID: 17772874/0x010F314A), pos_x=9.876*, pos_z=118.473*, pos_y=3.099*, direction=246.1°*)
 30: 0x0B9E [0xBA] SET_ENTITY_POSITION(entity_id=LocalPlayer, pos_x=1.926*, pos_z=117.978*, pos_y=3.099*, direction=354.7°*)
 31: 0x0BAB [0x29] REQ_SET_WAIT(priority=0x10, entity_id=Maat (ID: 17772873/0x010F3149), tag_num=0x02)
 32: 0x0BB2 [0x80] LOAD_WAIT(entity=Maat (ID: 17772594/0x010F3032))
 33: 0x0BB7 [0x80] LOAD_WAIT(entity=Shami (ID: 17772870/0x010F3146))
 34: 0x0BBC [0x80] LOAD_WAIT(entity=Shemo (ID: 17772871/0x010F3147))
 35: 0x0BC1 [0x80] LOAD_WAIT(entity=Mumor (ID: 17772872/0x010F3148))
 36: 0x0BC6 [0x80] LOAD_WAIT(entity=Maat (ID: 17772873/0x010F3149))
 37: 0x0BCB [0x80] LOAD_WAIT(entity=Unnamed NPC (ID: 17772874/0x010F314A))
 38: 0x0BD0 [0x80] LOAD_WAIT(entity=LocalPlayer)
 39: 0x0BD5 [0x6C] FADE_ENTITY_COLOR(entity_id=Mumor (ID: 17772872/0x010F3148), end_alpha=0*, fade_time=1*)
 40: 0x0BDE [0x6C] FADE_ENTITY_COLOR(entity_id=Maat (ID: 17772873/0x010F3149), end_alpha=0*, fade_time=1*)
 41: 0x0BE7 [0x4A] Shami (ID: 17772870/0x010F3146) looks at Maat (ID: 17772594/0x010F3032)
 42: 0x0BF0 [0x4A] Shemo (ID: 17772871/0x010F3147) looks at Maat (ID: 17772594/0x010F3032)
 43: 0x0BF9 [0x6F] WAIT_FRAME_DELAY: Yield until WaitTime reaches zero
 44: 0x0BFA [0x76] CHECK_ENTITY_RENDER_FLAGS: Wait until Shami (ID: 17772870/0x010F3146) Render.Flags0 and Render.Flags3 conditions are met
 45: 0x0BFF [0x6F] WAIT_FRAME_DELAY: Yield until WaitTime reaches zero
 46: 0x0C00 [0x76] CHECK_ENTITY_RENDER_FLAGS: Wait until Shemo (ID: 17772871/0x010F3147) Render.Flags0 and Render.Flags3 conditions are met
 47: 0x0C05 [0x5C] MUSIC_CONTROL: Set Idle (Day) music to song 32*
 48: 0x0C09 [0x5C] MUSIC_CONTROL: Set Idle (Night) music to song 32*
 49: 0x0C0D [0x9A] WAIT_MUSIC_SERVER()
 50: 0x0C0E [0x5D] SET_MUSIC_VOLUME(volume=127*, fade_time=1*)
 51: 0x0C13 [0x27] REQ_SET(priority=0x10, entity_id=Maat (ID: 17772594/0x010F3032), tag_num=0x10)
 52: 0x0C1A [0x1C] WAIT(60* ticks)
 53: 0x0C1D [0x45] LOAD_SCHEDULED_TASK: Load scheduler "s000" with entities [EventEntity, EventEntity], work=[872*, 0*]
 54: 0x0C2E [0x1A] CALL_SUBROUTINE(address=0x0043)
 55: 0x0C31 [0x2B] Maat (ID: 17772594/0x010F3032) [16105*]:
    → "Ungh... It's all rather hazy, but I guess I caused some sort of trouble?"
 56: 0x0C38 [0x2A] GET_REQ_LEVEL(level=16, entity_id=Maat (ID: 17772594/0x010F3032))
 57: 0x0C3E [0x1C] WAIT(60* ticks)
 58: 0x0C41 [0x23] WAIT_FOR_DIALOG_INTERACTION
 59: 0x0C42 [0x27] REQ_SET(priority=0x10, entity_id=Maat (ID: 17772594/0x010F3032), tag_num=0x11)
 60: 0x0C49 [0x52] END_LOAD_SCHEDULER: End scheduler "s000" with entities [EventEntity, EventEntity], work=872*
 61: 0x0C58 [0x45] LOAD_SCHEDULED_TASK: Load scheduler "s001" with entities [EventEntity, EventEntity], work=[872*, 0*]
 62: 0x0C69 [0x79] Maat (ID: 17772594/0x010F3032) looks at Shami (ID: 17772870/0x010F3146) (Basic look)
 63: 0x0C73 [0x27] REQ_SET(priority=0x10, entity_id=Shami (ID: 17772870/0x010F3146), tag_num=0x01)
 64: 0x0C7A [0x2B] Shami (ID: 17772870/0x010F3146) [16106*]:
    → "I'm glad you're able to remember that much, at least."
 65: 0x0C81 [0x29] REQ_SET_WAIT(priority=0x10, entity_id=Shami (ID: 17772870/0x010F3146), tag_num=0x02)
 66: 0x0C88 [0x1C] WAIT(60* ticks)
 67: 0x0C8B [0x23] WAIT_FOR_DIALOG_INTERACTION
 68: 0x0C8C [0x52] END_LOAD_SCHEDULER: End scheduler "s001" with entities [EventEntity, EventEntity], work=872*
 69: 0x0C9B [0x45] LOAD_SCHEDULED_TASK: Load scheduler "s002" with entities [EventEntity, EventEntity], work=[872*, 0*]
 70: 0x0CAC [0x79] Maat (ID: 17772594/0x010F3032) looks at Shemo (ID: 17772871/0x010F3147) (Basic look)
 71: 0x0CB6 [0x27] REQ_SET(priority=0x10, entity_id=Shemo (ID: 17772871/0x010F3147), tag_num=0x13)
 72: 0x0CBD [0x2B] Shemo (ID: 17772871/0x010F3147) [16107*]:
    → "Whenever you close your eyes and drift off to sleep, a strange power overtakes you each night. The two of us do what we can to keep it in check..."
 73: 0x0CC4 [0x23] WAIT_FOR_DIALOG_INTERACTION
 74: 0x0CC5 [0x29] REQ_SET_WAIT(priority=0x10, entity_id=Shemo (ID: 17772871/0x010F3147), tag_num=0x14)
 75: 0x0CCC [0x23] WAIT_FOR_DIALOG_INTERACTION
 76: 0x0CCD [0x27] REQ_SET(priority=0x10, entity_id=Shemo (ID: 17772871/0x010F3147), tag_num=0x17)
 77: 0x0CD4 [0x6C] FADE_ENTITY_COLOR(entity_id=Mumor (ID: 17772872/0x010F3148), end_alpha=128*, fade_time=1*)
 78: 0x0CDD [0x27] REQ_SET(priority=0x10, entity_id=Mumor (ID: 17772872/0x010F3148), tag_num=0x2C)
 79: 0x0CE4 [0x52] END_LOAD_SCHEDULER: End scheduler "s002" with entities [EventEntity, EventEntity], work=872*
 80: 0x0CF3 [0x45] LOAD_SCHEDULED_TASK: Load scheduler "s003" with entities [EventEntity, EventEntity], work=[872*, 0*]
 81: 0x0D04 [0x2B] Mumor (ID: 17772872/0x010F3148) [16108*]:
    → "Wait just a moment!"
 82: 0x0D0B [0x1C] WAIT(60* ticks)
 83: 0x0D0E [0x4A] LocalPlayer looks at Mumor (ID: 17772872/0x010F3148)
 84: 0x0D17 [0x4A] Shami (ID: 17772870/0x010F3146) looks at Mumor (ID: 17772872/0x010F3148)
 85: 0x0D20 [0x4A] Shemo (ID: 17772871/0x010F3147) looks at Mumor (ID: 17772872/0x010F3148)
 86: 0x0D29 [0x79] Maat (ID: 17772594/0x010F3032) looks at Mumor (ID: 17772872/0x010F3148) (Basic look)
 87: 0x0D33 [0x1C] WAIT(60* ticks)
 88: 0x0D36 [0x4A] LocalPlayer looks at Mumor (ID: 17772872/0x010F3148)
 89: 0x0D3F [0x2A] GET_REQ_LEVEL(level=16, entity_id=Mumor (ID: 17772872/0x010F3148))
 90: 0x0D45 [0x4A] Mumor (ID: 17772872/0x010F3148) looks at Maat (ID: 17772594/0x010F3032)
 91: 0x0D4E [0x4A] LocalPlayer looks at Mumor (ID: 17772872/0x010F3148)
 92: 0x0D57 [0x4A] Shami (ID: 17772870/0x010F3146) looks at Mumor (ID: 17772872/0x010F3148)
 93: 0x0D60 [0x4A] Shemo (ID: 17772871/0x010F3147) looks at Mumor (ID: 17772872/0x010F3148)
 94: 0x0D69 [0x27] REQ_SET(priority=0x10, entity_id=Mumor (ID: 17772872/0x010F3148), tag_num=0x2D)
 95: 0x0D70 [0x52] END_LOAD_SCHEDULER: End scheduler "s003" with entities [EventEntity, EventEntity], work=872*
 96: 0x0D7F [0x45] LOAD_SCHEDULED_TASK: Load scheduler "s004" with entities [EventEntity, EventEntity], work=[872*, 0*]
 97: 0x0D90 [0x2B] Mumor (ID: 17772872/0x010F3148) [16109*]:
    → "You can't just start saying your lines before I even get here!"
 98: 0x0D97 [0x2A] GET_REQ_LEVEL(level=16, entity_id=Mumor (ID: 17772872/0x010F3148))
 99: 0x0D9D [0x4A] Mumor (ID: 17772872/0x010F3148) looks at Maat (ID: 17772594/0x010F3032)
100: 0x0DA6 [0x2A] GET_REQ_LEVEL(level=16, entity_id=LocalPlayer)
101: 0x0DAC [0x23] WAIT_FOR_DIALOG_INTERACTION
102: 0x0DAD [0x52] END_LOAD_SCHEDULER: End scheduler "s004" with entities [EventEntity, EventEntity], work=872*
103: 0x0DBC [0x45] LOAD_SCHEDULED_TASK: Load scheduler "s005" with entities [EventEntity, EventEntity], work=[872*, 0*]
104: 0x0DCD [0x27] REQ_SET(priority=0x10, entity_id=Mumor (ID: 17772872/0x010F3148), tag_num=0x1D)
105: 0x0DD4 [0x2B] Mumor (ID: 17772872/0x010F3148) [16110*]:
    → "Okay, <Player>! Show Maat the pillow! It's the proof we need!"
106: 0x0DDB [0x29] REQ_SET_WAIT(priority=0x10, entity_id=Mumor (ID: 17772872/0x010F3148), tag_num=0x1E)
107: 0x0DE2 [0x23] WAIT_FOR_DIALOG_INTERACTION
108: 0x0DE3 [0x27] REQ_SET(priority=0x10, entity_id=Mumor (ID: 17772872/0x010F3148), tag_num=0x1F)
109: 0x0DEA [0x52] END_LOAD_SCHEDULER: End scheduler "s005" with entities [EventEntity, EventEntity], work=872*
110: 0x0DF9 [0x45] LOAD_SCHEDULED_TASK: Load scheduler "s006" with entities [EventEntity, EventEntity], work=[872*, 0*]
111: 0x0E0A [0x7B] LocalPlayer stops talking
112: 0x0E0F [0x27] REQ_SET(priority=0x10, entity_id=LocalPlayer, tag_num=0xC2)
113: 0x0E16 [0x2A] GET_REQ_LEVEL(level=16, entity_id=LocalPlayer)
114: 0x0E1C [0x52] END_LOAD_SCHEDULER: End scheduler "s006" with entities [EventEntity, EventEntity], work=872*
115: 0x0E2B [0x02] IF !(LocalPlayer->Race == 3*) GOTO 0x0E47
116: 0x0E33 [0x45] LOAD_SCHEDULED_TASK: Load scheduler "sg07" with entities [EventEntity, EventEntity], work=[872*, 0*]
117: 0x0E44 [0x01] GOTO 0x0EC8
118: 0x0E47 [0x02] IF !(LocalPlayer->Race == 4*) GOTO 0x0E63
119: 0x0E4F [0x45] LOAD_SCHEDULED_TASK: Load scheduler "sg07" with entities [EventEntity, EventEntity], work=[872*, 0*]
120: 0x0E60 [0x01] GOTO 0x0EC8
121: 0x0E63 [0x02] IF !(LocalPlayer->Race == 5*) GOTO 0x0E7F
122: 0x0E6B [0x45] LOAD_SCHEDULED_TASK: Load scheduler "st07" with entities [EventEntity, EventEntity], work=[872*, 0*]
123: 0x0E7C [0x01] GOTO 0x0EC8
124: 0x0E7F [0x02] IF !(LocalPlayer->Race == 6*) GOTO 0x0E9B
125: 0x0E87 [0x45] LOAD_SCHEDULED_TASK: Load scheduler "st07" with entities [EventEntity, EventEntity], work=[872*, 0*]
126: 0x0E98 [0x01] GOTO 0x0EC8
127: 0x0E9B [0x02] IF !(LocalPlayer->Race == 8*) GOTO 0x0EB7
128: 0x0EA3 [0x45] LOAD_SCHEDULED_TASK: Load scheduler "sg07" with entities [EventEntity, EventEntity], work=[872*, 0*]
129: 0x0EB4 [0x01] GOTO 0x0EC8
130: 0x0EB7 [0x45] LOAD_SCHEDULED_TASK: Load scheduler "s007" with entities [EventEntity, EventEntity], work=[872*, 0*]

SUBROUTINE_0EC8:
131: 0x0EC8 [0x6E] LocalPlayer uses emote 44*
132: 0x0ECF [0x99] Wait for LocalPlayer animation to complete
133: 0x0ED4 [0x22] ENTITY_HIDE_FLAG(enabled=0x00)
134: 0x0ED6 [0x33] EventEntity->Render.Flags0 |= 0x200000 // Bit 21 (flag=0x01)
135: 0x0ED8 [0x37] UPDATE_EVENT_POSITION_AND_DIR: x=10.176*, z=118.973*, y=3.499*, direction=246.1°*
136: 0x0EE1 [0xBB] LOAD_EVENT_SCHEDULER_ALT: Load scheduler "s001" with entities [EventEntity, EventEntity], work=[233*, 0*]
137: 0x0EF2 [0x1C] WAIT(175* ticks)
138: 0x0EF5 [0x4E] SET_ENTITY_HIDE_FLAG: Show Unnamed NPC (ID: 17772874/0x010F314A)
139: 0x0EFB [0xD8] SET_ENTITY_EVENT_DIR: Set Unnamed NPC (ID: 17772874/0x010F314A) EventDir[0] = 4294967146*
140: 0x0F03 [0xD8] SET_ENTITY_EVENT_DIR: Set Unnamed NPC (ID: 17772874/0x010F314A) EventDir[2] = 4294967146*
141: 0x0F0B [0x02] IF !(LocalPlayer->Race == 3*) GOTO 0x0F25
142: 0x0F13 [0x52] END_LOAD_SCHEDULER: End scheduler "sg07" with entities [EventEntity, EventEntity], work=872*
143: 0x0F22 [0x01] GOTO 0x0F9C
144: 0x0F25 [0x02] IF !(LocalPlayer->Race == 4*) GOTO 0x0F3F
145: 0x0F2D [0x52] END_LOAD_SCHEDULER: End scheduler "sg07" with entities [EventEntity, EventEntity], work=872*
146: 0x0F3C [0x01] GOTO 0x0F9C
147: 0x0F3F [0x02] IF !(LocalPlayer->Race == 5*) GOTO 0x0F59
148: 0x0F47 [0x52] END_LOAD_SCHEDULER: End scheduler "st07" with entities [EventEntity, EventEntity], work=872*
149: 0x0F56 [0x01] GOTO 0x0F9C
150: 0x0F59 [0x02] IF !(LocalPlayer->Race == 6*) GOTO 0x0F73
151: 0x0F61 [0x52] END_LOAD_SCHEDULER: End scheduler "st07" with entities [EventEntity, EventEntity], work=872*
152: 0x0F70 [0x01] GOTO 0x0F9C
153: 0x0F73 [0x02] IF !(LocalPlayer->Race == 8*) GOTO 0x0F8D
154: 0x0F7B [0x52] END_LOAD_SCHEDULER: End scheduler "sg07" with entities [EventEntity, EventEntity], work=872*
155: 0x0F8A [0x01] GOTO 0x0F9C
156: 0x0F8D [0x52] END_LOAD_SCHEDULER: End scheduler "s007" with entities [EventEntity, EventEntity], work=872*

SUBROUTINE_0F9C:
157: 0x0F9C [0x45] LOAD_SCHEDULED_TASK: Load scheduler "s008" with entities [EventEntity, EventEntity], work=[872*, 0*]
158: 0x0FAD [0x1C] WAIT(3* ticks)
159: 0x0FB0 [0xD8] SET_ENTITY_EVENT_DIR: Copy Unnamed NPC (ID: 17772874/0x010F314A) LastPosition to EventDir
160: 0x0FB6 [0x45] LOAD_SCHEDULED_TASK: Load scheduler "2006" with entities [EventEntity, EventEntity], work=[872*, 0*]
161: 0x0FC7 [0x1C] WAIT(240* ticks)
162: 0x0FCA [0x52] END_LOAD_SCHEDULER: End scheduler "s008" with entities [EventEntity, EventEntity], work=872*
163: 0x0FD9 [0x45] LOAD_SCHEDULED_TASK: Load scheduler "s009" with entities [EventEntity, EventEntity], work=[872*, 0*]
164: 0x0FEA [0x27] REQ_SET(priority=0x10, entity_id=Mumor (ID: 17772872/0x010F3148), tag_num=0x21)
165: 0x0FF1 [0x2B] Mumor (ID: 17772872/0x010F3148) [16111*]:
    → "Okay, shadow that terrorizes the Batallia Downs each and every night!"
166: 0x0FF8 [0x1C] WAIT(120* ticks)
167: 0x0FFB [0x23] WAIT_FOR_DIALOG_INTERACTION
168: 0x0FFC [0x52] END_LOAD_SCHEDULER: End scheduler "s009" with entities [EventEntity, EventEntity], work=872*
169: 0x100B [0x45] LOAD_SCHEDULED_TASK: Load scheduler "s010" with entities [EventEntity, EventEntity], work=[872*, 0*]
170: 0x101C [0x27] REQ_SET(priority=0x10, entity_id=Mumor (ID: 17772872/0x010F3148), tag_num=0x23)
171: 0x1023 [0x2B] Mumor (ID: 17772872/0x010F3148) [16112*]:
    → "It is time to reveal your true identity! Ullegore!"
172: 0x102A [0x29] REQ_SET_WAIT(priority=0x10, entity_id=Mumor (ID: 17772872/0x010F3148), tag_num=0x24)
173: 0x1031 [0x23] WAIT_FOR_DIALOG_INTERACTION
174: 0x1032 [0x22] ENTITY_HIDE_FLAG(enabled=0x01)
175: 0x1034 [0x33] EventEntity->Render.Flags0 &= ~ 0x200000 // Bit 21 (flag=0x00)
176: 0x1036 [0x5D] SET_MUSIC_VOLUME(volume=0*, fade_time=60*)
177: 0x103B [0x52] END_LOAD_SCHEDULER: End scheduler "s010" with entities [EventEntity, EventEntity], work=872*
178: 0x104A [0x45] LOAD_SCHEDULED_TASK: Load scheduler "s011" with entities [EventEntity, EventEntity], work=[872*, 0*]
179: 0x105B [0xCD] LOAD_SCHEDULED_TASK_ALT4: Load scheduler "s001" with entities [EventEntity, EventEntity], work=[144*, 0*]
180: 0x106C [0x45] LOAD_SCHEDULED_TASK: Load scheduler "1108" with entities [EventEntity, EventEntity], work=[872*, 0*]
181: 0x107D [0x1C] WAIT(240* ticks)
182: 0x1080 [0x5D] SET_MUSIC_VOLUME(volume=127*, fade_time=60*)
183: 0x1085 [0x27] REQ_SET(priority=0x10, entity_id=Shami (ID: 17772870/0x010F3146), tag_num=0x1D)
184: 0x108C [0x1C] WAIT(30* ticks)
185: 0x108F [0x52] END_LOAD_SCHEDULER: End scheduler "s011" with entities [EventEntity, EventEntity], work=872*
186: 0x109E [0x45] LOAD_SCHEDULED_TASK: Load scheduler "s012" with entities [EventEntity, EventEntity], work=[872*, 0*]
187: 0x10AF [0x2B] Shami (ID: 17772870/0x010F3146) [16113*]:
    → "Uh-oh!"
188: 0x10B6 [0x29] REQ_SET_WAIT(priority=0x10, entity_id=Shami (ID: 17772870/0x010F3146), tag_num=0x1E)
189: 0x10BD [0x23] WAIT_FOR_DIALOG_INTERACTION
190: 0x10BE [0x6B] STOP_AND_IDLE: Mumor (ID: 17772872/0x010F3148) stops current action and resets to idle (animation="idl0")
191: 0x10C7 [0x52] END_LOAD_SCHEDULER: End scheduler "s012" with entities [EventEntity, EventEntity], work=872*
192: 0x10D6 [0x45] LOAD_SCHEDULED_TASK: Load scheduler "s013" with entities [EventEntity, EventEntity], work=[872*, 0*]
193: 0x10E7 [0x27] REQ_SET(priority=0x10, entity_id=Shemo (ID: 17772871/0x010F3147), tag_num=0x0F)
194: 0x10EE [0x2B] Shemo (ID: 17772871/0x010F3147) [16114*]:
    → "Haha! It's okay, I'll handle this!"
195: 0x10F5 [0x29] REQ_SET_WAIT(priority=0x10, entity_id=Shemo (ID: 17772871/0x010F3147), tag_num=0x10)
196: 0x10FC [0x23] WAIT_FOR_DIALOG_INTERACTION
197: 0x10FD [0x27] REQ_SET(priority=0x10, entity_id=Shemo (ID: 17772871/0x010F3147), tag_num=0x11)
198: 0x1104 [0x29] REQ_SET_WAIT(priority=0x10, entity_id=Shemo (ID: 17772871/0x010F3147), tag_num=0x12)
199: 0x110B [0x52] END_LOAD_SCHEDULER: End scheduler "s013" with entities [EventEntity, EventEntity], work=872*
200: 0x111A [0x45] LOAD_SCHEDULED_TASK: Load scheduler "s014" with entities [EventEntity, EventEntity], work=[872*, 0*]
201: 0x112B [0x27] REQ_SET(priority=0x10, entity_id=Shemo (ID: 17772871/0x010F3147), tag_num=0x24)
202: 0x1132 [0x2A] GET_REQ_LEVEL(level=16, entity_id=Shemo (ID: 17772871/0x010F3147))
203: 0x1138 [0x27] REQ_SET(priority=0x10, entity_id=Shemo (ID: 17772871/0x010F3147), tag_num=0x09)
204: 0x113F [0x2B] Shemo (ID: 17772871/0x010F3147) [16115*]:
    → "Um, miss? This isn't an actual show, you see. We're still holding auditions."
205: 0x1146 [0x1C] WAIT(20* ticks)
206: 0x1149 [0x79] Mumor (ID: 17772872/0x010F3148) looks at Shemo (ID: 17772871/0x010F3147) (Basic look)
207: 0x1153 [0x27] REQ_SET(priority=0x10, entity_id=Shami (ID: 17772870/0x010F3146), tag_num=0x17)
208: 0x115A [0x29] REQ_SET_WAIT(priority=0x10, entity_id=Shemo (ID: 17772871/0x010F3147), tag_num=0x0A)
209: 0x1161 [0x23] WAIT_FOR_DIALOG_INTERACTION
210: 0x1162 [0x27] REQ_SET(priority=0x10, entity_id=Shemo (ID: 17772871/0x010F3147), tag_num=0x17)
211: 0x1169 [0x52] END_LOAD_SCHEDULER: End scheduler "s014" with entities [EventEntity, EventEntity], work=872*
212: 0x1178 [0x45] LOAD_SCHEDULED_TASK: Load scheduler "s015" with entities [EventEntity, EventEntity], work=[872*, 0*]
213: 0x1189 [0x27] REQ_SET(priority=0x10, entity_id=Mumor (ID: 17772872/0x010F3148), tag_num=0x25)
214: 0x1190 [0x2B] Mumor (ID: 17772872/0x010F3148) [16116*]:
    → "You're what!? Are you serious!?"
215: 0x1197 [0x29] REQ_SET_WAIT(priority=0x10, entity_id=Mumor (ID: 17772872/0x010F3148), tag_num=0x26)
216: 0x119E [0x23] WAIT_FOR_DIALOG_INTERACTION
217: 0x119F [0x52] END_LOAD_SCHEDULER: End scheduler "s015" with entities [EventEntity, EventEntity], work=872*
218: 0x11AE [0x45] LOAD_SCHEDULED_TASK: Load scheduler "s016" with entities [EventEntity, EventEntity], work=[872*, 0*]
219: 0x11BF [0x27] REQ_SET(priority=0x10, entity_id=Shemo (ID: 17772871/0x010F3147), tag_num=0x13)
220: 0x11C6 [0x2B] Shemo (ID: 17772871/0x010F3147) [16117*]:
    → "Heh heh... Maat here said he wanted to be a part of the Goblin festival too."
221: 0x11CD [0x1C] WAIT(30* ticks)
222: 0x11D0 [0x6B] STOP_AND_IDLE: Mumor (ID: 17772872/0x010F3148) stops current action and resets to idle (animation="idl0")
223: 0x11D9 [0x29] REQ_SET_WAIT(priority=0x10, entity_id=Shemo (ID: 17772871/0x010F3147), tag_num=0x14)
224: 0x11E0 [0x23] WAIT_FOR_DIALOG_INTERACTION
225: 0x11E1 [0x27] REQ_SET(priority=0x10, entity_id=Shemo (ID: 17772871/0x010F3147), tag_num=0x17)
226: 0x11E8 [0x52] END_LOAD_SCHEDULER: End scheduler "s016" with entities [EventEntity, EventEntity], work=872*
227: 0x11F7 [0x45] LOAD_SCHEDULED_TASK: Load scheduler "s017" with entities [EventEntity, EventEntity], work=[872*, 0*]
228: 0x1208 [0x27] REQ_SET(priority=0x10, entity_id=Shami (ID: 17772870/0x010F3146), tag_num=0x1F)
229: 0x120F [0x2B] Shami (ID: 17772870/0x010F3146) [16118*]:
    → "I guess his performance in the audition was a little too...passionate. We're sorry for all the fuss."
230: 0x1216 [0x1C] WAIT(20* ticks)
231: 0x1219 [0x79] Mumor (ID: 17772872/0x010F3148) looks at Shami (ID: 17772870/0x010F3146) (Basic look)
232: 0x1223 [0x29] REQ_SET_WAIT(priority=0x10, entity_id=Shami (ID: 17772870/0x010F3146), tag_num=0x20)
233: 0x122A [0x23] WAIT_FOR_DIALOG_INTERACTION
234: 0x122B [0x27] REQ_SET(priority=0x10, entity_id=Shami (ID: 17772870/0x010F3146), tag_num=0x17)
235: 0x1232 [0x52] END_LOAD_SCHEDULER: End scheduler "s017" with entities [EventEntity, EventEntity], work=872*
236: 0x1241 [0x45] LOAD_SCHEDULED_TASK: Load scheduler "s018" with entities [EventEntity, EventEntity], work=[872*, 0*]
237: 0x1252 [0x79] Mumor (ID: 17772872/0x010F3148) looks at Maat (ID: 17772594/0x010F3032) (Basic look)
238: 0x125C [0x27] REQ_SET(priority=0x10, entity_id=Mumor (ID: 17772872/0x010F3148), tag_num=0x27)
