# 17772662 - Eshantarl

## Common Data

| Field            | Value                     |
|------------------|---------------------------|
| Zone             | Ru'Lude Gardens (ID: 243) |
| Block Size       | 1384 bytes                |
| Total Events     | 48                        |
| References Count | 53                        |

## List of Events

| Event ID                   | Entrypoint   |   Size |   Instructions |
|----------------------------|--------------|--------|----------------|
| [65535](#event-65535)      | 0x0000       |     15 |              4 |
| [58](#event-58)            | 0x000F       |     10 |              2 |
| [65535.1](#event-655351)   | 0x0019       |     22 |              6 |
| [65535.2](#event-655352)   | 0x002F       |     27 |              5 |
| [65535.3](#event-655353)   | 0x004A       |     10 |              2 |
| [65535.4](#event-655354)   | 0x0054       |     93 |             19 |
| [65535.5](#event-655355)   | 0x00B1       |     19 |              7 |
| [65](#event-65)            | 0x00C4       |     10 |              2 |
| [65535.6](#event-655356)   | 0x00CE       |     18 |              6 |
| [65535.7](#event-655357)   | 0x00E0       |     18 |              6 |
| [65535.8](#event-655358)   | 0x00F2       |     15 |              5 |
| [65535.9](#event-655359)   | 0x0101       |     15 |              5 |
| [65535.10](#event-6553510) | 0x0110       |     16 |              2 |
| [65535.11](#event-6553511) | 0x0120       |     29 |              3 |
| [65535.12](#event-6553512) | 0x013D       |     16 |              2 |
| [65535.13](#event-6553513) | 0x014D       |     29 |              3 |
| [65535.14](#event-6553514) | 0x016A       |     16 |              2 |
| [65535.15](#event-6553515) | 0x017A       |     29 |              3 |
| [65535.16](#event-6553516) | 0x0197       |     29 |              3 |
| [65535.17](#event-6553517) | 0x01B4       |     29 |              3 |
| [65535.18](#event-6553518) | 0x01D1       |     29 |              3 |
| [65535.19](#event-6553519) | 0x01EE       |     29 |              3 |
| [65535.20](#event-6553520) | 0x020B       |     29 |              3 |
| [65535.21](#event-6553521) | 0x0228       |     16 |              2 |
| [65535.22](#event-6553522) | 0x0238       |     29 |              3 |
| [65535.23](#event-6553523) | 0x0255       |     29 |              3 |
| [65535.24](#event-6553524) | 0x0272       |     29 |              3 |
| [65535.25](#event-6553525) | 0x028F       |     29 |              3 |
| [65535.26](#event-6553526) | 0x02AC       |     19 |              3 |
| [65535.27](#event-6553527) | 0x02BF       |     29 |              3 |
| [65535.28](#event-6553528) | 0x02DC       |     29 |              3 |
| [65535.29](#event-6553529) | 0x02F9       |     29 |              3 |
| [65535.30](#event-6553530) | 0x0316       |     29 |              3 |
| [142](#event-142)          | 0x0333       |      1 |              1 |
| [143](#event-143)          | 0x0334       |      1 |              1 |
| [65535.31](#event-6553531) | 0x0335       |     10 |              2 |
| [65535.32](#event-6553532) | 0x033F       |     32 |              8 |
| [65535.33](#event-6553533) | 0x035F       |     10 |              2 |
| [161](#event-161)          | 0x0369       |      1 |              1 |
| [162](#event-162)          | 0x036A       |      1 |              1 |
| [123](#event-123)          | 0x036B       |      1 |              1 |
| [65535.34](#event-6553534) | 0x036C       |     10 |              2 |
| [65535.35](#event-6553535) | 0x0376       |     15 |              5 |
| [65535.36](#event-6553536) | 0x0385       |     10 |              2 |
| [65535.37](#event-6553537) | 0x038F       |     15 |              5 |
| [65535.38](#event-6553538) | 0x039E       |     15 |              5 |
| [65535.39](#event-6553539) | 0x03AD       |     10 |              2 |
| [65535.40](#event-6553540) | 0x03B7       |     10 |              2 |

## DAT References (imed_data)

|   Index | Hex Value   |   Dec Value |
|---------|-------------|-------------|
|       0 | 0x0000      |           0 |
|       1 | 0x15E9D     |       89757 |
|       2 | 0xFFFFE894  |  4294961300 |
|       3 | 0x0400      |        1024 |
|       4 | 0x07D0      |        2000 |
|       5 | 0x000D      |          13 |
|       6 | 0xFFFFEBD9  |  4294962137 |
|       7 | 0x0245      |         581 |
|       8 | 0x154B9     |       87225 |
|       9 | 0xFFFFEC77  |  4294962295 |
|      10 | 0x0225      |         549 |
|      11 | 0x03E8      |        1000 |
|      12 | 0x000A      |          10 |
|      13 | 0x0032      |          50 |
|      14 | 0x03A2      |         930 |
|      15 | 0x15367     |       86887 |
|      16 | 0xFFFFEC78  |  4294962296 |
|      17 | 0x00AA      |         170 |
|      18 | 0x14D31     |       85297 |
|      19 | 0x149F9     |       84473 |
|      20 | 0x1474E     |       83790 |
|      21 | 0xFFFFEC79  |  4294962297 |
|      22 | 0x01C2      |         450 |
|      23 | 0x01C3      |         451 |
|      24 | 0x005A      |          90 |
|      25 | 0x01C4      |         452 |
|      26 | 0xFFFFFFFA  |  4294967290 |
|      27 | 0x11EAC     |       73388 |
|      28 | 0x03FF      |        1023 |
|      29 | 0xFFFFFFFD  |  4294967293 |
|      30 | 0x10EC9     |       69321 |
|      31 | 0xF864      |       63588 |
|      32 | 0xFFFFFFF5  |  4294967285 |
|      33 | 0x150AD     |       86189 |
|      34 | 0x040A      |        1034 |
|      35 | 0xFFFFE143  |  4294959427 |
|      36 | 0xB31E      |       45854 |
|      37 | 0x00E7      |         231 |
|      38 | 0xFFFFF509  |  4294964489 |
|      39 | 0xABC4      |       43972 |
|      40 | 0xFFFFFE5C  |  4294966876 |
|      41 | 0x125DA     |       75226 |
|      42 | 0x0C04      |        3076 |
|      43 | 0xFFFFFE73  |  4294966899 |
|      44 | 0x13708     |       79624 |
|      45 | 0xFFFFF6B2  |  4294964914 |
|      46 | 0x13DF7     |       81399 |
|      47 | 0x0012      |          18 |
|      48 | 0xF792      |       63378 |
|      49 | 0x0403      |        1027 |
|      50 | 0x16A08     |       92680 |
|      51 | 0xFFFFE4AC  |  4294960300 |
|      52 | 0x0C03      |        3075 |

## Events

### Event 65535

#### Metadata

| Field        | Value    |
|--------------|----------|
| Entrypoint   | 0x0000   |
| Data Size    | 15 bytes |
| Instructions | 4        |

```
      00 01 02 03 04 05 06 07  08 09 0A 0B 0C 0D 0E 0F
      -- -- -- -- -- -- -- --  -- -- -- -- -- -- -- --
0000: 94 01 F8 FF FF 7F 33 01  92 01 F8 FF FF 7F 00     ......3........ 
```

#### Opcodes

```
  0: 0x0000 [0x94] EventEntity->Render.Flags3 ^= 0x01
  1: 0x0006 [0x33] EventEntity->Render.Flags0 |= 0x200000 // Bit 21 (flag=0x01)
  2: 0x0008 [0x92] EventEntity->Render.Flags3 ^= 0x01
  3: 0x000E [0x00] END_REQSTACK()
```

### Event 58

#### Metadata

| Field        | Value    |
|--------------|----------|
| Entrypoint   | 0x000F   |
| Data Size    | 10 bytes |
| Instructions | 2        |

```
      00 01 02 03 04 05 06 07  08 09 0A 0B 0C 0D 0E 0F
      -- -- -- -- -- -- -- --  -- -- -- -- -- -- -- --
0000:                                               37                 7
0010: 00 80 01 80 02 80 03 80  00                       .........       
```

#### Opcodes

```
  0: 0x000F [0x37] UPDATE_EVENT_POSITION_AND_DIR: x=0.000*, z=89.757*, y=-5.996*, direction=90.0°*
  1: 0x0018 [0x00] END_REQSTACK()
```

### Event 65535.1

#### Metadata

| Field        | Value    |
|--------------|----------|
| Entrypoint   | 0x0019   |
| Data Size    | 22 bytes |
| Instructions | 6        |

```
      00 01 02 03 04 05 06 07  08 09 0A 0B 0C 0D 0E 0F
      -- -- -- -- -- -- -- --  -- -- -- -- -- -- -- --
0010:                             03 00 00 04 80 1A 6D           ......m
0020: 00 32 05 80 5A 00 01 00  02 00 06 80 5A 01 00     .2..Z.......Z.. 
```

#### Opcodes

```
  0: 0x0019 [0x03] ExtData[1]->WorkLocal[0] = 2000*
  1: 0x001E [0x1A] CALL_SUBROUTINE(address=0x006D)
  2: 0x0021 [0x32] ExtData[1]->MainSpeed = 13* * 0.1
  3: 0x0024 [0x5A] UPDATE_EVENT_POSITION: Set EventEntity MovePosition to X=ExtData[1]->WorkLocal[1], Z=ExtData[1]->WorkLocal[2], Y=-5.159*
  4: 0x002C [0x5A] UPDATE_EVENT_POSITION: Move EventEntity incrementally towards MovePosition
  5: 0x002E [0x00] END_REQSTACK()
```

### Event 65535.2

#### Metadata

| Field        | Value    |
|--------------|----------|
| Entrypoint   | 0x002F   |
| Data Size    | 27 bytes |
| Instructions | 5        |

```
      00 01 02 03 04 05 06 07  08 09 0A 0B 0C 0D 0E 0F
      -- -- -- -- -- -- -- --  -- -- -- -- -- -- -- --
0020:                                               37                 7
0030: 00 80 01 80 02 80 03 80  03 00 00 04 80 1A 6D 00  ..............m.
0040: 37 01 00 02 00 06 80 03  80 00                    7.........      
```

#### Opcodes

```
  0: 0x002F [0x37] UPDATE_EVENT_POSITION_AND_DIR: x=0.000*, z=89.757*, y=-5.996*, direction=90.0°*
  1: 0x0038 [0x03] ExtData[1]->WorkLocal[0] = 2000*
  2: 0x003D [0x1A] CALL_SUBROUTINE(address=0x006D)
  3: 0x0040 [0x37] UPDATE_EVENT_POSITION_AND_DIR: x=ExtData[1]->WorkLocal[1], z=ExtData[1]->WorkLocal[2], y=-5.159*, direction=90.0°*
  4: 0x0049 [0x00] END_REQSTACK()
```

### Event 65535.3

#### Metadata

| Field        | Value    |
|--------------|----------|
| Entrypoint   | 0x004A   |
| Data Size    | 10 bytes |
| Instructions | 2        |

```
      00 01 02 03 04 05 06 07  08 09 0A 0B 0C 0D 0E 0F
      -- -- -- -- -- -- -- --  -- -- -- -- -- -- -- --
0040:                                37 07 80 08 80 09            7.....
0050: 80 0A 80 00                                       ....            
```

#### Opcodes

```
  0: 0x004A [0x37] UPDATE_EVENT_POSITION_AND_DIR: x=0.581*, z=87.225*, y=-5.001*, direction=48.3°*
  1: 0x0053 [0x00] END_REQSTACK()
```

### Event 65535.4

#### Metadata

| Field        | Value    |
|--------------|----------|
| Entrypoint   | 0x0054   |
| Data Size    | 93 bytes |
| Instructions | 14       |

```
      00 01 02 03 04 05 06 07  08 09 0A 0B 0C 0D 0E 0F
      -- -- -- -- -- -- -- --  -- -- -- -- -- -- -- --
0050:             03 00 00 0B  80 1A 6D 00 32 05 80 5A      ......m.2..Z
0060: 00 01 00 02 00 03 00 5A  01 1C 0C 80 00 3B F8 FF  .......Z.....;..
0070: FF 7F 01 00 02 00 03 00  3A F8 FF FF 7F 04 00 17  ........:.......
0080: 05 00 04 00 00 00 16 06  00 04 00 00 00 07 01 00  ................
0090: 05 00 07 02 00 06 00 1B  17 05 00 04 00 00 00 16  ................
00A0: 06 00 04 00 00 00 07 01  00 05 00 07 02 00 06 00  ................
00B0: 1B                                                .               
```

#### Opcodes

```
  0: 0x0054 [0x03] ExtData[1]->WorkLocal[0] = 1000*
  1: 0x0059 [0x1A] CALL_SUBROUTINE(address=0x006D)
  2: 0x005C [0x32] ExtData[1]->MainSpeed = 13* * 0.1
  3: 0x005F [0x5A] UPDATE_EVENT_POSITION: Set EventEntity MovePosition to X=ExtData[1]->WorkLocal[1], Z=ExtData[1]->WorkLocal[2], Y=ExtData[1]->WorkLocal[3]
  4: 0x0067 [0x5A] UPDATE_EVENT_POSITION: Move EventEntity incrementally towards MovePosition
  5: 0x0069 [0x1C] WAIT(10* ticks)
  6: 0x006C [0x00] END_REQSTACK()

SUBROUTINE_006D:
  7: 0x006D [0x3B] GET_ENTITY_POSITION(entity=EventEntity, x_destination=ExtData[1]->WorkLocal[1], y_destination=ExtData[1]->WorkLocal[2], z_destination=ExtData[1]->WorkLocal[3])
  8: 0x0078 [0x3A] CONVERT_YAW_TO_BYTE(entity=EventEntity, result_destination=ExtData[1]->WorkLocal[4])
  9: 0x007F [0x17] ExtData[1]->WorkLocal[5] = cos(ExtData[1]->WorkLocal[4]) * ExtData[1]->WorkLocal[0]
 10: 0x0086 [0x16] ExtData[1]->WorkLocal[6] = sin(ExtData[1]->WorkLocal[4]) * ExtData[1]->WorkLocal[0]
 11: 0x008D [0x07] ExtData[1]->WorkLocal[1] += ExtData[1]->WorkLocal[5]
 12: 0x0092 [0x07] ExtData[1]->WorkLocal[2] += ExtData[1]->WorkLocal[6]
 13: 0x0097 [0x1B] RETURN
```

#### Data or dead code:

```
# Dead code (unreachable instructions):
     0x0098 [0x17] ExtData[1]->WorkLocal[5] = cos(ExtData[1]->WorkLocal[4]) * ExtData[1]->WorkLocal[0]
     0x009F [0x16] ExtData[1]->WorkLocal[6] = sin(ExtData[1]->WorkLocal[4]) * ExtData[1]->WorkLocal[0]
     0x00A6 [0x07] ExtData[1]->WorkLocal[1] += ExtData[1]->WorkLocal[5]
     0x00AB [0x07] ExtData[1]->WorkLocal[2] += ExtData[1]->WorkLocal[6]
     0x00B0 [0x1B] RETURN
```

### Event 65535.5

#### Metadata

| Field        | Value    |
|--------------|----------|
| Entrypoint   | 0x00B1   |
| Data Size    | 19 bytes |
| Instructions | 7        |

```
      00 01 02 03 04 05 06 07  08 09 0A 0B 0C 0D 0E 0F
      -- -- -- -- -- -- -- --  -- -- -- -- -- -- -- --
00B0:    32 05 80 5A 00 00 80  01 80 02 80 5A 01 39 03   2..Z.......Z.9.
00C0: 80 6F 70 00                                       .op.            
```

#### Opcodes

```
  0: 0x00B1 [0x32] ExtData[1]->MainSpeed = 13* * 0.1
  1: 0x00B4 [0x5A] UPDATE_EVENT_POSITION: Set EventEntity MovePosition to X=0.000*, Z=89.757*, Y=-5.996*
  2: 0x00BC [0x5A] UPDATE_EVENT_POSITION: Move EventEntity incrementally towards MovePosition
  3: 0x00BE [0x39] SET_ENTITY_DIRECTION(direction=5.6°*)
  4: 0x00C1 [0x6F] WAIT_FRAME_DELAY: Yield until WaitTime reaches zero
  5: 0x00C2 [0x70] WAIT_ENTITY_RENDER_FLAG: Wait while EventEntity->Render.Flags3 bit 2 is set (cancel turn if not)
  6: 0x00C3 [0x00] END_REQSTACK()
```

### Event 65

#### Metadata

| Field        | Value    |
|--------------|----------|
| Entrypoint   | 0x00C4   |
| Data Size    | 10 bytes |
| Instructions | 2        |

```
      00 01 02 03 04 05 06 07  08 09 0A 0B 0C 0D 0E 0F
      -- -- -- -- -- -- -- --  -- -- -- -- -- -- -- --
00C0:             37 0D 80 01  80 02 80 0E 80 00            7.........  
```

#### Opcodes

```
  0: 0x00C4 [0x37] UPDATE_EVENT_POSITION_AND_DIR: x=0.050*, z=89.757*, y=-5.996*, direction=81.7°*
  1: 0x00CD [0x00] END_REQSTACK()
```

### Event 65535.6

#### Metadata

| Field        | Value    |
|--------------|----------|
| Entrypoint   | 0x00CE   |
| Data Size    | 18 bytes |
| Instructions | 6        |

```
      00 01 02 03 04 05 06 07  08 09 0A 0B 0C 0D 0E 0F
      -- -- -- -- -- -- -- --  -- -- -- -- -- -- -- --
00C0:                                            32 05                2.
00D0: 80 33 01 5A 00 00 80 0F  80 10 80 5A 01 33 00 00  .3.Z.......Z.3..
```

#### Opcodes

```
  0: 0x00CE [0x32] ExtData[1]->MainSpeed = 13* * 0.1
  1: 0x00D1 [0x33] EventEntity->Render.Flags0 |= 0x200000 // Bit 21 (flag=0x01)
  2: 0x00D3 [0x5A] UPDATE_EVENT_POSITION: Set EventEntity MovePosition to X=0.000*, Z=86.887*, Y=-5.000*
  3: 0x00DB [0x5A] UPDATE_EVENT_POSITION: Move EventEntity incrementally towards MovePosition
  4: 0x00DD [0x33] EventEntity->Render.Flags0 &= ~ 0x200000 // Bit 21 (flag=0x00)
  5: 0x00DF [0x00] END_REQSTACK()
```

### Event 65535.7

#### Metadata

| Field        | Value    |
|--------------|----------|
| Entrypoint   | 0x00E0   |
| Data Size    | 18 bytes |
| Instructions | 6        |

```
      00 01 02 03 04 05 06 07  08 09 0A 0B 0C 0D 0E 0F
      -- -- -- -- -- -- -- --  -- -- -- -- -- -- -- --
00E0: 1C 11 80 32 05 80 1F 00  00 80 12 80 10 80 1F 01  ...2............
00F0: 6F 00                                             o.              
```

#### Opcodes

```
  0: 0x00E0 [0x1C] WAIT(170* ticks)
  1: 0x00E3 [0x32] ExtData[1]->MainSpeed = 13* * 0.1
  2: 0x00E6 [0x1F] MOVE_ENTITY: EventEntity moves to X=0.000*, Z=85.297*, Y=-5.000*
  3: 0x00EE [0x1F] MOVE_ENTITY: Update entity position (mode=1)
  4: 0x00F0 [0x6F] WAIT_FRAME_DELAY: Yield until WaitTime reaches zero
  5: 0x00F1 [0x00] END_REQSTACK()
```

### Event 65535.8

#### Metadata

| Field        | Value    |
|--------------|----------|
| Entrypoint   | 0x00F2   |
| Data Size    | 15 bytes |
| Instructions | 5        |

```
      00 01 02 03 04 05 06 07  08 09 0A 0B 0C 0D 0E 0F
      -- -- -- -- -- -- -- --  -- -- -- -- -- -- -- --
00F0:       32 05 80 1F 00 00  80 13 80 10 80 1F 01 6F    2............o
0100: 00                                                .               
```

#### Opcodes

```
  0: 0x00F2 [0x32] ExtData[1]->MainSpeed = 13* * 0.1
  1: 0x00F5 [0x1F] MOVE_ENTITY: EventEntity moves to X=0.000*, Z=84.473*, Y=-5.000*
  2: 0x00FD [0x1F] MOVE_ENTITY: Update entity position (mode=1)
  3: 0x00FF [0x6F] WAIT_FRAME_DELAY: Yield until WaitTime reaches zero
  4: 0x0100 [0x00] END_REQSTACK()
```

### Event 65535.9

#### Metadata

| Field        | Value    |
|--------------|----------|
| Entrypoint   | 0x0101   |
| Data Size    | 15 bytes |
| Instructions | 5        |

```
      00 01 02 03 04 05 06 07  08 09 0A 0B 0C 0D 0E 0F
      -- -- -- -- -- -- -- --  -- -- -- -- -- -- -- --
0100:    32 05 80 1F 00 00 80  14 80 15 80 1F 01 6F 00   2............o.
```

#### Opcodes

```
  0: 0x0101 [0x32] ExtData[1]->MainSpeed = 13* * 0.1
  1: 0x0104 [0x1F] MOVE_ENTITY: EventEntity moves to X=0.000*, Z=83.790*, Y=-4.999*
  2: 0x010C [0x1F] MOVE_ENTITY: Update entity position (mode=1)
  3: 0x010E [0x6F] WAIT_FRAME_DELAY: Yield until WaitTime reaches zero
  4: 0x010F [0x00] END_REQSTACK()
```

### Event 65535.10

#### Metadata

| Field        | Value    |
|--------------|----------|
| Entrypoint   | 0x0110   |
| Data Size    | 16 bytes |
| Instructions | 2        |

```
      00 01 02 03 04 05 06 07  08 09 0A 0B 0C 0D 0E 0F
      -- -- -- -- -- -- -- --  -- -- -- -- -- -- -- --
0110: 5B 16 80 F8 FF FF 7F F8  FF FF 7F 74 6C 61 30 00  [..........tla0.
```

#### Opcodes

```
  0: 0x0110 [0x5B] LOAD_EXT_SCHEDULER: Load scheduler "tla0" with entities [EventEntity, EventEntity], work=450*
  1: 0x011F [0x00] END_REQSTACK()
```

### Event 65535.11

#### Metadata

| Field        | Value    |
|--------------|----------|
| Entrypoint   | 0x0120   |
| Data Size    | 29 bytes |
| Instructions | 3        |

```
      00 01 02 03 04 05 06 07  08 09 0A 0B 0C 0D 0E 0F
      -- -- -- -- -- -- -- --  -- -- -- -- -- -- -- --
0120: 5B 16 80 F8 FF FF 7F F8  FF FF 7F 74 6C 61 31 53  [..........tla1S
0130: F8 FF FF 7F F8 FF FF 7F  74 6C 61 31 00           ........tla1.   
```

#### Opcodes

```
  0: 0x0120 [0x5B] LOAD_EXT_SCHEDULER: Load scheduler "tla1" with entities [EventEntity, EventEntity], work=450*
  1: 0x012F [0x53] WAIT_SCHEDULER_TASK: Wait for scheduler "tla1" with entities [EventEntity, EventEntity]
  2: 0x013C [0x00] END_REQSTACK()
```

### Event 65535.12

#### Metadata

| Field        | Value    |
|--------------|----------|
| Entrypoint   | 0x013D   |
| Data Size    | 16 bytes |
| Instructions | 2        |

```
      00 01 02 03 04 05 06 07  08 09 0A 0B 0C 0D 0E 0F
      -- -- -- -- -- -- -- --  -- -- -- -- -- -- -- --
0130:                                         5B 16 80               [..
0140: F8 FF FF 7F F8 FF FF 7F  74 6C 62 30 00           ........tlb0.   
```

#### Opcodes

```
  0: 0x013D [0x5B] LOAD_EXT_SCHEDULER: Load scheduler "tlb0" with entities [EventEntity, EventEntity], work=450*
  1: 0x014C [0x00] END_REQSTACK()
```

### Event 65535.13

#### Metadata

| Field        | Value    |
|--------------|----------|
| Entrypoint   | 0x014D   |
| Data Size    | 29 bytes |
| Instructions | 3        |

```
      00 01 02 03 04 05 06 07  08 09 0A 0B 0C 0D 0E 0F
      -- -- -- -- -- -- -- --  -- -- -- -- -- -- -- --
0140:                                         5B 16 80               [..
0150: F8 FF FF 7F F8 FF FF 7F  74 6C 62 31 53 F8 FF FF  ........tlb1S...
0160: 7F F8 FF FF 7F 74 6C 62  31 00                    .....tlb1.      
```

#### Opcodes

```
  0: 0x014D [0x5B] LOAD_EXT_SCHEDULER: Load scheduler "tlb1" with entities [EventEntity, EventEntity], work=450*
  1: 0x015C [0x53] WAIT_SCHEDULER_TASK: Wait for scheduler "tlb1" with entities [EventEntity, EventEntity]
  2: 0x0169 [0x00] END_REQSTACK()
```

### Event 65535.14

#### Metadata

| Field        | Value    |
|--------------|----------|
| Entrypoint   | 0x016A   |
| Data Size    | 16 bytes |
| Instructions | 2        |

```
      00 01 02 03 04 05 06 07  08 09 0A 0B 0C 0D 0E 0F
      -- -- -- -- -- -- -- --  -- -- -- -- -- -- -- --
0160:                                5B 16 80 F8 FF FF            [.....
0170: 7F F8 FF FF 7F 74 6C 63  30 00                    .....tlc0.      
```

#### Opcodes

```
  0: 0x016A [0x5B] LOAD_EXT_SCHEDULER: Load scheduler "tlc0" with entities [EventEntity, EventEntity], work=450*
  1: 0x0179 [0x00] END_REQSTACK()
```

### Event 65535.15

#### Metadata

| Field        | Value    |
|--------------|----------|
| Entrypoint   | 0x017A   |
| Data Size    | 29 bytes |
| Instructions | 3        |

```
      00 01 02 03 04 05 06 07  08 09 0A 0B 0C 0D 0E 0F
      -- -- -- -- -- -- -- --  -- -- -- -- -- -- -- --
0170:                                5B 16 80 F8 FF FF            [.....
0180: 7F F8 FF FF 7F 74 6C 63  31 53 F8 FF FF 7F F8 FF  .....tlc1S......
0190: FF 7F 74 6C 63 31 00                              ..tlc1.         
```

#### Opcodes

```
  0: 0x017A [0x5B] LOAD_EXT_SCHEDULER: Load scheduler "tlc1" with entities [EventEntity, EventEntity], work=450*
  1: 0x0189 [0x53] WAIT_SCHEDULER_TASK: Wait for scheduler "tlc1" with entities [EventEntity, EventEntity]
  2: 0x0196 [0x00] END_REQSTACK()
```

### Event 65535.16

#### Metadata

| Field        | Value    |
|--------------|----------|
| Entrypoint   | 0x0197   |
| Data Size    | 29 bytes |
| Instructions | 3        |

```
      00 01 02 03 04 05 06 07  08 09 0A 0B 0C 0D 0E 0F
      -- -- -- -- -- -- -- --  -- -- -- -- -- -- -- --
0190:                      5B  16 80 F8 FF FF 7F F8 FF         [........
01A0: FF 7F 74 61 62 30 53 F8  FF FF 7F F8 FF FF 7F 74  ..tab0S........t
01B0: 61 62 30 00                                       ab0.            
```

#### Opcodes

```
  0: 0x0197 [0x5B] LOAD_EXT_SCHEDULER: Load scheduler "tab0" with entities [EventEntity, EventEntity], work=450*
  1: 0x01A6 [0x53] WAIT_SCHEDULER_TASK: Wait for scheduler "tab0" with entities [EventEntity, EventEntity]
  2: 0x01B3 [0x00] END_REQSTACK()
```

### Event 65535.17

#### Metadata

| Field        | Value    |
|--------------|----------|
| Entrypoint   | 0x01B4   |
| Data Size    | 29 bytes |
| Instructions | 3        |

```
      00 01 02 03 04 05 06 07  08 09 0A 0B 0C 0D 0E 0F
      -- -- -- -- -- -- -- --  -- -- -- -- -- -- -- --
01B0:             5B 16 80 F8  FF FF 7F F8 FF FF 7F 74      [..........t
01C0: 62 61 30 53 F8 FF FF 7F  F8 FF FF 7F 74 62 61 30  ba0S........tba0
01D0: 00                                                .               
```

#### Opcodes

```
  0: 0x01B4 [0x5B] LOAD_EXT_SCHEDULER: Load scheduler "tba0" with entities [EventEntity, EventEntity], work=450*
  1: 0x01C3 [0x53] WAIT_SCHEDULER_TASK: Wait for scheduler "tba0" with entities [EventEntity, EventEntity]
  2: 0x01D0 [0x00] END_REQSTACK()
```

### Event 65535.18

#### Metadata

| Field        | Value    |
|--------------|----------|
| Entrypoint   | 0x01D1   |
| Data Size    | 29 bytes |
| Instructions | 3        |

```
      00 01 02 03 04 05 06 07  08 09 0A 0B 0C 0D 0E 0F
      -- -- -- -- -- -- -- --  -- -- -- -- -- -- -- --
01D0:    5B 16 80 F8 FF FF 7F  F8 FF FF 7F 74 61 74 68   [..........tath
01E0: 53 F8 FF FF 7F F8 FF FF  7F 74 61 74 68 00        S........tath.  
```

#### Opcodes

```
  0: 0x01D1 [0x5B] LOAD_EXT_SCHEDULER: Load scheduler "tath" with entities [EventEntity, EventEntity], work=450*
  1: 0x01E0 [0x53] WAIT_SCHEDULER_TASK: Wait for scheduler "tath" with entities [EventEntity, EventEntity]
  2: 0x01ED [0x00] END_REQSTACK()
```

### Event 65535.19

#### Metadata

| Field        | Value    |
|--------------|----------|
| Entrypoint   | 0x01EE   |
| Data Size    | 29 bytes |
| Instructions | 3        |

```
      00 01 02 03 04 05 06 07  08 09 0A 0B 0C 0D 0E 0F
      -- -- -- -- -- -- -- --  -- -- -- -- -- -- -- --
01E0:                                            5B 16                [.
01F0: 80 F8 FF FF 7F F8 FF FF  7F 74 62 63 30 53 F8 FF  .........tbc0S..
0200: FF 7F F8 FF FF 7F 74 62  63 30 00                 ......tbc0.     
```

#### Opcodes

```
  0: 0x01EE [0x5B] LOAD_EXT_SCHEDULER: Load scheduler "tbc0" with entities [EventEntity, EventEntity], work=450*
  1: 0x01FD [0x53] WAIT_SCHEDULER_TASK: Wait for scheduler "tbc0" with entities [EventEntity, EventEntity]
  2: 0x020A [0x00] END_REQSTACK()
```

### Event 65535.20

#### Metadata

| Field        | Value    |
|--------------|----------|
| Entrypoint   | 0x020B   |
| Data Size    | 29 bytes |
| Instructions | 3        |

```
      00 01 02 03 04 05 06 07  08 09 0A 0B 0C 0D 0E 0F
      -- -- -- -- -- -- -- --  -- -- -- -- -- -- -- --
0200:                                   5B 16 80 F8 FF             [....
0210: FF 7F F8 FF FF 7F 74 61  63 30 53 F8 FF FF 7F F8  ......tac0S.....
0220: FF FF 7F 74 61 63 30 00                           ...tac0.        
```

#### Opcodes

```
  0: 0x020B [0x5B] LOAD_EXT_SCHEDULER: Load scheduler "tac0" with entities [EventEntity, EventEntity], work=450*
  1: 0x021A [0x53] WAIT_SCHEDULER_TASK: Wait for scheduler "tac0" with entities [EventEntity, EventEntity]
  2: 0x0227 [0x00] END_REQSTACK()
```

### Event 65535.21

#### Metadata

| Field        | Value    |
|--------------|----------|
| Entrypoint   | 0x0228   |
| Data Size    | 16 bytes |
| Instructions | 2        |

```
      00 01 02 03 04 05 06 07  08 09 0A 0B 0C 0D 0E 0F
      -- -- -- -- -- -- -- --  -- -- -- -- -- -- -- --
0220:                          5B 16 80 F8 FF FF 7F F8          [.......
0230: FF FF 7F 74 68 6B 30 00                           ...thk0.        
```

#### Opcodes

```
  0: 0x0228 [0x5B] LOAD_EXT_SCHEDULER: Load scheduler "thk0" with entities [EventEntity, EventEntity], work=450*
  1: 0x0237 [0x00] END_REQSTACK()
```

### Event 65535.22

#### Metadata

| Field        | Value    |
|--------------|----------|
| Entrypoint   | 0x0238   |
| Data Size    | 29 bytes |
| Instructions | 3        |

```
      00 01 02 03 04 05 06 07  08 09 0A 0B 0C 0D 0E 0F
      -- -- -- -- -- -- -- --  -- -- -- -- -- -- -- --
0230:                          5B 16 80 F8 FF FF 7F F8          [.......
0240: FF FF 7F 68 74 61 30 53  F8 FF FF 7F F8 FF FF 7F  ...hta0S........
0250: 68 74 61 30 00                                    hta0.           
```

#### Opcodes

```
  0: 0x0238 [0x5B] LOAD_EXT_SCHEDULER: Load scheduler "hta0" with entities [EventEntity, EventEntity], work=450*
  1: 0x0247 [0x53] WAIT_SCHEDULER_TASK: Wait for scheduler "hta0" with entities [EventEntity, EventEntity]
  2: 0x0254 [0x00] END_REQSTACK()
```

### Event 65535.23

#### Metadata

| Field        | Value    |
|--------------|----------|
| Entrypoint   | 0x0255   |
| Data Size    | 29 bytes |
| Instructions | 3        |

```
      00 01 02 03 04 05 06 07  08 09 0A 0B 0C 0D 0E 0F
      -- -- -- -- -- -- -- --  -- -- -- -- -- -- -- --
0250:                5B 16 80  F8 FF FF 7F F8 FF FF 7F       [..........
0260: 68 74 62 30 53 F8 FF FF  7F F8 FF FF 7F 68 74 62  htb0S........htb
0270: 30 00                                             0.              
```

#### Opcodes

```
  0: 0x0255 [0x5B] LOAD_EXT_SCHEDULER: Load scheduler "htb0" with entities [EventEntity, EventEntity], work=450*
  1: 0x0264 [0x53] WAIT_SCHEDULER_TASK: Wait for scheduler "htb0" with entities [EventEntity, EventEntity]
  2: 0x0271 [0x00] END_REQSTACK()
```

### Event 65535.24

#### Metadata

| Field        | Value    |
|--------------|----------|
| Entrypoint   | 0x0272   |
| Data Size    | 29 bytes |
| Instructions | 3        |

```
      00 01 02 03 04 05 06 07  08 09 0A 0B 0C 0D 0E 0F
      -- -- -- -- -- -- -- --  -- -- -- -- -- -- -- --
0270:       5B 16 80 F8 FF FF  7F F8 FF FF 7F 68 74 63    [..........htc
0280: 30 53 F8 FF FF 7F F8 FF  FF 7F 68 74 63 30 00     0S........htc0. 
```

#### Opcodes

```
  0: 0x0272 [0x5B] LOAD_EXT_SCHEDULER: Load scheduler "htc0" with entities [EventEntity, EventEntity], work=450*
  1: 0x0281 [0x53] WAIT_SCHEDULER_TASK: Wait for scheduler "htc0" with entities [EventEntity, EventEntity]
  2: 0x028E [0x00] END_REQSTACK()
```

### Event 65535.25

#### Metadata

| Field        | Value    |
|--------------|----------|
| Entrypoint   | 0x028F   |
| Data Size    | 29 bytes |
| Instructions | 3        |

```
      00 01 02 03 04 05 06 07  08 09 0A 0B 0C 0D 0E 0F
      -- -- -- -- -- -- -- --  -- -- -- -- -- -- -- --
0280:                                               5B                 [
0290: 16 80 F8 FF FF 7F F8 FF  FF 7F 74 68 6B 31 53 F8  ..........thk1S.
02A0: FF FF 7F F8 FF FF 7F 74  68 6B 31 00              .......thk1.    
```

#### Opcodes

```
  0: 0x028F [0x5B] LOAD_EXT_SCHEDULER: Load scheduler "thk1" with entities [EventEntity, EventEntity], work=450*
  1: 0x029E [0x53] WAIT_SCHEDULER_TASK: Wait for scheduler "thk1" with entities [EventEntity, EventEntity]
  2: 0x02AB [0x00] END_REQSTACK()
```

### Event 65535.26

#### Metadata

| Field        | Value    |
|--------------|----------|
| Entrypoint   | 0x02AC   |
| Data Size    | 19 bytes |
| Instructions | 3        |

```
      00 01 02 03 04 05 06 07  08 09 0A 0B 0C 0D 0E 0F
      -- -- -- -- -- -- -- --  -- -- -- -- -- -- -- --
02A0:                                      5B 17 80 F8              [...
02B0: FF FF 7F F8 FF FF 7F 75  74 75 30 1C 18 80 00     .......utu0.... 
```

#### Opcodes

```
  0: 0x02AC [0x5B] LOAD_EXT_SCHEDULER: Load scheduler "utu0" with entities [EventEntity, EventEntity], work=451*
  1: 0x02BB [0x1C] WAIT(90* ticks)
  2: 0x02BE [0x00] END_REQSTACK()
```

### Event 65535.27

#### Metadata

| Field        | Value    |
|--------------|----------|
| Entrypoint   | 0x02BF   |
| Data Size    | 29 bytes |
| Instructions | 3        |

```
      00 01 02 03 04 05 06 07  08 09 0A 0B 0C 0D 0E 0F
      -- -- -- -- -- -- -- --  -- -- -- -- -- -- -- --
02B0:                                               5B                 [
02C0: 17 80 F8 FF FF 7F F8 FF  FF 7F 75 74 75 31 53 F8  ..........utu1S.
02D0: FF FF 7F F8 FF FF 7F 75  74 75 31 00              .......utu1.    
```

#### Opcodes

```
  0: 0x02BF [0x5B] LOAD_EXT_SCHEDULER: Load scheduler "utu1" with entities [EventEntity, EventEntity], work=451*
  1: 0x02CE [0x53] WAIT_SCHEDULER_TASK: Wait for scheduler "utu1" with entities [EventEntity, EventEntity]
  2: 0x02DB [0x00] END_REQSTACK()
```

### Event 65535.28

#### Metadata

| Field        | Value    |
|--------------|----------|
| Entrypoint   | 0x02DC   |
| Data Size    | 29 bytes |
| Instructions | 3        |

```
      00 01 02 03 04 05 06 07  08 09 0A 0B 0C 0D 0E 0F
      -- -- -- -- -- -- -- --  -- -- -- -- -- -- -- --
02D0:                                      5B 19 80 F8              [...
02E0: FF FF 7F F8 FF FF 7F 79  65 73 30 53 F8 FF FF 7F  .......yes0S....
02F0: F8 FF FF 7F 79 65 73 30  00                       ....yes0.       
```

#### Opcodes

```
  0: 0x02DC [0x5B] LOAD_EXT_SCHEDULER: Load scheduler "yes0" with entities [EventEntity, EventEntity], work=452*
  1: 0x02EB [0x53] WAIT_SCHEDULER_TASK: Wait for scheduler "yes0" with entities [EventEntity, EventEntity]
  2: 0x02F8 [0x00] END_REQSTACK()
```

### Event 65535.29

#### Metadata

| Field        | Value    |
|--------------|----------|
| Entrypoint   | 0x02F9   |
| Data Size    | 29 bytes |
| Instructions | 3        |

```
      00 01 02 03 04 05 06 07  08 09 0A 0B 0C 0D 0E 0F
      -- -- -- -- -- -- -- --  -- -- -- -- -- -- -- --
02F0:                             5B 19 80 F8 FF FF 7F           [......
0300: F8 FF FF 7F 61 6D 75 32  53 F8 FF FF 7F F8 FF FF  ....amu2S.......
0310: 7F 61 6D 75 32 00                                 .amu2.          
```

#### Opcodes

```
  0: 0x02F9 [0x5B] LOAD_EXT_SCHEDULER: Load scheduler "amu2" with entities [EventEntity, EventEntity], work=452*
  1: 0x0308 [0x53] WAIT_SCHEDULER_TASK: Wait for scheduler "amu2" with entities [EventEntity, EventEntity]
  2: 0x0315 [0x00] END_REQSTACK()
```

### Event 65535.30

#### Metadata

| Field        | Value    |
|--------------|----------|
| Entrypoint   | 0x0316   |
| Data Size    | 29 bytes |
| Instructions | 3        |

```
      00 01 02 03 04 05 06 07  08 09 0A 0B 0C 0D 0E 0F
      -- -- -- -- -- -- -- --  -- -- -- -- -- -- -- --
0310:                   5B 19  80 F8 FF FF 7F F8 FF FF        [.........
0320: 7F 61 6D 75 33 53 F8 FF  FF 7F F8 FF FF 7F 61 6D  .amu3S........am
0330: 75 33 00                                          u3.             
```

#### Opcodes

```
  0: 0x0316 [0x5B] LOAD_EXT_SCHEDULER: Load scheduler "amu3" with entities [EventEntity, EventEntity], work=452*
  1: 0x0325 [0x53] WAIT_SCHEDULER_TASK: Wait for scheduler "amu3" with entities [EventEntity, EventEntity]
  2: 0x0332 [0x00] END_REQSTACK()
```

### Event 142

#### Metadata

| Field        | Value   |
|--------------|---------|
| Entrypoint   | 0x0333  |
| Data Size    | 1 bytes |
| Instructions | 1       |

```
      00 01 02 03 04 05 06 07  08 09 0A 0B 0C 0D 0E 0F
      -- -- -- -- -- -- -- --  -- -- -- -- -- -- -- --
0330:          00                                          .            
```

#### Opcodes

```
  0: 0x0333 [0x00] END_REQSTACK()
```

### Event 143

#### Metadata

| Field        | Value   |
|--------------|---------|
| Entrypoint   | 0x0334  |
| Data Size    | 1 bytes |
| Instructions | 1       |

```
      00 01 02 03 04 05 06 07  08 09 0A 0B 0C 0D 0E 0F
      -- -- -- -- -- -- -- --  -- -- -- -- -- -- -- --
0330:             00                                        .           
```

#### Opcodes

```
  0: 0x0334 [0x00] END_REQSTACK()
```

### Event 65535.31

#### Metadata

| Field        | Value    |
|--------------|----------|
| Entrypoint   | 0x0335   |
| Data Size    | 10 bytes |
| Instructions | 2        |

```
      00 01 02 03 04 05 06 07  08 09 0A 0B 0C 0D 0E 0F
      -- -- -- -- -- -- -- --  -- -- -- -- -- -- -- --
0330:                37 1A 80  1B 80 15 80 1C 80 00          7......... 
```

#### Opcodes

```
  0: 0x0335 [0x37] UPDATE_EVENT_POSITION_AND_DIR: x=-0.006*, z=73.388*, y=-4.999*, direction=89.9°*
  1: 0x033E [0x00] END_REQSTACK()
```

### Event 65535.32

#### Metadata

| Field        | Value    |
|--------------|----------|
| Entrypoint   | 0x033F   |
| Data Size    | 32 bytes |
| Instructions | 8        |

```
      00 01 02 03 04 05 06 07  08 09 0A 0B 0C 0D 0E 0F
      -- -- -- -- -- -- -- --  -- -- -- -- -- -- -- --
0330:                                               32                 2
0340: 05 80 1F 00 1D 80 1E 80  15 80 1F 01 27 10 92 30  ............'..0
0350: 0F 01 09 1F 00 00 80 1F  80 15 80 1F 01 6F 00     .............o. 
```

#### Opcodes

```
  0: 0x033F [0x32] ExtData[1]->MainSpeed = 13* * 0.1
  1: 0x0342 [0x1F] MOVE_ENTITY: EventEntity moves to X=-0.003*, Z=69.321*, Y=-4.999*
  2: 0x034A [0x1F] MOVE_ENTITY: Update entity position (mode=1)
  3: 0x034C [0x27] REQ_SET(priority=0x10, entity_id=Door:Audience Chamber (ID: 17772690/0x010F3092), tag_num=0x09)
  4: 0x0353 [0x1F] MOVE_ENTITY: EventEntity moves to X=0.000*, Z=63.588*, Y=-4.999*
  5: 0x035B [0x1F] MOVE_ENTITY: Update entity position (mode=1)
  6: 0x035D [0x6F] WAIT_FRAME_DELAY: Yield until WaitTime reaches zero
  7: 0x035E [0x00] END_REQSTACK()
```

### Event 65535.33

#### Metadata

| Field        | Value    |
|--------------|----------|
| Entrypoint   | 0x035F   |
| Data Size    | 10 bytes |
| Instructions | 2        |

```
      00 01 02 03 04 05 06 07  08 09 0A 0B 0C 0D 0E 0F
      -- -- -- -- -- -- -- --  -- -- -- -- -- -- -- --
0350:                                               37                 7
0360: 20 80 21 80 10 80 22 80  00                        .!..."..       
```

#### Opcodes

```
  0: 0x035F [0x37] UPDATE_EVENT_POSITION_AND_DIR: x=-0.011*, z=86.189*, y=-5.000*, direction=90.9°*
  1: 0x0368 [0x00] END_REQSTACK()
```

### Event 161

#### Metadata

| Field        | Value   |
|--------------|---------|
| Entrypoint   | 0x0369  |
| Data Size    | 1 bytes |
| Instructions | 1       |

```
      00 01 02 03 04 05 06 07  08 09 0A 0B 0C 0D 0E 0F
      -- -- -- -- -- -- -- --  -- -- -- -- -- -- -- --
0360:                             00                             .      
```

#### Opcodes

```
  0: 0x0369 [0x00] END_REQSTACK()
```

### Event 162

#### Metadata

| Field        | Value   |
|--------------|---------|
| Entrypoint   | 0x036A  |
| Data Size    | 1 bytes |
| Instructions | 1       |

```
      00 01 02 03 04 05 06 07  08 09 0A 0B 0C 0D 0E 0F
      -- -- -- -- -- -- -- --  -- -- -- -- -- -- -- --
0360:                                00                           .     
```

#### Opcodes

```
  0: 0x036A [0x00] END_REQSTACK()
```

### Event 123

#### Metadata

| Field        | Value   |
|--------------|---------|
| Entrypoint   | 0x036B  |
| Data Size    | 1 bytes |
| Instructions | 1       |

```
      00 01 02 03 04 05 06 07  08 09 0A 0B 0C 0D 0E 0F
      -- -- -- -- -- -- -- --  -- -- -- -- -- -- -- --
0360:                                   00                         .    
```

#### Opcodes

```
  0: 0x036B [0x00] END_REQSTACK()
```

### Event 65535.34

#### Metadata

| Field        | Value    |
|--------------|----------|
| Entrypoint   | 0x036C   |
| Data Size    | 10 bytes |
| Instructions | 2        |

```
      00 01 02 03 04 05 06 07  08 09 0A 0B 0C 0D 0E 0F
      -- -- -- -- -- -- -- --  -- -- -- -- -- -- -- --
0360:                                      37 23 80 24              7#.$
0370: 80 04 80 25 80 00                                 ...%..          
```

#### Opcodes

```
  0: 0x036C [0x37] UPDATE_EVENT_POSITION_AND_DIR: x=-7.869*, z=45.854*, y=2.000*, direction=20.3°*
  1: 0x0375 [0x00] END_REQSTACK()
```

### Event 65535.35

#### Metadata

| Field        | Value    |
|--------------|----------|
| Entrypoint   | 0x0376   |
| Data Size    | 15 bytes |
| Instructions | 5        |

```
      00 01 02 03 04 05 06 07  08 09 0A 0B 0C 0D 0E 0F
      -- -- -- -- -- -- -- --  -- -- -- -- -- -- -- --
0370:                   32 05  80 1F 00 26 80 27 80 04        2....&.'..
0380: 80 1F 01 6F 00                                    ...o.           
```

#### Opcodes

```
  0: 0x0376 [0x32] ExtData[1]->MainSpeed = 13* * 0.1
  1: 0x0379 [0x1F] MOVE_ENTITY: EventEntity moves to X=-2.807*, Z=43.972*, Y=2.000*
  2: 0x0381 [0x1F] MOVE_ENTITY: Update entity position (mode=1)
  3: 0x0383 [0x6F] WAIT_FRAME_DELAY: Yield until WaitTime reaches zero
  4: 0x0384 [0x00] END_REQSTACK()
```

### Event 65535.36

#### Metadata

| Field        | Value    |
|--------------|----------|
| Entrypoint   | 0x0385   |
| Data Size    | 10 bytes |
| Instructions | 2        |

```
      00 01 02 03 04 05 06 07  08 09 0A 0B 0C 0D 0E 0F
      -- -- -- -- -- -- -- --  -- -- -- -- -- -- -- --
0380:                37 28 80  29 80 15 80 2A 80 00          7(.)...*.. 
```

#### Opcodes

```
  0: 0x0385 [0x37] UPDATE_EVENT_POSITION_AND_DIR: x=-0.420*, z=75.226*, y=-4.999*, direction=270.3°*
  1: 0x038E [0x00] END_REQSTACK()
```

### Event 65535.37

#### Metadata

| Field        | Value    |
|--------------|----------|
| Entrypoint   | 0x038F   |
| Data Size    | 15 bytes |
| Instructions | 5        |

```
      00 01 02 03 04 05 06 07  08 09 0A 0B 0C 0D 0E 0F
      -- -- -- -- -- -- -- --  -- -- -- -- -- -- -- --
0380:                                               32                 2
0390: 05 80 1F 00 2B 80 2C 80  15 80 1F 01 6F 00        ....+.,.....o.  
```

#### Opcodes

```
  0: 0x038F [0x32] ExtData[1]->MainSpeed = 13* * 0.1
  1: 0x0392 [0x1F] MOVE_ENTITY: EventEntity moves to X=-0.397*, Z=79.624*, Y=-4.999*
  2: 0x039A [0x1F] MOVE_ENTITY: Update entity position (mode=1)
  3: 0x039C [0x6F] WAIT_FRAME_DELAY: Yield until WaitTime reaches zero
  4: 0x039D [0x00] END_REQSTACK()
```

### Event 65535.38

#### Metadata

| Field        | Value    |
|--------------|----------|
| Entrypoint   | 0x039E   |
| Data Size    | 15 bytes |
| Instructions | 5        |

```
      00 01 02 03 04 05 06 07  08 09 0A 0B 0C 0D 0E 0F
      -- -- -- -- -- -- -- --  -- -- -- -- -- -- -- --
0390:                                            32 0C                2.
03A0: 80 1F 00 2D 80 2E 80 10  80 1F 01 6F 00           ...-.......o.   
```

#### Opcodes

```
  0: 0x039E [0x32] ExtData[1]->MainSpeed = 10* * 0.1
  1: 0x03A1 [0x1F] MOVE_ENTITY: EventEntity moves to X=-2.382*, Z=81.399*, Y=-5.000*
  2: 0x03A9 [0x1F] MOVE_ENTITY: Update entity position (mode=1)
  3: 0x03AB [0x6F] WAIT_FRAME_DELAY: Yield until WaitTime reaches zero
  4: 0x03AC [0x00] END_REQSTACK()
```

### Event 65535.39

#### Metadata

| Field        | Value    |
|--------------|----------|
| Entrypoint   | 0x03AD   |
| Data Size    | 10 bytes |
| Instructions | 2        |

```
      00 01 02 03 04 05 06 07  08 09 0A 0B 0C 0D 0E 0F
      -- -- -- -- -- -- -- --  -- -- -- -- -- -- -- --
03A0:                                         37 2F 80               7/.
03B0: 30 80 15 80 31 80 00                              0...1..         
```

#### Opcodes

```
  0: 0x03AD [0x37] UPDATE_EVENT_POSITION_AND_DIR: x=0.018*, z=63.378*, y=-4.999*, direction=90.3°*
  1: 0x03B6 [0x00] END_REQSTACK()
```

### Event 65535.40

#### Metadata

| Field        | Value    |
|--------------|----------|
| Entrypoint   | 0x03B7   |
| Data Size    | 10 bytes |
| Instructions | 2        |

```
      00 01 02 03 04 05 06 07  08 09 0A 0B 0C 0D 0E 0F
      -- -- -- -- -- -- -- --  -- -- -- -- -- -- -- --
03B0:                      37  05 80 32 80 33 80 34 80         7..2.3.4.
03C0: 00                                                .               
```

#### Opcodes

```
  0: 0x03B7 [0x37] UPDATE_EVENT_POSITION_AND_DIR: x=0.013*, z=92.680*, y=-6.996*, direction=270.3°*
  1: 0x03C0 [0x00] END_REQSTACK()
```
