# 17772697

## Common Data

| Field            | Value                     |
|------------------|---------------------------|
| Zone             | Ru'Lude Gardens (ID: 243) |
| Block Size       | 1076 bytes                |
| Total Events     | 3                         |
| References Count | 15                        |

## List of Events

| Event ID                 | Entrypoint   |   Size |   Instructions |
|--------------------------|--------------|--------|----------------|
| [65535](#event-65535)    | 0x0000       |      1 |              1 |
| [10008](#event-10008)    | 0x0001       |      1 |              1 |
| [65535.1](#event-655351) | 0x0002       |    986 |            126 |

## DAT References (imed_data)

|   Index | Hex Value   |   Dec Value |
|---------|-------------|-------------|
|       0 | 0x0000      |           0 |
|       1 | 0x00C8      |         200 |
|       2 | 0x0078      |         120 |
|       3 | 0x000C      |          12 |
|       4 | 0x0002      |           2 |
|       5 | 0x0013      |          19 |
|       6 | 0x009C      |         156 |
|       7 | 0x007F      |         127 |
|       8 | 0x0001      |           1 |
|       9 | 0x012C      |         300 |
|      10 | 0x00BC      |         188 |
|      11 | 0x00C9      |         201 |
|      12 | 0x0064      |         100 |
|      13 | 0x1AAE      |        6830 |
|      14 | 0x003C      |          60 |

## Events

### Event 65535

#### Metadata

| Field        | Value   |
|--------------|---------|
| Entrypoint   | 0x0000  |
| Data Size    | 1 bytes |
| Instructions | 1       |

```
      00 01 02 03 04 05 06 07  08 09 0A 0B 0C 0D 0E 0F
      -- -- -- -- -- -- -- --  -- -- -- -- -- -- -- --
0000: 00                                                .               
```

#### Opcodes

```
  0: 0x0000 [0x00] END_REQSTACK()
```

### Event 10008

#### Metadata

| Field        | Value   |
|--------------|---------|
| Entrypoint   | 0x0001  |
| Data Size    | 1 bytes |
| Instructions | 1       |

```
      00 01 02 03 04 05 06 07  08 09 0A 0B 0C 0D 0E 0F
      -- -- -- -- -- -- -- --  -- -- -- -- -- -- -- --
0000:    00                                              .              
```

#### Opcodes

```
  0: 0x0001 [0x00] END_REQSTACK()
```

### Event 65535.1

#### Metadata

| Field        | Value     |
|--------------|-----------|
| Entrypoint   | 0x0002    |
| Data Size    | 986 bytes |
| Instructions | 126       |

```
      00 01 02 03 04 05 06 07  08 09 0A 0B 0C 0D 0E 0F
      -- -- -- -- -- -- -- --  -- -- -- -- -- -- -- --
0000:       42 20 01 46 01 5D  00 80 01 80 1C 02 80 77    B .F.].......w
0010: 03 80 04 80 4E 01 F0 FF  FF 7F 38 05 80 5C 00 06  ....N.....8..\..
0020: 80 5C 01 06 80 5D 07 80  08 80 1C 09 80 79 00 9B  .\...].......y..
0030: 30 0F 01 9D 30 0F 01 4A  9D 30 0F 01 9B 30 0F 01  0...0..J.0...0..
0040: 4A 9C 30 0F 01 9B 30 0F  01 6F 76 9C 30 0F 01 6F  J.0...0..ov.0..o
0050: 76 9D 30 0F 01 29 08 9C  30 0F 01 07 29 08 9C 30  v.0..)..0...)..0
0060: 0F 01 08 27 0B 9A 30 0F  01 13 45 0A 80 F8 FF FF  ...'..0...E.....
0070: 7F F8 FF FF 7F 73 30 31  32 00 80 29 03 9B 30 0F  .....s012..)..0.
0080: 01 12 45 0B 80 F0 FF FF  7F F0 FF FF 7F 77 68 69  ..E..........whi
0090: 31 00 80 29 08 9D 30 0F  01 01 1C 01 80 52 0A 80  1..)..0......R..
00A0: F8 FF FF 7F F8 FF FF 7F  73 30 31 32 45 0A 80 F8  ........s012E...
00B0: FF FF 7F F8 FF FF 7F 73  30 31 33 00 80 29 08 9C  .......s013..)..
00C0: 30 0F 01 09 29 08 9C 30  0F 01 0A 4A 9C 30 0F 01  0...)..0...J.0..
00D0: 9A 30 0F 01 6F 76 9C 30  0F 01 29 08 9D 30 0F 01  .0..ov.0..)..0..
00E0: 02 29 08 9D 30 0F 01 03  79 00 9B 30 0F 01 9A 30  .)..0...y..0...0
00F0: 0F 01 1C 02 80 29 08 9D  30 0F 01 04 4A 9D 30 0F  .....)..0...J.0.
0100: 01 9A 30 0F 01 6F 76 9D  30 0F 01 2A 0B 9A 30 0F  ..0..ov.0..*..0.
0110: 01 55 0A 80 F8 FF FF 7F  F8 FF FF 7F 73 30 31 33  .U..........s013
0120: 45 0A 80 F8 FF FF 7F F8  FF FF 7F 73 30 31 35 00  E..........s015.
0130: 80 29 0B 9A 30 0F 01 15  29 08 9B 30 0F 01 03 29  .)..0...)..0...)
0140: 0B 9B 30 0F 01 0E 4A 9C  30 0F 01 9B 30 0F 01 6F  ..0...J.0...0..o
0150: 76 9C 30 0F 01 29 0B 9C  30 0F 01 0E 45 01 80 F8  v.0..)..0...E...
0160: FF FF 7F F8 FF FF 7F 66  64 6F 31 00 80 52 0A 80  .......fdo1..R..
0170: F8 FF FF 7F F8 FF FF 7F  73 30 31 35 1C 0C 80 29  ........s015...)
0180: 08 9B 30 0F 01 04 29 08  9B 30 0F 01 05 29 08 9B  ..0...)..0...)..
0190: 30 0F 01 06 45 0A 80 F8  FF FF 7F F8 FF FF 7F 73  0...E..........s
01A0: 30 31 36 00 80 4A 9C 30  0F 01 9A 30 0F 01 6F 76  016..J.0...0..ov
01B0: 9C 30 0F 01 45 01 80 F8  FF FF 7F F8 FF FF 7F 66  .0..E..........f
01C0: 64 69 31 00 80 29 0B 9C  30 0F 01 0F 29 0B 9A 30  di1..)..0...)..0
01D0: 0F 01 16 52 0A 80 F8 FF  FF 7F F8 FF FF 7F 73 30  ...R..........s0
01E0: 31 36 45 0A 80 F8 FF FF  7F F8 FF FF 7F 73 30 31  16E..........s01
01F0: 37 00 80 79 00 9A 30 0F  01 9D 30 0F 01 79 00 9C  7..y..0...0..y..
0200: 30 0F 01 9D 30 0F 01 29  0B 9D 30 0F 01 17 29 0B  0...0..)..0...).
0210: 9D 30 0F 01 18 4A 9C 30  0F 01 9D 30 0F 01 6F 76  .0...J.0...0..ov
0220: 9C 30 0F 01 52 0A 80 F8  FF FF 7F F8 FF FF 7F 73  .0..R..........s
0230: 30 31 37 45 0A 80 F8 FF  FF 7F F8 FF FF 7F 73 30  017E..........s0
0240: 31 38 00 80 79 00 9A 30  0F 01 9C 30 0F 01 79 00  18..y..0...0..y.
0250: 9D 30 0F 01 9C 30 0F 01  79 00 9B 30 0F 01 9C 30  .0...0..y..0...0
0260: 0F 01 29 0B 9C 30 0F 01  10 52 0A 80 F8 FF FF 7F  ..)..0...R......
0270: F8 FF FF 7F 73 30 31 38  4A 9C 30 0F 01 9A 30 0F  ....s018J.0...0.
0280: 01 6F 76 9C 30 0F 01 45  0A 80 F8 FF FF 7F F8 FF  .ov.0..E........
0290: FF 7F 73 30 31 39 00 80  29 0B 9C 30 0F 01 11 29  ..s019..)..0...)
02A0: 0B 9C 30 0F 01 12 29 0B  9A 30 0F 01 17 52 0A 80  ..0...)..0...R..
02B0: F8 FF FF 7F F8 FF FF 7F  73 30 31 39 45 0A 80 F8  ........s019E...
02C0: FF FF 7F F8 FF FF 7F 73  30 32 30 00 80 7B 9A 30  .......s020..{.0
02D0: 0F 01 4A 9C 30 0F 01 9D  30 0F 01 29 0B 9D 30 0F  ..J.0...0..)..0.
02E0: 01 19 52 0A 80 F8 FF FF  7F F8 FF FF 7F 73 30 32  ..R..........s02
02F0: 30 45 0A 80 F8 FF FF 7F  F8 FF FF 7F 73 30 31 34  0E..........s014
0300: 00 80 4A 9D 30 0F 01 9B  30 0F 01 6F 76 9D 30 0F  ..J.0...0..ov.0.
0310: 01 4A 9C 30 0F 01 9B 30  0F 01 29 08 9B 30 0F 01  .J.0...0..)..0..
0320: 07 27 08 9D 30 0F 01 09  2B 9D 30 0F 01 0D 80 23  .'..0...+.0....#
0330: 2A 08 9D 30 0F 01 29 08  9D 30 0F 01 0A 29 08 9B  *..0..)..0...)..
0340: 30 0F 01 08 29 08 9B 30  0F 01 09 6F 76 9C 30 0F  0...)..0...ov.0.
0350: 01 4A 9D 30 0F 01 9A 30  0F 01 29 08 9B 30 0F 01  .J.0...0..)..0..
0360: 0A 52 0A 80 F8 FF FF 7F  F8 FF FF 7F 73 30 31 34  .R..........s014
0370: 45 0A 80 F8 FF FF 7F F8  FF FF 7F 73 30 31 37 00  E..........s017.
0380: 80 6F 76 9D 30 0F 01 4A  9C 30 0F 01 9A 30 0F 01  .ov.0..J.0...0..
0390: 29 0B 9D 30 0F 01 1B 29  0B 9A 30 0F 01 18 52 0A  )..0...)..0...R.
03A0: 80 F8 FF FF 7F F8 FF FF  7F 73 30 31 37 45 0A 80  .........s017E..
03B0: F8 FF FF 7F F8 FF FF 7F  73 30 31 35 00 80 29 0B  ........s015..).
03C0: 9B 30 0F 01 0F 29 0B 9A  30 0F 01 19 27 0B 9A 30  .0...)..0...'..0
03D0: 0F 01 14 1C 0E 80 5D 00  80 01 80 00              ......].....    
```

#### Opcodes

```
  0: 0x0002 [0x42] SET_CLI_EVENT_CANCEL_DATA()
  1: 0x0003 [0x20] SET_CLI_EVENT_UC_FLAG: Lock player control
  2: 0x0005 [0x46] CAMERA_CONTROL: Disable user control
  3: 0x0007 [0x5D] SET_MUSIC_VOLUME(volume=0*, fade_time=200*)
  4: 0x000C [0x1C] WAIT(120* ticks)
  5: 0x000F [0x77] SET_EVENT_TIME_WEATHER(hour=12*, weather=2*)
  6: 0x0014 [0x4E] SET_ENTITY_HIDE_FLAG: Hide LocalPlayer
  7: 0x001A [0x38] SET_CLIENT_EVENT_MODE(mode=19*)
  8: 0x001D [0x5C] MUSIC_CONTROL: Set Idle (Day) music to song 156*
  9: 0x0021 [0x5C] MUSIC_CONTROL: Set Idle (Night) music to song 156*
 10: 0x0025 [0x5D] SET_MUSIC_VOLUME(volume=127*, fade_time=1*)
 11: 0x002A [0x1C] WAIT(300* ticks)
 12: 0x002D [0x79] Destin (ID: 17772699/0x010F309B) looks at Muchavatte (ID: 17772701/0x010F309D) (Basic look)
 13: 0x0037 [0x4A] Muchavatte (ID: 17772701/0x010F309D) looks at Destin (ID: 17772699/0x010F309B)
 14: 0x0040 [0x4A] Periduque (ID: 17772700/0x010F309C) looks at Destin (ID: 17772699/0x010F309B)
 15: 0x0049 [0x6F] WAIT_FRAME_DELAY: Yield until WaitTime reaches zero
 16: 0x004A [0x76] CHECK_ENTITY_RENDER_FLAGS: Wait until Periduque (ID: 17772700/0x010F309C) Render.Flags0 and Render.Flags3 conditions are met
 17: 0x004F [0x6F] WAIT_FRAME_DELAY: Yield until WaitTime reaches zero
 18: 0x0050 [0x76] CHECK_ENTITY_RENDER_FLAGS: Wait until Muchavatte (ID: 17772701/0x010F309D) Render.Flags0 and Render.Flags3 conditions are met
 19: 0x0055 [0x29] REQ_SET_WAIT(priority=0x08, entity_id=Periduque (ID: 17772700/0x010F309C), tag_num=0x07)
 20: 0x005C [0x29] REQ_SET_WAIT(priority=0x08, entity_id=Periduque (ID: 17772700/0x010F309C), tag_num=0x08)
 21: 0x0063 [0x27] REQ_SET(priority=0x0B, entity_id=Francmage (ID: 17772698/0x010F309A), tag_num=0x13)
 22: 0x006A [0x45] LOAD_SCHEDULED_TASK: Load scheduler "s012" with entities [EventEntity, EventEntity], work=[188*, 0*]
 23: 0x007B [0x29] REQ_SET_WAIT(priority=0x03, entity_id=Destin (ID: 17772699/0x010F309B), tag_num=0x12)
 24: 0x0082 [0x45] LOAD_SCHEDULED_TASK: Load scheduler "whi1" with entities [LocalPlayer, LocalPlayer], work=[201*, 0*]
 25: 0x0093 [0x29] REQ_SET_WAIT(priority=0x08, entity_id=Muchavatte (ID: 17772701/0x010F309D), tag_num=0x01)
 26: 0x009A [0x1C] WAIT(200* ticks)
 27: 0x009D [0x52] END_LOAD_SCHEDULER: End scheduler "s012" with entities [EventEntity, EventEntity], work=188*
 28: 0x00AC [0x45] LOAD_SCHEDULED_TASK: Load scheduler "s013" with entities [EventEntity, EventEntity], work=[188*, 0*]
 29: 0x00BD [0x29] REQ_SET_WAIT(priority=0x08, entity_id=Periduque (ID: 17772700/0x010F309C), tag_num=0x09)
 30: 0x00C4 [0x29] REQ_SET_WAIT(priority=0x08, entity_id=Periduque (ID: 17772700/0x010F309C), tag_num=0x0A)
 31: 0x00CB [0x4A] Periduque (ID: 17772700/0x010F309C) looks at Francmage (ID: 17772698/0x010F309A)
 32: 0x00D4 [0x6F] WAIT_FRAME_DELAY: Yield until WaitTime reaches zero
 33: 0x00D5 [0x76] CHECK_ENTITY_RENDER_FLAGS: Wait until Periduque (ID: 17772700/0x010F309C) Render.Flags0 and Render.Flags3 conditions are met
 34: 0x00DA [0x29] REQ_SET_WAIT(priority=0x08, entity_id=Muchavatte (ID: 17772701/0x010F309D), tag_num=0x02)
 35: 0x00E1 [0x29] REQ_SET_WAIT(priority=0x08, entity_id=Muchavatte (ID: 17772701/0x010F309D), tag_num=0x03)
 36: 0x00E8 [0x79] Destin (ID: 17772699/0x010F309B) looks at Francmage (ID: 17772698/0x010F309A) (Basic look)
 37: 0x00F2 [0x1C] WAIT(120* ticks)
 38: 0x00F5 [0x29] REQ_SET_WAIT(priority=0x08, entity_id=Muchavatte (ID: 17772701/0x010F309D), tag_num=0x04)
 39: 0x00FC [0x4A] Muchavatte (ID: 17772701/0x010F309D) looks at Francmage (ID: 17772698/0x010F309A)
 40: 0x0105 [0x6F] WAIT_FRAME_DELAY: Yield until WaitTime reaches zero
 41: 0x0106 [0x76] CHECK_ENTITY_RENDER_FLAGS: Wait until Muchavatte (ID: 17772701/0x010F309D) Render.Flags0 and Render.Flags3 conditions are met
 42: 0x010B [0x2A] GET_REQ_LEVEL(level=11, entity_id=Francmage (ID: 17772698/0x010F309A))
 43: 0x0111 [0x55] WAIT_LOAD_SCHEDULER: Wait for scheduler "s013" with entities [EventEntity, EventEntity], work=188*
 44: 0x0120 [0x45] LOAD_SCHEDULED_TASK: Load scheduler "s015" with entities [EventEntity, EventEntity], work=[188*, 0*]
 45: 0x0131 [0x29] REQ_SET_WAIT(priority=0x0B, entity_id=Francmage (ID: 17772698/0x010F309A), tag_num=0x15)
 46: 0x0138 [0x29] REQ_SET_WAIT(priority=0x08, entity_id=Destin (ID: 17772699/0x010F309B), tag_num=0x03)
 47: 0x013F [0x29] REQ_SET_WAIT(priority=0x0B, entity_id=Destin (ID: 17772699/0x010F309B), tag_num=0x0E)
 48: 0x0146 [0x4A] Periduque (ID: 17772700/0x010F309C) looks at Destin (ID: 17772699/0x010F309B)
 49: 0x014F [0x6F] WAIT_FRAME_DELAY: Yield until WaitTime reaches zero
 50: 0x0150 [0x76] CHECK_ENTITY_RENDER_FLAGS: Wait until Periduque (ID: 17772700/0x010F309C) Render.Flags0 and Render.Flags3 conditions are met
 51: 0x0155 [0x29] REQ_SET_WAIT(priority=0x0B, entity_id=Periduque (ID: 17772700/0x010F309C), tag_num=0x0E)
 52: 0x015C [0x45] LOAD_SCHEDULED_TASK: Load scheduler "fdo1" with entities [EventEntity, EventEntity], work=[200*, 0*]
 53: 0x016D [0x52] END_LOAD_SCHEDULER: End scheduler "s015" with entities [EventEntity, EventEntity], work=188*
 54: 0x017C [0x1C] WAIT(100* ticks)
 55: 0x017F [0x29] REQ_SET_WAIT(priority=0x08, entity_id=Destin (ID: 17772699/0x010F309B), tag_num=0x04)
 56: 0x0186 [0x29] REQ_SET_WAIT(priority=0x08, entity_id=Destin (ID: 17772699/0x010F309B), tag_num=0x05)
 57: 0x018D [0x29] REQ_SET_WAIT(priority=0x08, entity_id=Destin (ID: 17772699/0x010F309B), tag_num=0x06)
 58: 0x0194 [0x45] LOAD_SCHEDULED_TASK: Load scheduler "s016" with entities [EventEntity, EventEntity], work=[188*, 0*]
 59: 0x01A5 [0x4A] Periduque (ID: 17772700/0x010F309C) looks at Francmage (ID: 17772698/0x010F309A)
 60: 0x01AE [0x6F] WAIT_FRAME_DELAY: Yield until WaitTime reaches zero
 61: 0x01AF [0x76] CHECK_ENTITY_RENDER_FLAGS: Wait until Periduque (ID: 17772700/0x010F309C) Render.Flags0 and Render.Flags3 conditions are met
 62: 0x01B4 [0x45] LOAD_SCHEDULED_TASK: Load scheduler "fdi1" with entities [EventEntity, EventEntity], work=[200*, 0*]
 63: 0x01C5 [0x29] REQ_SET_WAIT(priority=0x0B, entity_id=Periduque (ID: 17772700/0x010F309C), tag_num=0x0F)
 64: 0x01CC [0x29] REQ_SET_WAIT(priority=0x0B, entity_id=Francmage (ID: 17772698/0x010F309A), tag_num=0x16)
 65: 0x01D3 [0x52] END_LOAD_SCHEDULER: End scheduler "s016" with entities [EventEntity, EventEntity], work=188*
 66: 0x01E2 [0x45] LOAD_SCHEDULED_TASK: Load scheduler "s017" with entities [EventEntity, EventEntity], work=[188*, 0*]
 67: 0x01F3 [0x79] Francmage (ID: 17772698/0x010F309A) looks at Muchavatte (ID: 17772701/0x010F309D) (Basic look)
 68: 0x01FD [0x79] Periduque (ID: 17772700/0x010F309C) looks at Muchavatte (ID: 17772701/0x010F309D) (Basic look)
 69: 0x0207 [0x29] REQ_SET_WAIT(priority=0x0B, entity_id=Muchavatte (ID: 17772701/0x010F309D), tag_num=0x17)
 70: 0x020E [0x29] REQ_SET_WAIT(priority=0x0B, entity_id=Muchavatte (ID: 17772701/0x010F309D), tag_num=0x18)
 71: 0x0215 [0x4A] Periduque (ID: 17772700/0x010F309C) looks at Muchavatte (ID: 17772701/0x010F309D)
 72: 0x021E [0x6F] WAIT_FRAME_DELAY: Yield until WaitTime reaches zero
 73: 0x021F [0x76] CHECK_ENTITY_RENDER_FLAGS: Wait until Periduque (ID: 17772700/0x010F309C) Render.Flags0 and Render.Flags3 conditions are met
 74: 0x0224 [0x52] END_LOAD_SCHEDULER: End scheduler "s017" with entities [EventEntity, EventEntity], work=188*
 75: 0x0233 [0x45] LOAD_SCHEDULED_TASK: Load scheduler "s018" with entities [EventEntity, EventEntity], work=[188*, 0*]
 76: 0x0244 [0x79] Francmage (ID: 17772698/0x010F309A) looks at Periduque (ID: 17772700/0x010F309C) (Basic look)
 77: 0x024E [0x79] Muchavatte (ID: 17772701/0x010F309D) looks at Periduque (ID: 17772700/0x010F309C) (Basic look)
 78: 0x0258 [0x79] Destin (ID: 17772699/0x010F309B) looks at Periduque (ID: 17772700/0x010F309C) (Basic look)
 79: 0x0262 [0x29] REQ_SET_WAIT(priority=0x0B, entity_id=Periduque (ID: 17772700/0x010F309C), tag_num=0x10)
 80: 0x0269 [0x52] END_LOAD_SCHEDULER: End scheduler "s018" with entities [EventEntity, EventEntity], work=188*
 81: 0x0278 [0x4A] Periduque (ID: 17772700/0x010F309C) looks at Francmage (ID: 17772698/0x010F309A)
 82: 0x0281 [0x6F] WAIT_FRAME_DELAY: Yield until WaitTime reaches zero
 83: 0x0282 [0x76] CHECK_ENTITY_RENDER_FLAGS: Wait until Periduque (ID: 17772700/0x010F309C) Render.Flags0 and Render.Flags3 conditions are met
 84: 0x0287 [0x45] LOAD_SCHEDULED_TASK: Load scheduler "s019" with entities [EventEntity, EventEntity], work=[188*, 0*]
 85: 0x0298 [0x29] REQ_SET_WAIT(priority=0x0B, entity_id=Periduque (ID: 17772700/0x010F309C), tag_num=0x11)
 86: 0x029F [0x29] REQ_SET_WAIT(priority=0x0B, entity_id=Periduque (ID: 17772700/0x010F309C), tag_num=0x12)
 87: 0x02A6 [0x29] REQ_SET_WAIT(priority=0x0B, entity_id=Francmage (ID: 17772698/0x010F309A), tag_num=0x17)
 88: 0x02AD [0x52] END_LOAD_SCHEDULER: End scheduler "s019" with entities [EventEntity, EventEntity], work=188*
 89: 0x02BC [0x45] LOAD_SCHEDULED_TASK: Load scheduler "s020" with entities [EventEntity, EventEntity], work=[188*, 0*]
 90: 0x02CD [0x7B] Francmage (ID: 17772698/0x010F309A) stops talking
 91: 0x02D2 [0x4A] Periduque (ID: 17772700/0x010F309C) looks at Muchavatte (ID: 17772701/0x010F309D)
 92: 0x02DB [0x29] REQ_SET_WAIT(priority=0x0B, entity_id=Muchavatte (ID: 17772701/0x010F309D), tag_num=0x19)
 93: 0x02E2 [0x52] END_LOAD_SCHEDULER: End scheduler "s020" with entities [EventEntity, EventEntity], work=188*
 94: 0x02F1 [0x45] LOAD_SCHEDULED_TASK: Load scheduler "s014" with entities [EventEntity, EventEntity], work=[188*, 0*]
 95: 0x0302 [0x4A] Muchavatte (ID: 17772701/0x010F309D) looks at Destin (ID: 17772699/0x010F309B)
 96: 0x030B [0x6F] WAIT_FRAME_DELAY: Yield until WaitTime reaches zero
 97: 0x030C [0x76] CHECK_ENTITY_RENDER_FLAGS: Wait until Muchavatte (ID: 17772701/0x010F309D) Render.Flags0 and Render.Flags3 conditions are met
 98: 0x0311 [0x4A] Periduque (ID: 17772700/0x010F309C) looks at Destin (ID: 17772699/0x010F309B)
 99: 0x031A [0x29] REQ_SET_WAIT(priority=0x08, entity_id=Destin (ID: 17772699/0x010F309B), tag_num=0x07)
100: 0x0321 [0x27] REQ_SET(priority=0x08, entity_id=Muchavatte (ID: 17772701/0x010F309D), tag_num=0x09)
101: 0x0328 [0x2B] Muchavatte (ID: 17772701/0x010F309D) [6830*]:
    → "The king has taken a beautiful queen, and I think a splendid addition to the royal family is not far off. An heir, perhaps..."
102: 0x032F [0x23] WAIT_FOR_DIALOG_INTERACTION
103: 0x0330 [0x2A] GET_REQ_LEVEL(level=8, entity_id=Muchavatte (ID: 17772701/0x010F309D))
104: 0x0336 [0x29] REQ_SET_WAIT(priority=0x08, entity_id=Muchavatte (ID: 17772701/0x010F309D), tag_num=0x0A)
105: 0x033D [0x29] REQ_SET_WAIT(priority=0x08, entity_id=Destin (ID: 17772699/0x010F309B), tag_num=0x08)
106: 0x0344 [0x29] REQ_SET_WAIT(priority=0x08, entity_id=Destin (ID: 17772699/0x010F309B), tag_num=0x09)
107: 0x034B [0x6F] WAIT_FRAME_DELAY: Yield until WaitTime reaches zero
108: 0x034C [0x76] CHECK_ENTITY_RENDER_FLAGS: Wait until Periduque (ID: 17772700/0x010F309C) Render.Flags0 and Render.Flags3 conditions are met
109: 0x0351 [0x4A] Muchavatte (ID: 17772701/0x010F309D) looks at Francmage (ID: 17772698/0x010F309A)
110: 0x035A [0x29] REQ_SET_WAIT(priority=0x08, entity_id=Destin (ID: 17772699/0x010F309B), tag_num=0x0A)
111: 0x0361 [0x52] END_LOAD_SCHEDULER: End scheduler "s014" with entities [EventEntity, EventEntity], work=188*
112: 0x0370 [0x45] LOAD_SCHEDULED_TASK: Load scheduler "s017" with entities [EventEntity, EventEntity], work=[188*, 0*]
113: 0x0381 [0x6F] WAIT_FRAME_DELAY: Yield until WaitTime reaches zero
114: 0x0382 [0x76] CHECK_ENTITY_RENDER_FLAGS: Wait until Muchavatte (ID: 17772701/0x010F309D) Render.Flags0 and Render.Flags3 conditions are met
115: 0x0387 [0x4A] Periduque (ID: 17772700/0x010F309C) looks at Francmage (ID: 17772698/0x010F309A)
116: 0x0390 [0x29] REQ_SET_WAIT(priority=0x0B, entity_id=Muchavatte (ID: 17772701/0x010F309D), tag_num=0x1B)
117: 0x0397 [0x29] REQ_SET_WAIT(priority=0x0B, entity_id=Francmage (ID: 17772698/0x010F309A), tag_num=0x18)
118: 0x039E [0x52] END_LOAD_SCHEDULER: End scheduler "s017" with entities [EventEntity, EventEntity], work=188*
119: 0x03AD [0x45] LOAD_SCHEDULED_TASK: Load scheduler "s015" with entities [EventEntity, EventEntity], work=[188*, 0*]
120: 0x03BE [0x29] REQ_SET_WAIT(priority=0x0B, entity_id=Destin (ID: 17772699/0x010F309B), tag_num=0x0F)
121: 0x03C5 [0x29] REQ_SET_WAIT(priority=0x0B, entity_id=Francmage (ID: 17772698/0x010F309A), tag_num=0x19)
122: 0x03CC [0x27] REQ_SET(priority=0x0B, entity_id=Francmage (ID: 17772698/0x010F309A), tag_num=0x14)
123: 0x03D3 [0x1C] WAIT(60* ticks)
124: 0x03D6 [0x5D] SET_MUSIC_VOLUME(volume=0*, fade_time=200*)
125: 0x03DB [0x00] END_REQSTACK()
```
