# 17772772 - Explorer_Moogle

## Common Data

| Field            | Value                     |
|------------------|---------------------------|
| Zone             | Ru'Lude Gardens (ID: 243) |
| Block Size       | 388 bytes                 |
| Total Events     | 2                         |
| References Count | 16                        |

## List of Events

| Event ID              | Entrypoint   |   Size |   Instructions |
|-----------------------|--------------|--------|----------------|
| [65535](#event-65535) | 0x0000       |      1 |              1 |
| [10107](#event-10107) | 0x0001       |    297 |             54 |

## DAT References (imed_data)

|   Index | Hex Value   |   Dec Value |
|---------|-------------|-------------|
|       0 | 0x3838      |       14392 |
|       1 | 0x0000      |           0 |
|       2 | 0x0001      |           1 |
|       3 | 0x0002      |           2 |
|       4 | 0x0003      |           3 |
|       5 | 0x0004      |           4 |
|       6 | 0xFFFFFFFF  |  4294967295 |
|       7 | 0x0005      |           5 |
|       8 | 0x0006      |           6 |
|       9 | 0x0007      |           7 |
|      10 | 0x0008      |           8 |
|      11 | 0x0009      |           9 |
|      12 | 0x000A      |          10 |
|      13 | 0x383A      |       14394 |
|      14 | 0x000D      |          13 |
|      15 | 0x3839      |       14393 |

## String References

- **14392**: &gqE->3" [$3T[$3o[$3$1[$3N$P15\\$&(ID)/$3T[$3o[$3$1[$3N$P15\\$&(INFO)/$3$1[$3 [$3h$3t$3@$3C$3 [$P15\\$&/$3{[$3 [$s$P10f$3G$3$3A/$P11S$P11Lx%J$P10]$P12h/$8%$3$3Z$3b$3g/STEP$m$P14F]
- **14393**: $3$3O$3^$3u$3b$3g [-$P10'$I%95\\7)$2228813/""&]
- **14394**: $P11S$P11Lx%J$P10]$P12h$3$3j$3$5[ [yzOP$3e$3|$P163%?%;/$5641036$K/yz$3$3@$3$3s[$3 [$3u$3$3b$3h/yz$3h$3b$3O$3m[$3Y/yz$3$3b$3L[$3}$3C$3X$3^[/yz$P15s$P14 $P11e%J$P14-$P106/yz$3n$3$3w$3$1[$3k/yz$3o$3X$3^[$3Y$3~$3$3N$3 [/yz$3$1[$3 [$3h$3o$3U[$3 [/yz$3G[$3X$3X$3v$3$3$3^[/yz$3N$3$3X$3^$3 [/$P11Sx%Jon/$P11Sx%Joff/yz&x%J$P14=%fi%i$P111$6226530i]

## Events

### Event 65535

#### Metadata

| Field        | Value   |
|--------------|---------|
| Entrypoint   | 0x0000  |
| Data Size    | 1 bytes |
| Instructions | 1       |

```
      00 01 02 03 04 05 06 07  08 09 0A 0B 0C 0D 0E 0F
      -- -- -- -- -- -- -- --  -- -- -- -- -- -- -- --
0000: 00                                                .               
```

#### Opcodes

```
  0: 0x0000 [0x00] END_REQSTACK()
```

### Event 10107

#### Metadata

| Field        | Value     |
|--------------|-----------|
| Entrypoint   | 0x0001    |
| Data Size    | 297 bytes |
| Instructions | 50        |

```
      00 01 02 03 04 05 06 07  08 09 0A 0B 0C 0D 0E 0F
      -- -- -- -- -- -- -- --  -- -- -- -- -- -- -- --
0000:    24 00 80 01 80 01 80  25 02 00 10 01 80 00 14   $......%.......
0010: 00 01 23 01 02 00 10 02  80 00 1F 00 01 23 01 02  ..#..........#..
0020: 00 10 03 80 00 2A 00 01  23 01 02 00 10 04 80 00  .....*..#.......
0030: 35 00 01 23 01 02 00 10  05 80 00 F0 00 06 02 00  5..#............
0040: 03 01 10 06 80 02 02 00  01 80 00 ED 00 43 00 43  .............C.C
0050: 01 03 00 00 02 10 03 01  00 03 10 41 01 80 01 80  ...........A....
0060: 01 00 02 10 41 02 80 02  80 01 00 03 10 41 03 80  ....A........A..
0070: 03 80 01 00 04 10 41 04  80 04 80 01 00 05 10 41  ......A........A
0080: 05 80 05 80 01 00 06 10  41 07 80 07 80 01 00 07  ........A.......
0090: 10 41 08 80 08 80 01 00  08 10 41 09 80 09 80 01  .A........A.....
00A0: 00 09 10 41 0A 80 0A 80  01 00 00 17 41 0B 80 0B  ...A........A...
00B0: 80 01 00 01 17 41 0C 80  0C 80 01 00 02 17 41 01  .....A........A.
00C0: 80 01 80 00 00 03 17 24  0D 80 01 80 01 80 25 02  .......$......%.
00D0: 00 10 01 80 00 DA 00 01  DA 00 03 01 10 00 10 02  ................
00E0: 01 10 0E 80 02 EA 00 05  02 00 01 45 00 01 23 01  ...........E..#.
00F0: 02 00 10 07 80 00 23 01  24 0F 80 02 80 01 80 25  ......#.$......%
0100: 02 00 10 01 80 00 12 01  03 01 10 05 80 21 00 01  .............!..
0110: 20 01 02 00 10 02 80 00  20 01 01 01 00 01 20 01   ....... ..... .
0120: 01 23 01 03 01 10 00 10  21 00                    .#......!.      
```

#### Opcodes

```
  0: 0x0001 [0x24] CREATE_DIALOG(message_id=14392*, default_option=0*, option_flags=0*)
    → "&gqE->3" [$3T[$3o[$3$1[$3N$P15\$&(ID)/$3T[$3o[$3$1[$3N$P15\$&(INFO)/$3$1[$3 [$3h$3t$3@$3C$3 [$P15\$&/$3{[$3 [$s$P10f$3G$3$3A/$P11S$P11Lx%J$P10]$P12h/$8%$3$3Z$3b$3g/STEP$m$P14F]"
  1: 0x0008 [0x25] WAIT_DIALOG_SELECT()
  2: 0x0009 [0x02] IF !(Work_Zone[0] == 0*) GOTO 0x0014
  3: 0x0011 [0x01] GOTO 0x0123
  4: 0x0014 [0x02] IF !(Work_Zone[0] == 1*) GOTO 0x001F
  5: 0x001C [0x01] GOTO 0x0123
  6: 0x001F [0x02] IF !(Work_Zone[0] == 2*) GOTO 0x002A
  7: 0x0027 [0x01] GOTO 0x0123
  8: 0x002A [0x02] IF !(Work_Zone[0] == 3*) GOTO 0x0035
  9: 0x0032 [0x01] GOTO 0x0123
 10: 0x0035 [0x02] IF !(Work_Zone[0] == 4*) GOTO 0x00F0
 11: 0x003D [0x06] ExtData[1]->WorkLocal[2] = 0
 12: 0x0040 [0x03] Work_Zone[1] = 4294967295*

SUBROUTINE_0045:
 13: 0x0045 [0x02] IF !(ExtData[1]->WorkLocal[2] == 0*) GOTO 0x00ED
 14: 0x004D [0x43] SEND_EVENT_UPDATE: Send pending tag to server (packet 0x005B)
 15: 0x004F [0x43] SEND_EVENT_UPDATE: Check pending flag (skip if not pending)
 16: 0x0051 [0x03] ExtData[1]->WorkLocal[0] = Work_Zone[2]
 17: 0x0056 [0x03] ExtData[1]->WorkLocal[1] = Work_Zone[3]
 18: 0x005B [0x41] Work_Zone[2] = ExtData[1]->WorkLocal[1] (bits 0*-0*)
 19: 0x0064 [0x41] Work_Zone[3] = ExtData[1]->WorkLocal[1] (bits 1*-1*)
 20: 0x006D [0x41] Work_Zone[4] = ExtData[1]->WorkLocal[1] (bits 2*-2*)
 21: 0x0076 [0x41] Work_Zone[5] = ExtData[1]->WorkLocal[1] (bits 3*-3*)
 22: 0x007F [0x41] Work_Zone[6] = ExtData[1]->WorkLocal[1] (bits 4*-4*)
 23: 0x0088 [0x41] Work_Zone[7] = ExtData[1]->WorkLocal[1] (bits 5*-5*)
 24: 0x0091 [0x41] Work_Zone[8] = ExtData[1]->WorkLocal[1] (bits 6*-6*)
 25: 0x009A [0x41] Work_Zone[9] = ExtData[1]->WorkLocal[1] (bits 7*-7*)
 26: 0x00A3 [0x41] Work_Zone_1700[0] = ExtData[1]->WorkLocal[1] (bits 8*-8*)
 27: 0x00AC [0x41] Work_Zone_1700[1] = ExtData[1]->WorkLocal[1] (bits 9*-9*)
 28: 0x00B5 [0x41] Work_Zone_1700[2] = ExtData[1]->WorkLocal[1] (bits 10*-10*)
 29: 0x00BE [0x41] Work_Zone_1700[3] = ExtData[1]->WorkLocal[0] (bits 0*-0*)
 30: 0x00C7 [0x24] CREATE_DIALOG(message_id=14394*, default_option=0*, option_flags=0*)
    → "$P11S$P11Lx%J$P10]$P12h$3$3j$3$5[ [yzOP$3e$3|$P163%?%;/$5641036$K/yz$3$3@$3$3s[$3 [$3u$3$3b$3h/yz$3h$3b$3O$3m[$3Y/yz$3$3b$3L[$3}$3C$3X$3^[/yz$P15s$P14 $P11e%J$P14-$P106/yz$3n$3$3w$3$1[$3k/yz$3o$3X$3^[$3Y$3~$3$3N$3 [/yz$3$1[$3 [$3h$3o$3U[$3 [/yz$3G[$3X$3X$3v$3$3$3^[/yz$3N$3$3X$3^$3 [/$P11Sx%Jon/$P11Sx%Joff/yz&x%J$P14=%fi%i$P111$6226530i]"
 31: 0x00CE [0x25] WAIT_DIALOG_SELECT()
 32: 0x00CF [0x02] IF !(Work_Zone[0] == 0*) GOTO 0x00DA
 33: 0x00D7 [0x01] GOTO 0x00DA

SUBROUTINE_00DA:
 34: 0x00DA [0x03] Work_Zone[1] = Work_Zone[0]
 35: 0x00DF [0x02] IF !(Work_Zone[1] <= 13*) GOTO 0x00EA
 36: 0x00E7 [0x05] ExtData[1]->WorkLocal[2] = 1
 37: 0x00EA [0x01] GOTO 0x0045
 38: 0x00ED [0x01] GOTO 0x0123
 39: 0x00F0 [0x02] IF !(Work_Zone[0] == 5*) GOTO 0x0123
 40: 0x00F8 [0x24] CREATE_DIALOG(message_id=14393*, default_option=1*, option_flags=0*)
    → "$3$3O$3^$3u$3b$3g [-$P10'$I%95\7)$2228813/""&]"
 41: 0x00FF [0x25] WAIT_DIALOG_SELECT()
 42: 0x0100 [0x02] IF !(Work_Zone[0] == 0*) GOTO 0x0112
 43: 0x0108 [0x03] Work_Zone[1] = 4*
 44: 0x010D [0x21] END_EVENT
 45: 0x010E [0x00] END_REQSTACK()

SUBROUTINE_0120:
 46: 0x0120 [0x01] GOTO 0x0123

SUBROUTINE_0123:
 47: 0x0123 [0x03] Work_Zone[1] = Work_Zone[0]
 48: 0x0128 [0x21] END_EVENT
 49: 0x0129 [0x00] END_REQSTACK()
```

#### Data or dead code:

```
# Dead code (unreachable instructions):
     0x010F [0x01] GOTO 0x0120
     0x011D [0x01] GOTO 0x0120
```
