# 17772555 - Mawlgofaur

## Common Data

| Field            | Value                     |
|------------------|---------------------------|
| Zone             | Ru'Lude Gardens (ID: 243) |
| Block Size       | 808 bytes                 |
| Total Events     | 35                        |
| References Count | 29                        |

## List of Events

| Event ID                   | Entrypoint   |   Size |   Instructions |
|----------------------------|--------------|--------|----------------|
| [65535](#event-65535)      | 0x0000       |      3 |              2 |
| [58](#event-58)            | 0x0003       |     22 |              4 |
| [65](#event-65)            | 0x0019       |     32 |              5 |
| [128](#event-128)          | 0x0039       |      1 |              1 |
| [60](#event-60)            | 0x003A       |      1 |              1 |
| [65535.1](#event-655351)   | 0x003B       |     86 |             14 |
| [65535.2](#event-655352)   | 0x0091       |     32 |             10 |
| [65535.3](#event-655353)   | 0x00B1       |     29 |              3 |
| [65535.4](#event-655354)   | 0x00CE       |     29 |              3 |
| [65535.5](#event-655355)   | 0x00EB       |     29 |              3 |
| [65535.6](#event-655356)   | 0x0108       |      9 |              3 |
| [65535.7](#event-655357)   | 0x0111       |      9 |              3 |
| [65535.8](#event-655358)   | 0x011A       |      1 |              1 |
| [65535.9](#event-655359)   | 0x011B       |     16 |              2 |
| [65535.10](#event-6553510) | 0x012B       |     16 |              2 |
| [65535.11](#event-6553511) | 0x013B       |     16 |              2 |
| [65535.12](#event-6553512) | 0x014B       |     16 |              2 |
| [65535.13](#event-6553513) | 0x015B       |     16 |              2 |
| [65535.14](#event-6553514) | 0x016B       |     16 |              2 |
| [65535.15](#event-6553515) | 0x017B       |      1 |              1 |
| [65535.16](#event-6553516) | 0x017C       |     18 |              4 |
| [65535.17](#event-6553517) | 0x018E       |     10 |              2 |
| [65535.18](#event-6553518) | 0x0198       |      9 |              3 |
| [65535.19](#event-6553519) | 0x01A1       |      9 |              3 |
| [65535.20](#event-6553520) | 0x01AA       |     10 |              2 |
| [65535.21](#event-6553521) | 0x01B4       |     10 |              2 |
| [10188](#event-10188)      | 0x01BE       |      1 |              1 |
| [10189](#event-10189)      | 0x01BF       |      1 |              1 |
| [10190](#event-10190)      | 0x01C0       |      1 |              1 |
| [10200](#event-10200)      | 0x01C1       |      1 |              1 |
| [10208](#event-10208)      | 0x01C2       |      1 |              1 |
| [65535.22](#event-6553522) | 0x01C3       |     45 |             11 |
| [10199](#event-10199)      | 0x01F0       |      1 |              1 |
| [65535.23](#event-6553523) | 0x01F1       |     15 |              5 |
| [65535.24](#event-6553524) | 0x0200       |     24 |              6 |

## DAT References (imed_data)

|   Index | Hex Value   |   Dec Value |
|---------|-------------|-------------|
|       0 | 0x0A01      |        2561 |
|       1 | 0x16030     |       90160 |
|       2 | 0xFFFFE706  |  4294960902 |
|       3 | 0x050B      |        1291 |
|       4 | 0x000D      |          13 |
|       5 | 0x08E1      |        2273 |
|       6 | 0x168D0     |       92368 |
|       7 | 0xFFFFE4AC  |  4294960300 |
|       8 | 0x008F      |         143 |
|       9 | 0x0000      |           0 |
|      10 | 0x03DA      |         986 |
|      11 | 0x156EE     |       87790 |
|      12 | 0xFFFFE0C0  |  4294959296 |
|      13 | 0x003C      |          60 |
|      14 | 0x0681      |        1665 |
|      15 | 0x16825     |       92197 |
|      16 | 0x0B55      |        2901 |
|      17 | 0x17043     |       94275 |
|      18 | 0xFFFFE4AB  |  4294960299 |
|      19 | 0x0619      |        1561 |
|      20 | 0x00E9      |         233 |
|      21 | 0x00EA      |         234 |
|      22 | 0x0001      |           1 |
|      23 | 0x0080      |         128 |
|      24 | 0x0050      |          80 |
|      25 | 0x15325     |       86821 |
|      26 | 0xFFFFEC77  |  4294962295 |
|      27 | 0x000B      |          11 |
|      28 | 0x169DB     |       92635 |

## Events

### Event 65535

#### Metadata

| Field        | Value   |
|--------------|---------|
| Entrypoint   | 0x0000  |
| Data Size    | 3 bytes |
| Instructions | 2       |

```
      00 01 02 03 04 05 06 07  08 09 0A 0B 0C 0D 0E 0F
      -- -- -- -- -- -- -- --  -- -- -- -- -- -- -- --
0000: 22 00 00                                          "..             
```

#### Opcodes

```
  0: 0x0000 [0x22] ENTITY_HIDE_FLAG(enabled=0x00)
  1: 0x0002 [0x00] END_REQSTACK()
```

### Event 58

#### Metadata

| Field        | Value    |
|--------------|----------|
| Entrypoint   | 0x0003   |
| Data Size    | 22 bytes |
| Instructions | 4        |

```
      00 01 02 03 04 05 06 07  08 09 0A 0B 0C 0D 0E 0F
      -- -- -- -- -- -- -- --  -- -- -- -- -- -- -- --
0000:          94 01 F8 FF FF  7F 92 01 F8 FF FF 7F 37     ............7
0010: 00 80 01 80 02 80 03 80  00                       .........       
```

#### Opcodes

```
  0: 0x0003 [0x94] EventEntity->Render.Flags3 ^= 0x01
  1: 0x0009 [0x92] EventEntity->Render.Flags3 ^= 0x01
  2: 0x000F [0x37] UPDATE_EVENT_POSITION_AND_DIR: x=2.561*, z=90.160*, y=-6.394*, direction=113.5°*
  3: 0x0018 [0x00] END_REQSTACK()
```

### Event 65

#### Metadata

| Field        | Value    |
|--------------|----------|
| Entrypoint   | 0x0019   |
| Data Size    | 32 bytes |
| Instructions | 5        |

```
      00 01 02 03 04 05 06 07  08 09 0A 0B 0C 0D 0E 0F
      -- -- -- -- -- -- -- --  -- -- -- -- -- -- -- --
0010:                             94 01 F8 FF FF 7F 92           .......
0020: 01 F8 FF FF 7F 37 00 80  01 80 02 80 03 80 79 00  .....7........y.
0030: F8 FF FF 7F 77 30 0F 01  00                       ....w0...       
```

#### Opcodes

```
  0: 0x0019 [0x94] EventEntity->Render.Flags3 ^= 0x01
  1: 0x001F [0x92] EventEntity->Render.Flags3 ^= 0x01
  2: 0x0025 [0x37] UPDATE_EVENT_POSITION_AND_DIR: x=2.561*, z=90.160*, y=-6.394*, direction=113.5°*
  3: 0x002E [0x79] EventEntity looks at Tenzen (ID: 17772663/0x010F3077) (Basic look)
  4: 0x0038 [0x00] END_REQSTACK()
```

### Event 128

#### Metadata

| Field        | Value   |
|--------------|---------|
| Entrypoint   | 0x0039  |
| Data Size    | 1 bytes |
| Instructions | 1       |

```
      00 01 02 03 04 05 06 07  08 09 0A 0B 0C 0D 0E 0F
      -- -- -- -- -- -- -- --  -- -- -- -- -- -- -- --
0030:                             00                             .      
```

#### Opcodes

```
  0: 0x0039 [0x00] END_REQSTACK()
```

### Event 60

#### Metadata

| Field        | Value   |
|--------------|---------|
| Entrypoint   | 0x003A  |
| Data Size    | 1 bytes |
| Instructions | 1       |

```
      00 01 02 03 04 05 06 07  08 09 0A 0B 0C 0D 0E 0F
      -- -- -- -- -- -- -- --  -- -- -- -- -- -- -- --
0030:                                00                           .     
```

#### Opcodes

```
  0: 0x003A [0x00] END_REQSTACK()
```

### Event 65535.1

#### Metadata

| Field        | Value    |
|--------------|----------|
| Entrypoint   | 0x003B   |
| Data Size    | 86 bytes |
| Instructions | 14       |

```
      00 01 02 03 04 05 06 07  08 09 0A 0B 0C 0D 0E 0F
      -- -- -- -- -- -- -- --  -- -- -- -- -- -- -- --
0030:                                   32 04 80 1F 00             2....
0040: 05 80 06 80 07 80 1F 01  45 08 80 F0 FF FF 7F F0  ........E.......
0050: FF FF 7F 63 6D 30 65 09  80 55 08 80 F0 FF FF 7F  ...cm0e..U......
0060: F0 FF FF 7F 63 6D 30 65  4A F0 FF FF 7F 0B 30 0F  ....cm0eJ.....0.
0070: 01 1F 00 0A 80 0B 80 0C  80 1F 01 6F 4A F0 FF FF  ...........oJ...
0080: 7F 0B 30 0F 01 1E F0 FF  FF 7F 6F 76 F8 FF FF 7F  ..0.......ov....
0090: 00                                                .               
```

#### Opcodes

```
  0: 0x003B [0x32] ExtData[1]->MainSpeed = 13* * 0.1
  1: 0x003E [0x1F] MOVE_ENTITY: EventEntity moves to X=2.273*, Z=92.368*, Y=-6.996*
  2: 0x0046 [0x1F] MOVE_ENTITY: Update entity position (mode=1)
  3: 0x0048 [0x45] LOAD_SCHEDULED_TASK: Load scheduler "cm0e" with entities [LocalPlayer, LocalPlayer], work=[143*, 0*]
  4: 0x0059 [0x55] WAIT_LOAD_SCHEDULER: Wait for scheduler "cm0e" with entities [LocalPlayer, LocalPlayer], work=143*
  5: 0x0068 [0x4A] LocalPlayer looks at Mawl'gofaur (ID: 17772555/0x010F300B)
  6: 0x0071 [0x1F] MOVE_ENTITY: EventEntity moves to X=0.986*, Z=87.790*, Y=-8.000*
  7: 0x0079 [0x1F] MOVE_ENTITY: Update entity position (mode=1)
  8: 0x007B [0x6F] WAIT_FRAME_DELAY: Yield until WaitTime reaches zero
  9: 0x007C [0x4A] LocalPlayer looks at Mawl'gofaur (ID: 17772555/0x010F300B)
 10: 0x0085 [0x1E] EventEntity looks at LocalPlayer and starts talking
 11: 0x008A [0x6F] WAIT_FRAME_DELAY: Yield until WaitTime reaches zero
 12: 0x008B [0x76] CHECK_ENTITY_RENDER_FLAGS: Wait until EventEntity Render.Flags0 and Render.Flags3 conditions are met
 13: 0x0090 [0x00] END_REQSTACK()
```

### Event 65535.2

#### Metadata

| Field        | Value    |
|--------------|----------|
| Entrypoint   | 0x0091   |
| Data Size    | 32 bytes |
| Instructions | 10       |

```
      00 01 02 03 04 05 06 07  08 09 0A 0B 0C 0D 0E 0F
      -- -- -- -- -- -- -- --  -- -- -- -- -- -- -- --
0090:    1C 0D 80 1F 00 0E 80  0F 80 07 80 1F 01 33 01   .............3.
00A0: 1F 00 10 80 11 80 12 80  1F 01 6F 33 00 39 13 80  ..........o3.9..
00B0: 00                                                .               
```

#### Opcodes

```
  0: 0x0091 [0x1C] WAIT(60* ticks)
  1: 0x0094 [0x1F] MOVE_ENTITY: EventEntity moves to X=1.665*, Z=92.197*, Y=-6.996*
  2: 0x009C [0x1F] MOVE_ENTITY: Update entity position (mode=1)
  3: 0x009E [0x33] EventEntity->Render.Flags0 |= 0x200000 // Bit 21 (flag=0x01)
  4: 0x00A0 [0x1F] MOVE_ENTITY: EventEntity moves to X=2.901*, Z=94.275*, Y=-6.997*
  5: 0x00A8 [0x1F] MOVE_ENTITY: Update entity position (mode=1)
  6: 0x00AA [0x6F] WAIT_FRAME_DELAY: Yield until WaitTime reaches zero
  7: 0x00AB [0x33] EventEntity->Render.Flags0 &= ~ 0x200000 // Bit 21 (flag=0x00)
  8: 0x00AD [0x39] SET_ENTITY_DIRECTION(direction=8.6°*)
  9: 0x00B0 [0x00] END_REQSTACK()
```

### Event 65535.3

#### Metadata

| Field        | Value    |
|--------------|----------|
| Entrypoint   | 0x00B1   |
| Data Size    | 29 bytes |
| Instructions | 3        |

```
      00 01 02 03 04 05 06 07  08 09 0A 0B 0C 0D 0E 0F
      -- -- -- -- -- -- -- --  -- -- -- -- -- -- -- --
00B0:    5B 14 80 F8 FF FF 7F  F8 FF FF 7F 74 6C 6B 30   [..........tlk0
00C0: 53 F8 FF FF 7F F8 FF FF  7F 74 6C 6B 30 00        S........tlk0.  
```

#### Opcodes

```
  0: 0x00B1 [0x5B] LOAD_EXT_SCHEDULER: Load scheduler "tlk0" with entities [EventEntity, EventEntity], work=233*
  1: 0x00C0 [0x53] WAIT_SCHEDULER_TASK: Wait for scheduler "tlk0" with entities [EventEntity, EventEntity]
  2: 0x00CD [0x00] END_REQSTACK()
```

### Event 65535.4

#### Metadata

| Field        | Value    |
|--------------|----------|
| Entrypoint   | 0x00CE   |
| Data Size    | 29 bytes |
| Instructions | 3        |

```
      00 01 02 03 04 05 06 07  08 09 0A 0B 0C 0D 0E 0F
      -- -- -- -- -- -- -- --  -- -- -- -- -- -- -- --
00C0:                                            5B 14                [.
00D0: 80 F8 FF FF 7F F8 FF FF  7F 70 61 73 30 53 F8 FF  .........pas0S..
00E0: FF 7F F8 FF FF 7F 70 61  73 30 00                 ......pas0.     
```

#### Opcodes

```
  0: 0x00CE [0x5B] LOAD_EXT_SCHEDULER: Load scheduler "pas0" with entities [EventEntity, EventEntity], work=233*
  1: 0x00DD [0x53] WAIT_SCHEDULER_TASK: Wait for scheduler "pas0" with entities [EventEntity, EventEntity]
  2: 0x00EA [0x00] END_REQSTACK()
```

### Event 65535.5

#### Metadata

| Field        | Value    |
|--------------|----------|
| Entrypoint   | 0x00EB   |
| Data Size    | 29 bytes |
| Instructions | 3        |

```
      00 01 02 03 04 05 06 07  08 09 0A 0B 0C 0D 0E 0F
      -- -- -- -- -- -- -- --  -- -- -- -- -- -- -- --
00E0:                                   5B 14 80 F8 FF             [....
00F0: FF 7F F8 FF FF 7F 74 6C  6B 30 53 F8 FF FF 7F F8  ......tlk0S.....
0100: FF FF 7F 74 6C 6B 30 00                           ...tlk0.        
```

#### Opcodes

```
  0: 0x00EB [0x5B] LOAD_EXT_SCHEDULER: Load scheduler "tlk0" with entities [EventEntity, EventEntity], work=233*
  1: 0x00FA [0x53] WAIT_SCHEDULER_TASK: Wait for scheduler "tlk0" with entities [EventEntity, EventEntity]
  2: 0x0107 [0x00] END_REQSTACK()
```

### Event 65535.6

#### Metadata

| Field        | Value   |
|--------------|---------|
| Entrypoint   | 0x0108  |
| Data Size    | 9 bytes |
| Instructions | 3       |

```
      00 01 02 03 04 05 06 07  08 09 0A 0B 0C 0D 0E 0F
      -- -- -- -- -- -- -- --  -- -- -- -- -- -- -- --
0100:                          5E 69 64 6C 30 1C 0D 80          ^idl0...
0110: 00                                                .               
```

#### Opcodes

```
  0: 0x0108 [0x5E] EventEntity goes idle (kills current action) (animation: "idl0")
  1: 0x010D [0x1C] WAIT(60* ticks)
  2: 0x0110 [0x00] END_REQSTACK()
```

### Event 65535.7

#### Metadata

| Field        | Value   |
|--------------|---------|
| Entrypoint   | 0x0111  |
| Data Size    | 9 bytes |
| Instructions | 3       |

```
      00 01 02 03 04 05 06 07  08 09 0A 0B 0C 0D 0E 0F
      -- -- -- -- -- -- -- --  -- -- -- -- -- -- -- --
0110:    5E 69 64 6C 30 1C 0D  80 00                     ^idl0....      
```

#### Opcodes

```
  0: 0x0111 [0x5E] EventEntity goes idle (kills current action) (animation: "idl0")
  1: 0x0116 [0x1C] WAIT(60* ticks)
  2: 0x0119 [0x00] END_REQSTACK()
```

### Event 65535.8

#### Metadata

| Field        | Value   |
|--------------|---------|
| Entrypoint   | 0x011A  |
| Data Size    | 1 bytes |
| Instructions | 1       |

```
      00 01 02 03 04 05 06 07  08 09 0A 0B 0C 0D 0E 0F
      -- -- -- -- -- -- -- --  -- -- -- -- -- -- -- --
0110:                                00                           .     
```

#### Opcodes

```
  0: 0x011A [0x00] END_REQSTACK()
```

### Event 65535.9

#### Metadata

| Field        | Value    |
|--------------|----------|
| Entrypoint   | 0x011B   |
| Data Size    | 16 bytes |
| Instructions | 2        |

```
      00 01 02 03 04 05 06 07  08 09 0A 0B 0C 0D 0E 0F
      -- -- -- -- -- -- -- --  -- -- -- -- -- -- -- --
0110:                                   5B 15 80 F8 FF             [....
0120: FF 7F F8 FF FF 7F 72 69  67 30 00                 ......rig0.     
```

#### Opcodes

```
  0: 0x011B [0x5B] LOAD_EXT_SCHEDULER: Load scheduler "rig0" with entities [EventEntity, EventEntity], work=234*
  1: 0x012A [0x00] END_REQSTACK()
```

### Event 65535.10

#### Metadata

| Field        | Value    |
|--------------|----------|
| Entrypoint   | 0x012B   |
| Data Size    | 16 bytes |
| Instructions | 2        |

```
      00 01 02 03 04 05 06 07  08 09 0A 0B 0C 0D 0E 0F
      -- -- -- -- -- -- -- --  -- -- -- -- -- -- -- --
0120:                                   5B 15 80 F8 FF             [....
0130: FF 7F F8 FF FF 7F 72 69  67 31 00                 ......rig1.     
```

#### Opcodes

```
  0: 0x012B [0x5B] LOAD_EXT_SCHEDULER: Load scheduler "rig1" with entities [EventEntity, EventEntity], work=234*
  1: 0x013A [0x00] END_REQSTACK()
```

### Event 65535.11

#### Metadata

| Field        | Value    |
|--------------|----------|
| Entrypoint   | 0x013B   |
| Data Size    | 16 bytes |
| Instructions | 2        |

```
      00 01 02 03 04 05 06 07  08 09 0A 0B 0C 0D 0E 0F
      -- -- -- -- -- -- -- --  -- -- -- -- -- -- -- --
0130:                                   5B 15 80 F8 FF             [....
0140: FF 7F F8 FF FF 7F 6C 65  66 30 00                 ......lef0.     
```

#### Opcodes

```
  0: 0x013B [0x5B] LOAD_EXT_SCHEDULER: Load scheduler "lef0" with entities [EventEntity, EventEntity], work=234*
  1: 0x014A [0x00] END_REQSTACK()
```

### Event 65535.12

#### Metadata

| Field        | Value    |
|--------------|----------|
| Entrypoint   | 0x014B   |
| Data Size    | 16 bytes |
| Instructions | 2        |

```
      00 01 02 03 04 05 06 07  08 09 0A 0B 0C 0D 0E 0F
      -- -- -- -- -- -- -- --  -- -- -- -- -- -- -- --
0140:                                   5B 15 80 F8 FF             [....
0150: FF 7F F8 FF FF 7F 6C 65  66 31 00                 ......lef1.     
```

#### Opcodes

```
  0: 0x014B [0x5B] LOAD_EXT_SCHEDULER: Load scheduler "lef1" with entities [EventEntity, EventEntity], work=234*
  1: 0x015A [0x00] END_REQSTACK()
```

### Event 65535.13

#### Metadata

| Field        | Value    |
|--------------|----------|
| Entrypoint   | 0x015B   |
| Data Size    | 16 bytes |
| Instructions | 2        |

```
      00 01 02 03 04 05 06 07  08 09 0A 0B 0C 0D 0E 0F
      -- -- -- -- -- -- -- --  -- -- -- -- -- -- -- --
0150:                                   5B 15 80 F8 FF             [....
0160: FF 7F F8 FF FF 7F 64 77  6E 30 00                 ......dwn0.     
```

#### Opcodes

```
  0: 0x015B [0x5B] LOAD_EXT_SCHEDULER: Load scheduler "dwn0" with entities [EventEntity, EventEntity], work=234*
  1: 0x016A [0x00] END_REQSTACK()
```

### Event 65535.14

#### Metadata

| Field        | Value    |
|--------------|----------|
| Entrypoint   | 0x016B   |
| Data Size    | 16 bytes |
| Instructions | 2        |

```
      00 01 02 03 04 05 06 07  08 09 0A 0B 0C 0D 0E 0F
      -- -- -- -- -- -- -- --  -- -- -- -- -- -- -- --
0160:                                   5B 15 80 F8 FF             [....
0170: FF 7F F8 FF FF 7F 64 77  6E 31 00                 ......dwn1.     
```

#### Opcodes

```
  0: 0x016B [0x5B] LOAD_EXT_SCHEDULER: Load scheduler "dwn1" with entities [EventEntity, EventEntity], work=234*
  1: 0x017A [0x00] END_REQSTACK()
```

### Event 65535.15

#### Metadata

| Field        | Value   |
|--------------|---------|
| Entrypoint   | 0x017B  |
| Data Size    | 1 bytes |
| Instructions | 1       |

```
      00 01 02 03 04 05 06 07  08 09 0A 0B 0C 0D 0E 0F
      -- -- -- -- -- -- -- --  -- -- -- -- -- -- -- --
0170:                                   00                         .    
```

#### Opcodes

```
  0: 0x017B [0x00] END_REQSTACK()
```

### Event 65535.16

#### Metadata

| Field        | Value    |
|--------------|----------|
| Entrypoint   | 0x017C   |
| Data Size    | 18 bytes |
| Instructions | 4        |

```
      00 01 02 03 04 05 06 07  08 09 0A 0B 0C 0D 0E 0F
      -- -- -- -- -- -- -- --  -- -- -- -- -- -- -- --
0170:                                      22 00 2F 00              "./.
0180: F8 FF FF 7F 6C F8 FF FF  7F 09 80 16 80 00        ....l.........  
```

#### Opcodes

```
  0: 0x017C [0x22] ENTITY_HIDE_FLAG(enabled=0x00)
  1: 0x017E [0x2F] EventEntity->Render.Flags0 &= ~0x80000 // Bit 19
  2: 0x0184 [0x6C] FADE_ENTITY_COLOR(entity_id=EventEntity, end_alpha=0*, fade_time=1*)
  3: 0x018D [0x00] END_REQSTACK()
```

### Event 65535.17

#### Metadata

| Field        | Value    |
|--------------|----------|
| Entrypoint   | 0x018E   |
| Data Size    | 10 bytes |
| Instructions | 2        |

```
      00 01 02 03 04 05 06 07  08 09 0A 0B 0C 0D 0E 0F
      -- -- -- -- -- -- -- --  -- -- -- -- -- -- -- --
0180:                                            6C F8                l.
0190: FF FF 7F 17 80 16 80 00                           ........        
```

#### Opcodes

```
  0: 0x018E [0x6C] FADE_ENTITY_COLOR(entity_id=EventEntity, end_alpha=128*, fade_time=1*)
  1: 0x0197 [0x00] END_REQSTACK()
```

### Event 65535.18

#### Metadata

| Field        | Value   |
|--------------|---------|
| Entrypoint   | 0x0198  |
| Data Size    | 9 bytes |
| Instructions | 3       |

```
      00 01 02 03 04 05 06 07  08 09 0A 0B 0C 0D 0E 0F
      -- -- -- -- -- -- -- --  -- -- -- -- -- -- -- --
0190:                          22 00 2F 00 F8 FF FF 7F          "./.....
01A0: 00                                                .               
```

#### Opcodes

```
  0: 0x0198 [0x22] ENTITY_HIDE_FLAG(enabled=0x00)
  1: 0x019A [0x2F] EventEntity->Render.Flags0 &= ~0x80000 // Bit 19
  2: 0x01A0 [0x00] END_REQSTACK()
```

### Event 65535.19

#### Metadata

| Field        | Value   |
|--------------|---------|
| Entrypoint   | 0x01A1  |
| Data Size    | 9 bytes |
| Instructions | 3       |

```
      00 01 02 03 04 05 06 07  08 09 0A 0B 0C 0D 0E 0F
      -- -- -- -- -- -- -- --  -- -- -- -- -- -- -- --
01A0:    22 01 2F 01 F8 FF FF  7F 00                     "./......      
```

#### Opcodes

```
  0: 0x01A1 [0x22] ENTITY_HIDE_FLAG(enabled=0x01)
  1: 0x01A3 [0x2F] EventEntity->Render.Flags0 |= 0x80000 // Bit 19
  2: 0x01A9 [0x00] END_REQSTACK()
```

### Event 65535.20

#### Metadata

| Field        | Value    |
|--------------|----------|
| Entrypoint   | 0x01AA   |
| Data Size    | 10 bytes |
| Instructions | 2        |

```
      00 01 02 03 04 05 06 07  08 09 0A 0B 0C 0D 0E 0F
      -- -- -- -- -- -- -- --  -- -- -- -- -- -- -- --
01A0:                                6C F8 FF FF 7F 09            l.....
01B0: 80 16 80 00                                       ....            
```

#### Opcodes

```
  0: 0x01AA [0x6C] FADE_ENTITY_COLOR(entity_id=EventEntity, end_alpha=0*, fade_time=1*)
  1: 0x01B3 [0x00] END_REQSTACK()
```

### Event 65535.21

#### Metadata

| Field        | Value    |
|--------------|----------|
| Entrypoint   | 0x01B4   |
| Data Size    | 10 bytes |
| Instructions | 2        |

```
      00 01 02 03 04 05 06 07  08 09 0A 0B 0C 0D 0E 0F
      -- -- -- -- -- -- -- --  -- -- -- -- -- -- -- --
01B0:             6C F8 FF FF  7F 17 80 16 80 00            l.........  
```

#### Opcodes

```
  0: 0x01B4 [0x6C] FADE_ENTITY_COLOR(entity_id=EventEntity, end_alpha=128*, fade_time=1*)
  1: 0x01BD [0x00] END_REQSTACK()
```

### Event 10188

#### Metadata

| Field        | Value   |
|--------------|---------|
| Entrypoint   | 0x01BE  |
| Data Size    | 1 bytes |
| Instructions | 1       |

```
      00 01 02 03 04 05 06 07  08 09 0A 0B 0C 0D 0E 0F
      -- -- -- -- -- -- -- --  -- -- -- -- -- -- -- --
01B0:                                            00                   . 
```

#### Opcodes

```
  0: 0x01BE [0x00] END_REQSTACK()
```

### Event 10189

#### Metadata

| Field        | Value   |
|--------------|---------|
| Entrypoint   | 0x01BF  |
| Data Size    | 1 bytes |
| Instructions | 1       |

```
      00 01 02 03 04 05 06 07  08 09 0A 0B 0C 0D 0E 0F
      -- -- -- -- -- -- -- --  -- -- -- -- -- -- -- --
01B0:                                               00                 .
```

#### Opcodes

```
  0: 0x01BF [0x00] END_REQSTACK()
```

### Event 10190

#### Metadata

| Field        | Value   |
|--------------|---------|
| Entrypoint   | 0x01C0  |
| Data Size    | 1 bytes |
| Instructions | 1       |

```
      00 01 02 03 04 05 06 07  08 09 0A 0B 0C 0D 0E 0F
      -- -- -- -- -- -- -- --  -- -- -- -- -- -- -- --
01C0: 00                                                .               
```

#### Opcodes

```
  0: 0x01C0 [0x00] END_REQSTACK()
```

### Event 10200

#### Metadata

| Field        | Value   |
|--------------|---------|
| Entrypoint   | 0x01C1  |
| Data Size    | 1 bytes |
| Instructions | 1       |

```
      00 01 02 03 04 05 06 07  08 09 0A 0B 0C 0D 0E 0F
      -- -- -- -- -- -- -- --  -- -- -- -- -- -- -- --
01C0:    00                                              .              
```

#### Opcodes

```
  0: 0x01C1 [0x00] END_REQSTACK()
```

### Event 10208

#### Metadata

| Field        | Value   |
|--------------|---------|
| Entrypoint   | 0x01C2  |
| Data Size    | 1 bytes |
| Instructions | 1       |

```
      00 01 02 03 04 05 06 07  08 09 0A 0B 0C 0D 0E 0F
      -- -- -- -- -- -- -- --  -- -- -- -- -- -- -- --
01C0:       00                                            .             
```

#### Opcodes

```
  0: 0x01C2 [0x00] END_REQSTACK()
```

### Event 65535.22

#### Metadata

| Field        | Value    |
|--------------|----------|
| Entrypoint   | 0x01C3   |
| Data Size    | 45 bytes |
| Instructions | 11       |

```
      00 01 02 03 04 05 06 07  08 09 0A 0B 0C 0D 0E 0F
      -- -- -- -- -- -- -- --  -- -- -- -- -- -- -- --
01C0:          32 04 80 1F 00  05 80 06 80 07 80 1F 01     2............
01D0: 1F 00 0A 80 0B 80 0C 80  1F 01 6F 1E F0 FF FF 7F  ..........o.....
01E0: 4A F0 FF FF 7F 0B 30 0F  01 6F 76 F8 FF FF 7F 00  J.....0..ov.....
```

#### Opcodes

```
  0: 0x01C3 [0x32] ExtData[1]->MainSpeed = 13* * 0.1
  1: 0x01C6 [0x1F] MOVE_ENTITY: EventEntity moves to X=2.273*, Z=92.368*, Y=-6.996*
  2: 0x01CE [0x1F] MOVE_ENTITY: Update entity position (mode=1)
  3: 0x01D0 [0x1F] MOVE_ENTITY: EventEntity moves to X=0.986*, Z=87.790*, Y=-8.000*
  4: 0x01D8 [0x1F] MOVE_ENTITY: Update entity position (mode=1)
  5: 0x01DA [0x6F] WAIT_FRAME_DELAY: Yield until WaitTime reaches zero
  6: 0x01DB [0x1E] EventEntity looks at LocalPlayer and starts talking
  7: 0x01E0 [0x4A] LocalPlayer looks at Mawl'gofaur (ID: 17772555/0x010F300B)
  8: 0x01E9 [0x6F] WAIT_FRAME_DELAY: Yield until WaitTime reaches zero
  9: 0x01EA [0x76] CHECK_ENTITY_RENDER_FLAGS: Wait until EventEntity Render.Flags0 and Render.Flags3 conditions are met
 10: 0x01EF [0x00] END_REQSTACK()
```

### Event 10199

#### Metadata

| Field        | Value   |
|--------------|---------|
| Entrypoint   | 0x01F0  |
| Data Size    | 1 bytes |
| Instructions | 1       |

```
      00 01 02 03 04 05 06 07  08 09 0A 0B 0C 0D 0E 0F
      -- -- -- -- -- -- -- --  -- -- -- -- -- -- -- --
01F0: 00                                                .               
```

#### Opcodes

```
  0: 0x01F0 [0x00] END_REQSTACK()
```

### Event 65535.23

#### Metadata

| Field        | Value    |
|--------------|----------|
| Entrypoint   | 0x01F1   |
| Data Size    | 15 bytes |
| Instructions | 5        |

```
      00 01 02 03 04 05 06 07  08 09 0A 0B 0C 0D 0E 0F
      -- -- -- -- -- -- -- --  -- -- -- -- -- -- -- --
01F0:    32 04 80 1F 00 18 80  19 80 1A 80 1F 01 6F 00   2............o.
```

#### Opcodes

```
  0: 0x01F1 [0x32] ExtData[1]->MainSpeed = 13* * 0.1
  1: 0x01F4 [0x1F] MOVE_ENTITY: EventEntity moves to X=0.080*, Z=86.821*, Y=-5.001*
  2: 0x01FC [0x1F] MOVE_ENTITY: Update entity position (mode=1)
  3: 0x01FE [0x6F] WAIT_FRAME_DELAY: Yield until WaitTime reaches zero
  4: 0x01FF [0x00] END_REQSTACK()
```

### Event 65535.24

#### Metadata

| Field        | Value    |
|--------------|----------|
| Entrypoint   | 0x0200   |
| Data Size    | 24 bytes |
| Instructions | 6        |

```
      00 01 02 03 04 05 06 07  08 09 0A 0B 0C 0D 0E 0F
      -- -- -- -- -- -- -- --  -- -- -- -- -- -- -- --
0200: 32 04 80 1F 00 1B 80 1C  80 07 80 1F 01 1E F0 FF  2...............
0210: FF 7F 7B F8 FF FF 7F 00                           ..{.....        
```

#### Opcodes

```
  0: 0x0200 [0x32] ExtData[1]->MainSpeed = 13* * 0.1
  1: 0x0203 [0x1F] MOVE_ENTITY: EventEntity moves to X=0.011*, Z=92.635*, Y=-6.996*
  2: 0x020B [0x1F] MOVE_ENTITY: Update entity position (mode=1)
  3: 0x020D [0x1E] EventEntity looks at LocalPlayer and starts talking
  4: 0x0212 [0x7B] EventEntity stops talking
  5: 0x0217 [0x00] END_REQSTACK()
```
