# 17772593 - Maat

## Common Data

| Field            | Value                     |
|------------------|---------------------------|
| Zone             | Ru'Lude Gardens (ID: 243) |
| Block Size       | 5012 bytes                |
| Total Events     | 65                        |
| References Count | 161                       |

## List of Events

| Event ID                   | Entrypoint   |   Size |   Instructions |
|----------------------------|--------------|--------|----------------|
| [65535](#event-65535)      | 0x0000       |      1 |              1 |
| [117](#event-117)          | 0x0001       |      1 |              1 |
| [79](#event-79)            | 0x0002       |      1 |              1 |
| [80](#event-80)            | 0x0003       |     35 |             10 |
| [81](#event-81)            | 0x0026       |      1 |              1 |
| [82](#event-82)            | 0x0027       |      1 |              1 |
| [83](#event-83)            | 0x0028       |     16 |              5 |
| [84](#event-84)            | 0x0038       |      1 |              1 |
| [85](#event-85)            | 0x0039       |      1 |              1 |
| [86](#event-86)            | 0x003A       |     31 |              8 |
| [87](#event-87)            | 0x0059       |      1 |              1 |
| [88](#event-88)            | 0x005A       |      1 |              1 |
| [89](#event-89)            | 0x005B       |     11 |              2 |
| [90](#event-90)            | 0x0066       |      1 |              1 |
| [92](#event-92)            | 0x0067       |    500 |             77 |
| [91](#event-91)            | 0x025B       |     23 |              6 |
| [64](#event-64)            | 0x0272       |    450 |             78 |
| [62](#event-62)            | 0x0434       |     19 |              6 |
| [63](#event-63)            | 0x0447       |     23 |              8 |
| [93](#event-93)            | 0x045E       |    993 |            146 |
| [78](#event-78)            | 0x083F       |     39 |             10 |
| [94](#event-94)            | 0x0866       |     18 |              6 |
| [74](#event-74)            | 0x0878       |   1706 |            242 |
| [10045](#event-10045)      | 0x0F22       |      1 |              1 |
| [10136](#event-10136)      | 0x0F23       |      1 |              1 |
| [10137](#event-10137)      | 0x0F24       |      1 |              1 |
| [10161](#event-10161)      | 0x0F25       |      1 |              1 |
| [10163](#event-10163)      | 0x0F26       |      1 |              1 |
| [10164](#event-10164)      | 0x0F27       |      1 |              1 |
| [10165](#event-10165)      | 0x0F28       |      1 |              1 |
| [10166](#event-10166)      | 0x0F29       |      1 |              1 |
| [10167](#event-10167)      | 0x0F2A       |      1 |              1 |
| [10168](#event-10168)      | 0x0F2B       |      1 |              1 |
| [65535.1](#event-655351)   | 0x0F2C       |      1 |              1 |
| [65535.2](#event-655352)   | 0x0F2D       |      1 |              1 |
| [65535.3](#event-655353)   | 0x0F2E       |      1 |              1 |
| [65535.4](#event-655354)   | 0x0F2F       |      1 |              1 |
| [65535.5](#event-655355)   | 0x0F30       |      1 |              1 |
| [65535.6](#event-655356)   | 0x0F31       |      1 |              1 |
| [10169](#event-10169)      | 0x0F32       |      1 |              1 |
| [10170](#event-10170)      | 0x0F33       |      1 |              1 |
| [10171](#event-10171)      | 0x0F34       |      1 |              1 |
| [10172](#event-10172)      | 0x0F35       |      1 |              1 |
| [10173](#event-10173)      | 0x0F36       |      1 |              1 |
| [10174](#event-10174)      | 0x0F37       |      1 |              1 |
| [10191](#event-10191)      | 0x0F38       |      1 |              1 |
| [10192](#event-10192)      | 0x0F39       |      1 |              1 |
| [10193](#event-10193)      | 0x0F3A       |     10 |              6 |
| [10196](#event-10196)      | 0x0F44       |      1 |              1 |
| [10198](#event-10198)      | 0x0F45       |      1 |              1 |
| [10242](#event-10242)      | 0x0F46       |     27 |              7 |
| [10241](#event-10241)      | 0x0F61       |      1 |              1 |
| [65535.7](#event-655357)   | 0x0F62       |     10 |              2 |
| [65535.8](#event-655358)   | 0x0F6C       |     12 |              3 |
| [65535.9](#event-655359)   | 0x0F78       |     10 |              2 |
| [65535.10](#event-6553510) | 0x0F82       |     14 |              4 |
| [65535.11](#event-6553511) | 0x0F90       |     16 |              2 |
| [65535.12](#event-6553512) | 0x0FA0       |     14 |              2 |
| [65535.13](#event-6553513) | 0x0FAE       |     16 |              2 |
| [65535.14](#event-6553514) | 0x0FBE       |     14 |              2 |
| [65535.15](#event-6553515) | 0x0FCC       |     16 |              2 |
| [65535.16](#event-6553516) | 0x0FDC       |     14 |              2 |
| [10295](#event-10295)      | 0x0FEA       |      1 |              1 |
| [10297](#event-10297)      | 0x0FEB       |      1 |              1 |
| [65535.17](#event-6553517) | 0x0FEC       |     15 |              5 |

## DAT References (imed_data)

|   Index | Hex Value   |   Dec Value |
|---------|-------------|-------------|
|       0 | 0x289C      |       10396 |
|       1 | 0x0440      |        1088 |
|       2 | 0x0441      |        1089 |
|       3 | 0x0442      |        1090 |
|       4 | 0x289A      |       10394 |
|       5 | 0x28A8      |       10408 |
|       6 | 0x0150      |         336 |
|       7 | 0x0151      |         337 |
|       8 | 0x0152      |         338 |
|       9 | 0x28B2      |       10418 |
|      10 | 0x00C8      |         200 |
|      11 | 0x0000      |           0 |
|      12 | 0x0003      |           3 |
|      13 | 0x0001      |           1 |
|      14 | 0x0035      |          53 |
|      15 | 0x28E1      |       10465 |
|      16 | 0x28E2      |       10466 |
|      17 | 0x28E3      |       10467 |
|      18 | 0x28E4      |       10468 |
|      19 | 0x28E5      |       10469 |
|      20 | 0x003C      |          60 |
|      21 | 0x28E6      |       10470 |
|      22 | 0x28E7      |       10471 |
|      23 | 0x28E8      |       10472 |
|      24 | 0x28E9      |       10473 |
|      25 | 0x28EA      |       10474 |
|      26 | 0x28EB      |       10475 |
|      27 | 0x28EC      |       10476 |
|      28 | 0x0078      |         120 |
|      29 | 0x28ED      |       10477 |
|      30 | 0x28EE      |       10478 |
|      31 | 0x28EF      |       10479 |
|      32 | 0x28F0      |       10480 |
|      33 | 0x000F      |          15 |
|      34 | 0x28F1      |       10481 |
|      35 | 0x28F2      |       10482 |
|      36 | 0x28F3      |       10483 |
|      37 | 0x28F4      |       10484 |
|      38 | 0x28F5      |       10485 |
|      39 | 0x000C      |          12 |
|      40 | 0x000D      |          13 |
|      41 | 0x000E      |          14 |
|      42 | 0x28F6      |       10486 |
|      43 | 0x007A      |         122 |
|      44 | 0x0096      |         150 |
|      45 | 0x006E      |         110 |
|      46 | 0x28F7      |       10487 |
|      47 | 0x28F9      |       10489 |
|      48 | 0x28FA      |       10490 |
|      49 | 0x28FB      |       10491 |
|      50 | 0x28FC      |       10492 |
|      51 | 0x012C      |         300 |
|      52 | 0x28FD      |       10493 |
|      53 | 0x28FE      |       10494 |
|      54 | 0x009F      |         159 |
|      55 | 0x28FF      |       10495 |
|      56 | 0x2900      |       10496 |
|      57 | 0x2901      |       10497 |
|      58 | 0x2902      |       10498 |
|      59 | 0x2903      |       10499 |
|      60 | 0x005A      |          90 |
|      61 | 0x2904      |       10500 |
|      62 | 0x2905      |       10501 |
|      63 | 0x0014      |          20 |
|      64 | 0x2906      |       10502 |
|      65 | 0x2907      |       10503 |
|      66 | 0x2908      |       10504 |
|      67 | 0x2909      |       10505 |
|      68 | 0x290A      |       10506 |
|      69 | 0x290B      |       10507 |
|      70 | 0x290C      |       10508 |
|      71 | 0x290D      |       10509 |
|      72 | 0x290E      |       10510 |
|      73 | 0x290F      |       10511 |
|      74 | 0x2910      |       10512 |
|      75 | 0x2911      |       10513 |
|      76 | 0x2912      |       10514 |
|      77 | 0x2913      |       10515 |
|      78 | 0x00F0      |         240 |
|      79 | 0x2914      |       10516 |
|      80 | 0x2915      |       10517 |
|      81 | 0x2916      |       10518 |
|      82 | 0x2917      |       10519 |
|      83 | 0x2918      |       10520 |
|      84 | 0x00C9      |         201 |
|      85 | 0x0075      |         117 |
|      86 | 0x291A      |       10522 |
|      87 | 0x291B      |       10523 |
|      88 | 0x291C      |       10524 |
|      89 | 0x291D      |       10525 |
|      90 | 0x291E      |       10526 |
|      91 | 0x0004      |           4 |
|      92 | 0x0005      |           5 |
|      93 | 0x0006      |           6 |
|      94 | 0x0008      |           8 |
|      95 | 0x0053      |          83 |
|      96 | 0x2B1A      |       11034 |
|      97 | 0x2B1B      |       11035 |
|      98 | 0x2B1C      |       11036 |
|      99 | 0x0839      |        2105 |
|     100 | 0x2B1D      |       11037 |
|     101 | 0x000A      |          10 |
|     102 | 0x2B1E      |       11038 |
|     103 | 0x2B1F      |       11039 |
|     104 | 0x2B20      |       11040 |
|     105 | 0x4420      |       17440 |
|     106 | 0x40AB      |       16555 |
|     107 | 0x2B21      |       11041 |
|     108 | 0x2B22      |       11042 |
|     109 | 0x2B23      |       11043 |
|     110 | 0x0007      |           7 |
|     111 | 0x2B24      |       11044 |
|     112 | 0x2B25      |       11045 |
|     113 | 0x2B26      |       11046 |
|     114 | 0x006C      |         108 |
|     115 | 0x00B4      |         180 |
|     116 | 0x007F      |         127 |
|     117 | 0x2B27      |       11047 |
|     118 | 0x001E      |          30 |
|     119 | 0x2B28      |       11048 |
|     120 | 0x2B29      |       11049 |
|     121 | 0x2B2A      |       11050 |
|     122 | 0x2B2B      |       11051 |
|     123 | 0x2B2C      |       11052 |
|     124 | 0x2B2D      |       11053 |
|     125 | 0x2B2E      |       11054 |
|     126 | 0x0592      |        1426 |
|     127 | 0x0002      |           2 |
|     128 | 0x0593      |        1427 |
|     129 | 0x0594      |        1428 |
|     130 | 0x0595      |        1429 |
|     131 | 0x0596      |        1430 |
|     132 | 0x0597      |        1431 |
|     133 | 0x0598      |        1432 |
|     134 | 0x0599      |        1433 |
|     135 | 0x0009      |           9 |
|     136 | 0x059A      |        1434 |
|     137 | 0x059B      |        1435 |
|     138 | 0x000B      |          11 |
|     139 | 0x059C      |        1436 |
|     140 | 0x059D      |        1437 |
|     141 | 0x059E      |        1438 |
|     142 | 0x059F      |        1439 |
|     143 | 0x05A0      |        1440 |
|     144 | 0x30CA      |       12490 |
|     145 | 0x30D4      |       12500 |
|     146 | 0x3C4A      |       15434 |
|     147 | 0x2925      |       10533 |
|     148 | 0x1CCE2     |      117986 |
|     149 | 0x0C1D      |        3101 |
|     150 | 0x083A      |        2106 |
|     151 | 0x1EEC      |        7916 |
|     152 | 0x1AC81     |      109697 |
|     153 | 0x0B5C      |        2908 |
|     154 | 0xFFFFFCC8  |  4294966472 |
|     155 | 0x1A0D      |        6669 |
|     156 | 0x1C8D0     |      116944 |
|     157 | 0x0028      |          40 |
|     158 | 0x0803      |        2051 |
|     159 | 0x1CA1F     |      117279 |
|     160 | 0x003E      |          62 |

## String References

- **10394**: $0, $1, and $2. Well, get to it!
- **10396**: Well, did you find them? Here's what I need:
- **10408**: Many caverns to the north house fiends that can see the unseen. Visit them and bring me three samples of frigicite.
- **10418**: 6, $6, and $6. Bring those three items here to me.
- **10485**: Challenge Maat? [You bet!/I'm not ready to hit the mat.]
- **10489**: Hey, that $1 you've got there is a piece of junk. You'll need a new one if you want to fight me.
- **10490**: Let's see... How about we duel it out [ /at Horlais Peak/at Balga's Dais/at Balga's Dais/at Horlais Peak/in the Waughroon Shrine/in the Waughroon Shrine/at the Qu'Bia Arena/at the Qu'Bia Arena/in the Waughroon Shrine/at the Qu'Bia Arena/at Horlais Peak/in the Chamber of Oracles/in the Chamber of Oracles/in the Chamber of Oracles/at Balga's Dais]? You know what to do with the $1 when you get there, right?
- **10491**: Now if you show me that $1, I'll even teleport you to the battlefield. Boy, are we going to have some fun!
- **12490**: I can offer no advice but this, young one. Ready yourself in body and mind, and prepare for the fight of your life.
- **12500**: Anyhow, if you're feelin' the butterflies before the battle o' your life, <Player>, why don't you pay ol' Degenhard a visit?

## Events

### Event 65535

#### Metadata

| Field        | Value   |
|--------------|---------|
| Entrypoint   | 0x0000  |
| Data Size    | 1 bytes |
| Instructions | 1       |

```
      00 01 02 03 04 05 06 07  08 09 0A 0B 0C 0D 0E 0F
      -- -- -- -- -- -- -- --  -- -- -- -- -- -- -- --
0000: 00                                                .               
```

#### Opcodes

```
  0: 0x0000 [0x00] END_REQSTACK()
```

### Event 117

#### Metadata

| Field        | Value   |
|--------------|---------|
| Entrypoint   | 0x0001  |
| Data Size    | 1 bytes |
| Instructions | 1       |

```
      00 01 02 03 04 05 06 07  08 09 0A 0B 0C 0D 0E 0F
      -- -- -- -- -- -- -- --  -- -- -- -- -- -- -- --
0000:    00                                              .              
```

#### Opcodes

```
  0: 0x0001 [0x00] END_REQSTACK()
```

### Event 79

#### Metadata

| Field        | Value   |
|--------------|---------|
| Entrypoint   | 0x0002  |
| Data Size    | 1 bytes |
| Instructions | 1       |

```
      00 01 02 03 04 05 06 07  08 09 0A 0B 0C 0D 0E 0F
      -- -- -- -- -- -- -- --  -- -- -- -- -- -- -- --
0000:       00                                            .             
```

#### Opcodes

```
  0: 0x0002 [0x00] END_REQSTACK()
```

### Event 80

#### Metadata

| Field        | Value    |
|--------------|----------|
| Entrypoint   | 0x0003   |
| Data Size    | 35 bytes |
| Instructions | 10       |

```
      00 01 02 03 04 05 06 07  08 09 0A 0B 0C 0D 0E 0F
      -- -- -- -- -- -- -- --  -- -- -- -- -- -- -- --
0000:          79 00 F8 FF FF  7F F0 FF FF 7F 1D 00 80     y............
0010: 23 03 02 10 01 80 03 03  10 02 80 03 04 10 03 80  #...............
0020: 1D 04 80 23 21 00                                 ...#!.          
```

#### Opcodes

```
  0: 0x0003 [0x79] EventEntity looks at LocalPlayer (Basic look)
  1: 0x000D [0x1D] PRINT_EVENT_MESSAGE(message_id=10396*)
    → "Well, did you find them? Here's what I need:"
  2: 0x0010 [0x23] WAIT_FOR_DIALOG_INTERACTION
  3: 0x0011 [0x03] Work_Zone[2] = 1088*
  4: 0x0016 [0x03] Work_Zone[3] = 1089*
  5: 0x001B [0x03] Work_Zone[4] = 1090*
  6: 0x0020 [0x1D] PRINT_EVENT_MESSAGE(message_id=10394*)
    → "$0, $1, and $2. Well, get to it!"
  7: 0x0023 [0x23] WAIT_FOR_DIALOG_INTERACTION
  8: 0x0024 [0x21] END_EVENT
  9: 0x0025 [0x00] END_REQSTACK()
```

### Event 81

#### Metadata

| Field        | Value   |
|--------------|---------|
| Entrypoint   | 0x0026  |
| Data Size    | 1 bytes |
| Instructions | 1       |

```
      00 01 02 03 04 05 06 07  08 09 0A 0B 0C 0D 0E 0F
      -- -- -- -- -- -- -- --  -- -- -- -- -- -- -- --
0020:                   00                                    .         
```

#### Opcodes

```
  0: 0x0026 [0x00] END_REQSTACK()
```

### Event 82

#### Metadata

| Field        | Value   |
|--------------|---------|
| Entrypoint   | 0x0027  |
| Data Size    | 1 bytes |
| Instructions | 1       |

```
      00 01 02 03 04 05 06 07  08 09 0A 0B 0C 0D 0E 0F
      -- -- -- -- -- -- -- --  -- -- -- -- -- -- -- --
0020:                      00                                  .        
```

#### Opcodes

```
  0: 0x0027 [0x00] END_REQSTACK()
```

### Event 83

#### Metadata

| Field        | Value    |
|--------------|----------|
| Entrypoint   | 0x0028   |
| Data Size    | 16 bytes |
| Instructions | 5        |

```
      00 01 02 03 04 05 06 07  08 09 0A 0B 0C 0D 0E 0F
      -- -- -- -- -- -- -- --  -- -- -- -- -- -- -- --
0020:                          79 00 F8 FF FF 7F F0 FF          y.......
0030: FF 7F 1D 05 80 23 21 00                           .....#!.        
```

#### Opcodes

```
  0: 0x0028 [0x79] EventEntity looks at LocalPlayer (Basic look)
  1: 0x0032 [0x1D] PRINT_EVENT_MESSAGE(message_id=10408*)
    → "Many caverns to the north house fiends that can see the unseen. Visit them and bring me three samples of frigicite."
  2: 0x0035 [0x23] WAIT_FOR_DIALOG_INTERACTION
  3: 0x0036 [0x21] END_EVENT
  4: 0x0037 [0x00] END_REQSTACK()
```

### Event 84

#### Metadata

| Field        | Value   |
|--------------|---------|
| Entrypoint   | 0x0038  |
| Data Size    | 1 bytes |
| Instructions | 1       |

```
      00 01 02 03 04 05 06 07  08 09 0A 0B 0C 0D 0E 0F
      -- -- -- -- -- -- -- --  -- -- -- -- -- -- -- --
0030:                          00                               .       
```

#### Opcodes

```
  0: 0x0038 [0x00] END_REQSTACK()
```

### Event 85

#### Metadata

| Field        | Value   |
|--------------|---------|
| Entrypoint   | 0x0039  |
| Data Size    | 1 bytes |
| Instructions | 1       |

```
      00 01 02 03 04 05 06 07  08 09 0A 0B 0C 0D 0E 0F
      -- -- -- -- -- -- -- --  -- -- -- -- -- -- -- --
0030:                             00                             .      
```

#### Opcodes

```
  0: 0x0039 [0x00] END_REQSTACK()
```

### Event 86

#### Metadata

| Field        | Value    |
|--------------|----------|
| Entrypoint   | 0x003A   |
| Data Size    | 31 bytes |
| Instructions | 8        |

```
      00 01 02 03 04 05 06 07  08 09 0A 0B 0C 0D 0E 0F
      -- -- -- -- -- -- -- --  -- -- -- -- -- -- -- --
0030:                                79 00 F8 FF FF 7F            y.....
0040: F0 FF FF 7F 03 02 10 06  80 03 03 10 07 80 03 04  ................
0050: 10 08 80 1D 09 80 23 21  00                       ......#!.       
```

#### Opcodes

```
  0: 0x003A [0x79] EventEntity looks at LocalPlayer (Basic look)
  1: 0x0044 [0x03] Work_Zone[2] = 336*
  2: 0x0049 [0x03] Work_Zone[3] = 337*
  3: 0x004E [0x03] Work_Zone[4] = 338*
  4: 0x0053 [0x1D] PRINT_EVENT_MESSAGE(message_id=10418*)
    → "6, $6, and $6. Bring those three items here to me."
  5: 0x0056 [0x23] WAIT_FOR_DIALOG_INTERACTION
  6: 0x0057 [0x21] END_EVENT
  7: 0x0058 [0x00] END_REQSTACK()
```

### Event 87

#### Metadata

| Field        | Value   |
|--------------|---------|
| Entrypoint   | 0x0059  |
| Data Size    | 1 bytes |
| Instructions | 1       |

```
      00 01 02 03 04 05 06 07  08 09 0A 0B 0C 0D 0E 0F
      -- -- -- -- -- -- -- --  -- -- -- -- -- -- -- --
0050:                             00                             .      
```

#### Opcodes

```
  0: 0x0059 [0x00] END_REQSTACK()
```

### Event 88

#### Metadata

| Field        | Value   |
|--------------|---------|
| Entrypoint   | 0x005A  |
| Data Size    | 1 bytes |
| Instructions | 1       |

```
      00 01 02 03 04 05 06 07  08 09 0A 0B 0C 0D 0E 0F
      -- -- -- -- -- -- -- --  -- -- -- -- -- -- -- --
0050:                                00                           .     
```

#### Opcodes

```
  0: 0x005A [0x00] END_REQSTACK()
```

### Event 89

#### Metadata

| Field        | Value    |
|--------------|----------|
| Entrypoint   | 0x005B   |
| Data Size    | 11 bytes |
| Instructions | 2        |

```
      00 01 02 03 04 05 06 07  08 09 0A 0B 0C 0D 0E 0F
      -- -- -- -- -- -- -- --  -- -- -- -- -- -- -- --
0050:                                   79 00 F8 FF FF             y....
0060: 7F F0 FF FF 7F 00                                 ......          
```

#### Opcodes

```
  0: 0x005B [0x79] EventEntity looks at LocalPlayer (Basic look)
  1: 0x0065 [0x00] END_REQSTACK()
```

### Event 90

#### Metadata

| Field        | Value   |
|--------------|---------|
| Entrypoint   | 0x0066  |
| Data Size    | 1 bytes |
| Instructions | 1       |

```
      00 01 02 03 04 05 06 07  08 09 0A 0B 0C 0D 0E 0F
      -- -- -- -- -- -- -- --  -- -- -- -- -- -- -- --
0060:                   00                                    .         
```

#### Opcodes

```
  0: 0x0066 [0x00] END_REQSTACK()
```

### Event 92

#### Metadata

| Field        | Value     |
|--------------|-----------|
| Entrypoint   | 0x0067    |
| Data Size    | 500 bytes |
| Instructions | 77        |

```
      00 01 02 03 04 05 06 07  08 09 0A 0B 0C 0D 0E 0F
      -- -- -- -- -- -- -- --  -- -- -- -- -- -- -- --
0060:                      20  01 42 46 01 45 0A 80 F0          .BF.E...
0070: FF FF 7F F0 FF FF 7F 66  64 6F 31 0B 80 55 0A 80  .......fdo1..U..
0080: F0 FF FF 7F F0 FF FF 7F  66 64 6F 31 38 0C 80 29  ........fdo18..)
0090: 03 F0 FF FF 7F 23 97 0B  80 0D 80 22 01 4E 00 32  .....#.....".N.2
00A0: 30 0F 01 4A F0 FF FF 7F  32 30 0F 01 4A 32 30 0F  0..J....20..J20.
00B0: 01 F0 FF FF 7F 6F 76 32  30 0F 01 45 0E 80 F0 FF  .....ov20..E....
00C0: FF 7F F0 FF FF 7F 77 30  30 30 0B 80 45 0A 80 F0  ......w000..E...
00D0: FF FF 7F F0 FF FF 7F 66  64 69 31 0B 80 55 0A 80  .......fdi1..U..
00E0: F0 FF FF 7F F0 FF FF 7F  66 64 69 31 1A 2C 0E 27  ........fdi1.,.'
00F0: 03 32 30 0F 01 10 2B 32  30 0F 01 0F 80 23 2B 32  .20...+20....#+2
0100: 30 0F 01 10 80 23 27 03  32 30 0F 01 11 2B 32 30  0....#'.20...+20
0110: 0F 01 11 80 23 2A 03 32  30 0F 01 55 0E 80 F0 FF  ....#*.20..U....
0120: FF 7F F0 FF FF 7F 77 30  30 30 45 0E 80 F0 FF FF  ......w000E.....
0130: 7F F0 FF FF 7F 77 30 30  31 0B 80 55 0E 80 F0 FF  .....w001..U....
0140: FF 7F F0 FF FF 7F 77 30  30 31 2B 32 30 0F 01 12  ......w001+20...
0150: 80 23 2B 32 30 0F 01 13  80 23 1C 14 80 4E 00 07  .#+20....#...N..
0160: 30 0F 01 2B 07 30 0F 01  15 80 1C 14 80 4A 32 30  0..+.0.......J20
0170: 0F 01 07 30 0F 01 6F 76  32 30 0F 01 4A F0 FF FF  ...0..ov20..J...
0180: 7F 07 30 0F 01 45 0E 80  F0 FF FF 7F F0 FF FF 7F  ..0..E..........
0190: 77 30 30 32 0B 80 55 0E  80 F0 FF FF 7F F0 FF FF  w002..U.........
01A0: 7F 77 30 30 32 23 2B 32  30 0F 01 16 80 23 2B 07  .w002#+20....#+.
01B0: 30 0F 01 17 80 23 2B 32  30 0F 01 18 80 23 45 0E  0....#+20....#E.
01C0: 80 F0 FF FF 7F F0 FF FF  7F 77 30 30 33 0B 80 55  .........w003..U
01D0: 0E 80 F0 FF FF 7F F0 FF  FF 7F 77 30 30 33 79 00  ..........w003y.
01E0: 07 30 0F 01 F0 FF FF 7F  27 03 07 30 0F 01 2A 2B  .0......'..0..*+
01F0: 07 30 0F 01 19 80 23 27  03 32 30 0F 01 14 2B 32  .0....#'.20...+2
0200: 30 0F 01 1A 80 23 79 00  07 30 0F 01 32 30 0F 01  0....#y..0..20..
0210: 27 03 07 30 0F 01 2B 2B  07 30 0F 01 1B 80 23 2A  '..0..++.0....#*
0220: 03 07 30 0F 01 29 03 07  30 0F 01 11 1C 1C 80 29  ..0..)..0......)
0230: 03 32 30 0F 01 15 4A 32  30 0F 01 F0 FF FF 7F 6F  .20...J20......o
0240: 76 32 30 0F 01 4A F0 FF  FF 7F 32 30 0F 01 2B 32  v20..J....20..+2
0250: 30 0F 01 1D 80 23 1A F6  0D 21 00                 0....#...!.     
```

#### Opcodes

```
  0: 0x0067 [0x20] SET_CLI_EVENT_UC_FLAG: Lock player control
  1: 0x0069 [0x42] SET_CLI_EVENT_CANCEL_DATA()
  2: 0x006A [0x46] CAMERA_CONTROL: Disable user control
  3: 0x006C [0x45] LOAD_SCHEDULED_TASK: Load scheduler "fdo1" with entities [LocalPlayer, LocalPlayer], work=[200*, 0*]
  4: 0x007D [0x55] WAIT_LOAD_SCHEDULER: Wait for scheduler "fdo1" with entities [LocalPlayer, LocalPlayer], work=200*
  5: 0x008C [0x38] SET_CLIENT_EVENT_MODE(mode=3*)
  6: 0x008F [0x29] REQ_SET_WAIT(priority=0x03, entity_id=LocalPlayer, tag_num=0x23)
  7: 0x0096 [0x97] SAVE_SET_WIND_VALUES(wind_base=0x800B, wind_width=0x800D)
  8: 0x009B [0x22] ENTITY_HIDE_FLAG(enabled=0x01)
  9: 0x009D [0x4E] SET_ENTITY_HIDE_FLAG: Show Maat (ID: 17772594/0x010F3032)
 10: 0x00A3 [0x4A] LocalPlayer looks at Maat (ID: 17772594/0x010F3032)
 11: 0x00AC [0x4A] Maat (ID: 17772594/0x010F3032) looks at LocalPlayer
 12: 0x00B5 [0x6F] WAIT_FRAME_DELAY: Yield until WaitTime reaches zero
 13: 0x00B6 [0x76] CHECK_ENTITY_RENDER_FLAGS: Wait until Maat (ID: 17772594/0x010F3032) Render.Flags0 and Render.Flags3 conditions are met
 14: 0x00BB [0x45] LOAD_SCHEDULED_TASK: Load scheduler "w000" with entities [LocalPlayer, LocalPlayer], work=[53*, 0*]
 15: 0x00CC [0x45] LOAD_SCHEDULED_TASK: Load scheduler "fdi1" with entities [LocalPlayer, LocalPlayer], work=[200*, 0*]
 16: 0x00DD [0x55] WAIT_LOAD_SCHEDULER: Wait for scheduler "fdi1" with entities [LocalPlayer, LocalPlayer], work=200*
 17: 0x00EC [0x1A] CALL_SUBROUTINE(address=0x0E2C)
 18: 0x00EF [0x27] REQ_SET(priority=0x03, entity_id=Maat (ID: 17772594/0x010F3032), tag_num=0x10)
 19: 0x00F6 [0x2B] Maat (ID: 17772594/0x010F3032) [10465*]:
    → "It's been a long road to the top, and I'm sure you've had your share of hard times along the way."
 20: 0x00FD [0x23] WAIT_FOR_DIALOG_INTERACTION
 21: 0x00FE [0x2B] Maat (ID: 17772594/0x010F3032) [10466*]:
    → "I want you to remember back to the very first day you stepped out into the Vana'diel sun. You were still a tiny ant trying to climb a mountain... But now look at you--riding the clouds to the stars."
 22: 0x0105 [0x23] WAIT_FOR_DIALOG_INTERACTION
 23: 0x0106 [0x27] REQ_SET(priority=0x03, entity_id=Maat (ID: 17772594/0x010F3032), tag_num=0x11)
 24: 0x010D [0x2B] Maat (ID: 17772594/0x010F3032) [10467*]:
    → "But don't think that you've reached the top. Even if you break one limit, there's always another waiting for you. But it's our persistent aiming for the top that makes us great."
 25: 0x0114 [0x23] WAIT_FOR_DIALOG_INTERACTION
 26: 0x0115 [0x2A] GET_REQ_LEVEL(level=3, entity_id=Maat (ID: 17772594/0x010F3032))
 27: 0x011B [0x55] WAIT_LOAD_SCHEDULER: Wait for scheduler "w000" with entities [LocalPlayer, LocalPlayer], work=53*
 28: 0x012A [0x45] LOAD_SCHEDULED_TASK: Load scheduler "w001" with entities [LocalPlayer, LocalPlayer], work=[53*, 0*]
 29: 0x013B [0x55] WAIT_LOAD_SCHEDULER: Wait for scheduler "w001" with entities [LocalPlayer, LocalPlayer], work=53*
 30: 0x014A [0x2B] Maat (ID: 17772594/0x010F3032) [10468*]:
    → "However, I'm growing old, and there's not much left to teach you. Our tale together has reached its final chapter, so to speak."
 31: 0x0151 [0x23] WAIT_FOR_DIALOG_INTERACTION
 32: 0x0152 [0x2B] Maat (ID: 17772594/0x010F3032) [10469*]:
    → "But before we turn the page, I'll need you to bring me $1. What's that look on your face? Rounding up something like that should be no problem for a [guy/lady] like you!"
 33: 0x0159 [0x23] WAIT_FOR_DIALOG_INTERACTION
 34: 0x015A [0x1C] WAIT(60* ticks)
 35: 0x015D [0x4E] SET_ENTITY_HIDE_FLAG: Show Wolfgang (ID: 17772551/0x010F3007)
 36: 0x0163 [0x2B] Wolfgang (ID: 17772551/0x010F3007) [10470*]:
    → "Master Maat!"
 37: 0x016A [0x1C] WAIT(60* ticks)
 38: 0x016D [0x4A] Maat (ID: 17772594/0x010F3032) looks at Wolfgang (ID: 17772551/0x010F3007)
 39: 0x0176 [0x6F] WAIT_FRAME_DELAY: Yield until WaitTime reaches zero
 40: 0x0177 [0x76] CHECK_ENTITY_RENDER_FLAGS: Wait until Maat (ID: 17772594/0x010F3032) Render.Flags0 and Render.Flags3 conditions are met
 41: 0x017C [0x4A] LocalPlayer looks at Wolfgang (ID: 17772551/0x010F3007)
 42: 0x0185 [0x45] LOAD_SCHEDULED_TASK: Load scheduler "w002" with entities [LocalPlayer, LocalPlayer], work=[53*, 0*]
 43: 0x0196 [0x55] WAIT_LOAD_SCHEDULER: Wait for scheduler "w002" with entities [LocalPlayer, LocalPlayer], work=53*
 44: 0x01A5 [0x23] WAIT_FOR_DIALOG_INTERACTION
 45: 0x01A6 [0x2B] Maat (ID: 17772594/0x010F3032) [10471*]:
    → "Wh-wh-what in...!? Oh, it's you, Wolfgang. I wish you'd stop sneaking up on me like that. It's bad for my heart!"
 46: 0x01AD [0x23] WAIT_FOR_DIALOG_INTERACTION
 47: 0x01AE [0x2B] Wolfgang (ID: 17772551/0x010F3007) [10472*]:
    → "It is time, sir."
 48: 0x01B5 [0x23] WAIT_FOR_DIALOG_INTERACTION
 49: 0x01B6 [0x2B] Maat (ID: 17772594/0x010F3032) [10473*]:
    → "Oh, yes. Of course."
 50: 0x01BD [0x23] WAIT_FOR_DIALOG_INTERACTION
 51: 0x01BE [0x45] LOAD_SCHEDULED_TASK: Load scheduler "w003" with entities [LocalPlayer, LocalPlayer], work=[53*, 0*]
 52: 0x01CF [0x55] WAIT_LOAD_SCHEDULER: Wait for scheduler "w003" with entities [LocalPlayer, LocalPlayer], work=53*
 53: 0x01DE [0x79] Wolfgang (ID: 17772551/0x010F3007) looks at LocalPlayer (Basic look)
 54: 0x01E8 [0x27] REQ_SET(priority=0x03, entity_id=Wolfgang (ID: 17772551/0x010F3007), tag_num=0x2A)
 55: 0x01EF [0x2B] Wolfgang (ID: 17772551/0x010F3007) [10474*]:
    → "Sir, you are not still bothering adventurers with your games, are you?"
 56: 0x01F6 [0x23] WAIT_FOR_DIALOG_INTERACTION
 57: 0x01F7 [0x27] REQ_SET(priority=0x03, entity_id=Maat (ID: 17772594/0x010F3032), tag_num=0x14)
 58: 0x01FE [0x2B] Maat (ID: 17772594/0x010F3032) [10475*]:
    → "Games? You should talk, Wolfgang. Why, <Player> here could slice you up and eat you for breakfast."
 59: 0x0205 [0x23] WAIT_FOR_DIALOG_INTERACTION
 60: 0x0206 [0x79] Wolfgang (ID: 17772551/0x010F3007) looks at Maat (ID: 17772594/0x010F3032) (Basic look)
 61: 0x0210 [0x27] REQ_SET(priority=0x03, entity_id=Wolfgang (ID: 17772551/0x010F3007), tag_num=0x2B)
 62: 0x0217 [0x2B] Wolfgang (ID: 17772551/0x010F3007) [10476*]:
    → "Yes, sir... Now, we must be off. I will meet you at the gate when you arrive."
 63: 0x021E [0x23] WAIT_FOR_DIALOG_INTERACTION
 64: 0x021F [0x2A] GET_REQ_LEVEL(level=3, entity_id=Wolfgang (ID: 17772551/0x010F3007))
 65: 0x0225 [0x29] REQ_SET_WAIT(priority=0x03, entity_id=Wolfgang (ID: 17772551/0x010F3007), tag_num=0x11)
 66: 0x022C [0x1C] WAIT(120* ticks)
 67: 0x022F [0x29] REQ_SET_WAIT(priority=0x03, entity_id=Maat (ID: 17772594/0x010F3032), tag_num=0x15)
 68: 0x0236 [0x4A] Maat (ID: 17772594/0x010F3032) looks at LocalPlayer
 69: 0x023F [0x6F] WAIT_FRAME_DELAY: Yield until WaitTime reaches zero
 70: 0x0240 [0x76] CHECK_ENTITY_RENDER_FLAGS: Wait until Maat (ID: 17772594/0x010F3032) Render.Flags0 and Render.Flags3 conditions are met
 71: 0x0245 [0x4A] LocalPlayer looks at Maat (ID: 17772594/0x010F3032)
 72: 0x024E [0x2B] Maat (ID: 17772594/0x010F3032) [10477*]:
    → "I'm sorry about the interruption. Anyway, you go get me that $1. While you're doing that, I'll finish my business with Wolfgang."
 73: 0x0255 [0x23] WAIT_FOR_DIALOG_INTERACTION
 74: 0x0256 [0x1A] CALL_SUBROUTINE(address=0x0DF6)
 75: 0x0259 [0x21] END_EVENT
 76: 0x025A [0x00] END_REQSTACK()
```

### Event 91

#### Metadata

| Field        | Value    |
|--------------|----------|
| Entrypoint   | 0x025B   |
| Data Size    | 23 bytes |
| Instructions | 6        |

```
      00 01 02 03 04 05 06 07  08 09 0A 0B 0C 0D 0E 0F
      -- -- -- -- -- -- -- --  -- -- -- -- -- -- -- --
0250:                                   79 00 F8 FF FF             y....
0260: 7F F0 FF FF 7F 1A 2C 0E  2B 31 30 0F 01 1E 80 23  ......,.+10....#
0270: 21 00                                             !.              
```

#### Opcodes

```
  0: 0x025B [0x79] EventEntity looks at LocalPlayer (Basic look)
  1: 0x0265 [0x1A] CALL_SUBROUTINE(address=0x0E2C)
  2: 0x0268 [0x2B] Maat (ID: 17772593/0x010F3031) [10478*]:
    → "Find me $1 and bring it back here. Then we can see what the final chapter holds for you."
  3: 0x026F [0x23] WAIT_FOR_DIALOG_INTERACTION
  4: 0x0270 [0x21] END_EVENT
  5: 0x0271 [0x00] END_REQSTACK()
```

### Event 64

#### Metadata

| Field        | Value     |
|--------------|-----------|
| Entrypoint   | 0x0272    |
| Data Size    | 450 bytes |
| Instructions | 78        |

```
      00 01 02 03 04 05 06 07  08 09 0A 0B 0C 0D 0E 0F
      -- -- -- -- -- -- -- --  -- -- -- -- -- -- -- --
0270:       03 00 00 02 10 03  01 00 03 10 20 01 42 46    .......... .BF
0280: 01 45 0A 80 F0 FF FF 7F  F0 FF FF 7F 66 64 6F 31  .E..........fdo1
0290: 0B 80 55 0A 80 F0 FF FF  7F F0 FF FF 7F 66 64 6F  ..U..........fdo
02A0: 31 38 0C 80 29 03 F0 FF  FF 7F 23 97 0B 80 0D 80  18..).....#.....
02B0: 22 01 4E 00 32 30 0F 01  4A F0 FF FF 7F 32 30 0F  ".N.20..J....20.
02C0: 01 4A 32 30 0F 01 F0 FF  FF 7F 6F 76 32 30 0F 01  .J20......ov20..
02D0: 27 03 32 30 0F 01 12 45  0E 80 F0 FF FF 7F F0 FF  '.20...E........
02E0: FF 7F 77 30 30 31 0B 80  55 0E 80 F0 FF FF 7F F0  ..w001..U.......
02F0: FF FF 7F 77 30 30 31 45  0A 80 F0 FF FF 7F F0 FF  ...w001E........
0300: FF 7F 66 64 69 31 0B 80  55 0A 80 F0 FF FF 7F F0  ..fdi1..U.......
0310: FF FF 7F 66 64 69 31 1A  2C 0E 2B 32 30 0F 01 1F  ...fdi1.,.+20...
0320: 80 23 2B 32 30 0F 01 20  80 23 27 03 32 30 0F 01  .#+20.. .#'.20..
0330: 13 1C 21 80 45 0E 80 F0  FF FF 7F F0 FF FF 7F 77  ..!.E..........w
0340: 30 30 34 0B 80 55 0E 80  F0 FF FF 7F F0 FF FF 7F  004..U..........
0350: 77 30 30 34 2A 03 32 30  0F 01 2B 32 30 0F 01 22  w004*.20..+20.."
0360: 80 23 27 03 32 30 0F 01  10 2B 32 30 0F 01 23 80  .#'.20...+20..#.
0370: 23 27 03 32 30 0F 01 11  2B 32 30 0F 01 24 80 23  #'.20...+20..$.#
0380: 2B 32 30 0F 01 25 80 23  06 01 10 24 26 80 0D 80  +20..%.#...$&...
0390: 0B 80 25 02 00 10 0B 80  00 15 04 06 02 00 02 00  ..%.............
03A0: 00 27 80 00 A9 03 05 02  00 02 00 00 28 80 00 B4  .'..........(...
03B0: 03 05 02 00 02 00 00 29  80 00 BF 03 05 02 00 06  .......)........
03C0: 02 10 02 02 00 0D 80 00  D6 03 06 03 00 43 00 43  .............C.C
03D0: 01 03 03 00 02 10 03 02  10 00 00 1A 2C 0E 2B 32  ............,.+2
03E0: 30 0F 01 2A 80 23 02 03  00 0B 80 00 12 04 02 01  0..*.#..........
03F0: 00 0B 80 00 12 04 03 01  10 0D 80 73 2B 80 32 30  ...........s+.20
0400: 0F 01 F0 FF FF 7F 1C 2C  80 92 01 F0 FF FF 7F 1C  .......,........
0410: 2D 80 01 2F 04 02 00 10  0D 80 00 2F 04 27 03 32  -../......./.'.2
0420: 30 0F 01 14 2B 32 30 0F  01 2E 80 23 01 2F 04 1A  0...+20....#./..
0430: F6 0D 21 00                                       ..!.            
```

#### Opcodes

```
  0: 0x0272 [0x03] ExtData[1]->WorkLocal[0] = Work_Zone[2]
  1: 0x0277 [0x03] ExtData[1]->WorkLocal[1] = Work_Zone[3]
  2: 0x027C [0x20] SET_CLI_EVENT_UC_FLAG: Lock player control
  3: 0x027E [0x42] SET_CLI_EVENT_CANCEL_DATA()
  4: 0x027F [0x46] CAMERA_CONTROL: Disable user control
  5: 0x0281 [0x45] LOAD_SCHEDULED_TASK: Load scheduler "fdo1" with entities [LocalPlayer, LocalPlayer], work=[200*, 0*]
  6: 0x0292 [0x55] WAIT_LOAD_SCHEDULER: Wait for scheduler "fdo1" with entities [LocalPlayer, LocalPlayer], work=200*
  7: 0x02A1 [0x38] SET_CLIENT_EVENT_MODE(mode=3*)
  8: 0x02A4 [0x29] REQ_SET_WAIT(priority=0x03, entity_id=LocalPlayer, tag_num=0x23)
  9: 0x02AB [0x97] SAVE_SET_WIND_VALUES(wind_base=0x800B, wind_width=0x800D)
 10: 0x02B0 [0x22] ENTITY_HIDE_FLAG(enabled=0x01)
 11: 0x02B2 [0x4E] SET_ENTITY_HIDE_FLAG: Show Maat (ID: 17772594/0x010F3032)
 12: 0x02B8 [0x4A] LocalPlayer looks at Maat (ID: 17772594/0x010F3032)
 13: 0x02C1 [0x4A] Maat (ID: 17772594/0x010F3032) looks at LocalPlayer
 14: 0x02CA [0x6F] WAIT_FRAME_DELAY: Yield until WaitTime reaches zero
 15: 0x02CB [0x76] CHECK_ENTITY_RENDER_FLAGS: Wait until Maat (ID: 17772594/0x010F3032) Render.Flags0 and Render.Flags3 conditions are met
 16: 0x02D0 [0x27] REQ_SET(priority=0x03, entity_id=Maat (ID: 17772594/0x010F3032), tag_num=0x12)
 17: 0x02D7 [0x45] LOAD_SCHEDULED_TASK: Load scheduler "w001" with entities [LocalPlayer, LocalPlayer], work=[53*, 0*]
 18: 0x02E8 [0x55] WAIT_LOAD_SCHEDULER: Wait for scheduler "w001" with entities [LocalPlayer, LocalPlayer], work=53*
 19: 0x02F7 [0x45] LOAD_SCHEDULED_TASK: Load scheduler "fdi1" with entities [LocalPlayer, LocalPlayer], work=[200*, 0*]
 20: 0x0308 [0x55] WAIT_LOAD_SCHEDULER: Wait for scheduler "fdi1" with entities [LocalPlayer, LocalPlayer], work=200*
 21: 0x0317 [0x1A] CALL_SUBROUTINE(address=0x0E2C)
 22: 0x031A [0x2B] Maat (ID: 17772594/0x010F3032) [10479*]:
    → "That wasn't so hard now, was it?"
 23: 0x0321 [0x23] WAIT_FOR_DIALOG_INTERACTION
 24: 0x0322 [0x2B] Maat (ID: 17772594/0x010F3032) [10480*]:
    → "I bet you're wondering why I keep having you travel around the globe, collecting all these rare and obscure items for me."
 25: 0x0329 [0x23] WAIT_FOR_DIALOG_INTERACTION
 26: 0x032A [0x27] REQ_SET(priority=0x03, entity_id=Maat (ID: 17772594/0x010F3032), tag_num=0x13)
 27: 0x0331 [0x1C] WAIT(15* ticks)
 28: 0x0334 [0x45] LOAD_SCHEDULED_TASK: Load scheduler "w004" with entities [LocalPlayer, LocalPlayer], work=[53*, 0*]
 29: 0x0345 [0x55] WAIT_LOAD_SCHEDULER: Wait for scheduler "w004" with entities [LocalPlayer, LocalPlayer], work=53*
 30: 0x0354 [0x2A] GET_REQ_LEVEL(level=3, entity_id=Maat (ID: 17772594/0x010F3032))
 31: 0x035A [0x2B] Maat (ID: 17772594/0x010F3032) [10481*]:
    → "Heh heh heh. I know what you're thinking. You're sick and tired of playing fetch for old Maat. You want a chance to show me what you're really made of."
 32: 0x0361 [0x23] WAIT_FOR_DIALOG_INTERACTION
 33: 0x0362 [0x27] REQ_SET(priority=0x03, entity_id=Maat (ID: 17772594/0x010F3032), tag_num=0x10)
 34: 0x0369 [0x2B] Maat (ID: 17772594/0x010F3032) [10482*]:
    → "Well, now that you mention it, I think I'd be delighted to test your might with my own hands."
 35: 0x0370 [0x23] WAIT_FOR_DIALOG_INTERACTION
 36: 0x0371 [0x27] REQ_SET(priority=0x03, entity_id=Maat (ID: 17772594/0x010F3032), tag_num=0x11)
 37: 0x0378 [0x2B] Maat (ID: 17772594/0x010F3032) [10483*]:
    → "I may look old, but I still have a lot of spunk in me. I can take anything and everything you've got."
 38: 0x037F [0x23] WAIT_FOR_DIALOG_INTERACTION
 39: 0x0380 [0x2B] Maat (ID: 17772594/0x010F3032) [10484*]:
    → "What do you say? You'll get your chance to get back at me for all the trouble I've put you through, and I'll get some good exercise."
 40: 0x0387 [0x23] WAIT_FOR_DIALOG_INTERACTION
 41: 0x0388 [0x06] Work_Zone[1] = 0
 42: 0x038B [0x24] CREATE_DIALOG(message_id=10485*, default_option=1*, option_flags=0*)
    → "Challenge Maat? [You bet!/I'm not ready to hit the mat.]"
 43: 0x0392 [0x25] WAIT_DIALOG_SELECT()
 44: 0x0393 [0x02] IF !(Work_Zone[0] == 0*) GOTO 0x0415
 45: 0x039B [0x06] ExtData[1]->WorkLocal[2] = 0
 46: 0x039E [0x02] IF !(ExtData[1]->WorkLocal[0] == 12*) GOTO 0x03A9
 47: 0x03A6 [0x05] ExtData[1]->WorkLocal[2] = 1
 48: 0x03A9 [0x02] IF !(ExtData[1]->WorkLocal[0] == 13*) GOTO 0x03B4
 49: 0x03B1 [0x05] ExtData[1]->WorkLocal[2] = 1
 50: 0x03B4 [0x02] IF !(ExtData[1]->WorkLocal[0] == 14*) GOTO 0x03BF
 51: 0x03BC [0x05] ExtData[1]->WorkLocal[2] = 1
 52: 0x03BF [0x06] Work_Zone[2] = 0
 53: 0x03C2 [0x02] IF !(ExtData[1]->WorkLocal[2] == 1*) GOTO 0x03D6
 54: 0x03CA [0x06] ExtData[1]->WorkLocal[3] = 0
 55: 0x03CD [0x43] SEND_EVENT_UPDATE: Send pending tag to server (packet 0x005B)
 56: 0x03CF [0x43] SEND_EVENT_UPDATE: Check pending flag (skip if not pending)
 57: 0x03D1 [0x03] ExtData[1]->WorkLocal[3] = Work_Zone[2]
 58: 0x03D6 [0x03] Work_Zone[2] = ExtData[1]->WorkLocal[0]
 59: 0x03DB [0x1A] CALL_SUBROUTINE(address=0x0E2C)
 60: 0x03DE [0x2B] Maat (ID: 17772594/0x010F3032) [10486*]:
    → "Heh heh heh! That's the spirit! Now take that $1 to the burning circle and throw it in. I'll be waiting for you inside."
 61: 0x03E5 [0x23] WAIT_FOR_DIALOG_INTERACTION
 62: 0x03E6 [0x02] IF !(ExtData[1]->WorkLocal[3] == 0*) GOTO 0x0412
 63: 0x03EE [0x02] IF !(ExtData[1]->WorkLocal[1] == 0*) GOTO 0x0412
 64: 0x03F6 [0x03] Work_Zone[1] = 1*
 65: 0x03FB [0x73] Maat (ID: 17772594/0x010F3032) casts magic 122* on LocalPlayer
 66: 0x0406 [0x1C] WAIT(150* ticks)
 67: 0x0409 [0x92] LocalPlayer->Render.Flags3 ^= 0x01
 68: 0x040F [0x1C] WAIT(110* ticks)
 69: 0x0412 [0x01] GOTO 0x042F
 70: 0x0415 [0x02] IF !(Work_Zone[0] == 1*) GOTO 0x042F
 71: 0x041D [0x27] REQ_SET(priority=0x03, entity_id=Maat (ID: 17772594/0x010F3032), tag_num=0x14)
 72: 0x0424 [0x2B] Maat (ID: 17772594/0x010F3032) [10487*]:
    → "Huh? You're not afraid of an old man now, are you? Well, I guess I can give you a little more time to prepare. You can call it a handicap. Heh heh heh."
 73: 0x042B [0x23] WAIT_FOR_DIALOG_INTERACTION
 74: 0x042C [0x01] GOTO 0x042F

SUBROUTINE_042F:
 75: 0x042F [0x1A] CALL_SUBROUTINE(address=0x0DF6)
 76: 0x0432 [0x21] END_EVENT
 77: 0x0433 [0x00] END_REQSTACK()
```

### Event 62

#### Metadata

| Field        | Value    |
|--------------|----------|
| Entrypoint   | 0x0434   |
| Data Size    | 19 bytes |
| Instructions | 6        |

```
      00 01 02 03 04 05 06 07  08 09 0A 0B 0C 0D 0E 0F
      -- -- -- -- -- -- -- --  -- -- -- -- -- -- -- --
0430:             79 00 F8 FF  FF 7F F0 FF FF 7F 1A 2C      y..........,
0440: 0E 1D 2F 80 23 21 00                              ../.#!.         
```

#### Opcodes

```
  0: 0x0434 [0x79] EventEntity looks at LocalPlayer (Basic look)
  1: 0x043E [0x1A] CALL_SUBROUTINE(address=0x0E2C)
  2: 0x0441 [0x1D] PRINT_EVENT_MESSAGE(message_id=10489*)
    → "Hey, that $1 you've got there is a piece of junk. You'll need a new one if you want to fight me."
  3: 0x0444 [0x23] WAIT_FOR_DIALOG_INTERACTION
  4: 0x0445 [0x21] END_EVENT
  5: 0x0446 [0x00] END_REQSTACK()
```

### Event 63

#### Metadata

| Field        | Value    |
|--------------|----------|
| Entrypoint   | 0x0447   |
| Data Size    | 23 bytes |
| Instructions | 8        |

```
      00 01 02 03 04 05 06 07  08 09 0A 0B 0C 0D 0E 0F
      -- -- -- -- -- -- -- --  -- -- -- -- -- -- -- --
0440:                      79  00 F8 FF FF 7F F0 FF FF         y........
0450: 7F 1A 2C 0E 1D 30 80 23  1D 31 80 23 21 00        ..,..0.#.1.#!.  
```

#### Opcodes

```
  0: 0x0447 [0x79] EventEntity looks at LocalPlayer (Basic look)
  1: 0x0451 [0x1A] CALL_SUBROUTINE(address=0x0E2C)
  2: 0x0454 [0x1D] PRINT_EVENT_MESSAGE(message_id=10490*)
    → "Let's see... How about we duel it out [ /at Horlais Peak/at Balga's Dais/at Balga's Dais/at Horlais Peak/in the Waughroon Shrine/in the Waughroon Shrine/at the Qu'Bia Arena/at the Qu'Bia Arena/in the Waughroon Shrine/at the Qu'Bia Arena/at Horlais Peak/in the Chamber of Oracles/in the Chamber of Oracles/in the Chamber of Oracles/at Balga's Dais]? You know what to do with the $1 when you get there, right?"
  3: 0x0457 [0x23] WAIT_FOR_DIALOG_INTERACTION
  4: 0x0458 [0x1D] PRINT_EVENT_MESSAGE(message_id=10491*)
    → "Now if you show me that $1, I'll even teleport you to the battlefield. Boy, are we going to have some fun!"
  5: 0x045B [0x23] WAIT_FOR_DIALOG_INTERACTION
  6: 0x045C [0x21] END_EVENT
  7: 0x045D [0x00] END_REQSTACK()
```

### Event 93

#### Metadata

| Field        | Value     |
|--------------|-----------|
| Entrypoint   | 0x045E    |
| Data Size    | 993 bytes |
| Instructions | 146       |

```
      00 01 02 03 04 05 06 07  08 09 0A 0B 0C 0D 0E 0F
      -- -- -- -- -- -- -- --  -- -- -- -- -- -- -- --
0450:                                            20 01                 .
0460: 42 46 01 45 0A 80 F0 FF  FF 7F F0 FF FF 7F 66 64  BF.E..........fd
0470: 6F 31 0B 80 55 0A 80 F0  FF FF 7F F0 FF FF 7F 66  o1..U..........f
0480: 64 6F 31 38 0C 80 29 03  F0 FF FF 7F 23 97 0B 80  do18..).....#...
0490: 0D 80 22 01 4E 00 32 30  0F 01 4A F0 FF FF 7F 32  ..".N.20..J....2
04A0: 30 0F 01 4A 32 30 0F 01  F0 FF FF 7F 6F 76 32 30  0..J20......ov20
04B0: 0F 01 45 0E 80 F0 FF FF  7F F0 FF FF 7F 77 30 30  ..E..........w00
04C0: 35 0B 80 45 0A 80 F0 FF  FF 7F F0 FF FF 7F 66 64  5..E..........fd
04D0: 69 31 0B 80 55 0A 80 F0  FF FF 7F F0 FF FF 7F 66  i1..U..........f
04E0: 64 69 31 1C 0A 80 27 03  32 30 0F 01 12 55 0E 80  di1...'.20...U..
04F0: F0 FF FF 7F F0 FF FF 7F  77 30 30 35 2B 32 30 0F  ........w005+20.
0500: 01 32 80 23 45 0E 80 F0  FF FF 7F F0 FF FF 7F 77  .2.#E..........w
0510: 30 30 36 0B 80 29 03 32  30 0F 01 13 55 0E 80 F0  006..).20...U...
0520: FF FF 7F F0 FF FF 7F 77  30 30 36 5D 0B 80 33 80  .......w006]..3.
0530: 2B 32 30 0F 01 34 80 23  2B 32 30 0F 01 35 80 23  +20..4.#+20..5.#
0540: 27 03 32 30 0F 01 12 5C  00 36 80 5C 01 36 80 2B  '.20...\.6.\.6.+
0550: 32 30 0F 01 37 80 23 45  0A 80 31 30 0F 01 31 30  20..7.#E..10..10
0560: 0F 01 6F 76 6C 31 0B 80  45 0E 80 F0 FF FF 7F F0  ..ovl1..E.......
0570: FF FF 7F 77 30 30 37 0B  80 2B 32 30 0F 01 38 80  ...w007..+20..8.
0580: 23 2B 32 30 0F 01 39 80  23 55 0E 80 F0 FF FF 7F  #+20..9.#U......
0590: F0 FF FF 7F 77 30 30 37  45 0A 80 31 30 0F 01 31  ....w007E..10..1
05A0: 30 0F 01 6F 76 6C 31 0B  80 45 0E 80 F0 FF FF 7F  0..ovl1..E......
05B0: F0 FF FF 7F 77 30 30 38  0B 80 1C 14 80 27 03 32  ....w008.....'.2
05C0: 30 0F 01 13 2B 32 30 0F  01 3A 80 23 55 0E 80 F0  0...+20..:.#U...
05D0: FF FF 7F F0 FF FF 7F 77  30 30 38 2A 03 32 30 0F  .......w008*.20.
05E0: 01 2B 32 30 0F 01 3B 80  1C 14 80 27 03 32 30 0F  .+20..;....'.20.
05F0: 01 0E 1C 3C 80 4A F0 FF  FF 7F 32 30 0F 01 45 0E  ...<.J....20..E.
0600: 80 F0 FF FF 7F F0 FF FF  7F 77 30 30 39 0B 80 2A  .........w009..*
0610: 03 32 30 0F 01 4A F0 FF  FF 7F 32 30 0F 01 1C 14  .20..J....20....
0620: 80 23 2B 32 30 0F 01 3D  80 23 55 0E 80 F0 FF FF  .#+20..=.#U.....
0630: 7F F0 FF FF 7F 77 30 30  39 1C 14 80 4E 00 08 30  .....w009...N..0
0640: 0F 01 2B 08 30 0F 01 3E  80 1C 14 80 27 03 08 30  ..+.0..>....'..0
0650: 0F 01 02 4A 32 30 0F 01  08 30 0F 01 1C 3F 80 45  ...J20...0...?.E
0660: 0E 80 F0 FF FF 7F F0 FF  FF 7F 77 30 31 30 0B 80  ..........w010..
0670: 55 0E 80 F0 FF FF 7F F0  FF FF 7F 77 30 31 30 6F  U..........w010o
0680: 76 32 30 0F 01 23 2B 32  30 0F 01 40 80 23 2B 08  v20..#+20..@.#+.
0690: 30 0F 01 41 80 23 27 03  32 30 0F 01 14 2B 32 30  0..A.#'.20...+20
06A0: 0F 01 42 80 23 2B 08 30  0F 01 43 80 23 45 0E 80  ..B.#+.0..C.#E..
06B0: F0 FF FF 7F F0 FF FF 7F  77 30 31 31 0B 80 55 0E  ........w011..U.
06C0: 80 F0 FF FF 7F F0 FF FF  7F 77 30 31 31 2B 08 30  .........w011+.0
06D0: 0F 01 44 80 23 27 03 32  30 0F 01 15 2B 32 30 0F  ..D.#'.20...+20.
06E0: 01 45 80 23 2B 08 30 0F  01 46 80 23 45 0E 80 F0  .E.#+.0..F.#E...
06F0: FF FF 7F F0 FF FF 7F 77  30 31 32 0B 80 55 0E 80  .......w012..U..
0700: F0 FF FF 7F F0 FF FF 7F  77 30 31 32 27 03 32 30  ........w012'.20
0710: 0F 01 12 2B 32 30 0F 01  47 80 23 2B 08 30 0F 01  ...+20..G.#+.0..
0720: 48 80 23 27 03 32 30 0F  01 13 2B 32 30 0F 01 49  H.#'.20...+20..I
0730: 80 23 1C 14 80 2B 08 30  0F 01 4A 80 23 45 0E 80  .#...+.0..J.#E..
0740: F0 FF FF 7F F0 FF FF 7F  77 30 31 30 0B 80 55 0E  ........w010..U.
0750: 80 F0 FF FF 7F F0 FF FF  7F 77 30 31 30 1C 14 80  .........w010...
0760: 2B 08 30 0F 01 4B 80 23  2B 32 30 0F 01 4C 80 23  +.0..K.#+20..L.#
0770: 2B 08 30 0F 01 4D 80 23  27 03 08 30 0F 01 03 1C  +.0..M.#'..0....
0780: 4E 80 2B 32 30 0F 01 4F  80 1C 21 80 4A 32 30 0F  N.+20..O..!.J20.
0790: 01 F0 FF FF 7F 1C 21 80  45 0E 80 F0 FF FF 7F F0  ......!.E.......
07A0: FF FF 7F 77 30 31 33 0B  80 55 0E 80 F0 FF FF 7F  ...w013..U......
07B0: F0 FF FF 7F 77 30 31 33  6F 76 32 30 0F 01 23 27  ....w013ov20..#'
07C0: 03 32 30 0F 01 10 2B 32  30 0F 01 50 80 23 2B 32  .20...+20..P.#+2
07D0: 30 0F 01 51 80 23 29 03  32 30 0F 01 11 45 0A 80  0..Q.#).20...E..
07E0: 31 30 0F 01 31 30 0F 01  6F 76 6C 31 0B 80 45 0E  10..10..ovl1..E.
07F0: 80 F0 FF FF 7F F0 FF FF  7F 77 30 31 34 0B 80 1C  .........w014...
0800: 3F 80 2B 32 30 0F 01 52  80 23 2B 32 30 0F 01 53  ?.+20..R.#+20..S
0810: 80 23 55 0E 80 F0 FF FF  7F F0 FF FF 7F 77 30 31  .#U..........w01
0820: 34 45 54 80 F0 FF FF 7F  F0 FF FF 7F 71 73 74 63  4ET.........qstc
0830: 0B 80 1A F6 0D 5C 00 55  80 5C 01 55 80 21 00     .....\.U.\.U.!. 
```

#### Opcodes

```
  0: 0x045E [0x20] SET_CLI_EVENT_UC_FLAG: Lock player control
  1: 0x0460 [0x42] SET_CLI_EVENT_CANCEL_DATA()
  2: 0x0461 [0x46] CAMERA_CONTROL: Disable user control
  3: 0x0463 [0x45] LOAD_SCHEDULED_TASK: Load scheduler "fdo1" with entities [LocalPlayer, LocalPlayer], work=[200*, 0*]
  4: 0x0474 [0x55] WAIT_LOAD_SCHEDULER: Wait for scheduler "fdo1" with entities [LocalPlayer, LocalPlayer], work=200*
  5: 0x0483 [0x38] SET_CLIENT_EVENT_MODE(mode=3*)
  6: 0x0486 [0x29] REQ_SET_WAIT(priority=0x03, entity_id=LocalPlayer, tag_num=0x23)
  7: 0x048D [0x97] SAVE_SET_WIND_VALUES(wind_base=0x800B, wind_width=0x800D)
  8: 0x0492 [0x22] ENTITY_HIDE_FLAG(enabled=0x01)
  9: 0x0494 [0x4E] SET_ENTITY_HIDE_FLAG: Show Maat (ID: 17772594/0x010F3032)
 10: 0x049A [0x4A] LocalPlayer looks at Maat (ID: 17772594/0x010F3032)
 11: 0x04A3 [0x4A] Maat (ID: 17772594/0x010F3032) looks at LocalPlayer
 12: 0x04AC [0x6F] WAIT_FRAME_DELAY: Yield until WaitTime reaches zero
 13: 0x04AD [0x76] CHECK_ENTITY_RENDER_FLAGS: Wait until Maat (ID: 17772594/0x010F3032) Render.Flags0 and Render.Flags3 conditions are met
 14: 0x04B2 [0x45] LOAD_SCHEDULED_TASK: Load scheduler "w005" with entities [LocalPlayer, LocalPlayer], work=[53*, 0*]
 15: 0x04C3 [0x45] LOAD_SCHEDULED_TASK: Load scheduler "fdi1" with entities [LocalPlayer, LocalPlayer], work=[200*, 0*]
 16: 0x04D4 [0x55] WAIT_LOAD_SCHEDULER: Wait for scheduler "fdi1" with entities [LocalPlayer, LocalPlayer], work=200*
 17: 0x04E3 [0x1C] WAIT(200* ticks)
 18: 0x04E6 [0x27] REQ_SET(priority=0x03, entity_id=Maat (ID: 17772594/0x010F3032), tag_num=0x12)
 19: 0x04ED [0x55] WAIT_LOAD_SCHEDULER: Wait for scheduler "w005" with entities [LocalPlayer, LocalPlayer], work=53*
 20: 0x04FC [0x2B] Maat (ID: 17772594/0x010F3032) [10492*]:
    → "I have to admit, that was one fine display of fighting, <Player>."
 21: 0x0503 [0x23] WAIT_FOR_DIALOG_INTERACTION
 22: 0x0504 [0x45] LOAD_SCHEDULED_TASK: Load scheduler "w006" with entities [LocalPlayer, LocalPlayer], work=[53*, 0*]
 23: 0x0515 [0x29] REQ_SET_WAIT(priority=0x03, entity_id=Maat (ID: 17772594/0x010F3032), tag_num=0x13)
 24: 0x051C [0x55] WAIT_LOAD_SCHEDULER: Wait for scheduler "w006" with entities [LocalPlayer, LocalPlayer], work=53*
 25: 0x052B [0x5D] SET_MUSIC_VOLUME(volume=0*, fade_time=300*)
 26: 0x0530 [0x2B] Maat (ID: 17772594/0x010F3032) [10493*]:
    → "It's kind of hard to believe, but did you know that Jeuno was once a run-down, tiny little fishing village?"
 27: 0x0537 [0x23] WAIT_FOR_DIALOG_INTERACTION
 28: 0x0538 [0x2B] Maat (ID: 17772594/0x010F3032) [10494*]:
    → "Now look at her... There isn't a soul in Vana'diel who doesn't know her beauty. Let me tell you a story..."
 29: 0x053F [0x23] WAIT_FOR_DIALOG_INTERACTION
 30: 0x0540 [0x27] REQ_SET(priority=0x03, entity_id=Maat (ID: 17772594/0x010F3032), tag_num=0x12)
 31: 0x0547 [0x5C] MUSIC_CONTROL: Set Idle (Day) music to song 159*
 32: 0x054B [0x5C] MUSIC_CONTROL: Set Idle (Night) music to song 159*
 33: 0x054F [0x2B] Maat (ID: 17772594/0x010F3032) [10495*]:
    → "Long ago, there was a young man--captain of a fishing boat, he was--who lived a modest life in the peaceful harbors of Jeuno. It was often hard for him to make ends meet, but he and his fishing buddies had no complaints. They loved their tiny village..."
 34: 0x0556 [0x23] WAIT_FOR_DIALOG_INTERACTION
 35: 0x0557 [0x45] LOAD_SCHEDULED_TASK: Load scheduler "ovl1" with entities [Maat (ID: 17772593/0x010F3031), Maat (ID: 17772593/0x010F3031)], work=[200*, 0*]
 36: 0x0568 [0x45] LOAD_SCHEDULED_TASK: Load scheduler "w007" with entities [LocalPlayer, LocalPlayer], work=[53*, 0*]
 37: 0x0579 [0x2B] Maat (ID: 17772594/0x010F3032) [10496*]:
    → "However, one stormy night, fate came knocking at his door when he rescued two strange lads from the nearby waters. From that day on, the wheels of change began to turn."
 38: 0x0580 [0x23] WAIT_FOR_DIALOG_INTERACTION
 39: 0x0581 [0x2B] Maat (ID: 17772594/0x010F3032) [10497*]:
    → "There was something different--something special--about those two. They possessed a great deal of knowledge and leadership, and in just a short period of time, they transformed Jeuno from an insignificant dot on the map into a giant metropolis."
 40: 0x0588 [0x23] WAIT_FOR_DIALOG_INTERACTION
 41: 0x0589 [0x55] WAIT_LOAD_SCHEDULER: Wait for scheduler "w007" with entities [LocalPlayer, LocalPlayer], work=53*
 42: 0x0598 [0x45] LOAD_SCHEDULED_TASK: Load scheduler "ovl1" with entities [Maat (ID: 17772593/0x010F3031), Maat (ID: 17772593/0x010F3031)], work=[200*, 0*]
 43: 0x05A9 [0x45] LOAD_SCHEDULED_TASK: Load scheduler "w008" with entities [LocalPlayer, LocalPlayer], work=[53*, 0*]
 44: 0x05BA [0x1C] WAIT(60* ticks)
 45: 0x05BD [0x27] REQ_SET(priority=0x03, entity_id=Maat (ID: 17772594/0x010F3032), tag_num=0x13)
 46: 0x05C4 [0x2B] Maat (ID: 17772594/0x010F3032) [10498*]:
    → "At first, the captain welcomed these changes with open arms. However, later he began to ask himself if all this was truly for the good of Jeuno, or if the city was just being used as a piece of some bigger plan put into motion by the two mysterious men..."
 47: 0x05CB [0x23] WAIT_FOR_DIALOG_INTERACTION
 48: 0x05CC [0x55] WAIT_LOAD_SCHEDULER: Wait for scheduler "w008" with entities [LocalPlayer, LocalPlayer], work=53*
 49: 0x05DB [0x2A] GET_REQ_LEVEL(level=3, entity_id=Maat (ID: 17772594/0x010F3032))
 50: 0x05E1 [0x2B] Maat (ID: 17772594/0x010F3032) [10499*]:
    → "But by then it was too late... Jeuno and the people living within her walls had changed... There was no turning back."
 51: 0x05E8 [0x1C] WAIT(60* ticks)
 52: 0x05EB [0x27] REQ_SET(priority=0x03, entity_id=Maat (ID: 17772594/0x010F3032), tag_num=0x0E)
 53: 0x05F2 [0x1C] WAIT(90* ticks)
 54: 0x05F5 [0x4A] LocalPlayer looks at Maat (ID: 17772594/0x010F3032)
 55: 0x05FE [0x45] LOAD_SCHEDULED_TASK: Load scheduler "w009" with entities [LocalPlayer, LocalPlayer], work=[53*, 0*]
 56: 0x060F [0x2A] GET_REQ_LEVEL(level=3, entity_id=Maat (ID: 17772594/0x010F3032))
 57: 0x0615 [0x4A] LocalPlayer looks at Maat (ID: 17772594/0x010F3032)
 58: 0x061E [0x1C] WAIT(60* ticks)
 59: 0x0621 [0x23] WAIT_FOR_DIALOG_INTERACTION
 60: 0x0622 [0x2B] Maat (ID: 17772594/0x010F3032) [10500*]:
    → "And so the captain decided: While he still had life inside his bones, he would make it his mission to remain and watch over his hometown."
 61: 0x0629 [0x23] WAIT_FOR_DIALOG_INTERACTION
 62: 0x062A [0x55] WAIT_LOAD_SCHEDULER: Wait for scheduler "w009" with entities [LocalPlayer, LocalPlayer], work=53*
 63: 0x0639 [0x1C] WAIT(60* ticks)
 64: 0x063C [0x4E] SET_ENTITY_HIDE_FLAG: Show Monberaux (ID: 17772552/0x010F3008)
 65: 0x0642 [0x2B] Monberaux (ID: 17772552/0x010F3008) [10501*]:
    → "Good day, Maat."
 66: 0x0649 [0x1C] WAIT(60* ticks)
 67: 0x064C [0x27] REQ_SET(priority=0x03, entity_id=Monberaux (ID: 17772552/0x010F3008), tag_num=0x02)
 68: 0x0653 [0x4A] Maat (ID: 17772594/0x010F3032) looks at Monberaux (ID: 17772552/0x010F3008)
 69: 0x065C [0x1C] WAIT(20* ticks)
 70: 0x065F [0x45] LOAD_SCHEDULED_TASK: Load scheduler "w010" with entities [LocalPlayer, LocalPlayer], work=[53*, 0*]
 71: 0x0670 [0x55] WAIT_LOAD_SCHEDULER: Wait for scheduler "w010" with entities [LocalPlayer, LocalPlayer], work=53*
 72: 0x067F [0x6F] WAIT_FRAME_DELAY: Yield until WaitTime reaches zero
 73: 0x0680 [0x76] CHECK_ENTITY_RENDER_FLAGS: Wait until Maat (ID: 17772594/0x010F3032) Render.Flags0 and Render.Flags3 conditions are met
 74: 0x0685 [0x23] WAIT_FOR_DIALOG_INTERACTION
 75: 0x0686 [0x2B] Maat (ID: 17772594/0x010F3032) [10502*]:
    → "Oh, if it isn't Doctor Monberaux."
 76: 0x068D [0x23] WAIT_FOR_DIALOG_INTERACTION
 77: 0x068E [0x2B] Monberaux (ID: 17772552/0x010F3008) [10503*]:
    → "You are looking quite healthy these days, old chap."
 78: 0x0695 [0x23] WAIT_FOR_DIALOG_INTERACTION
 79: 0x0696 [0x27] REQ_SET(priority=0x03, entity_id=Maat (ID: 17772594/0x010F3032), tag_num=0x14)
 80: 0x069D [0x2B] Maat (ID: 17772594/0x010F3032) [10504*]:
    → "As healthy as a Hobgoblin, thanks to your treatment. You sure know how to keep your patients happy, heh heh heh."
 81: 0x06A4 [0x23] WAIT_FOR_DIALOG_INTERACTION
 82: 0x06A5 [0x2B] Monberaux (ID: 17772552/0x010F3008) [10505*]:
    → "Ha ha. I'm just doing my job."
 83: 0x06AC [0x23] WAIT_FOR_DIALOG_INTERACTION
 84: 0x06AD [0x45] LOAD_SCHEDULED_TASK: Load scheduler "w011" with entities [LocalPlayer, LocalPlayer], work=[53*, 0*]
 85: 0x06BE [0x55] WAIT_LOAD_SCHEDULER: Wait for scheduler "w011" with entities [LocalPlayer, LocalPlayer], work=53*
 86: 0x06CD [0x2B] Monberaux (ID: 17772552/0x010F3008) [10506*]:
    → "By the way..."
 87: 0x06D4 [0x23] WAIT_FOR_DIALOG_INTERACTION
 88: 0x06D5 [0x27] REQ_SET(priority=0x03, entity_id=Maat (ID: 17772594/0x010F3032), tag_num=0x15)
 89: 0x06DC [0x2B] Maat (ID: 17772594/0x010F3032) [10507*]:
    → "Hm?"
 90: 0x06E3 [0x23] WAIT_FOR_DIALOG_INTERACTION
 91: 0x06E4 [0x2B] Monberaux (ID: 17772552/0x010F3008) [10508*]:
    → "You mentioned this "captain" watching over Jeuno. What exactly was he making sure of?"
 92: 0x06EB [0x23] WAIT_FOR_DIALOG_INTERACTION
 93: 0x06EC [0x45] LOAD_SCHEDULED_TASK: Load scheduler "w012" with entities [LocalPlayer, LocalPlayer], work=[53*, 0*]
 94: 0x06FD [0x55] WAIT_LOAD_SCHEDULER: Wait for scheduler "w012" with entities [LocalPlayer, LocalPlayer], work=53*
 95: 0x070C [0x27] REQ_SET(priority=0x03, entity_id=Maat (ID: 17772594/0x010F3032), tag_num=0x12)
 96: 0x0713 [0x2B] Maat (ID: 17772594/0x010F3032) [10509*]:
    → "Hmmm... Well, he was probably just making sure that everybody was happy."
 97: 0x071A [0x23] WAIT_FOR_DIALOG_INTERACTION
 98: 0x071B [0x2B] Monberaux (ID: 17772552/0x010F3008) [10510*]:
    → "You know, I think you are probably right."
 99: 0x0722 [0x23] WAIT_FOR_DIALOG_INTERACTION
100: 0x0723 [0x27] REQ_SET(priority=0x03, entity_id=Maat (ID: 17772594/0x010F3032), tag_num=0x13)
101: 0x072A [0x2B] Maat (ID: 17772594/0x010F3032) [10511*]:
    → "There are many things out there that threaten the happiness of all Jeunoans, and he couldn't stand to sit back and watch that happiness be snatched away from them."
102: 0x0731 [0x23] WAIT_FOR_DIALOG_INTERACTION
103: 0x0732 [0x1C] WAIT(60* ticks)
104: 0x0735 [0x2B] Monberaux (ID: 17772552/0x010F3008) [10512*]:
    → "Maat..."
105: 0x073C [0x23] WAIT_FOR_DIALOG_INTERACTION
106: 0x073D [0x45] LOAD_SCHEDULED_TASK: Load scheduler "w010" with entities [LocalPlayer, LocalPlayer], work=[53*, 0*]
107: 0x074E [0x55] WAIT_LOAD_SCHEDULER: Wait for scheduler "w010" with entities [LocalPlayer, LocalPlayer], work=53*
108: 0x075D [0x1C] WAIT(60* ticks)
109: 0x0760 [0x2B] Monberaux (ID: 17772552/0x010F3008) [10513*]:
    → "Ahem. Ah, will you look at the time. I must be getting back to the infirmary. Take care, my friend."
110: 0x0767 [0x23] WAIT_FOR_DIALOG_INTERACTION
111: 0x0768 [0x2B] Maat (ID: 17772594/0x010F3032) [10514*]:
    → "Don't you worry, doctor. I always do. Oh, and you keep working on Wolfgang. Once he sees what's really going on in this place, he'll start to change. I know it..."
112: 0x076F [0x23] WAIT_FOR_DIALOG_INTERACTION
113: 0x0770 [0x2B] Monberaux (ID: 17772552/0x010F3008) [10515*]:
    → "As do I..."
114: 0x0777 [0x23] WAIT_FOR_DIALOG_INTERACTION
115: 0x0778 [0x27] REQ_SET(priority=0x03, entity_id=Monberaux (ID: 17772552/0x010F3008), tag_num=0x03)
116: 0x077F [0x1C] WAIT(240* ticks)
117: 0x0782 [0x2B] Maat (ID: 17772594/0x010F3032) [10516*]:
    → "Now, where was I..."
118: 0x0789 [0x1C] WAIT(15* ticks)
119: 0x078C [0x4A] Maat (ID: 17772594/0x010F3032) looks at LocalPlayer
120: 0x0795 [0x1C] WAIT(15* ticks)
121: 0x0798 [0x45] LOAD_SCHEDULED_TASK: Load scheduler "w013" with entities [LocalPlayer, LocalPlayer], work=[53*, 0*]
122: 0x07A9 [0x55] WAIT_LOAD_SCHEDULER: Wait for scheduler "w013" with entities [LocalPlayer, LocalPlayer], work=53*
123: 0x07B8 [0x6F] WAIT_FRAME_DELAY: Yield until WaitTime reaches zero
124: 0x07B9 [0x76] CHECK_ENTITY_RENDER_FLAGS: Wait until Maat (ID: 17772594/0x010F3032) Render.Flags0 and Render.Flags3 conditions are met
125: 0x07BE [0x23] WAIT_FOR_DIALOG_INTERACTION
126: 0x07BF [0x27] REQ_SET(priority=0x03, entity_id=Maat (ID: 17772594/0x010F3032), tag_num=0x10)
127: 0x07C6 [0x2B] Maat (ID: 17772594/0x010F3032) [10517*]:
    → "As much as I long to see it, it's likely I won't be around when the truth finally comes out. But young adventurers like you will. That's why I want you to be all that you can be."
128: 0x07CD [0x23] WAIT_FOR_DIALOG_INTERACTION
129: 0x07CE [0x2B] Maat (ID: 17772594/0x010F3032) [10518*]:
    → "Do not forget the hardships you have endured to make it this far, and maybe one day you, too, will find something worth giving your life to protect."
130: 0x07D5 [0x23] WAIT_FOR_DIALOG_INTERACTION
131: 0x07D6 [0x29] REQ_SET_WAIT(priority=0x03, entity_id=Maat (ID: 17772594/0x010F3032), tag_num=0x11)
132: 0x07DD [0x45] LOAD_SCHEDULED_TASK: Load scheduler "ovl1" with entities [Maat (ID: 17772593/0x010F3031), Maat (ID: 17772593/0x010F3031)], work=[200*, 0*]
133: 0x07EE [0x45] LOAD_SCHEDULED_TASK: Load scheduler "w014" with entities [LocalPlayer, LocalPlayer], work=[53*, 0*]
134: 0x07FF [0x1C] WAIT(20* ticks)
135: 0x0802 [0x2B] Maat (ID: 17772594/0x010F3032) [10519*]:
    → "They say that where there is a beginning, there is an end. However, I believe that some things, like memories, don't have to end. That is where you young folk come in..."
136: 0x0809 [0x23] WAIT_FOR_DIALOG_INTERACTION
137: 0x080A [0x2B] Maat (ID: 17772594/0x010F3032) [10520*]:
    → "And that is all this simple old man can ask for..."
138: 0x0811 [0x23] WAIT_FOR_DIALOG_INTERACTION
139: 0x0812 [0x55] WAIT_LOAD_SCHEDULER: Wait for scheduler "w014" with entities [LocalPlayer, LocalPlayer], work=53*
140: 0x0821 [0x45] LOAD_SCHEDULED_TASK: Load scheduler "qstc" with entities [LocalPlayer, LocalPlayer], work=[201*, 0*]
141: 0x0832 [0x1A] CALL_SUBROUTINE(address=0x0DF6)
142: 0x0835 [0x5C] MUSIC_CONTROL: Set Idle (Day) music to song 117*
143: 0x0839 [0x5C] MUSIC_CONTROL: Set Idle (Night) music to song 117*
144: 0x083D [0x21] END_EVENT
145: 0x083E [0x00] END_REQSTACK()
```

### Event 78

#### Metadata

| Field        | Value    |
|--------------|----------|
| Entrypoint   | 0x083F   |
| Data Size    | 39 bytes |
| Instructions | 10       |

```
      00 01 02 03 04 05 06 07  08 09 0A 0B 0C 0D 0E 0F
      -- -- -- -- -- -- -- --  -- -- -- -- -- -- -- --
0830:                                               79                 y
0840: 00 F8 FF FF 7F F0 FF FF  7F 1A 2C 0E 2B 31 30 0F  ..........,.+10.
0850: 01 56 80 23 2B 31 30 0F  01 57 80 23 2B 31 30 0F  .V.#+10..W.#+10.
0860: 01 58 80 23 21 00                                 .X.#!.          
```

#### Opcodes

```
  0: 0x083F [0x79] EventEntity looks at LocalPlayer (Basic look)
  1: 0x0849 [0x1A] CALL_SUBROUTINE(address=0x0E2C)
  2: 0x084C [0x2B] Maat (ID: 17772593/0x010F3031) [10522*]:
    → "Now that you've reached the stars, there's nothing left that I can do for you. Unless you'd like to go another round with a frail old man. If you're up to it, that is..."
  3: 0x0853 [0x23] WAIT_FOR_DIALOG_INTERACTION
  4: 0x0854 [0x2B] Maat (ID: 17772593/0x010F3031) [10523*]:
    → "When you're ready, I'll be waiting for you [ /at Horlais Peak/at Balga's Dais/at Balga's Dais/at Horlais Peak/in the Waughroon Shrine/in the Waughroon Shrine/at the Qu'Bia Arena/at the Qu'Bia Arena/in the Waughroon Shrine/at the Qu'Bia Arena/at Horlais Peak/in the Chamber of Oracles/in the Chamber of Oracles/in the Chamber of Oracles/at Balga's Dais]. Oh, and don't forget to bring along $1."
  5: 0x085B [0x23] WAIT_FOR_DIALOG_INTERACTION
  6: 0x085C [0x2B] Maat (ID: 17772593/0x010F3031) [10524*]:
    → "But just because I'm old doesn't mean I'm not a busy man. I don't need any half-hearted whippersnappers banging on my door, just to run off with their tails between their legs. If you want some thrill in your life, you had better be ready for the consequences! Heh heh heh!"
  7: 0x0863 [0x23] WAIT_FOR_DIALOG_INTERACTION
  8: 0x0864 [0x21] END_EVENT
  9: 0x0865 [0x00] END_REQSTACK()
```

### Event 94

#### Metadata

| Field        | Value    |
|--------------|----------|
| Entrypoint   | 0x0866   |
| Data Size    | 18 bytes |
| Instructions | 6        |

```
      00 01 02 03 04 05 06 07  08 09 0A 0B 0C 0D 0E 0F
      -- -- -- -- -- -- -- --  -- -- -- -- -- -- -- --
0860:                   2B 31  30 0F 01 59 80 23 2B 31        +10..Y.#+1
0870: 30 0F 01 5A 80 23 21 00                           0..Z.#!.        
```

#### Opcodes

```
  0: 0x0866 [0x2B] Maat (ID: 17772593/0x010F3031) [10525*]:
    → "Heh heh heh. I see, I see... That just might work, kupo..."
  1: 0x086D [0x23] WAIT_FOR_DIALOG_INTERACTION
  2: 0x086E [0x2B] Maat (ID: 17772593/0x010F3031) [10526*]:
    → "Ahem! Too much time around these crazy moogles and I just might turn into one!"
  3: 0x0875 [0x23] WAIT_FOR_DIALOG_INTERACTION
  4: 0x0876 [0x21] END_EVENT
  5: 0x0877 [0x00] END_REQSTACK()
```

### Event 74

#### Metadata

| Field        | Value      |
|--------------|------------|
| Entrypoint   | 0x0878     |
| Data Size    | 1706 bytes |
| Instructions | 195        |

```
      00 01 02 03 04 05 06 07  08 09 0A 0B 0C 0D 0E 0F
      -- -- -- -- -- -- -- --  -- -- -- -- -- -- -- --
0870:                          20 01 42 46 01 45 0A 80           .BF.E..
0880: F0 FF FF 7F F0 FF FF 7F  66 64 6F 31 0B 80 55 0A  ........fdo1..U.
0890: 80 F0 FF FF 7F F0 FF FF  7F 66 64 6F 31 38 0C 80  .........fdo18..
08A0: 29 03 F0 FF FF 7F 23 97  0B 80 0D 80 06 04 00 06  ).....#.........
08B0: 05 00 02 87 7F 0C 80 80  C0 08 05 04 00 01 F8 08  ................
08C0: 02 87 7F 5B 80 80 CE 08  05 04 00 01 F8 08 02 87  ...[............
08D0: 7F 5C 80 80 DC 08 05 05  00 01 F8 08 02 87 7F 5D  .\.............]
08E0: 80 80 EA 08 05 05 00 01  F8 08 02 87 7F 5E 80 80  .............^..
08F0: F8 08 05 04 00 01 F8 08  22 01 80 32 30 0F 01 4E  ........"..20..N
0900: 00 32 30 0F 01 92 01 32  30 0F 01 92 01 F0 FF FF  .20....20.......
0910: 7F 92 01 75 30 0F 01 27  03 75 30 0F 01 17 6C 75  ...u0..'.u0...lu
0920: 30 0F 01 0B 80 0B 80 5C  00 2B 80 5C 01 2B 80 4A  0......\.+.\.+.J
0930: F0 FF FF 7F 32 30 0F 01  4A 32 30 0F 01 F0 FF FF  ....20..J20.....
0940: 7F 6F 76 32 30 0F 01 7B  32 30 0F 01 45 5F 80 F0  .ov20..{20..E_..
0950: FF FF 7F F0 FF FF 7F 7A  30 30 30 0B 80 27 03 32  .......z000..'.2
0960: 30 0F 01 12 45 0A 80 F0  FF FF 7F F0 FF FF 7F 66  0...E..........f
0970: 64 69 31 0B 80 55 0A 80  F0 FF FF 7F F0 FF FF 7F  di1..U..........
0980: 66 64 69 31 1C 14 80 2B  32 30 0F 01 60 80 23 2A  fdi1...+20..`.#*
0990: 03 32 30 0F 01 52 5F 80  F0 FF FF 7F F0 FF FF 7F  .20..R_.........
09A0: 7A 30 30 30 45 0A 80 75  30 0F 01 75 30 0F 01 6F  z000E..u0..u0..o
09B0: 76 6C 31 0B 80 02 05 00  0D 80 00 D1 09 45 5F 80  vl1..........E_.
09C0: F0 FF FF 7F F0 FF FF 7F  7A 30 30 62 0B 80 01 E2  ........z00b....
09D0: 09 45 5F 80 F0 FF FF 7F  F0 FF FF 7F 7A 30 30 31  .E_.........z001
09E0: 0B 80 2B 32 30 0F 01 61  80 23 02 05 00 0D 80 00  ..+20..a.#......
09F0: 04 0A 55 5F 80 F0 FF FF  7F F0 FF FF 7F 7A 30 30  ..U_.........z00
0A00: 62 01 13 0A 55 5F 80 F0  FF FF 7F F0 FF FF 7F 7A  b...U_.........z
0A10: 30 30 31 27 03 32 30 0F  01 13 2B 32 30 0F 01 62  001'.20...+20..b
0A20: 80 23 7B 32 30 0F 01 2A  03 32 30 0F 01 4B 32 30  .#{20..*.20..K20
0A30: 0F 01 63 80 2B 32 30 0F  01 64 80 23 6F 76 32 30  ..c.+20..d.#ov20
0A40: 0F 01 27 03 32 30 0F 01  14 1C 65 80 45 5F 80 F0  ..'.20....e.E_..
0A50: FF FF 7F F0 FF FF 7F 7A  30 30 32 0B 80 55 5F 80  .......z002..U_.
0A60: F0 FF FF 7F F0 FF FF 7F  7A 30 30 32 2B 32 30 0F  ........z002+20.
0A70: 01 66 80 23 29 03 32 30  0F 01 15 4A 32 30 0F 01  .f.#).20...J20..
0A80: F0 FF FF 7F 1C 21 80 45  5F 80 F0 FF FF 7F F0 FF  .....!.E_.......
0A90: FF 7F 7A 30 30 33 0B 80  2B 32 30 0F 01 67 80 23  ..z003..+20..g.#
0AA0: 55 5F 80 F0 FF FF 7F F0  FF FF 7F 7A 30 30 33 02  U_.........z003.
0AB0: 04 00 0D 80 00 CB 0A 45  5F 80 F0 FF FF 7F F0 FF  .......E_.......
0AC0: FF 7F 7A 30 30 61 0B 80  01 DC 0A 45 5F 80 F0 FF  ..z00a.....E_...
0AD0: FF 7F F0 FF FF 7F 7A 30  30 34 0B 80 27 03 32 30  ......z004..'.20
0AE0: 0F 01 10 2B 32 30 0F 01  68 80 23 03 02 10 69 80  ...+20..h.#...i.
0AF0: 03 03 10 6A 80 2B 32 30  0F 01 6B 80 23 02 04 00  ...j.+20..k.#...
0B00: 0D 80 00 17 0B 55 5F 80  F0 FF FF 7F F0 FF FF 7F  .....U_.........
0B10: 7A 30 30 61 01 26 0B 55  5F 80 F0 FF FF 7F F0 FF  z00a.&.U_.......
0B20: FF 7F 7A 30 30 34 6E F0  FF FF 7F 5D 80 99 F0 FF  ..z004n....]....
0B30: FF 7F 1C 21 80 29 03 32  30 0F 01 11 2B 32 30 0F  ...!.).20...+20.
0B40: 01 6C 80 23 2B 32 30 0F  01 6D 80 23 6E F0 FF FF  .l.#+20..m.#n...
0B50: 7F 6E 80 99 F0 FF FF 7F  1C 14 80 81 00 32 30 0F  .n...........20.
0B60: 01 7B 32 30 0F 01 45 5F  80 F0 FF FF 7F F0 FF FF  .{20..E_........
0B70: 7F 7A 30 30 35 0B 80 55  5F 80 F0 FF FF 7F F0 FF  .z005..U_.......
0B80: FF 7F 7A 30 30 35 2B 32  30 0F 01 6F 80 23 45 5F  ..z005+20..o.#E_
0B90: 80 F0 FF FF 7F F0 FF FF  7F 7A 30 30 36 0B 80 55  .........z006..U
0BA0: 5F 80 F0 FF FF 7F F0 FF  FF 7F 7A 30 30 36 2B 32  _.........z006+2
0BB0: 30 0F 01 70 80 23 45 5F  80 F0 FF FF 7F F0 FF FF  0..p.#E_........
0BC0: 7F 7A 30 30 37 0B 80 55  5F 80 F0 FF FF 7F F0 FF  .z007..U_.......
0BD0: FF 7F 7A 30 30 37 2B 32  30 0F 01 71 80 23 5D 0B  ..z007+20..q.#].
0BE0: 80 0B 80 45 72 80 F0 FF  FF 7F F0 FF FF 7F 77 68  ...Er.........wh
0BF0: 6F 33 0B 80 55 72 80 F0  FF FF 7F F0 FF FF 7F 77  o3..Ur.........w
0C00: 68 6F 33 45 72 80 F0 FF  FF 7F F0 FF FF 7F 70 61  ho3Er.........pa
0C10: 73 68 0B 80 27 03 F0 FF  FF 7F 85 1C 65 80 79 00  sh..'.......e.y.
0C20: 32 30 0F 01 F0 FF FF 7F  81 01 32 30 0F 01 1C 73  20........20...s
0C30: 80 45 5F 80 F0 FF FF 7F  F0 FF FF 7F 7A 30 30 38  .E_.........z008
0C40: 0B 80 5D 74 80 73 80 45  54 80 F0 FF FF 7F F0 FF  ..]t.s.ET.......
0C50: FF 7F 77 68 69 31 0B 80  55 54 80 F0 FF FF 7F F0  ..whi1..UT......
0C60: FF FF 7F 77 68 69 31 1C  1C 80 2B 32 30 0F 01 75  ...whi1...+20..u
0C70: 80 23 55 5F 80 F0 FF FF  7F F0 FF FF 7F 7A 30 30  .#U_.........z00
0C80: 38 27 03 F0 FF FF 7F 86  1C 76 80 45 5F 80 F0 FF  8'.......v.E_...
0C90: FF 7F F0 FF FF 7F 7A 30  30 39 0B 80 55 5F 80 F0  ......z009..U_..
0CA0: FF FF 7F F0 FF FF 7F 7A  30 30 39 2B 32 30 0F 01  .......z009+20..
0CB0: 77 80 23 27 03 32 30 0F  01 0F 1C 14 80 79 00 32  w.#'.20......y.2
0CC0: 30 0F 01 75 30 0F 01 45  0A 80 F0 FF FF 7F F0 FF  0..u0..E........
0CD0: FF 7F 6F 76 6C 31 0B 80  45 5F 80 F0 FF FF 7F F0  ..ovl1..E_......
0CE0: FF FF 7F 7A 30 31 30 0B  80 2A 03 32 30 0F 01 27  ...z010..*.20..'
0CF0: 03 32 30 0F 01 12 2B 32  30 0F 01 78 80 23 29 03  .20...+20..x.#).
0D00: 32 30 0F 01 13 55 5F 80  F0 FF FF 7F F0 FF FF 7F  20...U_.........
0D10: 7A 30 31 30 2B 32 30 0F  01 79 80 4A 32 30 0F 01  z010+20..y.J20..
0D20: F0 FF FF 7F 23 02 05 00  0D 80 00 50 0D 45 5F 80  ....#......P.E_.
0D30: F0 FF FF 7F F0 FF FF 7F  7A 30 30 63 0B 80 55 5F  ........z00c..U_
0D40: 80 F0 FF FF 7F F0 FF FF  7F 7A 30 30 63 01 70 0D  .........z00c.p.
0D50: 45 5F 80 F0 FF FF 7F F0  FF FF 7F 7A 30 31 31 0B  E_.........z011.
0D60: 80 55 5F 80 F0 FF FF 7F  F0 FF FF 7F 7A 30 31 31  .U_.........z011
0D70: 27 03 32 30 0F 01 18 2B  32 30 0F 01 7A 80 23 2B  '.20...+20..z.#+
0D80: 32 30 0F 01 7B 80 23 2A  03 32 30 0F 01 6E F0 FF  20..{.#*.20..n..
0D90: FF 7F 6E 80 99 F0 FF FF  7F 1C 14 80 2B 32 30 0F  ..n.........+20.
0DA0: 01 7C 80 23 45 5F 80 F0  FF FF 7F F0 FF FF 7F 7A  .|.#E_.........z
0DB0: 30 31 32 0B 80 1C 3C 80  2B 32 30 0F 01 7D 80 23  012...<.+20..}.#
0DC0: 1A F6 0D 5C 00 55 80 5C  01 55 80 45 54 80 F0 FF  ...\.U.\.U.ET...
0DD0: FF 7F F0 FF FF 7F 71 73  74 63 0B 80 6C 75 30 0F  ......qstc..lu0.
0DE0: 01 74 80 0D 80 52 5F 80  F0 FF FF 7F F0 FF FF 7F  .t...R_.........
0DF0: 7A 30 31 32 21 00 45 0A  80 F0 FF FF 7F F0 FF FF  z012!.E.........
0E00: 7F 66 64 6F 32 0B 80 55  0A 80 F0 FF FF 7F F0 FF  .fdo2..U........
0E10: FF 7F 66 64 6F 32 22 01  46 00 45 0A 80 F0 FF FF  ..fdo2".F.E.....
0E20: 7F F0 FF FF 7F 66 64 69  32 0B 80 1B 02 02 10 0D  .....fdi2.......
0E30: 80 80 3C 0E 03 03 10 7E  80 01 21 0F 02 02 10 7F  ..<....~..!.....
0E40: 80 80 4C 0E 03 03 10 80  80 01 21 0F 02 02 10 0C  ..L.......!.....
0E50: 80 80 5C 0E 03 03 10 81  80 01 21 0F 02 02 10 5B  ..\.......!....[
0E60: 80 80 6C 0E 03 03 10 82  80 01 21 0F 02 02 10 5C  ..l.......!....\
0E70: 80 80 7C 0E 03 03 10 83  80 01 21 0F 02 02 10 5D  ..|.......!....]
0E80: 80 80 8C 0E 03 03 10 84  80 01 21 0F 02 02 10 6E  ..........!....n
0E90: 80 80 9C 0E 03 03 10 85  80 01 21 0F 02 02 10 5E  ..........!....^
0EA0: 80 80 AC 0E 03 03 10 86  80 01 21 0F 02 02 10 87  ..........!.....
0EB0: 80 80 BC 0E 03 03 10 88  80 01 21 0F 02 02 10 65  ..........!....e
0EC0: 80 80 CC 0E 03 03 10 89  80 01 21 0F 02 02 10 8A  ..........!.....
0ED0: 80 80 DC 0E 03 03 10 8B  80 01 21 0F 02 02 10 27  ..........!....'
0EE0: 80 80 EC 0E 03 03 10 8C  80 01 21 0F 02 02 10 28  ..........!....(
0EF0: 80 80 FC 0E 03 03 10 8D  80 01 21 0F 02 02 10 29  ..........!....)
0F00: 80 80 0C 0F 03 03 10 8E  80 01 21 0F 02 02 10 21  ..........!....!
0F10: 80 80 1C 0F 03 03 10 8F  80 01 21 0F 03 03 10 7E  ..........!....~
0F20: 80 1B                                             ..              
```

#### Opcodes

```
  0: 0x0878 [0x20] SET_CLI_EVENT_UC_FLAG: Lock player control
  1: 0x087A [0x42] SET_CLI_EVENT_CANCEL_DATA()
  2: 0x087B [0x46] CAMERA_CONTROL: Disable user control
  3: 0x087D [0x45] LOAD_SCHEDULED_TASK: Load scheduler "fdo1" with entities [LocalPlayer, LocalPlayer], work=[200*, 0*]
  4: 0x088E [0x55] WAIT_LOAD_SCHEDULER: Wait for scheduler "fdo1" with entities [LocalPlayer, LocalPlayer], work=200*
  5: 0x089D [0x38] SET_CLIENT_EVENT_MODE(mode=3*)
  6: 0x08A0 [0x29] REQ_SET_WAIT(priority=0x03, entity_id=LocalPlayer, tag_num=0x23)
  7: 0x08A7 [0x97] SAVE_SET_WIND_VALUES(wind_base=0x800B, wind_width=0x800D)
  8: 0x08AC [0x06] ExtData[1]->WorkLocal[4] = 0
  9: 0x08AF [0x06] ExtData[1]->WorkLocal[5] = 0
 10: 0x08B2 [0x02] IF !(LocalPlayer->Race == 3*) GOTO 0x08C0
 11: 0x08BA [0x05] ExtData[1]->WorkLocal[4] = 1
 12: 0x08BD [0x01] GOTO 0x08F8
 13: 0x08C0 [0x02] IF !(LocalPlayer->Race == 4*) GOTO 0x08CE
 14: 0x08C8 [0x05] ExtData[1]->WorkLocal[4] = 1
 15: 0x08CB [0x01] GOTO 0x08F8
 16: 0x08CE [0x02] IF !(LocalPlayer->Race == 5*) GOTO 0x08DC
 17: 0x08D6 [0x05] ExtData[1]->WorkLocal[5] = 1
 18: 0x08D9 [0x01] GOTO 0x08F8
 19: 0x08DC [0x02] IF !(LocalPlayer->Race == 6*) GOTO 0x08EA
 20: 0x08E4 [0x05] ExtData[1]->WorkLocal[5] = 1
 21: 0x08E7 [0x01] GOTO 0x08F8
 22: 0x08EA [0x02] IF !(LocalPlayer->Race == 8*) GOTO 0x08F8
 23: 0x08F2 [0x05] ExtData[1]->WorkLocal[4] = 1
 24: 0x08F5 [0x01] GOTO 0x08F8

SUBROUTINE_08F8:
 25: 0x08F8 [0x22] ENTITY_HIDE_FLAG(enabled=0x01)
 26: 0x08FA [0x80] LOAD_WAIT(entity=Maat (ID: 17772594/0x010F3032))
 27: 0x08FF [0x4E] SET_ENTITY_HIDE_FLAG: Show Maat (ID: 17772594/0x010F3032)
 28: 0x0905 [0x92] Maat (ID: 17772594/0x010F3032)->Render.Flags3 ^= 0x01
 29: 0x090B [0x92] LocalPlayer->Render.Flags3 ^= 0x01
 30: 0x0911 [0x92] Nomad Moogle (ID: 17772661/0x010F3075)->Render.Flags3 ^= 0x01
 31: 0x0917 [0x27] REQ_SET(priority=0x03, entity_id=Nomad Moogle (ID: 17772661/0x010F3075), tag_num=0x17)
 32: 0x091E [0x6C] FADE_ENTITY_COLOR(entity_id=Nomad Moogle (ID: 17772661/0x010F3075), end_alpha=0*, fade_time=0*)
 33: 0x0927 [0x5C] MUSIC_CONTROL: Set Idle (Day) music to song 122*
 34: 0x092B [0x5C] MUSIC_CONTROL: Set Idle (Night) music to song 122*
 35: 0x092F [0x4A] LocalPlayer looks at Maat (ID: 17772594/0x010F3032)
 36: 0x0938 [0x4A] Maat (ID: 17772594/0x010F3032) looks at LocalPlayer
 37: 0x0941 [0x6F] WAIT_FRAME_DELAY: Yield until WaitTime reaches zero
 38: 0x0942 [0x76] CHECK_ENTITY_RENDER_FLAGS: Wait until Maat (ID: 17772594/0x010F3032) Render.Flags0 and Render.Flags3 conditions are met
 39: 0x0947 [0x7B] Maat (ID: 17772594/0x010F3032) stops talking
 40: 0x094C [0x45] LOAD_SCHEDULED_TASK: Load scheduler "z000" with entities [LocalPlayer, LocalPlayer], work=[83*, 0*]
 41: 0x095D [0x27] REQ_SET(priority=0x03, entity_id=Maat (ID: 17772594/0x010F3032), tag_num=0x12)
 42: 0x0964 [0x45] LOAD_SCHEDULED_TASK: Load scheduler "fdi1" with entities [LocalPlayer, LocalPlayer], work=[200*, 0*]
 43: 0x0975 [0x55] WAIT_LOAD_SCHEDULER: Wait for scheduler "fdi1" with entities [LocalPlayer, LocalPlayer], work=200*
 44: 0x0984 [0x1C] WAIT(60* ticks)
 45: 0x0987 [0x2B] Maat (ID: 17772594/0x010F3032) [11034*]:
    → "... How many rounds have we gone now, <Player>...?"
 46: 0x098E [0x23] WAIT_FOR_DIALOG_INTERACTION
 47: 0x098F [0x2A] GET_REQ_LEVEL(level=3, entity_id=Maat (ID: 17772594/0x010F3032))
 48: 0x0995 [0x52] END_LOAD_SCHEDULER: End scheduler "z000" with entities [LocalPlayer, LocalPlayer], work=83*
 49: 0x09A4 [0x45] LOAD_SCHEDULED_TASK: Load scheduler "ovl1" with entities [Nomad Moogle (ID: 17772661/0x010F3075), Nomad Moogle (ID: 17772661/0x010F3075)], work=[200*, 0*]
 50: 0x09B5 [0x02] IF !(ExtData[1]->WorkLocal[5] == 1*) GOTO 0x09D1
 51: 0x09BD [0x45] LOAD_SCHEDULED_TASK: Load scheduler "z00b" with entities [LocalPlayer, LocalPlayer], work=[83*, 0*]
 52: 0x09CE [0x01] GOTO 0x09E2
 53: 0x09D1 [0x45] LOAD_SCHEDULED_TASK: Load scheduler "z001" with entities [LocalPlayer, LocalPlayer], work=[83*, 0*]

SUBROUTINE_09E2:
 54: 0x09E2 [0x2B] Maat (ID: 17772594/0x010F3032) [11035*]:
    → "I remember every single blow, every tiny shift of your stance. I can't tell you how much I look forward to our little matches, heh heh heh."
 55: 0x09E9 [0x23] WAIT_FOR_DIALOG_INTERACTION
 56: 0x09EA [0x02] IF !(ExtData[1]->WorkLocal[5] == 1*) GOTO 0x0A04
 57: 0x09F2 [0x55] WAIT_LOAD_SCHEDULER: Wait for scheduler "z00b" with entities [LocalPlayer, LocalPlayer], work=83*
 58: 0x0A01 [0x01] GOTO 0x0A13
 59: 0x0A04 [0x55] WAIT_LOAD_SCHEDULER: Wait for scheduler "z001" with entities [LocalPlayer, LocalPlayer], work=83*

SUBROUTINE_0A13:
 60: 0x0A13 [0x27] REQ_SET(priority=0x03, entity_id=Maat (ID: 17772594/0x010F3032), tag_num=0x13)
 61: 0x0A1A [0x2B] Maat (ID: 17772594/0x010F3032) [11036*]:
    → "But you know, I never imagined anyone would conquer all the challenges I set before [him/her]. Goes to show that even old Maat can be taught a thing or two!"
 62: 0x0A21 [0x23] WAIT_FOR_DIALOG_INTERACTION
 63: 0x0A22 [0x7B] Maat (ID: 17772594/0x010F3032) stops talking
 64: 0x0A27 [0x2A] GET_REQ_LEVEL(level=3, entity_id=Maat (ID: 17772594/0x010F3032))
 65: 0x0A2D [0x4B] UPDATE_ENTITY_YAW(entity=Maat (ID: 17772594/0x010F3032), yaw=11.6°*)
 66: 0x0A34 [0x2B] Maat (ID: 17772594/0x010F3032) [11037*]:
    → "Now, I can't let such a great hero go home empty-handed. I've decided to grant you any one wish you ask of me. Don't get too exotic, though. I'm just an old man, not some Far Eastern genie!"
 67: 0x0A3B [0x23] WAIT_FOR_DIALOG_INTERACTION
 68: 0x0A3C [0x6F] WAIT_FRAME_DELAY: Yield until WaitTime reaches zero
 69: 0x0A3D [0x76] CHECK_ENTITY_RENDER_FLAGS: Wait until Maat (ID: 17772594/0x010F3032) Render.Flags0 and Render.Flags3 conditions are met
 70: 0x0A42 [0x27] REQ_SET(priority=0x03, entity_id=Maat (ID: 17772594/0x010F3032), tag_num=0x14)
 71: 0x0A49 [0x1C] WAIT(10* ticks)
 72: 0x0A4C [0x45] LOAD_SCHEDULED_TASK: Load scheduler "z002" with entities [LocalPlayer, LocalPlayer], work=[83*, 0*]
 73: 0x0A5D [0x55] WAIT_LOAD_SCHEDULER: Wait for scheduler "z002" with entities [LocalPlayer, LocalPlayer], work=83*
 74: 0x0A6C [0x2B] Maat (ID: 17772594/0x010F3032) [11038*]:
    → "Come on, then. No need to be shy. What's it to be?"
 75: 0x0A73 [0x23] WAIT_FOR_DIALOG_INTERACTION
 76: 0x0A74 [0x29] REQ_SET_WAIT(priority=0x03, entity_id=Maat (ID: 17772594/0x010F3032), tag_num=0x15)
 77: 0x0A7B [0x4A] Maat (ID: 17772594/0x010F3032) looks at LocalPlayer
 78: 0x0A84 [0x1C] WAIT(15* ticks)
 79: 0x0A87 [0x45] LOAD_SCHEDULED_TASK: Load scheduler "z003" with entities [LocalPlayer, LocalPlayer], work=[83*, 0*]
 80: 0x0A98 [0x2B] Maat (ID: 17772594/0x010F3032) [11039*]:
    → "...! Take off my hat!? Are you sure that's want you want? Not much exciting going on under an old man's cap!"
 81: 0x0A9F [0x23] WAIT_FOR_DIALOG_INTERACTION
 82: 0x0AA0 [0x55] WAIT_LOAD_SCHEDULER: Wait for scheduler "z003" with entities [LocalPlayer, LocalPlayer], work=83*
 83: 0x0AAF [0x02] IF !(ExtData[1]->WorkLocal[4] == 1*) GOTO 0x0ACB
 84: 0x0AB7 [0x45] LOAD_SCHEDULED_TASK: Load scheduler "z00a" with entities [LocalPlayer, LocalPlayer], work=[83*, 0*]
 85: 0x0AC8 [0x01] GOTO 0x0ADC
 86: 0x0ACB [0x45] LOAD_SCHEDULED_TASK: Load scheduler "z004" with entities [LocalPlayer, LocalPlayer], work=[83*, 0*]

SUBROUTINE_0ADC:
 87: 0x0ADC [0x27] REQ_SET(priority=0x03, entity_id=Maat (ID: 17772594/0x010F3032), tag_num=0x10)
 88: 0x0AE3 [0x2B] Maat (ID: 17772594/0x010F3032) [11040*]:
    → "It's not too late to change your mind, you know."
 89: 0x0AEA [0x23] WAIT_FOR_DIALOG_INTERACTION
 90: 0x0AEB [0x03] Work_Zone[2] = 17440*
 91: 0x0AF0 [0x03] Work_Zone[3] = 16555*
 92: 0x0AF5 [0x2B] Maat (ID: 17772594/0x010F3032) [11041*]:
    → "There must be something else you want. A lifetime supply of Goblin chocolate? Afternoon tea with Princess Claidie? $0, perhaps? Or maybe $1?"
 93: 0x0AFC [0x23] WAIT_FOR_DIALOG_INTERACTION
 94: 0x0AFD [0x02] IF !(ExtData[1]->WorkLocal[4] == 1*) GOTO 0x0B17
 95: 0x0B05 [0x55] WAIT_LOAD_SCHEDULER: Wait for scheduler "z00a" with entities [LocalPlayer, LocalPlayer], work=83*
 96: 0x0B14 [0x01] GOTO 0x0B26
 97: 0x0B17 [0x55] WAIT_LOAD_SCHEDULER: Wait for scheduler "z004" with entities [LocalPlayer, LocalPlayer], work=83*

SUBROUTINE_0B26:
 98: 0x0B26 [0x6E] LocalPlayer uses emote 6*
 99: 0x0B2D [0x99] Wait for LocalPlayer animation to complete
100: 0x0B32 [0x1C] WAIT(15* ticks)
101: 0x0B35 [0x29] REQ_SET_WAIT(priority=0x03, entity_id=Maat (ID: 17772594/0x010F3032), tag_num=0x11)
102: 0x0B3C [0x2B] Maat (ID: 17772594/0x010F3032) [11042*]:
    → "No? You've made up your mind, it seems. Young people these days--no imagination."
103: 0x0B43 [0x23] WAIT_FOR_DIALOG_INTERACTION
104: 0x0B44 [0x2B] Maat (ID: 17772594/0x010F3032) [11043*]:
    → "But if that's what you really want, it makes things easy for me, I suppose. I'll give you one last chance to change your wish..."
105: 0x0B4B [0x23] WAIT_FOR_DIALOG_INTERACTION
106: 0x0B4C [0x6E] LocalPlayer uses emote 7*
107: 0x0B53 [0x99] Wait for LocalPlayer animation to complete
108: 0x0B58 [0x1C] WAIT(60* ticks)
109: 0x0B5B [0x81] SET_ENTITY_BLINKING(blink_flag=0x00, entity=Maat (ID: 17772594/0x010F3032))
110: 0x0B61 [0x7B] Maat (ID: 17772594/0x010F3032) stops talking
111: 0x0B66 [0x45] LOAD_SCHEDULED_TASK: Load scheduler "z005" with entities [LocalPlayer, LocalPlayer], work=[83*, 0*]
112: 0x0B77 [0x55] WAIT_LOAD_SCHEDULER: Wait for scheduler "z005" with entities [LocalPlayer, LocalPlayer], work=83*
113: 0x0B86 [0x2B] Maat (ID: 17772594/0x010F3032) [11044*]:
    → "Well, alrighty then."
114: 0x0B8D [0x23] WAIT_FOR_DIALOG_INTERACTION
115: 0x0B8E [0x45] LOAD_SCHEDULED_TASK: Load scheduler "z006" with entities [LocalPlayer, LocalPlayer], work=[83*, 0*]
116: 0x0B9F [0x55] WAIT_LOAD_SCHEDULER: Wait for scheduler "z006" with entities [LocalPlayer, LocalPlayer], work=83*
117: 0x0BAE [0x2B] Maat (ID: 17772594/0x010F3032) [11045*]:
    → "Are you ready?"
118: 0x0BB5 [0x23] WAIT_FOR_DIALOG_INTERACTION
119: 0x0BB6 [0x45] LOAD_SCHEDULED_TASK: Load scheduler "z007" with entities [LocalPlayer, LocalPlayer], work=[83*, 0*]
120: 0x0BC7 [0x55] WAIT_LOAD_SCHEDULER: Wait for scheduler "z007" with entities [LocalPlayer, LocalPlayer], work=83*
121: 0x0BD6 [0x2B] Maat (ID: 17772594/0x010F3032) [11046*]:
    → "Try not to blink..."
122: 0x0BDD [0x23] WAIT_FOR_DIALOG_INTERACTION
123: 0x0BDE [0x5D] SET_MUSIC_VOLUME(volume=0*, fade_time=0*)
124: 0x0BE3 [0x45] LOAD_SCHEDULED_TASK: Load scheduler "who3" with entities [LocalPlayer, LocalPlayer], work=[108*, 0*]
125: 0x0BF4 [0x55] WAIT_LOAD_SCHEDULER: Wait for scheduler "who3" with entities [LocalPlayer, LocalPlayer], work=108*
126: 0x0C03 [0x45] LOAD_SCHEDULED_TASK: Load scheduler "pash" with entities [LocalPlayer, LocalPlayer], work=[108*, 0*]
127: 0x0C14 [0x27] REQ_SET(priority=0x03, entity_id=LocalPlayer, tag_num=0x85)
128: 0x0C1B [0x1C] WAIT(10* ticks)
129: 0x0C1E [0x79] Maat (ID: 17772594/0x010F3032) looks at LocalPlayer (Basic look)
130: 0x0C28 [0x81] SET_ENTITY_BLINKING(blink_flag=0x01, entity=Maat (ID: 17772594/0x010F3032))
131: 0x0C2E [0x1C] WAIT(180* ticks)
132: 0x0C31 [0x45] LOAD_SCHEDULED_TASK: Load scheduler "z008" with entities [LocalPlayer, LocalPlayer], work=[83*, 0*]
133: 0x0C42 [0x5D] SET_MUSIC_VOLUME(volume=127*, fade_time=180*)
134: 0x0C47 [0x45] LOAD_SCHEDULED_TASK: Load scheduler "whi1" with entities [LocalPlayer, LocalPlayer], work=[201*, 0*]
135: 0x0C58 [0x55] WAIT_LOAD_SCHEDULER: Wait for scheduler "whi1" with entities [LocalPlayer, LocalPlayer], work=201*
136: 0x0C67 [0x1C] WAIT(120* ticks)
137: 0x0C6A [0x2B] Maat (ID: 17772594/0x010F3032) [11047*]:
    → "Heh heh heh. Are you happy now? Bet you're thinking you should've changed your mind when you had the chance, huh?"
138: 0x0C71 [0x23] WAIT_FOR_DIALOG_INTERACTION
139: 0x0C72 [0x55] WAIT_LOAD_SCHEDULER: Wait for scheduler "z008" with entities [LocalPlayer, LocalPlayer], work=83*
140: 0x0C81 [0x27] REQ_SET(priority=0x03, entity_id=LocalPlayer, tag_num=0x86)
141: 0x0C88 [0x1C] WAIT(30* ticks)
142: 0x0C8B [0x45] LOAD_SCHEDULED_TASK: Load scheduler "z009" with entities [LocalPlayer, LocalPlayer], work=[83*, 0*]
143: 0x0C9C [0x55] WAIT_LOAD_SCHEDULER: Wait for scheduler "z009" with entities [LocalPlayer, LocalPlayer], work=83*
144: 0x0CAB [0x2B] Maat (ID: 17772594/0x010F3032) [11048*]:
    → "Aw, don't look so disappointed, <Player>. You think I'd let you walk away with nothing but an eyeful of my wrinkled noggin?"
145: 0x0CB2 [0x23] WAIT_FOR_DIALOG_INTERACTION
146: 0x0CB3 [0x27] REQ_SET(priority=0x03, entity_id=Maat (ID: 17772594/0x010F3032), tag_num=0x0F)
147: 0x0CBA [0x1C] WAIT(60* ticks)
148: 0x0CBD [0x79] Maat (ID: 17772594/0x010F3032) looks at Nomad Moogle (ID: 17772661/0x010F3075) (Basic look)
149: 0x0CC7 [0x45] LOAD_SCHEDULED_TASK: Load scheduler "ovl1" with entities [LocalPlayer, LocalPlayer], work=[200*, 0*]
150: 0x0CD8 [0x45] LOAD_SCHEDULED_TASK: Load scheduler "z010" with entities [LocalPlayer, LocalPlayer], work=[83*, 0*]
151: 0x0CE9 [0x2A] GET_REQ_LEVEL(level=3, entity_id=Maat (ID: 17772594/0x010F3032))
152: 0x0CEF [0x27] REQ_SET(priority=0x03, entity_id=Maat (ID: 17772594/0x010F3032), tag_num=0x12)
153: 0x0CF6 [0x2B] Maat (ID: 17772594/0x010F3032) [11049*]:
    → "Even the mightiest oak will wither with the passing of time. Its vibrant leaves will fade to brown, and crumble into dust. I, too, will one day have to leave this garden behind for good."
154: 0x0CFD [0x23] WAIT_FOR_DIALOG_INTERACTION
155: 0x0CFE [0x29] REQ_SET_WAIT(priority=0x03, entity_id=Maat (ID: 17772594/0x010F3032), tag_num=0x13)
156: 0x0D05 [0x55] WAIT_LOAD_SCHEDULER: Wait for scheduler "z010" with entities [LocalPlayer, LocalPlayer], work=83*
157: 0x0D14 [0x2B] Maat (ID: 17772594/0x010F3032) [11050*]:
    → "Do you understand what I'm trying to say?"
158: 0x0D1B [0x4A] Maat (ID: 17772594/0x010F3032) looks at LocalPlayer
159: 0x0D24 [0x23] WAIT_FOR_DIALOG_INTERACTION
160: 0x0D25 [0x02] IF !(ExtData[1]->WorkLocal[5] == 1*) GOTO 0x0D50
161: 0x0D2D [0x45] LOAD_SCHEDULED_TASK: Load scheduler "z00c" with entities [LocalPlayer, LocalPlayer], work=[83*, 0*]
162: 0x0D3E [0x55] WAIT_LOAD_SCHEDULER: Wait for scheduler "z00c" with entities [LocalPlayer, LocalPlayer], work=83*
163: 0x0D4D [0x01] GOTO 0x0D70
164: 0x0D50 [0x45] LOAD_SCHEDULED_TASK: Load scheduler "z011" with entities [LocalPlayer, LocalPlayer], work=[83*, 0*]
165: 0x0D61 [0x55] WAIT_LOAD_SCHEDULER: Wait for scheduler "z011" with entities [LocalPlayer, LocalPlayer], work=83*

SUBROUTINE_0D70:
166: 0x0D70 [0x27] REQ_SET(priority=0x03, entity_id=Maat (ID: 17772594/0x010F3032), tag_num=0x18)
167: 0x0D77 [0x2B] Maat (ID: 17772594/0x010F3032) [11051*]:
    → "When that time comes, I want you to take up this cap and become the mighty oak. Watch over the saplings as they reach towards the sky. I know you're up to the task, <Player>."
168: 0x0D7E [0x23] WAIT_FOR_DIALOG_INTERACTION
169: 0x0D7F [0x2B] Maat (ID: 17772594/0x010F3032) [11052*]:
    → "Do I have your word?"
170: 0x0D86 [0x23] WAIT_FOR_DIALOG_INTERACTION
171: 0x0D87 [0x2A] GET_REQ_LEVEL(level=3, entity_id=Maat (ID: 17772594/0x010F3032))
172: 0x0D8D [0x6E] LocalPlayer uses emote 7*
173: 0x0D94 [0x99] Wait for LocalPlayer animation to complete
174: 0x0D99 [0x1C] WAIT(60* ticks)
175: 0x0D9C [0x2B] Maat (ID: 17772594/0x010F3032) [11053*]:
    → "Well, that takes a load off my mind."
176: 0x0DA3 [0x23] WAIT_FOR_DIALOG_INTERACTION
177: 0x0DA4 [0x45] LOAD_SCHEDULED_TASK: Load scheduler "z012" with entities [LocalPlayer, LocalPlayer], work=[83*, 0*]
178: 0x0DB5 [0x1C] WAIT(90* ticks)
179: 0x0DB8 [0x2B] Maat (ID: 17772594/0x010F3032) [11054*]:
    → "I've got plenty of spark left in me, though, so don't go getting ahead of yourself! I'll be around whenever you're ready for another bout. Heh heh heh!"
180: 0x0DBF [0x23] WAIT_FOR_DIALOG_INTERACTION
181: 0x0DC0 [0x1A] CALL_SUBROUTINE(address=0x0DF6)
182: 0x0DC3 [0x5C] MUSIC_CONTROL: Set Idle (Day) music to song 117*
183: 0x0DC7 [0x5C] MUSIC_CONTROL: Set Idle (Night) music to song 117*
184: 0x0DCB [0x45] LOAD_SCHEDULED_TASK: Load scheduler "qstc" with entities [LocalPlayer, LocalPlayer], work=[201*, 0*]
185: 0x0DDC [0x6C] FADE_ENTITY_COLOR(entity_id=Nomad Moogle (ID: 17772661/0x010F3075), end_alpha=127*, fade_time=1*)
186: 0x0DE5 [0x52] END_LOAD_SCHEDULER: End scheduler "z012" with entities [LocalPlayer, LocalPlayer], work=83*
187: 0x0DF4 [0x21] END_EVENT
188: 0x0DF5 [0x00] END_REQSTACK()

SUBROUTINE_0DF6:
189: 0x0DF6 [0x45] LOAD_SCHEDULED_TASK: Load scheduler "fdo2" with entities [LocalPlayer, LocalPlayer], work=[200*, 0*]
190: 0x0E07 [0x55] WAIT_LOAD_SCHEDULER: Wait for scheduler "fdo2" with entities [LocalPlayer, LocalPlayer], work=200*
191: 0x0E16 [0x22] ENTITY_HIDE_FLAG(enabled=0x01)
192: 0x0E18 [0x46] CAMERA_CONTROL: Restore default settings
193: 0x0E1A [0x45] LOAD_SCHEDULED_TASK: Load scheduler "fdi2" with entities [LocalPlayer, LocalPlayer], work=[200*, 0*]
194: 0x0E2B [0x1B] RETURN
```

#### Data or dead code:

```
# Dead code (unreachable instructions):
     0x0E2C [0x02] IF !(Work_Zone[2] == 1*) GOTO 0x0E3C
     0x0E34 [0x03] Work_Zone[3] = 1426*
     0x0E39 [0x01] GOTO 0x0F21
     0x0E3C [0x02] IF !(Work_Zone[2] == 2*) GOTO 0x0E4C
     0x0E44 [0x03] Work_Zone[3] = 1427*
     0x0E49 [0x01] GOTO 0x0F21
     0x0E4C [0x02] IF !(Work_Zone[2] == 3*) GOTO 0x0E5C
     0x0E54 [0x03] Work_Zone[3] = 1428*
     0x0E59 [0x01] GOTO 0x0F21
     0x0E5C [0x02] IF !(Work_Zone[2] == 4*) GOTO 0x0E6C
     0x0E64 [0x03] Work_Zone[3] = 1429*
     0x0E69 [0x01] GOTO 0x0F21
     0x0E6C [0x02] IF !(Work_Zone[2] == 5*) GOTO 0x0E7C
     0x0E74 [0x03] Work_Zone[3] = 1430*
     0x0E79 [0x01] GOTO 0x0F21
     0x0E7C [0x02] IF !(Work_Zone[2] == 6*) GOTO 0x0E8C
     0x0E84 [0x03] Work_Zone[3] = 1431*
     0x0E89 [0x01] GOTO 0x0F21
     0x0E8C [0x02] IF !(Work_Zone[2] == 7*) GOTO 0x0E9C
     0x0E94 [0x03] Work_Zone[3] = 1432*
     0x0E99 [0x01] GOTO 0x0F21
     0x0E9C [0x02] IF !(Work_Zone[2] == 8*) GOTO 0x0EAC
     0x0EA4 [0x03] Work_Zone[3] = 1433*
     0x0EA9 [0x01] GOTO 0x0F21
     0x0EAC [0x02] IF !(Work_Zone[2] == 9*) GOTO 0x0EBC
     0x0EB4 [0x03] Work_Zone[3] = 1434*
     0x0EB9 [0x01] GOTO 0x0F21
     0x0EBC [0x02] IF !(Work_Zone[2] == 10*) GOTO 0x0ECC
     0x0EC4 [0x03] Work_Zone[3] = 1435*
     0x0EC9 [0x01] GOTO 0x0F21
     0x0ECC [0x02] IF !(Work_Zone[2] == 11*) GOTO 0x0EDC
     0x0ED4 [0x03] Work_Zone[3] = 1436*
     0x0ED9 [0x01] GOTO 0x0F21
     0x0EDC [0x02] IF !(Work_Zone[2] == 12*) GOTO 0x0EEC
     0x0EE4 [0x03] Work_Zone[3] = 1437*
     0x0EE9 [0x01] GOTO 0x0F21
     0x0EEC [0x02] IF !(Work_Zone[2] == 13*) GOTO 0x0EFC
     0x0EF4 [0x03] Work_Zone[3] = 1438*
     0x0EF9 [0x01] GOTO 0x0F21
     0x0EFC [0x02] IF !(Work_Zone[2] == 14*) GOTO 0x0F0C
     0x0F04 [0x03] Work_Zone[3] = 1439*
     0x0F09 [0x01] GOTO 0x0F21
     0x0F0C [0x02] IF !(Work_Zone[2] == 15*) GOTO 0x0F1C
     0x0F14 [0x03] Work_Zone[3] = 1440*
     0x0F19 [0x01] GOTO 0x0F21
     0x0F1C [0x03] Work_Zone[3] = 1426*
     0x0F21 [0x1B] RETURN
```

### Event 10045

#### Metadata

| Field        | Value   |
|--------------|---------|
| Entrypoint   | 0x0F22  |
| Data Size    | 1 bytes |
| Instructions | 1       |

```
      00 01 02 03 04 05 06 07  08 09 0A 0B 0C 0D 0E 0F
      -- -- -- -- -- -- -- --  -- -- -- -- -- -- -- --
0F20:       00                                            .             
```

#### Opcodes

```
  0: 0x0F22 [0x00] END_REQSTACK()
```

### Event 10136

#### Metadata

| Field        | Value   |
|--------------|---------|
| Entrypoint   | 0x0F23  |
| Data Size    | 1 bytes |
| Instructions | 1       |

```
      00 01 02 03 04 05 06 07  08 09 0A 0B 0C 0D 0E 0F
      -- -- -- -- -- -- -- --  -- -- -- -- -- -- -- --
0F20:          00                                          .            
```

#### Opcodes

```
  0: 0x0F23 [0x00] END_REQSTACK()
```

### Event 10137

#### Metadata

| Field        | Value   |
|--------------|---------|
| Entrypoint   | 0x0F24  |
| Data Size    | 1 bytes |
| Instructions | 1       |

```
      00 01 02 03 04 05 06 07  08 09 0A 0B 0C 0D 0E 0F
      -- -- -- -- -- -- -- --  -- -- -- -- -- -- -- --
0F20:             00                                        .           
```

#### Opcodes

```
  0: 0x0F24 [0x00] END_REQSTACK()
```

### Event 10161

#### Metadata

| Field        | Value   |
|--------------|---------|
| Entrypoint   | 0x0F25  |
| Data Size    | 1 bytes |
| Instructions | 1       |

```
      00 01 02 03 04 05 06 07  08 09 0A 0B 0C 0D 0E 0F
      -- -- -- -- -- -- -- --  -- -- -- -- -- -- -- --
0F20:                00                                      .          
```

#### Opcodes

```
  0: 0x0F25 [0x00] END_REQSTACK()
```

### Event 10163

#### Metadata

| Field        | Value   |
|--------------|---------|
| Entrypoint   | 0x0F26  |
| Data Size    | 1 bytes |
| Instructions | 1       |

```
      00 01 02 03 04 05 06 07  08 09 0A 0B 0C 0D 0E 0F
      -- -- -- -- -- -- -- --  -- -- -- -- -- -- -- --
0F20:                   00                                    .         
```

#### Opcodes

```
  0: 0x0F26 [0x00] END_REQSTACK()
```

### Event 10164

#### Metadata

| Field        | Value   |
|--------------|---------|
| Entrypoint   | 0x0F27  |
| Data Size    | 1 bytes |
| Instructions | 1       |

```
      00 01 02 03 04 05 06 07  08 09 0A 0B 0C 0D 0E 0F
      -- -- -- -- -- -- -- --  -- -- -- -- -- -- -- --
0F20:                      00                                  .        
```

#### Opcodes

```
  0: 0x0F27 [0x00] END_REQSTACK()
```

### Event 10165

#### Metadata

| Field        | Value   |
|--------------|---------|
| Entrypoint   | 0x0F28  |
| Data Size    | 1 bytes |
| Instructions | 1       |

```
      00 01 02 03 04 05 06 07  08 09 0A 0B 0C 0D 0E 0F
      -- -- -- -- -- -- -- --  -- -- -- -- -- -- -- --
0F20:                          00                               .       
```

#### Opcodes

```
  0: 0x0F28 [0x00] END_REQSTACK()
```

### Event 10166

#### Metadata

| Field        | Value   |
|--------------|---------|
| Entrypoint   | 0x0F29  |
| Data Size    | 1 bytes |
| Instructions | 1       |

```
      00 01 02 03 04 05 06 07  08 09 0A 0B 0C 0D 0E 0F
      -- -- -- -- -- -- -- --  -- -- -- -- -- -- -- --
0F20:                             00                             .      
```

#### Opcodes

```
  0: 0x0F29 [0x00] END_REQSTACK()
```

### Event 10167

#### Metadata

| Field        | Value   |
|--------------|---------|
| Entrypoint   | 0x0F2A  |
| Data Size    | 1 bytes |
| Instructions | 1       |

```
      00 01 02 03 04 05 06 07  08 09 0A 0B 0C 0D 0E 0F
      -- -- -- -- -- -- -- --  -- -- -- -- -- -- -- --
0F20:                                00                           .     
```

#### Opcodes

```
  0: 0x0F2A [0x00] END_REQSTACK()
```

### Event 10168

#### Metadata

| Field        | Value   |
|--------------|---------|
| Entrypoint   | 0x0F2B  |
| Data Size    | 1 bytes |
| Instructions | 1       |

```
      00 01 02 03 04 05 06 07  08 09 0A 0B 0C 0D 0E 0F
      -- -- -- -- -- -- -- --  -- -- -- -- -- -- -- --
0F20:                                   00                         .    
```

#### Opcodes

```
  0: 0x0F2B [0x00] END_REQSTACK()
```

### Event 65535.1

#### Metadata

| Field        | Value   |
|--------------|---------|
| Entrypoint   | 0x0F2C  |
| Data Size    | 1 bytes |
| Instructions | 1       |

```
      00 01 02 03 04 05 06 07  08 09 0A 0B 0C 0D 0E 0F
      -- -- -- -- -- -- -- --  -- -- -- -- -- -- -- --
0F20:                                      00                       .   
```

#### Opcodes

```
  0: 0x0F2C [0x00] END_REQSTACK()
```

### Event 65535.2

#### Metadata

| Field        | Value   |
|--------------|---------|
| Entrypoint   | 0x0F2D  |
| Data Size    | 1 bytes |
| Instructions | 1       |

```
      00 01 02 03 04 05 06 07  08 09 0A 0B 0C 0D 0E 0F
      -- -- -- -- -- -- -- --  -- -- -- -- -- -- -- --
0F20:                                         00                     .  
```

#### Opcodes

```
  0: 0x0F2D [0x00] END_REQSTACK()
```

### Event 65535.3

#### Metadata

| Field        | Value   |
|--------------|---------|
| Entrypoint   | 0x0F2E  |
| Data Size    | 1 bytes |
| Instructions | 1       |

```
      00 01 02 03 04 05 06 07  08 09 0A 0B 0C 0D 0E 0F
      -- -- -- -- -- -- -- --  -- -- -- -- -- -- -- --
0F20:                                            00                   . 
```

#### Opcodes

```
  0: 0x0F2E [0x00] END_REQSTACK()
```

### Event 65535.4

#### Metadata

| Field        | Value   |
|--------------|---------|
| Entrypoint   | 0x0F2F  |
| Data Size    | 1 bytes |
| Instructions | 1       |

```
      00 01 02 03 04 05 06 07  08 09 0A 0B 0C 0D 0E 0F
      -- -- -- -- -- -- -- --  -- -- -- -- -- -- -- --
0F20:                                               00                 .
```

#### Opcodes

```
  0: 0x0F2F [0x00] END_REQSTACK()
```

### Event 65535.5

#### Metadata

| Field        | Value   |
|--------------|---------|
| Entrypoint   | 0x0F30  |
| Data Size    | 1 bytes |
| Instructions | 1       |

```
      00 01 02 03 04 05 06 07  08 09 0A 0B 0C 0D 0E 0F
      -- -- -- -- -- -- -- --  -- -- -- -- -- -- -- --
0F30: 00                                                .               
```

#### Opcodes

```
  0: 0x0F30 [0x00] END_REQSTACK()
```

### Event 65535.6

#### Metadata

| Field        | Value   |
|--------------|---------|
| Entrypoint   | 0x0F31  |
| Data Size    | 1 bytes |
| Instructions | 1       |

```
      00 01 02 03 04 05 06 07  08 09 0A 0B 0C 0D 0E 0F
      -- -- -- -- -- -- -- --  -- -- -- -- -- -- -- --
0F30:    00                                              .              
```

#### Opcodes

```
  0: 0x0F31 [0x00] END_REQSTACK()
```

### Event 10169

#### Metadata

| Field        | Value   |
|--------------|---------|
| Entrypoint   | 0x0F32  |
| Data Size    | 1 bytes |
| Instructions | 1       |

```
      00 01 02 03 04 05 06 07  08 09 0A 0B 0C 0D 0E 0F
      -- -- -- -- -- -- -- --  -- -- -- -- -- -- -- --
0F30:       00                                            .             
```

#### Opcodes

```
  0: 0x0F32 [0x00] END_REQSTACK()
```

### Event 10170

#### Metadata

| Field        | Value   |
|--------------|---------|
| Entrypoint   | 0x0F33  |
| Data Size    | 1 bytes |
| Instructions | 1       |

```
      00 01 02 03 04 05 06 07  08 09 0A 0B 0C 0D 0E 0F
      -- -- -- -- -- -- -- --  -- -- -- -- -- -- -- --
0F30:          00                                          .            
```

#### Opcodes

```
  0: 0x0F33 [0x00] END_REQSTACK()
```

### Event 10171

#### Metadata

| Field        | Value   |
|--------------|---------|
| Entrypoint   | 0x0F34  |
| Data Size    | 1 bytes |
| Instructions | 1       |

```
      00 01 02 03 04 05 06 07  08 09 0A 0B 0C 0D 0E 0F
      -- -- -- -- -- -- -- --  -- -- -- -- -- -- -- --
0F30:             00                                        .           
```

#### Opcodes

```
  0: 0x0F34 [0x00] END_REQSTACK()
```

### Event 10172

#### Metadata

| Field        | Value   |
|--------------|---------|
| Entrypoint   | 0x0F35  |
| Data Size    | 1 bytes |
| Instructions | 1       |

```
      00 01 02 03 04 05 06 07  08 09 0A 0B 0C 0D 0E 0F
      -- -- -- -- -- -- -- --  -- -- -- -- -- -- -- --
0F30:                00                                      .          
```

#### Opcodes

```
  0: 0x0F35 [0x00] END_REQSTACK()
```

### Event 10173

#### Metadata

| Field        | Value   |
|--------------|---------|
| Entrypoint   | 0x0F36  |
| Data Size    | 1 bytes |
| Instructions | 1       |

```
      00 01 02 03 04 05 06 07  08 09 0A 0B 0C 0D 0E 0F
      -- -- -- -- -- -- -- --  -- -- -- -- -- -- -- --
0F30:                   00                                    .         
```

#### Opcodes

```
