# 17772720 - Taillegeas

## Common Data

| Field            | Value                     |
|------------------|---------------------------|
| Zone             | Ru'Lude Gardens (ID: 243) |
| Block Size       | 1068 bytes                |
| Total Events     | 35                        |
| References Count | 40                        |

## List of Events

| Event ID                   | Entrypoint   |   Size |   Instructions |
|----------------------------|--------------|--------|----------------|
| [65535](#event-65535)      | 0x0000       |      1 |              1 |
| [10094](#event-10094)      | 0x0001       |      1 |              1 |
| [65535.1](#event-655351)   | 0x0002       |     16 |              2 |
| [65535.2](#event-655352)   | 0x0012       |     14 |              2 |
| [65535.3](#event-655353)   | 0x0020       |     16 |              2 |
| [65535.4](#event-655354)   | 0x0030       |     14 |              2 |
| [65535.5](#event-655355)   | 0x003E       |     16 |              2 |
| [65535.6](#event-655356)   | 0x004E       |     14 |              2 |
| [65535.7](#event-655357)   | 0x005C       |     16 |              2 |
| [65535.8](#event-655358)   | 0x006C       |     14 |              2 |
| [65535.9](#event-655359)   | 0x007A       |     16 |              2 |
| [65535.10](#event-6553510) | 0x008A       |     14 |              2 |
| [65535.11](#event-6553511) | 0x0098       |     16 |              2 |
| [65535.12](#event-6553512) | 0x00A8       |     14 |              2 |
| [65535.13](#event-6553513) | 0x00B6       |     16 |              2 |
| [65535.14](#event-6553514) | 0x00C6       |     14 |              2 |
| [65535.15](#event-6553515) | 0x00D4       |     16 |              2 |
| [65535.16](#event-6553516) | 0x00E4       |     14 |              2 |
| [65535.17](#event-6553517) | 0x00F2       |     22 |              3 |
| [65535.18](#event-6553518) | 0x0108       |     20 |              3 |
| [65535.19](#event-6553519) | 0x011C       |     92 |             12 |
| [10061](#event-10061)      | 0x0178       |     29 |             10 |
| [10057](#event-10057)      | 0x0195       |      1 |              1 |
| [65535.20](#event-6553520) | 0x0196       |     10 |              2 |
| [10059](#event-10059)      | 0x01A0       |    120 |             28 |
| [10058](#event-10058)      | 0x0218       |      1 |              1 |
| [10060](#event-10060)      | 0x0219       |     29 |             10 |
| [10235](#event-10235)      | 0x0236       |      1 |              1 |
| [65535.21](#event-6553521) | 0x0237       |     45 |              7 |
| [65535.22](#event-6553522) | 0x0264       |     14 |              4 |
| [65535.23](#event-6553523) | 0x0272       |     14 |              4 |
| [65535.24](#event-6553524) | 0x0280       |     29 |              8 |
| [65535.25](#event-6553525) | 0x029D       |     12 |              3 |
| [65535.26](#event-6553526) | 0x02A9       |     14 |              4 |
| [10239](#event-10239)      | 0x02B7       |     56 |             15 |

## DAT References (imed_data)

|   Index | Hex Value   |   Dec Value |
|---------|-------------|-------------|
|       0 | 0x000A      |          10 |
|       1 | 0x000B      |          11 |
|       2 | 0x68A6      |       26790 |
|       3 | 0xFEC2      |       65218 |
|       4 | 0x07CB      |        1995 |
|       5 | 0x00F7      |         247 |
|       6 | 0x31CF      |       12751 |
|       7 | 0x7918      |       31000 |
|       8 | 0xE273      |       57971 |
|       9 | 0x0C00      |        3072 |
|      10 | 0x0000      |           0 |
|      11 | 0x31D9      |       12761 |
|      12 | 0x0001      |           1 |
|      13 | 0x31D7      |       12759 |
|      14 | 0x31D8      |       12760 |
|      15 | 0x31DA      |       12762 |
|      16 | 0x31DB      |       12763 |
|      17 | 0x31DC      |       12764 |
|      18 | 0x31E6      |       12774 |
|      19 | 0x000D      |          13 |
|      20 | 0x7929      |       31017 |
|      21 | 0xEDB2      |       60850 |
|      22 | 0x001E      |          30 |
|      23 | 0x0028      |          40 |
|      24 | 0x67EE      |       26606 |
|      25 | 0xF4DE      |       62686 |
|      26 | 0x72DF      |       29407 |
|      27 | 0xF25B      |       62043 |
|      28 | 0x07C7      |        1991 |
|      29 | 0x61F0      |       25072 |
|      30 | 0xFB02      |       64258 |
|      31 | 0x07E8      |        2024 |
|      32 | 0x6BF8      |       27640 |
|      33 | 0xF4A9      |       62633 |
|      34 | 0x08F0      |        2288 |
|      35 | 0x77B5      |       30645 |
|      36 | 0xF0FA      |       61690 |
|      37 | 0x3C16      |       15382 |
|      38 | 0x3C17      |       15383 |
|      39 | 0x3C18      |       15384 |

## String References

- **12751**: The palace is often the site for grand banquets that are attended by dignitaries from every nation. In times like these, we do our utmost to see that the needs of our important visitors are met.
- **12774**: Your assistance is greatly appreciated. I am certain [Lord Nag'molada/Lady Esha'ntarl]'s guests will be most satisfied with your efforts.

## Events

### Event 65535

#### Metadata

| Field        | Value   |
|--------------|---------|
| Entrypoint   | 0x0000  |
| Data Size    | 1 bytes |
| Instructions | 1       |

```
      00 01 02 03 04 05 06 07  08 09 0A 0B 0C 0D 0E 0F
      -- -- -- -- -- -- -- --  -- -- -- -- -- -- -- --
0000: 00                                                .               
```

#### Opcodes

```
  0: 0x0000 [0x00] END_REQSTACK()
```

### Event 10094

#### Metadata

| Field        | Value   |
|--------------|---------|
| Entrypoint   | 0x0001  |
| Data Size    | 1 bytes |
| Instructions | 1       |

```
      00 01 02 03 04 05 06 07  08 09 0A 0B 0C 0D 0E 0F
      -- -- -- -- -- -- -- --  -- -- -- -- -- -- -- --
0000:    00                                              .              
```

#### Opcodes

```
  0: 0x0001 [0x00] END_REQSTACK()
```

### Event 65535.1

#### Metadata

| Field        | Value    |
|--------------|----------|
| Entrypoint   | 0x0002   |
| Data Size    | 16 bytes |
| Instructions | 2        |

```
      00 01 02 03 04 05 06 07  08 09 0A 0B 0C 0D 0E 0F
      -- -- -- -- -- -- -- --  -- -- -- -- -- -- -- --
0000:       5B 00 80 F8 FF FF  7F F8 FF FF 7F 63 65 72    [..........cer
0010: 30 00                                             0.              
```

#### Opcodes

```
  0: 0x0002 [0x5B] LOAD_EXT_SCHEDULER: Load scheduler "cer0" with entities [EventEntity, EventEntity], work=10*
  1: 0x0011 [0x00] END_REQSTACK()
```

### Event 65535.2

#### Metadata

| Field        | Value    |
|--------------|----------|
| Entrypoint   | 0x0012   |
| Data Size    | 14 bytes |
| Instructions | 2        |

```
      00 01 02 03 04 05 06 07  08 09 0A 0B 0C 0D 0E 0F
      -- -- -- -- -- -- -- --  -- -- -- -- -- -- -- --
0010:       53 F8 FF FF 7F F8  FF FF 7F 63 65 72 30 00    S........cer0.
```

#### Opcodes

```
  0: 0x0012 [0x53] WAIT_SCHEDULER_TASK: Wait for scheduler "cer0" with entities [EventEntity, EventEntity]
  1: 0x001F [0x00] END_REQSTACK()
```

### Event 65535.3

#### Metadata

| Field        | Value    |
|--------------|----------|
| Entrypoint   | 0x0020   |
| Data Size    | 16 bytes |
| Instructions | 2        |

```
      00 01 02 03 04 05 06 07  08 09 0A 0B 0C 0D 0E 0F
      -- -- -- -- -- -- -- --  -- -- -- -- -- -- -- --
0020: 5B 00 80 F8 FF FF 7F F8  FF FF 7F 66 61 72 30 00  [..........far0.
```

#### Opcodes

```
  0: 0x0020 [0x5B] LOAD_EXT_SCHEDULER: Load scheduler "far0" with entities [EventEntity, EventEntity], work=10*
  1: 0x002F [0x00] END_REQSTACK()
```

### Event 65535.4

#### Metadata

| Field        | Value    |
|--------------|----------|
| Entrypoint   | 0x0030   |
| Data Size    | 14 bytes |
| Instructions | 2        |

```
      00 01 02 03 04 05 06 07  08 09 0A 0B 0C 0D 0E 0F
      -- -- -- -- -- -- -- --  -- -- -- -- -- -- -- --
0030: 53 F8 FF FF 7F F8 FF FF  7F 66 61 72 30 00        S........far0.  
```

#### Opcodes

```
  0: 0x0030 [0x53] WAIT_SCHEDULER_TASK: Wait for scheduler "far0" with entities [EventEntity, EventEntity]
  1: 0x003D [0x00] END_REQSTACK()
```

### Event 65535.5

#### Metadata

| Field        | Value    |
|--------------|----------|
| Entrypoint   | 0x003E   |
| Data Size    | 16 bytes |
| Instructions | 2        |

```
      00 01 02 03 04 05 06 07  08 09 0A 0B 0C 0D 0E 0F
      -- -- -- -- -- -- -- --  -- -- -- -- -- -- -- --
0030:                                            5B 00                [.
0040: 80 F8 FF FF 7F F8 FF FF  7F 66 61 72 31 00        .........far1.  
```

#### Opcodes

```
  0: 0x003E [0x5B] LOAD_EXT_SCHEDULER: Load scheduler "far1" with entities [EventEntity, EventEntity], work=10*
  1: 0x004D [0x00] END_REQSTACK()
```

### Event 65535.6

#### Metadata

| Field        | Value    |
|--------------|----------|
| Entrypoint   | 0x004E   |
| Data Size    | 14 bytes |
| Instructions | 2        |

```
      00 01 02 03 04 05 06 07  08 09 0A 0B 0C 0D 0E 0F
      -- -- -- -- -- -- -- --  -- -- -- -- -- -- -- --
0040:                                            53 F8                S.
0050: FF FF 7F F8 FF FF 7F 66  61 72 31 00              .......far1.    
```

#### Opcodes

```
  0: 0x004E [0x53] WAIT_SCHEDULER_TASK: Wait for scheduler "far1" with entities [EventEntity, EventEntity]
  1: 0x005B [0x00] END_REQSTACK()
```

### Event 65535.7

#### Metadata

| Field        | Value    |
|--------------|----------|
| Entrypoint   | 0x005C   |
| Data Size    | 16 bytes |
| Instructions | 2        |

```
      00 01 02 03 04 05 06 07  08 09 0A 0B 0C 0D 0E 0F
      -- -- -- -- -- -- -- --  -- -- -- -- -- -- -- --
0050:                                      5B 00 80 F8              [...
0060: FF FF 7F F8 FF FF 7F 70  61 73 30 00              .......pas0.    
```

#### Opcodes

```
  0: 0x005C [0x5B] LOAD_EXT_SCHEDULER: Load scheduler "pas0" with entities [EventEntity, EventEntity], work=10*
  1: 0x006B [0x00] END_REQSTACK()
```

### Event 65535.8

#### Metadata

| Field        | Value    |
|--------------|----------|
| Entrypoint   | 0x006C   |
| Data Size    | 14 bytes |
| Instructions | 2        |

```
      00 01 02 03 04 05 06 07  08 09 0A 0B 0C 0D 0E 0F
      -- -- -- -- -- -- -- --  -- -- -- -- -- -- -- --
0060:                                      53 F8 FF FF              S...
0070: 7F F8 FF FF 7F 70 61 73  30 00                    .....pas0.      
```

#### Opcodes

```
  0: 0x006C [0x53] WAIT_SCHEDULER_TASK: Wait for scheduler "pas0" with entities [EventEntity, EventEntity]
  1: 0x0079 [0x00] END_REQSTACK()
```

### Event 65535.9

#### Metadata

| Field        | Value    |
|--------------|----------|
| Entrypoint   | 0x007A   |
| Data Size    | 16 bytes |
| Instructions | 2        |

```
      00 01 02 03 04 05 06 07  08 09 0A 0B 0C 0D 0E 0F
      -- -- -- -- -- -- -- --  -- -- -- -- -- -- -- --
0070:                                5B 00 80 F8 FF FF            [.....
0080: 7F F8 FF FF 7F 74 68 6B  31 00                    .....thk1.      
```

#### Opcodes

```
  0: 0x007A [0x5B] LOAD_EXT_SCHEDULER: Load scheduler "thk1" with entities [EventEntity, EventEntity], work=10*
  1: 0x0089 [0x00] END_REQSTACK()
```

### Event 65535.10

#### Metadata

| Field        | Value    |
|--------------|----------|
| Entrypoint   | 0x008A   |
| Data Size    | 14 bytes |
| Instructions | 2        |

```
      00 01 02 03 04 05 06 07  08 09 0A 0B 0C 0D 0E 0F
      -- -- -- -- -- -- -- --  -- -- -- -- -- -- -- --
0080:                                53 F8 FF FF 7F F8            S.....
0090: FF FF 7F 74 68 6B 31 00                           ...thk1.        
```

#### Opcodes

```
  0: 0x008A [0x53] WAIT_SCHEDULER_TASK: Wait for scheduler "thk1" with entities [EventEntity, EventEntity]
  1: 0x0097 [0x00] END_REQSTACK()
```

### Event 65535.11

#### Metadata

| Field        | Value    |
|--------------|----------|
| Entrypoint   | 0x0098   |
| Data Size    | 16 bytes |
| Instructions | 2        |

```
      00 01 02 03 04 05 06 07  08 09 0A 0B 0C 0D 0E 0F
      -- -- -- -- -- -- -- --  -- -- -- -- -- -- -- --
0090:                          5B 00 80 F8 FF FF 7F F8          [.......
00A0: FF FF 7F 74 68 6B 32 00                           ...thk2.        
```

#### Opcodes

```
  0: 0x0098 [0x5B] LOAD_EXT_SCHEDULER: Load scheduler "thk2" with entities [EventEntity, EventEntity], work=10*
  1: 0x00A7 [0x00] END_REQSTACK()
```

### Event 65535.12

#### Metadata

| Field        | Value    |
|--------------|----------|
| Entrypoint   | 0x00A8   |
| Data Size    | 14 bytes |
| Instructions | 2        |

```
      00 01 02 03 04 05 06 07  08 09 0A 0B 0C 0D 0E 0F
      -- -- -- -- -- -- -- --  -- -- -- -- -- -- -- --
00A0:                          53 F8 FF FF 7F F8 FF FF          S.......
00B0: 7F 74 68 6B 32 00                                 .thk2.          
```

#### Opcodes

```
  0: 0x00A8 [0x53] WAIT_SCHEDULER_TASK: Wait for scheduler "thk2" with entities [EventEntity, EventEntity]
  1: 0x00B5 [0x00] END_REQSTACK()
```

### Event 65535.13

#### Metadata

| Field        | Value    |
|--------------|----------|
| Entrypoint   | 0x00B6   |
| Data Size    | 16 bytes |
| Instructions | 2        |

```
      00 01 02 03 04 05 06 07  08 09 0A 0B 0C 0D 0E 0F
      -- -- -- -- -- -- -- --  -- -- -- -- -- -- -- --
00B0:                   5B 00  80 F8 FF FF 7F F8 FF FF        [.........
00C0: 7F 74 6C 6B 30 00                                 .tlk0.          
```

#### Opcodes

```
  0: 0x00B6 [0x5B] LOAD_EXT_SCHEDULER: Load scheduler "tlk0" with entities [EventEntity, EventEntity], work=10*
  1: 0x00C5 [0x00] END_REQSTACK()
```

### Event 65535.14

#### Metadata

| Field        | Value    |
|--------------|----------|
| Entrypoint   | 0x00C6   |
| Data Size    | 14 bytes |
| Instructions | 2        |

```
      00 01 02 03 04 05 06 07  08 09 0A 0B 0C 0D 0E 0F
      -- -- -- -- -- -- -- --  -- -- -- -- -- -- -- --
00C0:                   53 F8  FF FF 7F F8 FF FF 7F 74        S........t
00D0: 6C 6B 30 00                                       lk0.            
```

#### Opcodes

```
  0: 0x00C6 [0x53] WAIT_SCHEDULER_TASK: Wait for scheduler "tlk0" with entities [EventEntity, EventEntity]
  1: 0x00D3 [0x00] END_REQSTACK()
```

### Event 65535.15

#### Metadata

| Field        | Value    |
|--------------|----------|
| Entrypoint   | 0x00D4   |
| Data Size    | 16 bytes |
| Instructions | 2        |

```
      00 01 02 03 04 05 06 07  08 09 0A 0B 0C 0D 0E 0F
      -- -- -- -- -- -- -- --  -- -- -- -- -- -- -- --
00D0:             5B 00 80 F8  FF FF 7F F8 FF FF 7F 74      [..........t
00E0: 6C 6B 31 00                                       lk1.            
```

#### Opcodes

```
  0: 0x00D4 [0x5B] LOAD_EXT_SCHEDULER: Load scheduler "tlk1" with entities [EventEntity, EventEntity], work=10*
  1: 0x00E3 [0x00] END_REQSTACK()
```

### Event 65535.16

#### Metadata

| Field        | Value    |
|--------------|----------|
| Entrypoint   | 0x00E4   |
| Data Size    | 14 bytes |
| Instructions | 2        |

```
      00 01 02 03 04 05 06 07  08 09 0A 0B 0C 0D 0E 0F
      -- -- -- -- -- -- -- --  -- -- -- -- -- -- -- --
00E0:             53 F8 FF FF  7F F8 FF FF 7F 74 6C 6B      S........tlk
00F0: 31 00                                             1.              
```

#### Opcodes

```
  0: 0x00E4 [0x53] WAIT_SCHEDULER_TASK: Wait for scheduler "tlk1" with entities [EventEntity, EventEntity]
  1: 0x00F1 [0x00] END_REQSTACK()
```

### Event 65535.17

#### Metadata

| Field        | Value    |
|--------------|----------|
| Entrypoint   | 0x00F2   |
| Data Size    | 22 bytes |
| Instructions | 3        |

```
      00 01 02 03 04 05 06 07  08 09 0A 0B 0C 0D 0E 0F
      -- -- -- -- -- -- -- --  -- -- -- -- -- -- -- --
00F0:       7C 00 F8 FF FF 7F  5B 01 80 F8 FF FF 7F F8    |.....[.......
0100: FF FF 7F 61 77 61 30 00                           ...awa0.        
```

#### Opcodes

```
  0: 0x00F2 [0x7C] EventEntity->Render.Flags2 |= 0x00
  1: 0x00F8 [0x5B] LOAD_EXT_SCHEDULER: Load scheduler "awa0" with entities [EventEntity, EventEntity], work=11*
  2: 0x0107 [0x00] END_REQSTACK()
```

### Event 65535.18

#### Metadata

| Field        | Value    |
|--------------|----------|
| Entrypoint   | 0x0108   |
| Data Size    | 20 bytes |
| Instructions | 3        |

```
      00 01 02 03 04 05 06 07  08 09 0A 0B 0C 0D 0E 0F
      -- -- -- -- -- -- -- --  -- -- -- -- -- -- -- --
0100:                          53 F8 FF FF 7F F8 FF FF          S.......
0110: 7F 61 77 61 30 7C 01 F8  FF FF 7F 00              .awa0|......    
```

#### Opcodes

```
  0: 0x0108 [0x53] WAIT_SCHEDULER_TASK: Wait for scheduler "awa0" with entities [EventEntity, EventEntity]
  1: 0x0115 [0x7C] EventEntity->Render.Flags2 |= 0x01
  2: 0x011B [0x00] END_REQSTACK()
```

### Event 65535.19

#### Metadata

| Field        | Value    |
|--------------|----------|
| Entrypoint   | 0x011C   |
| Data Size    | 92 bytes |
| Instructions | 12       |

```
      00 01 02 03 04 05 06 07  08 09 0A 0B 0C 0D 0E 0F
      -- -- -- -- -- -- -- --  -- -- -- -- -- -- -- --
0110:                                      7C 00 F8 FF              |...
0120: FF 7F 5B 01 80 F8 FF FF  7F F8 FF FF 7F 61 77 61  ..[..........awa
0130: 30 53 F8 FF FF 7F F8 FF  FF 7F 61 77 61 30 5B 01  0S........awa0[.
0140: 80 F8 FF FF 7F F8 FF FF  7F 61 77 61 30 53 F8 FF  .........awa0S..
0150: FF 7F F8 FF FF 7F 61 77  61 30 7C 01 F8 FF FF 7F  ......awa0|.....
0160: 1F 00 02 80 03 80 04 80  1F 01 4B F8 FF FF 7F 05  ..........K.....
0170: 80 6F 76 F8 FF FF 7F 00                           .ov.....        
```

#### Opcodes

```
  0: 0x011C [0x7C] EventEntity->Render.Flags2 |= 0x00
  1: 0x0122 [0x5B] LOAD_EXT_SCHEDULER: Load scheduler "awa0" with entities [EventEntity, EventEntity], work=11*
  2: 0x0131 [0x53] WAIT_SCHEDULER_TASK: Wait for scheduler "awa0" with entities [EventEntity, EventEntity]
  3: 0x013E [0x5B] LOAD_EXT_SCHEDULER: Load scheduler "awa0" with entities [EventEntity, EventEntity], work=11*
  4: 0x014D [0x53] WAIT_SCHEDULER_TASK: Wait for scheduler "awa0" with entities [EventEntity, EventEntity]
  5: 0x015A [0x7C] EventEntity->Render.Flags2 |= 0x01
  6: 0x0160 [0x1F] MOVE_ENTITY: EventEntity moves to X=26.790*, Z=65.218*, Y=1.995*
  7: 0x0168 [0x1F] MOVE_ENTITY: Update entity position (mode=1)
  8: 0x016A [0x4B] UPDATE_ENTITY_YAW(entity=EventEntity, yaw=1.4°*)
  9: 0x0171 [0x6F] WAIT_FRAME_DELAY: Yield until WaitTime reaches zero
 10: 0x0172 [0x76] CHECK_ENTITY_RENDER_FLAGS: Wait until EventEntity Render.Flags0 and Render.Flags3 conditions are met
 11: 0x0177 [0x00] END_REQSTACK()
```

### Event 10061

#### Metadata

| Field        | Value    |
|--------------|----------|
| Entrypoint   | 0x0178   |
| Data Size    | 29 bytes |
| Instructions | 10       |

```
      00 01 02 03 04 05 06 07  08 09 0A 0B 0C 0D 0E 0F
      -- -- -- -- -- -- -- --  -- -- -- -- -- -- -- --
0170:                          1E F0 FF FF 7F 6F 70 29          .....op)
0180: 08 B0 30 0F 01 0E 1D 06  80 23 29 08 B0 30 0F 01  ..0......#)..0..
0190: 0F 20 00 21 00                                    . .!.           
```

#### Opcodes

```
  0: 0x0178 [0x1E] EventEntity looks at LocalPlayer and starts talking
  1: 0x017D [0x6F] WAIT_FRAME_DELAY: Yield until WaitTime reaches zero
  2: 0x017E [0x70] WAIT_ENTITY_RENDER_FLAG: Wait while EventEntity->Render.Flags3 bit 2 is set (cancel turn if not)
  3: 0x017F [0x29] REQ_SET_WAIT(priority=0x08, entity_id=Taillegeas (ID: 17772720/0x010F30B0), tag_num=0x0E)
  4: 0x0186 [0x1D] PRINT_EVENT_MESSAGE(message_id=12751*)
    → "The palace is often the site for grand banquets that are attended by dignitaries from every nation. In times like these, we do our utmost to see that the needs of our important visitors are met."
  5: 0x0189 [0x23] WAIT_FOR_DIALOG_INTERACTION
  6: 0x018A [0x29] REQ_SET_WAIT(priority=0x08, entity_id=Taillegeas (ID: 17772720/0x010F30B0), tag_num=0x0F)
  7: 0x0191 [0x20] SET_CLI_EVENT_UC_FLAG: Unlock player control
  8: 0x0193 [0x21] END_EVENT
  9: 0x0194 [0x00] END_REQSTACK()
```

### Event 10057

#### Metadata

| Field        | Value   |
|--------------|---------|
| Entrypoint   | 0x0195  |
| Data Size    | 1 bytes |
| Instructions | 1       |

```
      00 01 02 03 04 05 06 07  08 09 0A 0B 0C 0D 0E 0F
      -- -- -- -- -- -- -- --  -- -- -- -- -- -- -- --
0190:                00                                      .          
```

#### Opcodes

```
  0: 0x0195 [0x00] END_REQSTACK()
```

### Event 65535.20

#### Metadata

| Field        | Value    |
|--------------|----------|
| Entrypoint   | 0x0196   |
| Data Size    | 10 bytes |
| Instructions | 2        |

```
      00 01 02 03 04 05 06 07  08 09 0A 0B 0C 0D 0E 0F
      -- -- -- -- -- -- -- --  -- -- -- -- -- -- -- --
0190:                   37 07  80 08 80 04 80 09 80 00        7.........
```

#### Opcodes

```
  0: 0x0196 [0x37] UPDATE_EVENT_POSITION_AND_DIR: x=31.000*, z=57.971*, y=1.995*, direction=270.0°*
  1: 0x019F [0x00] END_REQSTACK()
```

### Event 10059

#### Metadata

| Field        | Value     |
|--------------|-----------|
| Entrypoint   | 0x01A0    |
| Data Size    | 120 bytes |
| Instructions | 28        |

```
      00 01 02 03 04 05 06 07  08 09 0A 0B 0C 0D 0E 0F
      -- -- -- -- -- -- -- --  -- -- -- -- -- -- -- --
01A0: 1E F0 FF FF 7F 6F 70 02  08 10 0A 80 00 BA 01 2B  .....op........+
01B0: B0 30 0F 01 0B 80 23 01  D5 01 02 08 10 0C 80 00  .0....#.........
01C0: CD 01 2B B0 30 0F 01 0D  80 23 01 D5 01 2B B0 30  ..+.0....#...+.0
01D0: 0F 01 0E 80 23 29 08 B0  30 0F 01 0A 02 02 10 0A  ....#)..0.......
01E0: 80 00 EF 01 2B B0 30 0F  01 0F 80 23 01 F7 01 2B  ....+.0....#...+
01F0: B0 30 0F 01 10 80 23 29  08 B0 30 0F 01 0B 29 08  .0....#)..0...).
0200: B0 30 0F 01 0C 2B B0 30  0F 01 11 80 23 29 08 B0  .0...+.0....#)..
0210: 30 0F 01 0D 20 00 21 00                           0... .!.        
```

#### Opcodes

```
  0: 0x01A0 [0x1E] EventEntity looks at LocalPlayer and starts talking
  1: 0x01A5 [0x6F] WAIT_FRAME_DELAY: Yield until WaitTime reaches zero
  2: 0x01A6 [0x70] WAIT_ENTITY_RENDER_FLAG: Wait while EventEntity->Render.Flags3 bit 2 is set (cancel turn if not)
  3: 0x01A7 [0x02] IF !(Work_Zone[8] == 0*) GOTO 0x01BA
  4: 0x01AF [0x2B] Taillegeas (ID: 17772720/0x010F30B0) [12761*]:
    → "The following items have been requested: $1, $2, $3, $4, and $5. My future employment rests in your hands."
  5: 0x01B6 [0x23] WAIT_FOR_DIALOG_INTERACTION
  6: 0x01B7 [0x01] GOTO 0x01D5
  7: 0x01BA [0x02] IF !(Work_Zone[8] == 1*) GOTO 0x01CD
  8: 0x01C2 [0x2B] Taillegeas (ID: 17772720/0x010F30B0) [12759*]:
    → "The following items have been requested: $1, $2, and $3. My future employment rests in your hands."
  9: 0x01C9 [0x23] WAIT_FOR_DIALOG_INTERACTION
 10: 0x01CA [0x01] GOTO 0x01D5
 11: 0x01CD [0x2B] Taillegeas (ID: 17772720/0x010F30B0) [12760*]:
    → "The following items have been requested: $1, $2, $3, and $4. My future employment rests in your hands."
 12: 0x01D4 [0x23] WAIT_FOR_DIALOG_INTERACTION

SUBROUTINE_01D5:
 13: 0x01D5 [0x29] REQ_SET_WAIT(priority=0x08, entity_id=Taillegeas (ID: 17772720/0x010F30B0), tag_num=0x0A)
 14: 0x01DC [0x02] IF !(Work_Zone[2] == 0*) GOTO 0x01EF
 15: 0x01E4 [0x2B] Taillegeas (ID: 17772720/0x010F30B0) [12762*]:
    → "Lord Nag'molada often receives guests of all kinds, but I have never before been besieged with such bizarre requests."
 16: 0x01EB [0x23] WAIT_FOR_DIALOG_INTERACTION
 17: 0x01EC [0x01] GOTO 0x01F7
 18: 0x01EF [0x2B] Taillegeas (ID: 17772720/0x010F30B0) [12763*]:
    → "This is the first time Lady Esha'ntarl has ever made such a request of the palace staff. Furthermore, I do believe this is the first time she has personally received guests..."
 19: 0x01F6 [0x23] WAIT_FOR_DIALOG_INTERACTION

SUBROUTINE_01F7:
 20: 0x01F7 [0x29] REQ_SET_WAIT(priority=0x08, entity_id=Taillegeas (ID: 17772720/0x010F30B0), tag_num=0x0B)
 21: 0x01FE [0x29] REQ_SET_WAIT(priority=0x08, entity_id=Taillegeas (ID: 17772720/0x010F30B0), tag_num=0x0C)
 22: 0x0205 [0x2B] Taillegeas (ID: 17772720/0x010F30B0) [12764*]:
    → "While I am curious to know what kind of guests we are entertaining, a good servant does not intrude on the business of his employer."
 23: 0x020C [0x23] WAIT_FOR_DIALOG_INTERACTION
 24: 0x020D [0x29] REQ_SET_WAIT(priority=0x08, entity_id=Taillegeas (ID: 17772720/0x010F30B0), tag_num=0x0D)
 25: 0x0214 [0x20] SET_CLI_EVENT_UC_FLAG: Unlock player control
 26: 0x0216 [0x21] END_EVENT
 27: 0x0217 [0x00] END_REQSTACK()
```

### Event 10058

#### Metadata

| Field        | Value   |
|--------------|---------|
| Entrypoint   | 0x0218  |
| Data Size    | 1 bytes |
| Instructions | 1       |

```
      00 01 02 03 04 05 06 07  08 09 0A 0B 0C 0D 0E 0F
      -- -- -- -- -- -- -- --  -- -- -- -- -- -- -- --
0210:                          00                               .       
```

#### Opcodes

```
  0: 0x0218 [0x00] END_REQSTACK()
```

### Event 10060

#### Metadata

| Field        | Value    |
|--------------|----------|
| Entrypoint   | 0x0219   |
| Data Size    | 29 bytes |
| Instructions | 10       |

```
      00 01 02 03 04 05 06 07  08 09 0A 0B 0C 0D 0E 0F
      -- -- -- -- -- -- -- --  -- -- -- -- -- -- -- --
0210:                             1E F0 FF FF 7F 6F 70           .....op
0220: 29 08 B0 30 0F 01 02 1D  12 80 23 29 08 B0 30 0F  )..0......#)..0.
0230: 01 03 20 00 21 00                                 .. .!.          
```

#### Opcodes

```
  0: 0x0219 [0x1E] EventEntity looks at LocalPlayer and starts talking
  1: 0x021E [0x6F] WAIT_FRAME_DELAY: Yield until WaitTime reaches zero
  2: 0x021F [0x70] WAIT_ENTITY_RENDER_FLAG: Wait while EventEntity->Render.Flags3 bit 2 is set (cancel turn if not)
  3: 0x0220 [0x29] REQ_SET_WAIT(priority=0x08, entity_id=Taillegeas (ID: 17772720/0x010F30B0), tag_num=0x02)
  4: 0x0227 [0x1D] PRINT_EVENT_MESSAGE(message_id=12774*)
    → "Your assistance is greatly appreciated. I am certain [Lord Nag'molada/Lady Esha'ntarl]'s guests will be most satisfied with your efforts."
  5: 0x022A [0x23] WAIT_FOR_DIALOG_INTERACTION
  6: 0x022B [0x29] REQ_SET_WAIT(priority=0x08, entity_id=Taillegeas (ID: 17772720/0x010F30B0), tag_num=0x03)
  7: 0x0232 [0x20] SET_CLI_EVENT_UC_FLAG: Unlock player control
  8: 0x0234 [0x21] END_EVENT
  9: 0x0235 [0x00] END_REQSTACK()
```

### Event 10235

#### Metadata

| Field        | Value   |
|--------------|---------|
| Entrypoint   | 0x0236  |
| Data Size    | 1 bytes |
| Instructions | 1       |

```
      00 01 02 03 04 05 06 07  08 09 0A 0B 0C 0D 0E 0F
      -- -- -- -- -- -- -- --  -- -- -- -- -- -- -- --
0230:                   00                                    .         
```

#### Opcodes

```
  0: 0x0236 [0x00] END_REQSTACK()
```

### Event 65535.21

#### Metadata

| Field        | Value    |
|--------------|----------|
| Entrypoint   | 0x0237   |
| Data Size    | 45 bytes |
| Instructions | 7        |

```
      00 01 02 03 04 05 06 07  08 09 0A 0B 0C 0D 0E 0F
      -- -- -- -- -- -- -- --  -- -- -- -- -- -- -- --
0230:                      32  13 80 1F 00 14 80 15 80         2........
0240: 04 80 1F 01 1C 16 80 5B  00 80 F8 FF FF 7F F8 FF  .......[........
0250: FF 7F 74 68 6B 31 53 F8  FF FF 7F F8 FF FF 7F 74  ..thk1S........t
0260: 68 6B 31 00                                       hk1.            
```

#### Opcodes

```
  0: 0x0237 [0x32] ExtData[1]->MainSpeed = 13* * 0.1
  1: 0x023A [0x1F] MOVE_ENTITY: EventEntity moves to X=31.017*, Z=60.850*, Y=1.995*
  2: 0x0242 [0x1F] MOVE_ENTITY: Update entity position (mode=1)
  3: 0x0244 [0x1C] WAIT(30* ticks)
  4: 0x0247 [0x5B] LOAD_EXT_SCHEDULER: Load scheduler "thk1" with entities [EventEntity, EventEntity], work=10*
  5: 0x0256 [0x53] WAIT_SCHEDULER_TASK: Wait for scheduler "thk1" with entities [EventEntity, EventEntity]
  6: 0x0263 [0x00] END_REQSTACK()
```

### Event 65535.22

#### Metadata

| Field        | Value    |
|--------------|----------|
| Entrypoint   | 0x0264   |
| Data Size    | 14 bytes |
| Instructions | 4        |

```
      00 01 02 03 04 05 06 07  08 09 0A 0B 0C 0D 0E 0F
      -- -- -- -- -- -- -- --  -- -- -- -- -- -- -- --
0260:             32 17 80 1F  00 18 80 19 80 04 80 1F      2...........
0270: 01 00                                             ..              
```

#### Opcodes

```
  0: 0x0264 [0x32] ExtData[1]->MainSpeed = 40* * 0.1
  1: 0x0267 [0x1F] MOVE_ENTITY: EventEntity moves to X=26.606*, Z=62.686*, Y=1.995*
  2: 0x026F [0x1F] MOVE_ENTITY: Update entity position (mode=1)
  3: 0x0271 [0x00] END_REQSTACK()
```

### Event 65535.23

#### Metadata

| Field        | Value    |
|--------------|----------|
| Entrypoint   | 0x0272   |
| Data Size    | 14 bytes |
| Instructions | 4        |

```
      00 01 02 03 04 05 06 07  08 09 0A 0B 0C 0D 0E 0F
      -- -- -- -- -- -- -- --  -- -- -- -- -- -- -- --
0270:       32 13 80 1F 00 1A  80 1B 80 1C 80 1F 01 00    2.............
```

#### Opcodes

```
  0: 0x0272 [0x32] ExtData[1]->MainSpeed = 13* * 0.1
  1: 0x0275 [0x1F] MOVE_ENTITY: EventEntity moves to X=29.407*, Z=62.043*, Y=1.991*
  2: 0x027D [0x1F] MOVE_ENTITY: Update entity position (mode=1)
  3: 0x027F [0x00] END_REQSTACK()
```

### Event 65535.24

#### Metadata

| Field        | Value    |
|--------------|----------|
| Entrypoint   | 0x0280   |
| Data Size    | 29 bytes |
| Instructions | 8        |

```
      00 01 02 03 04 05 06 07  08 09 0A 0B 0C 0D 0E 0F
      -- -- -- -- -- -- -- --  -- -- -- -- -- -- -- --
0280: 33 01 32 17 80 1F 00 1D  80 1E 80 04 80 1F 01 4B  3.2............K
0290: F8 FF FF 7F 1F 80 6F 76  F8 FF FF 7F 00           ......ov.....   
```

#### Opcodes

```
  0: 0x0280 [0x33] EventEntity->Render.Flags0 |= 0x200000 // Bit 21 (flag=0x01)
  1: 0x0282 [0x32] ExtData[1]->MainSpeed = 40* * 0.1
  2: 0x0285 [0x1F] MOVE_ENTITY: EventEntity moves to X=25.072*, Z=64.258*, Y=1.995*
  3: 0x028D [0x1F] MOVE_ENTITY: Update entity position (mode=1)
  4: 0x028F [0x4B] UPDATE_ENTITY_YAW(entity=EventEntity, yaw=11.1°*)
  5: 0x0296 [0x6F] WAIT_FRAME_DELAY: Yield until WaitTime reaches zero
  6: 0x0297 [0x76] CHECK_ENTITY_RENDER_FLAGS: Wait until EventEntity Render.Flags0 and Render.Flags3 conditions are met
  7: 0x029C [0x00] END_REQSTACK()
```

### Event 65535.25

#### Metadata

| Field        | Value    |
|--------------|----------|
| Entrypoint   | 0x029D   |
| Data Size    | 12 bytes |
| Instructions | 3        |

```
      00 01 02 03 04 05 06 07  08 09 0A 0B 0C 0D 0E 0F
      -- -- -- -- -- -- -- --  -- -- -- -- -- -- -- --
0290:                                         33 00 37               3.7
02A0: 20 80 21 80 04 80 22 80  00                        .!..."..       
```

#### Opcodes

```
  0: 0x029D [0x33] EventEntity->Render.Flags0 &= ~ 0x200000 // Bit 21 (flag=0x00)
  1: 0x029F [0x37] UPDATE_EVENT_POSITION_AND_DIR: x=27.640*, z=62.633*, y=1.995*, direction=201.1°*
  2: 0x02A8 [0x00] END_REQSTACK()
```

### Event 65535.26

#### Metadata

| Field        | Value    |
|--------------|----------|
| Entrypoint   | 0x02A9   |
| Data Size    | 14 bytes |
| Instructions | 4        |

```
      00 01 02 03 04 05 06 07  08 09 0A 0B 0C 0D 0E 0F
      -- -- -- -- -- -- -- --  -- -- -- -- -- -- -- --
02A0:                             32 13 80 1F 00 23 80           2....#.
02B0: 24 80 1C 80 1F 01 00                              $......         
```

#### Opcodes

```
  0: 0x02A9 [0x32] ExtData[1]->MainSpeed = 13* * 0.1
  1: 0x02AC [0x1F] MOVE_ENTITY: EventEntity moves to X=30.645*, Z=61.690*, Y=1.991*
  2: 0x02B4 [0x1F] MOVE_ENTITY: Update entity position (mode=1)
  3: 0x02B6 [0x00] END_REQSTACK()
```

### Event 10239

#### Metadata

| Field        | Value    |
|--------------|----------|
| Entrypoint   | 0x02B7   |
| Data Size    | 56 bytes |
| Instructions | 15       |

```
      00 01 02 03 04 05 06 07  08 09 0A 0B 0C 0D 0E 0F
      -- -- -- -- -- -- -- --  -- -- -- -- -- -- -- --
02B0:                      1E  F0 FF FF 7F 6F 70 29 08         .....op).
02C0: B0 30 0F 01 0A 2B B0 30  0F 01 25 80 23 2B B0 30  .0...+.0..%.#+.0
02D0: 0F 01 26 80 23 29 08 B0  30 0F 01 0C 2B B0 30 0F  ..&.#)..0...+.0.
02E0: 01 27 80 23 29 08 B0 30  0F 01 0D 20 00 21 00     .'.#)..0... .!. 
```

#### Opcodes

```
  0: 0x02B7 [0x1E] EventEntity looks at LocalPlayer and starts talking
  1: 0x02BC [0x6F] WAIT_FRAME_DELAY: Yield until WaitTime reaches zero
  2: 0x02BD [0x70] WAIT_ENTITY_RENDER_FLAG: Wait while EventEntity->Render.Flags3 bit 2 is set (cancel turn if not)
  3: 0x02BE [0x29] REQ_SET_WAIT(priority=0x08, entity_id=Taillegeas (ID: 17772720/0x010F30B0), tag_num=0x0A)
  4: 0x02C5 [0x2B] Taillegeas (ID: 17772720/0x010F30B0) [15382*]:
    → "What manner of farce is this?"
  5: 0x02CC [0x23] WAIT_FOR_DIALOG_INTERACTION
  6: 0x02CD [0x2B] Taillegeas (ID: 17772720/0x010F30B0) [15383*]:
    → "An uncouth Tarutaru claiming to be an esteemed guest of Lady Esha'ntarl is running amok demanding the Trust initiative scroll."
  7: 0x02D4 [0x23] WAIT_FOR_DIALOG_INTERACTION
  8: 0x02D5 [0x29] REQ_SET_WAIT(priority=0x08, entity_id=Taillegeas (ID: 17772720/0x010F30B0), tag_num=0x0C)
  9: 0x02DC [0x2B] Taillegeas (ID: 17772720/0x010F30B0) [15384*]:
    → "My stomach churns each time this ruffian brings up the lady's honorable name. Filth and lies!"
 10: 0x02E3 [0x23] WAIT_FOR_DIALOG_INTERACTION
 11: 0x02E4 [0x29] REQ_SET_WAIT(priority=0x08, entity_id=Taillegeas (ID: 17772720/0x010F30B0), tag_num=0x0D)
 12: 0x02EB [0x20] SET_CLI_EVENT_UC_FLAG: Unlock player control
 13: 0x02ED [0x21] END_EVENT
 14: 0x02EE [0x00] END_REQSTACK()
```
