# 17772545 - Nelcabrit

## Common Data

| Field            | Value                     |
|------------------|---------------------------|
| Zone             | Ru'Lude Gardens (ID: 243) |
| Block Size       | 900 bytes                 |
| Total Events     | 24                        |
| References Count | 33                        |

## List of Events

| Event ID                 | Entrypoint   |   Size |   Instructions |
|--------------------------|--------------|--------|----------------|
| [65535](#event-65535)    | 0x0000       |      4 |              2 |
| [102](#event-102)        | 0x0004       |     20 |              6 |
| [46](#event-46)          | 0x0018       |     20 |              6 |
| [47](#event-47)          | 0x002C       |     20 |              6 |
| [42](#event-42)          | 0x0040       |      1 |              1 |
| [67](#event-67)          | 0x0041       |     41 |             11 |
| [140](#event-140)        | 0x006A       |     37 |              9 |
| [49](#event-49)          | 0x008F       |     37 |              9 |
| [48](#event-48)          | 0x00B4       |     37 |              9 |
| [45](#event-45)          | 0x00D9       |     37 |              9 |
| [130](#event-130)        | 0x00FE       |      1 |              1 |
| [133](#event-133)        | 0x00FF       |     37 |              9 |
| [136](#event-136)        | 0x0124       |     56 |             12 |
| [36](#event-36)          | 0x015C       |    106 |             21 |
| [56](#event-56)          | 0x01C6       |     28 |              8 |
| [106](#event-106)        | 0x01E2       |     28 |              8 |
| [65535.1](#event-655351) | 0x01FE       |     31 |              8 |
| [65535.2](#event-655352) | 0x021D       |     19 |              3 |
| [65535.3](#event-655353) | 0x0230       |      9 |              3 |
| [65535.4](#event-655354) | 0x0239       |     19 |              3 |
| [65535.5](#event-655355) | 0x024C       |     29 |              3 |
| [65535.6](#event-655356) | 0x0269       |     29 |              3 |
| [65535.7](#event-655357) | 0x0286       |      9 |              3 |
| [65535.8](#event-655358) | 0x028F       |      1 |              1 |

## DAT References (imed_data)

|   Index | Hex Value   |   Dec Value |
|---------|-------------|-------------|
|       0 | 0x000D      |          13 |
|       1 | 0x270B      |        9995 |
|       2 | 0x270E      |        9998 |
|       3 | 0x270F      |        9999 |
|       4 | 0x0014      |          20 |
|       5 | 0x2740      |       10048 |
|       6 | 0x2741      |       10049 |
|       7 | 0x2746      |       10054 |
|       8 | 0x275B      |       10075 |
|       9 | 0x275E      |       10078 |
|      10 | 0x2761      |       10081 |
|      11 | 0x2783      |       10115 |
|      12 | 0x279C      |       10140 |
|      13 | 0x279D      |       10141 |
|      14 | 0x27BF      |       10175 |
|      15 | 0x0015      |          21 |
|      16 | 0x005A      |          90 |
|      17 | 0x0023      |          35 |
|      18 | 0x00C9      |         201 |
|      19 | 0x0000      |           0 |
|      20 | 0x00D2      |         210 |
|      21 | 0x27C0      |       10176 |
|      22 | 0x27C1      |       10177 |
|      23 | 0x27C2      |       10178 |
|      24 | 0x27C3      |       10179 |
|      25 | 0x00F0      |         240 |
|      26 | 0xFFFF81AC  |  4294934956 |
|      27 | 0xFFFEFE46  |  4294901318 |
|      28 | 0x2327      |        8999 |
|      29 | 0x043B      |        1083 |
|      30 | 0xFFFF7D3D  |  4294933821 |
|      31 | 0xFFFEE9DF  |  4294896095 |
|      32 | 0x003C      |          60 |

## String References

- **9995**: Welcome to the Embassy of San d'Oria. If you ever need help during your stay, do not hesitate to contact us.
- **9998**: Welcome to the Embassy of San d'Oria. Ah, I can see you're a Bastoker... The Embassy of Bastok is outside to the right.
- **9999**: Welcome to the Embassy of San d'Oria. But you're a Windurstian, are you not? The Embassy of Windurst is out on the other side.
- **10048**: Delkfutt's Tower is on the island of Qufim. Avail yourself of the merchants in town, and assemble a party of fellow adventurers.
- **10049**: Foul beasts lurk around every corner. Be on your guard.
- **10054**: Welcome back. Her Excellency has returned and is waiting for you. Come, proceed into her office.
- **10075**: For the time being, apply your efforts to our righteous conquest of the regions adjacent to Jeuno.
- **10078**: Well met, <Player>. Her Excellency requires your service. Once you have completed your current mission, return and seek an audience with her.
- **10081**: Her Excellency requires help in an important matter. Proceed, and listen well.
- **10115**: Our prayers are with you. Now, make haste to the archduke's palace!
- **10140**: Excellent work. How fares the archduke?
- **10141**: He wants you to gather the magicite? I know nothing about objects of lore, but perhaps you should try learning more about Davoi, Beadeaux, and Castle Oztroja.
- **10175**: <Player>! At long last you return! Congratulations on your success!
- **10176**: I regret you have no time for reprieve. Our beloved San d'Oria is in danger!
- **10177**: Her Excellency is away, so please take this to the court in her stead. Take the airship! I will remain and do what I can.
- **10178**: Make haste to San d'Oria! You can board the airship now, can you not? I will remain here and find out what I can.
- **10179**: Well, I am relieved there was no danger. Our embassy is safe as well. For now, obey the court's commands.

## Events

### Event 65535

#### Metadata

| Field        | Value   |
|--------------|---------|
| Entrypoint   | 0x0000  |
| Data Size    | 4 bytes |
| Instructions | 2       |

```
      00 01 02 03 04 05 06 07  08 09 0A 0B 0C 0D 0E 0F
      -- -- -- -- -- -- -- --  -- -- -- -- -- -- -- --
0000: 32 00 80 00                                       2...            
```

#### Opcodes

```
  0: 0x0000 [0x32] ExtData[1]->MainSpeed = 13* * 0.1
  1: 0x0003 [0x00] END_REQSTACK()
```

### Event 102

#### Metadata

| Field        | Value    |
|--------------|----------|
| Entrypoint   | 0x0004   |
| Data Size    | 20 bytes |
| Instructions | 6        |

```
      00 01 02 03 04 05 06 07  08 09 0A 0B 0C 0D 0E 0F
      -- -- -- -- -- -- -- --  -- -- -- -- -- -- -- --
0000:             4A F0 FF FF  7F F8 FF FF 7F 1E F0 FF      J...........
0010: FF 7F 1D 01 80 23 21 00                           .....#!.        
```

#### Opcodes

```
  0: 0x0004 [0x4A] LocalPlayer looks at EventEntity
  1: 0x000D [0x1E] EventEntity looks at LocalPlayer and starts talking
  2: 0x0012 [0x1D] PRINT_EVENT_MESSAGE(message_id=9995*)
    → "Welcome to the Embassy of San d'Oria. If you ever need help during your stay, do not hesitate to contact us."
  3: 0x0015 [0x23] WAIT_FOR_DIALOG_INTERACTION
  4: 0x0016 [0x21] END_EVENT
  5: 0x0017 [0x00] END_REQSTACK()
```

### Event 46

#### Metadata

| Field        | Value    |
|--------------|----------|
| Entrypoint   | 0x0018   |
| Data Size    | 20 bytes |
| Instructions | 6        |

```
      00 01 02 03 04 05 06 07  08 09 0A 0B 0C 0D 0E 0F
      -- -- -- -- -- -- -- --  -- -- -- -- -- -- -- --
0010:                          4A F0 FF FF 7F F8 FF FF          J.......
0020: 7F 1E F0 FF FF 7F 1D 02  80 23 21 00              .........#!.    
```

#### Opcodes

```
  0: 0x0018 [0x4A] LocalPlayer looks at EventEntity
  1: 0x0021 [0x1E] EventEntity looks at LocalPlayer and starts talking
  2: 0x0026 [0x1D] PRINT_EVENT_MESSAGE(message_id=9998*)
    → "Welcome to the Embassy of San d'Oria. Ah, I can see you're a Bastoker... The Embassy of Bastok is outside to the right."
  3: 0x0029 [0x23] WAIT_FOR_DIALOG_INTERACTION
  4: 0x002A [0x21] END_EVENT
  5: 0x002B [0x00] END_REQSTACK()
```

### Event 47

#### Metadata

| Field        | Value    |
|--------------|----------|
| Entrypoint   | 0x002C   |
| Data Size    | 20 bytes |
| Instructions | 6        |

```
      00 01 02 03 04 05 06 07  08 09 0A 0B 0C 0D 0E 0F
      -- -- -- -- -- -- -- --  -- -- -- -- -- -- -- --
0020:                                      4A F0 FF FF              J...
0030: 7F F8 FF FF 7F 1E F0 FF  FF 7F 1D 03 80 23 21 00  .............#!.
```

#### Opcodes

```
  0: 0x002C [0x4A] LocalPlayer looks at EventEntity
  1: 0x0035 [0x1E] EventEntity looks at LocalPlayer and starts talking
  2: 0x003A [0x1D] PRINT_EVENT_MESSAGE(message_id=9999*)
    → "Welcome to the Embassy of San d'Oria. But you're a Windurstian, are you not? The Embassy of Windurst is out on the other side."
  3: 0x003D [0x23] WAIT_FOR_DIALOG_INTERACTION
  4: 0x003E [0x21] END_EVENT
  5: 0x003F [0x00] END_REQSTACK()
```

### Event 42

#### Metadata

| Field        | Value   |
|--------------|---------|
| Entrypoint   | 0x0040  |
| Data Size    | 1 bytes |
| Instructions | 1       |

```
      00 01 02 03 04 05 06 07  08 09 0A 0B 0C 0D 0E 0F
      -- -- -- -- -- -- -- --  -- -- -- -- -- -- -- --
0040: 00                                                .               
```

#### Opcodes

```
  0: 0x0040 [0x00] END_REQSTACK()
```

### Event 67

#### Metadata

| Field        | Value    |
|--------------|----------|
| Entrypoint   | 0x0041   |
| Data Size    | 41 bytes |
| Instructions | 11       |

```
      00 01 02 03 04 05 06 07  08 09 0A 0B 0C 0D 0E 0F
      -- -- -- -- -- -- -- --  -- -- -- -- -- -- -- --
0040:    4A F0 FF FF 7F F8 FF  FF 7F 1E F0 FF FF 7F 6F   J.............o
0050: 70 66 04 80 F8 FF FF 7F  F8 FF FF 7F 74 6C 6B 30  pf..........tlk0
0060: 1D 05 80 23 1D 06 80 23  21 00                    ...#...#!.      
```

#### Opcodes

```
  0: 0x0041 [0x4A] LocalPlayer looks at EventEntity
  1: 0x004A [0x1E] EventEntity looks at LocalPlayer and starts talking
  2: 0x004F [0x6F] WAIT_FRAME_DELAY: Yield until WaitTime reaches zero
  3: 0x0050 [0x70] WAIT_ENTITY_RENDER_FLAG: Wait while EventEntity->Render.Flags3 bit 2 is set (cancel turn if not)
  4: 0x0051 [0x66] LOAD_EXT_SCHEDULER_MAIN: Load scheduler "tlk0" with entities [EventEntity, EventEntity], work=20*
  5: 0x0060 [0x1D] PRINT_EVENT_MESSAGE(message_id=10048*)
    → "Delkfutt's Tower is on the island of Qufim. Avail yourself of the merchants in town, and assemble a party of fellow adventurers."
  6: 0x0063 [0x23] WAIT_FOR_DIALOG_INTERACTION
  7: 0x0064 [0x1D] PRINT_EVENT_MESSAGE(message_id=10049*)
    → "Foul beasts lurk around every corner. Be on your guard."
  8: 0x0067 [0x23] WAIT_FOR_DIALOG_INTERACTION
  9: 0x0068 [0x21] END_EVENT
 10: 0x0069 [0x00] END_REQSTACK()
```

### Event 140

#### Metadata

| Field        | Value    |
|--------------|----------|
| Entrypoint   | 0x006A   |
| Data Size    | 37 bytes |
| Instructions | 9        |

```
      00 01 02 03 04 05 06 07  08 09 0A 0B 0C 0D 0E 0F
      -- -- -- -- -- -- -- --  -- -- -- -- -- -- -- --
0060:                                4A F0 FF FF 7F F8            J.....
0070: FF FF 7F 1E F0 FF FF 7F  6F 70 66 04 80 F8 FF FF  ........opf.....
0080: 7F F8 FF FF 7F 74 6C 6B  30 1D 07 80 23 21 00     .....tlk0...#!. 
```

#### Opcodes

```
  0: 0x006A [0x4A] LocalPlayer looks at EventEntity
  1: 0x0073 [0x1E] EventEntity looks at LocalPlayer and starts talking
  2: 0x0078 [0x6F] WAIT_FRAME_DELAY: Yield until WaitTime reaches zero
  3: 0x0079 [0x70] WAIT_ENTITY_RENDER_FLAG: Wait while EventEntity->Render.Flags3 bit 2 is set (cancel turn if not)
  4: 0x007A [0x66] LOAD_EXT_SCHEDULER_MAIN: Load scheduler "tlk0" with entities [EventEntity, EventEntity], work=20*
  5: 0x0089 [0x1D] PRINT_EVENT_MESSAGE(message_id=10054*)
    → "Welcome back. Her Excellency has returned and is waiting for you. Come, proceed into her office."
  6: 0x008C [0x23] WAIT_FOR_DIALOG_INTERACTION
  7: 0x008D [0x21] END_EVENT
  8: 0x008E [0x00] END_REQSTACK()
```

### Event 49

#### Metadata

| Field        | Value    |
|--------------|----------|
| Entrypoint   | 0x008F   |
| Data Size    | 37 bytes |
| Instructions | 9        |

```
      00 01 02 03 04 05 06 07  08 09 0A 0B 0C 0D 0E 0F
      -- -- -- -- -- -- -- --  -- -- -- -- -- -- -- --
0080:                                               4A                 J
0090: F0 FF FF 7F F8 FF FF 7F  1E F0 FF FF 7F 6F 70 66  .............opf
00A0: 04 80 F8 FF FF 7F F8 FF  FF 7F 74 6C 6B 30 1D 08  ..........tlk0..
00B0: 80 23 21 00                                       .#!.            
```

#### Opcodes

```
  0: 0x008F [0x4A] LocalPlayer looks at EventEntity
  1: 0x0098 [0x1E] EventEntity looks at LocalPlayer and starts talking
  2: 0x009D [0x6F] WAIT_FRAME_DELAY: Yield until WaitTime reaches zero
  3: 0x009E [0x70] WAIT_ENTITY_RENDER_FLAG: Wait while EventEntity->Render.Flags3 bit 2 is set (cancel turn if not)
  4: 0x009F [0x66] LOAD_EXT_SCHEDULER_MAIN: Load scheduler "tlk0" with entities [EventEntity, EventEntity], work=20*
  5: 0x00AE [0x1D] PRINT_EVENT_MESSAGE(message_id=10075*)
    → "For the time being, apply your efforts to our righteous conquest of the regions adjacent to Jeuno."
  6: 0x00B1 [0x23] WAIT_FOR_DIALOG_INTERACTION
  7: 0x00B2 [0x21] END_EVENT
  8: 0x00B3 [0x00] END_REQSTACK()
```

### Event 48

#### Metadata

| Field        | Value    |
|--------------|----------|
| Entrypoint   | 0x00B4   |
| Data Size    | 37 bytes |
| Instructions | 9        |

```
      00 01 02 03 04 05 06 07  08 09 0A 0B 0C 0D 0E 0F
      -- -- -- -- -- -- -- --  -- -- -- -- -- -- -- --
00B0:             4A F0 FF FF  7F F8 FF FF 7F 1E F0 FF      J...........
00C0: FF 7F 6F 70 66 04 80 F8  FF FF 7F F8 FF FF 7F 74  ..opf..........t
00D0: 6C 6B 30 1D 09 80 23 21  00                       lk0...#!.       
```

#### Opcodes

```
  0: 0x00B4 [0x4A] LocalPlayer looks at EventEntity
  1: 0x00BD [0x1E] EventEntity looks at LocalPlayer and starts talking
  2: 0x00C2 [0x6F] WAIT_FRAME_DELAY: Yield until WaitTime reaches zero
  3: 0x00C3 [0x70] WAIT_ENTITY_RENDER_FLAG: Wait while EventEntity->Render.Flags3 bit 2 is set (cancel turn if not)
  4: 0x00C4 [0x66] LOAD_EXT_SCHEDULER_MAIN: Load scheduler "tlk0" with entities [EventEntity, EventEntity], work=20*
  5: 0x00D3 [0x1D] PRINT_EVENT_MESSAGE(message_id=10078*)
    → "Well met, <Player>. Her Excellency requires your service. Once you have completed your current mission, return and seek an audience with her."
  6: 0x00D6 [0x23] WAIT_FOR_DIALOG_INTERACTION
  7: 0x00D7 [0x21] END_EVENT
  8: 0x00D8 [0x00] END_REQSTACK()
```

### Event 45

#### Metadata

| Field        | Value    |
|--------------|----------|
| Entrypoint   | 0x00D9   |
| Data Size    | 37 bytes |
| Instructions | 9        |

```
      00 01 02 03 04 05 06 07  08 09 0A 0B 0C 0D 0E 0F
      -- -- -- -- -- -- -- --  -- -- -- -- -- -- -- --
00D0:                             4A F0 FF FF 7F F8 FF           J......
00E0: FF 7F 1E F0 FF FF 7F 6F  70 66 04 80 F8 FF FF 7F  .......opf......
00F0: F8 FF FF 7F 74 6C 6B 30  1D 0A 80 23 21 00        ....tlk0...#!.  
```

#### Opcodes

```
  0: 0x00D9 [0x4A] LocalPlayer looks at EventEntity
  1: 0x00E2 [0x1E] EventEntity looks at LocalPlayer and starts talking
  2: 0x00E7 [0x6F] WAIT_FRAME_DELAY: Yield until WaitTime reaches zero
  3: 0x00E8 [0x70] WAIT_ENTITY_RENDER_FLAG: Wait while EventEntity->Render.Flags3 bit 2 is set (cancel turn if not)
  4: 0x00E9 [0x66] LOAD_EXT_SCHEDULER_MAIN: Load scheduler "tlk0" with entities [EventEntity, EventEntity], work=20*
  5: 0x00F8 [0x1D] PRINT_EVENT_MESSAGE(message_id=10081*)
    → "Her Excellency requires help in an important matter. Proceed, and listen well."
  6: 0x00FB [0x23] WAIT_FOR_DIALOG_INTERACTION
  7: 0x00FC [0x21] END_EVENT
  8: 0x00FD [0x00] END_REQSTACK()
```

### Event 130

#### Metadata

| Field        | Value   |
|--------------|---------|
| Entrypoint   | 0x00FE  |
| Data Size    | 1 bytes |
| Instructions | 1       |

```
      00 01 02 03 04 05 06 07  08 09 0A 0B 0C 0D 0E 0F
      -- -- -- -- -- -- -- --  -- -- -- -- -- -- -- --
00F0:                                            00                   . 
```

#### Opcodes

```
  0: 0x00FE [0x00] END_REQSTACK()
```

### Event 133

#### Metadata

| Field        | Value    |
|--------------|----------|
| Entrypoint   | 0x00FF   |
| Data Size    | 37 bytes |
| Instructions | 9        |

```
      00 01 02 03 04 05 06 07  08 09 0A 0B 0C 0D 0E 0F
      -- -- -- -- -- -- -- --  -- -- -- -- -- -- -- --
00F0:                                               4A                 J
0100: F0 FF FF 7F F8 FF FF 7F  1E F0 FF FF 7F 6F 70 66  .............opf
0110: 04 80 F8 FF FF 7F F8 FF  FF 7F 74 6C 6B 30 1D 0B  ..........tlk0..
0120: 80 23 21 00                                       .#!.            
```

#### Opcodes

```
  0: 0x00FF [0x4A] LocalPlayer looks at EventEntity
  1: 0x0108 [0x1E] EventEntity looks at LocalPlayer and starts talking
  2: 0x010D [0x6F] WAIT_FRAME_DELAY: Yield until WaitTime reaches zero
  3: 0x010E [0x70] WAIT_ENTITY_RENDER_FLAG: Wait while EventEntity->Render.Flags3 bit 2 is set (cancel turn if not)
  4: 0x010F [0x66] LOAD_EXT_SCHEDULER_MAIN: Load scheduler "tlk0" with entities [EventEntity, EventEntity], work=20*
  5: 0x011E [0x1D] PRINT_EVENT_MESSAGE(message_id=10115*)
    → "Our prayers are with you. Now, make haste to the archduke's palace!"
  6: 0x0121 [0x23] WAIT_FOR_DIALOG_INTERACTION
  7: 0x0122 [0x21] END_EVENT
  8: 0x0123 [0x00] END_REQSTACK()
```

### Event 136

#### Metadata

| Field        | Value    |
|--------------|----------|
| Entrypoint   | 0x0124   |
| Data Size    | 56 bytes |
| Instructions | 12       |

```
      00 01 02 03 04 05 06 07  08 09 0A 0B 0C 0D 0E 0F
      -- -- -- -- -- -- -- --  -- -- -- -- -- -- -- --
0120:             4A F0 FF FF  7F F8 FF FF 7F 1E F0 FF      J...........
0130: FF 7F 6F 70 66 04 80 F8  FF FF 7F F8 FF FF 7F 74  ..opf..........t
0140: 6C 6B 30 1D 0C 80 23 66  04 80 F8 FF FF 7F F8 FF  lk0...#f........
0150: FF 7F 74 68 6B 31 1D 0D  80 23 21 00              ..thk1...#!.    
```

#### Opcodes

```
  0: 0x0124 [0x4A] LocalPlayer looks at EventEntity
  1: 0x012D [0x1E] EventEntity looks at LocalPlayer and starts talking
  2: 0x0132 [0x6F] WAIT_FRAME_DELAY: Yield until WaitTime reaches zero
  3: 0x0133 [0x70] WAIT_ENTITY_RENDER_FLAG: Wait while EventEntity->Render.Flags3 bit 2 is set (cancel turn if not)
  4: 0x0134 [0x66] LOAD_EXT_SCHEDULER_MAIN: Load scheduler "tlk0" with entities [EventEntity, EventEntity], work=20*
  5: 0x0143 [0x1D] PRINT_EVENT_MESSAGE(message_id=10140*)
    → "Excellent work. How fares the archduke?"
  6: 0x0146 [0x23] WAIT_FOR_DIALOG_INTERACTION
  7: 0x0147 [0x66] LOAD_EXT_SCHEDULER_MAIN: Load scheduler "thk1" with entities [EventEntity, EventEntity], work=20*
  8: 0x0156 [0x1D] PRINT_EVENT_MESSAGE(message_id=10141*)
    → "He wants you to gather the magicite? I know nothing about objects of lore, but perhaps you should try learning more about Davoi, Beadeaux, and Castle Oztroja."
  9: 0x0159 [0x23] WAIT_FOR_DIALOG_INTERACTION
 10: 0x015A [0x21] END_EVENT
 11: 0x015B [0x00] END_REQSTACK()
```

### Event 36

#### Metadata

| Field        | Value     |
|--------------|-----------|
| Entrypoint   | 0x015C    |
| Data Size    | 106 bytes |
| Instructions | 21        |

```
      00 01 02 03 04 05 06 07  08 09 0A 0B 0C 0D 0E 0F
      -- -- -- -- -- -- -- --  -- -- -- -- -- -- -- --
0150:                                      20 01 42 1E               .B.
0160: F0 FF FF 7F 6F 70 1D 0E  80 23 66 0F 80 F8 FF FF  ....op...#f.....
0170: 7F F8 FF FF 7F 73 6C 30  30 1C 10 80 7D 11 80 45  .....sl00...}..E
0180: 12 80 F0 FF FF 7F F0 FF  FF 7F 71 73 74 63 13 80  ..........qstc..
0190: 1C 14 80 53 F8 FF FF 7F  F8 FF FF 7F 73 6C 30 30  ...S........sl00
01A0: 1D 15 80 23 66 04 80 F8  FF FF 7F F8 FF FF 7F 70  ...#f..........p
01B0: 61 73 30 53 F8 FF FF 7F  F8 FF FF 7F 70 61 73 30  as0S........pas0
01C0: 1D 16 80 23 21 00                                 ...#!.          
```

#### Opcodes

```
  0: 0x015C [0x20] SET_CLI_EVENT_UC_FLAG: Lock player control
  1: 0x015E [0x42] SET_CLI_EVENT_CANCEL_DATA()
  2: 0x015F [0x1E] EventEntity looks at LocalPlayer and starts talking
  3: 0x0164 [0x6F] WAIT_FRAME_DELAY: Yield until WaitTime reaches zero
  4: 0x0165 [0x70] WAIT_ENTITY_RENDER_FLAG: Wait while EventEntity->Render.Flags3 bit 2 is set (cancel turn if not)
  5: 0x0166 [0x1D] PRINT_EVENT_MESSAGE(message_id=10175*)
    → "<Player>! At long last you return! Congratulations on your success!"
  6: 0x0169 [0x23] WAIT_FOR_DIALOG_INTERACTION
  7: 0x016A [0x66] LOAD_EXT_SCHEDULER_MAIN: Load scheduler "sl00" with entities [EventEntity, EventEntity], work=21*
  8: 0x0179 [0x1C] WAIT(90* ticks)
  9: 0x017C [0x7D] LOAD_START_SCHEDULER_PLAYER: Load scheduler with animation_id 32785
 10: 0x017F [0x45] LOAD_SCHEDULED_TASK: Load scheduler "qstc" with entities [LocalPlayer, LocalPlayer], work=[201*, 0*]
 11: 0x0190 [0x1C] WAIT(210* ticks)
 12: 0x0193 [0x53] WAIT_SCHEDULER_TASK: Wait for scheduler "sl00" with entities [EventEntity, EventEntity]
 13: 0x01A0 [0x1D] PRINT_EVENT_MESSAGE(message_id=10176*)
    → "I regret you have no time for reprieve. Our beloved San d'Oria is in danger!"
 14: 0x01A3 [0x23] WAIT_FOR_DIALOG_INTERACTION
 15: 0x01A4 [0x66] LOAD_EXT_SCHEDULER_MAIN: Load scheduler "pas0" with entities [EventEntity, EventEntity], work=20*
 16: 0x01B3 [0x53] WAIT_SCHEDULER_TASK: Wait for scheduler "pas0" with entities [EventEntity, EventEntity]
 17: 0x01C0 [0x1D] PRINT_EVENT_MESSAGE(message_id=10177*)
    → "Her Excellency is away, so please take this to the court in her stead. Take the airship! I will remain and do what I can."
 18: 0x01C3 [0x23] WAIT_FOR_DIALOG_INTERACTION
 19: 0x01C4 [0x21] END_EVENT
 20: 0x01C5 [0x00] END_REQSTACK()
```

### Event 56

#### Metadata

| Field        | Value    |
|--------------|----------|
| Entrypoint   | 0x01C6   |
| Data Size    | 28 bytes |
| Instructions | 8        |

```
      00 01 02 03 04 05 06 07  08 09 0A 0B 0C 0D 0E 0F
      -- -- -- -- -- -- -- --  -- -- -- -- -- -- -- --
01C0:                   1E F0  FF FF 7F 6F 70 66 04 80        .....opf..
01D0: F8 FF FF 7F F8 FF FF 7F  74 6C 6B 30 1D 17 80 23  ........tlk0...#
01E0: 21 00                                             !.              
```

#### Opcodes

```
  0: 0x01C6 [0x1E] EventEntity looks at LocalPlayer and starts talking
  1: 0x01CB [0x6F] WAIT_FRAME_DELAY: Yield until WaitTime reaches zero
  2: 0x01CC [0x70] WAIT_ENTITY_RENDER_FLAG: Wait while EventEntity->Render.Flags3 bit 2 is set (cancel turn if not)
  3: 0x01CD [0x66] LOAD_EXT_SCHEDULER_MAIN: Load scheduler "tlk0" with entities [EventEntity, EventEntity], work=20*
  4: 0x01DC [0x1D] PRINT_EVENT_MESSAGE(message_id=10178*)
    → "Make haste to San d'Oria! You can board the airship now, can you not? I will remain here and find out what I can."
  5: 0x01DF [0x23] WAIT_FOR_DIALOG_INTERACTION
  6: 0x01E0 [0x21] END_EVENT
  7: 0x01E1 [0x00] END_REQSTACK()
```

### Event 106

#### Metadata

| Field        | Value    |
|--------------|----------|
| Entrypoint   | 0x01E2   |
| Data Size    | 28 bytes |
| Instructions | 8        |

```
      00 01 02 03 04 05 06 07  08 09 0A 0B 0C 0D 0E 0F
      -- -- -- -- -- -- -- --  -- -- -- -- -- -- -- --
01E0:       1E F0 FF FF 7F 6F  70 66 04 80 F8 FF FF 7F    .....opf......
01F0: F8 FF FF 7F 74 6C 6B 30  1D 18 80 23 21 00        ....tlk0...#!.  
```

#### Opcodes

```
  0: 0x01E2 [0x1E] EventEntity looks at LocalPlayer and starts talking
  1: 0x01E7 [0x6F] WAIT_FRAME_DELAY: Yield until WaitTime reaches zero
  2: 0x01E8 [0x70] WAIT_ENTITY_RENDER_FLAG: Wait while EventEntity->Render.Flags3 bit 2 is set (cancel turn if not)
  3: 0x01E9 [0x66] LOAD_EXT_SCHEDULER_MAIN: Load scheduler "tlk0" with entities [EventEntity, EventEntity], work=20*
  4: 0x01F8 [0x1D] PRINT_EVENT_MESSAGE(message_id=10179*)
    → "Well, I am relieved there was no danger. Our embassy is safe as well. For now, obey the court's commands."
  5: 0x01FB [0x23] WAIT_FOR_DIALOG_INTERACTION
  6: 0x01FC [0x21] END_EVENT
  7: 0x01FD [0x00] END_REQSTACK()
```

### Event 65535.1

#### Metadata

| Field        | Value    |
|--------------|----------|
| Entrypoint   | 0x01FE   |
| Data Size    | 31 bytes |
| Instructions | 8        |

```
      00 01 02 03 04 05 06 07  08 09 0A 0B 0C 0D 0E 0F
      -- -- -- -- -- -- -- --  -- -- -- -- -- -- -- --
01F0:                                            1C 19                ..
0200: 80 22 00 37 1A 80 1B 80  1C 80 1D 80 1F 00 1E 80  .".7............
0210: 1F 80 1C 80 1F 01 6F 1E  F0 FF FF 7F 00           ......o......   
```

#### Opcodes

```
  0: 0x01FE [0x1C] WAIT(240* ticks)
  1: 0x0201 [0x22] ENTITY_HIDE_FLAG(enabled=0x00)
  2: 0x0203 [0x37] UPDATE_EVENT_POSITION_AND_DIR: x=-32.340*, z=-65.978*, y=8.999*, direction=95.2°*
  3: 0x020C [0x1F] MOVE_ENTITY: EventEntity moves to X=-33.475*, Z=-71.201*, Y=8.999*
  4: 0x0214 [0x1F] MOVE_ENTITY: Update entity position (mode=1)
  5: 0x0216 [0x6F] WAIT_FRAME_DELAY: Yield until WaitTime reaches zero
  6: 0x0217 [0x1E] EventEntity looks at LocalPlayer and starts talking
  7: 0x021C [0x00] END_REQSTACK()
```

### Event 65535.2

#### Metadata

| Field        | Value    |
|--------------|----------|
| Entrypoint   | 0x021D   |
| Data Size    | 19 bytes |
| Instructions | 3        |

```
      00 01 02 03 04 05 06 07  08 09 0A 0B 0C 0D 0E 0F
      -- -- -- -- -- -- -- --  -- -- -- -- -- -- -- --
0210:                                         66 04 80               f..
0220: F8 FF FF 7F F8 FF FF 7F  74 6C 6B 30 1C 20 80 00  ........tlk0. ..
```

#### Opcodes

```
  0: 0x021D [0x66] LOAD_EXT_SCHEDULER_MAIN: Load scheduler "tlk0" with entities [EventEntity, EventEntity], work=20*
  1: 0x022C [0x1C] WAIT(60* ticks)
  2: 0x022F [0x00] END_REQSTACK()
```

### Event 65535.3

#### Metadata

| Field        | Value   |
|--------------|---------|
| Entrypoint   | 0x0230  |
| Data Size    | 9 bytes |
| Instructions | 3       |

```
      00 01 02 03 04 05 06 07  08 09 0A 0B 0C 0D 0E 0F
      -- -- -- -- -- -- -- --  -- -- -- -- -- -- -- --
0230: 5E 69 64 6C 30 1C 20 80  00                       ^idl0. ..       
```

#### Opcodes

```
  0: 0x0230 [0x5E] EventEntity goes idle (kills current action) (animation: "idl0")
  1: 0x0235 [0x1C] WAIT(60* ticks)
  2: 0x0238 [0x00] END_REQSTACK()
```

### Event 65535.4

#### Metadata

| Field        | Value    |
|--------------|----------|
| Entrypoint   | 0x0239   |
| Data Size    | 19 bytes |
| Instructions | 3        |

```
      00 01 02 03 04 05 06 07  08 09 0A 0B 0C 0D 0E 0F
      -- -- -- -- -- -- -- --  -- -- -- -- -- -- -- --
0230:                             66 04 80 F8 FF FF 7F           f......
0240: F8 FF FF 7F 74 68 6B 31  1C 20 80 00              ....thk1. ..    
```

#### Opcodes

```
  0: 0x0239 [0x66] LOAD_EXT_SCHEDULER_MAIN: Load scheduler "thk1" with entities [EventEntity, EventEntity], work=20*
  1: 0x0248 [0x1C] WAIT(60* ticks)
  2: 0x024B [0x00] END_REQSTACK()
```

### Event 65535.5

#### Metadata

| Field        | Value    |
|--------------|----------|
| Entrypoint   | 0x024C   |
| Data Size    | 29 bytes |
| Instructions | 3        |

```
      00 01 02 03 04 05 06 07  08 09 0A 0B 0C 0D 0E 0F
      -- -- -- -- -- -- -- --  -- -- -- -- -- -- -- --
0240:                                      66 04 80 F8              f...
0250: FF FF 7F F8 FF FF 7F 74  68 6B 32 53 F8 FF FF 7F  .......thk2S....
0260: F8 FF FF 7F 74 68 6B 32  00                       ....thk2.       
```

#### Opcodes

```
  0: 0x024C [0x66] LOAD_EXT_SCHEDULER_MAIN: Load scheduler "thk2" with entities [EventEntity, EventEntity], work=20*
  1: 0x025B [0x53] WAIT_SCHEDULER_TASK: Wait for scheduler "thk2" with entities [EventEntity, EventEntity]
  2: 0x0268 [0x00] END_REQSTACK()
```

### Event 65535.6

#### Metadata

| Field        | Value    |
|--------------|----------|
| Entrypoint   | 0x0269   |
| Data Size    | 29 bytes |
| Instructions | 3        |

```
      00 01 02 03 04 05 06 07  08 09 0A 0B 0C 0D 0E 0F
      -- -- -- -- -- -- -- --  -- -- -- -- -- -- -- --
0260:                             66 04 80 F8 FF FF 7F           f......
0270: F8 FF FF 7F 70 61 73 30  53 F8 FF FF 7F F8 FF FF  ....pas0S.......
0280: 7F 70 61 73 30 00                                 .pas0.          
```

#### Opcodes

```
  0: 0x0269 [0x66] LOAD_EXT_SCHEDULER_MAIN: Load scheduler "pas0" with entities [EventEntity, EventEntity], work=20*
  1: 0x0278 [0x53] WAIT_SCHEDULER_TASK: Wait for scheduler "pas0" with entities [EventEntity, EventEntity]
  2: 0x0285 [0x00] END_REQSTACK()
```

### Event 65535.7

#### Metadata

| Field        | Value   |
|--------------|---------|
| Entrypoint   | 0x0286  |
| Data Size    | 9 bytes |
| Instructions | 3       |

```
      00 01 02 03 04 05 06 07  08 09 0A 0B 0C 0D 0E 0F
      -- -- -- -- -- -- -- --  -- -- -- -- -- -- -- --
0280:                   5E 69  64 6C 30 1C 20 80 00           ^idl0. .. 
```

#### Opcodes

```
  0: 0x0286 [0x5E] EventEntity goes idle (kills current action) (animation: "idl0")
  1: 0x028B [0x1C] WAIT(60* ticks)
  2: 0x028E [0x00] END_REQSTACK()
```

### Event 65535.8

#### Metadata

| Field        | Value   |
|--------------|---------|
| Entrypoint   | 0x028F  |
| Data Size    | 1 bytes |
| Instructions | 1       |

```
      00 01 02 03 04 05 06 07  08 09 0A 0B 0C 0D 0E 0F
      -- -- -- -- -- -- -- --  -- -- -- -- -- -- -- --
0280:                                               00                 .
```

#### Opcodes

```
  0: 0x028F [0x00] END_REQSTACK()
```
