# 17772551 - Wolfgang

## Common Data

| Field            | Value                     |
|------------------|---------------------------|
| Zone             | Ru'Lude Gardens (ID: 243) |
| Block Size       | 2908 bytes                |
| Total Events     | 107                       |
| References Count | 137                       |

## List of Events

| Event ID                   | Entrypoint   |   Size |   Instructions |
|----------------------------|--------------|--------|----------------|
| [65535](#event-65535)      | 0x0000       |     11 |              4 |
| [10094](#event-10094)      | 0x000B       |     18 |              4 |
| [58](#event-58)            | 0x001D       |     32 |              5 |
| [65535.1](#event-655351)   | 0x003D       |     14 |              4 |
| [65535.2](#event-655352)   | 0x004B       |     24 |              6 |
| [65535.3](#event-655353)   | 0x0063       |     29 |              7 |
| [65535.4](#event-655354)   | 0x0080       |     23 |              7 |
| [65535.5](#event-655355)   | 0x0097       |     10 |              2 |
| [65535.6](#event-655356)   | 0x00A1       |    145 |             21 |
| [65535.7](#event-655357)   | 0x0132       |     78 |             14 |
| [65](#event-65)            | 0x0180       |     16 |              3 |
| [65535.8](#event-655358)   | 0x0190       |     25 |              6 |
| [65535.9](#event-655359)   | 0x01A9       |     29 |              7 |
| [65535.10](#event-6553510) | 0x01C6       |     18 |              6 |
| [65535.11](#event-6553511) | 0x01D8       |     25 |              7 |
| [65535.12](#event-6553512) | 0x01F1       |     29 |              7 |
| [92](#event-92)            | 0x020E       |     10 |              2 |
| [65535.13](#event-6553513) | 0x0218       |     30 |              5 |
| [42](#event-42)            | 0x0236       |     10 |              2 |
| [65535.14](#event-6553514) | 0x0240       |     12 |              4 |
| [65535.15](#event-6553515) | 0x024C       |     25 |              9 |
| [65535.16](#event-6553516) | 0x0265       |     12 |              4 |
| [65535.17](#event-6553517) | 0x0271       |     20 |              8 |
| [65535.18](#event-6553518) | 0x0285       |     13 |              4 |
| [41](#event-41)            | 0x0292       |     10 |              2 |
| [65535.19](#event-6553519) | 0x029C       |     14 |              4 |
| [65535.20](#event-6553520) | 0x02AA       |     20 |              8 |
| [65535.21](#event-6553521) | 0x02BE       |     18 |              6 |
| [65535.22](#event-6553522) | 0x02D0       |     14 |              4 |
| [65535.23](#event-6553523) | 0x02DE       |     13 |              4 |
| [43](#event-43)            | 0x02EB       |     10 |              2 |
| [65535.24](#event-6553524) | 0x02F5       |     14 |              4 |
| [65535.25](#event-6553525) | 0x0303       |     20 |              8 |
| [65535.26](#event-6553526) | 0x0317       |     14 |              4 |
| [65535.27](#event-6553527) | 0x0325       |     17 |              5 |
| [65535.28](#event-6553528) | 0x0336       |     13 |              4 |
| [65535.29](#event-6553529) | 0x0343       |      3 |              2 |
| [60](#event-60)            | 0x0346       |     10 |              2 |
| [65535.30](#event-6553530) | 0x0350       |     14 |              4 |
| [65535.31](#event-6553531) | 0x035E       |     13 |              4 |
| [65535.32](#event-6553532) | 0x036B       |     19 |              3 |
| [65535.33](#event-6553533) | 0x037E       |     29 |              3 |
| [65535.34](#event-6553534) | 0x039B       |     19 |              3 |
| [65535.35](#event-6553535) | 0x03AE       |     29 |              3 |
| [65535.36](#event-6553536) | 0x03CB       |     29 |              3 |
| [65535.37](#event-6553537) | 0x03E8       |      9 |              3 |
| [65535.38](#event-6553538) | 0x03F1       |      1 |              1 |
| [10115](#event-10115)      | 0x03F2       |      1 |              1 |
| [10116](#event-10116)      | 0x03F3       |      1 |              1 |
| [65535.39](#event-6553539) | 0x03F4       |     21 |              5 |
| [65535.40](#event-6553540) | 0x0409       |     37 |              9 |
| [65535.41](#event-6553541) | 0x042E       |     12 |              4 |
| [65535.42](#event-6553542) | 0x043A       |     16 |              2 |
| [65535.43](#event-6553543) | 0x044A       |     14 |              2 |
| [65535.44](#event-6553544) | 0x0458       |     16 |              2 |
| [65535.45](#event-6553545) | 0x0468       |     14 |              2 |
| [65535.46](#event-6553546) | 0x0476       |     16 |              2 |
| [65535.47](#event-6553547) | 0x0486       |     14 |              2 |
| [65535.48](#event-6553548) | 0x0494       |     16 |              2 |
| [65535.49](#event-6553549) | 0x04A4       |     14 |              2 |
| [65535.50](#event-6553550) | 0x04B2       |     16 |              2 |
| [65535.51](#event-6553551) | 0x04C2       |     14 |              2 |
| [65535.52](#event-6553552) | 0x04D0       |     16 |              2 |
| [65535.53](#event-6553553) | 0x04E0       |     14 |              2 |
| [65535.54](#event-6553554) | 0x04EE       |     16 |              2 |
| [65535.55](#event-6553555) | 0x04FE       |     14 |              2 |
| [65535.56](#event-6553556) | 0x050C       |     16 |              2 |
| [65535.57](#event-6553557) | 0x051C       |     14 |              2 |
| [65535.58](#event-6553558) | 0x052A       |      9 |              3 |
| [65535.59](#event-6553559) | 0x0533       |     16 |              2 |
| [65535.60](#event-6553560) | 0x0543       |     14 |              2 |
| [65535.61](#event-6553561) | 0x0551       |     16 |              2 |
| [65535.62](#event-6553562) | 0x0561       |     14 |              2 |
| [65535.63](#event-6553563) | 0x056F       |     16 |              2 |
| [65535.64](#event-6553564) | 0x057F       |     14 |              2 |
| [65535.65](#event-6553565) | 0x058D       |     16 |              2 |
| [65535.66](#event-6553566) | 0x059D       |     14 |              2 |
| [65535.67](#event-6553567) | 0x05AB       |     16 |              2 |
| [65535.68](#event-6553568) | 0x05BB       |     14 |              2 |
| [65535.69](#event-6553569) | 0x05C9       |     16 |              2 |
| [65535.70](#event-6553570) | 0x05D9       |     14 |              2 |
| [65535.71](#event-6553571) | 0x05E7       |     57 |              5 |
| [65535.72](#event-6553572) | 0x0620       |     16 |              2 |
| [65535.73](#event-6553573) | 0x0630       |     14 |              2 |
| [65535.74](#event-6553574) | 0x063E       |     16 |              2 |
| [65535.75](#event-6553575) | 0x064E       |     14 |              2 |
| [65535.76](#event-6553576) | 0x065C       |     16 |              2 |
| [65535.77](#event-6553577) | 0x066C       |     14 |              2 |
| [65535.78](#event-6553578) | 0x067A       |     16 |              2 |
| [65535.79](#event-6553579) | 0x068A       |     14 |              2 |
| [65535.80](#event-6553580) | 0x0698       |     16 |              2 |
| [65535.81](#event-6553581) | 0x06A8       |     14 |              2 |
| [10048](#event-10048)      | 0x06B6       |      7 |              2 |
| [65535.82](#event-6553582) | 0x06BD       |     10 |              2 |
| [65535.83](#event-6553583) | 0x06C7       |     15 |              5 |
| [65535.84](#event-6553584) | 0x06D6       |     15 |              5 |
| [65535.85](#event-6553585) | 0x06E5       |     15 |              5 |
| [65535.86](#event-6553586) | 0x06F4       |     25 |              9 |
| [10050](#event-10050)      | 0x070D       |     13 |              3 |
| [65535.87](#event-6553587) | 0x071A       |     10 |              2 |
| [65535.88](#event-6553588) | 0x0724       |     15 |              5 |
| [10051](#event-10051)      | 0x0733       |     13 |              3 |
| [122](#event-122)          | 0x0740       |      1 |              1 |
| [65535.89](#event-6553589) | 0x0741       |     10 |              2 |
| [65535.90](#event-6553590) | 0x074B       |     25 |              7 |
| [65535.91](#event-6553591) | 0x0764       |     14 |              4 |
| [10097](#event-10097)      | 0x0772       |      7 |              2 |

## DAT References (imed_data)

|   Index | Hex Value   |   Dec Value |
|---------|-------------|-------------|
|       0 | 0x000D      |          13 |
|       1 | 0x7A1A      |       31258 |
|       2 | 0x116CB     |       71371 |
|       3 | 0x07C7      |        1991 |
|       4 | 0x03C4      |         964 |
|       5 | 0xFFFFA308  |  4294943496 |
|       6 | 0xF805      |       63493 |
|       7 | 0x07D0      |        2000 |
|       8 | 0x08A8      |        2216 |
|       9 | 0xFFFF931D  |  4294939421 |
|      10 | 0xFE8F      |       65167 |
|      11 | 0x07D2      |        2002 |
|      12 | 0xFFFF97CB  |  4294940619 |
|      13 | 0xFBD3      |       64467 |
|      14 | 0xFFFFB0E4  |  4294947044 |
|      15 | 0xF290      |       62096 |
|      16 | 0x033A      |         826 |
|      17 | 0x10D28     |       68904 |
|      18 | 0xFFFFEC79  |  4294962297 |
|      19 | 0x03F6      |        1014 |
|      20 | 0x101B6     |       65974 |
|      21 | 0x1770      |        6000 |
|      22 | 0x0235      |         565 |
|      23 | 0x11167     |       69991 |
|      24 | 0x0C00      |        3072 |
|      25 | 0x0FA0      |        4000 |
|      26 | 0x004B      |          75 |
|      27 | 0x0000      |           0 |
|      28 | 0x0005      |           5 |
|      29 | 0x0064      |         100 |
|      30 | 0x0014      |          20 |
|      31 | 0x00C8      |         200 |
|      32 | 0x007F      |         127 |
|      33 | 0x0DB4      |        3508 |
|      34 | 0x12B05     |       76549 |
|      35 | 0x0B61      |        2913 |
|      36 | 0x109B4     |       68020 |
|      37 | 0x041A      |        1050 |
|      38 | 0xF609      |       62985 |
|      39 | 0xFFFFFC68  |  4294966376 |
|      40 | 0x11C4E     |       72782 |
|      41 | 0x07BC      |        1980 |
|      42 | 0x0050      |          80 |
|      43 | 0xFFFFF4BB  |  4294964411 |
|      44 | 0x11BA8     |       72616 |
|      45 | 0xFFFFEC7A  |  4294962298 |
|      46 | 0x0C39      |        3129 |
|      47 | 0xFFFFFAE8  |  4294965992 |
|      48 | 0x11C7B     |       72827 |
|      49 | 0xFFFFEC78  |  4294962296 |
|      50 | 0x02EA      |         746 |
|      51 | 0x003C      |          60 |
|      52 | 0xFFFFF605  |  4294964741 |
|      53 | 0x135D9     |       79321 |
|      54 | 0x0BB8      |        3000 |
|      55 | 0xFFFFF4DB  |  4294964443 |
|      56 | 0x14553     |       83283 |
|      57 | 0x1EFD      |        7933 |
|      58 | 0x1CD2D     |      118061 |
|      59 | 0x0C1D      |        3101 |
|      60 | 0x0EEF      |        3823 |
|      61 | 0x007A      |         122 |
|      62 | 0x002D      |          45 |
|      63 | 0x0096      |         150 |
|      64 | 0xFFFFA278  |  4294943352 |
|      65 | 0xFFFF3CA9  |  4294917289 |
|      66 | 0x2329      |        9001 |
|      67 | 0x07E3      |        2019 |
|      68 | 0xFFFF7E6C  |  4294934124 |
|      69 | 0xFFFF3E26  |  4294917670 |
|      70 | 0x2327      |        8999 |
|      71 | 0x0600      |        1536 |
|      72 | 0x0A00      |        2560 |
|      73 | 0xFFFF8D36  |  4294937910 |
|      74 | 0xFFFF3AD6  |  4294916822 |
|      75 | 0x001E      |          30 |
|      76 | 0xFFFF9E25  |  4294942245 |
|      77 | 0xFFFF3CC1  |  4294917313 |
|      78 | 0xFFFFBF57  |  4294950743 |
|      79 | 0xFFFF3CA6  |  4294917286 |
|      80 | 0x0FE6      |        4070 |
|      81 | 0xFFFEF216  |  4294898198 |
|      82 | 0x03C2      |         962 |
|      83 | 0x0C01      |        3073 |
|      84 | 0xFFFED3C9  |  4294890441 |
|      85 | 0x0200      |         512 |
|      86 | 0x0D50      |        3408 |
|      87 | 0xFFFEE090  |  4294893712 |
|      88 | 0x0FB6      |        4022 |
|      89 | 0xFFFEF2FB  |  4294898427 |
|      90 | 0x0F61      |        3937 |
|      91 | 0xFFFF14AC  |  4294907052 |
|      92 | 0x667B      |       26235 |
|      93 | 0xFFFF7361  |  4294931297 |
|      94 | 0x0FD8      |        4056 |
|      95 | 0x844C      |       33868 |
|      96 | 0xFFFF6FE4  |  4294930404 |
|      97 | 0xFFFFFE00  |  4294966784 |
|      98 | 0x77FC      |       30716 |
|      99 | 0xFFFF732A  |  4294931242 |
|     100 | 0x389C      |       14492 |
|     101 | 0xFFFF7443  |  4294931523 |
|     102 | 0x1019A     |       65946 |
|     103 | 0x0C32      |        3122 |
|     104 | 0x0028      |          40 |
|     105 | 0x114F3     |       70899 |
|     106 | 0xFFFFFFF8  |  4294967288 |
|     107 | 0xF62C      |       63020 |
|     108 | 0xFFFFFAD7  |  4294965975 |
|     109 | 0xFD93      |       64915 |
|     110 | 0xFFFFFFF9  |  4294967289 |
|     111 | 0x10AD4     |       68308 |
|     112 | 0x12A0B     |       76299 |
|     113 | 0xFFFFFFFD  |  4294967293 |
|     114 | 0x109F6     |       68086 |
|     115 | 0x0002      |           2 |
|     116 | 0x0003      |           3 |
|     117 | 0x01F8      |         504 |
|     118 | 0x844D      |       33869 |
|     119 | 0x07CF      |        1999 |
|     120 | 0xA75F      |       42847 |
|     121 | 0xAB7C      |       43900 |
|     122 | 0xAA50      |       43600 |
|     123 | 0x0032      |          50 |
|     124 | 0xFFFFFB50  |  4294966096 |
|     125 | 0x10B0F     |       68367 |
|     126 | 0x12006     |       73734 |
|     127 | 0xFFFFFBF5  |  4294966261 |
|     128 | 0xB5BB      |       46523 |
|     129 | 0x0100      |         256 |
|     130 | 0xFFFFF9A8  |  4294965672 |
|     131 | 0x9E48      |       40520 |
|     132 | 0xFFFFFCE8  |  4294966504 |
|     133 | 0x8C9D      |       35997 |
|     134 | 0xFFFFFFC2  |  4294967234 |
|     135 | 0x3788      |       14216 |
|     136 | 0x0BB7      |        2999 |

## Events

### Event 65535

#### Metadata

| Field        | Value    |
|--------------|----------|
| Entrypoint   | 0x0000   |
| Data Size    | 11 bytes |
| Instructions | 4        |

```
      00 01 02 03 04 05 06 07  08 09 0A 0B 0C 0D 0E 0F
      -- -- -- -- -- -- -- --  -- -- -- -- -- -- -- --
0000: 22 01 1E 01 30 0F 01 32  00 80 00                 "...0..2...     
```

#### Opcodes

```
  0: 0x0000 [0x22] ENTITY_HIDE_FLAG(enabled=0x01)
  1: 0x0002 [0x1E] EventEntity looks at Nelcabrit (ID: 17772545/0x010F3001) and starts talking
  2: 0x0007 [0x32] ExtData[1]->MainSpeed = 13* * 0.1
  3: 0x000A [0x00] END_REQSTACK()
```

### Event 10094

#### Metadata

| Field        | Value    |
|--------------|----------|
| Entrypoint   | 0x000B   |
| Data Size    | 18 bytes |
| Instructions | 4        |

```
      00 01 02 03 04 05 06 07  08 09 0A 0B 0C 0D 0E 0F
      -- -- -- -- -- -- -- --  -- -- -- -- -- -- -- --
0000:                                   22 01 94 01 F8             "....
0010: FF FF 7F 37 01 80 02 80  03 80 04 80 00           ...7.........   
```

#### Opcodes

```
  0: 0x000B [0x22] ENTITY_HIDE_FLAG(enabled=0x01)
  1: 0x000D [0x94] EventEntity->Render.Flags3 ^= 0x01
  2: 0x0013 [0x37] UPDATE_EVENT_POSITION_AND_DIR: x=31.258*, z=71.371*, y=1.991*, direction=84.7°*
  3: 0x001C [0x00] END_REQSTACK()
```

### Event 58

#### Metadata

| Field        | Value    |
|--------------|----------|
| Entrypoint   | 0x001D   |
| Data Size    | 32 bytes |
| Instructions | 5        |

```
      00 01 02 03 04 05 06 07  08 09 0A 0B 0C 0D 0E 0F
      -- -- -- -- -- -- -- --  -- -- -- -- -- -- -- --
0010:                                         94 01 F8               ...
0020: FF FF 7F 92 01 F8 FF FF  7F 79 00 F8 FF FF 7F F0  .........y......
0030: FF FF 7F 37 05 80 06 80  07 80 08 80 00           ...7.........   
```

#### Opcodes

```
  0: 0x001D [0x94] EventEntity->Render.Flags3 ^= 0x01
  1: 0x0023 [0x92] EventEntity->Render.Flags3 ^= 0x01
  2: 0x0029 [0x79] EventEntity looks at LocalPlayer (Basic look)
  3: 0x0033 [0x37] UPDATE_EVENT_POSITION_AND_DIR: x=-23.800*, z=63.493*, y=2.000*, direction=194.8°*
  4: 0x003C [0x00] END_REQSTACK()
```

### Event 65535.1

#### Metadata

| Field        | Value    |
|--------------|----------|
| Entrypoint   | 0x003D   |
| Data Size    | 14 bytes |
| Instructions | 4        |

```
      00 01 02 03 04 05 06 07  08 09 0A 0B 0C 0D 0E 0F
      -- -- -- -- -- -- -- --  -- -- -- -- -- -- -- --
0030:                                         32 00 80               2..
0040: 1F 00 09 80 0A 80 0B 80  1F 01 00                 ...........     
```

#### Opcodes

```
  0: 0x003D [0x32] ExtData[1]->MainSpeed = 13* * 0.1
  1: 0x0040 [0x1F] MOVE_ENTITY: EventEntity moves to X=-27.875*, Z=65.167*, Y=2.002*
  2: 0x0048 [0x1F] MOVE_ENTITY: Update entity position (mode=1)
  3: 0x004A [0x00] END_REQSTACK()
```

### Event 65535.2

#### Metadata

| Field        | Value    |
|--------------|----------|
| Entrypoint   | 0x004B   |
| Data Size    | 24 bytes |
| Instructions | 6        |

```
      00 01 02 03 04 05 06 07  08 09 0A 0B 0C 0D 0E 0F
      -- -- -- -- -- -- -- --  -- -- -- -- -- -- -- --
0040:                                   32 00 80 1F 00             2....
0050: 0C 80 0D 80 0B 80 1F 01  1F 00 0E 80 0F 80 07 80  ................
0060: 1F 01 00                                          ...             
```

#### Opcodes

```
  0: 0x004B [0x32] ExtData[1]->MainSpeed = 13* * 0.1
  1: 0x004E [0x1F] MOVE_ENTITY: EventEntity moves to X=-26.677*, Z=64.467*, Y=2.002*
  2: 0x0056 [0x1F] MOVE_ENTITY: Update entity position (mode=1)
  3: 0x0058 [0x1F] MOVE_ENTITY: EventEntity moves to X=-20.252*, Z=62.096*, Y=2.000*
  4: 0x0060 [0x1F] MOVE_ENTITY: Update entity position (mode=1)
  5: 0x0062 [0x00] END_REQSTACK()
```

### Event 65535.3

#### Metadata

| Field        | Value    |
|--------------|----------|
| Entrypoint   | 0x0063   |
| Data Size    | 29 bytes |
| Instructions | 7        |

```
      00 01 02 03 04 05 06 07  08 09 0A 0B 0C 0D 0E 0F
      -- -- -- -- -- -- -- --  -- -- -- -- -- -- -- --
0060:          37 10 80 11 80  12 80 13 80 32 00 80 1F     7........2...
0070: 00 10 80 14 80 12 80 1F  01 6F 1E F0 FF FF 7F 00  .........o......
```

#### Opcodes

```
  0: 0x0063 [0x37] UPDATE_EVENT_POSITION_AND_DIR: x=0.826*, z=68.904*, y=-4.999*, direction=89.1°*
  1: 0x006C [0x32] ExtData[1]->MainSpeed = 13* * 0.1
  2: 0x006F [0x1F] MOVE_ENTITY: EventEntity moves to X=0.826*, Z=65.974*, Y=-4.999*
  3: 0x0077 [0x1F] MOVE_ENTITY: Update entity position (mode=1)
  4: 0x0079 [0x6F] WAIT_FRAME_DELAY: Yield until WaitTime reaches zero
  5: 0x007A [0x1E] EventEntity looks at LocalPlayer and starts talking
  6: 0x007F [0x00] END_REQSTACK()
```

### Event 65535.4

#### Metadata

| Field        | Value    |
|--------------|----------|
| Entrypoint   | 0x0080   |
| Data Size    | 23 bytes |
| Instructions | 7        |

```
      00 01 02 03 04 05 06 07  08 09 0A 0B 0C 0D 0E 0F
      -- -- -- -- -- -- -- --  -- -- -- -- -- -- -- --
0080: 03 00 00 15 80 1A 3C 01  32 00 80 1F 00 01 00 02  ......<.2.......
0090: 00 03 00 1F 01 6F 00                              .....o.         
```

#### Opcodes

```
  0: 0x0080 [0x03] ExtData[1]->WorkLocal[0] = 6000*
  1: 0x0085 [0x1A] CALL_SUBROUTINE(address=0x013C)
  2: 0x0088 [0x32] ExtData[1]->MainSpeed = 13* * 0.1
  3: 0x008B [0x1F] MOVE_ENTITY: EventEntity moves to X=ExtData[1]->WorkLocal[1], Z=ExtData[1]->WorkLocal[2], Y=ExtData[1]->WorkLocal[3]
  4: 0x0093 [0x1F] MOVE_ENTITY: Update entity position (mode=1)
  5: 0x0095 [0x6F] WAIT_FRAME_DELAY: Yield until WaitTime reaches zero
  6: 0x0096 [0x00] END_REQSTACK()
```

### Event 65535.5

#### Metadata

| Field        | Value    |
|--------------|----------|
| Entrypoint   | 0x0097   |
| Data Size    | 10 bytes |
| Instructions | 2        |

```
      00 01 02 03 04 05 06 07  08 09 0A 0B 0C 0D 0E 0F
      -- -- -- -- -- -- -- --  -- -- -- -- -- -- -- --
0090:                      37  16 80 17 80 12 80 18 80         7........
00A0: 00                                                .               
```

#### Opcodes

```
  0: 0x0097 [0x37] UPDATE_EVENT_POSITION_AND_DIR: x=0.565*, z=69.991*, y=-4.999*, direction=270.0°*
  1: 0x00A0 [0x00] END_REQSTACK()
```

### Event 65535.6

#### Metadata

| Field        | Value     |
|--------------|-----------|
| Entrypoint   | 0x00A1    |
| Data Size    | 145 bytes |
| Instructions | 21        |

```
      00 01 02 03 04 05 06 07  08 09 0A 0B 0C 0D 0E 0F
      -- -- -- -- -- -- -- --  -- -- -- -- -- -- -- --
00A0:    03 00 00 19 80 1A 3C  01 32 00 80 1F 00 01 00   ......<.2......
00B0: 02 00 03 00 1F 01 45 1A  80 F0 FF FF 7F F0 FF FF  ......E.........
00C0: 7F 78 30 30 31 1B 80 55  1A 80 F0 FF FF 7F F0 FF  .x001..U........
00D0: FF 7F 78 30 30 31 1C 1C  80 4A 07 30 0F 01 F0 FF  ..x001...J.0....
00E0: FF 7F 6F 76 07 30 0F 01  1C 1D 80 4A 07 30 0F 01  ..ov.0.....J.0..
00F0: F0 FF FF 7F 1C 1E 80 45  1F 80 F0 FF FF 7F F0 FF  .......E........
0100: FF 7F 6F 76 6C 31 1B 80  45 1A 80 F0 FF FF 7F F0  ..ovl1..E.......
0110: FF FF 7F 78 30 30 32 1B  80 5C 00 20 80 5C 01 20  ...x002..\. .\. 
0120: 80 27 03 76 30 0F 01 0C  37 21 80 22 80 12 80 23  .'.v0...7!."...#
0130: 80 00                                             ..              
```

#### Opcodes

```
  0: 0x00A1 [0x03] ExtData[1]->WorkLocal[0] = 4000*
  1: 0x00A6 [0x1A] CALL_SUBROUTINE(address=0x013C)
  2: 0x00A9 [0x32] ExtData[1]->MainSpeed = 13* * 0.1
  3: 0x00AC [0x1F] MOVE_ENTITY: EventEntity moves to X=ExtData[1]->WorkLocal[1], Z=ExtData[1]->WorkLocal[2], Y=ExtData[1]->WorkLocal[3]
  4: 0x00B4 [0x1F] MOVE_ENTITY: Update entity position (mode=1)
  5: 0x00B6 [0x45] LOAD_SCHEDULED_TASK: Load scheduler "x001" with entities [LocalPlayer, LocalPlayer], work=[75*, 0*]
  6: 0x00C7 [0x55] WAIT_LOAD_SCHEDULER: Wait for scheduler "x001" with entities [LocalPlayer, LocalPlayer], work=75*
  7: 0x00D6 [0x1C] WAIT(5* ticks)
  8: 0x00D9 [0x4A] Wolfgang (ID: 17772551/0x010F3007) looks at LocalPlayer
  9: 0x00E2 [0x6F] WAIT_FRAME_DELAY: Yield until WaitTime reaches zero
 10: 0x00E3 [0x76] CHECK_ENTITY_RENDER_FLAGS: Wait until Wolfgang (ID: 17772551/0x010F3007) Render.Flags0 and Render.Flags3 conditions are met
 11: 0x00E8 [0x1C] WAIT(100* ticks)
 12: 0x00EB [0x4A] Wolfgang (ID: 17772551/0x010F3007) looks at LocalPlayer
 13: 0x00F4 [0x1C] WAIT(20* ticks)
 14: 0x00F7 [0x45] LOAD_SCHEDULED_TASK: Load scheduler "ovl1" with entities [LocalPlayer, LocalPlayer], work=[200*, 0*]
 15: 0x0108 [0x45] LOAD_SCHEDULED_TASK: Load scheduler "x002" with entities [LocalPlayer, LocalPlayer], work=[75*, 0*]
 16: 0x0119 [0x5C] MUSIC_CONTROL: Set Idle (Day) music to song 127*
 17: 0x011D [0x5C] MUSIC_CONTROL: Set Idle (Night) music to song 127*
 18: 0x0121 [0x27] REQ_SET(priority=0x03, entity_id=Esha'ntarl (ID: 17772662/0x010F3076), tag_num=0x0C)
 19: 0x0128 [0x37] UPDATE_EVENT_POSITION_AND_DIR: x=3.508*, z=76.549*, y=-4.999*, direction=256.0°*
 20: 0x0131 [0x00] END_REQSTACK()
```

### Event 65535.7

#### Metadata

| Field        | Value    |
|--------------|----------|
| Entrypoint   | 0x0132   |
| Data Size    | 78 bytes |
| Instructions | 2        |

```
      00 01 02 03 04 05 06 07  08 09 0A 0B 0C 0D 0E 0F
      -- -- -- -- -- -- -- --  -- -- -- -- -- -- -- --
0130:       37 21 80 22 80 12  80 23 80 00 3B F8 FF FF    7!."...#..;...
0140: 7F 01 00 02 00 03 00 3A  F8 FF FF 7F 04 00 17 05  .......:........
0150: 00 04 00 00 00 16 06 00  04 00 00 00 07 01 00 05  ................
0160: 00 07 02 00 06 00 1B 17  05 00 04 00 00 00 16 06  ................
0170: 00 04 00 00 00 07 01 00  05 00 07 02 00 06 00 1B  ................
```

#### Opcodes

```
  0: 0x0132 [0x37] UPDATE_EVENT_POSITION_AND_DIR: x=3.508*, z=76.549*, y=-4.999*, direction=256.0°*
  1: 0x013B [0x00] END_REQSTACK()
```

#### Data or dead code:

```
# Dead code (unreachable instructions):
     0x013C [0x3B] GET_ENTITY_POSITION(entity=EventEntity, x_destination=ExtData[1]->WorkLocal[1], y_destination=ExtData[1]->WorkLocal[2], z_destination=ExtData[1]->WorkLocal[3])
     0x0147 [0x3A] CONVERT_YAW_TO_BYTE(entity=EventEntity, result_destination=ExtData[1]->WorkLocal[4])
     0x014E [0x17] ExtData[1]->WorkLocal[5] = cos(ExtData[1]->WorkLocal[4]) * ExtData[1]->WorkLocal[0]
     0x0155 [0x16] ExtData[1]->WorkLocal[6] = sin(ExtData[1]->WorkLocal[4]) * ExtData[1]->WorkLocal[0]
     0x015C [0x07] ExtData[1]->WorkLocal[1] += ExtData[1]->WorkLocal[5]
     0x0161 [0x07] ExtData[1]->WorkLocal[2] += ExtData[1]->WorkLocal[6]
     0x0166 [0x1B] RETURN
     0x0167 [0x17] ExtData[1]->WorkLocal[5] = cos(ExtData[1]->WorkLocal[4]) * ExtData[1]->WorkLocal[0]
     0x016E [0x16] ExtData[1]->WorkLocal[6] = sin(ExtData[1]->WorkLocal[4]) * ExtData[1]->WorkLocal[0]
     0x0175 [0x07] ExtData[1]->WorkLocal[1] += ExtData[1]->WorkLocal[5]
     0x017A [0x07] ExtData[1]->WorkLocal[2] += ExtData[1]->WorkLocal[6]
     0x017F [0x1B] RETURN
```

### Event 65

#### Metadata

| Field        | Value    |
|--------------|----------|
| Entrypoint   | 0x0180   |
| Data Size    | 16 bytes |
| Instructions | 3        |

```
      00 01 02 03 04 05 06 07  08 09 0A 0B 0C 0D 0E 0F
      -- -- -- -- -- -- -- --  -- -- -- -- -- -- -- --
0180: 94 01 F8 FF FF 7F 37 1B  80 24 80 12 80 25 80 00  ......7..$...%..
```

#### Opcodes

```
  0: 0x0180 [0x94] EventEntity->Render.Flags3 ^= 0x01
  1: 0x0186 [0x37] UPDATE_EVENT_POSITION_AND_DIR: x=0.000*, z=68.020*, y=-4.999*, direction=92.3°*
  2: 0x018F [0x00] END_REQSTACK()
```

### Event 65535.8

#### Metadata

| Field        | Value    |
|--------------|----------|
| Entrypoint   | 0x0190   |
| Data Size    | 25 bytes |
| Instructions | 6        |

```
      00 01 02 03 04 05 06 07  08 09 0A 0B 0C 0D 0E 0F
      -- -- -- -- -- -- -- --  -- -- -- -- -- -- -- --
0190: 32 00 80 1F 00 1B 80 26  80 12 80 1F 01 6F 79 00  2......&.....oy.
01A0: F8 FF FF 7F F0 FF FF 7F  00                       .........       
```

#### Opcodes

```
  0: 0x0190 [0x32] ExtData[1]->MainSpeed = 13* * 0.1
  1: 0x0193 [0x1F] MOVE_ENTITY: EventEntity moves to X=0.000*, Z=62.985*, Y=-4.999*
  2: 0x019B [0x1F] MOVE_ENTITY: Update entity position (mode=1)
  3: 0x019D [0x6F] WAIT_FRAME_DELAY: Yield until WaitTime reaches zero
  4: 0x019E [0x79] EventEntity looks at LocalPlayer (Basic look)
  5: 0x01A8 [0x00] END_REQSTACK()
```

### Event 65535.9

#### Metadata

| Field        | Value    |
|--------------|----------|
| Entrypoint   | 0x01A9   |
| Data Size    | 29 bytes |
| Instructions | 7        |

```
      00 01 02 03 04 05 06 07  08 09 0A 0B 0C 0D 0E 0F
      -- -- -- -- -- -- -- --  -- -- -- -- -- -- -- --
01A0:                             37 27 80 28 80 12 80           7'.(...
01B0: 29 80 1C 2A 80 32 00 80  1F 00 2B 80 2C 80 2D 80  )..*.2....+.,.-.
01C0: 1F 01 39 2E 80 00                                 ..9...          
```

#### Opcodes

```
  0: 0x01A9 [0x37] UPDATE_EVENT_POSITION_AND_DIR: x=-0.920*, z=72.782*, y=-4.999*, direction=174.0°*
  1: 0x01B2 [0x1C] WAIT(80* ticks)
  2: 0x01B5 [0x32] ExtData[1]->MainSpeed = 13* * 0.1
  3: 0x01B8 [0x1F] MOVE_ENTITY: EventEntity moves to X=-2.885*, Z=72.616*, Y=-4.998*
  4: 0x01C0 [0x1F] MOVE_ENTITY: Update entity position (mode=1)
  5: 0x01C2 [0x39] SET_ENTITY_DIRECTION(direction=17.2°*)
  6: 0x01C5 [0x00] END_REQSTACK()
```

### Event 65535.10

#### Metadata

| Field        | Value    |
|--------------|----------|
| Entrypoint   | 0x01C6   |
| Data Size    | 18 bytes |
| Instructions | 6        |

```
      00 01 02 03 04 05 06 07  08 09 0A 0B 0C 0D 0E 0F
      -- -- -- -- -- -- -- --  -- -- -- -- -- -- -- --
01C0:                   32 00  80 1F 00 2F 80 30 80 31        2..../.0.1
01D0: 80 1F 01 6F 39 32 80 00                           ...o92..        
```

#### Opcodes

```
  0: 0x01C6 [0x32] ExtData[1]->MainSpeed = 13* * 0.1
  1: 0x01C9 [0x1F] MOVE_ENTITY: EventEntity moves to X=-1.304*, Z=72.827*, Y=-5.000*
  2: 0x01D1 [0x1F] MOVE_ENTITY: Update entity position (mode=1)
  3: 0x01D3 [0x6F] WAIT_FRAME_DELAY: Yield until WaitTime reaches zero
  4: 0x01D4 [0x39] SET_ENTITY_DIRECTION(direction=4.1°*)
  5: 0x01D7 [0x00] END_REQSTACK()
```

### Event 65535.11

#### Metadata

| Field        | Value    |
|--------------|----------|
| Entrypoint   | 0x01D8   |
| Data Size    | 25 bytes |
| Instructions | 7        |

```
      00 01 02 03 04 05 06 07  08 09 0A 0B 0C 0D 0E 0F
      -- -- -- -- -- -- -- --  -- -- -- -- -- -- -- --
01D0:                          1C 33 80 1E F0 FF FF 7F          .3......
01E0: 1C 33 80 1E F0 FF FF 7F  1C 33 80 1E F0 FF FF 7F  .3.......3......
01F0: 00                                                .               
```

#### Opcodes

```
  0: 0x01D8 [0x1C] WAIT(60* ticks)
  1: 0x01DB [0x1E] EventEntity looks at LocalPlayer and starts talking
  2: 0x01E0 [0x1C] WAIT(60* ticks)
  3: 0x01E3 [0x1E] EventEntity looks at LocalPlayer and starts talking
  4: 0x01E8 [0x1C] WAIT(60* ticks)
  5: 0x01EB [0x1E] EventEntity looks at LocalPlayer and starts talking
  6: 0x01F0 [0x00] END_REQSTACK()
```

### Event 65535.12

#### Metadata

| Field        | Value    |
|--------------|----------|
| Entrypoint   | 0x01F1   |
| Data Size    | 29 bytes |
| Instructions | 7        |

```
      00 01 02 03 04 05 06 07  08 09 0A 0B 0C 0D 0E 0F
      -- -- -- -- -- -- -- --  -- -- -- -- -- -- -- --
01F0:    32 00 80 37 34 80 35  80 31 80 36 80 1F 00 37   2..74.5.1.6...7
0200: 80 38 80 31 80 1F 01 6F  1E F0 FF FF 7F 00        .8.1...o......  
```

#### Opcodes

```
  0: 0x01F1 [0x32] ExtData[1]->MainSpeed = 13* * 0.1
  1: 0x01F4 [0x37] UPDATE_EVENT_POSITION_AND_DIR: x=-2.555*, z=79.321*, y=-5.000*, direction=263.7°*
  2: 0x01FD [0x1F] MOVE_ENTITY: EventEntity moves to X=-2.853*, Z=83.283*, Y=-5.000*
  3: 0x0205 [0x1F] MOVE_ENTITY: Update entity position (mode=1)
  4: 0x0207 [0x6F] WAIT_FRAME_DELAY: Yield until WaitTime reaches zero
  5: 0x0208 [0x1E] EventEntity looks at LocalPlayer and starts talking
  6: 0x020D [0x00] END_REQSTACK()
```

### Event 92

#### Metadata

| Field        | Value    |
|--------------|----------|
| Entrypoint   | 0x020E   |
| Data Size    | 10 bytes |
| Instructions | 2        |

```
      00 01 02 03 04 05 06 07  08 09 0A 0B 0C 0D 0E 0F
      -- -- -- -- -- -- -- --  -- -- -- -- -- -- -- --
0200:                                            37 39                79
0210: 80 3A 80 3B 80 3C 80 00                           .:.;.<..        
```

#### Opcodes

```
  0: 0x020E [0x37] UPDATE_EVENT_POSITION_AND_DIR: x=7.933*, z=118.061*, y=3.101*, direction=336.0°*
  1: 0x0217 [0x00] END_REQSTACK()
```

### Event 65535.13

#### Metadata

| Field        | Value    |
|--------------|----------|
| Entrypoint   | 0x0218   |
| Data Size    | 30 bytes |
| Instructions | 5        |

```
      00 01 02 03 04 05 06 07  08 09 0A 0B 0C 0D 0E 0F
      -- -- -- -- -- -- -- --  -- -- -- -- -- -- -- --
0210:                          73 3D 80 F8 FF FF 7F F8          s=......
0220: FF FF 7F 1C 3E 80 6C F8  FF FF 7F 1B 80 3F 80 92  ....>.l......?..
0230: 01 F8 FF FF 7F 00                                 ......          
```

#### Opcodes

```
  0: 0x0218 [0x73] EventEntity casts magic 122* on EventEntity
  1: 0x0223 [0x1C] WAIT(45* ticks)
  2: 0x0226 [0x6C] FADE_ENTITY_COLOR(entity_id=EventEntity, end_alpha=0*, fade_time=150*)
  3: 0x022F [0x92] EventEntity->Render.Flags3 ^= 0x01
  4: 0x0235 [0x00] END_REQSTACK()
```

### Event 42

#### Metadata

| Field        | Value    |
|--------------|----------|
| Entrypoint   | 0x0236   |
| Data Size    | 10 bytes |
| Instructions | 2        |

```
      00 01 02 03 04 05 06 07  08 09 0A 0B 0C 0D 0E 0F
      -- -- -- -- -- -- -- --  -- -- -- -- -- -- -- --
0230:                   37 40  80 41 80 42 80 43 80 00        7@.A.B.C..
```

#### Opcodes

```
  0: 0x0236 [0x37] UPDATE_EVENT_POSITION_AND_DIR: x=-23.944*, z=-50.007*, y=9.001*, direction=177.4°*
  1: 0x023F [0x00] END_REQSTACK()
```

### Event 65535.14

#### Metadata

| Field        | Value    |
|--------------|----------|
| Entrypoint   | 0x0240   |
| Data Size    | 12 bytes |
| Instructions | 4        |

```
      00 01 02 03 04 05 06 07  08 09 0A 0B 0C 0D 0E 0F
      -- -- -- -- -- -- -- --  -- -- -- -- -- -- -- --
0240: 1F 00 44 80 45 80 46 80  1F 01 6F 00              ..D.E.F...o.    
```

#### Opcodes

```
  0: 0x0240 [0x1F] MOVE_ENTITY: EventEntity moves to X=-33.172*, Z=-49.626*, Y=8.999*
  1: 0x0248 [0x1F] MOVE_ENTITY: Update entity position (mode=1)
  2: 0x024A [0x6F] WAIT_FRAME_DELAY: Yield until WaitTime reaches zero
  3: 0x024B [0x00] END_REQSTACK()
```

### Event 65535.15

#### Metadata

| Field        | Value    |
|--------------|----------|
| Entrypoint   | 0x024C   |
| Data Size    | 25 bytes |
| Instructions | 9        |

```
      00 01 02 03 04 05 06 07  08 09 0A 0B 0C 0D 0E 0F
      -- -- -- -- -- -- -- --  -- -- -- -- -- -- -- --
0240:                                      7B F8 FF FF              {...
0250: 7F 39 47 80 1C 33 80 39  48 80 1C 33 80 1E 01 30  .9G..3.9H..3...0
0260: 0F 01 6F 70 00                                    ..op.           
```

#### Opcodes

```
  0: 0x024C [0x7B] EventEntity stops talking
  1: 0x0251 [0x39] SET_ENTITY_DIRECTION(direction=8.4°*)
  2: 0x0254 [0x1C] WAIT(60* ticks)
  3: 0x0257 [0x39] SET_ENTITY_DIRECTION(direction=14.1°*)
  4: 0x025A [0x1C] WAIT(60* ticks)
  5: 0x025D [0x1E] EventEntity looks at Nelcabrit (ID: 17772545/0x010F3001) and starts talking
  6: 0x0262 [0x6F] WAIT_FRAME_DELAY: Yield until WaitTime reaches zero
  7: 0x0263 [0x70] WAIT_ENTITY_RENDER_FLAG: Wait while EventEntity->Render.Flags3 bit 2 is set (cancel turn if not)
  8: 0x0264 [0x00] END_REQSTACK()
```

### Event 65535.16

#### Metadata

| Field        | Value    |
|--------------|----------|
| Entrypoint   | 0x0265   |
| Data Size    | 12 bytes |
| Instructions | 4        |

```
      00 01 02 03 04 05 06 07  08 09 0A 0B 0C 0D 0E 0F
      -- -- -- -- -- -- -- --  -- -- -- -- -- -- -- --
0260:                1F 00 49  80 4A 80 46 80 1F 01 6F       ..I.J.F...o
0270: 00                                                .               
```

#### Opcodes

```
  0: 0x0265 [0x1F] MOVE_ENTITY: EventEntity moves to X=-29.386*, Z=-50.474*, Y=8.999*
  1: 0x026D [0x1F] MOVE_ENTITY: Update entity position (mode=1)
  2: 0x026F [0x6F] WAIT_FRAME_DELAY: Yield until WaitTime reaches zero
  3: 0x0270 [0x00] END_REQSTACK()
```

### Event 65535.17

#### Metadata

| Field        | Value    |
|--------------|----------|
| Entrypoint   | 0x0271   |
| Data Size    | 20 bytes |
| Instructions | 8        |

```
      00 01 02 03 04 05 06 07  08 09 0A 0B 0C 0D 0E 0F
      -- -- -- -- -- -- -- --  -- -- -- -- -- -- -- --
0270:    1C 4B 80 1F 00 4C 80  4D 80 46 80 1F 01 6F 39   .K...L.M.F...o9
0280: 1B 80 6F 70 00                                    ..op.           
```

#### Opcodes

```
  0: 0x0271 [0x1C] WAIT(30* ticks)
  1: 0x0274 [0x1F] MOVE_ENTITY: EventEntity moves to X=-25.051*, Z=-49.983*, Y=8.999*
  2: 0x027C [0x1F] MOVE_ENTITY: Update entity position (mode=1)
  3: 0x027E [0x6F] WAIT_FRAME_DELAY: Yield until WaitTime reaches zero
  4: 0x027F [0x39] SET_ENTITY_DIRECTION(direction=0.0°*)
  5: 0x0282 [0x6F] WAIT_FRAME_DELAY: Yield until WaitTime reaches zero
  6: 0x0283 [0x70] WAIT_ENTITY_RENDER_FLAG: Wait while EventEntity->Render.Flags3 bit 2 is set (cancel turn if not)
  7: 0x0284 [0x00] END_REQSTACK()
```

### Event 65535.18

#### Metadata

| Field        | Value    |
|--------------|----------|
| Entrypoint   | 0x0285   |
| Data Size    | 13 bytes |
| Instructions | 4        |

```
      00 01 02 03 04 05 06 07  08 09 0A 0B 0C 0D 0E 0F
      -- -- -- -- -- -- -- --  -- -- -- -- -- -- -- --
0280:                1F 00 4E  80 4F 80 42 80 1F 01 22       ..N.O.B..."
0290: 01 00                                             ..              
```

#### Opcodes

```
  0: 0x0285 [0x1F] MOVE_ENTITY: EventEntity moves to X=-16.553*, Z=-50.010*, Y=9.001*
  1: 0x028D [0x1F] MOVE_ENTITY: Update entity position (mode=1)
  2: 0x028F [0x22] ENTITY_HIDE_FLAG(enabled=0x01)
  3: 0x0291 [0x00] END_REQSTACK()
```

### Event 41

#### Metadata

| Field        | Value    |
|--------------|----------|
| Entrypoint   | 0x0292   |
| Data Size    | 10 bytes |
| Instructions | 2        |

```
      00 01 02 03 04 05 06 07  08 09 0A 0B 0C 0D 0E 0F
      -- -- -- -- -- -- -- --  -- -- -- -- -- -- -- --
0290:       37 50 80 51 80 46  80 52 80 00                7P.Q.F.R..    
```

#### Opcodes

```
  0: 0x0292 [0x37] UPDATE_EVENT_POSITION_AND_DIR: x=4.070*, z=-69.098*, y=8.999*, direction=84.5°*
  1: 0x029B [0x00] END_REQSTACK()
```

### Event 65535.19

#### Metadata

| Field        | Value    |
|--------------|----------|
| Entrypoint   | 0x029C   |
| Data Size    | 14 bytes |
| Instructions | 4        |

```
      00 01 02 03 04 05 06 07  08 09 0A 0B 0C 0D 0E 0F
      -- -- -- -- -- -- -- --  -- -- -- -- -- -- -- --
0290:                                      32 00 80 1F              2...
02A0: 00 53 80 54 80 46 80 1F  01 00                    .S.T.F....      
```

#### Opcodes

```
  0: 0x029C [0x32] ExtData[1]->MainSpeed = 13* * 0.1
  1: 0x029F [0x1F] MOVE_ENTITY: EventEntity moves to X=3.073*, Z=-76.855*, Y=8.999*
  2: 0x02A7 [0x1F] MOVE_ENTITY: Update entity position (mode=1)
  3: 0x02A9 [0x00] END_REQSTACK()
```

### Event 65535.20

#### Metadata

| Field        | Value    |
|--------------|----------|
| Entrypoint   | 0x02AA   |
| Data Size    | 20 bytes |
| Instructions | 8        |

```
      00 01 02 03 04 05 06 07  08 09 0A 0B 0C 0D 0E 0F
      -- -- -- -- -- -- -- --  -- -- -- -- -- -- -- --
02A0:                                39 55 80 1C 33 80            9U..3.
02B0: 39 47 80 1C 33 80 1E 03  30 0F 01 6F 70 00        9G..3...0..op.  
```

#### Opcodes

```
  0: 0x02AA [0x39] SET_ENTITY_DIRECTION(direction=2.8°*)
  1: 0x02AD [0x1C] WAIT(60* ticks)
  2: 0x02B0 [0x39] SET_ENTITY_DIRECTION(direction=8.4°*)
  3: 0x02B3 [0x1C] WAIT(60* ticks)
  4: 0x02B6 [0x1E] EventEntity looks at Goggehn (ID: 17772547/0x010F3003) and starts talking
  5: 0x02BB [0x6F] WAIT_FRAME_DELAY: Yield until WaitTime reaches zero
  6: 0x02BC [0x70] WAIT_ENTITY_RENDER_FLAG: Wait while EventEntity->Render.Flags3 bit 2 is set (cancel turn if not)
  7: 0x02BD [0x00] END_REQSTACK()
```

### Event 65535.21

#### Metadata

| Field        | Value    |
|--------------|----------|
| Entrypoint   | 0x02BE   |
| Data Size    | 18 bytes |
| Instructions | 6        |

```
      00 01 02 03 04 05 06 07  08 09 0A 0B 0C 0D 0E 0F
      -- -- -- -- -- -- -- --  -- -- -- -- -- -- -- --
02B0:                                            1F 00                ..
02C0: 56 80 57 80 46 80 1F 01  1E 08 30 0F 01 6F 70 00  V.W.F.....0..op.
```

#### Opcodes

```
  0: 0x02BE [0x1F] MOVE_ENTITY: EventEntity moves to X=3.408*, Z=-73.584*, Y=8.999*
  1: 0x02C6 [0x1F] MOVE_ENTITY: Update entity position (mode=1)
  2: 0x02C8 [0x1E] EventEntity looks at Monberaux (ID: 17772552/0x010F3008) and starts talking
  3: 0x02CD [0x6F] WAIT_FRAME_DELAY: Yield until WaitTime reaches zero
  4: 0x02CE [0x70] WAIT_ENTITY_RENDER_FLAG: Wait while EventEntity->Render.Flags3 bit 2 is set (cancel turn if not)
  5: 0x02CF [0x00] END_REQSTACK()
```

### Event 65535.22

#### Metadata

| Field        | Value    |
|--------------|----------|
| Entrypoint   | 0x02D0   |
| Data Size    | 14 bytes |
| Instructions | 4        |

```
      00 01 02 03 04 05 06 07  08 09 0A 0B 0C 0D 0E 0F
      -- -- -- -- -- -- -- --  -- -- -- -- -- -- -- --
02D0: 1C 4B 80 1F 00 58 80 59  80 46 80 1F 01 00        .K...X.Y.F....  
```

#### Opcodes

```
  0: 0x02D0 [0x1C] WAIT(30* ticks)
  1: 0x02D3 [0x1F] MOVE_ENTITY: EventEntity moves to X=4.022*, Z=-68.869*, Y=8.999*
  2: 0x02DB [0x1F] MOVE_ENTITY: Update entity position (mode=1)
  3: 0x02DD [0x00] END_REQSTACK()
```

### Event 65535.23

#### Metadata

| Field        | Value    |
|--------------|----------|
| Entrypoint   | 0x02DE   |
| Data Size    | 13 bytes |
| Instructions | 4        |

```
      00 01 02 03 04 05 06 07  08 09 0A 0B 0C 0D 0E 0F
      -- -- -- -- -- -- -- --  -- -- -- -- -- -- -- --
02D0:                                            1F 00                ..
02E0: 5A 80 5B 80 46 80 1F 01  22 01 00                 Z.[.F..."..     
```

#### Opcodes

```
  0: 0x02DE [0x1F] MOVE_ENTITY: EventEntity moves to X=3.937*, Z=-60.244*, Y=8.999*
  1: 0x02E6 [0x1F] MOVE_ENTITY: Update entity position (mode=1)
  2: 0x02E8 [0x22] ENTITY_HIDE_FLAG(enabled=0x01)
  3: 0x02EA [0x00] END_REQSTACK()
```

### Event 43

#### Metadata

| Field        | Value    |
|--------------|----------|
| Entrypoint   | 0x02EB   |
| Data Size    | 10 bytes |
| Instructions | 2        |

```
      00 01 02 03 04 05 06 07  08 09 0A 0B 0C 0D 0E 0F
      -- -- -- -- -- -- -- --  -- -- -- -- -- -- -- --
02E0:                                   37 5C 80 5D 80             7\.].
02F0: 46 80 5E 80 00                                    F.^..           
```

#### Opcodes

```
  0: 0x02EB [0x37] UPDATE_EVENT_POSITION_AND_DIR: x=26.235*, z=-35.999*, y=8.999*, direction=356.5°*
  1: 0x02F4 [0x00] END_REQSTACK()
```

### Event 65535.24

#### Metadata

| Field        | Value    |
|--------------|----------|
| Entrypoint   | 0x02F5   |
| Data Size    | 14 bytes |
| Instructions | 4        |

```
      00 01 02 03 04 05 06 07  08 09 0A 0B 0C 0D 0E 0F
      -- -- -- -- -- -- -- --  -- -- -- -- -- -- -- --
02F0:                32 00 80  1F 00 5F 80 60 80 46 80       2...._.`.F.
0300: 1F 01 00                                          ...             
```

#### Opcodes

```
  0: 0x02F5 [0x32] ExtData[1]->MainSpeed = 13* * 0.1
  1: 0x02F8 [0x1F] MOVE_ENTITY: EventEntity moves to X=33.868*, Z=-36.892*, Y=8.999*
  2: 0x0300 [0x1F] MOVE_ENTITY: Update entity position (mode=1)
  3: 0x0302 [0x00] END_REQSTACK()
```

### Event 65535.25

#### Metadata

| Field        | Value    |
|--------------|----------|
| Entrypoint   | 0x0303   |
| Data Size    | 20 bytes |
| Instructions | 8        |

```
      00 01 02 03 04 05 06 07  08 09 0A 0B 0C 0D 0E 0F
      -- -- -- -- -- -- -- --  -- -- -- -- -- -- -- --
0300:          39 61 80 1C 33  80 39 55 80 1C 33 80 1E     9a..3.9U..3..
0310: 05 30 0F 01 6F 70 00                              .0..op.         
```

#### Opcodes

```
  0: 0x0303 [0x39] SET_ENTITY_DIRECTION(direction=357.2°*)
  1: 0x0306 [0x1C] WAIT(60* ticks)
  2: 0x0309 [0x39] SET_ENTITY_DIRECTION(direction=2.8°*)
  3: 0x030C [0x1C] WAIT(60* ticks)
  4: 0x030F [0x1E] EventEntity looks at Pakh Jatalfih (ID: 17772549/0x010F3005) and starts talking
  5: 0x0314 [0x6F] WAIT_FRAME_DELAY: Yield until WaitTime reaches zero
  6: 0x0315 [0x70] WAIT_ENTITY_RENDER_FLAG: Wait while EventEntity->Render.Flags3 bit 2 is set (cancel turn if not)
  7: 0x0316 [0x00] END_REQSTACK()
```

### Event 65535.26

#### Metadata

| Field        | Value    |
|--------------|----------|
| Entrypoint   | 0x0317   |
| Data Size    | 14 bytes |
| Instructions | 4        |

```
      00 01 02 03 04 05 06 07  08 09 0A 0B 0C 0D 0E 0F
      -- -- -- -- -- -- -- --  -- -- -- -- -- -- -- --
0310:                      32  00 80 1F 00 62 80 63 80         2....b.c.
0320: 46 80 1F 01 00                                    F....           
```

#### Opcodes

```
  0: 0x0317 [0x32] ExtData[1]->MainSpeed = 13* * 0.1
  1: 0x031A [0x1F] MOVE_ENTITY: EventEntity moves to X=30.716*, Z=-36.054*, Y=8.999*
  2: 0x0322 [0x1F] MOVE_ENTITY: Update entity position (mode=1)
  3: 0x0324 [0x00] END_REQSTACK()
```

### Event 65535.27

#### Metadata

| Field        | Value    |
|--------------|----------|
| Entrypoint   | 0x0325   |
| Data Size    | 17 bytes |
| Instructions | 5        |

```
      00 01 02 03 04 05 06 07  08 09 0A 0B 0C 0D 0E 0F
      -- -- -- -- -- -- -- --  -- -- -- -- -- -- -- --
0320:                1C 4B 80  32 00 80 1F 00 5C 80 5D       .K.2....\.]
0330: 80 46 80 1F 01 00                                 .F....          
```

#### Opcodes

```
  0: 0x0325 [0x1C] WAIT(30* ticks)
  1: 0x0328 [0x32] ExtData[1]->MainSpeed = 13* * 0.1
  2: 0x032B [0x1F] MOVE_ENTITY: EventEntity moves to X=26.235*, Z=-35.999*, Y=8.999*
  3: 0x0333 [0x1F] MOVE_ENTITY: Update entity position (mode=1)
  4: 0x0335 [0x00] END_REQSTACK()
```

### Event 65535.28

#### Metadata

| Field        | Value    |
|--------------|----------|
| Entrypoint   | 0x0336   |
| Data Size    | 13 bytes |
| Instructions | 4        |

```
      00 01 02 03 04 05 06 07  08 09 0A 0B 0C 0D 0E 0F
      -- -- -- -- -- -- -- --  -- -- -- -- -- -- -- --
0330:                   1F 00  64 80 65 80 46 80 1F 01        ..d.e.F...
0340: 22 01 00                                          "..             
```

#### Opcodes

```
  0: 0x0336 [0x1F] MOVE_ENTITY: EventEntity moves to X=14.492*, Z=-35.773*, Y=8.999*
  1: 0x033E [0x1F] MOVE_ENTITY: Update entity position (mode=1)
  2: 0x0340 [0x22] ENTITY_HIDE_FLAG(enabled=0x01)
  3: 0x0342 [0x00] END_REQSTACK()
```

### Event 65535.29

#### Metadata

| Field        | Value   |
|--------------|---------|
| Entrypoint   | 0x0343  |
| Data Size    | 3 bytes |
| Instructions | 2       |

```
      00 01 02 03 04 05 06 07  08 09 0A 0B 0C 0D 0E 0F
      -- -- -- -- -- -- -- --  -- -- -- -- -- -- -- --
0340:          22 00 00                                    "..          
```

#### Opcodes

```
  0: 0x0343 [0x22] ENTITY_HIDE_FLAG(enabled=0x00)
  1: 0x0345 [0x00] END_REQSTACK()
```

### Event 60

#### Metadata

| Field        | Value    |
|--------------|----------|
| Entrypoint   | 0x0346   |
| Data Size    | 10 bytes |
| Instructions | 2        |

```
      00 01 02 03 04 05 06 07  08 09 0A 0B 0C 0D 0E 0F
      -- -- -- -- -- -- -- --  -- -- -- -- -- -- -- --
0340:                   37 1B  80 66 80 12 80 67 80 00        7..f...g..
```

#### Opcodes

```
  0: 0x0346 [0x37] UPDATE_EVENT_POSITION_AND_DIR: x=0.000*, z=65.946*, y=-4.999*, direction=274.4°*
  1: 0x034F [0x00] END_REQSTACK()
```

### Event 65535.30

#### Metadata

| Field        | Value    |
|--------------|----------|
| Entrypoint   | 0x0350   |
| Data Size    | 14 bytes |
| Instructions | 4        |

```
      00 01 02 03 04 05 06 07  08 09 0A 0B 0C 0D 0E 0F
      -- -- -- -- -- -- -- --  -- -- -- -- -- -- -- --
0350: 32 68 80 1F 00 1B 80 69  80 12 80 1F 01 00        2h.....i......  
```

#### Opcodes

```
  0: 0x0350 [0x32] ExtData[1]->MainSpeed = 40* * 0.1
  1: 0x0353 [0x1F] MOVE_ENTITY: EventEntity moves to X=0.000*, Z=70.899*, Y=-4.999*
  2: 0x035B [0x1F] MOVE_ENTITY: Update entity position (mode=1)
  3: 0x035D [0x00] END_REQSTACK()
```

### Event 65535.31

#### Metadata

| Field        | Value    |
|--------------|----------|
| Entrypoint   | 0x035E   |
| Data Size    | 13 bytes |
| Instructions | 4        |

```
      00 01 02 03 04 05 06 07  08 09 0A 0B 0C 0D 0E 0F
      -- -- -- -- -- -- -- --  -- -- -- -- -- -- -- --
0350:                                            1F 00                ..
0360: 6A 80 6B 80 12 80 1F 01  22 01 00                 j.k....."..     
```

#### Opcodes

```
  0: 0x035E [0x1F] MOVE_ENTITY: EventEntity moves to X=-0.008*, Z=63.020*, Y=-4.999*
  1: 0x0366 [0x1F] MOVE_ENTITY: Update entity position (mode=1)
  2: 0x0368 [0x22] ENTITY_HIDE_FLAG(enabled=0x01)
  3: 0x036A [0x00] END_REQSTACK()
```

### Event 65535.32

#### Metadata

| Field        | Value    |
|--------------|----------|
| Entrypoint   | 0x036B   |
| Data Size    | 19 bytes |
| Instructions | 3        |

```
      00 01 02 03 04 05 06 07  08 09 0A 0B 0C 0D 0E 0F
      -- -- -- -- -- -- -- --  -- -- -- -- -- -- -- --
0360:                                   66 1B 80 F8 FF             f....
0370: FF 7F F8 FF FF 7F 74 6C  6B 30 1C 33 80 00        ......tlk0.3..  
```

#### Opcodes

```
  0: 0x036B [0x66] LOAD_EXT_SCHEDULER_MAIN: Load scheduler "tlk0" with entities [EventEntity, EventEntity], work=0*
  1: 0x037A [0x1C] WAIT(60* ticks)
  2: 0x037D [0x00] END_REQSTACK()
```

### Event 65535.33

#### Metadata

| Field        | Value    |
|--------------|----------|
| Entrypoint   | 0x037E   |
| Data Size    | 29 bytes |
| Instructions | 3        |

```
      00 01 02 03 04 05 06 07  08 09 0A 0B 0C 0D 0E 0F
      -- -- -- -- -- -- -- --  -- -- -- -- -- -- -- --
0370:                                            66 1B                f.
0380: 80 F8 FF FF 7F F8 FF FF  7F 74 65 6E 30 53 F8 FF  .........ten0S..
0390: FF 7F F8 FF FF 7F 74 65  6E 30 00                 ......ten0.     
```

#### Opcodes

```
  0: 0x037E [0x66] LOAD_EXT_SCHEDULER_MAIN: Load scheduler "ten0" with entities [EventEntity, EventEntity], work=0*
  1: 0x038D [0x53] WAIT_SCHEDULER_TASK: Wait for scheduler "ten0" with entities [EventEntity, EventEntity]
  2: 0x039A [0x00] END_REQSTACK()
```

### Event 65535.34

#### Metadata

| Field        | Value    |
|--------------|----------|
| Entrypoint   | 0x039B   |
| Data Size    | 19 bytes |
| Instructions | 3        |

```
      00 01 02 03 04 05 06 07  08 09 0A 0B 0C 0D 0E 0F
      -- -- -- -- -- -- -- --  -- -- -- -- -- -- -- --
0390:                                   66 1B 80 F8 FF             f....
03A0: FF 7F F8 FF FF 7F 74 6C  6B 31 1C 33 80 00        ......tlk1.3..  
```

#### Opcodes

```
  0: 0x039B [0x66] LOAD_EXT_SCHEDULER_MAIN: Load scheduler "tlk1" with entities [EventEntity, EventEntity], work=0*
  1: 0x03AA [0x1C] WAIT(60* ticks)
  2: 0x03AD [0x00] END_REQSTACK()
```

### Event 65535.35

#### Metadata

| Field        | Value    |
|--------------|----------|
| Entrypoint   | 0x03AE   |
| Data Size    | 29 bytes |
| Instructions | 3        |

```
      00 01 02 03 04 05 06 07  08 09 0A 0B 0C 0D 0E 0F
      -- -- -- -- -- -- -- --  -- -- -- -- -- -- -- --
03A0:                                            66 1B                f.
03B0: 80 F8 FF FF 7F F8 FF FF  7F 74 65 6E 32 53 F8 FF  .........ten2S..
03C0: FF 7F F8 FF FF 7F 74 65  6E 32 00                 ......ten2.     
```

#### Opcodes

```
  0: 0x03AE [0x66] LOAD_EXT_SCHEDULER_MAIN: Load scheduler "ten2" with entities [EventEntity, EventEntity], work=0*
  1: 0x03BD [0x53] WAIT_SCHEDULER_TASK: Wait for scheduler "ten2" with entities [EventEntity, EventEntity]
  2: 0x03CA [0x00] END_REQSTACK()
```

### Event 65535.36

#### Metadata

| Field        | Value    |
|--------------|----------|
| Entrypoint   | 0x03CB   |
| Data Size    | 29 bytes |
| Instructions | 3        |

```
      00 01 02 03 04 05 06 07  08 09 0A 0B 0C 0D 0E 0F
      -- -- -- -- -- -- -- --  -- -- -- -- -- -- -- --
03C0:                                   66 1B 80 F8 FF             f....
03D0: FF 7F F8 FF FF 7F 70 61  73 30 53 F8 FF FF 7F F8  ......pas0S.....
03E0: FF FF 7F 70 61 73 30 00                           ...pas0.        
```

#### Opcodes

```
  0: 0x03CB [0x66] LOAD_EXT_SCHEDULER_MAIN: Load scheduler "pas0" with entities [EventEntity, EventEntity], work=0*
  1: 0x03DA [0x53] WAIT_SCHEDULER_TASK: Wait for scheduler "pas0" with entities [EventEntity, EventEntity]
  2: 0x03E7 [0x00] END_REQSTACK()
```

### Event 65535.37

#### Metadata

| Field        | Value   |
|--------------|---------|
| Entrypoint   | 0x03E8  |
| Data Size    | 9 bytes |
| Instructions | 3       |

```
      00 01 02 03 04 05 06 07  08 09 0A 0B 0C 0D 0E 0F
      -- -- -- -- -- -- -- --  -- -- -- -- -- -- -- --
03E0:                          5E 69 64 6C 30 1C 33 80          ^idl0.3.
03F0: 00                                                .               
```

#### Opcodes

```
  0: 0x03E8 [0x5E] EventEntity goes idle (kills current action) (animation: "idl0")
  1: 0x03ED [0x1C] WAIT(60* ticks)
  2: 0x03F0 [0x00] END_REQSTACK()
```

### Event 65535.38

#### Metadata

| Field        | Value   |
|--------------|---------|
| Entrypoint   | 0x03F1  |
| Data Size    | 1 bytes |
| Instructions | 1       |

```
      00 01 02 03 04 05 06 07  08 09 0A 0B 0C 0D 0E 0F
      -- -- -- -- -- -- -- --  -- -- -- -- -- -- -- --
03F0:    00                                              .              
```

#### Opcodes

```
  0: 0x03F1 [0x00] END_REQSTACK()
```

### Event 10115

#### Metadata

| Field        | Value   |
|--------------|---------|
| Entrypoint   | 0x03F2  |
| Data Size    | 1 bytes |
| Instructions | 1       |

```
      00 01 02 03 04 05 06 07  08 09 0A 0B 0C 0D 0E 0F
      -- -- -- -- -- -- -- --  -- -- -- -- -- -- -- --
03F0:       00                                            .             
```

#### Opcodes

```
  0: 0x03F2 [0x00] END_REQSTACK()
```

### Event 10116

#### Metadata

| Field        | Value   |
|--------------|---------|
| Entrypoint   | 0x03F3  |
| Data Size    | 1 bytes |
| Instructions | 1       |

```
      00 01 02 03 04 05 06 07  08 09 0A 0B 0C 0D 0E 0F
      -- -- -- -- -- -- -- --  -- -- -- -- -- -- -- --
03F0:          00                                          .            
```

#### Opcodes

```
  0: 0x03F3 [0x00] END_REQSTACK()
```

### Event 65535.39

#### Metadata

| Field        | Value    |
|--------------|----------|
| Entrypoint   | 0x03F4   |
| Data Size    | 21 bytes |
| Instructions | 5        |

```
      00 01 02 03 04 05 06 07  08 09 0A 0B 0C 0D 0E 0F
      -- -- -- -- -- -- -- --  -- -- -- -- -- -- -- --
03F0:             1F 00 6C 80  6D 80 12 80 1F 01 6F 4A      ..l.m.....oJ
0400: 07 30 0F 01 F0 FF FF 7F  00                       .0.......       
```

#### Opcodes

```
  0: 0x03F4 [0x1F] MOVE_ENTITY: EventEntity moves to X=-1.321*, Z=64.915*, Y=-4.999*
  1: 0x03FC [0x1F] MOVE_ENTITY: Update entity position (mode=1)
  2: 0x03FE [0x6F] WAIT_FRAME_DELAY: Yield until WaitTime reaches zero
  3: 0x03FF [0x4A] Wolfgang (ID: 17772551/0x010F3007) looks at LocalPlayer
  4: 0x0408 [0x00] END_REQSTACK()
```

### Event 65535.40

#### Metadata

| Field        | Value    |
|--------------|----------|
| Entrypoint   | 0x0409   |
| Data Size    | 37 bytes |
| Instructions | 9        |

```
      00 01 02 03 04 05 06 07  08 09 0A 0B 0C 0D 0E 0F
      -- -- -- -- -- -- -- --  -- -- -- -- -- -- -- --
0400:                             1F 00 6E 80 6F 80 31           ..n.o.1
0410: 80 1F 01 6F 1E 92 30 0F  01 27 10 92 30 0F 01 03  ...o..0..'..0...
0420: 1C 33 80 1F 00 1C 80 70  80 12 80 1F 01 00        .3.....p......  
```

#### Opcodes

```
  0: 0x0409 [0x1F] MOVE_ENTITY: EventEntity moves to X=-0.007*, Z=68.308*, Y=-5.000*
  1: 0x0411 [0x1F] MOVE_ENTITY: Update entity position (mode=1)
  2: 0x0413 [0x6F] WAIT_FRAME_DELAY: Yield until WaitTime reaches zero
  3: 0x0414 [0x1E] EventEntity looks at Door:Audience Chamber (ID: 17772690/0x010F3092) and starts talking
  4: 0x0419 [0x27] REQ_SET(priority=0x10, entity_id=Door:Audience Chamber (ID: 17772690/0x010F3092), tag_num=0x03)
  5: 0x0420 [0x1C] WAIT(60* ticks)
  6: 0x0423 [0x1F] MOVE_ENTITY: EventEntity moves to X=0.005*, Z=76.299*, Y=-4.999*
  7: 0x042B [0x1F] MOVE_ENTITY: Update entity position (mode=1)
  8: 0x042D [0x00] END_REQSTACK()
```

### Event 65535.41

#### Metadata

| Field        | Value    |
|--------------|----------|
| Entrypoint   | 0x042E   |
| Data Size    | 12 bytes |
| Instructions | 4        |

```
      00 01 02 03 04 05 06 07  08 09 0A 0B 0C 0D 0E 0F
      -- -- -- -- -- -- -- --  -- -- -- -- -- -- -- --
0420:                                            1F 00                ..
0430: 71 80 72 80 12 80 1F 01  6F 00                    q.r.....o.      
```

#### Opcodes

```
  0: 0x042E [0x1F] MOVE_ENTITY: EventEntity moves to X=-0.003*, Z=68.086*, Y=-4.999*
  1: 0x0436 [0x1F] MOVE_ENTITY: Update entity position (mode=1)
  2: 0x0438 [0x6F] WAIT_FRAME_DELAY: Yield until WaitTime reaches zero
  3: 0x0439 [0x00] END_REQSTACK()
```

### Event 65535.42

#### Metadata

| Field        | Value    |
|--------------|----------|
| Entrypoint   | 0x043A   |
| Data Size    | 16 bytes |
| Instructions | 2        |

```
      00 01 02 03 04 05 06 07  08 09 0A 0B 0C 0D 0E 0F
      -- -- -- -- -- -- -- --  -- -- -- -- -- -- -- --
0430:                                66 1B 80 F8 FF FF            f.....
0440: 7F F8 FF FF 7F 74 6C 6B  30 00                    .....tlk0.      
```

#### Opcodes

```
  0: 0x043A [0x66] LOAD_EXT_SCHEDULER_MAIN: Load scheduler "tlk0" with entities [EventEntity, EventEntity], work=0*
  1: 0x0449 [0x00] END_REQSTACK()
```

### Event 65535.43

#### Metadata

| Field        | Value    |
|--------------|----------|
| Entrypoint   | 0x044A   |
| Data Size    | 14 bytes |
| Instructions | 2        |

```
      00 01 02 03 04 05 06 07  08 09 0A 0B 0C 0D 0E 0F
      -- -- -- -- -- -- -- --  -- -- -- -- -- -- -- --
0440:                                53 F8 FF FF 7F F8            S.....
0450: FF FF 7F 74 6C 6B 30 00                           ...tlk0.        
```

#### Opcodes

```
  0: 0x044A [0x53] WAIT_SCHEDULER_TASK: Wait for scheduler "tlk0" with entities [EventEntity, EventEntity]
  1: 0x0457 [0x00] END_REQSTACK()
```

### Event 65535.44

#### Metadata

| Field        | Value    |
|--------------|----------|
| Entrypoint   | 0x0458   |
| Data Size    | 16 bytes |
| Instructions | 2        |

```
      00 01 02 03 04 05 06 07  08 09 0A 0B 0C 0D 0E 0F
      -- -- -- -- -- -- -- --  -- -- -- -- -- -- -- --
0450:                          66 1B 80 F8 FF FF 7F F8          f.......
0460: FF FF 7F 64 69 73 30 00                           ...dis0.        
```

#### Opcodes

```
  0: 0x0458 [0x66] LOAD_EXT_SCHEDULER_MAIN: Load scheduler "dis0" with entities [EventEntity, EventEntity], work=0*
  1: 0x0467 [0x00] END_REQSTACK()
```

### Event 65535.45

#### Metadata

| Field        | Value    |
|--------------|----------|
| Entrypoint   | 0x0468   |
| Data Size    | 14 bytes |
| Instructions | 2        |

```
      00 01 02 03 04 05 06 07  08 09 0A 0B 0C 0D 0E 0F
      -- -- -- -- -- -- -- --  -- -- -- -- -- -- -- --
0460:                          53 F8 FF FF 7F F8 FF FF          S.......
0470: 7F 64 69 73 30 00                                 .dis0.          
```

#### Opcodes

```
  0: 0x0468 [0x53] WAIT_SCHEDULER_TASK: Wait for scheduler "dis0" with entities [EventEntity, EventEntity]
  1: 0x0475 [0x00] END_REQSTACK()
```

### Event 65535.46

#### Metadata

| Field        | Value    |
|--------------|----------|
| Entrypoint   | 0x0476   |
| Data Size    | 16 bytes |
| Instructions | 2        |

```
      00 01 02 03 04 05 06 07  08 09 0A 0B 0C 0D 0E 0F
      -- -- -- -- -- -- -- --  -- -- -- -- -- -- -- --
0470:                   66 1B  80 F8 FF FF 7F F8 FF FF        f.........
0480: 7F 70 61 73 30 00                                 .pas0.          
```

#### Opcodes

```
  0: 0x0476 [0x66] LOAD_EXT_SCHEDULER_MAIN: Load scheduler "pas0" with entities [EventEntity, EventEntity], work=0*
  1: 0x0485 [0x00] END_REQSTACK()
```

### Event 65535.47

#### Metadata

| Field        | Value    |
|--------------|----------|
| Entrypoint   | 0x0486   |
| Data Size    | 14 bytes |
| Instructions | 2        |

```
      00 01 02 03 04 05 06 07  08 09 0A 0B 0C 0D 0E 0F
      -- -- -- -- -- -- -- --  -- -- -- -- -- -- -- --
0480:                   53 F8  FF FF 7F F8 FF FF 7F 70        S........p
0490: 61 73 30 00                                       as0.            
```

#### Opcodes

```
  0: 0x0486 [0x53] WAIT_SCHEDULER_TASK: Wait for scheduler "pas0" with entities [EventEntity, EventEntity]
  1: 0x0493 [0x00] END_REQSTACK()
```

### Event 65535.48

#### Metadata

| Field        | Value    |
|--------------|----------|
| Entrypoint   | 0x0494   |
| Data Size    | 16 bytes |
| Instructions | 2        |

```
      00 01 02 03 04 05 06 07  08 09 0A 0B 0C 0D 0E 0F
      -- -- -- -- -- -- -- --  -- -- -- -- -- -- -- --
0490:             66 73 80 F8  FF FF 7F F8 FF FF 7F 74      fs.........t
04A0: 6C 64 30 00                                       ld0.            
```

#### Opcodes

```
  0: 0x0494 [0x66] LOAD_EXT_SCHEDULER_MAIN: Load scheduler "tld0" with entities [EventEntity, EventEntity], work=2*
  1: 0x04A3 [0x00] END_REQSTACK()
```

### Event 65535.49

#### Metadata

| Field        | Value    |
|--------------|----------|
| Entrypoint   | 0x04A4   |
| Data Size    | 14 bytes |
| Instructions | 2        |

```
      00 01 02 03 04 05 06 07  08 09 0A 0B 0C 0D 0E 0F
      -- -- -- -- -- -- -- --  -- -- -- -- -- -- -- --
04A0:             53 F8 FF FF  7F F8 FF FF 7F 74 6C 64      S........tld
04B0: 30 00                                             0.              
```

#### Opcodes

```
  0: 0x04A4 [0x53] WAIT_SCHEDULER_TASK: Wait for scheduler "tld0" with entities [EventEntity, EventEntity]
  1: 0x04B1 [0x00] END_REQSTACK()
```

### Event 65535.50

#### Metadata

| Field        | Value    |
|--------------|----------|
| Entrypoint   | 0x04B2   |
| Data Size    | 16 bytes |
| Instructions | 2        |

```
      00 01 02 03 04 05 06 07  08 09 0A 0B 0C 0D 0E 0F
      -- -- -- -- -- -- -- --  -- -- -- -- -- -- -- --
04B0:       66 73 80 F8 FF FF  7F F8 FF FF 7F 74 6C 64    fs.........tld
04C0: 31 00                                             1.              
```

#### Opcodes

```
  0: 0x04B2 [0x66] LOAD_EXT_SCHEDULER_MAIN: Load scheduler "tld1" with entities [EventEntity, EventEntity], work=2*
  1: 0x04C1 [0x00] END_REQSTACK()
```

### Event 65535.51

#### Metadata

| Field        | Value    |
|--------------|----------|
| Entrypoint   | 0x04C2   |
| Data Size    | 14 bytes |
| Instructions | 2        |

```
      00 01 02 03 04 05 06 07  08 09 0A 0B 0C 0D 0E 0F
      -- -- -- -- -- -- -- --  -- -- -- -- -- -- -- --
04C0:       53 F8 FF FF 7F F8  FF FF 7F 74 6C 64 31 00    S........tld1.
```

#### Opcodes

```
  0: 0x04C2 [0x53] WAIT_SCHEDULER_TASK: Wait for scheduler "tld1" with entities [EventEntity, EventEntity]
  1: 0x04CF [0x00] END_REQSTACK()
```

### Event 65535.52

#### Metadata

| Field        | Value    |
|--------------|----------|
| Entrypoint   | 0x04D0   |
| Data Size    | 16 bytes |
| Instructions | 2        |

```
      00 01 02 03 04 05 06 07  08 09 0A 0B 0C 0D 0E 0F
      -- -- -- -- -- -- -- --  -- -- -- -- -- -- -- --
04D0: 66 1B 80 F8 FF FF 7F F8  FF FF 7F 74 6C 6B 31 00  f..........tlk1.
```

#### Opcodes

```
  0: 0x04D0 [0x66] LOAD_EXT_SCHEDULER_MAIN: Load scheduler "tlk1" with entities [EventEntity, EventEntity], work=0*
  1: 0x04DF [0x00] END_REQSTACK()
```

### Event 65535.53

#### Metadata

| Field        | Value    |
|--------------|----------|
| Entrypoint   | 0x04E0   |
| Data Size    | 14 bytes |
| Instructions | 2        |

```
      00 01 02 03 04 05 06 07  08 09 0A 0B 0C 0D 0E 0F
      -- -- -- -- -- -- -- --  -- -- -- -- -- -- -- --
04E0: 53 F8 FF FF 7F F8 FF FF  7F 74 6C 6B 31 00        S........tlk1.  
```

#### Opcodes

```
  0: 0x04E0 [0x53] WAIT_SCHEDULER_TASK: Wait for scheduler "tlk1" with entities [EventEntity, EventEntity]
  1: 0x04ED [0x00] END_REQSTACK()
```

### Event 65535.54

#### Metadata

| Field        | Value    |
|--------------|----------|
| Entrypoint   | 0x04EE   |
| Data Size    | 16 bytes |
| Instructions | 2        |

```
      00 01 02 03 04 05 06 07  08 09 0A 0B 0C 0D 0E 0F
      -- -- -- -- -- -- -- --  -- -- -- -- -- -- -- --
04E0:                                            66 1B                f.
04F0: 80 F8 FF FF 7F F8 FF FF  7F 74 65 6E 30 00        .........ten0.  
```

#### Opcodes

```
  0: 0x04EE [0x66] LOAD_EXT_SCHEDULER_MAIN: Load scheduler "ten0" with entities [EventEntity, EventEntity], work=0*
  1: 0x04FD [0x00] END_REQSTACK()
```

### Event 65535.55

#### Metadata

| Field        | Value    |
|--------------|----------|
| Entrypoint   | 0x04FE   |
| Data Size    | 14 bytes |
| Instructions | 2        |

```
      00 01 02 03 04 05 06 07  08 09 0A 0B 0C 0D 0E 0F
      -- -- -- -- -- -- -- --  -- -- -- -- -- -- -- --
04F0:                                            53 F8                S.
0500: FF FF 7F F8 FF FF 7F 74  65 6E 30 00              .......ten0.    
```

#### Opcodes

```
  0: 0x04FE [0x53] WAIT_SCHEDULER_TASK: Wait for scheduler "ten0" with entities [EventEntity, EventEntity]
  1: 0x050B [0x00] END_REQSTACK()
```

### Event 65535.56

#### Metadata

| Field        | Value    |
|--------------|----------|
| Entrypoint   | 0x050C   |
| Data Size    | 16 bytes |
| Instructions | 2        |

```
      00 01 02 03 04 05 06 07  08 09 0A 0B 0C 0D 0E 0F
      -- -- -- -- -- -- -- --  -- -- -- -- -- -- -- --
0500:                                      66 1B 80 F8              f...
0510: FF FF 7F F8 FF FF 7F 74  65 6E 31 00              .......ten1.    
```

#### Opcodes

```
  0: 0x050C [0x66] LOAD_EXT_SCHEDULER_MAIN: Load scheduler "ten1" with entities [EventEntity, EventEntity], work=0*
  1: 0x051B [0x00] END_REQSTACK()
```

### Event 65535.57

#### Metadata

| Field        | Value    |
|--------------|----------|
| Entrypoint   | 0x051C   |
| Data Size    | 14 bytes |
| Instructions | 2        |

```
      00 01 02 03 04 05 06 07  08 09 0A 0B 0C 0D 0E 0F
      -- -- -- -- -- -- -- --  -- -- -- -- -- -- -- --
0510:                                      53 F8 FF FF              S...
0520: 7F F8 FF FF 7F 74 65 6E  31 00                    .....ten1.      
```

#### Opcodes

```
  0: 0x051C [0x53] WAIT_SCHEDULER_TASK: Wait for scheduler "ten1" with entities [EventEntity, EventEntity]
  1: 0x0529 [0x00] END_REQSTACK()
```

### Event 65535.58

#### Metadata

| Field        | Value   |
|--------------|---------|
| Entrypoint   | 0x052A  |
| Data Size    | 9 bytes |
| Instructions | 3       |

```
      00 01 02 03 04 05 06 07  08 09 0A 0B 0C 0D 0E 0F
      -- -- -- -- -- -- -- --  -- -- -- -- -- -- -- --
0520:                                5E 69 64 6C 30 1C            ^idl0.
0530: 4B 80 00                                          K..             
```

#### Opcodes

```
  0: 0x052A [0x5E] EventEntity goes idle (kills current action) (animation: "idl0")
  1: 0x052F [0x1C] WAIT(30* ticks)
  2: 0x0532 [0x00] END_REQSTACK()
```

### Event 65535.59

#### Metadata

| Field        | Value    |
|--------------|----------|
| Entrypoint   | 0x0533   |
| Data Size    | 16 bytes |
| Instructions | 2        |

```
      00 01 02 03 04 05 06 07  08 09 0A 0B 0C 0D 0E 0F
      -- -- -- -- -- -- -- --  -- -- -- -- -- -- -- --
0530:          66 1B 80 F8 FF  FF 7F F8 FF FF 7F 74 68     f..........th
0540: 6B 31 00                                          k1.             
```

#### Opcodes

```
  0: 0x0533 [0x66] LOAD_EXT_SCHEDULER_MAIN: Load scheduler "thk1" with entities [EventEntity, EventEntity], work=0*
  1: 0x0542 [0x00] END_REQSTACK()
```

### Event 65535.60

#### Metadata

| Field        | Value    |
|--------------|----------|
| Entrypoint   | 0x0543   |
| Data Size    | 14 bytes |
| Instructions | 2        |

```
      00 01 02 03 04 05 06 07  08 09 0A 0B 0C 0D 0E 0F
      -- -- -- -- -- -- -- --  -- -- -- -- -- -- -- --
0540:          53 F8 FF FF 7F  F8 FF FF 7F 74 68 6B 31     S........thk1
0550: 00                                                .               
```

#### Opcodes

```
  0: 0x0543 [0x53] WAIT_SCHEDULER_TASK: Wait for scheduler "thk1" with entities [EventEntity, EventEntity]
  1: 0x0550 [0x00] END_REQSTACK()
```

### Event 65535.61

#### Metadata

| Field        | Value    |
|--------------|----------|
| Entrypoint   | 0x0551   |
| Data Size    | 16 bytes |
| Instructions | 2        |

```
      00 01 02 03 04 05 06 07  08 09 0A 0B 0C 0D 0E 0F
      -- -- -- -- -- -- -- --  -- -- -- -- -- -- -- --
0550:    66 1B 80 F8 FF FF 7F  F8 FF FF 7F 74 68 6B 32   f..........thk2
0560: 00                                                .               
```

#### Opcodes

```
  0: 0x0551 [0x66] LOAD_EXT_SCHEDULER_MAIN: Load scheduler "thk2" with entities [EventEntity, EventEntity], work=0*
  1: 0x0560 [0x00] END_REQSTACK()
```

### Event 65535.62

#### Metadata

| Field        | Value    |
|--------------|----------|
| Entrypoint   | 0x0561   |
| Data Size    | 14 bytes |
| Instructions | 2        |

```
      00 01 02 03 04 05 06 07  08 09 0A 0B 0C 0D 0E 0F
      -- -- -- -- -- -- -- --  -- -- -- -- -- -- -- --
0560:    53 F8 FF FF 7F F8 FF  FF 7F 74 68 6B 32 00      S........thk2. 
```

#### Opcodes

```
  0: 0x0561 [0x53] WAIT_SCHEDULER_TASK: Wait for scheduler "thk2" with entities [EventEntity, EventEntity]
  1: 0x056E [0x00] END_REQSTACK()
```

### Event 65535.63

#### Metadata

| Field        | Value    |
|--------------|----------|
| Entrypoint   | 0x056F   |
| Data Size    | 16 bytes |
| Instructions | 2        |

```
      00 01 02 03 04 05 06 07  08 09 0A 0B 0C 0D 0E 0F
      -- -- -- -- -- -- -- --  -- -- -- -- -- -- -- --
0560:                                               66                 f
0570: 1C 80 F8 FF FF 7F F8 FF  FF 7F 74 6C 62 30 00     ..........tlb0. 
```

#### Opcodes

```
  0: 0x056F [0x66] LOAD_EXT_SCHEDULER_MAIN: Load scheduler "tlb0" with entities [EventEntity, EventEntity], work=5*
  1: 0x057E [0x00] END_REQSTACK()
```

### Event 65535.64

#### Metadata

| Field        | Value    |
|--------------|----------|
| Entrypoint   | 0x057F   |
| Data Size    | 14 bytes |
| Instructions | 2        |

```
      00 01 02 03 04 05 06 07  08 09 0A 0B 0C 0D 0E 0F
      -- -- -- -- -- -- -- --  -- -- -- -- -- -- -- --
0570:                                               53                 S
0580: F8 FF FF 7F F8 FF FF 7F  74 6C 62 30 00           ........tlb0.   
```

#### Opcodes

```
  0: 0x057F [0x53] WAIT_SCHEDULER_TASK: Wait for scheduler "tlb0" with entities [EventEntity, EventEntity]
  1: 0x058C [0x00] END_REQSTACK()
```

### Event 65535.65

#### Metadata

| Field        | Value    |
|--------------|----------|
| Entrypoint   | 0x058D   |
| Data Size    | 16 bytes |
| Instructions | 2        |

```
      00 01 02 03 04 05 06 07  08 09 0A 0B 0C 0D 0E 0F
      -- -- -- -- -- -- -- --  -- -- -- -- -- -- -- --
0580:                                         66 1C 80               f..
0590: F8 FF FF 7F F8 FF FF 7F  74 6C 62 31 00           ........tlb1.   
```

#### Opcodes

```
  0: 0x058D [0x66] LOAD_EXT_SCHEDULER_MAIN: Load scheduler "tlb1" with entities [EventEntity, EventEntity], work=5*
  1: 0x059C [0x00] END_REQSTACK()
```

### Event 65535.66

#### Metadata

| Field        | Value    |
|--------------|----------|
| Entrypoint   | 0x059D   |
| Data Size    | 14 bytes |
| Instructions | 2        |

```
      00 01 02 03 04 05 06 07  08 09 0A 0B 0C 0D 0E 0F
      -- -- -- -- -- -- -- --  -- -- -- -- -- -- -- --
0590:                                         53 F8 FF               S..
05A0: FF 7F F8 FF FF 7F 74 6C  62 31 00                 ......tlb1.     
```

#### Opcodes

```
  0: 0x059D [0x53] WAIT_SCHEDULER_TASK: Wait for scheduler "tlb1" with entities [EventEntity, EventEntity]
  1: 0x05AA [0x00] END_REQSTACK()
```

### Event 65535.67

#### Metadata

| Field        | Value    |
|--------------|----------|
| Entrypoint   | 0x05AB   |
| Data Size    | 16 bytes |
| Instructions | 2        |

```
      00 01 02 03 04 05 06 07  08 09 0A 0B 0C 0D 0E 0F
      -- -- -- -- -- -- -- --  -- -- -- -- -- -- -- --
05A0:                                   66 74 80 F8 FF             ft...
05B0: FF 7F F8 FF FF 7F 73 64  6F 30 00                 ......sdo0.     
```

#### Opcodes

```
  0: 0x05AB [0x66] LOAD_EXT_SCHEDULER_MAIN: Load scheduler "sdo0" with entities [EventEntity, EventEntity], work=3*
  1: 0x05BA [0x00] END_REQSTACK()
```

### Event 65535.68

#### Metadata

| Field        | Value    |
|--------------|----------|
| Entrypoint   | 0x05BB   |
| Data Size    | 14 bytes |
| Instructions | 2        |

```
      00 01 02 03 04 05 06 07  08 09 0A 0B 0C 0D 0E 0F
      -- -- -- -- -- -- -- --  -- -- -- -- -- -- -- --
05B0:                                   53 F8 FF FF 7F             S....
05C0: F8 FF FF 7F 73 64 6F 30  00                       ....sdo0.       
```

#### Opcodes

```
  0: 0x05BB [0x53] WAIT_SCHEDULER_TASK: Wait for scheduler "sdo0" with entities [EventEntity, EventEntity]
  1: 0x05C8 [0x00] END_REQSTACK()
```

### Event 65535.69

#### Metadata

| Field        | Value    |
|--------------|----------|
| Entrypoint   | 0x05C9   |
| Data Size    | 16 bytes |
| Instructions | 2        |

```
      00 01 02 03 04 05 06 07  08 09 0A 0B 0C 0D 0E 0F
      -- -- -- -- -- -- -- --  -- -- -- -- -- -- -- --
05C0:                             66 74 80 F8 FF FF 7F           ft.....
05D0: F8 FF FF 7F 73 64 6F 31  00                       ....sdo1.       
```

#### Opcodes

```
  0: 0x05C9 [0x66] LOAD_EXT_SCHEDULER_MAIN: Load scheduler "sdo1" with entities [EventEntity, EventEntity], work=3*
  1: 0x05D8 [0x00] END_REQSTACK()
```

### Event 65535.70

#### Metadata

| Field        | Value    |
|--------------|----------|
| Entrypoint   | 0x05D9   |
| Data Size    | 14 bytes |
| Instructions | 2        |

```
      00 01 02 03 04 05 06 07  08 09 0A 0B 0C 0D 0E 0F
      -- -- -- -- -- -- -- --  -- -- -- -- -- -- -- --
05D0:                             53 F8 FF FF 7F F8 FF           S......
05E0: FF 7F 73 64 6F 31 00                              ..sdo1.         
```

#### Opcodes

```
  0: 0x05D9 [0x53] WAIT_SCHEDULER_TASK: Wait for scheduler "sdo1" with entities [EventEntity, EventEntity]
  1: 0x05E6 [0x00] END_REQSTACK()
```

### Event 65535.71

#### Metadata

| Field        | Value    |
|--------------|----------|
| Entrypoint   | 0x05E7   |
| Data Size    | 57 bytes |
| Instructions | 5        |

```
      00 01 02 03 04 05 06 07  08 09 0A 0B 0C 0D 0E 0F
      -- -- -- -- -- -- -- --  -- -- -- -- -- -- -- --
05E0:                      66  74 80 F8 FF FF 7F F8 FF         ft.......
05F0: FF 7F 73 64 6F 30 53 F8  FF FF 7F F8 FF FF 7F 73  ..sdo0S........s
0600: 64 6F 30 66 74 80 F8 FF  FF 7F F8 FF FF 7F 73 64  do0ft.........sd
0610: 6F 31 53 F8 FF FF 7F F8  FF FF 7F 73 64 6F 31 00  o1S........sdo1.
```

#### Opcodes

```
  0: 0x05E7 [0x66] LOAD_EXT_SCHEDULER_MAIN: Load scheduler "sdo0" with entities [EventEntity, EventEntity], work=3*
  1: 0x05F6 [0x53] WAIT_SCHEDULER_TASK: Wait for scheduler "sdo0" with entities [EventEntity, EventEntity]
  2: 0x0603 [0x66] LOAD_EXT_SCHEDULER_MAIN: Load scheduler "sdo1" with entities [EventEntity, EventEntity], work=3*
  3: 0x0612 [0x53] WAIT_SCHEDULER_TASK: Wait for scheduler "sdo1" with entities [EventEntity, EventEntity]
  4: 0x061F [0x00] END_REQSTACK()
```

### Event 65535.72

#### Metadata

| Field        | Value    |
|--------------|----------|
| Entrypoint   | 0x0620   |
| Data Size    | 16 bytes |
| Instructions | 2        |

```
      00 01 02 03 04 05 06 07  08 09 0A 0B 0C 0D 0E 0F
      -- -- -- -- -- -- -- --  -- -- -- -- -- -- -- --
0620: 5B 75 80 F8 FF FF 7F F8  FF FF 7F 6B 6F 74 69 00  [u.........koti.
```

#### Opcodes

```
  0: 0x0620 [0x5B] LOAD_EXT_SCHEDULER: Load scheduler "koti" with entities [EventEntity, EventEntity], work=504*
  1: 0x062F [0x00] END_REQSTACK()
```

### Event 65535.73

#### Metadata

| Field        | Value    |
|--------------|----------|
| Entrypoint   | 0x0630   |
| Data Size    | 14 bytes |
| Instructions | 2        |

```
      00 01 02 03 04 05 06 07  08 09 0A 0B 0C 0D 0E 0F
      -- -- -- -- -- -- -- --  -- -- -- -- -- -- -- --
0630: 53 F8 FF FF 7F F8 FF FF  7F 6B 6F 74 69 00        S........koti.  
```

#### Opcodes

```
  0: 0x0630 [0x53] WAIT_SCHEDULER_TASK: Wait for scheduler "koti" with entities [EventEntity, EventEntity]
  1: 0x063D [0x00] END_REQSTACK()
```

### Event 65535.74

#### Metadata

| Field        | Value    |
|--------------|----------|
| Entrypoint   | 0x063E   |
| Data Size    | 16 bytes |
| Instructions | 2        |

```
      00 01 02 03 04 05 06 07  08 09 0A 0B 0C 0D 0E 0F
      -- -- -- -- -- -- -- --  -- -- -- -- -- -- -- --
0630:                                            5B 75                [u
0640: 80 F8 FF FF 7F F8 FF FF  7F 61 6B 69 72 00        .........akir.  
```

#### Opcodes

```
  0: 0x063E [0x5B] LOAD_EXT_SCHEDULER: Load scheduler "akir" with entities [EventEntity, EventEntity], work=504*
  1: 0x064D [0x00] END_REQSTACK()
```

### Event 65535.75

#### Metadata

| Field        | Value    |
|--------------|----------|
| Entrypoint   | 0x064E   |
| Data Size    | 14 bytes |
| Instructions | 2        |

```
      00 01 02 03 04 05 06 07  08 09 0A 0B 0C 0D 0E 0F
      -- -- -- -- -- -- -- --  -- -- -- -- -- -- -- --
0640:                                            53 F8                S.
0650: FF FF 7F F8 FF FF 7F 61  6B 69 72 00              .......akir.    
```

#### Opcodes

```
  0: 0x064E [0x53] WAIT_SCHEDULER_TASK: Wait for scheduler "akir" with entities [EventEntity, EventEntity]
  1: 0x065B [0x00] END_REQSTACK()
```

### Event 65535.76

#### Metadata

| Field        | Value    |
|--------------|----------|
| Entrypoint   | 0x065C   |
| Data Size    | 16 bytes |
| Instructions | 2        |

```
      00 01 02 03 04 05 06 07  08 09 0A 0B 0C 0D 0E 0F
      -- -- -- -- -- -- -- --  -- -- -- -- -- -- -- --
0650:                                      5B 75 80 F8              [u..
0660: FF FF 7F F8 FF FF 7F 73  61 6B 69 00              .......saki.    
```

#### Opcodes

```
  0: 0x065C [0x5B] LOAD_EXT_SCHEDULER: Load scheduler "saki" with entities [EventEntity, EventEntity], work=504*
  1: 0x066B [0x00] END_REQSTACK()
```

### Event 65535.77

#### Metadata

| Field        | Value    |
|--------------|----------|
| Entrypoint   | 0x066C   |
| Data Size    | 14 bytes |
| Instructions | 2        |

```
      00 01 02 03 04 05 06 07  08 09 0A 0B 0C 0D 0E 0F
      -- -- -- -- -- -- -- --  -- -- -- -- -- -- -- --
0660:                                      53 F8 FF FF              S...
0670: 7F F8 FF FF 7F 73 61 6B  69 00                    .....saki.      
```

#### Opcodes

```
  0: 0x066C [0x53] WAIT_SCHEDULER_TASK: Wait for scheduler "saki" with entities [EventEntity, EventEntity]
  1: 0x0679 [0x00] END_REQSTACK()
```

### Event 65535.78

#### Metadata

| Field        | Value    |
|--------------|----------|
| Entrypoint   | 0x067A   |
| Data Size    | 16 bytes |
| Instructions | 2        |

```
      00 01 02 03 04 05 06 07  08 09 0A 0B 0C 0D 0E 0F
      -- -- -- -- -- -- -- --  -- -- -- -- -- -- -- --
0670:                                5B 75 80 F8 FF FF            [u....
0680: 7F F8 FF FF 7F 73 6A 69  30 00                    .....sji0.      
```

#### Opcodes

```
  0: 0x067A [0x5B] LOAD_EXT_SCHEDULER: Load scheduler "sji0" with entities [EventEntity, EventEntity], work=504*
  1: 0x0689 [0x00] END_REQSTACK()
```

### Event 65535.79

#### Metadata

| Field        | Value    |
|--------------|----------|
| Entrypoint   | 0x068A   |
| Data Size    | 14 bytes |
| Instructions | 2        |

```
      00 01 02 03 04 05 06 07  08 09 0A 0B 0C 0D 0E 0F
      -- -- -- -- -- -- -- --  -- -- -- -- -- -- -- --
0680:                                53 F8 FF FF 7F F8            S.....
0690: FF FF 7F 73 6A 69 30 00                           ...sji0.        
```

#### Opcodes

```
  0: 0x068A [0x53] WAIT_SCHEDULER_TASK: Wait for scheduler "sji0" with entities [EventEntity, EventEntity]
  1: 0x0697 [0x00] END_REQSTACK()
```

### Event 65535.80

#### Metadata

| Field        | Value    |
|--------------|----------|
| Entrypoint   | 0x0698   |
| Data Size    | 16 bytes |
| Instructions | 2        |

```
      00 01 02 03 04 05 06 07  08 09 0A 0B 0C 0D 0E 0F
      -- -- -- -- -- -- -- --  -- -- -- -- -- -- -- --
0690:                          5B 75 80 F8 FF FF 7F F8          [u......
06A0: FF FF 7F 73 6A 69 31 00                           ...sji1.        
```

#### Opcodes

```
  0: 0x0698 [0x5B] LOAD_EXT_SCHEDULER: Load scheduler "sji1" with entities [EventEntity, EventEntity], work=504*
  1: 0x06A7 [0x00] END_REQSTACK()
```

### Event 65535.81

#### Metadata

| Field        | Value    |
|--------------|----------|
| Entrypoint   | 0x06A8   |
| Data Size    | 14 bytes |
| Instructions | 2        |

```
      00 01 02 03 04 05 06 07  08 09 0A 0B 0C 0D 0E 0F
      -- -- -- -- -- -- -- --  -- -- -- -- -- -- -- --
06A0:                          53 F8 FF FF 7F F8 FF FF          S.......
06B0: 7F 73 6A 69 31 00                                 .sji1.          
```

#### Opcodes

```
  0: 0x06A8 [0x53] WAIT_SCHEDULER_TASK: Wait for scheduler "sji1" with entities [EventEntity, EventEntity]
  1: 0x06B5 [0x00] END_REQSTACK()
```

### Event 10048

#### Metadata

| Field        | Value   |
|--------------|---------|
| Entrypoint   | 0x06B6  |
| Data Size    | 7 bytes |
| Instructions | 2       |

```
      00 01 02 03 04 05 06 07  08 09 0A 0B 0C 0D 0E 0F
      -- -- -- -- -- -- -- --  -- -- -- -- -- -- -- --
06B0:                   92 01  F8 FF FF 7F 00                 .......   
```

#### Opcodes

```
  0: 0x06B6 [0x92] EventEntity->Render.Flags3 ^= 0x01
  1: 0x06BC [0x00] END_REQSTACK()
```

### Event 65535.82

#### Metadata

| Field        | Value    |
|--------------|----------|
| Entrypoint   | 0x06BD   |
| Data Size    | 10 bytes |
| Instructions | 2        |

```
      00 01 02 03 04 05 06 07  08 09 0A 0B 0C 0D 0E 0F
      -- -- -- -- -- -- -- --  -- -- -- -- -- -- -- --
06B0:                                         37 1B 80               7..
06C0: 76 80 77 80 18 80 00                              v.w....         
```

#### Opcodes

```
  0: 0x06BD [0x37] UPDATE_EVENT_POSITION_AND_DIR: x=0.000*, z=33.869*, y=1.999*, direction=270.0°*
  1: 0x06C6 [0x00] END_REQSTACK()
```

### Event 65535.83

#### Metadata

| Field        | Value    |
|--------------|----------|
| Entrypoint   | 0x06C7   |
| Data Size    | 15 bytes |
| Instructions | 5        |

```
      00 01 02 03 04 05 06 07  08 09 0A 0B 0C 0D 0E 0F
      -- -- -- -- -- -- -- --  -- -- -- -- -- -- -- --
06C0:                      32  68 80 1F 00 1B 80 78 80         2h.....x.
06D0: 77 80 1F 01 6F 00                                 w...o.          
```

#### Opcodes

```
  0: 0x06C7 [0x32] ExtData[1]->MainSpeed = 40* * 0.1
  1: 0x06CA [0x1F] MOVE_ENTITY: EventEntity moves to X=0.000*, Z=42.847*, Y=1.999*
  2: 0x06D2 [0x1F] MOVE_ENTITY: Update entity position (mode=1)
  3: 0x06D4 [0x6F] WAIT_FRAME_DELAY: Yield until WaitTime reaches zero
  4: 0x06D5 [0x00] END_REQSTACK()
```

### Event 65535.84

#### Metadata

| Field        | Value    |
|--------------|----------|
| Entrypoint   | 0x06D6   |
| Data Size    | 15 bytes |
| Instructions | 5        |

```
      00 01 02 03 04 05 06 07  08 09 0A 0B 0C 0D 0E 0F
      -- -- -- -- -- -- -- --  -- -- -- -- -- -- -- --
06D0:                   32 00  80 1F 00 1B 80 79 80 77        2......y.w
06E0: 80 1F 01 6F 00                                    ...o.           
```

#### Opcodes

```
  0: 0x06D6 [0x32] ExtData[1]->MainSpeed = 13* * 0.1
  1: 0x06D9 [0x1F] MOVE_ENTITY: EventEntity moves to X=0.000*, Z=43.900*, Y=1.999*
  2: 0x06E1 [0x1F] MOVE_ENTITY: Update entity position (mode=1)
  3: 0x06E3 [0x6F] WAIT_FRAME_DELAY: Yield until WaitTime reaches zero
  4: 0x06E4 [0x00] END_REQSTACK()
```

### Event 65535.85

#### Metadata

| Field        | Value    |
|--------------|----------|
| Entrypoint   | 0x06E5   |
| Data Size    | 15 bytes |
| Instructions | 5        |

```
      00 01 02 03 04 05 06 07  08 09 0A 0B 0C 0D 0E 0F
      -- -- -- -- -- -- -- --  -- -- -- -- -- -- -- --
06E0:                32 00 80  1F 00 1B 80 7A 80 77 80       2......z.w.
06F0: 1F 01 6F 00                                       ..o.            
```

#### Opcodes

```
  0: 0x06E5 [0x32] ExtData[1]->MainSpeed = 13* * 0.1
  1: 0x06E8 [0x1F] MOVE_ENTITY: EventEntity moves to X=0.000*, Z=43.600*, Y=1.999*
  2: 0x06F0 [0x1F] MOVE_ENTITY: Update entity position (mode=1)
  3: 0x06F2 [0x6F] WAIT_FRAME_DELAY: Yield until WaitTime reaches zero
  4: 0x06F3 [0x00] END_REQSTACK()
```

### Event 65535.86

#### Metadata

| Field        | Value    |
|--------------|----------|
| Entrypoint   | 0x06F4   |
| Data Size    | 25 bytes |
| Instructions | 9        |

```
      00 01 02 03 04 05 06 07  08 09 0A 0B 0C 0D 0E 0F
      -- -- -- -- -- -- -- --  -- -- -- -- -- -- -- --
06F0:             1E 0F 30 0F  01 6F 70 1C 7B 80 32 00      ..0..op.{.2.
0700: 80 1F 00 7C 80 79 80 77  80 1F 01 6F 00           ...|.y.w...o.   
```

#### Opcodes

```
  0: 0x06F4 [0x1E] EventEntity looks at Pherimociel (ID: 17772559/0x010F300F) and starts talking
  1: 0x06F9 [0x6F] WAIT_FRAME_DELAY: Yield until WaitTime reaches zero
  2: 0x06FA [0x70] WAIT_ENTITY_RENDER_FLAG: Wait while EventEntity->Render.Flags3 bit 2 is set (cancel turn if not)
  3: 0x06FB [0x1C] WAIT(50* ticks)
  4: 0x06FE [0x32] ExtData[1]->MainSpeed = 13* * 0.1
  5: 0x0701 [0x1F] MOVE_ENTITY: EventEntity moves to X=-1.200*, Z=43.900*, Y=1.999*
  6: 0x0709 [0x1F] MOVE_ENTITY: Update entity position (mode=1)
  7: 0x070B [0x6F] WAIT_FRAME_DELAY: Yield until WaitTime reaches zero
  8: 0x070C [0x00] END_REQSTACK()
```

### Event 10050

#### Metadata

| Field        | Value    |
|--------------|----------|
| Entrypoint   | 0x070D   |
| Data Size    | 13 bytes |
| Instructions | 3        |

```
      00 01 02 03 04 05 06 07  08 09 0A 0B 0C 0D 0E 0F
      -- -- -- -- -- -- -- --  -- -- -- -- -- -- -- --
0700:                                         92 01 F8               ...
0710: FF FF 7F 94 01 F8 FF FF  7F 00                    ..........      
```

#### Opcodes

```
  0: 0x070D [0x92] EventEntity->Render.Flags3 ^= 0x01
  1: 0x0713 [0x94] EventEntity->Render.Flags3 ^= 0x01
  2: 0x0719 [0x00] END_REQSTACK()
```

### Event 65535.87

#### Metadata

| Field        | Value    |
|--------------|----------|
| Entrypoint   | 0x071A   |
| Data Size    | 10 bytes |
| Instructions | 2        |

```
      00 01 02 03 04 05 06 07  08 09 0A 0B 0C 0D 0E 0F
      -- -- -- -- -- -- -- --  -- -- -- -- -- -- -- --
0710:                                37 1B 80 7D 80 12            7..}..
0720: 80 18 80 00                                       ....            
```

#### Opcodes

```
  0: 0x071A [0x37] UPDATE_EVENT_POSITION_AND_DIR: x=0.000*, z=68.367*, y=-4.999*, direction=270.0°*
  1: 0x0723 [0x00] END_REQSTACK()
```

### Event 65535.88

#### Metadata

| Field        | Value    |
|--------------|----------|
| Entrypoint   | 0x0724   |
| Data Size    | 15 bytes |
| Instructions | 5        |

```
      00 01 02 03 04 05 06 07  08 09 0A 0B 0C 0D 0E 0F
      -- -- -- -- -- -- -- --  -- -- -- -- -- -- -- --
0720:             32 68 80 1F  00 1B 80 7E 80 12 80 1F      2h.....~....
0730: 01 6F 00                                          .o.             
```

#### Opcodes

```
  0: 0x0724 [0x32] ExtData[1]->MainSpeed = 40* * 0.1
  1: 0x0727 [0x1F] MOVE_ENTITY: EventEntity moves to X=0.000*, Z=73.734*, Y=-4.999*
  2: 0x072F [0x1F] MOVE_ENTITY: Update entity position (mode=1)
  3: 0x0731 [0x6F] WAIT_FRAME_DELAY: Yield until WaitTime reaches zero
  4: 0x0732 [0x00] END_REQSTACK()
```

### Event 10051

#### Metadata

| Field        | Value    |
|--------------|----------|
| Entrypoint   | 0x0733   |
| Data Size    | 13 bytes |
| Instructions | 3        |

```
      00 01 02 03 04 05 06 07  08 09 0A 0B 0C 0D 0E 0F
      -- -- -- -- -- -- -- --  -- -- -- -- -- -- -- --
0730:          92 01 F8 FF FF  7F 94 01 F8 FF FF 7F 00     .............
```

#### Opcodes

```
  0: 0x0733 [0x92] EventEntity->Render.Flags3 ^= 0x01
  1: 0x0739 [0x94] EventEntity->Render.Flags3 ^= 0x01
  2: 0x073F [0x00] END_REQSTACK()
```

### Event 122

#### Metadata

| Field        | Value   |
|--------------|---------|
| Entrypoint   | 0x0740  |
| Data Size    | 1 bytes |
| Instructions | 1       |

```
      00 01 02 03 04 05 06 07  08 09 0A 0B 0C 0D 0E 0F
      -- -- -- -- -- -- -- --  -- -- -- -- -- -- -- --
0740: 00                                                .               
```

#### Opcodes

```
  0: 0x0740 [0x00] END_REQSTACK()
```

### Event 65535.89

#### Metadata

| Field        | Value    |
|--------------|----------|
| Entrypoint   | 0x0741   |
| Data Size    | 10 bytes |
| Instructions | 2        |

```
      00 01 02 03 04 05 06 07  08 09 0A 0B 0C 0D 0E 0F
      -- -- -- -- -- -- -- --  -- -- -- -- -- -- -- --
0740:    37 7F 80 80 80 77 80  81 80 00                  7....w....     
```

#### Opcodes

```
  0: 0x0741 [0x37] UPDATE_EVENT_POSITION_AND_DIR: x=-1.035*, z=46.523*, y=1.999*, direction=22.5°*
  1: 0x074A [0x00] END_REQSTACK()
```

### Event 65535.90

#### Metadata

| Field        | Value    |
|--------------|----------|
| Entrypoint   | 0x074B   |
| Data Size    | 25 bytes |
| Instructions | 7        |

```
      00 01 02 03 04 05 06 07  08 09 0A 0B 0C 0D 0E 0F
      -- -- -- -- -- -- -- --  -- -- -- -- -- -- -- --
0740:                                   32 00 80 1F 00             2....
0750: 82 80 83 80 77 80 1F 01  1F 00 84 80 85 80 77 80  ....w.........w.
0760: 1F 01 6F 00                                       ..o.            
```

#### Opcodes

```
  0: 0x074B [0x32] ExtData[1]->MainSpeed = 13* * 0.1
  1: 0x074E [0x1F] MOVE_ENTITY: EventEntity moves to X=-1.624*, Z=40.520*, Y=1.999*
  2: 0x0756 [0x1F] MOVE_ENTITY: Update entity position (mode=1)
  3: 0x0758 [0x1F] MOVE_ENTITY: EventEntity moves to X=-0.792*, Z=35.997*, Y=1.999*
  4: 0x0760 [0x1F] MOVE_ENTITY: Update entity position (mode=1)
  5: 0x0762 [0x6F] WAIT_FRAME_DELAY: Yield until WaitTime reaches zero
  6: 0x0763 [0x00] END_REQSTACK()
```

### Event 65535.91

#### Metadata

| Field        | Value    |
|--------------|----------|
| Entrypoint   | 0x0764   |
| Data Size    | 14 bytes |
| Instructions | 4        |

```
      00 01 02 03 04 05 06 07  08 09 0A 0B 0C 0D 0E 0F
      -- -- -- -- -- -- -- --  -- -- -- -- -- -- -- --
0760:             32 68 80 1F  00 86 80 87 80 88 80 1F      2h..........
0770: 01 00                                             ..              
```

#### Opcodes

```
  0: 0x0764 [0x32] ExtData[1]->MainSpeed = 40* * 0.1
  1: 0x0767 [0x1F] MOVE_ENTITY: EventEntity moves to X=-0.062*, Z=14.216*, Y=2.999*
  2: 0x076F [0x1F] MOVE_ENTITY: Update entity position (mode=1)
  3: 0x0771 [0x00] END_REQSTACK()
```

### Event 10097

#### Metadata

| Field        | Value   |
|--------------|---------|
| Entrypoint   | 0x0772  |
| Data Size    | 7 bytes |
| Instructions | 2       |

```
      00 01 02 03 04 05 06 07  08 09 0A 0B 0C 0D 0E 0F
      -- -- -- -- -- -- -- --  -- -- -- -- -- -- -- --
0770:       92 01 F8 FF FF 7F  00                         .......       
```

#### Opcodes

```
  0: 0x0772 [0x92] EventEntity->Render.Flags3 ^= 0x01
  1: 0x0778 [0x00] END_REQSTACK()
```
