# 17772562 - Auchefort

## Common Data

| Field            | Value                     |
|------------------|---------------------------|
| Zone             | Ru'Lude Gardens (ID: 243) |
| Block Size       | 884 bytes                 |
| Total Events     | 17                        |
| References Count | 36                        |

## List of Events

| Event ID                 | Entrypoint   |   Size |   Instructions |
|--------------------------|--------------|--------|----------------|
| [65535](#event-65535)    | 0x0000       |      1 |              1 |
| [8](#event-8)            | 0x0001       |     60 |             12 |
| [6](#event-6)            | 0x003D       |     60 |             12 |
| [9](#event-9)            | 0x0079       |     56 |             10 |
| [7](#event-7)            | 0x00B1       |     60 |             12 |
| [10](#event-10)          | 0x00ED       |     56 |             10 |
| [145](#event-145)        | 0x0125       |     60 |             10 |
| [10048](#event-10048)    | 0x0161       |      7 |              2 |
| [65535.1](#event-655351) | 0x0168       |     10 |              2 |
| [65535.2](#event-655352) | 0x0172       |     32 |              9 |
| [10055](#event-10055)    | 0x0192       |     62 |             13 |
| [10054](#event-10054)    | 0x01D0       |     62 |             13 |
| [10051](#event-10051)    | 0x020E       |     13 |              3 |
| [10056](#event-10056)    | 0x021B       |     62 |             13 |
| [122](#event-122)        | 0x0259       |      1 |              1 |
| [65535.3](#event-655353) | 0x025A       |     10 |              2 |
| [65535.4](#event-655354) | 0x0264       |     43 |              9 |

## DAT References (imed_data)

|   Index | Hex Value   |   Dec Value |
|---------|-------------|-------------|
|       0 | 0x001D      |          29 |
|       1 | 0x2B46      |       11078 |
|       2 | 0x2B47      |       11079 |
|       3 | 0x2B96      |       11158 |
|       4 | 0x2B97      |       11159 |
|       5 | 0x2B4E      |       11086 |
|       6 | 0x2BDD      |       11229 |
|       7 | 0x2BDE      |       11230 |
|       8 | 0x2B5A      |       11098 |
|       9 | 0x27D8      |       10200 |
|      10 | 0xFFFFFC18  |  4294966296 |
|      11 | 0x7C36      |       31798 |
|      12 | 0x07CF      |        1999 |
|      13 | 0x0AFB      |        2811 |
|      14 | 0x0028      |          40 |
|      15 | 0x9F2E      |       40750 |
|      16 | 0x315C      |       12636 |
|      17 | 0x315D      |       12637 |
|      18 | 0x31C1      |       12737 |
|      19 | 0x31C2      |       12738 |
|      20 | 0x31CB      |       12747 |
|      21 | 0x31CC      |       12748 |
|      22 | 0x0439      |        1081 |
|      23 | 0xB5B6      |       46518 |
|      24 | 0x076C      |        1900 |
|      25 | 0x0027      |          39 |
|      26 | 0x0737      |        1847 |
|      27 | 0xA5C1      |       42433 |
|      28 | 0x07D0      |        2000 |
|      29 | 0x05C3      |        1475 |
|      30 | 0x8A9E      |       35486 |
|      31 | 0x0478      |        1144 |
|      32 | 0x474C      |       18252 |
|      33 | 0x0BB7      |        2999 |
|      34 | 0x0000      |           0 |
|      35 | 0x0001      |           1 |

## String References

- **10200**: Welcome. This is the home of the archduke, so please conduct yourself accordingly.
- **11078**: You're an adventurer, right? So you've probably already heard about the humongous dragon that flew over the western skies.
- **11079**: At first everybody thought it might be a stray wyvern, but there are rumors that it was actually one of those ancient "wyrms"!
- **11086**: The Jeuno Armada is readying for an attack on the Wyrmking, Bahamut. However, there is nothing to worry about. Our forces are the strongest, most advanced in all Vana'diel.
- **11098**: The latest reports state the recent armada mission was a success. However, it did not completely stop the Wyrmking and his minions. It is rumored that the fleet will launch its second attack once the current repairs on the warships are completed.
- **11158**: I have heard news that the criminal accused of destroying the Telepoints was captured and taken into custody.
- **11159**: However, when questioned, [he/she] said she had nothing to do with the incidents. To prove [his/her] innocence, the Duchy has ordered the scoundrel to travel to the nations of Bastok, Windurst, and San d'Oria and gather information that will clear [his/her] name.
- **11229**: Not but a few moments ago, Sir Nag'molada passed by this station. However, he did not seem himself. I wonder if something is wrong...
- **11230**: Even Captain Wolfgang has been looking disturbed since he received that envelope. What ever could be going on?
- **12636**: Where could this "fated land" be? I wouldn't even know where to start looking.
- **12637**: But now that I think of it, I could have sworn I heard that name somewhere before... Where was it...?
- **12737**: What? Is there a girl in Selbina with a serious case of amnesia?
- **12738**: How would I know? I'm always confined to my post here in Jeuno. You're the adventurer. Why don't you know these things?
- **12747**: Captain Wolfgang has asked me to remind you that you are to hurry to the Marble Bridge in Upper Jeuno.
- **12748**: It sounded as if it was urgent. You had best be on your way!

## Events

### Event 65535

#### Metadata

| Field        | Value   |
|--------------|---------|
| Entrypoint   | 0x0000  |
| Data Size    | 1 bytes |
| Instructions | 1       |

```
      00 01 02 03 04 05 06 07  08 09 0A 0B 0C 0D 0E 0F
      -- -- -- -- -- -- -- --  -- -- -- -- -- -- -- --
0000: 00                                                .               
```

#### Opcodes

```
  0: 0x0000 [0x00] END_REQSTACK()
```

### Event 8

#### Metadata

| Field        | Value    |
|--------------|----------|
| Entrypoint   | 0x0001   |
| Data Size    | 60 bytes |
| Instructions | 12       |

```
      00 01 02 03 04 05 06 07  08 09 0A 0B 0C 0D 0E 0F
      -- -- -- -- -- -- -- --  -- -- -- -- -- -- -- --
0000:    1E F0 FF FF 7F 6F 70  66 00 80 F8 FF FF 7F F8   .....opf.......
0010: FF FF 7F 74 6C 6B 30 1D  01 80 23 1D 02 80 23 66  ...tlk0...#...#f
0020: 00 80 F8 FF FF 7F F8 FF  FF 7F 74 6C 6B 31 53 F8  ..........tlk1S.
0030: FF FF 7F F8 FF FF 7F 74  6C 6B 31 21 00           .......tlk1!.   
```

#### Opcodes

```
  0: 0x0001 [0x1E] EventEntity looks at LocalPlayer and starts talking
  1: 0x0006 [0x6F] WAIT_FRAME_DELAY: Yield until WaitTime reaches zero
  2: 0x0007 [0x70] WAIT_ENTITY_RENDER_FLAG: Wait while EventEntity->Render.Flags3 bit 2 is set (cancel turn if not)
  3: 0x0008 [0x66] LOAD_EXT_SCHEDULER_MAIN: Load scheduler "tlk0" with entities [EventEntity, EventEntity], work=29*
  4: 0x0017 [0x1D] PRINT_EVENT_MESSAGE(message_id=11078*)
    → "You're an adventurer, right? So you've probably already heard about the humongous dragon that flew over the western skies."
  5: 0x001A [0x23] WAIT_FOR_DIALOG_INTERACTION
  6: 0x001B [0x1D] PRINT_EVENT_MESSAGE(message_id=11079*)
    → "At first everybody thought it might be a stray wyvern, but there are rumors that it was actually one of those ancient "wyrms"!"
  7: 0x001E [0x23] WAIT_FOR_DIALOG_INTERACTION
  8: 0x001F [0x66] LOAD_EXT_SCHEDULER_MAIN: Load scheduler "tlk1" with entities [EventEntity, EventEntity], work=29*
  9: 0x002E [0x53] WAIT_SCHEDULER_TASK: Wait for scheduler "tlk1" with entities [EventEntity, EventEntity]
 10: 0x003B [0x21] END_EVENT
 11: 0x003C [0x00] END_REQSTACK()
```

### Event 6

#### Metadata

| Field        | Value    |
|--------------|----------|
| Entrypoint   | 0x003D   |
| Data Size    | 60 bytes |
| Instructions | 12       |

```
      00 01 02 03 04 05 06 07  08 09 0A 0B 0C 0D 0E 0F
      -- -- -- -- -- -- -- --  -- -- -- -- -- -- -- --
0030:                                         1E F0 FF               ...
0040: FF 7F 6F 70 66 00 80 F8  FF FF 7F F8 FF FF 7F 74  ..opf..........t
0050: 6C 6B 30 1D 03 80 23 1D  04 80 23 66 00 80 F8 FF  lk0...#...#f....
0060: FF 7F F8 FF FF 7F 74 6C  6B 31 53 F8 FF FF 7F F8  ......tlk1S.....
0070: FF FF 7F 74 6C 6B 31 21  00                       ...tlk1!.       
```

#### Opcodes

```
  0: 0x003D [0x1E] EventEntity looks at LocalPlayer and starts talking
  1: 0x0042 [0x6F] WAIT_FRAME_DELAY: Yield until WaitTime reaches zero
  2: 0x0043 [0x70] WAIT_ENTITY_RENDER_FLAG: Wait while EventEntity->Render.Flags3 bit 2 is set (cancel turn if not)
  3: 0x0044 [0x66] LOAD_EXT_SCHEDULER_MAIN: Load scheduler "tlk0" with entities [EventEntity, EventEntity], work=29*
  4: 0x0053 [0x1D] PRINT_EVENT_MESSAGE(message_id=11158*)
    → "I have heard news that the criminal accused of destroying the Telepoints was captured and taken into custody."
  5: 0x0056 [0x23] WAIT_FOR_DIALOG_INTERACTION
  6: 0x0057 [0x1D] PRINT_EVENT_MESSAGE(message_id=11159*)
    → "However, when questioned, [he/she] said she had nothing to do with the incidents. To prove [his/her] innocence, the Duchy has ordered the scoundrel to travel to the nations of Bastok, Windurst, and San d'Oria and gather information that will clear [his/her] name."
  7: 0x005A [0x23] WAIT_FOR_DIALOG_INTERACTION
  8: 0x005B [0x66] LOAD_EXT_SCHEDULER_MAIN: Load scheduler "tlk1" with entities [EventEntity, EventEntity], work=29*
  9: 0x006A [0x53] WAIT_SCHEDULER_TASK: Wait for scheduler "tlk1" with entities [EventEntity, EventEntity]
 10: 0x0077 [0x21] END_EVENT
 11: 0x0078 [0x00] END_REQSTACK()
```

### Event 9

#### Metadata

| Field        | Value    |
|--------------|----------|
| Entrypoint   | 0x0079   |
| Data Size    | 56 bytes |
| Instructions | 10       |

```
      00 01 02 03 04 05 06 07  08 09 0A 0B 0C 0D 0E 0F
      -- -- -- -- -- -- -- --  -- -- -- -- -- -- -- --
0070:                             1E F0 FF FF 7F 6F 70           .....op
0080: 66 00 80 F8 FF FF 7F F8  FF FF 7F 74 6C 6B 30 1D  f..........tlk0.
0090: 05 80 23 66 00 80 F8 FF  FF 7F F8 FF FF 7F 74 6C  ..#f..........tl
00A0: 6B 31 53 F8 FF FF 7F F8  FF FF 7F 74 6C 6B 31 21  k1S........tlk1!
00B0: 00                                                .               
```

#### Opcodes

```
  0: 0x0079 [0x1E] EventEntity looks at LocalPlayer and starts talking
  1: 0x007E [0x6F] WAIT_FRAME_DELAY: Yield until WaitTime reaches zero
  2: 0x007F [0x70] WAIT_ENTITY_RENDER_FLAG: Wait while EventEntity->Render.Flags3 bit 2 is set (cancel turn if not)
  3: 0x0080 [0x66] LOAD_EXT_SCHEDULER_MAIN: Load scheduler "tlk0" with entities [EventEntity, EventEntity], work=29*
  4: 0x008F [0x1D] PRINT_EVENT_MESSAGE(message_id=11086*)
    → "The Jeuno Armada is readying for an attack on the Wyrmking, Bahamut. However, there is nothing to worry about. Our forces are the strongest, most advanced in all Vana'diel."
  5: 0x0092 [0x23] WAIT_FOR_DIALOG_INTERACTION
  6: 0x0093 [0x66] LOAD_EXT_SCHEDULER_MAIN: Load scheduler "tlk1" with entities [EventEntity, EventEntity], work=29*
  7: 0x00A2 [0x53] WAIT_SCHEDULER_TASK: Wait for scheduler "tlk1" with entities [EventEntity, EventEntity]
  8: 0x00AF [0x21] END_EVENT
  9: 0x00B0 [0x00] END_REQSTACK()
```

### Event 7

#### Metadata

| Field        | Value    |
|--------------|----------|
| Entrypoint   | 0x00B1   |
| Data Size    | 60 bytes |
| Instructions | 12       |

```
      00 01 02 03 04 05 06 07  08 09 0A 0B 0C 0D 0E 0F
      -- -- -- -- -- -- -- --  -- -- -- -- -- -- -- --
00B0:    1E F0 FF FF 7F 6F 70  66 00 80 F8 FF FF 7F F8   .....opf.......
00C0: FF FF 7F 74 6C 6B 30 1D  06 80 23 1D 07 80 23 66  ...tlk0...#...#f
00D0: 00 80 F8 FF FF 7F F8 FF  FF 7F 74 6C 6B 31 53 F8  ..........tlk1S.
00E0: FF FF 7F F8 FF FF 7F 74  6C 6B 31 21 00           .......tlk1!.   
```

#### Opcodes

```
  0: 0x00B1 [0x1E] EventEntity looks at LocalPlayer and starts talking
  1: 0x00B6 [0x6F] WAIT_FRAME_DELAY: Yield until WaitTime reaches zero
  2: 0x00B7 [0x70] WAIT_ENTITY_RENDER_FLAG: Wait while EventEntity->Render.Flags3 bit 2 is set (cancel turn if not)
  3: 0x00B8 [0x66] LOAD_EXT_SCHEDULER_MAIN: Load scheduler "tlk0" with entities [EventEntity, EventEntity], work=29*
  4: 0x00C7 [0x1D] PRINT_EVENT_MESSAGE(message_id=11229*)
    → "Not but a few moments ago, Sir Nag'molada passed by this station. However, he did not seem himself. I wonder if something is wrong..."
  5: 0x00CA [0x23] WAIT_FOR_DIALOG_INTERACTION
  6: 0x00CB [0x1D] PRINT_EVENT_MESSAGE(message_id=11230*)
    → "Even Captain Wolfgang has been looking disturbed since he received that envelope. What ever could be going on?"
  7: 0x00CE [0x23] WAIT_FOR_DIALOG_INTERACTION
  8: 0x00CF [0x66] LOAD_EXT_SCHEDULER_MAIN: Load scheduler "tlk1" with entities [EventEntity, EventEntity], work=29*
  9: 0x00DE [0x53] WAIT_SCHEDULER_TASK: Wait for scheduler "tlk1" with entities [EventEntity, EventEntity]
 10: 0x00EB [0x21] END_EVENT
 11: 0x00EC [0x00] END_REQSTACK()
```

### Event 10

#### Metadata

| Field        | Value    |
|--------------|----------|
| Entrypoint   | 0x00ED   |
| Data Size    | 56 bytes |
| Instructions | 10       |

```
      00 01 02 03 04 05 06 07  08 09 0A 0B 0C 0D 0E 0F
      -- -- -- -- -- -- -- --  -- -- -- -- -- -- -- --
00E0:                                         1E F0 FF               ...
00F0: FF 7F 6F 70 66 00 80 F8  FF FF 7F F8 FF FF 7F 74  ..opf..........t
0100: 6C 6B 30 1D 08 80 23 66  00 80 F8 FF FF 7F F8 FF  lk0...#f........
0110: FF 7F 74 6C 6B 31 53 F8  FF FF 7F F8 FF FF 7F 74  ..tlk1S........t
0120: 6C 6B 31 21 00                                    lk1!.           
```

#### Opcodes

```
  0: 0x00ED [0x1E] EventEntity looks at LocalPlayer and starts talking
  1: 0x00F2 [0x6F] WAIT_FRAME_DELAY: Yield until WaitTime reaches zero
  2: 0x00F3 [0x70] WAIT_ENTITY_RENDER_FLAG: Wait while EventEntity->Render.Flags3 bit 2 is set (cancel turn if not)
  3: 0x00F4 [0x66] LOAD_EXT_SCHEDULER_MAIN: Load scheduler "tlk0" with entities [EventEntity, EventEntity], work=29*
  4: 0x0103 [0x1D] PRINT_EVENT_MESSAGE(message_id=11098*)
    → "The latest reports state the recent armada mission was a success. However, it did not completely stop the Wyrmking and his minions. It is rumored that the fleet will launch its second attack once the current repairs on the warships are completed."
  5: 0x0106 [0x23] WAIT_FOR_DIALOG_INTERACTION
  6: 0x0107 [0x66] LOAD_EXT_SCHEDULER_MAIN: Load scheduler "tlk1" with entities [EventEntity, EventEntity], work=29*
  7: 0x0116 [0x53] WAIT_SCHEDULER_TASK: Wait for scheduler "tlk1" with entities [EventEntity, EventEntity]
  8: 0x0123 [0x21] END_EVENT
  9: 0x0124 [0x00] END_REQSTACK()
```

### Event 145

#### Metadata

| Field        | Value    |
|--------------|----------|
| Entrypoint   | 0x0125   |
| Data Size    | 60 bytes |
| Instructions | 10       |

```
      00 01 02 03 04 05 06 07  08 09 0A 0B 0C 0D 0E 0F
      -- -- -- -- -- -- -- --  -- -- -- -- -- -- -- --
0120:                1E F0 FF  FF 7F 6F 76 F8 FF FF 7F       .....ov....
0130: 66 00 80 F8 FF FF 7F F8  FF FF 7F 74 6C 6B 30 1D  f..........tlk0.
0140: 09 80 23 66 00 80 F8 FF  FF 7F F8 FF FF 7F 74 6C  ..#f..........tl
0150: 6B 31 53 F8 FF FF 7F F8  FF FF 7F 74 6C 6B 31 21  k1S........tlk1!
0160: 00                                                .               
```

#### Opcodes

```
  0: 0x0125 [0x1E] EventEntity looks at LocalPlayer and starts talking
  1: 0x012A [0x6F] WAIT_FRAME_DELAY: Yield until WaitTime reaches zero
  2: 0x012B [0x76] CHECK_ENTITY_RENDER_FLAGS: Wait until EventEntity Render.Flags0 and Render.Flags3 conditions are met
  3: 0x0130 [0x66] LOAD_EXT_SCHEDULER_MAIN: Load scheduler "tlk0" with entities [EventEntity, EventEntity], work=29*
  4: 0x013F [0x1D] PRINT_EVENT_MESSAGE(message_id=10200*)
    → "Welcome. This is the home of the archduke, so please conduct yourself accordingly."
  5: 0x0142 [0x23] WAIT_FOR_DIALOG_INTERACTION
  6: 0x0143 [0x66] LOAD_EXT_SCHEDULER_MAIN: Load scheduler "tlk1" with entities [EventEntity, EventEntity], work=29*
  7: 0x0152 [0x53] WAIT_SCHEDULER_TASK: Wait for scheduler "tlk1" with entities [EventEntity, EventEntity]
  8: 0x015F [0x21] END_EVENT
  9: 0x0160 [0x00] END_REQSTACK()
```

### Event 10048

#### Metadata

| Field        | Value   |
|--------------|---------|
| Entrypoint   | 0x0161  |
| Data Size    | 7 bytes |
| Instructions | 2       |

```
      00 01 02 03 04 05 06 07  08 09 0A 0B 0C 0D 0E 0F
      -- -- -- -- -- -- -- --  -- -- -- -- -- -- -- --
0160:    92 01 F8 FF FF 7F 00                            .......        
```

#### Opcodes

```
  0: 0x0161 [0x92] EventEntity->Render.Flags3 ^= 0x01
  1: 0x0167 [0x00] END_REQSTACK()
```

### Event 65535.1

#### Metadata

| Field        | Value    |
|--------------|----------|
| Entrypoint   | 0x0168   |
| Data Size    | 10 bytes |
| Instructions | 2        |

```
      00 01 02 03 04 05 06 07  08 09 0A 0B 0C 0D 0E 0F
      -- -- -- -- -- -- -- --  -- -- -- -- -- -- -- --
0160:                          37 0A 80 0B 80 0C 80 0D          7.......
0170: 80 00                                             ..              
```

#### Opcodes

```
  0: 0x0168 [0x37] UPDATE_EVENT_POSITION_AND_DIR: x=-1.000*, z=31.798*, y=1.999*, direction=247.1°*
  1: 0x0171 [0x00] END_REQSTACK()
```

### Event 65535.2

#### Metadata

| Field        | Value    |
|--------------|----------|
| Entrypoint   | 0x0172   |
| Data Size    | 32 bytes |
| Instructions | 9        |

```
      00 01 02 03 04 05 06 07  08 09 0A 0B 0C 0D 0E 0F
      -- -- -- -- -- -- -- --  -- -- -- -- -- -- -- --
0170:       32 0E 80 1F 00 0A  80 0F 80 0C 80 1F 01 6F    2............o
0180: 1E 07 30 0F 01 79 00 12  30 0F 01 F0 FF FF 7F 6F  ..0..y..0......o
0190: 70 00                                             p.              
```

#### Opcodes

```
  0: 0x0172 [0x32] ExtData[1]->MainSpeed = 40* * 0.1
  1: 0x0175 [0x1F] MOVE_ENTITY: EventEntity moves to X=-1.000*, Z=40.750*, Y=1.999*
  2: 0x017D [0x1F] MOVE_ENTITY: Update entity position (mode=1)
  3: 0x017F [0x6F] WAIT_FRAME_DELAY: Yield until WaitTime reaches zero
  4: 0x0180 [0x1E] EventEntity looks at Wolfgang (ID: 17772551/0x010F3007) and starts talking
  5: 0x0185 [0x79] Auchefort (ID: 17772562/0x010F3012) looks at LocalPlayer (Basic look)
  6: 0x018F [0x6F] WAIT_FRAME_DELAY: Yield until WaitTime reaches zero
  7: 0x0190 [0x70] WAIT_ENTITY_RENDER_FLAG: Wait while EventEntity->Render.Flags3 bit 2 is set (cancel turn if not)
  8: 0x0191 [0x00] END_REQSTACK()
```

### Event 10055

#### Metadata

| Field        | Value    |
|--------------|----------|
| Entrypoint   | 0x0192   |
| Data Size    | 62 bytes |
| Instructions | 13       |

```
      00 01 02 03 04 05 06 07  08 09 0A 0B 0C 0D 0E 0F
      -- -- -- -- -- -- -- --  -- -- -- -- -- -- -- --
0190:       1E F0 FF FF 7F 6F  70 66 00 80 F8 FF FF 7F    .....opf......
01A0: F8 FF FF 7F 74 6C 6B 30  1D 10 80 23 1D 11 80 23  ....tlk0...#...#
01B0: 66 00 80 F8 FF FF 7F F8  FF FF 7F 74 6C 6B 31 53  f..........tlk1S
01C0: F8 FF FF 7F F8 FF FF 7F  74 6C 6B 31 20 00 21 00  ........tlk1 .!.
```

#### Opcodes

```
  0: 0x0192 [0x1E] EventEntity looks at LocalPlayer and starts talking
  1: 0x0197 [0x6F] WAIT_FRAME_DELAY: Yield until WaitTime reaches zero
  2: 0x0198 [0x70] WAIT_ENTITY_RENDER_FLAG: Wait while EventEntity->Render.Flags3 bit 2 is set (cancel turn if not)
  3: 0x0199 [0x66] LOAD_EXT_SCHEDULER_MAIN: Load scheduler "tlk0" with entities [EventEntity, EventEntity], work=29*
  4: 0x01A8 [0x1D] PRINT_EVENT_MESSAGE(message_id=12636*)
    → "Where could this "fated land" be? I wouldn't even know where to start looking."
  5: 0x01AB [0x23] WAIT_FOR_DIALOG_INTERACTION
  6: 0x01AC [0x1D] PRINT_EVENT_MESSAGE(message_id=12637*)
    → "But now that I think of it, I could have sworn I heard that name somewhere before... Where was it...?"
  7: 0x01AF [0x23] WAIT_FOR_DIALOG_INTERACTION
  8: 0x01B0 [0x66] LOAD_EXT_SCHEDULER_MAIN: Load scheduler "tlk1" with entities [EventEntity, EventEntity], work=29*
  9: 0x01BF [0x53] WAIT_SCHEDULER_TASK: Wait for scheduler "tlk1" with entities [EventEntity, EventEntity]
 10: 0x01CC [0x20] SET_CLI_EVENT_UC_FLAG: Unlock player control
 11: 0x01CE [0x21] END_EVENT
 12: 0x01CF [0x00] END_REQSTACK()
```

### Event 10054

#### Metadata

| Field        | Value    |
|--------------|----------|
| Entrypoint   | 0x01D0   |
| Data Size    | 62 bytes |
| Instructions | 13       |

```
      00 01 02 03 04 05 06 07  08 09 0A 0B 0C 0D 0E 0F
      -- -- -- -- -- -- -- --  -- -- -- -- -- -- -- --
01D0: 1E F0 FF FF 7F 6F 70 66  00 80 F8 FF FF 7F F8 FF  .....opf........
01E0: FF 7F 74 6C 6B 30 1D 12  80 23 1D 13 80 23 66 00  ..tlk0...#...#f.
01F0: 80 F8 FF FF 7F F8 FF FF  7F 74 6C 6B 31 53 F8 FF  .........tlk1S..
0200: FF 7F F8 FF FF 7F 74 6C  6B 31 20 00 21 00        ......tlk1 .!.  
```

#### Opcodes

```
  0: 0x01D0 [0x1E] EventEntity looks at LocalPlayer and starts talking
  1: 0x01D5 [0x6F] WAIT_FRAME_DELAY: Yield until WaitTime reaches zero
  2: 0x01D6 [0x70] WAIT_ENTITY_RENDER_FLAG: Wait while EventEntity->Render.Flags3 bit 2 is set (cancel turn if not)
  3: 0x01D7 [0x66] LOAD_EXT_SCHEDULER_MAIN: Load scheduler "tlk0" with entities [EventEntity, EventEntity], work=29*
  4: 0x01E6 [0x1D] PRINT_EVENT_MESSAGE(message_id=12737*)
    → "What? Is there a girl in Selbina with a serious case of amnesia?"
  5: 0x01E9 [0x23] WAIT_FOR_DIALOG_INTERACTION
  6: 0x01EA [0x1D] PRINT_EVENT_MESSAGE(message_id=12738*)
    → "How would I know? I'm always confined to my post here in Jeuno. You're the adventurer. Why don't you know these things?"
  7: 0x01ED [0x23] WAIT_FOR_DIALOG_INTERACTION
  8: 0x01EE [0x66] LOAD_EXT_SCHEDULER_MAIN: Load scheduler "tlk1" with entities [EventEntity, EventEntity], work=29*
  9: 0x01FD [0x53] WAIT_SCHEDULER_TASK: Wait for scheduler "tlk1" with entities [EventEntity, EventEntity]
 10: 0x020A [0x20] SET_CLI_EVENT_UC_FLAG: Unlock player control
 11: 0x020C [0x21] END_EVENT
 12: 0x020D [0x00] END_REQSTACK()
```

### Event 10051

#### Metadata

| Field        | Value    |
|--------------|----------|
| Entrypoint   | 0x020E   |
| Data Size    | 13 bytes |
| Instructions | 3        |

```
      00 01 02 03 04 05 06 07  08 09 0A 0B 0C 0D 0E 0F
      -- -- -- -- -- -- -- --  -- -- -- -- -- -- -- --
0200:                                            92 01                ..
0210: F8 FF FF 7F 94 01 F8 FF  FF 7F 00                 ...........     
```

#### Opcodes

```
  0: 0x020E [0x92] EventEntity->Render.Flags3 ^= 0x01
  1: 0x0214 [0x94] EventEntity->Render.Flags3 ^= 0x01
  2: 0x021A [0x00] END_REQSTACK()
```

### Event 10056

#### Metadata

| Field        | Value    |
|--------------|----------|
| Entrypoint   | 0x021B   |
| Data Size    | 62 bytes |
| Instructions | 13       |

```
      00 01 02 03 04 05 06 07  08 09 0A 0B 0C 0D 0E 0F
      -- -- -- -- -- -- -- --  -- -- -- -- -- -- -- --
0210:                                   1E F0 FF FF 7F             .....
0220: 6F 70 66 00 80 F8 FF FF  7F F8 FF FF 7F 74 6C 6B  opf..........tlk
0230: 30 1D 14 80 23 1D 15 80  23 66 00 80 F8 FF FF 7F  0...#...#f......
0240: F8 FF FF 7F 74 6C 6B 31  53 F8 FF FF 7F F8 FF FF  ....tlk1S.......
0250: 7F 74 6C 6B 31 20 00 21  00                       .tlk1 .!.       
```

#### Opcodes

```
  0: 0x021B [0x1E] EventEntity looks at LocalPlayer and starts talking
  1: 0x0220 [0x6F] WAIT_FRAME_DELAY: Yield until WaitTime reaches zero
  2: 0x0221 [0x70] WAIT_ENTITY_RENDER_FLAG: Wait while EventEntity->Render.Flags3 bit 2 is set (cancel turn if not)
  3: 0x0222 [0x66] LOAD_EXT_SCHEDULER_MAIN: Load scheduler "tlk0" with entities [EventEntity, EventEntity], work=29*
  4: 0x0231 [0x1D] PRINT_EVENT_MESSAGE(message_id=12747*)
    → "Captain Wolfgang has asked me to remind you that you are to hurry to the Marble Bridge in Upper Jeuno."
  5: 0x0234 [0x23] WAIT_FOR_DIALOG_INTERACTION
  6: 0x0235 [0x1D] PRINT_EVENT_MESSAGE(message_id=12748*)
    → "It sounded as if it was urgent. You had best be on your way!"
  7: 0x0238 [0x23] WAIT_FOR_DIALOG_INTERACTION
  8: 0x0239 [0x66] LOAD_EXT_SCHEDULER_MAIN: Load scheduler "tlk1" with entities [EventEntity, EventEntity], work=29*
  9: 0x0248 [0x53] WAIT_SCHEDULER_TASK: Wait for scheduler "tlk1" with entities [EventEntity, EventEntity]
 10: 0x0255 [0x20] SET_CLI_EVENT_UC_FLAG: Unlock player control
 11: 0x0257 [0x21] END_EVENT
 12: 0x0258 [0x00] END_REQSTACK()
```

### Event 122

#### Metadata

| Field        | Value   |
|--------------|---------|
| Entrypoint   | 0x0259  |
| Data Size    | 1 bytes |
| Instructions | 1       |

```
      00 01 02 03 04 05 06 07  08 09 0A 0B 0C 0D 0E 0F
      -- -- -- -- -- -- -- --  -- -- -- -- -- -- -- --
0250:                             00                             .      
```

#### Opcodes

```
  0: 0x0259 [0x00] END_REQSTACK()
```

### Event 65535.3

#### Metadata

| Field        | Value    |
|--------------|----------|
| Entrypoint   | 0x025A   |
| Data Size    | 10 bytes |
| Instructions | 2        |

```
      00 01 02 03 04 05 06 07  08 09 0A 0B 0C 0D 0E 0F
      -- -- -- -- -- -- -- --  -- -- -- -- -- -- -- --
0250:                                37 16 80 17 80 0C            7.....
0260: 80 18 80 00                                       ....            
```

#### Opcodes

```
  0: 0x025A [0x37] UPDATE_EVENT_POSITION_AND_DIR: x=1.081*, z=46.518*, y=1.999*, direction=167.0°*
  1: 0x0263 [0x00] END_REQSTACK()
```

### Event 65535.4

#### Metadata

| Field        | Value    |
|--------------|----------|
| Entrypoint   | 0x0264   |
| Data Size    | 43 bytes |
| Instructions | 9        |

```
      00 01 02 03 04 05 06 07  08 09 0A 0B 0C 0D 0E 0F
      -- -- -- -- -- -- -- --  -- -- -- -- -- -- -- --
0260:             32 19 80 1F  00 1A 80 1B 80 1C 80 1F      2...........
0270: 01 1F 00 1D 80 1E 80 1C  80 1F 01 1F 00 1F 80 20  ............... 
0280: 80 21 80 1F 01 6C F8 FF  FF 7F 22 80 23 80 00     .!...l....".#.. 
```

#### Opcodes

```
  0: 0x0264 [0x32] ExtData[1]->MainSpeed = 39* * 0.1
  1: 0x0267 [0x1F] MOVE_ENTITY: EventEntity moves to X=1.847*, Z=42.433*, Y=2.000*
  2: 0x026F [0x1F] MOVE_ENTITY: Update entity position (mode=1)
  3: 0x0271 [0x1F] MOVE_ENTITY: EventEntity moves to X=1.475*, Z=35.486*, Y=2.000*
  4: 0x0279 [0x1F] MOVE_ENTITY: Update entity position (mode=1)
  5: 0x027B [0x1F] MOVE_ENTITY: EventEntity moves to X=1.144*, Z=18.252*, Y=2.999*
  6: 0x0283 [0x1F] MOVE_ENTITY: Update entity position (mode=1)
  7: 0x0285 [0x6C] FADE_ENTITY_COLOR(entity_id=EventEntity, end_alpha=0*, fade_time=1*)
  8: 0x028E [0x00] END_REQSTACK()
```
