# 17772784 - Magian Moogle

## Common Data

| Field            | Value                     |
|------------------|---------------------------|
| Zone             | Ru'Lude Gardens (ID: 243) |
| Block Size       | 11240 bytes               |
| Total Events     | 102                       |
| References Count | 700                       |

## List of Events

| Event ID                   | Entrypoint   |   Size |   Instructions |
|----------------------------|--------------|--------|----------------|
| [65535](#event-65535)      | 0x0000       |      1 |              1 |
| [10151](#event-10151)      | 0x0001       |     31 |             10 |
| [10160](#event-10160)      | 0x0020       |    173 |             45 |
| [10152](#event-10152)      | 0x00CD       |    262 |             62 |
| [10153](#event-10153)      | 0x01D3       |   4265 |            869 |
| [10154](#event-10154)      | 0x127C       |    542 |            115 |
| [10159](#event-10159)      | 0x149A       |     62 |             16 |
| [10158](#event-10158)      | 0x14D8       |    514 |             91 |
| [10155](#event-10155)      | 0x16DA       |     18 |              6 |
| [10156](#event-10156)      | 0x16EC       |      5 |              3 |
| [10157](#event-10157)      | 0x16F1       |      2 |              2 |
| [10241](#event-10241)      | 0x16F3       |      1 |              1 |
| [65535.1](#event-655351)   | 0x16F4       |     33 |              3 |
| [65535.2](#event-655352)   | 0x1715       |     14 |              2 |
| [65535.3](#event-655353)   | 0x1723       |     16 |              2 |
| [65535.4](#event-655354)   | 0x1733       |     14 |              2 |
| [65535.5](#event-655355)   | 0x1741       |     33 |              3 |
| [65535.6](#event-655356)   | 0x1762       |     14 |              2 |
| [65535.7](#event-655357)   | 0x1770       |     16 |              2 |
| [65535.8](#event-655358)   | 0x1780       |     14 |              2 |
| [65535.9](#event-655359)   | 0x178E       |     33 |              3 |
| [65535.10](#event-6553510) | 0x17AF       |     14 |              2 |
| [65535.11](#event-6553511) | 0x17BD       |     16 |              2 |
| [65535.12](#event-6553512) | 0x17CD       |     14 |              2 |
| [65535.13](#event-6553513) | 0x17DB       |     33 |              3 |
| [65535.14](#event-6553514) | 0x17FC       |     14 |              2 |
| [65535.15](#event-6553515) | 0x180A       |     16 |              2 |
| [65535.16](#event-6553516) | 0x181A       |     14 |              2 |
| [65535.17](#event-6553517) | 0x1828       |     16 |              2 |
| [65535.18](#event-6553518) | 0x1838       |     14 |              2 |
| [65535.19](#event-6553519) | 0x1846       |     16 |              2 |
| [65535.20](#event-6553520) | 0x1856       |     14 |              2 |
| [65535.21](#event-6553521) | 0x1864       |     16 |              2 |
| [65535.22](#event-6553522) | 0x1874       |     14 |              2 |
| [65535.23](#event-6553523) | 0x1882       |     16 |              2 |
| [65535.24](#event-6553524) | 0x1892       |     14 |              2 |
| [65535.25](#event-6553525) | 0x18A0       |     16 |              2 |
| [65535.26](#event-6553526) | 0x18B0       |     14 |              2 |
| [65535.27](#event-6553527) | 0x18BE       |     16 |              2 |
| [65535.28](#event-6553528) | 0x18CE       |     14 |              2 |
| [65535.29](#event-6553529) | 0x18DC       |     16 |              2 |
| [65535.30](#event-6553530) | 0x18EC       |     14 |              2 |
| [65535.31](#event-6553531) | 0x18FA       |     33 |              3 |
| [65535.32](#event-6553532) | 0x191B       |     14 |              2 |
| [65535.33](#event-6553533) | 0x1929       |     33 |              3 |
| [65535.34](#event-6553534) | 0x194A       |     14 |              2 |
| [65535.35](#event-6553535) | 0x1958       |     16 |              2 |
| [65535.36](#event-6553536) | 0x1968       |     14 |              2 |
| [65535.37](#event-6553537) | 0x1976       |     16 |              2 |
| [65535.38](#event-6553538) | 0x1986       |     14 |              2 |
| [65535.39](#event-6553539) | 0x1994       |     16 |              2 |
| [65535.40](#event-6553540) | 0x19A4       |     14 |              2 |
| [65535.41](#event-6553541) | 0x19B2       |     16 |              2 |
| [65535.42](#event-6553542) | 0x19C2       |     14 |              2 |
| [65535.43](#event-6553543) | 0x19D0       |     16 |              2 |
| [65535.44](#event-6553544) | 0x19E0       |     14 |              2 |
| [65535.45](#event-6553545) | 0x19EE       |     16 |              2 |
| [65535.46](#event-6553546) | 0x19FE       |     14 |              2 |
| [65535.47](#event-6553547) | 0x1A0C       |     35 |              4 |
| [65535.48](#event-6553548) | 0x1A2F       |     14 |              2 |
| [65535.49](#event-6553549) | 0x1A3D       |     18 |              2 |
| [65535.50](#event-6553550) | 0x1A4F       |     14 |              2 |
| [65535.51](#event-6553551) | 0x1A5D       |     18 |              2 |
| [65535.52](#event-6553552) | 0x1A6F       |     14 |              2 |
| [65535.53](#event-6553553) | 0x1A7D       |     18 |              2 |
| [65535.54](#event-6553554) | 0x1A8F       |     14 |              2 |
| [65535.55](#event-6553555) | 0x1A9D       |     29 |              3 |
| [65535.56](#event-6553556) | 0x1ABA       |    183 |             15 |
| [65535.57](#event-6553557) | 0x1B71       |     40 |              4 |
| [65535.58](#event-6553558) | 0x1B99       |     14 |              2 |
| [65535.59](#event-6553559) | 0x1BA7       |     29 |              3 |
| [65535.60](#event-6553560) | 0x1BC4       |     16 |              2 |
| [65535.61](#event-6553561) | 0x1BD4       |     14 |              2 |
| [65535.62](#event-6553562) | 0x1BE2       |     16 |              2 |
| [65535.63](#event-6553563) | 0x1BF2       |     42 |              4 |
| [65535.64](#event-6553564) | 0x1C1C       |     16 |              2 |
| [65535.65](#event-6553565) | 0x1C2C       |     14 |              2 |
| [65535.66](#event-6553566) | 0x1C3A       |     16 |              2 |
| [65535.67](#event-6553567) | 0x1C4A       |     14 |              2 |
| [65535.68](#event-6553568) | 0x1C58       |     16 |              2 |
| [65535.69](#event-6553569) | 0x1C68       |     14 |              2 |
| [65535.70](#event-6553570) | 0x1C76       |     10 |              2 |
| [65535.71](#event-6553571) | 0x1C80       |     24 |              6 |
| [65535.72](#event-6553572) | 0x1C98       |    678 |             66 |
| [10163](#event-10163)      | 0x1F3E       |      1 |              1 |
| [10164](#event-10164)      | 0x1F3F       |      1 |              1 |
| [10165](#event-10165)      | 0x1F40       |      1 |              1 |
| [10166](#event-10166)      | 0x1F41       |      1 |              1 |
| [10167](#event-10167)      | 0x1F42       |      1 |              1 |
| [10168](#event-10168)      | 0x1F43       |      1 |              1 |
| [65535.73](#event-6553573) | 0x1F44       |      1 |              1 |
| [65535.74](#event-6553574) | 0x1F45       |      1 |              1 |
| [65535.75](#event-6553575) | 0x1F46       |      1 |              1 |
| [65535.76](#event-6553576) | 0x1F47       |      1 |              1 |
| [65535.77](#event-6553577) | 0x1F48       |      1 |              1 |
| [65535.78](#event-6553578) | 0x1F49       |      1 |              1 |
| [10169](#event-10169)      | 0x1F4A       |      1 |              1 |
| [10170](#event-10170)      | 0x1F4B       |      1 |              1 |
| [10171](#event-10171)      | 0x1F4C       |      1 |              1 |
| [10172](#event-10172)      | 0x1F4D       |      1 |              1 |
| [10173](#event-10173)      | 0x1F4E       |      1 |              1 |
| [10174](#event-10174)      | 0x1F4F       |      1 |              1 |

## DAT References (imed_data)

|   Index | Hex Value   |   Dec Value |
|---------|-------------|-------------|
|       0 | 0x06E7      |        1767 |
|       1 | 0x394E      |       14670 |
|       2 | 0x394F      |       14671 |
|       3 | 0x003C      |          60 |
|       4 | 0x3950      |       14672 |
|       5 | 0x3951      |       14673 |
|       6 | 0x3952      |       14674 |
|       7 | 0x3953      |       14675 |
|       8 | 0x0000      |           0 |
|       9 | 0x3954      |       14676 |
|      10 | 0x04ED      |        1261 |
|      11 | 0x3955      |       14677 |
|      12 | 0x3956      |       14678 |
|      13 | 0x3957      |       14679 |
|      14 | 0x3958      |       14680 |
|      15 | 0x0001      |           1 |
|      16 | 0x00C9      |         201 |
|      17 | 0x3959      |       14681 |
|      18 | 0x395A      |       14682 |
|      19 | 0x0002      |           2 |
|      20 | 0x000A      |          10 |
|      21 | 0x395B      |       14683 |
|      22 | 0x0003      |           3 |
|      23 | 0x0004      |           4 |
|      24 | 0x395C      |       14684 |
|      25 | 0xFFFFFFFE  |  4294967294 |
|      26 | 0xFFFFFFFF  |  4294967295 |
|      27 | 0x3989      |       14729 |
|      28 | 0x3986      |       14726 |
|      29 | 0xFFFFFFFD  |  4294967293 |
|      30 | 0xFFFFFF9D  |  4294967197 |
|      31 | 0x398A      |       14730 |
|      32 | 0xFFFFFF01  |  4294967041 |
|      33 | 0x3987      |       14727 |
|      34 | 0x396C      |       14700 |
|      35 | 0x397D      |       14717 |
|      36 | 0xFFFFF0    |    16777200 |
|      37 | 0x3994      |       14740 |
|      38 | 0x0010      |          16 |
|      39 | 0x396F      |       14703 |
|      40 | 0x3970      |       14704 |
|      41 | 0x3971      |       14705 |
|      42 | 0x3974      |       14708 |
|      43 | 0x3975      |       14709 |
|      44 | 0x3976      |       14710 |
|      45 | 0x3977      |       14711 |
|      46 | 0x3978      |       14712 |
|      47 | 0x3979      |       14713 |
|      48 | 0x397A      |       14714 |
|      49 | 0x395E      |       14686 |
|      50 | 0x3962      |       14690 |
|      51 | 0x3963      |       14691 |
|      52 | 0x3964      |       14692 |
|      53 | 0x00CD      |         205 |
|      54 | 0x012C      |         300 |
|      55 | 0x0006      |           6 |
|      56 | 0x0008      |           8 |
|      57 | 0x001F      |          31 |
|      58 | 0x3965      |       14693 |
|      59 | 0x3966      |       14694 |
|      60 | 0x3967      |       14695 |
|      61 | 0x0005      |           5 |
|      62 | 0x396E      |       14702 |
|      63 | 0x3968      |       14696 |
|      64 | 0x000F      |          15 |
|      65 | 0x3895      |       14485 |
|      66 | 0x0007      |           7 |
|      67 | 0x0009      |           9 |
|      68 | 0x1148      |        4424 |
|      69 | 0x1149      |        4425 |
|      70 | 0x114A      |        4426 |
|      71 | 0x114B      |        4427 |
|      72 | 0x114C      |        4428 |
|      73 | 0x114D      |        4429 |
|      74 | 0x114E      |        4430 |
|      75 | 0x114F      |        4431 |
|      76 | 0x1150      |        4432 |
|      77 | 0x1151      |        4433 |
|      78 | 0x1152      |        4434 |
|      79 | 0x1153      |        4435 |
|      80 | 0x1154      |        4436 |
|      81 | 0x1155      |        4437 |
|      82 | 0x1156      |        4438 |
|      83 | 0x1157      |        4439 |
|      84 | 0x1158      |        4440 |
|      85 | 0x1159      |        4441 |
|      86 | 0x115A      |        4442 |
|      87 | 0x115B      |        4443 |
|      88 | 0x3999      |       14745 |
|      89 | 0x0172      |         370 |
|      90 | 0x0972      |        2418 |
|      91 | 0x1172      |        4466 |
|      92 | 0x399A      |       14746 |
|      93 | 0x3998      |       14744 |
|      94 | 0x3996      |       14742 |
|      95 | 0x3997      |       14743 |
|      96 | 0x3995      |       14741 |
|      97 | 0x399B      |       14747 |
|      98 | 0x399C      |       14748 |
|      99 | 0x000B      |          11 |
|     100 | 0x000D      |          13 |
|     101 | 0x38D5      |       14549 |
|     102 | 0x000E      |          14 |
|     103 | 0x38DD      |       14557 |
|     104 | 0x397E      |       14718 |
|     105 | 0x397F      |       14719 |
|     106 | 0x3980      |       14720 |
|     107 | 0x00CB      |         203 |
|     108 | 0x3981      |       14721 |
|     109 | 0x3982      |       14722 |
|     110 | 0x00CE      |         206 |
|     111 | 0x3983      |       14723 |
|     112 | 0x3984      |       14724 |
|     113 | 0x3993      |       14739 |
|     114 | 0x3985      |       14725 |
|     115 | 0x3988      |       14728 |
|     116 | 0x03DF      |         991 |
|     117 | 0x03E2      |         994 |
|     118 | 0x03E5      |         997 |
|     119 | 0x03E8      |        1000 |
|     120 | 0x046D      |        1133 |
|     121 | 0x0E3F      |        3647 |
|     122 | 0x0E75      |        3701 |
|     123 | 0x0E93      |        3731 |
|     124 | 0x0E95      |        3733 |
|     125 | 0x0E97      |        3735 |
|     126 | 0x0EB9      |        3769 |
|     127 | 0x0044      |          68 |
|     128 | 0x0052      |          82 |
|     129 | 0x03EB      |        1003 |
|     130 | 0x03EE      |        1006 |
|     131 | 0x03F1      |        1009 |
|     132 | 0x04AB      |        1195 |
|     133 | 0x0E3B      |        3643 |
|     134 | 0x0E73      |        3699 |
|     135 | 0x0E8F      |        3727 |
|     136 | 0x0E91      |        3729 |
|     137 | 0x0EB7      |        3767 |
|     138 | 0x0096      |         150 |
|     139 | 0x00A4      |         164 |
|     140 | 0x03F4      |        1012 |
|     141 | 0x03F7      |        1015 |
|     142 | 0x03FA      |        1018 |
|     143 | 0x03FD      |        1021 |
|     144 | 0x04D9      |        1241 |
|     145 | 0x0E43      |        3651 |
|     146 | 0x0E77      |        3703 |
|     147 | 0x0E99      |        3737 |
|     148 | 0x0E9B      |        3739 |
|     149 | 0x0E9D      |        3741 |
|     150 | 0x0EBB      |        3771 |
|     151 | 0x00D8      |         216 |
|     152 | 0x00E6      |         230 |
|     153 | 0x0400      |        1024 |
|     154 | 0x0507      |        1287 |
|     155 | 0x0E47      |        3655 |
|     156 | 0x0E79      |        3705 |
|     157 | 0x0EBD      |        3773 |
|     158 | 0x011A      |         282 |
|     159 | 0x0128      |         296 |
|     160 | 0x0403      |        1027 |
|     161 | 0x0406      |        1030 |
|     162 | 0x0545      |        1349 |
|     163 | 0x0E4B      |        3659 |
|     164 | 0x0E7B      |        3707 |
|     165 | 0x0E9F      |        3743 |
|     166 | 0x0EBF      |        3775 |
|     167 | 0x016C      |         364 |
|     168 | 0x017A      |         378 |
|     169 | 0x0409      |        1033 |
|     170 | 0x040C      |        1036 |
|     171 | 0x0573      |        1395 |
|     172 | 0x0E4F      |        3663 |
|     173 | 0x0E7D      |        3709 |
|     174 | 0x0EA1      |        3745 |
|     175 | 0x0EC1      |        3777 |
|     176 | 0x01AE      |         430 |
|     177 | 0x01BC      |         444 |
|     178 | 0x040F      |        1039 |
|     179 | 0x0412      |        1042 |
|     180 | 0x05B1      |        1457 |
|     181 | 0x0E57      |        3671 |
|     182 | 0x0E81      |        3713 |
|     183 | 0x0EA5      |        3749 |
|     184 | 0x0EC5      |        3781 |
|     185 | 0x0200      |         512 |
|     186 | 0x020E      |         526 |
|     187 | 0x0415      |        1045 |
|     188 | 0x0418      |        1048 |
|     189 | 0x05DF      |        1503 |
|     190 | 0x0E53      |        3667 |
|     191 | 0x0E7F      |        3711 |
|     192 | 0x0EA3      |        3747 |
|     193 | 0x0EC3      |        3779 |
|     194 | 0x0242      |         578 |
|     195 | 0x0250      |         592 |
|     196 | 0x041B      |        1051 |
|     197 | 0x041E      |        1054 |
|     198 | 0x060D      |        1549 |
|     199 | 0x0E5B      |        3675 |
|     200 | 0x0E83      |        3715 |
|     201 | 0x0EA7      |        3751 |
|     202 | 0x0EC7      |        3783 |
|     203 | 0x0284      |         644 |
|     204 | 0x0292      |         658 |
|     205 | 0x0421      |        1057 |
|     206 | 0x0424      |        1060 |
|     207 | 0x063B      |        1595 |
|     208 | 0x0E5F      |        3679 |
|     209 | 0x0E85      |        3717 |
|     210 | 0x0EA9      |        3753 |
|     211 | 0x0EC9      |        3785 |
|     212 | 0x02C6      |         710 |
|     213 | 0x02D4      |         724 |
|     214 | 0x0427      |        1063 |
|     215 | 0x042A      |        1066 |
|     216 | 0x0669      |        1641 |
|     217 | 0x0E63      |        3683 |
|     218 | 0x0E87      |        3719 |
|     219 | 0x0EAB      |        3755 |
|     220 | 0x0ECB      |        3787 |
|     221 | 0x0308      |         776 |
|     222 | 0x0316      |         790 |
|     223 | 0x042D      |        1069 |
|     224 | 0x0430      |        1072 |
|     225 | 0x0433      |        1075 |
|     226 | 0x0436      |        1078 |
|     227 | 0x06D9      |        1753 |
|     228 | 0x0E67      |        3687 |
|     229 | 0x0E89      |        3721 |
|     230 | 0x0EAD      |        3757 |
|     231 | 0x0EAF      |        3759 |
|     232 | 0x0EB1      |        3761 |
|     233 | 0x0ECD      |        3789 |
|     234 | 0x037B      |         891 |
|     235 | 0x0389      |         905 |
|     236 | 0x0439      |        1081 |
|     237 | 0x043C      |        1084 |
|     238 | 0x043F      |        1087 |
|     239 | 0x06F7      |        1783 |
|     240 | 0x0E6F      |        3695 |
|     241 | 0x0E8D      |        3725 |
|     242 | 0x0EB3      |        3763 |
|     243 | 0x0EB5      |        3765 |
|     244 | 0x0ED1      |        3793 |
|     245 | 0x03AD      |         941 |
|     246 | 0x03BB      |         955 |
|     247 | 0x0442      |        1090 |
|     248 | 0x0715      |        1813 |
|     249 | 0x0E6B      |        3691 |
|     250 | 0x0E8B      |        3723 |
|     251 | 0x0ECF      |        3791 |
|     252 | 0x103C      |        4156 |
|     253 | 0x103D      |        4157 |
|     254 | 0x103E      |        4158 |
|     255 | 0x103F      |        4159 |
|     256 | 0x1040      |        4160 |
|     257 | 0x1041      |        4161 |
|     258 | 0x1042      |        4162 |
|     259 | 0x1043      |        4163 |
|     260 | 0x1044      |        4164 |
|     261 | 0x1045      |        4165 |
|     262 | 0x1046      |        4166 |
|     263 | 0x1047      |        4167 |
|     264 | 0x1048      |        4168 |
|     265 | 0x1049      |        4169 |
|     266 | 0x104A      |        4170 |
|     267 | 0x104B      |        4171 |
|     268 | 0x104C      |        4172 |
|     269 | 0x104D      |        4173 |
|     270 | 0x104E      |        4174 |
|     271 | 0x104F      |        4175 |
|     272 | 0x122E      |        4654 |
|     273 | 0x122F      |        4655 |
|     274 | 0x1238      |        4664 |
|     275 | 0x1239      |        4665 |
|     276 | 0x1242      |        4674 |
|     277 | 0x1243      |        4675 |
|     278 | 0x124C      |        4684 |
|     279 | 0x124D      |        4685 |
|     280 | 0x1256      |        4694 |
|     281 | 0x1257      |        4695 |
|     282 | 0x1260      |        4704 |
|     283 | 0x1261      |        4705 |
|     284 | 0x126A      |        4714 |
|     285 | 0x126B      |        4715 |
|     286 | 0x1274      |        4724 |
|     287 | 0x1275      |        4725 |
|     288 | 0x127E      |        4734 |
|     289 | 0x127F      |        4735 |
|     290 | 0x1288      |        4744 |
|     291 | 0x1289      |        4745 |
|     292 | 0x1292      |        4754 |
|     293 | 0x1293      |        4755 |
|     294 | 0x129C      |        4764 |
|     295 | 0x129D      |        4765 |
|     296 | 0x12A6      |        4774 |
|     297 | 0x12A7      |        4775 |
|     298 | 0x12B0      |        4784 |
|     299 | 0x12B1      |        4785 |
|     300 | 0x12BA      |        4794 |
|     301 | 0x12BB      |        4795 |
|     302 | 0x12C4      |        4804 |
|     303 | 0x12C5      |        4805 |
|     304 | 0x12CE      |        4814 |
|     305 | 0x12CF      |        4815 |
|     306 | 0x12D8      |        4824 |
|     307 | 0x12D9      |        4825 |
|     308 | 0x12E2      |        4834 |
|     309 | 0x12E3      |        4835 |
|     310 | 0x12EC      |        4844 |
|     311 | 0x12ED      |        4845 |
|     312 | 0x135A      |        4954 |
|     313 | 0x135F      |        4959 |
|     314 | 0x1364      |        4964 |
|     315 | 0x1369      |        4969 |
|     316 | 0x136E      |        4974 |
|     317 | 0x1373      |        4979 |
|     318 | 0x1378      |        4984 |
|     319 | 0x137D      |        4989 |
|     320 | 0x1382      |        4994 |
|     321 | 0x1387      |        4999 |
|     322 | 0x138C      |        5004 |
|     323 | 0x1391      |        5009 |
|     324 | 0x1396      |        5014 |
|     325 | 0x139B      |        5019 |
|     326 | 0x13A0      |        5024 |
|     327 | 0x13A5      |        5029 |
|     328 | 0x13AA      |        5034 |
|     329 | 0x13AF      |        5039 |
|     330 | 0x13B4      |        5044 |
|     331 | 0x13B9      |        5049 |
|     332 | 0x10F0      |        4336 |
|     333 | 0x10F1      |        4337 |
|     334 | 0x10F2      |        4338 |
|     335 | 0x10F3      |        4339 |
|     336 | 0x10F4      |        4340 |
|     337 | 0x10F5      |        4341 |
|     338 | 0x10F6      |        4342 |
|     339 | 0x10F7      |        4343 |
|     340 | 0x10F8      |        4344 |
|     341 | 0x10F9      |        4345 |
|     342 | 0x10FA      |        4346 |
|     343 | 0x10FB      |        4347 |
|     344 | 0x10FC      |        4348 |
|     345 | 0x10FD      |        4349 |
|     346 | 0x10FE      |        4350 |
|     347 | 0x10FF      |        4351 |
|     348 | 0x1100      |        4352 |
|     349 | 0x1101      |        4353 |
|     350 | 0x1102      |        4354 |
|     351 | 0x1103      |        4355 |
|     352 | 0x1230      |        4656 |
|     353 | 0x1231      |        4657 |
|     354 | 0x123A      |        4666 |
|     355 | 0x123B      |        4667 |
|     356 | 0x1244      |        4676 |
|     357 | 0x1245      |        4677 |
|     358 | 0x124E      |        4686 |
|     359 | 0x124F      |        4687 |
|     360 | 0x1258      |        4696 |
|     361 | 0x1259      |        4697 |
|     362 | 0x1262      |        4706 |
|     363 | 0x1263      |        4707 |
|     364 | 0x126C      |        4716 |
|     365 | 0x126D      |        4717 |
|     366 | 0x1276      |        4726 |
|     367 | 0x1277      |        4727 |
|     368 | 0x1280      |        4736 |
|     369 | 0x1281      |        4737 |
|     370 | 0x128A      |        4746 |
|     371 | 0x128B      |        4747 |
|     372 | 0x1294      |        4756 |
|     373 | 0x1295      |        4757 |
|     374 | 0x129E      |        4766 |
|     375 | 0x129F      |        4767 |
|     376 | 0x12A8      |        4776 |
|     377 | 0x12A9      |        4777 |
|     378 | 0x12B2      |        4786 |
|     379 | 0x12B3      |        4787 |
|     380 | 0x12BC      |        4796 |
|     381 | 0x12BD      |        4797 |
|     382 | 0x12C6      |        4806 |
|     383 | 0x12C7      |        4807 |
|     384 | 0x12D0      |        4816 |
|     385 | 0x12D1      |        4817 |
|     386 | 0x12DA      |        4826 |
|     387 | 0x12DB      |        4827 |
|     388 | 0x12E4      |        4836 |
|     389 | 0x12E5      |        4837 |
|     390 | 0x12EE      |        4846 |
|     391 | 0x12EF      |        4847 |
|     392 | 0x135B      |        4955 |
|     393 | 0x1360      |        4960 |
|     394 | 0x1365      |        4965 |
|     395 | 0x136A      |        4970 |
|     396 | 0x136F      |        4975 |
|     397 | 0x1374      |        4980 |
|     398 | 0x1379      |        4985 |
|     399 | 0x137E      |        4990 |
|     400 | 0x1383      |        4995 |
|     401 | 0x1388      |        5000 |
|     402 | 0x138D      |        5005 |
|     403 | 0x1392      |        5010 |
|     404 | 0x1397      |        5015 |
|     405 | 0x139C      |        5020 |
|     406 | 0x13A1      |        5025 |
|     407 | 0x13A6      |        5030 |
|     408 | 0x13AB      |        5035 |
|     409 | 0x13B0      |        5040 |
|     410 | 0x13B5      |        5045 |
|     411 | 0x13BA      |        5050 |
|     412 | 0x10DC      |        4316 |
|     413 | 0x10DD      |        4317 |
|     414 | 0x10DE      |        4318 |
|     415 | 0x10DF      |        4319 |
|     416 | 0x10E0      |        4320 |
|     417 | 0x10E1      |        4321 |
|     418 | 0x10E2      |        4322 |
|     419 | 0x10E3      |        4323 |
|     420 | 0x10E4      |        4324 |
|     421 | 0x10E5      |        4325 |
|     422 | 0x10E6      |        4326 |
|     423 | 0x10E7      |        4327 |
|     424 | 0x10E8      |        4328 |
|     425 | 0x10E9      |        4329 |
|     426 | 0x10EA      |        4330 |
|     427 | 0x10EB      |        4331 |
|     428 | 0x10EC      |        4332 |
|     429 | 0x10ED      |        4333 |
|     430 | 0x10EE      |        4334 |
|     431 | 0x10EF      |        4335 |
|     432 | 0x1232      |        4658 |
|     433 | 0x1233      |        4659 |
|     434 | 0x123C      |        4668 |
|     435 | 0x123D      |        4669 |
|     436 | 0x1246      |        4678 |
|     437 | 0x1247      |        4679 |
|     438 | 0x1250      |        4688 |
|     439 | 0x1251      |        4689 |
|     440 | 0x125A      |        4698 |
|     441 | 0x125B      |        4699 |
|     442 | 0x1264      |        4708 |
|     443 | 0x1265      |        4709 |
|     444 | 0x126E      |        4718 |
|     445 | 0x126F      |        4719 |
|     446 | 0x1278      |        4728 |
|     447 | 0x1279      |        4729 |
|     448 | 0x1282      |        4738 |
|     449 | 0x1283      |        4739 |
|     450 | 0x128C      |        4748 |
|     451 | 0x128D      |        4749 |
|     452 | 0x1296      |        4758 |
|     453 | 0x1297      |        4759 |
|     454 | 0x12A0      |        4768 |
|     455 | 0x12A1      |        4769 |
|     456 | 0x12AA      |        4778 |
|     457 | 0x12AB      |        4779 |
|     458 | 0x12B4      |        4788 |
|     459 | 0x12B5      |        4789 |
|     460 | 0x12BE      |        4798 |
|     461 | 0x12BF      |        4799 |
|     462 | 0x12C8      |        4808 |
|     463 | 0x12C9      |        4809 |
|     464 | 0x12D2      |        4818 |
|     465 | 0x12D3      |        4819 |
|     466 | 0x12DC      |        4828 |
|     467 | 0x12DD      |        4829 |
|     468 | 0x12E6      |        4838 |
|     469 | 0x12E7      |        4839 |
|     470 | 0x12F0      |        4848 |
|     471 | 0x12F1      |        4849 |
|     472 | 0x135C      |        4956 |
|     473 | 0x1361      |        4961 |
|     474 | 0x1366      |        4966 |
|     475 | 0x136B      |        4971 |
|     476 | 0x1370      |        4976 |
|     477 | 0x1375      |        4981 |
|     478 | 0x137A      |        4986 |
|     479 | 0x137F      |        4991 |
|     480 | 0x1384      |        4996 |
|     481 | 0x1389      |        5001 |
|     482 | 0x138E      |        5006 |
|     483 | 0x1393      |        5011 |
|     484 | 0x1398      |        5016 |
|     485 | 0x139D      |        5021 |
|     486 | 0x13A2      |        5026 |
|     487 | 0x13A7      |        5031 |
|     488 | 0x13AC      |        5036 |
|     489 | 0x13B1      |        5041 |
|     490 | 0x13B6      |        5046 |
|     491 | 0x13BB      |        5051 |
|     492 | 0x1050      |        4176 |
|     493 | 0x1051      |        4177 |
|     494 | 0x1052      |        4178 |
|     495 | 0x1053      |        4179 |
|     496 | 0x1054      |        4180 |
|     497 | 0x1055      |        4181 |
|     498 | 0x1056      |        4182 |
|     499 | 0x1057      |        4183 |
|     500 | 0x1058      |        4184 |
|     501 | 0x1059      |        4185 |
|     502 | 0x105A      |        4186 |
|     503 | 0x105B      |        4187 |
|     504 | 0x105C      |        4188 |
|     505 | 0x105D      |        4189 |
|     506 | 0x105E      |        4190 |
|     507 | 0x105F      |        4191 |
|     508 | 0x1060      |        4192 |
|     509 | 0x1061      |        4193 |
|     510 | 0x1062      |        4194 |
|     511 | 0x1063      |        4195 |
|     512 | 0x1234      |        4660 |
|     513 | 0x1235      |        4661 |
|     514 | 0x123E      |        4670 |
|     515 | 0x123F      |        4671 |
|     516 | 0x1248      |        4680 |
|     517 | 0x1249      |        4681 |
|     518 | 0x1252      |        4690 |
|     519 | 0x1253      |        4691 |
|     520 | 0x125C      |        4700 |
|     521 | 0x125D      |        4701 |
|     522 | 0x1266      |        4710 |
|     523 | 0x1267      |        4711 |
|     524 | 0x1270      |        4720 |
|     525 | 0x1271      |        4721 |
|     526 | 0x127A      |        4730 |
|     527 | 0x127B      |        4731 |
|     528 | 0x1284      |        4740 |
|     529 | 0x1285      |        4741 |
|     530 | 0x128E      |        4750 |
|     531 | 0x128F      |        4751 |
|     532 | 0x1298      |        4760 |
|     533 | 0x1299      |        4761 |
|     534 | 0x12A2      |        4770 |
|     535 | 0x12A3      |        4771 |
|     536 | 0x12AC      |        4780 |
|     537 | 0x12AD      |        4781 |
|     538 | 0x12B6      |        4790 |
|     539 | 0x12B7      |        4791 |
|     540 | 0x12C0      |        4800 |
|     541 | 0x12C1      |        4801 |
|     542 | 0x12CA      |        4810 |
|     543 | 0x12CB      |        4811 |
|     544 | 0x12D4      |        4820 |
|     545 | 0x12D5      |        4821 |
|     546 | 0x12DE      |        4830 |
|     547 | 0x12DF      |        4831 |
|     548 | 0x12E8      |        4840 |
|     549 | 0x12E9      |        4841 |
|     550 | 0x12F2      |        4850 |
|     551 | 0x12F3      |        4851 |
|     552 | 0x135D      |        4957 |
|     553 | 0x1362      |        4962 |
|     554 | 0x1367      |        4967 |
|     555 | 0x136C      |        4972 |
|     556 | 0x1371      |        4977 |
|     557 | 0x1376      |        4982 |
|     558 | 0x137B      |        4987 |
|     559 | 0x1380      |        4992 |
|     560 | 0x1385      |        4997 |
|     561 | 0x138A      |        5002 |
|     562 | 0x138F      |        5007 |
|     563 | 0x1394      |        5012 |
|     564 | 0x1399      |        5017 |
|     565 | 0x139E      |        5022 |
|     566 | 0x13A3      |        5027 |
|     567 | 0x13A8      |        5032 |
|     568 | 0x13AD      |        5037 |
|     569 | 0x13B2      |        5042 |
|     570 | 0x13B7      |        5047 |
|     571 | 0x13BC      |        5052 |
|     572 | 0x1064      |        4196 |
|     573 | 0x1065      |        4197 |
|     574 | 0x1066      |        4198 |
|     575 | 0x1067      |        4199 |
|     576 | 0x1068      |        4200 |
|     577 | 0x1069      |        4201 |
|     578 | 0x106A      |        4202 |
|     579 | 0x106B      |        4203 |
|     580 | 0x106C      |        4204 |
|     581 | 0x106D      |        4205 |
|     582 | 0x106E      |        4206 |
|     583 | 0x106F      |        4207 |
|     584 | 0x1070      |        4208 |
|     585 | 0x1071      |        4209 |
|     586 | 0x1072      |        4210 |
|     587 | 0x1073      |        4211 |
|     588 | 0x1074      |        4212 |
|     589 | 0x1075      |        4213 |
|     590 | 0x1076      |        4214 |
|     591 | 0x1077      |        4215 |
|     592 | 0x1236      |        4662 |
|     593 | 0x1237      |        4663 |
|     594 | 0x1240      |        4672 |
|     595 | 0x1241      |        4673 |
|     596 | 0x124A      |        4682 |
|     597 | 0x124B      |        4683 |
|     598 | 0x1254      |        4692 |
|     599 | 0x1255      |        4693 |
|     600 | 0x125E      |        4702 |
|     601 | 0x125F      |        4703 |
|     602 | 0x1268      |        4712 |
|     603 | 0x1269      |        4713 |
|     604 | 0x1272      |        4722 |
|     605 | 0x1273      |        4723 |
|     606 | 0x127C      |        4732 |
|     607 | 0x127D      |        4733 |
|     608 | 0x1286      |        4742 |
|     609 | 0x1287      |        4743 |
|     610 | 0x1290      |        4752 |
|     611 | 0x1291      |        4753 |
|     612 | 0x129A      |        4762 |
|     613 | 0x129B      |        4763 |
|     614 | 0x12A4      |        4772 |
|     615 | 0x12A5      |        4773 |
|     616 | 0x12AE      |        4782 |
|     617 | 0x12AF      |        4783 |
|     618 | 0x12B8      |        4792 |
|     619 | 0x12B9      |        4793 |
|     620 | 0x12C2      |        4802 |
|     621 | 0x12C3      |        4803 |
|     622 | 0x12CC      |        4812 |
|     623 | 0x12CD      |        4813 |
|     624 | 0x12D6      |        4822 |
|     625 | 0x12D7      |        4823 |
|     626 | 0x12E0      |        4832 |
|     627 | 0x12E1      |        4833 |
|     628 | 0x12EA      |        4842 |
|     629 | 0x12EB      |        4843 |
|     630 | 0x12F4      |        4852 |
|     631 | 0x12F5      |        4853 |
|     632 | 0x135E      |        4958 |
|     633 | 0x1363      |        4963 |
|     634 | 0x1368      |        4968 |
|     635 | 0x136D      |        4973 |
|     636 | 0x1372      |        4978 |
|     637 | 0x1377      |        4983 |
|     638 | 0x137C      |        4988 |
|     639 | 0x1381      |        4993 |
|     640 | 0x1386      |        4998 |
|     641 | 0x138B      |        5003 |
|     642 | 0x1390      |        5008 |
|     643 | 0x1395      |        5013 |
|     644 | 0x139A      |        5018 |
|     645 | 0x139F      |        5023 |
|     646 | 0x13A4      |        5028 |
|     647 | 0x13A9      |        5033 |
|     648 | 0x13AE      |        5038 |
|     649 | 0x13B3      |        5043 |
|     650 | 0x13B8      |        5048 |
|     651 | 0x13BD      |        5053 |
|     652 | 0x0A95      |        2709 |
|     653 | 0x0A99      |        2713 |
|     654 | 0x112D      |        4397 |
|     655 | 0x1131      |        4401 |
|     656 | 0x3969      |       14697 |
|     657 | 0x396A      |       14698 |
|     658 | 0x396B      |       14699 |
|     659 | 0x398B      |       14731 |
|     660 | 0x3961      |       14689 |
|     661 | 0x396D      |       14701 |
|     662 | 0x0078      |         120 |
|     663 | 0xFFFFFFFC  |  4294967292 |
|     664 | 0x398C      |       14732 |
|     665 | 0x399D      |       14749 |
|     666 | 0x398D      |       14733 |
|     667 | 0x398E      |       14734 |
|     668 | 0x00CC      |         204 |
|     669 | 0x00F0      |         240 |
|     670 | 0x0103      |         259 |
|     671 | 0x398F      |       14735 |
|     672 | 0x3992      |       14738 |
|     673 | 0x001E      |          30 |
|     674 | 0x00BC      |         188 |
|     675 | 0x0A4C      |        2636 |
|     676 | 0x0A53      |        2643 |
|     677 | 0x0A4A      |        2634 |
|     678 | 0x0A52      |        2642 |
|     679 | 0x0A57      |        2647 |
|     680 | 0x0AC3      |        2755 |
|     681 | 0x0AC6      |        2758 |
|     682 | 0x0093      |         147 |
|     683 | 0x0094      |         148 |
|     684 | 0x0A56      |        2646 |
|     685 | 0x0808      |        2056 |
|     686 | 0x1A54E     |      107854 |
|     687 | 0x0BEC      |        3052 |
|     688 | 0x0C64      |        3172 |
|     689 | 0x0028      |          40 |
|     690 | 0x0A67      |        2663 |
|     691 | 0x1C806     |      116742 |
|     692 | 0x0C1D      |        3101 |
|     693 | 0x25C8      |        9672 |
|     694 | 0x1C980     |      117120 |
|     695 | 0x2446      |        9286 |
|     696 | 0x1C84B     |      116811 |
|     697 | 0x00C8      |         200 |
|     698 | 0x002D      |          45 |
|     699 | 0x00D7      |         215 |

## String References

- **14485**: [Review/Abandon] which trial? [Trial $30./Trial $31./Trial $ ./Trial $!./Trial $"./Trial $#./Trial $$./Trial $%./Trial $&./Trial $'./Return.]
- **14549**: Warning: Completing this trial will result in an increase in the level requirement for the target item.
- **14557**: * Warning * An item currently in your possession may prevent you from receiving the reward item for the trial you have selected.
- **14670**: Hullo there! You can call me Green, the newest member of the Magian Mooglehood! I might still be wet behind the wings, but just you wait! Someday I'll be as powerful and pretentious as my elders, kupo!
- **14671**: Though from the looks of it, you're even more of a greenhorn than myself. Come back when you've got a bit more experience under your belt, will you? I'm rooting for you, kupo!
- **14672**: Kupo-ho! You look like you're pretty proficient at that profession of yours. Why don't I let you in on a little secret?
- **14673**: With just a modicum of guidance, you can acquire some special equipment to show the world, leaving folk oohing and aahing in the process!
- **14674**: Doesn't that sound like fun? Care to give it a go, kupo?
- **14675**: Give it a go, kupo? [Yeah!/Nah.]
- **14676**: Splendid answer! Your spirit of self-improvement rather reminds me of myself, kupo! Here, take this $3.
- **14677**: You can use this until you're ready to receive a full-fledged $3 from Elder Orange over there.
- **14678**: Oh, and don't worry, kupo. At that time, your trial records will be transferred automatically from the old log to the new. Let it never be said that the Magian Mooglehood doesn't take care of its vict--er, challengers.
- **14679**: Kupo-whoa! Is that $6 you have there, or are you just happy to see me? I guess we won't be needing this $3, then...
- **14680**: Now, you'll want to make sure that you have room in your gobbiebag before taking on a trial. Go ahead, kupo! I won't be going anywhere.
- **14681**: Whenever you're ready to take on a trial, you know where to find me, kupo!
- **14682**: Need something, kupo?
- **14683**: What will you do? [Take on a trial./Review current trial./Abandon current trial./List available trials./Ask for aid./Move on.]
- **14684**: [Take on/Review] which trial? [None./Warrior./Monk./White Mage./Black Mage./Red Mage./Thief./Paladin./Dark Knight./Beastmaster./Bard./Ranger./Samurai./Ninja./Dragoon./Summoner./Blue Mage./Corsair./Puppetmaster./Dancer./Scholar.]
- **14686**: You have no current trials in progress.
- **14689**: Continue with this trial? [Press on./Give up.]
- **14690**: Giving up so soon? You'll never make a name for yourself that way, kupo. Are you sure?
- **14691**: Abandon the trial? [Persevere./Retire.]
- **14692**: Well, that's a shame. And I had such high hopes for you, kupo. Oh well, I'll just have to wipe your $3 clean.
- **14693**: You have abandoned Trial $0.
- **14694**: Kupo-oh? I was going to erase the trial insignia from your item, but I don't see it anywhere.
- **14695**: You can't start a new trial until you clear the mark from the old one. Sorry, but rules are rules, kupo. So when you find the item, just trade it to me, okay?
- **14696**: You do not currently have that trial in progress.
- **14697**: Kupo-oh? This item is still marked for a trial you've abandoned.
- **14698**: Want me to erase it so you can make a fresh start? I would highly recommend that you do, kupo.
- **14699**: Erase the abandoned trial insignia? [Yes, remove it./No, leave it.]
- **14700**: What am I supposed to be doing again? Please forgive me. I'm still new around here, kupo.
- **14701**: The trial insignia has vanished from your $0.
- **14702**: Kupo? I've never heard of that trial. Are my elders telling you secrets that they're not telling me, kupo?
- **14703**: Ask something? [About this training.../Undertaking a trial./Completing a trial./Return.]
- **14704**: Ooh, ooh! Do I get to explain about trials? I've studied so, uh...studiously...for this day, kupo! <Ahem>... The Magian Mooglehood is an ancient and august assembly of, er, moogles...who, uh, do super-secret special things, and...and...
- **14705**: So, yeah! You can talk to Elder Orange when you've reached a certain level of experience, and he'll send you on all sorts of sadistic--er, challenging--trials. Complete them, and you can receive all kinds of nifty items and stuff.
- **14708**: So here's the deal. In order to learn a gesture from me, you'll first need to achieve a certain level of proficiency in your chosen job. In the perplexing parlance of the Magian Mooglehood, we call that "level 30."
- **14709**: Choose one of the trials, and I'll give you a piece of equipment, kupo. You don't need to wear it, but keep it close by until you complete your task.
- **14710**: If you ever want to take a peek at your progress, just come back to me. ...Or if you change your mind and decide to quit. But that's no fun, kupo!
- **14711**: Any items requested of you in your trials can be tossed into that handy-dandy delivery crate sitting beside Elder Orange, kupo.
- **14712**: Once you've completed your objective, return here and trade back to me the piece of equipment I gave you at the start of your trial. Just like that, your work is done! Huzzah!
- **14713**: So make especially sure that you don't lose the equipment, of course. If you do, how will I know your deed is done, kupo?
- **14714**: I truly can't emphasize it enough: take extra-special care of the item I give you until your trial is through! Are we clear, kupo?
- **14717**: A trial for $0? Well, let's just see here, kupo...
- **14718**: I've got it! How about Trial $0?
- **14719**: Take on Trial $0? [Sure!/Nah.]
- **14720**: Wonderful! Let me just moogle-magic that up for you, kupo!
- **14721**: Your $3 is now recording the progress of your trial!
- **14722**: Oh, and that's right! I need to engrave up your equipment as well, don't I?
- **14723**: A trial insignia has been inscribed upon your $0!
- **14724**: Note: While your item is inscribed with this insignia, you may not undertake any other trials with the same item.
- **14725**: It looks like you're already working on that trial, kupo. It's okay. I'm still getting the hang of this, too!
- **14726**: Oh, I'm so terribly sorry! I don't think I can assign that trial to you yet. I'd tell you why, but the elders won't even let me know, kupo!
- **14727**: Wow! That's a full $3 if I've ever seen one, kupo. Sorry, but the rules say you can only undertake a maximum of ten trials at once.
- **14728**: You'll have to complete or abandon one of your current trials before starting a new one. Someday, when I'm in charge of the mooglehood, I'll change this silly rule! Might be a while, though, kupo...
- **14729**: Kupo-oh-oh. I'm afraid there aren't any trials for that item.
- **14730**: Hmm. I've never heard of any trials for that item. Maybe the elders just didn't tell me about them, kupo?
- **14731**: You're already working on a trial for that $0, kupo. Trial $1, to be exact.
- **14732**: Well, look who's managed to complete their trial! That $3 is just boiling to the brim with moogle magic!
- **14733**: I certainly hope I remember the incantation the elders taught me.
- **14734**: Kupolius...augmentus!
- **14735**: There is a sudden flash of light as potent moogle magic surges through the $0!
- **14738**: Well, this was perfect practice for both of us, wouldn't you say? Come back any time you're ready for another trial, kupo!
- **14739**: Ta-ta, kupo!
- **14740**: Choose a trial to '[review/undertake]. [Trial $0./Trial $1./Trial $2./Trial $3./Trial $4./Trial $5./Trial $6./Trial $7./Trial $8./Trial $9./Trial $10./Trial $11./Trial $12./Trial $13./Trial $14./Trial $15./Trial $16./Trial $17./Trial $18./Trial $19./Trial $20./Trial $21./Trial $22./Trial $23./'[Return/Cancel].]
- **14745**: I'm still new here, kupo. Bear with me a second, will you?
- **14746**: Trial $0? Let's see here, kupo...
- **14747**: You'll need to start off with this item:
- **14748**: And you'll get this one as a reward:
- **14749**: Oh. You can't hold more than one $0, so you'll want to take care of the one you have before you come back. I'm new, but even I know that, kupo!

## Events

### Event 65535

#### Metadata

| Field        | Value   |
|--------------|---------|
| Entrypoint   | 0x0000  |
| Data Size    | 1 bytes |
| Instructions | 1       |

```
      00 01 02 03 04 05 06 07  08 09 0A 0B 0C 0D 0E 0F
      -- -- -- -- -- -- -- --  -- -- -- -- -- -- -- --
0000: 00                                                .               
```

#### Opcodes

```
  0: 0x0000 [0x00] END_REQSTACK()
```

### Event 10151

#### Metadata

| Field        | Value    |
|--------------|----------|
| Entrypoint   | 0x0001   |
| Data Size    | 31 bytes |
| Instructions | 10       |

```
      00 01 02 03 04 05 06 07  08 09 0A 0B 0C 0D 0E 0F
      -- -- -- -- -- -- -- --  -- -- -- -- -- -- -- --
0000:    2E 1E F0 FF FF 7F 79  00 F8 FF FF 7F F0 FF FF   ......y........
0010: 7F 03 02 10 00 80 1D 01  80 23 1D 02 80 23 21 00  .........#...#!.
```

#### Opcodes

```
  0: 0x0001 [0x2E] SET_CLI_EVENT_CANCEL_FLAGS()
  1: 0x0002 [0x1E] EventEntity looks at LocalPlayer and starts talking
  2: 0x0007 [0x79] EventEntity looks at LocalPlayer (Basic look)
  3: 0x0011 [0x03] Work_Zone[2] = 1767*
  4: 0x0016 [0x1D] PRINT_EVENT_MESSAGE(message_id=14670*)
    → "Hullo there! You can call me Green, the newest member of the Magian Mooglehood! I might still be wet behind the wings, but just you wait! Someday I'll be as powerful and pretentious as my elders, kupo!"
  5: 0x0019 [0x23] WAIT_FOR_DIALOG_INTERACTION
  6: 0x001A [0x1D] PRINT_EVENT_MESSAGE(message_id=14671*)
    → "Though from the looks of it, you're even more of a greenhorn than myself. Come back when you've got a bit more experience under your belt, will you? I'm rooting for you, kupo!"
  7: 0x001D [0x23] WAIT_FOR_DIALOG_INTERACTION
  8: 0x001E [0x21] END_EVENT
  9: 0x001F [0x00] END_REQSTACK()
```

### Event 10160

#### Metadata

| Field        | Value     |
|--------------|-----------|
| Entrypoint   | 0x0020    |
| Data Size    | 173 bytes |
| Instructions | 45        |

```
      00 01 02 03 04 05 06 07  08 09 0A 0B 0C 0D 0E 0F
      -- -- -- -- -- -- -- --  -- -- -- -- -- -- -- --
0020: 42 03 2D 00 02 10 1E F0  FF FF 7F 79 00 F8 FF FF  B.-........y....
0030: 7F F0 FF FF 7F 29 80 EB  30 0F 01 09 1C 03 80 1D  .....)..0.......
0040: 01 80 23 1D 04 80 23 1D  05 80 23 1D 06 80 23 24  ..#...#...#...#$
0050: 07 80 08 80 08 80 25 02  00 10 08 80 00 B2 00 03  ......%.........
0060: 02 10 00 80 1D 09 80 23  02 2D 00 08 80 00 80 00  .......#.-......
0070: 03 02 10 0A 80 1D 0B 80  23 1D 0C 80 23 01 8E 00  ........#...#...
0080: 03 02 10 0A 80 03 03 10  00 80 1D 0D 80 23 1D 0E  .............#..
0090: 80 23 03 01 10 0F 80 29  80 EB 30 0F 01 0A 45 10  .#.....)..0...E.
00A0: 80 F0 FF FF 7F F0 FF FF  7F 71 73 74 63 08 80 01  .........qstc...
00B0: CB 00 02 00 10 0F 80 00  CB 00 1D 11 80 23 06 01  .............#..
00C0: 10 29 80 EB 30 0F 01 0A  01 CB 00 21 00           .)..0......!.   
```

#### Opcodes

```
  0: 0x0020 [0x42] SET_CLI_EVENT_CANCEL_DATA()
  1: 0x0021 [0x03] ExtData[1]->WorkLocal[45] = Work_Zone[2]
  2: 0x0026 [0x1E] EventEntity looks at LocalPlayer and starts talking
  3: 0x002B [0x79] EventEntity looks at LocalPlayer (Basic look)
  4: 0x0035 [0x29] REQ_SET_WAIT(priority=0x80, entity_id=Unnamed NPC (ID: 17772779/0x010F30EB), tag_num=0x09)
  5: 0x003C [0x1C] WAIT(60* ticks)
  6: 0x003F [0x1D] PRINT_EVENT_MESSAGE(message_id=14670*)
    → "Hullo there! You can call me Green, the newest member of the Magian Mooglehood! I might still be wet behind the wings, but just you wait! Someday I'll be as powerful and pretentious as my elders, kupo!"
  7: 0x0042 [0x23] WAIT_FOR_DIALOG_INTERACTION
  8: 0x0043 [0x1D] PRINT_EVENT_MESSAGE(message_id=14672*)
    → "Kupo-ho! You look like you're pretty proficient at that profession of yours. Why don't I let you in on a little secret?"
  9: 0x0046 [0x23] WAIT_FOR_DIALOG_INTERACTION
 10: 0x0047 [0x1D] PRINT_EVENT_MESSAGE(message_id=14673*)
    → "With just a modicum of guidance, you can acquire some special equipment to show the world, leaving folk oohing and aahing in the process!"
 11: 0x004A [0x23] WAIT_FOR_DIALOG_INTERACTION
 12: 0x004B [0x1D] PRINT_EVENT_MESSAGE(message_id=14674*)
    → "Doesn't that sound like fun? Care to give it a go, kupo?"
 13: 0x004E [0x23] WAIT_FOR_DIALOG_INTERACTION
 14: 0x004F [0x24] CREATE_DIALOG(message_id=14675*, default_option=0*, option_flags=0*)
    → "Give it a go, kupo? [Yeah!/Nah.]"
 15: 0x0056 [0x25] WAIT_DIALOG_SELECT()
 16: 0x0057 [0x02] IF !(Work_Zone[0] == 0*) GOTO 0x00B2
 17: 0x005F [0x03] Work_Zone[2] = 1767*
 18: 0x0064 [0x1D] PRINT_EVENT_MESSAGE(message_id=14676*)
    → "Splendid answer! Your spirit of self-improvement rather reminds me of myself, kupo! Here, take this $3."
 19: 0x0067 [0x23] WAIT_FOR_DIALOG_INTERACTION
 20: 0x0068 [0x02] IF !(ExtData[1]->WorkLocal[45] == 0*) GOTO 0x0080
 21: 0x0070 [0x03] Work_Zone[2] = 1261*
 22: 0x0075 [0x1D] PRINT_EVENT_MESSAGE(message_id=14677*)
    → "You can use this until you're ready to receive a full-fledged $3 from Elder Orange over there."
 23: 0x0078 [0x23] WAIT_FOR_DIALOG_INTERACTION
 24: 0x0079 [0x1D] PRINT_EVENT_MESSAGE(message_id=14678*)
    → "Oh, and don't worry, kupo. At that time, your trial records will be transferred automatically from the old log to the new. Let it never be said that the Magian Mooglehood doesn't take care of its vict--er, challengers."
 25: 0x007C [0x23] WAIT_FOR_DIALOG_INTERACTION
 26: 0x007D [0x01] GOTO 0x008E
 27: 0x0080 [0x03] Work_Zone[2] = 1261*
 28: 0x0085 [0x03] Work_Zone[3] = 1767*
 29: 0x008A [0x1D] PRINT_EVENT_MESSAGE(message_id=14679*)
    → "Kupo-whoa! Is that $6 you have there, or are you just happy to see me? I guess we won't be needing this $3, then..."
 30: 0x008D [0x23] WAIT_FOR_DIALOG_INTERACTION

SUBROUTINE_008E:
 31: 0x008E [0x1D] PRINT_EVENT_MESSAGE(message_id=14680*)
    → "Now, you'll want to make sure that you have room in your gobbiebag before taking on a trial. Go ahead, kupo! I won't be going anywhere."
 32: 0x0091 [0x23] WAIT_FOR_DIALOG_INTERACTION
 33: 0x0092 [0x03] Work_Zone[1] = 1*
 34: 0x0097 [0x29] REQ_SET_WAIT(priority=0x80, entity_id=Unnamed NPC (ID: 17772779/0x010F30EB), tag_num=0x0A)
 35: 0x009E [0x45] LOAD_SCHEDULED_TASK: Load scheduler "qstc" with entities [LocalPlayer, LocalPlayer], work=[201*, 0*]
 36: 0x00AF [0x01] GOTO 0x00CB
 37: 0x00B2 [0x02] IF !(Work_Zone[0] == 1*) GOTO 0x00CB
 38: 0x00BA [0x1D] PRINT_EVENT_MESSAGE(message_id=14681*)
    → "Whenever you're ready to take on a trial, you know where to find me, kupo!"
 39: 0x00BD [0x23] WAIT_FOR_DIALOG_INTERACTION
 40: 0x00BE [0x06] Work_Zone[1] = 0
 41: 0x00C1 [0x29] REQ_SET_WAIT(priority=0x80, entity_id=Unnamed NPC (ID: 17772779/0x010F30EB), tag_num=0x0A)
 42: 0x00C8 [0x01] GOTO 0x00CB

SUBROUTINE_00CB:
 43: 0x00CB [0x21] END_EVENT
 44: 0x00CC [0x00] END_REQSTACK()
```

### Event 10152

#### Metadata

| Field        | Value     |
|--------------|-----------|
| Entrypoint   | 0x00CD    |
| Data Size    | 262 bytes |
| Instructions | 57        |

```
      00 01 02 03 04 05 06 07  08 09 0A 0B 0C 0D 0E 0F
      -- -- -- -- -- -- -- --  -- -- -- -- -- -- -- --
00C0:                                         2E 03 2C               ..,
00D0: 00 07 10 03 2D 00 08 10  1E F0 FF FF 7F 79 00 F8  ....-........y..
00E0: FF FF 7F F0 FF FF 7F 29  80 EB 30 0F 01 09 1C 03  .......)..0.....
00F0: 80 1D 01 80 23 1D 12 80  23 06 27 00 02 09 10 08  ....#...#.'.....
0100: 80 00 15 01 3C 27 00 0F  80 0F 80 3C 27 00 13 80  ....<'.....<'...
0110: 0F 80 01 24 01 02 09 10  14 80 00 24 01 3C 27 00  ...$.......$.<'.
0120: 08 80 0F 80 02 0F 80 0F  80 00 80 01 24 15 80 08  ............$...
0130: 80 27 00 25 02 00 10 08  80 00 42 01 1A 82 01 01  .'.%......B.....
0140: 7D 01 02 00 10 0F 80 00  50 01 1A EC 03 01 7D 01  }.......P.....}.
0150: 02 00 10 13 80 00 5F 01  1A 14 04 2E 01 7D 01 02  ......_......}..
0160: 00 10 16 80 00 6D 01 1A  49 06 01 7D 01 02 00 10  .....m..I..}....
0170: 17 80 00 7B 01 1A 92 03  01 7D 01 21 00 01 24 01  ...{.....}.!..$.
0180: 21 00 02 0F 80 0F 80 00  D2 01 03 02 10 08 80 24  !..............$
0190: 18 80 08 80 2C 00 25 02  00 10 08 80 00 A3 01 1B  ....,.%.........
01A0: 01 A3 01 03 22 00 00 10  03 1F 17 08 80 9D 00 88  ...."...........
01B0: 06 22 00 22 00 1A DE 0B  02 22 00 08 80 00 C5 01  ."."....."......
01C0: 21 00 01 CF 01 02 22 00  19 80 00 CF 01 21 00 01  !....."......!..
01D0: 82 01 1B                                          ...             
```

#### Opcodes

```
  0: 0x00CD [0x2E] SET_CLI_EVENT_CANCEL_FLAGS()
  1: 0x00CE [0x03] ExtData[1]->WorkLocal[44] = Work_Zone[7]
  2: 0x00D3 [0x03] ExtData[1]->WorkLocal[45] = Work_Zone[8]
  3: 0x00D8 [0x1E] EventEntity looks at LocalPlayer and starts talking
  4: 0x00DD [0x79] EventEntity looks at LocalPlayer (Basic look)
  5: 0x00E7 [0x29] REQ_SET_WAIT(priority=0x80, entity_id=Unnamed NPC (ID: 17772779/0x010F30EB), tag_num=0x09)
  6: 0x00EE [0x1C] WAIT(60* ticks)
  7: 0x00F1 [0x1D] PRINT_EVENT_MESSAGE(message_id=14670*)
    → "Hullo there! You can call me Green, the newest member of the Magian Mooglehood! I might still be wet behind the wings, but just you wait! Someday I'll be as powerful and pretentious as my elders, kupo!"
  8: 0x00F4 [0x23] WAIT_FOR_DIALOG_INTERACTION
  9: 0x00F5 [0x1D] PRINT_EVENT_MESSAGE(message_id=14682*)
    → "Need something, kupo?"
 10: 0x00F8 [0x23] WAIT_FOR_DIALOG_INTERACTION
 11: 0x00F9 [0x06] ExtData[1]->WorkLocal[39] = 0
 12: 0x00FC [0x02] IF !(Work_Zone[9] == 0*) GOTO 0x0115
 13: 0x0104 [0x3C] SET_BIT_FLAG_CONDITIONAL(target_work_offset=ExtData[1]->WorkLocal[39], bit_index_work_offset=1*, condition_work_offset=1*)
 14: 0x010B [0x3C] SET_BIT_FLAG_CONDITIONAL(target_work_offset=ExtData[1]->WorkLocal[39], bit_index_work_offset=2*, condition_work_offset=1*)
 15: 0x0112 [0x01] GOTO 0x0124
 16: 0x0115 [0x02] IF !(Work_Zone[9] == 10*) GOTO 0x0124
 17: 0x011D [0x3C] SET_BIT_FLAG_CONDITIONAL(target_work_offset=ExtData[1]->WorkLocal[39], bit_index_work_offset=0*, condition_work_offset=1*)

SUBROUTINE_0124:
 18: 0x0124 [0x02] IF !(1* == 1*) GOTO 0x0180
 19: 0x012C [0x24] CREATE_DIALOG(message_id=14683*, default_option=0*, option_flags=ExtData[1]->WorkLocal[39])
    → "What will you do? [Take on a trial./Review current trial./Abandon current trial./List available trials./Ask for aid./Move on.]"
 20: 0x0133 [0x25] WAIT_DIALOG_SELECT()
 21: 0x0134 [0x02] IF !(Work_Zone[0] == 0*) GOTO 0x0142
 22: 0x013C [0x1A] CALL_SUBROUTINE(address=0x0182)
 23: 0x013F [0x01] GOTO 0x017D
 24: 0x0142 [0x02] IF !(Work_Zone[0] == 1*) GOTO 0x0150
 25: 0x014A [0x1A] CALL_SUBROUTINE(address=0x03EC)
 26: 0x014D [0x01] GOTO 0x017D
 27: 0x0150 [0x02] IF !(Work_Zone[0] == 2*) GOTO 0x015F
 28: 0x0158 [0x1A] CALL_SUBROUTINE(address=0x0414)
 29: 0x015B [0x2E] SET_CLI_EVENT_CANCEL_FLAGS()
 30: 0x015C [0x01] GOTO 0x017D
 31: 0x015F [0x02] IF !(Work_Zone[0] == 3*) GOTO 0x016D
 32: 0x0167 [0x1A] CALL_SUBROUTINE(address=0x0649)
 33: 0x016A [0x01] GOTO 0x017D
 34: 0x016D [0x02] IF !(Work_Zone[0] == 4*) GOTO 0x017B
 35: 0x0175 [0x1A] CALL_SUBROUTINE(address=0x0392)
 36: 0x0178 [0x01] GOTO 0x017D
 37: 0x017B [0x21] END_EVENT
 38: 0x017C [0x00] END_REQSTACK()

SUBROUTINE_017D:
 39: 0x017D [0x01] GOTO 0x0124
 40: 0x0180 [0x21] END_EVENT
 41: 0x0181 [0x00] END_REQSTACK()

SUBROUTINE_0182:
 42: 0x0182 [0x02] IF !(1* == 1*) GOTO 0x01D2
 43: 0x018A [0x03] Work_Zone[2] = 0*
 44: 0x018F [0x24] CREATE_DIALOG(message_id=14684*, default_option=0*, option_flags=ExtData[1]->WorkLocal[44])
    → "[Take on/Review] which trial? [None./Warrior./Monk./White Mage./Black Mage./Red Mage./Thief./Paladin./Dark Knight./Beastmaster./Bard./Ranger./Samurai./Ninja./Dragoon./Summoner./Blue Mage./Corsair./Puppetmaster./Dancer./Scholar.]"
 45: 0x0196 [0x25] WAIT_DIALOG_SELECT()
 46: 0x0197 [0x02] IF !(Work_Zone[0] == 0*) GOTO 0x01A3
 47: 0x019F [0x1B] RETURN

SUBROUTINE_01A3:
 48: 0x01A3 [0x03] ExtData[1]->WorkLocal[34] = Work_Zone[0]
 49: 0x01A8 [0x03] Work_Zone_1700[31] = 0*
 50: 0x01AD [0x9D] ExtData[1]->WorkLocal[34] = 0x0688[ExtData[1]->WorkLocal[34]] // Read WORD
 51: 0x01B5 [0x1A] CALL_SUBROUTINE(address=0x0BDE)
 52: 0x01B8 [0x02] IF !(ExtData[1]->WorkLocal[34] == 0*) GOTO 0x01C5
 53: 0x01C0 [0x21] END_EVENT
 54: 0x01C1 [0x00] END_REQSTACK()

SUBROUTINE_01CF:
 55: 0x01CF [0x01] GOTO 0x0182
 56: 0x01D2 [0x1B] RETURN
```

#### Data or dead code:

```
# Dead code (unreachable instructions):
     0x01A0 [0x01] GOTO 0x01A3
# Dead code (unreachable instructions):
     0x01C2 [0x01] GOTO 0x01CF
```

### Event 10153

#### Metadata

| Field        | Value      |
|--------------|------------|
| Entrypoint   | 0x01D3     |
| Data Size    | 4265 bytes |
| Instructions | 392        |

```
      00 01 02 03 04 05 06 07  08 09 0A 0B 0C 0D 0E 0F
      -- -- -- -- -- -- -- --  -- -- -- -- -- -- -- --
01D0:          2E 03 2D 00 08  10 1E F0 FF FF 7F 79 00     ..-........y.
01E0: F8 FF FF 7F F0 FF FF 7F  02 09 10 08 80 80 16 02  ................
01F0: 29 80 EB 30 0F 01 09 1C  03 80 03 1A 00 02 10 03  )..0............
0200: 1B 00 03 10 03 1C 00 04  10 03 1D 00 05 10 03 1E  ................
0210: 00 07 10 01 A4 02 02 09  10 1A 80 80 2C 02 1D 1B  ............,...
0220: 80 23 03 01 10 1A 80 21  00 01 A4 02 02 09 10 19  .#.....!........
0230: 80 80 42 02 1D 1C 80 23  03 01 10 1A 80 21 00 01  ..B....#.....!..
0240: A4 02 02 09 10 1D 80 80  58 02 1D 1B 80 23 03 01  ........X....#..
0250: 10 1A 80 21 00 01 A4 02  02 09 10 1E 80 80 6E 02  ...!..........n.
0260: 1D 1F 80 23 03 01 10 1A  80 21 00 01 A4 02 02 09  ...#.....!......
0270: 10 20 80 80 99 02 02 2D  00 08 80 00 86 02 03 02  . .....-........
0280: 10 00 80 01 8B 02 03 02  10 0A 80 1D 21 80 23 03  ............!.#.
0290: 01 10 1A 80 21 00 01 A4  02 1D 22 80 23 03 01 10  ....!.....".#...
02A0: 1A 80 21 00 03 02 10 1E  00 1D 23 80 23 06 27 00  ..!.......#.#.'.
02B0: 02 1A 00 08 80 00 BF 02  3C 27 00 08 80 0F 80 02  ........<'......
02C0: 1B 00 08 80 00 CE 02 3C  27 00 0F 80 0F 80 02 1C  .......<'.......
02D0: 00 08 80 00 DD 02 3C 27  00 13 80 0F 80 02 1D 00  ......<'........
02E0: 08 80 00 EC 02 3C 27 00  16 80 0F 80 0E 27 00 24  .....<'......'.$
02F0: 80 02 0F 80 0F 80 00 90  03 03 02 10 1A 00 03 03  ................
0300: 10 1B 00 03 04 10 1C 00  03 05 10 1D 00 03 1F 17  ................
0310: 0F 80 24 25 80 08 80 27  00 25 02 00 10 08 80 00  ..$%...'.%......
0320: 2A 03 03 22 00 1A 00 01  73 03 02 00 10 0F 80 00  *.."....s.......
0330: 3A 03 03 22 00 1B 00 01  73 03 02 00 10 13 80 00  :.."....s.......
0340: 4A 03 03 22 00 1C 00 01  73 03 02 00 10 16 80 00  J.."....s.......
0350: 5A 03 03 22 00 1D 00 01  73 03 02 00 10 26 80 00  Z.."....s....&..
0360: 6C 03 03 01 10 1A 80 21  00 01 73 03 03 01 10 1A  l......!..s.....
0370: 80 21 00 1A DE 0B 02 22  00 08 80 00 83 03 21 00  .!....."......!.
0380: 01 8D 03 02 22 00 19 80  00 8D 03 21 00 01 F1 02  ...."......!....
0390: 21 00 02 0F 80 0F 80 00  EB 03 24 27 80 08 80 08  !.........$'....
03A0: 80 25 02 00 10 08 80 00  B5 03 1D 28 80 23 1D 29  .%.........(.#.)
03B0: 80 23 01 E8 03 02 00 10  0F 80 00 CC 03 1D 2A 80  .#............*.
03C0: 23 1D 2B 80 23 1D 2C 80  23 01 E8 03 02 00 10 13  #.+.#.,.#.......
03D0: 80 00 E7 03 1D 2D 80 23  1D 2E 80 23 1D 2F 80 23  .....-.#...#./.#
03E0: 1D 30 80 23 01 E8 03 1B  01 92 03 1B 02 0F 80 0F  .0.#............
03F0: 80 00 13 04 03 22 00 08  80 1A F6 04 02 22 00 1A  ....."......."..
0400: 80 00 08 04 1B 01 10 04  03 28 00 0F 80 1A E8 06  .........(......
0410: 01 EC 03 1B 02 0F 80 0F  80 00 F5 04 03 22 00 0F  ............."..
0420: 80 1A F6 04 02 22 00 1A  80 00 30 04 1B 01 F2 04  ....."....0.....
0430: 02 22 00 19 80 00 3D 04  48 31 80 23 1B 1D 32 80  ."....=.H1.#..2.
0440: 23 24 33 80 08 80 08 80  25 02 00 10 0F 80 00 F1  #$3.....%.......
0450: 04 42 02 2D 00 08 80 00  62 04 03 02 10 00 80 01  .B.-....b.......
0460: 67 04 03 02 10 0A 80 1D  34 80 23 AD 02 35 80 F8  g.......4.#..5..
0470: FF FF 7F F0 FF FF 7F 1C  36 80 03 01 10 37 80 40  ........6....7.@
0480: 38 80 39 80 01 10 22 00  43 00 43 01 02 09 10 08  8.9...".C.C.....
0490: 80 00 CB 04 03 02 10 22  00 48 3A 80 23 1D 3B 80  .......".H:.#.;.
04A0: 23 1D 3C 80 23 03 01 10  3D 80 43 00 43 01 06 27  #.<.#...=.C.C..'
04B0: 00 02 09 10 08 80 00 C7  04 3C 27 00 08 80 0F 80  .........<'.....
04C0: 3C 27 00 0F 80 0F 80 1B  01 EE 04 02 09 10 1A 80  <'..............
04D0: 00 DA 04 1D 3E 80 23 01  EE 04 02 09 10 19 80 00  ....>.#.........
04E0: E9 04 48 3F 80 23 01 EE  04 1D 22 80 23 1B 01 F2  ..H?.#....".#...
04F0: 04 1B 01 14 04 1B 03 01  10 3D 80 43 00 43 01 02  .........=.C.C..
0500: 09 10 08 80 00 0D 05 03  22 00 19 80 1B 41 08 80  ........"....A..
0510: 40 80 02 10 16 17 41 26  80 39 80 02 10 17 17 41  @.....A&.9.....A
0520: 08 80 40 80 03 10 18 17  41 26 80 39 80 03 10 19  ..@.....A&.9....
0530: 17 41 08 80 40 80 04 10  1A 17 41 26 80 39 80 04  .A..@.....A&.9..
0540: 10 1B 17 41 08 80 40 80  05 10 1C 17 41 26 80 39  ...A..@.....A&.9
0550: 80 05 10 1D 17 41 08 80  40 80 06 10 1E 17 41 26  .....A..@.....A&
0560: 80 39 80 06 10 1F 17 06  20 00 03 26 00 08 80 02  .9...... ..&....
0570: 26 00 14 80 03 96 05 02  09 10 26 00 02 89 05 3D  &.........&....=
0580: 20 00 26 00 0F 80 01 90  05 3C 20 00 26 00 0F 80   .&......< .&...
0590: 0B 26 00 01 6F 05 03 07  10 22 00 24 41 80 08 80  .&..o....".$A...
05A0: 20 00 25 02 00 10 08 80  00 B3 05 03 22 00 16 17   .%........."...
05B0: 01 48 06 02 00 10 0F 80  00 C3 05 03 22 00 17 17  .H.........."...
05C0: 01 48 06 02 00 10 13 80  00 D3 05 03 22 00 18 17  .H.........."...
05D0: 01 48 06 02 00 10 16 80  00 E3 05 03 22 00 19 17  .H.........."...
05E0: 01 48 06 02 00 10 17 80  00 F3 05 03 22 00 1A 17  .H.........."...
05F0: 01 48 06 02 00 10 3D 80  00 03 06 03 22 00 1B 17  .H....=....."...
0600: 01 48 06 02 00 10 37 80  00 13 06 03 22 00 1C 17  .H....7....."...
0610: 01 48 06 02 00 10 42 80  00 23 06 03 22 00 1D 17  .H....B..#.."...
0620: 01 48 06 02 00 10 38 80  00 33 06 03 22 00 1E 17  .H....8..3.."...
0630: 01 48 06 02 00 10 43 80  00 43 06 03 22 00 1F 17  .H....C..C.."...
0640: 01 48 06 03 22 00 1A 80  1B 02 0F 80 0F 80 00 87  .H.."...........
0650: 06 03 02 10 0F 80 24 18  80 08 80 08 80 25 02 00  ......$......%..
0660: 10 08 80 00 6A 06 1B 01  6A 06 03 22 00 00 10 03  ....j...j.."....
0670: 1F 17 08 80 9D 00 88 06  22 00 22 00 03 28 00 08  ........"."..(..
0680: 80 1A E8 06 01 49 06 1B  08 80 44 80 45 80 46 80  .....I....D.E.F.
0690: 47 80 48 80 49 80 4A 80  4B 80 4C 80 4D 80 4E 80  G.H.I.J.K.L.M.N.
06A0: 4F 80 50 80 51 80 52 80  53 80 54 80 55 80 56 80  O.P.Q.R.S.T.U.V.
06B0: 57 80 08 80 08 80 08 80  02 10 03 10 04 10 05 10  W...............
06C0: 06 10 07 10 08 10 09 10  00 17 01 17 02 17 03 17  ................
06D0: 04 17 05 17 06 17 07 17  08 17 09 17 0A 17 0B 17  ................
06E0: 0C 17 0D 17 0E 17 0F 17  06 2A 00 03 29 00 28 00  .........*..).(.
06F0: 03 00 00 22 00 06 21 00  03 14 00 22 00 1D 58 80  ..."..!...."..X.
0700: 03 01 10 0F 80 40 26 80  39 80 01 10 14 00 43 00  .....@&.9.....C.
0710: 43 01 02 09 10 08 80 03  24 07 1D 3E 80 23 03 2A  C.......$..>.#.*
0720: 00 1A 80 1B 03 02 00 02  10 03 03 00 03 10 03 04  ................
0730: 00 04 10 03 01 00 05 10  03 09 00 08 10 07 09 00  ................
0740: 59 80 03 0A 00 08 10 07  0A 00 5A 80 03 0B 00 08  Y.........Z.....
0750: 10 07 0B 00 5B 80 03 01  10 13 80 40 26 80 39 80  ....[......@&.9.
0760: 01 10 14 00 43 00 43 01  02 02 10 08 80 00 7A 07  ....C.C.......z.
0770: 1D 3E 80 23 03 2A 00 1A  80 1B 03 0C 00 02 10 03  .>.#.*..........
0780: 0D 00 03 10 03 0E 00 04  10 03 0F 00 05 10 03 10  ................
0790: 00 06 10 03 11 00 07 10  03 12 00 08 10 03 13 00  ................
07A0: 09 10 03 01 10 16 80 40  26 80 39 80 01 10 14 00  .......@&.9.....
07B0: 43 00 43 01 02 09 10 08  80 03 C6 07 1D 3E 80 23  C.C..........>.#
07C0: 03 2A 00 1A 80 1B 03 06  00 02 10 03 07 00 03 10  .*..............
07D0: 03 08 00 04 10 03 05 00  05 10 03 01 10 17 80 40  ...............@
07E0: 26 80 39 80 01 10 14 00  43 00 43 01 02 09 10 08  &.9.....C.C.....
07F0: 80 03 FE 07 1D 3E 80 23  03 2A 00 1A 80 1B 03 16  .....>.#.*......
0800: 00 02 10 03 17 00 03 10  03 18 00 04 10 03 19 00  ................
0810: 05 10 03 15 00 06 10 03  02 10 14 00 1D 5C 80 23  .............\.#
0820: 06 20 00 02 15 00 08 80  00 43 08 02 16 00 08 80  . .......C......
0830: 00 3B 08 03 22 00 5D 80  01 40 08 03 22 00 5E 80  .;..".]..@..".^.
0840: 01 58 08 02 16 00 08 80  00 53 08 03 22 00 5F 80  .X.......S.."._.
0850: 01 58 08 03 22 00 60 80  02 29 00 08 80 00 6A 08  .X..".`..)....j.
0860: 3D 20 00 08 80 0F 80 01  71 08 3C 20 00 08 80 0F  = ......q.< ....
0870: 80 02 17 00 08 80 00 83  08 3C 20 00 42 80 0F 80  .........< .B...
0880: 01 8A 08 3D 20 00 42 80  0F 80 02 18 00 08 80 00  ...= .B.........
0890: 9C 08 3C 20 00 38 80 0F  80 01 A3 08 3D 20 00 38  ..< .8......= .8
08A0: 80 0F 80 02 19 00 08 80  00 B5 08 3C 20 00 43 80  ...........< .C.
08B0: 0F 80 01 BC 08 3D 20 00  43 80 0F 80 3E 21 00 08  .....= .C...>!..
08C0: 80 CD 08 3D 20 00 14 80  0F 80 01 D4 08 3C 20 00  ...= ........< .
08D0: 14 80 0F 80 02 0F 80 0F  80 00 DD 0B 03 02 10 14  ................
08E0: 00 03 03 10 15 00 03 04  10 16 00 03 05 10 17 00  ................
08F0: 03 06 10 18 00 03 07 10  19 00 03 08 10 01 00 03  ................
0900: 09 10 05 00 24 22 00 08  80 20 00 25 02 00 10 08  ....$"... .%....
0910: 80 80 9F 09 02 02 00 08  80 00 4C 09 02 03 00 08  ..........L.....
0920: 80 00 3F 09 02 04 00 08  80 00 32 09 93 01 00 01  ..?.......2.....
0930: 3C 09 CC 01 01 00 02 00  03 00 04 00 01 49 09 CC  <............I..
0940: 01 01 00 02 00 03 00 04  00 01 56 09 CC 01 01 00  ..........V.....
0950: 02 00 03 00 04 00 1D 61  80 23 02 02 00 08 80 00  .......a.#......
0960: 92 09 02 03 00 08 80 00  85 09 02 04 00 08 80 00  ................
0970: 78 09 93 08 80 01 82 09  CC 01 08 80 08 80 08 80  x...............
0980: 08 80 01 8F 09 CC 01 08  80 08 80 08 80 08 80 01  ................
0990: 9C 09 CC 01 08 80 08 80  08 80 08 80 01 DA 0B 02  ................
09A0: 00 10 0F 80 80 E9 09 03  02 10 0C 00 03 03 10 0D  ................
09B0: 00 03 04 10 0E 00 03 05  10 0F 00 03 06 10 10 00  ................
09C0: 03 07 10 11 00 03 08 10  12 00 03 09 10 13 00 48  ...............H
09D0: 09 00 23 02 29 00 08 80  00 E2 09 48 0A 00 23 01  ..#.)......H..#.
09E0: E6 09 48 0B 00 23 01 DA  0B 02 00 10 13 80 80 7C  ..H..#.........|
09F0: 0A 02 06 00 08 80 00 29  0A 02 07 00 08 80 00 1C  .......)........
0A00: 0A 02 08 00 08 80 00 0F  0A 93 05 00 01 19 0A CC  ................
0A10: 01 05 00 06 00 07 00 08  00 01 26 0A CC 01 05 00  ..........&.....
0A20: 06 00 07 00 08 00 01 33  0A CC 01 05 00 06 00 07  .......3........
0A30: 00 08 00 1D 62 80 23 02  06 00 08 80 00 6F 0A 02  ....b.#......o..
0A40: 07 00 08 80 00 62 0A 02  08 00 08 80 00 55 0A 93  .....b.......U..
0A50: 08 80 01 5F 0A CC 01 08  80 08 80 08 80 08 80 01  ..._............
0A60: 6C 0A CC 01 08 80 08 80  08 80 08 80 01 79 0A CC  l............y..
0A70: 01 08 80 08 80 08 80 08  80 01 DA 0B 02 00 10 16  ................
0A80: 80 80 87 0A 01 DA 0B 02  00 10 17 80 80 C0 0A 02  ................
0A90: 15 00 08 80 01 BD 0A 03  22 00 15 00 02 22 00 00  ........"...."..
0AA0: 00 01 AE 0A 3C 21 00 08  80 0F 80 01 B5 0A 3D 21  ....<!........=!
0AB0: 00 08 80 0F 80 03 29 00  08 80 01 F8 06 01 DA 0B  ......).........
0AC0: 02 00 10 3D 80 80 CB 0A  01 DA 0B 02 00 10 37 80  ...=..........7.
0AD0: 80 04 0B 02 16 00 08 80  01 01 0B 03 22 00 16 00  ............"...
0AE0: 02 22 00 00 00 01 F2 0A  3C 21 00 08 80 0F 80 01  ."......<!......
0AF0: F9 0A 3D 21 00 08 80 0F  80 03 29 00 08 80 01 F8  ..=!......).....
0B00: 06 01 DA 0B 02 00 10 42  80 80 3D 0B 02 17 00 08  .......B..=.....
0B10: 80 01 3A 0B 03 22 00 17  00 02 22 00 00 00 01 2B  ..:.."...."....+
0B20: 0B 3C 21 00 08 80 0F 80  01 32 0B 3D 21 00 08 80  .<!......2.=!...
0B30: 0F 80 03 29 00 08 80 01  F8 06 01 DA 0B 02 00 10  ...)............
0B40: 38 80 80 76 0B 02 18 00  08 80 01 73 0B 03 22 00  8..v.......s..".
0B50: 18 00 02 22 00 00 00 01  64 0B 3C 21 00 08 80 0F  ..."....d.<!....
0B60: 80 01 6B 0B 3D 21 00 08  80 0F 80 03 29 00 08 80  ..k.=!......)...
0B70: 01 F8 06 01 DA 0B 02 00  10 43 80 80 AF 0B 02 19  .........C......
0B80: 00 08 80 01 AC 0B 03 22  00 19 00 02 22 00 00 00  ......."...."...
0B90: 01 9D 0B 3C 21 00 08 80  0F 80 01 A4 0B 3D 21 00  ...<!........=!.
0BA0: 08 80 0F 80 03 29 00 08  80 01 F8 06 01 DA 0B 02  .....)..........
0BB0: 00 10 14 80 80 CE 0B 03  22 00 00 00 3D 21 00 08  ........"...=!..
0BC0: 80 0F 80 03 29 00 28 00  01 F8 06 01 DA 0B 02 00  ....).(.........
0BD0: 10 63 80 80 DA 0B 1B 01  DA 0B 01 D4 08 1B 03 28  .c.............(
0BE0: 00 08 80 1A E8 06 02 2A  00 08 80 01 F7 0B 03 22  .......*......."
0BF0: 00 1A 80 1B 01 F7 0B 03  01 10 64 80 40 38 80 39  ..........d.@8.9
0C00: 80 01 10 00 00 43 00 43  01 02 09 10 08 80 00 22  .....C.C......."
0C10: 0C 02 02 10 08 80 00 1C  0C 01 1F 0C 48 65 80 01  ............He..
0C20: 22 0C 03 01 10 66 80 40  38 80 39 80 01 10 00 00  "....f.@8.9.....
0C30: 43 00 43 01 02 02 10 08  80 00 3F 0C 01 45 0C 48  C.C.......?..E.H
0C40: 67 80 1C 03 80 03 02 10  00 00 1D 68 80 23 24 69  g..........h.#$i
0C50: 80 0F 80 08 80 25 02 00  10 08 80 00 66 0D 42 03  .....%......f.B.
0C60: 01 10 42 80 40 38 80 39  80 01 10 00 00 43 00 43  ..B.@8.9.....C.C
0C70: 01 02 09 10 08 80 80 19  0D 03 05 00 05 10 03 06  ................
0C80: 00 02 10 03 07 00 03 10  03 08 00 04 10 1D 6A 80  ..............j.
0C90: 23 2C F8 FF FF 7F F8 FF  FF 7F 68 61 70 30 AD 02  #,........hap0..
0CA0: 6B 80 F8 FF FF 7F F0 FF  FF 7F 1C 36 80 2C F8 FF  k..........6.,..
0CB0: FF 7F F8 FF FF 7F 68 61  70 31 02 2D 00 08 80 00  ......hap1.-....
0CC0: CA 0C 03 02 10 00 80 01  CF 0C 03 02 10 0A 80 48  ...............H
0CD0: 6C 80 23 1D 6D 80 23 2C  F8 FF FF 7F F8 FF FF 7F  l.#.m.#,........
0CE0: 68 61 70 30 AD 02 6E 80  F8 FF FF 7F F0 FF FF 7F  hap0..n.........
0CF0: 1C 36 80 2C F8 FF FF 7F  F8 FF FF 7F 68 61 70 31  .6.,........hap1
0D00: 03 02 10 05 00 48 6F 80  23 48 70 80 23 1D 71 80  .....Ho.#Hp.#.q.
0D10: 23 03 22 00 08 80 01 63  0D 02 09 10 1A 80 80 2D  #."....c.......-
0D20: 0D 1D 72 80 23 03 22 00  1A 80 01 63 0D 02 09 10  ..r.#."....c....
0D30: 19 80 80 5A 0D 02 2D 00  08 80 00 45 0D 03 02 10  ...Z..-....E....
0D40: 00 80 01 4A 0D 03 02 10  0A 80 1D 21 80 23 1D 73  ...J.......!.#.s
0D50: 80 23 03 22 00 19 80 01  63 0D 1D 3E 80 23 03 22  .#."....c..>.#."
0D60: 00 1D 80 01 6B 0D 03 22  00 0F 80 1B 13 80 26 80  ....k.."......&.
0D70: 74 80 75 80 76 80 77 80  78 80 79 80 7A 80 7B 80  t.u.v.w.x.y.z.{.
0D80: 7C 80 7D 80 7E 80 08 80  08 80 08 80 7F 80 80 80  |.}.~...........
0D90: 81 80 82 80 83 80 84 80  85 80 86 80 87 80 88 80  ................
0DA0: 89 80 08 80 08 80 08 80  08 80 08 80 8A 80 8B 80  ................
0DB0: 8C 80 8D 80 8E 80 8F 80  90 80 91 80 92 80 93 80  ................
0DC0: 94 80 95 80 96 80 08 80  08 80 08 80 97 80 98 80  ................
0DD0: 99 80 9A 80 9B 80 9C 80  9D 80 08 80 9E 80 9F 80  ................
0DE0: A0 80 A1 80 A2 80 A3 80  A4 80 A5 80 A6 80 08 80  ................
0DF0: 08 80 08 80 08 80 08 80  08 80 08 80 A7 80 A8 80  ................
0E00: A9 80 AA 80 AB 80 AC 80  AD 80 AE 80 AF 80 08 80  ................
0E10: 08 80 08 80 08 80 08 80  08 80 08 80 B0 80 B1 80  ................
0E20: B2 80 B3 80 B4 80 B5 80  B6 80 B7 80 B8 80 08 80  ................
0E30: 08 80 08 80 08 80 08 80  08 80 08 80 B9 80 BA 80  ................
0E40: BB 80 BC 80 BD 80 BE 80  BF 80 C0 80 C1 80 08 80  ................
0E50: 08 80 08 80 08 80 08 80  08 80 08 80 C2 80 C3 80  ................
0E60: C4 80 C5 80 C6 80 C7 80  C8 80 C9 80 CA 80 08 80  ................
0E70: 08 80 08 80 08 80 08 80  08 80 08 80 CB 80 CC 80  ................
0E80: CD 80 CE 80 CF 80 D0 80  D1 80 D2 80 D3 80 08 80  ................
0E90: 08 80 08 80 08 80 08 80  08 80 08 80 D4 80 D5 80  ................
0EA0: D6 80 D7 80 D8 80 D9 80  DA 80 DB 80 DC 80 08 80  ................
0EB0: 08 80 08 80 08 80 08 80  08 80 08 80 DD 80 DE 80  ................
0EC0: DF 80 E0 80 E1 80 E2 80  E3 80 E4 80 E5 80 E6 80  ................
0ED0: E7 80 E8 80 E9 80 08 80  08 80 08 80 EA 80 EB 80  ................
0EE0: EC 80 ED 80 EE 80 EF 80  F0 80 F1 80 F2 80 F3 80  ................
0EF0: F4 80 08 80 08 80 08 80  08 80 08 80 F5 80 F6 80  ................
0F00: F7 80 F8 80 F9 80 FA 80  FB 80 08 80 FC 80 FD 80  ................
0F10: FE 80 FF 80 00 81 01 81  02 81 03 81 04 81 05 81  ................
0F20: 06 81 07 81 08 81 09 81  0A 81 0B 81 0C 81 0D 81  ................
0F30: 0E 81 0F 81 10 81 11 81  12 81 13 81 14 81 15 81  ................
0F40: 16 81 17 81 18 81 19 81  1A 81 1B 81 1C 81 1D 81  ................
0F50: 1E 81 1F 81 20 81 21 81  22 81 23 81 24 81 25 81  .... .!.".#.$.%.
0F60: 26 81 27 81 28 81 29 81  2A 81 2B 81 2C 81 2D 81  &.'.(.).*.+.,.-.
0F70: 2E 81 2F 81 30 81 31 81  32 81 33 81 34 81 35 81  ../.0.1.2.3.4.5.
0F80: 36 81 37 81 38 81 39 81  3A 81 3B 81 3C 81 3D 81  6.7.8.9.:.;.<.=.
0F90: 3E 81 3F 81 40 81 41 81  42 81 43 81 44 81 45 81  >.?.@.A.B.C.D.E.
0FA0: 46 81 47 81 48 81 49 81  4A 81 4B 81 4C 81 4D 81  F.G.H.I.J.K.L.M.
0FB0: 4E 81 4F 81 50 81 51 81  52 81 53 81 54 81 55 81  N.O.P.Q.R.S.T.U.
0FC0: 56 81 57 81 58 81 59 81  5A 81 5B 81 5C 81 5D 81  V.W.X.Y.Z.[.\.].
0FD0: 5E 81 5F 81 60 81 61 81  62 81 63 81 64 81 65 81  ^._.`.a.b.c.d.e.
0FE0: 66 81 67 81 68 81 69 81  6A 81 6B 81 6C 81 6D 81  f.g.h.i.j.k.l.m.
0FF0: 6E 81 6F 81 70 81 71 81  72 81 73 81 74 81 75 81  n.o.p.q.r.s.t.u.
1000: 76 81 77 81 78 81 79 81  7A 81 7B 81 7C 81 7D 81  v.w.x.y.z.{.|.}.
1010: 7E 81 7F 81 80 81 81 81  82 81 83 81 84 81 85 81  ~...............
1020: 86 81 87 81 88 81 89 81  8A 81 8B 81 8C 81 8D 81  ................
1030: 8E 81 8F 81 90 81 91 81  92 81 93 81 94 81 95 81  ................
1040: 96 81 97 81 98 81 99 81  9A 81 9B 81 9C 81 9D 81  ................
1050: 9E 81 9F 81 A0 81 A1 81  A2 81 A3 81 A4 81 A5 81  ................
1060: A6 81 A7 81 A8 81 A9 81  AA 81 AB 81 AC 81 AD 81  ................
1070: AE 81 AF 81 B0 81 B1 81  B2 81 B3 81 B4 81 B5 81  ................
1080: B6 81 B7 81 B8 81 B9 81  BA 81 BB 81 BC 81 BD 81  ................
1090: BE 81 BF 81 C0 81 C1 81  C2 81 C3 81 C4 81 C5 81  ................
10A0: C6 81 C7 81 C8 81 C9 81  CA 81 CB 81 CC 81 CD 81  ................
10B0: CE 81 CF 81 D0 81 D1 81  D2 81 D3 81 D4 81 D5 81  ................
10C0: D6 81 D7 81 D8 81 D9 81  DA 81 DB 81 DC 81 DD 81  ................
10D0: DE 81 DF 81 E0 81 E1 81  E2 81 E3 81 E4 81 E5 81  ................
10E0: E6 81 E7 81 E8 81 E9 81  EA 81 EB 81 EC 81 ED 81  ................
10F0: EE 81 EF 81 F0 81 F1 81  F2 81 F3 81 F4 81 F5 81  ................
1100: F6 81 F7 81 F8 81 F9 81  FA 81 FB 81 FC 81 FD 81  ................
1110: FE 81 FF 81 00 82 01 82  02 82 03 82 04 82 05 82  ................
1120: 06 82 07 82 08 82 09 82  0A 82 0B 82 0C 82 0D 82  ................
1130: 0E 82 0F 82 10 82 11 82  12 82 13 82 14 82 15 82  ................
1140: 16 82 17 82 18 82 19 82  1A 82 1B 82 1C 82 1D 82  ................
1150: 1E 82 1F 82 20 82 21 82  22 82 23 82 24 82 25 82  .... .!.".#.$.%.
1160: 26 82 27 82 28 82 29 82  2A 82 2B 82 2C 82 2D 82  &.'.(.).*.+.,.-.
1170: 2E 82 2F 82 30 82 31 82  32 82 33 82 34 82 35 82  ../.0.1.2.3.4.5.
1180: 36 82 37 82 38 82 39 82  3A 82 3B 82 3C 82 3D 82  6.7.8.9.:.;.<.=.
1190: 3E 82 3F 82 40 82 41 82  42 82 43 82 44 82 45 82  >.?.@.A.B.C.D.E.
11A0: 46 82 47 82 48 82 49 82  4A 82 4B 82 4C 82 4D 82  F.G.H.I.J.K.L.M.
11B0: 4E 82 4F 82 50 82 51 82  52 82 53 82 54 82 55 82  N.O.P.Q.R.S.T.U.
11C0: 56 82 57 82 58 82 59 82  5A 82 5B 82 5C 82 5D 82  V.W.X.Y.Z.[.\.].
11D0: 5E 82 5F 82 60 82 61 82  62 82 63 82 64 82 65 82  ^._.`.a.b.c.d.e.
11E0: 66 82 67 82 68 82 69 82  6A 82 6B 82 6C 82 6D 82  f.g.h.i.j.k.l.m.
11F0: 6E 82 6F 82 70 82 71 82  72 82 73 82 74 82 75 82  n.o.p.q.r.s.t.u.
1200: 76 82 77 82 78 82 79 82  7A 82 7B 82 7C 82 7D 82  v.w.x.y.z.{.|.}.
1210: 7E 82 7F 82 80 82 81 82  82 82 83 82 84 82 85 82  ~...............
1220: 86 82 87 82 88 82 89 82  8A 82 8B 82 44 80 45 80  ............D.E.
1230: 46 80 47 80 48 80 49 80  4A 80 4B 80 4C 80 4D 80  F.G.H.I.J.K.L.M.
1240: 4E 80 4F 80 50 80 51 80  52 80 53 80 54 80 55 80  N.O.P.Q.R.S.T.U.
1250: 56 80 57 80 08 80 08 80  08 80 08 80 8C 82 8D 82  V.W.............
1260: 08 80 08 80 08 80 08 80  08 80 08 80 8E 82 8F 82  ................
1270: 08 80 08 80 08 80 08 80  08 80 08 80              ............    
```

#### Opcodes

```
  0: 0x01D3 [0x2E] SET_CLI_EVENT_CANCEL_FLAGS()
  1: 0x01D4 [0x03] ExtData[1]->WorkLocal[45] = Work_Zone[8]
  2: 0x01D9 [0x1E] EventEntity looks at LocalPlayer and starts talking
  3: 0x01DE [0x79] EventEntity looks at LocalPlayer (Basic look)
  4: 0x01E8 [0x02] IF !(Work_Zone[9] == 0*) GOTO 0x0216
  5: 0x01F0 [0x29] REQ_SET_WAIT(priority=0x80, entity_id=Unnamed NPC (ID: 17772779/0x010F30EB), tag_num=0x09)
  6: 0x01F7 [0x1C] WAIT(60* ticks)
  7: 0x01FA [0x03] ExtData[1]->WorkLocal[26] = Work_Zone[2]
  8: 0x01FF [0x03] ExtData[1]->WorkLocal[27] = Work_Zone[3]
  9: 0x0204 [0x03] ExtData[1]->WorkLocal[28] = Work_Zone[4]
 10: 0x0209 [0x03] ExtData[1]->WorkLocal[29] = Work_Zone[5]
 11: 0x020E [0x03] ExtData[1]->WorkLocal[30] = Work_Zone[7]
 12: 0x0213 [0x01] GOTO 0x02A4
 13: 0x0216 [0x02] IF !(Work_Zone[9] == 4294967295*) GOTO 0x022C
 14: 0x021E [0x1D] PRINT_EVENT_MESSAGE(message_id=14729*)
    → "Kupo-oh-oh. I'm afraid there aren't any trials for that item."
 15: 0x0221 [0x23] WAIT_FOR_DIALOG_INTERACTION
 16: 0x0222 [0x03] Work_Zone[1] = 4294967295*
 17: 0x0227 [0x21] END_EVENT
 18: 0x0228 [0x00] END_REQSTACK()

SUBROUTINE_028B:
 19: 0x028B [0x1D] PRINT_EVENT_MESSAGE(message_id=14727*)
    → "Wow! That's a full $3 if I've ever seen one, kupo. Sorry, but the rules say you can only undertake a maximum of ten trials at once."
 20: 0x028E [0x23] WAIT_FOR_DIALOG_INTERACTION
 21: 0x028F [0x03] Work_Zone[1] = 4294967295*
 22: 0x0294 [0x21] END_EVENT
 23: 0x0295 [0x00] END_REQSTACK()

SUBROUTINE_02A4:
 24: 0x02A4 [0x03] Work_Zone[2] = ExtData[1]->WorkLocal[30]
 25: 0x02A9 [0x1D] PRINT_EVENT_MESSAGE(message_id=14717*)
    → "A trial for $0? Well, let's just see here, kupo..."
 26: 0x02AC [0x23] WAIT_FOR_DIALOG_INTERACTION
 27: 0x02AD [0x06] ExtData[1]->WorkLocal[39] = 0
 28: 0x02B0 [0x02] IF !(ExtData[1]->WorkLocal[26] == 0*) GOTO 0x02BF
 29: 0x02B8 [0x3C] SET_BIT_FLAG_CONDITIONAL(target_work_offset=ExtData[1]->WorkLocal[39], bit_index_work_offset=0*, condition_work_offset=1*)
 30: 0x02BF [0x02] IF !(ExtData[1]->WorkLocal[27] == 0*) GOTO 0x02CE
 31: 0x02C7 [0x3C] SET_BIT_FLAG_CONDITIONAL(target_work_offset=ExtData[1]->WorkLocal[39], bit_index_work_offset=1*, condition_work_offset=1*)
 32: 0x02CE [0x02] IF !(ExtData[1]->WorkLocal[28] == 0*) GOTO 0x02DD
 33: 0x02D6 [0x3C] SET_BIT_FLAG_CONDITIONAL(target_work_offset=ExtData[1]->WorkLocal[39], bit_index_work_offset=2*, condition_work_offset=1*)
 34: 0x02DD [0x02] IF !(ExtData[1]->WorkLocal[29] == 0*) GOTO 0x02EC
 35: 0x02E5 [0x3C] SET_BIT_FLAG_CONDITIONAL(target_work_offset=ExtData[1]->WorkLocal[39], bit_index_work_offset=3*, condition_work_offset=1*)
 36: 0x02EC [0x0E] ExtData[1]->WorkLocal[39] |= 16777200*

SUBROUTINE_02F1:
 37: 0x02F1 [0x02] IF !(1* == 1*) GOTO 0x0390
 38: 0x02F9 [0x03] Work_Zone[2] = ExtData[1]->WorkLocal[26]
 39: 0x02FE [0x03] Work_Zone[3] = ExtData[1]->WorkLocal[27]
 40: 0x0303 [0x03] Work_Zone[4] = ExtData[1]->WorkLocal[28]
 41: 0x0308 [0x03] Work_Zone[5] = ExtData[1]->WorkLocal[29]
 42: 0x030D [0x03] Work_Zone_1700[31] = 1*
 43: 0x0312 [0x24] CREATE_DIALOG(message_id=14740*, default_option=0*, option_flags=ExtData[1]->WorkLocal[39])
    → "Choose a trial to '[review/undertake]. [Trial $0./Trial $1./Trial $2./Trial $3./Trial $4./Trial $5./Trial $6./Trial $7./Trial $8./Trial $9./Trial $10./Trial $11./Trial $12./Trial $13./Trial $14./Trial $15./Trial $16./Trial $17./Trial $18./Trial $19./Trial $20./Trial $21./Trial $22./Trial $23./'[Return/Cancel].]"
 44: 0x0319 [0x25] WAIT_DIALOG_SELECT()
 45: 0x031A [0x02] IF !(Work_Zone[0] == 0*) GOTO 0x032A
 46: 0x0322 [0x03] ExtData[1]->WorkLocal[34] = ExtData[1]->WorkLocal[26]
 47: 0x0327 [0x01] GOTO 0x0373
 48: 0x032A [0x02] IF !(Work_Zone[0] == 1*) GOTO 0x033A
 49: 0x0332 [0x03] ExtData[1]->WorkLocal[34] = ExtData[1]->WorkLocal[27]
 50: 0x0337 [0x01] GOTO 0x0373
 51: 0x033A [0x02] IF !(Work_Zone[0] == 2*) GOTO 0x034A
 52: 0x0342 [0x03] ExtData[1]->WorkLocal[34] = ExtData[1]->WorkLocal[28]
 53: 0x0347 [0x01] GOTO 0x0373
 54: 0x034A [0x02] IF !(Work_Zone[0] == 3*) GOTO 0x035A
 55: 0x0352 [0x03] ExtData[1]->WorkLocal[34] = ExtData[1]->WorkLocal[29]
 56: 0x0357 [0x01] GOTO 0x0373
 57: 0x035A [0x02] IF !(Work_Zone[0] == 16*) GOTO 0x036C
 58: 0x0362 [0x03] Work_Zone[1] = 4294967295*
 59: 0x0367 [0x21] END_EVENT
 60: 0x0368 [0x00] END_REQSTACK()

SUBROUTINE_0373:
 61: 0x0373 [0x1A] CALL_SUBROUTINE(address=0x0BDE)
 62: 0x0376 [0x02] IF !(ExtData[1]->WorkLocal[34] == 0*) GOTO 0x0383
 63: 0x037E [0x21] END_EVENT
 64: 0x037F [0x00] END_REQSTACK()

SUBROUTINE_038D:
 65: 0x038D [0x01] GOTO 0x02F1
 66: 0x0390 [0x21] END_EVENT
 67: 0x0391 [0x00] END_REQSTACK()

SUBROUTINE_06F8:
 68: 0x06F8 [0x03] ExtData[1]->WorkLocal[20] = ExtData[1]->WorkLocal[34]
 69: 0x06FD [0x1D] PRINT_EVENT_MESSAGE(message_id=14745*)
    → "I'm still new here, kupo. Bear with me a second, will you?"
 70: 0x0700 [0x03] Work_Zone[1] = 1*
 71: 0x0705 [0x40] SET_BIT_WORK_RANGE(start_bit=16*, end_bit=31*, target=Work_Zone[1], source=ExtData[1]->WorkLocal[20])
 72: 0x070E [0x43] SEND_EVENT_UPDATE: Send pending tag to server (packet 0x005B)
 73: 0x0710 [0x43] SEND_EVENT_UPDATE: Check pending flag (skip if not pending)
 74: 0x0712 [0x02] IF !(Work_Zone[9] >= 0*) GOTO 0x0724
 75: 0x071A [0x1D] PRINT_EVENT_MESSAGE(message_id=14702*)
    → "Kupo? I've never heard of that trial. Are my elders telling you secrets that they're not telling me, kupo?"
 76: 0x071D [0x23] WAIT_FOR_DIALOG_INTERACTION
 77: 0x071E [0x03] ExtData[1]->WorkLocal[42] = 4294967295*
 78: 0x0723 [0x1B] RETURN
 79: 0x0724 [0x03] ExtData[1]->WorkLocal[2] = Work_Zone[2]
 80: 0x0729 [0x03] ExtData[1]->WorkLocal[3] = Work_Zone[3]
 81: 0x072E [0x03] ExtData[1]->WorkLocal[4] = Work_Zone[4]
 82: 0x0733 [0x03] ExtData[1]->WorkLocal[1] = Work_Zone[5]
 83: 0x0738 [0x03] ExtData[1]->WorkLocal[9] = Work_Zone[8]
 84: 0x073D [0x07] ExtData[1]->WorkLocal[9] += 370*
 85: 0x0742 [0x03] ExtData[1]->WorkLocal[10] = Work_Zone[8]
 86: 0x0747 [0x07] ExtData[1]->WorkLocal[10] += 2418*
 87: 0x074C [0x03] ExtData[1]->WorkLocal[11] = Work_Zone[8]
 88: 0x0751 [0x07] ExtData[1]->WorkLocal[11] += 4466*
 89: 0x0756 [0x03] Work_Zone[1] = 2*
 90: 0x075B [0x40] SET_BIT_WORK_RANGE(start_bit=16*, end_bit=31*, target=Work_Zone[1], source=ExtData[1]->WorkLocal[20])
 91: 0x0764 [0x43] SEND_EVENT_UPDATE: Send pending tag to server (packet 0x005B)
 92: 0x0766 [0x43] SEND_EVENT_UPDATE: Check pending flag (skip if not pending)
 93: 0x0768 [0x02] IF !(Work_Zone[2] == 0*) GOTO 0x077A
 94: 0x0770 [0x1D] PRINT_EVENT_MESSAGE(message_id=14702*)
    → "Kupo? I've never heard of that trial. Are my elders telling you secrets that they're not telling me, kupo?"
 95: 0x0773 [0x23] WAIT_FOR_DIALOG_INTERACTION
 96: 0x0774 [0x03] ExtData[1]->WorkLocal[42] = 4294967295*
 97: 0x0779 [0x1B] RETURN
 98: 0x077A [0x03] ExtData[1]->WorkLocal[12] = Work_Zone[2]
 99: 0x077F [0x03] ExtData[1]->WorkLocal[13] = Work_Zone[3]
100: 0x0784 [0x03] ExtData[1]->WorkLocal[14] = Work_Zone[4]
101: 0x0789 [0x03] ExtData[1]->WorkLocal[15] = Work_Zone[5]
102: 0x078E [0x03] ExtData[1]->WorkLocal[16] = Work_Zone[6]
103: 0x0793 [0x03] ExtData[1]->WorkLocal[17] = Work_Zone[7]
104: 0x0798 [0x03] ExtData[1]->WorkLocal[18] = Work_Zone[8]
105: 0x079D [0x03] ExtData[1]->WorkLocal[19] = Work_Zone[9]
106: 0x07A2 [0x03] Work_Zone[1] = 3*
107: 0x07A7 [0x40] SET_BIT_WORK_RANGE(start_bit=16*, end_bit=31*, target=Work_Zone[1], source=ExtData[1]->WorkLocal[20])
108: 0x07B0 [0x43] SEND_EVENT_UPDATE: Send pending tag to server (packet 0x005B)
109: 0x07B2 [0x43] SEND_EVENT_UPDATE: Check pending flag (skip if not pending)
110: 0x07B4 [0x02] IF !(Work_Zone[9] >= 0*) GOTO 0x07C6
111: 0x07BC [0x1D] PRINT_EVENT_MESSAGE(message_id=14702*)
    → "Kupo? I've never heard of that trial. Are my elders telling you secrets that they're not telling me, kupo?"
112: 0x07BF [0x23] WAIT_FOR_DIALOG_INTERACTION
113: 0x07C0 [0x03] ExtData[1]->WorkLocal[42] = 4294967295*
114: 0x07C5 [0x1B] RETURN
115: 0x07C6 [0x03] ExtData[1]->WorkLocal[6] = Work_Zone[2]
116: 0x07CB [0x03] ExtData[1]->WorkLocal[7] = Work_Zone[3]
117: 0x07D0 [0x03] ExtData[1]->WorkLocal[8] = Work_Zone[4]
118: 0x07D5 [0x03] ExtData[1]->WorkLocal[5] = Work_Zone[5]
119: 0x07DA [0x03] Work_Zone[1] = 4*
120: 0x07DF [0x40] SET_BIT_WORK_RANGE(start_bit=16*, end_bit=31*, target=Work_Zone[1], source=ExtData[1]->WorkLocal[20])
121: 0x07E8 [0x43] SEND_EVENT_UPDATE: Send pending tag to server (packet 0x005B)
122: 0x07EA [0x43] SEND_EVENT_UPDATE: Check pending flag (skip if not pending)
123: 0x07EC [0x02] IF !(Work_Zone[9] >= 0*) GOTO 0x07FE
124: 0x07F4 [0x1D] PRINT_EVENT_MESSAGE(message_id=14702*)
    → "Kupo? I've never heard of that trial. Are my elders telling you secrets that they're not telling me, kupo?"
125: 0x07F7 [0x23] WAIT_FOR_DIALOG_INTERACTION
126: 0x07F8 [0x03] ExtData[1]->WorkLocal[42] = 4294967295*
127: 0x07FD [0x1B] RETURN
128: 0x07FE [0x03] ExtData[1]->WorkLocal[22] = Work_Zone[2]
129: 0x0803 [0x03] ExtData[1]->WorkLocal[23] = Work_Zone[3]
130: 0x0808 [0x03] ExtData[1]->WorkLocal[24] = Work_Zone[4]
131: 0x080D [0x03] ExtData[1]->WorkLocal[25] = Work_Zone[5]
132: 0x0812 [0x03] ExtData[1]->WorkLocal[21] = Work_Zone[6]
133: 0x0817 [0x03] Work_Zone[2] = ExtData[1]->WorkLocal[20]
134: 0x081C [0x1D] PRINT_EVENT_MESSAGE(message_id=14746*)
    → "Trial $0? Let's see here, kupo..."
135: 0x081F [0x23] WAIT_FOR_DIALOG_INTERACTION
136: 0x0820 [0x06] ExtData[1]->WorkLocal[32] = 0
137: 0x0823 [0x02] IF !(ExtData[1]->WorkLocal[21] == 0*) GOTO 0x0843
138: 0x082B [0x02] IF !(ExtData[1]->WorkLocal[22] == 0*) GOTO 0x083B
139: 0x0833 [0x03] ExtData[1]->WorkLocal[34] = 14744*
140: 0x0838 [0x01] GOTO 0x0840
141: 0x083B [0x03] ExtData[1]->WorkLocal[34] = 14742*

SUBROUTINE_0840:
142: 0x0840 [0x01] GOTO 0x0858
143: 0x0843 [0x02] IF !(ExtData[1]->WorkLocal[22] == 0*) GOTO 0x0853
144: 0x084B [0x03] ExtData[1]->WorkLocal[34] = 14743*
145: 0x0850 [0x01] GOTO 0x0858
146: 0x0853 [0x03] ExtData[1]->WorkLocal[34] = 14741*

SUBROUTINE_0858:
147: 0x0858 [0x02] IF !(ExtData[1]->WorkLocal[41] == 0*) GOTO 0x086A
148: 0x0860 [0x3D] CLEAR_BIT_FLAG_CONDITIONAL(target_work_offset=ExtData[1]->WorkLocal[32], bit_index_work_offset=0*, condition_work_offset=1*)
149: 0x0867 [0x01] GOTO 0x0871
150: 0x086A [0x3C] SET_BIT_FLAG_CONDITIONAL(target_work_offset=ExtData[1]->WorkLocal[32], bit_index_work_offset=0*, condition_work_offset=1*)

SUBROUTINE_0871:
151: 0x0871 [0x02] IF !(ExtData[1]->WorkLocal[23] == 0*) GOTO 0x0883
152: 0x0879 [0x3C] SET_BIT_FLAG_CONDITIONAL(target_work_offset=ExtData[1]->WorkLocal[32], bit_index_work_offset=7*, condition_work_offset=1*)
153: 0x0880 [0x01] GOTO 0x088A
154: 0x0883 [0x3D] CLEAR_BIT_FLAG_CONDITIONAL(target_work_offset=ExtData[1]->WorkLocal[32], bit_index_work_offset=7*, condition_work_offset=1*)

SUBROUTINE_088A:
155: 0x088A [0x02] IF !(ExtData[1]->WorkLocal[24] == 0*) GOTO 0x089C
156: 0x0892 [0x3C] SET_BIT_FLAG_CONDITIONAL(target_work_offset=ExtData[1]->WorkLocal[32], bit_index_work_offset=8*, condition_work_offset=1*)
157: 0x0899 [0x01] GOTO 0x08A3
158: 0x089C [0x3D] CLEAR_BIT_FLAG_CONDITIONAL(target_work_offset=ExtData[1]->WorkLocal[32], bit_index_work_offset=8*, condition_work_offset=1*)

SUBROUTINE_08A3:
159: 0x08A3 [0x02] IF !(ExtData[1]->WorkLocal[25] == 0*) GOTO 0x08B5
160: 0x08AB [0x3C] SET_BIT_FLAG_CONDITIONAL(target_work_offset=ExtData[1]->WorkLocal[32], bit_index_work_offset=9*, condition_work_offset=1*)
161: 0x08B2 [0x01] GOTO 0x08BC
162: 0x08B5 [0x3D] CLEAR_BIT_FLAG_CONDITIONAL(target_work_offset=ExtData[1]->WorkLocal[32], bit_index_work_offset=9*, condition_work_offset=1*)

SUBROUTINE_08BC:
163: 0x08BC [0x3E] IF !(ExtData[1]->WorkLocal[33] bit 0*) GOTO 0x08CD
164: 0x08C3 [0x3D] CLEAR_BIT_FLAG_CONDITIONAL(target_work_offset=ExtData[1]->WorkLocal[32], bit_index_work_offset=10*, condition_work_offset=1*)
165: 0x08CA [0x01] GOTO 0x08D4
166: 0x08CD [0x3C] SET_BIT_FLAG_CONDITIONAL(target_work_offset=ExtData[1]->WorkLocal[32], bit_index_work_offset=10*, condition_work_offset=1*)

SUBROUTINE_08D4:
167: 0x08D4 [0x02] IF !(1* == 1*) GOTO 0x0BDD
168: 0x08DC [0x03] Work_Zone[2] = ExtData[1]->WorkLocal[20]
169: 0x08E1 [0x03] Work_Zone[3] = ExtData[1]->WorkLocal[21]
170: 0x08E6 [0x03] Work_Zone[4] = ExtData[1]->WorkLocal[22]
171: 0x08EB [0x03] Work_Zone[5] = ExtData[1]->WorkLocal[23]
172: 0x08F0 [0x03] Work_Zone[6] = ExtData[1]->WorkLocal[24]
173: 0x08F5 [0x03] Work_Zone[7] = ExtData[1]->WorkLocal[25]
174: 0x08FA [0x03] Work_Zone[8] = ExtData[1]->WorkLocal[1]
175: 0x08FF [0x03] Work_Zone[9] = ExtData[1]->WorkLocal[5]
176: 0x0904 [0x24] CREATE_DIALOG(message_id=ExtData[1]->WorkLocal[34], default_option=0*, option_flags=ExtData[1]->WorkLocal[32])
177: 0x090B [0x25] WAIT_DIALOG_SELECT()
178: 0x090C [0x02] IF !(Work_Zone[0] == 0*) GOTO 0x099F
179: 0x0914 [0x02] IF !(ExtData[1]->WorkLocal[2] == 0*) GOTO 0x094C
180: 0x091C [0x02] IF !(ExtData[1]->WorkLocal[3] == 0*) GOTO 0x093F
181: 0x0924 [0x02] IF !(ExtData[1]->WorkLocal[4] == 0*) GOTO 0x0932
182: 0x092C [0x93] DISPLAY_ITEM_INFO(item_id=ExtData[1]->WorkLocal[1])
183: 0x092F [0x01] GOTO 0x093C
184: 0x0932 [0xCC] ITEM_INFO_WINDOW_HANDLER(case=0x01 - Open item info window (with chase), check_value=ExtData[1]->WorkLocal[1], buffer1=ExtData[1]->WorkLocal[2], buffer2=ExtData[1]->WorkLocal[3], buffer3=ExtData[1]->WorkLocal[4])

SUBROUTINE_093C:
185: 0x093C [0x01] GOTO 0x0949
186: 0x093F [0xCC] ITEM_INFO_WINDOW_HANDLER(case=0x01 - Open item info window (with chase), check_value=ExtData[1]->WorkLocal[1], buffer1=ExtData[1]->WorkLocal[2], buffer2=ExtData[1]->WorkLocal[3], buffer3=ExtData[1]->WorkLocal[4])

SUBROUTINE_0949:
187: 0x0949 [0x01] GOTO 0x0956
188: 0x094C [0xCC] ITEM_INFO_WINDOW_HANDLER(case=0x01 - Open item info window (with chase), check_value=ExtData[1]->WorkLocal[1], buffer1=ExtData[1]->WorkLocal[2], buffer2=ExtData[1]->WorkLocal[3], buffer3=ExtData[1]->WorkLocal[4])

SUBROUTINE_0956:
189: 0x0956 [0x1D] PRINT_EVENT_MESSAGE(message_id=14747*)
    → "You'll need to start off with this item:"
190: 0x0959 [0x23] WAIT_FOR_DIALOG_INTERACTION
191: 0x095A [0x02] IF !(ExtData[1]->WorkLocal[2] == 0*) GOTO 0x0992
192: 0x0962 [0x02] IF !(ExtData[1]->WorkLocal[3] == 0*) GOTO 0x0985
193: 0x096A [0x02] IF !(ExtData[1]->WorkLocal[4] == 0*) GOTO 0x0978
194: 0x0972 [0x93] DISPLAY_ITEM_INFO(item_id=0*)
195: 0x0975 [0x01] GOTO 0x0982
196: 0x0978 [0xCC] ITEM_INFO_WINDOW_HANDLER(case=0x01 - Open item info window (with chase), check_value=0*, buffer1=0*, buffer2=0*, buffer3=0*)

SUBROUTINE_0982:
197: 0x0982 [0x01] GOTO 0x098F
198: 0x0985 [0xCC] ITEM_INFO_WINDOW_HANDLER(case=0x01 - Open item info window (with chase), check_value=0*, buffer1=0*, buffer2=0*, buffer3=0*)

SUBROUTINE_098F:
199: 0x098F [0x01] GOTO 0x099C
200: 0x0992 [0xCC] ITEM_INFO_WINDOW_HANDLER(case=0x01 - Open item info window (with chase), check_value=0*, buffer1=0*, buffer2=0*, buffer3=0*)

SUBROUTINE_099C:
201: 0x099C [0x01] GOTO 0x0BDA
202: 0x099F [0x02] IF !(Work_Zone[0] == 1*) GOTO 0x09E9
203: 0x09A7 [0x03] Work_Zone[2] = ExtData[1]->WorkLocal[12]
204: 0x09AC [0x03] Work_Zone[3] = ExtData[1]->WorkLocal[13]
205: 0x09B1 [0x03] Work_Zone[4] = ExtData[1]->WorkLocal[14]
206: 0x09B6 [0x03] Work_Zone[5] = ExtData[1]->WorkLocal[15]
207: 0x09BB [0x03] Work_Zone[6] = ExtData[1]->WorkLocal[16]
208: 0x09C0 [0x03] Work_Zone[7] = ExtData[1]->WorkLocal[17]
209: 0x09C5 [0x03] Work_Zone[8] = ExtData[1]->WorkLocal[18]
210: 0x09CA [0x03] Work_Zone[9] = ExtData[1]->WorkLocal[19]
211: 0x09CF [0x48] [System] [ExtData[1]->WorkLocal[9]]:
    → "Global balance of power: 1st: San d'Oria and Windurst (tie) 3rd: Bastok"
212: 0x09D2 [0x23] WAIT_FOR_DIALOG_INTERACTION
213: 0x09D3 [0x02] IF !(ExtData[1]->WorkLocal[41] == 0*) GOTO 0x09E2
214: 0x09DB [0x48] [System] [ExtData[1]->WorkLocal[10]]:
    → "Global balance of power: 1st: San d'Oria 2nd: Bastok and Windurst (tie)"
215: 0x09DE [0x23] WAIT_FOR_DIALOG_INTERACTION
216: 0x09DF [0x01] GOTO 0x09E6
217: 0x09E2 [0x48] [System] [ExtData[1]->WorkLocal[11]]:
    → "Global balance of power: 1st: San d'Oria 2nd: Bastok 3rd: Windurst"
218: 0x09E5 [0x23] WAIT_FOR_DIALOG_INTERACTION

SUBROUTINE_09E6:
219: 0x09E6 [0x01] GOTO 0x0BDA
220: 0x09E9 [0x02] IF !(Work_Zone[0] == 2*) GOTO 0x0A7C
221: 0x09F1 [0x02] IF !(ExtData[1]->WorkLocal[6] == 0*) GOTO 0x0A29
222: 0x09F9 [0x02] IF !(ExtData[1]->WorkLocal[7] == 0*) GOTO 0x0A1C
223: 0x0A01 [0x02] IF !(ExtData[1]->WorkLocal[8] == 0*) GOTO 0x0A0F
224: 0x0A09 [0x93] DISPLAY_ITEM_INFO(item_id=ExtData[1]->WorkLocal[5])
225: 0x0A0C [0x01] GOTO 0x0A19
226: 0x0A0F [0xCC] ITEM_INFO_WINDOW_HANDLER(case=0x01 - Open item info window (with chase), check_value=ExtData[1]->WorkLocal[5], buffer1=ExtData[1]->WorkLocal[6], buffer2=ExtData[1]->WorkLocal[7], buffer3=ExtData[1]->WorkLocal[8])

SUBROUTINE_0A19:
227: 0x0A19 [0x01] GOTO 0x0A26
228: 0x0A1C [0xCC] ITEM_INFO_WINDOW_HANDLER(case=0x01 - Open item info window (with chase), check_value=ExtData[1]->WorkLocal[5], buffer1=ExtData[1]->WorkLocal[6], buffer2=ExtData[1]->WorkLocal[7], buffer3=ExtData[1]->WorkLocal[8])

SUBROUTINE_0A26:
229: 0x0A26 [0x01] GOTO 0x0A33
230: 0x0A29 [0xCC] ITEM_INFO_WINDOW_HANDLER(case=0x01 - Open item info window (with chase), check_value=ExtData[1]->WorkLocal[5], buffer1=ExtData[1]->WorkLocal[6], buffer2=ExtData[1]->WorkLocal[7], buffer3=ExtData[1]->WorkLocal[8])

SUBROUTINE_0A33:
231: 0x0A33 [0x1D] PRINT_EVENT_MESSAGE(message_id=14748*)
    → "And you'll get this one as a reward:"
232: 0x0A36 [0x23] WAIT_FOR_DIALOG_INTERACTION
233: 0x0A37 [0x02] IF !(ExtData[1]->WorkLocal[6] == 0*) GOTO 0x0A6F
234: 0x0A3F [0x02] IF !(ExtData[1]->WorkLocal[7] == 0*) GOTO 0x0A62
235: 0x0A47 [0x02] IF !(ExtData[1]->WorkLocal[8] == 0*) GOTO 0x0A55
236: 0x0A4F [0x93] DISPLAY_ITEM_INFO(item_id=0*)
237: 0x0A52 [0x01] GOTO 0x0A5F
238: 0x0A55 [0xCC] ITEM_INFO_WINDOW_HANDLER(case=0x01 - Open item info window (with chase), check_value=0*, buffer1=0*, buffer2=0*, buffer3=0*)

SUBROUTINE_0A5F:
239: 0x0A5F [0x01] GOTO 0x0A6C
240: 0x0A62 [0xCC] ITEM_INFO_WINDOW_HANDLER(case=0x01 - Open item info window (with chase), check_value=0*, buffer1=0*, buffer2=0*, buffer3=0*)

SUBROUTINE_0A6C:
241: 0x0A6C [0x01] GOTO 0x0A79
242: 0x0A6F [0xCC] ITEM_INFO_WINDOW_HANDLER(case=0x01 - Open item info window (with chase), check_value=0*, buffer1=0*, buffer2=0*, buffer3=0*)

SUBROUTINE_0A79:
243: 0x0A79 [0x01] GOTO 0x0BDA
244: 0x0A7C [0x02] IF !(Work_Zone[0] == 3*) GOTO 0x0A87
245: 0x0A84 [0x01] GOTO 0x0BDA
246: 0x0A87 [0x02] IF !(Work_Zone[0] == 4*) GOTO 0x0AC0
247: 0x0A8F [0x02] IF !(ExtData[1]->WorkLocal[21] == 0*) GOTO 0x0ABD
248: 0x0A97 [0x03] ExtData[1]->WorkLocal[34] = ExtData[1]->WorkLocal[21]
249: 0x0A9C [0x02] IF !(ExtData[1]->WorkLocal[34] == ExtData[1]->WorkLocal[0]) GOTO 0x0AAE
250: 0x0AA4 [0x3C] SET_BIT_FLAG_CONDITIONAL(target_work_offset=ExtData[1]->WorkLocal[33], bit_index_work_offset=0*, condition_work_offset=1*)
251: 0x0AAB [0x01] GOTO 0x0AB5
252: 0x0AAE [0x3D] CLEAR_BIT_FLAG_CONDITIONAL(target_work_offset=ExtData[1]->WorkLocal[33], bit_index_work_offset=0*, condition_work_offset=1*)

SUBROUTINE_0AB5:
253: 0x0AB5 [0x03] ExtData[1]->WorkLocal[41] = 0*
254: 0x0ABA [0x01] GOTO 0x06F8
255: 0x0ABD [0x01] GOTO 0x0BDA
256: 0x0AC0 [0x02] IF !(Work_Zone[0] == 5*) GOTO 0x0ACB
257: 0x0AC8 [0x01] GOTO 0x0BDA
258: 0x0ACB [0x02] IF !(Work_Zone[0] == 6*) GOTO 0x0B04
259: 0x0AD3 [0x02] IF !(ExtData[1]->WorkLocal[22] == 0*) GOTO 0x0B01
260: 0x0ADB [0x03] ExtData[1]->WorkLocal[34] = ExtData[1]->WorkLocal[22]
261: 0x0AE0 [0x02] IF !(ExtData[1]->WorkLocal[34] == ExtData[1]->WorkLocal[0]) GOTO 0x0AF2
262: 0x0AE8 [0x3C] SET_BIT_FLAG_CONDITIONAL(target_work_offset=ExtData[1]->WorkLocal[33], bit_index_work_offset=0*, condition_work_offset=1*)
263: 0x0AEF [0x01] GOTO 0x0AF9
264: 0x0AF2 [0x3D] CLEAR_BIT_FLAG_CONDITIONAL(target_work_offset=ExtData[1]->WorkLocal[33], bit_index_work_offset=0*, condition_work_offset=1*)

SUBROUTINE_0AF9:
265: 0x0AF9 [0x03] ExtData[1]->WorkLocal[41] = 0*
266: 0x0AFE [0x01] GOTO 0x06F8
267: 0x0B01 [0x01] GOTO 0x0BDA
268: 0x0B04 [0x02] IF !(Work_Zone[0] == 7*) GOTO 0x0B3D
269: 0x0B0C [0x02] IF !(ExtData[1]->WorkLocal[23] == 0*) GOTO 0x0B3A
270: 0x0B14 [0x03] ExtData[1]->WorkLocal[34] = ExtData[1]->WorkLocal[23]
271: 0x0B19 [0x02] IF !(ExtData[1]->WorkLocal[34] == ExtData[1]->WorkLocal[0]) GOTO 0x0B2B
272: 0x0B21 [0x3C] SET_BIT_FLAG_CONDITIONAL(target_work_offset=ExtData[1]->WorkLocal[33], bit_index_work_offset=0*, condition_work_offset=1*)
273: 0x0B28 [0x01] GOTO 0x0B32
274: 0x0B2B [0x3D] CLEAR_BIT_FLAG_CONDITIONAL(target_work_offset=ExtData[1]->WorkLocal[33], bit_index_work_offset=0*, condition_work_offset=1*)

SUBROUTINE_0B32:
275: 0x0B32 [0x03] ExtData[1]->WorkLocal[41] = 0*
276: 0x0B37 [0x01] GOTO 0x06F8
277: 0x0B3A [0x01] GOTO 0x0BDA
278: 0x0B3D [0x02] IF !(Work_Zone[0] == 8*) GOTO 0x0B76
279: 0x0B45 [0x02] IF !(ExtData[1]->WorkLocal[24] == 0*) GOTO 0x0B73
280: 0x0B4D [0x03] ExtData[1]->WorkLocal[34] = ExtData[1]->WorkLocal[24]
281: 0x0B52 [0x02] IF !(ExtData[1]->WorkLocal[34] == ExtData[1]->WorkLocal[0]) GOTO 0x0B64
282: 0x0B5A [0x3C] SET_BIT_FLAG_CONDITIONAL(target_work_offset=ExtData[1]->WorkLocal[33], bit_index_work_offset=0*, condition_work_offset=1*)
283: 0x0B61 [0x01] GOTO 0x0B6B
284: 0x0B64 [0x3D] CLEAR_BIT_FLAG_CONDITIONAL(target_work_offset=ExtData[1]->WorkLocal[33], bit_index_work_offset=0*, condition_work_offset=1*)

SUBROUTINE_0B6B:
285: 0x0B6B [0x03] ExtData[1]->WorkLocal[41] = 0*
286: 0x0B70 [0x01] GOTO 0x06F8
287: 0x0B73 [0x01] GOTO 0x0BDA
288: 0x0B76 [0x02] IF !(Work_Zone[0] == 9*) GOTO 0x0BAF
289: 0x0B7E [0x02] IF !(ExtData[1]->WorkLocal[25] == 0*) GOTO 0x0BAC
290: 0x0B86 [0x03] ExtData[1]->WorkLocal[34] = ExtData[1]->WorkLocal[25]
291: 0x0B8B [0x02] IF !(ExtData[1]->WorkLocal[34] == ExtData[1]->WorkLocal[0]) GOTO 0x0B9D
292: 0x0B93 [0x3C] SET_BIT_FLAG_CONDITIONAL(target_work_offset=ExtData[1]->WorkLocal[33], bit_index_work_offset=0*, condition_work_offset=1*)
293: 0x0B9A [0x01] GOTO 0x0BA4
294: 0x0B9D [0x3D] CLEAR_BIT_FLAG_CONDITIONAL(target_work_offset=ExtData[1]->WorkLocal[33], bit_index_work_offset=0*, condition_work_offset=1*)

SUBROUTINE_0BA4:
295: 0x0BA4 [0x03] ExtData[1]->WorkLocal[41] = 0*
296: 0x0BA9 [0x01] GOTO 0x06F8
297: 0x0BAC [0x01] GOTO 0x0BDA
298: 0x0BAF [0x02] IF !(Work_Zone[0] == 10*) GOTO 0x0BCE
299: 0x0BB7 [0x03] ExtData[1]->WorkLocal[34] = ExtData[1]->WorkLocal[0]
300: 0x0BBC [0x3D] CLEAR_BIT_FLAG_CONDITIONAL(target_work_offset=ExtData[1]->WorkLocal[33], bit_index_work_offset=0*, condition_work_offset=1*)
301: 0x0BC3 [0x03] ExtData[1]->WorkLocal[41] = ExtData[1]->WorkLocal[40]
302: 0x0BC8 [0x01] GOTO 0x06F8

SUBROUTINE_0BDA:
303: 0x0BDA [0x01] GOTO 0x08D4
304: 0x0BDD [0x1B] RETURN

SUBROUTINE_0BDE:
305: 0x0BDE [0x03] ExtData[1]->WorkLocal[40] = 0*
306: 0x0BE3 [0x1A] CALL_SUBROUTINE(address=0x06E8)
307: 0x0BE6 [0x02] IF !(ExtData[1]->WorkLocal[42] == 0*) GOTO 0x0BF7
308: 0x0BEE [0x03] ExtData[1]->WorkLocal[34] = 4294967295*
309: 0x0BF3 [0x1B] RETURN

SUBROUTINE_0BF7:
310: 0x0BF7 [0x03] Work_Zone[1] = 13*
311: 0x0BFC [0x40] SET_BIT_WORK_RANGE(start_bit=8*, end_bit=31*, target=Work_Zone[1], source=ExtData[1]->WorkLocal[0])
312: 0x0C05 [0x43] SEND_EVENT_UPDATE: Send pending tag to server (packet 0x005B)
313: 0x0C07 [0x43] SEND_EVENT_UPDATE: Check pending flag (skip if not pending)
314: 0x0C09 [0x02] IF !(Work_Zone[9] == 0*) GOTO 0x0C22
315: 0x0C11 [0x02] IF !(Work_Zone[2] == 0*) GOTO 0x0C1C
316: 0x0C19 [0x01] GOTO 0x0C1F
317: 0x0C1C [0x48] [System] [14549*]:
    → "Warning: Completing this trial will result in an increase in the level requirement for the target item."

SUBROUTINE_0C1F:
318: 0x0C1F [0x01] GOTO 0x0C22

SUBROUTINE_0C22:
