# 17772742 - Naji

## Common Data

| Field            | Value                     |
|------------------|---------------------------|
| Zone             | Ru'Lude Gardens (ID: 243) |
| Block Size       | 324 bytes                 |
| Total Events     | 10                        |
| References Count | 23                        |

## List of Events

| Event ID                 | Entrypoint   |   Size |   Instructions |
|--------------------------|--------------|--------|----------------|
| [65535](#event-65535)    | 0x0000       |      1 |              1 |
| [10097](#event-10097)    | 0x0001       |      7 |              2 |
| [65535.1](#event-655351) | 0x0008       |     22 |              6 |
| [65535.2](#event-655352) | 0x001E       |     22 |              6 |
| [65535.3](#event-655353) | 0x0034       |     27 |              7 |
| [65535.4](#event-655354) | 0x004F       |     14 |              4 |
| [10098](#event-10098)    | 0x005D       |      1 |              1 |
| [65535.5](#event-655355) | 0x005E       |     40 |              8 |
| [65535.6](#event-655356) | 0x0086       |     25 |              7 |
| [65535.7](#event-655357) | 0x009F       |     15 |              5 |

## DAT References (imed_data)

|   Index | Hex Value   |   Dec Value |
|---------|-------------|-------------|
|       0 | 0x0028      |          40 |
|       1 | 0x0000      |           0 |
|       2 | 0x752F      |       29999 |
|       3 | 0x07D0      |        2000 |
|       4 | 0x001E      |          30 |
|       5 | 0x000D      |          13 |
|       6 | 0x02A0      |         672 |
|       7 | 0x9445      |       37957 |
|       8 | 0x05DD      |        1501 |
|       9 | 0x930F      |       37647 |
|      10 | 0x1218      |        4632 |
|      11 | 0xA159      |       41305 |
|      12 | 0x07CF      |        1999 |
|      13 | 0x70D5      |       28885 |
|      14 | 0xF942      |       63810 |
|      15 | 0x07C7      |        1991 |
|      16 | 0x87D6      |       34774 |
|      17 | 0xFBDD      |       64477 |
|      18 | 0x0719      |        1817 |
|      19 | 0x1B498     |      111768 |
|      20 | 0x0C1D      |        3101 |
|      21 | 0xFFFFFB56  |  4294966102 |
|      22 | 0x1593E     |       88382 |

## Events

### Event 65535

#### Metadata

| Field        | Value   |
|--------------|---------|
| Entrypoint   | 0x0000  |
| Data Size    | 1 bytes |
| Instructions | 1       |

```
      00 01 02 03 04 05 06 07  08 09 0A 0B 0C 0D 0E 0F
      -- -- -- -- -- -- -- --  -- -- -- -- -- -- -- --
0000: 00                                                .               
```

#### Opcodes

```
  0: 0x0000 [0x00] END_REQSTACK()
```

### Event 10097

#### Metadata

| Field        | Value   |
|--------------|---------|
| Entrypoint   | 0x0001  |
| Data Size    | 7 bytes |
| Instructions | 2       |

```
      00 01 02 03 04 05 06 07  08 09 0A 0B 0C 0D 0E 0F
      -- -- -- -- -- -- -- --  -- -- -- -- -- -- -- --
0000:    92 01 F8 FF FF 7F 00                            .......        
```

#### Opcodes

```
  0: 0x0001 [0x92] EventEntity->Render.Flags3 ^= 0x01
  1: 0x0007 [0x00] END_REQSTACK()
```

### Event 65535.1

#### Metadata

| Field        | Value    |
|--------------|----------|
| Entrypoint   | 0x0008   |
| Data Size    | 22 bytes |
| Instructions | 6        |

```
      00 01 02 03 04 05 06 07  08 09 0A 0B 0C 0D 0E 0F
      -- -- -- -- -- -- -- --  -- -- -- -- -- -- -- --
0000:                          32 00 80 1F 00 01 80 02          2.......
0010: 80 03 80 1F 01 1E F0 FF  FF 7F 1C 04 80 00        ..............  
```

#### Opcodes

```
  0: 0x0008 [0x32] ExtData[1]->MainSpeed = 40* * 0.1
  1: 0x000B [0x1F] MOVE_ENTITY: EventEntity moves to X=0.000*, Z=29.999*, Y=2.000*
  2: 0x0013 [0x1F] MOVE_ENTITY: Update entity position (mode=1)
  3: 0x0015 [0x1E] EventEntity looks at LocalPlayer and starts talking
  4: 0x001A [0x1C] WAIT(30* ticks)
  5: 0x001D [0x00] END_REQSTACK()
```

### Event 65535.2

#### Metadata

| Field        | Value    |
|--------------|----------|
| Entrypoint   | 0x001E   |
| Data Size    | 22 bytes |
| Instructions | 6        |

```
      00 01 02 03 04 05 06 07  08 09 0A 0B 0C 0D 0E 0F
      -- -- -- -- -- -- -- --  -- -- -- -- -- -- -- --
0010:                                            32 05                2.
0020: 80 1F 00 06 80 07 80 03  80 1F 01 1E F0 FF FF 7F  ................
0030: 1C 04 80 00                                       ....            
```

#### Opcodes

```
  0: 0x001E [0x32] ExtData[1]->MainSpeed = 13* * 0.1
  1: 0x0021 [0x1F] MOVE_ENTITY: EventEntity moves to X=0.672*, Z=37.957*, Y=2.000*
  2: 0x0029 [0x1F] MOVE_ENTITY: Update entity position (mode=1)
  3: 0x002B [0x1E] EventEntity looks at LocalPlayer and starts talking
  4: 0x0030 [0x1C] WAIT(30* ticks)
  5: 0x0033 [0x00] END_REQSTACK()
```

### Event 65535.3

#### Metadata

| Field        | Value    |
|--------------|----------|
| Entrypoint   | 0x0034   |
| Data Size    | 27 bytes |
| Instructions | 7        |

```
      00 01 02 03 04 05 06 07  08 09 0A 0B 0C 0D 0E 0F
      -- -- -- -- -- -- -- --  -- -- -- -- -- -- -- --
0030:             32 05 80 1F  00 08 80 09 80 03 80 1F      2...........
0040: 01 1F 00 0A 80 0B 80 0C  80 1F 01 1C 04 80 00     ............... 
```

#### Opcodes

```
  0: 0x0034 [0x32] ExtData[1]->MainSpeed = 13* * 0.1
  1: 0x0037 [0x1F] MOVE_ENTITY: EventEntity moves to X=1.501*, Z=37.647*, Y=2.000*
  2: 0x003F [0x1F] MOVE_ENTITY: Update entity position (mode=1)
  3: 0x0041 [0x1F] MOVE_ENTITY: EventEntity moves to X=4.632*, Z=41.305*, Y=1.999*
  4: 0x0049 [0x1F] MOVE_ENTITY: Update entity position (mode=1)
  5: 0x004B [0x1C] WAIT(30* ticks)
  6: 0x004E [0x00] END_REQSTACK()
```

### Event 65535.4

#### Metadata

| Field        | Value    |
|--------------|----------|
| Entrypoint   | 0x004F   |
| Data Size    | 14 bytes |
| Instructions | 4        |

```
      00 01 02 03 04 05 06 07  08 09 0A 0B 0C 0D 0E 0F
      -- -- -- -- -- -- -- --  -- -- -- -- -- -- -- --
0040:                                               32                 2
0050: 05 80 1F 00 0D 80 0E 80  0F 80 1F 01 00           .............   
```

#### Opcodes

```
  0: 0x004F [0x32] ExtData[1]->MainSpeed = 13* * 0.1
  1: 0x0052 [0x1F] MOVE_ENTITY: EventEntity moves to X=28.885*, Z=63.810*, Y=1.991*
  2: 0x005A [0x1F] MOVE_ENTITY: Update entity position (mode=1)
  3: 0x005C [0x00] END_REQSTACK()
```

### Event 10098

#### Metadata

| Field        | Value   |
|--------------|---------|
| Entrypoint   | 0x005D  |
| Data Size    | 1 bytes |
| Instructions | 1       |

```
      00 01 02 03 04 05 06 07  08 09 0A 0B 0C 0D 0E 0F
      -- -- -- -- -- -- -- --  -- -- -- -- -- -- -- --
0050:                                         00                     .  
```

#### Opcodes

```
  0: 0x005D [0x00] END_REQSTACK()
```

### Event 65535.5

#### Metadata

| Field        | Value    |
|--------------|----------|
| Entrypoint   | 0x005E   |
| Data Size    | 40 bytes |
| Instructions | 8        |

```
      00 01 02 03 04 05 06 07  08 09 0A 0B 0C 0D 0E 0F
      -- -- -- -- -- -- -- --  -- -- -- -- -- -- -- --
0050:                                            32 00                2.
0060: 80 1F 00 10 80 11 80 0F  80 1F 01 1E C0 30 0F 01  .............0..
0070: 4A C5 30 0F 01 C6 30 0F  01 4A 07 30 0F 01 C6 30  J.0...0..J.0...0
0080: 0F 01 1C 04 80 00                                 ......          
```

#### Opcodes

```
  0: 0x005E [0x32] ExtData[1]->MainSpeed = 40* * 0.1
  1: 0x0061 [0x1F] MOVE_ENTITY: EventEntity moves to X=34.774*, Z=64.477*, Y=1.991*
  2: 0x0069 [0x1F] MOVE_ENTITY: Update entity position (mode=1)
  3: 0x006B [0x1E] EventEntity looks at Shantotto (ID: 17772736/0x010F30C0) and starts talking
  4: 0x0070 [0x4A] Trion (ID: 17772741/0x010F30C5) looks at Naji (ID: 17772742/0x010F30C6)
  5: 0x0079 [0x4A] Wolfgang (ID: 17772551/0x010F3007) looks at Naji (ID: 17772742/0x010F30C6)
  6: 0x0082 [0x1C] WAIT(30* ticks)
  7: 0x0085 [0x00] END_REQSTACK()
```

### Event 65535.6

#### Metadata

| Field        | Value    |
|--------------|----------|
| Entrypoint   | 0x0086   |
| Data Size    | 25 bytes |
| Instructions | 7        |

```
      00 01 02 03 04 05 06 07  08 09 0A 0B 0C 0D 0E 0F
      -- -- -- -- -- -- -- --  -- -- -- -- -- -- -- --
0080:                   1E D2  30 0F 01 32 00 80 1F 00        ..0..2....
0090: 12 80 13 80 14 80 1F 01  6F 1E D2 30 0F 01 00     ........o..0... 
```

#### Opcodes

```
  0: 0x0086 [0x1E] EventEntity looks at King of Hearts (ID: 17772754/0x010F30D2) and starts talking
  1: 0x008B [0x32] ExtData[1]->MainSpeed = 40* * 0.1
  2: 0x008E [0x1F] MOVE_ENTITY: EventEntity moves to X=1.817*, Z=111.768*, Y=3.101*
  3: 0x0096 [0x1F] MOVE_ENTITY: Update entity position (mode=1)
  4: 0x0098 [0x6F] WAIT_FRAME_DELAY: Yield until WaitTime reaches zero
  5: 0x0099 [0x1E] EventEntity looks at King of Hearts (ID: 17772754/0x010F30D2) and starts talking
  6: 0x009E [0x00] END_REQSTACK()
```

### Event 65535.7

#### Metadata

| Field        | Value    |
|--------------|----------|
| Entrypoint   | 0x009F   |
| Data Size    | 15 bytes |
| Instructions | 5        |

```
      00 01 02 03 04 05 06 07  08 09 0A 0B 0C 0D 0E 0F
      -- -- -- -- -- -- -- --  -- -- -- -- -- -- -- --
0090:                                               32                 2
00A0: 00 80 1F 00 15 80 16 80  03 80 1F 01 6F 00        ............o.  
```

#### Opcodes

```
  0: 0x009F [0x32] ExtData[1]->MainSpeed = 40* * 0.1
  1: 0x00A2 [0x1F] MOVE_ENTITY: EventEntity moves to X=-1.194*, Z=88.382*, Y=2.000*
  2: 0x00AA [0x1F] MOVE_ENTITY: Update entity position (mode=1)
  3: 0x00AC [0x6F] WAIT_FRAME_DELAY: Yield until WaitTime reaches zero
  4: 0x00AD [0x00] END_REQSTACK()
```
