# 17772706 - Ulrich

## Common Data

| Field            | Value                     |
|------------------|---------------------------|
| Zone             | Ru'Lude Gardens (ID: 243) |
| Block Size       | 152 bytes                 |
| Total Events     | 4                         |
| References Count | 14                        |

## List of Events

| Event ID                 | Entrypoint   |   Size |   Instructions |
|--------------------------|--------------|--------|----------------|
| [65535](#event-65535)    | 0x0000       |      1 |              1 |
| [10008](#event-10008)    | 0x0001       |     18 |              4 |
| [65535.1](#event-655351) | 0x0013       |     27 |              7 |
| [65535.2](#event-655352) | 0x002E       |     18 |              6 |

## DAT References (imed_data)

|   Index | Hex Value   |   Dec Value |
|---------|-------------|-------------|
|       0 | 0x0000      |           0 |
|       1 | 0x0001      |           1 |
|       2 | 0x0028      |          40 |
|       3 | 0x53421     |      341025 |
|       4 | 0xFFFAD454  |  4294628436 |
|       5 | 0xFFFFFEE0  |  4294967008 |
|       6 | 0x52FBD     |      339901 |
|       7 | 0xFFFAA547  |  4294616391 |
|       8 | 0xFFFFFA24  |  4294965796 |
|       9 | 0x03E5      |         997 |
|      10 | 0x0014      |          20 |
|      11 | 0x53678     |      341624 |
|      12 | 0xFFFADDAA  |  4294630826 |
|      13 | 0x006E      |         110 |

## Events

### Event 65535

#### Metadata

| Field        | Value   |
|--------------|---------|
| Entrypoint   | 0x0000  |
| Data Size    | 1 bytes |
| Instructions | 1       |

```
      00 01 02 03 04 05 06 07  08 09 0A 0B 0C 0D 0E 0F
      -- -- -- -- -- -- -- --  -- -- -- -- -- -- -- --
0000: 00                                                .               
```

#### Opcodes

```
  0: 0x0000 [0x00] END_REQSTACK()
```

### Event 10008

#### Metadata

| Field        | Value    |
|--------------|----------|
| Entrypoint   | 0x0001   |
| Data Size    | 18 bytes |
| Instructions | 4        |

```
      00 01 02 03 04 05 06 07  08 09 0A 0B 0C 0D 0E 0F
      -- -- -- -- -- -- -- --  -- -- -- -- -- -- -- --
0000:    22 00 2F 00 F8 FF FF  7F 6C F8 FF FF 7F 00 80   "./.....l......
0010: 01 80 00                                          ...             
```

#### Opcodes

```
  0: 0x0001 [0x22] ENTITY_HIDE_FLAG(enabled=0x00)
  1: 0x0003 [0x2F] EventEntity->Render.Flags0 &= ~0x80000 // Bit 19
  2: 0x0009 [0x6C] FADE_ENTITY_COLOR(entity_id=EventEntity, end_alpha=0*, fade_time=1*)
  3: 0x0012 [0x00] END_REQSTACK()
```

### Event 65535.1

#### Metadata

| Field        | Value    |
|--------------|----------|
| Entrypoint   | 0x0013   |
| Data Size    | 27 bytes |
| Instructions | 7        |

```
      00 01 02 03 04 05 06 07  08 09 0A 0B 0C 0D 0E 0F
      -- -- -- -- -- -- -- --  -- -- -- -- -- -- -- --
0010:          32 02 80 1F 00  03 80 04 80 05 80 1F 01     2............
0020: 6F 1C 01 80 37 06 80 07  80 08 80 09 80 00        o...7.........  
```

#### Opcodes

```
  0: 0x0013 [0x32] ExtData[1]->MainSpeed = 40* * 0.1
  1: 0x0016 [0x1F] MOVE_ENTITY: EventEntity moves to X=341.025*, Z=-338.860*, Y=-0.288*
  2: 0x001E [0x1F] MOVE_ENTITY: Update entity position (mode=1)
  3: 0x0020 [0x6F] WAIT_FRAME_DELAY: Yield until WaitTime reaches zero
  4: 0x0021 [0x1C] WAIT(1* ticks)
  5: 0x0024 [0x37] UPDATE_EVENT_POSITION_AND_DIR: x=339.901*, z=-350.905*, y=-1.500*, direction=87.6°*
  6: 0x002D [0x00] END_REQSTACK()
```

### Event 65535.2

#### Metadata

| Field        | Value    |
|--------------|----------|
| Entrypoint   | 0x002E   |
| Data Size    | 18 bytes |
| Instructions | 6        |

```
      00 01 02 03 04 05 06 07  08 09 0A 0B 0C 0D 0E 0F
      -- -- -- -- -- -- -- --  -- -- -- -- -- -- -- --
0020:                                            1C 0A                ..
0030: 80 32 02 80 1F 00 0B 80  0C 80 0D 80 1F 01 6F 00  .2............o.
```

#### Opcodes

```
  0: 0x002E [0x1C] WAIT(20* ticks)
  1: 0x0031 [0x32] ExtData[1]->MainSpeed = 40* * 0.1
  2: 0x0034 [0x1F] MOVE_ENTITY: EventEntity moves to X=341.624*, Z=-336.470*, Y=0.110*
  3: 0x003C [0x1F] MOVE_ENTITY: Update entity position (mode=1)
  4: 0x003E [0x6F] WAIT_FRAME_DELAY: Yield until WaitTime reaches zero
  5: 0x003F [0x00] END_REQSTACK()
```
