# 17772547 - Goggehn

## Common Data

| Field            | Value                     |
|------------------|---------------------------|
| Zone             | Ru'Lude Gardens (ID: 243) |
| Block Size       | 880 bytes                 |
| Total Events     | 24                        |
| References Count | 33                        |

## List of Events

| Event ID                 | Entrypoint   |   Size |   Instructions |
|--------------------------|--------------|--------|----------------|
| [65535](#event-65535)    | 0x0000       |      4 |              2 |
| [41](#event-41)          | 0x0004       |      1 |              1 |
| [66](#event-66)          | 0x0005       |     41 |             11 |
| [139](#event-139)        | 0x002E       |     37 |              9 |
| [4](#event-4)            | 0x0053       |     37 |              9 |
| [3](#event-3)            | 0x0078       |     37 |              9 |
| [0](#event-0)            | 0x009D       |     37 |              9 |
| [129](#event-129)        | 0x00C2       |      1 |              1 |
| [132](#event-132)        | 0x00C3       |     37 |              9 |
| [135](#event-135)        | 0x00E8       |     41 |             11 |
| [35](#event-35)          | 0x0111       |    110 |             21 |
| [55](#event-55)          | 0x017F       |     37 |              9 |
| [105](#event-105)        | 0x01A4       |     37 |              9 |
| [65535.1](#event-655351) | 0x01C9       |     31 |             10 |
| [101](#event-101)        | 0x01E8       |     11 |              5 |
| [1](#event-1)            | 0x01F3       |     11 |              5 |
| [2](#event-2)            | 0x01FE       |     11 |              5 |
| [65535.2](#event-655352) | 0x0209       |     19 |              3 |
| [65535.3](#event-655353) | 0x021C       |      9 |              3 |
| [65535.4](#event-655354) | 0x0225       |     19 |              3 |
| [65535.5](#event-655355) | 0x0238       |     29 |              3 |
| [65535.6](#event-655356) | 0x0255       |     29 |              3 |
| [65535.7](#event-655357) | 0x0272       |      9 |              3 |
| [65535.8](#event-655358) | 0x027B       |      1 |              1 |

## DAT References (imed_data)

|   Index | Hex Value   |   Dec Value |
|---------|-------------|-------------|
|       0 | 0x000D      |          13 |
|       1 | 0x003C      |          60 |
|       2 | 0x2742      |       10050 |
|       3 | 0x2743      |       10051 |
|       4 | 0x2747      |       10055 |
|       5 | 0x275C      |       10076 |
|       6 | 0x275F      |       10079 |
|       7 | 0x2762      |       10082 |
|       8 | 0x2784      |       10116 |
|       9 | 0x279E      |       10142 |
|      10 | 0x279F      |       10143 |
|      11 | 0x27C4      |       10180 |
|      12 | 0x003D      |          61 |
|      13 | 0x005A      |          90 |
|      14 | 0x0005      |           5 |
|      15 | 0x00C9      |         201 |
|      16 | 0x0000      |           0 |
|      17 | 0x00D2      |         210 |
|      18 | 0x27C5      |       10181 |
|      19 | 0x27C6      |       10182 |
|      20 | 0x27C7      |       10183 |
|      21 | 0x27C8      |       10184 |
|      22 | 0x010E      |         270 |
|      23 | 0x5025      |       20517 |
|      24 | 0xFFFEDAB2  |  4294892210 |
|      25 | 0x2327      |        8999 |
|      26 | 0x0FC9      |        4041 |
|      27 | 0x62A8      |       25256 |
|      28 | 0xFFFECFE2  |  4294889442 |
|      29 | 0x0B55      |        2901 |
|      30 | 0x270C      |        9996 |
|      31 | 0x2710      |       10000 |
|      32 | 0x2711      |       10001 |

## String References

- **9996**: Welcome to the Embassy of Bastok. Stop by if you ever find yourself in need during your stay in Jeuno.
- **10000**: Welcome to the Embassy of Bastok. Hey, you're a San d'Orian! The Embassy of San d'Oria is outside to the left.
- **10001**: Welcome to the Embassy of Bastok. Hey, you're a Windurstian! The Embassy of Windurst is outside to the right.
- **10050**: Delkfutt's Tower is on the island of Qufim. Scour the town for deals on gear, and remember that there's safety in numbers.
- **10051**: That place is full of monsters, so watch your back[, jack./.]
- **10055**: Welcome back! The ambassador's returned, and can't wait to see you. Step on into his office.
- **10076**: For now, the administration needs your help in the conquest and security of the regions bordering Jeuno.
- **10079**: At ease, soldier. The ambassador wants a word with you. Once you're done with your current mission, report back on the double!
- **10082**: The ambassador wants you for a special operation. Get to the briefing, pronto!
- **10116**: We believe in you, <Player>. Now, seek audience with the archduke!
- **10142**: At ease, soldier. So, how was the archduke?
- **10143**: He wants you to gather magicite? That kind of thing is far beyond my expertise, so you should scour the land for clues on Davoi, Beadeaux, and Castle Oztroja.
- **10180**: <Player>! You made it back in one piece!
- **10181**: No time for R&R, soldier! Your country needs you!
- **10182**: The ambassador's away, so you'll have to carry this back to the administration. Take the airship! I'll stay here to get to the bottom of this.
- **10183**: Get on that airship to Bastok, soldier! I'll stay here and find out what I can.
- **10184**: So, it's business as usual in Bastok, huh? Well, we have nothing special for you here, so try following the administration's directives.

## Events

### Event 65535

#### Metadata

| Field        | Value   |
|--------------|---------|
| Entrypoint   | 0x0000  |
| Data Size    | 4 bytes |
| Instructions | 2       |

```
      00 01 02 03 04 05 06 07  08 09 0A 0B 0C 0D 0E 0F
      -- -- -- -- -- -- -- --  -- -- -- -- -- -- -- --
0000: 32 00 80 00                                       2...            
```

#### Opcodes

```
  0: 0x0000 [0x32] ExtData[1]->MainSpeed = 13* * 0.1
  1: 0x0003 [0x00] END_REQSTACK()
```

### Event 41

#### Metadata

| Field        | Value   |
|--------------|---------|
| Entrypoint   | 0x0004  |
| Data Size    | 1 bytes |
| Instructions | 1       |

```
      00 01 02 03 04 05 06 07  08 09 0A 0B 0C 0D 0E 0F
      -- -- -- -- -- -- -- --  -- -- -- -- -- -- -- --
0000:             00                                        .           
```

#### Opcodes

```
  0: 0x0004 [0x00] END_REQSTACK()
```

### Event 66

#### Metadata

| Field        | Value    |
|--------------|----------|
| Entrypoint   | 0x0005   |
| Data Size    | 41 bytes |
| Instructions | 11       |

```
      00 01 02 03 04 05 06 07  08 09 0A 0B 0C 0D 0E 0F
      -- -- -- -- -- -- -- --  -- -- -- -- -- -- -- --
0000:                4A F0 FF  FF 7F F8 FF FF 7F 1E F0       J..........
0010: FF FF 7F 6F 70 66 01 80  F8 FF FF 7F F8 FF FF 7F  ...opf..........
0020: 74 6C 6B 30 1D 02 80 23  1D 03 80 23 21 00        tlk0...#...#!.  
```

#### Opcodes

```
  0: 0x0005 [0x4A] LocalPlayer looks at EventEntity
  1: 0x000E [0x1E] EventEntity looks at LocalPlayer and starts talking
  2: 0x0013 [0x6F] WAIT_FRAME_DELAY: Yield until WaitTime reaches zero
  3: 0x0014 [0x70] WAIT_ENTITY_RENDER_FLAG: Wait while EventEntity->Render.Flags3 bit 2 is set (cancel turn if not)
  4: 0x0015 [0x66] LOAD_EXT_SCHEDULER_MAIN: Load scheduler "tlk0" with entities [EventEntity, EventEntity], work=60*
  5: 0x0024 [0x1D] PRINT_EVENT_MESSAGE(message_id=10050*)
    → "Delkfutt's Tower is on the island of Qufim. Scour the town for deals on gear, and remember that there's safety in numbers."
  6: 0x0027 [0x23] WAIT_FOR_DIALOG_INTERACTION
  7: 0x0028 [0x1D] PRINT_EVENT_MESSAGE(message_id=10051*)
    → "That place is full of monsters, so watch your back[, jack./.]"
  8: 0x002B [0x23] WAIT_FOR_DIALOG_INTERACTION
  9: 0x002C [0x21] END_EVENT
 10: 0x002D [0x00] END_REQSTACK()
```

### Event 139

#### Metadata

| Field        | Value    |
|--------------|----------|
| Entrypoint   | 0x002E   |
| Data Size    | 37 bytes |
| Instructions | 9        |

```
      00 01 02 03 04 05 06 07  08 09 0A 0B 0C 0D 0E 0F
      -- -- -- -- -- -- -- --  -- -- -- -- -- -- -- --
0020:                                            4A F0                J.
0030: FF FF 7F F8 FF FF 7F 1E  F0 FF FF 7F 6F 70 66 01  ............opf.
0040: 80 F8 FF FF 7F F8 FF FF  7F 74 6C 6B 30 1D 04 80  .........tlk0...
0050: 23 21 00                                          #!.             
```

#### Opcodes

```
  0: 0x002E [0x4A] LocalPlayer looks at EventEntity
  1: 0x0037 [0x1E] EventEntity looks at LocalPlayer and starts talking
  2: 0x003C [0x6F] WAIT_FRAME_DELAY: Yield until WaitTime reaches zero
  3: 0x003D [0x70] WAIT_ENTITY_RENDER_FLAG: Wait while EventEntity->Render.Flags3 bit 2 is set (cancel turn if not)
  4: 0x003E [0x66] LOAD_EXT_SCHEDULER_MAIN: Load scheduler "tlk0" with entities [EventEntity, EventEntity], work=60*
  5: 0x004D [0x1D] PRINT_EVENT_MESSAGE(message_id=10055*)
    → "Welcome back! The ambassador's returned, and can't wait to see you. Step on into his office."
  6: 0x0050 [0x23] WAIT_FOR_DIALOG_INTERACTION
  7: 0x0051 [0x21] END_EVENT
  8: 0x0052 [0x00] END_REQSTACK()
```

### Event 4

#### Metadata

| Field        | Value    |
|--------------|----------|
| Entrypoint   | 0x0053   |
| Data Size    | 37 bytes |
| Instructions | 9        |

```
      00 01 02 03 04 05 06 07  08 09 0A 0B 0C 0D 0E 0F
      -- -- -- -- -- -- -- --  -- -- -- -- -- -- -- --
0050:          4A F0 FF FF 7F  F8 FF FF 7F 1E F0 FF FF     J............
0060: 7F 6F 70 66 01 80 F8 FF  FF 7F F8 FF FF 7F 74 6C  .opf..........tl
0070: 6B 30 1D 05 80 23 21 00                           k0...#!.        
```

#### Opcodes

```
  0: 0x0053 [0x4A] LocalPlayer looks at EventEntity
  1: 0x005C [0x1E] EventEntity looks at LocalPlayer and starts talking
  2: 0x0061 [0x6F] WAIT_FRAME_DELAY: Yield until WaitTime reaches zero
  3: 0x0062 [0x70] WAIT_ENTITY_RENDER_FLAG: Wait while EventEntity->Render.Flags3 bit 2 is set (cancel turn if not)
  4: 0x0063 [0x66] LOAD_EXT_SCHEDULER_MAIN: Load scheduler "tlk0" with entities [EventEntity, EventEntity], work=60*
  5: 0x0072 [0x1D] PRINT_EVENT_MESSAGE(message_id=10076*)
    → "For now, the administration needs your help in the conquest and security of the regions bordering Jeuno."
  6: 0x0075 [0x23] WAIT_FOR_DIALOG_INTERACTION
  7: 0x0076 [0x21] END_EVENT
  8: 0x0077 [0x00] END_REQSTACK()
```

### Event 3

#### Metadata

| Field        | Value    |
|--------------|----------|
| Entrypoint   | 0x0078   |
| Data Size    | 37 bytes |
| Instructions | 9        |

```
      00 01 02 03 04 05 06 07  08 09 0A 0B 0C 0D 0E 0F
      -- -- -- -- -- -- -- --  -- -- -- -- -- -- -- --
0070:                          4A F0 FF FF 7F F8 FF FF          J.......
0080: 7F 1E F0 FF FF 7F 6F 70  66 01 80 F8 FF FF 7F F8  ......opf.......
0090: FF FF 7F 74 6C 6B 30 1D  06 80 23 21 00           ...tlk0...#!.   
```

#### Opcodes

```
  0: 0x0078 [0x4A] LocalPlayer looks at EventEntity
  1: 0x0081 [0x1E] EventEntity looks at LocalPlayer and starts talking
  2: 0x0086 [0x6F] WAIT_FRAME_DELAY: Yield until WaitTime reaches zero
  3: 0x0087 [0x70] WAIT_ENTITY_RENDER_FLAG: Wait while EventEntity->Render.Flags3 bit 2 is set (cancel turn if not)
  4: 0x0088 [0x66] LOAD_EXT_SCHEDULER_MAIN: Load scheduler "tlk0" with entities [EventEntity, EventEntity], work=60*
  5: 0x0097 [0x1D] PRINT_EVENT_MESSAGE(message_id=10079*)
    → "At ease, soldier. The ambassador wants a word with you. Once you're done with your current mission, report back on the double!"
  6: 0x009A [0x23] WAIT_FOR_DIALOG_INTERACTION
  7: 0x009B [0x21] END_EVENT
  8: 0x009C [0x00] END_REQSTACK()
```

### Event 0

#### Metadata

| Field        | Value    |
|--------------|----------|
| Entrypoint   | 0x009D   |
| Data Size    | 37 bytes |
| Instructions | 9        |

```
      00 01 02 03 04 05 06 07  08 09 0A 0B 0C 0D 0E 0F
      -- -- -- -- -- -- -- --  -- -- -- -- -- -- -- --
0090:                                         4A F0 FF               J..
00A0: FF 7F F8 FF FF 7F 1E F0  FF FF 7F 6F 70 66 01 80  ...........opf..
00B0: F8 FF FF 7F F8 FF FF 7F  74 6C 6B 30 1D 07 80 23  ........tlk0...#
00C0: 21 00                                             !.              
```

#### Opcodes

```
  0: 0x009D [0x4A] LocalPlayer looks at EventEntity
  1: 0x00A6 [0x1E] EventEntity looks at LocalPlayer and starts talking
  2: 0x00AB [0x6F] WAIT_FRAME_DELAY: Yield until WaitTime reaches zero
  3: 0x00AC [0x70] WAIT_ENTITY_RENDER_FLAG: Wait while EventEntity->Render.Flags3 bit 2 is set (cancel turn if not)
  4: 0x00AD [0x66] LOAD_EXT_SCHEDULER_MAIN: Load scheduler "tlk0" with entities [EventEntity, EventEntity], work=60*
  5: 0x00BC [0x1D] PRINT_EVENT_MESSAGE(message_id=10082*)
    → "The ambassador wants you for a special operation. Get to the briefing, pronto!"
  6: 0x00BF [0x23] WAIT_FOR_DIALOG_INTERACTION
  7: 0x00C0 [0x21] END_EVENT
  8: 0x00C1 [0x00] END_REQSTACK()
```

### Event 129

#### Metadata

| Field        | Value   |
|--------------|---------|
| Entrypoint   | 0x00C2  |
| Data Size    | 1 bytes |
| Instructions | 1       |

```
      00 01 02 03 04 05 06 07  08 09 0A 0B 0C 0D 0E 0F
      -- -- -- -- -- -- -- --  -- -- -- -- -- -- -- --
00C0:       00                                            .             
```

#### Opcodes

```
  0: 0x00C2 [0x00] END_REQSTACK()
```

### Event 132

#### Metadata

| Field        | Value    |
|--------------|----------|
| Entrypoint   | 0x00C3   |
| Data Size    | 37 bytes |
| Instructions | 9        |

```
      00 01 02 03 04 05 06 07  08 09 0A 0B 0C 0D 0E 0F
      -- -- -- -- -- -- -- --  -- -- -- -- -- -- -- --
00C0:          4A F0 FF FF 7F  F8 FF FF 7F 1E F0 FF FF     J............
00D0: 7F 6F 70 66 01 80 F8 FF  FF 7F F8 FF FF 7F 74 6C  .opf..........tl
00E0: 6B 30 1D 08 80 23 21 00                           k0...#!.        
```

#### Opcodes

```
  0: 0x00C3 [0x4A] LocalPlayer looks at EventEntity
  1: 0x00CC [0x1E] EventEntity looks at LocalPlayer and starts talking
  2: 0x00D1 [0x6F] WAIT_FRAME_DELAY: Yield until WaitTime reaches zero
  3: 0x00D2 [0x70] WAIT_ENTITY_RENDER_FLAG: Wait while EventEntity->Render.Flags3 bit 2 is set (cancel turn if not)
  4: 0x00D3 [0x66] LOAD_EXT_SCHEDULER_MAIN: Load scheduler "tlk0" with entities [EventEntity, EventEntity], work=60*
  5: 0x00E2 [0x1D] PRINT_EVENT_MESSAGE(message_id=10116*)
    → "We believe in you, <Player>. Now, seek audience with the archduke!"
  6: 0x00E5 [0x23] WAIT_FOR_DIALOG_INTERACTION
  7: 0x00E6 [0x21] END_EVENT
  8: 0x00E7 [0x00] END_REQSTACK()
```

### Event 135

#### Metadata

| Field        | Value    |
|--------------|----------|
| Entrypoint   | 0x00E8   |
| Data Size    | 41 bytes |
| Instructions | 11       |

```
      00 01 02 03 04 05 06 07  08 09 0A 0B 0C 0D 0E 0F
      -- -- -- -- -- -- -- --  -- -- -- -- -- -- -- --
00E0:                          4A F0 FF FF 7F F8 FF FF          J.......
00F0: 7F 1E F0 FF FF 7F 6F 70  66 01 80 F8 FF FF 7F F8  ......opf.......
0100: FF FF 7F 74 6C 6B 30 1D  09 80 23 1D 0A 80 23 21  ...tlk0...#...#!
0110: 00                                                .               
```

#### Opcodes

```
  0: 0x00E8 [0x4A] LocalPlayer looks at EventEntity
  1: 0x00F1 [0x1E] EventEntity looks at LocalPlayer and starts talking
  2: 0x00F6 [0x6F] WAIT_FRAME_DELAY: Yield until WaitTime reaches zero
  3: 0x00F7 [0x70] WAIT_ENTITY_RENDER_FLAG: Wait while EventEntity->Render.Flags3 bit 2 is set (cancel turn if not)
  4: 0x00F8 [0x66] LOAD_EXT_SCHEDULER_MAIN: Load scheduler "tlk0" with entities [EventEntity, EventEntity], work=60*
  5: 0x0107 [0x1D] PRINT_EVENT_MESSAGE(message_id=10142*)
    → "At ease, soldier. So, how was the archduke?"
  6: 0x010A [0x23] WAIT_FOR_DIALOG_INTERACTION
  7: 0x010B [0x1D] PRINT_EVENT_MESSAGE(message_id=10143*)
    → "He wants you to gather magicite? That kind of thing is far beyond my expertise, so you should scour the land for clues on Davoi, Beadeaux, and Castle Oztroja."
  8: 0x010E [0x23] WAIT_FOR_DIALOG_INTERACTION
  9: 0x010F [0x21] END_EVENT
 10: 0x0110 [0x00] END_REQSTACK()
```

### Event 35

#### Metadata

| Field        | Value     |
|--------------|-----------|
| Entrypoint   | 0x0111    |
| Data Size    | 110 bytes |
| Instructions | 21        |

```
      00 01 02 03 04 05 06 07  08 09 0A 0B 0C 0D 0E 0F
      -- -- -- -- -- -- -- --  -- -- -- -- -- -- -- --
0110:    20 01 42 1E F0 FF FF  7F 6F 76 F0 FF FF 7F 1D    .B.....ov.....
0120: 0B 80 23 66 0C 80 F8 FF  FF 7F F8 FF FF 7F 73 6C  ..#f..........sl
0130: 32 30 1C 0D 80 7D 0E 80  45 0F 80 F0 FF FF 7F F0  20...}..E.......
0140: FF FF 7F 71 73 74 63 10  80 1C 11 80 53 F8 FF FF  ...qstc.....S...
0150: 7F F8 FF FF 7F 73 6C 32  30 1D 12 80 23 66 01 80  .....sl20...#f..
0160: F8 FF FF 7F F8 FF FF 7F  70 61 73 30 53 F8 FF FF  ........pas0S...
0170: 7F F8 FF FF 7F 70 61 73  30 1D 13 80 23 21 00     .....pas0...#!. 
```

#### Opcodes

```
  0: 0x0111 [0x20] SET_CLI_EVENT_UC_FLAG: Lock player control
  1: 0x0113 [0x42] SET_CLI_EVENT_CANCEL_DATA()
  2: 0x0114 [0x1E] EventEntity looks at LocalPlayer and starts talking
  3: 0x0119 [0x6F] WAIT_FRAME_DELAY: Yield until WaitTime reaches zero
  4: 0x011A [0x76] CHECK_ENTITY_RENDER_FLAGS: Wait until LocalPlayer Render.Flags0 and Render.Flags3 conditions are met
  5: 0x011F [0x1D] PRINT_EVENT_MESSAGE(message_id=10180*)
    → "<Player>! You made it back in one piece!"
  6: 0x0122 [0x23] WAIT_FOR_DIALOG_INTERACTION
  7: 0x0123 [0x66] LOAD_EXT_SCHEDULER_MAIN: Load scheduler "sl20" with entities [EventEntity, EventEntity], work=61*
  8: 0x0132 [0x1C] WAIT(90* ticks)
  9: 0x0135 [0x7D] LOAD_START_SCHEDULER_PLAYER: Load scheduler with animation_id 32782
 10: 0x0138 [0x45] LOAD_SCHEDULED_TASK: Load scheduler "qstc" with entities [LocalPlayer, LocalPlayer], work=[201*, 0*]
 11: 0x0149 [0x1C] WAIT(210* ticks)
 12: 0x014C [0x53] WAIT_SCHEDULER_TASK: Wait for scheduler "sl20" with entities [EventEntity, EventEntity]
 13: 0x0159 [0x1D] PRINT_EVENT_MESSAGE(message_id=10181*)
    → "No time for R&R, soldier! Your country needs you!"
 14: 0x015C [0x23] WAIT_FOR_DIALOG_INTERACTION
 15: 0x015D [0x66] LOAD_EXT_SCHEDULER_MAIN: Load scheduler "pas0" with entities [EventEntity, EventEntity], work=60*
 16: 0x016C [0x53] WAIT_SCHEDULER_TASK: Wait for scheduler "pas0" with entities [EventEntity, EventEntity]
 17: 0x0179 [0x1D] PRINT_EVENT_MESSAGE(message_id=10182*)
    → "The ambassador's away, so you'll have to carry this back to the administration. Take the airship! I'll stay here to get to the bottom of this."
 18: 0x017C [0x23] WAIT_FOR_DIALOG_INTERACTION
 19: 0x017D [0x21] END_EVENT
 20: 0x017E [0x00] END_REQSTACK()
```

### Event 55

#### Metadata

| Field        | Value    |
|--------------|----------|
| Entrypoint   | 0x017F   |
| Data Size    | 37 bytes |
| Instructions | 9        |

```
      00 01 02 03 04 05 06 07  08 09 0A 0B 0C 0D 0E 0F
      -- -- -- -- -- -- -- --  -- -- -- -- -- -- -- --
0170:                                               4A                 J
0180: F0 FF FF 7F F8 FF FF 7F  1E F0 FF FF 7F 6F 70 66  .............opf
0190: 01 80 F8 FF FF 7F F8 FF  FF 7F 74 6C 6B 30 1D 14  ..........tlk0..
01A0: 80 23 21 00                                       .#!.            
```

#### Opcodes

```
  0: 0x017F [0x4A] LocalPlayer looks at EventEntity
  1: 0x0188 [0x1E] EventEntity looks at LocalPlayer and starts talking
  2: 0x018D [0x6F] WAIT_FRAME_DELAY: Yield until WaitTime reaches zero
  3: 0x018E [0x70] WAIT_ENTITY_RENDER_FLAG: Wait while EventEntity->Render.Flags3 bit 2 is set (cancel turn if not)
  4: 0x018F [0x66] LOAD_EXT_SCHEDULER_MAIN: Load scheduler "tlk0" with entities [EventEntity, EventEntity], work=60*
  5: 0x019E [0x1D] PRINT_EVENT_MESSAGE(message_id=10183*)
    → "Get on that airship to Bastok, soldier! I'll stay here and find out what I can."
  6: 0x01A1 [0x23] WAIT_FOR_DIALOG_INTERACTION
  7: 0x01A2 [0x21] END_EVENT
  8: 0x01A3 [0x00] END_REQSTACK()
```

### Event 105

#### Metadata

| Field        | Value    |
|--------------|----------|
| Entrypoint   | 0x01A4   |
| Data Size    | 37 bytes |
| Instructions | 9        |

```
      00 01 02 03 04 05 06 07  08 09 0A 0B 0C 0D 0E 0F
      -- -- -- -- -- -- -- --  -- -- -- -- -- -- -- --
01A0:             4A F0 FF FF  7F F8 FF FF 7F 1E F0 FF      J...........
01B0: FF 7F 6F 70 66 01 80 F8  FF FF 7F F8 FF FF 7F 74  ..opf..........t
01C0: 6C 6B 30 1D 15 80 23 21  00                       lk0...#!.       
```

#### Opcodes

```
  0: 0x01A4 [0x4A] LocalPlayer looks at EventEntity
  1: 0x01AD [0x1E] EventEntity looks at LocalPlayer and starts talking
  2: 0x01B2 [0x6F] WAIT_FRAME_DELAY: Yield until WaitTime reaches zero
  3: 0x01B3 [0x70] WAIT_ENTITY_RENDER_FLAG: Wait while EventEntity->Render.Flags3 bit 2 is set (cancel turn if not)
  4: 0x01B4 [0x66] LOAD_EXT_SCHEDULER_MAIN: Load scheduler "tlk0" with entities [EventEntity, EventEntity], work=60*
  5: 0x01C3 [0x1D] PRINT_EVENT_MESSAGE(message_id=10184*)
    → "So, it's business as usual in Bastok, huh? Well, we have nothing special for you here, so try following the administration's directives."
  6: 0x01C6 [0x23] WAIT_FOR_DIALOG_INTERACTION
  7: 0x01C7 [0x21] END_EVENT
  8: 0x01C8 [0x00] END_REQSTACK()
```

### Event 65535.1

#### Metadata

| Field        | Value    |
|--------------|----------|
| Entrypoint   | 0x01C9   |
| Data Size    | 31 bytes |
| Instructions | 10       |

```
      00 01 02 03 04 05 06 07  08 09 0A 0B 0C 0D 0E 0F
      -- -- -- -- -- -- -- --  -- -- -- -- -- -- -- --
01C0:                             22 00 1C 16 80 37 17           "....7.
01D0: 80 18 80 19 80 1A 80 1F  00 1B 80 1C 80 19 80 1F  ................
01E0: 01 6F 39 1D 80 6F 70 00                           .o9..op.        
```

#### Opcodes

```
  0: 0x01C9 [0x22] ENTITY_HIDE_FLAG(enabled=0x00)
  1: 0x01CB [0x1C] WAIT(270* ticks)
  2: 0x01CE [0x37] UPDATE_EVENT_POSITION_AND_DIR: x=20.517*, z=-75.086*, y=8.999*, direction=355.2°*
  3: 0x01D7 [0x1F] MOVE_ENTITY: EventEntity moves to X=25.256*, Z=-77.854*, Y=8.999*
  4: 0x01DF [0x1F] MOVE_ENTITY: Update entity position (mode=1)
  5: 0x01E1 [0x6F] WAIT_FRAME_DELAY: Yield until WaitTime reaches zero
  6: 0x01E2 [0x39] SET_ENTITY_DIRECTION(direction=15.9°*)
  7: 0x01E5 [0x6F] WAIT_FRAME_DELAY: Yield until WaitTime reaches zero
  8: 0x01E6 [0x70] WAIT_ENTITY_RENDER_FLAG: Wait while EventEntity->Render.Flags3 bit 2 is set (cancel turn if not)
  9: 0x01E7 [0x00] END_REQSTACK()
```

### Event 101

#### Metadata

| Field        | Value    |
|--------------|----------|
| Entrypoint   | 0x01E8   |
| Data Size    | 11 bytes |
| Instructions | 5        |

```
      00 01 02 03 04 05 06 07  08 09 0A 0B 0C 0D 0E 0F
      -- -- -- -- -- -- -- --  -- -- -- -- -- -- -- --
01E0:                          1E F0 FF FF 7F 1D 1E 80          ........
01F0: 23 21 00                                          #!.             
```

#### Opcodes

```
  0: 0x01E8 [0x1E] EventEntity looks at LocalPlayer and starts talking
  1: 0x01ED [0x1D] PRINT_EVENT_MESSAGE(message_id=9996*)
    → "Welcome to the Embassy of Bastok. Stop by if you ever find yourself in need during your stay in Jeuno."
  2: 0x01F0 [0x23] WAIT_FOR_DIALOG_INTERACTION
  3: 0x01F1 [0x21] END_EVENT
  4: 0x01F2 [0x00] END_REQSTACK()
```

### Event 1

#### Metadata

| Field        | Value    |
|--------------|----------|
| Entrypoint   | 0x01F3   |
| Data Size    | 11 bytes |
| Instructions | 5        |

```
      00 01 02 03 04 05 06 07  08 09 0A 0B 0C 0D 0E 0F
      -- -- -- -- -- -- -- --  -- -- -- -- -- -- -- --
01F0:          1E F0 FF FF 7F  1D 1F 80 23 21 00           ........#!.  
```

#### Opcodes

```
  0: 0x01F3 [0x1E] EventEntity looks at LocalPlayer and starts talking
  1: 0x01F8 [0x1D] PRINT_EVENT_MESSAGE(message_id=10000*)
    → "Welcome to the Embassy of Bastok. Hey, you're a San d'Orian! The Embassy of San d'Oria is outside to the left."
  2: 0x01FB [0x23] WAIT_FOR_DIALOG_INTERACTION
  3: 0x01FC [0x21] END_EVENT
  4: 0x01FD [0x00] END_REQSTACK()
```

### Event 2

#### Metadata

| Field        | Value    |
|--------------|----------|
| Entrypoint   | 0x01FE   |
| Data Size    | 11 bytes |
| Instructions | 5        |

```
      00 01 02 03 04 05 06 07  08 09 0A 0B 0C 0D 0E 0F
      -- -- -- -- -- -- -- --  -- -- -- -- -- -- -- --
01F0:                                            1E F0                ..
0200: FF FF 7F 1D 20 80 23 21  00                       .... .#!.       
```

#### Opcodes

```
  0: 0x01FE [0x1E] EventEntity looks at LocalPlayer and starts talking
  1: 0x0203 [0x1D] PRINT_EVENT_MESSAGE(message_id=10001*)
    → "Welcome to the Embassy of Bastok. Hey, you're a Windurstian! The Embassy of Windurst is outside to the right."
  2: 0x0206 [0x23] WAIT_FOR_DIALOG_INTERACTION
  3: 0x0207 [0x21] END_EVENT
  4: 0x0208 [0x00] END_REQSTACK()
```

### Event 65535.2

#### Metadata

| Field        | Value    |
|--------------|----------|
| Entrypoint   | 0x0209   |
| Data Size    | 19 bytes |
| Instructions | 3        |

```
      00 01 02 03 04 05 06 07  08 09 0A 0B 0C 0D 0E 0F
      -- -- -- -- -- -- -- --  -- -- -- -- -- -- -- --
0200:                             66 01 80 F8 FF FF 7F           f......
0210: F8 FF FF 7F 74 6C 6B 30  1C 01 80 00              ....tlk0....    
```

#### Opcodes

```
  0: 0x0209 [0x66] LOAD_EXT_SCHEDULER_MAIN: Load scheduler "tlk0" with entities [EventEntity, EventEntity], work=60*
  1: 0x0218 [0x1C] WAIT(60* ticks)
  2: 0x021B [0x00] END_REQSTACK()
```

### Event 65535.3

#### Metadata

| Field        | Value   |
|--------------|---------|
| Entrypoint   | 0x021C  |
| Data Size    | 9 bytes |
| Instructions | 3       |

```
      00 01 02 03 04 05 06 07  08 09 0A 0B 0C 0D 0E 0F
      -- -- -- -- -- -- -- --  -- -- -- -- -- -- -- --
0210:                                      5E 69 64 6C              ^idl
0220: 30 1C 01 80 00                                    0....           
```

#### Opcodes

```
  0: 0x021C [0x5E] EventEntity goes idle (kills current action) (animation: "idl0")
  1: 0x0221 [0x1C] WAIT(60* ticks)
  2: 0x0224 [0x00] END_REQSTACK()
```

### Event 65535.4

#### Metadata

| Field        | Value    |
|--------------|----------|
| Entrypoint   | 0x0225   |
| Data Size    | 19 bytes |
| Instructions | 3        |

```
      00 01 02 03 04 05 06 07  08 09 0A 0B 0C 0D 0E 0F
      -- -- -- -- -- -- -- --  -- -- -- -- -- -- -- --
0220:                66 01 80  F8 FF FF 7F F8 FF FF 7F       f..........
0230: 74 68 6B 31 1C 01 80 00                           thk1....        
```

#### Opcodes

```
  0: 0x0225 [0x66] LOAD_EXT_SCHEDULER_MAIN: Load scheduler "thk1" with entities [EventEntity, EventEntity], work=60*
  1: 0x0234 [0x1C] WAIT(60* ticks)
  2: 0x0237 [0x00] END_REQSTACK()
```

### Event 65535.5

#### Metadata

| Field        | Value    |
|--------------|----------|
| Entrypoint   | 0x0238   |
| Data Size    | 29 bytes |
| Instructions | 3        |

```
      00 01 02 03 04 05 06 07  08 09 0A 0B 0C 0D 0E 0F
      -- -- -- -- -- -- -- --  -- -- -- -- -- -- -- --
0230:                          66 01 80 F8 FF FF 7F F8          f.......
0240: FF FF 7F 74 68 6B 32 53  F8 FF FF 7F F8 FF FF 7F  ...thk2S........
0250: 74 68 6B 32 00                                    thk2.           
```

#### Opcodes

```
  0: 0x0238 [0x66] LOAD_EXT_SCHEDULER_MAIN: Load scheduler "thk2" with entities [EventEntity, EventEntity], work=60*
  1: 0x0247 [0x53] WAIT_SCHEDULER_TASK: Wait for scheduler "thk2" with entities [EventEntity, EventEntity]
  2: 0x0254 [0x00] END_REQSTACK()
```

### Event 65535.6

#### Metadata

| Field        | Value    |
|--------------|----------|
| Entrypoint   | 0x0255   |
| Data Size    | 29 bytes |
| Instructions | 3        |

```
      00 01 02 03 04 05 06 07  08 09 0A 0B 0C 0D 0E 0F
      -- -- -- -- -- -- -- --  -- -- -- -- -- -- -- --
0250:                66 01 80  F8 FF FF 7F F8 FF FF 7F       f..........
0260: 70 61 73 30 53 F8 FF FF  7F F8 FF FF 7F 70 61 73  pas0S........pas
0270: 30 00                                             0.              
```

#### Opcodes

```
  0: 0x0255 [0x66] LOAD_EXT_SCHEDULER_MAIN: Load scheduler "pas0" with entities [EventEntity, EventEntity], work=60*
  1: 0x0264 [0x53] WAIT_SCHEDULER_TASK: Wait for scheduler "pas0" with entities [EventEntity, EventEntity]
  2: 0x0271 [0x00] END_REQSTACK()
```

### Event 65535.7

#### Metadata

| Field        | Value   |
|--------------|---------|
| Entrypoint   | 0x0272  |
| Data Size    | 9 bytes |
| Instructions | 3       |

```
      00 01 02 03 04 05 06 07  08 09 0A 0B 0C 0D 0E 0F
      -- -- -- -- -- -- -- --  -- -- -- -- -- -- -- --
0270:       5E 69 64 6C 30 1C  01 80 00                   ^idl0....     
```

#### Opcodes

```
  0: 0x0272 [0x5E] EventEntity goes idle (kills current action) (animation: "idl0")
  1: 0x0277 [0x1C] WAIT(60* ticks)
  2: 0x027A [0x00] END_REQSTACK()
```

### Event 65535.8

#### Metadata

| Field        | Value   |
|--------------|---------|
| Entrypoint   | 0x027B  |
| Data Size    | 1 bytes |
| Instructions | 1       |

```
      00 01 02 03 04 05 06 07  08 09 0A 0B 0C 0D 0E 0F
      -- -- -- -- -- -- -- --  -- -- -- -- -- -- -- --
0270:                                   00                         .    
```

#### Opcodes

```
  0: 0x027B [0x00] END_REQSTACK()
```
