# 17772629 - Trail Markings

## Common Data

| Field            | Value                     |
|------------------|---------------------------|
| Zone             | Ru'Lude Gardens (ID: 243) |
| Block Size       | 29508 bytes               |
| Total Events     | 31                        |
| References Count | 234                       |

## List of Events

| Event ID                   | Entrypoint   |   Size |   Instructions |
|----------------------------|--------------|--------|----------------|
| [65535](#event-65535)      | 0x0000       |      1 |              1 |
| [10011](#event-10011)      | 0x0001       |    268 |             84 |
| [10012](#event-10012)      | 0x010D       |    482 |            126 |
| [10176](#event-10176)      | 0x02EF       |    564 |            133 |
| [10013](#event-10013)      | 0x0523       |    453 |             57 |
| [10014](#event-10014)      | 0x06E8       |    453 |             57 |
| [10015](#event-10015)      | 0x08AD       |    453 |             57 |
| [10016](#event-10016)      | 0x0A72       |   8968 |           1142 |
| [10017](#event-10017)      | 0x2D7A       |    561 |             71 |
| [10018](#event-10018)      | 0x2FAB       |    659 |             81 |
| [10019](#event-10019)      | 0x323E       |    611 |             75 |
| [10020](#event-10020)      | 0x34A1       |    757 |             89 |
| [10021](#event-10021)      | 0x3796       |    585 |             74 |
| [10022](#event-10022)      | 0x39DF       |   1028 |            115 |
| [10023](#event-10023)      | 0x3DE3       |    405 |             52 |
| [10024](#event-10024)      | 0x3F78       |    389 |             52 |
| [10025](#event-10025)      | 0x40FD       |    404 |             51 |
| [10026](#event-10026)      | 0x4291       |    550 |             65 |
| [10027](#event-10027)      | 0x44B7       |    387 |             54 |
| [10028](#event-10028)      | 0x463A       |   2857 |            336 |
| [65535.1](#event-655351)   | 0x5163       |    608 |             85 |
| [65535.2](#event-655352)   | 0x53C3       |    608 |             85 |
| [65535.3](#event-655353)   | 0x5623       |    608 |             85 |
| [65535.4](#event-655354)   | 0x5883       |    541 |             74 |
| [65535.5](#event-655355)   | 0x5AA0       |    526 |             73 |
| [65535.6](#event-655356)   | 0x5CAE       |    541 |             74 |
| [65535.7](#event-655357)   | 0x5ECB       |    294 |             49 |
| [65535.8](#event-655358)   | 0x5FF1       |    294 |             49 |
| [65535.9](#event-655359)   | 0x6117       |   1824 |            258 |
| [65535.10](#event-6553510) | 0x6837       |   1016 |            140 |
| [65535.11](#event-6553511) | 0x6C2F       |    735 |            105 |

## DAT References (imed_data)

|   Index | Hex Value   |   Dec Value |
|---------|-------------|-------------|
|       0 | 0x2BE5      |       11237 |
|       1 | 0x2BE6      |       11238 |
|       2 | 0x0001      |           1 |
|       3 | 0x0000      |           0 |
|       4 | 0x40000000  |  1073741824 |
|       5 | 0x0002      |           2 |
|       6 | 0x2C8C      |       11404 |
|       7 | 0x2C8D      |       11405 |
|       8 | 0x2C8E      |       11406 |
|       9 | 0x2C8F      |       11407 |
|      10 | 0x2C90      |       11408 |
|      11 | 0x2C91      |       11409 |
|      12 | 0x2C92      |       11410 |
|      13 | 0x2C93      |       11411 |
|      14 | 0x2C94      |       11412 |
|      15 | 0x0003      |           3 |
|      16 | 0x2C9D      |       11421 |
|      17 | 0x2C9E      |       11422 |
|      18 | 0x2C9F      |       11423 |
|      19 | 0x2CA0      |       11424 |
|      20 | 0x2CA1      |       11425 |
|      21 | 0x2CA3      |       11427 |
|      22 | 0x0004      |           4 |
|      23 | 0x2CAA      |       11434 |
|      24 | 0x2CAB      |       11435 |
|      25 | 0x2CAC      |       11436 |
|      26 | 0x2CAD      |       11437 |
|      27 | 0x2BE7      |       11239 |
|      28 | 0x0005      |           5 |
|      29 | 0x0006      |           6 |
|      30 | 0x2BED      |       11245 |
|      31 | 0x2BEE      |       11246 |
|      32 | 0x2CA2      |       11426 |
|      33 | 0x0007      |           7 |
|      34 | 0x0008      |           8 |
|      35 | 0x0009      |           9 |
|      36 | 0x000A      |          10 |
|      37 | 0x000F      |          15 |
|      38 | 0x0010      |          16 |
|      39 | 0x001F      |          31 |
|      40 | 0x2C95      |       11413 |
|      41 | 0x2C96      |       11414 |
|      42 | 0x2C97      |       11415 |
|      43 | 0x2C98      |       11416 |
|      44 | 0x2C99      |       11417 |
|      45 | 0x2C9A      |       11418 |
|      46 | 0x2C9B      |       11419 |
|      47 | 0x2C9C      |       11420 |
|      48 | 0x2CA4      |       11428 |
|      49 | 0x2CA5      |       11429 |
|      50 | 0x2CA6      |       11430 |
|      51 | 0x2CA9      |       11433 |
|      52 | 0x2CAE      |       11438 |
|      53 | 0x2CAF      |       11439 |
|      54 | 0x2CB0      |       11440 |
|      55 | 0x0013      |          19 |
|      56 | 0x00E8      |         232 |
|      57 | 0x0027      |          39 |
|      58 | 0x0016      |          22 |
|      59 | 0x003C      |          60 |
|      60 | 0x2BFF      |       11263 |
|      61 | 0x2C00      |       11264 |
|      62 | 0x002D      |          45 |
|      63 | 0x108C      |        4236 |
|      64 | 0x060E      |        1550 |
|      65 | 0x2C01      |       11265 |
|      66 | 0x2C02      |       11266 |
|      67 | 0x2C03      |       11267 |
|      68 | 0x0096      |         150 |
|      69 | 0x001E      |          30 |
|      70 | 0x005A      |          90 |
|      71 | 0x2C04      |       11268 |
|      72 | 0x2C05      |       11269 |
|      73 | 0x2C06      |       11270 |
|      74 | 0x2C07      |       11271 |
|      75 | 0x2C17      |       11287 |
|      76 | 0x2C18      |       11288 |
|      77 | 0x2C19      |       11289 |
|      78 | 0x2C1A      |       11290 |
|      79 | 0x2C1F      |       11295 |
|      80 | 0x2C08      |       11272 |
|      81 | 0x0078      |         120 |
|      82 | 0x0026      |          38 |
|      83 | 0x2C09      |       11273 |
|      84 | 0x2C0A      |       11274 |
|      85 | 0x00B4      |         180 |
|      86 | 0x001A      |          26 |
|      87 | 0x2C0B      |       11275 |
|      88 | 0x2C0C      |       11276 |
|      89 | 0x2C0D      |       11277 |
|      90 | 0x2C0E      |       11278 |
|      91 | 0x2C0F      |       11279 |
|      92 | 0x2C10      |       11280 |
|      93 | 0x0032      |          50 |
|      94 | 0x2C11      |       11281 |
|      95 | 0x2C12      |       11282 |
|      96 | 0x2C13      |       11283 |
|      97 | 0x2C14      |       11284 |
|      98 | 0x2C1B      |       11291 |
|      99 | 0x2C1C      |       11292 |
|     100 | 0x2C1D      |       11293 |
|     101 | 0x2C1E      |       11294 |
|     102 | 0x0064      |         100 |
|     103 | 0x0030      |          48 |
|     104 | 0x2C20      |       11296 |
|     105 | 0x2C21      |       11297 |
|     106 | 0x2C22      |       11298 |
|     107 | 0x2C23      |       11299 |
|     108 | 0x2C24      |       11300 |
|     109 | 0x0048      |          72 |
|     110 | 0x00C8      |         200 |
|     111 | 0x00D7      |         215 |
|     112 | 0x2C25      |       11301 |
|     113 | 0x2C26      |       11302 |
|     114 | 0x001D      |          29 |
|     115 | 0x2C27      |       11303 |
|     116 | 0x2C28      |       11304 |
|     117 | 0x2C29      |       11305 |
|     118 | 0x2C2A      |       11306 |
|     119 | 0x2C2B      |       11307 |
|     120 | 0x2C2C      |       11308 |
|     121 | 0x2C2D      |       11309 |
|     122 | 0x2C2E      |       11310 |
|     123 | 0x2C2F      |       11311 |
|     124 | 0x0028      |          40 |
|     125 | 0x2C30      |       11312 |
|     126 | 0x2C31      |       11313 |
|     127 | 0x0029      |          41 |
|     128 | 0x2C32      |       11314 |
|     129 | 0x2C33      |       11315 |
|     130 | 0x2C34      |       11316 |
|     131 | 0x2C35      |       11317 |
|     132 | 0x2C36      |       11318 |
|     133 | 0x2C37      |       11319 |
|     134 | 0x0024      |          36 |
|     135 | 0x2C38      |       11320 |
|     136 | 0x2C39      |       11321 |
|     137 | 0x2C3A      |       11322 |
|     138 | 0x2C3B      |       11323 |
|     139 | 0x2C3C      |       11324 |
|     140 | 0x2C3D      |       11325 |
|     141 | 0x2C3E      |       11326 |
|     142 | 0x2C3F      |       11327 |
|     143 | 0x2C40      |       11328 |
|     144 | 0x0087      |         135 |
|     145 | 0x0077      |         119 |
|     146 | 0x003F      |          63 |
|     147 | 0x2C41      |       11329 |
|     148 | 0x2C42      |       11330 |
|     149 | 0x2C43      |       11331 |
|     150 | 0x2C44      |       11332 |
|     151 | 0x0231      |         561 |
|     152 | 0x2C45      |       11333 |
|     153 | 0x2C46      |       11334 |
|     154 | 0x2C47      |       11335 |
|     155 | 0x2C48      |       11336 |
|     156 | 0x0017      |          23 |
|     157 | 0x2C49      |       11337 |
|     158 | 0x2C4A      |       11338 |
|     159 | 0x2C4B      |       11339 |
|     160 | 0x2C4C      |       11340 |
|     161 | 0x2C4D      |       11341 |
|     162 | 0x2C4E      |       11342 |
|     163 | 0x2C4F      |       11343 |
|     164 | 0x2C50      |       11344 |
|     165 | 0x2C51      |       11345 |
|     166 | 0x2C52      |       11346 |
|     167 | 0x2C53      |       11347 |
|     168 | 0x2C54      |       11348 |
|     169 | 0x2C55      |       11349 |
|     170 | 0x009F      |         159 |
|     171 | 0x2C56      |       11350 |
|     172 | 0x2C57      |       11351 |
|     173 | 0x2C58      |       11352 |
|     174 | 0x2C59      |       11353 |
|     175 | 0x2C5A      |       11354 |
|     176 | 0x2C5B      |       11355 |
|     177 | 0x2C5C      |       11356 |
|     178 | 0x2C5D      |       11357 |
|     179 | 0x0019      |          25 |
|     180 | 0x2C5E      |       11358 |
|     181 | 0x2C5F      |       11359 |
|     182 | 0x2C60      |       11360 |
|     183 | 0x2C61      |       11361 |
|     184 | 0x2C62      |       11362 |
|     185 | 0x2C63      |       11363 |
|     186 | 0x2C64      |       11364 |
|     187 | 0x2C65      |       11365 |
|     188 | 0x2C66      |       11366 |
|     189 | 0x2C67      |       11367 |
|     190 | 0x2C68      |       11368 |
|     191 | 0x0070      |         112 |
|     192 | 0x00A4      |         164 |
|     193 | 0x0065      |         101 |
|     194 | 0x0067      |         103 |
|     195 | 0x0080      |         128 |
|     196 | 0x00C9      |         201 |
|     197 | 0x0040      |          64 |
|     198 | 0x01FE      |         510 |
|     199 | 0x00DE      |         222 |
|     200 | 0x009B      |         155 |
|     201 | 0x2C6E      |       11374 |
|     202 | 0x2C6F      |       11375 |
|     203 | 0x01FF      |         511 |
|     204 | 0x2C70      |       11376 |
|     205 | 0x2C71      |       11377 |
|     206 | 0x2C72      |       11378 |
|     207 | 0x2C73      |       11379 |
|     208 | 0x2C74      |       11380 |
|     209 | 0x2C75      |       11381 |
|     210 | 0x0076      |         118 |
|     211 | 0x007E      |         126 |
|     212 | 0x2C76      |       11382 |
|     213 | 0x2C77      |       11383 |
|     214 | 0x2C78      |       11384 |
|     215 | 0x2C79      |       11385 |
|     216 | 0x2C7A      |       11386 |
|     217 | 0x002A      |          42 |
|     218 | 0x2C7B      |       11387 |
|     219 | 0x2C7C      |       11388 |
|     220 | 0x028A      |         650 |
|     221 | 0x2C7D      |       11389 |
|     222 | 0x2C7E      |       11390 |
|     223 | 0x00F5      |         245 |
|     224 | 0x0054      |          84 |
|     225 | 0x2C83      |       11395 |
|     226 | 0x2C84      |       11396 |
|     227 | 0x2C85      |       11397 |
|     228 | 0x2C86      |       11398 |
|     229 | 0x2C87      |       11399 |
|     230 | 0x2C8A      |       11402 |
|     231 | 0x2C8B      |       11403 |
|     232 | 0x2C88      |       11400 |
|     233 | 0x2C89      |       11401 |

## String References

- **11237**: The time and destination for your foray into Dynamis will be recorded on your $6. === Destination: Dynamis - [Dummy/San d'Oria/Bastok/Windurst/Jeuno/Beaucedine/Xarcabard/Valkurm/Buburimu/Qufim/Tavnazia] ===
- **11238**: Record the time and destination? [Proceed./Not yet./Entering Dynamis - [Dummy/San d'Oria/Bastok/Windurst/Jeuno/Beaucedine/Xarcabard/Valkurm/Buburimu/Qufim/Tavnazia]./Reentering Dynamis - [Dummy/San d'Oria/Bastok/Windurst/Jeuno/Beaucedine/Xarcabard/Valkurm/Buburimu/Qufim/Tavnazia]./Battles in Dynamis - [Dummy/San d'Oria/Bastok/Windurst/Jeuno/Beaucedine/Xarcabard/Valkurm/Buburimu/Qufim/Tavnazia].]
- **11239**: Connecting with server. Please wait.
- **11245**: You will now be warped to Dynamis - [Dummy/San d'Oria/Bastok/Windurst/Jeuno/Beaucedine/Xarcabard/Valkurm/Buburimu/Qufim/Tavnazia].
- **11246**: Ready to warp to Dynamis - [Dummy/San d'Oria/Bastok/Windurst/Jeuno/Beaucedine/Xarcabard/Valkurm/Buburimu/Qufim/Tavnazia]? [Ready!/Ready! (Support jobs unlocked)./Ready! (Support jobs restricted)./Not yet./Entering Dynamis - [Dummy/San d'Oria/Bastok/Windurst/Jeuno/Beaucedine/Xarcabard/Valkurm/Buburimu/Qufim/Tavnazia]./Reentering Dynamis - [Dummy/San d'Oria/Bastok/Windurst/Jeuno/Beaucedine/Xarcabard/Valkurm/Buburimu/Qufim/Tavnazia]./Battles in Dynamis - [Dummy/San d'Oria/Bastok/Windurst/Jeuno/Beaucedine/Xarcabard/Valkurm/Buburimu/Qufim/Tavnazia].]
- **11404**: "Trade" the $6 to the "Hieroglyphics" found in each area. The $6 will be transformed into $7.
- **11405**: From that point on, one of the areas of Dynamis will be reserved by the bearer of the $7. The destination and time to be spent in Dynamis will be recorded in the help text of the $7.
- **11406**: By defeating certain enemies, a group can extend the amount of time they are allowed in Dynamis - [Dummy/San d'Oria/Bastok/Windurst/Jeuno/Beaucedine/Xarcabard/Valkurm/Buburimu/Qufim/Tavnazia]. Any time extensions will be reflected in the $7's help text.
- **11407**: Using the $7 creates a copy. By handing these copies out to other characters, it is possible to enter Dynamis - [Dummy/San d'Oria/Bastok/Windurst/Jeuno/Beaucedine/Xarcabard/Valkurm/Buburimu/Qufim/Tavnazia] in large groups.
- **11408**: The number of characters that can enter Dynamis - [Dummy/San d'Oria/Bastok/Windurst/Jeuno/Beaucedine/Xarcabard/Valkurm/Buburimu/Qufim/Tavnazia] at one time is limited to $4 people.
- **11409**: The $7 can be duplicated further by those who have received a copy, essentially allowing for an unlimited number of $7 to be made. However, the moment the maximum allowable number of players have entered Dynamis, all extra hourglasses will become void. Please take this into consideration when deciding to whom, and how many, copies are to be handed out.
- **11410**: To warp to Dynamis - [Dummy/San d'Oria/Bastok/Windurst/Jeuno/Beaucedine/Xarcabard/Valkurm/Buburimu/Qufim/Tavnazia], "Trade" the $7 to the "Hieroglyphics" where you originally received it.
- **11411**: Please note that it is not possible to enter Dynamis - [Dummy/San d'Oria/Bastok/Windurst/Jeuno/Beaucedine/Xarcabard/Valkurm/Buburimu/Qufim/Tavnazia] without $6, even if you trade the required $7.
- **11412**: In addition, only players above level 64 can travel to the Shrouded Land.
- **11413**: Ensuring that you have $6 in your possession, seek out the "Trail Markings" or "Hieroglyphics" found in each area.
- **11414**: Examine them and you will be granted entrance to the corresponding Dynamis area.
- **11415**: Dynamis - [Dummy/San d'Oria/Bastok/Windurst/Jeuno/Beaucedine/Xarcabard/Valkurm/Buburimu/Qufim/Tavnazia] will not be reserved to anyone. It will be accessible to any and all who meet the entry requirements.
- **11416**: Your stay in Dynamis - [Dummy/San d'Oria/Bastok/Windurst/Jeuno/Beaucedine/Xarcabard/Valkurm/Buburimu/Qufim/Tavnazia] will be subject to a time restriction. Parties will automatically be expelled from the area when this time elapses.
- **11417**: Parties and alliances can extend their duration of stay by defeating certain enemies.
- **11418**: Please note that it is not possible to enter Dynamis - [Dummy/San d'Oria/Bastok/Windurst/Jeuno/Beaucedine/Xarcabard/Valkurm/Buburimu/Qufim/Tavnazia] without $6, even if you trade the required $3.
- **11419**: Remember that only players level 65 or above can travel to the Shrouded Land.
- **11420**: Furthermore, it is not possible to reserve Dynamis - [Dummy/San d'Oria/Bastok/Windurst/Jeuno/Beaucedine/Xarcabard/Valkurm/Buburimu/Qufim/Tavnazia] using $6 or $7.
- **11421**: Even if you leave Dynamis - [Dummy/San d'Oria/Bastok/Windurst/Jeuno/Beaucedine/Xarcabard/Valkurm/Buburimu/Qufim/Tavnazia] through magic or being KO'd, you can reenter the same area without restriction as long as it is within the designated time of the $7.
- **11422**: However, you will be in a weakened state for some time upon returning to Dynamis - [Dummy/San d'Oria/Bastok/Windurst/Jeuno/Beaucedine/Xarcabard/Valkurm/Buburimu/Qufim/Tavnazia].
- **11423**: This weakened state will last for longer than the usual period experienced after being raised from KO status.
- **11424**: Upon entering Dynamis - [Dummy/San d'Oria/Bastok/Windurst/Jeuno/Beaucedine/Xarcabard/Valkurm/Buburimu/Qufim/Tavnazia], you will be unable to reenter using a different $7 for $3 [day/days] (Earth time).
- **11425**: In addition to Dynamis - [Dummy/San d'Oria/Bastok/Windurst/Jeuno/Beaucedine/Xarcabard/Valkurm/Buburimu/Qufim/Tavnazia], this restriction will also apply to the following Dynamis areas:
- **11426**: Dynamis - [Dummy/Dummy/Dummy/Dummy/Dummy/Dummy/Dummy/Buburimu/Valkurm/Valkurm/Valkurm]. Dynamis - [Dummy/Dummy/Dummy/Dummy/Dummy/Dummy/Dummy/Qufim/Qufim/Buburimu/Buburimu]. Dynamis - [Dummy/Dummy/Dummy/Dummy/Dummy/Dummy/Dummy/Tavnazia/Tavnazia/Tavnazia/Qufim.]
- **11427**: You may confirm the remaining waiting period until reentry is permitted at any time by examining the Trail Markings or Hieroglyphics.
- **11428**: Travel to Dynamis - [Dummy/San d'Oria/Bastok/Windurst/Jeuno/Beaucedine/Xarcabard/Valkurm/Buburimu/Qufim/Tavnazia] is limited to once per [day/ten minutes] (Earth time).
- **11429**: Even if expelled from the area by magic or being KO'd, you will not be able to reenter until the waiting period has elapsed.
- **11430**: In addition to Dynamis - [Dummy/San d'Oria/Bastok/Windurst/Jeuno/Beaucedine/Xarcabard/Valkurm/Buburimu/Qufim/Tavnazia], this restriction will also apply to other Dynamis areas.
- **11433**: You may confirm the remaining waiting period until reentry is permitted at any time by examining the Trail Markings or Hieroglyphics.
- **11434**: In Dynamis - [Dummy/San d'Oria/Bastok/Windurst/Jeuno/Beaucedine/Xarcabard/Valkurm/Buburimu/Qufim/Tavnazia], it is possible to cooperate with other characters to defeat enemies without being in the same party or alliance.
- **11435**: Also, items dropped by enemies become available for every character in the area to cast lots on. As in normal parties, the item is gained by the character who casts the highest lot.
- **11436**: Please be aware that items not lotted for within the restricted time may go to random characters or be lost entirely.
- **11437**: Starting from when the first character enters, if the number of people in Dynamis - [Dummy/San d'Oria/Bastok/Windurst/Jeuno/Beaucedine/Xarcabard/Valkurm/Buburimu/Qufim/Tavnazia] reaches and remains at zero for approximately $2 [minute/minutes] (Earth time), the time and area designation on the $7 will be canceled.
- **11438**: When battling enemies in Dynamis - [Dummy/San d'Oria/Bastok/Windurst/Jeuno/Beaucedine/Xarcabard/Valkurm/Buburimu/Qufim/Tavnazia], it will only be possible to cooperate with characters in the same party or alliance.
- **11439**: Spoils dropped by enemies will become available for every character in the party or alliance to cast lots on. The item will be awarded to the character who casts the highest lot.
- **11440**: Please be aware that items not lotted for within the restricted time may go to a random party or alliance member, or be lost entirely.

## Events

### Event 65535

#### Metadata

| Field        | Value   |
|--------------|---------|
| Entrypoint   | 0x0000  |
| Data Size    | 1 bytes |
| Instructions | 1       |

```
      00 01 02 03 04 05 06 07  08 09 0A 0B 0C 0D 0E 0F
      -- -- -- -- -- -- -- --  -- -- -- -- -- -- -- --
0000: 00                                                .               
```

#### Opcodes

```
  0: 0x0000 [0x00] END_REQSTACK()
```

### Event 10011

#### Metadata

| Field        | Value     |
|--------------|-----------|
| Entrypoint   | 0x0001    |
| Data Size    | 268 bytes |
| Instructions | 36        |

```
      00 01 02 03 04 05 06 07  08 09 0A 0B 0C 0D 0E 0F
      -- -- -- -- -- -- -- --  -- -- -- -- -- -- -- --
0000:    03 01 00 03 10 48 00  80 23 24 01 80 02 80 03   .....H..#$.....
0010: 80 25 02 00 10 02 80 00  24 00 03 01 10 04 80 21  .%......$......!
0020: 00 01 9A 00 02 00 10 05  80 00 56 00 48 06 80 23  ..........V.H..#
0030: 48 07 80 23 48 08 80 23  48 09 80 23 48 0A 80 23  H..#H..#H..#H..#
0040: 48 0B 80 23 48 0C 80 23  48 0D 80 23 48 0E 80 23  H..#H..#H..#H..#
0050: 01 0A 00 01 9A 00 02 00  10 0F 80 00 7C 00 48 10  ............|.H.
0060: 80 23 48 11 80 23 48 12  80 23 48 13 80 23 48 14  .#H..#H..#H..#H.
0070: 80 23 48 15 80 23 01 0A  00 01 9A 00 02 00 10 16  .#H..#..........
0080: 80 00 9A 00 48 17 80 23  48 18 80 23 48 19 80 23  ....H..#H..#H..#
0090: 48 1A 80 23 01 0A 00 01  9A 00 42 48 1B 80 06 01  H..#......BH....
00A0: 10 A7 00 A7 01 01 10 02  01 10 16 80 00 0B 01 02  ................
00B0: 01 00 02 80 01 0B 01 02  02 10 02 80 80 C5 00 1A  ................
00C0: 37 0C 01 0B 01 02 02 10  05 80 80 D3 00 1A 53 0D  7.............S.
00D0: 01 0B 01 02 02 10 0F 80  80 E1 00 1A 6F 0E 01 0B  ............o...
00E0: 01 02 02 10 16 80 80 EF  00 1A 8B 0F 01 0B 01 02  ................
00F0: 02 10 1C 80 80 FD 00 1A  A7 10 01 0B 01 02 02 10  ................
0100: 1D 80 80 0B 01 1A A2 11  01 0B 01 21 00           ...........!.   
```

#### Opcodes

```
  0: 0x0001 [0x03] ExtData[1]->WorkLocal[1] = Work_Zone[3]
  1: 0x0006 [0x48] [System] [11237*]:
    → "The time and destination for your foray into Dynamis will be recorded on your $6. === Destination: Dynamis - [Dummy/San d'Oria/Bastok/Windurst/Jeuno/Beaucedine/Xarcabard/Valkurm/Buburimu/Qufim/Tavnazia] ==="
  2: 0x0009 [0x23] WAIT_FOR_DIALOG_INTERACTION
  3: 0x000A [0x24] CREATE_DIALOG(message_id=11238*, default_option=1*, option_flags=0*)
    → "Record the time and destination? [Proceed./Not yet./Entering Dynamis - [Dummy/San d'Oria/Bastok/Windurst/Jeuno/Beaucedine/Xarcabard/Valkurm/Buburimu/Qufim/Tavnazia]./Reentering Dynamis - [Dummy/San d'Oria/Bastok/Windurst/Jeuno/Beaucedine/Xarcabard/Valkurm/Buburimu/Qufim/Tavnazia]./Battles in Dynamis - [Dummy/San d'Oria/Bastok/Windurst/Jeuno/Beaucedine/Xarcabard/Valkurm/Buburimu/Qufim/Tavnazia].]"
  4: 0x0011 [0x25] WAIT_DIALOG_SELECT()
  5: 0x0012 [0x02] IF !(Work_Zone[0] == 1*) GOTO 0x0024
  6: 0x001A [0x03] Work_Zone[1] = 1073741824*
  7: 0x001F [0x21] END_EVENT
  8: 0x0020 [0x00] END_REQSTACK()

SUBROUTINE_009A:
  9: 0x009A [0x42] SET_CLI_EVENT_CANCEL_DATA()
 10: 0x009B [0x48] [System] [11239*]:
    → "Connecting with server. Please wait."
 11: 0x009E [0x06] Work_Zone[1] = 0
 12: 0x00A1 [0xA7] BATTLEFIELD_RESPONSE_WAIT: Wait for server response (Dynamis/MMM/Salvage), mode=0x00
 13: 0x00A3 [0xA7] BATTLEFIELD_RESPONSE_WAIT: Wait for server response with parameter (Dynamis/MMM/Salvage), param=Work_Zone[1]
 14: 0x00A7 [0x02] IF !(Work_Zone[1] == 4*) GOTO 0x010B
 15: 0x00AF [0x02] IF !(ExtData[1]->WorkLocal[1] == 1*) GOTO 0x010B
 16: 0x00B7 [0x02] IF !(Work_Zone[2] == 1*) GOTO 0x00C5
 17: 0x00BF [0x1A] CALL_SUBROUTINE(address=0x0C37)
 18: 0x00C2 [0x01] GOTO 0x010B
 19: 0x00C5 [0x02] IF !(Work_Zone[2] == 2*) GOTO 0x00D3
 20: 0x00CD [0x1A] CALL_SUBROUTINE(address=0x0D53)
 21: 0x00D0 [0x01] GOTO 0x010B
 22: 0x00D3 [0x02] IF !(Work_Zone[2] == 3*) GOTO 0x00E1
 23: 0x00DB [0x1A] CALL_SUBROUTINE(address=0x0E6F)
 24: 0x00DE [0x01] GOTO 0x010B
 25: 0x00E1 [0x02] IF !(Work_Zone[2] == 4*) GOTO 0x00EF
 26: 0x00E9 [0x1A] CALL_SUBROUTINE(address=0x0F8B)
 27: 0x00EC [0x01] GOTO 0x010B
 28: 0x00EF [0x02] IF !(Work_Zone[2] == 5*) GOTO 0x00FD
 29: 0x00F7 [0x1A] CALL_SUBROUTINE(address=0x10A7)
 30: 0x00FA [0x01] GOTO 0x010B
 31: 0x00FD [0x02] IF !(Work_Zone[2] == 6*) GOTO 0x010B
 32: 0x0105 [0x1A] CALL_SUBROUTINE(address=0x11A2)
 33: 0x0108 [0x01] GOTO 0x010B

SUBROUTINE_010B:
 34: 0x010B [0x21] END_EVENT
 35: 0x010C [0x00] END_REQSTACK()
```

#### Data or dead code:

```
# Dead code (unreachable instructions):
     0x0021 [0x01] GOTO 0x009A
     0x0053 [0x01] GOTO 0x009A
     0x0079 [0x01] GOTO 0x009A
     0x0097 [0x01] GOTO 0x009A
```

### Event 10012

#### Metadata

| Field        | Value     |
|--------------|-----------|
| Entrypoint   | 0x010D    |
| Data Size    | 482 bytes |
| Instructions | 76        |

```
      00 01 02 03 04 05 06 07  08 09 0A 0B 0C 0D 0E 0F
      -- -- -- -- -- -- -- --  -- -- -- -- -- -- -- --
0100:                                         03 02 00               ...
0110: 03 10 48 1E 80 23 24 1F  80 02 80 03 80 25 02 00  ..H..#$......%..
0120: 10 02 80 00 30 01 03 01  10 04 80 21 00 01 AA 01  ....0......!....
0130: 02 00 10 05 80 00 62 01  48 06 80 23 48 07 80 23  ......b.H..#H..#
0140: 48 08 80 23 48 09 80 23  48 0A 80 23 48 0B 80 23  H..#H..#H..#H..#
0150: 48 0C 80 23 48 0D 80 23  48 0E 80 23 01 16 01 01  H..#H..#H..#....
0160: AA 01 02 00 10 0F 80 00  8C 01 48 10 80 23 48 11  ..........H..#H.
0170: 80 23 48 12 80 23 48 13  80 23 48 14 80 23 48 20  .#H..#H..#H..#H 
0180: 80 23 48 15 80 23 01 16  01 01 AA 01 02 00 10 16  .#H..#..........
0190: 80 00 AA 01 48 17 80 23  48 18 80 23 48 19 80 23  ....H..#H..#H..#
01A0: 48 1A 80 23 01 16 01 01  AA 01 42 02 02 10 02 80  H..#......B.....
01B0: 80 D2 01 02 02 00 02 80  80 C1 01 1A F1 1D 01 CF  ................
01C0: 01 02 02 00 05 80 80 CF  01 1A 3B 12 01 CF 01 01  ..........;.....
01D0: ED 02 02 02 10 05 80 80  F9 01 02 02 00 02 80 80  ................
01E0: E8 01 1A FF 1F 01 F6 01  02 02 00 05 80 80 F6 01  ................
01F0: 1A BE 13 01 F6 01 01 ED  02 02 02 10 0F 80 80 20  ............... 
0200: 02 02 02 00 02 80 80 0F  02 1A 6F 22 01 1D 02 02  ..........o"....
0210: 02 00 05 80 80 1D 02 1A  A3 15 01 1D 02 01 ED 02  ................
0220: 02 02 10 16 80 80 47 02  02 02 00 02 80 80 36 02  ......G.......6.
0230: 1A AF 24 01 44 02 02 02  00 05 80 80 44 02 1A 58  ..$.D.......D..X
0240: 17 01 44 02 01 ED 02 02  02 10 1C 80 80 6E 02 02  ..D..........n..
0250: 02 00 02 80 80 5D 02 1A  81 27 01 6B 02 02 02 00  .....]...'.k....
0260: 05 80 80 6B 02 1A 9F 19  01 6B 02 01 ED 02 02 02  ...k.....k......
0270: 10 1D 80 80 95 02 02 02  00 02 80 80 84 02 1A B8  ................
0280: 29 01 92 02 02 02 00 05  80 80 92 02 1A E2 1A 01  )...............
0290: 92 02 01 ED 02 02 02 10  21 80 80 AB 02 02 02 00  ........!.......
02A0: 05 80 00 A8 02 1A 3D 62  01 ED 02 02 02 10 22 80  ......=b......".
02B0: 80 C1 02 02 02 00 05 80  00 BE 02 1A 40 64 01 ED  ............@d..
02C0: 02 02 02 10 23 80 80 D7  02 02 02 00 05 80 00 D4  ....#...........
02D0: 02 1A 34 66 01 ED 02 02  02 10 24 80 80 ED 02 02  ..4f......$.....
02E0: 02 00 05 80 00 EA 02 1A  40 6A 01 ED 02 21 00     ........@j...!. 
```

#### Opcodes

```
  0: 0x010D [0x03] ExtData[1]->WorkLocal[2] = Work_Zone[3]
  1: 0x0112 [0x48] [System] [11245*]:
    → "You will now be warped to Dynamis - [Dummy/San d'Oria/Bastok/Windurst/Jeuno/Beaucedine/Xarcabard/Valkurm/Buburimu/Qufim/Tavnazia]."
  2: 0x0115 [0x23] WAIT_FOR_DIALOG_INTERACTION
  3: 0x0116 [0x24] CREATE_DIALOG(message_id=11246*, default_option=1*, option_flags=0*)
    → "Ready to warp to Dynamis - [Dummy/San d'Oria/Bastok/Windurst/Jeuno/Beaucedine/Xarcabard/Valkurm/Buburimu/Qufim/Tavnazia]? [Ready!/Ready! (Support jobs unlocked)./Ready! (Support jobs restricted)./Not yet./Entering Dynamis - [Dummy/San d'Oria/Bastok/Windurst/Jeuno/Beaucedine/Xarcabard/Valkurm/Buburimu/Qufim/Tavnazia]./Reentering Dynamis - [Dummy/San d'Oria/Bastok/Windurst/Jeuno/Beaucedine/Xarcabard/Valkurm/Buburimu/Qufim/Tavnazia]./Battles in Dynamis - [Dummy/San d'Oria/Bastok/Windurst/Jeuno/Beaucedine/Xarcabard/Valkurm/Buburimu/Qufim/Tavnazia].]"
  4: 0x011D [0x25] WAIT_DIALOG_SELECT()
  5: 0x011E [0x02] IF !(Work_Zone[0] == 1*) GOTO 0x0130
  6: 0x0126 [0x03] Work_Zone[1] = 1073741824*
  7: 0x012B [0x21] END_EVENT
  8: 0x012C [0x00] END_REQSTACK()

SUBROUTINE_01AA:
  9: 0x01AA [0x42] SET_CLI_EVENT_CANCEL_DATA()
 10: 0x01AB [0x02] IF !(Work_Zone[2] == 1*) GOTO 0x01D2
 11: 0x01B3 [0x02] IF !(ExtData[1]->WorkLocal[2] == 1*) GOTO 0x01C1
 12: 0x01BB [0x1A] CALL_SUBROUTINE(address=0x1DF1)
 13: 0x01BE [0x01] GOTO 0x01CF
 14: 0x01C1 [0x02] IF !(ExtData[1]->WorkLocal[2] == 2*) GOTO 0x01CF
 15: 0x01C9 [0x1A] CALL_SUBROUTINE(address=0x123B)
 16: 0x01CC [0x01] GOTO 0x01CF

SUBROUTINE_01CF:
 17: 0x01CF [0x01] GOTO 0x02ED
 18: 0x01D2 [0x02] IF !(Work_Zone[2] == 2*) GOTO 0x01F9
 19: 0x01DA [0x02] IF !(ExtData[1]->WorkLocal[2] == 1*) GOTO 0x01E8
 20: 0x01E2 [0x1A] CALL_SUBROUTINE(address=0x1FFF)
 21: 0x01E5 [0x01] GOTO 0x01F6
 22: 0x01E8 [0x02] IF !(ExtData[1]->WorkLocal[2] == 2*) GOTO 0x01F6
 23: 0x01F0 [0x1A] CALL_SUBROUTINE(address=0x13BE)
 24: 0x01F3 [0x01] GOTO 0x01F6

SUBROUTINE_01F6:
 25: 0x01F6 [0x01] GOTO 0x02ED
 26: 0x01F9 [0x02] IF !(Work_Zone[2] == 3*) GOTO 0x0220
 27: 0x0201 [0x02] IF !(ExtData[1]->WorkLocal[2] == 1*) GOTO 0x020F
 28: 0x0209 [0x1A] CALL_SUBROUTINE(address=0x226F)
 29: 0x020C [0x01] GOTO 0x021D
 30: 0x020F [0x02] IF !(ExtData[1]->WorkLocal[2] == 2*) GOTO 0x021D
 31: 0x0217 [0x1A] CALL_SUBROUTINE(address=0x15A3)
 32: 0x021A [0x01] GOTO 0x021D

SUBROUTINE_021D:
 33: 0x021D [0x01] GOTO 0x02ED
 34: 0x0220 [0x02] IF !(Work_Zone[2] == 4*) GOTO 0x0247
 35: 0x0228 [0x02] IF !(ExtData[1]->WorkLocal[2] == 1*) GOTO 0x0236
 36: 0x0230 [0x1A] CALL_SUBROUTINE(address=0x24AF)
 37: 0x0233 [0x01] GOTO 0x0244
 38: 0x0236 [0x02] IF !(ExtData[1]->WorkLocal[2] == 2*) GOTO 0x0244
 39: 0x023E [0x1A] CALL_SUBROUTINE(address=0x1758)
 40: 0x0241 [0x01] GOTO 0x0244

SUBROUTINE_0244:
 41: 0x0244 [0x01] GOTO 0x02ED
 42: 0x0247 [0x02] IF !(Work_Zone[2] == 5*) GOTO 0x026E
 43: 0x024F [0x02] IF !(ExtData[1]->WorkLocal[2] == 1*) GOTO 0x025D
 44: 0x0257 [0x1A] CALL_SUBROUTINE(address=0x2781)
 45: 0x025A [0x01] GOTO 0x026B
 46: 0x025D [0x02] IF !(ExtData[1]->WorkLocal[2] == 2*) GOTO 0x026B
 47: 0x0265 [0x1A] CALL_SUBROUTINE(address=0x199F)
 48: 0x0268 [0x01] GOTO 0x026B

SUBROUTINE_026B:
 49: 0x026B [0x01] GOTO 0x02ED
 50: 0x026E [0x02] IF !(Work_Zone[2] == 6*) GOTO 0x0295
 51: 0x0276 [0x02] IF !(ExtData[1]->WorkLocal[2] == 1*) GOTO 0x0284
 52: 0x027E [0x1A] CALL_SUBROUTINE(address=0x29B8)
 53: 0x0281 [0x01] GOTO 0x0292
 54: 0x0284 [0x02] IF !(ExtData[1]->WorkLocal[2] == 2*) GOTO 0x0292
 55: 0x028C [0x1A] CALL_SUBROUTINE(address=0x1AE2)
 56: 0x028F [0x01] GOTO 0x0292

SUBROUTINE_0292:
 57: 0x0292 [0x01] GOTO 0x02ED
 58: 0x0295 [0x02] IF !(Work_Zone[2] == 7*) GOTO 0x02AB
 59: 0x029D [0x02] IF !(ExtData[1]->WorkLocal[2] == 2*) GOTO 0x02A8
 60: 0x02A5 [0x1A] CALL_SUBROUTINE(address=0x623D)
 61: 0x02A8 [0x01] GOTO 0x02ED
 62: 0x02AB [0x02] IF !(Work_Zone[2] == 8*) GOTO 0x02C1
 63: 0x02B3 [0x02] IF !(ExtData[1]->WorkLocal[2] == 2*) GOTO 0x02BE
 64: 0x02BB [0x1A] CALL_SUBROUTINE(address=0x6440)
 65: 0x02BE [0x01] GOTO 0x02ED
 66: 0x02C1 [0x02] IF !(Work_Zone[2] == 9*) GOTO 0x02D7
 67: 0x02C9 [0x02] IF !(ExtData[1]->WorkLocal[2] == 2*) GOTO 0x02D4
 68: 0x02D1 [0x1A] CALL_SUBROUTINE(address=0x6634)
 69: 0x02D4 [0x01] GOTO 0x02ED
 70: 0x02D7 [0x02] IF !(Work_Zone[2] == 10*) GOTO 0x02ED
 71: 0x02DF [0x02] IF !(ExtData[1]->WorkLocal[2] == 2*) GOTO 0x02EA
 72: 0x02E7 [0x1A] CALL_SUBROUTINE(address=0x6A40)
 73: 0x02EA [0x01] GOTO 0x02ED

SUBROUTINE_02ED:
 74: 0x02ED [0x21] END_EVENT
 75: 0x02EE [0x00] END_REQSTACK()
```

#### Data or dead code:

```
# Dead code (unreachable instructions):
     0x012D [0x01] GOTO 0x01AA
     0x015F [0x01] GOTO 0x01AA
     0x0189 [0x01] GOTO 0x01AA
     0x01A7 [0x01] GOTO 0x01AA
```

### Event 10176

#### Metadata

| Field        | Value     |
|--------------|-----------|
| Entrypoint   | 0x02EF    |
| Data Size    | 564 bytes |
| Instructions | 92        |

```
      00 01 02 03 04 05 06 07  08 09 0A 0B 0C 0D 0E 0F
      -- -- -- -- -- -- -- --  -- -- -- -- -- -- -- --
02E0:                                               41                 A
02F0: 03 80 25 80 03 10 02 00  41 26 80 27 80 03 10 08  ..%.....A&.'....
0300: 00 02 05 10 02 80 00 11  03 03 07 00 02 80 01 16  ................
0310: 03 03 07 00 1D 80 02 08  00 03 80 02 25 03 3C 07  ............%.<.
0320: 00 1C 80 02 80 48 1E 80  23 24 1F 80 0F 80 07 00  .....H..#$......
0330: 25 02 00 10 03 80 00 41  03 03 01 10 03 80 01 DE  %......A........
0340: 03 02 00 10 02 80 00 51  03 03 01 10 03 80 01 DE  .......Q........
0350: 03 02 00 10 05 80 00 61  03 03 01 10 02 80 01 DE  .......a........
0360: 03 02 00 10 0F 80 00 73  03 03 01 10 04 80 21 00  .......s......!.
0370: 01 DE 03 02 00 10 16 80  00 A1 03 48 28 80 23 48  ...........H(.#H
0380: 29 80 23 48 2A 80 23 48  2B 80 23 48 2C 80 23 48  ).#H*.#H+.#H,.#H
0390: 2D 80 23 48 2E 80 23 48  2F 80 23 01 29 03 01 DE  -.#H..#H/.#.)...
03A0: 03 02 00 10 1C 80 00 C4  03 03 03 10 08 00 48 30  ..............H0
03B0: 80 23 48 31 80 23 48 32  80 23 48 33 80 23 01 29  .#H1.#H2.#H3.#.)
03C0: 03 01 DE 03 02 00 10 1D  80 00 DE 03 48 34 80 23  ............H4.#
03D0: 48 35 80 23 48 36 80 23  01 29 03 01 DE 03 42 02  H5.#H6.#.)....B.
03E0: 02 10 02 80 80 06 04 02  02 00 02 80 80 F5 03 1A  ................
03F0: F1 1D 01 03 04 02 02 00  05 80 80 03 04 1A 3B 12  ..............;.
0400: 01 03 04 01 21 05 02 02  10 05 80 80 2D 04 02 02  ....!.......-...
0410: 00 02 80 80 1C 04 1A FF  1F 01 2A 04 02 02 00 05  ..........*.....
0420: 80 80 2A 04 1A BE 13 01  2A 04 01 21 05 02 02 10  ..*.....*..!....
0430: 0F 80 80 54 04 02 02 00  02 80 80 43 04 1A 6F 22  ...T.......C..o"
0440: 01 51 04 02 02 00 05 80  80 51 04 1A A3 15 01 51  .Q.......Q.....Q
0450: 04 01 21 05 02 02 10 16  80 80 7B 04 02 02 00 02  ..!.......{.....
0460: 80 80 6A 04 1A AF 24 01  78 04 02 02 00 05 80 80  ..j...$.x.......
0470: 78 04 1A 58 17 01 78 04  01 21 05 02 02 10 1C 80  x..X..x..!......
0480: 80 A2 04 02 02 00 02 80  80 91 04 1A 81 27 01 9F  .............'..
0490: 04 02 02 00 05 80 80 9F  04 1A 9F 19 01 9F 04 01  ................
04A0: 21 05 02 02 10 1D 80 80  C9 04 02 02 00 02 80 80  !...............
04B0: B8 04 1A B8 29 01 C6 04  02 02 00 05 80 80 C6 04  ....)...........
04C0: 1A E2 1A 01 C6 04 01 21  05 02 02 10 21 80 80 DF  .......!....!...
04D0: 04 02 02 00 05 80 00 DC  04 1A 3D 62 01 21 05 02  ..........=b.!..
04E0: 02 10 22 80 80 F5 04 02  02 00 05 80 00 F2 04 1A  ..".............
04F0: 40 64 01 21 05 02 02 10  23 80 80 0B 05 02 02 00  @d.!....#.......
0500: 05 80 00 08 05 1A 34 66  01 21 05 02 02 10 24 80  ......4f.!....$.
0510: 80 21 05 02 02 00 05 80  00 1E 05 1A 40 6A 01 21  .!..........@j.!
0520: 05 21 00                                          .!.             
```

#### Opcodes

```
  0: 0x02EF [0x41] ExtData[1]->WorkLocal[2] = Work_Zone[3] (bits 0*-15*)
  1: 0x02F8 [0x41] ExtData[1]->WorkLocal[8] = Work_Zone[3] (bits 16*-31*)
  2: 0x0301 [0x02] IF !(Work_Zone[5] == 1*) GOTO 0x0311
  3: 0x0309 [0x03] ExtData[1]->WorkLocal[7] = 1*
  4: 0x030E [0x01] GOTO 0x0316
  5: 0x0311 [0x03] ExtData[1]->WorkLocal[7] = 6*

SUBROUTINE_0316:
  6: 0x0316 [0x02] IF !(ExtData[1]->WorkLocal[8] <= 0*) GOTO 0x0325
  7: 0x031E [0x3C] SET_BIT_FLAG_CONDITIONAL(target_work_offset=ExtData[1]->WorkLocal[7], bit_index_work_offset=5*, condition_work_offset=1*)
  8: 0x0325 [0x48] [System] [11245*]:
    → "You will now be warped to Dynamis - [Dummy/San d'Oria/Bastok/Windurst/Jeuno/Beaucedine/Xarcabard/Valkurm/Buburimu/Qufim/Tavnazia]."
  9: 0x0328 [0x23] WAIT_FOR_DIALOG_INTERACTION

SUBROUTINE_0329:
 10: 0x0329 [0x24] CREATE_DIALOG(message_id=11246*, default_option=3*, option_flags=ExtData[1]->WorkLocal[7])
    → "Ready to warp to Dynamis - [Dummy/San d'Oria/Bastok/Windurst/Jeuno/Beaucedine/Xarcabard/Valkurm/Buburimu/Qufim/Tavnazia]? [Ready!/Ready! (Support jobs unlocked)./Ready! (Support jobs restricted)./Not yet./Entering Dynamis - [Dummy/San d'Oria/Bastok/Windurst/Jeuno/Beaucedine/Xarcabard/Valkurm/Buburimu/Qufim/Tavnazia]./Reentering Dynamis - [Dummy/San d'Oria/Bastok/Windurst/Jeuno/Beaucedine/Xarcabard/Valkurm/Buburimu/Qufim/Tavnazia]./Battles in Dynamis - [Dummy/San d'Oria/Bastok/Windurst/Jeuno/Beaucedine/Xarcabard/Valkurm/Buburimu/Qufim/Tavnazia].]"
 11: 0x0330 [0x25] WAIT_DIALOG_SELECT()
 12: 0x0331 [0x02] IF !(Work_Zone[0] == 0*) GOTO 0x0341
 13: 0x0339 [0x03] Work_Zone[1] = 0*
 14: 0x033E [0x01] GOTO 0x03DE
 15: 0x0341 [0x02] IF !(Work_Zone[0] == 1*) GOTO 0x0351
 16: 0x0349 [0x03] Work_Zone[1] = 0*
 17: 0x034E [0x01] GOTO 0x03DE
 18: 0x0351 [0x02] IF !(Work_Zone[0] == 2*) GOTO 0x0361
 19: 0x0359 [0x03] Work_Zone[1] = 1*
 20: 0x035E [0x01] GOTO 0x03DE
 21: 0x0361 [0x02] IF !(Work_Zone[0] == 3*) GOTO 0x0373
 22: 0x0369 [0x03] Work_Zone[1] = 1073741824*
 23: 0x036E [0x21] END_EVENT
 24: 0x036F [0x00] END_REQSTACK()

SUBROUTINE_03DE:
 25: 0x03DE [0x42] SET_CLI_EVENT_CANCEL_DATA()
 26: 0x03DF [0x02] IF !(Work_Zone[2] == 1*) GOTO 0x0406
 27: 0x03E7 [0x02] IF !(ExtData[1]->WorkLocal[2] == 1*) GOTO 0x03F5
 28: 0x03EF [0x1A] CALL_SUBROUTINE(address=0x1DF1)
 29: 0x03F2 [0x01] GOTO 0x0403
 30: 0x03F5 [0x02] IF !(ExtData[1]->WorkLocal[2] == 2*) GOTO 0x0403
 31: 0x03FD [0x1A] CALL_SUBROUTINE(address=0x123B)
 32: 0x0400 [0x01] GOTO 0x0403

SUBROUTINE_0403:
 33: 0x0403 [0x01] GOTO 0x0521
 34: 0x0406 [0x02] IF !(Work_Zone[2] == 2*) GOTO 0x042D
 35: 0x040E [0x02] IF !(ExtData[1]->WorkLocal[2] == 1*) GOTO 0x041C
 36: 0x0416 [0x1A] CALL_SUBROUTINE(address=0x1FFF)
 37: 0x0419 [0x01] GOTO 0x042A
 38: 0x041C [0x02] IF !(ExtData[1]->WorkLocal[2] == 2*) GOTO 0x042A
 39: 0x0424 [0x1A] CALL_SUBROUTINE(address=0x13BE)
 40: 0x0427 [0x01] GOTO 0x042A

SUBROUTINE_042A:
 41: 0x042A [0x01] GOTO 0x0521
 42: 0x042D [0x02] IF !(Work_Zone[2] == 3*) GOTO 0x0454
 43: 0x0435 [0x02] IF !(ExtData[1]->WorkLocal[2] == 1*) GOTO 0x0443
 44: 0x043D [0x1A] CALL_SUBROUTINE(address=0x226F)
 45: 0x0440 [0x01] GOTO 0x0451
 46: 0x0443 [0x02] IF !(ExtData[1]->WorkLocal[2] == 2*) GOTO 0x0451
 47: 0x044B [0x1A] CALL_SUBROUTINE(address=0x15A3)
 48: 0x044E [0x01] GOTO 0x0451

SUBROUTINE_0451:
 49: 0x0451 [0x01] GOTO 0x0521
 50: 0x0454 [0x02] IF !(Work_Zone[2] == 4*) GOTO 0x047B
 51: 0x045C [0x02] IF !(ExtData[1]->WorkLocal[2] == 1*) GOTO 0x046A
 52: 0x0464 [0x1A] CALL_SUBROUTINE(address=0x24AF)
 53: 0x0467 [0x01] GOTO 0x0478
 54: 0x046A [0x02] IF !(ExtData[1]->WorkLocal[2] == 2*) GOTO 0x0478
 55: 0x0472 [0x1A] CALL_SUBROUTINE(address=0x1758)
 56: 0x0475 [0x01] GOTO 0x0478

SUBROUTINE_0478:
 57: 0x0478 [0x01] GOTO 0x0521
 58: 0x047B [0x02] IF !(Work_Zone[2] == 5*) GOTO 0x04A2
 59: 0x0483 [0x02] IF !(ExtData[1]->WorkLocal[2] == 1*) GOTO 0x0491
 60: 0x048B [0x1A] CALL_SUBROUTINE(address=0x2781)
 61: 0x048E [0x01] GOTO 0x049F
 62: 0x0491 [0x02] IF !(ExtData[1]->WorkLocal[2] == 2*) GOTO 0x049F
 63: 0x0499 [0x1A] CALL_SUBROUTINE(address=0x199F)
 64: 0x049C [0x01] GOTO 0x049F

SUBROUTINE_049F:
 65: 0x049F [0x01] GOTO 0x0521
 66: 0x04A2 [0x02] IF !(Work_Zone[2] == 6*) GOTO 0x04C9
 67: 0x04AA [0x02] IF !(ExtData[1]->WorkLocal[2] == 1*) GOTO 0x04B8
 68: 0x04B2 [0x1A] CALL_SUBROUTINE(address=0x29B8)
 69: 0x04B5 [0x01] GOTO 0x04C6
 70: 0x04B8 [0x02] IF !(ExtData[1]->WorkLocal[2] == 2*) GOTO 0x04C6
 71: 0x04C0 [0x1A] CALL_SUBROUTINE(address=0x1AE2)
 72: 0x04C3 [0x01] GOTO 0x04C6

SUBROUTINE_04C6:
 73: 0x04C6 [0x01] GOTO 0x0521
 74: 0x04C9 [0x02] IF !(Work_Zone[2] == 7*) GOTO 0x04DF
 75: 0x04D1 [0x02] IF !(ExtData[1]->WorkLocal[2] == 2*) GOTO 0x04DC
 76: 0x04D9 [0x1A] CALL_SUBROUTINE(address=0x623D)
 77: 0x04DC [0x01] GOTO 0x0521
 78: 0x04DF [0x02] IF !(Work_Zone[2] == 8*) GOTO 0x04F5
 79: 0x04E7 [0x02] IF !(ExtData[1]->WorkLocal[2] == 2*) GOTO 0x04F2
 80: 0x04EF [0x1A] CALL_SUBROUTINE(address=0x6440)
 81: 0x04F2 [0x01] GOTO 0x0521
 82: 0x04F5 [0x02] IF !(Work_Zone[2] == 9*) GOTO 0x050B
 83: 0x04FD [0x02] IF !(ExtData[1]->WorkLocal[2] == 2*) GOTO 0x0508
 84: 0x0505 [0x1A] CALL_SUBROUTINE(address=0x6634)
 85: 0x0508 [0x01] GOTO 0x0521
 86: 0x050B [0x02] IF !(Work_Zone[2] == 10*) GOTO 0x0521
 87: 0x0513 [0x02] IF !(ExtData[1]->WorkLocal[2] == 2*) GOTO 0x051E
 88: 0x051B [0x1A] CALL_SUBROUTINE(address=0x6A40)
 89: 0x051E [0x01] GOTO 0x0521

SUBROUTINE_0521:
 90: 0x0521 [0x21] END_EVENT
 91: 0x0522 [0x00] END_REQSTACK()
```

#### Data or dead code:

```
# Dead code (unreachable instructions):
     0x0370 [0x01] GOTO 0x03DE
     0x039E [0x01] GOTO 0x03DE
     0x03C1 [0x01] GOTO 0x03DE
     0x03DB [0x01] GOTO 0x03DE
```

### Event 10013

#### Metadata

| Field        | Value     |
|--------------|-----------|
| Entrypoint   | 0x0523    |
| Data Size    | 453 bytes |
| Instructions | 57        |

```
      00 01 02 03 04 05 06 07  08 09 0A 0B 0C 0D 0E 0F
      -- -- -- -- -- -- -- --  -- -- -- -- -- -- -- --
0520:          42 1A 35 4F 46  01 38 37 80 27 10 5A 30     B.5OF.87.'.Z0
0530: 0F 01 08 27 10 F0 FF FF  7F 43 27 10 5A 30 0F 01  ...'.....C'.Z0..
0540: 0A 4A 5A 30 0F 01 F0 FF  FF 7F 45 38 80 F0 FF FF  .JZ0......E8....
0550: 7F F0 FF FF 7F 73 64 30  31 03 80 1A 14 4F 6E F0  .....sd01....On.
0560: FF FF 7F 39 80 99 F0 FF  FF 7F 99 F0 FF FF 7F 27  ...9...........'
0570: 10 5B 30 0F 01 08 62 3A  80 5A 30 0F 01 5A 30 0F  .[0...b:.Z0..Z0.
0580: 01 6B 6F 6E 65 03 80 1C  3B 80 4A F0 FF FF 7F 5A  .kone...;.J....Z
0590: 30 0F 01 2A 10 5B 30 0F  01 52 38 80 F0 FF FF 7F  0..*.[0..R8.....
05A0: F0 FF FF 7F 73 64 30 31  45 38 80 F0 FF FF 7F F0  ....sd01E8......
05B0: FF FF 7F 73 64 30 32 03  80 2B 5A 30 0F 01 3C 80  ...sd02..+Z0..<.
05C0: 23 66 24 80 5A 30 0F 01  5A 30 0F 01 74 68 6B 31  #f$.Z0..Z0..thk1
05D0: 52 38 80 F0 FF FF 7F F0  FF FF 7F 73 64 30 32 45  R8.........sd02E
05E0: 38 80 F0 FF FF 7F F0 FF  FF 7F 73 64 30 34 03 80  8.........sd04..
05F0: 2B 5A 30 0F 01 3D 80 23  66 24 80 5A 30 0F 01 5A  +Z0..=.#f$.Z0..Z
0600: 30 0F 01 74 68 6B 32 53  5A 30 0F 01 5A 30 0F 01  0..thk2SZ0..Z0..
0610: 74 68 6B 32 1C 3E 80 03  02 10 3F 80 66 24 80 5A  thk2.>....?.f$.Z
0620: 30 0F 01 5A 30 0F 01 74  6C 6B 30 52 38 80 F0 FF  0..Z0..tlk0R8...
0630: FF 7F F0 FF FF 7F 73 64  30 34 45 38 80 F0 FF FF  ......sd04E8....
0640: 7F F0 FF FF 7F 73 64 30  35 03 80 03 02 10 40 80  .....sd05.....@.
0650: 2B 5A 30 0F 01 41 80 23  03 02 10 40 80 2B 5A 30  +Z0..A.#...@.+Z0
0660: 0F 01 42 80 23 66 24 80  5A 30 0F 01 5A 30 0F 01  ..B.#f$.Z0..Z0..
0670: 74 6C 6B 31 53 5A 30 0F  01 5A 30 0F 01 74 6C 6B  tlk1SZ0..Z0..tlk
0680: 31 03 02 10 3F 80 52 38  80 F0 FF FF 7F F0 FF FF  1...?.R8........
0690: 7F 73 64 30 35 45 38 80  F0 FF FF 7F F0 FF FF 7F  .sd05E8.........
06A0: 73 64 30 33 03 80 03 02  10 40 80 2B 5A 30 0F 01  sd03.....@.+Z0..
06B0: 43 80 23 27 10 5B 30 0F  01 09 62 3A 80 5A 30 0F  C.#'.[0...b:.Z0.
06C0: 01 5A 30 0F 01 6B 6F 6E  31 03 80 1C 44 80 1A 35  .Z0..kon1...D..5
06D0: 4F 1C 45 80 52 38 80 F0  FF FF 7F F0 FF FF 7F 73  O.E.R8.........s
06E0: 64 30 33 1A 66 2D 21 00                           d03.f-!.        
```

#### Opcodes

```
  0: 0x0523 [0x42] SET_CLI_EVENT_CANCEL_DATA()
  1: 0x0524 [0x1A] CALL_SUBROUTINE(address=0x4F35)
  2: 0x0527 [0x46] CAMERA_CONTROL: Disable user control
  3: 0x0529 [0x38] SET_CLIENT_EVENT_MODE(mode=19*)
  4: 0x052C [0x27] REQ_SET(priority=0x10, entity_id=Cornelia (ID: 17772634/0x010F305A), tag_num=0x08)
  5: 0x0533 [0x27] REQ_SET(priority=0x10, entity_id=LocalPlayer, tag_num=0x43)
  6: 0x053A [0x27] REQ_SET(priority=0x10, entity_id=Cornelia (ID: 17772634/0x010F305A), tag_num=0x0A)
  7: 0x0541 [0x4A] Cornelia (ID: 17772634/0x010F305A) looks at LocalPlayer
  8: 0x054A [0x45] LOAD_SCHEDULED_TASK: Load scheduler "sd01" with entities [LocalPlayer, LocalPlayer], work=[232*, 0*]
  9: 0x055B [0x1A] CALL_SUBROUTINE(address=0x4F14)
 10: 0x055E [0x6E] LocalPlayer uses emote 39*
 11: 0x0565 [0x99] Wait for LocalPlayer animation to complete
 12: 0x056A [0x99] Wait for LocalPlayer animation to complete
 13: 0x056F [0x27] REQ_SET(priority=0x10, entity_id=Unnamed NPC (ID: 17772635/0x010F305B), tag_num=0x08)
 14: 0x0576 [0x62] LOAD_EVENT_SCHEDULER: Load scheduler "kone" with entities [Cornelia (ID: 17772634/0x010F305A), Cornelia (ID: 17772634/0x010F305A)], work=[22*, 0*]
 15: 0x0587 [0x1C] WAIT(60* ticks)
 16: 0x058A [0x4A] LocalPlayer looks at Cornelia (ID: 17772634/0x010F305A)
 17: 0x0593 [0x2A] GET_REQ_LEVEL(level=16, entity_id=Unnamed NPC (ID: 17772635/0x010F305B))
 18: 0x0599 [0x52] END_LOAD_SCHEDULER: End scheduler "sd01" with entities [LocalPlayer, LocalPlayer], work=232*
 19: 0x05A8 [0x45] LOAD_SCHEDULED_TASK: Load scheduler "sd02" with entities [LocalPlayer, LocalPlayer], work=[232*, 0*]
 20: 0x05B9 [0x2B] Cornelia (ID: 17772634/0x010F305A) [11263*]:
    → "I see you have met with Raogrimm. His soul is no longer confined to that incarnation of rage, the Shadow Lord, yet the fact remains that he has committed sins beyond redemption."
 21: 0x05C0 [0x23] WAIT_FOR_DIALOG_INTERACTION
 22: 0x05C1 [0x66] LOAD_EXT_SCHEDULER_MAIN: Load scheduler "thk1" with entities [Cornelia (ID: 17772634/0x010F305A), Cornelia (ID: 17772634/0x010F305A)], work=10*
 23: 0x05D0 [0x52] END_LOAD_SCHEDULER: End scheduler "sd02" with entities [LocalPlayer, LocalPlayer], work=232*
 24: 0x05DF [0x45] LOAD_SCHEDULED_TASK: Load scheduler "sd04" with entities [LocalPlayer, LocalPlayer], work=[232*, 0*]
 25: 0x05F0 [0x2B] Cornelia (ID: 17772634/0x010F305A) [11264*]:
    → "In spite of those sins, I still wish to rescue him from the darkness. I no longer have a mortal body with which to act, and so the most I can do is guide you in my stead."
 26: 0x05F7 [0x23] WAIT_FOR_DIALOG_INTERACTION
 27: 0x05F8 [0x66] LOAD_EXT_SCHEDULER_MAIN: Load scheduler "thk2" with entities [Cornelia (ID: 17772634/0x010F305A), Cornelia (ID: 17772634/0x010F305A)], work=10*
 28: 0x0607 [0x53] WAIT_SCHEDULER_TASK: Wait for scheduler "thk2" with entities [Cornelia (ID: 17772634/0x010F305A), Cornelia (ID: 17772634/0x010F305A)]
 29: 0x0614 [0x1C] WAIT(45* ticks)
 30: 0x0617 [0x03] Work_Zone[2] = 4236*
 31: 0x061C [0x66] LOAD_EXT_SCHEDULER_MAIN: Load scheduler "tlk0" with entities [Cornelia (ID: 17772634/0x010F305A), Cornelia (ID: 17772634/0x010F305A)], work=10*
 32: 0x062B [0x52] END_LOAD_SCHEDULER: End scheduler "sd04" with entities [LocalPlayer, LocalPlayer], work=232*
 33: 0x063A [0x45] LOAD_SCHEDULED_TASK: Load scheduler "sd05" with entities [LocalPlayer, LocalPlayer], work=[232*, 0*]
 34: 0x064B [0x03] Work_Zone[2] = 1550*
 35: 0x0650 [0x2B] Cornelia (ID: 17772634/0x010F305A) [11265*]:
    → "You will need the $3, a key that bridges the void between Vana'diel and that other world."
 36: 0x0657 [0x23] WAIT_FOR_DIALOG_INTERACTION
 37: 0x0658 [0x03] Work_Zone[2] = 1550*
 38: 0x065D [0x2B] Cornelia (ID: 17772634/0x010F305A) [11266*]:
    → "It is said that there are items in this world that gain a soul of their own through contact with the thoughts and dreams of other living creatures. The $3 is one of those items."
 39: 0x0664 [0x23] WAIT_FOR_DIALOG_INTERACTION
 40: 0x0665 [0x66] LOAD_EXT_SCHEDULER_MAIN: Load scheduler "tlk1" with entities [Cornelia (ID: 17772634/0x010F305A), Cornelia (ID: 17772634/0x010F305A)], work=10*
 41: 0x0674 [0x53] WAIT_SCHEDULER_TASK: Wait for scheduler "tlk1" with entities [Cornelia (ID: 17772634/0x010F305A), Cornelia (ID: 17772634/0x010F305A)]
 42: 0x0681 [0x03] Work_Zone[2] = 4236*
 43: 0x0686 [0x52] END_LOAD_SCHEDULER: End scheduler "sd05" with entities [LocalPlayer, LocalPlayer], work=232*
 44: 0x0695 [0x45] LOAD_SCHEDULED_TASK: Load scheduler "sd03" with entities [LocalPlayer, LocalPlayer], work=[232*, 0*]
 45: 0x06A6 [0x03] Work_Zone[2] = 1550*
 46: 0x06AB [0x2B] Cornelia (ID: 17772634/0x010F305A) [11267*]:
    → "You must look for the Goblin peddlers. They are certain to have knowledge of the $3. When you have it safely within your grasp, seek out the markings that we left behind..."
 47: 0x06B2 [0x23] WAIT_FOR_DIALOG_INTERACTION
 48: 0x06B3 [0x27] REQ_SET(priority=0x10, entity_id=Unnamed NPC (ID: 17772635/0x010F305B), tag_num=0x09)
 49: 0x06BA [0x62] LOAD_EVENT_SCHEDULER: Load scheduler "kon1" with entities [Cornelia (ID: 17772634/0x010F305A), Cornelia (ID: 17772634/0x010F305A)], work=[22*, 0*]
 50: 0x06CB [0x1C] WAIT(150* ticks)
 51: 0x06CE [0x1A] CALL_SUBROUTINE(address=0x4F35)
 52: 0x06D1 [0x1C] WAIT(30* ticks)
 53: 0x06D4 [0x52] END_LOAD_SCHEDULER: End scheduler "sd03" with entities [LocalPlayer, LocalPlayer], work=232*
 54: 0x06E3 [0x1A] CALL_SUBROUTINE(address=0x2D66)
 55: 0x06E6 [0x21] END_EVENT
 56: 0x06E7 [0x00] END_REQSTACK()
```

### Event 10014

#### Metadata

| Field        | Value     |
|--------------|-----------|
| Entrypoint   | 0x06E8    |
| Data Size    | 453 bytes |
| Instructions | 57        |

```
      00 01 02 03 04 05 06 07  08 09 0A 0B 0C 0D 0E 0F
      -- -- -- -- -- -- -- --  -- -- -- -- -- -- -- --
06E0:                          42 1A 35 4F 46 01 38 37          B.5OF.87
06F0: 80 27 10 5A 30 0F 01 08  27 10 F0 FF FF 7F 44 27  .'.Z0...'.....D'
0700: 10 5A 30 0F 01 0B 4A 5A  30 0F 01 F0 FF FF 7F 45  .Z0...JZ0......E
0710: 38 80 F0 FF FF 7F F0 FF  FF 7F 62 73 30 31 03 80  8.........bs01..
0720: 1A 14 4F 6E F0 FF FF 7F  39 80 99 F0 FF FF 7F 99  ..On....9.......
0730: F0 FF FF 7F 27 10 5B 30  0F 01 08 62 3A 80 5A 30  ....'.[0...b:.Z0
0740: 0F 01 5A 30 0F 01 6B 6F  6E 65 03 80 1C 3B 80 4A  ..Z0..kone...;.J
0750: F0 FF FF 7F 5A 30 0F 01  2A 10 5B 30 0F 01 52 38  ....Z0..*.[0..R8
0760: 80 F0 FF FF 7F F0 FF FF  7F 62 73 30 31 45 38 80  .........bs01E8.
0770: F0 FF FF 7F F0 FF FF 7F  62 73 30 32 03 80 2B 5A  ........bs02..+Z
0780: 30 0F 01 3C 80 23 66 24  80 5A 30 0F 01 5A 30 0F  0..<.#f$.Z0..Z0.
0790: 01 74 68 6B 31 52 38 80  F0 FF FF 7F F0 FF FF 7F  .thk1R8.........
07A0: 62 73 30 32 45 38 80 F0  FF FF 7F F0 FF FF 7F 62  bs02E8.........b
07B0: 73 30 33 03 80 2B 5A 30  0F 01 3D 80 23 66 24 80  s03..+Z0..=.#f$.
07C0: 5A 30 0F 01 5A 30 0F 01  74 68 6B 32 53 5A 30 0F  Z0..Z0..thk2SZ0.
07D0: 01 5A 30 0F 01 74 68 6B  32 1C 3E 80 03 02 10 3F  .Z0..thk2.>....?
07E0: 80 66 24 80 5A 30 0F 01  5A 30 0F 01 74 6C 6B 30  .f$.Z0..Z0..tlk0
07F0: 52 38 80 F0 FF FF 7F F0  FF FF 7F 62 73 30 33 45  R8.........bs03E
0800: 38 80 F0 FF FF 7F F0 FF  FF 7F 62 73 30 34 03 80  8.........bs04..
0810: 03 02 10 40 80 2B 5A 30  0F 01 41 80 23 03 02 10  ...@.+Z0..A.#...
0820: 40 80 2B 5A 30 0F 01 42  80 23 66 24 80 5A 30 0F  @.+Z0..B.#f$.Z0.
0830: 01 5A 30 0F 01 74 6C 6B  31 53 5A 30 0F 01 5A 30  .Z0..tlk1SZ0..Z0
0840: 0F 01 74 6C 6B 31 03 02  10 3F 80 52 38 80 F0 FF  ..tlk1...?.R8...
0850: FF 7F F0 FF FF 7F 62 73  30 34 45 38 80 F0 FF FF  ......bs04E8....
0860: 7F F0 FF FF 7F 62 73 30  35 03 80 03 02 10 40 80  .....bs05.....@.
0870: 2B 5A 30 0F 01 43 80 23  27 10 5B 30 0F 01 09 62  +Z0..C.#'.[0...b
0880: 3A 80 5A 30 0F 01 5A 30  0F 01 6B 6F 6E 31 03 80  :.Z0..Z0..kon1..
0890: 1C 44 80 1A 35 4F 1C 45  80 52 38 80 F0 FF FF 7F  .D..5O.E.R8.....
08A0: F0 FF FF 7F 62 73 30 35  1A 66 2D 21 00           ....bs05.f-!.   
```

#### Opcodes

```
  0: 0x06E8 [0x42] SET_CLI_EVENT_CANCEL_DATA()
  1: 0x06E9 [0x1A] CALL_SUBROUTINE(address=0x4F35)
  2: 0x06EC [0x46] CAMERA_CONTROL: Disable user control
  3: 0x06EE [0x38] SET_CLIENT_EVENT_MODE(mode=19*)
  4: 0x06F1 [0x27] REQ_SET(priority=0x10, entity_id=Cornelia (ID: 17772634/0x010F305A), tag_num=0x08)
  5: 0x06F8 [0x27] REQ_SET(priority=0x10, entity_id=LocalPlayer, tag_num=0x44)
  6: 0x06FF [0x27] REQ_SET(priority=0x10, entity_id=Cornelia (ID: 17772634/0x010F305A), tag_num=0x0B)
  7: 0x0706 [0x4A] Cornelia (ID: 17772634/0x010F305A) looks at LocalPlayer
  8: 0x070F [0x45] LOAD_SCHEDULED_TASK: Load scheduler "bs01" with entities [LocalPlayer, LocalPlayer], work=[232*, 0*]
  9: 0x0720 [0x1A] CALL_SUBROUTINE(address=0x4F14)
 10: 0x0723 [0x6E] LocalPlayer uses emote 39*
 11: 0x072A [0x99] Wait for LocalPlayer animation to complete
 12: 0x072F [0x99] Wait for LocalPlayer animation to complete
 13: 0x0734 [0x27] REQ_SET(priority=0x10, entity_id=Unnamed NPC (ID: 17772635/0x010F305B), tag_num=0x08)
 14: 0x073B [0x62] LOAD_EVENT_SCHEDULER: Load scheduler "kone" with entities [Cornelia (ID: 17772634/0x010F305A), Cornelia (ID: 17772634/0x010F305A)], work=[22*, 0*]
 15: 0x074C [0x1C] WAIT(60* ticks)
 16: 0x074F [0x4A] LocalPlayer looks at Cornelia (ID: 17772634/0x010F305A)
 17: 0x0758 [0x2A] GET_REQ_LEVEL(level=16, entity_id=Unnamed NPC (ID: 17772635/0x010F305B))
 18: 0x075E [0x52] END_LOAD_SCHEDULER: End scheduler "bs01" with entities [LocalPlayer, LocalPlayer], work=232*
 19: 0x076D [0x45] LOAD_SCHEDULED_TASK: Load scheduler "bs02" with entities [LocalPlayer, LocalPlayer], work=[232*, 0*]
 20: 0x077E [0x2B] Cornelia (ID: 17772634/0x010F305A) [11263*]:
    → "I see you have met with Raogrimm. His soul is no longer confined to that incarnation of rage, the Shadow Lord, yet the fact remains that he has committed sins beyond redemption."
 21: 0x0785 [0x23] WAIT_FOR_DIALOG_INTERACTION
 22: 0x0786 [0x66] LOAD_EXT_SCHEDULER_MAIN: Load scheduler "thk1" with entities [Cornelia (ID: 17772634/0x010F305A), Cornelia (ID: 17772634/0x010F305A)], work=10*
 23: 0x0795 [0x52] END_LOAD_SCHEDULER: End scheduler "bs02" with entities [LocalPlayer, LocalPlayer], work=232*
 24: 0x07A4 [0x45] LOAD_SCHEDULED_TASK: Load scheduler "bs03" with entities [LocalPlayer, LocalPlayer], work=[232*, 0*]
 25: 0x07B5 [0x2B] Cornelia (ID: 17772634/0x010F305A) [11264*]:
    → "In spite of those sins, I still wish to rescue him from the darkness. I no longer have a mortal body with which to act, and so the most I can do is guide you in my stead."
 26: 0x07BC [0x23] WAIT_FOR_DIALOG_INTERACTION
 27: 0x07BD [0x66] LOAD_EXT_SCHEDULER_MAIN: Load scheduler "thk2" with entities [Cornelia (ID: 17772634/0x010F305A), Cornelia (ID: 17772634/0x010F305A)], work=10*
 28: 0x07CC [0x53] WAIT_SCHEDULER_TASK: Wait for scheduler "thk2" with entities [Cornelia (ID: 17772634/0x010F305A), Cornelia (ID: 17772634/0x010F305A)]
 29: 0x07D9 [0x1C] WAIT(45* ticks)
 30: 0x07DC [0x03] Work_Zone[2] = 4236*
 31: 0x07E1 [0x66] LOAD_EXT_SCHEDULER_MAIN: Load scheduler "tlk0" with entities [Cornelia (ID: 17772634/0x010F305A), Cornelia (ID: 17772634/0x010F305A)], work=10*
 32: 0x07F0 [0x52] END_LOAD_SCHEDULER: End scheduler "bs03" with entities [LocalPlayer, LocalPlayer], work=232*
 33: 0x07FF [0x45] LOAD_SCHEDULED_TASK: Load scheduler "bs04" with entities [LocalPlayer, LocalPlayer], work=[232*, 0*]
 34: 0x0810 [0x03] Work_Zone[2] = 1550*
 35: 0x0815 [0x2B] Cornelia (ID: 17772634/0x010F305A) [11265*]:
    → "You will need the $3, a key that bridges the void between Vana'diel and that other world."
 36: 0x081C [0x23] WAIT_FOR_DIALOG_INTERACTION
 37: 0x081D [0x03] Work_Zone[2] = 1550*
 38: 0x0822 [0x2B] Cornelia (ID: 17772634/0x010F305A) [11266*]:
    → "It is said that there are items in this world that gain a soul of their own through contact with the thoughts and dreams of other living creatures. The $3 is one of those items."
 39: 0x0829 [0x23] WAIT_FOR_DIALOG_INTERACTION
 40: 0x082A [0x66] LOAD_EXT_SCHEDULER_MAIN: Load scheduler "tlk1" with entities [Cornelia (ID: 17772634/0x010F305A), Cornelia (ID: 17772634/0x010F305A)], work=10*
 41: 0x0839 [0x53] WAIT_SCHEDULER_TASK: Wait for scheduler "tlk1" with entities [Cornelia (ID: 17772634/0x010F305A), Cornelia (ID: 17772634/0x010F305A)]
 42: 0x0846 [0x03] Work_Zone[2] = 4236*
 43: 0x084B [0x52] END_LOAD_SCHEDULER: End scheduler "bs04" with entities [LocalPlayer, LocalPlayer], work=232*
 44: 0x085A [0x45] LOAD_SCHEDULED_TASK: Load scheduler "bs05" with entities [LocalPlayer, LocalPlayer], work=[232*, 0*]
 45: 0x086B [0x03] Work_Zone[2] = 1550*
 46: 0x0870 [0x2B] Cornelia (ID: 17772634/0x010F305A) [11267*]:
    → "You must look for the Goblin peddlers. They are certain to have knowledge of the $3. When you have it safely within your grasp, seek out the markings that we left behind..."
 47: 0x0877 [0x23] WAIT_FOR_DIALOG_INTERACTION
 48: 0x0878 [0x27] REQ_SET(priority=0x10, entity_id=Unnamed NPC (ID: 17772635/0x010F305B), tag_num=0x09)
 49: 0x087F [0x62] LOAD_EVENT_SCHEDULER: Load scheduler "kon1" with entities [Cornelia (ID: 17772634/0x010F305A), Cornelia (ID: 17772634/0x010F305A)], work=[22*, 0*]
 50: 0x0890 [0x1C] WAIT(150* ticks)
 51: 0x0893 [0x1A] CALL_SUBROUTINE(address=0x4F35)
 52: 0x0896 [0x1C] WAIT(30* ticks)
 53: 0x0899 [0x52] END_LOAD_SCHEDULER: End scheduler "bs05" with entities [LocalPlayer, LocalPlayer], work=232*
 54: 0x08A8 [0x1A] CALL_SUBROUTINE(address=0x2D66)
 55: 0x08AB [0x21] END_EVENT
 56: 0x08AC [0x00] END_REQSTACK()
```

### Event 10015

#### Metadata

| Field        | Value     |
|--------------|-----------|
| Entrypoint   | 0x08AD    |
| Data Size    | 453 bytes |
| Instructions | 57        |

```
      00 01 02 03 04 05 06 07  08 09 0A 0B 0C 0D 0E 0F
      -- -- -- -- -- -- -- --  -- -- -- -- -- -- -- --
08A0:                                         42 1A 35               B.5
08B0: 4F 46 01 38 37 80 27 10  5A 30 0F 01 08 27 10 F0  OF.87.'.Z0...'..
08C0: FF FF 7F 45 27 10 5A 30  0F 01 0C 4A 5A 30 0F 01  ...E'.Z0...JZ0..
08D0: F0 FF FF 7F 45 38 80 F0  FF FF 7F F0 FF FF 7F 77  ....E8.........w
08E0: 73 30 31 03 80 1A 14 4F  6E F0 FF FF 7F 39 80 99  s01....On....9..
08F0: F0 FF FF 7F 99 F0 FF FF  7F 27 10 5B 30 0F 01 08  .........'.[0...
0900: 62 3A 80 5A 30 0F 01 5A  30 0F 01 6B 6F 6E 65 03  b:.Z0..Z0..kone.
0910: 80 1C 3B 80 4A F0 FF FF  7F 5A 30 0F 01 2A 10 5B  ..;.J....Z0..*.[
0920: 30 0F 01 52 38 80 F0 FF  FF 7F F0 FF FF 7F 77 73  0..R8.........ws
0930: 30 31 45 38 80 F0 FF FF  7F F0 FF FF 7F 77 73 30  01E8.........ws0
0940: 32 03 80 2B 5A 30 0F 01  3C 80 23 66 24 80 5A 30  2..+Z0..<.#f$.Z0
0950: 0F 01 5A 30 0F 01 74 68  6B 31 52 38 80 F0 FF FF  ..Z0..thk1R8....
0960: 7F F0 FF FF 7F 77 73 30  32 45 38 80 F0 FF FF 7F  .....ws02E8.....
0970: F0 FF FF 7F 77 73 30 33  03 80 2B 5A 30 0F 01 3D  ....ws03..+Z0..=
0980: 80 23 66 24 80 5A 30 0F  01 5A 30 0F 01 74 68 6B  .#f$.Z0..Z0..thk
0990: 32 53 5A 30 0F 01 5A 30  0F 01 74 68 6B 32 1C 3E  2SZ0..Z0..thk2.>
09A0: 80 03 02 10 3F 80 66 24  80 5A 30 0F 01 5A 30 0F  ....?.f$.Z0..Z0.
09B0: 01 74 6C 6B 30 52 38 80  F0 FF FF 7F F0 FF FF 7F  .tlk0R8.........
09C0: 77 73 30 33 45 38 80 F0  FF FF 7F F0 FF FF 7F 77  ws03E8.........w
09D0: 73 30 34 03 80 03 02 10  40 80 2B 5A 30 0F 01 41  s04.....@.+Z0..A
09E0: 80 23 03 02 10 40 80 2B  5A 30 0F 01 42 80 23 66  .#...@.+Z0..B.#f
09F0: 24 80 5A 30 0F 01 5A 30  0F 01 74 6C 6B 31 53 5A  $.Z0..Z0..tlk1SZ
0A00: 30 0F 01 5A 30 0F 01 74  6C 6B 31 03 02 10 3F 80  0..Z0..tlk1...?.
0A10: 52 38 80 F0 FF FF 7F F0  FF FF 7F 77 73 30 34 45  R8.........ws04E
0A20: 38 80 F0 FF FF 7F F0 FF  FF 7F 77 73 30 35 03 80  8.........ws05..
0A30: 03 02 10 40 80 2B 5A 30  0F 01 43 80 23 27 10 5B  ...@.+Z0..C.#'.[
0A40: 30 0F 01 09 62 3A 80 5A  30 0F 01 5A 30 0F 01 6B  0...b:.Z0..Z0..k
0A50: 6F 6E 31 03 80 1C 44 80  1A 35 4F 1C 45 80 52 38  on1...D..5O.E.R8
0A60: 80 F0 FF FF 7F F0 FF FF  7F 77 73 30 35 1A 66 2D  .........ws05.f-
0A70: 21 00                                             !.              
```

#### Opcodes

```
  0: 0x08AD [0x42] SET_CLI_EVENT_CANCEL_DATA()
  1: 0x08AE [0x1A] CALL_SUBROUTINE(address=0x4F35)
  2: 0x08B1 [0x46] CAMERA_CONTROL: Disable user control
  3: 0x08B3 [0x38] SET_CLIENT_EVENT_MODE(mode=19*)
  4: 0x08B6 [0x27] REQ_SET(priority=0x10, entity_id=Cornelia (ID: 17772634/0x010F305A), tag_num=0x08)
  5: 0x08BD [0x27] REQ_SET(priority=0x10, entity_id=LocalPlayer, tag_num=0x45)
  6: 0x08C4 [0x27] REQ_SET(priority=0x10, entity_id=Cornelia (ID: 17772634/0x010F305A), tag_num=0x0C)
  7: 0x08CB [0x4A] Cornelia (ID: 17772634/0x010F305A) looks at LocalPlayer
  8: 0x08D4 [0x45] LOAD_SCHEDULED_TASK: Load scheduler "ws01" with entities [LocalPlayer, LocalPlayer], work=[232*, 0*]
  9: 0x08E5 [0x1A] CALL_SUBROUTINE(address=0x4F14)
 10: 0x08E8 [0x6E] LocalPlayer uses emote 39*
 11: 0x08EF [0x99] Wait for LocalPlayer animation to complete
 12: 0x08F4 [0x99] Wait for LocalPlayer animation to complete
 13: 0x08F9 [0x27] REQ_SET(priority=0x10, entity_id=Unnamed NPC (ID: 17772635/0x010F305B), tag_num=0x08)
 14: 0x0900 [0x62] LOAD_EVENT_SCHEDULER: Load scheduler "kone" with entities [Cornelia (ID: 17772634/0x010F305A), Cornelia (ID: 17772634/0x010F305A)], work=[22*, 0*]
 15: 0x0911 [0x1C] WAIT(60* ticks)
 16: 0x0914 [0x4A] LocalPlayer looks at Cornelia (ID: 17772634/0x010F305A)
 17: 0x091D [0x2A] GET_REQ_LEVEL(level=16, entity_id=Unnamed NPC (ID: 17772635/0x010F305B))
 18: 0x0923 [0x52] END_LOAD_SCHEDULER: End scheduler "ws01" with entities [LocalPlayer, LocalPlayer], work=232*
 19: 0x0932 [0x45] LOAD_SCHEDULED_TASK: Load scheduler "ws02" with entities [LocalPlayer, LocalPlayer], work=[232*, 0*]
 20: 0x0943 [0x2B] Cornelia (ID: 17772634/0x010F305A) [11263*]:
    → "I see you have met with Raogrimm. His soul is no longer confined to that incarnation of rage, the Shadow Lord, yet the fact remains that he has committed sins beyond redemption."
 21: 0x094A [0x23] WAIT_FOR_DIALOG_INTERACTION
 22: 0x094B [0x66] LOAD_EXT_SCHEDULER_MAIN: Load scheduler "thk1" with entities [Cornelia (ID: 17772634/0x010F305A), Cornelia (ID: 17772634/0x010F305A)], work=10*
 23: 0x095A [0x52] END_LOAD_SCHEDULER: End scheduler "ws02" with entities [LocalPlayer, LocalPlayer], work=232*
 24: 0x0969 [0x45] LOAD_SCHEDULED_TASK: Load scheduler "ws03" with entities [LocalPlayer, LocalPlayer], work=[232*, 0*]
 25: 0x097A [0x2B] Cornelia (ID: 17772634/0x010F305A) [11264*]:
    → "In spite of those sins, I still wish to rescue him from the darkness. I no longer have a mortal body with which to act, and so the most I can do is guide you in my stead."
 26: 0x0981 [0x23] WAIT_FOR_DIALOG_INTERACTION
 27: 0x0982 [0x66] LOAD_EXT_SCHEDULER_MAIN: Load scheduler "thk2" with entities [Cornelia (ID: 17772634/0x010F305A), Cornelia (ID: 17772634/0x010F305A)], work=10*
 28: 0x0991 [0x53] WAIT_SCHEDULER_TASK: Wait for scheduler "thk2" with entities [Cornelia (ID: 17772634/0x010F305A), Cornelia (ID: 17772634/0x010F305A)]
 29: 0x099E [0x1C] WAIT(45* ticks)
 30: 0x09A1 [0x03] Work_Zone[2] = 4236*
 31: 0x09A6 [0x66] LOAD_EXT_SCHEDULER_MAIN: Load scheduler "tlk0" with entities [Cornelia (ID: 17772634/0x010F305A), Cornelia (ID: 17772634/0x010F305A)], work=10*
 32: 0x09B5 [0x52] END_LOAD_SCHEDULER: End scheduler "ws03" with entities [LocalPlayer, LocalPlayer], work=232*
 33: 0x09C4 [0x45] LOAD_SCHEDULED_TASK: Load scheduler "ws04" with entities [LocalPlayer, LocalPlayer], work=[232*, 0*]
 34: 0x09D5 [0x03] Work_Zone[2] = 1550*
 35: 0x09DA [0x2B] Cornelia (ID: 17772634/0x010F305A) [11265*]:
    → "You will need the $3, a key that bridges the void between Vana'diel and that other world."
 36: 0x09E1 [0x23] WAIT_FOR_DIALOG_INTERACTION
 37: 0x09E2 [0x03] Work_Zone[2] = 1550*
 38: 0x09E7 [0x2B] Cornelia (ID: 17772634/0x010F305A) [11266*]:
    → "It is said that there are items in this world that gain a soul of their own through contact with the thoughts and dreams of other living creatures. The $3 is one of those items."
 39: 0x09EE [0x23] WAIT_FOR_DIALOG_INTERACTION
 40: 0x09EF [0x66] LOAD_EXT_SCHEDULER_MAIN: Load scheduler "tlk1" with entities [Cornelia (ID: 17772634/0x010F305A), Cornelia (ID: 17772634/0x010F305A)], work=10*
 41: 0x09FE [0x53] WAIT_SCHEDULER_TASK: Wait for scheduler "tlk1" with entities [Cornelia (ID: 17772634/0x010F305A), Cornelia (ID: 17772634/0x010F305A)]
 42: 0x0A0B [0x03] Work_Zone[2] = 4236*
 43: 0x0A10 [0x52] END_LOAD_SCHEDULER: End scheduler "ws04" with entities [LocalPlayer, LocalPlayer], work=232*
 44: 0x0A1F [0x45] LOAD_SCHEDULED_TASK: Load scheduler "ws05" with entities [LocalPlayer, LocalPlayer], work=[232*, 0*]
 45: 0x0A30 [0x03] Work_Zone[2] = 1550*
 46: 0x0A35 [0x2B] Cornelia (ID: 17772634/0x010F305A) [11267*]:
    → "You must look for the Goblin peddlers. They are certain to have knowledge of the $3. When you have it safely within your grasp, seek out the markings that we left behind..."
 47: 0x0A3C [0x23] WAIT_FOR_DIALOG_INTERACTION
 48: 0x0A3D [0x27] REQ_SET(priority=0x10, entity_id=Unnamed NPC (ID: 17772635/0x010F305B), tag_num=0x09)
 49: 0x0A44 [0x62] LOAD_EVENT_SCHEDULER: Load scheduler "kon1" with entities [Cornelia (ID: 17772634/0x010F305A), Cornelia (ID: 17772634/0x010F305A)], work=[22*, 0*]
 50: 0x0A55 [0x1C] WAIT(150* ticks)
 51: 0x0A58 [0x1A] CALL_SUBROUTINE(address=0x4F35)
 52: 0x0A5B [0x1C] WAIT(30* ticks)
 53: 0x0A5E [0x52] END_LOAD_SCHEDULER: End scheduler "ws05" with entities [LocalPlayer, LocalPlayer], work=232*
 54: 0x0A6D [0x1A] CALL_SUBROUTINE(address=0x2D66)
 55: 0x0A70 [0x21] END_EVENT
 56: 0x0A71 [0x00] END_REQSTACK()
```

### Event 10016

#### Metadata

| Field        | Value      |
|--------------|------------|
| Entrypoint   | 0x0A72     |
| Data Size    | 8968 bytes |
| Instructions | 60         |

```
      00 01 02 03 04 05 06 07  08 09 0A 0B 0C 0D 0E 0F
      -- -- -- -- -- -- -- --  -- -- -- -- -- -- -- --
0A70:       42 1A 35 4F 46 01  38 37 80 27 10 5A 30 0F    B.5OF.87.'.Z0.
0A80: 01 08 27 10 F0 FF FF 7F  46 27 10 5A 30 0F 01 0D  ..'.....F'.Z0...
0A90: 4A 5A 30 0F 01 F0 FF FF  7F 45 38 80 F0 FF FF 7F  JZ0......E8.....
0AA0: F0 FF FF 7F 6A 6E 30 31  03 80 1A 14 4F 6E F0 FF  ....jn01....On..
0AB0: FF 7F 39 80 99 F0 FF FF  7F 99 F0 FF FF 7F 27 10  ..9...........'.
0AC0: 5B 30 0F 01 08 62 3A 80  5A 30 0F 01 5A 30 0F 01  [0...b:.Z0..Z0..
0AD0: 6B 6F 6E 65 03 80 1C 3B  80 4A F0 FF FF 7F 5A 30  kone...;.J....Z0
0AE0: 0F 01 2A 10 5B 30 0F 01  52 38 80 F0 FF FF 7F F0  ..*.[0..R8......
0AF0: FF FF 7F 6A 6E 30 31 45  38 80 F0 FF FF 7F F0 FF  ...jn01E8.......
0B00: FF 7F 6A 6E 30 32 03 80  2B 5A 30 0F 01 3C 80 23  ..jn02..+Z0..<.#
0B10: 66 24 80 5A 30 0F 01 5A  30 0F 01 74 68 6B 31 52  f$.Z0..Z0..thk1R
0B20: 38 80 F0 FF FF 7F F0 FF  FF 7F 6A 6E 30 32 45 38  8.........jn02E8
0B30: 80 F0 FF FF 7F F0 FF FF  7F 6A 6E 30 33 03 80 2B  .........jn03..+
0B40: 5A 30 0F 01 3D 80 23 66  24 80 5A 30 0F 01 5A 30  Z0..=.#f$.Z0..Z0
0B50: 0F 01 74 68 6B 32 53 5A  30 0F 01 5A 30 0F 01 74  ..thk2SZ0..Z0..t
0B60: 68 6B 32 1C 3E 80 03 02  10 3F 80 66 24 80 5A 30  hk2.>....?.f$.Z0
0B70: 0F 01 5A 30 0F 01 74 6C  6B 30 52 38 80 F0 FF FF  ..Z0..tlk0R8....
0B80: 7F F0 FF FF 7F 6A 6E 30  33 45 38 80 F0 FF FF 7F  .....jn03E8.....
0B90: F0 FF FF 7F 6A 6E 30 34  03 80 03 02 10 40 80 2B  ....jn04.....@.+
0BA0: 5A 30 0F 01 41 80 23 03  02 10 40 80 2B 5A 30 0F  Z0..A.#...@.+Z0.
0BB0: 01 42 80 23 66 24 80 5A  30 0F 01 5A 30 0F 01 74  .B.#f$.Z0..Z0..t
0BC0: 6C 6B 31 53 5A 30 0F 01  5A 30 0F 01 74 6C 6B 31  lk1SZ0..Z0..tlk1
0BD0: 03 02 10 3F 80 52 38 80  F0 FF FF 7F F0 FF FF 7F  ...?.R8.........
0BE0: 6A 6E 30 34 45 38 80 F0  FF FF 7F F0 FF FF 7F 6A  jn04E8.........j
0BF0: 6E 30 35 03 80 03 02 10  40 80 2B 5A 30 0F 01 43  n05.....@.+Z0..C
0C00: 80 23 27 10 5B 30 0F 01  09 62 3A 80 5A 30 0F 01  .#'.[0...b:.Z0..
0C10: 5A 30 0F 01 6B 6F 6E 31  03 80 1C 44 80 1A 35 4F  Z0..kon1...D..5O
0C20: 1C 45 80 52 38 80 F0 FF  FF 7F F0 FF FF 7F 6A 6E  .E.R8.........jn
0C30: 30 35 1A 66 2D 21 00 42  1A 35 4F 46 01 38 37 80  05.f-!.B.5OF.87.
0C40: 27 10 5A 30 0F 01 09 27  10 F0 FF FF 7F 43 27 10  '.Z0...'.....C'.
0C50: 5A 30 0F 01 0A 80 5A 30  0F 01 4A 5A 30 0F 01 F0  Z0....Z0..JZ0...
0C60: FF FF 7F 62 3A 80 5A 30  0F 01 5A 30 0F 01 6B 6F  ...b:.Z0..Z0..ko
0C70: 6E 65 03 80 1C 46 80 4A  F0 FF FF 7F 5A 30 0F 01  ne...F.J....Z0..
0C80: 45 38 80 F0 FF FF 7F F0  FF FF 7F 73 64 31 31 03  E8.........sd11.
0C90: 80 1A 14 4F 2B 5A 30 0F  01 47 80 23 66 24 80 5A  ...O+Z0..G.#f$.Z
0CA0: 30 0F 01 5A 30 0F 01 74  68 6B 31 52 38 80 F0 FF  0..Z0..thk1R8...
0CB0: FF 7F F0 FF FF 7F 73 64  31 31 45 38 80 F0 FF FF  ......sd11E8....
0CC0: 7F F0 FF FF 7F 73 64 31  32 03 80 2B 5A 30 0F 01  .....sd12..+Z0..
0CD0: 48 80 23 2B 5A 30 0F 01  49 80 23 66 24 80 5A 30  H.#+Z0..I.#f$.Z0
0CE0: 0F 01 5A 30 0F 01 74 68  6B 32 53 5A 30 0F 01 5A  ..Z0..thk2SZ0..Z
0CF0: 30 0F 01 74 68 6B 32 52  38 80 F0 FF FF 7F F0 FF  0..thk2R8.......
0D00: FF 7F 73 64 31 32 45 38  80 F0 FF FF 7F F0 FF FF  ..sd12E8........
0D10: 7F 73 64 31 33 03 80 2B  5A 30 0F 01 4A 80 23 27  .sd13..+Z0..J.#'
0D20: 10 5B 30 0F 01 09 62 3A  80 5A 30 0F 01 5A 30 0F  .[0...b:.Z0..Z0.
0D30: 01 6B 6F 6E 31 03 80 1C  44 80 1A 35 4F 1C 45 80  .kon1...D..5O.E.
0D40: 52 38 80 F0 FF FF 7F F0  FF FF 7F 73 64 31 33 1A  R8.........sd13.
0D50: 66 2D 1B 42 1A 35 4F 46  01 38 37 80 27 10 5A 30  f-.B.5OF.87.'.Z0
0D60: 0F 01 09 27 10 F0 FF FF  7F 44 27 10 5A 30 0F 01  ...'.....D'.Z0..
0D70: 0B 80 5A 30 0F 01 4A 5A  30 0F 01 F0 FF FF 7F 62  ..Z0..JZ0......b
0D80: 3A 80 5A 30 0F 01 5A 30  0F 01 6B 6F 6E 65 03 80  :.Z0..Z0..kone..
0D90: 1C 46 80 4A F0 FF FF 7F  5A 30 0F 01 45 38 80 F0  .F.J....Z0..E8..
0DA0: FF FF 7F F0 FF FF 7F 62  73 31 31 03 80 1A 14 4F  .......bs11....O
0DB0: 2B 5A 30 0F 01 47 80 23  66 24 80 5A 30 0F 01 5A  +Z0..G.#f$.Z0..Z
0DC0: 30 0F 01 74 68 6B 31 52  38 80 F0 FF FF 7F F0 FF  0..thk1R8.......
0DD0: FF 7F 62 73 31 31 45 38  80 F0 FF FF 7F F0 FF FF  ..bs11E8........
0DE0: 7F 62 73 31 32 03 80 2B  5A 30 0F 01 48 80 23 2B  .bs12..+Z0..H.#+
0DF0: 5A 30 0F 01 49 80 23 66  24 80 5A 30 0F 01 5A 30  Z0..I.#f$.Z0..Z0
0E00: 0F 01 74 68 6B 32 53 5A  30 0F 01 5A 30 0F 01 74  ..thk2SZ0..Z0..t
0E10: 68 6B 32 52 38 80 F0 FF  FF 7F F0 FF FF 7F 62 73  hk2R8.........bs
0E20: 31 32 45 38 80 F0 FF FF  7F F0 FF FF 7F 62 73 31  12E8.........bs1
0E30: 33 03 80 2B 5A 30 0F 01  4A 80 23 27 10 5B 30 0F  3..+Z0..J.#'.[0.
0E40: 01 09 62 3A 80 5A 30 0F  01 5A 30 0F 01 6B 6F 6E  ..b:.Z0..Z0..kon
0E50: 31 03 80 1C 44 80 1A 35  4F 1C 45 80 52 38 80 F0  1...D..5O.E.R8..
0E60: FF FF 7F F0 FF FF 7F 62  73 31 33 1A 66 2D 1B 42  .......bs13.f-.B
0E70: 1A 35 4F 46 01 38 37 80  27 10 5A 30 0F 01 09 27  .5OF.87.'.Z0...'
0E80: 10 F0 FF FF 7F 45 27 10  5A 30 0F 01 0C 80 5A 30  .....E'.Z0....Z0
0E90: 0F 01 4A 5A 30 0F 01 F0  FF FF 7F 62 3A 80 5A 30  ..JZ0......b:.Z0
0EA0: 0F 01 5A 30 0F 01 6B 6F  6E 65 03 80 1C 46 80 4A  ..Z0..kone...F.J
0EB0: F0 FF FF 7F 5A 30 0F 01  45 38 80 F0 FF FF 7F F0  ....Z0..E8......
0EC0: FF FF 7F 77 73 31 31 03  80 1A 14 4F 2B 5A 30 0F  ...ws11....O+Z0.
0ED0: 01 47 80 23 66 24 80 5A  30 0F 01 5A 30 0F 01 74  .G.#f$.Z0..Z0..t
0EE0: 68 6B 31 52 38 80 F0 FF  FF 7F F0 FF FF 7F 77 73  hk1R8.........ws
0EF0: 31 31 45 38 80 F0 FF FF  7F F0 FF FF 7F 77 73 31  11E8.........ws1
0F00: 32 03 80 2B 5A 30 0F 01  48 80 23 2B 5A 30 0F 01  2..+Z0..H.#+Z0..
0F10: 49 80 23 66 24 80 5A 30  0F 01 5A 30 0F 01 74 68  I.#f$.Z0..Z0..th
0F20: 6B 32 53 5A 30 0F 01 5A  30 0F 01 74 68 6B 32 52  k2SZ0..Z0..thk2R
0F30: 38 80 F0 FF FF 7F F0 FF  FF 7F 77 73 31 32 45 38  8.........ws12E8
0F40: 80 F0 FF FF 7F F0 FF FF  7F 77 73 31 33 03 80 2B  .........ws13..+
0F50: 5A 30 0F 01 4A 80 23 27  10 5B 30 0F 01 09 62 3A  Z0..J.#'.[0...b:
0F60: 80 5A 30 0F 01 5A 30 0F  01 6B 6F 6E 31 03 80 1C  .Z0..Z0..kon1...
0F70: 44 80 1A 35 4F 1C 45 80  52 38 80 F0 FF FF 7F F0  D..5O.E.R8......
0F80: FF FF 7F 77 73 31 33 1A  66 2D 1B 42 1A 35 4F 46  ...ws13.f-.B.5OF
0F90: 01 38 37 80 27 10 5A 30  0F 01 09 27 10 F0 FF FF  .87.'.Z0...'....
0FA0: 7F 46 27 10 5A 30 0F 01  0D 80 5A 30 0F 01 4A 5A  .F'.Z0....Z0..JZ
0FB0: 30 0F 01 F0 FF FF 7F 62  3A 80 5A 30 0F 01 5A 30  0......b:.Z0..Z0
0FC0: 0F 01 6B 6F 6E 65 03 80  1C 46 80 4A F0 FF FF 7F  ..kone...F.J....
0FD0: 5A 30 0F 01 45 38 80 F0  FF FF 7F F0 FF FF 7F 6A  Z0..E8.........j
0FE0: 6E 31 31 03 80 1A 14 4F  2B 5A 30 0F 01 47 80 23  n11....O+Z0..G.#
0FF0: 66 24 80 5A 30 0F 01 5A  30 0F 01 74 68 6B 31 52  f$.Z0..Z0..thk1R
1000: 38 80 F0 FF FF 7F F0 FF  FF 7F 6A 6E 31 31 45 38  8.........jn11E8
1010: 80 F0 FF FF 7F F0 FF FF  7F 6A 6E 31 32 03 80 2B  .........jn12..+
1020: 5A 30 0F 01 48 80 23 2B  5A 30 0F 01 49 80 23 66  Z0..H.#+Z0..I.#f
1030: 24 80 5A 30 0F 01 5A 30  0F 01 74 68 6B 32 53 5A  $.Z0..Z0..thk2SZ
1040: 30 0F 01 5A 30 0F 01 74  68 6B 32 52 38 80 F0 FF  0..Z0..thk2R8...
1050: FF 7F F0 FF FF 7F 6A 6E  31 32 45 38 80 F0 FF FF  ......jn12E8....
1060: 7F F0 FF FF 7F 6A 6E 31  33 03 80 2B 5A 30 0F 01  .....jn13..+Z0..
1070: 4A 80 23 27 10 5B 30 0F  01 09 62 3A 80 5A 30 0F  J.#'.[0...b:.Z0.
1080: 01 5A 30 0F 01 6B 6F 6E  31 03 80 1C 44 80 1A 35  .Z0..kon1...D..5
1090: 4F 1C 45 80 52 38 80 F0  FF FF 7F F0 FF FF 7F 6A  O.E.R8.........j
10A0: 6E 31 33 1A 66 2D 1B 42  1A 35 4F 46 01 38 37 80  n13.f-.B.5OF.87.
10B0: 27 10 5A 30 0F 01 08 27  10 F0 FF FF 7F 4F 27 10  '.Z0...'.....O'.
10C0: 5A 30 0F 01 1A 4A 5A 30  0F 01 F0 FF FF 7F 45 38  Z0...JZ0......E8
10D0: 80 F0 FF FF 7F F0 FF FF  7F 67 61 30 31 03 80 1A  .........ga01...
10E0: 14 4F 6E F0 FF FF 7F 39  80 99 F0 FF FF 7F 99 F0  .On....9........
10F0: FF FF 7F 27 10 5B 30 0F  01 08 62 3A 80 5A 30 0F  ...'.[0...b:.Z0.
1100: 01 5A 30 0F 01 6B 6F 6E  65 03 80 1C 3B 80 4A F0  .Z0..kone...;.J.
1110: FF FF 7F 5A 30 0F 01 2A  10 5B 30 0F 01 2B 5A 30  ...Z0..*.[0..+Z0
1120: 0F 01 4B 80 23 52 38 80  F0 FF FF 7F F0 FF FF 7F  ..K.#R8.........
1130: 67 61 30 31 45 38 80 F0  FF FF 7F F0 FF FF 7F 67  ga01E8.........g
1140: 61 30 32 03 80 2B 5A 30  0F 01 4C 80 23 2B 5A 30  a02..+Z0..L.#+Z0
1150: 0F 01 4D 80 23 52 38 80  F0 FF FF 7F F0 FF FF 7F  ..M.#R8.........
1160: 67 61 30 32 45 38 80 F0  FF FF 7F F0 FF FF 7F 67  ga02E8.........g
1170: 61 30 33 03 80 2B 5A 30  0F 01 4E 80 23 27 10 5B  a03..+Z0..N.#'.[
1180: 30 0F 01 09 62 3A 80 5A  30 0F 01 5A 30 0F 01 6B  0...b:.Z0..Z0..k
1190: 6F 6E 31 03 80 1C 3B 80  1A 35 4F 1C 45 80 1A 66  on1...;..5O.E..f
11A0: 2D 1B 42 1A 35 4F 46 01  38 37 80 27 10 5A 30 0F  -.B.5OF.87.'.Z0.
11B0: 01 09 27 10 F0 FF FF 7F  50 27 10 5A 30 0F 01 1B  ..'.....P'.Z0...
11C0: 80 5A 30 0F 01 4A 5A 30  0F 01 F0 FF FF 7F 62 3A  .Z0..JZ0......b:
11D0: 80 5A 30 0F 01 5A 30 0F  01 6B 6F 6E 65 03 80 1C  .Z0..Z0..kone...
11E0: 46 80 4A F0 FF FF 7F 5A  30 0F 01 45 38 80 F0 FF  F.J....Z0..E8...
11F0: FF 7F F0 FF FF 7F 78 61  30 31 03 80 1A 14 4F 2B  ......xa01....O+
1200: 5A 30 0F 01 4F 80 23 27  10 5B 30 0F 01 09 62 3A  Z0..O.#'.[0...b:
1210: 80 5A 30 0F 01 5A 30 0F  01 6B 6F 6E 31 03 80 1C  .Z0..Z0..kon1...
1220: 44 80 1A 35 4F 1C 45 80  52 38 80 F0 FF FF 7F F0  D..5O.E.R8......
1230: FF FF 7F 78 61 30 31 1A  66 2D 1B 42 1A 35 4F 46  ...xa01.f-.B.5OF
1240: 01 38 37 80 27 10 5A 30  0F 01 09 27 10 F0 FF FF  .87.'.Z0...'....
1250: 7F 43 27 10 5A 30 0F 01  0A 80 5A 30 0F 01 4A 5A  .C'.Z0....Z0..JZ
1260: 30 0F 01 F0 FF FF 7F 62  3A 80 5A 30 0F 01 5A 30  0......b:.Z0..Z0
1270: 0F 01 6B 6F 6E 65 03 80  1C 46 80 4A F0 FF FF 7F  ..kone...F.J....
1280: 5A 30 0F 01 45 38 80 F0  FF FF 7F F0 FF FF 7F 73  Z0..E8.........s
1290: 64 31 33 03 80 1A 14 4F  03 02 10 40 80 2B 5A 30  d13....O...@.+Z0
12A0: 0F 01 50 80 23 1A 35 4F  79 00 F0 FF FF 7F F0 FF  ..P.#.5Oy.......
12B0: FF 7F 62 3A 80 5A 30 0F  01 5A 30 0F 01 6B 6F 6E  ..b:.Z0..Z0..kon
12C0: 31 03 80 1C 51 80 52 38  80 F0 FF FF 7F F0 FF FF  1...Q.R8........
12D0: 7F 73 64 31 33 27 10 57  30 0F 01 04 27 10 F0 FF  .sd13'.W0...'...
12E0: FF 7F 47 27 10 5A 30 0F  01 0E 27 10 57 30 0F 01  ..G'.Z0...'.W0..
12F0: 05 80 57 30 0F 01 1C 25  80 9F 52 80 57 30 0F 01  ..W0...%..R.W0..
1300: 57 30 0F 01 6D 61 69 6E  03 80 62 3A 80 5A 30 0F  W0..main..b:.Z0.
1310: 01 5A 30 0F 01 6B 6F 6E  65 03 80 1C 46 80 45 38  .Z0..kone...F.E8
1320: 80 F0 FF FF 7F F0 FF FF  7F 73 64 32 30 03 80 1A  .........sd20...
1330: 14 4F 2B 57 30 0F 01 53  80 23 2C 57 30 0F 01 57  .O+W0..S.#,W0..W
1340: 30 0F 01 63 61 77 68 03  02 10 40 80 2B 57 30 0F  0..cawh...@.+W0.
1350: 01 54 80 1C 55 80 45 38  80 F0 FF FF 7F F0 FF FF  .T..U.E8........
1360: 7F 73 64 32 31 03 80 2C  57 30 0F 01 57 30 0F 01  .sd21..,W0..W0..
1370: 73 68 77 68 1C 45 80 62  56 80 F0 FF FF 7F F0 FF  shwh.E.bV.......
1380: FF 7F 6D 61 69 6E 03 80  1C 46 80 1A 77 4F 1C 45  ..main...F..wO.E
1390: 80 52 38 80 F0 FF FF 7F  F0 FF FF 7F 73 64 32 31  .R8.........sd21
13A0: 45 38 80 F0 FF FF 7F F0  FF FF 7F 75 72 65 64 03  E8.........ured.
13B0: 80 1A 35 4F 1A 56 4F 1C  45 80 46 00 30 1B 42 1A  ..5O.VO.E.F.0.B.
13C0: 35 4F 46 01 38 37 80 27  10 5A 30 0F 01 09 27 10  5OF.87.'.Z0...'.
13D0: F0 FF FF 7F 44 27 10 5A  30 0F 01 0B 80 5A 30 0F  ....D'.Z0....Z0.
13E0: 01 4A 5A 30 0F 01 F0 FF  FF 7F 62 3A 80 5A 30 0F  .JZ0......b:.Z0.
13F0: 01 5A 30 0F 01 6B 6F 6E  65 03 80 1C 46 80 4A F0  .Z0..kone...F.J.
1400: FF FF 7F 5A 30 0F 01 45  38 80 F0 FF FF 7F F0 FF  ...Z0..E8.......
1410: FF 7F 62 73 31 33 03 80  1A 14 4F 03 02 10 40 80  ..bs13....O...@.
1420: 2B 5A 30 0F 01 50 80 23  1A 35 4F 79 00 F0 FF FF  +Z0..P.#.5Oy....
1430: 7F F0 FF FF 7F 62 3A 80  5A 30 0F 01 5A 30 0F 01  .....b:.Z0..Z0..
1440: 6B 6F 6E 31 03 80 1C 51  80 52 38 80 F0 FF FF 7F  kon1...Q.R8.....
1450: F0 FF FF 7F 62 73 31 33  27 10 56 30 0F 01 04 27  ....bs13'.V0...'
1460: 10 F0 FF FF 7F 48 27 10  5A 30 0F 01 0F 27 10 56  .....H'.Z0...'.V
1470: 30 0F 01 05 80 56 30 0F  01 1C 25 80 9F 52 80 56  0....V0...%..R.V
1480: 30 0F 01 56 30 0F 01 6D  61 69 6E 03 80 62 3A 80  0..V0..main..b:.
1490: 5A 30 0F 01 5A 30 0F 01  6B 6F 6E 65 03 80 1C 46  Z0..Z0..kone...F
14A0: 80 45 38 80 F0 FF FF 7F  F0 FF FF 7F 62 73 32 30  .E8.........bs20
14B0: 03 80 1A 14 4F 66 03 80  56 30 0F 01 56 30 0F 01  ....Of..V0..V0..
14C0: 64 69 73 30 2B 56 30 0F  01 57 80 23 53 56 30 0F  dis0+V0..W.#SV0.
14D0: 01 56 30 0F 01 64 69 73  30 52 38 80 F0 FF FF 7F  .V0..dis0R8.....
14E0: F0 FF FF 7F 62 73 32 30  45 38 80 F0 FF FF 7F F0  ....bs20E8......
14F0: FF FF 7F 62 73 32 31 03  80 6E 56 30 0F 01 1C 80  ...bs21..nV0....
1500: 99 56 30 0F 01 2B 56 30  0F 01 58 80 23 99 56 30  .V0..+V0..X.#.V0
1510: 0F 01 1C 3E 80 2C 56 30  0F 01 56 30 0F 01 63 61  ...>.,V0..V0..ca
1520: 77 68 2B 56 30 0F 01 59  80 1C 55 80 52 38 80 F0  wh+V0..Y..U.R8..
1530: FF FF 7F F0 FF FF 7F 62  73 32 31 45 38 80 F0 FF  .......bs21E8...
1540: FF 7F F0 FF FF 7F 62 73  32 32 03 80 2C 56 30 0F  ......bs22..,V0.
1550: 01 56 30 0F 01 73 68 77  68 1C 45 80 62 56 80 F0  .V0..shwh.E.bV..
1560: FF FF 7F F0 FF FF 7F 6D  61 69 6E 03 80 1C 46 80  .......main...F.
1570: 1A 77 4F 1C 45 80 52 38  80 F0 FF FF 7F F0 FF FF  .wO.E.R8........
1580: 7F 73 64 32 32 45 38 80  F0 FF FF 7F F0 FF FF 7F  .sd22E8.........
1590: 75 72 65 64 03 80 1A 35  4F 1A 56 4F 1C 45 80 46  ured...5O.VO.E.F
15A0: 00 30 1B 42 1A 35 4F 46  01 38 37 80 27 10 5A 30  .0.B.5OF.87.'.Z0
15B0: 0F 01 09 27 10 F0 FF FF  7F 45 27 10 5A 30 0F 01  ...'.....E'.Z0..
15C0: 0C 80 5A 30 0F 01 4A 5A  30 0F 01 F0 FF FF 7F 62  ..Z0..JZ0......b
15D0: 3A 80 5A 30 0F 01 5A 30  0F 01 6B 6F 6E 65 03 80  :.Z0..Z0..kone..
15E0: 1C 46 80 4A F0 FF FF 7F  5A 30 0F 01 45 38 80 F0  .F.J....Z0..E8..
15F0: FF FF 7F F0 FF FF 7F 77  73 31 33 03 80 1A 14 4F  .......ws13....O
1600: 03 02 10 40 80 2B 5A 30  0F 01 50 80 23 1A 35 4F  ...@.+Z0..P.#.5O
1610: 79 00 F0 FF FF 7F F0 FF  FF 7F 62 3A 80 5A 30 0F  y.........b:.Z0.
1620: 01 5A 30 0F 01 6B 6F 6E  31 03 80 1C 51 80 52 38  .Z0..kon1...Q.R8
1630: 80 F0 FF FF 7F F0 FF FF  7F 77 73 31 33 27 10 58  .........ws13'.X
1640: 30 0F 01 04 27 10 F0 FF  FF 7F 49 27 10 5A 30 0F  0...'.....I'.Z0.
1650: 01 10 27 10 58 30 0F 01  05 80 58 30 0F 01 1C 25  ..'.X0....X0...%
1660: 80 9F 52 80 58 30 0F 01  58 30 0F 01 6D 61 69 6E  ..R.X0..X0..main
1670: 03 80 62 3A 80 5A 30 0F  01 5A 30 0F 01 6B 6F 6E  ..b:.Z0..Z0..kon
1680: 65 03 80 1C 46 80 45 38  80 F0 FF FF 7F F0 FF FF  e...F.E8........
1690: 7F 77 73 32 30 03 80 1A  14 4F 2B 58 30 0F 01 5A  .ws20....O+X0..Z
16A0: 80 23 52 38 80 F0 FF FF  7F F0 FF FF 7F 77 73 32  .#R8.........ws2
16B0: 30 45 38 80 F0 FF FF 7F  F0 FF FF 7F 77 73 32 31  0E8.........ws21
16C0: 03 80 2B 58 30 0F 01 5B  80 23 2C 58 30 0F 01 58  ..+X0..[.#,X0..X
16D0: 30 0F 01 63 61 77 68 2B  58 30 0F 01 5C 80 1C 55  0..cawh+X0..\..U
16E0: 80 52 38 80 F0 FF FF 7F  F0 FF FF 7F 77 73 32 31  .R8.........ws21
16F0: 45 38 80 F0 FF FF 7F F0  FF FF 7F 77 73 32 32 03  E8.........ws22.
1700: 80 2C 58 30 0F 01 58 30  0F 01 73 68 77 68 1C 45  .,X0..X0..shwh.E
1710: 80 62 56 80 F0 FF FF 7F  F0 FF FF 7F 6D 61 69 6E  .bV.........main
1720: 03 80 1C 51 80 1A 77 4F  1C 45 80 52 38 80 F0 FF  ...Q..wO.E.R8...
1730: FF 7F F0 FF FF 7F 73 64  32 31 45 38 80 F0 FF FF  ......sd21E8....
1740: 7F F0 FF FF 7F 75 72 65  64 03 80 1A 35 4F 1A 56  .....ured...5O.V
1750: 4F 1C 45 80 46 00 30 1B  42 1A 35 4F 46 01 38 37  O.E.F.0.B.5OF.87
1760: 80 27 10 5A 30 0F 01 09  27 10 F0 FF FF 7F 46 27  .'.Z0...'.....F'
1770: 10 5A 30 0F 01 0D 80 5A  30 0F 01 4A 5A 30 0F 01  .Z0....Z0..JZ0..
1780: F0 FF FF 7F 62 3A 80 5A  30 0F 01 5A 30 0F 01 6B  ....b:.Z0..Z0..k
1790: 6F 6E 65 03 80 1C 46 80  4A F0 FF FF 7F 5A 30 0F  one...F.J....Z0.
17A0: 01 45 38 80 F0 FF FF 7F  F0 FF FF 7F 6A 6E 31 33  .E8.........jn13
17B0: 03 80 1A 14 4F 03 02 10  40 80 2B 5A 30 0F 01 50  ....O...@.+Z0..P
17C0: 80 23 1A 35 4F 79 00 F0  FF FF 7F F0 FF FF 7F 62  .#.5Oy.........b
17D0: 3A 80 5A 30 0F 01 5A 30  0F 01 6B 6F 6E 31 03 80  :.Z0..Z0..kon1..
17E0: 1C 51 80 52 38 80 F0 FF  FF 7F F0 FF FF 7F 6A 6E  .Q.R8.........jn
17F0: 31 33 27 10 59 30 0F 01  04 27 10 F0 FF FF 7F 4A  13'.Y0...'.....J
1800: 27 10 5A 30 0F 01 11 27  10 59 30 0F 01 05 80 59  '.Z0...'.Y0....Y
1810: 30 0F 01 1C 25 80 9F 52  80 59 30 0F 01 59 30 0F  0...%..R.Y0..Y0.
1820: 01 6D 61 69 6E 03 80 62  3A 80 5A 30 0F 01 5A 30  .main..b:.Z0..Z0
1830: 0F 01 6B 6F 6E 65 03 80  1C 46 80 45 38 80 F0 FF  ..kone...F.E8...
1840: FF 7F F0 FF FF 7F 6A 6E  32 30 03 80 1A 14 4F 66  ......jn20....Of
1850: 5D 80 59 30 0F 01 59 30  0F 01 74 6C 6B 30 2B 59  ].Y0..Y0..tlk0+Y
1860: 30 0F 01 5E 80 23 66 5D  80 59 30 0F 01 59 30 0F  0..^.#f].Y0..Y0.
1870: 01 74 6C 6B 32 53 59 30  0F 01 59 30 0F 01 74 6C  .tlk2SY0..Y0..tl
1880: 6B 32 1C 45 80 81 00 59  30 0F 01 66 5D 80 59 30  k2.E...Y0..f].Y0
1890: 0F 01 59 30 0F 01 74 68  6B 31 52 38 80 F0 FF FF  ..Y0..thk1R8....
18A0: 7F F0 FF FF 7F 6A 6E 32  30 45 38 80 F0 FF FF 7F  .....jn20E8.....
18B0: F0 FF FF 7F 6A 6E 32 32  03 80 2B 59 30 0F 01 5F  ....jn22..+Y0.._
18C0: 80 23 81 01 59 30 0F 01  66 5D 80 59 30 0F 01 59  .#..Y0..f].Y0..Y
18D0: 30 0F 01 74 68 6B 32 52  38 80 F0 FF FF 7F F0 FF  0..thk2R8.......
18E0: FF 7F 6A 6E 32 32 45 38  80 F0 FF FF 7F F0 FF FF  ..jn22E8........
18F0: 7F 6A 6E 32 31 03 80 53  59 30 0F 01 59 30 0F 01  .jn21..SY0..Y0..
1900: 74 68 6B 32 2B 59 30 0F  01 60 80 23 03 02 10 40  thk2+Y0..`.#...@
1910: 80 2C 59 30 0F 01 59 30  0F 01 63 61 77 68 2B 59  .,Y0..Y0..cawh+Y
1920: 30 0F 01 61 80 1C 55 80  52 38 80 F0 FF FF 7F F0  0..a..U.R8......
1930: FF FF 7F 6A 6E 32 31 45  38 80 F0 FF FF 7F F0 FF  ...jn21E8.......
1940: FF 7F 6A 6E 32 33 03 80  2C 59 30 0F 01 59 30 0F  ..jn23..,Y0..Y0.
1950: 01 73 68 77 68 1C 45 80  62 56 80 F0 FF FF 7F F0  .shwh.E.bV......
1960: FF FF 7F 6D 61 69 6E 03  80 1C 51 80 1A 77 4F 1C  ...main...Q..wO.
1970: 45 80 52 38 80 F0 FF FF  7F F0 FF FF 7F 6A 6E 32  E.R8.........jn2
1980: 33 45 38 80 F0 FF FF 7F  F0 FF FF 7F 75 72 65 64  3E8.........ured
1990: 03 80 1A 35 4F 1A 56 4F  1C 45 80 46 00 30 1B 42  ...5O.VO.E.F.0.B
19A0: 1A 35 4F 46 01 38 37 80  27 10 5A 30 0F 01 09 27  .5OF.87.'.Z0...'
19B0: 10 F0 FF FF 7F 51 27 10  5A 30 0F 01 1C 80 5A 30  .....Q'.Z0....Z0
19C0: 0F 01 4A 5A 30 0F 01 F0  FF FF 7F 62 3A 80 5A 30  ..JZ0......b:.Z0
19D0: 0F 01 5A 30 0F 01 6B 6F  6E 65 03 80 1C 46 80 4A  ..Z0..kone...F.J
19E0: F0 FF FF 7F 5A 30 0F 01  45 38 80 F0 FF FF 7F F0  ....Z0..E8......
19F0: FF FF 7F 67 61 31 31 03  80 1A 14 4F 2B 5A 30 0F  ...ga11....O+Z0.
1A00: 01 62 80 23 52 38 80 F0  FF FF 7F F0 FF FF 7F 67  .b.#R8.........g
1A10: 61 31 31 45 38 80 F0 FF  FF 7F F0 FF FF 7F 67 61  a11E8.........ga
1A20: 31 32 03 80 2B 5A 30 0F  01 63 80 23 2B 5A 30 0F  12..+Z0..c.#+Z0.
1A30: 01 64 80 23 52 38 80 F0  FF FF 7F F0 FF FF 7F 67  .d.#R8.........g
1A40: 61 31 32 2C 5A 30 0F 01  5A 30 0F 01 63 61 77 68  a12,Z0..Z0..cawh
1A50: 45 38 80 F0 FF FF 7F F0  FF FF 7F 67 61 31 33 03  E8.........ga13.
1A60: 80 2B 5A 30 0F 01 65 80  1C 55 80 52 38 80 F0 FF  .+Z0..e..U.R8...
1A70: FF 7F F0 FF FF 7F 67 61  31 33 2C 5A 30 0F 01 5A  ......ga13,Z0..Z
1A80: 30 0F 01 73 68 77 68 45  38 80 F0 FF FF 7F F0 FF  0..shwhE8.......
1A90: FF 7F 67 61 31 34 03 80  1C 45 80 62 56 80 F0 FF  ..ga14...E.bV...
1AA0: FF 7F F0 FF FF 7F 6D 61  69 6E 03 80 1C 66 80 1A  ......main...f..
1AB0: 77 4F 1C 45 80 52 38 80  F0 FF FF 7F F0 FF FF 7F  wO.E.R8.........
1AC0: 67 61 31 34 45 38 80 F0  FF FF 7F F0 FF FF 7F 75  ga14E8.........u
1AD0: 72 65 64 03 80 1A 35 4F  1A 56 4F 1C 3E 80 46 00  red...5O.VO.>.F.
1AE0: 30 1B 42 1A 35 4F 46 01  38 37 80 27 10 5A 30 0F  0.B.5OF.87.'.Z0.
1AF0: 01 09 27 10 57 30 0F 01  04 27 10 56 30 0F 01 04  ..'.W0...'.V0...
1B00: 27 10 58 30 0F 01 04 27  10 59 30 0F 01 04 27 10  '.X0...'.Y0...'.
1B10: F0 FF FF 7F 52 27 10 5A  30 0F 01 1D 27 10 57 30  ....R'.Z0...'.W0
1B20: 0F 01 0A 27 10 56 30 0F  01 0A 27 10 58 30 0F 01  ...'.V0...'.X0..
1B30: 0A 27 10 59 30 0F 01 0A  80 5A 30 0F 01 80 57 30  .'.Y0....Z0...W0
1B40: 0F 01 80 56 30 0F 01 80  58 30 0F 01 80 59 30 0F  ...V0...X0...Y0.
1B50: 01 1C 45 80 62 3A 80 5A  30 0F 01 5A 30 0F 01 6B  ..E.b:.Z0..Z0..k
1B60: 6F 6E 65 03 80 9F 52 80  57 30 0F 01 57 30 0F 01  one...R.W0..W0..
1B70: 6D 61 69 6E 03 80 9F 67  80 56 30 0F 01 56 30 0F  main...g.V0..V0.
1B80: 01 6D 61 69 6E 03 80 9F  67 80 58 30 0F 01 58 30  .main...g.X0..X0
1B90: 0F 01 6D 61 69 6E 03 80  9F 67 80 59 30 0F 01 59  ..main...g.Y0..Y
1BA0: 30 0F 01 6D 61 69 6E 03  80 1C 46 80 45 38 80 F0  0..main...F.E8..
1BB0: FF FF 7F F0 FF FF 7F 78  61 31 31 03 80 1A 14 4F  .......xa11....O
1BC0: 55 38 80 F0 FF FF 7F F0  FF FF 7F 78 61 31 31 1A  U8.........xa11.
1BD0: F3 4E 1C 25 80 45 38 80  F0 FF FF 7F F0 FF FF 7F  .N.%.E8.........
1BE0: 78 61 31 32 03 80 1A 14  4F 2B 57 30 0F 01 68 80  xa12....O+W0..h.
1BF0: 23 52 38 80 F0 FF FF 7F  F0 FF FF 7F 78 61 31 32  #R8.........xa12
1C00: 45 38 80 F0 FF FF 7F F0  FF FF 7F 78 61 31 33 03  E8.........xa13.
1C10: 80 2B 56 30 0F 01 69 80  23 52 38 80 F0 FF FF 7F  .+V0..i.#R8.....
1C20: F0 FF FF 7F 78 61 31 33  45 38 80 F0 FF FF 7F F0  ....xa13E8......
1C30: FF FF 7F 78 61 31 34 03  80 2B 58 30 0F 01 6A 80  ...xa14..+X0..j.
1C40: 23 52 38 80 F0 FF FF 7F  F0 FF FF 7F 78 61 31 34  #R8.........xa14
1C50: 45 38 80 F0 FF FF 7F F0  FF FF 7F 78 61 31 35 03  E8.........xa15.
1C60: 80 2B 59 30 0F 01 6B 80  23 52 38 80 F0 FF FF 7F  .+Y0..k.#R8.....
1C70: F0 FF FF 7F 78 61 31 35  45 38 80 F0 FF FF 7F F0  ....xa15E8......
1C80: FF FF 7F 78 61 31 36 03  80 2C 57 30 0F 01 57 30  ...xa16..,W0..W0
1C90: 0F 01 63 61 62 6B 1C 02  80 2C 56 30 0F 01 56 30  ..cabk...,V0..V0
1CA0: 0F 01 63 61 62 6B 1C 02  80 2C 58 30 0F 01 58 30  ..cabk...,X0..X0
1CB0: 0F 01 63 61 62 6B 1C 02  80 2C 59 30 0F 01 59 30  ..cabk...,Y0..Y0
1CC0: 0F 01 63 61 62 6B 1C 02  80 2C 5A 30 0F 01 5A 30  ..cabk...,Z0..Z0
1CD0: 0F 01 63 61 62 6B 03 02  10 40 80 2B 5A 30 0F 01  ..cabk...@.+Z0..
1CE0: 6C 80 1C 44 80 52 38 80  F0 FF FF 7F F0 FF FF 7F  l..D.R8.........
1CF0: 78 61 31 36 45 38 80 F0  FF FF 7F F0 FF FF 7F 78  xa16E8.........x
1D00: 61 31 37 03 80 62 3E 80  57 30 0F 01 F0 FF FF 7F  a17..b>.W0......
1D10: 6D 61 69 6E 03 80 62 3E  80 56 30 0F 01 F0 FF FF  main..b>.V0.....
1D20: 7F 6D 61 69 6E 03 80 62  3E 80 58 30 0F 01 F0 FF  .main..b>.X0....
1D30: FF 7F 6D 61 69 6E 03 80  62 3E 80 59 30 0F 01 F0  ..main..b>.Y0...
1D40: FF FF 7F 6D 61 69 6E 03  80 62 3E 80 5A 30 0F 01  ...main..b>.Z0..
1D50: F0 FF FF 7F 6D 61 69 6E  03 80 1C 0F 80 2C 57 30  ....main.....,W0
1D60: 0F 01 57 30 0F 01 73 68  62 6B 1C 02 80 2C 56 30  ..W0..shbk...,V0
1D70: 0F 01 56 30 0F 01 73 68  62 6B 1C 02 80 2C 58 30  ..V0..shbk...,X0
1D80: 0F 01 58 30 0F 01 73 68  62 6B 1C 02 80 2C 59 30  ..X0..shbk...,Y0
1D90: 0F 01 59 30 0F 01 73 68  62 6B 1C 02 80 2C 5A 30  ..Y0..shbk...,Z0
1DA0: 0F 01 5A 30 0F 01 73 68  62 6B 1C 66 80 1A 77 4F  ..Z0..shbk.f..wO
1DB0: 1C 45 80 52 38 80 F0 FF  FF 7F F0 FF FF 7F 78 61  .E.R8.........xa
1DC0: 31 37 62 3E 80 F0 FF FF  7F F0 FF FF 7F 64 65 72  17b>.........der
1DD0: 75 03 80 45 38 80 F0 FF  FF 7F F0 FF FF 7F 75 72  u..E8.........ur
1DE0: 65 64 03 80 1A 35 4F 1A  56 4F 1C 3E 80 46 00 30  ed...5O.VO.>.F.0
1DF0: 1B 42 1A 35 4F 46 01 38  37 80 27 10 5A 30 0F 01  .B.5OF.87.'.Z0..
1E00: 09 27 10 F0 FF FF 7F 43  27 10 5A 30 0F 01 0A 80  .'.....C'.Z0....
1E10: 5A 30 0F 01 4A 5A 30 0F  01 F0 FF FF 7F 62 3A 80  Z0..JZ0......b:.
1E20: 5A 30 0F 01 5A 30 0F 01  6B 6F 6E 65 03 80 1C 46  Z0..Z0..kone...F
1E30: 80 4A F0 FF FF 7F 5A 30  0F 01 45 38 80 F0 FF FF  .J....Z0..E8....
1E40: 7F F0 FF FF 7F 73 64 31  31 03 80 1A 14 4F 2B 5A  .....sd11....O+Z
1E50: 30 0F 01 47 80 23 66 24  80 5A 30 0F 01 5A 30 0F  0..G.#f$.Z0..Z0.
1E60: 01 74 68 6B 31 52 38 80  F0 FF FF 7F F0 FF FF 7F  .thk1R8.........
1E70: 73 64 31 31 45 38 80 F0  FF FF 7F F0 FF FF 7F 73  sd11E8.........s
1E80: 64 31 32 03 80 2B 5A 30  0F 01 48 80 23 2B 5A 30  d12..+Z0..H.#+Z0
1E90: 0F 01 49 80 23 66 24 80  5A 30 0F 01 5A 30 0F 01  ..I.#f$.Z0..Z0..
1EA0: 74 68 6B 32 53 5A 30 0F  01 5A 30 0F 01 74 68 6B  thk2SZ0..Z0..thk
1EB0: 32 52 38 80 F0 FF FF 7F  F0 FF FF 7F 73 64 31 32  2R8.........sd12
1EC0: 45 38 80 F0 FF FF 7F F0  FF FF 7F 73 64 31 33 03  E8.........sd13.
1ED0: 80 2B 5A 30 0F 01 4A 80  23 03 02 10 40 80 2B 5A  .+Z0..J.#...@.+Z
1EE0: 30 0F 01 50 80 23 1A 35  4F 79 00 F0 FF FF 7F F0  0..P.#.5Oy......
1EF0: FF FF 7F 62 3A 80 5A 30  0F 01 5A 30 0F 01 6B 6F  ...b:.Z0..Z0..ko
1F00: 6E 31 03 80 1C 51 80 52  38 80 F0 FF FF 7F F0 FF  n1...Q.R8.......
1F10: FF 7F 73 64 31 33 27 10  57 30 0F 01 04 27 10 F0  ..sd13'.W0...'..
1F20: FF FF 7F 47 27 10 5A 30  0F 01 0E 27 10 57 30 0F  ...G'.Z0...'.W0.
1F30: 01 05 80 57 30 0F 01 1C  25 80 9F 52 80 57 30 0F  ...W0...%..R.W0.
1F40: 01 57 30 0F 01 6D 61 69  6E 03 80 62 3A 80 5A 30  .W0..main..b:.Z0
1F50: 0F 01 5A 30 0F 01 6B 6F  6E 65 03 80 1C 46 80 45  ..Z0..kone...F.E
1F60: 38 80 F0 FF FF 7F F0 FF  FF 7F 73 64 32 30 03 80  8.........sd20..
1F70: 1A 14 4F 2B 57 30 0F 01  53 80 23 2C 57 30 0F 01  ..O+W0..S.#,W0..
1F80: 57 30 0F 01 63 61 77 68  03 02 10 40 80 2B 57 30  W0..cawh...@.+W0
1F90: 0F 01 54 80 1C 55 80 45  38 80 F0 FF FF 7F F0 FF  ..T..U.E8.......
1FA0: FF 7F 73 64 32 31 03 80  2C 57 30 0F 01 57 30 0F  ..sd21..,W0..W0.
1FB0: 01 73 68 77 68 1C 45 80  62 56 80 F0 FF FF 7F F0  .shwh.E.bV......
1FC0: FF FF 7F 6D 61 69 6E 03  80 1C 51 80 1A 77 4F 1C  ...main...Q..wO.
1FD0: 45 80 52 38 80 F0 FF FF  7F F0 FF FF 7F 73 64 32  E.R8.........sd2
1FE0: 31 45 38 80 F0 FF FF 7F  F0 FF FF 7F 75 72 65 64  1E8.........ured
1FF0: 03 80 1A 35 4F 1A 56 4F  1C 45 80 46 00 30 1B 42  ...5O.VO.E.F.0.B
2000: 1A 35 4F 46 01 38 37 80  27 10 5A 30 0F 01 09 27  .5OF.87.'.Z0...'
2010: 10 F0 FF FF 7F 44 27 10  5A 30 0F 01 0B 80 5A 30  .....D'.Z0....Z0
2020: 0F 01 4A 5A 30 0F 01 F0  FF FF 7F 62 3A 80 5A 30  ..JZ0......b:.Z0
2030: 0F 01 5A 30 0F 01 6B 6F  6E 65 03 80 1C 46 80 4A  ..Z0..kone...F.J
2040: F0 FF FF 7F 5A 30 0F 01  45 38 80 F0 FF FF 7F F0  ....Z0..E8......
2050: FF FF 7F 62 73 31 31 03  80 1A 14 4F 2B 5A 30 0F  ...bs11....O+Z0.
2060: 01 47 80 23 66 24 80 5A  30 0F 01 5A 30 0F 01 74  .G.#f$.Z0..Z0..t
2070: 68 6B 31 52 38 80 F0 FF  FF 7F F0 FF FF 7F 62 73  hk1R8.........bs
2080: 31 31 45 38 80 F0 FF FF  7F F0 FF FF 7F 62 73 31  11E8.........bs1
2090: 32 03 80 2B 5A 30 0F 01  48 80 23 2B 5A 30 0F 01  2..+Z0..H.#+Z0..
20A0: 49 80 23 66 24 80 5A 30  0F 01 5A 30 0F 01 74 68  I.#f$.Z0..Z0..th
20B0: 6B 32 53 5A 30 0F 01 5A  30 0F 01 74 68 6B 32 52  k2SZ0..Z0..thk2R
20C0: 38 80 F0 FF FF 7F F0 FF  FF 7F 62 73 31 32 45 38  8.........bs12E8
20D0: 80 F0 FF FF 7F F0 FF FF  7F 62 73 31 33 03 80 2B  .........bs13..+
20E0: 5A 30 0F 01 4A 80 23 03  02 10 40 80 2B 5A 30 0F  Z0..J.#...@.+Z0.
20F0: 01 50 80 23 1A 35 4F 79  00 F0 FF FF 7F F0 FF FF  .P.#.5Oy........
2100: 7F 62 3A 80 5A 30 0F 01  5A 30 0F 01 6B 6F 6E 31  .b:.Z0..Z0..kon1
2110: 03 80 1C 51 80 52 38 80  F0 FF FF 7F F0 FF FF 7F  ...Q.R8.........
2120: 62 73 31 33 27 10 56 30  0F 01 04 27 10 F0 FF FF  bs13'.V0...'....
2130: 7F 48 27 10 5A 30 0F 01  0F 27 10 56 30 0F 01 05  .H'.Z0...'.V0...
2140: 80 56 30 0F 01 1C 25 80  9F 52 80 56 30 0F 01 56  .V0...%..R.V0..V
2150: 30 0F 01 6D 61 69 6E 03  80 62 3A 80 5A 30 0F 01  0..main..b:.Z0..
2160: 5A 30 0F 01 6B 6F 6E 65  03 80 1C 46 80 45 38 80  Z0..kone...F.E8.
2170: F0 FF FF 7F F0 FF FF 7F  62 73 32 30 03 80 1A 14  ........bs20....
2180: 4F 66 03 80 56 30 0F 01  56 30 0F 01 64 69 73 30  Of..V0..V0..dis0
2190: 2B 56 30 0F 01 57 80 23  53 56 30 0F 01 56 30 0F  +V0..W.#SV0..V0.
21A0: 01 64 69 73 30 52 38 80  F0 FF FF 7F F0 FF FF 7F  .dis0R8.........
21B0: 62 73 32 30 45 38 80 F0  FF FF 7F F0 FF FF 7F 62  bs20E8.........b
21C0: 73 32 31 03 80 6E 56 30  0F 01 1C 80 99 56 30 0F  s21..nV0.....V0.
21D0: 01 2B 56 30 0F 01 58 80  23 99 56 30 0F 01 1C 3E  .+V0..X.#.V0...>
21E0: 80 2C 56 30 0F 01 56 30  0F 01 63 61 77 68 2B 56  .,V0..V0..cawh+V
21F0: 30 0F 01 59 80 1C 55 80  52 38 80 F0 FF FF 7F F0  0..Y..U.R8......
2200: FF FF 7F 62 73 32 31 45  38 80 F0 FF FF 7F F0 FF  ...bs21E8.......
2210: FF 7F 62 73 32 32 03 80  2C 56 30 0F 01 56 30 0F  ..bs22..,V0..V0.
2220: 01 73 68 77 68 1C 45 80  62 56 80 F0 FF FF 7F F0  .shwh.E.bV......
2230: FF FF 7F 6D 61 69 6E 03  80 1C 46 80 1A 77 4F 1C  ...main...F..wO.
2240: 45 80 52 38 80 F0 FF FF  7F F0 FF FF 7F 73 64 32  E.R8.........sd2
2250: 32 45 38 80 F0 FF FF 7F  F0 FF FF 7F 75 72 65 64  2E8.........ured
2260: 03 80 1A 35 4F 1A 56 4F  1C 45 80 46 00 30 1B 42  ...5O.VO.E.F.0.B
2270: 1A 35 4F 46 01 38 37 80  27 10 5A 30 0F 01 09 27  .5OF.87.'.Z0...'
2280: 10 F0 FF FF 7F 45 27 10  5A 30 0F 01 0C 80 5A 30  .....E'.Z0....Z0
2290: 0F 01 4A 5A 30 0F 01 F0  FF FF 7F 62 3A 80 5A 30  ..JZ0......b:.Z0
22A0: 0F 01 5A 30 0F 01 6B 6F  6E 65 03 80 1C 46 80 4A  ..Z0..kone...F.J
22B0: F0 FF FF 7F 5A 30 0F 01  45 38 80 F0 FF FF 7F F0  ....Z0..E8......
22C0: FF FF 7F 77 73 31 31 03  80 1A 14 4F 2B 5A 30 0F  ...ws11....O+Z0.
22D0: 01 47 80 23 66 24 80 5A  30 0F 01 5A 30 0F 01 74  .G.#f$.Z0..Z0..t
22E0: 68 6B 31 52 38 80 F0 FF  FF 7F F0 FF FF 7F 77 73  hk1R8.........ws
22F0: 31 31 45 38 80 F0 FF FF  7F F0 FF FF 7F 77 73 31  11E8.........ws1
2300: 32 03 80 2B 5A 30 0F 01  48 80 23 2B 5A 30 0F 01  2..+Z0..H.#+Z0..
2310: 49 80 23 66 24 80 5A 30  0F 01 5A 30 0F 01 74 68  I.#f$.Z0..Z0..th
2320: 6B 32 53 5A 30 0F 01 5A  30 0F 01 74 68 6B 32 52  k2SZ0..Z0..thk2R
2330: 38 80 F0 FF FF 7F F0 FF  FF 7F 77 73 31 32 45 38  8.........ws12E8
2340: 80 F0 FF FF 7F F0 FF FF  7F 77 73 31 33 03 80 2B  .........ws13..+
2350: 5A 30 0F 01 4A 80 23 03  02 10 40 80 2B 5A 30 0F  Z0..J.#...@.+Z0.
2360: 01 50 80 23 1A 35 4F 79  00 F0 FF FF 7F F0 FF FF  .P.#.5Oy........
2370: 7F 62 3A 80 5A 30 0F 01  5A 30 0F 01 6B 6F 6E 31  .b:.Z0..Z0..kon1
2380: 03 80 1C 51 80 52 38 80  F0 FF FF 7F F0 FF FF 7F  ...Q.R8.........
2390: 77 73 31 33 27 10 58 30  0F 01 04 27 10 F0 FF FF  ws13'.X0...'....
23A0: 7F 49 27 10 5A 30 0F 01  10 27 10 58 30 0F 01 05  .I'.Z0...'.X0...
23B0: 80 58 30 0F 01 1C 25 80  9F 52 80 58 30 0F 01 58  .X0...%..R.X0..X
23C0: 30 0F 01 6D 61 69 6E 03  80 62 3A 80 5A 30 0F 01  0..main..b:.Z0..
23D0: 5A 30 0F 01 6B 6F 6E 65  03 80 1C 46 80 45 38 80  Z0..kone...F.E8.
23E0: F0 FF FF 7F F0 FF FF 7F  77 73 32 30 03 80 1A 14  ........ws20....
23F0: 4F 2B 58 30 0F 01 5A 80  23 52 38 80 F0 FF FF 7F  O+X0..Z.#R8.....
2400: F0 FF FF 7F 77 73 32 30  45 38 80 F0 FF FF 7F F0  ....ws20E8......
2410: FF FF 7F 77 73 32 31 03  80 2B 58 30 0F 01 5B 80  ...ws21..+X0..[.
2420: 23 2C 58 30 0F 01 58 30  0F 01 63 61 77 68 2B 58  #,X0..X0..cawh+X
2430: 30 0F 01 5C 80 1C 55 80  52 38 80 F0 FF FF 7F F0  0..\..U.R8......
2440: FF FF 7F 77 73 32 31 45  38 80 F0 FF FF 7F F0 FF  ...ws21E8.......
2450: FF 7F 77 73 32 32 03 80  2C 58 30 0F 01 58 30 0F  ..ws22..,X0..X0.
2460: 01 73 68 77 68 1C 45 80  62 56 80 F0 FF FF 7F F0  .shwh.E.bV......
2470: FF FF 7F 6D 61 69 6E 03  80 1C 51 80 1A 77 4F 1C  ...main...Q..wO.
2480: 45 80 52 38 80 F0 FF FF  7F F0 FF FF 7F 73 64 32  E.R8.........sd2
2490: 31 45 38 80 F0 FF FF 7F  F0 FF FF 7F 75 72 65 64  1E8.........ured
24A0: 03 80 1A 35 4F 1A 56 4F  1C 45 80 46 00 30 1B 42  ...5O.VO.E.F.0.B
24B0: 1A 35 4F 46 01 38 37 80  27 10 5A 30 0F 01 09 27  .5OF.87.'.Z0...'
24C0: 10 F0 FF FF 7F 46 27 10  5A 30 0F 01 0D 80 5A 30  .....F'.Z0....Z0
24D0: 0F 01 4A 5A 30 0F 01 F0  FF FF 7F 62 3A 80 5A 30  ..JZ0......b:.Z0
24E0: 0F 01 5A 30 0F 01 6B 6F  6E 65 03 80 1C 46 80 4A  ..Z0..kone...F.J
24F0: F0 FF FF 7F 5A 30 0F 01  45 38 80 F0 FF FF 7F F0  ....Z0..E8......
2500: FF FF 7F 6A 6E 31 31 03  80 1A 14 4F 2B 5A 30 0F  ...jn11....O+Z0.
2510: 01 47 80 23 66 24 80 5A  30 0F 01 5A 30 0F 01 74  .G.#f$.Z0..Z0..t
2520: 68 6B 31 52 38 80 F0 FF  FF 7F F0 FF FF 7F 6A 6E  hk1R8.........jn
2530: 31 31 45 38 80 F0 FF FF  7F F0 FF FF 7F 6A 6E 31  11E8.........jn1
2540: 32 03 80 2B 5A 30 0F 01  48 80 23 2B 5A 30 0F 01  2..+Z0..H.#+Z0..
2550: 49 80 23 66 24 80 5A 30  0F 01 5A 30 0F 01 74 68  I.#f$.Z0..Z0..th
2560: 6B 32 53 5A 30 0F 01 5A  30 0F 01 74 68 6B 32 52  k2SZ0..Z0..thk2R
2570: 38 80 F0 FF FF 7F F0 FF  FF 7F 6A 6E 31 32 45 38  8.........jn12E8
2580: 80 F0 FF FF 7F F0 FF FF  7F 6A 6E 31 33 03 80 2B  .........jn13..+
2590: 5A 30 0F 01 4A 80 23 03  02 10 40 80 2B 5A 30 0F  Z0..J.#...@.+Z0.
25A0: 01 50 80 23 1A 35 4F 79  00 F0 FF FF 7F F0 FF FF  .P.#.5Oy........
25B0: 7F 62 3A 80 5A 30 0F 01  5A 30 0F 01 6B 6F 6E 31  .b:.Z0..Z0..kon1
25C0: 03 80 1C 51 80 52 38 80  F0 FF FF 7F F0 FF FF 7F  ...Q.R8.........
25D0: 6A 6E 31 33 27 10 59 30  0F 01 04 27 10 F0 FF FF  jn13'.Y0...'....
25E0: 7F 4A 27 10 5A 30 0F 01  11 27 10 59 30 0F 01 05  .J'.Z0...'.Y0...
25F0: 80 59 30 0F 01 1C 25 80  9F 52 80 59 30 0F 01 59  .Y0...%..R.Y0..Y
2600: 30 0F 01 6D 61 69 6E 03  80 62 3A 80 5A 30 0F 01  0..main..b:.Z0..
2610: 5A 30 0F 01 6B 6F 6E 65  03 80 1C 46 80 45 38 80  Z0..kone...F.E8.
2620: F0 FF FF 7F F0 FF FF 7F  6A 6E 32 30 03 80 1A 14  ........jn20....
2630: 4F 66 5D 80 59 30 0F 01  59 30 0F 01 74 6C 6B 30  Of].Y0..Y0..tlk0
2640: 2B 59 30 0F 01 5E 80 23  66 5D 80 59 30 0F 01 59  +Y0..^.#f].Y0..Y
2650: 30 0F 01 74 6C 6B 32 53  59 30 0F 01 59 30 0F 01  0..tlk2SY0..Y0..
2660: 74 6C 6B 32 1C 45 80 81  00 59 30 0F 01 66 5D 80  tlk2.E...Y0..f].
2670: 59 30 0F 01 59 30 0F 01  74 68 6B 31 52 38 80 F0  Y0..Y0..thk1R8..
2680: FF FF 7F F0 FF FF 7F 6A  6E 32 30 45 38 80 F0 FF  .......jn20E8...
2690: FF 7F F0 FF FF 7F 6A 6E  32 32 03 80 2B 59 30 0F  ......jn22..+Y0.
26A0: 01 5F 80 23 81 01 59 30  0F 01 66 5D 80 59 30 0F  ._.#..Y0..f].Y0.
26B0: 01 59 30 0F 01 74 68 6B  32 52 38 80 F0 FF FF 7F  .Y0..thk2R8.....
26C0: F0 FF FF 7F 6A 6E 32 32  45 38 80 F0 FF FF 7F F0  ....jn22E8......
26D0: FF FF 7F 6A 6E 32 31 03  80 53 59 30 0F 01 59 30  ...jn21..SY0..Y0
26E0: 0F 01 74 68 6B 32 2B 59  30 0F 01 60 80 23 03 02  ..thk2+Y0..`.#..
26F0: 10 40 80 2C 59 30 0F 01  59 30 0F 01 63 61 77 68  .@.,Y0..Y0..cawh
2700: 2B 59 30 0F 01 61 80 1C  55 80 52 38 80 F0 FF FF  +Y0..a..U.R8....
2710: 7F F0 FF FF 7F 6A 6E 32  31 45 38 80 F0 FF FF 7F  .....jn21E8.....
2720: F0 FF FF 7F 6A 6E 32 33  03 80 2C 59 30 0F 01 59  ....jn23..,Y0..Y
2730: 30 0F 01 73 68 77 68 1C  45 80 62 56 80 F0 FF FF  0..shwh.E.bV....
2740: 7F F0 FF FF 7F 6D 61 69  6E 03 80 1C 51 80 1A 77  .....main...Q..w
2750: 4F 1C 45 80 52 38 80 F0  FF FF 7F F0 FF FF 7F 6A  O.E.R8.........j
2760: 6E 32 33 45 38 80 F0 FF  FF 7F F0 FF FF 7F 75 72  n23E8.........ur
2770: 65 64 03 80 1A 35 4F 1A  56 4F 1C 45 80 46 00 30  ed...5O.VO.E.F.0
2780: 1B 42 1A 35 4F 46 01 38  37 80 27 10 5A 30 0F 01  .B.5OF.87.'.Z0..
2790: 08 27 10 F0 FF FF 7F 4F  27 10 5A 30 0F 01 1A 4A  .'.....O'.Z0...J
27A0: 5A 30 0F 01 F0 FF FF 7F  45 38 80 F0 FF FF 7F F0  Z0......E8......
27B0: FF FF 7F 67 61 30 31 03  80 1A 14 4F 6E F0 FF FF  ...ga01....On...
27C0: 7F 39 80 99 F0 FF FF 7F  99 F0 FF FF 7F 27 10 5B  .9...........'.[
27D0: 30 0F 01 08 62 3A 80 5A  30 0F 01 5A 30 0F 01 6B  0...b:.Z0..Z0..k
27E0: 6F 6E 65 03 80 1C 3B 80  4A F0 FF FF 7F 5A 30 0F  one...;.J....Z0.
27F0: 01 2A 10 5B 30 0F 01 2B  5A 30 0F 01 4B 80 23 52  .*.[0..+Z0..K.#R
2800: 38 80 F0 FF FF 7F F0 FF  FF 7F 67 61 30 31 45 38  8.........ga01E8
2810: 80 F0 FF FF 7F F0 FF FF  7F 67 61 30 32 03 80 2B  .........ga02..+
2820: 5A 30 0F 01 4C 80 23 2B  5A 30 0F 01 4D 80 23 52  Z0..L.#+Z0..M.#R
2830: 38 80 F0 FF FF 7F F0 FF  FF 7F 67 61 30 32 45 38  8.........ga02E8
