# 17772574 - Leis

## Common Data

| Field            | Value                     |
|------------------|---------------------------|
| Zone             | Ru'Lude Gardens (ID: 243) |
| Block Size       | 92 bytes                  |
| Total Events     | 2                         |
| References Count | 5                         |

## List of Events

| Event ID              | Entrypoint   |   Size |   Instructions |
|-----------------------|--------------|--------|----------------|
| [65535](#event-65535) | 0x0000       |      1 |              1 |
| [119](#event-119)     | 0x0001       |     44 |             14 |

## DAT References (imed_data)

|   Index | Hex Value   |   Dec Value |
|---------|-------------|-------------|
|       0 | 0x0046      |          70 |
|       1 | 0x2804      |       10244 |
|       2 | 0x2805      |       10245 |
|       3 | 0x2806      |       10246 |
|       4 | 0x003C      |          60 |

## String References

- **10244**: This is the archduke's chamber. Only here can he find refuge from his busy schedule...
- **10245**: But he's always out, doing his best for the Duchy. We all look up to him so much. His deeds benefit not only Jeuno, but the entire world as well.
- **10246**: All I can do in return is change his sheets and prepare hot soup.

## Events

### Event 65535

#### Metadata

| Field        | Value   |
|--------------|---------|
| Entrypoint   | 0x0000  |
| Data Size    | 1 bytes |
| Instructions | 1       |

```
      00 01 02 03 04 05 06 07  08 09 0A 0B 0C 0D 0E 0F
      -- -- -- -- -- -- -- --  -- -- -- -- -- -- -- --
0000: 00                                                .               
```

#### Opcodes

```
  0: 0x0000 [0x00] END_REQSTACK()
```

### Event 119

#### Metadata

| Field        | Value    |
|--------------|----------|
| Entrypoint   | 0x0001   |
| Data Size    | 44 bytes |
| Instructions | 14       |

```
      00 01 02 03 04 05 06 07  08 09 0A 0B 0C 0D 0E 0F
      -- -- -- -- -- -- -- --  -- -- -- -- -- -- -- --
0000:    1E F0 FF FF 7F 6F 70  5B 00 80 F8 FF FF 7F F8   .....op[.......
0010: FF FF 7F 74 6C 6B 31 1D  01 80 23 1D 02 80 23 1D  ...tlk1...#...#.
0020: 03 80 23 5E 69 64 6C 30  1C 04 80 21 00           ..#^idl0...!.   
```

#### Opcodes

```
  0: 0x0001 [0x1E] EventEntity looks at LocalPlayer and starts talking
  1: 0x0006 [0x6F] WAIT_FRAME_DELAY: Yield until WaitTime reaches zero
  2: 0x0007 [0x70] WAIT_ENTITY_RENDER_FLAG: Wait while EventEntity->Render.Flags3 bit 2 is set (cancel turn if not)
  3: 0x0008 [0x5B] LOAD_EXT_SCHEDULER: Load scheduler "tlk1" with entities [EventEntity, EventEntity], work=70*
  4: 0x0017 [0x1D] PRINT_EVENT_MESSAGE(message_id=10244*)
    → "This is the archduke's chamber. Only here can he find refuge from his busy schedule..."
  5: 0x001A [0x23] WAIT_FOR_DIALOG_INTERACTION
  6: 0x001B [0x1D] PRINT_EVENT_MESSAGE(message_id=10245*)
    → "But he's always out, doing his best for the Duchy. We all look up to him so much. His deeds benefit not only Jeuno, but the entire world as well."
  7: 0x001E [0x23] WAIT_FOR_DIALOG_INTERACTION
  8: 0x001F [0x1D] PRINT_EVENT_MESSAGE(message_id=10246*)
    → "All I can do in return is change his sheets and prepare hot soup."
  9: 0x0022 [0x23] WAIT_FOR_DIALOG_INTERACTION
 10: 0x0023 [0x5E] EventEntity goes idle (kills current action) (animation: "idl0")
 11: 0x0028 [0x1C] WAIT(60* ticks)
 12: 0x002B [0x21] END_EVENT
 13: 0x002C [0x00] END_REQSTACK()
```
