# 0x7FFFFFF0 - Zone Events

## Common Data

| Field            | Value                     |
|------------------|---------------------------|
| Zone             | Ru'Lude Gardens (ID: 243) |
| Block Size       | 24668 bytes               |
| Total Events     | 196                       |
| References Count | 803                       |

## List of Events

| Event ID                     | Entrypoint   |   Size |   Instructions |
|------------------------------|--------------|--------|----------------|
| [65535](#event-65535)        | 0x0000       |      4 |              2 |
| [42](#event-42)              | 0x0004       |   1147 |            179 |
| [65535.1](#event-655351)     | 0x047F       |     10 |              2 |
| [65535.2](#event-655352)     | 0x0489       |     25 |              7 |
| [65535.3](#event-655353)     | 0x04A2       |     25 |              7 |
| [65535.4](#event-655354)     | 0x04BB       |     45 |              5 |
| [65535.5](#event-655355)     | 0x04E8       |      1 |              1 |
| [65535.6](#event-655356)     | 0x04E9       |     21 |              5 |
| [41](#event-41)              | 0x04FE       |   1147 |            179 |
| [65535.7](#event-655357)     | 0x0979       |     10 |              2 |
| [65535.8](#event-655358)     | 0x0983       |     27 |              9 |
| [65535.9](#event-655359)     | 0x099E       |     45 |              5 |
| [65535.10](#event-6553510)   | 0x09CB       |     24 |              6 |
| [65535.11](#event-6553511)   | 0x09E3       |      1 |              1 |
| [65535.12](#event-6553512)   | 0x09E4       |     21 |              5 |
| [43](#event-43)              | 0x09F9       |   1147 |            179 |
| [65535.13](#event-6553513)   | 0x0E74       |     10 |              2 |
| [65535.14](#event-6553514)   | 0x0E7E       |     28 |              8 |
| [65535.15](#event-6553515)   | 0x0E9A       |     28 |              8 |
| [65535.16](#event-6553516)   | 0x0EB6       |     45 |              5 |
| [65535.17](#event-6553517)   | 0x0EE3       |     10 |              2 |
| [65535.18](#event-6553518)   | 0x0EED       |     21 |              5 |
| [65535.19](#event-6553519)   | 0x0F02       |     10 |              2 |
| [65534](#event-65534)        | 0x0F0C       |      1 |              1 |
| [65535.20](#event-6553520)   | 0x0F0D       |     10 |              2 |
| [65535.21](#event-6553521)   | 0x0F17       |     14 |              4 |
| [65535.22](#event-6553522)   | 0x0F25       |     78 |             14 |
| [65535.23](#event-6553523)   | 0x0F73       |     19 |              5 |
| [65535.24](#event-6553524)   | 0x0F86       |     15 |              5 |
| [44](#event-44)              | 0x0F95       |      1 |              1 |
| [24](#event-24)              | 0x0F96       |    657 |             76 |
| [10277](#event-10277)        | 0x1227       |    115 |             21 |
| [58](#event-58)              | 0x129A       |   3323 |            445 |
| [65](#event-65)              | 0x1F95       |   2712 |            351 |
| [69](#event-69)              | 0x2A2D       |      1 |              1 |
| [65535.25](#event-6553525)   | 0x2A2E       |     10 |              2 |
| [65535.26](#event-6553526)   | 0x2A38       |     10 |              2 |
| [65535.27](#event-6553527)   | 0x2A42       |     50 |              4 |
| [65535.28](#event-6553528)   | 0x2A74       |     21 |              3 |
| [10009](#event-10009)        | 0x2A89       |   2408 |            319 |
| [65535.29](#event-6553529)   | 0x33F1       |     10 |              2 |
| [65535.30](#event-6553530)   | 0x33FB       |     13 |              3 |
| [65535.31](#event-6553531)   | 0x3408       |     13 |              3 |
| [65535.32](#event-6553532)   | 0x3415       |     13 |              3 |
| [65535.33](#event-6553533)   | 0x3422       |     10 |              2 |
| [65535.34](#event-6553534)   | 0x342C       |     10 |              2 |
| [65535.35](#event-6553535)   | 0x3436       |     55 |              5 |
| [104](#event-104)            | 0x346D       |     24 |              7 |
| [76](#event-76)              | 0x3485       |      1 |              1 |
| [65535.36](#event-6553536)   | 0x3486       |      6 |              2 |
| [65535.37](#event-6553537)   | 0x348C       |      6 |              2 |
| [65535.38](#event-6553538)   | 0x3492       |      1 |              1 |
| [75](#event-75)              | 0x3493       |    336 |             49 |
| [59](#event-59)              | 0x35E3       |    229 |             32 |
| [65535.39](#event-6553539)   | 0x36C8       |     10 |              2 |
| [65535.40](#event-6553540)   | 0x36D2       |     36 |              9 |
| [65535.41](#event-6553541)   | 0x36F6       |     23 |              5 |
| [65535.42](#event-6553542)   | 0x370D       |     13 |              3 |
| [65535.43](#event-6553543)   | 0x371A       |     10 |              2 |
| [65535.44](#event-6553544)   | 0x3724       |     41 |             11 |
| [65535.45](#event-6553545)   | 0x374D       |     11 |              3 |
| [65535.46](#event-6553546)   | 0x3758       |     14 |              4 |
| [65535.47](#event-6553547)   | 0x3766       |     10 |              2 |
| [65535.48](#event-6553548)   | 0x3770       |      6 |              2 |
| [65535.49](#event-6553549)   | 0x3776       |      6 |              2 |
| [65535.50](#event-6553550)   | 0x377C       |      6 |              2 |
| [65535.51](#event-6553551)   | 0x3782       |      6 |              2 |
| [65535.52](#event-6553552)   | 0x3788       |     10 |              2 |
| [65535.53](#event-6553553)   | 0x3792       |     10 |              2 |
| [65535.54](#event-6553554)   | 0x379C       |     10 |              2 |
| [65535.55](#event-6553555)   | 0x37A6       |     10 |              2 |
| [65535.56](#event-6553556)   | 0x37B0       |     10 |              2 |
| [65535.57](#event-6553557)   | 0x37BA       |     10 |              2 |
| [65535.58](#event-6553558)   | 0x37C4       |     10 |              2 |
| [65535.59](#event-6553559)   | 0x37CE       |     10 |              2 |
| [65535.60](#event-6553560)   | 0x37D8       |     10 |              2 |
| [65535.61](#event-6553561)   | 0x37E2       |     10 |              2 |
| [65535.62](#event-6553562)   | 0x37EC       |     10 |              2 |
| [65535.63](#event-6553563)   | 0x37F6       |     10 |              2 |
| [65535.64](#event-6553564)   | 0x3800       |     10 |              2 |
| [65535.65](#event-6553565)   | 0x380A       |     10 |              2 |
| [65535.66](#event-6553566)   | 0x3814       |     10 |              2 |
| [65535.67](#event-6553567)   | 0x381E       |     10 |              2 |
| [65535.68](#event-6553568)   | 0x3828       |     10 |              2 |
| [65535.69](#event-6553569)   | 0x3832       |     10 |              2 |
| [65535.70](#event-6553570)   | 0x383C       |     10 |              2 |
| [65535.71](#event-6553571)   | 0x3846       |     10 |              2 |
| [65535.72](#event-6553572)   | 0x3850       |     12 |              3 |
| [65535.73](#event-6553573)   | 0x385C       |     10 |              2 |
| [65535.74](#event-6553574)   | 0x3866       |     10 |              2 |
| [65535.75](#event-6553575)   | 0x3870       |     10 |              2 |
| [65535.76](#event-6553576)   | 0x387A       |     10 |              2 |
| [65535.77](#event-6553577)   | 0x3884       |     10 |              2 |
| [65535.78](#event-6553578)   | 0x388E       |     10 |              2 |
| [65535.79](#event-6553579)   | 0x3898       |     10 |              2 |
| [65535.80](#event-6553580)   | 0x38A2       |     10 |              2 |
| [65535.81](#event-6553581)   | 0x38AC       |     10 |              2 |
| [65535.82](#event-6553582)   | 0x38B6       |     10 |              2 |
| [65535.83](#event-6553583)   | 0x38C0       |     10 |              2 |
| [65535.84](#event-6553584)   | 0x38CA       |     10 |              2 |
| [65535.85](#event-6553585)   | 0x38D4       |     10 |              2 |
| [65535.86](#event-6553586)   | 0x38DE       |     10 |              2 |
| [65535.87](#event-6553587)   | 0x38E8       |     10 |              2 |
| [65535.88](#event-6553588)   | 0x38F2       |     61 |              7 |
| [117](#event-117)            | 0x392F       |    378 |             55 |
| [65535.89](#event-6553589)   | 0x3AA9       |      6 |              2 |
| [65535.90](#event-6553590)   | 0x3AAF       |     10 |              2 |
| [65535.91](#event-6553591)   | 0x3AB9       |     50 |              8 |
| [65535.92](#event-6553592)   | 0x3AEB       |     10 |              2 |
| [65535.93](#event-6553593)   | 0x3AF5       |     10 |              2 |
| [65535.94](#event-6553594)   | 0x3AFF       |     15 |              5 |
| [65535.95](#event-6553595)   | 0x3B0E       |     10 |              2 |
| [65535.96](#event-6553596)   | 0x3B18       |     10 |              2 |
| [65535.97](#event-6553597)   | 0x3B22       |     15 |              5 |
| [65535.98](#event-6553598)   | 0x3B31       |     10 |              2 |
| [65535.99](#event-6553599)   | 0x3B3B       |     10 |              2 |
| [65535.100](#event-65535100) | 0x3B45       |     10 |              2 |
| [65535.101](#event-65535101) | 0x3B4F       |     10 |              2 |
| [65535.102](#event-65535102) | 0x3B59       |     10 |              2 |
| [65535.103](#event-65535103) | 0x3B63       |     29 |              8 |
| [65535.104](#event-65535104) | 0x3B80       |     10 |              2 |
| [65535.105](#event-65535105) | 0x3B8A       |     15 |              5 |
| [65535.106](#event-65535106) | 0x3B99       |     10 |              2 |
| [65535.107](#event-65535107) | 0x3BA3       |     10 |              2 |
| [65535.108](#event-65535108) | 0x3BAD       |     15 |              5 |
| [65535.109](#event-65535109) | 0x3BBC       |     10 |              2 |
| [65535.110](#event-65535110) | 0x3BC6       |     10 |              2 |
| [65535.111](#event-65535111) | 0x3BD0       |     10 |              2 |
| [65535.112](#event-65535112) | 0x3BDA       |     10 |              2 |
| [65535.113](#event-65535113) | 0x3BE4       |     10 |              2 |
| [65535.114](#event-65535114) | 0x3BEE       |     35 |              8 |
| [65535.115](#event-65535115) | 0x3C11       |     10 |              2 |
| [65535.116](#event-65535116) | 0x3C1B       |     10 |              2 |
| [65535.117](#event-65535117) | 0x3C25       |     24 |              4 |
| [65535.118](#event-65535118) | 0x3C3D       |     24 |              4 |
| [65535.119](#event-65535119) | 0x3C55       |     10 |              2 |
| [65535.120](#event-65535120) | 0x3C5F       |     15 |              5 |
| [65535.121](#event-65535121) | 0x3C6E       |     10 |              2 |
| [65535.122](#event-65535122) | 0x3C78       |     14 |              4 |
| [10070](#event-10070)        | 0x3C86       |   2157 |            262 |
| [65535.123](#event-65535123) | 0x44F3       |     10 |              2 |
| [65535.124](#event-65535124) | 0x44FD       |     15 |              5 |
| [65535.125](#event-65535125) | 0x450C       |     10 |              2 |
| [65535.126](#event-65535126) | 0x4516       |      6 |              2 |
| [65535.127](#event-65535127) | 0x451C       |     10 |              2 |
| [65535.128](#event-65535128) | 0x4526       |     15 |              5 |
| [65535.129](#event-65535129) | 0x4535       |     10 |              2 |
| [65535.130](#event-65535130) | 0x453F       |     15 |              5 |
| [65535.131](#event-65535131) | 0x454E       |     10 |              2 |
| [65535.132](#event-65535132) | 0x4558       |     15 |              5 |
| [65535.133](#event-65535133) | 0x4567       |     10 |              2 |
| [65535.134](#event-65535134) | 0x4571       |      6 |              2 |
| [65535.135](#event-65535135) | 0x4577       |     14 |              4 |
| [65535.136](#event-65535136) | 0x4585       |     25 |              7 |
| [65535.137](#event-65535137) | 0x459E       |     17 |              5 |
| [65535.138](#event-65535138) | 0x45AF       |     19 |              5 |
| [65535.139](#event-65535139) | 0x45C2       |      4 |              2 |
| [65535.140](#event-65535140) | 0x45C6       |     24 |              4 |
| [65535.141](#event-65535141) | 0x45DE       |     24 |              4 |
| [65535.142](#event-65535142) | 0x45F6       |     42 |             10 |
| [65535.143](#event-65535143) | 0x4620       |     11 |              3 |
| [65535.144](#event-65535144) | 0x462B       |     17 |              5 |
| [65535.145](#event-65535145) | 0x463C       |     19 |              7 |
| [65535.146](#event-65535146) | 0x464F       |     68 |              6 |
| [65535.147](#event-65535147) | 0x4693       |    285 |             37 |
| [65535.148](#event-65535148) | 0x47B0       |     90 |             11 |
| [65535.149](#event-65535149) | 0x480A       |     90 |             11 |
| [65535.150](#event-65535150) | 0x4864       |    331 |             23 |
| [65535.151](#event-65535151) | 0x49AF       |     42 |              6 |
| [65535.152](#event-65535152) | 0x49D9       |     37 |              5 |
| [65535.153](#event-65535153) | 0x49FE       |     37 |              5 |
| [65535.154](#event-65535154) | 0x4A23       |     29 |              5 |
| [65535.155](#event-65535155) | 0x4A40       |    175 |             35 |
| [65535.156](#event-65535156) | 0x4AEF       |     29 |              5 |
| [65535.157](#event-65535157) | 0x4B0C       |     32 |              8 |
| [65535.158](#event-65535158) | 0x4B2C       |     15 |              5 |
| [65535.159](#event-65535159) | 0x4B3B       |     18 |              4 |
| [65535.160](#event-65535160) | 0x4B4D       |     29 |              5 |
| [65535.161](#event-65535161) | 0x4B6A       |      6 |              2 |
| [65535.162](#event-65535162) | 0x4B70       |      6 |              2 |
| [65535.163](#event-65535163) | 0x4B76       |     27 |              3 |
| [65535.164](#event-65535164) | 0x4B91       |     27 |              3 |
| [65535.165](#event-65535165) | 0x4BAC       |     10 |              2 |
| [65535.166](#event-65535166) | 0x4BB6       |     10 |              2 |
| [65535.167](#event-65535167) | 0x4BC0       |      5 |              2 |
| [65535.168](#event-65535168) | 0x4BC5       |      5 |              2 |
| [65535.169](#event-65535169) | 0x4BCA       |      5 |              2 |
| [65535.170](#event-65535170) | 0x4BCF       |      5 |              2 |
| [65535.171](#event-65535171) | 0x4BD4       |    345 |             33 |
| [65535.172](#event-65535172) | 0x4D2D       |    345 |             33 |
| [65535.173](#event-65535173) | 0x4E86       |     24 |              4 |
| [65535.174](#event-65535174) | 0x4E9E       |     24 |              4 |
| [65535.175](#event-65535175) | 0x4EB6       |    222 |             26 |
| [65535.176](#event-65535176) | 0x4F94       |    222 |             26 |
| [65535.177](#event-65535177) | 0x5072       |     15 |              5 |
| [65535.178](#event-65535178) | 0x5081       |     45 |             11 |

## DAT References (imed_data)

|   Index | Hex Value   |   Dec Value |
|---------|-------------|-------------|
|       0 | 0x000D      |          13 |
|       1 | 0x00C8      |         200 |
|       2 | 0x0000      |           0 |
|       3 | 0x01B1      |         433 |
|       4 | 0x0003      |           3 |
|       5 | 0xFFFF7E70  |  4294934128 |
|       6 | 0xFFFF3EDE  |  4294917854 |
|       7 | 0x2327      |        8999 |
|       8 | 0x07CD      |        1997 |
|       9 | 0x008F      |         143 |
|      10 | 0x2714      |       10004 |
|      11 | 0x2717      |       10007 |
|      12 | 0x271A      |       10010 |
|      13 | 0x271D      |       10013 |
|      14 | 0x001E      |          30 |
|      15 | 0x2720      |       10016 |
|      16 | 0x00A3      |         163 |
|      17 | 0x0078      |         120 |
|      18 | 0xFFFF7DD2  |  4294933970 |
|      19 | 0xFFFF4333  |  4294918963 |
|      20 | 0x07DC      |        2012 |
|      21 | 0x003C      |          60 |
|      22 | 0x2721      |       10017 |
|      23 | 0x2724      |       10020 |
|      24 | 0x2725      |       10021 |
|      25 | 0x2728      |       10024 |
|      26 | 0x2729      |       10025 |
|      27 | 0x0014      |          20 |
|      28 | 0x272A      |       10026 |
|      29 | 0x272B      |       10027 |
|      30 | 0x272C      |       10028 |
|      31 | 0x272D      |       10029 |
|      32 | 0x272E      |       10030 |
|      33 | 0x272F      |       10031 |
|      34 | 0x2730      |       10032 |
|      35 | 0x2731      |       10033 |
|      36 | 0x005A      |          90 |
|      37 | 0x2732      |       10034 |
|      38 | 0x2733      |       10035 |
|      39 | 0x010E      |         270 |
|      40 | 0x2734      |       10036 |
|      41 | 0x2737      |       10039 |
|      42 | 0x273A      |       10042 |
|      43 | 0x273D      |       10045 |
|      44 | 0x0075      |         117 |
|      45 | 0xFFFF8650  |  4294936144 |
|      46 | 0xFFFF06B1  |  4294903473 |
|      47 | 0x03DD      |         989 |
|      48 | 0xFFFF8726  |  4294936358 |
|      49 | 0xFFFEF721  |  4294899489 |
|      50 | 0xFFFF825B  |  4294935131 |
|      51 | 0xFFFEEDA2  |  4294897058 |
|      52 | 0x0400      |        1024 |
|      53 | 0xFFFF8658  |  4294936152 |
|      54 | 0xFFFEFCEE  |  4294900974 |
|      55 | 0xFFFF82C5  |  4294935237 |
|      56 | 0xFFFEE95F  |  4294895967 |
|      57 | 0xFFFF8622  |  4294936098 |
|      58 | 0xFFFF067D  |  4294903421 |
|      59 | 0x01AF      |         431 |
|      60 | 0x09B8      |        2488 |
|      61 | 0xFFFED2E5  |  4294890213 |
|      62 | 0x035D      |         861 |
|      63 | 0x2715      |       10005 |
|      64 | 0x2718      |       10008 |
|      65 | 0x271B      |       10011 |
|      66 | 0x271E      |       10014 |
|      67 | 0x07A3      |        1955 |
|      68 | 0xFFFED20E  |  4294889998 |
|      69 | 0x2328      |        9000 |
|      70 | 0x0410      |        1040 |
|      71 | 0x2722      |       10018 |
|      72 | 0x2726      |       10022 |
|      73 | 0x2735      |       10037 |
|      74 | 0x2738      |       10040 |
|      75 | 0x273B      |       10043 |
|      76 | 0x273E      |       10046 |
|      77 | 0x460D      |       17933 |
|      78 | 0xFFFEDA65  |  4294892133 |
|      79 | 0x0FE4      |        4068 |
|      80 | 0x542F      |       21551 |
|      81 | 0xFFFEDB1B  |  4294892315 |
|      82 | 0x5D38      |       23864 |
|      83 | 0xFFFED70D  |  4294891277 |
|      84 | 0x0FD0      |        4048 |
|      85 | 0x5025      |       20517 |
|      86 | 0xFFFEDAB2  |  4294892210 |
|      87 | 0x624F      |       25167 |
|      88 | 0xFFFED68A  |  4294891146 |
|      89 | 0x4863      |       18531 |
|      90 | 0xFFFEDA8D  |  4294892173 |
|      91 | 0x01B3      |         435 |
|      92 | 0x83FD      |       33789 |
|      93 | 0xFFFF7040  |  4294930496 |
|      94 | 0x0FDA      |        4058 |
|      95 | 0x2716      |       10006 |
|      96 | 0x2719      |       10009 |
|      97 | 0x271C      |       10012 |
|      98 | 0x271F      |       10015 |
|      99 | 0x84D4      |       34004 |
|     100 | 0xFFFF6BAA  |  4294929322 |
|     101 | 0x0F10      |        3856 |
|     102 | 0x2723      |       10019 |
|     103 | 0x2727      |       10023 |
|     104 | 0x2736      |       10038 |
|     105 | 0x2739      |       10041 |
|     106 | 0x273C      |       10044 |
|     107 | 0x273F      |       10047 |
|     108 | 0x7D50      |       32080 |
|     109 | 0xFFFFAADB  |  4294945499 |
|     110 | 0x0BE4      |        3044 |
|     111 | 0x7D53      |       32083 |
|     112 | 0xFFFFB2ED  |  4294947565 |
|     113 | 0x813F      |       33087 |
|     114 | 0xFFFFC229  |  4294951465 |
|     115 | 0x0C00      |        3072 |
|     116 | 0x8152      |       33106 |
|     117 | 0xFFFFC752  |  4294952786 |
|     118 | 0x7CF7      |       31991 |
|     119 | 0xFFFFBA12  |  4294949394 |
|     120 | 0x0394      |         916 |
|     121 | 0x7DBF      |       32191 |
|     122 | 0xFFFFAA60  |  4294945376 |
|     123 | 0x009A      |         154 |
|     124 | 0xFFFFF98B  |  4294965643 |
|     125 | 0x0B83      |        2947 |
|     126 | 0x66B3      |       26291 |
|     127 | 0xFCD3      |       64723 |
|     128 | 0x07CB      |        1995 |
|     129 | 0x0E53      |        3667 |
|     130 | 0x73B1      |       29617 |
|     131 | 0x104C8     |       66760 |
|     132 | 0x07C7      |        1991 |
|     133 | 0x0E8C      |        3724 |
|     134 | 0xFFFFFFDC  |  4294967260 |
|     135 | 0x1AF0C     |      110348 |
|     136 | 0x0C1D      |        3101 |
|     137 | 0xFFFFFF18  |  4294967064 |
|     138 | 0x16CF5     |       93429 |
|     139 | 0x07D0      |        2000 |
|     140 | 0x01B6      |         438 |
|     141 | 0xFFFF8D81  |  4294937985 |
|     142 | 0x103B1     |       66481 |
|     143 | 0x07D2      |        2002 |
|     144 | 0x0910      |        2320 |
|     145 | 0x007F      |         127 |
|     146 | 0x06BC      |        1724 |
|     147 | 0x001D      |          29 |
|     148 | 0x0001      |           1 |
|     149 | 0x0072      |         114 |
|     150 | 0x0031      |          49 |
|     151 | 0x2B35      |       11061 |
|     152 | 0x0027      |          39 |
|     153 | 0x2B36      |       11062 |
|     154 | 0x2B37      |       11063 |
|     155 | 0x2B38      |       11064 |
|     156 | 0x2B39      |       11065 |
|     157 | 0x000F      |          15 |
|     158 | 0x2B3A      |       11066 |
|     159 | 0x012C      |         300 |
|     160 | 0x00E6      |         230 |
|     161 | 0x00EA      |         234 |
|     162 | 0x00EF      |         239 |
|     163 | 0x0002      |           2 |
|     164 | 0x00F3      |         243 |
|     165 | 0x3E35      |       15925 |
|     166 | 0x3E5B      |       15963 |
|     167 | 0xFFFF8C85  |  4294937733 |
|     168 | 0x103B3     |       66483 |
|     169 | 0x09BD      |        2493 |
|     170 | 0x004B      |          75 |
|     171 | 0x2B98      |       11160 |
|     172 | 0x2B99      |       11161 |
|     173 | 0x2B9A      |       11162 |
|     174 | 0x01F4      |         500 |
|     175 | 0x2B9B      |       11163 |
|     176 | 0x2B9C      |       11164 |
|     177 | 0x2B9D      |       11165 |
|     178 | 0xFFFF95B0  |  4294940080 |
|     179 | 0xFBA0      |       64416 |
|     180 | 0xFFFFB0E4  |  4294947044 |
|     181 | 0xF290      |       62096 |
|     182 | 0x01B5      |         437 |
|     183 | 0xFFFFFD7C  |  4294966652 |
|     184 | 0x1118D     |       70029 |
|     185 | 0xFFFFEC79  |  4294962297 |
|     186 | 0x1F40      |        8000 |
|     187 | 0x2B9E      |       11166 |
|     188 | 0x1494C     |       84300 |
|     189 | 0x2B9F      |       11167 |
|     190 | 0x2BA0      |       11168 |
|     191 | 0x2BA1      |       11169 |
|     192 | 0x2BA2      |       11170 |
|     193 | 0x2BA3      |       11171 |
|     194 | 0x2BA4      |       11172 |
|     195 | 0x2BA5      |       11173 |
|     196 | 0x2BA6      |       11174 |
|     197 | 0x2BA7      |       11175 |
|     198 | 0x2BA8      |       11176 |
|     199 | 0x2BA9      |       11177 |
|     200 | 0x2BAA      |       11178 |
|     201 | 0x2BAB      |       11179 |
|     202 | 0x2BAC      |       11180 |
|     203 | 0x2BAD      |       11181 |
|     204 | 0x2BAE      |       11182 |
|     205 | 0x2BAF      |       11183 |
|     206 | 0x2BB0      |       11184 |
|     207 | 0x000A      |          10 |
|     208 | 0x2BB1      |       11185 |
|     209 | 0x2BB2      |       11186 |
|     210 | 0x2BB3      |       11187 |
|     211 | 0x2BB4      |       11188 |
|     212 | 0x2BB5      |       11189 |
|     213 | 0x2BB6      |       11190 |
|     214 | 0x2BB7      |       11191 |
|     215 | 0x2BB8      |       11192 |
|     216 | 0x0005      |           5 |
|     217 | 0x06ED      |        1773 |
|     218 | 0x14858     |       84056 |
|     219 | 0xFFFFEC78  |  4294962296 |
|     220 | 0x055D      |        1373 |
|     221 | 0x2BB9      |       11193 |
|     222 | 0x00A1      |         161 |
|     223 | 0x2BBA      |       11194 |
|     224 | 0x2BBB      |       11195 |
|     225 | 0x2BBC      |       11196 |
|     226 | 0x0028      |          40 |
|     227 | 0x2BBD      |       11197 |
|     228 | 0x2BBE      |       11198 |
|     229 | 0x2BBF      |       11199 |
|     230 | 0x2BC0      |       11200 |
|     231 | 0x2BC1      |       11201 |
|     232 | 0x2BC2      |       11202 |
|     233 | 0x2BC3      |       11203 |
|     234 | 0x2BC4      |       11204 |
|     235 | 0x2BC5      |       11205 |
|     236 | 0x2BC6      |       11206 |
|     237 | 0x2BC7      |       11207 |
|     238 | 0x2BC8      |       11208 |
|     239 | 0x05D8      |        1496 |
|     240 | 0x2BC9      |       11209 |
|     241 | 0x2BCA      |       11210 |
|     242 | 0x2BCB      |       11211 |
|     243 | 0x2BCC      |       11212 |
|     244 | 0x2BCD      |       11213 |
|     245 | 0x2BCE      |       11214 |
|     246 | 0x2BCF      |       11215 |
|     247 | 0x2BD0      |       11216 |
|     248 | 0x2BD1      |       11217 |
|     249 | 0x2BD2      |       11218 |
|     250 | 0x2BD3      |       11219 |
|     251 | 0x2BD4      |       11220 |
|     252 | 0x2BD5      |       11221 |
|     253 | 0x2BD6      |       11222 |
|     254 | 0x2BD7      |       11223 |
|     255 | 0x2BD8      |       11224 |
|     256 | 0x2BD9      |       11225 |
|     257 | 0x2BDA      |       11226 |
|     258 | 0xFFFFFCE6  |  4294966502 |
|     259 | 0x11308     |       70408 |
|     260 | 0x10672     |       67186 |
|     261 | 0x2BDB      |       11227 |
|     262 | 0x02E5      |         741 |
|     263 | 0x2BDC      |       11228 |
|     264 | 0xD11F      |       53535 |
|     265 | 0xFFFFFB1F  |  4294966047 |
|     266 | 0x0BEA      |        3050 |
|     267 | 0x00BD      |         189 |
|     268 | 0xDE2C      |       56876 |
|     269 | 0xFFFFF543  |  4294964547 |
|     270 | 0x2B61      |       11105 |
|     271 | 0x2B62      |       11106 |
|     272 | 0x00B4      |         180 |
|     273 | 0x2B63      |       11107 |
|     274 | 0x2B64      |       11108 |
|     275 | 0x2B65      |       11109 |
|     276 | 0x006C      |         108 |
|     277 | 0x2B66      |       11110 |
|     278 | 0x0D8B      |        3467 |
|     279 | 0x2B67      |       11111 |
|     280 | 0x2B68      |       11112 |
|     281 | 0x2B69      |       11113 |
|     282 | 0x2B6A      |       11114 |
|     283 | 0x2B6B      |       11115 |
|     284 | 0x2B6C      |       11116 |
|     285 | 0x2B6D      |       11117 |
|     286 | 0x2B6E      |       11118 |
|     287 | 0x2B6F      |       11119 |
|     288 | 0x2B70      |       11120 |
|     289 | 0x2B71      |       11121 |
|     290 | 0x2B72      |       11122 |
|     291 | 0x2B73      |       11123 |
|     292 | 0x2B74      |       11124 |
|     293 | 0x2B75      |       11125 |
|     294 | 0x2B76      |       11126 |
|     295 | 0x0064      |         100 |
|     296 | 0x2B77      |       11127 |
|     297 | 0x0037      |          55 |
|     298 | 0x2B78      |       11128 |
|     299 | 0x2B79      |       11129 |
|     300 | 0x2B7A      |       11130 |
|     301 | 0x00E7      |         231 |
|     302 | 0x2B7B      |       11131 |
|     303 | 0x2B7C      |       11132 |
|     304 | 0x2B7D      |       11133 |
|     305 | 0x2B7E      |       11134 |
|     306 | 0x2B7F      |       11135 |
|     307 | 0x2B80      |       11136 |
|     308 | 0x0047      |          71 |
|     309 | 0x2B81      |       11137 |
|     310 | 0x2B82      |       11138 |
|     311 | 0x2B83      |       11139 |
|     312 | 0x2B84      |       11140 |
|     313 | 0x2B85      |       11141 |
|     314 | 0x2B86      |       11142 |
|     315 | 0x2B87      |       11143 |
|     316 | 0x2B88      |       11144 |
|     317 | 0x12C86     |       76934 |
|     318 | 0x13880     |       80000 |
|     319 | 0x0C0E      |        3086 |
|     320 | 0x1444C     |       83020 |
|     321 | 0x2B89      |       11145 |
|     322 | 0x2B8A      |       11146 |
|     323 | 0x2B8B      |       11147 |
|     324 | 0x2B8C      |       11148 |
|     325 | 0x2B8D      |       11149 |
|     326 | 0x2B8E      |       11150 |
|     327 | 0x2B8F      |       11151 |
|     328 | 0x2B90      |       11152 |
|     329 | 0x2B91      |       11153 |
|     330 | 0x2B92      |       11154 |
|     331 | 0x2B93      |       11155 |
|     332 | 0x2B94      |       11156 |
|     333 | 0x2B95      |       11157 |
|     334 | 0x111F5     |       70133 |
|     335 | 0x0C0D      |        3085 |
|     336 | 0x28BC      |       10428 |
|     337 | 0x1CCC8     |      117960 |
|     338 | 0x0C78      |        3192 |
|     339 | 0xFFFD89B6  |  4294805942 |
|     340 | 0x1168      |        4456 |
|     341 | 0xFFFFE2DF  |  4294959839 |
|     342 | 0x0C9A      |        3226 |
|     343 | 0x0043      |          67 |
|     344 | 0x00C9      |         201 |
|     345 | 0x007B      |         123 |
|     346 | 0x0013      |          19 |
|     347 | 0x0007      |           7 |
|     348 | 0x0030      |          48 |
|     349 | 0x2ABE      |       10942 |
|     350 | 0x2ABF      |       10943 |
|     351 | 0x2AC0      |       10944 |
|     352 | 0x2AC1      |       10945 |
|     353 | 0x2AC2      |       10946 |
|     354 | 0x2AC3      |       10947 |
|     355 | 0x2AC4      |       10948 |
|     356 | 0x0093      |         147 |
|     357 | 0x2AC5      |       10949 |
|     358 | 0x2AC6      |       10950 |
|     359 | 0x0096      |         150 |
|     360 | 0x2AC7      |       10951 |
|     361 | 0x2AC8      |       10952 |
|     362 | 0x2AC9      |       10953 |
|     363 | 0x0041      |          65 |
|     364 | 0x0070      |         112 |
|     365 | 0x000C      |          12 |
|     366 | 0x003F      |          63 |
|     367 | 0x2ACA      |       10954 |
|     368 | 0x2ACB      |       10955 |
|     369 | 0x2ACC      |       10956 |
|     370 | 0x2ACD      |       10957 |
|     371 | 0x2ACE      |       10958 |
|     372 | 0x0012      |          18 |
|     373 | 0x2ACF      |       10959 |
|     374 | 0x2AD0      |       10960 |
|     375 | 0x2AD1      |       10961 |
|     376 | 0x2AD2      |       10962 |
|     377 | 0x2AD3      |       10963 |
|     378 | 0x2AD4      |       10964 |
|     379 | 0x002D      |          45 |
|     380 | 0x00F0      |         240 |
|     381 | 0x0094      |         148 |
|     382 | 0x2587      |        9607 |
|     383 | 0xFFFEB9BE  |  4294883774 |
|     384 | 0x5FAA      |       24490 |
|     385 | 0x0528      |        1320 |
|     386 | 0x2E89      |       11913 |
|     387 | 0xFFFEC1EE  |  4294885870 |
|     388 | 0x6551      |       25937 |
|     389 | 0x2AD6      |       10966 |
|     390 | 0x0060      |          96 |
|     391 | 0x2AD7      |       10967 |
|     392 | 0x00F8      |         248 |
|     393 | 0x0079      |         121 |
|     394 | 0x2AD8      |       10968 |
|     395 | 0x2AD9      |       10969 |
|     396 | 0x2ADA      |       10970 |
|     397 | 0x2ADB      |       10971 |
|     398 | 0x2ADC      |       10972 |
|     399 | 0x005F      |          95 |
|     400 | 0x2ADD      |       10973 |
|     401 | 0x2ADE      |       10974 |
|     402 | 0x2ADF      |       10975 |
|     403 | 0x2AE0      |       10976 |
|     404 | 0xFFFF27BD  |  4294911933 |
|     405 | 0xFFFF7F9F  |  4294934431 |
|     406 | 0x2EDF      |       11999 |
|     407 | 0x01EA      |         490 |
|     408 | 0x420B      |       16907 |
|     409 | 0xFFFFB5A8  |  4294948264 |
|     410 | 0x00FA      |         250 |
|     411 | 0x0ACF      |        2767 |
|     412 | 0xFFFAC0AE  |  4294623406 |
|     413 | 0xA82B      |       43051 |
|     414 | 0x62A1      |       25249 |
|     415 | 0x0B27      |        2855 |
|     416 | 0xFFFE9A04  |  4294875652 |
|     417 | 0x1698D     |       92557 |
|     418 | 0xFFFEE6C0  |  4294895296 |
|     419 | 0x0879      |        2169 |
|     420 | 0xFFFAC146  |  4294623558 |
|     421 | 0xA912      |       43282 |
|     422 | 0x0A82      |        2690 |
|     423 | 0xFFFAC5D5  |  4294624725 |
|     424 | 0xA181      |       41345 |
|     425 | 0x0794      |        1940 |
|     426 | 0x152FF     |       86783 |
|     427 | 0xFFFFE891  |  4294961297 |
|     428 | 0x167CC     |       92108 |
|     429 | 0xFFFFE0C4  |  4294959300 |
|     430 | 0x2709      |        9993 |
|     431 | 0xC973      |       51571 |
|     432 | 0xFFFEE334  |  4294894388 |
|     433 | 0x26F8      |        9976 |
|     434 | 0x03D8      |         984 |
|     435 | 0xC94B      |       51531 |
|     436 | 0xFFFECF8B  |  4294889355 |
|     437 | 0x270F      |        9999 |
|     438 | 0x3A97      |       14999 |
|     439 | 0x0032      |          50 |
|     440 | 0x2EE0      |       12000 |
|     441 | 0xB5A4      |       46500 |
|     442 | 0xFFFECF50  |  4294889296 |
|     443 | 0x32C7      |       12999 |
|     444 | 0xB5D6      |       46550 |
|     445 | 0xFFFEE2D9  |  4294894297 |
|     446 | 0x10F06     |       69382 |
|     447 | 0x154F3     |       87283 |
|     448 | 0x1678C     |       92044 |
|     449 | 0xFFFFE4AC  |  4294960300 |
|     450 | 0x16A2D     |       92717 |
|     451 | 0x124F8     |       75000 |
|     452 | 0x14896     |       84118 |
|     453 | 0xFFFFEC7B  |  4294962299 |
|     454 | 0x0C13      |        3091 |
|     455 | 0x12BB6     |       76726 |
|     456 | 0x0429      |        1065 |
|     457 | 0x154FD     |       87293 |
|     458 | 0xFFFFEBB5  |  4294962101 |
|     459 | 0x151E4     |       86500 |
|     460 | 0x003A      |          58 |
|     461 | 0x11EB1     |       73393 |
|     462 | 0x10DCC     |       69068 |
|     463 | 0xFFFF69B4  |  4294928820 |
|     464 | 0xFFFF1971  |  4294908273 |
|     465 | 0x09FA      |        2554 |
|     466 | 0x21D4A     |      138570 |
|     467 | 0x1DC79     |      121977 |
|     468 | 0xFFFFF830  |  4294965296 |
|     469 | 0x086F      |        2159 |
|     470 | 0x1807D     |       98429 |
|     471 | 0xFFFEFF25  |  4294901541 |
|     472 | 0x03E4      |         996 |
|     473 | 0x04E3      |        1251 |
|     474 | 0xFFFCB26E  |  4294750830 |
|     475 | 0xFFFE9627  |  4294874663 |
|     476 | 0xFFFFFF0B  |  4294967051 |
|     477 | 0x09F7      |        2551 |
|     478 | 0x8B2F      |       35631 |
|     479 | 0xFFFF3AAD  |  4294916781 |
|     480 | 0x2329      |        9001 |
|     481 | 0x09EC      |        2540 |
|     482 | 0x27692     |      161426 |
|     483 | 0x274F7     |      161015 |
|     484 | 0x05F8      |        1528 |
|     485 | 0x1C843     |      116803 |
|     486 | 0xFFFEE69B  |  4294895259 |
|     487 | 0x07F9      |        2041 |
|     488 | 0xFFFC8339  |  4294738745 |
|     489 | 0xFFFE2B86  |  4294847366 |
|     490 | 0xFFFFFF07  |  4294967047 |
|     491 | 0x0FFD      |        4093 |
|     492 | 0xBF7E      |       49022 |
|     493 | 0xFFFEE2B4  |  4294894260 |
|     494 | 0x2712      |       10002 |
|     495 | 0x0C0F      |        3087 |
|     496 | 0x185ED     |       99821 |
|     497 | 0xFFFEFF9F  |  4294901663 |
|     498 | 0x0312      |         786 |
|     499 | 0x21BAA     |      138154 |
|     500 | 0x1D514     |      120084 |
|     501 | 0x0E96      |        3734 |
|     502 | 0xFFFCB3AF  |  4294751151 |
|     503 | 0xFFFE90C0  |  4294873280 |
|     504 | 0xFFFFFF72  |  4294967154 |
|     505 | 0x084B      |        2123 |
|     506 | 0x8B65      |       35685 |
|     507 | 0xFFFF3C2F  |  4294917167 |
|     508 | 0x065B      |        1627 |
|     509 | 0xFFFBBF41  |  4294688577 |
|     510 | 0xFFF9A232  |  4294550066 |
|     511 | 0xFFFF641B  |  4294927387 |
|     512 | 0x0AA6      |        2726 |
|     513 | 0x8B7BE     |      571326 |
|     514 | 0xFFFBD923  |  4294695203 |
|     515 | 0xFFFFFEA3  |  4294966947 |
|     516 | 0x01A6      |         422 |
|     517 | 0xFFFBB61F  |  4294686239 |
|     518 | 0xFFF9928F  |  4294546063 |
|     519 | 0xFFFF648E  |  4294927502 |
|     520 | 0x0704      |        1796 |
|     521 | 0x88F90     |      561040 |
|     522 | 0xFFFBC607  |  4294690311 |
|     523 | 0x06C5      |        1733 |
|     524 | 0xFFFA88AC  |  4294609068 |
|     525 | 0x4DDD      |       19933 |
|     526 | 0xFFFF7744  |  4294932292 |
|     527 | 0x0831      |        2097 |
|     528 | 0x1DA71     |      121457 |
|     529 | 0x1C391     |      115601 |
|     530 | 0xFFFFE0D3  |  4294959315 |
|     531 | 0x0DA9      |        3497 |
|     532 | 0x25BC9     |      154569 |
|     533 | 0xFFFD5734  |  4294793012 |
|     534 | 0x0227      |         551 |
|     535 | 0x091C      |        2332 |
|     536 | 0xFFFFC3F3  |  4294951923 |
|     537 | 0x19656     |      104022 |
|     538 | 0xFFFFBC6C  |  4294949996 |
|     539 | 0x0379      |         889 |
|     540 | 0x0286      |         646 |
|     541 | 0xFFFF97B9  |  4294940601 |
|     542 | 0xFFFFE43B  |  4294960187 |
|     543 | 0x0689      |        1673 |
|     544 | 0xFFFFFFD1  |  4294967249 |
|     545 | 0xFFFF80F7  |  4294934775 |
|     546 | 0xFFFFA435  |  4294943797 |
|     547 | 0x03FD      |        1021 |
|     548 | 0xFFFE6D84  |  4294864260 |
|     549 | 0x1521D     |       86557 |
|     550 | 0x064C      |        1612 |
|     551 | 0x9DC49     |      646217 |
|     552 | 0xFFFD6E64  |  4294798948 |
|     553 | 0x0C85      |        3205 |
|     554 | 0xFFFFADA3  |  4294946211 |
|     555 | 0xE9CA      |       59850 |
|     556 | 0xFFFFF799  |  4294965145 |
|     557 | 0x0D28      |        3368 |
|     558 | 0xFFFEABF4  |  4294880244 |
|     559 | 0xFFFA4EB6  |  4294594230 |
|     560 | 0x012D      |         301 |
|     561 | 0x06A4      |        1700 |
|     562 | 0xFFFDB3A7  |  4294816679 |
|     563 | 0x4EF1      |       20209 |
|     564 | 0xFFFFBFF4  |  4294950900 |
|     565 | 0x084E      |        2126 |
|     566 | 0xFFFF6A35  |  4294928949 |
|     567 | 0x03ED      |        1005 |
|     568 | 0xFFFCAEE9  |  4294749929 |
|     569 | 0x70C05     |      461829 |
|     570 | 0x17BF0     |       97264 |
|     571 | 0x08E7      |        2279 |
|     572 | 0xFFFC4F0B  |  4294725387 |
|     573 | 0x51564     |      333156 |
|     574 | 0xFFFFD0E8  |  4294955240 |
|     575 | 0x0278      |         632 |
|     576 | 0xFFFA9423  |  4294612003 |
|     577 | 0xFFFE6DB2  |  4294864306 |
|     578 | 0x3C71      |       15473 |
|     579 | 0x08EC      |        2284 |
|     580 | 0x6D91F     |      448799 |
|     581 | 0xFFFF8D5B  |  4294937947 |
|     582 | 0xFFFF64E1  |  4294927585 |
|     583 | 0x0240      |         576 |
|     584 | 0xFFFFBB04  |  4294949636 |
|     585 | 0xD3E9      |       54249 |
|     586 | 0xFFFFFE47  |  4294966855 |
|     587 | 0x0AC4      |        2756 |
|     588 | 0xFFFFB53C  |  4294948156 |
|     589 | 0x4B66      |       19302 |
|     590 | 0x9EA9      |       40617 |
|     591 | 0x03A7      |         935 |
|     592 | 0x11D84     |       73092 |
|     593 | 0xFFFD607B  |  4294795387 |
|     594 | 0x0F9F      |        3999 |
|     595 | 0x0402      |        1026 |
|     596 | 0xFFFFB137  |  4294947127 |
|     597 | 0x7A43      |       31299 |
|     598 | 0xFFFFD8F2  |  4294957298 |
|     599 | 0x0D4B      |        3403 |
|     600 | 0xFFFFC860  |  4294953056 |
|     601 | 0xD01B      |       53275 |
|     602 | 0xFFFFFD7F  |  4294966655 |
|     603 | 0x0BF0      |        3056 |
|     604 | 0x05F5      |        1525 |
|     605 | 0x3382      |       13186 |
|     606 | 0x1D0D8     |      119000 |
|     607 | 0x0BB8      |        3000 |
|     608 | 0x2B13      |       11027 |
|     609 | 0x2B14      |       11028 |
|     610 | 0x2B15      |       11029 |
|     611 | 0x2B16      |       11030 |
|     612 | 0x2B17      |       11031 |
|     613 | 0x2B18      |       11032 |
|     614 | 0x2B19      |       11033 |
|     615 | 0xFFFF840B  |  4294935563 |
|     616 | 0x10104     |       65796 |
|     617 | 0x0BFA      |        3066 |
|     618 | 0xFFFFE01A  |  4294959130 |
|     619 | 0xFF93      |       65427 |
|     620 | 0x0F01      |        3841 |
|     621 | 0x0006      |           6 |
|     622 | 0xFFFFE250  |  4294959696 |
|     623 | 0xFE3F      |       65087 |
|     624 | 0x75B0      |       30128 |
|     625 | 0xFFFF1D4D  |  4294909261 |
|     626 | 0xFFFFFA25  |  4294965797 |
|     627 | 0x0866      |        2150 |
|     628 | 0x7102      |       28930 |
|     629 | 0xFFFF1D9B  |  4294909339 |
|     630 | 0xFFFFFA24  |  4294965796 |
|     631 | 0x6BD4      |       27604 |
|     632 | 0xFFFF1D7A  |  4294909306 |
|     633 | 0x0820      |        2080 |
|     634 | 0xAB60      |       43872 |
|     635 | 0x07CF      |        1999 |
|     636 | 0x0C4F      |        3151 |
|     637 | 0xB859      |       47193 |
|     638 | 0xB798      |       47000 |
|     639 | 0xFFFFFBCF  |  4294966223 |
|     640 | 0xB1BA      |       45498 |
|     641 | 0x0545      |        1349 |
|     642 | 0xB540      |       46400 |
|     643 | 0xFFFF86E8  |  4294936296 |
|     644 | 0xFC8D      |       64653 |
|     645 | 0x0B79      |        2937 |
|     646 | 0xFFFF8620  |  4294936096 |
|     647 | 0xF80C      |       63500 |
|     648 | 0x0F7A      |        3962 |
|     649 | 0x0008      |           8 |
|     650 | 0xFFFFB52D  |  4294948141 |
|     651 | 0xF783      |       63363 |
|     652 | 0x047B      |        1147 |
|     653 | 0x1D0EC     |      119020 |
|     654 | 0x080E      |        2062 |
|     655 | 0xFFFFEC94  |  4294962324 |
|     656 | 0x1D129     |      119081 |
|     657 | 0x0761      |        1889 |
|     658 | 0x10B0F     |       68367 |
|     659 | 0x12006     |       73734 |
|     660 | 0x12838     |       75832 |
|     661 | 0x04F7      |        1271 |
|     662 | 0x13273     |       78451 |
|     663 | 0x0B5D      |        2909 |
|     664 | 0x026B      |         619 |
|     665 | 0x1382B     |       79915 |
|     666 | 0x0BF4      |        3060 |
|     667 | 0x05AD      |        1453 |
|     668 | 0x13234     |       78388 |
|     669 | 0x0A4B      |        2635 |
|     670 | 0x03E8      |        1000 |
|     671 | 0xF46C      |       62572 |
|     672 | 0xC7EB      |       51179 |
|     673 | 0x02BC      |         700 |
|     674 | 0xBFCE      |       49102 |
|     675 | 0x04C7      |        1223 |
|     676 | 0x7918      |       31000 |
|     677 | 0xEB73      |       60275 |
|     678 | 0x0391      |         913 |
|     679 | 0x0044      |          68 |
|     680 | 0x9313      |       37651 |
|     681 | 0x0C30      |        3120 |
|     682 | 0x000B      |          11 |
|     683 | 0xA018      |       40984 |
|     684 | 0xFFFFF765  |  4294965093 |
|     685 | 0x6728      |       26408 |
|     686 | 0x0943      |        2371 |
|     687 | 0x03BB      |         955 |
|     688 | 0x8EDA      |       36570 |
|     689 | 0x02D8      |         728 |
|     690 | 0x001B      |          27 |
|     691 | 0x00C0      |         192 |
|     692 | 0x3567      |       13671 |
|     693 | 0x3568      |       13672 |
|     694 | 0x3569      |       13673 |
|     695 | 0x356A      |       13674 |
|     696 | 0x0363      |         867 |
|     697 | 0x356B      |       13675 |
|     698 | 0x356C      |       13676 |
|     699 | 0x356D      |       13677 |
|     700 | 0x356E      |       13678 |
|     701 | 0x356F      |       13679 |
|     702 | 0x0056      |          86 |
|     703 | 0x3570      |       13680 |
|     704 | 0x0015      |          21 |
|     705 | 0x3571      |       13681 |
|     706 | 0x0055      |          85 |
|     707 | 0x3572      |       13682 |
|     708 | 0x3573      |       13683 |
|     709 | 0x3574      |       13684 |
|     710 | 0x3575      |       13685 |
|     711 | 0x3576      |       13686 |
|     712 | 0x3577      |       13687 |
|     713 | 0x3578      |       13688 |
|     714 | 0x0034      |          52 |
|     715 | 0x3579      |       13689 |
|     716 | 0x357A      |       13690 |
|     717 | 0x357B      |       13691 |
|     718 | 0x357C      |       13692 |
|     719 | 0x357D      |       13693 |
|     720 | 0x357E      |       13694 |
|     721 | 0x357F      |       13695 |
|     722 | 0x3580      |       13696 |
|     723 | 0x3581      |       13697 |
|     724 | 0x00C2      |         194 |
|     725 | 0x3582      |       13698 |
|     726 | 0x002B      |          43 |
|     727 | 0x9CFF      |       40191 |
|     728 | 0x0BFF      |        3071 |
|     729 | 0x0020      |          32 |
|     730 | 0xABC0      |       43968 |
|     731 | 0x1480F     |       83983 |
|     732 | 0x8C6F      |       35951 |
|     733 | 0x0C17      |        3095 |
|     734 | 0xFFFFFFE6  |  4294967270 |
|     735 | 0x9B9F      |       39839 |
|     736 | 0x01CA      |         458 |
|     737 | 0x11FE6     |       73702 |
|     738 | 0x0233      |         563 |
|     739 | 0x1348A     |       78986 |
|     740 | 0xFFFFFFCE  |  4294967246 |
|     741 | 0xACAE      |       44206 |
|     742 | 0x0009      |           9 |
|     743 | 0xFFFFFFEB  |  4294967275 |
|     744 | 0xB2FD      |       45821 |
|     745 | 0x15038     |       86072 |
|     746 | 0x0C05      |        3077 |
|     747 | 0x013B      |         315 |
|     748 | 0x9011      |       36881 |
|     749 | 0x0657      |        1623 |
|     750 | 0x9858      |       39000 |
|     751 | 0x68AA      |       26794 |
|     752 | 0xFA86      |       64134 |
|     753 | 0xFFFF7B05  |  4294933253 |
|     754 | 0xFFFF12EF  |  4294906607 |
|     755 | 0x048F      |        1167 |
|     756 | 0x102DD     |       66269 |
|     757 | 0xFFFFFD47  |  4294966599 |
|     758 | 0xF25C      |       62044 |
|     759 | 0xFFFFFF7F  |  4294967167 |
|     760 | 0x10089     |       65673 |
|     761 | 0x0294      |         660 |
|     762 | 0x0004      |           4 |
|     763 | 0x0046      |          70 |
|     764 | 0x008C      |         140 |
|     765 | 0x00D2      |         210 |
|     766 | 0x119C5     |       72133 |
|     767 | 0xFFFFFFFC  |  4294967292 |
|     768 | 0x1216A     |       74090 |
|     769 | 0xFFFF8EB4  |  4294938292 |
|     770 | 0xFFFF3462  |  4294915170 |
|     771 | 0x00D3      |         211 |
|     772 | 0x077D      |        1917 |
|     773 | 0x81F5      |       33269 |
|     774 | 0xEC92      |       60562 |
|     775 | 0x0800      |        2048 |
|     776 | 0x2000      |        8192 |
|     777 | 0x1CCF6     |      118006 |
|     778 | 0x0057      |          87 |
|     779 | 0x005D      |          93 |
|     780 | 0x008D      |         141 |
|     781 | 0x0F26      |        3878 |
|     782 | 0x0097      |         151 |
|     783 | 0x00AB      |         171 |
|     784 | 0x00B5      |         181 |
|     785 | 0x00BF      |         191 |
|     786 | 0x0095      |         149 |
|     787 | 0x009F      |         159 |
|     788 | 0x00A9      |         169 |
|     789 | 0x00B3      |         179 |
|     790 | 0x00C7      |         199 |
|     791 | 0x00D1      |         209 |
|     792 | 0x18CD      |        6349 |
|     793 | 0x1CE85     |      118405 |
|     794 | 0x0C1B      |        3099 |
|     795 | 0x12DD      |        4829 |
|     796 | 0x1CD5C     |      118108 |
|     797 | 0x0D30      |        3376 |
|     798 | 0x1C932     |      117042 |
|     799 | 0x099C      |        2460 |
|     800 | 0x1C139     |      115001 |
|     801 | 0x036B      |         875 |
|     802 | 0x18CBE     |      101566 |

## String References

- **9993**: Enter the residential area? [Yes./No.]
- **11174**: Join forces with Jeuno? [Yes./No.]
- **11180**: Is it true? [Yes./No.]
- **15925**: Entering [D. San d'Oria/D. Bastok/D. Windurst/D. Jeuno].
- **15963**: Your $3 fills with sand.

## Events

### Event 65535

#### Metadata

| Field        | Value   |
|--------------|---------|
| Entrypoint   | 0x0000  |
| Data Size    | 4 bytes |
| Instructions | 2       |

```
      00 01 02 03 04 05 06 07  08 09 0A 0B 0C 0D 0E 0F
      -- -- -- -- -- -- -- --  -- -- -- -- -- -- -- --
0000: 32 00 80 00                                       2...            
```

#### Opcodes

```
  0: 0x0000 [0x32] ExtData[1]->MainSpeed = 13* * 0.1
  1: 0x0003 [0x00] END_REQSTACK()
```

### Event 42

#### Metadata

| Field        | Value      |
|--------------|------------|
| Entrypoint   | 0x0004     |
| Data Size    | 1147 bytes |
| Instructions | 179        |

```
      00 01 02 03 04 05 06 07  08 09 0A 0B 0C 0D 0E 0F
      -- -- -- -- -- -- -- --  -- -- -- -- -- -- -- --
0000:             20 01 46 01  42 45 01 80 F0 FF FF 7F       .F.BE......
0010: F0 FF FF 7F 66 64 6F 31  02 80 55 01 80 F0 FF FF  ....fdo1..U.....
0020: 7F F0 FF FF 7F 66 64 6F  31 75 00 03 80 75 01 38  .....fdo1u...u.8
0030: 04 80 37 05 80 06 80 07  80 08 80 7B F0 FF FF 7F  ..7........{....
0040: 4A 01 30 0F 01 F0 FF FF  7F 6F 76 01 30 0F 01 45  J.0......ov.0..E
0050: 09 80 F0 FF FF 7F F0 FF  FF 7F 63 6D 39 30 02 80  ..........cm90..
0060: 55 09 80 F0 FF FF 7F F0  FF FF 7F 63 6D 39 30 45  U..........cm90E
0070: 01 80 F0 FF FF 7F F0 FF  FF 7F 66 64 69 31 02 80  ..........fdi1..
0080: 55 01 80 F0 FF FF 7F F0  FF FF 7F 66 64 69 31 27  U..........fdi1'
0090: 03 01 30 0F 01 11 2B 01  30 0F 01 0A 80 23 29 04  ..0...+.0....#).
00A0: 01 30 0F 01 12 2B 01 30  0F 01 0B 80 23 27 03 01  .0...+.0....#'..
00B0: 30 0F 01 13 2B 01 30 0F  01 0C 80 23 2B 01 30 0F  0...+.0....#+.0.
00C0: 01 0D 80 23 27 03 8C 30  0F 01 02 1C 0E 80 27 03  ...#'..0......'.
00D0: 07 30 0F 01 24 2B 07 30  0F 01 0F 80 23 4A F0 FF  .0..$+.0....#J..
00E0: FF 7F 07 30 0F 01 5C 00  10 80 5C 01 10 80 45 09  ...0..\...\...E.
00F0: 80 F0 FF FF 7F F0 FF FF  7F 63 6D 39 31 02 80 29  .........cm91..)
0100: 04 01 30 0F 01 14 4A 01  30 0F 01 07 30 0F 01 6F  ..0...J.0...0..o
0110: 76 01 30 0F 01 55 09 80  F0 FF FF 7F F0 FF FF 7F  v.0..U..........
0120: 63 6D 39 31 05 20 10 27  01 08 30 0F 01 10 27 03  cm91. .'..0...'.
0130: 07 30 0F 01 13 1C 11 80  45 09 80 F0 FF FF 7F F0  .0......E.......
0140: FF FF 7F 63 6D 39 32 02  80 1C 0E 80 37 12 80 13  ...cm92.....7...
0150: 80 07 80 14 80 55 09 80  F0 FF FF 7F F0 FF FF 7F  .....U..........
0160: 63 6D 39 32 1C 15 80 27  03 8C 30 0F 01 03 29 04  cm92...'..0...).
0170: 07 30 0F 01 2E 06 20 10  27 03 01 30 0F 01 11 2B  .0.... .'..0...+
0180: 01 30 0F 01 16 80 23 29  04 01 30 0F 01 12 29 03  .0....#)..0...).
0190: 07 30 0F 01 14 2B 07 30  0F 01 17 80 23 27 03 01  .0...+.0....#'..
01A0: 30 0F 01 11 2B 01 30 0F  01 18 80 23 27 04 01 30  0...+.0....#'..0
01B0: 0F 01 12 1C 0E 80 27 04  07 30 0F 01 2A 1C 15 80  ......'..0..*...
01C0: 45 09 80 F0 FF FF 7F F0  FF FF 7F 63 6D 39 61 02  E..........cm9a.
01D0: 80 55 09 80 F0 FF FF 7F  F0 FF FF 7F 63 6D 39 61  .U..........cm9a
01E0: 2B 07 30 0F 01 19 80 23  2B 07 30 0F 01 1A 80 23  +.0....#+.0....#
01F0: 27 03 8C 30 0F 01 02 1C  1B 80 4E 00 08 30 0F 01  '..0......N..0..
0200: 27 04 07 30 0F 01 2B 2B  08 30 0F 01 1C 80 23 27  '..0..++.0....#'
0210: 04 08 30 0F 01 05 29 05  07 30 0F 01 2E 4A 07 30  ..0...)..0...J.0
0220: 0F 01 08 30 0F 01 45 09  80 F0 FF FF 7F F0 FF FF  ...0..E.........
0230: 7F 63 6D 39 33 02 80 55  09 80 F0 FF FF 7F F0 FF  .cm93..U........
0240: FF 7F 63 6D 39 33 1E 08  30 0F 01 2B 07 30 0F 01  ..cm93..0..+.0..
0250: 1D 80 23 29 05 08 30 0F  01 17 4A 08 30 0F 01 07  ..#)..0...J.0...
0260: 30 0F 01 6F 76 08 30 0F  01 27 03 08 30 0F 01 13  0..ov.0..'..0...
0270: 2B 08 30 0F 01 1E 80 23  2B 08 30 0F 01 1F 80 23  +.0....#+.0....#
0280: 27 04 08 30 0F 01 16 27  03 07 30 0F 01 15 1C 15  '..0...'..0.....
0290: 80 45 09 80 F0 FF FF 7F  F0 FF FF 7F 63 6D 39 34  .E..........cm94
02A0: 02 80 55 09 80 F0 FF FF  7F F0 FF FF 7F 63 6D 39  ..U..........cm9
02B0: 34 29 04 07 30 0F 01 2E  1C 0E 80 27 04 07 30 0F  4)..0......'..0.
02C0: 01 28 2B 07 30 0F 01 20  80 23 29 05 07 30 0F 01  .(+.0.. .#)..0..
02D0: 29 27 03 08 30 0F 01 13  2B 08 30 0F 01 21 80 23  )'..0...+.0..!.#
02E0: 29 04 08 30 0F 01 16 27  05 08 30 0F 01 06 7B 07  )..0...'..0...{.
02F0: 30 0F 01 05 20 10 27 06  08 30 0F 01 11 27 03 07  0... .'..0...'..
0300: 30 0F 01 16 1C 15 80 45  09 80 F0 FF FF 7F F0 FF  0......E........
0310: FF 7F 63 6D 39 35 02 80  55 09 80 F0 FF FF 7F F0  ..cm95..U.......
0320: FF FF 7F 63 6D 39 35 29  04 07 30 0F 01 2E 06 20  ...cm95)..0.... 
0330: 10 4A 08 30 0F 01 07 30  0F 01 6F 76 08 30 0F 01  .J.0...0..ov.0..
0340: 27 04 07 30 0F 01 2A 2B  07 30 0F 01 22 80 23 29  '..0..*+.0..".#)
0350: 05 07 30 0F 01 2B 4A 07  30 0F 01 01 30 0F 01 6F  ..0..+J.0...0..o
0360: 76 07 30 0F 01 2B 07 30  0F 01 23 80 23 1C 24 80  v.0..+.0..#.#.$.
0370: 27 03 07 30 0F 01 17 1C  15 80 27 03 8C 30 0F 01  '..0......'..0..
0380: 03 2B 08 30 0F 01 25 80  23 4A 08 30 0F 01 01 30  .+.0..%.#J.0...0
0390: 0F 01 6F 76 08 30 0F 01  27 04 08 30 0F 01 14 2B  ..ov.0..'..0...+
03A0: 08 30 0F 01 26 80 23 29  04 08 30 0F 01 15 1C 0E  .0..&.#)..0.....
03B0: 80 27 03 08 30 0F 01 07  1C 27 80 45 09 80 F0 FF  .'..0....'.E....
03C0: FF 7F F0 FF FF 7F 63 6D  39 36 02 80 55 09 80 F0  ......cm96..U...
03D0: FF FF 7F F0 FF FF 7F 63  6D 39 36 27 03 8C 30 0F  .......cm96'..0.
03E0: 01 03 27 03 01 30 0F 01  13 2B 01 30 0F 01 28 80  ..'..0...+.0..(.
03F0: 23 29 04 01 30 0F 01 14  4A 01 30 0F 01 F0 FF FF  #)..0...J.0.....
0400: 7F 6F 76 01 30 0F 01 2B  01 30 0F 01 29 80 23 4A  .ov.0..+.0..).#J
0410: F0 FF FF 7F 01 30 0F 01  27 03 01 30 0F 01 11 2B  .....0..'..0...+
0420: 01 30 0F 01 2A 80 23 2B  01 30 0F 01 2B 80 23 27  .0..*.#+.0..+.#'
0430: 04 01 30 0F 01 12 45 01  80 F0 FF FF 7F F0 FF FF  ..0...E.........
0440: 7F 66 64 6F 31 02 80 55  01 80 F0 FF FF 7F F0 FF  .fdo1..U........
0450: FF 7F 66 64 6F 31 5C 00  2C 80 5C 01 2C 80 46 00  ..fdo1\.,.\.,.F.
0460: 4E 01 07 30 0F 01 4E 01  08 30 0F 01 45 01 80 F0  N..0..N..0..E...
0470: FF FF 7F F0 FF FF 7F 66  64 69 31 02 80 21 00     .......fdi1..!. 
```

#### Opcodes

```
  0: 0x0004 [0x20] SET_CLI_EVENT_UC_FLAG: Lock player control
  1: 0x0006 [0x46] CAMERA_CONTROL: Disable user control
  2: 0x0008 [0x42] SET_CLI_EVENT_CANCEL_DATA()
  3: 0x0009 [0x45] LOAD_SCHEDULED_TASK: Load scheduler "fdo1" with entities [LocalPlayer, LocalPlayer], work=[200*, 0*]
  4: 0x001A [0x55] WAIT_LOAD_SCHEDULER: Wait for scheduler "fdo1" with entities [LocalPlayer, LocalPlayer], work=200*
  5: 0x0029 [0x75] LOAD_ROOM(Load indoor room, room=433*)
  6: 0x002D [0x75] LOAD_ROOM(No action)
  7: 0x002F [0x38] SET_CLIENT_EVENT_MODE(mode=3*)
  8: 0x0032 [0x37] UPDATE_EVENT_POSITION_AND_DIR: x=-33.168*, z=-49.442*, y=8.999*, direction=175.5*
  9: 0x003B [0x7B] LocalPlayer stops talking
 10: 0x0040 [0x4A] Nelcabrit (ID: 17772545/0x010F3001) looks at LocalPlayer
 11: 0x0049 [0x6F] WAIT_FRAME_DELAY: Yield until WaitTime reaches zero
 12: 0x004A [0x76] CHECK_ENTITY_RENDER_FLAGS: Wait until Nelcabrit (ID: 17772545/0x010F3001) Render.Flags0 and Render.Flags3 conditions are met
 13: 0x004F [0x45] LOAD_SCHEDULED_TASK: Load scheduler "cm90" with entities [LocalPlayer, LocalPlayer], work=[143*, 0*]
 14: 0x0060 [0x55] WAIT_LOAD_SCHEDULER: Wait for scheduler "cm90" with entities [LocalPlayer, LocalPlayer], work=143*
 15: 0x006F [0x45] LOAD_SCHEDULED_TASK: Load scheduler "fdi1" with entities [LocalPlayer, LocalPlayer], work=[200*, 0*]
 16: 0x0080 [0x55] WAIT_LOAD_SCHEDULER: Wait for scheduler "fdi1" with entities [LocalPlayer, LocalPlayer], work=200*
 17: 0x008F [0x27] REQ_SET(priority=0x03, entity_id=Nelcabrit (ID: 17772545/0x010F3001), tag_num=0x11)
 18: 0x0096 [0x2B] Nelcabrit (ID: 17772545/0x010F3001) [10004*]:
     "Welcome to the San d'Orian Embassy. Do you require assistance?"
 19: 0x009D [0x23] WAIT_FOR_DIALOG_INTERACTION
 20: 0x009E [0x29] REQ_SET_WAIT(priority=0x04, entity_id=Nelcabrit (ID: 17772545/0x010F3001), tag_num=0x12)
 21: 0x00A5 [0x2B] Nelcabrit (ID: 17772545/0x010F3001) [10007*]:
     "Good day, <Player>. The court had notified us about you."
 22: 0x00AC [0x23] WAIT_FOR_DIALOG_INTERACTION
 23: 0x00AD [0x27] REQ_SET(priority=0x03, entity_id=Nelcabrit (ID: 17772545/0x010F3001), tag_num=0x13)
 24: 0x00B4 [0x2B] Nelcabrit (ID: 17772545/0x010F3001) [10010*]:
     "But I'm afraid the ambassador is away at the moment."
 25: 0x00BB [0x23] WAIT_FOR_DIALOG_INTERACTION
 26: 0x00BC [0x2B] Nelcabrit (ID: 17772545/0x010F3001) [10013*]:
     "You've heard of Delkfutt's Tower, have you not? The ambassador is presently inspecting that area. Her Excellency is scheduled to return soon, however."
 27: 0x00C3 [0x23] WAIT_FOR_DIALOG_INTERACTION
 28: 0x00C4 [0x27] REQ_SET(priority=0x03, entity_id=Door:San d'Orian Emb. (ID: 17772684/0x010F308C), tag_num=0x02)
 29: 0x00CB [0x1C] WAIT(30* ticks)
 30: 0x00CE [0x27] REQ_SET(priority=0x03, entity_id=Wolfgang (ID: 17772551/0x010F3007), tag_num=0x24)
 31: 0x00D5 [0x2B] Wolfgang (ID: 17772551/0x010F3007) [10016*]:
     "Good day."
 32: 0x00DC [0x23] WAIT_FOR_DIALOG_INTERACTION
 33: 0x00DD [0x4A] LocalPlayer looks at Wolfgang (ID: 17772551/0x010F3007)
 34: 0x00E6 [0x5C] MUSIC_CONTROL: Set Idle (Day) music to song 163*
 35: 0x00EA [0x5C] MUSIC_CONTROL: Set Idle (Night) music to song 163*
 36: 0x00EE [0x45] LOAD_SCHEDULED_TASK: Load scheduler "cm91" with entities [LocalPlayer, LocalPlayer], work=[143*, 0*]
 37: 0x00FF [0x29] REQ_SET_WAIT(priority=0x04, entity_id=Nelcabrit (ID: 17772545/0x010F3001), tag_num=0x14)
 38: 0x0106 [0x4A] Nelcabrit (ID: 17772545/0x010F3001) looks at Wolfgang (ID: 17772551/0x010F3007)
 39: 0x010F [0x6F] WAIT_FRAME_DELAY: Yield until WaitTime reaches zero
 40: 0x0110 [0x76] CHECK_ENTITY_RENDER_FLAGS: Wait until Nelcabrit (ID: 17772545/0x010F3001) Render.Flags0 and Render.Flags3 conditions are met
 41: 0x0115 [0x55] WAIT_LOAD_SCHEDULER: Wait for scheduler "cm91" with entities [LocalPlayer, LocalPlayer], work=143*
 42: 0x0124 [0x05] Work_Zone[32] = 1
 43: 0x0127 [0x27] REQ_SET(priority=0x01, entity_id=Monberaux (ID: 17772552/0x010F3008), tag_num=0x10)
 44: 0x012E [0x27] REQ_SET(priority=0x03, entity_id=Wolfgang (ID: 17772551/0x010F3007), tag_num=0x13)
 45: 0x0135 [0x1C] WAIT(120* ticks)
 46: 0x0138 [0x45] LOAD_SCHEDULED_TASK: Load scheduler "cm92" with entities [LocalPlayer, LocalPlayer], work=[143*, 0*]
 47: 0x0149 [0x1C] WAIT(30* ticks)
 48: 0x014C [0x37] UPDATE_EVENT_POSITION_AND_DIR: x=-33.326*, z=-48.333*, y=8.999*, direction=176.8*
 49: 0x0155 [0x55] WAIT_LOAD_SCHEDULER: Wait for scheduler "cm92" with entities [LocalPlayer, LocalPlayer], work=143*
 50: 0x0164 [0x1C] WAIT(60* ticks)
 51: 0x0167 [0x27] REQ_SET(priority=0x03, entity_id=Door:San d'Orian Emb. (ID: 17772684/0x010F308C), tag_num=0x03)
 52: 0x016E [0x29] REQ_SET_WAIT(priority=0x04, entity_id=Wolfgang (ID: 17772551/0x010F3007), tag_num=0x2E)
 53: 0x0175 [0x06] Work_Zone[32] = 0
 54: 0x0178 [0x27] REQ_SET(priority=0x03, entity_id=Nelcabrit (ID: 17772545/0x010F3001), tag_num=0x11)
 55: 0x017F [0x2B] Nelcabrit (ID: 17772545/0x010F3001) [10017*]:
     "Why, Lord Wolfgang! To what do we owe this honor?"
 56: 0x0186 [0x23] WAIT_FOR_DIALOG_INTERACTION
 57: 0x0187 [0x29] REQ_SET_WAIT(priority=0x04, entity_id=Nelcabrit (ID: 17772545/0x010F3001), tag_num=0x12)
 58: 0x018E [0x29] REQ_SET_WAIT(priority=0x03, entity_id=Wolfgang (ID: 17772551/0x010F3007), tag_num=0x14)
 59: 0x0195 [0x2B] Wolfgang (ID: 17772551/0x010F3007) [10020*]:
     "I seek audience with your ambassador."
 60: 0x019C [0x23] WAIT_FOR_DIALOG_INTERACTION
 61: 0x019D [0x27] REQ_SET(priority=0x03, entity_id=Nelcabrit (ID: 17772545/0x010F3001), tag_num=0x11)
 62: 0x01A4 [0x2B] Nelcabrit (ID: 17772545/0x010F3001) [10021*]:
     "I am sorry, but Her Excellency has gone to investigate Delkfutt's Tower."
 63: 0x01AB [0x23] WAIT_FOR_DIALOG_INTERACTION
 64: 0x01AC [0x27] REQ_SET(priority=0x04, entity_id=Nelcabrit (ID: 17772545/0x010F3001), tag_num=0x12)
 65: 0x01B3 [0x1C] WAIT(30* ticks)
 66: 0x01B6 [0x27] REQ_SET(priority=0x04, entity_id=Wolfgang (ID: 17772551/0x010F3007), tag_num=0x2A)
 67: 0x01BD [0x1C] WAIT(60* ticks)
 68: 0x01C0 [0x45] LOAD_SCHEDULED_TASK: Load scheduler "cm9a" with entities [LocalPlayer, LocalPlayer], work=[143*, 0*]
 69: 0x01D1 [0x55] WAIT_LOAD_SCHEDULER: Wait for scheduler "cm9a" with entities [LocalPlayer, LocalPlayer], work=143*
 70: 0x01E0 [0x2B] Wolfgang (ID: 17772551/0x010F3007) [10024*]:
     "Delkfutt's Tower? What kind of investigation is it?"
 71: 0x01E7 [0x23] WAIT_FOR_DIALOG_INTERACTION
 72: 0x01E8 [0x2B] Wolfgang (ID: 17772551/0x010F3007) [10025*]:
     "I would ask your ambassador to avoid such dangerous places... Or is it by order of your nation?"
 73: 0x01EF [0x23] WAIT_FOR_DIALOG_INTERACTION
 74: 0x01F0 [0x27] REQ_SET(priority=0x03, entity_id=Door:San d'Orian Emb. (ID: 17772684/0x010F308C), tag_num=0x02)
 75: 0x01F7 [0x1C] WAIT(20* ticks)
 76: 0x01FA [0x4E] SET_ENTITY_HIDE_FLAG: Show Monberaux (ID: 17772552/0x010F3008)
 77: 0x0200 [0x27] REQ_SET(priority=0x04, entity_id=Wolfgang (ID: 17772551/0x010F3007), tag_num=0x2B)
 78: 0x0207 [0x2B] Monberaux (ID: 17772552/0x010F3008) [10026*]:
     "Excuse me... Is the ambassador in residence?"
 79: 0x020E [0x23] WAIT_FOR_DIALOG_INTERACTION
 80: 0x020F [0x27] REQ_SET(priority=0x04, entity_id=Monberaux (ID: 17772552/0x010F3008), tag_num=0x05)
 81: 0x0216 [0x29] REQ_SET_WAIT(priority=0x05, entity_id=Wolfgang (ID: 17772551/0x010F3007), tag_num=0x2E)
 82: 0x021D [0x4A] Wolfgang (ID: 17772551/0x010F3007) looks at Monberaux (ID: 17772552/0x010F3008)
 83: 0x0226 [0x45] LOAD_SCHEDULED_TASK: Load scheduler "cm93" with entities [LocalPlayer, LocalPlayer], work=[143*, 0*]
 84: 0x0237 [0x55] WAIT_LOAD_SCHEDULER: Wait for scheduler "cm93" with entities [LocalPlayer, LocalPlayer], work=143*
 85: 0x0246 [0x1E] EventEntity looks at Monberaux (ID: 17772552/0x010F3008) and starts talking
 86: 0x024B [0x2B] Wolfgang (ID: 17772551/0x010F3007) [10027*]:
     "Monberaux! What business have you here?"
 87: 0x0252 [0x23] WAIT_FOR_DIALOG_INTERACTION
 88: 0x0253 [0x29] REQ_SET_WAIT(priority=0x05, entity_id=Monberaux (ID: 17772552/0x010F3008), tag_num=0x17)
 89: 0x025A [0x4A] Monberaux (ID: 17772552/0x010F3008) looks at Wolfgang (ID: 17772551/0x010F3007)
 90: 0x0263 [0x6F] WAIT_FRAME_DELAY: Yield until WaitTime reaches zero
 91: 0x0264 [0x76] CHECK_ENTITY_RENDER_FLAGS: Wait until Monberaux (ID: 17772552/0x010F3008) Render.Flags0 and Render.Flags3 conditions are met
 92: 0x0269 [0x27] REQ_SET(priority=0x03, entity_id=Monberaux (ID: 17772552/0x010F3008), tag_num=0x13)
 93: 0x0270 [0x2B] Monberaux (ID: 17772552/0x010F3008) [10028*]:
     "Wolfgang. How have you been?"
 94: 0x0277 [0x23] WAIT_FOR_DIALOG_INTERACTION
 95: 0x0278 [0x2B] Monberaux (ID: 17772552/0x010F3008) [10029*]:
     "The ambassador has a rare affliction, and it's time for a checkup."
 96: 0x027F [0x23] WAIT_FOR_DIALOG_INTERACTION
 97: 0x0280 [0x27] REQ_SET(priority=0x04, entity_id=Monberaux (ID: 17772552/0x010F3008), tag_num=0x16)
 98: 0x0287 [0x27] REQ_SET(priority=0x03, entity_id=Wolfgang (ID: 17772551/0x010F3007), tag_num=0x15)
 99: 0x028E [0x1C] WAIT(60* ticks)
100: 0x0291 [0x45] LOAD_SCHEDULED_TASK: Load scheduler "cm94" with entities [LocalPlayer, LocalPlayer], work=[143*, 0*]
101: 0x02A2 [0x55] WAIT_LOAD_SCHEDULER: Wait for scheduler "cm94" with entities [LocalPlayer, LocalPlayer], work=143*
102: 0x02B1 [0x29] REQ_SET_WAIT(priority=0x04, entity_id=Wolfgang (ID: 17772551/0x010F3007), tag_num=0x2E)
103: 0x02B8 [0x1C] WAIT(30* ticks)
104: 0x02BB [0x27] REQ_SET(priority=0x04, entity_id=Wolfgang (ID: 17772551/0x010F3007), tag_num=0x28)
105: 0x02C2 [0x2B] Wolfgang (ID: 17772551/0x010F3007) [10030*]:
     "I say this to you as a friend... Keep a safe distance from foreign dignitaries."
106: 0x02C9 [0x23] WAIT_FOR_DIALOG_INTERACTION
107: 0x02CA [0x29] REQ_SET_WAIT(priority=0x05, entity_id=Wolfgang (ID: 17772551/0x010F3007), tag_num=0x29)
108: 0x02D1 [0x27] REQ_SET(priority=0x03, entity_id=Monberaux (ID: 17772552/0x010F3008), tag_num=0x13)
109: 0x02D8 [0x2B] Monberaux (ID: 17772552/0x010F3008) [10031*]:
     "I've told you before that diseases know no borders. Every patient needs a doctor; nationality and status matter not."
110: 0x02DF [0x23] WAIT_FOR_DIALOG_INTERACTION
111: 0x02E0 [0x29] REQ_SET_WAIT(priority=0x04, entity_id=Monberaux (ID: 17772552/0x010F3008), tag_num=0x16)
112: 0x02E7 [0x27] REQ_SET(priority=0x05, entity_id=Monberaux (ID: 17772552/0x010F3008), tag_num=0x06)
113: 0x02EE [0x7B] Wolfgang (ID: 17772551/0x010F3007) stops talking
114: 0x02F3 [0x05] Work_Zone[32] = 1
115: 0x02F6 [0x27] REQ_SET(priority=0x06, entity_id=Monberaux (ID: 17772552/0x010F3008), tag_num=0x11)
116: 0x02FD [0x27] REQ_SET(priority=0x03, entity_id=Wolfgang (ID: 17772551/0x010F3007), tag_num=0x16)
117: 0x0304 [0x1C] WAIT(60* ticks)
118: 0x0307 [0x45] LOAD_SCHEDULED_TASK: Load scheduler "cm95" with entities [LocalPlayer, LocalPlayer], work=[143*, 0*]
119: 0x0318 [0x55] WAIT_LOAD_SCHEDULER: Wait for scheduler "cm95" with entities [LocalPlayer, LocalPlayer], work=143*
120: 0x0327 [0x29] REQ_SET_WAIT(priority=0x04, entity_id=Wolfgang (ID: 17772551/0x010F3007), tag_num=0x2E)
121: 0x032E [0x06] Work_Zone[32] = 0
122: 0x0331 [0x4A] Monberaux (ID: 17772552/0x010F3008) looks at Wolfgang (ID: 17772551/0x010F3007)
123: 0x033A [0x6F] WAIT_FRAME_DELAY: Yield until WaitTime reaches zero
124: 0x033B [0x76] CHECK_ENTITY_RENDER_FLAGS: Wait until Monberaux (ID: 17772552/0x010F3008) Render.Flags0 and Render.Flags3 conditions are met
125: 0x0340 [0x27] REQ_SET(priority=0x04, entity_id=Wolfgang (ID: 17772551/0x010F3007), tag_num=0x2A)
126: 0x0347 [0x2B] Wolfgang (ID: 17772551/0x010F3007) [10032*]:
     "Hmph. You haven't changed a bit, have you? You should take special care, my friend, lest you come to regret it."
127: 0x034E [0x23] WAIT_FOR_DIALOG_INTERACTION
128: 0x034F [0x29] REQ_SET_WAIT(priority=0x05, entity_id=Wolfgang (ID: 17772551/0x010F3007), tag_num=0x2B)
129: 0x0356 [0x4A] Wolfgang (ID: 17772551/0x010F3007) looks at Nelcabrit (ID: 17772545/0x010F3001)
130: 0x035F [0x6F] WAIT_FRAME_DELAY: Yield until WaitTime reaches zero
131: 0x0360 [0x76] CHECK_ENTITY_RENDER_FLAGS: Wait until Wolfgang (ID: 17772551/0x010F3007) Render.Flags0 and Render.Flags3 conditions are met
132: 0x0365 [0x2B] Wolfgang (ID: 17772551/0x010F3007) [10033*]:
     "Advise your ambassador against these careless adventures. I shall return later. Good day."
133: 0x036C [0x23] WAIT_FOR_DIALOG_INTERACTION
134: 0x036D [0x1C] WAIT(90* ticks)
135: 0x0370 [0x27] REQ_SET(priority=0x03, entity_id=Wolfgang (ID: 17772551/0x010F3007), tag_num=0x17)
136: 0x0377 [0x1C] WAIT(60* ticks)
137: 0x037A [0x27] REQ_SET(priority=0x03, entity_id=Door:San d'Orian Emb. (ID: 17772684/0x010F308C), tag_num=0x03)
138: 0x0381 [0x2B] Monberaux (ID: 17772552/0x010F3008) [10034*]:
     "Hmm..."
139: 0x0388 [0x23] WAIT_FOR_DIALOG_INTERACTION
140: 0x0389 [0x4A] Monberaux (ID: 17772552/0x010F3008) looks at Nelcabrit (ID: 17772545/0x010F3001)
141: 0x0392 [0x6F] WAIT_FRAME_DELAY: Yield until WaitTime reaches zero
142: 0x0393 [0x76] CHECK_ENTITY_RENDER_FLAGS: Wait until Monberaux (ID: 17772552/0x010F3008) Render.Flags0 and Render.Flags3 conditions are met
143: 0x0398 [0x27] REQ_SET(priority=0x04, entity_id=Monberaux (ID: 17772552/0x010F3008), tag_num=0x14)
144: 0x039F [0x2B] Monberaux (ID: 17772552/0x010F3008) [10035*]:
     "Well, I can't give checkups without a patient. Please convey how sorry I was to miss the ambassador, and that I'll call again later."
145: 0x03A6 [0x23] WAIT_FOR_DIALOG_INTERACTION
146: 0x03A7 [0x29] REQ_SET_WAIT(priority=0x04, entity_id=Monberaux (ID: 17772552/0x010F3008), tag_num=0x15)
147: 0x03AE [0x1C] WAIT(30* ticks)
148: 0x03B1 [0x27] REQ_SET(priority=0x03, entity_id=Monberaux (ID: 17772552/0x010F3008), tag_num=0x07)
149: 0x03B8 [0x1C] WAIT(270* ticks)
150: 0x03BB [0x45] LOAD_SCHEDULED_TASK: Load scheduler "cm96" with entities [LocalPlayer, LocalPlayer], work=[143*, 0*]
151: 0x03CC [0x55] WAIT_LOAD_SCHEDULER: Wait for scheduler "cm96" with entities [LocalPlayer, LocalPlayer], work=143*
152: 0x03DB [0x27] REQ_SET(priority=0x03, entity_id=Door:San d'Orian Emb. (ID: 17772684/0x010F308C), tag_num=0x03)
153: 0x03E2 [0x27] REQ_SET(priority=0x03, entity_id=Nelcabrit (ID: 17772545/0x010F3001), tag_num=0x13)
154: 0x03E9 [0x2B] Nelcabrit (ID: 17772545/0x010F3001) [10036*]:
     "Sir Wolfgang is the captain of the guard for Archduke Kam'lanaut. But I wonder what business he had with Her Excellency..."
155: 0x03F0 [0x23] WAIT_FOR_DIALOG_INTERACTION
156: 0x03F1 [0x29] REQ_SET_WAIT(priority=0x04, entity_id=Nelcabrit (ID: 17772545/0x010F3001), tag_num=0x14)
157: 0x03F8 [0x4A] Nelcabrit (ID: 17772545/0x010F3001) looks at LocalPlayer
158: 0x0401 [0x6F] WAIT_FRAME_DELAY: Yield until WaitTime reaches zero
159: 0x0402 [0x76] CHECK_ENTITY_RENDER_FLAGS: Wait until Nelcabrit (ID: 17772545/0x010F3001) Render.Flags0 and Render.Flags3 conditions are met
160: 0x0407 [0x2B] Nelcabrit (ID: 17772545/0x010F3001) [10039*]:
     "Ah, but it is a good thing you are here! Why don't you go to Delkfutt's Tower and report on the ambassador's progress? A fitting task for the newcomer!"
161: 0x040E [0x23] WAIT_FOR_DIALOG_INTERACTION
162: 0x040F [0x4A] LocalPlayer looks at Nelcabrit (ID: 17772545/0x010F3001)
163: 0x0418 [0x27] REQ_SET(priority=0x03, entity_id=Nelcabrit (ID: 17772545/0x010F3001), tag_num=0x11)
164: 0x041F [0x2B] Nelcabrit (ID: 17772545/0x010F3001) [10042*]:
     "Tread lightly, as the place is crawling with fiends. It would behoove you to purchase arms in town, and to travel in the company of fellow adventurers."
165: 0x0426 [0x23] WAIT_FOR_DIALOG_INTERACTION
166: 0x0427 [0x2B] Nelcabrit (ID: 17772545/0x010F3001) [10045*]:
     "Of course, you were promoted for a reason, so I have the utmost faith in your success. Best of luck to you!"
167: 0x042E [0x23] WAIT_FOR_DIALOG_INTERACTION
168: 0x042F [0x27] REQ_SET(priority=0x04, entity_id=Nelcabrit (ID: 17772545/0x010F3001), tag_num=0x12)
169: 0x0436 [0x45] LOAD_SCHEDULED_TASK: Load scheduler "fdo1" with entities [LocalPlayer, LocalPlayer], work=[200*, 0*]
170: 0x0447 [0x55] WAIT_LOAD_SCHEDULER: Wait for scheduler "fdo1" with entities [LocalPlayer, LocalPlayer], work=200*
171: 0x0456 [0x5C] MUSIC_CONTROL: Set Idle (Day) music to song 117*
172: 0x045A [0x5C] MUSIC_CONTROL: Set Idle (Night) music to song 117*
173: 0x045E [0x46] CAMERA_CONTROL: Restore default settings
174: 0x0460 [0x4E] SET_ENTITY_HIDE_FLAG: Hide Wolfgang (ID: 17772551/0x010F3007)
175: 0x0466 [0x4E] SET_ENTITY_HIDE_FLAG: Hide Monberaux (ID: 17772552/0x010F3008)
176: 0x046C [0x45] LOAD_SCHEDULED_TASK: Load scheduler "fdi1" with entities [LocalPlayer, LocalPlayer], work=[200*, 0*]
177: 0x047D [0x21] END_EVENT
178: 0x047E [0x00] END_REQSTACK()
```

### Event 65535.1

#### Metadata

| Field        | Value    |
|--------------|----------|
| Entrypoint   | 0x047F   |
| Data Size    | 10 bytes |
| Instructions | 2        |

```
      00 01 02 03 04 05 06 07  08 09 0A 0B 0C 0D 0E 0F
      -- -- -- -- -- -- -- --  -- -- -- -- -- -- -- --
0470:                                               37                 7
0480: 2D 80 2E 80 07 80 2F 80  00                       -...../..       
```

#### Opcodes

```
  0: 0x047F [0x37] UPDATE_EVENT_POSITION_AND_DIR: x=-31.152*, z=-63.823*, y=8.999*, direction=86.9*
  1: 0x0488 [0x00] END_REQSTACK()
```

### Event 65535.2

#### Metadata

| Field        | Value    |
|--------------|----------|
| Entrypoint   | 0x0489   |
| Data Size    | 25 bytes |
| Instructions | 7        |

```
      00 01 02 03 04 05 06 07  08 09 0A 0B 0C 0D 0E 0F
      -- -- -- -- -- -- -- --  -- -- -- -- -- -- -- --
0480:                             1F 00 30 80 31 80 07           ..0.1..
0490: 80 1F 01 1F 00 32 80 33  80 07 80 1F 01 6F 39 34  .....2.3.....o94
04A0: 80 00                                             ..              
```

#### Opcodes

```
  0: 0x0489 [0x1F] MOVE_ENTITY: EventEntity moves to X=-30.938*, Z=-67.807*, Y=8.999*
  1: 0x0491 [0x1F] MOVE_ENTITY: Update entity position (mode=1)
  2: 0x0493 [0x1F] MOVE_ENTITY: EventEntity moves to X=-32.165*, Z=-70.238*, Y=8.999*
  3: 0x049B [0x1F] MOVE_ENTITY: Update entity position (mode=1)
  4: 0x049D [0x6F] WAIT_FRAME_DELAY: Yield until WaitTime reaches zero
  5: 0x049E [0x39] SET_ENTITY_DIRECTION(direction=5.6*)
  6: 0x04A1 [0x00] END_REQSTACK()
```

### Event 65535.3

#### Metadata

| Field        | Value    |
|--------------|----------|
| Entrypoint   | 0x04A2   |
| Data Size    | 25 bytes |
| Instructions | 7        |

```
      00 01 02 03 04 05 06 07  08 09 0A 0B 0C 0D 0E 0F
      -- -- -- -- -- -- -- --  -- -- -- -- -- -- -- --
04A0:       1F 00 35 80 36 80  07 80 1F 01 1F 00 37 80    ..5.6.......7.
04B0: 38 80 07 80 1F 01 6F 39  34 80 00                 8.....o94..     
```

#### Opcodes

```
  0: 0x04A2 [0x1F] MOVE_ENTITY: EventEntity moves to X=-31.144*, Z=-66.322*, Y=8.999*
  1: 0x04AA [0x1F] MOVE_ENTITY: Update entity position (mode=1)
  2: 0x04AC [0x1F] MOVE_ENTITY: EventEntity moves to X=-32.059*, Z=-71.329*, Y=8.999*
  3: 0x04B4 [0x1F] MOVE_ENTITY: Update entity position (mode=1)
  4: 0x04B6 [0x6F] WAIT_FRAME_DELAY: Yield until WaitTime reaches zero
  5: 0x04B7 [0x39] SET_ENTITY_DIRECTION(direction=5.6*)
  6: 0x04BA [0x00] END_REQSTACK()
```

### Event 65535.4

#### Metadata

| Field        | Value    |
|--------------|----------|
| Entrypoint   | 0x04BB   |
| Data Size    | 45 bytes |
| Instructions | 5        |

```
      00 01 02 03 04 05 06 07  08 09 0A 0B 0C 0D 0E 0F
      -- -- -- -- -- -- -- --  -- -- -- -- -- -- -- --
04B0:                                   1C 0E 80 4A F0             ...J.
04C0: FF FF 7F 01 30 0F 01 45  09 80 F0 FF FF 7F F0 FF  ....0..E........
04D0: FF 7F 63 6D 62 33 02 80  55 09 80 F0 FF FF 7F F0  ..cmb3..U.......
04E0: FF FF 7F 63 6D 62 33 00                           ...cmb3.        
```

#### Opcodes

```
  0: 0x04BB [0x1C] WAIT(30* ticks)
  1: 0x04BE [0x4A] LocalPlayer looks at Nelcabrit (ID: 17772545/0x010F3001)
  2: 0x04C7 [0x45] LOAD_SCHEDULED_TASK: Load scheduler "cmb3" with entities [LocalPlayer, LocalPlayer], work=[143*, 0*]
  3: 0x04D8 [0x55] WAIT_LOAD_SCHEDULER: Wait for scheduler "cmb3" with entities [LocalPlayer, LocalPlayer], work=143*
  4: 0x04E7 [0x00] END_REQSTACK()
```

### Event 65535.5

#### Metadata

| Field        | Value   |
|--------------|---------|
| Entrypoint   | 0x04E8  |
| Data Size    | 1 bytes |
| Instructions | 1       |

```
      00 01 02 03 04 05 06 07  08 09 0A 0B 0C 0D 0E 0F
      -- -- -- -- -- -- -- --  -- -- -- -- -- -- -- --
04E0:                          00                               .       
```

#### Opcodes

```
  0: 0x04E8 [0x00] END_REQSTACK()
```

### Event 65535.6

#### Metadata

| Field        | Value    |
|--------------|----------|
| Entrypoint   | 0x04E9   |
| Data Size    | 21 bytes |
| Instructions | 5        |

```
      00 01 02 03 04 05 06 07  08 09 0A 0B 0C 0D 0E 0F
      -- -- -- -- -- -- -- --  -- -- -- -- -- -- -- --
04E0:                             1F 00 30 80 31 80 07           ..0.1..
04F0: 80 1F 01 1F 00 39 80 3A  80 07 80 1F 01 00        .....9.:......  
```

#### Opcodes

```
  0: 0x04E9 [0x1F] MOVE_ENTITY: EventEntity moves to X=-30.938*, Z=-67.807*, Y=8.999*
  1: 0x04F1 [0x1F] MOVE_ENTITY: Update entity position (mode=1)
  2: 0x04F3 [0x1F] MOVE_ENTITY: EventEntity moves to X=-31.198*, Z=-63.875*, Y=8.999*
  3: 0x04FB [0x1F] MOVE_ENTITY: Update entity position (mode=1)
  4: 0x04FD [0x00] END_REQSTACK()
```

### Event 41

#### Metadata

| Field        | Value      |
|--------------|------------|
| Entrypoint   | 0x04FE     |
| Data Size    | 1147 bytes |
| Instructions | 179        |

```
      00 01 02 03 04 05 06 07  08 09 0A 0B 0C 0D 0E 0F
      -- -- -- -- -- -- -- --  -- -- -- -- -- -- -- --
04F0:                                            20 01                 .
0500: 46 01 42 45 01 80 F0 FF  FF 7F F0 FF FF 7F 66 64  F.BE..........fd
0510: 6F 31 02 80 55 01 80 F0  FF FF 7F F0 FF FF 7F 66  o1..U..........f
0520: 64 6F 31 75 00 3B 80 75  01 38 04 80 37 3C 80 3D  do1u.;.u.8..7<.=
0530: 80 07 80 3E 80 7B F0 FF  FF 7F 4A 03 30 0F 01 F0  ...>.{....J.0...
0540: FF FF 7F 6F 76 03 30 0F  01 45 09 80 F0 FF FF 7F  ...ov.0..E......
0550: F0 FF FF 7F 63 6D 36 30  02 80 55 09 80 F0 FF FF  ....cm60..U.....
0560: 7F F0 FF FF 7F 63 6D 36  30 45 01 80 F0 FF FF 7F  .....cm60E......
0570: F0 FF FF 7F 66 64 69 31  02 80 55 01 80 F0 FF FF  ....fdi1..U.....
0580: 7F F0 FF FF 7F 66 64 69  31 27 03 03 30 0F 01 11  .....fdi1'..0...
0590: 2B 03 30 0F 01 3F 80 23  29 04 03 30 0F 01 16 2B  +.0..?.#)..0...+
05A0: 03 30 0F 01 40 80 23 27  03 03 30 0F 01 13 2B 03  .0..@.#'..0...+.
05B0: 30 0F 01 41 80 23 2B 03  30 0F 01 42 80 23 27 03  0..A.#+.0..B.#'.
05C0: 89 30 0F 01 02 1C 0E 80  27 03 07 30 0F 01 24 2B  .0......'..0..$+
05D0: 07 30 0F 01 0F 80 23 4A  F0 FF FF 7F 07 30 0F 01  .0....#J.....0..
05E0: 5C 00 10 80 5C 01 10 80  45 09 80 F0 FF FF 7F F0  \...\...E.......
05F0: FF FF 7F 63 6D 36 31 02  80 29 04 03 30 0F 01 14  ...cm61..)..0...
0600: 4A 03 30 0F 01 07 30 0F  01 6F 76 03 30 0F 01 55  J.0...0..ov.0..U
0610: 09 80 F0 FF FF 7F F0 FF  FF 7F 63 6D 36 31 05 20  ..........cm61. 
0620: 10 27 01 08 30 0F 01 10  27 03 07 30 0F 01 19 1C  .'..0...'..0....
0630: 11 80 45 09 80 F0 FF FF  7F F0 FF FF 7F 63 6D 36  ..E..........cm6
0640: 32 02 80 1C 0E 80 37 43  80 44 80 45 80 46 80 55  2.....7C.D.E.F.U
0650: 09 80 F0 FF FF 7F F0 FF  FF 7F 63 6D 36 32 1C 15  ..........cm62..
0660: 80 27 03 89 30 0F 01 03  29 04 07 30 0F 01 2E 06  .'..0...)..0....
0670: 20 10 27 03 03 30 0F 01  11 2B 03 30 0F 01 47 80   .'..0...+.0..G.
0680: 23 29 04 03 30 0F 01 16  29 03 07 30 0F 01 1A 2B  #)..0...)..0...+
0690: 07 30 0F 01 17 80 23 27  03 03 30 0F 01 11 2B 03  .0....#'..0...+.
06A0: 30 0F 01 48 80 23 27 04  03 30 0F 01 16 1C 0E 80  0..H.#'..0......
06B0: 27 04 07 30 0F 01 2A 1C  15 80 45 09 80 F0 FF FF  '..0..*...E.....
06C0: 7F F0 FF FF 7F 63 6D 36  61 02 80 55 09 80 F0 FF  .....cm6a..U....
06D0: FF 7F F0 FF FF 7F 63 6D  36 61 2B 07 30 0F 01 19  ......cm6a+.0...
06E0: 80 23 2B 07 30 0F 01 1A  80 23 27 03 89 30 0F 01  .#+.0....#'..0..
06F0: 02 1C 1B 80 4E 00 08 30  0F 01 27 04 07 30 0F 01  ....N..0..'..0..
0700: 2B 2B 08 30 0F 01 1C 80  23 27 04 08 30 0F 01 09  ++.0....#'..0...
0710: 29 05 07 30 0F 01 2E 4A  07 30 0F 01 08 30 0F 01  )..0...J.0...0..
0720: 45 09 80 F0 FF FF 7F F0  FF FF 7F 63 6D 36 33 02  E..........cm63.
0730: 80 55 09 80 F0 FF FF 7F  F0 FF FF 7F 63 6D 36 33  .U..........cm63
0740: 1E 08 30 0F 01 2B 07 30  0F 01 1D 80 23 29 05 08  ..0..+.0....#)..
0750: 30 0F 01 17 4A 08 30 0F  01 07 30 0F 01 6F 76 08  0...J.0...0..ov.
0760: 30 0F 01 27 03 08 30 0F  01 13 2B 08 30 0F 01 1E  0..'..0...+.0...
0770: 80 23 2B 08 30 0F 01 1F  80 23 27 04 08 30 0F 01  .#+.0....#'..0..
0780: 16 27 03 07 30 0F 01 1B  1C 15 80 45 09 80 F0 FF  .'..0......E....
0790: FF 7F F0 FF FF 7F 63 6D  36 34 02 80 55 09 80 F0  ......cm64..U...
07A0: FF FF 7F F0 FF FF 7F 63  6D 36 34 29 04 07 30 0F  .......cm64)..0.
07B0: 01 2E 1C 0E 80 27 04 07  30 0F 01 28 2B 07 30 0F  .....'..0..(+.0.
07C0: 01 20 80 23 29 05 07 30  0F 01 29 27 03 08 30 0F  . .#)..0..)'..0.
07D0: 01 13 2B 08 30 0F 01 21  80 23 29 04 08 30 0F 01  ..+.0..!.#)..0..
07E0: 16 27 05 08 30 0F 01 0A  7B 07 30 0F 01 05 20 10  .'..0...{.0... .
07F0: 27 06 08 30 0F 01 11 27  03 07 30 0F 01 1C 1C 15  '..0...'..0.....
0800: 80 45 09 80 F0 FF FF 7F  F0 FF FF 7F 63 6D 36 35  .E..........cm65
0810: 02 80 55 09 80 F0 FF FF  7F F0 FF FF 7F 63 6D 36  ..U..........cm6
0820: 35 29 04 07 30 0F 01 2E  06 20 10 4A 08 30 0F 01  5)..0.... .J.0..
0830: 07 30 0F 01 6F 76 08 30  0F 01 27 04 07 30 0F 01  .0..ov.0..'..0..
0840: 2A 2B 07 30 0F 01 22 80  23 29 05 07 30 0F 01 2B  *+.0..".#)..0..+
0850: 4A 07 30 0F 01 03 30 0F  01 6F 76 07 30 0F 01 2B  J.0...0..ov.0..+
0860: 07 30 0F 01 23 80 23 1C  24 80 27 03 07 30 0F 01  .0..#.#.$.'..0..
0870: 1D 1C 15 80 27 03 89 30  0F 01 03 2B 08 30 0F 01  ....'..0...+.0..
0880: 25 80 23 4A 08 30 0F 01  03 30 0F 01 6F 76 08 30  %.#J.0...0..ov.0
0890: 0F 01 27 04 08 30 0F 01  14 2B 08 30 0F 01 26 80  ..'..0...+.0..&.
08A0: 23 29 04 08 30 0F 01 15  1C 0E 80 27 03 08 30 0F  #)..0......'..0.
08B0: 01 0B 1C 27 80 45 09 80  F0 FF FF 7F F0 FF FF 7F  ...'.E..........
08C0: 63 6D 36 36 02 80 55 09  80 F0 FF FF 7F F0 FF FF  cm66..U.........
08D0: 7F 63 6D 36 36 27 03 89  30 0F 01 03 27 03 03 30  .cm66'..0...'..0
08E0: 0F 01 13 2B 03 30 0F 01  49 80 23 29 04 03 30 0F  ...+.0..I.#)..0.
08F0: 01 14 4A 03 30 0F 01 F0  FF FF 7F 6F 76 03 30 0F  ..J.0......ov.0.
0900: 01 2B 03 30 0F 01 4A 80  23 4A F0 FF FF 7F 03 30  .+.0..J.#J.....0
0910: 0F 01 27 03 03 30 0F 01  11 2B 03 30 0F 01 4B 80  ..'..0...+.0..K.
0920: 23 2B 03 30 0F 01 4C 80  23 27 04 03 30 0F 01 16  #+.0..L.#'..0...
0930: 45 01 80 F0 FF FF 7F F0  FF FF 7F 66 64 6F 31 02  E..........fdo1.
0940: 80 55 01 80 F0 FF FF 7F  F0 FF FF 7F 66 64 6F 31  .U..........fdo1
0950: 5C 00 2C 80 5C 01 2C 80  46 00 4E 01 07 30 0F 01  \.,.\.,.F.N..0..
0960: 4E 01 08 30 0F 01 45 01  80 F0 FF FF 7F F0 FF FF  N..0..E.........
0970: 7F 66 64 69 31 02 80 21  00                       .fdi1..!.       
```

#### Opcodes

```
  0: 0x04FE [0x20] SET_CLI_EVENT_UC_FLAG: Lock player control
  1: 0x0500 [0x46] CAMERA_CONTROL: Disable user control
  2: 0x0502 [0x42] SET_CLI_EVENT_CANCEL_DATA()
  3: 0x0503 [0x45] LOAD_SCHEDULED_TASK: Load scheduler "fdo1" with entities [LocalPlayer, LocalPlayer], work=[200*, 0*]
  4: 0x0514 [0x55] WAIT_LOAD_SCHEDULER: Wait for scheduler "fdo1" with entities [LocalPlayer, LocalPlayer], work=200*
  5: 0x0523 [0x75] LOAD_ROOM(Load indoor room, room=431*)
  6: 0x0527 [0x75] LOAD_ROOM(No action)
  7: 0x0529 [0x38] SET_CLIENT_EVENT_MODE(mode=3*)
  8: 0x052C [0x37] UPDATE_EVENT_POSITION_AND_DIR: x=2.488*, z=-77.083*, y=8.999*, direction=75.7*
  9: 0x0535 [0x7B] LocalPlayer stops talking
 10: 0x053A [0x4A] Goggehn (ID: 17772547/0x010F3003) looks at LocalPlayer
 11: 0x0543 [0x6F] WAIT_FRAME_DELAY: Yield until WaitTime reaches zero
 12: 0x0544 [0x76] CHECK_ENTITY_RENDER_FLAGS: Wait until Goggehn (ID: 17772547/0x010F3003) Render.Flags0 and Render.Flags3 conditions are met
 13: 0x0549 [0x45] LOAD_SCHEDULED_TASK: Load scheduler "cm60" with entities [LocalPlayer, LocalPlayer], work=[143*, 0*]
 14: 0x055A [0x55] WAIT_LOAD_SCHEDULER: Wait for scheduler "cm60" with entities [LocalPlayer, LocalPlayer], work=143*
 15: 0x0569 [0x45] LOAD_SCHEDULED_TASK: Load scheduler "fdi1" with entities [LocalPlayer, LocalPlayer], work=[200*, 0*]
 16: 0x057A [0x55] WAIT_LOAD_SCHEDULER: Wait for scheduler "fdi1" with entities [LocalPlayer, LocalPlayer], work=200*
 17: 0x0589 [0x27] REQ_SET(priority=0x03, entity_id=Goggehn (ID: 17772547/0x010F3003), tag_num=0x11)
 18: 0x0590 [0x2B] Goggehn (ID: 17772547/0x010F3003) [10005*]:
     "Welcome to the Bastokan Embassy. Is there something we can help you with?"
 19: 0x0597 [0x23] WAIT_FOR_DIALOG_INTERACTION
 20: 0x0598 [0x29] REQ_SET_WAIT(priority=0x04, entity_id=Goggehn (ID: 17772547/0x010F3003), tag_num=0x16)
 21: 0x059F [0x2B] Goggehn (ID: 17772547/0x010F3003) [10008*]:
     "Oh, it's you, <Player>... The administration gave us word of your coming."
 22: 0x05A6 [0x23] WAIT_FOR_DIALOG_INTERACTION
 23: 0x05A7 [0x27] REQ_SET(priority=0x03, entity_id=Goggehn (ID: 17772547/0x010F3003), tag_num=0x13)
 24: 0x05AE [0x2B] Goggehn (ID: 17772547/0x010F3003) [10011*]:
     "Unfortunately, the ambassador isn't in right now."
 25: 0x05B5 [0x23] WAIT_FOR_DIALOG_INTERACTION
 26: 0x05B6 [0x2B] Goggehn (ID: 17772547/0x010F3003) [10014*]:
     "You know where Delkfutt's Tower is, right? The ambassador's out investigating the area, but I think he's coming back soon."
 27: 0x05BD [0x23] WAIT_FOR_DIALOG_INTERACTION
 28: 0x05BE [0x27] REQ_SET(priority=0x03, entity_id=Door:Bastokan Emb. (ID: 17772681/0x010F3089), tag_num=0x02)
 29: 0x05C5 [0x1C] WAIT(30* ticks)
 30: 0x05C8 [0x27] REQ_SET(priority=0x03, entity_id=Wolfgang (ID: 17772551/0x010F3007), tag_num=0x24)
 31: 0x05CF [0x2B] Wolfgang (ID: 17772551/0x010F3007) [10016*]:
     "Good day."
 32: 0x05D6 [0x23] WAIT_FOR_DIALOG_INTERACTION
 33: 0x05D7 [0x4A] LocalPlayer looks at Wolfgang (ID: 17772551/0x010F3007)
 34: 0x05E0 [0x5C] MUSIC_CONTROL: Set Idle (Day) music to song 163*
 35: 0x05E4 [0x5C] MUSIC_CONTROL: Set Idle (Night) music to song 163*
 36: 0x05E8 [0x45] LOAD_SCHEDULED_TASK: Load scheduler "cm61" with entities [LocalPlayer, LocalPlayer], work=[143*, 0*]
 37: 0x05F9 [0x29] REQ_SET_WAIT(priority=0x04, entity_id=Goggehn (ID: 17772547/0x010F3003), tag_num=0x14)
 38: 0x0600 [0x4A] Goggehn (ID: 17772547/0x010F3003) looks at Wolfgang (ID: 17772551/0x010F3007)
 39: 0x0609 [0x6F] WAIT_FRAME_DELAY: Yield until WaitTime reaches zero
 40: 0x060A [0x76] CHECK_ENTITY_RENDER_FLAGS: Wait until Goggehn (ID: 17772547/0x010F3003) Render.Flags0 and Render.Flags3 conditions are met
 41: 0x060F [0x55] WAIT_LOAD_SCHEDULER: Wait for scheduler "cm61" with entities [LocalPlayer, LocalPlayer], work=143*
 42: 0x061E [0x05] Work_Zone[32] = 1
 43: 0x0621 [0x27] REQ_SET(priority=0x01, entity_id=Monberaux (ID: 17772552/0x010F3008), tag_num=0x10)
 44: 0x0628 [0x27] REQ_SET(priority=0x03, entity_id=Wolfgang (ID: 17772551/0x010F3007), tag_num=0x19)
 45: 0x062F [0x1C] WAIT(120* ticks)
 46: 0x0632 [0x45] LOAD_SCHEDULED_TASK: Load scheduler "cm62" with entities [LocalPlayer, LocalPlayer], work=[143*, 0*]
 47: 0x0643 [0x1C] WAIT(30* ticks)
 48: 0x0646 [0x37] UPDATE_EVENT_POSITION_AND_DIR: x=1.955*, z=-77.298*, y=9.000*, direction=91.4*
 49: 0x064F [0x55] WAIT_LOAD_SCHEDULER: Wait for scheduler "cm62" with entities [LocalPlayer, LocalPlayer], work=143*
 50: 0x065E [0x1C] WAIT(60* ticks)
 51: 0x0661 [0x27] REQ_SET(priority=0x03, entity_id=Door:Bastokan Emb. (ID: 17772681/0x010F3089), tag_num=0x03)
 52: 0x0668 [0x29] REQ_SET_WAIT(priority=0x04, entity_id=Wolfgang (ID: 17772551/0x010F3007), tag_num=0x2E)
 53: 0x066F [0x06] Work_Zone[32] = 0
 54: 0x0672 [0x27] REQ_SET(priority=0x03, entity_id=Goggehn (ID: 17772547/0x010F3003), tag_num=0x11)
 55: 0x0679 [0x2B] Goggehn (ID: 17772547/0x010F3003) [10018*]:
     "Why, Lord Wolfgang! What brings you here?"
 56: 0x0680 [0x23] WAIT_FOR_DIALOG_INTERACTION
 57: 0x0681 [0x29] REQ_SET_WAIT(priority=0x04, entity_id=Goggehn (ID: 17772547/0x010F3003), tag_num=0x16)
 58: 0x0688 [0x29] REQ_SET_WAIT(priority=0x03, entity_id=Wolfgang (ID: 17772551/0x010F3007), tag_num=0x1A)
 59: 0x068F [0x2B] Wolfgang (ID: 17772551/0x010F3007) [10020*]:
     "I seek audience with your ambassador."
 60: 0x0696 [0x23] WAIT_FOR_DIALOG_INTERACTION
 61: 0x0697 [0x27] REQ_SET(priority=0x03, entity_id=Goggehn (ID: 17772547/0x010F3003), tag_num=0x11)
 62: 0x069E [0x2B] Goggehn (ID: 17772547/0x010F3003) [10022*]:
     "Oh, yeah? Well, he's out investigating Delkfutt's Tower."
 63: 0x06A5 [0x23] WAIT_FOR_DIALOG_INTERACTION
 64: 0x06A6 [0x27] REQ_SET(priority=0x04, entity_id=Goggehn (ID: 17772547/0x010F3003), tag_num=0x16)
 65: 0x06AD [0x1C] WAIT(30* ticks)
 66: 0x06B0 [0x27] REQ_SET(priority=0x04, entity_id=Wolfgang (ID: 17772551/0x010F3007), tag_num=0x2A)
 67: 0x06B7 [0x1C] WAIT(60* ticks)
 68: 0x06BA [0x45] LOAD_SCHEDULED_TASK: Load scheduler "cm6a" with entities [LocalPlayer, LocalPlayer], work=[143*, 0*]
 69: 0x06CB [0x55] WAIT_LOAD_SCHEDULER: Wait for scheduler "cm6a" with entities [LocalPlayer, LocalPlayer], work=143*
 70: 0x06DA [0x2B] Wolfgang (ID: 17772551/0x010F3007) [10024*]:
     "Delkfutt's Tower? What kind of investigation is it?"
 71: 0x06E1 [0x23] WAIT_FOR_DIALOG_INTERACTION
 72: 0x06E2 [0x2B] Wolfgang (ID: 17772551/0x010F3007) [10025*]:
     "I would ask your ambassador to avoid such dangerous places... Or is it by order of your nation?"
 73: 0x06E9 [0x23] WAIT_FOR_DIALOG_INTERACTION
 74: 0x06EA [0x27] REQ_SET(priority=0x03, entity_id=Door:Bastokan Emb. (ID: 17772681/0x010F3089), tag_num=0x02)
 75: 0x06F1 [0x1C] WAIT(20* ticks)
 76: 0x06F4 [0x4E] SET_ENTITY_HIDE_FLAG: Show Monberaux (ID: 17772552/0x010F3008)
 77: 0x06FA [0x27] REQ_SET(priority=0x04, entity_id=Wolfgang (ID: 17772551/0x010F3007), tag_num=0x2B)
 78: 0x0701 [0x2B] Monberaux (ID: 17772552/0x010F3008) [10026*]:
     "Excuse me... Is the ambassador in residence?"
 79: 0x0708 [0x23] WAIT_FOR_DIALOG_INTERACTION
 80: 0x0709 [0x27] REQ_SET(priority=0x04, entity_id=Monberaux (ID: 17772552/0x010F3008), tag_num=0x09)
 81: 0x0710 [0x29] REQ_SET_WAIT(priority=0x05, entity_id=Wolfgang (ID: 17772551/0x010F3007), tag_num=0x2E)
 82: 0x0717 [0x4A] Wolfgang (ID: 17772551/0x010F3007) looks at Monberaux (ID: 17772552/0x010F3008)
 83: 0x0720 [0x45] LOAD_SCHEDULED_TASK: Load scheduler "cm63" with entities [LocalPlayer, LocalPlayer], work=[143*, 0*]
 84: 0x0731 [0x55] WAIT_LOAD_SCHEDULER: Wait for scheduler "cm63" with entities [LocalPlayer, LocalPlayer], work=143*
 85: 0x0740 [0x1E] EventEntity looks at Monberaux (ID: 17772552/0x010F3008) and starts talking
 86: 0x0745 [0x2B] Wolfgang (ID: 17772551/0x010F3007) [10027*]:
     "Monberaux! What business have you here?"
 87: 0x074C [0x23] WAIT_FOR_DIALOG_INTERACTION
 88: 0x074D [0x29] REQ_SET_WAIT(priority=0x05, entity_id=Monberaux (ID: 17772552/0x010F3008), tag_num=0x17)
 89: 0x0754 [0x4A] Monberaux (ID: 17772552/0x010F3008) looks at Wolfgang (ID: 17772551/0x010F3007)
 90: 0x075D [0x6F] WAIT_FRAME_DELAY: Yield until WaitTime reaches zero
 91: 0x075E [0x76] CHECK_ENTITY_RENDER_FLAGS: Wait until Monberaux (ID: 17772552/0x010F3008) Render.Flags0 and Render.Flags3 conditions are met
 92: 0x0763 [0x27] REQ_SET(priority=0x03, entity_id=Monberaux (ID: 17772552/0x010F3008), tag_num=0x13)
 93: 0x076A [0x2B] Monberaux (ID: 17772552/0x010F3008) [10028*]:
     "Wolfgang. How have you been?"
 94: 0x0771 [0x23] WAIT_FOR_DIALOG_INTERACTION
 95: 0x0772 [0x2B] Monberaux (ID: 17772552/0x010F3008) [10029*]:
     "The ambassador has a rare affliction, and it's time for a checkup."
 96: 0x0779 [0x23] WAIT_FOR_DIALOG_INTERACTION
 97: 0x077A [0x27] REQ_SET(priority=0x04, entity_id=Monberaux (ID: 17772552/0x010F3008), tag_num=0x16)
 98: 0x0781 [0x27] REQ_SET(priority=0x03, entity_id=Wolfgang (ID: 17772551/0x010F3007), tag_num=0x1B)
 99: 0x0788 [0x1C] WAIT(60* ticks)
100: 0x078B [0x45] LOAD_SCHEDULED_TASK: Load scheduler "cm64" with entities [LocalPlayer, LocalPlayer], work=[143*, 0*]
101: 0x079C [0x55] WAIT_LOAD_SCHEDULER: Wait for scheduler "cm64" with entities [LocalPlayer, LocalPlayer], work=143*
102: 0x07AB [0x29] REQ_SET_WAIT(priority=0x04, entity_id=Wolfgang (ID: 17772551/0x010F3007), tag_num=0x2E)
103: 0x07B2 [0x1C] WAIT(30* ticks)
104: 0x07B5 [0x27] REQ_SET(priority=0x04, entity_id=Wolfgang (ID: 17772551/0x010F3007), tag_num=0x28)
105: 0x07BC [0x2B] Wolfgang (ID: 17772551/0x010F3007) [10030*]:
     "I say this to you as a friend... Keep a safe distance from foreign dignitaries."
106: 0x07C3 [0x23] WAIT_FOR_DIALOG_INTERACTION
107: 0x07C4 [0x29] REQ_SET_WAIT(priority=0x05, entity_id=Wolfgang (ID: 17772551/0x010F3007), tag_num=0x29)
108: 0x07CB [0x27] REQ_SET(priority=0x03, entity_id=Monberaux (ID: 17772552/0x010F3008), tag_num=0x13)
109: 0x07D2 [0x2B] Monberaux (ID: 17772552/0x010F3008) [10031*]:
     "I've told you before that diseases know no borders. Every patient needs a doctor; nationality and status matter not."
110: 0x07D9 [0x23] WAIT_FOR_DIALOG_INTERACTION
111: 0x07DA [0x29] REQ_SET_WAIT(priority=0x04, entity_id=Monberaux (ID: 17772552/0x010F3008), tag_num=0x16)
112: 0x07E1 [0x27] REQ_SET(priority=0x05, entity_id=Monberaux (ID: 17772552/0x010F3008), tag_num=0x0A)
113: 0x07E8 [0x7B] Wolfgang (ID: 17772551/0x010F3007) stops talking
114: 0x07ED [0x05] Work_Zone[32] = 1
115: 0x07F0 [0x27] REQ_SET(priority=0x06, entity_id=Monberaux (ID: 17772552/0x010F3008), tag_num=0x11)
116: 0x07F7 [0x27] REQ_SET(priority=0x03, entity_id=Wolfgang (ID: 17772551/0x010F3007), tag_num=0x1C)
117: 0x07FE [0x1C] WAIT(60* ticks)
118: 0x0801 [0x45] LOAD_SCHEDULED_TASK: Load scheduler "cm65" with entities [LocalPlayer, LocalPlayer], work=[143*, 0*]
119: 0x0812 [0x55] WAIT_LOAD_SCHEDULER: Wait for scheduler "cm65" with entities [LocalPlayer, LocalPlayer], work=143*
120: 0x0821 [0x29] REQ_SET_WAIT(priority=0x04, entity_id=Wolfgang (ID: 17772551/0x010F3007), tag_num=0x2E)
121: 0x0828 [0x06] Work_Zone[32] = 0
122: 0x082B [0x4A] Monberaux (ID: 17772552/0x010F3008) looks at Wolfgang (ID: 17772551/0x010F3007)
123: 0x0834 [0x6F] WAIT_FRAME_DELAY: Yield until WaitTime reaches zero
124: 0x0835 [0x76] CHECK_ENTITY_RENDER_FLAGS: Wait until Monberaux (ID: 17772552/0x010F3008) Render.Flags0 and Render.Flags3 conditions are met
125: 0x083A [0x27] REQ_SET(priority=0x04, entity_id=Wolfgang (ID: 17772551/0x010F3007), tag_num=0x2A)
126: 0x0841 [0x2B] Wolfgang (ID: 17772551/0x010F3007) [10032*]:
     "Hmph. You haven't changed a bit, have you? You should take special care, my friend, lest you come to regret it."
127: 0x0848 [0x23] WAIT_FOR_DIALOG_INTERACTION
128: 0x0849 [0x29] REQ_SET_WAIT(priority=0x05, entity_id=Wolfgang (ID: 17772551/0x010F3007), tag_num=0x2B)
129: 0x0850 [0x4A] Wolfgang (ID: 17772551/0x010F3007) looks at Goggehn (ID: 17772547/0x010F3003)
130: 0x0859 [0x6F] WAIT_FRAME_DELAY: Yield until WaitTime reaches zero
131: 0x085A [0x76] CHECK_ENTITY_RENDER_FLAGS: Wait until Wolfgang (ID: 17772551/0x010F3007) Render.Flags0 and Render.Flags3 conditions are met
132: 0x085F [0x2B] Wolfgang (ID: 17772551/0x010F3007) [10033*]:
     "Advise your ambassador against these careless adventures. I shall return later. Good day."
133: 0x0866 [0x23] WAIT_FOR_DIALOG_INTERACTION
134: 0x0867 [0x1C] WAIT(90* ticks)
135: 0x086A [0x27] REQ_SET(priority=0x03, entity_id=Wolfgang (ID: 17772551/0x010F3007), tag_num=0x1D)
136: 0x0871 [0x1C] WAIT(60* ticks)
137: 0x0874 [0x27] REQ_SET(priority=0x03, entity_id=Door:Bastokan Emb. (ID: 17772681/0x010F3089), tag_num=0x03)
138: 0x087B [0x2B] Monberaux (ID: 17772552/0x010F3008) [10034*]:
     "Hmm..."
139: 0x0882 [0x23] WAIT_FOR_DIALOG_INTERACTION
140: 0x0883 [0x4A] Monberaux (ID: 17772552/0x010F3008) looks at Goggehn (ID: 17772547/0x010F3003)
141: 0x088C [0x6F] WAIT_FRAME_DELAY: Yield until WaitTime reaches zero
142: 0x088D [0x76] CHECK_ENTITY_RENDER_FLAGS: Wait until Monberaux (ID: 17772552/0x010F3008) Render.Flags0 and Render.Flags3 conditions are met
143: 0x0892 [0x27] REQ_SET(priority=0x04, entity_id=Monberaux (ID: 17772552/0x010F3008), tag_num=0x14)
144: 0x0899 [0x2B] Monberaux (ID: 17772552/0x010F3008) [10035*]:
     "Well, I can't give checkups without a patient. Please convey how sorry I was to miss the ambassador, and that I'll call again later."
145: 0x08A0 [0x23] WAIT_FOR_DIALOG_INTERACTION
146: 0x08A1 [0x29] REQ_SET_WAIT(priority=0x04, entity_id=Monberaux (ID: 17772552/0x010F3008), tag_num=0x15)
147: 0x08A8 [0x1C] WAIT(30* ticks)
148: 0x08AB [0x27] REQ_SET(priority=0x03, entity_id=Monberaux (ID: 17772552/0x010F3008), tag_num=0x0B)
149: 0x08B2 [0x1C] WAIT(270* ticks)
150: 0x08B5 [0x45] LOAD_SCHEDULED_TASK: Load scheduler "cm66" with entities [LocalPlayer, LocalPlayer], work=[143*, 0*]
151: 0x08C6 [0x55] WAIT_LOAD_SCHEDULER: Wait for scheduler "cm66" with entities [LocalPlayer, LocalPlayer], work=143*
152: 0x08D5 [0x27] REQ_SET(priority=0x03, entity_id=Door:Bastokan Emb. (ID: 17772681/0x010F3089), tag_num=0x03)
153: 0x08DC [0x27] REQ_SET(priority=0x03, entity_id=Goggehn (ID: 17772547/0x010F3003), tag_num=0x13)
154: 0x08E3 [0x2B] Goggehn (ID: 17772547/0x010F3003) [10037*]:
     "Wolfgang's the captain of the guard for Archduke Kam'lanaut. Say, I wonder what he wanted with His Excellency..."
155: 0x08EA [0x23] WAIT_FOR_DIALOG_INTERACTION
156: 0x08EB [0x29] REQ_SET_WAIT(priority=0x04, entity_id=Goggehn (ID: 17772547/0x010F3003), tag_num=0x14)
157: 0x08F2 [0x4A] Goggehn (ID: 17772547/0x010F3003) looks at LocalPlayer
158: 0x08FB [0x6F] WAIT_FRAME_DELAY: Yield until WaitTime reaches zero
159: 0x08FC [0x76] CHECK_ENTITY_RENDER_FLAGS: Wait until Goggehn (ID: 17772547/0x010F3003) Render.Flags0 and Render.Flags3 conditions are met
160: 0x0901 [0x2B] Goggehn (ID: 17772547/0x010F3003) [10040*]:
     "Hey, I know! You can go to Delkfutt's Tower and tell us how he's doing. Not too shabby for your first assignment, huh?"
161: 0x0908 [0x23] WAIT_FOR_DIALOG_INTERACTION
162: 0x0909 [0x4A] LocalPlayer looks at Goggehn (ID: 17772547/0x010F3003)
163: 0x0912 [0x27] REQ_SET(priority=0x03, entity_id=Goggehn (ID: 17772547/0x010F3003), tag_num=0x11)
164: 0x0919 [0x2B] Goggehn (ID: 17772547/0x010F3003) [10043*]:
     "I hear that place is crawling with fiends! Be sure to gear up in town. And don't even think of going solo, either."
165: 0x0920 [0x23] WAIT_FOR_DIALOG_INTERACTION
166: 0x0921 [0x2B] Goggehn (ID: 17772547/0x010F3003) [10046*]:
     "I know you've served your country well, so I'm confident you'll do fine. Go get 'em, soldier!"
167: 0x0928 [0x23] WAIT_FOR_DIALOG_INTERACTION
168: 0x0929 [0x27] REQ_SET(priority=0x04, entity_id=Goggehn (ID: 17772547/0x010F3003), tag_num=0x16)
169: 0x0930 [0x45] LOAD_SCHEDULED_TASK: Load scheduler "fdo1" with entities [LocalPlayer, LocalPlayer], work=[200*, 0*]
170: 0x0941 [0x55] WAIT_LOAD_SCHEDULER: Wait for scheduler "fdo1" with entities [LocalPlayer, LocalPlayer], work=200*
171: 0x0950 [0x5C] MUSIC_CONTROL: Set Idle (Day) music to song 117*
172: 0x0954 [0x5C] MUSIC_CONTROL: Set Idle (Night) music to song 117*
173: 0x0958 [0x46] CAMERA_CONTROL: Restore default settings
174: 0x095A [0x4E] SET_ENTITY_HIDE_FLAG: Hide Wolfgang (ID: 17772551/0x010F3007)
175: 0x0960 [0x4E] SET_ENTITY_HIDE_FLAG: Hide Monberaux (ID: 17772552/0x010F3008)
176: 0x0966 [0x45] LOAD_SCHEDULED_TASK: Load scheduler "fdi1" with entities [LocalPlayer, LocalPlayer], work=[200*, 0*]
177: 0x0977 [0x21] END_EVENT
178: 0x0978 [0x00] END_REQSTACK()
```

### Event 65535.7

#### Metadata

| Field        | Value    |
|--------------|----------|
| Entrypoint   | 0x0979   |
| Data Size    | 10 bytes |
| Instructions | 2        |

```
      00 01 02 03 04 05 06 07  08 09 0A 0B 0C 0D 0E 0F
      -- -- -- -- -- -- -- --  -- -- -- -- -- -- -- --
0970:                             37 4D 80 4E 80 07 80           7M.N...
0980: 4F 80 00                                          O..             
```

#### Opcodes

```
  0: 0x0979 [0x37] UPDATE_EVENT_POSITION_AND_DIR: x=17.933*, z=-75.163*, y=8.999*, direction=357.5*
  1: 0x0982 [0x00] END_REQSTACK()
```

### Event 65535.8

#### Metadata

| Field        | Value    |
|--------------|----------|
| Entrypoint   | 0x0983   |
| Data Size    | 27 bytes |
| Instructions | 9        |

```
      00 01 02 03 04 05 06 07  08 09 0A 0B 0C 0D 0E 0F
      -- -- -- -- -- -- -- --  -- -- -- -- -- -- -- --
0980:          1F 00 50 80 51  80 07 80 1F 01 1F 00 52     ..P.Q.......R
0990: 80 53 80 07 80 1F 01 6F  39 54 80 6F 70 00        .S.....o9T.op.  
```

#### Opcodes

```
  0: 0x0983 [0x1F] MOVE_ENTITY: EventEntity moves to X=21.551*, Z=-74.981*, Y=8.999*
  1: 0x098B [0x1F] MOVE_ENTITY: Update entity position (mode=1)
  2: 0x098D [0x1F] MOVE_ENTITY: EventEntity moves to X=23.864*, Z=-76.019*, Y=8.999*
  3: 0x0995 [0x1F] MOVE_ENTITY: Update entity position (mode=1)
  4: 0x0997 [0x6F] WAIT_FRAME_DELAY: Yield until WaitTime reaches zero
  5: 0x0998 [0x39] SET_ENTITY_DIRECTION(direction=22.2*)
  6: 0x099B [0x6F] WAIT_FRAME_DELAY: Yield until WaitTime reaches zero
  7: 0x099C [0x70] WAIT_ENTITY_RENDER_FLAG: Wait while EventEntity->Render.Flags3 bit 2 is set (cancel turn if not)
  8: 0x099D [0x00] END_REQSTACK()
```

### Event 65535.9

#### Metadata

| Field        | Value    |
|--------------|----------|
| Entrypoint   | 0x099E   |
| Data Size    | 45 bytes |
| Instructions | 5        |

```
      00 01 02 03 04 05 06 07  08 09 0A 0B 0C 0D 0E 0F
      -- -- -- -- -- -- -- --  -- -- -- -- -- -- -- --
0990:                                            1C 0E                ..
09A0: 80 4A F0 FF FF 7F 03 30  0F 01 45 09 80 F0 FF FF  .J.....0..E.....
09B0: 7F F0 FF FF 7F 63 6D 38  33 02 80 55 09 80 F0 FF  .....cm83..U....
09C0: FF 7F F0 FF FF 7F 63 6D  38 33 00                 ......cm83.     
```

#### Opcodes

```
  0: 0x099E [0x1C] WAIT(30* ticks)
  1: 0x09A1 [0x4A] LocalPlayer looks at Goggehn (ID: 17772547/0x010F3003)
  2: 0x09AA [0x45] LOAD_SCHEDULED_TASK: Load scheduler "cm83" with entities [LocalPlayer, LocalPlayer], work=[143*, 0*]
  3: 0x09BB [0x55] WAIT_LOAD_SCHEDULER: Wait for scheduler "cm83" with entities [LocalPlayer, LocalPlayer], work=143*
  4: 0x09CA [0x00] END_REQSTACK()
```

### Event 65535.10

#### Metadata

| Field        | Value    |
|--------------|----------|
| Entrypoint   | 0x09CB   |
| Data Size    | 24 bytes |
| Instructions | 6        |

```
      00 01 02 03 04 05 06 07  08 09 0A 0B 0C 0D 0E 0F
