# 17162924

## Common Data

| Field            | Value                        |
|------------------|------------------------------|
| Zone             | Windurst Waters [S] (ID: 94) |
| Block Size       | 816 bytes                    |
| Total Events     | 34                           |
| References Count | 28                           |

## List of Events

| Event ID                   | Entrypoint   |   Size |   Instructions |
|----------------------------|--------------|--------|----------------|
| [65535](#event-65535)      | 0x0000       |      1 |              1 |
| [65535.1](#event-655351)   | 0x0001       |      1 |              1 |
| [65535.2](#event-655352)   | 0x0002       |     18 |              4 |
| [65535.3](#event-655353)   | 0x0014       |     10 |              2 |
| [65535.4](#event-655354)   | 0x001E       |      9 |              3 |
| [65535.5](#event-655355)   | 0x0027       |      9 |              3 |
| [65535.6](#event-655356)   | 0x0030       |     10 |              2 |
| [65535.7](#event-655357)   | 0x003A       |     10 |              2 |
| [25](#event-25)            | 0x0044       |      1 |              1 |
| [33](#event-33)            | 0x0045       |      1 |              1 |
| [41](#event-41)            | 0x0046       |      1 |              1 |
| [43](#event-43)            | 0x0047       |      1 |              1 |
| [65535.8](#event-655358)   | 0x0048       |      4 |              2 |
| [65535.9](#event-655359)   | 0x004C       |     38 |              4 |
| [65535.10](#event-6553510) | 0x0072       |     41 |              7 |
| [65535.11](#event-6553511) | 0x009B       |     25 |              4 |
| [65535.12](#event-6553512) | 0x00B4       |     28 |              6 |
| [65535.13](#event-6553513) | 0x00D0       |     22 |              4 |
| [65535.14](#event-6553514) | 0x00E6       |     22 |              4 |
| [65535.15](#event-6553515) | 0x00FC       |     40 |              8 |
| [65535.16](#event-6553516) | 0x0124       |     16 |              4 |
| [65535.17](#event-6553517) | 0x0134       |     18 |              2 |
| [65535.18](#event-6553518) | 0x0146       |    102 |             20 |
| [65535.19](#event-6553519) | 0x01AC       |     11 |              5 |
| [65535.20](#event-6553520) | 0x01B7       |     11 |              5 |
| [65535.21](#event-6553521) | 0x01C2       |     11 |              5 |
| [65535.22](#event-6553522) | 0x01CD       |     11 |              5 |
| [65535.23](#event-6553523) | 0x01D8       |     11 |              5 |
| [65535.24](#event-6553524) | 0x01E3       |     11 |              5 |
| [65535.25](#event-6553525) | 0x01EE       |     11 |              5 |
| [65535.26](#event-6553526) | 0x01F9       |     11 |              5 |
| [65535.27](#event-6553527) | 0x0204       |     11 |              5 |
| [65535.28](#event-6553528) | 0x020F       |     11 |              5 |
| [65535.29](#event-6553529) | 0x021A       |     11 |              5 |

## DAT References (imed_data)

|   Index | Hex Value   |   Dec Value |
|---------|-------------|-------------|
|       0 | 0x0000      |           0 |
|       1 | 0x0001      |           1 |
|       2 | 0x0080      |         128 |
|       3 | 0x007F      |         127 |
|       4 | 0x0002      |           2 |
|       5 | 0x000A      |          10 |
|       6 | 0x000F      |          15 |
|       7 | 0x00E6      |         230 |
|       8 | 0x00DC      |         220 |
|       9 | 0x0028      |          40 |
|      10 | 0x0026      |          38 |
|      11 | 0x001C      |          28 |
|      12 | 0x001E      |          30 |
|      13 | 0x0050      |          80 |
|      14 | 0x366E      |       13934 |
|      15 | 0x0154      |         340 |
|      16 | 0x366F      |       13935 |
|      17 | 0x3670      |       13936 |
|      18 | 0x0078      |         120 |
|      19 | 0x3671      |       13937 |
|      20 | 0x3672      |       13938 |
|      21 | 0x008C      |         140 |
|      22 | 0x3673      |       13939 |
|      23 | 0x3674      |       13940 |
|      24 | 0x3675      |       13941 |
|      25 | 0x3676      |       13942 |
|      26 | 0x3677      |       13943 |
|      27 | 0x3678      |       13944 |

## String References

- **13934**: The Federation of Windurst... An ancient capital nurtured by the boughs of a great tree, blessed by magical waters, and protected by the moon and stars...
- **13935**: In a time forgotten, a people forced to wander by starvation and cold were led to this land by a wondrous star...
- **13936**: Lost souls, adrift in time, found themselves within these walls, and many a tear was shed...
- **13937**: Those tears nourished the soil, and today, a sapling of hope peeks through the earth to meet a bright new sun...
- **13938**: Shrink not from your future, my friend...
- **13939**: For even the longest, darkest night must eventually give way to the dawn.
- **13940**: And though your body may return to the earth, your memory shall live on. In the wind, the trees, and the hearts of those whose lives you shared...
- **13941**: Your destiny is yours alone to forge. For this is neither the beginning nor the end, but merely one stop on a journey of limitless possibilities...
- **13942**: The sapling shall grow into a great tree. Its leaves will take to the wind, carrying hopes and dreams with them, and a new chapter of history will be written.
- **13943**: ...But that is a story for another time.
- **13944**: Another day, when the stars in the heavens align to bring our paths together once more...

## Events

### Event 65535

#### Metadata

| Field        | Value   |
|--------------|---------|
| Entrypoint   | 0x0000  |
| Data Size    | 1 bytes |
| Instructions | 1       |

```
      00 01 02 03 04 05 06 07  08 09 0A 0B 0C 0D 0E 0F
      -- -- -- -- -- -- -- --  -- -- -- -- -- -- -- --
0000: 00                                                .               
```

#### Opcodes

```
  0: 0x0000 [0x00] END_REQSTACK()
```

### Event 65535.1

#### Metadata

| Field        | Value   |
|--------------|---------|
| Entrypoint   | 0x0001  |
| Data Size    | 1 bytes |
| Instructions | 1       |

```
      00 01 02 03 04 05 06 07  08 09 0A 0B 0C 0D 0E 0F
      -- -- -- -- -- -- -- --  -- -- -- -- -- -- -- --
0000:    00                                              .              
```

#### Opcodes

```
  0: 0x0001 [0x00] END_REQSTACK()
```

### Event 65535.2

#### Metadata

| Field        | Value    |
|--------------|----------|
| Entrypoint   | 0x0002   |
| Data Size    | 18 bytes |
| Instructions | 4        |

```
      00 01 02 03 04 05 06 07  08 09 0A 0B 0C 0D 0E 0F
      -- -- -- -- -- -- -- --  -- -- -- -- -- -- -- --
0000:       22 00 2F 00 F8 FF  FF 7F 6C F8 FF FF 7F 00    "./.....l.....
0010: 80 01 80 00                                       ....            
```

#### Opcodes

```
  0: 0x0002 [0x22] ENTITY_HIDE_FLAG(enabled=0x00)
  1: 0x0004 [0x2F] EventEntity->Render.Flags0 &= ~0x80000 // Bit 19
  2: 0x000A [0x6C] FADE_ENTITY_COLOR(entity_id=EventEntity, end_alpha=0*, fade_time=1*)
  3: 0x0013 [0x00] END_REQSTACK()
```

### Event 65535.3

#### Metadata

| Field        | Value    |
|--------------|----------|
| Entrypoint   | 0x0014   |
| Data Size    | 10 bytes |
| Instructions | 2        |

```
      00 01 02 03 04 05 06 07  08 09 0A 0B 0C 0D 0E 0F
      -- -- -- -- -- -- -- --  -- -- -- -- -- -- -- --
0010:             6C F8 FF FF  7F 02 80 01 80 00            l.........  
```

#### Opcodes

```
  0: 0x0014 [0x6C] FADE_ENTITY_COLOR(entity_id=EventEntity, end_alpha=128*, fade_time=1*)
  1: 0x001D [0x00] END_REQSTACK()
```

### Event 65535.4

#### Metadata

| Field        | Value   |
|--------------|---------|
| Entrypoint   | 0x001E  |
| Data Size    | 9 bytes |
| Instructions | 3       |

```
      00 01 02 03 04 05 06 07  08 09 0A 0B 0C 0D 0E 0F
      -- -- -- -- -- -- -- --  -- -- -- -- -- -- -- --
0010:                                            22 00                ".
0020: 2F 00 F8 FF FF 7F 00                              /......         
```

#### Opcodes

```
  0: 0x001E [0x22] ENTITY_HIDE_FLAG(enabled=0x00)
  1: 0x0020 [0x2F] EventEntity->Render.Flags0 &= ~0x80000 // Bit 19
  2: 0x0026 [0x00] END_REQSTACK()
```

### Event 65535.5

#### Metadata

| Field        | Value   |
|--------------|---------|
| Entrypoint   | 0x0027  |
| Data Size    | 9 bytes |
| Instructions | 3       |

```
      00 01 02 03 04 05 06 07  08 09 0A 0B 0C 0D 0E 0F
      -- -- -- -- -- -- -- --  -- -- -- -- -- -- -- --
0020:                      22  01 2F 01 F8 FF FF 7F 00         "./......
```

#### Opcodes

```
  0: 0x0027 [0x22] ENTITY_HIDE_FLAG(enabled=0x01)
  1: 0x0029 [0x2F] EventEntity->Render.Flags0 |= 0x80000 // Bit 19
  2: 0x002F [0x00] END_REQSTACK()
```

### Event 65535.6

#### Metadata

| Field        | Value    |
|--------------|----------|
| Entrypoint   | 0x0030   |
| Data Size    | 10 bytes |
| Instructions | 2        |

```
      00 01 02 03 04 05 06 07  08 09 0A 0B 0C 0D 0E 0F
      -- -- -- -- -- -- -- --  -- -- -- -- -- -- -- --
0030: 6C F8 FF FF 7F 00 80 01  80 00                    l.........      
```

#### Opcodes

```
  0: 0x0030 [0x6C] FADE_ENTITY_COLOR(entity_id=EventEntity, end_alpha=0*, fade_time=1*)
  1: 0x0039 [0x00] END_REQSTACK()
```

### Event 65535.7

#### Metadata

| Field        | Value    |
|--------------|----------|
| Entrypoint   | 0x003A   |
| Data Size    | 10 bytes |
| Instructions | 2        |

```
      00 01 02 03 04 05 06 07  08 09 0A 0B 0C 0D 0E 0F
      -- -- -- -- -- -- -- --  -- -- -- -- -- -- -- --
0030:                                6C F8 FF FF 7F 02            l.....
0040: 80 01 80 00                                       ....            
```

#### Opcodes

```
  0: 0x003A [0x6C] FADE_ENTITY_COLOR(entity_id=EventEntity, end_alpha=128*, fade_time=1*)
  1: 0x0043 [0x00] END_REQSTACK()
```

### Event 25

#### Metadata

| Field        | Value   |
|--------------|---------|
| Entrypoint   | 0x0044  |
| Data Size    | 1 bytes |
| Instructions | 1       |

```
      00 01 02 03 04 05 06 07  08 09 0A 0B 0C 0D 0E 0F
      -- -- -- -- -- -- -- --  -- -- -- -- -- -- -- --
0040:             00                                        .           
```

#### Opcodes

```
  0: 0x0044 [0x00] END_REQSTACK()
```

### Event 33

#### Metadata

| Field        | Value   |
|--------------|---------|
| Entrypoint   | 0x0045  |
| Data Size    | 1 bytes |
| Instructions | 1       |

```
      00 01 02 03 04 05 06 07  08 09 0A 0B 0C 0D 0E 0F
      -- -- -- -- -- -- -- --  -- -- -- -- -- -- -- --
0040:                00                                      .          
```

#### Opcodes

```
  0: 0x0045 [0x00] END_REQSTACK()
```

### Event 41

#### Metadata

| Field        | Value   |
|--------------|---------|
| Entrypoint   | 0x0046  |
| Data Size    | 1 bytes |
| Instructions | 1       |

```
      00 01 02 03 04 05 06 07  08 09 0A 0B 0C 0D 0E 0F
      -- -- -- -- -- -- -- --  -- -- -- -- -- -- -- --
0040:                   00                                    .         
```

#### Opcodes

```
  0: 0x0046 [0x00] END_REQSTACK()
```

### Event 43

#### Metadata

| Field        | Value   |
|--------------|---------|
| Entrypoint   | 0x0047  |
| Data Size    | 1 bytes |
| Instructions | 1       |

```
      00 01 02 03 04 05 06 07  08 09 0A 0B 0C 0D 0E 0F
      -- -- -- -- -- -- -- --  -- -- -- -- -- -- -- --
0040:                      00                                  .        
```

#### Opcodes

```
  0: 0x0047 [0x00] END_REQSTACK()
```

### Event 65535.8

#### Metadata

| Field        | Value   |
|--------------|---------|
| Entrypoint   | 0x0048  |
| Data Size    | 4 bytes |
| Instructions | 2       |

```
      00 01 02 03 04 05 06 07  08 09 0A 0B 0C 0D 0E 0F
      -- -- -- -- -- -- -- --  -- -- -- -- -- -- -- --
0040:                          1C 02 10 00                      ....    
```

#### Opcodes

```
  0: 0x0048 [0x1C] WAIT(Work_Zone[2] ticks)
  1: 0x004B [0x00] END_REQSTACK()
```

### Event 65535.9

#### Metadata

| Field        | Value    |
|--------------|----------|
| Entrypoint   | 0x004C   |
| Data Size    | 38 bytes |
| Instructions | 4        |

```
      00 01 02 03 04 05 06 07  08 09 0A 0B 0C 0D 0E 0F
      -- -- -- -- -- -- -- --  -- -- -- -- -- -- -- --
0040:                                      9F 03 80 F8              ....
0050: FF FF 7F F8 FF FF 7F 73  74 72 30 00 80 1C 02 10  .......str0.....
0060: 9F 03 80 F8 FF FF 7F F8  FF FF 7F 6B 69 6C 6C 00  ...........kill.
0070: 80 00                                             ..              
```

#### Opcodes

```
  0: 0x004C [0x9F] LOAD_SCHEDULED_TASK_ALT: Load scheduler "str0" with entities [EventEntity, EventEntity], work=[127*, 0*]
  1: 0x005D [0x1C] WAIT(Work_Zone[2] ticks)
  2: 0x0060 [0x9F] LOAD_SCHEDULED_TASK_ALT: Load scheduler "kill" with entities [EventEntity, EventEntity], work=[127*, 0*]
  3: 0x0071 [0x00] END_REQSTACK()
```

### Event 65535.10

#### Metadata

| Field        | Value    |
|--------------|----------|
| Entrypoint   | 0x0072   |
| Data Size    | 41 bytes |
| Instructions | 7        |

```
      00 01 02 03 04 05 06 07  08 09 0A 0B 0C 0D 0E 0F
      -- -- -- -- -- -- -- --  -- -- -- -- -- -- -- --
0070:       7B 08 E2 05 01 7B  F0 FF FF 7F 6B 69 64 6C    {....{....kidl
0080: 30 08 E2 05 01 6B 69 64  6C 30 F0 FF FF 7F 4E 01  0....kidl0....N.
0090: 08 E2 05 01 4E 01 F0 FF  FF 7F 00                 ....N......     
```

#### Opcodes

```
  0: 0x0072 [0x7B] Romaa Mihgo (ID: 17162760/0x0105E208) stops talking
  1: 0x0077 [0x7B] LocalPlayer stops talking
  2: 0x007C [0x6B] STOP_AND_IDLE: Romaa Mihgo (ID: 17162760/0x0105E208) stops current action and resets to idle (animation="idl0")
  3: 0x0085 [0x6B] STOP_AND_IDLE: LocalPlayer stops current action and resets to idle (animation="idl0")
  4: 0x008E [0x4E] SET_ENTITY_HIDE_FLAG: Hide Romaa Mihgo (ID: 17162760/0x0105E208)
  5: 0x0094 [0x4E] SET_ENTITY_HIDE_FLAG: Hide LocalPlayer
  6: 0x009A [0x00] END_REQSTACK()
```

### Event 65535.11

#### Metadata

| Field        | Value    |
|--------------|----------|
| Entrypoint   | 0x009B   |
| Data Size    | 25 bytes |
| Instructions | 4        |

```
      00 01 02 03 04 05 06 07  08 09 0A 0B 0C 0D 0E 0F
      -- -- -- -- -- -- -- --  -- -- -- -- -- -- -- --
0090:                                   92 00 F0 FF FF             .....
00A0: 7F 6C 08 E2 05 01 02 80  01 80 6C F0 FF FF 7F 02  .l........l.....
00B0: 80 01 80 00                                       ....            
```

#### Opcodes

```
  0: 0x009B [0x92] LocalPlayer->Render.Flags3 = Flags3  // No change (flag=0)
  1: 0x00A1 [0x6C] FADE_ENTITY_COLOR(entity_id=Romaa Mihgo (ID: 17162760/0x0105E208), end_alpha=128*, fade_time=1*)
  2: 0x00AA [0x6C] FADE_ENTITY_COLOR(entity_id=LocalPlayer, end_alpha=128*, fade_time=1*)
  3: 0x00B3 [0x00] END_REQSTACK()
```

### Event 65535.12

#### Metadata

| Field        | Value    |
|--------------|----------|
| Entrypoint   | 0x00B4   |
| Data Size    | 28 bytes |
| Instructions | 6        |

```
      00 01 02 03 04 05 06 07  08 09 0A 0B 0C 0D 0E 0F
      -- -- -- -- -- -- -- --  -- -- -- -- -- -- -- --
00B0:             7A 00 07 E2  05 01 7A 00 08 E2 05 01      z.....z.....
00C0: 1C 04 80 4E 01 07 E2 05  01 4E 01 08 E2 05 01 00  ...N.....N......
```

#### Opcodes

```
  0: 0x00B4 [0x7A] VM_CONTROL: Reset VM for Perih Vashai (ID: 17162759/0x0105E207)
  1: 0x00BA [0x7A] VM_CONTROL: Reset VM for Romaa Mihgo (ID: 17162760/0x0105E208)
  2: 0x00C0 [0x1C] WAIT(2* ticks)
  3: 0x00C3 [0x4E] SET_ENTITY_HIDE_FLAG: Hide Perih Vashai (ID: 17162759/0x0105E207)
  4: 0x00C9 [0x4E] SET_ENTITY_HIDE_FLAG: Hide Romaa Mihgo (ID: 17162760/0x0105E208)
  5: 0x00CF [0x00] END_REQSTACK()
```

### Event 65535.13

#### Metadata

| Field        | Value    |
|--------------|----------|
| Entrypoint   | 0x00D0   |
| Data Size    | 22 bytes |
| Instructions | 4        |

```
      00 01 02 03 04 05 06 07  08 09 0A 0B 0C 0D 0E 0F
      -- -- -- -- -- -- -- --  -- -- -- -- -- -- -- --
00D0: 27 10 2C E2 05 01 17 27  10 2D E2 05 01 1B 27 10  '.,....'.-....'.
00E0: 2E E2 05 01 1B 00                                 ......          
```

#### Opcodes

```
  0: 0x00D0 [0x27] REQ_SET(priority=0x10, entity_id=Zolku-Azolku (ID: 17162796/0x0105E22C), tag_num=0x17)
  1: 0x00D7 [0x27] REQ_SET(priority=0x10, entity_id=Kayeel-Payeel (ID: 17162797/0x0105E22D), tag_num=0x1B)
  2: 0x00DE [0x27] REQ_SET(priority=0x10, entity_id=Lutete (ID: 17162798/0x0105E22E), tag_num=0x1B)
  3: 0x00E5 [0x00] END_REQSTACK()
```

### Event 65535.14

#### Metadata

| Field        | Value    |
|--------------|----------|
| Entrypoint   | 0x00E6   |
| Data Size    | 22 bytes |
| Instructions | 4        |

```
      00 01 02 03 04 05 06 07  08 09 0A 0B 0C 0D 0E 0F
      -- -- -- -- -- -- -- --  -- -- -- -- -- -- -- --
00E0:                   27 10  2C E2 05 01 1A 27 10 2D        '.,....'.-
00F0: E2 05 01 1E 27 10 2E E2  05 01 1E 00              ....'.......    
```

#### Opcodes

```
  0: 0x00E6 [0x27] REQ_SET(priority=0x10, entity_id=Zolku-Azolku (ID: 17162796/0x0105E22C), tag_num=0x1A)
  1: 0x00ED [0x27] REQ_SET(priority=0x10, entity_id=Kayeel-Payeel (ID: 17162797/0x0105E22D), tag_num=0x1E)
  2: 0x00F4 [0x27] REQ_SET(priority=0x10, entity_id=Lutete (ID: 17162798/0x0105E22E), tag_num=0x1E)
  3: 0x00FB [0x00] END_REQSTACK()
```

### Event 65535.15

#### Metadata

| Field        | Value    |
|--------------|----------|
| Entrypoint   | 0x00FC   |
| Data Size    | 40 bytes |
| Instructions | 8        |

```
      00 01 02 03 04 05 06 07  08 09 0A 0B 0C 0D 0E 0F
      -- -- -- -- -- -- -- --  -- -- -- -- -- -- -- --
00F0:                                      7A 00 2E E2              z...
0100: 05 01 7A 00 2C E2 05 01  7A 00 2D E2 05 01 1C 01  ..z.,...z.-.....
0110: 80 4E 01 2C E2 05 01 4E  01 2D E2 05 01 4E 01 2E  .N.,...N.-...N..
0120: E2 05 01 00                                       ....            
```

#### Opcodes

```
  0: 0x00FC [0x7A] VM_CONTROL: Reset VM for Lutete (ID: 17162798/0x0105E22E)
  1: 0x0102 [0x7A] VM_CONTROL: Reset VM for Zolku-Azolku (ID: 17162796/0x0105E22C)
  2: 0x0108 [0x7A] VM_CONTROL: Reset VM for Kayeel-Payeel (ID: 17162797/0x0105E22D)
  3: 0x010E [0x1C] WAIT(1* ticks)
  4: 0x0111 [0x4E] SET_ENTITY_HIDE_FLAG: Hide Zolku-Azolku (ID: 17162796/0x0105E22C)
  5: 0x0117 [0x4E] SET_ENTITY_HIDE_FLAG: Hide Kayeel-Payeel (ID: 17162797/0x0105E22D)
  6: 0x011D [0x4E] SET_ENTITY_HIDE_FLAG: Hide Lutete (ID: 17162798/0x0105E22E)
  7: 0x0123 [0x00] END_REQSTACK()
```

### Event 65535.16

#### Metadata

| Field        | Value    |
|--------------|----------|
| Entrypoint   | 0x0124   |
| Data Size    | 16 bytes |
| Instructions | 4        |

```
      00 01 02 03 04 05 06 07  08 09 0A 0B 0C 0D 0E 0F
      -- -- -- -- -- -- -- --  -- -- -- -- -- -- -- --
0120:             7A 00 4E E2  05 01 1C 01 80 4E 01 4E      z.N......N.N
0130: E2 05 01 00                                       ....            
```

#### Opcodes

```
  0: 0x0124 [0x7A] VM_CONTROL: Reset VM for Shikaree G (ID: 17162830/0x0105E24E)
  1: 0x012A [0x1C] WAIT(1* ticks)
  2: 0x012D [0x4E] SET_ENTITY_HIDE_FLAG: Hide Shikaree G (ID: 17162830/0x0105E24E)
  3: 0x0133 [0x00] END_REQSTACK()
```

### Event 65535.17

#### Metadata

| Field        | Value    |
|--------------|----------|
| Entrypoint   | 0x0134   |
| Data Size    | 18 bytes |
| Instructions | 2        |

```
      00 01 02 03 04 05 06 07  08 09 0A 0B 0C 0D 0E 0F
      -- -- -- -- -- -- -- --  -- -- -- -- -- -- -- --
0130:             9F 03 80 F8  FF FF 7F F8 FF FF 7F 6B      ...........k
0140: 69 6C 6C 00 80 00                                 ill...          
```

#### Opcodes

```
  0: 0x0134 [0x9F] LOAD_SCHEDULED_TASK_ALT: Load scheduler "kill" with entities [EventEntity, EventEntity], work=[127*, 0*]
  1: 0x0145 [0x00] END_REQSTACK()
```

### Event 65535.18

#### Metadata

| Field        | Value     |
|--------------|-----------|
| Entrypoint   | 0x0146    |
| Data Size    | 102 bytes |
| Instructions | 20        |

```
      00 01 02 03 04 05 06 07  08 09 0A 0B 0C 0D 0E 0F
      -- -- -- -- -- -- -- --  -- -- -- -- -- -- -- --
0140:                   1C 05  80 6B 69 64 6C 30 10 E2        ...kidl0..
0150: 05 01 1C 06 80 6B 69 64  6C 30 0E E2 05 01 1C 07  .....kidl0......
0160: 80 27 10 14 E2 05 01 1D  1C 08 80 27 10 2E E2 05  .'.........'....
0170: 01 13 1C 09 80 27 10 10  E2 05 01 0E 1C 0A 80 27  .....'.........'
0180: 10 2F E2 05 01 0F 1C 0B  80 27 10 0E E2 05 01 0E  ./.......'......
0190: 1C 0C 80 27 10 2C E2 05  01 10 27 10 30 E2 05 01  ...'.,....'.0...
01A0: 0F 1C 09 80 27 10 2D E2  05 01 12 00              ....'.-.....    
```

#### Opcodes

```
  0: 0x0146 [0x1C] WAIT(10* ticks)
  1: 0x0149 [0x6B] STOP_AND_IDLE: Lhu Mhakaracca (ID: 17162768/0x0105E210) stops current action and resets to idle (animation="idl0")
  2: 0x0152 [0x1C] WAIT(15* ticks)
  3: 0x0155 [0x6B] STOP_AND_IDLE: Mikhe Aryohcha (ID: 17162766/0x0105E20E) stops current action and resets to idle (animation="idl0")
  4: 0x015E [0x1C] WAIT(230* ticks)
  5: 0x0161 [0x27] REQ_SET(priority=0x10, entity_id=Nhiko Rhaabel (ID: 17162772/0x0105E214), tag_num=0x1D)
  6: 0x0168 [0x1C] WAIT(220* ticks)
  7: 0x016B [0x27] REQ_SET(priority=0x10, entity_id=Lutete (ID: 17162798/0x0105E22E), tag_num=0x13)
  8: 0x0172 [0x1C] WAIT(40* ticks)
  9: 0x0175 [0x27] REQ_SET(priority=0x10, entity_id=Lhu Mhakaracca (ID: 17162768/0x0105E210), tag_num=0x0E)
 10: 0x017C [0x1C] WAIT(38* ticks)
 11: 0x017F [0x27] REQ_SET(priority=0x10, entity_id=Gariri (ID: 17162799/0x0105E22F), tag_num=0x0F)
 12: 0x0186 [0x1C] WAIT(28* ticks)
 13: 0x0189 [0x27] REQ_SET(priority=0x10, entity_id=Mikhe Aryohcha (ID: 17162766/0x0105E20E), tag_num=0x0E)
 14: 0x0190 [0x1C] WAIT(30* ticks)
 15: 0x0193 [0x27] REQ_SET(priority=0x10, entity_id=Zolku-Azolku (ID: 17162796/0x0105E22C), tag_num=0x10)
 16: 0x019A [0x27] REQ_SET(priority=0x10, entity_id=Zonpa-Zippa (ID: 17162800/0x0105E230), tag_num=0x0F)
 17: 0x01A1 [0x1C] WAIT(40* ticks)
 18: 0x01A4 [0x27] REQ_SET(priority=0x10, entity_id=Kayeel-Payeel (ID: 17162797/0x0105E22D), tag_num=0x12)
 19: 0x01AB [0x00] END_REQSTACK()
```

### Event 65535.19

#### Metadata

| Field        | Value    |
|--------------|----------|
| Entrypoint   | 0x01AC   |
| Data Size    | 11 bytes |
| Instructions | 5        |

```
      00 01 02 03 04 05 06 07  08 09 0A 0B 0C 0D 0E 0F
      -- -- -- -- -- -- -- --  -- -- -- -- -- -- -- --
01A0:                                      67 0D 80 0D              g...
01B0: 80 48 0E 80 23 23 00                              .H..##.         
```

#### Opcodes

```
  0: 0x01AC [0x67] HIDE_HUD_ELEMENTS(param1=0x800D, param2=0x800D)
  1: 0x01B1 [0x48] [System] [13934*]:
    → "The Federation of Windurst... An ancient capital nurtured by the boughs of a great tree, blessed by magical waters, and protected by the moon and stars..."
  2: 0x01B4 [0x23] WAIT_FOR_DIALOG_INTERACTION
  3: 0x01B5 [0x23] WAIT_FOR_DIALOG_INTERACTION
  4: 0x01B6 [0x00] END_REQSTACK()
```

### Event 65535.20

#### Metadata

| Field        | Value    |
|--------------|----------|
| Entrypoint   | 0x01B7   |
| Data Size    | 11 bytes |
| Instructions | 5        |

```
      00 01 02 03 04 05 06 07  08 09 0A 0B 0C 0D 0E 0F
      -- -- -- -- -- -- -- --  -- -- -- -- -- -- -- --
01B0:                      67  0D 80 0F 80 48 10 80 23         g....H..#
01C0: 23 00                                             #.              
```

#### Opcodes

```
  0: 0x01B7 [0x67] HIDE_HUD_ELEMENTS(param1=0x800D, param2=0x800F)
  1: 0x01BC [0x48] [System] [13935*]:
    → "In a time forgotten, a people forced to wander by starvation and cold were led to this land by a wondrous star..."
  2: 0x01BF [0x23] WAIT_FOR_DIALOG_INTERACTION
  3: 0x01C0 [0x23] WAIT_FOR_DIALOG_INTERACTION
  4: 0x01C1 [0x00] END_REQSTACK()
```

### Event 65535.21

#### Metadata

| Field        | Value    |
|--------------|----------|
| Entrypoint   | 0x01C2   |
| Data Size    | 11 bytes |
| Instructions | 5        |

```
      00 01 02 03 04 05 06 07  08 09 0A 0B 0C 0D 0E 0F
      -- -- -- -- -- -- -- --  -- -- -- -- -- -- -- --
01C0:       67 0D 80 0D 80 48  11 80 23 23 00             g....H..##.   
```

#### Opcodes

```
  0: 0x01C2 [0x67] HIDE_HUD_ELEMENTS(param1=0x800D, param2=0x800D)
  1: 0x01C7 [0x48] [System] [13936*]:
    → "Lost souls, adrift in time, found themselves within these walls, and many a tear was shed..."
  2: 0x01CA [0x23] WAIT_FOR_DIALOG_INTERACTION
  3: 0x01CB [0x23] WAIT_FOR_DIALOG_INTERACTION
  4: 0x01CC [0x00] END_REQSTACK()
```

### Event 65535.22

#### Metadata

| Field        | Value    |
|--------------|----------|
| Entrypoint   | 0x01CD   |
| Data Size    | 11 bytes |
| Instructions | 5        |

```
      00 01 02 03 04 05 06 07  08 09 0A 0B 0C 0D 0E 0F
      -- -- -- -- -- -- -- --  -- -- -- -- -- -- -- --
01C0:                                         67 12 80               g..
01D0: 0D 80 48 13 80 23 23 00                           ..H..##.        
```

#### Opcodes

```
  0: 0x01CD [0x67] HIDE_HUD_ELEMENTS(param1=0x8012, param2=0x800D)
  1: 0x01D2 [0x48] [System] [13937*]:
    → "Those tears nourished the soil, and today, a sapling of hope peeks through the earth to meet a bright new sun..."
  2: 0x01D5 [0x23] WAIT_FOR_DIALOG_INTERACTION
  3: 0x01D6 [0x23] WAIT_FOR_DIALOG_INTERACTION
  4: 0x01D7 [0x00] END_REQSTACK()
```

### Event 65535.23

#### Metadata

| Field        | Value    |
|--------------|----------|
| Entrypoint   | 0x01D8   |
| Data Size    | 11 bytes |
| Instructions | 5        |

```
      00 01 02 03 04 05 06 07  08 09 0A 0B 0C 0D 0E 0F
      -- -- -- -- -- -- -- --  -- -- -- -- -- -- -- --
01D0:                          67 12 80 0D 80 48 14 80          g....H..
01E0: 23 23 00                                          ##.             
```

#### Opcodes

```
  0: 0x01D8 [0x67] HIDE_HUD_ELEMENTS(param1=0x8012, param2=0x800D)
  1: 0x01DD [0x48] [System] [13938*]:
    → "Shrink not from your future, my friend..."
  2: 0x01E0 [0x23] WAIT_FOR_DIALOG_INTERACTION
  3: 0x01E1 [0x23] WAIT_FOR_DIALOG_INTERACTION
  4: 0x01E2 [0x00] END_REQSTACK()
```

### Event 65535.24

#### Metadata

| Field        | Value    |
|--------------|----------|
| Entrypoint   | 0x01E3   |
| Data Size    | 11 bytes |
| Instructions | 5        |

```
      00 01 02 03 04 05 06 07  08 09 0A 0B 0C 0D 0E 0F
      -- -- -- -- -- -- -- --  -- -- -- -- -- -- -- --
01E0:          67 15 80 0F 80  48 16 80 23 23 00           g....H..##.  
```

#### Opcodes

```
  0: 0x01E3 [0x67] HIDE_HUD_ELEMENTS(param1=0x8015, param2=0x800F)
  1: 0x01E8 [0x48] [System] [13939*]:
    → "For even the longest, darkest night must eventually give way to the dawn."
  2: 0x01EB [0x23] WAIT_FOR_DIALOG_INTERACTION
  3: 0x01EC [0x23] WAIT_FOR_DIALOG_INTERACTION
  4: 0x01ED [0x00] END_REQSTACK()
```

### Event 65535.25

#### Metadata

| Field        | Value    |
|--------------|----------|
| Entrypoint   | 0x01EE   |
| Data Size    | 11 bytes |
| Instructions | 5        |

```
      00 01 02 03 04 05 06 07  08 09 0A 0B 0C 0D 0E 0F
      -- -- -- -- -- -- -- --  -- -- -- -- -- -- -- --
01E0:                                            67 0D                g.
01F0: 80 0D 80 48 17 80 23 23  00                       ...H..##.       
```

#### Opcodes

```
  0: 0x01EE [0x67] HIDE_HUD_ELEMENTS(param1=0x800D, param2=0x800D)
  1: 0x01F3 [0x48] [System] [13940*]:
    → "And though your body may return to the earth, your memory shall live on. In the wind, the trees, and the hearts of those whose lives you shared..."
  2: 0x01F6 [0x23] WAIT_FOR_DIALOG_INTERACTION
  3: 0x01F7 [0x23] WAIT_FOR_DIALOG_INTERACTION
  4: 0x01F8 [0x00] END_REQSTACK()
```

### Event 65535.26

#### Metadata

| Field        | Value    |
|--------------|----------|
| Entrypoint   | 0x01F9   |
| Data Size    | 11 bytes |
| Instructions | 5        |

```
      00 01 02 03 04 05 06 07  08 09 0A 0B 0C 0D 0E 0F
      -- -- -- -- -- -- -- --  -- -- -- -- -- -- -- --
01F0:                             67 0D 80 0F 80 48 18           g....H.
0200: 80 23 23 00                                       .##.            
```

#### Opcodes

```
  0: 0x01F9 [0x67] HIDE_HUD_ELEMENTS(param1=0x800D, param2=0x800F)
  1: 0x01FE [0x48] [System] [13941*]:
    → "Your destiny is yours alone to forge. For this is neither the beginning nor the end, but merely one stop on a journey of limitless possibilities..."
  2: 0x0201 [0x23] WAIT_FOR_DIALOG_INTERACTION
  3: 0x0202 [0x23] WAIT_FOR_DIALOG_INTERACTION
  4: 0x0203 [0x00] END_REQSTACK()
```

### Event 65535.27

#### Metadata

| Field        | Value    |
|--------------|----------|
| Entrypoint   | 0x0204   |
| Data Size    | 11 bytes |
| Instructions | 5        |

```
      00 01 02 03 04 05 06 07  08 09 0A 0B 0C 0D 0E 0F
      -- -- -- -- -- -- -- --  -- -- -- -- -- -- -- --
0200:             67 0D 80 0D  80 48 19 80 23 23 00         g....H..##. 
```

#### Opcodes

```
  0: 0x0204 [0x67] HIDE_HUD_ELEMENTS(param1=0x800D, param2=0x800D)
  1: 0x0209 [0x48] [System] [13942*]:
    → "The sapling shall grow into a great tree. Its leaves will take to the wind, carrying hopes and dreams with them, and a new chapter of history will be written."
  2: 0x020C [0x23] WAIT_FOR_DIALOG_INTERACTION
  3: 0x020D [0x23] WAIT_FOR_DIALOG_INTERACTION
  4: 0x020E [0x00] END_REQSTACK()
```

### Event 65535.28

#### Metadata

| Field        | Value    |
|--------------|----------|
| Entrypoint   | 0x020F   |
| Data Size    | 11 bytes |
| Instructions | 5        |

```
      00 01 02 03 04 05 06 07  08 09 0A 0B 0C 0D 0E 0F
      -- -- -- -- -- -- -- --  -- -- -- -- -- -- -- --
0200:                                               67                 g
0210: 0D 80 0D 80 48 1A 80 23  23 00                    ....H..##.      
```

#### Opcodes

```
  0: 0x020F [0x67] HIDE_HUD_ELEMENTS(param1=0x800D, param2=0x800D)
  1: 0x0214 [0x48] [System] [13943*]:
    → "...But that is a story for another time."
  2: 0x0217 [0x23] WAIT_FOR_DIALOG_INTERACTION
  3: 0x0218 [0x23] WAIT_FOR_DIALOG_INTERACTION
  4: 0x0219 [0x00] END_REQSTACK()
```

### Event 65535.29

#### Metadata

| Field        | Value    |
|--------------|----------|
| Entrypoint   | 0x021A   |
| Data Size    | 11 bytes |
| Instructions | 5        |

```
      00 01 02 03 04 05 06 07  08 09 0A 0B 0C 0D 0E 0F
      -- -- -- -- -- -- -- --  -- -- -- -- -- -- -- --
0210:                                67 0D 80 0D 80 48            g....H
0220: 1B 80 23 23 00                                    ..##.           
```

#### Opcodes

```
  0: 0x021A [0x67] HIDE_HUD_ELEMENTS(param1=0x800D, param2=0x800D)
  1: 0x021F [0x48] [System] [13944*]:
    → "Another day, when the stars in the heavens align to bring our paths together once more..."
  2: 0x0222 [0x23] WAIT_FOR_DIALOG_INTERACTION
  3: 0x0223 [0x23] WAIT_FOR_DIALOG_INTERACTION
  4: 0x0224 [0x00] END_REQSTACK()
```
