# 17162929

## Common Data

| Field            | Value                        |
|------------------|------------------------------|
| Zone             | Windurst Waters [S] (ID: 94) |
| Block Size       | 17768 bytes                  |
| Total Events     | 4                            |
| References Count | 534                          |

## List of Events

| Event ID              | Entrypoint   |   Size |   Instructions |
|-----------------------|--------------|--------|----------------|
| [65535](#event-65535) | 0x0000       |   1173 |            173 |
| [20](#event-20)       | 0x0495       |   3899 |            502 |
| [21](#event-21)       | 0x13D0       |      8 |              5 |
| [22](#event-22)       | 0x13D8       |  10520 |           1273 |

## DAT References (imed_data)

|   Index | Hex Value   |   Dec Value |
|---------|-------------|-------------|
|       0 | 0x0000      |           0 |
|       1 | 0x0001      |           1 |
|       2 | 0x0215      |         533 |
|       3 | 0x00C8      |         200 |
|       4 | 0x0008      |           8 |
|       5 | 0x0B3C      |        2876 |
|       6 | 0x036C      |         876 |
|       7 | 0x3DFC      |       15868 |
|       8 | 0xFFFFFC19  |  4294966297 |
|       9 | 0x0024      |          36 |
|      10 | 0x0076      |         118 |
|      11 | 0x3A51      |       14929 |
|      12 | 0xFFFFFC18  |  4294966296 |
|      13 | 0x0514      |        1300 |
|      14 | 0x040A      |        1034 |
|      15 | 0x3D42      |       15682 |
|      16 | 0x09C7      |        2503 |
|      17 | 0x060C      |        1548 |
|      18 | 0x010C      |         268 |
|      19 | 0xFFFFB0EC  |  4294947052 |
|      20 | 0x00FA      |         250 |
|      21 | 0x0BC6      |        3014 |
|      22 | 0xFFF9B419  |  4294554649 |
|      23 | 0x56151     |      352593 |
|      24 | 0xFFFF94C0  |  4294939840 |
|      25 | 0x0E30      |        3632 |
|      26 | 0x28A0      |       10400 |
|      27 | 0x1433      |        5171 |
|      28 | 0x02ED      |         749 |
|      29 | 0x0A35      |        2613 |
|      30 | 0x0079      |         121 |
|      31 | 0x5270      |       21104 |
|      32 | 0x0C47      |        3143 |
|      33 | 0xFFFFCB9E  |  4294953886 |
|      34 | 0xFFFF9695  |  4294940309 |
|      35 | 0xFFFFCC3F  |  4294954047 |
|      36 | 0x0155      |         341 |
|      37 | 0x2B12      |       11026 |
|      38 | 0x30BB      |       12475 |
|      39 | 0xFFFF9977  |  4294941047 |
|      40 | 0x0F34      |        3892 |
|      41 | 0x3F81      |       16257 |
|      42 | 0x36FC      |       14076 |
|      43 | 0xFFFF9976  |  4294941046 |
|      44 | 0x0193      |         403 |
|      45 | 0x4317      |       17175 |
|      46 | 0x37D2      |       14290 |
|      47 | 0x03F8      |        1016 |
|      48 | 0x28D4      |       10452 |
|      49 | 0x38D1      |       14545 |
|      50 | 0x00CC      |         204 |
|      51 | 0x29A9      |       10665 |
|      52 | 0x2C78      |       11384 |
|      53 | 0x03C6      |         966 |
|      54 | 0x383A      |       14394 |
|      55 | 0xC1F6      |       49654 |
|      56 | 0xFFFFF831  |  4294965297 |
|      57 | 0x07EF      |        2031 |
|      58 | 0x0B01      |        2817 |
|      59 | 0xC384      |       50052 |
|      60 | 0x0818      |        2072 |
|      61 | 0xFFFFF77D  |  4294965117 |
|      62 | 0xE143      |       57667 |
|      63 | 0x0A85      |        2693 |
|      64 | 0xFFFFE34C  |  4294959948 |
|      65 | 0x12486     |       74886 |
|      66 | 0x0AF5      |        2805 |
|      67 | 0x0722      |        1826 |
|      68 | 0x4030      |       16432 |
|      69 | 0x0595      |        1429 |
|      70 | 0x0749      |        1865 |
|      71 | 0x4062      |       16482 |
|      72 | 0x0013      |          19 |
|      73 | 0x0C5F      |        3167 |
|      74 | 0x3CB9      |       15545 |
|      75 | 0x0860      |        2144 |
|      76 | 0xFFFFFE0C  |  4294966796 |
|      77 | 0x12414     |       74772 |
|      78 | 0x03E8      |        1000 |
|      79 | 0xFFFFF63C  |  4294964796 |
|      80 | 0xFFFFEE6C  |  4294962796 |
|      81 | 0xFFFFE69C  |  4294960796 |
|      82 | 0x3FE8      |       16360 |
|      83 | 0xBDC1      |       48577 |
|      84 | 0xFFFFF830  |  4294965296 |
|      85 | 0x07DE      |        2014 |
|      86 | 0x3752      |       14162 |
|      87 | 0xC96D      |       51565 |
|      88 | 0x0840      |        2112 |
|      89 | 0xFFFF755B  |  4294931803 |
|      90 | 0xFB91      |       64401 |
|      91 | 0xFFFFF254  |  4294963796 |
|      92 | 0x0AF0      |        2800 |
|      93 | 0xFFFF778D  |  4294932365 |
|      94 | 0x1053E     |       66878 |
|      95 | 0xFFFFF255  |  4294963797 |
|      96 | 0x0813      |        2067 |
|      97 | 0xFFFF7B33  |  4294933299 |
|      98 | 0xFDBF      |       64959 |
|      99 | 0x0937      |        2359 |
|     100 | 0xFFFF4DD7  |  4294921687 |
|     101 | 0x16FB8     |       94136 |
|     102 | 0xFFFFEC79  |  4294962297 |
|     103 | 0x0FE9      |        4073 |
|     104 | 0xFFFF4CAA  |  4294921386 |
|     105 | 0x16429     |       91177 |
|     106 | 0x0023      |          35 |
|     107 | 0xFFFFF366  |  4294964070 |
|     108 | 0x15A97     |       88727 |
|     109 | 0x07BC      |        1980 |
|     110 | 0xFFFFE33C  |  4294959932 |
|     111 | 0x28D9      |       10457 |
|     112 | 0x0C62      |        3170 |
|     113 | 0xFFFFE4B8  |  4294960312 |
|     114 | 0x1C9B      |        7323 |
|     115 | 0xFFFFFBBF  |  4294966207 |
|     116 | 0x0D69      |        3433 |
|     117 | 0xFFFF70F7  |  4294930679 |
|     118 | 0x10260     |       66144 |
|     119 | 0xFFFF6A27  |  4294928935 |
|     120 | 0xF883      |       63619 |
|     121 | 0x0BC9      |        3017 |
|     122 | 0xFFFFA7C6  |  4294944710 |
|     123 | 0x14EF8     |       85752 |
|     124 | 0x04C7      |        1223 |
|     125 | 0xFFFF66BC  |  4294928060 |
|     126 | 0xF9A3      |       63907 |
|     127 | 0x0C19      |        3097 |
|     128 | 0xFFFFAC5E  |  4294945886 |
|     129 | 0x140D2     |       82130 |
|     130 | 0x0820      |        2080 |
|     131 | 0xFFFFB11B  |  4294947099 |
|     132 | 0x14715     |       83733 |
|     133 | 0x0699      |        1689 |
|     134 | 0xFFFFB263  |  4294947427 |
|     135 | 0x150B5     |       86197 |
|     136 | 0x0695      |        1685 |
|     137 | 0x000A      |          10 |
|     138 | 0x000F      |          15 |
|     139 | 0x34F6      |       13558 |
|     140 | 0x0006      |           6 |
|     141 | 0x34F7      |       13559 |
|     142 | 0x003B      |          59 |
|     143 | 0x34F8      |       13560 |
|     144 | 0x0078      |         120 |
|     145 | 0x34F9      |       13561 |
|     146 | 0x0066      |         102 |
|     147 | 0x34FA      |       13562 |
|     148 | 0x005A      |          90 |
|     149 | 0x34FB      |       13563 |
|     150 | 0x34FC      |       13564 |
|     151 | 0x001E      |          30 |
|     152 | 0x34FD      |       13565 |
|     153 | 0x34FE      |       13566 |
|     154 | 0x003C      |          60 |
|     155 | 0x34FF      |       13567 |
|     156 | 0xFFFFFECD  |  4294966989 |
|     157 | 0x33C0      |       13248 |
|     158 | 0x0F3F      |        3903 |
|     159 | 0xFFFFFB76  |  4294966134 |
|     160 | 0x3420      |       13344 |
|     161 | 0x0E97      |        3735 |
|     162 | 0xFFFFFE89  |  4294966921 |
|     163 | 0x314F      |       12623 |
|     164 | 0x0E3C      |        3644 |
|     165 | 0x0508      |        1288 |
|     166 | 0x008C      |         140 |
|     167 | 0x0004      |           4 |
|     168 | 0x0019      |          25 |
|     169 | 0x0504      |        1284 |
|     170 | 0x3500      |       13568 |
|     171 | 0x105E2FD   |    17163005 |
|     172 | 0x0709      |        1801 |
|     173 | 0x38DB      |       14555 |
|     174 | 0x05DE      |        1502 |
|     175 | 0x3501      |       13569 |
|     176 | 0x0506      |        1286 |
|     177 | 0x009A      |         154 |
|     178 | 0x3502      |       13570 |
|     179 | 0x00A3      |         163 |
|     180 | 0x3503      |       13571 |
|     181 | 0xFFFFDDAF  |  4294958511 |
|     182 | 0x09AF      |        2479 |
|     183 | 0xFFFFF962  |  4294965602 |
|     184 | 0x0CA2      |        3234 |
|     185 | 0x0003      |           3 |
|     186 | 0xFFFFFBD3  |  4294966227 |
|     187 | 0x347A      |       13434 |
|     188 | 0x0F2F      |        3887 |
|     189 | 0x00B5      |         181 |
|     190 | 0x3504      |       13572 |
|     191 | 0x0051      |          81 |
|     192 | 0x0055      |          85 |
|     193 | 0xFFFFF846  |  4294965318 |
|     194 | 0x3DA6      |       15782 |
|     195 | 0x0C70      |        3184 |
|     196 | 0x0005      |           5 |
|     197 | 0xFFFFFBDE  |  4294966238 |
|     198 | 0x4419      |       17433 |
|     199 | 0x0BD5      |        3029 |
|     200 | 0x0C29      |        3113 |
|     201 | 0xFFFFFE78  |  4294966904 |
|     202 | 0x331A      |       13082 |
|     203 | 0x0B2A      |        2858 |
|     204 | 0x0050      |          80 |
|     205 | 0x0015      |          21 |
|     206 | 0x3505      |       13573 |
|     207 | 0x0080      |         128 |
|     208 | 0x004B      |          75 |
|     209 | 0x3506      |       13574 |
|     210 | 0x3507      |       13575 |
|     211 | 0x0A04      |        2564 |
|     212 | 0x0579      |        1401 |
|     213 | 0x002D      |          45 |
|     214 | 0x063A      |        1594 |
|     215 | 0x00B6      |         182 |
|     216 | 0x3508      |       13576 |
|     217 | 0x3509      |       13577 |
|     218 | 0x0007      |           7 |
|     219 | 0x000B      |          11 |
|     220 | 0x0D4C      |        3404 |
|     221 | 0xFFFF5FFF  |  4294926335 |
|     222 | 0x1AE1C     |      110108 |
|     223 | 0x039A      |         922 |
|     224 | 0xFFFF5C9D  |  4294925469 |
|     225 | 0x1CAC2     |      117442 |
|     226 | 0x0418      |        1048 |
|     227 | 0xFFFF5901  |  4294924545 |
|     228 | 0x0416      |        1046 |
|     229 | 0xFFFF66E6  |  4294928102 |
|     230 | 0xFCB6      |       64694 |
|     231 | 0x0FAD      |        4013 |
|     232 | 0xFFFF6AB0  |  4294929072 |
|     233 | 0x108BD     |       67773 |
|     234 | 0x0061      |          97 |
|     235 | 0xFFFF74F3  |  4294931699 |
|     236 | 0xFD6B      |       64875 |
|     237 | 0x0DCD      |        3533 |
|     238 | 0xFFFF7B90  |  4294933392 |
|     239 | 0x101FE     |       66046 |
|     240 | 0x0924      |        2340 |
|     241 | 0xFFFF71AB  |  4294930859 |
|     242 | 0x113AC     |       70572 |
|     243 | 0x03AC      |         940 |
|     244 | 0xFFFF3D84  |  4294917508 |
|     245 | 0x11038     |       69688 |
|     246 | 0xFFFF791D  |  4294932765 |
|     247 | 0xFAE9      |       64233 |
|     248 | 0x0B00      |        2816 |
|     249 | 0x02BC      |         700 |
|     250 | 0x0190      |         400 |
|     251 | 0x0032      |          50 |
|     252 | 0x3521      |       13601 |
|     253 | 0x3522      |       13602 |
|     254 | 0x3523      |       13603 |
|     255 | 0x00F2      |         242 |
|     256 | 0x00FF      |         255 |
|     257 | 0x00A2      |         162 |
|     258 | 0x01AA      |         426 |
|     259 | 0xFFFFFD18  |  4294966552 |
|     260 | 0x774C      |       30540 |
|     261 | 0x01F3      |         499 |
|     262 | 0x0EAE      |        3758 |
|     263 | 0xFFFFFDB1  |  4294966705 |
|     264 | 0xFFFF97B7  |  4294940599 |
|     265 | 0x0BD6      |        3030 |
|     266 | 0x0311      |         785 |
|     267 | 0xFFFF988D  |  4294940813 |
|     268 | 0x0C2E      |        3118 |
|     269 | 0x3578      |       13688 |
|     270 | 0x00B4      |         180 |
|     271 | 0xFFFFFE14  |  4294966804 |
|     272 | 0x464D      |       17997 |
|     273 | 0x01E9      |         489 |
|     274 | 0x0C48      |        3144 |
|     275 | 0x0791      |        1937 |
|     276 | 0x4607      |       17927 |
|     277 | 0x01E4      |         484 |
|     278 | 0x09CC      |        2508 |
|     279 | 0x00E6      |         230 |
|     280 | 0x05A3      |        1443 |
|     281 | 0x3524      |       13604 |
|     282 | 0x3525      |       13605 |
|     283 | 0x3526      |       13606 |
|     284 | 0x3527      |       13607 |
|     285 | 0x3528      |       13608 |
|     286 | 0x05A2      |        1442 |
|     287 | 0x3529      |       13609 |
|     288 | 0x352A      |       13610 |
|     289 | 0x010B      |         267 |
|     290 | 0x75E1      |       30177 |
|     291 | 0x00F9      |         249 |
|     292 | 0x07BB      |        1979 |
|     293 | 0x352B      |       13611 |
|     294 | 0x352C      |       13612 |
|     295 | 0x009F      |         159 |
|     296 | 0xFFFFD9F2  |  4294957554 |
|     297 | 0xFFFF92B4  |  4294939316 |
|     298 | 0xFFFFC951  |  4294953297 |
|     299 | 0x00EA      |         234 |
|     300 | 0xFFFFD244  |  4294955588 |
|     301 | 0xFFFF8F88  |  4294938504 |
|     302 | 0xFFFFCA4B  |  4294953547 |
|     303 | 0x0161      |         353 |
|     304 | 0xFFFF94A8  |  4294939816 |
|     305 | 0xFFFFBD1F  |  4294950175 |
|     306 | 0xFFFFD9EA  |  4294957546 |
|     307 | 0x02BD      |         701 |
|     308 | 0x352D      |       13613 |
|     309 | 0x352E      |       13614 |
|     310 | 0x352F      |       13615 |
|     311 | 0x2A7B      |       10875 |
|     312 | 0xFFFF911C  |  4294938908 |
|     313 | 0xFFFFB7BD  |  4294948797 |
|     314 | 0x0F23      |        3875 |
|     315 | 0x01AB      |         427 |
|     316 | 0x4E20      |       20000 |
|     317 | 0x8CA0      |       36000 |
|     318 | 0x0800      |        2048 |
|     319 | 0x61A8      |       25000 |
|     320 | 0x4838      |       18488 |
|     321 | 0x368B      |       13963 |
|     322 | 0x034F      |         847 |
|     323 | 0x40F1      |       16625 |
|     324 | 0x3135      |       12597 |
|     325 | 0x00B3      |         179 |
|     326 | 0x23F9      |        9209 |
|     327 | 0x27A4      |       10148 |
|     328 | 0x0192      |         402 |
|     329 | 0x4B73      |       19315 |
|     330 | 0x2F94      |       12180 |
|     331 | 0x0E10      |        3600 |
|     332 | 0x0014      |          20 |
|     333 | 0x0B6F      |        2927 |
|     334 | 0x0B94      |        2964 |
|     335 | 0x00D5      |         213 |
|     336 | 0x3530      |       13616 |
|     337 | 0x3531      |       13617 |
|     338 | 0x0978      |        2424 |
|     339 | 0x05A6      |        1446 |
|     340 | 0x0A98      |        2712 |
|     341 | 0x3532      |       13618 |
|     342 | 0x3533      |       13619 |
|     343 | 0xFFFFFF9C  |  4294967196 |
|     344 | 0x01F4      |         500 |
|     345 | 0xFFFFFF38  |  4294967096 |
|     346 | 0x3534      |       13620 |
|     347 | 0x3535      |       13621 |
|     348 | 0x3536      |       13622 |
|     349 | 0x3537      |       13623 |
|     350 | 0x3538      |       13624 |
|     351 | 0x3539      |       13625 |
|     352 | 0x353A      |       13626 |
|     353 | 0x353B      |       13627 |
|     354 | 0x353C      |       13628 |
|     355 | 0x353D      |       13629 |
|     356 | 0x353E      |       13630 |
|     357 | 0x353F      |       13631 |
|     358 | 0x3540      |       13632 |
|     359 | 0x3541      |       13633 |
|     360 | 0x3542      |       13634 |
|     361 | 0x3543      |       13635 |
|     362 | 0x3544      |       13636 |
|     363 | 0x3545      |       13637 |
|     364 | 0x3546      |       13638 |
|     365 | 0x4578      |       17784 |
|     366 | 0x3FA2      |       16290 |
|     367 | 0x0ECC      |        3788 |
|     368 | 0x3547      |       13639 |
|     369 | 0x3548      |       13640 |
|     370 | 0x3549      |       13641 |
|     371 | 0x354A      |       13642 |
|     372 | 0x354B      |       13643 |
|     373 | 0x354C      |       13644 |
|     374 | 0x354D      |       13645 |
|     375 | 0x354E      |       13646 |
|     376 | 0x354F      |       13647 |
|     377 | 0x3550      |       13648 |
|     378 | 0x3551      |       13649 |
|     379 | 0x3552      |       13650 |
|     380 | 0x3553      |       13651 |
|     381 | 0x3554      |       13652 |
|     382 | 0x3555      |       13653 |
|     383 | 0x3556      |       13654 |
|     384 | 0x3557      |       13655 |
|     385 | 0x3558      |       13656 |
|     386 | 0x0505      |        1285 |
|     387 | 0x012C      |         300 |
|     388 | 0x32E6      |       13030 |
|     389 | 0x3D54      |       15700 |
|     390 | 0x09D8      |        2520 |
|     391 | 0x0996      |        2454 |
|     392 | 0x0064      |         100 |
|     393 | 0x3559      |       13657 |
|     394 | 0x355A      |       13658 |
|     395 | 0x355B      |       13659 |
|     396 | 0x005E      |          94 |
|     397 | 0x007C      |         124 |
|     398 | 0xFFFFF7B4  |  4294965172 |
|     399 | 0x9B3B      |       39739 |
|     400 | 0x0D03      |        3331 |
|     401 | 0xFFFFFD2B  |  4294966571 |
|     402 | 0x992F      |       39215 |
|     403 | 0x0C28      |        3112 |
|     404 | 0xFFFFF960  |  4294965600 |
|     405 | 0xE922      |       59682 |
|     406 | 0x0313      |         787 |
|     407 | 0xFFFFFCA7  |  4294966439 |
|     408 | 0xE480      |       58496 |
|     409 | 0x029C      |         668 |
|     410 | 0x0096      |         150 |
|     411 | 0x355D      |       13661 |
|     412 | 0x355E      |       13662 |
|     413 | 0xFFFFD20B  |  4294955531 |
|     414 | 0x14E30     |       85552 |
|     415 | 0x03F3      |        1011 |
|     416 | 0xFFFFDA19  |  4294957593 |
|     417 | 0x120F0     |       73968 |
|     418 | 0x0B20      |        2848 |
|     419 | 0x00F0      |         240 |
|     420 | 0x355F      |       13663 |
|     421 | 0xFFFFD2B2  |  4294955698 |
|     422 | 0x14855     |       84053 |
|     423 | 0x0CBD      |        3261 |
|     424 | 0x0009      |           9 |
|     425 | 0x3560      |       13664 |
|     426 | 0xFFFFF467  |  4294964327 |
|     427 | 0xDC5D      |       56413 |
|     428 | 0xFFFFF53F  |  4294964543 |
|     429 | 0xD810      |       55312 |
|     430 | 0x052F      |        1327 |
|     431 | 0x0570      |        1392 |
|     432 | 0x3561      |       13665 |
|     433 | 0x005F      |          95 |
|     434 | 0x4AE37     |      306743 |
|     435 | 0x89D4      |       35284 |
|     436 | 0xFFFFF1F5  |  4294963701 |
|     437 | 0x0A83      |        2691 |
|     438 | 0x49F91     |      302993 |
|     439 | 0x97F5      |       38901 |
|     440 | 0xFFFFF13E  |  4294963518 |
|     441 | 0x018C      |         396 |
|     442 | 0x4AC3B     |      306235 |
|     443 | 0xADDC      |       44508 |
|     444 | 0xFFFFF20E  |  4294963726 |
|     445 | 0x035C      |         860 |
|     446 | 0x4A43A     |      304186 |
|     447 | 0xA605      |       42501 |
|     448 | 0xFFFFF24E  |  4294963790 |
|     449 | 0x0177      |         375 |
|     450 | 0x4A7BF     |      305087 |
|     451 | 0xA63E      |       42558 |
|     452 | 0x0574      |        1396 |
|     453 | 0x4AEF1     |      306929 |
|     454 | 0x9D96      |       40342 |
|     455 | 0x0AC6      |        2758 |
|     456 | 0x4A4DC     |      304348 |
|     457 | 0xA153      |       41299 |
|     458 | 0x0DBC      |        3516 |
|     459 | 0x4A898     |      305304 |
|     460 | 0xAB71      |       43889 |
|     461 | 0x0BDC      |        3036 |
|     462 | 0x4A706     |      304902 |
|     463 | 0x8CB0      |       36016 |
|     464 | 0xFFFFF251  |  4294963793 |
|     465 | 0x0CCF      |        3279 |
|     466 | 0x4DC6F     |      318575 |
|     467 | 0x4F80      |       20352 |
|     468 | 0xFFFFEB93  |  4294962067 |
|     469 | 0x0AA0      |        2720 |
|     470 | 0x4D4A5     |      316581 |
|     471 | 0x54E7      |       21735 |
|     472 | 0xFFFFEBEA  |  4294962154 |
|     473 | 0x00DE      |         222 |
|     474 | 0x00DF      |         223 |
|     475 | 0x0044      |          68 |
|     476 | 0x00DC      |         220 |
|     477 | 0x0122      |         290 |
|     478 | 0x4AC46     |      306246 |
|     479 | 0x8AC6      |       35526 |
|     480 | 0xFFFFF213  |  4294963731 |
|     481 | 0x0AA1      |        2721 |
|     482 | 0x3562      |       13666 |
|     483 | 0x0028      |          40 |
|     484 | 0x3563      |       13667 |
|     485 | 0x3564      |       13668 |
|     486 | 0x3565      |       13669 |
|     487 | 0x3566      |       13670 |
|     488 | 0x3567      |       13671 |
|     489 | 0x4A8D5     |      305365 |
|     490 | 0x9E0A      |       40458 |
|     491 | 0x0B90      |        2960 |
|     492 | 0x4B10B     |      307467 |
|     493 | 0x9565      |       38245 |
|     494 | 0x3568      |       13672 |
|     495 | 0x3569      |       13673 |
|     496 | 0xFFFFD633  |  4294956595 |
|     497 | 0x130C2     |       78018 |
|     498 | 0xFFFFF736  |  4294965046 |
|     499 | 0x09EC      |        2540 |
|     500 | 0xFFFFD07B  |  4294955131 |
|     501 | 0x13669     |       79465 |
|     502 | 0xFFFFF448  |  4294964296 |
|     503 | 0x0ACC      |        2764 |
|     504 | 0xFFFF9334  |  4294939444 |
|     505 | 0x15148     |       86344 |
|     506 | 0xFFFFEC78  |  4294962296 |
|     507 | 0x0B92      |        2962 |
|     508 | 0x00A1      |         161 |
|     509 | 0x0168      |         360 |
|     510 | 0x356A      |       13674 |
|     511 | 0x052E      |        1326 |
|     512 | 0x356B      |       13675 |
|     513 | 0x356C      |       13676 |
|     514 | 0xFFFFB018  |  4294946840 |
|     515 | 0x14DCE     |       85454 |
|     516 | 0x356D      |       13677 |
|     517 | 0x356E      |       13678 |
|     518 | 0xFFFF9223  |  4294939171 |
|     519 | 0x15152     |       86354 |
|     520 | 0xFFFFEC76  |  4294962294 |
|     521 | 0x356F      |       13679 |
|     522 | 0xFFFFFE70  |  4294966896 |
|     523 | 0x3570      |       13680 |
|     524 | 0x3571      |       13681 |
|     525 | 0x0571      |        1393 |
|     526 | 0x3572      |       13682 |
|     527 | 0x3573      |       13683 |
|     528 | 0x05F9      |        1529 |
|     529 | 0x3574      |       13684 |
|     530 | 0x3575      |       13685 |
|     531 | 0x00C9      |         201 |
|     532 | 0x0002      |           2 |
|     533 | 0x00D7      |         215 |

## String References

- **13562**: Hear ye, hear ye! Citizens of Windurst!
- **13563**: Due to imminent danger of a beastman attack, the Federation has declared a state of high alertaru!
- **13564**: All non-military personnel are hereby ordered to take sheltaru indoors until further-wurther notice. I repeataru, this is not a drill!
- **13688**: 

## Events

### Event 65535

#### Metadata

| Field        | Value      |
|--------------|------------|
| Entrypoint   | 0x0000     |
| Data Size    | 1173 bytes |
| Instructions | 1          |

```
      00 01 02 03 04 05 06 07  08 09 0A 0B 0C 0D 0E 0F
      -- -- -- -- -- -- -- --  -- -- -- -- -- -- -- --
0000: 00 02 09 10 00 80 00 0F  00 1C 01 80 01 01 00 1B  ................
0010: 45 02 80 F0 FF FF 7F F0  FF FF 7F 66 64 69 2D 00  E..........fdi-.
0020: 80 1B 45 02 80 F0 FF FF  7F F0 FF FF 7F 66 64 6F  ..E..........fdo
0030: 2D 00 80 1B 45 03 80 F0  FF FF 7F F0 FF FF 7F 66  -...E..........f
0040: 64 69 30 00 80 1B 45 03  80 F0 FF FF 7F F0 FF FF  di0...E.........
0050: 7F 66 64 6F 30 00 80 1B  45 03 80 F0 FF FF 7F F0  .fdo0...E.......
0060: FF FF 7F 66 64 69 31 00  80 1B 45 03 80 F0 FF FF  ...fdi1...E.....
0070: 7F F0 FF FF 7F 66 64 6F  31 00 80 1B 45 03 80 F0  .....fdo1...E...
0080: FF FF 7F F0 FF FF 7F 66  64 69 32 00 80 1B 45 03  .......fdi2...E.
0090: 80 F0 FF FF 7F F0 FF FF  7F 66 64 6F 32 00 80 1B  .........fdo2...
00A0: 45 02 80 F0 FF FF 7F F0  FF FF 7F 66 64 69 2D 00  E..........fdi-.
00B0: 80 55 02 80 F0 FF FF 7F  F0 FF FF 7F 66 64 69 2D  .U..........fdi-
00C0: 1B 45 02 80 F0 FF FF 7F  F0 FF FF 7F 66 64 6F 2D  .E..........fdo-
00D0: 00 80 55 02 80 F0 FF FF  7F F0 FF FF 7F 66 64 6F  ..U..........fdo
00E0: 2D 1B 45 03 80 F0 FF FF  7F F0 FF FF 7F 66 64 69  -.E..........fdi
00F0: 30 00 80 55 03 80 F0 FF  FF 7F F0 FF FF 7F 66 64  0..U..........fd
0100: 69 30 1B 45 03 80 F0 FF  FF 7F F0 FF FF 7F 66 64  i0.E..........fd
0110: 6F 30 00 80 55 03 80 F0  FF FF 7F F0 FF FF 7F 66  o0..U..........f
0120: 64 6F 30 1B 45 03 80 F0  FF FF 7F F0 FF FF 7F 66  do0.E..........f
0130: 64 69 31 00 80 55 03 80  F0 FF FF 7F F0 FF FF 7F  di1..U..........
0140: 66 64 69 31 1B 45 03 80  F0 FF FF 7F F0 FF FF 7F  fdi1.E..........
0150: 66 64 6F 31 00 80 55 03  80 F0 FF FF 7F F0 FF FF  fdo1..U.........
0160: 7F 66 64 6F 31 1B 45 03  80 F0 FF FF 7F F0 FF FF  .fdo1.E.........
0170: 7F 66 64 69 32 00 80 55  03 80 F0 FF FF 7F F0 FF  .fdi2..U........
0180: FF 7F 66 64 69 32 1B 45  03 80 F0 FF FF 7F F0 FF  ..fdi2.E........
0190: FF 7F 66 64 6F 32 00 80  55 03 80 F0 FF FF 7F F0  ..fdo2..U.......
01A0: FF FF 7F 66 64 6F 32 1B  45 03 80 F0 FF FF 7F F0  ...fdo2.E.......
01B0: FF FF 7F 62 6C 6F 6E 00  80 1B 45 03 80 F0 FF FF  ...blon...E.....
01C0: 7F F0 FF FF 7F 62 6C 6F  66 00 80 1B 45 02 80 F0  .....blof...E...
01D0: FF FF 7F F0 FF FF 7F 6F  6C 31 35 00 80 1B 45 02  .......ol15...E.
01E0: 80 F0 FF FF 7F F0 FF FF  7F 6F 6C 32 30 00 80 1B  .........ol20...
01F0: 45 02 80 F0 FF FF 7F F0  FF FF 7F 6F 6C 33 30 00  E..........ol30.
0200: 80 1B 45 03 80 F0 FF FF  7F F0 FF FF 7F 6F 76 6C  ..E..........ovl
0210: 31 00 80 1B 45 03 80 F0  FF FF 7F F0 FF FF 7F 6F  1...E..........o
0220: 76 6C 32 00 80 1B 29 10  F0 FF FF 7F 0B 03 04 10  vl2...).........
0230: 02 10 1B 29 10 F0 FF FF  7F 0A 03 07 10 02 10 1A  ...)............
0240: 26 02 02 04 10 01 80 00  57 02 02 07 10 04 80 01  &.......W.......
0250: 57 02 07 07 10 04 10 29  10 F0 FF FF 7F 0A 1B 3B  W......).......;
0260: F0 FF FF 7F 08 10 07 10  06 10 BA F0 FF FF 7F 08  ................
0270: 10 07 10 06 10 05 80 1B  BA F0 FF FF 7F 06 80 07  ................
0280: 80 08 80 09 80 1B BA F0  FF FF 7F 0A 80 0B 80 0C  ................
0290: 80 0D 80 1B BA F0 FF FF  7F 0E 80 0F 80 0C 80 09  ................
02A0: 80 1B 4B F0 FF FF 7F 10  80 1B 4B F0 FF FF 7F 11  ..K.......K.....
02B0: 80 1B BA F0 FF FF 7F 12  80 13 80 14 80 15 80 1B  ................
02C0: 27 10 F0 FF FF 7F 56 1B  27 10 F0 FF FF 7F 58 1B  '.....V.'.....X.
02D0: BA F0 FF FF 7F 16 80 17  80 18 80 19 80 1B BA F0  ................
02E0: FF FF 7F 1A 80 1B 80 1C  80 1D 80 1B 27 10 F0 FF  ............'...
02F0: FF 7F 59 1B 27 10 F0 FF  FF 7F 5A 1B 27 10 F0 FF  ..Y.'.....Z.'...
0300: FF 7F 5B 1B BA F0 FF FF  7F 12 80 13 80 14 80 15  ..[.............
0310: 80 1B 27 10 F0 FF FF 7F  5C 1B BA F0 FF FF 7F 1E  ..'.....\.......
0320: 80 1F 80 00 80 20 80 1B  27 10 F0 FF FF 7F 5D 1B  ..... ..'.....].
0330: BA F0 FF FF 7F 21 80 22  80 23 80 24 80 1B BA F0  .....!.".#.$....
0340: FF FF 7F 25 80 26 80 27  80 28 80 1B BA F0 FF FF  ...%.&.'.(......
0350: 7F 29 80 2A 80 2B 80 2C  80 1B BA F0 FF FF 7F 2D  .).*.+.,.......-
0360: 80 2E 80 27 80 2F 80 1B  27 10 F0 FF FF 7F 62 1B  ...'./..'.....b.
0370: BA F0 FF FF 7F 30 80 31  80 27 80 32 80 1B 27 10  .....0.1.'.2..'.
0380: F0 FF FF 7F 63 1B BA F0  FF FF 7F 33 80 34 80 27  ....c......3.4.'
0390: 80 35 80 1B 27 10 F0 FF  FF 7F 64 1B BA F0 FF FF  .5..'.....d.....
03A0: 7F 36 80 37 80 38 80 39  80 1B 27 10 F0 FF FF 7F  .6.7.8.9..'.....
03B0: 65 1B BA F0 FF FF 7F 3A  80 3B 80 0C 80 3C 80 1B  e......:.;...<..
03C0: BA F0 FF FF 7F 3D 80 3E  80 08 80 3F 80 1B BA F0  .....=.>...?....
03D0: FF FF 7F 40 80 41 80 0C  80 42 80 1B 27 10 F0 FF  ...@.A...B..'...
03E0: FF 7F 67 1B 27 10 F0 FF  FF 7F 68 1B 27 10 F0 FF  ..g.'.....h.'...
03F0: FF 7F 6B 1B 27 10 F0 FF  FF 7F 6C 1B 4A F0 FF FF  ..k.'.....l.J...
0400: 7F 06 E2 05 01 1B 4A F0  FF FF 7F FF E1 05 01 1B  ......J.........
0410: 4A F0 FF FF 7F FC E2 05  01 1B 4A F0 FF FF 7F 36  J.........J....6
0420: E2 05 01 1B 4A F0 FF FF  7F 02 E3 05 01 1B 4A F0  ....J.........J.
0430: FF FF 7F 03 E3 05 01 1B  4A F0 FF FF 7F 07 E2 05  ........J.......
0440: 01 1B 79 00 F0 FF FF 7F  08 E2 05 01 1B 4A F0 FF  ..y..........J..
0450: FF 7F 08 E2 05 01 1B 4A  F0 FF FF 7F 2B E2 05 01  .......J....+...
0460: 1B 27 10 F0 FF FF 7F 6D  1B 27 10 F0 FF FF 7F 6E  .'.....m.'.....n
0470: 1B BA F0 FF FF 7F 43 80  44 80 08 80 45 80 1B BA  ......C.D...E...
0480: F0 FF FF 7F 46 80 47 80  08 80 45 80 1B 27 10 F0  ....F.G...E..'..
0490: FF FF 7F 6F 1B                                    ...o.           
```

#### Opcodes

```
  0: 0x0000 [0x00] END_REQSTACK()
```

#### Data or dead code:

```
# Dead code (unreachable instructions):
     0x0001 [0x02] IF !(Work_Zone[9] == 0*) GOTO 0x000F
     0x0009 [0x1C] WAIT(1* ticks)
     0x000C [0x01] GOTO 0x0001
     0x000F [0x1B] RETURN
     0x0010 [0x45] LOAD_SCHEDULED_TASK: Load scheduler "fdi-" with entities [LocalPlayer, LocalPlayer], work=[533*, 0*]
     0x0021 [0x1B] RETURN
     0x0022 [0x45] LOAD_SCHEDULED_TASK: Load scheduler "fdo-" with entities [LocalPlayer, LocalPlayer], work=[533*, 0*]
     0x0033 [0x1B] RETURN
     0x0034 [0x45] LOAD_SCHEDULED_TASK: Load scheduler "fdi0" with entities [LocalPlayer, LocalPlayer], work=[200*, 0*]
     0x0045 [0x1B] RETURN
     0x0046 [0x45] LOAD_SCHEDULED_TASK: Load scheduler "fdo0" with entities [LocalPlayer, LocalPlayer], work=[200*, 0*]
     0x0057 [0x1B] RETURN
     0x0058 [0x45] LOAD_SCHEDULED_TASK: Load scheduler "fdi1" with entities [LocalPlayer, LocalPlayer], work=[200*, 0*]
     0x0069 [0x1B] RETURN
     0x006A [0x45] LOAD_SCHEDULED_TASK: Load scheduler "fdo1" with entities [LocalPlayer, LocalPlayer], work=[200*, 0*]
     0x007B [0x1B] RETURN
     0x007C [0x45] LOAD_SCHEDULED_TASK: Load scheduler "fdi2" with entities [LocalPlayer, LocalPlayer], work=[200*, 0*]
     0x008D [0x1B] RETURN
     0x008E [0x45] LOAD_SCHEDULED_TASK: Load scheduler "fdo2" with entities [LocalPlayer, LocalPlayer], work=[200*, 0*]
     0x009F [0x1B] RETURN
     0x00A0 [0x45] LOAD_SCHEDULED_TASK: Load scheduler "fdi-" with entities [LocalPlayer, LocalPlayer], work=[533*, 0*]
     0x00B1 [0x55] WAIT_LOAD_SCHEDULER: Wait for scheduler "fdi-" with entities [LocalPlayer, LocalPlayer], work=533*
     0x00C0 [0x1B] RETURN
     0x00C1 [0x45] LOAD_SCHEDULED_TASK: Load scheduler "fdo-" with entities [LocalPlayer, LocalPlayer], work=[533*, 0*]
     0x00D2 [0x55] WAIT_LOAD_SCHEDULER: Wait for scheduler "fdo-" with entities [LocalPlayer, LocalPlayer], work=533*
     0x00E1 [0x1B] RETURN
     0x00E2 [0x45] LOAD_SCHEDULED_TASK: Load scheduler "fdi0" with entities [LocalPlayer, LocalPlayer], work=[200*, 0*]
     0x00F3 [0x55] WAIT_LOAD_SCHEDULER: Wait for scheduler "fdi0" with entities [LocalPlayer, LocalPlayer], work=200*
     0x0102 [0x1B] RETURN
     0x0103 [0x45] LOAD_SCHEDULED_TASK: Load scheduler "fdo0" with entities [LocalPlayer, LocalPlayer], work=[200*, 0*]
     0x0114 [0x55] WAIT_LOAD_SCHEDULER: Wait for scheduler "fdo0" with entities [LocalPlayer, LocalPlayer], work=200*
     0x0123 [0x1B] RETURN
     0x0124 [0x45] LOAD_SCHEDULED_TASK: Load scheduler "fdi1" with entities [LocalPlayer, LocalPlayer], work=[200*, 0*]
     0x0135 [0x55] WAIT_LOAD_SCHEDULER: Wait for scheduler "fdi1" with entities [LocalPlayer, LocalPlayer], work=200*
     0x0144 [0x1B] RETURN
     0x0145 [0x45] LOAD_SCHEDULED_TASK: Load scheduler "fdo1" with entities [LocalPlayer, LocalPlayer], work=[200*, 0*]
     0x0156 [0x55] WAIT_LOAD_SCHEDULER: Wait for scheduler "fdo1" with entities [LocalPlayer, LocalPlayer], work=200*
     0x0165 [0x1B] RETURN
     0x0166 [0x45] LOAD_SCHEDULED_TASK: Load scheduler "fdi2" with entities [LocalPlayer, LocalPlayer], work=[200*, 0*]
     0x0177 [0x55] WAIT_LOAD_SCHEDULER: Wait for scheduler "fdi2" with entities [LocalPlayer, LocalPlayer], work=200*
     0x0186 [0x1B] RETURN
     0x0187 [0x45] LOAD_SCHEDULED_TASK: Load scheduler "fdo2" with entities [LocalPlayer, LocalPlayer], work=[200*, 0*]
     0x0198 [0x55] WAIT_LOAD_SCHEDULER: Wait for scheduler "fdo2" with entities [LocalPlayer, LocalPlayer], work=200*
     0x01A7 [0x1B] RETURN
     0x01A8 [0x45] LOAD_SCHEDULED_TASK: Load scheduler "blon" with entities [LocalPlayer, LocalPlayer], work=[200*, 0*]
     0x01B9 [0x1B] RETURN
     0x01BA [0x45] LOAD_SCHEDULED_TASK: Load scheduler "blof" with entities [LocalPlayer, LocalPlayer], work=[200*, 0*]
     0x01CB [0x1B] RETURN
     0x01CC [0x45] LOAD_SCHEDULED_TASK: Load scheduler "ol15" with entities [LocalPlayer, LocalPlayer], work=[533*, 0*]
     0x01DD [0x1B] RETURN
     0x01DE [0x45] LOAD_SCHEDULED_TASK: Load scheduler "ol20" with entities [LocalPlayer, LocalPlayer], work=[533*, 0*]
     0x01EF [0x1B] RETURN
     0x01F0 [0x45] LOAD_SCHEDULED_TASK: Load scheduler "ol30" with entities [LocalPlayer, LocalPlayer], work=[533*, 0*]
     0x0201 [0x1B] RETURN
     0x0202 [0x45] LOAD_SCHEDULED_TASK: Load scheduler "ovl1" with entities [LocalPlayer, LocalPlayer], work=[200*, 0*]
     0x0213 [0x1B] RETURN
     0x0214 [0x45] LOAD_SCHEDULED_TASK: Load scheduler "ovl2" with entities [LocalPlayer, LocalPlayer], work=[200*, 0*]
     0x0225 [0x1B] RETURN
     0x0226 [0x29] REQ_SET_WAIT(priority=0x10, entity_id=LocalPlayer, tag_num=0x0B)
     0x022D [0x03] Work_Zone[4] = Work_Zone[2]
     0x0232 [0x1B] RETURN
     0x0233 [0x29] REQ_SET_WAIT(priority=0x10, entity_id=LocalPlayer, tag_num=0x0A)
     0x023A [0x03] Work_Zone[7] = Work_Zone[2]
     0x023F [0x1A] CALL_SUBROUTINE(address=0x0226)
     0x0242 [0x02] IF !(Work_Zone[4] == 1*) GOTO 0x0257
     0x024A [0x02] IF !(Work_Zone[7] == 8*) GOTO 0x0257
     0x0252 [0x07] Work_Zone[7] += Work_Zone[4]
     0x0257 [0x29] REQ_SET_WAIT(priority=0x10, entity_id=LocalPlayer, tag_num=0x0A)
     0x025E [0x1B] RETURN
     0x025F [0x3B] GET_ENTITY_POSITION(entity=LocalPlayer, x_destination=Work_Zone[8], y_destination=Work_Zone[7], z_destination=Work_Zone[6])
     0x026A [0xBA] SET_ENTITY_POSITION(entity_id=LocalPlayer, pos_x=Work_Zone[8], pos_z=Work_Zone[7], pos_y=Work_Zone[6], direction=252.8°*)
     0x0277 [0x1B] RETURN
     0x0278 [0xBA] SET_ENTITY_POSITION(entity_id=LocalPlayer, pos_x=0.876*, pos_z=15.868*, pos_y=-0.999*, direction=3.2°*)
     0x0285 [0x1B] RETURN
     0x0286 [0xBA] SET_ENTITY_POSITION(entity_id=LocalPlayer, pos_x=0.118*, pos_z=14.929*, pos_y=-1.000*, direction=114.3°*)
     0x0293 [0x1B] RETURN
     0x0294 [0xBA] SET_ENTITY_POSITION(entity_id=LocalPlayer, pos_x=1.034*, pos_z=15.682*, pos_y=-1.000*, direction=3.2°*)
     0x02A1 [0x1B] RETURN
     0x02A2 [0x4B] UPDATE_ENTITY_YAW(entity=LocalPlayer, yaw=13.7°*)
     0x02A9 [0x1B] RETURN
     0x02AA [0x4B] UPDATE_ENTITY_YAW(entity=LocalPlayer, yaw=8.5°*)
     0x02B1 [0x1B] RETURN
     0x02B2 [0xBA] SET_ENTITY_POSITION(entity_id=LocalPlayer, pos_x=0.268*, pos_z=-20.244*, pos_y=0.250*, direction=264.9°*)
     0x02BF [0x1B] RETURN
     0x02C0 [0x27] REQ_SET(priority=0x10, entity_id=LocalPlayer, tag_num=0x56)
     0x02C7 [0x1B] RETURN
     0x02C8 [0x27] REQ_SET(priority=0x10, entity_id=LocalPlayer, tag_num=0x58)
     0x02CF [0x1B] RETURN
     0x02D0 [0xBA] SET_ENTITY_POSITION(entity_id=LocalPlayer, pos_x=-412.647*, pos_z=352.593*, pos_y=-27.456*, direction=319.2°*)
     0x02DD [0x1B] RETURN
     0x02DE [0xBA] SET_ENTITY_POSITION(entity_id=LocalPlayer, pos_x=10.400*, pos_z=5.171*, pos_y=0.749*, direction=229.7°*)
     0x02EB [0x1B] RETURN
     0x02EC [0x27] REQ_SET(priority=0x10, entity_id=LocalPlayer, tag_num=0x59)
     0x02F3 [0x1B] RETURN
     0x02F4 [0x27] REQ_SET(priority=0x10, entity_id=LocalPlayer, tag_num=0x5A)
     0x02FB [0x1B] RETURN
     0x02FC [0x27] REQ_SET(priority=0x10, entity_id=LocalPlayer, tag_num=0x5B)
     0x0303 [0x1B] RETURN
     0x0304 [0xBA] SET_ENTITY_POSITION(entity_id=LocalPlayer, pos_x=0.268*, pos_z=-20.244*, pos_y=0.250*, direction=264.9°*)
     0x0311 [0x1B] RETURN
     0x0312 [0x27] REQ_SET(priority=0x10, entity_id=LocalPlayer, tag_num=0x5C)
     0x0319 [0x1B] RETURN
     0x031A [0xBA] SET_ENTITY_POSITION(entity_id=LocalPlayer, pos_x=0.121*, pos_z=21.104*, pos_y=0.000*, direction=276.2°*)
     0x0327 [0x1B] RETURN
     0x0328 [0x27] REQ_SET(priority=0x10, entity_id=LocalPlayer, tag_num=0x5D)
     0x032F [0x1B] RETURN
     0x0330 [0xBA] SET_ENTITY_POSITION(entity_id=LocalPlayer, pos_x=-13.410*, pos_z=-26.987*, pos_y=-13.249*, direction=30.0°*)
     0x033D [0x1B] RETURN
     0x033E [0xBA] SET_ENTITY_POSITION(entity_id=LocalPlayer, pos_x=11.026*, pos_z=12.475*, pos_y=-26.249*, direction=342.1°*)
     0x034B [0x1B] RETURN
     0x034C [0xBA] SET_ENTITY_POSITION(entity_id=LocalPlayer, pos_x=16.257*, pos_z=14.076*, pos_y=-26.250*, direction=35.4°*)
     0x0359 [0x1B] RETURN
     0x035A [0xBA] SET_ENTITY_POSITION(entity_id=LocalPlayer, pos_x=17.175*, pos_z=14.290*, pos_y=-26.249*, direction=89.3°*)
     0x0367 [0x1B] RETURN
     0x0368 [0x27] REQ_SET(priority=0x10, entity_id=LocalPlayer, tag_num=0x62)
     0x036F [0x1B] RETURN
     0x0370 [0xBA] SET_ENTITY_POSITION(entity_id=LocalPlayer, pos_x=10.452*, pos_z=14.545*, pos_y=-26.249*, direction=17.9°*)
     0x037D [0x1B] RETURN
     0x037E [0x27] REQ_SET(priority=0x10, entity_id=LocalPlayer, tag_num=0x63)
     0x0385 [0x1B] RETURN
     0x0386 [0xBA] SET_ENTITY_POSITION(entity_id=LocalPlayer, pos_x=10.665*, pos_z=11.384*, pos_y=-26.249*, direction=84.9°*)
     0x0393 [0x1B] RETURN
     0x0394 [0x27] REQ_SET(priority=0x10, entity_id=LocalPlayer, tag_num=0x64)
     0x039B [0x1B] RETURN
     0x039C [0xBA] SET_ENTITY_POSITION(entity_id=LocalPlayer, pos_x=14.394*, pos_z=49.654*, pos_y=-1.999*, direction=178.5°*)
     0x03A9 [0x1B] RETURN
     0x03AA [0x27] REQ_SET(priority=0x10, entity_id=LocalPlayer, tag_num=0x65)
     0x03B1 [0x1B] RETURN
     0x03B2 [0xBA] SET_ENTITY_POSITION(entity_id=LocalPlayer, pos_x=2.817*, pos_z=50.052*, pos_y=-1.000*, direction=182.1°*)
     0x03BF [0x1B] RETURN
     0x03C0 [0xBA] SET_ENTITY_POSITION(entity_id=LocalPlayer, pos_x=-2.179*, pos_z=57.667*, pos_y=-0.999*, direction=236.7°*)
     0x03CD [0x1B] RETURN
     0x03CE [0xBA] SET_ENTITY_POSITION(entity_id=LocalPlayer, pos_x=-7.348*, pos_z=74.886*, pos_y=-1.000*, direction=246.5°*)
     0x03DB [0x1B] RETURN
     0x03DC [0x27] REQ_SET(priority=0x10, entity_id=LocalPlayer, tag_num=0x67)
     0x03E3 [0x1B] RETURN
     0x03E4 [0x27] REQ_SET(priority=0x10, entity_id=LocalPlayer, tag_num=0x68)
     0x03EB [0x1B] RETURN
     0x03EC [0x27] REQ_SET(priority=0x10, entity_id=LocalPlayer, tag_num=0x6B)
     0x03F3 [0x1B] RETURN
     0x03F4 [0x27] REQ_SET(priority=0x10, entity_id=LocalPlayer, tag_num=0x6C)
     0x03FB [0x1B] RETURN
     0x03FC [0x4A] LocalPlayer looks at Ajido-Marujido (ID: 17162758/0x0105E206)
     0x0405 [0x1B] RETURN
     0x0406 [0x4A] LocalPlayer looks at Dhea Prandoleh (ID: 17162751/0x0105E1FF)
     0x040F [0x1B] RETURN
     0x0410 [0x4A] LocalPlayer looks at 1 (ID: 17163004/0x0105E2FC)
     0x0419 [0x1B] RETURN
     0x041A [0x4A] LocalPlayer looks at Lehko Habhoka (ID: 17162806/0x0105E236)
     0x0423 [0x1B] RETURN
     0x0424 [0x4A] LocalPlayer looks at Nhev Befrathi (ID: 17163010/0x0105E302)
     0x042D [0x1B] RETURN
     0x042E [0x4A] LocalPlayer looks at Syu Befrathi (ID: 17163011/0x0105E303)
     0x0437 [0x1B] RETURN
     0x0438 [0x4A] LocalPlayer looks at Perih Vashai (ID: 17162759/0x0105E207)
     0x0441 [0x1B] RETURN
     0x0442 [0x79] LocalPlayer looks at Romaa Mihgo (ID: 17162760/0x0105E208) (Basic look)
     0x044C [0x1B] RETURN
     0x044D [0x4A] LocalPlayer looks at Romaa Mihgo (ID: 17162760/0x0105E208)
     0x0456 [0x1B] RETURN
     0x0457 [0x4A] LocalPlayer looks at Mihl Pakorhma (ID: 17162795/0x0105E22B)
     0x0460 [0x1B] RETURN
     0x0461 [0x27] REQ_SET(priority=0x10, entity_id=LocalPlayer, tag_num=0x6D)
     0x0468 [0x1B] RETURN
     0x0469 [0x27] REQ_SET(priority=0x10, entity_id=LocalPlayer, tag_num=0x6E)
     0x0470 [0x1B] RETURN
     0x0471 [0xBA] SET_ENTITY_POSITION(entity_id=LocalPlayer, pos_x=1.826*, pos_z=16.432*, pos_y=-0.999*, direction=125.6°*)
     0x047E [0x1B] RETURN
     0x047F [0xBA] SET_ENTITY_POSITION(entity_id=LocalPlayer, pos_x=1.865*, pos_z=16.482*, pos_y=-0.999*, direction=125.6°*)
     0x048C [0x1B] RETURN
     0x048D [0x27] REQ_SET(priority=0x10, entity_id=LocalPlayer, tag_num=0x6F)
     0x0494 [0x1B] RETURN
```

### Event 20

#### Metadata

| Field        | Value      |
|--------------|------------|
| Entrypoint   | 0x0495     |
| Data Size    | 3899 bytes |
| Instructions | 502        |

```
      00 01 02 03 04 05 06 07  08 09 0A 0B 0C 0D 0E 0F
      -- -- -- -- -- -- -- --  -- -- -- -- -- -- -- --
0490:                42 1A C2  3A 46 01 38 48 80 7B F0       B..:F.8H.{.
04A0: FF FF 7F 79 00 F0 FF FF  7F F0 FF FF 7F 29 10 11  ...y.........)..
04B0: E3 05 01 01 4E 00 F0 FF  FF 7F 27 10 FF E1 05 01  ....N.....'.....
04C0: 11 2F 00 01 E2 05 01 4E  00 01 E2 05 01 27 10 43  ./.....N.....'.C
04D0: E2 05 01 02 27 10 44 E2  05 01 02 27 10 45 E2 05  ....'.D....'.E..
04E0: 01 02 27 10 46 E2 05 01  02 27 10 1D E2 05 01 06  ..'.F....'......
04F0: 27 10 1E E2 05 01 06 27  10 1F E2 05 01 09 27 10  '......'......'.
0500: 20 E2 05 01 06 27 10 21  E2 05 01 06 27 10 22 E2   ....'.!....'.".
0510: 05 01 06 27 10 23 E2 05  01 06 27 10 24 E2 05 01  ...'.#....'.$...
0520: 05 27 10 25 E2 05 01 05  27 10 26 E2 05 01 05 27  .'.%....'.&....'
0530: 10 27 E2 05 01 05 27 10  28 E2 05 01 05 27 10 93  .'....'.(....'..
0540: E2 05 01 0B 27 10 94 E2  05 01 0C 27 10 95 E2 05  ....'......'....
0550: 01 0B 27 10 FE E2 05 01  02 27 10 FF E2 05 01 02  ..'......'......
0560: 27 10 00 E3 05 01 02 92  01 FF E1 05 01 92 01 43  '..............C
0570: E2 05 01 92 01 44 E2 05  01 92 01 45 E2 05 01 92  .....D.....E....
0580: 01 46 E2 05 01 92 01 1D  E2 05 01 92 01 1E E2 05  .F..............
0590: 01 92 01 20 E2 05 01 92  01 21 E2 05 01 92 01 22  ... .....!....."
05A0: E2 05 01 92 01 23 E2 05  01 92 01 24 E2 05 01 92  .....#.....$....
05B0: 01 25 E2 05 01 92 01 26  E2 05 01 92 01 27 E2 05  .%.....&.....'..
05C0: 01 92 01 28 E2 05 01 92  01 93 E2 05 01 92 01 94  ...(............
05D0: E2 05 01 92 01 95 E2 05  01 92 01 FE E2 05 01 92  ................
05E0: 01 FF E2 05 01 92 01 00  E3 05 01 94 01 F0 FF FF  ................
05F0: 7F 94 01 FF E1 05 01 94  01 01 E2 05 01 94 01 43  ...............C
0600: E2 05 01 94 01 44 E2 05  01 94 01 45 E2 05 01 94  .....D.....E....
0610: 01 46 E2 05 01 94 01 1D  E2 05 01 94 01 1E E2 05  .F..............
0620: 01 94 01 20 E2 05 01 94  01 21 E2 05 01 94 01 22  ... .....!....."
0630: E2 05 01 94 01 23 E2 05  01 94 01 24 E2 05 01 94  .....#.....$....
0640: 01 25 E2 05 01 94 01 26  E2 05 01 94 01 27 E2 05  .%.....&.....'..
0650: 01 94 01 28 E2 05 01 94  01 93 E2 05 01 94 01 94  ...(............
0660: E2 05 01 94 01 95 E2 05  01 94 01 FE E2 05 01 94  ................
0670: 01 FF E2 05 01 94 01 00  E3 05 01 A4 00 A4 00 80  ................
0680: F0 FF FF 7F 80 FF E1 05  01 80 01 E2 05 01 80 43  ...............C
0690: E2 05 01 80 44 E2 05 01  80 45 E2 05 01 80 46 E2  ....D....E....F.
06A0: 05 01 80 1D E2 05 01 80  1E E2 05 01 80 20 E2 05  ............. ..
06B0: 01 80 21 E2 05 01 80 22  E2 05 01 80 23 E2 05 01  ..!...."....#...
06C0: 80 24 E2 05 01 80 25 E2  05 01 80 26 E2 05 01 80  .$....%....&....
06D0: 27 E2 05 01 80 28 E2 05  01 80 93 E2 05 01 80 94  '....(..........
06E0: E2 05 01 80 95 E2 05 01  27 10 FE E2 05 01 08 27  ........'......'
06F0: 10 FF E2 05 01 08 27 10  00 E3 05 01 08 BA F0 FF  ......'.........
0700: FF 7F 0E 80 0F 80 0C 80  09 80 BA FF E1 05 01 49  ...............I
0710: 80 4A 80 0C 80 4B 80 BA  43 E2 05 01 4C 80 4D 80  .J...K..C...L.M.
0720: 0C 80 4E 80 BA 44 E2 05  01 4F 80 4D 80 0C 80 4E  ..N..D...O.M...N
0730: 80 BA 45 E2 05 01 50 80  4D 80 0C 80 4E 80 BA 46  ..E...P.M...N..F
0740: E2 05 01 51 80 4D 80 0C  80 4E 80 BA 01 E2 05 01  ...Q.M...N......
0750: 0E 80 0F 80 0C 80 09 80  BA 1D E2 05 01 52 80 53  .............R.S
0760: 80 54 80 55 80 BA 1E E2  05 01 56 80 57 80 54 80  .T.U......V.W.T.
0770: 58 80 BA 20 E2 05 01 59  80 5A 80 5B 80 5C 80 BA  X.. ...Y.Z.[.\..
0780: 21 E2 05 01 5D 80 5E 80  5F 80 60 80 BA 22 E2 05  !...].^._.`.."..
0790: 01 61 80 62 80 5B 80 63  80 BA 23 E2 05 01 64 80  .a.b.[.c..#...d.
07A0: 65 80 66 80 67 80 BA 24  E2 05 01 68 80 69 80 66  e.f.g..$...h.i.f
07B0: 80 6A 80 BA 25 E2 05 01  6B 80 6C 80 66 80 6D 80  .j..%...k.l.f.m.
07C0: BA 26 E2 05 01 6E 80 6F  80 0C 80 70 80 BA 27 E2  .&...n.o...p..'.
07D0: 05 01 71 80 72 80 73 80  74 80 BA 28 E2 05 01 75  ..q.r.s.t..(...u
07E0: 80 76 80 5B 80 09 80 BA  93 E2 05 01 77 80 78 80  .v.[........w.x.
07F0: 5F 80 79 80 BA 94 E2 05  01 7A 80 7B 80 66 80 7C  _.y......z.{.f.|
0800: 80 BA 95 E2 05 01 7D 80  7E 80 5F 80 7F 80 BA FE  ......}.~._.....
0810: E2 05 01 80 80 81 80 66  80 82 80 BA FF E2 05 01  .......f........
0820: 83 80 84 80 66 80 85 80  BA 00 E3 05 01 86 80 87  ....f...........
0830: 80 66 80 88 80 6E FF E1  05 01 89 80 99 FF E1 05  .f...n..........
0840: 01 1A 06 04 1C 8A 80 45  02 80 F0 FF FF 7F F0 FF  .......E........
0850: FF 7F 79 30 31 30 00 80  1A 24 01 2B FF E1 05 01  ..y010...$.+....
0860: 8B 80 23 29 10 25 E2 05  01 02 52 02 80 F0 FF FF  ..#).%....R.....
0870: 7F F0 FF FF 7F 79 30 31  30 1A 33 02 02 07 10 8C  .....y010.3.....
0880: 80 80 98 08 45 02 80 F0  FF FF 7F F0 FF FF 7F 79  ....E..........y
0890: 30 32 35 00 80 01 A9 08  45 02 80 F0 FF FF 7F F0  025.....E.......
08A0: FF FF 7F 79 30 32 30 00  80 27 10 01 E3 05 01 03  ...y020..'......
08B0: 29 10 27 E2 05 01 02 27  10 27 E2 05 01 10 2B FF  ).'....'.'....+.
08C0: E1 05 01 8D 80 23 27 10  43 E2 05 01 03 27 10 44  .....#'.C....'.D
08D0: E2 05 01 03 27 10 45 E2  05 01 03 27 10 46 E2 05  ....'.E....'.F..
08E0: 01 03 29 10 26 E2 05 01  02 02 07 10 8C 80 80 03  ..).&...........
08F0: 09 52 02 80 F0 FF FF 7F  F0 FF FF 7F 79 30 32 35  .R..........y025
0900: 01 12 09 52 02 80 F0 FF  FF 7F F0 FF FF 7F 79 30  ...R..........y0
0910: 32 30 45 02 80 F0 FF FF  7F F0 FF FF 7F 79 30 33  20E..........y03
0920: 30 00 80 27 10 25 E2 05  01 0E 27 10 26 E2 05 01  0..'.%....'.&...
0930: 0F 66 8E 80 FF E1 05 01  FF E1 05 01 74 6C 6B 30  .f..........tlk0
0940: 2B FF E1 05 01 8F 80 23  66 8E 80 FF E1 05 01 FF  +......#f.......
0950: E1 05 01 74 6C 6B 31 29  10 1D E2 05 01 02 29 10  ...tlk1)......).
0960: 1E E2 05 01 02 52 02 80  F0 FF FF 7F F0 FF FF 7F  .....R..........
0970: 79 30 33 30 45 02 80 F0  FF FF 7F F0 FF FF 7F 79  y030E..........y
0980: 30 34 31 00 80 27 10 FF  E1 05 01 2D 5D 00 80 90  041..'.....-]...
0990: 80 2B FF E1 05 01 91 80  23 1A 5F 02 5C 00 92 80  .+......#._.\...
09A0: 5C 01 92 80 27 10 94 E2  05 01 0D 29 10 20 E2 05  \...'......). ..
09B0: 01 02 29 10 21 E2 05 01  02 29 10 22 E2 05 01 02  ..).!....)."....
09C0: 55 02 80 F0 FF FF 7F F0  FF FF 7F 79 30 34 31 45  U..........y041E
09D0: 02 80 F0 FF FF 7F F0 FF  FF 7F 79 30 34 32 00 80  ..........y042..
09E0: 06 08 10 06 09 10 27 10  11 E3 05 01 11 27 10 28  ......'......'.(
09F0: E2 05 01 06 27 10 FE E2  05 01 03 27 10 FF E2 05  ....'......'....
0A00: 01 03 27 10 00 E3 05 01  03 27 10 1D E2 05 01 0D  ..'......'......
0A10: 27 10 1E E2 05 01 0E 27  10 94 E2 05 01 18 9A 48  '......'.......H
0A20: 93 80 23 1A 01 00 1C 94  80 48 95 80 23 1C 94 80  ..#......H..#...
0A30: 52 02 80 F0 FF FF 7F F0  FF FF 7F 79 30 35 32 7A  R..........y052z
0A40: 00 11 E3 05 01 02 08 10  00 80 00 5E 0A 45 02 80  ...........^.E..
0A50: F0 FF FF 7F F0 FF FF 7F  79 30 35 34 00 80 48 96  ........y054..H.
0A60: 80 23 1C 90 80 52 02 80  F0 FF FF 7F F0 FF FF 7F  .#...R..........
0A70: 79 30 35 34 52 02 80 F0  FF FF 7F F0 FF FF 7F 79  y054R..........y
0A80: 30 35 32 52 02 80 F0 FF  FF 7F F0 FF FF 7F 79 30  052R..........y0
0A90: 34 32 45 02 80 F0 FF FF  7F F0 FF FF 7F 79 30 36  42E..........y06
0AA0: 30 00 80 7E 05 1D E2 05  01 7E 05 1E E2 05 01 7E  0..~.....~.....~
0AB0: 05 20 E2 05 01 7E 05 21  E2 05 01 7E 05 22 E2 05  . ...~.!...~."..
0AC0: 01 7E 05 23 E2 05 01 7E  05 24 E2 05 01 7E 05 25  .~.#...~.$...~.%
0AD0: E2 05 01 7E 05 26 E2 05  01 7E 05 27 E2 05 01 7E  ...~.&...~.'...~
0AE0: 05 28 E2 05 01 7A 00 44  E2 05 01 7A 00 45 E2 05  .(...z.D...z.E..
0AF0: 01 7A 00 46 E2 05 01 7A  00 FE E2 05 01 7A 00 FF  .z.F...z.....z..
0B00: E2 05 01 7A 00 00 E3 05  01 27 10 44 E2 05 01 05  ...z.....'.D....
0B10: 27 10 45 E2 05 01 05 27  10 46 E2 05 01 05 27 10  '.E....'.F....'.
0B20: FE E2 05 01 05 27 10 FF  E2 05 01 05 27 10 00 E3  .....'......'...
0B30: 05 01 05 27 10 1D E2 05  01 09 27 10 1E E2 05 01  ...'......'.....
0B40: 09 27 10 20 E2 05 01 09  27 10 21 E2 05 01 09 27  .'. ....'.!....'
0B50: 10 22 E2 05 01 09 27 10  23 E2 05 01 09 27 10 24  ."....'.#....'.$
0B60: E2 05 01 08 27 10 25 E2  05 01 08 27 10 26 E2 05  ....'.%....'.&..
0B70: 01 08 27 10 27 E2 05 01  08 27 10 28 E2 05 01 08  ..'.'....'.(....
0B80: 27 10 93 E2 05 01 0E 27  10 94 E2 05 01 0F 27 10  '......'......'.
0B90: 95 E2 05 01 0E 27 10 06  E2 05 01 0F 27 10 FC E2  .....'......'...
0BA0: 05 01 04 27 10 FD E2 05  01 04 27 10 43 E2 05 01  ...'......'.C...
0BB0: 02 92 01 06 E2 05 01 92  01 FC E2 05 01 92 01 FD  ................
0BC0: E2 05 01 94 01 06 E2 05  01 94 01 FC E2 05 01 94  ................
0BD0: 01 FD E2 05 01 1C 97 80  2B FF E1 05 01 98 80 23  ........+......#
0BE0: 79 00 F0 FF FF 7F FF E1  05 01 4A FF E1 05 01 F0  y.........J.....
0BF0: FF FF 7F 6F 76 FF E1 05  01 1A 06 04 66 8E 80 FF  ...ov.......f...
0C00: E1 05 01 FF E1 05 01 74  6C 6B 30 2B FF E1 05 01  .......tlk0+....
0C10: 99 80 23 66 8E 80 FF E1  05 01 FF E1 05 01 74 6C  ..#f..........tl
0C20: 6B 31 5D 00 80 9A 80 2B  01 E2 05 01 9B 80 23 80  k1]....+......#.
0C30: 06 E2 05 01 80 FC E2 05  01 80 FD E2 05 01 80 43  ...............C
0C40: E2 05 01 BA 06 E2 05 01  9C 80 9D 80 0C 80 9E 80  ................
0C50: BA FC E2 05 01 9F 80 A0  80 08 80 A1 80 BA FD E2  ................
0C60: 05 01 A2 80 A3 80 0C 80  A4 80 5B A5 80 06 E2 05  ..........[.....
0C70: 01 06 E2 05 01 65 68 6E  30 5C 00 A6 80 5C 01 A6  .....ehn0\...\..
0C80: 80 1A FC 03 4A FF E1 05  01 06 E2 05 01 6F 76 FF  ....J........ov.
0C90: E1 05 01 52 02 80 F0 FF  FF 7F F0 FF FF 7F 79 30  ...R..........y0
0CA0: 36 30 45 02 80 F0 FF FF  7F F0 FF FF 7F 79 30 37  60E..........y07
0CB0: 30 00 80 55 02 80 F0 FF  FF 7F F0 FF FF 7F 79 30  0..U..........y0
0CC0: 37 30 9A 52 02 80 F0 FF  FF 7F F0 FF FF 7F 79 30  70.R..........y0
0CD0: 37 30 1A 33 02 02 02 10  8C 80 80 F1 0C 45 02 80  70.3.........E..
0CE0: F0 FF FF 7F F0 FF FF 7F  79 30 38 35 00 80 01 3A  ........y085...:
0CF0: 0D 02 02 10 04 80 80 0D  0D 45 02 80 F0 FF FF 7F  .........E......
0D00: F0 FF FF 7F 79 30 38 38  00 80 01 3A 0D 02 02 10  ....y088...:....
0D10: A7 80 80 29 0D 45 02 80  F0 FF FF 7F F0 FF FF 7F  ...).E..........
0D20: 79 30 38 33 00 80 01 3A  0D 45 02 80 F0 FF FF 7F  y083...:.E......
0D30: FF E1 05 01 79 30 38 30  00 80 6E FF E1 05 01 A8  ....y080..n.....
0D40: 80 99 FF E1 05 01 5B A5  80 06 E2 05 01 06 E2 05  ......[.........
0D50: 01 65 68 6E 31 79 00 06  E2 05 01 FF E1 05 01 1A  .ehn1y..........
0D60: 81 13 5B A9 80 FD E2 05  01 FD E2 05 01 73 64 77  ..[..........sdw
0D70: 30 2B FF E1 05 01 AA 80  23 6F 76 FD E2 05 01 7B  0+......#ov....{
0D80: FD E2 05 01 1A 33 02 02  02 10 8C 80 80 A1 0D 52  .....3.........R
0D90: 02 80 F0 FF FF 7F F0 FF  FF 7F 79 30 38 35 01 E4  ..........y085..
0DA0: 0D 02 02 10 04 80 80 BB  0D 52 02 80 F0 FF FF 7F  .........R......
0DB0: F0 FF FF 7F 79 30 38 38  01 E4 0D 02 02 10 A7 80  ....y088........
0DC0: 80 D5 0D 52 02 80 F0 FF  FF 7F F0 FF FF 7F 79 30  ...R..........y0
0DD0: 38 33 01 E4 0D 52 02 80  F0 FF FF 7F FF E1 05 01  83...R..........
0DE0: 79 30 38 30 45 02 80 F0  FF FF 7F F0 FF FF 7F 79  y080E..........y
0DF0: 30 39 30 00 80 59 02 AB  80 27 10 06 E2 05 01 2D  090..Y...'.....-
0E00: BA FF E1 05 01 AC 80 AD  80 0C 80 AE 80 1A 86 02  ................
0E10: 4A FF E1 05 01 06 E2 05  01 1A FC 03 2B 06 E2 05  J...........+...
0E20: 01 AF 80 23 5B B0 80 FC  E2 05 01 FC E2 05 01 63  ...#[..........c
0E30: 61 62 6B BB B1 80 FC E2  05 01 FC E2 05 01 65 69  abk...........ei
0E40: 62 6B 00 80 52 02 80 F0  FF FF 7F FF E1 05 01 79  bk..R..........y
0E50: 30 39 30 45 02 80 F0 FF  FF 7F F0 FF FF 7F 79 30  090E..........y0
0E60: 39 35 00 80 2B 06 E2 05  01 B2 80 23 5D 00 80 9A  95..+......#]...
0E70: 80 5C 00 B3 80 5C 01 B3  80 9A B0 00 01 E2 05 01  .\...\..........
0E80: 43 E2 05 01 B4 80 23 BA  43 E2 05 01 B5 80 B6 80  C.....#.C.......
0E90: B7 80 B8 80 27 10 43 E2  05 01 03 27 10 43 E2 05  ....'.C....'.C..
0EA0: 01 1C 52 02 80 F0 FF FF  7F F0 FF FF 7F 79 30 39  ..R..........y09
0EB0: 35 45 02 80 F0 FF FF 7F  F0 FF FF 7F 79 31 30 30  5E..........y100
0EC0: 00 80 27 10 06 E2 05 01  2F 1C B9 80 1A 94 02 1A  ..'...../.......
0ED0: FC 03 BA FF E1 05 01 49  80 4A 80 0C 80 4B 80 BA  .......I.J...K..
0EE0: FC E2 05 01 BA 80 BB 80  08 80 BC 80 4A FF E1 05  ............J...
0EF0: 01 06 E2 05 01 79 00 F0  FF FF 7F 43 E2 05 01 79  .....y.....C...y
0F00: 00 FF E1 05 01 43 E2 05  01 55 02 80 F0 FF FF 7F  .....C...U......
0F10: F0 FF FF 7F 79 31 30 30  52 02 80 F0 FF FF 7F F0  ....y100R.......
0F20: FF FF 7F 79 31 30 30 45  02 80 F0 FF FF 7F F0 FF  ...y100E........
0F30: FF 7F 79 31 31 30 00 80  1A BA 01 1C B9 80 4A FC  ..y110........J.
0F40: E2 05 01 43 E2 05 01 4A  FD E2 05 01 43 E2 05 01  ...C...J....C...
0F50: 5B BD 80 43 E2 05 01 43  E2 05 01 79 62 69 30 B0  [..C...C...ybi0.
0F60: 00 01 E2 05 01 43 E2 05  01 BE 80 23 55 02 80 F0  .....C.....#U...
0F70: FF FF 7F F0 FF FF 7F 79  31 31 30 52 02 80 F0 FF  .......y110R....
0F80: FF 7F F0 FF FF 7F 79 31  31 30 27 10 43 E2 05 01  ......y110'.C...
0F90: 1E 1C 8A 80 45 02 80 F0  FF FF 7F F0 FF FF 7F 79  ....E..........y
0FA0: 31 31 31 00 80 6B 69 64  6C 30 FC E2 05 01 6B 69  111..kidl0....ki
0FB0: 64 6C 30 FD E2 05 01 55  02 80 F0 FF FF 7F F0 FF  dl0....U........
0FC0: FF 7F 79 31 31 31 52 02  80 F0 FF FF 7F F0 FF FF  ..y111R.........
0FD0: 7F 79 31 31 31 45 02 80  F0 FF FF 7F F0 FF FF 7F  .y111E..........
0FE0: 79 31 31 32 00 80 7A 00  43 E2 05 01 6C 43 E2 05  y112..z.C...lC..
0FF0: 01 00 80 01 80 5B BF 80  FD E2 05 01 FD E2 05 01  .....[..........
1000: 62 69 6B 30 BB B1 80 FC  E2 05 01 FC E2 05 01 73  bik0...........s
1010: 74 62 6B 00 80 5B C0 80  FC E2 05 01 FC E2 05 01  tbk..[..........
1020: 73 75 72 31 27 10 06 E2  05 01 31 79 00 F0 FF FF  sur1'.....1y....
1030: 7F 06 E2 05 01 79 00 FF  E1 05 01 06 E2 05 01 55  .....y.........U
1040: 02 80 F0 FF FF 7F F0 FF  FF 7F 79 31 31 32 7A 00  ..........y112z.
1050: 06 E2 05 01 BA 06 E2 05  01 C1 80 C2 80 0C 80 C3  ................
1060: 80 27 10 06 E2 05 01 33  52 02 80 F0 FF FF 7F F0  .'.....3R.......
1070: FF FF 7F 79 31 31 32 45  02 80 F0 FF FF 7F F0 FF  ...y112E........
1080: FF 7F 79 31 32 31 00 80  1A BA 01 1C C4 80 7B F0  ..y121........{.
1090: FF FF 7F 7B FF E1 05 01  BA 43 E2 05 01 C5 80 C6  ...{.....C......
10A0: 80 0C 80 C7 80 BA FC E2  05 01 BA 80 BB 80 08 80  ................
10B0: C8 80 BA FD E2 05 01 C9  80 CA 80 08 80 CB 80 79  ...............y
10C0: 00 F0 FF FF 7F 06 E2 05  01 1A A2 02 4B FF E1 05  ............K...
10D0: 01 10 80 5B C0 80 FC E2  05 01 FC E2 05 01 70 61  ...[..........pa
10E0: 6E 30 5B CC 80 FD E2 05  01 FD E2 05 01 61 77 77  n0[..........aww
10F0: 30 1C A8 80 6E F0 FF FF  7F CD 80 99 F0 FF FF 7F  0...n...........
1100: 1C 97 80 2B 06 E2 05 01  CE 80 23 55 02 80 F0 FF  ...+......#U....
1110: FF 7F F0 FF FF 7F 79 31  33 30 55 02 80 F0 FF FF  ......y130U.....
1120: 7F F0 FF FF 7F 79 31 32  31 6C 06 E2 05 01 CF 80  .....y121l......
1130: 01 80 52 02 80 F0 FF FF  7F F0 FF FF 7F 79 31 32  ..R..........y12
1140: 31 52 02 80 F0 FF FF 7F  F0 FF FF 7F 79 31 33 30  1R..........y130
1150: 45 02 80 F0 FF FF 7F F0  FF FF 7F 79 31 34 30 00  E..........y140.
1160: 80 1A BA 01 1C D0 80 2B  06 E2 05 01 D1 80 23 1C  .......+......#.
1170: 97 80 55 02 80 F0 FF FF  7F F0 FF FF 7F 79 31 34  ..U..........y14
1180: 30 52 02 80 F0 FF FF 7F  F0 FF FF 7F 79 31 34 30  0R..........y140
1190: 45 02 80 F0 FF FF 7F F0  FF FF 7F 79 31 34 36 00  E..........y146.
11A0: 80 27 10 11 E3 05 01 18  4B FF E1 05 01 4B 80 1C  .'......K....K..
11B0: 97 80 2B 06 E2 05 01 D2  80 23 1C 97 80 55 02 80  ..+......#...U..
11C0: F0 FF FF 7F F0 FF FF 7F  79 31 34 36 1A 9F 13 52  ........y146...R
11D0: 02 80 F0 FF FF 7F F0 FF  FF 7F 79 31 34 36 45 02  ..........y146E.
11E0: 80 F0 FF FF 7F F0 FF FF  7F 79 31 35 30 00 80 5B  .........y150..[
11F0: D3 80 43 E2 05 01 43 E2  05 01 61 6A 69 30 5B D4  ..C...C...aji0[.
1200: 80 06 E2 05 01 06 E2 05  01 61 6A 69 30 1A BA 01  .........aji0...
1210: 55 02 80 F0 FF FF 7F F0  FF FF 7F 79 31 35 30 1C  U..........y150.
1220: 89 80 52 02 80 F0 FF FF  7F F0 FF FF 7F 79 31 35  ..R..........y15
1230: 30 45 02 80 F0 FF FF 7F  F0 FF FF 7F 79 31 35 35  0E..........y155
1240: 00 80 1C 9A 80 79 00 FF  E1 05 01 06 E2 05 01 1C  .....y..........
1250: 8A 80 1A AA 02 1C D5 80  4B FC E2 05 01 D6 80 4B  ........K......K
1260: FD E2 05 01 D6 80 6F 76  FC E2 05 01 6F 76 FD E2  ......ov....ov..
1270: 05 01 5B C0 80 FC E2 05  01 FC E2 05 01 70 61 6E  ..[..........pan
1280: 30 5B CC 80 FD E2 05 01  FD E2 05 01 61 77 77 30  0[..........aww0
1290: 55 02 80 F0 FF FF 7F F0  FF FF 7F 79 31 35 35 5C  U..........y155\
12A0: 00 D7 80 5C 01 D7 80 52  02 80 F0 FF FF 7F F0 FF  ...\...R........
12B0: FF 7F 79 31 35 35 45 02  80 F0 FF FF 7F F0 FF FF  ..y155E.........
12C0: 7F 79 31 36 30 00 80 1C  94 80 27 10 FC E2 05 01  .y160.....'.....
12D0: 1F 1C 97 80 27 10 FD E2  05 01 1F 1C 90 80 2B FF  ....'.........+.
12E0: E1 05 01 D8 80 23 4A FF  E1 05 01 F0 FF FF 7F 1C  .....#J.........
12F0: 97 80 1A 06 04 52 02 80  F0 FF FF 7F F0 FF FF 7F  .....R..........
1300: 79 31 36 30 45 02 80 F0  FF FF 7F F0 FF FF 7F 79  y160E..........y
1310: 31 37 30 00 80 66 8E 80  FF E1 05 01 FF E1 05 01  170..f..........
1320: 74 6C 6B 30 2B FF E1 05  01 D9 80 23 66 8E 80 FF  tlk0+......#f...
1330: E1 05 01 FF E1 05 01 74  6C 6B 31 1C 97 80 1A 45  .......tlk1....E
1340: 01 69 01 DA 80 1C 97 80  52 02 80 F0 FF FF 7F F0  .i......R.......
1350: FF FF 7F 79 31 37 30 29  10 11 E3 05 01 02 1C 97  ...y170)........
1360: 80 AB 11 00 80 1C 01 80  69 00 DA 80 46 00 45 03  ........i...F.E.
1370: 80 F0 FF FF 7F F0 FF FF  7F 66 64 69 32 00 80 21  .........fdi2..!
1380: 00 03 08 10 D5 80 14 08  10 DB 80 3A FD E2 05 01  ...........:....
1390: 07 10 07 07 10 08 10 4B  FD E2 05 01 07 10 1B 3B  .......K.......;
13A0: 06 E2 05 01 08 10 07 10  06 10 BA 06 E2 05 01 08  ................
13B0: 10 07 10 06 10 DC 80 3B  43 E2 05 01 08 10 07 10  .......;C.......
13C0: 06 10 BA 43 E2 05 01 08  10 07 10 06 10 DC 80 1B  ...C............
```

#### Opcodes

```
  0: 0x0495 [0x42] SET_CLI_EVENT_CANCEL_DATA()
  1: 0x0496 [0x1A] CALL_SUBROUTINE(address=0x3AC2)
  2: 0x0499 [0x46] CAMERA_CONTROL: Disable user control
  3: 0x049B [0x38] SET_CLIENT_EVENT_MODE(mode=19*)
  4: 0x049E [0x7B] LocalPlayer stops talking
  5: 0x04A3 [0x79] LocalPlayer looks at LocalPlayer (Basic look)
  6: 0x04AD [0x29] REQ_SET_WAIT(priority=0x10, entity_id=Unnamed NPC (ID: 17163025/0x0105E311), tag_num=0x01)
  7: 0x04B4 [0x4E] SET_ENTITY_HIDE_FLAG: Show LocalPlayer
  8: 0x04BA [0x27] REQ_SET(priority=0x10, entity_id=Dhea Prandoleh (ID: 17162751/0x0105E1FF), tag_num=0x11)
  9: 0x04C1 [0x2F] ??? (ID: 17162753/0x0105E201)->Render.Flags0 &= ~0x80000 // Bit 19
 10: 0x04C7 [0x4E] SET_ENTITY_HIDE_FLAG: Show ??? (ID: 17162753/0x0105E201)
 11: 0x04CD [0x27] REQ_SET(priority=0x10, entity_id=01 (ID: 17162819/0x0105E243), tag_num=0x02)
 12: 0x04D4 [0x27] REQ_SET(priority=0x10, entity_id=02 (ID: 17162820/0x0105E244), tag_num=0x02)
 13: 0x04DB [0x27] REQ_SET(priority=0x10, entity_id=03 (ID: 17162821/0x0105E245), tag_num=0x02)
 14: 0x04E2 [0x27] REQ_SET(priority=0x10, entity_id=04 (ID: 17162822/0x0105E246), tag_num=0x02)
 15: 0x04E9 [0x27] REQ_SET(priority=0x10, entity_id=01 (ID: 17162781/0x0105E21D), tag_num=0x06)
 16: 0x04F0 [0x27] REQ_SET(priority=0x10, entity_id=02 (ID: 17162782/0x0105E21E), tag_num=0x06)
 17: 0x04F7 [0x27] REQ_SET(priority=0x10, entity_id=03 (ID: 17162783/0x0105E21F), tag_num=0x09)
 18: 0x04FE [0x27] REQ_SET(priority=0x10, entity_id=04 (ID: 17162784/0x0105E220), tag_num=0x06)
 19: 0x0505 [0x27] REQ_SET(priority=0x10, entity_id=05 (ID: 17162785/0x0105E221), tag_num=0x06)
 20: 0x050C [0x27] REQ_SET(priority=0x10, entity_id=06 (ID: 17162786/0x0105E222), tag_num=0x06)
 21: 0x0513 [0x27] REQ_SET(priority=0x10, entity_id=07 (ID: 17162787/0x0105E223), tag_num=0x06)
 22: 0x051A [0x27] REQ_SET(priority=0x10, entity_id=Unnamed NPC (ID: 17162788/0x0105E224), tag_num=0x05)
 23: 0x0521 [0x27] REQ_SET(priority=0x10, entity_id=Unnamed NPC (ID: 17162789/0x0105E225), tag_num=0x05)
 24: 0x0528 [0x27] REQ_SET(priority=0x10, entity_id=Unnamed NPC (ID: 17162790/0x0105E226), tag_num=0x05)
 25: 0x052F [0x27] REQ_SET(priority=0x10, entity_id=Unnamed NPC (ID: 17162791/0x0105E227), tag_num=0x05)
 26: 0x0536 [0x27] REQ_SET(priority=0x10, entity_id=Unnamed NPC (ID: 17162792/0x0105E228), tag_num=0x05)
 27: 0x053D [0x27] REQ_SET(priority=0x10, entity_id=01 (ID: 17162899/0x0105E293), tag_num=0x0B)
 28: 0x0544 [0x27] REQ_SET(priority=0x10, entity_id=02 (ID: 17162900/0x0105E294), tag_num=0x0C)
 29: 0x054B [0x27] REQ_SET(priority=0x10, entity_id=02 (ID: 17162901/0x0105E295), tag_num=0x0B)
 30: 0x0552 [0x27] REQ_SET(priority=0x10, entity_id=01 (ID: 17163006/0x0105E2FE), tag_num=0x02)
 31: 0x0559 [0x27] REQ_SET(priority=0x10, entity_id=02 (ID: 17163007/0x0105E2FF), tag_num=0x02)
 32: 0x0560 [0x27] REQ_SET(priority=0x10, entity_id=03 (ID: 17163008/0x0105E300), tag_num=0x02)
 33: 0x0567 [0x92] Dhea Prandoleh (ID: 17162751/0x0105E1FF)->Render.Flags3 ^= 0x01
 34: 0x056D [0x92] 01 (ID: 17162819/0x0105E243)->Render.Flags3 ^= 0x01
 35: 0x0573 [0x92] 02 (ID: 17162820/0x0105E244)->Render.Flags3 ^= 0x01
 36: 0x0579 [0x92] 03 (ID: 17162821/0x0105E245)->Render.Flags3 ^= 0x01
 37: 0x057F [0x92] 04 (ID: 17162822/0x0105E246)->Render.Flags3 ^= 0x01
 38: 0x0585 [0x92] 01 (ID: 17162781/0x0105E21D)->Render.Flags3 ^= 0x01
 39: 0x058B [0x92] 02 (ID: 17162782/0x0105E21E)->Render.Flags3 ^= 0x01
 40: 0x0591 [0x92] 04 (ID: 17162784/0x0105E220)->Render.Flags3 ^= 0x01
 41: 0x0597 [0x92] 05 (ID: 17162785/0x0105E221)->Render.Flags3 ^= 0x01
 42: 0x059D [0x92] 06 (ID: 17162786/0x0105E222)->Render.Flags3 ^= 0x01
 43: 0x05A3 [0x92] 07 (ID: 17162787/0x0105E223)->Render.Flags3 ^= 0x01
 44: 0x05A9 [0x92] Unnamed NPC (ID: 17162788/0x0105E224)->Render.Flags3 ^= 0x01
 45: 0x05AF [0x92] Unnamed NPC (ID: 17162789/0x0105E225)->Render.Flags3 ^= 0x01
 46: 0x05B5 [0x92] Unnamed NPC (ID: 17162790/0x0105E226)->Render.Flags3 ^= 0x01
 47: 0x05BB [0x92] Unnamed NPC (ID: 17162791/0x0105E227)->Render.Flags3 ^= 0x01
 48: 0x05C1 [0x92] Unnamed NPC (ID: 17162792/0x0105E228)->Render.Flags3 ^= 0x01
 49: 0x05C7 [0x92] 01 (ID: 17162899/0x0105E293)->Render.Flags3 ^= 0x01
 50: 0x05CD [0x92] 02 (ID: 17162900/0x0105E294)->Render.Flags3 ^= 0x01
 51: 0x05D3 [0x92] 02 (ID: 17162901/0x0105E295)->Render.Flags3 ^= 0x01
 52: 0x05D9 [0x92] 01 (ID: 17163006/0x0105E2FE)->Render.Flags3 ^= 0x01
 53: 0x05DF [0x92] 02 (ID: 17163007/0x0105E2FF)->Render.Flags3 ^= 0x01
 54: 0x05E5 [0x92] 03 (ID: 17163008/0x0105E300)->Render.Flags3 ^= 0x01
 55: 0x05EB [0x94] LocalPlayer->Render.Flags3 ^= 0x01
 56: 0x05F1 [0x94] Dhea Prandoleh (ID: 17162751/0x0105E1FF)->Render.Flags3 ^= 0x01
 57: 0x05F7 [0x94] ??? (ID: 17162753/0x0105E201)->Render.Flags3 ^= 0x01
 58: 0x05FD [0x94] 01 (ID: 17162819/0x0105E243)->Render.Flags3 ^= 0x01
 59: 0x0603 [0x94] 02 (ID: 17162820/0x0105E244)->Render.Flags3 ^= 0x01
 60: 0x0609 [0x94] 03 (ID: 17162821/0x0105E245)->Render.Flags3 ^= 0x01
 61: 0x060F [0x94] 04 (ID: 17162822/0x0105E246)->Render.Flags3 ^= 0x01
 62: 0x0615 [0x94] 01 (ID: 17162781/0x0105E21D)->Render.Flags3 ^= 0x01
 63: 0x061B [0x94] 02 (ID: 17162782/0x0105E21E)->Render.Flags3 ^= 0x01
 64: 0x0621 [0x94] 04 (ID: 17162784/0x0105E220)->Render.Flags3 ^= 0x01
 65: 0x0627 [0x94] 05 (ID: 17162785/0x0105E221)->Render.Flags3 ^= 0x01
 66: 0x062D [0x94] 06 (ID: 17162786/0x0105E222)->Render.Flags3 ^= 0x01
 67: 0x0633 [0x94] 07 (ID: 17162787/0x0105E223)->Render.Flags3 ^= 0x01
 68: 0x0639 [0x94] Unnamed NPC (ID: 17162788/0x0105E224)->Render.Flags3 ^= 0x01
 69: 0x063F [0x94] Unnamed NPC (ID: 17162789/0x0105E225)->Render.Flags3 ^= 0x01
 70: 0x0645 [0x94] Unnamed NPC (ID: 17162790/0x0105E226)->Render.Flags3 ^= 0x01
 71: 0x064B [0x94] Unnamed NPC (ID: 17162791/0x0105E227)->Render.Flags3 ^= 0x01
 72: 0x0651 [0x94] Unnamed NPC (ID: 17162792/0x0105E228)->Render.Flags3 ^= 0x01
 73: 0x0657 [0x94] 01 (ID: 17162899/0x0105E293)->Render.Flags3 ^= 0x01
 74: 0x065D [0x94] 02 (ID: 17162900/0x0105E294)->Render.Flags3 ^= 0x01
 75: 0x0663 [0x94] 02 (ID: 17162901/0x0105E295)->Render.Flags3 ^= 0x01
 76: 0x0669 [0x94] 01 (ID: 17163006/0x0105E2FE)->Render.Flags3 ^= 0x01
 77: 0x066F [0x94] 02 (ID: 17163007/0x0105E2FF)->Render.Flags3 ^= 0x01
 78: 0x0675 [0x94] 03 (ID: 17163008/0x0105E300)->Render.Flags3 ^= 0x01
 79: 0x067B [0xA4] EventEntity->Flags3.unknown_3_2 = 0
 80: 0x067D [0xA4] EventEntity->Flags3.unknown_3_2 = 0
 81: 0x067F [0x80] LOAD_WAIT(entity=LocalPlayer)
 82: 0x0684 [0x80] LOAD_WAIT(entity=Dhea Prandoleh (ID: 17162751/0x0105E1FF))
 83: 0x0689 [0x80] LOAD_WAIT(entity=??? (ID: 17162753/0x0105E201))
 84: 0x068E [0x80] LOAD_WAIT(entity=01 (ID: 17162819/0x0105E243))
 85: 0x0693 [0x80] LOAD_WAIT(entity=02 (ID: 17162820/0x0105E244))
 86: 0x0698 [0x80] LOAD_WAIT(entity=03 (ID: 17162821/0x0105E245))
 87: 0x069D [0x80] LOAD_WAIT(entity=04 (ID: 17162822/0x0105E246))
 88: 0x06A2 [0x80] LOAD_WAIT(entity=01 (ID: 17162781/0x0105E21D))
 89: 0x06A7 [0x80] LOAD_WAIT(entity=02 (ID: 17162782/0x0105E21E))
 90: 0x06AC [0x80] LOAD_WAIT(entity=04 (ID: 17162784/0x0105E220))
 91: 0x06B1 [0x80] LOAD_WAIT(entity=05 (ID: 17162785/0x0105E221))
 92: 0x06B6 [0x80] LOAD_WAIT(entity=06 (ID: 17162786/0x0105E222))
 93: 0x06BB [0x80] LOAD_WAIT(entity=07 (ID: 17162787/0x0105E223))
 94: 0x06C0 [0x80] LOAD_WAIT(entity=Unnamed NPC (ID: 17162788/0x0105E224))
 95: 0x06C5 [0x80] LOAD_WAIT(entity=Unnamed NPC (ID: 17162789/0x0105E225))
 96: 0x06CA [0x80] LOAD_WAIT(entity=Unnamed NPC (ID: 17162790/0x0105E226))
 97: 0x06CF [0x80] LOAD_WAIT(entity=Unnamed NPC (ID: 17162791/0x0105E227))
 98: 0x06D4 [0x80] LOAD_WAIT(entity=Unnamed NPC (ID: 17162792/0x0105E228))
 99: 0x06D9 [0x80] LOAD_WAIT(entity=01 (ID: 17162899/0x0105E293))
100: 0x06DE [0x80] LOAD_WAIT(entity=02 (ID: 17162900/0x0105E294))
101: 0x06E3 [0x80] LOAD_WAIT(entity=02 (ID: 17162901/0x0105E295))
102: 0x06E8 [0x27] REQ_SET(priority=0x10, entity_id=01 (ID: 17163006/0x0105E2FE), tag_num=0x08)
103: 0x06EF [0x27] REQ_SET(priority=0x10, entity_id=02 (ID: 17163007/0x0105E2FF), tag_num=0x08)
104: 0x06F6 [0x27] REQ_SET(priority=0x10, entity_id=03 (ID: 17163008/0x0105E300), tag_num=0x08)
105: 0x06FD [0xBA] SET_ENTITY_POSITION(entity_id=LocalPlayer, pos_x=1.034*, pos_z=15.682*, pos_y=-1.000*, direction=3.2°*)
106: 0x070A [0xBA] SET_ENTITY_POSITION(entity_id=Dhea Prandoleh (ID: 17162751/0x0105E1FF), pos_x=3.167*, pos_z=15.545*, pos_y=-1.000*, direction=188.4°*)
107: 0x0717 [0xBA] SET_ENTITY_POSITION(entity_id=01 (ID: 17162819/0x0105E243), pos_x=-0.500*, pos_z=74.772*, pos_y=-1.000*, direction=87.9°*)
108: 0x0724 [0xBA] SET_ENTITY_POSITION(entity_id=02 (ID: 17162820/0x0105E244), pos_x=-2.500*, pos_z=74.772*, pos_y=-1.000*, direction=87.9°*)
109: 0x0731 [0xBA] SET_ENTITY_POSITION(entity_id=03 (ID: 17162821/0x0105E245), pos_x=-4.500*, pos_z=74.772*, pos_y=-1.000*, direction=87.9°*)
110: 0x073E [0xBA] SET_ENTITY_POSITION(entity_id=04 (ID: 17162822/0x0105E246), pos_x=-6.500*, pos_z=74.772*, pos_y=-1.000*, direction=87.9°*)
111: 0x074B [0xBA] SET_ENTITY_POSITION(entity_id=??? (ID: 17162753/0x0105E201), pos_x=1.034*, pos_z=15.682*, pos_y=-1.000*, direction=3.2°*)
112: 0x0758 [0xBA] SET_ENTITY_POSITION(entity_id=01 (ID: 17162781/0x0105E21D), pos_x=16.360*, pos_z=48.577*, pos_y=-2.000*, direction=177.0°*)
113: 0x0765 [0xBA] SET_ENTITY_POSITION(entity_id=02 (ID: 17162782/0x0105E21E), pos_x=14.162*, pos_z=51.565*, pos_y=-2.000*, direction=185.6°*)
114: 0x0772 [0xBA] SET_ENTITY_POSITION(entity_id=04 (ID: 17162784/0x0105E220), pos_x=-35.493*, pos_z=64.401*, pos_y=-3.500*, direction=246.1°*)
115: 0x077F [0xBA] SET_ENTITY_POSITION(entity_id=05 (ID: 17162785/0x0105E221), pos_x=-34.931*, pos_z=66.878*, pos_y=-3.499*, direction=181.7°*)
116: 0x078C [0xBA] SET_ENTITY_POSITION(entity_id=06 (ID: 17162786/0x0105E222), pos_x=-33.997*, pos_z=64.959*, pos_y=-3.500*, direction=207.3°*)
117: 0x0799 [0xBA] SET_ENTITY_POSITION(entity_id=07 (ID: 17162787/0x0105E223), pos_x=-45.609*, pos_z=94.136*, pos_y=-4.999*, direction=358.0°*)
118: 0x07A6 [0xBA] SET_ENTITY_POSITION(entity_id=Unnamed NPC (ID: 17162788/0x0105E224), pos_x=-45.910*, pos_z=91.177*, pos_y=-4.999*, direction=3.1°*)
119: 0x07B3 [0xBA] SET_ENTITY_POSITION(entity_id=Unnamed NPC (ID: 17162789/0x0105E225), pos_x=-3.226*, pos_z=88.727*, pos_y=-4.999*, direction=174.0°*)
120: 0x07C0 [0xBA] SET_ENTITY_POSITION(entity_id=Unnamed NPC (ID: 17162790/0x0105E226), pos_x=-7.364*, pos_z=10.457*, pos_y=-1.000*, direction=278.6°*)
121: 0x07CD [0xBA] SET_ENTITY_POSITION(entity_id=Unnamed NPC (ID: 17162791/0x0105E227), pos_x=-6.984*, pos_z=7.323*, pos_y=-1.089*, direction=301.7°*)
122: 0x07DA [0xBA] SET_ENTITY_POSITION(entity_id=Unnamed NPC (ID: 17162792/0x0105E228), pos_x=-36.617*, pos_z=66.144*, pos_y=-3.500*, direction=3.2°*)
123: 0x07E7 [0xBA] SET_ENTITY_POSITION(entity_id=01 (ID: 17162899/0x0105E293), pos_x=-38.361*, pos_z=63.619*, pos_y=-3.499*, direction=265.2°*)
124: 0x07F4 [0xBA] SET_ENTITY_POSITION(entity_id=02 (ID: 17162900/0x0105E294), pos_x=-22.586*, pos_z=85.752*, pos_y=-4.999*, direction=107.5°*)
125: 0x0801 [0xBA] SET_ENTITY_POSITION(entity_id=02 (ID: 17162901/0x0105E295), pos_x=-39.236*, pos_z=63.907*, pos_y=-3.499*, direction=272.2°*)
126: 0x080E [0xBA] SET_ENTITY_POSITION(entity_id=01 (ID: 17163006/0x0105E2FE), pos_x=-21.410*, pos_z=82.130*, pos_y=-4.999*, direction=182.8°*)
127: 0x081B [0xBA] SET_ENTITY_POSITION(entity_id=02 (ID: 17163007/0x0105E2FF), pos_x=-20.197*, pos_z=83.733*, pos_y=-4.999*, direction=148.4°*)
128: 0x0828 [0xBA] SET_ENTITY_POSITION(entity_id=03 (ID: 17163008/0x0105E300), pos_x=-19.869*, pos_z=86.197*, pos_y=-4.999*, direction=148.1°*)
129: 0x0835 [0x6E] Dhea Prandoleh (ID: 17162751/0x0105E1FF) uses emote 10*
130: 0x083C [0x99] Wait for Dhea Prandoleh (ID: 17162751/0x0105E1FF) animation to complete
131: 0x0841 [0x1A] CALL_SUBROUTINE(address=0x0406)
132: 0x0844 [0x1C] WAIT(15* ticks)
133: 0x0847 [0x45] LOAD_SCHEDULED_TASK: Load scheduler "y010" with entities [LocalPlayer, LocalPlayer], work=[533*, 0*]
134: 0x0858 [0x1A] CALL_SUBROUTINE(address=0x0124)
135: 0x085B [0x2B] Dhea Prandoleh (ID: 17162751/0x0105E1FF) [13558*]:
    → "Oh, <Player>, there you are!"
136: 0x0862 [0x23] WAIT_FOR_DIALOG_INTERACTION
137: 0x0863 [0x29] REQ_SET_WAIT(priority=0x10, entity_id=Unnamed NPC (ID: 17162789/0x0105E225), tag_num=0x02)
138: 0x086A [0x52] END_LOAD_SCHEDULER: End scheduler "y010" with entities [LocalPlayer, LocalPlayer], work=533*
139: 0x0879 [0x1A] CALL_SUBROUTINE(address=0x0233)
140: 0x087C [0x02] IF !(Work_Zone[7] == 6*) GOTO 0x0898
141: 0x0884 [0x45] LOAD_SCHEDULED_TASK: Load scheduler "y025" with entities [LocalPlayer, LocalPlayer], work=[533*, 0*]
142: 0x0895 [0x01] GOTO 0x08A9
143: 0x0898 [0x45] LOAD_SCHEDULED_TASK: Load scheduler "y020" with entities [LocalPlayer, LocalPlayer], work=[533*, 0*]

SUBROUTINE_08A9:
144: 0x08A9 [0x27] REQ_SET(priority=0x10, entity_id=04 (ID: 17163009/0x0105E301), tag_num=0x03)
145: 0x08B0 [0x29] REQ_SET_WAIT(priority=0x10, entity_id=Unnamed NPC (ID: 17162791/0x0105E227), tag_num=0x02)
146: 0x08B7 [0x27] REQ_SET(priority=0x10, entity_id=Unnamed NPC (ID: 17162791/0x0105E227), tag_num=0x10)
147: 0x08BE [0x2B] Dhea Prandoleh (ID: 17162751/0x0105E1FF) [13559*]:
    → "...And not a moment too soon. Master Lehko has been searrrching all over for you!"
148: 0x08C5 [0x23] WAIT_FOR_DIALOG_INTERACTION
149: 0x08C6 [0x27] REQ_SET(priority=0x10, entity_id=01 (ID: 17162819/0x0105E243), tag_num=0x03)
150: 0x08CD [0x27] REQ_SET(priority=0x10, entity_id=02 (ID: 17162820/0x0105E244), tag_num=0x03)
151: 0x08D4 [0x27] REQ_SET(priority=0x10, entity_id=03 (ID: 17162821/0x0105E245), tag_num=0x03)
152: 0x08DB [0x27] REQ_SET(priority=0x10, entity_id=04 (ID: 17162822/0x0105E246), tag_num=0x03)
153: 0x08E2 [0x29] REQ_SET_WAIT(priority=0x10, entity_id=Unnamed NPC (ID: 17162790/0x0105E226), tag_num=0x02)
154: 0x08E9 [0x02] IF !(Work_Zone[7] == 6*) GOTO 0x0903
155: 0x08F1 [0x52] END_LOAD_SCHEDULER: End scheduler "y025" with entities [LocalPlayer, LocalPlayer], work=533*
156: 0x0900 [0x01] GOTO 0x0912
157: 0x0903 [0x52] END_LOAD_SCHEDULER: End scheduler "y020" with entities [LocalPlayer, LocalPlayer], work=533*

SUBROUTINE_0912:
158: 0x0912 [0x45] LOAD_SCHEDULED_TASK: Load scheduler "y030" with entities [LocalPlayer, LocalPlayer], work=[533*, 0*]
159: 0x0923 [0x27] REQ_SET(priority=0x10, entity_id=Unnamed NPC (ID: 17162789/0x0105E225), tag_num=0x0E)
160: 0x092A [0x27] REQ_SET(priority=0x10, entity_id=Unnamed NPC (ID: 17162790/0x0105E226), tag_num=0x0F)
161: 0x0931 [0x66] LOAD_EXT_SCHEDULER_MAIN: Load scheduler "tlk0" with entities [Dhea Prandoleh (ID: 17162751/0x0105E1FF), Dhea Prandoleh (ID: 17162751/0x0105E1FF)], work=59*
162: 0x0940 [0x2B] Dhea Prandoleh (ID: 17162751/0x0105E1FF) [13560*]:
    → "None too easy a task, I might add, what with everyone in the city rrrunning around like cockatrices with their heads cut off. It's utter chaos, I tell you!"
163: 0x0947 [0x23] WAIT_FOR_DIALOG_INTERACTION
164: 0x0948 [0x66] LOAD_EXT_SCHEDULER_MAIN: Load scheduler "tlk1" with entities [Dhea Prandoleh (ID: 17162751/0x0105E1FF), Dhea Prandoleh (ID: 17162751/0x0105E1FF)], work=59*
165: 0x0957 [0x29] REQ_SET_WAIT(priority=0x10, entity_id=01 (ID: 17162781/0x0105E21D), tag_num=0x02)
166: 0x095E [0x29] REQ_SET_WAIT(priority=0x10, entity_id=02 (ID: 17162782/0x0105E21E), tag_num=0x02)
167: 0x0965 [0x52] END_LOAD_SCHEDULER: End scheduler "y030" with entities [LocalPlayer, LocalPlayer], work=533*
168: 0x0974 [0x45] LOAD_SCHEDULED_TASK: Load scheduler "y041" with entities [LocalPlayer, LocalPlayer], work=[533*, 0*]
169: 0x0985 [0x27] REQ_SET(priority=0x10, entity_id=Dhea Prandoleh (ID: 17162751/0x0105E1FF), tag_num=0x2D)
170: 0x098C [0x5D] SET_MUSIC_VOLUME(volume=0*, fade_time=120*)
171: 0x0991 [0x2B] Dhea Prandoleh (ID: 17162751/0x0105E1FF) [13561*]:
    → "What, haven't you heard? Just look!"
172: 0x0998 [0x23] WAIT_FOR_DIALOG_INTERACTION
173: 0x0999 [0x1A] CALL_SUBROUTINE(address=0x025F)
174: 0x099C [0x5C] MUSIC_CONTROL: Set Idle (Day) music to song 102*
175: 0x09A0 [0x5C] MUSIC_CONTROL: Set Idle (Night) music to song 102*
176: 0x09A4 [0x27] REQ_SET(priority=0x10, entity_id=02 (ID: 17162900/0x0105E294), tag_num=0x0D)
177: 0x09AB [0x29] REQ_SET_WAIT(priority=0x10, entity_id=04 (ID: 17162784/0x0105E220), tag_num=0x02)
178: 0x09B2 [0x29] REQ_SET_WAIT(priority=0x10, entity_id=05 (ID: 17162785/0x0105E221), tag_num=0x02)
179: 0x09B9 [0x29] REQ_SET_WAIT(priority=0x10, entity_id=06 (ID: 17162786/0x0105E222), tag_num=0x02)
180: 0x09C0 [0x55] WAIT_LOAD_SCHEDULER: Wait for scheduler "y041" with entities [LocalPlayer, LocalPlayer], work=533*
181: 0x09CF [0x45] LOAD_SCHEDULED_TASK: Load scheduler "y042" with entities [LocalPlayer, LocalPlayer], work=[533*, 0*]
182: 0x09E0 [0x06] Work_Zone[8] = 0
183: 0x09E3 [0x06] Work_Zone[9] = 0
184: 0x09E6 [0x27] REQ_SET(priority=0x10, entity_id=Unnamed NPC (ID: 17163025/0x0105E311), tag_num=0x11)
185: 0x09ED [0x27] REQ_SET(priority=0x10, entity_id=Unnamed NPC (ID: 17162792/0x0105E228), tag_num=0x06)
186: 0x09F4 [0x27] REQ_SET(priority=0x10, entity_id=01 (ID: 17163006/0x0105E2FE), tag_num=0x03)
187: 0x09FB [0x27] REQ_SET(priority=0x10, entity_id=02 (ID: 17163007/0x0105E2FF), tag_num=0x03)
188: 0x0A02 [0x27] REQ_SET(priority=0x10, entity_id=03 (ID: 17163008/0x0105E300), tag_num=0x03)
189: 0x0A09 [0x27] REQ_SET(priority=0x10, entity_id=01 (ID: 17162781/0x0105E21D), tag_num=0x0D)
190: 0x0A10 [0x27] REQ_SET(priority=0x10, entity_id=02 (ID: 17162782/0x0105E21E), tag_num=0x0E)
191: 0x0A17 [0x27] REQ_SET(priority=0x10, entity_id=02 (ID: 17162900/0x0105E294), tag_num=0x18)
192: 0x0A1E [0x9A] WAIT_MUSIC_SERVER()
193: 0x0A1F [0x48] [System] [13562*]:
    → "Hear ye, hear ye! Citizens of Windurst!"
194: 0x0A22 [0x23] WAIT_FOR_DIALOG_INTERACTION
195: 0x0A23 [0x1A] CALL_SUBROUTINE(address=0x0001)
196: 0x0A26 [0x1C] WAIT(90* ticks)
197: 0x0A29 [0x48] [System] [13563*]:
    → "Due to imminent danger of a beastman attack, the Federation has declared a state of high alertaru!"
198: 0x0A2C [0x23] WAIT_FOR_DIALOG_INTERACTION
199: 0x0A2D [0x1C] WAIT(90* ticks)
200: 0x0A30 [0x52] END_LOAD_SCHEDULER: End scheduler "y052" with entities [LocalPlayer, LocalPlayer], work=533*
201: 0x0A3F [0x7A] VM_CONTROL: Reset VM for Unnamed NPC (ID: 17163025/0x0105E311)
202: 0x0A45 [0x02] IF !(Work_Zone[8] == 0*) GOTO 0x0A5E
203: 0x0A4D [0x45] LOAD_SCHEDULED_TASK: Load scheduler "y054" with entities [LocalPlayer, LocalPlayer], work=[533*, 0*]
204: 0x0A5E [0x48] [System] [13564*]:
    → "All non-military personnel are hereby ordered to take sheltaru indoors until further-wurther notice. I repeataru, this is not a drill!"
205: 0x0A61 [0x23] WAIT_FOR_DIALOG_INTERACTION
206: 0x0A62 [0x1C] WAIT(120* ticks)
207: 0x0A65 [0x52] END_LOAD_SCHEDULER: End scheduler "y054" with entities [LocalPlayer, LocalPlayer], work=533*
208: 0x0A74 [0x52] END_LOAD_SCHEDULER: End scheduler "y052" with entities [LocalPlayer, LocalPlayer], work=533*
209: 0x0A83 [0x52] END_LOAD_SCHEDULER: End scheduler "y042" with entities [LocalPlayer, LocalPlayer], work=533*
210: 0x0A92 [0x45] LOAD_SCHEDULED_TASK: Load scheduler "y060" with entities [LocalPlayer, LocalPlayer], work=[533*, 0*]
211: 0x0AA3 [0x7E] CHOCOBO_MOUNT: Dismount 01 (ID: 17162781/0x0105E21D) (status = 0)
212: 0x0AA9 [0x7E] CHOCOBO_MOUNT: Dismount 02 (ID: 17162782/0x0105E21E) (status = 0)
213: 0x0AAF [0x7E] CHOCOBO_MOUNT: Dismount 04 (ID: 17162784/0x0105E220) (status = 0)
214: 0x0AB5 [0x7E] CHOCOBO_MOUNT: Dismount 05 (ID: 17162785/0x0105E221) (status = 0)
215: 0x0ABB [0x7E] CHOCOBO_MOUNT: Dismount 06 (ID: 17162786/0x0105E222) (status = 0)
216: 0x0AC1 [0x7E] CHOCOBO_MOUNT: Dismount 07 (ID: 17162787/0x0105E223) (status = 0)
217: 0x0AC7 [0x7E] CHOCOBO_MOUNT: Dismount Unnamed NPC (ID: 17162788/0x0105E224) (status = 0)
218: 0x0ACD [0x7E] CHOCOBO_MOUNT: Dismount Unnamed NPC (ID: 17162789/0x0105E225) (status = 0)
219: 0x0AD3 [0x7E] CHOCOBO_MOUNT: Dismount Unnamed NPC (ID: 17162790/0x0105E226) (status = 0)
220: 0x0AD9 [0x7E] CHOCOBO_MOUNT: Dismount Unnamed NPC (ID: 17162791/0x0105E227) (status = 0)
221: 0x0ADF [0x7E] CHOCOBO_MOUNT: Dismount Unnamed NPC (ID: 17162792/0x0105E228) (status = 0)
222: 0x0AE5 [0x7A] VM_CONTROL: Reset VM for 02 (ID: 17162820/0x0105E244)
223: 0x0AEB [0x7A] VM_CONTROL: Reset VM for 03 (ID: 17162821/0x0105E245)
224: 0x0AF1 [0x7A] VM_CONTROL: Reset VM for 04 (ID: 17162822/0x0105E246)
225: 0x0AF7 [0x7A] VM_CONTROL: Reset VM for 01 (ID: 17163006/0x0105E2FE)
226: 0x0AFD [0x7A] VM_CONTROL: Reset VM for 02 (ID: 17163007/0x0105E2FF)
227: 0x0B03 [0x7A] VM_CONTROL: Reset VM for 03 (ID: 17163008/0x0105E300)
228: 0x0B09 [0x27] REQ_SET(priority=0x10, entity_id=02 (ID: 17162820/0x0105E244), tag_num=0x05)
229: 0x0B10 [0x27] REQ_SET(priority=0x10, entity_id=03 (ID: 17162821/0x0105E245), tag_num=0x05)
230: 0x0B17 [0x27] REQ_SET(priority=0x10, entity_id=04 (ID: 17162822/0x0105E246), tag_num=0x05)
231: 0x0B1E [0x27] REQ_SET(priority=0x10, entity_id=01 (ID: 17163006/0x0105E2FE), tag_num=0x05)
232: 0x0B25 [0x27] REQ_SET(priority=0x10, entity_id=02 (ID: 17163007/0x0105E2FF), tag_num=0x05)
233: 0x0B2C [0x27] REQ_SET(priority=0x10, entity_id=03 (ID: 17163008/0x0105E300), tag_num=0x05)
234: 0x0B33 [0x27] REQ_SET(priority=0x10, entity_id=01 (ID: 17162781/0x0105E21D), tag_num=0x09)
235: 0x0B3A [0x27] REQ_SET(priority=0x10, entity_id=02 (ID: 17162782/0x0105E21E), tag_num=0x09)
236: 0x0B41 [0x27] REQ_SET(priority=0x10, entity_id=04 (ID: 17162784/0x0105E220), tag_num=0x09)
237: 0x0B48 [0x27] REQ_SET(priority=0x10, entity_id=05 (ID: 17162785/0x0105E221), tag_num=0x09)
238: 0x0B4F [0x27] REQ_SET(priority=0x10, entity_id=06 (ID: 17162786/0x0105E222), tag_num=0x09)
239: 0x0B56 [0x27] REQ_SET(priority=0x10, entity_id=07 (ID: 17162787/0x0105E223), tag_num=0x09)
240: 0x0B5D [0x27] REQ_SET(priority=0x10, entity_id=Unnamed NPC (ID: 17162788/0x0105E224), tag_num=0x08)
241: 0x0B64 [0x27] REQ_SET(priority=0x10, entity_id=Unnamed NPC (ID: 17162789/0x0105E225), tag_num=0x08)
242: 0x0B6B [0x27] REQ_SET(priority=0x10, entity_id=Unnamed NPC (ID: 17162790/0x0105E226), tag_num=0x08)
243: 0x0B72 [0x27] REQ_SET(priority=0x10, entity_id=Unnamed NPC (ID: 17162791/0x0105E227), tag_num=0x08)
244: 0x0B79 [0x27] REQ_SET(priority=0x10, entity_id=Unnamed NPC (ID: 17162792/0x0105E228), tag_num=0x08)
245: 0x0B80 [0x27] REQ_SET(priority=0x10, entity_id=01 (ID: 17162899/0x0105E293), tag_num=0x0E)
246: 0x0B87 [0x27] REQ_SET(priority=0x10, entity_id=02 (ID: 17162900/0x0105E294), tag_num=0x0F)
247: 0x0B8E [0x27] REQ_SET(priority=0x10, entity_id=02 (ID: 17162901/0x0105E295), tag_num=0x0E)
248: 0x0B95 [0x27] REQ_SET(priority=0x10, entity_id=Ajido-Marujido (ID: 17162758/0x0105E206), tag_num=0x0F)
249: 0x0B9C [0x27] REQ_SET(priority=0x10, entity_id=1 (ID: 17163004/0x0105E2FC), tag_num=0x04)
250: 0x0BA3 [0x27] REQ_SET(priority=0x10, entity_id=2 (ID: 17163005/0x0105E2FD), tag_num=0x04)
251: 0x0BAA [0x27] REQ_SET(priority=0x10, entity_id=01 (ID: 17162819/0x0105E243), tag_num=0x02)
252: 0x0BB1 [0x92] Ajido-Marujido (ID: 17162758/0x0105E206)->Render.Flags3 ^= 0x01
253: 0x0BB7 [0x92] 1 (ID: 17163004/0x0105E2FC)->Render.Flags3 ^= 0x01
254: 0x0BBD [0x92] 2 (ID: 17163005/0x0105E2FD)->Render.Flags3 ^= 0x01
255: 0x0BC3 [0x94] Ajido-Marujido (ID: 17162758/0x0105E206)->Render.Flags3 ^= 0x01
256: 0x0BC9 [0x94] 1 (ID: 17163004/0x0105E2FC)->Render.Flags3 ^= 0x01
257: 0x0BCF [0x94] 2 (ID: 17163005/0x0105E2FD)->Render.Flags3 ^= 0x01
258: 0x0BD5 [0x1C] WAIT(30* ticks)
259: 0x0BD8 [0x2B] Dhea Prandoleh (ID: 17162751/0x0105E1FF) [13565*]:
    → "Therrre you have it. Civilians have been ordered off the streets, and all mercenaries are to ready for battle immediately."
260: 0x0BDF [0x23] WAIT_FOR_DIALOG_INTERACTION
261: 0x0BE0 [0x79] LocalPlayer looks at Dhea Prandoleh (ID: 17162751/0x0105E1FF) (Basic look)
262: 0x0BEA [0x4A] Dhea Prandoleh (ID: 17162751/0x0105E1FF) looks at LocalPlayer
263: 0x0BF3 [0x6F] WAIT_FRAME_DELAY: Yield until WaitTime reaches zero
264: 0x0BF4 [0x76] CHECK_ENTITY_RENDER_FLAGS: Wait until Dhea Prandoleh (ID: 17162751/0x0105E1FF) Render.Flags0 and Render.Flags3 conditions are met
265: 0x0BF9 [0x1A] CALL_SUBROUTINE(address=0x0406)
266: 0x0BFC [0x66] LOAD_EXT_SCHEDULER_MAIN: Load scheduler "tlk0" with entities [Dhea Prandoleh (ID: 17162751/0x0105E1FF), Dhea Prandoleh (ID: 17162751/0x0105E1FF)], work=59*
267: 0x0C0B [0x2B] Dhea Prandoleh (ID: 17162751/0x0105E1FF) [13566*]:
    → "With the enemy ready to strrrike at any moment, one can never be too ready. Have you seen to your preparations?"
268: 0x0C12 [0x23] WAIT_FOR_DIALOG_INTERACTION
269: 0x0C13 [0x66] LOAD_EXT_SCHEDULER_MAIN: Load scheduler "tlk1" with entities [Dhea Prandoleh (ID: 17162751/0x0105E1FF), Dhea Prandoleh (ID: 17162751/0x0105E1FF)], work=59*
270: 0x0C22 [0x5D] SET_MUSIC_VOLUME(volume=0*, fade_time=60*)
271: 0x0C27 [0x2B] ??? (ID: 17162753/0x0105E201) [13567*]:
    → "Need you even ask!? Why, Ajido-Marujido, Child Genius, is ever ready for anything those filthy-wilthy-feathered goons could throw at us!"
272: 0x0C2E [0x23] WAIT_FOR_DIALOG_INTERACTION
273: 0x0C2F [0x80] LOAD_WAIT(entity=Ajido-Marujido (ID: 17162758/0x0105E206))
274: 0x0C34 [0x80] LOAD_WAIT(entity=1 (ID: 17163004/0x0105E2FC))
275: 0x0C39 [0x80] LOAD_WAIT(entity=2 (ID: 17163005/0x0105E2FD))
276: 0x0C3E [0x80] LOAD_WAIT(entity=01 (ID: 17162819/0x0105E243))
277: 0x0C43 [0xBA] SET_ENTITY_POSITION(entity_id=Ajido-Marujido (ID: 17162758/0x0105E206), pos_x=-0.307*, pos_z=13.248*, pos_y=-1.000*, direction=343.0°*)
278: 0x0C50 [0xBA] SET_ENTITY_POSITION(entity_id=1 (ID: 17163004/0x0105E2FC), pos_x=-1.162*, pos_z=13.344*, pos_y=-0.999*, direction=328.3°*)
279: 0x0C5D [0xBA] SET_ENTITY_POSITION(entity_id=2 (ID: 17163005/0x0105E2FD), pos_x=-0.375*, pos_z=12.623*, pos_y=-1.000*, direction=320.3°*)
280: 0x0C6A [0x5B] LOAD_EXT_SCHEDULER: Load scheduler "ehn0" with entities [Ajido-Marujido (ID: 17162758/0x0105E206), Ajido-Marujido (ID: 17162758/0x0105E206)], work=1288*
281: 0x0C79 [0x5C] MUSIC_CONTROL: Set Idle (Day) music to song 140*
282: 0x0C7D [0x5C] MUSIC_CONTROL: Set Idle (Night) music to song 140*
283: 0x0C81 [0x1A] CALL_SUBROUTINE(address=0x03FC)
284: 0x0C84 [0x4A] Dhea Prandoleh (ID: 17162751/0x0105E1FF) looks at Ajido-Marujido (ID: 17162758/0x0105E206)
285: 0x0C8D [0x6F] WAIT_FRAME_DELAY: Yield until WaitTime reaches zero
286: 0x0C8E [0x76] CHECK_ENTITY_RENDER_FLAGS: Wait until Dhea Prandoleh (ID: 17162751/0x0105E1FF) Render.Flags0 and Render.Flags3 conditions are met
287: 0x0C93 [0x52] END_LOAD_SCHEDULER: End scheduler "y060" with entities [LocalPlayer, LocalPlayer], work=533*
288: 0x0CA2 [0x45] LOAD_SCHEDULED_TASK: Load scheduler "y070" with entities [LocalPlayer, LocalPlayer], work=[533*, 0*]
289: 0x0CB3 [0x55] WAIT_LOAD_SCHEDULER: Wait for scheduler "y070" with entities [LocalPlayer, LocalPlayer], work=533*
290: 0x0CC2 [0x9A] WAIT_MUSIC_SERVER()
291: 0x0CC3 [0x52] END_LOAD_SCHEDULER: End scheduler "y070" with entities [LocalPlayer, LocalPlayer], work=533*
292: 0x0CD2 [0x1A] CALL_SUBROUTINE(address=0x0233)
293: 0x0CD5 [0x02] IF !(Work_Zone[2] == 6*) GOTO 0x0CF1
294: 0x0CDD [0x45] LOAD_SCHEDULED_TASK: Load scheduler "y085" with entities [LocalPlayer, LocalPlayer], work=[533*, 0*]
295: 0x0CEE [0x01] GOTO 0x0D3A
296: 0x0CF1 [0x02] IF !(Work_Zone[2] == 8*) GOTO 0x0D0D
297: 0x0CF9 [0x45] LOAD_SCHEDULED_TASK: Load scheduler "y088" with entities [LocalPlayer, LocalPlayer], work=[533*, 0*]
298: 0x0D0A [0x01] GOTO 0x0D3A
299: 0x0D0D [0x02] IF !(Work_Zone[2] == 4*) GOTO 0x0D29
300: 0x0D15 [0x45] LOAD_SCHEDULED_TASK: Load scheduler "y083" with entities [LocalPlayer, LocalPlayer], work=[533*, 0*]
301: 0x0D26 [0x01] GOTO 0x0D3A
302: 0x0D29 [0x45] LOAD_SCHEDULED_TASK: Load scheduler "y080" with entities [LocalPlayer, Dhea Prandoleh (ID: 17162751/0x0105E1FF)], work=[533*, 0*]

SUBROUTINE_0D3A:
303: 0x0D3A [0x6E] Dhea Prandoleh (ID: 17162751/0x0105E1FF) uses emote 25*
304: 0x0D41 [0x99] Wait for Dhea Prandoleh (ID: 17162751/0x0105E1FF) animation to complete
305: 0x0D46 [0x5B] LOAD_EXT_SCHEDULER: Load scheduler "ehn1" with entities [Ajido-Marujido (ID: 17162758/0x0105E206), Ajido-Marujido (ID: 17162758/0x0105E206)], work=1288*
306: 0x0D55 [0x79] Ajido-Marujido (ID: 17162758/0x0105E206) looks at Dhea Prandoleh (ID: 17162751/0x0105E1FF) (Basic look)
307: 0x0D5F [0x1A] CALL_SUBROUTINE(address=0x1381)
308: 0x0D62 [0x5B] LOAD_EXT_SCHEDULER: Load scheduler "sdw0" with entities [2 (ID: 17163005/0x0105E2FD), 2 (ID: 17163005/0x0105E2FD)], work=1284*
309: 0x0D71 [0x2B] Dhea Prandoleh (ID: 17162751/0x0105E1FF) [13568*]:
    → "What the--!? Are you out of your gourrrd, you little brat!? Get back inside! If the city comes under attack, you'll break more than just the rims of those rrridiculous glasses!"
310: 0x0D78 [0x23] WAIT_FOR_DIALOG_INTERACTION
311: 0x0D79 [0x6F] WAIT_FRAME_DELAY: Yield until WaitTime reaches zero
312: 0x0D7A [0x76] CHECK_ENTITY_RENDER_FLAGS: Wait until 2 (ID: 17163005/0x0105E2FD) Render.Flags0 and Render.Flags3 conditions are met
313: 0x0D7F [0x7B] 2 (ID: 17163005/0x0105E2FD) stops talking
314: 0x0D84 [0x1A] CALL_SUBROUTINE(address=0x0233)
315: 0x0D87 [0x02] IF !(Work_Zone[2] == 6*) GOTO 0x0DA1
316: 0x0D8F [0x52] END_LOAD_SCHEDULER: End scheduler "y085" with entities [LocalPlayer, LocalPlayer], work=533*
317: 0x0D9E [0x01] GOTO 0x0DE4
318: 0x0DA1 [0x02] IF !(Work_Zone[2] == 8*) GOTO 0x0DBB
319: 0x0DA9 [0x52] END_LOAD_SCHEDULER: End scheduler "y088" with entities [LocalPlayer, LocalPlayer], work=533*
320: 0x0DB8 [0x01] GOTO 0x0DE4
321: 0x0DBB [0x02] IF !(Work_Zone[2] == 4*) GOTO 0x0DD5
322: 0x0DC3 [0x52] END_LOAD_SCHEDULER: End scheduler "y083" with entities [LocalPlayer, LocalPlayer], work=533*
323: 0x0DD2 [0x01] GOTO 0x0DE4
324: 0x0DD5 [0x52] END_LOAD_SCHEDULER: End scheduler "y080" with entities [LocalPlayer, Dhea Prandoleh (ID: 17162751/0x0105E1FF)], work=533*

SUBROUTINE_0DE4:
325: 0x0DE4 [0x45] LOAD_SCHEDULED_TASK: Load scheduler "y090" with entities [LocalPlayer, LocalPlayer], work=[533*, 0*]
326: 0x0DF5 [0x59] UPDATE_ENTITY_DATA: Set EventEntity target turn speed head = 17163005*
327: 0x0DF9 [0x27] REQ_SET(priority=0x10, entity_id=Ajido-Marujido (ID: 17162758/0x0105E206), tag_num=0x2D)
328: 0x0E00 [0xBA] SET_ENTITY_POSITION(entity_id=Dhea Prandoleh (ID: 17162751/0x0105E1FF), pos_x=1.801*, pos_z=14.555*, pos_y=-1.000*, direction=132.0°*)
329: 0x0E0D [0x1A] CALL_SUBROUTINE(address=0x0286)
330: 0x0E10 [0x4A] Dhea Prandoleh (ID: 17162751/0x0105E1FF) looks at Ajido-Marujido (ID: 17162758/0x0105E206)
331: 0x0E19 [0x1A] CALL_SUBROUTINE(address=0x03FC)
332: 0x0E1C [0x2B] Ajido-Marujido (ID: 17162758/0x0105E206) [13569*]:
    → "Hah! Like I'd entrust the defense of the Federation to a mangy-wangy lot like you! Behold the valiantaru sorcerers and swordswomen of the Windurstian Teen Force (WTF), under the capable command of Warlock-Warlord-in-Waiting Ajido-Marujido!"
333: 0x0E23 [0x23] WAIT_FOR_DIALOG_INTERACTION
334: 0x0E24 [0x5B] LOAD_EXT_SCHEDULER: Load scheduler "cabk" with entities [1 (ID: 17163004/0x0105E2FC), 1 (ID: 17163004/0x0105E2FC)], work=1286*
335: 0x0E33 [0xBB] LOAD_EVENT_SCHEDULER_ALT: Load scheduler "eibk" with entities [1 (ID: 17163004/0x0105E2FC), 1 (ID: 17163004/0x0105E2FC)], work=[154*, 0*]
336: 0x0E44 [0x52] END_LOAD_SCHEDULER: End scheduler "y090" with entities [LocalPlayer, Dhea Prandoleh (ID: 17162751/0x0105E1FF)], work=533*
337: 0x0E53 [0x45] LOAD_SCHEDULED_TASK: Load scheduler "y095" with entities [LocalPlayer, LocalPlayer], work=[533*, 0*]
338: 0x0E64 [0x2B] Ajido-Marujido (ID: 17162758/0x0105E206) [13570*]:
    → "Now if you'll excuse us, we have an important audience with the big cheese himself--er, even if he doesn't know it yetaru. Someone has to save our glorious nation while you strays stand around swatting insects with your tails!"
339: 0x0E6B [0x23] WAIT_FOR_DIALOG_INTERACTION
340: 0x0E6C [0x5D] SET_MUSIC_VOLUME(volume=0*, fade_time=60*)
341: 0x0E71 [0x5C] MUSIC_CONTROL: Set Idle (Day) music to song 163*
342: 0x0E75 [0x5C] MUSIC_CONTROL: Set Idle (Night) music to song 163*
343: 0x0E79 [0x9A] WAIT_MUSIC_SERVER()
344: 0x0E7A [0xB0] PRINT_EVENT_MESSAGE(unknown1=0x00, speaker_id=0x0105E201, listener_id=0x0105E243, message_offset=0x80B4)
345: 0x0E86 [0x23] WAIT_FOR_DIALOG_INTERACTION
346: 0x0E87 [0xBA] SET_ENTITY_POSITION(entity_id=01 (ID: 17162819/0x0105E243), pos_x=-8.785*, pos_z=2.479*, pos_y=-1.694*, direction=284.2°*)
347: 0x0E94 [0x27] REQ_SET(priority=0x10, entity_id=01 (ID: 17162819/0x0105E243), tag_num=0x03)
348: 0x0E9B [0x27] REQ_SET(priority=0x10, entity_id=01 (ID: 17162819/0x0105E243), tag_num=0x1C)
349: 0x0EA2 [0x52] END_LOAD_SCHEDULER: End scheduler "y095" with entities [LocalPlayer, LocalPlayer], work=533*
350: 0x0EB1 [0x45] LOAD_SCHEDULED_TASK: Load scheduler "y100" with entities [LocalPlayer, LocalPlayer], work=[533*, 0*]
351: 0x0EC2 [0x27] REQ_SET(priority=0x10, entity_id=Ajido-Marujido (ID: 17162758/0x0105E206), tag_num=0x2F)
352: 0x0EC9 [0x1C] WAIT(3* ticks)
353: 0x0ECC [0x1A] CALL_SUBROUTINE(address=0x0294)
354: 0x0ECF [0x1A] CALL_SUBROUTINE(address=0x03FC)
355: 0x0ED2 [0xBA] SET_ENTITY_POSITION(entity_id=Dhea Prandoleh (ID: 17162751/0x0105E1FF), pos_x=3.167*, pos_z=15.545*, pos_y=-1.000*, direction=188.4°*)
356: 0x0EDF [0xBA] SET_ENTITY_POSITION(entity_id=1 (ID: 17163004/0x0105E2FC), pos_x=-1.069*, pos_z=13.434*, pos_y=-0.999*, direction=341.6°*)
357: 0x0EEC [0x4A] Dhea Prandoleh (ID: 17162751/0x0105E1FF) looks at Ajido-Marujido (ID: 17162758/0x0105E206)
358: 0x0EF5 [0x79] LocalPlayer looks at 01 (ID: 17162819/0x0105E243) (Basic look)
359: 0x0EFF [0x79] Dhea Prandoleh (ID: 17162751/0x0105E1FF) looks at 01 (ID: 17162819/0x0105E243) (Basic look)
360: 0x0F09 [0x55] WAIT_LOAD_SCHEDULER: Wait for scheduler "y100" with entities [LocalPlayer, LocalPlayer], work=533*
361: 0x0F18 [0x52] END_LOAD_SCHEDULER: End scheduler "y100" with entities [LocalPlayer, LocalPlayer], work=533*
362: 0x0F27 [0x45] LOAD_SCHEDULED_TASK: Load scheduler "y110" with entities [LocalPlayer, LocalPlayer], work=[533*, 0*]
363: 0x0F38 [0x1A] CALL_SUBROUTINE(address=0x01BA)
364: 0x0F3B [0x1C] WAIT(3* ticks)
365: 0x0F3E [0x4A] 1 (ID: 17163004/0x0105E2FC) looks at 01 (ID: 17162819/0x0105E243)
366: 0x0F47 [0x4A] 2 (ID: 17163005/0x0105E2FD) looks at 01 (ID: 17162819/0x0105E243)
367: 0x0F50 [0x5B] LOAD_EXT_SCHEDULER: Load scheduler "ybi0" with entities [01 (ID: 17162819/0x0105E243), 01 (ID: 17162819/0x0105E243)], work=181*
368: 0x0F5F [0xB0] PRINT_EVENT_MESSAGE(unknown1=0x00, speaker_id=0x0105E201, listener_id=0x0105E243, message_offset=0x80BE)
369: 0x0F6B [0x23] WAIT_FOR_DIALOG_INTERACTION
370: 0x0F6C [0x55] WAIT_LOAD_SCHEDULER: Wait for scheduler "y110" with entities [LocalPlayer, LocalPlayer], work=533*
371: 0x0F7B [0x52] END_LOAD_SCHEDULER: End scheduler "y110" with entities [LocalPlayer, LocalPlayer], work=533*
372: 0x0F8A [0x27] REQ_SET(priority=0x10, entity_id=01 (ID: 17162819/0x0105E243), tag_num=0x1E)
373: 0x0F91 [0x1C] WAIT(15* ticks)
374: 0x0F94 [0x45] LOAD_SCHEDULED_TASK: Load scheduler "y111" with entities [LocalPlayer, LocalPlayer], work=[533*, 0*]
375: 0x0FA5 [0x6B] STOP_AND_IDLE: 1 (ID: 17163004/0x0105E2FC) stops current action and resets to idle (animation="idl0")
376: 0x0FAE [0x6B] STOP_AND_IDLE: 2 (ID: 17163005/0x0105E2FD) stops current action and resets to idle (animation="idl0")
377: 0x0FB7 [0x55] WAIT_LOAD_SCHEDULER: Wait for scheduler "y111" with entities [LocalPlayer, LocalPlayer], work=533*
378: 0x0FC6 [0x52] END_LOAD_SCHEDULER: End scheduler "y111" with entities [LocalPlayer, LocalPlayer], work=533*
379: 0x0FD5 [0x45] LOAD_SCHEDULED_TASK: Load scheduler "y112" with entities [LocalPlayer, LocalPlayer], work=[533*, 0*]
380: 0x0FE6 [0x7A] VM_CONTROL: Reset VM for 01 (ID: 17162819/0x0105E243)
381: 0x0FEC [0x6C] FADE_ENTITY_COLOR(entity_id=01 (ID: 17162819/0x0105E243), end_alpha=0*, fade_time=1*)
382: 0x0FF5 [0x5B] LOAD_EXT_SCHEDULER: Load scheduler "bik0" with entities [2 (ID: 17163005/0x0105E2FD), 2 (ID: 17163005/0x0105E2FD)], work=81*
383: 0x1004 [0xBB] LOAD_EVENT_SCHEDULER_ALT: Load scheduler "stbk" with entities [1 (ID: 17163004/0x0105E2FC), 1 (ID: 17163004/0x0105E2FC)], work=[154*, 0*]
384: 0x1015 [0x5B] LOAD_EXT_SCHEDULER: Load scheduler "sur1" with entities [1 (ID: 17163004/0x0105E2FC), 1 (ID: 17163004/0x0105E2FC)], work=85*
385: 0x1024 [0x27] REQ_SET(priority=0x10, entity_id=Ajido-Marujido (ID: 17162758/0x0105E206), tag_num=0x31)
386: 0x102B [0x79] LocalPlayer looks at Ajido-Marujido (ID: 17162758/0x0105E206) (Basic look)
387: 0x1035 [0x79] Dhea Prandoleh (ID: 17162751/0x0105E1FF) looks at Ajido-Marujido (ID: 17162758/0x0105E206) (Basic look)
388: 0x103F [0x55] WAIT_LOAD_SCHEDULER: Wait for scheduler "y112" with entities [LocalPlayer, LocalPlayer], work=533*
389: 0x104E [0x7A] VM_CONTROL: Reset VM for Ajido-Marujido (ID: 17162758/0x0105E206)
390: 0x1054 [0xBA] SET_ENTITY_POSITION(entity_id=Ajido-Marujido (ID: 17162758/0x0105E206), pos_x=-1.978*, pos_z=15.782*, pos_y=-1.000*, direction=279.8°*)
391: 0x1061 [0x27] REQ_SET(priority=0x10, entity_id=Ajido-Marujido (ID: 17162758/0x0105E206), tag_num=0x33)
392: 0x1068 [0x52] END_LOAD_SCHEDULER: End scheduler "y112" with entities [LocalPlayer, LocalPlayer], work=533*
393: 0x1077 [0x45] LOAD_SCHEDULED_TASK: Load scheduler "y121" with entities [LocalPlayer, LocalPlayer], work=[533*, 0*]
394: 0x1088 [0x1A] CALL_SUBROUTINE(address=0x01BA)
395: 0x108B [0x1C] WAIT(5* ticks)
396: 0x108E [0x7B] LocalPlayer stops talking
397: 0x1093 [0x7B] Dhea Prandoleh (ID: 17162751/0x0105E1FF) stops talking
398: 0x1098 [0xBA] SET_ENTITY_POSITION(entity_id=01 (ID: 17162819/0x0105E243), pos_x=-1.058*, pos_z=17.433*, pos_y=-1.000*, direction=266.2°*)
399: 0x10A5 [0xBA] SET_ENTITY_POSITION(entity_id=1 (ID: 17163004/0x0105E2FC), pos_x=-1.069*, pos_z=13.434*, pos_y=-0.999*, direction=273.6°*)
400: 0x10B2 [0xBA] SET_ENTITY_POSITION(entity_id=2 (ID: 17163005/0x0105E2FD), pos_x=-0.392*, pos_z=13.082*, pos_y=-0.999*, direction=251.2°*)
401: 0x10BF [0x79] LocalPlayer looks at Ajido-Marujido (ID: 17162758/0x0105E206) (Basic look)
402: 0x10C9 [0x1A] CALL_SUBROUTINE(address=0x02A2)
403: 0x10CC [0x4B] UPDATE_ENTITY_YAW(entity=Dhea Prandoleh (ID: 17162751/0x0105E1FF), yaw=13.7°*)
404: 0x10D3 [0x5B] LOAD_EXT_SCHEDULER: Load scheduler "pan0" with entities [1 (ID: 17163004/0x0105E2FC), 1 (ID: 17163004/0x0105E2FC)], work=85*
405: 0x10E2 [0x5B] LOAD_EXT_SCHEDULER: Load scheduler "aww0" with entities [2 (ID: 17163005/0x0105E2FD), 2 (ID: 17163005/0x0105E2FD)], work=80*
406: 0x10F1 [0x1C] WAIT(25* ticks)
407: 0x10F4 [0x6E] LocalPlayer uses emote 21*
408: 0x10FB [0x99] Wait for LocalPlayer animation to complete
409: 0x1100 [0x1C] WAIT(30* ticks)
410: 0x1103 [0x2B] Ajido-Marujido (ID: 17162758/0x0105E206) [13573*]:
    → "Wh-what!? Unhandy-wand me, you confounded contraption!"
411: 0x110A [0x23] WAIT_FOR_DIALOG_INTERACTION
412: 0x110B [0x55] WAIT_LOAD_SCHEDULER: Wait for scheduler "y130" with entities [LocalPlayer, LocalPlayer], work=533*
413: 0x111A [0x55] WAIT_LOAD_SCHEDULER: Wait for scheduler "y121" with entities [LocalPlayer, LocalPlayer], work=533*
414: 0x1129 [0x6C] FADE_ENTITY_COLOR(entity_id=Ajido-Marujido (ID: 17162758/0x0105E206), end_alpha=128*, fade_time=1*)
415: 0x1132 [0x52] END_LOAD_SCHEDULER: End scheduler "y121" with entities [LocalPlayer, LocalPlayer], work=533*
416: 0x1141 [0x52] END_LOAD_SCHEDULER: End scheduler "y130" with entities [LocalPlayer, LocalPlayer], work=533*
417: 0x1150 [0x45] LOAD_SCHEDULED_TASK: Load scheduler "y140" with entities [LocalPlayer, LocalPlayer], work=[533*, 0*]
418: 0x1161 [0x1A] CALL_SUBROUTINE(address=0x01BA)
419: 0x1164 [0x1C] WAIT(75* ticks)
420: 0x1167 [0x2B] Ajido-Marujido (ID: 17162758/0x0105E206) [13574*]:
    → "This is that stut-doodly-uttering old Koru-Moru's doing! Blastaru it! When the Federation falls, he'll rue the day he detained its would-be hero!"
421: 0x116E [0x23] WAIT_FOR_DIALOG_INTERACTION
422: 0x116F [0x1C] WAIT(30* ticks)
423: 0x1172 [0x55] WAIT_LOAD_SCHEDULER: Wait for scheduler "y140" with entities [LocalPlayer, LocalPlayer], work=533*
424: 0x1181 [0x52] END_LOAD_SCHEDULER: End scheduler "y140" with entities [LocalPlayer, LocalPlayer], work=533*
425: 0x1190 [0x45] LOAD_SCHEDULED_TASK: Load scheduler "y146" with entities [LocalPlayer, LocalPlayer], work=[533*, 0*]
426: 0x11A1 [0x27] REQ_SET(priority=0x10, entity_id=Unnamed NPC (ID: 17163025/0x0105E311), tag_num=0x18)
427: 0x11A8 [0x4B] UPDATE_ENTITY_YAW(entity=Dhea Prandoleh (ID: 17162751/0x0105E1FF), yaw=11.8°*)
428: 0x11AF [0x1C] WAIT(30* ticks)
429: 0x11B2 [0x2B] Ajido-Marujido (ID: 17162758/0x0105E206) [13575*]:
    → "I said put me down, you ham-handed heap of--uwaaaaaaaaahhh!"
430: 0x11B9 [0x23] WAIT_FOR_DIALOG_INTERACTION
431: 0x11BA [0x1C] WAIT(30* ticks)
432: 0x11BD [0x55] WAIT_LOAD_SCHEDULER: Wait for scheduler "y146" with entities [LocalPlayer, LocalPlayer], work=533*
433: 0x11CC [0x1A] CALL_SUBROUTINE(address=0x139F)
434: 0x11CF [0x52] END_LOAD_SCHEDULER: End scheduler "y146" with entities [LocalPlayer, LocalPlayer], work=533*
435: 0x11DE [0x45] LOAD_SCHEDULED_TASK: Load scheduler "y150" with entities [LocalPlayer, LocalPlayer], work=[533*, 0*]
436: 0x11EF [0x5B] LOAD_EXT_SCHEDULER: Load scheduler "aji0" with entities [01 (ID: 17162819/0x0105E243), 01 (ID: 17162819/0x0105E243)], work=2564*
437: 0x11FE [0x5B] LOAD_EXT_SCHEDULER: Load scheduler "aji0" with entities [Ajido-Marujido (ID: 17162758/0x0105E206), Ajido-Marujido (ID: 17162758/0x0105E206)], work=1401*
438: 0x120D [0x1A] CALL_SUBROUTINE(address=0x01BA)
439: 0x1210 [0x55] WAIT_LOAD_SCHEDULER: Wait for scheduler "y150" with entities [LocalPlayer, LocalPlayer], work=533*
440: 0x121F [0x1C] WAIT(10* ticks)
441: 0x1222 [0x52] END_LOAD_SCHEDULER: End scheduler "y150" with entities [LocalPlayer, LocalPlayer], work=533*
442: 0x1231 [0x45] LOAD_SCHEDULED_TASK: Load scheduler "y155" with entities [LocalPlayer, LocalPlayer], work=[533*, 0*]
443: 0x1242 [0x1C] WAIT(60* ticks)
444: 0x1245 [0x79] Dhea Prandoleh (ID: 17162751/0x0105E1FF) looks at Ajido-Marujido (ID: 17162758/0x0105E206) (Basic look)
