# 17162623 - Maruna-Kurina

## Common Data

| Field            | Value                        |
|------------------|------------------------------|
| Zone             | Windurst Waters [S] (ID: 94) |
| Block Size       | 4440 bytes                   |
| Total Events     | 2                            |
| References Count | 304                          |

## List of Events

| Event ID              | Entrypoint   |   Size |   Instructions |
|-----------------------|--------------|--------|----------------|
| [65535](#event-65535) | 0x0000       |      1 |              1 |
| [520](#event-520)     | 0x0001       |   3197 |            998 |

## DAT References (imed_data)

|   Index | Hex Value   |   Dec Value |
|---------|-------------|-------------|
|       0 | 0x0000      |           0 |
|       1 | 0x2E40      |       11840 |
|       2 | 0x2E41      |       11841 |
|       3 | 0x2E42      |       11842 |
|       4 | 0x0001      |           1 |
|       5 | 0x2E43      |       11843 |
|       6 | 0x2E44      |       11844 |
|       7 | 0x2E45      |       11845 |
|       8 | 0x2E46      |       11846 |
|       9 | 0x0002      |           2 |
|      10 | 0x2E47      |       11847 |
|      11 | 0x2E48      |       11848 |
|      12 | 0x2E49      |       11849 |
|      13 | 0x2E4A      |       11850 |
|      14 | 0x2E4B      |       11851 |
|      15 | 0x2E4C      |       11852 |
|      16 | 0x2E4D      |       11853 |
|      17 | 0x2E4E      |       11854 |
|      18 | 0x2E4F      |       11855 |
|      19 | 0x2E50      |       11856 |
|      20 | 0x2E51      |       11857 |
|      21 | 0x2E52      |       11858 |
|      22 | 0x2E53      |       11859 |
|      23 | 0x2E54      |       11860 |
|      24 | 0x2E55      |       11861 |
|      25 | 0x2E56      |       11862 |
|      26 | 0x2E57      |       11863 |
|      27 | 0x2E58      |       11864 |
|      28 | 0x2E59      |       11865 |
|      29 | 0x2E5A      |       11866 |
|      30 | 0x2E5B      |       11867 |
|      31 | 0x0078      |         120 |
|      32 | 0x2E5C      |       11868 |
|      33 | 0x2E5D      |       11869 |
|      34 | 0x2E5E      |       11870 |
|      35 | 0x2E5F      |       11871 |
|      36 | 0x2E60      |       11872 |
|      37 | 0x2E61      |       11873 |
|      38 | 0x2E62      |       11874 |
|      39 | 0x2E63      |       11875 |
|      40 | 0x2E64      |       11876 |
|      41 | 0x2E65      |       11877 |
|      42 | 0x2E66      |       11878 |
|      43 | 0x2E67      |       11879 |
|      44 | 0x2E68      |       11880 |
|      45 | 0x2E69      |       11881 |
|      46 | 0x2E6A      |       11882 |
|      47 | 0x2E6B      |       11883 |
|      48 | 0x2E6C      |       11884 |
|      49 | 0x0003      |           3 |
|      50 | 0x2E6D      |       11885 |
|      51 | 0x2E6E      |       11886 |
|      52 | 0x2E6F      |       11887 |
|      53 | 0x2E70      |       11888 |
|      54 | 0x2E71      |       11889 |
|      55 | 0x2E72      |       11890 |
|      56 | 0x0004      |           4 |
|      57 | 0x2E73      |       11891 |
|      58 | 0x2E74      |       11892 |
|      59 | 0x2E75      |       11893 |
|      60 | 0x2E76      |       11894 |
|      61 | 0x2E77      |       11895 |
|      62 | 0x2E78      |       11896 |
|      63 | 0x0005      |           5 |
|      64 | 0x2E79      |       11897 |
|      65 | 0x2E7A      |       11898 |
|      66 | 0x2E7B      |       11899 |
|      67 | 0x2E7C      |       11900 |
|      68 | 0x2E7D      |       11901 |
|      69 | 0x0006      |           6 |
|      70 | 0x2E7E      |       11902 |
|      71 | 0x2E7F      |       11903 |
|      72 | 0x2E80      |       11904 |
|      73 | 0x2E81      |       11905 |
|      74 | 0x2E82      |       11906 |
|      75 | 0x0007      |           7 |
|      76 | 0x2E83      |       11907 |
|      77 | 0x2E84      |       11908 |
|      78 | 0x2E85      |       11909 |
|      79 | 0x2E86      |       11910 |
|      80 | 0x2E87      |       11911 |
|      81 | 0x0008      |           8 |
|      82 | 0x0009      |           9 |
|      83 | 0x2E88      |       11912 |
|      84 | 0x2E89      |       11913 |
|      85 | 0x2E8A      |       11914 |
|      86 | 0x2E8B      |       11915 |
|      87 | 0x2E8C      |       11916 |
|      88 | 0x2E8D      |       11917 |
|      89 | 0x2E8E      |       11918 |
|      90 | 0x2E8F      |       11919 |
|      91 | 0x2E90      |       11920 |
|      92 | 0x2E91      |       11921 |
|      93 | 0x2E92      |       11922 |
|      94 | 0x2E93      |       11923 |
|      95 | 0x2E94      |       11924 |
|      96 | 0x2E95      |       11925 |
|      97 | 0x2E96      |       11926 |
|      98 | 0x2E97      |       11927 |
|      99 | 0x2E98      |       11928 |
|     100 | 0x2E99      |       11929 |
|     101 | 0x2E9A      |       11930 |
|     102 | 0x2E9B      |       11931 |
|     103 | 0x2E9C      |       11932 |
|     104 | 0x2E9D      |       11933 |
|     105 | 0x2E9E      |       11934 |
|     106 | 0x2E9F      |       11935 |
|     107 | 0x2EA0      |       11936 |
|     108 | 0x2EA1      |       11937 |
|     109 | 0x2EA2      |       11938 |
|     110 | 0x0028      |          40 |
|     111 | 0x2EA3      |       11939 |
|     112 | 0x2EA4      |       11940 |
|     113 | 0x2EA5      |       11941 |
|     114 | 0x2EA6      |       11942 |
|     115 | 0x2EA7      |       11943 |
|     116 | 0x2EA8      |       11944 |
|     117 | 0x2EA9      |       11945 |
|     118 | 0x2EAA      |       11946 |
|     119 | 0x2EAB      |       11947 |
|     120 | 0x2EAC      |       11948 |
|     121 | 0x2EAD      |       11949 |
|     122 | 0x2EAE      |       11950 |
|     123 | 0x2EAF      |       11951 |
|     124 | 0x2EB0      |       11952 |
|     125 | 0x2EB1      |       11953 |
|     126 | 0x2EB2      |       11954 |
|     127 | 0x2EB3      |       11955 |
|     128 | 0x2EB4      |       11956 |
|     129 | 0x2EB5      |       11957 |
|     130 | 0x2EB6      |       11958 |
|     131 | 0x2EB7      |       11959 |
|     132 | 0x2EB8      |       11960 |
|     133 | 0x2EB9      |       11961 |
|     134 | 0x2EBA      |       11962 |
|     135 | 0x2EBB      |       11963 |
|     136 | 0x2EBC      |       11964 |
|     137 | 0x2EBD      |       11965 |
|     138 | 0x2EBE      |       11966 |
|     139 | 0x2EBF      |       11967 |
|     140 | 0x2EC0      |       11968 |
|     141 | 0x2EC1      |       11969 |
|     142 | 0x2EC2      |       11970 |
|     143 | 0x2EC3      |       11971 |
|     144 | 0x2EC4      |       11972 |
|     145 | 0x2EC5      |       11973 |
|     146 | 0x2EC6      |       11974 |
|     147 | 0x2EC7      |       11975 |
|     148 | 0x2EC8      |       11976 |
|     149 | 0x2EC9      |       11977 |
|     150 | 0x2ECA      |       11978 |
|     151 | 0x2ECB      |       11979 |
|     152 | 0x2ECC      |       11980 |
|     153 | 0x2ECD      |       11981 |
|     154 | 0x2ECE      |       11982 |
|     155 | 0x2ECF      |       11983 |
|     156 | 0x2ED0      |       11984 |
|     157 | 0x2ED1      |       11985 |
|     158 | 0x2ED2      |       11986 |
|     159 | 0x2ED3      |       11987 |
|     160 | 0x2ED4      |       11988 |
|     161 | 0x2ED5      |       11989 |
|     162 | 0x2ED6      |       11990 |
|     163 | 0x2ED7      |       11991 |
|     164 | 0x2ED8      |       11992 |
|     165 | 0x2ED9      |       11993 |
|     166 | 0x2EDA      |       11994 |
|     167 | 0x2EDB      |       11995 |
|     168 | 0x2EDC      |       11996 |
|     169 | 0x2EDD      |       11997 |
|     170 | 0x2EDE      |       11998 |
|     171 | 0x2EDF      |       11999 |
|     172 | 0x2EE0      |       12000 |
|     173 | 0x2EE1      |       12001 |
|     174 | 0x2EE2      |       12002 |
|     175 | 0x2EE3      |       12003 |
|     176 | 0x2EE4      |       12004 |
|     177 | 0x000A      |          10 |
|     178 | 0x2EE5      |       12005 |
|     179 | 0x2EE6      |       12006 |
|     180 | 0x2EE7      |       12007 |
|     181 | 0x2EE8      |       12008 |
|     182 | 0x2EE9      |       12009 |
|     183 | 0x2EEA      |       12010 |
|     184 | 0x2EEB      |       12011 |
|     185 | 0x2EEC      |       12012 |
|     186 | 0x2EED      |       12013 |
|     187 | 0x2EEE      |       12014 |
|     188 | 0x2EEF      |       12015 |
|     189 | 0x2EF0      |       12016 |
|     190 | 0x2EF1      |       12017 |
|     191 | 0x2EF2      |       12018 |
|     192 | 0x2EF3      |       12019 |
|     193 | 0x2EF4      |       12020 |
|     194 | 0x2EF6      |       12022 |
|     195 | 0x2EF7      |       12023 |
|     196 | 0x2EF8      |       12024 |
|     197 | 0x2EF9      |       12025 |
|     198 | 0x2EFA      |       12026 |
|     199 | 0x2EFB      |       12027 |
|     200 | 0x2EFC      |       12028 |
|     201 | 0x2EFD      |       12029 |
|     202 | 0x2EFE      |       12030 |
|     203 | 0x2EFF      |       12031 |
|     204 | 0x2F00      |       12032 |
|     205 | 0x2F01      |       12033 |
|     206 | 0x2F02      |       12034 |
|     207 | 0x2F03      |       12035 |
|     208 | 0x2F04      |       12036 |
|     209 | 0x2F05      |       12037 |
|     210 | 0x2F06      |       12038 |
|     211 | 0x2F07      |       12039 |
|     212 | 0x2F08      |       12040 |
|     213 | 0x4395      |       17301 |
|     214 | 0x2F09      |       12041 |
|     215 | 0x000F      |          15 |
|     216 | 0x2F50      |       12112 |
|     217 | 0x2F52      |       12114 |
|     218 | 0x2F51      |       12113 |
|     219 | 0x2F0A      |       12042 |
|     220 | 0x2F0B      |       12043 |
|     221 | 0x2F0C      |       12044 |
|     222 | 0x2F0D      |       12045 |
|     223 | 0x2F0E      |       12046 |
|     224 | 0x2F0F      |       12047 |
|     225 | 0x2F10      |       12048 |
|     226 | 0x2F11      |       12049 |
|     227 | 0x2F12      |       12050 |
|     228 | 0x2F13      |       12051 |
|     229 | 0x2F14      |       12052 |
|     230 | 0x2F15      |       12053 |
|     231 | 0x2F16      |       12054 |
|     232 | 0x2F17      |       12055 |
|     233 | 0x2F18      |       12056 |
|     234 | 0x2F19      |       12057 |
|     235 | 0x2F1A      |       12058 |
|     236 | 0x2F1B      |       12059 |
|     237 | 0x2F1C      |       12060 |
|     238 | 0x4764      |       18276 |
|     239 | 0x2F1D      |       12061 |
|     240 | 0x2F1E      |       12062 |
|     241 | 0x2F1F      |       12063 |
|     242 | 0x2F20      |       12064 |
|     243 | 0x2F21      |       12065 |
|     244 | 0x000B      |          11 |
|     245 | 0x2F22      |       12066 |
|     246 | 0x2F23      |       12067 |
|     247 | 0x2F24      |       12068 |
|     248 | 0x000C      |          12 |
|     249 | 0x2F48      |       12104 |
|     250 | 0x2F49      |       12105 |
|     251 | 0x2F4A      |       12106 |
|     252 | 0x0017      |          23 |
|     253 | 0x2F4C      |       12108 |
|     254 | 0x2F4D      |       12109 |
|     255 | 0x2F4E      |       12110 |
|     256 | 0x0016      |          22 |
|     257 | 0x000D      |          13 |
|     258 | 0x2F25      |       12069 |
|     259 | 0x2F26      |       12070 |
|     260 | 0x2F27      |       12071 |
|     261 | 0x2F28      |       12072 |
|     262 | 0x000E      |          14 |
|     263 | 0x2F29      |       12073 |
|     264 | 0x2F2A      |       12074 |
|     265 | 0x09DD      |        2525 |
|     266 | 0x2F2B      |       12075 |
|     267 | 0x2F2C      |       12076 |
|     268 | 0x2F2D      |       12077 |
|     269 | 0x426D      |       17005 |
|     270 | 0x2F2E      |       12078 |
|     271 | 0x2F2F      |       12079 |
|     272 | 0x0013      |          19 |
|     273 | 0x0010      |          16 |
|     274 | 0x2F30      |       12080 |
|     275 | 0x2F31      |       12081 |
|     276 | 0x119D      |        4509 |
|     277 | 0x2F32      |       12082 |
|     278 | 0x2F33      |       12083 |
|     279 | 0x0011      |          17 |
|     280 | 0x2F44      |       12100 |
|     281 | 0x2F45      |       12101 |
|     282 | 0x2F46      |       12102 |
|     283 | 0x2F47      |       12103 |
|     284 | 0x0018      |          24 |
|     285 | 0x0012      |          18 |
|     286 | 0x2F34      |       12084 |
|     287 | 0x2F35      |       12085 |
|     288 | 0x2F36      |       12086 |
|     289 | 0x2F37      |       12087 |
|     290 | 0x2F38      |       12088 |
|     291 | 0x2F39      |       12089 |
|     292 | 0x2F3A      |       12090 |
|     293 | 0x2F3B      |       12091 |
|     294 | 0x0014      |          20 |
|     295 | 0x2F3C      |       12092 |
|     296 | 0x2F3D      |       12093 |
|     297 | 0x2F3E      |       12094 |
|     298 | 0x0015      |          21 |
|     299 | 0x2F3F      |       12095 |
|     300 | 0x2F40      |       12096 |
|     301 | 0x2F41      |       12097 |
|     302 | 0x2F42      |       12098 |
|     303 | 0x2F43      |       12099 |

## String References

- **11840**: Well, hello there! Hm, me? Why, I'm Maruna-Kurina, the travel-waveling genius scholar! You won't find the likes of my strategies and tactics anywhere else, no [sir/ma'am].
- **11841**: Since the war started, I've been traveling far and wide to survey the extentaru of battle. To be honest, I've started to toy with the idea of lending my services directly to the alliance, should any nation express an interest.
- **11842**: Years I've spent, honing my wits to a fine, razor-wazor-sharp edge. Military history, strategy, theory, logistics, you name it! This war has presented the perfect opportunity, tragic as it is, to finally put my skills to the testaru!
- **11843**: Ahhh, a fellow bookworm, you say? How seldom it is one meets a fellow spirit. Would you be a member-wember of that Schultz School of Martial Theory that's been attracting so much attention recently? Or was itaru the Sturm School...?
- **11844**: So, might I presume that it is your proud [/Kingdom of San d'Oria/Republic of Bastok/Federation of Windurst] which desires my enlightened guidance? N-n-not that I'm interested in your Schultz School or anything like thataru!
- **11845**: If memory-wemory serves, Rainemard is currently serving on the frontlines of the [Royal Army/Republican Army/Federation Forces]. I wonder if he hasn't managed to catch on to something intriguing yet again...
- **11846**: How do I know Rainemard? Oh, the two of us go waaay back. N-n-not that I'm especially-wecially concerned with where he might be or what he mightaru be doing!
- **11847**: Well, it just so happens to be my own humble-wumble, yet highly educated opinion, that what the Allied Forces of Altana are currently lacking in spades is logistics.
- **11848**: I see countless adventurers simply signing up for random Campaign Ops with reckless abandon, paying no heed to the greater concerns of wartime funds or supplies. No way to win a war, no [sir/ma'am]. If there's one thing I know, it's thataru.
- **11849**: But imagine, I ask you, what would happen should all you soldiers take the time to analyze the information at your disposal, and act on those results. I tell you, there lies within the Allied Forces the potential-wential for a warring force the likes of which the Beastman Confederate could never stand against.
- **11850**: By the way, are you a member of the [/Knights of the Iron Ram/Seventh Cohors/Cobra Mercenaries]? Very impressive! That's quite the self-serv--errr... What I mean to say is, your unitaru is quite renown for its, how shall I say...individualistic tendencies.
- **11851**: It is most encouraging when one considers that you have the freedom to adapt your actions to the demands of the present moment. I would be willing to wager that it is adventurers such as yourself who will determine the outarucome of this war.
- **11852**: Well? I never was much of a motivational speaker, but have I whet your appetite for some knowledge-woledge? That's the spirit! Let us begin then, shall we? For starters, logistics! The key to any war. After that, I would be more than happy to offer some introductory lessons on military theory.
- **11853**: In what realm is your knowledge lacking? [Campaign tallies./Viewing national statistics./Viewing stronghold statistics./Campaign Ops./Opinion polls./Recruiting freelances./I want for no knowledge.]
- **11854**: Upon entering into an alliance with one another, the four nations drew up a wartime pact. In accordance with the stipulations therein, the single nation deemed to be the greatest contributor to the fighting within, or maintaining of, an area is temporarily granted domain over it.
- **11855**: Such rulings are doled outaru by the Grand Duchy of Jeuno, in all its wisdom, based on the intel reports of Campaign officials. Those reports as a whole are commonly referred to as "Campaign tallies."
- **11856**: From what I've seen, the fighting is usually at its most vehement-wehement just before Campaign tallies. That's because it's widely known that when influence over an area changes, crucial factors such as funds and resources are also affected. Not to mention the role it plays in boosting or lowering an army's spirits!
- **11857**: That's why things tend to get a little hectic on the frontarulines when a Campaign tally draws near.
- **11858**: Which statistic interests you? [Funds./Resources./Supplies./Reconnaissance./Skill./Production./Morale./Prosperity./Go back./Quit.]
- **11859**: "Funds" is a self-explanatory term. As you may have guessed, it means all of the money which a nation has to dedicate to its war endeavors.
- **11860**: The importance of money in war is difficult to overstate. Greater funds allow a nation to plan and carry out attacks, increase the number of troops available for dispatch, and even step up the quality of gear with which it outfits its units.
- **11861**: Funds decrease whenever a Campaign battle occurs. Most people don't seem to know this, but offensive and defensive battles tend to cost roughly the same amountaru.
- **11862**: A nation's wartime coffers also have a direct influence on their supply stores. When funds get too low, supplies will start to be sold off by the government to compensate.
- **11863**: Oh, and additional-witional funds are rewarded whenever influence over an area is gained. So it would be wise to keep an eye outaru just before and after Campaign tallies.
- **11864**: I don't think I need to tell you that the more areas a nation controls, the more funds it will collect. Also, the amount rewarded varies from area to area.
- **11865**: Other means for increasing funds exist as well. For example, by maintaining a high level of "prosperity." After all, if a nation does good by its people, it follows that their economic endeavors will benefit.
- **11866**: Well, you could learn any of what I've just told you from your run-of-the-mill military textbook. But, here's a little secret of mine. I've observed that achievements in a certain group of Campaign Ops serve to raise a nation's funds. But now I've gone and said too much! No good teacher divulges her students all the answers!
- **11867**: Your nation's funds may be checked by talking to an appropriate Campaign NPC in the capital. Available information is dependent on current reconnaissance ranking.
- **11868**: "Resources" are the strategic material reserves of a nation that allow it to conduct military operations.
- **11869**: And just so you don'taru get confused, allow me to clarify-warify. I'm not referring here to the resources of a single stronghold, mind you. Rather, this is an index of the resources of an entire nation.
- **11870**: In addition to being used to increase an army's supplies, resource stockpiles are also depleted by offensive undertakings and certain Campaign Ops.
- **11871**: What's more, they also have a directaru influence over wartime funds. As reason entails, insufficient resources require thataru a nation spend a little cash to purchase that which it lacks.
- **11872**: A nation's resources are regularly replenished based on the areas under its influence. So the times just prior-wior to and just after a Campaign tally are especially crucial.
- **11873**: The more areas a nation controls, the more resources it can procure. And certain areas are capable of rendering more resources than others.
- **11874**: And just between you and me, my studies indicate that achievements in certain Campaign Ops are directly linked to resource procurement. Well, that's wartime resources in a nutshell!
- **11875**: Your nation's resources may be checked by talking to an appropriate Campaign NPC in the capital. Available information is dependent on current reconnaissance ranking.
- **11876**: "Supplies" are the military-wilitary goods used to effectively sustain a war: equipment, sundries, rations, and the like. Nations produce these by expending their resources. You mightaru hear them categorically referred to as "temporary items."
- **11877**: Nations rich in supplies are able to better provide their strongholds with much-needed equipment and items directly from the capital.
- **11878**: Supply expenditure goes towards such activities as stronghold maintenance, outarufitting troops, and conducting certain Campaign Ops.
- **11879**: The amount of supplies at a nation's disposal is inextricably linked to its resources as well. After all, using resources implies that supply production is underway.
- **11880**: A nation's supplies are compounded regularly based on the areas under its influence. So always try and keep an eye out just before and after Campaign tallies.
- **11881**: Increases in supplies are naturally larger for nations with more areas under their control. And different areas generate varying-warying amountarus of supplies.
- **11882**: The total amount of supplies a nation can manufacture is heavily influenced by its production. But that's another lecture all in itself!
- **11883**: I've got it by a pretty good source that carrying out certain Campaign Ops serves to increase a nation's supplies. Well, that should do just fine by way of an introduction.
- **11884**: Your nation's supplies may be checked by talking to an appropriate Campaign NPC in the capital. Available information is dependent on current reconnaissance ranking.
- **11885**: "Reconnaissance" is an index of an army's intel. That is to say, how far their intelligence network extends.
- **11886**: High reconnaissance means that a nation is better able to ascertain the most up-to-date info on the movementarus and machinations of both friend and foe.
- **11887**: By now I hope you've seen the intelligence-welligence reports available from the Campaign deputies located in the nations' capitals. The more advanced reconnaissance is, the more detailed those reports will be.
- **11888**: There are a number of intel-gathering Campaign Ops in which achievement will serve to improve reconnaissance.
- **11889**: And just like other Campaign statistics, this one changes whenever a Campaign tally is conducted. But don't worry--so far I've yet to see a nation's reconnaissance plummet to zero. Still, it is ever wise to keep close tabs on your enemies, as well as your allies.
- **11890**: Your nation's reconnaissance may be checked by talking to an appropriate Campaign NPC in the capital. Available information is dependent on current reconnaissance ranking.
- **11891**: "Skill" denotes technological development, and manifestarus itself in the ability-wility to produce high-end equipment and weaponry.
- **11892**: Advancing skill ensures a nation will churn out cutting-edge gear to supply its frontlines. It is also required for the construction-wuction of siege equipment.
- **11893**: Still, all the technological skill in the world is useless withoutaru the funds to back it up. Production costs money, silly.
- **11894**: What's that? How do you go about improving your nation's skill? Well, I reckon the "troop training" Campaign Ops would be a good place to start.
- **11895**: Just to be clear, "skill" indicates the quality of supplies that can be turned out. "Production," on the other hand, refers to the quantity of supplies that a nation is capable of generating. Did I just blow your mind? Confusing, I know, but do try and see the difference.
- **11896**: Your nation's skill may be checked by talking to an appropriate Campaign NPC in the capital. Available information is dependent on current reconnaissance ranking.
- **11897**: "Production" is the ability to, well, produce anything that needs...producing. This can be items, armor, weapons, you name itaru!
- **11898**: And the name of the game is efficiency-wiciency! High production enables a nation to generate more supplies from less resources. If that isn't win-win, I don't know what is!
- **11899**: Alas, even otherworldly production will be utterly useless without a healthy amount of resources to drive it.
- **11900**: To that end, the nations have all organized the so-called "supply manufacture" operations, such as codename "Crystal Fist" and others.
- **11901**: Your nation's production may be checked by talking to an appropriate Campaign NPC in the capital. Available information is dependent on current reconnaissance ranking.
- **11902**: "Morale" will give you an idea of how eager-weager for battle an army is.
- **11903**: High morale allows an army to carry out successive attacks with only short respites in between. Nothing screams victory like an army that loves to fightaru!
- **11904**: Morale is an extremely dynamic factor in any war--as capricious as the hearts of the men it occupies. Fluctuations are heavily dependent on victory and defeataru in Campaign battles.
- **11905**: That being said, it is obvious to see how it is directly related to both offensive and defensive operations. It's a pretty simple thing, morale. That's really all there is to it.
- **11906**: A nation's morale may be checked from the Region Info menu's Campaign map. Simply move the cursor over a capital's symbol to display the information.
- **11907**: Ahhh, "prosperity." Another of war's fickle-wickle mistresses. Plainly put, this is the degree to which a nation's people trustaru in their governing body.
- **11908**: High prosperity works wonders for economic growth, which in turn means more duties, tariffs, and so on. In a word, funds!
- **11909**: Prosperity is in a constantaru state of flux based on the outcome of Campaign battles. And rightly so, as people can not hope to prosper should they feel constantly threatened.
- **11910**: To ensure the welfare of their citizenry, the alliance has established "security" Campaign Ops. These are effective in setting the minds of the people-weople at ease. Not a whole lotaru more to say about it.
- **11911**: A nation's prosperity may be checked from the Region Info menu's Campaign map. Simply move the cursor over a capital's symbol to display the information.
- **11912**: Which terminology will you ask about? [Fortifications./Maximum fortifications./Resources./Maximum Resources./Influence./Heroism Gauge./Go back./Quit.]
- **11913**: "Fortifications" represent the strength of a military force garrisoned at a stronghold. It is depleted when soldiers stationed there are defeated, or when the structural integrity of the stronghold itself is damaged directly-wectly.
- **11914**: A Campaign battle is deemed a defeataru by High Command should the fortifications fall below a pre-established amount.
- **11915**: So, stronghold fortifications in areas constantly plagued by heavy combat must be vigorously-wigorously maintained.
- **11916**: There are three ways of bolstering fortifications to facilities which have been compromised. First, you can simply waitaru for the injured soldiers to recover. This method, however, requires a considerable amount of time.
- **11917**: Second, you can wait for engineers to arrive and start rebuilding. For your nation, I believe that task falls within the jurisdiction-wiction of the [Knights of the Gold Badger/Fourth Division/Piscean War Warlocks].
- **11918**: Lastly, you can supplementaru the garrison by sending reinforcements. Successful completion of the "Vanguard-X" Campaign Ops will help refortify a war-torn stronghold.
- **11919**: Keep in mind, though, that a lack of funds will limitaru the number of forces available-wailable for dispatch. Which means that ultimately, fortifications will suffer. A war machine without money is akin to a lion without claws, I'm afraid.
- **11920**: A stronghold's fortifications may be checked from the Region Info menu's Campaign map. Simply move the cursor over a position to display the information. The number on the left is the current value, while the number on the right is the maximum available.
- **11921**: The total number of troops that a stronghold is capable of housing-wousing is referred to as its "maximum fortifications" ranking.
- **11922**: And it is just that. The absolute upper limit on the size of a stronghold's garrison. Regardless of a nation's funds or achievements, defensive capabilities can never go above this amountaru.
- **11923**: The other side of that coin is this. No matter how great a stronghold's maximum fortifications may be, without adequate-wadequate funds, it will lack the soldiers required to realize that potential.
- **11924**: What's that? Ahhh, you catch on quick. Yes, the maximum fortifications rank can indeed be raised. This is accomplished via-wia achievements in any of the "Steel Resolve" operations.
- **11925**: But remember this: all participants in this war, both friend and foe, have their own unique ways of reducing maximum fortifications as well. Specifically...
- **11926**: ...Well, you'll just have to mull that one over by yourself. Can't give up all my secret-wecrets!
- **11927**: A stronghold's fortifications may be checked from the Region Info menu's Campaign map. Simply move the cursor over a position to display the information. The number on the left is the current value, while the number on the right is the maximum available.
- **11928**: Alrightaru, this might be a bit confusing at first for the uninitiated, but do try to keep up. A local area's "resources" rating refers to the resource and supply stockpiles located at the stronghold.
- **11929**: This is a local-wocal rating, and separate altogether from the overall resource rating of an entire nation, mind you.
- **11930**: The more battles a stronghold endures, the more depletion its resource stockpiles will suffer. You can't make an omelet without breaking some eggs. And war is such a tasty omelettaru!
- **11931**: Local resources are consumed whenever temporary-wary items are dispensed to soldiers for defensive operations.
- **11932**: You would do well to remember that the "Crimson Domino" Ops are integral in this respectaru. Seeing those supply convoys safely to their destinations will do wonders for replenishing stronghold resources.
- **11933**: For your nation, such duties are traditionally-witionally taken up by the [/Knights of the Gold Badger/Fourth Division/Piscean War Warlocks].
- **11934**: Now try and wrap your mind around this! If the national resource and supply stockpiles are not maintained, there simply won't be enough surplus to bolster-wolster local stockpiles. Surely you can see the logic in this.
- **11935**: An area's resources may be checked from the Region Info menu's Campaign map. Simply move the cursor over a position to display the information. The number on the left is the current value, while the number on the right is the maximum available.
- **11936**: The limitaru placed on the greatest amount of resources a stronghold can store before literally-witerally bursting is known as its "maximum resources" ranking.
- **11937**: No matter how much surplus in resources and supplies a nation might have, the local stronghold limitation-wations cannot be exceeded.
- **11938**: The local resources of an area may be checked from the Region Info menu's Campaign map.
- **11939**: An area's maximum resources may be checked from the Region Info menu's Campaign map. Simply move the cursor over a position to display the information. The number on the left is the current value, while the number on the right is the maximum available.
- **11940**: "Influence" is used to convey how much control each competing-weting power has over a given area.
- **11941**: There is a total of four powers in all, which you should well know by now. The Beastman Confederate, on the one hand, and each of the nations of the Allied Forces, excluding Jeuno, on the other.
- **11942**: So, what happens is that following the results of the latest Campaign tally-wally, control of an area is relegated to the power which currently exertarus the most influence over it.
- **11943**: Your nation will gain a bit of influence in an area every time you defeat an enemy there. By the same token, loss at the hands of the beastman will result in their influence rising.
- **11944**: In the worst-case scenario, beastman influence will grow so profound that High Command will cut their losses and issue a strategic withdrawal. In other words, the area falls under beastman control.
- **11945**: Each nation then abandon-wandons any interests they had in that area, after which the beastmen typically move in droves to solidify their claim.
- **11946**: The influences vying for control of an area may be checked from the Region Info menu's Campaign map.
- **11947**: An excellent inquiry! The "heroism gauge" is still a fledgling theory in military scholastic-wastic circles. Only in recentaru years was it proposed to and adopted by Allied Forces High Command.
- **11948**: Not to brag, but it was actually I who developed the final theory. So, who better to explain it to you than the very Tarutaru who named it?
- **11949**: It occurred to me that any battlefield is, by definition, replete with a certain... How shall I put this? An air of intensity, an almost tangible, adrenaline-induced furor. No doubt this is broughtaru about by the teetering-weetering of lives in the balance.
- **11950**: The inquisitive scholar in me wondered if this phenomenon could not somehow be gauged and expressed numerically. This was the hypothesis with which I set out to develop-welop my theory.
- **11951**: Based on my thorough observations, I found that for every battle which took place in the subject area, my measurementarus would increase substantially.
- **11952**: And then my most startling discovery! Without fail, when my heroism gauge would approach its peak, battles would reach near astronomical-womical proportions! Beastman and ally, general and freelance. All come calling when the war fervor hails, lusting to claim their place in legend and song!
- **11953**: And what dramatic-watic battles they were! I have witnessed cataclysmic exchanges, over in the blink of an eye. Disastrous battles where the thirst for blood conquers reason, and countless throngs of haphazardly formed ranks throw themselves headlong into one another.
- **11954**: At the suggestion of my fellow scholars, my findings are now being made known to all member nations of the alliance-wiance.
- **11955**: In truth, it is still an unfinished theory, and there are many elementarus to be worked out. My hope is that it will serve to help us better comprehend the finer details of the flow of war.
- **11956**: An area's heroism gauge may be checked from the Region Info menu's Campaign map. Simply move the cursor over a position and the gauge will be displayed directly above or below the area name.
- **11957**: What would you like to know about? [Resource procurement./Supply transport./Security./Supply manufacture./Offensive operations./Defensive operations./Intel gathering./Military training./Achievements./Go back./Quit.]
- **11958**: As their name implies, achievements in Campaign Ops classified as "resource procurement" will result in direct augmentation to your nation's resource and supply stockpile-wiles.
- **11959**: More specifically, codename "Stock and Awe" was designed with the aim of securing resources, while codename "Materiel Storm" was planned for the sole purpose of amassing supplies.
- **11960**: Should supplies startaru to become meager, units will be unable to carry out their orders to completion, and other Campaign Ops will fall into arrears.
- **11961**: If a nation's resources begin to wane, production suffers and the number of supplies declines. Any way you slice it, a logistic bottleneck at any pointaru along the line spells an absolute nightmare for a warring nation.
- **11962**: Immediately following Campaign tally-wallies is when allotments of resources and supplies are carried out.
- **11963**: The unfortunate corollary to that, however, is that just prior to Campaign tallies is when stockpiles are at their lowestaru.
- **11964**: Which is why, to answer your initial inquiry, resource procurement is so significant-wificant. Their appeal lies in the fact that when successfully completed, resource and supply stockpiles receive immediate benefits.
- **11965**: Many military scholars even go so far as to refer to these operations as the prime movers of the allied effort. Perhaps the most integral of cogs at the very heartaru of the entire war machine.
- **11966**: "Supply transport" refers to those military operation-wations whereby resources and supplies are seen safely to the strongholds that need them.
- **11967**: There are varying operations with varying resultarus, so allow me to expand. Codename "Vanguard-X" solidifies stronghold fortifications by dispatching manpower, whereas codename "Crimson Domino" aims to replenish local resources via convoy-wonvoy deliveries.
- **11968**: The reasoning behind their importance is thus. Goddess forbid, should the fortifications or local resources of a stronghold become inadequate, the position will simply be overrun by the beastmen. They have a wicked talentaru for sniffing out such weaknesses.
- **11969**: Of course, no nation simply leaves any stronghold to vie for itself. There are regular-wegular dispatches of both men and material from the capitals. But my experience tells me that these are more protocol than pragmatism, and rarely reflectaru the latest wartime developments.
- **11970**: And that is where you vaga--valiant adventurers come in! Your freedoms allow you the unique ability to continually adapt to the situation at hand without heeding to anachronistic protocol-wotocol. Keeping an ear to the ground and conducting supply transport at a vital moment might just make you the white knight of some desperate garrison!
- **11971**: "Security" is that oft-overlooked category of operations which deals with seeing to the safety and welfare of a nation's citizenry. High Command implemented these ops for their role in increasing both prosperity-werity and the maximum fortifications.
- **11972**: Successful completion of operations codenamed "Streetsweeper" and "Delta Strike" boost prosperity among the people.
- **11973**: Nations with low prosperity often fall victim to stagnating-wating economies, ultimately resulting in lack of funds and fiscal woes. You can't expect people to get a good night's sleep and put in an honest day's work without providing a little homeland security.
- **11974**: Codename "Steel Resolve" is another security-based operation which bolsters the maximum fortifications of an allied stronghold.
- **11975**: The idea is to outfitaru positions with enhanced structural integrity to better withstand relentless-wentless beastman assaults. This is especially vital in heavily contested areas.
- **11976**: "Supply manufacture" operations provide the opportunity for a nation to bring about improvements in the arena-wenas of technology and industry.
- **11977**: Operations codenamed "Crystal Fist" and "Iron Anvil" were planned with the goal of marked advancements in skill and production, respectively.
- **11978**: Higher skill permits a nation's engineers to develop higher quality equipmentaru and weaponry. Its benefits on local fields of battle are undeniable.
- **11979**: When production is streamlined, mass production becomes possible-wossible. This has far-reaching effects for a nation's Campaign battles regardless of the location.
- **11980**: So, if you happen to fancy yourself adept at synthesis and know your craftarus, these just might be the operations for you.
- **11981**: The successful completion of "offensive operations" will result in palpable-walpable increases in both morale and funds.
- **11982**: These ops include codename "Smokescreen," "Pit Spider," "By Light of Fire," or any of the regional operations targeting specific beastman leaders. All of these will serve to boostaru an army's morale.
- **11983**: On top of that, achievements in this arena will also bring in funds.
- **11984**: Alas, as all things in war, there is a double-edge to this blade. Should you seek to defeat enemy leaders via operations codenamed "Splitting Heirs," "Cracking Shells," or "Plucking Wings" and suffer defeataru, the beastmen armies will be those shouting and raising their banners in triumph.
- **11985**: Lastly, it would be remiss of me not to mention that offensive operations do require the expenditure-wenditure of supplies.
- **11986**: "Defensive operations" can be extremely productive, as they help to increase not only prosperity-werity amongst the people, but also the reserves of resources and supplies as well.
- **11987**: You will see immediate and obvious returns in the prosperity of your citizenry from your exploitarus in operations codenamed "Aegis Scream" and "Granite Rose."
- **11988**: A byproductaru of this is a healthy boost to the national intake of resources and supplies.
- **11989**: Carrying out defensive operations will require that you expend some of your supplies in the process-wocess, though. Nothing in war is free, after all, save mayhap the glory.
- **11990**: A personal favorite of mine and one I cannot stress the importance-wortance of enough, "intel gathering"!
- **11991**: Espionage in all forms requires stealth and savvy, cunning and courage. Operations codenamed "Hawk Eye" and "Deep Cover" may place you in clear and present danger, but they will also increase your army's reconnaissance and place knowledge at its fingertips.
- **11992**: Nations are also always looking for the mostaru intrepid of souls to undertake operation codename "Slaughterhouse." A favorite of High Command, this pinpoint espionage weakens the beastman intelligence network from within, reducing their reconnaissance capabilities.
- **11993**: No nation would deign to send such dauntless-wauntless volunteers into the field unequipped. And that is why intel gathering taxes an army's supplies.
- **11994**: "Military training" is useful in preparing your troops for battle by both hardening their resolve and honing-woning their abilities.
- **11995**: Operation codename "Brave Dawn" increases an army's capacity for waging war, while codename "Cut and Cauterize" improves the performance of its physicians.
- **11996**: All of those training materials have to come from somewhere, though. Which is why military-wary training ops will cost you supplies.
- **11997**: According to Raine--I mean...looks like rain today, no? Anyway, this information is based on firstaru-person accounts from a fairly reliable-wiable source.
- **11998**: Campaign tallies record these so-called achievements for each category of operations.
- **11999**: Achievementarus will naturally rise every time a Campaign operation is carried out to completion.
- **12000**: The changes in factors such as resources, funds, and morale resulting from Campaign tallies are directly influenced by the achievements in correlated ops categories.
- **12001**: In addition, stellar-wellar achievements in any single category pave the way for related, higher-level operations to become available.
- **12002**: But try to be mindful of the current objectives of your army, as this effectarus availability as well.
- **12003**: What I mean to say is, even for equivalent achievements, there are times when High Command will make an operation readily available, and other times when they will not.
- **12004**: Changes in achievements are reflected in every Campaign tally, and have an effect on stockpile-wiles as well. Luckily, in all my days, I have never seen an achievement's value drop suddenly to zero.
- **12005**: Every nation conducts its own "opinion polls." Have you happened to come across any of the official-wicials recording the opinions of soldiers and adventurers? Those would be the pollers.
- **12006**: In my opinion, those who frequent the frontlines such as yourself should make better use of the polls.
- **12007**: Each nation has its own characteristic protocol based on long-standing established policies. Should polls not be made use of, the powers that be will have no choice but to rely upon their generals for counsel.
- **12008**: Which might not necessarily-warily always be a bad thing, except that counsel may not always be based on the latest intel. I myself have witnessed offenses ordered with no supply lines or funds to back them, and entire units resting on their laurels at the most opportune times to attack.
- **12009**: This is the river that opinion polls can help to ford! They allow High Command to know which generals have the supportaru of war-seasoned veterans, and provide a forum for the submission of strategies and feedback.
- **12010**: I have always been an advocate of compulsory-wulsory polls. Think of it! If all soldiers from the frontlines raised their voices, High Command would have no choice but to listen.
- **12011**: And consequently, more operations would become available in the category deemed to be most necessary at that time!
- **12012**: Sorry, I always get a but flustered talking about this. Anyway, the reviewing of poll resultarus is conducted regularly, much like Campaign tallies.
- **12013**: Hm? You don't know what opinion you should have? Well, that's just sad. Your opinions will come to you, so long as you keep a healthy skepticism and a critical-witical eye about you.
- **12014**: To give a brief example, if you are of the mind that it is time for an all-outaru offensive, then you should consider raising your voice in favor of a "preemptive strike" or "diversionary tactics."
- **12015**: If you think the situation-wation calls for patience and caution, then perhaps cast your vote for "battleline preservation" or "stronghold defenses."
- **12016**: It might be easiestaru to think of all of the options broken into two fundamental categories of offense and defense.
- **12017**: Rather than constantly worrying about maintaining a healthy balance of the two, there are times when a full frontal-wontal assault is required. Other times are best served by turtling up in strongholds and allowing wave after wave of beastmen to break upon your defenses.
- **12018**: If you can absorb everything I've taughtaru you, and just use your head, I guarantee the path to victory will present itself to you as clear as day! That's the Maruna-Kurina guarantee!
- **12019**: Oh and uhhh, if you ever happen to...well, gain an audience-waudience with any, say, importantaru people... Be sure to tell them that Maruna-Kurina helped you out!
- **12020**: Ask about whom? [Wait... What's headhunting?/Kagetora./Dalzakk./Rainemard./Maat./Azima./Choh Moui./Rongo-Nango./Ulla & Kilhwch./Achtelle./Duskraven./Lewenhart./Ferreous Coffin./Areuhat./Titania./Poroggo Prince./Babban Ny Mheillea./Auroral Alicorn./Boodlix./Raigegue R D'Oraguille./Eurytos./Kaiser Behemoth./Yours truly, Maruna-Kurina./Go back./Quit.]
- **12022**: I'm assuming by now that you've heard of the roaming-woaming mercenaries referred to as "freelances," yes? They value nothing more than their freedom, which is all well and good, but in the worstaru of times they may be swayed into arms against the Allied Forces.
- **12023**: As a genius military tactician, I cannot ignore the potential strength that these freelances are capable of lending an army. And it was this realization which acted as an impetus to my further studying the freelance subculture.
- **12024**: Recruiting a freelance to fight for your cause is a technique commonly known as "headhunting." Through my research, I have come to develop and map out a comprehensive psychology underlying the entire process-wocess!
- **12025**: Each freelance maintains a certain degree of "loyalty" towards every great power.
- **12026**: Whenever a headhunter actively pursues a freelance and attempts to win their favor, their loyalty towards thataru nation will rise.
- **12027**: At the time of a Campaign tally, the freelances will realign themselves with the nation with whom they share the strongestaru bond.
- **12028**: The trick to headhunting, then, is to try and become the nation a freelance holds dearest-wearest in his, her, or its heart of hearts.
- **12029**: Many freelances will even cast aside their disdain for city walls, and take up arms beside you within the very capital!
- **12030**: And being the capricious beings that they are, freelances will always be willing to entertain your proposals, even if they have currently pledged their fealty-wealty elsewhere.
- **12031**: Of course, if you begin to neglectaru them once winning them to your side, don't be surprised if they place their loyalties elsewhere. There's got to be an appropriate saying for that, I'm sure...
- **12032**: That's just the way they are. I've heard tales you wouldn't believe. From stories of nations' coffers swelling inexplicably after taking on resourceful freelances...
- **12033**: ...to bold-hearted heroes inspiring troops and bolstering an entire nation's morale!
- **12034**: Cloak-and-dagger freelances who assist in intel gathering, and questionable black market dealer-wealers who can always get their hands on sorely needed supplies. You name it, and there's a freelance out there who can, and has, done itaru!
- **12035**: Now I know what you're thinking. With allegiances constantly in flux, who in Goddess's name is going to be able to keep track of it all!?
- **12036**: You're looking at him! That's right, I have made it my personal-wersonal crusade to track the loyalties of all freelances as part of my research. And naturally, I will be making my findings available to the alliance's intelligence network.
- **12037**: At any rate, do try and give the freelances as warm a reception as possible whenever you happen across them. Your nation, and the Allied Forces as a whole, can only benefitaru in the long run.
- **12038**: Successfully headhunting Maruna-Kurina will allow you to ask him directly about freelances, including their current loyalties and other detailed information.
- **12039**: You can check on the achievements of your nation's freelances by speaking to the appropriate Campaign NPC in the capital. Available information is dependent on current reconnaissance ranking.
- **12040**: A Hume pirate-wirate hailing from Elshimo Island, Kagetora has made quite the name for himself. He comes from a long family line of ninjas, and rumor has it he sailed to these western lands in hot pursuitaru of a sworn enemy.
- **12041**: Not the most social chap at the party, but he does have profitable ties to the Tenshodo in Jeuno. A ninja with a ninja's pleasures, try to warm him up to you by giving him $0.
- **12042**: Ahhh, the wandering monk, said to have been trained in hand-to-hand combat by the legendary-wary Oggbi himself. He's known far and wide for his adventures and exploitarus. He can be seen running about Sauromugue Champaign as part of his daily regimen.
- **12043**: He's a sucker for high morale, and can barely contain himself once the conversation-wation turns to the topic of war. They say battle fever is contagious, you know. And he's always willing to talk it up with a fellow monk.
- **12044**: A powerful ally, indeed. Keep an eye on the heroism gauge with this one. He's an animal!
- **12045**: Good Rainemard once belonged to the Order of the Temple Knights. For a time, we were classmates together in our studies at the academy. N-n-not that I consider him a scholarly rival-wival or anything like thataru!
- **12046**: The last time I saw him he claimed he was heading to Jugner Forest to escape the hustle-bustle of the city. I only pray he didn't go poking his nose around where it didn't belong again...
- **12047**: If he's still the same old Rainemard, I suppose he still enjoys talking it up with other red mages. He also has an adorable-worable little daughter, and he loves to go on and on about her...incessantly.
- **12048**: Oh, you've heard of Maat? A regular living legend, that one. He's been living in Jeuno since it was no more than a flyspeck of a fishing village-willage. They say he's mastered every form of combataru there is!
- **12049**: I've run into him before in North Gustaberg. But rumor has it he is in charge of some very important tasks back at the Grand Duchy. I wonder how he finds the time to go for leisurely strolls so far away...
- **12050**: He has a rival too, you know? What was his name again... Hegen...no...Degenhard! That's it! He's been known to wreak havoc-wavoc on the battlefield every now and then.
- **12051**: He loves collecting those ancient papyrus testimonies, no matter what variety. He also has a penchantaru for ambitious souls, and is said to dote on those who have mastered three or more paths of their own.
- **12052**: They call Azima the "Hermitess of the Highlands," and she is almost universally-wersally regarded as the most skilled and feared bounty hunter in Vana'diel. It's not uncommon to glimpse her from time to time in North Gustaberg.
- **12053**: As of late they say she is utterly obsessed with all things alchemy. Those in the know will be the first to tell you, Azima is one best keptaru in good graces.
- **12054**: "Venomous Verminess," "Baroness of Bugdom," Choh Moui has almost as many monikers as she does pet pestarus. She's a Mithran beastmaster-waster who got her come-uppings in the south, but now makes her home in Crawler's Nest.
- **12055**: I'm not entirely sure of the reasons behind it, but they say she is in regular contactaru with a mercenary by the name of Duskraven.
- **12056**: She's accredited with inventing the pet foods now used by beastmasters the world round, and is always eagerly to get her hands on ingredients. She also loves to have others save her the hassle-wassle of rounding up her pets for her. What could she be up to...?
- **12057**: Perchance you've already espied him before. Rongo-Nango is that adorable little Tarutaru beastmaster who's always in the vicinity-winity of Fort Karugo-Narugo. He's absolutely infatuated with Lungo-Nango, the great warlord and tactician of Windurstian history.
- **12058**: After opposing the Parliament of Patriarchs, Lungo-Nango fell into disrepute and spentaru the remainder of his days in isolation and depression. For that reason, Rongo-Nango holds much of Windurst in contempt, and refuses to lay his loyalties with the Federation.
- **12059**: I've come to find out that he is quite fond of calling his beasts, and is also looking for more of the material-warials he needs to do so.
- **12060**: Ulla is a mysterious young girl. They say she bore witness to a divine revelation, and now wanders Vana'diel as a pilgrim-wilgrim knight. She's recently left her homelands of Bastok and ventured nearer the realms of San d'Oria.
- **12061**: Her devoted attendantaru Kilhwch is ever by her side, and carries with him the renowned sword $0. The thing is, he's a celebrated knight in his own right, giving many rise to wonder what could have caused him to pledge his fealty to another.
- **12062**: Like any young lady, Ulla has a soft spot for beautiful flower-wowers. If you seek to court a fair maiden, perhaps a bouquet mightaru be best.
- **12063**: Achtelle is a young Elvaan wyverness from Adoulin Isle to the west, the proud keeper-weepers of the last of the dragoon tradition. The draketamers there herald her as the most skilled of their order.
- **12064**: Since youth, she has held the legendary Ranperre of San d'Oria in highestaru esteem, and can oft be found seeking solace near his tomb.
- **12065**: I can promise you she would eagerly accept any type of present related to the king she so reveres. I hear it told she longs for nothing more than to find some surviving-wiving dragoons, that they might together preserve their heritage.
- **12066**: Duskraven is a sullen, grim-faced mercenary, distinguishable by his ominous-wominous greatsword, "Kyomon." Wayfarers and soldiers alike often recount seeing him in the vicinity of Batallia Downs, but for what purpose and to whataru end, none can say.
- **12067**: His underlings, the Dusk Raiders, answer to his beck and call, and such powers lead many to surmise that he is no stranger to the nether-wether realms.
- **12068**: He is a straight shooter, though. If you hope to curry favor with him, you need nothing more than cold cash. He seems to blow right through it as soon as he gets it, and is always looking for more. What he spends itaru on, I couldn't say.
- **12069**: Many have seen this fair young Elvaan maid walking undeterred amongst the now hostile-wostile grounds of Grauberg. All who gaze upon her tell of her godlike aura and stunning beauty.
- **12070**: Word has it that she is of frail constitution, and grants her favor on those gracious enough to spare her medicines. I myself went and bestowed such gifts upon her, and can attest to the truth of itaru.
- **12071**: She is also known to dote upon those who take up the defense of her Grauberg. Some of her more fanatic-watic fans are said to be providing her with an enormous quantity of a certain item...
- **12072**: When her loyalties are won, the men speak of a giant wyrm which takes to the battlefield! Such heated talk--no doubt itaru would be wise to mind the heroism gauge should you want to catch a glimpse for yourself.
- **12073**: Titania is the name of the celebrated Queen of Pixies from the classic Bastokan drama, "Midwinter Dream."
- **12074**: Of course, that is no more than a tale of fantasy to delight children. We all know that pixies don't exist in the real-- What!? You've seen one? Are you having a jape at my expense!?
- **12075**: Well, what I do know for certain-wertain is this. Nothing. Only that rumors suggest offering $0 to the Witchfire Glen in Grauberg will help in headhunting...whatever this being may be. N-n-not thataru I'm dying to find out or anything!
- **12076**: Fanciful-wanciful fairy tales about a frog princess have been passed down in Windurst since days of eld.
- **12077**: Some say the newcome prince of these froglike beastmen has been seen leaping and bounding about the frontlines of battle. No doubt the figment of some delusional soldier's imagination, but still...
- **12078**: Folklore always spoke of their insatiable-watiable appetites, and now soldiers would tell that feeding them will actually help win them to our cause. "Give him $0," they say, "and the frog prince will requite!" I can't make heads or tails of it...
- **12079**: N-n-not thataru I bother myself with such childish topics!
- **12080**: Unprecedented in hitory-wistory, there has recently been an affable plantoid befriending soldiers on the battlefield. It most closely resembles one of those mandragora known to inhabitaru the wilds to the west.
- **12081**: Is that a shred of doubt I sense!? I've seen it with my own eyes, I tell you! This is no figment of the imagination or some delusional soldier's hallucination! Still don't believe me?
- **12082**: Head on over to the Meriphataud Mountains and try trading $0 or some fertilizer to the odd little treeman you find. He just might be moved to come and help you out in a fightaru!
- **12083**: Regardless, I wonder what it is he could possibly be doing here... N-n-not that I am about to startaru stalking him to find out or anything!
- **12084**: (Shhh! Keep your voice down. "The" Boodlix? The very same who heads his own "trading-wading company"?)
- **12085**: (Well, they say his trade is death! And deal in it he does, if the rumors are to be believed. Some claim to have actually laid eyes on his hidden fortress and lived to tell the tale. They say it's there he greedily occupies himself with counting his blood-money.)
- **12086**: (What? Have you completely-wetely lost your mind, [man/woman]!? Why in Goddess's name would you want to headhuntaru him? Still, he is supposedly well-connected, even to the Allied Forces, as the wealthy are wont to be. But the Beastman Confederate knows his value as well... Hmmm, sounds like trouble-wouble to me.)
- **12087**: (When the war is over, it is the supply firms that slowly lose their livelihoods. I suppose when you look at it from thataru angle, he could possibly be swayed to fight for either side.)
- **12088**: Some 150 years ago, San d'Oria was ruled by one King Raigegue the Lupine. The freelance you ask of now bears the same name as thataru king, though none know how or why.
- **12089**: He is remembered as a tragic monarch, responsible for leading San d'Oria to utter defeat at the hands of Bastok's preeminent scholar and military tactician-wician, Gunther Schultz, at the Second Battle of Konschtat. What followed was an age of chaos and despair, as the Kingdom was ravaged by civil war.
- **12090**: They say this spectre-wectre of the same name is none other than Raigegue the Lupine himself, led back from the grave by the fire of his wrath. He haunts The Eldieme Necropolis. The skeptic in me suspects some exaggeration-wation is at work here...
- **12091**: Huh!? Headhunting? The undead!? I-I... I have no idea how to respond to thataru. You've left me absolutely speechless-weechless.
- **12092**: Eurytos is the battle-hardened leader of a group of mercenary Gigas from the far north. At the onset of the war, the Beastman Confederate took them into their service. But recently it would seem Eurytos has completely-wetely removed himself from the confederate's chain of command.
- **12093**: His might and prowess in battle have led many to speculate that his line is that of the Gigas gods. He is truly a force to be reckoned with. For now, his unit has established their compound-wompound somewhere in Vunkerl Inlet.
- **12094**: Though to be fair, there is precedent for the Gigas fighting under allied banners. After all, they did fight for Bastok in the Second Battle of Konschtataru. I wonder... Could the great Eurytos possibly be rallied-wallied to our cause?
- **12095**: This behemoth among behemoths has been roaming Vunkerl Inlet for hundreds upon hundreds of years.
- **12096**: So many would-be hero-weroes have died in the maws of this great beast that nobody even attempts to keep count any longer. Some say its ancientaru age and scar-heavy hide indicate it is not nearly as powerful as it once was. Yet still, you would be a fool to underestimate this fiend, I promise you.
- **12097**: Headhunting? For the Allied Forces!? I'm not even going to dignify that with a response... Although, you have to admitaru, the thought of it alone is quite amusing. Hehehe!
- **12098**: Who, me? Ohhh, right! I totally forgot. You're right, for all intents and purposes, I too am technically-wechnically a freelance.
- **12099**: I enjoy long walks on the beach aaand... Oh yes, nothing excites me more than conversing with fellow scholars! N-n-not thataru I would want to know anything in particular about where Rainemard might be!
- **12100**: Current taxonomy teaches us that at presentaru, the monoceros family contains few known specimens. Those that are classified exhibit great horn spire-wires jutting from their majestic heads, and are either born of light, or of darkness.
- **12101**: An influx of eyewitness accounts in recent days all point to the undeniable existence of the beastaru named Dark Ixion. Tempered like a storm and ever wary, both allies and beastman alike tend to keep their distance.
- **12102**: The other is dubbed Auroral Alicorn and exhibits a brilliantaru shade of white and a calm, gentle demeanor. The two couldn't be more dissimilar-wimilar.
- **12103**: Though almost never seen in the wild prior to the war, Auroral Alicorn has recently been sighted in Jugner Forest, some say nursing wounds.
- **12104**: Lewenhart is a traveling-waveling bard who has become a favorite amongst the troops, instilling hope and courage with his singing. It turns out that almostaru nothing helps morale as a much as a good song.
- **12105**: They say he prefers to stay close to a certain tomb in The Eldieme Necropolis, where his requiems can be heard far and wide.
- **12106**: He often asks for holy water as payment for his songs, which he puts to cermonial-wonial use. And as with most musicians, he loves exchanging in song and banter with fellow bards.
- **12108**: A most virtuous priest, who wanders all corners of Vana'diel, filling his belly-welly bread and alms. Some swear they've seen a twisted smile on his face as he buries his enemies and offers up prayers in their name.
- **12109**: He came from the far north, and recently has been spending much of his time in Batallia Downs. Whatever is said of him, there can be no questioning his faith in the Goddess, thataru's for sure.
- **12110**: He was never one to talk much, and certainly not one to mince words when he does. It seems he prefers the company of white mages, though. I've heard it said that he has been lending-wending his fists to the Allied Forces as of late.
- **12112**: (By the way, the latest reportarus have it that this freelance is [utterly independent/in the service of San d'Oria/in the service of Bastok/in the service of Windurst/in the service of the Beastman Confederate/].)
- **12113**: (And if my intel is correctaru, this freelance will [almost definitely/most probably/likely] be in [San d'Oria/Bastok/Windurst/the Beastman Confederate] after the next Campaign tally-wally.)
- **12114**: (There's no telling-welling where this freelance will lay their loyalties nextaru...)

## Events

### Event 65535

#### Metadata

| Field        | Value   |
|--------------|---------|
| Entrypoint   | 0x0000  |
| Data Size    | 1 bytes |
| Instructions | 1       |

```
      00 01 02 03 04 05 06 07  08 09 0A 0B 0C 0D 0E 0F
      -- -- -- -- -- -- -- --  -- -- -- -- -- -- -- --
0000: 00                                                .               
```

#### Opcodes

```
  0: 0x0000 [0x00] END_REQSTACK()
```

### Event 520

#### Metadata

| Field        | Value      |
|--------------|------------|
| Entrypoint   | 0x0001     |
| Data Size    | 3197 bytes |
| Instructions | 993        |

```
      00 01 02 03 04 05 06 07  08 09 0A 0B 0C 0D 0E 0F
      -- -- -- -- -- -- -- --  -- -- -- -- -- -- -- --
0000:    20 01 42 1E F0 FF FF  7F 03 00 00 02 10 03 01    .B............
0010: 00 03 10 03 02 00 04 10  03 03 00 05 10 02 00 00  ................
0020: 00 80 80 34 00 1D 01 80  23 1D 02 80 23 1D 03 80  ...4....#...#...
0030: 23 01 7A 0C 02 00 00 04  80 80 64 00 02 03 00 00  #.z.......d.....
0040: 80 00 54 00 1D 05 80 23  03 02 10 01 00 1D 06 80  ..T....#........
0050: 23 01 61 00 03 02 10 01  00 1D 07 80 23 1D 08 80  #.a.........#...
0060: 23 01 7A 0C 02 00 00 09  80 80 7A 0C 1D 0A 80 23  #.z.......z....#
0070: 1D 0B 80 23 1D 0C 80 23  03 02 10 01 00 1D 0D 80  ...#...#........
0080: 23 1D 0E 80 23 1D 0F 80  23 02 07 00 00 80 00 77  #...#...#......w
0090: 0C 03 08 00 00 80 24 10  80 00 80 00 80 25 02 00  ......$......%..
00A0: 10 00 80 00 B9 00 1D 11  80 23 1D 12 80 23 1D 13  .........#...#..
00B0: 80 23 1D 14 80 23 01 74  0C 02 00 10 04 80 00 33  .#...#.t.......3
00C0: 02 02 08 00 00 80 00 30  02 24 15 80 00 80 00 80  .......0.$......
00D0: 25 02 00 10 00 80 00 02  01 1D 16 80 23 1D 17 80  %...........#...
00E0: 23 1D 18 80 23 1D 19 80  23 1D 1A 80 23 1D 1B 80  #...#...#...#...
00F0: 23 1D 1C 80 23 1D 1D 80  23 48 1E 80 1C 1F 80 01  #...#...#H......
0100: 2D 02 02 00 10 04 80 00  2F 01 1D 20 80 23 1D 21  -......./.. .#.!
0110: 80 23 1D 22 80 23 1D 23  80 23 1D 24 80 23 1D 25  .#.".#.#.#.$.#.%
0120: 80 23 1D 26 80 23 48 27  80 1C 1F 80 01 2D 02 02  .#.&.#H'.....-..
0130: 00 10 09 80 00 60 01 1D  28 80 23 1D 29 80 23 1D  .....`..(.#.).#.
0140: 2A 80 23 1D 2B 80 23 1D  2C 80 23 1D 2D 80 23 1D  *.#.+.#.,.#.-.#.
0150: 2E 80 23 1D 2F 80 23 48  30 80 1C 1F 80 01 2D 02  ..#./.#H0.....-.
0160: 02 00 10 31 80 00 85 01  1D 32 80 23 1D 33 80 23  ...1.....2.#.3.#
0170: 1D 34 80 23 1D 35 80 23  1D 36 80 23 48 37 80 1C  .4.#.5.#.6.#H7..
0180: 1F 80 01 2D 02 02 00 10  38 80 00 AA 01 1D 39 80  ...-....8.....9.
0190: 23 1D 3A 80 23 1D 3B 80  23 1D 3C 80 23 1D 3D 80  #.:.#.;.#.<.#.=.
01A0: 23 48 3E 80 1C 1F 80 01  2D 02 02 00 10 3F 80 00  #H>.....-....?..
01B0: CF 01 1D 40 80 23 1D 41  80 23 1D 42 80 23 1D 43  ...@.#.A.#.B.#.C
01C0: 80 23 1D 3D 80 23 48 44  80 1C 1F 80 01 2D 02 02  .#.=.#HD.....-..
01D0: 00 10 45 80 00 F0 01 1D  46 80 23 1D 47 80 23 1D  ..E.....F.#.G.#.
01E0: 48 80 23 1D 49 80 23 48  4A 80 1C 1F 80 01 2D 02  H.#.I.#HJ.....-.
01F0: 02 00 10 4B 80 00 11 02  1D 4C 80 23 1D 4D 80 23  ...K.....L.#.M.#
0200: 1D 4E 80 23 1D 4F 80 23  48 50 80 1C 1F 80 01 2D  .N.#.O.#HP.....-
0210: 02 02 00 10 51 80 00 21  02 03 08 00 04 80 01 2D  ....Q..!.......-
0220: 02 02 00 10 52 80 00 2D  02 21 01 2D 02 01 C1 00  ....R..-.!.-....
0230: 01 74 0C 02 00 10 09 80  00 6E 03 02 08 00 00 80  .t.......n......
0240: 00 6B 03 24 53 80 00 80  00 80 25 02 00 10 00 80  .k.$S.....%.....
0250: 00 78 02 1D 54 80 23 1D  55 80 23 1D 56 80 23 1D  .x..T.#.U.#.V.#.
0260: 57 80 23 1D 58 80 23 1D  59 80 23 1D 5A 80 23 48  W.#.X.#.Y.#.Z.#H
0270: 5B 80 1C 1F 80 01 68 03  02 00 10 04 80 00 A1 02  [.....h.........
0280: 1D 5C 80 23 1D 5D 80 23  1D 5E 80 23 1D 5F 80 23  .\.#.].#.^.#._.#
0290: 1D 60 80 23 1D 61 80 23  48 62 80 1C 1F 80 01 68  .`.#.a.#Hb.....h
02A0: 03 02 00 10 09 80 00 CE  02 1D 63 80 23 1D 64 80  ..........c.#.d.
02B0: 23 1D 65 80 23 1D 66 80  23 1D 67 80 23 1D 68 80  #.e.#.f.#.g.#.h.
02C0: 23 1D 69 80 23 48 6A 80  1C 1F 80 01 68 03 02 00  #.i.#Hj.....h...
02D0: 10 31 80 00 ED 02 1D 6B  80 23 1D 6C 80 23 48 6D  .1.....k.#.l.#Hm
02E0: 80 1C 6E 80 48 6F 80 1C  1F 80 01 68 03 02 00 10  ..n.Ho.....h....
02F0: 38 80 00 1A 03 1D 70 80  23 1D 71 80 23 1D 11 80  8.....p.#.q.#...
0300: 23 1D 72 80 23 1D 73 80  23 1D 74 80 23 1D 75 80  #.r.#.s.#.t.#.u.
0310: 23 48 76 80 1C 1F 80 01  68 03 02 00 10 3F 80 00  #Hv.....h....?..
0320: 4C 03 1D 77 80 23 1D 78  80 23 1D 79 80 23 1D 7A  L..w.#.x.#.y.#.z
0330: 80 23 1D 7B 80 23 1D 7C  80 23 1D 7D 80 23 1D 7E  .#.{.#.|.#.}.#.~
0340: 80 23 1D 7F 80 23 48 80  80 01 68 03 02 00 10 45  .#...#H...h....E
0350: 80 00 5C 03 03 08 00 04  80 01 68 03 02 00 10 4B  ..\.......h....K
0360: 80 00 68 03 21 01 68 03  01 3B 02 01 74 0C 02 00  ..h.!.h..;..t...
0370: 10 31 80 00 C7 04 02 08  00 00 80 00 C4 04 24 81  .1............$.
0380: 80 00 80 00 80 25 02 00  10 00 80 00 B1 03 1D 82  .....%..........
0390: 80 23 1D 83 80 23 1D 84  80 23 1D 85 80 23 1D 86  .#...#...#...#..
03A0: 80 23 1D 87 80 23 1D 88  80 23 1D 89 80 23 01 C1  .#...#...#...#..
03B0: 04 02 00 10 04 80 00 D0  03 1D 8A 80 23 1D 8B 80  ............#...
03C0: 23 1D 8C 80 23 1D 8D 80  23 1D 8E 80 23 01 C1 04  #...#...#...#...
03D0: 02 00 10 09 80 00 EF 03  1D 8F 80 23 1D 90 80 23  ...........#...#
03E0: 1D 91 80 23 1D 92 80 23  1D 93 80 23 01 C1 04 02  ...#...#...#....
03F0: 00 10 31 80 00 0E 04 1D  94 80 23 1D 95 80 23 1D  ..1.......#...#.
0400: 96 80 23 1D 97 80 23 1D  98 80 23 01 C1 04 02 00  ..#...#...#.....
0410: 10 38 80 00 2D 04 1D 99  80 23 1D 9A 80 23 1D 9B  .8..-....#...#..
0420: 80 23 1D 9C 80 23 1D 9D  80 23 01 C1 04 02 00 10  .#...#...#......
0430: 3F 80 00 48 04 1D 9E 80  23 1D 9F 80 23 1D A0 80  ?..H....#...#...
0440: 23 1D A1 80 23 01 C1 04  02 00 10 45 80 00 63 04  #...#......E..c.
0450: 1D A2 80 23 1D A3 80 23  1D A4 80 23 1D A5 80 23  ...#...#...#...#
0460: 01 C1 04 02 00 10 4B 80  00 7A 04 1D A6 80 23 1D  ......K..z....#.
0470: A7 80 23 1D A8 80 23 01  C1 04 02 00 10 51 80 00  ..#...#......Q..
0480: A5 04 1D A9 80 23 1D AA  80 23 1D AB 80 23 1D AC  .....#...#...#..
0490: 80 23 1D AD 80 23 1D AE  80 23 1D AF 80 23 1D B0  .#...#...#...#..
04A0: 80 23 01 C1 04 02 00 10  52 80 00 B5 04 03 08 00  .#......R.......
04B0: 04 80 01 C1 04 02 00 10  B1 80 00 C1 04 21 01 C1  .............!..
04C0: 04 01 76 03 01 74 0C 02  00 10 38 80 00 0E 05 1D  ..v..t....8.....
04D0: B2 80 23 1D B3 80 23 1D  B4 80 23 1D B5 80 23 1D  ..#...#...#...#.
04E0: B6 80 23 1D B7 80 23 1D  B8 80 23 1D B9 80 23 1D  ..#...#...#...#.
04F0: BA 80 23 1D BB 80 23 1D  BC 80 23 1D BD 80 23 1D  ..#...#...#...#.
0500: BE 80 23 1D BF 80 23 1D  C0 80 23 01 74 0C 02 00  ..#...#...#.t...
0510: 10 3F 80 00 68 0C 02 08  00 00 80 00 65 0C 24 C1  .?..h.......e.$.
0520: 80 00 80 00 80 25 02 00  10 00 80 00 7D 05 1D C2  .....%......}...
0530: 80 23 1D C3 80 23 1D C4  80 23 1D C5 80 23 1D C6  .#...#...#...#..
0540: 80 23 1D C7 80 23 1D C8  80 23 1D C9 80 23 1D CA  .#...#...#...#..
0550: 80 23 1D CB 80 23 1D CC  80 23 1D CD 80 23 1D CE  .#...#...#...#..
0560: 80 23 1D CF 80 23 1D D0  80 23 1D D1 80 23 48 D2  .#...#...#...#H.
0570: 80 1C 6E 80 48 D3 80 1C  1F 80 01 62 0C 02 00 10  ..n.H......b....
0580: 04 80 00 DB 05 1D D4 80  23 03 02 10 D5 80 1D D6  ........#.......
0590: 80 23 40 00 80 4B 80 01  10 04 80 40 51 80 D7 80  .#@..K.....@Q...
05A0: 01 10 09 80 43 00 43 01  03 05 00 03 10 03 06 00  ....C.C.........
05B0: 04 10 03 00 00 05 10 1D  D8 80 23 02 00 00 00 80  ..........#.....
05C0: 00 CA 05 1D D9 80 23 01  D8 05 03 03 10 05 00 03  ......#.........
05D0: 04 10 06 00 1D DA 80 23  01 62 0C 02 00 10 09 80  .......#.b......
05E0: 00 38 06 1D DB 80 23 1D  DC 80 23 1D DD 80 23 40  .8....#...#...#@
05F0: 00 80 4B 80 01 10 04 80  40 51 80 D7 80 01 10 31  ..K.....@Q.....1
0600: 80 43 00 43 01 03 05 00  03 10 03 06 00 04 10 03  .C.C............
0610: 00 00 05 10 1D D8 80 23  02 00 00 00 80 00 27 06  .......#......'.
0620: 1D D9 80 23 01 35 06 03  03 10 05 00 03 04 10 06  ...#.5..........
0630: 00 1D DA 80 23 01 62 0C  02 00 10 31 80 00 95 06  ....#.b....1....
0640: 1D DE 80 23 1D DF 80 23  1D E0 80 23 40 00 80 4B  ...#...#...#@..K
0650: 80 01 10 04 80 40 51 80  D7 80 01 10 38 80 43 00  .....@Q.....8.C.
0660: 43 01 03 05 00 03 10 03  06 00 04 10 03 00 00 05  C...............
0670: 10 1D D8 80 23 02 00 00  00 80 00 84 06 1D D9 80  ....#...........
0680: 23 01 92 06 03 03 10 05  00 03 04 10 06 00 1D DA  #...............
0690: 80 23 01 62 0C 02 00 10  38 80 00 F6 06 1D E1 80  .#.b....8.......
06A0: 23 1D E2 80 23 1D E3 80  23 1D E4 80 23 40 00 80  #...#...#...#@..
06B0: 4B 80 01 10 04 80 40 51  80 D7 80 01 10 3F 80 43  K.....@Q.....?.C
06C0: 00 43 01 03 05 00 03 10  03 06 00 04 10 03 00 00  .C..............
06D0: 05 10 1D D8 80 23 02 00  00 00 80 00 E5 06 1D D9  .....#..........
06E0: 80 23 01 F3 06 03 03 10  05 00 03 04 10 06 00 1D  .#..............
06F0: DA 80 23 01 62 0C 02 00  10 3F 80 00 4F 07 1D E5  ..#.b....?..O...
0700: 80 23 1D E6 80 23 40 00  80 4B 80 01 10 04 80 40  .#...#@..K.....@
0710: 51 80 D7 80 01 10 45 80  43 00 43 01 03 05 00 03  Q.....E.C.C.....
0720: 10 03 06 00 04 10 03 00  00 05 10 1D D8 80 23 02  ..............#.
0730: 00 00 00 80 00 3E 07 1D  D9 80 23 01 4C 07 03 03  .....>....#.L...
0740: 10 05 00 03 04 10 06 00  1D DA 80 23 01 62 0C 02  ...........#.b..
0750: 00 10 45 80 00 AC 07 1D  E7 80 23 1D E8 80 23 1D  ..E.......#...#.
0760: E9 80 23 40 00 80 4B 80  01 10 04 80 40 51 80 D7  ..#@..K.....@Q..
0770: 80 01 10 4B 80 43 00 43  01 03 05 00 03 10 03 06  ...K.C.C........
0780: 00 04 10 03 00 00 05 10  1D D8 80 23 02 00 00 00  ...........#....
0790: 80 00 9B 07 1D D9 80 23  01 A9 07 03 03 10 05 00  .......#........
07A0: 03 04 10 06 00 1D DA 80  23 01 62 0C 02 00 10 4B  ........#.b....K
07B0: 80 00 09 08 1D EA 80 23  1D EB 80 23 1D EC 80 23  .......#...#...#
07C0: 40 00 80 4B 80 01 10 04  80 40 51 80 D7 80 01 10  @..K.....@Q.....
07D0: 51 80 43 00 43 01 03 05  00 03 10 03 06 00 04 10  Q.C.C...........
07E0: 03 00 00 05 10 1D D8 80  23 02 00 00 00 80 00 F8  ........#.......
07F0: 07 1D D9 80 23 01 06 08  03 03 10 05 00 03 04 10  ....#...........
0800: 06 00 1D DA 80 23 01 62  0C 02 00 10 51 80 00 6B  .....#.b....Q..k
0810: 08 1D ED 80 23 03 02 10  EE 80 1D EF 80 23 1D F0  ....#........#..
0820: 80 23 40 00 80 4B 80 01  10 04 80 40 51 80 D7 80  .#@..K.....@Q...
0830: 01 10 52 80 43 00 43 01  03 05 00 03 10 03 06 00  ..R.C.C.........
0840: 04 10 03 00 00 05 10 1D  D8 80 23 02 00 00 00 80  ..........#.....
0850: 00 5A 08 1D D9 80 23 01  68 08 03 03 10 05 00 03  .Z....#.h.......
0860: 04 10 06 00 1D DA 80 23  01 62 0C 02 00 10 52 80  .......#.b....R.
0870: 00 C8 08 1D F1 80 23 1D  F2 80 23 1D F3 80 23 40  ......#...#...#@
0880: 00 80 4B 80 01 10 04 80  40 51 80 D7 80 01 10 F4  ..K.....@Q......
0890: 80 43 00 43 01 03 05 00  03 10 03 06 00 04 10 03  .C.C............
08A0: 00 00 05 10 1D D8 80 23  02 00 00 00 80 00 B7 08  .......#........
08B0: 1D D9 80 23 01 C5 08 03  03 10 05 00 03 04 10 06  ...#............
08C0: 00 1D DA 80 23 01 62 0C  02 00 10 B1 80 00 25 09  ....#.b.......%.
08D0: 1D F5 80 23 1D F6 80 23  1D F7 80 23 40 00 80 4B  ...#...#...#@..K
08E0: 80 01 10 04 80 40 51 80  D7 80 01 10 F8 80 43 00  .....@Q.......C.
08F0: 43 01 03 05 00 03 10 03  06 00 04 10 03 00 00 05  C...............
0900: 10 1D D8 80 23 02 00 00  00 80 00 14 09 1D D9 80  ....#...........
0910: 23 01 22 09 03 03 10 05  00 03 04 10 06 00 1D DA  #.".............
0920: 80 23 01 62 0C 02 00 10  F4 80 00 82 09 1D F9 80  .#.b............
0930: 23 1D FA 80 23 1D FB 80  23 40 00 80 4B 80 01 10  #...#...#@..K...
0940: 04 80 40 51 80 D7 80 01  10 FC 80 43 00 43 01 03  ..@Q.......C.C..
0950: 05 00 03 10 03 06 00 04  10 03 00 00 05 10 1D D8  ................
0960: 80 23 02 00 00 00 80 00  71 09 1D D9 80 23 01 7F  .#......q....#..
0970: 09 03 03 10 05 00 03 04  10 06 00 1D DA 80 23 01  ..............#.
0980: 62 0C 02 00 10 F8 80 00  DF 09 1D FD 80 23 1D FE  b............#..
0990: 80 23 1D FF 80 23 40 00  80 4B 80 01 10 04 80 40  .#...#@..K.....@
09A0: 51 80 D7 80 01 10 00 81  43 00 43 01 03 05 00 03  Q.......C.C.....
09B0: 10 03 06 00 04 10 03 00  00 05 10 1D D8 80 23 02  ..............#.
09C0: 00 00 00 80 00 CE 09 1D  D9 80 23 01 DC 09 03 03  ..........#.....
09D0: 10 05 00 03 04 10 06 00  1D DA 80 23 01 62 0C 02  ...........#.b..
09E0: 00 10 01 81 00 40 0A 1D  02 81 23 1D 03 81 23 1D  .....@....#...#.
09F0: 04 81 23 1D 05 81 23 40  00 80 4B 80 01 10 04 80  ..#...#@..K.....
0A00: 40 51 80 D7 80 01 10 01  81 43 00 43 01 03 05 00  @Q.......C.C....
0A10: 03 10 03 06 00 04 10 03  00 00 05 10 1D D8 80 23  ...............#
0A20: 02 00 00 00 80 00 2F 0A  1D D9 80 23 01 3D 0A 03  ....../....#.=..
0A30: 03 10 05 00 03 04 10 06  00 1D DA 80 23 01 62 0C  ............#.b.
0A40: 02 00 10 06 81 00 A2 0A  1D 07 81 23 1D 08 81 23  ...........#...#
0A50: 03 02 10 09 81 1D 0A 81  23 40 00 80 4B 80 01 10  ........#@..K...
0A60: 04 80 40 51 80 D7 80 01  10 D7 80 43 00 43 01 03  ..@Q.......C.C..
0A70: 05 00 03 10 03 06 00 04  10 03 00 00 05 10 1D D8  ................
0A80: 80 23 02 00 00 00 80 00  91 0A 1D D9 80 23 01 9F  .#...........#..
0A90: 0A 03 03 10 05 00 03 04  10 06 00 1D DA 80 23 01  ..............#.
0AA0: 62 0C 02 00 10 D7 80 00  08 0B 1D 0B 81 23 1D 0C  b............#..
0AB0: 81 23 03 02 10 0D 81 1D  0E 81 23 1D 0F 81 23 40  .#........#...#@
0AC0: 00 80 4B 80 01 10 04 80  40 51 80 D7 80 01 10 10  ..K.....@Q......
0AD0: 81 43 00 43 01 03 05 00  03 10 03 06 00 04 10 03  .C.C............
0AE0: 00 00 05 10 1D D8 80 23  02 00 00 00 80 00 F7 0A  .......#........
0AF0: 1D D9 80 23 01 05 0B 03  03 10 05 00 03 04 10 06  ...#............
0B00: 00 1D DA 80 23 01 62 0C  02 00 10 11 81 00 6E 0B  ....#.b.......n.
0B10: 1D 12 81 23 1D 13 81 23  03 02 10 14 81 1D 15 81  ...#...#........
0B20: 23 1D 16 81 23 40 00 80  4B 80 01 10 04 80 40 51  #...#@..K.....@Q
0B30: 80 D7 80 01 10 11 81 43  00 43 01 03 05 00 03 10  .......C.C......
0B40: 03 06 00 04 10 03 00 00  05 10 1D D8 80 23 02 00  .............#..
0B50: 00 00 80 00 5D 0B 1D D9  80 23 01 6B 0B 03 03 10  ....]....#.k....
0B60: 05 00 03 04 10 06 00 1D  DA 80 23 01 62 0C 02 00  ..........#.b...
0B70: 10 17 81 00 CF 0B 1D 18  81 23 1D 19 81 23 1D 1A  .........#...#..
0B80: 81 23 1D 1B 81 23 40 00  80 4B 80 01 10 04 80 40  .#...#@..K.....@
0B90: 51 80 D7 80 01 10 1C 81  43 00 43 01 03 05 00 03  Q.......C.C.....
0BA0: 10 03 06 00 04 10 03 00  00 05 10 1D D8 80 23 02  ..............#.
0BB0: 00 00 00 80 00 BE 0B 1D  D9 80 23 01 CC 0B 03 03  ..........#.....
0BC0: 10 05 00 03 04 10 06 00  1D DA 80 23 01 62 0C 02  ...........#.b..
0BD0: 00 10 1D 81 00 EA 0B 1D  1E 81 23 1D 1F 81 23 1D  ..........#...#.
0BE0: 20 81 23 1D 21 81 23 01  62 0C 02 00 10 10 81 00   .#.!.#.b.......
0BF0: 05 0C 1D 22 81 23 1D 23  81 23 1D 24 81 23 1D 25  ...".#.#.#.$.#.%
0C00: 81 23 01 62 0C 02 00 10  26 81 00 1C 0C 1D 27 81  .#.b....&.....'.
0C10: 23 1D 28 81 23 1D 29 81  23 01 62 0C 02 00 10 2A  #.(.#.).#.b....*
0C20: 81 00 33 0C 1D 2B 81 23  1D 2C 81 23 1D 2D 81 23  ..3..+.#.,.#.-.#
0C30: 01 62 0C 02 00 10 00 81  00 46 0C 1D 2E 81 23 1D  .b.......F....#.
0C40: 2F 81 23 01 62 0C 02 00  10 FC 80 00 56 0C 03 08  /.#.b.......V...
0C50: 00 04 80 01 62 0C 02 00  10 1C 81 00 62 0C 21 01  ....b.......b.!.
0C60: 62 0C 01 16 05 01 74 0C  02 00 10 45 80 00 74 0C  b.....t....E..t.
0C70: 21 01 74 0C 01 89 00 01  7A 0C 20 00 21 00        !.t.....z. .!.  
```

#### Opcodes

```
  0: 0x0001 [0x20] SET_CLI_EVENT_UC_FLAG: Lock player control
  1: 0x0003 [0x42] SET_CLI_EVENT_CANCEL_DATA()
  2: 0x0004 [0x1E] EventEntity looks at LocalPlayer and starts talking
  3: 0x0009 [0x03] ExtData[1]->WorkLocal[0] = Work_Zone[2]
  4: 0x000E [0x03] ExtData[1]->WorkLocal[1] = Work_Zone[3]
  5: 0x0013 [0x03] ExtData[1]->WorkLocal[2] = Work_Zone[4]
  6: 0x0018 [0x03] ExtData[1]->WorkLocal[3] = Work_Zone[5]
  7: 0x001D [0x02] IF !(ExtData[1]->WorkLocal[0] == 0*) GOTO 0x0034
  8: 0x0025 [0x1D] PRINT_EVENT_MESSAGE(message_id=11840*)
     "Well, hello there! Hm, me? Why, I'm Maruna-Kurina, the travel-waveling genius scholar! You won't find the likes of my strategies and tactics anywhere else, no [sir/ma'am]."
  9: 0x0028 [0x23] WAIT_FOR_DIALOG_INTERACTION
 10: 0x0029 [0x1D] PRINT_EVENT_MESSAGE(message_id=11841*)
     "Since the war started, I've been traveling far and wide to survey the extentaru of battle. To be honest, I've started to toy with the idea of lending my services directly to the alliance, should any nation express an interest."
 11: 0x002C [0x23] WAIT_FOR_DIALOG_INTERACTION
 12: 0x002D [0x1D] PRINT_EVENT_MESSAGE(message_id=11842*)
     "Years I've spent, honing my wits to a fine, razor-wazor-sharp edge. Military history, strategy, theory, logistics, you name it! This war has presented the perfect opportunity, tragic as it is, to finally put my skills to the testaru!"
 13: 0x0030 [0x23] WAIT_FOR_DIALOG_INTERACTION
 14: 0x0031 [0x01] GOTO 0x0C7A
 15: 0x0034 [0x02] IF !(ExtData[1]->WorkLocal[0] == 1*) GOTO 0x0064
 16: 0x003C [0x02] IF !(ExtData[1]->WorkLocal[3] == 0*) GOTO 0x0054
 17: 0x0044 [0x1D] PRINT_EVENT_MESSAGE(message_id=11843*)
     "Ahhh, a fellow bookworm, you say? How seldom it is one meets a fellow spirit. Would you be a member-wember of that Schultz School of Martial Theory that's been attracting so much attention recently? Or was itaru the Sturm School...?"
 18: 0x0047 [0x23] WAIT_FOR_DIALOG_INTERACTION
 19: 0x0048 [0x03] Work_Zone[2] = ExtData[1]->WorkLocal[1]
 20: 0x004D [0x1D] PRINT_EVENT_MESSAGE(message_id=11844*)
     "So, might I presume that it is your proud [/Kingdom of San d'Oria/Republic of Bastok/Federation of Windurst] which desires my enlightened guidance? N-n-not that I'm interested in your Schultz School or anything like thataru!"
 21: 0x0050 [0x23] WAIT_FOR_DIALOG_INTERACTION
 22: 0x0051 [0x01] GOTO 0x0061
 23: 0x0054 [0x03] Work_Zone[2] = ExtData[1]->WorkLocal[1]
 24: 0x0059 [0x1D] PRINT_EVENT_MESSAGE(message_id=11845*)
     "If memory-wemory serves, Rainemard is currently serving on the frontlines of the [Royal Army/Republican Army/Federation Forces]. I wonder if he hasn't managed to catch on to something intriguing yet again..."
 25: 0x005C [0x23] WAIT_FOR_DIALOG_INTERACTION
 26: 0x005D [0x1D] PRINT_EVENT_MESSAGE(message_id=11846*)
     "How do I know Rainemard? Oh, the two of us go waaay back. N-n-not that I'm especially-wecially concerned with where he might be or what he mightaru be doing!"
 27: 0x0060 [0x23] WAIT_FOR_DIALOG_INTERACTION

SUBROUTINE_0061:
 28: 0x0061 [0x01] GOTO 0x0C7A
 29: 0x0064 [0x02] IF !(ExtData[1]->WorkLocal[0] == 2*) GOTO 0x0C7A
 30: 0x006C [0x1D] PRINT_EVENT_MESSAGE(message_id=11847*)
     "Well, it just so happens to be my own humble-wumble, yet highly educated opinion, that what the Allied Forces of Altana are currently lacking in spades is logistics."
 31: 0x006F [0x23] WAIT_FOR_DIALOG_INTERACTION
 32: 0x0070 [0x1D] PRINT_EVENT_MESSAGE(message_id=11848*)
     "I see countless adventurers simply signing up for random Campaign Ops with reckless abandon, paying no heed to the greater concerns of wartime funds or supplies. No way to win a war, no [sir/ma'am]. If there's one thing I know, it's thataru."
 33: 0x0073 [0x23] WAIT_FOR_DIALOG_INTERACTION
 34: 0x0074 [0x1D] PRINT_EVENT_MESSAGE(message_id=11849*)
     "But imagine, I ask you, what would happen should all you soldiers take the time to analyze the information at your disposal, and act on those results. I tell you, there lies within the Allied Forces the potential-wential for a warring force the likes of which the Beastman Confederate could never stand against."
 35: 0x0077 [0x23] WAIT_FOR_DIALOG_INTERACTION
 36: 0x0078 [0x03] Work_Zone[2] = ExtData[1]->WorkLocal[1]
 37: 0x007D [0x1D] PRINT_EVENT_MESSAGE(message_id=11850*)
     "By the way, are you a member of the [/Knights of the Iron Ram/Seventh Cohors/Cobra Mercenaries]? Very impressive! That's quite the self-serv--errr... What I mean to say is, your unitaru is quite renown for its, how shall I say...individualistic tendencies."
 38: 0x0080 [0x23] WAIT_FOR_DIALOG_INTERACTION
 39: 0x0081 [0x1D] PRINT_EVENT_MESSAGE(message_id=11851*)
     "It is most encouraging when one considers that you have the freedom to adapt your actions to the demands of the present moment. I would be willing to wager that it is adventurers such as yourself who will determine the outarucome of this war."
 40: 0x0084 [0x23] WAIT_FOR_DIALOG_INTERACTION
 41: 0x0085 [0x1D] PRINT_EVENT_MESSAGE(message_id=11852*)
     "Well? I never was much of a motivational speaker, but have I whet your appetite for some knowledge-woledge? That's the spirit! Let us begin then, shall we? For starters, logistics! The key to any war. After that, I would be more than happy to offer some introductory lessons on military theory."
 42: 0x0088 [0x23] WAIT_FOR_DIALOG_INTERACTION

SUBROUTINE_0089:
 43: 0x0089 [0x02] IF !(ExtData[1]->WorkLocal[7] == 0*) GOTO 0x0C77
 44: 0x0091 [0x03] ExtData[1]->WorkLocal[8] = 0*
 45: 0x0096 [0x24] CREATE_DIALOG(message_id=11853*, default_option=0*, option_flags=0*)
     "In what realm is your knowledge lacking? [Campaign tallies./Viewing national statistics./Viewing stronghold statistics./Campaign Ops./Opinion polls./Recruiting freelances./I want for no knowledge.]"
 46: 0x009D [0x25] WAIT_DIALOG_SELECT()
 47: 0x009E [0x02] IF !(Work_Zone[0] == 0*) GOTO 0x00B9
 48: 0x00A6 [0x1D] PRINT_EVENT_MESSAGE(message_id=11854*)
     "Upon entering into an alliance with one another, the four nations drew up a wartime pact. In accordance with the stipulations therein, the single nation deemed to be the greatest contributor to the fighting within, or maintaining of, an area is temporarily granted domain over it."
 49: 0x00A9 [0x23] WAIT_FOR_DIALOG_INTERACTION
 50: 0x00AA [0x1D] PRINT_EVENT_MESSAGE(message_id=11855*)
     "Such rulings are doled outaru by the Grand Duchy of Jeuno, in all its wisdom, based on the intel reports of Campaign officials. Those reports as a whole are commonly referred to as "Campaign tallies.""
 51: 0x00AD [0x23] WAIT_FOR_DIALOG_INTERACTION
 52: 0x00AE [0x1D] PRINT_EVENT_MESSAGE(message_id=11856*)
     "From what I've seen, the fighting is usually at its most vehement-wehement just before Campaign tallies. That's because it's widely known that when influence over an area changes, crucial factors such as funds and resources are also affected. Not to mention the role it plays in boosting or lowering an army's spirits!"
 53: 0x00B1 [0x23] WAIT_FOR_DIALOG_INTERACTION
 54: 0x00B2 [0x1D] PRINT_EVENT_MESSAGE(message_id=11857*)
     "That's why things tend to get a little hectic on the frontarulines when a Campaign tally draws near."
 55: 0x00B5 [0x23] WAIT_FOR_DIALOG_INTERACTION
 56: 0x00B6 [0x01] GOTO 0x0C74
 57: 0x00B9 [0x02] IF !(Work_Zone[0] == 1*) GOTO 0x0233

SUBROUTINE_00C1:
 58: 0x00C1 [0x02] IF !(ExtData[1]->WorkLocal[8] == 0*) GOTO 0x0230
 59: 0x00C9 [0x24] CREATE_DIALOG(message_id=11858*, default_option=0*, option_flags=0*)
     "Which statistic interests you? [Funds./Resources./Supplies./Reconnaissance./Skill./Production./Morale./Prosperity./Go back./Quit.]"
 60: 0x00D0 [0x25] WAIT_DIALOG_SELECT()
 61: 0x00D1 [0x02] IF !(Work_Zone[0] == 0*) GOTO 0x0102
 62: 0x00D9 [0x1D] PRINT_EVENT_MESSAGE(message_id=11859*)
     ""Funds" is a self-explanatory term. As you may have guessed, it means all of the money which a nation has to dedicate to its war endeavors."
 63: 0x00DC [0x23] WAIT_FOR_DIALOG_INTERACTION
 64: 0x00DD [0x1D] PRINT_EVENT_MESSAGE(message_id=11860*)
     "The importance of money in war is difficult to overstate. Greater funds allow a nation to plan and carry out attacks, increase the number of troops available for dispatch, and even step up the quality of gear with which it outfits its units."
 65: 0x00E0 [0x23] WAIT_FOR_DIALOG_INTERACTION
 66: 0x00E1 [0x1D] PRINT_EVENT_MESSAGE(message_id=11861*)
     "Funds decrease whenever a Campaign battle occurs. Most people don't seem to know this, but offensive and defensive battles tend to cost roughly the same amountaru."
 67: 0x00E4 [0x23] WAIT_FOR_DIALOG_INTERACTION
 68: 0x00E5 [0x1D] PRINT_EVENT_MESSAGE(message_id=11862*)
     "A nation's wartime coffers also have a direct influence on their supply stores. When funds get too low, supplies will start to be sold off by the government to compensate."
 69: 0x00E8 [0x23] WAIT_FOR_DIALOG_INTERACTION
 70: 0x00E9 [0x1D] PRINT_EVENT_MESSAGE(message_id=11863*)
     "Oh, and additional-witional funds are rewarded whenever influence over an area is gained. So it would be wise to keep an eye outaru just before and after Campaign tallies."
 71: 0x00EC [0x23] WAIT_FOR_DIALOG_INTERACTION
 72: 0x00ED [0x1D] PRINT_EVENT_MESSAGE(message_id=11864*)
     "I don't think I need to tell you that the more areas a nation controls, the more funds it will collect. Also, the amount rewarded varies from area to area."
 73: 0x00F0 [0x23] WAIT_FOR_DIALOG_INTERACTION
 74: 0x00F1 [0x1D] PRINT_EVENT_MESSAGE(message_id=11865*)
     "Other means for increasing funds exist as well. For example, by maintaining a high level of "prosperity." After all, if a nation does good by its people, it follows that their economic endeavors will benefit."
 75: 0x00F4 [0x23] WAIT_FOR_DIALOG_INTERACTION
 76: 0x00F5 [0x1D] PRINT_EVENT_MESSAGE(message_id=11866*)
     "Well, you could learn any of what I've just told you from your run-of-the-mill military textbook. But, here's a little secret of mine. I've observed that achievements in a certain group of Campaign Ops serve to raise a nation's funds. But now I've gone and said too much! No good teacher divulges her students all the answers!"
 77: 0x00F8 [0x23] WAIT_FOR_DIALOG_INTERACTION
 78: 0x00F9 [0x48] [System] [11867*]:
     "Your nation's funds may be checked by talking to an appropriate Campaign NPC in the capital. Available information is dependent on current reconnaissance ranking."
 79: 0x00FC [0x1C] WAIT(120* ticks)
 80: 0x00FF [0x01] GOTO 0x022D
 81: 0x0102 [0x02] IF !(Work_Zone[0] == 1*) GOTO 0x012F
 82: 0x010A [0x1D] PRINT_EVENT_MESSAGE(message_id=11868*)
     ""Resources" are the strategic material reserves of a nation that allow it to conduct military operations."
 83: 0x010D [0x23] WAIT_FOR_DIALOG_INTERACTION
 84: 0x010E [0x1D] PRINT_EVENT_MESSAGE(message_id=11869*)
     "And just so you don'taru get confused, allow me to clarify-warify. I'm not referring here to the resources of a single stronghold, mind you. Rather, this is an index of the resources of an entire nation."
 85: 0x0111 [0x23] WAIT_FOR_DIALOG_INTERACTION
 86: 0x0112 [0x1D] PRINT_EVENT_MESSAGE(message_id=11870*)
     "In addition to being used to increase an army's supplies, resource stockpiles are also depleted by offensive undertakings and certain Campaign Ops."
 87: 0x0115 [0x23] WAIT_FOR_DIALOG_INTERACTION
 88: 0x0116 [0x1D] PRINT_EVENT_MESSAGE(message_id=11871*)
     "What's more, they also have a directaru influence over wartime funds. As reason entails, insufficient resources require thataru a nation spend a little cash to purchase that which it lacks."
 89: 0x0119 [0x23] WAIT_FOR_DIALOG_INTERACTION
 90: 0x011A [0x1D] PRINT_EVENT_MESSAGE(message_id=11872*)
     "A nation's resources are regularly replenished based on the areas under its influence. So the times just prior-wior to and just after a Campaign tally are especially crucial."
 91: 0x011D [0x23] WAIT_FOR_DIALOG_INTERACTION
 92: 0x011E [0x1D] PRINT_EVENT_MESSAGE(message_id=11873*)
     "The more areas a nation controls, the more resources it can procure. And certain areas are capable of rendering more resources than others."
 93: 0x0121 [0x23] WAIT_FOR_DIALOG_INTERACTION
 94: 0x0122 [0x1D] PRINT_EVENT_MESSAGE(message_id=11874*)
     "And just between you and me, my studies indicate that achievements in certain Campaign Ops are directly linked to resource procurement. Well, that's wartime resources in a nutshell!"
 95: 0x0125 [0x23] WAIT_FOR_DIALOG_INTERACTION
 96: 0x0126 [0x48] [System] [11875*]:
     "Your nation's resources may be checked by talking to an appropriate Campaign NPC in the capital. Available information is dependent on current reconnaissance ranking."
 97: 0x0129 [0x1C] WAIT(120* ticks)
 98: 0x012C [0x01] GOTO 0x022D
 99: 0x012F [0x02] IF !(Work_Zone[0] == 2*) GOTO 0x0160
100: 0x0137 [0x1D] PRINT_EVENT_MESSAGE(message_id=11876*)
     ""Supplies" are the military-wilitary goods used to effectively sustain a war: equipment, sundries, rations, and the like. Nations produce these by expending their resources. You mightaru hear them categorically referred to as "temporary items.""
101: 0x013A [0x23] WAIT_FOR_DIALOG_INTERACTION
102: 0x013B [0x1D] PRINT_EVENT_MESSAGE(message_id=11877*)
     "Nations rich in supplies are able to better provide their strongholds with much-needed equipment and items directly from the capital."
103: 0x013E [0x23] WAIT_FOR_DIALOG_INTERACTION
104: 0x013F [0x1D] PRINT_EVENT_MESSAGE(message_id=11878*)
     "Supply expenditure goes towards such activities as stronghold maintenance, outarufitting troops, and conducting certain Campaign Ops."
105: 0x0142 [0x23] WAIT_FOR_DIALOG_INTERACTION
106: 0x0143 [0x1D] PRINT_EVENT_MESSAGE(message_id=11879*)
     "The amount of supplies at a nation's disposal is inextricably linked to its resources as well. After all, using resources implies that supply production is underway."
107: 0x0146 [0x23] WAIT_FOR_DIALOG_INTERACTION
108: 0x0147 [0x1D] PRINT_EVENT_MESSAGE(message_id=11880*)
     "A nation's supplies are compounded regularly based on the areas under its influence. So always try and keep an eye out just before and after Campaign tallies."
109: 0x014A [0x23] WAIT_FOR_DIALOG_INTERACTION
110: 0x014B [0x1D] PRINT_EVENT_MESSAGE(message_id=11881*)
     "Increases in supplies are naturally larger for nations with more areas under their control. And different areas generate varying-warying amountarus of supplies."
111: 0x014E [0x23] WAIT_FOR_DIALOG_INTERACTION
112: 0x014F [0x1D] PRINT_EVENT_MESSAGE(message_id=11882*)
     "The total amount of supplies a nation can manufacture is heavily influenced by its production. But that's another lecture all in itself!"
113: 0x0152 [0x23] WAIT_FOR_DIALOG_INTERACTION
114: 0x0153 [0x1D] PRINT_EVENT_MESSAGE(message_id=11883*)
     "I've got it by a pretty good source that carrying out certain Campaign Ops serves to increase a nation's supplies. Well, that should do just fine by way of an introduction."
115: 0x0156 [0x23] WAIT_FOR_DIALOG_INTERACTION
116: 0x0157 [0x48] [System] [11884*]:
     "Your nation's supplies may be checked by talking to an appropriate Campaign NPC in the capital. Available information is dependent on current reconnaissance ranking."
117: 0x015A [0x1C] WAIT(120* ticks)
118: 0x015D [0x01] GOTO 0x022D
119: 0x0160 [0x02] IF !(Work_Zone[0] == 3*) GOTO 0x0185
120: 0x0168 [0x1D] PRINT_EVENT_MESSAGE(message_id=11885*)
     ""Reconnaissance" is an index of an army's intel. That is to say, how far their intelligence network extends."
121: 0x016B [0x23] WAIT_FOR_DIALOG_INTERACTION
122: 0x016C [0x1D] PRINT_EVENT_MESSAGE(message_id=11886*)
     "High reconnaissance means that a nation is better able to ascertain the most up-to-date info on the movementarus and machinations of both friend and foe."
123: 0x016F [0x23] WAIT_FOR_DIALOG_INTERACTION
124: 0x0170 [0x1D] PRINT_EVENT_MESSAGE(message_id=11887*)
     "By now I hope you've seen the intelligence-welligence reports available from the Campaign deputies located in the nations' capitals. The more advanced reconnaissance is, the more detailed those reports will be."
125: 0x0173 [0x23] WAIT_FOR_DIALOG_INTERACTION
126: 0x0174 [0x1D] PRINT_EVENT_MESSAGE(message_id=11888*)
     "There are a number of intel-gathering Campaign Ops in which achievement will serve to improve reconnaissance."
127: 0x0177 [0x23] WAIT_FOR_DIALOG_INTERACTION
128: 0x0178 [0x1D] PRINT_EVENT_MESSAGE(message_id=11889*)
     "And just like other Campaign statistics, this one changes whenever a Campaign tally is conducted. But don't worry--so far I've yet to see a nation's reconnaissance plummet to zero. Still, it is ever wise to keep close tabs on your enemies, as well as your allies."
129: 0x017B [0x23] WAIT_FOR_DIALOG_INTERACTION
130: 0x017C [0x48] [System] [11890*]:
     "Your nation's reconnaissance may be checked by talking to an appropriate Campaign NPC in the capital. Available information is dependent on current reconnaissance ranking."
131: 0x017F [0x1C] WAIT(120* ticks)
132: 0x0182 [0x01] GOTO 0x022D
133: 0x0185 [0x02] IF !(Work_Zone[0] == 4*) GOTO 0x01AA
134: 0x018D [0x1D] PRINT_EVENT_MESSAGE(message_id=11891*)
     ""Skill" denotes technological development, and manifestarus itself in the ability-wility to produce high-end equipment and weaponry."
135: 0x0190 [0x23] WAIT_FOR_DIALOG_INTERACTION
136: 0x0191 [0x1D] PRINT_EVENT_MESSAGE(message_id=11892*)
     "Advancing skill ensures a nation will churn out cutting-edge gear to supply its frontlines. It is also required for the construction-wuction of siege equipment."
137: 0x0194 [0x23] WAIT_FOR_DIALOG_INTERACTION
138: 0x0195 [0x1D] PRINT_EVENT_MESSAGE(message_id=11893*)
     "Still, all the technological skill in the world is useless withoutaru the funds to back it up. Production costs money, silly."
139: 0x0198 [0x23] WAIT_FOR_DIALOG_INTERACTION
140: 0x0199 [0x1D] PRINT_EVENT_MESSAGE(message_id=11894*)
     "What's that? How do you go about improving your nation's skill? Well, I reckon the "troop training" Campaign Ops would be a good place to start."
141: 0x019C [0x23] WAIT_FOR_DIALOG_INTERACTION
142: 0x019D [0x1D] PRINT_EVENT_MESSAGE(message_id=11895*)
