# 17162848

## Common Data

| Field            | Value                        |
|------------------|------------------------------|
| Zone             | Windurst Waters [S] (ID: 94) |
| Block Size       | 15408 bytes                  |
| Total Events     | 6                            |
| References Count | 416                          |

## List of Events

| Event ID              | Entrypoint   |   Size |   Instructions |
|-----------------------|--------------|--------|----------------|
| [65535](#event-65535) | 0x0000       |   1173 |            173 |
| [31](#event-31)       | 0x0495       |   3874 |            485 |
| [32](#event-32)       | 0x13B7       |   2498 |            361 |
| [33](#event-33)       | 0x1D79       |   4742 |            552 |
| [40](#event-40)       | 0x2FFF       |     59 |             12 |
| [37](#event-37)       | 0x303A       |   1358 |            149 |

## DAT References (imed_data)

|   Index | Hex Value   |   Dec Value |
|---------|-------------|-------------|
|       0 | 0x0000      |           0 |
|       1 | 0x0001      |           1 |
|       2 | 0x0215      |         533 |
|       3 | 0x00C8      |         200 |
|       4 | 0x0008      |           8 |
|       5 | 0x0B3C      |        2876 |
|       6 | 0x036C      |         876 |
|       7 | 0x3DFC      |       15868 |
|       8 | 0xFFFFFC19  |  4294966297 |
|       9 | 0x0024      |          36 |
|      10 | 0x0076      |         118 |
|      11 | 0x3A51      |       14929 |
|      12 | 0xFFFFFC18  |  4294966296 |
|      13 | 0x0514      |        1300 |
|      14 | 0x040A      |        1034 |
|      15 | 0x3D42      |       15682 |
|      16 | 0x09C7      |        2503 |
|      17 | 0x060C      |        1548 |
|      18 | 0x010C      |         268 |
|      19 | 0xFFFFB0EC  |  4294947052 |
|      20 | 0x00FA      |         250 |
|      21 | 0x0BC6      |        3014 |
|      22 | 0xFFF9B419  |  4294554649 |
|      23 | 0x56151     |      352593 |
|      24 | 0xFFFF94C0  |  4294939840 |
|      25 | 0x0E30      |        3632 |
|      26 | 0x28A0      |       10400 |
|      27 | 0x1433      |        5171 |
|      28 | 0x02ED      |         749 |
|      29 | 0x0A35      |        2613 |
|      30 | 0x0079      |         121 |
|      31 | 0x5270      |       21104 |
|      32 | 0x0C47      |        3143 |
|      33 | 0xFFFFCB9E  |  4294953886 |
|      34 | 0xFFFF9695  |  4294940309 |
|      35 | 0xFFFFCC3F  |  4294954047 |
|      36 | 0x0155      |         341 |
|      37 | 0x2B12      |       11026 |
|      38 | 0x30BB      |       12475 |
|      39 | 0xFFFF9977  |  4294941047 |
|      40 | 0x0F34      |        3892 |
|      41 | 0x3F81      |       16257 |
|      42 | 0x36FC      |       14076 |
|      43 | 0xFFFF9976  |  4294941046 |
|      44 | 0x0193      |         403 |
|      45 | 0x4317      |       17175 |
|      46 | 0x37D2      |       14290 |
|      47 | 0x03F8      |        1016 |
|      48 | 0x28D4      |       10452 |
|      49 | 0x38D1      |       14545 |
|      50 | 0x00CC      |         204 |
|      51 | 0x29A9      |       10665 |
|      52 | 0x2C78      |       11384 |
|      53 | 0x03C6      |         966 |
|      54 | 0x383A      |       14394 |
|      55 | 0xC1F6      |       49654 |
|      56 | 0xFFFFF831  |  4294965297 |
|      57 | 0x07EF      |        2031 |
|      58 | 0x0B01      |        2817 |
|      59 | 0xC384      |       50052 |
|      60 | 0x0818      |        2072 |
|      61 | 0xFFFFF77D  |  4294965117 |
|      62 | 0xE143      |       57667 |
|      63 | 0x0A85      |        2693 |
|      64 | 0xFFFFE34C  |  4294959948 |
|      65 | 0x12486     |       74886 |
|      66 | 0x0AF5      |        2805 |
|      67 | 0x0722      |        1826 |
|      68 | 0x4030      |       16432 |
|      69 | 0x0595      |        1429 |
|      70 | 0x0749      |        1865 |
|      71 | 0x4062      |       16482 |
|      72 | 0x0013      |          19 |
|      73 | 0x008C      |         140 |
|      74 | 0x0005      |           5 |
|      75 | 0xFFFFF8F0  |  4294965488 |
|      76 | 0x455D      |       17757 |
|      77 | 0x0116      |         278 |
|      78 | 0x0E45      |        3653 |
|      79 | 0x6278      |       25208 |
|      80 | 0x03F3      |        1011 |
|      81 | 0x0C5F      |        3167 |
|      82 | 0x3CB9      |       15545 |
|      83 | 0x0DFD      |        3581 |
|      84 | 0xFFFF3436  |  4294915126 |
|      85 | 0xB23A      |       45626 |
|      86 | 0xFFFFF255  |  4294963797 |
|      87 | 0x0E38      |        3640 |
|      88 | 0x18D4      |        6356 |
|      89 | 0x6835      |       26677 |
|      90 | 0x07B1      |        1969 |
|      91 | 0xFFFFF33F  |  4294964031 |
|      92 | 0x2F65      |       12133 |
|      93 | 0x0E42      |        3650 |
|      94 | 0x1094      |        4244 |
|      95 | 0x70AD      |       28845 |
|      96 | 0x0413      |        1043 |
|      97 | 0xFFFF423D  |  4294918717 |
|      98 | 0xC28F      |       49807 |
|      99 | 0xFFFFF254  |  4294963796 |
|     100 | 0x0DB0      |        3504 |
|     101 | 0xFFFF8EBB  |  4294938299 |
|     102 | 0x10395     |       66453 |
|     103 | 0x0746      |        1862 |
|     104 | 0xFFFF5B83  |  4294925187 |
|     105 | 0xC49A      |       50330 |
|     106 | 0x08F4      |        2292 |
|     107 | 0xFFFF35E2  |  4294915554 |
|     108 | 0xFAF0      |       64240 |
|     109 | 0x0B99      |        2969 |
|     110 | 0xFFFF2B8B  |  4294912907 |
|     111 | 0xCC50      |       52304 |
|     112 | 0x0B0F      |        2831 |
|     113 | 0xFFFF1DAB  |  4294909355 |
|     114 | 0xD0D7      |       53463 |
|     115 | 0x008A      |         138 |
|     116 | 0xFFFF56A4  |  4294923940 |
|     117 | 0xFE60      |       65120 |
|     118 | 0x0772      |        1906 |
|     119 | 0xFFFF5921  |  4294924577 |
|     120 | 0x100DE     |       65758 |
|     121 | 0x0761      |        1889 |
|     122 | 0xFFFF57DE  |  4294924254 |
|     123 | 0xD571      |       54641 |
|     124 | 0x0258      |         600 |
|     125 | 0xFFFF5809  |  4294924297 |
|     126 | 0xC775      |       51061 |
|     127 | 0x04B1      |        1201 |
|     128 | 0xFFFF4CC6  |  4294921414 |
|     129 | 0x100F0     |       65776 |
|     130 | 0x0103      |         259 |
|     131 | 0xFFFF5DA6  |  4294925734 |
|     132 | 0xFA59      |       64089 |
|     133 | 0xFFFF669A  |  4294928026 |
|     134 | 0xF15E      |       61790 |
|     135 | 0x0360      |         864 |
|     136 | 0xFFFF8CF6  |  4294937846 |
|     137 | 0xECD3      |       60627 |
|     138 | 0x0B64      |        2916 |
|     139 | 0xFFFF3BE1  |  4294917089 |
|     140 | 0xE7A5      |       59301 |
|     141 | 0x0DB1      |        3505 |
|     142 | 0xFFFF6721  |  4294928161 |
|     143 | 0xEE28      |       60968 |
|     144 | 0x0B07      |        2823 |
|     145 | 0xFFFF62C5  |  4294927045 |
|     146 | 0xECAE      |       60590 |
|     147 | 0x0DC6      |        3526 |
|     148 | 0x06C0      |        1728 |
|     149 | 0x2D1B      |       11547 |
|     150 | 0x00D3      |         211 |
|     151 | 0x0E54      |        3668 |
|     152 | 0x4D13      |       19731 |
|     153 | 0x0894      |        2196 |
|     154 | 0x0D88      |        3464 |
|     155 | 0x30D4      |       12500 |
|     156 | 0xFFFFF84E  |  4294965326 |
|     157 | 0x0CAD      |        3245 |
|     158 | 0x1156      |        4438 |
|     159 | 0x4F5E      |       20318 |
|     160 | 0x02CE      |         718 |
|     161 | 0x0FDF      |        4063 |
|     162 | 0x496D      |       18797 |
|     163 | 0x015E      |         350 |
|     164 | 0x15EE      |        5614 |
|     165 | 0x5413      |       21523 |
|     166 | 0x0640      |        1600 |
|     167 | 0x0BAB      |        2987 |
|     168 | 0x2A76      |       10870 |
|     169 | 0x0125      |         293 |
|     170 | 0x0D2B      |        3371 |
|     171 | 0x30F8      |       12536 |
|     172 | 0x1636      |        5686 |
|     173 | 0x51B1      |       20913 |
|     174 | 0xFFFFF73B  |  4294965051 |
|     175 | 0x160B      |        5643 |
|     176 | 0x5550      |       21840 |
|     177 | 0x0C73      |        3187 |
|     178 | 0x2BB7      |       11191 |
|     179 | 0xFFFFF5FB  |  4294964731 |
|     180 | 0x0B10      |        2832 |
|     181 | 0x3440      |       13376 |
|     182 | 0xFFFFF849  |  4294965321 |
|     183 | 0x00D0      |         208 |
|     184 | 0x000A      |          10 |
|     185 | 0x003B      |          59 |
|     186 | 0x0219      |         537 |
|     187 | 0x0046      |          70 |
|     188 | 0x003C      |          60 |
|     189 | 0x0078      |         120 |
|     190 | 0x0082      |         130 |
|     191 | 0x001E      |          30 |
|     192 | 0x029C      |         668 |
|     193 | 0x412C      |       16684 |
|     194 | 0x0007      |           7 |
|     195 | 0x005A      |          90 |
|     196 | 0x0014      |          20 |
|     197 | 0x0004      |           4 |
|     198 | 0x0006      |           6 |
|     199 | 0xFFFFA12B  |  4294943019 |
|     200 | 0x1235B     |       74587 |
|     201 | 0xFFFFF24A  |  4294963786 |
|     202 | 0x094A      |        2378 |
|     203 | 0x3A82      |       14978 |
|     204 | 0xC574      |       50548 |
|     205 | 0xFFFFF830  |  4294965296 |
|     206 | 0x0773      |        1907 |
|     207 | 0xFFFFB987  |  4294949255 |
|     208 | 0x14778     |       83832 |
|     209 | 0xFFFFEC79  |  4294962297 |
|     210 | 0x033D      |         829 |
|     211 | 0x3635      |       13877 |
|     212 | 0x3636      |       13878 |
|     213 | 0xFFFF3419  |  4294915097 |
|     214 | 0xB43A      |       46138 |
|     215 | 0x0DAA      |        3498 |
|     216 | 0xFFFF4523  |  4294919459 |
|     217 | 0xA881      |       43137 |
|     218 | 0x3637      |       13879 |
|     219 | 0x3651      |       13905 |
|     220 | 0xBED7      |       48855 |
|     221 | 0x082B      |        2091 |
|     222 | 0x3638      |       13880 |
|     223 | 0x3639      |       13881 |
|     224 | 0xFFFF8A38  |  4294937144 |
|     225 | 0x112D4     |       70356 |
|     226 | 0xFFFF9927  |  4294940967 |
|     227 | 0x12986     |       76166 |
|     228 | 0xFFFFF1F6  |  4294963702 |
|     229 | 0x030E      |         782 |
|     230 | 0xFFFF9DDA  |  4294942170 |
|     231 | 0x11F07     |       73479 |
|     232 | 0xFFFFF2C2  |  4294963906 |
|     233 | 0x0B27      |        2855 |
|     234 | 0x363A      |       13882 |
|     235 | 0x363B      |       13883 |
|     236 | 0x000F      |          15 |
|     237 | 0x0E24      |        3620 |
|     238 | 0x3EF9      |       16121 |
|     239 | 0x073D      |        1853 |
|     240 | 0x052F      |        1327 |
|     241 | 0x363C      |       13884 |
|     242 | 0x363D      |       13885 |
|     243 | 0x363E      |       13886 |
|     244 | 0x0002      |           2 |
|     245 | 0x0003      |           3 |
|     246 | 0x0092      |         146 |
|     247 | 0x45A5      |       17829 |
|     248 | 0x0162      |         354 |
|     249 | 0x0928      |        2344 |
|     250 | 0xFFFFE99B  |  4294961563 |
|     251 | 0x2534      |        9524 |
|     252 | 0x0DCA      |        3530 |
|     253 | 0x5160      |       20832 |
|     254 | 0xC17B      |       49531 |
|     255 | 0x07E7      |        2023 |
|     256 | 0xFFFEDBE7  |  4294892519 |
|     257 | 0xFC85      |       64645 |
|     258 | 0x0254      |         596 |
|     259 | 0x3642      |       13890 |
|     260 | 0x3643      |       13891 |
|     261 | 0xFFFEE768  |  4294895464 |
|     262 | 0xF1F6      |       61942 |
|     263 | 0x0255      |         597 |
|     264 | 0x3644      |       13892 |
|     265 | 0x0087      |         135 |
|     266 | 0x0091      |         145 |
|     267 | 0xFFFFF8BC  |  4294965436 |
|     268 | 0x33F3      |       13299 |
|     269 | 0x0BD9      |        3033 |
|     270 | 0x000D      |          13 |
|     271 | 0x0080      |         128 |
|     272 | 0x3645      |       13893 |
|     273 | 0x00E6      |         230 |
|     274 | 0x3646      |       13894 |
|     275 | 0x3647      |       13895 |
|     276 | 0x0059      |          89 |
|     277 | 0x3648      |       13896 |
|     278 | 0xFFFFF811  |  4294965265 |
|     279 | 0x5869      |       22633 |
|     280 | 0x0263      |         611 |
|     281 | 0x3649      |       13897 |
|     282 | 0x0A96      |        2710 |
|     283 | 0x364A      |       13898 |
|     284 | 0x364B      |       13899 |
|     285 | 0x0B95      |        2965 |
|     286 | 0x364C      |       13900 |
|     287 | 0x364D      |       13901 |
|     288 | 0xFFFF678C  |  4294928268 |
|     289 | 0x38423     |      230435 |
|     290 | 0xFFFFEC78  |  4294962296 |
|     291 | 0x0424      |        1060 |
|     292 | 0xFFFF62F6  |  4294927094 |
|     293 | 0x37819     |      227353 |
|     294 | 0xFFFFEC6A  |  4294962282 |
|     295 | 0x0412      |        1042 |
|     296 | 0xFFFF5BC4  |  4294925252 |
|     297 | 0x33018     |      208920 |
|     298 | 0xFFFFEAEC  |  4294961900 |
|     299 | 0x0BBF      |        3007 |
|     300 | 0x020A      |         522 |
|     301 | 0x0050      |          80 |
|     302 | 0x3652      |       13906 |
|     303 | 0x3653      |       13907 |
|     304 | 0x3654      |       13908 |
|     305 | 0x0028      |          40 |
|     306 | 0x3655      |       13909 |
|     307 | 0x3656      |       13910 |
|     308 | 0x00F2      |         242 |
|     309 | 0x00FF      |         255 |
|     310 | 0x01AB      |         427 |
|     311 | 0x32FD      |       13053 |
|     312 | 0x00A2      |         162 |
|     313 | 0x168C      |        5772 |
|     314 | 0x0160      |         352 |
|     315 | 0xFFFF9C65  |  4294941797 |
|     316 | 0x0899      |        2201 |
|     317 | 0x0E40      |        3648 |
|     318 | 0x0375      |         885 |
|     319 | 0xFFFFC53C  |  4294952252 |
|     320 | 0xFFFFFFCD  |  4294967245 |
|     321 | 0xFFFF9A70  |  4294941296 |
|     322 | 0xFFFFE333  |  4294959923 |
|     323 | 0x0CAA      |        3242 |
|     324 | 0xFFFF9C64  |  4294941796 |
|     325 | 0x0708      |        1800 |
|     326 | 0xFFFFE7D0  |  4294961104 |
|     327 | 0x0C7F      |        3199 |
|     328 | 0xFFFFDED6  |  4294958806 |
|     329 | 0x0AA2      |        2722 |
|     330 | 0x0758      |        1880 |
|     331 | 0xFFFFE47A  |  4294960250 |
|     332 | 0x1172      |        4466 |
|     333 | 0x06A4      |        1700 |
|     334 | 0xFFFFE842  |  4294961218 |
|     335 | 0x07DF      |        2015 |
|     336 | 0x071C      |        1820 |
|     337 | 0xFFFFDED9  |  4294958809 |
|     338 | 0xFFFFEDF9  |  4294962681 |
|     339 | 0xFFFFF75D  |  4294965085 |
|     340 | 0x085C      |        2140 |
|     341 | 0xFFFFF4A3  |  4294964387 |
|     342 | 0xFFFFF978  |  4294965624 |
|     343 | 0x0898      |        2200 |
|     344 | 0xFFFFEF73  |  4294963059 |
|     345 | 0xFFFFFC9A  |  4294966426 |
|     346 | 0x07D0      |        2000 |
|     347 | 0xFFFFDF07  |  4294958855 |
|     348 | 0xFFFFFA9C  |  4294965916 |
|     349 | 0x0834      |        2100 |
|     350 | 0xFFFFDDD5  |  4294958549 |
|     351 | 0xFFFFF741  |  4294965057 |
|     352 | 0xFFFFE6B4  |  4294960820 |
|     353 | 0xFFFFFADB  |  4294965979 |
|     354 | 0x0820      |        2080 |
|     355 | 0xFFFFE5BD  |  4294960573 |
|     356 | 0xFFFFF596  |  4294964630 |
|     357 | 0xFFFFE342  |  4294959938 |
|     358 | 0xFFFFF2D4  |  4294963924 |
|     359 | 0x08FC      |        2300 |
|     360 | 0x0B96      |        2966 |
|     361 | 0x0824      |        2084 |
|     362 | 0x052E      |        1326 |
|     363 | 0x0096      |         150 |
|     364 | 0x3657      |       13911 |
|     365 | 0x3658      |       13912 |
|     366 | 0x0A8C      |        2700 |
|     367 | 0x3659      |       13913 |
|     368 | 0x365A      |       13914 |
|     369 | 0x0032      |          50 |
|     370 | 0x365B      |       13915 |
|     371 | 0x365D      |       13917 |
|     372 | 0x00AE      |         174 |
|     373 | 0x365E      |       13918 |
|     374 | 0x365F      |       13919 |
|     375 | 0x05FA      |        1530 |
|     376 | 0x00BE      |         190 |
|     377 | 0x3660      |       13920 |
|     378 | 0x3661      |       13921 |
|     379 | 0x3662      |       13922 |
|     380 | 0x00AA      |         170 |
|     381 | 0x3663      |       13923 |
|     382 | 0x3664      |       13924 |
|     383 | 0x00AC      |         172 |
|     384 | 0x3665      |       13925 |
|     385 | 0x007D      |         125 |
|     386 | 0x3666      |       13926 |
|     387 | 0x3DF2      |       15858 |
|     388 | 0x3667      |       13927 |
|     389 | 0x000C      |          12 |
|     390 | 0x3668      |       13928 |
|     391 | 0x367E      |       13950 |
|     392 | 0x3669      |       13929 |
|     393 | 0x366A      |       13930 |
|     394 | 0x366B      |       13931 |
|     395 | 0x0064      |         100 |
|     396 | 0x0099      |         153 |
|     397 | 0x366C      |       13932 |
|     398 | 0x0280      |         640 |
|     399 | 0x366D      |       13933 |
|     400 | 0x00F0      |         240 |
|     401 | 0x00B4      |         180 |
|     402 | 0x005E      |          94 |
|     403 | 0x00C9      |         201 |
|     404 | 0x0545      |        1349 |
|     405 | 0x43F2      |       17394 |
|     406 | 0x02A1      |         673 |
|     407 | 0x0860      |        2144 |
|     408 | 0x0221      |         545 |
|     409 | 0x3679      |       13945 |
|     410 | 0x367A      |       13946 |
|     411 | 0x0018      |          24 |
|     412 | 0x001A      |          26 |
|     413 | 0x367B      |       13947 |
|     414 | 0x002D      |          45 |
|     415 | 0x00D7      |         215 |

## String References

- **13053**: @@
- **13950**: <Player> obtained $0.

## Events

### Event 65535

#### Metadata

| Field        | Value      |
|--------------|------------|
| Entrypoint   | 0x0000     |
| Data Size    | 1173 bytes |
| Instructions | 1          |

```
      00 01 02 03 04 05 06 07  08 09 0A 0B 0C 0D 0E 0F
      -- -- -- -- -- -- -- --  -- -- -- -- -- -- -- --
0000: 00 02 09 10 00 80 00 0F  00 1C 01 80 01 01 00 1B  ................
0010: 45 02 80 F0 FF FF 7F F0  FF FF 7F 66 64 69 2D 00  E..........fdi-.
0020: 80 1B 45 02 80 F0 FF FF  7F F0 FF FF 7F 66 64 6F  ..E..........fdo
0030: 2D 00 80 1B 45 03 80 F0  FF FF 7F F0 FF FF 7F 66  -...E..........f
0040: 64 69 30 00 80 1B 45 03  80 F0 FF FF 7F F0 FF FF  di0...E.........
0050: 7F 66 64 6F 30 00 80 1B  45 03 80 F0 FF FF 7F F0  .fdo0...E.......
0060: FF FF 7F 66 64 69 31 00  80 1B 45 03 80 F0 FF FF  ...fdi1...E.....
0070: 7F F0 FF FF 7F 66 64 6F  31 00 80 1B 45 03 80 F0  .....fdo1...E...
0080: FF FF 7F F0 FF FF 7F 66  64 69 32 00 80 1B 45 03  .......fdi2...E.
0090: 80 F0 FF FF 7F F0 FF FF  7F 66 64 6F 32 00 80 1B  .........fdo2...
00A0: 45 02 80 F0 FF FF 7F F0  FF FF 7F 66 64 69 2D 00  E..........fdi-.
00B0: 80 55 02 80 F0 FF FF 7F  F0 FF FF 7F 66 64 69 2D  .U..........fdi-
00C0: 1B 45 02 80 F0 FF FF 7F  F0 FF FF 7F 66 64 6F 2D  .E..........fdo-
00D0: 00 80 55 02 80 F0 FF FF  7F F0 FF FF 7F 66 64 6F  ..U..........fdo
00E0: 2D 1B 45 03 80 F0 FF FF  7F F0 FF FF 7F 66 64 69  -.E..........fdi
00F0: 30 00 80 55 03 80 F0 FF  FF 7F F0 FF FF 7F 66 64  0..U..........fd
0100: 69 30 1B 45 03 80 F0 FF  FF 7F F0 FF FF 7F 66 64  i0.E..........fd
0110: 6F 30 00 80 55 03 80 F0  FF FF 7F F0 FF FF 7F 66  o0..U..........f
0120: 64 6F 30 1B 45 03 80 F0  FF FF 7F F0 FF FF 7F 66  do0.E..........f
0130: 64 69 31 00 80 55 03 80  F0 FF FF 7F F0 FF FF 7F  di1..U..........
0140: 66 64 69 31 1B 45 03 80  F0 FF FF 7F F0 FF FF 7F  fdi1.E..........
0150: 66 64 6F 31 00 80 55 03  80 F0 FF FF 7F F0 FF FF  fdo1..U.........
0160: 7F 66 64 6F 31 1B 45 03  80 F0 FF FF 7F F0 FF FF  .fdo1.E.........
0170: 7F 66 64 69 32 00 80 55  03 80 F0 FF FF 7F F0 FF  .fdi2..U........
0180: FF 7F 66 64 69 32 1B 45  03 80 F0 FF FF 7F F0 FF  ..fdi2.E........
0190: FF 7F 66 64 6F 32 00 80  55 03 80 F0 FF FF 7F F0  ..fdo2..U.......
01A0: FF FF 7F 66 64 6F 32 1B  45 03 80 F0 FF FF 7F F0  ...fdo2.E.......
01B0: FF FF 7F 62 6C 6F 6E 00  80 1B 45 03 80 F0 FF FF  ...blon...E.....
01C0: 7F F0 FF FF 7F 62 6C 6F  66 00 80 1B 45 02 80 F0  .....blof...E...
01D0: FF FF 7F F0 FF FF 7F 6F  6C 31 35 00 80 1B 45 02  .......ol15...E.
01E0: 80 F0 FF FF 7F F0 FF FF  7F 6F 6C 32 30 00 80 1B  .........ol20...
01F0: 45 02 80 F0 FF FF 7F F0  FF FF 7F 6F 6C 33 30 00  E..........ol30.
0200: 80 1B 45 03 80 F0 FF FF  7F F0 FF FF 7F 6F 76 6C  ..E..........ovl
0210: 31 00 80 1B 45 03 80 F0  FF FF 7F F0 FF FF 7F 6F  1...E..........o
0220: 76 6C 32 00 80 1B 29 10  F0 FF FF 7F 0B 03 04 10  vl2...).........
0230: 02 10 1B 29 10 F0 FF FF  7F 0A 03 07 10 02 10 1A  ...)............
0240: 26 02 02 04 10 01 80 00  57 02 02 07 10 04 80 01  &.......W.......
0250: 57 02 07 07 10 04 10 29  10 F0 FF FF 7F 0A 1B 3B  W......).......;
0260: F0 FF FF 7F 08 10 07 10  06 10 BA F0 FF FF 7F 08  ................
0270: 10 07 10 06 10 05 80 1B  BA F0 FF FF 7F 06 80 07  ................
0280: 80 08 80 09 80 1B BA F0  FF FF 7F 0A 80 0B 80 0C  ................
0290: 80 0D 80 1B BA F0 FF FF  7F 0E 80 0F 80 0C 80 09  ................
02A0: 80 1B 4B F0 FF FF 7F 10  80 1B 4B F0 FF FF 7F 11  ..K.......K.....
02B0: 80 1B BA F0 FF FF 7F 12  80 13 80 14 80 15 80 1B  ................
02C0: 27 10 F0 FF FF 7F 56 1B  27 10 F0 FF FF 7F 58 1B  '.....V.'.....X.
02D0: BA F0 FF FF 7F 16 80 17  80 18 80 19 80 1B BA F0  ................
02E0: FF FF 7F 1A 80 1B 80 1C  80 1D 80 1B 27 10 F0 FF  ............'...
02F0: FF 7F 59 1B 27 10 F0 FF  FF 7F 5A 1B 27 10 F0 FF  ..Y.'.....Z.'...
0300: FF 7F 5B 1B BA F0 FF FF  7F 12 80 13 80 14 80 15  ..[.............
0310: 80 1B 27 10 F0 FF FF 7F  5C 1B BA F0 FF FF 7F 1E  ..'.....\.......
0320: 80 1F 80 00 80 20 80 1B  27 10 F0 FF FF 7F 5D 1B  ..... ..'.....].
0330: BA F0 FF FF 7F 21 80 22  80 23 80 24 80 1B BA F0  .....!.".#.$....
0340: FF FF 7F 25 80 26 80 27  80 28 80 1B BA F0 FF FF  ...%.&.'.(......
0350: 7F 29 80 2A 80 2B 80 2C  80 1B BA F0 FF FF 7F 2D  .).*.+.,.......-
0360: 80 2E 80 27 80 2F 80 1B  27 10 F0 FF FF 7F 62 1B  ...'./..'.....b.
0370: BA F0 FF FF 7F 30 80 31  80 27 80 32 80 1B 27 10  .....0.1.'.2..'.
0380: F0 FF FF 7F 63 1B BA F0  FF FF 7F 33 80 34 80 27  ....c......3.4.'
0390: 80 35 80 1B 27 10 F0 FF  FF 7F 64 1B BA F0 FF FF  .5..'.....d.....
03A0: 7F 36 80 37 80 38 80 39  80 1B 27 10 F0 FF FF 7F  .6.7.8.9..'.....
03B0: 65 1B BA F0 FF FF 7F 3A  80 3B 80 0C 80 3C 80 1B  e......:.;...<..
03C0: BA F0 FF FF 7F 3D 80 3E  80 08 80 3F 80 1B BA F0  .....=.>...?....
03D0: FF FF 7F 40 80 41 80 0C  80 42 80 1B 27 10 F0 FF  ...@.A...B..'...
03E0: FF 7F 67 1B 27 10 F0 FF  FF 7F 68 1B 27 10 F0 FF  ..g.'.....h.'...
03F0: FF 7F 6B 1B 27 10 F0 FF  FF 7F 6C 1B 4A F0 FF FF  ..k.'.....l.J...
0400: 7F 06 E2 05 01 1B 4A F0  FF FF 7F FF E1 05 01 1B  ......J.........
0410: 4A F0 FF FF 7F FC E2 05  01 1B 4A F0 FF FF 7F 36  J.........J....6
0420: E2 05 01 1B 4A F0 FF FF  7F 02 E3 05 01 1B 4A F0  ....J.........J.
0430: FF FF 7F 03 E3 05 01 1B  4A F0 FF FF 7F 07 E2 05  ........J.......
0440: 01 1B 79 00 F0 FF FF 7F  08 E2 05 01 1B 4A F0 FF  ..y..........J..
0450: FF 7F 08 E2 05 01 1B 4A  F0 FF FF 7F 2B E2 05 01  .......J....+...
0460: 1B 27 10 F0 FF FF 7F 6D  1B 27 10 F0 FF FF 7F 6E  .'.....m.'.....n
0470: 1B BA F0 FF FF 7F 43 80  44 80 08 80 45 80 1B BA  ......C.D...E...
0480: F0 FF FF 7F 46 80 47 80  08 80 45 80 1B 27 10 F0  ....F.G...E..'..
0490: FF FF 7F 6F 1B                                    ...o.           
```

#### Opcodes

```
  0: 0x0000 [0x00] END_REQSTACK()
```

#### Data or dead code:

```
# Dead code (unreachable instructions):
     0x0001 [0x02] IF !(Work_Zone[9] == 0*) GOTO 0x000F
     0x0009 [0x1C] WAIT(1* ticks)
     0x000C [0x01] GOTO 0x0001
     0x000F [0x1B] RETURN
     0x0010 [0x45] LOAD_SCHEDULED_TASK: Load scheduler "fdi-" with entities [LocalPlayer, LocalPlayer], work=[533*, 0*]
     0x0021 [0x1B] RETURN
     0x0022 [0x45] LOAD_SCHEDULED_TASK: Load scheduler "fdo-" with entities [LocalPlayer, LocalPlayer], work=[533*, 0*]
     0x0033 [0x1B] RETURN
     0x0034 [0x45] LOAD_SCHEDULED_TASK: Load scheduler "fdi0" with entities [LocalPlayer, LocalPlayer], work=[200*, 0*]
     0x0045 [0x1B] RETURN
     0x0046 [0x45] LOAD_SCHEDULED_TASK: Load scheduler "fdo0" with entities [LocalPlayer, LocalPlayer], work=[200*, 0*]
     0x0057 [0x1B] RETURN
     0x0058 [0x45] LOAD_SCHEDULED_TASK: Load scheduler "fdi1" with entities [LocalPlayer, LocalPlayer], work=[200*, 0*]
     0x0069 [0x1B] RETURN
     0x006A [0x45] LOAD_SCHEDULED_TASK: Load scheduler "fdo1" with entities [LocalPlayer, LocalPlayer], work=[200*, 0*]
     0x007B [0x1B] RETURN
     0x007C [0x45] LOAD_SCHEDULED_TASK: Load scheduler "fdi2" with entities [LocalPlayer, LocalPlayer], work=[200*, 0*]
     0x008D [0x1B] RETURN
     0x008E [0x45] LOAD_SCHEDULED_TASK: Load scheduler "fdo2" with entities [LocalPlayer, LocalPlayer], work=[200*, 0*]
     0x009F [0x1B] RETURN
     0x00A0 [0x45] LOAD_SCHEDULED_TASK: Load scheduler "fdi-" with entities [LocalPlayer, LocalPlayer], work=[533*, 0*]
     0x00B1 [0x55] WAIT_LOAD_SCHEDULER: Wait for scheduler "fdi-" with entities [LocalPlayer, LocalPlayer], work=533*
     0x00C0 [0x1B] RETURN
     0x00C1 [0x45] LOAD_SCHEDULED_TASK: Load scheduler "fdo-" with entities [LocalPlayer, LocalPlayer], work=[533*, 0*]
     0x00D2 [0x55] WAIT_LOAD_SCHEDULER: Wait for scheduler "fdo-" with entities [LocalPlayer, LocalPlayer], work=533*
     0x00E1 [0x1B] RETURN
     0x00E2 [0x45] LOAD_SCHEDULED_TASK: Load scheduler "fdi0" with entities [LocalPlayer, LocalPlayer], work=[200*, 0*]
     0x00F3 [0x55] WAIT_LOAD_SCHEDULER: Wait for scheduler "fdi0" with entities [LocalPlayer, LocalPlayer], work=200*
     0x0102 [0x1B] RETURN
     0x0103 [0x45] LOAD_SCHEDULED_TASK: Load scheduler "fdo0" with entities [LocalPlayer, LocalPlayer], work=[200*, 0*]
     0x0114 [0x55] WAIT_LOAD_SCHEDULER: Wait for scheduler "fdo0" with entities [LocalPlayer, LocalPlayer], work=200*
     0x0123 [0x1B] RETURN
     0x0124 [0x45] LOAD_SCHEDULED_TASK: Load scheduler "fdi1" with entities [LocalPlayer, LocalPlayer], work=[200*, 0*]
     0x0135 [0x55] WAIT_LOAD_SCHEDULER: Wait for scheduler "fdi1" with entities [LocalPlayer, LocalPlayer], work=200*
     0x0144 [0x1B] RETURN
     0x0145 [0x45] LOAD_SCHEDULED_TASK: Load scheduler "fdo1" with entities [LocalPlayer, LocalPlayer], work=[200*, 0*]
     0x0156 [0x55] WAIT_LOAD_SCHEDULER: Wait for scheduler "fdo1" with entities [LocalPlayer, LocalPlayer], work=200*
     0x0165 [0x1B] RETURN
     0x0166 [0x45] LOAD_SCHEDULED_TASK: Load scheduler "fdi2" with entities [LocalPlayer, LocalPlayer], work=[200*, 0*]
     0x0177 [0x55] WAIT_LOAD_SCHEDULER: Wait for scheduler "fdi2" with entities [LocalPlayer, LocalPlayer], work=200*
     0x0186 [0x1B] RETURN
     0x0187 [0x45] LOAD_SCHEDULED_TASK: Load scheduler "fdo2" with entities [LocalPlayer, LocalPlayer], work=[200*, 0*]
     0x0198 [0x55] WAIT_LOAD_SCHEDULER: Wait for scheduler "fdo2" with entities [LocalPlayer, LocalPlayer], work=200*
     0x01A7 [0x1B] RETURN
     0x01A8 [0x45] LOAD_SCHEDULED_TASK: Load scheduler "blon" with entities [LocalPlayer, LocalPlayer], work=[200*, 0*]
     0x01B9 [0x1B] RETURN
     0x01BA [0x45] LOAD_SCHEDULED_TASK: Load scheduler "blof" with entities [LocalPlayer, LocalPlayer], work=[200*, 0*]
     0x01CB [0x1B] RETURN
     0x01CC [0x45] LOAD_SCHEDULED_TASK: Load scheduler "ol15" with entities [LocalPlayer, LocalPlayer], work=[533*, 0*]
     0x01DD [0x1B] RETURN
     0x01DE [0x45] LOAD_SCHEDULED_TASK: Load scheduler "ol20" with entities [LocalPlayer, LocalPlayer], work=[533*, 0*]
     0x01EF [0x1B] RETURN
     0x01F0 [0x45] LOAD_SCHEDULED_TASK: Load scheduler "ol30" with entities [LocalPlayer, LocalPlayer], work=[533*, 0*]
     0x0201 [0x1B] RETURN
     0x0202 [0x45] LOAD_SCHEDULED_TASK: Load scheduler "ovl1" with entities [LocalPlayer, LocalPlayer], work=[200*, 0*]
     0x0213 [0x1B] RETURN
     0x0214 [0x45] LOAD_SCHEDULED_TASK: Load scheduler "ovl2" with entities [LocalPlayer, LocalPlayer], work=[200*, 0*]
     0x0225 [0x1B] RETURN
     0x0226 [0x29] REQ_SET_WAIT(priority=0x10, entity_id=LocalPlayer, tag_num=0x0B)
     0x022D [0x03] Work_Zone[4] = Work_Zone[2]
     0x0232 [0x1B] RETURN
     0x0233 [0x29] REQ_SET_WAIT(priority=0x10, entity_id=LocalPlayer, tag_num=0x0A)
     0x023A [0x03] Work_Zone[7] = Work_Zone[2]
     0x023F [0x1A] CALL_SUBROUTINE(address=0x0226)
     0x0242 [0x02] IF !(Work_Zone[4] == 1*) GOTO 0x0257
     0x024A [0x02] IF !(Work_Zone[7] == 8*) GOTO 0x0257
     0x0252 [0x07] Work_Zone[7] += Work_Zone[4]
     0x0257 [0x29] REQ_SET_WAIT(priority=0x10, entity_id=LocalPlayer, tag_num=0x0A)
     0x025E [0x1B] RETURN
     0x025F [0x3B] GET_ENTITY_POSITION(entity=LocalPlayer, x_destination=Work_Zone[8], y_destination=Work_Zone[7], z_destination=Work_Zone[6])
     0x026A [0xBA] SET_ENTITY_POSITION(entity_id=LocalPlayer, pos_x=Work_Zone[8], pos_z=Work_Zone[7], pos_y=Work_Zone[6], direction=252.8°*)
     0x0277 [0x1B] RETURN
     0x0278 [0xBA] SET_ENTITY_POSITION(entity_id=LocalPlayer, pos_x=0.876*, pos_z=15.868*, pos_y=-0.999*, direction=3.2°*)
     0x0285 [0x1B] RETURN
     0x0286 [0xBA] SET_ENTITY_POSITION(entity_id=LocalPlayer, pos_x=0.118*, pos_z=14.929*, pos_y=-1.000*, direction=114.3°*)
     0x0293 [0x1B] RETURN
     0x0294 [0xBA] SET_ENTITY_POSITION(entity_id=LocalPlayer, pos_x=1.034*, pos_z=15.682*, pos_y=-1.000*, direction=3.2°*)
     0x02A1 [0x1B] RETURN
     0x02A2 [0x4B] UPDATE_ENTITY_YAW(entity=LocalPlayer, yaw=13.7°*)
     0x02A9 [0x1B] RETURN
     0x02AA [0x4B] UPDATE_ENTITY_YAW(entity=LocalPlayer, yaw=8.5°*)
     0x02B1 [0x1B] RETURN
     0x02B2 [0xBA] SET_ENTITY_POSITION(entity_id=LocalPlayer, pos_x=0.268*, pos_z=-20.244*, pos_y=0.250*, direction=264.9°*)
     0x02BF [0x1B] RETURN
     0x02C0 [0x27] REQ_SET(priority=0x10, entity_id=LocalPlayer, tag_num=0x56)
     0x02C7 [0x1B] RETURN
     0x02C8 [0x27] REQ_SET(priority=0x10, entity_id=LocalPlayer, tag_num=0x58)
     0x02CF [0x1B] RETURN
     0x02D0 [0xBA] SET_ENTITY_POSITION(entity_id=LocalPlayer, pos_x=-412.647*, pos_z=352.593*, pos_y=-27.456*, direction=319.2°*)
     0x02DD [0x1B] RETURN
     0x02DE [0xBA] SET_ENTITY_POSITION(entity_id=LocalPlayer, pos_x=10.400*, pos_z=5.171*, pos_y=0.749*, direction=229.7°*)
     0x02EB [0x1B] RETURN
     0x02EC [0x27] REQ_SET(priority=0x10, entity_id=LocalPlayer, tag_num=0x59)
     0x02F3 [0x1B] RETURN
     0x02F4 [0x27] REQ_SET(priority=0x10, entity_id=LocalPlayer, tag_num=0x5A)
     0x02FB [0x1B] RETURN
     0x02FC [0x27] REQ_SET(priority=0x10, entity_id=LocalPlayer, tag_num=0x5B)
     0x0303 [0x1B] RETURN
     0x0304 [0xBA] SET_ENTITY_POSITION(entity_id=LocalPlayer, pos_x=0.268*, pos_z=-20.244*, pos_y=0.250*, direction=264.9°*)
     0x0311 [0x1B] RETURN
     0x0312 [0x27] REQ_SET(priority=0x10, entity_id=LocalPlayer, tag_num=0x5C)
     0x0319 [0x1B] RETURN
     0x031A [0xBA] SET_ENTITY_POSITION(entity_id=LocalPlayer, pos_x=0.121*, pos_z=21.104*, pos_y=0.000*, direction=276.2°*)
     0x0327 [0x1B] RETURN
     0x0328 [0x27] REQ_SET(priority=0x10, entity_id=LocalPlayer, tag_num=0x5D)
     0x032F [0x1B] RETURN
     0x0330 [0xBA] SET_ENTITY_POSITION(entity_id=LocalPlayer, pos_x=-13.410*, pos_z=-26.987*, pos_y=-13.249*, direction=30.0°*)
     0x033D [0x1B] RETURN
     0x033E [0xBA] SET_ENTITY_POSITION(entity_id=LocalPlayer, pos_x=11.026*, pos_z=12.475*, pos_y=-26.249*, direction=342.1°*)
     0x034B [0x1B] RETURN
     0x034C [0xBA] SET_ENTITY_POSITION(entity_id=LocalPlayer, pos_x=16.257*, pos_z=14.076*, pos_y=-26.250*, direction=35.4°*)
     0x0359 [0x1B] RETURN
     0x035A [0xBA] SET_ENTITY_POSITION(entity_id=LocalPlayer, pos_x=17.175*, pos_z=14.290*, pos_y=-26.249*, direction=89.3°*)
     0x0367 [0x1B] RETURN
     0x0368 [0x27] REQ_SET(priority=0x10, entity_id=LocalPlayer, tag_num=0x62)
     0x036F [0x1B] RETURN
     0x0370 [0xBA] SET_ENTITY_POSITION(entity_id=LocalPlayer, pos_x=10.452*, pos_z=14.545*, pos_y=-26.249*, direction=17.9°*)
     0x037D [0x1B] RETURN
     0x037E [0x27] REQ_SET(priority=0x10, entity_id=LocalPlayer, tag_num=0x63)
     0x0385 [0x1B] RETURN
     0x0386 [0xBA] SET_ENTITY_POSITION(entity_id=LocalPlayer, pos_x=10.665*, pos_z=11.384*, pos_y=-26.249*, direction=84.9°*)
     0x0393 [0x1B] RETURN
     0x0394 [0x27] REQ_SET(priority=0x10, entity_id=LocalPlayer, tag_num=0x64)
     0x039B [0x1B] RETURN
     0x039C [0xBA] SET_ENTITY_POSITION(entity_id=LocalPlayer, pos_x=14.394*, pos_z=49.654*, pos_y=-1.999*, direction=178.5°*)
     0x03A9 [0x1B] RETURN
     0x03AA [0x27] REQ_SET(priority=0x10, entity_id=LocalPlayer, tag_num=0x65)
     0x03B1 [0x1B] RETURN
     0x03B2 [0xBA] SET_ENTITY_POSITION(entity_id=LocalPlayer, pos_x=2.817*, pos_z=50.052*, pos_y=-1.000*, direction=182.1°*)
     0x03BF [0x1B] RETURN
     0x03C0 [0xBA] SET_ENTITY_POSITION(entity_id=LocalPlayer, pos_x=-2.179*, pos_z=57.667*, pos_y=-0.999*, direction=236.7°*)
     0x03CD [0x1B] RETURN
     0x03CE [0xBA] SET_ENTITY_POSITION(entity_id=LocalPlayer, pos_x=-7.348*, pos_z=74.886*, pos_y=-1.000*, direction=246.5°*)
     0x03DB [0x1B] RETURN
     0x03DC [0x27] REQ_SET(priority=0x10, entity_id=LocalPlayer, tag_num=0x67)
     0x03E3 [0x1B] RETURN
     0x03E4 [0x27] REQ_SET(priority=0x10, entity_id=LocalPlayer, tag_num=0x68)
     0x03EB [0x1B] RETURN
     0x03EC [0x27] REQ_SET(priority=0x10, entity_id=LocalPlayer, tag_num=0x6B)
     0x03F3 [0x1B] RETURN
     0x03F4 [0x27] REQ_SET(priority=0x10, entity_id=LocalPlayer, tag_num=0x6C)
     0x03FB [0x1B] RETURN
     0x03FC [0x4A] LocalPlayer looks at Ajido-Marujido (ID: 17162758/0x0105E206)
     0x0405 [0x1B] RETURN
     0x0406 [0x4A] LocalPlayer looks at Dhea Prandoleh (ID: 17162751/0x0105E1FF)
     0x040F [0x1B] RETURN
     0x0410 [0x4A] LocalPlayer looks at 1 (ID: 17163004/0x0105E2FC)
     0x0419 [0x1B] RETURN
     0x041A [0x4A] LocalPlayer looks at Lehko Habhoka (ID: 17162806/0x0105E236)
     0x0423 [0x1B] RETURN
     0x0424 [0x4A] LocalPlayer looks at Nhev Befrathi (ID: 17163010/0x0105E302)
     0x042D [0x1B] RETURN
     0x042E [0x4A] LocalPlayer looks at Syu Befrathi (ID: 17163011/0x0105E303)
     0x0437 [0x1B] RETURN
     0x0438 [0x4A] LocalPlayer looks at Perih Vashai (ID: 17162759/0x0105E207)
     0x0441 [0x1B] RETURN
     0x0442 [0x79] LocalPlayer looks at Romaa Mihgo (ID: 17162760/0x0105E208) (Basic look)
     0x044C [0x1B] RETURN
     0x044D [0x4A] LocalPlayer looks at Romaa Mihgo (ID: 17162760/0x0105E208)
     0x0456 [0x1B] RETURN
     0x0457 [0x4A] LocalPlayer looks at Mihl Pakorhma (ID: 17162795/0x0105E22B)
     0x0460 [0x1B] RETURN
     0x0461 [0x27] REQ_SET(priority=0x10, entity_id=LocalPlayer, tag_num=0x6D)
     0x0468 [0x1B] RETURN
     0x0469 [0x27] REQ_SET(priority=0x10, entity_id=LocalPlayer, tag_num=0x6E)
     0x0470 [0x1B] RETURN
     0x0471 [0xBA] SET_ENTITY_POSITION(entity_id=LocalPlayer, pos_x=1.826*, pos_z=16.432*, pos_y=-0.999*, direction=125.6°*)
     0x047E [0x1B] RETURN
     0x047F [0xBA] SET_ENTITY_POSITION(entity_id=LocalPlayer, pos_x=1.865*, pos_z=16.482*, pos_y=-0.999*, direction=125.6°*)
     0x048C [0x1B] RETURN
     0x048D [0x27] REQ_SET(priority=0x10, entity_id=LocalPlayer, tag_num=0x6F)
     0x0494 [0x1B] RETURN
```

### Event 31

#### Metadata

| Field        | Value      |
|--------------|------------|
| Entrypoint   | 0x0495     |
| Data Size    | 3874 bytes |
| Instructions | 485        |

```
      00 01 02 03 04 05 06 07  08 09 0A 0B 0C 0D 0E 0F
      -- -- -- -- -- -- -- --  -- -- -- -- -- -- -- --
0490:                42 1A 45  01 46 01 38 48 80 2F 00       B.E.F.8H./.
04A0: FF E1 05 01 4E 00 FF E1  05 01 2F 00 08 E2 05 01  ....N...../.....
04B0: 4E 00 08 E2 05 01 2F 00  FE E1 05 01 4E 00 FE E1  N...../.....N...
04C0: 05 01 2F 00 61 E2 05 01  4E 00 61 E2 05 01 2F 00  ../.a...N.a.../.
04D0: 53 E2 05 01 4E 00 53 E2  05 01 27 10 2B E2 05 01  S...N.S...'.+...
04E0: 05 27 10 B3 E2 05 01 04  27 10 B4 E2 05 01 04 27  .'......'......'
04F0: 10 B5 E2 05 01 04 27 10  B6 E2 05 01 04 27 10 B7  ......'......'..
0500: E2 05 01 04 27 10 B8 E2  05 01 04 27 10 B9 E2 05  ....'......'....
0510: 01 04 27 10 BA E2 05 01  04 27 10 BB E2 05 01 04  ..'......'......
0520: 27 10 BC E2 05 01 04 27  10 BD E2 05 01 04 27 10  '......'......'.
0530: BE E2 05 01 04 27 10 BF  E2 05 01 04 27 10 C0 E2  .....'......'...
0540: 05 01 04 27 10 C1 E2 05  01 04 27 10 C2 E2 05 01  ...'......'.....
0550: 04 27 10 C3 E2 05 01 04  27 10 C4 E2 05 01 04 27  .'......'......'
0560: 10 C5 E2 05 01 04 27 10  C6 E2 05 01 04 27 10 C7  ......'......'..
0570: E2 05 01 04 27 10 C8 E2  05 01 04 27 10 C9 E2 05  ....'......'....
0580: 01 04 2F 00 CA E2 05 01  4E 00 CA E2 05 01 2F 00  ../.....N...../.
0590: CB E2 05 01 4E 00 CB E2  05 01 2F 00 CC E2 05 01  ....N...../.....
05A0: 4E 00 CC E2 05 01 2F 00  CD E2 05 01 4E 00 CD E2  N...../.....N...
05B0: 05 01 2F 00 CE E2 05 01  4E 00 CE E2 05 01 2F 00  ../.....N...../.
05C0: CF E2 05 01 4E 00 CF E2  05 01 2F 00 D0 E2 05 01  ....N...../.....
05D0: 4E 00 D0 E2 05 01 2F 00  D1 E2 05 01 4E 00 D1 E2  N...../.....N...
05E0: 05 01 2F 00 D2 E2 05 01  4E 00 D2 E2 05 01 5C 00  ../.....N.....\.
05F0: 49 80 5C 01 49 80 92 01  FF E1 05 01 92 01 08 E2  I.\.I...........
0600: 05 01 92 01 FE E1 05 01  92 01 61 E2 05 01 92 01  ..........a.....
0610: 53 E2 05 01 92 01 2B E2  05 01 92 01 B3 E2 05 01  S.....+.........
0620: 92 01 B4 E2 05 01 92 01  B5 E2 05 01 92 01 B6 E2  ................
0630: 05 01 92 01 B7 E2 05 01  92 01 B8 E2 05 01 92 01  ................
0640: B9 E2 05 01 92 01 BA E2  05 01 92 01 BB E2 05 01  ................
0650: 92 01 BC E2 05 01 92 01  BD E2 05 01 92 01 BE E2  ................
0660: 05 01 92 01 BF E2 05 01  92 01 C0 E2 05 01 92 01  ................
0670: C1 E2 05 01 92 01 C2 E2  05 01 92 01 C3 E2 05 01  ................
0680: 92 01 C4 E2 05 01 92 01  C5 E2 05 01 92 01 C6 E2  ................
0690: 05 01 92 01 C7 E2 05 01  92 01 C8 E2 05 01 92 01  ................
06A0: C9 E2 05 01 92 01 CA E2  05 01 92 01 CB E2 05 01  ................
06B0: 92 01 CC E2 05 01 92 01  CD E2 05 01 92 01 CE E2  ................
06C0: 05 01 92 01 CF E2 05 01  92 01 D0 E2 05 01 92 01  ................
06D0: D1 E2 05 01 92 01 D2 E2  05 01 94 01 F0 FF FF 7F  ................
06E0: 94 01 FF E1 05 01 94 01  08 E2 05 01 94 01 FE E1  ................
06F0: 05 01 94 01 61 E2 05 01  94 01 53 E2 05 01 94 01  ....a.....S.....
0700: 2B E2 05 01 94 01 B3 E2  05 01 94 01 B4 E2 05 01  +...............
0710: 94 01 B5 E2 05 01 94 01  B6 E2 05 01 94 01 B7 E2  ................
0720: 05 01 94 01 B8 E2 05 01  94 01 B9 E2 05 01 94 01  ................
0730: BA E2 05 01 94 01 BB E2  05 01 94 01 BC E2 05 01  ................
0740: 94 01 BD E2 05 01 94 01  BE E2 05 01 94 01 BF E2  ................
0750: 05 01 94 01 C0 E2 05 01  94 01 C1 E2 05 01 94 01  ................
0760: C2 E2 05 01 94 01 C3 E2  05 01 94 01 C4 E2 05 01  ................
0770: 94 01 C5 E2 05 01 94 01  C6 E2 05 01 94 01 C7 E2  ................
0780: 05 01 94 01 C8 E2 05 01  94 01 C9 E2 05 01 94 01  ................
0790: CA E2 05 01 94 01 CB E2  05 01 94 01 CC E2 05 01  ................
07A0: 94 01 CD E2 05 01 94 01  CE E2 05 01 94 01 CF E2  ................
07B0: 05 01 94 01 D0 E2 05 01  94 01 D1 E2 05 01 94 01  ................
07C0: D2 E2 05 01 80 FF E1 05  01 80 08 E2 05 01 80 FE  ................
07D0: E1 05 01 80 61 E2 05 01  80 53 E2 05 01 80 2B E2  ....a....S....+.
07E0: 05 01 80 B3 E2 05 01 80  B4 E2 05 01 80 B5 E2 05  ................
07F0: 01 80 B6 E2 05 01 80 B7  E2 05 01 80 B8 E2 05 01  ................
0800: 80 B9 E2 05 01 80 BA E2  05 01 80 BB E2 05 01 80  ................
0810: BC E2 05 01 80 BD E2 05  01 80 BE E2 05 01 80 BF  ................
0820: E2 05 01 80 C0 E2 05 01  80 C1 E2 05 01 80 C2 E2  ................
0830: 05 01 80 C3 E2 05 01 80  C4 E2 05 01 80 C5 E2 05  ................
0840: 01 80 C6 E2 05 01 80 C7  E2 05 01 80 C8 E2 05 01  ................
0850: 80 C9 E2 05 01 59 05 CD  E2 05 01 01 59 05 CE E2  .....Y......Y...
0860: 05 01 01 59 05 CF E2 05  01 01 59 05 D0 E2 05 01  ...Y......Y.....
0870: 01 59 05 D1 E2 05 01 01  59 05 D2 E2 05 01 01 59  .Y......Y......Y
0880: 05 C7 E2 05 01 01 1C 4A  80 BA F0 FF FF 7F 4B 80  .......J......K.
0890: 4C 80 0C 80 4D 80 BA 08  E2 05 01 4E 80 4F 80 08  L...M......N.O..
08A0: 80 50 80 BA FF E1 05 01  51 80 52 80 0C 80 53 80  .P......Q.R...S.
08B0: BA FE E1 05 01 54 80 55  80 56 80 57 80 BA 61 E2  .....T.U.V.W..a.
08C0: 05 01 58 80 59 80 0C 80  5A 80 BA 53 E2 05 01 5B  ..X.Y...Z..S...[
08D0: 80 5C 80 08 80 5D 80 BA  2B E2 05 01 5E 80 5F 80  .\...]..+...^._.
08E0: 0C 80 60 80 BA B3 E2 05  01 5B 80 5C 80 08 80 5D  ..`......[.\...]
08F0: 80 BA B4 E2 05 01 61 80  62 80 63 80 64 80 BA B5  ......a.b.c.d...
0900: E2 05 01 65 80 66 80 63  80 67 80 BA B6 E2 05 01  ...e.f.c.g......
0910: 68 80 69 80 63 80 6A 80  BA B7 E2 05 01 6B 80 6C  h.i.c.j......k.l
0920: 80 63 80 6D 80 BA B8 E2  05 01 6E 80 6F 80 63 80  .c.m......n.o.c.
0930: 70 80 BA B9 E2 05 01 71  80 72 80 63 80 73 80 BA  p......q.r.c.s..
0940: BA E2 05 01 74 80 75 80  63 80 76 80 BA BB E2 05  ....t.u.c.v.....
0950: 01 77 80 78 80 63 80 79  80 BA BC E2 05 01 7A 80  .w.x.c.y......z.
0960: 7B 80 56 80 7C 80 BA BD  E2 05 01 7D 80 7E 80 56  {.V.|......}.~.V
0970: 80 7F 80 BA BE E2 05 01  80 80 81 80 56 80 82 80  ............V...
0980: BA BF E2 05 01 83 80 84  80 56 80 64 80 BA C0 E2  .........V.d....
0990: 05 01 85 80 86 80 56 80  87 80 BA C1 E2 05 01 88  ......V.........
09A0: 80 89 80 56 80 8A 80 BA  C2 E2 05 01 8B 80 8C 80  ...V............
09B0: 56 80 8D 80 BA C3 E2 05  01 8E 80 8F 80 56 80 90  V............V..
09C0: 80 BA C4 E2 05 01 91 80  92 80 56 80 93 80 BA C5  ..........V.....
09D0: E2 05 01 94 80 95 80 0C  80 96 80 BA C6 E2 05 01  ................
09E0: 97 80 98 80 0C 80 99 80  BA C7 E2 05 01 9A 80 9B  ................
09F0: 80 9C 80 9D 80 BA C8 E2  05 01 9E 80 9F 80 0C 80  ................
0A00: A0 80 BA C9 E2 05 01 A1  80 A2 80 0C 80 A3 80 BA  ................
0A10: CA E2 05 01 A4 80 A5 80  08 80 A6 80 BA CB E2 05  ................
0A20: 01 A7 80 A8 80 08 80 A9  80 BA CC E2 05 01 AA 80  ................
0A30: AB 80 0C 80 00 80 BA CD  E2 05 01 AC 80 AD 80 AE  ................
0A40: 80 00 80 BA CE E2 05 01  AF 80 B0 80 AE 80 00 80  ................
0A50: BA CF E2 05 01 B1 80 B2  80 B3 80 00 80 BA D0 E2  ................
0A60: 05 01 B4 80 B5 80 B6 80  00 80 9A 1C 4A 80 C5 B7  ............J...
0A70: 80 CA E2 05 01 CA E2 05  01 73 30 30 30 00 80 C5  .........s000...
0A80: B7 80 CB E2 05 01 CB E2  05 01 73 30 30 31 00 80  ..........s001..
0A90: C5 B7 80 CC E2 05 01 CC  E2 05 01 73 30 30 32 00  ...........s002.
0AA0: 80 9F B7 80 CD E2 05 01  CD E2 05 01 73 30 30 32  ............s002
0AB0: 00 80 9F B7 80 CE E2 05  01 CE E2 05 01 73 30 30  .............s00
0AC0: 32 00 80 9F B7 80 CF E2  05 01 CF E2 05 01 73 30  2.............s0
0AD0: 30 32 00 80 9F B7 80 D0  E2 05 01 D0 E2 05 01 73  02.............s
0AE0: 30 30 32 00 80 79 00 FF  E1 05 01 53 E2 05 01 79  002..y.....S...y
0AF0: 00 53 E2 05 01 FF E1 05  01 79 00 B3 E2 05 01 FF  .S.......y......
0B00: E1 05 01 79 00 C0 E2 05  01 C3 E2 05 01 79 00 C3  ...y.........y..
0B10: E2 05 01 C0 E2 05 01 79  00 C4 E2 05 01 C0 E2 05  .......y........
0B20: 01 27 10 B5 E2 05 01 09  1C B8 80 27 10 BC E2 05  .'.........'....
0B30: 01 09 66 B9 80 C0 E2 05  01 C0 E2 05 01 74 6C 6B  ..f..........tlk
0B40: 30 1C B8 80 27 10 C1 E2  05 01 0F 27 10 B7 E2 05  0...'......'....
0B50: 01 09 45 BA 80 F0 FF FF  7F F0 FF FF 7F 6D 30 31  ..E..........m01
0B60: 30 00 80 1A 66 01 27 10  B4 E2 05 01 09 1C B8 80  0...f.'.........
0B70: 27 10 FE E1 05 01 1F 1C  B8 80 27 10 C2 E2 05 01  '.........'.....
0B80: 09 1C BB 80 27 10 FF E1  05 01 2F 1C BC 80 55 BA  ....'...../...U.
0B90: 80 F0 FF FF 7F F0 FF FF  7F 6D 30 31 30 52 BA 80  .........m010R..
0BA0: F0 FF FF 7F F0 FF FF 7F  6D 30 31 30 45 BA 80 F0  ........m010E...
0BB0: FF FF 7F F0 FF FF 7F 6D  30 32 35 00 80 1C BD 80  .......m025.....
0BC0: 52 BA 80 F0 FF FF 7F F0  FF FF 7F 6D 30 32 35 45  R..........m025E
0BD0: BA 80 F0 FF FF 7F F0 FF  FF 7F 6D 30 32 32 00 80  ..........m022..
0BE0: 1C BE 80 27 10 53 E2 05  01 0A 1C BF 80 27 10 B3  ...'.S.......'..
0BF0: E2 05 01 0D 55 BA 80 F0  FF FF 7F F0 FF FF 7F 6D  ....U..........m
0C00: 30 32 32 52 BA 80 F0 FF  FF 7F F0 FF FF 7F 6D 30  022R..........m0
0C10: 32 32 45 BA 80 F0 FF FF  7F F0 FF FF 7F 6D 30 32  22E..........m02
0C20: 30 00 80 1C 01 80 BA F0  FF FF 7F C0 80 C1 80 08  0...............
0C30: 80 A9 80 2A 10 FF E1 05  01 66 B9 80 53 E2 05 01  ...*.....f..S...
0C40: 53 E2 05 01 74 6C 6B 30  1C BC 80 6E FF E1 05 01  S...tlk0...n....
0C50: C2 80 99 FF E1 05 01 1C  C3 80 79 00 B3 E2 05 01  ..........y.....
0C60: 53 E2 05 01 7B 53 E2 05  01 66 B9 80 53 E2 05 01  S...{S...f..S...
0C70: 53 E2 05 01 74 6C 6B 31  1C BC 80 7B B3 E2 05 01  S...tlk1...{....
0C80: 27 10 53 E2 05 01 06 4A  FF E1 05 01 F0 FF FF 7F  '.S....J........
0C90: 7B FF E1 05 01 79 00 F0  FF FF 7F FF E1 05 01 1C  {....y..........
0CA0: C4 80 79 00 FF E1 05 01  F0 FF FF 7F 27 10 B3 E2  ..y.........'...
0CB0: 05 01 0F 1C B8 80 1A 33  02 02 07 10 C5 80 80 E4  .......3........
0CC0: 0C 52 BA 80 F0 FF FF 7F  F0 FF FF 7F 6D 30 32 30  .R..........m020
0CD0: 45 BA 80 F0 FF FF 7F F0  FF FF 7F 6D 30 33 38 00  E..........m038.
0CE0: 80 01 5A 0D 02 07 10 C6  80 80 0F 0D 52 BA 80 F0  ..Z.........R...
0CF0: FF FF 7F F0 FF FF 7F 6D  30 32 30 45 BA 80 F0 FF  .......m020E....
0D00: FF 7F F0 FF FF 7F 6D 30  33 35 00 80 01 5A 0D 02  ......m035...Z..
0D10: 07 10 04 80 80 3A 0D 52  BA 80 F0 FF FF 7F F0 FF  .....:.R........
0D20: FF 7F 6D 30 32 30 45 BA  80 F0 FF FF 7F F0 FF FF  ..m020E.........
0D30: 7F 6D 30 33 38 00 80 01  5A 0D 52 BA 80 F0 FF FF  .m038...Z.R.....
0D40: 7F F0 FF FF 7F 6D 30 32  30 45 BA 80 F0 FF FF 7F  .....m020E......
0D50: F0 FF FF 7F 6D 30 33 37  00 80 7A 00 B5 E2 05 01  ....m037..z.....
0D60: 1C BF 80 BA B5 E2 05 01  C7 80 C8 80 C9 80 CA 80  ................
0D70: BA B8 E2 05 01 CB 80 CC  80 CD 80 CE 80 BA B9 E2  ................
0D80: 05 01 CF 80 D0 80 D1 80  D2 80 2B FF E1 05 01 D3  ..........+.....
0D90: 80 1C BC 80 27 10 B5 E2  05 01 09 1A 61 04 23 1A  ....'.......a.#.
0DA0: 33 02 02 07 10 C5 80 80  CB 0D 55 BA 80 F0 FF FF  3.........U.....
0DB0: 7F F0 FF FF 7F 6D 30 33  38 52 BA 80 F0 FF FF 7F  .....m038R......
0DC0: F0 FF FF 7F 6D 30 33 38  01 3B 0E 02 07 10 C6 80  ....m038.;......
0DD0: 80 F4 0D 55 BA 80 F0 FF  FF 7F F0 FF FF 7F 6D 30  ...U..........m0
0DE0: 33 35 52 BA 80 F0 FF FF  7F F0 FF FF 7F 6D 30 33  35R..........m03
0DF0: 35 01 3B 0E 02 07 10 04  80 80 1D 0E 55 BA 80 F0  5.;.........U...
0E00: FF FF 7F F0 FF FF 7F 6D  30 33 38 52 BA 80 F0 FF  .......m038R....
0E10: FF 7F F0 FF FF 7F 6D 30  33 38 01 3B 0E 55 BA 80  ......m038.;.U..
0E20: F0 FF FF 7F F0 FF FF 7F  6D 30 33 37 52 BA 80 F0  ........m037R...
0E30: FF FF 7F F0 FF FF 7F 6D  30 33 37 45 BA 80 F0 FF  .......m037E....
0E40: FF 7F F0 FF FF 7F 6D 30  34 30 00 80 66 B9 80 FF  ......m040..f...
0E50: E1 05 01 FF E1 05 01 74  6C 6B 30 1C 01 80 7A 00  .......tlk0...z.
0E60: FE E1 05 01 7A 00 53 E2  05 01 2B FF E1 05 01 D4  ....z.S...+.....
0E70: 80 23 66 B9 80 FF E1 05  01 FF E1 05 01 74 6C 6B  .#f..........tlk
0E80: 31 BA FE E1 05 01 D5 80  D6 80 56 80 D7 80 BA 53  1.........V....S
0E90: E2 05 01 D8 80 D9 80 63  80 A9 80 1C B8 80 1C 4A  .......c.......J
0EA0: 80 27 10 C2 E2 05 01 0A  1C 4A 80 27 10 BF E2 05  .'.......J.'....
0EB0: 01 09 1C 4A 80 27 10 BA  E2 05 01 09 1C 4A 80 27  ...J.'.......J.'
0EC0: 10 BB E2 05 01 09 1C 4A  80 4A FF E1 05 01 BA E2  .......J.J......
0ED0: 05 01 27 10 53 E2 05 01  07 1C 4A 80 27 10 FE E1  ..'.S.....J.'...
0EE0: 05 01 20 1C BF 80 52 BA  80 F0 FF FF 7F F0 FF FF  .. ...R.........
0EF0: 7F 6D 30 34 30 45 BA 80  F0 FF FF 7F F0 FF FF 7F  .m040E..........
0F00: 6D 30 31 35 00 80 1C BC  80 79 00 FF E1 05 01 F0  m015.....y......
0F10: FF FF 7F 2B FF E1 05 01  DA 80 1C BD 80 23 79 00  ...+.........#y.
0F20: 08 E2 05 01 FF E1 05 01  27 10 08 E2 05 01 58 1C  ........'.....X.
0F30: B8 80 27 10 2B E2 05 01  18 1C C4 80 52 BA 80 F0  ..'.+.......R...
0F40: FF FF 7F F0 FF FF 7F 6D  30 31 35 45 BA 80 F0 FF  .......m015E....
0F50: FF 7F F0 FF FF 7F 6D 30  35 35 00 80 1C BF 80 BA  ......m055......
0F60: BE E2 05 01 DB 80 DC 80  CD 80 DD 80 79 00 FF E1  ............y...
0F70: 05 01 08 E2 05 01 2B 08  E2 05 01 DE 80 55 BA 80  ......+......U..
0F80: F0 FF FF 7F F0 FF FF 7F  6D 30 35 35 27 10 BE E2  ........m055'...
0F90: 05 01 0F 27 10 B8 E2 05  01 0F 52 BA 80 F0 FF FF  ...'......R.....
0FA0: 7F F0 FF FF 7F 6D 30 35  35 45 BA 80 F0 FF FF 7F  .....m055E......
0FB0: F0 FF FF 7F 6D 30 35 30  00 80 1A 42 04 23 2B FF  ....m050...B.#+.
0FC0: E1 05 01 DF 80 23 4A FF  E1 05 01 08 E2 05 01 52  .....#J........R
0FD0: BA 80 F0 FF FF 7F F0 FF  FF 7F 6D 30 35 30 45 BA  ..........m050E.
0FE0: 80 F0 FF FF 7F F0 FF FF  7F 6D 30 36 30 00 80 6F  .........m060..o
0FF0: 76 FF E1 05 01 7A 00 B3  E2 05 01 7A 00 B4 E2 05  v....z.....z....
1000: 01 7A 00 B5 E2 05 01 4A  08 E2 05 01 F0 FF FF 7F  .z.....J........
1010: 79 00 08 E2 05 01 FF E1  05 01 7B F0 FF FF 7F 27  y.........{....'
1020: 10 FF E1 05 01 08 1C B8  80 1A 4D 04 BA B4 E2 05  ..........M.....
1030: 01 E0 80 E1 80 63 80 A9  80 BA BD E2 05 01 E2 80  .....c..........
1040: E3 80 E4 80 E5 80 BA B3  E2 05 01 E6 80 E7 80 E8  ................
1050: 80 E9 80 2B FF E1 05 01  EA 80 23 27 10 B9 E2 05  ...+......#'....
1060: 01 0F 52 BA 80 F0 FF FF  7F F0 FF FF 7F 6D 30 36  ..R..........m06
1070: 30 45 BA 80 F0 FF FF 7F  F0 FF FF 7F 6D 30 39 30  0E..........m090
1080: 00 80 2B 08 E2 05 01 EB  80 23 1C EC 80 52 BA 80  ..+......#...R..
1090: F0 FF FF 7F F0 FF FF 7F  6D 30 39 30 1A 33 02 02  ........m090.3..
10A0: 07 10 C5 80 80 BB 10 45  BA 80 F0 FF FF 7F F0 FF  .......E........
10B0: FF 7F 6D 30 37 33 00 80  01 04 11 02 07 10 C6 80  ..m073..........
10C0: 80 D7 10 45 BA 80 F0 FF  FF 7F F0 FF FF 7F 6D 30  ...E..........m0
10D0: 37 35 00 80 01 04 11 02  07 10 04 80 80 F3 10 45  75.............E
10E0: BA 80 F0 FF FF 7F F0 FF  FF 7F 6D 30 37 38 00 80  ..........m078..
10F0: 01 04 11 45 BA 80 F0 FF  FF 7F F0 FF FF 7F 6D 30  ...E..........m0
1100: 37 30 00 80 1C 01 80 BA  FF E1 05 01 ED 80 EE 80  70..............
1110: 08 80 EF 80 1A 4D 04 1C  01 80 4A FF E1 05 01 08  .....M....J.....
1120: E2 05 01 79 00 08 E2 05  01 F0 FF FF 7F 5B F0 80  ...y.........[..
1130: 08 E2 05 01 08 E2 05 01  73 74 61 30 1C BF 80 2B  ........sta0...+
1140: 08 E2 05 01 F1 80 23 1A  33 02 02 07 10 C5 80 80  ......#.3.......
1150: 64 11 52 BA 80 F0 FF FF  7F F0 FF FF 7F 6D 30 37  d.R..........m07
1160: 33 01 A7 11 02 07 10 C6  80 80 7E 11 52 BA 80 F0  3.........~.R...
1170: FF FF 7F F0 FF FF 7F 6D  30 37 35 01 A7 11 02 07  .......m075.....
1180: 10 04 80 80 98 11 52 BA  80 F0 FF FF 7F F0 FF FF  ......R.........
1190: 7F 6D 30 37 38 01 A7 11  52 BA 80 F0 FF FF 7F F0  .m078...R.......
11A0: FF FF 7F 6D 30 37 30 45  BA 80 F0 FF FF 7F F0 FF  ...m070E........
11B0: FF 7F 6D 30 38 30 00 80  5B F0 80 08 E2 05 01 08  ..m080..[.......
11C0: E2 05 01 73 74 61 31 2B  08 E2 05 01 F2 80 23 53  ...sta1+......#S
11D0: 08 E2 05 01 08 E2 05 01  73 74 61 31 2B 08 E2 05  ........sta1+...
11E0: 01 F3 80 1C BF 80 6E 08  E2 05 01 09 80 99 08 E2  ......n.........
11F0: 05 01 1C BF 80 23 52 BA  80 F0 FF FF 7F F0 FF FF  .....#R.........
1200: 7F 6D 30 38 30 1A 33 02  02 02 10 01 80 80 24 12  .m080.3.......$.
1210: 45 BA 80 F0 FF FF 7F F0  FF FF 7F 6D 31 30 31 00  E..........m101.
1220: 80 01 F9 12 02 02 10 F4  80 80 40 12 45 BA 80 F0  ..........@.E...
1230: FF FF 7F F0 FF FF 7F 6D  31 30 32 00 80 01 F9 12  .......m102.....
1240: 02 02 10 F5 80 80 5C 12  45 BA 80 F0 FF FF 7F F0  ......\.E.......
1250: FF FF 7F 6D 31 30 38 00  80 01 F9 12 02 02 10 C5  ...m108.........
1260: 80 80 78 12 45 BA 80 F0  FF FF 7F F0 FF FF 7F 6D  ..x.E..........m
1270: 31 30 34 00 80 01 F9 12  02 02 10 4A 80 80 94 12  104........J....
1280: 45 BA 80 F0 FF FF 7F F0  FF FF 7F 6D 31 30 35 00  E..........m105.
1290: 80 01 F9 12 02 02 10 C6  80 80 B0 12 45 BA 80 F0  ............E...
12A0: FF FF 7F F0 FF FF 7F 6D  31 30 35 00 80 01 F9 12  .......m105.....
12B0: 02 02 10 C2 80 80 CC 12  45 BA 80 F0 FF FF 7F F0  ........E.......
12C0: FF FF 7F 6D 31 30 37 00  80 01 F9 12 02 02 10 04  ...m107.........
12D0: 80 80 E8 12 45 BA 80 F0  FF FF 7F F0 FF FF 7F 6D  ....E..........m
12E0: 31 30 38 00 80 01 F9 12  45 BA 80 F0 FF FF 7F F0  108.....E.......
12F0: FF FF 7F 6D 30 39 30 00  80 1C B8 80 6E F0 FF FF  ...m090.....n...
1300: 7F C2 80 99 F0 FF FF 7F  1C BD 80 1A 45 01 1C BF  ............E...
1310: 80 52 BA 80 F0 FF FF 7F  F0 FF FF 7F 6D 31 30 31  .R..........m101
1320: 52 BA 80 F0 FF FF 7F F0  FF FF 7F 6D 31 30 32 52  R..........m102R
1330: BA 80 F0 FF FF 7F F0 FF  FF 7F 6D 31 30 33 52 BA  ..........m103R.
1340: 80 F0 FF FF 7F F0 FF FF  7F 6D 31 30 34 52 BA 80  .........m104R..
1350: F0 FF FF 7F F0 FF FF 7F  6D 31 30 35 52 BA 80 F0  ........m105R...
1360: FF FF 7F F0 FF FF 7F 6D  31 30 36 52 BA 80 F0 FF  .......m106R....
1370: FF 7F F0 FF FF 7F 6D 31  30 37 52 BA 80 F0 FF FF  ......m107R.....
1380: 7F F0 FF FF 7F 6D 31 30  38 52 BA 80 F0 FF FF 7F  .....m108R......
1390: F0 FF FF 7F 6D 30 39 30  1C BF 80 AB 11 00 80 1C  ....m090........
13A0: 01 80 46 00 45 03 80 F0  FF FF 7F F0 FF FF 7F 66  ..F.E..........f
13B0: 64 69 32 00 80 21 00                              di2..!.         
```

#### Opcodes

```
  0: 0x0495 [0x42] SET_CLI_EVENT_CANCEL_DATA()
  1: 0x0496 [0x1A] CALL_SUBROUTINE(address=0x0145)
  2: 0x0499 [0x46] CAMERA_CONTROL: Disable user control
  3: 0x049B [0x38] SET_CLIENT_EVENT_MODE(mode=19*)
  4: 0x049E [0x2F] Dhea Prandoleh (ID: 17162751/0x0105E1FF)->Render.Flags0 &= ~0x80000 // Bit 19
  5: 0x04A4 [0x4E] SET_ENTITY_HIDE_FLAG: Show Dhea Prandoleh (ID: 17162751/0x0105E1FF)
  6: 0x04AA [0x2F] Romaa Mihgo (ID: 17162760/0x0105E208)->Render.Flags0 &= ~0x80000 // Bit 19
  7: 0x04B0 [0x4E] SET_ENTITY_HIDE_FLAG: Show Romaa Mihgo (ID: 17162760/0x0105E208)
  8: 0x04B6 [0x2F] Miah Riyuh (ID: 17162750/0x0105E1FE)->Render.Flags0 &= ~0x80000 // Bit 19
  9: 0x04BC [0x4E] SET_ENTITY_HIDE_FLAG: Show Miah Riyuh (ID: 17162750/0x0105E1FE)
 10: 0x04C2 [0x2F] Mhoti Pyiahrs (ID: 17162849/0x0105E261)->Render.Flags0 &= ~0x80000 // Bit 19
 11: 0x04C8 [0x4E] SET_ENTITY_HIDE_FLAG: Show Mhoti Pyiahrs (ID: 17162849/0x0105E261)
 12: 0x04CE [0x2F] Emhi Tchaoryo (ID: 17162835/0x0105E253)->Render.Flags0 &= ~0x80000 // Bit 19
 13: 0x04D4 [0x4E] SET_ENTITY_HIDE_FLAG: Show Emhi Tchaoryo (ID: 17162835/0x0105E253)
 14: 0x04DA [0x27] REQ_SET(priority=0x10, entity_id=Mihl Pakorhma (ID: 17162795/0x0105E22B), tag_num=0x05)
 15: 0x04E1 [0x27] REQ_SET(priority=0x10, entity_id=01 (ID: 17162931/0x0105E2B3), tag_num=0x04)
 16: 0x04E8 [0x27] REQ_SET(priority=0x10, entity_id=02 (ID: 17162932/0x0105E2B4), tag_num=0x04)
 17: 0x04EF [0x27] REQ_SET(priority=0x10, entity_id=03 (ID: 17162933/0x0105E2B5), tag_num=0x04)
 18: 0x04F6 [0x27] REQ_SET(priority=0x10, entity_id=04 (ID: 17162934/0x0105E2B6), tag_num=0x04)
 19: 0x04FD [0x27] REQ_SET(priority=0x10, entity_id=05 (ID: 17162935/0x0105E2B7), tag_num=0x04)
 20: 0x0504 [0x27] REQ_SET(priority=0x10, entity_id=06 (ID: 17162936/0x0105E2B8), tag_num=0x04)
 21: 0x050B [0x27] REQ_SET(priority=0x10, entity_id=07 (ID: 17162937/0x0105E2B9), tag_num=0x04)
 22: 0x0512 [0x27] REQ_SET(priority=0x10, entity_id=08 (ID: 17162938/0x0105E2BA), tag_num=0x04)
 23: 0x0519 [0x27] REQ_SET(priority=0x10, entity_id=a01 (ID: 17162939/0x0105E2BB), tag_num=0x04)
 24: 0x0520 [0x27] REQ_SET(priority=0x10, entity_id=a02 (ID: 17162940/0x0105E2BC), tag_num=0x04)
 25: 0x0527 [0x27] REQ_SET(priority=0x10, entity_id=a03 (ID: 17162941/0x0105E2BD), tag_num=0x04)
 26: 0x052E [0x27] REQ_SET(priority=0x10, entity_id=a04 (ID: 17162942/0x0105E2BE), tag_num=0x04)
 27: 0x0535 [0x27] REQ_SET(priority=0x10, entity_id=a05 (ID: 17162943/0x0105E2BF), tag_num=0x04)
 28: 0x053C [0x27] REQ_SET(priority=0x10, entity_id=a06 (ID: 17162944/0x0105E2C0), tag_num=0x04)
 29: 0x0543 [0x27] REQ_SET(priority=0x10, entity_id=a07 (ID: 17162945/0x0105E2C1), tag_num=0x04)
 30: 0x054A [0x27] REQ_SET(priority=0x10, entity_id=a08 (ID: 17162946/0x0105E2C2), tag_num=0x04)
 31: 0x0551 [0x27] REQ_SET(priority=0x10, entity_id=t01 (ID: 17162947/0x0105E2C3), tag_num=0x04)
 32: 0x0558 [0x27] REQ_SET(priority=0x10, entity_id=t02 (ID: 17162948/0x0105E2C4), tag_num=0x04)
 33: 0x055F [0x27] REQ_SET(priority=0x10, entity_id=Unnamed NPC (ID: 17162949/0x0105E2C5), tag_num=0x04)
 34: 0x0566 [0x27] REQ_SET(priority=0x10, entity_id=Unnamed NPC (ID: 17162950/0x0105E2C6), tag_num=0x04)
 35: 0x056D [0x27] REQ_SET(priority=0x10, entity_id=Unnamed NPC (ID: 17162951/0x0105E2C7), tag_num=0x04)
 36: 0x0574 [0x27] REQ_SET(priority=0x10, entity_id=Unnamed NPC (ID: 17162952/0x0105E2C8), tag_num=0x04)
 37: 0x057B [0x27] REQ_SET(priority=0x10, entity_id=Unnamed NPC (ID: 17162953/0x0105E2C9), tag_num=0x04)
 38: 0x0582 [0x2F] 01 (ID: 17162954/0x0105E2CA)->Render.Flags0 &= ~0x80000 // Bit 19
 39: 0x0588 [0x4E] SET_ENTITY_HIDE_FLAG: Show 01 (ID: 17162954/0x0105E2CA)
 40: 0x058E [0x2F] 02 (ID: 17162955/0x0105E2CB)->Render.Flags0 &= ~0x80000 // Bit 19
 41: 0x0594 [0x4E] SET_ENTITY_HIDE_FLAG: Show 02 (ID: 17162955/0x0105E2CB)
 42: 0x059A [0x2F] 03 (ID: 17162956/0x0105E2CC)->Render.Flags0 &= ~0x80000 // Bit 19
 43: 0x05A0 [0x4E] SET_ENTITY_HIDE_FLAG: Show 03 (ID: 17162956/0x0105E2CC)
 44: 0x05A6 [0x2F] 04 (ID: 17162957/0x0105E2CD)->Render.Flags0 &= ~0x80000 // Bit 19
 45: 0x05AC [0x4E] SET_ENTITY_HIDE_FLAG: Show 04 (ID: 17162957/0x0105E2CD)
 46: 0x05B2 [0x2F] 05 (ID: 17162958/0x0105E2CE)->Render.Flags0 &= ~0x80000 // Bit 19
 47: 0x05B8 [0x4E] SET_ENTITY_HIDE_FLAG: Show 05 (ID: 17162958/0x0105E2CE)
 48: 0x05BE [0x2F] 06 (ID: 17162959/0x0105E2CF)->Render.Flags0 &= ~0x80000 // Bit 19
 49: 0x05C4 [0x4E] SET_ENTITY_HIDE_FLAG: Show 06 (ID: 17162959/0x0105E2CF)
 50: 0x05CA [0x2F] 07 (ID: 17162960/0x0105E2D0)->Render.Flags0 &= ~0x80000 // Bit 19
 51: 0x05D0 [0x4E] SET_ENTITY_HIDE_FLAG: Show 07 (ID: 17162960/0x0105E2D0)
 52: 0x05D6 [0x2F] 08 (ID: 17162961/0x0105E2D1)->Render.Flags0 &= ~0x80000 // Bit 19
 53: 0x05DC [0x4E] SET_ENTITY_HIDE_FLAG: Show 08 (ID: 17162961/0x0105E2D1)
 54: 0x05E2 [0x2F] 09 (ID: 17162962/0x0105E2D2)->Render.Flags0 &= ~0x80000 // Bit 19
 55: 0x05E8 [0x4E] SET_ENTITY_HIDE_FLAG: Show 09 (ID: 17162962/0x0105E2D2)
 56: 0x05EE [0x5C] MUSIC_CONTROL: Set Idle (Day) music to song 140*
 57: 0x05F2 [0x5C] MUSIC_CONTROL: Set Idle (Night) music to song 140*
 58: 0x05F6 [0x92] Dhea Prandoleh (ID: 17162751/0x0105E1FF)->Render.Flags3 ^= 0x01
 59: 0x05FC [0x92] Romaa Mihgo (ID: 17162760/0x0105E208)->Render.Flags3 ^= 0x01
 60: 0x0602 [0x92] Miah Riyuh (ID: 17162750/0x0105E1FE)->Render.Flags3 ^= 0x01
 61: 0x0608 [0x92] Mhoti Pyiahrs (ID: 17162849/0x0105E261)->Render.Flags3 ^= 0x01
 62: 0x060E [0x92] Emhi Tchaoryo (ID: 17162835/0x0105E253)->Render.Flags3 ^= 0x01
 63: 0x0614 [0x92] Mihl Pakorhma (ID: 17162795/0x0105E22B)->Render.Flags3 ^= 0x01
 64: 0x061A [0x92] 01 (ID: 17162931/0x0105E2B3)->Render.Flags3 ^= 0x01
 65: 0x0620 [0x92] 02 (ID: 17162932/0x0105E2B4)->Render.Flags3 ^= 0x01
 66: 0x0626 [0x92] 03 (ID: 17162933/0x0105E2B5)->Render.Flags3 ^= 0x01
 67: 0x062C [0x92] 04 (ID: 17162934/0x0105E2B6)->Render.Flags3 ^= 0x01
 68: 0x0632 [0x92] 05 (ID: 17162935/0x0105E2B7)->Render.Flags3 ^= 0x01
 69: 0x0638 [0x92] 06 (ID: 17162936/0x0105E2B8)->Render.Flags3 ^= 0x01
 70: 0x063E [0x92] 07 (ID: 17162937/0x0105E2B9)->Render.Flags3 ^= 0x01
 71: 0x0644 [0x92] 08 (ID: 17162938/0x0105E2BA)->Render.Flags3 ^= 0x01
 72: 0x064A [0x92] a01 (ID: 17162939/0x0105E2BB)->Render.Flags3 ^= 0x01
 73: 0x0650 [0x92] a02 (ID: 17162940/0x0105E2BC)->Render.Flags3 ^= 0x01
 74: 0x0656 [0x92] a03 (ID: 17162941/0x0105E2BD)->Render.Flags3 ^= 0x01
 75: 0x065C [0x92] a04 (ID: 17162942/0x0105E2BE)->Render.Flags3 ^= 0x01
 76: 0x0662 [0x92] a05 (ID: 17162943/0x0105E2BF)->Render.Flags3 ^= 0x01
 77: 0x0668 [0x92] a06 (ID: 17162944/0x0105E2C0)->Render.Flags3 ^= 0x01
 78: 0x066E [0x92] a07 (ID: 17162945/0x0105E2C1)->Render.Flags3 ^= 0x01
 79: 0x0674 [0x92] a08 (ID: 17162946/0x0105E2C2)->Render.Flags3 ^= 0x01
 80: 0x067A [0x92] t01 (ID: 17162947/0x0105E2C3)->Render.Flags3 ^= 0x01
 81: 0x0680 [0x92] t02 (ID: 17162948/0x0105E2C4)->Render.Flags3 ^= 0x01
 82: 0x0686 [0x92] Unnamed NPC (ID: 17162949/0x0105E2C5)->Render.Flags3 ^= 0x01
 83: 0x068C [0x92] Unnamed NPC (ID: 17162950/0x0105E2C6)->Render.Flags3 ^= 0x01
 84: 0x0692 [0x92] Unnamed NPC (ID: 17162951/0x0105E2C7)->Render.Flags3 ^= 0x01
 85: 0x0698 [0x92] Unnamed NPC (ID: 17162952/0x0105E2C8)->Render.Flags3 ^= 0x01
 86: 0x069E [0x92] Unnamed NPC (ID: 17162953/0x0105E2C9)->Render.Flags3 ^= 0x01
 87: 0x06A4 [0x92] 01 (ID: 17162954/0x0105E2CA)->Render.Flags3 ^= 0x01
 88: 0x06AA [0x92] 02 (ID: 17162955/0x0105E2CB)->Render.Flags3 ^= 0x01
 89: 0x06B0 [0x92] 03 (ID: 17162956/0x0105E2CC)->Render.Flags3 ^= 0x01
 90: 0x06B6 [0x92] 04 (ID: 17162957/0x0105E2CD)->Render.Flags3 ^= 0x01
 91: 0x06BC [0x92] 05 (ID: 17162958/0x0105E2CE)->Render.Flags3 ^= 0x01
 92: 0x06C2 [0x92] 06 (ID: 17162959/0x0105E2CF)->Render.Flags3 ^= 0x01
 93: 0x06C8 [0x92] 07 (ID: 17162960/0x0105E2D0)->Render.Flags3 ^= 0x01
 94: 0x06CE [0x92] 08 (ID: 17162961/0x0105E2D1)->Render.Flags3 ^= 0x01
 95: 0x06D4 [0x92] 09 (ID: 17162962/0x0105E2D2)->Render.Flags3 ^= 0x01
 96: 0x06DA [0x94] LocalPlayer->Render.Flags3 ^= 0x01
 97: 0x06E0 [0x94] Dhea Prandoleh (ID: 17162751/0x0105E1FF)->Render.Flags3 ^= 0x01
 98: 0x06E6 [0x94] Romaa Mihgo (ID: 17162760/0x0105E208)->Render.Flags3 ^= 0x01
 99: 0x06EC [0x94] Miah Riyuh (ID: 17162750/0x0105E1FE)->Render.Flags3 ^= 0x01
100: 0x06F2 [0x94] Mhoti Pyiahrs (ID: 17162849/0x0105E261)->Render.Flags3 ^= 0x01
101: 0x06F8 [0x94] Emhi Tchaoryo (ID: 17162835/0x0105E253)->Render.Flags3 ^= 0x01
102: 0x06FE [0x94] Mihl Pakorhma (ID: 17162795/0x0105E22B)->Render.Flags3 ^= 0x01
103: 0x0704 [0x94] 01 (ID: 17162931/0x0105E2B3)->Render.Flags3 ^= 0x01
104: 0x070A [0x94] 02 (ID: 17162932/0x0105E2B4)->Render.Flags3 ^= 0x01
105: 0x0710 [0x94] 03 (ID: 17162933/0x0105E2B5)->Render.Flags3 ^= 0x01
106: 0x0716 [0x94] 04 (ID: 17162934/0x0105E2B6)->Render.Flags3 ^= 0x01
107: 0x071C [0x94] 05 (ID: 17162935/0x0105E2B7)->Render.Flags3 ^= 0x01
108: 0x0722 [0x94] 06 (ID: 17162936/0x0105E2B8)->Render.Flags3 ^= 0x01
109: 0x0728 [0x94] 07 (ID: 17162937/0x0105E2B9)->Render.Flags3 ^= 0x01
110: 0x072E [0x94] 08 (ID: 17162938/0x0105E2BA)->Render.Flags3 ^= 0x01
111: 0x0734 [0x94] a01 (ID: 17162939/0x0105E2BB)->Render.Flags3 ^= 0x01
112: 0x073A [0x94] a02 (ID: 17162940/0x0105E2BC)->Render.Flags3 ^= 0x01
113: 0x0740 [0x94] a03 (ID: 17162941/0x0105E2BD)->Render.Flags3 ^= 0x01
114: 0x0746 [0x94] a04 (ID: 17162942/0x0105E2BE)->Render.Flags3 ^= 0x01
115: 0x074C [0x94] a05 (ID: 17162943/0x0105E2BF)->Render.Flags3 ^= 0x01
116: 0x0752 [0x94] a06 (ID: 17162944/0x0105E2C0)->Render.Flags3 ^= 0x01
117: 0x0758 [0x94] a07 (ID: 17162945/0x0105E2C1)->Render.Flags3 ^= 0x01
118: 0x075E [0x94] a08 (ID: 17162946/0x0105E2C2)->Render.Flags3 ^= 0x01
119: 0x0764 [0x94] t01 (ID: 17162947/0x0105E2C3)->Render.Flags3 ^= 0x01
120: 0x076A [0x94] t02 (ID: 17162948/0x0105E2C4)->Render.Flags3 ^= 0x01
121: 0x0770 [0x94] Unnamed NPC (ID: 17162949/0x0105E2C5)->Render.Flags3 ^= 0x01
122: 0x0776 [0x94] Unnamed NPC (ID: 17162950/0x0105E2C6)->Render.Flags3 ^= 0x01
123: 0x077C [0x94] Unnamed NPC (ID: 17162951/0x0105E2C7)->Render.Flags3 ^= 0x01
124: 0x0782 [0x94] Unnamed NPC (ID: 17162952/0x0105E2C8)->Render.Flags3 ^= 0x01
125: 0x0788 [0x94] Unnamed NPC (ID: 17162953/0x0105E2C9)->Render.Flags3 ^= 0x01
126: 0x078E [0x94] 01 (ID: 17162954/0x0105E2CA)->Render.Flags3 ^= 0x01
127: 0x0794 [0x94] 02 (ID: 17162955/0x0105E2CB)->Render.Flags3 ^= 0x01
128: 0x079A [0x94] 03 (ID: 17162956/0x0105E2CC)->Render.Flags3 ^= 0x01
129: 0x07A0 [0x94] 04 (ID: 17162957/0x0105E2CD)->Render.Flags3 ^= 0x01
130: 0x07A6 [0x94] 05 (ID: 17162958/0x0105E2CE)->Render.Flags3 ^= 0x01
131: 0x07AC [0x94] 06 (ID: 17162959/0x0105E2CF)->Render.Flags3 ^= 0x01
132: 0x07B2 [0x94] 07 (ID: 17162960/0x0105E2D0)->Render.Flags3 ^= 0x01
133: 0x07B8 [0x94] 08 (ID: 17162961/0x0105E2D1)->Render.Flags3 ^= 0x01
134: 0x07BE [0x94] 09 (ID: 17162962/0x0105E2D2)->Render.Flags3 ^= 0x01
135: 0x07C4 [0x80] LOAD_WAIT(entity=Dhea Prandoleh (ID: 17162751/0x0105E1FF))
136: 0x07C9 [0x80] LOAD_WAIT(entity=Romaa Mihgo (ID: 17162760/0x0105E208))
137: 0x07CE [0x80] LOAD_WAIT(entity=Miah Riyuh (ID: 17162750/0x0105E1FE))
138: 0x07D3 [0x80] LOAD_WAIT(entity=Mhoti Pyiahrs (ID: 17162849/0x0105E261))
139: 0x07D8 [0x80] LOAD_WAIT(entity=Emhi Tchaoryo (ID: 17162835/0x0105E253))
140: 0x07DD [0x80] LOAD_WAIT(entity=Mihl Pakorhma (ID: 17162795/0x0105E22B))
141: 0x07E2 [0x80] LOAD_WAIT(entity=01 (ID: 17162931/0x0105E2B3))
142: 0x07E7 [0x80] LOAD_WAIT(entity=02 (ID: 17162932/0x0105E2B4))
143: 0x07EC [0x80] LOAD_WAIT(entity=03 (ID: 17162933/0x0105E2B5))
144: 0x07F1 [0x80] LOAD_WAIT(entity=04 (ID: 17162934/0x0105E2B6))
145: 0x07F6 [0x80] LOAD_WAIT(entity=05 (ID: 17162935/0x0105E2B7))
146: 0x07FB [0x80] LOAD_WAIT(entity=06 (ID: 17162936/0x0105E2B8))
147: 0x0800 [0x80] LOAD_WAIT(entity=07 (ID: 17162937/0x0105E2B9))
148: 0x0805 [0x80] LOAD_WAIT(entity=08 (ID: 17162938/0x0105E2BA))
149: 0x080A [0x80] LOAD_WAIT(entity=a01 (ID: 17162939/0x0105E2BB))
150: 0x080F [0x80] LOAD_WAIT(entity=a02 (ID: 17162940/0x0105E2BC))
151: 0x0814 [0x80] LOAD_WAIT(entity=a03 (ID: 17162941/0x0105E2BD))
152: 0x0819 [0x80] LOAD_WAIT(entity=a04 (ID: 17162942/0x0105E2BE))
153: 0x081E [0x80] LOAD_WAIT(entity=a05 (ID: 17162943/0x0105E2BF))
154: 0x0823 [0x80] LOAD_WAIT(entity=a06 (ID: 17162944/0x0105E2C0))
155: 0x0828 [0x80] LOAD_WAIT(entity=a07 (ID: 17162945/0x0105E2C1))
156: 0x082D [0x80] LOAD_WAIT(entity=a08 (ID: 17162946/0x0105E2C2))
157: 0x0832 [0x80] LOAD_WAIT(entity=t01 (ID: 17162947/0x0105E2C3))
158: 0x0837 [0x80] LOAD_WAIT(entity=t02 (ID: 17162948/0x0105E2C4))
159: 0x083C [0x80] LOAD_WAIT(entity=Unnamed NPC (ID: 17162949/0x0105E2C5))
160: 0x0841 [0x80] LOAD_WAIT(entity=Unnamed NPC (ID: 17162950/0x0105E2C6))
161: 0x0846 [0x80] LOAD_WAIT(entity=Unnamed NPC (ID: 17162951/0x0105E2C7))
162: 0x084B [0x80] LOAD_WAIT(entity=Unnamed NPC (ID: 17162952/0x0105E2C8))
163: 0x0850 [0x80] LOAD_WAIT(entity=Unnamed NPC (ID: 17162953/0x0105E2C9))
164: 0x0855 [0x59] UPDATE_ENTITY_DATA: 04 (ID: 17162957/0x0105E2CD)->Render.Flags0 |= 0x200000
165: 0x085C [0x59] UPDATE_ENTITY_DATA: 05 (ID: 17162958/0x0105E2CE)->Render.Flags0 |= 0x200000
166: 0x0863 [0x59] UPDATE_ENTITY_DATA: 06 (ID: 17162959/0x0105E2CF)->Render.Flags0 |= 0x200000
167: 0x086A [0x59] UPDATE_ENTITY_DATA: 07 (ID: 17162960/0x0105E2D0)->Render.Flags0 |= 0x200000
168: 0x0871 [0x59] UPDATE_ENTITY_DATA: 08 (ID: 17162961/0x0105E2D1)->Render.Flags0 |= 0x200000
169: 0x0878 [0x59] UPDATE_ENTITY_DATA: 09 (ID: 17162962/0x0105E2D2)->Render.Flags0 |= 0x200000
170: 0x087F [0x59] UPDATE_ENTITY_DATA: Unnamed NPC (ID: 17162951/0x0105E2C7)->Render.Flags0 |= 0x200000
171: 0x0886 [0x1C] WAIT(5* ticks)
172: 0x0889 [0xBA] SET_ENTITY_POSITION(entity_id=LocalPlayer, pos_x=-1.808*, pos_z=17.757*, pos_y=-1.000*, direction=24.4°*)
173: 0x0896 [0xBA] SET_ENTITY_POSITION(entity_id=Romaa Mihgo (ID: 17162760/0x0105E208), pos_x=3.653*, pos_z=25.208*, pos_y=-0.999*, direction=88.9°*)
174: 0x08A3 [0xBA] SET_ENTITY_POSITION(entity_id=Dhea Prandoleh (ID: 17162751/0x0105E1FF), pos_x=3.167*, pos_z=15.545*, pos_y=-1.000*, direction=314.7°*)
175: 0x08B0 [0xBA] SET_ENTITY_POSITION(entity_id=Miah Riyuh (ID: 17162750/0x0105E1FE), pos_x=-52.170*, pos_z=45.626*, pos_y=-3.499*, direction=319.9°*)
176: 0x08BD [0xBA] SET_ENTITY_POSITION(entity_id=Mhoti Pyiahrs (ID: 17162849/0x0105E261), pos_x=6.356*, pos_z=26.677*, pos_y=-1.000*, direction=173.1°*)
177: 0x08CA [0xBA] SET_ENTITY_POSITION(entity_id=Emhi Tchaoryo (ID: 17162835/0x0105E253), pos_x=-3.265*, pos_z=12.133*, pos_y=-0.999*, direction=320.8°*)
178: 0x08D7 [0xBA] SET_ENTITY_POSITION(entity_id=Mihl Pakorhma (ID: 17162795/0x0105E22B), pos_x=4.244*, pos_z=28.845*, pos_y=-1.000*, direction=91.7°*)
179: 0x08E4 [0xBA] SET_ENTITY_POSITION(entity_id=01 (ID: 17162931/0x0105E2B3), pos_x=-3.265*, pos_z=12.133*, pos_y=-0.999*, direction=320.8°*)
180: 0x08F1 [0xBA] SET_ENTITY_POSITION(entity_id=02 (ID: 17162932/0x0105E2B4), pos_x=-48.579*, pos_z=49.807*, pos_y=-3.500*, direction=308.0°*)
181: 0x08FE [0xBA] SET_ENTITY_POSITION(entity_id=03 (ID: 17162933/0x0105E2B5), pos_x=-28.997*, pos_z=66.453*, pos_y=-3.500*, direction=163.6°*)
182: 0x090B [0xBA] SET_ENTITY_POSITION(entity_id=04 (ID: 17162934/0x0105E2B6), pos_x=-42.109*, pos_z=50.330*, pos_y=-3.500*, direction=201.4°*)
183: 0x0918 [0xBA] SET_ENTITY_POSITION(entity_id=05 (ID: 17162935/0x0105E2B7), pos_x=-51.742*, pos_z=64.240*, pos_y=-3.500*, direction=260.9°*)
184: 0x0925 [0xBA] SET_ENTITY_POSITION(entity_id=06 (ID: 17162936/0x0105E2B8), pos_x=-54.389*, pos_z=52.304*, pos_y=-3.500*, direction=248.8°*)
185: 0x0932 [0xBA] SET_ENTITY_POSITION(entity_id=07 (ID: 17162937/0x0105E2B9), pos_x=-57.941*, pos_z=53.463*, pos_y=-3.500*, direction=12.1°*)
186: 0x093F [0xBA] SET_ENTITY_POSITION(entity_id=08 (ID: 17162938/0x0105E2BA), pos_x=-43.356*, pos_z=65.120*, pos_y=-3.500*, direction=167.5°*)
187: 0x094C [0xBA] SET_ENTITY_POSITION(entity_id=a01 (ID: 17162939/0x0105E2BB), pos_x=-42.719*, pos_z=65.758*, pos_y=-3.500*, direction=166.0°*)
188: 0x0959 [0xBA] SET_ENTITY_POSITION(entity_id=a02 (ID: 17162940/0x0105E2BC), pos_x=-43.042*, pos_z=54.641*, pos_y=-3.499*, direction=52.7°*)
189: 0x0966 [0xBA] SET_ENTITY_POSITION(entity_id=a03 (ID: 17162941/0x0105E2BD), pos_x=-42.999*, pos_z=51.061*, pos_y=-3.499*, direction=105.6°*)
190: 0x0973 [0xBA] SET_ENTITY_POSITION(entity_id=a04 (ID: 17162942/0x0105E2BE), pos_x=-45.882*, pos_z=65.776*, pos_y=-3.499*, direction=22.8°*)
191: 0x0980 [0xBA] SET_ENTITY_POSITION(entity_id=a05 (ID: 17162943/0x0105E2BF), pos_x=-41.562*, pos_z=64.089*, pos_y=-3.499*, direction=308.0°*)
192: 0x098D [0xBA] SET_ENTITY_POSITION(entity_id=a06 (ID: 17162944/0x0105E2C0), pos_x=-39.270*, pos_z=61.790*, pos_y=-3.499*, direction=75.9°*)
193: 0x099A [0xBA] SET_ENTITY_POSITION(entity_id=a07 (ID: 17162945/0x0105E2C1), pos_x=-29.450*, pos_z=60.627*, pos_y=-3.499*, direction=256.3°*)
194: 0x09A7 [0xBA] SET_ENTITY_POSITION(entity_id=a08 (ID: 17162946/0x0105E2C2), pos_x=-50.207*, pos_z=59.301*, pos_y=-3.499*, direction=308.0°*)
195: 0x09B4 [0xBA] SET_ENTITY_POSITION(entity_id=t01 (ID: 17162947/0x0105E2C3), pos_x=-39.135*, pos_z=60.968*, pos_y=-3.499*, direction=248.1°*)
196: 0x09C1 [0xBA] SET_ENTITY_POSITION(entity_id=t02 (ID: 17162948/0x0105E2C4), pos_x=-40.251*, pos_z=60.590*, pos_y=-3.499*, direction=309.9°*)
197: 0x09CE [0xBA] SET_ENTITY_POSITION(entity_id=Unnamed NPC (ID: 17162949/0x0105E2C5), pos_x=1.728*, pos_z=11.547*, pos_y=-1.000*, direction=18.5°*)
198: 0x09DB [0xBA] SET_ENTITY_POSITION(entity_id=Unnamed NPC (ID: 17162950/0x0105E2C6), pos_x=3.668*, pos_z=19.731*, pos_y=-1.000*, direction=193.0°*)
199: 0x09E8 [0xBA] SET_ENTITY_POSITION(entity_id=Unnamed NPC (ID: 17162951/0x0105E2C7), pos_x=3.464*, pos_z=12.500*, pos_y=-1.970*, direction=285.2°*)
200: 0x09F5 [0xBA] SET_ENTITY_POSITION(entity_id=Unnamed NPC (ID: 17162952/0x0105E2C8), pos_x=4.438*, pos_z=20.318*, pos_y=-1.000*, direction=63.1°*)
201: 0x0A02 [0xBA] SET_ENTITY_POSITION(entity_id=Unnamed NPC (ID: 17162953/0x0105E2C9), pos_x=4.063*, pos_z=18.797*, pos_y=-1.000*, direction=30.8°*)
202: 0x0A0F [0xBA] SET_ENTITY_POSITION(entity_id=01 (ID: 17162954/0x0105E2CA), pos_x=5.614*, pos_z=21.523*, pos_y=-0.999*, direction=140.6°*)
203: 0x0A1C [0xBA] SET_ENTITY_POSITION(entity_id=02 (ID: 17162955/0x0105E2CB), pos_x=2.987*, pos_z=10.870*, pos_y=-0.999*, direction=25.8°*)
204: 0x0A29 [0xBA] SET_ENTITY_POSITION(entity_id=03 (ID: 17162956/0x0105E2CC), pos_x=3.371*, pos_z=12.536*, pos_y=-1.000*, direction=0.0°*)
205: 0x0A36 [0xBA] SET_ENTITY_POSITION(entity_id=04 (ID: 17162957/0x0105E2CD), pos_x=5.686*, pos_z=20.913*, pos_y=-2.245*, direction=0.0°*)
206: 0x0A43 [0xBA] SET_ENTITY_POSITION(entity_id=05 (ID: 17162958/0x0105E2CE), pos_x=5.643*, pos_z=21.840*, pos_y=-2.245*, direction=0.0°*)
207: 0x0A50 [0xBA] SET_ENTITY_POSITION(entity_id=06 (ID: 17162959/0x0105E2CF), pos_x=3.187*, pos_z=11.191*, pos_y=-2.565*, direction=0.0°*)
208: 0x0A5D [0xBA] SET_ENTITY_POSITION(entity_id=07 (ID: 17162960/0x0105E2D0), pos_x=2.832*, pos_z=13.376*, pos_y=-1.975*, direction=0.0°*)
209: 0x0A6A [0x9A] WAIT_MUSIC_SERVER()
210: 0x0A6B [0x1C] WAIT(5* ticks)
211: 0x0A6E [0xC5] LOAD_SCHEDULED_TASK_ALT3: Load scheduler 0x80003030 for entities [01 (ID: 17162954/0x0105E2CA), 01 (ID: 17162954/0x0105E2CA)], work=208*, param=12403
212: 0x0A7F [0xC5] LOAD_SCHEDULED_TASK_ALT3: Load scheduler 0x80003130 for entities [02 (ID: 17162955/0x0105E2CB), 02 (ID: 17162955/0x0105E2CB)], work=208*, param=12403
213: 0x0A90 [0xC5] LOAD_SCHEDULED_TASK_ALT3: Load scheduler 0x80003230 for entities [03 (ID: 17162956/0x0105E2CC), 03 (ID: 17162956/0x0105E2CC)], work=208*, param=12403
214: 0x0AA1 [0x9F] LOAD_SCHEDULED_TASK_ALT: Load scheduler "s002" with entities [04 (ID: 17162957/0x0105E2CD), 04 (ID: 17162957/0x0105E2CD)], work=[208*, 0*]
215: 0x0AB2 [0x9F] LOAD_SCHEDULED_TASK_ALT: Load scheduler "s002" with entities [05 (ID: 17162958/0x0105E2CE), 05 (ID: 17162958/0x0105E2CE)], work=[208*, 0*]
216: 0x0AC3 [0x9F] LOAD_SCHEDULED_TASK_ALT: Load scheduler "s002" with entities [06 (ID: 17162959/0x0105E2CF), 06 (ID: 17162959/0x0105E2CF)], work=[208*, 0*]
217: 0x0AD4 [0x9F] LOAD_SCHEDULED_TASK_ALT: Load scheduler "s002" with entities [07 (ID: 17162960/0x0105E2D0), 07 (ID: 17162960/0x0105E2D0)], work=[208*, 0*]
218: 0x0AE5 [0x79] Dhea Prandoleh (ID: 17162751/0x0105E1FF) looks at Emhi Tchaoryo (ID: 17162835/0x0105E253) (Basic look)
219: 0x0AEF [0x79] Emhi Tchaoryo (ID: 17162835/0x0105E253) looks at Dhea Prandoleh (ID: 17162751/0x0105E1FF) (Basic look)
220: 0x0AF9 [0x79] 01 (ID: 17162931/0x0105E2B3) looks at Dhea Prandoleh (ID: 17162751/0x0105E1FF) (Basic look)
221: 0x0B03 [0x79] a06 (ID: 17162944/0x0105E2C0) looks at t01 (ID: 17162947/0x0105E2C3) (Basic look)
222: 0x0B0D [0x79] t01 (ID: 17162947/0x0105E2C3) looks at a06 (ID: 17162944/0x0105E2C0) (Basic look)
223: 0x0B17 [0x79] t02 (ID: 17162948/0x0105E2C4) looks at a06 (ID: 17162944/0x0105E2C0) (Basic look)
224: 0x0B21 [0x27] REQ_SET(priority=0x10, entity_id=03 (ID: 17162933/0x0105E2B5), tag_num=0x09)
225: 0x0B28 [0x1C] WAIT(10* ticks)
226: 0x0B2B [0x27] REQ_SET(priority=0x10, entity_id=a02 (ID: 17162940/0x0105E2BC), tag_num=0x09)
227: 0x0B32 [0x66] LOAD_EXT_SCHEDULER_MAIN: Load scheduler "tlk0" with entities [a06 (ID: 17162944/0x0105E2C0), a06 (ID: 17162944/0x0105E2C0)], work=59*
228: 0x0B41 [0x1C] WAIT(10* ticks)
229: 0x0B44 [0x27] REQ_SET(priority=0x10, entity_id=a07 (ID: 17162945/0x0105E2C1), tag_num=0x0F)
230: 0x0B4B [0x27] REQ_SET(priority=0x10, entity_id=05 (ID: 17162935/0x0105E2B7), tag_num=0x09)
231: 0x0B52 [0x45] LOAD_SCHEDULED_TASK: Load scheduler "m010" with entities [LocalPlayer, LocalPlayer], work=[537*, 0*]
232: 0x0B63 [0x1A] CALL_SUBROUTINE(address=0x0166)
233: 0x0B66 [0x27] REQ_SET(priority=0x10, entity_id=02 (ID: 17162932/0x0105E2B4), tag_num=0x09)
234: 0x0B6D [0x1C] WAIT(10* ticks)
235: 0x0B70 [0x27] REQ_SET(priority=0x10, entity_id=Miah Riyuh (ID: 17162750/0x0105E1FE), tag_num=0x1F)
236: 0x0B77 [0x1C] WAIT(10* ticks)
237: 0x0B7A [0x27] REQ_SET(priority=0x10, entity_id=a08 (ID: 17162946/0x0105E2C2), tag_num=0x09)
238: 0x0B81 [0x1C] WAIT(70* ticks)
239: 0x0B84 [0x27] REQ_SET(priority=0x10, entity_id=Dhea Prandoleh (ID: 17162751/0x0105E1FF), tag_num=0x2F)
240: 0x0B8B [0x1C] WAIT(60* ticks)
241: 0x0B8E [0x55] WAIT_LOAD_SCHEDULER: Wait for scheduler "m010" with entities [LocalPlayer, LocalPlayer], work=537*
242: 0x0B9D [0x52] END_LOAD_SCHEDULER: End scheduler "m010" with entities [LocalPlayer, LocalPlayer], work=537*
243: 0x0BAC [0x45] LOAD_SCHEDULED_TASK: Load scheduler "m025" with entities [LocalPlayer, LocalPlayer], work=[537*, 0*]
244: 0x0BBD [0x1C] WAIT(120* ticks)
245: 0x0BC0 [0x52] END_LOAD_SCHEDULER: End scheduler "m025" with entities [LocalPlayer, LocalPlayer], work=537*
246: 0x0BCF [0x45] LOAD_SCHEDULED_TASK: Load scheduler "m022" with entities [LocalPlayer, LocalPlayer], work=[537*, 0*]
247: 0x0BE0 [0x1C] WAIT(130* ticks)
248: 0x0BE3 [0x27] REQ_SET(priority=0x10, entity_id=Emhi Tchaoryo (ID: 17162835/0x0105E253), tag_num=0x0A)
249: 0x0BEA [0x1C] WAIT(30* ticks)
250: 0x0BED [0x27] REQ_SET(priority=0x10, entity_id=01 (ID: 17162931/0x0105E2B3), tag_num=0x0D)
251: 0x0BF4 [0x55] WAIT_LOAD_SCHEDULER: Wait for scheduler "m022" with entities [LocalPlayer, LocalPlayer], work=537*
252: 0x0C03 [0x52] END_LOAD_SCHEDULER: End scheduler "m022" with entities [LocalPlayer, LocalPlayer], work=537*
253: 0x0C12 [0x45] LOAD_SCHEDULED_TASK: Load scheduler "m020" with entities [LocalPlayer, LocalPlayer], work=[537*, 0*]
254: 0x0C23 [0x1C] WAIT(1* ticks)
255: 0x0C26 [0xBA] SET_ENTITY_POSITION(entity_id=LocalPlayer, pos_x=0.668*, pos_z=16.684*, pos_y=-0.999*, direction=25.8°*)
256: 0x0C33 [0x2A] GET_REQ_LEVEL(level=16, entity_id=Dhea Prandoleh (ID: 17162751/0x0105E1FF))
257: 0x0C39 [0x66] LOAD_EXT_SCHEDULER_MAIN: Load scheduler "tlk0" with entities [Emhi Tchaoryo (ID: 17162835/0x0105E253), Emhi Tchaoryo (ID: 17162835/0x0105E253)], work=59*
258: 0x0C48 [0x1C] WAIT(60* ticks)
259: 0x0C4B [0x6E] Dhea Prandoleh (ID: 17162751/0x0105E1FF) uses emote 7*
260: 0x0C52 [0x99] Wait for Dhea Prandoleh (ID: 17162751/0x0105E1FF) animation to complete
261: 0x0C57 [0x1C] WAIT(90* ticks)
262: 0x0C5A [0x79] 01 (ID: 17162931/0x0105E2B3) looks at Emhi Tchaoryo (ID: 17162835/0x0105E253) (Basic look)
263: 0x0C64 [0x7B] Emhi Tchaoryo (ID: 17162835/0x0105E253) stops talking
264: 0x0C69 [0x66] LOAD_EXT_SCHEDULER_MAIN: Load scheduler "tlk1" with entities [Emhi Tchaoryo (ID: 17162835/0x0105E253), Emhi Tchaoryo (ID: 17162835/0x0105E253)], work=59*
265: 0x0C78 [0x1C] WAIT(60* ticks)
266: 0x0C7B [0x7B] 01 (ID: 17162931/0x0105E2B3) stops talking
267: 0x0C80 [0x27] REQ_SET(priority=0x10, entity_id=Emhi Tchaoryo (ID: 17162835/0x0105E253), tag_num=0x06)
268: 0x0C87 [0x4A] Dhea Prandoleh (ID: 17162751/0x0105E1FF) looks at LocalPlayer
269: 0x0C90 [0x7B] Dhea Prandoleh (ID: 17162751/0x0105E1FF) stops talking
270: 0x0C95 [0x79] LocalPlayer looks at Dhea Prandoleh (ID: 17162751/0x0105E1FF) (Basic look)
271: 0x0C9F [0x1C] WAIT(20* ticks)
272: 0x0CA2 [0x79] Dhea Prandoleh (ID: 17162751/0x0105E1FF) looks at LocalPlayer (Basic look)
273: 0x0CAC [0x27] REQ_SET(priority=0x10, entity_id=01 (ID: 17162931/0x0105E2B3), tag_num=0x0F)
274: 0x0CB3 [0x1C] WAIT(10* ticks)
275: 0x0CB6 [0x1A] CALL_SUBROUTINE(address=0x0233)
276: 0x0CB9 [0x02] IF !(Work_Zone[7] == 4*) GOTO 0x0CE4
277: 0x0CC1 [0x52] END_LOAD_SCHEDULER: End scheduler "m020" with entities [LocalPlayer, LocalPlayer], work=537*
278: 0x0CD0 [0x45] LOAD_SCHEDULED_TASK: Load scheduler "m038" with entities [LocalPlayer, LocalPlayer], work=[537*, 0*]
279: 0x0CE1 [0x01] GOTO 0x0D5A
280: 0x0CE4 [0x02] IF !(Work_Zone[7] == 6*) GOTO 0x0D0F
281: 0x0CEC [0x52] END_LOAD_SCHEDULER: End scheduler "m020" with entities [LocalPlayer, LocalPlayer], work=537*
282: 0x0CFB [0x45] LOAD_SCHEDULED_TASK: Load scheduler "m035" with entities [LocalPlayer, LocalPlayer], work=[537*, 0*]
283: 0x0D0C [0x01] GOTO 0x0D5A
284: 0x0D0F [0x02] IF !(Work_Zone[7] == 8*) GOTO 0x0D3A
285: 0x0D17 [0x52] END_LOAD_SCHEDULER: End scheduler "m020" with entities [LocalPlayer, LocalPlayer], work=537*
286: 0x0D26 [0x45] LOAD_SCHEDULED_TASK: Load scheduler "m038" with entities [LocalPlayer, LocalPlayer], work=[537*, 0*]
287: 0x0D37 [0x01] GOTO 0x0D5A
288: 0x0D3A [0x52] END_LOAD_SCHEDULER: End scheduler "m020" with entities [LocalPlayer, LocalPlayer], work=537*
289: 0x0D49 [0x45] LOAD_SCHEDULED_TASK: Load scheduler "m037" with entities [LocalPlayer, LocalPlayer], work=[537*, 0*]

SUBROUTINE_0D5A:
290: 0x0D5A [0x7A] VM_CONTROL: Reset VM for 03 (ID: 17162933/0x0105E2B5)
291: 0x0D60 [0x1C] WAIT(30* ticks)
292: 0x0D63 [0xBA] SET_ENTITY_POSITION(entity_id=03 (ID: 17162933/0x0105E2B5), pos_x=-24.277*, pos_z=74.587*, pos_y=-3.510*, direction=209.0°*)
293: 0x0D70 [0xBA] SET_ENTITY_POSITION(entity_id=06 (ID: 17162936/0x0105E2B8), pos_x=14.978*, pos_z=50.548*, pos_y=-2.000*, direction=167.6°*)
294: 0x0D7D [0xBA] SET_ENTITY_POSITION(entity_id=07 (ID: 17162937/0x0105E2B9), pos_x=-18.041*, pos_z=83.832*, pos_y=-4.999*, direction=72.9°*)
295: 0x0D8A [0x2B] Dhea Prandoleh (ID: 17162751/0x0105E1FF) [13877*]:
    → "Well, look who's finally decided to show [his/her] face!"
296: 0x0D91 [0x1C] WAIT(60* ticks)
297: 0x0D94 [0x27] REQ_SET(priority=0x10, entity_id=03 (ID: 17162933/0x0105E2B5), tag_num=0x09)
298: 0x0D9B [0x1A] CALL_SUBROUTINE(address=0x0461)
299: 0x0D9E [0x23] WAIT_FOR_DIALOG_INTERACTION
300: 0x0D9F [0x1A] CALL_SUBROUTINE(address=0x0233)
301: 0x0DA2 [0x02] IF !(Work_Zone[7] == 4*) GOTO 0x0DCB
302: 0x0DAA [0x55] WAIT_LOAD_SCHEDULER: Wait for scheduler "m038" with entities [LocalPlayer, LocalPlayer], work=537*
303: 0x0DB9 [0x52] END_LOAD_SCHEDULER: End scheduler "m038" with entities [LocalPlayer, LocalPlayer], work=537*
304: 0x0DC8 [0x01] GOTO 0x0E3B
305: 0x0DCB [0x02] IF !(Work_Zone[7] == 6*) GOTO 0x0DF4
306: 0x0DD3 [0x55] WAIT_LOAD_SCHEDULER: Wait for scheduler "m035" with entities [LocalPlayer, LocalPlayer], work=537*
307: 0x0DE2 [0x52] END_LOAD_SCHEDULER: End scheduler "m035" with entities [LocalPlayer, LocalPlayer], work=537*
308: 0x0DF1 [0x01] GOTO 0x0E3B
309: 0x0DF4 [0x02] IF !(Work_Zone[7] == 8*) GOTO 0x0E1D
310: 0x0DFC [0x55] WAIT_LOAD_SCHEDULER: Wait for scheduler "m038" with entities [LocalPlayer, LocalPlayer], work=537*
311: 0x0E0B [0x52] END_LOAD_SCHEDULER: End scheduler "m038" with entities [LocalPlayer, LocalPlayer], work=537*
312: 0x0E1A [0x01] GOTO 0x0E3B
313: 0x0E1D [0x55] WAIT_LOAD_SCHEDULER: Wait for scheduler "m037" with entities [LocalPlayer, LocalPlayer], work=537*
314: 0x0E2C [0x52] END_LOAD_SCHEDULER: End scheduler "m037" with entities [LocalPlayer, LocalPlayer], work=537*

SUBROUTINE_0E3B:
315: 0x0E3B [0x45] LOAD_SCHEDULED_TASK: Load scheduler "m040" with entities [LocalPlayer, LocalPlayer], work=[537*, 0*]
316: 0x0E4C [0x66] LOAD_EXT_SCHEDULER_MAIN: Load scheduler "tlk0" with entities [Dhea Prandoleh (ID: 17162751/0x0105E1FF), Dhea Prandoleh (ID: 17162751/0x0105E1FF)], work=59*
317: 0x0E5B [0x1C] WAIT(1* ticks)
318: 0x0E5E [0x7A] VM_CONTROL: Reset VM for Miah Riyuh (ID: 17162750/0x0105E1FE)
319: 0x0E64 [0x7A] VM_CONTROL: Reset VM for Emhi Tchaoryo (ID: 17162835/0x0105E253)
320: 0x0E6A [0x2B] Dhea Prandoleh (ID: 17162751/0x0105E1FF) [13878*]:
    → "We've been lookin' all overrr for ya, <Player>. Have you forgotten? With a little help from a certain oversized canine, we've got the ragfeather army on the run!"
321: 0x0E71 [0x23] WAIT_FOR_DIALOG_INTERACTION
322: 0x0E72 [0x66] LOAD_EXT_SCHEDULER_MAIN: Load scheduler "tlk1" with entities [Dhea Prandoleh (ID: 17162751/0x0105E1FF), Dhea Prandoleh (ID: 17162751/0x0105E1FF)], work=59*
323: 0x0E81 [0xBA] SET_ENTITY_POSITION(entity_id=Miah Riyuh (ID: 17162750/0x0105E1FE), pos_x=-52.199*, pos_z=46.138*, pos_y=-3.499*, direction=307.4°*)
324: 0x0E8E [0xBA] SET_ENTITY_POSITION(entity_id=Emhi Tchaoryo (ID: 17162835/0x0105E253), pos_x=-47.837*, pos_z=43.137*, pos_y=-3.500*, direction=25.8°*)
325: 0x0E9B [0x1C] WAIT(10* ticks)
326: 0x0E9E [0x1C] WAIT(5* ticks)
327: 0x0EA1 [0x27] REQ_SET(priority=0x10, entity_id=a08 (ID: 17162946/0x0105E2C2), tag_num=0x0A)
328: 0x0EA8 [0x1C] WAIT(5* ticks)
329: 0x0EAB [0x27] REQ_SET(priority=0x10, entity_id=a05 (ID: 17162943/0x0105E2BF), tag_num=0x09)
330: 0x0EB2 [0x1C] WAIT(5* ticks)
331: 0x0EB5 [0x27] REQ_SET(priority=0x10, entity_id=08 (ID: 17162938/0x0105E2BA), tag_num=0x09)
332: 0x0EBC [0x1C] WAIT(5* ticks)
333: 0x0EBF [0x27] REQ_SET(priority=0x10, entity_id=a01 (ID: 17162939/0x0105E2BB), tag_num=0x09)
334: 0x0EC6 [0x1C] WAIT(5* ticks)
335: 0x0EC9 [0x4A] Dhea Prandoleh (ID: 17162751/0x0105E1FF) looks at 08 (ID: 17162938/0x0105E2BA)
336: 0x0ED2 [0x27] REQ_SET(priority=0x10, entity_id=Emhi Tchaoryo (ID: 17162835/0x0105E253), tag_num=0x07)
337: 0x0ED9 [0x1C] WAIT(5* ticks)
338: 0x0EDC [0x27] REQ_SET(priority=0x10, entity_id=Miah Riyuh (ID: 17162750/0x0105E1FE), tag_num=0x20)
339: 0x0EE3 [0x1C] WAIT(30* ticks)
340: 0x0EE6 [0x52] END_LOAD_SCHEDULER: End scheduler "m040" with entities [LocalPlayer, LocalPlayer], work=537*
341: 0x0EF5 [0x45] LOAD_SCHEDULED_TASK: Load scheduler "m015" with entities [LocalPlayer, LocalPlayer], work=[537*, 0*]
342: 0x0F06 [0x1C] WAIT(60* ticks)
343: 0x0F09 [0x79] Dhea Prandoleh (ID: 17162751/0x0105E1FF) looks at LocalPlayer (Basic look)
344: 0x0F13 [0x2B] Dhea Prandoleh (ID: 17162751/0x0105E1FF) [13879*]:
    → "...And this is one cat that doesn't intend to let her prrrey slip away! Soon as everyone's ready, we march for Castle Oztroja. Those birds'll be roastin' on spits before they rrrealize what hit 'em!"
345: 0x0F1A [0x1C] WAIT(120* ticks)
346: 0x0F1D [0x23] WAIT_FOR_DIALOG_INTERACTION
347: 0x0F1E [0x79] Romaa Mihgo (ID: 17162760/0x0105E208) looks at Dhea Prandoleh (ID: 17162751/0x0105E1FF) (Basic look)
348: 0x0F28 [0x27] REQ_SET(priority=0x10, entity_id=Romaa Mihgo (ID: 17162760/0x0105E208), tag_num=0x58)
349: 0x0F2F [0x1C] WAIT(10* ticks)
350: 0x0F32 [0x27] REQ_SET(priority=0x10, entity_id=Mihl Pakorhma (ID: 17162795/0x0105E22B), tag_num=0x18)
351: 0x0F39 [0x1C] WAIT(20* ticks)
352: 0x0F3C [0x52] END_LOAD_SCHEDULER: End scheduler "m015" with entities [LocalPlayer, LocalPlayer], work=537*
353: 0x0F4B [0x45] LOAD_SCHEDULED_TASK: Load scheduler "m055" with entities [LocalPlayer, LocalPlayer], work=[537*, 0*]
354: 0x0F5C [0x1C] WAIT(30* ticks)
355: 0x0F5F [0xBA] SET_ENTITY_POSITION(entity_id=a04 (ID: 17162942/0x0105E2BE), pos_x=13.905*, pos_z=48.855*, pos_y=-2.000*, direction=183.8°*)
356: 0x0F6C [0x79] Dhea Prandoleh (ID: 17162751/0x0105E1FF) looks at Romaa Mihgo (ID: 17162760/0x0105E208) (Basic look)
357: 0x0F76 [0x2B] Romaa Mihgo (ID: 17162760/0x0105E208) [13880*]:
    → "Dhea! Have you seen to our preparations?"
358: 0x0F7D [0x55] WAIT_LOAD_SCHEDULER: Wait for scheduler "m055" with entities [LocalPlayer, LocalPlayer], work=537*
359: 0x0F8C [0x27] REQ_SET(priority=0x10, entity_id=a04 (ID: 17162942/0x0105E2BE), tag_num=0x0F)
360: 0x0F93 [0x27] REQ_SET(priority=0x10, entity_id=06 (ID: 17162936/0x0105E2B8), tag_num=0x0F)
361: 0x0F9A [0x52] END_LOAD_SCHEDULER: End scheduler "m055" with entities [LocalPlayer, LocalPlayer], work=537*
362: 0x0FA9 [0x45] LOAD_SCHEDULED_TASK: Load scheduler "m050" with entities [LocalPlayer, LocalPlayer], work=[537*, 0*]
363: 0x0FBA [0x1A] CALL_SUBROUTINE(address=0x0442)
364: 0x0FBD [0x23] WAIT_FOR_DIALOG_INTERACTION
365: 0x0FBE [0x2B] Dhea Prandoleh (ID: 17162751/0x0105E1FF) [13881*]:
    → "Aye aye, boss!"
366: 0x0FC5 [0x23] WAIT_FOR_DIALOG_INTERACTION
367: 0x0FC6 [0x4A] Dhea Prandoleh (ID: 17162751/0x0105E1FF) looks at Romaa Mihgo (ID: 17162760/0x0105E208)
368: 0x0FCF [0x52] END_LOAD_SCHEDULER: End scheduler "m050" with entities [LocalPlayer, LocalPlayer], work=537*
369: 0x0FDE [0x45] LOAD_SCHEDULED_TASK: Load scheduler "m060" with entities [LocalPlayer, LocalPlayer], work=[537*, 0*]
370: 0x0FEF [0x6F] WAIT_FRAME_DELAY: Yield until WaitTime reaches zero
371: 0x0FF0 [0x76] CHECK_ENTITY_RENDER_FLAGS: Wait until Dhea Prandoleh (ID: 17162751/0x0105E1FF) Render.Flags0 and Render.Flags3 conditions are met
372: 0x0FF5 [0x7A] VM_CONTROL: Reset VM for 01 (ID: 17162931/0x0105E2B3)
373: 0x0FFB [0x7A] VM_CONTROL: Reset VM for 02 (ID: 17162932/0x0105E2B4)
374: 0x1001 [0x7A] VM_CONTROL: Reset VM for 03 (ID: 17162933/0x0105E2B5)
375: 0x1007 [0x4A] Romaa Mihgo (ID: 17162760/0x0105E208) looks at LocalPlayer
376: 0x1010 [0x79] Romaa Mihgo (ID: 17162760/0x0105E208) looks at Dhea Prandoleh (ID: 17162751/0x0105E1FF) (Basic look)
377: 0x101A [0x7B] LocalPlayer stops talking
378: 0x101F [0x27] REQ_SET(priority=0x10, entity_id=Dhea Prandoleh (ID: 17162751/0x0105E1FF), tag_num=0x08)
379: 0x1026 [0x1C] WAIT(10* ticks)
380: 0x1029 [0x1A] CALL_SUBROUTINE(address=0x044D)
381: 0x102C [0xBA] SET_ENTITY_POSITION(entity_id=02 (ID: 17162932/0x0105E2B4), pos_x=-30.152*, pos_z=70.356*, pos_y=-3.500*, direction=25.8°*)
382: 0x1039 [0xBA] SET_ENTITY_POSITION(entity_id=a03 (ID: 17162941/0x0105E2BD), pos_x=-26.329*, pos_z=76.166*, pos_y=-3.594*, direction=68.7°*)
383: 0x1046 [0xBA] SET_ENTITY_POSITION(entity_id=01 (ID: 17162931/0x0105E2B3), pos_x=-25.126*, pos_z=73.479*, pos_y=-3.390*, direction=250.9°*)
384: 0x1053 [0x2B] Dhea Prandoleh (ID: 17162751/0x0105E1FF) [13882*]:
    → "Medicines to heal all that ails ya, and a full smorrrgasbord of delights from the Prandoleh family cookbook--all stocked away and ready to go!"
385: 0x105A [0x23] WAIT_FOR_DIALOG_INTERACTION
386: 0x105B [0x27] REQ_SET(priority=0x10, entity_id=07 (ID: 17162937/0x0105E2B9), tag_num=0x0F)
387: 0x1062 [0x52] END_LOAD_SCHEDULER: End scheduler "m060" with entities [LocalPlayer, LocalPlayer], work=537*
388: 0x1071 [0x45] LOAD_SCHEDULED_TASK: Load scheduler "m090" with entities [LocalPlayer, LocalPlayer], work=[537*, 0*]
389: 0x1082 [0x2B] Romaa Mihgo (ID: 17162760/0x0105E208) [13883*]:
    → "Excellent."
390: 0x1089 [0x23] WAIT_FOR_DIALOG_INTERACTION
391: 0x108A [0x1C] WAIT(15* ticks)
392: 0x108D [0x52] END_LOAD_SCHEDULER: End scheduler "m090" with entities [LocalPlayer, LocalPlayer], work=537*
393: 0x109C [0x1A] CALL_SUBROUTINE(address=0x0233)
394: 0x109F [0x02] IF !(Work_Zone[7] == 4*) GOTO 0x10BB
395: 0x10A7 [0x45] LOAD_SCHEDULED_TASK: Load scheduler "m073" with entities [LocalPlayer, LocalPlayer], work=[537*, 0*]
396: 0x10B8 [0x01] GOTO 0x1104
397: 0x10BB [0x02] IF !(Work_Zone[7] == 6*) GOTO 0x10D7
398: 0x10C3 [0x45] LOAD_SCHEDULED_TASK: Load scheduler "m075" with entities [LocalPlayer, LocalPlayer], work=[537*, 0*]
399: 0x10D4 [0x01] GOTO 0x1104
400: 0x10D7 [0x02] IF !(Work_Zone[7] == 8*) GOTO 0x10F3
401: 0x10DF [0x45] LOAD_SCHEDULED_TASK: Load scheduler "m078" with entities [LocalPlayer, LocalPlayer], work=[537*, 0*]
402: 0x10F0 [0x01] GOTO 0x1104
403: 0x10F3 [0x45] LOAD_SCHEDULED_TASK: Load scheduler "m070" with entities [LocalPlayer, LocalPlayer], work=[537*, 0*]

SUBROUTINE_1104:
404: 0x1104 [0x1C] WAIT(1* ticks)
405: 0x1107 [0xBA] SET_ENTITY_POSITION(entity_id=Dhea Prandoleh (ID: 17162751/0x0105E1FF), pos_x=3.620*, pos_z=16.121*, pos_y=-0.999*, direction=162.9°*)
406: 0x1114 [0x1A] CALL_SUBROUTINE(address=0x044D)
407: 0x1117 [0x1C] WAIT(1* ticks)
408: 0x111A [0x4A] Dhea Prandoleh (ID: 17162751/0x0105E1FF) looks at Romaa Mihgo (ID: 17162760/0x0105E208)
409: 0x1123 [0x79] Romaa Mihgo (ID: 17162760/0x0105E208) looks at LocalPlayer (Basic look)
410: 0x112D [0x5B] LOAD_EXT_SCHEDULER: Load scheduler "sta0" with entities [Romaa Mihgo (ID: 17162760/0x0105E208), Romaa Mihgo (ID: 17162760/0x0105E208)], work=1327*
411: 0x113C [0x1C] WAIT(30* ticks)
412: 0x113F [0x2B] Romaa Mihgo (ID: 17162760/0x0105E208) [13884*]:
    → "I see you're rrrarin' to go as well, <Player>. We'll set up camp in the Meriphataud Mountains, just out of the enemy's sight."
413: 0x1146 [0x23] WAIT_FOR_DIALOG_INTERACTION
414: 0x1147 [0x1A] CALL_SUBROUTINE(address=0x0233)
415: 0x114A [0x02] IF !(Work_Zone[7] == 4*) GOTO 0x1164
416: 0x1152 [0x52] END_LOAD_SCHEDULER: End scheduler "m073" with entities [LocalPlayer, LocalPlayer], work=537*
417: 0x1161 [0x01] GOTO 0x11A7
418: 0x1164 [0x02] IF !(Work_Zone[7] == 6*) GOTO 0x117E
419: 0x116C [0x52] END_LOAD_SCHEDULER: End scheduler "m075" with entities [LocalPlayer, LocalPlayer], work=537*
420: 0x117B [0x01] GOTO 0x11A7
421: 0x117E [0x02] IF !(Work_Zone[7] == 8*) GOTO 0x1198
422: 0x1186 [0x52] END_LOAD_SCHEDULER: End scheduler "m078" with entities [LocalPlayer, LocalPlayer], work=537*
423: 0x1195 [0x01] GOTO 0x11A7
424: 0x1198 [0x52] END_LOAD_SCHEDULER: End scheduler "m070" with entities [LocalPlayer, LocalPlayer], work=537*

SUBROUTINE_11A7:
425: 0x11A7 [0x45] LOAD_SCHEDULED_TASK: Load scheduler "m080" with entities [LocalPlayer, LocalPlayer], work=[537*, 0*]
426: 0x11B8 [0x5B] LOAD_EXT_SCHEDULER: Load scheduler "sta1" with entities [Romaa Mihgo (ID: 17162760/0x0105E208), Romaa Mihgo (ID: 17162760/0x0105E208)], work=1327*
427: 0x11C7 [0x2B] Romaa Mihgo (ID: 17162760/0x0105E208) [13885*]:
    → "Lehko's plan calls for us Cobras to join with Perih's Anacondas to surrround the enemy nest. He'll be joining us in the field to give us our orrrders in detail."
428: 0x11CE [0x23] WAIT_FOR_DIALOG_INTERACTION
429: 0x11CF [0x53] WAIT_SCHEDULER_TASK: Wait for scheduler "sta1" with entities [Romaa Mihgo (ID: 17162760/0x0105E208), Romaa Mihgo (ID: 17162760/0x0105E208)]
430: 0x11DC [0x2B] Romaa Mihgo (ID: 17162760/0x0105E208) [13886*]:
    → "Listen. I probably don't need to be sayin' this to a veteran like you, but this'll prove to be our toughest battle before it's through. So ready yourself good and prrroper, and I'll see ya in the field!"
431: 0x11E3 [0x1C] WAIT(30* ticks)
432: 0x11E6 [0x6E] Romaa Mihgo (ID: 17162760/0x0105E208) uses emote 36*
433: 0x11ED [0x99] Wait for Romaa Mihgo (ID: 17162760/0x0105E208) animation to complete
434: 0x11F2 [0x1C] WAIT(30* ticks)
435: 0x11F5 [0x23] WAIT_FOR_DIALOG_INTERACTION
436: 0x11F6 [0x52] END_LOAD_SCHEDULER: End scheduler "m080" with entities [LocalPlayer, LocalPlayer], work=537*
437: 0x1205 [0x1A] CALL_SUBROUTINE(address=0x0233)
438: 0x1208 [0x02] IF !(Work_Zone[2] == 1*) GOTO 0x1224
439: 0x1210 [0x45] LOAD_SCHEDULED_TASK: Load scheduler "m101" with entities [LocalPlayer, LocalPlayer], work=[537*, 0*]
440: 0x1221 [0x01] GOTO 0x12F9
441: 0x1224 [0x02] IF !(Work_Zone[2] == 2*) GOTO 0x1240
442: 0x122C [0x45] LOAD_SCHEDULED_TASK: Load scheduler "m102" with entities [LocalPlayer, LocalPlayer], work=[537*, 0*]
443: 0x123D [0x01] GOTO 0x12F9
444: 0x1240 [0x02] IF !(Work_Zone[2] == 3*) GOTO 0x125C
445: 0x1248 [0x45] LOAD_SCHEDULED_TASK: Load scheduler "m108" with entities [LocalPlayer, LocalPlayer], work=[537*, 0*]
446: 0x1259 [0x01] GOTO 0x12F9
447: 0x125C [0x02] IF !(Work_Zone[2] == 4*) GOTO 0x1278
448: 0x1264 [0x45] LOAD_SCHEDULED_TASK: Load scheduler "m104" with entities [LocalPlayer, LocalPlayer], work=[537*, 0*]
449: 0x1275 [0x01] GOTO 0x12F9
450: 0x1278 [0x02] IF !(Work_Zone[2] == 5*) GOTO 0x1294
451: 0x1280 [0x45] LOAD_SCHEDULED_TASK: Load scheduler "m105" with entities [LocalPlayer, LocalPlayer], work=[537*, 0*]
452: 0x1291 [0x01] GOTO 0x12F9
453: 0x1294 [0x02] IF !(Work_Zone[2] == 6*) GOTO 0x12B0
454: 0x129C [0x45] LOAD_SCHEDULED_TASK: Load scheduler "m105" with entities [LocalPlayer, LocalPlayer], work=[537*, 0*]
455: 0x12AD [0x01] GOTO 0x12F9
456: 0x12B0 [0x02] IF !(Work_Zone[2] == 7*) GOTO 0x12CC
457: 0x12B8 [0x45] LOAD_SCHEDULED_TASK: Load scheduler "m107" with entities [LocalPlayer, LocalPlayer], work=[537*, 0*]
458: 0x12C9 [0x01] GOTO 0x12F9
459: 0x12CC [0x02] IF !(Work_Zone[2] == 8*) GOTO 0x12E8
460: 0x12D4 [0x45] LOAD_SCHEDULED_TASK: Load scheduler "m108" with entities [LocalPlayer, LocalPlayer], work=[537*, 0*]
461: 0x12E5 [0x01] GOTO 0x12F9
462: 0x12E8 [0x45] LOAD_SCHEDULED_TASK: Load scheduler "m090" with entities [LocalPlayer, LocalPlayer], work=[537*, 0*]

SUBROUTINE_12F9:
463: 0x12F9 [0x1C] WAIT(10* ticks)
464: 0x12FC [0x6E] LocalPlayer uses emote 7*
465: 0x1303 [0x99] Wait for LocalPlayer animation to complete
466: 0x1308 [0x1C] WAIT(120* ticks)
467: 0x130B [0x1A] CALL_SUBROUTINE(address=0x0145)
468: 0x130E [0x1C] WAIT(30* ticks)
469: 0x1311 [0x52] END_LOAD_SCHEDULER: End scheduler "m101" with entities [LocalPlayer, LocalPlayer], work=537*
470: 0x1320 [0x52] END_LOAD_SCHEDULER: End scheduler "m102" with entities [LocalPlayer, LocalPlayer], work=537*
471: 0x132F [0x52] END_LOAD_SCHEDULER: End scheduler "m103" with entities [LocalPlayer, LocalPlayer], work=537*
472: 0x133E [0x52] END_LOAD_SCHEDULER: End scheduler "m104" with entities [LocalPlayer, LocalPlayer], work=537*
473: 0x134D [0x52] END_LOAD_SCHEDULER: End scheduler "m105" with entities [LocalPlayer, LocalPlayer], work=537*
474: 0x135C [0x52] END_LOAD_SCHEDULER: End scheduler "m106" with entities [LocalPlayer, LocalPlayer], work=537*
475: 0x136B [0x52] END_LOAD_SCHEDULER: End scheduler "m107" with entities [LocalPlayer, LocalPlayer], work=537*
476: 0x137A [0x52] END_LOAD_SCHEDULER: End scheduler "m108" with entities [LocalPlayer, LocalPlayer], work=537*
477: 0x1389 [0x52] END_LOAD_SCHEDULER: End scheduler "m090" with entities [LocalPlayer, LocalPlayer], work=537*
478: 0x1398 [0x1C] WAIT(30* ticks)
479: 0x139B [0xAB] EventEntity->DespawnValue = 0* // Set despawn value
480: 0x139F [0x1C] WAIT(1* ticks)
481: 0x13A2 [0x46] CAMERA_CONTROL: Restore default settings
482: 0x13A4 [0x45] LOAD_SCHEDULED_TASK: Load scheduler "fdi2" with entities [LocalPlayer, LocalPlayer], work=[200*, 0*]
483: 0x13B5 [0x21] END_EVENT
484: 0x13B6 [0x00] END_REQSTACK()
```

### Event 32

#### Metadata

| Field        | Value      |
|--------------|------------|
| Entrypoint   | 0x13B7     |
| Data Size    | 2498 bytes |
| Instructions | 361        |

```
      00 01 02 03 04 05 06 07  08 09 0A 0B 0C 0D 0E 0F
      -- -- -- -- -- -- -- --  -- -- -- -- -- -- -- --
13B0:                      42  1A 5A 33 46 01 38 48 80         B.Z3F.8H.
13C0: 27 10 FF E1 05 01 11 2F  00 08 E2 05 01 4E 00 08  '....../.....N..
13D0: E2 05 01 27 10 2B E2 05  01 05 2F 00 FE E1 05 01  ...'.+..../.....
13E0: 4E 00 FE E1 05 01 2F 00  61 E2 05 01 4E 00 61 E2  N...../.a...N.a.
13F0: 05 01 2F 00 53 E2 05 01  4E 00 53 E2 05 01 2F 00  ../.S...N.S.../.
1400: DC E1 05 01 4E 00 DC E1  05 01 2F 00 65 E2 05 01  ....N...../.e...
1410: 4E 00 65 E2 05 01 2F 00  7C E2 05 01 4E 00 7C E2  N.e.../.|...N.|.
1420: 05 01 2F 00 5E E2 05 01  4E 00 5E E2 05 01 2F 00  ../.^...N.^.../.
1430: BB E1 05 01 4E 00 BB E1  05 01 2F 00 51 E2 05 01  ....N...../.Q...
1440: 4E 00 51 E2 05 01 2F 00  54 E2 05 01 4E 00 54 E2  N.Q.../.T...N.T.
1450: 05 01 2F 00 F5 E1 05 01  4E 00 F5 E1 05 01 2F 00  ../.....N...../.
1460: F4 E1 05 01 4E 00 F4 E1  05 01 2F 00 C3 E2 05 01  ....N...../.....
1470: 4E 00 C3 E2 05 01 2F 00  E5 E1 05 01 4E 00 E5 E1  N...../.....N...
1480: 05 01 2F 00 F6 E1 05 01  4E 00 F6 E1 05 01 2F 00  ../.....N...../.
1490: F3 E1 05 01 4E 00 F3 E1  05 01 2F 00 F2 E1 05 01  ....N...../.....
14A0: 4E 00 F2 E1 05 01 2F 00  CA E2 05 01 4E 00 CA E2  N...../.....N...
14B0: 05 01 2F 00 CB E2 05 01  4E 00 CB E2 05 01 2F 00  ../.....N...../.
14C0: ED E1 05 01 4E 00 ED E1  05 01 2F 00 EE E1 05 01  ....N...../.....
14D0: 4E 00 EE E1 05 01 2F 00  EF E1 05 01 4E 00 EF E1  N...../.....N...
14E0: 05 01 2F 00 E7 E1 05 01  4E 00 E7 E1 05 01 2F 00  ../.....N...../.
14F0: 00 E2 05 01 4E 00 00 E2  05 01 92 01 FF E1 05 01  ....N...........
1500: 92 01 08 E2 05 01 92 01  2B E2 05 01 92 01 FE E1  ........+.......
1510: 05 01 92 01 61 E2 05 01  92 01 53 E2 05 01 92 01  ....a.....S.....
1520: DC E1 05 01 92 01 65 E2  05 01 92 01 7C E2 05 01  ......e.....|...
1530: 92 01 5E E2 05 01 92 01  BB E1 05 01 92 01 51 E2  ..^...........Q.
1540: 05 01 92 01 54 E2 05 01  92 01 F5 E1 05 01 92 01  ....T...........
1550: F4 E1 05 01 92 01 C3 E2  05 01 92 01 E5 E1 05 01  ................
1560: 92 01 F6 E1 05 01 92 01  F3 E1 05 01 92 01 F2 E1  ................
1570: 05 01 92 01 C4 E2 05 01  92 01 ED E1 05 01 92 01  ................
1580: EE E1 05 01 92 01 EF E1  05 01 92 01 E7 E1 05 01  ................
1590: 92 01 00 E2 05 01 92 01  CA E2 05 01 92 01 CB E2  ................
15A0: 05 01 94 01 F0 FF FF 7F  94 01 FF E1 05 01 94 01  ................
15B0: 08 E2 05 01 94 01 2B E2  05 01 94 01 FE E1 05 01  ......+.........
15C0: 94 01 61 E2 05 01 94 01  53 E2 05 01 94 01 DC E1  ..a.....S.......
15D0: 05 01 94 01 65 E2 05 01  94 01 7C E2 05 01 94 01  ....e.....|.....
15E0: 5E E2 05 01 94 01 BB E1  05 01 94 01 51 E2 05 01  ^...........Q...
15F0: 94 01 54 E2 05 01 94 01  F5 E1 05 01 94 01 F4 E1  ..T.............
1600: 05 01 94 01 C3 E2 05 01  94 01 E5 E1 05 01 94 01  ................
1610: F6 E1 05 01 94 01 F3 E1  05 01 94 01 F2 E1 05 01  ................
1620: 94 01 C4 E2 05 01 94 01  ED E1 05 01 94 01 EE E1  ................
1630: 05 01 94 01 EF E1 05 01  94 01 E7 E1 05 01 94 01  ................
1640: 00 E2 05 01 94 01 CA E2  05 01 94 01 CB E2 05 01  ................
1650: 80 F0 FF FF 7F 80 FF E1  05 01 80 08 E2 05 01 80  ................
1660: 2B E2 05 01 80 FE E1 05  01 80 61 E2 05 01 80 53  +.........a....S
1670: E2 05 01 80 DC E1 05 01  80 65 E2 05 01 80 7C E2  .........e....|.
1680: 05 01 80 5E E2 05 01 80  BB E1 05 01 80 51 E2 05  ...^.........Q..
