# 17163005 - 2

## Common Data

| Field            | Value                        |
|------------------|------------------------------|
| Zone             | Windurst Waters [S] (ID: 94) |
| Block Size       | 2564 bytes                   |
| Total Events     | 33                           |
| References Count | 151                          |

## List of Events

| Event ID                   | Entrypoint   |   Size |   Instructions |
|----------------------------|--------------|--------|----------------|
| [65535](#event-65535)      | 0x0000       |      1 |              1 |
| [65535.1](#event-655351)   | 0x0001       |      1 |              1 |
| [65535.2](#event-655352)   | 0x0002       |     18 |              4 |
| [65535.3](#event-655353)   | 0x0014       |     10 |              2 |
| [65535.4](#event-655354)   | 0x001E       |      9 |              3 |
| [65535.5](#event-655355)   | 0x0027       |      9 |              3 |
| [65535.6](#event-655356)   | 0x0030       |     10 |              2 |
| [65535.7](#event-655357)   | 0x003A       |     10 |              2 |
| [65535.8](#event-655358)   | 0x0044       |     22 |              7 |
| [65535.9](#event-655359)   | 0x005A       |    167 |             35 |
| [65535.10](#event-6553510) | 0x0101       |    186 |             38 |
| [65535.11](#event-6553511) | 0x01BB       |     83 |             18 |
| [65535.12](#event-6553512) | 0x020E       |    154 |             32 |
| [65535.13](#event-6553513) | 0x02A8       |    167 |             35 |
| [65535.14](#event-6553514) | 0x034F       |     69 |             15 |
| [65535.15](#event-6553515) | 0x0394       |     38 |              9 |
| [65535.16](#event-6553516) | 0x03BA       |     38 |              9 |
| [65535.17](#event-6553517) | 0x03E0       |     48 |             11 |
| [65535.18](#event-6553518) | 0x0410       |     19 |              4 |
| [65535.19](#event-6553519) | 0x0423       |     22 |              5 |
| [65535.20](#event-6553520) | 0x0439       |     22 |              5 |
| [65535.21](#event-6553521) | 0x044F       |     13 |              5 |
| [65535.22](#event-6553522) | 0x045C       |    221 |             26 |
| [65535.23](#event-6553523) | 0x0539       |     76 |              8 |
| [65535.24](#event-6553524) | 0x0585       |     49 |              5 |
| [65535.25](#event-6553525) | 0x05B6       |     29 |              6 |
| [65535.26](#event-6553526) | 0x05D3       |     49 |              7 |
| [65535.27](#event-6553527) | 0x0604       |     20 |              5 |
| [65535.28](#event-6553528) | 0x0618       |     47 |              6 |
| [65535.29](#event-6553529) | 0x0647       |     21 |              3 |
| [65535.30](#event-6553530) | 0x065C       |    161 |             17 |
| [65535.31](#event-6553531) | 0x06FD       |     20 |              5 |
| [20](#event-20)            | 0x0711       |      1 |              1 |

## DAT References (imed_data)

|   Index | Hex Value   |   Dec Value |
|---------|-------------|-------------|
|       0 | 0x0000      |           0 |
|       1 | 0x0001      |           1 |
|       2 | 0x0080      |         128 |
|       3 | 0x0004      |           4 |
|       4 | 0x001E      |          30 |
|       5 | 0x0050      |          80 |
|       6 | 0x01CB      |         459 |
|       7 | 0xC01D      |       49181 |
|       8 | 0xFFFFFC18  |  4294966296 |
|       9 | 0xFFFFF61D  |  4294964765 |
|      10 | 0xB4CD      |       46285 |
|      11 | 0xFFFFE4A1  |  4294960289 |
|      12 | 0xA1E9      |       41449 |
|      13 | 0xFFFFCB4E  |  4294953806 |
|      14 | 0x99E9      |       39401 |
|      15 | 0xFFFF383B  |  4294916155 |
|      16 | 0x975A      |       38746 |
|      17 | 0xFFFFF255  |  4294963797 |
|      18 | 0xFFFF0950  |  4294904144 |
|      19 | 0xA6EB      |       42731 |
|      20 | 0xFFFEE28D  |  4294894221 |
|      21 | 0xCA5B      |       51803 |
|      22 | 0xFFFECCEB  |  4294888683 |
|      23 | 0xE7E4      |       59364 |
|      24 | 0xFFFED4DC  |  4294890716 |
|      25 | 0x12692     |       75410 |
|      26 | 0xFFFF05FC  |  4294903292 |
|      27 | 0x13DD1     |       81361 |
|      28 | 0xFFFFEC78  |  4294962296 |
|      29 | 0xFFFF3FE9  |  4294918121 |
|      30 | 0x14635     |       83509 |
|      31 | 0xFFFFEC79  |  4294962297 |
|      32 | 0xFFFF58F1  |  4294924529 |
|      33 | 0x156CB     |       87755 |
|      34 | 0xFFFF5F95  |  4294926229 |
|      35 | 0x16818     |       92184 |
|      36 | 0xFFFF633B  |  4294927163 |
|      37 | 0x28E9B     |      167579 |
|      38 | 0xFFFFEC61  |  4294962273 |
|      39 | 0x0096      |         150 |
|      40 | 0x004F      |          79 |
|      41 | 0xFFFFFD21  |  4294966561 |
|      42 | 0xCD5B      |       52571 |
|      43 | 0xFFFFF472  |  4294964338 |
|      44 | 0xC585      |       50565 |
|      45 | 0xFFFFE64E  |  4294960718 |
|      46 | 0xAABD      |       43709 |
|      47 | 0xFFFFD9CC  |  4294957516 |
|      48 | 0x9B38      |       39736 |
|      49 | 0xFFFFCCF6  |  4294954230 |
|      50 | 0x9802      |       38914 |
|      51 | 0xFFFF64E4  |  4294927588 |
|      52 | 0x15EE3     |       89827 |
|      53 | 0xFFFF68EB  |  4294928619 |
|      54 | 0x16CEC     |       93420 |
|      55 | 0xFFFF6A76  |  4294929014 |
|      56 | 0x1835B     |       99163 |
|      57 | 0x0019      |          25 |
|      58 | 0xFFFF9D93  |  4294942099 |
|      59 | 0x153C3     |       86979 |
|      60 | 0x004E      |          78 |
|      61 | 0xFFFF7F27  |  4294934311 |
|      62 | 0x170BF     |       94399 |
|      63 | 0xFFFF6EA5  |  4294930085 |
|      64 | 0x181BB     |       98747 |
|      65 | 0xFFFF6986  |  4294928774 |
|      66 | 0x1A277     |      107127 |
|      67 | 0xFFFFE83A  |  4294961210 |
|      68 | 0x79A0      |       31136 |
|      69 | 0xFFFFFC19  |  4294966297 |
|      70 | 0xFFFFE0B0  |  4294959280 |
|      71 | 0x893B      |       35131 |
|      72 | 0xFFFFD29F  |  4294955679 |
|      73 | 0x9856      |       38998 |
|      74 | 0x00B4      |         180 |
|      75 | 0xFFFFF934  |  4294965556 |
|      76 | 0x7B9B      |       31643 |
|      77 | 0xFFFFEFB1  |  4294963121 |
|      78 | 0x9085      |       36997 |
|      79 | 0xFFFFDE20  |  4294958624 |
|      80 | 0xA00A      |       40970 |
|      81 | 0x0168      |         360 |
|      82 | 0x000F      |          15 |
|      83 | 0xFFFF96A6  |  4294940326 |
|      84 | 0xF877      |       63607 |
|      85 | 0xFFFFF254  |  4294963796 |
|      86 | 0xFFFF9B5E  |  4294941534 |
|      87 | 0xF61A      |       63002 |
|      88 | 0x0028      |          40 |
|      89 | 0xFFFF46D2  |  4294919890 |
|      90 | 0xE60E      |       58894 |
|      91 | 0xFFFF2186  |  4294910342 |
|      92 | 0xD0D7      |       53463 |
|      93 | 0x001B      |          27 |
|      94 | 0xFFFF8952  |  4294936914 |
|      95 | 0x12369     |       74601 |
|      96 | 0xFFFFF20A  |  4294963722 |
|      97 | 0xFFFF2B43  |  4294912835 |
|      98 | 0x10F50     |       69456 |
|      99 | 0xFFFF8D73  |  4294937971 |
|     100 | 0x1266B     |       75371 |
|     101 | 0xFFFFF237  |  4294963767 |
|     102 | 0xFFFF3027  |  4294914087 |
|     103 | 0x113AF     |       70575 |
|     104 | 0xFFFF938A  |  4294939530 |
|     105 | 0x11F80     |       73600 |
|     106 | 0xFFFFF2AA  |  4294963882 |
|     107 | 0xFFFF3332  |  4294914866 |
|     108 | 0x11FA6     |       73638 |
|     109 | 0xFFFF2C4F  |  4294913103 |
|     110 | 0x1196C     |       72044 |
|     111 | 0x002A      |          42 |
|     112 | 0xFFFFA76A  |  4294944618 |
|     113 | 0x13DC9     |       81353 |
|     114 | 0x003C      |          60 |
|     115 | 0x0078      |         120 |
|     116 | 0x0258      |         600 |
|     117 | 0x0005      |           5 |
|     118 | 0x0215      |         533 |
|     119 | 0x012C      |         300 |
|     120 | 0xFFFF11C3  |  4294906307 |
|     121 | 0x1126E     |       70254 |
|     122 | 0x0FFD      |        4093 |
|     123 | 0x0031      |          49 |
|     124 | 0x0508      |        1288 |
|     125 | 0xFFFFEB50  |  4294962000 |
|     126 | 0x3028      |       12328 |
|     127 | 0x00A0      |         160 |
|     128 | 0x0055      |          85 |
|     129 | 0x0007      |           7 |
|     130 | 0xFFFFFECD  |  4294966989 |
|     131 | 0x33C0      |       13248 |
|     132 | 0x0023      |          35 |
|     133 | 0xFFFFFC12  |  4294966290 |
|     134 | 0x3F62      |       16226 |
|     135 | 0x004B      |          75 |
|     136 | 0x00C9      |         201 |
|     137 | 0xFFFFFBDE  |  4294966238 |
|     138 | 0x4419      |       17433 |
|     139 | 0x0408      |        1032 |
|     140 | 0x3D40      |       15680 |
|     141 | 0x09C7      |        2503 |
|     142 | 0x0506      |        1286 |
|     143 | 0x00B5      |         181 |
|     144 | 0x0056      |          86 |
|     145 | 0x0189      |         393 |
|     146 | 0x0BD5      |        3029 |
|     147 | 0x0024      |          36 |
|     148 | 0xFFFFE1FB  |  4294959611 |
|     149 | 0x1E8B      |        7819 |
|     150 | 0xFFFFFBFE  |  4294966270 |

## Events

### Event 65535

#### Metadata

| Field        | Value   |
|--------------|---------|
| Entrypoint   | 0x0000  |
| Data Size    | 1 bytes |
| Instructions | 1       |

```
      00 01 02 03 04 05 06 07  08 09 0A 0B 0C 0D 0E 0F
      -- -- -- -- -- -- -- --  -- -- -- -- -- -- -- --
0000: 00                                                .               
```

#### Opcodes

```
  0: 0x0000 [0x00] END_REQSTACK()
```

### Event 65535.1

#### Metadata

| Field        | Value   |
|--------------|---------|
| Entrypoint   | 0x0001  |
| Data Size    | 1 bytes |
| Instructions | 1       |

```
      00 01 02 03 04 05 06 07  08 09 0A 0B 0C 0D 0E 0F
      -- -- -- -- -- -- -- --  -- -- -- -- -- -- -- --
0000:    00                                              .              
```

#### Opcodes

```
  0: 0x0001 [0x00] END_REQSTACK()
```

### Event 65535.2

#### Metadata

| Field        | Value    |
|--------------|----------|
| Entrypoint   | 0x0002   |
| Data Size    | 18 bytes |
| Instructions | 4        |

```
      00 01 02 03 04 05 06 07  08 09 0A 0B 0C 0D 0E 0F
      -- -- -- -- -- -- -- --  -- -- -- -- -- -- -- --
0000:       22 00 2F 00 F8 FF  FF 7F 6C F8 FF FF 7F 00    "./.....l.....
0010: 80 01 80 00                                       ....            
```

#### Opcodes

```
  0: 0x0002 [0x22] ENTITY_HIDE_FLAG(enabled=0x00)
  1: 0x0004 [0x2F] EventEntity->Render.Flags0 &= ~0x80000 // Bit 19
  2: 0x000A [0x6C] FADE_ENTITY_COLOR(entity_id=EventEntity, end_alpha=0*, fade_time=1*)
  3: 0x0013 [0x00] END_REQSTACK()
```

### Event 65535.3

#### Metadata

| Field        | Value    |
|--------------|----------|
| Entrypoint   | 0x0014   |
| Data Size    | 10 bytes |
| Instructions | 2        |

```
      00 01 02 03 04 05 06 07  08 09 0A 0B 0C 0D 0E 0F
      -- -- -- -- -- -- -- --  -- -- -- -- -- -- -- --
0010:             6C F8 FF FF  7F 02 80 01 80 00            l.........  
```

#### Opcodes

```
  0: 0x0014 [0x6C] FADE_ENTITY_COLOR(entity_id=EventEntity, end_alpha=128*, fade_time=1*)
  1: 0x001D [0x00] END_REQSTACK()
```

### Event 65535.4

#### Metadata

| Field        | Value   |
|--------------|---------|
| Entrypoint   | 0x001E  |
| Data Size    | 9 bytes |
| Instructions | 3       |

```
      00 01 02 03 04 05 06 07  08 09 0A 0B 0C 0D 0E 0F
      -- -- -- -- -- -- -- --  -- -- -- -- -- -- -- --
0010:                                            22 00                ".
0020: 2F 00 F8 FF FF 7F 00                              /......         
```

#### Opcodes

```
  0: 0x001E [0x22] ENTITY_HIDE_FLAG(enabled=0x00)
  1: 0x0020 [0x2F] EventEntity->Render.Flags0 &= ~0x80000 // Bit 19
  2: 0x0026 [0x00] END_REQSTACK()
```

### Event 65535.5

#### Metadata

| Field        | Value   |
|--------------|---------|
| Entrypoint   | 0x0027  |
| Data Size    | 9 bytes |
| Instructions | 3       |

```
      00 01 02 03 04 05 06 07  08 09 0A 0B 0C 0D 0E 0F
      -- -- -- -- -- -- -- --  -- -- -- -- -- -- -- --
0020:                      22  01 2F 01 F8 FF FF 7F 00         "./......
```

#### Opcodes

```
  0: 0x0027 [0x22] ENTITY_HIDE_FLAG(enabled=0x01)
  1: 0x0029 [0x2F] EventEntity->Render.Flags0 |= 0x80000 // Bit 19
  2: 0x002F [0x00] END_REQSTACK()
```

### Event 65535.6

#### Metadata

| Field        | Value    |
|--------------|----------|
| Entrypoint   | 0x0030   |
| Data Size    | 10 bytes |
| Instructions | 2        |

```
      00 01 02 03 04 05 06 07  08 09 0A 0B 0C 0D 0E 0F
      -- -- -- -- -- -- -- --  -- -- -- -- -- -- -- --
0030: 6C F8 FF FF 7F 00 80 01  80 00                    l.........      
```

#### Opcodes

```
  0: 0x0030 [0x6C] FADE_ENTITY_COLOR(entity_id=EventEntity, end_alpha=0*, fade_time=1*)
  1: 0x0039 [0x00] END_REQSTACK()
```

### Event 65535.7

#### Metadata

| Field        | Value    |
|--------------|----------|
| Entrypoint   | 0x003A   |
| Data Size    | 10 bytes |
| Instructions | 2        |

```
      00 01 02 03 04 05 06 07  08 09 0A 0B 0C 0D 0E 0F
      -- -- -- -- -- -- -- --  -- -- -- -- -- -- -- --
0030:                                6C F8 FF FF 7F 02            l.....
0040: 80 01 80 00                                       ....            
```

#### Opcodes

```
  0: 0x003A [0x6C] FADE_ENTITY_COLOR(entity_id=EventEntity, end_alpha=128*, fade_time=1*)
  1: 0x0043 [0x00] END_REQSTACK()
```

### Event 65535.8

#### Metadata

| Field        | Value    |
|--------------|----------|
| Entrypoint   | 0x0044   |
| Data Size    | 22 bytes |
| Instructions | 2        |

```
      00 01 02 03 04 05 06 07  08 09 0A 0B 0C 0D 0E 0F
      -- -- -- -- -- -- -- --  -- -- -- -- -- -- -- --
0040:             B6 0E 00 80  03 80 01 80 00 80 00 80      ............
0050: 00 80 01 80 80 F8 FF FF  7F 00                    ..........      
```

#### Opcodes

```
  0: 0x0044 [0xB6] ENTITY_APPEARANCE_HANDLER(case=Look with Render flags, race=0*, face=4*, head=1*, body=0*, hands=0*, render_flags=0x8000)
  1: 0x0052 [0x01] GOTO 0x8080
```

#### Data or dead code:

```
# Dead code (unreachable instructions):
     0x0055 [0xF8] UNKNOWN_0xF8
     0x0056 [0xFF] UNKNOWN_0xFF
     0x0057 [0xFF] UNKNOWN_0xFF
     0x0058 [0x7F] WAIT_DIALOG_SELECT_ALT()
     0x0059 [0x00] END_REQSTACK()
```

### Event 65535.9

#### Metadata

| Field        | Value     |
|--------------|-----------|
| Entrypoint   | 0x005A    |
| Data Size    | 167 bytes |
| Instructions | 35        |

```
      00 01 02 03 04 05 06 07  08 09 0A 0B 0C 0D 0E 0F
      -- -- -- -- -- -- -- --  -- -- -- -- -- -- -- --
0050:                                1C 04 80 59 04 1D            ...Y..
0060: E2 05 01 05 80 1F 00 06  80 07 80 08 80 1F 01 1F  ................
0070: 00 09 80 0A 80 08 80 1F  01 1F 00 0B 80 0C 80 08  ................
0080: 80 1F 01 1F 00 0D 80 0E  80 08 80 1F 01 1F 00 0F  ................
0090: 80 10 80 11 80 1F 01 1F  00 12 80 13 80 11 80 1F  ................
00A0: 01 1F 00 14 80 15 80 11  80 1F 01 1F 00 16 80 17  ................
00B0: 80 11 80 1F 01 1F 00 18  80 19 80 11 80 1F 01 1F  ................
00C0: 00 1A 80 1B 80 1C 80 1F  01 1F 00 1D 80 1E 80 1F  ................
00D0: 80 1F 01 1F 00 20 80 21  80 1F 80 1F 01 1F 00 22  ..... .!......."
00E0: 80 23 80 1F 80 1F 01 1F  00 24 80 25 80 26 80 1F  .#.......$.%.&..
00F0: 01 6F 7E 05 1D E2 05 01  22 01 2F 01 F8 FF FF 7F  .o~....."./.....
0100: 00                                                .               
```

#### Opcodes

```
  0: 0x005A [0x1C] WAIT(30* ticks)
  1: 0x005D [0x59] UPDATE_ENTITY_DATA: Set 01 (ID: 17162781/0x0105E21D) main speed = 80* * 0.1
  2: 0x0065 [0x1F] MOVE_ENTITY: EventEntity moves to X=0.459*, Z=49.181*, Y=-1.000*
  3: 0x006D [0x1F] MOVE_ENTITY: Update entity position (mode=1)
  4: 0x006F [0x1F] MOVE_ENTITY: EventEntity moves to X=-2.531*, Z=46.285*, Y=-1.000*
  5: 0x0077 [0x1F] MOVE_ENTITY: Update entity position (mode=1)
  6: 0x0079 [0x1F] MOVE_ENTITY: EventEntity moves to X=-7.007*, Z=41.449*, Y=-1.000*
  7: 0x0081 [0x1F] MOVE_ENTITY: Update entity position (mode=1)
  8: 0x0083 [0x1F] MOVE_ENTITY: EventEntity moves to X=-13.490*, Z=39.401*, Y=-1.000*
  9: 0x008B [0x1F] MOVE_ENTITY: Update entity position (mode=1)
 10: 0x008D [0x1F] MOVE_ENTITY: EventEntity moves to X=-51.141*, Z=38.746*, Y=-3.499*
 11: 0x0095 [0x1F] MOVE_ENTITY: Update entity position (mode=1)
 12: 0x0097 [0x1F] MOVE_ENTITY: EventEntity moves to X=-63.152*, Z=42.731*, Y=-3.499*
 13: 0x009F [0x1F] MOVE_ENTITY: Update entity position (mode=1)
 14: 0x00A1 [0x1F] MOVE_ENTITY: EventEntity moves to X=-73.075*, Z=51.803*, Y=-3.499*
 15: 0x00A9 [0x1F] MOVE_ENTITY: Update entity position (mode=1)
 16: 0x00AB [0x1F] MOVE_ENTITY: EventEntity moves to X=-78.613*, Z=59.364*, Y=-3.499*
 17: 0x00B3 [0x1F] MOVE_ENTITY: Update entity position (mode=1)
 18: 0x00B5 [0x1F] MOVE_ENTITY: EventEntity moves to X=-76.580*, Z=75.410*, Y=-3.499*
 19: 0x00BD [0x1F] MOVE_ENTITY: Update entity position (mode=1)
 20: 0x00BF [0x1F] MOVE_ENTITY: EventEntity moves to X=-64.004*, Z=81.361*, Y=-5.000*
 21: 0x00C7 [0x1F] MOVE_ENTITY: Update entity position (mode=1)
 22: 0x00C9 [0x1F] MOVE_ENTITY: EventEntity moves to X=-49.175*, Z=83.509*, Y=-4.999*
 23: 0x00D1 [0x1F] MOVE_ENTITY: Update entity position (mode=1)
 24: 0x00D3 [0x1F] MOVE_ENTITY: EventEntity moves to X=-42.767*, Z=87.755*, Y=-4.999*
 25: 0x00DB [0x1F] MOVE_ENTITY: Update entity position (mode=1)
 26: 0x00DD [0x1F] MOVE_ENTITY: EventEntity moves to X=-41.067*, Z=92.184*, Y=-4.999*
 27: 0x00E5 [0x1F] MOVE_ENTITY: Update entity position (mode=1)
 28: 0x00E7 [0x1F] MOVE_ENTITY: EventEntity moves to X=-40.133*, Z=167.579*, Y=-5.023*
 29: 0x00EF [0x1F] MOVE_ENTITY: Update entity position (mode=1)
 30: 0x00F1 [0x6F] WAIT_FRAME_DELAY: Yield until WaitTime reaches zero
 31: 0x00F2 [0x7E] CHOCOBO_MOUNT: Dismount 01 (ID: 17162781/0x0105E21D) (status = 0)
 32: 0x00F8 [0x22] ENTITY_HIDE_FLAG(enabled=0x01)
 33: 0x00FA [0x2F] EventEntity->Render.Flags0 |= 0x80000 // Bit 19
 34: 0x0100 [0x00] END_REQSTACK()
```

### Event 65535.10

#### Metadata

| Field        | Value     |
|--------------|-----------|
| Entrypoint   | 0x0101    |
| Data Size    | 186 bytes |
| Instructions | 38        |

```
      00 01 02 03 04 05 06 07  08 09 0A 0B 0C 0D 0E 0F
      -- -- -- -- -- -- -- --  -- -- -- -- -- -- -- --
0100:    1C 27 80 59 04 1E E2  05 01 28 80 1F 00 29 80   .'.Y.....(...).
0110: 2A 80 08 80 1F 01 1F 00  2B 80 2C 80 08 80 1F 01  *.......+.,.....
0120: 1F 00 2D 80 2E 80 08 80  1F 01 1F 00 2F 80 30 80  ..-........./.0.
0130: 08 80 1F 01 1F 00 31 80  32 80 08 80 1F 01 1F 00  ......1.2.......
0140: 0F 80 10 80 11 80 1F 01  1F 00 12 80 13 80 11 80  ................
0150: 1F 01 1F 00 14 80 15 80  11 80 1F 01 1F 00 16 80  ................
0160: 17 80 11 80 1F 01 1F 00  18 80 19 80 11 80 1F 01  ................
0170: 1F 00 1A 80 1B 80 1C 80  1F 01 1F 00 1D 80 1E 80  ................
0180: 1F 80 1F 01 1F 00 33 80  34 80 1F 80 1F 01 1F 00  ......3.4.......
0190: 35 80 36 80 1F 80 1F 01  1F 00 37 80 38 80 1F 80  5.6.......7.8...
01A0: 1F 01 1F 00 24 80 25 80  26 80 1F 01 7E 05 1E E2  ....$.%.&...~...
01B0: 05 01 22 01 2F 01 F8 FF  FF 7F 00                 .."./......     
```

#### Opcodes

```
  0: 0x0101 [0x1C] WAIT(150* ticks)
  1: 0x0104 [0x59] UPDATE_ENTITY_DATA: Set 02 (ID: 17162782/0x0105E21E) main speed = 79* * 0.1
  2: 0x010C [0x1F] MOVE_ENTITY: EventEntity moves to X=-0.735*, Z=52.571*, Y=-1.000*
  3: 0x0114 [0x1F] MOVE_ENTITY: Update entity position (mode=1)
  4: 0x0116 [0x1F] MOVE_ENTITY: EventEntity moves to X=-2.958*, Z=50.565*, Y=-1.000*
  5: 0x011E [0x1F] MOVE_ENTITY: Update entity position (mode=1)
  6: 0x0120 [0x1F] MOVE_ENTITY: EventEntity moves to X=-6.578*, Z=43.709*, Y=-1.000*
  7: 0x0128 [0x1F] MOVE_ENTITY: Update entity position (mode=1)
  8: 0x012A [0x1F] MOVE_ENTITY: EventEntity moves to X=-9.780*, Z=39.736*, Y=-1.000*
  9: 0x0132 [0x1F] MOVE_ENTITY: Update entity position (mode=1)
 10: 0x0134 [0x1F] MOVE_ENTITY: EventEntity moves to X=-13.066*, Z=38.914*, Y=-1.000*
 11: 0x013C [0x1F] MOVE_ENTITY: Update entity position (mode=1)
 12: 0x013E [0x1F] MOVE_ENTITY: EventEntity moves to X=-51.141*, Z=38.746*, Y=-3.499*
 13: 0x0146 [0x1F] MOVE_ENTITY: Update entity position (mode=1)
 14: 0x0148 [0x1F] MOVE_ENTITY: EventEntity moves to X=-63.152*, Z=42.731*, Y=-3.499*
 15: 0x0150 [0x1F] MOVE_ENTITY: Update entity position (mode=1)
 16: 0x0152 [0x1F] MOVE_ENTITY: EventEntity moves to X=-73.075*, Z=51.803*, Y=-3.499*
 17: 0x015A [0x1F] MOVE_ENTITY: Update entity position (mode=1)
 18: 0x015C [0x1F] MOVE_ENTITY: EventEntity moves to X=-78.613*, Z=59.364*, Y=-3.499*
 19: 0x0164 [0x1F] MOVE_ENTITY: Update entity position (mode=1)
 20: 0x0166 [0x1F] MOVE_ENTITY: EventEntity moves to X=-76.580*, Z=75.410*, Y=-3.499*
 21: 0x016E [0x1F] MOVE_ENTITY: Update entity position (mode=1)
 22: 0x0170 [0x1F] MOVE_ENTITY: EventEntity moves to X=-64.004*, Z=81.361*, Y=-5.000*
 23: 0x0178 [0x1F] MOVE_ENTITY: Update entity position (mode=1)
 24: 0x017A [0x1F] MOVE_ENTITY: EventEntity moves to X=-49.175*, Z=83.509*, Y=-4.999*
 25: 0x0182 [0x1F] MOVE_ENTITY: Update entity position (mode=1)
 26: 0x0184 [0x1F] MOVE_ENTITY: EventEntity moves to X=-39.708*, Z=89.827*, Y=-4.999*
 27: 0x018C [0x1F] MOVE_ENTITY: Update entity position (mode=1)
 28: 0x018E [0x1F] MOVE_ENTITY: EventEntity moves to X=-38.677*, Z=93.420*, Y=-4.999*
 29: 0x0196 [0x1F] MOVE_ENTITY: Update entity position (mode=1)
 30: 0x0198 [0x1F] MOVE_ENTITY: EventEntity moves to X=-38.282*, Z=99.163*, Y=-4.999*
 31: 0x01A0 [0x1F] MOVE_ENTITY: Update entity position (mode=1)
 32: 0x01A2 [0x1F] MOVE_ENTITY: EventEntity moves to X=-40.133*, Z=167.579*, Y=-5.023*
 33: 0x01AA [0x1F] MOVE_ENTITY: Update entity position (mode=1)
 34: 0x01AC [0x7E] CHOCOBO_MOUNT: Dismount 02 (ID: 17162782/0x0105E21E) (status = 0)
 35: 0x01B2 [0x22] ENTITY_HIDE_FLAG(enabled=0x01)
 36: 0x01B4 [0x2F] EventEntity->Render.Flags0 |= 0x80000 // Bit 19
 37: 0x01BA [0x00] END_REQSTACK()
```

### Event 65535.11

#### Metadata

| Field        | Value    |
|--------------|----------|
| Entrypoint   | 0x01BB   |
| Data Size    | 83 bytes |
| Instructions | 18       |

```
      00 01 02 03 04 05 06 07  08 09 0A 0B 0C 0D 0E 0F
      -- -- -- -- -- -- -- --  -- -- -- -- -- -- -- --
01B0:                                   59 04 25 E2 05             Y.%..
01C0: 01 39 80 1F 00 3A 80 3B  80 1F 80 1F 01 6F 59 04  .9...:.;.....oY.
01D0: F8 FF FF 7F 3C 80 1F 00  3D 80 3E 80 1F 80 1F 01  ....<...=.>.....
01E0: 1F 00 3F 80 40 80 1F 80  1F 01 1F 00 41 80 42 80  ..?.@.......A.B.
01F0: 1F 80 1F 01 1F 00 24 80  25 80 26 80 1F 01 6F 7E  ......$.%.&...o~
0200: 05 25 E2 05 01 22 01 2F  01 F8 FF FF 7F 00        .%..."./......  
```

#### Opcodes

```
  0: 0x01BB [0x59] UPDATE_ENTITY_DATA: Set Unnamed NPC (ID: 17162789/0x0105E225) main speed = 25* * 0.1
  1: 0x01C3 [0x1F] MOVE_ENTITY: EventEntity moves to X=-25.197*, Z=86.979*, Y=-4.999*
  2: 0x01CB [0x1F] MOVE_ENTITY: Update entity position (mode=1)
  3: 0x01CD [0x6F] WAIT_FRAME_DELAY: Yield until WaitTime reaches zero
  4: 0x01CE [0x59] UPDATE_ENTITY_DATA: Set EventEntity main speed = 78* * 0.1
  5: 0x01D6 [0x1F] MOVE_ENTITY: EventEntity moves to X=-32.985*, Z=94.399*, Y=-4.999*
  6: 0x01DE [0x1F] MOVE_ENTITY: Update entity position (mode=1)
  7: 0x01E0 [0x1F] MOVE_ENTITY: EventEntity moves to X=-37.211*, Z=98.747*, Y=-4.999*
  8: 0x01E8 [0x1F] MOVE_ENTITY: Update entity position (mode=1)
  9: 0x01EA [0x1F] MOVE_ENTITY: EventEntity moves to X=-38.522*, Z=107.127*, Y=-4.999*
 10: 0x01F2 [0x1F] MOVE_ENTITY: Update entity position (mode=1)
 11: 0x01F4 [0x1F] MOVE_ENTITY: EventEntity moves to X=-40.133*, Z=167.579*, Y=-5.023*
 12: 0x01FC [0x1F] MOVE_ENTITY: Update entity position (mode=1)
 13: 0x01FE [0x6F] WAIT_FRAME_DELAY: Yield until WaitTime reaches zero
 14: 0x01FF [0x7E] CHOCOBO_MOUNT: Dismount Unnamed NPC (ID: 17162789/0x0105E225) (status = 0)
 15: 0x0205 [0x22] ENTITY_HIDE_FLAG(enabled=0x01)
 16: 0x0207 [0x2F] EventEntity->Render.Flags0 |= 0x80000 // Bit 19
 17: 0x020D [0x00] END_REQSTACK()
```

### Event 65535.12

#### Metadata

| Field        | Value     |
|--------------|-----------|
| Entrypoint   | 0x020E    |
| Data Size    | 154 bytes |
| Instructions | 32        |

```
      00 01 02 03 04 05 06 07  08 09 0A 0B 0C 0D 0E 0F
      -- -- -- -- -- -- -- --  -- -- -- -- -- -- -- --
0200:                                            59 04                Y.
0210: 26 E2 05 01 05 80 1F 00  43 80 44 80 45 80 1F 01  &.......C.D.E...
0220: 1F 00 46 80 47 80 45 80  1F 01 1F 00 48 80 49 80  ..F.G.E.....H.I.
0230: 45 80 1F 01 1F 00 0F 80  10 80 11 80 1F 01 1F 00  E...............
0240: 12 80 13 80 11 80 1F 01  1F 00 14 80 15 80 11 80  ................
0250: 1F 01 1F 00 16 80 17 80  11 80 1F 01 1F 00 18 80  ................
0260: 19 80 11 80 1F 01 1F 00  1A 80 1B 80 1C 80 1F 01  ................
0270: 1F 00 1D 80 1E 80 1F 80  1F 01 1F 00 20 80 21 80  ............ .!.
0280: 1F 80 1F 01 1F 00 22 80  23 80 1F 80 1F 01 1F 00  ......".#.......
0290: 24 80 25 80 26 80 1F 01  6F 7E 05 26 E2 05 01 22  $.%.&...o~.&..."
02A0: 01 2F 01 F8 FF FF 7F 00                           ./......        
```

#### Opcodes

```
  0: 0x020E [0x59] UPDATE_ENTITY_DATA: Set Unnamed NPC (ID: 17162790/0x0105E226) main speed = 80* * 0.1
  1: 0x0216 [0x1F] MOVE_ENTITY: EventEntity moves to X=-6.086*, Z=31.136*, Y=-0.999*
  2: 0x021E [0x1F] MOVE_ENTITY: Update entity position (mode=1)
  3: 0x0220 [0x1F] MOVE_ENTITY: EventEntity moves to X=-8.016*, Z=35.131*, Y=-0.999*
  4: 0x0228 [0x1F] MOVE_ENTITY: Update entity position (mode=1)
  5: 0x022A [0x1F] MOVE_ENTITY: EventEntity moves to X=-11.617*, Z=38.998*, Y=-0.999*
  6: 0x0232 [0x1F] MOVE_ENTITY: Update entity position (mode=1)
  7: 0x0234 [0x1F] MOVE_ENTITY: EventEntity moves to X=-51.141*, Z=38.746*, Y=-3.499*
  8: 0x023C [0x1F] MOVE_ENTITY: Update entity position (mode=1)
  9: 0x023E [0x1F] MOVE_ENTITY: EventEntity moves to X=-63.152*, Z=42.731*, Y=-3.499*
 10: 0x0246 [0x1F] MOVE_ENTITY: Update entity position (mode=1)
 11: 0x0248 [0x1F] MOVE_ENTITY: EventEntity moves to X=-73.075*, Z=51.803*, Y=-3.499*
 12: 0x0250 [0x1F] MOVE_ENTITY: Update entity position (mode=1)
 13: 0x0252 [0x1F] MOVE_ENTITY: EventEntity moves to X=-78.613*, Z=59.364*, Y=-3.499*
 14: 0x025A [0x1F] MOVE_ENTITY: Update entity position (mode=1)
 15: 0x025C [0x1F] MOVE_ENTITY: EventEntity moves to X=-76.580*, Z=75.410*, Y=-3.499*
 16: 0x0264 [0x1F] MOVE_ENTITY: Update entity position (mode=1)
 17: 0x0266 [0x1F] MOVE_ENTITY: EventEntity moves to X=-64.004*, Z=81.361*, Y=-5.000*
 18: 0x026E [0x1F] MOVE_ENTITY: Update entity position (mode=1)
 19: 0x0270 [0x1F] MOVE_ENTITY: EventEntity moves to X=-49.175*, Z=83.509*, Y=-4.999*
 20: 0x0278 [0x1F] MOVE_ENTITY: Update entity position (mode=1)
 21: 0x027A [0x1F] MOVE_ENTITY: EventEntity moves to X=-42.767*, Z=87.755*, Y=-4.999*
 22: 0x0282 [0x1F] MOVE_ENTITY: Update entity position (mode=1)
 23: 0x0284 [0x1F] MOVE_ENTITY: EventEntity moves to X=-41.067*, Z=92.184*, Y=-4.999*
 24: 0x028C [0x1F] MOVE_ENTITY: Update entity position (mode=1)
 25: 0x028E [0x1F] MOVE_ENTITY: EventEntity moves to X=-40.133*, Z=167.579*, Y=-5.023*
 26: 0x0296 [0x1F] MOVE_ENTITY: Update entity position (mode=1)
 27: 0x0298 [0x6F] WAIT_FRAME_DELAY: Yield until WaitTime reaches zero
 28: 0x0299 [0x7E] CHOCOBO_MOUNT: Dismount Unnamed NPC (ID: 17162790/0x0105E226) (status = 0)
 29: 0x029F [0x22] ENTITY_HIDE_FLAG(enabled=0x01)
 30: 0x02A1 [0x2F] EventEntity->Render.Flags0 |= 0x80000 // Bit 19
 31: 0x02A7 [0x00] END_REQSTACK()
```

### Event 65535.13

#### Metadata

| Field        | Value     |
|--------------|-----------|
| Entrypoint   | 0x02A8    |
| Data Size    | 167 bytes |
| Instructions | 35        |

```
      00 01 02 03 04 05 06 07  08 09 0A 0B 0C 0D 0E 0F
      -- -- -- -- -- -- -- --  -- -- -- -- -- -- -- --
02A0:                          1C 4A 80 59 04 27 E2 05          .J.Y.'..
02B0: 01 3C 80 1F 00 4B 80 4C  80 45 80 1F 01 1F 00 4D  .<...K.L.E.....M
02C0: 80 4E 80 45 80 1F 01 1F  00 4F 80 50 80 45 80 1F  .N.E.....O.P.E..
02D0: 01 1F 00 0F 80 10 80 11  80 1F 01 1F 00 12 80 13  ................
02E0: 80 11 80 1F 01 1F 00 14  80 15 80 11 80 1F 01 1F  ................
02F0: 00 16 80 17 80 11 80 1F  01 1F 00 18 80 19 80 11  ................
0300: 80 1F 01 1F 00 1A 80 1B  80 1C 80 1F 01 1F 00 1D  ................
0310: 80 1E 80 1F 80 1F 01 1F  00 33 80 34 80 1F 80 1F  .........3.4....
0320: 01 1F 00 35 80 36 80 1F  80 1F 01 1F 00 37 80 38  ...5.6.......7.8
0330: 80 1F 80 1F 01 1F 00 24  80 25 80 26 80 1F 01 6F  .......$.%.&...o
0340: 7E 05 27 E2 05 01 22 01  2F 01 F8 FF FF 7F 00     ~.'..."./...... 
```

#### Opcodes

```
  0: 0x02A8 [0x1C] WAIT(180* ticks)
  1: 0x02AB [0x59] UPDATE_ENTITY_DATA: Set Unnamed NPC (ID: 17162791/0x0105E227) main speed = 78* * 0.1
  2: 0x02B3 [0x1F] MOVE_ENTITY: EventEntity moves to X=-1.740*, Z=31.643*, Y=-0.999*
  3: 0x02BB [0x1F] MOVE_ENTITY: Update entity position (mode=1)
  4: 0x02BD [0x1F] MOVE_ENTITY: EventEntity moves to X=-4.175*, Z=36.997*, Y=-0.999*
  5: 0x02C5 [0x1F] MOVE_ENTITY: Update entity position (mode=1)
  6: 0x02C7 [0x1F] MOVE_ENTITY: EventEntity moves to X=-8.672*, Z=40.970*, Y=-0.999*
  7: 0x02CF [0x1F] MOVE_ENTITY: Update entity position (mode=1)
  8: 0x02D1 [0x1F] MOVE_ENTITY: EventEntity moves to X=-51.141*, Z=38.746*, Y=-3.499*
  9: 0x02D9 [0x1F] MOVE_ENTITY: Update entity position (mode=1)
 10: 0x02DB [0x1F] MOVE_ENTITY: EventEntity moves to X=-63.152*, Z=42.731*, Y=-3.499*
 11: 0x02E3 [0x1F] MOVE_ENTITY: Update entity position (mode=1)
 12: 0x02E5 [0x1F] MOVE_ENTITY: EventEntity moves to X=-73.075*, Z=51.803*, Y=-3.499*
 13: 0x02ED [0x1F] MOVE_ENTITY: Update entity position (mode=1)
 14: 0x02EF [0x1F] MOVE_ENTITY: EventEntity moves to X=-78.613*, Z=59.364*, Y=-3.499*
 15: 0x02F7 [0x1F] MOVE_ENTITY: Update entity position (mode=1)
 16: 0x02F9 [0x1F] MOVE_ENTITY: EventEntity moves to X=-76.580*, Z=75.410*, Y=-3.499*
 17: 0x0301 [0x1F] MOVE_ENTITY: Update entity position (mode=1)
 18: 0x0303 [0x1F] MOVE_ENTITY: EventEntity moves to X=-64.004*, Z=81.361*, Y=-5.000*
 19: 0x030B [0x1F] MOVE_ENTITY: Update entity position (mode=1)
 20: 0x030D [0x1F] MOVE_ENTITY: EventEntity moves to X=-49.175*, Z=83.509*, Y=-4.999*
 21: 0x0315 [0x1F] MOVE_ENTITY: Update entity position (mode=1)
 22: 0x0317 [0x1F] MOVE_ENTITY: EventEntity moves to X=-39.708*, Z=89.827*, Y=-4.999*
 23: 0x031F [0x1F] MOVE_ENTITY: Update entity position (mode=1)
 24: 0x0321 [0x1F] MOVE_ENTITY: EventEntity moves to X=-38.677*, Z=93.420*, Y=-4.999*
 25: 0x0329 [0x1F] MOVE_ENTITY: Update entity position (mode=1)
 26: 0x032B [0x1F] MOVE_ENTITY: EventEntity moves to X=-38.282*, Z=99.163*, Y=-4.999*
 27: 0x0333 [0x1F] MOVE_ENTITY: Update entity position (mode=1)
 28: 0x0335 [0x1F] MOVE_ENTITY: EventEntity moves to X=-40.133*, Z=167.579*, Y=-5.023*
 29: 0x033D [0x1F] MOVE_ENTITY: Update entity position (mode=1)
 30: 0x033F [0x6F] WAIT_FRAME_DELAY: Yield until WaitTime reaches zero
 31: 0x0340 [0x7E] CHOCOBO_MOUNT: Dismount Unnamed NPC (ID: 17162791/0x0105E227) (status = 0)
 32: 0x0346 [0x22] ENTITY_HIDE_FLAG(enabled=0x01)
 33: 0x0348 [0x2F] EventEntity->Render.Flags0 |= 0x80000 // Bit 19
 34: 0x034E [0x00] END_REQSTACK()
```

### Event 65535.14

#### Metadata

| Field        | Value    |
|--------------|----------|
| Entrypoint   | 0x034F   |
| Data Size    | 69 bytes |
| Instructions | 15       |

```
      00 01 02 03 04 05 06 07  08 09 0A 0B 0C 0D 0E 0F
      -- -- -- -- -- -- -- --  -- -- -- -- -- -- -- --
0340:                                               1C                 .
0350: 51 80 59 04 94 E2 05 01  52 80 1F 00 53 80 54 80  Q.Y.....R...S.T.
0360: 55 80 1F 01 1F 00 56 80  57 80 55 80 1F 01 59 04  U.....V.W.U...Y.
0370: F8 FF FF 7F 58 80 1F 00  59 80 5A 80 55 80 1F 01  ....X...Y.Z.U...
0380: 1F 00 5B 80 5C 80 11 80  1F 01 6F 22 01 2F 01 F8  ..[.\.....o"./..
0390: FF FF 7F 00                                       ....            
```

#### Opcodes

```
  0: 0x034F [0x1C] WAIT(360* ticks)
  1: 0x0352 [0x59] UPDATE_ENTITY_DATA: Set 02 (ID: 17162900/0x0105E294) main speed = 15* * 0.1
  2: 0x035A [0x1F] MOVE_ENTITY: EventEntity moves to X=-26.970*, Z=63.607*, Y=-3.500*
  3: 0x0362 [0x1F] MOVE_ENTITY: Update entity position (mode=1)
  4: 0x0364 [0x1F] MOVE_ENTITY: EventEntity moves to X=-25.762*, Z=63.002*, Y=-3.500*
  5: 0x036C [0x1F] MOVE_ENTITY: Update entity position (mode=1)
  6: 0x036E [0x59] UPDATE_ENTITY_DATA: Set EventEntity main speed = 40* * 0.1
  7: 0x0376 [0x1F] MOVE_ENTITY: EventEntity moves to X=-47.406*, Z=58.894*, Y=-3.500*
  8: 0x037E [0x1F] MOVE_ENTITY: Update entity position (mode=1)
  9: 0x0380 [0x1F] MOVE_ENTITY: EventEntity moves to X=-56.954*, Z=53.463*, Y=-3.499*
 10: 0x0388 [0x1F] MOVE_ENTITY: Update entity position (mode=1)
 11: 0x038A [0x6F] WAIT_FRAME_DELAY: Yield until WaitTime reaches zero
 12: 0x038B [0x22] ENTITY_HIDE_FLAG(enabled=0x01)
 13: 0x038D [0x2F] EventEntity->Render.Flags0 |= 0x80000 // Bit 19
 14: 0x0393 [0x00] END_REQSTACK()
```

### Event 65535.15

#### Metadata

| Field        | Value    |
|--------------|----------|
| Entrypoint   | 0x0394   |
| Data Size    | 38 bytes |
| Instructions | 9        |

```
      00 01 02 03 04 05 06 07  08 09 0A 0B 0C 0D 0E 0F
      -- -- -- -- -- -- -- --  -- -- -- -- -- -- -- --
0390:             59 04 F8 FF  FF 7F 5D 80 1F 00 5E 80      Y.....]...^.
03A0: 5F 80 60 80 1F 01 1F 00  61 80 62 80 55 80 1F 01  _.`.....a.b.U...
03B0: 6F 22 01 2F 01 F8 FF FF  7F 00                    o"./......      
```

#### Opcodes

```
  0: 0x0394 [0x59] UPDATE_ENTITY_DATA: Set EventEntity main speed = 27* * 0.1
  1: 0x039C [0x1F] MOVE_ENTITY: EventEntity moves to X=-30.382*, Z=74.601*, Y=-3.574*
  2: 0x03A4 [0x1F] MOVE_ENTITY: Update entity position (mode=1)
  3: 0x03A6 [0x1F] MOVE_ENTITY: EventEntity moves to X=-54.461*, Z=69.456*, Y=-3.500*
  4: 0x03AE [0x1F] MOVE_ENTITY: Update entity position (mode=1)
  5: 0x03B0 [0x6F] WAIT_FRAME_DELAY: Yield until WaitTime reaches zero
  6: 0x03B1 [0x22] ENTITY_HIDE_FLAG(enabled=0x01)
  7: 0x03B3 [0x2F] EventEntity->Render.Flags0 |= 0x80000 // Bit 19
  8: 0x03B9 [0x00] END_REQSTACK()
```

### Event 65535.16

#### Metadata

| Field        | Value    |
|--------------|----------|
| Entrypoint   | 0x03BA   |
| Data Size    | 38 bytes |
| Instructions | 9        |

```
      00 01 02 03 04 05 06 07  08 09 0A 0B 0C 0D 0E 0F
      -- -- -- -- -- -- -- --  -- -- -- -- -- -- -- --
03B0:                                59 04 F8 FF FF 7F            Y.....
03C0: 5D 80 1F 00 63 80 64 80  65 80 1F 01 1F 00 66 80  ]...c.d.e.....f.
03D0: 67 80 55 80 1F 01 6F 22  01 2F 01 F8 FF FF 7F 00  g.U...o"./......
```

#### Opcodes

```
  0: 0x03BA [0x59] UPDATE_ENTITY_DATA: Set EventEntity main speed = 27* * 0.1
  1: 0x03C2 [0x1F] MOVE_ENTITY: EventEntity moves to X=-29.325*, Z=75.371*, Y=-3.529*
  2: 0x03CA [0x1F] MOVE_ENTITY: Update entity position (mode=1)
  3: 0x03CC [0x1F] MOVE_ENTITY: EventEntity moves to X=-53.209*, Z=70.575*, Y=-3.500*
  4: 0x03D4 [0x1F] MOVE_ENTITY: Update entity position (mode=1)
  5: 0x03D6 [0x6F] WAIT_FRAME_DELAY: Yield until WaitTime reaches zero
  6: 0x03D7 [0x22] ENTITY_HIDE_FLAG(enabled=0x01)
  7: 0x03D9 [0x2F] EventEntity->Render.Flags0 |= 0x80000 // Bit 19
  8: 0x03DF [0x00] END_REQSTACK()
```

### Event 65535.17

#### Metadata

| Field        | Value    |
|--------------|----------|
| Entrypoint   | 0x03E0   |
| Data Size    | 48 bytes |
| Instructions | 11       |

```
      00 01 02 03 04 05 06 07  08 09 0A 0B 0C 0D 0E 0F
      -- -- -- -- -- -- -- --  -- -- -- -- -- -- -- --
03E0: 59 04 F8 FF FF 7F 5D 80  1F 00 68 80 69 80 6A 80  Y.....]...h.i.j.
03F0: 1F 01 1F 00 6B 80 6C 80  55 80 1F 01 1F 00 6D 80  ....k.l.U.....m.
0400: 6E 80 55 80 1F 01 6F 22  01 2F 01 F8 FF FF 7F 00  n.U...o"./......
```

#### Opcodes

```
  0: 0x03E0 [0x59] UPDATE_ENTITY_DATA: Set EventEntity main speed = 27* * 0.1
  1: 0x03E8 [0x1F] MOVE_ENTITY: EventEntity moves to X=-27.766*, Z=73.600*, Y=-3.414*
  2: 0x03F0 [0x1F] MOVE_ENTITY: Update entity position (mode=1)
  3: 0x03F2 [0x1F] MOVE_ENTITY: EventEntity moves to X=-52.430*, Z=73.638*, Y=-3.500*
  4: 0x03FA [0x1F] MOVE_ENTITY: Update entity position (mode=1)
  5: 0x03FC [0x1F] MOVE_ENTITY: EventEntity moves to X=-54.193*, Z=72.044*, Y=-3.500*
  6: 0x0404 [0x1F] MOVE_ENTITY: Update entity position (mode=1)
  7: 0x0406 [0x6F] WAIT_FRAME_DELAY: Yield until WaitTime reaches zero
  8: 0x0407 [0x22] ENTITY_HIDE_FLAG(enabled=0x01)
  9: 0x0409 [0x2F] EventEntity->Render.Flags0 |= 0x80000 // Bit 19
 10: 0x040F [0x00] END_REQSTACK()
```

### Event 65535.18

#### Metadata

| Field        | Value    |
|--------------|----------|
| Entrypoint   | 0x0410   |
| Data Size    | 19 bytes |
| Instructions | 4        |

```
      00 01 02 03 04 05 06 07  08 09 0A 0B 0C 0D 0E 0F
      -- -- -- -- -- -- -- --  -- -- -- -- -- -- -- --
0410: 59 04 F8 FF FF 7F 6F 80  1F 00 70 80 71 80 1C 80  Y.....o...p.q...
0420: 1F 01 00                                          ...             
```

#### Opcodes

```
  0: 0x0410 [0x59] UPDATE_ENTITY_DATA: Set EventEntity main speed = 42* * 0.1
  1: 0x0418 [0x1F] MOVE_ENTITY: EventEntity moves to X=-22.678*, Z=81.353*, Y=-5.000*
  2: 0x0420 [0x1F] MOVE_ENTITY: Update entity position (mode=1)
  3: 0x0422 [0x00] END_REQSTACK()
```

### Event 65535.19

#### Metadata

| Field        | Value    |
|--------------|----------|
| Entrypoint   | 0x0423   |
| Data Size    | 22 bytes |
| Instructions | 5        |

```
      00 01 02 03 04 05 06 07  08 09 0A 0B 0C 0D 0E 0F
      -- -- -- -- -- -- -- --  -- -- -- -- -- -- -- --
0420:          59 04 F8 FF FF  7F 6F 80 1C 72 80 1F 00     Y.....o..r...
0430: 70 80 71 80 1C 80 1F 01  00                       p.q......       
```

#### Opcodes

```
  0: 0x0423 [0x59] UPDATE_ENTITY_DATA: Set EventEntity main speed = 42* * 0.1
  1: 0x042B [0x1C] WAIT(60* ticks)
  2: 0x042E [0x1F] MOVE_ENTITY: EventEntity moves to X=-22.678*, Z=81.353*, Y=-5.000*
  3: 0x0436 [0x1F] MOVE_ENTITY: Update entity position (mode=1)
  4: 0x0438 [0x00] END_REQSTACK()
```

### Event 65535.20

#### Metadata

| Field        | Value    |
|--------------|----------|
| Entrypoint   | 0x0439   |
| Data Size    | 22 bytes |
| Instructions | 5        |

```
      00 01 02 03 04 05 06 07  08 09 0A 0B 0C 0D 0E 0F
      -- -- -- -- -- -- -- --  -- -- -- -- -- -- -- --
0430:                             59 04 F8 FF FF 7F 6F           Y.....o
0440: 80 1C 73 80 1F 00 70 80  71 80 1C 80 1F 01 00     ..s...p.q...... 
```

#### Opcodes

```
  0: 0x0439 [0x59] UPDATE_ENTITY_DATA: Set EventEntity main speed = 42* * 0.1
  1: 0x0441 [0x1C] WAIT(120* ticks)
  2: 0x0444 [0x1F] MOVE_ENTITY: EventEntity moves to X=-22.678*, Z=81.353*, Y=-5.000*
  3: 0x044C [0x1F] MOVE_ENTITY: Update entity position (mode=1)
  4: 0x044E [0x00] END_REQSTACK()
```

### Event 65535.21

#### Metadata

| Field        | Value    |
|--------------|----------|
| Entrypoint   | 0x044F   |
| Data Size    | 13 bytes |
| Instructions | 5        |

```
      00 01 02 03 04 05 06 07  08 09 0A 0B 0C 0D 0E 0F
      -- -- -- -- -- -- -- --  -- -- -- -- -- -- -- --
0440:                                               06                 .
0450: 08 10 1C 74 80 1C 75 80  05 08 10 00              ...t..u.....    
```

#### Opcodes

```
  0: 0x044F [0x06] Work_Zone[8] = 0
  1: 0x0452 [0x1C] WAIT(600* ticks)
  2: 0x0455 [0x1C] WAIT(5* ticks)
  3: 0x0458 [0x05] Work_Zone[8] = 1
  4: 0x045B [0x00] END_REQSTACK()
```

### Event 65535.22

#### Metadata

| Field        | Value     |
|--------------|-----------|
| Entrypoint   | 0x045C    |
| Data Size    | 221 bytes |
| Instructions | 26        |

```
      00 01 02 03 04 05 06 07  08 09 0A 0B 0C 0D 0E 0F
      -- -- -- -- -- -- -- --  -- -- -- -- -- -- -- --
0450:                                      06 09 10 1C              ....
0460: 27 80 52 76 80 F0 FF FF  7F F0 FF FF 7F 79 30 34  '.Rv.........y04
0470: 32 45 76 80 1E E2 05 01  1E E2 05 01 79 30 34 35  2Ev.........y045
0480: 00 80 1C 77 80 52 76 80  1E E2 05 01 1E E2 05 01  ...w.Rv.........
0490: 79 30 34 35 45 76 80 F0  FF FF 7F F0 FF FF 7F 79  y045Ev.........y
04A0: 30 35 32 00 80 27 10 93  E2 05 01 0C 27 10 95 E2  052..'......'...
04B0: 05 01 0C BA 44 E2 05 01  78 80 79 80 11 80 7A 80  ....D...x.y...z.
04C0: BA 45 E2 05 01 78 80 79  80 11 80 7A 80 BA 46 E2  .E...x.y...z..F.
04D0: 05 01 78 80 79 80 11 80  7A 80 29 10 23 E2 05 01  ..x.y...z.).#...
04E0: 02 29 10 24 E2 05 01 02  79 00 28 E2 05 01 20 E2  .).$....y.(... .
04F0: 05 01 66 7B 80 28 E2 05  01 28 E2 05 01 74 6C 6B  ..f{.(...(...tlk
0500: 30 27 10 FE E2 05 01 0F  27 10 FF E2 05 01 10 27  0'......'......'
0510: 10 00 E3 05 01 11 1C 75  80 27 10 44 E2 05 01 13  .......u.'.D....
0520: 27 10 45 E2 05 01 15 27  10 46 E2 05 01 16 27 10  '.E....'.F....'.
0530: 11 E3 05 01 12 05 09 10  00                       .........       
```

#### Opcodes

```
  0: 0x045C [0x06] Work_Zone[9] = 0
  1: 0x045F [0x1C] WAIT(150* ticks)
  2: 0x0462 [0x52] END_LOAD_SCHEDULER: End scheduler "y042" with entities [LocalPlayer, LocalPlayer], work=533*
  3: 0x0471 [0x45] LOAD_SCHEDULED_TASK: Load scheduler "y045" with entities [02 (ID: 17162782/0x0105E21E), 02 (ID: 17162782/0x0105E21E)], work=[533*, 0*]
  4: 0x0482 [0x1C] WAIT(300* ticks)
  5: 0x0485 [0x52] END_LOAD_SCHEDULER: End scheduler "y045" with entities [02 (ID: 17162782/0x0105E21E), 02 (ID: 17162782/0x0105E21E)], work=533*
  6: 0x0494 [0x45] LOAD_SCHEDULED_TASK: Load scheduler "y052" with entities [LocalPlayer, LocalPlayer], work=[533*, 0*]
  7: 0x04A5 [0x27] REQ_SET(priority=0x10, entity_id=01 (ID: 17162899/0x0105E293), tag_num=0x0C)
  8: 0x04AC [0x27] REQ_SET(priority=0x10, entity_id=02 (ID: 17162901/0x0105E295), tag_num=0x0C)
  9: 0x04B3 [0xBA] SET_ENTITY_POSITION(entity_id=02 (ID: 17162820/0x0105E244), pos_x=-60.989*, pos_z=70.254*, pos_y=-3.499*, direction=359.7°*)
 10: 0x04C0 [0xBA] SET_ENTITY_POSITION(entity_id=03 (ID: 17162821/0x0105E245), pos_x=-60.989*, pos_z=70.254*, pos_y=-3.499*, direction=359.7°*)
 11: 0x04CD [0xBA] SET_ENTITY_POSITION(entity_id=04 (ID: 17162822/0x0105E246), pos_x=-60.989*, pos_z=70.254*, pos_y=-3.499*, direction=359.7°*)
 12: 0x04DA [0x29] REQ_SET_WAIT(priority=0x10, entity_id=07 (ID: 17162787/0x0105E223), tag_num=0x02)
 13: 0x04E1 [0x29] REQ_SET_WAIT(priority=0x10, entity_id=Unnamed NPC (ID: 17162788/0x0105E224), tag_num=0x02)
 14: 0x04E8 [0x79] Unnamed NPC (ID: 17162792/0x0105E228) looks at 04 (ID: 17162784/0x0105E220) (Basic look)
 15: 0x04F2 [0x66] LOAD_EXT_SCHEDULER_MAIN: Load scheduler "tlk0" with entities [Unnamed NPC (ID: 17162792/0x0105E228), Unnamed NPC (ID: 17162792/0x0105E228)], work=49*
 16: 0x0501 [0x27] REQ_SET(priority=0x10, entity_id=01 (ID: 17163006/0x0105E2FE), tag_num=0x0F)
 17: 0x0508 [0x27] REQ_SET(priority=0x10, entity_id=02 (ID: 17163007/0x0105E2FF), tag_num=0x10)
 18: 0x050F [0x27] REQ_SET(priority=0x10, entity_id=03 (ID: 17163008/0x0105E300), tag_num=0x11)
 19: 0x0516 [0x1C] WAIT(5* ticks)
 20: 0x0519 [0x27] REQ_SET(priority=0x10, entity_id=02 (ID: 17162820/0x0105E244), tag_num=0x13)
 21: 0x0520 [0x27] REQ_SET(priority=0x10, entity_id=03 (ID: 17162821/0x0105E245), tag_num=0x15)
 22: 0x0527 [0x27] REQ_SET(priority=0x10, entity_id=04 (ID: 17162822/0x0105E246), tag_num=0x16)
 23: 0x052E [0x27] REQ_SET(priority=0x10, entity_id=Unnamed NPC (ID: 17163025/0x0105E311), tag_num=0x12)
 24: 0x0535 [0x05] Work_Zone[9] = 1
 25: 0x0538 [0x00] END_REQSTACK()
```

### Event 65535.23

#### Metadata

| Field        | Value    |
|--------------|----------|
| Entrypoint   | 0x0539   |
| Data Size    | 76 bytes |
| Instructions | 8        |

```
      00 01 02 03 04 05 06 07  08 09 0A 0B 0C 0D 0E 0F
      -- -- -- -- -- -- -- --  -- -- -- -- -- -- -- --
0530:                             06 08 10 55 76 80 F0           ...Uv..
0540: FF FF 7F F0 FF FF 7F 79  30 35 32 52 76 80 F0 FF  .......y052Rv...
0550: FF 7F F0 FF FF 7F 79 30  35 32 27 10 1F E2 05 01  ......y052'.....
0560: 09 45 76 80 F0 FF FF 7F  F0 FF FF 7F 79 30 35 34  .Ev.........y054
0570: 00 80 05 08 10 55 76 80  F0 FF FF 7F F0 FF FF 7F  .....Uv.........
0580: 79 30 35 34 00                                    y054.           
```

#### Opcodes

```
  0: 0x0539 [0x06] Work_Zone[8] = 0
  1: 0x053C [0x55] WAIT_LOAD_SCHEDULER: Wait for scheduler "y052" with entities [LocalPlayer, LocalPlayer], work=533*
  2: 0x054B [0x52] END_LOAD_SCHEDULER: End scheduler "y052" with entities [LocalPlayer, LocalPlayer], work=533*
  3: 0x055A [0x27] REQ_SET(priority=0x10, entity_id=03 (ID: 17162783/0x0105E21F), tag_num=0x09)
  4: 0x0561 [0x45] LOAD_SCHEDULED_TASK: Load scheduler "y054" with entities [LocalPlayer, LocalPlayer], work=[533*, 0*]
  5: 0x0572 [0x05] Work_Zone[8] = 1
  6: 0x0575 [0x55] WAIT_LOAD_SCHEDULER: Wait for scheduler "y054" with entities [LocalPlayer, LocalPlayer], work=533*
  7: 0x0584 [0x00] END_REQSTACK()
```

### Event 65535.24

#### Metadata

| Field        | Value    |
|--------------|----------|
| Entrypoint   | 0x0585   |
| Data Size    | 49 bytes |
| Instructions | 5        |

```
      00 01 02 03 04 05 06 07  08 09 0A 0B 0C 0D 0E 0F
      -- -- -- -- -- -- -- --  -- -- -- -- -- -- -- --
0580:                7B 06 E2  05 01 5B 7C 80 06 E2 05       {....[|....
0590: 01 06 E2 05 01 6B 75 69  30 53 06 E2 05 01 06 E2  .....kui0S......
05A0: 05 01 6B 75 69 30 5B 7C  80 06 E2 05 01 06 E2 05  ..kui0[|........
05B0: 01 65 68 6E 30 00                                 .ehn0.          
```

#### Opcodes

```
  0: 0x0585 [0x7B] Ajido-Marujido (ID: 17162758/0x0105E206) stops talking
  1: 0x058A [0x5B] LOAD_EXT_SCHEDULER: Load scheduler "kui0" with entities [Ajido-Marujido (ID: 17162758/0x0105E206), Ajido-Marujido (ID: 17162758/0x0105E206)], work=1288*
  2: 0x0599 [0x53] WAIT_SCHEDULER_TASK: Wait for scheduler "kui0" with entities [Ajido-Marujido (ID: 17162758/0x0105E206), Ajido-Marujido (ID: 17162758/0x0105E206)]
  3: 0x05A6 [0x5B] LOAD_EXT_SCHEDULER: Load scheduler "ehn0" with entities [Ajido-Marujido (ID: 17162758/0x0105E206), Ajido-Marujido (ID: 17162758/0x0105E206)], work=1288*
  4: 0x05B5 [0x00] END_REQSTACK()
```

### Event 65535.25

#### Metadata

| Field        | Value    |
|--------------|----------|
| Entrypoint   | 0x05B6   |
| Data Size    | 29 bytes |
| Instructions | 6        |

```
      00 01 02 03 04 05 06 07  08 09 0A 0B 0C 0D 0E 0F
      -- -- -- -- -- -- -- --  -- -- -- -- -- -- -- --
05B0:                   59 04  F8 FF FF 7F 58 80 1F 00        Y.....X...
05C0: 7D 80 7E 80 08 80 1F 01  6F 4A 43 E2 05 01 06 E2  }.~.....oJC.....
05D0: 05 01 00                                          ...             
```

#### Opcodes

```
  0: 0x05B6 [0x59] UPDATE_ENTITY_DATA: Set EventEntity main speed = 40* * 0.1
  1: 0x05BE [0x1F] MOVE_ENTITY: EventEntity moves to X=-5.296*, Z=12.328*, Y=-1.000*
  2: 0x05C6 [0x1F] MOVE_ENTITY: Update entity position (mode=1)
  3: 0x05C8 [0x6F] WAIT_FRAME_DELAY: Yield until WaitTime reaches zero
  4: 0x05C9 [0x4A] 01 (ID: 17162819/0x0105E243) looks at Ajido-Marujido (ID: 17162758/0x0105E206)
  5: 0x05D2 [0x00] END_REQSTACK()
```

### Event 65535.26

#### Metadata

| Field        | Value    |
|--------------|----------|
| Entrypoint   | 0x05D3   |
| Data Size    | 49 bytes |
| Instructions | 7        |

```
      00 01 02 03 04 05 06 07  08 09 0A 0B 0C 0D 0E 0F
      -- -- -- -- -- -- -- --  -- -- -- -- -- -- -- --
05D0:          1C 7F 80 5B 7C  80 06 E2 05 01 06 E2 05     ...[|........
05E0: 01 65 68 6E 31 4A 06 E2  05 01 43 E2 05 01 6F 76  .ehn1J....C...ov
05F0: 06 E2 05 01 5B 80 80 06  E2 05 01 06 E2 05 01 73  ....[..........s
0600: 75 72 30 00                                       ur0.            
```

#### Opcodes

```
  0: 0x05D3 [0x1C] WAIT(160* ticks)
  1: 0x05D6 [0x5B] LOAD_EXT_SCHEDULER: Load scheduler "ehn1" with entities [Ajido-Marujido (ID: 17162758/0x0105E206), Ajido-Marujido (ID: 17162758/0x0105E206)], work=1288*
  2: 0x05E5 [0x4A] Ajido-Marujido (ID: 17162758/0x0105E206) looks at 01 (ID: 17162819/0x0105E243)
  3: 0x05EE [0x6F] WAIT_FRAME_DELAY: Yield until WaitTime reaches zero
  4: 0x05EF [0x76] CHECK_ENTITY_RENDER_FLAGS: Wait until Ajido-Marujido (ID: 17162758/0x0105E206) Render.Flags0 and Render.Flags3 conditions are met
  5: 0x05F4 [0x5B] LOAD_EXT_SCHEDULER: Load scheduler "sur0" with entities [Ajido-Marujido (ID: 17162758/0x0105E206), Ajido-Marujido (ID: 17162758/0x0105E206)], work=85*
  6: 0x0603 [0x00] END_REQSTACK()
```

### Event 65535.27

#### Metadata

| Field        | Value    |
|--------------|----------|
| Entrypoint   | 0x0604   |
| Data Size    | 20 bytes |
| Instructions | 5        |

```
      00 01 02 03 04 05 06 07  08 09 0A 0B 0C 0D 0E 0F
      -- -- -- -- -- -- -- --  -- -- -- -- -- -- -- --
0600:             59 04 F8 FF  FF 7F 81 80 1F 00 82 80      Y...........
0610: 83 80 08 80 1F 01 6F 00                           ......o.        
```

#### Opcodes

```
  0: 0x0604 [0x59] UPDATE_ENTITY_DATA: Set EventEntity main speed = 7* * 0.1
  1: 0x060C [0x1F] MOVE_ENTITY: EventEntity moves to X=-0.307*, Z=13.248*, Y=-1.000*
  2: 0x0614 [0x1F] MOVE_ENTITY: Update entity position (mode=1)
  3: 0x0616 [0x6F] WAIT_FRAME_DELAY: Yield until WaitTime reaches zero
  4: 0x0617 [0x00] END_REQSTACK()
```

### Event 65535.28

#### Metadata

| Field        | Value    |
|--------------|----------|
| Entrypoint   | 0x0618   |
| Data Size    | 47 bytes |
| Instructions | 6        |

```
      00 01 02 03 04 05 06 07  08 09 0A 0B 0C 0D 0E 0F
      -- -- -- -- -- -- -- --  -- -- -- -- -- -- -- --
0610:                          5B 80 80 06 E2 05 01 06          [.......
0620: E2 05 01 73 75 72 30 53  06 E2 05 01 06 E2 05 01  ...sur0S........
0630: 73 75 72 30 59 04 F8 FF  FF 7F 84 80 1F 00 85 80  sur0Y...........
0640: 86 80 45 80 1F 01 00                              ..E....         
```

#### Opcodes

```
  0: 0x0618 [0x5B] LOAD_EXT_SCHEDULER: Load scheduler "sur0" with entities [Ajido-Marujido (ID: 17162758/0x0105E206), Ajido-Marujido (ID: 17162758/0x0105E206)], work=85*
  1: 0x0627 [0x53] WAIT_SCHEDULER_TASK: Wait for scheduler "sur0" with entities [Ajido-Marujido (ID: 17162758/0x0105E206), Ajido-Marujido (ID: 17162758/0x0105E206)]
  2: 0x0634 [0x59] UPDATE_ENTITY_DATA: Set EventEntity main speed = 35* * 0.1
  3: 0x063C [0x1F] MOVE_ENTITY: EventEntity moves to X=-1.006*, Z=16.226*, Y=-0.999*
  4: 0x0644 [0x1F] MOVE_ENTITY: Update entity position (mode=1)
  5: 0x0646 [0x00] END_REQSTACK()
```

### Event 65535.29

#### Metadata

| Field        | Value    |
|--------------|----------|
| Entrypoint   | 0x0647   |
| Data Size    | 21 bytes |
| Instructions | 3        |

```
      00 01 02 03 04 05 06 07  08 09 0A 0B 0C 0D 0E 0F
      -- -- -- -- -- -- -- --  -- -- -- -- -- -- -- --
0640:                      1C  87 80 45 88 80 F0 FF FF         ...E.....
0650: 7F F0 FF FF 7F 62 6C 6F  6E 00 80 00              .....blon...    
```

#### Opcodes

```
  0: 0x0647 [0x1C] WAIT(75* ticks)
  1: 0x064A [0x45] LOAD_SCHEDULED_TASK: Load scheduler "blon" with entities [LocalPlayer, LocalPlayer], work=[201*, 0*]
  2: 0x065B [0x00] END_REQSTACK()
```

### Event 65535.30

#### Metadata

| Field        | Value     |
|--------------|-----------|
| Entrypoint   | 0x065C    |
| Data Size    | 161 bytes |
| Instructions | 17        |

```
      00 01 02 03 04 05 06 07  08 09 0A 0B 0C 0D 0E 0F
      -- -- -- -- -- -- -- --  -- -- -- -- -- -- -- --
0650:                                      59 04 F8 FF              Y...
0660: FF 7F 84 80 1F 00 89 80  8A 80 08 80 1F 01 6F BA  ..............o.
0670: F0 FF FF 7F 8B 80 8C 80  45 80 8D 80 1C 75 80 5B  ........E....u.[
0680: 8E 80 06 E2 05 01 06 E2  05 01 61 75 70 30 53 06  ..........aup0S.
0690: E2 05 01 06 E2 05 01 61  75 70 30 50 06 E2 05 01  .......aup0P....
06A0: 06 E2 05 01 61 75 70 30  5B 8F 80 43 E2 05 01 43  ....aup0[..C...C
06B0: E2 05 01 6A 74 30 30 5B  90 80 06 E2 05 01 06 E2  ...jt00[........
06C0: 05 01 6A 74 30 30 55 91  80 F0 FF FF 7F F0 FF FF  ..jt00U.........
06D0: 7F 79 31 32 31 27 10 43  E2 05 01 03 BA 06 E2 05  .y121'.C........
06E0: 01 89 80 8A 80 08 80 92  80 4A FF E1 05 01 06 E2  .........J......
06F0: 05 01 79 00 FF E1 05 01  06 E2 05 01 00           ..y..........   
```

#### Opcodes

```
  0: 0x065C [0x59] UPDATE_ENTITY_DATA: Set EventEntity main speed = 35* * 0.1
  1: 0x0664 [0x1F] MOVE_ENTITY: EventEntity moves to X=-1.058*, Z=17.433*, Y=-1.000*
  2: 0x066C [0x1F] MOVE_ENTITY: Update entity position (mode=1)
  3: 0x066E [0x6F] WAIT_FRAME_DELAY: Yield until WaitTime reaches zero
  4: 0x066F [0xBA] SET_ENTITY_POSITION(entity_id=LocalPlayer, pos_x=1.032*, pos_z=15.680*, pos_y=-0.999*, direction=220.0°*)
  5: 0x067C [0x1C] WAIT(5* ticks)
  6: 0x067F [0x5B] LOAD_EXT_SCHEDULER: Load scheduler "aup0" with entities [Ajido-Marujido (ID: 17162758/0x0105E206), Ajido-Marujido (ID: 17162758/0x0105E206)], work=1286*
  7: 0x068E [0x53] WAIT_SCHEDULER_TASK: Wait for scheduler "aup0" with entities [Ajido-Marujido (ID: 17162758/0x0105E206), Ajido-Marujido (ID: 17162758/0x0105E206)]
  8: 0x069B [0x50] END_SCHEDULER_TASK: End scheduler "au" with entities [0xE206, 0xE206], work=[261, 261]
  9: 0x06A8 [0x5B] LOAD_EXT_SCHEDULER: Load scheduler "jt00" with entities [01 (ID: 17162819/0x0105E243), 01 (ID: 17162819/0x0105E243)], work=181*
 10: 0x06B7 [0x5B] LOAD_EXT_SCHEDULER: Load scheduler "jt00" with entities [Ajido-Marujido (ID: 17162758/0x0105E206), Ajido-Marujido (ID: 17162758/0x0105E206)], work=86*
 11: 0x06C6 [0x55] WAIT_LOAD_SCHEDULER: Wait for scheduler "y121" with entities [LocalPlayer, LocalPlayer], work=393*
 12: 0x06D5 [0x27] REQ_SET(priority=0x10, entity_id=01 (ID: 17162819/0x0105E243), tag_num=0x03)
 13: 0x06DC [0xBA] SET_ENTITY_POSITION(entity_id=Ajido-Marujido (ID: 17162758/0x0105E206), pos_x=-1.058*, pos_z=17.433*, pos_y=-1.000*, direction=266.2°*)
 14: 0x06E9 [0x4A] Dhea Prandoleh (ID: 17162751/0x0105E1FF) looks at Ajido-Marujido (ID: 17162758/0x0105E206)
 15: 0x06F2 [0x79] Dhea Prandoleh (ID: 17162751/0x0105E1FF) looks at Ajido-Marujido (ID: 17162758/0x0105E206) (Basic look)
 16: 0x06FC [0x00] END_REQSTACK()
```

### Event 65535.31

#### Metadata

| Field        | Value    |
|--------------|----------|
| Entrypoint   | 0x06FD   |
| Data Size    | 20 bytes |
| Instructions | 5        |

```
      00 01 02 03 04 05 06 07  08 09 0A 0B 0C 0D 0E 0F
      -- -- -- -- -- -- -- --  -- -- -- -- -- -- -- --
06F0:                                         59 04 F8               Y..
0700: FF FF 7F 93 80 1F 00 94  80 95 80 96 80 1F 01 6F  ...............o
0710: 00                                                .               
```

#### Opcodes

```
  0: 0x06FD [0x59] UPDATE_ENTITY_DATA: Set EventEntity main speed = 36* * 0.1
  1: 0x0705 [0x1F] MOVE_ENTITY: EventEntity moves to X=-7.685*, Z=7.819*, Y=-1.026*
  2: 0x070D [0x1F] MOVE_ENTITY: Update entity position (mode=1)
  3: 0x070F [0x6F] WAIT_FRAME_DELAY: Yield until WaitTime reaches zero
  4: 0x0710 [0x00] END_REQSTACK()
```

### Event 20

#### Metadata

| Field        | Value   |
|--------------|---------|
| Entrypoint   | 0x0711  |
| Data Size    | 1 bytes |
| Instructions | 1       |

```
      00 01 02 03 04 05 06 07  08 09 0A 0B 0C 0D 0E 0F
      -- -- -- -- -- -- -- --  -- -- -- -- -- -- -- --
0710:    00                                              .              
```

#### Opcodes

```
  0: 0x0711 [0x00] END_REQSTACK()
```
