# 17162690 - Ponono

## Common Data

| Field            | Value                        |
|------------------|------------------------------|
| Zone             | Windurst Waters [S] (ID: 94) |
| Block Size       | 2384 bytes                   |
| Total Events     | 9                            |
| References Count | 68                           |

## List of Events

| Event ID              | Entrypoint   |   Size |   Instructions |
|-----------------------|--------------|--------|----------------|
| [65535](#event-65535) | 0x0000       |      1 |              1 |
| [191](#event-191)     | 0x0001       |    449 |             67 |
| [192](#event-192)     | 0x01C2       |    751 |            125 |
| [193](#event-193)     | 0x04B1       |     47 |             11 |
| [194](#event-194)     | 0x04E0       |     51 |             13 |
| [195](#event-195)     | 0x0513       |    124 |             27 |
| [196](#event-196)     | 0x058F       |    109 |             24 |
| [197](#event-197)     | 0x05FC       |    481 |             77 |
| [198](#event-198)     | 0x07DD       |     47 |             11 |

## DAT References (imed_data)

|   Index | Hex Value   |   Dec Value |
|---------|-------------|-------------|
|       0 | 0x00C8      |         200 |
|       1 | 0x0000      |           0 |
|       2 | 0x003C      |          60 |
|       3 | 0x0013      |          19 |
|       4 | 0x26267     |      156263 |
|       5 | 0xFFFFB98E  |  4294949262 |
|       6 | 0x03E7      |         999 |
|       7 | 0x0B9A      |        2970 |
|       8 | 0x0156      |         342 |
|       9 | 0x0028      |          40 |
|      10 | 0x1E18      |        7704 |
|      11 | 0x1E19      |        7705 |
|      12 | 0x00F0      |         240 |
|      13 | 0x1E1A      |        7706 |
|      14 | 0x1E1B      |        7707 |
|      15 | 0x1E1C      |        7708 |
|      16 | 0x0016      |          22 |
|      17 | 0x0020      |          32 |
|      18 | 0x1E1D      |        7709 |
|      19 | 0x1E1E      |        7710 |
|      20 | 0x1E1F      |        7711 |
|      21 | 0x0006      |           6 |
|      22 | 0x1E20      |        7712 |
|      23 | 0x0008      |           8 |
|      24 | 0x048B      |        1163 |
|      25 | 0x1E21      |        7713 |
|      26 | 0x1E22      |        7714 |
|      27 | 0x1E23      |        7715 |
|      28 | 0x1E24      |        7716 |
|      29 | 0x1E25      |        7717 |
|      30 | 0x1E26      |        7718 |
|      31 | 0x0001      |           1 |
|      32 | 0x0007      |           7 |
|      33 | 0x005A      |          90 |
|      34 | 0x1E27      |        7719 |
|      35 | 0x000D      |          13 |
|      36 | 0x1E28      |        7720 |
|      37 | 0x1E29      |        7721 |
|      38 | 0x048C      |        1164 |
|      39 | 0x1E2A      |        7722 |
|      40 | 0x048D      |        1165 |
|      41 | 0x1E2B      |        7723 |
|      42 | 0x048E      |        1166 |
|      43 | 0x1E2C      |        7724 |
|      44 | 0x1E2D      |        7725 |
|      45 | 0x1E2E      |        7726 |
|      46 | 0x1E2F      |        7727 |
|      47 | 0x1E30      |        7728 |
|      48 | 0x1E31      |        7729 |
|      49 | 0x1E32      |        7730 |
|      50 | 0x1E33      |        7731 |
|      51 | 0x1E36      |        7734 |
|      52 | 0x1E34      |        7732 |
|      53 | 0x1E35      |        7733 |
|      54 | 0x000B      |          11 |
|      55 | 0x1E37      |        7735 |
|      56 | 0x1E38      |        7736 |
|      57 | 0x1E39      |        7737 |
|      58 | 0x1E3A      |        7738 |
|      59 | 0x1E3B      |        7739 |
|      60 | 0x1E3C      |        7740 |
|      61 | 0x1E3D      |        7741 |
|      62 | 0x1E3E      |        7742 |
|      63 | 0x1E3F      |        7743 |
|      64 | 0x1E40      |        7744 |
|      65 | 0x1E41      |        7745 |
|      66 | 0x1E42      |        7746 |
|      67 | 0x00C9      |         201 |

## String References

- **7704**: My mercenary friend! All of Windurst is in your debtaru!
- **7705**: Here's a token for your troubles. You'll be wanting to takey-wake good care of it. Why, it's a Ponono original, after all!
- **7706**: Normally, you'd see lines of customers stretchy-wetching halfway across Sarutabaruta just to buy one of these. But with times being what they are, I'm handing them out free of charge to brave souls like you who toil to protectaru the Federation from the beastman menace. Don't you feel lucky?
- **7707**: Go on, take a closer look. Do you see the three threads so exquisitaruly entwined? Sometimes I can't help but admire my own crafty-waftsmanship!
- **7708**: It's my family's technique, handed down from ages pastaru. And believe it or not, it's enchantarued as well! As each thread unravels, mystic powers will be bestowed upon its wearer.
- **7709**: Hmm? What sortaru of powers, you ask?
- **7710**: Well, the first string is said to bestow "courage to stand against the most fearsome plightaru."
- **7711**: The second, "gentleness to soothy-woothe the deepest wound."
- **7712**: And the third... Well, you'll just have to see for yourself, won'taru you? Tee-hee-hee.
- **7713**: Oh, if it isn't my mercenary friend. How nice to see you sportaruing the $3 I gave you!
- **7714**: You must be quite the trendy-wendsetter, because ever since then I've had one soldier after the nextaru begging me for one of their own. In fact, I seem to have exhaustarued my entire stock! No, this simply won't do...
- **7715**: I still have my spools of thread, of course. But as they are, they're as good as useless! The thread must be steepy-weeped in three pools of mystic water, you see...
- **7716**: Alas! In more tranquil times, I would simply-wimply have gone myself. But now...no, the war-torn battlefield is no place for a delicate damsel such as I.
- **7717**: But you! You are a brave warrior, and guarded by the strength of my charm, to bootaru! Surely-wurely you could handle this minor task?
- **7718**: Lend Ponono your aid? [My pleasure!/Another time, perhaps.]
- **7719**: I see. Well, do come back if you have a changey-wange of heart...and soon! My would-be customers are growing desperataru...
- **7720**: Such a bravey-wave and kind soul, you are. I can see I entrustarued my charm to good hands!
- **7721**: The charm, as you see, is comprised of three intertwining threads...but that's not all. Each strand must be dippy-wipped in the mystic waters of one of three locations throughout the land to complete the enchantment. Only then can it be fashioned into the finished productaru you now hold in your hand.
- **7722**: The firsty-wirst is this $3. This must be imbued with the invigorating waters of the Knightwell in West Ronfaure.
- **7723**: Next, we have this $3. You see? This must be gently-wently dipped in the placid waters of the Fay Spring of Grauberg.
- **7724**: And finally, this $3. This requires an infusion of the most peculiar waters of Lake Tepokalipuka, which lies in East Sarutabaruta.
- **7725**: Each spooly-wool of thread has been prepared for enchantment using my family's secret magical recipe. When dipped in their respective waters, the strands will take on the most brilliantaru hues you've ever gazed upon!
- **7726**: Bring all three threads back to me in their altered states, and I'll be able to fashion-washion enough charms to outfitaru the entire Windurstian army!
- **7727**: And thataru should be all you need to know! So, do you feel up to the task?
- **7728**: Are you ready? [I surely-wurely am!/Whataru do I have to do again?]
- **7729**: Excellent! Here are the materials you'll need. Mind you, this is the very lastaru of my supply, so take care not to drop it in a ditchy-witch somewhere!
- **7730**: Mercenaries from across the Federation are banging on my doors day and nightaru to get their greedy-weedy hands on my charms. I'm counting on you!
- **7731**: You've returned! Well? Were you able to enchant the three spooly-wools of thread?
- **7732**: Hmm... This $3 and $3 haven't been enchantarued yet.
- **7733**: Hmm... This $3 hasn't been enchantarued yet.
- **7734**: Mercenaries from across the Federation are banging on my doors day and nightaru to get their greedy-weedy hands on my charms. Please! Go enchantaru the rest before they break out the battering ram!
- **7735**: Ah, yes! Look at how beautifully they shimmer! You've done it! I truly-wuly can't thank you enough.
- **7736**: Now I have enough thread to make charms for not only our valiantaru soldiers, but their families and loved ones as well!
- **7737**: Ah! What I wouldn'taru give to see the return of a peaceful age where the services of neither charms nor soldiers are needed any longer...
- **7738**: Sadly, I am but a humble-wumble artisan. There is little I can do except supportaru our cause in my own little way.
- **7739**: Oh, perhaps you're curious why the threads must be enchanted with the waters of those three particular mystic pools.
- **7740**: Do you remember our conversation about the magical properties of each thread? It would seem they holdy-wold the answer.
- **7741**: First, "courage to stand against the most fearsome plightaru." The waters of the Knightwell are said to have bestowed legendary valor upon brave warriors throughoutaru the course of history.
- **7742**: Secondly, "gentleness to soothy-woothe the deepest wound." The pixies of Grauberg are perhaps the gentlest beings of our world, and the tranquil-wanquil waters of their spring are said to provide transcendentaru peace of mind.
- **7743**: Lastly, the waters of Lake Tepokalipuka... In all honesty-wonesty, this one is a mystery even to me.
- **7744**: That's one part of our family lore that's been lostaru to the ages. In the old language, "Tepokalipuka" means "a ladle with a hole"... But to what could that possibly-wossibly refer?
- **7745**: Heavensy-weavens, look at me! What am I doing getting caughtaru up in a discussion of linguistics!? I have charms to craft, orders to fill!
- **7746**: In any eventaru, you have my eternal gratitude for your aid. Take this, and may it bring you the besty-west of fortune for years to come!

## Events

### Event 65535

#### Metadata

| Field        | Value   |
|--------------|---------|
| Entrypoint   | 0x0000  |
| Data Size    | 1 bytes |
| Instructions | 1       |

```
      00 01 02 03 04 05 06 07  08 09 0A 0B 0C 0D 0E 0F
      -- -- -- -- -- -- -- --  -- -- -- -- -- -- -- --
0000: 00                                                .               
```

#### Opcodes

```
  0: 0x0000 [0x00] END_REQSTACK()
```

### Event 191

#### Metadata

| Field        | Value     |
|--------------|-----------|
| Entrypoint   | 0x0001    |
| Data Size    | 449 bytes |
| Instructions | 67        |

```
      00 01 02 03 04 05 06 07  08 09 0A 0B 0C 0D 0E 0F
      -- -- -- -- -- -- -- --  -- -- -- -- -- -- -- --
0000:    42 20 01 46 01 45 00  80 F0 FF FF 7F F0 FF FF   B .F.E.........
0010: 7F 66 64 6F 31 01 80 1C  02 80 38 03 80 BA F0 FF  .fdo1.....8.....
0020: FF 7F 04 80 05 80 06 80  07 80 80 F0 FF FF 7F 80  ................
0030: C2 E1 05 01 80 4F E2 05  01 4E 00 F8 FF FF 7F 92  .....O...N......
0040: 01 C2 E1 05 01 1E F0 FF  FF 7F 6F 70 45 08 80 F0  ..........opE...
0050: FF FF 7F F0 FF FF 7F 35  36 30 31 01 80 45 00 80  .......5601..E..
0060: F0 FF FF 7F F0 FF FF 7F  66 64 69 31 01 80 1C 02  ........fdi1....
0070: 80 66 09 80 F8 FF FF 7F  F8 FF FF 7F 74 6C 6B 30  .f..........tlk0
0080: 1D 0A 80 23 1D 0B 80 23  66 09 80 F8 FF FF 7F F8  ...#...#f.......
0090: FF FF 7F 70 61 73 30 1C  0C 80 52 08 80 F0 FF FF  ...pas0...R.....
00A0: 7F F0 FF FF 7F 35 36 30  31 45 08 80 F0 FF FF 7F  .....5601E......
00B0: F0 FF FF 7F 35 36 30 32  01 80 66 09 80 F8 FF FF  ....5602..f.....
00C0: 7F F8 FF FF 7F 74 6C 6B  30 1D 0D 80 23 1D 0E 80  .....tlk0...#...
00D0: 23 1D 0F 80 23 66 09 80  F8 FF FF 7F F8 FF FF 7F  #...#f..........
00E0: 74 6C 6B 31 52 08 80 F0  FF FF 7F F0 FF FF 7F 35  tlk1R..........5
00F0: 36 30 32 45 08 80 F0 FF  FF 7F F0 FF FF 7F 35 36  602E..........56
0100: 30 33 01 80 6E F0 FF FF  7F 10 80 99 F0 FF FF 7F  03..n...........
0110: 1C 02 80 99 F0 FF FF 7F  6E C2 E1 05 01 11 80 99  ........n.......
0120: C2 E1 05 01 1D 12 80 23  99 C2 E1 05 01 52 08 80  .......#.....R..
0130: F0 FF FF 7F F0 FF FF 7F  35 36 30 33 45 08 80 F0  ........5603E...
0140: FF FF 7F F0 FF FF 7F 35  36 30 34 01 80 66 09 80  .......5604..f..
0150: F8 FF FF 7F F8 FF FF 7F  74 6C 6B 30 1D 13 80 23  ........tlk0...#
0160: 1D 14 80 23 66 09 80 F8  FF FF 7F F8 FF FF 7F 74  ...#f..........t
0170: 6C 6B 31 6E C2 E1 05 01  15 80 99 C2 E1 05 01 1D  lk1n............
0180: 16 80 23 99 C2 E1 05 01  45 00 80 F0 FF FF 7F F0  ..#.....E.......
0190: FF FF 7F 66 64 6F 31 01  80 1C 02 80 52 08 80 F0  ...fdo1.....R...
01A0: FF FF 7F F0 FF FF 7F 35  36 30 34 46 00 45 00 80  .......5604F.E..
01B0: F0 FF FF 7F F0 FF FF 7F  66 64 69 31 01 80 20 00  ........fdi1.. .
01C0: 21 00                                             !.              
```

#### Opcodes

```
  0: 0x0001 [0x42] SET_CLI_EVENT_CANCEL_DATA()
  1: 0x0002 [0x20] SET_CLI_EVENT_UC_FLAG: Lock player control
  2: 0x0004 [0x46] CAMERA_CONTROL: Disable user control
  3: 0x0006 [0x45] LOAD_SCHEDULED_TASK: Load scheduler "fdo1" with entities [LocalPlayer, LocalPlayer], work=[200*, 0*]
  4: 0x0017 [0x1C] WAIT(60* ticks)
  5: 0x001A [0x38] SET_CLIENT_EVENT_MODE(mode=19*)
  6: 0x001D [0xBA] SET_ENTITY_POSITION(entity_id=LocalPlayer, pos_x=156.263*, pos_z=-18.034*, pos_y=0.999*, direction=261.0°*)
  7: 0x002A [0x80] LOAD_WAIT(entity=LocalPlayer)
  8: 0x002F [0x80] LOAD_WAIT(entity=Ponono (ID: 17162690/0x0105E1C2))
  9: 0x0034 [0x80] LOAD_WAIT(entity=Yassi-Possi (ID: 17162831/0x0105E24F))
 10: 0x0039 [0x4E] SET_ENTITY_HIDE_FLAG: Show EventEntity
 11: 0x003F [0x92] Ponono (ID: 17162690/0x0105E1C2)->Render.Flags3 ^= 0x01
 12: 0x0045 [0x1E] EventEntity looks at LocalPlayer and starts talking
 13: 0x004A [0x6F] WAIT_FRAME_DELAY: Yield until WaitTime reaches zero
 14: 0x004B [0x70] WAIT_ENTITY_RENDER_FLAG: Wait while EventEntity->Render.Flags3 bit 2 is set (cancel turn if not)
 15: 0x004C [0x45] LOAD_SCHEDULED_TASK: Load scheduler "5601" with entities [LocalPlayer, LocalPlayer], work=[342*, 0*]
 16: 0x005D [0x45] LOAD_SCHEDULED_TASK: Load scheduler "fdi1" with entities [LocalPlayer, LocalPlayer], work=[200*, 0*]
 17: 0x006E [0x1C] WAIT(60* ticks)
 18: 0x0071 [0x66] LOAD_EXT_SCHEDULER_MAIN: Load scheduler "tlk0" with entities [EventEntity, EventEntity], work=40*
 19: 0x0080 [0x1D] PRINT_EVENT_MESSAGE(message_id=7704*)
    → "My mercenary friend! All of Windurst is in your debtaru!"
 20: 0x0083 [0x23] WAIT_FOR_DIALOG_INTERACTION
 21: 0x0084 [0x1D] PRINT_EVENT_MESSAGE(message_id=7705*)
    → "Here's a token for your troubles. You'll be wanting to takey-wake good care of it. Why, it's a Ponono original, after all!"
 22: 0x0087 [0x23] WAIT_FOR_DIALOG_INTERACTION
 23: 0x0088 [0x66] LOAD_EXT_SCHEDULER_MAIN: Load scheduler "pas0" with entities [EventEntity, EventEntity], work=40*
 24: 0x0097 [0x1C] WAIT(240* ticks)
 25: 0x009A [0x52] END_LOAD_SCHEDULER: End scheduler "5601" with entities [LocalPlayer, LocalPlayer], work=342*
 26: 0x00A9 [0x45] LOAD_SCHEDULED_TASK: Load scheduler "5602" with entities [LocalPlayer, LocalPlayer], work=[342*, 0*]
 27: 0x00BA [0x66] LOAD_EXT_SCHEDULER_MAIN: Load scheduler "tlk0" with entities [EventEntity, EventEntity], work=40*
 28: 0x00C9 [0x1D] PRINT_EVENT_MESSAGE(message_id=7706*)
    → "Normally, you'd see lines of customers stretchy-wetching halfway across Sarutabaruta just to buy one of these. But with times being what they are, I'm handing them out free of charge to brave souls like you who toil to protectaru the Federation from the beastman menace. Don't you feel lucky?"
 29: 0x00CC [0x23] WAIT_FOR_DIALOG_INTERACTION
 30: 0x00CD [0x1D] PRINT_EVENT_MESSAGE(message_id=7707*)
    → "Go on, take a closer look. Do you see the three threads so exquisitaruly entwined? Sometimes I can't help but admire my own crafty-waftsmanship!"
 31: 0x00D0 [0x23] WAIT_FOR_DIALOG_INTERACTION
 32: 0x00D1 [0x1D] PRINT_EVENT_MESSAGE(message_id=7708*)
    → "It's my family's technique, handed down from ages pastaru. And believe it or not, it's enchantarued as well! As each thread unravels, mystic powers will be bestowed upon its wearer."
 33: 0x00D4 [0x23] WAIT_FOR_DIALOG_INTERACTION
 34: 0x00D5 [0x66] LOAD_EXT_SCHEDULER_MAIN: Load scheduler "tlk1" with entities [EventEntity, EventEntity], work=40*
 35: 0x00E4 [0x52] END_LOAD_SCHEDULER: End scheduler "5602" with entities [LocalPlayer, LocalPlayer], work=342*
 36: 0x00F3 [0x45] LOAD_SCHEDULED_TASK: Load scheduler "5603" with entities [LocalPlayer, LocalPlayer], work=[342*, 0*]
 37: 0x0104 [0x6E] LocalPlayer uses emote 22*
 38: 0x010B [0x99] Wait for LocalPlayer animation to complete
 39: 0x0110 [0x1C] WAIT(60* ticks)
 40: 0x0113 [0x99] Wait for LocalPlayer animation to complete
 41: 0x0118 [0x6E] Ponono (ID: 17162690/0x0105E1C2) uses emote 32*
 42: 0x011F [0x99] Wait for Ponono (ID: 17162690/0x0105E1C2) animation to complete
 43: 0x0124 [0x1D] PRINT_EVENT_MESSAGE(message_id=7709*)
    → "Hmm? What sortaru of powers, you ask?"
 44: 0x0127 [0x23] WAIT_FOR_DIALOG_INTERACTION
 45: 0x0128 [0x99] Wait for Ponono (ID: 17162690/0x0105E1C2) animation to complete
 46: 0x012D [0x52] END_LOAD_SCHEDULER: End scheduler "5603" with entities [LocalPlayer, LocalPlayer], work=342*
 47: 0x013C [0x45] LOAD_SCHEDULED_TASK: Load scheduler "5604" with entities [LocalPlayer, LocalPlayer], work=[342*, 0*]
 48: 0x014D [0x66] LOAD_EXT_SCHEDULER_MAIN: Load scheduler "tlk0" with entities [EventEntity, EventEntity], work=40*
 49: 0x015C [0x1D] PRINT_EVENT_MESSAGE(message_id=7710*)
    → "Well, the first string is said to bestow "courage to stand against the most fearsome plightaru.""
 50: 0x015F [0x23] WAIT_FOR_DIALOG_INTERACTION
 51: 0x0160 [0x1D] PRINT_EVENT_MESSAGE(message_id=7711*)
    → "The second, "gentleness to soothy-woothe the deepest wound.""
 52: 0x0163 [0x23] WAIT_FOR_DIALOG_INTERACTION
 53: 0x0164 [0x66] LOAD_EXT_SCHEDULER_MAIN: Load scheduler "tlk1" with entities [EventEntity, EventEntity], work=40*
 54: 0x0173 [0x6E] Ponono (ID: 17162690/0x0105E1C2) uses emote 6*
 55: 0x017A [0x99] Wait for Ponono (ID: 17162690/0x0105E1C2) animation to complete
 56: 0x017F [0x1D] PRINT_EVENT_MESSAGE(message_id=7712*)
    → "And the third... Well, you'll just have to see for yourself, won'taru you? Tee-hee-hee."
 57: 0x0182 [0x23] WAIT_FOR_DIALOG_INTERACTION
 58: 0x0183 [0x99] Wait for Ponono (ID: 17162690/0x0105E1C2) animation to complete
 59: 0x0188 [0x45] LOAD_SCHEDULED_TASK: Load scheduler "fdo1" with entities [LocalPlayer, LocalPlayer], work=[200*, 0*]
 60: 0x0199 [0x1C] WAIT(60* ticks)
 61: 0x019C [0x52] END_LOAD_SCHEDULER: End scheduler "5604" with entities [LocalPlayer, LocalPlayer], work=342*
 62: 0x01AB [0x46] CAMERA_CONTROL: Restore default settings
 63: 0x01AD [0x45] LOAD_SCHEDULED_TASK: Load scheduler "fdi1" with entities [LocalPlayer, LocalPlayer], work=[200*, 0*]
 64: 0x01BE [0x20] SET_CLI_EVENT_UC_FLAG: Unlock player control
 65: 0x01C0 [0x21] END_EVENT
 66: 0x01C1 [0x00] END_REQSTACK()
```

### Event 192

#### Metadata

| Field        | Value     |
|--------------|-----------|
| Entrypoint   | 0x01C2    |
| Data Size    | 751 bytes |
| Instructions | 100       |

```
      00 01 02 03 04 05 06 07  08 09 0A 0B 0C 0D 0E 0F
      -- -- -- -- -- -- -- --  -- -- -- -- -- -- -- --
01C0:       42 20 01 46 01 45  00 80 F0 FF FF 7F F0 FF    B .F.E........
01D0: FF 7F 66 64 6F 31 01 80  1C 02 80 38 03 80 BA F0  ..fdo1.....8....
01E0: FF FF 7F 04 80 05 80 06  80 07 80 80 F0 FF FF 7F  ................
01F0: 80 C2 E1 05 01 80 4F E2  05 01 4E 00 F8 FF FF 7F  ......O...N.....
0200: 92 01 C2 E1 05 01 1E F0  FF FF 7F 6F 70 45 08 80  ...........opE..
0210: F0 FF FF 7F F0 FF FF 7F  35 36 30 39 01 80 45 00  ........5609..E.
0220: 80 F0 FF FF 7F F0 FF FF  7F 66 64 69 31 01 80 1C  .........fdi1...
0230: 02 80 6E C2 E1 05 01 17  80 99 C2 E1 05 01 99 C2  ..n.............
0240: E1 05 01 03 02 10 18 80  1D 19 80 23 52 08 80 F0  ...........#R...
0250: FF FF 7F F0 FF FF 7F 35  36 30 39 45 08 80 F0 FF  .......5609E....
0260: FF 7F F0 FF FF 7F 35 36  31 30 01 80 66 09 80 F8  ......5610..f...
0270: FF FF 7F F8 FF FF 7F 74  6C 6B 30 1D 1A 80 23 1D  .......tlk0...#.
0280: 1B 80 23 1D 1C 80 23 52  08 80 F0 FF FF 7F F0 FF  ..#...#R........
0290: FF 7F 35 36 31 30 45 08  80 F0 FF FF 7F F0 FF FF  ..5610E.........
02A0: 7F 35 36 31 31 01 80 1D  1D 80 23 24 1E 80 01 80  .5611.....#$....
02B0: 01 80 25 02 00 10 01 80  00 DA 02 03 01 10 1F 80  ..%.............
02C0: 6E F0 FF FF 7F 20 80 99  F0 FF FF 7F 99 F0 FF FF  n.... ..........
02D0: 7F 1C 21 80 01 31 03 01  31 03 02 00 10 1F 80 00  ..!..1..1.......
02E0: 31 03 6E F0 FF FF 7F 15  80 99 F0 FF FF 7F 99 F0  1.n.............
02F0: FF FF 7F 1C 21 80 52 08  80 F0 FF FF 7F F0 FF FF  ....!.R.........
0300: 7F 35 36 31 31 45 08 80  F0 FF FF 7F F0 FF FF 7F  .5611E..........
0310: 35 36 31 32 01 80 6E C2  E1 05 01 03 80 99 C2 E1  5612..n.........
0320: 05 01 99 C2 E1 05 01 1D  22 80 23 01 77 04 01 31  ........".#.w..1
0330: 03 6E C2 E1 05 01 23 80  99 C2 E1 05 01 99 C2 E1  .n....#.........
0340: 05 01 1D 24 80 23 52 08  80 F0 FF FF 7F F0 FF FF  ...$.#R.........
0350: 7F 35 36 31 31 45 08 80  F0 FF FF 7F F0 FF FF 7F  .5611E..........
0360: 35 36 31 32 01 80 66 09  80 F8 FF FF 7F F8 FF FF  5612..f.........
0370: 7F 74 6C 6B 30 1D 25 80  23 03 02 10 26 80 1D 27  .tlk0.%.#...&..'
0380: 80 23 03 02 10 28 80 1D  29 80 23 03 02 10 2A 80  .#...(..).#...*.
0390: 1D 2B 80 23 1D 2C 80 23  1D 2D 80 23 52 08 80 F0  .+.#.,.#.-.#R...
03A0: FF FF 7F F0 FF FF 7F 35  36 31 32 45 08 80 F0 FF  .......5612E....
03B0: FF 7F F0 FF FF 7F 35 36  31 33 01 80 1D 2E 80 23  ......5613.....#
03C0: 24 2F 80 01 80 01 80 25  02 00 10 01 80 00 EA 03  $/.....%........
03D0: 6E F0 FF FF 7F 20 80 99  F0 FF FF 7F 99 F0 FF FF  n.... ..........
03E0: 7F 1C 21 80 01 2C 04 01  2C 04 02 00 10 1F 80 00  ..!..,..,.......
03F0: 2C 04 6E F0 FF FF 7F 15  80 99 F0 FF FF 7F 99 F0  ,.n.............
0400: FF FF 7F 1C 21 80 52 08  80 F0 FF FF 7F F0 FF FF  ....!.R.........
0410: 7F 35 36 31 33 45 08 80  F0 FF FF 7F F0 FF FF 7F  .5613E..........
0420: 35 36 31 32 01 80 01 66  03 01 2C 04 52 08 80 F0  5612...f..,.R...
0430: FF FF 7F F0 FF FF 7F 35  36 31 33 45 08 80 F0 FF  .......5613E....
0440: FF 7F F0 FF FF 7F 35 36  31 34 01 80 1D 30 80 23  ......5614...0.#
0450: 66 09 80 F8 FF FF 7F F8  FF FF 7F 70 61 73 30 1C  f..........pas0.
0460: 0C 80 6E C2 E1 05 01 1F  80 99 C2 E1 05 01 99 C2  ..n.............
0470: E1 05 01 1D 31 80 23 45  00 80 F0 FF FF 7F F0 FF  ....1.#E........
0480: FF 7F 66 64 6F 31 01 80  1C 02 80 52 08 80 F0 FF  ..fdo1.....R....
0490: FF 7F F0 FF FF 7F 35 36  31 34 46 00 45 00 80 F0  ......5614F.E...
04A0: FF FF 7F F0 FF FF 7F 66  64 69 31 01 80 20 00 21  .......fdi1.. .!
04B0: 00                                                .               
```

#### Opcodes

```
  0: 0x01C2 [0x42] SET_CLI_EVENT_CANCEL_DATA()
  1: 0x01C3 [0x20] SET_CLI_EVENT_UC_FLAG: Lock player control
  2: 0x01C5 [0x46] CAMERA_CONTROL: Disable user control
  3: 0x01C7 [0x45] LOAD_SCHEDULED_TASK: Load scheduler "fdo1" with entities [LocalPlayer, LocalPlayer], work=[200*, 0*]
  4: 0x01D8 [0x1C] WAIT(60* ticks)
  5: 0x01DB [0x38] SET_CLIENT_EVENT_MODE(mode=19*)
  6: 0x01DE [0xBA] SET_ENTITY_POSITION(entity_id=LocalPlayer, pos_x=156.263*, pos_z=-18.034*, pos_y=0.999*, direction=261.0°*)
  7: 0x01EB [0x80] LOAD_WAIT(entity=LocalPlayer)
  8: 0x01F0 [0x80] LOAD_WAIT(entity=Ponono (ID: 17162690/0x0105E1C2))
  9: 0x01F5 [0x80] LOAD_WAIT(entity=Yassi-Possi (ID: 17162831/0x0105E24F))
 10: 0x01FA [0x4E] SET_ENTITY_HIDE_FLAG: Show EventEntity
 11: 0x0200 [0x92] Ponono (ID: 17162690/0x0105E1C2)->Render.Flags3 ^= 0x01
 12: 0x0206 [0x1E] EventEntity looks at LocalPlayer and starts talking
 13: 0x020B [0x6F] WAIT_FRAME_DELAY: Yield until WaitTime reaches zero
 14: 0x020C [0x70] WAIT_ENTITY_RENDER_FLAG: Wait while EventEntity->Render.Flags3 bit 2 is set (cancel turn if not)
 15: 0x020D [0x45] LOAD_SCHEDULED_TASK: Load scheduler "5609" with entities [LocalPlayer, LocalPlayer], work=[342*, 0*]
 16: 0x021E [0x45] LOAD_SCHEDULED_TASK: Load scheduler "fdi1" with entities [LocalPlayer, LocalPlayer], work=[200*, 0*]
 17: 0x022F [0x1C] WAIT(60* ticks)
 18: 0x0232 [0x6E] Ponono (ID: 17162690/0x0105E1C2) uses emote 8*
 19: 0x0239 [0x99] Wait for Ponono (ID: 17162690/0x0105E1C2) animation to complete
 20: 0x023E [0x99] Wait for Ponono (ID: 17162690/0x0105E1C2) animation to complete
 21: 0x0243 [0x03] Work_Zone[2] = 1163*
 22: 0x0248 [0x1D] PRINT_EVENT_MESSAGE(message_id=7713*)
    → "Oh, if it isn't my mercenary friend. How nice to see you sportaruing the $3 I gave you!"
 23: 0x024B [0x23] WAIT_FOR_DIALOG_INTERACTION
 24: 0x024C [0x52] END_LOAD_SCHEDULER: End scheduler "5609" with entities [LocalPlayer, LocalPlayer], work=342*
 25: 0x025B [0x45] LOAD_SCHEDULED_TASK: Load scheduler "5610" with entities [LocalPlayer, LocalPlayer], work=[342*, 0*]
 26: 0x026C [0x66] LOAD_EXT_SCHEDULER_MAIN: Load scheduler "tlk0" with entities [EventEntity, EventEntity], work=40*
 27: 0x027B [0x1D] PRINT_EVENT_MESSAGE(message_id=7714*)
    → "You must be quite the trendy-wendsetter, because ever since then I've had one soldier after the nextaru begging me for one of their own. In fact, I seem to have exhaustarued my entire stock! No, this simply won't do..."
 28: 0x027E [0x23] WAIT_FOR_DIALOG_INTERACTION
 29: 0x027F [0x1D] PRINT_EVENT_MESSAGE(message_id=7715*)
    → "I still have my spools of thread, of course. But as they are, they're as good as useless! The thread must be steepy-weeped in three pools of mystic water, you see..."
 30: 0x0282 [0x23] WAIT_FOR_DIALOG_INTERACTION
 31: 0x0283 [0x1D] PRINT_EVENT_MESSAGE(message_id=7716*)
    → "Alas! In more tranquil times, I would simply-wimply have gone myself. But now...no, the war-torn battlefield is no place for a delicate damsel such as I."
 32: 0x0286 [0x23] WAIT_FOR_DIALOG_INTERACTION
 33: 0x0287 [0x52] END_LOAD_SCHEDULER: End scheduler "5610" with entities [LocalPlayer, LocalPlayer], work=342*
 34: 0x0296 [0x45] LOAD_SCHEDULED_TASK: Load scheduler "5611" with entities [LocalPlayer, LocalPlayer], work=[342*, 0*]
 35: 0x02A7 [0x1D] PRINT_EVENT_MESSAGE(message_id=7717*)
    → "But you! You are a brave warrior, and guarded by the strength of my charm, to bootaru! Surely-wurely you could handle this minor task?"
 36: 0x02AA [0x23] WAIT_FOR_DIALOG_INTERACTION
 37: 0x02AB [0x24] CREATE_DIALOG(message_id=7718*, default_option=0*, option_flags=0*)
    → "Lend Ponono your aid? [My pleasure!/Another time, perhaps.]"
 38: 0x02B2 [0x25] WAIT_DIALOG_SELECT()
 39: 0x02B3 [0x02] IF !(Work_Zone[0] == 0*) GOTO 0x02DA
 40: 0x02BB [0x03] Work_Zone[1] = 1*
 41: 0x02C0 [0x6E] LocalPlayer uses emote 7*
 42: 0x02C7 [0x99] Wait for LocalPlayer animation to complete
 43: 0x02CC [0x99] Wait for LocalPlayer animation to complete
 44: 0x02D1 [0x1C] WAIT(90* ticks)
 45: 0x02D4 [0x01] GOTO 0x0331

SUBROUTINE_0331:
 46: 0x0331 [0x6E] Ponono (ID: 17162690/0x0105E1C2) uses emote 13*
 47: 0x0338 [0x99] Wait for Ponono (ID: 17162690/0x0105E1C2) animation to complete
 48: 0x033D [0x99] Wait for Ponono (ID: 17162690/0x0105E1C2) animation to complete
 49: 0x0342 [0x1D] PRINT_EVENT_MESSAGE(message_id=7720*)
    → "Such a bravey-wave and kind soul, you are. I can see I entrustarued my charm to good hands!"
 50: 0x0345 [0x23] WAIT_FOR_DIALOG_INTERACTION
 51: 0x0346 [0x52] END_LOAD_SCHEDULER: End scheduler "5611" with entities [LocalPlayer, LocalPlayer], work=342*
 52: 0x0355 [0x45] LOAD_SCHEDULED_TASK: Load scheduler "5612" with entities [LocalPlayer, LocalPlayer], work=[342*, 0*]

SUBROUTINE_0366:
 53: 0x0366 [0x66] LOAD_EXT_SCHEDULER_MAIN: Load scheduler "tlk0" with entities [EventEntity, EventEntity], work=40*
 54: 0x0375 [0x1D] PRINT_EVENT_MESSAGE(message_id=7721*)
    → "The charm, as you see, is comprised of three intertwining threads...but that's not all. Each strand must be dippy-wipped in the mystic waters of one of three locations throughout the land to complete the enchantment. Only then can it be fashioned into the finished productaru you now hold in your hand."
 55: 0x0378 [0x23] WAIT_FOR_DIALOG_INTERACTION
 56: 0x0379 [0x03] Work_Zone[2] = 1164*
 57: 0x037E [0x1D] PRINT_EVENT_MESSAGE(message_id=7722*)
    → "The firsty-wirst is this $3. This must be imbued with the invigorating waters of the Knightwell in West Ronfaure."
 58: 0x0381 [0x23] WAIT_FOR_DIALOG_INTERACTION
 59: 0x0382 [0x03] Work_Zone[2] = 1165*
 60: 0x0387 [0x1D] PRINT_EVENT_MESSAGE(message_id=7723*)
    → "Next, we have this $3. You see? This must be gently-wently dipped in the placid waters of the Fay Spring of Grauberg."
 61: 0x038A [0x23] WAIT_FOR_DIALOG_INTERACTION
 62: 0x038B [0x03] Work_Zone[2] = 1166*
 63: 0x0390 [0x1D] PRINT_EVENT_MESSAGE(message_id=7724*)
    → "And finally, this $3. This requires an infusion of the most peculiar waters of Lake Tepokalipuka, which lies in East Sarutabaruta."
 64: 0x0393 [0x23] WAIT_FOR_DIALOG_INTERACTION
 65: 0x0394 [0x1D] PRINT_EVENT_MESSAGE(message_id=7725*)
    → "Each spooly-wool of thread has been prepared for enchantment using my family's secret magical recipe. When dipped in their respective waters, the strands will take on the most brilliantaru hues you've ever gazed upon!"
 66: 0x0397 [0x23] WAIT_FOR_DIALOG_INTERACTION
 67: 0x0398 [0x1D] PRINT_EVENT_MESSAGE(message_id=7726*)
    → "Bring all three threads back to me in their altered states, and I'll be able to fashion-washion enough charms to outfitaru the entire Windurstian army!"
 68: 0x039B [0x23] WAIT_FOR_DIALOG_INTERACTION
 69: 0x039C [0x52] END_LOAD_SCHEDULER: End scheduler "5612" with entities [LocalPlayer, LocalPlayer], work=342*
 70: 0x03AB [0x45] LOAD_SCHEDULED_TASK: Load scheduler "5613" with entities [LocalPlayer, LocalPlayer], work=[342*, 0*]
 71: 0x03BC [0x1D] PRINT_EVENT_MESSAGE(message_id=7727*)
    → "And thataru should be all you need to know! So, do you feel up to the task?"
 72: 0x03BF [0x23] WAIT_FOR_DIALOG_INTERACTION
 73: 0x03C0 [0x24] CREATE_DIALOG(message_id=7728*, default_option=0*, option_flags=0*)
    → "Are you ready? [I surely-wurely am!/Whataru do I have to do again?]"
 74: 0x03C7 [0x25] WAIT_DIALOG_SELECT()
 75: 0x03C8 [0x02] IF !(Work_Zone[0] == 0*) GOTO 0x03EA
 76: 0x03D0 [0x6E] LocalPlayer uses emote 7*
 77: 0x03D7 [0x99] Wait for LocalPlayer animation to complete
 78: 0x03DC [0x99] Wait for LocalPlayer animation to complete
 79: 0x03E1 [0x1C] WAIT(90* ticks)
 80: 0x03E4 [0x01] GOTO 0x042C

SUBROUTINE_042C:
 81: 0x042C [0x52] END_LOAD_SCHEDULER: End scheduler "5613" with entities [LocalPlayer, LocalPlayer], work=342*
 82: 0x043B [0x45] LOAD_SCHEDULED_TASK: Load scheduler "5614" with entities [LocalPlayer, LocalPlayer], work=[342*, 0*]
 83: 0x044C [0x1D] PRINT_EVENT_MESSAGE(message_id=7729*)
    → "Excellent! Here are the materials you'll need. Mind you, this is the very lastaru of my supply, so take care not to drop it in a ditchy-witch somewhere!"
 84: 0x044F [0x23] WAIT_FOR_DIALOG_INTERACTION
 85: 0x0450 [0x66] LOAD_EXT_SCHEDULER_MAIN: Load scheduler "pas0" with entities [EventEntity, EventEntity], work=40*
 86: 0x045F [0x1C] WAIT(240* ticks)
 87: 0x0462 [0x6E] Ponono (ID: 17162690/0x0105E1C2) uses emote 1*
 88: 0x0469 [0x99] Wait for Ponono (ID: 17162690/0x0105E1C2) animation to complete
 89: 0x046E [0x99] Wait for Ponono (ID: 17162690/0x0105E1C2) animation to complete
 90: 0x0473 [0x1D] PRINT_EVENT_MESSAGE(message_id=7730*)
    → "Mercenaries from across the Federation are banging on my doors day and nightaru to get their greedy-weedy hands on my charms. I'm counting on you!"
 91: 0x0476 [0x23] WAIT_FOR_DIALOG_INTERACTION

SUBROUTINE_0477:
 92: 0x0477 [0x45] LOAD_SCHEDULED_TASK: Load scheduler "fdo1" with entities [LocalPlayer, LocalPlayer], work=[200*, 0*]
 93: 0x0488 [0x1C] WAIT(60* ticks)
 94: 0x048B [0x52] END_LOAD_SCHEDULER: End scheduler "5614" with entities [LocalPlayer, LocalPlayer], work=342*
 95: 0x049A [0x46] CAMERA_CONTROL: Restore default settings
 96: 0x049C [0x45] LOAD_SCHEDULED_TASK: Load scheduler "fdi1" with entities [LocalPlayer, LocalPlayer], work=[200*, 0*]
 97: 0x04AD [0x20] SET_CLI_EVENT_UC_FLAG: Unlock player control
 98: 0x04AF [0x21] END_EVENT
 99: 0x04B0 [0x00] END_REQSTACK()
```

#### Data or dead code:

```
# Dead code (unreachable instructions):
     0x02D7 [0x01] GOTO 0x0331
     0x032E [0x01] GOTO 0x0331
# Dead code (unreachable instructions):
     0x03E7 [0x01] GOTO 0x042C
     0x0429 [0x01] GOTO 0x042C
```

### Event 193

#### Metadata

| Field        | Value    |
|--------------|----------|
| Entrypoint   | 0x04B1   |
| Data Size    | 47 bytes |
| Instructions | 11       |

```
      00 01 02 03 04 05 06 07  08 09 0A 0B 0C 0D 0E 0F
      -- -- -- -- -- -- -- --  -- -- -- -- -- -- -- --
04B0:    20 01 1E F0 FF FF 7F  6F 70 66 09 80 F8 FF FF    ......opf.....
04C0: 7F F8 FF FF 7F 74 6C 6B  30 1D 31 80 23 66 09 80  .....tlk0.1.#f..
04D0: F8 FF FF 7F F8 FF FF 7F  74 6C 6B 31 20 00 21 00  ........tlk1 .!.
```

#### Opcodes

```
  0: 0x04B1 [0x20] SET_CLI_EVENT_UC_FLAG: Lock player control
  1: 0x04B3 [0x1E] EventEntity looks at LocalPlayer and starts talking
  2: 0x04B8 [0x6F] WAIT_FRAME_DELAY: Yield until WaitTime reaches zero
  3: 0x04B9 [0x70] WAIT_ENTITY_RENDER_FLAG: Wait while EventEntity->Render.Flags3 bit 2 is set (cancel turn if not)
  4: 0x04BA [0x66] LOAD_EXT_SCHEDULER_MAIN: Load scheduler "tlk0" with entities [EventEntity, EventEntity], work=40*
  5: 0x04C9 [0x1D] PRINT_EVENT_MESSAGE(message_id=7730*)
    → "Mercenaries from across the Federation are banging on my doors day and nightaru to get their greedy-weedy hands on my charms. I'm counting on you!"
  6: 0x04CC [0x23] WAIT_FOR_DIALOG_INTERACTION
  7: 0x04CD [0x66] LOAD_EXT_SCHEDULER_MAIN: Load scheduler "tlk1" with entities [EventEntity, EventEntity], work=40*
  8: 0x04DC [0x20] SET_CLI_EVENT_UC_FLAG: Unlock player control
  9: 0x04DE [0x21] END_EVENT
 10: 0x04DF [0x00] END_REQSTACK()
```

### Event 194

#### Metadata

| Field        | Value    |
|--------------|----------|
| Entrypoint   | 0x04E0   |
| Data Size    | 51 bytes |
| Instructions | 13       |

```
      00 01 02 03 04 05 06 07  08 09 0A 0B 0C 0D 0E 0F
      -- -- -- -- -- -- -- --  -- -- -- -- -- -- -- --
04E0: 20 01 1E F0 FF FF 7F 6F  70 66 09 80 F8 FF FF 7F   ......opf......
04F0: F8 FF FF 7F 74 6C 6B 30  1D 32 80 23 1D 33 80 23  ....tlk0.2.#.3.#
0500: 66 09 80 F8 FF FF 7F F8  FF FF 7F 74 6C 6B 31 20  f..........tlk1 
0510: 00 21 00                                          .!.             
```

#### Opcodes

```
  0: 0x04E0 [0x20] SET_CLI_EVENT_UC_FLAG: Lock player control
  1: 0x04E2 [0x1E] EventEntity looks at LocalPlayer and starts talking
  2: 0x04E7 [0x6F] WAIT_FRAME_DELAY: Yield until WaitTime reaches zero
  3: 0x04E8 [0x70] WAIT_ENTITY_RENDER_FLAG: Wait while EventEntity->Render.Flags3 bit 2 is set (cancel turn if not)
  4: 0x04E9 [0x66] LOAD_EXT_SCHEDULER_MAIN: Load scheduler "tlk0" with entities [EventEntity, EventEntity], work=40*
  5: 0x04F8 [0x1D] PRINT_EVENT_MESSAGE(message_id=7731*)
    → "You've returned! Well? Were you able to enchant the three spooly-wools of thread?"
  6: 0x04FB [0x23] WAIT_FOR_DIALOG_INTERACTION
  7: 0x04FC [0x1D] PRINT_EVENT_MESSAGE(message_id=7734*)
    → "Mercenaries from across the Federation are banging on my doors day and nightaru to get their greedy-weedy hands on my charms. Please! Go enchantaru the rest before they break out the battering ram!"
  8: 0x04FF [0x23] WAIT_FOR_DIALOG_INTERACTION
  9: 0x0500 [0x66] LOAD_EXT_SCHEDULER_MAIN: Load scheduler "tlk1" with entities [EventEntity, EventEntity], work=40*
 10: 0x050F [0x20] SET_CLI_EVENT_UC_FLAG: Unlock player control
 11: 0x0511 [0x21] END_EVENT
 12: 0x0512 [0x00] END_REQSTACK()
```

### Event 195

#### Metadata

| Field        | Value     |
|--------------|-----------|
| Entrypoint   | 0x0513    |
| Data Size    | 124 bytes |
| Instructions | 27        |

```
      00 01 02 03 04 05 06 07  08 09 0A 0B 0C 0D 0E 0F
      -- -- -- -- -- -- -- --  -- -- -- -- -- -- -- --
0510:          03 00 00 03 10  03 01 00 04 10 03 02 00     .............
0520: 05 10 02 00 00 01 80 01  34 05 03 02 10 28 80 03  ........4....(..
0530: 03 10 2A 80 02 01 00 01  80 01 46 05 03 02 10 26  ..*.......F....&
0540: 80 03 03 10 2A 80 02 02  00 01 80 01 58 05 03 02  ....*.......X...
0550: 10 26 80 03 03 10 28 80  20 01 1E F0 FF FF 7F 6F  .&....(. ......o
0560: 70 66 09 80 F8 FF FF 7F  F8 FF FF 7F 74 6C 6B 30  pf..........tlk0
0570: 1D 32 80 23 1D 34 80 23  1D 33 80 23 66 09 80 F8  .2.#.4.#.3.#f...
0580: FF FF 7F F8 FF FF 7F 74  6C 6B 31 20 00 21 00     .......tlk1 .!. 
```

#### Opcodes

```
  0: 0x0513 [0x03] ExtData[1]->WorkLocal[0] = Work_Zone[3]
  1: 0x0518 [0x03] ExtData[1]->WorkLocal[1] = Work_Zone[4]
  2: 0x051D [0x03] ExtData[1]->WorkLocal[2] = Work_Zone[5]
  3: 0x0522 [0x02] IF !(ExtData[1]->WorkLocal[0] == 0*) GOTO 0x0534
  4: 0x052A [0x03] Work_Zone[2] = 1165*
  5: 0x052F [0x03] Work_Zone[3] = 1166*
  6: 0x0534 [0x02] IF !(ExtData[1]->WorkLocal[1] == 0*) GOTO 0x0546
  7: 0x053C [0x03] Work_Zone[2] = 1164*
  8: 0x0541 [0x03] Work_Zone[3] = 1166*
  9: 0x0546 [0x02] IF !(ExtData[1]->WorkLocal[2] == 0*) GOTO 0x0558
 10: 0x054E [0x03] Work_Zone[2] = 1164*
 11: 0x0553 [0x03] Work_Zone[3] = 1165*
 12: 0x0558 [0x20] SET_CLI_EVENT_UC_FLAG: Lock player control
 13: 0x055A [0x1E] EventEntity looks at LocalPlayer and starts talking
 14: 0x055F [0x6F] WAIT_FRAME_DELAY: Yield until WaitTime reaches zero
 15: 0x0560 [0x70] WAIT_ENTITY_RENDER_FLAG: Wait while EventEntity->Render.Flags3 bit 2 is set (cancel turn if not)
 16: 0x0561 [0x66] LOAD_EXT_SCHEDULER_MAIN: Load scheduler "tlk0" with entities [EventEntity, EventEntity], work=40*
 17: 0x0570 [0x1D] PRINT_EVENT_MESSAGE(message_id=7731*)
    → "You've returned! Well? Were you able to enchant the three spooly-wools of thread?"
 18: 0x0573 [0x23] WAIT_FOR_DIALOG_INTERACTION
 19: 0x0574 [0x1D] PRINT_EVENT_MESSAGE(message_id=7732*)
    → "Hmm... This $3 and $3 haven't been enchantarued yet."
 20: 0x0577 [0x23] WAIT_FOR_DIALOG_INTERACTION
 21: 0x0578 [0x1D] PRINT_EVENT_MESSAGE(message_id=7734*)
    → "Mercenaries from across the Federation are banging on my doors day and nightaru to get their greedy-weedy hands on my charms. Please! Go enchantaru the rest before they break out the battering ram!"
 22: 0x057B [0x23] WAIT_FOR_DIALOG_INTERACTION
 23: 0x057C [0x66] LOAD_EXT_SCHEDULER_MAIN: Load scheduler "tlk1" with entities [EventEntity, EventEntity], work=40*
 24: 0x058B [0x20] SET_CLI_EVENT_UC_FLAG: Unlock player control
 25: 0x058D [0x21] END_EVENT
 26: 0x058E [0x00] END_REQSTACK()
```

### Event 196

#### Metadata

| Field        | Value     |
|--------------|-----------|
| Entrypoint   | 0x058F    |
| Data Size    | 109 bytes |
| Instructions | 24        |

```
      00 01 02 03 04 05 06 07  08 09 0A 0B 0C 0D 0E 0F
      -- -- -- -- -- -- -- --  -- -- -- -- -- -- -- --
0580:                                               03                 .
0590: 00 00 03 10 03 01 00 04  10 03 02 00 05 10 02 00  ................
05A0: 00 01 80 00 AB 05 03 02  10 26 80 02 01 00 01 80  .........&......
05B0: 00 B8 05 03 02 10 28 80  02 02 00 01 80 00 C5 05  ......(.........
05C0: 03 02 10 2A 80 20 01 1E  F0 FF FF 7F 6F 70 66 09  ...*. ......opf.
05D0: 80 F8 FF FF 7F F8 FF FF  7F 74 6C 6B 30 1D 32 80  .........tlk0.2.
05E0: 23 1D 35 80 23 1D 33 80  23 66 09 80 F8 FF FF 7F  #.5.#.3.#f......
05F0: F8 FF FF 7F 74 6C 6B 31  20 00 21 00              ....tlk1 .!.    
```

#### Opcodes

```
  0: 0x058F [0x03] ExtData[1]->WorkLocal[0] = Work_Zone[3]
  1: 0x0594 [0x03] ExtData[1]->WorkLocal[1] = Work_Zone[4]
  2: 0x0599 [0x03] ExtData[1]->WorkLocal[2] = Work_Zone[5]
  3: 0x059E [0x02] IF !(ExtData[1]->WorkLocal[0] == 0*) GOTO 0x05AB
  4: 0x05A6 [0x03] Work_Zone[2] = 1164*
  5: 0x05AB [0x02] IF !(ExtData[1]->WorkLocal[1] == 0*) GOTO 0x05B8
  6: 0x05B3 [0x03] Work_Zone[2] = 1165*
  7: 0x05B8 [0x02] IF !(ExtData[1]->WorkLocal[2] == 0*) GOTO 0x05C5
  8: 0x05C0 [0x03] Work_Zone[2] = 1166*
  9: 0x05C5 [0x20] SET_CLI_EVENT_UC_FLAG: Lock player control
 10: 0x05C7 [0x1E] EventEntity looks at LocalPlayer and starts talking
 11: 0x05CC [0x6F] WAIT_FRAME_DELAY: Yield until WaitTime reaches zero
 12: 0x05CD [0x70] WAIT_ENTITY_RENDER_FLAG: Wait while EventEntity->Render.Flags3 bit 2 is set (cancel turn if not)
 13: 0x05CE [0x66] LOAD_EXT_SCHEDULER_MAIN: Load scheduler "tlk0" with entities [EventEntity, EventEntity], work=40*
 14: 0x05DD [0x1D] PRINT_EVENT_MESSAGE(message_id=7731*)
    → "You've returned! Well? Were you able to enchant the three spooly-wools of thread?"
 15: 0x05E0 [0x23] WAIT_FOR_DIALOG_INTERACTION
 16: 0x05E1 [0x1D] PRINT_EVENT_MESSAGE(message_id=7733*)
    → "Hmm... This $3 hasn't been enchantarued yet."
 17: 0x05E4 [0x23] WAIT_FOR_DIALOG_INTERACTION
 18: 0x05E5 [0x1D] PRINT_EVENT_MESSAGE(message_id=7734*)
    → "Mercenaries from across the Federation are banging on my doors day and nightaru to get their greedy-weedy hands on my charms. Please! Go enchantaru the rest before they break out the battering ram!"
 19: 0x05E8 [0x23] WAIT_FOR_DIALOG_INTERACTION
 20: 0x05E9 [0x66] LOAD_EXT_SCHEDULER_MAIN: Load scheduler "tlk1" with entities [EventEntity, EventEntity], work=40*
 21: 0x05F8 [0x20] SET_CLI_EVENT_UC_FLAG: Unlock player control
 22: 0x05FA [0x21] END_EVENT
 23: 0x05FB [0x00] END_REQSTACK()
```

### Event 197

#### Metadata

| Field        | Value     |
|--------------|-----------|
| Entrypoint   | 0x05FC    |
| Data Size    | 481 bytes |
| Instructions | 77        |

```
      00 01 02 03 04 05 06 07  08 09 0A 0B 0C 0D 0E 0F
      -- -- -- -- -- -- -- --  -- -- -- -- -- -- -- --
05F0:                                      42 20 01 46              B .F
0600: 01 45 00 80 F0 FF FF 7F  F0 FF FF 7F 66 64 6F 31  .E..........fdo1
0610: 01 80 1C 02 80 38 03 80  BA F0 FF FF 7F 04 80 05  .....8..........
0620: 80 06 80 07 80 80 F0 FF  FF 7F 80 C2 E1 05 01 80  ................
0630: 4F E2 05 01 4E 00 F8 FF  FF 7F 92 01 C2 E1 05 01  O...N...........
0640: 1E F0 FF FF 7F 6F 70 45  08 80 F0 FF FF 7F F0 FF  .....opE........
0650: FF 7F 35 36 30 38 01 80  45 00 80 F0 FF FF 7F F0  ..5608..E.......
0660: FF FF 7F 66 64 69 31 01  80 1C 02 80 66 09 80 F8  ...fdi1.....f...
0670: FF FF 7F F8 FF FF 7F 74  6C 6B 30 1D 32 80 23 52  .......tlk0.2.#R
0680: 08 80 F0 FF FF 7F F0 FF  FF 7F 35 36 30 38 45 08  ..........5608E.
0690: 80 F0 FF FF 7F F0 FF FF  7F 35 36 30 36 01 80 6E  .........5606..n
06A0: C2 E1 05 01 36 80 99 C2  E1 05 01 1D 37 80 23 99  ....6.......7.#.
06B0: C2 E1 05 01 66 09 80 F8  FF FF 7F F8 FF FF 7F 74  ....f..........t
06C0: 6C 6B 30 1D 38 80 23 1D  39 80 23 1D 3A 80 23 52  lk0.8.#.9.#.:.#R
06D0: 08 80 F0 FF FF 7F F0 FF  FF 7F 35 36 30 36 45 08  ..........5606E.
06E0: 80 F0 FF FF 7F F0 FF FF  7F 35 36 30 35 01 80 6E  .........5605..n
06F0: C2 E1 05 01 20 80 99 C2  E1 05 01 1D 3B 80 23 99  .... .......;.#.
0700: C2 E1 05 01 66 09 80 F8  FF FF 7F F8 FF FF 7F 74  ....f..........t
0710: 6C 6B 30 1D 3C 80 23 1D  3D 80 23 1D 3E 80 23 6E  lk0.<.#.=.#.>.#n
0720: C2 E1 05 01 11 80 99 C2  E1 05 01 1D 3F 80 23 99  ............?.#.
0730: C2 E1 05 01 6E C2 E1 05  01 15 80 99 C2 E1 05 01  ....n...........
0740: 1D 40 80 23 99 C2 E1 05  01 52 08 80 F0 FF FF 7F  .@.#.....R......
0750: F0 FF FF 7F 35 36 30 35  45 08 80 F0 FF FF 7F F0  ....5605E.......
0760: FF FF 7F 35 36 30 37 01  80 66 09 80 F8 FF FF 7F  ...5607..f......
0770: F8 FF FF 7F 74 6C 6B 30  1D 41 80 23 1D 42 80 23  ....tlk0.A.#.B.#
0780: 66 09 80 F8 FF FF 7F F8  FF FF 7F 70 61 73 30 1C  f..........pas0.
0790: 0C 80 45 00 80 F0 FF FF  7F F0 FF FF 7F 66 64 6F  ..E..........fdo
07A0: 31 01 80 1C 02 80 52 08  80 F0 FF FF 7F F0 FF FF  1.....R.........
07B0: 7F 35 36 30 37 46 00 45  00 80 F0 FF FF 7F F0 FF  .5607F.E........
07C0: FF 7F 66 64 69 31 01 80  20 00 45 43 80 F8 FF FF  ..fdi1.. .EC....
07D0: 7F F8 FF FF 7F 71 73 74  63 01 80 21 00           .....qstc..!.   
```

#### Opcodes

```
  0: 0x05FC [0x42] SET_CLI_EVENT_CANCEL_DATA()
  1: 0x05FD [0x20] SET_CLI_EVENT_UC_FLAG: Lock player control
  2: 0x05FF [0x46] CAMERA_CONTROL: Disable user control
  3: 0x0601 [0x45] LOAD_SCHEDULED_TASK: Load scheduler "fdo1" with entities [LocalPlayer, LocalPlayer], work=[200*, 0*]
  4: 0x0612 [0x1C] WAIT(60* ticks)
  5: 0x0615 [0x38] SET_CLIENT_EVENT_MODE(mode=19*)
  6: 0x0618 [0xBA] SET_ENTITY_POSITION(entity_id=LocalPlayer, pos_x=156.263*, pos_z=-18.034*, pos_y=0.999*, direction=261.0°*)
  7: 0x0625 [0x80] LOAD_WAIT(entity=LocalPlayer)
  8: 0x062A [0x80] LOAD_WAIT(entity=Ponono (ID: 17162690/0x0105E1C2))
  9: 0x062F [0x80] LOAD_WAIT(entity=Yassi-Possi (ID: 17162831/0x0105E24F))
 10: 0x0634 [0x4E] SET_ENTITY_HIDE_FLAG: Show EventEntity
 11: 0x063A [0x92] Ponono (ID: 17162690/0x0105E1C2)->Render.Flags3 ^= 0x01
 12: 0x0640 [0x1E] EventEntity looks at LocalPlayer and starts talking
 13: 0x0645 [0x6F] WAIT_FRAME_DELAY: Yield until WaitTime reaches zero
 14: 0x0646 [0x70] WAIT_ENTITY_RENDER_FLAG: Wait while EventEntity->Render.Flags3 bit 2 is set (cancel turn if not)
 15: 0x0647 [0x45] LOAD_SCHEDULED_TASK: Load scheduler "5608" with entities [LocalPlayer, LocalPlayer], work=[342*, 0*]
 16: 0x0658 [0x45] LOAD_SCHEDULED_TASK: Load scheduler "fdi1" with entities [LocalPlayer, LocalPlayer], work=[200*, 0*]
 17: 0x0669 [0x1C] WAIT(60* ticks)
 18: 0x066C [0x66] LOAD_EXT_SCHEDULER_MAIN: Load scheduler "tlk0" with entities [EventEntity, EventEntity], work=40*
 19: 0x067B [0x1D] PRINT_EVENT_MESSAGE(message_id=7731*)
    → "You've returned! Well? Were you able to enchant the three spooly-wools of thread?"
 20: 0x067E [0x23] WAIT_FOR_DIALOG_INTERACTION
 21: 0x067F [0x52] END_LOAD_SCHEDULER: End scheduler "5608" with entities [LocalPlayer, LocalPlayer], work=342*
 22: 0x068E [0x45] LOAD_SCHEDULED_TASK: Load scheduler "5606" with entities [LocalPlayer, LocalPlayer], work=[342*, 0*]
 23: 0x069F [0x6E] Ponono (ID: 17162690/0x0105E1C2) uses emote 11*
 24: 0x06A6 [0x99] Wait for Ponono (ID: 17162690/0x0105E1C2) animation to complete
 25: 0x06AB [0x1D] PRINT_EVENT_MESSAGE(message_id=7735*)
    → "Ah, yes! Look at how beautifully they shimmer! You've done it! I truly-wuly can't thank you enough."
 26: 0x06AE [0x23] WAIT_FOR_DIALOG_INTERACTION
 27: 0x06AF [0x99] Wait for Ponono (ID: 17162690/0x0105E1C2) animation to complete
 28: 0x06B4 [0x66] LOAD_EXT_SCHEDULER_MAIN: Load scheduler "tlk0" with entities [EventEntity, EventEntity], work=40*
 29: 0x06C3 [0x1D] PRINT_EVENT_MESSAGE(message_id=7736*)
    → "Now I have enough thread to make charms for not only our valiantaru soldiers, but their families and loved ones as well!"
 30: 0x06C6 [0x23] WAIT_FOR_DIALOG_INTERACTION
 31: 0x06C7 [0x1D] PRINT_EVENT_MESSAGE(message_id=7737*)
    → "Ah! What I wouldn'taru give to see the return of a peaceful age where the services of neither charms nor soldiers are needed any longer..."
 32: 0x06CA [0x23] WAIT_FOR_DIALOG_INTERACTION
 33: 0x06CB [0x1D] PRINT_EVENT_MESSAGE(message_id=7738*)
    → "Sadly, I am but a humble-wumble artisan. There is little I can do except supportaru our cause in my own little way."
 34: 0x06CE [0x23] WAIT_FOR_DIALOG_INTERACTION
 35: 0x06CF [0x52] END_LOAD_SCHEDULER: End scheduler "5606" with entities [LocalPlayer, LocalPlayer], work=342*
 36: 0x06DE [0x45] LOAD_SCHEDULED_TASK: Load scheduler "5605" with entities [LocalPlayer, LocalPlayer], work=[342*, 0*]
 37: 0x06EF [0x6E] Ponono (ID: 17162690/0x0105E1C2) uses emote 7*
 38: 0x06F6 [0x99] Wait for Ponono (ID: 17162690/0x0105E1C2) animation to complete
 39: 0x06FB [0x1D] PRINT_EVENT_MESSAGE(message_id=7739*)
    → "Oh, perhaps you're curious why the threads must be enchanted with the waters of those three particular mystic pools."
 40: 0x06FE [0x23] WAIT_FOR_DIALOG_INTERACTION
 41: 0x06FF [0x99] Wait for Ponono (ID: 17162690/0x0105E1C2) animation to complete
 42: 0x0704 [0x66] LOAD_EXT_SCHEDULER_MAIN: Load scheduler "tlk0" with entities [EventEntity, EventEntity], work=40*
 43: 0x0713 [0x1D] PRINT_EVENT_MESSAGE(message_id=7740*)
    → "Do you remember our conversation about the magical properties of each thread? It would seem they holdy-wold the answer."
 44: 0x0716 [0x23] WAIT_FOR_DIALOG_INTERACTION
 45: 0x0717 [0x1D] PRINT_EVENT_MESSAGE(message_id=7741*)
    → "First, "courage to stand against the most fearsome plightaru." The waters of the Knightwell are said to have bestowed legendary valor upon brave warriors throughoutaru the course of history."
 46: 0x071A [0x23] WAIT_FOR_DIALOG_INTERACTION
 47: 0x071B [0x1D] PRINT_EVENT_MESSAGE(message_id=7742*)
    → "Secondly, "gentleness to soothy-woothe the deepest wound." The pixies of Grauberg are perhaps the gentlest beings of our world, and the tranquil-wanquil waters of their spring are said to provide transcendentaru peace of mind."
 48: 0x071E [0x23] WAIT_FOR_DIALOG_INTERACTION
 49: 0x071F [0x6E] Ponono (ID: 17162690/0x0105E1C2) uses emote 32*
 50: 0x0726 [0x99] Wait for Ponono (ID: 17162690/0x0105E1C2) animation to complete
 51: 0x072B [0x1D] PRINT_EVENT_MESSAGE(message_id=7743*)
    → "Lastly, the waters of Lake Tepokalipuka... In all honesty-wonesty, this one is a mystery even to me."
 52: 0x072E [0x23] WAIT_FOR_DIALOG_INTERACTION
 53: 0x072F [0x99] Wait for Ponono (ID: 17162690/0x0105E1C2) animation to complete
 54: 0x0734 [0x6E] Ponono (ID: 17162690/0x0105E1C2) uses emote 6*
 55: 0x073B [0x99] Wait for Ponono (ID: 17162690/0x0105E1C2) animation to complete
 56: 0x0740 [0x1D] PRINT_EVENT_MESSAGE(message_id=7744*)
    → "That's one part of our family lore that's been lostaru to the ages. In the old language, "Tepokalipuka" means "a ladle with a hole"... But to what could that possibly-wossibly refer?"
 57: 0x0743 [0x23] WAIT_FOR_DIALOG_INTERACTION
 58: 0x0744 [0x99] Wait for Ponono (ID: 17162690/0x0105E1C2) animation to complete
 59: 0x0749 [0x52] END_LOAD_SCHEDULER: End scheduler "5605" with entities [LocalPlayer, LocalPlayer], work=342*
 60: 0x0758 [0x45] LOAD_SCHEDULED_TASK: Load scheduler "5607" with entities [LocalPlayer, LocalPlayer], work=[342*, 0*]
 61: 0x0769 [0x66] LOAD_EXT_SCHEDULER_MAIN: Load scheduler "tlk0" with entities [EventEntity, EventEntity], work=40*
 62: 0x0778 [0x1D] PRINT_EVENT_MESSAGE(message_id=7745*)
    → "Heavensy-weavens, look at me! What am I doing getting caughtaru up in a discussion of linguistics!? I have charms to craft, orders to fill!"
 63: 0x077B [0x23] WAIT_FOR_DIALOG_INTERACTION
 64: 0x077C [0x1D] PRINT_EVENT_MESSAGE(message_id=7746*)
    → "In any eventaru, you have my eternal gratitude for your aid. Take this, and may it bring you the besty-west of fortune for years to come!"
 65: 0x077F [0x23] WAIT_FOR_DIALOG_INTERACTION
 66: 0x0780 [0x66] LOAD_EXT_SCHEDULER_MAIN: Load scheduler "pas0" with entities [EventEntity, EventEntity], work=40*
 67: 0x078F [0x1C] WAIT(240* ticks)
 68: 0x0792 [0x45] LOAD_SCHEDULED_TASK: Load scheduler "fdo1" with entities [LocalPlayer, LocalPlayer], work=[200*, 0*]
 69: 0x07A3 [0x1C] WAIT(60* ticks)
 70: 0x07A6 [0x52] END_LOAD_SCHEDULER: End scheduler "5607" with entities [LocalPlayer, LocalPlayer], work=342*
 71: 0x07B5 [0x46] CAMERA_CONTROL: Restore default settings
 72: 0x07B7 [0x45] LOAD_SCHEDULED_TASK: Load scheduler "fdi1" with entities [LocalPlayer, LocalPlayer], work=[200*, 0*]
 73: 0x07C8 [0x20] SET_CLI_EVENT_UC_FLAG: Unlock player control
 74: 0x07CA [0x45] LOAD_SCHEDULED_TASK: Load scheduler "qstc" with entities [EventEntity, EventEntity], work=[201*, 0*]
 75: 0x07DB [0x21] END_EVENT
 76: 0x07DC [0x00] END_REQSTACK()
```

### Event 198

#### Metadata

| Field        | Value    |
|--------------|----------|
| Entrypoint   | 0x07DD   |
| Data Size    | 47 bytes |
| Instructions | 11       |

```
      00 01 02 03 04 05 06 07  08 09 0A 0B 0C 0D 0E 0F
      -- -- -- -- -- -- -- --  -- -- -- -- -- -- -- --
07D0:                                         20 01 1E                ..
07E0: F0 FF FF 7F 6F 70 66 09  80 F8 FF FF 7F F8 FF FF  ....opf.........
07F0: 7F 74 6C 6B 30 1D 0A 80  23 66 09 80 F8 FF FF 7F  .tlk0...#f......
0800: F8 FF FF 7F 74 6C 6B 31  20 00 21 00              ....tlk1 .!.    
```

#### Opcodes

```
  0: 0x07DD [0x20] SET_CLI_EVENT_UC_FLAG: Lock player control
  1: 0x07DF [0x1E] EventEntity looks at LocalPlayer and starts talking
  2: 0x07E4 [0x6F] WAIT_FRAME_DELAY: Yield until WaitTime reaches zero
  3: 0x07E5 [0x70] WAIT_ENTITY_RENDER_FLAG: Wait while EventEntity->Render.Flags3 bit 2 is set (cancel turn if not)
  4: 0x07E6 [0x66] LOAD_EXT_SCHEDULER_MAIN: Load scheduler "tlk0" with entities [EventEntity, EventEntity], work=40*
  5: 0x07F5 [0x1D] PRINT_EVENT_MESSAGE(message_id=7704*)
    → "My mercenary friend! All of Windurst is in your debtaru!"
  6: 0x07F8 [0x23] WAIT_FOR_DIALOG_INTERACTION
  7: 0x07F9 [0x66] LOAD_EXT_SCHEDULER_MAIN: Load scheduler "tlk1" with entities [EventEntity, EventEntity], work=40*
  8: 0x0808 [0x20] SET_CLI_EVENT_UC_FLAG: Unlock player control
  9: 0x080A [0x21] END_EVENT
 10: 0x080B [0x00] END_REQSTACK()
```
