# 17162963

## Common Data

| Field            | Value                        |
|------------------|------------------------------|
| Zone             | Windurst Waters [S] (ID: 94) |
| Block Size       | 18912 bytes                  |
| Total Events     | 3                            |
| References Count | 512                          |

## List of Events

| Event ID              | Entrypoint   |   Size |   Instructions |
|-----------------------|--------------|--------|----------------|
| [65535](#event-65535) | 0x0000       |      1 |              1 |
| [23](#event-23)       | 0x0001       |   8922 |           1146 |
| [24](#event-24)       | 0x22DB       |   7910 |            917 |

## DAT References (imed_data)

|   Index | Hex Value   |   Dec Value |
|---------|-------------|-------------|
|       0 | 0x0013      |          19 |
|       1 | 0xFFFF63AB  |  4294927275 |
|       2 | 0x38E3F     |      233023 |
|       3 | 0xFFFFEC78  |  4294962296 |
|       4 | 0x03E5      |         997 |
|       5 | 0xFFFF5E98  |  4294925976 |
|       6 | 0x3298D     |      207245 |
|       7 | 0xFFFFEBAE  |  4294962094 |
|       8 | 0x03E6      |         998 |
|       9 | 0xFFFF11C3  |  4294906307 |
|      10 | 0x1126E     |       70254 |
|      11 | 0xFFFFF255  |  4294963797 |
|      12 | 0x0FFD      |        4093 |
|      13 | 0x3FE8      |       16360 |
|      14 | 0xBDC1      |       48577 |
|      15 | 0xFFFFF830  |  4294965296 |
|      16 | 0x07DE      |        2014 |
|      17 | 0x3752      |       14162 |
|      18 | 0xC96D      |       51565 |
|      19 | 0x0840      |        2112 |
|      20 | 0xFFFF755B  |  4294931803 |
|      21 | 0xFB91      |       64401 |
|      22 | 0xFFFFF254  |  4294963796 |
|      23 | 0x0AF0      |        2800 |
|      24 | 0xFFFF7B33  |  4294933299 |
|      25 | 0xFDBF      |       64959 |
|      26 | 0x0937      |        2359 |
|      27 | 0xFFFF4DD7  |  4294921687 |
|      28 | 0x16FB8     |       94136 |
|      29 | 0xFFFFEC79  |  4294962297 |
|      30 | 0x0FE9      |        4073 |
|      31 | 0xFFFF4CAA  |  4294921386 |
|      32 | 0x16429     |       91177 |
|      33 | 0x0023      |          35 |
|      34 | 0xFFFF70F7  |  4294930679 |
|      35 | 0x10260     |       66144 |
|      36 | 0x0024      |          36 |
|      37 | 0xFFFF6A27  |  4294928935 |
|      38 | 0xF883      |       63619 |
|      39 | 0x0BC9      |        3017 |
|      40 | 0xFFFF66BC  |  4294928060 |
|      41 | 0xF9A3      |       63907 |
|      42 | 0x0C19      |        3097 |
|      43 | 0xFFFFAC5E  |  4294945886 |
|      44 | 0x140D2     |       82130 |
|      45 | 0x0820      |        2080 |
|      46 | 0xFFFFB263  |  4294947427 |
|      47 | 0x150B5     |       86197 |
|      48 | 0x0695      |        1685 |
|      49 | 0x001E      |          30 |
|      50 | 0x000F      |          15 |
|      51 | 0x01F8      |         504 |
|      52 | 0x0000      |           0 |
|      53 | 0x0064      |         100 |
|      54 | 0x003C      |          60 |
|      55 | 0x00D2      |         210 |
|      56 | 0x005A      |          90 |
|      57 | 0x3579      |       13689 |
|      58 | 0x012C      |         300 |
|      59 | 0x0096      |         150 |
|      60 | 0x357A      |       13690 |
|      61 | 0x357B      |       13691 |
|      62 | 0x00F7      |         247 |
|      63 | 0x0001      |           1 |
|      64 | 0x357C      |       13692 |
|      65 | 0x002D      |          45 |
|      66 | 0x03E8      |        1000 |
|      67 | 0x00F0      |         240 |
|      68 | 0x3578      |       13688 |
|      69 | 0x0031      |          49 |
|      70 | 0x357D      |       13693 |
|      71 | 0x00B4      |         180 |
|      72 | 0x0078      |         120 |
|      73 | 0x357E      |       13694 |
|      74 | 0x0007      |           7 |
|      75 | 0x00EF      |         239 |
|      76 | 0x00FF      |         255 |
|      77 | 0xFFFFDE09  |  4294958601 |
|      78 | 0x1E6EA     |      124650 |
|      79 | 0xFFFFC181  |  4294951297 |
|      80 | 0x03FA      |        1018 |
|      81 | 0xFFFFD201  |  4294955521 |
|      82 | 0x1E822     |      124962 |
|      83 | 0xFFFFC180  |  4294951296 |
|      84 | 0x03F9      |        1017 |
|      85 | 0x2960      |       10592 |
|      86 | 0x1EB9A     |      125850 |
|      87 | 0xFFFFBE72  |  4294950514 |
|      88 | 0x1FD4D     |      130381 |
|      89 | 0x3C5B      |       15451 |
|      90 | 0x1FCA0     |      130208 |
|      91 | 0xFFFFB0C2  |  4294947010 |
|      92 | 0x20481     |      132225 |
|      93 | 0x4A9C      |       19100 |
|      94 | 0x20639     |      132665 |
|      95 | 0x5310      |       21264 |
|      96 | 0x1F91A     |      129306 |
|      97 | 0xFFFFA9D2  |  4294945234 |
|      98 | 0x1FC4D     |      130125 |
|      99 | 0x5702      |       22274 |
|     100 | 0x202AD     |      131757 |
|     101 | 0xFFFFBDD5  |  4294950357 |
|     102 | 0x1FB7D     |      129917 |
|     103 | 0x0168      |         360 |
|     104 | 0x01A4      |         420 |
|     105 | 0x00F2      |         242 |
|     106 | 0x01AA      |         426 |
|     107 | 0x00A2      |         162 |
|     108 | 0xFFFFD40E  |  4294956046 |
|     109 | 0xFFFFB6A7  |  4294948519 |
|     110 | 0x0B17      |        2839 |
|     111 | 0xFFFFDD4D  |  4294958413 |
|     112 | 0xFFFFA301  |  4294943489 |
|     113 | 0x0733      |        1843 |
|     114 | 0xFFFFE00C  |  4294959116 |
|     115 | 0xFFFFA131  |  4294943025 |
|     116 | 0x0732      |        1842 |
|     117 | 0xFFFFE04C  |  4294959180 |
|     118 | 0xFFFFAE68  |  4294946408 |
|     119 | 0x01F3      |         499 |
|     120 | 0xFFFFE341  |  4294959937 |
|     121 | 0xFFFFA6E2  |  4294944482 |
|     122 | 0x00F9      |         249 |
|     123 | 0x0D02      |        3330 |
|     124 | 0xFFFFDA58  |  4294957656 |
|     125 | 0xFFFFAB79  |  4294945657 |
|     126 | 0x0BD5      |        3029 |
|     127 | 0xFFFFF07F  |  4294963327 |
|     128 | 0xFFFFAFC2  |  4294946754 |
|     129 | 0x00FA      |         250 |
|     130 | 0xFFFFF351  |  4294964049 |
|     131 | 0xFFFFAF34  |  4294946612 |
|     132 | 0xFFFFDE7D  |  4294958717 |
|     133 | 0xFFFFAAE1  |  4294945505 |
|     134 | 0xFFFFD9CA  |  4294957514 |
|     135 | 0xFFFFA225  |  4294943269 |
|     136 | 0xFFFFD7EA  |  4294957034 |
|     137 | 0xFFFFAB83  |  4294945667 |
|     138 | 0xFFFFD4F8  |  4294956280 |
|     139 | 0xFFFFA3D8  |  4294943704 |
|     140 | 0x0882      |        2178 |
|     141 | 0xFFFFD340  |  4294955840 |
|     142 | 0xFFFFA6A3  |  4294944419 |
|     143 | 0xFFFFD652  |  4294956626 |
|     144 | 0xFFFFAD82  |  4294946178 |
|     145 | 0xFFFFD8F1  |  4294957297 |
|     146 | 0xFFFFA30A  |  4294943498 |
|     147 | 0xFFFFD0FF  |  4294955263 |
|     148 | 0xFFFFA566  |  4294944102 |
|     149 | 0x072E      |        1838 |
|     150 | 0xFFFFD251  |  4294955601 |
|     151 | 0xFFFFA286  |  4294943366 |
|     152 | 0xFFFFE4EE  |  4294960366 |
|     153 | 0xFFFFA898  |  4294944920 |
|     154 | 0xFFFFE79D  |  4294961053 |
|     155 | 0xFFFF9E9D  |  4294942365 |
|     156 | 0xFFFFE36F  |  4294959983 |
|     157 | 0xFFFF9F23  |  4294942499 |
|     158 | 0x0509      |        1289 |
|     159 | 0x04FE      |        1278 |
|     160 | 0x0506      |        1286 |
|     161 | 0x0055      |          85 |
|     162 | 0x0028      |          40 |
|     163 | 0x0022      |          34 |
|     164 | 0x0050      |          80 |
|     165 | 0x0145      |         325 |
|     166 | 0x0057      |          87 |
|     167 | 0x030C      |         780 |
|     168 | 0x0005      |           5 |
|     169 | 0x01AB      |         427 |
|     170 | 0x6AB9      |       27321 |
|     171 | 0xFFFFC359  |  4294951769 |
|     172 | 0xFFFFA628  |  4294944296 |
|     173 | 0x0779      |        1913 |
|     174 | 0xFFFFD640  |  4294956608 |
|     175 | 0xFFFFD5E1  |  4294956513 |
|     176 | 0xFFFF9A71  |  4294941297 |
|     177 | 0x0E10      |        3600 |
|     178 | 0xFFFFD5AE  |  4294956462 |
|     179 | 0xFFFFD089  |  4294955145 |
|     180 | 0xFFFFE2FF  |  4294959871 |
|     181 | 0xFFFFE8EA  |  4294961386 |
|     182 | 0xFFFF9C64  |  4294941796 |
|     183 | 0x077A      |        1914 |
|     184 | 0xFFFFE5CA  |  4294960586 |
|     185 | 0xFFFFF137  |  4294963511 |
|     186 | 0xFFFFEE3D  |  4294962749 |
|     187 | 0xFFFFF71B  |  4294965019 |
|     188 | 0xFFFFE890  |  4294961296 |
|     189 | 0xFFFFF9C7  |  4294965703 |
|     190 | 0x078F      |        1935 |
|     191 | 0xFFFFE2EA  |  4294959850 |
|     192 | 0xFFFFF74A  |  4294965066 |
|     193 | 0x071F      |        1823 |
|     194 | 0xFFFFDCDB  |  4294958299 |
|     195 | 0xFFFFF38E  |  4294964110 |
|     196 | 0x07FB      |        2043 |
|     197 | 0xFFFFEB11  |  4294961937 |
|     198 | 0x01B9      |         441 |
|     199 | 0xFFFF9C65  |  4294941797 |
|     200 | 0x05FA      |        1530 |
|     201 | 0xFFFFE596  |  4294960534 |
|     202 | 0xFFFFFDF4  |  4294966772 |
|     203 | 0x07A5      |        1957 |
|     204 | 0xFFFFF86D  |  4294965357 |
|     205 | 0xFFFFEB7F  |  4294962047 |
|     206 | 0xFFFFFB38  |  4294966072 |
|     207 | 0xFFFFE4FB  |  4294960379 |
|     208 | 0x03CC      |         972 |
|     209 | 0xFFFFF69F  |  4294964895 |
|     210 | 0xFFFFDE60  |  4294958688 |
|     211 | 0xFFFFEF66  |  4294963046 |
|     212 | 0xFFFFDDDE  |  4294958558 |
|     213 | 0xFFFFEA2D  |  4294961709 |
|     214 | 0xFFFFE1E1  |  4294959585 |
|     215 | 0xFFFFF336  |  4294964022 |
|     216 | 0xFFFFE678  |  4294960760 |
|     217 | 0x02AB      |         683 |
|     218 | 0xFFFFE0C8  |  4294959304 |
|     219 | 0xFFFFD453  |  4294956115 |
|     220 | 0x055D      |        1373 |
|     221 | 0x052E      |        1326 |
|     222 | 0x002C      |          44 |
|     223 | 0x00A0      |         160 |
|     224 | 0x00C8      |         200 |
|     225 | 0x357F      |       13695 |
|     226 | 0xFFFFE08D  |  4294959245 |
|     227 | 0xFFFFFD20  |  4294966560 |
|     228 | 0xFFFFE0AB  |  4294959275 |
|     229 | 0xFFFFED95  |  4294962581 |
|     230 | 0x3580      |       13696 |
|     231 | 0x3581      |       13697 |
|     232 | 0x3582      |       13698 |
|     233 | 0x3583      |       13699 |
|     234 | 0x3584      |       13700 |
|     235 | 0x3585      |       13701 |
|     236 | 0x3586      |       13702 |
|     237 | 0x3587      |       13703 |
|     238 | 0x3588      |       13704 |
|     239 | 0x3589      |       13705 |
|     240 | 0x358A      |       13706 |
|     241 | 0x05A3      |        1443 |
|     242 | 0x358B      |       13707 |
|     243 | 0x358C      |       13708 |
|     244 | 0x001A      |          26 |
|     245 | 0x358D      |       13709 |
|     246 | 0x358E      |       13710 |
|     247 | 0x052F      |        1327 |
|     248 | 0x358F      |       13711 |
|     249 | 0x2519      |        9497 |
|     250 | 0xFFFFEE99  |  4294962841 |
|     251 | 0x3590      |       13712 |
|     252 | 0x3591      |       13713 |
|     253 | 0x05A2      |        1442 |
|     254 | 0x3592      |       13714 |
|     255 | 0x3593      |       13715 |
|     256 | 0x000A      |          10 |
|     257 | 0x0015      |          21 |
|     258 | 0x3595      |       13717 |
|     259 | 0x1EE3      |        7907 |
|     260 | 0x0A4A      |        2634 |
|     261 | 0x04C6      |        1222 |
|     262 | 0x070D      |        1805 |
|     263 | 0xFFFFF720  |  4294965024 |
|     264 | 0x0658      |        1624 |
|     265 | 0x3596      |       13718 |
|     266 | 0x3597      |       13719 |
|     267 | 0x3598      |       13720 |
|     268 | 0x010E      |         270 |
|     269 | 0x3599      |       13721 |
|     270 | 0x359A      |       13722 |
|     271 | 0x359B      |       13723 |
|     272 | 0x359C      |       13724 |
|     273 | 0x359D      |       13725 |
|     274 | 0x015B      |         347 |
|     275 | 0xFFFFFC62  |  4294966370 |
|     276 | 0xFFFFE866  |  4294961254 |
|     277 | 0x0790      |        1936 |
|     278 | 0xFFFFF0B5  |  4294963381 |
|     279 | 0xFFFFDFB8  |  4294959032 |
|     280 | 0x074C      |        1868 |
|     281 | 0x359E      |       13726 |
|     282 | 0x0002      |           2 |
|     283 | 0x0003      |           3 |
|     284 | 0x0004      |           4 |
|     285 | 0x0006      |           6 |
|     286 | 0x0008      |           8 |
|     287 | 0x359F      |       13727 |
|     288 | 0x1BDB      |        7131 |
|     289 | 0x1FBC      |        8124 |
|     290 | 0x0F92      |        3986 |
|     291 | 0x2865      |       10341 |
|     292 | 0x2F99      |       12185 |
|     293 | 0xFFFF9977  |  4294941047 |
|     294 | 0x002A      |          42 |
|     295 | 0x35A0      |       13728 |
|     296 | 0x35A1      |       13729 |
|     297 | 0x0077      |         119 |
|     298 | 0x35A2      |       13730 |
|     299 | 0x35A3      |       13731 |
|     300 | 0x35A4      |       13732 |
|     301 | 0x35A5      |       13733 |
|     302 | 0x35A6      |       13734 |
|     303 | 0x35A7      |       13735 |
|     304 | 0x0496      |        1174 |
|     305 | 0x0497      |        1175 |
|     306 | 0x0498      |        1176 |
|     307 | 0x35A8      |       13736 |
|     308 | 0x35A9      |       13737 |
|     309 | 0x35AA      |       13738 |
|     310 | 0x35AB      |       13739 |
|     311 | 0x35AC      |       13740 |
|     312 | 0x005E      |          94 |
|     313 | 0x2105B     |      135259 |
|     314 | 0xF011      |       61457 |
|     315 | 0xFFFFF7F1  |  4294965233 |
|     316 | 0x0FD8      |        4056 |
|     317 | 0x35AE      |       13742 |
|     318 | 0x01F7      |         503 |
|     319 | 0x437B      |       17275 |
|     320 | 0x000B      |          11 |
|     321 | 0x10C1      |        4289 |
|     322 | 0x0014      |          20 |
|     323 | 0x0FFF      |        4095 |
|     324 | 0xFFFFFFDE  |  4294967262 |
|     325 | 0xB020      |       45088 |
|     326 | 0xFFFF0FC5  |  4294905797 |
|     327 | 0x0803      |        2051 |
|     328 | 0x35AF      |       13743 |
|     329 | 0x35B0      |       13744 |
|     330 | 0x35B1      |       13745 |
|     331 | 0x35B2      |       13746 |
|     332 | 0x35B3      |       13747 |
|     333 | 0x00C4      |         196 |
|     334 | 0x35B4      |       13748 |
|     335 | 0x01AC      |         428 |
|     336 | 0x0025      |          37 |
|     337 | 0xB24B      |       45643 |
|     338 | 0xFFFF0FAF  |  4294905775 |
|     339 | 0x0C00      |        3072 |
|     340 | 0xFFFFE73F  |  4294960959 |
|     341 | 0xC2FC      |       49916 |
|     342 | 0xFFFF11B8  |  4294906296 |
|     343 | 0x00AA      |         170 |
|     344 | 0x0571      |        1393 |
|     345 | 0x0562      |        1378 |
|     346 | 0x00C5      |         197 |
|     347 | 0x0182      |         386 |
|     348 | 0x35B5      |       13749 |
|     349 | 0x35B6      |       13750 |
|     350 | 0x35B7      |       13751 |
|     351 | 0xFFFF7054  |  4294930516 |
|     352 | 0x11C12     |       72722 |
|     353 | 0x07F8      |        2040 |
|     354 | 0xFFFF656F  |  4294927727 |
|     355 | 0x1066F     |       67183 |
|     356 | 0x02B0      |         688 |
|     357 | 0xFFFF3DBF  |  4294917567 |
|     358 | 0x11490     |       70800 |
|     359 | 0x07BC      |        1980 |
|     360 | 0xFFFF59A1  |  4294924705 |
|     361 | 0x12939     |       76089 |
|     362 | 0xFFFFF206  |  4294963718 |
|     363 | 0x014E      |         334 |
|     364 | 0xFFFF4738  |  4294919992 |
|     365 | 0x13D7B     |       81275 |
|     366 | 0x0ED2      |        3794 |
|     367 | 0xFFFF527F  |  4294922879 |
|     368 | 0x11715     |       71445 |
|     369 | 0x09B9      |        2489 |
|     370 | 0xFFFF1D42  |  4294909250 |
|     371 | 0xEF0B      |       61195 |
|     372 | 0x010A      |         266 |
|     373 | 0xFFFF1CAB  |  4294909099 |
|     374 | 0x118C4     |       71876 |
|     375 | 0x0DA6      |        3494 |
|     376 | 0xFFFF6671  |  4294927985 |
|     377 | 0x11FB5     |       73653 |
|     378 | 0xFFFFF1CA  |  4294963658 |
|     379 | 0x0854      |        2132 |
|     380 | 0xFFFF469C  |  4294919836 |
|     381 | 0x1209C     |       73884 |
|     382 | 0x01BA      |         442 |
|     383 | 0xFFFF535B  |  4294923099 |
|     384 | 0x1451D     |       83229 |
|     385 | 0x0805      |        2053 |
|     386 | 0xFFFF2F80  |  4294913920 |
|     387 | 0xE13C      |       57660 |
|     388 | 0x0BEC      |        3052 |
|     389 | 0xFFFF2A55  |  4294912597 |
|     390 | 0x132D3     |       78547 |
|     391 | 0xFFFFEE6C  |  4294962796 |
|     392 | 0x060C      |        1548 |
|     393 | 0xFFFF213A  |  4294910266 |
|     394 | 0x11F7C     |       73596 |
|     395 | 0x04BC      |        1212 |
|     396 | 0xFFFF793A  |  4294932794 |
|     397 | 0x13C6F     |       81007 |
|     398 | 0xFFFFF198  |  4294963608 |
|     399 | 0x0804      |        2052 |
|     400 | 0xFFFF76D8  |  4294932184 |
|     401 | 0xF9F4      |       63988 |
|     402 | 0x01B8      |         440 |
|     403 | 0xFFFF5232  |  4294922802 |
|     404 | 0xDDC2      |       56770 |
|     405 | 0x07D8      |        2008 |
|     406 | 0xFFFF15C3  |  4294907331 |
|     407 | 0xE3D9      |       58329 |
|     408 | 0x0775      |        1909 |
|     409 | 0xFFFF735F  |  4294931295 |
|     410 | 0x9BF5      |       39925 |
|     411 | 0xFFFF6370  |  4294927216 |
|     412 | 0x16D0A     |       93450 |
|     413 | 0xFFFF84BB  |  4294935739 |
|     414 | 0xFFFE5642  |  4294858306 |
|     415 | 0xFFFFF63C  |  4294964796 |
|     416 | 0x0D42      |        3394 |
|     417 | 0x003E      |          62 |
|     418 | 0x00C7      |         199 |
|     419 | 0x35B8      |       13752 |
|     420 | 0x35B9      |       13753 |
|     421 | 0x01C2      |         450 |
|     422 | 0xFFFF60A1  |  4294926497 |
|     423 | 0xFFFECAA1  |  4294888097 |
|     424 | 0xFFFFF450  |  4294964304 |
|     425 | 0x0313      |         787 |
|     426 | 0xFFFF6EB0  |  4294930096 |
|     427 | 0xFFFE6051  |  4294860881 |
|     428 | 0x0DCF      |        3535 |
|     429 | 0xFFFF8537  |  4294935863 |
|     430 | 0xFFFE50D7  |  4294856919 |
|     431 | 0x01E8      |         488 |
|     432 | 0xFFFF8646  |  4294936134 |
|     433 | 0xFFFE60A2  |  4294860962 |
|     434 | 0x0E67      |        3687 |
|     435 | 0xFFFF74A2  |  4294931618 |
|     436 | 0xFFFE6675  |  4294862453 |
|     437 | 0x053C      |        1340 |
|     438 | 0xFFFF7663  |  4294932067 |
|     439 | 0xFFFE4089  |  4294852745 |
|     440 | 0xFFFFFF2E  |  4294967086 |
|     441 | 0xFFFF9851  |  4294940753 |
|     442 | 0xFFFE51B9  |  4294857145 |
|     443 | 0x09C3      |        2499 |
|     444 | 0x0186      |         390 |
|     445 | 0x35BA      |       13754 |
|     446 | 0xFFFF7B0A  |  4294933258 |
|     447 | 0xFFFE6D6F  |  4294864239 |
|     448 | 0x1E78      |        7800 |
|     449 | 0x002B      |          43 |
|     450 | 0x0778      |        1912 |
|     451 | 0x2E96      |       11926 |
|     452 | 0x37E8      |       14312 |
|     453 | 0xFFFF9976  |  4294941046 |
|     454 | 0x0C2D      |        3117 |
|     455 | 0x05BA      |        1466 |
|     456 | 0x35BB      |       13755 |
|     457 | 0x35BC      |       13756 |
|     458 | 0x35BD      |       13757 |
|     459 | 0x35BE      |       13758 |
|     460 | 0x35BF      |       13759 |
|     461 | 0x35C0      |       13760 |
|     462 | 0x35C1      |       13761 |
|     463 | 0x35C2      |       13762 |
|     464 | 0x35C3      |       13763 |
|     465 | 0x35C4      |       13764 |
|     466 | 0x072C      |        1836 |
|     467 | 0x0CFA      |        3322 |
|     468 | 0x35C5      |       13765 |
|     469 | 0x35C6      |       13766 |
|     470 | 0x35C7      |       13767 |
|     471 | 0x35C8      |       13768 |
|     472 | 0x35C9      |       13769 |
|     473 | 0x35CA      |       13770 |
|     474 | 0x35CB      |       13771 |
|     475 | 0x0151      |         337 |
|     476 | 0x35CC      |       13772 |
|     477 | 0x35CD      |       13773 |
|     478 | 0x055F      |        1375 |
|     479 | 0x35CE      |       13774 |
|     480 | 0x35CF      |       13775 |
|     481 | 0x35D0      |       13776 |
|     482 | 0x0202      |         514 |
|     483 | 0x2A12      |       10770 |
|     484 | 0x3291      |       12945 |
|     485 | 0x2BD0      |       11216 |
|     486 | 0x3AD9      |       15065 |
|     487 | 0x35D1      |       13777 |
|     488 | 0x35D2      |       13778 |
|     489 | 0x35D3      |       13779 |
|     490 | 0x35D4      |       13780 |
|     491 | 0x35D5      |       13781 |
|     492 | 0x35D6      |       13782 |
|     493 | 0x35D7      |       13783 |
|     494 | 0x35D8      |       13784 |
|     495 | 0x35D9      |       13785 |
|     496 | 0x35DA      |       13786 |
|     497 | 0x35DB      |       13787 |
|     498 | 0x35DC      |       13788 |
|     499 | 0x35DD      |       13789 |
|     500 | 0x35DE      |       13790 |
|     501 | 0x35DF      |       13791 |
|     502 | 0x3321      |       13089 |
|     503 | 0x20AF      |        8367 |
|     504 | 0x35E0      |       13792 |
|     505 | 0x007D      |         125 |
|     506 | 0x35E1      |       13793 |
|     507 | 0x35E2      |       13794 |
|     508 | 0x35E3      |       13795 |
|     509 | 0x35E4      |       13796 |
|     510 | 0x00C9      |         201 |
|     511 | 0x00D7      |         215 |

## String References

- **13688**: 
- **13692**: ...I repeataru, by decree of the Warlock Warlord, a state of emergency has been declared for all wards of the capital.
- **13693**: Civilians: stay calm, do not panic, and proceed in an orderly-worderly fashion to the designated sheltaru in Heavens Tower. Active combatants are to report to their commanding officer for immediate briefing.
- **13730**: Place your trust in Robel-Akbel? [I shall, unwaveringly./...]
- **13756**: What concerns you? [The original Robel-Akbel./Your true identity.]
- **13773**: Do they live in happiness? [They do./...]

## Events

### Event 65535

#### Metadata

| Field        | Value   |
|--------------|---------|
| Entrypoint   | 0x0000  |
| Data Size    | 1 bytes |
| Instructions | 1       |

```
      00 01 02 03 04 05 06 07  08 09 0A 0B 0C 0D 0E 0F
      -- -- -- -- -- -- -- --  -- -- -- -- -- -- -- --
0000: 00                                                .               
```

#### Opcodes

```
  0: 0x0000 [0x00] END_REQSTACK()
```

### Event 23

#### Metadata

| Field        | Value      |
|--------------|------------|
| Entrypoint   | 0x0001     |
| Data Size    | 8922 bytes |
| Instructions | 1146       |

```
      00 01 02 03 04 05 06 07  08 09 0A 0B 0C 0D 0E 0F
      -- -- -- -- -- -- -- --  -- -- -- -- -- -- -- --
0000:    42 1A 93 3F 46 01 38  00 80 4E 00 F0 FF FF 7F   B..?F.8..N.....
0010: 2F 00 08 E2 05 01 2F 00  44 E2 05 01 2F 00 45 E2  /...../.D.../.E.
0020: 05 01 2F 00 1D E2 05 01  2F 00 1E E2 05 01 2F 00  ../...../...../.
0030: 20 E2 05 01 2F 00 22 E2  05 01 2F 00 23 E2 05 01   .../.".../.#...
0040: 2F 00 24 E2 05 01 2F 00  28 E2 05 01 2F 00 93 E2  /.$.../.(.../...
0050: 05 01 2F 00 95 E2 05 01  2F 00 FE E2 05 01 2F 00  ../...../...../.
0060: 00 E3 05 01 4E 00 08 E2  05 01 4E 00 44 E2 05 01  ....N.....N.D...
0070: 4E 00 45 E2 05 01 4E 00  1D E2 05 01 4E 00 1E E2  N.E...N.....N...
0080: 05 01 4E 00 20 E2 05 01  4E 00 22 E2 05 01 4E 00  ..N. ...N."...N.
0090: 23 E2 05 01 4E 00 24 E2  05 01 4E 00 28 E2 05 01  #...N.$...N.(...
00A0: 4E 00 93 E2 05 01 4E 00  95 E2 05 01 4E 00 FE E2  N.....N.....N...
00B0: 05 01 4E 00 00 E3 05 01  92 01 08 E2 05 01 92 01  ..N.............
00C0: 44 E2 05 01 92 01 45 E2  05 01 92 01 1D E2 05 01  D.....E.........
00D0: 92 01 1E E2 05 01 92 01  20 E2 05 01 92 01 22 E2  ........ .....".
00E0: 05 01 92 01 23 E2 05 01  92 01 24 E2 05 01 92 01  ....#.....$.....
00F0: 28 E2 05 01 92 01 93 E2  05 01 92 01 95 E2 05 01  (...............
0100: 92 01 FE E2 05 01 92 01  00 E3 05 01 94 01 F0 FF  ................
0110: FF 7F 94 01 08 E2 05 01  94 01 44 E2 05 01 94 01  ..........D.....
0120: 45 E2 05 01 94 01 1D E2  05 01 94 01 1E E2 05 01  E...............
0130: 94 01 20 E2 05 01 94 01  22 E2 05 01 94 01 23 E2  .. .....".....#.
0140: 05 01 94 01 24 E2 05 01  94 01 28 E2 05 01 94 01  ....$.....(.....
0150: 93 E2 05 01 94 01 95 E2  05 01 94 01 FE E2 05 01  ................
0160: 94 01 00 E3 05 01 BA F0  FF FF 7F 01 80 02 80 03  ................
0170: 80 04 80 BA 08 E2 05 01  05 80 06 80 07 80 08 80  ................
0180: BA 44 E2 05 01 09 80 0A  80 0B 80 0C 80 BA 45 E2  .D............E.
0190: 05 01 09 80 0A 80 0B 80  0C 80 BA 1D E2 05 01 0D  ................
01A0: 80 0E 80 0F 80 10 80 BA  1E E2 05 01 11 80 12 80  ................
01B0: 0F 80 13 80 BA 20 E2 05  01 14 80 15 80 16 80 17  ..... ..........
01C0: 80 BA 22 E2 05 01 18 80  19 80 16 80 1A 80 BA 23  .."............#
01D0: E2 05 01 1B 80 1C 80 1D  80 1E 80 BA 24 E2 05 01  ............$...
01E0: 1F 80 20 80 1D 80 21 80  BA 28 E2 05 01 22 80 23  .. ...!..(...".#
01F0: 80 16 80 24 80 BA 93 E2  05 01 25 80 26 80 0B 80  ...$......%.&...
0200: 27 80 BA 95 E2 05 01 28  80 29 80 0B 80 2A 80 BA  '......(.)...*..
0210: FE E2 05 01 2B 80 2C 80  1D 80 2D 80 BA 00 E3 05  ....+.,...-.....
0220: 01 2E 80 2F 80 1D 80 30  80 80 F0 FF FF 7F 80 08  .../...0........
0230: E2 05 01 80 44 E2 05 01  80 45 E2 05 01 80 1D E2  ....D....E......
0240: 05 01 80 1E E2 05 01 80  20 E2 05 01 80 22 E2 05  ........ ...."..
0250: 01 80 23 E2 05 01 80 24  E2 05 01 80 28 E2 05 01  ..#....$....(...
0260: 80 93 E2 05 01 80 95 E2  05 01 80 FE E2 05 01 80  ................
0270: 00 E3 05 01 1C 31 80 4A  93 E2 05 01 95 E2 05 01  .....1.J........
0280: 4A 95 E2 05 01 93 E2 05  01 29 10 1D E2 05 01 02  J........)......
0290: 29 10 1E E2 05 01 02 29  10 20 E2 05 01 02 29 10  )......). ....).
02A0: 22 E2 05 01 02 29 10 23  E2 05 01 02 29 10 24 E2  "....).#....).$.
02B0: 05 01 02 29 10 FE E2 05  01 08 29 10 00 E3 05 01  ...)......).....
02C0: 08 1C 32 80 27 10 F0 FF  FF 7F 70 45 33 80 F0 FF  ..2.'.....pE3...
02D0: FF 7F F0 FF FF 7F 30 34  30 36 34 80 5D 35 80 36  ......04064.]5.6
02E0: 80 1A 72 3F 1C 37 80 29  10 08 E2 05 01 4E 1C 38  ..r?.7.).....N.8
02F0: 80 27 10 08 E2 05 01 4F  52 33 80 F0 FF FF 7F F0  .'.....OR3......
0300: FF FF 7F 30 34 30 36 45  33 80 F0 FF FF 7F F0 FF  ...0406E3.......
0310: FF 7F 30 34 30 30 34 80  2B 08 E2 05 01 39 80 5D  ..04004.+....9.]
0320: 34 80 3A 80 1C 3B 80 23  52 33 80 F0 FF FF 7F F0  4.:..;.#R3......
0330: FF FF 7F 30 34 30 30 45  33 80 F0 FF FF 7F F0 FF  ...0400E3.......
0340: FF 7F 30 34 30 31 34 80  2B 08 E2 05 01 3C 80 23  ..04014.+....<.#
0350: 2A 10 08 E2 05 01 2B 08  E2 05 01 3D 80 23 5C 00  *.....+....=.#\.
0360: 3E 80 5C 01 3E 80 5C 02  3E 80 5C 03 3E 80 5D 35  >.\.>.\.>.\.>.]5
0370: 80 3F 80 9A 48 40 80 1C  41 80 52 33 80 F0 FF FF  .?..H@..A.R3....
0380: 7F F0 FF FF 7F 30 34 30  31 45 33 80 F0 FF FF 7F  .....0401E3.....
0390: F0 FF FF 7F 30 34 31 6B  34 80 4B 08 E2 05 01 42  ....041k4.K....B
03A0: 80 1C 43 80 23 1A 93 3F  48 44 80 1C 38 80 79 00  ..C.#..?HD..8.y.
03B0: 28 E2 05 01 20 E2 05 01  1C 38 80 66 45 80 28 E2  (... ....8.fE.(.
03C0: 05 01 28 E2 05 01 74 6C  6B 30 27 10 FE E2 05 01  ..(...tlk0'.....
03D0: 0F 27 10 00 E3 05 01 11  27 10 44 E2 05 01 13 27  .'......'.D....'
03E0: 10 45 E2 05 01 15 52 33  80 F0 FF FF 7F F0 FF FF  .E....R3........
03F0: 7F 30 34 31 6B 45 33 80  F0 FF FF 7F F0 FF FF 7F  .041kE3.........
0400: 30 34 30 32 34 80 1A 72  3F 27 10 1E E2 05 01 0E  04024..r?'......
0410: 1C 36 80 48 46 80 1C 38  80 52 33 80 F0 FF FF 7F  .6.HF..8.R3.....
0420: F0 FF FF 7F 30 34 30 32  45 33 80 F0 FF FF 7F F0  ....0402E3......
0430: FF FF 7F 30 34 31 62 34  80 27 10 1D E2 05 01 0D  ...041b4.'......
0440: 1C 3B 80 52 33 80 F0 FF  FF 7F F0 FF FF 7F 30 34  .;.R3.........04
0450: 31 62 45 33 80 F0 FF FF  7F F0 FF FF 7F 30 34 31  1bE3.........041
0460: 64 34 80 48 40 80 1C 47  80 52 33 80 F0 FF FF 7F  d4.H@..G.R3.....
0470: F0 FF FF 7F 30 34 31 64  45 33 80 F0 FF FF 7F F0  ....041dE3......
0480: FF FF 7F 30 34 31 65 34  80 1C 48 80 52 33 80 F0  ...041e4..H.R3..
0490: FF FF 7F F0 FF FF 7F 30  34 31 65 45 33 80 F0 FF  .......041eE3...
04A0: FF 7F F0 FF FF 7F 30 34  31 63 34 80 1C 36 80 48  ......041c4..6.H
04B0: 46 80 1C 3B 80 23 1A 93  3F 52 33 80 F0 FF FF 7F  F..;.#..?R3.....
04C0: F0 FF FF 7F 30 34 31 63  48 44 80 7A 00 1D E2 05  ....041cHD.z....
04D0: 01 7A 00 1E E2 05 01 7A  00 FE E2 05 01 7A 00 00  .z.....z.....z..
04E0: E3 05 01 7A 00 44 E2 05  01 7A 00 45 E2 05 01 1C  ...z.D...z.E....
04F0: 31 80 1C 36 80 52 33 80  F0 FF FF 7F F0 FF FF 7F  1..6.R3.........
0500: 30 34 30 32 45 33 80 F0  FF FF 7F F0 FF FF 7F 30  0402E3.........0
0510: 34 30 33 34 80 1A 72 3F  4A 08 E2 05 01 F0 FF FF  4034..r?J.......
0520: 7F 2B 08 E2 05 01 49 80  23 6E F0 FF FF 7F 4A 80  .+....I.#n....J.
0530: 99 F0 FF FF 7F 1C 38 80  52 33 80 F0 FF FF 7F F0  ......8.R3......
0540: FF FF 7F 30 34 30 33 45  33 80 F0 FF FF 7F F0 FF  ...0403E3.......
0550: FF 7F 30 34 30 37 34 80  27 10 08 E2 05 01 50 27  ..04074.'.....P'
0560: 10 F0 FF FF 7F 71 1C 36  80 1A 93 3F 4E 01 44 E2  .....q.6...?N.D.
0570: 05 01 4E 01 45 E2 05 01  4E 01 1D E2 05 01 4E 01  ..N.E...N.....N.
0580: 1E E2 05 01 4E 01 20 E2  05 01 4E 01 22 E2 05 01  ....N. ...N."...
0590: 4E 01 23 E2 05 01 4E 01  24 E2 05 01 4E 01 28 E2  N.#...N.$...N.(.
05A0: 05 01 4E 01 93 E2 05 01  4E 01 95 E2 05 01 4E 01  ..N.....N.....N.
05B0: FE E2 05 01 4E 01 00 E3  05 01 1C 31 80 7A 00 F0  ....N......1.z..
05C0: FF FF 7F 7A 00 08 E2 05  01 52 33 80 F0 FF FF 7F  ...z.....R3.....
05D0: F0 FF FF 7F 30 34 30 37  34 4B 80 77 4C 80 3F 80  ....04074K.wL.?.
05E0: AB 09 1C 32 80 4E 00 D4  E2 05 01 4E 00 D5 E2 05  ...2.N.....N....
05F0: 01 4E 00 D6 E2 05 01 4E  00 D7 E2 05 01 4E 00 D8  .N.....N.....N..
0600: E2 05 01 4E 00 D9 E2 05  01 4E 00 DA E2 05 01 4E  ...N.....N.....N
0610: 00 DB E2 05 01 4E 00 DC  E2 05 01 4E 00 DD E2 05  .....N.....N....
0620: 01 4E 00 E2 E2 05 01 BA  D4 E2 05 01 4D 80 4E 80  .N..........M.N.
0630: 4F 80 50 80 BA D5 E2 05  01 51 80 52 80 53 80 54  O.P......Q.R.S.T
0640: 80 BA D6 E2 05 01 55 80  56 80 53 80 50 80 BA D7  ......U.V.S.P...
0650: E2 05 01 57 80 58 80 53  80 54 80 BA D8 E2 05 01  ...W.X.S.T......
0660: 59 80 5A 80 53 80 54 80  BA D9 E2 05 01 5B 80 5C  Y.Z.S.T......[.\
0670: 80 53 80 50 80 BA DA E2  05 01 5D 80 5E 80 53 80  .S.P......].^.S.
0680: 54 80 BA DB E2 05 01 5F  80 60 80 53 80 50 80 BA  T......_.`.S.P..
0690: DC E2 05 01 61 80 62 80  4F 80 50 80 BA DD E2 05  ....a.b.O.P.....
06A0: 01 63 80 64 80 53 80 54  80 BA E2 E2 05 01 65 80  .c.d.S.T......e.
06B0: 66 80 53 80 50 80 1C 32  80 92 01 D4 E2 05 01 92  f.S.P..2........
06C0: 01 D5 E2 05 01 92 01 D6  E2 05 01 92 01 D7 E2 05  ................
06D0: 01 92 01 D8 E2 05 01 92  01 D9 E2 05 01 92 01 DA  ................
06E0: E2 05 01 92 01 DB E2 05  01 92 01 DC E2 05 01 92  ................
06F0: 01 DD E2 05 01 92 01 E2  E2 05 01 80 F0 FF FF 7F  ................
0700: 80 D4 E2 05 01 80 D5 E2  05 01 80 D6 E2 05 01 80  ................
0710: D7 E2 05 01 80 D8 E2 05  01 80 D9 E2 05 01 80 DA  ................
0720: E2 05 01 80 DB E2 05 01  80 DC E2 05 01 80 DD E2  ................
0730: 05 01 80 E2 E2 05 01 1C  32 80 27 10 D4 E2 05 01  ........2.'.....
0740: 02 27 10 D5 E2 05 01 02  27 10 D6 E2 05 01 03 27  .'......'......'
0750: 10 D7 E2 05 01 02 27 10  D8 E2 05 01 02 27 10 D9  ......'......'..
0760: E2 05 01 03 27 10 DA E2  05 01 03 27 10 DB E2 05  ....'......'....
0770: 01 02 27 10 DC E2 05 01  03 27 10 DD E2 05 01 02  ..'......'......
0780: 27 10 E2 E2 05 01 03 45  33 80 F0 FF FF 7F F0 FF  '......E3.......
0790: FF 7F 62 6C 6F 66 34 80  45 33 80 F0 FF FF 7F F0  ..blof4.E3......
07A0: FF FF 7F 30 34 31 61 34  80 1A 72 3F 1C 67 80 5D  ...041a4..r?.g.]
07B0: 34 80 68 80 1A 93 3F 7A  00 D4 E2 05 01 7A 00 D5  4.h...?z.....z..
07C0: E2 05 01 7A 00 D6 E2 05  01 7A 00 D7 E2 05 01 7A  ...z.....z.....z
07D0: 00 D8 E2 05 01 7A 00 D9  E2 05 01 7A 00 DA E2 05  .....z.....z....
07E0: 01 7A 00 DB E2 05 01 7A  00 DC E2 05 01 7A 00 DD  .z.....z.....z..
07F0: E2 05 01 7A 00 E2 E2 05  01 52 33 80 F0 FF FF 7F  ...z.....R3.....
0800: F0 FF FF 7F 30 34 31 61  34 69 80 77 4C 80 3F 80  ....041a4i.wL.?.
0810: AB 09 1C 32 80 75 00 6A  80 75 01 5C 00 6B 80 5C  ...2.u.j.u.\.k.\
0820: 01 6B 80 5C 02 6B 80 5C  03 6B 80 9A 5D 35 80 36  .k.\.k.\.k..]5.6
0830: 80 48 44 80 4E 00 06 E2  05 01 4E 00 DE E2 05 01  .HD.N.....N.....
0840: 4E 00 DF E2 05 01 4E 00  E0 E2 05 01 4E 00 E1 E2  N.....N.....N...
0850: 05 01 4E 00 E3 E2 05 01  4E 00 E4 E2 05 01 4E 00  ..N.....N.....N.
0860: E5 E2 05 01 4E 00 E6 E2  05 01 4E 00 E7 E2 05 01  ....N.....N.....
0870: 59 05 06 E2 05 01 01 BA  06 E2 05 01 6C 80 6D 80  Y...........l.m.
0880: 3A 80 6E 80 BA D4 E2 05  01 6F 80 70 80 34 80 71  :.n......o.p.4.q
0890: 80 BA D5 E2 05 01 72 80  73 80 34 80 74 80 BA D6  ......r.s.4.t...
08A0: E2 05 01 75 80 76 80 77  80 71 80 BA D7 E2 05 01  ...u.v.w.q......
08B0: 78 80 79 80 7A 80 7B 80  BA D8 E2 05 01 7C 80 7D  x.y.z.{......|.}
08C0: 80 77 80 7E 80 BA D9 E2  05 01 7F 80 80 80 81 80  .w.~............
08D0: 74 80 BA DA E2 05 01 82  80 83 80 81 80 74 80 BA  t............t..
08E0: DB E2 05 01 84 80 85 80  77 80 74 80 BA DC E2 05  ........w.t.....
08F0: 01 86 80 87 80 34 80 74  80 BA DD E2 05 01 88 80  .....4.t........
0900: 89 80 77 80 74 80 BA DE  E2 05 01 8A 80 8B 80 34  ..w.t..........4
0910: 80 8C 80 BA DF E2 05 01  8D 80 8E 80 34 80 71 80  ............4.q.
0920: BA E0 E2 05 01 8F 80 90  80 77 80 71 80 BA E1 E2  .........w.q....
0930: 05 01 91 80 92 80 34 80  71 80 BA E2 E2 05 01 7C  ......4.q......|
0940: 80 7D 80 77 80 7E 80 BA  E3 E2 05 01 93 80 94 80  .}.w.~..........
0950: 34 80 95 80 BA E4 E2 05  01 96 80 97 80 34 80 71  4............4.q
0960: 80 BA E5 E2 05 01 98 80  99 80 81 80 71 80 BA E6  ............q...
0970: E2 05 01 9A 80 9B 80 34  80 71 80 BA E7 E2 05 01  .......4.q......
0980: 9C 80 9D 80 34 80 71 80  92 01 06 E2 05 01 92 01  ....4.q.........
0990: D4 E2 05 01 92 01 D5 E2  05 01 92 01 D6 E2 05 01  ................
09A0: 92 01 D7 E2 05 01 92 01  D8 E2 05 01 92 01 D9 E2  ................
09B0: 05 01 92 01 DA E2 05 01  92 01 DB E2 05 01 92 01  ................
09C0: DC E2 05 01 92 01 DD E2  05 01 92 01 DE E2 05 01  ................
09D0: 92 01 DF E2 05 01 92 01  E0 E2 05 01 92 01 E1 E2  ................
09E0: 05 01 92 01 E2 E2 05 01  92 01 E3 E2 05 01 92 01  ................
09F0: E4 E2 05 01 92 01 E5 E2  05 01 92 01 E6 E2 05 01  ................
0A00: 92 01 E7 E2 05 01 80 06  E2 05 01 80 D4 E2 05 01  ................
0A10: 80 D5 E2 05 01 80 D6 E2  05 01 80 D7 E2 05 01 80  ................
0A20: D8 E2 05 01 80 D9 E2 05  01 80 DA E2 05 01 80 DB  ................
0A30: E2 05 01 80 DC E2 05 01  80 DD E2 05 01 80 DE E2  ................
0A40: 05 01 80 DF E2 05 01 80  E0 E2 05 01 80 E1 E2 05  ................
0A50: 01 80 E2 E2 05 01 80 E3  E2 05 01 80 E4 E2 05 01  ................
0A60: 80 E5 E2 05 01 80 E6 E2  05 01 80 E7 E2 05 01 4A  ...............J
0A70: D4 E2 05 01 D5 E2 05 01  4A D5 E2 05 01 D4 E2 05  ........J.......
0A80: 01 4A D6 E2 05 01 DB E2  05 01 4A D7 E2 05 01 E5  .J........J.....
0A90: E2 05 01 4A DB E2 05 01  D6 E2 05 01 4A DF E2 05  ...J........J...
0AA0: 01 DE E2 05 01 4A E3 E2  05 01 DE E2 05 01 4A E4  .....J........J.
0AB0: E2 05 01 DE E2 05 01 4A  E5 E2 05 01 D7 E2 05 01  .......J........
0AC0: 4A E6 E2 05 01 E7 E2 05  01 4A E7 E2 05 01 E6 E2  J........J......
0AD0: 05 01 4A DD E2 05 01 E0  E2 05 01 4A E0 E2 05 01  ..J........J....
0AE0: DD E2 05 01 4A DC E2 05  01 E1 E2 05 01 4A E1 E2  ....J........J..
0AF0: 05 01 DC E2 05 01 5B 9E  80 06 E2 05 01 06 E2 05  ......[.........
0B00: 01 6D 71 30 30 5B 9F 80  D8 E2 05 01 D8 E2 05 01  .mq00[..........
0B10: 67 61 6B 75 5B A0 80 E2  E2 05 01 E2 E2 05 01 67  gaku[..........g
0B20: 61 6B 75 5B A1 80 E1 E2  05 01 E1 E2 05 01 6B 6F  aku[..........ko
0B30: 77 30 66 A2 80 D4 E2 05  01 D4 E2 05 01 74 68 6B  w0f..........thk
0B40: 31 66 A3 80 D5 E2 05 01  D5 E2 05 01 74 6C 62 30  1f..........tlb0
0B50: 66 A2 80 D6 E2 05 01 D6  E2 05 01 74 6C 6B 30 66  f..........tlk0f
0B60: A2 80 DB E2 05 01 DB E2  05 01 6F 62 69 30 66 A3  ..........obi0f.
0B70: 80 DE E2 05 01 DE E2 05  01 74 6C 62 30 5B A4 80  .........tlb0[..
0B80: E6 E2 05 01 E6 E2 05 01  74 6C 6B 30 5B A4 80 E7  ........tlk0[...
0B90: E2 05 01 E7 E2 05 01 74  68 6B 31 5B A4 80 E4 E2  .......thk1[....
0BA0: 05 01 E4 E2 05 01 61 77  77 30 5B A5 80 DE E2 05  ......aww0[.....
0BB0: 01 DE E2 05 01 74 6C 62  30 5B A1 80 DF E2 05 01  .....tlb0[......
0BC0: DF E2 05 01 6E 61 69 30  5B A6 80 E0 E2 05 01 E0  ....nai0[.......
0BD0: E2 05 01 74 6C 6B 30 5B  A1 80 E3 E2 05 01 E3 E2  ...tlk0[........
0BE0: 05 01 6B 6F 77 30 5B A1  80 E5 E2 05 01 E5 E2 05  ..kow0[.........
0BF0: 01 70 61 6E 30 1C 32 80  27 10 DC E2 05 01 02 45  .pan0.2.'......E
0C00: 33 80 F0 FF FF 7F F0 FF  FF 7F 30 34 31 66 34 80  3.........041f4.
0C10: 1A 72 3F 1C 37 80 52 33  80 F0 FF FF 7F F0 FF FF  .r?.7.R3........
0C20: 7F 30 34 31 66 45 33 80  F0 FF FF 7F F0 FF FF 7F  .041fE3.........
0C30: 30 34 31 39 34 80 27 10  D9 E2 05 01 02 27 10 DA  04194.'......'..
0C40: E2 05 01 02 1C A7 80 1A  93 3F 52 33 80 F0 FF FF  .........?R3....
0C50: 7F F0 FF FF 7F 30 34 31  39 59 05 06 E2 05 01 00  .....0419Y......
0C60: 1C A8 80 5D 34 80 43 80  75 00 A9 80 75 01 4E 01  ...]4.C.u...u.N.
0C70: 06 E2 05 01 4E 01 D4 E2  05 01 4E 01 D5 E2 05 01  ....N.....N.....
0C80: 4E 01 D6 E2 05 01 4E 01  D7 E2 05 01 4E 01 D8 E2  N.....N.....N...
0C90: 05 01 4E 01 D9 E2 05 01  4E 01 DA E2 05 01 4E 01  ..N.....N.....N.
0CA0: DB E2 05 01 4E 01 DC E2  05 01 4E 01 DD E2 05 01  ....N.....N.....
0CB0: 4E 01 DE E2 05 01 4E 01  DF E2 05 01 4E 01 E0 E2  N.....N.....N...
0CC0: 05 01 4E 01 E1 E2 05 01  4E 01 E2 E2 05 01 4E 01  ..N.....N.....N.
0CD0: E3 E2 05 01 4E 01 E4 E2  05 01 4E 01 E5 E2 05 01  ....N.....N.....
0CE0: 4E 01 E6 E2 05 01 4E 01  E7 E2 05 01 1C 31 80 4E  N.....N......1.N
0CF0: 00 18 E2 05 01 4E 00 36  E2 05 01 4E 00 07 E2 05  .....N.6...N....
0D00: 01 4E 00 0C E2 05 01 4E  00 0E E2 05 01 4E 00 0F  .N.....N.....N..
0D10: E2 05 01 4E 00 11 E2 05  01 4E 00 12 E2 05 01 4E  ...N.....N.....N
0D20: 00 10 E2 05 01 4E 00 13  E2 05 01 4E 00 2C E2 05  .....N.....N.,..
0D30: 01 4E 00 2D E2 05 01 4E  00 2E E2 05 01 4E 00 2F  .N.-...N.....N./
0D40: E2 05 01 4E 00 30 E2 05  01 4E 00 31 E2 05 01 4E  ...N.0...N.1...N
0D50: 00 32 E2 05 01 4E 00 9D  E2 05 01 4E 00 F3 E2 05  .2...N.....N....
0D60: 01 92 01 18 E2 05 01 92  01 36 E2 05 01 92 01 07  .........6......
0D70: E2 05 01 92 01 0C E2 05  01 92 01 0E E2 05 01 92  ................
0D80: 01 0F E2 05 01 92 01 11  E2 05 01 92 01 12 E2 05  ................
0D90: 01 92 01 10 E2 05 01 92  01 13 E2 05 01 92 01 2C  ...............,
0DA0: E2 05 01 92 01 2D E2 05  01 92 01 2E E2 05 01 92  .....-..........
0DB0: 01 2F E2 05 01 92 01 30  E2 05 01 92 01 31 E2 05  ./.....0.....1..
0DC0: 01 92 01 32 E2 05 01 92  01 9D E2 05 01 BA F0 FF  ...2............
0DD0: FF 7F AA 80 AB 80 AC 80  AD 80 BA 18 E2 05 01 AE  ................
0DE0: 80 AF 80 B0 80 B1 80 BA  36 E2 05 01 B2 80 B3 80  ........6.......
0DF0: B0 80 B1 80 BA 08 E2 05  01 AA 80 AB 80 AC 80 AD  ................
0E00: 80 BA 07 E2 05 01 B4 80  B5 80 B6 80 B7 80 BA 0C  ................
0E10: E2 05 01 B8 80 B9 80 B6  80 AD 80 BA 0E E2 05 01  ................
0E20: BA 80 BB 80 B6 80 AD 80  BA 0F E2 05 01 BC 80 BD  ................
0E30: 80 B6 80 BE 80 BA 11 E2  05 01 BF 80 C0 80 B6 80  ................
0E40: C1 80 BA 12 E2 05 01 C2  80 C3 80 B6 80 C4 80 BA  ................
0E50: 10 E2 05 01 C5 80 C6 80  C7 80 C8 80 BA 13 E2 05  ................
0E60: 01 C9 80 CA 80 B6 80 CB  80 BA 2C E2 05 01 CC 80  ..........,.....
0E70: CD 80 B6 80 AD 80 BA 2D  E2 05 01 CE 80 CF 80 C7  .......-........
0E80: 80 D0 80 BA 2E E2 05 01  D1 80 D2 80 C7 80 D0 80  ................
0E90: BA 2F E2 05 01 D3 80 D4  80 C7 80 D0 80 BA 30 E2  ./............0.
0EA0: 05 01 D5 80 D6 80 B6 80  AD 80 BA 31 E2 05 01 AA  ...........1....
0EB0: 80 AB 80 AC 80 AD 80 BA  32 E2 05 01 D7 80 D8 80  ........2.......
0EC0: C7 80 D9 80 BA 9D E2 05  01 AA 80 AB 80 AC 80 AD  ................
0ED0: 80 BA F3 E2 05 01 DA 80  DB 80 B0 80 71 80 80 F0  ............q...
0EE0: FF FF 7F 80 36 E2 05 01  80 08 E2 05 01 80 18 E2  ....6...........
0EF0: 05 01 80 07 E2 05 01 80  0C E2 05 01 80 0E E2 05  ................
0F00: 01 80 0F E2 05 01 80 11  E2 05 01 80 12 E2 05 01  ................
0F10: 80 10 E2 05 01 80 13 E2  05 01 80 2C E2 05 01 80  ...........,....
0F20: 2D E2 05 01 80 2E E2 05  01 80 2F E2 05 01 80 30  -........./....0
0F30: E2 05 01 80 31 E2 05 01  80 32 E2 05 01 80 9D E2  ....1....2......
0F40: 05 01 80 F3 E2 05 01 4A  07 E2 05 01 18 E2 05 01  .......J........
0F50: 4A 0C E2 05 01 18 E2 05  01 4A 0E E2 05 01 18 E2  J........J......
0F60: 05 01 4A 0F E2 05 01 18  E2 05 01 4A 11 E2 05 01  ..J........J....
0F70: 18 E2 05 01 4A 12 E2 05  01 18 E2 05 01 4A 10 E2  ....J........J..
0F80: 05 01 18 E2 05 01 4A 13  E2 05 01 18 E2 05 01 4A  ......J........J
0F90: 2C E2 05 01 18 E2 05 01  4A 2D E2 05 01 18 E2 05  ,.......J-......
0FA0: 01 4A 2E E2 05 01 18 E2  05 01 4A 2F E2 05 01 18  .J........J/....
0FB0: E2 05 01 4A 30 E2 05 01  18 E2 05 01 4A 31 E2 05  ...J0.......J1..
0FC0: 01 18 E2 05 01 4A 32 E2  05 01 18 E2 05 01 7B 07  .....J2.......{.
0FD0: E2 05 01 7B 0C E2 05 01  7B 0E E2 05 01 7B 0F E2  ...{....{....{..
0FE0: 05 01 7B 11 E2 05 01 7B  12 E2 05 01 7B 10 E2 05  ..{....{....{...
0FF0: 01 7B 13 E2 05 01 7B 2C  E2 05 01 7B 2D E2 05 01  .{....{,...{-...
1000: 7B 2E E2 05 01 7B 2F E2  05 01 7B 30 E2 05 01 7B  {....{/...{0...{
1010: 31 E2 05 01 7B 32 E2 05  01 5B DC 80 18 E2 05 01  1...{2...[......
1020: 18 E2 05 01 67 65 6E 30  5B DD 80 0C E2 05 01 0C  ....gen0[.......
1030: E2 05 01 73 74 64 62 5B  DD 80 0F E2 05 01 0F E2  ...stdb[........
1040: 05 01 73 74 64 61 5B DD  80 13 E2 05 01 13 E2 05  ..stda[.........
1050: 01 73 74 64 62 5B DD 80  12 E2 05 01 12 E2 05 01  .stdb[..........
1060: 73 74 64 61 5B DD 80 10  E2 05 01 10 E2 05 01 73  stda[..........s
1070: 74 64 62 1C 32 80 5C 00  DE 80 5C 01 DE 80 5C 02  tdb.2.\...\...\.
1080: DE 80 5C 03 DE 80 9A 5D  35 80 36 80 45 33 80 F0  ..\....]5.6.E3..
1090: FF FF 7F F0 FF FF 7F 30  34 30 34 34 80 1A 72 3F  .......04044..r?
10A0: 1C 48 80 52 33 80 F0 FF  FF 7F F0 FF FF 7F 30 34  .H.R3.........04
10B0: 30 34 45 33 80 F0 FF FF  7F F0 FF FF 7F 30 34 31  04E3.........041
10C0: 67 34 80 27 10 08 E2 05  01 51 1C 31 80 27 10 F0  g4.'.....Q.1.'..
10D0: FF FF 7F 72 1C DF 80 52  33 80 F0 FF FF 7F F0 FF  ...r...R3.......
10E0: FF 7F 30 34 31 67 45 33  80 F0 FF FF 7F F0 FF FF  ..041gE3........
10F0: 7F 30 34 31 6C 34 80 1C  E0 80 52 33 80 F0 FF FF  .041l4....R3....
1100: 7F F0 FF FF 7F 30 34 31  6C 45 33 80 F0 FF FF 7F  .....041lE3.....
1110: F0 FF FF 7F 30 34 31 68  34 80 2B 08 E2 05 01 E1  ....041h4.+.....
1120: 80 1C 47 80 23 1A 93 3F  7A 00 F0 FF FF 7F 7A 00  ..G.#..?z.....z.
1130: 08 E2 05 01 BA F0 FF FF  7F E2 80 E3 80 C7 80 AD  ................
1140: 80 BA 08 E2 05 01 E4 80  E5 80 C7 80 AD 80 1C 32  ...............2
1150: 80 4A F0 FF FF 7F 18 E2  05 01 4A 08 E2 05 01 18  .J........J.....
1160: E2 05 01 7B F0 FF FF 7F  7B 08 E2 05 01 1C 32 80  ...{....{.....2.
1170: 52 33 80 F0 FF FF 7F F0  FF FF 7F 30 34 31 68 45  R3.........041hE
1180: 33 80 F0 FF FF 7F F0 FF  FF 7F 30 34 30 61 34 80  3.........040a4.
1190: 1A 72 3F 2B 18 E2 05 01  E6 80 23 52 33 80 F0 FF  .r?+......#R3...
11A0: FF 7F F0 FF FF 7F 30 34  30 61 45 33 80 F0 FF FF  ......040aE3....
11B0: 7F F0 FF FF 7F 30 34 30  39 34 80 2B 36 E2 05 01  .....04094.+6...
11C0: E7 80 23 52 33 80 F0 FF  FF 7F F0 FF FF 7F 30 34  ..#R3.........04
11D0: 30 39 45 33 80 F0 FF FF  7F F0 FF FF 7F 30 34 30  09E3.........040
11E0: 62 34 80 2B 36 E2 05 01  E8 80 23 2B 36 E2 05 01  b4.+6.....#+6...
11F0: E9 80 23 52 33 80 F0 FF  FF 7F F0 FF FF 7F 30 34  ..#R3.........04
1200: 30 62 45 33 80 F0 FF FF  7F F0 FF FF 7F 30 34 30  0bE3.........040
1210: 38 34 80 2B 18 E2 05 01  EA 80 23 2B 18 E2 05 01  84.+......#+....
1220: EB 80 23 52 33 80 F0 FF  FF 7F F0 FF FF 7F 30 34  ..#R3.........04
1230: 30 38 45 33 80 F0 FF FF  7F F0 FF FF 7F 30 34 30  08E3.........040
1240: 63 34 80 2B 18 E2 05 01  EC 80 23 2B 18 E2 05 01  c4.+......#+....
1250: ED 80 23 52 33 80 F0 FF  FF 7F F0 FF FF 7F 30 34  ..#R3.........04
1260: 30 63 45 33 80 F0 FF FF  7F F0 FF FF 7F 30 34 30  0cE3.........040
1270: 67 34 80 2B 36 E2 05 01  EE 80 23 52 33 80 F0 FF  g4.+6.....#R3...
1280: FF 7F F0 FF FF 7F 30 34  30 67 45 33 80 F0 FF FF  ......040gE3....
1290: 7F F0 FF FF 7F 30 34 30  68 34 80 4A 36 E2 05 01  .....040h4.J6...
12A0: 08 E2 05 01 2B 36 E2 05  01 EF 80 1C 48 80 23 2B  ....+6......H.#+
12B0: 08 E2 05 01 F0 80 23 52  33 80 F0 FF FF 7F F0 FF  ......#R3.......
12C0: FF 7F 30 34 30 68 45 33  80 F0 FF FF 7F F0 FF FF  ..040hE3........
12D0: 7F 30 34 30 69 34 80 5B  F1 80 36 E2 05 01 36 E2  .040i4.[..6...6.
12E0: 05 01 74 6C 62 30 2B 36  E2 05 01 F2 80 1C 48 80  ..tlb0+6......H.
12F0: 23 5B F1 80 36 E2 05 01  36 E2 05 01 74 6C 62 31  #[..6...6...tlb1
1300: 52 33 80 F0 FF FF 7F F0  FF FF 7F 30 34 30 69 45  R3.........040iE
1310: 33 80 F0 FF FF 7F F0 FF  FF 7F 30 34 30 6A 34 80  3.........040j4.
1320: 2B 36 E2 05 01 F3 80 23  6E 08 E2 05 01 F4 80 99  +6.....#n.......
1330: 08 E2 05 01 2B 08 E2 05  01 F5 80 1C 3B 80 23 52  ....+.......;.#R
1340: 33 80 F0 FF FF 7F F0 FF  FF 7F 30 34 30 6A 45 33  3.........040jE3
1350: 80 F0 FF FF 7F F0 FF FF  7F 30 34 30 64 34 80 2B  .........040d4.+
1360: 18 E2 05 01 F6 80 23 52  33 80 F0 FF FF 7F F0 FF  ......#R3.......
1370: FF 7F 30 34 30 64 45 33  80 F0 FF FF 7F F0 FF FF  ..040dE3........
1380: 7F 30 34 30 6B 34 80 5B  F7 80 08 E2 05 01 08 E2  .040k4.[........
1390: 05 01 73 74 62 30 2B 08  E2 05 01 F8 80 4B 36 E2  ..stb0+......K6.
13A0: 05 01 B1 80 1C 3B 80 23  52 33 80 F0 FF FF 7F F0  .....;.#R3......
13B0: FF FF 7F 30 34 30 6B 45  33 80 F0 FF FF 7F F0 FF  ...040kE3.......
13C0: FF 7F 30 34 31 69 34 80  BA 31 E2 05 01 F9 80 FA  ..041i4..1......
13D0: 80 B6 80 AD 80 5B F7 80  08 E2 05 01 08 E2 05 01  .....[..........
13E0: 73 74 62 31 2B 18 E2 05  01 FB 80 23 27 10 31 E2  stb1+......#'.1.
13F0: 05 01 07 52 33 80 F0 FF  FF 7F F0 FF FF 7F 30 34  ...R3.........04
1400: 31 69 45 33 80 F0 FF FF  7F F0 FF FF 7F 30 34 30  1iE3.........040
1410: 65 34 80 1C 31 80 2B 31  E2 05 01 FC 80 1C 48 80  e4..1.+1......H.
1420: 52 33 80 F0 FF FF 7F F0  FF FF 7F 30 34 30 65 45  R3.........040eE
1430: 33 80 F0 FF FF 7F F0 FF  FF 7F 30 34 30 66 34 80  3.........040f4.
1440: 2A 10 31 E2 05 01 4A 36  E2 05 01 31 E2 05 01 81  *.1...J6...1....
1450: 00 36 E2 05 01 5B FD 80  36 E2 05 01 36 E2 05 01  .6...[..6...6...
1460: 66 69 30 30 1C 36 80 23  52 33 80 F0 FF FF 7F F0  fi00.6.#R3......
1470: FF FF 7F 30 34 30 66 45  33 80 F0 FF FF 7F F0 FF  ...040fE3.......
1480: FF 7F 30 34 30 6D 34 80  5B FD 80 36 E2 05 01 36  ..040m4.[..6...6
1490: E2 05 01 66 69 30 31 2B  36 E2 05 01 FE 80 23 81  ...fi01+6.....#.
14A0: 01 36 E2 05 01 5B FD 80  36 E2 05 01 36 E2 05 01  .6...[..6...6...
14B0: 66 30 30 30 52 33 80 F0  FF FF 7F F0 FF FF 7F 30  f000R3.........0
14C0: 34 30 6D 45 33 80 F0 FF  FF 7F F0 FF FF 7F 30 34  40mE3.........04
14D0: 30 6E 34 80 2B 31 E2 05  01 FF 80 23 5D 34 80 48  0n4.+1.....#]4.H
14E0: 80 52 33 80 F0 FF FF 7F  F0 FF FF 7F 30 34 30 6E  .R3.........040n
14F0: 45 33 80 F0 FF FF 7F F0  FF FF 7F 30 34 30 6F 34  E3.........040o4
1500: 80 1C 00 81 4A F0 FF FF  7F 31 E2 05 01 4A 08 E2  ....J....1...J..
1510: 05 01 31 E2 05 01 4A 07  E2 05 01 31 E2 05 01 4A  ..1...J....1...J
1520: 0C E2 05 01 31 E2 05 01  4A 0E E2 05 01 31 E2 05  ....1...J....1..
1530: 01 4A 0F E2 05 01 31 E2  05 01 4A 11 E2 05 01 31  .J....1...J....1
1540: E2 05 01 4A 12 E2 05 01  31 E2 05 01 4A 10 E2 05  ...J....1...J...
1550: 01 31 E2 05 01 4A 13 E2  05 01 31 E2 05 01 4A 2C  .1...J....1...J,
1560: E2 05 01 31 E2 05 01 4A  2D E2 05 01 31 E2 05 01  ...1...J-...1...
1570: 4A 2E E2 05 01 31 E2 05  01 4A 2F E2 05 01 31 E2  J....1...J/...1.
1580: 05 01 4A 30 E2 05 01 31  E2 05 01 4A 32 E2 05 01  ..J0...1...J2...
1590: 31 E2 05 01 6E 2F E2 05  01 01 81 99 2F E2 05 01  1...n/....../...
15A0: 6E 2C E2 05 01 01 81 99  2C E2 05 01 6E 32 E2 05  n,......,...n2..
15B0: 01 01 81 99 32 E2 05 01  6E 2D E2 05 01 01 81 99  ....2...n-......
15C0: 2D E2 05 01 1C DF 80 52  33 80 F0 FF FF 7F F0 FF  -......R3.......
15D0: FF 7F 30 34 30 6F 45 33  80 F0 FF FF 7F F0 FF FF  ..040oE3........
15E0: 7F 62 6C 6F 66 34 80 45  33 80 F0 FF FF 7F F0 FF  .blof4.E3.......
15F0: FF 7F 30 34 30 70 34 80  1C 36 80 2B 18 E2 05 01  ..040p4..6.+....
1600: 02 81 23 1A 93 3F BA 9D  E2 05 01 03 81 04 81 C7  ..#..?..........
1610: 80 05 81 4A F0 FF FF 7F  9D E2 05 01 4B 36 E2 05  ...J........K6..
1620: 01 B1 80 4A 08 E2 05 01  9D E2 05 01 4A 07 E2 05  ...J........J...
1630: 01 9D E2 05 01 4A 0C E2  05 01 9D E2 05 01 4A 0E  .....J........J.
1640: E2 05 01 9D E2 05 01 4A  0F E2 05 01 9D E2 05 01  .......J........
1650: 4A 11 E2 05 01 9D E2 05  01 4A 12 E2 05 01 9D E2  J........J......
1660: 05 01 4A 10 E2 05 01 9D  E2 05 01 4A 13 E2 05 01  ..J........J....
1670: 9D E2 05 01 4A 2C E2 05  01 9D E2 05 01 4A 2D E2  ....J,.......J-.
1680: 05 01 9D E2 05 01 4A 2E  E2 05 01 9D E2 05 01 4A  ......J........J
1690: 2F E2 05 01 9D E2 05 01  4A 30 E2 05 01 9D E2 05  /.......J0......
16A0: 01 4A 31 E2 05 01 9D E2  05 01 4A 32 E2 05 01 9D  .J1.......J2....
16B0: E2 05 01 1C 32 80 79 00  36 E2 05 01 9D E2 05 01  ....2.y.6.......
16C0: 79 00 18 E2 05 01 9D E2  05 01 5C 00 6B 80 5C 01  y.........\.k.\.
16D0: 6B 80 5C 02 6B 80 5C 03  6B 80 9A 5D 35 80 36 80  k.\.k.\.k..]5.6.
16E0: 27 10 9D E2 05 01 06 52  33 80 F0 FF FF 7F F0 FF  '......R3.......
16F0: FF 7F 30 34 30 70 45 33  80 F0 FF FF 7F F0 FF FF  ..040pE3........
1700: 7F 30 34 30 71 34 80 1A  72 3F 1C 43 80 52 33 80  .040q4..r?.C.R3.
1710: F0 FF FF 7F F0 FF FF 7F  30 34 30 71 45 33 80 F0  ........040qE3..
1720: FF FF 7F F0 FF FF 7F 30  34 30 72 34 80 7A 00 9D  .......040r4.z..
1730: E2 05 01 BA 9D E2 05 01  06 81 07 81 C7 80 08 81  ................
1740: 27 10 2F E2 05 01 0C 2B  2F E2 05 01 09 81 1C 3B  './....+/......;
1750: 80 23 5B DC 80 2E E2 05  01 2E E2 05 01 66 75 77  .#[..........fuw
1760: 61 81 00 2E E2 05 01 2B  2E E2 05 01 0A 81 23 81  a......+......#.
1770: 01 2E E2 05 01 27 10 9D  E2 05 01 07 1C A8 80 52  .....'.........R
1780: 33 80 F0 FF FF 7F F0 FF  FF 7F 30 34 30 72 45 33  3.........040rE3
1790: 80 F0 FF FF 7F F0 FF FF  7F 30 34 30 74 34 80 27  .........040t4.'
17A0: 10 2C E2 05 01 0C 27 10  30 E2 05 01 0C 27 10 32  .,....'.0....'.2
17B0: E2 05 01 03 2B 9D E2 05  01 0B 81 1C 0C 81 4A 2C  ....+.........J,
17C0: E2 05 01 9D E2 05 01 1C  31 80 4A 2D E2 05 01 9D  ........1.J-....
17D0: E2 05 01 1C 36 80 4A 32  E2 05 01 9D E2 05 01 2A  ....6.J2.......*
17E0: 10 9D E2 05 01 23 79 00  9D E2 05 01 30 E2 05 01  .....#y.....0...
17F0: 2B 30 E2 05 01 0D 81 23  2B 9D E2 05 01 0E 81 23  +0.....#+......#
1800: 52 33 80 F0 FF FF 7F F0  FF FF 7F 30 34 30 75 45  R3.........040uE
1810: 33 80 F0 FF FF 7F F0 FF  FF 7F 30 34 30 76 34 80  3.........040v4.
1820: 81 00 30 E2 05 01 5B DC  80 30 E2 05 01 30 E2 05  ..0...[..0...0..
1830: 01 67 61 68 32 2B 30 E2  05 01 0F 81 1C 47 80 23  .gah2+0......G.#
1840: 52 33 80 F0 FF FF 7F F0  FF FF 7F 30 34 30 76 45  R3.........040vE
1850: 33 80 F0 FF FF 7F F0 FF  FF 7F 30 34 30 73 34 80  3.........040s4.
1860: 81 01 30 E2 05 01 7B 9D  E2 05 01 27 10 9D E2 05  ..0...{....'....
1870: 01 08 2B 9D E2 05 01 10  81 1C 48 80 4A 30 E2 05  ..+.......H.J0..
1880: 01 9D E2 05 01 23 52 33  80 F0 FF FF 7F F0 FF FF  .....#R3........
1890: 7F 30 34 30 73 45 33 80  F0 FF FF 7F F0 FF FF 7F  .040sE3.........
18A0: 30 34 30 77 34 80 2B 18  E2 05 01 11 81 1C 48 80  040w4.+.......H.
18B0: 23 5B 12 81 9D E2 05 01  9D E2 05 01 73 6C 33 30  #[..........sl30
18C0: 1C 43 80 27 10 9D E2 05  01 09 52 33 80 F0 FF FF  .C.'......R3....
18D0: 7F F0 FF FF 7F 30 34 30  77 45 33 80 F0 FF FF 7F  .....040wE3.....
18E0: F0 FF FF 7F 30 34 30 79  34 80 1C 48 80 1A 93 3F  ....040y4..H...?
18F0: 7A 00 9D E2 05 01 BA 2C  E2 05 01 CC 80 CD 80 B6  z......,........
1900: 80 AD 80 BA 2D E2 05 01  13 81 14 81 B6 80 15 81  ....-...........
1910: BA 2F E2 05 01 16 81 17  81 B6 80 18 81 BA 30 E2  ./............0.
1920: 05 01 D5 80 D6 80 B6 80  AD 80 BA 32 E2 05 01 D7  ...........2....
1930: 80 D8 80 C7 80 D9 80 BA  9D E2 05 01 AA 80 AB 80  ................
1940: AC 80 AD 80 1C 32 80 4A  F0 FF FF 7F 18 E2 05 01  .....2.J........
1950: 4A 08 E2 05 01 18 E2 05  01 4A 07 E2 05 01 18 E2  J........J......
1960: 05 01 4A 0C E2 05 01 18  E2 05 01 4A 0E E2 05 01  ..J........J....
1970: 18 E2 05 01 4A 0F E2 05  01 18 E2 05 01 4A 11 E2  ....J........J..
1980: 05 01 18 E2 05 01 4A 12  E2 05 01 18 E2 05 01 4A  ......J........J
1990: 10 E2 05 01 18 E2 05 01  4A 13 E2 05 01 18 E2 05  ........J.......
19A0: 01 4A 2C E2 05 01 18 E2  05 01 4A 2D E2 05 01 18  .J,.......J-....
19B0: E2 05 01 4A 2E E2 05 01  18 E2 05 01 4A 2F E2 05  ...J........J/..
19C0: 01 18 E2 05 01 4A 30 E2  05 01 18 E2 05 01 4A 31  .....J0.......J1
19D0: E2 05 01 18 E2 05 01 4A  32 E2 05 01 18 E2 05 01  .......J2.......
19E0: 7B F0 FF FF 7F 7B 08 E2  05 01 7B 07 E2 05 01 7B  {....{....{....{
19F0: 0C E2 05 01 7B 0E E2 05  01 7B 0F E2 05 01 7B 11  ....{....{....{.
1A00: E2 05 01 7B 12 E2 05 01  7B 10 E2 05 01 7B 13 E2  ...{....{....{..
1A10: 05 01 7B 2C E2 05 01 7B  2D E2 05 01 7B 2E E2 05  ..{,...{-...{...
1A20: 01 7B 2F E2 05 01 7B 30  E2 05 01 7B 31 E2 05 01  .{/...{0...{1...
1A30: 7B 32 E2 05 01 7B 36 E2  05 01 7B 18 E2 05 01 1C  {2...{6...{.....
1A40: 32 80 52 33 80 F0 FF FF  7F F0 FF FF 7F 30 34 30  2.R3.........040
1A50: 79 45 33 80 F0 FF FF 7F  F0 FF FF 7F 30 34 30 78  yE3.........040x
1A60: 34 80 29 10 F0 FF FF 7F  0A 1C 32 80 1A 72 3F 2B  4.).......2..r?+
1A70: 18 E2 05 01 19 81 23 52  33 80 F0 FF FF 7F F0 FF  ......#R3.......
1A80: FF 7F 30 34 30 78 45 33  80 F0 FF FF 7F F0 FF FF  ..040xE3........
1A90: 7F 30 34 30 7A 34 80 27  10 F0 FF FF 7F 73 27 10  .040z4.'.....s'.
1AA0: 08 E2 05 01 52 27 10 07  E2 05 01 0E 27 10 0C E2  ....R'......'...
1AB0: 05 01 0E 27 10 0E E2 05  01 0B 27 10 0F E2 05 01  ...'......'.....
1AC0: 0D 27 10 11 E2 05 01 05  27 10 12 E2 05 01 05 27  .'......'......'
1AD0: 10 10 E2 05 01 0B 27 10  13 E2 05 01 09 27 10 2C  ......'......'.,
1AE0: E2 05 01 0D 27 10 2D E2  05 01 0C 27 10 2E E2 05  ....'.-....'....
1AF0: 01 0C 27 10 2F E2 05 01  0D 27 10 30 E2 05 01 0D  ..'./....'.0....
1B00: 27 10 31 E2 05 01 09 27  10 32 E2 05 01 04 1C 47  '.1....'.2.....G
1B10: 80 52 33 80 F0 FF FF 7F  F0 FF FF 7F 30 34 30 7A  .R3.........040z
1B20: 02 02 10 3F 80 80 3C 1B  45 33 80 F0 FF FF 7F F0  ...?..<.E3......
1B30: FF FF 7F 30 34 31 30 34  80 01 00 1C 02 02 10 1A  ...04104........
1B40: 81 80 58 1B 45 33 80 F0  FF FF 7F F0 FF FF 7F 30  ..X.E3.........0
1B50: 34 31 30 34 80 01 00 1C  02 02 10 1B 81 80 74 1B  4104..........t.
1B60: 45 33 80 F0 FF FF 7F F0  FF FF 7F 34 68 69 30 34  E3.........4hi04
1B70: 80 01 00 1C 02 02 10 1C  81 80 90 1B 45 33 80 F0  ............E3..
1B80: FF FF 7F F0 FF FF 7F 34  68 69 30 34 80 01 00 1C  .......4hi04....
1B90: 02 02 10 A8 80 80 AC 1B  45 33 80 F0 FF FF 7F F0  ........E3......
1BA0: FF FF 7F 34 73 68 30 34  80 01 00 1C 02 02 10 1D  ...4sh04........
1BB0: 81 80 C8 1B 45 33 80 F0  FF FF 7F F0 FF FF 7F 34  ....E3.........4
1BC0: 73 68 30 34 80 01 00 1C  02 02 10 4A 80 80 E4 1B  sh04.......J....
1BD0: 45 33 80 F0 FF FF 7F F0  FF FF 7F 30 34 31 30 34  E3.........04104
1BE0: 80 01 00 1C 02 02 10 1E  81 80 00 1C 45 33 80 F0  ............E3..
1BF0: FF FF 7F F0 FF FF 7F 34  68 69 30 34 80 01 00 1C  .......4hi04....
1C00: 2B 18 E2 05 01 1F 81 2A  10 F0 FF FF 7F 1C 31 80  +......*......1.
1C10: 23 5D 34 80 E0 80 1A 93  3F 4E 01 08 E2 05 01 4E  #]4.....?N.....N
1C20: 01 07 E2 05 01 4E 01 0C  E2 05 01 4E 01 0E E2 05  .....N.....N....
1C30: 01 4E 01 0F E2 05 01 4E  01 11 E2 05 01 4E 01 12  .N.....N.....N..
1C40: E2 05 01 4E 01 10 E2 05  01 4E 01 13 E2 05 01 4E  ...N.....N.....N
1C50: 01 2C E2 05 01 4E 01 2D  E2 05 01 4E 01 2E E2 05  .,...N.-...N....
1C60: 01 4E 01 2F E2 05 01 4E  01 30 E2 05 01 4E 01 31  .N./...N.0...N.1
1C70: E2 05 01 4E 01 32 E2 05  01 4E 01 9D E2 05 01 4E  ...N.2...N.....N
1C80: 01 36 E2 05 01 2F 01 08  E2 05 01 2F 01 07 E2 05  .6.../...../....
1C90: 01 2F 01 0C E2 05 01 2F  01 0E E2 05 01 2F 01 0F  ./...../...../..
1CA0: E2 05 01 2F 01 11 E2 05  01 2F 01 12 E2 05 01 2F  .../...../...../
1CB0: 01 10 E2 05 01 2F 01 13  E2 05 01 2F 01 2C E2 05  ...../...../.,..
1CC0: 01 2F 01 2D E2 05 01 2F  01 2E E2 05 01 2F 01 2F  ./.-.../....././
1CD0: E2 05 01 2F 01 30 E2 05  01 2F 01 31 E2 05 01 2F  .../.0.../.1.../
1CE0: 01 32 E2 05 01 2F 01 9D  E2 05 01 2F 01 36 E2 05  .2.../...../.6..
1CF0: 01 1C 31 80 BA F0 FF FF  7F 20 81 21 81 B6 80 22  ..1...... .!..."
1D00: 81 BA 18 E2 05 01 23 81  24 81 25 81 22 81 52 33  ......#.$.%.".R3
1D10: 80 F0 FF FF 7F F0 FF FF  7F 30 34 31 30 52 33 80  .........0410R3.
1D20: F0 FF FF 7F F0 FF FF 7F  34 68 69 30 52 33 80 F0  ........4hi0R3..
1D30: FF FF 7F F0 FF FF 7F 34  73 68 30 1C 3B 80 45 33  .......4sh0.;.E3
1D40: 80 F0 FF FF 7F F0 FF FF  7F 30 34 31 32 34 80 27  .........04124.'
1D50: 10 18 E2 05 01 26 27 10  F0 FF FF 7F 74 1A 72 3F  .....&'.....t.r?
1D60: 1C 37 80 52 33 80 F0 FF  FF 7F F0 FF FF 7F 30 34  .7.R3.........04
1D70: 31 32 45 33 80 F0 FF FF  7F F0 FF FF 7F 30 34 31  12E3.........041
1D80: 31 34 80 5C 00 26 81 5C  01 26 81 5C 02 26 81 5C  14.\.&.\.&.\.&.\
1D90: 03 26 81 2A 10 18 E2 05  01 9A 2B 18 E2 05 01 27  .&.*......+....'
1DA0: 81 1C 38 80 23 52 33 80  F0 FF FF 7F F0 FF FF 7F  ..8.#R3.........
1DB0: 30 34 31 31 45 33 80 F0  FF FF 7F F0 FF FF 7F 30  0411E3.........0
1DC0: 34 31 33 34 80 5B DC 80  18 E2 05 01 18 E2 05 01  4134.[..........
1DD0: 67 75 64 31 4A 18 E2 05  01 F0 FF FF 7F 2B 18 E2  gud1J........+..
1DE0: 05 01 28 81 1C 38 80 23  66 29 81 18 E2 05 01 18  ..(..8.#f)......
1DF0: E2 05 01 73 74 64 6C 24  2A 81 34 80 34 80 25 02  ...stdl$*.4.4.%.
1E00: 00 10 34 80 00 41 1E 52  33 80 F0 FF FF 7F F0 FF  ..4..A.R3.......
1E10: FF 7F 30 34 31 33 45 33  80 F0 FF FF 7F F0 FF FF  ..0413E3........
1E20: 7F 30 34 31 34 34 80 5B  DC 80 18 E2 05 01 18 E2  .04144.[........
1E30: 05 01 67 75 64 30 2B 18  E2 05 01 2B 81 23 01 83  ..gud0+....+.#..
1E40: 1E 02 00 10 3F 80 00 83  1E 52 33 80 F0 FF FF 7F  ....?....R3.....
1E50: F0 FF FF 7F 30 34 31 33  45 33 80 F0 FF FF 7F F0  ....0413E3......
1E60: FF FF 7F 30 34 31 34 34  80 5B DC 80 18 E2 05 01  ...04144.[......
1E70: 18 E2 05 01 67 75 64 30  2B 18 E2 05 01 2C 81 23  ....gud0+....,.#
1E80: 01 83 1E 52 33 80 F0 FF  FF 7F F0 FF FF 7F 30 34  ...R3.........04
1E90: 31 34 45 33 80 F0 FF FF  7F F0 FF FF 7F 30 34 31  14E3.........041
1EA0: 35 34 80 43 00 43 01 02  09 10 3F 80 00 BA 1E 2B  54.C.C....?....+
1EB0: 18 E2 05 01 2D 81 23 01  CA 1E 2B 18 E2 05 01 2E  ....-.#...+.....
1EC0: 81 23 2B 18 E2 05 01 2F  81 23 52 33 80 F0 FF FF  .#+..../.#R3....
1ED0: 7F F0 FF FF 7F 30 34 31  35 29 10 F0 FF FF 7F 0A  .....0415)......
1EE0: 02 02 10 3F 80 80 FC 1E  45 33 80 F0 FF FF 7F F0  ...?....E3......
1EF0: FF FF 7F 30 34 31 6D 34  80 01 C0 1F 02 02 10 1A  ...041m4........
1F00: 81 80 18 1F 45 33 80 F0  FF FF 7F F0 FF FF 7F 30  ....E3.........0
1F10: 34 31 6D 34 80 01 C0 1F  02 02 10 1B 81 80 34 1F  41m4..........4.
1F20: 45 33 80 F0 FF FF 7F F0  FF FF 7F 30 34 31 6D 34  E3.........041m4
1F30: 80 01 C0 1F 02 02 10 1C  81 80 50 1F 45 33 80 F0  ..........P.E3..
1F40: FF FF 7F F0 FF FF 7F 30  34 31 6D 34 80 01 C0 1F  .......041m4....
1F50: 02 02 10 A8 80 80 6C 1F  45 33 80 F0 FF FF 7F F0  ......l.E3......
1F60: FF FF 7F 30 34 31 6A 34  80 01 C0 1F 02 02 10 1D  ...041j4........
1F70: 81 80 88 1F 45 33 80 F0  FF FF 7F F0 FF FF 7F 30  ....E3.........0
1F80: 34 31 6A 34 80 01 C0 1F  02 02 10 4A 80 80 A4 1F  41j4.......J....
1F90: 45 33 80 F0 FF FF 7F F0  FF FF 7F 30 34 31 6D 34  E3.........041m4
1FA0: 80 01 C0 1F 02 02 10 1E  81 80 C0 1F 45 33 80 F0  ............E3..
1FB0: FF FF 7F F0 FF FF 7F 30  34 31 6D 34 80 01 C0 1F  .......041m4....
1FC0: 03 02 10 30 81 03 03 10  31 81 03 04 10 32 81 2B  ...0....1....2.+
1FD0: 18 E2 05 01 33 81 23 52  33 80 F0 FF FF 7F F0 FF  ....3.#R3.......
1FE0: FF 7F 30 34 31 6A 52 33  80 F0 FF FF 7F F0 FF FF  ..041jR3........
1FF0: 7F 30 34 31 6D 45 33 80  F0 FF FF 7F F0 FF FF 7F  .041mE3.........
2000: 30 34 31 36 34 80 2B 18  E2 05 01 34 81 23 52 33  04164.+....4.#R3
2010: 80 F0 FF FF 7F F0 FF FF  7F 30 34 31 36 29 10 F0  .........0416)..
2020: FF FF 7F 0A 02 02 10 3F  80 80 40 20 45 33 80 F0  .......?..@ E3..
2030: FF FF 7F F0 FF FF 7F 30  34 31 38 34 80 01 04 21  .......04184...!
2040: 02 02 10 1A 81 80 5C 20  45 33 80 F0 FF FF 7F F0  ......\ E3......
2050: FF FF 7F 34 68 66 30 34  80 01 04 21 02 02 10 1B  ...4hf04...!....
2060: 81 80 78 20 45 33 80 F0  FF FF 7F F0 FF FF 7F 34  ..x E3.........4
2070: 65 6D 30 34 80 01 04 21  02 02 10 1C 81 80 94 20  em04...!....... 
2080: 45 33 80 F0 FF FF 7F F0  FF FF 7F 34 65 66 30 34  E3.........4ef04
2090: 80 01 04 21 02 02 10 A8  80 80 B0 20 45 33 80 F0  ...!....... E3..
20A0: FF FF 7F F0 FF FF 7F 34  74 72 30 34 80 01 04 21  .......4tr04...!
20B0: 02 02 10 1D 81 80 CC 20  45 33 80 F0 FF FF 7F F0  ....... E3......
20C0: FF FF 7F 34 74 72 30 34  80 01 04 21 02 02 10 4A  ...4tr04...!...J
20D0: 80 80 E8 20 45 33 80 F0  FF FF 7F F0 FF FF 7F 34  ... E3.........4
20E0: 6D 74 30 34 80 01 04 21  02 02 10 1E 81 80 04 21  mt04...!.......!
20F0: 45 33 80 F0 FF FF 7F F0  FF FF 7F 34 67 6C 30 34  E3.........4gl04
2100: 80 01 04 21 2B 18 E2 05  01 35 81 23 52 33 80 F0  ...!+....5.#R3..
2110: FF FF 7F F0 FF FF 7F 30  34 31 38 52 33 80 F0 FF  .......0418R3...
2120: FF 7F F0 FF FF 7F 34 68  66 30 52 33 80 F0 FF FF  ......4hf0R3....
2130: 7F F0 FF FF 7F 34 65 6D  30 52 33 80 F0 FF FF 7F  .....4em0R3.....
2140: F0 FF FF 7F 34 65 66 30  52 33 80 F0 FF FF 7F F0  ....4ef0R3......
2150: FF FF 7F 34 74 72 30 52  33 80 F0 FF FF 7F F0 FF  ...4tr0R3.......
2160: FF 7F 34 6D 74 30 52 33  80 F0 FF FF 7F F0 FF FF  ..4mt0R3........
2170: 7F 34 67 6C 30 45 33 80  F0 FF FF 7F F0 FF FF 7F  .4gl0E3.........
2180: 30 34 31 37 34 80 2B 18  E2 05 01 36 81 23 52 33  04174.+....6.#R3
2190: 80 F0 FF FF 7F F0 FF FF  7F 30 34 31 37 29 10 F0  .........0417)..
21A0: FF FF 7F 0A 02 02 10 3F  80 80 C0 21 45 33 80 F0  .......?...!E3..
21B0: FF FF 7F F0 FF FF 7F 30  34 31 6E 34 80 01 84 22  .......041n4..."
21C0: 02 02 10 1A 81 80 DC 21  45 33 80 F0 FF FF 7F F0  .......!E3......
21D0: FF FF 7F 30 34 31 6E 34  80 01 84 22 02 02 10 1B  ...041n4..."....
21E0: 81 80 F8 21 45 33 80 F0  FF FF 7F F0 FF FF 7F 30  ...!E3.........0
21F0: 34 31 6E 34 80 01 84 22  02 02 10 1C 81 80 14 22  41n4..."......."
2200: 45 33 80 F0 FF FF 7F F0  FF FF 7F 30 34 31 6E 34  E3.........041n4
2210: 80 01 84 22 02 02 10 A8  80 80 30 22 45 33 80 F0  ..."......0"E3..
2220: FF FF 7F F0 FF FF 7F 30  34 30 35 34 80 01 84 22  .......04054..."
2230: 02 02 10 1D 81 80 4C 22  45 33 80 F0 FF FF 7F F0  ......L"E3......
2240: FF FF 7F 30 34 30 35 34  80 01 84 22 02 02 10 4A  ...04054..."...J
2250: 80 80 68 22 45 33 80 F0  FF FF 7F F0 FF FF 7F 30  ..h"E3.........0
2260: 34 31 6E 34 80 01 84 22  02 02 10 1E 81 80 84 22  41n4..."......."
2270: 45 33 80 F0 FF FF 7F F0  FF FF 7F 30 34 31 6E 34  E3.........041n4
2280: 80 01 84 22 1C 38 80 2B  18 E2 05 01 37 81 23 5D  ...".8.+....7.#]
2290: 34 80 67 80 1A 93 3F 1C  31 80 52 33 80 F0 FF FF  4.g...?.1.R3....
22A0: 7F F0 FF FF 7F 30 34 30  35 52 33 80 F0 FF FF 7F  .....0405R3.....
22B0: F0 FF FF 7F 30 34 31 6E  35 38 81 78 1C 31 80 AB  ....041n58.x.1..
22C0: 11 34 80 1C 3F 80 46 00  45 E0 80 F0 FF FF 7F F0  .4..?.F.E.......
22D0: FF FF 7F 66 64 69 32 34  80 21 00                 ...fdi24.!.     
```

#### Opcodes

```
  0: 0x0001 [0x42] SET_CLI_EVENT_CANCEL_DATA()
  1: 0x0002 [0x1A] CALL_SUBROUTINE(address=0x3F93)
  2: 0x0005 [0x46] CAMERA_CONTROL: Disable user control
  3: 0x0007 [0x38] SET_CLIENT_EVENT_MODE(mode=19*)
  4: 0x000A [0x4E] SET_ENTITY_HIDE_FLAG: Show LocalPlayer
  5: 0x0010 [0x2F] Romaa Mihgo (ID: 17162760/0x0105E208)->Render.Flags0 &= ~0x80000 // Bit 19
  6: 0x0016 [0x2F] 02 (ID: 17162820/0x0105E244)->Render.Flags0 &= ~0x80000 // Bit 19
  7: 0x001C [0x2F] 03 (ID: 17162821/0x0105E245)->Render.Flags0 &= ~0x80000 // Bit 19
  8: 0x0022 [0x2F] 01 (ID: 17162781/0x0105E21D)->Render.Flags0 &= ~0x80000 // Bit 19
  9: 0x0028 [0x2F] 02 (ID: 17162782/0x0105E21E)->Render.Flags0 &= ~0x80000 // Bit 19
 10: 0x002E [0x2F] 04 (ID: 17162784/0x0105E220)->Render.Flags0 &= ~0x80000 // Bit 19
 11: 0x0034 [0x2F] 06 (ID: 17162786/0x0105E222)->Render.Flags0 &= ~0x80000 // Bit 19
 12: 0x003A [0x2F] 07 (ID: 17162787/0x0105E223)->Render.Flags0 &= ~0x80000 // Bit 19
 13: 0x0040 [0x2F] Unnamed NPC (ID: 17162788/0x0105E224)->Render.Flags0 &= ~0x80000 // Bit 19
 14: 0x0046 [0x2F] Unnamed NPC (ID: 17162792/0x0105E228)->Render.Flags0 &= ~0x80000 // Bit 19
 15: 0x004C [0x2F] 01 (ID: 17162899/0x0105E293)->Render.Flags0 &= ~0x80000 // Bit 19
 16: 0x0052 [0x2F] 02 (ID: 17162901/0x0105E295)->Render.Flags0 &= ~0x80000 // Bit 19
 17: 0x0058 [0x2F] 01 (ID: 17163006/0x0105E2FE)->Render.Flags0 &= ~0x80000 // Bit 19
 18: 0x005E [0x2F] 03 (ID: 17163008/0x0105E300)->Render.Flags0 &= ~0x80000 // Bit 19
 19: 0x0064 [0x4E] SET_ENTITY_HIDE_FLAG: Show Romaa Mihgo (ID: 17162760/0x0105E208)
 20: 0x006A [0x4E] SET_ENTITY_HIDE_FLAG: Show 02 (ID: 17162820/0x0105E244)
 21: 0x0070 [0x4E] SET_ENTITY_HIDE_FLAG: Show 03 (ID: 17162821/0x0105E245)
 22: 0x0076 [0x4E] SET_ENTITY_HIDE_FLAG: Show 01 (ID: 17162781/0x0105E21D)
 23: 0x007C [0x4E] SET_ENTITY_HIDE_FLAG: Show 02 (ID: 17162782/0x0105E21E)
 24: 0x0082 [0x4E] SET_ENTITY_HIDE_FLAG: Show 04 (ID: 17162784/0x0105E220)
 25: 0x0088 [0x4E] SET_ENTITY_HIDE_FLAG: Show 06 (ID: 17162786/0x0105E222)
 26: 0x008E [0x4E] SET_ENTITY_HIDE_FLAG: Show 07 (ID: 17162787/0x0105E223)
 27: 0x0094 [0x4E] SET_ENTITY_HIDE_FLAG: Show Unnamed NPC (ID: 17162788/0x0105E224)
 28: 0x009A [0x4E] SET_ENTITY_HIDE_FLAG: Show Unnamed NPC (ID: 17162792/0x0105E228)
 29: 0x00A0 [0x4E] SET_ENTITY_HIDE_FLAG: Show 01 (ID: 17162899/0x0105E293)
 30: 0x00A6 [0x4E] SET_ENTITY_HIDE_FLAG: Show 02 (ID: 17162901/0x0105E295)
 31: 0x00AC [0x4E] SET_ENTITY_HIDE_FLAG: Show 01 (ID: 17163006/0x0105E2FE)
 32: 0x00B2 [0x4E] SET_ENTITY_HIDE_FLAG: Show 03 (ID: 17163008/0x0105E300)
 33: 0x00B8 [0x92] Romaa Mihgo (ID: 17162760/0x0105E208)->Render.Flags3 ^= 0x01
 34: 0x00BE [0x92] 02 (ID: 17162820/0x0105E244)->Render.Flags3 ^= 0x01
 35: 0x00C4 [0x92] 03 (ID: 17162821/0x0105E245)->Render.Flags3 ^= 0x01
 36: 0x00CA [0x92] 01 (ID: 17162781/0x0105E21D)->Render.Flags3 ^= 0x01
 37: 0x00D0 [0x92] 02 (ID: 17162782/0x0105E21E)->Render.Flags3 ^= 0x01
 38: 0x00D6 [0x92] 04 (ID: 17162784/0x0105E220)->Render.Flags3 ^= 0x01
 39: 0x00DC [0x92] 06 (ID: 17162786/0x0105E222)->Render.Flags3 ^= 0x01
 40: 0x00E2 [0x92] 07 (ID: 17162787/0x0105E223)->Render.Flags3 ^= 0x01
 41: 0x00E8 [0x92] Unnamed NPC (ID: 17162788/0x0105E224)->Render.Flags3 ^= 0x01
 42: 0x00EE [0x92] Unnamed NPC (ID: 17162792/0x0105E228)->Render.Flags3 ^= 0x01
 43: 0x00F4 [0x92] 01 (ID: 17162899/0x0105E293)->Render.Flags3 ^= 0x01
 44: 0x00FA [0x92] 02 (ID: 17162901/0x0105E295)->Render.Flags3 ^= 0x01
 45: 0x0100 [0x92] 01 (ID: 17163006/0x0105E2FE)->Render.Flags3 ^= 0x01
 46: 0x0106 [0x92] 03 (ID: 17163008/0x0105E300)->Render.Flags3 ^= 0x01
 47: 0x010C [0x94] LocalPlayer->Render.Flags3 ^= 0x01
 48: 0x0112 [0x94] Romaa Mihgo (ID: 17162760/0x0105E208)->Render.Flags3 ^= 0x01
 49: 0x0118 [0x94] 02 (ID: 17162820/0x0105E244)->Render.Flags3 ^= 0x01
 50: 0x011E [0x94] 03 (ID: 17162821/0x0105E245)->Render.Flags3 ^= 0x01
 51: 0x0124 [0x94] 01 (ID: 17162781/0x0105E21D)->Render.Flags3 ^= 0x01
 52: 0x012A [0x94] 02 (ID: 17162782/0x0105E21E)->Render.Flags3 ^= 0x01
 53: 0x0130 [0x94] 04 (ID: 17162784/0x0105E220)->Render.Flags3 ^= 0x01
 54: 0x0136 [0x94] 06 (ID: 17162786/0x0105E222)->Render.Flags3 ^= 0x01
 55: 0x013C [0x94] 07 (ID: 17162787/0x0105E223)->Render.Flags3 ^= 0x01
 56: 0x0142 [0x94] Unnamed NPC (ID: 17162788/0x0105E224)->Render.Flags3 ^= 0x01
 57: 0x0148 [0x94] Unnamed NPC (ID: 17162792/0x0105E228)->Render.Flags3 ^= 0x01
 58: 0x014E [0x94] 01 (ID: 17162899/0x0105E293)->Render.Flags3 ^= 0x01
 59: 0x0154 [0x94] 02 (ID: 17162901/0x0105E295)->Render.Flags3 ^= 0x01
 60: 0x015A [0x94] 01 (ID: 17163006/0x0105E2FE)->Render.Flags3 ^= 0x01
 61: 0x0160 [0x94] 03 (ID: 17163008/0x0105E300)->Render.Flags3 ^= 0x01
 62: 0x0166 [0xBA] SET_ENTITY_POSITION(entity_id=LocalPlayer, pos_x=-40.021*, pos_z=233.023*, pos_y=-5.000*, direction=87.6*)
 63: 0x0173 [0xBA] SET_ENTITY_POSITION(entity_id=Romaa Mihgo (ID: 17162760/0x0105E208), pos_x=-41.320*, pos_z=207.245*, pos_y=-5.202*, direction=87.7*)
 64: 0x0180 [0xBA] SET_ENTITY_POSITION(entity_id=02 (ID: 17162820/0x0105E244), pos_x=-60.989*, pos_z=70.254*, pos_y=-3.499*, direction=359.7*)
 65: 0x018D [0xBA] SET_ENTITY_POSITION(entity_id=03 (ID: 17162821/0x0105E245), pos_x=-60.989*, pos_z=70.254*, pos_y=-3.499*, direction=359.7*)
 66: 0x019A [0xBA] SET_ENTITY_POSITION(entity_id=01 (ID: 17162781/0x0105E21D), pos_x=16.360*, pos_z=48.577*, pos_y=-2.000*, direction=177.0*)
 67: 0x01A7 [0xBA] SET_ENTITY_POSITION(entity_id=02 (ID: 17162782/0x0105E21E), pos_x=14.162*, pos_z=51.565*, pos_y=-2.000*, direction=185.6*)
 68: 0x01B4 [0xBA] SET_ENTITY_POSITION(entity_id=04 (ID: 17162784/0x0105E220), pos_x=-35.493*, pos_z=64.401*, pos_y=-3.500*, direction=246.1*)
 69: 0x01C1 [0xBA] SET_ENTITY_POSITION(entity_id=06 (ID: 17162786/0x0105E222), pos_x=-33.997*, pos_z=64.959*, pos_y=-3.500*, direction=207.3*)
 70: 0x01CE [0xBA] SET_ENTITY_POSITION(entity_id=07 (ID: 17162787/0x0105E223), pos_x=-45.609*, pos_z=94.136*, pos_y=-4.999*, direction=358.0*)
 71: 0x01DB [0xBA] SET_ENTITY_POSITION(entity_id=Unnamed NPC (ID: 17162788/0x0105E224), pos_x=-45.910*, pos_z=91.177*, pos_y=-4.999*, direction=3.1*)
 72: 0x01E8 [0xBA] SET_ENTITY_POSITION(entity_id=Unnamed NPC (ID: 17162792/0x0105E228), pos_x=-36.617*, pos_z=66.144*, pos_y=-3.500*, direction=3.2*)
 73: 0x01F5 [0xBA] SET_ENTITY_POSITION(entity_id=01 (ID: 17162899/0x0105E293), pos_x=-38.361*, pos_z=63.619*, pos_y=-3.499*, direction=265.2*)
 74: 0x0202 [0xBA] SET_ENTITY_POSITION(entity_id=02 (ID: 17162901/0x0105E295), pos_x=-39.236*, pos_z=63.907*, pos_y=-3.499*, direction=272.2*)
 75: 0x020F [0xBA] SET_ENTITY_POSITION(entity_id=01 (ID: 17163006/0x0105E2FE), pos_x=-21.410*, pos_z=82.130*, pos_y=-4.999*, direction=182.8*)
 76: 0x021C [0xBA] SET_ENTITY_POSITION(entity_id=03 (ID: 17163008/0x0105E300), pos_x=-19.869*, pos_z=86.197*, pos_y=-4.999*, direction=148.1*)
 77: 0x0229 [0x80] LOAD_WAIT(entity=LocalPlayer)
 78: 0x022E [0x80] LOAD_WAIT(entity=Romaa Mihgo (ID: 17162760/0x0105E208))
 79: 0x0233 [0x80] LOAD_WAIT(entity=02 (ID: 17162820/0x0105E244))
 80: 0x0238 [0x80] LOAD_WAIT(entity=03 (ID: 17162821/0x0105E245))
 81: 0x023D [0x80] LOAD_WAIT(entity=01 (ID: 17162781/0x0105E21D))
 82: 0x0242 [0x80] LOAD_WAIT(entity=02 (ID: 17162782/0x0105E21E))
 83: 0x0247 [0x80] LOAD_WAIT(entity=04 (ID: 17162784/0x0105E220))
 84: 0x024C [0x80] LOAD_WAIT(entity=06 (ID: 17162786/0x0105E222))
 85: 0x0251 [0x80] LOAD_WAIT(entity=07 (ID: 17162787/0x0105E223))
 86: 0x0256 [0x80] LOAD_WAIT(entity=Unnamed NPC (ID: 17162788/0x0105E224))
 87: 0x025B [0x80] LOAD_WAIT(entity=Unnamed NPC (ID: 17162792/0x0105E228))
 88: 0x0260 [0x80] LOAD_WAIT(entity=01 (ID: 17162899/0x0105E293))
 89: 0x0265 [0x80] LOAD_WAIT(entity=02 (ID: 17162901/0x0105E295))
 90: 0x026A [0x80] LOAD_WAIT(entity=01 (ID: 17163006/0x0105E2FE))
 91: 0x026F [0x80] LOAD_WAIT(entity=03 (ID: 17163008/0x0105E300))
 92: 0x0274 [0x1C] WAIT(30* ticks)
 93: 0x0277 [0x4A] 01 (ID: 17162899/0x0105E293) looks at 02 (ID: 17162901/0x0105E295)
 94: 0x0280 [0x4A] 02 (ID: 17162901/0x0105E295) looks at 01 (ID: 17162899/0x0105E293)
 95: 0x0289 [0x29] REQ_SET_WAIT(priority=0x10, entity_id=01 (ID: 17162781/0x0105E21D), tag_num=0x02)
 96: 0x0290 [0x29] REQ_SET_WAIT(priority=0x10, entity_id=02 (ID: 17162782/0x0105E21E), tag_num=0x02)
 97: 0x0297 [0x29] REQ_SET_WAIT(priority=0x10, entity_id=04 (ID: 17162784/0x0105E220), tag_num=0x02)
 98: 0x029E [0x29] REQ_SET_WAIT(priority=0x10, entity_id=06 (ID: 17162786/0x0105E222), tag_num=0x02)
 99: 0x02A5 [0x29] REQ_SET_WAIT(priority=0x10, entity_id=07 (ID: 17162787/0x0105E223), tag_num=0x02)
100: 0x02AC [0x29] REQ_SET_WAIT(priority=0x10, entity_id=Unnamed NPC (ID: 17162788/0x0105E224), tag_num=0x02)
101: 0x02B3 [0x29] REQ_SET_WAIT(priority=0x10, entity_id=01 (ID: 17163006/0x0105E2FE), tag_num=0x08)
102: 0x02BA [0x29] REQ_SET_WAIT(priority=0x10, entity_id=03 (ID: 17163008/0x0105E300), tag_num=0x08)
103: 0x02C1 [0x1C] WAIT(15* ticks)
104: 0x02C4 [0x27] REQ_SET(priority=0x10, entity_id=LocalPlayer, tag_num=0x70)
105: 0x02CB [0x45] LOAD_SCHEDULED_TASK: Load scheduler "0406" with entities [LocalPlayer, LocalPlayer], work=[504*, 0*]
106: 0x02DC [0x5D] SET_MUSIC_VOLUME(volume=100*, fade_time=60*)
107: 0x02E1 [0x1A] CALL_SUBROUTINE(address=0x3F72)
108: 0x02E4 [0x1C] WAIT(210* ticks)
109: 0x02E7 [0x29] REQ_SET_WAIT(priority=0x10, entity_id=Romaa Mihgo (ID: 17162760/0x0105E208), tag_num=0x4E)
110: 0x02EE [0x1C] WAIT(90* ticks)
111: 0x02F1 [0x27] REQ_SET(priority=0x10, entity_id=Romaa Mihgo (ID: 17162760/0x0105E208), tag_num=0x4F)
112: 0x02F8 [0x52] END_LOAD_SCHEDULER: End scheduler "0406" with entities [LocalPlayer, LocalPlayer], work=504*
113: 0x0307 [0x45] LOAD_SCHEDULED_TASK: Load scheduler "0400" with entities [LocalPlayer, LocalPlayer], work=[504*, 0*]
114: 0x0318 [0x2B] Romaa Mihgo (ID: 17162760/0x0105E208) [13689*]:
     "There you are, <Player>! I've been scouring the streets for hourrrs trying to find you!"
115: 0x031F [0x5D] SET_MUSIC_VOLUME(volume=0*, fade_time=300*)
116: 0x0324 [0x1C] WAIT(150* ticks)
117: 0x0327 [0x23] WAIT_FOR_DIALOG_INTERACTION
118: 0x0328 [0x52] END_LOAD_SCHEDULER: End scheduler "0400" with entities [LocalPlayer, LocalPlayer], work=504*
119: 0x0337 [0x45] LOAD_SCHEDULED_TASK: Load scheduler "0401" with entities [LocalPlayer, LocalPlayer], work=[504*, 0*]
120: 0x0348 [0x2B] Romaa Mihgo (ID: 17162760/0x0105E208) [13690*]:
     "The Warlock Warlord and his reconnaissance squad have just returned bearing grrrim news from Valdeaunia."
121: 0x034F [0x23] WAIT_FOR_DIALOG_INTERACTION
122: 0x0350 [0x2A] GET_REQ_LEVEL(level=16, entity_id=Romaa Mihgo (ID: 17162760/0x0105E208))
123: 0x0356 [0x2B] Romaa Mihgo (ID: 17162760/0x0105E208) [13691*]:
     "He's about to hold an urrrgent defense briefing, and all mercenaries have been summoned to--"
124: 0x035D [0x23] WAIT_FOR_DIALOG_INTERACTION
125: 0x035E [0x5C] MUSIC_CONTROL: Set Idle (Day) music to song 247*
126: 0x0362 [0x5C] MUSIC_CONTROL: Set Idle (Night) music to song 247*
127: 0x0366 [0x5C] MUSIC_CONTROL: Set Combat (Solo) music to song 247*
128: 0x036A [0x5C] MUSIC_CONTROL: Set Combat (Party) music to song 247*
129: 0x036E [0x5D] SET_MUSIC_VOLUME(volume=100*, fade_time=1*)
130: 0x0373 [0x9A] WAIT_MUSIC_SERVER()
131: 0x0374 [0x48] [System] [13692*]:
     "...I repeataru, by decree of the Warlock Warlord, a state of emergency has been declared for all wards of the capital."
132: 0x0377 [0x1C] WAIT(45* ticks)
133: 0x037A [0x52] END_LOAD_SCHEDULER: End scheduler "0401" with entities [LocalPlayer, LocalPlayer], work=504*
134: 0x0389 [0x45] LOAD_SCHEDULED_TASK: Load scheduler "041k" with entities [LocalPlayer, LocalPlayer], work=[504*, 0*]
135: 0x039A [0x4B] UPDATE_ENTITY_YAW(entity=Romaa Mihgo (ID: 17162760/0x0105E208), yaw=5.5*)
136: 0x03A1 [0x1C] WAIT(240* ticks)
137: 0x03A4 [0x23] WAIT_FOR_DIALOG_INTERACTION
138: 0x03A5 [0x1A] CALL_SUBROUTINE(address=0x3F93)
139: 0x03A8 [0x48] [System] [13688*]:
     ""
140: 0x03AB [0x1C] WAIT(90* ticks)
141: 0x03AE [0x79] Unnamed NPC (ID: 17162792/0x0105E228) looks at 04 (ID: 17162784/0x0105E220) (Basic look)
142: 0x03B8 [0x1C] WAIT(90* ticks)
143: 0x03BB [0x66] LOAD_EXT_SCHEDULER_MAIN: Load scheduler "tlk0" with entities [Unnamed NPC (ID: 17162792/0x0105E228), Unnamed NPC (ID: 17162792/0x0105E228)], work=49*
144: 0x03CA [0x27] REQ_SET(priority=0x10, entity_id=01 (ID: 17163006/0x0105E2FE), tag_num=0x0F)
145: 0x03D1 [0x27] REQ_SET(priority=0x10, entity_id=03 (ID: 17163008/0x0105E300), tag_num=0x11)
146: 0x03D8 [0x27] REQ_SET(priority=0x10, entity_id=02 (ID: 17162820/0x0105E244), tag_num=0x13)
147: 0x03DF [0x27] REQ_SET(priority=0x10, entity_id=03 (ID: 17162821/0x0105E245), tag_num=0x15)
148: 0x03E6 [0x52] END_LOAD_SCHEDULER: End scheduler "041k" with entities [LocalPlayer, LocalPlayer], work=504*
149: 0x03F5 [0x45] LOAD_SCHEDULED_TASK: Load scheduler "0402" with entities [LocalPlayer, LocalPlayer], work=[504*, 0*]
150: 0x0406 [0x1A] CALL_SUBROUTINE(address=0x3F72)
151: 0x0409 [0x27] REQ_SET(priority=0x10, entity_id=02 (ID: 17162782/0x0105E21E), tag_num=0x0E)
152: 0x0410 [0x1C] WAIT(60* ticks)
153: 0x0413 [0x48] [System] [13693*]:
     "Civilians: stay calm, do not panic, and proceed in an orderly-worderly fashion to the designated sheltaru in Heavens Tower. Active combatants are to report to their commanding officer for immediate briefing."
154: 0x0416 [0x1C] WAIT(90* ticks)
155: 0x0419 [0x52] END_LOAD_SCHEDULER: End scheduler "0402" with entities [LocalPlayer, LocalPlayer], work=504*
156: 0x0428 [0x45] LOAD_SCHEDULED_TASK: Load scheduler "041b" with entities [LocalPlayer, LocalPlayer], work=[504*, 0*]
157: 0x0439 [0x27] REQ_SET(priority=0x10, entity_id=01 (ID: 17162781/0x0105E21D), tag_num=0x0D)
158: 0x0440 [0x1C] WAIT(150* ticks)
159: 0x0443 [0x52] END_LOAD_SCHEDULER: End scheduler "041b" with entities [LocalPlayer, LocalPlayer], work=504*
160: 0x0452 [0x45] LOAD_SCHEDULED_TASK: Load scheduler "041d" with entities [LocalPlayer, LocalPlayer], work=[504*, 0*]
161: 0x0463 [0x48] [System] [13692*]:
     "...I repeataru, by decree of the Warlock Warlord, a state of emergency has been declared for all wards of the capital."
162: 0x0466 [0x1C] WAIT(180* ticks)
163: 0x0469 [0x52] END_LOAD_SCHEDULER: End scheduler "041d" with entities [LocalPlayer, LocalPlayer], work=504*
164: 0x0478 [0x45] LOAD_SCHEDULED_TASK: Load scheduler "041e" with entities [LocalPlayer, LocalPlayer], work=[504*, 0*]
165: 0x0489 [0x1C] WAIT(120* ticks)
166: 0x048C [0x52] END_LOAD_SCHEDULER: End scheduler "041e" with entities [LocalPlayer, LocalPlayer], work=504*
167: 0x049B [0x45] LOAD_SCHEDULED_TASK: Load scheduler "041c" with entities [LocalPlayer, LocalPlayer], work=[504*, 0*]
168: 0x04AC [0x1C] WAIT(60* ticks)
169: 0x04AF [0x48] [System] [13693*]:
     "Civilians: stay calm, do not panic, and proceed in an orderly-worderly fashion to the designated sheltaru in Heavens Tower. Active combatants are to report to their commanding officer for immediate briefing."
170: 0x04B2 [0x1C] WAIT(150* ticks)
171: 0x04B5 [0x23] WAIT_FOR_DIALOG_INTERACTION
172: 0x04B6 [0x1A] CALL_SUBROUTINE(address=0x3F93)
173: 0x04B9 [0x52] END_LOAD_SCHEDULER: End scheduler "041c" with entities [LocalPlayer, LocalPlayer], work=504*
174: 0x04C8 [0x48] [System] [13688*]:
     ""
175: 0x04CB [0x7A] VM_CONTROL: Reset VM for 01 (ID: 17162781/0x0105E21D)
176: 0x04D1 [0x7A] VM_CONTROL: Reset VM for 02 (ID: 17162782/0x0105E21E)
177: 0x04D7 [0x7A] VM_CONTROL: Reset VM for 01 (ID: 17163006/0x0105E2FE)
178: 0x04DD [0x7A] VM_CONTROL: Reset VM for 03 (ID: 17163008/0x0105E300)
179: 0x04E3 [0x7A] VM_CONTROL: Reset VM for 02 (ID: 17162820/0x0105E244)
180: 0x04E9 [0x7A] VM_CONTROL: Reset VM for 03 (ID: 17162821/0x0105E245)
181: 0x04EF [0x1C] WAIT(30* ticks)
182: 0x04F2 [0x1C] WAIT(60* ticks)
183: 0x04F5 [0x52] END_LOAD_SCHEDULER: End scheduler "0402" with entities [LocalPlayer, LocalPlayer], work=504*
184: 0x0504 [0x45] LOAD_SCHEDULED_TASK: Load scheduler "0403" with entities [LocalPlayer, LocalPlayer], work=[504*, 0*]
185: 0x0515 [0x1A] CALL_SUBROUTINE(address=0x3F72)
186: 0x0518 [0x4A] Romaa Mihgo (ID: 17162760/0x0105E208) looks at LocalPlayer
187: 0x0521 [0x2B] Romaa Mihgo (ID: 17162760/0x0105E208) [13694*]:
     "...You hearrrd that, <Player>. There's not a moment to lose!"
188: 0x0528 [0x23] WAIT_FOR_DIALOG_INTERACTION
189: 0x0529 [0x6E] LocalPlayer uses emote 7*
190: 0x0530 [0x99] Wait for LocalPlayer animation to complete
191: 0x0535 [0x1C] WAIT(90* ticks)
192: 0x0538 [0x52] END_LOAD_SCHEDULER: End scheduler "0403" with entities [LocalPlayer, LocalPlayer], work=504*
193: 0x0547 [0x45] LOAD_SCHEDULED_TASK: Load scheduler "0407" with entities [LocalPlayer, LocalPlayer], work=[504*, 0*]
194: 0x0558 [0x27] REQ_SET(priority=0x10, entity_id=Romaa Mihgo (ID: 17162760/0x0105E208), tag_num=0x50)
195: 0x055F [0x27] REQ_SET(priority=0x10, entity_id=LocalPlayer, tag_num=0x71)
196: 0x0566 [0x1C] WAIT(60* ticks)
197: 0x0569 [0x1A] CALL_SUBROUTINE(address=0x3F93)
198: 0x056C [0x4E] SET_ENTITY_HIDE_FLAG: Hide 02 (ID: 17162820/0x0105E244)
199: 0x0572 [0x4E] SET_ENTITY_HIDE_FLAG: Hide 03 (ID: 17162821/0x0105E245)
200: 0x0578 [0x4E] SET_ENTITY_HIDE_FLAG: Hide 01 (ID: 17162781/0x0105E21D)
201: 0x057E [0x4E] SET_ENTITY_HIDE_FLAG: Hide 02 (ID: 17162782/0x0105E21E)
202: 0x0584 [0x4E] SET_ENTITY_HIDE_FLAG: Hide 04 (ID: 17162784/0x0105E220)
203: 0x058A [0x4E] SET_ENTITY_HIDE_FLAG: Hide 06 (ID: 17162786/0x0105E222)
204: 0x0590 [0x4E] SET_ENTITY_HIDE_FLAG: Hide 07 (ID: 17162787/0x0105E223)
205: 0x0596 [0x4E] SET_ENTITY_HIDE_FLAG: Hide Unnamed NPC (ID: 17162788/0x0105E224)
206: 0x059C [0x4E] SET_ENTITY_HIDE_FLAG: Hide Unnamed NPC (ID: 17162792/0x0105E228)
207: 0x05A2 [0x4E] SET_ENTITY_HIDE_FLAG: Hide 01 (ID: 17162899/0x0105E293)
208: 0x05A8 [0x4E] SET_ENTITY_HIDE_FLAG: Hide 02 (ID: 17162901/0x0105E295)
209: 0x05AE [0x4E] SET_ENTITY_HIDE_FLAG: Hide 01 (ID: 17163006/0x0105E2FE)
210: 0x05B4 [0x4E] SET_ENTITY_HIDE_FLAG: Hide 03 (ID: 17163008/0x0105E300)
211: 0x05BA [0x1C] WAIT(30* ticks)
212: 0x05BD [0x7A] VM_CONTROL: Reset VM for LocalPlayer
213: 0x05C3 [0x7A] VM_CONTROL: Reset VM for Romaa Mihgo (ID: 17162760/0x0105E208)
214: 0x05C9 [0x52] END_LOAD_SCHEDULER: End scheduler "0407" with entities [LocalPlayer, LocalPlayer], work=504*
215: 0x05D8 [0x34] LOAD_UNLOAD_ZONE(zone_id=239*)
216: 0x05DB [0x77] SET_EVENT_TIME_WEATHER(hour=255*, weather=1*)
217: 0x05E0 [0xAB] EventEntity->UnknownFlag = 1 // Enable unknown flag
218: 0x05E2 [0x1C] WAIT(15* ticks)
219: 0x05E5 [0x4E] SET_ENTITY_HIDE_FLAG: Show 01 (ID: 17162964/0x0105E2D4)
220: 0x05EB [0x4E] SET_ENTITY_HIDE_FLAG: Show 02 (ID: 17162965/0x0105E2D5)
221: 0x05F1 [0x4E] SET_ENTITY_HIDE_FLAG: Show 03 (ID: 17162966/0x0105E2D6)
222: 0x05F7 [0x4E] SET_ENTITY_HIDE_FLAG: Show 04 (ID: 17162967/0x0105E2D7)
223: 0x05FD [0x4E] SET_ENTITY_HIDE_FLAG: Show 05 (ID: 17162968/0x0105E2D8)
224: 0x0603 [0x4E] SET_ENTITY_HIDE_FLAG: Show 06 (ID: 17162969/0x0105E2D9)
225: 0x0609 [0x4E] SET_ENTITY_HIDE_FLAG: Show 07 (ID: 17162970/0x0105E2DA)
226: 0x060F [0x4E] SET_ENTITY_HIDE_FLAG: Show 08 (ID: 17162971/0x0105E2DB)
227: 0x0615 [0x4E] SET_ENTITY_HIDE_FLAG: Show 09 (ID: 17162972/0x0105E2DC)
228: 0x061B [0x4E] SET_ENTITY_HIDE_FLAG: Show 10 (ID: 17162973/0x0105E2DD)
229: 0x0621 [0x4E] SET_ENTITY_HIDE_FLAG: Show 15 (ID: 17162978/0x0105E2E2)
230: 0x0627 [0xBA] SET_ENTITY_POSITION(entity_id=01 (ID: 17162964/0x0105E2D4), pos_x=-8.695*, pos_z=124.650*, pos_y=-15.999*, direction=89.5*)
231: 0x0634 [0xBA] SET_ENTITY_POSITION(entity_id=02 (ID: 17162965/0x0105E2D5), pos_x=-11.775*, pos_z=124.962*, pos_y=-16.000*, direction=89.4*)
232: 0x0641 [0xBA] SET_ENTITY_POSITION(entity_id=03 (ID: 17162966/0x0105E2D6), pos_x=10.592*, pos_z=125.850*, pos_y=-16.000*, direction=89.5*)
233: 0x064E [0xBA] SET_ENTITY_POSITION(entity_id=04 (ID: 17162967/0x0105E2D7), pos_x=-16.782*, pos_z=130.381*, pos_y=-16.000*, direction=89.4*)
234: 0x065B [0xBA] SET_ENTITY_POSITION(entity_id=05 (ID: 17162968/0x0105E2D8), pos_x=15.451*, pos_z=130.208*, pos_y=-16.000*, direction=89.4*)
235: 0x0668 [0xBA] SET_ENTITY_POSITION(entity_id=06 (ID: 17162969/0x0105E2D9), pos_x=-20.286*, pos_z=132.225*, pos_y=-16.000*, direction=89.5*)
236: 0x0675 [0xBA] SET_ENTITY_POSITION(entity_id=07 (ID: 17162970/0x0105E2DA), pos_x=19.100*, pos_z=132.665*, pos_y=-16.000*, direction=89.4*)
237: 0x0682 [0xBA] SET_ENTITY_POSITION(entity_id=08 (ID: 17162971/0x0105E2DB), pos_x=21.264*, pos_z=129.306*, pos_y=-16.000*, direction=89.5*)
238: 0x068F [0xBA] SET_ENTITY_POSITION(entity_id=09 (ID: 17162972/0x0105E2DC), pos_x=-22.062*, pos_z=130.125*, pos_y=-15.999*, direction=89.5*)
239: 0x069C [0xBA] SET_ENTITY_POSITION(entity_id=10 (ID: 17162973/0x0105E2DD), pos_x=22.274*, pos_z=131.757*, pos_y=-16.000*, direction=89.4*)
240: 0x06A9 [0xBA] SET_ENTITY_POSITION(entity_id=15 (ID: 17162978/0x0105E2E2), pos_x=-16.939*, pos_z=129.917*, pos_y=-16.000*, direction=89.5*)
241: 0x06B6 [0x1C] WAIT(15* ticks)
242: 0x06B9 [0x92] 01 (ID: 17162964/0x0105E2D4)->Render.Flags3 ^= 0x01
243: 0x06BF [0x92] 02 (ID: 17162965/0x0105E2D5)->Render.Flags3 ^= 0x01
244: 0x06C5 [0x92] 03 (ID: 17162966/0x0105E2D6)->Render.Flags3 ^= 0x01
245: 0x06CB [0x92] 04 (ID: 17162967/0x0105E2D7)->Render.Flags3 ^= 0x01
246: 0x06D1 [0x92] 05 (ID: 17162968/0x0105E2D8)->Render.Flags3 ^= 0x01
247: 0x06D7 [0x92] 06 (ID: 17162969/0x0105E2D9)->Render.Flags3 ^= 0x01
248: 0x06DD [0x92] 07 (ID: 17162970/0x0105E2DA)->Render.Flags3 ^= 0x01
249: 0x06E3 [0x92] 08 (ID: 17162971/0x0105E2DB)->Render.Flags3 ^= 0x01
250: 0x06E9 [0x92] 09 (ID: 17162972/0x0105E2DC)->Render.Flags3 ^= 0x01
251: 0x06EF [0x92] 10 (ID: 17162973/0x0105E2DD)->Render.Flags3 ^= 0x01
252: 0x06F5 [0x92] 15 (ID: 17162978/0x0105E2E2)->Render.Flags3 ^= 0x01
253: 0x06FB [0x80] LOAD_WAIT(entity=LocalPlayer)
254: 0x0700 [0x80] LOAD_WAIT(entity=01 (ID: 17162964/0x0105E2D4))
255: 0x0705 [0x80] LOAD_WAIT(entity=02 (ID: 17162965/0x0105E2D5))
256: 0x070A [0x80] LOAD_WAIT(entity=03 (ID: 17162966/0x0105E2D6))
257: 0x070F [0x80] LOAD_WAIT(entity=04 (ID: 17162967/0x0105E2D7))
258: 0x0714 [0x80] LOAD_WAIT(entity=05 (ID: 17162968/0x0105E2D8))
259: 0x0719 [0x80] LOAD_WAIT(entity=06 (ID: 17162969/0x0105E2D9))
260: 0x071E [0x80] LOAD_WAIT(entity=07 (ID: 17162970/0x0105E2DA))
261: 0x0723 [0x80] LOAD_WAIT(entity=08 (ID: 17162971/0x0105E2DB))
262: 0x0728 [0x80] LOAD_WAIT(entity=09 (ID: 17162972/0x0105E2DC))
263: 0x072D [0x80] LOAD_WAIT(entity=10 (ID: 17162973/0x0105E2DD))
264: 0x0732 [0x80] LOAD_WAIT(entity=15 (ID: 17162978/0x0105E2E2))
265: 0x0737 [0x1C] WAIT(15* ticks)
266: 0x073A [0x27] REQ_SET(priority=0x10, entity_id=01 (ID: 17162964/0x0105E2D4), tag_num=0x02)
267: 0x0741 [0x27] REQ_SET(priority=0x10, entity_id=02 (ID: 17162965/0x0105E2D5), tag_num=0x02)
268: 0x0748 [0x27] REQ_SET(priority=0x10, entity_id=03 (ID: 17162966/0x0105E2D6), tag_num=0x03)
269: 0x074F [0x27] REQ_SET(priority=0x10, entity_id=04 (ID: 17162967/0x0105E2D7), tag_num=0x02)
270: 0x0756 [0x27] REQ_SET(priority=0x10, entity_id=05 (ID: 17162968/0x0105E2D8), tag_num=0x02)
271: 0x075D [0x27] REQ_SET(priority=0x10, entity_id=06 (ID: 17162969/0x0105E2D9), tag_num=0x03)
272: 0x0764 [0x27] REQ_SET(priority=0x10, entity_id=07 (ID: 17162970/0x0105E2DA), tag_num=0x03)
273: 0x076B [0x27] REQ_SET(priority=0x10, entity_id=08 (ID: 17162971/0x0105E2DB), tag_num=0x02)
274: 0x0772 [0x27] REQ_SET(priority=0x10, entity_id=09 (ID: 17162972/0x0105E2DC), tag_num=0x03)
275: 0x0779 [0x27] REQ_SET(priority=0x10, entity_id=10 (ID: 17162973/0x0105E2DD), tag_num=0x02)
276: 0x0780 [0x27] REQ_SET(priority=0x10, entity_id=15 (ID: 17162978/0x0105E2E2), tag_num=0x03)
277: 0x0787 [0x45] LOAD_SCHEDULED_TASK: Load scheduler "blof" with entities [LocalPlayer, LocalPlayer], work=[504*, 0*]
278: 0x0798 [0x45] LOAD_SCHEDULED_TASK: Load scheduler "041a" with entities [LocalPlayer, LocalPlayer], work=[504*, 0*]
279: 0x07A9 [0x1A] CALL_SUBROUTINE(address=0x3F72)
280: 0x07AC [0x1C] WAIT(360* ticks)
281: 0x07AF [0x5D] SET_MUSIC_VOLUME(volume=0*, fade_time=420*)
282: 0x07B4 [0x1A] CALL_SUBROUTINE(address=0x3F93)
283: 0x07B7 [0x7A] VM_CONTROL: Reset VM for 01 (ID: 17162964/0x0105E2D4)
284: 0x07BD [0x7A] VM_CONTROL: Reset VM for 02 (ID: 17162965/0x0105E2D5)
285: 0x07C3 [0x7A] VM_CONTROL: Reset VM for 03 (ID: 17162966/0x0105E2D6)
286: 0x07C9 [0x7A] VM_CONTROL: Reset VM for 04 (ID: 17162967/0x0105E2D7)
287: 0x07CF [0x7A] VM_CONTROL: Reset VM for 05 (ID: 17162968/0x0105E2D8)
288: 0x07D5 [0x7A] VM_CONTROL: Reset VM for 06 (ID: 17162969/0x0105E2D9)
289: 0x07DB [0x7A] VM_CONTROL: Reset VM for 07 (ID: 17162970/0x0105E2DA)
290: 0x07E1 [0x7A] VM_CONTROL: Reset VM for 08 (ID: 17162971/0x0105E2DB)
291: 0x07E7 [0x7A] VM_CONTROL: Reset VM for 09 (ID: 17162972/0x0105E2DC)
292: 0x07ED [0x7A] VM_CONTROL: Reset VM for 10 (ID: 17162973/0x0105E2DD)
293: 0x07F3 [0x7A] VM_CONTROL: Reset VM for 15 (ID: 17162978/0x0105E2E2)
294: 0x07F9 [0x52] END_LOAD_SCHEDULER: End scheduler "041a" with entities [LocalPlayer, LocalPlayer], work=504*
295: 0x0808 [0x34] LOAD_UNLOAD_ZONE(zone_id=242*)
296: 0x080B [0x77] SET_EVENT_TIME_WEATHER(hour=255*, weather=1*)
297: 0x0810 [0xAB] EventEntity->UnknownFlag = 1 // Enable unknown flag
298: 0x0812 [0x1C] WAIT(15* ticks)
299: 0x0815 [0x75] LOAD_ROOM(Load indoor room, room=426*)
300: 0x0819 [0x75] LOAD_ROOM(No action)
301: 0x081B [0x5C] MUSIC_CONTROL: Set Idle (Day) music to song 162*
302: 0x081F [0x5C] MUSIC_CONTROL: Set Idle (Night) music to song 162*
303: 0x0823 [0x5C] MUSIC_CONTROL: Set Combat (Solo) music to song 162*
304: 0x0827 [0x5C] MUSIC_CONTROL: Set Combat (Party) music to song 162*
305: 0x082B [0x9A] WAIT_MUSIC_SERVER()
306: 0x082C [0x5D] SET_MUSIC_VOLUME(volume=100*, fade_time=60*)
307: 0x0831 [0x48] [System] [13688*]:
     ""
308: 0x0834 [0x4E] SET_ENTITY_HIDE_FLAG: Show Ajido-Marujido (ID: 17162758/0x0105E206)
309: 0x083A [0x4E] SET_ENTITY_HIDE_FLAG: Show 11 (ID: 17162974/0x0105E2DE)
310: 0x0840 [0x4E] SET_ENTITY_HIDE_FLAG: Show 12 (ID: 17162975/0x0105E2DF)
311: 0x0846 [0x4E] SET_ENTITY_HIDE_FLAG: Show 13 (ID: 17162976/0x0105E2E0)
312: 0x084C [0x4E] SET_ENTITY_HIDE_FLAG: Show 14 (ID: 17162977/0x0105E2E1)
313: 0x0852 [0x4E] SET_ENTITY_HIDE_FLAG: Show 16 (ID: 17162979/0x0105E2E3)
314: 0x0858 [0x4E] SET_ENTITY_HIDE_FLAG: Show 17 (ID: 17162980/0x0105E2E4)
315: 0x085E [0x4E] SET_ENTITY_HIDE_FLAG: Show 18 (ID: 17162981/0x0105E2E5)
316: 0x0864 [0x4E] SET_ENTITY_HIDE_FLAG: Show 19 (ID: 17162982/0x0105E2E6)
317: 0x086A [0x4E] SET_ENTITY_HIDE_FLAG: Show 20 (ID: 17162983/0x0105E2E7)
318: 0x0870 [0x59] UPDATE_ENTITY_DATA: Ajido-Marujido (ID: 17162758/0x0105E206)->Render.Flags0 |= 0x200000
319: 0x0877 [0xBA] SET_ENTITY_POSITION(entity_id=Ajido-Marujido (ID: 17162758/0x0105E206), pos_x=-11.250*, pos_z=-18.777*, pos_y=0.300*, direction=249.5*)
320: 0x0884 [0xBA] SET_ENTITY_POSITION(entity_id=01 (ID: 17162964/0x0105E2D4), pos_x=-8.883*, pos_z=-23.807*, pos_y=0.000*, direction=162.0*)
321: 0x0891 [0xBA] SET_ENTITY_POSITION(entity_id=02 (ID: 17162965/0x0105E2D5), pos_x=-8.180*, pos_z=-24.271*, pos_y=0.000*, direction=161.9*)
322: 0x089E [0xBA] SET_ENTITY_POSITION(entity_id=03 (ID: 17162966/0x0105E2D6), pos_x=-8.116*, pos_z=-20.888*, pos_y=0.499*, direction=162.0*)
323: 0x08AB [0xBA] SET_ENTITY_POSITION(entity_id=04 (ID: 17162967/0x0105E2D7), pos_x=-7.359*, pos_z=-22.814*, pos_y=0.249*, direction=292.7*)
324: 0x08B8 [0xBA] SET_ENTITY_POSITION(entity_id=05 (ID: 17162968/0x0105E2D8), pos_x=-9.640*, pos_z=-21.639*, pos_y=0.499*, direction=266.2*)
325: 0x08C5 [0xBA] SET_ENTITY_POSITION(entity_id=06 (ID: 17162969/0x0105E2D9), pos_x=-3.969*, pos_z=-20.542*, pos_y=0.250*, direction=161.9*)
326: 0x08D2 [0xBA] SET_ENTITY_POSITION(entity_id=07 (ID: 17162970/0x0105E2DA), pos_x=-3.247*, pos_z=-20.684*, pos_y=0.250*, direction=161.9*)
327: 0x08DF [0xBA] SET_ENTITY_POSITION(entity_id=08 (ID: 17162971/0x0105E2DB), pos_x=-8.579*, pos_z=-21.791*, pos_y=0.499*, direction=161.9*)
328: 0x08EC [0xBA] SET_ENTITY_POSITION(entity_id=09 (ID: 17162972/0x0105E2DC), pos_x=-9.782*, pos_z=-24.027*, pos_y=0.000*, direction=161.9*)
329: 0x08F9 [0xBA] SET_ENTITY_POSITION(entity_id=10 (ID: 17162973/0x0105E2DD), pos_x=-10.262*, pos_z=-21.629*, pos_y=0.499*, direction=161.9*)
330: 0x0906 [0xBA] SET_ENTITY_POSITION(entity_id=11 (ID: 17162974/0x0105E2DE), pos_x=-11.016*, pos_z=-23.592*, pos_y=0.000*, direction=191.4*)
331: 0x0913 [0xBA] SET_ENTITY_POSITION(entity_id=12 (ID: 17162975/0x0105E2DF), pos_x=-11.456*, pos_z=-22.877*, pos_y=0.000*, direction=162.0*)
332: 0x0920 [0xBA] SET_ENTITY_POSITION(entity_id=13 (ID: 17162976/0x0105E2E0), pos_x=-10.670*, pos_z=-21.118*, pos_y=0.499*, direction=162.0*)
333: 0x092D [0xBA] SET_ENTITY_POSITION(entity_id=14 (ID: 17162977/0x0105E2E1), pos_x=-9.999*, pos_z=-23.798*, pos_y=0.000*, direction=162.0*)
334: 0x093A [0xBA] SET_ENTITY_POSITION(entity_id=15 (ID: 17162978/0x0105E2E2), pos_x=-9.640*, pos_z=-21.639*, pos_y=0.499*, direction=266.2*)
335: 0x0947 [0xBA] SET_ENTITY_POSITION(entity_id=16 (ID: 17162979/0x0105E2E3), pos_x=-12.033*, pos_z=-23.194*, pos_y=0.000*, direction=161.5*)
336: 0x0954 [0xBA] SET_ENTITY_POSITION(entity_id=17 (ID: 17162980/0x0105E2E4), pos_x=-11.695*, pos_z=-23.930*, pos_y=0.000*, direction=162.0*)
337: 0x0961 [0xBA] SET_ENTITY_POSITION(entity_id=18 (ID: 17162981/0x0105E2E5), pos_x=-6.930*, pos_z=-22.376*, pos_y=0.250*, direction=162.0*)
338: 0x096E [0xBA] SET_ENTITY_POSITION(entity_id=19 (ID: 17162982/0x0105E2E6), pos_x=-6.243*, pos_z=-24.931*, pos_y=0.000*, direction=162.0*)
339: 0x097B [0xBA] SET_ENTITY_POSITION(entity_id=20 (ID: 17162983/0x0105E2E7), pos_x=-7.313*, pos_z=-24.797*, pos_y=0.000*, direction=162.0*)
340: 0x0988 [0x92] Ajido-Marujido (ID: 17162758/0x0105E206)->Render.Flags3 ^= 0x01
341: 0x098E [0x92] 01 (ID: 17162964/0x0105E2D4)->Render.Flags3 ^= 0x01
342: 0x0994 [0x92] 02 (ID: 17162965/0x0105E2D5)->Render.Flags3 ^= 0x01
343: 0x099A [0x92] 03 (ID: 17162966/0x0105E2D6)->Render.Flags3 ^= 0x01
344: 0x09A0 [0x92] 04 (ID: 17162967/0x0105E2D7)->Render.Flags3 ^= 0x01
345: 0x09A6 [0x92] 05 (ID: 17162968/0x0105E2D8)->Render.Flags3 ^= 0x01
346: 0x09AC [0x92] 06 (ID: 17162969/0x0105E2D9)->Render.Flags3 ^= 0x01
347: 0x09B2 [0x92] 07 (ID: 17162970/0x0105E2DA)->Render.Flags3 ^= 0x01
348: 0x09B8 [0x92] 08 (ID: 17162971/0x0105E2DB)->Render.Flags3 ^= 0x01
349: 0x09BE [0x92] 09 (ID: 17162972/0x0105E2DC)->Render.Flags3 ^= 0x01
350: 0x09C4 [0x92] 10 (ID: 17162973/0x0105E2DD)->Render.Flags3 ^= 0x01
351: 0x09CA [0x92] 11 (ID: 17162974/0x0105E2DE)->Render.Flags3 ^= 0x01
352: 0x09D0 [0x92] 12 (ID: 17162975/0x0105E2DF)->Render.Flags3 ^= 0x01
353: 0x09D6 [0x92] 13 (ID: 17162976/0x0105E2E0)->Render.Flags3 ^= 0x01
354: 0x09DC [0x92] 14 (ID: 17162977/0x0105E2E1)->Render.Flags3 ^= 0x01
355: 0x09E2 [0x92] 15 (ID: 17162978/0x0105E2E2)->Render.Flags3 ^= 0x01
356: 0x09E8 [0x92] 16 (ID: 17162979/0x0105E2E3)->Render.Flags3 ^= 0x01
357: 0x09EE [0x92] 17 (ID: 17162980/0x0105E2E4)->Render.Flags3 ^= 0x01
358: 0x09F4 [0x92] 18 (ID: 17162981/0x0105E2E5)->Render.Flags3 ^= 0x01
359: 0x09FA [0x92] 19 (ID: 17162982/0x0105E2E6)->Render.Flags3 ^= 0x01
360: 0x0A00 [0x92] 20 (ID: 17162983/0x0105E2E7)->Render.Flags3 ^= 0x01
361: 0x0A06 [0x80] LOAD_WAIT(entity=Ajido-Marujido (ID: 17162758/0x0105E206))
362: 0x0A0B [0x80] LOAD_WAIT(entity=01 (ID: 17162964/0x0105E2D4))
363: 0x0A10 [0x80] LOAD_WAIT(entity=02 (ID: 17162965/0x0105E2D5))
364: 0x0A15 [0x80] LOAD_WAIT(entity=03 (ID: 17162966/0x0105E2D6))
365: 0x0A1A [0x80] LOAD_WAIT(entity=04 (ID: 17162967/0x0105E2D7))
366: 0x0A1F [0x80] LOAD_WAIT(entity=05 (ID: 17162968/0x0105E2D8))
367: 0x0A24 [0x80] LOAD_WAIT(entity=06 (ID: 17162969/0x0105E2D9))
368: 0x0A29 [0x80] LOAD_WAIT(entity=07 (ID: 17162970/0x0105E2DA))
369: 0x0A2E [0x80] LOAD_WAIT(entity=08 (ID: 17162971/0x0105E2DB))
370: 0x0A33 [0x80] LOAD_WAIT(entity=09 (ID: 17162972/0x0105E2DC))
371: 0x0A38 [0x80] LOAD_WAIT(entity=10 (ID: 17162973/0x0105E2DD))
372: 0x0A3D [0x80] LOAD_WAIT(entity=11 (ID: 17162974/0x0105E2DE))
373: 0x0A42 [0x80] LOAD_WAIT(entity=12 (ID: 17162975/0x0105E2DF))
374: 0x0A47 [0x80] LOAD_WAIT(entity=13 (ID: 17162976/0x0105E2E0))
375: 0x0A4C [0x80] LOAD_WAIT(entity=14 (ID: 17162977/0x0105E2E1))
376: 0x0A51 [0x80] LOAD_WAIT(entity=15 (ID: 17162978/0x0105E2E2))
377: 0x0A56 [0x80] LOAD_WAIT(entity=16 (ID: 17162979/0x0105E2E3))
378: 0x0A5B [0x80] LOAD_WAIT(entity=17 (ID: 17162980/0x0105E2E4))
379: 0x0A60 [0x80] LOAD_WAIT(entity=18 (ID: 17162981/0x0105E2E5))
380: 0x0A65 [0x80] LOAD_WAIT(entity=19 (ID: 17162982/0x0105E2E6))
381: 0x0A6A [0x80] LOAD_WAIT(entity=20 (ID: 17162983/0x0105E2E7))
382: 0x0A6F [0x4A] 01 (ID: 17162964/0x0105E2D4) looks at 02 (ID: 17162965/0x0105E2D5)
383: 0x0A78 [0x4A] 02 (ID: 17162965/0x0105E2D5) looks at 01 (ID: 17162964/0x0105E2D4)
384: 0x0A81 [0x4A] 03 (ID: 17162966/0x0105E2D6) looks at 08 (ID: 17162971/0x0105E2DB)
385: 0x0A8A [0x4A] 04 (ID: 17162967/0x0105E2D7) looks at 18 (ID: 17162981/0x0105E2E5)
386: 0x0A93 [0x4A] 08 (ID: 17162971/0x0105E2DB) looks at 03 (ID: 17162966/0x0105E2D6)
387: 0x0A9C [0x4A] 12 (ID: 17162975/0x0105E2DF) looks at 11 (ID: 17162974/0x0105E2DE)
388: 0x0AA5 [0x4A] 16 (ID: 17162979/0x0105E2E3) looks at 11 (ID: 17162974/0x0105E2DE)
389: 0x0AAE [0x4A] 17 (ID: 17162980/0x0105E2E4) looks at 11 (ID: 17162974/0x0105E2DE)
390: 0x0AB7 [0x4A] 18 (ID: 17162981/0x0105E2E5) looks at 04 (ID: 17162967/0x0105E2D7)
391: 0x0AC0 [0x4A] 19 (ID: 17162982/0x0105E2E6) looks at 20 (ID: 17162983/0x0105E2E7)
392: 0x0AC9 [0x4A] 20 (ID: 17162983/0x0105E2E7) looks at 19 (ID: 17162982/0x0105E2E6)
393: 0x0AD2 [0x4A] 10 (ID: 17162973/0x0105E2DD) looks at 13 (ID: 17162976/0x0105E2E0)
394: 0x0ADB [0x4A] 13 (ID: 17162976/0x0105E2E0) looks at 10 (ID: 17162973/0x0105E2DD)
395: 0x0AE4 [0x4A] 09 (ID: 17162972/0x0105E2DC) looks at 14 (ID: 17162977/0x0105E2E1)
396: 0x0AED [0x4A] 14 (ID: 17162977/0x0105E2E1) looks at 09 (ID: 17162972/0x0105E2DC)
397: 0x0AF6 [0x5B] LOAD_EXT_SCHEDULER: Load scheduler "mq00" with entities [Ajido-Marujido (ID: 17162758/0x0105E206), Ajido-Marujido (ID: 17162758/0x0105E206)], work=1289*
398: 0x0B05 [0x5B] LOAD_EXT_SCHEDULER: Load scheduler "gaku" with entities [05 (ID: 17162968/0x0105E2D8), 05 (ID: 17162968/0x0105E2D8)], work=1278*
399: 0x0B14 [0x5B] LOAD_EXT_SCHEDULER: Load scheduler "gaku" with entities [15 (ID: 17162978/0x0105E2E2), 15 (ID: 17162978/0x0105E2E2)], work=1286*
400: 0x0B23 [0x5B] LOAD_EXT_SCHEDULER: Load scheduler "kow0" with entities [14 (ID: 17162977/0x0105E2E1), 14 (ID: 17162977/0x0105E2E1)], work=85*
401: 0x0B32 [0x66] LOAD_EXT_SCHEDULER_MAIN: Load scheduler "thk1" with entities [01 (ID: 17162964/0x0105E2D4), 01 (ID: 17162964/0x0105E2D4)], work=40*
402: 0x0B41 [0x66] LOAD_EXT_SCHEDULER_MAIN: Load scheduler "tlb0" with entities [02 (ID: 17162965/0x0105E2D5), 02 (ID: 17162965/0x0105E2D5)], work=34*
403: 0x0B50 [0x66] LOAD_EXT_SCHEDULER_MAIN: Load scheduler "tlk0" with entities [03 (ID: 17162966/0x0105E2D6), 03 (ID: 17162966/0x0105E2D6)], work=40*
404: 0x0B5F [0x66] LOAD_EXT_SCHEDULER_MAIN: Load scheduler "obi0" with entities [08 (ID: 17162971/0x0105E2DB), 08 (ID: 17162971/0x0105E2DB)], work=40*
405: 0x0B6E [0x66] LOAD_EXT_SCHEDULER_MAIN: Load scheduler "tlb0" with entities [11 (ID: 17162974/0x0105E2DE), 11 (ID: 17162974/0x0105E2DE)], work=34*
406: 0x0B7D [0x5B] LOAD_EXT_SCHEDULER: Load scheduler "tlk0" with entities [19 (ID: 17162982/0x0105E2E6), 19 (ID: 17162982/0x0105E2E6)], work=80*
407: 0x0B8C [0x5B] LOAD_EXT_SCHEDULER: Load scheduler "thk1" with entities [20 (ID: 17162983/0x0105E2E7), 20 (ID: 17162983/0x0105E2E7)], work=80*
408: 0x0B9B [0x5B] LOAD_EXT_SCHEDULER: Load scheduler "aww0" with entities [17 (ID: 17162980/0x0105E2E4), 17 (ID: 17162980/0x0105E2E4)], work=80*
409: 0x0BAA [0x5B] LOAD_EXT_SCHEDULER: Load scheduler "tlb0" with entities [11 (ID: 17162974/0x0105E2DE), 11 (ID: 17162974/0x0105E2DE)], work=325*
410: 0x0BB9 [0x5B] LOAD_EXT_SCHEDULER: Load scheduler "nai0" with entities [12 (ID: 17162975/0x0105E2DF), 12 (ID: 17162975/0x0105E2DF)], work=85*
411: 0x0BC8 [0x5B] LOAD_EXT_SCHEDULER: Load scheduler "tlk0" with entities [13 (ID: 17162976/0x0105E2E0), 13 (ID: 17162976/0x0105E2E0)], work=87*
412: 0x0BD7 [0x5B] LOAD_EXT_SCHEDULER: Load scheduler "kow0" with entities [16 (ID: 17162979/0x0105E2E3), 16 (ID: 17162979/0x0105E2E3)], work=85*
413: 0x0BE6 [0x5B] LOAD_EXT_SCHEDULER: Load scheduler "pan0" with entities [18 (ID: 17162981/0x0105E2E5), 18 (ID: 17162981/0x0105E2E5)], work=85*
414: 0x0BF5 [0x1C] WAIT(15* ticks)
415: 0x0BF8 [0x27] REQ_SET(priority=0x10, entity_id=09 (ID: 17162972/0x0105E2DC), tag_num=0x02)
416: 0x0BFF [0x45] LOAD_SCHEDULED_TASK: Load scheduler "041f" with entities [LocalPlayer, LocalPlayer], work=[504*, 0*]
417: 0x0C10 [0x1A] CALL_SUBROUTINE(address=0x3F72)
418: 0x0C13 [0x1C] WAIT(210* ticks)
419: 0x0C16 [0x52] END_LOAD_SCHEDULER: End scheduler "041f" with entities [LocalPlayer, LocalPlayer], work=504*
