# 17162853 - Llewellyn

## Common Data

| Field            | Value                        |
|------------------|------------------------------|
| Zone             | Windurst Waters [S] (ID: 94) |
| Block Size       | 5380 bytes                   |
| Total Events     | 10                           |
| References Count | 180                          |

## List of Events

| Event ID              | Entrypoint   |   Size |   Instructions |
|-----------------------|--------------|--------|----------------|
| [65535](#event-65535) | 0x0000       |      1 |              1 |
| [168](#event-168)     | 0x0001       |      7 |              2 |
| [158](#event-158)     | 0x0008       |      7 |              2 |
| [32](#event-32)       | 0x000F       |      1 |              1 |
| [42](#event-42)       | 0x0010       |      1 |              1 |
| [43](#event-43)       | 0x0011       |      1 |              1 |
| [10](#event-10)       | 0x0012       |    307 |             99 |
| [11](#event-11)       | 0x0145       |   3376 |            709 |
| [12](#event-12)       | 0x0E75       |    674 |             68 |
| [15](#event-15)       | 0x1117       |    226 |             66 |

## DAT References (imed_data)

|   Index | Hex Value   |   Dec Value |
|---------|-------------|-------------|
|       0 | 0x15180     |       86400 |
|       1 | 0x321C      |       12828 |
|       2 | 0x0E10      |        3600 |
|       3 | 0x0001      |           1 |
|       4 | 0x321E      |       12830 |
|       5 | 0x321D      |       12829 |
|       6 | 0x321F      |       12831 |
|       7 | 0x0002      |           2 |
|       8 | 0x3203      |       12803 |
|       9 | 0x0000      |           0 |
|      10 | 0x40000000  |  1073741824 |
|      11 | 0x3237      |       12855 |
|      12 | 0x3236      |       12854 |
|      13 | 0x3235      |       12853 |
|      14 | 0x0003      |           3 |
|      15 | 0x3204      |       12804 |
|      16 | 0x3205      |       12805 |
|      17 | 0x3206      |       12806 |
|      18 | 0x3207      |       12807 |
|      19 | 0x3208      |       12808 |
|      20 | 0x3209      |       12809 |
|      21 | 0x0004      |           4 |
|      22 | 0x3212      |       12818 |
|      23 | 0x3213      |       12819 |
|      24 | 0x3214      |       12820 |
|      25 | 0x3215      |       12821 |
|      26 | 0x0005      |           5 |
|      27 | 0x3216      |       12822 |
|      28 | 0x3217      |       12823 |
|      29 | 0x3218      |       12824 |
|      30 | 0x3219      |       12825 |
|      31 | 0x321A      |       12826 |
|      32 | 0x321B      |       12827 |
|      33 | 0x0006      |           6 |
|      34 | 0x320B      |       12811 |
|      35 | 0x320C      |       12812 |
|      36 | 0x320D      |       12813 |
|      37 | 0x320E      |       12814 |
|      38 | 0x320F      |       12815 |
|      39 | 0x3210      |       12816 |
|      40 | 0x320A      |       12810 |
|      41 | 0x3211      |       12817 |
|      42 | 0x3200      |       12800 |
|      43 | 0x3201      |       12801 |
|      44 | 0x3202      |       12802 |
|      45 | 0x3221      |       12833 |
|      46 | 0x3222      |       12834 |
|      47 | 0x3259      |       12889 |
|      48 | 0x325A      |       12890 |
|      49 | 0x325B      |       12891 |
|      50 | 0x0010      |          16 |
|      51 | 0x3238      |       12856 |
|      52 | 0x3239      |       12857 |
|      53 | 0x323A      |       12858 |
|      54 | 0x323B      |       12859 |
|      55 | 0x323C      |       12860 |
|      56 | 0x323D      |       12861 |
|      57 | 0x323E      |       12862 |
|      58 | 0x323F      |       12863 |
|      59 | 0x3240      |       12864 |
|      60 | 0x0007      |           7 |
|      61 | 0x000E      |          14 |
|      62 | 0x3223      |       12835 |
|      63 | 0x3224      |       12836 |
|      64 | 0x3231      |       12849 |
|      65 | 0x3232      |       12850 |
|      66 | 0x3233      |       12851 |
|      67 | 0x3225      |       12837 |
|      68 | 0x3226      |       12838 |
|      69 | 0x0078      |         120 |
|      70 | 0x001E      |          30 |
|      71 | 0x0013      |          19 |
|      72 | 0x039D      |         925 |
|      73 | 0x039E      |         926 |
|      74 | 0x039F      |         927 |
|      75 | 0x03A0      |         928 |
|      76 | 0x03A1      |         929 |
|      77 | 0x03A2      |         930 |
|      78 | 0x03A3      |         931 |
|      79 | 0x0008      |           8 |
|      80 | 0x03A4      |         932 |
|      81 | 0x0009      |           9 |
|      82 | 0x03A5      |         933 |
|      83 | 0x000A      |          10 |
|      84 | 0x03A6      |         934 |
|      85 | 0x000B      |          11 |
|      86 | 0x03A7      |         935 |
|      87 | 0x000C      |          12 |
|      88 | 0x03A8      |         936 |
|      89 | 0x000D      |          13 |
|      90 | 0x03A9      |         937 |
|      91 | 0x03AA      |         938 |
|      92 | 0x000F      |          15 |
|      93 | 0x03AB      |         939 |
|      94 | 0x03AC      |         940 |
|      95 | 0x0011      |          17 |
|      96 | 0x03AD      |         941 |
|      97 | 0x0012      |          18 |
|      98 | 0x03AE      |         942 |
|      99 | 0x03AF      |         943 |
|     100 | 0x16C5A     |       93274 |
|     101 | 0xFFFF208F  |  4294910095 |
|     102 | 0x03E8      |        1000 |
|     103 | 0x022A      |         554 |
|     104 | 0x171D1     |       94673 |
|     105 | 0xFFFF38C8  |  4294916296 |
|     106 | 0x03E7      |         999 |
|     107 | 0x00F6      |         246 |
|     108 | 0x017B      |         379 |
|     109 | 0x3227      |       12839 |
|     110 | 0x002D      |          45 |
|     111 | 0x3228      |       12840 |
|     112 | 0x0019      |          25 |
|     113 | 0x3229      |       12841 |
|     114 | 0xFFFB7A80  |  4294670976 |
|     115 | 0xFFFEE67B  |  4294895227 |
|     116 | 0xFFFFD121  |  4294955297 |
|     117 | 0x0FB7      |        4023 |
|     118 | 0xFFFB855C  |  4294673756 |
|     119 | 0xFFFF00C2  |  4294901954 |
|     120 | 0x04B6      |        1206 |
|     121 | 0x322A      |       12842 |
|     122 | 0x322B      |       12843 |
|     123 | 0x0478      |        1144 |
|     124 | 0x322C      |       12844 |
|     125 | 0xFFFFEC5F  |  4294962271 |
|     126 | 0xA6DD      |       42717 |
|     127 | 0xFFFFFC18  |  4294966296 |
|     128 | 0x0809      |        2057 |
|     129 | 0xFFFFE891  |  4294961297 |
|     130 | 0x8D8F      |       36239 |
|     131 | 0x080A      |        2058 |
|     132 | 0x322D      |       12845 |
|     133 | 0x003B      |          59 |
|     134 | 0x322E      |       12846 |
|     135 | 0x322F      |       12847 |
|     136 | 0x3230      |       12848 |
|     137 | 0x00FE      |         254 |
|     138 | 0x00B4      |         180 |
|     139 | 0x00B6      |         182 |
|     140 | 0x00C9      |         201 |
|     141 | 0x00C8      |         200 |
|     142 | 0x3234      |       12852 |
|     143 | 0x3241      |       12865 |
|     144 | 0x3242      |       12866 |
|     145 | 0x3243      |       12867 |
|     146 | 0x3246      |       12870 |
|     147 | 0x3245      |       12869 |
|     148 | 0x3244      |       12868 |
|     149 | 0x3247      |       12871 |
|     150 | 0x3248      |       12872 |
|     151 | 0x324A      |       12874 |
|     152 | 0x3249      |       12873 |
|     153 | 0x324B      |       12875 |
|     154 | 0x324C      |       12876 |
|     155 | 0x324D      |       12877 |
|     156 | 0x324E      |       12878 |
|     157 | 0x3251      |       12881 |
|     158 | 0x3250      |       12880 |
|     159 | 0x324F      |       12879 |
|     160 | 0x3252      |       12882 |
|     161 | 0x3253      |       12883 |
|     162 | 0x3254      |       12884 |
|     163 | 0x3255      |       12885 |
|     164 | 0x3256      |       12886 |
|     165 | 0x3257      |       12887 |
|     166 | 0x3258      |       12888 |
|     167 | 0x325C      |       12892 |
|     168 | 0x3220      |       12832 |
|     169 | 0x00D7      |         215 |
|     170 | 0x325D      |       12893 |
|     171 | 0x325E      |       12894 |
|     172 | 0x001F      |          31 |
|     173 | 0x325F      |       12895 |
|     174 | 0x3260      |       12896 |
|     175 | 0x3261      |       12897 |
|     176 | 0x3262      |       12898 |
|     177 | 0x3263      |       12899 |
|     178 | 0x3264      |       12900 |
|     179 | 0x3265      |       12901 |

## String References

- **12800**: Salutations, I am Campaign Evaluation Official Alfred. How might I be of assistance?
- **12801**: Greetings, I am Campaign Evaluation Official Annabelle. How can I help you today?
- **12802**: Hello, I'm Campaign Evaluation Official Llewellyn. How can I help you today?
- **12803**: What do you require? [Nothing./An evaluation./Info on the duration of my medal./An overview of evaluations./Info on medals./Info on the benefits of medals./Info on evaluation process.]
- **12804**: Evaluations are conducted on all participants of the Allied Campaign. Individual data is collected by the Allied War Council from various sources, such as Campaign Arbiters and the leaders of the armies in which the soldiers serve. This data is then used to determine whether or not a decoration is to be conferred.
- **12805**: Some of the areas that are considered in this evaluation are performance in campaign operations, as well as valor shown during campaign battles.
- **12806**: The more an individual is decorated, the more responsibility he or she will be given within the Allied Forces. And with more responsibility comes the promise of larger compensation in exchange for services.
- **12807**: However, the prestige that accompanies the medals also carries with it a great weight. To maintain one's status, he or she must continue to exceed previous expectations. If a soldier fails to fulfill the duties that are required of all those who possess a certain medal, then the Allied War Council will be forced to confiscate that decoration.
- **12808**: To put it simply, only those who fight with fervor and precision...only those who put the glory of the Allied Campaign above all else...will be allowed to reap the benefits that come with victory.
- **12809**: If you wish to learn more of the Allied Campaign, please speak with [/Lady Fiaudie/Centurion Aurelius/Kolin-Olin].
- **12810**: There are two more things of note.
- **12811**: Once an evaluation has been requested, the Allied War Council will require [five days/one hour] (Earth time) to come to a conclusion.
- **12812**: During that time, individuals may join as many operations or battles as they wish, but will only be considered for a single medal.
- **12813**: However, the same rules apply for an inadequate performance. No matter how low one scores, the maximum number of decorations that can be confiscated is one.
- **12814**: Also, individuals must not forget that all medals come with expiration dates. While an extremely unorthodox practice, this measure was deemed necessary to prevent the forgery of allied decorations by those persons with dubious intentions.
- **12815**: Upon conferral, all medals are marked with a magical seal that dissipates after a period of thirty days (Earth time). Once the seal has vanished, the medal will become void and its owner will no longer be able to participate in campaign operations or battles, among other things.
- **12816**: It is highly recommended that you keep track of the time remaining on your medal and apply for evaluations regularly.
- **12817**: Is there anything else you wish to ask?
- **12818**: Campaign medals are official rewards given to those individuals who perform exemplary deeds for the Allied Forces.
- **12819**: These decorations are internationally recognized as symbols of strength, loyalty, and honor. They not only garner respect, but provide their bearers with privileges not offered civilians.
- **12820**: Those who have been decorated with the more prestigious medals will also be highly regarded among their army's ranks, and thus entrusted with increasingly difficult and important missions.
- **12821**: On the other hand, disloyalty to one's nation is highly frowned upon. If, for any reason, an individual wishes to leave their current army of employment and pledge allegiance to another, they will be required to return their two most distinguished medals.
- **12822**: To the point, are we? Very well, I shall list the merits those in the possession of medals may receive.
- **12823**: Firstly, the more prestigious an individual's medal, the more weight [his/her] army's [/curate/supply commander/Morale Manager] will grant [his/her] opinion.
- **12824**: Secondly, the types of Campaign Ops available to an individual will increase based on the medals that [he/she] has in [his/her] possession. More advanced operations will earn participants increased amounts of EXP and Allied Notes, as well as have a heavier influence on performance evaluations.
- **12825**: Thirdly, benefits received during campaign battles will vary depending on the variety of medals an individual carries. The better the medals, the larger the opportunity to earn EXP, Allied Notes, and reputation. The selection of temporary items available for purchase will also improve.
- **12826**: However, the more prestigious the medal, the more that will be expected of its bearer. The Campaign Arbiters will not go easy on those who have already proven themselves.
- **12827**: Understood?
- **12828**: Greetings, <Player>. My ledger states that the earliest you can apply for an evaluation is in $0 day[/s].
- **12829**: Greetings, <Player>. My ledger states that the earliest you can apply for an evaluation is in $0 hour[/s].
- **12830**: Greetings, <Player>. My ledger states that the earliest you can apply for an evaluation is...any moment now.
- **12831**: Is there something I can help you with in the meantime?
- **12832**: Greetings, soldier. Unfortunately, I cannot authorize the evaluations of those individuals who have not pledged their allegiance to this nation's forces.
- **12833**: Understood. I shall prepare the proper documents and deliver them to the Allied War Council Evaluation Board in Jeuno.
- **12834**: ......
- **12835**: Congratulations, <Player>! Your recent performance has been evaluated, and the Allied War Council has deemed you worthy of a new medal!
- **12836**: Accept the honors? [Yes./No.]
- **12837**: Are you sure? [Yes./No.]
- **12838**: One moment, please, while I prepare your award.
- **12848**: That is all. Please note that you will not be eligible for another evaluation for [five days/one hour] (Earth time). Good luck, <Player>.
- **12849**: Are you certain, <Player>? You know there is no need to be humble.
- **12850**: Or perhaps you have forgotten that it doesn't matter how much you contribute to the Allied Campaign, you can only receive one medal per evaluation.
- **12851**: I cannot force you to accept the medal, but...
- **12852**: While the Allied War Council was pleased with your work, it was determined that your performance did not warrant the conferral of further decoration.
- **12853**: You still have $2 day[/s] (Earth time) until your current campaign medal expires.
- **12854**: Your current campaign medal will expire in less than a day (Earth time).
- **12855**: Your current campaign medal has already expired.
- **12856**: Would you like to continue this month's evaluation in a further attempt to receive the next medal, or would you rather end the evaluation and maintain your current honors?
- **12857**: End the evaluation? [Yes./No.]
- **12858**: Excellent. Speak with me again when you are ready to submit your next application. Good luck, <Player>.
- **12859**: By ending the evaluation, you will have accepted the war council's decision to maintain your current rank, and be granted another thirty-day seal on your current medal.
- **12860**: However, any work you have done during the past evaluation period towards the procurement of the next medal will become null and void.
- **12861**: Please consider carefully your options before making this important decision.
- **12862**: Are you absolutely sure? [Yes./No.]
- **12863**: Done. Your medal has been given a new magic seal.
- **12864**: Please note that you will be eligible for your next evaluation in [five days/one hour] (Earth time).
- **12865**: ...... I am sorry, <Player>, but the war council was not at all pleased with your performance, and has deemed you unworthy of your highest-ranking medal.
- **12866**: It shall be confiscated the moment its magic seal expires.
- **12867**: You have two choices left, <Player>. You may either accept the council's decision, or, if your medal's seal still holds, you may continue your efforts to improve your evaluation.
- **12868**: It retains $2 day[/s] (Earth time) of power.
- **12869**: However, it retains less than a day's power (Earth time).
- **12870**: Unfortunately, it no longer retains any power...
- **12871**: What is your decision?
- **12872**: You can... [Return the medal at once./Continue your efforts.]
- **12873**: Are you certain? [Yes./No.]
- **12874**: Excellent. Speak with me again when you are ready to submit your next application. Good luck, <Player>.
- **12875**: Understood. Perhaps the weight of this medal was a bit too much for you, <Player>.
- **12876**: If you wish to submit another application for evaluation, please visit me again in [five days'/one hour's] time.
- **12877**: ...... I regret to inform you, <Player>, that your performance this term fell a measure short of the council's expectations. Admittedly high expectations, but nevertheless...
- **12878**: Still, you have proven your worth to our nation on many an occasion. In light of your past services, the council has seen fit to exempt you from demotion at this time.
- **12879**: Incidentally, your seal will remain effective for $2 more day[/s] (Earth time).
- **12880**: Incidentally, your seal retains less than a day's power (Earth time).
- **12881**: Incidentally, your seal is no longer effective.
- **12882**: You may end your evaluation here, or press on. What say you?
- **12883**: Very well. We will be following your continued efforts with interest.
- **12884**: By ending the evaluation, you will have accepted the war council's decision to maintain your current rank, and be granted another thirty-day seal on your current medal.
- **12885**: However, any work you have done during the past evaluation period towards the procurement of the next medal will become null and void.
- **12886**: Please consider carefully your options before making this important decision.
- **12887**: Done. Your medal has been given a new magic seal.
- **12888**: Oh yes, and please note that you will not be eligible for another evaluation for [five days/one hour] (Earth time).
- **12889**: You are currently in possession of the most prestigious Campaign medal we have to offer. The Kingdom of San d'Oria has the utmost faith in you, and shall support you in any endeavor you choose to undertake.
- **12890**: You are currently in possession of the most prestigious Campaign medal we have to offer. The Republic of Bastok has the utmost faith in you, and shall support you in any endeavor you choose to undertake.
- **12891**: You are currently in possession of the most prestigious Campaign medal we have to offer. The Federation of Windurst has the utmost faith in you, and shall support you in any endeavor you choose to undertake.
- **12892**: You are a true hero to our nation. Though you may be exempt from demotion, we ask that you do not let up in the fight. Our hopes rest with you, <Player>!
- **12893**: Choose wisely. [Set days./Rank Points $0./Rank $1/Reset to default./Quit.]
- **12894**: Push forward how many hours?
- **12895**: Time has been pushed forward $0 hour(s).
- **12896**: Set the amount of points.
- **12897**: Points have been set at $0.
- **12898**: Set rank, please.
- **12899**: Rank has been set at $0.
- **12900**: Reset to default settings? [Yes./No.]
- **12901**: Reset complete.

## Events

### Event 65535

#### Metadata

| Field        | Value   |
|--------------|---------|
| Entrypoint   | 0x0000  |
| Data Size    | 1 bytes |
| Instructions | 1       |

```
      00 01 02 03 04 05 06 07  08 09 0A 0B 0C 0D 0E 0F
      -- -- -- -- -- -- -- --  -- -- -- -- -- -- -- --
0000: 00                                                .               
```

#### Opcodes

```
  0: 0x0000 [0x00] END_REQSTACK()
```

### Event 168

#### Metadata

| Field        | Value   |
|--------------|---------|
| Entrypoint   | 0x0001  |
| Data Size    | 7 bytes |
| Instructions | 2       |

```
      00 01 02 03 04 05 06 07  08 09 0A 0B 0C 0D 0E 0F
      -- -- -- -- -- -- -- --  -- -- -- -- -- -- -- --
0000:    92 01 F8 FF FF 7F 00                            .......        
```

#### Opcodes

```
  0: 0x0001 [0x92] EventEntity->Render.Flags3 ^= 0x01
  1: 0x0007 [0x00] END_REQSTACK()
```

### Event 158

#### Metadata

| Field        | Value   |
|--------------|---------|
| Entrypoint   | 0x0008  |
| Data Size    | 7 bytes |
| Instructions | 2       |

```
      00 01 02 03 04 05 06 07  08 09 0A 0B 0C 0D 0E 0F
      -- -- -- -- -- -- -- --  -- -- -- -- -- -- -- --
0000:                          92 01 F8 FF FF 7F 00             ....... 
```

#### Opcodes

```
  0: 0x0008 [0x92] EventEntity->Render.Flags3 ^= 0x01
  1: 0x000E [0x00] END_REQSTACK()
```

### Event 32

#### Metadata

| Field        | Value   |
|--------------|---------|
| Entrypoint   | 0x000F  |
| Data Size    | 1 bytes |
| Instructions | 1       |

```
      00 01 02 03 04 05 06 07  08 09 0A 0B 0C 0D 0E 0F
      -- -- -- -- -- -- -- --  -- -- -- -- -- -- -- --
0000:                                               00                 .
```

#### Opcodes

```
  0: 0x000F [0x00] END_REQSTACK()
```

### Event 42

#### Metadata

| Field        | Value   |
|--------------|---------|
| Entrypoint   | 0x0010  |
| Data Size    | 1 bytes |
| Instructions | 1       |

```
      00 01 02 03 04 05 06 07  08 09 0A 0B 0C 0D 0E 0F
      -- -- -- -- -- -- -- --  -- -- -- -- -- -- -- --
0010: 00                                                .               
```

#### Opcodes

```
  0: 0x0010 [0x00] END_REQSTACK()
```

### Event 43

#### Metadata

| Field        | Value   |
|--------------|---------|
| Entrypoint   | 0x0011  |
| Data Size    | 1 bytes |
| Instructions | 1       |

```
      00 01 02 03 04 05 06 07  08 09 0A 0B 0C 0D 0E 0F
      -- -- -- -- -- -- -- --  -- -- -- -- -- -- -- --
0010:    00                                              .              
```

#### Opcodes

```
  0: 0x0011 [0x00] END_REQSTACK()
```

### Event 10

#### Metadata

| Field        | Value     |
|--------------|-----------|
| Entrypoint   | 0x0012    |
| Data Size    | 307 bytes |
| Instructions | 84        |

```
      00 01 02 03 04 05 06 07  08 09 0A 0B 0C 0D 0E 0F
      -- -- -- -- -- -- -- --  -- -- -- -- -- -- -- --
0010:       03 02 00 02 10 03  03 00 09 10 1E F0 FF FF    ..............
0020: 7F 6F 76 F8 FF FF 7F 02  02 00 00 80 02 40 00 03  .ov..........@..
0030: 02 10 02 00 15 02 10 00  80 1D 01 80 23 01 5D 00  ............#.].
0040: 03 02 10 02 00 15 02 10  02 80 02 02 10 03 80 03  ................
0050: 59 00 1D 04 80 23 01 5D  00 1D 05 80 23 1D 06 80  Y....#.]....#...
0060: 23 03 01 00 07 80 24 08  80 09 80 01 00 25 02 00  #.....$......%..
0070: 10 09 80 00 81 00 03 01  10 0A 80 01 43 01 01 40  ............C..@
0080: 01 02 00 10 07 80 00 B7  00 03 01 10 03 80 43 00  ..............C.
0090: 43 01 02 04 10 03 80 03  A1 00 1D 0B 80 23 01 B4  C............#..
00A0: 00 02 04 10 03 80 00 B0  00 1D 0C 80 23 01 B4 00  ............#...
00B0: 1D 0D 80 23 01 40 01 02  00 10 0E 80 00 DA 00 1D  ...#.@..........
00C0: 0F 80 23 1D 10 80 23 1D  11 80 23 1D 12 80 23 1D  ..#...#...#...#.
00D0: 13 80 23 1D 14 80 23 01  40 01 02 00 10 15 80 00  ..#...#.@.......
00E0: F5 00 1D 16 80 23 1D 17  80 23 1D 18 80 23 1D 19  .....#...#...#..
00F0: 80 23 01 40 01 02 00 10  1A 80 00 18 01 1D 1B 80  .#.@............
0100: 23 1D 1C 80 23 1D 1D 80  23 1D 1E 80 23 1D 1F 80  #...#...#...#...
0110: 23 1D 20 80 23 01 40 01  02 00 10 21 80 00 40 01  #. .#.@....!..@.
0120: 03 02 10 03 00 1D 22 80  23 1D 23 80 23 1D 24 80  ......".#.#.#.$.
0130: 23 1D 25 80 23 1D 26 80  23 1D 27 80 23 01 40 01  #.%.#.&.#.'.#.@.
0140: 01 66 00 21 00                                    .f.!.           
```

#### Opcodes

```
  0: 0x0012 [0x03] ExtData[1]->WorkLocal[2] = Work_Zone[2]
  1: 0x0017 [0x03] ExtData[1]->WorkLocal[3] = Work_Zone[9]
  2: 0x001C [0x1E] EventEntity looks at LocalPlayer and starts talking
  3: 0x0021 [0x6F] WAIT_FRAME_DELAY: Yield until WaitTime reaches zero
  4: 0x0022 [0x76] CHECK_ENTITY_RENDER_FLAGS: Wait until EventEntity Render.Flags0 and Render.Flags3 conditions are met
  5: 0x0027 [0x02] IF !(ExtData[1]->WorkLocal[2] <= 86400*) GOTO 0x0040
  6: 0x002F [0x03] Work_Zone[2] = ExtData[1]->WorkLocal[2]
  7: 0x0034 [0x15] Work_Zone[2] /= 86400*
  8: 0x0039 [0x1D] PRINT_EVENT_MESSAGE(message_id=12828*)
    → "Greetings, <Player>. My ledger states that the earliest you can apply for an evaluation is in $0 day[/s]."
  9: 0x003C [0x23] WAIT_FOR_DIALOG_INTERACTION
 10: 0x003D [0x01] GOTO 0x005D
 11: 0x0040 [0x03] Work_Zone[2] = ExtData[1]->WorkLocal[2]
 12: 0x0045 [0x15] Work_Zone[2] /= 3600*
 13: 0x004A [0x02] IF !(Work_Zone[2] >= 1*) GOTO 0x0059
 14: 0x0052 [0x1D] PRINT_EVENT_MESSAGE(message_id=12830*)
    → "Greetings, <Player>. My ledger states that the earliest you can apply for an evaluation is...any moment now."
 15: 0x0055 [0x23] WAIT_FOR_DIALOG_INTERACTION
 16: 0x0056 [0x01] GOTO 0x005D
 17: 0x0059 [0x1D] PRINT_EVENT_MESSAGE(message_id=12829*)
    → "Greetings, <Player>. My ledger states that the earliest you can apply for an evaluation is in $0 hour[/s]."
 18: 0x005C [0x23] WAIT_FOR_DIALOG_INTERACTION

SUBROUTINE_005D:
 19: 0x005D [0x1D] PRINT_EVENT_MESSAGE(message_id=12831*)
    → "Is there something I can help you with in the meantime?"
 20: 0x0060 [0x23] WAIT_FOR_DIALOG_INTERACTION
 21: 0x0061 [0x03] ExtData[1]->WorkLocal[1] = 2*

SUBROUTINE_0066:
 22: 0x0066 [0x24] CREATE_DIALOG(message_id=12803*, default_option=0*, option_flags=ExtData[1]->WorkLocal[1])
    → "What do you require? [Nothing./An evaluation./Info on the duration of my medal./An overview of evaluations./Info on medals./Info on the benefits of medals./Info on evaluation process.]"
 23: 0x006D [0x25] WAIT_DIALOG_SELECT()
 24: 0x006E [0x02] IF !(Work_Zone[0] == 0*) GOTO 0x0081
 25: 0x0076 [0x03] Work_Zone[1] = 1073741824*
 26: 0x007B [0x01] GOTO 0x0143

SUBROUTINE_00B4:
 27: 0x00B4 [0x01] GOTO 0x0140
 28: 0x00B7 [0x02] IF !(Work_Zone[0] == 3*) GOTO 0x00DA
 29: 0x00BF [0x1D] PRINT_EVENT_MESSAGE(message_id=12804*)
    → "Evaluations are conducted on all participants of the Allied Campaign. Individual data is collected by the Allied War Council from various sources, such as Campaign Arbiters and the leaders of the armies in which the soldiers serve. This data is then used to determine whether or not a decoration is to be conferred."
 30: 0x00C2 [0x23] WAIT_FOR_DIALOG_INTERACTION
 31: 0x00C3 [0x1D] PRINT_EVENT_MESSAGE(message_id=12805*)
    → "Some of the areas that are considered in this evaluation are performance in campaign operations, as well as valor shown during campaign battles."
 32: 0x00C6 [0x23] WAIT_FOR_DIALOG_INTERACTION
 33: 0x00C7 [0x1D] PRINT_EVENT_MESSAGE(message_id=12806*)
    → "The more an individual is decorated, the more responsibility he or she will be given within the Allied Forces. And with more responsibility comes the promise of larger compensation in exchange for services."
 34: 0x00CA [0x23] WAIT_FOR_DIALOG_INTERACTION
 35: 0x00CB [0x1D] PRINT_EVENT_MESSAGE(message_id=12807*)
    → "However, the prestige that accompanies the medals also carries with it a great weight. To maintain one's status, he or she must continue to exceed previous expectations. If a soldier fails to fulfill the duties that are required of all those who possess a certain medal, then the Allied War Council will be forced to confiscate that decoration."
 36: 0x00CE [0x23] WAIT_FOR_DIALOG_INTERACTION
 37: 0x00CF [0x1D] PRINT_EVENT_MESSAGE(message_id=12808*)
    → "To put it simply, only those who fight with fervor and precision...only those who put the glory of the Allied Campaign above all else...will be allowed to reap the benefits that come with victory."
 38: 0x00D2 [0x23] WAIT_FOR_DIALOG_INTERACTION
 39: 0x00D3 [0x1D] PRINT_EVENT_MESSAGE(message_id=12809*)
    → "If you wish to learn more of the Allied Campaign, please speak with [/Lady Fiaudie/Centurion Aurelius/Kolin-Olin]."
 40: 0x00D6 [0x23] WAIT_FOR_DIALOG_INTERACTION
 41: 0x00D7 [0x01] GOTO 0x0140
 42: 0x00DA [0x02] IF !(Work_Zone[0] == 4*) GOTO 0x00F5
 43: 0x00E2 [0x1D] PRINT_EVENT_MESSAGE(message_id=12818*)
    → "Campaign medals are official rewards given to those individuals who perform exemplary deeds for the Allied Forces."
 44: 0x00E5 [0x23] WAIT_FOR_DIALOG_INTERACTION
 45: 0x00E6 [0x1D] PRINT_EVENT_MESSAGE(message_id=12819*)
    → "These decorations are internationally recognized as symbols of strength, loyalty, and honor. They not only garner respect, but provide their bearers with privileges not offered civilians."
 46: 0x00E9 [0x23] WAIT_FOR_DIALOG_INTERACTION
 47: 0x00EA [0x1D] PRINT_EVENT_MESSAGE(message_id=12820*)
    → "Those who have been decorated with the more prestigious medals will also be highly regarded among their army's ranks, and thus entrusted with increasingly difficult and important missions."
 48: 0x00ED [0x23] WAIT_FOR_DIALOG_INTERACTION
 49: 0x00EE [0x1D] PRINT_EVENT_MESSAGE(message_id=12821*)
    → "On the other hand, disloyalty to one's nation is highly frowned upon. If, for any reason, an individual wishes to leave their current army of employment and pledge allegiance to another, they will be required to return their two most distinguished medals."
 50: 0x00F1 [0x23] WAIT_FOR_DIALOG_INTERACTION
 51: 0x00F2 [0x01] GOTO 0x0140
 52: 0x00F5 [0x02] IF !(Work_Zone[0] == 5*) GOTO 0x0118
 53: 0x00FD [0x1D] PRINT_EVENT_MESSAGE(message_id=12822*)
    → "To the point, are we? Very well, I shall list the merits those in the possession of medals may receive."
 54: 0x0100 [0x23] WAIT_FOR_DIALOG_INTERACTION
 55: 0x0101 [0x1D] PRINT_EVENT_MESSAGE(message_id=12823*)
    → "Firstly, the more prestigious an individual's medal, the more weight [his/her] army's [/curate/supply commander/Morale Manager] will grant [his/her] opinion."
 56: 0x0104 [0x23] WAIT_FOR_DIALOG_INTERACTION
 57: 0x0105 [0x1D] PRINT_EVENT_MESSAGE(message_id=12824*)
    → "Secondly, the types of Campaign Ops available to an individual will increase based on the medals that [he/she] has in [his/her] possession. More advanced operations will earn participants increased amounts of EXP and Allied Notes, as well as have a heavier influence on performance evaluations."
 58: 0x0108 [0x23] WAIT_FOR_DIALOG_INTERACTION
 59: 0x0109 [0x1D] PRINT_EVENT_MESSAGE(message_id=12825*)
    → "Thirdly, benefits received during campaign battles will vary depending on the variety of medals an individual carries. The better the medals, the larger the opportunity to earn EXP, Allied Notes, and reputation. The selection of temporary items available for purchase will also improve."
 60: 0x010C [0x23] WAIT_FOR_DIALOG_INTERACTION
 61: 0x010D [0x1D] PRINT_EVENT_MESSAGE(message_id=12826*)
    → "However, the more prestigious the medal, the more that will be expected of its bearer. The Campaign Arbiters will not go easy on those who have already proven themselves."
 62: 0x0110 [0x23] WAIT_FOR_DIALOG_INTERACTION
 63: 0x0111 [0x1D] PRINT_EVENT_MESSAGE(message_id=12827*)
    → "Understood?"
 64: 0x0114 [0x23] WAIT_FOR_DIALOG_INTERACTION
 65: 0x0115 [0x01] GOTO 0x0140
 66: 0x0118 [0x02] IF !(Work_Zone[0] == 6*) GOTO 0x0140
 67: 0x0120 [0x03] Work_Zone[2] = ExtData[1]->WorkLocal[3]
 68: 0x0125 [0x1D] PRINT_EVENT_MESSAGE(message_id=12811*)
    → "Once an evaluation has been requested, the Allied War Council will require [five days/one hour] (Earth time) to come to a conclusion."
 69: 0x0128 [0x23] WAIT_FOR_DIALOG_INTERACTION
 70: 0x0129 [0x1D] PRINT_EVENT_MESSAGE(message_id=12812*)
    → "During that time, individuals may join as many operations or battles as they wish, but will only be considered for a single medal."
 71: 0x012C [0x23] WAIT_FOR_DIALOG_INTERACTION
 72: 0x012D [0x1D] PRINT_EVENT_MESSAGE(message_id=12813*)
    → "However, the same rules apply for an inadequate performance. No matter how low one scores, the maximum number of decorations that can be confiscated is one."
 73: 0x0130 [0x23] WAIT_FOR_DIALOG_INTERACTION
 74: 0x0131 [0x1D] PRINT_EVENT_MESSAGE(message_id=12814*)
    → "Also, individuals must not forget that all medals come with expiration dates. While an extremely unorthodox practice, this measure was deemed necessary to prevent the forgery of allied decorations by those persons with dubious intentions."
 75: 0x0134 [0x23] WAIT_FOR_DIALOG_INTERACTION
 76: 0x0135 [0x1D] PRINT_EVENT_MESSAGE(message_id=12815*)
    → "Upon conferral, all medals are marked with a magical seal that dissipates after a period of thirty days (Earth time). Once the seal has vanished, the medal will become void and its owner will no longer be able to participate in campaign operations or battles, among other things."
 77: 0x0138 [0x23] WAIT_FOR_DIALOG_INTERACTION
 78: 0x0139 [0x1D] PRINT_EVENT_MESSAGE(message_id=12816*)
    → "It is highly recommended that you keep track of the time remaining on your medal and apply for evaluations regularly."
 79: 0x013C [0x23] WAIT_FOR_DIALOG_INTERACTION
 80: 0x013D [0x01] GOTO 0x0140

SUBROUTINE_0140:
 81: 0x0140 [0x01] GOTO 0x0066

SUBROUTINE_0143:
 82: 0x0143 [0x21] END_EVENT
 83: 0x0144 [0x00] END_REQSTACK()
```

#### Data or dead code:

```
# Dead code (unreachable instructions):
     0x007E [0x01] GOTO 0x0140
```

### Event 11

#### Metadata

| Field        | Value      |
|--------------|------------|
| Entrypoint   | 0x0145     |
| Data Size    | 3376 bytes |
| Instructions | 678        |

```
      00 01 02 03 04 05 06 07  08 09 0A 0B 0C 0D 0E 0F
      -- -- -- -- -- -- -- --  -- -- -- -- -- -- -- --
0140:                42 1E F0  FF FF 7F 6F 76 F8 FF FF       B.....ov...
0150: 7F 03 00 00 02 10 02 00  00 09 80 00 9E 01 1D 0F  ................
0160: 80 23 1D 10 80 23 1D 11  80 23 1D 12 80 23 1D 13  .#...#...#...#..
0170: 80 23 1D 14 80 23 1D 28  80 23 1D 22 80 23 1D 23  .#...#.(.#.".#.#
0180: 80 23 1D 24 80 23 1D 25  80 23 1D 26 80 23 1D 27  .#.$.#.%.#.&.#.'
0190: 80 23 1D 29 80 23 03 01  00 07 80 01 CE 01 02 05  .#.).#..........
01A0: 10 03 80 80 AD 01 1D 2A  80 23 01 CB 01 02 05 10  .......*.#......
01B0: 07 80 80 BC 01 1D 2B 80  23 01 CB 01 02 05 10 0E  ......+.#.......
01C0: 80 80 CB 01 1D 2C 80 23  01 CB 01 06 01 00 24 08  .....,.#......$.
01D0: 80 09 80 01 00 25 02 00  10 09 80 00 E9 01 03 01  .....%..........
01E0: 10 0A 80 01 73 0E 01 B1  02 02 00 10 03 80 00 F7  ....s...........
01F0: 01 01 B4 02 01 B1 02 02  00 10 07 80 00 2D 02 03  .............-..
0200: 01 10 03 80 43 00 43 01  02 04 10 03 80 03 17 02  ....C.C.........
0210: 1D 0B 80 23 01 2A 02 02  04 10 03 80 00 26 02 1D  ...#.*.......&..
0220: 0C 80 23 01 2A 02 1D 0D  80 23 01 B1 02 02 00 10  ..#.*....#......
0230: 0E 80 00 50 02 1D 0F 80  23 1D 10 80 23 1D 11 80  ...P....#...#...
0240: 23 1D 12 80 23 1D 13 80  23 1D 14 80 23 01 B1 02  #...#...#...#...
0250: 02 00 10 15 80 00 6B 02  1D 16 80 23 1D 17 80 23  ......k....#...#
0260: 1D 18 80 23 1D 19 80 23  01 B1 02 02 00 10 1A 80  ...#...#........
0270: 00 8E 02 1D 1B 80 23 1D  1C 80 23 1D 1D 80 23 1D  ......#...#...#.
0280: 1E 80 23 1D 1F 80 23 1D  20 80 23 01 B1 02 02 00  ..#...#. .#.....
0290: 10 21 80 00 B1 02 1D 22  80 23 1D 23 80 23 1D 24  .!.....".#.#.#.$
02A0: 80 23 1D 25 80 23 1D 26  80 23 1D 27 80 23 01 B1  .#.%.#.&.#.'.#..
02B0: 02 01 CE 01 1D 2D 80 23  1D 2E 80 23 03 01 10 03  .....-.#...#....
02C0: 80 43 00 43 01 02 02 10  09 80 00 73 0E 02 03 10  .C.C.......s....
02D0: 15 80 80 97 03 02 05 10  03 80 80 E4 02 1D 2F 80  ............../.
02E0: 23 01 02 03 02 05 10 07  80 80 F3 02 1D 30 80 23  #............0.#
02F0: 01 02 03 02 05 10 0E 80  80 02 03 1D 31 80 23 01  ............1.#.
0300: 02 03 06 01 00 02 04 10  03 80 03 19 03 1D 0B 80  ................
0310: 23 03 01 00 32 80 01 2C  03 02 04 10 03 80 00 28  #...2..,.......(
0320: 03 1D 0C 80 23 01 2C 03  1D 0D 80 23 1D 33 80 23  ....#.,....#.3.#
0330: 24 34 80 03 80 01 00 25  02 00 10 03 80 00 4F 03  $4.....%......O.
0340: 1D 35 80 23 03 01 10 0A  80 01 73 0E 01 4F 03 1D  .5.#......s..O..
0350: 36 80 23 1D 37 80 23 1D  38 80 23 24 39 80 03 80  6.#.7.#.8.#$9...
0360: 01 00 25 02 00 10 03 80  00 7A 03 1D 35 80 23 03  ..%......z..5.#.
0370: 01 10 0A 80 01 73 0E 01  7A 03 1D 3A 80 23 1D 3B  .....s..z..:.#.;
0380: 80 23 03 01 10 07 80 40  15 80 3C 80 01 10 15 80  .#.....@..<.....
0390: 43 00 43 01 01 70 0E 02  03 10 0E 80 80 7E 0B 6E  C.C..p.......~.n
03A0: F8 FF FF 7F 3D 80 99 F8  FF FF 7F 1D 3E 80 23 24  ....=.......>.#$
03B0: 3F 80 03 80 09 80 25 02  00 10 03 80 00 D6 03 1D  ?.....%.........
03C0: 40 80 23 1D 41 80 23 1D  42 80 23 03 01 10 0A 80  @.#.A.#.B.#.....
03D0: 01 73 0E 01 D6 03 24 43  80 03 80 09 80 25 02 00  .s....$C.....%..
03E0: 10 03 80 00 FD 03 1D 40  80 23 1D 41 80 23 1D 42  .......@.#.A.#.B
03F0: 80 23 03 01 10 0A 80 01  73 0E 01 FD 03 6E F8 FF  .#......s....n..
0400: FF 7F 3C 80 99 F8 FF FF  7F 1D 44 80 23 5D 09 80  ..<.......D.#]..
0410: 45 80 1A E9 0E 1C 46 80  46 01 38 47 80 02 06 10  E.....F.F.8G....
0420: 03 80 80 2D 04 03 07 10  48 80 01 4D 05 02 06 10  ...-....H..M....
0430: 07 80 80 3D 04 03 07 10  49 80 01 4D 05 02 06 10  ...=....I..M....
0440: 0E 80 80 4D 04 03 07 10  4A 80 01 4D 05 02 06 10  ...M....J..M....
0450: 15 80 80 5D 04 03 07 10  4B 80 01 4D 05 02 06 10  ...]....K..M....
0460: 1A 80 80 6D 04 03 07 10  4C 80 01 4D 05 02 06 10  ...m....L..M....
0470: 21 80 80 7D 04 03 07 10  4D 80 01 4D 05 02 06 10  !..}....M..M....
0480: 3C 80 80 8D 04 03 07 10  4E 80 01 4D 05 02 06 10  <.......N..M....
0490: 4F 80 80 9D 04 03 07 10  50 80 01 4D 05 02 06 10  O.......P..M....
04A0: 51 80 80 AD 04 03 07 10  52 80 01 4D 05 02 06 10  Q.......R..M....
04B0: 53 80 80 BD 04 03 07 10  54 80 01 4D 05 02 06 10  S.......T..M....
04C0: 55 80 80 CD 04 03 07 10  56 80 01 4D 05 02 06 10  U.......V..M....
04D0: 57 80 80 DD 04 03 07 10  58 80 01 4D 05 02 06 10  W.......X..M....
04E0: 59 80 80 ED 04 03 07 10  5A 80 01 4D 05 02 06 10  Y.......Z..M....
04F0: 3D 80 80 FD 04 03 07 10  5B 80 01 4D 05 02 06 10  =.......[..M....
0500: 5C 80 80 0D 05 03 07 10  5D 80 01 4D 05 02 06 10  \.......]..M....
0510: 32 80 80 1D 05 03 07 10  5E 80 01 4D 05 02 06 10  2.......^..M....
0520: 5F 80 80 2D 05 03 07 10  60 80 01 4D 05 02 06 10  _..-....`..M....
0530: 61 80 80 3D 05 03 07 10  62 80 01 4D 05 02 06 10  a..=....b..M....
0540: 47 80 80 4D 05 03 07 10  63 80 01 4D 05 02 05 10  G..M....c..M....
0550: 03 80 80 0B 07 27 10 66  E2 05 01 04 92 01 66 E2  .....'.f......f.
0560: 05 01 92 01 65 E2 05 01  94 01 F0 FF FF 7F 94 01  ....e...........
0570: 66 E2 05 01 94 01 65 E2  05 01 BA F0 FF FF 7F 64  f.....e........d
0580: 80 65 80 66 80 67 80 BA  66 E2 05 01 68 80 69 80  .e.f.g..f...h.i.
0590: 6A 80 67 80 80 F0 FF FF  7F 80 66 E2 05 01 80 65  j.g.......f....e
05A0: E2 05 01 4A 65 E2 05 01  F0 FF FF 7F 79 00 F0 FF  ...Je.......y...
05B0: FF 7F 65 E2 05 01 5C 00  6B 80 5C 01 6B 80 9A 1C  ..e...\.k.\.k...
05C0: 5C 80 27 10 66 E2 05 01  09 45 6C 80 F0 FF FF 7F  \.'.f....El.....
05D0: F0 FF FF 7F 6B 73 30 30  09 80 1A C8 0E 2A 10 66  ....ks00.....*.f
05E0: E2 05 01 79 00 F8 FF FF  7F 66 E2 05 01 2B 66 E2  ...y.....f...+f.
05F0: 05 01 6D 80 23 4A F0 FF  FF 7F 66 E2 05 01 1C 5C  ..m.#J....f....\
0600: 80 52 6C 80 F0 FF FF 7F  F0 FF FF 7F 6B 73 30 30  .Rl.........ks00
0610: 45 6C 80 F0 FF FF 7F F0  FF FF 7F 6B 73 30 31 09  El.........ks01.
0620: 80 1C 45 80 27 10 66 E2  05 01 0A 52 6C 80 F0 FF  ..E.'.f....Rl...
0630: FF 7F F0 FF FF 7F 6B 73  30 31 45 6C 80 F0 FF FF  ......ks01El....
0640: 7F F0 FF FF 7F 6B 73 30  32 09 80 2A 10 66 E2 05  .....ks02..*.f..
0650: 01 4A F0 FF FF 7F 66 E2  05 01 1C 6E 80 52 6C 80  .J....f....n.Rl.
0660: F0 FF FF 7F F0 FF FF 7F  6B 73 30 32 45 6C 80 F0  ........ks02El..
0670: FF FF 7F F0 FF FF 7F 6B  73 30 33 09 80 2B 66 E2  .......ks03..+f.
0680: 05 01 6F 80 23 52 6C 80  F0 FF FF 7F F0 FF FF 7F  ..o.#Rl.........
0690: 6B 73 30 33 45 6C 80 F0  FF FF 7F F0 FF FF 7F 6B  ks03El.........k
06A0: 73 30 34 09 80 6E 66 E2  05 01 70 80 99 66 E2 05  s04..nf...p..f..
06B0: 01 2B 66 E2 05 01 71 80  23 99 66 E2 05 01 52 6C  .+f...q.#.f...Rl
06C0: 80 F0 FF FF 7F F0 FF FF  7F 6B 73 30 34 45 6C 80  .........ks04El.
06D0: F0 FF FF 7F F0 FF FF 7F  6B 73 30 35 09 80 27 10  ........ks05..'.
06E0: 66 E2 05 01 0B 1C 45 80  52 6C 80 F0 FF FF 7F F0  f.....E.Rl......
06F0: FF FF 7F 6B 73 30 35 45  6C 80 F0 FF FF 7F F0 FF  ...ks05El.......
0700: FF 7F 6B 73 30 36 09 80  01 92 0A 02 05 10 07 80  ..ks06..........
0710: 80 C7 08 27 10 67 E2 05  01 04 92 01 67 E2 05 01  ...'.g......g...
0720: 92 01 65 E2 05 01 94 01  F0 FF FF 7F 94 01 67 E2  ..e...........g.
0730: 05 01 94 01 65 E2 05 01  BA F0 FF FF 7F 72 80 73  ....e........r.s
0740: 80 74 80 75 80 BA 67 E2  05 01 76 80 77 80 74 80  .t.u..g...v.w.t.
0750: 78 80 80 F0 FF FF 7F 80  67 E2 05 01 80 65 E2 05  x.......g....e..
0760: 01 4A 65 E2 05 01 F0 FF  FF 7F 79 00 F0 FF FF 7F  .Je.......y.....
0770: 65 E2 05 01 5C 00 6B 80  5C 01 6B 80 9A 1C 5C 80  e...\.k.\.k...\.
0780: 27 10 67 E2 05 01 09 45  6C 80 F0 FF FF 7F F0 FF  '.g....El.......
0790: FF 7F 6B 62 30 30 09 80  1A C8 0E 2A 10 67 E2 05  ..kb00.....*.g..
07A0: 01 79 00 F8 FF FF 7F 67  E2 05 01 2B 67 E2 05 01  .y.....g...+g...
07B0: 79 80 23 4A F0 FF FF 7F  67 E2 05 01 1C 5C 80 52  y.#J....g....\.R
07C0: 6C 80 F0 FF FF 7F F0 FF  FF 7F 6B 62 30 30 45 6C  l.........kb00El
07D0: 80 F0 FF FF 7F F0 FF FF  7F 6B 62 30 31 09 80 1C  .........kb01...
07E0: 45 80 27 10 67 E2 05 01  0A 52 6C 80 F0 FF FF 7F  E.'.g....Rl.....
07F0: F0 FF FF 7F 6B 62 30 31  45 6C 80 F0 FF FF 7F F0  ....kb01El......
0800: FF FF 7F 6B 62 30 32 09  80 2A 10 67 E2 05 01 4A  ...kb02..*.g...J
0810: F0 FF FF 7F 67 E2 05 01  1C 6E 80 52 6C 80 F0 FF  ....g....n.Rl...
0820: FF 7F F0 FF FF 7F 6B 62  30 32 45 6C 80 F0 FF FF  ......kb02El....
0830: 7F F0 FF FF 7F 6B 62 30  33 09 80 2B 67 E2 05 01  .....kb03..+g...
0840: 7A 80 23 52 6C 80 F0 FF  FF 7F F0 FF FF 7F 6B 62  z.#Rl.........kb
0850: 30 33 45 6C 80 F0 FF FF  7F F0 FF FF 7F 6B 62 30  03El.........kb0
0860: 34 09 80 5B 7B 80 67 E2  05 01 67 E2 05 01 67 61  4..[{.g...g...ga
0870: 68 30 2B 67 E2 05 01 7C  80 23 52 6C 80 F0 FF FF  h0+g...|.#Rl....
0880: 7F F0 FF FF 7F 6B 62 30  34 45 6C 80 F0 FF FF 7F  .....kb04El.....
0890: F0 FF FF 7F 6B 62 30 35  09 80 27 10 67 E2 05 01  ....kb05..'.g...
08A0: 0B 1C 45 80 52 6C 80 F0  FF FF 7F F0 FF FF 7F 6B  ..E.Rl.........k
08B0: 62 30 35 45 6C 80 F0 FF  FF 7F F0 FF FF 7F 6B 62  b05El.........kb
08C0: 30 36 09 80 01 92 0A 02  05 10 0E 80 80 92 0A 27  06.............'
08D0: 10 68 E2 05 01 04 92 01  68 E2 05 01 92 01 65 E2  .h......h.....e.
08E0: 05 01 94 01 F0 FF FF 7F  94 01 68 E2 05 01 94 01  ..........h.....
08F0: 65 E2 05 01 BA F0 FF FF  7F 7D 80 7E 80 7F 80 80  e........}.~....
0900: 80 BA 68 E2 05 01 81 80  82 80 7F 80 83 80 80 F0  ..h.............
0910: FF FF 7F 80 68 E2 05 01  80 65 E2 05 01 4A 65 E2  ....h....e...Je.
0920: 05 01 F0 FF FF 7F 79 00  F0 FF FF 7F 65 E2 05 01  ......y.....e...
0930: 5C 00 6B 80 5C 01 6B 80  9A 1C 5C 80 27 10 68 E2  \.k.\.k...\.'.h.
0940: 05 01 09 45 6C 80 F0 FF  FF 7F F0 FF FF 7F 6B 77  ...El.........kw
0950: 30 30 09 80 1A C8 0E 2A  10 68 E2 05 01 79 00 F8  00.....*.h...y..
0960: FF FF 7F 68 E2 05 01 2B  68 E2 05 01 84 80 23 4A  ...h...+h.....#J
0970: F0 FF FF 7F 68 E2 05 01  1C 5C 80 52 6C 80 F0 FF  ....h....\.Rl...
0980: FF 7F F0 FF FF 7F 6B 77  30 30 45 6C 80 F0 FF FF  ......kw00El....
0990: 7F F0 FF FF 7F 6B 77 30  31 09 80 1C 45 80 27 10  .....kw01...E.'.
09A0: 68 E2 05 01 0A 52 6C 80  F0 FF FF 7F F0 FF FF 7F  h....Rl.........
09B0: 6B 77 30 31 45 6C 80 F0  FF FF 7F F0 FF FF 7F 6B  kw01El.........k
09C0: 77 30 32 09 80 2A 10 68  E2 05 01 4A F0 FF FF 7F  w02..*.h...J....
09D0: 68 E2 05 01 1C 6E 80 52  6C 80 F0 FF FF 7F F0 FF  h....n.Rl.......
09E0: FF 7F 6B 77 30 32 45 6C  80 F0 FF FF 7F F0 FF FF  ..kw02El........
09F0: 7F 6B 77 30 33 09 80 66  85 80 68 E2 05 01 68 E2  .kw03..f..h...h.
0A00: 05 01 74 6C 6B 30 2B 68  E2 05 01 86 80 23 52 6C  ..tlk0+h.....#Rl
0A10: 80 F0 FF FF 7F F0 FF FF  7F 6B 77 30 33 45 6C 80  .........kw03El.
0A20: F0 FF FF 7F F0 FF FF 7F  6B 77 30 34 09 80 66 85  ........kw04..f.
0A30: 80 68 E2 05 01 68 E2 05  01 74 6C 6B 31 2B 68 E2  .h...h...tlk1+h.
0A40: 05 01 87 80 23 52 6C 80  F0 FF FF 7F F0 FF FF 7F  ....#Rl.........
0A50: 6B 77 30 34 45 6C 80 F0  FF FF 7F F0 FF FF 7F 6B  kw04El.........k
0A60: 77 30 35 09 80 27 10 68  E2 05 01 0B 1C 45 80 52  w05..'.h.....E.R
0A70: 6C 80 F0 FF FF 7F F0 FF  FF 7F 6B 77 30 35 45 6C  l.........kw05El
0A80: 80 F0 FF FF 7F F0 FF FF  7F 6B 77 30 36 09 80 01  .........kw06...
0A90: 92 0A 7B F8 FF FF 7F 1C  46 80 1D 88 80 23 5D 09  ..{.....F....#].
0AA0: 80 45 80 1A E9 0E 1C 46  80 52 6C 80 F0 FF FF 7F  .E.....F.Rl.....
0AB0: F0 FF FF 7F 6B 73 30 36  52 6C 80 F0 FF FF 7F F0  ....ks06Rl......
0AC0: FF FF 7F 6B 62 30 36 52  6C 80 F0 FF FF 7F F0 FF  ...kb06Rl.......
0AD0: FF 7F 6B 77 30 36 45 6C  80 F0 FF FF 7F F0 FF FF  ..kw06El........
0AE0: 7F 30 62 6C 66 09 80 7A  00 66 E2 05 01 7A 00 67  .0blf..z.f...z.g
0AF0: E2 05 01 7A 00 68 E2 05  01 4E 01 66 E2 05 01 4E  ...z.h...N.f...N
0B00: 01 67 E2 05 01 4E 01 68  E2 05 01 02 05 10 03 80  .g...N.h........
0B10: 80 1E 0B 5C 00 89 80 5C  01 89 80 01 44 0B 02 05  ...\...\....D...
0B20: 10 07 80 80 31 0B 5C 00  8A 80 5C 01 8A 80 01 44  ....1.\...\....D
0B30: 0B 02 05 10 0E 80 80 44  0B 5C 00 8B 80 5C 01 8B  .......D.\...\..
0B40: 80 01 44 0B 9A 46 00 45  8C 80 F8 FF FF 7F F8 FF  ..D..F.E........
0B50: FF 7F 71 73 74 63 09 80  03 01 10 07 80 40 15 80  ..qstc.......@..
0B60: 3C 80 01 10 0E 80 43 00  43 01 45 8D 80 F0 FF FF  <.....C.C.E.....
0B70: 7F F0 FF FF 7F 66 64 69  32 09 80 01 70 0E 02 03  .....fdi2...p...
0B80: 10 07 80 80 1B 0C 1D 8E  80 23 06 01 00 02 04 10  .........#......
0B90: 03 80 03 A1 0B 1D 0B 80  23 03 01 00 07 80 01 B4  ........#.......
0BA0: 0B 02 04 10 03 80 00 B0  0B 1D 0C 80 23 01 B4 0B  ............#...
0BB0: 1D 0D 80 23 1D 33 80 23  24 34 80 03 80 01 00 25  ...#.3.#$4.....%
0BC0: 02 00 10 03 80 00 D7 0B  1D 35 80 23 03 01 10 0A  .........5.#....
0BD0: 80 01 73 0E 01 D7 0B 1D  36 80 23 1D 37 80 23 1D  ..s.....6.#.7.#.
0BE0: 38 80 23 24 39 80 03 80  01 00 25 02 00 10 03 80  8.#$9.....%.....
0BF0: 00 02 0C 1D 35 80 23 03  01 10 0A 80 01 73 0E 01  ....5.#......s..
0C00: 02 0C 1D 3A 80 23 03 01  10 07 80 40 15 80 3C 80  ...:.#.....@..<.
0C10: 01 10 07 80 43 00 43 01  01 70 0E 02 03 10 03 80  ....C.C..p......
0C20: 80 B8 0C 1D 8F 80 23 1D  90 80 23 1D 91 80 23 06  ......#...#...#.
0C30: 01 00 02 04 10 03 80 03  46 0C 1D 92 80 23 03 01  ........F....#..
0C40: 00 07 80 01 59 0C 02 04  10 03 80 00 55 0C 1D 93  ....Y.......U...
0C50: 80 23 01 59 0C 1D 94 80  23 1D 95 80 23 24 96 80  .#.Y....#...#$..
0C60: 03 80 01 00 25 02 00 10  03 80 00 7C 0C 1D 97 80  ....%......|....
0C70: 23 03 01 10 0A 80 01 73  0E 01 7C 0C 24 98 80 03  #......s..|.$...
0C80: 80 01 00 25 02 00 10 03  80 00 9B 0C 1D 97 80 23  ...%...........#
0C90: 03 01 10 0A 80 01 73 0E  01 9B 0C 1D 99 80 23 1D  ......s.......#.
0CA0: 9A 80 23 03 01 10 07 80  40 15 80 3C 80 01 10 03  ..#.....@..<....
0CB0: 80 43 00 43 01 01 70 0E  02 03 10 1A 80 80 5D 0D  .C.C..p.......].
0CC0: 1D 9B 80 23 1D 9C 80 23  06 01 00 02 04 10 03 80  ...#...#........
0CD0: 03 DF 0C 1D 9D 80 23 03  01 00 07 80 01 F2 0C 02  ......#.........
0CE0: 04 10 03 80 00 EE 0C 1D  9E 80 23 01 F2 0C 1D 9F  ..........#.....
0CF0: 80 23 1D A0 80 23 24 34  80 03 80 01 00 25 02 00  .#...#$4.....%..
0D00: 10 03 80 00 15 0D 1D A1  80 23 03 01 10 0A 80 01  .........#......
0D10: 73 0E 01 15 0D 1D A2 80  23 1D A3 80 23 1D A4 80  s.......#...#...
0D20: 23 24 39 80 03 80 01 00  25 02 00 10 03 80 00 40  #$9.....%......@
0D30: 0D 1D A1 80 23 03 01 10  0A 80 01 73 0E 01 40 0D  ....#......s..@.
0D40: 1D A5 80 23 1D A6 80 23  03 01 10 07 80 40 15 80  ...#...#.....@..
0D50: 3C 80 01 10 1A 80 43 00  43 01 01 70 0E 02 03 10  <.....C.C..p....
0D60: 21 80 80 D3 0D 1D 9B 80  23 1D 9C 80 23 06 01 00  !.......#...#...
0D70: 02 04 10 03 80 03 84 0D  1D 9D 80 23 03 01 00 07  ...........#....
0D80: 80 01 97 0D 02 04 10 03  80 00 93 0D 1D 9E 80 23  ...............#
0D90: 01 97 0D 1D 9F 80 23 1D  33 80 23 24 34 80 03 80  ......#.3.#$4...
0DA0: 01 00 25 02 00 10 03 80  00 BA 0D 1D A1 80 23 03  ..%...........#.
0DB0: 01 10 0A 80 01 73 0E 01  BA 0D 1D A7 80 23 03 01  .....s.......#..
0DC0: 10 07 80 40 15 80 3C 80  01 10 21 80 43 00 43 01  ...@..<...!.C.C.
0DD0: 01 70 0E 02 03 10 09 80  80 70 0E 1D 8E 80 23 06  .p.......p....#.
0DE0: 01 00 02 04 10 03 80 03  F6 0D 1D 0B 80 23 03 01  .............#..
0DF0: 00 07 80 01 09 0E 02 04  10 03 80 00 05 0E 1D 0C  ................
0E00: 80 23 01 09 0E 1D 0D 80  23 1D 33 80 23 24 34 80  .#......#.3.#$4.
0E10: 03 80 01 00 25 02 00 10  03 80 00 2C 0E 1D 35 80  ....%......,..5.
0E20: 23 03 01 10 0A 80 01 73  0E 01 2C 0E 1D 36 80 23  #......s..,..6.#
0E30: 1D 37 80 23 1D 38 80 23  24 39 80 03 80 01 00 25  .7.#.8.#$9.....%
0E40: 02 00 10 03 80 00 57 0E  1D 35 80 23 03 01 10 0A  ......W..5.#....
0E50: 80 01 73 0E 01 57 0E 1D  3A 80 23 03 01 10 07 80  ..s..W..:.#.....
0E60: 40 15 80 3C 80 01 10 07  80 43 00 43 01 01 70 0E  @..<.....C.C..p.
0E70: 01 73 0E 21 00                                    .s.!.           
```

#### Opcodes

```
  0: 0x0145 [0x42] SET_CLI_EVENT_CANCEL_DATA()
  1: 0x0146 [0x1E] EventEntity looks at LocalPlayer and starts talking
  2: 0x014B [0x6F] WAIT_FRAME_DELAY: Yield until WaitTime reaches zero
  3: 0x014C [0x76] CHECK_ENTITY_RENDER_FLAGS: Wait until EventEntity Render.Flags0 and Render.Flags3 conditions are met
  4: 0x0151 [0x03] ExtData[1]->WorkLocal[0] = Work_Zone[2]
  5: 0x0156 [0x02] IF !(ExtData[1]->WorkLocal[0] == 0*) GOTO 0x019E
  6: 0x015E [0x1D] PRINT_EVENT_MESSAGE(message_id=12804*)
    → "Evaluations are conducted on all participants of the Allied Campaign. Individual data is collected by the Allied War Council from various sources, such as Campaign Arbiters and the leaders of the armies in which the soldiers serve. This data is then used to determine whether or not a decoration is to be conferred."
  7: 0x0161 [0x23] WAIT_FOR_DIALOG_INTERACTION
  8: 0x0162 [0x1D] PRINT_EVENT_MESSAGE(message_id=12805*)
    → "Some of the areas that are considered in this evaluation are performance in campaign operations, as well as valor shown during campaign battles."
  9: 0x0165 [0x23] WAIT_FOR_DIALOG_INTERACTION
 10: 0x0166 [0x1D] PRINT_EVENT_MESSAGE(message_id=12806*)
    → "The more an individual is decorated, the more responsibility he or she will be given within the Allied Forces. And with more responsibility comes the promise of larger compensation in exchange for services."
 11: 0x0169 [0x23] WAIT_FOR_DIALOG_INTERACTION
 12: 0x016A [0x1D] PRINT_EVENT_MESSAGE(message_id=12807*)
    → "However, the prestige that accompanies the medals also carries with it a great weight. To maintain one's status, he or she must continue to exceed previous expectations. If a soldier fails to fulfill the duties that are required of all those who possess a certain medal, then the Allied War Council will be forced to confiscate that decoration."
 13: 0x016D [0x23] WAIT_FOR_DIALOG_INTERACTION
 14: 0x016E [0x1D] PRINT_EVENT_MESSAGE(message_id=12808*)
    → "To put it simply, only those who fight with fervor and precision...only those who put the glory of the Allied Campaign above all else...will be allowed to reap the benefits that come with victory."
 15: 0x0171 [0x23] WAIT_FOR_DIALOG_INTERACTION
 16: 0x0172 [0x1D] PRINT_EVENT_MESSAGE(message_id=12809*)
    → "If you wish to learn more of the Allied Campaign, please speak with [/Lady Fiaudie/Centurion Aurelius/Kolin-Olin]."
 17: 0x0175 [0x23] WAIT_FOR_DIALOG_INTERACTION
 18: 0x0176 [0x1D] PRINT_EVENT_MESSAGE(message_id=12810*)
    → "There are two more things of note."
 19: 0x0179 [0x23] WAIT_FOR_DIALOG_INTERACTION
 20: 0x017A [0x1D] PRINT_EVENT_MESSAGE(message_id=12811*)
    → "Once an evaluation has been requested, the Allied War Council will require [five days/one hour] (Earth time) to come to a conclusion."
 21: 0x017D [0x23] WAIT_FOR_DIALOG_INTERACTION
 22: 0x017E [0x1D] PRINT_EVENT_MESSAGE(message_id=12812*)
    → "During that time, individuals may join as many operations or battles as they wish, but will only be considered for a single medal."
 23: 0x0181 [0x23] WAIT_FOR_DIALOG_INTERACTION
 24: 0x0182 [0x1D] PRINT_EVENT_MESSAGE(message_id=12813*)
    → "However, the same rules apply for an inadequate performance. No matter how low one scores, the maximum number of decorations that can be confiscated is one."
 25: 0x0185 [0x23] WAIT_FOR_DIALOG_INTERACTION
 26: 0x0186 [0x1D] PRINT_EVENT_MESSAGE(message_id=12814*)
    → "Also, individuals must not forget that all medals come with expiration dates. While an extremely unorthodox practice, this measure was deemed necessary to prevent the forgery of allied decorations by those persons with dubious intentions."
 27: 0x0189 [0x23] WAIT_FOR_DIALOG_INTERACTION
 28: 0x018A [0x1D] PRINT_EVENT_MESSAGE(message_id=12815*)
    → "Upon conferral, all medals are marked with a magical seal that dissipates after a period of thirty days (Earth time). Once the seal has vanished, the medal will become void and its owner will no longer be able to participate in campaign operations or battles, among other things."
 29: 0x018D [0x23] WAIT_FOR_DIALOG_INTERACTION
 30: 0x018E [0x1D] PRINT_EVENT_MESSAGE(message_id=12816*)
    → "It is highly recommended that you keep track of the time remaining on your medal and apply for evaluations regularly."
 31: 0x0191 [0x23] WAIT_FOR_DIALOG_INTERACTION
 32: 0x0192 [0x1D] PRINT_EVENT_MESSAGE(message_id=12817*)
    → "Is there anything else you wish to ask?"
 33: 0x0195 [0x23] WAIT_FOR_DIALOG_INTERACTION
 34: 0x0196 [0x03] ExtData[1]->WorkLocal[1] = 2*
 35: 0x019B [0x01] GOTO 0x01CE
 36: 0x019E [0x02] IF !(Work_Zone[5] == 1*) GOTO 0x01AD
 37: 0x01A6 [0x1D] PRINT_EVENT_MESSAGE(message_id=12800*)
    → "Salutations, I am Campaign Evaluation Official Alfred. How might I be of assistance?"
 38: 0x01A9 [0x23] WAIT_FOR_DIALOG_INTERACTION
 39: 0x01AA [0x01] GOTO 0x01CB
 40: 0x01AD [0x02] IF !(Work_Zone[5] == 2*) GOTO 0x01BC
 41: 0x01B5 [0x1D] PRINT_EVENT_MESSAGE(message_id=12801*)
    → "Greetings, I am Campaign Evaluation Official Annabelle. How can I help you today?"
 42: 0x01B8 [0x23] WAIT_FOR_DIALOG_INTERACTION
 43: 0x01B9 [0x01] GOTO 0x01CB
 44: 0x01BC [0x02] IF !(Work_Zone[5] == 3*) GOTO 0x01CB
 45: 0x01C4 [0x1D] PRINT_EVENT_MESSAGE(message_id=12802*)
    → "Hello, I'm Campaign Evaluation Official Llewellyn. How can I help you today?"
 46: 0x01C7 [0x23] WAIT_FOR_DIALOG_INTERACTION
 47: 0x01C8 [0x01] GOTO 0x01CB

SUBROUTINE_01CB:
 48: 0x01CB [0x06] ExtData[1]->WorkLocal[1] = 0

SUBROUTINE_01CE:
 49: 0x01CE [0x24] CREATE_DIALOG(message_id=12803*, default_option=0*, option_flags=ExtData[1]->WorkLocal[1])
    → "What do you require? [Nothing./An evaluation./Info on the duration of my medal./An overview of evaluations./Info on medals./Info on the benefits of medals./Info on evaluation process.]"
 50: 0x01D5 [0x25] WAIT_DIALOG_SELECT()
 51: 0x01D6 [0x02] IF !(Work_Zone[0] == 0*) GOTO 0x01E9
 52: 0x01DE [0x03] Work_Zone[1] = 1073741824*
 53: 0x01E3 [0x01] GOTO 0x0E73

SUBROUTINE_022A:
 54: 0x022A [0x01] GOTO 0x02B1
 55: 0x022D [0x02] IF !(Work_Zone[0] == 3*) GOTO 0x0250
 56: 0x0235 [0x1D] PRINT_EVENT_MESSAGE(message_id=12804*)
    → "Evaluations are conducted on all participants of the Allied Campaign. Individual data is collected by the Allied War Council from various sources, such as Campaign Arbiters and the leaders of the armies in which the soldiers serve. This data is then used to determine whether or not a decoration is to be conferred."
 57: 0x0238 [0x23] WAIT_FOR_DIALOG_INTERACTION
 58: 0x0239 [0x1D] PRINT_EVENT_MESSAGE(message_id=12805*)
    → "Some of the areas that are considered in this evaluation are performance in campaign operations, as well as valor shown during campaign battles."
 59: 0x023C [0x23] WAIT_FOR_DIALOG_INTERACTION
 60: 0x023D [0x1D] PRINT_EVENT_MESSAGE(message_id=12806*)
    → "The more an individual is decorated, the more responsibility he or she will be given within the Allied Forces. And with more responsibility comes the promise of larger compensation in exchange for services."
 61: 0x0240 [0x23] WAIT_FOR_DIALOG_INTERACTION
 62: 0x0241 [0x1D] PRINT_EVENT_MESSAGE(message_id=12807*)
    → "However, the prestige that accompanies the medals also carries with it a great weight. To maintain one's status, he or she must continue to exceed previous expectations. If a soldier fails to fulfill the duties that are required of all those who possess a certain medal, then the Allied War Council will be forced to confiscate that decoration."
 63: 0x0244 [0x23] WAIT_FOR_DIALOG_INTERACTION
 64: 0x0245 [0x1D] PRINT_EVENT_MESSAGE(message_id=12808*)
    → "To put it simply, only those who fight with fervor and precision...only those who put the glory of the Allied Campaign above all else...will be allowed to reap the benefits that come with victory."
 65: 0x0248 [0x23] WAIT_FOR_DIALOG_INTERACTION
 66: 0x0249 [0x1D] PRINT_EVENT_MESSAGE(message_id=12809*)
    → "If you wish to learn more of the Allied Campaign, please speak with [/Lady Fiaudie/Centurion Aurelius/Kolin-Olin]."
 67: 0x024C [0x23] WAIT_FOR_DIALOG_INTERACTION
 68: 0x024D [0x01] GOTO 0x02B1
 69: 0x0250 [0x02] IF !(Work_Zone[0] == 4*) GOTO 0x026B
 70: 0x0258 [0x1D] PRINT_EVENT_MESSAGE(message_id=12818*)
    → "Campaign medals are official rewards given to those individuals who perform exemplary deeds for the Allied Forces."
 71: 0x025B [0x23] WAIT_FOR_DIALOG_INTERACTION
 72: 0x025C [0x1D] PRINT_EVENT_MESSAGE(message_id=12819*)
    → "These decorations are internationally recognized as symbols of strength, loyalty, and honor. They not only garner respect, but provide their bearers with privileges not offered civilians."
 73: 0x025F [0x23] WAIT_FOR_DIALOG_INTERACTION
 74: 0x0260 [0x1D] PRINT_EVENT_MESSAGE(message_id=12820*)
    → "Those who have been decorated with the more prestigious medals will also be highly regarded among their army's ranks, and thus entrusted with increasingly difficult and important missions."
 75: 0x0263 [0x23] WAIT_FOR_DIALOG_INTERACTION
 76: 0x0264 [0x1D] PRINT_EVENT_MESSAGE(message_id=12821*)
    → "On the other hand, disloyalty to one's nation is highly frowned upon. If, for any reason, an individual wishes to leave their current army of employment and pledge allegiance to another, they will be required to return their two most distinguished medals."
 77: 0x0267 [0x23] WAIT_FOR_DIALOG_INTERACTION
 78: 0x0268 [0x01] GOTO 0x02B1
 79: 0x026B [0x02] IF !(Work_Zone[0] == 5*) GOTO 0x028E
 80: 0x0273 [0x1D] PRINT_EVENT_MESSAGE(message_id=12822*)
    → "To the point, are we? Very well, I shall list the merits those in the possession of medals may receive."
 81: 0x0276 [0x23] WAIT_FOR_DIALOG_INTERACTION
 82: 0x0277 [0x1D] PRINT_EVENT_MESSAGE(message_id=12823*)
    → "Firstly, the more prestigious an individual's medal, the more weight [his/her] army's [/curate/supply commander/Morale Manager] will grant [his/her] opinion."
 83: 0x027A [0x23] WAIT_FOR_DIALOG_INTERACTION
 84: 0x027B [0x1D] PRINT_EVENT_MESSAGE(message_id=12824*)
    → "Secondly, the types of Campaign Ops available to an individual will increase based on the medals that [he/she] has in [his/her] possession. More advanced operations will earn participants increased amounts of EXP and Allied Notes, as well as have a heavier influence on performance evaluations."
 85: 0x027E [0x23] WAIT_FOR_DIALOG_INTERACTION
 86: 0x027F [0x1D] PRINT_EVENT_MESSAGE(message_id=12825*)
    → "Thirdly, benefits received during campaign battles will vary depending on the variety of medals an individual carries. The better the medals, the larger the opportunity to earn EXP, Allied Notes, and reputation. The selection of temporary items available for purchase will also improve."
 87: 0x0282 [0x23] WAIT_FOR_DIALOG_INTERACTION
 88: 0x0283 [0x1D] PRINT_EVENT_MESSAGE(message_id=12826*)
    → "However, the more prestigious the medal, the more that will be expected of its bearer. The Campaign Arbiters will not go easy on those who have already proven themselves."
 89: 0x0286 [0x23] WAIT_FOR_DIALOG_INTERACTION
 90: 0x0287 [0x1D] PRINT_EVENT_MESSAGE(message_id=12827*)
    → "Understood?"
 91: 0x028A [0x23] WAIT_FOR_DIALOG_INTERACTION
 92: 0x028B [0x01] GOTO 0x02B1
 93: 0x028E [0x02] IF !(Work_Zone[0] == 6*) GOTO 0x02B1
 94: 0x0296 [0x1D] PRINT_EVENT_MESSAGE(message_id=12811*)
    → "Once an evaluation has been requested, the Allied War Council will require [five days/one hour] (Earth time) to come to a conclusion."
 95: 0x0299 [0x23] WAIT_FOR_DIALOG_INTERACTION
 96: 0x029A [0x1D] PRINT_EVENT_MESSAGE(message_id=12812*)
    → "During that time, individuals may join as many operations or battles as they wish, but will only be considered for a single medal."
 97: 0x029D [0x23] WAIT_FOR_DIALOG_INTERACTION
 98: 0x029E [0x1D] PRINT_EVENT_MESSAGE(message_id=12813*)
    → "However, the same rules apply for an inadequate performance. No matter how low one scores, the maximum number of decorations that can be confiscated is one."
 99: 0x02A1 [0x23] WAIT_FOR_DIALOG_INTERACTION
100: 0x02A2 [0x1D] PRINT_EVENT_MESSAGE(message_id=12814*)
    → "Also, individuals must not forget that all medals come with expiration dates. While an extremely unorthodox practice, this measure was deemed necessary to prevent the forgery of allied decorations by those persons with dubious intentions."
101: 0x02A5 [0x23] WAIT_FOR_DIALOG_INTERACTION
102: 0x02A6 [0x1D] PRINT_EVENT_MESSAGE(message_id=12815*)
    → "Upon conferral, all medals are marked with a magical seal that dissipates after a period of thirty days (Earth time). Once the seal has vanished, the medal will become void and its owner will no longer be able to participate in campaign operations or battles, among other things."
103: 0x02A9 [0x23] WAIT_FOR_DIALOG_INTERACTION
104: 0x02AA [0x1D] PRINT_EVENT_MESSAGE(message_id=12816*)
    → "It is highly recommended that you keep track of the time remaining on your medal and apply for evaluations regularly."
105: 0x02AD [0x23] WAIT_FOR_DIALOG_INTERACTION
106: 0x02AE [0x01] GOTO 0x02B1

SUBROUTINE_02B1:
107: 0x02B1 [0x01] GOTO 0x01CE

SUBROUTINE_02B4:
108: 0x02B4 [0x1D] PRINT_EVENT_MESSAGE(message_id=12833*)
    → "Understood. I shall prepare the proper documents and deliver them to the Allied War Council Evaluation Board in Jeuno."
109: 0x02B7 [0x23] WAIT_FOR_DIALOG_INTERACTION
110: 0x02B8 [0x1D] PRINT_EVENT_MESSAGE(message_id=12834*)
    → "......"
111: 0x02BB [0x23] WAIT_FOR_DIALOG_INTERACTION
112: 0x02BC [0x03] Work_Zone[1] = 1*
113: 0x02C1 [0x43] SEND_EVENT_UPDATE: Send pending tag to server (packet 0x005B)
114: 0x02C3 [0x43] SEND_EVENT_UPDATE: Check pending flag (skip if not pending)
115: 0x02C5 [0x02] IF !(Work_Zone[2] == 0*) GOTO 0x0E73
116: 0x02CD [0x02] IF !(Work_Zone[3] == 4*) GOTO 0x0397
117: 0x02D5 [0x02] IF !(Work_Zone[5] == 1*) GOTO 0x02E4
118: 0x02DD [0x1D] PRINT_EVENT_MESSAGE(message_id=12889*)
    → "You are currently in possession of the most prestigious Campaign medal we have to offer. The Kingdom of San d'Oria has the utmost faith in you, and shall support you in any endeavor you choose to undertake."
119: 0x02E0 [0x23] WAIT_FOR_DIALOG_INTERACTION
120: 0x02E1 [0x01] GOTO 0x0302
121: 0x02E4 [0x02] IF !(Work_Zone[5] == 2*) GOTO 0x02F3
122: 0x02EC [0x1D] PRINT_EVENT_MESSAGE(message_id=12890*)
    → "You are currently in possession of the most prestigious Campaign medal we have to offer. The Republic of Bastok has the utmost faith in you, and shall support you in any endeavor you choose to undertake."
123: 0x02EF [0x23] WAIT_FOR_DIALOG_INTERACTION
124: 0x02F0 [0x01] GOTO 0x0302
125: 0x02F3 [0x02] IF !(Work_Zone[5] == 3*) GOTO 0x0302
126: 0x02FB [0x1D] PRINT_EVENT_MESSAGE(message_id=12891*)
    → "You are currently in possession of the most prestigious Campaign medal we have to offer. The Federation of Windurst has the utmost faith in you, and shall support you in any endeavor you choose to undertake."
127: 0x02FE [0x23] WAIT_FOR_DIALOG_INTERACTION
128: 0x02FF [0x01] GOTO 0x0302

SUBROUTINE_0302:
129: 0x0302 [0x06] ExtData[1]->WorkLocal[1] = 0
130: 0x0305 [0x02] IF !(Work_Zone[4] >= 1*) GOTO 0x0319
131: 0x030D [0x1D] PRINT_EVENT_MESSAGE(message_id=12855*)
    → "Your current campaign medal has already expired."
132: 0x0310 [0x23] WAIT_FOR_DIALOG_INTERACTION
133: 0x0311 [0x03] ExtData[1]->WorkLocal[1] = 16*
134: 0x0316 [0x01] GOTO 0x032C
135: 0x0319 [0x02] IF !(Work_Zone[4] == 1*) GOTO 0x0328
136: 0x0321 [0x1D] PRINT_EVENT_MESSAGE(message_id=12854*)
    → "Your current campaign medal will expire in less than a day (Earth time)."
137: 0x0324 [0x23] WAIT_FOR_DIALOG_INTERACTION
138: 0x0325 [0x01] GOTO 0x032C
139: 0x0328 [0x1D] PRINT_EVENT_MESSAGE(message_id=12853*)
    → "You still have $2 day[/s] (Earth time) until your current campaign medal expires."
140: 0x032B [0x23] WAIT_FOR_DIALOG_INTERACTION

SUBROUTINE_032C:
141: 0x032C [0x1D] PRINT_EVENT_MESSAGE(message_id=12856*)
    → "Would you like to continue this month's evaluation in a further attempt to receive the next medal, or would you rather end the evaluation and maintain your current honors?"
142: 0x032F [0x23] WAIT_FOR_DIALOG_INTERACTION
143: 0x0330 [0x24] CREATE_DIALOG(message_id=12857*, default_option=1*, option_flags=ExtData[1]->WorkLocal[1])
    → "End the evaluation? [Yes./No.]"
144: 0x0337 [0x25] WAIT_DIALOG_SELECT()
145: 0x0338 [0x02] IF !(Work_Zone[0] == 1*) GOTO 0x034F
146: 0x0340 [0x1D] PRINT_EVENT_MESSAGE(message_id=12858*)
    → "Excellent. Speak with me again when you are ready to submit your next application. Good luck, <Player>."
147: 0x0343 [0x23] WAIT_FOR_DIALOG_INTERACTION
148: 0x0344 [0x03] Work_Zone[1] = 1073741824*
149: 0x0349 [0x01] GOTO 0x0E73

SUBROUTINE_034F:
150: 0x034F [0x1D] PRINT_EVENT_MESSAGE(message_id=12859*)
    → "By ending the evaluation, you will have accepted the war council's decision to maintain your current rank, and be granted another thirty-day seal on your current medal."
151: 0x0352 [0x23] WAIT_FOR_DIALOG_INTERACTION
152: 0x0353 [0x1D] PRINT_EVENT_MESSAGE(message_id=12860*)
    → "However, any work you have done during the past evaluation period towards the procurement of the next medal will become null and void."
153: 0x0356 [0x23] WAIT_FOR_DIALOG_INTERACTION
154: 0x0357 [0x1D] PRINT_EVENT_MESSAGE(message_id=12861*)
    → "Please consider carefully your options before making this important decision."
155: 0x035A [0x23] WAIT_FOR_DIALOG_INTERACTION
156: 0x035B [0x24] CREATE_DIALOG(message_id=12862*, default_option=1*, option_flags=ExtData[1]->WorkLocal[1])
    → "Are you absolutely sure? [Yes./No.]"
157: 0x0362 [0x25] WAIT_DIALOG_SELECT()
158: 0x0363 [0x02] IF !(Work_Zone[0] == 1*) GOTO 0x037A
159: 0x036B [0x1D] PRINT_EVENT_MESSAGE(message_id=12858*)
    → "Excellent. Speak with me again when you are ready to submit your next application. Good luck, <Player>."
160: 0x036E [0x23] WAIT_FOR_DIALOG_INTERACTION
161: 0x036F [0x03] Work_Zone[1] = 1073741824*
162: 0x0374 [0x01] GOTO 0x0E73

SUBROUTINE_037A:
163: 0x037A [0x1D] PRINT_EVENT_MESSAGE(message_id=12863*)
    → "Done. Your medal has been given a new magic seal."
164: 0x037D [0x23] WAIT_FOR_DIALOG_INTERACTION
165: 0x037E [0x1D] PRINT_EVENT_MESSAGE(message_id=12864*)
    → "Please note that you will be eligible for your next evaluation in [five days/one hour] (Earth time)."
166: 0x0381 [0x23] WAIT_FOR_DIALOG_INTERACTION
167: 0x0382 [0x03] Work_Zone[1] = 2*
168: 0x0387 [0x40] SET_BIT_WORK_RANGE(start_bit=4*, end_bit=7*, target=Work_Zone[1], source=4*)
169: 0x0390 [0x43] SEND_EVENT_UPDATE: Send pending tag to server (packet 0x005B)
170: 0x0392 [0x43] SEND_EVENT_UPDATE: Check pending flag (skip if not pending)
171: 0x0394 [0x01] GOTO 0x0E70
172: 0x0397 [0x02] IF !(Work_Zone[3] == 3*) GOTO 0x0B7E
173: 0x039F [0x6E] EventEntity uses emote 14*
174: 0x03A6 [0x99] Wait for EventEntity animation to complete
175: 0x03AB [0x1D] PRINT_EVENT_MESSAGE(message_id=12835*)
    → "Congratulations, <Player>! Your recent performance has been evaluated, and the Allied War Council has deemed you worthy of a new medal!"
176: 0x03AE [0x23] WAIT_FOR_DIALOG_INTERACTION
177: 0x03AF [0x24] CREATE_DIALOG(message_id=12836*, default_option=1*, option_flags=0*)
    → "Accept the honors? [Yes./No.]"
178: 0x03B6 [0x25] WAIT_DIALOG_SELECT()
179: 0x03B7 [0x02] IF !(Work_Zone[0] == 1*) GOTO 0x03D6
180: 0x03BF [0x1D] PRINT_EVENT_MESSAGE(message_id=12849*)
    → "Are you certain, <Player>? You know there is no need to be humble."
181: 0x03C2 [0x23] WAIT_FOR_DIALOG_INTERACTION
182: 0x03C3 [0x1D] PRINT_EVENT_MESSAGE(message_id=12850*)
    → "Or perhaps you have forgotten that it doesn't matter how much you contribute to the Allied Campaign, you can only receive one medal per evaluation."
183: 0x03C6 [0x23] WAIT_FOR_DIALOG_INTERACTION
184: 0x03C7 [0x1D] PRINT_EVENT_MESSAGE(message_id=12851*)
    → "I cannot force you to accept the medal, but..."
185: 0x03CA [0x23] WAIT_FOR_DIALOG_INTERACTION
186: 0x03CB [0x03] Work_Zone[1] = 1073741824*
187: 0x03D0 [0x01] GOTO 0x0E73

SUBROUTINE_03D6:
188: 0x03D6 [0x24] CREATE_DIALOG(message_id=12837*, default_option=1*, option_flags=0*)
    → "Are you sure? [Yes./No.]"
189: 0x03DD [0x25] WAIT_DIALOG_SELECT()
190: 0x03DE [0x02] IF !(Work_Zone[0] == 1*) GOTO 0x03FD
191: 0x03E6 [0x1D] PRINT_EVENT_MESSAGE(message_id=12849*)
    → "Are you certain, <Player>? You know there is no need to be humble."
192: 0x03E9 [0x23] WAIT_FOR_DIALOG_INTERACTION
193: 0x03EA [0x1D] PRINT_EVENT_MESSAGE(message_id=12850*)
    → "Or perhaps you have forgotten that it doesn't matter how much you contribute to the Allied Campaign, you can only receive one medal per evaluation."
194: 0x03ED [0x23] WAIT_FOR_DIALOG_INTERACTION
195: 0x03EE [0x1D] PRINT_EVENT_MESSAGE(message_id=12851*)
    → "I cannot force you to accept the medal, but..."
196: 0x03F1 [0x23] WAIT_FOR_DIALOG_INTERACTION
197: 0x03F2 [0x03] Work_Zone[1] = 1073741824*
198: 0x03F7 [0x01] GOTO 0x0E73

SUBROUTINE_03FD:
199: 0x03FD [0x6E] EventEntity uses emote 7*
200: 0x0404 [0x99] Wait for EventEntity animation to complete
201: 0x0409 [0x1D] PRINT_EVENT_MESSAGE(message_id=12838*)
    → "One moment, please, while I prepare your award."
202: 0x040C [0x23] WAIT_FOR_DIALOG_INTERACTION
203: 0x040D [0x5D] SET_MUSIC_VOLUME(volume=0*, fade_time=120*)
204: 0x0412 [0x1A] CALL_SUBROUTINE(address=0x0EE9)
205: 0x0415 [0x1C] WAIT(30* ticks)
206: 0x0418 [0x46] CAMERA_CONTROL: Disable user control
207: 0x041A [0x38] SET_CLIENT_EVENT_MODE(mode=19*)
208: 0x041D [0x02] IF !(Work_Zone[6] == 1*) GOTO 0x042D
209: 0x0425 [0x03] Work_Zone[7] = 925*
210: 0x042A [0x01] GOTO 0x054D
211: 0x042D [0x02] IF !(Work_Zone[6] == 2*) GOTO 0x043D
212: 0x0435 [0x03] Work_Zone[7] = 926*
213: 0x043A [0x01] GOTO 0x054D
214: 0x043D [0x02] IF !(Work_Zone[6] == 3*) GOTO 0x044D
215: 0x0445 [0x03] Work_Zone[7] = 927*
216: 0x044A [0x01] GOTO 0x054D
217: 0x044D [0x02] IF !(Work_Zone[6] == 4*) GOTO 0x045D
218: 0x0455 [0x03] Work_Zone[7] = 928*
219: 0x045A [0x01] GOTO 0x054D
220: 0x045D [0x02] IF !(Work_Zone[6] == 5*) GOTO 0x046D
221: 0x0465 [0x03] Work_Zone[7] = 929*
222: 0x046A [0x01] GOTO 0x054D
223: 0x046D [0x02] IF !(Work_Zone[6] == 6*) GOTO 0x047D
224: 0x0475 [0x03] Work_Zone[7] = 930*
225: 0x047A [0x01] GOTO 0x054D
226: 0x047D [0x02] IF !(Work_Zone[6] == 7*) GOTO 0x048D
227: 0x0485 [0x03] Work_Zone[7] = 931*
228: 0x048A [0x01] GOTO 0x054D
229: 0x048D [0x02] IF !(Work_Zone[6] == 8*) GOTO 0x049D
230: 0x0495 [0x03] Work_Zone[7] = 932*
231: 0x049A [0x01] GOTO 0x054D
232: 0x049D [0x02] IF !(Work_Zone[6] == 9*) GOTO 0x04AD
233: 0x04A5 [0x03] Work_Zone[7] = 933*
234: 0x04AA [0x01] GOTO 0x054D
235: 0x04AD [0x02] IF !(Work_Zone[6] == 10*) GOTO 0x04BD
236: 0x04B5 [0x03] Work_Zone[7] = 934*
237: 0x04BA [0x01] GOTO 0x054D
238: 0x04BD [0x02] IF !(Work_Zone[6] == 11*) GOTO 0x04CD
239: 0x04C5 [0x03] Work_Zone[7] = 935*
240: 0x04CA [0x01] GOTO 0x054D
241: 0x04CD [0x02] IF !(Work_Zone[6] == 12*) GOTO 0x04DD
242: 0x04D5 [0x03] Work_Zone[7] = 936*
243: 0x04DA [0x01] GOTO 0x054D
244: 0x04DD [0x02] IF !(Work_Zone[6] == 13*) GOTO 0x04ED
245: 0x04E5 [0x03] Work_Zone[7] = 937*
246: 0x04EA [0x01] GOTO 0x054D
247: 0x04ED [0x02] IF !(Work_Zone[6] == 14*) GOTO 0x04FD
248: 0x04F5 [0x03] Work_Zone[7] = 938*
249: 0x04FA [0x01] GOTO 0x054D
250: 0x04FD [0x02] IF !(Work_Zone[6] == 15*) GOTO 0x050D
251: 0x0505 [0x03] Work_Zone[7] = 939*
252: 0x050A [0x01] GOTO 0x054D
253: 0x050D [0x02] IF !(Work_Zone[6] == 16*) GOTO 0x051D
254: 0x0515 [0x03] Work_Zone[7] = 940*
255: 0x051A [0x01] GOTO 0x054D
256: 0x051D [0x02] IF !(Work_Zone[6] == 17*) GOTO 0x052D
257: 0x0525 [0x03] Work_Zone[7] = 941*
258: 0x052A [0x01] GOTO 0x054D
259: 0x052D [0x02] IF !(Work_Zone[6] == 18*) GOTO 0x053D
260: 0x0535 [0x03] Work_Zone[7] = 942*
261: 0x053A [0x01] GOTO 0x054D
262: 0x053D [0x02] IF !(Work_Zone[6] == 19*) GOTO 0x054D
263: 0x0545 [0x03] Work_Zone[7] = 943*
264: 0x054A [0x01] GOTO 0x054D

SUBROUTINE_054D:
265: 0x054D [0x02] IF !(Work_Zone[5] == 1*) GOTO 0x070B
266: 0x0555 [0x27] REQ_SET(priority=0x10, entity_id=Rongelouts (ID: 17162854/0x0105E266), tag_num=0x04)
267: 0x055C [0x92] Rongelouts (ID: 17162854/0x0105E266)->Render.Flags3 ^= 0x01
268: 0x0562 [0x92] Llewellyn (ID: 17162853/0x0105E265)->Render.Flags3 ^= 0x01
269: 0x0568 [0x94] LocalPlayer->Render.Flags3 ^= 0x01
270: 0x056E [0x94] Rongelouts (ID: 17162854/0x0105E266)->Render.Flags3 ^= 0x01
271: 0x0574 [0x94] Llewellyn (ID: 17162853/0x0105E265)->Render.Flags3 ^= 0x01
272: 0x057A [0xBA] SET_ENTITY_POSITION(entity_id=LocalPlayer, pos_x=93.274*, pos_z=-57.201*, pos_y=1.000*, direction=48.7°*)
273: 0x0587 [0xBA] SET_ENTITY_POSITION(entity_id=Rongelouts (ID: 17162854/0x0105E266), pos_x=94.673*, pos_z=-51.000*, pos_y=0.999*, direction=48.7°*)
274: 0x0594 [0x80] LOAD_WAIT(entity=LocalPlayer)
275: 0x0599 [0x80] LOAD_WAIT(entity=Rongelouts (ID: 17162854/0x0105E266))
276: 0x059E [0x80] LOAD_WAIT(entity=Llewellyn (ID: 17162853/0x0105E265))
277: 0x05A3 [0x4A] Llewellyn (ID: 17162853/0x0105E265) looks at LocalPlayer
278: 0x05AC [0x79] LocalPlayer looks at Llewellyn (ID: 17162853/0x0105E265) (Basic look)
279: 0x05B6 [0x5C] MUSIC_CONTROL: Set Idle (Day) music to song 246*
280: 0x05BA [0x5C] MUSIC_CONTROL: Set Idle (Night) music to song 246*
281: 0x05BE [0x9A] WAIT_MUSIC_SERVER()
282: 0x05BF [0x1C] WAIT(15* ticks)
283: 0x05C2 [0x27] REQ_SET(priority=0x10, entity_id=Rongelouts (ID: 17162854/0x0105E266), tag_num=0x09)
284: 0x05C9 [0x45] LOAD_SCHEDULED_TASK: Load scheduler "ks00" with entities [LocalPlayer, LocalPlayer], work=[379*, 0*]
285: 0x05DA [0x1A] CALL_SUBROUTINE(address=0x0EC8)
286: 0x05DD [0x2A] GET_REQ_LEVEL(level=16, entity_id=Rongelouts (ID: 17162854/0x0105E266))
287: 0x05E3 [0x79] EventEntity looks at Rongelouts (ID: 17162854/0x0105E266) (Basic look)
288: 0x05ED [0x2B] Rongelouts (ID: 17162854/0x0105E266) [12839*]:
    → "That will be enough, officer. I shall complete the ceremony."
289: 0x05F4 [0x23] WAIT_FOR_DIALOG_INTERACTION
290: 0x05F5 [0x4A] LocalPlayer looks at Rongelouts (ID: 17162854/0x0105E266)
291: 0x05FE [0x1C] WAIT(15* ticks)
292: 0x0601 [0x52] END_LOAD_SCHEDULER: End scheduler "ks00" with entities [LocalPlayer, LocalPlayer], work=379*
293: 0x0610 [0x45] LOAD_SCHEDULED_TASK: Load scheduler "ks01" with entities [LocalPlayer, LocalPlayer], work=[379*, 0*]
294: 0x0621 [0x1C] WAIT(120* ticks)
295: 0x0624 [0x27] REQ_SET(priority=0x10, entity_id=Rongelouts (ID: 17162854/0x0105E266), tag_num=0x0A)
296: 0x062B [0x52] END_LOAD_SCHEDULER: End scheduler "ks01" with entities [LocalPlayer, LocalPlayer], work=379*
297: 0x063A [0x45] LOAD_SCHEDULED_TASK: Load scheduler "ks02" with entities [LocalPlayer, LocalPlayer], work=[379*, 0*]
298: 0x064B [0x2A] GET_REQ_LEVEL(level=16, entity_id=Rongelouts (ID: 17162854/0x0105E266))
299: 0x0651 [0x4A] LocalPlayer looks at Rongelouts (ID: 17162854/0x0105E266)
300: 0x065A [0x1C] WAIT(45* ticks)
301: 0x065D [0x52] END_LOAD_SCHEDULER: End scheduler "ks02" with entities [LocalPlayer, LocalPlayer], work=379*
302: 0x066C [0x45] LOAD_SCHEDULED_TASK: Load scheduler "ks03" with entities [LocalPlayer, LocalPlayer], work=[379*, 0*]
303: 0x067D [0x2B] Rongelouts (ID: 17162854/0x0105E266) [12840*]:
    → "[Sir/Lady] <Player>, I commend you on your service to the Kingdom!"
304: 0x0684 [0x23] WAIT_FOR_DIALOG_INTERACTION
305: 0x0685 [0x52] END_LOAD_SCHEDULER: End scheduler "ks03" with entities [LocalPlayer, LocalPlayer], work=379*
306: 0x0694 [0x45] LOAD_SCHEDULED_TASK: Load scheduler "ks04" with entities [LocalPlayer, LocalPlayer], work=[379*, 0*]
307: 0x06A5 [0x6E] Rongelouts (ID: 17162854/0x0105E266) uses emote 25*
308: 0x06AC [0x99] Wait for Rongelouts (ID: 17162854/0x0105E266) animation to complete
309: 0x06B1 [0x2B] Rongelouts (ID: 17162854/0x0105E266) [12841*]:
    → "But remember, as you accept this $3, the path before you grows ever more perilous. Succumb not to the evils of lethargy, lest you find yourself stripped bare of your past honors."
310: 0x06B8 [0x23] WAIT_FOR_DIALOG_INTERACTION
311: 0x06B9 [0x99] Wait for Rongelouts (ID: 17162854/0x0105E266) animation to complete
312: 0x06BE [0x52] END_LOAD_SCHEDULER: End scheduler "ks04" with entities [LocalPlayer, LocalPlayer], work=379*
313: 0x06CD [0x45] LOAD_SCHEDULED_TASK: Load scheduler "ks05" with entities [LocalPlayer, LocalPlayer], work=[379*, 0*]
314: 0x06DE [0x27] REQ_SET(priority=0x10, entity_id=Rongelouts (ID: 17162854/0x0105E266), tag_num=0x0B)
315: 0x06E5 [0x1C] WAIT(120* ticks)
316: 0x06E8 [0x52] END_LOAD_SCHEDULER: End scheduler "ks05" with entities [LocalPlayer, LocalPlayer], work=379*
317: 0x06F7 [0x45] LOAD_SCHEDULED_TASK: Load scheduler "ks06" with entities [LocalPlayer, LocalPlayer], work=[379*, 0*]
318: 0x0708 [0x01] GOTO 0x0A92
319: 0x070B [0x02] IF !(Work_Zone[5] == 2*) GOTO 0x08C7
320: 0x0713 [0x27] REQ_SET(priority=0x10, entity_id=Zazarg (ID: 17162855/0x0105E267), tag_num=0x04)
321: 0x071A [0x92] Zazarg (ID: 17162855/0x0105E267)->Render.Flags3 ^= 0x01
322: 0x0720 [0x92] Llewellyn (ID: 17162853/0x0105E265)->Render.Flags3 ^= 0x01
323: 0x0726 [0x94] LocalPlayer->Render.Flags3 ^= 0x01
324: 0x072C [0x94] Zazarg (ID: 17162855/0x0105E267)->Render.Flags3 ^= 0x01
325: 0x0732 [0x94] Llewellyn (ID: 17162853/0x0105E265)->Render.Flags3 ^= 0x01
326: 0x0738 [0xBA] SET_ENTITY_POSITION(entity_id=LocalPlayer, pos_x=-296.320*, pos_z=-72.069*, pos_y=-11.999*, direction=353.6°*)
327: 0x0745 [0xBA] SET_ENTITY_POSITION(entity_id=Zazarg (ID: 17162855/0x0105E267), pos_x=-293.540*, pos_z=-65.342*, pos_y=-11.999*, direction=106.0°*)
328: 0x0752 [0x80] LOAD_WAIT(entity=LocalPlayer)
329: 0x0757 [0x80] LOAD_WAIT(entity=Zazarg (ID: 17162855/0x0105E267))
330: 0x075C [0x80] LOAD_WAIT(entity=Llewellyn (ID: 17162853/0x0105E265))
331: 0x0761 [0x4A] Llewellyn (ID: 17162853/0x0105E265) looks at LocalPlayer
332: 0x076A [0x79] LocalPlayer looks at Llewellyn (ID: 17162853/0x0105E265) (Basic look)
333: 0x0774 [0x5C] MUSIC_CONTROL: Set Idle (Day) music to song 246*
334: 0x0778 [0x5C] MUSIC_CONTROL: Set Idle (Night) music to song 246*
335: 0x077C [0x9A] WAIT_MUSIC_SERVER()
336: 0x077D [0x1C] WAIT(15* ticks)
337: 0x0780 [0x27] REQ_SET(priority=0x10, entity_id=Zazarg (ID: 17162855/0x0105E267), tag_num=0x09)
338: 0x0787 [0x45] LOAD_SCHEDULED_TASK: Load scheduler "kb00" with entities [LocalPlayer, LocalPlayer], work=[379*, 0*]
339: 0x0798 [0x1A] CALL_SUBROUTINE(address=0x0EC8)
340: 0x079B [0x2A] GET_REQ_LEVEL(level=16, entity_id=Zazarg (ID: 17162855/0x0105E267))
341: 0x07A1 [0x79] EventEntity looks at Zazarg (ID: 17162855/0x0105E267) (Basic look)
342: 0x07AB [0x2B] Zazarg (ID: 17162855/0x0105E267) [12842*]:
    → "That will be enough. I'll take it from here, soldier."
343: 0x07B2 [0x23] WAIT_FOR_DIALOG_INTERACTION
344: 0x07B3 [0x4A] LocalPlayer looks at Zazarg (ID: 17162855/0x0105E267)
345: 0x07BC [0x1C] WAIT(15* ticks)
346: 0x07BF [0x52] END_LOAD_SCHEDULER: End scheduler "kb00" with entities [LocalPlayer, LocalPlayer], work=379*
347: 0x07CE [0x45] LOAD_SCHEDULED_TASK: Load scheduler "kb01" with entities [LocalPlayer, LocalPlayer], work=[379*, 0*]
348: 0x07DF [0x1C] WAIT(120* ticks)
349: 0x07E2 [0x27] REQ_SET(priority=0x10, entity_id=Zazarg (ID: 17162855/0x0105E267), tag_num=0x0A)
350: 0x07E9 [0x52] END_LOAD_SCHEDULER: End scheduler "kb01" with entities [LocalPlayer, LocalPlayer], work=379*
351: 0x07F8 [0x45] LOAD_SCHEDULED_TASK: Load scheduler "kb02" with entities [LocalPlayer, LocalPlayer], work=[379*, 0*]
352: 0x0809 [0x2A] GET_REQ_LEVEL(level=16, entity_id=Zazarg (ID: 17162855/0x0105E267))
353: 0x080F [0x4A] LocalPlayer looks at Zazarg (ID: 17162855/0x0105E267)
354: 0x0818 [0x1C] WAIT(45* ticks)
355: 0x081B [0x52] END_LOAD_SCHEDULER: End scheduler "kb02" with entities [LocalPlayer, LocalPlayer], work=379*
356: 0x082A [0x45] LOAD_SCHEDULED_TASK: Load scheduler "kb03" with entities [LocalPlayer, LocalPlayer], work=[379*, 0*]
357: 0x083B [0x2B] Zazarg (ID: 17162855/0x0105E267) [12843*]:
    → "Ahem! <Player>, for exemplary service to the Republic of Bastok, I present you with the $3! Dismissed!"
358: 0x0842 [0x23] WAIT_FOR_DIALOG_INTERACTION
359: 0x0843 [0x52] END_LOAD_SCHEDULER: End scheduler "kb03" with entities [LocalPlayer, LocalPlayer], work=379*
360: 0x0852 [0x45] LOAD_SCHEDULED_TASK: Load scheduler "kb04" with entities [LocalPlayer, LocalPlayer], work=[379*, 0*]
361: 0x0863 [0x5B] LOAD_EXT_SCHEDULER: Load scheduler "gah0" with entities [Zazarg (ID: 17162855/0x0105E267), Zazarg (ID: 17162855/0x0105E267)], work=1144*
362: 0x0872 [0x2B] Zazarg (ID: 17162855/0x0105E267) [12844*]:
    → "... Why are you still here, soldier!? There are beastmen to be pummeled! Now, march!"
363: 0x0879 [0x23] WAIT_FOR_DIALOG_INTERACTION
364: 0x087A [0x52] END_LOAD_SCHEDULER: End scheduler "kb04" with entities [LocalPlayer, LocalPlayer], work=379*
365: 0x0889 [0x45] LOAD_SCHEDULED_TASK: Load scheduler "kb05" with entities [LocalPlayer, LocalPlayer], work=[379*, 0*]
366: 0x089A [0x27] REQ_SET(priority=0x10, entity_id=Zazarg (ID: 17162855/0x0105E267), tag_num=0x0B)
367: 0x08A1 [0x1C] WAIT(120* ticks)
368: 0x08A4 [0x52] END_LOAD_SCHEDULER: End scheduler "kb05" with entities [LocalPlayer, LocalPlayer], work=379*
369: 0x08B3 [0x45] LOAD_SCHEDULED_TASK: Load scheduler "kb06" with entities [LocalPlayer, LocalPlayer], work=[379*, 0*]
370: 0x08C4 [0x01] GOTO 0x0A92
371: 0x08C7 [0x02] IF !(Work_Zone[5] == 3*) GOTO 0x0A92
372: 0x08CF [0x27] REQ_SET(priority=0x10, entity_id=Romaa Mihgo (ID: 17162856/0x0105E268), tag_num=0x04)
373: 0x08D6 [0x92] Romaa Mihgo (ID: 17162856/0x0105E268)->Render.Flags3 ^= 0x01
374: 0x08DC [0x92] Llewellyn (ID: 17162853/0x0105E265)->Render.Flags3 ^= 0x01
375: 0x08E2 [0x94] LocalPlayer->Render.Flags3 ^= 0x01
376: 0x08E8 [0x94] Romaa Mihgo (ID: 17162856/0x0105E268)->Render.Flags3 ^= 0x01
377: 0x08EE [0x94] Llewellyn (ID: 17162853/0x0105E265)->Render.Flags3 ^= 0x01
378: 0x08F4 [0xBA] SET_ENTITY_POSITION(entity_id=LocalPlayer, pos_x=-5.025*, pos_z=42.717*, pos_y=-1.000*, direction=180.8°*)
379: 0x0901 [0xBA] SET_ENTITY_POSITION(entity_id=Romaa Mihgo (ID: 17162856/0x0105E268), pos_x=-5.999*, pos_z=36.239*, pos_y=-1.000*, direction=180.9°*)
380: 0x090E [0x80] LOAD_WAIT(entity=LocalPlayer)
381: 0x0913 [0x80] LOAD_WAIT(entity=Romaa Mihgo (ID: 17162856/0x0105E268))
382: 0x0918 [0x80] LOAD_WAIT(entity=Llewellyn (ID: 17162853/0x0105E265))
383: 0x091D [0x4A] Llewellyn (ID: 17162853/0x0105E265) looks at LocalPlayer
384: 0x0926 [0x79] LocalPlayer looks at Llewellyn (ID: 17162853/0x0105E265) (Basic look)
385: 0x0930 [0x5C] MUSIC_CONTROL: Set Idle (Day) music to song 246*
386: 0x0934 [0x5C] MUSIC_CONTROL: Set Idle (Night) music to song 246*
387: 0x0938 [0x9A] WAIT_MUSIC_SERVER()
388: 0x0939 [0x1C] WAIT(15* ticks)
389: 0x093C [0x27] REQ_SET(priority=0x10, entity_id=Romaa Mihgo (ID: 17162856/0x0105E268), tag_num=0x09)
390: 0x0943 [0x45] LOAD_SCHEDULED_TASK: Load scheduler "kw00" with entities [LocalPlayer, LocalPlayer], work=[379*, 0*]
391: 0x0954 [0x1A] CALL_SUBROUTINE(address=0x0EC8)
392: 0x0957 [0x2A] GET_REQ_LEVEL(level=16, entity_id=Romaa Mihgo (ID: 17162856/0x0105E268))
393: 0x095D [0x79] EventEntity looks at Romaa Mihgo (ID: 17162856/0x0105E268) (Basic look)
394: 0x0967 [0x2B] Romaa Mihgo (ID: 17162856/0x0105E268) [12845*]:
    → "Hold on a minute. I'll take it from herrre."
395: 0x096E [0x23] WAIT_FOR_DIALOG_INTERACTION
396: 0x096F [0x4A] LocalPlayer looks at Romaa Mihgo (ID: 17162856/0x0105E268)
397: 0x0978 [0x1C] WAIT(15* ticks)
398: 0x097B [0x52] END_LOAD_SCHEDULER: End scheduler "kw00" with entities [LocalPlayer, LocalPlayer], work=379*
399: 0x098A [0x45] LOAD_SCHEDULED_TASK: Load scheduler "kw01" with entities [LocalPlayer, LocalPlayer], work=[379*, 0*]
400: 0x099B [0x1C] WAIT(120* ticks)
401: 0x099E [0x27] REQ_SET(priority=0x10, entity_id=Romaa Mihgo (ID: 17162856/0x0105E268), tag_num=0x0A)
402: 0x09A5 [0x52] END_LOAD_SCHEDULER: End scheduler "kw01" with entities [LocalPlayer, LocalPlayer], work=379*
403: 0x09B4 [0x45] LOAD_SCHEDULED_TASK: Load scheduler "kw02" with entities [LocalPlayer, LocalPlayer], work=[379*, 0*]
404: 0x09C5 [0x2A] GET_REQ_LEVEL(level=16, entity_id=Romaa Mihgo (ID: 17162856/0x0105E268))
405: 0x09CB [0x4A] LocalPlayer looks at Romaa Mihgo (ID: 17162856/0x0105E268)
406: 0x09D4 [0x1C] WAIT(45* ticks)
407: 0x09D7 [0x52] END_LOAD_SCHEDULER: End scheduler "kw02" with entities [LocalPlayer, LocalPlayer], work=379*
408: 0x09E6 [0x45] LOAD_SCHEDULED_TASK: Load scheduler "kw03" with entities [LocalPlayer, LocalPlayer], work=[379*, 0*]
409: 0x09F7 [0x66] LOAD_EXT_SCHEDULER_MAIN: Load scheduler "tlk0" with entities [Romaa Mihgo (ID: 17162856/0x0105E268), Romaa Mihgo (ID: 17162856/0x0105E268)], work=59*
410: 0x0A06 [0x2B] Romaa Mihgo (ID: 17162856/0x0105E268) [12846*]:
    → "<Player>! ... ... Good work. Here's your $3."
411: 0x0A0D [0x23] WAIT_FOR_DIALOG_INTERACTION
412: 0x0A0E [0x52] END_LOAD_SCHEDULER: End scheduler "kw03" with entities [LocalPlayer, LocalPlayer], work=379*
413: 0x0A1D [0x45] LOAD_SCHEDULED_TASK: Load scheduler "kw04" with entities [LocalPlayer, LocalPlayer], work=[379*, 0*]
414: 0x0A2E [0x66] LOAD_EXT_SCHEDULER_MAIN: Load scheduler "tlk1" with entities [Romaa Mihgo (ID: 17162856/0x0105E268), Romaa Mihgo (ID: 17162856/0x0105E268)], work=59*
415: 0x0A3D [0x2B] Romaa Mihgo (ID: 17162856/0x0105E268) [12847*]:
    → "Oh, and don't go getting the wrrrong idea. The reason you're wearing that medal isn't because "you" are a fine soldier, it's because you're backed by the best damn unit in the Federation. Dismissed!"
416: 0x0A44 [0x23] WAIT_FOR_DIALOG_INTERACTION
417: 0x0A45 [0x52] END_LOAD_SCHEDULER: End scheduler "kw04" with entities [LocalPlayer, LocalPlayer], work=379*
418: 0x0A54 [0x45] LOAD_SCHEDULED_TASK: Load scheduler "kw05" with entities [LocalPlayer, LocalPlayer], work=[379*, 0*]
419: 0x0A65 [0x27] REQ_SET(priority=0x10, entity_id=Romaa Mihgo (ID: 17162856/0x0105E268), tag_num=0x0B)
420: 0x0A6C [0x1C] WAIT(120* ticks)
421: 0x0A6F [0x52] END_LOAD_SCHEDULER: End scheduler "kw05" with entities [LocalPlayer, LocalPlayer], work=379*
422: 0x0A7E [0x45] LOAD_SCHEDULED_TASK: Load scheduler "kw06" with entities [LocalPlayer, LocalPlayer], work=[379*, 0*]
423: 0x0A8F [0x01] GOTO 0x0A92

SUBROUTINE_0A92:
424: 0x0A92 [0x7B] EventEntity stops talking
425: 0x0A97 [0x1C] WAIT(30* ticks)
426: 0x0A9A [0x1D] PRINT_EVENT_MESSAGE(message_id=12848*)
    → "That is all. Please note that you will not be eligible for another evaluation for [five days/one hour] (Earth time). Good luck, <Player>."
427: 0x0A9D [0x23] WAIT_FOR_DIALOG_INTERACTION
428: 0x0A9E [0x5D] SET_MUSIC_VOLUME(volume=0*, fade_time=120*)
429: 0x0AA3 [0x1A] CALL_SUBROUTINE(address=0x0EE9)
430: 0x0AA6 [0x1C] WAIT(30* ticks)
431: 0x0AA9 [0x52] END_LOAD_SCHEDULER: End scheduler "ks06" with entities [LocalPlayer, LocalPlayer], work=379*
432: 0x0AB8 [0x52] END_LOAD_SCHEDULER: End scheduler "kb06" with entities [LocalPlayer, LocalPlayer], work=379*
433: 0x0AC7 [0x52] END_LOAD_SCHEDULER: End scheduler "kw06" with entities [LocalPlayer, LocalPlayer], work=379*
434: 0x0AD6 [0x45] LOAD_SCHEDULED_TASK: Load scheduler "0blf" with entities [LocalPlayer, LocalPlayer], work=[379*, 0*]
435: 0x0AE7 [0x7A] VM_CONTROL: Reset VM for Rongelouts (ID: 17162854/0x0105E266)
436: 0x0AED [0x7A] VM_CONTROL: Reset VM for Zazarg (ID: 17162855/0x0105E267)
437: 0x0AF3 [0x7A] VM_CONTROL: Reset VM for Romaa Mihgo (ID: 17162856/0x0105E268)
438: 0x0AF9 [0x4E] SET_ENTITY_HIDE_FLAG: Hide Rongelouts (ID: 17162854/0x0105E266)
439: 0x0AFF [0x4E] SET_ENTITY_HIDE_FLAG: Hide Zazarg (ID: 17162855/0x0105E267)
440: 0x0B05 [0x4E] SET_ENTITY_HIDE_FLAG: Hide Romaa Mihgo (ID: 17162856/0x0105E268)
441: 0x0B0B [0x02] IF !(Work_Zone[5] == 1*) GOTO 0x0B1E
442: 0x0B13 [0x5C] MUSIC_CONTROL: Set Idle (Day) music to song 254*
443: 0x0B17 [0x5C] MUSIC_CONTROL: Set Idle (Night) music to song 254*
444: 0x0B1B [0x01] GOTO 0x0B44
445: 0x0B1E [0x02] IF !(Work_Zone[5] == 2*) GOTO 0x0B31
446: 0x0B26 [0x5C] MUSIC_CONTROL: Set Idle (Day) music to song 180*
447: 0x0B2A [0x5C] MUSIC_CONTROL: Set Idle (Night) music to song 180*
448: 0x0B2E [0x01] GOTO 0x0B44
449: 0x0B31 [0x02] IF !(Work_Zone[5] == 3*) GOTO 0x0B44
450: 0x0B39 [0x5C] MUSIC_CONTROL: Set Idle (Day) music to song 182*
451: 0x0B3D [0x5C] MUSIC_CONTROL: Set Idle (Night) music to song 182*
452: 0x0B41 [0x01] GOTO 0x0B44

SUBROUTINE_0B44:
453: 0x0B44 [0x9A] WAIT_MUSIC_SERVER()
454: 0x0B45 [0x46] CAMERA_CONTROL: Restore default settings
455: 0x0B47 [0x45] LOAD_SCHEDULED_TASK: Load scheduler "qstc" with entities [EventEntity, EventEntity], work=[201*, 0*]
456: 0x0B58 [0x03] Work_Zone[1] = 2*
457: 0x0B5D [0x40] SET_BIT_WORK_RANGE(start_bit=4*, end_bit=7*, target=Work_Zone[1], source=3*)
458: 0x0B66 [0x43] SEND_EVENT_UPDATE: Send pending tag to server (packet 0x005B)
459: 0x0B68 [0x43] SEND_EVENT_UPDATE: Check pending flag (skip if not pending)
460: 0x0B6A [0x45] LOAD_SCHEDULED_TASK: Load scheduler "fdi2" with entities [LocalPlayer, LocalPlayer], work=[200*, 0*]
461: 0x0B7B [0x01] GOTO 0x0E70
462: 0x0B7E [0x02] IF !(Work_Zone[3] == 2*) GOTO 0x0C1B
463: 0x0B86 [0x1D] PRINT_EVENT_MESSAGE(message_id=12852*)
    → "While the Allied War Council was pleased with your work, it was determined that your performance did not warrant the conferral of further decoration."
464: 0x0B89 [0x23] WAIT_FOR_DIALOG_INTERACTION
465: 0x0B8A [0x06] ExtData[1]->WorkLocal[1] = 0
466: 0x0B8D [0x02] IF !(Work_Zone[4] >= 1*) GOTO 0x0BA1
467: 0x0B95 [0x1D] PRINT_EVENT_MESSAGE(message_id=12855*)
    → "Your current campaign medal has already expired."
468: 0x0B98 [0x23] WAIT_FOR_DIALOG_INTERACTION
469: 0x0B99 [0x03] ExtData[1]->WorkLocal[1] = 2*
470: 0x0B9E [0x01] GOTO 0x0BB4
471: 0x0BA1 [0x02] IF !(Work_Zone[4] == 1*) GOTO 0x0BB0
472: 0x0BA9 [0x1D] PRINT_EVENT_MESSAGE(message_id=12854*)
    → "Your current campaign medal will expire in less than a day (Earth time)."
473: 0x0BAC [0x23] WAIT_FOR_DIALOG_INTERACTION
474: 0x0BAD [0x01] GOTO 0x0BB4
475: 0x0BB0 [0x1D] PRINT_EVENT_MESSAGE(message_id=12853*)
    → "You still have $2 day[/s] (Earth time) until your current campaign medal expires."
476: 0x0BB3 [0x23] WAIT_FOR_DIALOG_INTERACTION

SUBROUTINE_0BB4:
477: 0x0BB4 [0x1D] PRINT_EVENT_MESSAGE(message_id=12856*)
    → "Would you like to continue this month's evaluation in a further attempt to receive the next medal, or would you rather end the evaluation and maintain your current honors?"
478: 0x0BB7 [0x23] WAIT_FOR_DIALOG_INTERACTION
479: 0x0BB8 [0x24] CREATE_DIALOG(message_id=12857*, default_option=1*, option_flags=ExtData[1]->WorkLocal[1])
    → "End the evaluation? [Yes./No.]"
480: 0x0BBF [0x25] WAIT_DIALOG_SELECT()
481: 0x0BC0 [0x02] IF !(Work_Zone[0] == 1*) GOTO 0x0BD7
482: 0x0BC8 [0x1D] PRINT_EVENT_MESSAGE(message_id=12858*)
    → "Excellent. Speak with me again when you are ready to submit your next application. Good luck, <Player>."
483: 0x0BCB [0x23] WAIT_FOR_DIALOG_INTERACTION
484: 0x0BCC [0x03] Work_Zone[1] = 1073741824*
485: 0x0BD1 [0x01] GOTO 0x0E73

SUBROUTINE_0BD7:
486: 0x0BD7 [0x1D] PRINT_EVENT_MESSAGE(message_id=12859*)
    → "By ending the evaluation, you will have accepted the war council's decision to maintain your current rank, and be granted another thirty-day seal on your current medal."
487: 0x0BDA [0x23] WAIT_FOR_DIALOG_INTERACTION
488: 0x0BDB [0x1D] PRINT_EVENT_MESSAGE(message_id=12860*)
    → "However, any work you have done during the past evaluation period towards the procurement of the next medal will become null and void."
489: 0x0BDE [0x23] WAIT_FOR_DIALOG_INTERACTION
490: 0x0BDF [0x1D] PRINT_EVENT_MESSAGE(message_id=12861*)
    → "Please consider carefully your options before making this important decision."
491: 0x0BE2 [0x23] WAIT_FOR_DIALOG_INTERACTION
492: 0x0BE3 [0x24] CREATE_DIALOG(message_id=12862*, default_option=1*, option_flags=ExtData[1]->WorkLocal[1])
    → "Are you absolutely sure? [Yes./No.]"
493: 0x0BEA [0x25] WAIT_DIALOG_SELECT()
494: 0x0BEB [0x02] IF !(Work_Zone[0] == 1*) GOTO 0x0C02
495: 0x0BF3 [0x1D] PRINT_EVENT_MESSAGE(message_id=12858*)
    → "Excellent. Speak with me again when you are ready to submit your next application. Good luck, <Player>."
496: 0x0BF6 [0x23] WAIT_FOR_DIALOG_INTERACTION
497: 0x0BF7 [0x03] Work_Zone[1] = 1073741824*
498: 0x0BFC [0x01] GOTO 0x0E73

SUBROUTINE_0C02:
499: 0x0C02 [0x1D] PRINT_EVENT_MESSAGE(message_id=12863*)
    → "Done. Your medal has been given a new magic seal."
500: 0x0C05 [0x23] WAIT_FOR_DIALOG_INTERACTION
501: 0x0C06 [0x03] Work_Zone[1] = 2*
502: 0x0C0B [0x40] SET_BIT_WORK_RANGE(start_bit=4*, end_bit=7*, target=Work_Zone[1], source=2*)
503: 0x0C14 [0x43] SEND_EVENT_UPDATE: Send pending tag to server (packet 0x005B)
504: 0x0C16 [0x43] SEND_EVENT_UPDATE: Check pending flag (skip if not pending)
505: 0x0C18 [0x01] GOTO 0x0E70
506: 0x0C1B [0x02] IF !(Work_Zone[3] == 1*) GOTO 0x0CB8
507: 0x0C23 [0x1D] PRINT_EVENT_MESSAGE(message_id=12865*)
    → "...... I am sorry, <Player>, but the war council was not at all pleased with your performance, and has deemed you unworthy of your highest-ranking medal."
508: 0x0C26 [0x23] WAIT_FOR_DIALOG_INTERACTION
509: 0x0C27 [0x1D] PRINT_EVENT_MESSAGE(message_id=12866*)
    → "It shall be confiscated the moment its magic seal expires."
510: 0x0C2A [0x23] WAIT_FOR_DIALOG_INTERACTION
511: 0x0C2B [0x1D] PRINT_EVENT_MESSAGE(message_id=12867*)
    → "You have two choices left, <Player>. You may either accept the council's decision, or, if your medal's seal still holds, you may continue your efforts to improve your evaluation."
512: 0x0C2E [0x23] WAIT_FOR_DIALOG_INTERACTION
513: 0x0C2F [0x06] ExtData[1]->WorkLocal[1] = 0
514: 0x0C32 [0x02] IF !(Work_Zone[4] >= 1*) GOTO 0x0C46
515: 0x0C3A [0x1D] PRINT_EVENT_MESSAGE(message_id=12870*)
    → "Unfortunately, it no longer retains any power..."
516: 0x0C3D [0x23] WAIT_FOR_DIALOG_INTERACTION
517: 0x0C3E [0x03] ExtData[1]->WorkLocal[1] = 2*
518: 0x0C43 [0x01] GOTO 0x0C59
519: 0x0C46 [0x02] IF !(Work_Zone[4] == 1*) GOTO 0x0C55
520: 0x0C4E [0x1D] PRINT_EVENT_MESSAGE(message_id=12869*)
    → "However, it retains less than a day's power (Earth time)."
521: 0x0C51 [0x23] WAIT_FOR_DIALOG_INTERACTION
522: 0x0C52 [0x01] GOTO 0x0C59
523: 0x0C55 [0x1D] PRINT_EVENT_MESSAGE(message_id=12868*)
    → "It retains $2 day[/s] (Earth time) of power."
524: 0x0C58 [0x23] WAIT_FOR_DIALOG_INTERACTION

SUBROUTINE_0C59:
525: 0x0C59 [0x1D] PRINT_EVENT_MESSAGE(message_id=12871*)
    → "What is your decision?"
526: 0x0C5C [0x23] WAIT_FOR_DIALOG_INTERACTION
527: 0x0C5D [0x24] CREATE_DIALOG(message_id=12872*, default_option=1*, option_flags=ExtData[1]->WorkLocal[1])
    → "You can... [Return the medal at once./Continue your efforts.]"
528: 0x0C64 [0x25] WAIT_DIALOG_SELECT()
529: 0x0C65 [0x02] IF !(Work_Zone[0] == 1*) GOTO 0x0C7C
530: 0x0C6D [0x1D] PRINT_EVENT_MESSAGE(message_id=12874*)
    → "Excellent. Speak with me again when you are ready to submit your next application. Good luck, <Player>."
531: 0x0C70 [0x23] WAIT_FOR_DIALOG_INTERACTION
532: 0x0C71 [0x03] Work_Zone[1] = 1073741824*
533: 0x0C76 [0x01] GOTO 0x0E73

SUBROUTINE_0C7C:
534: 0x0C7C [0x24] CREATE_DIALOG(message_id=12873*, default_option=1*, option_flags=ExtData[1]->WorkLocal[1])
    → "Are you certain? [Yes./No.]"
535: 0x0C83 [0x25] WAIT_DIALOG_SELECT()
536: 0x0C84 [0x02] IF !(Work_Zone[0] == 1*) GOTO 0x0C9B
537: 0x0C8C [0x1D] PRINT_EVENT_MESSAGE(message_id=12874*)
    → "Excellent. Speak with me again when you are ready to submit your next application. Good luck, <Player>."
538: 0x0C8F [0x23] WAIT_FOR_DIALOG_INTERACTION
539: 0x0C90 [0x03] Work_Zone[1] = 1073741824*
540: 0x0C95 [0x01] GOTO 0x0E73

SUBROUTINE_0C9B:
541: 0x0C9B [0x1D] PRINT_EVENT_MESSAGE(message_id=12875*)
    → "Understood. Perhaps the weight of this medal was a bit too much for you, <Player>."
542: 0x0C9E [0x23] WAIT_FOR_DIALOG_INTERACTION
543: 0x0C9F [0x1D] PRINT_EVENT_MESSAGE(message_id=12876*)
    → "If you wish to submit another application for evaluation, please visit me again in [five days'/one hour's] time."
544: 0x0CA2 [0x23] WAIT_FOR_DIALOG_INTERACTION
545: 0x0CA3 [0x03] Work_Zone[1] = 2*
546: 0x0CA8 [0x40] SET_BIT_WORK_RANGE(start_bit=4*, end_bit=7*, target=Work_Zone[1], source=1*)
547: 0x0CB1 [0x43] SEND_EVENT_UPDATE: Send pending tag to server (packet 0x005B)
548: 0x0CB3 [0x43] SEND_EVENT_UPDATE: Check pending flag (skip if not pending)
549: 0x0CB5 [0x01] GOTO 0x0E70
550: 0x0CB8 [0x02] IF !(Work_Zone[3] == 5*) GOTO 0x0D5D
551: 0x0CC0 [0x1D] PRINT_EVENT_MESSAGE(message_id=12877*)
    → "...... I regret to inform you, <Player>, that your performance this term fell a measure short of the council's expectations. Admittedly high expectations, but nevertheless..."
552: 0x0CC3 [0x23] WAIT_FOR_DIALOG_INTERACTION
553: 0x0CC4 [0x1D] PRINT_EVENT_MESSAGE(message_id=12878*)
    → "Still, you have proven your worth to our nation on many an occasion. In light of your past services, the council has seen fit to exempt you from demotion at this time."
554: 0x0CC7 [0x23] WAIT_FOR_DIALOG_INTERACTION
555: 0x0CC8 [0x06] ExtData[1]->WorkLocal[1] = 0
556: 0x0CCB [0x02] IF !(Work_Zone[4] >= 1*) GOTO 0x0CDF
557: 0x0CD3 [0x1D] PRINT_EVENT_MESSAGE(message_id=12881*)
    → "Incidentally, your seal is no longer effective."
558: 0x0CD6 [0x23] WAIT_FOR_DIALOG_INTERACTION
559: 0x0CD7 [0x03] ExtData[1]->WorkLocal[1] = 2*
560: 0x0CDC [0x01] GOTO 0x0CF2
561: 0x0CDF [0x02] IF !(Work_Zone[4] == 1*) GOTO 0x0CEE
562: 0x0CE7 [0x1D] PRINT_EVENT_MESSAGE(message_id=12880*)
    → "Incidentally, your seal retains less than a day's power (Earth time)."
563: 0x0CEA [0x23] WAIT_FOR_DIALOG_INTERACTION
564: 0x0CEB [0x01] GOTO 0x0CF2
565: 0x0CEE [0x1D] PRINT_EVENT_MESSAGE(message_id=12879*)
    → "Incidentally, your seal will remain effective for $2 more day[/s] (Earth time)."
566: 0x0CF1 [0x23] WAIT_FOR_DIALOG_INTERACTION

SUBROUTINE_0CF2:
567: 0x0CF2 [0x1D] PRINT_EVENT_MESSAGE(message_id=12882*)
    → "You may end your evaluation here, or press on. What say you?"
568: 0x0CF5 [0x23] WAIT_FOR_DIALOG_INTERACTION
569: 0x0CF6 [0x24] CREATE_DIALOG(message_id=12857*, default_option=1*, option_flags=ExtData[1]->WorkLocal[1])
    → "End the evaluation? [Yes./No.]"
570: 0x0CFD [0x25] WAIT_DIALOG_SELECT()
571: 0x0CFE [0x02] IF !(Work_Zone[0] == 1*) GOTO 0x0D15
572: 0x0D06 [0x1D] PRINT_EVENT_MESSAGE(message_id=12883*)
    → "Very well. We will be following your continued efforts with interest."
