# 17162761 - Koru-Moru

## Common Data

| Field            | Value                        |
|------------------|------------------------------|
| Zone             | Windurst Waters [S] (ID: 94) |
| Block Size       | 388 bytes                    |
| Total Events     | 15                           |
| References Count | 29                           |

## List of Events

| Event ID                 | Entrypoint   |   Size |   Instructions |
|--------------------------|--------------|--------|----------------|
| [65535](#event-65535)    | 0x0000       |      1 |              1 |
| [128](#event-128)        | 0x0001       |      5 |              2 |
| [129](#event-129)        | 0x0006       |      1 |              1 |
| [133](#event-133)        | 0x0007       |      1 |              1 |
| [134](#event-134)        | 0x0008       |      5 |              2 |
| [65535.1](#event-655351) | 0x000D       |     32 |              8 |
| [65535.2](#event-655352) | 0x002D       |     32 |              8 |
| [65535.3](#event-655353) | 0x004D       |     20 |              6 |
| [65535.4](#event-655354) | 0x0061       |     20 |              6 |
| [65535.5](#event-655355) | 0x0075       |     18 |              6 |
| [65535.6](#event-655356) | 0x0087       |      4 |              2 |
| [65535.7](#event-655357) | 0x008B       |     20 |              6 |
| [65535.8](#event-655358) | 0x009F       |      3 |              2 |
| [151](#event-151)        | 0x00A2       |      1 |              1 |
| [65535.9](#event-655359) | 0x00A3       |     32 |              8 |

## DAT References (imed_data)

|   Index | Hex Value   |   Dec Value |
|---------|-------------|-------------|
|       0 | 0x0052      |          82 |
|       1 | 0x000F      |          15 |
|       2 | 0x0418      |        1048 |
|       3 | 0x39D7      |       14807 |
|       4 | 0xFFFFFC18  |  4294966296 |
|       5 | 0x0019      |          25 |
|       6 | 0x000E      |          14 |
|       7 | 0x1ECBA     |      126138 |
|       8 | 0x354CB     |      218315 |
|       9 | 0xFFFFF63C  |  4294964796 |
|      10 | 0x0007      |           7 |
|      11 | 0x0028      |          40 |
|      12 | 0x04EC      |        1260 |
|      13 | 0x4455      |       17493 |
|      14 | 0xFFFFFFF3  |  4294967283 |
|      15 | 0x47B3      |       18355 |
|      16 | 0xFFFFFC19  |  4294966297 |
|      17 | 0x000D      |          13 |
|      18 | 0x07FC      |        2044 |
|      19 | 0x3AEE      |       15086 |
|      20 | 0x0C80      |        3200 |
|      21 | 0x041A      |        1050 |
|      22 | 0xFFFF0D26  |  4294905126 |
|      23 | 0x18E00     |      101888 |
|      24 | 0xFFFFEB7E  |  4294962046 |
|      25 | 0x0008      |           8 |
|      26 | 0xFFFF632A  |  4294927146 |
|      27 | 0x3B06E     |      241774 |
|      28 | 0xFFFFEC79  |  4294962297 |

## Events

### Event 65535

#### Metadata

| Field        | Value   |
|--------------|---------|
| Entrypoint   | 0x0000  |
| Data Size    | 1 bytes |
| Instructions | 1       |

```
      00 01 02 03 04 05 06 07  08 09 0A 0B 0C 0D 0E 0F
      -- -- -- -- -- -- -- --  -- -- -- -- -- -- -- --
0000: 00                                                .               
```

#### Opcodes

```
  0: 0x0000 [0x00] END_REQSTACK()
```

### Event 128

#### Metadata

| Field        | Value   |
|--------------|---------|
| Entrypoint   | 0x0001  |
| Data Size    | 5 bytes |
| Instructions | 2       |

```
      00 01 02 03 04 05 06 07  08 09 0A 0B 0C 0D 0E 0F
      -- -- -- -- -- -- -- --  -- -- -- -- -- -- -- --
0000:    B6 0F 00 80 00                                  .....          
```

#### Opcodes

```
  0: 0x0001 [0xB6] ENTITY_APPEARANCE_HANDLER(case=Model size, value=82*)
  1: 0x0005 [0x00] END_REQSTACK()
```

### Event 129

#### Metadata

| Field        | Value   |
|--------------|---------|
| Entrypoint   | 0x0006  |
| Data Size    | 1 bytes |
| Instructions | 1       |

```
      00 01 02 03 04 05 06 07  08 09 0A 0B 0C 0D 0E 0F
      -- -- -- -- -- -- -- --  -- -- -- -- -- -- -- --
0000:                   00                                    .         
```

#### Opcodes

```
  0: 0x0006 [0x00] END_REQSTACK()
```

### Event 133

#### Metadata

| Field        | Value   |
|--------------|---------|
| Entrypoint   | 0x0007  |
| Data Size    | 1 bytes |
| Instructions | 1       |

```
      00 01 02 03 04 05 06 07  08 09 0A 0B 0C 0D 0E 0F
      -- -- -- -- -- -- -- --  -- -- -- -- -- -- -- --
0000:                      00                                  .        
```

#### Opcodes

```
  0: 0x0007 [0x00] END_REQSTACK()
```

### Event 134

#### Metadata

| Field        | Value   |
|--------------|---------|
| Entrypoint   | 0x0008  |
| Data Size    | 5 bytes |
| Instructions | 2       |

```
      00 01 02 03 04 05 06 07  08 09 0A 0B 0C 0D 0E 0F
      -- -- -- -- -- -- -- --  -- -- -- -- -- -- -- --
0000:                          B6 0F 00 80 00                   .....   
```

#### Opcodes

```
  0: 0x0008 [0xB6] ENTITY_APPEARANCE_HANDLER(case=Model size, value=82*)
  1: 0x000C [0x00] END_REQSTACK()
```

### Event 65535.1

#### Metadata

| Field        | Value    |
|--------------|----------|
| Entrypoint   | 0x000D   |
| Data Size    | 32 bytes |
| Instructions | 8        |

```
      00 01 02 03 04 05 06 07  08 09 0A 0B 0C 0D 0E 0F
      -- -- -- -- -- -- -- --  -- -- -- -- -- -- -- --
0000:                                         32 01 80               2..
0010: 1F 00 02 80 03 80 04 80  1F 01 6F 1E 06 E2 05 01  ..........o.....
0020: 6E F8 FF FF 7F 05 80 99  F8 FF FF 7F 00           n............   
```

#### Opcodes

```
  0: 0x000D [0x32] ExtData[1]->MainSpeed = 15* * 0.1
  1: 0x0010 [0x1F] MOVE_ENTITY: EventEntity moves to X=1.048*, Z=14.807*, Y=-1.000*
  2: 0x0018 [0x1F] MOVE_ENTITY: Update entity position (mode=1)
  3: 0x001A [0x6F] WAIT_FRAME_DELAY: Yield until WaitTime reaches zero
  4: 0x001B [0x1E] EventEntity looks at Ajido-Marujido (ID: 17162758/0x0105E206) and starts talking
  5: 0x0020 [0x6E] EventEntity uses emote 25*
  6: 0x0027 [0x99] Wait for EventEntity animation to complete
  7: 0x002C [0x00] END_REQSTACK()
```

### Event 65535.2

#### Metadata

| Field        | Value    |
|--------------|----------|
| Entrypoint   | 0x002D   |
| Data Size    | 32 bytes |
| Instructions | 8        |

```
      00 01 02 03 04 05 06 07  08 09 0A 0B 0C 0D 0E 0F
      -- -- -- -- -- -- -- --  -- -- -- -- -- -- -- --
0020:                                         32 06 80               2..
0030: 1F 00 07 80 08 80 09 80  1F 01 6F 1E F0 FF FF 7F  ..........o.....
0040: 6E F8 FF FF 7F 0A 80 99  F8 FF FF 7F 00           n............   
```

#### Opcodes

```
  0: 0x002D [0x32] ExtData[1]->MainSpeed = 14* * 0.1
  1: 0x0030 [0x1F] MOVE_ENTITY: EventEntity moves to X=126.138*, Z=218.315*, Y=-2.500*
  2: 0x0038 [0x1F] MOVE_ENTITY: Update entity position (mode=1)
  3: 0x003A [0x6F] WAIT_FRAME_DELAY: Yield until WaitTime reaches zero
  4: 0x003B [0x1E] EventEntity looks at LocalPlayer and starts talking
  5: 0x0040 [0x6E] EventEntity uses emote 7*
  6: 0x0047 [0x99] Wait for EventEntity animation to complete
  7: 0x004C [0x00] END_REQSTACK()
```

### Event 65535.3

#### Metadata

| Field        | Value    |
|--------------|----------|
| Entrypoint   | 0x004D   |
| Data Size    | 20 bytes |
| Instructions | 6        |

```
      00 01 02 03 04 05 06 07  08 09 0A 0B 0C 0D 0E 0F
      -- -- -- -- -- -- -- --  -- -- -- -- -- -- -- --
0040:                                         32 0B 80               2..
0050: 1F 00 0C 80 0D 80 04 80  1F 01 6F 1E FF E1 05 01  ..........o.....
0060: 00                                                .               
```

#### Opcodes

```
  0: 0x004D [0x32] ExtData[1]->MainSpeed = 40* * 0.1
  1: 0x0050 [0x1F] MOVE_ENTITY: EventEntity moves to X=1.260*, Z=17.493*, Y=-1.000*
  2: 0x0058 [0x1F] MOVE_ENTITY: Update entity position (mode=1)
  3: 0x005A [0x6F] WAIT_FRAME_DELAY: Yield until WaitTime reaches zero
  4: 0x005B [0x1E] EventEntity looks at Dhea Prandoleh (ID: 17162751/0x0105E1FF) and starts talking
  5: 0x0060 [0x00] END_REQSTACK()
```

### Event 65535.4

#### Metadata

| Field        | Value    |
|--------------|----------|
| Entrypoint   | 0x0061   |
| Data Size    | 20 bytes |
| Instructions | 6        |

```
      00 01 02 03 04 05 06 07  08 09 0A 0B 0C 0D 0E 0F
      -- -- -- -- -- -- -- --  -- -- -- -- -- -- -- --
0060:    32 0B 80 1F 00 0E 80  0F 80 10 80 1F 01 6F 1E   2............o.
0070: 06 E2 05 01 00                                    .....           
```

#### Opcodes

```
  0: 0x0061 [0x32] ExtData[1]->MainSpeed = 40* * 0.1
  1: 0x0064 [0x1F] MOVE_ENTITY: EventEntity moves to X=-0.013*, Z=18.355*, Y=-0.999*
  2: 0x006C [0x1F] MOVE_ENTITY: Update entity position (mode=1)
  3: 0x006E [0x6F] WAIT_FRAME_DELAY: Yield until WaitTime reaches zero
  4: 0x006F [0x1E] EventEntity looks at Ajido-Marujido (ID: 17162758/0x0105E206) and starts talking
  5: 0x0074 [0x00] END_REQSTACK()
```

### Event 65535.5

#### Metadata

| Field        | Value    |
|--------------|----------|
| Entrypoint   | 0x0075   |
| Data Size    | 18 bytes |
| Instructions | 6        |

```
      00 01 02 03 04 05 06 07  08 09 0A 0B 0C 0D 0E 0F
      -- -- -- -- -- -- -- --  -- -- -- -- -- -- -- --
0070:                32 11 80  1F 00 12 80 13 80 10 80       2..........
0080: 1F 01 6F 39 14 80 00                              ..o9...         
```

#### Opcodes

```
  0: 0x0075 [0x32] ExtData[1]->MainSpeed = 13* * 0.1
  1: 0x0078 [0x1F] MOVE_ENTITY: EventEntity moves to X=2.044*, Z=15.086*, Y=-0.999*
  2: 0x0080 [0x1F] MOVE_ENTITY: Update entity position (mode=1)
  3: 0x0082 [0x6F] WAIT_FRAME_DELAY: Yield until WaitTime reaches zero
  4: 0x0083 [0x39] SET_ENTITY_DIRECTION(direction=17.6°*)
  5: 0x0086 [0x00] END_REQSTACK()
```

### Event 65535.6

#### Metadata

| Field        | Value   |
|--------------|---------|
| Entrypoint   | 0x0087  |
| Data Size    | 4 bytes |
| Instructions | 2       |

```
      00 01 02 03 04 05 06 07  08 09 0A 0B 0C 0D 0E 0F
      -- -- -- -- -- -- -- --  -- -- -- -- -- -- -- --
0080:                      39  15 80 00                        9...     
```

#### Opcodes

```
  0: 0x0087 [0x39] SET_ENTITY_DIRECTION(direction=5.8°*)
  1: 0x008A [0x00] END_REQSTACK()
```

### Event 65535.7

#### Metadata

| Field        | Value    |
|--------------|----------|
| Entrypoint   | 0x008B   |
| Data Size    | 20 bytes |
| Instructions | 6        |

```
      00 01 02 03 04 05 06 07  08 09 0A 0B 0C 0D 0E 0F
      -- -- -- -- -- -- -- --  -- -- -- -- -- -- -- --
0080:                                   32 01 80 1F 00             2....
0090: 16 80 17 80 18 80 1F 01  6F 1E 29 E2 05 01 00     ........o.).... 
```

#### Opcodes

```
  0: 0x008B [0x32] ExtData[1]->MainSpeed = 15* * 0.1
  1: 0x008E [0x1F] MOVE_ENTITY: EventEntity moves to X=-62.170*, Z=101.888*, Y=-5.250*
  2: 0x0096 [0x1F] MOVE_ENTITY: Update entity position (mode=1)
  3: 0x0098 [0x6F] WAIT_FRAME_DELAY: Yield until WaitTime reaches zero
  4: 0x0099 [0x1E] EventEntity looks at Two of Cups (ID: 17162793/0x0105E229) and starts talking
  5: 0x009E [0x00] END_REQSTACK()
```

### Event 65535.8

#### Metadata

| Field        | Value   |
|--------------|---------|
| Entrypoint   | 0x009F  |
| Data Size    | 3 bytes |
| Instructions | 2       |

```
      00 01 02 03 04 05 06 07  08 09 0A 0B 0C 0D 0E 0F
      -- -- -- -- -- -- -- --  -- -- -- -- -- -- -- --
0090:                                               A4                 .
00A0: 01 00                                             ..              
```

#### Opcodes

```
  0: 0x009F [0xA4] EventEntity->Flags3.unknown_3_2 = 1
  1: 0x00A1 [0x00] END_REQSTACK()
```

### Event 151

#### Metadata

| Field        | Value   |
|--------------|---------|
| Entrypoint   | 0x00A2  |
| Data Size    | 1 bytes |
| Instructions | 1       |

```
      00 01 02 03 04 05 06 07  08 09 0A 0B 0C 0D 0E 0F
      -- -- -- -- -- -- -- --  -- -- -- -- -- -- -- --
00A0:       00                                            .             
```

#### Opcodes

```
  0: 0x00A2 [0x00] END_REQSTACK()
```

### Event 65535.9

#### Metadata

| Field        | Value    |
|--------------|----------|
| Entrypoint   | 0x00A3   |
| Data Size    | 32 bytes |
| Instructions | 8        |

```
      00 01 02 03 04 05 06 07  08 09 0A 0B 0C 0D 0E 0F
      -- -- -- -- -- -- -- --  -- -- -- -- -- -- -- --
00A0:          6E F8 FF FF 7F  19 80 99 F8 FF FF 7F 99     n............
00B0: F8 FF FF 7F 32 11 80 1F  00 1A 80 1B 80 1C 80 1F  ....2...........
00C0: 01 6F 00                                          .o.             
```

#### Opcodes

```
  0: 0x00A3 [0x6E] EventEntity uses emote 8*
  1: 0x00AA [0x99] Wait for EventEntity animation to complete
  2: 0x00AF [0x99] Wait for EventEntity animation to complete
  3: 0x00B4 [0x32] ExtData[1]->MainSpeed = 13* * 0.1
  4: 0x00B7 [0x1F] MOVE_ENTITY: EventEntity moves to X=-40.150*, Z=241.774*, Y=-4.999*
  5: 0x00BF [0x1F] MOVE_ENTITY: Update entity position (mode=1)
  6: 0x00C1 [0x6F] WAIT_FRAME_DELAY: Yield until WaitTime reaches zero
  7: 0x00C2 [0x00] END_REQSTACK()
```
