# 17162822 - 04

## Common Data

| Field            | Value                        |
|------------------|------------------------------|
| Zone             | Windurst Waters [S] (ID: 94) |
| Block Size       | 2628 bytes                   |
| Total Events     | 36                           |
| References Count | 156                          |

## List of Events

| Event ID                   | Entrypoint   |   Size |   Instructions |
|----------------------------|--------------|--------|----------------|
| [65535](#event-65535)      | 0x0000       |      1 |              1 |
| [65535.1](#event-655351)   | 0x0001       |      1 |              1 |
| [65535.2](#event-655352)   | 0x0002       |     18 |              4 |
| [65535.3](#event-655353)   | 0x0014       |     10 |              2 |
| [65535.4](#event-655354)   | 0x001E       |      9 |              3 |
| [65535.5](#event-655355)   | 0x0027       |      9 |              3 |
| [65535.6](#event-655356)   | 0x0030       |     10 |              2 |
| [65535.7](#event-655357)   | 0x003A       |     10 |              2 |
| [65535.8](#event-655358)   | 0x0044       |     15 |              5 |
| [65535.9](#event-655359)   | 0x0053       |     18 |              6 |
| [65535.10](#event-6553510) | 0x0065       |     22 |              7 |
| [65535.11](#event-6553511) | 0x007B       |    167 |             35 |
| [65535.12](#event-6553512) | 0x0122       |    186 |             38 |
| [65535.13](#event-6553513) | 0x01DC       |     83 |             18 |
| [65535.14](#event-6553514) | 0x022F       |    154 |             32 |
| [65535.15](#event-6553515) | 0x02C9       |    167 |             35 |
| [65535.16](#event-6553516) | 0x0370       |     69 |             15 |
| [65535.17](#event-6553517) | 0x03B5       |     38 |              9 |
| [65535.18](#event-6553518) | 0x03DB       |     38 |              9 |
| [65535.19](#event-6553519) | 0x0401       |     48 |             11 |
| [65535.20](#event-6553520) | 0x0431       |     19 |              4 |
| [65535.21](#event-6553521) | 0x0444       |     22 |              5 |
| [65535.22](#event-6553522) | 0x045A       |     22 |              5 |
| [65535.23](#event-6553523) | 0x0470       |     13 |              5 |
| [65535.24](#event-6553524) | 0x047D       |    221 |             26 |
| [65535.25](#event-6553525) | 0x055A       |     76 |              8 |
| [65535.26](#event-6553526) | 0x05A6       |     49 |              5 |
| [65535.27](#event-6553527) | 0x05D7       |     29 |              6 |
| [65535.28](#event-6553528) | 0x05F4       |     49 |              7 |
| [65535.29](#event-6553529) | 0x0625       |     20 |              5 |
| [65535.30](#event-6553530) | 0x0639       |     47 |              6 |
| [65535.31](#event-6553531) | 0x0668       |     21 |              3 |
| [65535.32](#event-6553532) | 0x067D       |    161 |             17 |
| [65535.33](#event-6553533) | 0x071E       |     20 |              5 |
| [20](#event-20)            | 0x0732       |      1 |              1 |
| [23](#event-23)            | 0x0733       |      1 |              1 |

## DAT References (imed_data)

|   Index | Hex Value   |   Dec Value |
|---------|-------------|-------------|
|       0 | 0x0000      |           0 |
|       1 | 0x0001      |           1 |
|       2 | 0x0080      |         128 |
|       3 | 0x0028      |          40 |
|       4 | 0xFFFFA3F1  |  4294943729 |
|       5 | 0x14BCE     |       84942 |
|       6 | 0xFFFFEC78  |  4294962296 |
|       7 | 0x001E      |          30 |
|       8 | 0xFFFF8C0A  |  4294937610 |
|       9 | 0x14333     |       82739 |
|      10 | 0xFFFFED74  |  4294962548 |
|      11 | 0x0004      |           4 |
|      12 | 0x0050      |          80 |
|      13 | 0x01CB      |         459 |
|      14 | 0xC01D      |       49181 |
|      15 | 0xFFFFFC18  |  4294966296 |
|      16 | 0xFFFFF61D  |  4294964765 |
|      17 | 0xB4CD      |       46285 |
|      18 | 0xFFFFE4A1  |  4294960289 |
|      19 | 0xA1E9      |       41449 |
|      20 | 0xFFFFCB4E  |  4294953806 |
|      21 | 0x99E9      |       39401 |
|      22 | 0xFFFF383B  |  4294916155 |
|      23 | 0x975A      |       38746 |
|      24 | 0xFFFFF255  |  4294963797 |
|      25 | 0xFFFF0950  |  4294904144 |
|      26 | 0xA6EB      |       42731 |
|      27 | 0xFFFEE28D  |  4294894221 |
|      28 | 0xCA5B      |       51803 |
|      29 | 0xFFFECCEB  |  4294888683 |
|      30 | 0xE7E4      |       59364 |
|      31 | 0xFFFED4DC  |  4294890716 |
|      32 | 0x12692     |       75410 |
|      33 | 0xFFFF05FC  |  4294903292 |
|      34 | 0x13DD1     |       81361 |
|      35 | 0xFFFF3FE9  |  4294918121 |
|      36 | 0x14635     |       83509 |
|      37 | 0xFFFFEC79  |  4294962297 |
|      38 | 0xFFFF58F1  |  4294924529 |
|      39 | 0x156CB     |       87755 |
|      40 | 0xFFFF5F95  |  4294926229 |
|      41 | 0x16818     |       92184 |
|      42 | 0xFFFF633B  |  4294927163 |
|      43 | 0x28E9B     |      167579 |
|      44 | 0xFFFFEC61  |  4294962273 |
|      45 | 0x0096      |         150 |
|      46 | 0x004F      |          79 |
|      47 | 0xFFFFFD21  |  4294966561 |
|      48 | 0xCD5B      |       52571 |
|      49 | 0xFFFFF472  |  4294964338 |
|      50 | 0xC585      |       50565 |
|      51 | 0xFFFFE64E  |  4294960718 |
|      52 | 0xAABD      |       43709 |
|      53 | 0xFFFFD9CC  |  4294957516 |
|      54 | 0x9B38      |       39736 |
|      55 | 0xFFFFCCF6  |  4294954230 |
|      56 | 0x9802      |       38914 |
|      57 | 0xFFFF64E4  |  4294927588 |
|      58 | 0x15EE3     |       89827 |
|      59 | 0xFFFF68EB  |  4294928619 |
|      60 | 0x16CEC     |       93420 |
|      61 | 0xFFFF6A76  |  4294929014 |
|      62 | 0x1835B     |       99163 |
|      63 | 0x0019      |          25 |
|      64 | 0xFFFF9D93  |  4294942099 |
|      65 | 0x153C3     |       86979 |
|      66 | 0x004E      |          78 |
|      67 | 0xFFFF7F27  |  4294934311 |
|      68 | 0x170BF     |       94399 |
|      69 | 0xFFFF6EA5  |  4294930085 |
|      70 | 0x181BB     |       98747 |
|      71 | 0xFFFF6986  |  4294928774 |
|      72 | 0x1A277     |      107127 |
|      73 | 0xFFFFE83A  |  4294961210 |
|      74 | 0x79A0      |       31136 |
|      75 | 0xFFFFFC19  |  4294966297 |
|      76 | 0xFFFFE0B0  |  4294959280 |
|      77 | 0x893B      |       35131 |
|      78 | 0xFFFFD29F  |  4294955679 |
|      79 | 0x9856      |       38998 |
|      80 | 0x00B4      |         180 |
|      81 | 0xFFFFF934  |  4294965556 |
|      82 | 0x7B9B      |       31643 |
|      83 | 0xFFFFEFB1  |  4294963121 |
|      84 | 0x9085      |       36997 |
|      85 | 0xFFFFDE20  |  4294958624 |
|      86 | 0xA00A      |       40970 |
|      87 | 0x0168      |         360 |
|      88 | 0x000F      |          15 |
|      89 | 0xFFFF96A6  |  4294940326 |
|      90 | 0xF877      |       63607 |
|      91 | 0xFFFFF254  |  4294963796 |
|      92 | 0xFFFF9B5E  |  4294941534 |
|      93 | 0xF61A      |       63002 |
|      94 | 0xFFFF46D2  |  4294919890 |
|      95 | 0xE60E      |       58894 |
|      96 | 0xFFFF2186  |  4294910342 |
|      97 | 0xD0D7      |       53463 |
|      98 | 0x001B      |          27 |
|      99 | 0xFFFF8952  |  4294936914 |
|     100 | 0x12369     |       74601 |
|     101 | 0xFFFFF20A  |  4294963722 |
|     102 | 0xFFFF2B43  |  4294912835 |
|     103 | 0x10F50     |       69456 |
|     104 | 0xFFFF8D73  |  4294937971 |
|     105 | 0x1266B     |       75371 |
|     106 | 0xFFFFF237  |  4294963767 |
|     107 | 0xFFFF3027  |  4294914087 |
|     108 | 0x113AF     |       70575 |
|     109 | 0xFFFF938A  |  4294939530 |
|     110 | 0x11F80     |       73600 |
|     111 | 0xFFFFF2AA  |  4294963882 |
|     112 | 0xFFFF3332  |  4294914866 |
|     113 | 0x11FA6     |       73638 |
|     114 | 0xFFFF2C4F  |  4294913103 |
|     115 | 0x1196C     |       72044 |
|     116 | 0x002A      |          42 |
|     117 | 0xFFFFA76A  |  4294944618 |
|     118 | 0x13DC9     |       81353 |
|     119 | 0x003C      |          60 |
|     120 | 0x0078      |         120 |
|     121 | 0x0258      |         600 |
|     122 | 0x0005      |           5 |
|     123 | 0x0215      |         533 |
|     124 | 0x012C      |         300 |
|     125 | 0xFFFF11C3  |  4294906307 |
|     126 | 0x1126E     |       70254 |
|     127 | 0x0FFD      |        4093 |
|     128 | 0x0031      |          49 |
|     129 | 0x0508      |        1288 |
|     130 | 0xFFFFEB50  |  4294962000 |
|     131 | 0x3028      |       12328 |
|     132 | 0x00A0      |         160 |
|     133 | 0x0055      |          85 |
|     134 | 0x0007      |           7 |
|     135 | 0xFFFFFECD  |  4294966989 |
|     136 | 0x33C0      |       13248 |
|     137 | 0x0023      |          35 |
|     138 | 0xFFFFFC12  |  4294966290 |
|     139 | 0x3F62      |       16226 |
|     140 | 0x004B      |          75 |
|     141 | 0x00C9      |         201 |
|     142 | 0xFFFFFBDE  |  4294966238 |
|     143 | 0x4419      |       17433 |
|     144 | 0x0408      |        1032 |
|     145 | 0x3D40      |       15680 |
|     146 | 0x09C7      |        2503 |
|     147 | 0x0506      |        1286 |
|     148 | 0x00B5      |         181 |
|     149 | 0x0056      |          86 |
|     150 | 0x0189      |         393 |
|     151 | 0x0BD5      |        3029 |
|     152 | 0x0024      |          36 |
|     153 | 0xFFFFE1FB  |  4294959611 |
|     154 | 0x1E8B      |        7819 |
|     155 | 0xFFFFFBFE  |  4294966270 |

## Events

### Event 65535

#### Metadata

| Field        | Value   |
|--------------|---------|
| Entrypoint   | 0x0000  |
| Data Size    | 1 bytes |
| Instructions | 1       |

```
      00 01 02 03 04 05 06 07  08 09 0A 0B 0C 0D 0E 0F
      -- -- -- -- -- -- -- --  -- -- -- -- -- -- -- --
0000: 00                                                .               
```

#### Opcodes

```
  0: 0x0000 [0x00] END_REQSTACK()
```

### Event 65535.1

#### Metadata

| Field        | Value   |
|--------------|---------|
| Entrypoint   | 0x0001  |
| Data Size    | 1 bytes |
| Instructions | 1       |

```
      00 01 02 03 04 05 06 07  08 09 0A 0B 0C 0D 0E 0F
      -- -- -- -- -- -- -- --  -- -- -- -- -- -- -- --
0000:    00                                              .              
```

#### Opcodes

```
  0: 0x0001 [0x00] END_REQSTACK()
```

### Event 65535.2

#### Metadata

| Field        | Value    |
|--------------|----------|
| Entrypoint   | 0x0002   |
| Data Size    | 18 bytes |
| Instructions | 4        |

```
      00 01 02 03 04 05 06 07  08 09 0A 0B 0C 0D 0E 0F
      -- -- -- -- -- -- -- --  -- -- -- -- -- -- -- --
0000:       22 00 2F 00 F8 FF  FF 7F 6C F8 FF FF 7F 00    "./.....l.....
0010: 80 01 80 00                                       ....            
```

#### Opcodes

```
  0: 0x0002 [0x22] ENTITY_HIDE_FLAG(enabled=0x00)
  1: 0x0004 [0x2F] EventEntity->Render.Flags0 &= ~0x80000 // Bit 19
  2: 0x000A [0x6C] FADE_ENTITY_COLOR(entity_id=EventEntity, end_alpha=0*, fade_time=1*)
  3: 0x0013 [0x00] END_REQSTACK()
```

### Event 65535.3

#### Metadata

| Field        | Value    |
|--------------|----------|
| Entrypoint   | 0x0014   |
| Data Size    | 10 bytes |
| Instructions | 2        |

```
      00 01 02 03 04 05 06 07  08 09 0A 0B 0C 0D 0E 0F
      -- -- -- -- -- -- -- --  -- -- -- -- -- -- -- --
0010:             6C F8 FF FF  7F 02 80 01 80 00            l.........  
```

#### Opcodes

```
  0: 0x0014 [0x6C] FADE_ENTITY_COLOR(entity_id=EventEntity, end_alpha=128*, fade_time=1*)
  1: 0x001D [0x00] END_REQSTACK()
```

### Event 65535.4

#### Metadata

| Field        | Value   |
|--------------|---------|
| Entrypoint   | 0x001E  |
| Data Size    | 9 bytes |
| Instructions | 3       |

```
      00 01 02 03 04 05 06 07  08 09 0A 0B 0C 0D 0E 0F
      -- -- -- -- -- -- -- --  -- -- -- -- -- -- -- --
0010:                                            22 00                ".
0020: 2F 00 F8 FF FF 7F 00                              /......         
```

#### Opcodes

```
  0: 0x001E [0x22] ENTITY_HIDE_FLAG(enabled=0x00)
  1: 0x0020 [0x2F] EventEntity->Render.Flags0 &= ~0x80000 // Bit 19
  2: 0x0026 [0x00] END_REQSTACK()
```

### Event 65535.5

#### Metadata

| Field        | Value   |
|--------------|---------|
| Entrypoint   | 0x0027  |
| Data Size    | 9 bytes |
| Instructions | 3       |

```
      00 01 02 03 04 05 06 07  08 09 0A 0B 0C 0D 0E 0F
      -- -- -- -- -- -- -- --  -- -- -- -- -- -- -- --
0020:                      22  01 2F 01 F8 FF FF 7F 00         "./......
```

#### Opcodes

```
  0: 0x0027 [0x22] ENTITY_HIDE_FLAG(enabled=0x01)
  1: 0x0029 [0x2F] EventEntity->Render.Flags0 |= 0x80000 // Bit 19
  2: 0x002F [0x00] END_REQSTACK()
```

### Event 65535.6

#### Metadata

| Field        | Value    |
|--------------|----------|
| Entrypoint   | 0x0030   |
| Data Size    | 10 bytes |
| Instructions | 2        |

```
      00 01 02 03 04 05 06 07  08 09 0A 0B 0C 0D 0E 0F
      -- -- -- -- -- -- -- --  -- -- -- -- -- -- -- --
0030: 6C F8 FF FF 7F 00 80 01  80 00                    l.........      
```

#### Opcodes

```
  0: 0x0030 [0x6C] FADE_ENTITY_COLOR(entity_id=EventEntity, end_alpha=0*, fade_time=1*)
  1: 0x0039 [0x00] END_REQSTACK()
```

### Event 65535.7

#### Metadata

| Field        | Value    |
|--------------|----------|
| Entrypoint   | 0x003A   |
| Data Size    | 10 bytes |
| Instructions | 2        |

```
      00 01 02 03 04 05 06 07  08 09 0A 0B 0C 0D 0E 0F
      -- -- -- -- -- -- -- --  -- -- -- -- -- -- -- --
0030:                                6C F8 FF FF 7F 02            l.....
0040: 80 01 80 00                                       ....            
```

#### Opcodes

```
  0: 0x003A [0x6C] FADE_ENTITY_COLOR(entity_id=EventEntity, end_alpha=128*, fade_time=1*)
  1: 0x0043 [0x00] END_REQSTACK()
```

### Event 65535.8

#### Metadata

| Field        | Value    |
|--------------|----------|
| Entrypoint   | 0x0044   |
| Data Size    | 15 bytes |
| Instructions | 5        |

```
      00 01 02 03 04 05 06 07  08 09 0A 0B 0C 0D 0E 0F
      -- -- -- -- -- -- -- --  -- -- -- -- -- -- -- --
0040:             32 03 80 1F  00 04 80 05 80 06 80 1F      2...........
0050: 01 6F 00                                          .o.             
```

#### Opcodes

```
  0: 0x0044 [0x32] ExtData[1]->MainSpeed = 40* * 0.1
  1: 0x0047 [0x1F] MOVE_ENTITY: EventEntity moves to X=-23.567*, Z=84.942*, Y=-5.000*
  2: 0x004F [0x1F] MOVE_ENTITY: Update entity position (mode=1)
  3: 0x0051 [0x6F] WAIT_FRAME_DELAY: Yield until WaitTime reaches zero
  4: 0x0052 [0x00] END_REQSTACK()
```

### Event 65535.9

#### Metadata

| Field        | Value    |
|--------------|----------|
| Entrypoint   | 0x0053   |
| Data Size    | 18 bytes |
| Instructions | 6        |

```
      00 01 02 03 04 05 06 07  08 09 0A 0B 0C 0D 0E 0F
      -- -- -- -- -- -- -- --  -- -- -- -- -- -- -- --
0050:          1C 07 80 32 03  80 1F 00 08 80 09 80 0A     ...2.........
0060: 80 1F 01 6F 00                                    ...o.           
```

#### Opcodes

```
  0: 0x0053 [0x1C] WAIT(30* ticks)
  1: 0x0056 [0x32] ExtData[1]->MainSpeed = 40* * 0.1
  2: 0x0059 [0x1F] MOVE_ENTITY: EventEntity moves to X=-29.686*, Z=82.739*, Y=-4.748*
  3: 0x0061 [0x1F] MOVE_ENTITY: Update entity position (mode=1)
  4: 0x0063 [0x6F] WAIT_FRAME_DELAY: Yield until WaitTime reaches zero
  5: 0x0064 [0x00] END_REQSTACK()
```

### Event 65535.10

#### Metadata

| Field        | Value    |
|--------------|----------|
| Entrypoint   | 0x0065   |
| Data Size    | 22 bytes |
| Instructions | 2        |

```
      00 01 02 03 04 05 06 07  08 09 0A 0B 0C 0D 0E 0F
      -- -- -- -- -- -- -- --  -- -- -- -- -- -- -- --
0060:                B6 0E 00  80 0B 80 01 80 00 80 00       ...........
0070: 80 00 80 01 80 80 F8 FF  FF 7F 00                 ...........     
```

#### Opcodes

```
  0: 0x0065 [0xB6] ENTITY_APPEARANCE_HANDLER(case=Look with Render flags, race=0*, face=4*, head=1*, body=0*, hands=0*, render_flags=0x8000)
  1: 0x0073 [0x01] GOTO 0x8080
```

#### Data or dead code:

```
# Dead code (unreachable instructions):
     0x0076 [0xF8] UNKNOWN_0xF8
     0x0077 [0xFF] UNKNOWN_0xFF
     0x0078 [0xFF] UNKNOWN_0xFF
     0x0079 [0x7F] WAIT_DIALOG_SELECT_ALT()
     0x007A [0x00] END_REQSTACK()
```

### Event 65535.11

#### Metadata

| Field        | Value     |
|--------------|-----------|
| Entrypoint   | 0x007B    |
| Data Size    | 167 bytes |
| Instructions | 35        |

```
      00 01 02 03 04 05 06 07  08 09 0A 0B 0C 0D 0E 0F
      -- -- -- -- -- -- -- --  -- -- -- -- -- -- -- --
0070:                                   1C 07 80 59 04             ...Y.
0080: 1D E2 05 01 0C 80 1F 00  0D 80 0E 80 0F 80 1F 01  ................
0090: 1F 00 10 80 11 80 0F 80  1F 01 1F 00 12 80 13 80  ................
00A0: 0F 80 1F 01 1F 00 14 80  15 80 0F 80 1F 01 1F 00  ................
00B0: 16 80 17 80 18 80 1F 01  1F 00 19 80 1A 80 18 80  ................
00C0: 1F 01 1F 00 1B 80 1C 80  18 80 1F 01 1F 00 1D 80  ................
00D0: 1E 80 18 80 1F 01 1F 00  1F 80 20 80 18 80 1F 01  .......... .....
00E0: 1F 00 21 80 22 80 06 80  1F 01 1F 00 23 80 24 80  ..!.".......#.$.
00F0: 25 80 1F 01 1F 00 26 80  27 80 25 80 1F 01 1F 00  %.....&.'.%.....
0100: 28 80 29 80 25 80 1F 01  1F 00 2A 80 2B 80 2C 80  (.).%.....*.+.,.
0110: 1F 01 6F 7E 05 1D E2 05  01 22 01 2F 01 F8 FF FF  ..o~....."./....
0120: 7F 00                                             ..              
```

#### Opcodes

```
  0: 0x007B [0x1C] WAIT(30* ticks)
  1: 0x007E [0x59] UPDATE_ENTITY_DATA: Set 01 (ID: 17162781/0x0105E21D) main speed = 80* * 0.1
  2: 0x0086 [0x1F] MOVE_ENTITY: EventEntity moves to X=0.459*, Z=49.181*, Y=-1.000*
  3: 0x008E [0x1F] MOVE_ENTITY: Update entity position (mode=1)
  4: 0x0090 [0x1F] MOVE_ENTITY: EventEntity moves to X=-2.531*, Z=46.285*, Y=-1.000*
  5: 0x0098 [0x1F] MOVE_ENTITY: Update entity position (mode=1)
  6: 0x009A [0x1F] MOVE_ENTITY: EventEntity moves to X=-7.007*, Z=41.449*, Y=-1.000*
  7: 0x00A2 [0x1F] MOVE_ENTITY: Update entity position (mode=1)
  8: 0x00A4 [0x1F] MOVE_ENTITY: EventEntity moves to X=-13.490*, Z=39.401*, Y=-1.000*
  9: 0x00AC [0x1F] MOVE_ENTITY: Update entity position (mode=1)
 10: 0x00AE [0x1F] MOVE_ENTITY: EventEntity moves to X=-51.141*, Z=38.746*, Y=-3.499*
 11: 0x00B6 [0x1F] MOVE_ENTITY: Update entity position (mode=1)
 12: 0x00B8 [0x1F] MOVE_ENTITY: EventEntity moves to X=-63.152*, Z=42.731*, Y=-3.499*
 13: 0x00C0 [0x1F] MOVE_ENTITY: Update entity position (mode=1)
 14: 0x00C2 [0x1F] MOVE_ENTITY: EventEntity moves to X=-73.075*, Z=51.803*, Y=-3.499*
 15: 0x00CA [0x1F] MOVE_ENTITY: Update entity position (mode=1)
 16: 0x00CC [0x1F] MOVE_ENTITY: EventEntity moves to X=-78.613*, Z=59.364*, Y=-3.499*
 17: 0x00D4 [0x1F] MOVE_ENTITY: Update entity position (mode=1)
 18: 0x00D6 [0x1F] MOVE_ENTITY: EventEntity moves to X=-76.580*, Z=75.410*, Y=-3.499*
 19: 0x00DE [0x1F] MOVE_ENTITY: Update entity position (mode=1)
 20: 0x00E0 [0x1F] MOVE_ENTITY: EventEntity moves to X=-64.004*, Z=81.361*, Y=-5.000*
 21: 0x00E8 [0x1F] MOVE_ENTITY: Update entity position (mode=1)
 22: 0x00EA [0x1F] MOVE_ENTITY: EventEntity moves to X=-49.175*, Z=83.509*, Y=-4.999*
 23: 0x00F2 [0x1F] MOVE_ENTITY: Update entity position (mode=1)
 24: 0x00F4 [0x1F] MOVE_ENTITY: EventEntity moves to X=-42.767*, Z=87.755*, Y=-4.999*
 25: 0x00FC [0x1F] MOVE_ENTITY: Update entity position (mode=1)
 26: 0x00FE [0x1F] MOVE_ENTITY: EventEntity moves to X=-41.067*, Z=92.184*, Y=-4.999*
 27: 0x0106 [0x1F] MOVE_ENTITY: Update entity position (mode=1)
 28: 0x0108 [0x1F] MOVE_ENTITY: EventEntity moves to X=-40.133*, Z=167.579*, Y=-5.023*
 29: 0x0110 [0x1F] MOVE_ENTITY: Update entity position (mode=1)
 30: 0x0112 [0x6F] WAIT_FRAME_DELAY: Yield until WaitTime reaches zero
 31: 0x0113 [0x7E] CHOCOBO_MOUNT: Dismount 01 (ID: 17162781/0x0105E21D) (status = 0)
 32: 0x0119 [0x22] ENTITY_HIDE_FLAG(enabled=0x01)
 33: 0x011B [0x2F] EventEntity->Render.Flags0 |= 0x80000 // Bit 19
 34: 0x0121 [0x00] END_REQSTACK()
```

### Event 65535.12

#### Metadata

| Field        | Value     |
|--------------|-----------|
| Entrypoint   | 0x0122    |
| Data Size    | 186 bytes |
| Instructions | 38        |

```
      00 01 02 03 04 05 06 07  08 09 0A 0B 0C 0D 0E 0F
      -- -- -- -- -- -- -- --  -- -- -- -- -- -- -- --
0120:       1C 2D 80 59 04 1E  E2 05 01 2E 80 1F 00 2F    .-.Y........./
0130: 80 30 80 0F 80 1F 01 1F  00 31 80 32 80 0F 80 1F  .0.......1.2....
0140: 01 1F 00 33 80 34 80 0F  80 1F 01 1F 00 35 80 36  ...3.4.......5.6
0150: 80 0F 80 1F 01 1F 00 37  80 38 80 0F 80 1F 01 1F  .......7.8......
0160: 00 16 80 17 80 18 80 1F  01 1F 00 19 80 1A 80 18  ................
0170: 80 1F 01 1F 00 1B 80 1C  80 18 80 1F 01 1F 00 1D  ................
0180: 80 1E 80 18 80 1F 01 1F  00 1F 80 20 80 18 80 1F  ........... ....
0190: 01 1F 00 21 80 22 80 06  80 1F 01 1F 00 23 80 24  ...!.".......#.$
01A0: 80 25 80 1F 01 1F 00 39  80 3A 80 25 80 1F 01 1F  .%.....9.:.%....
01B0: 00 3B 80 3C 80 25 80 1F  01 1F 00 3D 80 3E 80 25  .;.<.%.....=.>.%
01C0: 80 1F 01 1F 00 2A 80 2B  80 2C 80 1F 01 7E 05 1E  .....*.+.,...~..
01D0: E2 05 01 22 01 2F 01 F8  FF FF 7F 00              ..."./......    
```

#### Opcodes

```
  0: 0x0122 [0x1C] WAIT(150* ticks)
  1: 0x0125 [0x59] UPDATE_ENTITY_DATA: Set 02 (ID: 17162782/0x0105E21E) main speed = 79* * 0.1
  2: 0x012D [0x1F] MOVE_ENTITY: EventEntity moves to X=-0.735*, Z=52.571*, Y=-1.000*
  3: 0x0135 [0x1F] MOVE_ENTITY: Update entity position (mode=1)
  4: 0x0137 [0x1F] MOVE_ENTITY: EventEntity moves to X=-2.958*, Z=50.565*, Y=-1.000*
  5: 0x013F [0x1F] MOVE_ENTITY: Update entity position (mode=1)
  6: 0x0141 [0x1F] MOVE_ENTITY: EventEntity moves to X=-6.578*, Z=43.709*, Y=-1.000*
  7: 0x0149 [0x1F] MOVE_ENTITY: Update entity position (mode=1)
  8: 0x014B [0x1F] MOVE_ENTITY: EventEntity moves to X=-9.780*, Z=39.736*, Y=-1.000*
  9: 0x0153 [0x1F] MOVE_ENTITY: Update entity position (mode=1)
 10: 0x0155 [0x1F] MOVE_ENTITY: EventEntity moves to X=-13.066*, Z=38.914*, Y=-1.000*
 11: 0x015D [0x1F] MOVE_ENTITY: Update entity position (mode=1)
 12: 0x015F [0x1F] MOVE_ENTITY: EventEntity moves to X=-51.141*, Z=38.746*, Y=-3.499*
 13: 0x0167 [0x1F] MOVE_ENTITY: Update entity position (mode=1)
 14: 0x0169 [0x1F] MOVE_ENTITY: EventEntity moves to X=-63.152*, Z=42.731*, Y=-3.499*
 15: 0x0171 [0x1F] MOVE_ENTITY: Update entity position (mode=1)
 16: 0x0173 [0x1F] MOVE_ENTITY: EventEntity moves to X=-73.075*, Z=51.803*, Y=-3.499*
 17: 0x017B [0x1F] MOVE_ENTITY: Update entity position (mode=1)
 18: 0x017D [0x1F] MOVE_ENTITY: EventEntity moves to X=-78.613*, Z=59.364*, Y=-3.499*
 19: 0x0185 [0x1F] MOVE_ENTITY: Update entity position (mode=1)
 20: 0x0187 [0x1F] MOVE_ENTITY: EventEntity moves to X=-76.580*, Z=75.410*, Y=-3.499*
 21: 0x018F [0x1F] MOVE_ENTITY: Update entity position (mode=1)
 22: 0x0191 [0x1F] MOVE_ENTITY: EventEntity moves to X=-64.004*, Z=81.361*, Y=-5.000*
 23: 0x0199 [0x1F] MOVE_ENTITY: Update entity position (mode=1)
 24: 0x019B [0x1F] MOVE_ENTITY: EventEntity moves to X=-49.175*, Z=83.509*, Y=-4.999*
 25: 0x01A3 [0x1F] MOVE_ENTITY: Update entity position (mode=1)
 26: 0x01A5 [0x1F] MOVE_ENTITY: EventEntity moves to X=-39.708*, Z=89.827*, Y=-4.999*
 27: 0x01AD [0x1F] MOVE_ENTITY: Update entity position (mode=1)
 28: 0x01AF [0x1F] MOVE_ENTITY: EventEntity moves to X=-38.677*, Z=93.420*, Y=-4.999*
 29: 0x01B7 [0x1F] MOVE_ENTITY: Update entity position (mode=1)
 30: 0x01B9 [0x1F] MOVE_ENTITY: EventEntity moves to X=-38.282*, Z=99.163*, Y=-4.999*
 31: 0x01C1 [0x1F] MOVE_ENTITY: Update entity position (mode=1)
 32: 0x01C3 [0x1F] MOVE_ENTITY: EventEntity moves to X=-40.133*, Z=167.579*, Y=-5.023*
 33: 0x01CB [0x1F] MOVE_ENTITY: Update entity position (mode=1)
 34: 0x01CD [0x7E] CHOCOBO_MOUNT: Dismount 02 (ID: 17162782/0x0105E21E) (status = 0)
 35: 0x01D3 [0x22] ENTITY_HIDE_FLAG(enabled=0x01)
 36: 0x01D5 [0x2F] EventEntity->Render.Flags0 |= 0x80000 // Bit 19
 37: 0x01DB [0x00] END_REQSTACK()
```

### Event 65535.13

#### Metadata

| Field        | Value    |
|--------------|----------|
| Entrypoint   | 0x01DC   |
| Data Size    | 83 bytes |
| Instructions | 18       |

```
      00 01 02 03 04 05 06 07  08 09 0A 0B 0C 0D 0E 0F
      -- -- -- -- -- -- -- --  -- -- -- -- -- -- -- --
01D0:                                      59 04 25 E2              Y.%.
01E0: 05 01 3F 80 1F 00 40 80  41 80 25 80 1F 01 6F 59  ..?...@.A.%...oY
01F0: 04 F8 FF FF 7F 42 80 1F  00 43 80 44 80 25 80 1F  .....B...C.D.%..
0200: 01 1F 00 45 80 46 80 25  80 1F 01 1F 00 47 80 48  ...E.F.%.....G.H
0210: 80 25 80 1F 01 1F 00 2A  80 2B 80 2C 80 1F 01 6F  .%.....*.+.,...o
0220: 7E 05 25 E2 05 01 22 01  2F 01 F8 FF FF 7F 00     ~.%..."./...... 
```

#### Opcodes

```
  0: 0x01DC [0x59] UPDATE_ENTITY_DATA: Set Unnamed NPC (ID: 17162789/0x0105E225) main speed = 25* * 0.1
  1: 0x01E4 [0x1F] MOVE_ENTITY: EventEntity moves to X=-25.197*, Z=86.979*, Y=-4.999*
  2: 0x01EC [0x1F] MOVE_ENTITY: Update entity position (mode=1)
  3: 0x01EE [0x6F] WAIT_FRAME_DELAY: Yield until WaitTime reaches zero
  4: 0x01EF [0x59] UPDATE_ENTITY_DATA: Set EventEntity main speed = 78* * 0.1
  5: 0x01F7 [0x1F] MOVE_ENTITY: EventEntity moves to X=-32.985*, Z=94.399*, Y=-4.999*
  6: 0x01FF [0x1F] MOVE_ENTITY: Update entity position (mode=1)
  7: 0x0201 [0x1F] MOVE_ENTITY: EventEntity moves to X=-37.211*, Z=98.747*, Y=-4.999*
  8: 0x0209 [0x1F] MOVE_ENTITY: Update entity position (mode=1)
  9: 0x020B [0x1F] MOVE_ENTITY: EventEntity moves to X=-38.522*, Z=107.127*, Y=-4.999*
 10: 0x0213 [0x1F] MOVE_ENTITY: Update entity position (mode=1)
 11: 0x0215 [0x1F] MOVE_ENTITY: EventEntity moves to X=-40.133*, Z=167.579*, Y=-5.023*
 12: 0x021D [0x1F] MOVE_ENTITY: Update entity position (mode=1)
 13: 0x021F [0x6F] WAIT_FRAME_DELAY: Yield until WaitTime reaches zero
 14: 0x0220 [0x7E] CHOCOBO_MOUNT: Dismount Unnamed NPC (ID: 17162789/0x0105E225) (status = 0)
 15: 0x0226 [0x22] ENTITY_HIDE_FLAG(enabled=0x01)
 16: 0x0228 [0x2F] EventEntity->Render.Flags0 |= 0x80000 // Bit 19
 17: 0x022E [0x00] END_REQSTACK()
```

### Event 65535.14

#### Metadata

| Field        | Value     |
|--------------|-----------|
| Entrypoint   | 0x022F    |
| Data Size    | 154 bytes |
| Instructions | 32        |

```
      00 01 02 03 04 05 06 07  08 09 0A 0B 0C 0D 0E 0F
      -- -- -- -- -- -- -- --  -- -- -- -- -- -- -- --
0220:                                               59                 Y
0230: 04 26 E2 05 01 0C 80 1F  00 49 80 4A 80 4B 80 1F  .&.......I.J.K..
0240: 01 1F 00 4C 80 4D 80 4B  80 1F 01 1F 00 4E 80 4F  ...L.M.K.....N.O
0250: 80 4B 80 1F 01 1F 00 16  80 17 80 18 80 1F 01 1F  .K..............
0260: 00 19 80 1A 80 18 80 1F  01 1F 00 1B 80 1C 80 18  ................
0270: 80 1F 01 1F 00 1D 80 1E  80 18 80 1F 01 1F 00 1F  ................
0280: 80 20 80 18 80 1F 01 1F  00 21 80 22 80 06 80 1F  . .......!."....
0290: 01 1F 00 23 80 24 80 25  80 1F 01 1F 00 26 80 27  ...#.$.%.....&.'
02A0: 80 25 80 1F 01 1F 00 28  80 29 80 25 80 1F 01 1F  .%.....(.).%....
02B0: 00 2A 80 2B 80 2C 80 1F  01 6F 7E 05 26 E2 05 01  .*.+.,...o~.&...
02C0: 22 01 2F 01 F8 FF FF 7F  00                       "./......       
```

#### Opcodes

```
  0: 0x022F [0x59] UPDATE_ENTITY_DATA: Set Unnamed NPC (ID: 17162790/0x0105E226) main speed = 80* * 0.1
  1: 0x0237 [0x1F] MOVE_ENTITY: EventEntity moves to X=-6.086*, Z=31.136*, Y=-0.999*
  2: 0x023F [0x1F] MOVE_ENTITY: Update entity position (mode=1)
  3: 0x0241 [0x1F] MOVE_ENTITY: EventEntity moves to X=-8.016*, Z=35.131*, Y=-0.999*
  4: 0x0249 [0x1F] MOVE_ENTITY: Update entity position (mode=1)
  5: 0x024B [0x1F] MOVE_ENTITY: EventEntity moves to X=-11.617*, Z=38.998*, Y=-0.999*
  6: 0x0253 [0x1F] MOVE_ENTITY: Update entity position (mode=1)
  7: 0x0255 [0x1F] MOVE_ENTITY: EventEntity moves to X=-51.141*, Z=38.746*, Y=-3.499*
  8: 0x025D [0x1F] MOVE_ENTITY: Update entity position (mode=1)
  9: 0x025F [0x1F] MOVE_ENTITY: EventEntity moves to X=-63.152*, Z=42.731*, Y=-3.499*
 10: 0x0267 [0x1F] MOVE_ENTITY: Update entity position (mode=1)
 11: 0x0269 [0x1F] MOVE_ENTITY: EventEntity moves to X=-73.075*, Z=51.803*, Y=-3.499*
 12: 0x0271 [0x1F] MOVE_ENTITY: Update entity position (mode=1)
 13: 0x0273 [0x1F] MOVE_ENTITY: EventEntity moves to X=-78.613*, Z=59.364*, Y=-3.499*
 14: 0x027B [0x1F] MOVE_ENTITY: Update entity position (mode=1)
 15: 0x027D [0x1F] MOVE_ENTITY: EventEntity moves to X=-76.580*, Z=75.410*, Y=-3.499*
 16: 0x0285 [0x1F] MOVE_ENTITY: Update entity position (mode=1)
 17: 0x0287 [0x1F] MOVE_ENTITY: EventEntity moves to X=-64.004*, Z=81.361*, Y=-5.000*
 18: 0x028F [0x1F] MOVE_ENTITY: Update entity position (mode=1)
 19: 0x0291 [0x1F] MOVE_ENTITY: EventEntity moves to X=-49.175*, Z=83.509*, Y=-4.999*
 20: 0x0299 [0x1F] MOVE_ENTITY: Update entity position (mode=1)
 21: 0x029B [0x1F] MOVE_ENTITY: EventEntity moves to X=-42.767*, Z=87.755*, Y=-4.999*
 22: 0x02A3 [0x1F] MOVE_ENTITY: Update entity position (mode=1)
 23: 0x02A5 [0x1F] MOVE_ENTITY: EventEntity moves to X=-41.067*, Z=92.184*, Y=-4.999*
 24: 0x02AD [0x1F] MOVE_ENTITY: Update entity position (mode=1)
 25: 0x02AF [0x1F] MOVE_ENTITY: EventEntity moves to X=-40.133*, Z=167.579*, Y=-5.023*
 26: 0x02B7 [0x1F] MOVE_ENTITY: Update entity position (mode=1)
 27: 0x02B9 [0x6F] WAIT_FRAME_DELAY: Yield until WaitTime reaches zero
 28: 0x02BA [0x7E] CHOCOBO_MOUNT: Dismount Unnamed NPC (ID: 17162790/0x0105E226) (status = 0)
 29: 0x02C0 [0x22] ENTITY_HIDE_FLAG(enabled=0x01)
 30: 0x02C2 [0x2F] EventEntity->Render.Flags0 |= 0x80000 // Bit 19
 31: 0x02C8 [0x00] END_REQSTACK()
```

### Event 65535.15

#### Metadata

| Field        | Value     |
|--------------|-----------|
| Entrypoint   | 0x02C9    |
| Data Size    | 167 bytes |
| Instructions | 35        |

```
      00 01 02 03 04 05 06 07  08 09 0A 0B 0C 0D 0E 0F
      -- -- -- -- -- -- -- --  -- -- -- -- -- -- -- --
02C0:                             1C 50 80 59 04 27 E2           .P.Y.'.
02D0: 05 01 42 80 1F 00 51 80  52 80 4B 80 1F 01 1F 00  ..B...Q.R.K.....
02E0: 53 80 54 80 4B 80 1F 01  1F 00 55 80 56 80 4B 80  S.T.K.....U.V.K.
02F0: 1F 01 1F 00 16 80 17 80  18 80 1F 01 1F 00 19 80  ................
0300: 1A 80 18 80 1F 01 1F 00  1B 80 1C 80 18 80 1F 01  ................
0310: 1F 00 1D 80 1E 80 18 80  1F 01 1F 00 1F 80 20 80  .............. .
0320: 18 80 1F 01 1F 00 21 80  22 80 06 80 1F 01 1F 00  ......!.".......
0330: 23 80 24 80 25 80 1F 01  1F 00 39 80 3A 80 25 80  #.$.%.....9.:.%.
0340: 1F 01 1F 00 3B 80 3C 80  25 80 1F 01 1F 00 3D 80  ....;.<.%.....=.
0350: 3E 80 25 80 1F 01 1F 00  2A 80 2B 80 2C 80 1F 01  >.%.....*.+.,...
0360: 6F 7E 05 27 E2 05 01 22  01 2F 01 F8 FF FF 7F 00  o~.'..."./......
```

#### Opcodes

```
  0: 0x02C9 [0x1C] WAIT(180* ticks)
  1: 0x02CC [0x59] UPDATE_ENTITY_DATA: Set Unnamed NPC (ID: 17162791/0x0105E227) main speed = 78* * 0.1
  2: 0x02D4 [0x1F] MOVE_ENTITY: EventEntity moves to X=-1.740*, Z=31.643*, Y=-0.999*
  3: 0x02DC [0x1F] MOVE_ENTITY: Update entity position (mode=1)
  4: 0x02DE [0x1F] MOVE_ENTITY: EventEntity moves to X=-4.175*, Z=36.997*, Y=-0.999*
  5: 0x02E6 [0x1F] MOVE_ENTITY: Update entity position (mode=1)
  6: 0x02E8 [0x1F] MOVE_ENTITY: EventEntity moves to X=-8.672*, Z=40.970*, Y=-0.999*
  7: 0x02F0 [0x1F] MOVE_ENTITY: Update entity position (mode=1)
  8: 0x02F2 [0x1F] MOVE_ENTITY: EventEntity moves to X=-51.141*, Z=38.746*, Y=-3.499*
  9: 0x02FA [0x1F] MOVE_ENTITY: Update entity position (mode=1)
 10: 0x02FC [0x1F] MOVE_ENTITY: EventEntity moves to X=-63.152*, Z=42.731*, Y=-3.499*
 11: 0x0304 [0x1F] MOVE_ENTITY: Update entity position (mode=1)
 12: 0x0306 [0x1F] MOVE_ENTITY: EventEntity moves to X=-73.075*, Z=51.803*, Y=-3.499*
 13: 0x030E [0x1F] MOVE_ENTITY: Update entity position (mode=1)
 14: 0x0310 [0x1F] MOVE_ENTITY: EventEntity moves to X=-78.613*, Z=59.364*, Y=-3.499*
 15: 0x0318 [0x1F] MOVE_ENTITY: Update entity position (mode=1)
 16: 0x031A [0x1F] MOVE_ENTITY: EventEntity moves to X=-76.580*, Z=75.410*, Y=-3.499*
 17: 0x0322 [0x1F] MOVE_ENTITY: Update entity position (mode=1)
 18: 0x0324 [0x1F] MOVE_ENTITY: EventEntity moves to X=-64.004*, Z=81.361*, Y=-5.000*
 19: 0x032C [0x1F] MOVE_ENTITY: Update entity position (mode=1)
 20: 0x032E [0x1F] MOVE_ENTITY: EventEntity moves to X=-49.175*, Z=83.509*, Y=-4.999*
 21: 0x0336 [0x1F] MOVE_ENTITY: Update entity position (mode=1)
 22: 0x0338 [0x1F] MOVE_ENTITY: EventEntity moves to X=-39.708*, Z=89.827*, Y=-4.999*
 23: 0x0340 [0x1F] MOVE_ENTITY: Update entity position (mode=1)
 24: 0x0342 [0x1F] MOVE_ENTITY: EventEntity moves to X=-38.677*, Z=93.420*, Y=-4.999*
 25: 0x034A [0x1F] MOVE_ENTITY: Update entity position (mode=1)
 26: 0x034C [0x1F] MOVE_ENTITY: EventEntity moves to X=-38.282*, Z=99.163*, Y=-4.999*
 27: 0x0354 [0x1F] MOVE_ENTITY: Update entity position (mode=1)
 28: 0x0356 [0x1F] MOVE_ENTITY: EventEntity moves to X=-40.133*, Z=167.579*, Y=-5.023*
 29: 0x035E [0x1F] MOVE_ENTITY: Update entity position (mode=1)
 30: 0x0360 [0x6F] WAIT_FRAME_DELAY: Yield until WaitTime reaches zero
 31: 0x0361 [0x7E] CHOCOBO_MOUNT: Dismount Unnamed NPC (ID: 17162791/0x0105E227) (status = 0)
 32: 0x0367 [0x22] ENTITY_HIDE_FLAG(enabled=0x01)
 33: 0x0369 [0x2F] EventEntity->Render.Flags0 |= 0x80000 // Bit 19
 34: 0x036F [0x00] END_REQSTACK()
```

### Event 65535.16

#### Metadata

| Field        | Value    |
|--------------|----------|
| Entrypoint   | 0x0370   |
| Data Size    | 69 bytes |
| Instructions | 15       |

```
      00 01 02 03 04 05 06 07  08 09 0A 0B 0C 0D 0E 0F
      -- -- -- -- -- -- -- --  -- -- -- -- -- -- -- --
0370: 1C 57 80 59 04 94 E2 05  01 58 80 1F 00 59 80 5A  .W.Y.....X...Y.Z
0380: 80 5B 80 1F 01 1F 00 5C  80 5D 80 5B 80 1F 01 59  .[.....\.].[...Y
0390: 04 F8 FF FF 7F 03 80 1F  00 5E 80 5F 80 5B 80 1F  .........^._.[..
03A0: 01 1F 00 60 80 61 80 18  80 1F 01 6F 22 01 2F 01  ...`.a.....o"./.
03B0: F8 FF FF 7F 00                                    .....           
```

#### Opcodes

```
  0: 0x0370 [0x1C] WAIT(360* ticks)
  1: 0x0373 [0x59] UPDATE_ENTITY_DATA: Set 02 (ID: 17162900/0x0105E294) main speed = 15* * 0.1
  2: 0x037B [0x1F] MOVE_ENTITY: EventEntity moves to X=-26.970*, Z=63.607*, Y=-3.500*
  3: 0x0383 [0x1F] MOVE_ENTITY: Update entity position (mode=1)
  4: 0x0385 [0x1F] MOVE_ENTITY: EventEntity moves to X=-25.762*, Z=63.002*, Y=-3.500*
  5: 0x038D [0x1F] MOVE_ENTITY: Update entity position (mode=1)
  6: 0x038F [0x59] UPDATE_ENTITY_DATA: Set EventEntity main speed = 40* * 0.1
  7: 0x0397 [0x1F] MOVE_ENTITY: EventEntity moves to X=-47.406*, Z=58.894*, Y=-3.500*
  8: 0x039F [0x1F] MOVE_ENTITY: Update entity position (mode=1)
  9: 0x03A1 [0x1F] MOVE_ENTITY: EventEntity moves to X=-56.954*, Z=53.463*, Y=-3.499*
 10: 0x03A9 [0x1F] MOVE_ENTITY: Update entity position (mode=1)
 11: 0x03AB [0x6F] WAIT_FRAME_DELAY: Yield until WaitTime reaches zero
 12: 0x03AC [0x22] ENTITY_HIDE_FLAG(enabled=0x01)
 13: 0x03AE [0x2F] EventEntity->Render.Flags0 |= 0x80000 // Bit 19
 14: 0x03B4 [0x00] END_REQSTACK()
```

### Event 65535.17

#### Metadata

| Field        | Value    |
|--------------|----------|
| Entrypoint   | 0x03B5   |
| Data Size    | 38 bytes |
| Instructions | 9        |

```
      00 01 02 03 04 05 06 07  08 09 0A 0B 0C 0D 0E 0F
      -- -- -- -- -- -- -- --  -- -- -- -- -- -- -- --
03B0:                59 04 F8  FF FF 7F 62 80 1F 00 63       Y.....b...c
03C0: 80 64 80 65 80 1F 01 1F  00 66 80 67 80 5B 80 1F  .d.e.....f.g.[..
03D0: 01 6F 22 01 2F 01 F8 FF  FF 7F 00                 .o"./......     
```

#### Opcodes

```
  0: 0x03B5 [0x59] UPDATE_ENTITY_DATA: Set EventEntity main speed = 27* * 0.1
  1: 0x03BD [0x1F] MOVE_ENTITY: EventEntity moves to X=-30.382*, Z=74.601*, Y=-3.574*
  2: 0x03C5 [0x1F] MOVE_ENTITY: Update entity position (mode=1)
  3: 0x03C7 [0x1F] MOVE_ENTITY: EventEntity moves to X=-54.461*, Z=69.456*, Y=-3.500*
  4: 0x03CF [0x1F] MOVE_ENTITY: Update entity position (mode=1)
  5: 0x03D1 [0x6F] WAIT_FRAME_DELAY: Yield until WaitTime reaches zero
  6: 0x03D2 [0x22] ENTITY_HIDE_FLAG(enabled=0x01)
  7: 0x03D4 [0x2F] EventEntity->Render.Flags0 |= 0x80000 // Bit 19
  8: 0x03DA [0x00] END_REQSTACK()
```

### Event 65535.18

#### Metadata

| Field        | Value    |
|--------------|----------|
| Entrypoint   | 0x03DB   |
| Data Size    | 38 bytes |
| Instructions | 9        |

```
      00 01 02 03 04 05 06 07  08 09 0A 0B 0C 0D 0E 0F
      -- -- -- -- -- -- -- --  -- -- -- -- -- -- -- --
03D0:                                   59 04 F8 FF FF             Y....
03E0: 7F 62 80 1F 00 68 80 69  80 6A 80 1F 01 1F 00 6B  .b...h.i.j.....k
03F0: 80 6C 80 5B 80 1F 01 6F  22 01 2F 01 F8 FF FF 7F  .l.[...o"./.....
0400: 00                                                .               
```

#### Opcodes

```
  0: 0x03DB [0x59] UPDATE_ENTITY_DATA: Set EventEntity main speed = 27* * 0.1
  1: 0x03E3 [0x1F] MOVE_ENTITY: EventEntity moves to X=-29.325*, Z=75.371*, Y=-3.529*
  2: 0x03EB [0x1F] MOVE_ENTITY: Update entity position (mode=1)
  3: 0x03ED [0x1F] MOVE_ENTITY: EventEntity moves to X=-53.209*, Z=70.575*, Y=-3.500*
  4: 0x03F5 [0x1F] MOVE_ENTITY: Update entity position (mode=1)
  5: 0x03F7 [0x6F] WAIT_FRAME_DELAY: Yield until WaitTime reaches zero
  6: 0x03F8 [0x22] ENTITY_HIDE_FLAG(enabled=0x01)
  7: 0x03FA [0x2F] EventEntity->Render.Flags0 |= 0x80000 // Bit 19
  8: 0x0400 [0x00] END_REQSTACK()
```

### Event 65535.19

#### Metadata

| Field        | Value    |
|--------------|----------|
| Entrypoint   | 0x0401   |
| Data Size    | 48 bytes |
| Instructions | 11       |

```
      00 01 02 03 04 05 06 07  08 09 0A 0B 0C 0D 0E 0F
      -- -- -- -- -- -- -- --  -- -- -- -- -- -- -- --
0400:    59 04 F8 FF FF 7F 62  80 1F 00 6D 80 6E 80 6F   Y.....b...m.n.o
0410: 80 1F 01 1F 00 70 80 71  80 5B 80 1F 01 1F 00 72  .....p.q.[.....r
0420: 80 73 80 5B 80 1F 01 6F  22 01 2F 01 F8 FF FF 7F  .s.[...o"./.....
0430: 00                                                .               
```

#### Opcodes

```
  0: 0x0401 [0x59] UPDATE_ENTITY_DATA: Set EventEntity main speed = 27* * 0.1
  1: 0x0409 [0x1F] MOVE_ENTITY: EventEntity moves to X=-27.766*, Z=73.600*, Y=-3.414*
  2: 0x0411 [0x1F] MOVE_ENTITY: Update entity position (mode=1)
  3: 0x0413 [0x1F] MOVE_ENTITY: EventEntity moves to X=-52.430*, Z=73.638*, Y=-3.500*
  4: 0x041B [0x1F] MOVE_ENTITY: Update entity position (mode=1)
  5: 0x041D [0x1F] MOVE_ENTITY: EventEntity moves to X=-54.193*, Z=72.044*, Y=-3.500*
  6: 0x0425 [0x1F] MOVE_ENTITY: Update entity position (mode=1)
  7: 0x0427 [0x6F] WAIT_FRAME_DELAY: Yield until WaitTime reaches zero
  8: 0x0428 [0x22] ENTITY_HIDE_FLAG(enabled=0x01)
  9: 0x042A [0x2F] EventEntity->Render.Flags0 |= 0x80000 // Bit 19
 10: 0x0430 [0x00] END_REQSTACK()
```

### Event 65535.20

#### Metadata

| Field        | Value    |
|--------------|----------|
| Entrypoint   | 0x0431   |
| Data Size    | 19 bytes |
| Instructions | 4        |

```
      00 01 02 03 04 05 06 07  08 09 0A 0B 0C 0D 0E 0F
      -- -- -- -- -- -- -- --  -- -- -- -- -- -- -- --
0430:    59 04 F8 FF FF 7F 74  80 1F 00 75 80 76 80 06   Y.....t...u.v..
0440: 80 1F 01 00                                       ....            
```

#### Opcodes

```
  0: 0x0431 [0x59] UPDATE_ENTITY_DATA: Set EventEntity main speed = 42* * 0.1
  1: 0x0439 [0x1F] MOVE_ENTITY: EventEntity moves to X=-22.678*, Z=81.353*, Y=-5.000*
  2: 0x0441 [0x1F] MOVE_ENTITY: Update entity position (mode=1)
  3: 0x0443 [0x00] END_REQSTACK()
```

### Event 65535.21

#### Metadata

| Field        | Value    |
|--------------|----------|
| Entrypoint   | 0x0444   |
| Data Size    | 22 bytes |
| Instructions | 5        |

```
      00 01 02 03 04 05 06 07  08 09 0A 0B 0C 0D 0E 0F
      -- -- -- -- -- -- -- --  -- -- -- -- -- -- -- --
0440:             59 04 F8 FF  FF 7F 74 80 1C 77 80 1F      Y.....t..w..
0450: 00 75 80 76 80 06 80 1F  01 00                    .u.v......      
```

#### Opcodes

```
  0: 0x0444 [0x59] UPDATE_ENTITY_DATA: Set EventEntity main speed = 42* * 0.1
  1: 0x044C [0x1C] WAIT(60* ticks)
  2: 0x044F [0x1F] MOVE_ENTITY: EventEntity moves to X=-22.678*, Z=81.353*, Y=-5.000*
  3: 0x0457 [0x1F] MOVE_ENTITY: Update entity position (mode=1)
  4: 0x0459 [0x00] END_REQSTACK()
```

### Event 65535.22

#### Metadata

| Field        | Value    |
|--------------|----------|
| Entrypoint   | 0x045A   |
| Data Size    | 22 bytes |
| Instructions | 5        |

```
      00 01 02 03 04 05 06 07  08 09 0A 0B 0C 0D 0E 0F
      -- -- -- -- -- -- -- --  -- -- -- -- -- -- -- --
0450:                                59 04 F8 FF FF 7F            Y.....
0460: 74 80 1C 78 80 1F 00 75  80 76 80 06 80 1F 01 00  t..x...u.v......
```

#### Opcodes

```
  0: 0x045A [0x59] UPDATE_ENTITY_DATA: Set EventEntity main speed = 42* * 0.1
  1: 0x0462 [0x1C] WAIT(120* ticks)
  2: 0x0465 [0x1F] MOVE_ENTITY: EventEntity moves to X=-22.678*, Z=81.353*, Y=-5.000*
  3: 0x046D [0x1F] MOVE_ENTITY: Update entity position (mode=1)
  4: 0x046F [0x00] END_REQSTACK()
```

### Event 65535.23

#### Metadata

| Field        | Value    |
|--------------|----------|
| Entrypoint   | 0x0470   |
| Data Size    | 13 bytes |
| Instructions | 5        |

```
      00 01 02 03 04 05 06 07  08 09 0A 0B 0C 0D 0E 0F
      -- -- -- -- -- -- -- --  -- -- -- -- -- -- -- --
0470: 06 08 10 1C 79 80 1C 7A  80 05 08 10 00           ....y..z.....   
```

#### Opcodes

```
  0: 0x0470 [0x06] Work_Zone[8] = 0
  1: 0x0473 [0x1C] WAIT(600* ticks)
  2: 0x0476 [0x1C] WAIT(5* ticks)
  3: 0x0479 [0x05] Work_Zone[8] = 1
  4: 0x047C [0x00] END_REQSTACK()
```

### Event 65535.24

#### Metadata

| Field        | Value     |
|--------------|-----------|
| Entrypoint   | 0x047D    |
| Data Size    | 221 bytes |
| Instructions | 26        |

```
      00 01 02 03 04 05 06 07  08 09 0A 0B 0C 0D 0E 0F
      -- -- -- -- -- -- -- --  -- -- -- -- -- -- -- --
0470:                                         06 09 10               ...
0480: 1C 2D 80 52 7B 80 F0 FF  FF 7F F0 FF FF 7F 79 30  .-.R{.........y0
0490: 34 32 45 7B 80 1E E2 05  01 1E E2 05 01 79 30 34  42E{.........y04
04A0: 35 00 80 1C 7C 80 52 7B  80 1E E2 05 01 1E E2 05  5...|.R{........
04B0: 01 79 30 34 35 45 7B 80  F0 FF FF 7F F0 FF FF 7F  .y045E{.........
04C0: 79 30 35 32 00 80 27 10  93 E2 05 01 0C 27 10 95  y052..'......'..
04D0: E2 05 01 0C BA 44 E2 05  01 7D 80 7E 80 18 80 7F  .....D...}.~....
04E0: 80 BA 45 E2 05 01 7D 80  7E 80 18 80 7F 80 BA 46  ..E...}.~......F
04F0: E2 05 01 7D 80 7E 80 18  80 7F 80 29 10 23 E2 05  ...}.~.....).#..
0500: 01 02 29 10 24 E2 05 01  02 79 00 28 E2 05 01 20  ..).$....y.(... 
0510: E2 05 01 66 80 80 28 E2  05 01 28 E2 05 01 74 6C  ...f..(...(...tl
0520: 6B 30 27 10 FE E2 05 01  0F 27 10 FF E2 05 01 10  k0'......'......
0530: 27 10 00 E3 05 01 11 1C  7A 80 27 10 44 E2 05 01  '.......z.'.D...
0540: 13 27 10 45 E2 05 01 15  27 10 46 E2 05 01 16 27  .'.E....'.F....'
0550: 10 11 E3 05 01 12 05 09  10 00                    ..........      
```

#### Opcodes

```
  0: 0x047D [0x06] Work_Zone[9] = 0
  1: 0x0480 [0x1C] WAIT(150* ticks)
  2: 0x0483 [0x52] END_LOAD_SCHEDULER: End scheduler "y042" with entities [LocalPlayer, LocalPlayer], work=533*
  3: 0x0492 [0x45] LOAD_SCHEDULED_TASK: Load scheduler "y045" with entities [02 (ID: 17162782/0x0105E21E), 02 (ID: 17162782/0x0105E21E)], work=[533*, 0*]
  4: 0x04A3 [0x1C] WAIT(300* ticks)
  5: 0x04A6 [0x52] END_LOAD_SCHEDULER: End scheduler "y045" with entities [02 (ID: 17162782/0x0105E21E), 02 (ID: 17162782/0x0105E21E)], work=533*
  6: 0x04B5 [0x45] LOAD_SCHEDULED_TASK: Load scheduler "y052" with entities [LocalPlayer, LocalPlayer], work=[533*, 0*]
  7: 0x04C6 [0x27] REQ_SET(priority=0x10, entity_id=01 (ID: 17162899/0x0105E293), tag_num=0x0C)
  8: 0x04CD [0x27] REQ_SET(priority=0x10, entity_id=02 (ID: 17162901/0x0105E295), tag_num=0x0C)
  9: 0x04D4 [0xBA] SET_ENTITY_POSITION(entity_id=02 (ID: 17162820/0x0105E244), pos_x=-60.989*, pos_z=70.254*, pos_y=-3.499*, direction=359.7°*)
 10: 0x04E1 [0xBA] SET_ENTITY_POSITION(entity_id=03 (ID: 17162821/0x0105E245), pos_x=-60.989*, pos_z=70.254*, pos_y=-3.499*, direction=359.7°*)
 11: 0x04EE [0xBA] SET_ENTITY_POSITION(entity_id=04 (ID: 17162822/0x0105E246), pos_x=-60.989*, pos_z=70.254*, pos_y=-3.499*, direction=359.7°*)
 12: 0x04FB [0x29] REQ_SET_WAIT(priority=0x10, entity_id=07 (ID: 17162787/0x0105E223), tag_num=0x02)
 13: 0x0502 [0x29] REQ_SET_WAIT(priority=0x10, entity_id=Unnamed NPC (ID: 17162788/0x0105E224), tag_num=0x02)
 14: 0x0509 [0x79] Unnamed NPC (ID: 17162792/0x0105E228) looks at 04 (ID: 17162784/0x0105E220) (Basic look)
 15: 0x0513 [0x66] LOAD_EXT_SCHEDULER_MAIN: Load scheduler "tlk0" with entities [Unnamed NPC (ID: 17162792/0x0105E228), Unnamed NPC (ID: 17162792/0x0105E228)], work=49*
 16: 0x0522 [0x27] REQ_SET(priority=0x10, entity_id=01 (ID: 17163006/0x0105E2FE), tag_num=0x0F)
 17: 0x0529 [0x27] REQ_SET(priority=0x10, entity_id=02 (ID: 17163007/0x0105E2FF), tag_num=0x10)
 18: 0x0530 [0x27] REQ_SET(priority=0x10, entity_id=03 (ID: 17163008/0x0105E300), tag_num=0x11)
 19: 0x0537 [0x1C] WAIT(5* ticks)
 20: 0x053A [0x27] REQ_SET(priority=0x10, entity_id=02 (ID: 17162820/0x0105E244), tag_num=0x13)
 21: 0x0541 [0x27] REQ_SET(priority=0x10, entity_id=03 (ID: 17162821/0x0105E245), tag_num=0x15)
 22: 0x0548 [0x27] REQ_SET(priority=0x10, entity_id=04 (ID: 17162822/0x0105E246), tag_num=0x16)
 23: 0x054F [0x27] REQ_SET(priority=0x10, entity_id=Unnamed NPC (ID: 17163025/0x0105E311), tag_num=0x12)
 24: 0x0556 [0x05] Work_Zone[9] = 1
 25: 0x0559 [0x00] END_REQSTACK()
```

### Event 65535.25

#### Metadata

| Field        | Value    |
|--------------|----------|
| Entrypoint   | 0x055A   |
| Data Size    | 76 bytes |
| Instructions | 8        |

```
      00 01 02 03 04 05 06 07  08 09 0A 0B 0C 0D 0E 0F
      -- -- -- -- -- -- -- --  -- -- -- -- -- -- -- --
0550:                                06 08 10 55 7B 80            ...U{.
0560: F0 FF FF 7F F0 FF FF 7F  79 30 35 32 52 7B 80 F0  ........y052R{..
0570: FF FF 7F F0 FF FF 7F 79  30 35 32 27 10 1F E2 05  .......y052'....
0580: 01 09 45 7B 80 F0 FF FF  7F F0 FF FF 7F 79 30 35  ..E{.........y05
0590: 34 00 80 05 08 10 55 7B  80 F0 FF FF 7F F0 FF FF  4.....U{........
05A0: 7F 79 30 35 34 00                                 .y054.          
```

#### Opcodes

```
  0: 0x055A [0x06] Work_Zone[8] = 0
  1: 0x055D [0x55] WAIT_LOAD_SCHEDULER: Wait for scheduler "y052" with entities [LocalPlayer, LocalPlayer], work=533*
  2: 0x056C [0x52] END_LOAD_SCHEDULER: End scheduler "y052" with entities [LocalPlayer, LocalPlayer], work=533*
  3: 0x057B [0x27] REQ_SET(priority=0x10, entity_id=03 (ID: 17162783/0x0105E21F), tag_num=0x09)
  4: 0x0582 [0x45] LOAD_SCHEDULED_TASK: Load scheduler "y054" with entities [LocalPlayer, LocalPlayer], work=[533*, 0*]
  5: 0x0593 [0x05] Work_Zone[8] = 1
  6: 0x0596 [0x55] WAIT_LOAD_SCHEDULER: Wait for scheduler "y054" with entities [LocalPlayer, LocalPlayer], work=533*
  7: 0x05A5 [0x00] END_REQSTACK()
```

### Event 65535.26

#### Metadata

| Field        | Value    |
|--------------|----------|
| Entrypoint   | 0x05A6   |
| Data Size    | 49 bytes |
| Instructions | 5        |

```
      00 01 02 03 04 05 06 07  08 09 0A 0B 0C 0D 0E 0F
      -- -- -- -- -- -- -- --  -- -- -- -- -- -- -- --
05A0:                   7B 06  E2 05 01 5B 81 80 06 E2        {....[....
05B0: 05 01 06 E2 05 01 6B 75  69 30 53 06 E2 05 01 06  ......kui0S.....
05C0: E2 05 01 6B 75 69 30 5B  81 80 06 E2 05 01 06 E2  ...kui0[........
05D0: 05 01 65 68 6E 30 00                              ..ehn0.         
```

#### Opcodes

```
  0: 0x05A6 [0x7B] Ajido-Marujido (ID: 17162758/0x0105E206) stops talking
  1: 0x05AB [0x5B] LOAD_EXT_SCHEDULER: Load scheduler "kui0" with entities [Ajido-Marujido (ID: 17162758/0x0105E206), Ajido-Marujido (ID: 17162758/0x0105E206)], work=1288*
  2: 0x05BA [0x53] WAIT_SCHEDULER_TASK: Wait for scheduler "kui0" with entities [Ajido-Marujido (ID: 17162758/0x0105E206), Ajido-Marujido (ID: 17162758/0x0105E206)]
  3: 0x05C7 [0x5B] LOAD_EXT_SCHEDULER: Load scheduler "ehn0" with entities [Ajido-Marujido (ID: 17162758/0x0105E206), Ajido-Marujido (ID: 17162758/0x0105E206)], work=1288*
  4: 0x05D6 [0x00] END_REQSTACK()
```

### Event 65535.27

#### Metadata

| Field        | Value    |
|--------------|----------|
| Entrypoint   | 0x05D7   |
| Data Size    | 29 bytes |
| Instructions | 6        |

```
      00 01 02 03 04 05 06 07  08 09 0A 0B 0C 0D 0E 0F
      -- -- -- -- -- -- -- --  -- -- -- -- -- -- -- --
05D0:                      59  04 F8 FF FF 7F 03 80 1F         Y........
05E0: 00 82 80 83 80 0F 80 1F  01 6F 4A 43 E2 05 01 06  .........oJC....
05F0: E2 05 01 00                                       ....            
```

#### Opcodes

```
  0: 0x05D7 [0x59] UPDATE_ENTITY_DATA: Set EventEntity main speed = 40* * 0.1
  1: 0x05DF [0x1F] MOVE_ENTITY: EventEntity moves to X=-5.296*, Z=12.328*, Y=-1.000*
  2: 0x05E7 [0x1F] MOVE_ENTITY: Update entity position (mode=1)
  3: 0x05E9 [0x6F] WAIT_FRAME_DELAY: Yield until WaitTime reaches zero
  4: 0x05EA [0x4A] 01 (ID: 17162819/0x0105E243) looks at Ajido-Marujido (ID: 17162758/0x0105E206)
  5: 0x05F3 [0x00] END_REQSTACK()
```

### Event 65535.28

#### Metadata

| Field        | Value    |
|--------------|----------|
| Entrypoint   | 0x05F4   |
| Data Size    | 49 bytes |
| Instructions | 7        |

```
      00 01 02 03 04 05 06 07  08 09 0A 0B 0C 0D 0E 0F
      -- -- -- -- -- -- -- --  -- -- -- -- -- -- -- --
05F0:             1C 84 80 5B  81 80 06 E2 05 01 06 E2      ...[........
0600: 05 01 65 68 6E 31 4A 06  E2 05 01 43 E2 05 01 6F  ..ehn1J....C...o
0610: 76 06 E2 05 01 5B 85 80  06 E2 05 01 06 E2 05 01  v....[..........
0620: 73 75 72 30 00                                    sur0.           
```

#### Opcodes

```
  0: 0x05F4 [0x1C] WAIT(160* ticks)
  1: 0x05F7 [0x5B] LOAD_EXT_SCHEDULER: Load scheduler "ehn1" with entities [Ajido-Marujido (ID: 17162758/0x0105E206), Ajido-Marujido (ID: 17162758/0x0105E206)], work=1288*
  2: 0x0606 [0x4A] Ajido-Marujido (ID: 17162758/0x0105E206) looks at 01 (ID: 17162819/0x0105E243)
  3: 0x060F [0x6F] WAIT_FRAME_DELAY: Yield until WaitTime reaches zero
  4: 0x0610 [0x76] CHECK_ENTITY_RENDER_FLAGS: Wait until Ajido-Marujido (ID: 17162758/0x0105E206) Render.Flags0 and Render.Flags3 conditions are met
  5: 0x0615 [0x5B] LOAD_EXT_SCHEDULER: Load scheduler "sur0" with entities [Ajido-Marujido (ID: 17162758/0x0105E206), Ajido-Marujido (ID: 17162758/0x0105E206)], work=85*
  6: 0x0624 [0x00] END_REQSTACK()
```

### Event 65535.29

#### Metadata

| Field        | Value    |
|--------------|----------|
| Entrypoint   | 0x0625   |
| Data Size    | 20 bytes |
| Instructions | 5        |

```
      00 01 02 03 04 05 06 07  08 09 0A 0B 0C 0D 0E 0F
      -- -- -- -- -- -- -- --  -- -- -- -- -- -- -- --
0620:                59 04 F8  FF FF 7F 86 80 1F 00 87       Y..........
0630: 80 88 80 0F 80 1F 01 6F  00                       .......o.       
```

#### Opcodes

```
  0: 0x0625 [0x59] UPDATE_ENTITY_DATA: Set EventEntity main speed = 7* * 0.1
  1: 0x062D [0x1F] MOVE_ENTITY: EventEntity moves to X=-0.307*, Z=13.248*, Y=-1.000*
  2: 0x0635 [0x1F] MOVE_ENTITY: Update entity position (mode=1)
  3: 0x0637 [0x6F] WAIT_FRAME_DELAY: Yield until WaitTime reaches zero
  4: 0x0638 [0x00] END_REQSTACK()
```

### Event 65535.30

#### Metadata

| Field        | Value    |
|--------------|----------|
| Entrypoint   | 0x0639   |
| Data Size    | 47 bytes |
| Instructions | 6        |

```
      00 01 02 03 04 05 06 07  08 09 0A 0B 0C 0D 0E 0F
      -- -- -- -- -- -- -- --  -- -- -- -- -- -- -- --
0630:                             5B 85 80 06 E2 05 01           [......
0640: 06 E2 05 01 73 75 72 30  53 06 E2 05 01 06 E2 05  ....sur0S.......
0650: 01 73 75 72 30 59 04 F8  FF FF 7F 89 80 1F 00 8A  .sur0Y..........
0660: 80 8B 80 4B 80 1F 01 00                           ...K....        
```

#### Opcodes

```
  0: 0x0639 [0x5B] LOAD_EXT_SCHEDULER: Load scheduler "sur0" with entities [Ajido-Marujido (ID: 17162758/0x0105E206), Ajido-Marujido (ID: 17162758/0x0105E206)], work=85*
  1: 0x0648 [0x53] WAIT_SCHEDULER_TASK: Wait for scheduler "sur0" with entities [Ajido-Marujido (ID: 17162758/0x0105E206), Ajido-Marujido (ID: 17162758/0x0105E206)]
  2: 0x0655 [0x59] UPDATE_ENTITY_DATA: Set EventEntity main speed = 35* * 0.1
  3: 0x065D [0x1F] MOVE_ENTITY: EventEntity moves to X=-1.006*, Z=16.226*, Y=-0.999*
  4: 0x0665 [0x1F] MOVE_ENTITY: Update entity position (mode=1)
  5: 0x0667 [0x00] END_REQSTACK()
```

### Event 65535.31

#### Metadata

| Field        | Value    |
|--------------|----------|
| Entrypoint   | 0x0668   |
| Data Size    | 21 bytes |
| Instructions | 3        |

```
      00 01 02 03 04 05 06 07  08 09 0A 0B 0C 0D 0E 0F
      -- -- -- -- -- -- -- --  -- -- -- -- -- -- -- --
0660:                          1C 8C 80 45 8D 80 F0 FF          ...E....
0670: FF 7F F0 FF FF 7F 62 6C  6F 6E 00 80 00           ......blon...   
```

#### Opcodes

```
  0: 0x0668 [0x1C] WAIT(75* ticks)
  1: 0x066B [0x45] LOAD_SCHEDULED_TASK: Load scheduler "blon" with entities [LocalPlayer, LocalPlayer], work=[201*, 0*]
  2: 0x067C [0x00] END_REQSTACK()
```

### Event 65535.32

#### Metadata

| Field        | Value     |
|--------------|-----------|
| Entrypoint   | 0x067D    |
| Data Size    | 161 bytes |
| Instructions | 17        |

```
      00 01 02 03 04 05 06 07  08 09 0A 0B 0C 0D 0E 0F
      -- -- -- -- -- -- -- --  -- -- -- -- -- -- -- --
0670:                                         59 04 F8               Y..
0680: FF FF 7F 89 80 1F 00 8E  80 8F 80 0F 80 1F 01 6F  ...............o
0690: BA F0 FF FF 7F 90 80 91  80 4B 80 92 80 1C 7A 80  .........K....z.
06A0: 5B 93 80 06 E2 05 01 06  E2 05 01 61 75 70 30 53  [..........aup0S
06B0: 06 E2 05 01 06 E2 05 01  61 75 70 30 50 06 E2 05  ........aup0P...
06C0: 01 06 E2 05 01 61 75 70  30 5B 94 80 43 E2 05 01  .....aup0[..C...
06D0: 43 E2 05 01 6A 74 30 30  5B 95 80 06 E2 05 01 06  C...jt00[.......
06E0: E2 05 01 6A 74 30 30 55  96 80 F0 FF FF 7F F0 FF  ...jt00U........
06F0: FF 7F 79 31 32 31 27 10  43 E2 05 01 03 BA 06 E2  ..y121'.C.......
0700: 05 01 8E 80 8F 80 0F 80  97 80 4A FF E1 05 01 06  ..........J.....
0710: E2 05 01 79 00 FF E1 05  01 06 E2 05 01 00        ...y..........  
```

#### Opcodes

```
  0: 0x067D [0x59] UPDATE_ENTITY_DATA: Set EventEntity main speed = 35* * 0.1
  1: 0x0685 [0x1F] MOVE_ENTITY: EventEntity moves to X=-1.058*, Z=17.433*, Y=-1.000*
  2: 0x068D [0x1F] MOVE_ENTITY: Update entity position (mode=1)
  3: 0x068F [0x6F] WAIT_FRAME_DELAY: Yield until WaitTime reaches zero
  4: 0x0690 [0xBA] SET_ENTITY_POSITION(entity_id=LocalPlayer, pos_x=1.032*, pos_z=15.680*, pos_y=-0.999*, direction=220.0°*)
  5: 0x069D [0x1C] WAIT(5* ticks)
  6: 0x06A0 [0x5B] LOAD_EXT_SCHEDULER: Load scheduler "aup0" with entities [Ajido-Marujido (ID: 17162758/0x0105E206), Ajido-Marujido (ID: 17162758/0x0105E206)], work=1286*
  7: 0x06AF [0x53] WAIT_SCHEDULER_TASK: Wait for scheduler "aup0" with entities [Ajido-Marujido (ID: 17162758/0x0105E206), Ajido-Marujido (ID: 17162758/0x0105E206)]
  8: 0x06BC [0x50] END_SCHEDULER_TASK: End scheduler "au" with entities [0xE206, 0xE206], work=[261, 261]
  9: 0x06C9 [0x5B] LOAD_EXT_SCHEDULER: Load scheduler "jt00" with entities [01 (ID: 17162819/0x0105E243), 01 (ID: 17162819/0x0105E243)], work=181*
 10: 0x06D8 [0x5B] LOAD_EXT_SCHEDULER: Load scheduler "jt00" with entities [Ajido-Marujido (ID: 17162758/0x0105E206), Ajido-Marujido (ID: 17162758/0x0105E206)], work=86*
 11: 0x06E7 [0x55] WAIT_LOAD_SCHEDULER: Wait for scheduler "y121" with entities [LocalPlayer, LocalPlayer], work=393*
 12: 0x06F6 [0x27] REQ_SET(priority=0x10, entity_id=01 (ID: 17162819/0x0105E243), tag_num=0x03)
 13: 0x06FD [0xBA] SET_ENTITY_POSITION(entity_id=Ajido-Marujido (ID: 17162758/0x0105E206), pos_x=-1.058*, pos_z=17.433*, pos_y=-1.000*, direction=266.2°*)
 14: 0x070A [0x4A] Dhea Prandoleh (ID: 17162751/0x0105E1FF) looks at Ajido-Marujido (ID: 17162758/0x0105E206)
 15: 0x0713 [0x79] Dhea Prandoleh (ID: 17162751/0x0105E1FF) looks at Ajido-Marujido (ID: 17162758/0x0105E206) (Basic look)
 16: 0x071D [0x00] END_REQSTACK()
```

### Event 65535.33

#### Metadata

| Field        | Value    |
|--------------|----------|
| Entrypoint   | 0x071E   |
| Data Size    | 20 bytes |
| Instructions | 5        |

```
      00 01 02 03 04 05 06 07  08 09 0A 0B 0C 0D 0E 0F
      -- -- -- -- -- -- -- --  -- -- -- -- -- -- -- --
0710:                                            59 04                Y.
0720: F8 FF FF 7F 98 80 1F 00  99 80 9A 80 9B 80 1F 01  ................
0730: 6F 00                                             o.              
```

#### Opcodes

```
  0: 0x071E [0x59] UPDATE_ENTITY_DATA: Set EventEntity main speed = 36* * 0.1
  1: 0x0726 [0x1F] MOVE_ENTITY: EventEntity moves to X=-7.685*, Z=7.819*, Y=-1.026*
  2: 0x072E [0x1F] MOVE_ENTITY: Update entity position (mode=1)
  3: 0x0730 [0x6F] WAIT_FRAME_DELAY: Yield until WaitTime reaches zero
  4: 0x0731 [0x00] END_REQSTACK()
```

### Event 20

#### Metadata

| Field        | Value   |
|--------------|---------|
| Entrypoint   | 0x0732  |
| Data Size    | 1 bytes |
| Instructions | 1       |

```
      00 01 02 03 04 05 06 07  08 09 0A 0B 0C 0D 0E 0F
      -- -- -- -- -- -- -- --  -- -- -- -- -- -- -- --
0730:       00                                            .             
```

#### Opcodes

```
  0: 0x0732 [0x00] END_REQSTACK()
```

### Event 23

#### Metadata

| Field        | Value   |
|--------------|---------|
| Entrypoint   | 0x0733  |
| Data Size    | 1 bytes |
| Instructions | 1       |

```
      00 01 02 03 04 05 06 07  08 09 0A 0B 0C 0D 0E 0F
      -- -- -- -- -- -- -- --  -- -- -- -- -- -- -- --
0730:          00                                          .            
```

#### Opcodes

```
  0: 0x0733 [0x00] END_REQSTACK()
```
