# 17162758 - Ajido-Marujido

## Common Data

| Field            | Value                        |
|------------------|------------------------------|
| Zone             | Windurst Waters [S] (ID: 94) |
| Block Size       | 3164 bytes                   |
| Total Events     | 56                           |
| References Count | 190                          |

## List of Events

| Event ID                   | Entrypoint   |   Size |   Instructions |
|----------------------------|--------------|--------|----------------|
| [65535](#event-65535)      | 0x0000       |      1 |              1 |
| [130](#event-130)          | 0x0001       |      1 |              1 |
| [128](#event-128)          | 0x0002       |      5 |              2 |
| [129](#event-129)          | 0x0007       |      1 |              1 |
| [133](#event-133)          | 0x0008       |      1 |              1 |
| [134](#event-134)          | 0x0009       |      5 |              2 |
| [151](#event-151)          | 0x000E       |      1 |              1 |
| [65535.1](#event-655351)   | 0x000F       |     15 |              5 |
| [65535.2](#event-655352)   | 0x001E       |     35 |              7 |
| [65535.3](#event-655353)   | 0x0041       |     35 |              7 |
| [65535.4](#event-655354)   | 0x0064       |     40 |             10 |
| [65535.5](#event-655355)   | 0x008C       |     19 |              3 |
| [65535.6](#event-655356)   | 0x009F       |      1 |              1 |
| [65535.7](#event-655357)   | 0x00A0       |     18 |              4 |
| [65535.8](#event-655358)   | 0x00B2       |     10 |              2 |
| [65535.9](#event-655359)   | 0x00BC       |      9 |              3 |
| [65535.10](#event-6553510) | 0x00C5       |      9 |              3 |
| [65535.11](#event-6553511) | 0x00CE       |     10 |              2 |
| [65535.12](#event-6553512) | 0x00D8       |     10 |              2 |
| [153](#event-153)          | 0x00E2       |      1 |              1 |
| [231](#event-231)          | 0x00E3       |      1 |              1 |
| [65535.13](#event-6553513) | 0x00E4       |     37 |              9 |
| [65535.14](#event-6553514) | 0x0109       |     26 |              8 |
| [65535.15](#event-6553515) | 0x0123       |     24 |              6 |
| [65535.16](#event-6553516) | 0x013B       |      4 |              2 |
| [65535.17](#event-6553517) | 0x013F       |     33 |              7 |
| [65535.18](#event-6553518) | 0x0160       |     15 |              5 |
| [65535.19](#event-6553519) | 0x016F       |     35 |              7 |
| [65535.20](#event-6553520) | 0x0192       |     15 |              5 |
| [65535.21](#event-6553521) | 0x01A1       |     22 |              7 |
| [65535.22](#event-6553522) | 0x01B7       |    167 |             35 |
| [65535.23](#event-6553523) | 0x025E       |    186 |             38 |
| [65535.24](#event-6553524) | 0x0318       |     83 |             18 |
| [65535.25](#event-6553525) | 0x036B       |    154 |             32 |
| [65535.26](#event-6553526) | 0x0405       |    167 |             35 |
| [65535.27](#event-6553527) | 0x04AC       |     69 |             15 |
| [65535.28](#event-6553528) | 0x04F1       |     38 |              9 |
| [65535.29](#event-6553529) | 0x0517       |     38 |              9 |
| [65535.30](#event-6553530) | 0x053D       |     48 |             11 |
| [65535.31](#event-6553531) | 0x056D       |     19 |              4 |
| [65535.32](#event-6553532) | 0x0580       |     22 |              5 |
| [65535.33](#event-6553533) | 0x0596       |     22 |              5 |
| [65535.34](#event-6553534) | 0x05AC       |     13 |              5 |
| [65535.35](#event-6553535) | 0x05B9       |    221 |             26 |
| [65535.36](#event-6553536) | 0x0696       |     76 |              8 |
| [65535.37](#event-6553537) | 0x06E2       |     49 |              5 |
| [65535.38](#event-6553538) | 0x0713       |     29 |              6 |
| [65535.39](#event-6553539) | 0x0730       |     49 |              7 |
| [65535.40](#event-6553540) | 0x0761       |     20 |              5 |
| [65535.41](#event-6553541) | 0x0775       |     47 |              6 |
| [65535.42](#event-6553542) | 0x07A4       |     21 |              3 |
| [65535.43](#event-6553543) | 0x07B9       |    161 |             17 |
| [65535.44](#event-6553544) | 0x085A       |     20 |              5 |
| [20](#event-20)            | 0x086E       |      1 |              1 |
| [23](#event-23)            | 0x086F       |      1 |              1 |
| [33](#event-33)            | 0x0870       |      1 |              1 |

## DAT References (imed_data)

|   Index | Hex Value   |   Dec Value |
|---------|-------------|-------------|
|       0 | 0x0052      |          82 |
|       1 | 0x0028      |          40 |
|       2 | 0xFFFF651B  |  4294927643 |
|       3 | 0x33FAD     |      212909 |
|       4 | 0xFFFFEC7E  |  4294962302 |
|       5 | 0x07D6      |        2006 |
|       6 | 0x39AE      |       14766 |
|       7 | 0xFFFFFC19  |  4294966297 |
|       8 | 0x0508      |        1288 |
|       9 | 0x000D      |          13 |
|      10 | 0xFFFF0DC5  |  4294905285 |
|      11 | 0x195A5     |      103845 |
|      12 | 0xFFFFEA85  |  4294961797 |
|      13 | 0x0B1E      |        2846 |
|      14 | 0x3EF2      |       16114 |
|      15 | 0x0003      |           3 |
|      16 | 0x0A8C      |        2700 |
|      17 | 0x0000      |           0 |
|      18 | 0x0001      |           1 |
|      19 | 0x0080      |         128 |
|      20 | 0x1EABE     |      125630 |
|      21 | 0x35378     |      217976 |
|      22 | 0xFFFFF63C  |  4294964796 |
|      23 | 0xFFFF8C66  |  4294937702 |
|      24 | 0xFFFFE76C  |  4294961004 |
|      25 | 0xFFFFE2B4  |  4294959796 |
|      26 | 0xFFFF9CD1  |  4294941905 |
|      27 | 0xFFFFB9D6  |  4294949334 |
|      28 | 0xFFFFD7F7  |  4294957047 |
|      29 | 0x70E1      |       28897 |
|      30 | 0xFFFFF967  |  4294965607 |
|      31 | 0xFFFF9B6B  |  4294941547 |
|      32 | 0x0898      |        2200 |
|      33 | 0x1F05E     |      127070 |
|      34 | 0xC9F8      |       51704 |
|      35 | 0xFFFFF817  |  4294965271 |
|      36 | 0x1DF20     |      122656 |
|      37 | 0xBBA2      |       48034 |
|      38 | 0xFFFFF8FB  |  4294965499 |
|      39 | 0xFFFF640B  |  4294927371 |
|      40 | 0x373FC     |      226300 |
|      41 | 0xFFFFEC72  |  4294962290 |
|      42 | 0x0026      |          38 |
|      43 | 0x218D1     |      137425 |
|      44 | 0x32D7D     |      208253 |
|      45 | 0x0004      |           4 |
|      46 | 0x001E      |          30 |
|      47 | 0x0050      |          80 |
|      48 | 0x01CB      |         459 |
|      49 | 0xC01D      |       49181 |
|      50 | 0xFFFFFC18  |  4294966296 |
|      51 | 0xFFFFF61D  |  4294964765 |
|      52 | 0xB4CD      |       46285 |
|      53 | 0xFFFFE4A1  |  4294960289 |
|      54 | 0xA1E9      |       41449 |
|      55 | 0xFFFFCB4E  |  4294953806 |
|      56 | 0x99E9      |       39401 |
|      57 | 0xFFFF383B  |  4294916155 |
|      58 | 0x975A      |       38746 |
|      59 | 0xFFFFF255  |  4294963797 |
|      60 | 0xFFFF0950  |  4294904144 |
|      61 | 0xA6EB      |       42731 |
|      62 | 0xFFFEE28D  |  4294894221 |
|      63 | 0xCA5B      |       51803 |
|      64 | 0xFFFECCEB  |  4294888683 |
|      65 | 0xE7E4      |       59364 |
|      66 | 0xFFFED4DC  |  4294890716 |
|      67 | 0x12692     |       75410 |
|      68 | 0xFFFF05FC  |  4294903292 |
|      69 | 0x13DD1     |       81361 |
|      70 | 0xFFFFEC78  |  4294962296 |
|      71 | 0xFFFF3FE9  |  4294918121 |
|      72 | 0x14635     |       83509 |
|      73 | 0xFFFFEC79  |  4294962297 |
|      74 | 0xFFFF58F1  |  4294924529 |
|      75 | 0x156CB     |       87755 |
|      76 | 0xFFFF5F95  |  4294926229 |
|      77 | 0x16818     |       92184 |
|      78 | 0xFFFF633B  |  4294927163 |
|      79 | 0x28E9B     |      167579 |
|      80 | 0xFFFFEC61  |  4294962273 |
|      81 | 0x0096      |         150 |
|      82 | 0x004F      |          79 |
|      83 | 0xFFFFFD21  |  4294966561 |
|      84 | 0xCD5B      |       52571 |
|      85 | 0xFFFFF472  |  4294964338 |
|      86 | 0xC585      |       50565 |
|      87 | 0xFFFFE64E  |  4294960718 |
|      88 | 0xAABD      |       43709 |
|      89 | 0xFFFFD9CC  |  4294957516 |
|      90 | 0x9B38      |       39736 |
|      91 | 0xFFFFCCF6  |  4294954230 |
|      92 | 0x9802      |       38914 |
|      93 | 0xFFFF64E4  |  4294927588 |
|      94 | 0x15EE3     |       89827 |
|      95 | 0xFFFF68EB  |  4294928619 |
|      96 | 0x16CEC     |       93420 |
|      97 | 0xFFFF6A76  |  4294929014 |
|      98 | 0x1835B     |       99163 |
|      99 | 0x0019      |          25 |
|     100 | 0xFFFF9D93  |  4294942099 |
|     101 | 0x153C3     |       86979 |
|     102 | 0x004E      |          78 |
|     103 | 0xFFFF7F27  |  4294934311 |
|     104 | 0x170BF     |       94399 |
|     105 | 0xFFFF6EA5  |  4294930085 |
|     106 | 0x181BB     |       98747 |
|     107 | 0xFFFF6986  |  4294928774 |
|     108 | 0x1A277     |      107127 |
|     109 | 0xFFFFE83A  |  4294961210 |
|     110 | 0x79A0      |       31136 |
|     111 | 0xFFFFE0B0  |  4294959280 |
|     112 | 0x893B      |       35131 |
|     113 | 0xFFFFD29F  |  4294955679 |
|     114 | 0x9856      |       38998 |
|     115 | 0x00B4      |         180 |
|     116 | 0xFFFFF934  |  4294965556 |
|     117 | 0x7B9B      |       31643 |
|     118 | 0xFFFFEFB1  |  4294963121 |
|     119 | 0x9085      |       36997 |
|     120 | 0xFFFFDE20  |  4294958624 |
|     121 | 0xA00A      |       40970 |
|     122 | 0x0168      |         360 |
|     123 | 0x000F      |          15 |
|     124 | 0xFFFF96A6  |  4294940326 |
|     125 | 0xF877      |       63607 |
|     126 | 0xFFFFF254  |  4294963796 |
|     127 | 0xFFFF9B5E  |  4294941534 |
|     128 | 0xF61A      |       63002 |
|     129 | 0xFFFF46D2  |  4294919890 |
|     130 | 0xE60E      |       58894 |
|     131 | 0xFFFF2186  |  4294910342 |
|     132 | 0xD0D7      |       53463 |
|     133 | 0x001B      |          27 |
|     134 | 0xFFFF8952  |  4294936914 |
|     135 | 0x12369     |       74601 |
|     136 | 0xFFFFF20A  |  4294963722 |
|     137 | 0xFFFF2B43  |  4294912835 |
|     138 | 0x10F50     |       69456 |
|     139 | 0xFFFF8D73  |  4294937971 |
|     140 | 0x1266B     |       75371 |
|     141 | 0xFFFFF237  |  4294963767 |
|     142 | 0xFFFF3027  |  4294914087 |
|     143 | 0x113AF     |       70575 |
|     144 | 0xFFFF938A  |  4294939530 |
|     145 | 0x11F80     |       73600 |
|     146 | 0xFFFFF2AA  |  4294963882 |
|     147 | 0xFFFF3332  |  4294914866 |
|     148 | 0x11FA6     |       73638 |
|     149 | 0xFFFF2C4F  |  4294913103 |
|     150 | 0x1196C     |       72044 |
|     151 | 0x002A      |          42 |
|     152 | 0xFFFFA76A  |  4294944618 |
|     153 | 0x13DC9     |       81353 |
|     154 | 0x003C      |          60 |
|     155 | 0x0078      |         120 |
|     156 | 0x0258      |         600 |
|     157 | 0x0005      |           5 |
|     158 | 0x0215      |         533 |
|     159 | 0x012C      |         300 |
|     160 | 0xFFFF11C3  |  4294906307 |
|     161 | 0x1126E     |       70254 |
|     162 | 0x0FFD      |        4093 |
|     163 | 0x0031      |          49 |
|     164 | 0xFFFFEB50  |  4294962000 |
|     165 | 0x3028      |       12328 |
|     166 | 0x00A0      |         160 |
|     167 | 0x0055      |          85 |
|     168 | 0x0007      |           7 |
|     169 | 0xFFFFFECD  |  4294966989 |
|     170 | 0x33C0      |       13248 |
|     171 | 0x0023      |          35 |
|     172 | 0xFFFFFC12  |  4294966290 |
|     173 | 0x3F62      |       16226 |
|     174 | 0x004B      |          75 |
|     175 | 0x00C9      |         201 |
|     176 | 0xFFFFFBDE  |  4294966238 |
|     177 | 0x4419      |       17433 |
|     178 | 0x0408      |        1032 |
|     179 | 0x3D40      |       15680 |
|     180 | 0x09C7      |        2503 |
|     181 | 0x0506      |        1286 |
|     182 | 0x00B5      |         181 |
|     183 | 0x0056      |          86 |
|     184 | 0x0189      |         393 |
|     185 | 0x0BD5      |        3029 |
|     186 | 0x0024      |          36 |
|     187 | 0xFFFFE1FB  |  4294959611 |
|     188 | 0x1E8B      |        7819 |
|     189 | 0xFFFFFBFE  |  4294966270 |

## Events

### Event 65535

#### Metadata

| Field        | Value   |
|--------------|---------|
| Entrypoint   | 0x0000  |
| Data Size    | 1 bytes |
| Instructions | 1       |

```
      00 01 02 03 04 05 06 07  08 09 0A 0B 0C 0D 0E 0F
      -- -- -- -- -- -- -- --  -- -- -- -- -- -- -- --
0000: 00                                                .               
```

#### Opcodes

```
  0: 0x0000 [0x00] END_REQSTACK()
```

### Event 130

#### Metadata

| Field        | Value   |
|--------------|---------|
| Entrypoint   | 0x0001  |
| Data Size    | 1 bytes |
| Instructions | 1       |

```
      00 01 02 03 04 05 06 07  08 09 0A 0B 0C 0D 0E 0F
      -- -- -- -- -- -- -- --  -- -- -- -- -- -- -- --
0000:    00                                              .              
```

#### Opcodes

```
  0: 0x0001 [0x00] END_REQSTACK()
```

### Event 128

#### Metadata

| Field        | Value   |
|--------------|---------|
| Entrypoint   | 0x0002  |
| Data Size    | 5 bytes |
| Instructions | 2       |

```
      00 01 02 03 04 05 06 07  08 09 0A 0B 0C 0D 0E 0F
      -- -- -- -- -- -- -- --  -- -- -- -- -- -- -- --
0000:       B6 0F 00 80 00                                .....         
```

#### Opcodes

```
  0: 0x0002 [0xB6] ENTITY_APPEARANCE_HANDLER(case=Model size, value=82*)
  1: 0x0006 [0x00] END_REQSTACK()
```

### Event 129

#### Metadata

| Field        | Value   |
|--------------|---------|
| Entrypoint   | 0x0007  |
| Data Size    | 1 bytes |
| Instructions | 1       |

```
      00 01 02 03 04 05 06 07  08 09 0A 0B 0C 0D 0E 0F
      -- -- -- -- -- -- -- --  -- -- -- -- -- -- -- --
0000:                      00                                  .        
```

#### Opcodes

```
  0: 0x0007 [0x00] END_REQSTACK()
```

### Event 133

#### Metadata

| Field        | Value   |
|--------------|---------|
| Entrypoint   | 0x0008  |
| Data Size    | 1 bytes |
| Instructions | 1       |

```
      00 01 02 03 04 05 06 07  08 09 0A 0B 0C 0D 0E 0F
      -- -- -- -- -- -- -- --  -- -- -- -- -- -- -- --
0000:                          00                               .       
```

#### Opcodes

```
  0: 0x0008 [0x00] END_REQSTACK()
```

### Event 134

#### Metadata

| Field        | Value   |
|--------------|---------|
| Entrypoint   | 0x0009  |
| Data Size    | 5 bytes |
| Instructions | 2       |

```
      00 01 02 03 04 05 06 07  08 09 0A 0B 0C 0D 0E 0F
      -- -- -- -- -- -- -- --  -- -- -- -- -- -- -- --
0000:                             B6 0F 00 80 00                 .....  
```

#### Opcodes

```
  0: 0x0009 [0xB6] ENTITY_APPEARANCE_HANDLER(case=Model size, value=82*)
  1: 0x000D [0x00] END_REQSTACK()
```

### Event 151

#### Metadata

| Field        | Value   |
|--------------|---------|
| Entrypoint   | 0x000E  |
| Data Size    | 1 bytes |
| Instructions | 1       |

```
      00 01 02 03 04 05 06 07  08 09 0A 0B 0C 0D 0E 0F
      -- -- -- -- -- -- -- --  -- -- -- -- -- -- -- --
0000:                                            00                   . 
```

#### Opcodes

```
  0: 0x000E [0x00] END_REQSTACK()
```

### Event 65535.1

#### Metadata

| Field        | Value    |
|--------------|----------|
| Entrypoint   | 0x000F   |
| Data Size    | 15 bytes |
| Instructions | 5        |

```
      00 01 02 03 04 05 06 07  08 09 0A 0B 0C 0D 0E 0F
      -- -- -- -- -- -- -- --  -- -- -- -- -- -- -- --
0000:                                               32                 2
0010: 01 80 1F 00 02 80 03 80  04 80 1F 01 6F 00        ............o.  
```

#### Opcodes

```
  0: 0x000F [0x32] ExtData[1]->MainSpeed = 40* * 0.1
  1: 0x0012 [0x1F] MOVE_ENTITY: EventEntity moves to X=-39.653*, Z=212.909*, Y=-4.994*
  2: 0x001A [0x1F] MOVE_ENTITY: Update entity position (mode=1)
  3: 0x001C [0x6F] WAIT_FRAME_DELAY: Yield until WaitTime reaches zero
  4: 0x001D [0x00] END_REQSTACK()
```

### Event 65535.2

#### Metadata

| Field        | Value    |
|--------------|----------|
| Entrypoint   | 0x001E   |
| Data Size    | 35 bytes |
| Instructions | 7        |

```
      00 01 02 03 04 05 06 07  08 09 0A 0B 0C 0D 0E 0F
      -- -- -- -- -- -- -- --  -- -- -- -- -- -- -- --
0010:                                            32 01                2.
0020: 80 1F 00 05 80 06 80 07  80 1F 01 6F 1E 08 E2 05  ...........o....
0030: 01 5B 08 80 06 E2 05 01  06 E2 05 01 73 74 64 32  .[..........std2
0040: 00                                                .               
```

#### Opcodes

```
  0: 0x001E [0x32] ExtData[1]->MainSpeed = 40* * 0.1
  1: 0x0021 [0x1F] MOVE_ENTITY: EventEntity moves to X=2.006*, Z=14.766*, Y=-0.999*
  2: 0x0029 [0x1F] MOVE_ENTITY: Update entity position (mode=1)
  3: 0x002B [0x6F] WAIT_FRAME_DELAY: Yield until WaitTime reaches zero
  4: 0x002C [0x1E] EventEntity looks at Romaa Mihgo (ID: 17162760/0x0105E208) and starts talking
  5: 0x0031 [0x5B] LOAD_EXT_SCHEDULER: Load scheduler "std2" with entities [Ajido-Marujido (ID: 17162758/0x0105E206), Ajido-Marujido (ID: 17162758/0x0105E206)], work=1288*
  6: 0x0040 [0x00] END_REQSTACK()
```

### Event 65535.3

#### Metadata

| Field        | Value    |
|--------------|----------|
| Entrypoint   | 0x0041   |
| Data Size    | 35 bytes |
| Instructions | 7        |

```
      00 01 02 03 04 05 06 07  08 09 0A 0B 0C 0D 0E 0F
      -- -- -- -- -- -- -- --  -- -- -- -- -- -- -- --
0040:    32 09 80 1F 00 0A 80  0B 80 0C 80 1F 01 6F 1E   2............o.
0050: F0 FF FF 7F 5B 08 80 06  E2 05 01 06 E2 05 01 73  ....[..........s
0060: 74 64 32 00                                       td2.            
```

#### Opcodes

```
  0: 0x0041 [0x32] ExtData[1]->MainSpeed = 13* * 0.1
  1: 0x0044 [0x1F] MOVE_ENTITY: EventEntity moves to X=-62.011*, Z=103.845*, Y=-5.499*
  2: 0x004C [0x1F] MOVE_ENTITY: Update entity position (mode=1)
  3: 0x004E [0x6F] WAIT_FRAME_DELAY: Yield until WaitTime reaches zero
  4: 0x004F [0x1E] EventEntity looks at LocalPlayer and starts talking
  5: 0x0054 [0x5B] LOAD_EXT_SCHEDULER: Load scheduler "std2" with entities [Ajido-Marujido (ID: 17162758/0x0105E206), Ajido-Marujido (ID: 17162758/0x0105E206)], work=1288*
  6: 0x0063 [0x00] END_REQSTACK()
```

### Event 65535.4

#### Metadata

| Field        | Value    |
|--------------|----------|
| Entrypoint   | 0x0064   |
| Data Size    | 40 bytes |
| Instructions | 10       |

```
      00 01 02 03 04 05 06 07  08 09 0A 0B 0C 0D 0E 0F
      -- -- -- -- -- -- -- --  -- -- -- -- -- -- -- --
0060:             32 09 80 1F  00 0D 80 0E 80 07 80 1F      2...........
0070: 01 6F 1E F0 FF FF 7F 6F  70 1C 0F 80 5B 08 80 06  .o.....op...[...
0080: E2 05 01 06 E2 05 01 73  74 64 32 00              .......std2.    
```

#### Opcodes

```
  0: 0x0064 [0x32] ExtData[1]->MainSpeed = 13* * 0.1
  1: 0x0067 [0x1F] MOVE_ENTITY: EventEntity moves to X=2.846*, Z=16.114*, Y=-0.999*
  2: 0x006F [0x1F] MOVE_ENTITY: Update entity position (mode=1)
  3: 0x0071 [0x6F] WAIT_FRAME_DELAY: Yield until WaitTime reaches zero
  4: 0x0072 [0x1E] EventEntity looks at LocalPlayer and starts talking
  5: 0x0077 [0x6F] WAIT_FRAME_DELAY: Yield until WaitTime reaches zero
  6: 0x0078 [0x70] WAIT_ENTITY_RENDER_FLAG: Wait while EventEntity->Render.Flags3 bit 2 is set (cancel turn if not)
  7: 0x0079 [0x1C] WAIT(3* ticks)
  8: 0x007C [0x5B] LOAD_EXT_SCHEDULER: Load scheduler "std2" with entities [Ajido-Marujido (ID: 17162758/0x0105E206), Ajido-Marujido (ID: 17162758/0x0105E206)], work=1288*
  9: 0x008B [0x00] END_REQSTACK()
```

### Event 65535.5

#### Metadata

| Field        | Value    |
|--------------|----------|
| Entrypoint   | 0x008C   |
| Data Size    | 19 bytes |
| Instructions | 3        |

```
      00 01 02 03 04 05 06 07  08 09 0A 0B 0C 0D 0E 0F
      -- -- -- -- -- -- -- --  -- -- -- -- -- -- -- --
0080:                                      39 10 80 5B              9..[
0090: 08 80 06 E2 05 01 06 E2  05 01 73 74 64 32 00     ..........std2. 
```

#### Opcodes

```
  0: 0x008C [0x39] SET_ENTITY_DIRECTION(direction=14.8°*)
  1: 0x008F [0x5B] LOAD_EXT_SCHEDULER: Load scheduler "std2" with entities [Ajido-Marujido (ID: 17162758/0x0105E206), Ajido-Marujido (ID: 17162758/0x0105E206)], work=1288*
  2: 0x009E [0x00] END_REQSTACK()
```

### Event 65535.6

#### Metadata

| Field        | Value   |
|--------------|---------|
| Entrypoint   | 0x009F  |
| Data Size    | 1 bytes |
| Instructions | 1       |

```
      00 01 02 03 04 05 06 07  08 09 0A 0B 0C 0D 0E 0F
      -- -- -- -- -- -- -- --  -- -- -- -- -- -- -- --
0090:                                               00                 .
```

#### Opcodes

```
  0: 0x009F [0x00] END_REQSTACK()
```

### Event 65535.7

#### Metadata

| Field        | Value    |
|--------------|----------|
| Entrypoint   | 0x00A0   |
| Data Size    | 18 bytes |
| Instructions | 4        |

```
      00 01 02 03 04 05 06 07  08 09 0A 0B 0C 0D 0E 0F
      -- -- -- -- -- -- -- --  -- -- -- -- -- -- -- --
00A0: 22 00 2F 00 F8 FF FF 7F  6C F8 FF FF 7F 11 80 12  "./.....l.......
00B0: 80 00                                             ..              
```

#### Opcodes

```
  0: 0x00A0 [0x22] ENTITY_HIDE_FLAG(enabled=0x00)
  1: 0x00A2 [0x2F] EventEntity->Render.Flags0 &= ~0x80000 // Bit 19
  2: 0x00A8 [0x6C] FADE_ENTITY_COLOR(entity_id=EventEntity, end_alpha=0*, fade_time=1*)
  3: 0x00B1 [0x00] END_REQSTACK()
```

### Event 65535.8

#### Metadata

| Field        | Value    |
|--------------|----------|
| Entrypoint   | 0x00B2   |
| Data Size    | 10 bytes |
| Instructions | 2        |

```
      00 01 02 03 04 05 06 07  08 09 0A 0B 0C 0D 0E 0F
      -- -- -- -- -- -- -- --  -- -- -- -- -- -- -- --
00B0:       6C F8 FF FF 7F 13  80 12 80 00                l.........    
```

#### Opcodes

```
  0: 0x00B2 [0x6C] FADE_ENTITY_COLOR(entity_id=EventEntity, end_alpha=128*, fade_time=1*)
  1: 0x00BB [0x00] END_REQSTACK()
```

### Event 65535.9

#### Metadata

| Field        | Value   |
|--------------|---------|
| Entrypoint   | 0x00BC  |
| Data Size    | 9 bytes |
| Instructions | 3       |

```
      00 01 02 03 04 05 06 07  08 09 0A 0B 0C 0D 0E 0F
      -- -- -- -- -- -- -- --  -- -- -- -- -- -- -- --
00B0:                                      22 00 2F 00              "./.
00C0: F8 FF FF 7F 00                                    .....           
```

#### Opcodes

```
  0: 0x00BC [0x22] ENTITY_HIDE_FLAG(enabled=0x00)
  1: 0x00BE [0x2F] EventEntity->Render.Flags0 &= ~0x80000 // Bit 19
  2: 0x00C4 [0x00] END_REQSTACK()
```

### Event 65535.10

#### Metadata

| Field        | Value   |
|--------------|---------|
| Entrypoint   | 0x00C5  |
| Data Size    | 9 bytes |
| Instructions | 3       |

```
      00 01 02 03 04 05 06 07  08 09 0A 0B 0C 0D 0E 0F
      -- -- -- -- -- -- -- --  -- -- -- -- -- -- -- --
00C0:                22 01 2F  01 F8 FF FF 7F 00             "./......  
```

#### Opcodes

```
  0: 0x00C5 [0x22] ENTITY_HIDE_FLAG(enabled=0x01)
  1: 0x00C7 [0x2F] EventEntity->Render.Flags0 |= 0x80000 // Bit 19
  2: 0x00CD [0x00] END_REQSTACK()
```

### Event 65535.11

#### Metadata

| Field        | Value    |
|--------------|----------|
| Entrypoint   | 0x00CE   |
| Data Size    | 10 bytes |
| Instructions | 2        |

```
      00 01 02 03 04 05 06 07  08 09 0A 0B 0C 0D 0E 0F
      -- -- -- -- -- -- -- --  -- -- -- -- -- -- -- --
00C0:                                            6C F8                l.
00D0: FF FF 7F 11 80 12 80 00                           ........        
```

#### Opcodes

```
  0: 0x00CE [0x6C] FADE_ENTITY_COLOR(entity_id=EventEntity, end_alpha=0*, fade_time=1*)
  1: 0x00D7 [0x00] END_REQSTACK()
```

### Event 65535.12

#### Metadata

| Field        | Value    |
|--------------|----------|
| Entrypoint   | 0x00D8   |
| Data Size    | 10 bytes |
| Instructions | 2        |

```
      00 01 02 03 04 05 06 07  08 09 0A 0B 0C 0D 0E 0F
      -- -- -- -- -- -- -- --  -- -- -- -- -- -- -- --
00D0:                          6C F8 FF FF 7F 13 80 12          l.......
00E0: 80 00                                             ..              
```

#### Opcodes

```
  0: 0x00D8 [0x6C] FADE_ENTITY_COLOR(entity_id=EventEntity, end_alpha=128*, fade_time=1*)
  1: 0x00E1 [0x00] END_REQSTACK()
```

### Event 153

#### Metadata

| Field        | Value   |
|--------------|---------|
| Entrypoint   | 0x00E2  |
| Data Size    | 1 bytes |
| Instructions | 1       |

```
      00 01 02 03 04 05 06 07  08 09 0A 0B 0C 0D 0E 0F
      -- -- -- -- -- -- -- --  -- -- -- -- -- -- -- --
00E0:       00                                            .             
```

#### Opcodes

```
  0: 0x00E2 [0x00] END_REQSTACK()
```

### Event 231

#### Metadata

| Field        | Value   |
|--------------|---------|
| Entrypoint   | 0x00E3  |
| Data Size    | 1 bytes |
| Instructions | 1       |

```
      00 01 02 03 04 05 06 07  08 09 0A 0B 0C 0D 0E 0F
      -- -- -- -- -- -- -- --  -- -- -- -- -- -- -- --
00E0:          00                                          .            
```

#### Opcodes

```
  0: 0x00E3 [0x00] END_REQSTACK()
```

### Event 65535.13

#### Metadata

| Field        | Value    |
|--------------|----------|
| Entrypoint   | 0x00E4   |
| Data Size    | 37 bytes |
| Instructions | 9        |

```
      00 01 02 03 04 05 06 07  08 09 0A 0B 0C 0D 0E 0F
      -- -- -- -- -- -- -- --  -- -- -- -- -- -- -- --
00E0:             32 09 80 1F  00 14 80 15 80 16 80 1F      2...........
00F0: 01 6F 1E F0 FF FF 7F 6F  70 5B 08 80 06 E2 05 01  .o.....op[......
0100: 06 E2 05 01 73 74 64 32  00                       ....std2.       
```

#### Opcodes

```
  0: 0x00E4 [0x32] ExtData[1]->MainSpeed = 13* * 0.1
  1: 0x00E7 [0x1F] MOVE_ENTITY: EventEntity moves to X=125.630*, Z=217.976*, Y=-2.500*
  2: 0x00EF [0x1F] MOVE_ENTITY: Update entity position (mode=1)
  3: 0x00F1 [0x6F] WAIT_FRAME_DELAY: Yield until WaitTime reaches zero
  4: 0x00F2 [0x1E] EventEntity looks at LocalPlayer and starts talking
  5: 0x00F7 [0x6F] WAIT_FRAME_DELAY: Yield until WaitTime reaches zero
  6: 0x00F8 [0x70] WAIT_ENTITY_RENDER_FLAG: Wait while EventEntity->Render.Flags3 bit 2 is set (cancel turn if not)
  7: 0x00F9 [0x5B] LOAD_EXT_SCHEDULER: Load scheduler "std2" with entities [Ajido-Marujido (ID: 17162758/0x0105E206), Ajido-Marujido (ID: 17162758/0x0105E206)], work=1288*
  8: 0x0108 [0x00] END_REQSTACK()
```

### Event 65535.14

#### Metadata

| Field        | Value    |
|--------------|----------|
| Entrypoint   | 0x0109   |
| Data Size    | 26 bytes |
| Instructions | 8        |

```
      00 01 02 03 04 05 06 07  08 09 0A 0B 0C 0D 0E 0F
      -- -- -- -- -- -- -- --  -- -- -- -- -- -- -- --
0100:                             32 01 80 1F 00 17 80           2......
0110: 18 80 19 80 1F 01 6F 1F  00 1A 80 1B 80 1C 80 1F  ......o.........
0120: 01 6F 00                                          .o.             
```

#### Opcodes

```
  0: 0x0109 [0x32] ExtData[1]->MainSpeed = 40* * 0.1
  1: 0x010C [0x1F] MOVE_ENTITY: EventEntity moves to X=-29.594*, Z=-6.292*, Y=-7.500*
  2: 0x0114 [0x1F] MOVE_ENTITY: Update entity position (mode=1)
  3: 0x0116 [0x6F] WAIT_FRAME_DELAY: Yield until WaitTime reaches zero
  4: 0x0117 [0x1F] MOVE_ENTITY: EventEntity moves to X=-25.391*, Z=-17.962*, Y=-10.249*
  5: 0x011F [0x1F] MOVE_ENTITY: Update entity position (mode=1)
  6: 0x0121 [0x6F] WAIT_FRAME_DELAY: Yield until WaitTime reaches zero
  7: 0x0122 [0x00] END_REQSTACK()
```

### Event 65535.15

#### Metadata

| Field        | Value    |
|--------------|----------|
| Entrypoint   | 0x0123   |
| Data Size    | 24 bytes |
| Instructions | 6        |

```
      00 01 02 03 04 05 06 07  08 09 0A 0B 0C 0D 0E 0F
      -- -- -- -- -- -- -- --  -- -- -- -- -- -- -- --
0120:          32 01 80 1F 00  1D 80 1E 80 1F 80 1F 01     2............
0130: 6F 4A 06 E2 05 01 F0 FF  FF 7F 00                 oJ.........     
```

#### Opcodes

```
  0: 0x0123 [0x32] ExtData[1]->MainSpeed = 40* * 0.1
  1: 0x0126 [0x1F] MOVE_ENTITY: EventEntity moves to X=28.897*, Z=-1.689*, Y=-25.749*
  2: 0x012E [0x1F] MOVE_ENTITY: Update entity position (mode=1)
  3: 0x0130 [0x6F] WAIT_FRAME_DELAY: Yield until WaitTime reaches zero
  4: 0x0131 [0x4A] Ajido-Marujido (ID: 17162758/0x0105E206) looks at LocalPlayer
  5: 0x013A [0x00] END_REQSTACK()
```

### Event 65535.16

#### Metadata

| Field        | Value   |
|--------------|---------|
| Entrypoint   | 0x013B  |
| Data Size    | 4 bytes |
| Instructions | 2       |

```
      00 01 02 03 04 05 06 07  08 09 0A 0B 0C 0D 0E 0F
      -- -- -- -- -- -- -- --  -- -- -- -- -- -- -- --
0130:                                   39 20 80 00                9 .. 
```

#### Opcodes

```
  0: 0x013B [0x39] SET_ENTITY_DIRECTION(direction=12.1°*)
  1: 0x013E [0x00] END_REQSTACK()
```

### Event 65535.17

#### Metadata

| Field        | Value    |
|--------------|----------|
| Entrypoint   | 0x013F   |
| Data Size    | 33 bytes |
| Instructions | 7        |

```
      00 01 02 03 04 05 06 07  08 09 0A 0B 0C 0D 0E 0F
      -- -- -- -- -- -- -- --  -- -- -- -- -- -- -- --
0130:                                               32                 2
0140: 09 80 1F 00 21 80 22 80  23 80 1F 01 6F 1C 0F 80  ....!.".#...o...
0150: 5B 08 80 06 E2 05 01 06  E2 05 01 73 74 64 32 00  [..........std2.
```

#### Opcodes

```
  0: 0x013F [0x32] ExtData[1]->MainSpeed = 13* * 0.1
  1: 0x0142 [0x1F] MOVE_ENTITY: EventEntity moves to X=127.070*, Z=51.704*, Y=-2.025*
  2: 0x014A [0x1F] MOVE_ENTITY: Update entity position (mode=1)
  3: 0x014C [0x6F] WAIT_FRAME_DELAY: Yield until WaitTime reaches zero
  4: 0x014D [0x1C] WAIT(3* ticks)
  5: 0x0150 [0x5B] LOAD_EXT_SCHEDULER: Load scheduler "std2" with entities [Ajido-Marujido (ID: 17162758/0x0105E206), Ajido-Marujido (ID: 17162758/0x0105E206)], work=1288*
  6: 0x015F [0x00] END_REQSTACK()
```

### Event 65535.18

#### Metadata

| Field        | Value    |
|--------------|----------|
| Entrypoint   | 0x0160   |
| Data Size    | 15 bytes |
| Instructions | 5        |

```
      00 01 02 03 04 05 06 07  08 09 0A 0B 0C 0D 0E 0F
      -- -- -- -- -- -- -- --  -- -- -- -- -- -- -- --
0160: 32 01 80 1F 00 24 80 25  80 26 80 1F 01 6F 00     2....$.%.&...o. 
```

#### Opcodes

```
  0: 0x0160 [0x32] ExtData[1]->MainSpeed = 40* * 0.1
  1: 0x0163 [0x1F] MOVE_ENTITY: EventEntity moves to X=122.656*, Z=48.034*, Y=-1.797*
  2: 0x016B [0x1F] MOVE_ENTITY: Update entity position (mode=1)
  3: 0x016D [0x6F] WAIT_FRAME_DELAY: Yield until WaitTime reaches zero
  4: 0x016E [0x00] END_REQSTACK()
```

### Event 65535.19

#### Metadata

| Field        | Value    |
|--------------|----------|
| Entrypoint   | 0x016F   |
| Data Size    | 35 bytes |
| Instructions | 7        |

```
      00 01 02 03 04 05 06 07  08 09 0A 0B 0C 0D 0E 0F
      -- -- -- -- -- -- -- --  -- -- -- -- -- -- -- --
0160:                                               32                 2
0170: 01 80 1F 00 27 80 28 80  29 80 1F 01 6F 1E 09 E2  ....'.(.)...o...
0180: 05 01 5B 08 80 06 E2 05  01 06 E2 05 01 73 74 64  ..[..........std
0190: 32 00                                             2.              
```

#### Opcodes

```
  0: 0x016F [0x32] ExtData[1]->MainSpeed = 40* * 0.1
  1: 0x0172 [0x1F] MOVE_ENTITY: EventEntity moves to X=-39.925*, Z=226.300*, Y=-5.006*
  2: 0x017A [0x1F] MOVE_ENTITY: Update entity position (mode=1)
  3: 0x017C [0x6F] WAIT_FRAME_DELAY: Yield until WaitTime reaches zero
  4: 0x017D [0x1E] EventEntity looks at Koru-Moru (ID: 17162761/0x0105E209) and starts talking
  5: 0x0182 [0x5B] LOAD_EXT_SCHEDULER: Load scheduler "std2" with entities [Ajido-Marujido (ID: 17162758/0x0105E206), Ajido-Marujido (ID: 17162758/0x0105E206)], work=1288*
  6: 0x0191 [0x00] END_REQSTACK()
```

### Event 65535.20

#### Metadata

| Field        | Value    |
|--------------|----------|
| Entrypoint   | 0x0192   |
| Data Size    | 15 bytes |
| Instructions | 5        |

```
      00 01 02 03 04 05 06 07  08 09 0A 0B 0C 0D 0E 0F
      -- -- -- -- -- -- -- --  -- -- -- -- -- -- -- --
0190:       32 2A 80 1F 00 2B  80 2C 80 16 80 1F 01 6F    2*...+.,.....o
01A0: 00                                                .               
```

#### Opcodes

```
  0: 0x0192 [0x32] ExtData[1]->MainSpeed = 38* * 0.1
  1: 0x0195 [0x1F] MOVE_ENTITY: EventEntity moves to X=137.425*, Z=208.253*, Y=-2.500*
  2: 0x019D [0x1F] MOVE_ENTITY: Update entity position (mode=1)
  3: 0x019F [0x6F] WAIT_FRAME_DELAY: Yield until WaitTime reaches zero
  4: 0x01A0 [0x00] END_REQSTACK()
```

### Event 65535.21

#### Metadata

| Field        | Value    |
|--------------|----------|
| Entrypoint   | 0x01A1   |
| Data Size    | 22 bytes |
| Instructions | 7        |

```
      00 01 02 03 04 05 06 07  08 09 0A 0B 0C 0D 0E 0F
      -- -- -- -- -- -- -- --  -- -- -- -- -- -- -- --
01A0:    B6 0E 11 80 2D 80 12  80 11 80 11 80 11 80 12   ....-..........
01B0: 80 80 F8 FF FF 7F 00                              .......         
```

#### Opcodes

```
  0: 0x01A1 [0xB6] ENTITY_APPEARANCE_HANDLER(case=Look with Render flags, race=0*, face=4*, head=1*, body=0*, hands=0*, render_flags=0x8011)
  1: 0x01AF [0x12] 63002* = rand()
  2: 0x01B2 [0xF8] UNKNOWN_OPCODE_0xF8
  3: 0x01B3 [0xFF] UNKNOWN_OPCODE_0xFF
  4: 0x01B4 [0xFF] UNKNOWN_OPCODE_0xFF
  5: 0x01B5 [0x7F] WAIT_DIALOG_SELECT_ALT()
  6: 0x01B6 [0x00] END_REQSTACK()
```

### Event 65535.22

#### Metadata

| Field        | Value     |
|--------------|-----------|
| Entrypoint   | 0x01B7    |
| Data Size    | 167 bytes |
| Instructions | 35        |

```
      00 01 02 03 04 05 06 07  08 09 0A 0B 0C 0D 0E 0F
      -- -- -- -- -- -- -- --  -- -- -- -- -- -- -- --
01B0:                      1C  2E 80 59 04 1D E2 05 01         ...Y.....
01C0: 2F 80 1F 00 30 80 31 80  32 80 1F 01 1F 00 33 80  /...0.1.2.....3.
01D0: 34 80 32 80 1F 01 1F 00  35 80 36 80 32 80 1F 01  4.2.....5.6.2...
01E0: 1F 00 37 80 38 80 32 80  1F 01 1F 00 39 80 3A 80  ..7.8.2.....9.:.
01F0: 3B 80 1F 01 1F 00 3C 80  3D 80 3B 80 1F 01 1F 00  ;.....<.=.;.....
0200: 3E 80 3F 80 3B 80 1F 01  1F 00 40 80 41 80 3B 80  >.?.;.....@.A.;.
0210: 1F 01 1F 00 42 80 43 80  3B 80 1F 01 1F 00 44 80  ....B.C.;.....D.
0220: 45 80 46 80 1F 01 1F 00  47 80 48 80 49 80 1F 01  E.F.....G.H.I...
0230: 1F 00 4A 80 4B 80 49 80  1F 01 1F 00 4C 80 4D 80  ..J.K.I.....L.M.
0240: 49 80 1F 01 1F 00 4E 80  4F 80 50 80 1F 01 6F 7E  I.....N.O.P...o~
0250: 05 1D E2 05 01 22 01 2F  01 F8 FF FF 7F 00        ....."./......  
```

#### Opcodes

```
  0: 0x01B7 [0x1C] WAIT(30* ticks)
  1: 0x01BA [0x59] UPDATE_ENTITY_DATA: Set 01 (ID: 17162781/0x0105E21D) main speed = 80* * 0.1
  2: 0x01C2 [0x1F] MOVE_ENTITY: EventEntity moves to X=0.459*, Z=49.181*, Y=-1.000*
  3: 0x01CA [0x1F] MOVE_ENTITY: Update entity position (mode=1)
  4: 0x01CC [0x1F] MOVE_ENTITY: EventEntity moves to X=-2.531*, Z=46.285*, Y=-1.000*
  5: 0x01D4 [0x1F] MOVE_ENTITY: Update entity position (mode=1)
  6: 0x01D6 [0x1F] MOVE_ENTITY: EventEntity moves to X=-7.007*, Z=41.449*, Y=-1.000*
  7: 0x01DE [0x1F] MOVE_ENTITY: Update entity position (mode=1)
  8: 0x01E0 [0x1F] MOVE_ENTITY: EventEntity moves to X=-13.490*, Z=39.401*, Y=-1.000*
  9: 0x01E8 [0x1F] MOVE_ENTITY: Update entity position (mode=1)
 10: 0x01EA [0x1F] MOVE_ENTITY: EventEntity moves to X=-51.141*, Z=38.746*, Y=-3.499*
 11: 0x01F2 [0x1F] MOVE_ENTITY: Update entity position (mode=1)
 12: 0x01F4 [0x1F] MOVE_ENTITY: EventEntity moves to X=-63.152*, Z=42.731*, Y=-3.499*
 13: 0x01FC [0x1F] MOVE_ENTITY: Update entity position (mode=1)
 14: 0x01FE [0x1F] MOVE_ENTITY: EventEntity moves to X=-73.075*, Z=51.803*, Y=-3.499*
 15: 0x0206 [0x1F] MOVE_ENTITY: Update entity position (mode=1)
 16: 0x0208 [0x1F] MOVE_ENTITY: EventEntity moves to X=-78.613*, Z=59.364*, Y=-3.499*
 17: 0x0210 [0x1F] MOVE_ENTITY: Update entity position (mode=1)
 18: 0x0212 [0x1F] MOVE_ENTITY: EventEntity moves to X=-76.580*, Z=75.410*, Y=-3.499*
 19: 0x021A [0x1F] MOVE_ENTITY: Update entity position (mode=1)
 20: 0x021C [0x1F] MOVE_ENTITY: EventEntity moves to X=-64.004*, Z=81.361*, Y=-5.000*
 21: 0x0224 [0x1F] MOVE_ENTITY: Update entity position (mode=1)
 22: 0x0226 [0x1F] MOVE_ENTITY: EventEntity moves to X=-49.175*, Z=83.509*, Y=-4.999*
 23: 0x022E [0x1F] MOVE_ENTITY: Update entity position (mode=1)
 24: 0x0230 [0x1F] MOVE_ENTITY: EventEntity moves to X=-42.767*, Z=87.755*, Y=-4.999*
 25: 0x0238 [0x1F] MOVE_ENTITY: Update entity position (mode=1)
 26: 0x023A [0x1F] MOVE_ENTITY: EventEntity moves to X=-41.067*, Z=92.184*, Y=-4.999*
 27: 0x0242 [0x1F] MOVE_ENTITY: Update entity position (mode=1)
 28: 0x0244 [0x1F] MOVE_ENTITY: EventEntity moves to X=-40.133*, Z=167.579*, Y=-5.023*
 29: 0x024C [0x1F] MOVE_ENTITY: Update entity position (mode=1)
 30: 0x024E [0x6F] WAIT_FRAME_DELAY: Yield until WaitTime reaches zero
 31: 0x024F [0x7E] CHOCOBO_MOUNT: Dismount 01 (ID: 17162781/0x0105E21D) (status = 0)
 32: 0x0255 [0x22] ENTITY_HIDE_FLAG(enabled=0x01)
 33: 0x0257 [0x2F] EventEntity->Render.Flags0 |= 0x80000 // Bit 19
 34: 0x025D [0x00] END_REQSTACK()
```

### Event 65535.23

#### Metadata

| Field        | Value     |
|--------------|-----------|
| Entrypoint   | 0x025E    |
| Data Size    | 186 bytes |
| Instructions | 38        |

```
      00 01 02 03 04 05 06 07  08 09 0A 0B 0C 0D 0E 0F
      -- -- -- -- -- -- -- --  -- -- -- -- -- -- -- --
0250:                                            1C 51                .Q
0260: 80 59 04 1E E2 05 01 52  80 1F 00 53 80 54 80 32  .Y.....R...S.T.2
0270: 80 1F 01 1F 00 55 80 56  80 32 80 1F 01 1F 00 57  .....U.V.2.....W
0280: 80 58 80 32 80 1F 01 1F  00 59 80 5A 80 32 80 1F  .X.2.....Y.Z.2..
0290: 01 1F 00 5B 80 5C 80 32  80 1F 01 1F 00 39 80 3A  ...[.\.2.....9.:
02A0: 80 3B 80 1F 01 1F 00 3C  80 3D 80 3B 80 1F 01 1F  .;.....<.=.;....
02B0: 00 3E 80 3F 80 3B 80 1F  01 1F 00 40 80 41 80 3B  .>.?.;.....@.A.;
02C0: 80 1F 01 1F 00 42 80 43  80 3B 80 1F 01 1F 00 44  .....B.C.;.....D
02D0: 80 45 80 46 80 1F 01 1F  00 47 80 48 80 49 80 1F  .E.F.....G.H.I..
02E0: 01 1F 00 5D 80 5E 80 49  80 1F 01 1F 00 5F 80 60  ...].^.I....._.`
02F0: 80 49 80 1F 01 1F 00 61  80 62 80 49 80 1F 01 1F  .I.....a.b.I....
0300: 00 4E 80 4F 80 50 80 1F  01 7E 05 1E E2 05 01 22  .N.O.P...~....."
0310: 01 2F 01 F8 FF FF 7F 00                           ./......        
```

#### Opcodes

```
  0: 0x025E [0x1C] WAIT(150* ticks)
  1: 0x0261 [0x59] UPDATE_ENTITY_DATA: Set 02 (ID: 17162782/0x0105E21E) main speed = 79* * 0.1
  2: 0x0269 [0x1F] MOVE_ENTITY: EventEntity moves to X=-0.735*, Z=52.571*, Y=-1.000*
  3: 0x0271 [0x1F] MOVE_ENTITY: Update entity position (mode=1)
  4: 0x0273 [0x1F] MOVE_ENTITY: EventEntity moves to X=-2.958*, Z=50.565*, Y=-1.000*
  5: 0x027B [0x1F] MOVE_ENTITY: Update entity position (mode=1)
  6: 0x027D [0x1F] MOVE_ENTITY: EventEntity moves to X=-6.578*, Z=43.709*, Y=-1.000*
  7: 0x0285 [0x1F] MOVE_ENTITY: Update entity position (mode=1)
  8: 0x0287 [0x1F] MOVE_ENTITY: EventEntity moves to X=-9.780*, Z=39.736*, Y=-1.000*
  9: 0x028F [0x1F] MOVE_ENTITY: Update entity position (mode=1)
 10: 0x0291 [0x1F] MOVE_ENTITY: EventEntity moves to X=-13.066*, Z=38.914*, Y=-1.000*
 11: 0x0299 [0x1F] MOVE_ENTITY: Update entity position (mode=1)
 12: 0x029B [0x1F] MOVE_ENTITY: EventEntity moves to X=-51.141*, Z=38.746*, Y=-3.499*
 13: 0x02A3 [0x1F] MOVE_ENTITY: Update entity position (mode=1)
 14: 0x02A5 [0x1F] MOVE_ENTITY: EventEntity moves to X=-63.152*, Z=42.731*, Y=-3.499*
 15: 0x02AD [0x1F] MOVE_ENTITY: Update entity position (mode=1)
 16: 0x02AF [0x1F] MOVE_ENTITY: EventEntity moves to X=-73.075*, Z=51.803*, Y=-3.499*
 17: 0x02B7 [0x1F] MOVE_ENTITY: Update entity position (mode=1)
 18: 0x02B9 [0x1F] MOVE_ENTITY: EventEntity moves to X=-78.613*, Z=59.364*, Y=-3.499*
 19: 0x02C1 [0x1F] MOVE_ENTITY: Update entity position (mode=1)
 20: 0x02C3 [0x1F] MOVE_ENTITY: EventEntity moves to X=-76.580*, Z=75.410*, Y=-3.499*
 21: 0x02CB [0x1F] MOVE_ENTITY: Update entity position (mode=1)
 22: 0x02CD [0x1F] MOVE_ENTITY: EventEntity moves to X=-64.004*, Z=81.361*, Y=-5.000*
 23: 0x02D5 [0x1F] MOVE_ENTITY: Update entity position (mode=1)
 24: 0x02D7 [0x1F] MOVE_ENTITY: EventEntity moves to X=-49.175*, Z=83.509*, Y=-4.999*
 25: 0x02DF [0x1F] MOVE_ENTITY: Update entity position (mode=1)
 26: 0x02E1 [0x1F] MOVE_ENTITY: EventEntity moves to X=-39.708*, Z=89.827*, Y=-4.999*
 27: 0x02E9 [0x1F] MOVE_ENTITY: Update entity position (mode=1)
 28: 0x02EB [0x1F] MOVE_ENTITY: EventEntity moves to X=-38.677*, Z=93.420*, Y=-4.999*
 29: 0x02F3 [0x1F] MOVE_ENTITY: Update entity position (mode=1)
 30: 0x02F5 [0x1F] MOVE_ENTITY: EventEntity moves to X=-38.282*, Z=99.163*, Y=-4.999*
 31: 0x02FD [0x1F] MOVE_ENTITY: Update entity position (mode=1)
 32: 0x02FF [0x1F] MOVE_ENTITY: EventEntity moves to X=-40.133*, Z=167.579*, Y=-5.023*
 33: 0x0307 [0x1F] MOVE_ENTITY: Update entity position (mode=1)
 34: 0x0309 [0x7E] CHOCOBO_MOUNT: Dismount 02 (ID: 17162782/0x0105E21E) (status = 0)
 35: 0x030F [0x22] ENTITY_HIDE_FLAG(enabled=0x01)
 36: 0x0311 [0x2F] EventEntity->Render.Flags0 |= 0x80000 // Bit 19
 37: 0x0317 [0x00] END_REQSTACK()
```

### Event 65535.24

#### Metadata

| Field        | Value    |
|--------------|----------|
| Entrypoint   | 0x0318   |
| Data Size    | 83 bytes |
| Instructions | 18       |

```
      00 01 02 03 04 05 06 07  08 09 0A 0B 0C 0D 0E 0F
      -- -- -- -- -- -- -- --  -- -- -- -- -- -- -- --
0310:                          59 04 25 E2 05 01 63 80          Y.%...c.
0320: 1F 00 64 80 65 80 49 80  1F 01 6F 59 04 F8 FF FF  ..d.e.I...oY....
0330: 7F 66 80 1F 00 67 80 68  80 49 80 1F 01 1F 00 69  .f...g.h.I.....i
0340: 80 6A 80 49 80 1F 01 1F  00 6B 80 6C 80 49 80 1F  .j.I.....k.l.I..
0350: 01 1F 00 4E 80 4F 80 50  80 1F 01 6F 7E 05 25 E2  ...N.O.P...o~.%.
0360: 05 01 22 01 2F 01 F8 FF  FF 7F 00                 .."./......     
```

#### Opcodes

```
  0: 0x0318 [0x59] UPDATE_ENTITY_DATA: Set Unnamed NPC (ID: 17162789/0x0105E225) main speed = 25* * 0.1
  1: 0x0320 [0x1F] MOVE_ENTITY: EventEntity moves to X=-25.197*, Z=86.979*, Y=-4.999*
  2: 0x0328 [0x1F] MOVE_ENTITY: Update entity position (mode=1)
  3: 0x032A [0x6F] WAIT_FRAME_DELAY: Yield until WaitTime reaches zero
  4: 0x032B [0x59] UPDATE_ENTITY_DATA: Set EventEntity main speed = 78* * 0.1
  5: 0x0333 [0x1F] MOVE_ENTITY: EventEntity moves to X=-32.985*, Z=94.399*, Y=-4.999*
  6: 0x033B [0x1F] MOVE_ENTITY: Update entity position (mode=1)
  7: 0x033D [0x1F] MOVE_ENTITY: EventEntity moves to X=-37.211*, Z=98.747*, Y=-4.999*
  8: 0x0345 [0x1F] MOVE_ENTITY: Update entity position (mode=1)
  9: 0x0347 [0x1F] MOVE_ENTITY: EventEntity moves to X=-38.522*, Z=107.127*, Y=-4.999*
 10: 0x034F [0x1F] MOVE_ENTITY: Update entity position (mode=1)
 11: 0x0351 [0x1F] MOVE_ENTITY: EventEntity moves to X=-40.133*, Z=167.579*, Y=-5.023*
 12: 0x0359 [0x1F] MOVE_ENTITY: Update entity position (mode=1)
 13: 0x035B [0x6F] WAIT_FRAME_DELAY: Yield until WaitTime reaches zero
 14: 0x035C [0x7E] CHOCOBO_MOUNT: Dismount Unnamed NPC (ID: 17162789/0x0105E225) (status = 0)
 15: 0x0362 [0x22] ENTITY_HIDE_FLAG(enabled=0x01)
 16: 0x0364 [0x2F] EventEntity->Render.Flags0 |= 0x80000 // Bit 19
 17: 0x036A [0x00] END_REQSTACK()
```

### Event 65535.25

#### Metadata

| Field        | Value     |
|--------------|-----------|
| Entrypoint   | 0x036B    |
| Data Size    | 154 bytes |
| Instructions | 32        |

```
      00 01 02 03 04 05 06 07  08 09 0A 0B 0C 0D 0E 0F
      -- -- -- -- -- -- -- --  -- -- -- -- -- -- -- --
0360:                                   59 04 26 E2 05             Y.&..
0370: 01 2F 80 1F 00 6D 80 6E  80 07 80 1F 01 1F 00 6F  ./...m.n.......o
0380: 80 70 80 07 80 1F 01 1F  00 71 80 72 80 07 80 1F  .p.......q.r....
0390: 01 1F 00 39 80 3A 80 3B  80 1F 01 1F 00 3C 80 3D  ...9.:.;.....<.=
03A0: 80 3B 80 1F 01 1F 00 3E  80 3F 80 3B 80 1F 01 1F  .;.....>.?.;....
03B0: 00 40 80 41 80 3B 80 1F  01 1F 00 42 80 43 80 3B  .@.A.;.....B.C.;
03C0: 80 1F 01 1F 00 44 80 45  80 46 80 1F 01 1F 00 47  .....D.E.F.....G
03D0: 80 48 80 49 80 1F 01 1F  00 4A 80 4B 80 49 80 1F  .H.I.....J.K.I..
03E0: 01 1F 00 4C 80 4D 80 49  80 1F 01 1F 00 4E 80 4F  ...L.M.I.....N.O
03F0: 80 50 80 1F 01 6F 7E 05  26 E2 05 01 22 01 2F 01  .P...o~.&..."./.
0400: F8 FF FF 7F 00                                    .....           
```

#### Opcodes

```
  0: 0x036B [0x59] UPDATE_ENTITY_DATA: Set Unnamed NPC (ID: 17162790/0x0105E226) main speed = 80* * 0.1
  1: 0x0373 [0x1F] MOVE_ENTITY: EventEntity moves to X=-6.086*, Z=31.136*, Y=-0.999*
  2: 0x037B [0x1F] MOVE_ENTITY: Update entity position (mode=1)
  3: 0x037D [0x1F] MOVE_ENTITY: EventEntity moves to X=-8.016*, Z=35.131*, Y=-0.999*
  4: 0x0385 [0x1F] MOVE_ENTITY: Update entity position (mode=1)
  5: 0x0387 [0x1F] MOVE_ENTITY: EventEntity moves to X=-11.617*, Z=38.998*, Y=-0.999*
  6: 0x038F [0x1F] MOVE_ENTITY: Update entity position (mode=1)
  7: 0x0391 [0x1F] MOVE_ENTITY: EventEntity moves to X=-51.141*, Z=38.746*, Y=-3.499*
  8: 0x0399 [0x1F] MOVE_ENTITY: Update entity position (mode=1)
  9: 0x039B [0x1F] MOVE_ENTITY: EventEntity moves to X=-63.152*, Z=42.731*, Y=-3.499*
 10: 0x03A3 [0x1F] MOVE_ENTITY: Update entity position (mode=1)
 11: 0x03A5 [0x1F] MOVE_ENTITY: EventEntity moves to X=-73.075*, Z=51.803*, Y=-3.499*
 12: 0x03AD [0x1F] MOVE_ENTITY: Update entity position (mode=1)
 13: 0x03AF [0x1F] MOVE_ENTITY: EventEntity moves to X=-78.613*, Z=59.364*, Y=-3.499*
 14: 0x03B7 [0x1F] MOVE_ENTITY: Update entity position (mode=1)
 15: 0x03B9 [0x1F] MOVE_ENTITY: EventEntity moves to X=-76.580*, Z=75.410*, Y=-3.499*
 16: 0x03C1 [0x1F] MOVE_ENTITY: Update entity position (mode=1)
 17: 0x03C3 [0x1F] MOVE_ENTITY: EventEntity moves to X=-64.004*, Z=81.361*, Y=-5.000*
 18: 0x03CB [0x1F] MOVE_ENTITY: Update entity position (mode=1)
 19: 0x03CD [0x1F] MOVE_ENTITY: EventEntity moves to X=-49.175*, Z=83.509*, Y=-4.999*
 20: 0x03D5 [0x1F] MOVE_ENTITY: Update entity position (mode=1)
 21: 0x03D7 [0x1F] MOVE_ENTITY: EventEntity moves to X=-42.767*, Z=87.755*, Y=-4.999*
 22: 0x03DF [0x1F] MOVE_ENTITY: Update entity position (mode=1)
 23: 0x03E1 [0x1F] MOVE_ENTITY: EventEntity moves to X=-41.067*, Z=92.184*, Y=-4.999*
 24: 0x03E9 [0x1F] MOVE_ENTITY: Update entity position (mode=1)
 25: 0x03EB [0x1F] MOVE_ENTITY: EventEntity moves to X=-40.133*, Z=167.579*, Y=-5.023*
 26: 0x03F3 [0x1F] MOVE_ENTITY: Update entity position (mode=1)
 27: 0x03F5 [0x6F] WAIT_FRAME_DELAY: Yield until WaitTime reaches zero
 28: 0x03F6 [0x7E] CHOCOBO_MOUNT: Dismount Unnamed NPC (ID: 17162790/0x0105E226) (status = 0)
 29: 0x03FC [0x22] ENTITY_HIDE_FLAG(enabled=0x01)
 30: 0x03FE [0x2F] EventEntity->Render.Flags0 |= 0x80000 // Bit 19
 31: 0x0404 [0x00] END_REQSTACK()
```

### Event 65535.26

#### Metadata

| Field        | Value     |
|--------------|-----------|
| Entrypoint   | 0x0405    |
| Data Size    | 167 bytes |
| Instructions | 35        |

```
      00 01 02 03 04 05 06 07  08 09 0A 0B 0C 0D 0E 0F
      -- -- -- -- -- -- -- --  -- -- -- -- -- -- -- --
0400:                1C 73 80  59 04 27 E2 05 01 66 80       .s.Y.'...f.
0410: 1F 00 74 80 75 80 07 80  1F 01 1F 00 76 80 77 80  ..t.u.......v.w.
0420: 07 80 1F 01 1F 00 78 80  79 80 07 80 1F 01 1F 00  ......x.y.......
0430: 39 80 3A 80 3B 80 1F 01  1F 00 3C 80 3D 80 3B 80  9.:.;.....<.=.;.
0440: 1F 01 1F 00 3E 80 3F 80  3B 80 1F 01 1F 00 40 80  ....>.?.;.....@.
0450: 41 80 3B 80 1F 01 1F 00  42 80 43 80 3B 80 1F 01  A.;.....B.C.;...
0460: 1F 00 44 80 45 80 46 80  1F 01 1F 00 47 80 48 80  ..D.E.F.....G.H.
0470: 49 80 1F 01 1F 00 5D 80  5E 80 49 80 1F 01 1F 00  I.....].^.I.....
0480: 5F 80 60 80 49 80 1F 01  1F 00 61 80 62 80 49 80  _.`.I.....a.b.I.
0490: 1F 01 1F 00 4E 80 4F 80  50 80 1F 01 6F 7E 05 27  ....N.O.P...o~.'
04A0: E2 05 01 22 01 2F 01 F8  FF FF 7F 00              ..."./......    
```

#### Opcodes

```
  0: 0x0405 [0x1C] WAIT(180* ticks)
  1: 0x0408 [0x59] UPDATE_ENTITY_DATA: Set Unnamed NPC (ID: 17162791/0x0105E227) main speed = 78* * 0.1
  2: 0x0410 [0x1F] MOVE_ENTITY: EventEntity moves to X=-1.740*, Z=31.643*, Y=-0.999*
  3: 0x0418 [0x1F] MOVE_ENTITY: Update entity position (mode=1)
  4: 0x041A [0x1F] MOVE_ENTITY: EventEntity moves to X=-4.175*, Z=36.997*, Y=-0.999*
  5: 0x0422 [0x1F] MOVE_ENTITY: Update entity position (mode=1)
  6: 0x0424 [0x1F] MOVE_ENTITY: EventEntity moves to X=-8.672*, Z=40.970*, Y=-0.999*
  7: 0x042C [0x1F] MOVE_ENTITY: Update entity position (mode=1)
  8: 0x042E [0x1F] MOVE_ENTITY: EventEntity moves to X=-51.141*, Z=38.746*, Y=-3.499*
  9: 0x0436 [0x1F] MOVE_ENTITY: Update entity position (mode=1)
 10: 0x0438 [0x1F] MOVE_ENTITY: EventEntity moves to X=-63.152*, Z=42.731*, Y=-3.499*
 11: 0x0440 [0x1F] MOVE_ENTITY: Update entity position (mode=1)
 12: 0x0442 [0x1F] MOVE_ENTITY: EventEntity moves to X=-73.075*, Z=51.803*, Y=-3.499*
 13: 0x044A [0x1F] MOVE_ENTITY: Update entity position (mode=1)
 14: 0x044C [0x1F] MOVE_ENTITY: EventEntity moves to X=-78.613*, Z=59.364*, Y=-3.499*
 15: 0x0454 [0x1F] MOVE_ENTITY: Update entity position (mode=1)
 16: 0x0456 [0x1F] MOVE_ENTITY: EventEntity moves to X=-76.580*, Z=75.410*, Y=-3.499*
 17: 0x045E [0x1F] MOVE_ENTITY: Update entity position (mode=1)
 18: 0x0460 [0x1F] MOVE_ENTITY: EventEntity moves to X=-64.004*, Z=81.361*, Y=-5.000*
 19: 0x0468 [0x1F] MOVE_ENTITY: Update entity position (mode=1)
 20: 0x046A [0x1F] MOVE_ENTITY: EventEntity moves to X=-49.175*, Z=83.509*, Y=-4.999*
 21: 0x0472 [0x1F] MOVE_ENTITY: Update entity position (mode=1)
 22: 0x0474 [0x1F] MOVE_ENTITY: EventEntity moves to X=-39.708*, Z=89.827*, Y=-4.999*
 23: 0x047C [0x1F] MOVE_ENTITY: Update entity position (mode=1)
 24: 0x047E [0x1F] MOVE_ENTITY: EventEntity moves to X=-38.677*, Z=93.420*, Y=-4.999*
 25: 0x0486 [0x1F] MOVE_ENTITY: Update entity position (mode=1)
 26: 0x0488 [0x1F] MOVE_ENTITY: EventEntity moves to X=-38.282*, Z=99.163*, Y=-4.999*
 27: 0x0490 [0x1F] MOVE_ENTITY: Update entity position (mode=1)
 28: 0x0492 [0x1F] MOVE_ENTITY: EventEntity moves to X=-40.133*, Z=167.579*, Y=-5.023*
 29: 0x049A [0x1F] MOVE_ENTITY: Update entity position (mode=1)
 30: 0x049C [0x6F] WAIT_FRAME_DELAY: Yield until WaitTime reaches zero
 31: 0x049D [0x7E] CHOCOBO_MOUNT: Dismount Unnamed NPC (ID: 17162791/0x0105E227) (status = 0)
 32: 0x04A3 [0x22] ENTITY_HIDE_FLAG(enabled=0x01)
 33: 0x04A5 [0x2F] EventEntity->Render.Flags0 |= 0x80000 // Bit 19
 34: 0x04AB [0x00] END_REQSTACK()
```

### Event 65535.27

#### Metadata

| Field        | Value    |
|--------------|----------|
| Entrypoint   | 0x04AC   |
| Data Size    | 69 bytes |
| Instructions | 15       |

```
      00 01 02 03 04 05 06 07  08 09 0A 0B 0C 0D 0E 0F
      -- -- -- -- -- -- -- --  -- -- -- -- -- -- -- --
04A0:                                      1C 7A 80 59              .z.Y
04B0: 04 94 E2 05 01 7B 80 1F  00 7C 80 7D 80 7E 80 1F  .....{...|.}.~..
04C0: 01 1F 00 7F 80 80 80 7E  80 1F 01 59 04 F8 FF FF  .......~...Y....
04D0: 7F 01 80 1F 00 81 80 82  80 7E 80 1F 01 1F 00 83  .........~......
04E0: 80 84 80 3B 80 1F 01 6F  22 01 2F 01 F8 FF FF 7F  ...;...o"./.....
04F0: 00                                                .               
```

#### Opcodes

```
  0: 0x04AC [0x1C] WAIT(360* ticks)
  1: 0x04AF [0x59] UPDATE_ENTITY_DATA: Set 02 (ID: 17162900/0x0105E294) main speed = 15* * 0.1
  2: 0x04B7 [0x1F] MOVE_ENTITY: EventEntity moves to X=-26.970*, Z=63.607*, Y=-3.500*
  3: 0x04BF [0x1F] MOVE_ENTITY: Update entity position (mode=1)
  4: 0x04C1 [0x1F] MOVE_ENTITY: EventEntity moves to X=-25.762*, Z=63.002*, Y=-3.500*
  5: 0x04C9 [0x1F] MOVE_ENTITY: Update entity position (mode=1)
  6: 0x04CB [0x59] UPDATE_ENTITY_DATA: Set EventEntity main speed = 40* * 0.1
  7: 0x04D3 [0x1F] MOVE_ENTITY: EventEntity moves to X=-47.406*, Z=58.894*, Y=-3.500*
  8: 0x04DB [0x1F] MOVE_ENTITY: Update entity position (mode=1)
  9: 0x04DD [0x1F] MOVE_ENTITY: EventEntity moves to X=-56.954*, Z=53.463*, Y=-3.499*
 10: 0x04E5 [0x1F] MOVE_ENTITY: Update entity position (mode=1)
 11: 0x04E7 [0x6F] WAIT_FRAME_DELAY: Yield until WaitTime reaches zero
 12: 0x04E8 [0x22] ENTITY_HIDE_FLAG(enabled=0x01)
 13: 0x04EA [0x2F] EventEntity->Render.Flags0 |= 0x80000 // Bit 19
 14: 0x04F0 [0x00] END_REQSTACK()
```

### Event 65535.28

#### Metadata

| Field        | Value    |
|--------------|----------|
| Entrypoint   | 0x04F1   |
| Data Size    | 38 bytes |
| Instructions | 9        |

```
      00 01 02 03 04 05 06 07  08 09 0A 0B 0C 0D 0E 0F
      -- -- -- -- -- -- -- --  -- -- -- -- -- -- -- --
04F0:    59 04 F8 FF FF 7F 85  80 1F 00 86 80 87 80 88   Y..............
0500: 80 1F 01 1F 00 89 80 8A  80 7E 80 1F 01 6F 22 01  .........~...o".
0510: 2F 01 F8 FF FF 7F 00                              /......         
```

#### Opcodes

```
  0: 0x04F1 [0x59] UPDATE_ENTITY_DATA: Set EventEntity main speed = 27* * 0.1
  1: 0x04F9 [0x1F] MOVE_ENTITY: EventEntity moves to X=-30.382*, Z=74.601*, Y=-3.574*
  2: 0x0501 [0x1F] MOVE_ENTITY: Update entity position (mode=1)
  3: 0x0503 [0x1F] MOVE_ENTITY: EventEntity moves to X=-54.461*, Z=69.456*, Y=-3.500*
  4: 0x050B [0x1F] MOVE_ENTITY: Update entity position (mode=1)
  5: 0x050D [0x6F] WAIT_FRAME_DELAY: Yield until WaitTime reaches zero
  6: 0x050E [0x22] ENTITY_HIDE_FLAG(enabled=0x01)
  7: 0x0510 [0x2F] EventEntity->Render.Flags0 |= 0x80000 // Bit 19
  8: 0x0516 [0x00] END_REQSTACK()
```

### Event 65535.29

#### Metadata

| Field        | Value    |
|--------------|----------|
| Entrypoint   | 0x0517   |
| Data Size    | 38 bytes |
| Instructions | 9        |

```
      00 01 02 03 04 05 06 07  08 09 0A 0B 0C 0D 0E 0F
      -- -- -- -- -- -- -- --  -- -- -- -- -- -- -- --
0510:                      59  04 F8 FF FF 7F 85 80 1F         Y........
0520: 00 8B 80 8C 80 8D 80 1F  01 1F 00 8E 80 8F 80 7E  ...............~
0530: 80 1F 01 6F 22 01 2F 01  F8 FF FF 7F 00           ...o"./......   
```

#### Opcodes

```
  0: 0x0517 [0x59] UPDATE_ENTITY_DATA: Set EventEntity main speed = 27* * 0.1
  1: 0x051F [0x1F] MOVE_ENTITY: EventEntity moves to X=-29.325*, Z=75.371*, Y=-3.529*
  2: 0x0527 [0x1F] MOVE_ENTITY: Update entity position (mode=1)
  3: 0x0529 [0x1F] MOVE_ENTITY: EventEntity moves to X=-53.209*, Z=70.575*, Y=-3.500*
  4: 0x0531 [0x1F] MOVE_ENTITY: Update entity position (mode=1)
  5: 0x0533 [0x6F] WAIT_FRAME_DELAY: Yield until WaitTime reaches zero
  6: 0x0534 [0x22] ENTITY_HIDE_FLAG(enabled=0x01)
  7: 0x0536 [0x2F] EventEntity->Render.Flags0 |= 0x80000 // Bit 19
  8: 0x053C [0x00] END_REQSTACK()
```

### Event 65535.30

#### Metadata

| Field        | Value    |
|--------------|----------|
| Entrypoint   | 0x053D   |
| Data Size    | 48 bytes |
| Instructions | 11       |

```
      00 01 02 03 04 05 06 07  08 09 0A 0B 0C 0D 0E 0F
      -- -- -- -- -- -- -- --  -- -- -- -- -- -- -- --
0530:                                         59 04 F8               Y..
0540: FF FF 7F 85 80 1F 00 90  80 91 80 92 80 1F 01 1F  ................
0550: 00 93 80 94 80 7E 80 1F  01 1F 00 95 80 96 80 7E  .....~.........~
0560: 80 1F 01 6F 22 01 2F 01  F8 FF FF 7F 00           ...o"./......   
```

#### Opcodes

```
  0: 0x053D [0x59] UPDATE_ENTITY_DATA: Set EventEntity main speed = 27* * 0.1
  1: 0x0545 [0x1F] MOVE_ENTITY: EventEntity moves to X=-27.766*, Z=73.600*, Y=-3.414*
  2: 0x054D [0x1F] MOVE_ENTITY: Update entity position (mode=1)
  3: 0x054F [0x1F] MOVE_ENTITY: EventEntity moves to X=-52.430*, Z=73.638*, Y=-3.500*
  4: 0x0557 [0x1F] MOVE_ENTITY: Update entity position (mode=1)
  5: 0x0559 [0x1F] MOVE_ENTITY: EventEntity moves to X=-54.193*, Z=72.044*, Y=-3.500*
  6: 0x0561 [0x1F] MOVE_ENTITY: Update entity position (mode=1)
  7: 0x0563 [0x6F] WAIT_FRAME_DELAY: Yield until WaitTime reaches zero
  8: 0x0564 [0x22] ENTITY_HIDE_FLAG(enabled=0x01)
  9: 0x0566 [0x2F] EventEntity->Render.Flags0 |= 0x80000 // Bit 19
 10: 0x056C [0x00] END_REQSTACK()
```

### Event 65535.31

#### Metadata

| Field        | Value    |
|--------------|----------|
| Entrypoint   | 0x056D   |
| Data Size    | 19 bytes |
| Instructions | 4        |

```
      00 01 02 03 04 05 06 07  08 09 0A 0B 0C 0D 0E 0F
      -- -- -- -- -- -- -- --  -- -- -- -- -- -- -- --
0560:                                         59 04 F8               Y..
0570: FF FF 7F 97 80 1F 00 98  80 99 80 46 80 1F 01 00  ...........F....
```

#### Opcodes

```
  0: 0x056D [0x59] UPDATE_ENTITY_DATA: Set EventEntity main speed = 42* * 0.1
  1: 0x0575 [0x1F] MOVE_ENTITY: EventEntity moves to X=-22.678*, Z=81.353*, Y=-5.000*
  2: 0x057D [0x1F] MOVE_ENTITY: Update entity position (mode=1)
  3: 0x057F [0x00] END_REQSTACK()
```

### Event 65535.32

#### Metadata

| Field        | Value    |
|--------------|----------|
| Entrypoint   | 0x0580   |
| Data Size    | 22 bytes |
| Instructions | 5        |

```
      00 01 02 03 04 05 06 07  08 09 0A 0B 0C 0D 0E 0F
      -- -- -- -- -- -- -- --  -- -- -- -- -- -- -- --
0580: 59 04 F8 FF FF 7F 97 80  1C 9A 80 1F 00 98 80 99  Y...............
0590: 80 46 80 1F 01 00                                 .F....          
```

#### Opcodes

```
  0: 0x0580 [0x59] UPDATE_ENTITY_DATA: Set EventEntity main speed = 42* * 0.1
  1: 0x0588 [0x1C] WAIT(60* ticks)
  2: 0x058B [0x1F] MOVE_ENTITY: EventEntity moves to X=-22.678*, Z=81.353*, Y=-5.000*
  3: 0x0593 [0x1F] MOVE_ENTITY: Update entity position (mode=1)
  4: 0x0595 [0x00] END_REQSTACK()
```

### Event 65535.33

#### Metadata

| Field        | Value    |
|--------------|----------|
| Entrypoint   | 0x0596   |
| Data Size    | 22 bytes |
| Instructions | 5        |

```
      00 01 02 03 04 05 06 07  08 09 0A 0B 0C 0D 0E 0F
      -- -- -- -- -- -- -- --  -- -- -- -- -- -- -- --
0590:                   59 04  F8 FF FF 7F 97 80 1C 9B        Y.........
05A0: 80 1F 00 98 80 99 80 46  80 1F 01 00              .......F....    
```

#### Opcodes

```
  0: 0x0596 [0x59] UPDATE_ENTITY_DATA: Set EventEntity main speed = 42* * 0.1
  1: 0x059E [0x1C] WAIT(120* ticks)
  2: 0x05A1 [0x1F] MOVE_ENTITY: EventEntity moves to X=-22.678*, Z=81.353*, Y=-5.000*
  3: 0x05A9 [0x1F] MOVE_ENTITY: Update entity position (mode=1)
  4: 0x05AB [0x00] END_REQSTACK()
```

### Event 65535.34

#### Metadata

| Field        | Value    |
|--------------|----------|
| Entrypoint   | 0x05AC   |
| Data Size    | 13 bytes |
| Instructions | 5        |

```
      00 01 02 03 04 05 06 07  08 09 0A 0B 0C 0D 0E 0F
      -- -- -- -- -- -- -- --  -- -- -- -- -- -- -- --
05A0:                                      06 08 10 1C              ....
05B0: 9C 80 1C 9D 80 05 08 10  00                       .........       
```

#### Opcodes

```
  0: 0x05AC [0x06] Work_Zone[8] = 0
  1: 0x05AF [0x1C] WAIT(600* ticks)
  2: 0x05B2 [0x1C] WAIT(5* ticks)
  3: 0x05B5 [0x05] Work_Zone[8] = 1
  4: 0x05B8 [0x00] END_REQSTACK()
```

### Event 65535.35

#### Metadata

| Field        | Value     |
|--------------|-----------|
| Entrypoint   | 0x05B9    |
| Data Size    | 221 bytes |
| Instructions | 26        |

```
      00 01 02 03 04 05 06 07  08 09 0A 0B 0C 0D 0E 0F
      -- -- -- -- -- -- -- --  -- -- -- -- -- -- -- --
05B0:                             06 09 10 1C 51 80 52           ....Q.R
05C0: 9E 80 F0 FF FF 7F F0 FF  FF 7F 79 30 34 32 45 9E  ..........y042E.
05D0: 80 1E E2 05 01 1E E2 05  01 79 30 34 35 11 80 1C  .........y045...
05E0: 9F 80 52 9E 80 1E E2 05  01 1E E2 05 01 79 30 34  ..R..........y04
05F0: 35 45 9E 80 F0 FF FF 7F  F0 FF FF 7F 79 30 35 32  5E..........y052
0600: 11 80 27 10 93 E2 05 01  0C 27 10 95 E2 05 01 0C  ..'......'......
0610: BA 44 E2 05 01 A0 80 A1  80 3B 80 A2 80 BA 45 E2  .D.......;....E.
0620: 05 01 A0 80 A1 80 3B 80  A2 80 BA 46 E2 05 01 A0  ......;....F....
0630: 80 A1 80 3B 80 A2 80 29  10 23 E2 05 01 02 29 10  ...;...).#....).
0640: 24 E2 05 01 02 79 00 28  E2 05 01 20 E2 05 01 66  $....y.(... ...f
0650: A3 80 28 E2 05 01 28 E2  05 01 74 6C 6B 30 27 10  ..(...(...tlk0'.
0660: FE E2 05 01 0F 27 10 FF  E2 05 01 10 27 10 00 E3  .....'......'...
0670: 05 01 11 1C 9D 80 27 10  44 E2 05 01 13 27 10 45  ......'.D....'.E
0680: E2 05 01 15 27 10 46 E2  05 01 16 27 10 11 E3 05  ....'.F....'....
0690: 01 12 05 09 10 00                                 ......          
```

#### Opcodes

```
  0: 0x05B9 [0x06] Work_Zone[9] = 0
  1: 0x05BC [0x1C] WAIT(150* ticks)
  2: 0x05BF [0x52] END_LOAD_SCHEDULER: End scheduler "y042" with entities [LocalPlayer, LocalPlayer], work=533*
  3: 0x05CE [0x45] LOAD_SCHEDULED_TASK: Load scheduler "y045" with entities [02 (ID: 17162782/0x0105E21E), 02 (ID: 17162782/0x0105E21E)], work=[533*, 0*]
  4: 0x05DF [0x1C] WAIT(300* ticks)
  5: 0x05E2 [0x52] END_LOAD_SCHEDULER: End scheduler "y045" with entities [02 (ID: 17162782/0x0105E21E), 02 (ID: 17162782/0x0105E21E)], work=533*
  6: 0x05F1 [0x45] LOAD_SCHEDULED_TASK: Load scheduler "y052" with entities [LocalPlayer, LocalPlayer], work=[533*, 0*]
  7: 0x0602 [0x27] REQ_SET(priority=0x10, entity_id=01 (ID: 17162899/0x0105E293), tag_num=0x0C)
  8: 0x0609 [0x27] REQ_SET(priority=0x10, entity_id=02 (ID: 17162901/0x0105E295), tag_num=0x0C)
  9: 0x0610 [0xBA] SET_ENTITY_POSITION(entity_id=02 (ID: 17162820/0x0105E244), pos_x=-60.989*, pos_z=70.254*, pos_y=-3.499*, direction=359.7°*)
 10: 0x061D [0xBA] SET_ENTITY_POSITION(entity_id=03 (ID: 17162821/0x0105E245), pos_x=-60.989*, pos_z=70.254*, pos_y=-3.499*, direction=359.7°*)
 11: 0x062A [0xBA] SET_ENTITY_POSITION(entity_id=04 (ID: 17162822/0x0105E246), pos_x=-60.989*, pos_z=70.254*, pos_y=-3.499*, direction=359.7°*)
 12: 0x0637 [0x29] REQ_SET_WAIT(priority=0x10, entity_id=07 (ID: 17162787/0x0105E223), tag_num=0x02)
 13: 0x063E [0x29] REQ_SET_WAIT(priority=0x10, entity_id=Unnamed NPC (ID: 17162788/0x0105E224), tag_num=0x02)
 14: 0x0645 [0x79] Unnamed NPC (ID: 17162792/0x0105E228) looks at 04 (ID: 17162784/0x0105E220) (Basic look)
 15: 0x064F [0x66] LOAD_EXT_SCHEDULER_MAIN: Load scheduler "tlk0" with entities [Unnamed NPC (ID: 17162792/0x0105E228), Unnamed NPC (ID: 17162792/0x0105E228)], work=49*
 16: 0x065E [0x27] REQ_SET(priority=0x10, entity_id=01 (ID: 17163006/0x0105E2FE), tag_num=0x0F)
 17: 0x0665 [0x27] REQ_SET(priority=0x10, entity_id=02 (ID: 17163007/0x0105E2FF), tag_num=0x10)
 18: 0x066C [0x27] REQ_SET(priority=0x10, entity_id=03 (ID: 17163008/0x0105E300), tag_num=0x11)
 19: 0x0673 [0x1C] WAIT(5* ticks)
 20: 0x0676 [0x27] REQ_SET(priority=0x10, entity_id=02 (ID: 17162820/0x0105E244), tag_num=0x13)
 21: 0x067D [0x27] REQ_SET(priority=0x10, entity_id=03 (ID: 17162821/0x0105E245), tag_num=0x15)
 22: 0x0684 [0x27] REQ_SET(priority=0x10, entity_id=04 (ID: 17162822/0x0105E246), tag_num=0x16)
 23: 0x068B [0x27] REQ_SET(priority=0x10, entity_id=Unnamed NPC (ID: 17163025/0x0105E311), tag_num=0x12)
 24: 0x0692 [0x05] Work_Zone[9] = 1
 25: 0x0695 [0x00] END_REQSTACK()
```

### Event 65535.36

#### Metadata

| Field        | Value    |
|--------------|----------|
| Entrypoint   | 0x0696   |
| Data Size    | 76 bytes |
| Instructions | 8        |

```
      00 01 02 03 04 05 06 07  08 09 0A 0B 0C 0D 0E 0F
      -- -- -- -- -- -- -- --  -- -- -- -- -- -- -- --
0690:                   06 08  10 55 9E 80 F0 FF FF 7F        ...U......
06A0: F0 FF FF 7F 79 30 35 32  52 9E 80 F0 FF FF 7F F0  ....y052R.......
06B0: FF FF 7F 79 30 35 32 27  10 1F E2 05 01 09 45 9E  ...y052'......E.
06C0: 80 F0 FF FF 7F F0 FF FF  7F 79 30 35 34 11 80 05  .........y054...
06D0: 08 10 55 9E 80 F0 FF FF  7F F0 FF FF 7F 79 30 35  ..U..........y05
06E0: 34 00                                             4.              
```

#### Opcodes

```
  0: 0x0696 [0x06] Work_Zone[8] = 0
  1: 0x0699 [0x55] WAIT_LOAD_SCHEDULER: Wait for scheduler "y052" with entities [LocalPlayer, LocalPlayer], work=533*
  2: 0x06A8 [0x52] END_LOAD_SCHEDULER: End scheduler "y052" with entities [LocalPlayer, LocalPlayer], work=533*
  3: 0x06B7 [0x27] REQ_SET(priority=0x10, entity_id=03 (ID: 17162783/0x0105E21F), tag_num=0x09)
  4: 0x06BE [0x45] LOAD_SCHEDULED_TASK: Load scheduler "y054" with entities [LocalPlayer, LocalPlayer], work=[533*, 0*]
  5: 0x06CF [0x05] Work_Zone[8] = 1
  6: 0x06D2 [0x55] WAIT_LOAD_SCHEDULER: Wait for scheduler "y054" with entities [LocalPlayer, LocalPlayer], work=533*
  7: 0x06E1 [0x00] END_REQSTACK()
```

### Event 65535.37

#### Metadata

| Field        | Value    |
|--------------|----------|
| Entrypoint   | 0x06E2   |
| Data Size    | 49 bytes |
| Instructions | 5        |

```
      00 01 02 03 04 05 06 07  08 09 0A 0B 0C 0D 0E 0F
      -- -- -- -- -- -- -- --  -- -- -- -- -- -- -- --
06E0:       7B 06 E2 05 01 5B  08 80 06 E2 05 01 06 E2    {....[........
06F0: 05 01 6B 75 69 30 53 06  E2 05 01 06 E2 05 01 6B  ..kui0S........k
0700: 75 69 30 5B 08 80 06 E2  05 01 06 E2 05 01 65 68  ui0[..........eh
0710: 6E 30 00                                          n0.             
```

#### Opcodes

```
  0: 0x06E2 [0x7B] Ajido-Marujido (ID: 17162758/0x0105E206) stops talking
  1: 0x06E7 [0x5B] LOAD_EXT_SCHEDULER: Load scheduler "kui0" with entities [Ajido-Marujido (ID: 17162758/0x0105E206), Ajido-Marujido (ID: 17162758/0x0105E206)], work=1288*
  2: 0x06F6 [0x53] WAIT_SCHEDULER_TASK: Wait for scheduler "kui0" with entities [Ajido-Marujido (ID: 17162758/0x0105E206), Ajido-Marujido (ID: 17162758/0x0105E206)]
  3: 0x0703 [0x5B] LOAD_EXT_SCHEDULER: Load scheduler "ehn0" with entities [Ajido-Marujido (ID: 17162758/0x0105E206), Ajido-Marujido (ID: 17162758/0x0105E206)], work=1288*
  4: 0x0712 [0x00] END_REQSTACK()
```

### Event 65535.38

#### Metadata

| Field        | Value    |
|--------------|----------|
| Entrypoint   | 0x0713   |
| Data Size    | 29 bytes |
| Instructions | 6        |

```
      00 01 02 03 04 05 06 07  08 09 0A 0B 0C 0D 0E 0F
      -- -- -- -- -- -- -- --  -- -- -- -- -- -- -- --
0710:          59 04 F8 FF FF  7F 01 80 1F 00 A4 80 A5     Y............
0720: 80 32 80 1F 01 6F 4A 43  E2 05 01 06 E2 05 01 00  .2...oJC........
```

#### Opcodes

```
  0: 0x0713 [0x59] UPDATE_ENTITY_DATA: Set EventEntity main speed = 40* * 0.1
  1: 0x071B [0x1F] MOVE_ENTITY: EventEntity moves to X=-5.296*, Z=12.328*, Y=-1.000*
  2: 0x0723 [0x1F] MOVE_ENTITY: Update entity position (mode=1)
  3: 0x0725 [0x6F] WAIT_FRAME_DELAY: Yield until WaitTime reaches zero
  4: 0x0726 [0x4A] 01 (ID: 17162819/0x0105E243) looks at Ajido-Marujido (ID: 17162758/0x0105E206)
  5: 0x072F [0x00] END_REQSTACK()
```

### Event 65535.39

#### Metadata

| Field        | Value    |
|--------------|----------|
| Entrypoint   | 0x0730   |
| Data Size    | 49 bytes |
| Instructions | 7        |

```
      00 01 02 03 04 05 06 07  08 09 0A 0B 0C 0D 0E 0F
      -- -- -- -- -- -- -- --  -- -- -- -- -- -- -- --
0730: 1C A6 80 5B 08 80 06 E2  05 01 06 E2 05 01 65 68  ...[..........eh
0740: 6E 31 4A 06 E2 05 01 43  E2 05 01 6F 76 06 E2 05  n1J....C...ov...
0750: 01 5B A7 80 06 E2 05 01  06 E2 05 01 73 75 72 30  .[..........sur0
0760: 00                                                .               
```

#### Opcodes

```
  0: 0x0730 [0x1C] WAIT(160* ticks)
  1: 0x0733 [0x5B] LOAD_EXT_SCHEDULER: Load scheduler "ehn1" with entities [Ajido-Marujido (ID: 17162758/0x0105E206), Ajido-Marujido (ID: 17162758/0x0105E206)], work=1288*
  2: 0x0742 [0x4A] Ajido-Marujido (ID: 17162758/0x0105E206) looks at 01 (ID: 17162819/0x0105E243)
  3: 0x074B [0x6F] WAIT_FRAME_DELAY: Yield until WaitTime reaches zero
  4: 0x074C [0x76] CHECK_ENTITY_RENDER_FLAGS: Wait until Ajido-Marujido (ID: 17162758/0x0105E206) Render.Flags0 and Render.Flags3 conditions are met
  5: 0x0751 [0x5B] LOAD_EXT_SCHEDULER: Load scheduler "sur0" with entities [Ajido-Marujido (ID: 17162758/0x0105E206), Ajido-Marujido (ID: 17162758/0x0105E206)], work=85*
  6: 0x0760 [0x00] END_REQSTACK()
```

### Event 65535.40

#### Metadata

| Field        | Value    |
|--------------|----------|
| Entrypoint   | 0x0761   |
| Data Size    | 20 bytes |
| Instructions | 5        |

```
      00 01 02 03 04 05 06 07  08 09 0A 0B 0C 0D 0E 0F
      -- -- -- -- -- -- -- --  -- -- -- -- -- -- -- --
0760:    59 04 F8 FF FF 7F A8  80 1F 00 A9 80 AA 80 32   Y.............2
0770: 80 1F 01 6F 00                                    ...o.           
```

#### Opcodes

```
  0: 0x0761 [0x59] UPDATE_ENTITY_DATA: Set EventEntity main speed = 7* * 0.1
  1: 0x0769 [0x1F] MOVE_ENTITY: EventEntity moves to X=-0.307*, Z=13.248*, Y=-1.000*
  2: 0x0771 [0x1F] MOVE_ENTITY: Update entity position (mode=1)
  3: 0x0773 [0x6F] WAIT_FRAME_DELAY: Yield until WaitTime reaches zero
  4: 0x0774 [0x00] END_REQSTACK()
```

### Event 65535.41

#### Metadata

| Field        | Value    |
|--------------|----------|
| Entrypoint   | 0x0775   |
| Data Size    | 47 bytes |
| Instructions | 6        |

```
      00 01 02 03 04 05 06 07  08 09 0A 0B 0C 0D 0E 0F
      -- -- -- -- -- -- -- --  -- -- -- -- -- -- -- --
0770:                5B A7 80  06 E2 05 01 06 E2 05 01       [..........
0780: 73 75 72 30 53 06 E2 05  01 06 E2 05 01 73 75 72  sur0S........sur
0790: 30 59 04 F8 FF FF 7F AB  80 1F 00 AC 80 AD 80 07  0Y..............
07A0: 80 1F 01 00                                       ....            
```

#### Opcodes

```
  0: 0x0775 [0x5B] LOAD_EXT_SCHEDULER: Load scheduler "sur0" with entities [Ajido-Marujido (ID: 17162758/0x0105E206), Ajido-Marujido (ID: 17162758/0x0105E206)], work=85*
  1: 0x0784 [0x53] WAIT_SCHEDULER_TASK: Wait for scheduler "sur0" with entities [Ajido-Marujido (ID: 17162758/0x0105E206), Ajido-Marujido (ID: 17162758/0x0105E206)]
  2: 0x0791 [0x59] UPDATE_ENTITY_DATA: Set EventEntity main speed = 35* * 0.1
  3: 0x0799 [0x1F] MOVE_ENTITY: EventEntity moves to X=-1.006*, Z=16.226*, Y=-0.999*
  4: 0x07A1 [0x1F] MOVE_ENTITY: Update entity position (mode=1)
  5: 0x07A3 [0x00] END_REQSTACK()
```

### Event 65535.42

#### Metadata

| Field        | Value    |
|--------------|----------|
| Entrypoint   | 0x07A4   |
| Data Size    | 21 bytes |
| Instructions | 3        |

```
      00 01 02 03 04 05 06 07  08 09 0A 0B 0C 0D 0E 0F
      -- -- -- -- -- -- -- --  -- -- -- -- -- -- -- --
07A0:             1C AE 80 45  AF 80 F0 FF FF 7F F0 FF      ...E........
07B0: FF 7F 62 6C 6F 6E 11 80  00                       ..blon...       
```

#### Opcodes

```
  0: 0x07A4 [0x1C] WAIT(75* ticks)
  1: 0x07A7 [0x45] LOAD_SCHEDULED_TASK: Load scheduler "blon" with entities [LocalPlayer, LocalPlayer], work=[201*, 0*]
  2: 0x07B8 [0x00] END_REQSTACK()
```

### Event 65535.43

#### Metadata

| Field        | Value     |
|--------------|-----------|
| Entrypoint   | 0x07B9    |
| Data Size    | 161 bytes |
| Instructions | 17        |

```
      00 01 02 03 04 05 06 07  08 09 0A 0B 0C 0D 0E 0F
      -- -- -- -- -- -- -- --  -- -- -- -- -- -- -- --
07B0:                             59 04 F8 FF FF 7F AB           Y......
07C0: 80 1F 00 B0 80 B1 80 32  80 1F 01 6F BA F0 FF FF  .......2...o....
07D0: 7F B2 80 B3 80 07 80 B4  80 1C 9D 80 5B B5 80 06  ............[...
07E0: E2 05 01 06 E2 05 01 61  75 70 30 53 06 E2 05 01  .......aup0S....
07F0: 06 E2 05 01 61 75 70 30  50 06 E2 05 01 06 E2 05  ....aup0P.......
0800: 01 61 75 70 30 5B B6 80  43 E2 05 01 43 E2 05 01  .aup0[..C...C...
0810: 6A 74 30 30 5B B7 80 06  E2 05 01 06 E2 05 01 6A  jt00[..........j
0820: 74 30 30 55 B8 80 F0 FF  FF 7F F0 FF FF 7F 79 31  t00U..........y1
0830: 32 31 27 10 43 E2 05 01  03 BA 06 E2 05 01 B0 80  21'.C...........
0840: B1 80 32 80 B9 80 4A FF  E1 05 01 06 E2 05 01 79  ..2...J........y
0850: 00 FF E1 05 01 06 E2 05  01 00                    ..........      
```

#### Opcodes

```
  0: 0x07B9 [0x59] UPDATE_ENTITY_DATA: Set EventEntity main speed = 35* * 0.1
  1: 0x07C1 [0x1F] MOVE_ENTITY: EventEntity moves to X=-1.058*, Z=17.433*, Y=-1.000*
  2: 0x07C9 [0x1F] MOVE_ENTITY: Update entity position (mode=1)
  3: 0x07CB [0x6F] WAIT_FRAME_DELAY: Yield until WaitTime reaches zero
  4: 0x07CC [0xBA] SET_ENTITY_POSITION(entity_id=LocalPlayer, pos_x=1.032*, pos_z=15.680*, pos_y=-0.999*, direction=220.0°*)
  5: 0x07D9 [0x1C] WAIT(5* ticks)
  6: 0x07DC [0x5B] LOAD_EXT_SCHEDULER: Load scheduler "aup0" with entities [Ajido-Marujido (ID: 17162758/0x0105E206), Ajido-Marujido (ID: 17162758/0x0105E206)], work=1286*
  7: 0x07EB [0x53] WAIT_SCHEDULER_TASK: Wait for scheduler "aup0" with entities [Ajido-Marujido (ID: 17162758/0x0105E206), Ajido-Marujido (ID: 17162758/0x0105E206)]
  8: 0x07F8 [0x50] END_SCHEDULER_TASK: End scheduler "au" with entities [0xE206, 0xE206], work=[261, 261]
  9: 0x0805 [0x5B] LOAD_EXT_SCHEDULER: Load scheduler "jt00" with entities [01 (ID: 17162819/0x0105E243), 01 (ID: 17162819/0x0105E243)], work=181*
 10: 0x0814 [0x5B] LOAD_EXT_SCHEDULER: Load scheduler "jt00" with entities [Ajido-Marujido (ID: 17162758/0x0105E206), Ajido-Marujido (ID: 17162758/0x0105E206)], work=86*
 11: 0x0823 [0x55] WAIT_LOAD_SCHEDULER: Wait for scheduler "y121" with entities [LocalPlayer, LocalPlayer], work=393*
 12: 0x0832 [0x27] REQ_SET(priority=0x10, entity_id=01 (ID: 17162819/0x0105E243), tag_num=0x03)
 13: 0x0839 [0xBA] SET_ENTITY_POSITION(entity_id=Ajido-Marujido (ID: 17162758/0x0105E206), pos_x=-1.058*, pos_z=17.433*, pos_y=-1.000*, direction=266.2°*)
 14: 0x0846 [0x4A] Dhea Prandoleh (ID: 17162751/0x0105E1FF) looks at Ajido-Marujido (ID: 17162758/0x0105E206)
 15: 0x084F [0x79] Dhea Prandoleh (ID: 17162751/0x0105E1FF) looks at Ajido-Marujido (ID: 17162758/0x0105E206) (Basic look)
 16: 0x0859 [0x00] END_REQSTACK()
```

### Event 65535.44

#### Metadata

| Field        | Value    |
|--------------|----------|
| Entrypoint   | 0x085A   |
| Data Size    | 20 bytes |
| Instructions | 5        |

```
      00 01 02 03 04 05 06 07  08 09 0A 0B 0C 0D 0E 0F
      -- -- -- -- -- -- -- --  -- -- -- -- -- -- -- --
0850:                                59 04 F8 FF FF 7F            Y.....
0860: BA 80 1F 00 BB 80 BC 80  BD 80 1F 01 6F 00        ............o.  
```

#### Opcodes

```
  0: 0x085A [0x59] UPDATE_ENTITY_DATA: Set EventEntity main speed = 36* * 0.1
  1: 0x0862 [0x1F] MOVE_ENTITY: EventEntity moves to X=-7.685*, Z=7.819*, Y=-1.026*
  2: 0x086A [0x1F] MOVE_ENTITY: Update entity position (mode=1)
  3: 0x086C [0x6F] WAIT_FRAME_DELAY: Yield until WaitTime reaches zero
  4: 0x086D [0x00] END_REQSTACK()
```

### Event 20

#### Metadata

| Field        | Value   |
|--------------|---------|
| Entrypoint   | 0x086E  |
| Data Size    | 1 bytes |
| Instructions | 1       |

```
      00 01 02 03 04 05 06 07  08 09 0A 0B 0C 0D 0E 0F
      -- -- -- -- -- -- -- --  -- -- -- -- -- -- -- --
0860:                                            00                   . 
```

#### Opcodes

```
  0: 0x086E [0x00] END_REQSTACK()
```

### Event 23

#### Metadata

| Field        | Value   |
|--------------|---------|
| Entrypoint   | 0x086F  |
| Data Size    | 1 bytes |
| Instructions | 1       |

```
      00 01 02 03 04 05 06 07  08 09 0A 0B 0C 0D 0E 0F
      -- -- -- -- -- -- -- --  -- -- -- -- -- -- -- --
0860:                                               00                 .
```

#### Opcodes

```
  0: 0x086F [0x00] END_REQSTACK()
```

### Event 33

#### Metadata

| Field        | Value   |
|--------------|---------|
| Entrypoint   | 0x0870  |
| Data Size    | 1 bytes |
| Instructions | 1       |

```
      00 01 02 03 04 05 06 07  08 09 0A 0B 0C 0D 0E 0F
      -- -- -- -- -- -- -- --  -- -- -- -- -- -- -- --
0870: 00                                                .               
```

#### Opcodes

```
  0: 0x0870 [0x00] END_REQSTACK()
```
