# 17162768 - Lhu Mhakaracca

## Common Data

| Field            | Value                        |
|------------------|------------------------------|
| Zone             | Windurst Waters [S] (ID: 94) |
| Block Size       | 592 bytes                    |
| Total Events     | 25                           |
| References Count | 39                           |

## List of Events

| Event ID                   | Entrypoint   |   Size |   Instructions |
|----------------------------|--------------|--------|----------------|
| [65535](#event-65535)      | 0x0000       |      1 |              1 |
| [158](#event-158)          | 0x0001       |      1 |              1 |
| [165](#event-165)          | 0x0002       |      1 |              1 |
| [168](#event-168)          | 0x0003       |      1 |              1 |
| [65535.1](#event-655351)   | 0x0004       |     26 |              8 |
| [65535.2](#event-655352)   | 0x001E       |     29 |              7 |
| [65535.3](#event-655353)   | 0x003B       |     20 |              6 |
| [65535.4](#event-655354)   | 0x004F       |     20 |              6 |
| [65535.5](#event-655355)   | 0x0063       |     39 |              9 |
| [182](#event-182)          | 0x008A       |      1 |              1 |
| [23](#event-23)            | 0x008B       |      1 |              1 |
| [65535.6](#event-655356)   | 0x008C       |     24 |              6 |
| [33](#event-33)            | 0x00A4       |      1 |              1 |
| [65535.7](#event-655357)   | 0x00A5       |     13 |              3 |
| [65535.8](#event-655358)   | 0x00B2       |     16 |              2 |
| [65535.9](#event-655359)   | 0x00C2       |     16 |              4 |
| [65535.10](#event-6553510) | 0x00D2       |     21 |              2 |
| [65535.11](#event-6553511) | 0x00E7       |     21 |              2 |
| [65535.12](#event-6553512) | 0x00FC       |      1 |              1 |
| [65535.13](#event-6553513) | 0x00FD       |     18 |              4 |
| [65535.14](#event-6553514) | 0x010F       |     10 |              2 |
| [65535.15](#event-6553515) | 0x0119       |      9 |              3 |
| [65535.16](#event-6553516) | 0x0122       |      9 |              3 |
| [65535.17](#event-6553517) | 0x012B       |     10 |              2 |
| [65535.18](#event-6553518) | 0x0135       |     10 |              2 |

## DAT References (imed_data)

|   Index | Hex Value   |   Dec Value |
|---------|-------------|-------------|
|       0 | 0x0028      |          40 |
|       1 | 0xFFFFA14B  |  4294943051 |
|       2 | 0x9F0D      |       40717 |
|       3 | 0xFFFFF255  |  4294963797 |
|       4 | 0xFFFFC8EE  |  4294953198 |
|       5 | 0x9E5A      |       40538 |
|       6 | 0xFFFFFC18  |  4294966296 |
|       7 | 0xFFFFEAC7  |  4294961863 |
|       8 | 0x8426      |       33830 |
|       9 | 0x0FBA      |        4026 |
|      10 | 0x002A      |          42 |
|      11 | 0xFFFFF694  |  4294964884 |
|      12 | 0x88B9      |       35001 |
|      13 | 0x000D      |          13 |
|      14 | 0xFFFFF642  |  4294964802 |
|      15 | 0x8223      |       33315 |
|      16 | 0xFFFF6522  |  4294927650 |
|      17 | 0x34362     |      213858 |
|      18 | 0xFFFFEC7F  |  4294962303 |
|      19 | 0x0021      |          33 |
|      20 | 0x000F      |          15 |
|      21 | 0x0063      |          99 |
|      22 | 0xFFFFF7FD  |  4294965245 |
|      23 | 0xFFFF9C65  |  4294941797 |
|      24 | 0x7189      |       29065 |
|      25 | 0x09DC      |        2524 |
|      26 | 0xFFFF9A71  |  4294941297 |
|      27 | 0x000B      |          11 |
|      28 | 0x052F      |        1327 |
|      29 | 0x003C      |          60 |
|      30 | 0x000C      |          12 |
|      31 | 0x0007      |           7 |
|      32 | 0x0001      |           1 |
|      33 | 0x0000      |           0 |
|      34 | 0x00A2      |         162 |
|      35 | 0x0051      |          81 |
|      36 | 0x015B      |         347 |
|      37 | 0x0035      |          53 |
|      38 | 0x0080      |         128 |

## Events

### Event 65535

#### Metadata

| Field        | Value   |
|--------------|---------|
| Entrypoint   | 0x0000  |
| Data Size    | 1 bytes |
| Instructions | 1       |

```
      00 01 02 03 04 05 06 07  08 09 0A 0B 0C 0D 0E 0F
      -- -- -- -- -- -- -- --  -- -- -- -- -- -- -- --
0000: 00                                                .               
```

#### Opcodes

```
  0: 0x0000 [0x00] END_REQSTACK()
```

### Event 158

#### Metadata

| Field        | Value   |
|--------------|---------|
| Entrypoint   | 0x0001  |
| Data Size    | 1 bytes |
| Instructions | 1       |

```
      00 01 02 03 04 05 06 07  08 09 0A 0B 0C 0D 0E 0F
      -- -- -- -- -- -- -- --  -- -- -- -- -- -- -- --
0000:    00                                              .              
```

#### Opcodes

```
  0: 0x0001 [0x00] END_REQSTACK()
```

### Event 165

#### Metadata

| Field        | Value   |
|--------------|---------|
| Entrypoint   | 0x0002  |
| Data Size    | 1 bytes |
| Instructions | 1       |

```
      00 01 02 03 04 05 06 07  08 09 0A 0B 0C 0D 0E 0F
      -- -- -- -- -- -- -- --  -- -- -- -- -- -- -- --
0000:       00                                            .             
```

#### Opcodes

```
  0: 0x0002 [0x00] END_REQSTACK()
```

### Event 168

#### Metadata

| Field        | Value   |
|--------------|---------|
| Entrypoint   | 0x0003  |
| Data Size    | 1 bytes |
| Instructions | 1       |

```
      00 01 02 03 04 05 06 07  08 09 0A 0B 0C 0D 0E 0F
      -- -- -- -- -- -- -- --  -- -- -- -- -- -- -- --
0000:          00                                          .            
```

#### Opcodes

```
  0: 0x0003 [0x00] END_REQSTACK()
```

### Event 65535.1

#### Metadata

| Field        | Value    |
|--------------|----------|
| Entrypoint   | 0x0004   |
| Data Size    | 26 bytes |
| Instructions | 8        |

```
      00 01 02 03 04 05 06 07  08 09 0A 0B 0C 0D 0E 0F
      -- -- -- -- -- -- -- --  -- -- -- -- -- -- -- --
0000:             32 00 80 1F  00 01 80 02 80 03 80 1F      2...........
0010: 01 6F 1F 00 04 80 05 80  06 80 1F 01 6F 00        .o..........o.  
```

#### Opcodes

```
  0: 0x0004 [0x32] ExtData[1]->MainSpeed = 40* * 0.1
  1: 0x0007 [0x1F] MOVE_ENTITY: EventEntity moves to X=-24.245*, Z=40.717*, Y=-3.499*
  2: 0x000F [0x1F] MOVE_ENTITY: Update entity position (mode=1)
  3: 0x0011 [0x6F] WAIT_FRAME_DELAY: Yield until WaitTime reaches zero
  4: 0x0012 [0x1F] MOVE_ENTITY: EventEntity moves to X=-14.098*, Z=40.538*, Y=-1.000*
  5: 0x001A [0x1F] MOVE_ENTITY: Update entity position (mode=1)
  6: 0x001C [0x6F] WAIT_FRAME_DELAY: Yield until WaitTime reaches zero
  7: 0x001D [0x00] END_REQSTACK()
```

### Event 65535.2

#### Metadata

| Field        | Value    |
|--------------|----------|
| Entrypoint   | 0x001E   |
| Data Size    | 29 bytes |
| Instructions | 7        |

```
      00 01 02 03 04 05 06 07  08 09 0A 0B 0C 0D 0E 0F
      -- -- -- -- -- -- -- --  -- -- -- -- -- -- -- --
0010:                                            37 07                7.
0020: 80 08 80 06 80 09 80 32  0A 80 1F 00 0B 80 0C 80  .......2........
0030: 06 80 1F 01 6F 1E 36 E2  05 01 00                 ....o.6....     
```

#### Opcodes

```
  0: 0x001E [0x37] UPDATE_EVENT_POSITION_AND_DIR: x=-5.433*, z=33.830*, y=-1.000*, direction=353.8°*
  1: 0x0027 [0x32] ExtData[1]->MainSpeed = 42* * 0.1
  2: 0x002A [0x1F] MOVE_ENTITY: EventEntity moves to X=-2.412*, Z=35.001*, Y=-1.000*
  3: 0x0032 [0x1F] MOVE_ENTITY: Update entity position (mode=1)
  4: 0x0034 [0x6F] WAIT_FRAME_DELAY: Yield until WaitTime reaches zero
  5: 0x0035 [0x1E] EventEntity looks at Lehko Habhoka (ID: 17162806/0x0105E236) and starts talking
  6: 0x003A [0x00] END_REQSTACK()
```

### Event 65535.3

#### Metadata

| Field        | Value    |
|--------------|----------|
| Entrypoint   | 0x003B   |
| Data Size    | 20 bytes |
| Instructions | 6        |

```
      00 01 02 03 04 05 06 07  08 09 0A 0B 0C 0D 0E 0F
      -- -- -- -- -- -- -- --  -- -- -- -- -- -- -- --
0030:                                   32 0D 80 1F 00             2....
0040: 0E 80 0F 80 06 80 1F 01  6F 1E F0 FF FF 7F 00     ........o...... 
```

#### Opcodes

```
  0: 0x003B [0x32] ExtData[1]->MainSpeed = 13* * 0.1
  1: 0x003E [0x1F] MOVE_ENTITY: EventEntity moves to X=-2.494*, Z=33.315*, Y=-1.000*
  2: 0x0046 [0x1F] MOVE_ENTITY: Update entity position (mode=1)
  3: 0x0048 [0x6F] WAIT_FRAME_DELAY: Yield until WaitTime reaches zero
  4: 0x0049 [0x1E] EventEntity looks at LocalPlayer and starts talking
  5: 0x004E [0x00] END_REQSTACK()
```

### Event 65535.4

#### Metadata

| Field        | Value    |
|--------------|----------|
| Entrypoint   | 0x004F   |
| Data Size    | 20 bytes |
| Instructions | 6        |

```
      00 01 02 03 04 05 06 07  08 09 0A 0B 0C 0D 0E 0F
      -- -- -- -- -- -- -- --  -- -- -- -- -- -- -- --
0040:                                               32                 2
0050: 00 80 1F 00 0B 80 0C 80  06 80 1F 01 6F 1E 36 E2  ............o.6.
0060: 05 01 00                                          ...             
```

#### Opcodes

```
  0: 0x004F [0x32] ExtData[1]->MainSpeed = 40* * 0.1
  1: 0x0052 [0x1F] MOVE_ENTITY: EventEntity moves to X=-2.412*, Z=35.001*, Y=-1.000*
  2: 0x005A [0x1F] MOVE_ENTITY: Update entity position (mode=1)
  3: 0x005C [0x6F] WAIT_FRAME_DELAY: Yield until WaitTime reaches zero
  4: 0x005D [0x1E] EventEntity looks at Lehko Habhoka (ID: 17162806/0x0105E236) and starts talking
  5: 0x0062 [0x00] END_REQSTACK()
```

### Event 65535.5

#### Metadata

| Field        | Value    |
|--------------|----------|
| Entrypoint   | 0x0063   |
| Data Size    | 39 bytes |
| Instructions | 9        |

```
      00 01 02 03 04 05 06 07  08 09 0A 0B 0C 0D 0E 0F
      -- -- -- -- -- -- -- --  -- -- -- -- -- -- -- --
0060:          1F 00 10 80 11  80 12 80 1F 01 6F 4A 10     ..........oJ.
0070: E2 05 01 08 E2 05 01 6F  76 10 E2 05 01 6E 10 E2  .......ov....n..
0080: 05 01 13 80 99 10 E2 05  01 00                    ..........      
```

#### Opcodes

```
  0: 0x0063 [0x1F] MOVE_ENTITY: EventEntity moves to X=-39.646*, Z=213.858*, Y=-4.993*
  1: 0x006B [0x1F] MOVE_ENTITY: Update entity position (mode=1)
  2: 0x006D [0x6F] WAIT_FRAME_DELAY: Yield until WaitTime reaches zero
  3: 0x006E [0x4A] Lhu Mhakaracca (ID: 17162768/0x0105E210) looks at Romaa Mihgo (ID: 17162760/0x0105E208)
  4: 0x0077 [0x6F] WAIT_FRAME_DELAY: Yield until WaitTime reaches zero
  5: 0x0078 [0x76] CHECK_ENTITY_RENDER_FLAGS: Wait until Lhu Mhakaracca (ID: 17162768/0x0105E210) Render.Flags0 and Render.Flags3 conditions are met
  6: 0x007D [0x6E] Lhu Mhakaracca (ID: 17162768/0x0105E210) uses emote 33*
  7: 0x0084 [0x99] Wait for Lhu Mhakaracca (ID: 17162768/0x0105E210) animation to complete
  8: 0x0089 [0x00] END_REQSTACK()
```

### Event 182

#### Metadata

| Field        | Value   |
|--------------|---------|
| Entrypoint   | 0x008A  |
| Data Size    | 1 bytes |
| Instructions | 1       |

```
      00 01 02 03 04 05 06 07  08 09 0A 0B 0C 0D 0E 0F
      -- -- -- -- -- -- -- --  -- -- -- -- -- -- -- --
0080:                                00                           .     
```

#### Opcodes

```
  0: 0x008A [0x00] END_REQSTACK()
```

### Event 23

#### Metadata

| Field        | Value   |
|--------------|---------|
| Entrypoint   | 0x008B  |
| Data Size    | 1 bytes |
| Instructions | 1       |

```
      00 01 02 03 04 05 06 07  08 09 0A 0B 0C 0D 0E 0F
      -- -- -- -- -- -- -- --  -- -- -- -- -- -- -- --
0080:                                   00                         .    
```

#### Opcodes

```
  0: 0x008B [0x00] END_REQSTACK()
```

### Event 65535.6

#### Metadata

| Field        | Value    |
|--------------|----------|
| Entrypoint   | 0x008C   |
| Data Size    | 24 bytes |
| Instructions | 6        |

```
      00 01 02 03 04 05 06 07  08 09 0A 0B 0C 0D 0E 0F
      -- -- -- -- -- -- -- --  -- -- -- -- -- -- -- --
0080:                                      1C 14 80 1F              ....
0090: 00 15 80 16 80 17 80 1F  01 1F 00 18 80 19 80 1A  ................
00A0: 80 1F 01 00                                       ....            
```

#### Opcodes

```
  0: 0x008C [0x1C] WAIT(15* ticks)
  1: 0x008F [0x1F] MOVE_ENTITY: EventEntity moves to X=0.099*, Z=-2.051*, Y=-25.499*
  2: 0x0097 [0x1F] MOVE_ENTITY: Update entity position (mode=1)
  3: 0x0099 [0x1F] MOVE_ENTITY: EventEntity moves to X=29.065*, Z=2.524*, Y=-25.999*
  4: 0x00A1 [0x1F] MOVE_ENTITY: Update entity position (mode=1)
  5: 0x00A3 [0x00] END_REQSTACK()
```

### Event 33

#### Metadata

| Field        | Value   |
|--------------|---------|
| Entrypoint   | 0x00A4  |
| Data Size    | 1 bytes |
| Instructions | 1       |

```
      00 01 02 03 04 05 06 07  08 09 0A 0B 0C 0D 0E 0F
      -- -- -- -- -- -- -- --  -- -- -- -- -- -- -- --
00A0:             00                                        .           
```

#### Opcodes

```
  0: 0x00A4 [0x00] END_REQSTACK()
```

### Event 65535.7

#### Metadata

| Field        | Value    |
|--------------|----------|
| Entrypoint   | 0x00A5   |
| Data Size    | 13 bytes |
| Instructions | 3        |

```
      00 01 02 03 04 05 06 07  08 09 0A 0B 0C 0D 0E 0F
      -- -- -- -- -- -- -- --  -- -- -- -- -- -- -- --
00A0:                6E F8 FF  FF 7F 1B 80 99 F8 FF FF       n..........
00B0: 7F 00                                             ..              
```

#### Opcodes

```
  0: 0x00A5 [0x6E] EventEntity uses emote 11*
  1: 0x00AC [0x99] Wait for EventEntity animation to complete
  2: 0x00B1 [0x00] END_REQSTACK()
```

### Event 65535.8

#### Metadata

| Field        | Value    |
|--------------|----------|
| Entrypoint   | 0x00B2   |
| Data Size    | 16 bytes |
| Instructions | 2        |

```
      00 01 02 03 04 05 06 07  08 09 0A 0B 0C 0D 0E 0F
      -- -- -- -- -- -- -- --  -- -- -- -- -- -- -- --
00B0:       5B 1C 80 F8 FF FF  7F F8 FF FF 7F 73 74 62    [..........stb
00C0: 30 00                                             0.              
```

#### Opcodes

```
  0: 0x00B2 [0x5B] LOAD_EXT_SCHEDULER: Load scheduler "stb0" with entities [EventEntity, EventEntity], work=1327*
  1: 0x00C1 [0x00] END_REQSTACK()
```

### Event 65535.9

#### Metadata

| Field        | Value    |
|--------------|----------|
| Entrypoint   | 0x00C2   |
| Data Size    | 16 bytes |
| Instructions | 4        |

```
      00 01 02 03 04 05 06 07  08 09 0A 0B 0C 0D 0E 0F
      -- -- -- -- -- -- -- --  -- -- -- -- -- -- -- --
00C0:       1C 1D 80 6E F8 FF  FF 7F 1E 80 99 F8 FF FF    ...n..........
00D0: 7F 00                                             ..              
```

#### Opcodes

```
  0: 0x00C2 [0x1C] WAIT(60* ticks)
  1: 0x00C5 [0x6E] EventEntity uses emote 12*
  2: 0x00CC [0x99] Wait for EventEntity animation to complete
  3: 0x00D1 [0x00] END_REQSTACK()
```

### Event 65535.10

#### Metadata

| Field        | Value    |
|--------------|----------|
| Entrypoint   | 0x00D2   |
| Data Size    | 21 bytes |
| Instructions | 2        |

```
      00 01 02 03 04 05 06 07  08 09 0A 0B 0C 0D 0E 0F
      -- -- -- -- -- -- -- --  -- -- -- -- -- -- -- --
00D0:       B6 0B 1F 80 20 80  21 80 1B 80 1B 80 22 80    .... .!.....".
00E0: 22 80 21 80 21 80 00                              ".!.!..         
```

#### Opcodes

```
  0: 0x00D2 [0xB6] ENTITY_APPEARANCE_HANDLER(case=Full entity look, race=7*, hair=1*, head=0*, body=11*, hands=11*, legs=162*, feet=162*, main=0*, sub=0*)
  1: 0x00E6 [0x00] END_REQSTACK()
```

### Event 65535.11

#### Metadata

| Field        | Value    |
|--------------|----------|
| Entrypoint   | 0x00E7   |
| Data Size    | 21 bytes |
| Instructions | 2        |

```
      00 01 02 03 04 05 06 07  08 09 0A 0B 0C 0D 0E 0F
      -- -- -- -- -- -- -- --  -- -- -- -- -- -- -- --
00E0:                      B6  0B 1F 80 0D 80 23 80 23         ......#.#
00F0: 80 23 80 23 80 23 80 24  80 25 80 00              .#.#.#.$.%..    
```

#### Opcodes

```
  0: 0x00E7 [0xB6] ENTITY_APPEARANCE_HANDLER(case=Full entity look, race=7*, hair=13*, head=81*, body=81*, hands=81*, legs=81*, feet=81*, main=347*, sub=53*)
  1: 0x00FB [0x00] END_REQSTACK()
```

### Event 65535.12

#### Metadata

| Field        | Value   |
|--------------|---------|
| Entrypoint   | 0x00FC  |
| Data Size    | 1 bytes |
| Instructions | 1       |

```
      00 01 02 03 04 05 06 07  08 09 0A 0B 0C 0D 0E 0F
      -- -- -- -- -- -- -- --  -- -- -- -- -- -- -- --
00F0:                                      00                       .   
```

#### Opcodes

```
  0: 0x00FC [0x00] END_REQSTACK()
```

### Event 65535.13

#### Metadata

| Field        | Value    |
|--------------|----------|
| Entrypoint   | 0x00FD   |
| Data Size    | 18 bytes |
| Instructions | 4        |

```
      00 01 02 03 04 05 06 07  08 09 0A 0B 0C 0D 0E 0F
      -- -- -- -- -- -- -- --  -- -- -- -- -- -- -- --
00F0:                                         22 00 2F               "./
0100: 00 F8 FF FF 7F 6C F8 FF  FF 7F 21 80 20 80 00     .....l....!. .. 
```

#### Opcodes

```
  0: 0x00FD [0x22] ENTITY_HIDE_FLAG(enabled=0x00)
  1: 0x00FF [0x2F] EventEntity->Render.Flags0 &= ~0x80000 // Bit 19
  2: 0x0105 [0x6C] FADE_ENTITY_COLOR(entity_id=EventEntity, end_alpha=0*, fade_time=1*)
  3: 0x010E [0x00] END_REQSTACK()
```

### Event 65535.14

#### Metadata

| Field        | Value    |
|--------------|----------|
| Entrypoint   | 0x010F   |
| Data Size    | 10 bytes |
| Instructions | 2        |

```
      00 01 02 03 04 05 06 07  08 09 0A 0B 0C 0D 0E 0F
      -- -- -- -- -- -- -- --  -- -- -- -- -- -- -- --
0100:                                               6C                 l
0110: F8 FF FF 7F 26 80 20 80  00                       ....&. ..       
```

#### Opcodes

```
  0: 0x010F [0x6C] FADE_ENTITY_COLOR(entity_id=EventEntity, end_alpha=128*, fade_time=1*)
  1: 0x0118 [0x00] END_REQSTACK()
```

### Event 65535.15

#### Metadata

| Field        | Value   |
|--------------|---------|
| Entrypoint   | 0x0119  |
| Data Size    | 9 bytes |
| Instructions | 3       |

```
      00 01 02 03 04 05 06 07  08 09 0A 0B 0C 0D 0E 0F
      -- -- -- -- -- -- -- --  -- -- -- -- -- -- -- --
0110:                             22 00 2F 00 F8 FF FF           "./....
0120: 7F 00                                             ..              
```

#### Opcodes

```
  0: 0x0119 [0x22] ENTITY_HIDE_FLAG(enabled=0x00)
  1: 0x011B [0x2F] EventEntity->Render.Flags0 &= ~0x80000 // Bit 19
  2: 0x0121 [0x00] END_REQSTACK()
```

### Event 65535.16

#### Metadata

| Field        | Value   |
|--------------|---------|
| Entrypoint   | 0x0122  |
| Data Size    | 9 bytes |
| Instructions | 3       |

```
      00 01 02 03 04 05 06 07  08 09 0A 0B 0C 0D 0E 0F
      -- -- -- -- -- -- -- --  -- -- -- -- -- -- -- --
0120:       22 01 2F 01 F8 FF  FF 7F 00                   "./......     
```

#### Opcodes

```
  0: 0x0122 [0x22] ENTITY_HIDE_FLAG(enabled=0x01)
  1: 0x0124 [0x2F] EventEntity->Render.Flags0 |= 0x80000 // Bit 19
  2: 0x012A [0x00] END_REQSTACK()
```

### Event 65535.17

#### Metadata

| Field        | Value    |
|--------------|----------|
| Entrypoint   | 0x012B   |
| Data Size    | 10 bytes |
| Instructions | 2        |

```
      00 01 02 03 04 05 06 07  08 09 0A 0B 0C 0D 0E 0F
      -- -- -- -- -- -- -- --  -- -- -- -- -- -- -- --
0120:                                   6C F8 FF FF 7F             l....
0130: 21 80 20 80 00                                    !. ..           
```

#### Opcodes

```
  0: 0x012B [0x6C] FADE_ENTITY_COLOR(entity_id=EventEntity, end_alpha=0*, fade_time=1*)
  1: 0x0134 [0x00] END_REQSTACK()
```

### Event 65535.18

#### Metadata

| Field        | Value    |
|--------------|----------|
| Entrypoint   | 0x0135   |
| Data Size    | 10 bytes |
| Instructions | 2        |

```
      00 01 02 03 04 05 06 07  08 09 0A 0B 0C 0D 0E 0F
      -- -- -- -- -- -- -- --  -- -- -- -- -- -- -- --
0130:                6C F8 FF  FF 7F 26 80 20 80 00          l....&. .. 
```

#### Opcodes

```
  0: 0x0135 [0x6C] FADE_ENTITY_COLOR(entity_id=EventEntity, end_alpha=128*, fade_time=1*)
  1: 0x013E [0x00] END_REQSTACK()
```
