# 17162772 - Nhiko Rhaabel

## Common Data

| Field            | Value                        |
|------------------|------------------------------|
| Zone             | Windurst Waters [S] (ID: 94) |
| Block Size       | 720 bytes                    |
| Total Events     | 34                           |
| References Count | 50                           |

## List of Events

| Event ID                   | Entrypoint   |   Size |   Instructions |
|----------------------------|--------------|--------|----------------|
| [65535](#event-65535)      | 0x0000       |      1 |              1 |
| [128](#event-128)          | 0x0001       |      1 |              1 |
| [65535.1](#event-655351)   | 0x0002       |     20 |              6 |
| [65535.2](#event-655352)   | 0x0016       |     28 |              8 |
| [65535.3](#event-655353)   | 0x0032       |     26 |              8 |
| [65535.4](#event-655354)   | 0x004C       |     16 |              4 |
| [65535.5](#event-655355)   | 0x005C       |     13 |              3 |
| [65535.6](#event-655356)   | 0x0069       |      1 |              1 |
| [65535.7](#event-655357)   | 0x006A       |     18 |              4 |
| [65535.8](#event-655358)   | 0x007C       |     10 |              2 |
| [65535.9](#event-655359)   | 0x0086       |      9 |              3 |
| [65535.10](#event-6553510) | 0x008F       |      9 |              3 |
| [65535.11](#event-6553511) | 0x0098       |     10 |              2 |
| [65535.12](#event-6553512) | 0x00A2       |     10 |              2 |
| [231](#event-231)          | 0x00AC       |      1 |              1 |
| [232](#event-232)          | 0x00AD       |      1 |              1 |
| [65535.13](#event-6553513) | 0x00AE       |      3 |              2 |
| [65535.14](#event-6553514) | 0x00B1       |      3 |              2 |
| [65535.15](#event-6553515) | 0x00B4       |      5 |              2 |
| [65535.16](#event-6553516) | 0x00B9       |      5 |              2 |
| [158](#event-158)          | 0x00BE       |      1 |              1 |
| [165](#event-165)          | 0x00BF       |      1 |              1 |
| [168](#event-168)          | 0x00C0       |      1 |              1 |
| [65535.17](#event-6553517) | 0x00C1       |      4 |              2 |
| [65535.18](#event-6553518) | 0x00C5       |     26 |              8 |
| [65535.19](#event-6553519) | 0x00DF       |     15 |              5 |
| [65535.20](#event-6553520) | 0x00EE       |     20 |              6 |
| [65535.21](#event-6553521) | 0x0102       |     13 |              3 |
| [33](#event-33)            | 0x010F       |      1 |              1 |
| [65535.22](#event-6553522) | 0x0110       |     13 |              3 |
| [65535.23](#event-6553523) | 0x011D       |     14 |              4 |
| [65535.24](#event-6553524) | 0x012B       |     24 |              6 |
| [65535.25](#event-6553525) | 0x0143       |     21 |              2 |
| [65535.26](#event-6553526) | 0x0158       |     21 |              2 |

## DAT References (imed_data)

|   Index | Hex Value   |   Dec Value |
|---------|-------------|-------------|
|       0 | 0x000F      |          15 |
|       1 | 0xFFFFE616  |  4294960662 |
|       2 | 0x272D      |       10029 |
|       3 | 0xFFFFFC19  |  4294966297 |
|       4 | 0x001E      |          30 |
|       5 | 0x000D      |          13 |
|       6 | 0x01C3      |         451 |
|       7 | 0x3B68      |       15208 |
|       8 | 0xFFFFFC18  |  4294966296 |
|       9 | 0x0028      |          40 |
|      10 | 0xFFFFF3F6  |  4294964214 |
|      11 | 0x4C85      |       19589 |
|      12 | 0xFFFFD86E  |  4294957166 |
|      13 | 0x8235      |       33333 |
|      14 | 0x002B      |          43 |
|      15 | 0x0007      |           7 |
|      16 | 0x0000      |           0 |
|      17 | 0x0001      |           1 |
|      18 | 0x0080      |         128 |
|      19 | 0x005D      |          93 |
|      20 | 0x0059      |          89 |
|      21 | 0x0BB8      |        3000 |
|      22 | 0xFFFFA4DC  |  4294943964 |
|      23 | 0xA036      |       41014 |
|      24 | 0xFFFFF255  |  4294963797 |
|      25 | 0xFFFFBB72  |  4294949746 |
|      26 | 0xA13C      |       41276 |
|      27 | 0xFFFFF90B  |  4294965515 |
|      28 | 0x00F5      |         245 |
|      29 | 0x8C7C      |       35964 |
|      30 | 0x0094      |         148 |
|      31 | 0x85D1      |       34257 |
|      32 | 0x000E      |          14 |
|      33 | 0x0024      |          36 |
|      34 | 0x8547      |       34119 |
|      35 | 0xFFFF07AF  |  4294903727 |
|      36 | 0xFFFFF63C  |  4294964796 |
|      37 | 0xFFFCE84D  |  4294764621 |
|      38 | 0xFFFCAF78  |  4294750072 |
|      39 | 0xFFFEF759  |  4294899545 |
|      40 | 0xFFFCF0DC  |  4294766812 |
|      41 | 0xFFFCE187  |  4294762887 |
|      42 | 0xFFFEF65B  |  4294899291 |
|      43 | 0x001A      |          26 |
|      44 | 0x0064      |         100 |
|      45 | 0x0003      |           3 |
|      46 | 0x0089      |         137 |
|      47 | 0x0010      |          16 |
|      48 | 0x0081      |         129 |
|      49 | 0x006F      |         111 |

## Events

### Event 65535

#### Metadata

| Field        | Value   |
|--------------|---------|
| Entrypoint   | 0x0000  |
| Data Size    | 1 bytes |
| Instructions | 1       |

```
      00 01 02 03 04 05 06 07  08 09 0A 0B 0C 0D 0E 0F
      -- -- -- -- -- -- -- --  -- -- -- -- -- -- -- --
0000: 00                                                .               
```

#### Opcodes

```
  0: 0x0000 [0x00] END_REQSTACK()
```

### Event 128

#### Metadata

| Field        | Value   |
|--------------|---------|
| Entrypoint   | 0x0001  |
| Data Size    | 1 bytes |
| Instructions | 1       |

```
      00 01 02 03 04 05 06 07  08 09 0A 0B 0C 0D 0E 0F
      -- -- -- -- -- -- -- --  -- -- -- -- -- -- -- --
0000:    00                                              .              
```

#### Opcodes

```
  0: 0x0001 [0x00] END_REQSTACK()
```

### Event 65535.1

#### Metadata

| Field        | Value    |
|--------------|----------|
| Entrypoint   | 0x0002   |
| Data Size    | 20 bytes |
| Instructions | 6        |

```
      00 01 02 03 04 05 06 07  08 09 0A 0B 0C 0D 0E 0F
      -- -- -- -- -- -- -- --  -- -- -- -- -- -- -- --
0000:       32 00 80 1F 00 01  80 02 80 03 80 1F 01 6F    2............o
0010: 1E 13 E2 05 01 00                                 ......          
```

#### Opcodes

```
  0: 0x0002 [0x32] ExtData[1]->MainSpeed = 15* * 0.1
  1: 0x0005 [0x1F] MOVE_ENTITY: EventEntity moves to X=-6.634*, Z=10.029*, Y=-0.999*
  2: 0x000D [0x1F] MOVE_ENTITY: Update entity position (mode=1)
  3: 0x000F [0x6F] WAIT_FRAME_DELAY: Yield until WaitTime reaches zero
  4: 0x0010 [0x1E] EventEntity looks at Ghyo Molkot (ID: 17162771/0x0105E213) and starts talking
  5: 0x0015 [0x00] END_REQSTACK()
```

### Event 65535.2

#### Metadata

| Field        | Value    |
|--------------|----------|
| Entrypoint   | 0x0016   |
| Data Size    | 28 bytes |
| Instructions | 8        |

```
      00 01 02 03 04 05 06 07  08 09 0A 0B 0C 0D 0E 0F
      -- -- -- -- -- -- -- --  -- -- -- -- -- -- -- --
0010:                   1E FF  E1 05 01 1C 04 80 32 05        ........2.
0020: 80 1F 00 06 80 07 80 08  80 1F 01 6F 1E FF E1 05  ...........o....
0030: 01 00                                             ..              
```

#### Opcodes

```
  0: 0x0016 [0x1E] EventEntity looks at Dhea Prandoleh (ID: 17162751/0x0105E1FF) and starts talking
  1: 0x001B [0x1C] WAIT(30* ticks)
  2: 0x001E [0x32] ExtData[1]->MainSpeed = 13* * 0.1
  3: 0x0021 [0x1F] MOVE_ENTITY: EventEntity moves to X=0.451*, Z=15.208*, Y=-1.000*
  4: 0x0029 [0x1F] MOVE_ENTITY: Update entity position (mode=1)
  5: 0x002B [0x6F] WAIT_FRAME_DELAY: Yield until WaitTime reaches zero
  6: 0x002C [0x1E] EventEntity looks at Dhea Prandoleh (ID: 17162751/0x0105E1FF) and starts talking
  7: 0x0031 [0x00] END_REQSTACK()
```

### Event 65535.3

#### Metadata

| Field        | Value    |
|--------------|----------|
| Entrypoint   | 0x0032   |
| Data Size    | 26 bytes |
| Instructions | 8        |

```
      00 01 02 03 04 05 06 07  08 09 0A 0B 0C 0D 0E 0F
      -- -- -- -- -- -- -- --  -- -- -- -- -- -- -- --
0030:       32 09 80 1F 00 0A  80 0B 80 08 80 1F 01 6F    2............o
0040: 1F 00 0C 80 0D 80 08 80  1F 01 6F 00              ..........o.    
```

#### Opcodes

```
  0: 0x0032 [0x32] ExtData[1]->MainSpeed = 40* * 0.1
  1: 0x0035 [0x1F] MOVE_ENTITY: EventEntity moves to X=-3.082*, Z=19.589*, Y=-1.000*
  2: 0x003D [0x1F] MOVE_ENTITY: Update entity position (mode=1)
  3: 0x003F [0x6F] WAIT_FRAME_DELAY: Yield until WaitTime reaches zero
  4: 0x0040 [0x1F] MOVE_ENTITY: EventEntity moves to X=-10.130*, Z=33.333*, Y=-1.000*
  5: 0x0048 [0x1F] MOVE_ENTITY: Update entity position (mode=1)
  6: 0x004A [0x6F] WAIT_FRAME_DELAY: Yield until WaitTime reaches zero
  7: 0x004B [0x00] END_REQSTACK()
```

### Event 65535.4

#### Metadata

| Field        | Value    |
|--------------|----------|
| Entrypoint   | 0x004C   |
| Data Size    | 16 bytes |
| Instructions | 4        |

```
      00 01 02 03 04 05 06 07  08 09 0A 0B 0C 0D 0E 0F
      -- -- -- -- -- -- -- --  -- -- -- -- -- -- -- --
0040:                                      1C 00 80 6E              ...n
0050: F8 FF FF 7F 0E 80 99 F8  FF FF 7F 00              ............    
```

#### Opcodes

```
  0: 0x004C [0x1C] WAIT(15* ticks)
  1: 0x004F [0x6E] EventEntity uses emote 43*
  2: 0x0056 [0x99] Wait for EventEntity animation to complete
  3: 0x005B [0x00] END_REQSTACK()
```

### Event 65535.5

#### Metadata

| Field        | Value    |
|--------------|----------|
| Entrypoint   | 0x005C   |
| Data Size    | 13 bytes |
| Instructions | 3        |

```
      00 01 02 03 04 05 06 07  08 09 0A 0B 0C 0D 0E 0F
      -- -- -- -- -- -- -- --  -- -- -- -- -- -- -- --
0050:                                      6E F8 FF FF              n...
0060: 7F 0F 80 99 F8 FF FF 7F  00                       .........       
```

#### Opcodes

```
  0: 0x005C [0x6E] EventEntity uses emote 7*
  1: 0x0063 [0x99] Wait for EventEntity animation to complete
  2: 0x0068 [0x00] END_REQSTACK()
```

### Event 65535.6

#### Metadata

| Field        | Value   |
|--------------|---------|
| Entrypoint   | 0x0069  |
| Data Size    | 1 bytes |
| Instructions | 1       |

```
      00 01 02 03 04 05 06 07  08 09 0A 0B 0C 0D 0E 0F
      -- -- -- -- -- -- -- --  -- -- -- -- -- -- -- --
0060:                             00                             .      
```

#### Opcodes

```
  0: 0x0069 [0x00] END_REQSTACK()
```

### Event 65535.7

#### Metadata

| Field        | Value    |
|--------------|----------|
| Entrypoint   | 0x006A   |
| Data Size    | 18 bytes |
| Instructions | 4        |

```
      00 01 02 03 04 05 06 07  08 09 0A 0B 0C 0D 0E 0F
      -- -- -- -- -- -- -- --  -- -- -- -- -- -- -- --
0060:                                22 00 2F 00 F8 FF            "./...
0070: FF 7F 6C F8 FF FF 7F 10  80 11 80 00              ..l.........    
```

#### Opcodes

```
  0: 0x006A [0x22] ENTITY_HIDE_FLAG(enabled=0x00)
  1: 0x006C [0x2F] EventEntity->Render.Flags0 &= ~0x80000 // Bit 19
  2: 0x0072 [0x6C] FADE_ENTITY_COLOR(entity_id=EventEntity, end_alpha=0*, fade_time=1*)
  3: 0x007B [0x00] END_REQSTACK()
```

### Event 65535.8

#### Metadata

| Field        | Value    |
|--------------|----------|
| Entrypoint   | 0x007C   |
| Data Size    | 10 bytes |
| Instructions | 2        |

```
      00 01 02 03 04 05 06 07  08 09 0A 0B 0C 0D 0E 0F
      -- -- -- -- -- -- -- --  -- -- -- -- -- -- -- --
0070:                                      6C F8 FF FF              l...
0080: 7F 12 80 11 80 00                                 ......          
```

#### Opcodes

```
  0: 0x007C [0x6C] FADE_ENTITY_COLOR(entity_id=EventEntity, end_alpha=128*, fade_time=1*)
  1: 0x0085 [0x00] END_REQSTACK()
```

### Event 65535.9

#### Metadata

| Field        | Value   |
|--------------|---------|
| Entrypoint   | 0x0086  |
| Data Size    | 9 bytes |
| Instructions | 3       |

```
      00 01 02 03 04 05 06 07  08 09 0A 0B 0C 0D 0E 0F
      -- -- -- -- -- -- -- --  -- -- -- -- -- -- -- --
0080:                   22 00  2F 00 F8 FF FF 7F 00           "./...... 
```

#### Opcodes

```
  0: 0x0086 [0x22] ENTITY_HIDE_FLAG(enabled=0x00)
  1: 0x0088 [0x2F] EventEntity->Render.Flags0 &= ~0x80000 // Bit 19
  2: 0x008E [0x00] END_REQSTACK()
```

### Event 65535.10

#### Metadata

| Field        | Value   |
|--------------|---------|
| Entrypoint   | 0x008F  |
| Data Size    | 9 bytes |
| Instructions | 3       |

```
      00 01 02 03 04 05 06 07  08 09 0A 0B 0C 0D 0E 0F
      -- -- -- -- -- -- -- --  -- -- -- -- -- -- -- --
0080:                                               22                 "
0090: 01 2F 01 F8 FF FF 7F 00                           ./......        
```

#### Opcodes

```
  0: 0x008F [0x22] ENTITY_HIDE_FLAG(enabled=0x01)
  1: 0x0091 [0x2F] EventEntity->Render.Flags0 |= 0x80000 // Bit 19
  2: 0x0097 [0x00] END_REQSTACK()
```

### Event 65535.11

#### Metadata

| Field        | Value    |
|--------------|----------|
| Entrypoint   | 0x0098   |
| Data Size    | 10 bytes |
| Instructions | 2        |

```
      00 01 02 03 04 05 06 07  08 09 0A 0B 0C 0D 0E 0F
      -- -- -- -- -- -- -- --  -- -- -- -- -- -- -- --
0090:                          6C F8 FF FF 7F 10 80 11          l.......
00A0: 80 00                                             ..              
```

#### Opcodes

```
  0: 0x0098 [0x6C] FADE_ENTITY_COLOR(entity_id=EventEntity, end_alpha=0*, fade_time=1*)
  1: 0x00A1 [0x00] END_REQSTACK()
```

### Event 65535.12

#### Metadata

| Field        | Value    |
|--------------|----------|
| Entrypoint   | 0x00A2   |
| Data Size    | 10 bytes |
| Instructions | 2        |

```
      00 01 02 03 04 05 06 07  08 09 0A 0B 0C 0D 0E 0F
      -- -- -- -- -- -- -- --  -- -- -- -- -- -- -- --
00A0:       6C F8 FF FF 7F 12  80 11 80 00                l.........    
```

#### Opcodes

```
  0: 0x00A2 [0x6C] FADE_ENTITY_COLOR(entity_id=EventEntity, end_alpha=128*, fade_time=1*)
  1: 0x00AB [0x00] END_REQSTACK()
```

### Event 231

#### Metadata

| Field        | Value   |
|--------------|---------|
| Entrypoint   | 0x00AC  |
| Data Size    | 1 bytes |
| Instructions | 1       |

```
      00 01 02 03 04 05 06 07  08 09 0A 0B 0C 0D 0E 0F
      -- -- -- -- -- -- -- --  -- -- -- -- -- -- -- --
00A0:                                      00                       .   
```

#### Opcodes

```
  0: 0x00AC [0x00] END_REQSTACK()
```

### Event 232

#### Metadata

| Field        | Value   |
|--------------|---------|
| Entrypoint   | 0x00AD  |
| Data Size    | 1 bytes |
| Instructions | 1       |

```
      00 01 02 03 04 05 06 07  08 09 0A 0B 0C 0D 0E 0F
      -- -- -- -- -- -- -- --  -- -- -- -- -- -- -- --
00A0:                                         00                     .  
```

#### Opcodes

```
  0: 0x00AD [0x00] END_REQSTACK()
```

### Event 65535.13

#### Metadata

| Field        | Value   |
|--------------|---------|
| Entrypoint   | 0x00AE  |
| Data Size    | 3 bytes |
| Instructions | 2       |

```
      00 01 02 03 04 05 06 07  08 09 0A 0B 0C 0D 0E 0F
      -- -- -- -- -- -- -- --  -- -- -- -- -- -- -- --
00A0:                                            A4 01                ..
00B0: 00                                                .               
```

#### Opcodes

```
  0: 0x00AE [0xA4] EventEntity->Flags3.unknown_3_2 = 1
  1: 0x00B0 [0x00] END_REQSTACK()
```

### Event 65535.14

#### Metadata

| Field        | Value   |
|--------------|---------|
| Entrypoint   | 0x00B1  |
| Data Size    | 3 bytes |
| Instructions | 2       |

```
      00 01 02 03 04 05 06 07  08 09 0A 0B 0C 0D 0E 0F
      -- -- -- -- -- -- -- --  -- -- -- -- -- -- -- --
00B0:    A4 00 00                                        ...            
```

#### Opcodes

```
  0: 0x00B1 [0xA4] EventEntity->Flags3.unknown_3_2 = 0
  1: 0x00B3 [0x00] END_REQSTACK()
```

### Event 65535.15

#### Metadata

| Field        | Value   |
|--------------|---------|
| Entrypoint   | 0x00B4  |
| Data Size    | 5 bytes |
| Instructions | 2       |

```
      00 01 02 03 04 05 06 07  08 09 0A 0B 0C 0D 0E 0F
      -- -- -- -- -- -- -- --  -- -- -- -- -- -- -- --
00B0:             B6 0F 13 80  00                           .....       
```

#### Opcodes

```
  0: 0x00B4 [0xB6] ENTITY_APPEARANCE_HANDLER(case=Model size, value=93*)
  1: 0x00B8 [0x00] END_REQSTACK()
```

### Event 65535.16

#### Metadata

| Field        | Value   |
|--------------|---------|
| Entrypoint   | 0x00B9  |
| Data Size    | 5 bytes |
| Instructions | 2       |

```
      00 01 02 03 04 05 06 07  08 09 0A 0B 0C 0D 0E 0F
      -- -- -- -- -- -- -- --  -- -- -- -- -- -- -- --
00B0:                             B6 0F 14 80 00                 .....  
```

#### Opcodes

```
  0: 0x00B9 [0xB6] ENTITY_APPEARANCE_HANDLER(case=Model size, value=89*)
  1: 0x00BD [0x00] END_REQSTACK()
```

### Event 158

#### Metadata

| Field        | Value   |
|--------------|---------|
| Entrypoint   | 0x00BE  |
| Data Size    | 1 bytes |
| Instructions | 1       |

```
      00 01 02 03 04 05 06 07  08 09 0A 0B 0C 0D 0E 0F
      -- -- -- -- -- -- -- --  -- -- -- -- -- -- -- --
00B0:                                            00                   . 
```

#### Opcodes

```
  0: 0x00BE [0x00] END_REQSTACK()
```

### Event 165

#### Metadata

| Field        | Value   |
|--------------|---------|
| Entrypoint   | 0x00BF  |
| Data Size    | 1 bytes |
| Instructions | 1       |

```
      00 01 02 03 04 05 06 07  08 09 0A 0B 0C 0D 0E 0F
      -- -- -- -- -- -- -- --  -- -- -- -- -- -- -- --
00B0:                                               00                 .
```

#### Opcodes

```
  0: 0x00BF [0x00] END_REQSTACK()
```

### Event 168

#### Metadata

| Field        | Value   |
|--------------|---------|
| Entrypoint   | 0x00C0  |
| Data Size    | 1 bytes |
| Instructions | 1       |

```
      00 01 02 03 04 05 06 07  08 09 0A 0B 0C 0D 0E 0F
      -- -- -- -- -- -- -- --  -- -- -- -- -- -- -- --
00C0: 00                                                .               
```

#### Opcodes

```
  0: 0x00C0 [0x00] END_REQSTACK()
```

### Event 65535.17

#### Metadata

| Field        | Value   |
|--------------|---------|
| Entrypoint   | 0x00C1  |
| Data Size    | 4 bytes |
| Instructions | 2       |

```
      00 01 02 03 04 05 06 07  08 09 0A 0B 0C 0D 0E 0F
      -- -- -- -- -- -- -- --  -- -- -- -- -- -- -- --
00C0:    39 15 80 00                                     9...           
```

#### Opcodes

```
  0: 0x00C1 [0x39] SET_ENTITY_DIRECTION(direction=16.5°*)
  1: 0x00C4 [0x00] END_REQSTACK()
```

### Event 65535.18

#### Metadata

| Field        | Value    |
|--------------|----------|
| Entrypoint   | 0x00C5   |
| Data Size    | 26 bytes |
| Instructions | 8        |

```
      00 01 02 03 04 05 06 07  08 09 0A 0B 0C 0D 0E 0F
      -- -- -- -- -- -- -- --  -- -- -- -- -- -- -- --
00C0:                32 09 80  1F 00 16 80 17 80 18 80       2..........
00D0: 1F 01 6F 1F 00 19 80 1A  80 1B 80 1F 01 6F 00     ..o..........o. 
```

#### Opcodes

```
  0: 0x00C5 [0x32] ExtData[1]->MainSpeed = 40* * 0.1
  1: 0x00C8 [0x1F] MOVE_ENTITY: EventEntity moves to X=-23.332*, Z=41.014*, Y=-3.499*
  2: 0x00D0 [0x1F] MOVE_ENTITY: Update entity position (mode=1)
  3: 0x00D2 [0x6F] WAIT_FRAME_DELAY: Yield until WaitTime reaches zero
  4: 0x00D3 [0x1F] MOVE_ENTITY: EventEntity moves to X=-17.550*, Z=41.276*, Y=-1.781*
  5: 0x00DB [0x1F] MOVE_ENTITY: Update entity position (mode=1)
  6: 0x00DD [0x6F] WAIT_FRAME_DELAY: Yield until WaitTime reaches zero
  7: 0x00DE [0x00] END_REQSTACK()
```

### Event 65535.19

#### Metadata

| Field        | Value    |
|--------------|----------|
| Entrypoint   | 0x00DF   |
| Data Size    | 15 bytes |
| Instructions | 5        |

```
      00 01 02 03 04 05 06 07  08 09 0A 0B 0C 0D 0E 0F
      -- -- -- -- -- -- -- --  -- -- -- -- -- -- -- --
00D0:                                               32                 2
00E0: 05 80 1F 00 1C 80 1D 80  08 80 1F 01 6F 00        ............o.  
```

#### Opcodes

```
  0: 0x00DF [0x32] ExtData[1]->MainSpeed = 13* * 0.1
  1: 0x00E2 [0x1F] MOVE_ENTITY: EventEntity moves to X=0.245*, Z=35.964*, Y=-1.000*
  2: 0x00EA [0x1F] MOVE_ENTITY: Update entity position (mode=1)
  3: 0x00EC [0x6F] WAIT_FRAME_DELAY: Yield until WaitTime reaches zero
  4: 0x00ED [0x00] END_REQSTACK()
```

### Event 65535.20

#### Metadata

| Field        | Value    |
|--------------|----------|
| Entrypoint   | 0x00EE   |
| Data Size    | 20 bytes |
| Instructions | 6        |

```
      00 01 02 03 04 05 06 07  08 09 0A 0B 0C 0D 0E 0F
      -- -- -- -- -- -- -- --  -- -- -- -- -- -- -- --
00E0:                                            32 09                2.
00F0: 80 1F 00 1E 80 1F 80 08  80 1F 01 6F 1E 36 E2 05  ...........o.6..
0100: 01 00                                             ..              
```

#### Opcodes

```
  0: 0x00EE [0x32] ExtData[1]->MainSpeed = 40* * 0.1
  1: 0x00F1 [0x1F] MOVE_ENTITY: EventEntity moves to X=0.148*, Z=34.257*, Y=-1.000*
  2: 0x00F9 [0x1F] MOVE_ENTITY: Update entity position (mode=1)
  3: 0x00FB [0x6F] WAIT_FRAME_DELAY: Yield until WaitTime reaches zero
  4: 0x00FC [0x1E] EventEntity looks at Lehko Habhoka (ID: 17162806/0x0105E236) and starts talking
  5: 0x0101 [0x00] END_REQSTACK()
```

### Event 65535.21

#### Metadata

| Field        | Value    |
|--------------|----------|
| Entrypoint   | 0x0102   |
| Data Size    | 13 bytes |
| Instructions | 3        |

```
      00 01 02 03 04 05 06 07  08 09 0A 0B 0C 0D 0E 0F
      -- -- -- -- -- -- -- --  -- -- -- -- -- -- -- --
0100:       6E F8 FF FF 7F 20  80 99 F8 FF FF 7F 00       n.... ....... 
```

#### Opcodes

```
  0: 0x0102 [0x6E] EventEntity uses emote 14*
  1: 0x0109 [0x99] Wait for EventEntity animation to complete
  2: 0x010E [0x00] END_REQSTACK()
```

### Event 33

#### Metadata

| Field        | Value   |
|--------------|---------|
| Entrypoint   | 0x010F  |
| Data Size    | 1 bytes |
| Instructions | 1       |

```
      00 01 02 03 04 05 06 07  08 09 0A 0B 0C 0D 0E 0F
      -- -- -- -- -- -- -- --  -- -- -- -- -- -- -- --
0100:                                               00                 .
```

#### Opcodes

```
  0: 0x010F [0x00] END_REQSTACK()
```

### Event 65535.22

#### Metadata

| Field        | Value    |
|--------------|----------|
| Entrypoint   | 0x0110   |
| Data Size    | 13 bytes |
| Instructions | 3        |

```
      00 01 02 03 04 05 06 07  08 09 0A 0B 0C 0D 0E 0F
      -- -- -- -- -- -- -- --  -- -- -- -- -- -- -- --
0110: 6E F8 FF FF 7F 21 80 99  F8 FF FF 7F 00           n....!.......   
```

#### Opcodes

```
  0: 0x0110 [0x6E] EventEntity uses emote 36*
  1: 0x0117 [0x99] Wait for EventEntity animation to complete
  2: 0x011C [0x00] END_REQSTACK()
```

### Event 65535.23

#### Metadata

| Field        | Value    |
|--------------|----------|
| Entrypoint   | 0x011D   |
| Data Size    | 14 bytes |
| Instructions | 4        |

```
      00 01 02 03 04 05 06 07  08 09 0A 0B 0C 0D 0E 0F
      -- -- -- -- -- -- -- --  -- -- -- -- -- -- -- --
0110:                                         32 05 80               2..
0120: 1F 00 22 80 23 80 24 80  1F 01 00                 ..".#.$....     
```

#### Opcodes

```
  0: 0x011D [0x32] ExtData[1]->MainSpeed = 13* * 0.1
  1: 0x0120 [0x1F] MOVE_ENTITY: EventEntity moves to X=34.119*, Z=-63.569*, Y=-2.500*
  2: 0x0128 [0x1F] MOVE_ENTITY: Update entity position (mode=1)
  3: 0x012A [0x00] END_REQSTACK()
```

### Event 65535.24

#### Metadata

| Field        | Value    |
|--------------|----------|
| Entrypoint   | 0x012B   |
| Data Size    | 24 bytes |
| Instructions | 6        |

```
      00 01 02 03 04 05 06 07  08 09 0A 0B 0C 0D 0E 0F
      -- -- -- -- -- -- -- --  -- -- -- -- -- -- -- --
0120:                                   32 05 80 1F 00             2....
0130: 25 80 26 80 27 80 1F 01  1F 00 28 80 29 80 2A 80  %.&.'.....(.).*.
0140: 1F 01 00                                          ...             
```

#### Opcodes

```
  0: 0x012B [0x32] ExtData[1]->MainSpeed = 13* * 0.1
  1: 0x012E [0x1F] MOVE_ENTITY: EventEntity moves to X=-202.675*, Z=-217.224*, Y=-67.751*
  2: 0x0136 [0x1F] MOVE_ENTITY: Update entity position (mode=1)
  3: 0x0138 [0x1F] MOVE_ENTITY: EventEntity moves to X=-200.484*, Z=-204.409*, Y=-68.005*
  4: 0x0140 [0x1F] MOVE_ENTITY: Update entity position (mode=1)
  5: 0x0142 [0x00] END_REQSTACK()
```

### Event 65535.25

#### Metadata

| Field        | Value    |
|--------------|----------|
| Entrypoint   | 0x0143   |
| Data Size    | 21 bytes |
| Instructions | 2        |

```
      00 01 02 03 04 05 06 07  08 09 0A 0B 0C 0D 0E 0F
      -- -- -- -- -- -- -- --  -- -- -- -- -- -- -- --
0140:          B6 0B 0F 80 00  80 2B 80 2B 80 2B 80 2B     ......+.+.+.+
0150: 80 2B 80 2C 80 10 80 00                           .+.,....        
```

#### Opcodes

```
  0: 0x0143 [0xB6] ENTITY_APPEARANCE_HANDLER(case=Full entity look, race=7*, hair=15*, head=26*, body=26*, hands=26*, legs=26*, feet=26*, main=100*, sub=0*)
  1: 0x0157 [0x00] END_REQSTACK()
```

### Event 65535.26

#### Metadata

| Field        | Value    |
|--------------|----------|
| Entrypoint   | 0x0158   |
| Data Size    | 21 bytes |
| Instructions | 2        |

```
      00 01 02 03 04 05 06 07  08 09 0A 0B 0C 0D 0E 0F
      -- -- -- -- -- -- -- --  -- -- -- -- -- -- -- --
0150:                          B6 0B 0F 80 2D 80 2E 80          ....-...
0160: 2E 80 2F 80 30 80 30 80  31 80 10 80 00           ../.0.0.1....   
```

#### Opcodes

```
  0: 0x0158 [0xB6] ENTITY_APPEARANCE_HANDLER(case=Full entity look, race=7*, hair=3*, head=137*, body=137*, hands=16*, legs=129*, feet=129*, main=111*, sub=0*)
  1: 0x016C [0x00] END_REQSTACK()
```
