# 17162936 - 06

## Common Data

| Field            | Value                        |
|------------------|------------------------------|
| Zone             | Windurst Waters [S] (ID: 94) |
| Block Size       | 820 bytes                    |
| Total Events     | 16                           |
| References Count | 70                           |

## List of Events

| Event ID                   | Entrypoint   |   Size |   Instructions |
|----------------------------|--------------|--------|----------------|
| [65535](#event-65535)      | 0x0000       |      1 |              1 |
| [65535.1](#event-655351)   | 0x0001       |     18 |              4 |
| [65535.2](#event-655352)   | 0x0013       |     10 |              2 |
| [65535.3](#event-655353)   | 0x001D       |      9 |              3 |
| [65535.4](#event-655354)   | 0x0026       |      9 |              3 |
| [65535.5](#event-655355)   | 0x002F       |     10 |              2 |
| [65535.6](#event-655356)   | 0x0039       |     10 |              2 |
| [65535.7](#event-655357)   | 0x0043       |    110 |             23 |
| [65535.8](#event-655358)   | 0x00B1       |     31 |              8 |
| [65535.9](#event-655359)   | 0x00D0       |     50 |             11 |
| [65535.10](#event-6553510) | 0x0102       |     20 |              5 |
| [65535.11](#event-6553511) | 0x0116       |     29 |              6 |
| [65535.12](#event-6553512) | 0x0133       |     29 |              6 |
| [31](#event-31)            | 0x0150       |      1 |              1 |
| [65535.13](#event-6553513) | 0x0151       |    120 |             25 |

## DAT References (imed_data)

|   Index | Hex Value   |   Dec Value |
|---------|-------------|-------------|
|       0 | 0x0000      |           0 |
|       1 | 0x0001      |           1 |
|       2 | 0x0080      |         128 |
|       3 | 0x0028      |          40 |
|       4 | 0x042C      |        1068 |
|       5 | 0x52A8      |       21160 |
|       6 | 0xFFFFFC19  |  4294966297 |
|       7 | 0xFFFFFFBF  |  4294967231 |
|       8 | 0x5BED      |       23533 |
|       9 | 0xFFFFF79B  |  4294965147 |
|      10 | 0x65C2      |       26050 |
|      11 | 0xFFFFE8CE  |  4294961358 |
|      12 | 0x77A7      |       30631 |
|      13 | 0xFFFFD3A3  |  4294955939 |
|      14 | 0x85F8      |       34296 |
|      15 | 0xFFFFB5DC  |  4294948316 |
|      16 | 0x8EEE      |       36590 |
|      17 | 0xFFFFF7A6  |  4294965158 |
|      18 | 0xFFFF906F  |  4294938735 |
|      19 | 0x9972      |       39282 |
|      20 | 0xFFFFF255  |  4294963797 |
|      21 | 0xFFFF7216  |  4294930966 |
|      22 | 0xA127      |       41255 |
|      23 | 0xFFFF4523  |  4294919459 |
|      24 | 0xA881      |       43137 |
|      25 | 0xFFFFF254  |  4294963796 |
|      26 | 0xFFFF3A2B  |  4294916651 |
|      27 | 0xAE4A      |       44618 |
|      28 | 0xFFFF3A94  |  4294916756 |
|      29 | 0xAFCE      |       45006 |
|      30 | 0x000D      |          13 |
|      31 | 0xFFFF33D7  |  4294915031 |
|      32 | 0xAA40      |       43584 |
|      33 | 0xFFFF3018  |  4294914072 |
|      34 | 0xB54A      |       46410 |
|      35 | 0xFFFF3742  |  4294915906 |
|      36 | 0xC242      |       49730 |
|      37 | 0xFFFF3A26  |  4294916646 |
|      38 | 0xCAD0      |       51920 |
|      39 | 0xFFFF3707  |  4294915847 |
|      40 | 0xB608      |       46600 |
|      41 | 0x07C1      |        1985 |
|      42 | 0x3895      |       14485 |
|      43 | 0xFFFFFC18  |  4294966296 |
|      44 | 0x0398      |         920 |
|      45 | 0x36CB      |       14027 |
|      46 | 0x000E      |          14 |
|      47 | 0x0906      |        2310 |
|      48 | 0xBF79      |       49017 |
|      49 | 0xFFFFFCF8  |  4294966520 |
|      50 | 0xB898      |       47256 |
|      51 | 0xFFFFE948  |  4294961480 |
|      52 | 0xAB8F      |       43919 |
|      53 | 0xFFFFE61B  |  4294960667 |
|      54 | 0xA91B      |       43291 |
|      55 | 0xFFFFD852  |  4294957138 |
|      56 | 0xA708      |       42760 |
|      57 | 0xFFFFBE99  |  4294950553 |
|      58 | 0xA580      |       42368 |
|      59 | 0xFFFFFA53  |  4294965843 |
|      60 | 0xFFFF9FB1  |  4294942641 |
|      61 | 0xA601      |       42497 |
|      62 | 0xFFFF86B7  |  4294936247 |
|      63 | 0xA6E6      |       42726 |
|      64 | 0xFFFF70D7  |  4294930647 |
|      65 | 0xA584      |       42372 |
|      66 | 0xFFFF6960  |  4294928736 |
|      67 | 0xAB97      |       43927 |
|      68 | 0xFFFF5C5A  |  4294925402 |
|      69 | 0xB8CE      |       47310 |

## Events

### Event 65535

#### Metadata

| Field        | Value   |
|--------------|---------|
| Entrypoint   | 0x0000  |
| Data Size    | 1 bytes |
| Instructions | 1       |

```
      00 01 02 03 04 05 06 07  08 09 0A 0B 0C 0D 0E 0F
      -- -- -- -- -- -- -- --  -- -- -- -- -- -- -- --
0000: 00                                                .               
```

#### Opcodes

```
  0: 0x0000 [0x00] END_REQSTACK()
```

### Event 65535.1

#### Metadata

| Field        | Value    |
|--------------|----------|
| Entrypoint   | 0x0001   |
| Data Size    | 18 bytes |
| Instructions | 4        |

```
      00 01 02 03 04 05 06 07  08 09 0A 0B 0C 0D 0E 0F
      -- -- -- -- -- -- -- --  -- -- -- -- -- -- -- --
0000:    22 00 2F 00 F8 FF FF  7F 6C F8 FF FF 7F 00 80   "./.....l......
0010: 01 80 00                                          ...             
```

#### Opcodes

```
  0: 0x0001 [0x22] ENTITY_HIDE_FLAG(enabled=0x00)
  1: 0x0003 [0x2F] EventEntity->Render.Flags0 &= ~0x80000 // Bit 19
  2: 0x0009 [0x6C] FADE_ENTITY_COLOR(entity_id=EventEntity, end_alpha=0*, fade_time=1*)
  3: 0x0012 [0x00] END_REQSTACK()
```

### Event 65535.2

#### Metadata

| Field        | Value    |
|--------------|----------|
| Entrypoint   | 0x0013   |
| Data Size    | 10 bytes |
| Instructions | 2        |

```
      00 01 02 03 04 05 06 07  08 09 0A 0B 0C 0D 0E 0F
      -- -- -- -- -- -- -- --  -- -- -- -- -- -- -- --
0010:          6C F8 FF FF 7F  02 80 01 80 00              l.........   
```

#### Opcodes

```
  0: 0x0013 [0x6C] FADE_ENTITY_COLOR(entity_id=EventEntity, end_alpha=128*, fade_time=1*)
  1: 0x001C [0x00] END_REQSTACK()
```

### Event 65535.3

#### Metadata

| Field        | Value   |
|--------------|---------|
| Entrypoint   | 0x001D  |
| Data Size    | 9 bytes |
| Instructions | 3       |

```
      00 01 02 03 04 05 06 07  08 09 0A 0B 0C 0D 0E 0F
      -- -- -- -- -- -- -- --  -- -- -- -- -- -- -- --
0010:                                         22 00 2F               "./
0020: 00 F8 FF FF 7F 00                                 ......          
```

#### Opcodes

```
  0: 0x001D [0x22] ENTITY_HIDE_FLAG(enabled=0x00)
  1: 0x001F [0x2F] EventEntity->Render.Flags0 &= ~0x80000 // Bit 19
  2: 0x0025 [0x00] END_REQSTACK()
```

### Event 65535.4

#### Metadata

| Field        | Value   |
|--------------|---------|
| Entrypoint   | 0x0026  |
| Data Size    | 9 bytes |
| Instructions | 3       |

```
      00 01 02 03 04 05 06 07  08 09 0A 0B 0C 0D 0E 0F
      -- -- -- -- -- -- -- --  -- -- -- -- -- -- -- --
0020:                   22 01  2F 01 F8 FF FF 7F 00           "./...... 
```

#### Opcodes

```
  0: 0x0026 [0x22] ENTITY_HIDE_FLAG(enabled=0x01)
  1: 0x0028 [0x2F] EventEntity->Render.Flags0 |= 0x80000 // Bit 19
  2: 0x002E [0x00] END_REQSTACK()
```

### Event 65535.5

#### Metadata

| Field        | Value    |
|--------------|----------|
| Entrypoint   | 0x002F   |
| Data Size    | 10 bytes |
| Instructions | 2        |

```
      00 01 02 03 04 05 06 07  08 09 0A 0B 0C 0D 0E 0F
      -- -- -- -- -- -- -- --  -- -- -- -- -- -- -- --
0020:                                               6C                 l
0030: F8 FF FF 7F 00 80 01 80  00                       .........       
```

#### Opcodes

```
  0: 0x002F [0x6C] FADE_ENTITY_COLOR(entity_id=EventEntity, end_alpha=0*, fade_time=1*)
  1: 0x0038 [0x00] END_REQSTACK()
```

### Event 65535.6

#### Metadata

| Field        | Value    |
|--------------|----------|
| Entrypoint   | 0x0039   |
| Data Size    | 10 bytes |
| Instructions | 2        |

```
      00 01 02 03 04 05 06 07  08 09 0A 0B 0C 0D 0E 0F
      -- -- -- -- -- -- -- --  -- -- -- -- -- -- -- --
0030:                             6C F8 FF FF 7F 02 80           l......
0040: 01 80 00                                          ...             
```

#### Opcodes

```
  0: 0x0039 [0x6C] FADE_ENTITY_COLOR(entity_id=EventEntity, end_alpha=128*, fade_time=1*)
  1: 0x0042 [0x00] END_REQSTACK()
```

### Event 65535.7

#### Metadata

| Field        | Value     |
|--------------|-----------|
| Entrypoint   | 0x0043    |
| Data Size    | 110 bytes |
| Instructions | 23        |

```
      00 01 02 03 04 05 06 07  08 09 0A 0B 0C 0D 0E 0F
      -- -- -- -- -- -- -- --  -- -- -- -- -- -- -- --
0040:          59 04 F8 FF FF  7F 03 80 1F 00 04 80 05     Y............
0050: 80 06 80 1F 01 1F 00 07  80 08 80 06 80 1F 01 1F  ................
0060: 00 09 80 0A 80 06 80 1F  01 1F 00 0B 80 0C 80 06  ................
0070: 80 1F 01 1F 00 0D 80 0E  80 06 80 1F 01 1F 00 0F  ................
0080: 80 10 80 11 80 1F 01 1F  00 12 80 13 80 14 80 1F  ................
0090: 01 1F 00 15 80 16 80 14  80 1F 01 1F 00 17 80 18  ................
00A0: 80 19 80 1F 01 1F 00 1A  80 1B 80 19 80 1F 01 6F  ...............o
00B0: 00                                                .               
```

#### Opcodes

```
  0: 0x0043 [0x59] UPDATE_ENTITY_DATA: Set EventEntity main speed = 40* * 0.1
  1: 0x004B [0x1F] MOVE_ENTITY: EventEntity moves to X=1.068*, Z=21.160*, Y=-0.999*
  2: 0x0053 [0x1F] MOVE_ENTITY: Update entity position (mode=1)
  3: 0x0055 [0x1F] MOVE_ENTITY: EventEntity moves to X=-0.065*, Z=23.533*, Y=-0.999*
  4: 0x005D [0x1F] MOVE_ENTITY: Update entity position (mode=1)
  5: 0x005F [0x1F] MOVE_ENTITY: EventEntity moves to X=-2.149*, Z=26.050*, Y=-0.999*
  6: 0x0067 [0x1F] MOVE_ENTITY: Update entity position (mode=1)
  7: 0x0069 [0x1F] MOVE_ENTITY: EventEntity moves to X=-5.938*, Z=30.631*, Y=-0.999*
  8: 0x0071 [0x1F] MOVE_ENTITY: Update entity position (mode=1)
  9: 0x0073 [0x1F] MOVE_ENTITY: EventEntity moves to X=-11.357*, Z=34.296*, Y=-0.999*
 10: 0x007B [0x1F] MOVE_ENTITY: Update entity position (mode=1)
 11: 0x007D [0x1F] MOVE_ENTITY: EventEntity moves to X=-18.980*, Z=36.590*, Y=-2.138*
 12: 0x0085 [0x1F] MOVE_ENTITY: Update entity position (mode=1)
 13: 0x0087 [0x1F] MOVE_ENTITY: EventEntity moves to X=-28.561*, Z=39.282*, Y=-3.499*
 14: 0x008F [0x1F] MOVE_ENTITY: Update entity position (mode=1)
 15: 0x0091 [0x1F] MOVE_ENTITY: EventEntity moves to X=-36.330*, Z=41.255*, Y=-3.499*
 16: 0x0099 [0x1F] MOVE_ENTITY: Update entity position (mode=1)
 17: 0x009B [0x1F] MOVE_ENTITY: EventEntity moves to X=-47.837*, Z=43.137*, Y=-3.500*
 18: 0x00A3 [0x1F] MOVE_ENTITY: Update entity position (mode=1)
 19: 0x00A5 [0x1F] MOVE_ENTITY: EventEntity moves to X=-50.645*, Z=44.618*, Y=-3.500*
 20: 0x00AD [0x1F] MOVE_ENTITY: Update entity position (mode=1)
 21: 0x00AF [0x6F] WAIT_FRAME_DELAY: Yield until WaitTime reaches zero
 22: 0x00B0 [0x00] END_REQSTACK()
```

### Event 65535.8

#### Metadata

| Field        | Value    |
|--------------|----------|
| Entrypoint   | 0x00B1   |
| Data Size    | 31 bytes |
| Instructions | 8        |

```
      00 01 02 03 04 05 06 07  08 09 0A 0B 0C 0D 0E 0F
      -- -- -- -- -- -- -- --  -- -- -- -- -- -- -- --
00B0:    59 04 F8 FF FF 7F 03  80 1F 00 1A 80 1B 80 19   Y..............
00C0: 80 1F 01 6F 1F 00 1C 80  1D 80 14 80 1F 01 6F 00  ...o..........o.
```

#### Opcodes

```
  0: 0x00B1 [0x59] UPDATE_ENTITY_DATA: Set EventEntity main speed = 40* * 0.1
  1: 0x00B9 [0x1F] MOVE_ENTITY: EventEntity moves to X=-50.645*, Z=44.618*, Y=-3.500*
  2: 0x00C1 [0x1F] MOVE_ENTITY: Update entity position (mode=1)
  3: 0x00C3 [0x6F] WAIT_FRAME_DELAY: Yield until WaitTime reaches zero
  4: 0x00C4 [0x1F] MOVE_ENTITY: EventEntity moves to X=-50.540*, Z=45.006*, Y=-3.499*
  5: 0x00CC [0x1F] MOVE_ENTITY: Update entity position (mode=1)
  6: 0x00CE [0x6F] WAIT_FRAME_DELAY: Yield until WaitTime reaches zero
  7: 0x00CF [0x00] END_REQSTACK()
```

### Event 65535.9

#### Metadata

| Field        | Value    |
|--------------|----------|
| Entrypoint   | 0x00D0   |
| Data Size    | 50 bytes |
| Instructions | 11       |

```
      00 01 02 03 04 05 06 07  08 09 0A 0B 0C 0D 0E 0F
      -- -- -- -- -- -- -- --  -- -- -- -- -- -- -- --
00D0: 59 04 F8 FF FF 7F 1E 80  1F 00 1F 80 20 80 14 80  Y........... ...
00E0: 1F 01 1F 00 21 80 22 80  14 80 1F 01 1F 00 23 80  ....!.".......#.
00F0: 24 80 14 80 1F 01 1F 00  25 80 26 80 14 80 1F 01  $.......%.&.....
0100: 6F 00                                             o.              
```

#### Opcodes

```
  0: 0x00D0 [0x59] UPDATE_ENTITY_DATA: Set EventEntity main speed = 13* * 0.1
  1: 0x00D8 [0x1F] MOVE_ENTITY: EventEntity moves to X=-52.265*, Z=43.584*, Y=-3.499*
  2: 0x00E0 [0x1F] MOVE_ENTITY: Update entity position (mode=1)
  3: 0x00E2 [0x1F] MOVE_ENTITY: EventEntity moves to X=-53.224*, Z=46.410*, Y=-3.499*
  4: 0x00EA [0x1F] MOVE_ENTITY: Update entity position (mode=1)
  5: 0x00EC [0x1F] MOVE_ENTITY: EventEntity moves to X=-51.390*, Z=49.730*, Y=-3.499*
  6: 0x00F4 [0x1F] MOVE_ENTITY: Update entity position (mode=1)
  7: 0x00F6 [0x1F] MOVE_ENTITY: EventEntity moves to X=-50.650*, Z=51.920*, Y=-3.499*
  8: 0x00FE [0x1F] MOVE_ENTITY: Update entity position (mode=1)
  9: 0x0100 [0x6F] WAIT_FRAME_DELAY: Yield until WaitTime reaches zero
 10: 0x0101 [0x00] END_REQSTACK()
```

### Event 65535.10

#### Metadata

| Field        | Value    |
|--------------|----------|
| Entrypoint   | 0x0102   |
| Data Size    | 20 bytes |
| Instructions | 5        |

```
      00 01 02 03 04 05 06 07  08 09 0A 0B 0C 0D 0E 0F
      -- -- -- -- -- -- -- --  -- -- -- -- -- -- -- --
0100:       59 04 F8 FF FF 7F  1E 80 1F 00 27 80 28 80    Y.........'.(.
0110: 19 80 1F 01 6F 00                                 ....o.          
```

#### Opcodes

```
  0: 0x0102 [0x59] UPDATE_ENTITY_DATA: Set EventEntity main speed = 13* * 0.1
  1: 0x010A [0x1F] MOVE_ENTITY: EventEntity moves to X=-51.449*, Z=46.600*, Y=-3.500*
  2: 0x0112 [0x1F] MOVE_ENTITY: Update entity position (mode=1)
  3: 0x0114 [0x6F] WAIT_FRAME_DELAY: Yield until WaitTime reaches zero
  4: 0x0115 [0x00] END_REQSTACK()
```

### Event 65535.11

#### Metadata

| Field        | Value    |
|--------------|----------|
| Entrypoint   | 0x0116   |
| Data Size    | 29 bytes |
| Instructions | 6        |

```
      00 01 02 03 04 05 06 07  08 09 0A 0B 0C 0D 0E 0F
      -- -- -- -- -- -- -- --  -- -- -- -- -- -- -- --
0110:                   59 04  F8 FF FF 7F 03 80 1F 00        Y.........
0120: 29 80 2A 80 2B 80 1F 01  6F 4A F8 FF FF 7F FF E1  ).*.+...oJ......
0130: 05 01 00                                          ...             
```

#### Opcodes

```
  0: 0x0116 [0x59] UPDATE_ENTITY_DATA: Set EventEntity main speed = 40* * 0.1
  1: 0x011E [0x1F] MOVE_ENTITY: EventEntity moves to X=1.985*, Z=14.485*, Y=-1.000*
  2: 0x0126 [0x1F] MOVE_ENTITY: Update entity position (mode=1)
  3: 0x0128 [0x6F] WAIT_FRAME_DELAY: Yield until WaitTime reaches zero
  4: 0x0129 [0x4A] EventEntity looks at Dhea Prandoleh (ID: 17162751/0x0105E1FF)
  5: 0x0132 [0x00] END_REQSTACK()
```

### Event 65535.12

#### Metadata

| Field        | Value    |
|--------------|----------|
| Entrypoint   | 0x0133   |
| Data Size    | 29 bytes |
| Instructions | 6        |

```
      00 01 02 03 04 05 06 07  08 09 0A 0B 0C 0D 0E 0F
      -- -- -- -- -- -- -- --  -- -- -- -- -- -- -- --
0130:          59 04 F8 FF FF  7F 03 80 1F 00 2C 80 2D     Y.........,.-
0140: 80 06 80 1F 01 6F 4A F8  FF FF 7F FF E1 05 01 00  .....oJ.........
```

#### Opcodes

```
  0: 0x0133 [0x59] UPDATE_ENTITY_DATA: Set EventEntity main speed = 40* * 0.1
  1: 0x013B [0x1F] MOVE_ENTITY: EventEntity moves to X=0.920*, Z=14.027*, Y=-0.999*
  2: 0x0143 [0x1F] MOVE_ENTITY: Update entity position (mode=1)
  3: 0x0145 [0x6F] WAIT_FRAME_DELAY: Yield until WaitTime reaches zero
  4: 0x0146 [0x4A] EventEntity looks at Dhea Prandoleh (ID: 17162751/0x0105E1FF)
  5: 0x014F [0x00] END_REQSTACK()
```

### Event 31

#### Metadata

| Field        | Value   |
|--------------|---------|
| Entrypoint   | 0x0150  |
| Data Size    | 1 bytes |
| Instructions | 1       |

```
      00 01 02 03 04 05 06 07  08 09 0A 0B 0C 0D 0E 0F
      -- -- -- -- -- -- -- --  -- -- -- -- -- -- -- --
0150: 00                                                .               
```

#### Opcodes

```
  0: 0x0150 [0x00] END_REQSTACK()
```

### Event 65535.13

#### Metadata

| Field        | Value     |
|--------------|-----------|
| Entrypoint   | 0x0151    |
| Data Size    | 120 bytes |
| Instructions | 25        |

```
      00 01 02 03 04 05 06 07  08 09 0A 0B 0C 0D 0E 0F
      -- -- -- -- -- -- -- --  -- -- -- -- -- -- -- --
0150:    59 04 F8 FF FF 7F 2E  80 1F 00 2F 80 30 80 2B   Y........./.0.+
0160: 80 1F 01 1F 00 31 80 32  80 2B 80 1F 01 1F 00 33  .....1.2.+.....3
0170: 80 34 80 2B 80 1F 01 1F  00 35 80 36 80 2B 80 1F  .4.+.....5.6.+..
0180: 01 1F 00 37 80 38 80 2B  80 1F 01 1F 00 39 80 3A  ...7.8.+.....9.:
0190: 80 3B 80 1F 01 1F 00 3C  80 3D 80 14 80 1F 01 1F  .;.....<.=......
01A0: 00 3E 80 3F 80 14 80 1F  01 1F 00 40 80 41 80 14  .>.?.......@.A..
01B0: 80 1F 01 1F 00 42 80 43  80 14 80 1F 01 1F 00 44  .....B.C.......D
01C0: 80 45 80 14 80 1F 01 6F  00                       .E.....o.       
```

#### Opcodes

```
  0: 0x0151 [0x59] UPDATE_ENTITY_DATA: Set EventEntity main speed = 14* * 0.1
  1: 0x0159 [0x1F] MOVE_ENTITY: EventEntity moves to X=2.310*, Z=49.017*, Y=-1.000*
  2: 0x0161 [0x1F] MOVE_ENTITY: Update entity position (mode=1)
  3: 0x0163 [0x1F] MOVE_ENTITY: EventEntity moves to X=-0.776*, Z=47.256*, Y=-1.000*
  4: 0x016B [0x1F] MOVE_ENTITY: Update entity position (mode=1)
  5: 0x016D [0x1F] MOVE_ENTITY: EventEntity moves to X=-5.816*, Z=43.919*, Y=-1.000*
  6: 0x0175 [0x1F] MOVE_ENTITY: Update entity position (mode=1)
  7: 0x0177 [0x1F] MOVE_ENTITY: EventEntity moves to X=-6.629*, Z=43.291*, Y=-1.000*
  8: 0x017F [0x1F] MOVE_ENTITY: Update entity position (mode=1)
  9: 0x0181 [0x1F] MOVE_ENTITY: EventEntity moves to X=-10.158*, Z=42.760*, Y=-1.000*
 10: 0x0189 [0x1F] MOVE_ENTITY: Update entity position (mode=1)
 11: 0x018B [0x1F] MOVE_ENTITY: EventEntity moves to X=-16.743*, Z=42.368*, Y=-1.453*
 12: 0x0193 [0x1F] MOVE_ENTITY: Update entity position (mode=1)
 13: 0x0195 [0x1F] MOVE_ENTITY: EventEntity moves to X=-24.655*, Z=42.497*, Y=-3.499*
 14: 0x019D [0x1F] MOVE_ENTITY: Update entity position (mode=1)
 15: 0x019F [0x1F] MOVE_ENTITY: EventEntity moves to X=-31.049*, Z=42.726*, Y=-3.499*
 16: 0x01A7 [0x1F] MOVE_ENTITY: Update entity position (mode=1)
 17: 0x01A9 [0x1F] MOVE_ENTITY: EventEntity moves to X=-36.649*, Z=42.372*, Y=-3.499*
 18: 0x01B1 [0x1F] MOVE_ENTITY: Update entity position (mode=1)
 19: 0x01B3 [0x1F] MOVE_ENTITY: EventEntity moves to X=-38.560*, Z=43.927*, Y=-3.499*
 20: 0x01BB [0x1F] MOVE_ENTITY: Update entity position (mode=1)
 21: 0x01BD [0x1F] MOVE_ENTITY: EventEntity moves to X=-41.894*, Z=47.310*, Y=-3.499*
 22: 0x01C5 [0x1F] MOVE_ENTITY: Update entity position (mode=1)
 23: 0x01C7 [0x6F] WAIT_FRAME_DELAY: Yield until WaitTime reaches zero
 24: 0x01C8 [0x00] END_REQSTACK()
```
