# 17162753

## Common Data

| Field            | Value                        |
|------------------|------------------------------|
| Zone             | Windurst Waters [S] (ID: 94) |
| Block Size       | 4188 bytes                   |
| Total Events     | 75                           |
| References Count | 233                          |

## List of Events

| Event ID                   | Entrypoint   |   Size |   Instructions |
|----------------------------|--------------|--------|----------------|
| [65535](#event-65535)      | 0x0000       |      1 |              1 |
| [133](#event-133)          | 0x0001       |      1 |              1 |
| [134](#event-134)          | 0x0002       |      1 |              1 |
| [65535.1](#event-655351)   | 0x0003       |      4 |              2 |
| [130](#event-130)          | 0x0007       |      1 |              1 |
| [128](#event-128)          | 0x0008       |      1 |              1 |
| [108](#event-108)          | 0x0009       |      1 |              1 |
| [126](#event-126)          | 0x000A       |      1 |              1 |
| [151](#event-151)          | 0x000B       |      1 |              1 |
| [153](#event-153)          | 0x000C       |      1 |              1 |
| [231](#event-231)          | 0x000D       |      1 |              1 |
| [232](#event-232)          | 0x000E       |      1 |              1 |
| [233](#event-233)          | 0x000F       |      1 |              1 |
| [65535.2](#event-655352)   | 0x0010       |     10 |              2 |
| [65535.3](#event-655353)   | 0x001A       |     10 |              2 |
| [65535.4](#event-655354)   | 0x0024       |     10 |              2 |
| [171](#event-171)          | 0x002E       |      1 |              1 |
| [168](#event-168)          | 0x002F       |      1 |              1 |
| [65535.5](#event-655355)   | 0x0030       |     67 |             11 |
| [165](#event-165)          | 0x0073       |      1 |              1 |
| [65535.6](#event-655356)   | 0x0074       |     73 |             11 |
| [65535.7](#event-655357)   | 0x00BD       |     73 |             11 |
| [65535.8](#event-655358)   | 0x0106       |     48 |             10 |
| [65535.9](#event-655359)   | 0x0136       |     22 |              7 |
| [65535.10](#event-6553510) | 0x014C       |    167 |             35 |
| [65535.11](#event-6553511) | 0x01F3       |    186 |             38 |
| [65535.12](#event-6553512) | 0x02AD       |     83 |             18 |
| [65535.13](#event-6553513) | 0x0300       |    154 |             32 |
| [65535.14](#event-6553514) | 0x039A       |    167 |             35 |
| [65535.15](#event-6553515) | 0x0441       |     69 |             15 |
| [65535.16](#event-6553516) | 0x0486       |     38 |              9 |
| [65535.17](#event-6553517) | 0x04AC       |     38 |              9 |
| [65535.18](#event-6553518) | 0x04D2       |     48 |             11 |
| [65535.19](#event-6553519) | 0x0502       |     19 |              4 |
| [65535.20](#event-6553520) | 0x0515       |     22 |              5 |
| [65535.21](#event-6553521) | 0x052B       |     22 |              5 |
| [65535.22](#event-6553522) | 0x0541       |     13 |              5 |
| [65535.23](#event-6553523) | 0x054E       |    221 |             26 |
| [65535.24](#event-6553524) | 0x062B       |     76 |              8 |
| [65535.25](#event-6553525) | 0x0677       |     49 |              5 |
| [65535.26](#event-6553526) | 0x06A8       |     29 |              6 |
| [65535.27](#event-6553527) | 0x06C5       |     49 |              7 |
| [65535.28](#event-6553528) | 0x06F6       |     20 |              5 |
| [65535.29](#event-6553529) | 0x070A       |     47 |              6 |
| [65535.30](#event-6553530) | 0x0739       |     21 |              3 |
| [65535.31](#event-6553531) | 0x074E       |    161 |             17 |
| [65535.32](#event-6553532) | 0x07EF       |     20 |              5 |
| [20](#event-20)            | 0x0803       |      1 |              1 |
| [65535.33](#event-6553533) | 0x0804       |     30 |              7 |
| [65535.34](#event-6553534) | 0x0822       |     22 |              7 |
| [65535.35](#event-6553535) | 0x0838       |      9 |              5 |
| [65535.36](#event-6553536) | 0x0841       |     13 |              3 |
| [65535.37](#event-6553537) | 0x084E       |     10 |              2 |
| [65535.38](#event-6553538) | 0x0858       |      5 |              2 |
| [65535.39](#event-6553539) | 0x085D       |      5 |              2 |
| [65535.40](#event-6553540) | 0x0862       |     21 |              2 |
| [65535.41](#event-6553541) | 0x0877       |     30 |              6 |
| [65535.42](#event-6553542) | 0x0895       |     54 |             10 |
| [65535.43](#event-6553543) | 0x08CB       |     22 |              7 |
| [65535.44](#event-6553544) | 0x08E1       |     59 |             12 |
| [65535.45](#event-6553545) | 0x091C       |    165 |             34 |
| [65535.46](#event-6553546) | 0x09C1       |     12 |              4 |
| [65535.47](#event-6553547) | 0x09CD       |     38 |              7 |
| [65535.48](#event-6553548) | 0x09F3       |     29 |              6 |
| [65535.49](#event-6553549) | 0x0A10       |     44 |              7 |
| [65535.50](#event-6553550) | 0x0A3C       |     40 |              5 |
| [65535.51](#event-6553551) | 0x0A64       |     30 |              7 |
| [65535.52](#event-6553552) | 0x0A82       |     22 |              5 |
| [65535.53](#event-6553553) | 0x0A98       |     12 |              4 |
| [65535.54](#event-6553554) | 0x0AA4       |     60 |             13 |
| [65535.55](#event-6553555) | 0x0AE0       |     21 |              5 |
| [65535.56](#event-6553556) | 0x0AF5       |     87 |             13 |
| [65535.57](#event-6553557) | 0x0B4C       |     22 |              7 |
| [65535.58](#event-6553558) | 0x0B62       |     22 |              7 |
| [22](#event-22)            | 0x0B78       |      1 |              1 |

## DAT References (imed_data)

|   Index | Hex Value   |   Dec Value |
|---------|-------------|-------------|
|       0 | 0x0080      |         128 |
|       1 | 0x000F      |          15 |
|       2 | 0x003C      |          60 |
|       3 | 0x000A      |          10 |
|       4 | 0x0008      |           8 |
|       5 | 0x0530      |        1328 |
|       6 | 0x0005      |           5 |
|       7 | 0x0012      |          18 |
|       8 | 0x0017      |          23 |
|       9 | 0x0011      |          17 |
|      10 | 0x0000      |           0 |
|      11 | 0x0004      |           4 |
|      12 | 0x0001      |           1 |
|      13 | 0x001E      |          30 |
|      14 | 0x0050      |          80 |
|      15 | 0x01CB      |         459 |
|      16 | 0xC01D      |       49181 |
|      17 | 0xFFFFFC18  |  4294966296 |
|      18 | 0xFFFFF61D  |  4294964765 |
|      19 | 0xB4CD      |       46285 |
|      20 | 0xFFFFE4A1  |  4294960289 |
|      21 | 0xA1E9      |       41449 |
|      22 | 0xFFFFCB4E  |  4294953806 |
|      23 | 0x99E9      |       39401 |
|      24 | 0xFFFF383B  |  4294916155 |
|      25 | 0x975A      |       38746 |
|      26 | 0xFFFFF255  |  4294963797 |
|      27 | 0xFFFF0950  |  4294904144 |
|      28 | 0xA6EB      |       42731 |
|      29 | 0xFFFEE28D  |  4294894221 |
|      30 | 0xCA5B      |       51803 |
|      31 | 0xFFFECCEB  |  4294888683 |
|      32 | 0xE7E4      |       59364 |
|      33 | 0xFFFED4DC  |  4294890716 |
|      34 | 0x12692     |       75410 |
|      35 | 0xFFFF05FC  |  4294903292 |
|      36 | 0x13DD1     |       81361 |
|      37 | 0xFFFFEC78  |  4294962296 |
|      38 | 0xFFFF3FE9  |  4294918121 |
|      39 | 0x14635     |       83509 |
|      40 | 0xFFFFEC79  |  4294962297 |
|      41 | 0xFFFF58F1  |  4294924529 |
|      42 | 0x156CB     |       87755 |
|      43 | 0xFFFF5F95  |  4294926229 |
|      44 | 0x16818     |       92184 |
|      45 | 0xFFFF633B  |  4294927163 |
|      46 | 0x28E9B     |      167579 |
|      47 | 0xFFFFEC61  |  4294962273 |
|      48 | 0x0096      |         150 |
|      49 | 0x004F      |          79 |
|      50 | 0xFFFFFD21  |  4294966561 |
|      51 | 0xCD5B      |       52571 |
|      52 | 0xFFFFF472  |  4294964338 |
|      53 | 0xC585      |       50565 |
|      54 | 0xFFFFE64E  |  4294960718 |
|      55 | 0xAABD      |       43709 |
|      56 | 0xFFFFD9CC  |  4294957516 |
|      57 | 0x9B38      |       39736 |
|      58 | 0xFFFFCCF6  |  4294954230 |
|      59 | 0x9802      |       38914 |
|      60 | 0xFFFF64E4  |  4294927588 |
|      61 | 0x15EE3     |       89827 |
|      62 | 0xFFFF68EB  |  4294928619 |
|      63 | 0x16CEC     |       93420 |
|      64 | 0xFFFF6A76  |  4294929014 |
|      65 | 0x1835B     |       99163 |
|      66 | 0x0019      |          25 |
|      67 | 0xFFFF9D93  |  4294942099 |
|      68 | 0x153C3     |       86979 |
|      69 | 0x004E      |          78 |
|      70 | 0xFFFF7F27  |  4294934311 |
|      71 | 0x170BF     |       94399 |
|      72 | 0xFFFF6EA5  |  4294930085 |
|      73 | 0x181BB     |       98747 |
|      74 | 0xFFFF6986  |  4294928774 |
|      75 | 0x1A277     |      107127 |
|      76 | 0xFFFFE83A  |  4294961210 |
|      77 | 0x79A0      |       31136 |
|      78 | 0xFFFFFC19  |  4294966297 |
|      79 | 0xFFFFE0B0  |  4294959280 |
|      80 | 0x893B      |       35131 |
|      81 | 0xFFFFD29F  |  4294955679 |
|      82 | 0x9856      |       38998 |
|      83 | 0x00B4      |         180 |
|      84 | 0xFFFFF934  |  4294965556 |
|      85 | 0x7B9B      |       31643 |
|      86 | 0xFFFFEFB1  |  4294963121 |
|      87 | 0x9085      |       36997 |
|      88 | 0xFFFFDE20  |  4294958624 |
|      89 | 0xA00A      |       40970 |
|      90 | 0x0168      |         360 |
|      91 | 0xFFFF96A6  |  4294940326 |
|      92 | 0xF877      |       63607 |
|      93 | 0xFFFFF254  |  4294963796 |
|      94 | 0xFFFF9B5E  |  4294941534 |
|      95 | 0xF61A      |       63002 |
|      96 | 0x0028      |          40 |
|      97 | 0xFFFF46D2  |  4294919890 |
|      98 | 0xE60E      |       58894 |
|      99 | 0xFFFF2186  |  4294910342 |
|     100 | 0xD0D7      |       53463 |
|     101 | 0x001B      |          27 |
|     102 | 0xFFFF8952  |  4294936914 |
|     103 | 0x12369     |       74601 |
|     104 | 0xFFFFF20A  |  4294963722 |
|     105 | 0xFFFF2B43  |  4294912835 |
|     106 | 0x10F50     |       69456 |
|     107 | 0xFFFF8D73  |  4294937971 |
|     108 | 0x1266B     |       75371 |
|     109 | 0xFFFFF237  |  4294963767 |
|     110 | 0xFFFF3027  |  4294914087 |
|     111 | 0x113AF     |       70575 |
|     112 | 0xFFFF938A  |  4294939530 |
|     113 | 0x11F80     |       73600 |
|     114 | 0xFFFFF2AA  |  4294963882 |
|     115 | 0xFFFF3332  |  4294914866 |
|     116 | 0x11FA6     |       73638 |
|     117 | 0xFFFF2C4F  |  4294913103 |
|     118 | 0x1196C     |       72044 |
|     119 | 0x002A      |          42 |
|     120 | 0xFFFFA76A  |  4294944618 |
|     121 | 0x13DC9     |       81353 |
|     122 | 0x0078      |         120 |
|     123 | 0x0258      |         600 |
|     124 | 0x0215      |         533 |
|     125 | 0x012C      |         300 |
|     126 | 0xFFFF11C3  |  4294906307 |
|     127 | 0x1126E     |       70254 |
|     128 | 0x0FFD      |        4093 |
|     129 | 0x0031      |          49 |
|     130 | 0x0508      |        1288 |
|     131 | 0xFFFFEB50  |  4294962000 |
|     132 | 0x3028      |       12328 |
|     133 | 0x00A0      |         160 |
|     134 | 0x0055      |          85 |
|     135 | 0x0007      |           7 |
|     136 | 0xFFFFFECD  |  4294966989 |
|     137 | 0x33C0      |       13248 |
|     138 | 0x0023      |          35 |
|     139 | 0xFFFFFC12  |  4294966290 |
|     140 | 0x3F62      |       16226 |
|     141 | 0x004B      |          75 |
|     142 | 0x00C9      |         201 |
|     143 | 0xFFFFFBDE  |  4294966238 |
|     144 | 0x4419      |       17433 |
|     145 | 0x0408      |        1032 |
|     146 | 0x3D40      |       15680 |
|     147 | 0x09C7      |        2503 |
|     148 | 0x0506      |        1286 |
|     149 | 0x00B5      |         181 |
|     150 | 0x0056      |          86 |
|     151 | 0x0189      |         393 |
|     152 | 0x0BD5      |        3029 |
|     153 | 0x0024      |          36 |
|     154 | 0xFFFFE1FB  |  4294959611 |
|     155 | 0x1E8B      |        7819 |
|     156 | 0xFFFFFBFE  |  4294966270 |
|     157 | 0x0026      |          38 |
|     158 | 0xFFFF5CCD  |  4294925517 |
|     159 | 0x1132D     |       70445 |
|     160 | 0xFFFF68F3  |  4294928627 |
|     161 | 0x11188     |       70024 |
|     162 | 0x092A      |        2346 |
|     163 | 0x08CA      |        2250 |
|     164 | 0x0002      |           2 |
|     165 | 0x00A4      |         164 |
|     166 | 0x003E      |          62 |
|     167 | 0x00D8      |         216 |
|     168 | 0x000D      |          13 |
|     169 | 0x0689      |        1673 |
|     170 | 0xB9BA      |       47546 |
|     171 | 0x00FA      |         250 |
|     172 | 0x000B      |          11 |
|     173 | 0x4AB1A     |      305946 |
|     174 | 0x9933      |       39219 |
|     175 | 0x4A911     |      305425 |
|     176 | 0x9FBD      |       40893 |
|     177 | 0x4AE48     |      306760 |
|     178 | 0xA770      |       42864 |
|     179 | 0x4AD21     |      306465 |
|     180 | 0xA9C8      |       43464 |
|     181 | 0x0010      |          16 |
|     182 | 0x4B096     |      307350 |
|     183 | 0xA512      |       42258 |
|     184 | 0x4B2E7     |      307943 |
|     185 | 0xA039      |       41017 |
|     186 | 0xFFFFF20D  |  4294963725 |
|     187 | 0x4B418     |      308248 |
|     188 | 0x9ABB      |       39611 |
|     189 | 0xFFFFF170  |  4294963568 |
|     190 | 0x4B440     |      308288 |
|     191 | 0x9503      |       38147 |
|     192 | 0xFFFFF158  |  4294963544 |
|     193 | 0x4B2E5     |      307941 |
|     194 | 0x93F6      |       37878 |
|     195 | 0xFFFFF204  |  4294963716 |
|     196 | 0x4AECE     |      306894 |
|     197 | 0x92EB      |       37611 |
|     198 | 0x4AAB3     |      305843 |
|     199 | 0x8F5E      |       36702 |
|     200 | 0x00F0      |         240 |
|     201 | 0x4AE37     |      306743 |
|     202 | 0x89D4      |       35284 |
|     203 | 0xFFFFF1F5  |  4294963701 |
|     204 | 0x005A      |          90 |
|     205 | 0xFFFFC2DF  |  4294951647 |
|     206 | 0x14DAE     |       85422 |
|     207 | 0xFFFFCA5B  |  4294953563 |
|     208 | 0x14A8F     |       84623 |
|     209 | 0x052F      |        1327 |
|     210 | 0x096F      |        2415 |
|     211 | 0x002D      |          45 |
|     212 | 0xFFFF9259  |  4294939225 |
|     213 | 0x151CA     |       86474 |
|     214 | 0xFFFFEC77  |  4294962295 |
|     215 | 0xFFFF913B  |  4294938939 |
|     216 | 0x15243     |       86595 |
|     217 | 0xFFFFEC72  |  4294962290 |
|     218 | 0xFFFF9223  |  4294939171 |
|     219 | 0x15152     |       86354 |
|     220 | 0xFFFFEC76  |  4294962294 |
|     221 | 0xFFFF779F  |  4294932383 |
|     222 | 0x17B11     |       97041 |
|     223 | 0xFFFF7015  |  4294930453 |
|     224 | 0x188AE     |      100526 |
|     225 | 0xFFFF69F3  |  4294928883 |
|     226 | 0x19936     |      104758 |
|     227 | 0xFFFF676A  |  4294928234 |
|     228 | 0x1A3DB     |      107483 |
|     229 | 0xFFFFC497  |  4294952087 |
|     230 | 0x14A26     |       84518 |
|     231 | 0x00D2      |         210 |
|     232 | 0x0571      |        1393 |

## Events

### Event 65535

#### Metadata

| Field        | Value   |
|--------------|---------|
| Entrypoint   | 0x0000  |
| Data Size    | 1 bytes |
| Instructions | 1       |

```
      00 01 02 03 04 05 06 07  08 09 0A 0B 0C 0D 0E 0F
      -- -- -- -- -- -- -- --  -- -- -- -- -- -- -- --
0000: 00                                                .               
```

#### Opcodes

```
  0: 0x0000 [0x00] END_REQSTACK()
```

### Event 133

#### Metadata

| Field        | Value   |
|--------------|---------|
| Entrypoint   | 0x0001  |
| Data Size    | 1 bytes |
| Instructions | 1       |

```
      00 01 02 03 04 05 06 07  08 09 0A 0B 0C 0D 0E 0F
      -- -- -- -- -- -- -- --  -- -- -- -- -- -- -- --
0000:    00                                              .              
```

#### Opcodes

```
  0: 0x0001 [0x00] END_REQSTACK()
```

### Event 134

#### Metadata

| Field        | Value   |
|--------------|---------|
| Entrypoint   | 0x0002  |
| Data Size    | 1 bytes |
| Instructions | 1       |

```
      00 01 02 03 04 05 06 07  08 09 0A 0B 0C 0D 0E 0F
      -- -- -- -- -- -- -- --  -- -- -- -- -- -- -- --
0000:       00                                            .             
```

#### Opcodes

```
  0: 0x0002 [0x00] END_REQSTACK()
```

### Event 65535.1

#### Metadata

| Field        | Value   |
|--------------|---------|
| Entrypoint   | 0x0003  |
| Data Size    | 4 bytes |
| Instructions | 2       |

```
      00 01 02 03 04 05 06 07  08 09 0A 0B 0C 0D 0E 0F
      -- -- -- -- -- -- -- --  -- -- -- -- -- -- -- --
0000:          1C 02 10 00                                 ....         
```

#### Opcodes

```
  0: 0x0003 [0x1C] WAIT(Work_Zone[2] ticks)
  1: 0x0006 [0x00] END_REQSTACK()
```

### Event 130

#### Metadata

| Field        | Value   |
|--------------|---------|
| Entrypoint   | 0x0007  |
| Data Size    | 1 bytes |
| Instructions | 1       |

```
      00 01 02 03 04 05 06 07  08 09 0A 0B 0C 0D 0E 0F
      -- -- -- -- -- -- -- --  -- -- -- -- -- -- -- --
0000:                      00                                  .        
```

#### Opcodes

```
  0: 0x0007 [0x00] END_REQSTACK()
```

### Event 128

#### Metadata

| Field        | Value   |
|--------------|---------|
| Entrypoint   | 0x0008  |
| Data Size    | 1 bytes |
| Instructions | 1       |

```
      00 01 02 03 04 05 06 07  08 09 0A 0B 0C 0D 0E 0F
      -- -- -- -- -- -- -- --  -- -- -- -- -- -- -- --
0000:                          00                               .       
```

#### Opcodes

```
  0: 0x0008 [0x00] END_REQSTACK()
```

### Event 108

#### Metadata

| Field        | Value   |
|--------------|---------|
| Entrypoint   | 0x0009  |
| Data Size    | 1 bytes |
| Instructions | 1       |

```
      00 01 02 03 04 05 06 07  08 09 0A 0B 0C 0D 0E 0F
      -- -- -- -- -- -- -- --  -- -- -- -- -- -- -- --
0000:                             00                             .      
```

#### Opcodes

```
  0: 0x0009 [0x00] END_REQSTACK()
```

### Event 126

#### Metadata

| Field        | Value   |
|--------------|---------|
| Entrypoint   | 0x000A  |
| Data Size    | 1 bytes |
| Instructions | 1       |

```
      00 01 02 03 04 05 06 07  08 09 0A 0B 0C 0D 0E 0F
      -- -- -- -- -- -- -- --  -- -- -- -- -- -- -- --
0000:                                00                           .     
```

#### Opcodes

```
  0: 0x000A [0x00] END_REQSTACK()
```

### Event 151

#### Metadata

| Field        | Value   |
|--------------|---------|
| Entrypoint   | 0x000B  |
| Data Size    | 1 bytes |
| Instructions | 1       |

```
      00 01 02 03 04 05 06 07  08 09 0A 0B 0C 0D 0E 0F
      -- -- -- -- -- -- -- --  -- -- -- -- -- -- -- --
0000:                                   00                         .    
```

#### Opcodes

```
  0: 0x000B [0x00] END_REQSTACK()
```

### Event 153

#### Metadata

| Field        | Value   |
|--------------|---------|
| Entrypoint   | 0x000C  |
| Data Size    | 1 bytes |
| Instructions | 1       |

```
      00 01 02 03 04 05 06 07  08 09 0A 0B 0C 0D 0E 0F
      -- -- -- -- -- -- -- --  -- -- -- -- -- -- -- --
0000:                                      00                       .   
```

#### Opcodes

```
  0: 0x000C [0x00] END_REQSTACK()
```

### Event 231

#### Metadata

| Field        | Value   |
|--------------|---------|
| Entrypoint   | 0x000D  |
| Data Size    | 1 bytes |
| Instructions | 1       |

```
      00 01 02 03 04 05 06 07  08 09 0A 0B 0C 0D 0E 0F
      -- -- -- -- -- -- -- --  -- -- -- -- -- -- -- --
0000:                                         00                     .  
```

#### Opcodes

```
  0: 0x000D [0x00] END_REQSTACK()
```

### Event 232

#### Metadata

| Field        | Value   |
|--------------|---------|
| Entrypoint   | 0x000E  |
| Data Size    | 1 bytes |
| Instructions | 1       |

```
      00 01 02 03 04 05 06 07  08 09 0A 0B 0C 0D 0E 0F
      -- -- -- -- -- -- -- --  -- -- -- -- -- -- -- --
0000:                                            00                   . 
```

#### Opcodes

```
  0: 0x000E [0x00] END_REQSTACK()
```

### Event 233

#### Metadata

| Field        | Value   |
|--------------|---------|
| Entrypoint   | 0x000F  |
| Data Size    | 1 bytes |
| Instructions | 1       |

```
      00 01 02 03 04 05 06 07  08 09 0A 0B 0C 0D 0E 0F
      -- -- -- -- -- -- -- --  -- -- -- -- -- -- -- --
0000:                                               00                 .
```

#### Opcodes

```
  0: 0x000F [0x00] END_REQSTACK()
```

### Event 65535.2

#### Metadata

| Field        | Value    |
|--------------|----------|
| Entrypoint   | 0x0010   |
| Data Size    | 10 bytes |
| Instructions | 2        |

```
      00 01 02 03 04 05 06 07  08 09 0A 0B 0C 0D 0E 0F
      -- -- -- -- -- -- -- --  -- -- -- -- -- -- -- --
0010: 6C 19 E2 05 01 00 80 01  80 00                    l.........      
```

#### Opcodes

```
  0: 0x0010 [0x6C] FADE_ENTITY_COLOR(entity_id=Unnamed NPC (ID: 17162777/0x0105E219), end_alpha=128*, fade_time=15*)
  1: 0x0019 [0x00] END_REQSTACK()
```

### Event 65535.3

#### Metadata

| Field        | Value    |
|--------------|----------|
| Entrypoint   | 0x001A   |
| Data Size    | 10 bytes |
| Instructions | 2        |

```
      00 01 02 03 04 05 06 07  08 09 0A 0B 0C 0D 0E 0F
      -- -- -- -- -- -- -- --  -- -- -- -- -- -- -- --
0010:                                6C 1C E2 05 01 00            l.....
0020: 80 01 80 00                                       ....            
```

#### Opcodes

```
  0: 0x001A [0x6C] FADE_ENTITY_COLOR(entity_id=Unnamed NPC (ID: 17162780/0x0105E21C), end_alpha=128*, fade_time=15*)
  1: 0x0023 [0x00] END_REQSTACK()
```

### Event 65535.4

#### Metadata

| Field        | Value    |
|--------------|----------|
| Entrypoint   | 0x0024   |
| Data Size    | 10 bytes |
| Instructions | 2        |

```
      00 01 02 03 04 05 06 07  08 09 0A 0B 0C 0D 0E 0F
      -- -- -- -- -- -- -- --  -- -- -- -- -- -- -- --
0020:             6C 38 E2 05  01 00 80 02 80 00            l8........  
```

#### Opcodes

```
  0: 0x0024 [0x6C] FADE_ENTITY_COLOR(entity_id=Tzee Xicu the Manifest (ID: 17162808/0x0105E238), end_alpha=128*, fade_time=60*)
  1: 0x002D [0x00] END_REQSTACK()
```

### Event 171

#### Metadata

| Field        | Value   |
|--------------|---------|
| Entrypoint   | 0x002E  |
| Data Size    | 1 bytes |
| Instructions | 1       |

```
      00 01 02 03 04 05 06 07  08 09 0A 0B 0C 0D 0E 0F
      -- -- -- -- -- -- -- --  -- -- -- -- -- -- -- --
0020:                                            00                   . 
```

#### Opcodes

```
  0: 0x002E [0x00] END_REQSTACK()
```

### Event 168

#### Metadata

| Field        | Value   |
|--------------|---------|
| Entrypoint   | 0x002F  |
| Data Size    | 1 bytes |
| Instructions | 1       |

```
      00 01 02 03 04 05 06 07  08 09 0A 0B 0C 0D 0E 0F
      -- -- -- -- -- -- -- --  -- -- -- -- -- -- -- --
0020:                                               00                 .
```

#### Opcodes

```
  0: 0x002F [0x00] END_REQSTACK()
```

### Event 65535.5

#### Metadata

| Field        | Value    |
|--------------|----------|
| Entrypoint   | 0x0030   |
| Data Size    | 67 bytes |
| Instructions | 11       |

```
      00 01 02 03 04 05 06 07  08 09 0A 0B 0C 0D 0E 0F
      -- -- -- -- -- -- -- --  -- -- -- -- -- -- -- --
0030: 4A 2A E2 05 01 36 E2 05  01 1C 01 80 4A 0F E2 05  J*...6......J...
0040: 01 36 E2 05 01 1C 01 80  4A 10 E2 05 01 36 E2 05  .6......J....6..
0050: 01 1C 01 80 4A 0C E2 05  01 36 E2 05 01 1C 03 80  ....J....6......
0060: 4A 0E E2 05 01 36 E2 05  01 4A F0 FF FF 7F 08 E2  J....6...J......
0070: 05 01 00                                          ...             
```

#### Opcodes

```
  0: 0x0030 [0x4A] Tihl Midurhi (ID: 17162794/0x0105E22A) looks at Lehko Habhoka (ID: 17162806/0x0105E236)
  1: 0x0039 [0x1C] WAIT(15* ticks)
  2: 0x003C [0x4A] Vhino Delkahngo (ID: 17162767/0x0105E20F) looks at Lehko Habhoka (ID: 17162806/0x0105E236)
  3: 0x0045 [0x1C] WAIT(15* ticks)
  4: 0x0048 [0x4A] Lhu Mhakaracca (ID: 17162768/0x0105E210) looks at Lehko Habhoka (ID: 17162806/0x0105E236)
  5: 0x0051 [0x1C] WAIT(15* ticks)
  6: 0x0054 [0x4A] Haja Zhwan (ID: 17162764/0x0105E20C) looks at Lehko Habhoka (ID: 17162806/0x0105E236)
  7: 0x005D [0x1C] WAIT(10* ticks)
  8: 0x0060 [0x4A] Mikhe Aryohcha (ID: 17162766/0x0105E20E) looks at Lehko Habhoka (ID: 17162806/0x0105E236)
  9: 0x0069 [0x4A] LocalPlayer looks at Romaa Mihgo (ID: 17162760/0x0105E208)
 10: 0x0072 [0x00] END_REQSTACK()
```

### Event 165

#### Metadata

| Field        | Value   |
|--------------|---------|
| Entrypoint   | 0x0073  |
| Data Size    | 1 bytes |
| Instructions | 1       |

```
      00 01 02 03 04 05 06 07  08 09 0A 0B 0C 0D 0E 0F
      -- -- -- -- -- -- -- --  -- -- -- -- -- -- -- --
0070:          00                                          .            
```

#### Opcodes

```
  0: 0x0073 [0x00] END_REQSTACK()
```

### Event 65535.6

#### Metadata

| Field        | Value    |
|--------------|----------|
| Entrypoint   | 0x0074   |
| Data Size    | 73 bytes |
| Instructions | 11       |

```
      00 01 02 03 04 05 06 07  08 09 0A 0B 0C 0D 0E 0F
      -- -- -- -- -- -- -- --  -- -- -- -- -- -- -- --
0070:             6E 0E E2 05  01 04 80 99 0E E2 05 01      n...........
0080: 5B 05 80 0C E2 05 01 0C  E2 05 01 69 72 6F 30 1C  [..........iro0.
0090: 03 80 6E 0F E2 05 01 04  80 99 0F E2 05 01 5B 05  ..n...........[.
00A0: 80 2A E2 05 01 2A E2 05  01 69 72 6F 30 1C 06 80  .*...*...iro0...
00B0: 6E 10 E2 05 01 04 80 99  10 E2 05 01 00           n............   
```

#### Opcodes

```
  0: 0x0074 [0x6E] Mikhe Aryohcha (ID: 17162766/0x0105E20E) uses emote 8*
  1: 0x007B [0x99] Wait for Mikhe Aryohcha (ID: 17162766/0x0105E20E) animation to complete
  2: 0x0080 [0x5B] LOAD_EXT_SCHEDULER: Load scheduler "iro0" with entities [Haja Zhwan (ID: 17162764/0x0105E20C), Haja Zhwan (ID: 17162764/0x0105E20C)], work=1328*
  3: 0x008F [0x1C] WAIT(10* ticks)
  4: 0x0092 [0x6E] Vhino Delkahngo (ID: 17162767/0x0105E20F) uses emote 8*
  5: 0x0099 [0x99] Wait for Vhino Delkahngo (ID: 17162767/0x0105E20F) animation to complete
  6: 0x009E [0x5B] LOAD_EXT_SCHEDULER: Load scheduler "iro0" with entities [Tihl Midurhi (ID: 17162794/0x0105E22A), Tihl Midurhi (ID: 17162794/0x0105E22A)], work=1328*
  7: 0x00AD [0x1C] WAIT(5* ticks)
  8: 0x00B0 [0x6E] Lhu Mhakaracca (ID: 17162768/0x0105E210) uses emote 8*
  9: 0x00B7 [0x99] Wait for Lhu Mhakaracca (ID: 17162768/0x0105E210) animation to complete
 10: 0x00BC [0x00] END_REQSTACK()
```

### Event 65535.7

#### Metadata

| Field        | Value    |
|--------------|----------|
| Entrypoint   | 0x00BD   |
| Data Size    | 73 bytes |
| Instructions | 11       |

```
      00 01 02 03 04 05 06 07  08 09 0A 0B 0C 0D 0E 0F
      -- -- -- -- -- -- -- --  -- -- -- -- -- -- -- --
00B0:                                         6E 0E E2               n..
00C0: 05 01 04 80 99 0E E2 05  01 5B 05 80 0C E2 05 01  .........[......
00D0: 0C E2 05 01 69 72 6F 30  1C 03 80 6E 0F E2 05 01  ....iro0...n....
00E0: 04 80 99 0F E2 05 01 5B  05 80 2A E2 05 01 2A E2  .......[..*...*.
00F0: 05 01 69 72 6F 30 1C 06  80 6E 10 E2 05 01 04 80  ..iro0...n......
0100: 99 10 E2 05 01 00                                 ......          
```

#### Opcodes

```
  0: 0x00BD [0x6E] Mikhe Aryohcha (ID: 17162766/0x0105E20E) uses emote 8*
  1: 0x00C4 [0x99] Wait for Mikhe Aryohcha (ID: 17162766/0x0105E20E) animation to complete
  2: 0x00C9 [0x5B] LOAD_EXT_SCHEDULER: Load scheduler "iro0" with entities [Haja Zhwan (ID: 17162764/0x0105E20C), Haja Zhwan (ID: 17162764/0x0105E20C)], work=1328*
  3: 0x00D8 [0x1C] WAIT(10* ticks)
  4: 0x00DB [0x6E] Vhino Delkahngo (ID: 17162767/0x0105E20F) uses emote 8*
  5: 0x00E2 [0x99] Wait for Vhino Delkahngo (ID: 17162767/0x0105E20F) animation to complete
  6: 0x00E7 [0x5B] LOAD_EXT_SCHEDULER: Load scheduler "iro0" with entities [Tihl Midurhi (ID: 17162794/0x0105E22A), Tihl Midurhi (ID: 17162794/0x0105E22A)], work=1328*
  7: 0x00F6 [0x1C] WAIT(5* ticks)
  8: 0x00F9 [0x6E] Lhu Mhakaracca (ID: 17162768/0x0105E210) uses emote 8*
  9: 0x0100 [0x99] Wait for Lhu Mhakaracca (ID: 17162768/0x0105E210) animation to complete
 10: 0x0105 [0x00] END_REQSTACK()
```

### Event 65535.8

#### Metadata

| Field        | Value    |
|--------------|----------|
| Entrypoint   | 0x0106   |
| Data Size    | 48 bytes |
| Instructions | 10       |

```
      00 01 02 03 04 05 06 07  08 09 0A 0B 0C 0D 0E 0F
      -- -- -- -- -- -- -- --  -- -- -- -- -- -- -- --
0100:                   27 10  11 E2 05 01 07 1C 07 80        '.........
0110: 27 10 12 E2 05 01 08 1C  08 80 27 10 93 E2 05 01  '.........'.....
0120: 08 1C 09 80 27 10 94 E2  05 01 08 1C 08 80 27 10  ....'.........'.
0130: 95 E2 05 01 08 00                                 ......          
```

#### Opcodes

```
  0: 0x0106 [0x27] REQ_SET(priority=0x10, entity_id=Naho Gwanboh (ID: 17162769/0x0105E211), tag_num=0x07)
  1: 0x010D [0x1C] WAIT(18* ticks)
  2: 0x0110 [0x27] REQ_SET(priority=0x10, entity_id=Nzha Abaleenah (ID: 17162770/0x0105E212), tag_num=0x08)
  3: 0x0117 [0x1C] WAIT(23* ticks)
  4: 0x011A [0x27] REQ_SET(priority=0x10, entity_id=01 (ID: 17162899/0x0105E293), tag_num=0x08)
  5: 0x0121 [0x1C] WAIT(17* ticks)
  6: 0x0124 [0x27] REQ_SET(priority=0x10, entity_id=02 (ID: 17162900/0x0105E294), tag_num=0x08)
  7: 0x012B [0x1C] WAIT(23* ticks)
  8: 0x012E [0x27] REQ_SET(priority=0x10, entity_id=02 (ID: 17162901/0x0105E295), tag_num=0x08)
  9: 0x0135 [0x00] END_REQSTACK()
```

### Event 65535.9

#### Metadata

| Field        | Value    |
|--------------|----------|
| Entrypoint   | 0x0136   |
| Data Size    | 22 bytes |
| Instructions | 7        |

```
      00 01 02 03 04 05 06 07  08 09 0A 0B 0C 0D 0E 0F
      -- -- -- -- -- -- -- --  -- -- -- -- -- -- -- --
0130:                   B6 0E  0A 80 0B 80 0C 80 0A 80        ..........
0140: 0A 80 0A 80 0C 80 80 F8  FF FF 7F 00              ............    
```

#### Opcodes

```
  0: 0x0136 [0xB6] ENTITY_APPEARANCE_HANDLER(case=Look with Render flags, race=0*, face=4*, head=1*, body=0*, hands=0*, render_flags=0x800A)
  1: 0x0144 [0x0C] 4093*--
  2: 0x0147 [0xF8] UNKNOWN_OPCODE_0xF8
  3: 0x0148 [0xFF] UNKNOWN_OPCODE_0xFF
  4: 0x0149 [0xFF] UNKNOWN_OPCODE_0xFF
  5: 0x014A [0x7F] WAIT_DIALOG_SELECT_ALT()
  6: 0x014B [0x00] END_REQSTACK()
```

### Event 65535.10

#### Metadata

| Field        | Value     |
|--------------|-----------|
| Entrypoint   | 0x014C    |
| Data Size    | 167 bytes |
| Instructions | 35        |

```
      00 01 02 03 04 05 06 07  08 09 0A 0B 0C 0D 0E 0F
      -- -- -- -- -- -- -- --  -- -- -- -- -- -- -- --
0140:                                      1C 0D 80 59              ...Y
0150: 04 1D E2 05 01 0E 80 1F  00 0F 80 10 80 11 80 1F  ................
0160: 01 1F 00 12 80 13 80 11  80 1F 01 1F 00 14 80 15  ................
0170: 80 11 80 1F 01 1F 00 16  80 17 80 11 80 1F 01 1F  ................
0180: 00 18 80 19 80 1A 80 1F  01 1F 00 1B 80 1C 80 1A  ................
0190: 80 1F 01 1F 00 1D 80 1E  80 1A 80 1F 01 1F 00 1F  ................
01A0: 80 20 80 1A 80 1F 01 1F  00 21 80 22 80 1A 80 1F  . .......!."....
01B0: 01 1F 00 23 80 24 80 25  80 1F 01 1F 00 26 80 27  ...#.$.%.....&.'
01C0: 80 28 80 1F 01 1F 00 29  80 2A 80 28 80 1F 01 1F  .(.....).*.(....
01D0: 00 2B 80 2C 80 28 80 1F  01 1F 00 2D 80 2E 80 2F  .+.,.(.....-.../
01E0: 80 1F 01 6F 7E 05 1D E2  05 01 22 01 2F 01 F8 FF  ...o~....."./...
01F0: FF 7F 00                                          ...             
```

#### Opcodes

```
  0: 0x014C [0x1C] WAIT(30* ticks)
  1: 0x014F [0x59] UPDATE_ENTITY_DATA: Set 01 (ID: 17162781/0x0105E21D) main speed = 80* * 0.1
  2: 0x0157 [0x1F] MOVE_ENTITY: EventEntity moves to X=0.459*, Z=49.181*, Y=-1.000*
  3: 0x015F [0x1F] MOVE_ENTITY: Update entity position (mode=1)
  4: 0x0161 [0x1F] MOVE_ENTITY: EventEntity moves to X=-2.531*, Z=46.285*, Y=-1.000*
  5: 0x0169 [0x1F] MOVE_ENTITY: Update entity position (mode=1)
  6: 0x016B [0x1F] MOVE_ENTITY: EventEntity moves to X=-7.007*, Z=41.449*, Y=-1.000*
  7: 0x0173 [0x1F] MOVE_ENTITY: Update entity position (mode=1)
  8: 0x0175 [0x1F] MOVE_ENTITY: EventEntity moves to X=-13.490*, Z=39.401*, Y=-1.000*
  9: 0x017D [0x1F] MOVE_ENTITY: Update entity position (mode=1)
 10: 0x017F [0x1F] MOVE_ENTITY: EventEntity moves to X=-51.141*, Z=38.746*, Y=-3.499*
 11: 0x0187 [0x1F] MOVE_ENTITY: Update entity position (mode=1)
 12: 0x0189 [0x1F] MOVE_ENTITY: EventEntity moves to X=-63.152*, Z=42.731*, Y=-3.499*
 13: 0x0191 [0x1F] MOVE_ENTITY: Update entity position (mode=1)
 14: 0x0193 [0x1F] MOVE_ENTITY: EventEntity moves to X=-73.075*, Z=51.803*, Y=-3.499*
 15: 0x019B [0x1F] MOVE_ENTITY: Update entity position (mode=1)
 16: 0x019D [0x1F] MOVE_ENTITY: EventEntity moves to X=-78.613*, Z=59.364*, Y=-3.499*
 17: 0x01A5 [0x1F] MOVE_ENTITY: Update entity position (mode=1)
 18: 0x01A7 [0x1F] MOVE_ENTITY: EventEntity moves to X=-76.580*, Z=75.410*, Y=-3.499*
 19: 0x01AF [0x1F] MOVE_ENTITY: Update entity position (mode=1)
 20: 0x01B1 [0x1F] MOVE_ENTITY: EventEntity moves to X=-64.004*, Z=81.361*, Y=-5.000*
 21: 0x01B9 [0x1F] MOVE_ENTITY: Update entity position (mode=1)
 22: 0x01BB [0x1F] MOVE_ENTITY: EventEntity moves to X=-49.175*, Z=83.509*, Y=-4.999*
 23: 0x01C3 [0x1F] MOVE_ENTITY: Update entity position (mode=1)
 24: 0x01C5 [0x1F] MOVE_ENTITY: EventEntity moves to X=-42.767*, Z=87.755*, Y=-4.999*
 25: 0x01CD [0x1F] MOVE_ENTITY: Update entity position (mode=1)
 26: 0x01CF [0x1F] MOVE_ENTITY: EventEntity moves to X=-41.067*, Z=92.184*, Y=-4.999*
 27: 0x01D7 [0x1F] MOVE_ENTITY: Update entity position (mode=1)
 28: 0x01D9 [0x1F] MOVE_ENTITY: EventEntity moves to X=-40.133*, Z=167.579*, Y=-5.023*
 29: 0x01E1 [0x1F] MOVE_ENTITY: Update entity position (mode=1)
 30: 0x01E3 [0x6F] WAIT_FRAME_DELAY: Yield until WaitTime reaches zero
 31: 0x01E4 [0x7E] CHOCOBO_MOUNT: Dismount 01 (ID: 17162781/0x0105E21D) (status = 0)
 32: 0x01EA [0x22] ENTITY_HIDE_FLAG(enabled=0x01)
 33: 0x01EC [0x2F] EventEntity->Render.Flags0 |= 0x80000 // Bit 19
 34: 0x01F2 [0x00] END_REQSTACK()
```

### Event 65535.11

#### Metadata

| Field        | Value     |
|--------------|-----------|
| Entrypoint   | 0x01F3    |
| Data Size    | 186 bytes |
| Instructions | 38        |

```
      00 01 02 03 04 05 06 07  08 09 0A 0B 0C 0D 0E 0F
      -- -- -- -- -- -- -- --  -- -- -- -- -- -- -- --
01F0:          1C 30 80 59 04  1E E2 05 01 31 80 1F 00     .0.Y.....1...
0200: 32 80 33 80 11 80 1F 01  1F 00 34 80 35 80 11 80  2.3.......4.5...
0210: 1F 01 1F 00 36 80 37 80  11 80 1F 01 1F 00 38 80  ....6.7.......8.
0220: 39 80 11 80 1F 01 1F 00  3A 80 3B 80 11 80 1F 01  9.......:.;.....
0230: 1F 00 18 80 19 80 1A 80  1F 01 1F 00 1B 80 1C 80  ................
0240: 1A 80 1F 01 1F 00 1D 80  1E 80 1A 80 1F 01 1F 00  ................
0250: 1F 80 20 80 1A 80 1F 01  1F 00 21 80 22 80 1A 80  .. .......!."...
0260: 1F 01 1F 00 23 80 24 80  25 80 1F 01 1F 00 26 80  ....#.$.%.....&.
0270: 27 80 28 80 1F 01 1F 00  3C 80 3D 80 28 80 1F 01  '.(.....<.=.(...
0280: 1F 00 3E 80 3F 80 28 80  1F 01 1F 00 40 80 41 80  ..>.?.(.....@.A.
0290: 28 80 1F 01 1F 00 2D 80  2E 80 2F 80 1F 01 7E 05  (.....-.../...~.
02A0: 1E E2 05 01 22 01 2F 01  F8 FF FF 7F 00           ...."./......   
```

#### Opcodes

```
  0: 0x01F3 [0x1C] WAIT(150* ticks)
  1: 0x01F6 [0x59] UPDATE_ENTITY_DATA: Set 02 (ID: 17162782/0x0105E21E) main speed = 79* * 0.1
  2: 0x01FE [0x1F] MOVE_ENTITY: EventEntity moves to X=-0.735*, Z=52.571*, Y=-1.000*
  3: 0x0206 [0x1F] MOVE_ENTITY: Update entity position (mode=1)
  4: 0x0208 [0x1F] MOVE_ENTITY: EventEntity moves to X=-2.958*, Z=50.565*, Y=-1.000*
  5: 0x0210 [0x1F] MOVE_ENTITY: Update entity position (mode=1)
  6: 0x0212 [0x1F] MOVE_ENTITY: EventEntity moves to X=-6.578*, Z=43.709*, Y=-1.000*
  7: 0x021A [0x1F] MOVE_ENTITY: Update entity position (mode=1)
  8: 0x021C [0x1F] MOVE_ENTITY: EventEntity moves to X=-9.780*, Z=39.736*, Y=-1.000*
  9: 0x0224 [0x1F] MOVE_ENTITY: Update entity position (mode=1)
 10: 0x0226 [0x1F] MOVE_ENTITY: EventEntity moves to X=-13.066*, Z=38.914*, Y=-1.000*
 11: 0x022E [0x1F] MOVE_ENTITY: Update entity position (mode=1)
 12: 0x0230 [0x1F] MOVE_ENTITY: EventEntity moves to X=-51.141*, Z=38.746*, Y=-3.499*
 13: 0x0238 [0x1F] MOVE_ENTITY: Update entity position (mode=1)
 14: 0x023A [0x1F] MOVE_ENTITY: EventEntity moves to X=-63.152*, Z=42.731*, Y=-3.499*
 15: 0x0242 [0x1F] MOVE_ENTITY: Update entity position (mode=1)
 16: 0x0244 [0x1F] MOVE_ENTITY: EventEntity moves to X=-73.075*, Z=51.803*, Y=-3.499*
 17: 0x024C [0x1F] MOVE_ENTITY: Update entity position (mode=1)
 18: 0x024E [0x1F] MOVE_ENTITY: EventEntity moves to X=-78.613*, Z=59.364*, Y=-3.499*
 19: 0x0256 [0x1F] MOVE_ENTITY: Update entity position (mode=1)
 20: 0x0258 [0x1F] MOVE_ENTITY: EventEntity moves to X=-76.580*, Z=75.410*, Y=-3.499*
 21: 0x0260 [0x1F] MOVE_ENTITY: Update entity position (mode=1)
 22: 0x0262 [0x1F] MOVE_ENTITY: EventEntity moves to X=-64.004*, Z=81.361*, Y=-5.000*
 23: 0x026A [0x1F] MOVE_ENTITY: Update entity position (mode=1)
 24: 0x026C [0x1F] MOVE_ENTITY: EventEntity moves to X=-49.175*, Z=83.509*, Y=-4.999*
 25: 0x0274 [0x1F] MOVE_ENTITY: Update entity position (mode=1)
 26: 0x0276 [0x1F] MOVE_ENTITY: EventEntity moves to X=-39.708*, Z=89.827*, Y=-4.999*
 27: 0x027E [0x1F] MOVE_ENTITY: Update entity position (mode=1)
 28: 0x0280 [0x1F] MOVE_ENTITY: EventEntity moves to X=-38.677*, Z=93.420*, Y=-4.999*
 29: 0x0288 [0x1F] MOVE_ENTITY: Update entity position (mode=1)
 30: 0x028A [0x1F] MOVE_ENTITY: EventEntity moves to X=-38.282*, Z=99.163*, Y=-4.999*
 31: 0x0292 [0x1F] MOVE_ENTITY: Update entity position (mode=1)
 32: 0x0294 [0x1F] MOVE_ENTITY: EventEntity moves to X=-40.133*, Z=167.579*, Y=-5.023*
 33: 0x029C [0x1F] MOVE_ENTITY: Update entity position (mode=1)
 34: 0x029E [0x7E] CHOCOBO_MOUNT: Dismount 02 (ID: 17162782/0x0105E21E) (status = 0)
 35: 0x02A4 [0x22] ENTITY_HIDE_FLAG(enabled=0x01)
 36: 0x02A6 [0x2F] EventEntity->Render.Flags0 |= 0x80000 // Bit 19
 37: 0x02AC [0x00] END_REQSTACK()
```

### Event 65535.12

#### Metadata

| Field        | Value    |
|--------------|----------|
| Entrypoint   | 0x02AD   |
| Data Size    | 83 bytes |
| Instructions | 18       |

```
      00 01 02 03 04 05 06 07  08 09 0A 0B 0C 0D 0E 0F
      -- -- -- -- -- -- -- --  -- -- -- -- -- -- -- --
02A0:                                         59 04 25               Y.%
02B0: E2 05 01 42 80 1F 00 43  80 44 80 28 80 1F 01 6F  ...B...C.D.(...o
02C0: 59 04 F8 FF FF 7F 45 80  1F 00 46 80 47 80 28 80  Y.....E...F.G.(.
02D0: 1F 01 1F 00 48 80 49 80  28 80 1F 01 1F 00 4A 80  ....H.I.(.....J.
02E0: 4B 80 28 80 1F 01 1F 00  2D 80 2E 80 2F 80 1F 01  K.(.....-.../...
02F0: 6F 7E 05 25 E2 05 01 22  01 2F 01 F8 FF FF 7F 00  o~.%..."./......
```

#### Opcodes

```
  0: 0x02AD [0x59] UPDATE_ENTITY_DATA: Set Unnamed NPC (ID: 17162789/0x0105E225) main speed = 25* * 0.1
  1: 0x02B5 [0x1F] MOVE_ENTITY: EventEntity moves to X=-25.197*, Z=86.979*, Y=-4.999*
  2: 0x02BD [0x1F] MOVE_ENTITY: Update entity position (mode=1)
  3: 0x02BF [0x6F] WAIT_FRAME_DELAY: Yield until WaitTime reaches zero
  4: 0x02C0 [0x59] UPDATE_ENTITY_DATA: Set EventEntity main speed = 78* * 0.1
  5: 0x02C8 [0x1F] MOVE_ENTITY: EventEntity moves to X=-32.985*, Z=94.399*, Y=-4.999*
  6: 0x02D0 [0x1F] MOVE_ENTITY: Update entity position (mode=1)
  7: 0x02D2 [0x1F] MOVE_ENTITY: EventEntity moves to X=-37.211*, Z=98.747*, Y=-4.999*
  8: 0x02DA [0x1F] MOVE_ENTITY: Update entity position (mode=1)
  9: 0x02DC [0x1F] MOVE_ENTITY: EventEntity moves to X=-38.522*, Z=107.127*, Y=-4.999*
 10: 0x02E4 [0x1F] MOVE_ENTITY: Update entity position (mode=1)
 11: 0x02E6 [0x1F] MOVE_ENTITY: EventEntity moves to X=-40.133*, Z=167.579*, Y=-5.023*
 12: 0x02EE [0x1F] MOVE_ENTITY: Update entity position (mode=1)
 13: 0x02F0 [0x6F] WAIT_FRAME_DELAY: Yield until WaitTime reaches zero
 14: 0x02F1 [0x7E] CHOCOBO_MOUNT: Dismount Unnamed NPC (ID: 17162789/0x0105E225) (status = 0)
 15: 0x02F7 [0x22] ENTITY_HIDE_FLAG(enabled=0x01)
 16: 0x02F9 [0x2F] EventEntity->Render.Flags0 |= 0x80000 // Bit 19
 17: 0x02FF [0x00] END_REQSTACK()
```

### Event 65535.13

#### Metadata

| Field        | Value     |
|--------------|-----------|
| Entrypoint   | 0x0300    |
| Data Size    | 154 bytes |
| Instructions | 32        |

```
      00 01 02 03 04 05 06 07  08 09 0A 0B 0C 0D 0E 0F
      -- -- -- -- -- -- -- --  -- -- -- -- -- -- -- --
0300: 59 04 26 E2 05 01 0E 80  1F 00 4C 80 4D 80 4E 80  Y.&.......L.M.N.
0310: 1F 01 1F 00 4F 80 50 80  4E 80 1F 01 1F 00 51 80  ....O.P.N.....Q.
0320: 52 80 4E 80 1F 01 1F 00  18 80 19 80 1A 80 1F 01  R.N.............
0330: 1F 00 1B 80 1C 80 1A 80  1F 01 1F 00 1D 80 1E 80  ................
0340: 1A 80 1F 01 1F 00 1F 80  20 80 1A 80 1F 01 1F 00  ........ .......
0350: 21 80 22 80 1A 80 1F 01  1F 00 23 80 24 80 25 80  !.".......#.$.%.
0360: 1F 01 1F 00 26 80 27 80  28 80 1F 01 1F 00 29 80  ....&.'.(.....).
0370: 2A 80 28 80 1F 01 1F 00  2B 80 2C 80 28 80 1F 01  *.(.....+.,.(...
0380: 1F 00 2D 80 2E 80 2F 80  1F 01 6F 7E 05 26 E2 05  ..-.../...o~.&..
0390: 01 22 01 2F 01 F8 FF FF  7F 00                    ."./......      
```

#### Opcodes

```
  0: 0x0300 [0x59] UPDATE_ENTITY_DATA: Set Unnamed NPC (ID: 17162790/0x0105E226) main speed = 80* * 0.1
  1: 0x0308 [0x1F] MOVE_ENTITY: EventEntity moves to X=-6.086*, Z=31.136*, Y=-0.999*
  2: 0x0310 [0x1F] MOVE_ENTITY: Update entity position (mode=1)
  3: 0x0312 [0x1F] MOVE_ENTITY: EventEntity moves to X=-8.016*, Z=35.131*, Y=-0.999*
  4: 0x031A [0x1F] MOVE_ENTITY: Update entity position (mode=1)
  5: 0x031C [0x1F] MOVE_ENTITY: EventEntity moves to X=-11.617*, Z=38.998*, Y=-0.999*
  6: 0x0324 [0x1F] MOVE_ENTITY: Update entity position (mode=1)
  7: 0x0326 [0x1F] MOVE_ENTITY: EventEntity moves to X=-51.141*, Z=38.746*, Y=-3.499*
  8: 0x032E [0x1F] MOVE_ENTITY: Update entity position (mode=1)
  9: 0x0330 [0x1F] MOVE_ENTITY: EventEntity moves to X=-63.152*, Z=42.731*, Y=-3.499*
 10: 0x0338 [0x1F] MOVE_ENTITY: Update entity position (mode=1)
 11: 0x033A [0x1F] MOVE_ENTITY: EventEntity moves to X=-73.075*, Z=51.803*, Y=-3.499*
 12: 0x0342 [0x1F] MOVE_ENTITY: Update entity position (mode=1)
 13: 0x0344 [0x1F] MOVE_ENTITY: EventEntity moves to X=-78.613*, Z=59.364*, Y=-3.499*
 14: 0x034C [0x1F] MOVE_ENTITY: Update entity position (mode=1)
 15: 0x034E [0x1F] MOVE_ENTITY: EventEntity moves to X=-76.580*, Z=75.410*, Y=-3.499*
 16: 0x0356 [0x1F] MOVE_ENTITY: Update entity position (mode=1)
 17: 0x0358 [0x1F] MOVE_ENTITY: EventEntity moves to X=-64.004*, Z=81.361*, Y=-5.000*
 18: 0x0360 [0x1F] MOVE_ENTITY: Update entity position (mode=1)
 19: 0x0362 [0x1F] MOVE_ENTITY: EventEntity moves to X=-49.175*, Z=83.509*, Y=-4.999*
 20: 0x036A [0x1F] MOVE_ENTITY: Update entity position (mode=1)
 21: 0x036C [0x1F] MOVE_ENTITY: EventEntity moves to X=-42.767*, Z=87.755*, Y=-4.999*
 22: 0x0374 [0x1F] MOVE_ENTITY: Update entity position (mode=1)
 23: 0x0376 [0x1F] MOVE_ENTITY: EventEntity moves to X=-41.067*, Z=92.184*, Y=-4.999*
 24: 0x037E [0x1F] MOVE_ENTITY: Update entity position (mode=1)
 25: 0x0380 [0x1F] MOVE_ENTITY: EventEntity moves to X=-40.133*, Z=167.579*, Y=-5.023*
 26: 0x0388 [0x1F] MOVE_ENTITY: Update entity position (mode=1)
 27: 0x038A [0x6F] WAIT_FRAME_DELAY: Yield until WaitTime reaches zero
 28: 0x038B [0x7E] CHOCOBO_MOUNT: Dismount Unnamed NPC (ID: 17162790/0x0105E226) (status = 0)
 29: 0x0391 [0x22] ENTITY_HIDE_FLAG(enabled=0x01)
 30: 0x0393 [0x2F] EventEntity->Render.Flags0 |= 0x80000 // Bit 19
 31: 0x0399 [0x00] END_REQSTACK()
```

### Event 65535.14

#### Metadata

| Field        | Value     |
|--------------|-----------|
| Entrypoint   | 0x039A    |
| Data Size    | 167 bytes |
| Instructions | 35        |

```
      00 01 02 03 04 05 06 07  08 09 0A 0B 0C 0D 0E 0F
      -- -- -- -- -- -- -- --  -- -- -- -- -- -- -- --
0390:                                1C 53 80 59 04 27            .S.Y.'
03A0: E2 05 01 45 80 1F 00 54  80 55 80 4E 80 1F 01 1F  ...E...T.U.N....
03B0: 00 56 80 57 80 4E 80 1F  01 1F 00 58 80 59 80 4E  .V.W.N.....X.Y.N
03C0: 80 1F 01 1F 00 18 80 19  80 1A 80 1F 01 1F 00 1B  ................
03D0: 80 1C 80 1A 80 1F 01 1F  00 1D 80 1E 80 1A 80 1F  ................
03E0: 01 1F 00 1F 80 20 80 1A  80 1F 01 1F 00 21 80 22  ..... .......!."
03F0: 80 1A 80 1F 01 1F 00 23  80 24 80 25 80 1F 01 1F  .......#.$.%....
0400: 00 26 80 27 80 28 80 1F  01 1F 00 3C 80 3D 80 28  .&.'.(.....<.=.(
0410: 80 1F 01 1F 00 3E 80 3F  80 28 80 1F 01 1F 00 40  .....>.?.(.....@
0420: 80 41 80 28 80 1F 01 1F  00 2D 80 2E 80 2F 80 1F  .A.(.....-.../..
0430: 01 6F 7E 05 27 E2 05 01  22 01 2F 01 F8 FF FF 7F  .o~.'..."./.....
0440: 00                                                .               
```

#### Opcodes

```
  0: 0x039A [0x1C] WAIT(180* ticks)
  1: 0x039D [0x59] UPDATE_ENTITY_DATA: Set Unnamed NPC (ID: 17162791/0x0105E227) main speed = 78* * 0.1
  2: 0x03A5 [0x1F] MOVE_ENTITY: EventEntity moves to X=-1.740*, Z=31.643*, Y=-0.999*
  3: 0x03AD [0x1F] MOVE_ENTITY: Update entity position (mode=1)
  4: 0x03AF [0x1F] MOVE_ENTITY: EventEntity moves to X=-4.175*, Z=36.997*, Y=-0.999*
  5: 0x03B7 [0x1F] MOVE_ENTITY: Update entity position (mode=1)
  6: 0x03B9 [0x1F] MOVE_ENTITY: EventEntity moves to X=-8.672*, Z=40.970*, Y=-0.999*
  7: 0x03C1 [0x1F] MOVE_ENTITY: Update entity position (mode=1)
  8: 0x03C3 [0x1F] MOVE_ENTITY: EventEntity moves to X=-51.141*, Z=38.746*, Y=-3.499*
  9: 0x03CB [0x1F] MOVE_ENTITY: Update entity position (mode=1)
 10: 0x03CD [0x1F] MOVE_ENTITY: EventEntity moves to X=-63.152*, Z=42.731*, Y=-3.499*
 11: 0x03D5 [0x1F] MOVE_ENTITY: Update entity position (mode=1)
 12: 0x03D7 [0x1F] MOVE_ENTITY: EventEntity moves to X=-73.075*, Z=51.803*, Y=-3.499*
 13: 0x03DF [0x1F] MOVE_ENTITY: Update entity position (mode=1)
 14: 0x03E1 [0x1F] MOVE_ENTITY: EventEntity moves to X=-78.613*, Z=59.364*, Y=-3.499*
 15: 0x03E9 [0x1F] MOVE_ENTITY: Update entity position (mode=1)
 16: 0x03EB [0x1F] MOVE_ENTITY: EventEntity moves to X=-76.580*, Z=75.410*, Y=-3.499*
 17: 0x03F3 [0x1F] MOVE_ENTITY: Update entity position (mode=1)
 18: 0x03F5 [0x1F] MOVE_ENTITY: EventEntity moves to X=-64.004*, Z=81.361*, Y=-5.000*
 19: 0x03FD [0x1F] MOVE_ENTITY: Update entity position (mode=1)
 20: 0x03FF [0x1F] MOVE_ENTITY: EventEntity moves to X=-49.175*, Z=83.509*, Y=-4.999*
 21: 0x0407 [0x1F] MOVE_ENTITY: Update entity position (mode=1)
 22: 0x0409 [0x1F] MOVE_ENTITY: EventEntity moves to X=-39.708*, Z=89.827*, Y=-4.999*
 23: 0x0411 [0x1F] MOVE_ENTITY: Update entity position (mode=1)
 24: 0x0413 [0x1F] MOVE_ENTITY: EventEntity moves to X=-38.677*, Z=93.420*, Y=-4.999*
 25: 0x041B [0x1F] MOVE_ENTITY: Update entity position (mode=1)
 26: 0x041D [0x1F] MOVE_ENTITY: EventEntity moves to X=-38.282*, Z=99.163*, Y=-4.999*
 27: 0x0425 [0x1F] MOVE_ENTITY: Update entity position (mode=1)
 28: 0x0427 [0x1F] MOVE_ENTITY: EventEntity moves to X=-40.133*, Z=167.579*, Y=-5.023*
 29: 0x042F [0x1F] MOVE_ENTITY: Update entity position (mode=1)
 30: 0x0431 [0x6F] WAIT_FRAME_DELAY: Yield until WaitTime reaches zero
 31: 0x0432 [0x7E] CHOCOBO_MOUNT: Dismount Unnamed NPC (ID: 17162791/0x0105E227) (status = 0)
 32: 0x0438 [0x22] ENTITY_HIDE_FLAG(enabled=0x01)
 33: 0x043A [0x2F] EventEntity->Render.Flags0 |= 0x80000 // Bit 19
 34: 0x0440 [0x00] END_REQSTACK()
```

### Event 65535.15

#### Metadata

| Field        | Value    |
|--------------|----------|
| Entrypoint   | 0x0441   |
| Data Size    | 69 bytes |
| Instructions | 15       |

```
      00 01 02 03 04 05 06 07  08 09 0A 0B 0C 0D 0E 0F
      -- -- -- -- -- -- -- --  -- -- -- -- -- -- -- --
0440:    1C 5A 80 59 04 94 E2  05 01 01 80 1F 00 5B 80   .Z.Y.........[.
0450: 5C 80 5D 80 1F 01 1F 00  5E 80 5F 80 5D 80 1F 01  \.].....^._.]...
0460: 59 04 F8 FF FF 7F 60 80  1F 00 61 80 62 80 5D 80  Y.....`...a.b.].
0470: 1F 01 1F 00 63 80 64 80  1A 80 1F 01 6F 22 01 2F  ....c.d.....o"./
0480: 01 F8 FF FF 7F 00                                 ......          
```

#### Opcodes

```
  0: 0x0441 [0x1C] WAIT(360* ticks)
  1: 0x0444 [0x59] UPDATE_ENTITY_DATA: Set 02 (ID: 17162900/0x0105E294) main speed = 15* * 0.1
  2: 0x044C [0x1F] MOVE_ENTITY: EventEntity moves to X=-26.970*, Z=63.607*, Y=-3.500*
  3: 0x0454 [0x1F] MOVE_ENTITY: Update entity position (mode=1)
  4: 0x0456 [0x1F] MOVE_ENTITY: EventEntity moves to X=-25.762*, Z=63.002*, Y=-3.500*
  5: 0x045E [0x1F] MOVE_ENTITY: Update entity position (mode=1)
  6: 0x0460 [0x59] UPDATE_ENTITY_DATA: Set EventEntity main speed = 40* * 0.1
  7: 0x0468 [0x1F] MOVE_ENTITY: EventEntity moves to X=-47.406*, Z=58.894*, Y=-3.500*
  8: 0x0470 [0x1F] MOVE_ENTITY: Update entity position (mode=1)
  9: 0x0472 [0x1F] MOVE_ENTITY: EventEntity moves to X=-56.954*, Z=53.463*, Y=-3.499*
 10: 0x047A [0x1F] MOVE_ENTITY: Update entity position (mode=1)
 11: 0x047C [0x6F] WAIT_FRAME_DELAY: Yield until WaitTime reaches zero
 12: 0x047D [0x22] ENTITY_HIDE_FLAG(enabled=0x01)
 13: 0x047F [0x2F] EventEntity->Render.Flags0 |= 0x80000 // Bit 19
 14: 0x0485 [0x00] END_REQSTACK()
```

### Event 65535.16

#### Metadata

| Field        | Value    |
|--------------|----------|
| Entrypoint   | 0x0486   |
| Data Size    | 38 bytes |
| Instructions | 9        |

```
      00 01 02 03 04 05 06 07  08 09 0A 0B 0C 0D 0E 0F
      -- -- -- -- -- -- -- --  -- -- -- -- -- -- -- --
0480:                   59 04  F8 FF FF 7F 65 80 1F 00        Y.....e...
0490: 66 80 67 80 68 80 1F 01  1F 00 69 80 6A 80 5D 80  f.g.h.....i.j.].
04A0: 1F 01 6F 22 01 2F 01 F8  FF FF 7F 00              ..o"./......    
```

#### Opcodes

```
  0: 0x0486 [0x59] UPDATE_ENTITY_DATA: Set EventEntity main speed = 27* * 0.1
  1: 0x048E [0x1F] MOVE_ENTITY: EventEntity moves to X=-30.382*, Z=74.601*, Y=-3.574*
  2: 0x0496 [0x1F] MOVE_ENTITY: Update entity position (mode=1)
  3: 0x0498 [0x1F] MOVE_ENTITY: EventEntity moves to X=-54.461*, Z=69.456*, Y=-3.500*
  4: 0x04A0 [0x1F] MOVE_ENTITY: Update entity position (mode=1)
  5: 0x04A2 [0x6F] WAIT_FRAME_DELAY: Yield until WaitTime reaches zero
  6: 0x04A3 [0x22] ENTITY_HIDE_FLAG(enabled=0x01)
  7: 0x04A5 [0x2F] EventEntity->Render.Flags0 |= 0x80000 // Bit 19
  8: 0x04AB [0x00] END_REQSTACK()
```

### Event 65535.17

#### Metadata

| Field        | Value    |
|--------------|----------|
| Entrypoint   | 0x04AC   |
| Data Size    | 38 bytes |
| Instructions | 9        |

```
      00 01 02 03 04 05 06 07  08 09 0A 0B 0C 0D 0E 0F
      -- -- -- -- -- -- -- --  -- -- -- -- -- -- -- --
04A0:                                      59 04 F8 FF              Y...
04B0: FF 7F 65 80 1F 00 6B 80  6C 80 6D 80 1F 01 1F 00  ..e...k.l.m.....
04C0: 6E 80 6F 80 5D 80 1F 01  6F 22 01 2F 01 F8 FF FF  n.o.]...o"./....
04D0: 7F 00                                             ..              
```

#### Opcodes

```
  0: 0x04AC [0x59] UPDATE_ENTITY_DATA: Set EventEntity main speed = 27* * 0.1
  1: 0x04B4 [0x1F] MOVE_ENTITY: EventEntity moves to X=-29.325*, Z=75.371*, Y=-3.529*
  2: 0x04BC [0x1F] MOVE_ENTITY: Update entity position (mode=1)
  3: 0x04BE [0x1F] MOVE_ENTITY: EventEntity moves to X=-53.209*, Z=70.575*, Y=-3.500*
  4: 0x04C6 [0x1F] MOVE_ENTITY: Update entity position (mode=1)
  5: 0x04C8 [0x6F] WAIT_FRAME_DELAY: Yield until WaitTime reaches zero
  6: 0x04C9 [0x22] ENTITY_HIDE_FLAG(enabled=0x01)
  7: 0x04CB [0x2F] EventEntity->Render.Flags0 |= 0x80000 // Bit 19
  8: 0x04D1 [0x00] END_REQSTACK()
```

### Event 65535.18

#### Metadata

| Field        | Value    |
|--------------|----------|
| Entrypoint   | 0x04D2   |
| Data Size    | 48 bytes |
| Instructions | 11       |

```
      00 01 02 03 04 05 06 07  08 09 0A 0B 0C 0D 0E 0F
      -- -- -- -- -- -- -- --  -- -- -- -- -- -- -- --
04D0:       59 04 F8 FF FF 7F  65 80 1F 00 70 80 71 80    Y.....e...p.q.
04E0: 72 80 1F 01 1F 00 73 80  74 80 5D 80 1F 01 1F 00  r.....s.t.].....
04F0: 75 80 76 80 5D 80 1F 01  6F 22 01 2F 01 F8 FF FF  u.v.]...o"./....
0500: 7F 00                                             ..              
```

#### Opcodes

```
  0: 0x04D2 [0x59] UPDATE_ENTITY_DATA: Set EventEntity main speed = 27* * 0.1
  1: 0x04DA [0x1F] MOVE_ENTITY: EventEntity moves to X=-27.766*, Z=73.600*, Y=-3.414*
  2: 0x04E2 [0x1F] MOVE_ENTITY: Update entity position (mode=1)
  3: 0x04E4 [0x1F] MOVE_ENTITY: EventEntity moves to X=-52.430*, Z=73.638*, Y=-3.500*
  4: 0x04EC [0x1F] MOVE_ENTITY: Update entity position (mode=1)
  5: 0x04EE [0x1F] MOVE_ENTITY: EventEntity moves to X=-54.193*, Z=72.044*, Y=-3.500*
  6: 0x04F6 [0x1F] MOVE_ENTITY: Update entity position (mode=1)
  7: 0x04F8 [0x6F] WAIT_FRAME_DELAY: Yield until WaitTime reaches zero
  8: 0x04F9 [0x22] ENTITY_HIDE_FLAG(enabled=0x01)
  9: 0x04FB [0x2F] EventEntity->Render.Flags0 |= 0x80000 // Bit 19
 10: 0x0501 [0x00] END_REQSTACK()
```

### Event 65535.19

#### Metadata

| Field        | Value    |
|--------------|----------|
| Entrypoint   | 0x0502   |
| Data Size    | 19 bytes |
| Instructions | 4        |

```
      00 01 02 03 04 05 06 07  08 09 0A 0B 0C 0D 0E 0F
      -- -- -- -- -- -- -- --  -- -- -- -- -- -- -- --
0500:       59 04 F8 FF FF 7F  77 80 1F 00 78 80 79 80    Y.....w...x.y.
0510: 25 80 1F 01 00                                    %....           
```

#### Opcodes

```
  0: 0x0502 [0x59] UPDATE_ENTITY_DATA: Set EventEntity main speed = 42* * 0.1
  1: 0x050A [0x1F] MOVE_ENTITY: EventEntity moves to X=-22.678*, Z=81.353*, Y=-5.000*
  2: 0x0512 [0x1F] MOVE_ENTITY: Update entity position (mode=1)
  3: 0x0514 [0x00] END_REQSTACK()
```

### Event 65535.20

#### Metadata

| Field        | Value    |
|--------------|----------|
| Entrypoint   | 0x0515   |
| Data Size    | 22 bytes |
| Instructions | 5        |

```
      00 01 02 03 04 05 06 07  08 09 0A 0B 0C 0D 0E 0F
      -- -- -- -- -- -- -- --  -- -- -- -- -- -- -- --
0510:                59 04 F8  FF FF 7F 77 80 1C 02 80       Y.....w....
0520: 1F 00 78 80 79 80 25 80  1F 01 00                 ..x.y.%....     
```

#### Opcodes

```
  0: 0x0515 [0x59] UPDATE_ENTITY_DATA: Set EventEntity main speed = 42* * 0.1
  1: 0x051D [0x1C] WAIT(60* ticks)
  2: 0x0520 [0x1F] MOVE_ENTITY: EventEntity moves to X=-22.678*, Z=81.353*, Y=-5.000*
  3: 0x0528 [0x1F] MOVE_ENTITY: Update entity position (mode=1)
  4: 0x052A [0x00] END_REQSTACK()
```

### Event 65535.21

#### Metadata

| Field        | Value    |
|--------------|----------|
| Entrypoint   | 0x052B   |
| Data Size    | 22 bytes |
| Instructions | 5        |

```
      00 01 02 03 04 05 06 07  08 09 0A 0B 0C 0D 0E 0F
      -- -- -- -- -- -- -- --  -- -- -- -- -- -- -- --
0520:                                   59 04 F8 FF FF             Y....
0530: 7F 77 80 1C 7A 80 1F 00  78 80 79 80 25 80 1F 01  .w..z...x.y.%...
0540: 00                                                .               
```

#### Opcodes

```
  0: 0x052B [0x59] UPDATE_ENTITY_DATA: Set EventEntity main speed = 42* * 0.1
  1: 0x0533 [0x1C] WAIT(120* ticks)
  2: 0x0536 [0x1F] MOVE_ENTITY: EventEntity moves to X=-22.678*, Z=81.353*, Y=-5.000*
  3: 0x053E [0x1F] MOVE_ENTITY: Update entity position (mode=1)
  4: 0x0540 [0x00] END_REQSTACK()
```

### Event 65535.22

#### Metadata

| Field        | Value    |
|--------------|----------|
| Entrypoint   | 0x0541   |
| Data Size    | 13 bytes |
| Instructions | 5        |

```
      00 01 02 03 04 05 06 07  08 09 0A 0B 0C 0D 0E 0F
      -- -- -- -- -- -- -- --  -- -- -- -- -- -- -- --
0540:    06 08 10 1C 7B 80 1C  06 80 05 08 10 00         ....{........  
```

#### Opcodes

```
  0: 0x0541 [0x06] Work_Zone[8] = 0
  1: 0x0544 [0x1C] WAIT(600* ticks)
  2: 0x0547 [0x1C] WAIT(5* ticks)
  3: 0x054A [0x05] Work_Zone[8] = 1
  4: 0x054D [0x00] END_REQSTACK()
```

### Event 65535.23

#### Metadata

| Field        | Value     |
|--------------|-----------|
| Entrypoint   | 0x054E    |
| Data Size    | 221 bytes |
| Instructions | 26        |

```
      00 01 02 03 04 05 06 07  08 09 0A 0B 0C 0D 0E 0F
      -- -- -- -- -- -- -- --  -- -- -- -- -- -- -- --
0540:                                            06 09                ..
0550: 10 1C 30 80 52 7C 80 F0  FF FF 7F F0 FF FF 7F 79  ..0.R|.........y
0560: 30 34 32 45 7C 80 1E E2  05 01 1E E2 05 01 79 30  042E|.........y0
0570: 34 35 0A 80 1C 7D 80 52  7C 80 1E E2 05 01 1E E2  45...}.R|.......
0580: 05 01 79 30 34 35 45 7C  80 F0 FF FF 7F F0 FF FF  ..y045E|........
0590: 7F 79 30 35 32 0A 80 27  10 93 E2 05 01 0C 27 10  .y052..'......'.
05A0: 95 E2 05 01 0C BA 44 E2  05 01 7E 80 7F 80 1A 80  ......D...~.....
05B0: 80 80 BA 45 E2 05 01 7E  80 7F 80 1A 80 80 80 BA  ...E...~........
05C0: 46 E2 05 01 7E 80 7F 80  1A 80 80 80 29 10 23 E2  F...~.......).#.
05D0: 05 01 02 29 10 24 E2 05  01 02 79 00 28 E2 05 01  ...).$....y.(...
05E0: 20 E2 05 01 66 81 80 28  E2 05 01 28 E2 05 01 74   ...f..(...(...t
05F0: 6C 6B 30 27 10 FE E2 05  01 0F 27 10 FF E2 05 01  lk0'......'.....
0600: 10 27 10 00 E3 05 01 11  1C 06 80 27 10 44 E2 05  .'.........'.D..
0610: 01 13 27 10 45 E2 05 01  15 27 10 46 E2 05 01 16  ..'.E....'.F....
0620: 27 10 11 E3 05 01 12 05  09 10 00                 '..........     
```

#### Opcodes

```
  0: 0x054E [0x06] Work_Zone[9] = 0
  1: 0x0551 [0x1C] WAIT(150* ticks)
  2: 0x0554 [0x52] END_LOAD_SCHEDULER: End scheduler "y042" with entities [LocalPlayer, LocalPlayer], work=533*
  3: 0x0563 [0x45] LOAD_SCHEDULED_TASK: Load scheduler "y045" with entities [02 (ID: 17162782/0x0105E21E), 02 (ID: 17162782/0x0105E21E)], work=[533*, 0*]
  4: 0x0574 [0x1C] WAIT(300* ticks)
  5: 0x0577 [0x52] END_LOAD_SCHEDULER: End scheduler "y045" with entities [02 (ID: 17162782/0x0105E21E), 02 (ID: 17162782/0x0105E21E)], work=533*
  6: 0x0586 [0x45] LOAD_SCHEDULED_TASK: Load scheduler "y052" with entities [LocalPlayer, LocalPlayer], work=[533*, 0*]
  7: 0x0597 [0x27] REQ_SET(priority=0x10, entity_id=01 (ID: 17162899/0x0105E293), tag_num=0x0C)
  8: 0x059E [0x27] REQ_SET(priority=0x10, entity_id=02 (ID: 17162901/0x0105E295), tag_num=0x0C)
  9: 0x05A5 [0xBA] SET_ENTITY_POSITION(entity_id=02 (ID: 17162820/0x0105E244), pos_x=-60.989*, pos_z=70.254*, pos_y=-3.499*, direction=359.7*)
 10: 0x05B2 [0xBA] SET_ENTITY_POSITION(entity_id=03 (ID: 17162821/0x0105E245), pos_x=-60.989*, pos_z=70.254*, pos_y=-3.499*, direction=359.7*)
 11: 0x05BF [0xBA] SET_ENTITY_POSITION(entity_id=04 (ID: 17162822/0x0105E246), pos_x=-60.989*, pos_z=70.254*, pos_y=-3.499*, direction=359.7*)
 12: 0x05CC [0x29] REQ_SET_WAIT(priority=0x10, entity_id=07 (ID: 17162787/0x0105E223), tag_num=0x02)
 13: 0x05D3 [0x29] REQ_SET_WAIT(priority=0x10, entity_id=Unnamed NPC (ID: 17162788/0x0105E224), tag_num=0x02)
 14: 0x05DA [0x79] Unnamed NPC (ID: 17162792/0x0105E228) looks at 04 (ID: 17162784/0x0105E220) (Basic look)
 15: 0x05E4 [0x66] LOAD_EXT_SCHEDULER_MAIN: Load scheduler "tlk0" with entities [Unnamed NPC (ID: 17162792/0x0105E228), Unnamed NPC (ID: 17162792/0x0105E228)], work=49*
 16: 0x05F3 [0x27] REQ_SET(priority=0x10, entity_id=01 (ID: 17163006/0x0105E2FE), tag_num=0x0F)
 17: 0x05FA [0x27] REQ_SET(priority=0x10, entity_id=02 (ID: 17163007/0x0105E2FF), tag_num=0x10)
 18: 0x0601 [0x27] REQ_SET(priority=0x10, entity_id=03 (ID: 17163008/0x0105E300), tag_num=0x11)
 19: 0x0608 [0x1C] WAIT(5* ticks)
 20: 0x060B [0x27] REQ_SET(priority=0x10, entity_id=02 (ID: 17162820/0x0105E244), tag_num=0x13)
 21: 0x0612 [0x27] REQ_SET(priority=0x10, entity_id=03 (ID: 17162821/0x0105E245), tag_num=0x15)
 22: 0x0619 [0x27] REQ_SET(priority=0x10, entity_id=04 (ID: 17162822/0x0105E246), tag_num=0x16)
 23: 0x0620 [0x27] REQ_SET(priority=0x10, entity_id=Unnamed NPC (ID: 17163025/0x0105E311), tag_num=0x12)
 24: 0x0627 [0x05] Work_Zone[9] = 1
 25: 0x062A [0x00] END_REQSTACK()
```

### Event 65535.24

#### Metadata

| Field        | Value    |
|--------------|----------|
| Entrypoint   | 0x062B   |
| Data Size    | 76 bytes |
| Instructions | 8        |

```
      00 01 02 03 04 05 06 07  08 09 0A 0B 0C 0D 0E 0F
      -- -- -- -- -- -- -- --  -- -- -- -- -- -- -- --
0620:                                   06 08 10 55 7C             ...U|
0630: 80 F0 FF FF 7F F0 FF FF  7F 79 30 35 32 52 7C 80  .........y052R|.
0640: F0 FF FF 7F F0 FF FF 7F  79 30 35 32 27 10 1F E2  ........y052'...
0650: 05 01 09 45 7C 80 F0 FF  FF 7F F0 FF FF 7F 79 30  ...E|.........y0
0660: 35 34 0A 80 05 08 10 55  7C 80 F0 FF FF 7F F0 FF  54.....U|.......
0670: FF 7F 79 30 35 34 00                              ..y054.         
```

#### Opcodes

```
  0: 0x062B [0x06] Work_Zone[8] = 0
  1: 0x062E [0x55] WAIT_LOAD_SCHEDULER: Wait for scheduler "y052" with entities [LocalPlayer, LocalPlayer], work=533*
  2: 0x063D [0x52] END_LOAD_SCHEDULER: End scheduler "y052" with entities [LocalPlayer, LocalPlayer], work=533*
  3: 0x064C [0x27] REQ_SET(priority=0x10, entity_id=03 (ID: 17162783/0x0105E21F), tag_num=0x09)
  4: 0x0653 [0x45] LOAD_SCHEDULED_TASK: Load scheduler "y054" with entities [LocalPlayer, LocalPlayer], work=[533*, 0*]
  5: 0x0664 [0x05] Work_Zone[8] = 1
  6: 0x0667 [0x55] WAIT_LOAD_SCHEDULER: Wait for scheduler "y054" with entities [LocalPlayer, LocalPlayer], work=533*
  7: 0x0676 [0x00] END_REQSTACK()
```

### Event 65535.25

#### Metadata

| Field        | Value    |
|--------------|----------|
| Entrypoint   | 0x0677   |
| Data Size    | 49 bytes |
| Instructions | 5        |

```
      00 01 02 03 04 05 06 07  08 09 0A 0B 0C 0D 0E 0F
      -- -- -- -- -- -- -- --  -- -- -- -- -- -- -- --
0670:                      7B  06 E2 05 01 5B 82 80 06         {....[...
0680: E2 05 01 06 E2 05 01 6B  75 69 30 53 06 E2 05 01  .......kui0S....
0690: 06 E2 05 01 6B 75 69 30  5B 82 80 06 E2 05 01 06  ....kui0[.......
06A0: E2 05 01 65 68 6E 30 00                           ...ehn0.        
```

#### Opcodes

```
  0: 0x0677 [0x7B] Ajido-Marujido (ID: 17162758/0x0105E206) stops talking
  1: 0x067C [0x5B] LOAD_EXT_SCHEDULER: Load scheduler "kui0" with entities [Ajido-Marujido (ID: 17162758/0x0105E206), Ajido-Marujido (ID: 17162758/0x0105E206)], work=1288*
  2: 0x068B [0x53] WAIT_SCHEDULER_TASK: Wait for scheduler "kui0" with entities [Ajido-Marujido (ID: 17162758/0x0105E206), Ajido-Marujido (ID: 17162758/0x0105E206)]
  3: 0x0698 [0x5B] LOAD_EXT_SCHEDULER: Load scheduler "ehn0" with entities [Ajido-Marujido (ID: 17162758/0x0105E206), Ajido-Marujido (ID: 17162758/0x0105E206)], work=1288*
  4: 0x06A7 [0x00] END_REQSTACK()
```

### Event 65535.26

#### Metadata

| Field        | Value    |
|--------------|----------|
| Entrypoint   | 0x06A8   |
| Data Size    | 29 bytes |
| Instructions | 6        |

```
      00 01 02 03 04 05 06 07  08 09 0A 0B 0C 0D 0E 0F
      -- -- -- -- -- -- -- --  -- -- -- -- -- -- -- --
06A0:                          59 04 F8 FF FF 7F 60 80          Y.....`.
06B0: 1F 00 83 80 84 80 11 80  1F 01 6F 4A 43 E2 05 01  ..........oJC...
06C0: 06 E2 05 01 00                                    .....           
```

#### Opcodes

```
  0: 0x06A8 [0x59] UPDATE_ENTITY_DATA: Set EventEntity main speed = 40* * 0.1
  1: 0x06B0 [0x1F] MOVE_ENTITY: EventEntity moves to X=-5.296*, Z=12.328*, Y=-1.000*
  2: 0x06B8 [0x1F] MOVE_ENTITY: Update entity position (mode=1)
  3: 0x06BA [0x6F] WAIT_FRAME_DELAY: Yield until WaitTime reaches zero
  4: 0x06BB [0x4A] 01 (ID: 17162819/0x0105E243) looks at Ajido-Marujido (ID: 17162758/0x0105E206)
  5: 0x06C4 [0x00] END_REQSTACK()
```

### Event 65535.27

#### Metadata

| Field        | Value    |
|--------------|----------|
| Entrypoint   | 0x06C5   |
| Data Size    | 49 bytes |
| Instructions | 7        |

```
      00 01 02 03 04 05 06 07  08 09 0A 0B 0C 0D 0E 0F
      -- -- -- -- -- -- -- --  -- -- -- -- -- -- -- --
06C0:                1C 85 80  5B 82 80 06 E2 05 01 06       ...[.......
06D0: E2 05 01 65 68 6E 31 4A  06 E2 05 01 43 E2 05 01  ...ehn1J....C...
06E0: 6F 76 06 E2 05 01 5B 86  80 06 E2 05 01 06 E2 05  ov....[.........
06F0: 01 73 75 72 30 00                                 .sur0.          
```

#### Opcodes

```
  0: 0x06C5 [0x1C] WAIT(160* ticks)
  1: 0x06C8 [0x5B] LOAD_EXT_SCHEDULER: Load scheduler "ehn1" with entities [Ajido-Marujido (ID: 17162758/0x0105E206), Ajido-Marujido (ID: 17162758/0x0105E206)], work=1288*
  2: 0x06D7 [0x4A] Ajido-Marujido (ID: 17162758/0x0105E206) looks at 01 (ID: 17162819/0x0105E243)
  3: 0x06E0 [0x6F] WAIT_FRAME_DELAY: Yield until WaitTime reaches zero
  4: 0x06E1 [0x76] CHECK_ENTITY_RENDER_FLAGS: Wait until Ajido-Marujido (ID: 17162758/0x0105E206) Render.Flags0 and Render.Flags3 conditions are met
  5: 0x06E6 [0x5B] LOAD_EXT_SCHEDULER: Load scheduler "sur0" with entities [Ajido-Marujido (ID: 17162758/0x0105E206), Ajido-Marujido (ID: 17162758/0x0105E206)], work=85*
  6: 0x06F5 [0x00] END_REQSTACK()
```

### Event 65535.28

#### Metadata

| Field        | Value    |
|--------------|----------|
| Entrypoint   | 0x06F6   |
| Data Size    | 20 bytes |
| Instructions | 5        |

```
      00 01 02 03 04 05 06 07  08 09 0A 0B 0C 0D 0E 0F
      -- -- -- -- -- -- -- --  -- -- -- -- -- -- -- --
06F0:                   59 04  F8 FF FF 7F 87 80 1F 00        Y.........
0700: 88 80 89 80 11 80 1F 01  6F 00                    ........o.      
```

#### Opcodes

```
  0: 0x06F6 [0x59] UPDATE_ENTITY_DATA: Set EventEntity main speed = 7* * 0.1
  1: 0x06FE [0x1F] MOVE_ENTITY: EventEntity moves to X=-0.307*, Z=13.248*, Y=-1.000*
  2: 0x0706 [0x1F] MOVE_ENTITY: Update entity position (mode=1)
  3: 0x0708 [0x6F] WAIT_FRAME_DELAY: Yield until WaitTime reaches zero
  4: 0x0709 [0x00] END_REQSTACK()
```

### Event 65535.29

#### Metadata

| Field        | Value    |
|--------------|----------|
| Entrypoint   | 0x070A   |
| Data Size    | 47 bytes |
| Instructions | 6        |

```
      00 01 02 03 04 05 06 07  08 09 0A 0B 0C 0D 0E 0F
      -- -- -- -- -- -- -- --  -- -- -- -- -- -- -- --
0700:                                5B 86 80 06 E2 05            [.....
0710: 01 06 E2 05 01 73 75 72  30 53 06 E2 05 01 06 E2  .....sur0S......
0720: 05 01 73 75 72 30 59 04  F8 FF FF 7F 8A 80 1F 00  ..sur0Y.........
0730: 8B 80 8C 80 4E 80 1F 01  00                       ....N....       
```

#### Opcodes

```
  0: 0x070A [0x5B] LOAD_EXT_SCHEDULER: Load scheduler "sur0" with entities [Ajido-Marujido (ID: 17162758/0x0105E206), Ajido-Marujido (ID: 17162758/0x0105E206)], work=85*
  1: 0x0719 [0x53] WAIT_SCHEDULER_TASK: Wait for scheduler "sur0" with entities [Ajido-Marujido (ID: 17162758/0x0105E206), Ajido-Marujido (ID: 17162758/0x0105E206)]
  2: 0x0726 [0x59] UPDATE_ENTITY_DATA: Set EventEntity main speed = 35* * 0.1
  3: 0x072E [0x1F] MOVE_ENTITY: EventEntity moves to X=-1.006*, Z=16.226*, Y=-0.999*
  4: 0x0736 [0x1F] MOVE_ENTITY: Update entity position (mode=1)
  5: 0x0738 [0x00] END_REQSTACK()
```

### Event 65535.30

#### Metadata

| Field        | Value    |
|--------------|----------|
| Entrypoint   | 0x0739   |
| Data Size    | 21 bytes |
| Instructions | 3        |

```
      00 01 02 03 04 05 06 07  08 09 0A 0B 0C 0D 0E 0F
      -- -- -- -- -- -- -- --  -- -- -- -- -- -- -- --
0730:                             1C 8D 80 45 8E 80 F0           ...E...
0740: FF FF 7F F0 FF FF 7F 62  6C 6F 6E 0A 80 00        .......blon...  
```

#### Opcodes

```
  0: 0x0739 [0x1C] WAIT(75* ticks)
  1: 0x073C [0x45] LOAD_SCHEDULED_TASK: Load scheduler "blon" with entities [LocalPlayer, LocalPlayer], work=[201*, 0*]
  2: 0x074D [0x00] END_REQSTACK()
```

### Event 65535.31

#### Metadata

| Field        | Value     |
|--------------|-----------|
| Entrypoint   | 0x074E    |
| Data Size    | 161 bytes |
| Instructions | 17        |

```
      00 01 02 03 04 05 06 07  08 09 0A 0B 0C 0D 0E 0F
      -- -- -- -- -- -- -- --  -- -- -- -- -- -- -- --
0740:                                            59 04                Y.
0750: F8 FF FF 7F 8A 80 1F 00  8F 80 90 80 11 80 1F 01  ................
0760: 6F BA F0 FF FF 7F 91 80  92 80 4E 80 93 80 1C 06  o.........N.....
0770: 80 5B 94 80 06 E2 05 01  06 E2 05 01 61 75 70 30  .[..........aup0
0780: 53 06 E2 05 01 06 E2 05  01 61 75 70 30 50 06 E2  S........aup0P..
0790: 05 01 06 E2 05 01 61 75  70 30 5B 95 80 43 E2 05  ......aup0[..C..
07A0: 01 43 E2 05 01 6A 74 30  30 5B 96 80 06 E2 05 01  .C...jt00[......
07B0: 06 E2 05 01 6A 74 30 30  55 97 80 F0 FF FF 7F F0  ....jt00U.......
07C0: FF FF 7F 79 31 32 31 27  10 43 E2 05 01 03 BA 06  ...y121'.C......
07D0: E2 05 01 8F 80 90 80 11  80 98 80 4A FF E1 05 01  ...........J....
07E0: 06 E2 05 01 79 00 FF E1  05 01 06 E2 05 01 00     ....y.......... 
```

#### Opcodes

```
  0: 0x074E [0x59] UPDATE_ENTITY_DATA: Set EventEntity main speed = 35* * 0.1
  1: 0x0756 [0x1F] MOVE_ENTITY: EventEntity moves to X=-1.058*, Z=17.433*, Y=-1.000*
  2: 0x075E [0x1F] MOVE_ENTITY: Update entity position (mode=1)
  3: 0x0760 [0x6F] WAIT_FRAME_DELAY: Yield until WaitTime reaches zero
  4: 0x0761 [0xBA] SET_ENTITY_POSITION(entity_id=LocalPlayer, pos_x=1.032*, pos_z=15.680*, pos_y=-0.999*, direction=220.0*)
  5: 0x076E [0x1C] WAIT(5* ticks)
  6: 0x0771 [0x5B] LOAD_EXT_SCHEDULER: Load scheduler "aup0" with entities [Ajido-Marujido (ID: 17162758/0x0105E206), Ajido-Marujido (ID: 17162758/0x0105E206)], work=1286*
  7: 0x0780 [0x53] WAIT_SCHEDULER_TASK: Wait for scheduler "aup0" with entities [Ajido-Marujido (ID: 17162758/0x0105E206), Ajido-Marujido (ID: 17162758/0x0105E206)]
  8: 0x078D [0x50] END_SCHEDULER_TASK: End scheduler "au" with entities [0xE206, 0xE206], work=[261, 261]
  9: 0x079A [0x5B] LOAD_EXT_SCHEDULER: Load scheduler "jt00" with entities [01 (ID: 17162819/0x0105E243), 01 (ID: 17162819/0x0105E243)], work=181*
 10: 0x07A9 [0x5B] LOAD_EXT_SCHEDULER: Load scheduler "jt00" with entities [Ajido-Marujido (ID: 17162758/0x0105E206), Ajido-Marujido (ID: 17162758/0x0105E206)], work=86*
 11: 0x07B8 [0x55] WAIT_LOAD_SCHEDULER: Wait for scheduler "y121" with entities [LocalPlayer, LocalPlayer], work=393*
 12: 0x07C7 [0x27] REQ_SET(priority=0x10, entity_id=01 (ID: 17162819/0x0105E243), tag_num=0x03)
 13: 0x07CE [0xBA] SET_ENTITY_POSITION(entity_id=Ajido-Marujido (ID: 17162758/0x0105E206), pos_x=-1.058*, pos_z=17.433*, pos_y=-1.000*, direction=266.2*)
 14: 0x07DB [0x4A] Dhea Prandoleh (ID: 17162751/0x0105E1FF) looks at Ajido-Marujido (ID: 17162758/0x0105E206)
 15: 0x07E4 [0x79] Dhea Prandoleh (ID: 17162751/0x0105E1FF) looks at Ajido-Marujido (ID: 17162758/0x0105E206) (Basic look)
 16: 0x07EE [0x00] END_REQSTACK()
```

### Event 65535.32

#### Metadata

| Field        | Value    |
|--------------|----------|
| Entrypoint   | 0x07EF   |
| Data Size    | 20 bytes |
| Instructions | 5        |

```
      00 01 02 03 04 05 06 07  08 09 0A 0B 0C 0D 0E 0F
      -- -- -- -- -- -- -- --  -- -- -- -- -- -- -- --
07E0:                                               59                 Y
07F0: 04 F8 FF FF 7F 99 80 1F  00 9A 80 9B 80 9C 80 1F  ................
0800: 01 6F 00                                          .o.             
```

#### Opcodes

```
  0: 0x07EF [0x59] UPDATE_ENTITY_DATA: Set EventEntity main speed = 36* * 0.1
  1: 0x07F7 [0x1F] MOVE_ENTITY: EventEntity moves to X=-7.685*, Z=7.819*, Y=-1.026*
  2: 0x07FF [0x1F] MOVE_ENTITY: Update entity position (mode=1)
  3: 0x0801 [0x6F] WAIT_FRAME_DELAY: Yield until WaitTime reaches zero
  4: 0x0802 [0x00] END_REQSTACK()
```

### Event 20

#### Metadata

| Field        | Value   |
|--------------|---------|
| Entrypoint   | 0x0803  |
| Data Size    | 1 bytes |
| Instructions | 1       |

```
      00 01 02 03 04 05 06 07  08 09 0A 0B 0C 0D 0E 0F
      -- -- -- -- -- -- -- --  -- -- -- -- -- -- -- --
0800:          00                                          .            
```

#### Opcodes

```
  0: 0x0803 [0x00] END_REQSTACK()
```

### Event 65535.33

#### Metadata

| Field        | Value    |
|--------------|----------|
| Entrypoint   | 0x0804   |
| Data Size    | 30 bytes |
| Instructions | 7        |

```
      00 01 02 03 04 05 06 07  08 09 0A 0B 0C 0D 0E 0F
      -- -- -- -- -- -- -- --  -- -- -- -- -- -- -- --
0800:             59 04 27 E2  05 01 9D 80 1F 00 9E 80      Y.'.........
0810: 9F 80 5D 80 1F 01 1F 00  A0 80 A1 80 5D 80 1F 01  ..].........]...
0820: 6F 00                                             o.              
```

#### Opcodes

```
  0: 0x0804 [0x59] UPDATE_ENTITY_DATA: Set Unnamed NPC (ID: 17162791/0x0105E227) main speed = 38* * 0.1
  1: 0x080C [0x1F] MOVE_ENTITY: EventEntity moves to X=-41.779*, Z=70.445*, Y=-3.500*
  2: 0x0814 [0x1F] MOVE_ENTITY: Update entity position (mode=1)
  3: 0x0816 [0x1F] MOVE_ENTITY: EventEntity moves to X=-38.669*, Z=70.024*, Y=-3.500*
  4: 0x081E [0x1F] MOVE_ENTITY: Update entity position (mode=1)
  5: 0x0820 [0x6F] WAIT_FRAME_DELAY: Yield until WaitTime reaches zero
  6: 0x0821 [0x00] END_REQSTACK()
```

### Event 65535.34

#### Metadata

| Field        | Value    |
|--------------|----------|
| Entrypoint   | 0x0822   |
| Data Size    | 22 bytes |
| Instructions | 7        |

```
      00 01 02 03 04 05 06 07  08 09 0A 0B 0C 0D 0E 0F
      -- -- -- -- -- -- -- --  -- -- -- -- -- -- -- --
0820:       B6 0E 0A 80 0B 80  0C 80 0A 80 0A 80 0A 80    ..............
0830: 0C 80 80 F8 FF FF 7F 00                           ........        
```

#### Opcodes

```
  0: 0x0822 [0xB6] ENTITY_APPEARANCE_HANDLER(case=Look with Render flags, race=0*, face=4*, head=1*, body=0*, hands=0*, render_flags=0x800A)
  1: 0x0830 [0x0C] 4093*--
  2: 0x0833 [0xF8] UNKNOWN_OPCODE_0xF8
  3: 0x0834 [0xFF] UNKNOWN_OPCODE_0xFF
  4: 0x0835 [0xFF] UNKNOWN_OPCODE_0xFF
  5: 0x0836 [0x7F] WAIT_DIALOG_SELECT_ALT()
  6: 0x0837 [0x00] END_REQSTACK()
```

### Event 65535.35

#### Metadata

| Field        | Value   |
|--------------|---------|
| Entrypoint   | 0x0838  |
| Data Size    | 9 bytes |
| Instructions | 5       |

```
      00 01 02 03 04 05 06 07  08 09 0A 0B 0C 0D 0E 0F
      -- -- -- -- -- -- -- --  -- -- -- -- -- -- -- --
0830:                          4C 1C 5A 80 4D 1C 0E 80          L.Z.M...
0840: 00                                                .               
```

#### Opcodes

```
  0: 0x0838 [0x4C] EventEntity->StatusEvent = 8 // Open door
  1: 0x0839 [0x1C] WAIT(360* ticks)
  2: 0x083C [0x4D] EventEntity->StatusEvent = 9 // Close door
  3: 0x083D [0x1C] WAIT(80* ticks)
  4: 0x0840 [0x00] END_REQSTACK()
```

### Event 65535.36

#### Metadata

| Field        | Value    |
|--------------|----------|
| Entrypoint   | 0x0841   |
| Data Size    | 13 bytes |
| Instructions | 3        |

```
      00 01 02 03 04 05 06 07  08 09 0A 0B 0C 0D 0E 0F
      -- -- -- -- -- -- -- --  -- -- -- -- -- -- -- --
0840:    1C 02 80 6C F8 FF FF  7F 0A 80 53 80 00         ...l......S..  
```

#### Opcodes

```
  0: 0x0841 [0x1C] WAIT(60* ticks)
  1: 0x0844 [0x6C] FADE_ENTITY_COLOR(entity_id=EventEntity, end_alpha=0*, fade_time=180*)
  2: 0x084D [0x00] END_REQSTACK()
```

### Event 65535.37

#### Metadata

| Field        | Value    |
|--------------|----------|
| Entrypoint   | 0x084E   |
| Data Size    | 10 bytes |
| Instructions | 2        |

```
      00 01 02 03 04 05 06 07  08 09 0A 0B 0C 0D 0E 0F
      -- -- -- -- -- -- -- --  -- -- -- -- -- -- -- --
0840:                                            6C F8                l.
0850: FF FF 7F 00 80 02 80 00                           ........        
```

#### Opcodes

```
  0: 0x084E [0x6C] FADE_ENTITY_COLOR(entity_id=EventEntity, end_alpha=128*, fade_time=60*)
  1: 0x0857 [0x00] END_REQSTACK()
```

### Event 65535.38

#### Metadata

| Field        | Value   |
|--------------|---------|
| Entrypoint   | 0x0858  |
| Data Size    | 5 bytes |
| Instructions | 2       |

```
      00 01 02 03 04 05 06 07  08 09 0A 0B 0C 0D 0E 0F
      -- -- -- -- -- -- -- --  -- -- -- -- -- -- -- --
0850:                          B6 00 A2 80 00                   .....   
```

#### Opcodes

```
  0: 0x0858 [0xB6] ENTITY_APPEARANCE_HANDLER(case=Hair style, value=2346*)
  1: 0x085C [0x00] END_REQSTACK()
```

### Event 65535.39

#### Metadata

| Field        | Value   |
|--------------|---------|
| Entrypoint   | 0x085D  |
| Data Size    | 5 bytes |
| Instructions | 2       |

```
      00 01 02 03 04 05 06 07  08 09 0A 0B 0C 0D 0E 0F
      -- -- -- -- -- -- -- --  -- -- -- -- -- -- -- --
0850:                                         B6 00 A3               ...
0860: 80 00                                             ..              
```

#### Opcodes

```
  0: 0x085D [0xB6] ENTITY_APPEARANCE_HANDLER(case=Hair style, value=2250*)
  1: 0x0861 [0x00] END_REQSTACK()
```

### Event 65535.40

#### Metadata

| Field        | Value    |
|--------------|----------|
| Entrypoint   | 0x0862   |
| Data Size    | 21 bytes |
| Instructions | 2        |

```
      00 01 02 03 04 05 06 07  08 09 0A 0B 0C 0D 0E 0F
      -- -- -- -- -- -- -- --  -- -- -- -- -- -- -- --
0860:       B6 0B 87 80 A4 80  A5 80 A6 80 02 80 A5 80    ..............
0870: A6 80 A7 80 0A 80 00                              .......         
```

#### Opcodes

```
  0: 0x0862 [0xB6] ENTITY_APPEARANCE_HANDLER(case=Full entity look, race=7*, hair=2*, head=164*, body=62*, hands=60*, legs=164*, feet=62*, main=216*, sub=0*)
  1: 0x0876 [0x00] END_REQSTACK()
```

### Event 65535.41

#### Metadata

| Field        | Value    |
|--------------|----------|
| Entrypoint   | 0x0877   |
| Data Size    | 30 bytes |
| Instructions | 6        |

```
      00 01 02 03 04 05 06 07  08 09 0A 0B 0C 0D 0E 0F
      -- -- -- -- -- -- -- --  -- -- -- -- -- -- -- --
0870:                      59  04 F8 FF FF 7F A8 80 1F         Y........
0880: 00 A9 80 AA 80 11 80 1F  01 6F 79 00 F8 FF FF 7F  .........oy.....
0890: F0 FF FF 7F 00                                    .....           
```

#### Opcodes

```
  0: 0x0877 [0x59] UPDATE_ENTITY_DATA: Set EventEntity main speed = 13* * 0.1
  1: 0x087F [0x1F] MOVE_ENTITY: EventEntity moves to X=1.673*, Z=47.546*, Y=-1.000*
  2: 0x0887 [0x1F] MOVE_ENTITY: Update entity position (mode=1)
  3: 0x0889 [0x6F] WAIT_FRAME_DELAY: Yield until WaitTime reaches zero
  4: 0x088A [0x79] EventEntity looks at LocalPlayer (Basic look)
  5: 0x0894 [0x00] END_REQSTACK()
```

### Event 65535.42

#### Metadata

| Field        | Value    |
|--------------|----------|
| Entrypoint   | 0x0895   |
| Data Size    | 54 bytes |
| Instructions | 10       |

```
      00 01 02 03 04 05 06 07  08 09 0A 0B 0C 0D 0E 0F
      -- -- -- -- -- -- -- --  -- -- -- -- -- -- -- --
0890:                06 09 10  1C 7D 80 79 00 08 E2 05       ....}.y....
08A0: 01 F0 FF FF 7F 79 00 07  E2 05 01 F0 FF FF 7F 1C  .....y..........
08B0: 02 80 79 00 F0 FF FF 7F  08 E2 05 01 1C 7A 80 59  ..y..........z.Y
08C0: 03 F0 FF FF 7F AB 80 05  09 10 00                 ...........     
```

#### Opcodes

```
  0: 0x0895 [0x06] Work_Zone[9] = 0
  1: 0x0898 [0x1C] WAIT(300* ticks)
  2: 0x089B [0x79] Romaa Mihgo (ID: 17162760/0x0105E208) looks at LocalPlayer (Basic look)
  3: 0x08A5 [0x79] Perih Vashai (ID: 17162759/0x0105E207) looks at LocalPlayer (Basic look)
  4: 0x08AF [0x1C] WAIT(60* ticks)
  5: 0x08B2 [0x79] LocalPlayer looks at Romaa Mihgo (ID: 17162760/0x0105E208) (Basic look)
  6: 0x08BC [0x1C] WAIT(120* ticks)
  7: 0x08BF [0x59] UPDATE_ENTITY_DATA: Set LocalPlayer turn speed head = 250*
  8: 0x08C7 [0x05] Work_Zone[9] = 1
  9: 0x08CA [0x00] END_REQSTACK()
```

### Event 65535.43

#### Metadata

| Field        | Value    |
|--------------|----------|
| Entrypoint   | 0x08CB   |
| Data Size    | 22 bytes |
| Instructions | 7        |

```
      00 01 02 03 04 05 06 07  08 09 0A 0B 0C 0D 0E 0F
      -- -- -- -- -- -- -- --  -- -- -- -- -- -- -- --
08C0:                                   B6 0E 0A 80 0A             .....
08D0: 80 0A 80 0A 80 0A 80 0A  80 0C 80 80 F8 FF FF 7F  ................
08E0: 00                                                .               
```

#### Opcodes

```
  0: 0x08CB [0xB6] ENTITY_APPEARANCE_HANDLER(case=Look with Render flags, race=0*, face=0*, head=0*, body=0*, hands=0*, render_flags=0x800A)
  1: 0x08D9 [0x0C] 4093*--
  2: 0x08DC [0xF8] UNKNOWN_OPCODE_0xF8
  3: 0x08DD [0xFF] UNKNOWN_OPCODE_0xFF
  4: 0x08DE [0xFF] UNKNOWN_OPCODE_0xFF
  5: 0x08DF [0x7F] WAIT_DIALOG_SELECT_ALT()
  6: 0x08E0 [0x00] END_REQSTACK()
```

### Event 65535.44

#### Metadata

| Field        | Value    |
|--------------|----------|
| Entrypoint   | 0x08E1   |
| Data Size    | 59 bytes |
| Instructions | 12       |

```
      00 01 02 03 04 05 06 07  08 09 0A 0B 0C 0D 0E 0F
      -- -- -- -- -- -- -- --  -- -- -- -- -- -- -- --
08E0:    59 04 F8 FF FF 7F AC  80 1F 00 AD 80 AE 80 5D   Y.............]
08F0: 80 1F 01 1F 00 AF 80 B0  80 5D 80 1F 01 1F 00 B1  .........]......
0900: 80 B2 80 5D 80 1F 01 1F  00 B3 80 B4 80 5D 80 1F  ...].........]..
0910: 01 6F 4A F8 FF FF 7F 00  E3 05 01 00              .oJ.........    
```

#### Opcodes

```
  0: 0x08E1 [0x59] UPDATE_ENTITY_DATA: Set EventEntity main speed = 11* * 0.1
  1: 0x08E9 [0x1F] MOVE_ENTITY: EventEntity moves to X=305.946*, Z=39.219*, Y=-3.500*
  2: 0x08F1 [0x1F] MOVE_ENTITY: Update entity position (mode=1)
  3: 0x08F3 [0x1F] MOVE_ENTITY: EventEntity moves to X=305.425*, Z=40.893*, Y=-3.500*
  4: 0x08FB [0x1F] MOVE_ENTITY: Update entity position (mode=1)
  5: 0x08FD [0x1F] MOVE_ENTITY: EventEntity moves to X=306.760*, Z=42.864*, Y=-3.500*
  6: 0x0905 [0x1F] MOVE_ENTITY: Update entity position (mode=1)
  7: 0x0907 [0x1F] MOVE_ENTITY: EventEntity moves to X=306.465*, Z=43.464*, Y=-3.500*
  8: 0x090F [0x1F] MOVE_ENTITY: Update entity position (mode=1)
  9: 0x0911 [0x6F] WAIT_FRAME_DELAY: Yield until WaitTime reaches zero
 10: 0x0912 [0x4A] EventEntity looks at 03 (ID: 17163008/0x0105E300)
 11: 0x091B [0x00] END_REQSTACK()
```

### Event 65535.45

#### Metadata

| Field        | Value     |
|--------------|-----------|
| Entrypoint   | 0x091C    |
| Data Size    | 165 bytes |
| Instructions | 34        |

```
      00 01 02 03 04 05 06 07  08 09 0A 0B 0C 0D 0E 0F
      -- -- -- -- -- -- -- --  -- -- -- -- -- -- -- --
0910:                                      59 04 F8 FF              Y...
0920: FF 7F B5 80 1F 00 B6 80  B7 80 5D 80 1F 01 1F 00  ..........].....
0930: B8 80 B9 80 BA 80 1F 01  1F 00 BB 80 BC 80 BD 80  ................
0940: 1F 01 1F 00 BE 80 BF 80  C0 80 1F 01 1F 00 C1 80  ................
0950: C2 80 C3 80 1F 01 1F 00  C4 80 C5 80 5D 80 1F 01  ............]...
0960: 1F 00 C6 80 C7 80 5D 80  1F 01 6F 4A F8 FF FF 7F  ......]...oJ....
0970: 01 E3 05 01 1C 7A 80 4A  F8 FF FF 7F 04 E3 05 01  .....z.J........
0980: 1C C8 80 1F 00 C4 80 C5  80 5D 80 1F 01 1F 00 C1  .........]......
0990: 80 C2 80 C3 80 1F 01 1F  00 BE 80 BF 80 C0 80 1F  ................
09A0: 01 1F 00 BB 80 BC 80 BD  80 1F 01 1F 00 B8 80 B9  ................
09B0: 80 BA 80 1F 01 1F 00 B6  80 B7 80 5D 80 1F 01 6F  ...........]...o
09C0: 00                                                .               
```

#### Opcodes

```
  0: 0x091C [0x59] UPDATE_ENTITY_DATA: Set EventEntity main speed = 16* * 0.1
  1: 0x0924 [0x1F] MOVE_ENTITY: EventEntity moves to X=307.350*, Z=42.258*, Y=-3.500*
  2: 0x092C [0x1F] MOVE_ENTITY: Update entity position (mode=1)
  3: 0x092E [0x1F] MOVE_ENTITY: EventEntity moves to X=307.943*, Z=41.017*, Y=-3.571*
  4: 0x0936 [0x1F] MOVE_ENTITY: Update entity position (mode=1)
  5: 0x0938 [0x1F] MOVE_ENTITY: EventEntity moves to X=308.248*, Z=39.611*, Y=-3.728*
  6: 0x0940 [0x1F] MOVE_ENTITY: Update entity position (mode=1)
  7: 0x0942 [0x1F] MOVE_ENTITY: EventEntity moves to X=308.288*, Z=38.147*, Y=-3.752*
  8: 0x094A [0x1F] MOVE_ENTITY: Update entity position (mode=1)
  9: 0x094C [0x1F] MOVE_ENTITY: EventEntity moves to X=307.941*, Z=37.878*, Y=-3.580*
 10: 0x0954 [0x1F] MOVE_ENTITY: Update entity position (mode=1)
 11: 0x0956 [0x1F] MOVE_ENTITY: EventEntity moves to X=306.894*, Z=37.611*, Y=-3.500*
 12: 0x095E [0x1F] MOVE_ENTITY: Update entity position (mode=1)
 13: 0x0960 [0x1F] MOVE_ENTITY: EventEntity moves to X=305.843*, Z=36.702*, Y=-3.500*
 14: 0x0968 [0x1F] MOVE_ENTITY: Update entity position (mode=1)
 15: 0x096A [0x6F] WAIT_FRAME_DELAY: Yield until WaitTime reaches zero
 16: 0x096B [0x4A] EventEntity looks at 04 (ID: 17163009/0x0105E301)
 17: 0x0974 [0x1C] WAIT(120* ticks)
 18: 0x0977 [0x4A] EventEntity looks at Koh Lenbalalako (ID: 17163012/0x0105E304)
 19: 0x0980 [0x1C] WAIT(240* ticks)
 20: 0x0983 [0x1F] MOVE_ENTITY: EventEntity moves to X=306.894*, Z=37.611*, Y=-3.500*
 21: 0x098B [0x1F] MOVE_ENTITY: Update entity position (mode=1)
 22: 0x098D [0x1F] MOVE_ENTITY: EventEntity moves to X=307.941*, Z=37.878*, Y=-3.580*
 23: 0x0995 [0x1F] MOVE_ENTITY: Update entity position (mode=1)
 24: 0x0997 [0x1F] MOVE_ENTITY: EventEntity moves to X=308.288*, Z=38.147*, Y=-3.752*
 25: 0x099F [0x1F] MOVE_ENTITY: Update entity position (mode=1)
 26: 0x09A1 [0x1F] MOVE_ENTITY: EventEntity moves to X=308.248*, Z=39.611*, Y=-3.728*
 27: 0x09A9 [0x1F] MOVE_ENTITY: Update entity position (mode=1)
 28: 0x09AB [0x1F] MOVE_ENTITY: EventEntity moves to X=307.943*, Z=41.017*, Y=-3.571*
 29: 0x09B3 [0x1F] MOVE_ENTITY: Update entity position (mode=1)
 30: 0x09B5 [0x1F] MOVE_ENTITY: EventEntity moves to X=307.350*, Z=42.258*, Y=-3.500*
 31: 0x09BD [0x1F] MOVE_ENTITY: Update entity position (mode=1)
 32: 0x09BF [0x6F] WAIT_FRAME_DELAY: Yield until WaitTime reaches zero
 33: 0x09C0 [0x00] END_REQSTACK()
```

### Event 65535.46

#### Metadata

| Field        | Value    |
|--------------|----------|
| Entrypoint   | 0x09C1   |
| Data Size    | 12 bytes |
| Instructions | 4        |

```
      00 01 02 03 04 05 06 07  08 09 0A 0B 0C 0D 0E 0F
      -- -- -- -- -- -- -- --  -- -- -- -- -- -- -- --
09C0:    1F 00 C9 80 CA 80 CB  80 1F 01 6F 00            ..........o.   
```

#### Opcodes

```
  0: 0x09C1 [0x1F] MOVE_ENTITY: EventEntity moves to X=306.743*, Z=35.284*, Y=-3.595*
  1: 0x09C9 [0x1F] MOVE_ENTITY: Update entity position (mode=1)
  2: 0x09CB [0x6F] WAIT_FRAME_DELAY: Yield until WaitTime reaches zero
  3: 0x09CC [0x00] END_REQSTACK()
```

### Event 65535.47

#### Metadata

| Field        | Value    |
|--------------|----------|
| Entrypoint   | 0x09CD   |
| Data Size    | 38 bytes |
| Instructions | 7        |

```
      00 01 02 03 04 05 06 07  08 09 0A 0B 0C 0D 0E 0F
      -- -- -- -- -- -- -- --  -- -- -- -- -- -- -- --
09C0:                                         6E 04 E3               n..
09D0: 05 01 87 80 99 04 E3 05  01 1C CC 80 79 00 04 E3  ............y...
09E0: 05 01 03 E3 05 01 6E 04  E3 05 01 03 80 99 04 E3  ......n.........
09F0: 05 01 00                                          ...             
```

#### Opcodes

```
  0: 0x09CD [0x6E] Koh Lenbalalako (ID: 17163012/0x0105E304) uses emote 7*
  1: 0x09D4 [0x99] Wait for Koh Lenbalalako (ID: 17163012/0x0105E304) animation to complete
  2: 0x09D9 [0x1C] WAIT(90* ticks)
  3: 0x09DC [0x79] Koh Lenbalalako (ID: 17163012/0x0105E304) looks at Syu Befrathi (ID: 17163011/0x0105E303) (Basic look)
  4: 0x09E6 [0x6E] Koh Lenbalalako (ID: 17163012/0x0105E304) uses emote 10*
  5: 0x09ED [0x99] Wait for Koh Lenbalalako (ID: 17163012/0x0105E304) animation to complete
  6: 0x09F2 [0x00] END_REQSTACK()
```

### Event 65535.48

#### Metadata

| Field        | Value    |
|--------------|----------|
| Entrypoint   | 0x09F3   |
| Data Size    | 29 bytes |
| Instructions | 6        |

```
      00 01 02 03 04 05 06 07  08 09 0A 0B 0C 0D 0E 0F
      -- -- -- -- -- -- -- --  -- -- -- -- -- -- -- --
09F0:          59 04 F8 FF FF  7F A8 80 1F 00 CD 80 CE     Y............
0A00: 80 28 80 1F 01 6F 4A F8  FF FF 7F 4E E2 05 01 00  .(...oJ....N....
```

#### Opcodes

```
  0: 0x09F3 [0x59] UPDATE_ENTITY_DATA: Set EventEntity main speed = 13* * 0.1
  1: 0x09FB [0x1F] MOVE_ENTITY: EventEntity moves to X=-15.649*, Z=85.422*, Y=-4.999*
  2: 0x0A03 [0x1F] MOVE_ENTITY: Update entity position (mode=1)
  3: 0x0A05 [0x6F] WAIT_FRAME_DELAY: Yield until WaitTime reaches zero
  4: 0x0A06 [0x4A] EventEntity looks at Shikaree G (ID: 17162830/0x0105E24E)
  5: 0x0A0F [0x00] END_REQSTACK()
```

### Event 65535.49

#### Metadata

| Field        | Value    |
|--------------|----------|
| Entrypoint   | 0x0A10   |
| Data Size    | 44 bytes |
| Instructions | 7        |

```
      00 01 02 03 04 05 06 07  08 09 0A 0B 0C 0D 0E 0F
      -- -- -- -- -- -- -- --  -- -- -- -- -- -- -- --
0A10: 59 04 F8 FF FF 7F A8 80  1F 00 CF 80 D0 80 28 80  Y.............(.
0A20: 1F 01 6F 4A F8 FF FF 7F  4E E2 05 01 5B D1 80 08  ..oJ....N...[...
0A30: E2 05 01 08 E2 05 01 73  74 61 30 00              .......sta0.    
```

#### Opcodes

```
  0: 0x0A10 [0x59] UPDATE_ENTITY_DATA: Set EventEntity main speed = 13* * 0.1
  1: 0x0A18 [0x1F] MOVE_ENTITY: EventEntity moves to X=-13.733*, Z=84.623*, Y=-4.999*
  2: 0x0A20 [0x1F] MOVE_ENTITY: Update entity position (mode=1)
  3: 0x0A22 [0x6F] WAIT_FRAME_DELAY: Yield until WaitTime reaches zero
  4: 0x0A23 [0x4A] EventEntity looks at Shikaree G (ID: 17162830/0x0105E24E)
  5: 0x0A2C [0x5B] LOAD_EXT_SCHEDULER: Load scheduler "sta0" with entities [Romaa Mihgo (ID: 17162760/0x0105E208), Romaa Mihgo (ID: 17162760/0x0105E208)], work=1327*
  6: 0x0A3B [0x00] END_REQSTACK()
```

### Event 65535.50

#### Metadata

| Field        | Value    |
|--------------|----------|
| Entrypoint   | 0x0A3C   |
| Data Size    | 40 bytes |
| Instructions | 5        |

```
      00 01 02 03 04 05 06 07  08 09 0A 0B 0C 0D 0E 0F
      -- -- -- -- -- -- -- --  -- -- -- -- -- -- -- --
0A30:                                      5B D2 80 08              [...
0A40: E2 05 01 08 E2 05 01 64  6B 69 30 1C D3 80 7C 00  .......dki0...|.
0A50: F8 FF FF 7F 5B D2 80 08  E2 05 01 08 E2 05 01 64  ....[..........d
0A60: 6B 69 31 00                                       ki1.            
```

#### Opcodes

```
  0: 0x0A3C [0x5B] LOAD_EXT_SCHEDULER: Load scheduler "dki0" with entities [Romaa Mihgo (ID: 17162760/0x0105E208), Romaa Mihgo (ID: 17162760/0x0105E208)], work=2415*
  1: 0x0A4B [0x1C] WAIT(45* ticks)
  2: 0x0A4E [0x7C] EventEntity->Render.Flags2 |= 0x00
  3: 0x0A54 [0x5B] LOAD_EXT_SCHEDULER: Load scheduler "dki1" with entities [Romaa Mihgo (ID: 17162760/0x0105E208), Romaa Mihgo (ID: 17162760/0x0105E208)], work=2415*
  4: 0x0A63 [0x00] END_REQSTACK()
```

### Event 65535.51

#### Metadata

| Field        | Value    |
|--------------|----------|
| Entrypoint   | 0x0A64   |
| Data Size    | 30 bytes |
| Instructions | 7        |

```
      00 01 02 03 04 05 06 07  08 09 0A 0B 0C 0D 0E 0F
      -- -- -- -- -- -- -- --  -- -- -- -- -- -- -- --
0A60:             59 04 F8 FF  FF 7F 03 80 1F 00 D4 80      Y...........
0A70: D5 80 D6 80 1F 01 1F 00  D7 80 D8 80 D9 80 1F 01  ................
0A80: 6F 00                                             o.              
```

#### Opcodes

```
  0: 0x0A64 [0x59] UPDATE_ENTITY_DATA: Set EventEntity main speed = 10* * 0.1
  1: 0x0A6C [0x1F] MOVE_ENTITY: EventEntity moves to X=-28.071*, Z=86.474*, Y=-5.001*
  2: 0x0A74 [0x1F] MOVE_ENTITY: Update entity position (mode=1)
  3: 0x0A76 [0x1F] MOVE_ENTITY: EventEntity moves to X=-28.357*, Z=86.595*, Y=-5.006*
  4: 0x0A7E [0x1F] MOVE_ENTITY: Update entity position (mode=1)
  5: 0x0A80 [0x6F] WAIT_FRAME_DELAY: Yield until WaitTime reaches zero
  6: 0x0A81 [0x00] END_REQSTACK()
```

### Event 65535.52

#### Metadata

| Field        | Value    |
|--------------|----------|
| Entrypoint   | 0x0A82   |
| Data Size    | 22 bytes |
| Instructions | 5        |

```
      00 01 02 03 04 05 06 07  08 09 0A 0B 0C 0D 0E 0F
      -- -- -- -- -- -- -- --  -- -- -- -- -- -- -- --
0A80:       1F 00 DA 80 DB 80  DC 80 1F 01 6F 79 00 4E    ..........oy.N
0A90: E2 05 01 07 E2 05 01 00                           ........        
```

#### Opcodes

```
  0: 0x0A82 [0x1F] MOVE_ENTITY: EventEntity moves to X=-28.125*, Z=86.354*, Y=-5.002*
  1: 0x0A8A [0x1F] MOVE_ENTITY: Update entity position (mode=1)
  2: 0x0A8C [0x6F] WAIT_FRAME_DELAY: Yield until WaitTime reaches zero
  3: 0x0A8D [0x79] Shikaree G (ID: 17162830/0x0105E24E) looks at Perih Vashai (ID: 17162759/0x0105E207) (Basic look)
  4: 0x0A97 [0x00] END_REQSTACK()
```

### Event 65535.53

#### Metadata

| Field        | Value    |
|--------------|----------|
| Entrypoint   | 0x0A98   |
| Data Size    | 12 bytes |
| Instructions | 4        |

```
      00 01 02 03 04 05 06 07  08 09 0A 0B 0C 0D 0E 0F
      -- -- -- -- -- -- -- --  -- -- -- -- -- -- -- --
0A90:                          1F 00 D7 80 D8 80 D9 80          ........
0AA0: 1F 01 6F 00                                       ..o.            
```

#### Opcodes

```
  0: 0x0A98 [0x1F] MOVE_ENTITY: EventEntity moves to X=-28.357*, Z=86.595*, Y=-5.006*
  1: 0x0AA0 [0x1F] MOVE_ENTITY: Update entity position (mode=1)
  2: 0x0AA2 [0x6F] WAIT_FRAME_DELAY: Yield until WaitTime reaches zero
  3: 0x0AA3 [0x00] END_REQSTACK()
```

### Event 65535.54

#### Metadata

| Field        | Value    |
|--------------|----------|
| Entrypoint   | 0x0AA4   |
| Data Size    | 60 bytes |
| Instructions | 13       |

```
      00 01 02 03 04 05 06 07  08 09 0A 0B 0C 0D 0E 0F
      -- -- -- -- -- -- -- --  -- -- -- -- -- -- -- --
0AA0:             59 04 F8 FF  FF 7F A8 80 1F 00 DD 80      Y...........
0AB0: DE 80 25 80 1F 01 1F 00  DF 80 E0 80 25 80 1F 01  ..%.........%...
0AC0: 1F 00 E1 80 E2 80 25 80  1F 01 1F 00 E3 80 E4 80  ......%.........
0AD0: 25 80 1F 01 1F 00 2D 80  2E 80 2F 80 1F 01 6F 00  %.....-.../...o.
```

#### Opcodes

```
  0: 0x0AA4 [0x59] UPDATE_ENTITY_DATA: Set EventEntity main speed = 13* * 0.1
  1: 0x0AAC [0x1F] MOVE_ENTITY: EventEntity moves to X=-34.913*, Z=97.041*, Y=-5.000*
  2: 0x0AB4 [0x1F] MOVE_ENTITY: Update entity position (mode=1)
  3: 0x0AB6 [0x1F] MOVE_ENTITY: EventEntity moves to X=-36.843*, Z=100.526*, Y=-5.000*
  4: 0x0ABE [0x1F] MOVE_ENTITY: Update entity position (mode=1)
  5: 0x0AC0 [0x1F] MOVE_ENTITY: EventEntity moves to X=-38.413*, Z=104.758*, Y=-5.000*
  6: 0x0AC8 [0x1F] MOVE_ENTITY: Update entity position (mode=1)
  7: 0x0ACA [0x1F] MOVE_ENTITY: EventEntity moves to X=-39.062*, Z=107.483*, Y=-5.000*
  8: 0x0AD2 [0x1F] MOVE_ENTITY: Update entity position (mode=1)
  9: 0x0AD4 [0x1F] MOVE_ENTITY: EventEntity moves to X=-40.133*, Z=167.579*, Y=-5.023*
 10: 0x0ADC [0x1F] MOVE_ENTITY: Update entity position (mode=1)
 11: 0x0ADE [0x6F] WAIT_FRAME_DELAY: Yield until WaitTime reaches zero
 12: 0x0ADF [0x00] END_REQSTACK()
```

### Event 65535.55

#### Metadata

| Field        | Value    |
|--------------|----------|
| Entrypoint   | 0x0AE0   |
| Data Size    | 21 bytes |
| Instructions | 5        |

```
      00 01 02 03 04 05 06 07  08 09 0A 0B 0C 0D 0E 0F
      -- -- -- -- -- -- -- --  -- -- -- -- -- -- -- --
0AE0: 1F 00 E5 80 E6 80 28 80  1F 01 6F 4A 08 E2 05 01  ......(...oJ....
0AF0: 07 E2 05 01 00                                    .....           
```

#### Opcodes

```
  0: 0x0AE0 [0x1F] MOVE_ENTITY: EventEntity moves to X=-15.209*, Z=84.518*, Y=-4.999*
  1: 0x0AE8 [0x1F] MOVE_ENTITY: Update entity position (mode=1)
  2: 0x0AEA [0x6F] WAIT_FRAME_DELAY: Yield until WaitTime reaches zero
  3: 0x0AEB [0x4A] Romaa Mihgo (ID: 17162760/0x0105E208) looks at Perih Vashai (ID: 17162759/0x0105E207)
  4: 0x0AF4 [0x00] END_REQSTACK()
```

### Event 65535.56

#### Metadata

| Field        | Value    |
|--------------|----------|
| Entrypoint   | 0x0AF5   |
| Data Size    | 87 bytes |
| Instructions | 13       |

```
      00 01 02 03 04 05 06 07  08 09 0A 0B 0C 0D 0E 0F
      -- -- -- -- -- -- -- --  -- -- -- -- -- -- -- --
0AF0:                03 09 10  E7 80 14 09 10 AC 80 3A       ..........:
0B00: F8 FF FF 7F 08 10 07 08  10 09 10 4B F8 FF FF 7F  ...........K....
0B10: 08 10 6F 76 F8 FF FF 7F  7B 07 E2 05 01 1C 0D 80  ..ov....{.......
0B20: 5B E8 80 07 E2 05 01 07  E2 05 01 70 75 70 30 53  [..........pup0S
0B30: 07 E2 05 01 07 E2 05 01  70 75 70 30 5B E8 80 07  ........pup0[...
0B40: E2 05 01 07 E2 05 01 70  75 70 6C 00              .......pupl.    
```

#### Opcodes

```
  0: 0x0AF5 [0x03] Work_Zone[9] = 210*
  1: 0x0AFA [0x14] Work_Zone[9] *= 11*
  2: 0x0AFF [0x3A] CONVERT_YAW_TO_BYTE(entity=EventEntity, result_destination=Work_Zone[8])
  3: 0x0B06 [0x07] Work_Zone[8] += Work_Zone[9]
  4: 0x0B0B [0x4B] UPDATE_ENTITY_YAW(entity=EventEntity, yaw=Work_Zone[8])
  5: 0x0B12 [0x6F] WAIT_FRAME_DELAY: Yield until WaitTime reaches zero
  6: 0x0B13 [0x76] CHECK_ENTITY_RENDER_FLAGS: Wait until EventEntity Render.Flags0 and Render.Flags3 conditions are met
  7: 0x0B18 [0x7B] Perih Vashai (ID: 17162759/0x0105E207) stops talking
  8: 0x0B1D [0x1C] WAIT(30* ticks)
  9: 0x0B20 [0x5B] LOAD_EXT_SCHEDULER: Load scheduler "pup0" with entities [Perih Vashai (ID: 17162759/0x0105E207), Perih Vashai (ID: 17162759/0x0105E207)], work=1393*
 10: 0x0B2F [0x53] WAIT_SCHEDULER_TASK: Wait for scheduler "pup0" with entities [Perih Vashai (ID: 17162759/0x0105E207), Perih Vashai (ID: 17162759/0x0105E207)]
 11: 0x0B3C [0x5B] LOAD_EXT_SCHEDULER: Load scheduler "pupl" with entities [Perih Vashai (ID: 17162759/0x0105E207), Perih Vashai (ID: 17162759/0x0105E207)], work=1393*
 12: 0x0B4B [0x00] END_REQSTACK()
```

### Event 65535.57

#### Metadata

| Field        | Value    |
|--------------|----------|
| Entrypoint   | 0x0B4C   |
| Data Size    | 22 bytes |
| Instructions | 7        |

```
      00 01 02 03 04 05 06 07  08 09 0A 0B 0C 0D 0E 0F
      -- -- -- -- -- -- -- --  -- -- -- -- -- -- -- --
0B40:                                      B6 0E 0A 80              ....
0B50: 0A 80 0A 80 0C 80 0C 80  0C 80 0C 80 80 F8 FF FF  ................
0B60: 7F 00                                             ..              
```

#### Opcodes

```
  0: 0x0B4C [0xB6] ENTITY_APPEARANCE_HANDLER(case=Look with Render flags, race=0*, face=0*, head=0*, body=1*, hands=1*, render_flags=0x800C)
  1: 0x0B5A [0x0C] 4093*--
  2: 0x0B5D [0xF8] UNKNOWN_OPCODE_0xF8
  3: 0x0B5E [0xFF] UNKNOWN_OPCODE_0xFF
  4: 0x0B5F [0xFF] UNKNOWN_OPCODE_0xFF
  5: 0x0B60 [0x7F] WAIT_DIALOG_SELECT_ALT()
  6: 0x0B61 [0x00] END_REQSTACK()
```

### Event 65535.58

#### Metadata

| Field        | Value    |
|--------------|----------|
| Entrypoint   | 0x0B62   |
| Data Size    | 22 bytes |
| Instructions | 7        |

```
      00 01 02 03 04 05 06 07  08 09 0A 0B 0C 0D 0E 0F
      -- -- -- -- -- -- -- --  -- -- -- -- -- -- -- --
0B60:       B6 0E 0A 80 0B 80  0A 80 0C 80 0C 80 0C 80    ..............
0B70: 0C 80 80 F8 FF FF 7F 00                           ........        
```

#### Opcodes

```
  0: 0x0B62 [0xB6] ENTITY_APPEARANCE_HANDLER(case=Look with Render flags, race=0*, face=4*, head=0*, body=1*, hands=1*, render_flags=0x800C)
  1: 0x0B70 [0x0C] 4093*--
  2: 0x0B73 [0xF8] UNKNOWN_OPCODE_0xF8
  3: 0x0B74 [0xFF] UNKNOWN_OPCODE_0xFF
  4: 0x0B75 [0xFF] UNKNOWN_OPCODE_0xFF
  5: 0x0B76 [0x7F] WAIT_DIALOG_SELECT_ALT()
  6: 0x0B77 [0x00] END_REQSTACK()
```

### Event 22

#### Metadata

| Field        | Value   |
|--------------|---------|
| Entrypoint   | 0x0B78  |
| Data Size    | 1 bytes |
| Instructions | 1       |

```
      00 01 02 03 04 05 06 07  08 09 0A 0B 0C 0D 0E 0F
      -- -- -- -- -- -- -- --  -- -- -- -- -- -- -- --
0B70:                          00                               .       
```

#### Opcodes

```
  0: 0x0B78 [0x00] END_REQSTACK()
```
