# 17162795 - Mihl Pakorhma

## Common Data

| Field            | Value                        |
|------------------|------------------------------|
| Zone             | Windurst Waters [S] (ID: 94) |
| Block Size       | 908 bytes                    |
| Total Events     | 37                           |
| References Count | 62                           |

## List of Events

| Event ID                   | Entrypoint   |   Size |   Instructions |
|----------------------------|--------------|--------|----------------|
| [65535](#event-65535)      | 0x0000       |      1 |              1 |
| [151](#event-151)          | 0x0001       |      1 |              1 |
| [65535.1](#event-655351)   | 0x0002       |      1 |              1 |
| [65535.2](#event-655352)   | 0x0003       |     18 |              4 |
| [65535.3](#event-655353)   | 0x0015       |     10 |              2 |
| [65535.4](#event-655354)   | 0x001F       |      9 |              3 |
| [65535.5](#event-655355)   | 0x0028       |      9 |              3 |
| [65535.6](#event-655356)   | 0x0031       |     10 |              2 |
| [65535.7](#event-655357)   | 0x003B       |     10 |              2 |
| [231](#event-231)          | 0x0045       |      1 |              1 |
| [232](#event-232)          | 0x0046       |      1 |              1 |
| [65535.8](#event-655358)   | 0x0047       |     30 |              8 |
| [65535.9](#event-655359)   | 0x0065       |     20 |              6 |
| [65535.10](#event-6553510) | 0x0079       |     32 |              8 |
| [158](#event-158)          | 0x0099       |      1 |              1 |
| [165](#event-165)          | 0x009A       |      1 |              1 |
| [168](#event-168)          | 0x009B       |      1 |              1 |
| [65535.11](#event-6553511) | 0x009C       |     15 |              5 |
| [182](#event-182)          | 0x00AB       |      1 |              1 |
| [33](#event-33)            | 0x00AC       |      1 |              1 |
| [65535.12](#event-6553512) | 0x00AD       |     26 |              8 |
| [65535.13](#event-6553513) | 0x00C7       |     20 |              6 |
| [32](#event-32)            | 0x00DB       |      1 |              1 |
| [31](#event-31)            | 0x00DC       |      1 |              1 |
| [65535.14](#event-6553514) | 0x00DD       |     20 |              5 |
| [65535.15](#event-6553515) | 0x00F1       |     20 |              5 |
| [65535.16](#event-6553516) | 0x0105       |     29 |              6 |
| [65535.17](#event-6553517) | 0x0122       |     45 |             10 |
| [65535.18](#event-6553518) | 0x014F       |     20 |              5 |
| [65535.19](#event-6553519) | 0x0163       |     21 |              5 |
| [65535.20](#event-6553520) | 0x0178       |     35 |              9 |
| [65535.21](#event-6553521) | 0x019B       |     21 |              5 |
| [65535.22](#event-6553522) | 0x01B0       |     21 |              5 |
| [65535.23](#event-6553523) | 0x01C5       |      7 |              3 |
| [65535.24](#event-6553524) | 0x01CC       |      4 |              2 |
| [65535.25](#event-6553525) | 0x01D0       |     11 |              3 |
| [65535.26](#event-6553526) | 0x01DB       |     21 |              5 |

## DAT References (imed_data)

|   Index | Hex Value   |   Dec Value |
|---------|-------------|-------------|
|       0 | 0x0000      |           0 |
|       1 | 0x0001      |           1 |
|       2 | 0x0080      |         128 |
|       3 | 0x002D      |          45 |
|       4 | 0xFFFF56C2  |  4294923970 |
|       5 | 0x36426     |      222246 |
|       6 | 0xFFFFECD8  |  4294962392 |
|       7 | 0x0AD1      |        2769 |
|       8 | 0x0026      |          38 |
|       9 | 0xFFFF5C7A  |  4294925434 |
|      10 | 0x3764A     |      226890 |
|      11 | 0xFFFFECBC  |  4294962364 |
|      12 | 0x000B      |          11 |
|      13 | 0xFFFF5F86  |  4294926214 |
|      14 | 0x3822E     |      229934 |
|      15 | 0xFFFFEC79  |  4294962297 |
|      16 | 0x0008      |           8 |
|      17 | 0xFFFF5D4A  |  4294925642 |
|      18 | 0x3AF8C     |      241548 |
|      19 | 0x000D      |          13 |
|      20 | 0xFFFFF62D  |  4294964781 |
|      21 | 0x7328      |       29480 |
|      22 | 0xFFFFFC19  |  4294966297 |
|      23 | 0x0028      |          40 |
|      24 | 0xFFFF62B1  |  4294927025 |
|      25 | 0x35EE8     |      220904 |
|      26 | 0xFFFFEC66  |  4294962278 |
|      27 | 0xFFFF5DE3  |  4294925795 |
|      28 | 0x35FDF     |      221151 |
|      29 | 0xFFFFEC78  |  4294962296 |
|      30 | 0x1533      |        5427 |
|      31 | 0x6A4A      |       27210 |
|      32 | 0xFFFFFC18  |  4294966296 |
|      33 | 0x27B8      |       10168 |
|      34 | 0xC050      |       49232 |
|      35 | 0xFFFFF911  |  4294965521 |
|      36 | 0x07DD      |        2013 |
|      37 | 0xBD02      |       48386 |
|      38 | 0xFFFFFDB7  |  4294966711 |
|      39 | 0x443B      |       17467 |
|      40 | 0xFFFFFE35  |  4294966837 |
|      41 | 0x40FF      |       16639 |
|      42 | 0xFFFFFF00  |  4294967040 |
|      43 | 0x42DF      |       17119 |
|      44 | 0xFFFFF8F7  |  4294965495 |
|      45 | 0x33CF      |       13263 |
|      46 | 0x0078      |         120 |
|      47 | 0xFFFFDBFF  |  4294958079 |
|      48 | 0xFFFFDCA7  |  4294958247 |
|      49 | 0xFFFFF753  |  4294965075 |
|      50 | 0xFFFFFEC0  |  4294966976 |
|      51 | 0x37CD      |       14285 |
|      52 | 0xFFFFF668  |  4294964840 |
|      53 | 0x33C1      |       13249 |
|      54 | 0x000F      |          15 |
|      55 | 0x0708      |        1800 |
|      56 | 0x0A8C      |        2700 |
|      57 | 0xFFFF5FB5  |  4294926261 |
|      58 | 0x30C8E     |      199822 |
|      59 | 0xFFFFEB35  |  4294961973 |
|      60 | 0xFFFF615D  |  4294926685 |
|      61 | 0x35992     |      219538 |

## Events

### Event 65535

#### Metadata

| Field        | Value   |
|--------------|---------|
| Entrypoint   | 0x0000  |
| Data Size    | 1 bytes |
| Instructions | 1       |

```
      00 01 02 03 04 05 06 07  08 09 0A 0B 0C 0D 0E 0F
      -- -- -- -- -- -- -- --  -- -- -- -- -- -- -- --
0000: 00                                                .               
```

#### Opcodes

```
  0: 0x0000 [0x00] END_REQSTACK()
```

### Event 151

#### Metadata

| Field        | Value   |
|--------------|---------|
| Entrypoint   | 0x0001  |
| Data Size    | 1 bytes |
| Instructions | 1       |

```
      00 01 02 03 04 05 06 07  08 09 0A 0B 0C 0D 0E 0F
      -- -- -- -- -- -- -- --  -- -- -- -- -- -- -- --
0000:    00                                              .              
```

#### Opcodes

```
  0: 0x0001 [0x00] END_REQSTACK()
```

### Event 65535.1

#### Metadata

| Field        | Value   |
|--------------|---------|
| Entrypoint   | 0x0002  |
| Data Size    | 1 bytes |
| Instructions | 1       |

```
      00 01 02 03 04 05 06 07  08 09 0A 0B 0C 0D 0E 0F
      -- -- -- -- -- -- -- --  -- -- -- -- -- -- -- --
0000:       00                                            .             
```

#### Opcodes

```
  0: 0x0002 [0x00] END_REQSTACK()
```

### Event 65535.2

#### Metadata

| Field        | Value    |
|--------------|----------|
| Entrypoint   | 0x0003   |
| Data Size    | 18 bytes |
| Instructions | 4        |

```
      00 01 02 03 04 05 06 07  08 09 0A 0B 0C 0D 0E 0F
      -- -- -- -- -- -- -- --  -- -- -- -- -- -- -- --
0000:          22 00 2F 00 F8  FF FF 7F 6C F8 FF FF 7F     "./.....l....
0010: 00 80 01 80 00                                    .....           
```

#### Opcodes

```
  0: 0x0003 [0x22] ENTITY_HIDE_FLAG(enabled=0x00)
  1: 0x0005 [0x2F] EventEntity->Render.Flags0 &= ~0x80000 // Bit 19
  2: 0x000B [0x6C] FADE_ENTITY_COLOR(entity_id=EventEntity, end_alpha=0*, fade_time=1*)
  3: 0x0014 [0x00] END_REQSTACK()
```

### Event 65535.3

#### Metadata

| Field        | Value    |
|--------------|----------|
| Entrypoint   | 0x0015   |
| Data Size    | 10 bytes |
| Instructions | 2        |

```
      00 01 02 03 04 05 06 07  08 09 0A 0B 0C 0D 0E 0F
      -- -- -- -- -- -- -- --  -- -- -- -- -- -- -- --
0010:                6C F8 FF  FF 7F 02 80 01 80 00          l......... 
```

#### Opcodes

```
  0: 0x0015 [0x6C] FADE_ENTITY_COLOR(entity_id=EventEntity, end_alpha=128*, fade_time=1*)
  1: 0x001E [0x00] END_REQSTACK()
```

### Event 65535.4

#### Metadata

| Field        | Value   |
|--------------|---------|
| Entrypoint   | 0x001F  |
| Data Size    | 9 bytes |
| Instructions | 3       |

```
      00 01 02 03 04 05 06 07  08 09 0A 0B 0C 0D 0E 0F
      -- -- -- -- -- -- -- --  -- -- -- -- -- -- -- --
0010:                                               22                 "
0020: 00 2F 00 F8 FF FF 7F 00                           ./......        
```

#### Opcodes

```
  0: 0x001F [0x22] ENTITY_HIDE_FLAG(enabled=0x00)
  1: 0x0021 [0x2F] EventEntity->Render.Flags0 &= ~0x80000 // Bit 19
  2: 0x0027 [0x00] END_REQSTACK()
```

### Event 65535.5

#### Metadata

| Field        | Value   |
|--------------|---------|
| Entrypoint   | 0x0028  |
| Data Size    | 9 bytes |
| Instructions | 3       |

```
      00 01 02 03 04 05 06 07  08 09 0A 0B 0C 0D 0E 0F
      -- -- -- -- -- -- -- --  -- -- -- -- -- -- -- --
0020:                          22 01 2F 01 F8 FF FF 7F          "./.....
0030: 00                                                .               
```

#### Opcodes

```
  0: 0x0028 [0x22] ENTITY_HIDE_FLAG(enabled=0x01)
  1: 0x002A [0x2F] EventEntity->Render.Flags0 |= 0x80000 // Bit 19
  2: 0x0030 [0x00] END_REQSTACK()
```

### Event 65535.6

#### Metadata

| Field        | Value    |
|--------------|----------|
| Entrypoint   | 0x0031   |
| Data Size    | 10 bytes |
| Instructions | 2        |

```
      00 01 02 03 04 05 06 07  08 09 0A 0B 0C 0D 0E 0F
      -- -- -- -- -- -- -- --  -- -- -- -- -- -- -- --
0030:    6C F8 FF FF 7F 00 80  01 80 00                  l.........     
```

#### Opcodes

```
  0: 0x0031 [0x6C] FADE_ENTITY_COLOR(entity_id=EventEntity, end_alpha=0*, fade_time=1*)
  1: 0x003A [0x00] END_REQSTACK()
```

### Event 65535.7

#### Metadata

| Field        | Value    |
|--------------|----------|
| Entrypoint   | 0x003B   |
| Data Size    | 10 bytes |
| Instructions | 2        |

```
      00 01 02 03 04 05 06 07  08 09 0A 0B 0C 0D 0E 0F
      -- -- -- -- -- -- -- --  -- -- -- -- -- -- -- --
0030:                                   6C F8 FF FF 7F             l....
0040: 02 80 01 80 00                                    .....           
```

#### Opcodes

```
  0: 0x003B [0x6C] FADE_ENTITY_COLOR(entity_id=EventEntity, end_alpha=128*, fade_time=1*)
  1: 0x0044 [0x00] END_REQSTACK()
```

### Event 231

#### Metadata

| Field        | Value   |
|--------------|---------|
| Entrypoint   | 0x0045  |
| Data Size    | 1 bytes |
| Instructions | 1       |

```
      00 01 02 03 04 05 06 07  08 09 0A 0B 0C 0D 0E 0F
      -- -- -- -- -- -- -- --  -- -- -- -- -- -- -- --
0040:                00                                      .          
```

#### Opcodes

```
  0: 0x0045 [0x00] END_REQSTACK()
```

### Event 232

#### Metadata

| Field        | Value   |
|--------------|---------|
| Entrypoint   | 0x0046  |
| Data Size    | 1 bytes |
| Instructions | 1       |

```
      00 01 02 03 04 05 06 07  08 09 0A 0B 0C 0D 0E 0F
      -- -- -- -- -- -- -- --  -- -- -- -- -- -- -- --
0040:                   00                                    .         
```

#### Opcodes

```
  0: 0x0046 [0x00] END_REQSTACK()
```

### Event 65535.8

#### Metadata

| Field        | Value    |
|--------------|----------|
| Entrypoint   | 0x0047   |
| Data Size    | 30 bytes |
| Instructions | 8        |

```
      00 01 02 03 04 05 06 07  08 09 0A 0B 0C 0D 0E 0F
      -- -- -- -- -- -- -- --  -- -- -- -- -- -- -- --
0040:                      1C  03 80 37 04 80 05 80 06         ...7.....
0050: 80 07 80 32 08 80 1F 00  09 80 0A 80 0B 80 1F 01  ...2............
0060: 6F 39 00 80 00                                    o9...           
```

#### Opcodes

```
  0: 0x0047 [0x1C] WAIT(45* ticks)
  1: 0x004A [0x37] UPDATE_EVENT_POSITION_AND_DIR: x=-43.326*, z=222.246*, y=-4.904*, direction=243.4째*
  2: 0x0053 [0x32] ExtData[1]->MainSpeed = 38* * 0.1
  3: 0x0056 [0x1F] MOVE_ENTITY: EventEntity moves to X=-41.862*, Z=226.890*, Y=-4.932*
  4: 0x005E [0x1F] MOVE_ENTITY: Update entity position (mode=1)
  5: 0x0060 [0x6F] WAIT_FRAME_DELAY: Yield until WaitTime reaches zero
  6: 0x0061 [0x39] SET_ENTITY_DIRECTION(direction=0.0째*)
  7: 0x0064 [0x00] END_REQSTACK()
```

### Event 65535.9

#### Metadata

| Field        | Value    |
|--------------|----------|
| Entrypoint   | 0x0065   |
| Data Size    | 20 bytes |
| Instructions | 6        |

```
      00 01 02 03 04 05 06 07  08 09 0A 0B 0C 0D 0E 0F
      -- -- -- -- -- -- -- --  -- -- -- -- -- -- -- --
0060:                32 0C 80  1F 00 0D 80 0E 80 0F 80       2..........
0070: 1F 01 6F 1E 08 E2 05 01  00                       ..o......       
```

#### Opcodes

```
  0: 0x0065 [0x32] ExtData[1]->MainSpeed = 11* * 0.1
  1: 0x0068 [0x1F] MOVE_ENTITY: EventEntity moves to X=-41.082*, Z=229.934*, Y=-4.999*
  2: 0x0070 [0x1F] MOVE_ENTITY: Update entity position (mode=1)
  3: 0x0072 [0x6F] WAIT_FRAME_DELAY: Yield until WaitTime reaches zero
  4: 0x0073 [0x1E] EventEntity looks at Romaa Mihgo (ID: 17162760/0x0105E208) and starts talking
  5: 0x0078 [0x00] END_REQSTACK()
```

### Event 65535.10

#### Metadata

| Field        | Value    |
|--------------|----------|
| Entrypoint   | 0x0079   |
| Data Size    | 32 bytes |
| Instructions | 8        |

```
      00 01 02 03 04 05 06 07  08 09 0A 0B 0C 0D 0E 0F
      -- -- -- -- -- -- -- --  -- -- -- -- -- -- -- --
0070:                             6E F8 FF FF 7F 10 80           n......
0080: 99 F8 FF FF 7F 99 F8 FF  FF 7F 32 0C 80 1F 00 11  ..........2.....
0090: 80 12 80 0F 80 1F 01 6F  00                       .......o.       
```

#### Opcodes

```
  0: 0x0079 [0x6E] EventEntity uses emote 8*
  1: 0x0080 [0x99] Wait for EventEntity animation to complete
  2: 0x0085 [0x99] Wait for EventEntity animation to complete
  3: 0x008A [0x32] ExtData[1]->MainSpeed = 11* * 0.1
  4: 0x008D [0x1F] MOVE_ENTITY: EventEntity moves to X=-41.654*, Z=241.548*, Y=-4.999*
  5: 0x0095 [0x1F] MOVE_ENTITY: Update entity position (mode=1)
  6: 0x0097 [0x6F] WAIT_FRAME_DELAY: Yield until WaitTime reaches zero
  7: 0x0098 [0x00] END_REQSTACK()
```

### Event 158

#### Metadata

| Field        | Value   |
|--------------|---------|
| Entrypoint   | 0x0099  |
| Data Size    | 1 bytes |
| Instructions | 1       |

```
      00 01 02 03 04 05 06 07  08 09 0A 0B 0C 0D 0E 0F
      -- -- -- -- -- -- -- --  -- -- -- -- -- -- -- --
0090:                             00                             .      
```

#### Opcodes

```
  0: 0x0099 [0x00] END_REQSTACK()
```

### Event 165

#### Metadata

| Field        | Value   |
|--------------|---------|
| Entrypoint   | 0x009A  |
| Data Size    | 1 bytes |
| Instructions | 1       |

```
      00 01 02 03 04 05 06 07  08 09 0A 0B 0C 0D 0E 0F
      -- -- -- -- -- -- -- --  -- -- -- -- -- -- -- --
0090:                                00                           .     
```

#### Opcodes

```
  0: 0x009A [0x00] END_REQSTACK()
```

### Event 168

#### Metadata

| Field        | Value   |
|--------------|---------|
| Entrypoint   | 0x009B  |
| Data Size    | 1 bytes |
| Instructions | 1       |

```
      00 01 02 03 04 05 06 07  08 09 0A 0B 0C 0D 0E 0F
      -- -- -- -- -- -- -- --  -- -- -- -- -- -- -- --
0090:                                   00                         .    
```

#### Opcodes

```
  0: 0x009B [0x00] END_REQSTACK()
```

### Event 65535.11

#### Metadata

| Field        | Value    |
|--------------|----------|
| Entrypoint   | 0x009C   |
| Data Size    | 15 bytes |
| Instructions | 5        |

```
      00 01 02 03 04 05 06 07  08 09 0A 0B 0C 0D 0E 0F
      -- -- -- -- -- -- -- --  -- -- -- -- -- -- -- --
0090:                                      32 13 80 1F              2...
00A0: 00 14 80 15 80 16 80 1F  01 6F 00                 .........o.     
```

#### Opcodes

```
  0: 0x009C [0x32] ExtData[1]->MainSpeed = 13* * 0.1
  1: 0x009F [0x1F] MOVE_ENTITY: EventEntity moves to X=-2.515*, Z=29.480*, Y=-0.999*
  2: 0x00A7 [0x1F] MOVE_ENTITY: Update entity position (mode=1)
  3: 0x00A9 [0x6F] WAIT_FRAME_DELAY: Yield until WaitTime reaches zero
  4: 0x00AA [0x00] END_REQSTACK()
```

### Event 182

#### Metadata

| Field        | Value   |
|--------------|---------|
| Entrypoint   | 0x00AB  |
| Data Size    | 1 bytes |
| Instructions | 1       |

```
      00 01 02 03 04 05 06 07  08 09 0A 0B 0C 0D 0E 0F
      -- -- -- -- -- -- -- --  -- -- -- -- -- -- -- --
00A0:                                   00                         .    
```

#### Opcodes

```
  0: 0x00AB [0x00] END_REQSTACK()
```

### Event 33

#### Metadata

| Field        | Value   |
|--------------|---------|
| Entrypoint   | 0x00AC  |
| Data Size    | 1 bytes |
| Instructions | 1       |

```
      00 01 02 03 04 05 06 07  08 09 0A 0B 0C 0D 0E 0F
      -- -- -- -- -- -- -- --  -- -- -- -- -- -- -- --
00A0:                                      00                       .   
```

#### Opcodes

```
  0: 0x00AC [0x00] END_REQSTACK()
```

### Event 65535.12

#### Metadata

| Field        | Value    |
|--------------|----------|
| Entrypoint   | 0x00AD   |
| Data Size    | 26 bytes |
| Instructions | 8        |

```
      00 01 02 03 04 05 06 07  08 09 0A 0B 0C 0D 0E 0F
      -- -- -- -- -- -- -- --  -- -- -- -- -- -- -- --
00A0:                                         32 17 80               2..
00B0: 1F 00 18 80 19 80 1A 80  1F 01 6F 1E 08 E2 05 01  ..........o.....
00C0: 6F 76 F8 FF FF 7F 00                              ov.....         
```

#### Opcodes

```
  0: 0x00AD [0x32] ExtData[1]->MainSpeed = 40* * 0.1
  1: 0x00B0 [0x1F] MOVE_ENTITY: EventEntity moves to X=-40.271*, Z=220.904*, Y=-5.018*
  2: 0x00B8 [0x1F] MOVE_ENTITY: Update entity position (mode=1)
  3: 0x00BA [0x6F] WAIT_FRAME_DELAY: Yield until WaitTime reaches zero
  4: 0x00BB [0x1E] EventEntity looks at Romaa Mihgo (ID: 17162760/0x0105E208) and starts talking
  5: 0x00C0 [0x6F] WAIT_FRAME_DELAY: Yield until WaitTime reaches zero
  6: 0x00C1 [0x76] CHECK_ENTITY_RENDER_FLAGS: Wait until EventEntity Render.Flags0 and Render.Flags3 conditions are met
  7: 0x00C6 [0x00] END_REQSTACK()
```

### Event 65535.13

#### Metadata

| Field        | Value    |
|--------------|----------|
| Entrypoint   | 0x00C7   |
| Data Size    | 20 bytes |
| Instructions | 6        |

```
      00 01 02 03 04 05 06 07  08 09 0A 0B 0C 0D 0E 0F
      -- -- -- -- -- -- -- --  -- -- -- -- -- -- -- --
00C0:                      32  13 80 1F 00 1B 80 1C 80         2........
00D0: 1D 80 1F 01 6F 1E 08 E2  05 01 00                 ....o......     
```

#### Opcodes

```
  0: 0x00C7 [0x32] ExtData[1]->MainSpeed = 13* * 0.1
  1: 0x00CA [0x1F] MOVE_ENTITY: EventEntity moves to X=-41.501*, Z=221.151*, Y=-5.000*
  2: 0x00D2 [0x1F] MOVE_ENTITY: Update entity position (mode=1)
  3: 0x00D4 [0x6F] WAIT_FRAME_DELAY: Yield until WaitTime reaches zero
  4: 0x00D5 [0x1E] EventEntity looks at Romaa Mihgo (ID: 17162760/0x0105E208) and starts talking
  5: 0x00DA [0x00] END_REQSTACK()
```

### Event 32

#### Metadata

| Field        | Value   |
|--------------|---------|
| Entrypoint   | 0x00DB  |
| Data Size    | 1 bytes |
| Instructions | 1       |

```
      00 01 02 03 04 05 06 07  08 09 0A 0B 0C 0D 0E 0F
      -- -- -- -- -- -- -- --  -- -- -- -- -- -- -- --
00D0:                                   00                         .    
```

#### Opcodes

```
  0: 0x00DB [0x00] END_REQSTACK()
```

### Event 31

#### Metadata

| Field        | Value   |
|--------------|---------|
| Entrypoint   | 0x00DC  |
| Data Size    | 1 bytes |
| Instructions | 1       |

```
      00 01 02 03 04 05 06 07  08 09 0A 0B 0C 0D 0E 0F
      -- -- -- -- -- -- -- --  -- -- -- -- -- -- -- --
00D0:                                      00                       .   
```

#### Opcodes

```
  0: 0x00DC [0x00] END_REQSTACK()
```

### Event 65535.14

#### Metadata

| Field        | Value    |
|--------------|----------|
| Entrypoint   | 0x00DD   |
| Data Size    | 20 bytes |
| Instructions | 5        |

```
      00 01 02 03 04 05 06 07  08 09 0A 0B 0C 0D 0E 0F
      -- -- -- -- -- -- -- --  -- -- -- -- -- -- -- --
00D0:                                         59 04 F8               Y..
00E0: FF FF 7F 13 80 1F 00 1E  80 1F 80 20 80 1F 01 6F  ........... ...o
00F0: 00                                                .               
```

#### Opcodes

```
  0: 0x00DD [0x59] UPDATE_ENTITY_DATA: Set EventEntity main speed = 13* * 0.1
  1: 0x00E5 [0x1F] MOVE_ENTITY: EventEntity moves to X=5.427*, Z=27.210*, Y=-1.000*
  2: 0x00ED [0x1F] MOVE_ENTITY: Update entity position (mode=1)
  3: 0x00EF [0x6F] WAIT_FRAME_DELAY: Yield until WaitTime reaches zero
  4: 0x00F0 [0x00] END_REQSTACK()
```

### Event 65535.15

#### Metadata

| Field        | Value    |
|--------------|----------|
| Entrypoint   | 0x00F1   |
| Data Size    | 20 bytes |
| Instructions | 5        |

```
      00 01 02 03 04 05 06 07  08 09 0A 0B 0C 0D 0E 0F
      -- -- -- -- -- -- -- --  -- -- -- -- -- -- -- --
00F0:    59 04 F8 FF FF 7F 17  80 1F 00 21 80 22 80 23   Y.........!.".#
0100: 80 1F 01 6F 00                                    ...o.           
```

#### Opcodes

```
  0: 0x00F1 [0x59] UPDATE_ENTITY_DATA: Set EventEntity main speed = 40* * 0.1
  1: 0x00F9 [0x1F] MOVE_ENTITY: EventEntity moves to X=10.168*, Z=49.232*, Y=-1.775*
  2: 0x0101 [0x1F] MOVE_ENTITY: Update entity position (mode=1)
  3: 0x0103 [0x6F] WAIT_FRAME_DELAY: Yield until WaitTime reaches zero
  4: 0x0104 [0x00] END_REQSTACK()
```

### Event 65535.16

#### Metadata

| Field        | Value    |
|--------------|----------|
| Entrypoint   | 0x0105   |
| Data Size    | 29 bytes |
| Instructions | 6        |

```
      00 01 02 03 04 05 06 07  08 09 0A 0B 0C 0D 0E 0F
      -- -- -- -- -- -- -- --  -- -- -- -- -- -- -- --
0100:                59 04 F8  FF FF 7F 17 80 1F 00 24       Y.........$
0110: 80 25 80 20 80 1F 01 6F  4A F8 FF FF 7F 08 E2 05  .%. ...oJ.......
0120: 01 00                                             ..              
```

#### Opcodes

```
  0: 0x0105 [0x59] UPDATE_ENTITY_DATA: Set EventEntity main speed = 40* * 0.1
  1: 0x010D [0x1F] MOVE_ENTITY: EventEntity moves to X=2.013*, Z=48.386*, Y=-1.000*
  2: 0x0115 [0x1F] MOVE_ENTITY: Update entity position (mode=1)
  3: 0x0117 [0x6F] WAIT_FRAME_DELAY: Yield until WaitTime reaches zero
  4: 0x0118 [0x4A] EventEntity looks at Romaa Mihgo (ID: 17162760/0x0105E208)
  5: 0x0121 [0x00] END_REQSTACK()
```

### Event 65535.17

#### Metadata

| Field        | Value    |
|--------------|----------|
| Entrypoint   | 0x0122   |
| Data Size    | 45 bytes |
| Instructions | 10       |

```
      00 01 02 03 04 05 06 07  08 09 0A 0B 0C 0D 0E 0F
      -- -- -- -- -- -- -- --  -- -- -- -- -- -- -- --
0120:       59 04 F8 FF FF 7F  17 80 1F 00 26 80 27 80    Y.........&.'.
0130: 20 80 1F 01 1F 00 28 80  29 80 20 80 1F 01 6F 4A   .....(.). ...oJ
0140: F8 FF FF 7F 08 E2 05 01  6F 76 F8 FF FF 7F 00     ........ov..... 
```

#### Opcodes

```
  0: 0x0122 [0x59] UPDATE_ENTITY_DATA: Set EventEntity main speed = 40* * 0.1
  1: 0x012A [0x1F] MOVE_ENTITY: EventEntity moves to X=-0.585*, Z=17.467*, Y=-1.000*
  2: 0x0132 [0x1F] MOVE_ENTITY: Update entity position (mode=1)
  3: 0x0134 [0x1F] MOVE_ENTITY: EventEntity moves to X=-0.459*, Z=16.639*, Y=-1.000*
  4: 0x013C [0x1F] MOVE_ENTITY: Update entity position (mode=1)
  5: 0x013E [0x6F] WAIT_FRAME_DELAY: Yield until WaitTime reaches zero
  6: 0x013F [0x4A] EventEntity looks at Romaa Mihgo (ID: 17162760/0x0105E208)
  7: 0x0148 [0x6F] WAIT_FRAME_DELAY: Yield until WaitTime reaches zero
  8: 0x0149 [0x76] CHECK_ENTITY_RENDER_FLAGS: Wait until EventEntity Render.Flags0 and Render.Flags3 conditions are met
  9: 0x014E [0x00] END_REQSTACK()
```

### Event 65535.18

#### Metadata

| Field        | Value    |
|--------------|----------|
| Entrypoint   | 0x014F   |
| Data Size    | 20 bytes |
| Instructions | 5        |

```
      00 01 02 03 04 05 06 07  08 09 0A 0B 0C 0D 0E 0F
      -- -- -- -- -- -- -- --  -- -- -- -- -- -- -- --
0140:                                               59                 Y
0150: 04 F8 FF FF 7F 13 80 1F  00 2A 80 2B 80 16 80 1F  .........*.+....
0160: 01 6F 00                                          .o.             
```

#### Opcodes

```
  0: 0x014F [0x59] UPDATE_ENTITY_DATA: Set EventEntity main speed = 13* * 0.1
  1: 0x0157 [0x1F] MOVE_ENTITY: EventEntity moves to X=-0.256*, Z=17.119*, Y=-0.999*
  2: 0x015F [0x1F] MOVE_ENTITY: Update entity position (mode=1)
  3: 0x0161 [0x6F] WAIT_FRAME_DELAY: Yield until WaitTime reaches zero
  4: 0x0162 [0x00] END_REQSTACK()
```

### Event 65535.19

#### Metadata

| Field        | Value    |
|--------------|----------|
| Entrypoint   | 0x0163   |
| Data Size    | 21 bytes |
| Instructions | 5        |

```
      00 01 02 03 04 05 06 07  08 09 0A 0B 0C 0D 0E 0F
      -- -- -- -- -- -- -- --  -- -- -- -- -- -- -- --
0160:          1F 00 2C 80 2D  80 16 80 1F 01 6F 4A 2B     ..,.-.....oJ+
0170: E2 05 01 F0 FF FF 7F 00                           ........        
```

#### Opcodes

```
  0: 0x0163 [0x1F] MOVE_ENTITY: EventEntity moves to X=-1.801*, Z=13.263*, Y=-0.999*
  1: 0x016B [0x1F] MOVE_ENTITY: Update entity position (mode=1)
  2: 0x016D [0x6F] WAIT_FRAME_DELAY: Yield until WaitTime reaches zero
  3: 0x016E [0x4A] Mihl Pakorhma (ID: 17162795/0x0105E22B) looks at LocalPlayer
  4: 0x0177 [0x00] END_REQSTACK()
```

### Event 65535.20

#### Metadata

| Field        | Value    |
|--------------|----------|
| Entrypoint   | 0x0178   |
| Data Size    | 35 bytes |
| Instructions | 9        |

```
      00 01 02 03 04 05 06 07  08 09 0A 0B 0C 0D 0E 0F
      -- -- -- -- -- -- -- --  -- -- -- -- -- -- -- --
0170:                          1C 10 80 1C 10 80 4A 2B          ......J+
0180: E2 05 01 FF E1 05 01 6F  76 2B E2 05 01 1C 2E 80  .......ov+......
0190: 1F 00 2F 80 30 80 31 80  1F 01 00                 ../.0.1....     
```

#### Opcodes

```
  0: 0x0178 [0x1C] WAIT(8* ticks)
  1: 0x017B [0x1C] WAIT(8* ticks)
  2: 0x017E [0x4A] Mihl Pakorhma (ID: 17162795/0x0105E22B) looks at Dhea Prandoleh (ID: 17162751/0x0105E1FF)
  3: 0x0187 [0x6F] WAIT_FRAME_DELAY: Yield until WaitTime reaches zero
  4: 0x0188 [0x76] CHECK_ENTITY_RENDER_FLAGS: Wait until Mihl Pakorhma (ID: 17162795/0x0105E22B) Render.Flags0 and Render.Flags3 conditions are met
  5: 0x018D [0x1C] WAIT(120* ticks)
  6: 0x0190 [0x1F] MOVE_ENTITY: EventEntity moves to X=-9.217*, Z=-9.049*, Y=-2.221*
  7: 0x0198 [0x1F] MOVE_ENTITY: Update entity position (mode=1)
  8: 0x019A [0x00] END_REQSTACK()
```

### Event 65535.21

#### Metadata

| Field        | Value    |
|--------------|----------|
| Entrypoint   | 0x019B   |
| Data Size    | 21 bytes |
| Instructions | 5        |

```
      00 01 02 03 04 05 06 07  08 09 0A 0B 0C 0D 0E 0F
      -- -- -- -- -- -- -- --  -- -- -- -- -- -- -- --
0190:                                   1F 00 32 80 33             ..2.3
01A0: 80 16 80 1F 01 6F 4A 2B  E2 05 01 F0 FF FF 7F 00  .....oJ+........
```

#### Opcodes

```
  0: 0x019B [0x1F] MOVE_ENTITY: EventEntity moves to X=-0.320*, Z=14.285*, Y=-0.999*
  1: 0x01A3 [0x1F] MOVE_ENTITY: Update entity position (mode=1)
  2: 0x01A5 [0x6F] WAIT_FRAME_DELAY: Yield until WaitTime reaches zero
  3: 0x01A6 [0x4A] Mihl Pakorhma (ID: 17162795/0x0105E22B) looks at LocalPlayer
  4: 0x01AF [0x00] END_REQSTACK()
```

### Event 65535.22

#### Metadata

| Field        | Value    |
|--------------|----------|
| Entrypoint   | 0x01B0   |
| Data Size    | 21 bytes |
| Instructions | 5        |

```
      00 01 02 03 04 05 06 07  08 09 0A 0B 0C 0D 0E 0F
      -- -- -- -- -- -- -- --  -- -- -- -- -- -- -- --
01B0: 1F 00 34 80 35 80 20 80  1F 01 6F 4A 2B E2 05 01  ..4.5. ...oJ+...
01C0: F0 FF FF 7F 00                                    .....           
```

#### Opcodes

```
  0: 0x01B0 [0x1F] MOVE_ENTITY: EventEntity moves to X=-2.456*, Z=13.249*, Y=-1.000*
  1: 0x01B8 [0x1F] MOVE_ENTITY: Update entity position (mode=1)
  2: 0x01BA [0x6F] WAIT_FRAME_DELAY: Yield until WaitTime reaches zero
  3: 0x01BB [0x4A] Mihl Pakorhma (ID: 17162795/0x0105E22B) looks at LocalPlayer
  4: 0x01C4 [0x00] END_REQSTACK()
```

### Event 65535.23

#### Metadata

| Field        | Value   |
|--------------|---------|
| Entrypoint   | 0x01C5  |
| Data Size    | 7 bytes |
| Instructions | 3       |

```
      00 01 02 03 04 05 06 07  08 09 0A 0B 0C 0D 0E 0F
      -- -- -- -- -- -- -- --  -- -- -- -- -- -- -- --
01C0:                1C 36 80  39 37 80 00                   .6.97..    
```

#### Opcodes

```
  0: 0x01C5 [0x1C] WAIT(15* ticks)
  1: 0x01C8 [0x39] SET_ENTITY_DIRECTION(direction=9.9째*)
  2: 0x01CB [0x00] END_REQSTACK()
```

### Event 65535.24

#### Metadata

| Field        | Value   |
|--------------|---------|
| Entrypoint   | 0x01CC  |
| Data Size    | 4 bytes |
| Instructions | 2       |

```
      00 01 02 03 04 05 06 07  08 09 0A 0B 0C 0D 0E 0F
      -- -- -- -- -- -- -- --  -- -- -- -- -- -- -- --
01C0:                                      39 38 80 00              98..
```

#### Opcodes

```
  0: 0x01CC [0x39] SET_ENTITY_DIRECTION(direction=14.8째*)
  1: 0x01CF [0x00] END_REQSTACK()
```

### Event 65535.25

#### Metadata

| Field        | Value    |
|--------------|----------|
| Entrypoint   | 0x01D0   |
| Data Size    | 11 bytes |
| Instructions | 3        |

```
      00 01 02 03 04 05 06 07  08 09 0A 0B 0C 0D 0E 0F
      -- -- -- -- -- -- -- --  -- -- -- -- -- -- -- --
01D0: 1F 00 39 80 3A 80 3B 80  1F 01 00                 ..9.:.;....     
```

#### Opcodes

```
  0: 0x01D0 [0x1F] MOVE_ENTITY: EventEntity moves to X=-41.035*, Z=199.822*, Y=-5.323*
  1: 0x01D8 [0x1F] MOVE_ENTITY: Update entity position (mode=1)
  2: 0x01DA [0x00] END_REQSTACK()
```

### Event 65535.26

#### Metadata

| Field        | Value    |
|--------------|----------|
| Entrypoint   | 0x01DB   |
| Data Size    | 21 bytes |
| Instructions | 5        |

```
      00 01 02 03 04 05 06 07  08 09 0A 0B 0C 0D 0E 0F
      -- -- -- -- -- -- -- --  -- -- -- -- -- -- -- --
01D0:                                   1F 00 3C 80 3D             ..<.=
01E0: 80 1D 80 1F 01 6F 4A 2B  E2 05 01 F0 FF FF 7F 00  .....oJ+........
```

#### Opcodes

```
  0: 0x01DB [0x1F] MOVE_ENTITY: EventEntity moves to X=-40.611*, Z=219.538*, Y=-5.000*
  1: 0x01E3 [0x1F] MOVE_ENTITY: Update entity position (mode=1)
  2: 0x01E5 [0x6F] WAIT_FRAME_DELAY: Yield until WaitTime reaches zero
  3: 0x01E6 [0x4A] Mihl Pakorhma (ID: 17162795/0x0105E22B) looks at LocalPlayer
  4: 0x01EF [0x00] END_REQSTACK()
```
