# 17162797 - Kayeel-Payeel

## Common Data

| Field            | Value                        |
|------------------|------------------------------|
| Zone             | Windurst Waters [S] (ID: 94) |
| Block Size       | 924 bytes                    |
| Total Events     | 37                           |
| References Count | 62                           |

## List of Events

| Event ID                   | Entrypoint   |   Size |   Instructions |
|----------------------------|--------------|--------|----------------|
| [65535](#event-65535)      | 0x0000       |      1 |              1 |
| [151](#event-151)          | 0x0001       |      1 |              1 |
| [65535.1](#event-655351)   | 0x0002       |      1 |              1 |
| [65535.2](#event-655352)   | 0x0003       |     18 |              4 |
| [65535.3](#event-655353)   | 0x0015       |     10 |              2 |
| [65535.4](#event-655354)   | 0x001F       |      9 |              3 |
| [65535.5](#event-655355)   | 0x0028       |      9 |              3 |
| [65535.6](#event-655356)   | 0x0031       |     10 |              2 |
| [65535.7](#event-655357)   | 0x003B       |     10 |              2 |
| [153](#event-153)          | 0x0045       |      1 |              1 |
| [231](#event-231)          | 0x0046       |      1 |              1 |
| [23](#event-23)            | 0x0047       |      1 |              1 |
| [65535.8](#event-655358)   | 0x0048       |     24 |              6 |
| [25](#event-25)            | 0x0060       |      1 |              1 |
| [65535.9](#event-655359)   | 0x0061       |     21 |              2 |
| [65535.10](#event-6553510) | 0x0076       |     21 |              2 |
| [65535.11](#event-6553511) | 0x008B       |     14 |              4 |
| [33](#event-33)            | 0x0099       |      1 |              1 |
| [65535.12](#event-6553512) | 0x009A       |     13 |              3 |
| [65535.13](#event-6553513) | 0x00A7       |     31 |              7 |
| [65535.14](#event-6553514) | 0x00C6       |     23 |              5 |
| [65535.15](#event-6553515) | 0x00DD       |     34 |              7 |
| [65535.16](#event-6553516) | 0x00FF       |     32 |              7 |
| [65535.17](#event-6553517) | 0x011F       |     32 |              7 |
| [65535.18](#event-6553518) | 0x013F       |     42 |              9 |
| [65535.19](#event-6553519) | 0x0169       |     10 |              2 |
| [65535.20](#event-6553520) | 0x0173       |     10 |              2 |
| [65535.21](#event-6553521) | 0x017D       |     10 |              2 |
| [65535.22](#event-6553522) | 0x0187       |     10 |              2 |
| [65535.23](#event-6553523) | 0x0191       |     10 |              2 |
| [65535.24](#event-6553524) | 0x019B       |     10 |              2 |
| [65535.25](#event-6553525) | 0x01A5       |     10 |              2 |
| [65535.26](#event-6553526) | 0x01AF       |     10 |              2 |
| [65535.27](#event-6553527) | 0x01B9       |     23 |              5 |
| [65535.28](#event-6553528) | 0x01D0       |     14 |              4 |
| [65535.29](#event-6553529) | 0x01DE       |     27 |              7 |
| [65535.30](#event-6553530) | 0x01F9       |      4 |              2 |

## DAT References (imed_data)

|   Index | Hex Value   |   Dec Value |
|---------|-------------|-------------|
|       0 | 0x0000      |           0 |
|       1 | 0x0001      |           1 |
|       2 | 0x0080      |         128 |
|       3 | 0x0023      |          35 |
|       4 | 0x0CF4      |        3316 |
|       5 | 0xFFFFE589  |  4294960521 |
|       6 | 0xFFFF9C64  |  4294941796 |
|       7 | 0x7189      |       29065 |
|       8 | 0x09DC      |        2524 |
|       9 | 0xFFFF9A71  |  4294941297 |
|      10 | 0x0005      |           5 |
|      11 | 0x000B      |          11 |
|      12 | 0x006D      |         109 |
|      13 | 0x0118      |         280 |
|      14 | 0x0009      |           9 |
|      15 | 0x00DC      |         220 |
|      16 | 0x0156      |         342 |
|      17 | 0x000C      |          12 |
|      18 | 0xFFFFF3B5  |  4294964149 |
|      19 | 0xB239      |       45625 |
|      20 | 0xFFFFFC18  |  4294966296 |
|      21 | 0x0202      |         514 |
|      22 | 0x0025      |          37 |
|      23 | 0xFFFFD013  |  4294955027 |
|      24 | 0x14EDA     |       85722 |
|      25 | 0xFFFFEC78  |  4294962296 |
|      26 | 0xFFFFB9D7  |  4294949335 |
|      27 | 0x14D68     |       85352 |
|      28 | 0x07B1      |        1969 |
|      29 | 0x0026      |          38 |
|      30 | 0xFFFFB536  |  4294948150 |
|      31 | 0x15284     |       86660 |
|      32 | 0x000D      |          13 |
|      33 | 0xFFFFBC07  |  4294949895 |
|      34 | 0x15165     |       86373 |
|      35 | 0x0690      |        1680 |
|      36 | 0x000F      |          15 |
|      37 | 0x0046      |          70 |
|      38 | 0x0064      |         100 |
|      39 | 0x0032      |          50 |
|      40 | 0xFFFFC3DD  |  4294951901 |
|      41 | 0x14BC0     |       84928 |
|      42 | 0x000A      |          10 |
|      43 | 0x003C      |          60 |
|      44 | 0x0028      |          40 |
|      45 | 0xFFFFC795  |  4294952853 |
|      46 | 0x14F5A     |       85850 |
|      47 | 0xFFFFEC79  |  4294962297 |
|      48 | 0x006E      |         110 |
|      49 | 0x001E      |          30 |
|      50 | 0xFFFFC9E1  |  4294953441 |
|      51 | 0x14778     |       83832 |
|      52 | 0xFFFFCEFA  |  4294954746 |
|      53 | 0x138C2     |       80066 |
|      54 | 0xFFFFF27D  |  4294963837 |
|      55 | 0xFFFF9E28  |  4294942248 |
|      56 | 0x152B4     |       86708 |
|      57 | 0xFFFF77C8  |  4294932424 |
|      58 | 0x164F5     |       91381 |
|      59 | 0xFFFFB748  |  4294948680 |
|      60 | 0x15077     |       86135 |
|      61 | 0x0014      |          20 |

## Events

### Event 65535

#### Metadata

| Field        | Value   |
|--------------|---------|
| Entrypoint   | 0x0000  |
| Data Size    | 1 bytes |
| Instructions | 1       |

```
      00 01 02 03 04 05 06 07  08 09 0A 0B 0C 0D 0E 0F
      -- -- -- -- -- -- -- --  -- -- -- -- -- -- -- --
0000: 00                                                .               
```

#### Opcodes

```
  0: 0x0000 [0x00] END_REQSTACK()
```

### Event 151

#### Metadata

| Field        | Value   |
|--------------|---------|
| Entrypoint   | 0x0001  |
| Data Size    | 1 bytes |
| Instructions | 1       |

```
      00 01 02 03 04 05 06 07  08 09 0A 0B 0C 0D 0E 0F
      -- -- -- -- -- -- -- --  -- -- -- -- -- -- -- --
0000:    00                                              .              
```

#### Opcodes

```
  0: 0x0001 [0x00] END_REQSTACK()
```

### Event 65535.1

#### Metadata

| Field        | Value   |
|--------------|---------|
| Entrypoint   | 0x0002  |
| Data Size    | 1 bytes |
| Instructions | 1       |

```
      00 01 02 03 04 05 06 07  08 09 0A 0B 0C 0D 0E 0F
      -- -- -- -- -- -- -- --  -- -- -- -- -- -- -- --
0000:       00                                            .             
```

#### Opcodes

```
  0: 0x0002 [0x00] END_REQSTACK()
```

### Event 65535.2

#### Metadata

| Field        | Value    |
|--------------|----------|
| Entrypoint   | 0x0003   |
| Data Size    | 18 bytes |
| Instructions | 4        |

```
      00 01 02 03 04 05 06 07  08 09 0A 0B 0C 0D 0E 0F
      -- -- -- -- -- -- -- --  -- -- -- -- -- -- -- --
0000:          22 00 2F 00 F8  FF FF 7F 6C F8 FF FF 7F     "./.....l....
0010: 00 80 01 80 00                                    .....           
```

#### Opcodes

```
  0: 0x0003 [0x22] ENTITY_HIDE_FLAG(enabled=0x00)
  1: 0x0005 [0x2F] EventEntity->Render.Flags0 &= ~0x80000 // Bit 19
  2: 0x000B [0x6C] FADE_ENTITY_COLOR(entity_id=EventEntity, end_alpha=0*, fade_time=1*)
  3: 0x0014 [0x00] END_REQSTACK()
```

### Event 65535.3

#### Metadata

| Field        | Value    |
|--------------|----------|
| Entrypoint   | 0x0015   |
| Data Size    | 10 bytes |
| Instructions | 2        |

```
      00 01 02 03 04 05 06 07  08 09 0A 0B 0C 0D 0E 0F
      -- -- -- -- -- -- -- --  -- -- -- -- -- -- -- --
0010:                6C F8 FF  FF 7F 02 80 01 80 00          l......... 
```

#### Opcodes

```
  0: 0x0015 [0x6C] FADE_ENTITY_COLOR(entity_id=EventEntity, end_alpha=128*, fade_time=1*)
  1: 0x001E [0x00] END_REQSTACK()
```

### Event 65535.4

#### Metadata

| Field        | Value   |
|--------------|---------|
| Entrypoint   | 0x001F  |
| Data Size    | 9 bytes |
| Instructions | 3       |

```
      00 01 02 03 04 05 06 07  08 09 0A 0B 0C 0D 0E 0F
      -- -- -- -- -- -- -- --  -- -- -- -- -- -- -- --
0010:                                               22                 "
0020: 00 2F 00 F8 FF FF 7F 00                           ./......        
```

#### Opcodes

```
  0: 0x001F [0x22] ENTITY_HIDE_FLAG(enabled=0x00)
  1: 0x0021 [0x2F] EventEntity->Render.Flags0 &= ~0x80000 // Bit 19
  2: 0x0027 [0x00] END_REQSTACK()
```

### Event 65535.5

#### Metadata

| Field        | Value   |
|--------------|---------|
| Entrypoint   | 0x0028  |
| Data Size    | 9 bytes |
| Instructions | 3       |

```
      00 01 02 03 04 05 06 07  08 09 0A 0B 0C 0D 0E 0F
      -- -- -- -- -- -- -- --  -- -- -- -- -- -- -- --
0020:                          22 01 2F 01 F8 FF FF 7F          "./.....
0030: 00                                                .               
```

#### Opcodes

```
  0: 0x0028 [0x22] ENTITY_HIDE_FLAG(enabled=0x01)
  1: 0x002A [0x2F] EventEntity->Render.Flags0 |= 0x80000 // Bit 19
  2: 0x0030 [0x00] END_REQSTACK()
```

### Event 65535.6

#### Metadata

| Field        | Value    |
|--------------|----------|
| Entrypoint   | 0x0031   |
| Data Size    | 10 bytes |
| Instructions | 2        |

```
      00 01 02 03 04 05 06 07  08 09 0A 0B 0C 0D 0E 0F
      -- -- -- -- -- -- -- --  -- -- -- -- -- -- -- --
0030:    6C F8 FF FF 7F 00 80  01 80 00                  l.........     
```

#### Opcodes

```
  0: 0x0031 [0x6C] FADE_ENTITY_COLOR(entity_id=EventEntity, end_alpha=0*, fade_time=1*)
  1: 0x003A [0x00] END_REQSTACK()
```

### Event 65535.7

#### Metadata

| Field        | Value    |
|--------------|----------|
| Entrypoint   | 0x003B   |
| Data Size    | 10 bytes |
| Instructions | 2        |

```
      00 01 02 03 04 05 06 07  08 09 0A 0B 0C 0D 0E 0F
      -- -- -- -- -- -- -- --  -- -- -- -- -- -- -- --
0030:                                   6C F8 FF FF 7F             l....
0040: 02 80 01 80 00                                    .....           
```

#### Opcodes

```
  0: 0x003B [0x6C] FADE_ENTITY_COLOR(entity_id=EventEntity, end_alpha=128*, fade_time=1*)
  1: 0x0044 [0x00] END_REQSTACK()
```

### Event 153

#### Metadata

| Field        | Value   |
|--------------|---------|
| Entrypoint   | 0x0045  |
| Data Size    | 1 bytes |
| Instructions | 1       |

```
      00 01 02 03 04 05 06 07  08 09 0A 0B 0C 0D 0E 0F
      -- -- -- -- -- -- -- --  -- -- -- -- -- -- -- --
0040:                00                                      .          
```

#### Opcodes

```
  0: 0x0045 [0x00] END_REQSTACK()
```

### Event 231

#### Metadata

| Field        | Value   |
|--------------|---------|
| Entrypoint   | 0x0046  |
| Data Size    | 1 bytes |
| Instructions | 1       |

```
      00 01 02 03 04 05 06 07  08 09 0A 0B 0C 0D 0E 0F
      -- -- -- -- -- -- -- --  -- -- -- -- -- -- -- --
0040:                   00                                    .         
```

#### Opcodes

```
  0: 0x0046 [0x00] END_REQSTACK()
```

### Event 23

#### Metadata

| Field        | Value   |
|--------------|---------|
| Entrypoint   | 0x0047  |
| Data Size    | 1 bytes |
| Instructions | 1       |

```
      00 01 02 03 04 05 06 07  08 09 0A 0B 0C 0D 0E 0F
      -- -- -- -- -- -- -- --  -- -- -- -- -- -- -- --
0040:                      00                                  .        
```

#### Opcodes

```
  0: 0x0047 [0x00] END_REQSTACK()
```

### Event 65535.8

#### Metadata

| Field        | Value    |
|--------------|----------|
| Entrypoint   | 0x0048   |
| Data Size    | 24 bytes |
| Instructions | 6        |

```
      00 01 02 03 04 05 06 07  08 09 0A 0B 0C 0D 0E 0F
      -- -- -- -- -- -- -- --  -- -- -- -- -- -- -- --
0040:                          32 03 80 1F 00 04 80 05          2.......
0050: 80 06 80 1F 01 1F 00 07  80 08 80 09 80 1F 01 00  ................
```

#### Opcodes

```
  0: 0x0048 [0x32] ExtData[1]->MainSpeed = 35* * 0.1
  1: 0x004B [0x1F] MOVE_ENTITY: EventEntity moves to X=3.316*, Z=-6.775*, Y=-25.500*
  2: 0x0053 [0x1F] MOVE_ENTITY: Update entity position (mode=1)
  3: 0x0055 [0x1F] MOVE_ENTITY: EventEntity moves to X=29.065*, Z=2.524*, Y=-25.999*
  4: 0x005D [0x1F] MOVE_ENTITY: Update entity position (mode=1)
  5: 0x005F [0x00] END_REQSTACK()
```

### Event 25

#### Metadata

| Field        | Value   |
|--------------|---------|
| Entrypoint   | 0x0060  |
| Data Size    | 1 bytes |
| Instructions | 1       |

```
      00 01 02 03 04 05 06 07  08 09 0A 0B 0C 0D 0E 0F
      -- -- -- -- -- -- -- --  -- -- -- -- -- -- -- --
0060: 00                                                .               
```

#### Opcodes

```
  0: 0x0060 [0x00] END_REQSTACK()
```

### Event 65535.9

#### Metadata

| Field        | Value    |
|--------------|----------|
| Entrypoint   | 0x0061   |
| Data Size    | 21 bytes |
| Instructions | 2        |

```
      00 01 02 03 04 05 06 07  08 09 0A 0B 0C 0D 0E 0F
      -- -- -- -- -- -- -- --  -- -- -- -- -- -- -- --
0060:    B6 0B 0A 80 0B 80 0C  80 0C 80 0C 80 0C 80 0C   ...............
0070: 80 0D 80 00 80 00                                 ......          
```

#### Opcodes

```
  0: 0x0061 [0xB6] ENTITY_APPEARANCE_HANDLER(case=Full entity look, race=5*, hair=11*, head=109*, body=109*, hands=109*, legs=109*, feet=109*, main=280*, sub=0*)
  1: 0x0075 [0x00] END_REQSTACK()
```

### Event 65535.10

#### Metadata

| Field        | Value    |
|--------------|----------|
| Entrypoint   | 0x0076   |
| Data Size    | 21 bytes |
| Instructions | 2        |

```
      00 01 02 03 04 05 06 07  08 09 0A 0B 0C 0D 0E 0F
      -- -- -- -- -- -- -- --  -- -- -- -- -- -- -- --
0070:                   B6 0B  0A 80 0E 80 0F 80 0F 80        ..........
0080: 0F 80 0F 80 0F 80 10 80  00 80 00                 ...........     
```

#### Opcodes

```
  0: 0x0076 [0xB6] ENTITY_APPEARANCE_HANDLER(case=Full entity look, race=5*, hair=9*, head=220*, body=220*, hands=220*, legs=220*, feet=220*, main=342*, sub=0*)
  1: 0x008A [0x00] END_REQSTACK()
```

### Event 65535.11

#### Metadata

| Field        | Value    |
|--------------|----------|
| Entrypoint   | 0x008B   |
| Data Size    | 14 bytes |
| Instructions | 4        |

```
      00 01 02 03 04 05 06 07  08 09 0A 0B 0C 0D 0E 0F
      -- -- -- -- -- -- -- --  -- -- -- -- -- -- -- --
0080:                                   32 11 80 1F 00             2....
0090: 12 80 13 80 14 80 1F 01  00                       .........       
```

#### Opcodes

```
  0: 0x008B [0x32] ExtData[1]->MainSpeed = 12* * 0.1
  1: 0x008E [0x1F] MOVE_ENTITY: EventEntity moves to X=-3.147*, Z=45.625*, Y=-1.000*
  2: 0x0096 [0x1F] MOVE_ENTITY: Update entity position (mode=1)
  3: 0x0098 [0x00] END_REQSTACK()
```

### Event 33

#### Metadata

| Field        | Value   |
|--------------|---------|
| Entrypoint   | 0x0099  |
| Data Size    | 1 bytes |
| Instructions | 1       |

```
      00 01 02 03 04 05 06 07  08 09 0A 0B 0C 0D 0E 0F
      -- -- -- -- -- -- -- --  -- -- -- -- -- -- -- --
0090:                             00                             .      
```

#### Opcodes

```
  0: 0x0099 [0x00] END_REQSTACK()
```

### Event 65535.12

#### Metadata

| Field        | Value    |
|--------------|----------|
| Entrypoint   | 0x009A   |
| Data Size    | 13 bytes |
| Instructions | 3        |

```
      00 01 02 03 04 05 06 07  08 09 0A 0B 0C 0D 0E 0F
      -- -- -- -- -- -- -- --  -- -- -- -- -- -- -- --
0090:                                6E F8 FF FF 7F 15            n.....
00A0: 80 99 F8 FF FF 7F 00                              .......         
```

#### Opcodes

```
  0: 0x009A [0x6E] EventEntity uses emote 514*
  1: 0x00A1 [0x99] Wait for EventEntity animation to complete
  2: 0x00A6 [0x00] END_REQSTACK()
```

### Event 65535.13

#### Metadata

| Field        | Value    |
|--------------|----------|
| Entrypoint   | 0x00A7   |
| Data Size    | 31 bytes |
| Instructions | 7        |

```
      00 01 02 03 04 05 06 07  08 09 0A 0B 0C 0D 0E 0F
      -- -- -- -- -- -- -- --  -- -- -- -- -- -- -- --
00A0:                      32  16 80 1F 00 17 80 18 80         2........
00B0: 19 80 1F 01 1F 00 1A 80  1B 80 19 80 1F 01 4B F8  ..............K.
00C0: FF FF 7F 1C 80 00                                 ......          
```

#### Opcodes

```
  0: 0x00A7 [0x32] ExtData[1]->MainSpeed = 37* * 0.1
  1: 0x00AA [0x1F] MOVE_ENTITY: EventEntity moves to X=-12.269*, Z=85.722*, Y=-5.000*
  2: 0x00B2 [0x1F] MOVE_ENTITY: Update entity position (mode=1)
  3: 0x00B4 [0x1F] MOVE_ENTITY: EventEntity moves to X=-17.961*, Z=85.352*, Y=-5.000*
  4: 0x00BC [0x1F] MOVE_ENTITY: Update entity position (mode=1)
  5: 0x00BE [0x4B] UPDATE_ENTITY_YAW(entity=EventEntity, yaw=10.8°*)
  6: 0x00C5 [0x00] END_REQSTACK()
```

### Event 65535.14

#### Metadata

| Field        | Value    |
|--------------|----------|
| Entrypoint   | 0x00C6   |
| Data Size    | 23 bytes |
| Instructions | 5        |

```
      00 01 02 03 04 05 06 07  08 09 0A 0B 0C 0D 0E 0F
      -- -- -- -- -- -- -- --  -- -- -- -- -- -- -- --
00C0:                   32 1D  80 1F 00 1E 80 1F 80 19        2.........
00D0: 80 1F 01 4A F8 FF FF 7F  36 E2 05 01 00           ...J....6....   
```

#### Opcodes

```
  0: 0x00C6 [0x32] ExtData[1]->MainSpeed = 38* * 0.1
  1: 0x00C9 [0x1F] MOVE_ENTITY: EventEntity moves to X=-19.146*, Z=86.660*, Y=-5.000*
  2: 0x00D1 [0x1F] MOVE_ENTITY: Update entity position (mode=1)
  3: 0x00D3 [0x4A] EventEntity looks at Lehko Habhoka (ID: 17162806/0x0105E236)
  4: 0x00DC [0x00] END_REQSTACK()
```

### Event 65535.15

#### Metadata

| Field        | Value    |
|--------------|----------|
| Entrypoint   | 0x00DD   |
| Data Size    | 34 bytes |
| Instructions | 7        |

```
      00 01 02 03 04 05 06 07  08 09 0A 0B 0C 0D 0E 0F
      -- -- -- -- -- -- -- --  -- -- -- -- -- -- -- --
00D0:                                         32 20 80               2 .
00E0: 1F 00 21 80 22 80 19 80  1F 01 4B F8 FF FF 7F 23  ..!.".....K....#
00F0: 80 79 00 F8 FF FF 7F 36  E2 05 01 1C 24 80 00     .y.....6....$.. 
```

#### Opcodes

```
  0: 0x00DD [0x32] ExtData[1]->MainSpeed = 13* * 0.1
  1: 0x00E0 [0x1F] MOVE_ENTITY: EventEntity moves to X=-17.401*, Z=86.373*, Y=-5.000*
  2: 0x00E8 [0x1F] MOVE_ENTITY: Update entity position (mode=1)
  3: 0x00EA [0x4B] UPDATE_ENTITY_YAW(entity=EventEntity, yaw=9.2°*)
  4: 0x00F1 [0x79] EventEntity looks at Lehko Habhoka (ID: 17162806/0x0105E236) (Basic look)
  5: 0x00FB [0x1C] WAIT(15* ticks)
  6: 0x00FE [0x00] END_REQSTACK()
```

### Event 65535.16

#### Metadata

| Field        | Value    |
|--------------|----------|
| Entrypoint   | 0x00FF   |
| Data Size    | 32 bytes |
| Instructions | 7        |

```
      00 01 02 03 04 05 06 07  08 09 0A 0B 0C 0D 0E 0F
      -- -- -- -- -- -- -- --  -- -- -- -- -- -- -- --
00F0:                                               32                 2
0100: 0B 80 59 01 F8 FF FF 7F  25 80 4B F8 FF FF 7F 26  ..Y.....%.K....&
0110: 80 1C 27 80 1F 00 28 80  29 80 19 80 1F 01 00     ..'...(.)...... 
```

#### Opcodes

```
  0: 0x00FF [0x32] ExtData[1]->MainSpeed = 11* * 0.1
  1: 0x0102 [0x59] UPDATE_ENTITY_DATA: Set EventEntity turn speed = 70*
  2: 0x010A [0x4B] UPDATE_ENTITY_YAW(entity=EventEntity, yaw=0.5°*)
  3: 0x0111 [0x1C] WAIT(50* ticks)
  4: 0x0114 [0x1F] MOVE_ENTITY: EventEntity moves to X=-15.395*, Z=84.928*, Y=-5.000*
  5: 0x011C [0x1F] MOVE_ENTITY: Update entity position (mode=1)
  6: 0x011E [0x00] END_REQSTACK()
```

### Event 65535.17

#### Metadata

| Field        | Value    |
|--------------|----------|
| Entrypoint   | 0x011F   |
| Data Size    | 32 bytes |
| Instructions | 7        |

```
      00 01 02 03 04 05 06 07  08 09 0A 0B 0C 0D 0E 0F
      -- -- -- -- -- -- -- --  -- -- -- -- -- -- -- --
0110:                                               32                 2
0120: 2A 80 59 01 F8 FF FF 7F  2B 80 4B F8 FF FF 7F 26  *.Y.....+.K....&
0130: 80 1C 2C 80 1F 00 2D 80  2E 80 2F 80 1F 01 00     ..,...-.../.... 
```

#### Opcodes

```
  0: 0x011F [0x32] ExtData[1]->MainSpeed = 10* * 0.1
  1: 0x0122 [0x59] UPDATE_ENTITY_DATA: Set EventEntity turn speed = 60*
  2: 0x012A [0x4B] UPDATE_ENTITY_YAW(entity=EventEntity, yaw=0.5°*)
  3: 0x0131 [0x1C] WAIT(40* ticks)
  4: 0x0134 [0x1F] MOVE_ENTITY: EventEntity moves to X=-14.443*, Z=85.850*, Y=-4.999*
  5: 0x013C [0x1F] MOVE_ENTITY: Update entity position (mode=1)
  6: 0x013E [0x00] END_REQSTACK()
```

### Event 65535.18

#### Metadata

| Field        | Value    |
|--------------|----------|
| Entrypoint   | 0x013F   |
| Data Size    | 42 bytes |
| Instructions | 9        |

```
      00 01 02 03 04 05 06 07  08 09 0A 0B 0C 0D 0E 0F
      -- -- -- -- -- -- -- --  -- -- -- -- -- -- -- --
0130:                                               32                 2
0140: 0B 80 59 01 F8 FF FF 7F  25 80 4B F8 FF FF 7F 30  ..Y.....%.K....0
0150: 80 1C 31 80 1F 00 32 80  33 80 2F 80 1F 01 1F 00  ..1...2.3./.....
0160: 34 80 35 80 36 80 1F 01  00                       4.5.6....       
```

#### Opcodes

```
  0: 0x013F [0x32] ExtData[1]->MainSpeed = 11* * 0.1
  1: 0x0142 [0x59] UPDATE_ENTITY_DATA: Set EventEntity turn speed = 70*
  2: 0x014A [0x4B] UPDATE_ENTITY_YAW(entity=EventEntity, yaw=0.6°*)
  3: 0x0151 [0x1C] WAIT(30* ticks)
  4: 0x0154 [0x1F] MOVE_ENTITY: EventEntity moves to X=-13.855*, Z=83.832*, Y=-4.999*
  5: 0x015C [0x1F] MOVE_ENTITY: Update entity position (mode=1)
  6: 0x015E [0x1F] MOVE_ENTITY: EventEntity moves to X=-12.550*, Z=80.066*, Y=-3.459*
  7: 0x0166 [0x1F] MOVE_ENTITY: Update entity position (mode=1)
  8: 0x0168 [0x00] END_REQSTACK()
```

### Event 65535.19

#### Metadata

| Field        | Value    |
|--------------|----------|
| Entrypoint   | 0x0169   |
| Data Size    | 10 bytes |
| Instructions | 2        |

```
      00 01 02 03 04 05 06 07  08 09 0A 0B 0C 0D 0E 0F
      -- -- -- -- -- -- -- --  -- -- -- -- -- -- -- --
0160:                             6C 2C E2 05 01 00 80           l,.....
0170: 01 80 00                                          ...             
```

#### Opcodes

```
  0: 0x0169 [0x6C] FADE_ENTITY_COLOR(entity_id=Zolku-Azolku (ID: 17162796/0x0105E22C), end_alpha=0*, fade_time=1*)
  1: 0x0172 [0x00] END_REQSTACK()
```

### Event 65535.20

#### Metadata

| Field        | Value    |
|--------------|----------|
| Entrypoint   | 0x0173   |
| Data Size    | 10 bytes |
| Instructions | 2        |

```
      00 01 02 03 04 05 06 07  08 09 0A 0B 0C 0D 0E 0F
      -- -- -- -- -- -- -- --  -- -- -- -- -- -- -- --
0170:          6C 2E E2 05 01  00 80 01 80 00              l.........   
```

#### Opcodes

```
  0: 0x0173 [0x6C] FADE_ENTITY_COLOR(entity_id=Lutete (ID: 17162798/0x0105E22E), end_alpha=0*, fade_time=1*)
  1: 0x017C [0x00] END_REQSTACK()
```

### Event 65535.21

#### Metadata

| Field        | Value    |
|--------------|----------|
| Entrypoint   | 0x017D   |
| Data Size    | 10 bytes |
| Instructions | 2        |

```
      00 01 02 03 04 05 06 07  08 09 0A 0B 0C 0D 0E 0F
      -- -- -- -- -- -- -- --  -- -- -- -- -- -- -- --
0170:                                         6C 2D E2               l-.
0180: 05 01 00 80 01 80 00                              .......         
```

#### Opcodes

```
  0: 0x017D [0x6C] FADE_ENTITY_COLOR(entity_id=Kayeel-Payeel (ID: 17162797/0x0105E22D), end_alpha=0*, fade_time=1*)
  1: 0x0186 [0x00] END_REQSTACK()
```

### Event 65535.22

#### Metadata

| Field        | Value    |
|--------------|----------|
| Entrypoint   | 0x0187   |
| Data Size    | 10 bytes |
| Instructions | 2        |

```
      00 01 02 03 04 05 06 07  08 09 0A 0B 0C 0D 0E 0F
      -- -- -- -- -- -- -- --  -- -- -- -- -- -- -- --
0180:                      6C  2C E2 05 01 02 80 01 80         l,.......
0190: 00                                                .               
```

#### Opcodes

```
  0: 0x0187 [0x6C] FADE_ENTITY_COLOR(entity_id=Zolku-Azolku (ID: 17162796/0x0105E22C), end_alpha=128*, fade_time=1*)
  1: 0x0190 [0x00] END_REQSTACK()
```

### Event 65535.23

#### Metadata

| Field        | Value    |
|--------------|----------|
| Entrypoint   | 0x0191   |
| Data Size    | 10 bytes |
| Instructions | 2        |

```
      00 01 02 03 04 05 06 07  08 09 0A 0B 0C 0D 0E 0F
      -- -- -- -- -- -- -- --  -- -- -- -- -- -- -- --
0190:    6C 2E E2 05 01 02 80  01 80 00                  l.........     
```

#### Opcodes

```
  0: 0x0191 [0x6C] FADE_ENTITY_COLOR(entity_id=Lutete (ID: 17162798/0x0105E22E), end_alpha=128*, fade_time=1*)
  1: 0x019A [0x00] END_REQSTACK()
```

### Event 65535.24

#### Metadata

| Field        | Value    |
|--------------|----------|
| Entrypoint   | 0x019B   |
| Data Size    | 10 bytes |
| Instructions | 2        |

```
      00 01 02 03 04 05 06 07  08 09 0A 0B 0C 0D 0E 0F
      -- -- -- -- -- -- -- --  -- -- -- -- -- -- -- --
0190:                                   6C 2D E2 05 01             l-...
01A0: 02 80 01 80 00                                    .....           
```

#### Opcodes

```
  0: 0x019B [0x6C] FADE_ENTITY_COLOR(entity_id=Kayeel-Payeel (ID: 17162797/0x0105E22D), end_alpha=128*, fade_time=1*)
  1: 0x01A4 [0x00] END_REQSTACK()
```

### Event 65535.25

#### Metadata

| Field        | Value    |
|--------------|----------|
| Entrypoint   | 0x01A5   |
| Data Size    | 10 bytes |
| Instructions | 2        |

```
      00 01 02 03 04 05 06 07  08 09 0A 0B 0C 0D 0E 0F
      -- -- -- -- -- -- -- --  -- -- -- -- -- -- -- --
01A0:                6C F8 FF  FF 7F 00 80 01 80 00          l......... 
```

#### Opcodes

```
  0: 0x01A5 [0x6C] FADE_ENTITY_COLOR(entity_id=EventEntity, end_alpha=0*, fade_time=1*)
  1: 0x01AE [0x00] END_REQSTACK()
```

### Event 65535.26

#### Metadata

| Field        | Value    |
|--------------|----------|
| Entrypoint   | 0x01AF   |
| Data Size    | 10 bytes |
| Instructions | 2        |

```
      00 01 02 03 04 05 06 07  08 09 0A 0B 0C 0D 0E 0F
      -- -- -- -- -- -- -- --  -- -- -- -- -- -- -- --
01A0:                                               6C                 l
01B0: F8 FF FF 7F 02 80 01 80  00                       .........       
```

#### Opcodes

```
  0: 0x01AF [0x6C] FADE_ENTITY_COLOR(entity_id=EventEntity, end_alpha=128*, fade_time=1*)
  1: 0x01B8 [0x00] END_REQSTACK()
```

### Event 65535.27

#### Metadata

| Field        | Value    |
|--------------|----------|
| Entrypoint   | 0x01B9   |
| Data Size    | 23 bytes |
| Instructions | 5        |

```
      00 01 02 03 04 05 06 07  08 09 0A 0B 0C 0D 0E 0F
      -- -- -- -- -- -- -- --  -- -- -- -- -- -- -- --
01B0:                             32 11 80 1F 00 37 80           2....7.
01C0: 38 80 19 80 1F 01 4A F8  FF FF 7F 36 E2 05 01 00  8.....J....6....
```

#### Opcodes

```
  0: 0x01B9 [0x32] ExtData[1]->MainSpeed = 12* * 0.1
  1: 0x01BC [0x1F] MOVE_ENTITY: EventEntity moves to X=-25.048*, Z=86.708*, Y=-5.000*
  2: 0x01C4 [0x1F] MOVE_ENTITY: Update entity position (mode=1)
  3: 0x01C6 [0x4A] EventEntity looks at Lehko Habhoka (ID: 17162806/0x0105E236)
  4: 0x01CF [0x00] END_REQSTACK()
```

### Event 65535.28

#### Metadata

| Field        | Value    |
|--------------|----------|
| Entrypoint   | 0x01D0   |
| Data Size    | 14 bytes |
| Instructions | 4        |

```
      00 01 02 03 04 05 06 07  08 09 0A 0B 0C 0D 0E 0F
      -- -- -- -- -- -- -- --  -- -- -- -- -- -- -- --
01D0: 32 11 80 1F 00 39 80 3A  80 19 80 1F 01 00        2....9.:......  
```

#### Opcodes

```
  0: 0x01D0 [0x32] ExtData[1]->MainSpeed = 12* * 0.1
  1: 0x01D3 [0x1F] MOVE_ENTITY: EventEntity moves to X=-34.872*, Z=91.381*, Y=-5.000*
  2: 0x01DB [0x1F] MOVE_ENTITY: Update entity position (mode=1)
  3: 0x01DD [0x00] END_REQSTACK()
```

### Event 65535.29

#### Metadata

| Field        | Value    |
|--------------|----------|
| Entrypoint   | 0x01DE   |
| Data Size    | 27 bytes |
| Instructions | 7        |

```
      00 01 02 03 04 05 06 07  08 09 0A 0B 0C 0D 0E 0F
      -- -- -- -- -- -- -- --  -- -- -- -- -- -- -- --
01D0:                                            32 2A                2*
01E0: 80 1F 00 3B 80 3C 80 2F  80 1F 01 6F 6E F8 FF FF  ...;.<./...on...
01F0: 7F 3D 80 99 F8 FF FF 7F  00                       .=.......       
```

#### Opcodes

```
  0: 0x01DE [0x32] ExtData[1]->MainSpeed = 10* * 0.1
  1: 0x01E1 [0x1F] MOVE_ENTITY: EventEntity moves to X=-18.616*, Z=86.135*, Y=-4.999*
  2: 0x01E9 [0x1F] MOVE_ENTITY: Update entity position (mode=1)
  3: 0x01EB [0x6F] WAIT_FRAME_DELAY: Yield until WaitTime reaches zero
  4: 0x01EC [0x6E] EventEntity uses emote 20*
  5: 0x01F3 [0x99] Wait for EventEntity animation to complete
  6: 0x01F8 [0x00] END_REQSTACK()
```

### Event 65535.30

#### Metadata

| Field        | Value   |
|--------------|---------|
| Entrypoint   | 0x01F9  |
| Data Size    | 4 bytes |
| Instructions | 2       |

```
      00 01 02 03 04 05 06 07  08 09 0A 0B 0C 0D 0E 0F
      -- -- -- -- -- -- -- --  -- -- -- -- -- -- -- --
01F0:                             39 03 10 00                    9...   
```

#### Opcodes

```
  0: 0x01F9 [0x39] SET_ENTITY_DIRECTION(direction=Work_Zone[3])
  1: 0x01FC [0x00] END_REQSTACK()
```
