# 17162801 - Zubaba

## Common Data

| Field            | Value                        |
|------------------|------------------------------|
| Zone             | Windurst Waters [S] (ID: 94) |
| Block Size       | 252 bytes                    |
| Total Events     | 10                           |
| References Count | 22                           |

## List of Events

| Event ID                 | Entrypoint   |   Size |   Instructions |
|--------------------------|--------------|--------|----------------|
| [65535](#event-65535)    | 0x0000       |      1 |              1 |
| [151](#event-151)        | 0x0001       |      1 |              1 |
| [65535.1](#event-655351) | 0x0002       |     20 |              6 |
| [184](#event-184)        | 0x0016       |      1 |              1 |
| [65535.2](#event-655352) | 0x0017       |     11 |              3 |
| [65535.3](#event-655353) | 0x0022       |     19 |              5 |
| [65535.4](#event-655354) | 0x0035       |     23 |              7 |
| [65535.5](#event-655355) | 0x004C       |     16 |              4 |
| [23](#event-23)          | 0x005C       |      1 |              1 |
| [65535.6](#event-655356) | 0x005D       |     14 |              4 |

## DAT References (imed_data)

|   Index | Hex Value   |   Dec Value |
|---------|-------------|-------------|
|       0 | 0x0028      |          40 |
|       1 | 0x76E2      |       30434 |
|       2 | 0xFFFFF274  |  4294963828 |
|       3 | 0xFFFF9C65  |  4294941797 |
|       4 | 0x00B1      |         177 |
|       5 | 0x2DF8      |       11768 |
|       6 | 0xFFFF4869  |  4294920297 |
|       7 | 0xFFFFFFB7  |  4294967223 |
|       8 | 0x8EFA      |       36602 |
|       9 | 0xFFFF4099  |  4294918297 |
|      10 | 0x03E8      |        1000 |
|      11 | 0xFFFFF81A  |  4294965274 |
|      12 | 0x8F38      |       36664 |
|      13 | 0xFFFFF8AB  |  4294965419 |
|      14 | 0x5425      |       21541 |
|      15 | 0xFFFF428D  |  4294918797 |
|      16 | 0xFFFFF48B  |  4294964363 |
|      17 | 0xFFFFD67E  |  4294956670 |
|      18 | 0x0023      |          35 |
|      19 | 0x7189      |       29065 |
|      20 | 0x09DC      |        2524 |
|      21 | 0xFFFF9A71  |  4294941297 |

## Events

### Event 65535

#### Metadata

| Field        | Value   |
|--------------|---------|
| Entrypoint   | 0x0000  |
| Data Size    | 1 bytes |
| Instructions | 1       |

```
      00 01 02 03 04 05 06 07  08 09 0A 0B 0C 0D 0E 0F
      -- -- -- -- -- -- -- --  -- -- -- -- -- -- -- --
0000: 00                                                .               
```

#### Opcodes

```
  0: 0x0000 [0x00] END_REQSTACK()
```

### Event 151

#### Metadata

| Field        | Value   |
|--------------|---------|
| Entrypoint   | 0x0001  |
| Data Size    | 1 bytes |
| Instructions | 1       |

```
      00 01 02 03 04 05 06 07  08 09 0A 0B 0C 0D 0E 0F
      -- -- -- -- -- -- -- --  -- -- -- -- -- -- -- --
0000:    00                                              .              
```

#### Opcodes

```
  0: 0x0001 [0x00] END_REQSTACK()
```

### Event 65535.1

#### Metadata

| Field        | Value    |
|--------------|----------|
| Entrypoint   | 0x0002   |
| Data Size    | 20 bytes |
| Instructions | 6        |

```
      00 01 02 03 04 05 06 07  08 09 0A 0B 0C 0D 0E 0F
      -- -- -- -- -- -- -- --  -- -- -- -- -- -- -- --
0000:       32 00 80 1F 00 01  80 02 80 03 80 1F 01 6F    2............o
0010: 1E 06 E2 05 01 00                                 ......          
```

#### Opcodes

```
  0: 0x0002 [0x32] ExtData[1]->MainSpeed = 40* * 0.1
  1: 0x0005 [0x1F] MOVE_ENTITY: EventEntity moves to X=30.434*, Z=-3.468*, Y=-25.499*
  2: 0x000D [0x1F] MOVE_ENTITY: Update entity position (mode=1)
  3: 0x000F [0x6F] WAIT_FRAME_DELAY: Yield until WaitTime reaches zero
  4: 0x0010 [0x1E] EventEntity looks at Ajido-Marujido (ID: 17162758/0x0105E206) and starts talking
  5: 0x0015 [0x00] END_REQSTACK()
```

### Event 184

#### Metadata

| Field        | Value   |
|--------------|---------|
| Entrypoint   | 0x0016  |
| Data Size    | 1 bytes |
| Instructions | 1       |

```
      00 01 02 03 04 05 06 07  08 09 0A 0B 0C 0D 0E 0F
      -- -- -- -- -- -- -- --  -- -- -- -- -- -- -- --
0010:                   00                                    .         
```

#### Opcodes

```
  0: 0x0016 [0x00] END_REQSTACK()
```

### Event 65535.2

#### Metadata

| Field        | Value    |
|--------------|----------|
| Entrypoint   | 0x0017   |
| Data Size    | 11 bytes |
| Instructions | 3        |

```
      00 01 02 03 04 05 06 07  08 09 0A 0B 0C 0D 0E 0F
      -- -- -- -- -- -- -- --  -- -- -- -- -- -- -- --
0010:                      1F  00 04 80 05 80 06 80 1F         .........
0020: 01 00                                             ..              
```

#### Opcodes

```
  0: 0x0017 [0x1F] MOVE_ENTITY: EventEntity moves to X=0.177*, Z=11.768*, Y=-46.999*
  1: 0x001F [0x1F] MOVE_ENTITY: Update entity position (mode=1)
  2: 0x0021 [0x00] END_REQSTACK()
```

### Event 65535.3

#### Metadata

| Field        | Value    |
|--------------|----------|
| Entrypoint   | 0x0022   |
| Data Size    | 19 bytes |
| Instructions | 5        |

```
      00 01 02 03 04 05 06 07  08 09 0A 0B 0C 0D 0E 0F
      -- -- -- -- -- -- -- --  -- -- -- -- -- -- -- --
0020:       1F 00 07 80 08 80  09 80 1F 01 6F 4B 31 E2    ..........oK1.
0030: 05 01 0A 80 00                                    .....           
```

#### Opcodes

```
  0: 0x0022 [0x1F] MOVE_ENTITY: EventEntity moves to X=-0.073*, Z=36.602*, Y=-48.999*
  1: 0x002A [0x1F] MOVE_ENTITY: Update entity position (mode=1)
  2: 0x002C [0x6F] WAIT_FRAME_DELAY: Yield until WaitTime reaches zero
  3: 0x002D [0x4B] UPDATE_ENTITY_YAW(entity=Zubaba (ID: 17162801/0x0105E231), yaw=5.5°*)
  4: 0x0034 [0x00] END_REQSTACK()
```

### Event 65535.4

#### Metadata

| Field        | Value    |
|--------------|----------|
| Entrypoint   | 0x0035   |
| Data Size    | 23 bytes |
| Instructions | 7        |

```
      00 01 02 03 04 05 06 07  08 09 0A 0B 0C 0D 0E 0F
      -- -- -- -- -- -- -- --  -- -- -- -- -- -- -- --
0030:                1F 00 0B  80 0C 80 09 80 1F 01 6F       ..........o
0040: 1F 00 0D 80 0E 80 0F 80  1F 01 6F 00              ..........o.    
```

#### Opcodes

```
  0: 0x0035 [0x1F] MOVE_ENTITY: EventEntity moves to X=-2.022*, Z=36.664*, Y=-48.999*
  1: 0x003D [0x1F] MOVE_ENTITY: Update entity position (mode=1)
  2: 0x003F [0x6F] WAIT_FRAME_DELAY: Yield until WaitTime reaches zero
  3: 0x0040 [0x1F] MOVE_ENTITY: EventEntity moves to X=-1.877*, Z=21.541*, Y=-48.499*
  4: 0x0048 [0x1F] MOVE_ENTITY: Update entity position (mode=1)
  5: 0x004A [0x6F] WAIT_FRAME_DELAY: Yield until WaitTime reaches zero
  6: 0x004B [0x00] END_REQSTACK()
```

### Event 65535.5

#### Metadata

| Field        | Value    |
|--------------|----------|
| Entrypoint   | 0x004C   |
| Data Size    | 16 bytes |
| Instructions | 4        |

```
      00 01 02 03 04 05 06 07  08 09 0A 0B 0C 0D 0E 0F
      -- -- -- -- -- -- -- --  -- -- -- -- -- -- -- --
0040:                                      1F 00 10 80              ....
0050: 11 80 03 80 1F 01 1E 18  E2 05 01 00              ............    
```

#### Opcodes

```
  0: 0x004C [0x1F] MOVE_ENTITY: EventEntity moves to X=-2.933*, Z=-10.626*, Y=-25.499*
  1: 0x0054 [0x1F] MOVE_ENTITY: Update entity position (mode=1)
  2: 0x0056 [0x1E] EventEntity looks at Robel-Akbel (ID: 17162776/0x0105E218) and starts talking
  3: 0x005B [0x00] END_REQSTACK()
```

### Event 23

#### Metadata

| Field        | Value   |
|--------------|---------|
| Entrypoint   | 0x005C  |
| Data Size    | 1 bytes |
| Instructions | 1       |

```
      00 01 02 03 04 05 06 07  08 09 0A 0B 0C 0D 0E 0F
      -- -- -- -- -- -- -- --  -- -- -- -- -- -- -- --
0050:                                      00                       .   
```

#### Opcodes

```
  0: 0x005C [0x00] END_REQSTACK()
```

### Event 65535.6

#### Metadata

| Field        | Value    |
|--------------|----------|
| Entrypoint   | 0x005D   |
| Data Size    | 14 bytes |
| Instructions | 4        |

```
      00 01 02 03 04 05 06 07  08 09 0A 0B 0C 0D 0E 0F
      -- -- -- -- -- -- -- --  -- -- -- -- -- -- -- --
0050:                                         32 12 80               2..
0060: 1F 00 13 80 14 80 15 80  1F 01 00                 ...........     
```

#### Opcodes

```
  0: 0x005D [0x32] ExtData[1]->MainSpeed = 35* * 0.1
  1: 0x0060 [0x1F] MOVE_ENTITY: EventEntity moves to X=29.065*, Z=2.524*, Y=-25.999*
  2: 0x0068 [0x1F] MOVE_ENTITY: Update entity position (mode=1)
  3: 0x006A [0x00] END_REQSTACK()
```
