# 17162923

## Common Data

| Field            | Value                        |
|------------------|------------------------------|
| Zone             | Windurst Waters [S] (ID: 94) |
| Block Size       | 1528 bytes                   |
| Total Events     | 38                           |
| References Count | 96                           |

## List of Events

| Event ID                   | Entrypoint   |   Size |   Instructions |
|----------------------------|--------------|--------|----------------|
| [65535](#event-65535)      | 0x0000       |      1 |              1 |
| [65535.1](#event-655351)   | 0x0001       |      1 |              1 |
| [65535.2](#event-655352)   | 0x0002       |     18 |              4 |
| [65535.3](#event-655353)   | 0x0014       |     10 |              2 |
| [65535.4](#event-655354)   | 0x001E       |      9 |              3 |
| [65535.5](#event-655355)   | 0x0027       |      9 |              3 |
| [65535.6](#event-655356)   | 0x0030       |     10 |              2 |
| [65535.7](#event-655357)   | 0x003A       |     10 |              2 |
| [25](#event-25)            | 0x0044       |      1 |              1 |
| [65535.8](#event-655358)   | 0x0045       |     10 |              2 |
| [65535.9](#event-655359)   | 0x004F       |     10 |              2 |
| [65535.10](#event-6553510) | 0x0059       |     30 |              7 |
| [65535.11](#event-6553511) | 0x0077       |     22 |              7 |
| [65535.12](#event-6553512) | 0x008D       |      9 |              5 |
| [65535.13](#event-6553513) | 0x0096       |     13 |              3 |
| [65535.14](#event-6553514) | 0x00A3       |     10 |              2 |
| [65535.15](#event-6553515) | 0x00AD       |      5 |              2 |
| [65535.16](#event-6553516) | 0x00B2       |      5 |              2 |
| [65535.17](#event-6553517) | 0x00B7       |     21 |              2 |
| [65535.18](#event-6553518) | 0x00CC       |     30 |              6 |
| [65535.19](#event-6553519) | 0x00EA       |     54 |             10 |
| [65535.20](#event-6553520) | 0x0120       |     22 |              7 |
| [65535.21](#event-6553521) | 0x0136       |     59 |             12 |
| [65535.22](#event-6553522) | 0x0171       |    165 |             34 |
| [65535.23](#event-6553523) | 0x0216       |     12 |              4 |
| [65535.24](#event-6553524) | 0x0222       |     38 |              7 |
| [65535.25](#event-6553525) | 0x0248       |     29 |              6 |
| [65535.26](#event-6553526) | 0x0265       |     44 |              7 |
| [65535.27](#event-6553527) | 0x0291       |     40 |              5 |
| [65535.28](#event-6553528) | 0x02B9       |     30 |              7 |
| [65535.29](#event-6553529) | 0x02D7       |     22 |              5 |
| [65535.30](#event-6553530) | 0x02ED       |     12 |              4 |
| [65535.31](#event-6553531) | 0x02F9       |     60 |             13 |
| [65535.32](#event-6553532) | 0x0335       |     21 |              5 |
| [65535.33](#event-6553533) | 0x034A       |     87 |             13 |
| [65535.34](#event-6553534) | 0x03A1       |     22 |              7 |
| [65535.35](#event-6553535) | 0x03B7       |     22 |              7 |
| [22](#event-22)            | 0x03CD       |      1 |              1 |

## DAT References (imed_data)

|   Index | Hex Value   |   Dec Value |
|---------|-------------|-------------|
|       0 | 0x0000      |           0 |
|       1 | 0x0001      |           1 |
|       2 | 0x0080      |         128 |
|       3 | 0x0026      |          38 |
|       4 | 0xFFFF5CCD  |  4294925517 |
|       5 | 0x1132D     |       70445 |
|       6 | 0xFFFFF254  |  4294963796 |
|       7 | 0xFFFF68F3  |  4294928627 |
|       8 | 0x11188     |       70024 |
|       9 | 0x0004      |           4 |
|      10 | 0x0168      |         360 |
|      11 | 0x0050      |          80 |
|      12 | 0x003C      |          60 |
|      13 | 0x00B4      |         180 |
|      14 | 0x092A      |        2346 |
|      15 | 0x08CA      |        2250 |
|      16 | 0x0007      |           7 |
|      17 | 0x0002      |           2 |
|      18 | 0x00A4      |         164 |
|      19 | 0x003E      |          62 |
|      20 | 0x00D8      |         216 |
|      21 | 0x000D      |          13 |
|      22 | 0x0689      |        1673 |
|      23 | 0xB9BA      |       47546 |
|      24 | 0xFFFFFC18  |  4294966296 |
|      25 | 0x012C      |         300 |
|      26 | 0x0078      |         120 |
|      27 | 0x00FA      |         250 |
|      28 | 0x000B      |          11 |
|      29 | 0x4AB1A     |      305946 |
|      30 | 0x9933      |       39219 |
|      31 | 0x4A911     |      305425 |
|      32 | 0x9FBD      |       40893 |
|      33 | 0x4AE48     |      306760 |
|      34 | 0xA770      |       42864 |
|      35 | 0x4AD21     |      306465 |
|      36 | 0xA9C8      |       43464 |
|      37 | 0x0010      |          16 |
|      38 | 0x4B096     |      307350 |
|      39 | 0xA512      |       42258 |
|      40 | 0x4B2E7     |      307943 |
|      41 | 0xA039      |       41017 |
|      42 | 0xFFFFF20D  |  4294963725 |
|      43 | 0x4B418     |      308248 |
|      44 | 0x9ABB      |       39611 |
|      45 | 0xFFFFF170  |  4294963568 |
|      46 | 0x4B440     |      308288 |
|      47 | 0x9503      |       38147 |
|      48 | 0xFFFFF158  |  4294963544 |
|      49 | 0x4B2E5     |      307941 |
|      50 | 0x93F6      |       37878 |
|      51 | 0xFFFFF204  |  4294963716 |
|      52 | 0x4AECE     |      306894 |
|      53 | 0x92EB      |       37611 |
|      54 | 0x4AAB3     |      305843 |
|      55 | 0x8F5E      |       36702 |
|      56 | 0x00F0      |         240 |
|      57 | 0x4AE37     |      306743 |
|      58 | 0x89D4      |       35284 |
|      59 | 0xFFFFF1F5  |  4294963701 |
|      60 | 0x005A      |          90 |
|      61 | 0x000A      |          10 |
|      62 | 0xFFFFC2DF  |  4294951647 |
|      63 | 0x14DAE     |       85422 |
|      64 | 0xFFFFEC79  |  4294962297 |
|      65 | 0xFFFFCA5B  |  4294953563 |
|      66 | 0x14A8F     |       84623 |
|      67 | 0x052F      |        1327 |
|      68 | 0x096F      |        2415 |
|      69 | 0x002D      |          45 |
|      70 | 0xFFFF9259  |  4294939225 |
|      71 | 0x151CA     |       86474 |
|      72 | 0xFFFFEC77  |  4294962295 |
|      73 | 0xFFFF913B  |  4294938939 |
|      74 | 0x15243     |       86595 |
|      75 | 0xFFFFEC72  |  4294962290 |
|      76 | 0xFFFF9223  |  4294939171 |
|      77 | 0x15152     |       86354 |
|      78 | 0xFFFFEC76  |  4294962294 |
|      79 | 0xFFFF779F  |  4294932383 |
|      80 | 0x17B11     |       97041 |
|      81 | 0xFFFFEC78  |  4294962296 |
|      82 | 0xFFFF7015  |  4294930453 |
|      83 | 0x188AE     |      100526 |
|      84 | 0xFFFF69F3  |  4294928883 |
|      85 | 0x19936     |      104758 |
|      86 | 0xFFFF676A  |  4294928234 |
|      87 | 0x1A3DB     |      107483 |
|      88 | 0xFFFF633B  |  4294927163 |
|      89 | 0x28E9B     |      167579 |
|      90 | 0xFFFFEC61  |  4294962273 |
|      91 | 0xFFFFC497  |  4294952087 |
|      92 | 0x14A26     |       84518 |
|      93 | 0x00D2      |         210 |
|      94 | 0x001E      |          30 |
|      95 | 0x0571      |        1393 |

## Events

### Event 65535

#### Metadata

| Field        | Value   |
|--------------|---------|
| Entrypoint   | 0x0000  |
| Data Size    | 1 bytes |
| Instructions | 1       |

```
      00 01 02 03 04 05 06 07  08 09 0A 0B 0C 0D 0E 0F
      -- -- -- -- -- -- -- --  -- -- -- -- -- -- -- --
0000: 00                                                .               
```

#### Opcodes

```
  0: 0x0000 [0x00] END_REQSTACK()
```

### Event 65535.1

#### Metadata

| Field        | Value   |
|--------------|---------|
| Entrypoint   | 0x0001  |
| Data Size    | 1 bytes |
| Instructions | 1       |

```
      00 01 02 03 04 05 06 07  08 09 0A 0B 0C 0D 0E 0F
      -- -- -- -- -- -- -- --  -- -- -- -- -- -- -- --
0000:    00                                              .              
```

#### Opcodes

```
  0: 0x0001 [0x00] END_REQSTACK()
```

### Event 65535.2

#### Metadata

| Field        | Value    |
|--------------|----------|
| Entrypoint   | 0x0002   |
| Data Size    | 18 bytes |
| Instructions | 4        |

```
      00 01 02 03 04 05 06 07  08 09 0A 0B 0C 0D 0E 0F
      -- -- -- -- -- -- -- --  -- -- -- -- -- -- -- --
0000:       22 00 2F 00 F8 FF  FF 7F 6C F8 FF FF 7F 00    "./.....l.....
0010: 80 01 80 00                                       ....            
```

#### Opcodes

```
  0: 0x0002 [0x22] ENTITY_HIDE_FLAG(enabled=0x00)
  1: 0x0004 [0x2F] EventEntity->Render.Flags0 &= ~0x80000 // Bit 19
  2: 0x000A [0x6C] FADE_ENTITY_COLOR(entity_id=EventEntity, end_alpha=0*, fade_time=1*)
  3: 0x0013 [0x00] END_REQSTACK()
```

### Event 65535.3

#### Metadata

| Field        | Value    |
|--------------|----------|
| Entrypoint   | 0x0014   |
| Data Size    | 10 bytes |
| Instructions | 2        |

```
      00 01 02 03 04 05 06 07  08 09 0A 0B 0C 0D 0E 0F
      -- -- -- -- -- -- -- --  -- -- -- -- -- -- -- --
0010:             6C F8 FF FF  7F 02 80 01 80 00            l.........  
```

#### Opcodes

```
  0: 0x0014 [0x6C] FADE_ENTITY_COLOR(entity_id=EventEntity, end_alpha=128*, fade_time=1*)
  1: 0x001D [0x00] END_REQSTACK()
```

### Event 65535.4

#### Metadata

| Field        | Value   |
|--------------|---------|
| Entrypoint   | 0x001E  |
| Data Size    | 9 bytes |
| Instructions | 3       |

```
      00 01 02 03 04 05 06 07  08 09 0A 0B 0C 0D 0E 0F
      -- -- -- -- -- -- -- --  -- -- -- -- -- -- -- --
0010:                                            22 00                ".
0020: 2F 00 F8 FF FF 7F 00                              /......         
```

#### Opcodes

```
  0: 0x001E [0x22] ENTITY_HIDE_FLAG(enabled=0x00)
  1: 0x0020 [0x2F] EventEntity->Render.Flags0 &= ~0x80000 // Bit 19
  2: 0x0026 [0x00] END_REQSTACK()
```

### Event 65535.5

#### Metadata

| Field        | Value   |
|--------------|---------|
| Entrypoint   | 0x0027  |
| Data Size    | 9 bytes |
| Instructions | 3       |

```
      00 01 02 03 04 05 06 07  08 09 0A 0B 0C 0D 0E 0F
      -- -- -- -- -- -- -- --  -- -- -- -- -- -- -- --
0020:                      22  01 2F 01 F8 FF FF 7F 00         "./......
```

#### Opcodes

```
  0: 0x0027 [0x22] ENTITY_HIDE_FLAG(enabled=0x01)
  1: 0x0029 [0x2F] EventEntity->Render.Flags0 |= 0x80000 // Bit 19
  2: 0x002F [0x00] END_REQSTACK()
```

### Event 65535.6

#### Metadata

| Field        | Value    |
|--------------|----------|
| Entrypoint   | 0x0030   |
| Data Size    | 10 bytes |
| Instructions | 2        |

```
      00 01 02 03 04 05 06 07  08 09 0A 0B 0C 0D 0E 0F
      -- -- -- -- -- -- -- --  -- -- -- -- -- -- -- --
0030: 6C F8 FF FF 7F 00 80 01  80 00                    l.........      
```

#### Opcodes

```
  0: 0x0030 [0x6C] FADE_ENTITY_COLOR(entity_id=EventEntity, end_alpha=0*, fade_time=1*)
  1: 0x0039 [0x00] END_REQSTACK()
```

### Event 65535.7

#### Metadata

| Field        | Value    |
|--------------|----------|
| Entrypoint   | 0x003A   |
| Data Size    | 10 bytes |
| Instructions | 2        |

```
      00 01 02 03 04 05 06 07  08 09 0A 0B 0C 0D 0E 0F
      -- -- -- -- -- -- -- --  -- -- -- -- -- -- -- --
0030:                                6C F8 FF FF 7F 02            l.....
0040: 80 01 80 00                                       ....            
```

#### Opcodes

```
  0: 0x003A [0x6C] FADE_ENTITY_COLOR(entity_id=EventEntity, end_alpha=128*, fade_time=1*)
  1: 0x0043 [0x00] END_REQSTACK()
```

### Event 25

#### Metadata

| Field        | Value   |
|--------------|---------|
| Entrypoint   | 0x0044  |
| Data Size    | 1 bytes |
| Instructions | 1       |

```
      00 01 02 03 04 05 06 07  08 09 0A 0B 0C 0D 0E 0F
      -- -- -- -- -- -- -- --  -- -- -- -- -- -- -- --
0040:             00                                        .           
```

#### Opcodes

```
  0: 0x0044 [0x00] END_REQSTACK()
```

### Event 65535.8

#### Metadata

| Field        | Value    |
|--------------|----------|
| Entrypoint   | 0x0045   |
| Data Size    | 10 bytes |
| Instructions | 2        |

```
      00 01 02 03 04 05 06 07  08 09 0A 0B 0C 0D 0E 0F
      -- -- -- -- -- -- -- --  -- -- -- -- -- -- -- --
0040:                6C F8 FF  FF 7F 00 80 01 80 00          l......... 
```

#### Opcodes

```
  0: 0x0045 [0x6C] FADE_ENTITY_COLOR(entity_id=EventEntity, end_alpha=0*, fade_time=1*)
  1: 0x004E [0x00] END_REQSTACK()
```

### Event 65535.9

#### Metadata

| Field        | Value    |
|--------------|----------|
| Entrypoint   | 0x004F   |
| Data Size    | 10 bytes |
| Instructions | 2        |

```
      00 01 02 03 04 05 06 07  08 09 0A 0B 0C 0D 0E 0F
      -- -- -- -- -- -- -- --  -- -- -- -- -- -- -- --
0040:                                               6C                 l
0050: F8 FF FF 7F 02 80 01 80  00                       .........       
```

#### Opcodes

```
  0: 0x004F [0x6C] FADE_ENTITY_COLOR(entity_id=EventEntity, end_alpha=128*, fade_time=1*)
  1: 0x0058 [0x00] END_REQSTACK()
```

### Event 65535.10

#### Metadata

| Field        | Value    |
|--------------|----------|
| Entrypoint   | 0x0059   |
| Data Size    | 30 bytes |
| Instructions | 7        |

```
      00 01 02 03 04 05 06 07  08 09 0A 0B 0C 0D 0E 0F
      -- -- -- -- -- -- -- --  -- -- -- -- -- -- -- --
0050:                             59 04 27 E2 05 01 03           Y.'....
0060: 80 1F 00 04 80 05 80 06  80 1F 01 1F 00 07 80 08  ................
0070: 80 06 80 1F 01 6F 00                              .....o.         
```

#### Opcodes

```
  0: 0x0059 [0x59] UPDATE_ENTITY_DATA: Set Unnamed NPC (ID: 17162791/0x0105E227) main speed = 38* * 0.1
  1: 0x0061 [0x1F] MOVE_ENTITY: EventEntity moves to X=-41.779*, Z=70.445*, Y=-3.500*
  2: 0x0069 [0x1F] MOVE_ENTITY: Update entity position (mode=1)
  3: 0x006B [0x1F] MOVE_ENTITY: EventEntity moves to X=-38.669*, Z=70.024*, Y=-3.500*
  4: 0x0073 [0x1F] MOVE_ENTITY: Update entity position (mode=1)
  5: 0x0075 [0x6F] WAIT_FRAME_DELAY: Yield until WaitTime reaches zero
  6: 0x0076 [0x00] END_REQSTACK()
```

### Event 65535.11

#### Metadata

| Field        | Value    |
|--------------|----------|
| Entrypoint   | 0x0077   |
| Data Size    | 22 bytes |
| Instructions | 2        |

```
      00 01 02 03 04 05 06 07  08 09 0A 0B 0C 0D 0E 0F
      -- -- -- -- -- -- -- --  -- -- -- -- -- -- -- --
0070:                      B6  0E 00 80 09 80 01 80 00         .........
0080: 80 00 80 00 80 01 80 80  F8 FF FF 7F 00           .............   
```

#### Opcodes

```
  0: 0x0077 [0xB6] ENTITY_APPEARANCE_HANDLER(case=Look with Render flags, race=0*, face=4*, head=1*, body=0*, hands=0*, render_flags=0x8000)
  1: 0x0085 [0x01] GOTO 0x8080
```

#### Data or dead code:

```
# Dead code (unreachable instructions):
     0x0088 [0xF8] UNKNOWN_0xF8
     0x0089 [0xFF] UNKNOWN_0xFF
     0x008A [0xFF] UNKNOWN_0xFF
     0x008B [0x7F] WAIT_DIALOG_SELECT_ALT()
     0x008C [0x00] END_REQSTACK()
```

### Event 65535.12

#### Metadata

| Field        | Value   |
|--------------|---------|
| Entrypoint   | 0x008D  |
| Data Size    | 9 bytes |
| Instructions | 5       |

```
      00 01 02 03 04 05 06 07  08 09 0A 0B 0C 0D 0E 0F
      -- -- -- -- -- -- -- --  -- -- -- -- -- -- -- --
0080:                                         4C 1C 0A               L..
0090: 80 4D 1C 0B 80 00                                 .M....          
```

#### Opcodes

```
  0: 0x008D [0x4C] EventEntity->StatusEvent = 8 // Open door
  1: 0x008E [0x1C] WAIT(360* ticks)
  2: 0x0091 [0x4D] EventEntity->StatusEvent = 9 // Close door
  3: 0x0092 [0x1C] WAIT(80* ticks)
  4: 0x0095 [0x00] END_REQSTACK()
```

### Event 65535.13

#### Metadata

| Field        | Value    |
|--------------|----------|
| Entrypoint   | 0x0096   |
| Data Size    | 13 bytes |
| Instructions | 3        |

```
      00 01 02 03 04 05 06 07  08 09 0A 0B 0C 0D 0E 0F
      -- -- -- -- -- -- -- --  -- -- -- -- -- -- -- --
0090:                   1C 0C  80 6C F8 FF FF 7F 00 80        ...l......
00A0: 0D 80 00                                          ...             
```

#### Opcodes

```
  0: 0x0096 [0x1C] WAIT(60* ticks)
  1: 0x0099 [0x6C] FADE_ENTITY_COLOR(entity_id=EventEntity, end_alpha=0*, fade_time=180*)
  2: 0x00A2 [0x00] END_REQSTACK()
```

### Event 65535.14

#### Metadata

| Field        | Value    |
|--------------|----------|
| Entrypoint   | 0x00A3   |
| Data Size    | 10 bytes |
| Instructions | 2        |

```
      00 01 02 03 04 05 06 07  08 09 0A 0B 0C 0D 0E 0F
      -- -- -- -- -- -- -- --  -- -- -- -- -- -- -- --
00A0:          6C F8 FF FF 7F  02 80 0C 80 00              l.........   
```

#### Opcodes

```
  0: 0x00A3 [0x6C] FADE_ENTITY_COLOR(entity_id=EventEntity, end_alpha=128*, fade_time=60*)
  1: 0x00AC [0x00] END_REQSTACK()
```

### Event 65535.15

#### Metadata

| Field        | Value   |
|--------------|---------|
| Entrypoint   | 0x00AD  |
| Data Size    | 5 bytes |
| Instructions | 2       |

```
      00 01 02 03 04 05 06 07  08 09 0A 0B 0C 0D 0E 0F
      -- -- -- -- -- -- -- --  -- -- -- -- -- -- -- --
00A0:                                         B6 00 0E               ...
00B0: 80 00                                             ..              
```

#### Opcodes

```
  0: 0x00AD [0xB6] ENTITY_APPEARANCE_HANDLER(case=Hair style, value=2346*)
  1: 0x00B1 [0x00] END_REQSTACK()
```

### Event 65535.16

#### Metadata

| Field        | Value   |
|--------------|---------|
| Entrypoint   | 0x00B2  |
| Data Size    | 5 bytes |
| Instructions | 2       |

```
      00 01 02 03 04 05 06 07  08 09 0A 0B 0C 0D 0E 0F
      -- -- -- -- -- -- -- --  -- -- -- -- -- -- -- --
00B0:       B6 00 0F 80 00                                .....         
```

#### Opcodes

```
  0: 0x00B2 [0xB6] ENTITY_APPEARANCE_HANDLER(case=Hair style, value=2250*)
  1: 0x00B6 [0x00] END_REQSTACK()
```

### Event 65535.17

#### Metadata

| Field        | Value    |
|--------------|----------|
| Entrypoint   | 0x00B7   |
| Data Size    | 21 bytes |
| Instructions | 2        |

```
      00 01 02 03 04 05 06 07  08 09 0A 0B 0C 0D 0E 0F
      -- -- -- -- -- -- -- --  -- -- -- -- -- -- -- --
00B0:                      B6  0B 10 80 11 80 12 80 13         .........
00C0: 80 0C 80 12 80 13 80 14  80 00 80 00              ............    
```

#### Opcodes

```
  0: 0x00B7 [0xB6] ENTITY_APPEARANCE_HANDLER(case=Full entity look, race=7*, hair=2*, head=164*, body=62*, hands=60*, legs=164*, feet=62*, main=216*, sub=0*)
  1: 0x00CB [0x00] END_REQSTACK()
```

### Event 65535.18

#### Metadata

| Field        | Value    |
|--------------|----------|
| Entrypoint   | 0x00CC   |
| Data Size    | 30 bytes |
| Instructions | 6        |

```
      00 01 02 03 04 05 06 07  08 09 0A 0B 0C 0D 0E 0F
      -- -- -- -- -- -- -- --  -- -- -- -- -- -- -- --
00C0:                                      59 04 F8 FF              Y...
00D0: FF 7F 15 80 1F 00 16 80  17 80 18 80 1F 01 6F 79  ..............oy
00E0: 00 F8 FF FF 7F F0 FF FF  7F 00                    ..........      
```

#### Opcodes

```
  0: 0x00CC [0x59] UPDATE_ENTITY_DATA: Set EventEntity main speed = 13* * 0.1
  1: 0x00D4 [0x1F] MOVE_ENTITY: EventEntity moves to X=1.673*, Z=47.546*, Y=-1.000*
  2: 0x00DC [0x1F] MOVE_ENTITY: Update entity position (mode=1)
  3: 0x00DE [0x6F] WAIT_FRAME_DELAY: Yield until WaitTime reaches zero
  4: 0x00DF [0x79] EventEntity looks at LocalPlayer (Basic look)
  5: 0x00E9 [0x00] END_REQSTACK()
```

### Event 65535.19

#### Metadata

| Field        | Value    |
|--------------|----------|
| Entrypoint   | 0x00EA   |
| Data Size    | 54 bytes |
| Instructions | 10       |

```
      00 01 02 03 04 05 06 07  08 09 0A 0B 0C 0D 0E 0F
      -- -- -- -- -- -- -- --  -- -- -- -- -- -- -- --
00E0:                                06 09 10 1C 19 80            ......
00F0: 79 00 08 E2 05 01 F0 FF  FF 7F 79 00 07 E2 05 01  y.........y.....
0100: F0 FF FF 7F 1C 0C 80 79  00 F0 FF FF 7F 08 E2 05  .......y........
0110: 01 1C 1A 80 59 03 F0 FF  FF 7F 1B 80 05 09 10 00  ....Y...........
```

#### Opcodes

```
  0: 0x00EA [0x06] Work_Zone[9] = 0
  1: 0x00ED [0x1C] WAIT(300* ticks)
  2: 0x00F0 [0x79] Romaa Mihgo (ID: 17162760/0x0105E208) looks at LocalPlayer (Basic look)
  3: 0x00FA [0x79] Perih Vashai (ID: 17162759/0x0105E207) looks at LocalPlayer (Basic look)
  4: 0x0104 [0x1C] WAIT(60* ticks)
  5: 0x0107 [0x79] LocalPlayer looks at Romaa Mihgo (ID: 17162760/0x0105E208) (Basic look)
  6: 0x0111 [0x1C] WAIT(120* ticks)
  7: 0x0114 [0x59] UPDATE_ENTITY_DATA: Set LocalPlayer turn speed head = 250*
  8: 0x011C [0x05] Work_Zone[9] = 1
  9: 0x011F [0x00] END_REQSTACK()
```

### Event 65535.20

#### Metadata

| Field        | Value    |
|--------------|----------|
| Entrypoint   | 0x0120   |
| Data Size    | 22 bytes |
| Instructions | 2        |

```
      00 01 02 03 04 05 06 07  08 09 0A 0B 0C 0D 0E 0F
      -- -- -- -- -- -- -- --  -- -- -- -- -- -- -- --
0120: B6 0E 00 80 00 80 00 80  00 80 00 80 00 80 01 80  ................
0130: 80 F8 FF FF 7F 00                                 ......          
```

#### Opcodes

```
  0: 0x0120 [0xB6] ENTITY_APPEARANCE_HANDLER(case=Look with Render flags, race=0*, face=0*, head=0*, body=0*, hands=0*, render_flags=0x8000)
  1: 0x012E [0x01] GOTO 0x8080
```

#### Data or dead code:

```
# Dead code (unreachable instructions):
     0x0131 [0xF8] UNKNOWN_0xF8
     0x0132 [0xFF] UNKNOWN_0xFF
     0x0133 [0xFF] UNKNOWN_0xFF
     0x0134 [0x7F] WAIT_DIALOG_SELECT_ALT()
     0x0135 [0x00] END_REQSTACK()
```

### Event 65535.21

#### Metadata

| Field        | Value    |
|--------------|----------|
| Entrypoint   | 0x0136   |
| Data Size    | 59 bytes |
| Instructions | 12       |

```
      00 01 02 03 04 05 06 07  08 09 0A 0B 0C 0D 0E 0F
      -- -- -- -- -- -- -- --  -- -- -- -- -- -- -- --
0130:                   59 04  F8 FF FF 7F 1C 80 1F 00        Y.........
0140: 1D 80 1E 80 06 80 1F 01  1F 00 1F 80 20 80 06 80  ............ ...
0150: 1F 01 1F 00 21 80 22 80  06 80 1F 01 1F 00 23 80  ....!.".......#.
0160: 24 80 06 80 1F 01 6F 4A  F8 FF FF 7F 00 E3 05 01  $.....oJ........
0170: 00                                                .               
```

#### Opcodes

```
  0: 0x0136 [0x59] UPDATE_ENTITY_DATA: Set EventEntity main speed = 11* * 0.1
  1: 0x013E [0x1F] MOVE_ENTITY: EventEntity moves to X=305.946*, Z=39.219*, Y=-3.500*
  2: 0x0146 [0x1F] MOVE_ENTITY: Update entity position (mode=1)
  3: 0x0148 [0x1F] MOVE_ENTITY: EventEntity moves to X=305.425*, Z=40.893*, Y=-3.500*
  4: 0x0150 [0x1F] MOVE_ENTITY: Update entity position (mode=1)
  5: 0x0152 [0x1F] MOVE_ENTITY: EventEntity moves to X=306.760*, Z=42.864*, Y=-3.500*
  6: 0x015A [0x1F] MOVE_ENTITY: Update entity position (mode=1)
  7: 0x015C [0x1F] MOVE_ENTITY: EventEntity moves to X=306.465*, Z=43.464*, Y=-3.500*
  8: 0x0164 [0x1F] MOVE_ENTITY: Update entity position (mode=1)
  9: 0x0166 [0x6F] WAIT_FRAME_DELAY: Yield until WaitTime reaches zero
 10: 0x0167 [0x4A] EventEntity looks at 03 (ID: 17163008/0x0105E300)
 11: 0x0170 [0x00] END_REQSTACK()
```

### Event 65535.22

#### Metadata

| Field        | Value     |
|--------------|-----------|
| Entrypoint   | 0x0171    |
| Data Size    | 165 bytes |
| Instructions | 34        |

```
      00 01 02 03 04 05 06 07  08 09 0A 0B 0C 0D 0E 0F
      -- -- -- -- -- -- -- --  -- -- -- -- -- -- -- --
0170:    59 04 F8 FF FF 7F 25  80 1F 00 26 80 27 80 06   Y.....%...&.'..
0180: 80 1F 01 1F 00 28 80 29  80 2A 80 1F 01 1F 00 2B  .....(.).*.....+
0190: 80 2C 80 2D 80 1F 01 1F  00 2E 80 2F 80 30 80 1F  .,.-......./.0..
01A0: 01 1F 00 31 80 32 80 33  80 1F 01 1F 00 34 80 35  ...1.2.3.....4.5
01B0: 80 06 80 1F 01 1F 00 36  80 37 80 06 80 1F 01 6F  .......6.7.....o
01C0: 4A F8 FF FF 7F 01 E3 05  01 1C 1A 80 4A F8 FF FF  J...........J...
01D0: 7F 04 E3 05 01 1C 38 80  1F 00 34 80 35 80 06 80  ......8...4.5...
01E0: 1F 01 1F 00 31 80 32 80  33 80 1F 01 1F 00 2E 80  ....1.2.3.......
01F0: 2F 80 30 80 1F 01 1F 00  2B 80 2C 80 2D 80 1F 01  /.0.....+.,.-...
0200: 1F 00 28 80 29 80 2A 80  1F 01 1F 00 26 80 27 80  ..(.).*.....&.'.
0210: 06 80 1F 01 6F 00                                 ....o.          
```

#### Opcodes

```
  0: 0x0171 [0x59] UPDATE_ENTITY_DATA: Set EventEntity main speed = 16* * 0.1
  1: 0x0179 [0x1F] MOVE_ENTITY: EventEntity moves to X=307.350*, Z=42.258*, Y=-3.500*
  2: 0x0181 [0x1F] MOVE_ENTITY: Update entity position (mode=1)
  3: 0x0183 [0x1F] MOVE_ENTITY: EventEntity moves to X=307.943*, Z=41.017*, Y=-3.571*
  4: 0x018B [0x1F] MOVE_ENTITY: Update entity position (mode=1)
  5: 0x018D [0x1F] MOVE_ENTITY: EventEntity moves to X=308.248*, Z=39.611*, Y=-3.728*
  6: 0x0195 [0x1F] MOVE_ENTITY: Update entity position (mode=1)
  7: 0x0197 [0x1F] MOVE_ENTITY: EventEntity moves to X=308.288*, Z=38.147*, Y=-3.752*
  8: 0x019F [0x1F] MOVE_ENTITY: Update entity position (mode=1)
  9: 0x01A1 [0x1F] MOVE_ENTITY: EventEntity moves to X=307.941*, Z=37.878*, Y=-3.580*
 10: 0x01A9 [0x1F] MOVE_ENTITY: Update entity position (mode=1)
 11: 0x01AB [0x1F] MOVE_ENTITY: EventEntity moves to X=306.894*, Z=37.611*, Y=-3.500*
 12: 0x01B3 [0x1F] MOVE_ENTITY: Update entity position (mode=1)
 13: 0x01B5 [0x1F] MOVE_ENTITY: EventEntity moves to X=305.843*, Z=36.702*, Y=-3.500*
 14: 0x01BD [0x1F] MOVE_ENTITY: Update entity position (mode=1)
 15: 0x01BF [0x6F] WAIT_FRAME_DELAY: Yield until WaitTime reaches zero
 16: 0x01C0 [0x4A] EventEntity looks at 04 (ID: 17163009/0x0105E301)
 17: 0x01C9 [0x1C] WAIT(120* ticks)
 18: 0x01CC [0x4A] EventEntity looks at Koh Lenbalalako (ID: 17163012/0x0105E304)
 19: 0x01D5 [0x1C] WAIT(240* ticks)
 20: 0x01D8 [0x1F] MOVE_ENTITY: EventEntity moves to X=306.894*, Z=37.611*, Y=-3.500*
 21: 0x01E0 [0x1F] MOVE_ENTITY: Update entity position (mode=1)
 22: 0x01E2 [0x1F] MOVE_ENTITY: EventEntity moves to X=307.941*, Z=37.878*, Y=-3.580*
 23: 0x01EA [0x1F] MOVE_ENTITY: Update entity position (mode=1)
 24: 0x01EC [0x1F] MOVE_ENTITY: EventEntity moves to X=308.288*, Z=38.147*, Y=-3.752*
 25: 0x01F4 [0x1F] MOVE_ENTITY: Update entity position (mode=1)
 26: 0x01F6 [0x1F] MOVE_ENTITY: EventEntity moves to X=308.248*, Z=39.611*, Y=-3.728*
 27: 0x01FE [0x1F] MOVE_ENTITY: Update entity position (mode=1)
 28: 0x0200 [0x1F] MOVE_ENTITY: EventEntity moves to X=307.943*, Z=41.017*, Y=-3.571*
 29: 0x0208 [0x1F] MOVE_ENTITY: Update entity position (mode=1)
 30: 0x020A [0x1F] MOVE_ENTITY: EventEntity moves to X=307.350*, Z=42.258*, Y=-3.500*
 31: 0x0212 [0x1F] MOVE_ENTITY: Update entity position (mode=1)
 32: 0x0214 [0x6F] WAIT_FRAME_DELAY: Yield until WaitTime reaches zero
 33: 0x0215 [0x00] END_REQSTACK()
```

### Event 65535.23

#### Metadata

| Field        | Value    |
|--------------|----------|
| Entrypoint   | 0x0216   |
| Data Size    | 12 bytes |
| Instructions | 4        |

```
      00 01 02 03 04 05 06 07  08 09 0A 0B 0C 0D 0E 0F
      -- -- -- -- -- -- -- --  -- -- -- -- -- -- -- --
0210:                   1F 00  39 80 3A 80 3B 80 1F 01        ..9.:.;...
0220: 6F 00                                             o.              
```

#### Opcodes

```
  0: 0x0216 [0x1F] MOVE_ENTITY: EventEntity moves to X=306.743*, Z=35.284*, Y=-3.595*
  1: 0x021E [0x1F] MOVE_ENTITY: Update entity position (mode=1)
  2: 0x0220 [0x6F] WAIT_FRAME_DELAY: Yield until WaitTime reaches zero
  3: 0x0221 [0x00] END_REQSTACK()
```

### Event 65535.24

#### Metadata

| Field        | Value    |
|--------------|----------|
| Entrypoint   | 0x0222   |
| Data Size    | 38 bytes |
| Instructions | 7        |

```
      00 01 02 03 04 05 06 07  08 09 0A 0B 0C 0D 0E 0F
      -- -- -- -- -- -- -- --  -- -- -- -- -- -- -- --
0220:       6E 04 E3 05 01 10  80 99 04 E3 05 01 1C 3C    n............<
0230: 80 79 00 04 E3 05 01 03  E3 05 01 6E 04 E3 05 01  .y.........n....
0240: 3D 80 99 04 E3 05 01 00                           =.......        
```

#### Opcodes

```
  0: 0x0222 [0x6E] Koh Lenbalalako (ID: 17163012/0x0105E304) uses emote 7*
  1: 0x0229 [0x99] Wait for Koh Lenbalalako (ID: 17163012/0x0105E304) animation to complete
  2: 0x022E [0x1C] WAIT(90* ticks)
  3: 0x0231 [0x79] Koh Lenbalalako (ID: 17163012/0x0105E304) looks at Syu Befrathi (ID: 17163011/0x0105E303) (Basic look)
  4: 0x023B [0x6E] Koh Lenbalalako (ID: 17163012/0x0105E304) uses emote 10*
  5: 0x0242 [0x99] Wait for Koh Lenbalalako (ID: 17163012/0x0105E304) animation to complete
  6: 0x0247 [0x00] END_REQSTACK()
```

### Event 65535.25

#### Metadata

| Field        | Value    |
|--------------|----------|
| Entrypoint   | 0x0248   |
| Data Size    | 29 bytes |
| Instructions | 6        |

```
      00 01 02 03 04 05 06 07  08 09 0A 0B 0C 0D 0E 0F
      -- -- -- -- -- -- -- --  -- -- -- -- -- -- -- --
0240:                          59 04 F8 FF FF 7F 15 80          Y.......
0250: 1F 00 3E 80 3F 80 40 80  1F 01 6F 4A F8 FF FF 7F  ..>.?.@...oJ....
0260: 4E E2 05 01 00                                    N....           
```

#### Opcodes

```
  0: 0x0248 [0x59] UPDATE_ENTITY_DATA: Set EventEntity main speed = 13* * 0.1
  1: 0x0250 [0x1F] MOVE_ENTITY: EventEntity moves to X=-15.649*, Z=85.422*, Y=-4.999*
  2: 0x0258 [0x1F] MOVE_ENTITY: Update entity position (mode=1)
  3: 0x025A [0x6F] WAIT_FRAME_DELAY: Yield until WaitTime reaches zero
  4: 0x025B [0x4A] EventEntity looks at Shikaree G (ID: 17162830/0x0105E24E)
  5: 0x0264 [0x00] END_REQSTACK()
```

### Event 65535.26

#### Metadata

| Field        | Value    |
|--------------|----------|
| Entrypoint   | 0x0265   |
| Data Size    | 44 bytes |
| Instructions | 7        |

```
      00 01 02 03 04 05 06 07  08 09 0A 0B 0C 0D 0E 0F
      -- -- -- -- -- -- -- --  -- -- -- -- -- -- -- --
0260:                59 04 F8  FF FF 7F 15 80 1F 00 41       Y.........A
0270: 80 42 80 40 80 1F 01 6F  4A F8 FF FF 7F 4E E2 05  .B.@...oJ....N..
0280: 01 5B 43 80 08 E2 05 01  08 E2 05 01 73 74 61 30  .[C.........sta0
0290: 00                                                .               
```

#### Opcodes

```
  0: 0x0265 [0x59] UPDATE_ENTITY_DATA: Set EventEntity main speed = 13* * 0.1
  1: 0x026D [0x1F] MOVE_ENTITY: EventEntity moves to X=-13.733*, Z=84.623*, Y=-4.999*
  2: 0x0275 [0x1F] MOVE_ENTITY: Update entity position (mode=1)
  3: 0x0277 [0x6F] WAIT_FRAME_DELAY: Yield until WaitTime reaches zero
  4: 0x0278 [0x4A] EventEntity looks at Shikaree G (ID: 17162830/0x0105E24E)
  5: 0x0281 [0x5B] LOAD_EXT_SCHEDULER: Load scheduler "sta0" with entities [Romaa Mihgo (ID: 17162760/0x0105E208), Romaa Mihgo (ID: 17162760/0x0105E208)], work=1327*
  6: 0x0290 [0x00] END_REQSTACK()
```

### Event 65535.27

#### Metadata

| Field        | Value    |
|--------------|----------|
| Entrypoint   | 0x0291   |
| Data Size    | 40 bytes |
| Instructions | 5        |

```
      00 01 02 03 04 05 06 07  08 09 0A 0B 0C 0D 0E 0F
      -- -- -- -- -- -- -- --  -- -- -- -- -- -- -- --
0290:    5B 44 80 08 E2 05 01  08 E2 05 01 64 6B 69 30   [D.........dki0
02A0: 1C 45 80 7C 00 F8 FF FF  7F 5B 44 80 08 E2 05 01  .E.|.....[D.....
02B0: 08 E2 05 01 64 6B 69 31  00                       ....dki1.       
```

#### Opcodes

```
  0: 0x0291 [0x5B] LOAD_EXT_SCHEDULER: Load scheduler "dki0" with entities [Romaa Mihgo (ID: 17162760/0x0105E208), Romaa Mihgo (ID: 17162760/0x0105E208)], work=2415*
  1: 0x02A0 [0x1C] WAIT(45* ticks)
  2: 0x02A3 [0x7C] EventEntity->Render.Flags2 |= 0x00
  3: 0x02A9 [0x5B] LOAD_EXT_SCHEDULER: Load scheduler "dki1" with entities [Romaa Mihgo (ID: 17162760/0x0105E208), Romaa Mihgo (ID: 17162760/0x0105E208)], work=2415*
  4: 0x02B8 [0x00] END_REQSTACK()
```

### Event 65535.28

#### Metadata

| Field        | Value    |
|--------------|----------|
| Entrypoint   | 0x02B9   |
| Data Size    | 30 bytes |
| Instructions | 7        |

```
      00 01 02 03 04 05 06 07  08 09 0A 0B 0C 0D 0E 0F
      -- -- -- -- -- -- -- --  -- -- -- -- -- -- -- --
02B0:                             59 04 F8 FF FF 7F 3D           Y.....=
02C0: 80 1F 00 46 80 47 80 48  80 1F 01 1F 00 49 80 4A  ...F.G.H.....I.J
02D0: 80 4B 80 1F 01 6F 00                              .K...o.         
```

#### Opcodes

```
  0: 0x02B9 [0x59] UPDATE_ENTITY_DATA: Set EventEntity main speed = 10* * 0.1
  1: 0x02C1 [0x1F] MOVE_ENTITY: EventEntity moves to X=-28.071*, Z=86.474*, Y=-5.001*
  2: 0x02C9 [0x1F] MOVE_ENTITY: Update entity position (mode=1)
  3: 0x02CB [0x1F] MOVE_ENTITY: EventEntity moves to X=-28.357*, Z=86.595*, Y=-5.006*
  4: 0x02D3 [0x1F] MOVE_ENTITY: Update entity position (mode=1)
  5: 0x02D5 [0x6F] WAIT_FRAME_DELAY: Yield until WaitTime reaches zero
  6: 0x02D6 [0x00] END_REQSTACK()
```

### Event 65535.29

#### Metadata

| Field        | Value    |
|--------------|----------|
| Entrypoint   | 0x02D7   |
| Data Size    | 22 bytes |
| Instructions | 5        |

```
      00 01 02 03 04 05 06 07  08 09 0A 0B 0C 0D 0E 0F
      -- -- -- -- -- -- -- --  -- -- -- -- -- -- -- --
02D0:                      1F  00 4C 80 4D 80 4E 80 1F         ..L.M.N..
02E0: 01 6F 79 00 4E E2 05 01  07 E2 05 01 00           .oy.N........   
```

#### Opcodes

```
  0: 0x02D7 [0x1F] MOVE_ENTITY: EventEntity moves to X=-28.125*, Z=86.354*, Y=-5.002*
  1: 0x02DF [0x1F] MOVE_ENTITY: Update entity position (mode=1)
  2: 0x02E1 [0x6F] WAIT_FRAME_DELAY: Yield until WaitTime reaches zero
  3: 0x02E2 [0x79] Shikaree G (ID: 17162830/0x0105E24E) looks at Perih Vashai (ID: 17162759/0x0105E207) (Basic look)
  4: 0x02EC [0x00] END_REQSTACK()
```

### Event 65535.30

#### Metadata

| Field        | Value    |
|--------------|----------|
| Entrypoint   | 0x02ED   |
| Data Size    | 12 bytes |
| Instructions | 4        |

```
      00 01 02 03 04 05 06 07  08 09 0A 0B 0C 0D 0E 0F
      -- -- -- -- -- -- -- --  -- -- -- -- -- -- -- --
02E0:                                         1F 00 49               ..I
02F0: 80 4A 80 4B 80 1F 01 6F  00                       .J.K...o.       
```

#### Opcodes

```
  0: 0x02ED [0x1F] MOVE_ENTITY: EventEntity moves to X=-28.357*, Z=86.595*, Y=-5.006*
  1: 0x02F5 [0x1F] MOVE_ENTITY: Update entity position (mode=1)
  2: 0x02F7 [0x6F] WAIT_FRAME_DELAY: Yield until WaitTime reaches zero
  3: 0x02F8 [0x00] END_REQSTACK()
```

### Event 65535.31

#### Metadata

| Field        | Value    |
|--------------|----------|
| Entrypoint   | 0x02F9   |
| Data Size    | 60 bytes |
| Instructions | 13       |

```
      00 01 02 03 04 05 06 07  08 09 0A 0B 0C 0D 0E 0F
      -- -- -- -- -- -- -- --  -- -- -- -- -- -- -- --
02F0:                             59 04 F8 FF FF 7F 15           Y......
0300: 80 1F 00 4F 80 50 80 51  80 1F 01 1F 00 52 80 53  ...O.P.Q.....R.S
0310: 80 51 80 1F 01 1F 00 54  80 55 80 51 80 1F 01 1F  .Q.....T.U.Q....
0320: 00 56 80 57 80 51 80 1F  01 1F 00 58 80 59 80 5A  .V.W.Q.....X.Y.Z
0330: 80 1F 01 6F 00                                    ...o.           
```

#### Opcodes

```
  0: 0x02F9 [0x59] UPDATE_ENTITY_DATA: Set EventEntity main speed = 13* * 0.1
  1: 0x0301 [0x1F] MOVE_ENTITY: EventEntity moves to X=-34.913*, Z=97.041*, Y=-5.000*
  2: 0x0309 [0x1F] MOVE_ENTITY: Update entity position (mode=1)
  3: 0x030B [0x1F] MOVE_ENTITY: EventEntity moves to X=-36.843*, Z=100.526*, Y=-5.000*
  4: 0x0313 [0x1F] MOVE_ENTITY: Update entity position (mode=1)
  5: 0x0315 [0x1F] MOVE_ENTITY: EventEntity moves to X=-38.413*, Z=104.758*, Y=-5.000*
  6: 0x031D [0x1F] MOVE_ENTITY: Update entity position (mode=1)
  7: 0x031F [0x1F] MOVE_ENTITY: EventEntity moves to X=-39.062*, Z=107.483*, Y=-5.000*
  8: 0x0327 [0x1F] MOVE_ENTITY: Update entity position (mode=1)
  9: 0x0329 [0x1F] MOVE_ENTITY: EventEntity moves to X=-40.133*, Z=167.579*, Y=-5.023*
 10: 0x0331 [0x1F] MOVE_ENTITY: Update entity position (mode=1)
 11: 0x0333 [0x6F] WAIT_FRAME_DELAY: Yield until WaitTime reaches zero
 12: 0x0334 [0x00] END_REQSTACK()
```

### Event 65535.32

#### Metadata

| Field        | Value    |
|--------------|----------|
| Entrypoint   | 0x0335   |
| Data Size    | 21 bytes |
| Instructions | 5        |

```
      00 01 02 03 04 05 06 07  08 09 0A 0B 0C 0D 0E 0F
      -- -- -- -- -- -- -- --  -- -- -- -- -- -- -- --
0330:                1F 00 5B  80 5C 80 40 80 1F 01 6F       ..[.\.@...o
0340: 4A 08 E2 05 01 07 E2 05  01 00                    J.........      
```

#### Opcodes

```
  0: 0x0335 [0x1F] MOVE_ENTITY: EventEntity moves to X=-15.209*, Z=84.518*, Y=-4.999*
  1: 0x033D [0x1F] MOVE_ENTITY: Update entity position (mode=1)
  2: 0x033F [0x6F] WAIT_FRAME_DELAY: Yield until WaitTime reaches zero
  3: 0x0340 [0x4A] Romaa Mihgo (ID: 17162760/0x0105E208) looks at Perih Vashai (ID: 17162759/0x0105E207)
  4: 0x0349 [0x00] END_REQSTACK()
```

### Event 65535.33

#### Metadata

| Field        | Value    |
|--------------|----------|
| Entrypoint   | 0x034A   |
| Data Size    | 87 bytes |
| Instructions | 13       |

```
      00 01 02 03 04 05 06 07  08 09 0A 0B 0C 0D 0E 0F
      -- -- -- -- -- -- -- --  -- -- -- -- -- -- -- --
0340:                                03 09 10 5D 80 14            ...]..
0350: 09 10 1C 80 3A F8 FF FF  7F 08 10 07 08 10 09 10  ....:...........
0360: 4B F8 FF FF 7F 08 10 6F  76 F8 FF FF 7F 7B 07 E2  K......ov....{..
0370: 05 01 1C 5E 80 5B 5F 80  07 E2 05 01 07 E2 05 01  ...^.[_.........
0380: 70 75 70 30 53 07 E2 05  01 07 E2 05 01 70 75 70  pup0S........pup
0390: 30 5B 5F 80 07 E2 05 01  07 E2 05 01 70 75 70 6C  0[_.........pupl
03A0: 00                                                .               
```

#### Opcodes

```
  0: 0x034A [0x03] Work_Zone[9] = 210*
  1: 0x034F [0x14] Work_Zone[9] *= 11*
  2: 0x0354 [0x3A] CONVERT_YAW_TO_BYTE(entity=EventEntity, result_destination=Work_Zone[8])
  3: 0x035B [0x07] Work_Zone[8] += Work_Zone[9]
  4: 0x0360 [0x4B] UPDATE_ENTITY_YAW(entity=EventEntity, yaw=Work_Zone[8])
  5: 0x0367 [0x6F] WAIT_FRAME_DELAY: Yield until WaitTime reaches zero
  6: 0x0368 [0x76] CHECK_ENTITY_RENDER_FLAGS: Wait until EventEntity Render.Flags0 and Render.Flags3 conditions are met
  7: 0x036D [0x7B] Perih Vashai (ID: 17162759/0x0105E207) stops talking
  8: 0x0372 [0x1C] WAIT(30* ticks)
  9: 0x0375 [0x5B] LOAD_EXT_SCHEDULER: Load scheduler "pup0" with entities [Perih Vashai (ID: 17162759/0x0105E207), Perih Vashai (ID: 17162759/0x0105E207)], work=1393*
 10: 0x0384 [0x53] WAIT_SCHEDULER_TASK: Wait for scheduler "pup0" with entities [Perih Vashai (ID: 17162759/0x0105E207), Perih Vashai (ID: 17162759/0x0105E207)]
 11: 0x0391 [0x5B] LOAD_EXT_SCHEDULER: Load scheduler "pupl" with entities [Perih Vashai (ID: 17162759/0x0105E207), Perih Vashai (ID: 17162759/0x0105E207)], work=1393*
 12: 0x03A0 [0x00] END_REQSTACK()
```

### Event 65535.34

#### Metadata

| Field        | Value    |
|--------------|----------|
| Entrypoint   | 0x03A1   |
| Data Size    | 22 bytes |
| Instructions | 2        |

```
      00 01 02 03 04 05 06 07  08 09 0A 0B 0C 0D 0E 0F
      -- -- -- -- -- -- -- --  -- -- -- -- -- -- -- --
03A0:    B6 0E 00 80 00 80 00  80 01 80 01 80 01 80 01   ...............
03B0: 80 80 F8 FF FF 7F 00                              .......         
```

#### Opcodes

```
  0: 0x03A1 [0xB6] ENTITY_APPEARANCE_HANDLER(case=Look with Render flags, race=0*, face=0*, head=0*, body=1*, hands=1*, render_flags=0x8001)
  1: 0x03AF [0x01] GOTO 0x8080
```

#### Data or dead code:

```
# Dead code (unreachable instructions):
     0x03B2 [0xF8] UNKNOWN_0xF8
     0x03B3 [0xFF] UNKNOWN_0xFF
     0x03B4 [0xFF] UNKNOWN_0xFF
     0x03B5 [0x7F] WAIT_DIALOG_SELECT_ALT()
     0x03B6 [0x00] END_REQSTACK()
```

### Event 65535.35

#### Metadata

| Field        | Value    |
|--------------|----------|
| Entrypoint   | 0x03B7   |
| Data Size    | 22 bytes |
| Instructions | 2        |

```
      00 01 02 03 04 05 06 07  08 09 0A 0B 0C 0D 0E 0F
      -- -- -- -- -- -- -- --  -- -- -- -- -- -- -- --
03B0:                      B6  0E 00 80 09 80 00 80 01         .........
03C0: 80 01 80 01 80 01 80 80  F8 FF FF 7F 00           .............   
```

#### Opcodes

```
  0: 0x03B7 [0xB6] ENTITY_APPEARANCE_HANDLER(case=Look with Render flags, race=0*, face=4*, head=0*, body=1*, hands=1*, render_flags=0x8001)
  1: 0x03C5 [0x01] GOTO 0x8080
```

#### Data or dead code:

```
# Dead code (unreachable instructions):
     0x03C8 [0xF8] UNKNOWN_0xF8
     0x03C9 [0xFF] UNKNOWN_0xFF
     0x03CA [0xFF] UNKNOWN_0xFF
     0x03CB [0x7F] WAIT_DIALOG_SELECT_ALT()
     0x03CC [0x00] END_REQSTACK()
```

### Event 22

#### Metadata

| Field        | Value   |
|--------------|---------|
| Entrypoint   | 0x03CD  |
| Data Size    | 1 bytes |
| Instructions | 1       |

```
      00 01 02 03 04 05 06 07  08 09 0A 0B 0C 0D 0E 0F
      -- -- -- -- -- -- -- --  -- -- -- -- -- -- -- --
03C0:                                         00                     .  
```

#### Opcodes

```
  0: 0x03CD [0x00] END_REQSTACK()
```
