# 17162830 - Shikaree G

## Common Data

| Field            | Value                        |
|------------------|------------------------------|
| Zone             | Windurst Waters [S] (ID: 94) |
| Block Size       | 2056 bytes                   |
| Total Events     | 55                           |
| References Count | 130                          |

## List of Events

| Event ID                   | Entrypoint   |   Size |   Instructions |
|----------------------------|--------------|--------|----------------|
| [65535](#event-65535)      | 0x0000       |      1 |              1 |
| [168](#event-168)          | 0x0001       |      1 |              1 |
| [65535.1](#event-655351)   | 0x0002       |     30 |              7 |
| [65535.2](#event-655352)   | 0x0020       |     22 |              5 |
| [65535.3](#event-655353)   | 0x0036       |      9 |              5 |
| [65535.4](#event-655354)   | 0x003F       |     13 |              3 |
| [65535.5](#event-655355)   | 0x004C       |     10 |              2 |
| [65535.6](#event-655356)   | 0x0056       |      5 |              2 |
| [65535.7](#event-655357)   | 0x005B       |      5 |              2 |
| [65535.8](#event-655358)   | 0x0060       |     21 |              2 |
| [65535.9](#event-655359)   | 0x0075       |     30 |              6 |
| [65535.10](#event-6553510) | 0x0093       |     54 |             10 |
| [65535.11](#event-6553511) | 0x00C9       |     22 |              5 |
| [65535.12](#event-6553512) | 0x00DF       |     59 |             12 |
| [65535.13](#event-6553513) | 0x011A       |    165 |             34 |
| [65535.14](#event-6553514) | 0x01BF       |     12 |              4 |
| [65535.15](#event-6553515) | 0x01CB       |     38 |              7 |
| [65535.16](#event-6553516) | 0x01F1       |     29 |              6 |
| [65535.17](#event-6553517) | 0x020E       |     44 |              7 |
| [65535.18](#event-6553518) | 0x023A       |     40 |              5 |
| [65535.19](#event-6553519) | 0x0262       |     30 |              7 |
| [65535.20](#event-6553520) | 0x0280       |     22 |              5 |
| [65535.21](#event-6553521) | 0x0296       |     12 |              4 |
| [65535.22](#event-6553522) | 0x02A2       |     60 |             13 |
| [65535.23](#event-6553523) | 0x02DE       |     21 |              5 |
| [65535.24](#event-6553524) | 0x02F3       |     87 |             13 |
| [65535.25](#event-6553525) | 0x034A       |     22 |              5 |
| [65535.26](#event-6553526) | 0x0360       |     22 |              5 |
| [22](#event-22)            | 0x0376       |      1 |              1 |
| [25](#event-25)            | 0x0377       |      1 |              1 |
| [65535.27](#event-6553527) | 0x0378       |      1 |              1 |
| [65535.28](#event-6553528) | 0x0379       |     18 |              4 |
| [65535.29](#event-6553529) | 0x038B       |     10 |              2 |
| [65535.30](#event-6553530) | 0x0395       |      9 |              3 |
| [65535.31](#event-6553531) | 0x039E       |      9 |              3 |
| [65535.32](#event-6553532) | 0x03A7       |     10 |              2 |
| [65535.33](#event-6553533) | 0x03B1       |     10 |              2 |
| [65535.34](#event-6553534) | 0x03BB       |     31 |              7 |
| [65535.35](#event-6553535) | 0x03DA       |     23 |              5 |
| [65535.36](#event-6553536) | 0x03F1       |     34 |              7 |
| [65535.37](#event-6553537) | 0x0413       |     32 |              7 |
| [65535.38](#event-6553538) | 0x0433       |     32 |              7 |
| [65535.39](#event-6553539) | 0x0453       |     42 |              9 |
| [65535.40](#event-6553540) | 0x047D       |     10 |              2 |
| [65535.41](#event-6553541) | 0x0487       |     10 |              2 |
| [65535.42](#event-6553542) | 0x0491       |     10 |              2 |
| [65535.43](#event-6553543) | 0x049B       |     10 |              2 |
| [65535.44](#event-6553544) | 0x04A5       |     10 |              2 |
| [65535.45](#event-6553545) | 0x04AF       |     10 |              2 |
| [65535.46](#event-6553546) | 0x04B9       |     10 |              2 |
| [65535.47](#event-6553547) | 0x04C3       |     10 |              2 |
| [65535.48](#event-6553548) | 0x04CD       |     23 |              5 |
| [65535.49](#event-6553549) | 0x04E4       |     14 |              4 |
| [65535.50](#event-6553550) | 0x04F2       |     27 |              7 |
| [65535.51](#event-6553551) | 0x050D       |      4 |              2 |

## DAT References (imed_data)

|   Index | Hex Value   |   Dec Value |
|---------|-------------|-------------|
|       0 | 0x0026      |          38 |
|       1 | 0xFFFF5CCD  |  4294925517 |
|       2 | 0x1132D     |       70445 |
|       3 | 0xFFFFF254  |  4294963796 |
|       4 | 0xFFFF68F3  |  4294928627 |
|       5 | 0x11188     |       70024 |
|       6 | 0x0000      |           0 |
|       7 | 0x0004      |           4 |
|       8 | 0x0001      |           1 |
|       9 | 0x0168      |         360 |
|      10 | 0x0050      |          80 |
|      11 | 0x003C      |          60 |
|      12 | 0x00B4      |         180 |
|      13 | 0x0080      |         128 |
|      14 | 0x092A      |        2346 |
|      15 | 0x08CA      |        2250 |
|      16 | 0x0007      |           7 |
|      17 | 0x0002      |           2 |
|      18 | 0x00A4      |         164 |
|      19 | 0x003E      |          62 |
|      20 | 0x00D8      |         216 |
|      21 | 0x000D      |          13 |
|      22 | 0x0689      |        1673 |
|      23 | 0xB9BA      |       47546 |
|      24 | 0xFFFFFC18  |  4294966296 |
|      25 | 0x012C      |         300 |
|      26 | 0x0078      |         120 |
|      27 | 0x00FA      |         250 |
|      28 | 0x000B      |          11 |
|      29 | 0x4AB1A     |      305946 |
|      30 | 0x9933      |       39219 |
|      31 | 0x4A911     |      305425 |
|      32 | 0x9FBD      |       40893 |
|      33 | 0x4AE48     |      306760 |
|      34 | 0xA770      |       42864 |
|      35 | 0x4AD21     |      306465 |
|      36 | 0xA9C8      |       43464 |
|      37 | 0x0010      |          16 |
|      38 | 0x4B096     |      307350 |
|      39 | 0xA512      |       42258 |
|      40 | 0x4B2E7     |      307943 |
|      41 | 0xA039      |       41017 |
|      42 | 0xFFFFF20D  |  4294963725 |
|      43 | 0x4B418     |      308248 |
|      44 | 0x9ABB      |       39611 |
|      45 | 0xFFFFF170  |  4294963568 |
|      46 | 0x4B440     |      308288 |
|      47 | 0x9503      |       38147 |
|      48 | 0xFFFFF158  |  4294963544 |
|      49 | 0x4B2E5     |      307941 |
|      50 | 0x93F6      |       37878 |
|      51 | 0xFFFFF204  |  4294963716 |
|      52 | 0x4AECE     |      306894 |
|      53 | 0x92EB      |       37611 |
|      54 | 0x4AAB3     |      305843 |
|      55 | 0x8F5E      |       36702 |
|      56 | 0x00F0      |         240 |
|      57 | 0x4AE37     |      306743 |
|      58 | 0x89D4      |       35284 |
|      59 | 0xFFFFF1F5  |  4294963701 |
|      60 | 0x005A      |          90 |
|      61 | 0x000A      |          10 |
|      62 | 0xFFFFC2DF  |  4294951647 |
|      63 | 0x14DAE     |       85422 |
|      64 | 0xFFFFEC79  |  4294962297 |
|      65 | 0xFFFFCA5B  |  4294953563 |
|      66 | 0x14A8F     |       84623 |
|      67 | 0x052F      |        1327 |
|      68 | 0x096F      |        2415 |
|      69 | 0x002D      |          45 |
|      70 | 0xFFFF9259  |  4294939225 |
|      71 | 0x151CA     |       86474 |
|      72 | 0xFFFFEC77  |  4294962295 |
|      73 | 0xFFFF913B  |  4294938939 |
|      74 | 0x15243     |       86595 |
|      75 | 0xFFFFEC72  |  4294962290 |
|      76 | 0xFFFF9223  |  4294939171 |
|      77 | 0x15152     |       86354 |
|      78 | 0xFFFFEC76  |  4294962294 |
|      79 | 0xFFFF779F  |  4294932383 |
|      80 | 0x17B11     |       97041 |
|      81 | 0xFFFFEC78  |  4294962296 |
|      82 | 0xFFFF7015  |  4294930453 |
|      83 | 0x188AE     |      100526 |
|      84 | 0xFFFF69F3  |  4294928883 |
|      85 | 0x19936     |      104758 |
|      86 | 0xFFFF676A  |  4294928234 |
|      87 | 0x1A3DB     |      107483 |
|      88 | 0xFFFF633B  |  4294927163 |
|      89 | 0x28E9B     |      167579 |
|      90 | 0xFFFFEC61  |  4294962273 |
|      91 | 0xFFFFC497  |  4294952087 |
|      92 | 0x14A26     |       84518 |
|      93 | 0x00D2      |         210 |
|      94 | 0x001E      |          30 |
|      95 | 0x0571      |        1393 |
|      96 | 0x0025      |          37 |
|      97 | 0xFFFFD013  |  4294955027 |
|      98 | 0x14EDA     |       85722 |
|      99 | 0xFFFFB9D7  |  4294949335 |
|     100 | 0x14D68     |       85352 |
|     101 | 0x07B1      |        1969 |
|     102 | 0xFFFFB536  |  4294948150 |
|     103 | 0x15284     |       86660 |
|     104 | 0xFFFFBC07  |  4294949895 |
|     105 | 0x15165     |       86373 |
|     106 | 0x0690      |        1680 |
|     107 | 0x000F      |          15 |
|     108 | 0x0046      |          70 |
|     109 | 0x0064      |         100 |
|     110 | 0x0032      |          50 |
|     111 | 0xFFFFC3DD  |  4294951901 |
|     112 | 0x14BC0     |       84928 |
|     113 | 0x0028      |          40 |
|     114 | 0xFFFFC795  |  4294952853 |
|     115 | 0x14F5A     |       85850 |
|     116 | 0x006E      |         110 |
|     117 | 0xFFFFC9E1  |  4294953441 |
|     118 | 0x14778     |       83832 |
|     119 | 0xFFFFCEFA  |  4294954746 |
|     120 | 0x138C2     |       80066 |
|     121 | 0xFFFFF27D  |  4294963837 |
|     122 | 0x000C      |          12 |
|     123 | 0xFFFF9E28  |  4294942248 |
|     124 | 0x152B4     |       86708 |
|     125 | 0xFFFF77C8  |  4294932424 |
|     126 | 0x164F5     |       91381 |
|     127 | 0xFFFFB748  |  4294948680 |
|     128 | 0x15077     |       86135 |
|     129 | 0x0014      |          20 |

## Events

### Event 65535

#### Metadata

| Field        | Value   |
|--------------|---------|
| Entrypoint   | 0x0000  |
| Data Size    | 1 bytes |
| Instructions | 1       |

```
      00 01 02 03 04 05 06 07  08 09 0A 0B 0C 0D 0E 0F
      -- -- -- -- -- -- -- --  -- -- -- -- -- -- -- --
0000: 00                                                .               
```

#### Opcodes

```
  0: 0x0000 [0x00] END_REQSTACK()
```

### Event 168

#### Metadata

| Field        | Value   |
|--------------|---------|
| Entrypoint   | 0x0001  |
| Data Size    | 1 bytes |
| Instructions | 1       |

```
      00 01 02 03 04 05 06 07  08 09 0A 0B 0C 0D 0E 0F
      -- -- -- -- -- -- -- --  -- -- -- -- -- -- -- --
0000:    00                                              .              
```

#### Opcodes

```
  0: 0x0001 [0x00] END_REQSTACK()
```

### Event 65535.1

#### Metadata

| Field        | Value    |
|--------------|----------|
| Entrypoint   | 0x0002   |
| Data Size    | 30 bytes |
| Instructions | 7        |

```
      00 01 02 03 04 05 06 07  08 09 0A 0B 0C 0D 0E 0F
      -- -- -- -- -- -- -- --  -- -- -- -- -- -- -- --
0000:       59 04 27 E2 05 01  00 80 1F 00 01 80 02 80    Y.'...........
0010: 03 80 1F 01 1F 00 04 80  05 80 03 80 1F 01 6F 00  ..............o.
```

#### Opcodes

```
  0: 0x0002 [0x59] UPDATE_ENTITY_DATA: Set Unnamed NPC (ID: 17162791/0x0105E227) main speed = 38* * 0.1
  1: 0x000A [0x1F] MOVE_ENTITY: EventEntity moves to X=-41.779*, Z=70.445*, Y=-3.500*
  2: 0x0012 [0x1F] MOVE_ENTITY: Update entity position (mode=1)
  3: 0x0014 [0x1F] MOVE_ENTITY: EventEntity moves to X=-38.669*, Z=70.024*, Y=-3.500*
  4: 0x001C [0x1F] MOVE_ENTITY: Update entity position (mode=1)
  5: 0x001E [0x6F] WAIT_FRAME_DELAY: Yield until WaitTime reaches zero
  6: 0x001F [0x00] END_REQSTACK()
```

### Event 65535.2

#### Metadata

| Field        | Value    |
|--------------|----------|
| Entrypoint   | 0x0020   |
| Data Size    | 22 bytes |
| Instructions | 5        |

```
      00 01 02 03 04 05 06 07  08 09 0A 0B 0C 0D 0E 0F
      -- -- -- -- -- -- -- --  -- -- -- -- -- -- -- --
0020: B6 0E 06 80 07 80 08 80  06 80 06 80 06 80 08 80  ................
0030: 80 F8 FF FF 7F 00                                 ......          
```

#### Opcodes

```
  0: 0x0020 [0xB6] ENTITY_APPEARANCE_HANDLER(case=Look with Render flags, race=0*, face=4*, head=1*, body=0*, hands=0*, render_flags=0x8006)
  1: 0x002E [0x08] 86135* -= 0xFFF8
  2: 0x0033 [0xFF] UNKNOWN_OPCODE_0xFF
  3: 0x0034 [0x7F] WAIT_DIALOG_SELECT_ALT()
  4: 0x0035 [0x00] END_REQSTACK()
```

### Event 65535.3

#### Metadata

| Field        | Value   |
|--------------|---------|
| Entrypoint   | 0x0036  |
| Data Size    | 9 bytes |
| Instructions | 5       |

```
      00 01 02 03 04 05 06 07  08 09 0A 0B 0C 0D 0E 0F
      -- -- -- -- -- -- -- --  -- -- -- -- -- -- -- --
0030:                   4C 1C  09 80 4D 1C 0A 80 00           L...M.... 
```

#### Opcodes

```
  0: 0x0036 [0x4C] EventEntity->StatusEvent = 8 // Open door
  1: 0x0037 [0x1C] WAIT(360* ticks)
  2: 0x003A [0x4D] EventEntity->StatusEvent = 9 // Close door
  3: 0x003B [0x1C] WAIT(80* ticks)
  4: 0x003E [0x00] END_REQSTACK()
```

### Event 65535.4

#### Metadata

| Field        | Value    |
|--------------|----------|
| Entrypoint   | 0x003F   |
| Data Size    | 13 bytes |
| Instructions | 3        |

```
      00 01 02 03 04 05 06 07  08 09 0A 0B 0C 0D 0E 0F
      -- -- -- -- -- -- -- --  -- -- -- -- -- -- -- --
0030:                                               1C                 .
0040: 0B 80 6C F8 FF FF 7F 06  80 0C 80 00              ..l.........    
```

#### Opcodes

```
  0: 0x003F [0x1C] WAIT(60* ticks)
  1: 0x0042 [0x6C] FADE_ENTITY_COLOR(entity_id=EventEntity, end_alpha=0*, fade_time=180*)
  2: 0x004B [0x00] END_REQSTACK()
```

### Event 65535.5

#### Metadata

| Field        | Value    |
|--------------|----------|
| Entrypoint   | 0x004C   |
| Data Size    | 10 bytes |
| Instructions | 2        |

```
      00 01 02 03 04 05 06 07  08 09 0A 0B 0C 0D 0E 0F
      -- -- -- -- -- -- -- --  -- -- -- -- -- -- -- --
0040:                                      6C F8 FF FF              l...
0050: 7F 0D 80 0B 80 00                                 ......          
```

#### Opcodes

```
  0: 0x004C [0x6C] FADE_ENTITY_COLOR(entity_id=EventEntity, end_alpha=128*, fade_time=60*)
  1: 0x0055 [0x00] END_REQSTACK()
```

### Event 65535.6

#### Metadata

| Field        | Value   |
|--------------|---------|
| Entrypoint   | 0x0056  |
| Data Size    | 5 bytes |
| Instructions | 2       |

```
      00 01 02 03 04 05 06 07  08 09 0A 0B 0C 0D 0E 0F
      -- -- -- -- -- -- -- --  -- -- -- -- -- -- -- --
0050:                   B6 00  0E 80 00                       .....     
```

#### Opcodes

```
  0: 0x0056 [0xB6] ENTITY_APPEARANCE_HANDLER(case=Hair style, value=2346*)
  1: 0x005A [0x00] END_REQSTACK()
```

### Event 65535.7

#### Metadata

| Field        | Value   |
|--------------|---------|
| Entrypoint   | 0x005B  |
| Data Size    | 5 bytes |
| Instructions | 2       |

```
      00 01 02 03 04 05 06 07  08 09 0A 0B 0C 0D 0E 0F
      -- -- -- -- -- -- -- --  -- -- -- -- -- -- -- --
0050:                                   B6 00 0F 80 00             .....
```

#### Opcodes

```
  0: 0x005B [0xB6] ENTITY_APPEARANCE_HANDLER(case=Hair style, value=2250*)
  1: 0x005F [0x00] END_REQSTACK()
```

### Event 65535.8

#### Metadata

| Field        | Value    |
|--------------|----------|
| Entrypoint   | 0x0060   |
| Data Size    | 21 bytes |
| Instructions | 2        |

```
      00 01 02 03 04 05 06 07  08 09 0A 0B 0C 0D 0E 0F
      -- -- -- -- -- -- -- --  -- -- -- -- -- -- -- --
0060: B6 0B 10 80 11 80 12 80  13 80 0B 80 12 80 13 80  ................
0070: 14 80 06 80 00                                    .....           
```

#### Opcodes

```
  0: 0x0060 [0xB6] ENTITY_APPEARANCE_HANDLER(case=Full entity look, race=7*, hair=2*, head=164*, body=62*, hands=60*, legs=164*, feet=62*, main=216*, sub=0*)
  1: 0x0074 [0x00] END_REQSTACK()
```

### Event 65535.9

#### Metadata

| Field        | Value    |
|--------------|----------|
| Entrypoint   | 0x0075   |
| Data Size    | 30 bytes |
| Instructions | 6        |

```
      00 01 02 03 04 05 06 07  08 09 0A 0B 0C 0D 0E 0F
      -- -- -- -- -- -- -- --  -- -- -- -- -- -- -- --
0070:                59 04 F8  FF FF 7F 15 80 1F 00 16       Y..........
0080: 80 17 80 18 80 1F 01 6F  79 00 F8 FF FF 7F F0 FF  .......oy.......
0090: FF 7F 00                                          ...             
```

#### Opcodes

```
  0: 0x0075 [0x59] UPDATE_ENTITY_DATA: Set EventEntity main speed = 13* * 0.1
  1: 0x007D [0x1F] MOVE_ENTITY: EventEntity moves to X=1.673*, Z=47.546*, Y=-1.000*
  2: 0x0085 [0x1F] MOVE_ENTITY: Update entity position (mode=1)
  3: 0x0087 [0x6F] WAIT_FRAME_DELAY: Yield until WaitTime reaches zero
  4: 0x0088 [0x79] EventEntity looks at LocalPlayer (Basic look)
  5: 0x0092 [0x00] END_REQSTACK()
```

### Event 65535.10

#### Metadata

| Field        | Value    |
|--------------|----------|
| Entrypoint   | 0x0093   |
| Data Size    | 54 bytes |
| Instructions | 10       |

```
      00 01 02 03 04 05 06 07  08 09 0A 0B 0C 0D 0E 0F
      -- -- -- -- -- -- -- --  -- -- -- -- -- -- -- --
0090:          06 09 10 1C 19  80 79 00 08 E2 05 01 F0     ......y......
00A0: FF FF 7F 79 00 07 E2 05  01 F0 FF FF 7F 1C 0B 80  ...y............
00B0: 79 00 F0 FF FF 7F 08 E2  05 01 1C 1A 80 59 03 F0  y............Y..
00C0: FF FF 7F 1B 80 05 09 10  00                       .........       
```

#### Opcodes

```
  0: 0x0093 [0x06] Work_Zone[9] = 0
  1: 0x0096 [0x1C] WAIT(300* ticks)
  2: 0x0099 [0x79] Romaa Mihgo (ID: 17162760/0x0105E208) looks at LocalPlayer (Basic look)
  3: 0x00A3 [0x79] Perih Vashai (ID: 17162759/0x0105E207) looks at LocalPlayer (Basic look)
  4: 0x00AD [0x1C] WAIT(60* ticks)
  5: 0x00B0 [0x79] LocalPlayer looks at Romaa Mihgo (ID: 17162760/0x0105E208) (Basic look)
  6: 0x00BA [0x1C] WAIT(120* ticks)
  7: 0x00BD [0x59] UPDATE_ENTITY_DATA: Set LocalPlayer turn speed head = 250*
  8: 0x00C5 [0x05] Work_Zone[9] = 1
  9: 0x00C8 [0x00] END_REQSTACK()
```

### Event 65535.11

#### Metadata

| Field        | Value    |
|--------------|----------|
| Entrypoint   | 0x00C9   |
| Data Size    | 22 bytes |
| Instructions | 5        |

```
      00 01 02 03 04 05 06 07  08 09 0A 0B 0C 0D 0E 0F
      -- -- -- -- -- -- -- --  -- -- -- -- -- -- -- --
00C0:                             B6 0E 06 80 06 80 06           .......
00D0: 80 06 80 06 80 06 80 08  80 80 F8 FF FF 7F 00     ............... 
```

#### Opcodes

```
  0: 0x00C9 [0xB6] ENTITY_APPEARANCE_HANDLER(case=Look with Render flags, race=0*, face=0*, head=0*, body=0*, hands=0*, render_flags=0x8006)
  1: 0x00D7 [0x08] 86135* -= 0xFFF8
  2: 0x00DC [0xFF] UNKNOWN_OPCODE_0xFF
  3: 0x00DD [0x7F] WAIT_DIALOG_SELECT_ALT()
  4: 0x00DE [0x00] END_REQSTACK()
```

### Event 65535.12

#### Metadata

| Field        | Value    |
|--------------|----------|
| Entrypoint   | 0x00DF   |
| Data Size    | 59 bytes |
| Instructions | 12       |

```
      00 01 02 03 04 05 06 07  08 09 0A 0B 0C 0D 0E 0F
      -- -- -- -- -- -- -- --  -- -- -- -- -- -- -- --
00D0:                                               59                 Y
00E0: 04 F8 FF FF 7F 1C 80 1F  00 1D 80 1E 80 03 80 1F  ................
00F0: 01 1F 00 1F 80 20 80 03  80 1F 01 1F 00 21 80 22  ..... .......!."
0100: 80 03 80 1F 01 1F 00 23  80 24 80 03 80 1F 01 6F  .......#.$.....o
0110: 4A F8 FF FF 7F 00 E3 05  01 00                    J.........      
```

#### Opcodes

```
  0: 0x00DF [0x59] UPDATE_ENTITY_DATA: Set EventEntity main speed = 11* * 0.1
  1: 0x00E7 [0x1F] MOVE_ENTITY: EventEntity moves to X=305.946*, Z=39.219*, Y=-3.500*
  2: 0x00EF [0x1F] MOVE_ENTITY: Update entity position (mode=1)
  3: 0x00F1 [0x1F] MOVE_ENTITY: EventEntity moves to X=305.425*, Z=40.893*, Y=-3.500*
  4: 0x00F9 [0x1F] MOVE_ENTITY: Update entity position (mode=1)
  5: 0x00FB [0x1F] MOVE_ENTITY: EventEntity moves to X=306.760*, Z=42.864*, Y=-3.500*
  6: 0x0103 [0x1F] MOVE_ENTITY: Update entity position (mode=1)
  7: 0x0105 [0x1F] MOVE_ENTITY: EventEntity moves to X=306.465*, Z=43.464*, Y=-3.500*
  8: 0x010D [0x1F] MOVE_ENTITY: Update entity position (mode=1)
  9: 0x010F [0x6F] WAIT_FRAME_DELAY: Yield until WaitTime reaches zero
 10: 0x0110 [0x4A] EventEntity looks at 03 (ID: 17163008/0x0105E300)
 11: 0x0119 [0x00] END_REQSTACK()
```

### Event 65535.13

#### Metadata

| Field        | Value     |
|--------------|-----------|
| Entrypoint   | 0x011A    |
| Data Size    | 165 bytes |
| Instructions | 34        |

```
      00 01 02 03 04 05 06 07  08 09 0A 0B 0C 0D 0E 0F
      -- -- -- -- -- -- -- --  -- -- -- -- -- -- -- --
0110:                                59 04 F8 FF FF 7F            Y.....
0120: 25 80 1F 00 26 80 27 80  03 80 1F 01 1F 00 28 80  %...&.'.......(.
0130: 29 80 2A 80 1F 01 1F 00  2B 80 2C 80 2D 80 1F 01  ).*.....+.,.-...
0140: 1F 00 2E 80 2F 80 30 80  1F 01 1F 00 31 80 32 80  ..../.0.....1.2.
0150: 33 80 1F 01 1F 00 34 80  35 80 03 80 1F 01 1F 00  3.....4.5.......
0160: 36 80 37 80 03 80 1F 01  6F 4A F8 FF FF 7F 01 E3  6.7.....oJ......
0170: 05 01 1C 1A 80 4A F8 FF  FF 7F 04 E3 05 01 1C 38  .....J.........8
0180: 80 1F 00 34 80 35 80 03  80 1F 01 1F 00 31 80 32  ...4.5.......1.2
0190: 80 33 80 1F 01 1F 00 2E  80 2F 80 30 80 1F 01 1F  .3......./.0....
01A0: 00 2B 80 2C 80 2D 80 1F  01 1F 00 28 80 29 80 2A  .+.,.-.....(.).*
01B0: 80 1F 01 1F 00 26 80 27  80 03 80 1F 01 6F 00     .....&.'.....o. 
```

#### Opcodes

```
  0: 0x011A [0x59] UPDATE_ENTITY_DATA: Set EventEntity main speed = 16* * 0.1
  1: 0x0122 [0x1F] MOVE_ENTITY: EventEntity moves to X=307.350*, Z=42.258*, Y=-3.500*
  2: 0x012A [0x1F] MOVE_ENTITY: Update entity position (mode=1)
  3: 0x012C [0x1F] MOVE_ENTITY: EventEntity moves to X=307.943*, Z=41.017*, Y=-3.571*
  4: 0x0134 [0x1F] MOVE_ENTITY: Update entity position (mode=1)
  5: 0x0136 [0x1F] MOVE_ENTITY: EventEntity moves to X=308.248*, Z=39.611*, Y=-3.728*
  6: 0x013E [0x1F] MOVE_ENTITY: Update entity position (mode=1)
  7: 0x0140 [0x1F] MOVE_ENTITY: EventEntity moves to X=308.288*, Z=38.147*, Y=-3.752*
  8: 0x0148 [0x1F] MOVE_ENTITY: Update entity position (mode=1)
  9: 0x014A [0x1F] MOVE_ENTITY: EventEntity moves to X=307.941*, Z=37.878*, Y=-3.580*
 10: 0x0152 [0x1F] MOVE_ENTITY: Update entity position (mode=1)
 11: 0x0154 [0x1F] MOVE_ENTITY: EventEntity moves to X=306.894*, Z=37.611*, Y=-3.500*
 12: 0x015C [0x1F] MOVE_ENTITY: Update entity position (mode=1)
 13: 0x015E [0x1F] MOVE_ENTITY: EventEntity moves to X=305.843*, Z=36.702*, Y=-3.500*
 14: 0x0166 [0x1F] MOVE_ENTITY: Update entity position (mode=1)
 15: 0x0168 [0x6F] WAIT_FRAME_DELAY: Yield until WaitTime reaches zero
 16: 0x0169 [0x4A] EventEntity looks at 04 (ID: 17163009/0x0105E301)
 17: 0x0172 [0x1C] WAIT(120* ticks)
 18: 0x0175 [0x4A] EventEntity looks at Koh Lenbalalako (ID: 17163012/0x0105E304)
 19: 0x017E [0x1C] WAIT(240* ticks)
 20: 0x0181 [0x1F] MOVE_ENTITY: EventEntity moves to X=306.894*, Z=37.611*, Y=-3.500*
 21: 0x0189 [0x1F] MOVE_ENTITY: Update entity position (mode=1)
 22: 0x018B [0x1F] MOVE_ENTITY: EventEntity moves to X=307.941*, Z=37.878*, Y=-3.580*
 23: 0x0193 [0x1F] MOVE_ENTITY: Update entity position (mode=1)
 24: 0x0195 [0x1F] MOVE_ENTITY: EventEntity moves to X=308.288*, Z=38.147*, Y=-3.752*
 25: 0x019D [0x1F] MOVE_ENTITY: Update entity position (mode=1)
 26: 0x019F [0x1F] MOVE_ENTITY: EventEntity moves to X=308.248*, Z=39.611*, Y=-3.728*
 27: 0x01A7 [0x1F] MOVE_ENTITY: Update entity position (mode=1)
 28: 0x01A9 [0x1F] MOVE_ENTITY: EventEntity moves to X=307.943*, Z=41.017*, Y=-3.571*
 29: 0x01B1 [0x1F] MOVE_ENTITY: Update entity position (mode=1)
 30: 0x01B3 [0x1F] MOVE_ENTITY: EventEntity moves to X=307.350*, Z=42.258*, Y=-3.500*
 31: 0x01BB [0x1F] MOVE_ENTITY: Update entity position (mode=1)
 32: 0x01BD [0x6F] WAIT_FRAME_DELAY: Yield until WaitTime reaches zero
 33: 0x01BE [0x00] END_REQSTACK()
```

### Event 65535.14

#### Metadata

| Field        | Value    |
|--------------|----------|
| Entrypoint   | 0x01BF   |
| Data Size    | 12 bytes |
| Instructions | 4        |

```
      00 01 02 03 04 05 06 07  08 09 0A 0B 0C 0D 0E 0F
      -- -- -- -- -- -- -- --  -- -- -- -- -- -- -- --
01B0:                                               1F                 .
01C0: 00 39 80 3A 80 3B 80 1F  01 6F 00                 .9.:.;...o.     
```

#### Opcodes

```
  0: 0x01BF [0x1F] MOVE_ENTITY: EventEntity moves to X=306.743*, Z=35.284*, Y=-3.595*
  1: 0x01C7 [0x1F] MOVE_ENTITY: Update entity position (mode=1)
  2: 0x01C9 [0x6F] WAIT_FRAME_DELAY: Yield until WaitTime reaches zero
  3: 0x01CA [0x00] END_REQSTACK()
```

### Event 65535.15

#### Metadata

| Field        | Value    |
|--------------|----------|
| Entrypoint   | 0x01CB   |
| Data Size    | 38 bytes |
| Instructions | 7        |

```
      00 01 02 03 04 05 06 07  08 09 0A 0B 0C 0D 0E 0F
      -- -- -- -- -- -- -- --  -- -- -- -- -- -- -- --
01C0:                                   6E 04 E3 05 01             n....
01D0: 10 80 99 04 E3 05 01 1C  3C 80 79 00 04 E3 05 01  ........<.y.....
01E0: 03 E3 05 01 6E 04 E3 05  01 3D 80 99 04 E3 05 01  ....n....=......
01F0: 00                                                .               
```

#### Opcodes

```
  0: 0x01CB [0x6E] Koh Lenbalalako (ID: 17163012/0x0105E304) uses emote 7*
  1: 0x01D2 [0x99] Wait for Koh Lenbalalako (ID: 17163012/0x0105E304) animation to complete
  2: 0x01D7 [0x1C] WAIT(90* ticks)
  3: 0x01DA [0x79] Koh Lenbalalako (ID: 17163012/0x0105E304) looks at Syu Befrathi (ID: 17163011/0x0105E303) (Basic look)
  4: 0x01E4 [0x6E] Koh Lenbalalako (ID: 17163012/0x0105E304) uses emote 10*
  5: 0x01EB [0x99] Wait for Koh Lenbalalako (ID: 17163012/0x0105E304) animation to complete
  6: 0x01F0 [0x00] END_REQSTACK()
```

### Event 65535.16

#### Metadata

| Field        | Value    |
|--------------|----------|
| Entrypoint   | 0x01F1   |
| Data Size    | 29 bytes |
| Instructions | 6        |

```
      00 01 02 03 04 05 06 07  08 09 0A 0B 0C 0D 0E 0F
      -- -- -- -- -- -- -- --  -- -- -- -- -- -- -- --
01F0:    59 04 F8 FF FF 7F 15  80 1F 00 3E 80 3F 80 40   Y.........>.?.@
0200: 80 1F 01 6F 4A F8 FF FF  7F 4E E2 05 01 00        ...oJ....N....  
```

#### Opcodes

```
  0: 0x01F1 [0x59] UPDATE_ENTITY_DATA: Set EventEntity main speed = 13* * 0.1
  1: 0x01F9 [0x1F] MOVE_ENTITY: EventEntity moves to X=-15.649*, Z=85.422*, Y=-4.999*
  2: 0x0201 [0x1F] MOVE_ENTITY: Update entity position (mode=1)
  3: 0x0203 [0x6F] WAIT_FRAME_DELAY: Yield until WaitTime reaches zero
  4: 0x0204 [0x4A] EventEntity looks at Shikaree G (ID: 17162830/0x0105E24E)
  5: 0x020D [0x00] END_REQSTACK()
```

### Event 65535.17

#### Metadata

| Field        | Value    |
|--------------|----------|
| Entrypoint   | 0x020E   |
| Data Size    | 44 bytes |
| Instructions | 7        |

```
      00 01 02 03 04 05 06 07  08 09 0A 0B 0C 0D 0E 0F
      -- -- -- -- -- -- -- --  -- -- -- -- -- -- -- --
0200:                                            59 04                Y.
0210: F8 FF FF 7F 15 80 1F 00  41 80 42 80 40 80 1F 01  ........A.B.@...
0220: 6F 4A F8 FF FF 7F 4E E2  05 01 5B 43 80 08 E2 05  oJ....N...[C....
0230: 01 08 E2 05 01 73 74 61  30 00                    .....sta0.      
```

#### Opcodes

```
  0: 0x020E [0x59] UPDATE_ENTITY_DATA: Set EventEntity main speed = 13* * 0.1
  1: 0x0216 [0x1F] MOVE_ENTITY: EventEntity moves to X=-13.733*, Z=84.623*, Y=-4.999*
  2: 0x021E [0x1F] MOVE_ENTITY: Update entity position (mode=1)
  3: 0x0220 [0x6F] WAIT_FRAME_DELAY: Yield until WaitTime reaches zero
  4: 0x0221 [0x4A] EventEntity looks at Shikaree G (ID: 17162830/0x0105E24E)
  5: 0x022A [0x5B] LOAD_EXT_SCHEDULER: Load scheduler "sta0" with entities [Romaa Mihgo (ID: 17162760/0x0105E208), Romaa Mihgo (ID: 17162760/0x0105E208)], work=1327*
  6: 0x0239 [0x00] END_REQSTACK()
```

### Event 65535.18

#### Metadata

| Field        | Value    |
|--------------|----------|
| Entrypoint   | 0x023A   |
| Data Size    | 40 bytes |
| Instructions | 5        |

```
      00 01 02 03 04 05 06 07  08 09 0A 0B 0C 0D 0E 0F
      -- -- -- -- -- -- -- --  -- -- -- -- -- -- -- --
0230:                                5B 44 80 08 E2 05            [D....
0240: 01 08 E2 05 01 64 6B 69  30 1C 45 80 7C 00 F8 FF  .....dki0.E.|...
0250: FF 7F 5B 44 80 08 E2 05  01 08 E2 05 01 64 6B 69  ..[D.........dki
0260: 31 00                                             1.              
```

#### Opcodes

```
  0: 0x023A [0x5B] LOAD_EXT_SCHEDULER: Load scheduler "dki0" with entities [Romaa Mihgo (ID: 17162760/0x0105E208), Romaa Mihgo (ID: 17162760/0x0105E208)], work=2415*
  1: 0x0249 [0x1C] WAIT(45* ticks)
  2: 0x024C [0x7C] EventEntity->Render.Flags2 |= 0x00
  3: 0x0252 [0x5B] LOAD_EXT_SCHEDULER: Load scheduler "dki1" with entities [Romaa Mihgo (ID: 17162760/0x0105E208), Romaa Mihgo (ID: 17162760/0x0105E208)], work=2415*
  4: 0x0261 [0x00] END_REQSTACK()
```

### Event 65535.19

#### Metadata

| Field        | Value    |
|--------------|----------|
| Entrypoint   | 0x0262   |
| Data Size    | 30 bytes |
| Instructions | 7        |

```
      00 01 02 03 04 05 06 07  08 09 0A 0B 0C 0D 0E 0F
      -- -- -- -- -- -- -- --  -- -- -- -- -- -- -- --
0260:       59 04 F8 FF FF 7F  3D 80 1F 00 46 80 47 80    Y.....=...F.G.
0270: 48 80 1F 01 1F 00 49 80  4A 80 4B 80 1F 01 6F 00  H.....I.J.K...o.
```

#### Opcodes

```
  0: 0x0262 [0x59] UPDATE_ENTITY_DATA: Set EventEntity main speed = 10* * 0.1
  1: 0x026A [0x1F] MOVE_ENTITY: EventEntity moves to X=-28.071*, Z=86.474*, Y=-5.001*
  2: 0x0272 [0x1F] MOVE_ENTITY: Update entity position (mode=1)
  3: 0x0274 [0x1F] MOVE_ENTITY: EventEntity moves to X=-28.357*, Z=86.595*, Y=-5.006*
  4: 0x027C [0x1F] MOVE_ENTITY: Update entity position (mode=1)
  5: 0x027E [0x6F] WAIT_FRAME_DELAY: Yield until WaitTime reaches zero
  6: 0x027F [0x00] END_REQSTACK()
```

### Event 65535.20

#### Metadata

| Field        | Value    |
|--------------|----------|
| Entrypoint   | 0x0280   |
| Data Size    | 22 bytes |
| Instructions | 5        |

```
      00 01 02 03 04 05 06 07  08 09 0A 0B 0C 0D 0E 0F
      -- -- -- -- -- -- -- --  -- -- -- -- -- -- -- --
0280: 1F 00 4C 80 4D 80 4E 80  1F 01 6F 79 00 4E E2 05  ..L.M.N...oy.N..
0290: 01 07 E2 05 01 00                                 ......          
```

#### Opcodes

```
  0: 0x0280 [0x1F] MOVE_ENTITY: EventEntity moves to X=-28.125*, Z=86.354*, Y=-5.002*
  1: 0x0288 [0x1F] MOVE_ENTITY: Update entity position (mode=1)
  2: 0x028A [0x6F] WAIT_FRAME_DELAY: Yield until WaitTime reaches zero
  3: 0x028B [0x79] Shikaree G (ID: 17162830/0x0105E24E) looks at Perih Vashai (ID: 17162759/0x0105E207) (Basic look)
  4: 0x0295 [0x00] END_REQSTACK()
```

### Event 65535.21

#### Metadata

| Field        | Value    |
|--------------|----------|
| Entrypoint   | 0x0296   |
| Data Size    | 12 bytes |
| Instructions | 4        |

```
      00 01 02 03 04 05 06 07  08 09 0A 0B 0C 0D 0E 0F
      -- -- -- -- -- -- -- --  -- -- -- -- -- -- -- --
0290:                   1F 00  49 80 4A 80 4B 80 1F 01        ..I.J.K...
02A0: 6F 00                                             o.              
```

#### Opcodes

```
  0: 0x0296 [0x1F] MOVE_ENTITY: EventEntity moves to X=-28.357*, Z=86.595*, Y=-5.006*
  1: 0x029E [0x1F] MOVE_ENTITY: Update entity position (mode=1)
  2: 0x02A0 [0x6F] WAIT_FRAME_DELAY: Yield until WaitTime reaches zero
  3: 0x02A1 [0x00] END_REQSTACK()
```

### Event 65535.22

#### Metadata

| Field        | Value    |
|--------------|----------|
| Entrypoint   | 0x02A2   |
| Data Size    | 60 bytes |
| Instructions | 13       |

```
      00 01 02 03 04 05 06 07  08 09 0A 0B 0C 0D 0E 0F
      -- -- -- -- -- -- -- --  -- -- -- -- -- -- -- --
02A0:       59 04 F8 FF FF 7F  15 80 1F 00 4F 80 50 80    Y.........O.P.
02B0: 51 80 1F 01 1F 00 52 80  53 80 51 80 1F 01 1F 00  Q.....R.S.Q.....
02C0: 54 80 55 80 51 80 1F 01  1F 00 56 80 57 80 51 80  T.U.Q.....V.W.Q.
02D0: 1F 01 1F 00 58 80 59 80  5A 80 1F 01 6F 00        ....X.Y.Z...o.  
```

#### Opcodes

```
  0: 0x02A2 [0x59] UPDATE_ENTITY_DATA: Set EventEntity main speed = 13* * 0.1
  1: 0x02AA [0x1F] MOVE_ENTITY: EventEntity moves to X=-34.913*, Z=97.041*, Y=-5.000*
  2: 0x02B2 [0x1F] MOVE_ENTITY: Update entity position (mode=1)
  3: 0x02B4 [0x1F] MOVE_ENTITY: EventEntity moves to X=-36.843*, Z=100.526*, Y=-5.000*
  4: 0x02BC [0x1F] MOVE_ENTITY: Update entity position (mode=1)
  5: 0x02BE [0x1F] MOVE_ENTITY: EventEntity moves to X=-38.413*, Z=104.758*, Y=-5.000*
  6: 0x02C6 [0x1F] MOVE_ENTITY: Update entity position (mode=1)
  7: 0x02C8 [0x1F] MOVE_ENTITY: EventEntity moves to X=-39.062*, Z=107.483*, Y=-5.000*
  8: 0x02D0 [0x1F] MOVE_ENTITY: Update entity position (mode=1)
  9: 0x02D2 [0x1F] MOVE_ENTITY: EventEntity moves to X=-40.133*, Z=167.579*, Y=-5.023*
 10: 0x02DA [0x1F] MOVE_ENTITY: Update entity position (mode=1)
 11: 0x02DC [0x6F] WAIT_FRAME_DELAY: Yield until WaitTime reaches zero
 12: 0x02DD [0x00] END_REQSTACK()
```

### Event 65535.23

#### Metadata

| Field        | Value    |
|--------------|----------|
| Entrypoint   | 0x02DE   |
| Data Size    | 21 bytes |
| Instructions | 5        |

```
      00 01 02 03 04 05 06 07  08 09 0A 0B 0C 0D 0E 0F
      -- -- -- -- -- -- -- --  -- -- -- -- -- -- -- --
02D0:                                            1F 00                ..
02E0: 5B 80 5C 80 40 80 1F 01  6F 4A 08 E2 05 01 07 E2  [.\.@...oJ......
02F0: 05 01 00                                          ...             
```

#### Opcodes

```
  0: 0x02DE [0x1F] MOVE_ENTITY: EventEntity moves to X=-15.209*, Z=84.518*, Y=-4.999*
  1: 0x02E6 [0x1F] MOVE_ENTITY: Update entity position (mode=1)
  2: 0x02E8 [0x6F] WAIT_FRAME_DELAY: Yield until WaitTime reaches zero
  3: 0x02E9 [0x4A] Romaa Mihgo (ID: 17162760/0x0105E208) looks at Perih Vashai (ID: 17162759/0x0105E207)
  4: 0x02F2 [0x00] END_REQSTACK()
```

### Event 65535.24

#### Metadata

| Field        | Value    |
|--------------|----------|
| Entrypoint   | 0x02F3   |
| Data Size    | 87 bytes |
| Instructions | 13       |

```
      00 01 02 03 04 05 06 07  08 09 0A 0B 0C 0D 0E 0F
      -- -- -- -- -- -- -- --  -- -- -- -- -- -- -- --
02F0:          03 09 10 5D 80  14 09 10 1C 80 3A F8 FF     ...]......:..
0300: FF 7F 08 10 07 08 10 09  10 4B F8 FF FF 7F 08 10  .........K......
0310: 6F 76 F8 FF FF 7F 7B 07  E2 05 01 1C 5E 80 5B 5F  ov....{.....^.[_
0320: 80 07 E2 05 01 07 E2 05  01 70 75 70 30 53 07 E2  .........pup0S..
0330: 05 01 07 E2 05 01 70 75  70 30 5B 5F 80 07 E2 05  ......pup0[_....
0340: 01 07 E2 05 01 70 75 70  6C 00                    .....pupl.      
```

#### Opcodes

```
  0: 0x02F3 [0x03] Work_Zone[9] = 210*
  1: 0x02F8 [0x14] Work_Zone[9] *= 11*
  2: 0x02FD [0x3A] CONVERT_YAW_TO_BYTE(entity=EventEntity, result_destination=Work_Zone[8])
  3: 0x0304 [0x07] Work_Zone[8] += Work_Zone[9]
  4: 0x0309 [0x4B] UPDATE_ENTITY_YAW(entity=EventEntity, yaw=Work_Zone[8])
  5: 0x0310 [0x6F] WAIT_FRAME_DELAY: Yield until WaitTime reaches zero
  6: 0x0311 [0x76] CHECK_ENTITY_RENDER_FLAGS: Wait until EventEntity Render.Flags0 and Render.Flags3 conditions are met
  7: 0x0316 [0x7B] Perih Vashai (ID: 17162759/0x0105E207) stops talking
  8: 0x031B [0x1C] WAIT(30* ticks)
  9: 0x031E [0x5B] LOAD_EXT_SCHEDULER: Load scheduler "pup0" with entities [Perih Vashai (ID: 17162759/0x0105E207), Perih Vashai (ID: 17162759/0x0105E207)], work=1393*
 10: 0x032D [0x53] WAIT_SCHEDULER_TASK: Wait for scheduler "pup0" with entities [Perih Vashai (ID: 17162759/0x0105E207), Perih Vashai (ID: 17162759/0x0105E207)]
 11: 0x033A [0x5B] LOAD_EXT_SCHEDULER: Load scheduler "pupl" with entities [Perih Vashai (ID: 17162759/0x0105E207), Perih Vashai (ID: 17162759/0x0105E207)], work=1393*
 12: 0x0349 [0x00] END_REQSTACK()
```

### Event 65535.25

#### Metadata

| Field        | Value    |
|--------------|----------|
| Entrypoint   | 0x034A   |
| Data Size    | 22 bytes |
| Instructions | 5        |

```
      00 01 02 03 04 05 06 07  08 09 0A 0B 0C 0D 0E 0F
      -- -- -- -- -- -- -- --  -- -- -- -- -- -- -- --
0340:                                B6 0E 06 80 06 80            ......
0350: 06 80 08 80 08 80 08 80  08 80 80 F8 FF FF 7F 00  ................
```

#### Opcodes

```
  0: 0x034A [0xB6] ENTITY_APPEARANCE_HANDLER(case=Look with Render flags, race=0*, face=0*, head=0*, body=1*, hands=1*, render_flags=0x8008)
  1: 0x0358 [0x08] 86135* -= 0xFFF8
  2: 0x035D [0xFF] UNKNOWN_OPCODE_0xFF
  3: 0x035E [0x7F] WAIT_DIALOG_SELECT_ALT()
  4: 0x035F [0x00] END_REQSTACK()
```

### Event 65535.26

#### Metadata

| Field        | Value    |
|--------------|----------|
| Entrypoint   | 0x0360   |
| Data Size    | 22 bytes |
| Instructions | 5        |

```
      00 01 02 03 04 05 06 07  08 09 0A 0B 0C 0D 0E 0F
      -- -- -- -- -- -- -- --  -- -- -- -- -- -- -- --
0360: B6 0E 06 80 07 80 06 80  08 80 08 80 08 80 08 80  ................
0370: 80 F8 FF FF 7F 00                                 ......          
```

#### Opcodes

```
  0: 0x0360 [0xB6] ENTITY_APPEARANCE_HANDLER(case=Look with Render flags, race=0*, face=4*, head=0*, body=1*, hands=1*, render_flags=0x8008)
  1: 0x036E [0x08] 86135* -= 0xFFF8
  2: 0x0373 [0xFF] UNKNOWN_OPCODE_0xFF
  3: 0x0374 [0x7F] WAIT_DIALOG_SELECT_ALT()
  4: 0x0375 [0x00] END_REQSTACK()
```

### Event 22

#### Metadata

| Field        | Value   |
|--------------|---------|
| Entrypoint   | 0x0376  |
| Data Size    | 1 bytes |
| Instructions | 1       |

```
      00 01 02 03 04 05 06 07  08 09 0A 0B 0C 0D 0E 0F
      -- -- -- -- -- -- -- --  -- -- -- -- -- -- -- --
0370:                   00                                    .         
```

#### Opcodes

```
  0: 0x0376 [0x00] END_REQSTACK()
```

### Event 25

#### Metadata

| Field        | Value   |
|--------------|---------|
| Entrypoint   | 0x0377  |
| Data Size    | 1 bytes |
| Instructions | 1       |

```
      00 01 02 03 04 05 06 07  08 09 0A 0B 0C 0D 0E 0F
      -- -- -- -- -- -- -- --  -- -- -- -- -- -- -- --
0370:                      00                                  .        
```

#### Opcodes

```
  0: 0x0377 [0x00] END_REQSTACK()
```

### Event 65535.27

#### Metadata

| Field        | Value   |
|--------------|---------|
| Entrypoint   | 0x0378  |
| Data Size    | 1 bytes |
| Instructions | 1       |

```
      00 01 02 03 04 05 06 07  08 09 0A 0B 0C 0D 0E 0F
      -- -- -- -- -- -- -- --  -- -- -- -- -- -- -- --
0370:                          00                               .       
```

#### Opcodes

```
  0: 0x0378 [0x00] END_REQSTACK()
```

### Event 65535.28

#### Metadata

| Field        | Value    |
|--------------|----------|
| Entrypoint   | 0x0379   |
| Data Size    | 18 bytes |
| Instructions | 4        |

```
      00 01 02 03 04 05 06 07  08 09 0A 0B 0C 0D 0E 0F
      -- -- -- -- -- -- -- --  -- -- -- -- -- -- -- --
0370:                             22 00 2F 00 F8 FF FF           "./....
0380: 7F 6C F8 FF FF 7F 06 80  08 80 00                 .l.........     
```

#### Opcodes

```
  0: 0x0379 [0x22] ENTITY_HIDE_FLAG(enabled=0x00)
  1: 0x037B [0x2F] EventEntity->Render.Flags0 &= ~0x80000 // Bit 19
  2: 0x0381 [0x6C] FADE_ENTITY_COLOR(entity_id=EventEntity, end_alpha=0*, fade_time=1*)
  3: 0x038A [0x00] END_REQSTACK()
```

### Event 65535.29

#### Metadata

| Field        | Value    |
|--------------|----------|
| Entrypoint   | 0x038B   |
| Data Size    | 10 bytes |
| Instructions | 2        |

```
      00 01 02 03 04 05 06 07  08 09 0A 0B 0C 0D 0E 0F
      -- -- -- -- -- -- -- --  -- -- -- -- -- -- -- --
0380:                                   6C F8 FF FF 7F             l....
0390: 0D 80 08 80 00                                    .....           
```

#### Opcodes

```
  0: 0x038B [0x6C] FADE_ENTITY_COLOR(entity_id=EventEntity, end_alpha=128*, fade_time=1*)
  1: 0x0394 [0x00] END_REQSTACK()
```

### Event 65535.30

#### Metadata

| Field        | Value   |
|--------------|---------|
| Entrypoint   | 0x0395  |
| Data Size    | 9 bytes |
| Instructions | 3       |

```
      00 01 02 03 04 05 06 07  08 09 0A 0B 0C 0D 0E 0F
      -- -- -- -- -- -- -- --  -- -- -- -- -- -- -- --
0390:                22 00 2F  00 F8 FF FF 7F 00             "./......  
```

#### Opcodes

```
  0: 0x0395 [0x22] ENTITY_HIDE_FLAG(enabled=0x00)
  1: 0x0397 [0x2F] EventEntity->Render.Flags0 &= ~0x80000 // Bit 19
  2: 0x039D [0x00] END_REQSTACK()
```

### Event 65535.31

#### Metadata

| Field        | Value   |
|--------------|---------|
| Entrypoint   | 0x039E  |
| Data Size    | 9 bytes |
| Instructions | 3       |

```
      00 01 02 03 04 05 06 07  08 09 0A 0B 0C 0D 0E 0F
      -- -- -- -- -- -- -- --  -- -- -- -- -- -- -- --
0390:                                            22 01                ".
03A0: 2F 01 F8 FF FF 7F 00                              /......         
```

#### Opcodes

```
  0: 0x039E [0x22] ENTITY_HIDE_FLAG(enabled=0x01)
  1: 0x03A0 [0x2F] EventEntity->Render.Flags0 |= 0x80000 // Bit 19
  2: 0x03A6 [0x00] END_REQSTACK()
```

### Event 65535.32

#### Metadata

| Field        | Value    |
|--------------|----------|
| Entrypoint   | 0x03A7   |
| Data Size    | 10 bytes |
| Instructions | 2        |

```
      00 01 02 03 04 05 06 07  08 09 0A 0B 0C 0D 0E 0F
      -- -- -- -- -- -- -- --  -- -- -- -- -- -- -- --
03A0:                      6C  F8 FF FF 7F 06 80 08 80         l........
03B0: 00                                                .               
```

#### Opcodes

```
  0: 0x03A7 [0x6C] FADE_ENTITY_COLOR(entity_id=EventEntity, end_alpha=0*, fade_time=1*)
  1: 0x03B0 [0x00] END_REQSTACK()
```

### Event 65535.33

#### Metadata

| Field        | Value    |
|--------------|----------|
| Entrypoint   | 0x03B1   |
| Data Size    | 10 bytes |
| Instructions | 2        |

```
      00 01 02 03 04 05 06 07  08 09 0A 0B 0C 0D 0E 0F
      -- -- -- -- -- -- -- --  -- -- -- -- -- -- -- --
03B0:    6C F8 FF FF 7F 0D 80  08 80 00                  l.........     
```

#### Opcodes

```
  0: 0x03B1 [0x6C] FADE_ENTITY_COLOR(entity_id=EventEntity, end_alpha=128*, fade_time=1*)
  1: 0x03BA [0x00] END_REQSTACK()
```

### Event 65535.34

#### Metadata

| Field        | Value    |
|--------------|----------|
| Entrypoint   | 0x03BB   |
| Data Size    | 31 bytes |
| Instructions | 7        |

```
      00 01 02 03 04 05 06 07  08 09 0A 0B 0C 0D 0E 0F
      -- -- -- -- -- -- -- --  -- -- -- -- -- -- -- --
03B0:                                   32 60 80 1F 00             2`...
03C0: 61 80 62 80 51 80 1F 01  1F 00 63 80 64 80 51 80  a.b.Q.....c.d.Q.
03D0: 1F 01 4B F8 FF FF 7F 65  80 00                    ..K....e..      
```

#### Opcodes

```
  0: 0x03BB [0x32] ExtData[1]->MainSpeed = 37* * 0.1
  1: 0x03BE [0x1F] MOVE_ENTITY: EventEntity moves to X=-12.269*, Z=85.722*, Y=-5.000*
  2: 0x03C6 [0x1F] MOVE_ENTITY: Update entity position (mode=1)
  3: 0x03C8 [0x1F] MOVE_ENTITY: EventEntity moves to X=-17.961*, Z=85.352*, Y=-5.000*
  4: 0x03D0 [0x1F] MOVE_ENTITY: Update entity position (mode=1)
  5: 0x03D2 [0x4B] UPDATE_ENTITY_YAW(entity=EventEntity, yaw=10.8°*)
  6: 0x03D9 [0x00] END_REQSTACK()
```

### Event 65535.35

#### Metadata

| Field        | Value    |
|--------------|----------|
| Entrypoint   | 0x03DA   |
| Data Size    | 23 bytes |
| Instructions | 5        |

```
      00 01 02 03 04 05 06 07  08 09 0A 0B 0C 0D 0E 0F
      -- -- -- -- -- -- -- --  -- -- -- -- -- -- -- --
03D0:                                32 00 80 1F 00 66            2....f
03E0: 80 67 80 51 80 1F 01 4A  F8 FF FF 7F 36 E2 05 01  .g.Q...J....6...
03F0: 00                                                .               
```

#### Opcodes

```
  0: 0x03DA [0x32] ExtData[1]->MainSpeed = 38* * 0.1
  1: 0x03DD [0x1F] MOVE_ENTITY: EventEntity moves to X=-19.146*, Z=86.660*, Y=-5.000*
  2: 0x03E5 [0x1F] MOVE_ENTITY: Update entity position (mode=1)
  3: 0x03E7 [0x4A] EventEntity looks at Lehko Habhoka (ID: 17162806/0x0105E236)
  4: 0x03F0 [0x00] END_REQSTACK()
```

### Event 65535.36

#### Metadata

| Field        | Value    |
|--------------|----------|
| Entrypoint   | 0x03F1   |
| Data Size    | 34 bytes |
| Instructions | 7        |

```
      00 01 02 03 04 05 06 07  08 09 0A 0B 0C 0D 0E 0F
      -- -- -- -- -- -- -- --  -- -- -- -- -- -- -- --
03F0:    32 15 80 1F 00 68 80  69 80 51 80 1F 01 4B F8   2....h.i.Q...K.
0400: FF FF 7F 6A 80 79 00 F8  FF FF 7F 36 E2 05 01 1C  ...j.y.....6....
0410: 6B 80 00                                          k..             
```

#### Opcodes

```
  0: 0x03F1 [0x32] ExtData[1]->MainSpeed = 13* * 0.1
  1: 0x03F4 [0x1F] MOVE_ENTITY: EventEntity moves to X=-17.401*, Z=86.373*, Y=-5.000*
  2: 0x03FC [0x1F] MOVE_ENTITY: Update entity position (mode=1)
  3: 0x03FE [0x4B] UPDATE_ENTITY_YAW(entity=EventEntity, yaw=9.2°*)
  4: 0x0405 [0x79] EventEntity looks at Lehko Habhoka (ID: 17162806/0x0105E236) (Basic look)
  5: 0x040F [0x1C] WAIT(15* ticks)
  6: 0x0412 [0x00] END_REQSTACK()
```

### Event 65535.37

#### Metadata

| Field        | Value    |
|--------------|----------|
| Entrypoint   | 0x0413   |
| Data Size    | 32 bytes |
| Instructions | 7        |

```
      00 01 02 03 04 05 06 07  08 09 0A 0B 0C 0D 0E 0F
      -- -- -- -- -- -- -- --  -- -- -- -- -- -- -- --
0410:          32 1C 80 59 01  F8 FF FF 7F 6C 80 4B F8     2..Y.....l.K.
0420: FF FF 7F 6D 80 1C 6E 80  1F 00 6F 80 70 80 51 80  ...m..n...o.p.Q.
0430: 1F 01 00                                          ...             
```

#### Opcodes

```
  0: 0x0413 [0x32] ExtData[1]->MainSpeed = 11* * 0.1
  1: 0x0416 [0x59] UPDATE_ENTITY_DATA: Set EventEntity turn speed = 70*
  2: 0x041E [0x4B] UPDATE_ENTITY_YAW(entity=EventEntity, yaw=0.5°*)
  3: 0x0425 [0x1C] WAIT(50* ticks)
  4: 0x0428 [0x1F] MOVE_ENTITY: EventEntity moves to X=-15.395*, Z=84.928*, Y=-5.000*
  5: 0x0430 [0x1F] MOVE_ENTITY: Update entity position (mode=1)
  6: 0x0432 [0x00] END_REQSTACK()
```

### Event 65535.38

#### Metadata

| Field        | Value    |
|--------------|----------|
| Entrypoint   | 0x0433   |
| Data Size    | 32 bytes |
| Instructions | 7        |

```
      00 01 02 03 04 05 06 07  08 09 0A 0B 0C 0D 0E 0F
      -- -- -- -- -- -- -- --  -- -- -- -- -- -- -- --
0430:          32 3D 80 59 01  F8 FF FF 7F 0B 80 4B F8     2=.Y.......K.
0440: FF FF 7F 6D 80 1C 71 80  1F 00 72 80 73 80 40 80  ...m..q...r.s.@.
0450: 1F 01 00                                          ...             
```

#### Opcodes

```
  0: 0x0433 [0x32] ExtData[1]->MainSpeed = 10* * 0.1
  1: 0x0436 [0x59] UPDATE_ENTITY_DATA: Set EventEntity turn speed = 60*
  2: 0x043E [0x4B] UPDATE_ENTITY_YAW(entity=EventEntity, yaw=0.5°*)
  3: 0x0445 [0x1C] WAIT(40* ticks)
  4: 0x0448 [0x1F] MOVE_ENTITY: EventEntity moves to X=-14.443*, Z=85.850*, Y=-4.999*
  5: 0x0450 [0x1F] MOVE_ENTITY: Update entity position (mode=1)
  6: 0x0452 [0x00] END_REQSTACK()
```

### Event 65535.39

#### Metadata

| Field        | Value    |
|--------------|----------|
| Entrypoint   | 0x0453   |
| Data Size    | 42 bytes |
| Instructions | 9        |

```
      00 01 02 03 04 05 06 07  08 09 0A 0B 0C 0D 0E 0F
      -- -- -- -- -- -- -- --  -- -- -- -- -- -- -- --
0450:          32 1C 80 59 01  F8 FF FF 7F 6C 80 4B F8     2..Y.....l.K.
0460: FF FF 7F 74 80 1C 5E 80  1F 00 75 80 76 80 40 80  ...t..^...u.v.@.
0470: 1F 01 1F 00 77 80 78 80  79 80 1F 01 00           ....w.x.y....   
```

#### Opcodes

```
  0: 0x0453 [0x32] ExtData[1]->MainSpeed = 11* * 0.1
  1: 0x0456 [0x59] UPDATE_ENTITY_DATA: Set EventEntity turn speed = 70*
  2: 0x045E [0x4B] UPDATE_ENTITY_YAW(entity=EventEntity, yaw=0.6°*)
  3: 0x0465 [0x1C] WAIT(30* ticks)
  4: 0x0468 [0x1F] MOVE_ENTITY: EventEntity moves to X=-13.855*, Z=83.832*, Y=-4.999*
  5: 0x0470 [0x1F] MOVE_ENTITY: Update entity position (mode=1)
  6: 0x0472 [0x1F] MOVE_ENTITY: EventEntity moves to X=-12.550*, Z=80.066*, Y=-3.459*
  7: 0x047A [0x1F] MOVE_ENTITY: Update entity position (mode=1)
  8: 0x047C [0x00] END_REQSTACK()
```

### Event 65535.40

#### Metadata

| Field        | Value    |
|--------------|----------|
| Entrypoint   | 0x047D   |
| Data Size    | 10 bytes |
| Instructions | 2        |

```
      00 01 02 03 04 05 06 07  08 09 0A 0B 0C 0D 0E 0F
      -- -- -- -- -- -- -- --  -- -- -- -- -- -- -- --
0470:                                         6C 2C E2               l,.
0480: 05 01 06 80 08 80 00                              .......         
```

#### Opcodes

```
  0: 0x047D [0x6C] FADE_ENTITY_COLOR(entity_id=Zolku-Azolku (ID: 17162796/0x0105E22C), end_alpha=0*, fade_time=1*)
  1: 0x0486 [0x00] END_REQSTACK()
```

### Event 65535.41

#### Metadata

| Field        | Value    |
|--------------|----------|
| Entrypoint   | 0x0487   |
| Data Size    | 10 bytes |
| Instructions | 2        |

```
      00 01 02 03 04 05 06 07  08 09 0A 0B 0C 0D 0E 0F
      -- -- -- -- -- -- -- --  -- -- -- -- -- -- -- --
0480:                      6C  2E E2 05 01 06 80 08 80         l........
0490: 00                                                .               
```

#### Opcodes

```
  0: 0x0487 [0x6C] FADE_ENTITY_COLOR(entity_id=Lutete (ID: 17162798/0x0105E22E), end_alpha=0*, fade_time=1*)
  1: 0x0490 [0x00] END_REQSTACK()
```

### Event 65535.42

#### Metadata

| Field        | Value    |
|--------------|----------|
| Entrypoint   | 0x0491   |
| Data Size    | 10 bytes |
| Instructions | 2        |

```
      00 01 02 03 04 05 06 07  08 09 0A 0B 0C 0D 0E 0F
      -- -- -- -- -- -- -- --  -- -- -- -- -- -- -- --
0490:    6C 2D E2 05 01 06 80  08 80 00                  l-........     
```

#### Opcodes

```
  0: 0x0491 [0x6C] FADE_ENTITY_COLOR(entity_id=Kayeel-Payeel (ID: 17162797/0x0105E22D), end_alpha=0*, fade_time=1*)
  1: 0x049A [0x00] END_REQSTACK()
```

### Event 65535.43

#### Metadata

| Field        | Value    |
|--------------|----------|
| Entrypoint   | 0x049B   |
| Data Size    | 10 bytes |
| Instructions | 2        |

```
      00 01 02 03 04 05 06 07  08 09 0A 0B 0C 0D 0E 0F
      -- -- -- -- -- -- -- --  -- -- -- -- -- -- -- --
0490:                                   6C 2C E2 05 01             l,...
04A0: 0D 80 08 80 00                                    .....           
```

#### Opcodes

```
  0: 0x049B [0x6C] FADE_ENTITY_COLOR(entity_id=Zolku-Azolku (ID: 17162796/0x0105E22C), end_alpha=128*, fade_time=1*)
  1: 0x04A4 [0x00] END_REQSTACK()
```

### Event 65535.44

#### Metadata

| Field        | Value    |
|--------------|----------|
| Entrypoint   | 0x04A5   |
| Data Size    | 10 bytes |
| Instructions | 2        |

```
      00 01 02 03 04 05 06 07  08 09 0A 0B 0C 0D 0E 0F
      -- -- -- -- -- -- -- --  -- -- -- -- -- -- -- --
04A0:                6C 2E E2  05 01 0D 80 08 80 00          l......... 
```

#### Opcodes

```
  0: 0x04A5 [0x6C] FADE_ENTITY_COLOR(entity_id=Lutete (ID: 17162798/0x0105E22E), end_alpha=128*, fade_time=1*)
  1: 0x04AE [0x00] END_REQSTACK()
```

### Event 65535.45

#### Metadata

| Field        | Value    |
|--------------|----------|
| Entrypoint   | 0x04AF   |
| Data Size    | 10 bytes |
| Instructions | 2        |

```
      00 01 02 03 04 05 06 07  08 09 0A 0B 0C 0D 0E 0F
      -- -- -- -- -- -- -- --  -- -- -- -- -- -- -- --
04A0:                                               6C                 l
04B0: 2D E2 05 01 0D 80 08 80  00                       -........       
```

#### Opcodes

```
  0: 0x04AF [0x6C] FADE_ENTITY_COLOR(entity_id=Kayeel-Payeel (ID: 17162797/0x0105E22D), end_alpha=128*, fade_time=1*)
  1: 0x04B8 [0x00] END_REQSTACK()
```

### Event 65535.46

#### Metadata

| Field        | Value    |
|--------------|----------|
| Entrypoint   | 0x04B9   |
| Data Size    | 10 bytes |
| Instructions | 2        |

```
      00 01 02 03 04 05 06 07  08 09 0A 0B 0C 0D 0E 0F
      -- -- -- -- -- -- -- --  -- -- -- -- -- -- -- --
04B0:                             6C F8 FF FF 7F 06 80           l......
04C0: 08 80 00                                          ...             
```

#### Opcodes

```
  0: 0x04B9 [0x6C] FADE_ENTITY_COLOR(entity_id=EventEntity, end_alpha=0*, fade_time=1*)
  1: 0x04C2 [0x00] END_REQSTACK()
```

### Event 65535.47

#### Metadata

| Field        | Value    |
|--------------|----------|
| Entrypoint   | 0x04C3   |
| Data Size    | 10 bytes |
| Instructions | 2        |

```
      00 01 02 03 04 05 06 07  08 09 0A 0B 0C 0D 0E 0F
      -- -- -- -- -- -- -- --  -- -- -- -- -- -- -- --
04C0:          6C F8 FF FF 7F  0D 80 08 80 00              l.........   
```

#### Opcodes

```
  0: 0x04C3 [0x6C] FADE_ENTITY_COLOR(entity_id=EventEntity, end_alpha=128*, fade_time=1*)
  1: 0x04CC [0x00] END_REQSTACK()
```

### Event 65535.48

#### Metadata

| Field        | Value    |
|--------------|----------|
| Entrypoint   | 0x04CD   |
| Data Size    | 23 bytes |
| Instructions | 5        |

```
      00 01 02 03 04 05 06 07  08 09 0A 0B 0C 0D 0E 0F
      -- -- -- -- -- -- -- --  -- -- -- -- -- -- -- --
04C0:                                         32 7A 80               2z.
04D0: 1F 00 7B 80 7C 80 51 80  1F 01 4A F8 FF FF 7F 36  ..{.|.Q...J....6
04E0: E2 05 01 00                                       ....            
```

#### Opcodes

```
  0: 0x04CD [0x32] ExtData[1]->MainSpeed = 12* * 0.1
  1: 0x04D0 [0x1F] MOVE_ENTITY: EventEntity moves to X=-25.048*, Z=86.708*, Y=-5.000*
  2: 0x04D8 [0x1F] MOVE_ENTITY: Update entity position (mode=1)
  3: 0x04DA [0x4A] EventEntity looks at Lehko Habhoka (ID: 17162806/0x0105E236)
  4: 0x04E3 [0x00] END_REQSTACK()
```

### Event 65535.49

#### Metadata

| Field        | Value    |
|--------------|----------|
| Entrypoint   | 0x04E4   |
| Data Size    | 14 bytes |
| Instructions | 4        |

```
      00 01 02 03 04 05 06 07  08 09 0A 0B 0C 0D 0E 0F
      -- -- -- -- -- -- -- --  -- -- -- -- -- -- -- --
04E0:             32 7A 80 1F  00 7D 80 7E 80 51 80 1F      2z...}.~.Q..
04F0: 01 00                                             ..              
```

#### Opcodes

```
  0: 0x04E4 [0x32] ExtData[1]->MainSpeed = 12* * 0.1
  1: 0x04E7 [0x1F] MOVE_ENTITY: EventEntity moves to X=-34.872*, Z=91.381*, Y=-5.000*
  2: 0x04EF [0x1F] MOVE_ENTITY: Update entity position (mode=1)
  3: 0x04F1 [0x00] END_REQSTACK()
```

### Event 65535.50

#### Metadata

| Field        | Value    |
|--------------|----------|
| Entrypoint   | 0x04F2   |
| Data Size    | 27 bytes |
| Instructions | 7        |

```
      00 01 02 03 04 05 06 07  08 09 0A 0B 0C 0D 0E 0F
      -- -- -- -- -- -- -- --  -- -- -- -- -- -- -- --
04F0:       32 3D 80 1F 00 7F  80 80 80 40 80 1F 01 6F    2=.......@...o
0500: 6E F8 FF FF 7F 81 80 99  F8 FF FF 7F 00           n............   
```

#### Opcodes

```
  0: 0x04F2 [0x32] ExtData[1]->MainSpeed = 10* * 0.1
  1: 0x04F5 [0x1F] MOVE_ENTITY: EventEntity moves to X=-18.616*, Z=86.135*, Y=-4.999*
  2: 0x04FD [0x1F] MOVE_ENTITY: Update entity position (mode=1)
  3: 0x04FF [0x6F] WAIT_FRAME_DELAY: Yield until WaitTime reaches zero
  4: 0x0500 [0x6E] EventEntity uses emote 20*
  5: 0x0507 [0x99] Wait for EventEntity animation to complete
  6: 0x050C [0x00] END_REQSTACK()
```

### Event 65535.51

#### Metadata

| Field        | Value   |
|--------------|---------|
| Entrypoint   | 0x050D  |
| Data Size    | 4 bytes |
| Instructions | 2       |

```
      00 01 02 03 04 05 06 07  08 09 0A 0B 0C 0D 0E 0F
      -- -- -- -- -- -- -- --  -- -- -- -- -- -- -- --
0500:                                         39 03 10               9..
0510: 00                                                .               
```

#### Opcodes

```
  0: 0x050D [0x39] SET_ENTITY_DIRECTION(direction=Work_Zone[3])
  1: 0x0510 [0x00] END_REQSTACK()
```
