# 17162969 - 06

## Common Data

| Field            | Value                        |
|------------------|------------------------------|
| Zone             | Windurst Waters [S] (ID: 94) |
| Block Size       | 208 bytes                    |
| Total Events     | 4                            |
| References Count | 23                           |

## List of Events

| Event ID                 | Entrypoint   |   Size |   Instructions |
|--------------------------|--------------|--------|----------------|
| [65535](#event-65535)    | 0x0000       |      1 |              1 |
| [23](#event-23)          | 0x0001       |      1 |              1 |
| [65535.1](#event-655351) | 0x0002       |     17 |              5 |
| [65535.2](#event-655352) | 0x0013       |     64 |             14 |

## DAT References (imed_data)

|   Index | Hex Value   |   Dec Value |
|---------|-------------|-------------|
|       0 | 0x0023      |          35 |
|       1 | 0x012C      |         300 |
|       2 | 0xFFFFCA19  |  4294953497 |
|       3 | 0xFFFFB845  |  4294948933 |
|       4 | 0x01F3      |         499 |
|       5 | 0x0025      |          37 |
|       6 | 0xFFFFDF2D  |  4294958893 |
|       7 | 0x1EC59     |      126041 |
|       8 | 0xFFFFC180  |  4294951296 |
|       9 | 0xFFFFE362  |  4294959970 |
|      10 | 0x1EC2E     |      125998 |
|      11 | 0xFFFFC181  |  4294951297 |
|      12 | 0xFFFFED01  |  4294962433 |
|      13 | 0x1EE52     |      126546 |
|      14 | 0xFFFFC086  |  4294951046 |
|      15 | 0xFFFFF13B  |  4294963515 |
|      16 | 0x1EB55     |      125781 |
|      17 | 0xFFFFC087  |  4294951047 |
|      18 | 0xFFFFF971  |  4294965617 |
|      19 | 0x1F56C     |      128364 |
|      20 | 0xFFFFBE93  |  4294950547 |
|      21 | 0x053E      |        1342 |
|      22 | 0x23F9C     |      147356 |

## Events

### Event 65535

#### Metadata

| Field        | Value   |
|--------------|---------|
| Entrypoint   | 0x0000  |
| Data Size    | 1 bytes |
| Instructions | 1       |

```
      00 01 02 03 04 05 06 07  08 09 0A 0B 0C 0D 0E 0F
      -- -- -- -- -- -- -- --  -- -- -- -- -- -- -- --
0000: 00                                                .               
```

#### Opcodes

```
  0: 0x0000 [0x00] END_REQSTACK()
```

### Event 23

#### Metadata

| Field        | Value   |
|--------------|---------|
| Entrypoint   | 0x0001  |
| Data Size    | 1 bytes |
| Instructions | 1       |

```
      00 01 02 03 04 05 06 07  08 09 0A 0B 0C 0D 0E 0F
      -- -- -- -- -- -- -- --  -- -- -- -- -- -- -- --
0000:    00                                              .              
```

#### Opcodes

```
  0: 0x0001 [0x00] END_REQSTACK()
```

### Event 65535.1

#### Metadata

| Field        | Value    |
|--------------|----------|
| Entrypoint   | 0x0002   |
| Data Size    | 17 bytes |
| Instructions | 5        |

```
      00 01 02 03 04 05 06 07  08 09 0A 0B 0C 0D 0E 0F
      -- -- -- -- -- -- -- --  -- -- -- -- -- -- -- --
0000:       32 00 80 1C 01 80  1F 00 02 80 03 80 04 80    2.............
0010: 1F 01 00                                          ...             
```

#### Opcodes

```
  0: 0x0002 [0x32] ExtData[1]->MainSpeed = 35* * 0.1
  1: 0x0005 [0x1C] WAIT(300* ticks)
  2: 0x0008 [0x1F] MOVE_ENTITY: EventEntity moves to X=-13.799*, Z=-18.363*, Y=0.499*
  3: 0x0010 [0x1F] MOVE_ENTITY: Update entity position (mode=1)
  4: 0x0012 [0x00] END_REQSTACK()
```

### Event 65535.2

#### Metadata

| Field        | Value    |
|--------------|----------|
| Entrypoint   | 0x0013   |
| Data Size    | 64 bytes |
| Instructions | 14       |

```
      00 01 02 03 04 05 06 07  08 09 0A 0B 0C 0D 0E 0F
      -- -- -- -- -- -- -- --  -- -- -- -- -- -- -- --
0010:          32 05 80 1F 00  06 80 07 80 08 80 1F 01     2............
0020: 1F 00 09 80 0A 80 0B 80  1F 01 1F 00 0C 80 0D 80  ................
0030: 0E 80 1F 01 1F 00 0F 80  10 80 11 80 1F 01 1F 00  ................
0040: 12 80 13 80 14 80 1F 01  1F 00 15 80 16 80 14 80  ................
0050: 1F 01 00                                          ...             
```

#### Opcodes

```
  0: 0x0013 [0x32] ExtData[1]->MainSpeed = 37* * 0.1
  1: 0x0016 [0x1F] MOVE_ENTITY: EventEntity moves to X=-8.403*, Z=126.041*, Y=-16.000*
  2: 0x001E [0x1F] MOVE_ENTITY: Update entity position (mode=1)
  3: 0x0020 [0x1F] MOVE_ENTITY: EventEntity moves to X=-7.326*, Z=125.998*, Y=-15.999*
  4: 0x0028 [0x1F] MOVE_ENTITY: Update entity position (mode=1)
  5: 0x002A [0x1F] MOVE_ENTITY: EventEntity moves to X=-4.863*, Z=126.546*, Y=-16.250*
  6: 0x0032 [0x1F] MOVE_ENTITY: Update entity position (mode=1)
  7: 0x0034 [0x1F] MOVE_ENTITY: EventEntity moves to X=-3.781*, Z=125.781*, Y=-16.249*
  8: 0x003C [0x1F] MOVE_ENTITY: Update entity position (mode=1)
  9: 0x003E [0x1F] MOVE_ENTITY: EventEntity moves to X=-1.679*, Z=128.364*, Y=-16.749*
 10: 0x0046 [0x1F] MOVE_ENTITY: Update entity position (mode=1)
 11: 0x0048 [0x1F] MOVE_ENTITY: EventEntity moves to X=1.342*, Z=147.356*, Y=-16.749*
 12: 0x0050 [0x1F] MOVE_ENTITY: Update entity position (mode=1)
 13: 0x0052 [0x00] END_REQSTACK()
```
