# 17162760 - Romaa Mihgo

## Common Data

| Field            | Value                        |
|------------------|------------------------------|
| Zone             | Windurst Waters [S] (ID: 94) |
| Block Size       | 3532 bytes                   |
| Total Events     | 140                          |
| References Count | 176                          |

## List of Events

| Event ID                     | Entrypoint   |   Size |   Instructions |
|------------------------------|--------------|--------|----------------|
| [65535](#event-65535)        | 0x0000       |      1 |              1 |
| [128](#event-128)            | 0x0001       |      1 |              1 |
| [106](#event-106)            | 0x0002       |      1 |              1 |
| [134](#event-134)            | 0x0003       |      1 |              1 |
| [151](#event-151)            | 0x0004       |      1 |              1 |
| [65535.1](#event-655351)     | 0x0005       |     25 |              7 |
| [65535.2](#event-655352)     | 0x001E       |     15 |              5 |
| [65535.3](#event-655353)     | 0x002D       |     18 |              6 |
| [65535.4](#event-655354)     | 0x003F       |      4 |              2 |
| [65535.5](#event-655355)     | 0x0043       |     15 |              5 |
| [65535.6](#event-655356)     | 0x0052       |     19 |              3 |
| [324](#event-324)            | 0x0065       |     18 |              6 |
| [152](#event-152)            | 0x0077       |     26 |              8 |
| [154](#event-154)            | 0x0091       |     31 |              9 |
| [155](#event-155)            | 0x00B0       |     18 |              6 |
| [156](#event-156)            | 0x00C2       |     18 |              6 |
| [157](#event-157)            | 0x00D4       |     26 |              8 |
| [232](#event-232)            | 0x00EE       |      1 |              1 |
| [65535.7](#event-655357)     | 0x00EF       |     20 |              6 |
| [158](#event-158)            | 0x0103       |      1 |              1 |
| [159](#event-159)            | 0x0104       |      1 |              1 |
| [165](#event-165)            | 0x0105       |      1 |              1 |
| [168](#event-168)            | 0x0106       |      1 |              1 |
| [176](#event-176)            | 0x0107       |     26 |              8 |
| [189](#event-189)            | 0x0121       |     18 |              6 |
| [190](#event-190)            | 0x0133       |     18 |              6 |
| [65535.8](#event-655358)     | 0x0145       |     20 |              6 |
| [65535.9](#event-655359)     | 0x0159       |     36 |              4 |
| [65535.10](#event-6553510)   | 0x017D       |     15 |              5 |
| [65535.11](#event-6553511)   | 0x018C       |     20 |              6 |
| [182](#event-182)            | 0x01A0       |      1 |              1 |
| [65535.12](#event-6553512)   | 0x01A1       |     21 |              5 |
| [29](#event-29)              | 0x01B6       |     23 |              7 |
| [30](#event-30)              | 0x01CD       |     23 |              7 |
| [38](#event-38)              | 0x01E4       |     18 |              6 |
| [39](#event-39)              | 0x01F6       |     18 |              6 |
| [45](#event-45)              | 0x0208       |     26 |              8 |
| [22](#event-22)              | 0x0222       |      1 |              1 |
| [25](#event-25)              | 0x0223       |      1 |              1 |
| [65535.13](#event-6553513)   | 0x0224       |      1 |              1 |
| [65535.14](#event-6553514)   | 0x0225       |     18 |              4 |
| [65535.15](#event-6553515)   | 0x0237       |     10 |              2 |
| [65535.16](#event-6553516)   | 0x0241       |      9 |              3 |
| [65535.17](#event-6553517)   | 0x024A       |      9 |              3 |
| [65535.18](#event-6553518)   | 0x0253       |     10 |              2 |
| [65535.19](#event-6553519)   | 0x025D       |     10 |              2 |
| [31](#event-31)              | 0x0267       |      1 |              1 |
| [32](#event-32)              | 0x0268       |      1 |              1 |
| [43](#event-43)              | 0x0269       |      1 |              1 |
| [65535.20](#event-6553520)   | 0x026A       |     45 |              9 |
| [65535.21](#event-6553521)   | 0x0297       |     21 |              5 |
| [65535.22](#event-6553522)   | 0x02AC       |     33 |              8 |
| [65535.23](#event-6553523)   | 0x02CD       |     11 |              3 |
| [65535.24](#event-6553524)   | 0x02D8       |     27 |              5 |
| [65535.25](#event-6553525)   | 0x02F3       |     11 |              3 |
| [65535.26](#event-6553526)   | 0x02FE       |     11 |              3 |
| [65535.27](#event-6553527)   | 0x0309       |     21 |              5 |
| [65535.28](#event-6553528)   | 0x031E       |     23 |              7 |
| [65535.29](#event-6553529)   | 0x0335       |     27 |              5 |
| [65535.30](#event-6553530)   | 0x0350       |     13 |              3 |
| [65535.31](#event-6553531)   | 0x035D       |     11 |              3 |
| [65535.32](#event-6553532)   | 0x0368       |      7 |              3 |
| [65535.33](#event-6553533)   | 0x036F       |     20 |              6 |
| [65535.34](#event-6553534)   | 0x0383       |      4 |              2 |
| [65535.35](#event-6553535)   | 0x0387       |     14 |              4 |
| [65535.36](#event-6553536)   | 0x0395       |     11 |              3 |
| [65535.37](#event-6553537)   | 0x03A0       |     14 |              4 |
| [65535.38](#event-6553538)   | 0x03AE       |     14 |              4 |
| [65535.39](#event-6553539)   | 0x03BC       |     10 |              2 |
| [65535.40](#event-6553540)   | 0x03C6       |     10 |              2 |
| [65535.41](#event-6553541)   | 0x03D0       |     30 |              8 |
| [33](#event-33)              | 0x03EE       |      1 |              1 |
| [65535.42](#event-6553542)   | 0x03EF       |     20 |              6 |
| [65535.43](#event-6553543)   | 0x0403       |     14 |              4 |
| [65535.44](#event-6553544)   | 0x0411       |     60 |             14 |
| [65535.45](#event-6553545)   | 0x044D       |     14 |              4 |
| [23](#event-23)              | 0x045B       |      1 |              1 |
| [24](#event-24)              | 0x045C       |      1 |              1 |
| [65535.46](#event-6553546)   | 0x045D       |     16 |              4 |
| [65535.47](#event-6553547)   | 0x046D       |     15 |              5 |
| [65535.48](#event-6553548)   | 0x047C       |     11 |              3 |
| [65535.49](#event-6553549)   | 0x0487       |     41 |              9 |
| [65535.50](#event-6553550)   | 0x04B0       |     34 |              8 |
| [28](#event-28)              | 0x04D2       |     23 |              7 |
| [65535.51](#event-6553551)   | 0x04E9       |     49 |             10 |
| [65535.52](#event-6553552)   | 0x051A       |     44 |              7 |
| [65535.53](#event-6553553)   | 0x0546       |     40 |              5 |
| [65535.54](#event-6553554)   | 0x056E       |     21 |              5 |
| [65535.55](#event-6553555)   | 0x0583       |     20 |              5 |
| [65535.56](#event-6553556)   | 0x0597       |     20 |              5 |
| [65535.57](#event-6553557)   | 0x05AB       |     20 |              5 |
| [65535.58](#event-6553558)   | 0x05BF       |     16 |              2 |
| [65535.59](#event-6553559)   | 0x05CF       |     14 |              2 |
| [65535.60](#event-6553560)   | 0x05DD       |     16 |              2 |
| [65535.61](#event-6553561)   | 0x05ED       |     14 |              2 |
| [65535.62](#event-6553562)   | 0x05FB       |     16 |              2 |
| [65535.63](#event-6553563)   | 0x060B       |     14 |              2 |
| [65535.64](#event-6553564)   | 0x0619       |     16 |              2 |
| [65535.65](#event-6553565)   | 0x0629       |     14 |              2 |
| [65535.66](#event-6553566)   | 0x0637       |      9 |              3 |
| [65535.67](#event-6553567)   | 0x0640       |     18 |              4 |
| [65535.68](#event-6553568)   | 0x0652       |     27 |              3 |
| [65535.69](#event-6553569)   | 0x066D       |     27 |              3 |
| [65535.70](#event-6553570)   | 0x0688       |     27 |              3 |
| [65535.71](#event-6553571)   | 0x06A3       |     16 |              2 |
| [65535.72](#event-6553572)   | 0x06B3       |     14 |              2 |
| [65535.73](#event-6553573)   | 0x06C1       |     16 |              2 |
| [65535.74](#event-6553574)   | 0x06D1       |     14 |              2 |
| [65535.75](#event-6553575)   | 0x06DF       |     16 |              2 |
| [65535.76](#event-6553576)   | 0x06EF       |     14 |              2 |
| [65535.77](#event-6553577)   | 0x06FD       |     16 |              2 |
| [65535.78](#event-6553578)   | 0x070D       |     14 |              2 |
| [65535.79](#event-6553579)   | 0x071B       |     16 |              2 |
| [65535.80](#event-6553580)   | 0x072B       |     14 |              2 |
| [65535.81](#event-6553581)   | 0x0739       |     22 |              3 |
| [65535.82](#event-6553582)   | 0x074F       |     14 |              2 |
| [65535.83](#event-6553583)   | 0x075D       |     16 |              2 |
| [65535.84](#event-6553584)   | 0x076D       |     20 |              3 |
| [65535.85](#event-6553585)   | 0x0781       |     16 |              2 |
| [65535.86](#event-6553586)   | 0x0791       |     14 |              2 |
| [65535.87](#event-6553587)   | 0x079F       |     16 |              2 |
| [65535.88](#event-6553588)   | 0x07AF       |     14 |              2 |
| [65535.89](#event-6553589)   | 0x07BD       |     16 |              2 |
| [65535.90](#event-6553590)   | 0x07CD       |     14 |              2 |
| [65535.91](#event-6553591)   | 0x07DB       |     16 |              2 |
| [65535.92](#event-6553592)   | 0x07EB       |     14 |              2 |
| [65535.93](#event-6553593)   | 0x07F9       |     16 |              2 |
| [65535.94](#event-6553594)   | 0x0809       |     14 |              2 |
| [65535.95](#event-6553595)   | 0x0817       |     16 |              2 |
| [65535.96](#event-6553596)   | 0x0827       |     14 |              2 |
| [65535.97](#event-6553597)   | 0x0835       |     16 |              2 |
| [65535.98](#event-6553598)   | 0x0845       |     14 |              2 |
| [65535.99](#event-6553599)   | 0x0853       |     22 |              3 |
| [65535.100](#event-65535100) | 0x0869       |     14 |              2 |
| [65535.101](#event-65535101) | 0x0877       |     16 |              2 |
| [65535.102](#event-65535102) | 0x0887       |     20 |              3 |
| [528](#event-528)            | 0x089B       |     19 |              7 |
| [529](#event-529)            | 0x08AE       |     14 |              6 |
| [530](#event-530)            | 0x08BC       |      1 |              1 |
| [65535.103](#event-65535103) | 0x08BD       |     14 |              4 |

## DAT References (imed_data)

|   Index | Hex Value   |   Dec Value |
|---------|-------------|-------------|
|       0 | 0x000D      |          13 |
|       1 | 0x114B      |        4427 |
|       2 | 0x8CC3      |       36035 |
|       3 | 0xFFFFFC18  |  4294966296 |
|       4 | 0x0FF5      |        4085 |
|       5 | 0x7416      |       29718 |
|       6 | 0x06C5      |        1733 |
|       7 | 0x3295      |       12949 |
|       8 | 0xFFFFFC19  |  4294966297 |
|       9 | 0x0C1C      |        3100 |
|      10 | 0x0898      |        2200 |
|      11 | 0x000F      |          15 |
|      12 | 0xFFFFF866  |  4294965350 |
|      13 | 0x4064      |       16484 |
|      14 | 0x0708      |        1800 |
|      15 | 0x052E      |        1326 |
|      16 | 0x001E      |          30 |
|      17 | 0x2A70      |       10864 |
|      18 | 0x2C10      |       11280 |
|      19 | 0x2C11      |       11281 |
|      20 | 0x164C      |        5708 |
|      21 | 0x2BAD      |       11181 |
|      22 | 0x2BAE      |       11182 |
|      23 | 0x2C12      |       11282 |
|      24 | 0x2C13      |       11283 |
|      25 | 0x2C14      |       11284 |
|      26 | 0x2C15      |       11285 |
|      27 | 0xFFFEDFE9  |  4294893545 |
|      28 | 0x150B7     |       86199 |
|      29 | 0xFFFFEC79  |  4294962297 |
|      30 | 0x3353      |       13139 |
|      31 | 0x3354      |       13140 |
|      32 | 0x33A6      |       13222 |
|      33 | 0x33A7      |       13223 |
|      34 | 0x0935      |        2357 |
|      35 | 0x37EF      |       14319 |
|      36 | 0x0078      |         120 |
|      37 | 0x0175      |         373 |
|      38 | 0x0000      |           0 |
|      39 | 0xFFFFF92C  |  4294965548 |
|      40 | 0x79E8      |       31208 |
|      41 | 0xFFFF5D77  |  4294925687 |
|      42 | 0x337B3     |      210867 |
|      43 | 0xFFFFEB93  |  4294962067 |
|      44 | 0xFFFF6D4B  |  4294929739 |
|      45 | 0x36C81     |      224385 |
|      46 | 0xFFFFED10  |  4294962448 |
|      47 | 0x49B7      |       18871 |
|      48 | 0x3576      |       13686 |
|      49 | 0x48B6      |       18614 |
|      50 | 0x3577      |       13687 |
|      51 | 0x3651      |       13905 |
|      52 | 0x3641      |       13889 |
|      53 | 0x34D5      |       13525 |
|      54 | 0x34D6      |       13526 |
|      55 | 0x0001      |           1 |
|      56 | 0x0080      |         128 |
|      57 | 0x000C      |          12 |
|      58 | 0x0E33      |        3635 |
|      59 | 0x89E6      |       35302 |
|      60 | 0x052F      |        1327 |
|      61 | 0xFFFFF927  |  4294965543 |
|      62 | 0x3863      |       14435 |
|      63 | 0x003C      |          60 |
|      64 | 0x0008      |           8 |
|      65 | 0xFFFFDBFF  |  4294958079 |
|      66 | 0xFFFFDCA7  |  4294958247 |
|      67 | 0xFFFFF753  |  4294965075 |
|      68 | 0xFFFF5CD8  |  4294925528 |
|      69 | 0x36262     |      221794 |
|      70 | 0xFFFFEC5A  |  4294962266 |
|      71 | 0xFFFF5EE6  |  4294926054 |
|      72 | 0x357A3     |      219043 |
|      73 | 0xFFFF54FC  |  4294923516 |
|      74 | 0x30170     |      196976 |
|      75 | 0xFFFFEA97  |  4294961815 |
|      76 | 0x7BE0      |       31712 |
|      77 | 0x048A      |        1162 |
|      78 | 0xFFFF9A71  |  4294941297 |
|      79 | 0xFFFFF0B1  |  4294963377 |
|      80 | 0x05FA      |        1530 |
|      81 | 0xFFFF9C64  |  4294941796 |
|      82 | 0xFFFFF908  |  4294965512 |
|      83 | 0x0478      |        1144 |
|      84 | 0xFFFF9C65  |  4294941797 |
|      85 | 0x099A      |        2458 |
|      86 | 0x0BAB      |        2987 |
|      87 | 0xFFFFEC80  |  4294962304 |
|      88 | 0x092B      |        2347 |
|      89 | 0x0906      |        2310 |
|      90 | 0x321C      |       12828 |
|      91 | 0xFFFFED21  |  4294962465 |
|      92 | 0x02ED      |         749 |
|      93 | 0xFFFFFCFF  |  4294966527 |
|      94 | 0x3CD7      |       15575 |
|      95 | 0x07D0      |        2000 |
|      96 | 0x0028      |          40 |
|      97 | 0xFFFF5D8F  |  4294925711 |
|      98 | 0x14EA9     |       85673 |
|      99 | 0xFFFFEC78  |  4294962296 |
|     100 | 0xFFFF9AA8  |  4294941352 |
|     101 | 0x13C9C     |       81052 |
|     102 | 0xFFFFECC6  |  4294962374 |
|     103 | 0xFFFF7D13  |  4294933779 |
|     104 | 0x10467     |       66663 |
|     105 | 0xFFFFF254  |  4294963796 |
|     106 | 0xFFFF9C36  |  4294941750 |
|     107 | 0x14474     |       83060 |
|     108 | 0xFFFFEC9E  |  4294962334 |
|     109 | 0xFFFF6395  |  4294927253 |
|     110 | 0x366F7     |      222967 |
|     111 | 0xFFFFEC74  |  4294962292 |
|     112 | 0xFFFF6180  |  4294926720 |
|     113 | 0x35176     |      217462 |
|     114 | 0xFFFFFEA1  |  4294966945 |
|     115 | 0x08FA      |        2298 |
|     116 | 0xFFFFF5FF  |  4294964735 |
|     117 | 0x06BE      |        1726 |
|     118 | 0xFFFFEF7B  |  4294963067 |
|     119 | 0x0198      |         408 |
|     120 | 0xFFFFE717  |  4294960919 |
|     121 | 0x0274      |         628 |
|     122 | 0xFFFFE04C  |  4294959180 |
|     123 | 0x062F      |        1583 |
|     124 | 0xFFFA75CF  |  4294604239 |
|     125 | 0xFFFA021A  |  4294574618 |
|     126 | 0x0EE5      |        3813 |
|     127 | 0xFFFF641C  |  4294927388 |
|     128 | 0x3313E     |      209214 |
|     129 | 0xFFFFEC69  |  4294962281 |
|     130 | 0xFFFF63EE  |  4294927342 |
|     131 | 0x35BEB     |      220139 |
|     132 | 0x7C40      |       31808 |
|     133 | 0x00A2      |         162 |
|     134 | 0x7189      |       29065 |
|     135 | 0x09DC      |        2524 |
|     136 | 0x49F7      |       18935 |
|     137 | 0xFFFFFF98  |  4294967192 |
|     138 | 0x2519      |        9497 |
|     139 | 0xFFFFEE99  |  4294962841 |
|     140 | 0x0023      |          35 |
|     141 | 0xFFFFEA76  |  4294961782 |
|     142 | 0xFFFFE636  |  4294960694 |
|     143 | 0x1582      |        5506 |
|     144 | 0xFFFFE544  |  4294960452 |
|     145 | 0x35E5      |       13797 |
|     146 | 0x0193      |         403 |
|     147 | 0xB9A3      |       47523 |
|     148 | 0x049A      |        1178 |
|     149 | 0xBD95      |       48533 |
|     150 | 0x05C5      |        1477 |
|     151 | 0xBFAB      |       49067 |
|     152 | 0xFFFFCA5B  |  4294953563 |
|     153 | 0x14A8F     |       84623 |
|     154 | 0x096F      |        2415 |
|     155 | 0x002D      |          45 |
|     156 | 0xFFFFC497  |  4294952087 |
|     157 | 0x14A26     |       84518 |
|     158 | 0x09CA      |        2506 |
|     159 | 0x43AD      |       17325 |
|     160 | 0x01E6      |         486 |
|     161 | 0x39C9      |       14793 |
|     162 | 0xFFFFF218  |  4294963736 |
|     163 | 0xF5CD      |       62925 |
|     164 | 0x003B      |          59 |
|     165 | 0x0019      |          25 |
|     166 | 0x0530      |        1328 |
|     167 | 0x0563      |        1379 |
|     168 | 0x05F9      |        1529 |
|     169 | 0x096E      |        2414 |
|     170 | 0x09CE      |        2510 |
|     171 | 0x3AB4      |       15028 |
|     172 | 0x3AB5      |       15029 |
|     173 | 0xFFFFFAED  |  4294965997 |
|     174 | 0xFFFF9E61  |  4294942305 |
|     175 | 0xFFFFF830  |  4294965296 |

## String References

- **15028**: What's this scroll? I can't tell arcane writings from a child's scrrribblings!
- **15029**: If it isn't <Player>, looking healthy as everrr. Things here've gotten so busy that I'm having to call on the cubs for a bit of help!

## Events

### Event 65535

#### Metadata

| Field        | Value   |
|--------------|---------|
| Entrypoint   | 0x0000  |
| Data Size    | 1 bytes |
| Instructions | 1       |

```
      00 01 02 03 04 05 06 07  08 09 0A 0B 0C 0D 0E 0F
      -- -- -- -- -- -- -- --  -- -- -- -- -- -- -- --
0000: 00                                                .               
```

#### Opcodes

```
  0: 0x0000 [0x00] END_REQSTACK()
```

### Event 128

#### Metadata

| Field        | Value   |
|--------------|---------|
| Entrypoint   | 0x0001  |
| Data Size    | 1 bytes |
| Instructions | 1       |

```
      00 01 02 03 04 05 06 07  08 09 0A 0B 0C 0D 0E 0F
      -- -- -- -- -- -- -- --  -- -- -- -- -- -- -- --
0000:    00                                              .              
```

#### Opcodes

```
  0: 0x0001 [0x00] END_REQSTACK()
```

### Event 106

#### Metadata

| Field        | Value   |
|--------------|---------|
| Entrypoint   | 0x0002  |
| Data Size    | 1 bytes |
| Instructions | 1       |

```
      00 01 02 03 04 05 06 07  08 09 0A 0B 0C 0D 0E 0F
      -- -- -- -- -- -- -- --  -- -- -- -- -- -- -- --
0000:       00                                            .             
```

#### Opcodes

```
  0: 0x0002 [0x00] END_REQSTACK()
```

### Event 134

#### Metadata

| Field        | Value   |
|--------------|---------|
| Entrypoint   | 0x0003  |
| Data Size    | 1 bytes |
| Instructions | 1       |

```
      00 01 02 03 04 05 06 07  08 09 0A 0B 0C 0D 0E 0F
      -- -- -- -- -- -- -- --  -- -- -- -- -- -- -- --
0000:          00                                          .            
```

#### Opcodes

```
  0: 0x0003 [0x00] END_REQSTACK()
```

### Event 151

#### Metadata

| Field        | Value   |
|--------------|---------|
| Entrypoint   | 0x0004  |
| Data Size    | 1 bytes |
| Instructions | 1       |

```
      00 01 02 03 04 05 06 07  08 09 0A 0B 0C 0D 0E 0F
      -- -- -- -- -- -- -- --  -- -- -- -- -- -- -- --
0000:             00                                        .           
```

#### Opcodes

```
  0: 0x0004 [0x00] END_REQSTACK()
```

### Event 65535.1

#### Metadata

| Field        | Value    |
|--------------|----------|
| Entrypoint   | 0x0005   |
| Data Size    | 25 bytes |
| Instructions | 7        |

```
      00 01 02 03 04 05 06 07  08 09 0A 0B 0C 0D 0E 0F
      -- -- -- -- -- -- -- --  -- -- -- -- -- -- -- --
0000:                1E FE E1  05 01 32 00 80 1F 00 01       .....2.....
0010: 80 02 80 03 80 1F 01 6F  1E FE E1 05 01 00        .......o......  
```

#### Opcodes

```
  0: 0x0005 [0x1E] EventEntity looks at Miah Riyuh (ID: 17162750/0x0105E1FE) and starts talking
  1: 0x000A [0x32] ExtData[1]->MainSpeed = 13* * 0.1
  2: 0x000D [0x1F] MOVE_ENTITY: EventEntity moves to X=4.427*, Z=36.035*, Y=-1.000*
  3: 0x0015 [0x1F] MOVE_ENTITY: Update entity position (mode=1)
  4: 0x0017 [0x6F] WAIT_FRAME_DELAY: Yield until WaitTime reaches zero
  5: 0x0018 [0x1E] EventEntity looks at Miah Riyuh (ID: 17162750/0x0105E1FE) and starts talking
  6: 0x001D [0x00] END_REQSTACK()
```

### Event 65535.2

#### Metadata

| Field        | Value    |
|--------------|----------|
| Entrypoint   | 0x001E   |
| Data Size    | 15 bytes |
| Instructions | 5        |

```
      00 01 02 03 04 05 06 07  08 09 0A 0B 0C 0D 0E 0F
      -- -- -- -- -- -- -- --  -- -- -- -- -- -- -- --
0010:                                            32 00                2.
0020: 80 1F 00 04 80 05 80 03  80 1F 01 6F 00           ...........o.   
```

#### Opcodes

```
  0: 0x001E [0x32] ExtData[1]->MainSpeed = 13* * 0.1
  1: 0x0021 [0x1F] MOVE_ENTITY: EventEntity moves to X=4.085*, Z=29.718*, Y=-1.000*
  2: 0x0029 [0x1F] MOVE_ENTITY: Update entity position (mode=1)
  3: 0x002B [0x6F] WAIT_FRAME_DELAY: Yield until WaitTime reaches zero
  4: 0x002C [0x00] END_REQSTACK()
```

### Event 65535.3

#### Metadata

| Field        | Value    |
|--------------|----------|
| Entrypoint   | 0x002D   |
| Data Size    | 18 bytes |
| Instructions | 6        |

```
      00 01 02 03 04 05 06 07  08 09 0A 0B 0C 0D 0E 0F
      -- -- -- -- -- -- -- --  -- -- -- -- -- -- -- --
0020:                                         32 00 80               2..
0030: 1F 00 06 80 07 80 08 80  1F 01 6F 39 09 80 00     ..........o9... 
```

#### Opcodes

```
  0: 0x002D [0x32] ExtData[1]->MainSpeed = 13* * 0.1
  1: 0x0030 [0x1F] MOVE_ENTITY: EventEntity moves to X=1.733*, Z=12.949*, Y=-0.999*
  2: 0x0038 [0x1F] MOVE_ENTITY: Update entity position (mode=1)
  3: 0x003A [0x6F] WAIT_FRAME_DELAY: Yield until WaitTime reaches zero
  4: 0x003B [0x39] SET_ENTITY_DIRECTION(direction=17.0°*)
  5: 0x003E [0x00] END_REQSTACK()
```

### Event 65535.4

#### Metadata

| Field        | Value   |
|--------------|---------|
| Entrypoint   | 0x003F  |
| Data Size    | 4 bytes |
| Instructions | 2       |

```
      00 01 02 03 04 05 06 07  08 09 0A 0B 0C 0D 0E 0F
      -- -- -- -- -- -- -- --  -- -- -- -- -- -- -- --
0030:                                               39                 9
0040: 0A 80 00                                          ...             
```

#### Opcodes

```
  0: 0x003F [0x39] SET_ENTITY_DIRECTION(direction=12.1°*)
  1: 0x0042 [0x00] END_REQSTACK()
```

### Event 65535.5

#### Metadata

| Field        | Value    |
|--------------|----------|
| Entrypoint   | 0x0043   |
| Data Size    | 15 bytes |
| Instructions | 5        |

```
      00 01 02 03 04 05 06 07  08 09 0A 0B 0C 0D 0E 0F
      -- -- -- -- -- -- -- --  -- -- -- -- -- -- -- --
0040:          32 0B 80 1F 00  0C 80 0D 80 03 80 1F 01     2............
0050: 6F 00                                             o.              
```

#### Opcodes

```
  0: 0x0043 [0x32] ExtData[1]->MainSpeed = 15* * 0.1
  1: 0x0046 [0x1F] MOVE_ENTITY: EventEntity moves to X=-1.946*, Z=16.484*, Y=-1.000*
  2: 0x004E [0x1F] MOVE_ENTITY: Update entity position (mode=1)
  3: 0x0050 [0x6F] WAIT_FRAME_DELAY: Yield until WaitTime reaches zero
  4: 0x0051 [0x00] END_REQSTACK()
```

### Event 65535.6

#### Metadata

| Field        | Value    |
|--------------|----------|
| Entrypoint   | 0x0052   |
| Data Size    | 19 bytes |
| Instructions | 3        |

```
      00 01 02 03 04 05 06 07  08 09 0A 0B 0C 0D 0E 0F
      -- -- -- -- -- -- -- --  -- -- -- -- -- -- -- --
0050:       39 0E 80 5B 0F 80  08 E2 05 01 08 E2 05 01    9..[..........
0060: 73 74 64 62 00                                    stdb.           
```

#### Opcodes

```
  0: 0x0052 [0x39] SET_ENTITY_DIRECTION(direction=9.9°*)
  1: 0x0055 [0x5B] LOAD_EXT_SCHEDULER: Load scheduler "stdb" with entities [Romaa Mihgo (ID: 17162760/0x0105E208), Romaa Mihgo (ID: 17162760/0x0105E208)], work=1326*
  2: 0x0064 [0x00] END_REQSTACK()
```

### Event 324

#### Metadata

| Field        | Value    |
|--------------|----------|
| Entrypoint   | 0x0065   |
| Data Size    | 18 bytes |
| Instructions | 6        |

```
      00 01 02 03 04 05 06 07  08 09 0A 0B 0C 0D 0E 0F
      -- -- -- -- -- -- -- --  -- -- -- -- -- -- -- --
0060:                1E F0 FF  FF 7F 1C 10 80 2B F8 FF       ........+..
0070: FF 7F 11 80 23 21 00                              ....#!.         
```

#### Opcodes

```
  0: 0x0065 [0x1E] EventEntity looks at LocalPlayer and starts talking
  1: 0x006A [0x1C] WAIT(30* ticks)
  2: 0x006D [0x2B] EventEntity [10864*]:
    → "It's a bit rrroughed up rrright now, but this place ain't so bad. I could think about livin' here once we send the birdmen packin'..."
  3: 0x0074 [0x23] WAIT_FOR_DIALOG_INTERACTION
  4: 0x0075 [0x21] END_EVENT
  5: 0x0076 [0x00] END_REQSTACK()
```

### Event 152

#### Metadata

| Field        | Value    |
|--------------|----------|
| Entrypoint   | 0x0077   |
| Data Size    | 26 bytes |
| Instructions | 8        |

```
      00 01 02 03 04 05 06 07  08 09 0A 0B 0C 0D 0E 0F
      -- -- -- -- -- -- -- --  -- -- -- -- -- -- -- --
0070:                      1E  F0 FF FF 7F 1C 10 80 2B         ........+
0080: F8 FF FF 7F 12 80 23 2B  F8 FF FF 7F 13 80 23 21  ......#+......#!
0090: 00                                                .               
```

#### Opcodes

```
  0: 0x0077 [0x1E] EventEntity looks at LocalPlayer and starts talking
  1: 0x007C [0x1C] WAIT(30* ticks)
  2: 0x007F [0x2B] EventEntity [11280*]:
    → "This seems like a job for you, <Player>."
  3: 0x0086 [0x23] WAIT_FOR_DIALOG_INTERACTION
  4: 0x0087 [0x2B] EventEntity [11281*]:
    → "Could you chase them down and make sure they rrreach Jeuno safely? I knew I could count on you!"
  5: 0x008E [0x23] WAIT_FOR_DIALOG_INTERACTION
  6: 0x008F [0x21] END_EVENT
  7: 0x0090 [0x00] END_REQSTACK()
```

### Event 154

#### Metadata

| Field        | Value    |
|--------------|----------|
| Entrypoint   | 0x0091   |
| Data Size    | 31 bytes |
| Instructions | 9        |

```
      00 01 02 03 04 05 06 07  08 09 0A 0B 0C 0D 0E 0F
      -- -- -- -- -- -- -- --  -- -- -- -- -- -- -- --
0090:    1E F0 FF FF 7F 1C 10  80 03 02 10 14 80 2B F8   .............+.
00A0: FF FF 7F 15 80 23 2B F8  FF FF 7F 16 80 23 21 00  .....#+......#!.
```

#### Opcodes

```
  0: 0x0091 [0x1E] EventEntity looks at LocalPlayer and starts talking
  1: 0x0096 [0x1C] WAIT(30* ticks)
  2: 0x0099 [0x03] Work_Zone[2] = 5708*
  3: 0x009E [0x2B] EventEntity [11181*]:
    → "<Player>, you slipped off in such a hurry last time."
  4: 0x00A5 [0x23] WAIT_FOR_DIALOG_INTERACTION
  5: 0x00A6 [0x2B] EventEntity [11182*]:
    → "Here's that "pat on the back" I mentioned. Keep up the good work!"
  6: 0x00AD [0x23] WAIT_FOR_DIALOG_INTERACTION
  7: 0x00AE [0x21] END_EVENT
  8: 0x00AF [0x00] END_REQSTACK()
```

### Event 155

#### Metadata

| Field        | Value    |
|--------------|----------|
| Entrypoint   | 0x00B0   |
| Data Size    | 18 bytes |
| Instructions | 6        |

```
      00 01 02 03 04 05 06 07  08 09 0A 0B 0C 0D 0E 0F
      -- -- -- -- -- -- -- --  -- -- -- -- -- -- -- --
00B0: 1E F0 FF FF 7F 1C 10 80  2B F8 FF FF 7F 17 80 23  ........+......#
00C0: 21 00                                             !.              
```

#### Opcodes

```
  0: 0x00B0 [0x1E] EventEntity looks at LocalPlayer and starts talking
  1: 0x00B5 [0x1C] WAIT(30* ticks)
  2: 0x00B8 [0x2B] EventEntity [11282*]:
    → "<Player>! Stop picking fleas out of your fur and get your tail over to Castle Oztroja! Get the Tigresses outta there!"
  3: 0x00BF [0x23] WAIT_FOR_DIALOG_INTERACTION
  4: 0x00C0 [0x21] END_EVENT
  5: 0x00C1 [0x00] END_REQSTACK()
```

### Event 156

#### Metadata

| Field        | Value    |
|--------------|----------|
| Entrypoint   | 0x00C2   |
| Data Size    | 18 bytes |
| Instructions | 6        |

```
      00 01 02 03 04 05 06 07  08 09 0A 0B 0C 0D 0E 0F
      -- -- -- -- -- -- -- --  -- -- -- -- -- -- -- --
00C0:       1E F0 FF FF 7F 1C  10 80 2B F8 FF FF 7F 18    ........+.....
00D0: 80 23 21 00                                       .#!.            
```

#### Opcodes

```
  0: 0x00C2 [0x1E] EventEntity looks at LocalPlayer and starts talking
  1: 0x00C7 [0x1C] WAIT(30* ticks)
  2: 0x00CA [0x2B] EventEntity [11283*]:
    → "Head on back to the fort. I'll join you there with Major Vashai as soon as we get mobilized."
  3: 0x00D1 [0x23] WAIT_FOR_DIALOG_INTERACTION
  4: 0x00D2 [0x21] END_EVENT
  5: 0x00D3 [0x00] END_REQSTACK()
```

### Event 157

#### Metadata

| Field        | Value    |
|--------------|----------|
| Entrypoint   | 0x00D4   |
| Data Size    | 26 bytes |
| Instructions | 8        |

```
      00 01 02 03 04 05 06 07  08 09 0A 0B 0C 0D 0E 0F
      -- -- -- -- -- -- -- --  -- -- -- -- -- -- -- --
00D0:             1E F0 FF FF  7F 1C 10 80 2B F8 FF FF      ........+...
00E0: 7F 19 80 23 2B F8 FF FF  7F 1A 80 23 21 00        ...#+......#!.  
```

#### Opcodes

```
  0: 0x00D4 [0x1E] EventEntity looks at LocalPlayer and starts talking
  1: 0x00D9 [0x1C] WAIT(30* ticks)
  2: 0x00DC [0x2B] EventEntity [11284*]:
    → "Have you forgotten what the Warlock Warlord said?"
  3: 0x00E3 [0x23] WAIT_FOR_DIALOG_INTERACTION
  4: 0x00E4 [0x2B] EventEntity [11285*]:
    → "Maybe you should try talking to Rotih Moalghett at the fort."
  5: 0x00EB [0x23] WAIT_FOR_DIALOG_INTERACTION
  6: 0x00EC [0x21] END_EVENT
  7: 0x00ED [0x00] END_REQSTACK()
```

### Event 232

#### Metadata

| Field        | Value   |
|--------------|---------|
| Entrypoint   | 0x00EE  |
| Data Size    | 1 bytes |
| Instructions | 1       |

```
      00 01 02 03 04 05 06 07  08 09 0A 0B 0C 0D 0E 0F
      -- -- -- -- -- -- -- --  -- -- -- -- -- -- -- --
00E0:                                            00                   . 
```

#### Opcodes

```
  0: 0x00EE [0x00] END_REQSTACK()
```

### Event 65535.7

#### Metadata

| Field        | Value    |
|--------------|----------|
| Entrypoint   | 0x00EF   |
| Data Size    | 20 bytes |
| Instructions | 6        |

```
      00 01 02 03 04 05 06 07  08 09 0A 0B 0C 0D 0E 0F
      -- -- -- -- -- -- -- --  -- -- -- -- -- -- -- --
00E0:                                               32                 2
00F0: 00 80 1F 00 1B 80 1C 80  1D 80 1F 01 6F 1E F0 FF  ............o...
0100: FF 7F 00                                          ...             
```

#### Opcodes

```
  0: 0x00EF [0x32] ExtData[1]->MainSpeed = 13* * 0.1
  1: 0x00F2 [0x1F] MOVE_ENTITY: EventEntity moves to X=-73.751*, Z=86.199*, Y=-4.999*
  2: 0x00FA [0x1F] MOVE_ENTITY: Update entity position (mode=1)
  3: 0x00FC [0x6F] WAIT_FRAME_DELAY: Yield until WaitTime reaches zero
  4: 0x00FD [0x1E] EventEntity looks at LocalPlayer and starts talking
  5: 0x0102 [0x00] END_REQSTACK()
```

### Event 158

#### Metadata

| Field        | Value   |
|--------------|---------|
| Entrypoint   | 0x0103  |
| Data Size    | 1 bytes |
| Instructions | 1       |

```
      00 01 02 03 04 05 06 07  08 09 0A 0B 0C 0D 0E 0F
      -- -- -- -- -- -- -- --  -- -- -- -- -- -- -- --
0100:          00                                          .            
```

#### Opcodes

```
  0: 0x0103 [0x00] END_REQSTACK()
```

### Event 159

#### Metadata

| Field        | Value   |
|--------------|---------|
| Entrypoint   | 0x0104  |
| Data Size    | 1 bytes |
| Instructions | 1       |

```
      00 01 02 03 04 05 06 07  08 09 0A 0B 0C 0D 0E 0F
      -- -- -- -- -- -- -- --  -- -- -- -- -- -- -- --
0100:             00                                        .           
```

#### Opcodes

```
  0: 0x0104 [0x00] END_REQSTACK()
```

### Event 165

#### Metadata

| Field        | Value   |
|--------------|---------|
| Entrypoint   | 0x0105  |
| Data Size    | 1 bytes |
| Instructions | 1       |

```
      00 01 02 03 04 05 06 07  08 09 0A 0B 0C 0D 0E 0F
      -- -- -- -- -- -- -- --  -- -- -- -- -- -- -- --
0100:                00                                      .          
```

#### Opcodes

```
  0: 0x0105 [0x00] END_REQSTACK()
```

### Event 168

#### Metadata

| Field        | Value   |
|--------------|---------|
| Entrypoint   | 0x0106  |
| Data Size    | 1 bytes |
| Instructions | 1       |

```
      00 01 02 03 04 05 06 07  08 09 0A 0B 0C 0D 0E 0F
      -- -- -- -- -- -- -- --  -- -- -- -- -- -- -- --
0100:                   00                                    .         
```

#### Opcodes

```
  0: 0x0106 [0x00] END_REQSTACK()
```

### Event 176

#### Metadata

| Field        | Value    |
|--------------|----------|
| Entrypoint   | 0x0107   |
| Data Size    | 26 bytes |
| Instructions | 8        |

```
      00 01 02 03 04 05 06 07  08 09 0A 0B 0C 0D 0E 0F
      -- -- -- -- -- -- -- --  -- -- -- -- -- -- -- --
0100:                      1E  F0 FF FF 7F 1C 10 80 2B         ........+
0110: F8 FF FF 7F 1E 80 23 2B  F8 FF FF 7F 1F 80 23 21  ......#+......#!
0120: 00                                                .               
```

#### Opcodes

```
  0: 0x0107 [0x1E] EventEntity looks at LocalPlayer and starts talking
  1: 0x010C [0x1C] WAIT(30* ticks)
  2: 0x010F [0x2B] EventEntity [13139*]:
    → "Do you rrremember where you're supposed to be?"
  3: 0x0116 [0x23] WAIT_FOR_DIALOG_INTERACTION
  4: 0x0117 [0x2B] EventEntity [13140*]:
    → "Not here, that's for surrre! Get your sorry little backside up to Sauromugue Champaign on the double, soldierrr!"
  5: 0x011E [0x23] WAIT_FOR_DIALOG_INTERACTION
  6: 0x011F [0x21] END_EVENT
  7: 0x0120 [0x00] END_REQSTACK()
```

### Event 189

#### Metadata

| Field        | Value    |
|--------------|----------|
| Entrypoint   | 0x0121   |
| Data Size    | 18 bytes |
| Instructions | 6        |

```
      00 01 02 03 04 05 06 07  08 09 0A 0B 0C 0D 0E 0F
      -- -- -- -- -- -- -- --  -- -- -- -- -- -- -- --
0120:    1E F0 FF FF 7F 1C 10  80 2B F8 FF FF 7F 20 80   ........+.... .
0130: 23 21 00                                          #!.             
```

#### Opcodes

```
  0: 0x0121 [0x1E] EventEntity looks at LocalPlayer and starts talking
  1: 0x0126 [0x1C] WAIT(30* ticks)
  2: 0x0129 [0x2B] EventEntity [13222*]:
    → "<Player>? Why are you still putterrring about here? Didn't you hear the Warlock Warlord's orders? All Cobras are to make for San d'Oria at once!"
  3: 0x0130 [0x23] WAIT_FOR_DIALOG_INTERACTION
  4: 0x0131 [0x21] END_EVENT
  5: 0x0132 [0x00] END_REQSTACK()
```

### Event 190

#### Metadata

| Field        | Value    |
|--------------|----------|
| Entrypoint   | 0x0133   |
| Data Size    | 18 bytes |
| Instructions | 6        |

```
      00 01 02 03 04 05 06 07  08 09 0A 0B 0C 0D 0E 0F
      -- -- -- -- -- -- -- --  -- -- -- -- -- -- -- --
0130:          1E F0 FF FF 7F  1C 10 80 2B F8 FF FF 7F     ........+....
0140: 21 80 23 21 00                                    !.#!.           
```

#### Opcodes

```
  0: 0x0133 [0x1E] EventEntity looks at LocalPlayer and starts talking
  1: 0x0138 [0x1C] WAIT(30* ticks)
  2: 0x013B [0x2B] EventEntity [13223*]:
    → "<Player>! Fort Karugo-Narugo is on high alert, and you're still rrrunning around here with your tail between your legs!? All Cobras are to move out at once! That's an order!"
  3: 0x0142 [0x23] WAIT_FOR_DIALOG_INTERACTION
  4: 0x0143 [0x21] END_EVENT
  5: 0x0144 [0x00] END_REQSTACK()
```

### Event 65535.8

#### Metadata

| Field        | Value    |
|--------------|----------|
| Entrypoint   | 0x0145   |
| Data Size    | 20 bytes |
| Instructions | 6        |

```
      00 01 02 03 04 05 06 07  08 09 0A 0B 0C 0D 0E 0F
      -- -- -- -- -- -- -- --  -- -- -- -- -- -- -- --
0140:                32 00 80  1F 00 22 80 23 80 03 80       2....".#...
0150: 1F 01 6F 1E FF E1 05 01  00                       ..o......       
```

#### Opcodes

```
  0: 0x0145 [0x32] ExtData[1]->MainSpeed = 13* * 0.1
  1: 0x0148 [0x1F] MOVE_ENTITY: EventEntity moves to X=2.357*, Z=14.319*, Y=-1.000*
  2: 0x0150 [0x1F] MOVE_ENTITY: Update entity position (mode=1)
  3: 0x0152 [0x6F] WAIT_FRAME_DELAY: Yield until WaitTime reaches zero
  4: 0x0153 [0x1E] EventEntity looks at Dhea Prandoleh (ID: 17162751/0x0105E1FF) and starts talking
  5: 0x0158 [0x00] END_REQSTACK()
```

### Event 65535.9

#### Metadata

| Field        | Value    |
|--------------|----------|
| Entrypoint   | 0x0159   |
| Data Size    | 36 bytes |
| Instructions | 4        |

```
      00 01 02 03 04 05 06 07  08 09 0A 0B 0C 0D 0E 0F
      -- -- -- -- -- -- -- --  -- -- -- -- -- -- -- --
0150:                             1C 24 80 52 25 80 F0           .$.R%..
0160: FF FF 7F F0 FF FF 7F 7A  30 30 37 45 25 80 F0 FF  .......z007E%...
0170: FF 7F F0 FF FF 7F 7A 30  31 34 26 80 00           ......z014&..   
```

#### Opcodes

```
  0: 0x0159 [0x1C] WAIT(120* ticks)
  1: 0x015C [0x52] END_LOAD_SCHEDULER: End scheduler "z007" with entities [LocalPlayer, LocalPlayer], work=373*
  2: 0x016B [0x45] LOAD_SCHEDULED_TASK: Load scheduler "z014" with entities [LocalPlayer, LocalPlayer], work=[373*, 0*]
  3: 0x017C [0x00] END_REQSTACK()
```

### Event 65535.10

#### Metadata

| Field        | Value    |
|--------------|----------|
| Entrypoint   | 0x017D   |
| Data Size    | 15 bytes |
| Instructions | 5        |

```
      00 01 02 03 04 05 06 07  08 09 0A 0B 0C 0D 0E 0F
      -- -- -- -- -- -- -- --  -- -- -- -- -- -- -- --
0170:                                         32 00 80               2..
0180: 1F 00 27 80 28 80 03 80  1F 01 6F 00              ..'.(.....o.    
```

#### Opcodes

```
  0: 0x017D [0x32] ExtData[1]->MainSpeed = 13* * 0.1
  1: 0x0180 [0x1F] MOVE_ENTITY: EventEntity moves to X=-1.748*, Z=31.208*, Y=-1.000*
  2: 0x0188 [0x1F] MOVE_ENTITY: Update entity position (mode=1)
  3: 0x018A [0x6F] WAIT_FRAME_DELAY: Yield until WaitTime reaches zero
  4: 0x018B [0x00] END_REQSTACK()
```

### Event 65535.11

#### Metadata

| Field        | Value    |
|--------------|----------|
| Entrypoint   | 0x018C   |
| Data Size    | 20 bytes |
| Instructions | 6        |

```
      00 01 02 03 04 05 06 07  08 09 0A 0B 0C 0D 0E 0F
      -- -- -- -- -- -- -- --  -- -- -- -- -- -- -- --
0180:                                      32 00 80 1F              2...
0190: 00 29 80 2A 80 2B 80 1F  01 6F 1E 36 E2 05 01 00  .).*.+...o.6....
```

#### Opcodes

```
  0: 0x018C [0x32] ExtData[1]->MainSpeed = 13* * 0.1
  1: 0x018F [0x1F] MOVE_ENTITY: EventEntity moves to X=-41.609*, Z=210.867*, Y=-5.229*
  2: 0x0197 [0x1F] MOVE_ENTITY: Update entity position (mode=1)
  3: 0x0199 [0x6F] WAIT_FRAME_DELAY: Yield until WaitTime reaches zero
  4: 0x019A [0x1E] EventEntity looks at Lehko Habhoka (ID: 17162806/0x0105E236) and starts talking
  5: 0x019F [0x00] END_REQSTACK()
```

### Event 182

#### Metadata

| Field        | Value   |
|--------------|---------|
| Entrypoint   | 0x01A0  |
| Data Size    | 1 bytes |
| Instructions | 1       |

```
      00 01 02 03 04 05 06 07  08 09 0A 0B 0C 0D 0E 0F
      -- -- -- -- -- -- -- --  -- -- -- -- -- -- -- --
01A0: 00                                                .               
```

#### Opcodes

```
  0: 0x01A0 [0x00] END_REQSTACK()
```

### Event 65535.12

#### Metadata

| Field        | Value    |
|--------------|----------|
| Entrypoint   | 0x01A1   |
| Data Size    | 21 bytes |
| Instructions | 5        |

```
      00 01 02 03 04 05 06 07  08 09 0A 0B 0C 0D 0E 0F
      -- -- -- -- -- -- -- --  -- -- -- -- -- -- -- --
01A0:    1F 00 2C 80 2D 80 2E  80 1F 01 6F 4A 08 E2 05   ..,.-.....oJ...
01B0: 01 07 E2 05 01 00                                 ......          
```

#### Opcodes

```
  0: 0x01A1 [0x1F] MOVE_ENTITY: EventEntity moves to X=-37.557*, Z=224.385*, Y=-4.848*
  1: 0x01A9 [0x1F] MOVE_ENTITY: Update entity position (mode=1)
  2: 0x01AB [0x6F] WAIT_FRAME_DELAY: Yield until WaitTime reaches zero
  3: 0x01AC [0x4A] Romaa Mihgo (ID: 17162760/0x0105E208) looks at Perih Vashai (ID: 17162759/0x0105E207)
  4: 0x01B5 [0x00] END_REQSTACK()
```

### Event 29

#### Metadata

| Field        | Value    |
|--------------|----------|
| Entrypoint   | 0x01B6   |
| Data Size    | 23 bytes |
| Instructions | 7        |

```
      00 01 02 03 04 05 06 07  08 09 0A 0B 0C 0D 0E 0F
      -- -- -- -- -- -- -- --  -- -- -- -- -- -- -- --
01B0:                   1E F0  FF FF 7F 1C 10 80 03 02        ..........
01C0: 10 2F 80 2B F8 FF FF 7F  30 80 23 21 00           ./.+....0.#!.   
```

#### Opcodes

```
  0: 0x01B6 [0x1E] EventEntity looks at LocalPlayer and starts talking
  1: 0x01BB [0x1C] WAIT(30* ticks)
  2: 0x01BE [0x03] Work_Zone[2] = 18871*
  3: 0x01C3 [0x2B] EventEntity [13686*]:
    → "<Player>! Drrrop some of that stuff you're carrying and take this $0 off my hands already, will ya? What in the world could this be used for, anyway...?"
  4: 0x01CA [0x23] WAIT_FOR_DIALOG_INTERACTION
  5: 0x01CB [0x21] END_EVENT
  6: 0x01CC [0x00] END_REQSTACK()
```

### Event 30

#### Metadata

| Field        | Value    |
|--------------|----------|
| Entrypoint   | 0x01CD   |
| Data Size    | 23 bytes |
| Instructions | 7        |

```
      00 01 02 03 04 05 06 07  08 09 0A 0B 0C 0D 0E 0F
      -- -- -- -- -- -- -- --  -- -- -- -- -- -- -- --
01C0:                                         1E F0 FF               ...
01D0: FF 7F 1C 10 80 03 02 10  31 80 2B F8 FF FF 7F 32  ........1.+....2
01E0: 80 23 21 00                                       .#!.            
```

#### Opcodes

```
  0: 0x01CD [0x1E] EventEntity looks at LocalPlayer and starts talking
  1: 0x01D2 [0x1C] WAIT(30* ticks)
  2: 0x01D5 [0x03] Work_Zone[2] = 18614*
  3: 0x01DA [0x2B] EventEntity [13687*]:
    → "Oh, <Player>. Lehko wanted me to give you this $0 as a reward for your brrravery. Lighten your burden and take it, will ya? And rest up while you can. Our fierrrcest battle still awaits."
  4: 0x01E1 [0x23] WAIT_FOR_DIALOG_INTERACTION
  5: 0x01E2 [0x21] END_EVENT
  6: 0x01E3 [0x00] END_REQSTACK()
```

### Event 38

#### Metadata

| Field        | Value    |
|--------------|----------|
| Entrypoint   | 0x01E4   |
| Data Size    | 18 bytes |
| Instructions | 6        |

```
      00 01 02 03 04 05 06 07  08 09 0A 0B 0C 0D 0E 0F
      -- -- -- -- -- -- -- --  -- -- -- -- -- -- -- --
01E0:             1E F0 FF FF  7F 1C 10 80 2B F8 FF FF      ........+...
01F0: 7F 33 80 23 21 00                                 .3.#!.          
```

#### Opcodes

```
  0: 0x01E4 [0x1E] EventEntity looks at LocalPlayer and starts talking
  1: 0x01E9 [0x1C] WAIT(30* ticks)
  2: 0x01EC [0x2B] EventEntity [13905*]:
    → "..."
  3: 0x01F3 [0x23] WAIT_FOR_DIALOG_INTERACTION
  4: 0x01F4 [0x21] END_EVENT
  5: 0x01F5 [0x00] END_REQSTACK()
```

### Event 39

#### Metadata

| Field        | Value    |
|--------------|----------|
| Entrypoint   | 0x01F6   |
| Data Size    | 18 bytes |
| Instructions | 6        |

```
      00 01 02 03 04 05 06 07  08 09 0A 0B 0C 0D 0E 0F
      -- -- -- -- -- -- -- --  -- -- -- -- -- -- -- --
01F0:                   1E F0  FF FF 7F 1C 10 80 2B F8        ........+.
0200: FF FF 7F 34 80 23 21 00                           ...4.#!.        
```

#### Opcodes

```
  0: 0x01F6 [0x1E] EventEntity looks at LocalPlayer and starts talking
  1: 0x01FB [0x1C] WAIT(30* ticks)
  2: 0x01FE [0x2B] EventEntity [13889*]:
    → "Somethin' the matterrr, <Player>? Get your things together and head for Meriphataud on the double. We can't afford to miss our chance to pounce!"
  3: 0x0205 [0x23] WAIT_FOR_DIALOG_INTERACTION
  4: 0x0206 [0x21] END_EVENT
  5: 0x0207 [0x00] END_REQSTACK()
```

### Event 45

#### Metadata

| Field        | Value    |
|--------------|----------|
| Entrypoint   | 0x0208   |
| Data Size    | 26 bytes |
| Instructions | 8        |

```
      00 01 02 03 04 05 06 07  08 09 0A 0B 0C 0D 0E 0F
      -- -- -- -- -- -- -- --  -- -- -- -- -- -- -- --
0200:                          1E F0 FF FF 7F 1C 10 80          ........
0210: 2B F8 FF FF 7F 35 80 23  2B F8 FF FF 7F 36 80 23  +....5.#+....6.#
0220: 21 00                                             !.              
```

#### Opcodes

```
  0: 0x0208 [0x1E] EventEntity looks at LocalPlayer and starts talking
  1: 0x020D [0x1C] WAIT(30* ticks)
  2: 0x0210 [0x2B] EventEntity [13525*]:
    → "A half-Elvaan, half-Hume child called Lilisette? With fiery red hair, to boot..."
  3: 0x0217 [0x23] WAIT_FOR_DIALOG_INTERACTION
  4: 0x0218 [0x2B] EventEntity [13526*]:
    → "Sorry, but I can't say I know her. Wouldn't that frrriend of yours in San d'Oria know more about such a lass?"
  5: 0x021F [0x23] WAIT_FOR_DIALOG_INTERACTION
  6: 0x0220 [0x21] END_EVENT
  7: 0x0221 [0x00] END_REQSTACK()
```

### Event 22

#### Metadata

| Field        | Value   |
|--------------|---------|
| Entrypoint   | 0x0222  |
| Data Size    | 1 bytes |
| Instructions | 1       |

```
      00 01 02 03 04 05 06 07  08 09 0A 0B 0C 0D 0E 0F
      -- -- -- -- -- -- -- --  -- -- -- -- -- -- -- --
0220:       00                                            .             
```

#### Opcodes

```
  0: 0x0222 [0x00] END_REQSTACK()
```

### Event 25

#### Metadata

| Field        | Value   |
|--------------|---------|
| Entrypoint   | 0x0223  |
| Data Size    | 1 bytes |
| Instructions | 1       |

```
      00 01 02 03 04 05 06 07  08 09 0A 0B 0C 0D 0E 0F
      -- -- -- -- -- -- -- --  -- -- -- -- -- -- -- --
0220:          00                                          .            
```

#### Opcodes

```
  0: 0x0223 [0x00] END_REQSTACK()
```

### Event 65535.13

#### Metadata

| Field        | Value   |
|--------------|---------|
| Entrypoint   | 0x0224  |
| Data Size    | 1 bytes |
| Instructions | 1       |

```
      00 01 02 03 04 05 06 07  08 09 0A 0B 0C 0D 0E 0F
      -- -- -- -- -- -- -- --  -- -- -- -- -- -- -- --
0220:             00                                        .           
```

#### Opcodes

```
  0: 0x0224 [0x00] END_REQSTACK()
```

### Event 65535.14

#### Metadata

| Field        | Value    |
|--------------|----------|
| Entrypoint   | 0x0225   |
| Data Size    | 18 bytes |
| Instructions | 4        |

```
      00 01 02 03 04 05 06 07  08 09 0A 0B 0C 0D 0E 0F
      -- -- -- -- -- -- -- --  -- -- -- -- -- -- -- --
0220:                22 00 2F  00 F8 FF FF 7F 6C F8 FF       "./.....l..
0230: FF 7F 26 80 37 80 00                              ..&.7..         
```

#### Opcodes

```
  0: 0x0225 [0x22] ENTITY_HIDE_FLAG(enabled=0x00)
  1: 0x0227 [0x2F] EventEntity->Render.Flags0 &= ~0x80000 // Bit 19
  2: 0x022D [0x6C] FADE_ENTITY_COLOR(entity_id=EventEntity, end_alpha=0*, fade_time=1*)
  3: 0x0236 [0x00] END_REQSTACK()
```

### Event 65535.15

#### Metadata

| Field        | Value    |
|--------------|----------|
| Entrypoint   | 0x0237   |
| Data Size    | 10 bytes |
| Instructions | 2        |

```
      00 01 02 03 04 05 06 07  08 09 0A 0B 0C 0D 0E 0F
      -- -- -- -- -- -- -- --  -- -- -- -- -- -- -- --
0230:                      6C  F8 FF FF 7F 38 80 37 80         l....8.7.
0240: 00                                                .               
```

#### Opcodes

```
  0: 0x0237 [0x6C] FADE_ENTITY_COLOR(entity_id=EventEntity, end_alpha=128*, fade_time=1*)
  1: 0x0240 [0x00] END_REQSTACK()
```

### Event 65535.16

#### Metadata

| Field        | Value   |
|--------------|---------|
| Entrypoint   | 0x0241  |
| Data Size    | 9 bytes |
| Instructions | 3       |

```
      00 01 02 03 04 05 06 07  08 09 0A 0B 0C 0D 0E 0F
      -- -- -- -- -- -- -- --  -- -- -- -- -- -- -- --
0240:    22 00 2F 00 F8 FF FF  7F 00                     "./......      
```

#### Opcodes

```
  0: 0x0241 [0x22] ENTITY_HIDE_FLAG(enabled=0x00)
  1: 0x0243 [0x2F] EventEntity->Render.Flags0 &= ~0x80000 // Bit 19
  2: 0x0249 [0x00] END_REQSTACK()
```

### Event 65535.17

#### Metadata

| Field        | Value   |
|--------------|---------|
| Entrypoint   | 0x024A  |
| Data Size    | 9 bytes |
| Instructions | 3       |

```
      00 01 02 03 04 05 06 07  08 09 0A 0B 0C 0D 0E 0F
      -- -- -- -- -- -- -- --  -- -- -- -- -- -- -- --
0240:                                22 01 2F 01 F8 FF            "./...
0250: FF 7F 00                                          ...             
```

#### Opcodes

```
  0: 0x024A [0x22] ENTITY_HIDE_FLAG(enabled=0x01)
  1: 0x024C [0x2F] EventEntity->Render.Flags0 |= 0x80000 // Bit 19
  2: 0x0252 [0x00] END_REQSTACK()
```

### Event 65535.18

#### Metadata

| Field        | Value    |
|--------------|----------|
| Entrypoint   | 0x0253   |
| Data Size    | 10 bytes |
| Instructions | 2        |

```
      00 01 02 03 04 05 06 07  08 09 0A 0B 0C 0D 0E 0F
      -- -- -- -- -- -- -- --  -- -- -- -- -- -- -- --
0250:          6C F8 FF FF 7F  26 80 37 80 00              l....&.7..   
```

#### Opcodes

```
  0: 0x0253 [0x6C] FADE_ENTITY_COLOR(entity_id=EventEntity, end_alpha=0*, fade_time=1*)
  1: 0x025C [0x00] END_REQSTACK()
```

### Event 65535.19

#### Metadata

| Field        | Value    |
|--------------|----------|
| Entrypoint   | 0x025D   |
| Data Size    | 10 bytes |
| Instructions | 2        |

```
      00 01 02 03 04 05 06 07  08 09 0A 0B 0C 0D 0E 0F
      -- -- -- -- -- -- -- --  -- -- -- -- -- -- -- --
0250:                                         6C F8 FF               l..
0260: FF 7F 38 80 37 80 00                              ..8.7..         
```

#### Opcodes

```
  0: 0x025D [0x6C] FADE_ENTITY_COLOR(entity_id=EventEntity, end_alpha=128*, fade_time=1*)
  1: 0x0266 [0x00] END_REQSTACK()
```

### Event 31

#### Metadata

| Field        | Value   |
|--------------|---------|
| Entrypoint   | 0x0267  |
| Data Size    | 1 bytes |
| Instructions | 1       |

```
      00 01 02 03 04 05 06 07  08 09 0A 0B 0C 0D 0E 0F
      -- -- -- -- -- -- -- --  -- -- -- -- -- -- -- --
0260:                      00                                  .        
```

#### Opcodes

```
  0: 0x0267 [0x00] END_REQSTACK()
```

### Event 32

#### Metadata

| Field        | Value   |
|--------------|---------|
| Entrypoint   | 0x0268  |
| Data Size    | 1 bytes |
| Instructions | 1       |

```
      00 01 02 03 04 05 06 07  08 09 0A 0B 0C 0D 0E 0F
      -- -- -- -- -- -- -- --  -- -- -- -- -- -- -- --
0260:                          00                               .       
```

#### Opcodes

```
  0: 0x0268 [0x00] END_REQSTACK()
```

### Event 43

#### Metadata

| Field        | Value   |
|--------------|---------|
| Entrypoint   | 0x0269  |
| Data Size    | 1 bytes |
| Instructions | 1       |

```
      00 01 02 03 04 05 06 07  08 09 0A 0B 0C 0D 0E 0F
      -- -- -- -- -- -- -- --  -- -- -- -- -- -- -- --
0260:                             00                             .      
```

#### Opcodes

```
  0: 0x0269 [0x00] END_REQSTACK()
```

### Event 65535.20

#### Metadata

| Field        | Value    |
|--------------|----------|
| Entrypoint   | 0x026A   |
| Data Size    | 45 bytes |
| Instructions | 9        |

```
      00 01 02 03 04 05 06 07  08 09 0A 0B 0C 0D 0E 0F
      -- -- -- -- -- -- -- --  -- -- -- -- -- -- -- --
0260:                                32 39 80 1F 00 3A            29...:
0270: 80 3B 80 03 80 1F 01 6F  4A 08 E2 05 01 FE E1 05  .;.....oJ.......
0280: 01 6F 76 08 E2 05 01 5B  3C 80 08 E2 05 01 08 E2  .ov....[<.......
0290: 05 01 73 74 61 30 00                              ..sta0.         
```

#### Opcodes

```
  0: 0x026A [0x32] ExtData[1]->MainSpeed = 12* * 0.1
  1: 0x026D [0x1F] MOVE_ENTITY: EventEntity moves to X=3.635*, Z=35.302*, Y=-1.000*
  2: 0x0275 [0x1F] MOVE_ENTITY: Update entity position (mode=1)
  3: 0x0277 [0x6F] WAIT_FRAME_DELAY: Yield until WaitTime reaches zero
  4: 0x0278 [0x4A] Romaa Mihgo (ID: 17162760/0x0105E208) looks at Miah Riyuh (ID: 17162750/0x0105E1FE)
  5: 0x0281 [0x6F] WAIT_FRAME_DELAY: Yield until WaitTime reaches zero
  6: 0x0282 [0x76] CHECK_ENTITY_RENDER_FLAGS: Wait until Romaa Mihgo (ID: 17162760/0x0105E208) Render.Flags0 and Render.Flags3 conditions are met
  7: 0x0287 [0x5B] LOAD_EXT_SCHEDULER: Load scheduler "sta0" with entities [Romaa Mihgo (ID: 17162760/0x0105E208), Romaa Mihgo (ID: 17162760/0x0105E208)], work=1327*
  8: 0x0296 [0x00] END_REQSTACK()
```

### Event 65535.21

#### Metadata

| Field        | Value    |
|--------------|----------|
| Entrypoint   | 0x0297   |
| Data Size    | 21 bytes |
| Instructions | 5        |

```
      00 01 02 03 04 05 06 07  08 09 0A 0B 0C 0D 0E 0F
      -- -- -- -- -- -- -- --  -- -- -- -- -- -- -- --
0290:                      1F  00 3D 80 3E 80 08 80 1F         ..=.>....
02A0: 01 6F 4A 08 E2 05 01 F0  FF FF 7F 00              .oJ.........    
```

#### Opcodes

```
  0: 0x0297 [0x1F] MOVE_ENTITY: EventEntity moves to X=-1.753*, Z=14.435*, Y=-0.999*
  1: 0x029F [0x1F] MOVE_ENTITY: Update entity position (mode=1)
  2: 0x02A1 [0x6F] WAIT_FRAME_DELAY: Yield until WaitTime reaches zero
  3: 0x02A2 [0x4A] Romaa Mihgo (ID: 17162760/0x0105E208) looks at LocalPlayer
  4: 0x02AB [0x00] END_REQSTACK()
```

### Event 65535.22

#### Metadata

| Field        | Value    |
|--------------|----------|
| Entrypoint   | 0x02AC   |
| Data Size    | 33 bytes |
| Instructions | 8        |

```
      00 01 02 03 04 05 06 07  08 09 0A 0B 0C 0D 0E 0F
      -- -- -- -- -- -- -- --  -- -- -- -- -- -- -- --
02A0:                                      79 00 08 E2              y...
02B0: 05 01 11 E2 05 01 1C 3F  80 1C 40 80 1C 40 80 1C  .......?..@..@..
02C0: 3F 80 1F 00 41 80 42 80  43 80 1F 01 00           ?...A.B.C....   
```

#### Opcodes

```
  0: 0x02AC [0x79] Romaa Mihgo (ID: 17162760/0x0105E208) looks at Naho Gwanboh (ID: 17162769/0x0105E211) (Basic look)
  1: 0x02B6 [0x1C] WAIT(60* ticks)
  2: 0x02B9 [0x1C] WAIT(8* ticks)
  3: 0x02BC [0x1C] WAIT(8* ticks)
  4: 0x02BF [0x1C] WAIT(60* ticks)
  5: 0x02C2 [0x1F] MOVE_ENTITY: EventEntity moves to X=-9.217*, Z=-9.049*, Y=-2.221*
  6: 0x02CA [0x1F] MOVE_ENTITY: Update entity position (mode=1)
  7: 0x02CC [0x00] END_REQSTACK()
```

### Event 65535.23

#### Metadata

| Field        | Value    |
|--------------|----------|
| Entrypoint   | 0x02CD   |
| Data Size    | 11 bytes |
| Instructions | 3        |

```
      00 01 02 03 04 05 06 07  08 09 0A 0B 0C 0D 0E 0F
      -- -- -- -- -- -- -- --  -- -- -- -- -- -- -- --
02C0:                                         1F 00 44               ..D
02D0: 80 45 80 46 80 1F 01 00                           .E.F....        
```

#### Opcodes

```
  0: 0x02CD [0x1F] MOVE_ENTITY: EventEntity moves to X=-41.768*, Z=221.794*, Y=-5.030*
  1: 0x02D5 [0x1F] MOVE_ENTITY: Update entity position (mode=1)
  2: 0x02D7 [0x00] END_REQSTACK()
```

### Event 65535.24

#### Metadata

| Field        | Value    |
|--------------|----------|
| Entrypoint   | 0x02D8   |
| Data Size    | 27 bytes |
| Instructions | 5        |

```
      00 01 02 03 04 05 06 07  08 09 0A 0B 0C 0D 0E 0F
      -- -- -- -- -- -- -- --  -- -- -- -- -- -- -- --
02D0:                          1F 00 47 80 48 80 1D 80          ..G.H...
02E0: 1F 01 6F 5B 3C 80 08 E2  05 01 08 E2 05 01 73 74  ..o[<.........st
02F0: 61 30 00                                          a0.             
```

#### Opcodes

```
  0: 0x02D8 [0x1F] MOVE_ENTITY: EventEntity moves to X=-41.242*, Z=219.043*, Y=-4.999*
  1: 0x02E0 [0x1F] MOVE_ENTITY: Update entity position (mode=1)
  2: 0x02E2 [0x6F] WAIT_FRAME_DELAY: Yield until WaitTime reaches zero
  3: 0x02E3 [0x5B] LOAD_EXT_SCHEDULER: Load scheduler "sta0" with entities [Romaa Mihgo (ID: 17162760/0x0105E208), Romaa Mihgo (ID: 17162760/0x0105E208)], work=1327*
  4: 0x02F2 [0x00] END_REQSTACK()
```

### Event 65535.25

#### Metadata

| Field        | Value    |
|--------------|----------|
| Entrypoint   | 0x02F3   |
| Data Size    | 11 bytes |
| Instructions | 3        |

```
      00 01 02 03 04 05 06 07  08 09 0A 0B 0C 0D 0E 0F
      -- -- -- -- -- -- -- --  -- -- -- -- -- -- -- --
02F0:          1F 00 49 80 4A  80 4B 80 1F 01 00           ..I.J.K....  
```

#### Opcodes

```
  0: 0x02F3 [0x1F] MOVE_ENTITY: EventEntity moves to X=-43.780*, Z=196.976*, Y=-5.481*
  1: 0x02FB [0x1F] MOVE_ENTITY: Update entity position (mode=1)
  2: 0x02FD [0x00] END_REQSTACK()
```

### Event 65535.26

#### Metadata

| Field        | Value    |
|--------------|----------|
| Entrypoint   | 0x02FE   |
| Data Size    | 11 bytes |
| Instructions | 3        |

```
      00 01 02 03 04 05 06 07  08 09 0A 0B 0C 0D 0E 0F
      -- -- -- -- -- -- -- --  -- -- -- -- -- -- -- --
02F0:                                            1F 00                ..
0300: 4C 80 4D 80 4E 80 1F 01  00                       L.M.N....       
```

#### Opcodes

```
  0: 0x02FE [0x1F] MOVE_ENTITY: EventEntity moves to X=31.712*, Z=1.162*, Y=-25.999*
  1: 0x0306 [0x1F] MOVE_ENTITY: Update entity position (mode=1)
  2: 0x0308 [0x00] END_REQSTACK()
```

### Event 65535.27

#### Metadata

| Field        | Value    |
|--------------|----------|
| Entrypoint   | 0x0309   |
| Data Size    | 21 bytes |
| Instructions | 5        |

```
      00 01 02 03 04 05 06 07  08 09 0A 0B 0C 0D 0E 0F
      -- -- -- -- -- -- -- --  -- -- -- -- -- -- -- --
0300:                             1F 00 4F 80 50 80 51           ..O.P.Q
0310: 80 1F 01 6F 4A 08 E2 05  01 18 E2 05 01 00        ...oJ.........  
```

#### Opcodes

```
  0: 0x0309 [0x1F] MOVE_ENTITY: EventEntity moves to X=-3.919*, Z=1.530*, Y=-25.500*
  1: 0x0311 [0x1F] MOVE_ENTITY: Update entity position (mode=1)
  2: 0x0313 [0x6F] WAIT_FRAME_DELAY: Yield until WaitTime reaches zero
  3: 0x0314 [0x4A] Romaa Mihgo (ID: 17162760/0x0105E208) looks at Robel-Akbel (ID: 17162776/0x0105E218)
  4: 0x031D [0x00] END_REQSTACK()
```

### Event 65535.28

#### Metadata

| Field        | Value    |
|--------------|----------|
| Entrypoint   | 0x031E   |
| Data Size    | 23 bytes |
| Instructions | 7        |

```
      00 01 02 03 04 05 06 07  08 09 0A 0B 0C 0D 0E 0F
      -- -- -- -- -- -- -- --  -- -- -- -- -- -- -- --
0310:                                            1F 00                ..
0320: 52 80 53 80 54 80 1F 01  6F 1F 00 55 80 56 80 54  R.S.T...o..U.V.T
0330: 80 1F 01 6F 00                                    ...o.           
```

#### Opcodes

```
  0: 0x031E [0x1F] MOVE_ENTITY: EventEntity moves to X=-1.784*, Z=1.144*, Y=-25.499*
  1: 0x0326 [0x1F] MOVE_ENTITY: Update entity position (mode=1)
  2: 0x0328 [0x6F] WAIT_FRAME_DELAY: Yield until WaitTime reaches zero
  3: 0x0329 [0x1F] MOVE_ENTITY: EventEntity moves to X=2.458*, Z=2.987*, Y=-25.499*
  4: 0x0331 [0x1F] MOVE_ENTITY: Update entity position (mode=1)
  5: 0x0333 [0x6F] WAIT_FRAME_DELAY: Yield until WaitTime reaches zero
  6: 0x0334 [0x00] END_REQSTACK()
```

### Event 65535.29

#### Metadata

| Field        | Value    |
|--------------|----------|
| Entrypoint   | 0x0335   |
| Data Size    | 27 bytes |
| Instructions | 5        |

```
      00 01 02 03 04 05 06 07  08 09 0A 0B 0C 0D 0E 0F
      -- -- -- -- -- -- -- --  -- -- -- -- -- -- -- --
0330:                1F 00 57  80 58 80 51 80 1F 01 6F       ..W.X.Q...o
0340: 5B 59 80 08 E2 05 01 08  E2 05 01 61 61 6E 30 00  [Y.........aan0.
```

#### Opcodes

```
  0: 0x0335 [0x1F] MOVE_ENTITY: EventEntity moves to X=-4.992*, Z=2.347*, Y=-25.500*
  1: 0x033D [0x1F] MOVE_ENTITY: Update entity position (mode=1)
  2: 0x033F [0x6F] WAIT_FRAME_DELAY: Yield until WaitTime reaches zero
  3: 0x0340 [0x5B] LOAD_EXT_SCHEDULER: Load scheduler "aan0" with entities [Romaa Mihgo (ID: 17162760/0x0105E208), Romaa Mihgo (ID: 17162760/0x0105E208)], work=2310*
  4: 0x034F [0x00] END_REQSTACK()
```

### Event 65535.30

#### Metadata

| Field        | Value    |
|--------------|----------|
| Entrypoint   | 0x0350   |
| Data Size    | 13 bytes |
| Instructions | 3        |

```
      00 01 02 03 04 05 06 07  08 09 0A 0B 0C 0D 0E 0F
      -- -- -- -- -- -- -- --  -- -- -- -- -- -- -- --
0350: 1C 10 80 4A 08 E2 05 01  18 E2 05 01 00           ...J.........   
```

#### Opcodes

```
  0: 0x0350 [0x1C] WAIT(30* ticks)
  1: 0x0353 [0x4A] Romaa Mihgo (ID: 17162760/0x0105E208) looks at Robel-Akbel (ID: 17162776/0x0105E218)
  2: 0x035C [0x00] END_REQSTACK()
```

### Event 65535.31

#### Metadata

| Field        | Value    |
|--------------|----------|
| Entrypoint   | 0x035D   |
| Data Size    | 11 bytes |
| Instructions | 3        |

```
      00 01 02 03 04 05 06 07  08 09 0A 0B 0C 0D 0E 0F
      -- -- -- -- -- -- -- --  -- -- -- -- -- -- -- --
0350:                                         1F 00 5A               ..Z
0360: 80 5B 80 5C 80 1F 01 00                           .[.\....        
```

#### Opcodes

```
  0: 0x035D [0x1F] MOVE_ENTITY: EventEntity moves to X=12.828*, Z=-4.831*, Y=0.749*
  1: 0x0365 [0x1F] MOVE_ENTITY: Update entity position (mode=1)
  2: 0x0367 [0x00] END_REQSTACK()
```

### Event 65535.32

#### Metadata

| Field        | Value   |
|--------------|---------|
| Entrypoint   | 0x0368  |
| Data Size    | 7 bytes |
| Instructions | 3       |

```
      00 01 02 03 04 05 06 07  08 09 0A 0B 0C 0D 0E 0F
      -- -- -- -- -- -- -- --  -- -- -- -- -- -- -- --
0360:                          1C 10 80 39 0E 80 00             ...9... 
```

#### Opcodes

```
  0: 0x0368 [0x1C] WAIT(30* ticks)
  1: 0x036B [0x39] SET_ENTITY_DIRECTION(direction=9.9°*)
  2: 0x036E [0x00] END_REQSTACK()
```

### Event 65535.33

#### Metadata

| Field        | Value    |
|--------------|----------|
| Entrypoint   | 0x036F   |
| Data Size    | 20 bytes |
| Instructions | 6        |

```
      00 01 02 03 04 05 06 07  08 09 0A 0B 0C 0D 0E 0F
      -- -- -- -- -- -- -- --  -- -- -- -- -- -- -- --
0360:                                               32                 2
0370: 00 80 1F 00 5D 80 5E 80  08 80 1F 01 6F 1E 11 E2  ....].^.....o...
0380: 05 01 00                                          ...             
```

#### Opcodes

```
  0: 0x036F [0x32] ExtData[1]->MainSpeed = 13* * 0.1
  1: 0x0372 [0x1F] MOVE_ENTITY: EventEntity moves to X=-0.769*, Z=15.575*, Y=-0.999*
  2: 0x037A [0x1F] MOVE_ENTITY: Update entity position (mode=1)
  3: 0x037C [0x6F] WAIT_FRAME_DELAY: Yield until WaitTime reaches zero
  4: 0x037D [0x1E] EventEntity looks at Naho Gwanboh (ID: 17162769/0x0105E211) and starts talking
  5: 0x0382 [0x00] END_REQSTACK()
```

### Event 65535.34

#### Metadata

| Field        | Value   |
|--------------|---------|
| Entrypoint   | 0x0383  |
| Data Size    | 4 bytes |
| Instructions | 2       |

```
      00 01 02 03 04 05 06 07  08 09 0A 0B 0C 0D 0E 0F
      -- -- -- -- -- -- -- --  -- -- -- -- -- -- -- --
0380:          39 5F 80 00                                 9_..         
```

#### Opcodes

```
  0: 0x0383 [0x39] SET_ENTITY_DIRECTION(direction=11.0°*)
  1: 0x0386 [0x00] END_REQSTACK()
```

### Event 65535.35

#### Metadata

| Field        | Value    |
|--------------|----------|
| Entrypoint   | 0x0387   |
| Data Size    | 14 bytes |
| Instructions | 4        |

```
      00 01 02 03 04 05 06 07  08 09 0A 0B 0C 0D 0E 0F
      -- -- -- -- -- -- -- --  -- -- -- -- -- -- -- --
0380:                      32  60 80 1F 00 61 80 62 80         2`...a.b.
0390: 63 80 1F 01 00                                    c....           
```

#### Opcodes

```
  0: 0x0387 [0x32] ExtData[1]->MainSpeed = 40* * 0.1
  1: 0x038A [0x1F] MOVE_ENTITY: EventEntity moves to X=-41.585*, Z=85.673*, Y=-5.000*
  2: 0x0392 [0x1F] MOVE_ENTITY: Update entity position (mode=1)
  3: 0x0394 [0x00] END_REQSTACK()
```

### Event 65535.36

#### Metadata

| Field        | Value    |
|--------------|----------|
| Entrypoint   | 0x0395   |
| Data Size    | 11 bytes |
| Instructions | 3        |

```
      00 01 02 03 04 05 06 07  08 09 0A 0B 0C 0D 0E 0F
      -- -- -- -- -- -- -- --  -- -- -- -- -- -- -- --
0390:                1F 00 64  80 65 80 66 80 1F 01 00       ..d.e.f....
```

#### Opcodes

```
  0: 0x0395 [0x1F] MOVE_ENTITY: EventEntity moves to X=-25.944*, Z=81.052*, Y=-4.922*
  1: 0x039D [0x1F] MOVE_ENTITY: Update entity position (mode=1)
  2: 0x039F [0x00] END_REQSTACK()
```

### Event 65535.37

#### Metadata

| Field        | Value    |
|--------------|----------|
| Entrypoint   | 0x03A0   |
| Data Size    | 14 bytes |
| Instructions | 4        |

```
      00 01 02 03 04 05 06 07  08 09 0A 0B 0C 0D 0E 0F
      -- -- -- -- -- -- -- --  -- -- -- -- -- -- -- --
03A0: 32 39 80 1F 00 67 80 68  80 69 80 1F 01 00        29...g.h.i....  
```

#### Opcodes

```
  0: 0x03A0 [0x32] ExtData[1]->MainSpeed = 12* * 0.1
  1: 0x03A3 [0x1F] MOVE_ENTITY: EventEntity moves to X=-33.517*, Z=66.663*, Y=-3.500*
  2: 0x03AB [0x1F] MOVE_ENTITY: Update entity position (mode=1)
  3: 0x03AD [0x00] END_REQSTACK()
```

### Event 65535.38

#### Metadata

| Field        | Value    |
|--------------|----------|
| Entrypoint   | 0x03AE   |
| Data Size    | 14 bytes |
| Instructions | 4        |

```
      00 01 02 03 04 05 06 07  08 09 0A 0B 0C 0D 0E 0F
      -- -- -- -- -- -- -- --  -- -- -- -- -- -- -- --
03A0:                                            32 39                29
03B0: 80 1F 00 67 80 68 80 69  80 1F 01 00              ...g.h.i....    
```

#### Opcodes

```
  0: 0x03AE [0x32] ExtData[1]->MainSpeed = 12* * 0.1
  1: 0x03B1 [0x1F] MOVE_ENTITY: EventEntity moves to X=-33.517*, Z=66.663*, Y=-3.500*
  2: 0x03B9 [0x1F] MOVE_ENTITY: Update entity position (mode=1)
  3: 0x03BB [0x00] END_REQSTACK()
```

### Event 65535.39

#### Metadata

| Field        | Value    |
|--------------|----------|
| Entrypoint   | 0x03BC   |
| Data Size    | 10 bytes |
| Instructions | 2        |

```
      00 01 02 03 04 05 06 07  08 09 0A 0B 0C 0D 0E 0F
      -- -- -- -- -- -- -- --  -- -- -- -- -- -- -- --
03B0:                                      6C F8 FF FF              l...
03C0: 7F 26 80 37 80 00                                 .&.7..          
```

#### Opcodes

```
  0: 0x03BC [0x6C] FADE_ENTITY_COLOR(entity_id=EventEntity, end_alpha=0*, fade_time=1*)
  1: 0x03C5 [0x00] END_REQSTACK()
```

### Event 65535.40

#### Metadata

| Field        | Value    |
|--------------|----------|
| Entrypoint   | 0x03C6   |
| Data Size    | 10 bytes |
| Instructions | 2        |

```
      00 01 02 03 04 05 06 07  08 09 0A 0B 0C 0D 0E 0F
      -- -- -- -- -- -- -- --  -- -- -- -- -- -- -- --
03C0:                   6C F8  FF FF 7F 38 80 37 80 00        l....8.7..
```

#### Opcodes

```
  0: 0x03C6 [0x6C] FADE_ENTITY_COLOR(entity_id=EventEntity, end_alpha=128*, fade_time=1*)
  1: 0x03CF [0x00] END_REQSTACK()
```

### Event 65535.41

#### Metadata

| Field        | Value    |
|--------------|----------|
| Entrypoint   | 0x03D0   |
| Data Size    | 30 bytes |
| Instructions | 8        |

```
      00 01 02 03 04 05 06 07  08 09 0A 0B 0C 0D 0E 0F
      -- -- -- -- -- -- -- --  -- -- -- -- -- -- -- --
03D0: 32 00 80 1F 00 6A 80 6B  80 6C 80 1F 01 6F 4A F8  2....j.k.l...oJ.
03E0: FF FF 7F 36 E2 05 01 6F  76 F8 FF FF 7F 00        ...6...ov.....  
```

#### Opcodes

```
  0: 0x03D0 [0x32] ExtData[1]->MainSpeed = 13* * 0.1
  1: 0x03D3 [0x1F] MOVE_ENTITY: EventEntity moves to X=-25.546*, Z=83.060*, Y=-4.962*
  2: 0x03DB [0x1F] MOVE_ENTITY: Update entity position (mode=1)
  3: 0x03DD [0x6F] WAIT_FRAME_DELAY: Yield until WaitTime reaches zero
  4: 0x03DE [0x4A] EventEntity looks at Lehko Habhoka (ID: 17162806/0x0105E236)
  5: 0x03E7 [0x6F] WAIT_FRAME_DELAY: Yield until WaitTime reaches zero
  6: 0x03E8 [0x76] CHECK_ENTITY_RENDER_FLAGS: Wait until EventEntity Render.Flags0 and Render.Flags3 conditions are met
  7: 0x03ED [0x00] END_REQSTACK()
```

### Event 33

#### Metadata

| Field        | Value   |
|--------------|---------|
| Entrypoint   | 0x03EE  |
| Data Size    | 1 bytes |
| Instructions | 1       |

```
      00 01 02 03 04 05 06 07  08 09 0A 0B 0C 0D 0E 0F
      -- -- -- -- -- -- -- --  -- -- -- -- -- -- -- --
03E0:                                            00                   . 
```

#### Opcodes

```
  0: 0x03EE [0x00] END_REQSTACK()
```

### Event 65535.42

#### Metadata

| Field        | Value    |
|--------------|----------|
| Entrypoint   | 0x03EF   |
| Data Size    | 20 bytes |
| Instructions | 6        |

```
      00 01 02 03 04 05 06 07  08 09 0A 0B 0C 0D 0E 0F
      -- -- -- -- -- -- -- --  -- -- -- -- -- -- -- --
03E0:                                               32                 2
03F0: 00 80 1F 00 6D 80 6E 80  6F 80 1F 01 6F 1E 2B E2  ....m.n.o...o.+.
0400: 05 01 00                                          ...             
```

#### Opcodes

```
  0: 0x03EF [0x32] ExtData[1]->MainSpeed = 13* * 0.1
  1: 0x03F2 [0x1F] MOVE_ENTITY: EventEntity moves to X=-40.043*, Z=222.967*, Y=-5.004*
  2: 0x03FA [0x1F] MOVE_ENTITY: Update entity position (mode=1)
  3: 0x03FC [0x6F] WAIT_FRAME_DELAY: Yield until WaitTime reaches zero
  4: 0x03FD [0x1E] EventEntity looks at Mihl Pakorhma (ID: 17162795/0x0105E22B) and starts talking
  5: 0x0402 [0x00] END_REQSTACK()
```

### Event 65535.43

#### Metadata

| Field        | Value    |
|--------------|----------|
| Entrypoint   | 0x0403   |
| Data Size    | 14 bytes |
| Instructions | 4        |

```
      00 01 02 03 04 05 06 07  08 09 0A 0B 0C 0D 0E 0F
      -- -- -- -- -- -- -- --  -- -- -- -- -- -- -- --
0400:          32 00 80 1F 00  70 80 71 80 63 80 1F 01     2....p.q.c...
0410: 00                                                .               
```

#### Opcodes

```
  0: 0x0403 [0x32] ExtData[1]->MainSpeed = 13* * 0.1
  1: 0x0406 [0x1F] MOVE_ENTITY: EventEntity moves to X=-40.576*, Z=217.462*, Y=-5.000*
  2: 0x040E [0x1F] MOVE_ENTITY: Update entity position (mode=1)
  3: 0x0410 [0x00] END_REQSTACK()
```

### Event 65535.44

#### Metadata

| Field        | Value    |
|--------------|----------|
| Entrypoint   | 0x0411   |
| Data Size    | 60 bytes |
| Instructions | 14       |

```
      00 01 02 03 04 05 06 07  08 09 0A 0B 0C 0D 0E 0F
      -- -- -- -- -- -- -- --  -- -- -- -- -- -- -- --
0410:    32 00 80 1F 00 72 80  73 80 54 80 1F 01 1F 00   2....r.s.T.....
0420: 74 80 75 80 54 80 1F 01  1F 00 76 80 77 80 54 80  t.u.T.....v.w.T.
0430: 1F 01 1F 00 78 80 79 80  54 80 1F 01 1F 00 7A 80  ....x.y.T.....z.
0440: 7B 80 54 80 1F 01 6F 1E  1A E2 05 01 00           {.T...o......   
```

#### Opcodes

```
  0: 0x0411 [0x32] ExtData[1]->MainSpeed = 13* * 0.1
  1: 0x0414 [0x1F] MOVE_ENTITY: EventEntity moves to X=-0.351*, Z=2.298*, Y=-25.499*
  2: 0x041C [0x1F] MOVE_ENTITY: Update entity position (mode=1)
  3: 0x041E [0x1F] MOVE_ENTITY: EventEntity moves to X=-2.561*, Z=1.726*, Y=-25.499*
  4: 0x0426 [0x1F] MOVE_ENTITY: Update entity position (mode=1)
  5: 0x0428 [0x1F] MOVE_ENTITY: EventEntity moves to X=-4.229*, Z=0.408*, Y=-25.499*
  6: 0x0430 [0x1F] MOVE_ENTITY: Update entity position (mode=1)
  7: 0x0432 [0x1F] MOVE_ENTITY: EventEntity moves to X=-6.377*, Z=0.628*, Y=-25.499*
  8: 0x043A [0x1F] MOVE_ENTITY: Update entity position (mode=1)
  9: 0x043C [0x1F] MOVE_ENTITY: EventEntity moves to X=-8.116*, Z=1.583*, Y=-25.499*
 10: 0x0444 [0x1F] MOVE_ENTITY: Update entity position (mode=1)
 11: 0x0446 [0x6F] WAIT_FRAME_DELAY: Yield until WaitTime reaches zero
 12: 0x0447 [0x1E] EventEntity looks at Star Sibyl (ID: 17162778/0x0105E21A) and starts talking
 13: 0x044C [0x00] END_REQSTACK()
```

### Event 65535.45

#### Metadata

| Field        | Value    |
|--------------|----------|
| Entrypoint   | 0x044D   |
| Data Size    | 14 bytes |
| Instructions | 4        |

```
      00 01 02 03 04 05 06 07  08 09 0A 0B 0C 0D 0E 0F
      -- -- -- -- -- -- -- --  -- -- -- -- -- -- -- --
0440:                                         32 00 80               2..
0450: 1F 00 7C 80 7D 80 7E 80  1F 01 00                 ..|.}.~....     
```

#### Opcodes

```
  0: 0x044D [0x32] ExtData[1]->MainSpeed = 13* * 0.1
  1: 0x0450 [0x1F] MOVE_ENTITY: EventEntity moves to X=-363.057*, Z=-392.678*, Y=3.813*
  2: 0x0458 [0x1F] MOVE_ENTITY: Update entity position (mode=1)
  3: 0x045A [0x00] END_REQSTACK()
```

### Event 23

#### Metadata

| Field        | Value   |
|--------------|---------|
| Entrypoint   | 0x045B  |
| Data Size    | 1 bytes |
| Instructions | 1       |

```
      00 01 02 03 04 05 06 07  08 09 0A 0B 0C 0D 0E 0F
      -- -- -- -- -- -- -- --  -- -- -- -- -- -- -- --
0450:                                   00                         .    
```

#### Opcodes

```
  0: 0x045B [0x00] END_REQSTACK()
```

### Event 24

#### Metadata

| Field        | Value   |
|--------------|---------|
| Entrypoint   | 0x045C  |
| Data Size    | 1 bytes |
| Instructions | 1       |

```
      00 01 02 03 04 05 06 07  08 09 0A 0B 0C 0D 0E 0F
      -- -- -- -- -- -- -- --  -- -- -- -- -- -- -- --
0450:                                      00                       .   
```

#### Opcodes

```
  0: 0x045C [0x00] END_REQSTACK()
```

### Event 65535.46

#### Metadata

| Field        | Value    |
|--------------|----------|
| Entrypoint   | 0x045D   |
| Data Size    | 16 bytes |
| Instructions | 4        |

```
      00 01 02 03 04 05 06 07  08 09 0A 0B 0C 0D 0E 0F
      -- -- -- -- -- -- -- --  -- -- -- -- -- -- -- --
0450:                                         1F 00 7F               ...
0460: 80 80 80 81 80 1F 01 1E  F0 FF FF 7F 00           .............   
```

#### Opcodes

```
  0: 0x045D [0x1F] MOVE_ENTITY: EventEntity moves to X=-39.908*, Z=209.214*, Y=-5.015*
  1: 0x0465 [0x1F] MOVE_ENTITY: Update entity position (mode=1)
  2: 0x0467 [0x1E] EventEntity looks at LocalPlayer and starts talking
  3: 0x046C [0x00] END_REQSTACK()
```

### Event 65535.47

#### Metadata

| Field        | Value    |
|--------------|----------|
| Entrypoint   | 0x046D   |
| Data Size    | 15 bytes |
| Instructions | 5        |

```
      00 01 02 03 04 05 06 07  08 09 0A 0B 0C 0D 0E 0F
      -- -- -- -- -- -- -- --  -- -- -- -- -- -- -- --
0460:                                         1F 00 82               ...
0470: 80 83 80 63 80 1F 01 6F  1C 10 80 00              ...c...o....    
```

#### Opcodes

```
  0: 0x046D [0x1F] MOVE_ENTITY: EventEntity moves to X=-39.954*, Z=220.139*, Y=-5.000*
  1: 0x0475 [0x1F] MOVE_ENTITY: Update entity position (mode=1)
  2: 0x0477 [0x6F] WAIT_FRAME_DELAY: Yield until WaitTime reaches zero
  3: 0x0478 [0x1C] WAIT(30* ticks)
  4: 0x047B [0x00] END_REQSTACK()
```

### Event 65535.48

#### Metadata

| Field        | Value    |
|--------------|----------|
| Entrypoint   | 0x047C   |
| Data Size    | 11 bytes |
| Instructions | 3        |

```
      00 01 02 03 04 05 06 07  08 09 0A 0B 0C 0D 0E 0F
      -- -- -- -- -- -- -- --  -- -- -- -- -- -- -- --
0470:                                      1F 00 7F 80              ....
0480: 80 80 81 80 1F 01 00                              .......         
```

#### Opcodes

```
  0: 0x047C [0x1F] MOVE_ENTITY: EventEntity moves to X=-39.908*, Z=209.214*, Y=-5.015*
  1: 0x0484 [0x1F] MOVE_ENTITY: Update entity position (mode=1)
  2: 0x0486 [0x00] END_REQSTACK()
```

### Event 65535.49

#### Metadata

| Field        | Value    |
|--------------|----------|
| Entrypoint   | 0x0487   |
| Data Size    | 41 bytes |
| Instructions | 9        |

```
      00 01 02 03 04 05 06 07  08 09 0A 0B 0C 0D 0E 0F
      -- -- -- -- -- -- -- --  -- -- -- -- -- -- -- --
0480:                      1F  00 84 80 85 80 4E 80 1F         ......N..
0490: 01 1F 00 86 80 87 80 4E  80 1F 01 1F 00 88 80 89  .......N........
04A0: 80 4E 80 1F 01 1F 00 8A  80 8B 80 51 80 1F 01 00  .N.........Q....
```

#### Opcodes

```
  0: 0x0487 [0x1F] MOVE_ENTITY: EventEntity moves to X=31.808*, Z=0.162*, Y=-25.999*
  1: 0x048F [0x1F] MOVE_ENTITY: Update entity position (mode=1)
  2: 0x0491 [0x1F] MOVE_ENTITY: EventEntity moves to X=29.065*, Z=2.524*, Y=-25.999*
  3: 0x0499 [0x1F] MOVE_ENTITY: Update entity position (mode=1)
  4: 0x049B [0x1F] MOVE_ENTITY: EventEntity moves to X=18.935*, Z=-0.104*, Y=-25.999*
  5: 0x04A3 [0x1F] MOVE_ENTITY: Update entity position (mode=1)
  6: 0x04A5 [0x1F] MOVE_ENTITY: EventEntity moves to X=9.497*, Z=-4.455*, Y=-25.500*
  7: 0x04AD [0x1F] MOVE_ENTITY: Update entity position (mode=1)
  8: 0x04AF [0x00] END_REQSTACK()
```

### Event 65535.50

#### Metadata

| Field        | Value    |
|--------------|----------|
| Entrypoint   | 0x04B0   |
| Data Size    | 34 bytes |
| Instructions | 8        |

```
      00 01 02 03 04 05 06 07  08 09 0A 0B 0C 0D 0E 0F
      -- -- -- -- -- -- -- --  -- -- -- -- -- -- -- --
04B0: 32 8C 80 1F 00 8D 80 8E  80 54 80 1F 01 1F 00 8F  2........T......
04C0: 80 90 80 54 80 1F 01 1F  00 86 80 87 80 4E 80 1F  ...T.........N..
04D0: 01 00                                             ..              
```

#### Opcodes

```
  0: 0x04B0 [0x32] ExtData[1]->MainSpeed = 35* * 0.1
  1: 0x04B3 [0x1F] MOVE_ENTITY: EventEntity moves to X=-5.514*, Z=-6.602*, Y=-25.499*
  2: 0x04BB [0x1F] MOVE_ENTITY: Update entity position (mode=1)
  3: 0x04BD [0x1F] MOVE_ENTITY: EventEntity moves to X=5.506*, Z=-6.844*, Y=-25.499*
  4: 0x04C5 [0x1F] MOVE_ENTITY: Update entity position (mode=1)
  5: 0x04C7 [0x1F] MOVE_ENTITY: EventEntity moves to X=29.065*, Z=2.524*, Y=-25.999*
  6: 0x04CF [0x1F] MOVE_ENTITY: Update entity position (mode=1)
  7: 0x04D1 [0x00] END_REQSTACK()
```

### Event 28

#### Metadata

| Field        | Value    |
|--------------|----------|
| Entrypoint   | 0x04D2   |
| Data Size    | 23 bytes |
| Instructions | 7        |

```
      00 01 02 03 04 05 06 07  08 09 0A 0B 0C 0D 0E 0F
      -- -- -- -- -- -- -- --  -- -- -- -- -- -- -- --
04D0:       1E F0 FF FF 7F 1C  10 80 03 02 10 14 80 2B    .............+
04E0: F8 FF FF 7F 91 80 23 21  00                       ......#!.       
```

#### Opcodes

```
  0: 0x04D2 [0x1E] EventEntity looks at LocalPlayer and starts talking
  1: 0x04D7 [0x1C] WAIT(30* ticks)
  2: 0x04DA [0x03] Work_Zone[2] = 5708*
  3: 0x04DF [0x2B] EventEntity [13797*]:
    → "Cobras are to rrreport to West Sarutabaruta, just outside Odin's Gate. That means you too, <Player>! On the double!"
  4: 0x04E6 [0x23] WAIT_FOR_DIALOG_INTERACTION
  5: 0x04E7 [0x21] END_EVENT
  6: 0x04E8 [0x00] END_REQSTACK()
```

### Event 65535.51

#### Metadata

| Field        | Value    |
|--------------|----------|
| Entrypoint   | 0x04E9   |
| Data Size    | 49 bytes |
| Instructions | 10       |

```
      00 01 02 03 04 05 06 07  08 09 0A 0B 0C 0D 0E 0F
      -- -- -- -- -- -- -- --  -- -- -- -- -- -- -- --
04E0:                             59 04 F8 FF FF 7F 00           Y......
04F0: 80 1F 00 92 80 93 80 03  80 1F 01 1F 00 94 80 95  ................
0500: 80 03 80 1F 01 1F 00 96  80 97 80 03 80 1F 01 6F  ...............o
0510: 4A F8 FF FF 7F F0 FF FF  7F 00                    J.........      
```

#### Opcodes

```
  0: 0x04E9 [0x59] UPDATE_ENTITY_DATA: Set EventEntity main speed = 13* * 0.1
  1: 0x04F1 [0x1F] MOVE_ENTITY: EventEntity moves to X=0.403*, Z=47.523*, Y=-1.000*
  2: 0x04F9 [0x1F] MOVE_ENTITY: Update entity position (mode=1)
  3: 0x04FB [0x1F] MOVE_ENTITY: EventEntity moves to X=1.178*, Z=48.533*, Y=-1.000*
  4: 0x0503 [0x1F] MOVE_ENTITY: Update entity position (mode=1)
  5: 0x0505 [0x1F] MOVE_ENTITY: EventEntity moves to X=1.477*, Z=49.067*, Y=-1.000*
  6: 0x050D [0x1F] MOVE_ENTITY: Update entity position (mode=1)
  7: 0x050F [0x6F] WAIT_FRAME_DELAY: Yield until WaitTime reaches zero
  8: 0x0510 [0x4A] EventEntity looks at LocalPlayer
  9: 0x0519 [0x00] END_REQSTACK()
```

### Event 65535.52

#### Metadata

| Field        | Value    |
|--------------|----------|
| Entrypoint   | 0x051A   |
| Data Size    | 44 bytes |
| Instructions | 7        |

```
      00 01 02 03 04 05 06 07  08 09 0A 0B 0C 0D 0E 0F
      -- -- -- -- -- -- -- --  -- -- -- -- -- -- -- --
0510:                                59 04 F8 FF FF 7F            Y.....
0520: 00 80 1F 00 98 80 99 80  1D 80 1F 01 6F 4A F8 FF  ............oJ..
0530: FF 7F 4E E2 05 01 5B 3C  80 08 E2 05 01 08 E2 05  ..N...[<........
0540: 01 73 74 61 30 00                                 .sta0.          
```

#### Opcodes

```
  0: 0x051A [0x59] UPDATE_ENTITY_DATA: Set EventEntity main speed = 13* * 0.1
  1: 0x0522 [0x1F] MOVE_ENTITY: EventEntity moves to X=-13.733*, Z=84.623*, Y=-4.999*
  2: 0x052A [0x1F] MOVE_ENTITY: Update entity position (mode=1)
  3: 0x052C [0x6F] WAIT_FRAME_DELAY: Yield until WaitTime reaches zero
  4: 0x052D [0x4A] EventEntity looks at Shikaree G (ID: 17162830/0x0105E24E)
  5: 0x0536 [0x5B] LOAD_EXT_SCHEDULER: Load scheduler "sta0" with entities [Romaa Mihgo (ID: 17162760/0x0105E208), Romaa Mihgo (ID: 17162760/0x0105E208)], work=1327*
  6: 0x0545 [0x00] END_REQSTACK()
```

### Event 65535.53

#### Metadata

| Field        | Value    |
|--------------|----------|
| Entrypoint   | 0x0546   |
| Data Size    | 40 bytes |
| Instructions | 5        |

```
      00 01 02 03 04 05 06 07  08 09 0A 0B 0C 0D 0E 0F
      -- -- -- -- -- -- -- --  -- -- -- -- -- -- -- --
0540:                   5B 9A  80 08 E2 05 01 08 E2 05        [.........
0550: 01 64 6B 69 30 1C 9B 80  7C 00 F8 FF FF 7F 5B 9A  .dki0...|.....[.
0560: 80 08 E2 05 01 08 E2 05  01 64 6B 69 31 00        .........dki1.  
```

#### Opcodes

```
  0: 0x0546 [0x5B] LOAD_EXT_SCHEDULER: Load scheduler "dki0" with entities [Romaa Mihgo (ID: 17162760/0x0105E208), Romaa Mihgo (ID: 17162760/0x0105E208)], work=2415*
  1: 0x0555 [0x1C] WAIT(45* ticks)
  2: 0x0558 [0x7C] EventEntity->Render.Flags2 |= 0x00
  3: 0x055E [0x5B] LOAD_EXT_SCHEDULER: Load scheduler "dki1" with entities [Romaa Mihgo (ID: 17162760/0x0105E208), Romaa Mihgo (ID: 17162760/0x0105E208)], work=2415*
  4: 0x056D [0x00] END_REQSTACK()
```

### Event 65535.54

#### Metadata

| Field        | Value    |
|--------------|----------|
| Entrypoint   | 0x056E   |
| Data Size    | 21 bytes |
| Instructions | 5        |

```
      00 01 02 03 04 05 06 07  08 09 0A 0B 0C 0D 0E 0F
      -- -- -- -- -- -- -- --  -- -- -- -- -- -- -- --
0560:                                            1F 00                ..
0570: 9C 80 9D 80 1D 80 1F 01  6F 4A 08 E2 05 01 07 E2  ........oJ......
0580: 05 01 00                                          ...             
```

#### Opcodes

```
  0: 0x056E [0x1F] MOVE_ENTITY: EventEntity moves to X=-15.209*, Z=84.518*, Y=-4.999*
  1: 0x0576 [0x1F] MOVE_ENTITY: Update entity position (mode=1)
  2: 0x0578 [0x6F] WAIT_FRAME_DELAY: Yield until WaitTime reaches zero
  3: 0x0579 [0x4A] Romaa Mihgo (ID: 17162760/0x0105E208) looks at Perih Vashai (ID: 17162759/0x0105E207)
  4: 0x0582 [0x00] END_REQSTACK()
```

### Event 65535.55

#### Metadata

| Field        | Value    |
|--------------|----------|
| Entrypoint   | 0x0583   |
| Data Size    | 20 bytes |
| Instructions | 5        |

```
      00 01 02 03 04 05 06 07  08 09 0A 0B 0C 0D 0E 0F
      -- -- -- -- -- -- -- --  -- -- -- -- -- -- -- --
0580:          59 04 F8 FF FF  7F 00 80 1F 00 9E 80 9F     Y............
0590: 80 08 80 1F 01 6F 00                              .....o.         
```

#### Opcodes

```
  0: 0x0583 [0x59] UPDATE_ENTITY_DATA: Set EventEntity main speed = 13* * 0.1
  1: 0x058B [0x1F] MOVE_ENTITY: EventEntity moves to X=2.506*, Z=17.325*, Y=-0.999*
  2: 0x0593 [0x1F] MOVE_ENTITY: Update entity position (mode=1)
  3: 0x0595 [0x6F] WAIT_FRAME_DELAY: Yield until WaitTime reaches zero
  4: 0x0596 [0x00] END_REQSTACK()
```

### Event 65535.56

#### Metadata

| Field        | Value    |
|--------------|----------|
| Entrypoint   | 0x0597   |
| Data Size    | 20 bytes |
| Instructions | 5        |

```
      00 01 02 03 04 05 06 07  08 09 0A 0B 0C 0D 0E 0F
      -- -- -- -- -- -- -- --  -- -- -- -- -- -- -- --
0590:                      59  04 F8 FF FF 7F 39 80 1F         Y.....9..
05A0: 00 A0 80 A1 80 03 80 1F  01 6F 00                 .........o.     
```

#### Opcodes

```
  0: 0x0597 [0x59] UPDATE_ENTITY_DATA: Set EventEntity main speed = 12* * 0.1
  1: 0x059F [0x1F] MOVE_ENTITY: EventEntity moves to X=0.486*, Z=14.793*, Y=-1.000*
  2: 0x05A7 [0x1F] MOVE_ENTITY: Update entity position (mode=1)
  3: 0x05A9 [0x6F] WAIT_FRAME_DELAY: Yield until WaitTime reaches zero
  4: 0x05AA [0x00] END_REQSTACK()
```

### Event 65535.57

#### Metadata

| Field        | Value    |
|--------------|----------|
| Entrypoint   | 0x05AB   |
| Data Size    | 20 bytes |
| Instructions | 5        |

```
      00 01 02 03 04 05 06 07  08 09 0A 0B 0C 0D 0E 0F
      -- -- -- -- -- -- -- --  -- -- -- -- -- -- -- --
05A0:                                   59 04 F8 FF FF             Y....
05B0: 7F 60 80 1F 00 A2 80 A3  80 08 80 1F 01 6F 00     .`...........o. 
```

#### Opcodes

```
  0: 0x05AB [0x59] UPDATE_ENTITY_DATA: Set EventEntity main speed = 40* * 0.1
  1: 0x05B3 [0x1F] MOVE_ENTITY: EventEntity moves to X=-3.560*, Z=62.925*, Y=-0.999*
  2: 0x05BB [0x1F] MOVE_ENTITY: Update entity position (mode=1)
  3: 0x05BD [0x6F] WAIT_FRAME_DELAY: Yield until WaitTime reaches zero
  4: 0x05BE [0x00] END_REQSTACK()
```

### Event 65535.58

#### Metadata

| Field        | Value    |
|--------------|----------|
| Entrypoint   | 0x05BF   |
| Data Size    | 16 bytes |
| Instructions | 2        |

```
      00 01 02 03 04 05 06 07  08 09 0A 0B 0C 0D 0E 0F
      -- -- -- -- -- -- -- --  -- -- -- -- -- -- -- --
05B0:                                               66                 f
05C0: A4 80 F8 FF FF 7F F8 FF  FF 7F 74 6C 6B 30 00     ..........tlk0. 
```

#### Opcodes

```
  0: 0x05BF [0x66] LOAD_EXT_SCHEDULER_MAIN: Load scheduler "tlk0" with entities [EventEntity, EventEntity], work=59*
  1: 0x05CE [0x00] END_REQSTACK()
```

### Event 65535.59

#### Metadata

| Field        | Value    |
|--------------|----------|
| Entrypoint   | 0x05CF   |
| Data Size    | 14 bytes |
| Instructions | 2        |

```
      00 01 02 03 04 05 06 07  08 09 0A 0B 0C 0D 0E 0F
      -- -- -- -- -- -- -- --  -- -- -- -- -- -- -- --
05C0:                                               53                 S
05D0: F8 FF FF 7F F8 FF FF 7F  74 6C 6B 30 00           ........tlk0.   
```

#### Opcodes

```
  0: 0x05CF [0x53] WAIT_SCHEDULER_TASK: Wait for scheduler "tlk0" with entities [EventEntity, EventEntity]
  1: 0x05DC [0x00] END_REQSTACK()
```

### Event 65535.60

#### Metadata

| Field        | Value    |
|--------------|----------|
| Entrypoint   | 0x05DD   |
| Data Size    | 16 bytes |
| Instructions | 2        |

```
      00 01 02 03 04 05 06 07  08 09 0A 0B 0C 0D 0E 0F
      -- -- -- -- -- -- -- --  -- -- -- -- -- -- -- --
05D0:                                         66 A4 80               f..
05E0: F8 FF FF 7F F8 FF FF 7F  74 6C 6B 31 00           ........tlk1.   
```

#### Opcodes

```
  0: 0x05DD [0x66] LOAD_EXT_SCHEDULER_MAIN: Load scheduler "tlk1" with entities [EventEntity, EventEntity], work=59*
  1: 0x05EC [0x00] END_REQSTACK()
```

### Event 65535.61

#### Metadata

| Field        | Value    |
|--------------|----------|
| Entrypoint   | 0x05ED   |
| Data Size    | 14 bytes |
| Instructions | 2        |

```
      00 01 02 03 04 05 06 07  08 09 0A 0B 0C 0D 0E 0F
      -- -- -- -- -- -- -- --  -- -- -- -- -- -- -- --
05E0:                                         53 F8 FF               S..
05F0: FF 7F F8 FF FF 7F 74 6C  6B 31 00                 ......tlk1.     
```

#### Opcodes

```
  0: 0x05ED [0x53] WAIT_SCHEDULER_TASK: Wait for scheduler "tlk1" with entities [EventEntity, EventEntity]
  1: 0x05FA [0x00] END_REQSTACK()
```

### Event 65535.62

#### Metadata

| Field        | Value    |
|--------------|----------|
| Entrypoint   | 0x05FB   |
| Data Size    | 16 bytes |
| Instructions | 2        |

```
      00 01 02 03 04 05 06 07  08 09 0A 0B 0C 0D 0E 0F
      -- -- -- -- -- -- -- --  -- -- -- -- -- -- -- --
05F0:                                   66 A4 80 F8 FF             f....
0600: FF 7F F8 FF FF 7F 74 68  6B 31 00                 ......thk1.     
```

#### Opcodes

```
  0: 0x05FB [0x66] LOAD_EXT_SCHEDULER_MAIN: Load scheduler "thk1" with entities [EventEntity, EventEntity], work=59*
  1: 0x060A [0x00] END_REQSTACK()
```

### Event 65535.63

#### Metadata

| Field        | Value    |
|--------------|----------|
| Entrypoint   | 0x060B   |
| Data Size    | 14 bytes |
| Instructions | 2        |

```
      00 01 02 03 04 05 06 07  08 09 0A 0B 0C 0D 0E 0F
      -- -- -- -- -- -- -- --  -- -- -- -- -- -- -- --
0600:                                   53 F8 FF FF 7F             S....
0610: F8 FF FF 7F 74 68 6B 31  00                       ....thk1.       
```

#### Opcodes

```
  0: 0x060B [0x53] WAIT_SCHEDULER_TASK: Wait for scheduler "thk1" with entities [EventEntity, EventEntity]
  1: 0x0618 [0x00] END_REQSTACK()
```

### Event 65535.64

#### Metadata

| Field        | Value    |
|--------------|----------|
| Entrypoint   | 0x0619   |
| Data Size    | 16 bytes |
| Instructions | 2        |

```
      00 01 02 03 04 05 06 07  08 09 0A 0B 0C 0D 0E 0F
      -- -- -- -- -- -- -- --  -- -- -- -- -- -- -- --
0610:                             66 A4 80 F8 FF FF 7F           f......
0620: F8 FF FF 7F 74 68 6B 32  00                       ....thk2.       
```

#### Opcodes

```
  0: 0x0619 [0x66] LOAD_EXT_SCHEDULER_MAIN: Load scheduler "thk2" with entities [EventEntity, EventEntity], work=59*
  1: 0x0628 [0x00] END_REQSTACK()
```

### Event 65535.65

#### Metadata

| Field        | Value    |
|--------------|----------|
| Entrypoint   | 0x0629   |
| Data Size    | 14 bytes |
| Instructions | 2        |

```
      00 01 02 03 04 05 06 07  08 09 0A 0B 0C 0D 0E 0F
      -- -- -- -- -- -- -- --  -- -- -- -- -- -- -- --
0620:                             53 F8 FF FF 7F F8 FF           S......
0630: FF 7F 74 68 6B 32 00                              ..thk2.         
```

#### Opcodes

```
  0: 0x0629 [0x53] WAIT_SCHEDULER_TASK: Wait for scheduler "thk2" with entities [EventEntity, EventEntity]
  1: 0x0636 [0x00] END_REQSTACK()
```

### Event 65535.66

#### Metadata

| Field        | Value   |
|--------------|---------|
| Entrypoint   | 0x0637  |
| Data Size    | 9 bytes |
| Instructions | 3       |

```
      00 01 02 03 04 05 06 07  08 09 0A 0B 0C 0D 0E 0F
      -- -- -- -- -- -- -- --  -- -- -- -- -- -- -- --
0630:                      5E  69 64 6C 30 1C 3F 80 00         ^idl0.?..
```

#### Opcodes

```
  0: 0x0637 [0x5E] EventEntity goes idle (kills current action) (animation: "idl0")
  1: 0x063C [0x1C] WAIT(60* ticks)
  2: 0x063F [0x00] END_REQSTACK()
```

### Event 65535.67

#### Metadata

| Field        | Value    |
|--------------|----------|
| Entrypoint   | 0x0640   |
| Data Size    | 18 bytes |
| Instructions | 4        |

```
      00 01 02 03 04 05 06 07  08 09 0A 0B 0C 0D 0E 0F
      -- -- -- -- -- -- -- --  -- -- -- -- -- -- -- --
0640: 6E F8 FF FF 7F A5 80 99  F8 FF FF 7F 99 F8 FF FF  n...............
0650: 7F 00                                             ..              
```

#### Opcodes

```
  0: 0x0640 [0x6E] EventEntity uses emote 25*
  1: 0x0647 [0x99] Wait for EventEntity animation to complete
  2: 0x064C [0x99] Wait for EventEntity animation to complete
  3: 0x0651 [0x00] END_REQSTACK()
```

### Event 65535.68

#### Metadata

| Field        | Value    |
|--------------|----------|
| Entrypoint   | 0x0652   |
| Data Size    | 27 bytes |
| Instructions | 3        |

```
      00 01 02 03 04 05 06 07  08 09 0A 0B 0C 0D 0E 0F
      -- -- -- -- -- -- -- --  -- -- -- -- -- -- -- --
0650:       2C F8 FF FF 7F F8  FF FF 7F 72 65 73 30 53    ,........res0S
0660: F8 FF FF 7F F8 FF FF 7F  72 65 73 30 00           ........res0.   
```

#### Opcodes

```
  0: 0x0652 [0x2C] CREATE_SCHEDULER_TASK: Create scheduler "res0" with entities [EventEntity, EventEntity]
  1: 0x065F [0x53] WAIT_SCHEDULER_TASK: Wait for scheduler "res0" with entities [EventEntity, EventEntity]
  2: 0x066C [0x00] END_REQSTACK()
```

### Event 65535.69

#### Metadata

| Field        | Value    |
|--------------|----------|
| Entrypoint   | 0x066D   |
| Data Size    | 27 bytes |
| Instructions | 3        |

```
      00 01 02 03 04 05 06 07  08 09 0A 0B 0C 0D 0E 0F
      -- -- -- -- -- -- -- --  -- -- -- -- -- -- -- --
0660:                                         2C F8 FF               ,..
0670: FF 7F F8 FF FF 7F 72 65  73 31 53 F8 FF FF 7F F8  ......res1S.....
0680: FF FF 7F 72 65 73 31 00                           ...res1.        
```

#### Opcodes

```
  0: 0x066D [0x2C] CREATE_SCHEDULER_TASK: Create scheduler "res1" with entities [EventEntity, EventEntity]
  1: 0x067A [0x53] WAIT_SCHEDULER_TASK: Wait for scheduler "res1" with entities [EventEntity, EventEntity]
  2: 0x0687 [0x00] END_REQSTACK()
```

### Event 65535.70

#### Metadata

| Field        | Value    |
|--------------|----------|
| Entrypoint   | 0x0688   |
| Data Size    | 27 bytes |
| Instructions | 3        |

```
      00 01 02 03 04 05 06 07  08 09 0A 0B 0C 0D 0E 0F
      -- -- -- -- -- -- -- --  -- -- -- -- -- -- -- --
0680:                          2C F8 FF FF 7F F8 FF FF          ,.......
0690: 7F 72 65 73 32 53 F8 FF  FF 7F F8 FF FF 7F 72 65  .res2S........re
06A0: 73 32 00                                          s2.             
```

#### Opcodes

```
  0: 0x0688 [0x2C] CREATE_SCHEDULER_TASK: Create scheduler "res2" with entities [EventEntity, EventEntity]
  1: 0x0695 [0x53] WAIT_SCHEDULER_TASK: Wait for scheduler "res2" with entities [EventEntity, EventEntity]
  2: 0x06A2 [0x00] END_REQSTACK()
```

### Event 65535.71

#### Metadata

| Field        | Value    |
|--------------|----------|
| Entrypoint   | 0x06A3   |
| Data Size    | 16 bytes |
| Instructions | 2        |

```
      00 01 02 03 04 05 06 07  08 09 0A 0B 0C 0D 0E 0F
      -- -- -- -- -- -- -- --  -- -- -- -- -- -- -- --
06A0:          5B 3C 80 F8 FF  FF 7F F8 FF FF 7F 73 74     [<.........st
06B0: 61 30 00                                          a0.             
```

#### Opcodes

```
  0: 0x06A3 [0x5B] LOAD_EXT_SCHEDULER: Load scheduler "sta0" with entities [EventEntity, EventEntity], work=1327*
  1: 0x06B2 [0x00] END_REQSTACK()
```

### Event 65535.72

#### Metadata

| Field        | Value    |
|--------------|----------|
| Entrypoint   | 0x06B3   |
| Data Size    | 14 bytes |
| Instructions | 2        |

```
      00 01 02 03 04 05 06 07  08 09 0A 0B 0C 0D 0E 0F
      -- -- -- -- -- -- -- --  -- -- -- -- -- -- -- --
06B0:          53 F8 FF FF 7F  F8 FF FF 7F 73 74 61 30     S........sta0
06C0: 00                                                .               
```

#### Opcodes

```
  0: 0x06B3 [0x53] WAIT_SCHEDULER_TASK: Wait for scheduler "sta0" with entities [EventEntity, EventEntity]
  1: 0x06C0 [0x00] END_REQSTACK()
```

### Event 65535.73

#### Metadata

| Field        | Value    |
|--------------|----------|
| Entrypoint   | 0x06C1   |
| Data Size    | 16 bytes |
| Instructions | 2        |

```
      00 01 02 03 04 05 06 07  08 09 0A 0B 0C 0D 0E 0F
      -- -- -- -- -- -- -- --  -- -- -- -- -- -- -- --
06C0:    5B 3C 80 F8 FF FF 7F  F8 FF FF 7F 73 74 61 31   [<.........sta1
06D0: 00                                                .               
```

#### Opcodes

```
  0: 0x06C1 [0x5B] LOAD_EXT_SCHEDULER: Load scheduler "sta1" with entities [EventEntity, EventEntity], work=1327*
  1: 0x06D0 [0x00] END_REQSTACK()
```

### Event 65535.74

#### Metadata

| Field        | Value    |
|--------------|----------|
| Entrypoint   | 0x06D1   |
| Data Size    | 14 bytes |
| Instructions | 2        |

```
      00 01 02 03 04 05 06 07  08 09 0A 0B 0C 0D 0E 0F
      -- -- -- -- -- -- -- --  -- -- -- -- -- -- -- --
06D0:    53 F8 FF FF 7F F8 FF  FF 7F 73 74 61 31 00      S........sta1. 
```

#### Opcodes

```
  0: 0x06D1 [0x53] WAIT_SCHEDULER_TASK: Wait for scheduler "sta1" with entities [EventEntity, EventEntity]
  1: 0x06DE [0x00] END_REQSTACK()
```

### Event 65535.75

#### Metadata

| Field        | Value    |
|--------------|----------|
| Entrypoint   | 0x06DF   |
| Data Size    | 16 bytes |
| Instructions | 2        |

```
      00 01 02 03 04 05 06 07  08 09 0A 0B 0C 0D 0E 0F
      -- -- -- -- -- -- -- --  -- -- -- -- -- -- -- --
06D0:                                               5B                 [
06E0: 3C 80 F8 FF FF 7F F8 FF  FF 7F 73 74 62 30 00     <.........stb0. 
```

#### Opcodes

```
  0: 0x06DF [0x5B] LOAD_EXT_SCHEDULER: Load scheduler "stb0" with entities [EventEntity, EventEntity], work=1327*
  1: 0x06EE [0x00] END_REQSTACK()
```

### Event 65535.76

#### Metadata

| Field        | Value    |
|--------------|----------|
| Entrypoint   | 0x06EF   |
| Data Size    | 14 bytes |
| Instructions | 2        |

```
      00 01 02 03 04 05 06 07  08 09 0A 0B 0C 0D 0E 0F
      -- -- -- -- -- -- -- --  -- -- -- -- -- -- -- --
06E0:                                               53                 S
06F0: F8 FF FF 7F F8 FF FF 7F  73 74 62 30 00           ........stb0.   
```

#### Opcodes

```
  0: 0x06EF [0x53] WAIT_SCHEDULER_TASK: Wait for scheduler "stb0" with entities [EventEntity, EventEntity]
  1: 0x06FC [0x00] END_REQSTACK()
```

### Event 65535.77

#### Metadata

| Field        | Value    |
|--------------|----------|
| Entrypoint   | 0x06FD   |
| Data Size    | 16 bytes |
| Instructions | 2        |

```
      00 01 02 03 04 05 06 07  08 09 0A 0B 0C 0D 0E 0F
      -- -- -- -- -- -- -- --  -- -- -- -- -- -- -- --
06F0:                                         5B 3C 80               [<.
0700: F8 FF FF 7F F8 FF FF 7F  73 74 62 31 00           ........stb1.   
```

#### Opcodes

```
  0: 0x06FD [0x5B] LOAD_EXT_SCHEDULER: Load scheduler "stb1" with entities [EventEntity, EventEntity], work=1327*
  1: 0x070C [0x00] END_REQSTACK()
```

### Event 65535.78

#### Metadata

| Field        | Value    |
|--------------|----------|
| Entrypoint   | 0x070D   |
| Data Size    | 14 bytes |
| Instructions | 2        |

```
      00 01 02 03 04 05 06 07  08 09 0A 0B 0C 0D 0E 0F
      -- -- -- -- -- -- -- --  -- -- -- -- -- -- -- --
0700:                                         53 F8 FF               S..
0710: FF 7F F8 FF FF 7F 73 74  62 31 00                 ......stb1.     
```

#### Opcodes

```
  0: 0x070D [0x53] WAIT_SCHEDULER_TASK: Wait for scheduler "stb1" with entities [EventEntity, EventEntity]
  1: 0x071A [0x00] END_REQSTACK()
```

### Event 65535.79

#### Metadata

| Field        | Value    |
|--------------|----------|
| Entrypoint   | 0x071B   |
| Data Size    | 16 bytes |
| Instructions | 2        |

```
      00 01 02 03 04 05 06 07  08 09 0A 0B 0C 0D 0E 0F
      -- -- -- -- -- -- -- --  -- -- -- -- -- -- -- --
0710:                                   5B 3C 80 F8 FF             [<...
0720: FF 7F F8 FF FF 7F 6E 79  61 30 00                 ......nya0.     
```

#### Opcodes

```
  0: 0x071B [0x5B] LOAD_EXT_SCHEDULER: Load scheduler "nya0" with entities [EventEntity, EventEntity], work=1327*
  1: 0x072A [0x00] END_REQSTACK()
```

### Event 65535.80

#### Metadata

| Field        | Value    |
|--------------|----------|
| Entrypoint   | 0x072B   |
| Data Size    | 14 bytes |
| Instructions | 2        |

```
      00 01 02 03 04 05 06 07  08 09 0A 0B 0C 0D 0E 0F
      -- -- -- -- -- -- -- --  -- -- -- -- -- -- -- --
0720:                                   53 F8 FF FF 7F             S....
0730: F8 FF FF 7F 6E 79 61 30  00                       ....nya0.       
```

#### Opcodes

```
  0: 0x072B [0x53] WAIT_SCHEDULER_TASK: Wait for scheduler "nya0" with entities [EventEntity, EventEntity]
  1: 0x0738 [0x00] END_REQSTACK()
```

### Event 65535.81

#### Metadata

| Field        | Value    |
|--------------|----------|
| Entrypoint   | 0x0739   |
| Data Size    | 22 bytes |
| Instructions | 3        |

```
      00 01 02 03 04 05 06 07  08 09 0A 0B 0C 0D 0E 0F
      -- -- -- -- -- -- -- --  -- -- -- -- -- -- -- --
