# 17162900 - 02

## Common Data

| Field            | Value                        |
|------------------|------------------------------|
| Zone             | Windurst Waters [S] (ID: 94) |
| Block Size       | 2856 bytes                   |
| Total Events     | 47                           |
| References Count | 176                          |

## List of Events

| Event ID                   | Entrypoint   |   Size |   Instructions |
|----------------------------|--------------|--------|----------------|
| [65535](#event-65535)      | 0x0000       |      1 |              1 |
| [165](#event-165)          | 0x0001       |      1 |              1 |
| [168](#event-168)          | 0x0002       |      1 |              1 |
| [65535.1](#event-655351)   | 0x0003       |     11 |              3 |
| [65535.2](#event-655352)   | 0x000E       |     24 |              6 |
| [65535.3](#event-655353)   | 0x0026       |     22 |              6 |
| [65535.4](#event-655354)   | 0x003C       |     11 |              3 |
| [65535.5](#event-655355)   | 0x0047       |     11 |              3 |
| [65535.6](#event-655356)   | 0x0052       |     11 |              3 |
| [65535.7](#event-655357)   | 0x005D       |     11 |              3 |
| [65535.8](#event-655358)   | 0x0068       |     16 |              4 |
| [65535.9](#event-655359)   | 0x0078       |      1 |              1 |
| [65535.10](#event-6553510) | 0x0079       |     18 |              4 |
| [65535.11](#event-6553511) | 0x008B       |     10 |              2 |
| [65535.12](#event-6553512) | 0x0095       |      9 |              3 |
| [65535.13](#event-6553513) | 0x009E       |      9 |              3 |
| [65535.14](#event-6553514) | 0x00A7       |     10 |              2 |
| [65535.15](#event-6553515) | 0x00B1       |     10 |              2 |
| [65535.16](#event-6553516) | 0x00BB       |     22 |              7 |
| [65535.17](#event-6553517) | 0x00D1       |    167 |             35 |
| [65535.18](#event-6553518) | 0x0178       |    186 |             38 |
| [65535.19](#event-6553519) | 0x0232       |     83 |             18 |
| [65535.20](#event-6553520) | 0x0285       |    154 |             32 |
| [65535.21](#event-6553521) | 0x031F       |    167 |             35 |
| [65535.22](#event-6553522) | 0x03C6       |     69 |             15 |
| [65535.23](#event-6553523) | 0x040B       |     38 |              9 |
| [65535.24](#event-6553524) | 0x0431       |     38 |              9 |
| [65535.25](#event-6553525) | 0x0457       |     48 |             11 |
| [65535.26](#event-6553526) | 0x0487       |     19 |              4 |
| [65535.27](#event-6553527) | 0x049A       |     22 |              5 |
| [65535.28](#event-6553528) | 0x04B0       |     22 |              5 |
| [65535.29](#event-6553529) | 0x04C6       |     13 |              5 |
| [65535.30](#event-6553530) | 0x04D3       |    221 |             26 |
| [65535.31](#event-6553531) | 0x05B0       |     76 |              8 |
| [65535.32](#event-6553532) | 0x05FC       |     49 |              5 |
| [65535.33](#event-6553533) | 0x062D       |     29 |              6 |
| [65535.34](#event-6553534) | 0x064A       |     49 |              7 |
| [65535.35](#event-6553535) | 0x067B       |     20 |              5 |
| [65535.36](#event-6553536) | 0x068F       |     47 |              6 |
| [65535.37](#event-6553537) | 0x06BE       |     21 |              3 |
| [65535.38](#event-6553538) | 0x06D3       |    161 |             17 |
| [65535.39](#event-6553539) | 0x0774       |     20 |              5 |
| [20](#event-20)            | 0x0788       |      1 |              1 |
| [23](#event-23)            | 0x0789       |      1 |              1 |
| [24](#event-24)            | 0x078A       |      1 |              1 |
| [25](#event-25)            | 0x078B       |      1 |              1 |
| [65535.40](#event-6553540) | 0x078C       |     14 |              4 |

## DAT References (imed_data)

|   Index | Hex Value   |   Dec Value |
|---------|-------------|-------------|
|       0 | 0x24F0      |        9456 |
|       1 | 0x2682      |        9858 |
|       2 | 0xFFFF9977  |  4294941047 |
|       3 | 0xFFFFDB3B  |  4294957883 |
|       4 | 0x19E3      |        6627 |
|       5 | 0xFFFF9C64  |  4294941796 |
|       6 | 0x0005      |           5 |
|       7 | 0xFFFFED1B  |  4294962459 |
|       8 | 0x05D1      |        1489 |
|       9 | 0xFFFF9C65  |  4294941797 |
|      10 | 0x1A04      |        6660 |
|      11 | 0x081E      |        2078 |
|      12 | 0x1098      |        4248 |
|      13 | 0xFFFFBE99  |  4294950553 |
|      14 | 0x0242      |         578 |
|      15 | 0x2FDE      |       12254 |
|      16 | 0x0398      |         920 |
|      17 | 0x02ED      |         749 |
|      18 | 0xFFFFF865  |  4294965349 |
|      19 | 0x4D85      |       19845 |
|      20 | 0xFFFFFC18  |  4294966296 |
|      21 | 0xFFFFE9C1  |  4294961601 |
|      22 | 0x2E9C      |       11932 |
|      23 | 0x0046      |          70 |
|      24 | 0x0024      |          36 |
|      25 | 0x0000      |           0 |
|      26 | 0x0001      |           1 |
|      27 | 0x0080      |         128 |
|      28 | 0x0004      |           4 |
|      29 | 0x001E      |          30 |
|      30 | 0x0050      |          80 |
|      31 | 0x01CB      |         459 |
|      32 | 0xC01D      |       49181 |
|      33 | 0xFFFFF61D  |  4294964765 |
|      34 | 0xB4CD      |       46285 |
|      35 | 0xFFFFE4A1  |  4294960289 |
|      36 | 0xA1E9      |       41449 |
|      37 | 0xFFFFCB4E  |  4294953806 |
|      38 | 0x99E9      |       39401 |
|      39 | 0xFFFF383B  |  4294916155 |
|      40 | 0x975A      |       38746 |
|      41 | 0xFFFFF255  |  4294963797 |
|      42 | 0xFFFF0950  |  4294904144 |
|      43 | 0xA6EB      |       42731 |
|      44 | 0xFFFEE28D  |  4294894221 |
|      45 | 0xCA5B      |       51803 |
|      46 | 0xFFFECCEB  |  4294888683 |
|      47 | 0xE7E4      |       59364 |
|      48 | 0xFFFED4DC  |  4294890716 |
|      49 | 0x12692     |       75410 |
|      50 | 0xFFFF05FC  |  4294903292 |
|      51 | 0x13DD1     |       81361 |
|      52 | 0xFFFFEC78  |  4294962296 |
|      53 | 0xFFFF3FE9  |  4294918121 |
|      54 | 0x14635     |       83509 |
|      55 | 0xFFFFEC79  |  4294962297 |
|      56 | 0xFFFF58F1  |  4294924529 |
|      57 | 0x156CB     |       87755 |
|      58 | 0xFFFF5F95  |  4294926229 |
|      59 | 0x16818     |       92184 |
|      60 | 0xFFFF633B  |  4294927163 |
|      61 | 0x28E9B     |      167579 |
|      62 | 0xFFFFEC61  |  4294962273 |
|      63 | 0x0096      |         150 |
|      64 | 0x004F      |          79 |
|      65 | 0xFFFFFD21  |  4294966561 |
|      66 | 0xCD5B      |       52571 |
|      67 | 0xFFFFF472  |  4294964338 |
|      68 | 0xC585      |       50565 |
|      69 | 0xFFFFE64E  |  4294960718 |
|      70 | 0xAABD      |       43709 |
|      71 | 0xFFFFD9CC  |  4294957516 |
|      72 | 0x9B38      |       39736 |
|      73 | 0xFFFFCCF6  |  4294954230 |
|      74 | 0x9802      |       38914 |
|      75 | 0xFFFF64E4  |  4294927588 |
|      76 | 0x15EE3     |       89827 |
|      77 | 0xFFFF68EB  |  4294928619 |
|      78 | 0x16CEC     |       93420 |
|      79 | 0xFFFF6A76  |  4294929014 |
|      80 | 0x1835B     |       99163 |
|      81 | 0x0019      |          25 |
|      82 | 0xFFFF9D93  |  4294942099 |
|      83 | 0x153C3     |       86979 |
|      84 | 0x004E      |          78 |
|      85 | 0xFFFF7F27  |  4294934311 |
|      86 | 0x170BF     |       94399 |
|      87 | 0xFFFF6EA5  |  4294930085 |
|      88 | 0x181BB     |       98747 |
|      89 | 0xFFFF6986  |  4294928774 |
|      90 | 0x1A277     |      107127 |
|      91 | 0xFFFFE83A  |  4294961210 |
|      92 | 0x79A0      |       31136 |
|      93 | 0xFFFFFC19  |  4294966297 |
|      94 | 0xFFFFE0B0  |  4294959280 |
|      95 | 0x893B      |       35131 |
|      96 | 0xFFFFD29F  |  4294955679 |
|      97 | 0x9856      |       38998 |
|      98 | 0x00B4      |         180 |
|      99 | 0xFFFFF934  |  4294965556 |
|     100 | 0x7B9B      |       31643 |
|     101 | 0xFFFFEFB1  |  4294963121 |
|     102 | 0x9085      |       36997 |
|     103 | 0xFFFFDE20  |  4294958624 |
|     104 | 0xA00A      |       40970 |
|     105 | 0x0168      |         360 |
|     106 | 0x000F      |          15 |
|     107 | 0xFFFF96A6  |  4294940326 |
|     108 | 0xF877      |       63607 |
|     109 | 0xFFFFF254  |  4294963796 |
|     110 | 0xFFFF9B5E  |  4294941534 |
|     111 | 0xF61A      |       63002 |
|     112 | 0x0028      |          40 |
|     113 | 0xFFFF46D2  |  4294919890 |
|     114 | 0xE60E      |       58894 |
|     115 | 0xFFFF2186  |  4294910342 |
|     116 | 0xD0D7      |       53463 |
|     117 | 0x001B      |          27 |
|     118 | 0xFFFF8952  |  4294936914 |
|     119 | 0x12369     |       74601 |
|     120 | 0xFFFFF20A  |  4294963722 |
|     121 | 0xFFFF2B43  |  4294912835 |
|     122 | 0x10F50     |       69456 |
|     123 | 0xFFFF8D73  |  4294937971 |
|     124 | 0x1266B     |       75371 |
|     125 | 0xFFFFF237  |  4294963767 |
|     126 | 0xFFFF3027  |  4294914087 |
|     127 | 0x113AF     |       70575 |
|     128 | 0xFFFF938A  |  4294939530 |
|     129 | 0x11F80     |       73600 |
|     130 | 0xFFFFF2AA  |  4294963882 |
|     131 | 0xFFFF3332  |  4294914866 |
|     132 | 0x11FA6     |       73638 |
|     133 | 0xFFFF2C4F  |  4294913103 |
|     134 | 0x1196C     |       72044 |
|     135 | 0x002A      |          42 |
|     136 | 0xFFFFA76A  |  4294944618 |
|     137 | 0x13DC9     |       81353 |
|     138 | 0x003C      |          60 |
|     139 | 0x0078      |         120 |
|     140 | 0x0258      |         600 |
|     141 | 0x0215      |         533 |
|     142 | 0x012C      |         300 |
|     143 | 0xFFFF11C3  |  4294906307 |
|     144 | 0x1126E     |       70254 |
|     145 | 0x0FFD      |        4093 |
|     146 | 0x0031      |          49 |
|     147 | 0x0508      |        1288 |
|     148 | 0xFFFFEB50  |  4294962000 |
|     149 | 0x3028      |       12328 |
|     150 | 0x00A0      |         160 |
|     151 | 0x0055      |          85 |
|     152 | 0x0007      |           7 |
|     153 | 0xFFFFFECD  |  4294966989 |
|     154 | 0x33C0      |       13248 |
|     155 | 0x0023      |          35 |
|     156 | 0xFFFFFC12  |  4294966290 |
|     157 | 0x3F62      |       16226 |
|     158 | 0x004B      |          75 |
|     159 | 0x00C9      |         201 |
|     160 | 0xFFFFFBDE  |  4294966238 |
|     161 | 0x4419      |       17433 |
|     162 | 0x0408      |        1032 |
|     163 | 0x3D40      |       15680 |
|     164 | 0x09C7      |        2503 |
|     165 | 0x0506      |        1286 |
|     166 | 0x00B5      |         181 |
|     167 | 0x0056      |          86 |
|     168 | 0x0189      |         393 |
|     169 | 0x0BD5      |        3029 |
|     170 | 0xFFFFE1FB  |  4294959611 |
|     171 | 0x1E8B      |        7819 |
|     172 | 0xFFFFFBFE  |  4294966270 |
|     173 | 0x000E      |          14 |
|     174 | 0xFFFFA146  |  4294943046 |
|     175 | 0x146B2     |       83634 |

## Events

### Event 65535

#### Metadata

| Field        | Value   |
|--------------|---------|
| Entrypoint   | 0x0000  |
| Data Size    | 1 bytes |
| Instructions | 1       |

```
      00 01 02 03 04 05 06 07  08 09 0A 0B 0C 0D 0E 0F
      -- -- -- -- -- -- -- --  -- -- -- -- -- -- -- --
0000: 00                                                .               
```

#### Opcodes

```
  0: 0x0000 [0x00] END_REQSTACK()
```

### Event 165

#### Metadata

| Field        | Value   |
|--------------|---------|
| Entrypoint   | 0x0001  |
| Data Size    | 1 bytes |
| Instructions | 1       |

```
      00 01 02 03 04 05 06 07  08 09 0A 0B 0C 0D 0E 0F
      -- -- -- -- -- -- -- --  -- -- -- -- -- -- -- --
0000:    00                                              .              
```

#### Opcodes

```
  0: 0x0001 [0x00] END_REQSTACK()
```

### Event 168

#### Metadata

| Field        | Value   |
|--------------|---------|
| Entrypoint   | 0x0002  |
| Data Size    | 1 bytes |
| Instructions | 1       |

```
      00 01 02 03 04 05 06 07  08 09 0A 0B 0C 0D 0E 0F
      -- -- -- -- -- -- -- --  -- -- -- -- -- -- -- --
0000:       00                                            .             
```

#### Opcodes

```
  0: 0x0002 [0x00] END_REQSTACK()
```

### Event 65535.1

#### Metadata

| Field        | Value    |
|--------------|----------|
| Entrypoint   | 0x0003   |
| Data Size    | 11 bytes |
| Instructions | 3        |

```
      00 01 02 03 04 05 06 07  08 09 0A 0B 0C 0D 0E 0F
      -- -- -- -- -- -- -- --  -- -- -- -- -- -- -- --
0000:          1F 00 00 80 01  80 02 80 1F 01 00           ...........  
```

#### Opcodes

```
  0: 0x0003 [0x1F] MOVE_ENTITY: EventEntity moves to X=9.456*, Z=9.858*, Y=-26.249*
  1: 0x000B [0x1F] MOVE_ENTITY: Update entity position (mode=1)
  2: 0x000D [0x00] END_REQSTACK()
```

### Event 65535.2

#### Metadata

| Field        | Value    |
|--------------|----------|
| Entrypoint   | 0x000E   |
| Data Size    | 24 bytes |
| Instructions | 6        |

```
      00 01 02 03 04 05 06 07  08 09 0A 0B 0C 0D 0E 0F
      -- -- -- -- -- -- -- --  -- -- -- -- -- -- -- --
0000:                                            1F 00                ..
0010: 03 80 04 80 05 80 1F 01  6F 1C 06 80 4A 94 E2 05  ........o...J...
0020: 01 36 E2 05 01 00                                 .6....          
```

#### Opcodes

```
  0: 0x000E [0x1F] MOVE_ENTITY: EventEntity moves to X=-9.413*, Z=6.627*, Y=-25.500*
  1: 0x0016 [0x1F] MOVE_ENTITY: Update entity position (mode=1)
  2: 0x0018 [0x6F] WAIT_FRAME_DELAY: Yield until WaitTime reaches zero
  3: 0x0019 [0x1C] WAIT(5* ticks)
  4: 0x001C [0x4A] 02 (ID: 17162900/0x0105E294) looks at Lehko Habhoka (ID: 17162806/0x0105E236)
  5: 0x0025 [0x00] END_REQSTACK()
```

### Event 65535.3

#### Metadata

| Field        | Value    |
|--------------|----------|
| Entrypoint   | 0x0026   |
| Data Size    | 22 bytes |
| Instructions | 6        |

```
      00 01 02 03 04 05 06 07  08 09 0A 0B 0C 0D 0E 0F
      -- -- -- -- -- -- -- --  -- -- -- -- -- -- -- --
0020:                   1F 00  07 80 08 80 09 80 1F 01        ..........
0030: 6F 1F 00 0A 80 0B 80 09  80 1F 01 00              o...........    
```

#### Opcodes

```
  0: 0x0026 [0x1F] MOVE_ENTITY: EventEntity moves to X=-4.837*, Z=1.489*, Y=-25.499*
  1: 0x002E [0x1F] MOVE_ENTITY: Update entity position (mode=1)
  2: 0x0030 [0x6F] WAIT_FRAME_DELAY: Yield until WaitTime reaches zero
  3: 0x0031 [0x1F] MOVE_ENTITY: EventEntity moves to X=6.660*, Z=2.078*, Y=-25.499*
  4: 0x0039 [0x1F] MOVE_ENTITY: Update entity position (mode=1)
  5: 0x003B [0x00] END_REQSTACK()
```

### Event 65535.4

#### Metadata

| Field        | Value    |
|--------------|----------|
| Entrypoint   | 0x003C   |
| Data Size    | 11 bytes |
| Instructions | 3        |

```
      00 01 02 03 04 05 06 07  08 09 0A 0B 0C 0D 0E 0F
      -- -- -- -- -- -- -- --  -- -- -- -- -- -- -- --
0030:                                      1F 00 0C 80              ....
0040: 0D 80 0E 80 1F 01 00                              .......         
```

#### Opcodes

```
  0: 0x003C [0x1F] MOVE_ENTITY: EventEntity moves to X=4.248*, Z=-16.743*, Y=0.578*
  1: 0x0044 [0x1F] MOVE_ENTITY: Update entity position (mode=1)
  2: 0x0046 [0x00] END_REQSTACK()
```

### Event 65535.5

#### Metadata

| Field        | Value    |
|--------------|----------|
| Entrypoint   | 0x0047   |
| Data Size    | 11 bytes |
| Instructions | 3        |

```
      00 01 02 03 04 05 06 07  08 09 0A 0B 0C 0D 0E 0F
      -- -- -- -- -- -- -- --  -- -- -- -- -- -- -- --
0040:                      1F  00 0F 80 10 80 11 80 1F         .........
0050: 01 00                                             ..              
```

#### Opcodes

```
  0: 0x0047 [0x1F] MOVE_ENTITY: EventEntity moves to X=12.254*, Z=0.920*, Y=0.749*
  1: 0x004F [0x1F] MOVE_ENTITY: Update entity position (mode=1)
  2: 0x0051 [0x00] END_REQSTACK()
```

### Event 65535.6

#### Metadata

| Field        | Value    |
|--------------|----------|
| Entrypoint   | 0x0052   |
| Data Size    | 11 bytes |
| Instructions | 3        |

```
      00 01 02 03 04 05 06 07  08 09 0A 0B 0C 0D 0E 0F
      -- -- -- -- -- -- -- --  -- -- -- -- -- -- -- --
0050:       1F 00 12 80 13 80  14 80 1F 01 00             ...........   
```

#### Opcodes

```
  0: 0x0052 [0x1F] MOVE_ENTITY: EventEntity moves to X=-1.947*, Z=19.845*, Y=-1.000*
  1: 0x005A [0x1F] MOVE_ENTITY: Update entity position (mode=1)
  2: 0x005C [0x00] END_REQSTACK()
```

### Event 65535.7

#### Metadata

| Field        | Value    |
|--------------|----------|
| Entrypoint   | 0x005D   |
| Data Size    | 11 bytes |
| Instructions | 3        |

```
      00 01 02 03 04 05 06 07  08 09 0A 0B 0C 0D 0E 0F
      -- -- -- -- -- -- -- --  -- -- -- -- -- -- -- --
0050:                                         1F 00 15               ...
0060: 80 16 80 14 80 1F 01 00                           ........        
```

#### Opcodes

```
  0: 0x005D [0x1F] MOVE_ENTITY: EventEntity moves to X=-5.695*, Z=11.932*, Y=-1.000*
  1: 0x0065 [0x1F] MOVE_ENTITY: Update entity position (mode=1)
  2: 0x0067 [0x00] END_REQSTACK()
```

### Event 65535.8

#### Metadata

| Field        | Value    |
|--------------|----------|
| Entrypoint   | 0x0068   |
| Data Size    | 16 bytes |
| Instructions | 4        |

```
      00 01 02 03 04 05 06 07  08 09 0A 0B 0C 0D 0E 0F
      -- -- -- -- -- -- -- --  -- -- -- -- -- -- -- --
0060:                          1C 17 80 6E 94 E2 05 01          ...n....
0070: 18 80 99 94 E2 05 01 00                           ........        
```

#### Opcodes

```
  0: 0x0068 [0x1C] WAIT(70* ticks)
  1: 0x006B [0x6E] 02 (ID: 17162900/0x0105E294) uses emote 36*
  2: 0x0072 [0x99] Wait for 02 (ID: 17162900/0x0105E294) animation to complete
  3: 0x0077 [0x00] END_REQSTACK()
```

### Event 65535.9

#### Metadata

| Field        | Value   |
|--------------|---------|
| Entrypoint   | 0x0078  |
| Data Size    | 1 bytes |
| Instructions | 1       |

```
      00 01 02 03 04 05 06 07  08 09 0A 0B 0C 0D 0E 0F
      -- -- -- -- -- -- -- --  -- -- -- -- -- -- -- --
0070:                          00                               .       
```

#### Opcodes

```
  0: 0x0078 [0x00] END_REQSTACK()
```

### Event 65535.10

#### Metadata

| Field        | Value    |
|--------------|----------|
| Entrypoint   | 0x0079   |
| Data Size    | 18 bytes |
| Instructions | 4        |

```
      00 01 02 03 04 05 06 07  08 09 0A 0B 0C 0D 0E 0F
      -- -- -- -- -- -- -- --  -- -- -- -- -- -- -- --
0070:                             22 00 2F 00 F8 FF FF           "./....
0080: 7F 6C F8 FF FF 7F 19 80  1A 80 00                 .l.........     
```

#### Opcodes

```
  0: 0x0079 [0x22] ENTITY_HIDE_FLAG(enabled=0x00)
  1: 0x007B [0x2F] EventEntity->Render.Flags0 &= ~0x80000 // Bit 19
  2: 0x0081 [0x6C] FADE_ENTITY_COLOR(entity_id=EventEntity, end_alpha=0*, fade_time=1*)
  3: 0x008A [0x00] END_REQSTACK()
```

### Event 65535.11

#### Metadata

| Field        | Value    |
|--------------|----------|
| Entrypoint   | 0x008B   |
| Data Size    | 10 bytes |
| Instructions | 2        |

```
      00 01 02 03 04 05 06 07  08 09 0A 0B 0C 0D 0E 0F
      -- -- -- -- -- -- -- --  -- -- -- -- -- -- -- --
0080:                                   6C F8 FF FF 7F             l....
0090: 1B 80 1A 80 00                                    .....           
```

#### Opcodes

```
  0: 0x008B [0x6C] FADE_ENTITY_COLOR(entity_id=EventEntity, end_alpha=128*, fade_time=1*)
  1: 0x0094 [0x00] END_REQSTACK()
```

### Event 65535.12

#### Metadata

| Field        | Value   |
|--------------|---------|
| Entrypoint   | 0x0095  |
| Data Size    | 9 bytes |
| Instructions | 3       |

```
      00 01 02 03 04 05 06 07  08 09 0A 0B 0C 0D 0E 0F
      -- -- -- -- -- -- -- --  -- -- -- -- -- -- -- --
0090:                22 00 2F  00 F8 FF FF 7F 00             "./......  
```

#### Opcodes

```
  0: 0x0095 [0x22] ENTITY_HIDE_FLAG(enabled=0x00)
  1: 0x0097 [0x2F] EventEntity->Render.Flags0 &= ~0x80000 // Bit 19
  2: 0x009D [0x00] END_REQSTACK()
```

### Event 65535.13

#### Metadata

| Field        | Value   |
|--------------|---------|
| Entrypoint   | 0x009E  |
| Data Size    | 9 bytes |
| Instructions | 3       |

```
      00 01 02 03 04 05 06 07  08 09 0A 0B 0C 0D 0E 0F
      -- -- -- -- -- -- -- --  -- -- -- -- -- -- -- --
0090:                                            22 01                ".
00A0: 2F 01 F8 FF FF 7F 00                              /......         
```

#### Opcodes

```
  0: 0x009E [0x22] ENTITY_HIDE_FLAG(enabled=0x01)
  1: 0x00A0 [0x2F] EventEntity->Render.Flags0 |= 0x80000 // Bit 19
  2: 0x00A6 [0x00] END_REQSTACK()
```

### Event 65535.14

#### Metadata

| Field        | Value    |
|--------------|----------|
| Entrypoint   | 0x00A7   |
| Data Size    | 10 bytes |
| Instructions | 2        |

```
      00 01 02 03 04 05 06 07  08 09 0A 0B 0C 0D 0E 0F
      -- -- -- -- -- -- -- --  -- -- -- -- -- -- -- --
00A0:                      6C  F8 FF FF 7F 19 80 1A 80         l........
00B0: 00                                                .               
```

#### Opcodes

```
  0: 0x00A7 [0x6C] FADE_ENTITY_COLOR(entity_id=EventEntity, end_alpha=0*, fade_time=1*)
  1: 0x00B0 [0x00] END_REQSTACK()
```

### Event 65535.15

#### Metadata

| Field        | Value    |
|--------------|----------|
| Entrypoint   | 0x00B1   |
| Data Size    | 10 bytes |
| Instructions | 2        |

```
      00 01 02 03 04 05 06 07  08 09 0A 0B 0C 0D 0E 0F
      -- -- -- -- -- -- -- --  -- -- -- -- -- -- -- --
00B0:    6C F8 FF FF 7F 1B 80  1A 80 00                  l.........     
```

#### Opcodes

```
  0: 0x00B1 [0x6C] FADE_ENTITY_COLOR(entity_id=EventEntity, end_alpha=128*, fade_time=1*)
  1: 0x00BA [0x00] END_REQSTACK()
```

### Event 65535.16

#### Metadata

| Field        | Value    |
|--------------|----------|
| Entrypoint   | 0x00BB   |
| Data Size    | 22 bytes |
| Instructions | 7        |

```
      00 01 02 03 04 05 06 07  08 09 0A 0B 0C 0D 0E 0F
      -- -- -- -- -- -- -- --  -- -- -- -- -- -- -- --
00B0:                                   B6 0E 19 80 1C             .....
00C0: 80 1A 80 19 80 19 80 19  80 1A 80 80 F8 FF FF 7F  ................
00D0: 00                                                .               
```

#### Opcodes

```
  0: 0x00BB [0xB6] ENTITY_APPEARANCE_HANDLER(case=Look with Render flags, race=0*, face=4*, head=1*, body=0*, hands=0*, render_flags=0x8019)
  1: 0x00C9 [0x1A] CALL_SUBROUTINE(address=0x8080)
  2: 0x00CC [0xF8] UNKNOWN_OPCODE_0xF8
  3: 0x00CD [0xFF] UNKNOWN_OPCODE_0xFF
  4: 0x00CE [0xFF] UNKNOWN_OPCODE_0xFF
  5: 0x00CF [0x7F] WAIT_DIALOG_SELECT_ALT()
  6: 0x00D0 [0x00] END_REQSTACK()
```

### Event 65535.17

#### Metadata

| Field        | Value     |
|--------------|-----------|
| Entrypoint   | 0x00D1    |
| Data Size    | 167 bytes |
| Instructions | 35        |

```
      00 01 02 03 04 05 06 07  08 09 0A 0B 0C 0D 0E 0F
      -- -- -- -- -- -- -- --  -- -- -- -- -- -- -- --
00D0:    1C 1D 80 59 04 1D E2  05 01 1E 80 1F 00 1F 80   ...Y...........
00E0: 20 80 14 80 1F 01 1F 00  21 80 22 80 14 80 1F 01   .......!.".....
00F0: 1F 00 23 80 24 80 14 80  1F 01 1F 00 25 80 26 80  ..#.$.......%.&.
0100: 14 80 1F 01 1F 00 27 80  28 80 29 80 1F 01 1F 00  ......'.(.).....
0110: 2A 80 2B 80 29 80 1F 01  1F 00 2C 80 2D 80 29 80  *.+.).....,.-.).
0120: 1F 01 1F 00 2E 80 2F 80  29 80 1F 01 1F 00 30 80  ....../.).....0.
0130: 31 80 29 80 1F 01 1F 00  32 80 33 80 34 80 1F 01  1.).....2.3.4...
0140: 1F 00 35 80 36 80 37 80  1F 01 1F 00 38 80 39 80  ..5.6.7.....8.9.
0150: 37 80 1F 01 1F 00 3A 80  3B 80 37 80 1F 01 1F 00  7.....:.;.7.....
0160: 3C 80 3D 80 3E 80 1F 01  6F 7E 05 1D E2 05 01 22  <.=.>...o~....."
0170: 01 2F 01 F8 FF FF 7F 00                           ./......        
```

#### Opcodes

```
  0: 0x00D1 [0x1C] WAIT(30* ticks)
  1: 0x00D4 [0x59] UPDATE_ENTITY_DATA: Set 01 (ID: 17162781/0x0105E21D) main speed = 80* * 0.1
  2: 0x00DC [0x1F] MOVE_ENTITY: EventEntity moves to X=0.459*, Z=49.181*, Y=-1.000*
  3: 0x00E4 [0x1F] MOVE_ENTITY: Update entity position (mode=1)
  4: 0x00E6 [0x1F] MOVE_ENTITY: EventEntity moves to X=-2.531*, Z=46.285*, Y=-1.000*
  5: 0x00EE [0x1F] MOVE_ENTITY: Update entity position (mode=1)
  6: 0x00F0 [0x1F] MOVE_ENTITY: EventEntity moves to X=-7.007*, Z=41.449*, Y=-1.000*
  7: 0x00F8 [0x1F] MOVE_ENTITY: Update entity position (mode=1)
  8: 0x00FA [0x1F] MOVE_ENTITY: EventEntity moves to X=-13.490*, Z=39.401*, Y=-1.000*
  9: 0x0102 [0x1F] MOVE_ENTITY: Update entity position (mode=1)
 10: 0x0104 [0x1F] MOVE_ENTITY: EventEntity moves to X=-51.141*, Z=38.746*, Y=-3.499*
 11: 0x010C [0x1F] MOVE_ENTITY: Update entity position (mode=1)
 12: 0x010E [0x1F] MOVE_ENTITY: EventEntity moves to X=-63.152*, Z=42.731*, Y=-3.499*
 13: 0x0116 [0x1F] MOVE_ENTITY: Update entity position (mode=1)
 14: 0x0118 [0x1F] MOVE_ENTITY: EventEntity moves to X=-73.075*, Z=51.803*, Y=-3.499*
 15: 0x0120 [0x1F] MOVE_ENTITY: Update entity position (mode=1)
 16: 0x0122 [0x1F] MOVE_ENTITY: EventEntity moves to X=-78.613*, Z=59.364*, Y=-3.499*
 17: 0x012A [0x1F] MOVE_ENTITY: Update entity position (mode=1)
 18: 0x012C [0x1F] MOVE_ENTITY: EventEntity moves to X=-76.580*, Z=75.410*, Y=-3.499*
 19: 0x0134 [0x1F] MOVE_ENTITY: Update entity position (mode=1)
 20: 0x0136 [0x1F] MOVE_ENTITY: EventEntity moves to X=-64.004*, Z=81.361*, Y=-5.000*
 21: 0x013E [0x1F] MOVE_ENTITY: Update entity position (mode=1)
 22: 0x0140 [0x1F] MOVE_ENTITY: EventEntity moves to X=-49.175*, Z=83.509*, Y=-4.999*
 23: 0x0148 [0x1F] MOVE_ENTITY: Update entity position (mode=1)
 24: 0x014A [0x1F] MOVE_ENTITY: EventEntity moves to X=-42.767*, Z=87.755*, Y=-4.999*
 25: 0x0152 [0x1F] MOVE_ENTITY: Update entity position (mode=1)
 26: 0x0154 [0x1F] MOVE_ENTITY: EventEntity moves to X=-41.067*, Z=92.184*, Y=-4.999*
 27: 0x015C [0x1F] MOVE_ENTITY: Update entity position (mode=1)
 28: 0x015E [0x1F] MOVE_ENTITY: EventEntity moves to X=-40.133*, Z=167.579*, Y=-5.023*
 29: 0x0166 [0x1F] MOVE_ENTITY: Update entity position (mode=1)
 30: 0x0168 [0x6F] WAIT_FRAME_DELAY: Yield until WaitTime reaches zero
 31: 0x0169 [0x7E] CHOCOBO_MOUNT: Dismount 01 (ID: 17162781/0x0105E21D) (status = 0)
 32: 0x016F [0x22] ENTITY_HIDE_FLAG(enabled=0x01)
 33: 0x0171 [0x2F] EventEntity->Render.Flags0 |= 0x80000 // Bit 19
 34: 0x0177 [0x00] END_REQSTACK()
```

### Event 65535.18

#### Metadata

| Field        | Value     |
|--------------|-----------|
| Entrypoint   | 0x0178    |
| Data Size    | 186 bytes |
| Instructions | 38        |

```
      00 01 02 03 04 05 06 07  08 09 0A 0B 0C 0D 0E 0F
      -- -- -- -- -- -- -- --  -- -- -- -- -- -- -- --
0170:                          1C 3F 80 59 04 1E E2 05          .?.Y....
0180: 01 40 80 1F 00 41 80 42  80 14 80 1F 01 1F 00 43  .@...A.B.......C
0190: 80 44 80 14 80 1F 01 1F  00 45 80 46 80 14 80 1F  .D.......E.F....
01A0: 01 1F 00 47 80 48 80 14  80 1F 01 1F 00 49 80 4A  ...G.H.......I.J
01B0: 80 14 80 1F 01 1F 00 27  80 28 80 29 80 1F 01 1F  .......'.(.)....
01C0: 00 2A 80 2B 80 29 80 1F  01 1F 00 2C 80 2D 80 29  .*.+.).....,.-.)
01D0: 80 1F 01 1F 00 2E 80 2F  80 29 80 1F 01 1F 00 30  ......./.).....0
01E0: 80 31 80 29 80 1F 01 1F  00 32 80 33 80 34 80 1F  .1.).....2.3.4..
01F0: 01 1F 00 35 80 36 80 37  80 1F 01 1F 00 4B 80 4C  ...5.6.7.....K.L
0200: 80 37 80 1F 01 1F 00 4D  80 4E 80 37 80 1F 01 1F  .7.....M.N.7....
0210: 00 4F 80 50 80 37 80 1F  01 1F 00 3C 80 3D 80 3E  .O.P.7.....<.=.>
0220: 80 1F 01 7E 05 1E E2 05  01 22 01 2F 01 F8 FF FF  ...~....."./....
0230: 7F 00                                             ..              
```

#### Opcodes

```
  0: 0x0178 [0x1C] WAIT(150* ticks)
  1: 0x017B [0x59] UPDATE_ENTITY_DATA: Set 02 (ID: 17162782/0x0105E21E) main speed = 79* * 0.1
  2: 0x0183 [0x1F] MOVE_ENTITY: EventEntity moves to X=-0.735*, Z=52.571*, Y=-1.000*
  3: 0x018B [0x1F] MOVE_ENTITY: Update entity position (mode=1)
  4: 0x018D [0x1F] MOVE_ENTITY: EventEntity moves to X=-2.958*, Z=50.565*, Y=-1.000*
  5: 0x0195 [0x1F] MOVE_ENTITY: Update entity position (mode=1)
  6: 0x0197 [0x1F] MOVE_ENTITY: EventEntity moves to X=-6.578*, Z=43.709*, Y=-1.000*
  7: 0x019F [0x1F] MOVE_ENTITY: Update entity position (mode=1)
  8: 0x01A1 [0x1F] MOVE_ENTITY: EventEntity moves to X=-9.780*, Z=39.736*, Y=-1.000*
  9: 0x01A9 [0x1F] MOVE_ENTITY: Update entity position (mode=1)
 10: 0x01AB [0x1F] MOVE_ENTITY: EventEntity moves to X=-13.066*, Z=38.914*, Y=-1.000*
 11: 0x01B3 [0x1F] MOVE_ENTITY: Update entity position (mode=1)
 12: 0x01B5 [0x1F] MOVE_ENTITY: EventEntity moves to X=-51.141*, Z=38.746*, Y=-3.499*
 13: 0x01BD [0x1F] MOVE_ENTITY: Update entity position (mode=1)
 14: 0x01BF [0x1F] MOVE_ENTITY: EventEntity moves to X=-63.152*, Z=42.731*, Y=-3.499*
 15: 0x01C7 [0x1F] MOVE_ENTITY: Update entity position (mode=1)
 16: 0x01C9 [0x1F] MOVE_ENTITY: EventEntity moves to X=-73.075*, Z=51.803*, Y=-3.499*
 17: 0x01D1 [0x1F] MOVE_ENTITY: Update entity position (mode=1)
 18: 0x01D3 [0x1F] MOVE_ENTITY: EventEntity moves to X=-78.613*, Z=59.364*, Y=-3.499*
 19: 0x01DB [0x1F] MOVE_ENTITY: Update entity position (mode=1)
 20: 0x01DD [0x1F] MOVE_ENTITY: EventEntity moves to X=-76.580*, Z=75.410*, Y=-3.499*
 21: 0x01E5 [0x1F] MOVE_ENTITY: Update entity position (mode=1)
 22: 0x01E7 [0x1F] MOVE_ENTITY: EventEntity moves to X=-64.004*, Z=81.361*, Y=-5.000*
 23: 0x01EF [0x1F] MOVE_ENTITY: Update entity position (mode=1)
 24: 0x01F1 [0x1F] MOVE_ENTITY: EventEntity moves to X=-49.175*, Z=83.509*, Y=-4.999*
 25: 0x01F9 [0x1F] MOVE_ENTITY: Update entity position (mode=1)
 26: 0x01FB [0x1F] MOVE_ENTITY: EventEntity moves to X=-39.708*, Z=89.827*, Y=-4.999*
 27: 0x0203 [0x1F] MOVE_ENTITY: Update entity position (mode=1)
 28: 0x0205 [0x1F] MOVE_ENTITY: EventEntity moves to X=-38.677*, Z=93.420*, Y=-4.999*
 29: 0x020D [0x1F] MOVE_ENTITY: Update entity position (mode=1)
 30: 0x020F [0x1F] MOVE_ENTITY: EventEntity moves to X=-38.282*, Z=99.163*, Y=-4.999*
 31: 0x0217 [0x1F] MOVE_ENTITY: Update entity position (mode=1)
 32: 0x0219 [0x1F] MOVE_ENTITY: EventEntity moves to X=-40.133*, Z=167.579*, Y=-5.023*
 33: 0x0221 [0x1F] MOVE_ENTITY: Update entity position (mode=1)
 34: 0x0223 [0x7E] CHOCOBO_MOUNT: Dismount 02 (ID: 17162782/0x0105E21E) (status = 0)
 35: 0x0229 [0x22] ENTITY_HIDE_FLAG(enabled=0x01)
 36: 0x022B [0x2F] EventEntity->Render.Flags0 |= 0x80000 // Bit 19
 37: 0x0231 [0x00] END_REQSTACK()
```

### Event 65535.19

#### Metadata

| Field        | Value    |
|--------------|----------|
| Entrypoint   | 0x0232   |
| Data Size    | 83 bytes |
| Instructions | 18       |

```
      00 01 02 03 04 05 06 07  08 09 0A 0B 0C 0D 0E 0F
      -- -- -- -- -- -- -- --  -- -- -- -- -- -- -- --
0230:       59 04 25 E2 05 01  51 80 1F 00 52 80 53 80    Y.%...Q...R.S.
0240: 37 80 1F 01 6F 59 04 F8  FF FF 7F 54 80 1F 00 55  7...oY.....T...U
0250: 80 56 80 37 80 1F 01 1F  00 57 80 58 80 37 80 1F  .V.7.....W.X.7..
0260: 01 1F 00 59 80 5A 80 37  80 1F 01 1F 00 3C 80 3D  ...Y.Z.7.....<.=
0270: 80 3E 80 1F 01 6F 7E 05  25 E2 05 01 22 01 2F 01  .>...o~.%..."./.
0280: F8 FF FF 7F 00                                    .....           
```

#### Opcodes

```
  0: 0x0232 [0x59] UPDATE_ENTITY_DATA: Set Unnamed NPC (ID: 17162789/0x0105E225) main speed = 25* * 0.1
  1: 0x023A [0x1F] MOVE_ENTITY: EventEntity moves to X=-25.197*, Z=86.979*, Y=-4.999*
  2: 0x0242 [0x1F] MOVE_ENTITY: Update entity position (mode=1)
  3: 0x0244 [0x6F] WAIT_FRAME_DELAY: Yield until WaitTime reaches zero
  4: 0x0245 [0x59] UPDATE_ENTITY_DATA: Set EventEntity main speed = 78* * 0.1
  5: 0x024D [0x1F] MOVE_ENTITY: EventEntity moves to X=-32.985*, Z=94.399*, Y=-4.999*
  6: 0x0255 [0x1F] MOVE_ENTITY: Update entity position (mode=1)
  7: 0x0257 [0x1F] MOVE_ENTITY: EventEntity moves to X=-37.211*, Z=98.747*, Y=-4.999*
  8: 0x025F [0x1F] MOVE_ENTITY: Update entity position (mode=1)
  9: 0x0261 [0x1F] MOVE_ENTITY: EventEntity moves to X=-38.522*, Z=107.127*, Y=-4.999*
 10: 0x0269 [0x1F] MOVE_ENTITY: Update entity position (mode=1)
 11: 0x026B [0x1F] MOVE_ENTITY: EventEntity moves to X=-40.133*, Z=167.579*, Y=-5.023*
 12: 0x0273 [0x1F] MOVE_ENTITY: Update entity position (mode=1)
 13: 0x0275 [0x6F] WAIT_FRAME_DELAY: Yield until WaitTime reaches zero
 14: 0x0276 [0x7E] CHOCOBO_MOUNT: Dismount Unnamed NPC (ID: 17162789/0x0105E225) (status = 0)
 15: 0x027C [0x22] ENTITY_HIDE_FLAG(enabled=0x01)
 16: 0x027E [0x2F] EventEntity->Render.Flags0 |= 0x80000 // Bit 19
 17: 0x0284 [0x00] END_REQSTACK()
```

### Event 65535.20

#### Metadata

| Field        | Value     |
|--------------|-----------|
| Entrypoint   | 0x0285    |
| Data Size    | 154 bytes |
| Instructions | 32        |

```
      00 01 02 03 04 05 06 07  08 09 0A 0B 0C 0D 0E 0F
      -- -- -- -- -- -- -- --  -- -- -- -- -- -- -- --
0280:                59 04 26  E2 05 01 1E 80 1F 00 5B       Y.&.......[
0290: 80 5C 80 5D 80 1F 01 1F  00 5E 80 5F 80 5D 80 1F  .\.].....^._.]..
02A0: 01 1F 00 60 80 61 80 5D  80 1F 01 1F 00 27 80 28  ...`.a.].....'.(
02B0: 80 29 80 1F 01 1F 00 2A  80 2B 80 29 80 1F 01 1F  .).....*.+.)....
02C0: 00 2C 80 2D 80 29 80 1F  01 1F 00 2E 80 2F 80 29  .,.-.)......./.)
02D0: 80 1F 01 1F 00 30 80 31  80 29 80 1F 01 1F 00 32  .....0.1.).....2
02E0: 80 33 80 34 80 1F 01 1F  00 35 80 36 80 37 80 1F  .3.4.....5.6.7..
02F0: 01 1F 00 38 80 39 80 37  80 1F 01 1F 00 3A 80 3B  ...8.9.7.....:.;
0300: 80 37 80 1F 01 1F 00 3C  80 3D 80 3E 80 1F 01 6F  .7.....<.=.>...o
0310: 7E 05 26 E2 05 01 22 01  2F 01 F8 FF FF 7F 00     ~.&..."./...... 
```

#### Opcodes

```
  0: 0x0285 [0x59] UPDATE_ENTITY_DATA: Set Unnamed NPC (ID: 17162790/0x0105E226) main speed = 80* * 0.1
  1: 0x028D [0x1F] MOVE_ENTITY: EventEntity moves to X=-6.086*, Z=31.136*, Y=-0.999*
  2: 0x0295 [0x1F] MOVE_ENTITY: Update entity position (mode=1)
  3: 0x0297 [0x1F] MOVE_ENTITY: EventEntity moves to X=-8.016*, Z=35.131*, Y=-0.999*
  4: 0x029F [0x1F] MOVE_ENTITY: Update entity position (mode=1)
  5: 0x02A1 [0x1F] MOVE_ENTITY: EventEntity moves to X=-11.617*, Z=38.998*, Y=-0.999*
  6: 0x02A9 [0x1F] MOVE_ENTITY: Update entity position (mode=1)
  7: 0x02AB [0x1F] MOVE_ENTITY: EventEntity moves to X=-51.141*, Z=38.746*, Y=-3.499*
  8: 0x02B3 [0x1F] MOVE_ENTITY: Update entity position (mode=1)
  9: 0x02B5 [0x1F] MOVE_ENTITY: EventEntity moves to X=-63.152*, Z=42.731*, Y=-3.499*
 10: 0x02BD [0x1F] MOVE_ENTITY: Update entity position (mode=1)
 11: 0x02BF [0x1F] MOVE_ENTITY: EventEntity moves to X=-73.075*, Z=51.803*, Y=-3.499*
 12: 0x02C7 [0x1F] MOVE_ENTITY: Update entity position (mode=1)
 13: 0x02C9 [0x1F] MOVE_ENTITY: EventEntity moves to X=-78.613*, Z=59.364*, Y=-3.499*
 14: 0x02D1 [0x1F] MOVE_ENTITY: Update entity position (mode=1)
 15: 0x02D3 [0x1F] MOVE_ENTITY: EventEntity moves to X=-76.580*, Z=75.410*, Y=-3.499*
 16: 0x02DB [0x1F] MOVE_ENTITY: Update entity position (mode=1)
 17: 0x02DD [0x1F] MOVE_ENTITY: EventEntity moves to X=-64.004*, Z=81.361*, Y=-5.000*
 18: 0x02E5 [0x1F] MOVE_ENTITY: Update entity position (mode=1)
 19: 0x02E7 [0x1F] MOVE_ENTITY: EventEntity moves to X=-49.175*, Z=83.509*, Y=-4.999*
 20: 0x02EF [0x1F] MOVE_ENTITY: Update entity position (mode=1)
 21: 0x02F1 [0x1F] MOVE_ENTITY: EventEntity moves to X=-42.767*, Z=87.755*, Y=-4.999*
 22: 0x02F9 [0x1F] MOVE_ENTITY: Update entity position (mode=1)
 23: 0x02FB [0x1F] MOVE_ENTITY: EventEntity moves to X=-41.067*, Z=92.184*, Y=-4.999*
 24: 0x0303 [0x1F] MOVE_ENTITY: Update entity position (mode=1)
 25: 0x0305 [0x1F] MOVE_ENTITY: EventEntity moves to X=-40.133*, Z=167.579*, Y=-5.023*
 26: 0x030D [0x1F] MOVE_ENTITY: Update entity position (mode=1)
 27: 0x030F [0x6F] WAIT_FRAME_DELAY: Yield until WaitTime reaches zero
 28: 0x0310 [0x7E] CHOCOBO_MOUNT: Dismount Unnamed NPC (ID: 17162790/0x0105E226) (status = 0)
 29: 0x0316 [0x22] ENTITY_HIDE_FLAG(enabled=0x01)
 30: 0x0318 [0x2F] EventEntity->Render.Flags0 |= 0x80000 // Bit 19
 31: 0x031E [0x00] END_REQSTACK()
```

### Event 65535.21

#### Metadata

| Field        | Value     |
|--------------|-----------|
| Entrypoint   | 0x031F    |
| Data Size    | 167 bytes |
| Instructions | 35        |

```
      00 01 02 03 04 05 06 07  08 09 0A 0B 0C 0D 0E 0F
      -- -- -- -- -- -- -- --  -- -- -- -- -- -- -- --
0310:                                               1C                 .
0320: 62 80 59 04 27 E2 05 01  54 80 1F 00 63 80 64 80  b.Y.'...T...c.d.
0330: 5D 80 1F 01 1F 00 65 80  66 80 5D 80 1F 01 1F 00  ].....e.f.].....
0340: 67 80 68 80 5D 80 1F 01  1F 00 27 80 28 80 29 80  g.h.].....'.(.).
0350: 1F 01 1F 00 2A 80 2B 80  29 80 1F 01 1F 00 2C 80  ....*.+.).....,.
0360: 2D 80 29 80 1F 01 1F 00  2E 80 2F 80 29 80 1F 01  -.)......./.)...
0370: 1F 00 30 80 31 80 29 80  1F 01 1F 00 32 80 33 80  ..0.1.).....2.3.
0380: 34 80 1F 01 1F 00 35 80  36 80 37 80 1F 01 1F 00  4.....5.6.7.....
0390: 4B 80 4C 80 37 80 1F 01  1F 00 4D 80 4E 80 37 80  K.L.7.....M.N.7.
03A0: 1F 01 1F 00 4F 80 50 80  37 80 1F 01 1F 00 3C 80  ....O.P.7.....<.
03B0: 3D 80 3E 80 1F 01 6F 7E  05 27 E2 05 01 22 01 2F  =.>...o~.'..."./
03C0: 01 F8 FF FF 7F 00                                 ......          
```

#### Opcodes

```
  0: 0x031F [0x1C] WAIT(180* ticks)
  1: 0x0322 [0x59] UPDATE_ENTITY_DATA: Set Unnamed NPC (ID: 17162791/0x0105E227) main speed = 78* * 0.1
  2: 0x032A [0x1F] MOVE_ENTITY: EventEntity moves to X=-1.740*, Z=31.643*, Y=-0.999*
  3: 0x0332 [0x1F] MOVE_ENTITY: Update entity position (mode=1)
  4: 0x0334 [0x1F] MOVE_ENTITY: EventEntity moves to X=-4.175*, Z=36.997*, Y=-0.999*
  5: 0x033C [0x1F] MOVE_ENTITY: Update entity position (mode=1)
  6: 0x033E [0x1F] MOVE_ENTITY: EventEntity moves to X=-8.672*, Z=40.970*, Y=-0.999*
  7: 0x0346 [0x1F] MOVE_ENTITY: Update entity position (mode=1)
  8: 0x0348 [0x1F] MOVE_ENTITY: EventEntity moves to X=-51.141*, Z=38.746*, Y=-3.499*
  9: 0x0350 [0x1F] MOVE_ENTITY: Update entity position (mode=1)
 10: 0x0352 [0x1F] MOVE_ENTITY: EventEntity moves to X=-63.152*, Z=42.731*, Y=-3.499*
 11: 0x035A [0x1F] MOVE_ENTITY: Update entity position (mode=1)
 12: 0x035C [0x1F] MOVE_ENTITY: EventEntity moves to X=-73.075*, Z=51.803*, Y=-3.499*
 13: 0x0364 [0x1F] MOVE_ENTITY: Update entity position (mode=1)
 14: 0x0366 [0x1F] MOVE_ENTITY: EventEntity moves to X=-78.613*, Z=59.364*, Y=-3.499*
 15: 0x036E [0x1F] MOVE_ENTITY: Update entity position (mode=1)
 16: 0x0370 [0x1F] MOVE_ENTITY: EventEntity moves to X=-76.580*, Z=75.410*, Y=-3.499*
 17: 0x0378 [0x1F] MOVE_ENTITY: Update entity position (mode=1)
 18: 0x037A [0x1F] MOVE_ENTITY: EventEntity moves to X=-64.004*, Z=81.361*, Y=-5.000*
 19: 0x0382 [0x1F] MOVE_ENTITY: Update entity position (mode=1)
 20: 0x0384 [0x1F] MOVE_ENTITY: EventEntity moves to X=-49.175*, Z=83.509*, Y=-4.999*
 21: 0x038C [0x1F] MOVE_ENTITY: Update entity position (mode=1)
 22: 0x038E [0x1F] MOVE_ENTITY: EventEntity moves to X=-39.708*, Z=89.827*, Y=-4.999*
 23: 0x0396 [0x1F] MOVE_ENTITY: Update entity position (mode=1)
 24: 0x0398 [0x1F] MOVE_ENTITY: EventEntity moves to X=-38.677*, Z=93.420*, Y=-4.999*
 25: 0x03A0 [0x1F] MOVE_ENTITY: Update entity position (mode=1)
 26: 0x03A2 [0x1F] MOVE_ENTITY: EventEntity moves to X=-38.282*, Z=99.163*, Y=-4.999*
 27: 0x03AA [0x1F] MOVE_ENTITY: Update entity position (mode=1)
 28: 0x03AC [0x1F] MOVE_ENTITY: EventEntity moves to X=-40.133*, Z=167.579*, Y=-5.023*
 29: 0x03B4 [0x1F] MOVE_ENTITY: Update entity position (mode=1)
 30: 0x03B6 [0x6F] WAIT_FRAME_DELAY: Yield until WaitTime reaches zero
 31: 0x03B7 [0x7E] CHOCOBO_MOUNT: Dismount Unnamed NPC (ID: 17162791/0x0105E227) (status = 0)
 32: 0x03BD [0x22] ENTITY_HIDE_FLAG(enabled=0x01)
 33: 0x03BF [0x2F] EventEntity->Render.Flags0 |= 0x80000 // Bit 19
 34: 0x03C5 [0x00] END_REQSTACK()
```

### Event 65535.22

#### Metadata

| Field        | Value    |
|--------------|----------|
| Entrypoint   | 0x03C6   |
| Data Size    | 69 bytes |
| Instructions | 15       |

```
      00 01 02 03 04 05 06 07  08 09 0A 0B 0C 0D 0E 0F
      -- -- -- -- -- -- -- --  -- -- -- -- -- -- -- --
03C0:                   1C 69  80 59 04 94 E2 05 01 6A        .i.Y.....j
03D0: 80 1F 00 6B 80 6C 80 6D  80 1F 01 1F 00 6E 80 6F  ...k.l.m.....n.o
03E0: 80 6D 80 1F 01 59 04 F8  FF FF 7F 70 80 1F 00 71  .m...Y.....p...q
03F0: 80 72 80 6D 80 1F 01 1F  00 73 80 74 80 29 80 1F  .r.m.....s.t.)..
0400: 01 6F 22 01 2F 01 F8 FF  FF 7F 00                 .o"./......     
```

#### Opcodes

```
  0: 0x03C6 [0x1C] WAIT(360* ticks)
  1: 0x03C9 [0x59] UPDATE_ENTITY_DATA: Set 02 (ID: 17162900/0x0105E294) main speed = 15* * 0.1
  2: 0x03D1 [0x1F] MOVE_ENTITY: EventEntity moves to X=-26.970*, Z=63.607*, Y=-3.500*
  3: 0x03D9 [0x1F] MOVE_ENTITY: Update entity position (mode=1)
  4: 0x03DB [0x1F] MOVE_ENTITY: EventEntity moves to X=-25.762*, Z=63.002*, Y=-3.500*
  5: 0x03E3 [0x1F] MOVE_ENTITY: Update entity position (mode=1)
  6: 0x03E5 [0x59] UPDATE_ENTITY_DATA: Set EventEntity main speed = 40* * 0.1
  7: 0x03ED [0x1F] MOVE_ENTITY: EventEntity moves to X=-47.406*, Z=58.894*, Y=-3.500*
  8: 0x03F5 [0x1F] MOVE_ENTITY: Update entity position (mode=1)
  9: 0x03F7 [0x1F] MOVE_ENTITY: EventEntity moves to X=-56.954*, Z=53.463*, Y=-3.499*
 10: 0x03FF [0x1F] MOVE_ENTITY: Update entity position (mode=1)
 11: 0x0401 [0x6F] WAIT_FRAME_DELAY: Yield until WaitTime reaches zero
 12: 0x0402 [0x22] ENTITY_HIDE_FLAG(enabled=0x01)
 13: 0x0404 [0x2F] EventEntity->Render.Flags0 |= 0x80000 // Bit 19
 14: 0x040A [0x00] END_REQSTACK()
```

### Event 65535.23

#### Metadata

| Field        | Value    |
|--------------|----------|
| Entrypoint   | 0x040B   |
| Data Size    | 38 bytes |
| Instructions | 9        |

```
      00 01 02 03 04 05 06 07  08 09 0A 0B 0C 0D 0E 0F
      -- -- -- -- -- -- -- --  -- -- -- -- -- -- -- --
0400:                                   59 04 F8 FF FF             Y....
0410: 7F 75 80 1F 00 76 80 77  80 78 80 1F 01 1F 00 79  .u...v.w.x.....y
0420: 80 7A 80 6D 80 1F 01 6F  22 01 2F 01 F8 FF FF 7F  .z.m...o"./.....
0430: 00                                                .               
```

#### Opcodes

```
  0: 0x040B [0x59] UPDATE_ENTITY_DATA: Set EventEntity main speed = 27* * 0.1
  1: 0x0413 [0x1F] MOVE_ENTITY: EventEntity moves to X=-30.382*, Z=74.601*, Y=-3.574*
  2: 0x041B [0x1F] MOVE_ENTITY: Update entity position (mode=1)
  3: 0x041D [0x1F] MOVE_ENTITY: EventEntity moves to X=-54.461*, Z=69.456*, Y=-3.500*
  4: 0x0425 [0x1F] MOVE_ENTITY: Update entity position (mode=1)
  5: 0x0427 [0x6F] WAIT_FRAME_DELAY: Yield until WaitTime reaches zero
  6: 0x0428 [0x22] ENTITY_HIDE_FLAG(enabled=0x01)
  7: 0x042A [0x2F] EventEntity->Render.Flags0 |= 0x80000 // Bit 19
  8: 0x0430 [0x00] END_REQSTACK()
```

### Event 65535.24

#### Metadata

| Field        | Value    |
|--------------|----------|
| Entrypoint   | 0x0431   |
| Data Size    | 38 bytes |
| Instructions | 9        |

```
      00 01 02 03 04 05 06 07  08 09 0A 0B 0C 0D 0E 0F
      -- -- -- -- -- -- -- --  -- -- -- -- -- -- -- --
0430:    59 04 F8 FF FF 7F 75  80 1F 00 7B 80 7C 80 7D   Y.....u...{.|.}
0440: 80 1F 01 1F 00 7E 80 7F  80 6D 80 1F 01 6F 22 01  .....~...m...o".
0450: 2F 01 F8 FF FF 7F 00                              /......         
```

#### Opcodes

```
  0: 0x0431 [0x59] UPDATE_ENTITY_DATA: Set EventEntity main speed = 27* * 0.1
  1: 0x0439 [0x1F] MOVE_ENTITY: EventEntity moves to X=-29.325*, Z=75.371*, Y=-3.529*
  2: 0x0441 [0x1F] MOVE_ENTITY: Update entity position (mode=1)
  3: 0x0443 [0x1F] MOVE_ENTITY: EventEntity moves to X=-53.209*, Z=70.575*, Y=-3.500*
  4: 0x044B [0x1F] MOVE_ENTITY: Update entity position (mode=1)
  5: 0x044D [0x6F] WAIT_FRAME_DELAY: Yield until WaitTime reaches zero
  6: 0x044E [0x22] ENTITY_HIDE_FLAG(enabled=0x01)
  7: 0x0450 [0x2F] EventEntity->Render.Flags0 |= 0x80000 // Bit 19
  8: 0x0456 [0x00] END_REQSTACK()
```

### Event 65535.25

#### Metadata

| Field        | Value    |
|--------------|----------|
| Entrypoint   | 0x0457   |
| Data Size    | 48 bytes |
| Instructions | 11       |

```
      00 01 02 03 04 05 06 07  08 09 0A 0B 0C 0D 0E 0F
      -- -- -- -- -- -- -- --  -- -- -- -- -- -- -- --
0450:                      59  04 F8 FF FF 7F 75 80 1F         Y.....u..
0460: 00 80 80 81 80 82 80 1F  01 1F 00 83 80 84 80 6D  ...............m
0470: 80 1F 01 1F 00 85 80 86  80 6D 80 1F 01 6F 22 01  .........m...o".
0480: 2F 01 F8 FF FF 7F 00                              /......         
```

#### Opcodes

```
  0: 0x0457 [0x59] UPDATE_ENTITY_DATA: Set EventEntity main speed = 27* * 0.1
  1: 0x045F [0x1F] MOVE_ENTITY: EventEntity moves to X=-27.766*, Z=73.600*, Y=-3.414*
  2: 0x0467 [0x1F] MOVE_ENTITY: Update entity position (mode=1)
  3: 0x0469 [0x1F] MOVE_ENTITY: EventEntity moves to X=-52.430*, Z=73.638*, Y=-3.500*
  4: 0x0471 [0x1F] MOVE_ENTITY: Update entity position (mode=1)
  5: 0x0473 [0x1F] MOVE_ENTITY: EventEntity moves to X=-54.193*, Z=72.044*, Y=-3.500*
  6: 0x047B [0x1F] MOVE_ENTITY: Update entity position (mode=1)
  7: 0x047D [0x6F] WAIT_FRAME_DELAY: Yield until WaitTime reaches zero
  8: 0x047E [0x22] ENTITY_HIDE_FLAG(enabled=0x01)
  9: 0x0480 [0x2F] EventEntity->Render.Flags0 |= 0x80000 // Bit 19
 10: 0x0486 [0x00] END_REQSTACK()
```

### Event 65535.26

#### Metadata

| Field        | Value    |
|--------------|----------|
| Entrypoint   | 0x0487   |
| Data Size    | 19 bytes |
| Instructions | 4        |

```
      00 01 02 03 04 05 06 07  08 09 0A 0B 0C 0D 0E 0F
      -- -- -- -- -- -- -- --  -- -- -- -- -- -- -- --
0480:                      59  04 F8 FF FF 7F 87 80 1F         Y........
0490: 00 88 80 89 80 34 80 1F  01 00                    .....4....      
```

#### Opcodes

```
  0: 0x0487 [0x59] UPDATE_ENTITY_DATA: Set EventEntity main speed = 42* * 0.1
  1: 0x048F [0x1F] MOVE_ENTITY: EventEntity moves to X=-22.678*, Z=81.353*, Y=-5.000*
  2: 0x0497 [0x1F] MOVE_ENTITY: Update entity position (mode=1)
  3: 0x0499 [0x00] END_REQSTACK()
```

### Event 65535.27

#### Metadata

| Field        | Value    |
|--------------|----------|
| Entrypoint   | 0x049A   |
| Data Size    | 22 bytes |
| Instructions | 5        |

```
      00 01 02 03 04 05 06 07  08 09 0A 0B 0C 0D 0E 0F
      -- -- -- -- -- -- -- --  -- -- -- -- -- -- -- --
0490:                                59 04 F8 FF FF 7F            Y.....
04A0: 87 80 1C 8A 80 1F 00 88  80 89 80 34 80 1F 01 00  ...........4....
```

#### Opcodes

```
  0: 0x049A [0x59] UPDATE_ENTITY_DATA: Set EventEntity main speed = 42* * 0.1
  1: 0x04A2 [0x1C] WAIT(60* ticks)
  2: 0x04A5 [0x1F] MOVE_ENTITY: EventEntity moves to X=-22.678*, Z=81.353*, Y=-5.000*
  3: 0x04AD [0x1F] MOVE_ENTITY: Update entity position (mode=1)
  4: 0x04AF [0x00] END_REQSTACK()
```

### Event 65535.28

#### Metadata

| Field        | Value    |
|--------------|----------|
| Entrypoint   | 0x04B0   |
| Data Size    | 22 bytes |
| Instructions | 5        |

```
      00 01 02 03 04 05 06 07  08 09 0A 0B 0C 0D 0E 0F
      -- -- -- -- -- -- -- --  -- -- -- -- -- -- -- --
04B0: 59 04 F8 FF FF 7F 87 80  1C 8B 80 1F 00 88 80 89  Y...............
04C0: 80 34 80 1F 01 00                                 .4....          
```

#### Opcodes

```
  0: 0x04B0 [0x59] UPDATE_ENTITY_DATA: Set EventEntity main speed = 42* * 0.1
  1: 0x04B8 [0x1C] WAIT(120* ticks)
  2: 0x04BB [0x1F] MOVE_ENTITY: EventEntity moves to X=-22.678*, Z=81.353*, Y=-5.000*
  3: 0x04C3 [0x1F] MOVE_ENTITY: Update entity position (mode=1)
  4: 0x04C5 [0x00] END_REQSTACK()
```

### Event 65535.29

#### Metadata

| Field        | Value    |
|--------------|----------|
| Entrypoint   | 0x04C6   |
| Data Size    | 13 bytes |
| Instructions | 5        |

```
      00 01 02 03 04 05 06 07  08 09 0A 0B 0C 0D 0E 0F
      -- -- -- -- -- -- -- --  -- -- -- -- -- -- -- --
04C0:                   06 08  10 1C 8C 80 1C 06 80 05        ..........
04D0: 08 10 00                                          ...             
```

#### Opcodes

```
  0: 0x04C6 [0x06] Work_Zone[8] = 0
  1: 0x04C9 [0x1C] WAIT(600* ticks)
  2: 0x04CC [0x1C] WAIT(5* ticks)
  3: 0x04CF [0x05] Work_Zone[8] = 1
  4: 0x04D2 [0x00] END_REQSTACK()
```

### Event 65535.30

#### Metadata

| Field        | Value     |
|--------------|-----------|
| Entrypoint   | 0x04D3    |
| Data Size    | 221 bytes |
| Instructions | 26        |

```
      00 01 02 03 04 05 06 07  08 09 0A 0B 0C 0D 0E 0F
      -- -- -- -- -- -- -- --  -- -- -- -- -- -- -- --
04D0:          06 09 10 1C 3F  80 52 8D 80 F0 FF FF 7F     ....?.R......
04E0: F0 FF FF 7F 79 30 34 32  45 8D 80 1E E2 05 01 1E  ....y042E.......
04F0: E2 05 01 79 30 34 35 19  80 1C 8E 80 52 8D 80 1E  ...y045.....R...
0500: E2 05 01 1E E2 05 01 79  30 34 35 45 8D 80 F0 FF  .......y045E....
0510: FF 7F F0 FF FF 7F 79 30  35 32 19 80 27 10 93 E2  ......y052..'...
0520: 05 01 0C 27 10 95 E2 05  01 0C BA 44 E2 05 01 8F  ...'.......D....
0530: 80 90 80 29 80 91 80 BA  45 E2 05 01 8F 80 90 80  ...)....E.......
0540: 29 80 91 80 BA 46 E2 05  01 8F 80 90 80 29 80 91  )....F.......)..
0550: 80 29 10 23 E2 05 01 02  29 10 24 E2 05 01 02 79  .).#....).$....y
0560: 00 28 E2 05 01 20 E2 05  01 66 92 80 28 E2 05 01  .(... ...f..(...
0570: 28 E2 05 01 74 6C 6B 30  27 10 FE E2 05 01 0F 27  (...tlk0'......'
0580: 10 FF E2 05 01 10 27 10  00 E3 05 01 11 1C 06 80  ......'.........
0590: 27 10 44 E2 05 01 13 27  10 45 E2 05 01 15 27 10  '.D....'.E....'.
05A0: 46 E2 05 01 16 27 10 11  E3 05 01 12 05 09 10 00  F....'..........
```

#### Opcodes

```
  0: 0x04D3 [0x06] Work_Zone[9] = 0
  1: 0x04D6 [0x1C] WAIT(150* ticks)
  2: 0x04D9 [0x52] END_LOAD_SCHEDULER: End scheduler "y042" with entities [LocalPlayer, LocalPlayer], work=533*
  3: 0x04E8 [0x45] LOAD_SCHEDULED_TASK: Load scheduler "y045" with entities [02 (ID: 17162782/0x0105E21E), 02 (ID: 17162782/0x0105E21E)], work=[533*, 0*]
  4: 0x04F9 [0x1C] WAIT(300* ticks)
  5: 0x04FC [0x52] END_LOAD_SCHEDULER: End scheduler "y045" with entities [02 (ID: 17162782/0x0105E21E), 02 (ID: 17162782/0x0105E21E)], work=533*
  6: 0x050B [0x45] LOAD_SCHEDULED_TASK: Load scheduler "y052" with entities [LocalPlayer, LocalPlayer], work=[533*, 0*]
  7: 0x051C [0x27] REQ_SET(priority=0x10, entity_id=01 (ID: 17162899/0x0105E293), tag_num=0x0C)
  8: 0x0523 [0x27] REQ_SET(priority=0x10, entity_id=02 (ID: 17162901/0x0105E295), tag_num=0x0C)
  9: 0x052A [0xBA] SET_ENTITY_POSITION(entity_id=02 (ID: 17162820/0x0105E244), pos_x=-60.989*, pos_z=70.254*, pos_y=-3.499*, direction=359.7*)
 10: 0x0537 [0xBA] SET_ENTITY_POSITION(entity_id=03 (ID: 17162821/0x0105E245), pos_x=-60.989*, pos_z=70.254*, pos_y=-3.499*, direction=359.7*)
 11: 0x0544 [0xBA] SET_ENTITY_POSITION(entity_id=04 (ID: 17162822/0x0105E246), pos_x=-60.989*, pos_z=70.254*, pos_y=-3.499*, direction=359.7*)
 12: 0x0551 [0x29] REQ_SET_WAIT(priority=0x10, entity_id=07 (ID: 17162787/0x0105E223), tag_num=0x02)
 13: 0x0558 [0x29] REQ_SET_WAIT(priority=0x10, entity_id=Unnamed NPC (ID: 17162788/0x0105E224), tag_num=0x02)
 14: 0x055F [0x79] Unnamed NPC (ID: 17162792/0x0105E228) looks at 04 (ID: 17162784/0x0105E220) (Basic look)
 15: 0x0569 [0x66] LOAD_EXT_SCHEDULER_MAIN: Load scheduler "tlk0" with entities [Unnamed NPC (ID: 17162792/0x0105E228), Unnamed NPC (ID: 17162792/0x0105E228)], work=49*
 16: 0x0578 [0x27] REQ_SET(priority=0x10, entity_id=01 (ID: 17163006/0x0105E2FE), tag_num=0x0F)
 17: 0x057F [0x27] REQ_SET(priority=0x10, entity_id=02 (ID: 17163007/0x0105E2FF), tag_num=0x10)
 18: 0x0586 [0x27] REQ_SET(priority=0x10, entity_id=03 (ID: 17163008/0x0105E300), tag_num=0x11)
 19: 0x058D [0x1C] WAIT(5* ticks)
 20: 0x0590 [0x27] REQ_SET(priority=0x10, entity_id=02 (ID: 17162820/0x0105E244), tag_num=0x13)
 21: 0x0597 [0x27] REQ_SET(priority=0x10, entity_id=03 (ID: 17162821/0x0105E245), tag_num=0x15)
 22: 0x059E [0x27] REQ_SET(priority=0x10, entity_id=04 (ID: 17162822/0x0105E246), tag_num=0x16)
 23: 0x05A5 [0x27] REQ_SET(priority=0x10, entity_id=Unnamed NPC (ID: 17163025/0x0105E311), tag_num=0x12)
 24: 0x05AC [0x05] Work_Zone[9] = 1
 25: 0x05AF [0x00] END_REQSTACK()
```

### Event 65535.31

#### Metadata

| Field        | Value    |
|--------------|----------|
| Entrypoint   | 0x05B0   |
| Data Size    | 76 bytes |
| Instructions | 8        |

```
      00 01 02 03 04 05 06 07  08 09 0A 0B 0C 0D 0E 0F
      -- -- -- -- -- -- -- --  -- -- -- -- -- -- -- --
05B0: 06 08 10 55 8D 80 F0 FF  FF 7F F0 FF FF 7F 79 30  ...U..........y0
05C0: 35 32 52 8D 80 F0 FF FF  7F F0 FF FF 7F 79 30 35  52R..........y05
05D0: 32 27 10 1F E2 05 01 09  45 8D 80 F0 FF FF 7F F0  2'......E.......
05E0: FF FF 7F 79 30 35 34 19  80 05 08 10 55 8D 80 F0  ...y054.....U...
05F0: FF FF 7F F0 FF FF 7F 79  30 35 34 00              .......y054.    
```

#### Opcodes

```
  0: 0x05B0 [0x06] Work_Zone[8] = 0
  1: 0x05B3 [0x55] WAIT_LOAD_SCHEDULER: Wait for scheduler "y052" with entities [LocalPlayer, LocalPlayer], work=533*
  2: 0x05C2 [0x52] END_LOAD_SCHEDULER: End scheduler "y052" with entities [LocalPlayer, LocalPlayer], work=533*
  3: 0x05D1 [0x27] REQ_SET(priority=0x10, entity_id=03 (ID: 17162783/0x0105E21F), tag_num=0x09)
  4: 0x05D8 [0x45] LOAD_SCHEDULED_TASK: Load scheduler "y054" with entities [LocalPlayer, LocalPlayer], work=[533*, 0*]
  5: 0x05E9 [0x05] Work_Zone[8] = 1
  6: 0x05EC [0x55] WAIT_LOAD_SCHEDULER: Wait for scheduler "y054" with entities [LocalPlayer, LocalPlayer], work=533*
  7: 0x05FB [0x00] END_REQSTACK()
```

### Event 65535.32

#### Metadata

| Field        | Value    |
|--------------|----------|
| Entrypoint   | 0x05FC   |
| Data Size    | 49 bytes |
| Instructions | 5        |

```
      00 01 02 03 04 05 06 07  08 09 0A 0B 0C 0D 0E 0F
      -- -- -- -- -- -- -- --  -- -- -- -- -- -- -- --
05F0:                                      7B 06 E2 05              {...
0600: 01 5B 93 80 06 E2 05 01  06 E2 05 01 6B 75 69 30  .[..........kui0
0610: 53 06 E2 05 01 06 E2 05  01 6B 75 69 30 5B 93 80  S........kui0[..
0620: 06 E2 05 01 06 E2 05 01  65 68 6E 30 00           ........ehn0.   
```

#### Opcodes

```
  0: 0x05FC [0x7B] Ajido-Marujido (ID: 17162758/0x0105E206) stops talking
  1: 0x0601 [0x5B] LOAD_EXT_SCHEDULER: Load scheduler "kui0" with entities [Ajido-Marujido (ID: 17162758/0x0105E206), Ajido-Marujido (ID: 17162758/0x0105E206)], work=1288*
  2: 0x0610 [0x53] WAIT_SCHEDULER_TASK: Wait for scheduler "kui0" with entities [Ajido-Marujido (ID: 17162758/0x0105E206), Ajido-Marujido (ID: 17162758/0x0105E206)]
  3: 0x061D [0x5B] LOAD_EXT_SCHEDULER: Load scheduler "ehn0" with entities [Ajido-Marujido (ID: 17162758/0x0105E206), Ajido-Marujido (ID: 17162758/0x0105E206)], work=1288*
  4: 0x062C [0x00] END_REQSTACK()
```

### Event 65535.33

#### Metadata

| Field        | Value    |
|--------------|----------|
| Entrypoint   | 0x062D   |
| Data Size    | 29 bytes |
| Instructions | 6        |

```
      00 01 02 03 04 05 06 07  08 09 0A 0B 0C 0D 0E 0F
      -- -- -- -- -- -- -- --  -- -- -- -- -- -- -- --
0620:                                         59 04 F8               Y..
0630: FF FF 7F 70 80 1F 00 94  80 95 80 14 80 1F 01 6F  ...p...........o
0640: 4A 43 E2 05 01 06 E2 05  01 00                    JC........      
```

#### Opcodes

```
  0: 0x062D [0x59] UPDATE_ENTITY_DATA: Set EventEntity main speed = 40* * 0.1
  1: 0x0635 [0x1F] MOVE_ENTITY: EventEntity moves to X=-5.296*, Z=12.328*, Y=-1.000*
  2: 0x063D [0x1F] MOVE_ENTITY: Update entity position (mode=1)
  3: 0x063F [0x6F] WAIT_FRAME_DELAY: Yield until WaitTime reaches zero
  4: 0x0640 [0x4A] 01 (ID: 17162819/0x0105E243) looks at Ajido-Marujido (ID: 17162758/0x0105E206)
  5: 0x0649 [0x00] END_REQSTACK()
```

### Event 65535.34

#### Metadata

| Field        | Value    |
|--------------|----------|
| Entrypoint   | 0x064A   |
| Data Size    | 49 bytes |
| Instructions | 7        |

```
      00 01 02 03 04 05 06 07  08 09 0A 0B 0C 0D 0E 0F
      -- -- -- -- -- -- -- --  -- -- -- -- -- -- -- --
0640:                                1C 96 80 5B 93 80            ...[..
0650: 06 E2 05 01 06 E2 05 01  65 68 6E 31 4A 06 E2 05  ........ehn1J...
0660: 01 43 E2 05 01 6F 76 06  E2 05 01 5B 97 80 06 E2  .C...ov....[....
0670: 05 01 06 E2 05 01 73 75  72 30 00                 ......sur0.     
```

#### Opcodes

```
  0: 0x064A [0x1C] WAIT(160* ticks)
  1: 0x064D [0x5B] LOAD_EXT_SCHEDULER: Load scheduler "ehn1" with entities [Ajido-Marujido (ID: 17162758/0x0105E206), Ajido-Marujido (ID: 17162758/0x0105E206)], work=1288*
  2: 0x065C [0x4A] Ajido-Marujido (ID: 17162758/0x0105E206) looks at 01 (ID: 17162819/0x0105E243)
  3: 0x0665 [0x6F] WAIT_FRAME_DELAY: Yield until WaitTime reaches zero
  4: 0x0666 [0x76] CHECK_ENTITY_RENDER_FLAGS: Wait until Ajido-Marujido (ID: 17162758/0x0105E206) Render.Flags0 and Render.Flags3 conditions are met
  5: 0x066B [0x5B] LOAD_EXT_SCHEDULER: Load scheduler "sur0" with entities [Ajido-Marujido (ID: 17162758/0x0105E206), Ajido-Marujido (ID: 17162758/0x0105E206)], work=85*
  6: 0x067A [0x00] END_REQSTACK()
```

### Event 65535.35

#### Metadata

| Field        | Value    |
|--------------|----------|
| Entrypoint   | 0x067B   |
| Data Size    | 20 bytes |
| Instructions | 5        |

```
      00 01 02 03 04 05 06 07  08 09 0A 0B 0C 0D 0E 0F
      -- -- -- -- -- -- -- --  -- -- -- -- -- -- -- --
0670:                                   59 04 F8 FF FF             Y....
0680: 7F 98 80 1F 00 99 80 9A  80 14 80 1F 01 6F 00     .............o. 
```

#### Opcodes

```
  0: 0x067B [0x59] UPDATE_ENTITY_DATA: Set EventEntity main speed = 7* * 0.1
  1: 0x0683 [0x1F] MOVE_ENTITY: EventEntity moves to X=-0.307*, Z=13.248*, Y=-1.000*
  2: 0x068B [0x1F] MOVE_ENTITY: Update entity position (mode=1)
  3: 0x068D [0x6F] WAIT_FRAME_DELAY: Yield until WaitTime reaches zero
  4: 0x068E [0x00] END_REQSTACK()
```

### Event 65535.36

#### Metadata

| Field        | Value    |
|--------------|----------|
| Entrypoint   | 0x068F   |
| Data Size    | 47 bytes |
| Instructions | 6        |

```
      00 01 02 03 04 05 06 07  08 09 0A 0B 0C 0D 0E 0F
      -- -- -- -- -- -- -- --  -- -- -- -- -- -- -- --
0680:                                               5B                 [
0690: 97 80 06 E2 05 01 06 E2  05 01 73 75 72 30 53 06  ..........sur0S.
06A0: E2 05 01 06 E2 05 01 73  75 72 30 59 04 F8 FF FF  .......sur0Y....
06B0: 7F 9B 80 1F 00 9C 80 9D  80 5D 80 1F 01 00        .........]....  
```

#### Opcodes

```
  0: 0x068F [0x5B] LOAD_EXT_SCHEDULER: Load scheduler "sur0" with entities [Ajido-Marujido (ID: 17162758/0x0105E206), Ajido-Marujido (ID: 17162758/0x0105E206)], work=85*
  1: 0x069E [0x53] WAIT_SCHEDULER_TASK: Wait for scheduler "sur0" with entities [Ajido-Marujido (ID: 17162758/0x0105E206), Ajido-Marujido (ID: 17162758/0x0105E206)]
  2: 0x06AB [0x59] UPDATE_ENTITY_DATA: Set EventEntity main speed = 35* * 0.1
  3: 0x06B3 [0x1F] MOVE_ENTITY: EventEntity moves to X=-1.006*, Z=16.226*, Y=-0.999*
  4: 0x06BB [0x1F] MOVE_ENTITY: Update entity position (mode=1)
  5: 0x06BD [0x00] END_REQSTACK()
```

### Event 65535.37

#### Metadata

| Field        | Value    |
|--------------|----------|
| Entrypoint   | 0x06BE   |
| Data Size    | 21 bytes |
| Instructions | 3        |

```
      00 01 02 03 04 05 06 07  08 09 0A 0B 0C 0D 0E 0F
      -- -- -- -- -- -- -- --  -- -- -- -- -- -- -- --
06B0:                                            1C 9E                ..
06C0: 80 45 9F 80 F0 FF FF 7F  F0 FF FF 7F 62 6C 6F 6E  .E..........blon
06D0: 19 80 00                                          ...             
```

#### Opcodes

```
  0: 0x06BE [0x1C] WAIT(75* ticks)
  1: 0x06C1 [0x45] LOAD_SCHEDULED_TASK: Load scheduler "blon" with entities [LocalPlayer, LocalPlayer], work=[201*, 0*]
  2: 0x06D2 [0x00] END_REQSTACK()
```

### Event 65535.38

#### Metadata

| Field        | Value     |
|--------------|-----------|
| Entrypoint   | 0x06D3    |
| Data Size    | 161 bytes |
| Instructions | 17        |

```
      00 01 02 03 04 05 06 07  08 09 0A 0B 0C 0D 0E 0F
      -- -- -- -- -- -- -- --  -- -- -- -- -- -- -- --
06D0:          59 04 F8 FF FF  7F 9B 80 1F 00 A0 80 A1     Y............
06E0: 80 14 80 1F 01 6F BA F0  FF FF 7F A2 80 A3 80 5D  .....o.........]
06F0: 80 A4 80 1C 06 80 5B A5  80 06 E2 05 01 06 E2 05  ......[.........
0700: 01 61 75 70 30 53 06 E2  05 01 06 E2 05 01 61 75  .aup0S........au
0710: 70 30 50 06 E2 05 01 06  E2 05 01 61 75 70 30 5B  p0P........aup0[
0720: A6 80 43 E2 05 01 43 E2  05 01 6A 74 30 30 5B A7  ..C...C...jt00[.
0730: 80 06 E2 05 01 06 E2 05  01 6A 74 30 30 55 A8 80  .........jt00U..
0740: F0 FF FF 7F F0 FF FF 7F  79 31 32 31 27 10 43 E2  ........y121'.C.
0750: 05 01 03 BA 06 E2 05 01  A0 80 A1 80 14 80 A9 80  ................
0760: 4A FF E1 05 01 06 E2 05  01 79 00 FF E1 05 01 06  J........y......
0770: E2 05 01 00                                       ....            
```

#### Opcodes

```
  0: 0x06D3 [0x59] UPDATE_ENTITY_DATA: Set EventEntity main speed = 35* * 0.1
  1: 0x06DB [0x1F] MOVE_ENTITY: EventEntity moves to X=-1.058*, Z=17.433*, Y=-1.000*
  2: 0x06E3 [0x1F] MOVE_ENTITY: Update entity position (mode=1)
  3: 0x06E5 [0x6F] WAIT_FRAME_DELAY: Yield until WaitTime reaches zero
  4: 0x06E6 [0xBA] SET_ENTITY_POSITION(entity_id=LocalPlayer, pos_x=1.032*, pos_z=15.680*, pos_y=-0.999*, direction=220.0*)
  5: 0x06F3 [0x1C] WAIT(5* ticks)
  6: 0x06F6 [0x5B] LOAD_EXT_SCHEDULER: Load scheduler "aup0" with entities [Ajido-Marujido (ID: 17162758/0x0105E206), Ajido-Marujido (ID: 17162758/0x0105E206)], work=1286*
  7: 0x0705 [0x53] WAIT_SCHEDULER_TASK: Wait for scheduler "aup0" with entities [Ajido-Marujido (ID: 17162758/0x0105E206), Ajido-Marujido (ID: 17162758/0x0105E206)]
  8: 0x0712 [0x50] END_SCHEDULER_TASK: End scheduler "au" with entities [0xE206, 0xE206], work=[261, 261]
  9: 0x071F [0x5B] LOAD_EXT_SCHEDULER: Load scheduler "jt00" with entities [01 (ID: 17162819/0x0105E243), 01 (ID: 17162819/0x0105E243)], work=181*
 10: 0x072E [0x5B] LOAD_EXT_SCHEDULER: Load scheduler "jt00" with entities [Ajido-Marujido (ID: 17162758/0x0105E206), Ajido-Marujido (ID: 17162758/0x0105E206)], work=86*
 11: 0x073D [0x55] WAIT_LOAD_SCHEDULER: Wait for scheduler "y121" with entities [LocalPlayer, LocalPlayer], work=393*
 12: 0x074C [0x27] REQ_SET(priority=0x10, entity_id=01 (ID: 17162819/0x0105E243), tag_num=0x03)
 13: 0x0753 [0xBA] SET_ENTITY_POSITION(entity_id=Ajido-Marujido (ID: 17162758/0x0105E206), pos_x=-1.058*, pos_z=17.433*, pos_y=-1.000*, direction=266.2*)
 14: 0x0760 [0x4A] Dhea Prandoleh (ID: 17162751/0x0105E1FF) looks at Ajido-Marujido (ID: 17162758/0x0105E206)
 15: 0x0769 [0x79] Dhea Prandoleh (ID: 17162751/0x0105E1FF) looks at Ajido-Marujido (ID: 17162758/0x0105E206) (Basic look)
 16: 0x0773 [0x00] END_REQSTACK()
```

### Event 65535.39

#### Metadata

| Field        | Value    |
|--------------|----------|
| Entrypoint   | 0x0774   |
| Data Size    | 20 bytes |
| Instructions | 5        |

```
      00 01 02 03 04 05 06 07  08 09 0A 0B 0C 0D 0E 0F
      -- -- -- -- -- -- -- --  -- -- -- -- -- -- -- --
0770:             59 04 F8 FF  FF 7F 18 80 1F 00 AA 80      Y...........
0780: AB 80 AC 80 1F 01 6F 00                           ......o.        
```

#### Opcodes

```
  0: 0x0774 [0x59] UPDATE_ENTITY_DATA: Set EventEntity main speed = 36* * 0.1
  1: 0x077C [0x1F] MOVE_ENTITY: EventEntity moves to X=-7.685*, Z=7.819*, Y=-1.026*
  2: 0x0784 [0x1F] MOVE_ENTITY: Update entity position (mode=1)
  3: 0x0786 [0x6F] WAIT_FRAME_DELAY: Yield until WaitTime reaches zero
  4: 0x0787 [0x00] END_REQSTACK()
```

### Event 20

#### Metadata

| Field        | Value   |
|--------------|---------|
| Entrypoint   | 0x0788  |
| Data Size    | 1 bytes |
| Instructions | 1       |

```
      00 01 02 03 04 05 06 07  08 09 0A 0B 0C 0D 0E 0F
      -- -- -- -- -- -- -- --  -- -- -- -- -- -- -- --
0780:                          00                               .       
```

#### Opcodes

```
  0: 0x0788 [0x00] END_REQSTACK()
```

### Event 23

#### Metadata

| Field        | Value   |
|--------------|---------|
| Entrypoint   | 0x0789  |
| Data Size    | 1 bytes |
| Instructions | 1       |

```
      00 01 02 03 04 05 06 07  08 09 0A 0B 0C 0D 0E 0F
      -- -- -- -- -- -- -- --  -- -- -- -- -- -- -- --
0780:                             00                             .      
```

#### Opcodes

```
  0: 0x0789 [0x00] END_REQSTACK()
```

### Event 24

#### Metadata

| Field        | Value   |
|--------------|---------|
| Entrypoint   | 0x078A  |
| Data Size    | 1 bytes |
| Instructions | 1       |

```
      00 01 02 03 04 05 06 07  08 09 0A 0B 0C 0D 0E 0F
      -- -- -- -- -- -- -- --  -- -- -- -- -- -- -- --
0780:                                00                           .     
```

#### Opcodes

```
  0: 0x078A [0x00] END_REQSTACK()
```

### Event 25

#### Metadata

| Field        | Value   |
|--------------|---------|
| Entrypoint   | 0x078B  |
| Data Size    | 1 bytes |
| Instructions | 1       |

```
      00 01 02 03 04 05 06 07  08 09 0A 0B 0C 0D 0E 0F
      -- -- -- -- -- -- -- --  -- -- -- -- -- -- -- --
0780:                                   00                         .    
```

#### Opcodes

```
  0: 0x078B [0x00] END_REQSTACK()
```

### Event 65535.40

#### Metadata

| Field        | Value    |
|--------------|----------|
| Entrypoint   | 0x078C   |
| Data Size    | 14 bytes |
| Instructions | 4        |

```
      00 01 02 03 04 05 06 07  08 09 0A 0B 0C 0D 0E 0F
      -- -- -- -- -- -- -- --  -- -- -- -- -- -- -- --
0780:                                      32 AD 80 1F              2...
0790: 00 AE 80 AF 80 37 80 1F  01 00                    .....7....      
```

#### Opcodes

```
  0: 0x078C [0x32] ExtData[1]->MainSpeed = 14* * 0.1
  1: 0x078F [0x1F] MOVE_ENTITY: EventEntity moves to X=-24.250*, Z=83.634*, Y=-4.999*
  2: 0x0797 [0x1F] MOVE_ENTITY: Update entity position (mode=1)
  3: 0x0799 [0x00] END_REQSTACK()
```
