# 17162750 - Miah Riyuh

## Common Data

| Field            | Value                        |
|------------------|------------------------------|
| Zone             | Windurst Waters [S] (ID: 94) |
| Block Size       | 1076 bytes                   |
| Total Events     | 35                           |
| References Count | 68                           |

## List of Events

| Event ID                   | Entrypoint   |   Size |   Instructions |
|----------------------------|--------------|--------|----------------|
| [65535](#event-65535)      | 0x0000       |      1 |              1 |
| [103](#event-103)          | 0x0001       |      1 |              1 |
| [105](#event-105)          | 0x0002       |      1 |              1 |
| [106](#event-106)          | 0x0003       |      1 |              1 |
| [121](#event-121)          | 0x0004       |     34 |             10 |
| [141](#event-141)          | 0x0026       |     18 |              6 |
| [122](#event-122)          | 0x0038       |     39 |             11 |
| [104](#event-104)          | 0x005F       |     82 |             20 |
| [107](#event-107)          | 0x00B1       |     18 |              6 |
| [44](#event-44)            | 0x00C3       |     26 |              8 |
| [128](#event-128)          | 0x00DD       |      7 |              2 |
| [129](#event-129)          | 0x00E4       |      7 |              2 |
| [133](#event-133)          | 0x00EB       |      7 |              2 |
| [134](#event-134)          | 0x00F2       |      7 |              2 |
| [168](#event-168)          | 0x00F9       |      7 |              2 |
| [158](#event-158)          | 0x0100       |      7 |              2 |
| [31](#event-31)            | 0x0107       |      1 |              1 |
| [32](#event-32)            | 0x0108       |      1 |              1 |
| [42](#event-42)            | 0x0109       |      1 |              1 |
| [43](#event-43)            | 0x010A       |      1 |              1 |
| [65535.1](#event-655351)   | 0x010B       |     21 |              2 |
| [65535.2](#event-655352)   | 0x0120       |     21 |              2 |
| [65535.3](#event-655353)   | 0x0135       |      1 |              1 |
| [65535.4](#event-655354)   | 0x0136       |     18 |              4 |
| [65535.5](#event-655355)   | 0x0148       |     10 |              2 |
| [65535.6](#event-655356)   | 0x0152       |      9 |              3 |
| [65535.7](#event-655357)   | 0x015B       |      9 |              3 |
| [65535.8](#event-655358)   | 0x0164       |     10 |              2 |
| [65535.9](#event-655359)   | 0x016E       |     10 |              2 |
| [65535.10](#event-6553510) | 0x0178       |    110 |             23 |
| [65535.11](#event-6553511) | 0x01E6       |     31 |              8 |
| [65535.12](#event-6553512) | 0x0205       |     50 |             11 |
| [65535.13](#event-6553513) | 0x0237       |     20 |              5 |
| [65535.14](#event-6553514) | 0x024B       |     29 |              6 |
| [65535.15](#event-6553515) | 0x0268       |     29 |              6 |

## DAT References (imed_data)

|   Index | Hex Value   |   Dec Value |
|---------|-------------|-------------|
|       0 | 0x001E      |          30 |
|       1 | 0x2D07      |       11527 |
|       2 | 0x2D08      |       11528 |
|       3 | 0x2D0A      |       11530 |
|       4 | 0x2D3A      |       11578 |
|       5 | 0x039B      |         923 |
|       6 | 0x2D09      |       11529 |
|       7 | 0x0000      |           0 |
|       8 | 0x03B3      |         947 |
|       9 | 0x2D1F      |       11551 |
|      10 | 0x2D20      |       11552 |
|      11 | 0x2D21      |       11553 |
|      12 | 0x0001      |           1 |
|      13 | 0x2D26      |       11558 |
|      14 | 0x003C      |          60 |
|      15 | 0x2D3B      |       11579 |
|      16 | 0x34BA      |       13498 |
|      17 | 0x34BB      |       13499 |
|      18 | 0x0007      |           7 |
|      19 | 0x0089      |         137 |
|      20 | 0x0010      |          16 |
|      21 | 0x006E      |         110 |
|      22 | 0x011B      |         283 |
|      23 | 0x0024      |          36 |
|      24 | 0x0080      |         128 |
|      25 | 0x0028      |          40 |
|      26 | 0x042C      |        1068 |
|      27 | 0x52A8      |       21160 |
|      28 | 0xFFFFFC19  |  4294966297 |
|      29 | 0xFFFFFFBF  |  4294967231 |
|      30 | 0x5BED      |       23533 |
|      31 | 0xFFFFF79B  |  4294965147 |
|      32 | 0x65C2      |       26050 |
|      33 | 0xFFFFE8CE  |  4294961358 |
|      34 | 0x77A7      |       30631 |
|      35 | 0xFFFFD3A3  |  4294955939 |
|      36 | 0x85F8      |       34296 |
|      37 | 0xFFFFB5DC  |  4294948316 |
|      38 | 0x8EEE      |       36590 |
|      39 | 0xFFFFF7A6  |  4294965158 |
|      40 | 0xFFFF906F  |  4294938735 |
|      41 | 0x9972      |       39282 |
|      42 | 0xFFFFF255  |  4294963797 |
|      43 | 0xFFFF7216  |  4294930966 |
|      44 | 0xA127      |       41255 |
|      45 | 0xFFFF4523  |  4294919459 |
|      46 | 0xA881      |       43137 |
|      47 | 0xFFFFF254  |  4294963796 |
|      48 | 0xFFFF3A2B  |  4294916651 |
|      49 | 0xAE4A      |       44618 |
|      50 | 0xFFFF3A94  |  4294916756 |
|      51 | 0xAFCE      |       45006 |
|      52 | 0x000D      |          13 |
|      53 | 0xFFFF33D7  |  4294915031 |
|      54 | 0xAA40      |       43584 |
|      55 | 0xFFFF3018  |  4294914072 |
|      56 | 0xB54A      |       46410 |
|      57 | 0xFFFF3742  |  4294915906 |
|      58 | 0xC242      |       49730 |
|      59 | 0xFFFF3A26  |  4294916646 |
|      60 | 0xCAD0      |       51920 |
|      61 | 0xFFFF3707  |  4294915847 |
|      62 | 0xB608      |       46600 |
|      63 | 0x07C1      |        1985 |
|      64 | 0x3895      |       14485 |
|      65 | 0xFFFFFC18  |  4294966296 |
|      66 | 0x0398      |         920 |
|      67 | 0x36CB      |       14027 |

## String References

- **11553**: Time to run home to mamma? [I'm not done just yet!/I can't take this anymore!]

## Events

### Event 65535

#### Metadata

| Field        | Value   |
|--------------|---------|
| Entrypoint   | 0x0000  |
| Data Size    | 1 bytes |
| Instructions | 1       |

```
      00 01 02 03 04 05 06 07  08 09 0A 0B 0C 0D 0E 0F
      -- -- -- -- -- -- -- --  -- -- -- -- -- -- -- --
0000: 00                                                .               
```

#### Opcodes

```
  0: 0x0000 [0x00] END_REQSTACK()
```

### Event 103

#### Metadata

| Field        | Value   |
|--------------|---------|
| Entrypoint   | 0x0001  |
| Data Size    | 1 bytes |
| Instructions | 1       |

```
      00 01 02 03 04 05 06 07  08 09 0A 0B 0C 0D 0E 0F
      -- -- -- -- -- -- -- --  -- -- -- -- -- -- -- --
0000:    00                                              .              
```

#### Opcodes

```
  0: 0x0001 [0x00] END_REQSTACK()
```

### Event 105

#### Metadata

| Field        | Value   |
|--------------|---------|
| Entrypoint   | 0x0002  |
| Data Size    | 1 bytes |
| Instructions | 1       |

```
      00 01 02 03 04 05 06 07  08 09 0A 0B 0C 0D 0E 0F
      -- -- -- -- -- -- -- --  -- -- -- -- -- -- -- --
0000:       00                                            .             
```

#### Opcodes

```
  0: 0x0002 [0x00] END_REQSTACK()
```

### Event 106

#### Metadata

| Field        | Value   |
|--------------|---------|
| Entrypoint   | 0x0003  |
| Data Size    | 1 bytes |
| Instructions | 1       |

```
      00 01 02 03 04 05 06 07  08 09 0A 0B 0C 0D 0E 0F
      -- -- -- -- -- -- -- --  -- -- -- -- -- -- -- --
0000:          00                                          .            
```

#### Opcodes

```
  0: 0x0003 [0x00] END_REQSTACK()
```

### Event 121

#### Metadata

| Field        | Value    |
|--------------|----------|
| Entrypoint   | 0x0004   |
| Data Size    | 34 bytes |
| Instructions | 10       |

```
      00 01 02 03 04 05 06 07  08 09 0A 0B 0C 0D 0E 0F
      -- -- -- -- -- -- -- --  -- -- -- -- -- -- -- --
0000:             1E F0 FF FF  7F 1C 00 80 2B FE E1 05      ........+...
0010: 01 01 80 23 2B FE E1 05  01 02 80 23 2B FE E1 05  ...#+......#+...
0020: 01 03 80 23 21 00                                 ...#!.          
```

#### Opcodes

```
  0: 0x0004 [0x1E] EventEntity looks at LocalPlayer and starts talking
  1: 0x0009 [0x1C] WAIT(30* ticks)
  2: 0x000C [0x2B] Miah Riyuh (ID: 17162750/0x0105E1FE) [11527*]:
    → "What do you think you'rrre lookin' at, scum? You'd best turn tail and march out of Cobra territory if you wanna live to see tomorrow."
  3: 0x0013 [0x23] WAIT_FOR_DIALOG_INTERACTION
  4: 0x0014 [0x2B] Miah Riyuh (ID: 17162750/0x0105E1FE) [11528*]:
    → "Or maybe you'd like a private escort. My steel-tipped moccasins would be honored to show you the way out."
  5: 0x001B [0x23] WAIT_FOR_DIALOG_INTERACTION
  6: 0x001C [0x2B] Miah Riyuh (ID: 17162750/0x0105E1FE) [11530*]:
    → "I don't talk to no spies. Now move! Hssssss!"
  7: 0x0023 [0x23] WAIT_FOR_DIALOG_INTERACTION
  8: 0x0024 [0x21] END_EVENT
  9: 0x0025 [0x00] END_REQSTACK()
```

### Event 141

#### Metadata

| Field        | Value    |
|--------------|----------|
| Entrypoint   | 0x0026   |
| Data Size    | 18 bytes |
| Instructions | 6        |

```
      00 01 02 03 04 05 06 07  08 09 0A 0B 0C 0D 0E 0F
      -- -- -- -- -- -- -- --  -- -- -- -- -- -- -- --
0020:                   1E F0  FF FF 7F 1C 00 80 2B FE        ........+.
0030: E1 05 01 04 80 23 21 00                           .....#!.        
```

#### Opcodes

```
  0: 0x0026 [0x1E] EventEntity looks at LocalPlayer and starts talking
  1: 0x002B [0x1C] WAIT(30* ticks)
  2: 0x002E [0x2B] Miah Riyuh (ID: 17162750/0x0105E1FE) [11578*]:
    → "I told you once, and I don't like repeatin' myself. So if you know what's good for you, you'd best turn tail and march out of Cobra territory, double time."
  3: 0x0035 [0x23] WAIT_FOR_DIALOG_INTERACTION
  4: 0x0036 [0x21] END_EVENT
  5: 0x0037 [0x00] END_REQSTACK()
```

### Event 122

#### Metadata

| Field        | Value    |
|--------------|----------|
| Entrypoint   | 0x0038   |
| Data Size    | 39 bytes |
| Instructions | 11       |

```
      00 01 02 03 04 05 06 07  08 09 0A 0B 0C 0D 0E 0F
      -- -- -- -- -- -- -- --  -- -- -- -- -- -- -- --
0030:                          1E F0 FF FF 7F 1C 00 80          ........
0040: 03 02 10 05 80 2B FE E1  05 01 01 80 23 2B FE E1  .....+......#+..
0050: 05 01 02 80 23 2B FE E1  05 01 06 80 23 21 00     ....#+......#!. 
```

#### Opcodes

```
  0: 0x0038 [0x1E] EventEntity looks at LocalPlayer and starts talking
  1: 0x003D [0x1C] WAIT(30* ticks)
  2: 0x0040 [0x03] Work_Zone[2] = 923*
  3: 0x0045 [0x2B] Miah Riyuh (ID: 17162750/0x0105E1FE) [11527*]:
    → "What do you think you'rrre lookin' at, scum? You'd best turn tail and march out of Cobra territory if you wanna live to see tomorrow."
  4: 0x004C [0x23] WAIT_FOR_DIALOG_INTERACTION
  5: 0x004D [0x2B] Miah Riyuh (ID: 17162750/0x0105E1FE) [11528*]:
    → "Or maybe you'd like a private escort. My steel-tipped moccasins would be honored to show you the way out."
  6: 0x0054 [0x23] WAIT_FOR_DIALOG_INTERACTION
  7: 0x0055 [0x2B] Miah Riyuh (ID: 17162750/0x0105E1FE) [11529*]:
    → "I don't talk to no one unless they have a $3. Now move! Hssssss!"
  8: 0x005C [0x23] WAIT_FOR_DIALOG_INTERACTION
  9: 0x005D [0x21] END_EVENT
 10: 0x005E [0x00] END_REQSTACK()
```

### Event 104

#### Metadata

| Field        | Value    |
|--------------|----------|
| Entrypoint   | 0x005F   |
| Data Size    | 82 bytes |
| Instructions | 20       |

```
      00 01 02 03 04 05 06 07  08 09 0A 0B 0C 0D 0E 0F
      -- -- -- -- -- -- -- --  -- -- -- -- -- -- -- --
0050:                                               1E                 .
0060: F0 FF FF 7F 1C 00 80 03  01 10 07 80 03 02 10 08  ................
0070: 80 2B FE E1 05 01 09 80  23 2B FE E1 05 01 0A 80  .+......#+......
0080: 23 24 0B 80 07 80 07 80  25 02 00 10 07 80 00 94  #$......%.......
0090: 00 01 AF 00 02 00 10 0C  80 00 AF 00 03 01 10 0C  ................
00A0: 80 2B FE E1 05 01 0D 80  23 1C 0E 80 01 AF 00 21  .+......#......!
00B0: 00                                                .               
```

#### Opcodes

```
  0: 0x005F [0x1E] EventEntity looks at LocalPlayer and starts talking
  1: 0x0064 [0x1C] WAIT(30* ticks)
  2: 0x0067 [0x03] Work_Zone[1] = 0*
  3: 0x006C [0x03] Work_Zone[2] = 947*
  4: 0x0071 [0x2B] Miah Riyuh (ID: 17162750/0x0105E1FE) [11551*]:
    → "I told you to patch up three towers. It looks like you still have enough putty for [three/two/one] more. Get back out there before I change my mind about lettin' you join us!"
  5: 0x0078 [0x23] WAIT_FOR_DIALOG_INTERACTION
  6: 0x0079 [0x2B] Miah Riyuh (ID: 17162750/0x0105E1FE) [11552*]:
    → "Or maybe the task is a little too much for a groveling coward like you?"
  7: 0x0080 [0x23] WAIT_FOR_DIALOG_INTERACTION
  8: 0x0081 [0x24] CREATE_DIALOG(message_id=11553*, default_option=0*, option_flags=0*)
    → "Time to run home to mamma? [I'm not done just yet!/I can't take this anymore!]"
  9: 0x0088 [0x25] WAIT_DIALOG_SELECT()
 10: 0x0089 [0x02] IF !(Work_Zone[0] == 0*) GOTO 0x0094
 11: 0x0091 [0x01] GOTO 0x00AF
 12: 0x0094 [0x02] IF !(Work_Zone[0] == 1*) GOTO 0x00AF
 13: 0x009C [0x03] Work_Zone[1] = 1*
 14: 0x00A1 [0x2B] Miah Riyuh (ID: 17162750/0x0105E1FE) [11558*]:
    → "Second thoughts!? You really do have somethin' missing up there, don't you? I can't force you to do anything, but if you regain your senses, give me a holler."
 15: 0x00A8 [0x23] WAIT_FOR_DIALOG_INTERACTION
 16: 0x00A9 [0x1C] WAIT(60* ticks)
 17: 0x00AC [0x01] GOTO 0x00AF

SUBROUTINE_00AF:
 18: 0x00AF [0x21] END_EVENT
 19: 0x00B0 [0x00] END_REQSTACK()
```

### Event 107

#### Metadata

| Field        | Value    |
|--------------|----------|
| Entrypoint   | 0x00B1   |
| Data Size    | 18 bytes |
| Instructions | 6        |

```
      00 01 02 03 04 05 06 07  08 09 0A 0B 0C 0D 0E 0F
      -- -- -- -- -- -- -- --  -- -- -- -- -- -- -- --
00B0:    1E F0 FF FF 7F 1C 00  80 2B FE E1 05 01 0F 80   ........+......
00C0: 23 21 00                                          #!.             
```

#### Opcodes

```
  0: 0x00B1 [0x1E] EventEntity looks at LocalPlayer and starts talking
  1: 0x00B6 [0x1C] WAIT(30* ticks)
  2: 0x00B9 [0x2B] Miah Riyuh (ID: 17162750/0x0105E1FE) [11579*]:
    → "If it isn't <Player>! It's great to see you again! Now get out of my face before I decide to use your belly to test out my new knives."
  3: 0x00C0 [0x23] WAIT_FOR_DIALOG_INTERACTION
  4: 0x00C1 [0x21] END_EVENT
  5: 0x00C2 [0x00] END_REQSTACK()
```

### Event 44

#### Metadata

| Field        | Value    |
|--------------|----------|
| Entrypoint   | 0x00C3   |
| Data Size    | 26 bytes |
| Instructions | 8        |

```
      00 01 02 03 04 05 06 07  08 09 0A 0B 0C 0D 0E 0F
      -- -- -- -- -- -- -- --  -- -- -- -- -- -- -- --
00C0:          1E F0 FF FF 7F  1C 00 80 2B F8 FF FF 7F     ........+....
00D0: 10 80 23 2B F8 FF FF 7F  11 80 23 21 00           ..#+......#!.   
```

#### Opcodes

```
  0: 0x00C3 [0x1E] EventEntity looks at LocalPlayer and starts talking
  1: 0x00C8 [0x1C] WAIT(30* ticks)
  2: 0x00CB [0x2B] EventEntity [13498*]:
    → "What's that? You're on the prowl for a red-headed Hume girl with ears yea long?"
  3: 0x00D2 [0x23] WAIT_FOR_DIALOG_INTERACTION
  4: 0x00D3 [0x2B] EventEntity [13499*]:
    → "Nope, never seen her like. We got Mithran cubs aplenty, though, if they're all the same to you."
  5: 0x00DA [0x23] WAIT_FOR_DIALOG_INTERACTION
  6: 0x00DB [0x21] END_EVENT
  7: 0x00DC [0x00] END_REQSTACK()
```

### Event 128

#### Metadata

| Field        | Value   |
|--------------|---------|
| Entrypoint   | 0x00DD  |
| Data Size    | 7 bytes |
| Instructions | 2       |

```
      00 01 02 03 04 05 06 07  08 09 0A 0B 0C 0D 0E 0F
      -- -- -- -- -- -- -- --  -- -- -- -- -- -- -- --
00D0:                                         92 01 F8               ...
00E0: FF FF 7F 00                                       ....            
```

#### Opcodes

```
  0: 0x00DD [0x92] EventEntity->Render.Flags3 ^= 0x01
  1: 0x00E3 [0x00] END_REQSTACK()
```

### Event 129

#### Metadata

| Field        | Value   |
|--------------|---------|
| Entrypoint   | 0x00E4  |
| Data Size    | 7 bytes |
| Instructions | 2       |

```
      00 01 02 03 04 05 06 07  08 09 0A 0B 0C 0D 0E 0F
      -- -- -- -- -- -- -- --  -- -- -- -- -- -- -- --
00E0:             92 01 F8 FF  FF 7F 00                     .......     
```

#### Opcodes

```
  0: 0x00E4 [0x92] EventEntity->Render.Flags3 ^= 0x01
  1: 0x00EA [0x00] END_REQSTACK()
```

### Event 133

#### Metadata

| Field        | Value   |
|--------------|---------|
| Entrypoint   | 0x00EB  |
| Data Size    | 7 bytes |
| Instructions | 2       |

```
      00 01 02 03 04 05 06 07  08 09 0A 0B 0C 0D 0E 0F
      -- -- -- -- -- -- -- --  -- -- -- -- -- -- -- --
00E0:                                   92 01 F8 FF FF             .....
00F0: 7F 00                                             ..              
```

#### Opcodes

```
  0: 0x00EB [0x92] EventEntity->Render.Flags3 ^= 0x01
  1: 0x00F1 [0x00] END_REQSTACK()
```

### Event 134

#### Metadata

| Field        | Value   |
|--------------|---------|
| Entrypoint   | 0x00F2  |
| Data Size    | 7 bytes |
| Instructions | 2       |

```
      00 01 02 03 04 05 06 07  08 09 0A 0B 0C 0D 0E 0F
      -- -- -- -- -- -- -- --  -- -- -- -- -- -- -- --
00F0:       92 01 F8 FF FF 7F  00                         .......       
```

#### Opcodes

```
  0: 0x00F2 [0x92] EventEntity->Render.Flags3 ^= 0x01
  1: 0x00F8 [0x00] END_REQSTACK()
```

### Event 168

#### Metadata

| Field        | Value   |
|--------------|---------|
| Entrypoint   | 0x00F9  |
| Data Size    | 7 bytes |
| Instructions | 2       |

```
      00 01 02 03 04 05 06 07  08 09 0A 0B 0C 0D 0E 0F
      -- -- -- -- -- -- -- --  -- -- -- -- -- -- -- --
00F0:                             92 01 F8 FF FF 7F 00           .......
```

#### Opcodes

```
  0: 0x00F9 [0x92] EventEntity->Render.Flags3 ^= 0x01
  1: 0x00FF [0x00] END_REQSTACK()
```

### Event 158

#### Metadata

| Field        | Value   |
|--------------|---------|
| Entrypoint   | 0x0100  |
| Data Size    | 7 bytes |
| Instructions | 2       |

```
      00 01 02 03 04 05 06 07  08 09 0A 0B 0C 0D 0E 0F
      -- -- -- -- -- -- -- --  -- -- -- -- -- -- -- --
0100: 92 01 F8 FF FF 7F 00                              .......         
```

#### Opcodes

```
  0: 0x0100 [0x92] EventEntity->Render.Flags3 ^= 0x01
  1: 0x0106 [0x00] END_REQSTACK()
```

### Event 31

#### Metadata

| Field        | Value   |
|--------------|---------|
| Entrypoint   | 0x0107  |
| Data Size    | 1 bytes |
| Instructions | 1       |

```
      00 01 02 03 04 05 06 07  08 09 0A 0B 0C 0D 0E 0F
      -- -- -- -- -- -- -- --  -- -- -- -- -- -- -- --
0100:                      00                                  .        
```

#### Opcodes

```
  0: 0x0107 [0x00] END_REQSTACK()
```

### Event 32

#### Metadata

| Field        | Value   |
|--------------|---------|
| Entrypoint   | 0x0108  |
| Data Size    | 1 bytes |
| Instructions | 1       |

```
      00 01 02 03 04 05 06 07  08 09 0A 0B 0C 0D 0E 0F
      -- -- -- -- -- -- -- --  -- -- -- -- -- -- -- --
0100:                          00                               .       
```

#### Opcodes

```
  0: 0x0108 [0x00] END_REQSTACK()
```

### Event 42

#### Metadata

| Field        | Value   |
|--------------|---------|
| Entrypoint   | 0x0109  |
| Data Size    | 1 bytes |
| Instructions | 1       |

```
      00 01 02 03 04 05 06 07  08 09 0A 0B 0C 0D 0E 0F
      -- -- -- -- -- -- -- --  -- -- -- -- -- -- -- --
0100:                             00                             .      
```

#### Opcodes

```
  0: 0x0109 [0x00] END_REQSTACK()
```

### Event 43

#### Metadata

| Field        | Value   |
|--------------|---------|
| Entrypoint   | 0x010A  |
| Data Size    | 1 bytes |
| Instructions | 1       |

```
      00 01 02 03 04 05 06 07  08 09 0A 0B 0C 0D 0E 0F
      -- -- -- -- -- -- -- --  -- -- -- -- -- -- -- --
0100:                                00                           .     
```

#### Opcodes

```
  0: 0x010A [0x00] END_REQSTACK()
```

### Event 65535.1

#### Metadata

| Field        | Value    |
|--------------|----------|
| Entrypoint   | 0x010B   |
| Data Size    | 21 bytes |
| Instructions | 2        |

```
      00 01 02 03 04 05 06 07  08 09 0A 0B 0C 0D 0E 0F
      -- -- -- -- -- -- -- --  -- -- -- -- -- -- -- --
0100:                                   B6 0B 12 80 07             .....
0110: 80 13 80 14 80 14 80 15  80 14 80 16 80 07 80 00  ................
```

#### Opcodes

```
  0: 0x010B [0xB6] ENTITY_APPEARANCE_HANDLER(case=Full entity look, race=7*, hair=0*, head=137*, body=16*, hands=16*, legs=110*, feet=16*, main=283*, sub=0*)
  1: 0x011F [0x00] END_REQSTACK()
```

### Event 65535.2

#### Metadata

| Field        | Value    |
|--------------|----------|
| Entrypoint   | 0x0120   |
| Data Size    | 21 bytes |
| Instructions | 2        |

```
      00 01 02 03 04 05 06 07  08 09 0A 0B 0C 0D 0E 0F
      -- -- -- -- -- -- -- --  -- -- -- -- -- -- -- --
0120: B6 0B 12 80 07 80 13 80  14 80 14 80 15 80 14 80  ................
0130: 16 80 17 80 00                                    .....           
```

#### Opcodes

```
  0: 0x0120 [0xB6] ENTITY_APPEARANCE_HANDLER(case=Full entity look, race=7*, hair=0*, head=137*, body=16*, hands=16*, legs=110*, feet=16*, main=283*, sub=36*)
  1: 0x0134 [0x00] END_REQSTACK()
```

### Event 65535.3

#### Metadata

| Field        | Value   |
|--------------|---------|
| Entrypoint   | 0x0135  |
| Data Size    | 1 bytes |
| Instructions | 1       |

```
      00 01 02 03 04 05 06 07  08 09 0A 0B 0C 0D 0E 0F
      -- -- -- -- -- -- -- --  -- -- -- -- -- -- -- --
0130:                00                                      .          
```

#### Opcodes

```
  0: 0x0135 [0x00] END_REQSTACK()
```

### Event 65535.4

#### Metadata

| Field        | Value    |
|--------------|----------|
| Entrypoint   | 0x0136   |
| Data Size    | 18 bytes |
| Instructions | 4        |

```
      00 01 02 03 04 05 06 07  08 09 0A 0B 0C 0D 0E 0F
      -- -- -- -- -- -- -- --  -- -- -- -- -- -- -- --
0130:                   22 00  2F 00 F8 FF FF 7F 6C F8        "./.....l.
0140: FF FF 7F 07 80 0C 80 00                           ........        
```

#### Opcodes

```
  0: 0x0136 [0x22] ENTITY_HIDE_FLAG(enabled=0x00)
  1: 0x0138 [0x2F] EventEntity->Render.Flags0 &= ~0x80000 // Bit 19
  2: 0x013E [0x6C] FADE_ENTITY_COLOR(entity_id=EventEntity, end_alpha=0*, fade_time=1*)
  3: 0x0147 [0x00] END_REQSTACK()
```

### Event 65535.5

#### Metadata

| Field        | Value    |
|--------------|----------|
| Entrypoint   | 0x0148   |
| Data Size    | 10 bytes |
| Instructions | 2        |

```
      00 01 02 03 04 05 06 07  08 09 0A 0B 0C 0D 0E 0F
      -- -- -- -- -- -- -- --  -- -- -- -- -- -- -- --
0140:                          6C F8 FF FF 7F 18 80 0C          l.......
0150: 80 00                                             ..              
```

#### Opcodes

```
  0: 0x0148 [0x6C] FADE_ENTITY_COLOR(entity_id=EventEntity, end_alpha=128*, fade_time=1*)
  1: 0x0151 [0x00] END_REQSTACK()
```

### Event 65535.6

#### Metadata

| Field        | Value   |
|--------------|---------|
| Entrypoint   | 0x0152  |
| Data Size    | 9 bytes |
| Instructions | 3       |

```
      00 01 02 03 04 05 06 07  08 09 0A 0B 0C 0D 0E 0F
      -- -- -- -- -- -- -- --  -- -- -- -- -- -- -- --
0150:       22 00 2F 00 F8 FF  FF 7F 00                   "./......     
```

#### Opcodes

```
  0: 0x0152 [0x22] ENTITY_HIDE_FLAG(enabled=0x00)
  1: 0x0154 [0x2F] EventEntity->Render.Flags0 &= ~0x80000 // Bit 19
  2: 0x015A [0x00] END_REQSTACK()
```

### Event 65535.7

#### Metadata

| Field        | Value   |
|--------------|---------|
| Entrypoint   | 0x015B  |
| Data Size    | 9 bytes |
| Instructions | 3       |

```
      00 01 02 03 04 05 06 07  08 09 0A 0B 0C 0D 0E 0F
      -- -- -- -- -- -- -- --  -- -- -- -- -- -- -- --
0150:                                   22 01 2F 01 F8             "./..
0160: FF FF 7F 00                                       ....            
```

#### Opcodes

```
  0: 0x015B [0x22] ENTITY_HIDE_FLAG(enabled=0x01)
  1: 0x015D [0x2F] EventEntity->Render.Flags0 |= 0x80000 // Bit 19
  2: 0x0163 [0x00] END_REQSTACK()
```

### Event 65535.8

#### Metadata

| Field        | Value    |
|--------------|----------|
| Entrypoint   | 0x0164   |
| Data Size    | 10 bytes |
| Instructions | 2        |

```
      00 01 02 03 04 05 06 07  08 09 0A 0B 0C 0D 0E 0F
      -- -- -- -- -- -- -- --  -- -- -- -- -- -- -- --
0160:             6C F8 FF FF  7F 07 80 0C 80 00            l.........  
```

#### Opcodes

```
  0: 0x0164 [0x6C] FADE_ENTITY_COLOR(entity_id=EventEntity, end_alpha=0*, fade_time=1*)
  1: 0x016D [0x00] END_REQSTACK()
```

### Event 65535.9

#### Metadata

| Field        | Value    |
|--------------|----------|
| Entrypoint   | 0x016E   |
| Data Size    | 10 bytes |
| Instructions | 2        |

```
      00 01 02 03 04 05 06 07  08 09 0A 0B 0C 0D 0E 0F
      -- -- -- -- -- -- -- --  -- -- -- -- -- -- -- --
0160:                                            6C F8                l.
0170: FF FF 7F 18 80 0C 80 00                           ........        
```

#### Opcodes

```
  0: 0x016E [0x6C] FADE_ENTITY_COLOR(entity_id=EventEntity, end_alpha=128*, fade_time=1*)
  1: 0x0177 [0x00] END_REQSTACK()
```

### Event 65535.10

#### Metadata

| Field        | Value     |
|--------------|-----------|
| Entrypoint   | 0x0178    |
| Data Size    | 110 bytes |
| Instructions | 23        |

```
      00 01 02 03 04 05 06 07  08 09 0A 0B 0C 0D 0E 0F
      -- -- -- -- -- -- -- --  -- -- -- -- -- -- -- --
0170:                          59 04 F8 FF FF 7F 19 80          Y.......
0180: 1F 00 1A 80 1B 80 1C 80  1F 01 1F 00 1D 80 1E 80  ................
0190: 1C 80 1F 01 1F 00 1F 80  20 80 1C 80 1F 01 1F 00  ........ .......
01A0: 21 80 22 80 1C 80 1F 01  1F 00 23 80 24 80 1C 80  !.".......#.$...
01B0: 1F 01 1F 00 25 80 26 80  27 80 1F 01 1F 00 28 80  ....%.&.'.....(.
01C0: 29 80 2A 80 1F 01 1F 00  2B 80 2C 80 2A 80 1F 01  ).*.....+.,.*...
01D0: 1F 00 2D 80 2E 80 2F 80  1F 01 1F 00 30 80 31 80  ..-.../.....0.1.
01E0: 2F 80 1F 01 6F 00                                 /...o.          
```

#### Opcodes

```
  0: 0x0178 [0x59] UPDATE_ENTITY_DATA: Set EventEntity main speed = 40* * 0.1
  1: 0x0180 [0x1F] MOVE_ENTITY: EventEntity moves to X=1.068*, Z=21.160*, Y=-0.999*
  2: 0x0188 [0x1F] MOVE_ENTITY: Update entity position (mode=1)
  3: 0x018A [0x1F] MOVE_ENTITY: EventEntity moves to X=-0.065*, Z=23.533*, Y=-0.999*
  4: 0x0192 [0x1F] MOVE_ENTITY: Update entity position (mode=1)
  5: 0x0194 [0x1F] MOVE_ENTITY: EventEntity moves to X=-2.149*, Z=26.050*, Y=-0.999*
  6: 0x019C [0x1F] MOVE_ENTITY: Update entity position (mode=1)
  7: 0x019E [0x1F] MOVE_ENTITY: EventEntity moves to X=-5.938*, Z=30.631*, Y=-0.999*
  8: 0x01A6 [0x1F] MOVE_ENTITY: Update entity position (mode=1)
  9: 0x01A8 [0x1F] MOVE_ENTITY: EventEntity moves to X=-11.357*, Z=34.296*, Y=-0.999*
 10: 0x01B0 [0x1F] MOVE_ENTITY: Update entity position (mode=1)
 11: 0x01B2 [0x1F] MOVE_ENTITY: EventEntity moves to X=-18.980*, Z=36.590*, Y=-2.138*
 12: 0x01BA [0x1F] MOVE_ENTITY: Update entity position (mode=1)
 13: 0x01BC [0x1F] MOVE_ENTITY: EventEntity moves to X=-28.561*, Z=39.282*, Y=-3.499*
 14: 0x01C4 [0x1F] MOVE_ENTITY: Update entity position (mode=1)
 15: 0x01C6 [0x1F] MOVE_ENTITY: EventEntity moves to X=-36.330*, Z=41.255*, Y=-3.499*
 16: 0x01CE [0x1F] MOVE_ENTITY: Update entity position (mode=1)
 17: 0x01D0 [0x1F] MOVE_ENTITY: EventEntity moves to X=-47.837*, Z=43.137*, Y=-3.500*
 18: 0x01D8 [0x1F] MOVE_ENTITY: Update entity position (mode=1)
 19: 0x01DA [0x1F] MOVE_ENTITY: EventEntity moves to X=-50.645*, Z=44.618*, Y=-3.500*
 20: 0x01E2 [0x1F] MOVE_ENTITY: Update entity position (mode=1)
 21: 0x01E4 [0x6F] WAIT_FRAME_DELAY: Yield until WaitTime reaches zero
 22: 0x01E5 [0x00] END_REQSTACK()
```

### Event 65535.11

#### Metadata

| Field        | Value    |
|--------------|----------|
| Entrypoint   | 0x01E6   |
| Data Size    | 31 bytes |
| Instructions | 8        |

```
      00 01 02 03 04 05 06 07  08 09 0A 0B 0C 0D 0E 0F
      -- -- -- -- -- -- -- --  -- -- -- -- -- -- -- --
01E0:                   59 04  F8 FF FF 7F 19 80 1F 00        Y.........
01F0: 30 80 31 80 2F 80 1F 01  6F 1F 00 32 80 33 80 2A  0.1./...o..2.3.*
0200: 80 1F 01 6F 00                                    ...o.           
```

#### Opcodes

```
  0: 0x01E6 [0x59] UPDATE_ENTITY_DATA: Set EventEntity main speed = 40* * 0.1
  1: 0x01EE [0x1F] MOVE_ENTITY: EventEntity moves to X=-50.645*, Z=44.618*, Y=-3.500*
  2: 0x01F6 [0x1F] MOVE_ENTITY: Update entity position (mode=1)
  3: 0x01F8 [0x6F] WAIT_FRAME_DELAY: Yield until WaitTime reaches zero
  4: 0x01F9 [0x1F] MOVE_ENTITY: EventEntity moves to X=-50.540*, Z=45.006*, Y=-3.499*
  5: 0x0201 [0x1F] MOVE_ENTITY: Update entity position (mode=1)
  6: 0x0203 [0x6F] WAIT_FRAME_DELAY: Yield until WaitTime reaches zero
  7: 0x0204 [0x00] END_REQSTACK()
```

### Event 65535.12

#### Metadata

| Field        | Value    |
|--------------|----------|
| Entrypoint   | 0x0205   |
| Data Size    | 50 bytes |
| Instructions | 11       |

```
      00 01 02 03 04 05 06 07  08 09 0A 0B 0C 0D 0E 0F
      -- -- -- -- -- -- -- --  -- -- -- -- -- -- -- --
0200:                59 04 F8  FF FF 7F 34 80 1F 00 35       Y.....4...5
0210: 80 36 80 2A 80 1F 01 1F  00 37 80 38 80 2A 80 1F  .6.*.....7.8.*..
0220: 01 1F 00 39 80 3A 80 2A  80 1F 01 1F 00 3B 80 3C  ...9.:.*.....;.<
0230: 80 2A 80 1F 01 6F 00                              .*...o.         
```

#### Opcodes

```
  0: 0x0205 [0x59] UPDATE_ENTITY_DATA: Set EventEntity main speed = 13* * 0.1
  1: 0x020D [0x1F] MOVE_ENTITY: EventEntity moves to X=-52.265*, Z=43.584*, Y=-3.499*
  2: 0x0215 [0x1F] MOVE_ENTITY: Update entity position (mode=1)
  3: 0x0217 [0x1F] MOVE_ENTITY: EventEntity moves to X=-53.224*, Z=46.410*, Y=-3.499*
  4: 0x021F [0x1F] MOVE_ENTITY: Update entity position (mode=1)
  5: 0x0221 [0x1F] MOVE_ENTITY: EventEntity moves to X=-51.390*, Z=49.730*, Y=-3.499*
  6: 0x0229 [0x1F] MOVE_ENTITY: Update entity position (mode=1)
  7: 0x022B [0x1F] MOVE_ENTITY: EventEntity moves to X=-50.650*, Z=51.920*, Y=-3.499*
  8: 0x0233 [0x1F] MOVE_ENTITY: Update entity position (mode=1)
  9: 0x0235 [0x6F] WAIT_FRAME_DELAY: Yield until WaitTime reaches zero
 10: 0x0236 [0x00] END_REQSTACK()
```

### Event 65535.13

#### Metadata

| Field        | Value    |
|--------------|----------|
| Entrypoint   | 0x0237   |
| Data Size    | 20 bytes |
| Instructions | 5        |

```
      00 01 02 03 04 05 06 07  08 09 0A 0B 0C 0D 0E 0F
      -- -- -- -- -- -- -- --  -- -- -- -- -- -- -- --
0230:                      59  04 F8 FF FF 7F 34 80 1F         Y.....4..
0240: 00 3D 80 3E 80 2F 80 1F  01 6F 00                 .=.>./...o.     
```

#### Opcodes

```
  0: 0x0237 [0x59] UPDATE_ENTITY_DATA: Set EventEntity main speed = 13* * 0.1
  1: 0x023F [0x1F] MOVE_ENTITY: EventEntity moves to X=-51.449*, Z=46.600*, Y=-3.500*
  2: 0x0247 [0x1F] MOVE_ENTITY: Update entity position (mode=1)
  3: 0x0249 [0x6F] WAIT_FRAME_DELAY: Yield until WaitTime reaches zero
  4: 0x024A [0x00] END_REQSTACK()
```

### Event 65535.14

#### Metadata

| Field        | Value    |
|--------------|----------|
| Entrypoint   | 0x024B   |
| Data Size    | 29 bytes |
| Instructions | 6        |

```
      00 01 02 03 04 05 06 07  08 09 0A 0B 0C 0D 0E 0F
      -- -- -- -- -- -- -- --  -- -- -- -- -- -- -- --
0240:                                   59 04 F8 FF FF             Y....
0250: 7F 19 80 1F 00 3F 80 40  80 41 80 1F 01 6F 4A F8  .....?.@.A...oJ.
0260: FF FF 7F FF E1 05 01 00                           ........        
```

#### Opcodes

```
  0: 0x024B [0x59] UPDATE_ENTITY_DATA: Set EventEntity main speed = 40* * 0.1
  1: 0x0253 [0x1F] MOVE_ENTITY: EventEntity moves to X=1.985*, Z=14.485*, Y=-1.000*
  2: 0x025B [0x1F] MOVE_ENTITY: Update entity position (mode=1)
  3: 0x025D [0x6F] WAIT_FRAME_DELAY: Yield until WaitTime reaches zero
  4: 0x025E [0x4A] EventEntity looks at Dhea Prandoleh (ID: 17162751/0x0105E1FF)
  5: 0x0267 [0x00] END_REQSTACK()
```

### Event 65535.15

#### Metadata

| Field        | Value    |
|--------------|----------|
| Entrypoint   | 0x0268   |
| Data Size    | 29 bytes |
| Instructions | 6        |

```
      00 01 02 03 04 05 06 07  08 09 0A 0B 0C 0D 0E 0F
      -- -- -- -- -- -- -- --  -- -- -- -- -- -- -- --
0260:                          59 04 F8 FF FF 7F 19 80          Y.......
0270: 1F 00 42 80 43 80 1C 80  1F 01 6F 4A F8 FF FF 7F  ..B.C.....oJ....
0280: FF E1 05 01 00                                    .....           
```

#### Opcodes

```
  0: 0x0268 [0x59] UPDATE_ENTITY_DATA: Set EventEntity main speed = 40* * 0.1
  1: 0x0270 [0x1F] MOVE_ENTITY: EventEntity moves to X=0.920*, Z=14.027*, Y=-0.999*
  2: 0x0278 [0x1F] MOVE_ENTITY: Update entity position (mode=1)
  3: 0x027A [0x6F] WAIT_FRAME_DELAY: Yield until WaitTime reaches zero
  4: 0x027B [0x4A] EventEntity looks at Dhea Prandoleh (ID: 17162751/0x0105E1FF)
  5: 0x0284 [0x00] END_REQSTACK()
```
