# 17162901 - 02

## Common Data

| Field            | Value                        |
|------------------|------------------------------|
| Zone             | Windurst Waters [S] (ID: 94) |
| Block Size       | 2800 bytes                   |
| Total Events     | 45                           |
| References Count | 172                          |

## List of Events

| Event ID                   | Entrypoint   |   Size |   Instructions |
|----------------------------|--------------|--------|----------------|
| [65535](#event-65535)      | 0x0000       |      1 |              1 |
| [165](#event-165)          | 0x0001       |      1 |              1 |
| [168](#event-168)          | 0x0002       |      1 |              1 |
| [65535.1](#event-655351)   | 0x0003       |     11 |              3 |
| [65535.2](#event-655352)   | 0x000E       |     24 |              6 |
| [65535.3](#event-655353)   | 0x0026       |     22 |              6 |
| [65535.4](#event-655354)   | 0x003C       |     11 |              3 |
| [65535.5](#event-655355)   | 0x0047       |     11 |              3 |
| [65535.6](#event-655356)   | 0x0052       |     11 |              3 |
| [65535.7](#event-655357)   | 0x005D       |     11 |              3 |
| [65535.8](#event-655358)   | 0x0068       |      1 |              1 |
| [65535.9](#event-655359)   | 0x0069       |     18 |              4 |
| [65535.10](#event-6553510) | 0x007B       |     10 |              2 |
| [65535.11](#event-6553511) | 0x0085       |      9 |              3 |
| [65535.12](#event-6553512) | 0x008E       |      9 |              3 |
| [65535.13](#event-6553513) | 0x0097       |     10 |              2 |
| [65535.14](#event-6553514) | 0x00A1       |     10 |              2 |
| [65535.15](#event-6553515) | 0x00AB       |     22 |              3 |
| [65535.16](#event-6553516) | 0x00C1       |    167 |             35 |
| [65535.17](#event-6553517) | 0x0168       |    186 |             38 |
| [65535.18](#event-6553518) | 0x0222       |     83 |             18 |
| [65535.19](#event-6553519) | 0x0275       |    154 |             32 |
| [65535.20](#event-6553520) | 0x030F       |    167 |             35 |
| [65535.21](#event-6553521) | 0x03B6       |     69 |             15 |
| [65535.22](#event-6553522) | 0x03FB       |     38 |              9 |
| [65535.23](#event-6553523) | 0x0421       |     38 |              9 |
| [65535.24](#event-6553524) | 0x0447       |     48 |             11 |
| [65535.25](#event-6553525) | 0x0477       |     19 |              4 |
| [65535.26](#event-6553526) | 0x048A       |     22 |              5 |
| [65535.27](#event-6553527) | 0x04A0       |     22 |              5 |
| [65535.28](#event-6553528) | 0x04B6       |     13 |              5 |
| [65535.29](#event-6553529) | 0x04C3       |    221 |             26 |
| [65535.30](#event-6553530) | 0x05A0       |     76 |              8 |
| [65535.31](#event-6553531) | 0x05EC       |     49 |              5 |
| [65535.32](#event-6553532) | 0x061D       |     29 |              6 |
| [65535.33](#event-6553533) | 0x063A       |     49 |              7 |
| [65535.34](#event-6553534) | 0x066B       |     20 |              5 |
| [65535.35](#event-6553535) | 0x067F       |     47 |              6 |
| [65535.36](#event-6553536) | 0x06AE       |     21 |              3 |
| [65535.37](#event-6553537) | 0x06C3       |    161 |             17 |
| [65535.38](#event-6553538) | 0x0764       |     20 |              5 |
| [20](#event-20)            | 0x0778       |      1 |              1 |
| [23](#event-23)            | 0x0779       |      1 |              1 |
| [24](#event-24)            | 0x077A       |      1 |              1 |
| [25](#event-25)            | 0x077B       |      1 |              1 |

## DAT References (imed_data)

|   Index | Hex Value   |   Dec Value |
|---------|-------------|-------------|
|       0 | 0x24F0      |        9456 |
|       1 | 0x2682      |        9858 |
|       2 | 0xFFFF9977  |  4294941047 |
|       3 | 0xFFFFDE3C  |  4294958652 |
|       4 | 0x1DB7      |        7607 |
|       5 | 0xFFFF9C64  |  4294941796 |
|       6 | 0x0005      |           5 |
|       7 | 0xFFFFED1B  |  4294962459 |
|       8 | 0x05D1      |        1489 |
|       9 | 0xFFFF9C65  |  4294941797 |
|      10 | 0x1A04      |        6660 |
|      11 | 0x081E      |        2078 |
|      12 | 0x11F1      |        4593 |
|      13 | 0xFFFFB443  |  4294947907 |
|      14 | 0x01F3      |         499 |
|      15 | 0x2843      |       10307 |
|      16 | 0x026E      |         622 |
|      17 | 0x02ED      |         749 |
|      18 | 0xFFFFFA54  |  4294965844 |
|      19 | 0x5433      |       21555 |
|      20 | 0xFFFFFC18  |  4294966296 |
|      21 | 0xFFFFE9C1  |  4294961601 |
|      22 | 0x2E9C      |       11932 |
|      23 | 0x0000      |           0 |
|      24 | 0x0001      |           1 |
|      25 | 0x0080      |         128 |
|      26 | 0x0004      |           4 |
|      27 | 0x001E      |          30 |
|      28 | 0x0050      |          80 |
|      29 | 0x01CB      |         459 |
|      30 | 0xC01D      |       49181 |
|      31 | 0xFFFFF61D  |  4294964765 |
|      32 | 0xB4CD      |       46285 |
|      33 | 0xFFFFE4A1  |  4294960289 |
|      34 | 0xA1E9      |       41449 |
|      35 | 0xFFFFCB4E  |  4294953806 |
|      36 | 0x99E9      |       39401 |
|      37 | 0xFFFF383B  |  4294916155 |
|      38 | 0x975A      |       38746 |
|      39 | 0xFFFFF255  |  4294963797 |
|      40 | 0xFFFF0950  |  4294904144 |
|      41 | 0xA6EB      |       42731 |
|      42 | 0xFFFEE28D  |  4294894221 |
|      43 | 0xCA5B      |       51803 |
|      44 | 0xFFFECCEB  |  4294888683 |
|      45 | 0xE7E4      |       59364 |
|      46 | 0xFFFED4DC  |  4294890716 |
|      47 | 0x12692     |       75410 |
|      48 | 0xFFFF05FC  |  4294903292 |
|      49 | 0x13DD1     |       81361 |
|      50 | 0xFFFFEC78  |  4294962296 |
|      51 | 0xFFFF3FE9  |  4294918121 |
|      52 | 0x14635     |       83509 |
|      53 | 0xFFFFEC79  |  4294962297 |
|      54 | 0xFFFF58F1  |  4294924529 |
|      55 | 0x156CB     |       87755 |
|      56 | 0xFFFF5F95  |  4294926229 |
|      57 | 0x16818     |       92184 |
|      58 | 0xFFFF633B  |  4294927163 |
|      59 | 0x28E9B     |      167579 |
|      60 | 0xFFFFEC61  |  4294962273 |
|      61 | 0x0096      |         150 |
|      62 | 0x004F      |          79 |
|      63 | 0xFFFFFD21  |  4294966561 |
|      64 | 0xCD5B      |       52571 |
|      65 | 0xFFFFF472  |  4294964338 |
|      66 | 0xC585      |       50565 |
|      67 | 0xFFFFE64E  |  4294960718 |
|      68 | 0xAABD      |       43709 |
|      69 | 0xFFFFD9CC  |  4294957516 |
|      70 | 0x9B38      |       39736 |
|      71 | 0xFFFFCCF6  |  4294954230 |
|      72 | 0x9802      |       38914 |
|      73 | 0xFFFF64E4  |  4294927588 |
|      74 | 0x15EE3     |       89827 |
|      75 | 0xFFFF68EB  |  4294928619 |
|      76 | 0x16CEC     |       93420 |
|      77 | 0xFFFF6A76  |  4294929014 |
|      78 | 0x1835B     |       99163 |
|      79 | 0x0019      |          25 |
|      80 | 0xFFFF9D93  |  4294942099 |
|      81 | 0x153C3     |       86979 |
|      82 | 0x004E      |          78 |
|      83 | 0xFFFF7F27  |  4294934311 |
|      84 | 0x170BF     |       94399 |
|      85 | 0xFFFF6EA5  |  4294930085 |
|      86 | 0x181BB     |       98747 |
|      87 | 0xFFFF6986  |  4294928774 |
|      88 | 0x1A277     |      107127 |
|      89 | 0xFFFFE83A  |  4294961210 |
|      90 | 0x79A0      |       31136 |
|      91 | 0xFFFFFC19  |  4294966297 |
|      92 | 0xFFFFE0B0  |  4294959280 |
|      93 | 0x893B      |       35131 |
|      94 | 0xFFFFD29F  |  4294955679 |
|      95 | 0x9856      |       38998 |
|      96 | 0x00B4      |         180 |
|      97 | 0xFFFFF934  |  4294965556 |
|      98 | 0x7B9B      |       31643 |
|      99 | 0xFFFFEFB1  |  4294963121 |
|     100 | 0x9085      |       36997 |
|     101 | 0xFFFFDE20  |  4294958624 |
|     102 | 0xA00A      |       40970 |
|     103 | 0x0168      |         360 |
|     104 | 0x000F      |          15 |
|     105 | 0xFFFF96A6  |  4294940326 |
|     106 | 0xF877      |       63607 |
|     107 | 0xFFFFF254  |  4294963796 |
|     108 | 0xFFFF9B5E  |  4294941534 |
|     109 | 0xF61A      |       63002 |
|     110 | 0x0028      |          40 |
|     111 | 0xFFFF46D2  |  4294919890 |
|     112 | 0xE60E      |       58894 |
|     113 | 0xFFFF2186  |  4294910342 |
|     114 | 0xD0D7      |       53463 |
|     115 | 0x001B      |          27 |
|     116 | 0xFFFF8952  |  4294936914 |
|     117 | 0x12369     |       74601 |
|     118 | 0xFFFFF20A  |  4294963722 |
|     119 | 0xFFFF2B43  |  4294912835 |
|     120 | 0x10F50     |       69456 |
|     121 | 0xFFFF8D73  |  4294937971 |
|     122 | 0x1266B     |       75371 |
|     123 | 0xFFFFF237  |  4294963767 |
|     124 | 0xFFFF3027  |  4294914087 |
|     125 | 0x113AF     |       70575 |
|     126 | 0xFFFF938A  |  4294939530 |
|     127 | 0x11F80     |       73600 |
|     128 | 0xFFFFF2AA  |  4294963882 |
|     129 | 0xFFFF3332  |  4294914866 |
|     130 | 0x11FA6     |       73638 |
|     131 | 0xFFFF2C4F  |  4294913103 |
|     132 | 0x1196C     |       72044 |
|     133 | 0x002A      |          42 |
|     134 | 0xFFFFA76A  |  4294944618 |
|     135 | 0x13DC9     |       81353 |
|     136 | 0x003C      |          60 |
|     137 | 0x0078      |         120 |
|     138 | 0x0258      |         600 |
|     139 | 0x0215      |         533 |
|     140 | 0x012C      |         300 |
|     141 | 0xFFFF11C3  |  4294906307 |
|     142 | 0x1126E     |       70254 |
|     143 | 0x0FFD      |        4093 |
|     144 | 0x0031      |          49 |
|     145 | 0x0508      |        1288 |
|     146 | 0xFFFFEB50  |  4294962000 |
|     147 | 0x3028      |       12328 |
|     148 | 0x00A0      |         160 |
|     149 | 0x0055      |          85 |
|     150 | 0x0007      |           7 |
|     151 | 0xFFFFFECD  |  4294966989 |
|     152 | 0x33C0      |       13248 |
|     153 | 0x0023      |          35 |
|     154 | 0xFFFFFC12  |  4294966290 |
|     155 | 0x3F62      |       16226 |
|     156 | 0x004B      |          75 |
|     157 | 0x00C9      |         201 |
|     158 | 0xFFFFFBDE  |  4294966238 |
|     159 | 0x4419      |       17433 |
|     160 | 0x0408      |        1032 |
|     161 | 0x3D40      |       15680 |
|     162 | 0x09C7      |        2503 |
|     163 | 0x0506      |        1286 |
|     164 | 0x00B5      |         181 |
|     165 | 0x0056      |          86 |
|     166 | 0x0189      |         393 |
|     167 | 0x0BD5      |        3029 |
|     168 | 0x0024      |          36 |
|     169 | 0xFFFFE1FB  |  4294959611 |
|     170 | 0x1E8B      |        7819 |
|     171 | 0xFFFFFBFE  |  4294966270 |

## Events

### Event 65535

#### Metadata

| Field        | Value   |
|--------------|---------|
| Entrypoint   | 0x0000  |
| Data Size    | 1 bytes |
| Instructions | 1       |

```
      00 01 02 03 04 05 06 07  08 09 0A 0B 0C 0D 0E 0F
      -- -- -- -- -- -- -- --  -- -- -- -- -- -- -- --
0000: 00                                                .               
```

#### Opcodes

```
  0: 0x0000 [0x00] END_REQSTACK()
```

### Event 165

#### Metadata

| Field        | Value   |
|--------------|---------|
| Entrypoint   | 0x0001  |
| Data Size    | 1 bytes |
| Instructions | 1       |

```
      00 01 02 03 04 05 06 07  08 09 0A 0B 0C 0D 0E 0F
      -- -- -- -- -- -- -- --  -- -- -- -- -- -- -- --
0000:    00                                              .              
```

#### Opcodes

```
  0: 0x0001 [0x00] END_REQSTACK()
```

### Event 168

#### Metadata

| Field        | Value   |
|--------------|---------|
| Entrypoint   | 0x0002  |
| Data Size    | 1 bytes |
| Instructions | 1       |

```
      00 01 02 03 04 05 06 07  08 09 0A 0B 0C 0D 0E 0F
      -- -- -- -- -- -- -- --  -- -- -- -- -- -- -- --
0000:       00                                            .             
```

#### Opcodes

```
  0: 0x0002 [0x00] END_REQSTACK()
```

### Event 65535.1

#### Metadata

| Field        | Value    |
|--------------|----------|
| Entrypoint   | 0x0003   |
| Data Size    | 11 bytes |
| Instructions | 3        |

```
      00 01 02 03 04 05 06 07  08 09 0A 0B 0C 0D 0E 0F
      -- -- -- -- -- -- -- --  -- -- -- -- -- -- -- --
0000:          1F 00 00 80 01  80 02 80 1F 01 00           ...........  
```

#### Opcodes

```
  0: 0x0003 [0x1F] MOVE_ENTITY: EventEntity moves to X=9.456*, Z=9.858*, Y=-26.249*
  1: 0x000B [0x1F] MOVE_ENTITY: Update entity position (mode=1)
  2: 0x000D [0x00] END_REQSTACK()
```

### Event 65535.2

#### Metadata

| Field        | Value    |
|--------------|----------|
| Entrypoint   | 0x000E   |
| Data Size    | 24 bytes |
| Instructions | 6        |

```
      00 01 02 03 04 05 06 07  08 09 0A 0B 0C 0D 0E 0F
      -- -- -- -- -- -- -- --  -- -- -- -- -- -- -- --
0000:                                            1F 00                ..
0010: 03 80 04 80 05 80 1F 01  6F 1C 06 80 4A 95 E2 05  ........o...J...
0020: 01 36 E2 05 01 00                                 .6....          
```

#### Opcodes

```
  0: 0x000E [0x1F] MOVE_ENTITY: EventEntity moves to X=-8.644*, Z=7.607*, Y=-25.500*
  1: 0x0016 [0x1F] MOVE_ENTITY: Update entity position (mode=1)
  2: 0x0018 [0x6F] WAIT_FRAME_DELAY: Yield until WaitTime reaches zero
  3: 0x0019 [0x1C] WAIT(5* ticks)
  4: 0x001C [0x4A] 02 (ID: 17162901/0x0105E295) looks at Lehko Habhoka (ID: 17162806/0x0105E236)
  5: 0x0025 [0x00] END_REQSTACK()
```

### Event 65535.3

#### Metadata

| Field        | Value    |
|--------------|----------|
| Entrypoint   | 0x0026   |
| Data Size    | 22 bytes |
| Instructions | 6        |

```
      00 01 02 03 04 05 06 07  08 09 0A 0B 0C 0D 0E 0F
      -- -- -- -- -- -- -- --  -- -- -- -- -- -- -- --
0020:                   1F 00  07 80 08 80 09 80 1F 01        ..........
0030: 6F 1F 00 0A 80 0B 80 09  80 1F 01 00              o...........    
```

#### Opcodes

```
  0: 0x0026 [0x1F] MOVE_ENTITY: EventEntity moves to X=-4.837*, Z=1.489*, Y=-25.499*
  1: 0x002E [0x1F] MOVE_ENTITY: Update entity position (mode=1)
  2: 0x0030 [0x6F] WAIT_FRAME_DELAY: Yield until WaitTime reaches zero
  3: 0x0031 [0x1F] MOVE_ENTITY: EventEntity moves to X=6.660*, Z=2.078*, Y=-25.499*
  4: 0x0039 [0x1F] MOVE_ENTITY: Update entity position (mode=1)
  5: 0x003B [0x00] END_REQSTACK()
```

### Event 65535.4

#### Metadata

| Field        | Value    |
|--------------|----------|
| Entrypoint   | 0x003C   |
| Data Size    | 11 bytes |
| Instructions | 3        |

```
      00 01 02 03 04 05 06 07  08 09 0A 0B 0C 0D 0E 0F
      -- -- -- -- -- -- -- --  -- -- -- -- -- -- -- --
0030:                                      1F 00 0C 80              ....
0040: 0D 80 0E 80 1F 01 00                              .......         
```

#### Opcodes

```
  0: 0x003C [0x1F] MOVE_ENTITY: EventEntity moves to X=4.593*, Z=-19.389*, Y=0.499*
  1: 0x0044 [0x1F] MOVE_ENTITY: Update entity position (mode=1)
  2: 0x0046 [0x00] END_REQSTACK()
```

### Event 65535.5

#### Metadata

| Field        | Value    |
|--------------|----------|
| Entrypoint   | 0x0047   |
| Data Size    | 11 bytes |
| Instructions | 3        |

```
      00 01 02 03 04 05 06 07  08 09 0A 0B 0C 0D 0E 0F
      -- -- -- -- -- -- -- --  -- -- -- -- -- -- -- --
0040:                      1F  00 0F 80 10 80 11 80 1F         .........
0050: 01 00                                             ..              
```

#### Opcodes

```
  0: 0x0047 [0x1F] MOVE_ENTITY: EventEntity moves to X=10.307*, Z=0.622*, Y=0.749*
  1: 0x004F [0x1F] MOVE_ENTITY: Update entity position (mode=1)
  2: 0x0051 [0x00] END_REQSTACK()
```

### Event 65535.6

#### Metadata

| Field        | Value    |
|--------------|----------|
| Entrypoint   | 0x0052   |
| Data Size    | 11 bytes |
| Instructions | 3        |

```
      00 01 02 03 04 05 06 07  08 09 0A 0B 0C 0D 0E 0F
      -- -- -- -- -- -- -- --  -- -- -- -- -- -- -- --
0050:       1F 00 12 80 13 80  14 80 1F 01 00             ...........   
```

#### Opcodes

```
  0: 0x0052 [0x1F] MOVE_ENTITY: EventEntity moves to X=-1.452*, Z=21.555*, Y=-1.000*
  1: 0x005A [0x1F] MOVE_ENTITY: Update entity position (mode=1)
  2: 0x005C [0x00] END_REQSTACK()
```

### Event 65535.7

#### Metadata

| Field        | Value    |
|--------------|----------|
| Entrypoint   | 0x005D   |
| Data Size    | 11 bytes |
| Instructions | 3        |

```
      00 01 02 03 04 05 06 07  08 09 0A 0B 0C 0D 0E 0F
      -- -- -- -- -- -- -- --  -- -- -- -- -- -- -- --
0050:                                         1F 00 15               ...
0060: 80 16 80 14 80 1F 01 00                           ........        
```

#### Opcodes

```
  0: 0x005D [0x1F] MOVE_ENTITY: EventEntity moves to X=-5.695*, Z=11.932*, Y=-1.000*
  1: 0x0065 [0x1F] MOVE_ENTITY: Update entity position (mode=1)
  2: 0x0067 [0x00] END_REQSTACK()
```

### Event 65535.8

#### Metadata

| Field        | Value   |
|--------------|---------|
| Entrypoint   | 0x0068  |
| Data Size    | 1 bytes |
| Instructions | 1       |

```
      00 01 02 03 04 05 06 07  08 09 0A 0B 0C 0D 0E 0F
      -- -- -- -- -- -- -- --  -- -- -- -- -- -- -- --
0060:                          00                               .       
```

#### Opcodes

```
  0: 0x0068 [0x00] END_REQSTACK()
```

### Event 65535.9

#### Metadata

| Field        | Value    |
|--------------|----------|
| Entrypoint   | 0x0069   |
| Data Size    | 18 bytes |
| Instructions | 4        |

```
      00 01 02 03 04 05 06 07  08 09 0A 0B 0C 0D 0E 0F
      -- -- -- -- -- -- -- --  -- -- -- -- -- -- -- --
0060:                             22 00 2F 00 F8 FF FF           "./....
0070: 7F 6C F8 FF FF 7F 17 80  18 80 00                 .l.........     
```

#### Opcodes

```
  0: 0x0069 [0x22] ENTITY_HIDE_FLAG(enabled=0x00)
  1: 0x006B [0x2F] EventEntity->Render.Flags0 &= ~0x80000 // Bit 19
  2: 0x0071 [0x6C] FADE_ENTITY_COLOR(entity_id=EventEntity, end_alpha=0*, fade_time=1*)
  3: 0x007A [0x00] END_REQSTACK()
```

### Event 65535.10

#### Metadata

| Field        | Value    |
|--------------|----------|
| Entrypoint   | 0x007B   |
| Data Size    | 10 bytes |
| Instructions | 2        |

```
      00 01 02 03 04 05 06 07  08 09 0A 0B 0C 0D 0E 0F
      -- -- -- -- -- -- -- --  -- -- -- -- -- -- -- --
0070:                                   6C F8 FF FF 7F             l....
0080: 19 80 18 80 00                                    .....           
```

#### Opcodes

```
  0: 0x007B [0x6C] FADE_ENTITY_COLOR(entity_id=EventEntity, end_alpha=128*, fade_time=1*)
  1: 0x0084 [0x00] END_REQSTACK()
```

### Event 65535.11

#### Metadata

| Field        | Value   |
|--------------|---------|
| Entrypoint   | 0x0085  |
| Data Size    | 9 bytes |
| Instructions | 3       |

```
      00 01 02 03 04 05 06 07  08 09 0A 0B 0C 0D 0E 0F
      -- -- -- -- -- -- -- --  -- -- -- -- -- -- -- --
0080:                22 00 2F  00 F8 FF FF 7F 00             "./......  
```

#### Opcodes

```
  0: 0x0085 [0x22] ENTITY_HIDE_FLAG(enabled=0x00)
  1: 0x0087 [0x2F] EventEntity->Render.Flags0 &= ~0x80000 // Bit 19
  2: 0x008D [0x00] END_REQSTACK()
```

### Event 65535.12

#### Metadata

| Field        | Value   |
|--------------|---------|
| Entrypoint   | 0x008E  |
| Data Size    | 9 bytes |
| Instructions | 3       |

```
      00 01 02 03 04 05 06 07  08 09 0A 0B 0C 0D 0E 0F
      -- -- -- -- -- -- -- --  -- -- -- -- -- -- -- --
0080:                                            22 01                ".
0090: 2F 01 F8 FF FF 7F 00                              /......         
```

#### Opcodes

```
  0: 0x008E [0x22] ENTITY_HIDE_FLAG(enabled=0x01)
  1: 0x0090 [0x2F] EventEntity->Render.Flags0 |= 0x80000 // Bit 19
  2: 0x0096 [0x00] END_REQSTACK()
```

### Event 65535.13

#### Metadata

| Field        | Value    |
|--------------|----------|
| Entrypoint   | 0x0097   |
| Data Size    | 10 bytes |
| Instructions | 2        |

```
      00 01 02 03 04 05 06 07  08 09 0A 0B 0C 0D 0E 0F
      -- -- -- -- -- -- -- --  -- -- -- -- -- -- -- --
0090:                      6C  F8 FF FF 7F 17 80 18 80         l........
00A0: 00                                                .               
```

#### Opcodes

```
  0: 0x0097 [0x6C] FADE_ENTITY_COLOR(entity_id=EventEntity, end_alpha=0*, fade_time=1*)
  1: 0x00A0 [0x00] END_REQSTACK()
```

### Event 65535.14

#### Metadata

| Field        | Value    |
|--------------|----------|
| Entrypoint   | 0x00A1   |
| Data Size    | 10 bytes |
| Instructions | 2        |

```
      00 01 02 03 04 05 06 07  08 09 0A 0B 0C 0D 0E 0F
      -- -- -- -- -- -- -- --  -- -- -- -- -- -- -- --
00A0:    6C F8 FF FF 7F 19 80  18 80 00                  l.........     
```

#### Opcodes

```
  0: 0x00A1 [0x6C] FADE_ENTITY_COLOR(entity_id=EventEntity, end_alpha=128*, fade_time=1*)
  1: 0x00AA [0x00] END_REQSTACK()
```

### Event 65535.15

#### Metadata

| Field        | Value    |
|--------------|----------|
| Entrypoint   | 0x00AB   |
| Data Size    | 22 bytes |
| Instructions | 3        |

```
      00 01 02 03 04 05 06 07  08 09 0A 0B 0C 0D 0E 0F
      -- -- -- -- -- -- -- --  -- -- -- -- -- -- -- --
00A0:                                   B6 0E 17 80 1A             .....
00B0: 80 18 80 17 80 17 80 17  80 18 80 80 F8 FF FF 7F  ................
00C0: 00                                                .               
```

#### Opcodes

```
  0: 0x00AB [0xB6] ENTITY_APPEARANCE_HANDLER(case=Look with Render flags, race=0*, face=4*, head=1*, body=0*, hands=0*, render_flags=0x8017)
  1: 0x00B9 [0x18] 4294963882* = atan2(0xFFF8, 0x7FFF)
  2: 0x00C0 [0x00] END_REQSTACK()
```

### Event 65535.16

#### Metadata

| Field        | Value     |
|--------------|-----------|
| Entrypoint   | 0x00C1    |
| Data Size    | 167 bytes |
| Instructions | 35        |

```
      00 01 02 03 04 05 06 07  08 09 0A 0B 0C 0D 0E 0F
      -- -- -- -- -- -- -- --  -- -- -- -- -- -- -- --
00C0:    1C 1B 80 59 04 1D E2  05 01 1C 80 1F 00 1D 80   ...Y...........
00D0: 1E 80 14 80 1F 01 1F 00  1F 80 20 80 14 80 1F 01  .......... .....
00E0: 1F 00 21 80 22 80 14 80  1F 01 1F 00 23 80 24 80  ..!.".......#.$.
00F0: 14 80 1F 01 1F 00 25 80  26 80 27 80 1F 01 1F 00  ......%.&.'.....
0100: 28 80 29 80 27 80 1F 01  1F 00 2A 80 2B 80 27 80  (.).'.....*.+.'.
0110: 1F 01 1F 00 2C 80 2D 80  27 80 1F 01 1F 00 2E 80  ....,.-.'.......
0120: 2F 80 27 80 1F 01 1F 00  30 80 31 80 32 80 1F 01  /.'.....0.1.2...
0130: 1F 00 33 80 34 80 35 80  1F 01 1F 00 36 80 37 80  ..3.4.5.....6.7.
0140: 35 80 1F 01 1F 00 38 80  39 80 35 80 1F 01 1F 00  5.....8.9.5.....
0150: 3A 80 3B 80 3C 80 1F 01  6F 7E 05 1D E2 05 01 22  :.;.<...o~....."
0160: 01 2F 01 F8 FF FF 7F 00                           ./......        
```

#### Opcodes

```
  0: 0x00C1 [0x1C] WAIT(30* ticks)
  1: 0x00C4 [0x59] UPDATE_ENTITY_DATA: Set 01 (ID: 17162781/0x0105E21D) main speed = 80* * 0.1
  2: 0x00CC [0x1F] MOVE_ENTITY: EventEntity moves to X=0.459*, Z=49.181*, Y=-1.000*
  3: 0x00D4 [0x1F] MOVE_ENTITY: Update entity position (mode=1)
  4: 0x00D6 [0x1F] MOVE_ENTITY: EventEntity moves to X=-2.531*, Z=46.285*, Y=-1.000*
  5: 0x00DE [0x1F] MOVE_ENTITY: Update entity position (mode=1)
  6: 0x00E0 [0x1F] MOVE_ENTITY: EventEntity moves to X=-7.007*, Z=41.449*, Y=-1.000*
  7: 0x00E8 [0x1F] MOVE_ENTITY: Update entity position (mode=1)
  8: 0x00EA [0x1F] MOVE_ENTITY: EventEntity moves to X=-13.490*, Z=39.401*, Y=-1.000*
  9: 0x00F2 [0x1F] MOVE_ENTITY: Update entity position (mode=1)
 10: 0x00F4 [0x1F] MOVE_ENTITY: EventEntity moves to X=-51.141*, Z=38.746*, Y=-3.499*
 11: 0x00FC [0x1F] MOVE_ENTITY: Update entity position (mode=1)
 12: 0x00FE [0x1F] MOVE_ENTITY: EventEntity moves to X=-63.152*, Z=42.731*, Y=-3.499*
 13: 0x0106 [0x1F] MOVE_ENTITY: Update entity position (mode=1)
 14: 0x0108 [0x1F] MOVE_ENTITY: EventEntity moves to X=-73.075*, Z=51.803*, Y=-3.499*
 15: 0x0110 [0x1F] MOVE_ENTITY: Update entity position (mode=1)
 16: 0x0112 [0x1F] MOVE_ENTITY: EventEntity moves to X=-78.613*, Z=59.364*, Y=-3.499*
 17: 0x011A [0x1F] MOVE_ENTITY: Update entity position (mode=1)
 18: 0x011C [0x1F] MOVE_ENTITY: EventEntity moves to X=-76.580*, Z=75.410*, Y=-3.499*
 19: 0x0124 [0x1F] MOVE_ENTITY: Update entity position (mode=1)
 20: 0x0126 [0x1F] MOVE_ENTITY: EventEntity moves to X=-64.004*, Z=81.361*, Y=-5.000*
 21: 0x012E [0x1F] MOVE_ENTITY: Update entity position (mode=1)
 22: 0x0130 [0x1F] MOVE_ENTITY: EventEntity moves to X=-49.175*, Z=83.509*, Y=-4.999*
 23: 0x0138 [0x1F] MOVE_ENTITY: Update entity position (mode=1)
 24: 0x013A [0x1F] MOVE_ENTITY: EventEntity moves to X=-42.767*, Z=87.755*, Y=-4.999*
 25: 0x0142 [0x1F] MOVE_ENTITY: Update entity position (mode=1)
 26: 0x0144 [0x1F] MOVE_ENTITY: EventEntity moves to X=-41.067*, Z=92.184*, Y=-4.999*
 27: 0x014C [0x1F] MOVE_ENTITY: Update entity position (mode=1)
 28: 0x014E [0x1F] MOVE_ENTITY: EventEntity moves to X=-40.133*, Z=167.579*, Y=-5.023*
 29: 0x0156 [0x1F] MOVE_ENTITY: Update entity position (mode=1)
 30: 0x0158 [0x6F] WAIT_FRAME_DELAY: Yield until WaitTime reaches zero
 31: 0x0159 [0x7E] CHOCOBO_MOUNT: Dismount 01 (ID: 17162781/0x0105E21D) (status = 0)
 32: 0x015F [0x22] ENTITY_HIDE_FLAG(enabled=0x01)
 33: 0x0161 [0x2F] EventEntity->Render.Flags0 |= 0x80000 // Bit 19
 34: 0x0167 [0x00] END_REQSTACK()
```

### Event 65535.17

#### Metadata

| Field        | Value     |
|--------------|-----------|
| Entrypoint   | 0x0168    |
| Data Size    | 186 bytes |
| Instructions | 38        |

```
      00 01 02 03 04 05 06 07  08 09 0A 0B 0C 0D 0E 0F
      -- -- -- -- -- -- -- --  -- -- -- -- -- -- -- --
0160:                          1C 3D 80 59 04 1E E2 05          .=.Y....
0170: 01 3E 80 1F 00 3F 80 40  80 14 80 1F 01 1F 00 41  .>...?.@.......A
0180: 80 42 80 14 80 1F 01 1F  00 43 80 44 80 14 80 1F  .B.......C.D....
0190: 01 1F 00 45 80 46 80 14  80 1F 01 1F 00 47 80 48  ...E.F.......G.H
01A0: 80 14 80 1F 01 1F 00 25  80 26 80 27 80 1F 01 1F  .......%.&.'....
01B0: 00 28 80 29 80 27 80 1F  01 1F 00 2A 80 2B 80 27  .(.).'.....*.+.'
01C0: 80 1F 01 1F 00 2C 80 2D  80 27 80 1F 01 1F 00 2E  .....,.-.'......
01D0: 80 2F 80 27 80 1F 01 1F  00 30 80 31 80 32 80 1F  ./.'.....0.1.2..
01E0: 01 1F 00 33 80 34 80 35  80 1F 01 1F 00 49 80 4A  ...3.4.5.....I.J
01F0: 80 35 80 1F 01 1F 00 4B  80 4C 80 35 80 1F 01 1F  .5.....K.L.5....
0200: 00 4D 80 4E 80 35 80 1F  01 1F 00 3A 80 3B 80 3C  .M.N.5.....:.;.<
0210: 80 1F 01 7E 05 1E E2 05  01 22 01 2F 01 F8 FF FF  ...~....."./....
0220: 7F 00                                             ..              
```

#### Opcodes

```
  0: 0x0168 [0x1C] WAIT(150* ticks)
  1: 0x016B [0x59] UPDATE_ENTITY_DATA: Set 02 (ID: 17162782/0x0105E21E) main speed = 79* * 0.1
  2: 0x0173 [0x1F] MOVE_ENTITY: EventEntity moves to X=-0.735*, Z=52.571*, Y=-1.000*
  3: 0x017B [0x1F] MOVE_ENTITY: Update entity position (mode=1)
  4: 0x017D [0x1F] MOVE_ENTITY: EventEntity moves to X=-2.958*, Z=50.565*, Y=-1.000*
  5: 0x0185 [0x1F] MOVE_ENTITY: Update entity position (mode=1)
  6: 0x0187 [0x1F] MOVE_ENTITY: EventEntity moves to X=-6.578*, Z=43.709*, Y=-1.000*
  7: 0x018F [0x1F] MOVE_ENTITY: Update entity position (mode=1)
  8: 0x0191 [0x1F] MOVE_ENTITY: EventEntity moves to X=-9.780*, Z=39.736*, Y=-1.000*
  9: 0x0199 [0x1F] MOVE_ENTITY: Update entity position (mode=1)
 10: 0x019B [0x1F] MOVE_ENTITY: EventEntity moves to X=-13.066*, Z=38.914*, Y=-1.000*
 11: 0x01A3 [0x1F] MOVE_ENTITY: Update entity position (mode=1)
 12: 0x01A5 [0x1F] MOVE_ENTITY: EventEntity moves to X=-51.141*, Z=38.746*, Y=-3.499*
 13: 0x01AD [0x1F] MOVE_ENTITY: Update entity position (mode=1)
 14: 0x01AF [0x1F] MOVE_ENTITY: EventEntity moves to X=-63.152*, Z=42.731*, Y=-3.499*
 15: 0x01B7 [0x1F] MOVE_ENTITY: Update entity position (mode=1)
 16: 0x01B9 [0x1F] MOVE_ENTITY: EventEntity moves to X=-73.075*, Z=51.803*, Y=-3.499*
 17: 0x01C1 [0x1F] MOVE_ENTITY: Update entity position (mode=1)
 18: 0x01C3 [0x1F] MOVE_ENTITY: EventEntity moves to X=-78.613*, Z=59.364*, Y=-3.499*
 19: 0x01CB [0x1F] MOVE_ENTITY: Update entity position (mode=1)
 20: 0x01CD [0x1F] MOVE_ENTITY: EventEntity moves to X=-76.580*, Z=75.410*, Y=-3.499*
 21: 0x01D5 [0x1F] MOVE_ENTITY: Update entity position (mode=1)
 22: 0x01D7 [0x1F] MOVE_ENTITY: EventEntity moves to X=-64.004*, Z=81.361*, Y=-5.000*
 23: 0x01DF [0x1F] MOVE_ENTITY: Update entity position (mode=1)
 24: 0x01E1 [0x1F] MOVE_ENTITY: EventEntity moves to X=-49.175*, Z=83.509*, Y=-4.999*
 25: 0x01E9 [0x1F] MOVE_ENTITY: Update entity position (mode=1)
 26: 0x01EB [0x1F] MOVE_ENTITY: EventEntity moves to X=-39.708*, Z=89.827*, Y=-4.999*
 27: 0x01F3 [0x1F] MOVE_ENTITY: Update entity position (mode=1)
 28: 0x01F5 [0x1F] MOVE_ENTITY: EventEntity moves to X=-38.677*, Z=93.420*, Y=-4.999*
 29: 0x01FD [0x1F] MOVE_ENTITY: Update entity position (mode=1)
 30: 0x01FF [0x1F] MOVE_ENTITY: EventEntity moves to X=-38.282*, Z=99.163*, Y=-4.999*
 31: 0x0207 [0x1F] MOVE_ENTITY: Update entity position (mode=1)
 32: 0x0209 [0x1F] MOVE_ENTITY: EventEntity moves to X=-40.133*, Z=167.579*, Y=-5.023*
 33: 0x0211 [0x1F] MOVE_ENTITY: Update entity position (mode=1)
 34: 0x0213 [0x7E] CHOCOBO_MOUNT: Dismount 02 (ID: 17162782/0x0105E21E) (status = 0)
 35: 0x0219 [0x22] ENTITY_HIDE_FLAG(enabled=0x01)
 36: 0x021B [0x2F] EventEntity->Render.Flags0 |= 0x80000 // Bit 19
 37: 0x0221 [0x00] END_REQSTACK()
```

### Event 65535.18

#### Metadata

| Field        | Value    |
|--------------|----------|
| Entrypoint   | 0x0222   |
| Data Size    | 83 bytes |
| Instructions | 18       |

```
      00 01 02 03 04 05 06 07  08 09 0A 0B 0C 0D 0E 0F
      -- -- -- -- -- -- -- --  -- -- -- -- -- -- -- --
0220:       59 04 25 E2 05 01  4F 80 1F 00 50 80 51 80    Y.%...O...P.Q.
0230: 35 80 1F 01 6F 59 04 F8  FF FF 7F 52 80 1F 00 53  5...oY.....R...S
0240: 80 54 80 35 80 1F 01 1F  00 55 80 56 80 35 80 1F  .T.5.....U.V.5..
0250: 01 1F 00 57 80 58 80 35  80 1F 01 1F 00 3A 80 3B  ...W.X.5.....:.;
0260: 80 3C 80 1F 01 6F 7E 05  25 E2 05 01 22 01 2F 01  .<...o~.%..."./.
0270: F8 FF FF 7F 00                                    .....           
```

#### Opcodes

```
  0: 0x0222 [0x59] UPDATE_ENTITY_DATA: Set Unnamed NPC (ID: 17162789/0x0105E225) main speed = 25* * 0.1
  1: 0x022A [0x1F] MOVE_ENTITY: EventEntity moves to X=-25.197*, Z=86.979*, Y=-4.999*
  2: 0x0232 [0x1F] MOVE_ENTITY: Update entity position (mode=1)
  3: 0x0234 [0x6F] WAIT_FRAME_DELAY: Yield until WaitTime reaches zero
  4: 0x0235 [0x59] UPDATE_ENTITY_DATA: Set EventEntity main speed = 78* * 0.1
  5: 0x023D [0x1F] MOVE_ENTITY: EventEntity moves to X=-32.985*, Z=94.399*, Y=-4.999*
  6: 0x0245 [0x1F] MOVE_ENTITY: Update entity position (mode=1)
  7: 0x0247 [0x1F] MOVE_ENTITY: EventEntity moves to X=-37.211*, Z=98.747*, Y=-4.999*
  8: 0x024F [0x1F] MOVE_ENTITY: Update entity position (mode=1)
  9: 0x0251 [0x1F] MOVE_ENTITY: EventEntity moves to X=-38.522*, Z=107.127*, Y=-4.999*
 10: 0x0259 [0x1F] MOVE_ENTITY: Update entity position (mode=1)
 11: 0x025B [0x1F] MOVE_ENTITY: EventEntity moves to X=-40.133*, Z=167.579*, Y=-5.023*
 12: 0x0263 [0x1F] MOVE_ENTITY: Update entity position (mode=1)
 13: 0x0265 [0x6F] WAIT_FRAME_DELAY: Yield until WaitTime reaches zero
 14: 0x0266 [0x7E] CHOCOBO_MOUNT: Dismount Unnamed NPC (ID: 17162789/0x0105E225) (status = 0)
 15: 0x026C [0x22] ENTITY_HIDE_FLAG(enabled=0x01)
 16: 0x026E [0x2F] EventEntity->Render.Flags0 |= 0x80000 // Bit 19
 17: 0x0274 [0x00] END_REQSTACK()
```

### Event 65535.19

#### Metadata

| Field        | Value     |
|--------------|-----------|
| Entrypoint   | 0x0275    |
| Data Size    | 154 bytes |
| Instructions | 32        |

```
      00 01 02 03 04 05 06 07  08 09 0A 0B 0C 0D 0E 0F
      -- -- -- -- -- -- -- --  -- -- -- -- -- -- -- --
0270:                59 04 26  E2 05 01 1C 80 1F 00 59       Y.&.......Y
0280: 80 5A 80 5B 80 1F 01 1F  00 5C 80 5D 80 5B 80 1F  .Z.[.....\.].[..
0290: 01 1F 00 5E 80 5F 80 5B  80 1F 01 1F 00 25 80 26  ...^._.[.....%.&
02A0: 80 27 80 1F 01 1F 00 28  80 29 80 27 80 1F 01 1F  .'.....(.).'....
02B0: 00 2A 80 2B 80 27 80 1F  01 1F 00 2C 80 2D 80 27  .*.+.'.....,.-.'
02C0: 80 1F 01 1F 00 2E 80 2F  80 27 80 1F 01 1F 00 30  ......./.'.....0
02D0: 80 31 80 32 80 1F 01 1F  00 33 80 34 80 35 80 1F  .1.2.....3.4.5..
02E0: 01 1F 00 36 80 37 80 35  80 1F 01 1F 00 38 80 39  ...6.7.5.....8.9
02F0: 80 35 80 1F 01 1F 00 3A  80 3B 80 3C 80 1F 01 6F  .5.....:.;.<...o
0300: 7E 05 26 E2 05 01 22 01  2F 01 F8 FF FF 7F 00     ~.&..."./...... 
```

#### Opcodes

```
  0: 0x0275 [0x59] UPDATE_ENTITY_DATA: Set Unnamed NPC (ID: 17162790/0x0105E226) main speed = 80* * 0.1
  1: 0x027D [0x1F] MOVE_ENTITY: EventEntity moves to X=-6.086*, Z=31.136*, Y=-0.999*
  2: 0x0285 [0x1F] MOVE_ENTITY: Update entity position (mode=1)
  3: 0x0287 [0x1F] MOVE_ENTITY: EventEntity moves to X=-8.016*, Z=35.131*, Y=-0.999*
  4: 0x028F [0x1F] MOVE_ENTITY: Update entity position (mode=1)
  5: 0x0291 [0x1F] MOVE_ENTITY: EventEntity moves to X=-11.617*, Z=38.998*, Y=-0.999*
  6: 0x0299 [0x1F] MOVE_ENTITY: Update entity position (mode=1)
  7: 0x029B [0x1F] MOVE_ENTITY: EventEntity moves to X=-51.141*, Z=38.746*, Y=-3.499*
  8: 0x02A3 [0x1F] MOVE_ENTITY: Update entity position (mode=1)
  9: 0x02A5 [0x1F] MOVE_ENTITY: EventEntity moves to X=-63.152*, Z=42.731*, Y=-3.499*
 10: 0x02AD [0x1F] MOVE_ENTITY: Update entity position (mode=1)
 11: 0x02AF [0x1F] MOVE_ENTITY: EventEntity moves to X=-73.075*, Z=51.803*, Y=-3.499*
 12: 0x02B7 [0x1F] MOVE_ENTITY: Update entity position (mode=1)
 13: 0x02B9 [0x1F] MOVE_ENTITY: EventEntity moves to X=-78.613*, Z=59.364*, Y=-3.499*
 14: 0x02C1 [0x1F] MOVE_ENTITY: Update entity position (mode=1)
 15: 0x02C3 [0x1F] MOVE_ENTITY: EventEntity moves to X=-76.580*, Z=75.410*, Y=-3.499*
 16: 0x02CB [0x1F] MOVE_ENTITY: Update entity position (mode=1)
 17: 0x02CD [0x1F] MOVE_ENTITY: EventEntity moves to X=-64.004*, Z=81.361*, Y=-5.000*
 18: 0x02D5 [0x1F] MOVE_ENTITY: Update entity position (mode=1)
 19: 0x02D7 [0x1F] MOVE_ENTITY: EventEntity moves to X=-49.175*, Z=83.509*, Y=-4.999*
 20: 0x02DF [0x1F] MOVE_ENTITY: Update entity position (mode=1)
 21: 0x02E1 [0x1F] MOVE_ENTITY: EventEntity moves to X=-42.767*, Z=87.755*, Y=-4.999*
 22: 0x02E9 [0x1F] MOVE_ENTITY: Update entity position (mode=1)
 23: 0x02EB [0x1F] MOVE_ENTITY: EventEntity moves to X=-41.067*, Z=92.184*, Y=-4.999*
 24: 0x02F3 [0x1F] MOVE_ENTITY: Update entity position (mode=1)
 25: 0x02F5 [0x1F] MOVE_ENTITY: EventEntity moves to X=-40.133*, Z=167.579*, Y=-5.023*
 26: 0x02FD [0x1F] MOVE_ENTITY: Update entity position (mode=1)
 27: 0x02FF [0x6F] WAIT_FRAME_DELAY: Yield until WaitTime reaches zero
 28: 0x0300 [0x7E] CHOCOBO_MOUNT: Dismount Unnamed NPC (ID: 17162790/0x0105E226) (status = 0)
 29: 0x0306 [0x22] ENTITY_HIDE_FLAG(enabled=0x01)
 30: 0x0308 [0x2F] EventEntity->Render.Flags0 |= 0x80000 // Bit 19
 31: 0x030E [0x00] END_REQSTACK()
```

### Event 65535.20

#### Metadata

| Field        | Value     |
|--------------|-----------|
| Entrypoint   | 0x030F    |
| Data Size    | 167 bytes |
| Instructions | 35        |

```
      00 01 02 03 04 05 06 07  08 09 0A 0B 0C 0D 0E 0F
      -- -- -- -- -- -- -- --  -- -- -- -- -- -- -- --
0300:                                               1C                 .
0310: 60 80 59 04 27 E2 05 01  52 80 1F 00 61 80 62 80  `.Y.'...R...a.b.
0320: 5B 80 1F 01 1F 00 63 80  64 80 5B 80 1F 01 1F 00  [.....c.d.[.....
0330: 65 80 66 80 5B 80 1F 01  1F 00 25 80 26 80 27 80  e.f.[.....%.&.'.
0340: 1F 01 1F 00 28 80 29 80  27 80 1F 01 1F 00 2A 80  ....(.).'.....*.
0350: 2B 80 27 80 1F 01 1F 00  2C 80 2D 80 27 80 1F 01  +.'.....,.-.'...
0360: 1F 00 2E 80 2F 80 27 80  1F 01 1F 00 30 80 31 80  ..../.'.....0.1.
0370: 32 80 1F 01 1F 00 33 80  34 80 35 80 1F 01 1F 00  2.....3.4.5.....
0380: 49 80 4A 80 35 80 1F 01  1F 00 4B 80 4C 80 35 80  I.J.5.....K.L.5.
0390: 1F 01 1F 00 4D 80 4E 80  35 80 1F 01 1F 00 3A 80  ....M.N.5.....:.
03A0: 3B 80 3C 80 1F 01 6F 7E  05 27 E2 05 01 22 01 2F  ;.<...o~.'..."./
03B0: 01 F8 FF FF 7F 00                                 ......          
```

#### Opcodes

```
  0: 0x030F [0x1C] WAIT(180* ticks)
  1: 0x0312 [0x59] UPDATE_ENTITY_DATA: Set Unnamed NPC (ID: 17162791/0x0105E227) main speed = 78* * 0.1
  2: 0x031A [0x1F] MOVE_ENTITY: EventEntity moves to X=-1.740*, Z=31.643*, Y=-0.999*
  3: 0x0322 [0x1F] MOVE_ENTITY: Update entity position (mode=1)
  4: 0x0324 [0x1F] MOVE_ENTITY: EventEntity moves to X=-4.175*, Z=36.997*, Y=-0.999*
  5: 0x032C [0x1F] MOVE_ENTITY: Update entity position (mode=1)
  6: 0x032E [0x1F] MOVE_ENTITY: EventEntity moves to X=-8.672*, Z=40.970*, Y=-0.999*
  7: 0x0336 [0x1F] MOVE_ENTITY: Update entity position (mode=1)
  8: 0x0338 [0x1F] MOVE_ENTITY: EventEntity moves to X=-51.141*, Z=38.746*, Y=-3.499*
  9: 0x0340 [0x1F] MOVE_ENTITY: Update entity position (mode=1)
 10: 0x0342 [0x1F] MOVE_ENTITY: EventEntity moves to X=-63.152*, Z=42.731*, Y=-3.499*
 11: 0x034A [0x1F] MOVE_ENTITY: Update entity position (mode=1)
 12: 0x034C [0x1F] MOVE_ENTITY: EventEntity moves to X=-73.075*, Z=51.803*, Y=-3.499*
 13: 0x0354 [0x1F] MOVE_ENTITY: Update entity position (mode=1)
 14: 0x0356 [0x1F] MOVE_ENTITY: EventEntity moves to X=-78.613*, Z=59.364*, Y=-3.499*
 15: 0x035E [0x1F] MOVE_ENTITY: Update entity position (mode=1)
 16: 0x0360 [0x1F] MOVE_ENTITY: EventEntity moves to X=-76.580*, Z=75.410*, Y=-3.499*
 17: 0x0368 [0x1F] MOVE_ENTITY: Update entity position (mode=1)
 18: 0x036A [0x1F] MOVE_ENTITY: EventEntity moves to X=-64.004*, Z=81.361*, Y=-5.000*
 19: 0x0372 [0x1F] MOVE_ENTITY: Update entity position (mode=1)
 20: 0x0374 [0x1F] MOVE_ENTITY: EventEntity moves to X=-49.175*, Z=83.509*, Y=-4.999*
 21: 0x037C [0x1F] MOVE_ENTITY: Update entity position (mode=1)
 22: 0x037E [0x1F] MOVE_ENTITY: EventEntity moves to X=-39.708*, Z=89.827*, Y=-4.999*
 23: 0x0386 [0x1F] MOVE_ENTITY: Update entity position (mode=1)
 24: 0x0388 [0x1F] MOVE_ENTITY: EventEntity moves to X=-38.677*, Z=93.420*, Y=-4.999*
 25: 0x0390 [0x1F] MOVE_ENTITY: Update entity position (mode=1)
 26: 0x0392 [0x1F] MOVE_ENTITY: EventEntity moves to X=-38.282*, Z=99.163*, Y=-4.999*
 27: 0x039A [0x1F] MOVE_ENTITY: Update entity position (mode=1)
 28: 0x039C [0x1F] MOVE_ENTITY: EventEntity moves to X=-40.133*, Z=167.579*, Y=-5.023*
 29: 0x03A4 [0x1F] MOVE_ENTITY: Update entity position (mode=1)
 30: 0x03A6 [0x6F] WAIT_FRAME_DELAY: Yield until WaitTime reaches zero
 31: 0x03A7 [0x7E] CHOCOBO_MOUNT: Dismount Unnamed NPC (ID: 17162791/0x0105E227) (status = 0)
 32: 0x03AD [0x22] ENTITY_HIDE_FLAG(enabled=0x01)
 33: 0x03AF [0x2F] EventEntity->Render.Flags0 |= 0x80000 // Bit 19
 34: 0x03B5 [0x00] END_REQSTACK()
```

### Event 65535.21

#### Metadata

| Field        | Value    |
|--------------|----------|
| Entrypoint   | 0x03B6   |
| Data Size    | 69 bytes |
| Instructions | 15       |

```
      00 01 02 03 04 05 06 07  08 09 0A 0B 0C 0D 0E 0F
      -- -- -- -- -- -- -- --  -- -- -- -- -- -- -- --
03B0:                   1C 67  80 59 04 94 E2 05 01 68        .g.Y.....h
03C0: 80 1F 00 69 80 6A 80 6B  80 1F 01 1F 00 6C 80 6D  ...i.j.k.....l.m
03D0: 80 6B 80 1F 01 59 04 F8  FF FF 7F 6E 80 1F 00 6F  .k...Y.....n...o
03E0: 80 70 80 6B 80 1F 01 1F  00 71 80 72 80 27 80 1F  .p.k.....q.r.'..
03F0: 01 6F 22 01 2F 01 F8 FF  FF 7F 00                 .o"./......     
```

#### Opcodes

```
  0: 0x03B6 [0x1C] WAIT(360* ticks)
  1: 0x03B9 [0x59] UPDATE_ENTITY_DATA: Set 02 (ID: 17162900/0x0105E294) main speed = 15* * 0.1
  2: 0x03C1 [0x1F] MOVE_ENTITY: EventEntity moves to X=-26.970*, Z=63.607*, Y=-3.500*
  3: 0x03C9 [0x1F] MOVE_ENTITY: Update entity position (mode=1)
  4: 0x03CB [0x1F] MOVE_ENTITY: EventEntity moves to X=-25.762*, Z=63.002*, Y=-3.500*
  5: 0x03D3 [0x1F] MOVE_ENTITY: Update entity position (mode=1)
  6: 0x03D5 [0x59] UPDATE_ENTITY_DATA: Set EventEntity main speed = 40* * 0.1
  7: 0x03DD [0x1F] MOVE_ENTITY: EventEntity moves to X=-47.406*, Z=58.894*, Y=-3.500*
  8: 0x03E5 [0x1F] MOVE_ENTITY: Update entity position (mode=1)
  9: 0x03E7 [0x1F] MOVE_ENTITY: EventEntity moves to X=-56.954*, Z=53.463*, Y=-3.499*
 10: 0x03EF [0x1F] MOVE_ENTITY: Update entity position (mode=1)
 11: 0x03F1 [0x6F] WAIT_FRAME_DELAY: Yield until WaitTime reaches zero
 12: 0x03F2 [0x22] ENTITY_HIDE_FLAG(enabled=0x01)
 13: 0x03F4 [0x2F] EventEntity->Render.Flags0 |= 0x80000 // Bit 19
 14: 0x03FA [0x00] END_REQSTACK()
```

### Event 65535.22

#### Metadata

| Field        | Value    |
|--------------|----------|
| Entrypoint   | 0x03FB   |
| Data Size    | 38 bytes |
| Instructions | 9        |

```
      00 01 02 03 04 05 06 07  08 09 0A 0B 0C 0D 0E 0F
      -- -- -- -- -- -- -- --  -- -- -- -- -- -- -- --
03F0:                                   59 04 F8 FF FF             Y....
0400: 7F 73 80 1F 00 74 80 75  80 76 80 1F 01 1F 00 77  .s...t.u.v.....w
0410: 80 78 80 6B 80 1F 01 6F  22 01 2F 01 F8 FF FF 7F  .x.k...o"./.....
0420: 00                                                .               
```

#### Opcodes

```
  0: 0x03FB [0x59] UPDATE_ENTITY_DATA: Set EventEntity main speed = 27* * 0.1
  1: 0x0403 [0x1F] MOVE_ENTITY: EventEntity moves to X=-30.382*, Z=74.601*, Y=-3.574*
  2: 0x040B [0x1F] MOVE_ENTITY: Update entity position (mode=1)
  3: 0x040D [0x1F] MOVE_ENTITY: EventEntity moves to X=-54.461*, Z=69.456*, Y=-3.500*
  4: 0x0415 [0x1F] MOVE_ENTITY: Update entity position (mode=1)
  5: 0x0417 [0x6F] WAIT_FRAME_DELAY: Yield until WaitTime reaches zero
  6: 0x0418 [0x22] ENTITY_HIDE_FLAG(enabled=0x01)
  7: 0x041A [0x2F] EventEntity->Render.Flags0 |= 0x80000 // Bit 19
  8: 0x0420 [0x00] END_REQSTACK()
```

### Event 65535.23

#### Metadata

| Field        | Value    |
|--------------|----------|
| Entrypoint   | 0x0421   |
| Data Size    | 38 bytes |
| Instructions | 9        |

```
      00 01 02 03 04 05 06 07  08 09 0A 0B 0C 0D 0E 0F
      -- -- -- -- -- -- -- --  -- -- -- -- -- -- -- --
0420:    59 04 F8 FF FF 7F 73  80 1F 00 79 80 7A 80 7B   Y.....s...y.z.{
0430: 80 1F 01 1F 00 7C 80 7D  80 6B 80 1F 01 6F 22 01  .....|.}.k...o".
0440: 2F 01 F8 FF FF 7F 00                              /......         
```

#### Opcodes

```
  0: 0x0421 [0x59] UPDATE_ENTITY_DATA: Set EventEntity main speed = 27* * 0.1
  1: 0x0429 [0x1F] MOVE_ENTITY: EventEntity moves to X=-29.325*, Z=75.371*, Y=-3.529*
  2: 0x0431 [0x1F] MOVE_ENTITY: Update entity position (mode=1)
  3: 0x0433 [0x1F] MOVE_ENTITY: EventEntity moves to X=-53.209*, Z=70.575*, Y=-3.500*
  4: 0x043B [0x1F] MOVE_ENTITY: Update entity position (mode=1)
  5: 0x043D [0x6F] WAIT_FRAME_DELAY: Yield until WaitTime reaches zero
  6: 0x043E [0x22] ENTITY_HIDE_FLAG(enabled=0x01)
  7: 0x0440 [0x2F] EventEntity->Render.Flags0 |= 0x80000 // Bit 19
  8: 0x0446 [0x00] END_REQSTACK()
```

### Event 65535.24

#### Metadata

| Field        | Value    |
|--------------|----------|
| Entrypoint   | 0x0447   |
| Data Size    | 48 bytes |
| Instructions | 11       |

```
      00 01 02 03 04 05 06 07  08 09 0A 0B 0C 0D 0E 0F
      -- -- -- -- -- -- -- --  -- -- -- -- -- -- -- --
0440:                      59  04 F8 FF FF 7F 73 80 1F         Y.....s..
0450: 00 7E 80 7F 80 80 80 1F  01 1F 00 81 80 82 80 6B  .~.............k
0460: 80 1F 01 1F 00 83 80 84  80 6B 80 1F 01 6F 22 01  .........k...o".
0470: 2F 01 F8 FF FF 7F 00                              /......         
```

#### Opcodes

```
  0: 0x0447 [0x59] UPDATE_ENTITY_DATA: Set EventEntity main speed = 27* * 0.1
  1: 0x044F [0x1F] MOVE_ENTITY: EventEntity moves to X=-27.766*, Z=73.600*, Y=-3.414*
  2: 0x0457 [0x1F] MOVE_ENTITY: Update entity position (mode=1)
  3: 0x0459 [0x1F] MOVE_ENTITY: EventEntity moves to X=-52.430*, Z=73.638*, Y=-3.500*
  4: 0x0461 [0x1F] MOVE_ENTITY: Update entity position (mode=1)
  5: 0x0463 [0x1F] MOVE_ENTITY: EventEntity moves to X=-54.193*, Z=72.044*, Y=-3.500*
  6: 0x046B [0x1F] MOVE_ENTITY: Update entity position (mode=1)
  7: 0x046D [0x6F] WAIT_FRAME_DELAY: Yield until WaitTime reaches zero
  8: 0x046E [0x22] ENTITY_HIDE_FLAG(enabled=0x01)
  9: 0x0470 [0x2F] EventEntity->Render.Flags0 |= 0x80000 // Bit 19
 10: 0x0476 [0x00] END_REQSTACK()
```

### Event 65535.25

#### Metadata

| Field        | Value    |
|--------------|----------|
| Entrypoint   | 0x0477   |
| Data Size    | 19 bytes |
| Instructions | 4        |

```
      00 01 02 03 04 05 06 07  08 09 0A 0B 0C 0D 0E 0F
      -- -- -- -- -- -- -- --  -- -- -- -- -- -- -- --
0470:                      59  04 F8 FF FF 7F 85 80 1F         Y........
0480: 00 86 80 87 80 32 80 1F  01 00                    .....2....      
```

#### Opcodes

```
  0: 0x0477 [0x59] UPDATE_ENTITY_DATA: Set EventEntity main speed = 42* * 0.1
  1: 0x047F [0x1F] MOVE_ENTITY: EventEntity moves to X=-22.678*, Z=81.353*, Y=-5.000*
  2: 0x0487 [0x1F] MOVE_ENTITY: Update entity position (mode=1)
  3: 0x0489 [0x00] END_REQSTACK()
```

### Event 65535.26

#### Metadata

| Field        | Value    |
|--------------|----------|
| Entrypoint   | 0x048A   |
| Data Size    | 22 bytes |
| Instructions | 5        |

```
      00 01 02 03 04 05 06 07  08 09 0A 0B 0C 0D 0E 0F
      -- -- -- -- -- -- -- --  -- -- -- -- -- -- -- --
0480:                                59 04 F8 FF FF 7F            Y.....
0490: 85 80 1C 88 80 1F 00 86  80 87 80 32 80 1F 01 00  ...........2....
```

#### Opcodes

```
  0: 0x048A [0x59] UPDATE_ENTITY_DATA: Set EventEntity main speed = 42* * 0.1
  1: 0x0492 [0x1C] WAIT(60* ticks)
  2: 0x0495 [0x1F] MOVE_ENTITY: EventEntity moves to X=-22.678*, Z=81.353*, Y=-5.000*
  3: 0x049D [0x1F] MOVE_ENTITY: Update entity position (mode=1)
  4: 0x049F [0x00] END_REQSTACK()
```

### Event 65535.27

#### Metadata

| Field        | Value    |
|--------------|----------|
| Entrypoint   | 0x04A0   |
| Data Size    | 22 bytes |
| Instructions | 5        |

```
      00 01 02 03 04 05 06 07  08 09 0A 0B 0C 0D 0E 0F
      -- -- -- -- -- -- -- --  -- -- -- -- -- -- -- --
04A0: 59 04 F8 FF FF 7F 85 80  1C 89 80 1F 00 86 80 87  Y...............
04B0: 80 32 80 1F 01 00                                 .2....          
```

#### Opcodes

```
  0: 0x04A0 [0x59] UPDATE_ENTITY_DATA: Set EventEntity main speed = 42* * 0.1
  1: 0x04A8 [0x1C] WAIT(120* ticks)
  2: 0x04AB [0x1F] MOVE_ENTITY: EventEntity moves to X=-22.678*, Z=81.353*, Y=-5.000*
  3: 0x04B3 [0x1F] MOVE_ENTITY: Update entity position (mode=1)
  4: 0x04B5 [0x00] END_REQSTACK()
```

### Event 65535.28

#### Metadata

| Field        | Value    |
|--------------|----------|
| Entrypoint   | 0x04B6   |
| Data Size    | 13 bytes |
| Instructions | 5        |

```
      00 01 02 03 04 05 06 07  08 09 0A 0B 0C 0D 0E 0F
      -- -- -- -- -- -- -- --  -- -- -- -- -- -- -- --
04B0:                   06 08  10 1C 8A 80 1C 06 80 05        ..........
04C0: 08 10 00                                          ...             
```

#### Opcodes

```
  0: 0x04B6 [0x06] Work_Zone[8] = 0
  1: 0x04B9 [0x1C] WAIT(600* ticks)
  2: 0x04BC [0x1C] WAIT(5* ticks)
  3: 0x04BF [0x05] Work_Zone[8] = 1
  4: 0x04C2 [0x00] END_REQSTACK()
```

### Event 65535.29

#### Metadata

| Field        | Value     |
|--------------|-----------|
| Entrypoint   | 0x04C3    |
| Data Size    | 221 bytes |
| Instructions | 26        |

```
      00 01 02 03 04 05 06 07  08 09 0A 0B 0C 0D 0E 0F
      -- -- -- -- -- -- -- --  -- -- -- -- -- -- -- --
04C0:          06 09 10 1C 3D  80 52 8B 80 F0 FF FF 7F     ....=.R......
04D0: F0 FF FF 7F 79 30 34 32  45 8B 80 1E E2 05 01 1E  ....y042E.......
04E0: E2 05 01 79 30 34 35 17  80 1C 8C 80 52 8B 80 1E  ...y045.....R...
04F0: E2 05 01 1E E2 05 01 79  30 34 35 45 8B 80 F0 FF  .......y045E....
0500: FF 7F F0 FF FF 7F 79 30  35 32 17 80 27 10 93 E2  ......y052..'...
0510: 05 01 0C 27 10 95 E2 05  01 0C BA 44 E2 05 01 8D  ...'.......D....
0520: 80 8E 80 27 80 8F 80 BA  45 E2 05 01 8D 80 8E 80  ...'....E.......
0530: 27 80 8F 80 BA 46 E2 05  01 8D 80 8E 80 27 80 8F  '....F.......'..
0540: 80 29 10 23 E2 05 01 02  29 10 24 E2 05 01 02 79  .).#....).$....y
0550: 00 28 E2 05 01 20 E2 05  01 66 90 80 28 E2 05 01  .(... ...f..(...
0560: 28 E2 05 01 74 6C 6B 30  27 10 FE E2 05 01 0F 27  (...tlk0'......'
0570: 10 FF E2 05 01 10 27 10  00 E3 05 01 11 1C 06 80  ......'.........
0580: 27 10 44 E2 05 01 13 27  10 45 E2 05 01 15 27 10  '.D....'.E....'.
0590: 46 E2 05 01 16 27 10 11  E3 05 01 12 05 09 10 00  F....'..........
```

#### Opcodes

```
  0: 0x04C3 [0x06] Work_Zone[9] = 0
  1: 0x04C6 [0x1C] WAIT(150* ticks)
  2: 0x04C9 [0x52] END_LOAD_SCHEDULER: End scheduler "y042" with entities [LocalPlayer, LocalPlayer], work=533*
  3: 0x04D8 [0x45] LOAD_SCHEDULED_TASK: Load scheduler "y045" with entities [02 (ID: 17162782/0x0105E21E), 02 (ID: 17162782/0x0105E21E)], work=[533*, 0*]
  4: 0x04E9 [0x1C] WAIT(300* ticks)
  5: 0x04EC [0x52] END_LOAD_SCHEDULER: End scheduler "y045" with entities [02 (ID: 17162782/0x0105E21E), 02 (ID: 17162782/0x0105E21E)], work=533*
  6: 0x04FB [0x45] LOAD_SCHEDULED_TASK: Load scheduler "y052" with entities [LocalPlayer, LocalPlayer], work=[533*, 0*]
  7: 0x050C [0x27] REQ_SET(priority=0x10, entity_id=01 (ID: 17162899/0x0105E293), tag_num=0x0C)
  8: 0x0513 [0x27] REQ_SET(priority=0x10, entity_id=02 (ID: 17162901/0x0105E295), tag_num=0x0C)
  9: 0x051A [0xBA] SET_ENTITY_POSITION(entity_id=02 (ID: 17162820/0x0105E244), pos_x=-60.989*, pos_z=70.254*, pos_y=-3.499*, direction=359.7°*)
 10: 0x0527 [0xBA] SET_ENTITY_POSITION(entity_id=03 (ID: 17162821/0x0105E245), pos_x=-60.989*, pos_z=70.254*, pos_y=-3.499*, direction=359.7°*)
 11: 0x0534 [0xBA] SET_ENTITY_POSITION(entity_id=04 (ID: 17162822/0x0105E246), pos_x=-60.989*, pos_z=70.254*, pos_y=-3.499*, direction=359.7°*)
 12: 0x0541 [0x29] REQ_SET_WAIT(priority=0x10, entity_id=07 (ID: 17162787/0x0105E223), tag_num=0x02)
 13: 0x0548 [0x29] REQ_SET_WAIT(priority=0x10, entity_id=Unnamed NPC (ID: 17162788/0x0105E224), tag_num=0x02)
 14: 0x054F [0x79] Unnamed NPC (ID: 17162792/0x0105E228) looks at 04 (ID: 17162784/0x0105E220) (Basic look)
 15: 0x0559 [0x66] LOAD_EXT_SCHEDULER_MAIN: Load scheduler "tlk0" with entities [Unnamed NPC (ID: 17162792/0x0105E228), Unnamed NPC (ID: 17162792/0x0105E228)], work=49*
 16: 0x0568 [0x27] REQ_SET(priority=0x10, entity_id=01 (ID: 17163006/0x0105E2FE), tag_num=0x0F)
 17: 0x056F [0x27] REQ_SET(priority=0x10, entity_id=02 (ID: 17163007/0x0105E2FF), tag_num=0x10)
 18: 0x0576 [0x27] REQ_SET(priority=0x10, entity_id=03 (ID: 17163008/0x0105E300), tag_num=0x11)
 19: 0x057D [0x1C] WAIT(5* ticks)
 20: 0x0580 [0x27] REQ_SET(priority=0x10, entity_id=02 (ID: 17162820/0x0105E244), tag_num=0x13)
 21: 0x0587 [0x27] REQ_SET(priority=0x10, entity_id=03 (ID: 17162821/0x0105E245), tag_num=0x15)
 22: 0x058E [0x27] REQ_SET(priority=0x10, entity_id=04 (ID: 17162822/0x0105E246), tag_num=0x16)
 23: 0x0595 [0x27] REQ_SET(priority=0x10, entity_id=Unnamed NPC (ID: 17163025/0x0105E311), tag_num=0x12)
 24: 0x059C [0x05] Work_Zone[9] = 1
 25: 0x059F [0x00] END_REQSTACK()
```

### Event 65535.30

#### Metadata

| Field        | Value    |
|--------------|----------|
| Entrypoint   | 0x05A0   |
| Data Size    | 76 bytes |
| Instructions | 8        |

```
      00 01 02 03 04 05 06 07  08 09 0A 0B 0C 0D 0E 0F
      -- -- -- -- -- -- -- --  -- -- -- -- -- -- -- --
05A0: 06 08 10 55 8B 80 F0 FF  FF 7F F0 FF FF 7F 79 30  ...U..........y0
05B0: 35 32 52 8B 80 F0 FF FF  7F F0 FF FF 7F 79 30 35  52R..........y05
05C0: 32 27 10 1F E2 05 01 09  45 8B 80 F0 FF FF 7F F0  2'......E.......
05D0: FF FF 7F 79 30 35 34 17  80 05 08 10 55 8B 80 F0  ...y054.....U...
05E0: FF FF 7F F0 FF FF 7F 79  30 35 34 00              .......y054.    
```

#### Opcodes

```
  0: 0x05A0 [0x06] Work_Zone[8] = 0
  1: 0x05A3 [0x55] WAIT_LOAD_SCHEDULER: Wait for scheduler "y052" with entities [LocalPlayer, LocalPlayer], work=533*
  2: 0x05B2 [0x52] END_LOAD_SCHEDULER: End scheduler "y052" with entities [LocalPlayer, LocalPlayer], work=533*
  3: 0x05C1 [0x27] REQ_SET(priority=0x10, entity_id=03 (ID: 17162783/0x0105E21F), tag_num=0x09)
  4: 0x05C8 [0x45] LOAD_SCHEDULED_TASK: Load scheduler "y054" with entities [LocalPlayer, LocalPlayer], work=[533*, 0*]
  5: 0x05D9 [0x05] Work_Zone[8] = 1
  6: 0x05DC [0x55] WAIT_LOAD_SCHEDULER: Wait for scheduler "y054" with entities [LocalPlayer, LocalPlayer], work=533*
  7: 0x05EB [0x00] END_REQSTACK()
```

### Event 65535.31

#### Metadata

| Field        | Value    |
|--------------|----------|
| Entrypoint   | 0x05EC   |
| Data Size    | 49 bytes |
| Instructions | 5        |

```
      00 01 02 03 04 05 06 07  08 09 0A 0B 0C 0D 0E 0F
      -- -- -- -- -- -- -- --  -- -- -- -- -- -- -- --
05E0:                                      7B 06 E2 05              {...
05F0: 01 5B 91 80 06 E2 05 01  06 E2 05 01 6B 75 69 30  .[..........kui0
0600: 53 06 E2 05 01 06 E2 05  01 6B 75 69 30 5B 91 80  S........kui0[..
0610: 06 E2 05 01 06 E2 05 01  65 68 6E 30 00           ........ehn0.   
```

#### Opcodes

```
  0: 0x05EC [0x7B] Ajido-Marujido (ID: 17162758/0x0105E206) stops talking
  1: 0x05F1 [0x5B] LOAD_EXT_SCHEDULER: Load scheduler "kui0" with entities [Ajido-Marujido (ID: 17162758/0x0105E206), Ajido-Marujido (ID: 17162758/0x0105E206)], work=1288*
  2: 0x0600 [0x53] WAIT_SCHEDULER_TASK: Wait for scheduler "kui0" with entities [Ajido-Marujido (ID: 17162758/0x0105E206), Ajido-Marujido (ID: 17162758/0x0105E206)]
  3: 0x060D [0x5B] LOAD_EXT_SCHEDULER: Load scheduler "ehn0" with entities [Ajido-Marujido (ID: 17162758/0x0105E206), Ajido-Marujido (ID: 17162758/0x0105E206)], work=1288*
  4: 0x061C [0x00] END_REQSTACK()
```

### Event 65535.32

#### Metadata

| Field        | Value    |
|--------------|----------|
| Entrypoint   | 0x061D   |
| Data Size    | 29 bytes |
| Instructions | 6        |

```
      00 01 02 03 04 05 06 07  08 09 0A 0B 0C 0D 0E 0F
      -- -- -- -- -- -- -- --  -- -- -- -- -- -- -- --
0610:                                         59 04 F8               Y..
0620: FF FF 7F 6E 80 1F 00 92  80 93 80 14 80 1F 01 6F  ...n...........o
0630: 4A 43 E2 05 01 06 E2 05  01 00                    JC........      
```

#### Opcodes

```
  0: 0x061D [0x59] UPDATE_ENTITY_DATA: Set EventEntity main speed = 40* * 0.1
  1: 0x0625 [0x1F] MOVE_ENTITY: EventEntity moves to X=-5.296*, Z=12.328*, Y=-1.000*
  2: 0x062D [0x1F] MOVE_ENTITY: Update entity position (mode=1)
  3: 0x062F [0x6F] WAIT_FRAME_DELAY: Yield until WaitTime reaches zero
  4: 0x0630 [0x4A] 01 (ID: 17162819/0x0105E243) looks at Ajido-Marujido (ID: 17162758/0x0105E206)
  5: 0x0639 [0x00] END_REQSTACK()
```

### Event 65535.33

#### Metadata

| Field        | Value    |
|--------------|----------|
| Entrypoint   | 0x063A   |
| Data Size    | 49 bytes |
| Instructions | 7        |

```
      00 01 02 03 04 05 06 07  08 09 0A 0B 0C 0D 0E 0F
      -- -- -- -- -- -- -- --  -- -- -- -- -- -- -- --
0630:                                1C 94 80 5B 91 80            ...[..
0640: 06 E2 05 01 06 E2 05 01  65 68 6E 31 4A 06 E2 05  ........ehn1J...
0650: 01 43 E2 05 01 6F 76 06  E2 05 01 5B 95 80 06 E2  .C...ov....[....
0660: 05 01 06 E2 05 01 73 75  72 30 00                 ......sur0.     
```

#### Opcodes

```
  0: 0x063A [0x1C] WAIT(160* ticks)
  1: 0x063D [0x5B] LOAD_EXT_SCHEDULER: Load scheduler "ehn1" with entities [Ajido-Marujido (ID: 17162758/0x0105E206), Ajido-Marujido (ID: 17162758/0x0105E206)], work=1288*
  2: 0x064C [0x4A] Ajido-Marujido (ID: 17162758/0x0105E206) looks at 01 (ID: 17162819/0x0105E243)
  3: 0x0655 [0x6F] WAIT_FRAME_DELAY: Yield until WaitTime reaches zero
  4: 0x0656 [0x76] CHECK_ENTITY_RENDER_FLAGS: Wait until Ajido-Marujido (ID: 17162758/0x0105E206) Render.Flags0 and Render.Flags3 conditions are met
  5: 0x065B [0x5B] LOAD_EXT_SCHEDULER: Load scheduler "sur0" with entities [Ajido-Marujido (ID: 17162758/0x0105E206), Ajido-Marujido (ID: 17162758/0x0105E206)], work=85*
  6: 0x066A [0x00] END_REQSTACK()
```

### Event 65535.34

#### Metadata

| Field        | Value    |
|--------------|----------|
| Entrypoint   | 0x066B   |
| Data Size    | 20 bytes |
| Instructions | 5        |

```
      00 01 02 03 04 05 06 07  08 09 0A 0B 0C 0D 0E 0F
      -- -- -- -- -- -- -- --  -- -- -- -- -- -- -- --
0660:                                   59 04 F8 FF FF             Y....
0670: 7F 96 80 1F 00 97 80 98  80 14 80 1F 01 6F 00     .............o. 
```

#### Opcodes

```
  0: 0x066B [0x59] UPDATE_ENTITY_DATA: Set EventEntity main speed = 7* * 0.1
  1: 0x0673 [0x1F] MOVE_ENTITY: EventEntity moves to X=-0.307*, Z=13.248*, Y=-1.000*
  2: 0x067B [0x1F] MOVE_ENTITY: Update entity position (mode=1)
  3: 0x067D [0x6F] WAIT_FRAME_DELAY: Yield until WaitTime reaches zero
  4: 0x067E [0x00] END_REQSTACK()
```

### Event 65535.35

#### Metadata

| Field        | Value    |
|--------------|----------|
| Entrypoint   | 0x067F   |
| Data Size    | 47 bytes |
| Instructions | 6        |

```
      00 01 02 03 04 05 06 07  08 09 0A 0B 0C 0D 0E 0F
      -- -- -- -- -- -- -- --  -- -- -- -- -- -- -- --
0670:                                               5B                 [
0680: 95 80 06 E2 05 01 06 E2  05 01 73 75 72 30 53 06  ..........sur0S.
0690: E2 05 01 06 E2 05 01 73  75 72 30 59 04 F8 FF FF  .......sur0Y....
06A0: 7F 99 80 1F 00 9A 80 9B  80 5B 80 1F 01 00        .........[....  
```

#### Opcodes

```
  0: 0x067F [0x5B] LOAD_EXT_SCHEDULER: Load scheduler "sur0" with entities [Ajido-Marujido (ID: 17162758/0x0105E206), Ajido-Marujido (ID: 17162758/0x0105E206)], work=85*
  1: 0x068E [0x53] WAIT_SCHEDULER_TASK: Wait for scheduler "sur0" with entities [Ajido-Marujido (ID: 17162758/0x0105E206), Ajido-Marujido (ID: 17162758/0x0105E206)]
  2: 0x069B [0x59] UPDATE_ENTITY_DATA: Set EventEntity main speed = 35* * 0.1
  3: 0x06A3 [0x1F] MOVE_ENTITY: EventEntity moves to X=-1.006*, Z=16.226*, Y=-0.999*
  4: 0x06AB [0x1F] MOVE_ENTITY: Update entity position (mode=1)
  5: 0x06AD [0x00] END_REQSTACK()
```

### Event 65535.36

#### Metadata

| Field        | Value    |
|--------------|----------|
| Entrypoint   | 0x06AE   |
| Data Size    | 21 bytes |
| Instructions | 3        |

```
      00 01 02 03 04 05 06 07  08 09 0A 0B 0C 0D 0E 0F
      -- -- -- -- -- -- -- --  -- -- -- -- -- -- -- --
06A0:                                            1C 9C                ..
06B0: 80 45 9D 80 F0 FF FF 7F  F0 FF FF 7F 62 6C 6F 6E  .E..........blon
06C0: 17 80 00                                          ...             
```

#### Opcodes

```
  0: 0x06AE [0x1C] WAIT(75* ticks)
  1: 0x06B1 [0x45] LOAD_SCHEDULED_TASK: Load scheduler "blon" with entities [LocalPlayer, LocalPlayer], work=[201*, 0*]
  2: 0x06C2 [0x00] END_REQSTACK()
```

### Event 65535.37

#### Metadata

| Field        | Value     |
|--------------|-----------|
| Entrypoint   | 0x06C3    |
| Data Size    | 161 bytes |
| Instructions | 17        |

```
      00 01 02 03 04 05 06 07  08 09 0A 0B 0C 0D 0E 0F
      -- -- -- -- -- -- -- --  -- -- -- -- -- -- -- --
06C0:          59 04 F8 FF FF  7F 99 80 1F 00 9E 80 9F     Y............
06D0: 80 14 80 1F 01 6F BA F0  FF FF 7F A0 80 A1 80 5B  .....o.........[
06E0: 80 A2 80 1C 06 80 5B A3  80 06 E2 05 01 06 E2 05  ......[.........
06F0: 01 61 75 70 30 53 06 E2  05 01 06 E2 05 01 61 75  .aup0S........au
0700: 70 30 50 06 E2 05 01 06  E2 05 01 61 75 70 30 5B  p0P........aup0[
0710: A4 80 43 E2 05 01 43 E2  05 01 6A 74 30 30 5B A5  ..C...C...jt00[.
0720: 80 06 E2 05 01 06 E2 05  01 6A 74 30 30 55 A6 80  .........jt00U..
0730: F0 FF FF 7F F0 FF FF 7F  79 31 32 31 27 10 43 E2  ........y121'.C.
0740: 05 01 03 BA 06 E2 05 01  9E 80 9F 80 14 80 A7 80  ................
0750: 4A FF E1 05 01 06 E2 05  01 79 00 FF E1 05 01 06  J........y......
0760: E2 05 01 00                                       ....            
```

#### Opcodes

```
  0: 0x06C3 [0x59] UPDATE_ENTITY_DATA: Set EventEntity main speed = 35* * 0.1
  1: 0x06CB [0x1F] MOVE_ENTITY: EventEntity moves to X=-1.058*, Z=17.433*, Y=-1.000*
  2: 0x06D3 [0x1F] MOVE_ENTITY: Update entity position (mode=1)
  3: 0x06D5 [0x6F] WAIT_FRAME_DELAY: Yield until WaitTime reaches zero
  4: 0x06D6 [0xBA] SET_ENTITY_POSITION(entity_id=LocalPlayer, pos_x=1.032*, pos_z=15.680*, pos_y=-0.999*, direction=220.0°*)
  5: 0x06E3 [0x1C] WAIT(5* ticks)
  6: 0x06E6 [0x5B] LOAD_EXT_SCHEDULER: Load scheduler "aup0" with entities [Ajido-Marujido (ID: 17162758/0x0105E206), Ajido-Marujido (ID: 17162758/0x0105E206)], work=1286*
  7: 0x06F5 [0x53] WAIT_SCHEDULER_TASK: Wait for scheduler "aup0" with entities [Ajido-Marujido (ID: 17162758/0x0105E206), Ajido-Marujido (ID: 17162758/0x0105E206)]
  8: 0x0702 [0x50] END_SCHEDULER_TASK: End scheduler "au" with entities [0xE206, 0xE206], work=[261, 261]
  9: 0x070F [0x5B] LOAD_EXT_SCHEDULER: Load scheduler "jt00" with entities [01 (ID: 17162819/0x0105E243), 01 (ID: 17162819/0x0105E243)], work=181*
 10: 0x071E [0x5B] LOAD_EXT_SCHEDULER: Load scheduler "jt00" with entities [Ajido-Marujido (ID: 17162758/0x0105E206), Ajido-Marujido (ID: 17162758/0x0105E206)], work=86*
 11: 0x072D [0x55] WAIT_LOAD_SCHEDULER: Wait for scheduler "y121" with entities [LocalPlayer, LocalPlayer], work=393*
 12: 0x073C [0x27] REQ_SET(priority=0x10, entity_id=01 (ID: 17162819/0x0105E243), tag_num=0x03)
 13: 0x0743 [0xBA] SET_ENTITY_POSITION(entity_id=Ajido-Marujido (ID: 17162758/0x0105E206), pos_x=-1.058*, pos_z=17.433*, pos_y=-1.000*, direction=266.2°*)
 14: 0x0750 [0x4A] Dhea Prandoleh (ID: 17162751/0x0105E1FF) looks at Ajido-Marujido (ID: 17162758/0x0105E206)
 15: 0x0759 [0x79] Dhea Prandoleh (ID: 17162751/0x0105E1FF) looks at Ajido-Marujido (ID: 17162758/0x0105E206) (Basic look)
 16: 0x0763 [0x00] END_REQSTACK()
```

### Event 65535.38

#### Metadata

| Field        | Value    |
|--------------|----------|
| Entrypoint   | 0x0764   |
| Data Size    | 20 bytes |
| Instructions | 5        |

```
      00 01 02 03 04 05 06 07  08 09 0A 0B 0C 0D 0E 0F
      -- -- -- -- -- -- -- --  -- -- -- -- -- -- -- --
0760:             59 04 F8 FF  FF 7F A8 80 1F 00 A9 80      Y...........
0770: AA 80 AB 80 1F 01 6F 00                           ......o.        
```

#### Opcodes

```
  0: 0x0764 [0x59] UPDATE_ENTITY_DATA: Set EventEntity main speed = 36* * 0.1
  1: 0x076C [0x1F] MOVE_ENTITY: EventEntity moves to X=-7.685*, Z=7.819*, Y=-1.026*
  2: 0x0774 [0x1F] MOVE_ENTITY: Update entity position (mode=1)
  3: 0x0776 [0x6F] WAIT_FRAME_DELAY: Yield until WaitTime reaches zero
  4: 0x0777 [0x00] END_REQSTACK()
```

### Event 20

#### Metadata

| Field        | Value   |
|--------------|---------|
| Entrypoint   | 0x0778  |
| Data Size    | 1 bytes |
| Instructions | 1       |

```
      00 01 02 03 04 05 06 07  08 09 0A 0B 0C 0D 0E 0F
      -- -- -- -- -- -- -- --  -- -- -- -- -- -- -- --
0770:                          00                               .       
```

#### Opcodes

```
  0: 0x0778 [0x00] END_REQSTACK()
```

### Event 23

#### Metadata

| Field        | Value   |
|--------------|---------|
| Entrypoint   | 0x0779  |
| Data Size    | 1 bytes |
| Instructions | 1       |

```
      00 01 02 03 04 05 06 07  08 09 0A 0B 0C 0D 0E 0F
      -- -- -- -- -- -- -- --  -- -- -- -- -- -- -- --
0770:                             00                             .      
```

#### Opcodes

```
  0: 0x0779 [0x00] END_REQSTACK()
```

### Event 24

#### Metadata

| Field        | Value   |
|--------------|---------|
| Entrypoint   | 0x077A  |
| Data Size    | 1 bytes |
| Instructions | 1       |

```
      00 01 02 03 04 05 06 07  08 09 0A 0B 0C 0D 0E 0F
      -- -- -- -- -- -- -- --  -- -- -- -- -- -- -- --
0770:                                00                           .     
```

#### Opcodes

```
  0: 0x077A [0x00] END_REQSTACK()
```

### Event 25

#### Metadata

| Field        | Value   |
|--------------|---------|
| Entrypoint   | 0x077B  |
| Data Size    | 1 bytes |
| Instructions | 1       |

```
      00 01 02 03 04 05 06 07  08 09 0A 0B 0C 0D 0E 0F
      -- -- -- -- -- -- -- --  -- -- -- -- -- -- -- --
0770:                                   00                         .    
```

#### Opcodes

```
  0: 0x077B [0x00] END_REQSTACK()
```
