# 17162694 - _2m4

## Common Data

| Field            | Value                        |
|------------------|------------------------------|
| Zone             | Windurst Waters [S] (ID: 94) |
| Block Size       | 2496 bytes                   |
| Total Events     | 31                           |
| References Count | 150                          |

## List of Events

| Event ID                   | Entrypoint   |   Size |   Instructions |
|----------------------------|--------------|--------|----------------|
| [65535](#event-65535)      | 0x0000       |      1 |              1 |
| [65535.1](#event-655351)   | 0x0001       |     22 |              2 |
| [65535.2](#event-655352)   | 0x0017       |    167 |             35 |
| [65535.3](#event-655353)   | 0x00BE       |    186 |             38 |
| [65535.4](#event-655354)   | 0x0178       |     83 |             18 |
| [65535.5](#event-655355)   | 0x01CB       |    154 |             32 |
| [65535.6](#event-655356)   | 0x0265       |    167 |             35 |
| [65535.7](#event-655357)   | 0x030C       |     69 |             15 |
| [65535.8](#event-655358)   | 0x0351       |     38 |              9 |
| [65535.9](#event-655359)   | 0x0377       |     38 |              9 |
| [65535.10](#event-6553510) | 0x039D       |     48 |             11 |
| [65535.11](#event-6553511) | 0x03CD       |     19 |              4 |
| [65535.12](#event-6553512) | 0x03E0       |     22 |              5 |
| [65535.13](#event-6553513) | 0x03F6       |     22 |              5 |
| [65535.14](#event-6553514) | 0x040C       |     13 |              5 |
| [65535.15](#event-6553515) | 0x0419       |    221 |             26 |
| [65535.16](#event-6553516) | 0x04F6       |     76 |              8 |
| [65535.17](#event-6553517) | 0x0542       |     49 |              5 |
| [65535.18](#event-6553518) | 0x0573       |     29 |              6 |
| [65535.19](#event-6553519) | 0x0590       |     49 |              7 |
| [65535.20](#event-6553520) | 0x05C1       |     20 |              5 |
| [65535.21](#event-6553521) | 0x05D5       |     47 |              6 |
| [65535.22](#event-6553522) | 0x0604       |     21 |              3 |
| [65535.23](#event-6553523) | 0x0619       |    161 |             17 |
| [65535.24](#event-6553524) | 0x06BA       |     20 |              5 |
| [20](#event-20)            | 0x06CE       |      2 |              2 |
| [31](#event-31)            | 0x06D0       |      2 |              2 |
| [32](#event-32)            | 0x06D2       |      2 |              2 |
| [37](#event-37)            | 0x06D4       |      2 |              2 |
| [42](#event-42)            | 0x06D6       |      2 |              2 |
| [43](#event-43)            | 0x06D8       |      2 |              2 |

## DAT References (imed_data)

|   Index | Hex Value   |   Dec Value |
|---------|-------------|-------------|
|       0 | 0x0000      |           0 |
|       1 | 0x0004      |           4 |
|       2 | 0x0001      |           1 |
|       3 | 0x001E      |          30 |
|       4 | 0x0050      |          80 |
|       5 | 0x01CB      |         459 |
|       6 | 0xC01D      |       49181 |
|       7 | 0xFFFFFC18  |  4294966296 |
|       8 | 0xFFFFF61D  |  4294964765 |
|       9 | 0xB4CD      |       46285 |
|      10 | 0xFFFFE4A1  |  4294960289 |
|      11 | 0xA1E9      |       41449 |
|      12 | 0xFFFFCB4E  |  4294953806 |
|      13 | 0x99E9      |       39401 |
|      14 | 0xFFFF383B  |  4294916155 |
|      15 | 0x975A      |       38746 |
|      16 | 0xFFFFF255  |  4294963797 |
|      17 | 0xFFFF0950  |  4294904144 |
|      18 | 0xA6EB      |       42731 |
|      19 | 0xFFFEE28D  |  4294894221 |
|      20 | 0xCA5B      |       51803 |
|      21 | 0xFFFECCEB  |  4294888683 |
|      22 | 0xE7E4      |       59364 |
|      23 | 0xFFFED4DC  |  4294890716 |
|      24 | 0x12692     |       75410 |
|      25 | 0xFFFF05FC  |  4294903292 |
|      26 | 0x13DD1     |       81361 |
|      27 | 0xFFFFEC78  |  4294962296 |
|      28 | 0xFFFF3FE9  |  4294918121 |
|      29 | 0x14635     |       83509 |
|      30 | 0xFFFFEC79  |  4294962297 |
|      31 | 0xFFFF58F1  |  4294924529 |
|      32 | 0x156CB     |       87755 |
|      33 | 0xFFFF5F95  |  4294926229 |
|      34 | 0x16818     |       92184 |
|      35 | 0xFFFF633B  |  4294927163 |
|      36 | 0x28E9B     |      167579 |
|      37 | 0xFFFFEC61  |  4294962273 |
|      38 | 0x0096      |         150 |
|      39 | 0x004F      |          79 |
|      40 | 0xFFFFFD21  |  4294966561 |
|      41 | 0xCD5B      |       52571 |
|      42 | 0xFFFFF472  |  4294964338 |
|      43 | 0xC585      |       50565 |
|      44 | 0xFFFFE64E  |  4294960718 |
|      45 | 0xAABD      |       43709 |
|      46 | 0xFFFFD9CC  |  4294957516 |
|      47 | 0x9B38      |       39736 |
|      48 | 0xFFFFCCF6  |  4294954230 |
|      49 | 0x9802      |       38914 |
|      50 | 0xFFFF64E4  |  4294927588 |
|      51 | 0x15EE3     |       89827 |
|      52 | 0xFFFF68EB  |  4294928619 |
|      53 | 0x16CEC     |       93420 |
|      54 | 0xFFFF6A76  |  4294929014 |
|      55 | 0x1835B     |       99163 |
|      56 | 0x0019      |          25 |
|      57 | 0xFFFF9D93  |  4294942099 |
|      58 | 0x153C3     |       86979 |
|      59 | 0x004E      |          78 |
|      60 | 0xFFFF7F27  |  4294934311 |
|      61 | 0x170BF     |       94399 |
|      62 | 0xFFFF6EA5  |  4294930085 |
|      63 | 0x181BB     |       98747 |
|      64 | 0xFFFF6986  |  4294928774 |
|      65 | 0x1A277     |      107127 |
|      66 | 0xFFFFE83A  |  4294961210 |
|      67 | 0x79A0      |       31136 |
|      68 | 0xFFFFFC19  |  4294966297 |
|      69 | 0xFFFFE0B0  |  4294959280 |
|      70 | 0x893B      |       35131 |
|      71 | 0xFFFFD29F  |  4294955679 |
|      72 | 0x9856      |       38998 |
|      73 | 0x00B4      |         180 |
|      74 | 0xFFFFF934  |  4294965556 |
|      75 | 0x7B9B      |       31643 |
|      76 | 0xFFFFEFB1  |  4294963121 |
|      77 | 0x9085      |       36997 |
|      78 | 0xFFFFDE20  |  4294958624 |
|      79 | 0xA00A      |       40970 |
|      80 | 0x0168      |         360 |
|      81 | 0x000F      |          15 |
|      82 | 0xFFFF96A6  |  4294940326 |
|      83 | 0xF877      |       63607 |
|      84 | 0xFFFFF254  |  4294963796 |
|      85 | 0xFFFF9B5E  |  4294941534 |
|      86 | 0xF61A      |       63002 |
|      87 | 0x0028      |          40 |
|      88 | 0xFFFF46D2  |  4294919890 |
|      89 | 0xE60E      |       58894 |
|      90 | 0xFFFF2186  |  4294910342 |
|      91 | 0xD0D7      |       53463 |
|      92 | 0x001B      |          27 |
|      93 | 0xFFFF8952  |  4294936914 |
|      94 | 0x12369     |       74601 |
|      95 | 0xFFFFF20A  |  4294963722 |
|      96 | 0xFFFF2B43  |  4294912835 |
|      97 | 0x10F50     |       69456 |
|      98 | 0xFFFF8D73  |  4294937971 |
|      99 | 0x1266B     |       75371 |
|     100 | 0xFFFFF237  |  4294963767 |
|     101 | 0xFFFF3027  |  4294914087 |
|     102 | 0x113AF     |       70575 |
|     103 | 0xFFFF938A  |  4294939530 |
|     104 | 0x11F80     |       73600 |
|     105 | 0xFFFFF2AA  |  4294963882 |
|     106 | 0xFFFF3332  |  4294914866 |
|     107 | 0x11FA6     |       73638 |
|     108 | 0xFFFF2C4F  |  4294913103 |
|     109 | 0x1196C     |       72044 |
|     110 | 0x002A      |          42 |
|     111 | 0xFFFFA76A  |  4294944618 |
|     112 | 0x13DC9     |       81353 |
|     113 | 0x003C      |          60 |
|     114 | 0x0078      |         120 |
|     115 | 0x0258      |         600 |
|     116 | 0x0005      |           5 |
|     117 | 0x0215      |         533 |
|     118 | 0x012C      |         300 |
|     119 | 0xFFFF11C3  |  4294906307 |
|     120 | 0x1126E     |       70254 |
|     121 | 0x0FFD      |        4093 |
|     122 | 0x0031      |          49 |
|     123 | 0x0508      |        1288 |
|     124 | 0xFFFFEB50  |  4294962000 |
|     125 | 0x3028      |       12328 |
|     126 | 0x00A0      |         160 |
|     127 | 0x0055      |          85 |
|     128 | 0x0007      |           7 |
|     129 | 0xFFFFFECD  |  4294966989 |
|     130 | 0x33C0      |       13248 |
|     131 | 0x0023      |          35 |
|     132 | 0xFFFFFC12  |  4294966290 |
|     133 | 0x3F62      |       16226 |
|     134 | 0x004B      |          75 |
|     135 | 0x00C9      |         201 |
|     136 | 0xFFFFFBDE  |  4294966238 |
|     137 | 0x4419      |       17433 |
|     138 | 0x0408      |        1032 |
|     139 | 0x3D40      |       15680 |
|     140 | 0x09C7      |        2503 |
|     141 | 0x0506      |        1286 |
|     142 | 0x00B5      |         181 |
|     143 | 0x0056      |          86 |
|     144 | 0x0189      |         393 |
|     145 | 0x0BD5      |        3029 |
|     146 | 0x0024      |          36 |
|     147 | 0xFFFFE1FB  |  4294959611 |
|     148 | 0x1E8B      |        7819 |
|     149 | 0xFFFFFBFE  |  4294966270 |

## Events

### Event 65535

#### Metadata

| Field        | Value   |
|--------------|---------|
| Entrypoint   | 0x0000  |
| Data Size    | 1 bytes |
| Instructions | 1       |

```
      00 01 02 03 04 05 06 07  08 09 0A 0B 0C 0D 0E 0F
      -- -- -- -- -- -- -- --  -- -- -- -- -- -- -- --
0000: 00                                                .               
```

#### Opcodes

```
  0: 0x0000 [0x00] END_REQSTACK()
```

### Event 65535.1

#### Metadata

| Field        | Value    |
|--------------|----------|
| Entrypoint   | 0x0001   |
| Data Size    | 22 bytes |
| Instructions | 2        |

```
      00 01 02 03 04 05 06 07  08 09 0A 0B 0C 0D 0E 0F
      -- -- -- -- -- -- -- --  -- -- -- -- -- -- -- --
0000:    B6 0E 00 80 01 80 02  80 00 80 00 80 00 80 02   ...............
0010: 80 80 F8 FF FF 7F 00                              .......         
```

#### Opcodes

```
  0: 0x0001 [0xB6] ENTITY_APPEARANCE_HANDLER(case=Look with Render flags, race=0*, face=4*, head=1*, body=0*, hands=0*, render_flags=0x8000)
  1: 0x000F [0x02] IF !(7* UNKNOWN_COND_15 0xFFF8) GOTO 0x007F
```

### Event 65535.2

#### Metadata

| Field        | Value     |
|--------------|-----------|
| Entrypoint   | 0x0017    |
| Data Size    | 167 bytes |
| Instructions | 35        |

```
      00 01 02 03 04 05 06 07  08 09 0A 0B 0C 0D 0E 0F
      -- -- -- -- -- -- -- --  -- -- -- -- -- -- -- --
0010:                      1C  03 80 59 04 1D E2 05 01         ...Y.....
0020: 04 80 1F 00 05 80 06 80  07 80 1F 01 1F 00 08 80  ................
0030: 09 80 07 80 1F 01 1F 00  0A 80 0B 80 07 80 1F 01  ................
0040: 1F 00 0C 80 0D 80 07 80  1F 01 1F 00 0E 80 0F 80  ................
0050: 10 80 1F 01 1F 00 11 80  12 80 10 80 1F 01 1F 00  ................
0060: 13 80 14 80 10 80 1F 01  1F 00 15 80 16 80 10 80  ................
0070: 1F 01 1F 00 17 80 18 80  10 80 1F 01 1F 00 19 80  ................
0080: 1A 80 1B 80 1F 01 1F 00  1C 80 1D 80 1E 80 1F 01  ................
0090: 1F 00 1F 80 20 80 1E 80  1F 01 1F 00 21 80 22 80  .... .......!.".
00A0: 1E 80 1F 01 1F 00 23 80  24 80 25 80 1F 01 6F 7E  ......#.$.%...o~
00B0: 05 1D E2 05 01 22 01 2F  01 F8 FF FF 7F 00        ....."./......  
```

#### Opcodes

```
  0: 0x0017 [0x1C] WAIT(30* ticks)
  1: 0x001A [0x59] UPDATE_ENTITY_DATA: Set 01 (ID: 17162781/0x0105E21D) main speed = 80* * 0.1
  2: 0x0022 [0x1F] MOVE_ENTITY: EventEntity moves to X=0.459*, Z=49.181*, Y=-1.000*
  3: 0x002A [0x1F] MOVE_ENTITY: Update entity position (mode=1)
  4: 0x002C [0x1F] MOVE_ENTITY: EventEntity moves to X=-2.531*, Z=46.285*, Y=-1.000*
  5: 0x0034 [0x1F] MOVE_ENTITY: Update entity position (mode=1)
  6: 0x0036 [0x1F] MOVE_ENTITY: EventEntity moves to X=-7.007*, Z=41.449*, Y=-1.000*
  7: 0x003E [0x1F] MOVE_ENTITY: Update entity position (mode=1)
  8: 0x0040 [0x1F] MOVE_ENTITY: EventEntity moves to X=-13.490*, Z=39.401*, Y=-1.000*
  9: 0x0048 [0x1F] MOVE_ENTITY: Update entity position (mode=1)
 10: 0x004A [0x1F] MOVE_ENTITY: EventEntity moves to X=-51.141*, Z=38.746*, Y=-3.499*
 11: 0x0052 [0x1F] MOVE_ENTITY: Update entity position (mode=1)
 12: 0x0054 [0x1F] MOVE_ENTITY: EventEntity moves to X=-63.152*, Z=42.731*, Y=-3.499*
 13: 0x005C [0x1F] MOVE_ENTITY: Update entity position (mode=1)
 14: 0x005E [0x1F] MOVE_ENTITY: EventEntity moves to X=-73.075*, Z=51.803*, Y=-3.499*
 15: 0x0066 [0x1F] MOVE_ENTITY: Update entity position (mode=1)
 16: 0x0068 [0x1F] MOVE_ENTITY: EventEntity moves to X=-78.613*, Z=59.364*, Y=-3.499*
 17: 0x0070 [0x1F] MOVE_ENTITY: Update entity position (mode=1)
 18: 0x0072 [0x1F] MOVE_ENTITY: EventEntity moves to X=-76.580*, Z=75.410*, Y=-3.499*
 19: 0x007A [0x1F] MOVE_ENTITY: Update entity position (mode=1)
 20: 0x007C [0x1F] MOVE_ENTITY: EventEntity moves to X=-64.004*, Z=81.361*, Y=-5.000*
 21: 0x0084 [0x1F] MOVE_ENTITY: Update entity position (mode=1)
 22: 0x0086 [0x1F] MOVE_ENTITY: EventEntity moves to X=-49.175*, Z=83.509*, Y=-4.999*
 23: 0x008E [0x1F] MOVE_ENTITY: Update entity position (mode=1)
 24: 0x0090 [0x1F] MOVE_ENTITY: EventEntity moves to X=-42.767*, Z=87.755*, Y=-4.999*
 25: 0x0098 [0x1F] MOVE_ENTITY: Update entity position (mode=1)
 26: 0x009A [0x1F] MOVE_ENTITY: EventEntity moves to X=-41.067*, Z=92.184*, Y=-4.999*
 27: 0x00A2 [0x1F] MOVE_ENTITY: Update entity position (mode=1)
 28: 0x00A4 [0x1F] MOVE_ENTITY: EventEntity moves to X=-40.133*, Z=167.579*, Y=-5.023*
 29: 0x00AC [0x1F] MOVE_ENTITY: Update entity position (mode=1)
 30: 0x00AE [0x6F] WAIT_FRAME_DELAY: Yield until WaitTime reaches zero
 31: 0x00AF [0x7E] CHOCOBO_MOUNT: Dismount 01 (ID: 17162781/0x0105E21D) (status = 0)
 32: 0x00B5 [0x22] ENTITY_HIDE_FLAG(enabled=0x01)
 33: 0x00B7 [0x2F] EventEntity->Render.Flags0 |= 0x80000 // Bit 19
 34: 0x00BD [0x00] END_REQSTACK()
```

### Event 65535.3

#### Metadata

| Field        | Value     |
|--------------|-----------|
| Entrypoint   | 0x00BE    |
| Data Size    | 186 bytes |
| Instructions | 38        |

```
      00 01 02 03 04 05 06 07  08 09 0A 0B 0C 0D 0E 0F
      -- -- -- -- -- -- -- --  -- -- -- -- -- -- -- --
00B0:                                            1C 26                .&
00C0: 80 59 04 1E E2 05 01 27  80 1F 00 28 80 29 80 07  .Y.....'...(.)..
00D0: 80 1F 01 1F 00 2A 80 2B  80 07 80 1F 01 1F 00 2C  .....*.+.......,
00E0: 80 2D 80 07 80 1F 01 1F  00 2E 80 2F 80 07 80 1F  .-........./....
00F0: 01 1F 00 30 80 31 80 07  80 1F 01 1F 00 0E 80 0F  ...0.1..........
0100: 80 10 80 1F 01 1F 00 11  80 12 80 10 80 1F 01 1F  ................
0110: 00 13 80 14 80 10 80 1F  01 1F 00 15 80 16 80 10  ................
0120: 80 1F 01 1F 00 17 80 18  80 10 80 1F 01 1F 00 19  ................
0130: 80 1A 80 1B 80 1F 01 1F  00 1C 80 1D 80 1E 80 1F  ................
0140: 01 1F 00 32 80 33 80 1E  80 1F 01 1F 00 34 80 35  ...2.3.......4.5
0150: 80 1E 80 1F 01 1F 00 36  80 37 80 1E 80 1F 01 1F  .......6.7......
0160: 00 23 80 24 80 25 80 1F  01 7E 05 1E E2 05 01 22  .#.$.%...~....."
0170: 01 2F 01 F8 FF FF 7F 00                           ./......        
```

#### Opcodes

```
  0: 0x00BE [0x1C] WAIT(150* ticks)
  1: 0x00C1 [0x59] UPDATE_ENTITY_DATA: Set 02 (ID: 17162782/0x0105E21E) main speed = 79* * 0.1
  2: 0x00C9 [0x1F] MOVE_ENTITY: EventEntity moves to X=-0.735*, Z=52.571*, Y=-1.000*
  3: 0x00D1 [0x1F] MOVE_ENTITY: Update entity position (mode=1)
  4: 0x00D3 [0x1F] MOVE_ENTITY: EventEntity moves to X=-2.958*, Z=50.565*, Y=-1.000*
  5: 0x00DB [0x1F] MOVE_ENTITY: Update entity position (mode=1)
  6: 0x00DD [0x1F] MOVE_ENTITY: EventEntity moves to X=-6.578*, Z=43.709*, Y=-1.000*
  7: 0x00E5 [0x1F] MOVE_ENTITY: Update entity position (mode=1)
  8: 0x00E7 [0x1F] MOVE_ENTITY: EventEntity moves to X=-9.780*, Z=39.736*, Y=-1.000*
  9: 0x00EF [0x1F] MOVE_ENTITY: Update entity position (mode=1)
 10: 0x00F1 [0x1F] MOVE_ENTITY: EventEntity moves to X=-13.066*, Z=38.914*, Y=-1.000*
 11: 0x00F9 [0x1F] MOVE_ENTITY: Update entity position (mode=1)
 12: 0x00FB [0x1F] MOVE_ENTITY: EventEntity moves to X=-51.141*, Z=38.746*, Y=-3.499*
 13: 0x0103 [0x1F] MOVE_ENTITY: Update entity position (mode=1)
 14: 0x0105 [0x1F] MOVE_ENTITY: EventEntity moves to X=-63.152*, Z=42.731*, Y=-3.499*
 15: 0x010D [0x1F] MOVE_ENTITY: Update entity position (mode=1)
 16: 0x010F [0x1F] MOVE_ENTITY: EventEntity moves to X=-73.075*, Z=51.803*, Y=-3.499*
 17: 0x0117 [0x1F] MOVE_ENTITY: Update entity position (mode=1)
 18: 0x0119 [0x1F] MOVE_ENTITY: EventEntity moves to X=-78.613*, Z=59.364*, Y=-3.499*
 19: 0x0121 [0x1F] MOVE_ENTITY: Update entity position (mode=1)
 20: 0x0123 [0x1F] MOVE_ENTITY: EventEntity moves to X=-76.580*, Z=75.410*, Y=-3.499*
 21: 0x012B [0x1F] MOVE_ENTITY: Update entity position (mode=1)
 22: 0x012D [0x1F] MOVE_ENTITY: EventEntity moves to X=-64.004*, Z=81.361*, Y=-5.000*
 23: 0x0135 [0x1F] MOVE_ENTITY: Update entity position (mode=1)
 24: 0x0137 [0x1F] MOVE_ENTITY: EventEntity moves to X=-49.175*, Z=83.509*, Y=-4.999*
 25: 0x013F [0x1F] MOVE_ENTITY: Update entity position (mode=1)
 26: 0x0141 [0x1F] MOVE_ENTITY: EventEntity moves to X=-39.708*, Z=89.827*, Y=-4.999*
 27: 0x0149 [0x1F] MOVE_ENTITY: Update entity position (mode=1)
 28: 0x014B [0x1F] MOVE_ENTITY: EventEntity moves to X=-38.677*, Z=93.420*, Y=-4.999*
 29: 0x0153 [0x1F] MOVE_ENTITY: Update entity position (mode=1)
 30: 0x0155 [0x1F] MOVE_ENTITY: EventEntity moves to X=-38.282*, Z=99.163*, Y=-4.999*
 31: 0x015D [0x1F] MOVE_ENTITY: Update entity position (mode=1)
 32: 0x015F [0x1F] MOVE_ENTITY: EventEntity moves to X=-40.133*, Z=167.579*, Y=-5.023*
 33: 0x0167 [0x1F] MOVE_ENTITY: Update entity position (mode=1)
 34: 0x0169 [0x7E] CHOCOBO_MOUNT: Dismount 02 (ID: 17162782/0x0105E21E) (status = 0)
 35: 0x016F [0x22] ENTITY_HIDE_FLAG(enabled=0x01)
 36: 0x0171 [0x2F] EventEntity->Render.Flags0 |= 0x80000 // Bit 19
 37: 0x0177 [0x00] END_REQSTACK()
```

### Event 65535.4

#### Metadata

| Field        | Value    |
|--------------|----------|
| Entrypoint   | 0x0178   |
| Data Size    | 83 bytes |
| Instructions | 18       |

```
      00 01 02 03 04 05 06 07  08 09 0A 0B 0C 0D 0E 0F
      -- -- -- -- -- -- -- --  -- -- -- -- -- -- -- --
0170:                          59 04 25 E2 05 01 38 80          Y.%...8.
0180: 1F 00 39 80 3A 80 1E 80  1F 01 6F 59 04 F8 FF FF  ..9.:.....oY....
0190: 7F 3B 80 1F 00 3C 80 3D  80 1E 80 1F 01 1F 00 3E  .;...<.=.......>
01A0: 80 3F 80 1E 80 1F 01 1F  00 40 80 41 80 1E 80 1F  .?.......@.A....
01B0: 01 1F 00 23 80 24 80 25  80 1F 01 6F 7E 05 25 E2  ...#.$.%...o~.%.
01C0: 05 01 22 01 2F 01 F8 FF  FF 7F 00                 .."./......     
```

#### Opcodes

```
  0: 0x0178 [0x59] UPDATE_ENTITY_DATA: Set Unnamed NPC (ID: 17162789/0x0105E225) main speed = 25* * 0.1
  1: 0x0180 [0x1F] MOVE_ENTITY: EventEntity moves to X=-25.197*, Z=86.979*, Y=-4.999*
  2: 0x0188 [0x1F] MOVE_ENTITY: Update entity position (mode=1)
  3: 0x018A [0x6F] WAIT_FRAME_DELAY: Yield until WaitTime reaches zero
  4: 0x018B [0x59] UPDATE_ENTITY_DATA: Set EventEntity main speed = 78* * 0.1
  5: 0x0193 [0x1F] MOVE_ENTITY: EventEntity moves to X=-32.985*, Z=94.399*, Y=-4.999*
  6: 0x019B [0x1F] MOVE_ENTITY: Update entity position (mode=1)
  7: 0x019D [0x1F] MOVE_ENTITY: EventEntity moves to X=-37.211*, Z=98.747*, Y=-4.999*
  8: 0x01A5 [0x1F] MOVE_ENTITY: Update entity position (mode=1)
  9: 0x01A7 [0x1F] MOVE_ENTITY: EventEntity moves to X=-38.522*, Z=107.127*, Y=-4.999*
 10: 0x01AF [0x1F] MOVE_ENTITY: Update entity position (mode=1)
 11: 0x01B1 [0x1F] MOVE_ENTITY: EventEntity moves to X=-40.133*, Z=167.579*, Y=-5.023*
 12: 0x01B9 [0x1F] MOVE_ENTITY: Update entity position (mode=1)
 13: 0x01BB [0x6F] WAIT_FRAME_DELAY: Yield until WaitTime reaches zero
 14: 0x01BC [0x7E] CHOCOBO_MOUNT: Dismount Unnamed NPC (ID: 17162789/0x0105E225) (status = 0)
 15: 0x01C2 [0x22] ENTITY_HIDE_FLAG(enabled=0x01)
 16: 0x01C4 [0x2F] EventEntity->Render.Flags0 |= 0x80000 // Bit 19
 17: 0x01CA [0x00] END_REQSTACK()
```

### Event 65535.5

#### Metadata

| Field        | Value     |
|--------------|-----------|
| Entrypoint   | 0x01CB    |
| Data Size    | 154 bytes |
| Instructions | 32        |

```
      00 01 02 03 04 05 06 07  08 09 0A 0B 0C 0D 0E 0F
      -- -- -- -- -- -- -- --  -- -- -- -- -- -- -- --
01C0:                                   59 04 26 E2 05             Y.&..
01D0: 01 04 80 1F 00 42 80 43  80 44 80 1F 01 1F 00 45  .....B.C.D.....E
01E0: 80 46 80 44 80 1F 01 1F  00 47 80 48 80 44 80 1F  .F.D.....G.H.D..
01F0: 01 1F 00 0E 80 0F 80 10  80 1F 01 1F 00 11 80 12  ................
0200: 80 10 80 1F 01 1F 00 13  80 14 80 10 80 1F 01 1F  ................
0210: 00 15 80 16 80 10 80 1F  01 1F 00 17 80 18 80 10  ................
0220: 80 1F 01 1F 00 19 80 1A  80 1B 80 1F 01 1F 00 1C  ................
0230: 80 1D 80 1E 80 1F 01 1F  00 1F 80 20 80 1E 80 1F  ........... ....
0240: 01 1F 00 21 80 22 80 1E  80 1F 01 1F 00 23 80 24  ...!.".......#.$
0250: 80 25 80 1F 01 6F 7E 05  26 E2 05 01 22 01 2F 01  .%...o~.&..."./.
0260: F8 FF FF 7F 00                                    .....           
```

#### Opcodes

```
  0: 0x01CB [0x59] UPDATE_ENTITY_DATA: Set Unnamed NPC (ID: 17162790/0x0105E226) main speed = 80* * 0.1
  1: 0x01D3 [0x1F] MOVE_ENTITY: EventEntity moves to X=-6.086*, Z=31.136*, Y=-0.999*
  2: 0x01DB [0x1F] MOVE_ENTITY: Update entity position (mode=1)
  3: 0x01DD [0x1F] MOVE_ENTITY: EventEntity moves to X=-8.016*, Z=35.131*, Y=-0.999*
  4: 0x01E5 [0x1F] MOVE_ENTITY: Update entity position (mode=1)
  5: 0x01E7 [0x1F] MOVE_ENTITY: EventEntity moves to X=-11.617*, Z=38.998*, Y=-0.999*
  6: 0x01EF [0x1F] MOVE_ENTITY: Update entity position (mode=1)
  7: 0x01F1 [0x1F] MOVE_ENTITY: EventEntity moves to X=-51.141*, Z=38.746*, Y=-3.499*
  8: 0x01F9 [0x1F] MOVE_ENTITY: Update entity position (mode=1)
  9: 0x01FB [0x1F] MOVE_ENTITY: EventEntity moves to X=-63.152*, Z=42.731*, Y=-3.499*
 10: 0x0203 [0x1F] MOVE_ENTITY: Update entity position (mode=1)
 11: 0x0205 [0x1F] MOVE_ENTITY: EventEntity moves to X=-73.075*, Z=51.803*, Y=-3.499*
 12: 0x020D [0x1F] MOVE_ENTITY: Update entity position (mode=1)
 13: 0x020F [0x1F] MOVE_ENTITY: EventEntity moves to X=-78.613*, Z=59.364*, Y=-3.499*
 14: 0x0217 [0x1F] MOVE_ENTITY: Update entity position (mode=1)
 15: 0x0219 [0x1F] MOVE_ENTITY: EventEntity moves to X=-76.580*, Z=75.410*, Y=-3.499*
 16: 0x0221 [0x1F] MOVE_ENTITY: Update entity position (mode=1)
 17: 0x0223 [0x1F] MOVE_ENTITY: EventEntity moves to X=-64.004*, Z=81.361*, Y=-5.000*
 18: 0x022B [0x1F] MOVE_ENTITY: Update entity position (mode=1)
 19: 0x022D [0x1F] MOVE_ENTITY: EventEntity moves to X=-49.175*, Z=83.509*, Y=-4.999*
 20: 0x0235 [0x1F] MOVE_ENTITY: Update entity position (mode=1)
 21: 0x0237 [0x1F] MOVE_ENTITY: EventEntity moves to X=-42.767*, Z=87.755*, Y=-4.999*
 22: 0x023F [0x1F] MOVE_ENTITY: Update entity position (mode=1)
 23: 0x0241 [0x1F] MOVE_ENTITY: EventEntity moves to X=-41.067*, Z=92.184*, Y=-4.999*
 24: 0x0249 [0x1F] MOVE_ENTITY: Update entity position (mode=1)
 25: 0x024B [0x1F] MOVE_ENTITY: EventEntity moves to X=-40.133*, Z=167.579*, Y=-5.023*
 26: 0x0253 [0x1F] MOVE_ENTITY: Update entity position (mode=1)
 27: 0x0255 [0x6F] WAIT_FRAME_DELAY: Yield until WaitTime reaches zero
 28: 0x0256 [0x7E] CHOCOBO_MOUNT: Dismount Unnamed NPC (ID: 17162790/0x0105E226) (status = 0)
 29: 0x025C [0x22] ENTITY_HIDE_FLAG(enabled=0x01)
 30: 0x025E [0x2F] EventEntity->Render.Flags0 |= 0x80000 // Bit 19
 31: 0x0264 [0x00] END_REQSTACK()
```

### Event 65535.6

#### Metadata

| Field        | Value     |
|--------------|-----------|
| Entrypoint   | 0x0265    |
| Data Size    | 167 bytes |
| Instructions | 35        |

```
      00 01 02 03 04 05 06 07  08 09 0A 0B 0C 0D 0E 0F
      -- -- -- -- -- -- -- --  -- -- -- -- -- -- -- --
0260:                1C 49 80  59 04 27 E2 05 01 3B 80       .I.Y.'...;.
0270: 1F 00 4A 80 4B 80 44 80  1F 01 1F 00 4C 80 4D 80  ..J.K.D.....L.M.
0280: 44 80 1F 01 1F 00 4E 80  4F 80 44 80 1F 01 1F 00  D.....N.O.D.....
0290: 0E 80 0F 80 10 80 1F 01  1F 00 11 80 12 80 10 80  ................
02A0: 1F 01 1F 00 13 80 14 80  10 80 1F 01 1F 00 15 80  ................
02B0: 16 80 10 80 1F 01 1F 00  17 80 18 80 10 80 1F 01  ................
02C0: 1F 00 19 80 1A 80 1B 80  1F 01 1F 00 1C 80 1D 80  ................
02D0: 1E 80 1F 01 1F 00 32 80  33 80 1E 80 1F 01 1F 00  ......2.3.......
02E0: 34 80 35 80 1E 80 1F 01  1F 00 36 80 37 80 1E 80  4.5.......6.7...
02F0: 1F 01 1F 00 23 80 24 80  25 80 1F 01 6F 7E 05 27  ....#.$.%...o~.'
0300: E2 05 01 22 01 2F 01 F8  FF FF 7F 00              ..."./......    
```

#### Opcodes

```
  0: 0x0265 [0x1C] WAIT(180* ticks)
  1: 0x0268 [0x59] UPDATE_ENTITY_DATA: Set Unnamed NPC (ID: 17162791/0x0105E227) main speed = 78* * 0.1
  2: 0x0270 [0x1F] MOVE_ENTITY: EventEntity moves to X=-1.740*, Z=31.643*, Y=-0.999*
  3: 0x0278 [0x1F] MOVE_ENTITY: Update entity position (mode=1)
  4: 0x027A [0x1F] MOVE_ENTITY: EventEntity moves to X=-4.175*, Z=36.997*, Y=-0.999*
  5: 0x0282 [0x1F] MOVE_ENTITY: Update entity position (mode=1)
  6: 0x0284 [0x1F] MOVE_ENTITY: EventEntity moves to X=-8.672*, Z=40.970*, Y=-0.999*
  7: 0x028C [0x1F] MOVE_ENTITY: Update entity position (mode=1)
  8: 0x028E [0x1F] MOVE_ENTITY: EventEntity moves to X=-51.141*, Z=38.746*, Y=-3.499*
  9: 0x0296 [0x1F] MOVE_ENTITY: Update entity position (mode=1)
 10: 0x0298 [0x1F] MOVE_ENTITY: EventEntity moves to X=-63.152*, Z=42.731*, Y=-3.499*
 11: 0x02A0 [0x1F] MOVE_ENTITY: Update entity position (mode=1)
 12: 0x02A2 [0x1F] MOVE_ENTITY: EventEntity moves to X=-73.075*, Z=51.803*, Y=-3.499*
 13: 0x02AA [0x1F] MOVE_ENTITY: Update entity position (mode=1)
 14: 0x02AC [0x1F] MOVE_ENTITY: EventEntity moves to X=-78.613*, Z=59.364*, Y=-3.499*
 15: 0x02B4 [0x1F] MOVE_ENTITY: Update entity position (mode=1)
 16: 0x02B6 [0x1F] MOVE_ENTITY: EventEntity moves to X=-76.580*, Z=75.410*, Y=-3.499*
 17: 0x02BE [0x1F] MOVE_ENTITY: Update entity position (mode=1)
 18: 0x02C0 [0x1F] MOVE_ENTITY: EventEntity moves to X=-64.004*, Z=81.361*, Y=-5.000*
 19: 0x02C8 [0x1F] MOVE_ENTITY: Update entity position (mode=1)
 20: 0x02CA [0x1F] MOVE_ENTITY: EventEntity moves to X=-49.175*, Z=83.509*, Y=-4.999*
 21: 0x02D2 [0x1F] MOVE_ENTITY: Update entity position (mode=1)
 22: 0x02D4 [0x1F] MOVE_ENTITY: EventEntity moves to X=-39.708*, Z=89.827*, Y=-4.999*
 23: 0x02DC [0x1F] MOVE_ENTITY: Update entity position (mode=1)
 24: 0x02DE [0x1F] MOVE_ENTITY: EventEntity moves to X=-38.677*, Z=93.420*, Y=-4.999*
 25: 0x02E6 [0x1F] MOVE_ENTITY: Update entity position (mode=1)
 26: 0x02E8 [0x1F] MOVE_ENTITY: EventEntity moves to X=-38.282*, Z=99.163*, Y=-4.999*
 27: 0x02F0 [0x1F] MOVE_ENTITY: Update entity position (mode=1)
 28: 0x02F2 [0x1F] MOVE_ENTITY: EventEntity moves to X=-40.133*, Z=167.579*, Y=-5.023*
 29: 0x02FA [0x1F] MOVE_ENTITY: Update entity position (mode=1)
 30: 0x02FC [0x6F] WAIT_FRAME_DELAY: Yield until WaitTime reaches zero
 31: 0x02FD [0x7E] CHOCOBO_MOUNT: Dismount Unnamed NPC (ID: 17162791/0x0105E227) (status = 0)
 32: 0x0303 [0x22] ENTITY_HIDE_FLAG(enabled=0x01)
 33: 0x0305 [0x2F] EventEntity->Render.Flags0 |= 0x80000 // Bit 19
 34: 0x030B [0x00] END_REQSTACK()
```

### Event 65535.7

#### Metadata

| Field        | Value    |
|--------------|----------|
| Entrypoint   | 0x030C   |
| Data Size    | 69 bytes |
| Instructions | 15       |

```
      00 01 02 03 04 05 06 07  08 09 0A 0B 0C 0D 0E 0F
      -- -- -- -- -- -- -- --  -- -- -- -- -- -- -- --
0300:                                      1C 50 80 59              .P.Y
0310: 04 94 E2 05 01 51 80 1F  00 52 80 53 80 54 80 1F  .....Q...R.S.T..
0320: 01 1F 00 55 80 56 80 54  80 1F 01 59 04 F8 FF FF  ...U.V.T...Y....
0330: 7F 57 80 1F 00 58 80 59  80 54 80 1F 01 1F 00 5A  .W...X.Y.T.....Z
0340: 80 5B 80 10 80 1F 01 6F  22 01 2F 01 F8 FF FF 7F  .[.....o"./.....
0350: 00                                                .               
```

#### Opcodes

```
  0: 0x030C [0x1C] WAIT(360* ticks)
  1: 0x030F [0x59] UPDATE_ENTITY_DATA: Set 02 (ID: 17162900/0x0105E294) main speed = 15* * 0.1
  2: 0x0317 [0x1F] MOVE_ENTITY: EventEntity moves to X=-26.970*, Z=63.607*, Y=-3.500*
  3: 0x031F [0x1F] MOVE_ENTITY: Update entity position (mode=1)
  4: 0x0321 [0x1F] MOVE_ENTITY: EventEntity moves to X=-25.762*, Z=63.002*, Y=-3.500*
  5: 0x0329 [0x1F] MOVE_ENTITY: Update entity position (mode=1)
  6: 0x032B [0x59] UPDATE_ENTITY_DATA: Set EventEntity main speed = 40* * 0.1
  7: 0x0333 [0x1F] MOVE_ENTITY: EventEntity moves to X=-47.406*, Z=58.894*, Y=-3.500*
  8: 0x033B [0x1F] MOVE_ENTITY: Update entity position (mode=1)
  9: 0x033D [0x1F] MOVE_ENTITY: EventEntity moves to X=-56.954*, Z=53.463*, Y=-3.499*
 10: 0x0345 [0x1F] MOVE_ENTITY: Update entity position (mode=1)
 11: 0x0347 [0x6F] WAIT_FRAME_DELAY: Yield until WaitTime reaches zero
 12: 0x0348 [0x22] ENTITY_HIDE_FLAG(enabled=0x01)
 13: 0x034A [0x2F] EventEntity->Render.Flags0 |= 0x80000 // Bit 19
 14: 0x0350 [0x00] END_REQSTACK()
```

### Event 65535.8

#### Metadata

| Field        | Value    |
|--------------|----------|
| Entrypoint   | 0x0351   |
| Data Size    | 38 bytes |
| Instructions | 9        |

```
      00 01 02 03 04 05 06 07  08 09 0A 0B 0C 0D 0E 0F
      -- -- -- -- -- -- -- --  -- -- -- -- -- -- -- --
0350:    59 04 F8 FF FF 7F 5C  80 1F 00 5D 80 5E 80 5F   Y.....\...].^._
0360: 80 1F 01 1F 00 60 80 61  80 54 80 1F 01 6F 22 01  .....`.a.T...o".
0370: 2F 01 F8 FF FF 7F 00                              /......         
```

#### Opcodes

```
  0: 0x0351 [0x59] UPDATE_ENTITY_DATA: Set EventEntity main speed = 27* * 0.1
  1: 0x0359 [0x1F] MOVE_ENTITY: EventEntity moves to X=-30.382*, Z=74.601*, Y=-3.574*
  2: 0x0361 [0x1F] MOVE_ENTITY: Update entity position (mode=1)
  3: 0x0363 [0x1F] MOVE_ENTITY: EventEntity moves to X=-54.461*, Z=69.456*, Y=-3.500*
  4: 0x036B [0x1F] MOVE_ENTITY: Update entity position (mode=1)
  5: 0x036D [0x6F] WAIT_FRAME_DELAY: Yield until WaitTime reaches zero
  6: 0x036E [0x22] ENTITY_HIDE_FLAG(enabled=0x01)
  7: 0x0370 [0x2F] EventEntity->Render.Flags0 |= 0x80000 // Bit 19
  8: 0x0376 [0x00] END_REQSTACK()
```

### Event 65535.9

#### Metadata

| Field        | Value    |
|--------------|----------|
| Entrypoint   | 0x0377   |
| Data Size    | 38 bytes |
| Instructions | 9        |

```
      00 01 02 03 04 05 06 07  08 09 0A 0B 0C 0D 0E 0F
      -- -- -- -- -- -- -- --  -- -- -- -- -- -- -- --
0370:                      59  04 F8 FF FF 7F 5C 80 1F         Y.....\..
0380: 00 62 80 63 80 64 80 1F  01 1F 00 65 80 66 80 54  .b.c.d.....e.f.T
0390: 80 1F 01 6F 22 01 2F 01  F8 FF FF 7F 00           ...o"./......   
```

#### Opcodes

```
  0: 0x0377 [0x59] UPDATE_ENTITY_DATA: Set EventEntity main speed = 27* * 0.1
  1: 0x037F [0x1F] MOVE_ENTITY: EventEntity moves to X=-29.325*, Z=75.371*, Y=-3.529*
  2: 0x0387 [0x1F] MOVE_ENTITY: Update entity position (mode=1)
  3: 0x0389 [0x1F] MOVE_ENTITY: EventEntity moves to X=-53.209*, Z=70.575*, Y=-3.500*
  4: 0x0391 [0x1F] MOVE_ENTITY: Update entity position (mode=1)
  5: 0x0393 [0x6F] WAIT_FRAME_DELAY: Yield until WaitTime reaches zero
  6: 0x0394 [0x22] ENTITY_HIDE_FLAG(enabled=0x01)
  7: 0x0396 [0x2F] EventEntity->Render.Flags0 |= 0x80000 // Bit 19
  8: 0x039C [0x00] END_REQSTACK()
```

### Event 65535.10

#### Metadata

| Field        | Value    |
|--------------|----------|
| Entrypoint   | 0x039D   |
| Data Size    | 48 bytes |
| Instructions | 11       |

```
      00 01 02 03 04 05 06 07  08 09 0A 0B 0C 0D 0E 0F
      -- -- -- -- -- -- -- --  -- -- -- -- -- -- -- --
0390:                                         59 04 F8               Y..
03A0: FF FF 7F 5C 80 1F 00 67  80 68 80 69 80 1F 01 1F  ...\...g.h.i....
03B0: 00 6A 80 6B 80 54 80 1F  01 1F 00 6C 80 6D 80 54  .j.k.T.....l.m.T
03C0: 80 1F 01 6F 22 01 2F 01  F8 FF FF 7F 00           ...o"./......   
```

#### Opcodes

```
  0: 0x039D [0x59] UPDATE_ENTITY_DATA: Set EventEntity main speed = 27* * 0.1
  1: 0x03A5 [0x1F] MOVE_ENTITY: EventEntity moves to X=-27.766*, Z=73.600*, Y=-3.414*
  2: 0x03AD [0x1F] MOVE_ENTITY: Update entity position (mode=1)
  3: 0x03AF [0x1F] MOVE_ENTITY: EventEntity moves to X=-52.430*, Z=73.638*, Y=-3.500*
  4: 0x03B7 [0x1F] MOVE_ENTITY: Update entity position (mode=1)
  5: 0x03B9 [0x1F] MOVE_ENTITY: EventEntity moves to X=-54.193*, Z=72.044*, Y=-3.500*
  6: 0x03C1 [0x1F] MOVE_ENTITY: Update entity position (mode=1)
  7: 0x03C3 [0x6F] WAIT_FRAME_DELAY: Yield until WaitTime reaches zero
  8: 0x03C4 [0x22] ENTITY_HIDE_FLAG(enabled=0x01)
  9: 0x03C6 [0x2F] EventEntity->Render.Flags0 |= 0x80000 // Bit 19
 10: 0x03CC [0x00] END_REQSTACK()
```

### Event 65535.11

#### Metadata

| Field        | Value    |
|--------------|----------|
| Entrypoint   | 0x03CD   |
| Data Size    | 19 bytes |
| Instructions | 4        |

```
      00 01 02 03 04 05 06 07  08 09 0A 0B 0C 0D 0E 0F
      -- -- -- -- -- -- -- --  -- -- -- -- -- -- -- --
03C0:                                         59 04 F8               Y..
03D0: FF FF 7F 6E 80 1F 00 6F  80 70 80 1B 80 1F 01 00  ...n...o.p......
```

#### Opcodes

```
  0: 0x03CD [0x59] UPDATE_ENTITY_DATA: Set EventEntity main speed = 42* * 0.1
  1: 0x03D5 [0x1F] MOVE_ENTITY: EventEntity moves to X=-22.678*, Z=81.353*, Y=-5.000*
  2: 0x03DD [0x1F] MOVE_ENTITY: Update entity position (mode=1)
  3: 0x03DF [0x00] END_REQSTACK()
```

### Event 65535.12

#### Metadata

| Field        | Value    |
|--------------|----------|
| Entrypoint   | 0x03E0   |
| Data Size    | 22 bytes |
| Instructions | 5        |

```
      00 01 02 03 04 05 06 07  08 09 0A 0B 0C 0D 0E 0F
      -- -- -- -- -- -- -- --  -- -- -- -- -- -- -- --
03E0: 59 04 F8 FF FF 7F 6E 80  1C 71 80 1F 00 6F 80 70  Y.....n..q...o.p
03F0: 80 1B 80 1F 01 00                                 ......          
```

#### Opcodes

```
  0: 0x03E0 [0x59] UPDATE_ENTITY_DATA: Set EventEntity main speed = 42* * 0.1
  1: 0x03E8 [0x1C] WAIT(60* ticks)
  2: 0x03EB [0x1F] MOVE_ENTITY: EventEntity moves to X=-22.678*, Z=81.353*, Y=-5.000*
  3: 0x03F3 [0x1F] MOVE_ENTITY: Update entity position (mode=1)
  4: 0x03F5 [0x00] END_REQSTACK()
```

### Event 65535.13

#### Metadata

| Field        | Value    |
|--------------|----------|
| Entrypoint   | 0x03F6   |
| Data Size    | 22 bytes |
| Instructions | 5        |

```
      00 01 02 03 04 05 06 07  08 09 0A 0B 0C 0D 0E 0F
      -- -- -- -- -- -- -- --  -- -- -- -- -- -- -- --
03F0:                   59 04  F8 FF FF 7F 6E 80 1C 72        Y.....n..r
0400: 80 1F 00 6F 80 70 80 1B  80 1F 01 00              ...o.p......    
```

#### Opcodes

```
  0: 0x03F6 [0x59] UPDATE_ENTITY_DATA: Set EventEntity main speed = 42* * 0.1
  1: 0x03FE [0x1C] WAIT(120* ticks)
  2: 0x0401 [0x1F] MOVE_ENTITY: EventEntity moves to X=-22.678*, Z=81.353*, Y=-5.000*
  3: 0x0409 [0x1F] MOVE_ENTITY: Update entity position (mode=1)
  4: 0x040B [0x00] END_REQSTACK()
```

### Event 65535.14

#### Metadata

| Field        | Value    |
|--------------|----------|
| Entrypoint   | 0x040C   |
| Data Size    | 13 bytes |
| Instructions | 5        |

```
      00 01 02 03 04 05 06 07  08 09 0A 0B 0C 0D 0E 0F
      -- -- -- -- -- -- -- --  -- -- -- -- -- -- -- --
0400:                                      06 08 10 1C              ....
0410: 73 80 1C 74 80 05 08 10  00                       s..t.....       
```

#### Opcodes

```
  0: 0x040C [0x06] Work_Zone[8] = 0
  1: 0x040F [0x1C] WAIT(600* ticks)
  2: 0x0412 [0x1C] WAIT(5* ticks)
  3: 0x0415 [0x05] Work_Zone[8] = 1
  4: 0x0418 [0x00] END_REQSTACK()
```

### Event 65535.15

#### Metadata

| Field        | Value     |
|--------------|-----------|
| Entrypoint   | 0x0419    |
| Data Size    | 221 bytes |
| Instructions | 26        |

```
      00 01 02 03 04 05 06 07  08 09 0A 0B 0C 0D 0E 0F
      -- -- -- -- -- -- -- --  -- -- -- -- -- -- -- --
0410:                             06 09 10 1C 26 80 52           ....&.R
0420: 75 80 F0 FF FF 7F F0 FF  FF 7F 79 30 34 32 45 75  u.........y042Eu
0430: 80 1E E2 05 01 1E E2 05  01 79 30 34 35 00 80 1C  .........y045...
0440: 76 80 52 75 80 1E E2 05  01 1E E2 05 01 79 30 34  v.Ru.........y04
0450: 35 45 75 80 F0 FF FF 7F  F0 FF FF 7F 79 30 35 32  5Eu.........y052
0460: 00 80 27 10 93 E2 05 01  0C 27 10 95 E2 05 01 0C  ..'......'......
0470: BA 44 E2 05 01 77 80 78  80 10 80 79 80 BA 45 E2  .D...w.x...y..E.
0480: 05 01 77 80 78 80 10 80  79 80 BA 46 E2 05 01 77  ..w.x...y..F...w
0490: 80 78 80 10 80 79 80 29  10 23 E2 05 01 02 29 10  .x...y.).#....).
04A0: 24 E2 05 01 02 79 00 28  E2 05 01 20 E2 05 01 66  $....y.(... ...f
04B0: 7A 80 28 E2 05 01 28 E2  05 01 74 6C 6B 30 27 10  z.(...(...tlk0'.
04C0: FE E2 05 01 0F 27 10 FF  E2 05 01 10 27 10 00 E3  .....'......'...
04D0: 05 01 11 1C 74 80 27 10  44 E2 05 01 13 27 10 45  ....t.'.D....'.E
04E0: E2 05 01 15 27 10 46 E2  05 01 16 27 10 11 E3 05  ....'.F....'....
04F0: 01 12 05 09 10 00                                 ......          
```

#### Opcodes

```
  0: 0x0419 [0x06] Work_Zone[9] = 0
  1: 0x041C [0x1C] WAIT(150* ticks)
  2: 0x041F [0x52] END_LOAD_SCHEDULER: End scheduler "y042" with entities [LocalPlayer, LocalPlayer], work=533*
  3: 0x042E [0x45] LOAD_SCHEDULED_TASK: Load scheduler "y045" with entities [02 (ID: 17162782/0x0105E21E), 02 (ID: 17162782/0x0105E21E)], work=[533*, 0*]
  4: 0x043F [0x1C] WAIT(300* ticks)
  5: 0x0442 [0x52] END_LOAD_SCHEDULER: End scheduler "y045" with entities [02 (ID: 17162782/0x0105E21E), 02 (ID: 17162782/0x0105E21E)], work=533*
  6: 0x0451 [0x45] LOAD_SCHEDULED_TASK: Load scheduler "y052" with entities [LocalPlayer, LocalPlayer], work=[533*, 0*]
  7: 0x0462 [0x27] REQ_SET(priority=0x10, entity_id=01 (ID: 17162899/0x0105E293), tag_num=0x0C)
  8: 0x0469 [0x27] REQ_SET(priority=0x10, entity_id=02 (ID: 17162901/0x0105E295), tag_num=0x0C)
  9: 0x0470 [0xBA] SET_ENTITY_POSITION(entity_id=02 (ID: 17162820/0x0105E244), pos_x=-60.989*, pos_z=70.254*, pos_y=-3.499*, direction=359.7°*)
 10: 0x047D [0xBA] SET_ENTITY_POSITION(entity_id=03 (ID: 17162821/0x0105E245), pos_x=-60.989*, pos_z=70.254*, pos_y=-3.499*, direction=359.7°*)
 11: 0x048A [0xBA] SET_ENTITY_POSITION(entity_id=04 (ID: 17162822/0x0105E246), pos_x=-60.989*, pos_z=70.254*, pos_y=-3.499*, direction=359.7°*)
 12: 0x0497 [0x29] REQ_SET_WAIT(priority=0x10, entity_id=07 (ID: 17162787/0x0105E223), tag_num=0x02)
 13: 0x049E [0x29] REQ_SET_WAIT(priority=0x10, entity_id=Unnamed NPC (ID: 17162788/0x0105E224), tag_num=0x02)
 14: 0x04A5 [0x79] Unnamed NPC (ID: 17162792/0x0105E228) looks at 04 (ID: 17162784/0x0105E220) (Basic look)
 15: 0x04AF [0x66] LOAD_EXT_SCHEDULER_MAIN: Load scheduler "tlk0" with entities [Unnamed NPC (ID: 17162792/0x0105E228), Unnamed NPC (ID: 17162792/0x0105E228)], work=49*
 16: 0x04BE [0x27] REQ_SET(priority=0x10, entity_id=01 (ID: 17163006/0x0105E2FE), tag_num=0x0F)
 17: 0x04C5 [0x27] REQ_SET(priority=0x10, entity_id=02 (ID: 17163007/0x0105E2FF), tag_num=0x10)
 18: 0x04CC [0x27] REQ_SET(priority=0x10, entity_id=03 (ID: 17163008/0x0105E300), tag_num=0x11)
 19: 0x04D3 [0x1C] WAIT(5* ticks)
 20: 0x04D6 [0x27] REQ_SET(priority=0x10, entity_id=02 (ID: 17162820/0x0105E244), tag_num=0x13)
 21: 0x04DD [0x27] REQ_SET(priority=0x10, entity_id=03 (ID: 17162821/0x0105E245), tag_num=0x15)
 22: 0x04E4 [0x27] REQ_SET(priority=0x10, entity_id=04 (ID: 17162822/0x0105E246), tag_num=0x16)
 23: 0x04EB [0x27] REQ_SET(priority=0x10, entity_id=Unnamed NPC (ID: 17163025/0x0105E311), tag_num=0x12)
 24: 0x04F2 [0x05] Work_Zone[9] = 1
 25: 0x04F5 [0x00] END_REQSTACK()
```

### Event 65535.16

#### Metadata

| Field        | Value    |
|--------------|----------|
| Entrypoint   | 0x04F6   |
| Data Size    | 76 bytes |
| Instructions | 8        |

```
      00 01 02 03 04 05 06 07  08 09 0A 0B 0C 0D 0E 0F
      -- -- -- -- -- -- -- --  -- -- -- -- -- -- -- --
04F0:                   06 08  10 55 75 80 F0 FF FF 7F        ...Uu.....
0500: F0 FF FF 7F 79 30 35 32  52 75 80 F0 FF FF 7F F0  ....y052Ru......
0510: FF FF 7F 79 30 35 32 27  10 1F E2 05 01 09 45 75  ...y052'......Eu
0520: 80 F0 FF FF 7F F0 FF FF  7F 79 30 35 34 00 80 05  .........y054...
0530: 08 10 55 75 80 F0 FF FF  7F F0 FF FF 7F 79 30 35  ..Uu.........y05
0540: 34 00                                             4.              
```

#### Opcodes

```
  0: 0x04F6 [0x06] Work_Zone[8] = 0
  1: 0x04F9 [0x55] WAIT_LOAD_SCHEDULER: Wait for scheduler "y052" with entities [LocalPlayer, LocalPlayer], work=533*
  2: 0x0508 [0x52] END_LOAD_SCHEDULER: End scheduler "y052" with entities [LocalPlayer, LocalPlayer], work=533*
  3: 0x0517 [0x27] REQ_SET(priority=0x10, entity_id=03 (ID: 17162783/0x0105E21F), tag_num=0x09)
  4: 0x051E [0x45] LOAD_SCHEDULED_TASK: Load scheduler "y054" with entities [LocalPlayer, LocalPlayer], work=[533*, 0*]
  5: 0x052F [0x05] Work_Zone[8] = 1
  6: 0x0532 [0x55] WAIT_LOAD_SCHEDULER: Wait for scheduler "y054" with entities [LocalPlayer, LocalPlayer], work=533*
  7: 0x0541 [0x00] END_REQSTACK()
```

### Event 65535.17

#### Metadata

| Field        | Value    |
|--------------|----------|
| Entrypoint   | 0x0542   |
| Data Size    | 49 bytes |
| Instructions | 5        |

```
      00 01 02 03 04 05 06 07  08 09 0A 0B 0C 0D 0E 0F
      -- -- -- -- -- -- -- --  -- -- -- -- -- -- -- --
0540:       7B 06 E2 05 01 5B  7B 80 06 E2 05 01 06 E2    {....[{.......
0550: 05 01 6B 75 69 30 53 06  E2 05 01 06 E2 05 01 6B  ..kui0S........k
0560: 75 69 30 5B 7B 80 06 E2  05 01 06 E2 05 01 65 68  ui0[{.........eh
0570: 6E 30 00                                          n0.             
```

#### Opcodes

```
  0: 0x0542 [0x7B] Ajido-Marujido (ID: 17162758/0x0105E206) stops talking
  1: 0x0547 [0x5B] LOAD_EXT_SCHEDULER: Load scheduler "kui0" with entities [Ajido-Marujido (ID: 17162758/0x0105E206), Ajido-Marujido (ID: 17162758/0x0105E206)], work=1288*
  2: 0x0556 [0x53] WAIT_SCHEDULER_TASK: Wait for scheduler "kui0" with entities [Ajido-Marujido (ID: 17162758/0x0105E206), Ajido-Marujido (ID: 17162758/0x0105E206)]
  3: 0x0563 [0x5B] LOAD_EXT_SCHEDULER: Load scheduler "ehn0" with entities [Ajido-Marujido (ID: 17162758/0x0105E206), Ajido-Marujido (ID: 17162758/0x0105E206)], work=1288*
  4: 0x0572 [0x00] END_REQSTACK()
```

### Event 65535.18

#### Metadata

| Field        | Value    |
|--------------|----------|
| Entrypoint   | 0x0573   |
| Data Size    | 29 bytes |
| Instructions | 6        |

```
      00 01 02 03 04 05 06 07  08 09 0A 0B 0C 0D 0E 0F
      -- -- -- -- -- -- -- --  -- -- -- -- -- -- -- --
0570:          59 04 F8 FF FF  7F 57 80 1F 00 7C 80 7D     Y.....W...|.}
0580: 80 07 80 1F 01 6F 4A 43  E2 05 01 06 E2 05 01 00  .....oJC........
```

#### Opcodes

```
  0: 0x0573 [0x59] UPDATE_ENTITY_DATA: Set EventEntity main speed = 40* * 0.1
  1: 0x057B [0x1F] MOVE_ENTITY: EventEntity moves to X=-5.296*, Z=12.328*, Y=-1.000*
  2: 0x0583 [0x1F] MOVE_ENTITY: Update entity position (mode=1)
  3: 0x0585 [0x6F] WAIT_FRAME_DELAY: Yield until WaitTime reaches zero
  4: 0x0586 [0x4A] 01 (ID: 17162819/0x0105E243) looks at Ajido-Marujido (ID: 17162758/0x0105E206)
  5: 0x058F [0x00] END_REQSTACK()
```

### Event 65535.19

#### Metadata

| Field        | Value    |
|--------------|----------|
| Entrypoint   | 0x0590   |
| Data Size    | 49 bytes |
| Instructions | 7        |

```
      00 01 02 03 04 05 06 07  08 09 0A 0B 0C 0D 0E 0F
      -- -- -- -- -- -- -- --  -- -- -- -- -- -- -- --
0590: 1C 7E 80 5B 7B 80 06 E2  05 01 06 E2 05 01 65 68  .~.[{.........eh
05A0: 6E 31 4A 06 E2 05 01 43  E2 05 01 6F 76 06 E2 05  n1J....C...ov...
05B0: 01 5B 7F 80 06 E2 05 01  06 E2 05 01 73 75 72 30  .[..........sur0
05C0: 00                                                .               
```

#### Opcodes

```
  0: 0x0590 [0x1C] WAIT(160* ticks)
  1: 0x0593 [0x5B] LOAD_EXT_SCHEDULER: Load scheduler "ehn1" with entities [Ajido-Marujido (ID: 17162758/0x0105E206), Ajido-Marujido (ID: 17162758/0x0105E206)], work=1288*
  2: 0x05A2 [0x4A] Ajido-Marujido (ID: 17162758/0x0105E206) looks at 01 (ID: 17162819/0x0105E243)
  3: 0x05AB [0x6F] WAIT_FRAME_DELAY: Yield until WaitTime reaches zero
  4: 0x05AC [0x76] CHECK_ENTITY_RENDER_FLAGS: Wait until Ajido-Marujido (ID: 17162758/0x0105E206) Render.Flags0 and Render.Flags3 conditions are met
  5: 0x05B1 [0x5B] LOAD_EXT_SCHEDULER: Load scheduler "sur0" with entities [Ajido-Marujido (ID: 17162758/0x0105E206), Ajido-Marujido (ID: 17162758/0x0105E206)], work=85*
  6: 0x05C0 [0x00] END_REQSTACK()
```

### Event 65535.20

#### Metadata

| Field        | Value    |
|--------------|----------|
| Entrypoint   | 0x05C1   |
| Data Size    | 20 bytes |
| Instructions | 5        |

```
      00 01 02 03 04 05 06 07  08 09 0A 0B 0C 0D 0E 0F
      -- -- -- -- -- -- -- --  -- -- -- -- -- -- -- --
05C0:    59 04 F8 FF FF 7F 80  80 1F 00 81 80 82 80 07   Y..............
05D0: 80 1F 01 6F 00                                    ...o.           
```

#### Opcodes

```
  0: 0x05C1 [0x59] UPDATE_ENTITY_DATA: Set EventEntity main speed = 7* * 0.1
  1: 0x05C9 [0x1F] MOVE_ENTITY: EventEntity moves to X=-0.307*, Z=13.248*, Y=-1.000*
  2: 0x05D1 [0x1F] MOVE_ENTITY: Update entity position (mode=1)
  3: 0x05D3 [0x6F] WAIT_FRAME_DELAY: Yield until WaitTime reaches zero
  4: 0x05D4 [0x00] END_REQSTACK()
```

### Event 65535.21

#### Metadata

| Field        | Value    |
|--------------|----------|
| Entrypoint   | 0x05D5   |
| Data Size    | 47 bytes |
| Instructions | 6        |

```
      00 01 02 03 04 05 06 07  08 09 0A 0B 0C 0D 0E 0F
      -- -- -- -- -- -- -- --  -- -- -- -- -- -- -- --
05D0:                5B 7F 80  06 E2 05 01 06 E2 05 01       [..........
05E0: 73 75 72 30 53 06 E2 05  01 06 E2 05 01 73 75 72  sur0S........sur
05F0: 30 59 04 F8 FF FF 7F 83  80 1F 00 84 80 85 80 44  0Y.............D
0600: 80 1F 01 00                                       ....            
```

#### Opcodes

```
  0: 0x05D5 [0x5B] LOAD_EXT_SCHEDULER: Load scheduler "sur0" with entities [Ajido-Marujido (ID: 17162758/0x0105E206), Ajido-Marujido (ID: 17162758/0x0105E206)], work=85*
  1: 0x05E4 [0x53] WAIT_SCHEDULER_TASK: Wait for scheduler "sur0" with entities [Ajido-Marujido (ID: 17162758/0x0105E206), Ajido-Marujido (ID: 17162758/0x0105E206)]
  2: 0x05F1 [0x59] UPDATE_ENTITY_DATA: Set EventEntity main speed = 35* * 0.1
  3: 0x05F9 [0x1F] MOVE_ENTITY: EventEntity moves to X=-1.006*, Z=16.226*, Y=-0.999*
  4: 0x0601 [0x1F] MOVE_ENTITY: Update entity position (mode=1)
  5: 0x0603 [0x00] END_REQSTACK()
```

### Event 65535.22

#### Metadata

| Field        | Value    |
|--------------|----------|
| Entrypoint   | 0x0604   |
| Data Size    | 21 bytes |
| Instructions | 3        |

```
      00 01 02 03 04 05 06 07  08 09 0A 0B 0C 0D 0E 0F
      -- -- -- -- -- -- -- --  -- -- -- -- -- -- -- --
0600:             1C 86 80 45  87 80 F0 FF FF 7F F0 FF      ...E........
0610: FF 7F 62 6C 6F 6E 00 80  00                       ..blon...       
```

#### Opcodes

```
  0: 0x0604 [0x1C] WAIT(75* ticks)
  1: 0x0607 [0x45] LOAD_SCHEDULED_TASK: Load scheduler "blon" with entities [LocalPlayer, LocalPlayer], work=[201*, 0*]
  2: 0x0618 [0x00] END_REQSTACK()
```

### Event 65535.23

#### Metadata

| Field        | Value     |
|--------------|-----------|
| Entrypoint   | 0x0619    |
| Data Size    | 161 bytes |
| Instructions | 17        |

```
      00 01 02 03 04 05 06 07  08 09 0A 0B 0C 0D 0E 0F
      -- -- -- -- -- -- -- --  -- -- -- -- -- -- -- --
0610:                             59 04 F8 FF FF 7F 83           Y......
0620: 80 1F 00 88 80 89 80 07  80 1F 01 6F BA F0 FF FF  ...........o....
0630: 7F 8A 80 8B 80 44 80 8C  80 1C 74 80 5B 8D 80 06  .....D....t.[...
0640: E2 05 01 06 E2 05 01 61  75 70 30 53 06 E2 05 01  .......aup0S....
0650: 06 E2 05 01 61 75 70 30  50 06 E2 05 01 06 E2 05  ....aup0P.......
0660: 01 61 75 70 30 5B 8E 80  43 E2 05 01 43 E2 05 01  .aup0[..C...C...
0670: 6A 74 30 30 5B 8F 80 06  E2 05 01 06 E2 05 01 6A  jt00[..........j
0680: 74 30 30 55 90 80 F0 FF  FF 7F F0 FF FF 7F 79 31  t00U..........y1
0690: 32 31 27 10 43 E2 05 01  03 BA 06 E2 05 01 88 80  21'.C...........
06A0: 89 80 07 80 91 80 4A FF  E1 05 01 06 E2 05 01 79  ......J........y
06B0: 00 FF E1 05 01 06 E2 05  01 00                    ..........      
```

#### Opcodes

```
  0: 0x0619 [0x59] UPDATE_ENTITY_DATA: Set EventEntity main speed = 35* * 0.1
  1: 0x0621 [0x1F] MOVE_ENTITY: EventEntity moves to X=-1.058*, Z=17.433*, Y=-1.000*
  2: 0x0629 [0x1F] MOVE_ENTITY: Update entity position (mode=1)
  3: 0x062B [0x6F] WAIT_FRAME_DELAY: Yield until WaitTime reaches zero
  4: 0x062C [0xBA] SET_ENTITY_POSITION(entity_id=LocalPlayer, pos_x=1.032*, pos_z=15.680*, pos_y=-0.999*, direction=220.0°*)
  5: 0x0639 [0x1C] WAIT(5* ticks)
  6: 0x063C [0x5B] LOAD_EXT_SCHEDULER: Load scheduler "aup0" with entities [Ajido-Marujido (ID: 17162758/0x0105E206), Ajido-Marujido (ID: 17162758/0x0105E206)], work=1286*
  7: 0x064B [0x53] WAIT_SCHEDULER_TASK: Wait for scheduler "aup0" with entities [Ajido-Marujido (ID: 17162758/0x0105E206), Ajido-Marujido (ID: 17162758/0x0105E206)]
  8: 0x0658 [0x50] END_SCHEDULER_TASK: End scheduler "au" with entities [0xE206, 0xE206], work=[261, 261]
  9: 0x0665 [0x5B] LOAD_EXT_SCHEDULER: Load scheduler "jt00" with entities [01 (ID: 17162819/0x0105E243), 01 (ID: 17162819/0x0105E243)], work=181*
 10: 0x0674 [0x5B] LOAD_EXT_SCHEDULER: Load scheduler "jt00" with entities [Ajido-Marujido (ID: 17162758/0x0105E206), Ajido-Marujido (ID: 17162758/0x0105E206)], work=86*
 11: 0x0683 [0x55] WAIT_LOAD_SCHEDULER: Wait for scheduler "y121" with entities [LocalPlayer, LocalPlayer], work=393*
 12: 0x0692 [0x27] REQ_SET(priority=0x10, entity_id=01 (ID: 17162819/0x0105E243), tag_num=0x03)
 13: 0x0699 [0xBA] SET_ENTITY_POSITION(entity_id=Ajido-Marujido (ID: 17162758/0x0105E206), pos_x=-1.058*, pos_z=17.433*, pos_y=-1.000*, direction=266.2°*)
 14: 0x06A6 [0x4A] Dhea Prandoleh (ID: 17162751/0x0105E1FF) looks at Ajido-Marujido (ID: 17162758/0x0105E206)
 15: 0x06AF [0x79] Dhea Prandoleh (ID: 17162751/0x0105E1FF) looks at Ajido-Marujido (ID: 17162758/0x0105E206) (Basic look)
 16: 0x06B9 [0x00] END_REQSTACK()
```

### Event 65535.24

#### Metadata

| Field        | Value    |
|--------------|----------|
| Entrypoint   | 0x06BA   |
| Data Size    | 20 bytes |
| Instructions | 5        |

```
      00 01 02 03 04 05 06 07  08 09 0A 0B 0C 0D 0E 0F
      -- -- -- -- -- -- -- --  -- -- -- -- -- -- -- --
06B0:                                59 04 F8 FF FF 7F            Y.....
06C0: 92 80 1F 00 93 80 94 80  95 80 1F 01 6F 00        ............o.  
```

#### Opcodes

```
  0: 0x06BA [0x59] UPDATE_ENTITY_DATA: Set EventEntity main speed = 36* * 0.1
  1: 0x06C2 [0x1F] MOVE_ENTITY: EventEntity moves to X=-7.685*, Z=7.819*, Y=-1.026*
  2: 0x06CA [0x1F] MOVE_ENTITY: Update entity position (mode=1)
  3: 0x06CC [0x6F] WAIT_FRAME_DELAY: Yield until WaitTime reaches zero
  4: 0x06CD [0x00] END_REQSTACK()
```

### Event 20

#### Metadata

| Field        | Value   |
|--------------|---------|
| Entrypoint   | 0x06CE  |
| Data Size    | 2 bytes |
| Instructions | 2       |

```
      00 01 02 03 04 05 06 07  08 09 0A 0B 0C 0D 0E 0F
      -- -- -- -- -- -- -- --  -- -- -- -- -- -- -- --
06C0:                                            4D 00                M.
```

#### Opcodes

```
  0: 0x06CE [0x4D] EventEntity->StatusEvent = 9 // Close door
  1: 0x06CF [0x00] END_REQSTACK()
```

### Event 31

#### Metadata

| Field        | Value   |
|--------------|---------|
| Entrypoint   | 0x06D0  |
| Data Size    | 2 bytes |
| Instructions | 2       |

```
      00 01 02 03 04 05 06 07  08 09 0A 0B 0C 0D 0E 0F
      -- -- -- -- -- -- -- --  -- -- -- -- -- -- -- --
06D0: 4D 00                                             M.              
```

#### Opcodes

```
  0: 0x06D0 [0x4D] EventEntity->StatusEvent = 9 // Close door
  1: 0x06D1 [0x00] END_REQSTACK()
```

### Event 32

#### Metadata

| Field        | Value   |
|--------------|---------|
| Entrypoint   | 0x06D2  |
| Data Size    | 2 bytes |
| Instructions | 2       |

```
      00 01 02 03 04 05 06 07  08 09 0A 0B 0C 0D 0E 0F
      -- -- -- -- -- -- -- --  -- -- -- -- -- -- -- --
06D0:       4C 00                                         L.            
```

#### Opcodes

```
  0: 0x06D2 [0x4C] EventEntity->StatusEvent = 8 // Open door
  1: 0x06D3 [0x00] END_REQSTACK()
```

### Event 37

#### Metadata

| Field        | Value   |
|--------------|---------|
| Entrypoint   | 0x06D4  |
| Data Size    | 2 bytes |
| Instructions | 2       |

```
      00 01 02 03 04 05 06 07  08 09 0A 0B 0C 0D 0E 0F
      -- -- -- -- -- -- -- --  -- -- -- -- -- -- -- --
06D0:             4C 00                                     L.          
```

#### Opcodes

```
  0: 0x06D4 [0x4C] EventEntity->StatusEvent = 8 // Open door
  1: 0x06D5 [0x00] END_REQSTACK()
```

### Event 42

#### Metadata

| Field        | Value   |
|--------------|---------|
| Entrypoint   | 0x06D6  |
| Data Size    | 2 bytes |
| Instructions | 2       |

```
      00 01 02 03 04 05 06 07  08 09 0A 0B 0C 0D 0E 0F
      -- -- -- -- -- -- -- --  -- -- -- -- -- -- -- --
06D0:                   4C 00                                 L.        
```

#### Opcodes

```
  0: 0x06D6 [0x4C] EventEntity->StatusEvent = 8 // Open door
  1: 0x06D7 [0x00] END_REQSTACK()
```

### Event 43

#### Metadata

| Field        | Value   |
|--------------|---------|
| Entrypoint   | 0x06D8  |
| Data Size    | 2 bytes |
| Instructions | 2       |

```
      00 01 02 03 04 05 06 07  08 09 0A 0B 0C 0D 0E 0F
      -- -- -- -- -- -- -- --  -- -- -- -- -- -- -- --
06D0:                          4C 00                            L.      
```

#### Opcodes

```
  0: 0x06D8 [0x4C] EventEntity->StatusEvent = 8 // Open door
  1: 0x06D9 [0x00] END_REQSTACK()
```
