# 17162835 - Emhi Tchaoryo

## Common Data

| Field            | Value                        |
|------------------|------------------------------|
| Zone             | Windurst Waters [S] (ID: 94) |
| Block Size       | 6816 bytes                   |
| Total Events     | 19                           |
| References Count | 315                          |

## List of Events

| Event ID                 | Entrypoint   |   Size |   Instructions |
|--------------------------|--------------|--------|----------------|
| [65535](#event-65535)    | 0x0000       |      1 |              1 |
| [168](#event-168)        | 0x0001       |      7 |              2 |
| [31](#event-31)          | 0x0008       |      1 |              1 |
| [32](#event-32)          | 0x0009       |      1 |              1 |
| [42](#event-42)          | 0x000A       |      1 |              1 |
| [43](#event-43)          | 0x000B       |      1 |              1 |
| [65535.1](#event-655351) | 0x000C       |    110 |             23 |
| [65535.2](#event-655352) | 0x007A       |     31 |              8 |
| [65535.3](#event-655353) | 0x0099       |     50 |             11 |
| [65535.4](#event-655354) | 0x00CB       |     20 |              5 |
| [65535.5](#event-655355) | 0x00DF       |     29 |              6 |
| [65535.6](#event-655356) | 0x00FC       |     29 |              6 |
| [326](#event-326)        | 0x0119       |     58 |             17 |
| [322](#event-322)        | 0x0153       |     19 |              7 |
| [311](#event-311)        | 0x0166       |     19 |              7 |
| [308](#event-308)        | 0x0179       |     80 |             24 |
| [309](#event-309)        | 0x01C9       |    101 |             25 |
| [310](#event-310)        | 0x022E       |    160 |             36 |
| [307](#event-307)        | 0x02CE       |   4746 |            998 |

## DAT References (imed_data)

|   Index | Hex Value   |   Dec Value |
|---------|-------------|-------------|
|       0 | 0x0028      |          40 |
|       1 | 0x042C      |        1068 |
|       2 | 0x52A8      |       21160 |
|       3 | 0xFFFFFC19  |  4294966297 |
|       4 | 0xFFFFFFBF  |  4294967231 |
|       5 | 0x5BED      |       23533 |
|       6 | 0xFFFFF79B  |  4294965147 |
|       7 | 0x65C2      |       26050 |
|       8 | 0xFFFFE8CE  |  4294961358 |
|       9 | 0x77A7      |       30631 |
|      10 | 0xFFFFD3A3  |  4294955939 |
|      11 | 0x85F8      |       34296 |
|      12 | 0xFFFFB5DC  |  4294948316 |
|      13 | 0x8EEE      |       36590 |
|      14 | 0xFFFFF7A6  |  4294965158 |
|      15 | 0xFFFF906F  |  4294938735 |
|      16 | 0x9972      |       39282 |
|      17 | 0xFFFFF255  |  4294963797 |
|      18 | 0xFFFF7216  |  4294930966 |
|      19 | 0xA127      |       41255 |
|      20 | 0xFFFF4523  |  4294919459 |
|      21 | 0xA881      |       43137 |
|      22 | 0xFFFFF254  |  4294963796 |
|      23 | 0xFFFF3A2B  |  4294916651 |
|      24 | 0xAE4A      |       44618 |
|      25 | 0xFFFF3A94  |  4294916756 |
|      26 | 0xAFCE      |       45006 |
|      27 | 0x000D      |          13 |
|      28 | 0xFFFF33D7  |  4294915031 |
|      29 | 0xAA40      |       43584 |
|      30 | 0xFFFF3018  |  4294914072 |
|      31 | 0xB54A      |       46410 |
|      32 | 0xFFFF3742  |  4294915906 |
|      33 | 0xC242      |       49730 |
|      34 | 0xFFFF3A26  |  4294916646 |
|      35 | 0xCAD0      |       51920 |
|      36 | 0xFFFF3707  |  4294915847 |
|      37 | 0xB608      |       46600 |
|      38 | 0x07C1      |        1985 |
|      39 | 0x3895      |       14485 |
|      40 | 0xFFFFFC18  |  4294966296 |
|      41 | 0x0398      |         920 |
|      42 | 0x36CB      |       14027 |
|      43 | 0x09F8      |        2552 |
|      44 | 0x302F      |       12335 |
|      45 | 0x3030      |       12336 |
|      46 | 0x0000      |           0 |
|      47 | 0x3031      |       12337 |
|      48 | 0x0006      |           6 |
|      49 | 0x3032      |       12338 |
|      50 | 0x0007      |           7 |
|      51 | 0x3012      |       12306 |
|      52 | 0x3013      |       12307 |
|      53 | 0x2FC7      |       12231 |
|      54 | 0x2FC8      |       12232 |
|      55 | 0x3008      |       12296 |
|      56 | 0x3009      |       12297 |
|      57 | 0x0001      |           1 |
|      58 | 0x300B      |       12299 |
|      59 | 0x300C      |       12300 |
|      60 | 0x0002      |           2 |
|      61 | 0x300A      |       12298 |
|      62 | 0x300D      |       12301 |
|      63 | 0x00C8      |         200 |
|      64 | 0x003C      |          60 |
|      65 | 0x300E      |       12302 |
|      66 | 0x3011      |       12305 |
|      67 | 0x0003      |           3 |
|      68 | 0x0004      |           4 |
|      69 | 0x0005      |           5 |
|      70 | 0x0063      |          99 |
|      71 | 0x300F      |       12303 |
|      72 | 0x3010      |       12304 |
|      73 | 0x1C42      |        7234 |
|      74 | 0x2FC9      |       12233 |
|      75 | 0x2FCA      |       12234 |
|      76 | 0x2FCB      |       12235 |
|      77 | 0x3007      |       12295 |
|      78 | 0x302E      |       12334 |
|      79 | 0x302D      |       12333 |
|      80 | 0x2FCC      |       12236 |
|      81 | 0x2FCD      |       12237 |
|      82 | 0x2FD2      |       12242 |
|      83 | 0x2FD4      |       12244 |
|      84 | 0x0009      |           9 |
|      85 | 0x2FD5      |       12245 |
|      86 | 0x2FCE      |       12238 |
|      87 | 0x2FCF      |       12239 |
|      88 | 0x2FD0      |       12240 |
|      89 | 0x2FD1      |       12241 |
|      90 | 0x0008      |           8 |
|      91 | 0x3036      |       12342 |
|      92 | 0x3037      |       12343 |
|      93 | 0x000B      |          11 |
|      94 | 0x000C      |          12 |
|      95 | 0x000F      |          15 |
|      96 | 0x0010      |          16 |
|      97 | 0x0013      |          19 |
|      98 | 0x0014      |          20 |
|      99 | 0x0017      |          23 |
|     100 | 0x0018      |          24 |
|     101 | 0x001B      |          27 |
|     102 | 0x001C      |          28 |
|     103 | 0x001F      |          31 |
|     104 | 0x2FDA      |       12250 |
|     105 | 0x2FF3      |       12275 |
|     106 | 0x000A      |          10 |
|     107 | 0x2FF2      |       12274 |
|     108 | 0x000E      |          14 |
|     109 | 0x2FF4      |       12276 |
|     110 | 0x0011      |          17 |
|     111 | 0x0012      |          18 |
|     112 | 0x2FDB      |       12251 |
|     113 | 0x2FF5      |       12277 |
|     114 | 0x3000      |       12288 |
|     115 | 0x3001      |       12289 |
|     116 | 0x2FF6      |       12278 |
|     117 | 0x2FF7      |       12279 |
|     118 | 0x2FDD      |       12253 |
|     119 | 0x2FF8      |       12280 |
|     120 | 0x2FF9      |       12281 |
|     121 | 0x2FFA      |       12282 |
|     122 | 0x2FFB      |       12283 |
|     123 | 0x2FFC      |       12284 |
|     124 | 0x2FDC      |       12252 |
|     125 | 0x2FFD      |       12285 |
|     126 | 0x2FFE      |       12286 |
|     127 | 0x2FD6      |       12246 |
|     128 | 0x2FDF      |       12255 |
|     129 | 0x2FE2      |       12258 |
|     130 | 0x2FE3      |       12259 |
|     131 | 0x2FE4      |       12260 |
|     132 | 0x2FE5      |       12261 |
|     133 | 0x2FE0      |       12256 |
|     134 | 0x2FD7      |       12247 |
|     135 | 0x2FE6      |       12262 |
|     136 | 0x2FE7      |       12263 |
|     137 | 0x2FD8      |       12248 |
|     138 | 0x2FE8      |       12264 |
|     139 | 0x2FED      |       12269 |
|     140 | 0x2FEA      |       12266 |
|     141 | 0x2FE9      |       12265 |
|     142 | 0x2FEC      |       12268 |
|     143 | 0x2FEE      |       12270 |
|     144 | 0x2FD9      |       12249 |
|     145 | 0x2FEF      |       12271 |
|     146 | 0x2FF0      |       12272 |
|     147 | 0x3002      |       12290 |
|     148 | 0x3003      |       12291 |
|     149 | 0x3004      |       12292 |
|     150 | 0x3005      |       12293 |
|     151 | 0xFFFFFFFF  |  4294967295 |
|     152 | 0x3006      |       12294 |
|     153 | 0xFFFFFFFE  |  4294967294 |
|     154 | 0x2FD3      |       12243 |
|     155 | 0x0155      |         341 |
|     156 | 0x0156      |         342 |
|     157 | 0x0157      |         343 |
|     158 | 0x0158      |         344 |
|     159 | 0x0159      |         345 |
|     160 | 0x015A      |         346 |
|     161 | 0x015B      |         347 |
|     162 | 0x015C      |         348 |
|     163 | 0x015D      |         349 |
|     164 | 0x015E      |         350 |
|     165 | 0x015F      |         351 |
|     166 | 0x0160      |         352 |
|     167 | 0x0161      |         353 |
|     168 | 0x0162      |         354 |
|     169 | 0x0163      |         355 |
|     170 | 0x0164      |         356 |
|     171 | 0x0165      |         357 |
|     172 | 0x0166      |         358 |
|     173 | 0x0167      |         359 |
|     174 | 0x0168      |         360 |
|     175 | 0x0169      |         361 |
|     176 | 0x016A      |         362 |
|     177 | 0x016B      |         363 |
|     178 | 0x016C      |         364 |
|     179 | 0x016D      |         365 |
|     180 | 0x016E      |         366 |
|     181 | 0x016F      |         367 |
|     182 | 0x0170      |         368 |
|     183 | 0x0171      |         369 |
|     184 | 0x0172      |         370 |
|     185 | 0x0173      |         371 |
|     186 | 0x0174      |         372 |
|     187 | 0x0175      |         373 |
|     188 | 0x0176      |         374 |
|     189 | 0x0177      |         375 |
|     190 | 0x0178      |         376 |
|     191 | 0x0179      |         377 |
|     192 | 0x017A      |         378 |
|     193 | 0x017B      |         379 |
|     194 | 0x017C      |         380 |
|     195 | 0x017D      |         381 |
|     196 | 0x017E      |         382 |
|     197 | 0x017F      |         383 |
|     198 | 0x0181      |         385 |
|     199 | 0x0180      |         384 |
|     200 | 0x0185      |         389 |
|     201 | 0x0182      |         386 |
|     202 | 0x0183      |         387 |
|     203 | 0x0184      |         388 |
|     204 | 0x0186      |         390 |
|     205 | 0x0187      |         391 |
|     206 | 0x0188      |         392 |
|     207 | 0x0189      |         393 |
|     208 | 0x018A      |         394 |
|     209 | 0x018B      |         395 |
|     210 | 0x018C      |         396 |
|     211 | 0x018D      |         397 |
|     212 | 0x018E      |         398 |
|     213 | 0x018F      |         399 |
|     214 | 0x0190      |         400 |
|     215 | 0x0191      |         401 |
|     216 | 0x0192      |         402 |
|     217 | 0x0193      |         403 |
|     218 | 0x0194      |         404 |
|     219 | 0x0195      |         405 |
|     220 | 0x0196      |         406 |
|     221 | 0x0197      |         407 |
|     222 | 0x0198      |         408 |
|     223 | 0x0199      |         409 |
|     224 | 0x019A      |         410 |
|     225 | 0x019B      |         411 |
|     226 | 0x019C      |         412 |
|     227 | 0x019D      |         413 |
|     228 | 0x019E      |         414 |
|     229 | 0x019F      |         415 |
|     230 | 0x01A0      |         416 |
|     231 | 0x01A1      |         417 |
|     232 | 0x01A2      |         418 |
|     233 | 0x01A3      |         419 |
|     234 | 0x01A4      |         420 |
|     235 | 0x01A5      |         421 |
|     236 | 0x01A6      |         422 |
|     237 | 0x01A7      |         423 |
|     238 | 0x01A8      |         424 |
|     239 | 0x01A9      |         425 |
|     240 | 0x01AA      |         426 |
|     241 | 0x01AB      |         427 |
|     242 | 0x01AC      |         428 |
|     243 | 0x01AD      |         429 |
|     244 | 0x01AE      |         430 |
|     245 | 0x01AF      |         431 |
|     246 | 0x01B0      |         432 |
|     247 | 0x01B1      |         433 |
|     248 | 0x01B2      |         434 |
|     249 | 0x01B3      |         435 |
|     250 | 0x01B4      |         436 |
|     251 | 0x01B5      |         437 |
|     252 | 0x01B6      |         438 |
|     253 | 0x01B7      |         439 |
|     254 | 0x01B8      |         440 |
|     255 | 0x01B9      |         441 |
|     256 | 0x01BA      |         442 |
|     257 | 0x01BB      |         443 |
|     258 | 0x01BC      |         444 |
|     259 | 0x01BD      |         445 |
|     260 | 0x01BE      |         446 |
|     261 | 0x01BF      |         447 |
|     262 | 0x01C0      |         448 |
|     263 | 0x01C1      |         449 |
|     264 | 0x01C2      |         450 |
|     265 | 0x01C3      |         451 |
|     266 | 0x01C4      |         452 |
|     267 | 0x01C5      |         453 |
|     268 | 0x01C7      |         455 |
|     269 | 0x01C6      |         454 |
|     270 | 0x01C8      |         456 |
|     271 | 0x01C9      |         457 |
|     272 | 0x01CA      |         458 |
|     273 | 0x01CB      |         459 |
|     274 | 0x01CC      |         460 |
|     275 | 0x01CD      |         461 |
|     276 | 0x01CE      |         462 |
|     277 | 0x01CF      |         463 |
|     278 | 0x01D0      |         464 |
|     279 | 0x01D1      |         465 |
|     280 | 0x01D2      |         466 |
|     281 | 0x01D3      |         467 |
|     282 | 0x01D4      |         468 |
|     283 | 0x01D5      |         469 |
|     284 | 0x01D6      |         470 |
|     285 | 0x01D7      |         471 |
|     286 | 0x01D8      |         472 |
|     287 | 0x01D9      |         473 |
|     288 | 0x01DA      |         474 |
|     289 | 0x01DB      |         475 |
|     290 | 0x01DC      |         476 |
|     291 | 0x01DD      |         477 |
|     292 | 0x01DE      |         478 |
|     293 | 0x01DF      |         479 |
|     294 | 0x01E0      |         480 |
|     295 | 0x01E1      |         481 |
|     296 | 0x01E2      |         482 |
|     297 | 0x01E3      |         483 |
|     298 | 0x01E4      |         484 |
|     299 | 0x01E5      |         485 |
|     300 | 0x01E6      |         486 |
|     301 | 0x01E7      |         487 |
|     302 | 0x01E8      |         488 |
|     303 | 0x01E9      |         489 |
|     304 | 0x01EA      |         490 |
|     305 | 0x01EB      |         491 |
|     306 | 0x01EC      |         492 |
|     307 | 0x01ED      |         493 |
|     308 | 0x01EE      |         494 |
|     309 | 0x01EF      |         495 |
|     310 | 0x01F0      |         496 |
|     311 | 0x01F1      |         497 |
|     312 | 0x01F2      |         498 |
|     313 | 0x01F3      |         499 |
|     314 | 0x01F4      |         500 |

## String References

- **7234**: You have earned $0 Allied Note[/s]!
- **12231**: Hey! You need information on Allied Campaign operations? Well, you're in the rrright place!
- **12232**: Hold on... You're serrrving under the flag of some other nation, aren't you? Sorrry, buddy, but I can't help you.
- **12233**: Just joined the Cobras, eh? No prrroblem! I can give you a quick rundown of Op Credits if you need one.
- **12234**: Are you familiar with Op Credits? [Yes./Not really.]
- **12235**: Grrreat. Then we can get right down to business!
- **12236**: Let's see... It says here that you have $0 Op Credit[/s].
- **12237**: Did you want to join an operation today? [Yes./What are Op Credits again?/View your nation's information./No.]
- **12238**: Listen close, <Player>. To ensure balance in the Allied Campaign, the Allied War Council has developed a fancy system that rrregulates the three nations' participation in operations.
- **12239**: Each member of each army is rrrationed a voucher, known as an Op Credit, every so often.
- **12240**: At least one credit is needed to take part in most campaign operations, with more advanced missions rrrequiring additional vouchers, which are accumulated at the rate of one every [day/ten minutes].
- **12241**: However, rrremember this--once an Op Credit is used, it won't be refunded if you abandon an operation without completing your duties.
- **12242**: Alright then. Speak up when you have completed your preparations and are ready to go.
- **12243**: Oooh... I'm sorrry to say that there are no campaign operations available to you right now. Why don't you go somewhere and rrrelax, and we can talk about signing up again some time.
- **12244**: Alrrright, you've been cleared for participation in the following operations:
- **12245**: Please select a category. [Resource procurement./Supply transport./Security./Supply manufacture./Offensive operations./Defensive operations./Intel gathering./Military training./None of the above.]
- **12246**: Please select an operation. [Smokescreen I. ([$26/$26$26/$26$26$26/$26$26$26$26/$26$26$26$26$26])/Smokescreen II. ([$26/$26$26/$26$26$26/$26$26$26$26/$26$26$26$26$26])/Smokescreen III. ([$26/$26$26/$26$26$26/$26$26$26$26/$26$26$26$26$26])/Smokescreen IV. ([$26/$26$26/$26$26$26/$26$26$26$26/$26$26$26$26$26])/Smokescreen V. ([$26/$26$26/$26$26$26/$26$26$26$26/$26$26$26$26$26])/Plucking Wings. ([$26/$26$26/$26$26$26/$26$26$26$26/$26$26$26$26$26])/Kinslayer: Baileys. ([$26/$26$26/$26$26$26/$26$26$26$26/$26$26$26$26$26])/Kinslayer: Keep. ([$26/$26$26/$26$26$26/$26$26$26$26/$26$26$26$26$26])/Fiat Lux. ([$26/$26$26/$26$26$26/$26$26$26$26/$26$26$26$26$26])/Top Secret Operation X. ([$26/$26$26/$26$26$26/$26$26$26$26/$26$26$26$26$26])/Pit Spider I. ([$26/$26$26/$26$26$26/$26$26$26$26/$26$26$26$26$26])/Pit Spider II. ([$26/$26$26/$26$26$26/$26$26$26$26/$26$26$26$26$26])/Pit Spider III. ([$26/$26$26/$26$26$26/$26$26$26$26/$26$26$26$26$26])/By Light of Fire I. ([$26/$26$26/$26$26$26/$26$26$26$26/$26$26$26$26$26])/Top Secret Operation X. ([$26/$26$26/$26$26$26/$26$26$26$26/$26$26$26$26$26])/Top Secret Operation X. ([$26/$26$26/$26$26$26/$26$26$26$26/$26$26$26$26$26])/Top Secret Operation X. ([$26/$26$26/$26$26$26/$26$26$26$26/$26$26$26$26$26])/Top Secret Operation X. ([$26/$26$26/$26$26$26/$26$26$26$26/$26$26$26$26$26])/Top Secret Operation X. ([$26/$26$26/$26$26$26/$26$26$26$26/$26$26$26$26$26])/Top Secret Operation X. ([$26/$26$26/$26$26$26/$26$26$26$26/$26$26$26$26$26])/Quit.]
- **12247**: Please select an operation. [Aegis Scream I. ([$26/$26$26/$26$26$26/$26$26$26$26/$26$26$26$26$26])/Aegis Scream II. ([$26/$26$26/$26$26$26/$26$26$26$26/$26$26$26$26$26])/Aegis Scream III. ([$26/$26$26/$26$26$26/$26$26$26$26/$26$26$26$26$26])/Aegis Scream IV. ([$26/$26$26/$26$26$26/$26$26$26$26/$26$26$26$26$26])/Aegis Scream V. ([$26/$26$26/$26$26$26/$26$26$26$26/$26$26$26$26$26])/Top Secret Operation X. ([$26/$26$26/$26$26$26/$26$26$26$26/$26$26$26$26$26])/Top Secret Operation X. ([$26/$26$26/$26$26$26/$26$26$26$26/$26$26$26$26$26])/Top Secret Operation X. ([$26/$26$26/$26$26$26/$26$26$26$26/$26$26$26$26$26])/Top Secret Operation X. ([$26/$26$26/$26$26$26/$26$26$26$26/$26$26$26$26$26])/Top Secret Operation X. ([$26/$26$26/$26$26$26/$26$26$26$26/$26$26$26$26$26])/Granite Rose I. ([$26/$26$26/$26$26$26/$26$26$26$26/$26$26$26$26$26])/Granite Rose II. ([$26/$26$26/$26$26$26/$26$26$26$26/$26$26$26$26$26])/Granite Rose III. ([$26/$26$26/$26$26$26/$26$26$26$26/$26$26$26$26$26])/Top Secret Operation X. ([$26/$26$26/$26$26$26/$26$26$26$26/$26$26$26$26$26])/Top Secret Operation X. ([$26/$26$26/$26$26$26/$26$26$26$26/$26$26$26$26$26])/Top Secret Operation X. ([$26/$26$26/$26$26$26/$26$26$26$26/$26$26$26$26$26])/Top Secret Operation X. ([$26/$26$26/$26$26$26/$26$26$26$26/$26$26$26$26$26])/Top Secret Operation X. ([$26/$26$26/$26$26$26/$26$26$26$26/$26$26$26$26$26])/Top Secret Operation X. ([$26/$26$26/$26$26$26/$26$26$26$26/$26$26$26$26$26])/Top Secret Operation X. ([$26/$26$26/$26$26$26/$26$26$26$26/$26$26$26$26$26])/Quit.]
- **12248**: Please select an operation. [Hawk Eye I. ([$26/$26$26/$26$26$26/$26$26$26$26/$26$26$26$26$26])/Hawk Eye II. ([$26/$26$26/$26$26$26/$26$26$26$26/$26$26$26$26$26])/Hawk Eye III. ([$26/$26$26/$26$26$26/$26$26$26$26/$26$26$26$26$26])/Hawk Eye IV. ([$26/$26$26/$26$26$26/$26$26$26$26/$26$26$26$26$26])/Prying Eyes I. ([$26/$26$26/$26$26$26/$26$26$26$26/$26$26$26$26$26])/Prying Eyes II. ([$26/$26$26/$26$26$26/$26$26$26$26/$26$26$26$26$26])/Deep Cover I. ([$26/$26$26/$26$26$26/$26$26$26$26/$26$26$26$26$26])/Deep Cover II. ([$26/$26$26/$26$26$26/$26$26$26$26/$26$26$26$26$26])/Deep Cover III. ([$26/$26$26/$26$26$26/$26$26$26$26/$26$26$26$26$26])/Top Secret Operation X. ([$26/$26$26/$26$26$26/$26$26$26$26/$26$26$26$26$26])/Slaughterhouse I. ([$26/$26$26/$26$26$26/$26$26$26$26/$26$26$26$26$26])/Slaughterhouse II. ([$26/$26$26/$26$26$26/$26$26$26$26/$26$26$26$26$26])/Slaughterhouse III. ([$26/$26$26/$26$26$26/$26$26$26$26/$26$26$26$26$26])/Slaughterhouse IV. ([$26/$26$26/$26$26$26/$26$26$26$26/$26$26$26$26$26])/Frozen Flame. ([$26/$26$26/$26$26$26/$26$26$26$26/$26$26$26$26$26])/Bailey Borer. ([$26/$26$26/$26$26$26/$26$26$26$26/$26$26$26$26$26])/Top Secret Operation X. ([$26/$26$26/$26$26$26/$26$26$26$26/$26$26$26$26$26])/Top Secret Operation X. ([$26/$26$26/$26$26$26/$26$26$26$26/$26$26$26$26$26])/Top Secret Operation X. ([$26/$26$26/$26$26$26/$26$26$26$26/$26$26$26$26$26])/Top Secret Operation X. ([$26/$26$26/$26$26$26/$26$26$26$26/$26$26$26$26$26])/Quit.]
- **12249**: Please select an operation. [Brave Dawn I. ([$26/$26$26/$26$26$26/$26$26$26$26/$26$26$26$26$26])/Brave Dawn II. ([$26/$26$26/$26$26$26/$26$26$26$26/$26$26$26$26$26])/Brave Dawn III. ([$26/$26$26/$26$26$26/$26$26$26$26/$26$26$26$26$26])/Top Secret Operation X. ([$26/$26$26/$26$26$26/$26$26$26$26/$26$26$26$26$26])/Top Secret Operation X. ([$26/$26$26/$26$26$26/$26$26$26$26/$26$26$26$26$26])/Top Secret Operation X. ([$26/$26$26/$26$26$26/$26$26$26$26/$26$26$26$26$26])/Top Secret Operation X. ([$26/$26$26/$26$26$26/$26$26$26$26/$26$26$26$26$26])/Top Secret Operation X. ([$26/$26$26/$26$26$26/$26$26$26$26/$26$26$26$26$26])/Top Secret Operation X. ([$26/$26$26/$26$26$26/$26$26$26$26/$26$26$26$26$26])/Top Secret Operation X. ([$26/$26$26/$26$26$26/$26$26$26$26/$26$26$26$26$26])/Cut and Cauterize I. ([$26/$26$26/$26$26$26/$26$26$26$26/$26$26$26$26$26])/Cut and Cauterize II. ([$26/$26$26/$26$26$26/$26$26$26$26/$26$26$26$26$26])/Cut and Cauterize III. ([$26/$26$26/$26$26$26/$26$26$26$26/$26$26$26$26$26])/Top Secret Operation X. ([$26/$26$26/$26$26$26/$26$26$26$26/$26$26$26$26$26])/Top Secret Operation X. ([$26/$26$26/$26$26$26/$26$26$26$26/$26$26$26$26$26])/Top Secret Operation X. ([$26/$26$26/$26$26$26/$26$26$26$26/$26$26$26$26$26])/Top Secret Operation X. ([$26/$26$26/$26$26$26/$26$26$26$26/$26$26$26$26$26])/Top Secret Operation X. ([$26/$26$26/$26$26$26/$26$26$26$26/$26$26$26$26$26])/Top Secret Operation X. ([$26/$26$26/$26$26$26/$26$26$26$26/$26$26$26$26$26])/Top Secret Operation X. ([$26/$26$26/$26$26$26/$26$26$26$26/$26$26$26$26$26])/Quit.]
- **12250**: Please select an operation. [Stock and Awe I. ([$26/$26$26/$26$26$26/$26$26$26$26/$26$26$26$26$26])/Stock and Awe II. ([$26/$26$26/$26$26$26/$26$26$26$26/$26$26$26$26$26])/Stock and Awe III. ([$26/$26$26/$26$26$26/$26$26$26$26/$26$26$26$26$26])/Stock and Awe IV. ([$26/$26$26/$26$26$26/$26$26$26$26/$26$26$26$26$26])/Top Secret Operation X. ([$26/$26$26/$26$26$26/$26$26$26$26/$26$26$26$26$26])/Top Secret Operation X. ([$26/$26$26/$26$26$26/$26$26$26$26/$26$26$26$26$26])/Top Secret Operation X. ([$26/$26$26/$26$26$26/$26$26$26$26/$26$26$26$26$26])/Top Secret Operation X. ([$26/$26$26/$26$26$26/$26$26$26$26/$26$26$26$26$26])/Top Secret Operation X. ([$26/$26$26/$26$26$26/$26$26$26$26/$26$26$26$26$26])/Top Secret Operation X. ([$26/$26$26/$26$26$26/$26$26$26$26/$26$26$26$26$26])/Materiel Storm I. ([$26/$26$26/$26$26$26/$26$26$26$26/$26$26$26$26$26])/Materiel Storm II. ([$26/$26$26/$26$26$26/$26$26$26$26/$26$26$26$26$26])/Materiel Storm III. ([$26/$26$26/$26$26$26/$26$26$26$26/$26$26$26$26$26])/Materiel Storm IV. ([$26/$26$26/$26$26$26/$26$26$26$26/$26$26$26$26$26])/Top Secret Operation X. ([$26/$26$26/$26$26$26/$26$26$26$26/$26$26$26$26$26])/Search and Seizure I. ([$26/$26$26/$26$26$26/$26$26$26$26/$26$26$26$26$26])/Top Secret Operation X. ([$26/$26$26/$26$26$26/$26$26$26$26/$26$26$26$26$26])/Top Secret Operation X. ([$26/$26$26/$26$26$26/$26$26$26$26/$26$26$26$26$26])/Top Secret Operation X. ([$26/$26$26/$26$26$26/$26$26$26$26/$26$26$26$26$26])/Top Secret Operation X. ([$26/$26$26/$26$26$26/$26$26$26$26/$26$26$26$26$26])/Quit.]
- **12251**: Please select an operation. [Vanguard-X I. ([$26/$26$26/$26$26$26/$26$26$26$26/$26$26$26$26$26])/Vanguard-X II. ([$26/$26$26/$26$26$26/$26$26$26$26/$26$26$26$26$26])/Vanguard-X III. ([$26/$26$26/$26$26$26/$26$26$26$26/$26$26$26$26$26])/Vanguard-X IV. ([$26/$26$26/$26$26$26/$26$26$26$26/$26$26$26$26$26])/Top Secret Operation X. ([$26/$26$26/$26$26$26/$26$26$26$26/$26$26$26$26$26])/Top Secret Operation X. ([$26/$26$26/$26$26$26/$26$26$26$26/$26$26$26$26$26])/Top Secret Operation X. ([$26/$26$26/$26$26$26/$26$26$26$26/$26$26$26$26$26])/Top Secret Operation X. ([$26/$26$26/$26$26$26/$26$26$26$26/$26$26$26$26$26])/Top Secret Operation X. ([$26/$26$26/$26$26$26/$26$26$26$26/$26$26$26$26$26])/Top Secret Operation X. ([$26/$26$26/$26$26$26/$26$26$26$26/$26$26$26$26$26])/Crimson Domino I. ([$26/$26$26/$26$26$26/$26$26$26$26/$26$26$26$26$26])/Crimson Domino II. ([$26/$26$26/$26$26$26/$26$26$26$26/$26$26$26$26$26])/Crimson Domino III. ([$26/$26$26/$26$26$26/$26$26$26$26/$26$26$26$26$26])/Crimson Domino IV. ([$26/$26$26/$26$26$26/$26$26$26$26/$26$26$26$26$26])/Bridge Too Far I. ([$26/$26$26/$26$26$26/$26$26$26$26/$26$26$26$26$26])/Top Secret Operation X. ([$26/$26$26/$26$26$26/$26$26$26$26/$26$26$26$26$26])/Top Secret Operation X. ([$26/$26$26/$26$26$26/$26$26$26$26/$26$26$26$26$26])/Top Secret Operation X. ([$26/$26$26/$26$26$26/$26$26$26$26/$26$26$26$26$26])/Top Secret Operation X. ([$26/$26$26/$26$26$26/$26$26$26$26/$26$26$26$26$26])/Top Secret Operation X. ([$26/$26$26/$26$26$26/$26$26$26$26/$26$26$26$26$26])/Quit.]
- **12252**: Please select an operation. [Crystal Fist I. ([$26/$26$26/$26$26$26/$26$26$26$26/$26$26$26$26$26])/Crystal Fist II. ([$26/$26$26/$26$26$26/$26$26$26$26/$26$26$26$26$26])/Crystal Fist III. ([$26/$26$26/$26$26$26/$26$26$26$26/$26$26$26$26$26])/Crystal Fist IV. ([$26/$26$26/$26$26$26/$26$26$26$26/$26$26$26$26$26])/Top Secret Operation X. ([$26/$26$26/$26$26$26/$26$26$26$26/$26$26$26$26$26])/Top Secret Operation X. ([$26/$26$26/$26$26$26/$26$26$26$26/$26$26$26$26$26])/Top Secret Operation X. ([$26/$26$26/$26$26$26/$26$26$26$26/$26$26$26$26$26])/Top Secret Operation X. ([$26/$26$26/$26$26$26/$26$26$26$26/$26$26$26$26$26])/Top Secret Operation X. ([$26/$26$26/$26$26$26/$26$26$26$26/$26$26$26$26$26])/Top Secret Operation X. ([$26/$26$26/$26$26$26/$26$26$26$26/$26$26$26$26$26])/Iron Anvil I. ([$26/$26$26/$26$26$26/$26$26$26$26/$26$26$26$26$26])/Iron Anvil II. ([$26/$26$26/$26$26$26/$26$26$26$26/$26$26$26$26$26])/Iron Anvil III. ([$26/$26$26/$26$26$26/$26$26$26$26/$26$26$26$26$26])/Iron Anvil IV. ([$26/$26$26/$26$26$26/$26$26$26$26/$26$26$26$26$26])/Top Secret Operation X. ([$26/$26$26/$26$26$26/$26$26$26$26/$26$26$26$26$26])/Top Secret Operation X. ([$26/$26$26/$26$26$26/$26$26$26$26/$26$26$26$26$26])/Top Secret Operation X. ([$26/$26$26/$26$26$26/$26$26$26$26/$26$26$26$26$26])/Top Secret Operation X. ([$26/$26$26/$26$26$26/$26$26$26$26/$26$26$26$26$26])/Top Secret Operation X. ([$26/$26$26/$26$26$26/$26$26$26$26/$26$26$26$26$26])/Top Secret Operation X. ([$26/$26$26/$26$26$26/$26$26$26$26/$26$26$26$26$26])/Quit.]
- **12253**: Please select an operation. [Streetsweeper I. ([$26/$26$26/$26$26$26/$26$26$26$26/$26$26$26$26$26])/Streetsweeper II. ([$26/$26$26/$26$26$26/$26$26$26$26/$26$26$26$26$26])/Streetsweeper III. ([$26/$26$26/$26$26$26/$26$26$26$26/$26$26$26$26$26])/Top Secret Operation X. ([$26/$26$26/$26$26$26/$26$26$26$26/$26$26$26$26$26])/Top Secret Operation X. ([$26/$26$26/$26$26$26/$26$26$26$26/$26$26$26$26$26])/Delta Strike I. ([$26/$26$26/$26$26$26/$26$26$26$26/$26$26$26$26$26])/Delta Strike II. ([$26/$26$26/$26$26$26/$26$26$26$26/$26$26$26$26$26])/Delta Strike III. ([$26/$26$26/$26$26$26/$26$26$26$26/$26$26$26$26$26])/Top Secret Operation X. ([$26/$26$26/$26$26$26/$26$26$26$26/$26$26$26$26$26])/Top Secret Operation X. ([$26/$26$26/$26$26$26/$26$26$26$26/$26$26$26$26$26])/Steel Resolve I. ([$26/$26$26/$26$26$26/$26$26$26$26/$26$26$26$26$26])/Steel Resolve II. ([$26/$26$26/$26$26$26/$26$26$26$26/$26$26$26$26$26])/Steel Resolve III. ([$26/$26$26/$26$26$26/$26$26$26$26/$26$26$26$26$26])/Steel Resolve IV. ([$26/$26$26/$26$26$26/$26$26$26$26/$26$26$26$26$26])/Top Secret Operation X. ([$26/$26$26/$26$26$26/$26$26$26$26/$26$26$26$26$26])/Magna Cache I. ([$26/$26$26/$26$26$26/$26$26$26$26/$26$26$26$26$26])/Magna Cache II. ([$26/$26$26/$26$26$26/$26$26$26$26/$26$26$26$26$26])/Magna Cache III. ([$26/$26$26/$26$26$26/$26$26$26$26/$26$26$26$26$26])/Hazardous Materials. ([$26/$26$26/$26$26$26/$26$26$26$26/$26$26$26$26$26])/Top Secret Operation X. ([$26/$26$26/$26$26$26/$26$26$26$26/$26$26$26$26$26])/Quit.]
- **12255**: In this operation, you'll need to infiltrate an area under beastman control and storrrm one of their strrrongholds. Hopefully this'll help us gain influence in the rrregion.
- **12256**: In this operation, you'll need to ambush one of the enemy's supply caravans and take out the whole lot of 'em!
- **12258**: This operation requires that you eliminate the commander of the Yagudo Theomilitarrry, Soo Luma the Ascended.
- **12259**: This operation requires you to eliminate the Dark Kindred stationed in the Castle Zvahl Baileys.
- **12260**: This operation requires you to eliminate the Dark Kindred stationed in the Castle Zvahl Keep.
- **12261**: This operation requires you to do no less than strike down the Shadow Lord himself. Goddess be with you, soldier!
- **12262**: For this operation, you'll have to defend one of our strrrongholds against a beastman assault.
- **12263**: In this operation, you'll need to help our garrrison soldiers fight off an enemy siege.
- **12264**: In this operation, you'll need to infiltrate an enemy forrrtress and gather info on the stronghold's defenses.
- **12265**: In this operation, you'll need to infiltrate an enemy stronghold and create some serious havoc.
- **12266**: This operation requires that you infiltrate enemy territory and gather intel on their equipment.
- **12268**: For this operation, you'll have to infiltrate the enemy's northern stronghold, commandeer their prototype weapon, and use it to raze the place to the ground.
- **12269**: This operation requires that you infiltrate Castle Zvahl and gather intel on the unidentified devices enhancing our enemy's defensive capabilities.
- **12270**: This operation requires you to seek out and destroy the source of the magical barrier protecting Castle Zvahl's walls.
- **12271**: In this operation, you'll need to lend a paw in the trrraining of a new recruit.
- **12272**: This operation requires you to assist in the medical training of some new recruits. See if you can't make some fearless salvemixers out of them!
- **12274**: In this operation, you'll need to gather supplies for delivery to the frrrontlines.
- **12275**: In this operation, you'll need to help rrresupply our nation's munitions stockpiles.
- **12276**: This operation requires that you locate an enemy supply convoy and securrre any valuable supplies possible.
- **12277**: In this operation, you'll need to escorrrt a rrreinforcement soldier to her destination on the frontlines.
- **12278**: In this operation, you'll need to deliver supplies to one of our frrrontline strongholds.
- **12279**: This operation requires that you serve your army by offering strategies to best ensurrre the safe transport of precious cargo.
- **12280**: In this operation, you'll need to locate and rrremove any suspicious objects lying around the capital.
- **12281**: In this operation, you'll need to patrol Federation territory and errradicate any threats you come acrrross.
- **12282**: This operation requires that you take part in the fortification of one of your nation's strrrongholds.
- **12283**: This operation requires that you contribute to the expansion of the provision storehouse of one of your nation's strrrongholds.
- **12284**: This operation requires you to deliver a vital shipment of powerfully magicked supplies to our northern stronghold, preferably without getting yourself killed in the process.
- **12285**: In this operation, you'll need to assist Federation guildmasters in trrraining initiates.
- **12286**: In this operation, you'll need to teach our adepts some of your advanced synthesis techniques.
- **12288**: Mind you, the war effort on the northern front is being handled under a separate operation. Whatever you do up there, it won't count toward this objective.
- **12289**: Remember, only efforts on the northern front will count toward this operation's objectives.
- **12290**: So, shall I sign you up?
- **12291**: Participate in this operation? [Yes./No.]
- **12292**: Okay! Your name's on the campaign ledger, and you're ready to rrroll. Do not forget to report to me when you're all finished. Good luck to you, <Player>.
- **12293**: Select Campaign Ops within the Missions menu to view operation orders.
- **12294**: Ouch... I'm sorry, <Player>. All positions for that operation have been filled. You'll have to trrry another one.
- **12295**: Hold up... You don't have enough Op Credits to join any operations. Back to the barracks, buddy! I'll see you tomorrow!
- **12296**: Whoa... I didn't expect to see you back so soon.
- **12297**: Is there something wrong? [I'm aborting the operation./[I just came to see you/I just came to say hello].]
- **12298**: Well, I'm flatterrred, but this ain't going to earn you any points with the major. You'd better get back out therrre if you value your hide.
- **12299**: ...What? I wasn't listening. Could you rrrepeat that?
- **12300**: Huh... And I had you pegged for a harrrd worker... I guess it goes to show you can't judge a book by its cover. Maybe you should considerrr a different line of work.
- **12301**: Ah, <Player>. Back at last. Let's hearrr all about your latest escapades...
- **12302**: [......<Sigh>....../......Hmmm....../......I see...!]
- **12303**: I knew from the moment you walked up here you'd come thrrrough, <Player>. The boss...I mean, Major Mihgo will be pleased.
- **12304**: It's alrrright, <Player>. Not everything goes as we plan it. On the other hand, a success is a success. Good job!
- **12305**: You'd better hope the boss doesn't hearrr about this... She's been in a terrible mood lately...
- **12306**: Wait a Windurst Woods minute... Your campaign medal's expirrred! You know I can't sign you up for an operation like this.
- **12307**: You run on down to the Campaign Evaluation Official and strrraighten things out first, alrrright?
- **12333**: You will be issued a new Op Credit in approximately $0 [hour/hours] (Earth time).
- **12334**: You will be issued a new Op Credit in less than an hour (Earth time).
- **12335**: Isn't that $0? You must want to put it in safekeeping, then.
- **12336**: What will you do? [Add it to your other Op Credits./Nevermind.]
- **12337**: Fine. Hand it over, then. Come on, the $0!
- **12338**: Whatever. Here, then. I don't want it.
- **12342**: Current nation status: Funds: [UNKNOWN/$25/$25$25/$25$25$25/$25$25$25$25/$25$25$25$25$25/$25$25$25$25$25$25/$25$25$25$25$25$25$25/$25$25$25$25$25$25$25$25/$25$25$25$25$25$25$25$25$25/$25$25$25$25$25$25$25$25$25$25] Supplies: [UNKNOWN/$25/$25$25/$25$25$25/$25$25$25$25/$25$25$25$25$25/$25$25$25$25$25$25/$25$25$25$25$25$25$25/$25$25$25$25$25$25$25$25/$25$25$25$25$25$25$25$25$25/$25$25$25$25$25$25$25$25$25$25] Tactics: [UNKNOWN/$25/$25$25/$25$25$25/$25$25$25$25/$25$25$25$25$25/$25$25$25$25$25$25/$25$25$25$25$25$25$25/$25$25$25$25$25$25$25$25/$25$25$25$25$25$25$25$25$25/$25$25$25$25$25$25$25$25$25$25]
- **12343**: Skill: [UNKNOWN/$25/$25$25/$25$25$25/$25$25$25$25/$25$25$25$25$25/$25$25$25$25$25$25/$25$25$25$25$25$25$25/$25$25$25$25$25$25$25$25/$25$25$25$25$25$25$25$25$25/$25$25$25$25$25$25$25$25$25$25] Production: [UNKNOWN/$25/$25$25/$25$25$25/$25$25$25$25/$25$25$25$25$25/$25$25$25$25$25$25/$25$25$25$25$25$25$25/$25$25$25$25$25$25$25$25/$25$25$25$25$25$25$25$25$25/$25$25$25$25$25$25$25$25$25$25]

## Events

### Event 65535

#### Metadata

| Field        | Value   |
|--------------|---------|
| Entrypoint   | 0x0000  |
| Data Size    | 1 bytes |
| Instructions | 1       |

```
      00 01 02 03 04 05 06 07  08 09 0A 0B 0C 0D 0E 0F
      -- -- -- -- -- -- -- --  -- -- -- -- -- -- -- --
0000: 00                                                .               
```

#### Opcodes

```
  0: 0x0000 [0x00] END_REQSTACK()
```

### Event 168

#### Metadata

| Field        | Value   |
|--------------|---------|
| Entrypoint   | 0x0001  |
| Data Size    | 7 bytes |
| Instructions | 2       |

```
      00 01 02 03 04 05 06 07  08 09 0A 0B 0C 0D 0E 0F
      -- -- -- -- -- -- -- --  -- -- -- -- -- -- -- --
0000:    92 01 F8 FF FF 7F 00                            .......        
```

#### Opcodes

```
  0: 0x0001 [0x92] EventEntity->Render.Flags3 ^= 0x01
  1: 0x0007 [0x00] END_REQSTACK()
```

### Event 31

#### Metadata

| Field        | Value   |
|--------------|---------|
| Entrypoint   | 0x0008  |
| Data Size    | 1 bytes |
| Instructions | 1       |

```
      00 01 02 03 04 05 06 07  08 09 0A 0B 0C 0D 0E 0F
      -- -- -- -- -- -- -- --  -- -- -- -- -- -- -- --
0000:                          00                               .       
```

#### Opcodes

```
  0: 0x0008 [0x00] END_REQSTACK()
```

### Event 32

#### Metadata

| Field        | Value   |
|--------------|---------|
| Entrypoint   | 0x0009  |
| Data Size    | 1 bytes |
| Instructions | 1       |

```
      00 01 02 03 04 05 06 07  08 09 0A 0B 0C 0D 0E 0F
      -- -- -- -- -- -- -- --  -- -- -- -- -- -- -- --
0000:                             00                             .      
```

#### Opcodes

```
  0: 0x0009 [0x00] END_REQSTACK()
```

### Event 42

#### Metadata

| Field        | Value   |
|--------------|---------|
| Entrypoint   | 0x000A  |
| Data Size    | 1 bytes |
| Instructions | 1       |

```
      00 01 02 03 04 05 06 07  08 09 0A 0B 0C 0D 0E 0F
      -- -- -- -- -- -- -- --  -- -- -- -- -- -- -- --
0000:                                00                           .     
```

#### Opcodes

```
  0: 0x000A [0x00] END_REQSTACK()
```

### Event 43

#### Metadata

| Field        | Value   |
|--------------|---------|
| Entrypoint   | 0x000B  |
| Data Size    | 1 bytes |
| Instructions | 1       |

```
      00 01 02 03 04 05 06 07  08 09 0A 0B 0C 0D 0E 0F
      -- -- -- -- -- -- -- --  -- -- -- -- -- -- -- --
0000:                                   00                         .    
```

#### Opcodes

```
  0: 0x000B [0x00] END_REQSTACK()
```

### Event 65535.1

#### Metadata

| Field        | Value     |
|--------------|-----------|
| Entrypoint   | 0x000C    |
| Data Size    | 110 bytes |
| Instructions | 23        |

```
      00 01 02 03 04 05 06 07  08 09 0A 0B 0C 0D 0E 0F
      -- -- -- -- -- -- -- --  -- -- -- -- -- -- -- --
0000:                                      59 04 F8 FF              Y...
0010: FF 7F 00 80 1F 00 01 80  02 80 03 80 1F 01 1F 00  ................
0020: 04 80 05 80 03 80 1F 01  1F 00 06 80 07 80 03 80  ................
0030: 1F 01 1F 00 08 80 09 80  03 80 1F 01 1F 00 0A 80  ................
0040: 0B 80 03 80 1F 01 1F 00  0C 80 0D 80 0E 80 1F 01  ................
0050: 1F 00 0F 80 10 80 11 80  1F 01 1F 00 12 80 13 80  ................
0060: 11 80 1F 01 1F 00 14 80  15 80 16 80 1F 01 1F 00  ................
0070: 17 80 18 80 16 80 1F 01  6F 00                    ........o.      
```

#### Opcodes

```
  0: 0x000C [0x59] UPDATE_ENTITY_DATA: Set EventEntity main speed = 40* * 0.1
  1: 0x0014 [0x1F] MOVE_ENTITY: EventEntity moves to X=1.068*, Z=21.160*, Y=-0.999*
  2: 0x001C [0x1F] MOVE_ENTITY: Update entity position (mode=1)
  3: 0x001E [0x1F] MOVE_ENTITY: EventEntity moves to X=-0.065*, Z=23.533*, Y=-0.999*
  4: 0x0026 [0x1F] MOVE_ENTITY: Update entity position (mode=1)
  5: 0x0028 [0x1F] MOVE_ENTITY: EventEntity moves to X=-2.149*, Z=26.050*, Y=-0.999*
  6: 0x0030 [0x1F] MOVE_ENTITY: Update entity position (mode=1)
  7: 0x0032 [0x1F] MOVE_ENTITY: EventEntity moves to X=-5.938*, Z=30.631*, Y=-0.999*
  8: 0x003A [0x1F] MOVE_ENTITY: Update entity position (mode=1)
  9: 0x003C [0x1F] MOVE_ENTITY: EventEntity moves to X=-11.357*, Z=34.296*, Y=-0.999*
 10: 0x0044 [0x1F] MOVE_ENTITY: Update entity position (mode=1)
 11: 0x0046 [0x1F] MOVE_ENTITY: EventEntity moves to X=-18.980*, Z=36.590*, Y=-2.138*
 12: 0x004E [0x1F] MOVE_ENTITY: Update entity position (mode=1)
 13: 0x0050 [0x1F] MOVE_ENTITY: EventEntity moves to X=-28.561*, Z=39.282*, Y=-3.499*
 14: 0x0058 [0x1F] MOVE_ENTITY: Update entity position (mode=1)
 15: 0x005A [0x1F] MOVE_ENTITY: EventEntity moves to X=-36.330*, Z=41.255*, Y=-3.499*
 16: 0x0062 [0x1F] MOVE_ENTITY: Update entity position (mode=1)
 17: 0x0064 [0x1F] MOVE_ENTITY: EventEntity moves to X=-47.837*, Z=43.137*, Y=-3.500*
 18: 0x006C [0x1F] MOVE_ENTITY: Update entity position (mode=1)
 19: 0x006E [0x1F] MOVE_ENTITY: EventEntity moves to X=-50.645*, Z=44.618*, Y=-3.500*
 20: 0x0076 [0x1F] MOVE_ENTITY: Update entity position (mode=1)
 21: 0x0078 [0x6F] WAIT_FRAME_DELAY: Yield until WaitTime reaches zero
 22: 0x0079 [0x00] END_REQSTACK()
```

### Event 65535.2

#### Metadata

| Field        | Value    |
|--------------|----------|
| Entrypoint   | 0x007A   |
| Data Size    | 31 bytes |
| Instructions | 8        |

```
      00 01 02 03 04 05 06 07  08 09 0A 0B 0C 0D 0E 0F
      -- -- -- -- -- -- -- --  -- -- -- -- -- -- -- --
0070:                                59 04 F8 FF FF 7F            Y.....
0080: 00 80 1F 00 17 80 18 80  16 80 1F 01 6F 1F 00 19  ............o...
0090: 80 1A 80 11 80 1F 01 6F  00                       .......o.       
```

#### Opcodes

```
  0: 0x007A [0x59] UPDATE_ENTITY_DATA: Set EventEntity main speed = 40* * 0.1
  1: 0x0082 [0x1F] MOVE_ENTITY: EventEntity moves to X=-50.645*, Z=44.618*, Y=-3.500*
  2: 0x008A [0x1F] MOVE_ENTITY: Update entity position (mode=1)
  3: 0x008C [0x6F] WAIT_FRAME_DELAY: Yield until WaitTime reaches zero
  4: 0x008D [0x1F] MOVE_ENTITY: EventEntity moves to X=-50.540*, Z=45.006*, Y=-3.499*
  5: 0x0095 [0x1F] MOVE_ENTITY: Update entity position (mode=1)
  6: 0x0097 [0x6F] WAIT_FRAME_DELAY: Yield until WaitTime reaches zero
  7: 0x0098 [0x00] END_REQSTACK()
```

### Event 65535.3

#### Metadata

| Field        | Value    |
|--------------|----------|
| Entrypoint   | 0x0099   |
| Data Size    | 50 bytes |
| Instructions | 11       |

```
      00 01 02 03 04 05 06 07  08 09 0A 0B 0C 0D 0E 0F
      -- -- -- -- -- -- -- --  -- -- -- -- -- -- -- --
0090:                             59 04 F8 FF FF 7F 1B           Y......
00A0: 80 1F 00 1C 80 1D 80 11  80 1F 01 1F 00 1E 80 1F  ................
00B0: 80 11 80 1F 01 1F 00 20  80 21 80 11 80 1F 01 1F  ....... .!......
00C0: 00 22 80 23 80 11 80 1F  01 6F 00                 .".#.....o.     
```

#### Opcodes

```
  0: 0x0099 [0x59] UPDATE_ENTITY_DATA: Set EventEntity main speed = 13* * 0.1
  1: 0x00A1 [0x1F] MOVE_ENTITY: EventEntity moves to X=-52.265*, Z=43.584*, Y=-3.499*
  2: 0x00A9 [0x1F] MOVE_ENTITY: Update entity position (mode=1)
  3: 0x00AB [0x1F] MOVE_ENTITY: EventEntity moves to X=-53.224*, Z=46.410*, Y=-3.499*
  4: 0x00B3 [0x1F] MOVE_ENTITY: Update entity position (mode=1)
  5: 0x00B5 [0x1F] MOVE_ENTITY: EventEntity moves to X=-51.390*, Z=49.730*, Y=-3.499*
  6: 0x00BD [0x1F] MOVE_ENTITY: Update entity position (mode=1)
  7: 0x00BF [0x1F] MOVE_ENTITY: EventEntity moves to X=-50.650*, Z=51.920*, Y=-3.499*
  8: 0x00C7 [0x1F] MOVE_ENTITY: Update entity position (mode=1)
  9: 0x00C9 [0x6F] WAIT_FRAME_DELAY: Yield until WaitTime reaches zero
 10: 0x00CA [0x00] END_REQSTACK()
```

### Event 65535.4

#### Metadata

| Field        | Value    |
|--------------|----------|
| Entrypoint   | 0x00CB   |
| Data Size    | 20 bytes |
| Instructions | 5        |

```
      00 01 02 03 04 05 06 07  08 09 0A 0B 0C 0D 0E 0F
      -- -- -- -- -- -- -- --  -- -- -- -- -- -- -- --
00C0:                                   59 04 F8 FF FF             Y....
00D0: 7F 1B 80 1F 00 24 80 25  80 16 80 1F 01 6F 00     .....$.%.....o. 
```

#### Opcodes

```
  0: 0x00CB [0x59] UPDATE_ENTITY_DATA: Set EventEntity main speed = 13* * 0.1
  1: 0x00D3 [0x1F] MOVE_ENTITY: EventEntity moves to X=-51.449*, Z=46.600*, Y=-3.500*
  2: 0x00DB [0x1F] MOVE_ENTITY: Update entity position (mode=1)
  3: 0x00DD [0x6F] WAIT_FRAME_DELAY: Yield until WaitTime reaches zero
  4: 0x00DE [0x00] END_REQSTACK()
```

### Event 65535.5

#### Metadata

| Field        | Value    |
|--------------|----------|
| Entrypoint   | 0x00DF   |
| Data Size    | 29 bytes |
| Instructions | 6        |

```
      00 01 02 03 04 05 06 07  08 09 0A 0B 0C 0D 0E 0F
      -- -- -- -- -- -- -- --  -- -- -- -- -- -- -- --
00D0:                                               59                 Y
00E0: 04 F8 FF FF 7F 00 80 1F  00 26 80 27 80 28 80 1F  .........&.'.(..
00F0: 01 6F 4A F8 FF FF 7F FF  E1 05 01 00              .oJ.........    
```

#### Opcodes

```
  0: 0x00DF [0x59] UPDATE_ENTITY_DATA: Set EventEntity main speed = 40* * 0.1
  1: 0x00E7 [0x1F] MOVE_ENTITY: EventEntity moves to X=1.985*, Z=14.485*, Y=-1.000*
  2: 0x00EF [0x1F] MOVE_ENTITY: Update entity position (mode=1)
  3: 0x00F1 [0x6F] WAIT_FRAME_DELAY: Yield until WaitTime reaches zero
  4: 0x00F2 [0x4A] EventEntity looks at Dhea Prandoleh (ID: 17162751/0x0105E1FF)
  5: 0x00FB [0x00] END_REQSTACK()
```

### Event 65535.6

#### Metadata

| Field        | Value    |
|--------------|----------|
| Entrypoint   | 0x00FC   |
| Data Size    | 29 bytes |
| Instructions | 6        |

```
      00 01 02 03 04 05 06 07  08 09 0A 0B 0C 0D 0E 0F
      -- -- -- -- -- -- -- --  -- -- -- -- -- -- -- --
00F0:                                      59 04 F8 FF              Y...
0100: FF 7F 00 80 1F 00 29 80  2A 80 03 80 1F 01 6F 4A  ......).*.....oJ
0110: F8 FF FF 7F FF E1 05 01  00                       .........       
```

#### Opcodes

```
  0: 0x00FC [0x59] UPDATE_ENTITY_DATA: Set EventEntity main speed = 40* * 0.1
  1: 0x0104 [0x1F] MOVE_ENTITY: EventEntity moves to X=0.920*, Z=14.027*, Y=-0.999*
  2: 0x010C [0x1F] MOVE_ENTITY: Update entity position (mode=1)
  3: 0x010E [0x6F] WAIT_FRAME_DELAY: Yield until WaitTime reaches zero
  4: 0x010F [0x4A] EventEntity looks at Dhea Prandoleh (ID: 17162751/0x0105E1FF)
  5: 0x0118 [0x00] END_REQSTACK()
```

### Event 326

#### Metadata

| Field        | Value    |
|--------------|----------|
| Entrypoint   | 0x0119   |
| Data Size    | 58 bytes |
| Instructions | 17       |

```
      00 01 02 03 04 05 06 07  08 09 0A 0B 0C 0D 0E 0F
      -- -- -- -- -- -- -- --  -- -- -- -- -- -- -- --
0110:                             42 4A F8 FF FF 7F F0           BJ.....
0120: FF FF 7F 03 02 10 2B 80  1D 2C 80 23 24 2D 80 2E  ......+..,.#$-..
0130: 80 2E 80 25 02 00 10 2E  80 00 48 01 1D 2F 80 23  ...%......H../.#
0140: 03 01 10 30 80 01 51 01  1D 31 80 23 03 01 10 32  ...0..Q..1.#...2
0150: 80 21 00                                          .!.             
```

#### Opcodes

```
  0: 0x0119 [0x42] SET_CLI_EVENT_CANCEL_DATA()
  1: 0x011A [0x4A] EventEntity looks at LocalPlayer
  2: 0x0123 [0x03] Work_Zone[2] = 2552*
  3: 0x0128 [0x1D] PRINT_EVENT_MESSAGE(message_id=12335*)
    → "Isn't that $0? You must want to put it in safekeeping, then."
  4: 0x012B [0x23] WAIT_FOR_DIALOG_INTERACTION
  5: 0x012C [0x24] CREATE_DIALOG(message_id=12336*, default_option=0*, option_flags=0*)
    → "What will you do? [Add it to your other Op Credits./Nevermind.]"
  6: 0x0133 [0x25] WAIT_DIALOG_SELECT()
  7: 0x0134 [0x02] IF !(Work_Zone[0] == 0*) GOTO 0x0148
  8: 0x013C [0x1D] PRINT_EVENT_MESSAGE(message_id=12337*)
    → "Fine. Hand it over, then. Come on, the $0!"
  9: 0x013F [0x23] WAIT_FOR_DIALOG_INTERACTION
 10: 0x0140 [0x03] Work_Zone[1] = 6*
 11: 0x0145 [0x01] GOTO 0x0151
 12: 0x0148 [0x1D] PRINT_EVENT_MESSAGE(message_id=12338*)
    → "Whatever. Here, then. I don't want it."
 13: 0x014B [0x23] WAIT_FOR_DIALOG_INTERACTION
 14: 0x014C [0x03] Work_Zone[1] = 7*

SUBROUTINE_0151:
 15: 0x0151 [0x21] END_EVENT
 16: 0x0152 [0x00] END_REQSTACK()
```

### Event 322

#### Metadata

| Field        | Value    |
|--------------|----------|
| Entrypoint   | 0x0153   |
| Data Size    | 19 bytes |
| Instructions | 7        |

```
      00 01 02 03 04 05 06 07  08 09 0A 0B 0C 0D 0E 0F
      -- -- -- -- -- -- -- --  -- -- -- -- -- -- -- --
0150:          4A F8 FF FF 7F  F0 FF FF 7F 1D 33 80 23     J.........3.#
0160: 1D 34 80 23 21 00                                 .4.#!.          
```

#### Opcodes

```
  0: 0x0153 [0x4A] EventEntity looks at LocalPlayer
  1: 0x015C [0x1D] PRINT_EVENT_MESSAGE(message_id=12306*)
    → "Wait a Windurst Woods minute... Your campaign medal's expirrred! You know I can't sign you up for an operation like this."
  2: 0x015F [0x23] WAIT_FOR_DIALOG_INTERACTION
  3: 0x0160 [0x1D] PRINT_EVENT_MESSAGE(message_id=12307*)
    → "You run on down to the Campaign Evaluation Official and strrraighten things out first, alrrright?"
  4: 0x0163 [0x23] WAIT_FOR_DIALOG_INTERACTION
  5: 0x0164 [0x21] END_EVENT
  6: 0x0165 [0x00] END_REQSTACK()
```

### Event 311

#### Metadata

| Field        | Value    |
|--------------|----------|
| Entrypoint   | 0x0166   |
| Data Size    | 19 bytes |
| Instructions | 7        |

```
      00 01 02 03 04 05 06 07  08 09 0A 0B 0C 0D 0E 0F
      -- -- -- -- -- -- -- --  -- -- -- -- -- -- -- --
0160:                   4A F8  FF FF 7F F0 FF FF 7F 1D        J.........
0170: 35 80 23 1D 36 80 23 21  00                       5.#.6.#!.       
```

#### Opcodes

```
  0: 0x0166 [0x4A] EventEntity looks at LocalPlayer
  1: 0x016F [0x1D] PRINT_EVENT_MESSAGE(message_id=12231*)
    → "Hey! You need information on Allied Campaign operations? Well, you're in the rrright place!"
  2: 0x0172 [0x23] WAIT_FOR_DIALOG_INTERACTION
  3: 0x0173 [0x1D] PRINT_EVENT_MESSAGE(message_id=12232*)
    → "Hold on... You're serrrving under the flag of some other nation, aren't you? Sorrry, buddy, but I can't help you."
  4: 0x0176 [0x23] WAIT_FOR_DIALOG_INTERACTION
  5: 0x0177 [0x21] END_EVENT
  6: 0x0178 [0x00] END_REQSTACK()
```

### Event 308

#### Metadata

| Field        | Value    |
|--------------|----------|
| Entrypoint   | 0x0179   |
| Data Size    | 80 bytes |
| Instructions | 24       |

```
      00 01 02 03 04 05 06 07  08 09 0A 0B 0C 0D 0E 0F
      -- -- -- -- -- -- -- --  -- -- -- -- -- -- -- --
0170:                             4A F8 FF FF 7F F0 FF           J......
0180: FF 7F 1D 37 80 23 24 38  80 39 80 2E 80 25 02 00  ...7.#$8.9...%..
0190: 10 2E 80 00 C0 01 1D 3A  80 23 24 38 80 39 80 2E  .......:.#$8.9..
01A0: 80 25 02 00 10 2E 80 00  B6 01 1D 3B 80 23 03 01  .%.........;.#..
01B0: 10 3C 80 01 BD 01 1D 3D  80 23 06 01 10 01 C7 01  .<.....=.#......
01C0: 1D 3D 80 23 06 01 10 21  00                       .=.#...!.       
```

#### Opcodes

```
  0: 0x0179 [0x4A] EventEntity looks at LocalPlayer
  1: 0x0182 [0x1D] PRINT_EVENT_MESSAGE(message_id=12296*)
    → "Whoa... I didn't expect to see you back so soon."
  2: 0x0185 [0x23] WAIT_FOR_DIALOG_INTERACTION
  3: 0x0186 [0x24] CREATE_DIALOG(message_id=12297*, default_option=1*, option_flags=0*)
    → "Is there something wrong? [I'm aborting the operation./[I just came to see you/I just came to say hello].]"
  4: 0x018D [0x25] WAIT_DIALOG_SELECT()
  5: 0x018E [0x02] IF !(Work_Zone[0] == 0*) GOTO 0x01C0
  6: 0x0196 [0x1D] PRINT_EVENT_MESSAGE(message_id=12299*)
    → "...What? I wasn't listening. Could you rrrepeat that?"
  7: 0x0199 [0x23] WAIT_FOR_DIALOG_INTERACTION
  8: 0x019A [0x24] CREATE_DIALOG(message_id=12297*, default_option=1*, option_flags=0*)
    → "Is there something wrong? [I'm aborting the operation./[I just came to see you/I just came to say hello].]"
  9: 0x01A1 [0x25] WAIT_DIALOG_SELECT()
 10: 0x01A2 [0x02] IF !(Work_Zone[0] == 0*) GOTO 0x01B6
 11: 0x01AA [0x1D] PRINT_EVENT_MESSAGE(message_id=12300*)
    → "Huh... And I had you pegged for a harrrd worker... I guess it goes to show you can't judge a book by its cover. Maybe you should considerrr a different line of work."
 12: 0x01AD [0x23] WAIT_FOR_DIALOG_INTERACTION
 13: 0x01AE [0x03] Work_Zone[1] = 2*
 14: 0x01B3 [0x01] GOTO 0x01BD
 15: 0x01B6 [0x1D] PRINT_EVENT_MESSAGE(message_id=12298*)
    → "Well, I'm flatterrred, but this ain't going to earn you any points with the major. You'd better get back out therrre if you value your hide."
 16: 0x01B9 [0x23] WAIT_FOR_DIALOG_INTERACTION
 17: 0x01BA [0x06] Work_Zone[1] = 0

SUBROUTINE_01BD:
 18: 0x01BD [0x01] GOTO 0x01C7
 19: 0x01C0 [0x1D] PRINT_EVENT_MESSAGE(message_id=12298*)
    → "Well, I'm flatterrred, but this ain't going to earn you any points with the major. You'd better get back out therrre if you value your hide."
 20: 0x01C3 [0x23] WAIT_FOR_DIALOG_INTERACTION
 21: 0x01C4 [0x06] Work_Zone[1] = 0

SUBROUTINE_01C7:
 22: 0x01C7 [0x21] END_EVENT
 23: 0x01C8 [0x00] END_REQSTACK()
```

### Event 309

#### Metadata

| Field        | Value     |
|--------------|-----------|
| Entrypoint   | 0x01C9    |
| Data Size    | 101 bytes |
| Instructions | 25        |

```
      00 01 02 03 04 05 06 07  08 09 0A 0B 0C 0D 0E 0F
      -- -- -- -- -- -- -- --  -- -- -- -- -- -- -- --
01C0:                             42 4A F8 FF FF 7F F0           BJ.....
01D0: FF FF 7F 1D 3E 80 23 45  3F 80 F0 FF FF 7F F0 FF  ....>.#E?.......
01E0: FF 7F 66 64 6F 31 2E 80  1C 40 80 13 02 10 3C 80  ..fdo1...@....<.
01F0: 1D 41 80 23 1C 40 80 13  02 10 3C 80 1D 41 80 23  .A.#.@....<..A.#
0200: 1C 40 80 13 02 10 3C 80  1D 41 80 23 1C 40 80 45  .@....<..A.#.@.E
0210: 3F 80 F0 FF FF 7F F0 FF  FF 7F 66 64 69 31 2E 80  ?.........fdi1..
0220: 1C 40 80 1D 42 80 23 03  01 10 43 80 21 00        .@..B.#...C.!.  
```

#### Opcodes

```
  0: 0x01C9 [0x42] SET_CLI_EVENT_CANCEL_DATA()
  1: 0x01CA [0x4A] EventEntity looks at LocalPlayer
  2: 0x01D3 [0x1D] PRINT_EVENT_MESSAGE(message_id=12301*)
    → "Ah, <Player>. Back at last. Let's hearrr all about your latest escapades..."
  3: 0x01D6 [0x23] WAIT_FOR_DIALOG_INTERACTION
  4: 0x01D7 [0x45] LOAD_SCHEDULED_TASK: Load scheduler "fdo1" with entities [LocalPlayer, LocalPlayer], work=[200*, 0*]
  5: 0x01E8 [0x1C] WAIT(60* ticks)
  6: 0x01EB [0x13] Work_Zone[2] = rand() % 2*
  7: 0x01F0 [0x1D] PRINT_EVENT_MESSAGE(message_id=12302*)
    → "[......<Sigh>....../......Hmmm....../......I see...!]"
  8: 0x01F3 [0x23] WAIT_FOR_DIALOG_INTERACTION
  9: 0x01F4 [0x1C] WAIT(60* ticks)
 10: 0x01F7 [0x13] Work_Zone[2] = rand() % 2*
 11: 0x01FC [0x1D] PRINT_EVENT_MESSAGE(message_id=12302*)
    → "[......<Sigh>....../......Hmmm....../......I see...!]"
 12: 0x01FF [0x23] WAIT_FOR_DIALOG_INTERACTION
 13: 0x0200 [0x1C] WAIT(60* ticks)
 14: 0x0203 [0x13] Work_Zone[2] = rand() % 2*
 15: 0x0208 [0x1D] PRINT_EVENT_MESSAGE(message_id=12302*)
    → "[......<Sigh>....../......Hmmm....../......I see...!]"
 16: 0x020B [0x23] WAIT_FOR_DIALOG_INTERACTION
 17: 0x020C [0x1C] WAIT(60* ticks)
 18: 0x020F [0x45] LOAD_SCHEDULED_TASK: Load scheduler "fdi1" with entities [LocalPlayer, LocalPlayer], work=[200*, 0*]
 19: 0x0220 [0x1C] WAIT(60* ticks)
 20: 0x0223 [0x1D] PRINT_EVENT_MESSAGE(message_id=12305*)
    → "You'd better hope the boss doesn't hearrr about this... She's been in a terrible mood lately..."
 21: 0x0226 [0x23] WAIT_FOR_DIALOG_INTERACTION
 22: 0x0227 [0x03] Work_Zone[1] = 3*
 23: 0x022C [0x21] END_EVENT
 24: 0x022D [0x00] END_REQSTACK()
```

### Event 310

#### Metadata

| Field        | Value     |
|--------------|-----------|
| Entrypoint   | 0x022E    |
| Data Size    | 160 bytes |
| Instructions | 36        |

```
      00 01 02 03 04 05 06 07  08 09 0A 0B 0C 0D 0E 0F
      -- -- -- -- -- -- -- --  -- -- -- -- -- -- -- --
0220:                                            42 03                B.
0230: 04 00 02 10 03 05 00 03  10 03 06 00 04 10 03 08  ................
0240: 00 05 10 4A F8 FF FF 7F  F0 FF FF 7F 1D 3E 80 23  ...J.........>.#
0250: 45 3F 80 F0 FF FF 7F F0  FF FF 7F 66 64 6F 31 2E  E?.........fdo1.
0260: 80 1C 40 80 41 2E 80 39  80 08 00 02 10 1D 41 80  ..@.A..9......A.
0270: 23 1C 40 80 41 3C 80 43  80 08 00 02 10 1D 41 80  #.@.A<.C......A.
0280: 23 1C 40 80 41 44 80 45  80 08 00 02 10 1D 41 80  #.@.AD.E......A.
0290: 23 1C 40 80 45 3F 80 F0  FF FF 7F F0 FF FF 7F 66  #.@.E?.........f
02A0: 64 69 31 2E 80 1C 40 80  02 06 00 46 80 02 B7 02  di1...@....F....
02B0: 1D 47 80 23 01 BB 02 1D  48 80 23 02 04 00 2E 80  .G.#....H.#.....
02C0: 02 CC 02 03 02 10 04 00  48 49 80 23 21 00        ........HI.#!.  
```

#### Opcodes

```
  0: 0x022E [0x42] SET_CLI_EVENT_CANCEL_DATA()
  1: 0x022F [0x03] ExtData[1]->WorkLocal[4] = Work_Zone[2]
  2: 0x0234 [0x03] ExtData[1]->WorkLocal[5] = Work_Zone[3]
  3: 0x0239 [0x03] ExtData[1]->WorkLocal[6] = Work_Zone[4]
  4: 0x023E [0x03] ExtData[1]->WorkLocal[8] = Work_Zone[5]
  5: 0x0243 [0x4A] EventEntity looks at LocalPlayer
  6: 0x024C [0x1D] PRINT_EVENT_MESSAGE(message_id=12301*)
    → "Ah, <Player>. Back at last. Let's hearrr all about your latest escapades..."
  7: 0x024F [0x23] WAIT_FOR_DIALOG_INTERACTION
  8: 0x0250 [0x45] LOAD_SCHEDULED_TASK: Load scheduler "fdo1" with entities [LocalPlayer, LocalPlayer], work=[200*, 0*]
  9: 0x0261 [0x1C] WAIT(60* ticks)
 10: 0x0264 [0x41] Work_Zone[2] = ExtData[1]->WorkLocal[8] (bits 0*-1*)
 11: 0x026D [0x1D] PRINT_EVENT_MESSAGE(message_id=12302*)
    → "[......<Sigh>....../......Hmmm....../......I see...!]"
 12: 0x0270 [0x23] WAIT_FOR_DIALOG_INTERACTION
 13: 0x0271 [0x1C] WAIT(60* ticks)
 14: 0x0274 [0x41] Work_Zone[2] = ExtData[1]->WorkLocal[8] (bits 2*-3*)
 15: 0x027D [0x1D] PRINT_EVENT_MESSAGE(message_id=12302*)
    → "[......<Sigh>....../......Hmmm....../......I see...!]"
 16: 0x0280 [0x23] WAIT_FOR_DIALOG_INTERACTION
 17: 0x0281 [0x1C] WAIT(60* ticks)
 18: 0x0284 [0x41] Work_Zone[2] = ExtData[1]->WorkLocal[8] (bits 4*-5*)
 19: 0x028D [0x1D] PRINT_EVENT_MESSAGE(message_id=12302*)
    → "[......<Sigh>....../......Hmmm....../......I see...!]"
 20: 0x0290 [0x23] WAIT_FOR_DIALOG_INTERACTION
 21: 0x0291 [0x1C] WAIT(60* ticks)
 22: 0x0294 [0x45] LOAD_SCHEDULED_TASK: Load scheduler "fdi1" with entities [LocalPlayer, LocalPlayer], work=[200*, 0*]
 23: 0x02A5 [0x1C] WAIT(60* ticks)
 24: 0x02A8 [0x02] IF !(ExtData[1]->WorkLocal[6] <= 99*) GOTO 0x02B7
 25: 0x02B0 [0x1D] PRINT_EVENT_MESSAGE(message_id=12303*)
    → "I knew from the moment you walked up here you'd come thrrrough, <Player>. The boss...I mean, Major Mihgo will be pleased."
 26: 0x02B3 [0x23] WAIT_FOR_DIALOG_INTERACTION
 27: 0x02B4 [0x01] GOTO 0x02BB
 28: 0x02B7 [0x1D] PRINT_EVENT_MESSAGE(message_id=12304*)
    → "It's alrrright, <Player>. Not everything goes as we plan it. On the other hand, a success is a success. Good job!"
 29: 0x02BA [0x23] WAIT_FOR_DIALOG_INTERACTION

SUBROUTINE_02BB:
 30: 0x02BB [0x02] IF !(ExtData[1]->WorkLocal[4] <= 0*) GOTO 0x02CC
 31: 0x02C3 [0x03] Work_Zone[2] = ExtData[1]->WorkLocal[4]
 32: 0x02C8 [0x48] [System] [7234*]:
    → "You have earned $0 Allied Note[/s]!"
 33: 0x02CB [0x23] WAIT_FOR_DIALOG_INTERACTION
 34: 0x02CC [0x21] END_EVENT
 35: 0x02CD [0x00] END_REQSTACK()
```

### Event 307

#### Metadata

| Field        | Value      |
|--------------|------------|
| Entrypoint   | 0x02CE     |
| Data Size    | 4746 bytes |
| Instructions | 976        |

```
      00 01 02 03 04 05 06 07  08 09 0A 0B 0C 0D 0E 0F
      -- -- -- -- -- -- -- --  -- -- -- -- -- -- -- --
02C0:                                            03 02                ..
02D0: 00 02 10 03 01 00 03 10  03 07 00 04 10 03 0E 00  ................
02E0: 05 10 4A F8 FF FF 7F F0  FF FF 7F 1D 35 80 23 02  ..J.........5.#.
02F0: 01 00 2E 80 00 18 03 1D  4A 80 23 24 4B 80 39 80  ........J.#$K.9.
0300: 2E 80 25 02 00 10 2E 80  00 12 03 1D 4C 80 23 01  ..%.........L.#.
0310: 15 03 1A 39 04 01 18 03  02 02 00 2E 80 05 41 03  ...9..........A.
0320: 1D 4D 80 23 03 02 10 07  00 02 02 10 39 80 03 38  .M.#........9..8
0330: 03 48 4E 80 23 01 3C 03  48 4F 80 23 21 00 01 4A  .HN.#.<.HO.#!..J
0340: 03 03 02 10 02 00 1D 50  80 23 24 51 80 2E 80 2E  .......P.#$Q....
0350: 80 25 02 00 10 39 80 00  63 03 1A 39 04 01 4A 03  .%...9..c..9..J.
0360: 01 9D 03 02 00 10 3C 80  00 74 03 1A 4F 04 01 4A  ......<..t..O..J
0370: 03 01 9D 03 02 00 10 2E  80 00 7F 03 01 9D 03 1D  ................
0380: 52 80 23 03 02 10 07 00  02 02 10 39 80 03 97 03  R.#........9....
0390: 48 4E 80 23 01 9B 03 48  4F 80 23 21 00 06 00 00  HN.#...HO.#!....
03A0: 02 00 00 2E 80 04 37 04  1D 53 80 23 03 01 10 54  ......7..S.#...T
03B0: 80 43 00 43 01 24 55 80  2E 80 2E 80 25 02 00 10  .C.C.$U.....%...
03C0: 2E 80 00 CB 03 1A 25 05  01 34 04 02 00 10 39 80  ......%..4....9.
03D0: 00 D9 03 1A B7 06 01 34  04 02 00 10 3C 80 00 E7  .......4....<...
03E0: 03 1A 92 08 01 34 04 02  00 10 43 80 00 F5 03 1A  .....4....C.....
03F0: 8B 0A 01 34 04 02 00 10  44 80 00 03 04 1A 0E 0C  ...4....D.......
0400: 01 34 04 02 00 10 45 80  00 11 04 1A F0 0D 01 34  .4....E........4
0410: 04 02 00 10 30 80 00 1F  04 1A 87 0F 01 34 04 02  ....0........4..
0420: 00 10 32 80 00 2D 04 1A  04 12 01 34 04 1D 52 80  ..2..-.....4..R.
0430: 23 0C 00 00 01 A0 03 21  00 1D 56 80 23 1D 57 80  #......!..V.#.W.
0440: 23 03 02 10 0E 00 1D 58  80 23 1D 59 80 23 1B 03  #......X.#.Y.#..
0450: 01 10 5A 80 43 00 43 01  48 5B 80 23 48 5C 80 23  ..Z.C.C.H[.#H\.#
0460: 1B 03 09 00 03 10 03 0A  00 04 10 03 0B 00 05 10  ................
0470: 41 2E 80 43 80 09 00 03  10 41 44 80 32 80 09 00  A..C.....AD.2...
0480: 04 10 41 5A 80 5D 80 09  00 05 10 41 5E 80 5F 80  ..AZ.].....A^._.
0490: 09 00 06 10 41 60 80 61  80 09 00 07 10 41 62 80  ....A`.a.....Ab.
04A0: 63 80 09 00 08 10 41 64  80 65 80 09 00 09 10 41  c.....Ad.e.....A
04B0: 66 80 67 80 09 00 00 17  41 2E 80 43 80 0A 00 01  f.g.....A..C....
04C0: 17 41 44 80 32 80 0A 00  02 17 41 5A 80 5D 80 0A  .AD.2.....AZ.]..
04D0: 00 03 17 41 5E 80 5F 80  0A 00 04 17 41 60 80 61  ...A^._.....A`.a
04E0: 80 0A 00 05 17 41 62 80  63 80 0A 00 06 17 41 64  .....Ab.c.....Ad
04F0: 80 65 80 0A 00 07 17 41  66 80 67 80 0A 00 08 17  .e.....Af.g.....
0500: 41 2E 80 43 80 0B 00 09  17 41 44 80 32 80 0B 00  A..C.....AD.2...
0510: 0A 17 41 5A 80 5D 80 0B  00 0B 17 41 5E 80 5F 80  ..AZ.].....A^._.
0520: 0B 00 0C 17 1B 0B 00 00  02 00 00 39 80 04 B6 06  ...........9....
0530: 03 01 10 45 80 40 5A 80  67 80 01 10 45 80 43 00  ...E.@Z.g...E.C.
0540: 43 01 1A 61 04 24 68 80  2E 80 02 10 25 02 00 10  C..a.$h.....%...
0550: 2E 80 00 67 05 9D 00 98  14 03 00 00 10 48 69 80  ...g.........Hi.
0560: 23 1A 6A 13 01 B3 06 02  00 10 39 80 00 81 05 9D  #.j.......9.....
0570: 00 98 14 03 00 00 10 48  69 80 23 1A 6A 13 01 B3  .......Hi.#.j...
0580: 06 02 00 10 3C 80 00 9B  05 9D 00 98 14 03 00 00  ....<...........
0590: 10 48 69 80 23 1A 6A 13  01 B3 06 02 00 10 43 80  .Hi.#.j.......C.
05A0: 00 B5 05 9D 00 98 14 03  00 00 10 48 69 80 23 1A  ...........Hi.#.
05B0: 6A 13 01 B3 06 02 00 10  44 80 00 C0 05 01 B3 06  j.......D.......
05C0: 02 00 10 45 80 00 CB 05  01 B3 06 02 00 10 30 80  ...E..........0.
05D0: 00 D6 05 01 B3 06 02 00  10 32 80 00 E1 05 01 B3  .........2......
05E0: 06 02 00 10 5A 80 00 EC  05 01 B3 06 02 00 10 54  ....Z..........T
05F0: 80 00 F7 05 01 B3 06 02  00 10 6A 80 00 11 06 9D  ..........j.....
0600: 00 98 14 03 00 00 10 48  6B 80 23 1A 6A 13 01 B3  .......Hk.#.j...
0610: 06 02 00 10 5D 80 00 2B  06 9D 00 98 14 03 00 00  ....]..+........
0620: 10 48 6B 80 23 1A 6A 13  01 B3 06 02 00 10 5E 80  .Hk.#.j.......^.
0630: 00 45 06 9D 00 98 14 03  00 00 10 48 6B 80 23 1A  .E.........Hk.#.
0640: 6A 13 01 B3 06 02 00 10  1B 80 00 5F 06 9D 00 98  j.........._....
0650: 14 03 00 00 10 48 6B 80  23 1A 6A 13 01 B3 06 02  .....Hk.#.j.....
0660: 00 10 6C 80 00 6A 06 01  B3 06 02 00 10 5F 80 00  ..l..j......._..
0670: 84 06 9D 00 98 14 03 00  00 10 48 6D 80 23 1A 6A  ..........Hm.#.j
0680: 13 01 B3 06 02 00 10 60  80 00 8F 06 01 B3 06 02  .......`........
0690: 00 10 6E 80 00 9A 06 01  B3 06 02 00 10 6F 80 00  ..n..........o..
06A0: A5 06 01 B3 06 02 00 10  61 80 00 B0 06 01 B3 06  ........a.......
06B0: 0C 00 00 01 28 05 1B 0B  00 00 02 00 00 39 80 04  ....(........9..
06C0: 91 08 03 01 10 45 80 40  5A 80 67 80 01 10 30 80  .....E.@Z.g...0.
06D0: 43 00 43 01 1A 61 04 03  0C 00 02 10 41 6C 80 6C  C.C..a......Al.l
06E0: 80 0C 00 0D 00 40 1B 80  1B 80 02 10 0D 00 41 1B  .....@........A.
06F0: 80 1B 80 0C 00 0D 00 40  6C 80 6C 80 02 10 0D 00  .......@l.l.....
0700: 24 70 80 2E 80 02 10 25  02 00 10 2E 80 00 26 07  $p.....%......&.
0710: 9D 00 C8 14 03 00 00 10  48 71 80 23 48 72 80 23  ........Hq.#Hr.#
0720: 1A 6A 13 01 8E 08 02 00  10 39 80 00 44 07 9D 00  .j.......9..D...
0730: C8 14 03 00 00 10 48 71  80 23 48 72 80 23 1A 6A  ......Hq.#Hr.#.j
0740: 13 01 8E 08 02 00 10 3C  80 00 62 07 9D 00 C8 14  .......<..b.....
0750: 03 00 00 10 48 71 80 23  48 72 80 23 1A 6A 13 01  ....Hq.#Hr.#.j..
0760: 8E 08 02 00 10 43 80 00  80 07 9D 00 C8 14 03 00  .....C..........
0770: 00 10 48 71 80 23 48 73  80 23 1A 6A 13 01 8E 08  ..Hq.#Hs.#.j....
0780: 02 00 10 44 80 00 8B 07  01 8E 08 02 00 10 45 80  ...D..........E.
0790: 00 96 07 01 8E 08 02 00  10 30 80 00 A1 07 01 8E  .........0......
07A0: 08 02 00 10 32 80 00 AC  07 01 8E 08 02 00 10 5A  ....2..........Z
07B0: 80 00 B7 07 01 8E 08 02  00 10 54 80 00 C2 07 01  ..........T.....
07C0: 8E 08 02 00 10 6A 80 00  E0 07 9D 00 C8 14 03 00  .....j..........
07D0: 00 10 48 74 80 23 48 72  80 23 1A 6A 13 01 8E 08  ..Ht.#Hr.#.j....
07E0: 02 00 10 5D 80 00 FE 07  9D 00 C8 14 03 00 00 10  ...]............
07F0: 48 74 80 23 48 72 80 23  1A 6A 13 01 8E 08 02 00  Ht.#Hr.#.j......
0800: 10 5E 80 00 1C 08 9D 00  C8 14 03 00 00 10 48 74  .^............Ht
0810: 80 23 48 72 80 23 1A 6A  13 01 8E 08 02 00 10 1B  .#Hr.#.j........
0820: 80 00 3A 08 9D 00 C8 14  03 00 00 10 48 74 80 23  ..:.........Ht.#
0830: 48 73 80 23 1A 6A 13 01  8E 08 02 00 10 6C 80 00  Hs.#.j.......l..
0840: 54 08 9D 00 C8 14 03 00  00 10 48 75 80 23 1A 6A  T.........Hu.#.j
0850: 13 01 8E 08 02 00 10 5F  80 00 5F 08 01 8E 08 02  ......._.._.....
0860: 00 10 60 80 00 6A 08 01  8E 08 02 00 10 6E 80 00  ..`..j.......n..
0870: 75 08 01 8E 08 02 00 10  6F 80 00 80 08 01 8E 08  u.......o.......
0880: 02 00 10 61 80 00 8B 08  01 8E 08 0C 00 00 01 BA  ...a............
0890: 06 1B 0B 00 00 02 00 00  39 80 04 8A 0A 03 01 10  ........9.......
08A0: 45 80 40 5A 80 67 80 01  10 5A 80 43 00 43 01 1A  E.@Z.g...Z.C.C..
08B0: 61 04 24 76 80 2E 80 02  10 25 02 00 10 2E 80 00  a.$v.....%......
08C0: D4 08 9D 00 28 15 03 00  00 10 48 77 80 23 1A 6A  ....(.....Hw.#.j
08D0: 13 01 87 0A 02 00 10 39  80 00 EE 08 9D 00 28 15  .......9......(.
08E0: 03 00 00 10 48 77 80 23  1A 6A 13 01 87 0A 02 00  ....Hw.#.j......
08F0: 10 3C 80 00 08 09 9D 00  28 15 03 00 00 10 48 77  .<......(.....Hw
0900: 80 23 1A 6A 13 01 87 0A  02 00 10 43 80 00 13 09  .#.j.......C....
0910: 01 87 0A 02 00 10 44 80  00 1E 09 01 87 0A 02 00  ......D.........
0920: 10 45 80 00 38 09 9D 00  28 15 03 00 00 10 48 78  .E..8...(.....Hx
0930: 80 23 1A 6A 13 01 87 0A  02 00 10 30 80 00 52 09  .#.j.......0..R.
0940: 9D 00 28 15 03 00 00 10  48 78 80 23 1A 6A 13 01  ..(.....Hx.#.j..
0950: 87 0A 02 00 10 32 80 00  6C 09 9D 00 28 15 03 00  .....2..l...(...
0960: 00 10 48 78 80 23 1A 6A  13 01 87 0A 02 00 10 5A  ..Hx.#.j.......Z
0970: 80 00 77 09 01 87 0A 02  00 10 54 80 00 82 09 01  ..w.......T.....
0980: 87 0A 02 00 10 6A 80 00  A0 09 9D 00 28 15 03 00  .....j......(...
0990: 00 10 48 79 80 23 48 72  80 23 1A 6A 13 01 87 0A  ..Hy.#Hr.#.j....
09A0: 02 00 10 5D 80 00 BE 09  9D 00 28 15 03 00 00 10  ...]......(.....
09B0: 48 79 80 23 48 72 80 23  1A 6A 13 01 87 0A 02 00  Hy.#Hr.#.j......
09C0: 10 5E 80 00 DC 09 9D 00  28 15 03 00 00 10 48 79  .^......(.....Hy
09D0: 80 23 48 72 80 23 1A 6A  13 01 87 0A 02 00 10 1B  .#Hr.#.j........
09E0: 80 00 FA 09 9D 00 28 15  03 00 00 10 48 79 80 23  ......(.....Hy.#
09F0: 48 73 80 23 1A 6A 13 01  87 0A 02 00 10 6C 80 00  Hs.#.j.......l..
0A00: 05 0A 01 87 0A 02 00 10  5F 80 00 23 0A 9D 00 28  ........_..#...(
0A10: 15 03 00 00 10 48 7A 80  23 48 72 80 23 1A 6A 13  .....Hz.#Hr.#.j.
0A20: 01 87 0A 02 00 10 60 80  00 41 0A 9D 00 28 15 03  ......`..A...(..
0A30: 00 00 10 48 7A 80 23 48  72 80 23 1A 6A 13 01 87  ...Hz.#Hr.#.j...
0A40: 0A 02 00 10 6E 80 00 5F  0A 9D 00 28 15 03 00 00  ....n.._...(....
0A50: 10 48 7A 80 23 48 72 80  23 1A 6A 13 01 87 0A 02  .Hz.#Hr.#.j.....
0A60: 00 10 6F 80 00 79 0A 9D  00 28 15 03 00 00 10 48  ..o..y...(.....H
0A70: 7B 80 23 1A 6A 13 01 87  0A 02 00 10 61 80 00 84  {.#.j.......a...
0A80: 0A 01 87 0A 0C 00 00 01  95 08 1B 0B 00 00 02 00  ................
0A90: 00 39 80 04 0D 0C 03 01  10 45 80 40 5A 80 67 80  .9.......E.@Z.g.
0AA0: 01 10 32 80 43 00 43 01  1A 61 04 24 7C 80 2E 80  ..2.C.C..a.$|...
0AB0: 02 10 25 02 00 10 2E 80  00 CD 0A 9D 00 F8 14 03  ..%.............
0AC0: 00 00 10 48 7D 80 23 1A  6A 13 01 0A 0C 02 00 10  ...H}.#.j.......
0AD0: 39 80 00 E7 0A 9D 00 F8  14 03 00 00 10 48 7D 80  9............H}.
0AE0: 23 1A 6A 13 01 0A 0C 02  00 10 3C 80 00 01 0B 9D  #.j.......<.....
0AF0: 00 F8 14 03 00 00 10 48  7D 80 23 1A 6A 13 01 0A  .......H}.#.j...
0B00: 0C 02 00 10 43 80 00 1B  0B 9D 00 F8 14 03 00 00  ....C...........
0B10: 10 48 7D 80 23 1A 6A 13  01 0A 0C 02 00 10 44 80  .H}.#.j.......D.
0B20: 00 26 0B 01 0A 0C 02 00  10 45 80 00 31 0B 01 0A  .&.......E..1...
0B30: 0C 02 00 10 30 80 00 3C  0B 01 0A 0C 02 00 10 32  ....0..<.......2
0B40: 80 00 47 0B 01 0A 0C 02  00 10 5A 80 00 52 0B 01  ..G.......Z..R..
0B50: 0A 0C 02 00 10 54 80 00  5D 0B 01 0A 0C 02 00 10  .....T..].......
0B60: 6A 80 00 77 0B 9D 00 F8  14 03 00 00 10 48 7E 80  j..w.........H~.
0B70: 23 1A 6A 13 01 0A 0C 02  00 10 5D 80 00 91 0B 9D  #.j.......].....
0B80: 00 F8 14 03 00 00 10 48  7E 80 23 1A 6A 13 01 0A  .......H~.#.j...
0B90: 0C 02 00 10 5E 80 00 AB  0B 9D 00 F8 14 03 00 00  ....^...........
0BA0: 10 48 7E 80 23 1A 6A 13  01 0A 0C 02 00 10 1B 80  .H~.#.j.........
0BB0: 00 C5 0B 9D 00 F8 14 03  00 00 10 48 7E 80 23 1A  ...........H~.#.
0BC0: 6A 13 01 0A 0C 02 00 10  6C 80 00 D0 0B 01 0A 0C  j.......l.......
0BD0: 02 00 10 5F 80 00 DB 0B  01 0A 0C 02 00 10 60 80  ..._..........`.
0BE0: 00 E6 0B 01 0A 0C 02 00  10 6E 80 00 F1 0B 01 0A  .........n......
0BF0: 0C 02 00 10 6F 80 00 FC  0B 01 0A 0C 02 00 10 61  ....o..........a
0C00: 80 00 07 0C 01 0A 0C 0C  00 00 01 8E 0A 1B 0B 00  ................
0C10: 00 02 00 00 39 80 04 EF  0D 03 01 10 45 80 40 5A  ....9.......E.@Z
0C20: 80 67 80 01 10 39 80 43  00 43 01 1A 61 04 24 7F  .g...9.C.C..a.$.
0C30: 80 2E 80 02 10 25 02 00  10 2E 80 00 54 0C 9D 00  .....%......T...
0C40: D8 13 03 00 00 10 48 80  80 23 48 72 80 23 1A 6A  ......H..#Hr.#.j
0C50: 13 01 EC 0D 02 00 10 39  80 00 72 0C 9D 00 D8 13  .......9..r.....
0C60: 03 00 00 10 48 80 80 23  48 72 80 23 1A 6A 13 01  ....H..#Hr.#.j..
0C70: EC 0D 02 00 10 3C 80 00  90 0C 9D 00 D8 13 03 00  .....<..........
0C80: 00 10 48 80 80 23 48 72  80 23 1A 6A 13 01 EC 0D  ..H..#Hr.#.j....
0C90: 02 00 10 43 80 00 AE 0C  9D 00 D8 13 03 00 00 10  ...C............
0CA0: 48 80 80 23 48 72 80 23  1A 6A 13 01 EC 0D 02 00  H..#Hr.#.j......
0CB0: 10 44 80 00 CC 0C 9D 00  D8 13 03 00 00 10 48 80  .D............H.
0CC0: 80 23 48 73 80 23 1A 6A  13 01 EC 0D 02 00 10 45  .#Hs.#.j.......E
0CD0: 80 00 E6 0C 9D 00 D8 13  03 00 00 10 48 81 80 23  ............H..#
0CE0: 1A 6A 13 01 EC 0D 02 00  10 30 80 00 00 0D 9D 00  .j.......0......
0CF0: D8 13 03 00 00 10 48 82  80 23 1A 6A 13 01 EC 0D  ......H..#.j....
0D00: 02 00 10 32 80 00 1A 0D  9D 00 D8 13 03 00 00 10  ...2............
0D10: 48 83 80 23 1A 6A 13 01  EC 0D 02 00 10 5A 80 00  H..#.j.......Z..
0D20: 34 0D 9D 00 D8 13 03 00  00 10 48 84 80 23 1A 6A  4.........H..#.j
0D30: 13 01 EC 0D 02 00 10 54  80 00 3F 0D 01 EC 0D 02  .......T..?.....
0D40: 00 10 6A 80 00 59 0D 9D  00 D8 13 03 00 00 10 48  ..j..Y.........H
0D50: 85 80 23 1A 6A 13 01 EC  0D 02 00 10 5D 80 00 73  ..#.j.......]..s
0D60: 0D 9D 00 D8 13 03 00 00  10 48 85 80 23 1A 6A 13  .........H..#.j.
0D70: 01 EC 0D 02 00 10 5E 80  00 8D 0D 9D 00 D8 13 03  ......^.........
0D80: 00 00 10 48 85 80 23 1A  6A 13 01 EC 0D 02 00 10  ...H..#.j.......
0D90: 1B 80 00 A7 0D 9D 00 D8  13 03 00 00 10 48 85 80  .............H..
0DA0: 23 1A 6A 13 01 EC 0D 02  00 10 6C 80 00 B2 0D 01  #.j.......l.....
0DB0: EC 0D 02 00 10 5F 80 00  BD 0D 01 EC 0D 02 00 10  ....._..........
0DC0: 60 80 00 C8 0D 01 EC 0D  02 00 10 6E 80 00 D3 0D  `..........n....
0DD0: 01 EC 0D 02 00 10 6F 80  00 DE 0D 01 EC 0D 02 00  ......o.........
0DE0: 10 61 80 00 E9 0D 01 EC  0D 0C 00 00 01 11 0C 1B  .a..............
0DF0: 0B 00 00 02 00 00 39 80  04 86 0F 03 01 10 45 80  ......9.......E.
0E00: 40 5A 80 67 80 01 10 3C  80 43 00 43 01 1A 61 04  @Z.g...<.C.C..a.
0E10: 24 86 80 2E 80 02 10 25  02 00 10 2E 80 00 36 0E  $......%......6.
0E20: 9D 00 08 14 03 00 00 10  48 87 80 23 48 72 80 23  ........H..#Hr.#
0E30: 1A 6A 13 01 83 0F 02 00  10 39 80 00 54 0E 9D 00  .j.......9..T...
0E40: 08 14 03 00 00 10 48 87  80 23 48 72 80 23 1A 6A  ......H..#Hr.#.j
0E50: 13 01 83 0F 02 00 10 3C  80 00 72 0E 9D 00 08 14  .......<..r.....
0E60: 03 00 00 10 48 87 80 23  48 72 80 23 1A 6A 13 01  ....H..#Hr.#.j..
0E70: 83 0F 02 00 10 43 80 00  90 0E 9D 00 08 14 03 00  .....C..........
0E80: 00 10 48 87 80 23 48 72  80 23 1A 6A 13 01 83 0F  ..H..#Hr.#.j....
0E90: 02 00 10 44 80 00 AE 0E  9D 00 08 14 03 00 00 10  ...D............
0EA0: 48 87 80 23 48 73 80 23  1A 6A 13 01 83 0F 02 00  H..#Hs.#.j......
0EB0: 10 45 80 00 B9 0E 01 83  0F 02 00 10 30 80 00 C4  .E..........0...
0EC0: 0E 01 83 0F 02 00 10 32  80 00 CF 0E 01 83 0F 02  .......2........
0ED0: 00 10 5A 80 00 DA 0E 01  83 0F 02 00 10 54 80 00  ..Z..........T..
0EE0: E5 0E 01 83 0F 02 00 10  6A 80 00 FF 0E 9D 00 08  ........j.......
0EF0: 14 03 00 00 10 48 88 80  23 1A 6A 13 01 83 0F 02  .....H..#.j.....
0F00: 00 10 5D 80 00 19 0F 9D  00 08 14 03 00 00 10 48  ..]............H
0F10: 88 80 23 1A 6A 13 01 83  0F 02 00 10 5E 80 00 33  ..#.j.......^..3
0F20: 0F 9D 00 08 14 03 00 00  10 48 88 80 23 1A 6A 13  .........H..#.j.
0F30: 01 83 0F 02 00 10 1B 80  00 3E 0F 01 83 0F 02 00  .........>......
0F40: 10 6C 80 00 49 0F 01 83  0F 02 00 10 5F 80 00 54  .l..I......._..T
0F50: 0F 01 83 0F 02 00 10 60  80 00 5F 0F 01 83 0F 02  .......`.._.....
0F60: 00 10 6E 80 00 6A 0F 01  83 0F 02 00 10 6F 80 00  ..n..j.......o..
0F70: 75 0F 01 83 0F 02 00 10  61 80 00 80 0F 01 83 0F  u.......a.......
0F80: 0C 00 00 01 F3 0D 1B 0B  00 00 02 00 00 39 80 04  .............9..
0F90: 03 12 03 01 10 45 80 40  5A 80 67 80 01 10 43 80  .....E.@Z.g...C.
0FA0: 43 00 43 01 1A 61 04 03  0C 00 02 10 41 44 80 44  C.C..a......AD.D
0FB0: 80 0C 00 0D 00 40 43 80  43 80 02 10 0D 00 41 43  .....@C.C.....AC
0FC0: 80 43 80 0C 00 0D 00 40  44 80 44 80 02 10 0D 00  .C.....@D.D.....
0FD0: 41 5A 80 5A 80 0C 00 0D  00 40 45 80 45 80 02 10  AZ.Z.....@E.E...
0FE0: 0D 00 41 45 80 45 80 0C  00 0D 00 40 30 80 30 80  ..AE.E.....@0.0.
0FF0: 02 10 0D 00 41 30 80 30  80 0C 00 0D 00 40 32 80  ....A0.0.....@2.
1000: 32 80 02 10 0D 00 41 32  80 32 80 0C 00 0D 00 40  2.....A2.2.....@
1010: 5A 80 5A 80 02 10 0D 00  24 89 80 2E 80 02 10 25  Z.Z.....$......%
1020: 02 00 10 2E 80 00 3E 10  9D 00 38 14 03 00 00 10  ......>...8.....
1030: 48 8A 80 23 48 72 80 23  1A 6A 13 01 00 12 02 00  H..#Hr.#.j......
1040: 10 39 80 00 5C 10 9D 00  38 14 03 00 00 10 48 8A  .9..\...8.....H.
1050: 80 23 48 72 80 23 1A 6A  13 01 00 12 02 00 10 3C  .#Hr.#.j.......<
1060: 80 00 7A 10 9D 00 38 14  03 00 00 10 48 8A 80 23  ..z...8.....H..#
1070: 48 72 80 23 1A 6A 13 01  00 12 02 00 10 43 80 00  Hr.#.j.......C..
1080: 98 10 9D 00 38 14 03 00  00 10 48 8A 80 23 48 73  ....8.....H..#Hs
1090: 80 23 1A 6A 13 01 00 12  02 00 10 44 80 00 B2 10  .#.j.......D....
10A0: 9D 00 38 14 03 00 00 10  48 8A 80 23 1A 6A 13 01  ..8.....H..#.j..
10B0: 00 12 02 00 10 45 80 00  CC 10 9D 00 38 14 03 00  .....E......8...
10C0: 00 10 48 8B 80 23 1A 6A  13 01 00 12 02 00 10 30  ..H..#.j.......0
10D0: 80 00 E6 10 9D 00 38 14  03 00 00 10 48 8C 80 23  ......8.....H..#
10E0: 1A 6A 13 01 00 12 02 00  10 32 80 00 00 11 9D 00  .j.......2......
10F0: 38 14 03 00 00 10 48 8C  80 23 1A 6A 13 01 00 12  8.....H..#.j....
1100: 02 00 10 5A 80 00 1A 11  9D 00 38 14 03 00 00 10  ...Z......8.....
1110: 48 8C 80 23 1A 6A 13 01  00 12 02 00 10 54 80 00  H..#.j.......T..
1120: 25 11 01 00 12 02 00 10  6A 80 00 43 11 9D 00 38  %.......j..C...8
1130: 14 03 00 00 10 48 8D 80  23 48 72 80 23 1A 6A 13  .....H..#Hr.#.j.
1140: 01 00 12 02 00 10 5D 80  00 61 11 9D 00 38 14 03  ......]..a...8..
1150: 00 00 10 48 8D 80 23 48  72 80 23 1A 6A 13 01 00  ...H..#Hr.#.j...
1160: 12 02 00 10 5E 80 00 7F  11 9D 00 38 14 03 00 00  ....^......8....
1170: 10 48 8D 80 23 48 72 80  23 1A 6A 13 01 00 12 02  .H..#Hr.#.j.....
1180: 00 10 1B 80 00 9D 11 9D  00 38 14 03 00 00 10 48  .........8.....H
1190: 8D 80 23 48 73 80 23 1A  6A 13 01 00 12 02 00 10  ..#Hs.#.j.......
11A0: 6C 80 00 B7 11 9D 00 38  14 03 00 00 10 48 8E 80  l......8.....H..
11B0: 23 1A 6A 13 01 00 12 02  00 10 5F 80 00 D1 11 9D  #.j......._.....
11C0: 00 38 14 03 00 00 10 48  8F 80 23 1A 6A 13 01 00  .8.....H..#.j...
11D0: 12 02 00 10 60 80 00 DC  11 01 00 12 02 00 10 6E  ....`..........n
11E0: 80 00 E7 11 01 00 12 02  00 10 6F 80 00 F2 11 01  ..........o.....
11F0: 00 12 02 00 10 61 80 00  FD 11 01 00 12 0C 00 00  .....a..........
1200: 01 8A 0F 1B 0B 00 00 02  00 00 39 80 04 68 13 03  ..........9..h..
1210: 01 10 45 80 40 5A 80 67  80 01 10 44 80 43 00 43  ..E.@Z.g...D.C.C
1220: 01 1A 61 04 24 90 80 2E  80 02 10 25 02 00 10 2E  ..a.$......%....
1230: 80 00 46 12 9D 00 68 14  03 00 00 10 48 91 80 23  ..F...h.....H..#
1240: 1A 6A 13 01 65 13 02 00  10 39 80 00 60 12 9D 00  .j..e....9..`...
1250: 68 14 03 00 00 10 48 91  80 23 1A 6A 13 01 65 13  h.....H..#.j..e.
1260: 02 00 10 3C 80 00 7A 12  9D 00 68 14 03 00 00 10  ...<..z...h.....
1270: 48 91 80 23 1A 6A 13 01  65 13 02 00 10 43 80 00  H..#.j..e....C..
1280: 85 12 01 65 13 02 00 10  44 80 00 90 12 01 65 13  ...e....D.....e.
1290: 02 00 10 45 80 00 9B 12  01 65 13 02 00 10 30 80  ...E.....e....0.
12A0: 00 A6 12 01 65 13 02 00  10 32 80 00 B1 12 01 65  ....e....2.....e
12B0: 13 02 00 10 5A 80 00 BC  12 01 65 13 02 00 10 54  ....Z.....e....T
12C0: 80 00 C7 12 01 65 13 02  00 10 6A 80 00 E1 12 9D  .....e....j.....
12D0: 00 68 14 03 00 00 10 48  92 80 23 1A 6A 13 01 65  .h.....H..#.j..e
12E0: 13 02 00 10 5D 80 00 FB  12 9D 00 68 14 03 00 00  ....]......h....
12F0: 10 48 92 80 23 1A 6A 13  01 65 13 02 00 10 5E 80  .H..#.j..e....^.
1300: 00 15 13 9D 00 68 14 03  00 00 10 48 92 80 23 1A  .....h.....H..#.
1310: 6A 13 01 65 13 02 00 10  1B 80 00 20 13 01 65 13  j..e....... ..e.
1320: 02 00 10 6C 80 00 2B 13  01 65 13 02 00 10 5F 80  ...l..+..e...._.
1330: 00 36 13 01 65 13 02 00  10 60 80 00 41 13 01 65  .6..e....`..A..e
1340: 13 02 00 10 6E 80 00 4C  13 01 65 13 02 00 10 6F  ....n..L..e....o
1350: 80 00 57 13 01 65 13 02  00 10 61 80 00 62 13 01  ..W..e....a..b..
1360: 65 13 0C 00 00 01 07 12  1B 1B 1D 93 80 23 24 94  e............#$.
1370: 80 39 80 2E 80 25 02 00  10 2E 80 00 D7 13 03 01  .9...%..........
1380: 10 39 80 40 60 80 67 80  01 10 03 00 43 00 43 01  .9.@`.g.....C.C.
1390: 02 09 10 2E 80 80 A8 13  1D 95 80 23 48 96 80 23  ...........#H..#
13A0: 08 00 00 3C 80 01 D4 13  02 09 10 97 80 80 B7 13  ...<............
13B0: 1D 98 80 23 01 D4 13 02  09 10 99 80 80 CB 13 1D  ...#............
13C0: 4D 80 23 08 00 00 3C 80  01 D4 13 1D 9A 80 23 08  M.#...<.......#.
13D0: 00 00 3C 80 01 D7 13 1B  9B 80 9C 80 9D 80 9E 80  ..<.............
13E0: 9F 80 A0 80 A1 80 A2 80  A3 80 A4 80 A5 80 A6 80  ................
13F0: A7 80 A8 80 A9 80 AA 80  AB 80 AC 80 AD 80 AE 80  ................
1400: 2E 80 2E 80 2E 80 2E 80  AF 80 B0 80 B1 80 B2 80  ................
1410: B3 80 B4 80 B5 80 B6 80  B7 80 B8 80 B9 80 BA 80  ................
1420: BB 80 BC 80 BD 80 BE 80  BF 80 C0 80 C1 80 C2 80  ................
1430: 2E 80 2E 80 2E 80 2E 80  C3 80 C4 80 C5 80 C6 80  ................
1440: C7 80 C8 80 C9 80 CA 80  CB 80 CC 80 CD 80 CE 80  ................
1450: CF 80 D0 80 D1 80 D2 80  D3 80 D4 80 D5 80 D6 80  ................
1460: 2E 80 2E 80 2E 80 2E 80  D7 80 D8 80 D9 80 DA 80  ................
1470: DB 80 DC 80 DD 80 DE 80  DF 80 E0 80 E1 80 E2 80  ................
1480: E3 80 E4 80 E5 80 E6 80  E7 80 E8 80 E9 80 EA 80  ................
1490: 2E 80 2E 80 2E 80 2E 80  EB 80 EC 80 ED 80 EE 80  ................
14A0: EF 80 F0 80 F1 80 F2 80  F3 80 F4 80 F5 80 F6 80  ................
14B0: F7 80 F8 80 F9 80 FA 80  FB 80 FC 80 FD 80 FE 80  ................
14C0: 2E 80 2E 80 2E 80 2E 80  FF 80 00 81 01 81 02 81  ................
14D0: 03 81 04 81 05 81 06 81  07 81 08 81 09 81 0A 81  ................
14E0: 0B 81 0C 81 0D 81 0E 81  0F 81 10 81 11 81 12 81  ................
14F0: 2E 80 2E 80 2E 80 2E 80  13 81 14 81 15 81 16 81  ................
1500: 17 81 18 81 19 81 1A 81  1B 81 1C 81 1D 81 1E 81  ................
1510: 1F 81 20 81 21 81 22 81  23 81 24 81 25 81 26 81  .. .!.".#.$.%.&.
1520: 2E 80 2E 80 2E 80 2E 80  27 81 28 81 29 81 2A 81  ........'.(.).*.
1530: 2B 81 2C 81 2D 81 2E 81  2F 81 30 81 31 81 32 81  +.,.-.../.0.1.2.
1540: 33 81 34 81 35 81 36 81  37 81 38 81 39 81 3A 81  3.4.5.6.7.8.9.:.
1550: 2E 80 2E 80 2E 80 2E 80                           ........        
```

#### Opcodes

```
  0: 0x02CE [0x03] ExtData[1]->WorkLocal[2] = Work_Zone[2]
  1: 0x02D3 [0x03] ExtData[1]->WorkLocal[1] = Work_Zone[3]
  2: 0x02D8 [0x03] ExtData[1]->WorkLocal[7] = Work_Zone[4]
  3: 0x02DD [0x03] ExtData[1]->WorkLocal[14] = Work_Zone[5]
  4: 0x02E2 [0x4A] EventEntity looks at LocalPlayer
  5: 0x02EB [0x1D] PRINT_EVENT_MESSAGE(message_id=12231*)
    → "Hey! You need information on Allied Campaign operations? Well, you're in the rrright place!"
  6: 0x02EE [0x23] WAIT_FOR_DIALOG_INTERACTION
  7: 0x02EF [0x02] IF !(ExtData[1]->WorkLocal[1] == 0*) GOTO 0x0318
  8: 0x02F7 [0x1D] PRINT_EVENT_MESSAGE(message_id=12233*)
    → "Just joined the Cobras, eh? No prrroblem! I can give you a quick rundown of Op Credits if you need one."
  9: 0x02FA [0x23] WAIT_FOR_DIALOG_INTERACTION
 10: 0x02FB [0x24] CREATE_DIALOG(message_id=12234*, default_option=1*, option_flags=0*)
    → "Are you familiar with Op Credits? [Yes./Not really.]"
 11: 0x0302 [0x25] WAIT_DIALOG_SELECT()
 12: 0x0303 [0x02] IF !(Work_Zone[0] == 0*) GOTO 0x0312
 13: 0x030B [0x1D] PRINT_EVENT_MESSAGE(message_id=12235*)
    → "Grrreat. Then we can get right down to business!"
 14: 0x030E [0x23] WAIT_FOR_DIALOG_INTERACTION
 15: 0x030F [0x01] GOTO 0x0315
 16: 0x0312 [0x1A] CALL_SUBROUTINE(address=0x0439)

SUBROUTINE_0315:
 17: 0x0315 [0x01] GOTO 0x0318

SUBROUTINE_0318:
 18: 0x0318 [0x02] IF !(ExtData[1]->WorkLocal[2] > 0*) GOTO 0x0341
 19: 0x0320 [0x1D] PRINT_EVENT_MESSAGE(message_id=12295*)
    → "Hold up... You don't have enough Op Credits to join any operations. Back to the barracks, buddy! I'll see you tomorrow!"
 20: 0x0323 [0x23] WAIT_FOR_DIALOG_INTERACTION
 21: 0x0324 [0x03] Work_Zone[2] = ExtData[1]->WorkLocal[7]
 22: 0x0329 [0x02] IF !(Work_Zone[2] >= 1*) GOTO 0x0338
 23: 0x0331 [0x48] [System] [12334*]:
    → "You will be issued a new Op Credit in less than an hour (Earth time)."
 24: 0x0334 [0x23] WAIT_FOR_DIALOG_INTERACTION
 25: 0x0335 [0x01] GOTO 0x033C
 26: 0x0338 [0x48] [System] [12333*]:
    → "You will be issued a new Op Credit in approximately $0 [hour/hours] (Earth time)."
 27: 0x033B [0x23] WAIT_FOR_DIALOG_INTERACTION

SUBROUTINE_033C:
 28: 0x033C [0x21] END_EVENT
 29: 0x033D [0x00] END_REQSTACK()

SUBROUTINE_034A:
 30: 0x034A [0x24] CREATE_DIALOG(message_id=12237*, default_option=0*, option_flags=0*)
    → "Did you want to join an operation today? [Yes./What are Op Credits again?/View your nation's information./No.]"
 31: 0x0351 [0x25] WAIT_DIALOG_SELECT()
 32: 0x0352 [0x02] IF !(Work_Zone[0] == 1*) GOTO 0x0363
 33: 0x035A [0x1A] CALL_SUBROUTINE(address=0x0439)
 34: 0x035D [0x01] GOTO 0x034A

SUBROUTINE_039B:
 35: 0x039B [0x21] END_EVENT
 36: 0x039C [0x00] END_REQSTACK()

SUBROUTINE_039D:
 37: 0x039D [0x06] ExtData[1]->WorkLocal[0] = 0

SUBROUTINE_03A0:
 38: 0x03A0 [0x02] IF !(ExtData[1]->WorkLocal[0] < 0*) GOTO 0x0437
 39: 0x03A8 [0x1D] PRINT_EVENT_MESSAGE(message_id=12244*)
    → "Alrrright, you've been cleared for participation in the following operations:"
 40: 0x03AB [0x23] WAIT_FOR_DIALOG_INTERACTION
 41: 0x03AC [0x03] Work_Zone[1] = 9*
 42: 0x03B1 [0x43] SEND_EVENT_UPDATE: Send pending tag to server (packet 0x005B)
 43: 0x03B3 [0x43] SEND_EVENT_UPDATE: Check pending flag (skip if not pending)
 44: 0x03B5 [0x24] CREATE_DIALOG(message_id=12245*, default_option=0*, option_flags=0*)
    → "Please select a category. [Resource procurement./Supply transport./Security./Supply manufacture./Offensive operations./Defensive operations./Intel gathering./Military training./None of the above.]"
 45: 0x03BC [0x25] WAIT_DIALOG_SELECT()
 46: 0x03BD [0x02] IF !(Work_Zone[0] == 0*) GOTO 0x03CB
 47: 0x03C5 [0x1A] CALL_SUBROUTINE(address=0x0525)
 48: 0x03C8 [0x01] GOTO 0x0434
 49: 0x03CB [0x02] IF !(Work_Zone[0] == 1*) GOTO 0x03D9
 50: 0x03D3 [0x1A] CALL_SUBROUTINE(address=0x06B7)
 51: 0x03D6 [0x01] GOTO 0x0434
 52: 0x03D9 [0x02] IF !(Work_Zone[0] == 2*) GOTO 0x03E7
 53: 0x03E1 [0x1A] CALL_SUBROUTINE(address=0x0892)
 54: 0x03E4 [0x01] GOTO 0x0434
 55: 0x03E7 [0x02] IF !(Work_Zone[0] == 3*) GOTO 0x03F5
 56: 0x03EF [0x1A] CALL_SUBROUTINE(address=0x0A8B)
 57: 0x03F2 [0x01] GOTO 0x0434
 58: 0x03F5 [0x02] IF !(Work_Zone[0] == 4*) GOTO 0x0403
 59: 0x03FD [0x1A] CALL_SUBROUTINE(address=0x0C0E)
 60: 0x0400 [0x01] GOTO 0x0434
 61: 0x0403 [0x02] IF !(Work_Zone[0] == 5*) GOTO 0x0411
 62: 0x040B [0x1A] CALL_SUBROUTINE(address=0x0DF0)
 63: 0x040E [0x01] GOTO 0x0434
 64: 0x0411 [0x02] IF !(Work_Zone[0] == 6*) GOTO 0x041F
 65: 0x0419 [0x1A] CALL_SUBROUTINE(address=0x0F87)
 66: 0x041C [0x01] GOTO 0x0434
 67: 0x041F [0x02] IF !(Work_Zone[0] == 7*) GOTO 0x042D
 68: 0x0427 [0x1A] CALL_SUBROUTINE(address=0x1204)
 69: 0x042A [0x01] GOTO 0x0434
 70: 0x042D [0x1D] PRINT_EVENT_MESSAGE(message_id=12242*)
    → "Alright then. Speak up when you have completed your preparations and are ready to go."
 71: 0x0430 [0x23] WAIT_FOR_DIALOG_INTERACTION
 72: 0x0431 [0x0C] ExtData[1]->WorkLocal[0]--

SUBROUTINE_0434:
 73: 0x0434 [0x01] GOTO 0x03A0
 74: 0x0437 [0x21] END_EVENT
 75: 0x0438 [0x00] END_REQSTACK()

SUBROUTINE_0439:
 76: 0x0439 [0x1D] PRINT_EVENT_MESSAGE(message_id=12238*)
    → "Listen close, <Player>. To ensure balance in the Allied Campaign, the Allied War Council has developed a fancy system that rrregulates the three nations' participation in operations."
 77: 0x043C [0x23] WAIT_FOR_DIALOG_INTERACTION
 78: 0x043D [0x1D] PRINT_EVENT_MESSAGE(message_id=12239*)
    → "Each member of each army is rrrationed a voucher, known as an Op Credit, every so often."
 79: 0x0440 [0x23] WAIT_FOR_DIALOG_INTERACTION
 80: 0x0441 [0x03] Work_Zone[2] = ExtData[1]->WorkLocal[14]
 81: 0x0446 [0x1D] PRINT_EVENT_MESSAGE(message_id=12240*)
    → "At least one credit is needed to take part in most campaign operations, with more advanced missions rrrequiring additional vouchers, which are accumulated at the rate of one every [day/ten minutes]."
 82: 0x0449 [0x23] WAIT_FOR_DIALOG_INTERACTION
 83: 0x044A [0x1D] PRINT_EVENT_MESSAGE(message_id=12241*)
    → "However, rrremember this--once an Op Credit is used, it won't be refunded if you abandon an operation without completing your duties."
 84: 0x044D [0x23] WAIT_FOR_DIALOG_INTERACTION
 85: 0x044E [0x1B] RETURN

SUBROUTINE_044F:
 86: 0x044F [0x03] Work_Zone[1] = 8*
 87: 0x0454 [0x43] SEND_EVENT_UPDATE: Send pending tag to server (packet 0x005B)
 88: 0x0456 [0x43] SEND_EVENT_UPDATE: Check pending flag (skip if not pending)
 89: 0x0458 [0x48] [System] [12342*]:
    → "Current nation status: Funds: [UNKNOWN/$25/$25$25/$25$25$25/$25$25$25$25/$25$25$25$25$25/$25$25$25$25$25$25/$25$25$25$25$25$25$25/$25$25$25$25$25$25$25$25/$25$25$25$25$25$25$25$25$25/$25$25$25$25$25$25$25$25$25$25] Supplies: [UNKNOWN/$25/$25$25/$25$25$25/$25$25$25$25/$25$25$25$25$25/$25$25$25$25$25$25/$25$25$25$25$25$25$25/$25$25$25$25$25$25$25$25/$25$25$25$25$25$25$25$25$25/$25$25$25$25$25$25$25$25$25$25] Tactics: [UNKNOWN/$25/$25$25/$25$25$25/$25$25$25$25/$25$25$25$25$25/$25$25$25$25$25$25/$25$25$25$25$25$25$25/$25$25$25$25$25$25$25$25/$25$25$25$25$25$25$25$25$25/$25$25$25$25$25$25$25$25$25$25]"
 90: 0x045B [0x23] WAIT_FOR_DIALOG_INTERACTION
 91: 0x045C [0x48] [System] [12343*]:
    → "Skill: [UNKNOWN/$25/$25$25/$25$25$25/$25$25$25$25/$25$25$25$25$25/$25$25$25$25$25$25/$25$25$25$25$25$25$25/$25$25$25$25$25$25$25$25/$25$25$25$25$25$25$25$25$25/$25$25$25$25$25$25$25$25$25$25] Production: [UNKNOWN/$25/$25$25/$25$25$25/$25$25$25$25/$25$25$25$25$25/$25$25$25$25$25$25/$25$25$25$25$25$25$25/$25$25$25$25$25$25$25$25/$25$25$25$25$25$25$25$25$25/$25$25$25$25$25$25$25$25$25$25]"
 92: 0x045F [0x23] WAIT_FOR_DIALOG_INTERACTION
 93: 0x0460 [0x1B] RETURN

SUBROUTINE_0461:
 94: 0x0461 [0x03] ExtData[1]->WorkLocal[9] = Work_Zone[3]
 95: 0x0466 [0x03] ExtData[1]->WorkLocal[10] = Work_Zone[4]
 96: 0x046B [0x03] ExtData[1]->WorkLocal[11] = Work_Zone[5]
 97: 0x0470 [0x41] Work_Zone[3] = ExtData[1]->WorkLocal[9] (bits 0*-3*)
 98: 0x0479 [0x41] Work_Zone[4] = ExtData[1]->WorkLocal[9] (bits 4*-7*)
 99: 0x0482 [0x41] Work_Zone[5] = ExtData[1]->WorkLocal[9] (bits 8*-11*)
100: 0x048B [0x41] Work_Zone[6] = ExtData[1]->WorkLocal[9] (bits 12*-15*)
101: 0x0494 [0x41] Work_Zone[7] = ExtData[1]->WorkLocal[9] (bits 16*-19*)
102: 0x049D [0x41] Work_Zone[8] = ExtData[1]->WorkLocal[9] (bits 20*-23*)
103: 0x04A6 [0x41] Work_Zone[9] = ExtData[1]->WorkLocal[9] (bits 24*-27*)
104: 0x04AF [0x41] Work_Zone_1700[0] = ExtData[1]->WorkLocal[9] (bits 28*-31*)
105: 0x04B8 [0x41] Work_Zone_1700[1] = ExtData[1]->WorkLocal[10] (bits 0*-3*)
106: 0x04C1 [0x41] Work_Zone_1700[2] = ExtData[1]->WorkLocal[10] (bits 4*-7*)
107: 0x04CA [0x41] Work_Zone_1700[3] = ExtData[1]->WorkLocal[10] (bits 8*-11*)
108: 0x04D3 [0x41] Work_Zone_1700[4] = ExtData[1]->WorkLocal[10] (bits 12*-15*)
109: 0x04DC [0x41] Work_Zone_1700[5] = ExtData[1]->WorkLocal[10] (bits 16*-19*)
110: 0x04E5 [0x41] Work_Zone_1700[6] = ExtData[1]->WorkLocal[10] (bits 20*-23*)
111: 0x04EE [0x41] Work_Zone_1700[7] = ExtData[1]->WorkLocal[10] (bits 24*-27*)
112: 0x04F7 [0x41] Work_Zone_1700[8] = ExtData[1]->WorkLocal[10] (bits 28*-31*)
113: 0x0500 [0x41] Work_Zone_1700[9] = ExtData[1]->WorkLocal[11] (bits 0*-3*)
114: 0x0509 [0x41] Work_Zone_1700[10] = ExtData[1]->WorkLocal[11] (bits 4*-7*)
115: 0x0512 [0x41] Work_Zone_1700[11] = ExtData[1]->WorkLocal[11] (bits 8*-11*)
116: 0x051B [0x41] Work_Zone_1700[12] = ExtData[1]->WorkLocal[11] (bits 12*-15*)
117: 0x0524 [0x1B] RETURN

SUBROUTINE_0525:
118: 0x0525 [0x0B] ExtData[1]->WorkLocal[0]++

SUBROUTINE_0528:
119: 0x0528 [0x02] IF !(ExtData[1]->WorkLocal[0] < 1*) GOTO 0x06B6
120: 0x0530 [0x03] Work_Zone[1] = 5*
121: 0x0535 [0x40] SET_BIT_WORK_RANGE(start_bit=8*, end_bit=31*, target=Work_Zone[1], source=5*)
122: 0x053E [0x43] SEND_EVENT_UPDATE: Send pending tag to server (packet 0x005B)
123: 0x0540 [0x43] SEND_EVENT_UPDATE: Check pending flag (skip if not pending)
124: 0x0542 [0x1A] CALL_SUBROUTINE(address=0x0461)
125: 0x0545 [0x24] CREATE_DIALOG(message_id=12250*, default_option=0*, option_flags=Work_Zone[2])
    → "Please select an operation. [Stock and Awe I. ([$26/$26$26/$26$26$26/$26$26$26$26/$26$26$26$26$26])/Stock and Awe II. ([$26/$26$26/$26$26$26/$26$26$26$26/$26$26$26$26$26])/Stock and Awe III. ([$26/$26$26/$26$26$26/$26$26$26$26/$26$26$26$26$26])/Stock and Awe IV. ([$26/$26$26/$26$26$26/$26$26$26$26/$26$26$26$26$26])/Top Secret Operation X. ([$26/$26$26/$26$26$26/$26$26$26$26/$26$26$26$26$26])/Top Secret Operation X. ([$26/$26$26/$26$26$26/$26$26$26$26/$26$26$26$26$26])/Top Secret Operation X. ([$26/$26$26/$26$26$26/$26$26$26$26/$26$26$26$26$26])/Top Secret Operation X. ([$26/$26$26/$26$26$26/$26$26$26$26/$26$26$26$26$26])/Top Secret Operation X. ([$26/$26$26/$26$26$26/$26$26$26$26/$26$26$26$26$26])/Top Secret Operation X. ([$26/$26$26/$26$26$26/$26$26$26$26/$26$26$26$26$26])/Materiel Storm I. ([$26/$26$26/$26$26$26/$26$26$26$26/$26$26$26$26$26])/Materiel Storm II. ([$26/$26$26/$26$26$26/$26$26$26$26/$26$26$26$26$26])/Materiel Storm III. ([$26/$26$26/$26$26$26/$26$26$26$26/$26$26$26$26$26])/Materiel Storm IV. ([$26/$26$26/$26$26$26/$26$26$26$26/$26$26$26$26$26])/Top Secret Operation X. ([$26/$26$26/$26$26$26/$26$26$26$26/$26$26$26$26$26])/Search and Seizure I. ([$26/$26$26/$26$26$26/$26$26$26$26/$26$26$26$26$26])/Top Secret Operation X. ([$26/$26$26/$26$26$26/$26$26$26$26/$26$26$26$26$26])/Top Secret Operation X. ([$26/$26$26/$26$26$26/$26$26$26$26/$26$26$26$26$26])/Top Secret Operation X. ([$26/$26$26/$26$26$26/$26$26$26$26/$26$26$26$26$26])/Top Secret Operation X. ([$26/$26$26/$26$26$26/$26$26$26$26/$26$26$26$26$26])/Quit.]"
126: 0x054C [0x25] WAIT_DIALOG_SELECT()
127: 0x054D [0x02] IF !(Work_Zone[0] == 0*) GOTO 0x0567
128: 0x0555 [0x9D] ExtData[1]->WorkLocal[3] = 0x1498[Work_Zone[0]] // Read WORD
129: 0x055D [0x48] [System] [12275*]:
    → "In this operation, you'll need to help rrresupply our nation's munitions stockpiles."
130: 0x0560 [0x23] WAIT_FOR_DIALOG_INTERACTION
131: 0x0561 [0x1A] CALL_SUBROUTINE(address=0x136A)
132: 0x0564 [0x01] GOTO 0x06B3
133: 0x0567 [0x02] IF !(Work_Zone[0] == 1*) GOTO 0x0581
134: 0x056F [0x9D] ExtData[1]->WorkLocal[3] = 0x1498[Work_Zone[0]] // Read WORD
135: 0x0577 [0x48] [System] [12275*]:
    → "In this operation, you'll need to help rrresupply our nation's munitions stockpiles."
136: 0x057A [0x23] WAIT_FOR_DIALOG_INTERACTION
137: 0x057B [0x1A] CALL_SUBROUTINE(address=0x136A)
138: 0x057E [0x01] GOTO 0x06B3
139: 0x0581 [0x02] IF !(Work_Zone[0] == 2*) GOTO 0x059B
140: 0x0589 [0x9D] ExtData[1]->WorkLocal[3] = 0x1498[Work_Zone[0]] // Read WORD
141: 0x0591 [0x48] [System] [12275*]:
    → "In this operation, you'll need to help rrresupply our nation's munitions stockpiles."
142: 0x0594 [0x23] WAIT_FOR_DIALOG_INTERACTION
143: 0x0595 [0x1A] CALL_SUBROUTINE(address=0x136A)
144: 0x0598 [0x01] GOTO 0x06B3
145: 0x059B [0x02] IF !(Work_Zone[0] == 3*) GOTO 0x05B5
146: 0x05A3 [0x9D] ExtData[1]->WorkLocal[3] = 0x1498[Work_Zone[0]] // Read WORD
147: 0x05AB [0x48] [System] [12275*]:
    → "In this operation, you'll need to help rrresupply our nation's munitions stockpiles."
148: 0x05AE [0x23] WAIT_FOR_DIALOG_INTERACTION
149: 0x05AF [0x1A] CALL_SUBROUTINE(address=0x136A)
150: 0x05B2 [0x01] GOTO 0x06B3
151: 0x05B5 [0x02] IF !(Work_Zone[0] == 4*) GOTO 0x05C0
152: 0x05BD [0x01] GOTO 0x06B3
153: 0x05C0 [0x02] IF !(Work_Zone[0] == 5*) GOTO 0x05CB
154: 0x05C8 [0x01] GOTO 0x06B3
155: 0x05CB [0x02] IF !(Work_Zone[0] == 6*) GOTO 0x05D6
156: 0x05D3 [0x01] GOTO 0x06B3
157: 0x05D6 [0x02] IF !(Work_Zone[0] == 7*) GOTO 0x05E1
158: 0x05DE [0x01] GOTO 0x06B3
159: 0x05E1 [0x02] IF !(Work_Zone[0] == 8*) GOTO 0x05EC
160: 0x05E9 [0x01] GOTO 0x06B3
161: 0x05EC [0x02] IF !(Work_Zone[0] == 9*) GOTO 0x05F7
162: 0x05F4 [0x01] GOTO 0x06B3
163: 0x05F7 [0x02] IF !(Work_Zone[0] == 10*) GOTO 0x0611
164: 0x05FF [0x9D] ExtData[1]->WorkLocal[3] = 0x1498[Work_Zone[0]] // Read WORD
165: 0x0607 [0x48] [System] [12274*]:
    → "In this operation, you'll need to gather supplies for delivery to the frrrontlines."
166: 0x060A [0x23] WAIT_FOR_DIALOG_INTERACTION
167: 0x060B [0x1A] CALL_SUBROUTINE(address=0x136A)
168: 0x060E [0x01] GOTO 0x06B3
169: 0x0611 [0x02] IF !(Work_Zone[0] == 11*) GOTO 0x062B
170: 0x0619 [0x9D] ExtData[1]->WorkLocal[3] = 0x1498[Work_Zone[0]] // Read WORD
171: 0x0621 [0x48] [System] [12274*]:
    → "In this operation, you'll need to gather supplies for delivery to the frrrontlines."
172: 0x0624 [0x23] WAIT_FOR_DIALOG_INTERACTION
173: 0x0625 [0x1A] CALL_SUBROUTINE(address=0x136A)
174: 0x0628 [0x01] GOTO 0x06B3
175: 0x062B [0x02] IF !(Work_Zone[0] == 12*) GOTO 0x0645
176: 0x0633 [0x9D] ExtData[1]->WorkLocal[3] = 0x1498[Work_Zone[0]] // Read WORD
177: 0x063B [0x48] [System] [12274*]:
    → "In this operation, you'll need to gather supplies for delivery to the frrrontlines."
178: 0x063E [0x23] WAIT_FOR_DIALOG_INTERACTION
179: 0x063F [0x1A] CALL_SUBROUTINE(address=0x136A)
180: 0x0642 [0x01] GOTO 0x06B3
181: 0x0645 [0x02] IF !(Work_Zone[0] == 13*) GOTO 0x065F
182: 0x064D [0x9D] ExtData[1]->WorkLocal[3] = 0x1498[Work_Zone[0]] // Read WORD
183: 0x0655 [0x48] [System] [12274*]:
    → "In this operation, you'll need to gather supplies for delivery to the frrrontlines."
184: 0x0658 [0x23] WAIT_FOR_DIALOG_INTERACTION
185: 0x0659 [0x1A] CALL_SUBROUTINE(address=0x136A)
186: 0x065C [0x01] GOTO 0x06B3
187: 0x065F [0x02] IF !(Work_Zone[0] == 14*) GOTO 0x066A
188: 0x0667 [0x01] GOTO 0x06B3
189: 0x066A [0x02] IF !(Work_Zone[0] == 15*) GOTO 0x0684
190: 0x0672 [0x9D] ExtData[1]->WorkLocal[3] = 0x1498[Work_Zone[0]] // Read WORD
191: 0x067A [0x48] [System] [12276*]:
    → "This operation requires that you locate an enemy supply convoy and securrre any valuable supplies possible."
192: 0x067D [0x23] WAIT_FOR_DIALOG_INTERACTION
193: 0x067E [0x1A] CALL_SUBROUTINE(address=0x136A)
194: 0x0681 [0x01] GOTO 0x06B3
195: 0x0684 [0x02] IF !(Work_Zone[0] == 16*) GOTO 0x068F
196: 0x068C [0x01] GOTO 0x06B3
197: 0x068F [0x02] IF !(Work_Zone[0] == 17*) GOTO 0x069A
198: 0x0697 [0x01] GOTO 0x06B3
199: 0x069A [0x02] IF !(Work_Zone[0] == 18*) GOTO 0x06A5
200: 0x06A2 [0x01] GOTO 0x06B3
201: 0x06A5 [0x02] IF !(Work_Zone[0] == 19*) GOTO 0x06B0
202: 0x06AD [0x01] GOTO 0x06B3
203: 0x06B0 [0x0C] ExtData[1]->WorkLocal[0]--

SUBROUTINE_06B3:
204: 0x06B3 [0x01] GOTO 0x0528
205: 0x06B6 [0x1B] RETURN

SUBROUTINE_06B7:
206: 0x06B7 [0x0B] ExtData[1]->WorkLocal[0]++

SUBROUTINE_06BA:
207: 0x06BA [0x02] IF !(ExtData[1]->WorkLocal[0] < 1*) GOTO 0x0891
208: 0x06C2 [0x03] Work_Zone[1] = 5*
209: 0x06C7 [0x40] SET_BIT_WORK_RANGE(start_bit=8*, end_bit=31*, target=Work_Zone[1], source=6*)
210: 0x06D0 [0x43] SEND_EVENT_UPDATE: Send pending tag to server (packet 0x005B)
211: 0x06D2 [0x43] SEND_EVENT_UPDATE: Check pending flag (skip if not pending)
212: 0x06D4 [0x1A] CALL_SUBROUTINE(address=0x0461)
213: 0x06D7 [0x03] ExtData[1]->WorkLocal[12] = Work_Zone[2]
214: 0x06DC [0x41] ExtData[1]->WorkLocal[13] = ExtData[1]->WorkLocal[12] (bits 14*-14*)
215: 0x06E5 [0x40] SET_BIT_WORK_RANGE(start_bit=13*, end_bit=13*, target=Work_Zone[2], source=ExtData[1]->WorkLocal[13])
216: 0x06EE [0x41] ExtData[1]->WorkLocal[13] = ExtData[1]->WorkLocal[12] (bits 13*-13*)
217: 0x06F7 [0x40] SET_BIT_WORK_RANGE(start_bit=14*, end_bit=14*, target=Work_Zone[2], source=ExtData[1]->WorkLocal[13])
218: 0x0700 [0x24] CREATE_DIALOG(message_id=12251*, default_option=0*, option_flags=Work_Zone[2])
