# 17162751 - Dhea Prandoleh

## Common Data

| Field            | Value                        |
|------------------|------------------------------|
| Zone             | Windurst Waters [S] (ID: 94) |
| Block Size       | 1028 bytes                   |
| Total Events     | 49                           |
| References Count | 52                           |

## List of Events

| Event ID                   | Entrypoint   |   Size |   Instructions |
|----------------------------|--------------|--------|----------------|
| [65535](#event-65535)      | 0x0000       |      1 |              1 |
| [128](#event-128)          | 0x0001       |      1 |              1 |
| [129](#event-129)          | 0x0002       |      1 |              1 |
| [131](#event-131)          | 0x0003       |     34 |             10 |
| [132](#event-132)          | 0x0025       |      1 |              1 |
| [139](#event-139)          | 0x0026       |     26 |              8 |
| [133](#event-133)          | 0x0040       |      1 |              1 |
| [134](#event-134)          | 0x0041       |      1 |              1 |
| [65535.1](#event-655351)   | 0x0042       |     13 |              3 |
| [135](#event-135)          | 0x004F       |     26 |              8 |
| [136](#event-136)          | 0x0069       |     26 |              8 |
| [103](#event-103)          | 0x0083       |      7 |              2 |
| [106](#event-106)          | 0x008A       |      7 |              2 |
| [151](#event-151)          | 0x0091       |      1 |              1 |
| [65535.2](#event-655352)   | 0x0092       |      1 |              1 |
| [65535.3](#event-655353)   | 0x0093       |     18 |              4 |
| [65535.4](#event-655354)   | 0x00A5       |     10 |              2 |
| [65535.5](#event-655355)   | 0x00AF       |      9 |              3 |
| [65535.6](#event-655356)   | 0x00B8       |      9 |              3 |
| [65535.7](#event-655357)   | 0x00C1       |     10 |              2 |
| [65535.8](#event-655358)   | 0x00CB       |     10 |              2 |
| [231](#event-231)          | 0x00D5       |      1 |              1 |
| [232](#event-232)          | 0x00D6       |      1 |              1 |
| [65535.9](#event-655359)   | 0x00D7       |     29 |              7 |
| [65535.10](#event-6553510) | 0x00F4       |     20 |              6 |
| [158](#event-158)          | 0x0108       |      1 |              1 |
| [159](#event-159)          | 0x0109       |      1 |              1 |
| [160](#event-160)          | 0x010A       |     26 |              8 |
| [164](#event-164)          | 0x0124       |     31 |              9 |
| [168](#event-168)          | 0x0143       |      1 |              1 |
| [236](#event-236)          | 0x0144       |      1 |              1 |
| [166](#event-166)          | 0x0145       |     26 |              8 |
| [167](#event-167)          | 0x015F       |     10 |              4 |
| [65535.11](#event-6553511) | 0x0169       |     15 |              5 |
| [65535.12](#event-6553512) | 0x0178       |     13 |              3 |
| [26](#event-26)            | 0x0185       |     18 |              6 |
| [34](#event-34)            | 0x0197       |     26 |              8 |
| [35](#event-35)            | 0x01B1       |     34 |             10 |
| [36](#event-36)            | 0x01D3       |     26 |              8 |
| [37](#event-37)            | 0x01ED       |      1 |              1 |
| [20](#event-20)            | 0x01EE       |      1 |              1 |
| [31](#event-31)            | 0x01EF       |      1 |              1 |
| [32](#event-32)            | 0x01F0       |      1 |              1 |
| [42](#event-42)            | 0x01F1       |      1 |              1 |
| [43](#event-43)            | 0x01F2       |      1 |              1 |
| [65535.13](#event-6553513) | 0x01F3       |     33 |              7 |
| [65535.14](#event-6553514) | 0x0214       |     19 |              3 |
| [65535.15](#event-6553515) | 0x0227       |     53 |              7 |
| [530](#event-530)          | 0x025C       |      1 |              1 |

## DAT References (imed_data)

|   Index | Hex Value   |   Dec Value |
|---------|-------------|-------------|
|       0 | 0x001E      |          30 |
|       1 | 0x2D98      |       11672 |
|       2 | 0x2D99      |       11673 |
|       3 | 0x2D9A      |       11674 |
|       4 | 0x2D9B      |       11675 |
|       5 | 0x2D9C      |       11676 |
|       6 | 0x000A      |          10 |
|       7 | 0x2DBB      |       11707 |
|       8 | 0x2DBC      |       11708 |
|       9 | 0x2DDD      |       11741 |
|      10 | 0x2DDE      |       11742 |
|      11 | 0x0000      |           0 |
|      12 | 0x0001      |           1 |
|      13 | 0x0080      |         128 |
|      14 | 0x1A4EE     |      107758 |
|      15 | 0xA454      |       42068 |
|      16 | 0xFFFFF741  |  4294965057 |
|      17 | 0x0EB4      |        3764 |
|      18 | 0x0028      |          40 |
|      19 | 0x1E8D3     |      125139 |
|      20 | 0xC861      |       51297 |
|      21 | 0xFFFFF897  |  4294965399 |
|      22 | 0xFFFF5EBE  |  4294926014 |
|      23 | 0x36ED8     |      224984 |
|      24 | 0xFFFFECC7  |  4294962375 |
|      25 | 0x2B3E      |       11070 |
|      26 | 0x2B3F      |       11071 |
|      27 | 0x10C1      |        4289 |
|      28 | 0x2B4F      |       11087 |
|      29 | 0x2B50      |       11088 |
|      30 | 0x3351      |       13137 |
|      31 | 0x3352      |       13138 |
|      32 | 0xFFFFF612  |  4294964754 |
|      33 | 0x64ED      |       25837 |
|      34 | 0xFFFFFC19  |  4294966297 |
|      35 | 0x000C      |          12 |
|      36 | 0x350A      |       13578 |
|      37 | 0x363F      |       13887 |
|      38 | 0x3640      |       13888 |
|      39 | 0x364E      |       13902 |
|      40 | 0x364F      |       13903 |
|      41 | 0x3650      |       13904 |
|      42 | 0x367C      |       13948 |
|      43 | 0x367D      |       13949 |
|      44 | 0x0078      |         120 |
|      45 | 0x002D      |          45 |
|      46 | 0x000B      |          11 |
|      47 | 0x003C      |          60 |
|      48 | 0x0036      |          54 |
|      49 | 0x00BC      |         188 |
|      50 | 0x012C      |         300 |
|      51 | 0x00F0      |         240 |

## Events

### Event 65535

#### Metadata

| Field        | Value   |
|--------------|---------|
| Entrypoint   | 0x0000  |
| Data Size    | 1 bytes |
| Instructions | 1       |

```
      00 01 02 03 04 05 06 07  08 09 0A 0B 0C 0D 0E 0F
      -- -- -- -- -- -- -- --  -- -- -- -- -- -- -- --
0000: 00                                                .               
```

#### Opcodes

```
  0: 0x0000 [0x00] END_REQSTACK()
```

### Event 128

#### Metadata

| Field        | Value   |
|--------------|---------|
| Entrypoint   | 0x0001  |
| Data Size    | 1 bytes |
| Instructions | 1       |

```
      00 01 02 03 04 05 06 07  08 09 0A 0B 0C 0D 0E 0F
      -- -- -- -- -- -- -- --  -- -- -- -- -- -- -- --
0000:    00                                              .              
```

#### Opcodes

```
  0: 0x0001 [0x00] END_REQSTACK()
```

### Event 129

#### Metadata

| Field        | Value   |
|--------------|---------|
| Entrypoint   | 0x0002  |
| Data Size    | 1 bytes |
| Instructions | 1       |

```
      00 01 02 03 04 05 06 07  08 09 0A 0B 0C 0D 0E 0F
      -- -- -- -- -- -- -- --  -- -- -- -- -- -- -- --
0000:       00                                            .             
```

#### Opcodes

```
  0: 0x0002 [0x00] END_REQSTACK()
```

### Event 131

#### Metadata

| Field        | Value    |
|--------------|----------|
| Entrypoint   | 0x0003   |
| Data Size    | 34 bytes |
| Instructions | 10       |

```
      00 01 02 03 04 05 06 07  08 09 0A 0B 0C 0D 0E 0F
      -- -- -- -- -- -- -- --  -- -- -- -- -- -- -- --
0000:          1E F0 FF FF 7F  1C 00 80 2B FF E1 05 01     ........+....
0010: 01 80 23 2B FF E1 05 01  02 80 23 2B FF E1 05 01  ..#+......#+....
0020: 03 80 23 21 00                                    ..#!.           
```

#### Opcodes

```
  0: 0x0003 [0x1E] EventEntity looks at LocalPlayer and starts talking
  1: 0x0008 [0x1C] WAIT(30* ticks)
  2: 0x000B [0x2B] Dhea Prandoleh (ID: 17162751/0x0105E1FF) [11672*]:
    → "I better get my kit together before the boss comes back..."
  3: 0x0012 [0x23] WAIT_FOR_DIALOG_INTERACTION
  4: 0x0013 [0x2B] Dhea Prandoleh (ID: 17162751/0x0105E1FF) [11673*]:
    → "Hey, weren't you supposed to be doin' something in West Sarutabaruta for that Tarutaru brrrat?"
  5: 0x001A [0x23] WAIT_FOR_DIALOG_INTERACTION
  6: 0x001B [0x2B] Dhea Prandoleh (ID: 17162751/0x0105E1FF) [11674*]:
    → "Not that it's any business of mine..."
  7: 0x0022 [0x23] WAIT_FOR_DIALOG_INTERACTION
  8: 0x0023 [0x21] END_EVENT
  9: 0x0024 [0x00] END_REQSTACK()
```

### Event 132

#### Metadata

| Field        | Value   |
|--------------|---------|
| Entrypoint   | 0x0025  |
| Data Size    | 1 bytes |
| Instructions | 1       |

```
      00 01 02 03 04 05 06 07  08 09 0A 0B 0C 0D 0E 0F
      -- -- -- -- -- -- -- --  -- -- -- -- -- -- -- --
0020:                00                                      .          
```

#### Opcodes

```
  0: 0x0025 [0x00] END_REQSTACK()
```

### Event 139

#### Metadata

| Field        | Value    |
|--------------|----------|
| Entrypoint   | 0x0026   |
| Data Size    | 26 bytes |
| Instructions | 8        |

```
      00 01 02 03 04 05 06 07  08 09 0A 0B 0C 0D 0E 0F
      -- -- -- -- -- -- -- --  -- -- -- -- -- -- -- --
0020:                   1E F0  FF FF 7F 1C 00 80 2B FF        ........+.
0030: E1 05 01 04 80 23 2B FF  E1 05 01 05 80 23 21 00  .....#+......#!.
```

#### Opcodes

```
  0: 0x0026 [0x1E] EventEntity looks at LocalPlayer and starts talking
  1: 0x002B [0x1C] WAIT(30* ticks)
  2: 0x002E [0x2B] Dhea Prandoleh (ID: 17162751/0x0105E1FF) [11675*]:
    → "Hm? What is it? I don't have time to chat!"
  3: 0x0035 [0x23] WAIT_FOR_DIALOG_INTERACTION
  4: 0x0036 [0x2B] Dhea Prandoleh (ID: 17162751/0x0105E1FF) [11676*]:
    → "You never know when those Yagudo will come calling! Gotta stay sharp!"
  5: 0x003D [0x23] WAIT_FOR_DIALOG_INTERACTION
  6: 0x003E [0x21] END_EVENT
  7: 0x003F [0x00] END_REQSTACK()
```

### Event 133

#### Metadata

| Field        | Value   |
|--------------|---------|
| Entrypoint   | 0x0040  |
| Data Size    | 1 bytes |
| Instructions | 1       |

```
      00 01 02 03 04 05 06 07  08 09 0A 0B 0C 0D 0E 0F
      -- -- -- -- -- -- -- --  -- -- -- -- -- -- -- --
0040: 00                                                .               
```

#### Opcodes

```
  0: 0x0040 [0x00] END_REQSTACK()
```

### Event 134

#### Metadata

| Field        | Value   |
|--------------|---------|
| Entrypoint   | 0x0041  |
| Data Size    | 1 bytes |
| Instructions | 1       |

```
      00 01 02 03 04 05 06 07  08 09 0A 0B 0C 0D 0E 0F
      -- -- -- -- -- -- -- --  -- -- -- -- -- -- -- --
0040:    00                                              .              
```

#### Opcodes

```
  0: 0x0041 [0x00] END_REQSTACK()
```

### Event 65535.1

#### Metadata

| Field        | Value    |
|--------------|----------|
| Entrypoint   | 0x0042   |
| Data Size    | 13 bytes |
| Instructions | 3        |

```
      00 01 02 03 04 05 06 07  08 09 0A 0B 0C 0D 0E 0F
      -- -- -- -- -- -- -- --  -- -- -- -- -- -- -- --
0040:       6E FF E1 05 01 06  80 99 FF E1 05 01 00       n............ 
```

#### Opcodes

```
  0: 0x0042 [0x6E] Dhea Prandoleh (ID: 17162751/0x0105E1FF) uses emote 10*
  1: 0x0049 [0x99] Wait for Dhea Prandoleh (ID: 17162751/0x0105E1FF) animation to complete
  2: 0x004E [0x00] END_REQSTACK()
```

### Event 135

#### Metadata

| Field        | Value    |
|--------------|----------|
| Entrypoint   | 0x004F   |
| Data Size    | 26 bytes |
| Instructions | 8        |

```
      00 01 02 03 04 05 06 07  08 09 0A 0B 0C 0D 0E 0F
      -- -- -- -- -- -- -- --  -- -- -- -- -- -- -- --
0040:                                               1E                 .
0050: F0 FF FF 7F 1C 00 80 2B  FF E1 05 01 07 80 23 2B  .......+......#+
0060: FF E1 05 01 08 80 23 21  00                       ......#!.       
```

#### Opcodes

```
  0: 0x004F [0x1E] EventEntity looks at LocalPlayer and starts talking
  1: 0x0054 [0x1C] WAIT(30* ticks)
  2: 0x0057 [0x2B] Dhea Prandoleh (ID: 17162751/0x0105E1FF) [11707*]:
    → "Even if he is a brrrat, you can't leave him to the mercy of the birdmen. You better head off to Fort Karugo-Narugo."
  3: 0x005E [0x23] WAIT_FOR_DIALOG_INTERACTION
  4: 0x005F [0x2B] Dhea Prandoleh (ID: 17162751/0x0105E1FF) [11708*]:
    → "Talk to Rotih Moalghett once you get there. She'll lend you a paw."
  5: 0x0066 [0x23] WAIT_FOR_DIALOG_INTERACTION
  6: 0x0067 [0x21] END_EVENT
  7: 0x0068 [0x00] END_REQSTACK()
```

### Event 136

#### Metadata

| Field        | Value    |
|--------------|----------|
| Entrypoint   | 0x0069   |
| Data Size    | 26 bytes |
| Instructions | 8        |

```
      00 01 02 03 04 05 06 07  08 09 0A 0B 0C 0D 0E 0F
      -- -- -- -- -- -- -- --  -- -- -- -- -- -- -- --
0060:                             1E F0 FF FF 7F 1C 00           .......
0070: 80 2B FF E1 05 01 09 80  23 2B FF E1 05 01 0A 80  .+......#+......
0080: 23 21 00                                          #!.             
```

#### Opcodes

```
  0: 0x0069 [0x1E] EventEntity looks at LocalPlayer and starts talking
  1: 0x006E [0x1C] WAIT(30* ticks)
  2: 0x0071 [0x2B] Dhea Prandoleh (ID: 17162751/0x0105E1FF) [11741*]:
    → "I think the boss has her eye on you!"
  3: 0x0078 [0x23] WAIT_FOR_DIALOG_INTERACTION
  4: 0x0079 [0x2B] Dhea Prandoleh (ID: 17162751/0x0105E1FF) [11742*]:
    → "Keep your claws sharp! You never know when you'll be called on again!"
  5: 0x0080 [0x23] WAIT_FOR_DIALOG_INTERACTION
  6: 0x0081 [0x21] END_EVENT
  7: 0x0082 [0x00] END_REQSTACK()
```

### Event 103

#### Metadata

| Field        | Value   |
|--------------|---------|
| Entrypoint   | 0x0083  |
| Data Size    | 7 bytes |
| Instructions | 2       |

```
      00 01 02 03 04 05 06 07  08 09 0A 0B 0C 0D 0E 0F
      -- -- -- -- -- -- -- --  -- -- -- -- -- -- -- --
0080:          92 01 F8 FF FF  7F 00                       .......      
```

#### Opcodes

```
  0: 0x0083 [0x92] EventEntity->Render.Flags3 ^= 0x01
  1: 0x0089 [0x00] END_REQSTACK()
```

### Event 106

#### Metadata

| Field        | Value   |
|--------------|---------|
| Entrypoint   | 0x008A  |
| Data Size    | 7 bytes |
| Instructions | 2       |

```
      00 01 02 03 04 05 06 07  08 09 0A 0B 0C 0D 0E 0F
      -- -- -- -- -- -- -- --  -- -- -- -- -- -- -- --
0080:                                92 01 F8 FF FF 7F            ......
0090: 00                                                .               
```

#### Opcodes

```
  0: 0x008A [0x92] EventEntity->Render.Flags3 ^= 0x01
  1: 0x0090 [0x00] END_REQSTACK()
```

### Event 151

#### Metadata

| Field        | Value   |
|--------------|---------|
| Entrypoint   | 0x0091  |
| Data Size    | 1 bytes |
| Instructions | 1       |

```
      00 01 02 03 04 05 06 07  08 09 0A 0B 0C 0D 0E 0F
      -- -- -- -- -- -- -- --  -- -- -- -- -- -- -- --
0090:    00                                              .              
```

#### Opcodes

```
  0: 0x0091 [0x00] END_REQSTACK()
```

### Event 65535.2

#### Metadata

| Field        | Value   |
|--------------|---------|
| Entrypoint   | 0x0092  |
| Data Size    | 1 bytes |
| Instructions | 1       |

```
      00 01 02 03 04 05 06 07  08 09 0A 0B 0C 0D 0E 0F
      -- -- -- -- -- -- -- --  -- -- -- -- -- -- -- --
0090:       00                                            .             
```

#### Opcodes

```
  0: 0x0092 [0x00] END_REQSTACK()
```

### Event 65535.3

#### Metadata

| Field        | Value    |
|--------------|----------|
| Entrypoint   | 0x0093   |
| Data Size    | 18 bytes |
| Instructions | 4        |

```
      00 01 02 03 04 05 06 07  08 09 0A 0B 0C 0D 0E 0F
      -- -- -- -- -- -- -- --  -- -- -- -- -- -- -- --
0090:          22 00 2F 00 F8  FF FF 7F 6C F8 FF FF 7F     "./.....l....
00A0: 0B 80 0C 80 00                                    .....           
```

#### Opcodes

```
  0: 0x0093 [0x22] ENTITY_HIDE_FLAG(enabled=0x00)
  1: 0x0095 [0x2F] EventEntity->Render.Flags0 &= ~0x80000 // Bit 19
  2: 0x009B [0x6C] FADE_ENTITY_COLOR(entity_id=EventEntity, end_alpha=0*, fade_time=1*)
  3: 0x00A4 [0x00] END_REQSTACK()
```

### Event 65535.4

#### Metadata

| Field        | Value    |
|--------------|----------|
| Entrypoint   | 0x00A5   |
| Data Size    | 10 bytes |
| Instructions | 2        |

```
      00 01 02 03 04 05 06 07  08 09 0A 0B 0C 0D 0E 0F
      -- -- -- -- -- -- -- --  -- -- -- -- -- -- -- --
00A0:                6C F8 FF  FF 7F 0D 80 0C 80 00          l......... 
```

#### Opcodes

```
  0: 0x00A5 [0x6C] FADE_ENTITY_COLOR(entity_id=EventEntity, end_alpha=128*, fade_time=1*)
  1: 0x00AE [0x00] END_REQSTACK()
```

### Event 65535.5

#### Metadata

| Field        | Value   |
|--------------|---------|
| Entrypoint   | 0x00AF  |
| Data Size    | 9 bytes |
| Instructions | 3       |

```
      00 01 02 03 04 05 06 07  08 09 0A 0B 0C 0D 0E 0F
      -- -- -- -- -- -- -- --  -- -- -- -- -- -- -- --
00A0:                                               22                 "
00B0: 00 2F 00 F8 FF FF 7F 00                           ./......        
```

#### Opcodes

```
  0: 0x00AF [0x22] ENTITY_HIDE_FLAG(enabled=0x00)
  1: 0x00B1 [0x2F] EventEntity->Render.Flags0 &= ~0x80000 // Bit 19
  2: 0x00B7 [0x00] END_REQSTACK()
```

### Event 65535.6

#### Metadata

| Field        | Value   |
|--------------|---------|
| Entrypoint   | 0x00B8  |
| Data Size    | 9 bytes |
| Instructions | 3       |

```
      00 01 02 03 04 05 06 07  08 09 0A 0B 0C 0D 0E 0F
      -- -- -- -- -- -- -- --  -- -- -- -- -- -- -- --
00B0:                          22 01 2F 01 F8 FF FF 7F          "./.....
00C0: 00                                                .               
```

#### Opcodes

```
  0: 0x00B8 [0x22] ENTITY_HIDE_FLAG(enabled=0x01)
  1: 0x00BA [0x2F] EventEntity->Render.Flags0 |= 0x80000 // Bit 19
  2: 0x00C0 [0x00] END_REQSTACK()
```

### Event 65535.7

#### Metadata

| Field        | Value    |
|--------------|----------|
| Entrypoint   | 0x00C1   |
| Data Size    | 10 bytes |
| Instructions | 2        |

```
      00 01 02 03 04 05 06 07  08 09 0A 0B 0C 0D 0E 0F
      -- -- -- -- -- -- -- --  -- -- -- -- -- -- -- --
00C0:    6C F8 FF FF 7F 0B 80  0C 80 00                  l.........     
```

#### Opcodes

```
  0: 0x00C1 [0x6C] FADE_ENTITY_COLOR(entity_id=EventEntity, end_alpha=0*, fade_time=1*)
  1: 0x00CA [0x00] END_REQSTACK()
```

### Event 65535.8

#### Metadata

| Field        | Value    |
|--------------|----------|
| Entrypoint   | 0x00CB   |
| Data Size    | 10 bytes |
| Instructions | 2        |

```
      00 01 02 03 04 05 06 07  08 09 0A 0B 0C 0D 0E 0F
      -- -- -- -- -- -- -- --  -- -- -- -- -- -- -- --
00C0:                                   6C F8 FF FF 7F             l....
00D0: 0D 80 0C 80 00                                    .....           
```

#### Opcodes

```
  0: 0x00CB [0x6C] FADE_ENTITY_COLOR(entity_id=EventEntity, end_alpha=128*, fade_time=1*)
  1: 0x00D4 [0x00] END_REQSTACK()
```

### Event 231

#### Metadata

| Field        | Value   |
|--------------|---------|
| Entrypoint   | 0x00D5  |
| Data Size    | 1 bytes |
| Instructions | 1       |

```
      00 01 02 03 04 05 06 07  08 09 0A 0B 0C 0D 0E 0F
      -- -- -- -- -- -- -- --  -- -- -- -- -- -- -- --
00D0:                00                                      .          
```

#### Opcodes

```
  0: 0x00D5 [0x00] END_REQSTACK()
```

### Event 232

#### Metadata

| Field        | Value   |
|--------------|---------|
| Entrypoint   | 0x00D6  |
| Data Size    | 1 bytes |
| Instructions | 1       |

```
      00 01 02 03 04 05 06 07  08 09 0A 0B 0C 0D 0E 0F
      -- -- -- -- -- -- -- --  -- -- -- -- -- -- -- --
00D0:                   00                                    .         
```

#### Opcodes

```
  0: 0x00D6 [0x00] END_REQSTACK()
```

### Event 65535.9

#### Metadata

| Field        | Value    |
|--------------|----------|
| Entrypoint   | 0x00D7   |
| Data Size    | 29 bytes |
| Instructions | 7        |

```
      00 01 02 03 04 05 06 07  08 09 0A 0B 0C 0D 0E 0F
      -- -- -- -- -- -- -- --  -- -- -- -- -- -- -- --
00D0:                      37  0E 80 0F 80 10 80 11 80         7........
00E0: 32 12 80 1F 00 13 80 14  80 15 80 1F 01 6F 1E 06  2............o..
00F0: E2 05 01 00                                       ....            
```

#### Opcodes

```
  0: 0x00D7 [0x37] UPDATE_EVENT_POSITION_AND_DIR: x=107.758*, z=42.068*, y=-2.239*, direction=330.8°*
  1: 0x00E0 [0x32] ExtData[1]->MainSpeed = 40* * 0.1
  2: 0x00E3 [0x1F] MOVE_ENTITY: EventEntity moves to X=125.139*, Z=51.297*, Y=-1.897*
  3: 0x00EB [0x1F] MOVE_ENTITY: Update entity position (mode=1)
  4: 0x00ED [0x6F] WAIT_FRAME_DELAY: Yield until WaitTime reaches zero
  5: 0x00EE [0x1E] EventEntity looks at Ajido-Marujido (ID: 17162758/0x0105E206) and starts talking
  6: 0x00F3 [0x00] END_REQSTACK()
```

### Event 65535.10

#### Metadata

| Field        | Value    |
|--------------|----------|
| Entrypoint   | 0x00F4   |
| Data Size    | 20 bytes |
| Instructions | 6        |

```
      00 01 02 03 04 05 06 07  08 09 0A 0B 0C 0D 0E 0F
      -- -- -- -- -- -- -- --  -- -- -- -- -- -- -- --
00F0:             32 12 80 1F  00 16 80 17 80 18 80 1F      2...........
0100: 01 6F 1E 09 E2 05 01 00                           .o......        
```

#### Opcodes

```
  0: 0x00F4 [0x32] ExtData[1]->MainSpeed = 40* * 0.1
  1: 0x00F7 [0x1F] MOVE_ENTITY: EventEntity moves to X=-41.282*, Z=224.984*, Y=-4.921*
  2: 0x00FF [0x1F] MOVE_ENTITY: Update entity position (mode=1)
  3: 0x0101 [0x6F] WAIT_FRAME_DELAY: Yield until WaitTime reaches zero
  4: 0x0102 [0x1E] EventEntity looks at Koru-Moru (ID: 17162761/0x0105E209) and starts talking
  5: 0x0107 [0x00] END_REQSTACK()
```

### Event 158

#### Metadata

| Field        | Value   |
|--------------|---------|
| Entrypoint   | 0x0108  |
| Data Size    | 1 bytes |
| Instructions | 1       |

```
      00 01 02 03 04 05 06 07  08 09 0A 0B 0C 0D 0E 0F
      -- -- -- -- -- -- -- --  -- -- -- -- -- -- -- --
0100:                          00                               .       
```

#### Opcodes

```
  0: 0x0108 [0x00] END_REQSTACK()
```

### Event 159

#### Metadata

| Field        | Value   |
|--------------|---------|
| Entrypoint   | 0x0109  |
| Data Size    | 1 bytes |
| Instructions | 1       |

```
      00 01 02 03 04 05 06 07  08 09 0A 0B 0C 0D 0E 0F
      -- -- -- -- -- -- -- --  -- -- -- -- -- -- -- --
0100:                             00                             .      
```

#### Opcodes

```
  0: 0x0109 [0x00] END_REQSTACK()
```

### Event 160

#### Metadata

| Field        | Value    |
|--------------|----------|
| Entrypoint   | 0x010A   |
| Data Size    | 26 bytes |
| Instructions | 8        |

```
      00 01 02 03 04 05 06 07  08 09 0A 0B 0C 0D 0E 0F
      -- -- -- -- -- -- -- --  -- -- -- -- -- -- -- --
0100:                                1E F0 FF FF 7F 1C            ......
0110: 00 80 2B FF E1 05 01 19  80 23 2B FF E1 05 01 1A  ..+......#+.....
0120: 80 23 21 00                                       .#!.            
```

#### Opcodes

```
  0: 0x010A [0x1E] EventEntity looks at LocalPlayer and starts talking
  1: 0x010F [0x1C] WAIT(30* ticks)
  2: 0x0112 [0x2B] Dhea Prandoleh (ID: 17162751/0x0105E1FF) [11070*]:
    → "Master Lehko's wherrreabouts, you ask? My feline instincts tell me he's somewhere in West Sarutabaruta."
  3: 0x0119 [0x23] WAIT_FOR_DIALOG_INTERACTION
  4: 0x011A [0x2B] Dhea Prandoleh (ID: 17162751/0x0105E1FF) [11071*]:
    → "If you don't find him soon, I'm afrrraid the Mithra will end up finishing what the beastmen started..."
  5: 0x0121 [0x23] WAIT_FOR_DIALOG_INTERACTION
  6: 0x0122 [0x21] END_EVENT
  7: 0x0123 [0x00] END_REQSTACK()
```

### Event 164

#### Metadata

| Field        | Value    |
|--------------|----------|
| Entrypoint   | 0x0124   |
| Data Size    | 31 bytes |
| Instructions | 9        |

```
      00 01 02 03 04 05 06 07  08 09 0A 0B 0C 0D 0E 0F
      -- -- -- -- -- -- -- --  -- -- -- -- -- -- -- --
0120:             1E F0 FF FF  7F 1C 00 80 03 02 10 1B      ............
0130: 80 2B FF E1 05 01 1C 80  23 2B FF E1 05 01 1D 80  .+......#+......
0140: 23 21 00                                          #!.             
```

#### Opcodes

```
  0: 0x0124 [0x1E] EventEntity looks at LocalPlayer and starts talking
  1: 0x0129 [0x1C] WAIT(30* ticks)
  2: 0x012C [0x03] Work_Zone[2] = 4289*
  3: 0x0131 [0x2B] Dhea Prandoleh (ID: 17162751/0x0105E1FF) [11087*]:
    → "# is about the most popularrr thing there is in Mithran cuisine. Chances are it'll be to Master Lehko's liking."
  4: 0x0138 [0x23] WAIT_FOR_DIALOG_INTERACTION
  5: 0x0139 [0x2B] Dhea Prandoleh (ID: 17162751/0x0105E1FF) [11088*]:
    → "The mercenaries here at Huntsman's Court ought to have some good food ideas to share, so go do some rrresearch!"
  6: 0x0140 [0x23] WAIT_FOR_DIALOG_INTERACTION
  7: 0x0141 [0x21] END_EVENT
  8: 0x0142 [0x00] END_REQSTACK()
```

### Event 168

#### Metadata

| Field        | Value   |
|--------------|---------|
| Entrypoint   | 0x0143  |
| Data Size    | 1 bytes |
| Instructions | 1       |

```
      00 01 02 03 04 05 06 07  08 09 0A 0B 0C 0D 0E 0F
      -- -- -- -- -- -- -- --  -- -- -- -- -- -- -- --
0140:          00                                          .            
```

#### Opcodes

```
  0: 0x0143 [0x00] END_REQSTACK()
```

### Event 236

#### Metadata

| Field        | Value   |
|--------------|---------|
| Entrypoint   | 0x0144  |
| Data Size    | 1 bytes |
| Instructions | 1       |

```
      00 01 02 03 04 05 06 07  08 09 0A 0B 0C 0D 0E 0F
      -- -- -- -- -- -- -- --  -- -- -- -- -- -- -- --
0140:             00                                        .           
```

#### Opcodes

```
  0: 0x0144 [0x00] END_REQSTACK()
```

### Event 166

#### Metadata

| Field        | Value    |
|--------------|----------|
| Entrypoint   | 0x0145   |
| Data Size    | 26 bytes |
| Instructions | 8        |

```
      00 01 02 03 04 05 06 07  08 09 0A 0B 0C 0D 0E 0F
      -- -- -- -- -- -- -- --  -- -- -- -- -- -- -- --
0140:                1E F0 FF  FF 7F 1C 00 80 2B FF E1       ........+..
0150: 05 01 1E 80 23 2B FF E1  05 01 1F 80 23 21 00     ....#+......#!. 
```

#### Opcodes

```
  0: 0x0145 [0x1E] EventEntity looks at LocalPlayer and starts talking
  1: 0x014A [0x1C] WAIT(30* ticks)
  2: 0x014D [0x2B] Dhea Prandoleh (ID: 17162751/0x0105E1FF) [13137*]:
    → "Hey, what are you still hanging around here for? The rrrest of the Cobras have already departed for Sauromugue Champaign!"
  3: 0x0154 [0x23] WAIT_FOR_DIALOG_INTERACTION
  4: 0x0155 [0x2B] Dhea Prandoleh (ID: 17162751/0x0105E1FF) [13138*]:
    → "You better do some serrrious catching up, or the boss'll give you what for!"
  5: 0x015C [0x23] WAIT_FOR_DIALOG_INTERACTION
  6: 0x015D [0x21] END_EVENT
  7: 0x015E [0x00] END_REQSTACK()
```

### Event 167

#### Metadata

| Field        | Value    |
|--------------|----------|
| Entrypoint   | 0x015F   |
| Data Size    | 10 bytes |
| Instructions | 4        |

```
      00 01 02 03 04 05 06 07  08 09 0A 0B 0C 0D 0E 0F
      -- -- -- -- -- -- -- --  -- -- -- -- -- -- -- --
0150:                                               1E                 .
0160: F0 FF FF 7F 1C 00 80 21  00                       .......!.       
```

#### Opcodes

```
  0: 0x015F [0x1E] EventEntity looks at LocalPlayer and starts talking
  1: 0x0164 [0x1C] WAIT(30* ticks)
  2: 0x0167 [0x21] END_EVENT
  3: 0x0168 [0x00] END_REQSTACK()
```

### Event 65535.11

#### Metadata

| Field        | Value    |
|--------------|----------|
| Entrypoint   | 0x0169   |
| Data Size    | 15 bytes |
| Instructions | 5        |

```
      00 01 02 03 04 05 06 07  08 09 0A 0B 0C 0D 0E 0F
      -- -- -- -- -- -- -- --  -- -- -- -- -- -- -- --
0160:                             32 12 80 1F 00 20 80           2.... .
0170: 21 80 22 80 1F 01 6F 00                           !."...o.        
```

#### Opcodes

```
  0: 0x0169 [0x32] ExtData[1]->MainSpeed = 40* * 0.1
  1: 0x016C [0x1F] MOVE_ENTITY: EventEntity moves to X=-2.542*, Z=25.837*, Y=-0.999*
  2: 0x0174 [0x1F] MOVE_ENTITY: Update entity position (mode=1)
  3: 0x0176 [0x6F] WAIT_FRAME_DELAY: Yield until WaitTime reaches zero
  4: 0x0177 [0x00] END_REQSTACK()
```

### Event 65535.12

#### Metadata

| Field        | Value    |
|--------------|----------|
| Entrypoint   | 0x0178   |
| Data Size    | 13 bytes |
| Instructions | 3        |

```
      00 01 02 03 04 05 06 07  08 09 0A 0B 0C 0D 0E 0F
      -- -- -- -- -- -- -- --  -- -- -- -- -- -- -- --
0170:                          6E F8 FF FF 7F 23 80 99          n....#..
0180: F8 FF FF 7F 00                                    .....           
```

#### Opcodes

```
  0: 0x0178 [0x6E] EventEntity uses emote 12*
  1: 0x017F [0x99] Wait for EventEntity animation to complete
  2: 0x0184 [0x00] END_REQSTACK()
```

### Event 26

#### Metadata

| Field        | Value    |
|--------------|----------|
| Entrypoint   | 0x0185   |
| Data Size    | 18 bytes |
| Instructions | 6        |

```
      00 01 02 03 04 05 06 07  08 09 0A 0B 0C 0D 0E 0F
      -- -- -- -- -- -- -- --  -- -- -- -- -- -- -- --
0180:                1E F0 FF  FF 7F 1C 00 80 2B FF E1       ........+..
0190: 05 01 24 80 23 21 00                              ..$.#!.         
```

#### Opcodes

```
  0: 0x0185 [0x1E] EventEntity looks at LocalPlayer and starts talking
  1: 0x018A [0x1C] WAIT(30* ticks)
  2: 0x018D [0x2B] Dhea Prandoleh (ID: 17162751/0x0105E1FF) [13578*]:
    → "<Player>! You'rrre still standing around here? Master Lehko's waiting for you in Heavens Tower with a special assignment. Now hurry along!"
  3: 0x0194 [0x23] WAIT_FOR_DIALOG_INTERACTION
  4: 0x0195 [0x21] END_EVENT
  5: 0x0196 [0x00] END_REQSTACK()
```

### Event 34

#### Metadata

| Field        | Value    |
|--------------|----------|
| Entrypoint   | 0x0197   |
| Data Size    | 26 bytes |
| Instructions | 8        |

```
      00 01 02 03 04 05 06 07  08 09 0A 0B 0C 0D 0E 0F
      -- -- -- -- -- -- -- --  -- -- -- -- -- -- -- --
0190:                      1E  F0 FF FF 7F 1C 00 80 2B         ........+
01A0: FF E1 05 01 25 80 23 2B  FF E1 05 01 26 80 23 21  ....%.#+....&.#!
01B0: 00                                                .               
```

#### Opcodes

```
  0: 0x0197 [0x1E] EventEntity looks at LocalPlayer and starts talking
  1: 0x019C [0x1C] WAIT(30* ticks)
  2: 0x019F [0x2B] Dhea Prandoleh (ID: 17162751/0x0105E1FF) [13887*]:
    → "This is it, <Player>--the day that mercenaries like us live for. The crows have run rrroughshod over this poor nation for too long. It's time we returned the favor!"
  3: 0x01A6 [0x23] WAIT_FOR_DIALOG_INTERACTION
  4: 0x01A7 [0x2B] Dhea Prandoleh (ID: 17162751/0x0105E1FF) [13888*]:
    → "You gonna stand around here all day? Get your things together and make for the Meriphataud encampment! Lehko and Romaa will have furrrther orders for you there."
  5: 0x01AE [0x23] WAIT_FOR_DIALOG_INTERACTION
  6: 0x01AF [0x21] END_EVENT
  7: 0x01B0 [0x00] END_REQSTACK()
```

### Event 35

#### Metadata

| Field        | Value    |
|--------------|----------|
| Entrypoint   | 0x01B1   |
| Data Size    | 34 bytes |
| Instructions | 10       |

```
      00 01 02 03 04 05 06 07  08 09 0A 0B 0C 0D 0E 0F
      -- -- -- -- -- -- -- --  -- -- -- -- -- -- -- --
01B0:    1E F0 FF FF 7F 1C 00  80 2B FF E1 05 01 27 80   ........+....'.
01C0: 23 2B FF E1 05 01 28 80  23 2B FF E1 05 01 29 80  #+....(.#+....).
01D0: 23 21 00                                          #!.             
```

#### Opcodes

```
  0: 0x01B1 [0x1E] EventEntity looks at LocalPlayer and starts talking
  1: 0x01B6 [0x1C] WAIT(30* ticks)
  2: 0x01B9 [0x2B] Dhea Prandoleh (ID: 17162751/0x0105E1FF) [13902*]:
    → "Master Lehko's f-fine. Yes, I'm s-surrre of it... He..."
  3: 0x01C0 [0x23] WAIT_FOR_DIALOG_INTERACTION
  4: 0x01C1 [0x2B] Dhea Prandoleh (ID: 17162751/0x0105E1FF) [13903*]:
    → "Oh, it's no use, <Player>. I can't stop worrrying about him... Perhaps you could head to Sarutabaruta to take a look?"
  5: 0x01C8 [0x23] WAIT_FOR_DIALOG_INTERACTION
  6: 0x01C9 [0x2B] Dhea Prandoleh (ID: 17162751/0x0105E1FF) [13904*]:
    → "Then again, maybe he doesn't want to be found? Oh, whatever shall we do...?"
  7: 0x01D0 [0x23] WAIT_FOR_DIALOG_INTERACTION
  8: 0x01D1 [0x21] END_EVENT
  9: 0x01D2 [0x00] END_REQSTACK()
```

### Event 36

#### Metadata

| Field        | Value    |
|--------------|----------|
| Entrypoint   | 0x01D3   |
| Data Size    | 26 bytes |
| Instructions | 8        |

```
      00 01 02 03 04 05 06 07  08 09 0A 0B 0C 0D 0E 0F
      -- -- -- -- -- -- -- --  -- -- -- -- -- -- -- --
01D0:          1E F0 FF FF 7F  1C 00 80 2B FF E1 05 01     ........+....
01E0: 2A 80 23 2B FF E1 05 01  2B 80 23 21 00           *.#+....+.#!.   
```

#### Opcodes

```
  0: 0x01D3 [0x1E] EventEntity looks at LocalPlayer and starts talking
  1: 0x01D8 [0x1C] WAIT(30* ticks)
  2: 0x01DB [0x2B] Dhea Prandoleh (ID: 17162751/0x0105E1FF) [13948*]:
    → "If it isn't our star mercenary, <Player>! Why, just by seeing you around I know that the Federation is in good hands."
  3: 0x01E2 [0x23] WAIT_FOR_DIALOG_INTERACTION
  4: 0x01E3 [0x2B] Dhea Prandoleh (ID: 17162751/0x0105E1FF) [13949*]:
    → "'Course, the rest of us won't be letting up our guarrrd, either. Any Yagudo stragglers within a malm of the capital are gonna be in for a worrrld o' hurt!"
  5: 0x01EA [0x23] WAIT_FOR_DIALOG_INTERACTION
  6: 0x01EB [0x21] END_EVENT
  7: 0x01EC [0x00] END_REQSTACK()
```

### Event 37

#### Metadata

| Field        | Value   |
|--------------|---------|
| Entrypoint   | 0x01ED  |
| Data Size    | 1 bytes |
| Instructions | 1       |

```
      00 01 02 03 04 05 06 07  08 09 0A 0B 0C 0D 0E 0F
      -- -- -- -- -- -- -- --  -- -- -- -- -- -- -- --
01E0:                                         00                     .  
```

#### Opcodes

```
  0: 0x01ED [0x00] END_REQSTACK()
```

### Event 20

#### Metadata

| Field        | Value   |
|--------------|---------|
| Entrypoint   | 0x01EE  |
| Data Size    | 1 bytes |
| Instructions | 1       |

```
      00 01 02 03 04 05 06 07  08 09 0A 0B 0C 0D 0E 0F
      -- -- -- -- -- -- -- --  -- -- -- -- -- -- -- --
01E0:                                            00                   . 
```

#### Opcodes

```
  0: 0x01EE [0x00] END_REQSTACK()
```

### Event 31

#### Metadata

| Field        | Value   |
|--------------|---------|
| Entrypoint   | 0x01EF  |
| Data Size    | 1 bytes |
| Instructions | 1       |

```
      00 01 02 03 04 05 06 07  08 09 0A 0B 0C 0D 0E 0F
      -- -- -- -- -- -- -- --  -- -- -- -- -- -- -- --
01E0:                                               00                 .
```

#### Opcodes

```
  0: 0x01EF [0x00] END_REQSTACK()
```

### Event 32

#### Metadata

| Field        | Value   |
|--------------|---------|
| Entrypoint   | 0x01F0  |
| Data Size    | 1 bytes |
| Instructions | 1       |

```
      00 01 02 03 04 05 06 07  08 09 0A 0B 0C 0D 0E 0F
      -- -- -- -- -- -- -- --  -- -- -- -- -- -- -- --
01F0: 00                                                .               
```

#### Opcodes

```
  0: 0x01F0 [0x00] END_REQSTACK()
```

### Event 42

#### Metadata

| Field        | Value   |
|--------------|---------|
| Entrypoint   | 0x01F1  |
| Data Size    | 1 bytes |
| Instructions | 1       |

```
      00 01 02 03 04 05 06 07  08 09 0A 0B 0C 0D 0E 0F
      -- -- -- -- -- -- -- --  -- -- -- -- -- -- -- --
01F0:    00                                              .              
```

#### Opcodes

```
  0: 0x01F1 [0x00] END_REQSTACK()
```

### Event 43

#### Metadata

| Field        | Value   |
|--------------|---------|
| Entrypoint   | 0x01F2  |
| Data Size    | 1 bytes |
| Instructions | 1       |

```
      00 01 02 03 04 05 06 07  08 09 0A 0B 0C 0D 0E 0F
      -- -- -- -- -- -- -- --  -- -- -- -- -- -- -- --
01F0:       00                                            .             
```

#### Opcodes

```
  0: 0x01F2 [0x00] END_REQSTACK()
```

### Event 65535.13

#### Metadata

| Field        | Value    |
|--------------|----------|
| Entrypoint   | 0x01F3   |
| Data Size    | 33 bytes |
| Instructions | 7        |

```
      00 01 02 03 04 05 06 07  08 09 0A 0B 0C 0D 0E 0F
      -- -- -- -- -- -- -- --  -- -- -- -- -- -- -- --
01F0:          1C 2C 80 03 08  10 2D 80 14 08 10 2E 80     .,....-......
0200: 3A FF E1 05 01 07 10 07  07 10 08 10 4B FF E1 05  :...........K...
0210: 01 07 10 1B                                       ....            
```

#### Opcodes

```
  0: 0x01F3 [0x1C] WAIT(120* ticks)
  1: 0x01F6 [0x03] Work_Zone[8] = 45*
  2: 0x01FB [0x14] Work_Zone[8] *= 11*
  3: 0x0200 [0x3A] CONVERT_YAW_TO_BYTE(entity=Dhea Prandoleh (ID: 17162751/0x0105E1FF), result_destination=Work_Zone[7])
  4: 0x0207 [0x07] Work_Zone[7] += Work_Zone[8]
  5: 0x020C [0x4B] UPDATE_ENTITY_YAW(entity=Dhea Prandoleh (ID: 17162751/0x0105E1FF), yaw=Work_Zone[7])
  6: 0x0213 [0x1B] RETURN
```

### Event 65535.14

#### Metadata

| Field        | Value    |
|--------------|----------|
| Entrypoint   | 0x0214   |
| Data Size    | 19 bytes |
| Instructions | 3        |

```
      00 01 02 03 04 05 06 07  08 09 0A 0B 0C 0D 0E 0F
      -- -- -- -- -- -- -- --  -- -- -- -- -- -- -- --
0210:             1C 2F 80 66  30 80 FF E1 05 01 FF E1      ./.f0.......
0220: 05 01 61 6E 67 30 00                              ..ang0.         
```

#### Opcodes

```
  0: 0x0214 [0x1C] WAIT(60* ticks)
  1: 0x0217 [0x66] LOAD_EXT_SCHEDULER_MAIN: Load scheduler "ang0" with entities [Dhea Prandoleh (ID: 17162751/0x0105E1FF), Dhea Prandoleh (ID: 17162751/0x0105E1FF)], work=54*
  2: 0x0226 [0x00] END_REQSTACK()
```

### Event 65535.15

#### Metadata

| Field        | Value    |
|--------------|----------|
| Entrypoint   | 0x0227   |
| Data Size    | 53 bytes |
| Instructions | 7        |

```
      00 01 02 03 04 05 06 07  08 09 0A 0B 0C 0D 0E 0F
      -- -- -- -- -- -- -- --  -- -- -- -- -- -- -- --
0220:                      9F  31 80 F8 FF FF 7F F8 FF         .1.......
0230: FF 7F 66 72 73 74 0B 80  1C 32 80 9F 31 80 F8 FF  ..frst...2..1...
0240: FF 7F F8 FF FF 7F 6F 6B  65 78 0B 80 1C 33 80 4A  ......okex...3.J
0250: F8 FF FF 7F 53 E2 05 01  1C 2F 80 00              ....S..../..    
```

#### Opcodes

```
  0: 0x0227 [0x9F] LOAD_SCHEDULED_TASK_ALT: Load scheduler "frst" with entities [EventEntity, EventEntity], work=[188*, 0*]
  1: 0x0238 [0x1C] WAIT(300* ticks)
  2: 0x023B [0x9F] LOAD_SCHEDULED_TASK_ALT: Load scheduler "okex" with entities [EventEntity, EventEntity], work=[188*, 0*]
  3: 0x024C [0x1C] WAIT(240* ticks)
  4: 0x024F [0x4A] EventEntity looks at Emhi Tchaoryo (ID: 17162835/0x0105E253)
  5: 0x0258 [0x1C] WAIT(60* ticks)
  6: 0x025B [0x00] END_REQSTACK()
```

### Event 530

#### Metadata

| Field        | Value   |
|--------------|---------|
| Entrypoint   | 0x025C  |
| Data Size    | 1 bytes |
| Instructions | 1       |

```
      00 01 02 03 04 05 06 07  08 09 0A 0B 0C 0D 0E 0F
      -- -- -- -- -- -- -- --  -- -- -- -- -- -- -- --
0250:                                      00                       .   
```

#### Opcodes

```
  0: 0x025C [0x00] END_REQSTACK()
```
