# 17162955 - 02

## Common Data

| Field            | Value                        |
|------------------|------------------------------|
| Zone             | Windurst Waters [S] (ID: 94) |
| Block Size       | 324 bytes                    |
| Total Events     | 5                            |
| References Count | 33                           |

## List of Events

| Event ID                 | Entrypoint   |   Size |   Instructions |
|--------------------------|--------------|--------|----------------|
| [31](#event-31)          | 0x0000       |      1 |              1 |
| [32](#event-32)          | 0x0001       |      5 |              2 |
| [65535](#event-65535)    | 0x0006       |    143 |             31 |
| [65535.1](#event-655351) | 0x0095       |      5 |              2 |

## DAT References (imed_data)

|   Index | Hex Value   |   Dec Value |
|---------|-------------|-------------|
|       0 | 0x00AB      |         171 |
|       1 | 0x0015      |          21 |
|       2 | 0x0001      |           1 |
|       3 | 0xFFFEE375  |  4294894453 |
|       4 | 0xC930      |       51504 |
|       5 | 0xFFFFF255  |  4294963797 |
|       6 | 0xFFFF1FDB  |  4294909915 |
|       7 | 0xADE4      |       44516 |
|       8 | 0xFFFF409F  |  4294918303 |
|       9 | 0xBEE2      |       48866 |
|      10 | 0xFFFF47A0  |  4294920096 |
|      11 | 0xD213      |       53779 |
|      12 | 0xFFFF7DC4  |  4294933956 |
|      13 | 0xF174      |       61812 |
|      14 | 0xFFFFBC89  |  4294950025 |
|      15 | 0x155F1     |       87537 |
|      16 | 0xFFFFEC78  |  4294962296 |
|      17 | 0xFFFFD545  |  4294956357 |
|      18 | 0x152DF     |       86751 |
|      19 | 0xFFFFD92E  |  4294957358 |
|      20 | 0x1597C     |       88444 |
|      21 | 0xFFFF8206  |  4294935046 |
|      22 | 0x15152     |       86354 |
|      23 | 0xFFFFED28  |  4294962472 |
|      24 | 0xFFFF2AC8  |  4294912712 |
|      25 | 0x13749     |       79689 |
|      26 | 0xFFFEE7E4  |  4294895588 |
|      27 | 0x12ADE     |       76510 |
|      28 | 0xFFFFF164  |  4294963556 |
|      29 | 0xFFFEE2E5  |  4294894309 |
|      30 | 0x122F0     |       74480 |
|      31 | 0xFFFFF254  |  4294963796 |
|      32 | 0x0034      |          52 |

## Events

### Event 31

#### Metadata

| Field        | Value   |
|--------------|---------|
| Entrypoint   | 0x0000  |
| Data Size    | 1 bytes |
| Instructions | 1       |

```
      00 01 02 03 04 05 06 07  08 09 0A 0B 0C 0D 0E 0F
      -- -- -- -- -- -- -- --  -- -- -- -- -- -- -- --
0000: 00                                                .               
```

#### Opcodes

```
  0: 0x0000 [0x00] END_REQSTACK()
```

### Event 32

#### Metadata

| Field        | Value   |
|--------------|---------|
| Entrypoint   | 0x0001  |
| Data Size    | 5 bytes |
| Instructions | 2       |

```
      00 01 02 03 04 05 06 07  08 09 0A 0B 0C 0D 0E 0F
      -- -- -- -- -- -- -- --  -- -- -- -- -- -- -- --
0000:    B6 00 00 80 00                                  .....          
```

#### Opcodes

```
  0: 0x0001 [0xB6] ENTITY_APPEARANCE_HANDLER(case=Hair style, value=171*)
  1: 0x0005 [0x00] END_REQSTACK()
```

### Event 65535

#### Metadata

| Field        | Value     |
|--------------|-----------|
| Entrypoint   | 0x0006    |
| Data Size    | 143 bytes |
| Instructions | 31        |

```
      00 01 02 03 04 05 06 07  08 09 0A 0B 0C 0D 0E 0F
      -- -- -- -- -- -- -- --  -- -- -- -- -- -- -- --
0000:                   59 04  F8 FF FF 7F 01 80 02 02        Y.........
0010: 80 02 80 00 94 00 1F 00  03 80 04 80 05 80 1F 01  ................
0020: 1F 00 06 80 07 80 05 80  1F 01 6F 1F 00 08 80 09  ..........o.....
0030: 80 05 80 1F 01 1F 00 0A  80 0B 80 05 80 1F 01 1F  ................
0040: 00 0C 80 0D 80 05 80 1F  01 1F 00 0E 80 0F 80 10  ................
0050: 80 1F 01 1F 00 11 80 12  80 10 80 1F 01 6F 1F 00  .............o..
0060: 13 80 14 80 10 80 1F 01  6F 1F 00 15 80 16 80 17  ........o.......
0070: 80 1F 01 1F 00 18 80 19  80 10 80 1F 01 1F 00 1A  ................
0080: 80 1B 80 1C 80 1F 01 1F  00 1D 80 1E 80 1F 80 1F  ................
0090: 01 01 0E 00 00                                    .....           
```

#### Opcodes

```
  0: 0x0006 [0x59] UPDATE_ENTITY_DATA: Set EventEntity main speed = 21* * 0.1
  1: 0x000E [0x02] IF !(1* == 1*) GOTO 0x0094
  2: 0x0016 [0x1F] MOVE_ENTITY: EventEntity moves to X=-72.843*, Z=51.504*, Y=-3.499*
  3: 0x001E [0x1F] MOVE_ENTITY: Update entity position (mode=1)
  4: 0x0020 [0x1F] MOVE_ENTITY: EventEntity moves to X=-57.381*, Z=44.516*, Y=-3.499*
  5: 0x0028 [0x1F] MOVE_ENTITY: Update entity position (mode=1)
  6: 0x002A [0x6F] WAIT_FRAME_DELAY: Yield until WaitTime reaches zero
  7: 0x002B [0x1F] MOVE_ENTITY: EventEntity moves to X=-48.993*, Z=48.866*, Y=-3.499*
  8: 0x0033 [0x1F] MOVE_ENTITY: Update entity position (mode=1)
  9: 0x0035 [0x1F] MOVE_ENTITY: EventEntity moves to X=-47.200*, Z=53.779*, Y=-3.499*
 10: 0x003D [0x1F] MOVE_ENTITY: Update entity position (mode=1)
 11: 0x003F [0x1F] MOVE_ENTITY: EventEntity moves to X=-33.340*, Z=61.812*, Y=-3.499*
 12: 0x0047 [0x1F] MOVE_ENTITY: Update entity position (mode=1)
 13: 0x0049 [0x1F] MOVE_ENTITY: EventEntity moves to X=-17.271*, Z=87.537*, Y=-5.000*
 14: 0x0051 [0x1F] MOVE_ENTITY: Update entity position (mode=1)
 15: 0x0053 [0x1F] MOVE_ENTITY: EventEntity moves to X=-10.939*, Z=86.751*, Y=-5.000*
 16: 0x005B [0x1F] MOVE_ENTITY: Update entity position (mode=1)
 17: 0x005D [0x6F] WAIT_FRAME_DELAY: Yield until WaitTime reaches zero
 18: 0x005E [0x1F] MOVE_ENTITY: EventEntity moves to X=-9.938*, Z=88.444*, Y=-5.000*
 19: 0x0066 [0x1F] MOVE_ENTITY: Update entity position (mode=1)
 20: 0x0068 [0x6F] WAIT_FRAME_DELAY: Yield until WaitTime reaches zero
 21: 0x0069 [0x1F] MOVE_ENTITY: EventEntity moves to X=-32.250*, Z=86.354*, Y=-4.824*
 22: 0x0071 [0x1F] MOVE_ENTITY: Update entity position (mode=1)
 23: 0x0073 [0x1F] MOVE_ENTITY: EventEntity moves to X=-54.584*, Z=79.689*, Y=-5.000*
 24: 0x007B [0x1F] MOVE_ENTITY: Update entity position (mode=1)
 25: 0x007D [0x1F] MOVE_ENTITY: EventEntity moves to X=-71.708*, Z=76.510*, Y=-3.740*
 26: 0x0085 [0x1F] MOVE_ENTITY: Update entity position (mode=1)
 27: 0x0087 [0x1F] MOVE_ENTITY: EventEntity moves to X=-72.987*, Z=74.480*, Y=-3.500*
 28: 0x008F [0x1F] MOVE_ENTITY: Update entity position (mode=1)
 29: 0x0091 [0x01] GOTO 0x000E
 30: 0x0094 [0x00] END_REQSTACK()
```

### Event 65535.1

#### Metadata

| Field        | Value   |
|--------------|---------|
| Entrypoint   | 0x0095  |
| Data Size    | 5 bytes |
| Instructions | 2       |

```
      00 01 02 03 04 05 06 07  08 09 0A 0B 0C 0D 0E 0F
      -- -- -- -- -- -- -- --  -- -- -- -- -- -- -- --
0090:                B6 00 20  80 00                         .. ..      
```

#### Opcodes

```
  0: 0x0095 [0xB6] ENTITY_APPEARANCE_HANDLER(case=Hair style, value=52*)
  1: 0x0099 [0x00] END_REQSTACK()
```
