# 17162967 - 04

## Common Data

| Field            | Value                        |
|------------------|------------------------------|
| Zone             | Windurst Waters [S] (ID: 94) |
| Block Size       | 132 bytes                    |
| Total Events     | 3                            |
| References Count | 12                           |

## List of Events

| Event ID                 | Entrypoint   |   Size |   Instructions |
|--------------------------|--------------|--------|----------------|
| [65535](#event-65535)    | 0x0000       |      1 |              1 |
| [23](#event-23)          | 0x0001       |      1 |              1 |
| [65535.1](#event-655351) | 0x0002       |     54 |             14 |

## DAT References (imed_data)

|   Index | Hex Value   |   Dec Value |
|---------|-------------|-------------|
|       0 | 0x0023      |          35 |
|       1 | 0xFFFFE77A  |  4294961018 |
|       2 | 0x1E9C1     |      125377 |
|       3 | 0xFFFFC180  |  4294951296 |
|       4 | 0x003C      |          60 |
|       5 | 0x001E      |          30 |
|       6 | 0x0019      |          25 |
|       7 | 0xFFFFF9EA  |  4294965738 |
|       8 | 0x1F0F6     |      127222 |
|       9 | 0xFFFFBE93  |  4294950547 |
|      10 | 0x01AF      |         431 |
|      11 | 0x23E62     |      147042 |

## Events

### Event 65535

#### Metadata

| Field        | Value   |
|--------------|---------|
| Entrypoint   | 0x0000  |
| Data Size    | 1 bytes |
| Instructions | 1       |

```
      00 01 02 03 04 05 06 07  08 09 0A 0B 0C 0D 0E 0F
      -- -- -- -- -- -- -- --  -- -- -- -- -- -- -- --
0000: 00                                                .               
```

#### Opcodes

```
  0: 0x0000 [0x00] END_REQSTACK()
```

### Event 23

#### Metadata

| Field        | Value   |
|--------------|---------|
| Entrypoint   | 0x0001  |
| Data Size    | 1 bytes |
| Instructions | 1       |

```
      00 01 02 03 04 05 06 07  08 09 0A 0B 0C 0D 0E 0F
      -- -- -- -- -- -- -- --  -- -- -- -- -- -- -- --
0000:    00                                              .              
```

#### Opcodes

```
  0: 0x0001 [0x00] END_REQSTACK()
```

### Event 65535.1

#### Metadata

| Field        | Value    |
|--------------|----------|
| Entrypoint   | 0x0002   |
| Data Size    | 54 bytes |
| Instructions | 14       |

```
      00 01 02 03 04 05 06 07  08 09 0A 0B 0C 0D 0E 0F
      -- -- -- -- -- -- -- --  -- -- -- -- -- -- -- --
0000:       32 00 80 1F 00 01  80 02 80 03 80 1F 01 1E    2.............
0010: E2 E2 05 01 1C 04 80 1E  E2 E2 05 01 1C 05 80 32  ...............2
0020: 06 80 1F 00 07 80 08 80  09 80 1F 01 6F 1F 00 0A  ............o...
0030: 80 0B 80 09 80 1F 01 00                           ........        
```

#### Opcodes

```
  0: 0x0002 [0x32] ExtData[1]->MainSpeed = 35* * 0.1
  1: 0x0005 [0x1F] MOVE_ENTITY: EventEntity moves to X=-6.278*, Z=125.377*, Y=-16.000*
  2: 0x000D [0x1F] MOVE_ENTITY: Update entity position (mode=1)
  3: 0x000F [0x1E] EventEntity looks at 15 (ID: 17162978/0x0105E2E2) and starts talking
  4: 0x0014 [0x1C] WAIT(60* ticks)
  5: 0x0017 [0x1E] EventEntity looks at 15 (ID: 17162978/0x0105E2E2) and starts talking
  6: 0x001C [0x1C] WAIT(30* ticks)
  7: 0x001F [0x32] ExtData[1]->MainSpeed = 25* * 0.1
  8: 0x0022 [0x1F] MOVE_ENTITY: EventEntity moves to X=-1.558*, Z=127.222*, Y=-16.749*
  9: 0x002A [0x1F] MOVE_ENTITY: Update entity position (mode=1)
 10: 0x002C [0x6F] WAIT_FRAME_DELAY: Yield until WaitTime reaches zero
 11: 0x002D [0x1F] MOVE_ENTITY: EventEntity moves to X=0.431*, Z=147.042*, Y=-16.749*
 12: 0x0035 [0x1F] MOVE_ENTITY: Update entity position (mode=1)
 13: 0x0037 [0x00] END_REQSTACK()
```
