# 17162968 - 05

## Common Data

| Field            | Value                        |
|------------------|------------------------------|
| Zone             | Windurst Waters [S] (ID: 94) |
| Block Size       | 100 bytes                    |
| Total Events     | 3                            |
| References Count | 9                            |

## List of Events

| Event ID                 | Entrypoint   |   Size |   Instructions |
|--------------------------|--------------|--------|----------------|
| [65535](#event-65535)    | 0x0000       |      1 |              1 |
| [23](#event-23)          | 0x0001       |      1 |              1 |
| [65535.1](#event-655351) | 0x0002       |     34 |              8 |

## DAT References (imed_data)

|   Index | Hex Value   |   Dec Value |
|---------|-------------|-------------|
|       0 | 0x0025      |          37 |
|       1 | 0x0F7A      |        3962 |
|       2 | 0x1E5AF     |      124335 |
|       3 | 0xFFFFC180  |  4294951296 |
|       4 | 0x065B      |        1627 |
|       5 | 0x1F752     |      128850 |
|       6 | 0xFFFFBE93  |  4294950547 |
|       7 | 0x040C      |        1036 |
|       8 | 0x23FAF     |      147375 |

## Events

### Event 65535

#### Metadata

| Field        | Value   |
|--------------|---------|
| Entrypoint   | 0x0000  |
| Data Size    | 1 bytes |
| Instructions | 1       |

```
      00 01 02 03 04 05 06 07  08 09 0A 0B 0C 0D 0E 0F
      -- -- -- -- -- -- -- --  -- -- -- -- -- -- -- --
0000: 00                                                .               
```

#### Opcodes

```
  0: 0x0000 [0x00] END_REQSTACK()
```

### Event 23

#### Metadata

| Field        | Value   |
|--------------|---------|
| Entrypoint   | 0x0001  |
| Data Size    | 1 bytes |
| Instructions | 1       |

```
      00 01 02 03 04 05 06 07  08 09 0A 0B 0C 0D 0E 0F
      -- -- -- -- -- -- -- --  -- -- -- -- -- -- -- --
0000:    00                                              .              
```

#### Opcodes

```
  0: 0x0001 [0x00] END_REQSTACK()
```

### Event 65535.1

#### Metadata

| Field        | Value    |
|--------------|----------|
| Entrypoint   | 0x0002   |
| Data Size    | 34 bytes |
| Instructions | 8        |

```
      00 01 02 03 04 05 06 07  08 09 0A 0B 0C 0D 0E 0F
      -- -- -- -- -- -- -- --  -- -- -- -- -- -- -- --
0000:       32 00 80 1F 00 01  80 02 80 03 80 1F 01 1F    2.............
0010: 00 04 80 05 80 06 80 1F  01 1F 00 07 80 08 80 06  ................
0020: 80 1F 01 00                                       ....            
```

#### Opcodes

```
  0: 0x0002 [0x32] ExtData[1]->MainSpeed = 37* * 0.1
  1: 0x0005 [0x1F] MOVE_ENTITY: EventEntity moves to X=3.962*, Z=124.335*, Y=-16.000*
  2: 0x000D [0x1F] MOVE_ENTITY: Update entity position (mode=1)
  3: 0x000F [0x1F] MOVE_ENTITY: EventEntity moves to X=1.627*, Z=128.850*, Y=-16.749*
  4: 0x0017 [0x1F] MOVE_ENTITY: Update entity position (mode=1)
  5: 0x0019 [0x1F] MOVE_ENTITY: EventEntity moves to X=1.036*, Z=147.375*, Y=-16.749*
  6: 0x0021 [0x1F] MOVE_ENTITY: Update entity position (mode=1)
  7: 0x0023 [0x00] END_REQSTACK()
```
