# 17162794 - Tihl Midurhi

## Common Data

| Field            | Value                        |
|------------------|------------------------------|
| Zone             | Windurst Waters [S] (ID: 94) |
| Block Size       | 780 bytes                    |
| Total Events     | 33                           |
| References Count | 55                           |

## List of Events

| Event ID                   | Entrypoint   |   Size |   Instructions |
|----------------------------|--------------|--------|----------------|
| [65535](#event-65535)      | 0x0000       |      1 |              1 |
| [151](#event-151)          | 0x0001       |      1 |              1 |
| [65535.1](#event-655351)   | 0x0002       |      1 |              1 |
| [65535.2](#event-655352)   | 0x0003       |     18 |              4 |
| [65535.3](#event-655353)   | 0x0015       |     10 |              2 |
| [65535.4](#event-655354)   | 0x001F       |      9 |              3 |
| [65535.5](#event-655355)   | 0x0028       |      9 |              3 |
| [65535.6](#event-655356)   | 0x0031       |     10 |              2 |
| [65535.7](#event-655357)   | 0x003B       |     10 |              2 |
| [231](#event-231)          | 0x0045       |      1 |              1 |
| [232](#event-232)          | 0x0046       |      1 |              1 |
| [65535.8](#event-655358)   | 0x0047       |     27 |              7 |
| [65535.9](#event-655359)   | 0x0062       |     31 |              9 |
| [65535.10](#event-6553510) | 0x0081       |     32 |              8 |
| [65535.11](#event-6553511) | 0x00A1       |      3 |              2 |
| [65535.12](#event-6553512) | 0x00A4       |      3 |              2 |
| [65535.13](#event-6553513) | 0x00A7       |      5 |              2 |
| [65535.14](#event-6553514) | 0x00AC       |      5 |              2 |
| [158](#event-158)          | 0x00B1       |      1 |              1 |
| [165](#event-165)          | 0x00B2       |      1 |              1 |
| [168](#event-168)          | 0x00B3       |      1 |              1 |
| [65535.15](#event-6553515) | 0x00B4       |     18 |              6 |
| [65535.16](#event-6553516) | 0x00C6       |     26 |              8 |
| [65535.17](#event-6553517) | 0x00E0       |     20 |              6 |
| [182](#event-182)          | 0x00F4       |      1 |              1 |
| [65535.18](#event-6553518) | 0x00F5       |     21 |              5 |
| [65535.19](#event-6553519) | 0x010A       |     32 |              8 |
| [65535.20](#event-6553520) | 0x012A       |     31 |              6 |
| [65535.21](#event-6553521) | 0x0149       |     42 |              8 |
| [65535.22](#event-6553522) | 0x0173       |      4 |              2 |
| [65535.23](#event-6553523) | 0x0177       |      4 |              2 |
| [65535.24](#event-6553524) | 0x017B       |     11 |              3 |
| [65535.25](#event-6553525) | 0x0186       |     21 |              5 |

## DAT References (imed_data)

|   Index | Hex Value   |   Dec Value |
|---------|-------------|-------------|
|       0 | 0x0000      |           0 |
|       1 | 0x0001      |           1 |
|       2 | 0x0080      |         128 |
|       3 | 0xFFFF56C2  |  4294923970 |
|       4 | 0x36426     |      222246 |
|       5 | 0xFFFFECD8  |  4294962392 |
|       6 | 0x0AD1      |        2769 |
|       7 | 0x0028      |          40 |
|       8 | 0xFFFF5BE1  |  4294925281 |
|       9 | 0x379FC     |      227836 |
|      10 | 0xFFFFEC79  |  4294962297 |
|      11 | 0x000D      |          13 |
|      12 | 0xFFFF5F86  |  4294926214 |
|      13 | 0x3822E     |      229934 |
|      14 | 0xFFFF64BA  |  4294927546 |
|      15 | 0x381DB     |      229851 |
|      16 | 0x0008      |           8 |
|      17 | 0x000B      |          11 |
|      18 | 0xFFFF6853  |  4294928467 |
|      19 | 0x3B240     |      242240 |
|      20 | 0x005D      |          93 |
|      21 | 0x0061      |          97 |
|      22 | 0x0026      |          38 |
|      23 | 0xFFFFFC31  |  4294966321 |
|      24 | 0x716A      |       29034 |
|      25 | 0xFFFFFC19  |  4294966297 |
|      26 | 0x0BB8      |        3000 |
|      27 | 0xFFFFA111  |  4294942993 |
|      28 | 0x8C9B      |       35995 |
|      29 | 0xFFFFF255  |  4294963797 |
|      30 | 0xFFFFBB09  |  4294949641 |
|      31 | 0x8C24      |       35876 |
|      32 | 0xFFFFF911  |  4294965521 |
|      33 | 0xFFFFEDF6  |  4294962678 |
|      34 | 0x8A10      |       35344 |
|      35 | 0xFFFFFC18  |  4294966296 |
|      36 | 0xFFFFF79F  |  4294965151 |
|      37 | 0x3B54      |       15188 |
|      38 | 0x0078      |         120 |
|      39 | 0xFFFFDBFF  |  4294958079 |
|      40 | 0xFFFFDCA7  |  4294958247 |
|      41 | 0xFFFFF753  |  4294965075 |
|      42 | 0x001E      |          30 |
|      43 | 0xFFFF5EBB  |  4294926011 |
|      44 | 0x3432D     |      213805 |
|      45 | 0xFFFFEC78  |  4294962296 |
|      46 | 0x0530      |        1328 |
|      47 | 0x0708      |        1800 |
|      48 | 0x05DC      |        1500 |
|      49 | 0xFFFF5FB5  |  4294926261 |
|      50 | 0x30C8E     |      199822 |
|      51 | 0xFFFFEB35  |  4294961973 |
|      52 | 0xFFFF68A2  |  4294928546 |
|      53 | 0x35AAB     |      219819 |
|      54 | 0xFFFFECBC  |  4294962364 |

## Events

### Event 65535

#### Metadata

| Field        | Value   |
|--------------|---------|
| Entrypoint   | 0x0000  |
| Data Size    | 1 bytes |
| Instructions | 1       |

```
      00 01 02 03 04 05 06 07  08 09 0A 0B 0C 0D 0E 0F
      -- -- -- -- -- -- -- --  -- -- -- -- -- -- -- --
0000: 00                                                .               
```

#### Opcodes

```
  0: 0x0000 [0x00] END_REQSTACK()
```

### Event 151

#### Metadata

| Field        | Value   |
|--------------|---------|
| Entrypoint   | 0x0001  |
| Data Size    | 1 bytes |
| Instructions | 1       |

```
      00 01 02 03 04 05 06 07  08 09 0A 0B 0C 0D 0E 0F
      -- -- -- -- -- -- -- --  -- -- -- -- -- -- -- --
0000:    00                                              .              
```

#### Opcodes

```
  0: 0x0001 [0x00] END_REQSTACK()
```

### Event 65535.1

#### Metadata

| Field        | Value   |
|--------------|---------|
| Entrypoint   | 0x0002  |
| Data Size    | 1 bytes |
| Instructions | 1       |

```
      00 01 02 03 04 05 06 07  08 09 0A 0B 0C 0D 0E 0F
      -- -- -- -- -- -- -- --  -- -- -- -- -- -- -- --
0000:       00                                            .             
```

#### Opcodes

```
  0: 0x0002 [0x00] END_REQSTACK()
```

### Event 65535.2

#### Metadata

| Field        | Value    |
|--------------|----------|
| Entrypoint   | 0x0003   |
| Data Size    | 18 bytes |
| Instructions | 4        |

```
      00 01 02 03 04 05 06 07  08 09 0A 0B 0C 0D 0E 0F
      -- -- -- -- -- -- -- --  -- -- -- -- -- -- -- --
0000:          22 00 2F 00 F8  FF FF 7F 6C F8 FF FF 7F     "./.....l....
0010: 00 80 01 80 00                                    .....           
```

#### Opcodes

```
  0: 0x0003 [0x22] ENTITY_HIDE_FLAG(enabled=0x00)
  1: 0x0005 [0x2F] EventEntity->Render.Flags0 &= ~0x80000 // Bit 19
  2: 0x000B [0x6C] FADE_ENTITY_COLOR(entity_id=EventEntity, end_alpha=0*, fade_time=1*)
  3: 0x0014 [0x00] END_REQSTACK()
```

### Event 65535.3

#### Metadata

| Field        | Value    |
|--------------|----------|
| Entrypoint   | 0x0015   |
| Data Size    | 10 bytes |
| Instructions | 2        |

```
      00 01 02 03 04 05 06 07  08 09 0A 0B 0C 0D 0E 0F
      -- -- -- -- -- -- -- --  -- -- -- -- -- -- -- --
0010:                6C F8 FF  FF 7F 02 80 01 80 00          l......... 
```

#### Opcodes

```
  0: 0x0015 [0x6C] FADE_ENTITY_COLOR(entity_id=EventEntity, end_alpha=128*, fade_time=1*)
  1: 0x001E [0x00] END_REQSTACK()
```

### Event 65535.4

#### Metadata

| Field        | Value   |
|--------------|---------|
| Entrypoint   | 0x001F  |
| Data Size    | 9 bytes |
| Instructions | 3       |

```
      00 01 02 03 04 05 06 07  08 09 0A 0B 0C 0D 0E 0F
      -- -- -- -- -- -- -- --  -- -- -- -- -- -- -- --
0010:                                               22                 "
0020: 00 2F 00 F8 FF FF 7F 00                           ./......        
```

#### Opcodes

```
  0: 0x001F [0x22] ENTITY_HIDE_FLAG(enabled=0x00)
  1: 0x0021 [0x2F] EventEntity->Render.Flags0 &= ~0x80000 // Bit 19
  2: 0x0027 [0x00] END_REQSTACK()
```

### Event 65535.5

#### Metadata

| Field        | Value   |
|--------------|---------|
| Entrypoint   | 0x0028  |
| Data Size    | 9 bytes |
| Instructions | 3       |

```
      00 01 02 03 04 05 06 07  08 09 0A 0B 0C 0D 0E 0F
      -- -- -- -- -- -- -- --  -- -- -- -- -- -- -- --
0020:                          22 01 2F 01 F8 FF FF 7F          "./.....
0030: 00                                                .               
```

#### Opcodes

```
  0: 0x0028 [0x22] ENTITY_HIDE_FLAG(enabled=0x01)
  1: 0x002A [0x2F] EventEntity->Render.Flags0 |= 0x80000 // Bit 19
  2: 0x0030 [0x00] END_REQSTACK()
```

### Event 65535.6

#### Metadata

| Field        | Value    |
|--------------|----------|
| Entrypoint   | 0x0031   |
| Data Size    | 10 bytes |
| Instructions | 2        |

```
      00 01 02 03 04 05 06 07  08 09 0A 0B 0C 0D 0E 0F
      -- -- -- -- -- -- -- --  -- -- -- -- -- -- -- --
0030:    6C F8 FF FF 7F 00 80  01 80 00                  l.........     
```

#### Opcodes

```
  0: 0x0031 [0x6C] FADE_ENTITY_COLOR(entity_id=EventEntity, end_alpha=0*, fade_time=1*)
  1: 0x003A [0x00] END_REQSTACK()
```

### Event 65535.7

#### Metadata

| Field        | Value    |
|--------------|----------|
| Entrypoint   | 0x003B   |
| Data Size    | 10 bytes |
| Instructions | 2        |

```
      00 01 02 03 04 05 06 07  08 09 0A 0B 0C 0D 0E 0F
      -- -- -- -- -- -- -- --  -- -- -- -- -- -- -- --
0030:                                   6C F8 FF FF 7F             l....
0040: 02 80 01 80 00                                    .....           
```

#### Opcodes

```
  0: 0x003B [0x6C] FADE_ENTITY_COLOR(entity_id=EventEntity, end_alpha=128*, fade_time=1*)
  1: 0x0044 [0x00] END_REQSTACK()
```

### Event 231

#### Metadata

| Field        | Value   |
|--------------|---------|
| Entrypoint   | 0x0045  |
| Data Size    | 1 bytes |
| Instructions | 1       |

```
      00 01 02 03 04 05 06 07  08 09 0A 0B 0C 0D 0E 0F
      -- -- -- -- -- -- -- --  -- -- -- -- -- -- -- --
0040:                00                                      .          
```

#### Opcodes

```
  0: 0x0045 [0x00] END_REQSTACK()
```

### Event 232

#### Metadata

| Field        | Value   |
|--------------|---------|
| Entrypoint   | 0x0046  |
| Data Size    | 1 bytes |
| Instructions | 1       |

```
      00 01 02 03 04 05 06 07  08 09 0A 0B 0C 0D 0E 0F
      -- -- -- -- -- -- -- --  -- -- -- -- -- -- -- --
0040:                   00                                    .         
```

#### Opcodes

```
  0: 0x0046 [0x00] END_REQSTACK()
```

### Event 65535.8

#### Metadata

| Field        | Value    |
|--------------|----------|
| Entrypoint   | 0x0047   |
| Data Size    | 27 bytes |
| Instructions | 7        |

```
      00 01 02 03 04 05 06 07  08 09 0A 0B 0C 0D 0E 0F
      -- -- -- -- -- -- -- --  -- -- -- -- -- -- -- --
0040:                      37  03 80 04 80 05 80 06 80         7........
0050: 32 07 80 1F 00 08 80 09  80 0A 80 1F 01 6F 39 00  2............o9.
0060: 80 00                                             ..              
```

#### Opcodes

```
  0: 0x0047 [0x37] UPDATE_EVENT_POSITION_AND_DIR: x=-43.326*, z=222.246*, y=-4.904*, direction=243.4°*
  1: 0x0050 [0x32] ExtData[1]->MainSpeed = 40* * 0.1
  2: 0x0053 [0x1F] MOVE_ENTITY: EventEntity moves to X=-42.015*, Z=227.836*, Y=-4.999*
  3: 0x005B [0x1F] MOVE_ENTITY: Update entity position (mode=1)
  4: 0x005D [0x6F] WAIT_FRAME_DELAY: Yield until WaitTime reaches zero
  5: 0x005E [0x39] SET_ENTITY_DIRECTION(direction=0.0°*)
  6: 0x0061 [0x00] END_REQSTACK()
```

### Event 65535.9

#### Metadata

| Field        | Value    |
|--------------|----------|
| Entrypoint   | 0x0062   |
| Data Size    | 31 bytes |
| Instructions | 9        |

```
      00 01 02 03 04 05 06 07  08 09 0A 0B 0C 0D 0E 0F
      -- -- -- -- -- -- -- --  -- -- -- -- -- -- -- --
0060:       32 0B 80 1F 00 0C  80 0D 80 0A 80 1F 01 6F    2............o
0070: 1F 00 0E 80 0F 80 0A 80  1F 01 6F 1E 08 E2 05 01  ..........o.....
0080: 00                                                .               
```

#### Opcodes

```
  0: 0x0062 [0x32] ExtData[1]->MainSpeed = 13* * 0.1
  1: 0x0065 [0x1F] MOVE_ENTITY: EventEntity moves to X=-41.082*, Z=229.934*, Y=-4.999*
  2: 0x006D [0x1F] MOVE_ENTITY: Update entity position (mode=1)
  3: 0x006F [0x6F] WAIT_FRAME_DELAY: Yield until WaitTime reaches zero
  4: 0x0070 [0x1F] MOVE_ENTITY: EventEntity moves to X=-39.750*, Z=229.851*, Y=-4.999*
  5: 0x0078 [0x1F] MOVE_ENTITY: Update entity position (mode=1)
  6: 0x007A [0x6F] WAIT_FRAME_DELAY: Yield until WaitTime reaches zero
  7: 0x007B [0x1E] EventEntity looks at Romaa Mihgo (ID: 17162760/0x0105E208) and starts talking
  8: 0x0080 [0x00] END_REQSTACK()
```

### Event 65535.10

#### Metadata

| Field        | Value    |
|--------------|----------|
| Entrypoint   | 0x0081   |
| Data Size    | 32 bytes |
| Instructions | 8        |

```
      00 01 02 03 04 05 06 07  08 09 0A 0B 0C 0D 0E 0F
      -- -- -- -- -- -- -- --  -- -- -- -- -- -- -- --
0080:    6E F8 FF FF 7F 10 80  99 F8 FF FF 7F 99 F8 FF   n..............
0090: FF 7F 32 11 80 1F 00 12  80 13 80 0A 80 1F 01 6F  ..2............o
00A0: 00                                                .               
```

#### Opcodes

```
  0: 0x0081 [0x6E] EventEntity uses emote 8*
  1: 0x0088 [0x99] Wait for EventEntity animation to complete
  2: 0x008D [0x99] Wait for EventEntity animation to complete
  3: 0x0092 [0x32] ExtData[1]->MainSpeed = 11* * 0.1
  4: 0x0095 [0x1F] MOVE_ENTITY: EventEntity moves to X=-38.829*, Z=242.240*, Y=-4.999*
  5: 0x009D [0x1F] MOVE_ENTITY: Update entity position (mode=1)
  6: 0x009F [0x6F] WAIT_FRAME_DELAY: Yield until WaitTime reaches zero
  7: 0x00A0 [0x00] END_REQSTACK()
```

### Event 65535.11

#### Metadata

| Field        | Value   |
|--------------|---------|
| Entrypoint   | 0x00A1  |
| Data Size    | 3 bytes |
| Instructions | 2       |

```
      00 01 02 03 04 05 06 07  08 09 0A 0B 0C 0D 0E 0F
      -- -- -- -- -- -- -- --  -- -- -- -- -- -- -- --
00A0:    A4 01 00                                        ...            
```

#### Opcodes

```
  0: 0x00A1 [0xA4] EventEntity->Flags3.unknown_3_2 = 1
  1: 0x00A3 [0x00] END_REQSTACK()
```

### Event 65535.12

#### Metadata

| Field        | Value   |
|--------------|---------|
| Entrypoint   | 0x00A4  |
| Data Size    | 3 bytes |
| Instructions | 2       |

```
      00 01 02 03 04 05 06 07  08 09 0A 0B 0C 0D 0E 0F
      -- -- -- -- -- -- -- --  -- -- -- -- -- -- -- --
00A0:             A4 00 00                                  ...         
```

#### Opcodes

```
  0: 0x00A4 [0xA4] EventEntity->Flags3.unknown_3_2 = 0
  1: 0x00A6 [0x00] END_REQSTACK()
```

### Event 65535.13

#### Metadata

| Field        | Value   |
|--------------|---------|
| Entrypoint   | 0x00A7  |
| Data Size    | 5 bytes |
| Instructions | 2       |

```
      00 01 02 03 04 05 06 07  08 09 0A 0B 0C 0D 0E 0F
      -- -- -- -- -- -- -- --  -- -- -- -- -- -- -- --
00A0:                      B6  0F 14 80 00                     .....    
```

#### Opcodes

```
  0: 0x00A7 [0xB6] ENTITY_APPEARANCE_HANDLER(case=Model size, value=93*)
  1: 0x00AB [0x00] END_REQSTACK()
```

### Event 65535.14

#### Metadata

| Field        | Value   |
|--------------|---------|
| Entrypoint   | 0x00AC  |
| Data Size    | 5 bytes |
| Instructions | 2       |

```
      00 01 02 03 04 05 06 07  08 09 0A 0B 0C 0D 0E 0F
      -- -- -- -- -- -- -- --  -- -- -- -- -- -- -- --
00A0:                                      B6 0F 15 80              ....
00B0: 00                                                .               
```

#### Opcodes

```
  0: 0x00AC [0xB6] ENTITY_APPEARANCE_HANDLER(case=Model size, value=97*)
  1: 0x00B0 [0x00] END_REQSTACK()
```

### Event 158

#### Metadata

| Field        | Value   |
|--------------|---------|
| Entrypoint   | 0x00B1  |
| Data Size    | 1 bytes |
| Instructions | 1       |

```
      00 01 02 03 04 05 06 07  08 09 0A 0B 0C 0D 0E 0F
      -- -- -- -- -- -- -- --  -- -- -- -- -- -- -- --
00B0:    00                                              .              
```

#### Opcodes

```
  0: 0x00B1 [0x00] END_REQSTACK()
```

### Event 165

#### Metadata

| Field        | Value   |
|--------------|---------|
| Entrypoint   | 0x00B2  |
| Data Size    | 1 bytes |
| Instructions | 1       |

```
      00 01 02 03 04 05 06 07  08 09 0A 0B 0C 0D 0E 0F
      -- -- -- -- -- -- -- --  -- -- -- -- -- -- -- --
00B0:       00                                            .             
```

#### Opcodes

```
  0: 0x00B2 [0x00] END_REQSTACK()
```

### Event 168

#### Metadata

| Field        | Value   |
|--------------|---------|
| Entrypoint   | 0x00B3  |
| Data Size    | 1 bytes |
| Instructions | 1       |

```
      00 01 02 03 04 05 06 07  08 09 0A 0B 0C 0D 0E 0F
      -- -- -- -- -- -- -- --  -- -- -- -- -- -- -- --
00B0:          00                                          .            
```

#### Opcodes

```
  0: 0x00B3 [0x00] END_REQSTACK()
```

### Event 65535.15

#### Metadata

| Field        | Value    |
|--------------|----------|
| Entrypoint   | 0x00B4   |
| Data Size    | 18 bytes |
| Instructions | 6        |

```
      00 01 02 03 04 05 06 07  08 09 0A 0B 0C 0D 0E 0F
      -- -- -- -- -- -- -- --  -- -- -- -- -- -- -- --
00B0:             32 16 80 1F  00 17 80 18 80 19 80 1F      2...........
00C0: 01 6F 39 1A 80 00                                 .o9...          
```

#### Opcodes

```
  0: 0x00B4 [0x32] ExtData[1]->MainSpeed = 38* * 0.1
  1: 0x00B7 [0x1F] MOVE_ENTITY: EventEntity moves to X=-0.975*, Z=29.034*, Y=-0.999*
  2: 0x00BF [0x1F] MOVE_ENTITY: Update entity position (mode=1)
  3: 0x00C1 [0x6F] WAIT_FRAME_DELAY: Yield until WaitTime reaches zero
  4: 0x00C2 [0x39] SET_ENTITY_DIRECTION(direction=16.5°*)
  5: 0x00C5 [0x00] END_REQSTACK()
```

### Event 65535.16

#### Metadata

| Field        | Value    |
|--------------|----------|
| Entrypoint   | 0x00C6   |
| Data Size    | 26 bytes |
| Instructions | 8        |

```
      00 01 02 03 04 05 06 07  08 09 0A 0B 0C 0D 0E 0F
      -- -- -- -- -- -- -- --  -- -- -- -- -- -- -- --
00C0:                   32 07  80 1F 00 1B 80 1C 80 1D        2.........
00D0: 80 1F 01 6F 1F 00 1E 80  1F 80 20 80 1F 01 6F 00  ...o...... ...o.
```

#### Opcodes

```
  0: 0x00C6 [0x32] ExtData[1]->MainSpeed = 40* * 0.1
  1: 0x00C9 [0x1F] MOVE_ENTITY: EventEntity moves to X=-24.303*, Z=35.995*, Y=-3.499*
  2: 0x00D1 [0x1F] MOVE_ENTITY: Update entity position (mode=1)
  3: 0x00D3 [0x6F] WAIT_FRAME_DELAY: Yield until WaitTime reaches zero
  4: 0x00D4 [0x1F] MOVE_ENTITY: EventEntity moves to X=-17.655*, Z=35.876*, Y=-1.775*
  5: 0x00DC [0x1F] MOVE_ENTITY: Update entity position (mode=1)
  6: 0x00DE [0x6F] WAIT_FRAME_DELAY: Yield until WaitTime reaches zero
  7: 0x00DF [0x00] END_REQSTACK()
```

### Event 65535.17

#### Metadata

| Field        | Value    |
|--------------|----------|
| Entrypoint   | 0x00E0   |
| Data Size    | 20 bytes |
| Instructions | 6        |

```
      00 01 02 03 04 05 06 07  08 09 0A 0B 0C 0D 0E 0F
      -- -- -- -- -- -- -- --  -- -- -- -- -- -- -- --
00E0: 32 07 80 1F 00 21 80 22  80 23 80 1F 01 6F 1E 36  2....!.".#...o.6
00F0: E2 05 01 00                                       ....            
```

#### Opcodes

```
  0: 0x00E0 [0x32] ExtData[1]->MainSpeed = 40* * 0.1
  1: 0x00E3 [0x1F] MOVE_ENTITY: EventEntity moves to X=-4.618*, Z=35.344*, Y=-1.000*
  2: 0x00EB [0x1F] MOVE_ENTITY: Update entity position (mode=1)
  3: 0x00ED [0x6F] WAIT_FRAME_DELAY: Yield until WaitTime reaches zero
  4: 0x00EE [0x1E] EventEntity looks at Lehko Habhoka (ID: 17162806/0x0105E236) and starts talking
  5: 0x00F3 [0x00] END_REQSTACK()
```

### Event 182

#### Metadata

| Field        | Value   |
|--------------|---------|
| Entrypoint   | 0x00F4  |
| Data Size    | 1 bytes |
| Instructions | 1       |

```
      00 01 02 03 04 05 06 07  08 09 0A 0B 0C 0D 0E 0F
      -- -- -- -- -- -- -- --  -- -- -- -- -- -- -- --
00F0:             00                                        .           
```

#### Opcodes

```
  0: 0x00F4 [0x00] END_REQSTACK()
```

### Event 65535.18

#### Metadata

| Field        | Value    |
|--------------|----------|
| Entrypoint   | 0x00F5   |
| Data Size    | 21 bytes |
| Instructions | 5        |

```
      00 01 02 03 04 05 06 07  08 09 0A 0B 0C 0D 0E 0F
      -- -- -- -- -- -- -- --  -- -- -- -- -- -- -- --
00F0:                1F 00 24  80 25 80 19 80 1F 01 6F       ..$.%.....o
0100: 4A 2A E2 05 01 F0 FF FF  7F 00                    J*........      
```

#### Opcodes

```
  0: 0x00F5 [0x1F] MOVE_ENTITY: EventEntity moves to X=-2.145*, Z=15.188*, Y=-0.999*
  1: 0x00FD [0x1F] MOVE_ENTITY: Update entity position (mode=1)
  2: 0x00FF [0x6F] WAIT_FRAME_DELAY: Yield until WaitTime reaches zero
  3: 0x0100 [0x4A] Tihl Midurhi (ID: 17162794/0x0105E22A) looks at LocalPlayer
  4: 0x0109 [0x00] END_REQSTACK()
```

### Event 65535.19

#### Metadata

| Field        | Value    |
|--------------|----------|
| Entrypoint   | 0x010A   |
| Data Size    | 32 bytes |
| Instructions | 8        |

```
      00 01 02 03 04 05 06 07  08 09 0A 0B 0C 0D 0E 0F
      -- -- -- -- -- -- -- --  -- -- -- -- -- -- -- --
0100:                                4A 2A E2 05 01 FF            J*....
0110: E1 05 01 1C 10 80 6F 76  2A E2 05 01 1C 26 80 1F  ......ov*....&..
0120: 00 27 80 28 80 29 80 1F  01 00                    .'.(.)....      
```

#### Opcodes

```
  0: 0x010A [0x4A] Tihl Midurhi (ID: 17162794/0x0105E22A) looks at Dhea Prandoleh (ID: 17162751/0x0105E1FF)
  1: 0x0113 [0x1C] WAIT(8* ticks)
  2: 0x0116 [0x6F] WAIT_FRAME_DELAY: Yield until WaitTime reaches zero
  3: 0x0117 [0x76] CHECK_ENTITY_RENDER_FLAGS: Wait until Tihl Midurhi (ID: 17162794/0x0105E22A) Render.Flags0 and Render.Flags3 conditions are met
  4: 0x011C [0x1C] WAIT(120* ticks)
  5: 0x011F [0x1F] MOVE_ENTITY: EventEntity moves to X=-9.217*, Z=-9.049*, Y=-2.221*
  6: 0x0127 [0x1F] MOVE_ENTITY: Update entity position (mode=1)
  7: 0x0129 [0x00] END_REQSTACK()
```

### Event 65535.20

#### Metadata

| Field        | Value    |
|--------------|----------|
| Entrypoint   | 0x012A   |
| Data Size    | 31 bytes |
| Instructions | 6        |

```
      00 01 02 03 04 05 06 07  08 09 0A 0B 0C 0D 0E 0F
      -- -- -- -- -- -- -- --  -- -- -- -- -- -- -- --
0120:                                1C 2A 80 79 00 2A            .*.y.*
0130: E2 05 01 F0 FF FF 7F 6E  2A E2 05 01 10 80 99 2A  .......n*......*
0140: E2 05 01 7B 2A E2 05 01  00                       ...{*....       
```

#### Opcodes

```
  0: 0x012A [0x1C] WAIT(30* ticks)
  1: 0x012D [0x79] Tihl Midurhi (ID: 17162794/0x0105E22A) looks at LocalPlayer (Basic look)
  2: 0x0137 [0x6E] Tihl Midurhi (ID: 17162794/0x0105E22A) uses emote 8*
  3: 0x013E [0x99] Wait for Tihl Midurhi (ID: 17162794/0x0105E22A) animation to complete
  4: 0x0143 [0x7B] Tihl Midurhi (ID: 17162794/0x0105E22A) stops talking
  5: 0x0148 [0x00] END_REQSTACK()
```

### Event 65535.21

#### Metadata

| Field        | Value    |
|--------------|----------|
| Entrypoint   | 0x0149   |
| Data Size    | 42 bytes |
| Instructions | 8        |

```
      00 01 02 03 04 05 06 07  08 09 0A 0B 0C 0D 0E 0F
      -- -- -- -- -- -- -- --  -- -- -- -- -- -- -- --
0140:                             1F 00 2B 80 2C 80 2D           ..+.,.-
0150: 80 1F 01 6F 4A 2A E2 05  01 36 E2 05 01 6F 76 2A  ...oJ*...6...ov*
0160: E2 05 01 5B 2E 80 2A E2  05 01 2A E2 05 01 69 72  ...[..*...*...ir
0170: 6F 30 00                                          o0.             
```

#### Opcodes

```
  0: 0x0149 [0x1F] MOVE_ENTITY: EventEntity moves to X=-41.285*, Z=213.805*, Y=-5.000*
  1: 0x0151 [0x1F] MOVE_ENTITY: Update entity position (mode=1)
  2: 0x0153 [0x6F] WAIT_FRAME_DELAY: Yield until WaitTime reaches zero
  3: 0x0154 [0x4A] Tihl Midurhi (ID: 17162794/0x0105E22A) looks at Lehko Habhoka (ID: 17162806/0x0105E236)
  4: 0x015D [0x6F] WAIT_FRAME_DELAY: Yield until WaitTime reaches zero
  5: 0x015E [0x76] CHECK_ENTITY_RENDER_FLAGS: Wait until Tihl Midurhi (ID: 17162794/0x0105E22A) Render.Flags0 and Render.Flags3 conditions are met
  6: 0x0163 [0x5B] LOAD_EXT_SCHEDULER: Load scheduler "iro0" with entities [Tihl Midurhi (ID: 17162794/0x0105E22A), Tihl Midurhi (ID: 17162794/0x0105E22A)], work=1328*
  7: 0x0172 [0x00] END_REQSTACK()
```

### Event 65535.22

#### Metadata

| Field        | Value   |
|--------------|---------|
| Entrypoint   | 0x0173  |
| Data Size    | 4 bytes |
| Instructions | 2       |

```
      00 01 02 03 04 05 06 07  08 09 0A 0B 0C 0D 0E 0F
      -- -- -- -- -- -- -- --  -- -- -- -- -- -- -- --
0170:          39 2F 80 00                                 9/..         
```

#### Opcodes

```
  0: 0x0173 [0x39] SET_ENTITY_DIRECTION(direction=9.9°*)
  1: 0x0176 [0x00] END_REQSTACK()
```

### Event 65535.23

#### Metadata

| Field        | Value   |
|--------------|---------|
| Entrypoint   | 0x0177  |
| Data Size    | 4 bytes |
| Instructions | 2       |

```
      00 01 02 03 04 05 06 07  08 09 0A 0B 0C 0D 0E 0F
      -- -- -- -- -- -- -- --  -- -- -- -- -- -- -- --
0170:                      39  30 80 00                        90..     
```

#### Opcodes

```
  0: 0x0177 [0x39] SET_ENTITY_DIRECTION(direction=8.2°*)
  1: 0x017A [0x00] END_REQSTACK()
```

### Event 65535.24

#### Metadata

| Field        | Value    |
|--------------|----------|
| Entrypoint   | 0x017B   |
| Data Size    | 11 bytes |
| Instructions | 3        |

```
      00 01 02 03 04 05 06 07  08 09 0A 0B 0C 0D 0E 0F
      -- -- -- -- -- -- -- --  -- -- -- -- -- -- -- --
0170:                                   1F 00 31 80 32             ..1.2
0180: 80 33 80 1F 01 00                                 .3....          
```

#### Opcodes

```
  0: 0x017B [0x1F] MOVE_ENTITY: EventEntity moves to X=-41.035*, Z=199.822*, Y=-5.323*
  1: 0x0183 [0x1F] MOVE_ENTITY: Update entity position (mode=1)
  2: 0x0185 [0x00] END_REQSTACK()
```

### Event 65535.25

#### Metadata

| Field        | Value    |
|--------------|----------|
| Entrypoint   | 0x0186   |
| Data Size    | 21 bytes |
| Instructions | 5        |

```
      00 01 02 03 04 05 06 07  08 09 0A 0B 0C 0D 0E 0F
      -- -- -- -- -- -- -- --  -- -- -- -- -- -- -- --
0180:                   1F 00  34 80 35 80 36 80 1F 01        ..4.5.6...
0190: 6F 4A 2A E2 05 01 F0 FF  FF 7F 00                 oJ*........     
```

#### Opcodes

```
  0: 0x0186 [0x1F] MOVE_ENTITY: EventEntity moves to X=-38.750*, Z=219.819*, Y=-4.932*
  1: 0x018E [0x1F] MOVE_ENTITY: Update entity position (mode=1)
  2: 0x0190 [0x6F] WAIT_FRAME_DELAY: Yield until WaitTime reaches zero
  3: 0x0191 [0x4A] Tihl Midurhi (ID: 17162794/0x0105E22A) looks at LocalPlayer
  4: 0x019A [0x00] END_REQSTACK()
```
