# 17162784 - 04

## Common Data

| Field            | Value                        |
|------------------|------------------------------|
| Zone             | Windurst Waters [S] (ID: 94) |
| Block Size       | 2648 bytes                   |
| Total Events     | 39                           |
| References Count | 154                          |

## List of Events

| Event ID                   | Entrypoint   |   Size |   Instructions |
|----------------------------|--------------|--------|----------------|
| [65535](#event-65535)      | 0x0000       |      1 |              1 |
| [130](#event-130)          | 0x0001       |      1 |              1 |
| [65535.1](#event-655351)   | 0x0002       |     25 |              3 |
| [65535.2](#event-655352)   | 0x001B       |     15 |              5 |
| [65535.3](#event-655353)   | 0x002A       |      7 |              2 |
| [65535.4](#event-655354)   | 0x0031       |      1 |              1 |
| [65535.5](#event-655355)   | 0x0032       |     18 |              4 |
| [65535.6](#event-655356)   | 0x0044       |     10 |              2 |
| [65535.7](#event-655357)   | 0x004E       |      9 |              3 |
| [65535.8](#event-655358)   | 0x0057       |      9 |              3 |
| [65535.9](#event-655359)   | 0x0060       |     10 |              2 |
| [65535.10](#event-6553510) | 0x006A       |     10 |              2 |
| [65535.11](#event-6553511) | 0x0074       |     22 |              2 |
| [65535.12](#event-6553512) | 0x008A       |    167 |             35 |
| [65535.13](#event-6553513) | 0x0131       |    186 |             38 |
| [65535.14](#event-6553514) | 0x01EB       |     83 |             18 |
| [65535.15](#event-6553515) | 0x023E       |    154 |             32 |
| [65535.16](#event-6553516) | 0x02D8       |    167 |             35 |
| [65535.17](#event-6553517) | 0x037F       |     69 |             15 |
| [65535.18](#event-6553518) | 0x03C4       |     38 |              9 |
| [65535.19](#event-6553519) | 0x03EA       |     38 |              9 |
| [65535.20](#event-6553520) | 0x0410       |     48 |             11 |
| [65535.21](#event-6553521) | 0x0440       |     19 |              4 |
| [65535.22](#event-6553522) | 0x0453       |     22 |              5 |
| [65535.23](#event-6553523) | 0x0469       |     22 |              5 |
| [65535.24](#event-6553524) | 0x047F       |     13 |              5 |
| [65535.25](#event-6553525) | 0x048C       |    221 |             26 |
| [65535.26](#event-6553526) | 0x0569       |     76 |              8 |
| [65535.27](#event-6553527) | 0x05B5       |     49 |              5 |
| [65535.28](#event-6553528) | 0x05E6       |     29 |              6 |
| [65535.29](#event-6553529) | 0x0603       |     49 |              7 |
| [65535.30](#event-6553530) | 0x0634       |     20 |              5 |
| [65535.31](#event-6553531) | 0x0648       |     47 |              6 |
| [65535.32](#event-6553532) | 0x0677       |     21 |              3 |
| [65535.33](#event-6553533) | 0x068C       |    161 |             17 |
| [65535.34](#event-6553534) | 0x072D       |     20 |              5 |
| [20](#event-20)            | 0x0741       |      1 |              1 |
| [23](#event-23)            | 0x0742       |      1 |              1 |
| [24](#event-24)            | 0x0743       |      1 |              1 |

## DAT References (imed_data)

|   Index | Hex Value   |   Dec Value |
|---------|-------------|-------------|
|       0 | 0x0004      |           4 |
|       1 | 0x0000      |           0 |
|       2 | 0x0001      |           1 |
|       3 | 0x001D      |          29 |
|       4 | 0xFFFF5FEE  |  4294926318 |
|       5 | 0x3AB15     |      240405 |
|       6 | 0xFFFFEC79  |  4294962297 |
|       7 | 0x0080      |         128 |
|       8 | 0x001E      |          30 |
|       9 | 0x0050      |          80 |
|      10 | 0x01CB      |         459 |
|      11 | 0xC01D      |       49181 |
|      12 | 0xFFFFFC18  |  4294966296 |
|      13 | 0xFFFFF61D  |  4294964765 |
|      14 | 0xB4CD      |       46285 |
|      15 | 0xFFFFE4A1  |  4294960289 |
|      16 | 0xA1E9      |       41449 |
|      17 | 0xFFFFCB4E  |  4294953806 |
|      18 | 0x99E9      |       39401 |
|      19 | 0xFFFF383B  |  4294916155 |
|      20 | 0x975A      |       38746 |
|      21 | 0xFFFFF255  |  4294963797 |
|      22 | 0xFFFF0950  |  4294904144 |
|      23 | 0xA6EB      |       42731 |
|      24 | 0xFFFEE28D  |  4294894221 |
|      25 | 0xCA5B      |       51803 |
|      26 | 0xFFFECCEB  |  4294888683 |
|      27 | 0xE7E4      |       59364 |
|      28 | 0xFFFED4DC  |  4294890716 |
|      29 | 0x12692     |       75410 |
|      30 | 0xFFFF05FC  |  4294903292 |
|      31 | 0x13DD1     |       81361 |
|      32 | 0xFFFFEC78  |  4294962296 |
|      33 | 0xFFFF3FE9  |  4294918121 |
|      34 | 0x14635     |       83509 |
|      35 | 0xFFFF58F1  |  4294924529 |
|      36 | 0x156CB     |       87755 |
|      37 | 0xFFFF5F95  |  4294926229 |
|      38 | 0x16818     |       92184 |
|      39 | 0xFFFF633B  |  4294927163 |
|      40 | 0x28E9B     |      167579 |
|      41 | 0xFFFFEC61  |  4294962273 |
|      42 | 0x0096      |         150 |
|      43 | 0x004F      |          79 |
|      44 | 0xFFFFFD21  |  4294966561 |
|      45 | 0xCD5B      |       52571 |
|      46 | 0xFFFFF472  |  4294964338 |
|      47 | 0xC585      |       50565 |
|      48 | 0xFFFFE64E  |  4294960718 |
|      49 | 0xAABD      |       43709 |
|      50 | 0xFFFFD9CC  |  4294957516 |
|      51 | 0x9B38      |       39736 |
|      52 | 0xFFFFCCF6  |  4294954230 |
|      53 | 0x9802      |       38914 |
|      54 | 0xFFFF64E4  |  4294927588 |
|      55 | 0x15EE3     |       89827 |
|      56 | 0xFFFF68EB  |  4294928619 |
|      57 | 0x16CEC     |       93420 |
|      58 | 0xFFFF6A76  |  4294929014 |
|      59 | 0x1835B     |       99163 |
|      60 | 0x0019      |          25 |
|      61 | 0xFFFF9D93  |  4294942099 |
|      62 | 0x153C3     |       86979 |
|      63 | 0x004E      |          78 |
|      64 | 0xFFFF7F27  |  4294934311 |
|      65 | 0x170BF     |       94399 |
|      66 | 0xFFFF6EA5  |  4294930085 |
|      67 | 0x181BB     |       98747 |
|      68 | 0xFFFF6986  |  4294928774 |
|      69 | 0x1A277     |      107127 |
|      70 | 0xFFFFE83A  |  4294961210 |
|      71 | 0x79A0      |       31136 |
|      72 | 0xFFFFFC19  |  4294966297 |
|      73 | 0xFFFFE0B0  |  4294959280 |
|      74 | 0x893B      |       35131 |
|      75 | 0xFFFFD29F  |  4294955679 |
|      76 | 0x9856      |       38998 |
|      77 | 0x00B4      |         180 |
|      78 | 0xFFFFF934  |  4294965556 |
|      79 | 0x7B9B      |       31643 |
|      80 | 0xFFFFEFB1  |  4294963121 |
|      81 | 0x9085      |       36997 |
|      82 | 0xFFFFDE20  |  4294958624 |
|      83 | 0xA00A      |       40970 |
|      84 | 0x0168      |         360 |
|      85 | 0x000F      |          15 |
|      86 | 0xFFFF96A6  |  4294940326 |
|      87 | 0xF877      |       63607 |
|      88 | 0xFFFFF254  |  4294963796 |
|      89 | 0xFFFF9B5E  |  4294941534 |
|      90 | 0xF61A      |       63002 |
|      91 | 0x0028      |          40 |
|      92 | 0xFFFF46D2  |  4294919890 |
|      93 | 0xE60E      |       58894 |
|      94 | 0xFFFF2186  |  4294910342 |
|      95 | 0xD0D7      |       53463 |
|      96 | 0x001B      |          27 |
|      97 | 0xFFFF8952  |  4294936914 |
|      98 | 0x12369     |       74601 |
|      99 | 0xFFFFF20A  |  4294963722 |
|     100 | 0xFFFF2B43  |  4294912835 |
|     101 | 0x10F50     |       69456 |
|     102 | 0xFFFF8D73  |  4294937971 |
|     103 | 0x1266B     |       75371 |
|     104 | 0xFFFFF237  |  4294963767 |
|     105 | 0xFFFF3027  |  4294914087 |
|     106 | 0x113AF     |       70575 |
|     107 | 0xFFFF938A  |  4294939530 |
|     108 | 0x11F80     |       73600 |
|     109 | 0xFFFFF2AA  |  4294963882 |
|     110 | 0xFFFF3332  |  4294914866 |
|     111 | 0x11FA6     |       73638 |
|     112 | 0xFFFF2C4F  |  4294913103 |
|     113 | 0x1196C     |       72044 |
|     114 | 0x002A      |          42 |
|     115 | 0xFFFFA76A  |  4294944618 |
|     116 | 0x13DC9     |       81353 |
|     117 | 0x003C      |          60 |
|     118 | 0x0078      |         120 |
|     119 | 0x0258      |         600 |
|     120 | 0x0005      |           5 |
|     121 | 0x0215      |         533 |
|     122 | 0x012C      |         300 |
|     123 | 0xFFFF11C3  |  4294906307 |
|     124 | 0x1126E     |       70254 |
|     125 | 0x0FFD      |        4093 |
|     126 | 0x0031      |          49 |
|     127 | 0x0508      |        1288 |
|     128 | 0xFFFFEB50  |  4294962000 |
|     129 | 0x3028      |       12328 |
|     130 | 0x00A0      |         160 |
|     131 | 0x0055      |          85 |
|     132 | 0x0007      |           7 |
|     133 | 0xFFFFFECD  |  4294966989 |
|     134 | 0x33C0      |       13248 |
|     135 | 0x0023      |          35 |
|     136 | 0xFFFFFC12  |  4294966290 |
|     137 | 0x3F62      |       16226 |
|     138 | 0x004B      |          75 |
|     139 | 0x00C9      |         201 |
|     140 | 0xFFFFFBDE  |  4294966238 |
|     141 | 0x4419      |       17433 |
|     142 | 0x0408      |        1032 |
|     143 | 0x3D40      |       15680 |
|     144 | 0x09C7      |        2503 |
|     145 | 0x0506      |        1286 |
|     146 | 0x00B5      |         181 |
|     147 | 0x0056      |          86 |
|     148 | 0x0189      |         393 |
|     149 | 0x0BD5      |        3029 |
|     150 | 0x0024      |          36 |
|     151 | 0xFFFFE1FB  |  4294959611 |
|     152 | 0x1E8B      |        7819 |
|     153 | 0xFFFFFBFE  |  4294966270 |

## Events

### Event 65535

#### Metadata

| Field        | Value   |
|--------------|---------|
| Entrypoint   | 0x0000  |
| Data Size    | 1 bytes |
| Instructions | 1       |

```
      00 01 02 03 04 05 06 07  08 09 0A 0B 0C 0D 0E 0F
      -- -- -- -- -- -- -- --  -- -- -- -- -- -- -- --
0000: 00                                                .               
```

#### Opcodes

```
  0: 0x0000 [0x00] END_REQSTACK()
```

### Event 130

#### Metadata

| Field        | Value   |
|--------------|---------|
| Entrypoint   | 0x0001  |
| Data Size    | 1 bytes |
| Instructions | 1       |

```
      00 01 02 03 04 05 06 07  08 09 0A 0B 0C 0D 0E 0F
      -- -- -- -- -- -- -- --  -- -- -- -- -- -- -- --
0000:    00                                              .              
```

#### Opcodes

```
  0: 0x0001 [0x00] END_REQSTACK()
```

### Event 65535.1

#### Metadata

| Field        | Value    |
|--------------|----------|
| Entrypoint   | 0x0002   |
| Data Size    | 25 bytes |
| Instructions | 3        |

```
      00 01 02 03 04 05 06 07  08 09 0A 0B 0C 0D 0E 0F
      -- -- -- -- -- -- -- --  -- -- -- -- -- -- -- --
0000:       7E 06 20 E2 05 01  00 80 01 80 02 80 02 80    ~. ...........
0010: 02 80 02 80 7E 04 20 E2  05 01 00                 ....~. ....     
```

#### Opcodes

```
  0: 0x0002 [0x7E] CHOCOBO_MOUNT: Mode 6 (custom mount) on 04 (ID: 17162784/0x0105E220)
  1: 0x0014 [0x7E] CHOCOBO_MOUNT: Mode 4 on 04 (ID: 17162784/0x0105E220)
  2: 0x001A [0x00] END_REQSTACK()
```

### Event 65535.2

#### Metadata

| Field        | Value    |
|--------------|----------|
| Entrypoint   | 0x001B   |
| Data Size    | 15 bytes |
| Instructions | 5        |

```
      00 01 02 03 04 05 06 07  08 09 0A 0B 0C 0D 0E 0F
      -- -- -- -- -- -- -- --  -- -- -- -- -- -- -- --
0010:                                   32 03 80 1F 00             2....
0020: 04 80 05 80 06 80 1F 01  6F 00                    ........o.      
```

#### Opcodes

```
  0: 0x001B [0x32] ExtData[1]->MainSpeed = 29* * 0.1
  1: 0x001E [0x1F] MOVE_ENTITY: EventEntity moves to X=-40.978*, Z=240.405*, Y=-4.999*
  2: 0x0026 [0x1F] MOVE_ENTITY: Update entity position (mode=1)
  3: 0x0028 [0x6F] WAIT_FRAME_DELAY: Yield until WaitTime reaches zero
  4: 0x0029 [0x00] END_REQSTACK()
```

### Event 65535.3

#### Metadata

| Field        | Value   |
|--------------|---------|
| Entrypoint   | 0x002A  |
| Data Size    | 7 bytes |
| Instructions | 2       |

```
      00 01 02 03 04 05 06 07  08 09 0A 0B 0C 0D 0E 0F
      -- -- -- -- -- -- -- --  -- -- -- -- -- -- -- --
0020:                                7E 05 23 E2 05 01            ~.#...
0030: 00                                                .               
```

#### Opcodes

```
  0: 0x002A [0x7E] CHOCOBO_MOUNT: Dismount 07 (ID: 17162787/0x0105E223) (status = 0)
  1: 0x0030 [0x00] END_REQSTACK()
```

### Event 65535.4

#### Metadata

| Field        | Value   |
|--------------|---------|
| Entrypoint   | 0x0031  |
| Data Size    | 1 bytes |
| Instructions | 1       |

```
      00 01 02 03 04 05 06 07  08 09 0A 0B 0C 0D 0E 0F
      -- -- -- -- -- -- -- --  -- -- -- -- -- -- -- --
0030:    00                                              .              
```

#### Opcodes

```
  0: 0x0031 [0x00] END_REQSTACK()
```

### Event 65535.5

#### Metadata

| Field        | Value    |
|--------------|----------|
| Entrypoint   | 0x0032   |
| Data Size    | 18 bytes |
| Instructions | 4        |

```
      00 01 02 03 04 05 06 07  08 09 0A 0B 0C 0D 0E 0F
      -- -- -- -- -- -- -- --  -- -- -- -- -- -- -- --
0030:       22 00 2F 00 F8 FF  FF 7F 6C F8 FF FF 7F 01    "./.....l.....
0040: 80 02 80 00                                       ....            
```

#### Opcodes

```
  0: 0x0032 [0x22] ENTITY_HIDE_FLAG(enabled=0x00)
  1: 0x0034 [0x2F] EventEntity->Render.Flags0 &= ~0x80000 // Bit 19
  2: 0x003A [0x6C] FADE_ENTITY_COLOR(entity_id=EventEntity, end_alpha=0*, fade_time=1*)
  3: 0x0043 [0x00] END_REQSTACK()
```

### Event 65535.6

#### Metadata

| Field        | Value    |
|--------------|----------|
| Entrypoint   | 0x0044   |
| Data Size    | 10 bytes |
| Instructions | 2        |

```
      00 01 02 03 04 05 06 07  08 09 0A 0B 0C 0D 0E 0F
      -- -- -- -- -- -- -- --  -- -- -- -- -- -- -- --
0040:             6C F8 FF FF  7F 07 80 02 80 00            l.........  
```

#### Opcodes

```
  0: 0x0044 [0x6C] FADE_ENTITY_COLOR(entity_id=EventEntity, end_alpha=128*, fade_time=1*)
  1: 0x004D [0x00] END_REQSTACK()
```

### Event 65535.7

#### Metadata

| Field        | Value   |
|--------------|---------|
| Entrypoint   | 0x004E  |
| Data Size    | 9 bytes |
| Instructions | 3       |

```
      00 01 02 03 04 05 06 07  08 09 0A 0B 0C 0D 0E 0F
      -- -- -- -- -- -- -- --  -- -- -- -- -- -- -- --
0040:                                            22 00                ".
0050: 2F 00 F8 FF FF 7F 00                              /......         
```

#### Opcodes

```
  0: 0x004E [0x22] ENTITY_HIDE_FLAG(enabled=0x00)
  1: 0x0050 [0x2F] EventEntity->Render.Flags0 &= ~0x80000 // Bit 19
  2: 0x0056 [0x00] END_REQSTACK()
```

### Event 65535.8

#### Metadata

| Field        | Value   |
|--------------|---------|
| Entrypoint   | 0x0057  |
| Data Size    | 9 bytes |
| Instructions | 3       |

```
      00 01 02 03 04 05 06 07  08 09 0A 0B 0C 0D 0E 0F
      -- -- -- -- -- -- -- --  -- -- -- -- -- -- -- --
0050:                      22  01 2F 01 F8 FF FF 7F 00         "./......
```

#### Opcodes

```
  0: 0x0057 [0x22] ENTITY_HIDE_FLAG(enabled=0x01)
  1: 0x0059 [0x2F] EventEntity->Render.Flags0 |= 0x80000 // Bit 19
  2: 0x005F [0x00] END_REQSTACK()
```

### Event 65535.9

#### Metadata

| Field        | Value    |
|--------------|----------|
| Entrypoint   | 0x0060   |
| Data Size    | 10 bytes |
| Instructions | 2        |

```
      00 01 02 03 04 05 06 07  08 09 0A 0B 0C 0D 0E 0F
      -- -- -- -- -- -- -- --  -- -- -- -- -- -- -- --
0060: 6C F8 FF FF 7F 01 80 02  80 00                    l.........      
```

#### Opcodes

```
  0: 0x0060 [0x6C] FADE_ENTITY_COLOR(entity_id=EventEntity, end_alpha=0*, fade_time=1*)
  1: 0x0069 [0x00] END_REQSTACK()
```

### Event 65535.10

#### Metadata

| Field        | Value    |
|--------------|----------|
| Entrypoint   | 0x006A   |
| Data Size    | 10 bytes |
| Instructions | 2        |

```
      00 01 02 03 04 05 06 07  08 09 0A 0B 0C 0D 0E 0F
      -- -- -- -- -- -- -- --  -- -- -- -- -- -- -- --
0060:                                6C F8 FF FF 7F 07            l.....
0070: 80 02 80 00                                       ....            
```

#### Opcodes

```
  0: 0x006A [0x6C] FADE_ENTITY_COLOR(entity_id=EventEntity, end_alpha=128*, fade_time=1*)
  1: 0x0073 [0x00] END_REQSTACK()
```

### Event 65535.11

#### Metadata

| Field        | Value    |
|--------------|----------|
| Entrypoint   | 0x0074   |
| Data Size    | 22 bytes |
| Instructions | 2        |

```
      00 01 02 03 04 05 06 07  08 09 0A 0B 0C 0D 0E 0F
      -- -- -- -- -- -- -- --  -- -- -- -- -- -- -- --
0070:             B6 0E 01 80  00 80 02 80 01 80 01 80      ............
0080: 01 80 02 80 80 F8 FF FF  7F 00                    ..........      
```

#### Opcodes

```
  0: 0x0074 [0xB6] ENTITY_APPEARANCE_HANDLER(case=Look with Render flags, race=0*, face=4*, head=1*, body=0*, hands=0*, render_flags=0x8001)
  1: 0x0082 [0x02] IF !(4294962000* UNKNOWN_COND_15 0xFFF8) GOTO 0x007F
```

### Event 65535.12

#### Metadata

| Field        | Value     |
|--------------|-----------|
| Entrypoint   | 0x008A    |
| Data Size    | 167 bytes |
| Instructions | 35        |

```
      00 01 02 03 04 05 06 07  08 09 0A 0B 0C 0D 0E 0F
      -- -- -- -- -- -- -- --  -- -- -- -- -- -- -- --
0080:                                1C 08 80 59 04 1D            ...Y..
0090: E2 05 01 09 80 1F 00 0A  80 0B 80 0C 80 1F 01 1F  ................
00A0: 00 0D 80 0E 80 0C 80 1F  01 1F 00 0F 80 10 80 0C  ................
00B0: 80 1F 01 1F 00 11 80 12  80 0C 80 1F 01 1F 00 13  ................
00C0: 80 14 80 15 80 1F 01 1F  00 16 80 17 80 15 80 1F  ................
00D0: 01 1F 00 18 80 19 80 15  80 1F 01 1F 00 1A 80 1B  ................
00E0: 80 15 80 1F 01 1F 00 1C  80 1D 80 15 80 1F 01 1F  ................
00F0: 00 1E 80 1F 80 20 80 1F  01 1F 00 21 80 22 80 06  ..... .....!."..
0100: 80 1F 01 1F 00 23 80 24  80 06 80 1F 01 1F 00 25  .....#.$.......%
0110: 80 26 80 06 80 1F 01 1F  00 27 80 28 80 29 80 1F  .&.......'.(.)..
0120: 01 6F 7E 05 1D E2 05 01  22 01 2F 01 F8 FF FF 7F  .o~....."./.....
0130: 00                                                .               
```

#### Opcodes

```
  0: 0x008A [0x1C] WAIT(30* ticks)
  1: 0x008D [0x59] UPDATE_ENTITY_DATA: Set 01 (ID: 17162781/0x0105E21D) main speed = 80* * 0.1
  2: 0x0095 [0x1F] MOVE_ENTITY: EventEntity moves to X=0.459*, Z=49.181*, Y=-1.000*
  3: 0x009D [0x1F] MOVE_ENTITY: Update entity position (mode=1)
  4: 0x009F [0x1F] MOVE_ENTITY: EventEntity moves to X=-2.531*, Z=46.285*, Y=-1.000*
  5: 0x00A7 [0x1F] MOVE_ENTITY: Update entity position (mode=1)
  6: 0x00A9 [0x1F] MOVE_ENTITY: EventEntity moves to X=-7.007*, Z=41.449*, Y=-1.000*
  7: 0x00B1 [0x1F] MOVE_ENTITY: Update entity position (mode=1)
  8: 0x00B3 [0x1F] MOVE_ENTITY: EventEntity moves to X=-13.490*, Z=39.401*, Y=-1.000*
  9: 0x00BB [0x1F] MOVE_ENTITY: Update entity position (mode=1)
 10: 0x00BD [0x1F] MOVE_ENTITY: EventEntity moves to X=-51.141*, Z=38.746*, Y=-3.499*
 11: 0x00C5 [0x1F] MOVE_ENTITY: Update entity position (mode=1)
 12: 0x00C7 [0x1F] MOVE_ENTITY: EventEntity moves to X=-63.152*, Z=42.731*, Y=-3.499*
 13: 0x00CF [0x1F] MOVE_ENTITY: Update entity position (mode=1)
 14: 0x00D1 [0x1F] MOVE_ENTITY: EventEntity moves to X=-73.075*, Z=51.803*, Y=-3.499*
 15: 0x00D9 [0x1F] MOVE_ENTITY: Update entity position (mode=1)
 16: 0x00DB [0x1F] MOVE_ENTITY: EventEntity moves to X=-78.613*, Z=59.364*, Y=-3.499*
 17: 0x00E3 [0x1F] MOVE_ENTITY: Update entity position (mode=1)
 18: 0x00E5 [0x1F] MOVE_ENTITY: EventEntity moves to X=-76.580*, Z=75.410*, Y=-3.499*
 19: 0x00ED [0x1F] MOVE_ENTITY: Update entity position (mode=1)
 20: 0x00EF [0x1F] MOVE_ENTITY: EventEntity moves to X=-64.004*, Z=81.361*, Y=-5.000*
 21: 0x00F7 [0x1F] MOVE_ENTITY: Update entity position (mode=1)
 22: 0x00F9 [0x1F] MOVE_ENTITY: EventEntity moves to X=-49.175*, Z=83.509*, Y=-4.999*
 23: 0x0101 [0x1F] MOVE_ENTITY: Update entity position (mode=1)
 24: 0x0103 [0x1F] MOVE_ENTITY: EventEntity moves to X=-42.767*, Z=87.755*, Y=-4.999*
 25: 0x010B [0x1F] MOVE_ENTITY: Update entity position (mode=1)
 26: 0x010D [0x1F] MOVE_ENTITY: EventEntity moves to X=-41.067*, Z=92.184*, Y=-4.999*
 27: 0x0115 [0x1F] MOVE_ENTITY: Update entity position (mode=1)
 28: 0x0117 [0x1F] MOVE_ENTITY: EventEntity moves to X=-40.133*, Z=167.579*, Y=-5.023*
 29: 0x011F [0x1F] MOVE_ENTITY: Update entity position (mode=1)
 30: 0x0121 [0x6F] WAIT_FRAME_DELAY: Yield until WaitTime reaches zero
 31: 0x0122 [0x7E] CHOCOBO_MOUNT: Dismount 01 (ID: 17162781/0x0105E21D) (status = 0)
 32: 0x0128 [0x22] ENTITY_HIDE_FLAG(enabled=0x01)
 33: 0x012A [0x2F] EventEntity->Render.Flags0 |= 0x80000 // Bit 19
 34: 0x0130 [0x00] END_REQSTACK()
```

### Event 65535.13

#### Metadata

| Field        | Value     |
|--------------|-----------|
| Entrypoint   | 0x0131    |
| Data Size    | 186 bytes |
| Instructions | 38        |

```
      00 01 02 03 04 05 06 07  08 09 0A 0B 0C 0D 0E 0F
      -- -- -- -- -- -- -- --  -- -- -- -- -- -- -- --
0130:    1C 2A 80 59 04 1E E2  05 01 2B 80 1F 00 2C 80   .*.Y.....+...,.
0140: 2D 80 0C 80 1F 01 1F 00  2E 80 2F 80 0C 80 1F 01  -........./.....
0150: 1F 00 30 80 31 80 0C 80  1F 01 1F 00 32 80 33 80  ..0.1.......2.3.
0160: 0C 80 1F 01 1F 00 34 80  35 80 0C 80 1F 01 1F 00  ......4.5.......
0170: 13 80 14 80 15 80 1F 01  1F 00 16 80 17 80 15 80  ................
0180: 1F 01 1F 00 18 80 19 80  15 80 1F 01 1F 00 1A 80  ................
0190: 1B 80 15 80 1F 01 1F 00  1C 80 1D 80 15 80 1F 01  ................
01A0: 1F 00 1E 80 1F 80 20 80  1F 01 1F 00 21 80 22 80  ...... .....!.".
01B0: 06 80 1F 01 1F 00 36 80  37 80 06 80 1F 01 1F 00  ......6.7.......
01C0: 38 80 39 80 06 80 1F 01  1F 00 3A 80 3B 80 06 80  8.9.......:.;...
01D0: 1F 01 1F 00 27 80 28 80  29 80 1F 01 7E 05 1E E2  ....'.(.)...~...
01E0: 05 01 22 01 2F 01 F8 FF  FF 7F 00                 .."./......     
```

#### Opcodes

```
  0: 0x0131 [0x1C] WAIT(150* ticks)
  1: 0x0134 [0x59] UPDATE_ENTITY_DATA: Set 02 (ID: 17162782/0x0105E21E) main speed = 79* * 0.1
  2: 0x013C [0x1F] MOVE_ENTITY: EventEntity moves to X=-0.735*, Z=52.571*, Y=-1.000*
  3: 0x0144 [0x1F] MOVE_ENTITY: Update entity position (mode=1)
  4: 0x0146 [0x1F] MOVE_ENTITY: EventEntity moves to X=-2.958*, Z=50.565*, Y=-1.000*
  5: 0x014E [0x1F] MOVE_ENTITY: Update entity position (mode=1)
  6: 0x0150 [0x1F] MOVE_ENTITY: EventEntity moves to X=-6.578*, Z=43.709*, Y=-1.000*
  7: 0x0158 [0x1F] MOVE_ENTITY: Update entity position (mode=1)
  8: 0x015A [0x1F] MOVE_ENTITY: EventEntity moves to X=-9.780*, Z=39.736*, Y=-1.000*
  9: 0x0162 [0x1F] MOVE_ENTITY: Update entity position (mode=1)
 10: 0x0164 [0x1F] MOVE_ENTITY: EventEntity moves to X=-13.066*, Z=38.914*, Y=-1.000*
 11: 0x016C [0x1F] MOVE_ENTITY: Update entity position (mode=1)
 12: 0x016E [0x1F] MOVE_ENTITY: EventEntity moves to X=-51.141*, Z=38.746*, Y=-3.499*
 13: 0x0176 [0x1F] MOVE_ENTITY: Update entity position (mode=1)
 14: 0x0178 [0x1F] MOVE_ENTITY: EventEntity moves to X=-63.152*, Z=42.731*, Y=-3.499*
 15: 0x0180 [0x1F] MOVE_ENTITY: Update entity position (mode=1)
 16: 0x0182 [0x1F] MOVE_ENTITY: EventEntity moves to X=-73.075*, Z=51.803*, Y=-3.499*
 17: 0x018A [0x1F] MOVE_ENTITY: Update entity position (mode=1)
 18: 0x018C [0x1F] MOVE_ENTITY: EventEntity moves to X=-78.613*, Z=59.364*, Y=-3.499*
 19: 0x0194 [0x1F] MOVE_ENTITY: Update entity position (mode=1)
 20: 0x0196 [0x1F] MOVE_ENTITY: EventEntity moves to X=-76.580*, Z=75.410*, Y=-3.499*
 21: 0x019E [0x1F] MOVE_ENTITY: Update entity position (mode=1)
 22: 0x01A0 [0x1F] MOVE_ENTITY: EventEntity moves to X=-64.004*, Z=81.361*, Y=-5.000*
 23: 0x01A8 [0x1F] MOVE_ENTITY: Update entity position (mode=1)
 24: 0x01AA [0x1F] MOVE_ENTITY: EventEntity moves to X=-49.175*, Z=83.509*, Y=-4.999*
 25: 0x01B2 [0x1F] MOVE_ENTITY: Update entity position (mode=1)
 26: 0x01B4 [0x1F] MOVE_ENTITY: EventEntity moves to X=-39.708*, Z=89.827*, Y=-4.999*
 27: 0x01BC [0x1F] MOVE_ENTITY: Update entity position (mode=1)
 28: 0x01BE [0x1F] MOVE_ENTITY: EventEntity moves to X=-38.677*, Z=93.420*, Y=-4.999*
 29: 0x01C6 [0x1F] MOVE_ENTITY: Update entity position (mode=1)
 30: 0x01C8 [0x1F] MOVE_ENTITY: EventEntity moves to X=-38.282*, Z=99.163*, Y=-4.999*
 31: 0x01D0 [0x1F] MOVE_ENTITY: Update entity position (mode=1)
 32: 0x01D2 [0x1F] MOVE_ENTITY: EventEntity moves to X=-40.133*, Z=167.579*, Y=-5.023*
 33: 0x01DA [0x1F] MOVE_ENTITY: Update entity position (mode=1)
 34: 0x01DC [0x7E] CHOCOBO_MOUNT: Dismount 02 (ID: 17162782/0x0105E21E) (status = 0)
 35: 0x01E2 [0x22] ENTITY_HIDE_FLAG(enabled=0x01)
 36: 0x01E4 [0x2F] EventEntity->Render.Flags0 |= 0x80000 // Bit 19
 37: 0x01EA [0x00] END_REQSTACK()
```

### Event 65535.14

#### Metadata

| Field        | Value    |
|--------------|----------|
| Entrypoint   | 0x01EB   |
| Data Size    | 83 bytes |
| Instructions | 18       |

```
      00 01 02 03 04 05 06 07  08 09 0A 0B 0C 0D 0E 0F
      -- -- -- -- -- -- -- --  -- -- -- -- -- -- -- --
01E0:                                   59 04 25 E2 05             Y.%..
01F0: 01 3C 80 1F 00 3D 80 3E  80 06 80 1F 01 6F 59 04  .<...=.>.....oY.
0200: F8 FF FF 7F 3F 80 1F 00  40 80 41 80 06 80 1F 01  ....?...@.A.....
0210: 1F 00 42 80 43 80 06 80  1F 01 1F 00 44 80 45 80  ..B.C.......D.E.
0220: 06 80 1F 01 1F 00 27 80  28 80 29 80 1F 01 6F 7E  ......'.(.)...o~
0230: 05 25 E2 05 01 22 01 2F  01 F8 FF FF 7F 00        .%..."./......  
```

#### Opcodes

```
  0: 0x01EB [0x59] UPDATE_ENTITY_DATA: Set Unnamed NPC (ID: 17162789/0x0105E225) main speed = 25* * 0.1
  1: 0x01F3 [0x1F] MOVE_ENTITY: EventEntity moves to X=-25.197*, Z=86.979*, Y=-4.999*
  2: 0x01FB [0x1F] MOVE_ENTITY: Update entity position (mode=1)
  3: 0x01FD [0x6F] WAIT_FRAME_DELAY: Yield until WaitTime reaches zero
  4: 0x01FE [0x59] UPDATE_ENTITY_DATA: Set EventEntity main speed = 78* * 0.1
  5: 0x0206 [0x1F] MOVE_ENTITY: EventEntity moves to X=-32.985*, Z=94.399*, Y=-4.999*
  6: 0x020E [0x1F] MOVE_ENTITY: Update entity position (mode=1)
  7: 0x0210 [0x1F] MOVE_ENTITY: EventEntity moves to X=-37.211*, Z=98.747*, Y=-4.999*
  8: 0x0218 [0x1F] MOVE_ENTITY: Update entity position (mode=1)
  9: 0x021A [0x1F] MOVE_ENTITY: EventEntity moves to X=-38.522*, Z=107.127*, Y=-4.999*
 10: 0x0222 [0x1F] MOVE_ENTITY: Update entity position (mode=1)
 11: 0x0224 [0x1F] MOVE_ENTITY: EventEntity moves to X=-40.133*, Z=167.579*, Y=-5.023*
 12: 0x022C [0x1F] MOVE_ENTITY: Update entity position (mode=1)
 13: 0x022E [0x6F] WAIT_FRAME_DELAY: Yield until WaitTime reaches zero
 14: 0x022F [0x7E] CHOCOBO_MOUNT: Dismount Unnamed NPC (ID: 17162789/0x0105E225) (status = 0)
 15: 0x0235 [0x22] ENTITY_HIDE_FLAG(enabled=0x01)
 16: 0x0237 [0x2F] EventEntity->Render.Flags0 |= 0x80000 // Bit 19
 17: 0x023D [0x00] END_REQSTACK()
```

### Event 65535.15

#### Metadata

| Field        | Value     |
|--------------|-----------|
| Entrypoint   | 0x023E    |
| Data Size    | 154 bytes |
| Instructions | 32        |

```
      00 01 02 03 04 05 06 07  08 09 0A 0B 0C 0D 0E 0F
      -- -- -- -- -- -- -- --  -- -- -- -- -- -- -- --
0230:                                            59 04                Y.
0240: 26 E2 05 01 09 80 1F 00  46 80 47 80 48 80 1F 01  &.......F.G.H...
0250: 1F 00 49 80 4A 80 48 80  1F 01 1F 00 4B 80 4C 80  ..I.J.H.....K.L.
0260: 48 80 1F 01 1F 00 13 80  14 80 15 80 1F 01 1F 00  H...............
0270: 16 80 17 80 15 80 1F 01  1F 00 18 80 19 80 15 80  ................
0280: 1F 01 1F 00 1A 80 1B 80  15 80 1F 01 1F 00 1C 80  ................
0290: 1D 80 15 80 1F 01 1F 00  1E 80 1F 80 20 80 1F 01  ............ ...
02A0: 1F 00 21 80 22 80 06 80  1F 01 1F 00 23 80 24 80  ..!.".......#.$.
02B0: 06 80 1F 01 1F 00 25 80  26 80 06 80 1F 01 1F 00  ......%.&.......
02C0: 27 80 28 80 29 80 1F 01  6F 7E 05 26 E2 05 01 22  '.(.)...o~.&..."
02D0: 01 2F 01 F8 FF FF 7F 00                           ./......        
```

#### Opcodes

```
  0: 0x023E [0x59] UPDATE_ENTITY_DATA: Set Unnamed NPC (ID: 17162790/0x0105E226) main speed = 80* * 0.1
  1: 0x0246 [0x1F] MOVE_ENTITY: EventEntity moves to X=-6.086*, Z=31.136*, Y=-0.999*
  2: 0x024E [0x1F] MOVE_ENTITY: Update entity position (mode=1)
  3: 0x0250 [0x1F] MOVE_ENTITY: EventEntity moves to X=-8.016*, Z=35.131*, Y=-0.999*
  4: 0x0258 [0x1F] MOVE_ENTITY: Update entity position (mode=1)
  5: 0x025A [0x1F] MOVE_ENTITY: EventEntity moves to X=-11.617*, Z=38.998*, Y=-0.999*
  6: 0x0262 [0x1F] MOVE_ENTITY: Update entity position (mode=1)
  7: 0x0264 [0x1F] MOVE_ENTITY: EventEntity moves to X=-51.141*, Z=38.746*, Y=-3.499*
  8: 0x026C [0x1F] MOVE_ENTITY: Update entity position (mode=1)
  9: 0x026E [0x1F] MOVE_ENTITY: EventEntity moves to X=-63.152*, Z=42.731*, Y=-3.499*
 10: 0x0276 [0x1F] MOVE_ENTITY: Update entity position (mode=1)
 11: 0x0278 [0x1F] MOVE_ENTITY: EventEntity moves to X=-73.075*, Z=51.803*, Y=-3.499*
 12: 0x0280 [0x1F] MOVE_ENTITY: Update entity position (mode=1)
 13: 0x0282 [0x1F] MOVE_ENTITY: EventEntity moves to X=-78.613*, Z=59.364*, Y=-3.499*
 14: 0x028A [0x1F] MOVE_ENTITY: Update entity position (mode=1)
 15: 0x028C [0x1F] MOVE_ENTITY: EventEntity moves to X=-76.580*, Z=75.410*, Y=-3.499*
 16: 0x0294 [0x1F] MOVE_ENTITY: Update entity position (mode=1)
 17: 0x0296 [0x1F] MOVE_ENTITY: EventEntity moves to X=-64.004*, Z=81.361*, Y=-5.000*
 18: 0x029E [0x1F] MOVE_ENTITY: Update entity position (mode=1)
 19: 0x02A0 [0x1F] MOVE_ENTITY: EventEntity moves to X=-49.175*, Z=83.509*, Y=-4.999*
 20: 0x02A8 [0x1F] MOVE_ENTITY: Update entity position (mode=1)
 21: 0x02AA [0x1F] MOVE_ENTITY: EventEntity moves to X=-42.767*, Z=87.755*, Y=-4.999*
 22: 0x02B2 [0x1F] MOVE_ENTITY: Update entity position (mode=1)
 23: 0x02B4 [0x1F] MOVE_ENTITY: EventEntity moves to X=-41.067*, Z=92.184*, Y=-4.999*
 24: 0x02BC [0x1F] MOVE_ENTITY: Update entity position (mode=1)
 25: 0x02BE [0x1F] MOVE_ENTITY: EventEntity moves to X=-40.133*, Z=167.579*, Y=-5.023*
 26: 0x02C6 [0x1F] MOVE_ENTITY: Update entity position (mode=1)
 27: 0x02C8 [0x6F] WAIT_FRAME_DELAY: Yield until WaitTime reaches zero
 28: 0x02C9 [0x7E] CHOCOBO_MOUNT: Dismount Unnamed NPC (ID: 17162790/0x0105E226) (status = 0)
 29: 0x02CF [0x22] ENTITY_HIDE_FLAG(enabled=0x01)
 30: 0x02D1 [0x2F] EventEntity->Render.Flags0 |= 0x80000 // Bit 19
 31: 0x02D7 [0x00] END_REQSTACK()
```

### Event 65535.16

#### Metadata

| Field        | Value     |
|--------------|-----------|
| Entrypoint   | 0x02D8    |
| Data Size    | 167 bytes |
| Instructions | 35        |

```
      00 01 02 03 04 05 06 07  08 09 0A 0B 0C 0D 0E 0F
      -- -- -- -- -- -- -- --  -- -- -- -- -- -- -- --
02D0:                          1C 4D 80 59 04 27 E2 05          .M.Y.'..
02E0: 01 3F 80 1F 00 4E 80 4F  80 48 80 1F 01 1F 00 50  .?...N.O.H.....P
02F0: 80 51 80 48 80 1F 01 1F  00 52 80 53 80 48 80 1F  .Q.H.....R.S.H..
0300: 01 1F 00 13 80 14 80 15  80 1F 01 1F 00 16 80 17  ................
0310: 80 15 80 1F 01 1F 00 18  80 19 80 15 80 1F 01 1F  ................
0320: 00 1A 80 1B 80 15 80 1F  01 1F 00 1C 80 1D 80 15  ................
0330: 80 1F 01 1F 00 1E 80 1F  80 20 80 1F 01 1F 00 21  ......... .....!
0340: 80 22 80 06 80 1F 01 1F  00 36 80 37 80 06 80 1F  .".......6.7....
0350: 01 1F 00 38 80 39 80 06  80 1F 01 1F 00 3A 80 3B  ...8.9.......:.;
0360: 80 06 80 1F 01 1F 00 27  80 28 80 29 80 1F 01 6F  .......'.(.)...o
0370: 7E 05 27 E2 05 01 22 01  2F 01 F8 FF FF 7F 00     ~.'..."./...... 
```

#### Opcodes

```
  0: 0x02D8 [0x1C] WAIT(180* ticks)
  1: 0x02DB [0x59] UPDATE_ENTITY_DATA: Set Unnamed NPC (ID: 17162791/0x0105E227) main speed = 78* * 0.1
  2: 0x02E3 [0x1F] MOVE_ENTITY: EventEntity moves to X=-1.740*, Z=31.643*, Y=-0.999*
  3: 0x02EB [0x1F] MOVE_ENTITY: Update entity position (mode=1)
  4: 0x02ED [0x1F] MOVE_ENTITY: EventEntity moves to X=-4.175*, Z=36.997*, Y=-0.999*
  5: 0x02F5 [0x1F] MOVE_ENTITY: Update entity position (mode=1)
  6: 0x02F7 [0x1F] MOVE_ENTITY: EventEntity moves to X=-8.672*, Z=40.970*, Y=-0.999*
  7: 0x02FF [0x1F] MOVE_ENTITY: Update entity position (mode=1)
  8: 0x0301 [0x1F] MOVE_ENTITY: EventEntity moves to X=-51.141*, Z=38.746*, Y=-3.499*
  9: 0x0309 [0x1F] MOVE_ENTITY: Update entity position (mode=1)
 10: 0x030B [0x1F] MOVE_ENTITY: EventEntity moves to X=-63.152*, Z=42.731*, Y=-3.499*
 11: 0x0313 [0x1F] MOVE_ENTITY: Update entity position (mode=1)
 12: 0x0315 [0x1F] MOVE_ENTITY: EventEntity moves to X=-73.075*, Z=51.803*, Y=-3.499*
 13: 0x031D [0x1F] MOVE_ENTITY: Update entity position (mode=1)
 14: 0x031F [0x1F] MOVE_ENTITY: EventEntity moves to X=-78.613*, Z=59.364*, Y=-3.499*
 15: 0x0327 [0x1F] MOVE_ENTITY: Update entity position (mode=1)
 16: 0x0329 [0x1F] MOVE_ENTITY: EventEntity moves to X=-76.580*, Z=75.410*, Y=-3.499*
 17: 0x0331 [0x1F] MOVE_ENTITY: Update entity position (mode=1)
 18: 0x0333 [0x1F] MOVE_ENTITY: EventEntity moves to X=-64.004*, Z=81.361*, Y=-5.000*
 19: 0x033B [0x1F] MOVE_ENTITY: Update entity position (mode=1)
 20: 0x033D [0x1F] MOVE_ENTITY: EventEntity moves to X=-49.175*, Z=83.509*, Y=-4.999*
 21: 0x0345 [0x1F] MOVE_ENTITY: Update entity position (mode=1)
 22: 0x0347 [0x1F] MOVE_ENTITY: EventEntity moves to X=-39.708*, Z=89.827*, Y=-4.999*
 23: 0x034F [0x1F] MOVE_ENTITY: Update entity position (mode=1)
 24: 0x0351 [0x1F] MOVE_ENTITY: EventEntity moves to X=-38.677*, Z=93.420*, Y=-4.999*
 25: 0x0359 [0x1F] MOVE_ENTITY: Update entity position (mode=1)
 26: 0x035B [0x1F] MOVE_ENTITY: EventEntity moves to X=-38.282*, Z=99.163*, Y=-4.999*
 27: 0x0363 [0x1F] MOVE_ENTITY: Update entity position (mode=1)
 28: 0x0365 [0x1F] MOVE_ENTITY: EventEntity moves to X=-40.133*, Z=167.579*, Y=-5.023*
 29: 0x036D [0x1F] MOVE_ENTITY: Update entity position (mode=1)
 30: 0x036F [0x6F] WAIT_FRAME_DELAY: Yield until WaitTime reaches zero
 31: 0x0370 [0x7E] CHOCOBO_MOUNT: Dismount Unnamed NPC (ID: 17162791/0x0105E227) (status = 0)
 32: 0x0376 [0x22] ENTITY_HIDE_FLAG(enabled=0x01)
 33: 0x0378 [0x2F] EventEntity->Render.Flags0 |= 0x80000 // Bit 19
 34: 0x037E [0x00] END_REQSTACK()
```

### Event 65535.17

#### Metadata

| Field        | Value    |
|--------------|----------|
| Entrypoint   | 0x037F   |
| Data Size    | 69 bytes |
| Instructions | 15       |

```
      00 01 02 03 04 05 06 07  08 09 0A 0B 0C 0D 0E 0F
      -- -- -- -- -- -- -- --  -- -- -- -- -- -- -- --
0370:                                               1C                 .
0380: 54 80 59 04 94 E2 05 01  55 80 1F 00 56 80 57 80  T.Y.....U...V.W.
0390: 58 80 1F 01 1F 00 59 80  5A 80 58 80 1F 01 59 04  X.....Y.Z.X...Y.
03A0: F8 FF FF 7F 5B 80 1F 00  5C 80 5D 80 58 80 1F 01  ....[...\.].X...
03B0: 1F 00 5E 80 5F 80 15 80  1F 01 6F 22 01 2F 01 F8  ..^._.....o"./..
03C0: FF FF 7F 00                                       ....            
```

#### Opcodes

```
  0: 0x037F [0x1C] WAIT(360* ticks)
  1: 0x0382 [0x59] UPDATE_ENTITY_DATA: Set 02 (ID: 17162900/0x0105E294) main speed = 15* * 0.1
  2: 0x038A [0x1F] MOVE_ENTITY: EventEntity moves to X=-26.970*, Z=63.607*, Y=-3.500*
  3: 0x0392 [0x1F] MOVE_ENTITY: Update entity position (mode=1)
  4: 0x0394 [0x1F] MOVE_ENTITY: EventEntity moves to X=-25.762*, Z=63.002*, Y=-3.500*
  5: 0x039C [0x1F] MOVE_ENTITY: Update entity position (mode=1)
  6: 0x039E [0x59] UPDATE_ENTITY_DATA: Set EventEntity main speed = 40* * 0.1
  7: 0x03A6 [0x1F] MOVE_ENTITY: EventEntity moves to X=-47.406*, Z=58.894*, Y=-3.500*
  8: 0x03AE [0x1F] MOVE_ENTITY: Update entity position (mode=1)
  9: 0x03B0 [0x1F] MOVE_ENTITY: EventEntity moves to X=-56.954*, Z=53.463*, Y=-3.499*
 10: 0x03B8 [0x1F] MOVE_ENTITY: Update entity position (mode=1)
 11: 0x03BA [0x6F] WAIT_FRAME_DELAY: Yield until WaitTime reaches zero
 12: 0x03BB [0x22] ENTITY_HIDE_FLAG(enabled=0x01)
 13: 0x03BD [0x2F] EventEntity->Render.Flags0 |= 0x80000 // Bit 19
 14: 0x03C3 [0x00] END_REQSTACK()
```

### Event 65535.18

#### Metadata

| Field        | Value    |
|--------------|----------|
| Entrypoint   | 0x03C4   |
| Data Size    | 38 bytes |
| Instructions | 9        |

```
      00 01 02 03 04 05 06 07  08 09 0A 0B 0C 0D 0E 0F
      -- -- -- -- -- -- -- --  -- -- -- -- -- -- -- --
03C0:             59 04 F8 FF  FF 7F 60 80 1F 00 61 80      Y.....`...a.
03D0: 62 80 63 80 1F 01 1F 00  64 80 65 80 58 80 1F 01  b.c.....d.e.X...
03E0: 6F 22 01 2F 01 F8 FF FF  7F 00                    o"./......      
```

#### Opcodes

```
  0: 0x03C4 [0x59] UPDATE_ENTITY_DATA: Set EventEntity main speed = 27* * 0.1
  1: 0x03CC [0x1F] MOVE_ENTITY: EventEntity moves to X=-30.382*, Z=74.601*, Y=-3.574*
  2: 0x03D4 [0x1F] MOVE_ENTITY: Update entity position (mode=1)
  3: 0x03D6 [0x1F] MOVE_ENTITY: EventEntity moves to X=-54.461*, Z=69.456*, Y=-3.500*
  4: 0x03DE [0x1F] MOVE_ENTITY: Update entity position (mode=1)
  5: 0x03E0 [0x6F] WAIT_FRAME_DELAY: Yield until WaitTime reaches zero
  6: 0x03E1 [0x22] ENTITY_HIDE_FLAG(enabled=0x01)
  7: 0x03E3 [0x2F] EventEntity->Render.Flags0 |= 0x80000 // Bit 19
  8: 0x03E9 [0x00] END_REQSTACK()
```

### Event 65535.19

#### Metadata

| Field        | Value    |
|--------------|----------|
| Entrypoint   | 0x03EA   |
| Data Size    | 38 bytes |
| Instructions | 9        |

```
      00 01 02 03 04 05 06 07  08 09 0A 0B 0C 0D 0E 0F
      -- -- -- -- -- -- -- --  -- -- -- -- -- -- -- --
03E0:                                59 04 F8 FF FF 7F            Y.....
03F0: 60 80 1F 00 66 80 67 80  68 80 1F 01 1F 00 69 80  `...f.g.h.....i.
0400: 6A 80 58 80 1F 01 6F 22  01 2F 01 F8 FF FF 7F 00  j.X...o"./......
```

#### Opcodes

```
  0: 0x03EA [0x59] UPDATE_ENTITY_DATA: Set EventEntity main speed = 27* * 0.1
  1: 0x03F2 [0x1F] MOVE_ENTITY: EventEntity moves to X=-29.325*, Z=75.371*, Y=-3.529*
  2: 0x03FA [0x1F] MOVE_ENTITY: Update entity position (mode=1)
  3: 0x03FC [0x1F] MOVE_ENTITY: EventEntity moves to X=-53.209*, Z=70.575*, Y=-3.500*
  4: 0x0404 [0x1F] MOVE_ENTITY: Update entity position (mode=1)
  5: 0x0406 [0x6F] WAIT_FRAME_DELAY: Yield until WaitTime reaches zero
  6: 0x0407 [0x22] ENTITY_HIDE_FLAG(enabled=0x01)
  7: 0x0409 [0x2F] EventEntity->Render.Flags0 |= 0x80000 // Bit 19
  8: 0x040F [0x00] END_REQSTACK()
```

### Event 65535.20

#### Metadata

| Field        | Value    |
|--------------|----------|
| Entrypoint   | 0x0410   |
| Data Size    | 48 bytes |
| Instructions | 11       |

```
      00 01 02 03 04 05 06 07  08 09 0A 0B 0C 0D 0E 0F
      -- -- -- -- -- -- -- --  -- -- -- -- -- -- -- --
0410: 59 04 F8 FF FF 7F 60 80  1F 00 6B 80 6C 80 6D 80  Y.....`...k.l.m.
0420: 1F 01 1F 00 6E 80 6F 80  58 80 1F 01 1F 00 70 80  ....n.o.X.....p.
0430: 71 80 58 80 1F 01 6F 22  01 2F 01 F8 FF FF 7F 00  q.X...o"./......
```

#### Opcodes

```
  0: 0x0410 [0x59] UPDATE_ENTITY_DATA: Set EventEntity main speed = 27* * 0.1
  1: 0x0418 [0x1F] MOVE_ENTITY: EventEntity moves to X=-27.766*, Z=73.600*, Y=-3.414*
  2: 0x0420 [0x1F] MOVE_ENTITY: Update entity position (mode=1)
  3: 0x0422 [0x1F] MOVE_ENTITY: EventEntity moves to X=-52.430*, Z=73.638*, Y=-3.500*
  4: 0x042A [0x1F] MOVE_ENTITY: Update entity position (mode=1)
  5: 0x042C [0x1F] MOVE_ENTITY: EventEntity moves to X=-54.193*, Z=72.044*, Y=-3.500*
  6: 0x0434 [0x1F] MOVE_ENTITY: Update entity position (mode=1)
  7: 0x0436 [0x6F] WAIT_FRAME_DELAY: Yield until WaitTime reaches zero
  8: 0x0437 [0x22] ENTITY_HIDE_FLAG(enabled=0x01)
  9: 0x0439 [0x2F] EventEntity->Render.Flags0 |= 0x80000 // Bit 19
 10: 0x043F [0x00] END_REQSTACK()
```

### Event 65535.21

#### Metadata

| Field        | Value    |
|--------------|----------|
| Entrypoint   | 0x0440   |
| Data Size    | 19 bytes |
| Instructions | 4        |

```
      00 01 02 03 04 05 06 07  08 09 0A 0B 0C 0D 0E 0F
      -- -- -- -- -- -- -- --  -- -- -- -- -- -- -- --
0440: 59 04 F8 FF FF 7F 72 80  1F 00 73 80 74 80 20 80  Y.....r...s.t. .
0450: 1F 01 00                                          ...             
```

#### Opcodes

```
  0: 0x0440 [0x59] UPDATE_ENTITY_DATA: Set EventEntity main speed = 42* * 0.1
  1: 0x0448 [0x1F] MOVE_ENTITY: EventEntity moves to X=-22.678*, Z=81.353*, Y=-5.000*
  2: 0x0450 [0x1F] MOVE_ENTITY: Update entity position (mode=1)
  3: 0x0452 [0x00] END_REQSTACK()
```

### Event 65535.22

#### Metadata

| Field        | Value    |
|--------------|----------|
| Entrypoint   | 0x0453   |
| Data Size    | 22 bytes |
| Instructions | 5        |

```
      00 01 02 03 04 05 06 07  08 09 0A 0B 0C 0D 0E 0F
      -- -- -- -- -- -- -- --  -- -- -- -- -- -- -- --
0450:          59 04 F8 FF FF  7F 72 80 1C 75 80 1F 00     Y.....r..u...
0460: 73 80 74 80 20 80 1F 01  00                       s.t. ....       
```

#### Opcodes

```
  0: 0x0453 [0x59] UPDATE_ENTITY_DATA: Set EventEntity main speed = 42* * 0.1
  1: 0x045B [0x1C] WAIT(60* ticks)
  2: 0x045E [0x1F] MOVE_ENTITY: EventEntity moves to X=-22.678*, Z=81.353*, Y=-5.000*
  3: 0x0466 [0x1F] MOVE_ENTITY: Update entity position (mode=1)
  4: 0x0468 [0x00] END_REQSTACK()
```

### Event 65535.23

#### Metadata

| Field        | Value    |
|--------------|----------|
| Entrypoint   | 0x0469   |
| Data Size    | 22 bytes |
| Instructions | 5        |

```
      00 01 02 03 04 05 06 07  08 09 0A 0B 0C 0D 0E 0F
      -- -- -- -- -- -- -- --  -- -- -- -- -- -- -- --
0460:                             59 04 F8 FF FF 7F 72           Y.....r
0470: 80 1C 76 80 1F 00 73 80  74 80 20 80 1F 01 00     ..v...s.t. .... 
```

#### Opcodes

```
  0: 0x0469 [0x59] UPDATE_ENTITY_DATA: Set EventEntity main speed = 42* * 0.1
  1: 0x0471 [0x1C] WAIT(120* ticks)
  2: 0x0474 [0x1F] MOVE_ENTITY: EventEntity moves to X=-22.678*, Z=81.353*, Y=-5.000*
  3: 0x047C [0x1F] MOVE_ENTITY: Update entity position (mode=1)
  4: 0x047E [0x00] END_REQSTACK()
```

### Event 65535.24

#### Metadata

| Field        | Value    |
|--------------|----------|
| Entrypoint   | 0x047F   |
| Data Size    | 13 bytes |
| Instructions | 5        |

```
      00 01 02 03 04 05 06 07  08 09 0A 0B 0C 0D 0E 0F
      -- -- -- -- -- -- -- --  -- -- -- -- -- -- -- --
0470:                                               06                 .
0480: 08 10 1C 77 80 1C 78 80  05 08 10 00              ...w..x.....    
```

#### Opcodes

```
  0: 0x047F [0x06] Work_Zone[8] = 0
  1: 0x0482 [0x1C] WAIT(600* ticks)
  2: 0x0485 [0x1C] WAIT(5* ticks)
  3: 0x0488 [0x05] Work_Zone[8] = 1
  4: 0x048B [0x00] END_REQSTACK()
```

### Event 65535.25

#### Metadata

| Field        | Value     |
|--------------|-----------|
| Entrypoint   | 0x048C    |
| Data Size    | 221 bytes |
| Instructions | 26        |

```
      00 01 02 03 04 05 06 07  08 09 0A 0B 0C 0D 0E 0F
      -- -- -- -- -- -- -- --  -- -- -- -- -- -- -- --
0480:                                      06 09 10 1C              ....
0490: 2A 80 52 79 80 F0 FF FF  7F F0 FF FF 7F 79 30 34  *.Ry.........y04
04A0: 32 45 79 80 1E E2 05 01  1E E2 05 01 79 30 34 35  2Ey.........y045
04B0: 01 80 1C 7A 80 52 79 80  1E E2 05 01 1E E2 05 01  ...z.Ry.........
04C0: 79 30 34 35 45 79 80 F0  FF FF 7F F0 FF FF 7F 79  y045Ey.........y
04D0: 30 35 32 01 80 27 10 93  E2 05 01 0C 27 10 95 E2  052..'......'...
04E0: 05 01 0C BA 44 E2 05 01  7B 80 7C 80 15 80 7D 80  ....D...{.|...}.
04F0: BA 45 E2 05 01 7B 80 7C  80 15 80 7D 80 BA 46 E2  .E...{.|...}..F.
0500: 05 01 7B 80 7C 80 15 80  7D 80 29 10 23 E2 05 01  ..{.|...}.).#...
0510: 02 29 10 24 E2 05 01 02  79 00 28 E2 05 01 20 E2  .).$....y.(... .
0520: 05 01 66 7E 80 28 E2 05  01 28 E2 05 01 74 6C 6B  ..f~.(...(...tlk
0530: 30 27 10 FE E2 05 01 0F  27 10 FF E2 05 01 10 27  0'......'......'
0540: 10 00 E3 05 01 11 1C 78  80 27 10 44 E2 05 01 13  .......x.'.D....
0550: 27 10 45 E2 05 01 15 27  10 46 E2 05 01 16 27 10  '.E....'.F....'.
0560: 11 E3 05 01 12 05 09 10  00                       .........       
```

#### Opcodes

```
  0: 0x048C [0x06] Work_Zone[9] = 0
  1: 0x048F [0x1C] WAIT(150* ticks)
  2: 0x0492 [0x52] END_LOAD_SCHEDULER: End scheduler "y042" with entities [LocalPlayer, LocalPlayer], work=533*
  3: 0x04A1 [0x45] LOAD_SCHEDULED_TASK: Load scheduler "y045" with entities [02 (ID: 17162782/0x0105E21E), 02 (ID: 17162782/0x0105E21E)], work=[533*, 0*]
  4: 0x04B2 [0x1C] WAIT(300* ticks)
  5: 0x04B5 [0x52] END_LOAD_SCHEDULER: End scheduler "y045" with entities [02 (ID: 17162782/0x0105E21E), 02 (ID: 17162782/0x0105E21E)], work=533*
  6: 0x04C4 [0x45] LOAD_SCHEDULED_TASK: Load scheduler "y052" with entities [LocalPlayer, LocalPlayer], work=[533*, 0*]
  7: 0x04D5 [0x27] REQ_SET(priority=0x10, entity_id=01 (ID: 17162899/0x0105E293), tag_num=0x0C)
  8: 0x04DC [0x27] REQ_SET(priority=0x10, entity_id=02 (ID: 17162901/0x0105E295), tag_num=0x0C)
  9: 0x04E3 [0xBA] SET_ENTITY_POSITION(entity_id=02 (ID: 17162820/0x0105E244), pos_x=-60.989*, pos_z=70.254*, pos_y=-3.499*, direction=359.7°*)
 10: 0x04F0 [0xBA] SET_ENTITY_POSITION(entity_id=03 (ID: 17162821/0x0105E245), pos_x=-60.989*, pos_z=70.254*, pos_y=-3.499*, direction=359.7°*)
 11: 0x04FD [0xBA] SET_ENTITY_POSITION(entity_id=04 (ID: 17162822/0x0105E246), pos_x=-60.989*, pos_z=70.254*, pos_y=-3.499*, direction=359.7°*)
 12: 0x050A [0x29] REQ_SET_WAIT(priority=0x10, entity_id=07 (ID: 17162787/0x0105E223), tag_num=0x02)
 13: 0x0511 [0x29] REQ_SET_WAIT(priority=0x10, entity_id=Unnamed NPC (ID: 17162788/0x0105E224), tag_num=0x02)
 14: 0x0518 [0x79] Unnamed NPC (ID: 17162792/0x0105E228) looks at 04 (ID: 17162784/0x0105E220) (Basic look)
 15: 0x0522 [0x66] LOAD_EXT_SCHEDULER_MAIN: Load scheduler "tlk0" with entities [Unnamed NPC (ID: 17162792/0x0105E228), Unnamed NPC (ID: 17162792/0x0105E228)], work=49*
 16: 0x0531 [0x27] REQ_SET(priority=0x10, entity_id=01 (ID: 17163006/0x0105E2FE), tag_num=0x0F)
 17: 0x0538 [0x27] REQ_SET(priority=0x10, entity_id=02 (ID: 17163007/0x0105E2FF), tag_num=0x10)
 18: 0x053F [0x27] REQ_SET(priority=0x10, entity_id=03 (ID: 17163008/0x0105E300), tag_num=0x11)
 19: 0x0546 [0x1C] WAIT(5* ticks)
 20: 0x0549 [0x27] REQ_SET(priority=0x10, entity_id=02 (ID: 17162820/0x0105E244), tag_num=0x13)
 21: 0x0550 [0x27] REQ_SET(priority=0x10, entity_id=03 (ID: 17162821/0x0105E245), tag_num=0x15)
 22: 0x0557 [0x27] REQ_SET(priority=0x10, entity_id=04 (ID: 17162822/0x0105E246), tag_num=0x16)
 23: 0x055E [0x27] REQ_SET(priority=0x10, entity_id=Unnamed NPC (ID: 17163025/0x0105E311), tag_num=0x12)
 24: 0x0565 [0x05] Work_Zone[9] = 1
 25: 0x0568 [0x00] END_REQSTACK()
```

### Event 65535.26

#### Metadata

| Field        | Value    |
|--------------|----------|
| Entrypoint   | 0x0569   |
| Data Size    | 76 bytes |
| Instructions | 8        |

```
      00 01 02 03 04 05 06 07  08 09 0A 0B 0C 0D 0E 0F
      -- -- -- -- -- -- -- --  -- -- -- -- -- -- -- --
0560:                             06 08 10 55 79 80 F0           ...Uy..
0570: FF FF 7F F0 FF FF 7F 79  30 35 32 52 79 80 F0 FF  .......y052Ry...
0580: FF 7F F0 FF FF 7F 79 30  35 32 27 10 1F E2 05 01  ......y052'.....
0590: 09 45 79 80 F0 FF FF 7F  F0 FF FF 7F 79 30 35 34  .Ey.........y054
05A0: 01 80 05 08 10 55 79 80  F0 FF FF 7F F0 FF FF 7F  .....Uy.........
05B0: 79 30 35 34 00                                    y054.           
```

#### Opcodes

```
  0: 0x0569 [0x06] Work_Zone[8] = 0
  1: 0x056C [0x55] WAIT_LOAD_SCHEDULER: Wait for scheduler "y052" with entities [LocalPlayer, LocalPlayer], work=533*
  2: 0x057B [0x52] END_LOAD_SCHEDULER: End scheduler "y052" with entities [LocalPlayer, LocalPlayer], work=533*
  3: 0x058A [0x27] REQ_SET(priority=0x10, entity_id=03 (ID: 17162783/0x0105E21F), tag_num=0x09)
  4: 0x0591 [0x45] LOAD_SCHEDULED_TASK: Load scheduler "y054" with entities [LocalPlayer, LocalPlayer], work=[533*, 0*]
  5: 0x05A2 [0x05] Work_Zone[8] = 1
  6: 0x05A5 [0x55] WAIT_LOAD_SCHEDULER: Wait for scheduler "y054" with entities [LocalPlayer, LocalPlayer], work=533*
  7: 0x05B4 [0x00] END_REQSTACK()
```

### Event 65535.27

#### Metadata

| Field        | Value    |
|--------------|----------|
| Entrypoint   | 0x05B5   |
| Data Size    | 49 bytes |
| Instructions | 5        |

```
      00 01 02 03 04 05 06 07  08 09 0A 0B 0C 0D 0E 0F
      -- -- -- -- -- -- -- --  -- -- -- -- -- -- -- --
05B0:                7B 06 E2  05 01 5B 7F 80 06 E2 05       {....[.....
05C0: 01 06 E2 05 01 6B 75 69  30 53 06 E2 05 01 06 E2  .....kui0S......
05D0: 05 01 6B 75 69 30 5B 7F  80 06 E2 05 01 06 E2 05  ..kui0[.........
05E0: 01 65 68 6E 30 00                                 .ehn0.          
```

#### Opcodes

```
  0: 0x05B5 [0x7B] Ajido-Marujido (ID: 17162758/0x0105E206) stops talking
  1: 0x05BA [0x5B] LOAD_EXT_SCHEDULER: Load scheduler "kui0" with entities [Ajido-Marujido (ID: 17162758/0x0105E206), Ajido-Marujido (ID: 17162758/0x0105E206)], work=1288*
  2: 0x05C9 [0x53] WAIT_SCHEDULER_TASK: Wait for scheduler "kui0" with entities [Ajido-Marujido (ID: 17162758/0x0105E206), Ajido-Marujido (ID: 17162758/0x0105E206)]
  3: 0x05D6 [0x5B] LOAD_EXT_SCHEDULER: Load scheduler "ehn0" with entities [Ajido-Marujido (ID: 17162758/0x0105E206), Ajido-Marujido (ID: 17162758/0x0105E206)], work=1288*
  4: 0x05E5 [0x00] END_REQSTACK()
```

### Event 65535.28

#### Metadata

| Field        | Value    |
|--------------|----------|
| Entrypoint   | 0x05E6   |
| Data Size    | 29 bytes |
| Instructions | 6        |

```
      00 01 02 03 04 05 06 07  08 09 0A 0B 0C 0D 0E 0F
      -- -- -- -- -- -- -- --  -- -- -- -- -- -- -- --
05E0:                   59 04  F8 FF FF 7F 5B 80 1F 00        Y.....[...
05F0: 80 80 81 80 0C 80 1F 01  6F 4A 43 E2 05 01 06 E2  ........oJC.....
0600: 05 01 00                                          ...             
```

#### Opcodes

```
  0: 0x05E6 [0x59] UPDATE_ENTITY_DATA: Set EventEntity main speed = 40* * 0.1
  1: 0x05EE [0x1F] MOVE_ENTITY: EventEntity moves to X=-5.296*, Z=12.328*, Y=-1.000*
  2: 0x05F6 [0x1F] MOVE_ENTITY: Update entity position (mode=1)
  3: 0x05F8 [0x6F] WAIT_FRAME_DELAY: Yield until WaitTime reaches zero
  4: 0x05F9 [0x4A] 01 (ID: 17162819/0x0105E243) looks at Ajido-Marujido (ID: 17162758/0x0105E206)
  5: 0x0602 [0x00] END_REQSTACK()
```

### Event 65535.29

#### Metadata

| Field        | Value    |
|--------------|----------|
| Entrypoint   | 0x0603   |
| Data Size    | 49 bytes |
| Instructions | 7        |

```
      00 01 02 03 04 05 06 07  08 09 0A 0B 0C 0D 0E 0F
      -- -- -- -- -- -- -- --  -- -- -- -- -- -- -- --
0600:          1C 82 80 5B 7F  80 06 E2 05 01 06 E2 05     ...[.........
0610: 01 65 68 6E 31 4A 06 E2  05 01 43 E2 05 01 6F 76  .ehn1J....C...ov
0620: 06 E2 05 01 5B 83 80 06  E2 05 01 06 E2 05 01 73  ....[..........s
0630: 75 72 30 00                                       ur0.            
```

#### Opcodes

```
  0: 0x0603 [0x1C] WAIT(160* ticks)
  1: 0x0606 [0x5B] LOAD_EXT_SCHEDULER: Load scheduler "ehn1" with entities [Ajido-Marujido (ID: 17162758/0x0105E206), Ajido-Marujido (ID: 17162758/0x0105E206)], work=1288*
  2: 0x0615 [0x4A] Ajido-Marujido (ID: 17162758/0x0105E206) looks at 01 (ID: 17162819/0x0105E243)
  3: 0x061E [0x6F] WAIT_FRAME_DELAY: Yield until WaitTime reaches zero
  4: 0x061F [0x76] CHECK_ENTITY_RENDER_FLAGS: Wait until Ajido-Marujido (ID: 17162758/0x0105E206) Render.Flags0 and Render.Flags3 conditions are met
  5: 0x0624 [0x5B] LOAD_EXT_SCHEDULER: Load scheduler "sur0" with entities [Ajido-Marujido (ID: 17162758/0x0105E206), Ajido-Marujido (ID: 17162758/0x0105E206)], work=85*
  6: 0x0633 [0x00] END_REQSTACK()
```

### Event 65535.30

#### Metadata

| Field        | Value    |
|--------------|----------|
| Entrypoint   | 0x0634   |
| Data Size    | 20 bytes |
| Instructions | 5        |

```
      00 01 02 03 04 05 06 07  08 09 0A 0B 0C 0D 0E 0F
      -- -- -- -- -- -- -- --  -- -- -- -- -- -- -- --
0630:             59 04 F8 FF  FF 7F 84 80 1F 00 85 80      Y...........
0640: 86 80 0C 80 1F 01 6F 00                           ......o.        
```

#### Opcodes

```
  0: 0x0634 [0x59] UPDATE_ENTITY_DATA: Set EventEntity main speed = 7* * 0.1
  1: 0x063C [0x1F] MOVE_ENTITY: EventEntity moves to X=-0.307*, Z=13.248*, Y=-1.000*
  2: 0x0644 [0x1F] MOVE_ENTITY: Update entity position (mode=1)
  3: 0x0646 [0x6F] WAIT_FRAME_DELAY: Yield until WaitTime reaches zero
  4: 0x0647 [0x00] END_REQSTACK()
```

### Event 65535.31

#### Metadata

| Field        | Value    |
|--------------|----------|
| Entrypoint   | 0x0648   |
| Data Size    | 47 bytes |
| Instructions | 6        |

```
      00 01 02 03 04 05 06 07  08 09 0A 0B 0C 0D 0E 0F
      -- -- -- -- -- -- -- --  -- -- -- -- -- -- -- --
0640:                          5B 83 80 06 E2 05 01 06          [.......
0650: E2 05 01 73 75 72 30 53  06 E2 05 01 06 E2 05 01  ...sur0S........
0660: 73 75 72 30 59 04 F8 FF  FF 7F 87 80 1F 00 88 80  sur0Y...........
0670: 89 80 48 80 1F 01 00                              ..H....         
```

#### Opcodes

```
  0: 0x0648 [0x5B] LOAD_EXT_SCHEDULER: Load scheduler "sur0" with entities [Ajido-Marujido (ID: 17162758/0x0105E206), Ajido-Marujido (ID: 17162758/0x0105E206)], work=85*
  1: 0x0657 [0x53] WAIT_SCHEDULER_TASK: Wait for scheduler "sur0" with entities [Ajido-Marujido (ID: 17162758/0x0105E206), Ajido-Marujido (ID: 17162758/0x0105E206)]
  2: 0x0664 [0x59] UPDATE_ENTITY_DATA: Set EventEntity main speed = 35* * 0.1
  3: 0x066C [0x1F] MOVE_ENTITY: EventEntity moves to X=-1.006*, Z=16.226*, Y=-0.999*
  4: 0x0674 [0x1F] MOVE_ENTITY: Update entity position (mode=1)
  5: 0x0676 [0x00] END_REQSTACK()
```

### Event 65535.32

#### Metadata

| Field        | Value    |
|--------------|----------|
| Entrypoint   | 0x0677   |
| Data Size    | 21 bytes |
| Instructions | 3        |

```
      00 01 02 03 04 05 06 07  08 09 0A 0B 0C 0D 0E 0F
      -- -- -- -- -- -- -- --  -- -- -- -- -- -- -- --
0670:                      1C  8A 80 45 8B 80 F0 FF FF         ...E.....
0680: 7F F0 FF FF 7F 62 6C 6F  6E 01 80 00              .....blon...    
```

#### Opcodes

```
  0: 0x0677 [0x1C] WAIT(75* ticks)
  1: 0x067A [0x45] LOAD_SCHEDULED_TASK: Load scheduler "blon" with entities [LocalPlayer, LocalPlayer], work=[201*, 0*]
  2: 0x068B [0x00] END_REQSTACK()
```

### Event 65535.33

#### Metadata

| Field        | Value     |
|--------------|-----------|
| Entrypoint   | 0x068C    |
| Data Size    | 161 bytes |
| Instructions | 17        |

```
      00 01 02 03 04 05 06 07  08 09 0A 0B 0C 0D 0E 0F
      -- -- -- -- -- -- -- --  -- -- -- -- -- -- -- --
0680:                                      59 04 F8 FF              Y...
0690: FF 7F 87 80 1F 00 8C 80  8D 80 0C 80 1F 01 6F BA  ..............o.
06A0: F0 FF FF 7F 8E 80 8F 80  48 80 90 80 1C 78 80 5B  ........H....x.[
06B0: 91 80 06 E2 05 01 06 E2  05 01 61 75 70 30 53 06  ..........aup0S.
06C0: E2 05 01 06 E2 05 01 61  75 70 30 50 06 E2 05 01  .......aup0P....
06D0: 06 E2 05 01 61 75 70 30  5B 92 80 43 E2 05 01 43  ....aup0[..C...C
06E0: E2 05 01 6A 74 30 30 5B  93 80 06 E2 05 01 06 E2  ...jt00[........
06F0: 05 01 6A 74 30 30 55 94  80 F0 FF FF 7F F0 FF FF  ..jt00U.........
0700: 7F 79 31 32 31 27 10 43  E2 05 01 03 BA 06 E2 05  .y121'.C........
0710: 01 8C 80 8D 80 0C 80 95  80 4A FF E1 05 01 06 E2  .........J......
0720: 05 01 79 00 FF E1 05 01  06 E2 05 01 00           ..y..........   
```

#### Opcodes

```
  0: 0x068C [0x59] UPDATE_ENTITY_DATA: Set EventEntity main speed = 35* * 0.1
  1: 0x0694 [0x1F] MOVE_ENTITY: EventEntity moves to X=-1.058*, Z=17.433*, Y=-1.000*
  2: 0x069C [0x1F] MOVE_ENTITY: Update entity position (mode=1)
  3: 0x069E [0x6F] WAIT_FRAME_DELAY: Yield until WaitTime reaches zero
  4: 0x069F [0xBA] SET_ENTITY_POSITION(entity_id=LocalPlayer, pos_x=1.032*, pos_z=15.680*, pos_y=-0.999*, direction=220.0°*)
  5: 0x06AC [0x1C] WAIT(5* ticks)
  6: 0x06AF [0x5B] LOAD_EXT_SCHEDULER: Load scheduler "aup0" with entities [Ajido-Marujido (ID: 17162758/0x0105E206), Ajido-Marujido (ID: 17162758/0x0105E206)], work=1286*
  7: 0x06BE [0x53] WAIT_SCHEDULER_TASK: Wait for scheduler "aup0" with entities [Ajido-Marujido (ID: 17162758/0x0105E206), Ajido-Marujido (ID: 17162758/0x0105E206)]
  8: 0x06CB [0x50] END_SCHEDULER_TASK: End scheduler "au" with entities [0xE206, 0xE206], work=[261, 261]
  9: 0x06D8 [0x5B] LOAD_EXT_SCHEDULER: Load scheduler "jt00" with entities [01 (ID: 17162819/0x0105E243), 01 (ID: 17162819/0x0105E243)], work=181*
 10: 0x06E7 [0x5B] LOAD_EXT_SCHEDULER: Load scheduler "jt00" with entities [Ajido-Marujido (ID: 17162758/0x0105E206), Ajido-Marujido (ID: 17162758/0x0105E206)], work=86*
 11: 0x06F6 [0x55] WAIT_LOAD_SCHEDULER: Wait for scheduler "y121" with entities [LocalPlayer, LocalPlayer], work=393*
 12: 0x0705 [0x27] REQ_SET(priority=0x10, entity_id=01 (ID: 17162819/0x0105E243), tag_num=0x03)
 13: 0x070C [0xBA] SET_ENTITY_POSITION(entity_id=Ajido-Marujido (ID: 17162758/0x0105E206), pos_x=-1.058*, pos_z=17.433*, pos_y=-1.000*, direction=266.2°*)
 14: 0x0719 [0x4A] Dhea Prandoleh (ID: 17162751/0x0105E1FF) looks at Ajido-Marujido (ID: 17162758/0x0105E206)
 15: 0x0722 [0x79] Dhea Prandoleh (ID: 17162751/0x0105E1FF) looks at Ajido-Marujido (ID: 17162758/0x0105E206) (Basic look)
 16: 0x072C [0x00] END_REQSTACK()
```

### Event 65535.34

#### Metadata

| Field        | Value    |
|--------------|----------|
| Entrypoint   | 0x072D   |
| Data Size    | 20 bytes |
| Instructions | 5        |

```
      00 01 02 03 04 05 06 07  08 09 0A 0B 0C 0D 0E 0F
      -- -- -- -- -- -- -- --  -- -- -- -- -- -- -- --
0720:                                         59 04 F8               Y..
0730: FF FF 7F 96 80 1F 00 97  80 98 80 99 80 1F 01 6F  ...............o
0740: 00                                                .               
```

#### Opcodes

```
  0: 0x072D [0x59] UPDATE_ENTITY_DATA: Set EventEntity main speed = 36* * 0.1
  1: 0x0735 [0x1F] MOVE_ENTITY: EventEntity moves to X=-7.685*, Z=7.819*, Y=-1.026*
  2: 0x073D [0x1F] MOVE_ENTITY: Update entity position (mode=1)
  3: 0x073F [0x6F] WAIT_FRAME_DELAY: Yield until WaitTime reaches zero
  4: 0x0740 [0x00] END_REQSTACK()
```

### Event 20

#### Metadata

| Field        | Value   |
|--------------|---------|
| Entrypoint   | 0x0741  |
| Data Size    | 1 bytes |
| Instructions | 1       |

```
      00 01 02 03 04 05 06 07  08 09 0A 0B 0C 0D 0E 0F
      -- -- -- -- -- -- -- --  -- -- -- -- -- -- -- --
0740:    00                                              .              
```

#### Opcodes

```
  0: 0x0741 [0x00] END_REQSTACK()
```

### Event 23

#### Metadata

| Field        | Value   |
|--------------|---------|
| Entrypoint   | 0x0742  |
| Data Size    | 1 bytes |
| Instructions | 1       |

```
      00 01 02 03 04 05 06 07  08 09 0A 0B 0C 0D 0E 0F
      -- -- -- -- -- -- -- --  -- -- -- -- -- -- -- --
0740:       00                                            .             
```

#### Opcodes

```
  0: 0x0742 [0x00] END_REQSTACK()
```

### Event 24

#### Metadata

| Field        | Value   |
|--------------|---------|
| Entrypoint   | 0x0743  |
| Data Size    | 1 bytes |
| Instructions | 1       |

```
      00 01 02 03 04 05 06 07  08 09 0A 0B 0C 0D 0E 0F
      -- -- -- -- -- -- -- --  -- -- -- -- -- -- -- --
0740:          00                                          .            
```

#### Opcodes

```
  0: 0x0743 [0x00] END_REQSTACK()
```
