# 17162973 - 10

## Common Data

| Field            | Value                        |
|------------------|------------------------------|
| Zone             | Windurst Waters [S] (ID: 94) |
| Block Size       | 108 bytes                    |
| Total Events     | 3                            |
| References Count | 10                           |

## List of Events

| Event ID                 | Entrypoint   |   Size |   Instructions |
|--------------------------|--------------|--------|----------------|
| [65535](#event-65535)    | 0x0000       |      1 |              1 |
| [23](#event-23)          | 0x0001       |      1 |              1 |
| [65535.1](#event-655351) | 0x0002       |     37 |              9 |

## DAT References (imed_data)

|   Index | Hex Value   |   Dec Value |
|---------|-------------|-------------|
|       0 | 0x003C      |          60 |
|       1 | 0x0028      |          40 |
|       2 | 0x0FB1      |        4017 |
|       3 | 0x1DF5B     |      122715 |
|       4 | 0xFFFFC180  |  4294951296 |
|       5 | 0x043A      |        1082 |
|       6 | 0x1F657     |      128599 |
|       7 | 0xFFFFBE93  |  4294950547 |
|       8 | 0x029A      |         666 |
|       9 | 0x23F6F     |      147311 |

## Events

### Event 65535

#### Metadata

| Field        | Value   |
|--------------|---------|
| Entrypoint   | 0x0000  |
| Data Size    | 1 bytes |
| Instructions | 1       |

```
      00 01 02 03 04 05 06 07  08 09 0A 0B 0C 0D 0E 0F
      -- -- -- -- -- -- -- --  -- -- -- -- -- -- -- --
0000: 00                                                .               
```

#### Opcodes

```
  0: 0x0000 [0x00] END_REQSTACK()
```

### Event 23

#### Metadata

| Field        | Value   |
|--------------|---------|
| Entrypoint   | 0x0001  |
| Data Size    | 1 bytes |
| Instructions | 1       |

```
      00 01 02 03 04 05 06 07  08 09 0A 0B 0C 0D 0E 0F
      -- -- -- -- -- -- -- --  -- -- -- -- -- -- -- --
0000:    00                                              .              
```

#### Opcodes

```
  0: 0x0001 [0x00] END_REQSTACK()
```

### Event 65535.1

#### Metadata

| Field        | Value    |
|--------------|----------|
| Entrypoint   | 0x0002   |
| Data Size    | 37 bytes |
| Instructions | 9        |

```
      00 01 02 03 04 05 06 07  08 09 0A 0B 0C 0D 0E 0F
      -- -- -- -- -- -- -- --  -- -- -- -- -- -- -- --
0000:       1C 00 80 32 01 80  1F 00 02 80 03 80 04 80    ...2..........
0010: 1F 01 1F 00 05 80 06 80  07 80 1F 01 1F 00 08 80  ................
0020: 09 80 07 80 1F 01 00                              .......         
```

#### Opcodes

```
  0: 0x0002 [0x1C] WAIT(60* ticks)
  1: 0x0005 [0x32] ExtData[1]->MainSpeed = 40* * 0.1
  2: 0x0008 [0x1F] MOVE_ENTITY: EventEntity moves to X=4.017*, Z=122.715*, Y=-16.000*
  3: 0x0010 [0x1F] MOVE_ENTITY: Update entity position (mode=1)
  4: 0x0012 [0x1F] MOVE_ENTITY: EventEntity moves to X=1.082*, Z=128.599*, Y=-16.749*
  5: 0x001A [0x1F] MOVE_ENTITY: Update entity position (mode=1)
  6: 0x001C [0x1F] MOVE_ENTITY: EventEntity moves to X=0.666*, Z=147.311*, Y=-16.749*
  7: 0x0024 [0x1F] MOVE_ENTITY: Update entity position (mode=1)
  8: 0x0026 [0x00] END_REQSTACK()
```
