# 17162915

## Common Data

| Field            | Value                        |
|------------------|------------------------------|
| Zone             | Windurst Waters [S] (ID: 94) |
| Block Size       | 16660 bytes                  |
| Total Events     | 6                            |
| References Count | 264                          |

## List of Events

| Event ID              | Entrypoint   |   Size |   Instructions |
|-----------------------|--------------|--------|----------------|
| [65535](#event-65535) | 0x0000       |      1 |              1 |
| [178](#event-178)     | 0x0001       |   5963 |            630 |
| [179](#event-179)     | 0x174C       |   1527 |            168 |
| [41](#event-41)       | 0x1D43       |   1896 |            203 |
| [42](#event-42)       | 0x24AB       |   1651 |            194 |
| [43](#event-43)       | 0x2B1E       |   4523 |            484 |

## DAT References (imed_data)

|   Index | Hex Value   |   Dec Value |
|---------|-------------|-------------|
|       0 | 0x0013      |          19 |
|       1 | 0x20B60     |      133984 |
|       2 | 0xF0C3      |       61635 |
|       3 | 0xFFFFF81A  |  4294965274 |
|       4 | 0x0028      |          40 |
|       5 | 0x20DCC     |      134604 |
|       6 | 0xE92E      |       59694 |
|       7 | 0xFFFFF87D  |  4294965373 |
|       8 | 0x0027      |          39 |
|       9 | 0x20FFC     |      135164 |
|      10 | 0xED12      |       60690 |
|      11 | 0xFFFFF833  |  4294965299 |
|      12 | 0x21D87     |      138631 |
|      13 | 0xF0DA      |       61658 |
|      14 | 0xFFFFF7C0  |  4294965184 |
|      15 | 0x0793      |        1939 |
|      16 | 0x001E      |          30 |
|      17 | 0x01C2      |         450 |
|      18 | 0x0000      |           0 |
|      19 | 0x0002      |           2 |
|      20 | 0x0078      |         120 |
|      21 | 0x0001      |           1 |
|      22 | 0x003C      |          60 |
|      23 | 0x3474      |       13428 |
|      24 | 0x3475      |       13429 |
|      25 | 0x0031      |          49 |
|      26 | 0x3476      |       13430 |
|      27 | 0x001D      |          29 |
|      28 | 0x3477      |       13431 |
|      29 | 0x3478      |       13432 |
|      30 | 0x3479      |       13433 |
|      31 | 0x347A      |       13434 |
|      32 | 0x347B      |       13435 |
|      33 | 0x085B      |        2139 |
|      34 | 0x001A      |          26 |
|      35 | 0x0006      |           6 |
|      36 | 0x347C      |       13436 |
|      37 | 0x000D      |          13 |
|      38 | 0x00A0      |         160 |
|      39 | 0x347D      |       13437 |
|      40 | 0x000A      |          10 |
|      41 | 0x0064      |         100 |
|      42 | 0x00C8      |         200 |
|      43 | 0x00F2      |         242 |
|      44 | 0x000F      |          15 |
|      45 | 0x01AB      |         427 |
|      46 | 0x7D2D      |       32045 |
|      47 | 0xFFFFEC62  |  4294962274 |
|      48 | 0xFFFF9D5E  |  4294942046 |
|      49 | 0x092A      |        2346 |
|      50 | 0x74F5      |       29941 |
|      51 | 0xFFFFE4B9  |  4294960313 |
|      52 | 0xFFFF9F52  |  4294942546 |
|      53 | 0x7997      |       31127 |
|      54 | 0xFFFFF3EE  |  4294964206 |
|      55 | 0xFFFF9C64  |  4294941796 |
|      56 | 0xFFFFE599  |  4294960537 |
|      57 | 0x1A50      |        6736 |
|      58 | 0xFFFFE8FA  |  4294961402 |
|      59 | 0x1ED0      |        7888 |
|      60 | 0x7A12      |       31250 |
|      61 | 0xFFFFFD4B  |  4294966603 |
|      62 | 0xFFFF9A71  |  4294941297 |
|      63 | 0x00A2      |         162 |
|      64 | 0x055D      |        1373 |
|      65 | 0x0008      |           8 |
|      66 | 0x005A      |          90 |
|      67 | 0x0096      |         150 |
|      68 | 0x0AA6      |        2726 |
|      69 | 0x180E      |        6158 |
|      70 | 0x0C9F      |        3231 |
|      71 | 0xFFFFFC5E  |  4294966366 |
|      72 | 0x0BA8      |        2984 |
|      73 | 0x0965      |        2405 |
|      74 | 0xFFFFFC55  |  4294966357 |
|      75 | 0x0F44      |        3908 |
|      76 | 0xFFFFE07B  |  4294959227 |
|      77 | 0x197C      |        6524 |
|      78 | 0x0005      |           5 |
|      79 | 0x347E      |       13438 |
|      80 | 0x347F      |       13439 |
|      81 | 0x3480      |       13440 |
|      82 | 0x05A3      |        1443 |
|      83 | 0x3481      |       13441 |
|      84 | 0x3482      |       13442 |
|      85 | 0x08C7      |        2247 |
|      86 | 0x0082      |         130 |
|      87 | 0x3487      |       13447 |
|      88 | 0x0003      |           3 |
|      89 | 0x0004      |           4 |
|      90 | 0x0007      |           7 |
|      91 | 0x00B4      |         180 |
|      92 | 0x3488      |       13448 |
|      93 | 0x3483      |       13443 |
|      94 | 0x3484      |       13444 |
|      95 | 0x05A2      |        1442 |
|      96 | 0x3485      |       13445 |
|      97 | 0x05A6      |        1446 |
|      98 | 0x3486      |       13446 |
|      99 | 0x3489      |       13449 |
|     100 | 0x348A      |       13450 |
|     101 | 0x348B      |       13451 |
|     102 | 0x348C      |       13452 |
|     103 | 0x348D      |       13453 |
|     104 | 0x348E      |       13454 |
|     105 | 0x348F      |       13455 |
|     106 | 0x0855      |        2133 |
|     107 | 0x0014      |          20 |
|     108 | 0x3490      |       13456 |
|     109 | 0x3493      |       13459 |
|     110 | 0x3491      |       13457 |
|     111 | 0x3492      |       13458 |
|     112 | 0x3494      |       13460 |
|     113 | 0x3495      |       13461 |
|     114 | 0x3496      |       13462 |
|     115 | 0x3497      |       13463 |
|     116 | 0x3498      |       13464 |
|     117 | 0x3499      |       13465 |
|     118 | 0x0857      |        2135 |
|     119 | 0x0856      |        2134 |
|     120 | 0x349A      |       13466 |
|     121 | 0x349B      |       13467 |
|     122 | 0x349C      |       13468 |
|     123 | 0x008C      |         140 |
|     124 | 0x349D      |       13469 |
|     125 | 0x349E      |       13470 |
|     126 | 0x349F      |       13471 |
|     127 | 0x34A0      |       13472 |
|     128 | 0x0850      |        2128 |
|     129 | 0x34A1      |       13473 |
|     130 | 0x34A2      |       13474 |
|     131 | 0x0077      |         119 |
|     132 | 0xFFFFF13F  |  4294963519 |
|     133 | 0x01EB      |         491 |
|     134 | 0xFFFF9C65  |  4294941797 |
|     135 | 0x34A3      |       13475 |
|     136 | 0x34A4      |       13476 |
|     137 | 0x34A5      |       13477 |
|     138 | 0x0852      |        2130 |
|     139 | 0x34A6      |       13478 |
|     140 | 0x34A7      |       13479 |
|     141 | 0x34A8      |       13480 |
|     142 | 0x005E      |          94 |
|     143 | 0x21442     |      136258 |
|     144 | 0xF40C      |       62476 |
|     145 | 0xFFFFF76D  |  4294965101 |
|     146 | 0x0FFD      |        4093 |
|     147 | 0x21412     |      136210 |
|     148 | 0xEC98      |       60568 |
|     149 | 0xFFFFF80E  |  4294965262 |
|     150 | 0x21A7C     |      137852 |
|     151 | 0xE6B7      |       59063 |
|     152 | 0xFFFFF7F1  |  4294965233 |
|     153 | 0x0ADC      |        2780 |
|     154 | 0x34D7      |       13527 |
|     155 | 0x34D8      |       13528 |
|     156 | 0x08CD      |        2253 |
|     157 | 0x34D9      |       13529 |
|     158 | 0x34DA      |       13530 |
|     159 | 0x34DB      |       13531 |
|     160 | 0x08FE      |        2302 |
|     161 | 0x05B3      |        1459 |
|     162 | 0x34DC      |       13532 |
|     163 | 0x34DD      |       13533 |
|     164 | 0x08C5      |        2245 |
|     165 | 0x34DE      |       13534 |
|     166 | 0x0024      |          36 |
|     167 | 0x34DF      |       13535 |
|     168 | 0xFFFF686B  |  4294928491 |
|     169 | 0x371DD     |      225757 |
|     170 | 0xFFFFECC2  |  4294962370 |
|     171 | 0x0407      |        1031 |
|     172 | 0xFFFF6378  |  4294927224 |
|     173 | 0x37B0D     |      228109 |
|     174 | 0xFFFFEC6A  |  4294962282 |
|     175 | 0x0456      |        1110 |
|     176 | 0xFFFF6296  |  4294926998 |
|     177 | 0x35BC2     |      220098 |
|     178 | 0xFFFFDE55  |  4294958677 |
|     179 | 0x040E      |        1038 |
|     180 | 0x0223      |         547 |
|     181 | 0x002D      |          45 |
|     182 | 0x0080      |         128 |
|     183 | 0x006E      |         110 |
|     184 | 0x0854      |        2132 |
|     185 | 0x00D2      |         210 |
|     186 | 0xFFFFAC57  |  4294945879 |
|     187 | 0x15359     |       86873 |
|     188 | 0xFFFFEC79  |  4294962297 |
|     189 | 0x009A      |         154 |
|     190 | 0x010E      |         270 |
|     191 | 0x0D6A      |        3434 |
|     192 | 0x905F      |       36959 |
|     193 | 0xFFFFFC18  |  4294966296 |
|     194 | 0x0FBE      |        4030 |
|     195 | 0x0DDC      |        3548 |
|     196 | 0x908C      |       37004 |
|     197 | 0x0023      |          35 |
|     198 | 0x34AD      |       13485 |
|     199 | 0x003B      |          59 |
|     200 | 0x08C2      |        2242 |
|     201 | 0x34AE      |       13486 |
|     202 | 0x0019      |          25 |
|     203 | 0x039B      |         923 |
|     204 | 0x34AF      |       13487 |
|     205 | 0x34B0      |       13488 |
|     206 | 0x0046      |          70 |
|     207 | 0x34B1      |       13489 |
|     208 | 0x34B2      |       13490 |
|     209 | 0x34B3      |       13491 |
|     210 | 0x34B4      |       13492 |
|     211 | 0x052F      |        1327 |
|     212 | 0x34B5      |       13493 |
|     213 | 0x34B6      |       13494 |
|     214 | 0x34B7      |       13495 |
|     215 | 0x34B8      |       13496 |
|     216 | 0x34B9      |       13497 |
|     217 | 0x0D80      |        3456 |
|     218 | 0x91CD      |       37325 |
|     219 | 0x07C9      |        1993 |
|     220 | 0x6FCB      |       28619 |
|     221 | 0xFFFFFC19  |  4294966297 |
|     222 | 0x0BD6      |        3030 |
|     223 | 0x0530      |        1328 |
|     224 | 0x34BC      |       13500 |
|     225 | 0x0015      |          21 |
|     226 | 0x34BD      |       13501 |
|     227 | 0x34BE      |       13502 |
|     228 | 0x0032      |          50 |
|     229 | 0x052E      |        1326 |
|     230 | 0x0AEB      |        2795 |
|     231 | 0x34BF      |       13503 |
|     232 | 0x34C0      |       13504 |
|     233 | 0x34C1      |       13505 |
|     234 | 0x34C2      |       13506 |
|     235 | 0x34C3      |       13507 |
|     236 | 0x34C4      |       13508 |
|     237 | 0x34C5      |       13509 |
|     238 | 0x34C6      |       13510 |
|     239 | 0x34C7      |       13511 |
|     240 | 0x34C8      |       13512 |
|     241 | 0x34C9      |       13513 |
|     242 | 0x05F9      |        1529 |
|     243 | 0x34CA      |       13514 |
|     244 | 0x34CB      |       13515 |
|     245 | 0x34CC      |       13516 |
|     246 | 0x34CD      |       13517 |
|     247 | 0x34CE      |       13518 |
|     248 | 0x34CF      |       13519 |
|     249 | 0x34D0      |       13520 |
|     250 | 0x34D1      |       13521 |
|     251 | 0x0050      |          80 |
|     252 | 0x0564      |        1380 |
|     253 | 0x34D2      |       13522 |
|     254 | 0x34D3      |       13523 |
|     255 | 0x34D4      |       13524 |
|     256 | 0x000C      |          12 |
|     257 | 0x07E8      |        2024 |
|     258 | 0x922F      |       37423 |
|     259 | 0x0E69      |        3689 |
|     260 | 0x91F2      |       37362 |
|     261 | 0xFFFFF7F4  |  4294965236 |
|     262 | 0x00C9      |         201 |
|     263 | 0x00D7      |         215 |

## Events

### Event 65535

#### Metadata

| Field        | Value   |
|--------------|---------|
| Entrypoint   | 0x0000  |
| Data Size    | 1 bytes |
| Instructions | 1       |

```
      00 01 02 03 04 05 06 07  08 09 0A 0B 0C 0D 0E 0F
      -- -- -- -- -- -- -- --  -- -- -- -- -- -- -- --
0000: 00                                                .               
```

#### Opcodes

```
  0: 0x0000 [0x00] END_REQSTACK()
```

### Event 178

#### Metadata

| Field        | Value      |
|--------------|------------|
| Entrypoint   | 0x0001     |
| Data Size    | 5963 bytes |
| Instructions | 629        |

```
      00 01 02 03 04 05 06 07  08 09 0A 0B 0C 0D 0E 0F
      -- -- -- -- -- -- -- --  -- -- -- -- -- -- -- --
0000:    42 1A 9B 3A 03 00 00  02 10 03 01 00 03 10 03   B..:...........
0010: 02 00 04 10 46 01 38 00  80 4E 00 F0 FF FF 7F 27  ....F.8..N.....'
0020: 10 A4 E2 05 01 04 27 10  A5 E2 05 01 04 92 01 A4  ......'.........
0030: E2 05 01 92 01 A5 E2 05  01 92 01 A2 E2 05 01 94  ................
0040: 01 F0 FF FF 7F 94 01 A4  E2 05 01 94 01 A5 E2 05  ................
0050: 01 94 01 A2 E2 05 01 BA  F0 FF FF 7F 01 80 02 80  ................
0060: 03 80 04 80 BA A4 E2 05  01 05 80 06 80 07 80 08  ................
0070: 80 BA A5 E2 05 01 09 80  0A 80 0B 80 04 80 BA A2  ................
0080: E2 05 01 0C 80 0D 80 0E  80 0F 80 4A F0 FF FF 7F  ...........J....
0090: A2 E2 05 01 4A A4 E2 05  01 A2 E2 05 01 4A A5 E2  ....J........J..
00A0: 05 01 A2 E2 05 01 4A A2  E2 05 01 A5 E2 05 01 80  ......J.........
00B0: F0 FF FF 7F 80 A4 E2 05  01 80 A5 E2 05 01 80 A2  ................
00C0: E2 05 01 1C 10 80 4E 00  A2 E2 05 01 45 11 80 F0  ......N.....E...
00D0: FF FF 7F F0 FF FF 7F 73  31 30 31 12 80 1A 7A 3A  .......s101...z:
00E0: 6E A5 E2 05 01 13 80 99  A5 E2 05 01 1C 14 80 52  n..............R
00F0: 11 80 F0 FF FF 7F F0 FF  FF 7F 73 31 30 31 45 11  ..........s101E.
0100: 80 F0 FF FF 7F F0 FF FF  7F 73 31 30 32 12 80 6E  .........s102..n
0110: A2 E2 05 01 15 80 99 A2  E2 05 01 1C 16 80 2B A2  ..............+.
0120: E2 05 01 17 80 23 52 11  80 F0 FF FF 7F F0 FF FF  .....#R.........
0130: 7F 73 31 30 32 45 11 80  F0 FF FF 7F F0 FF FF 7F  .s102E..........
0140: 73 31 30 34 12 80 2B A5  E2 05 01 18 80 23 52 11  s104..+......#R.
0150: 80 F0 FF FF 7F F0 FF FF  7F 73 31 30 34 45 11 80  .........s104E..
0160: F0 FF FF 7F F0 FF FF 7F  73 31 30 33 12 80 66 19  ........s103..f.
0170: 80 A2 E2 05 01 A2 E2 05  01 74 6C 6B 30 2B A2 E2  .........tlk0+..
0180: 05 01 1A 80 23 66 19 80  A2 E2 05 01 A2 E2 05 01  ....#f..........
0190: 74 6C 6B 31 52 11 80 F0  FF FF 7F F0 FF FF 7F 73  tlk1R..........s
01A0: 31 30 33 45 11 80 F0 FF  FF 7F F0 FF FF 7F 73 31  103E..........s1
01B0: 30 35 12 80 66 1B 80 A5  E2 05 01 A5 E2 05 01 74  05..f..........t
01C0: 6C 6B 30 2B A5 E2 05 01  1C 80 23 66 1B 80 A5 E2  lk0+......#f....
01D0: 05 01 A5 E2 05 01 74 6C  6B 31 52 11 80 F0 FF FF  ......tlk1R.....
01E0: 7F F0 FF FF 7F 73 31 30  35 45 11 80 F0 FF FF 7F  .....s105E......
01F0: F0 FF FF 7F 73 31 30 36  12 80 7B A2 E2 05 01 66  ....s106..{....f
0200: 19 80 A2 E2 05 01 A2 E2  05 01 74 68 6B 31 2B A2  ..........thk1+.
0210: E2 05 01 1D 80 23 52 11  80 F0 FF FF 7F F0 FF FF  .....#R.........
0220: 7F 73 31 30 36 45 11 80  F0 FF FF 7F F0 FF FF 7F  .s106E..........
0230: 73 31 31 31 12 80 2B A2  E2 05 01 1E 80 23 66 19  s111..+......#f.
0240: 80 A2 E2 05 01 A2 E2 05  01 74 68 6B 32 52 11 80  .........thk2R..
0250: F0 FF FF 7F F0 FF FF 7F  73 31 31 31 45 11 80 F0  ........s111E...
0260: FF FF 7F F0 FF FF 7F 73  31 30 37 12 80 2B A2 E2  .......s107..+..
0270: 05 01 1F 80 23 52 11 80  F0 FF FF 7F F0 FF FF 7F  ....#R..........
0280: 73 31 30 37 45 11 80 F0  FF FF 7F F0 FF FF 7F 73  s107E..........s
0290: 31 31 32 12 80 2B A2 E2  05 01 20 80 23 52 11 80  112..+.... .#R..
02A0: F0 FF FF 7F F0 FF FF 7F  73 31 31 32 45 11 80 F0  ........s112E...
02B0: FF FF 7F F0 FF FF 7F 73  31 30 38 12 80 5B 21 80  .......s108..[!.
02C0: A4 E2 05 01 A4 E2 05 01  6E 6F 30 30 6E A5 E2 05  ........no00n...
02D0: 01 22 80 99 A5 E2 05 01  6E F0 FF FF 7F 23 80 99  ."......n....#..
02E0: F0 FF FF 7F 1C 16 80 2B  A5 E2 05 01 24 80 23 52  .......+....$.#R
02F0: 11 80 F0 FF FF 7F F0 FF  FF 7F 73 31 30 38 45 11  ..........s108E.
0300: 80 F0 FF FF 7F F0 FF FF  7F 73 31 30 39 12 80 6B  .........s109..k
0310: 69 64 6C 30 A4 E2 05 01  79 00 A2 E2 05 01 A5 E2  idl0....y.......
0320: 05 01 6E A2 E2 05 01 25  80 99 A2 E2 05 01 1C 26  ..n....%.......&
0330: 80 2B A2 E2 05 01 27 80  23 7B A2 E2 05 01 59 04  .+....'.#{....Y.
0340: A2 E2 05 01 25 80 27 10  A2 E2 05 01 0B 1C 10 80  ....%.'.........
0350: 52 11 80 F0 FF FF 7F F0  FF FF 7F 73 31 30 39 45  R..........s109E
0360: 11 80 F0 FF FF 7F F0 FF  FF 7F 73 31 31 30 12 80  ..........s110..
0370: 1C 14 80 1C 28 80 1C 28  80 1C 29 80 45 2A 80 F0  ....(..(..).E*..
0380: FF FF 7F F0 FF FF 7F 66  64 6F 32 12 80 55 2A 80  .......fdo2..U*.
0390: F0 FF FF 7F F0 FF FF 7F  66 64 6F 32 52 11 80 F0  ........fdo2R...
03A0: FF FF 7F F0 FF FF 7F 73  31 31 30 34 2B 80 77 12  .......s1104+.w.
03B0: 80 15 80 AB 09 1C 2C 80  75 00 2D 80 75 01 4E 00  ......,.u.-.u.N.
03C0: A4 E2 05 01 4E 00 A5 E2  05 01 4E 00 18 E2 05 01  ....N.....N.....
03D0: 4E 00 36 E2 05 01 4E 00  A2 E2 05 01 BA F0 FF FF  N.6...N.........
03E0: 7F 2E 80 2F 80 30 80 31  80 BA A4 E2 05 01 32 80  .../.0.1......2.
03F0: 33 80 34 80 31 80 BA A5  E2 05 01 35 80 36 80 37  3.4.1......5.6.7
0400: 80 31 80 BA 18 E2 05 01  38 80 39 80 37 80 12 80  .1......8.9.7...
0410: BA 36 E2 05 01 3A 80 3B  80 37 80 12 80 BA A2 E2  .6...:.;.7......
0420: 05 01 3C 80 3D 80 3E 80  31 80 92 01 18 E2 05 01  ..<.=.>.1.......
0430: 92 01 36 E2 05 01 94 01  18 E2 05 01 94 01 36 E2  ..6...........6.
0440: 05 01 80 18 E2 05 01 80  36 E2 05 01 4A F0 FF FF  ........6...J...
0450: 7F 18 E2 05 01 4A A4 E2  05 01 18 E2 05 01 4A 18  .....J........J.
0460: E2 05 01 A5 E2 05 01 4A  36 E2 05 01 A5 E2 05 01  .......J6.......
0470: 4A A5 E2 05 01 18 E2 05  01 5C 00 3F 80 5C 01 3F  J........\.?.\.?
0480: 80 9A 59 04 F0 FF FF 7F  25 80 59 04 A4 E2 05 01  ..Y.....%.Y.....
0490: 25 80 59 04 A5 E2 05 01  25 80 59 04 A2 E2 05 01  %.Y.....%.Y.....
04A0: 25 80 27 10 F0 FF FF 7F  2E 27 10 A4 E2 05 01 0A  %.'......'......
04B0: 27 10 A5 E2 05 01 0A 27  10 A2 E2 05 01 0A 5B 40  '......'......[@
04C0: 80 18 E2 05 01 18 E2 05  01 67 75 64 30 45 11 80  .........gud0E..
04D0: F0 FF FF 7F F0 FF FF 7F  73 32 30 31 12 80 45 2A  ........s201..E*
04E0: 80 F0 FF FF 7F F0 FF FF  7F 66 64 69 32 12 80 55  .........fdi2..U
04F0: 2A 80 F0 FF FF 7F F0 FF  FF 7F 66 64 69 32 1C 14  *.........fdi2..
0500: 80 52 11 80 F0 FF FF 7F  F0 FF FF 7F 73 32 30 31  .R..........s201
0510: 45 11 80 F0 FF FF 7F F0  FF FF 7F 73 32 34 37 12  E..........s247.
0520: 80 1C 14 80 6E A2 E2 05  01 12 80 99 A2 E2 05 01  ....n...........
0530: 1C 14 80 52 11 80 F0 FF  FF 7F F0 FF FF 7F 73 32  ...R..........s2
0540: 34 37 45 11 80 F0 FF FF  7F F0 FF FF 7F 73 32 34  47E..........s24
0550: 39 12 80 1C 16 80 4A A2  E2 05 01 A5 E2 05 01 6E  9.....J........n
0560: A5 E2 05 01 15 80 99 A5  E2 05 01 1C 14 80 52 11  ..............R.
0570: 80 F0 FF FF 7F F0 FF FF  7F 73 32 34 39 45 11 80  .........s249E..
0580: F0 FF FF 7F F0 FF FF 7F  73 32 35 30 12 80 6E A2  ........s250..n.
0590: E2 05 01 41 80 99 A2 E2  05 01 1C 42 80 52 11 80  ...A.......B.R..
05A0: F0 FF FF 7F F0 FF FF 7F  73 32 34 30 45 11 80 F0  ........s240E...
05B0: FF FF 7F F0 FF FF 7F 73  32 35 31 12 80 7B F0 FF  .......s251..{..
05C0: FF 7F 7B A4 E2 05 01 7B  A5 E2 05 01 27 10 A5 E2  ..{....{....'...
05D0: 05 01 0B 1C 28 80 27 10  A4 E2 05 01 0B 1C 28 80  ....(.'.......(.
05E0: 27 10 F0 FF FF 7F 2F 1C  43 80 45 2A 80 F0 FF FF  '...../.C.E*....
05F0: 7F F0 FF FF 7F 66 64 6F  32 12 80 55 2A 80 F0 FF  .....fdo2..U*...
0600: FF 7F F0 FF FF 7F 66 64  6F 32 52 11 80 F0 FF FF  ......fdo2R.....
0610: 7F F0 FF FF 7F 73 32 35  31 7A 00 F0 FF FF 7F 7A  .....s251z.....z
0620: 00 A4 E2 05 01 7A 00 A5  E2 05 01 BA F0 FF FF 7F  .....z..........
0630: 44 80 45 80 37 80 46 80  BA A4 E2 05 01 47 80 48  D.E.7.F......G.H
0640: 80 37 80 49 80 BA A5 E2  05 01 4A 80 4B 80 37 80  .7.I......J.K.7.
0650: 46 80 BA 18 E2 05 01 38  80 39 80 37 80 12 80 BA  F......8.9.7....
0660: 36 E2 05 01 4C 80 4D 80  37 80 12 80 4A 18 E2 05  6...L.M.7...J...
0670: 01 A5 E2 05 01 4A 36 E2  05 01 A5 E2 05 01 27 10  .....J6.......'.
0680: A5 E2 05 01 0B 1C 4E 80  27 10 F0 FF FF 7F 2F 1C  ......N.'...../.
0690: 4E 80 27 10 A4 E2 05 01  0B 45 11 80 F0 FF FF 7F  N.'......E......
06A0: F0 FF FF 7F 73 32 35 32  12 80 45 2A 80 F0 FF FF  ....s252..E*....
06B0: 7F F0 FF FF 7F 66 64 69  32 12 80 55 2A 80 F0 FF  .....fdi2..U*...
06C0: FF 7F F0 FF FF 7F 66 64  69 32 1C 04 80 52 11 80  ......fdi2...R..
06D0: F0 FF FF 7F F0 FF FF 7F  73 32 35 32 45 11 80 F0  ........s252E...
06E0: FF FF 7F F0 FF FF 7F 73  32 32 33 12 80 1C 43 80  .......s223...C.
06F0: 52 11 80 F0 FF FF 7F F0  FF FF 7F 73 32 32 33 45  R..........s223E
0700: 11 80 F0 FF FF 7F F0 FF  FF 7F 73 32 30 32 12 80  ..........s202..
0710: 2B 18 E2 05 01 4F 80 23  52 11 80 F0 FF FF 7F F0  +....O.#R.......
0720: FF FF 7F 73 32 30 32 45  11 80 F0 FF FF 7F F0 FF  ...s202E........
0730: FF 7F 73 32 30 33 12 80  4A 18 E2 05 01 A5 E2 05  ..s203..J.......
0740: 01 4A 36 E2 05 01 A5 E2  05 01 6E A5 E2 05 01 13  .J6.......n.....
0750: 80 99 A5 E2 05 01 1C 16  80 2B A5 E2 05 01 50 80  .........+....P.
0760: 23 52 11 80 F0 FF FF 7F  F0 FF FF 7F 73 32 30 33  #R..........s203
0770: 45 11 80 F0 FF FF 7F F0  FF FF 7F 73 32 30 34 12  E..........s204.
0780: 80 2B 18 E2 05 01 51 80  23 52 11 80 F0 FF FF 7F  .+....Q.#R......
0790: F0 FF FF 7F 73 32 30 34  45 11 80 F0 FF FF 7F F0  ....s204E.......
07A0: FF FF 7F 73 32 30 35 12  80 5B 52 80 36 E2 05 01  ...s205..[R.6...
07B0: 36 E2 05 01 74 6C 62 30  2B 36 E2 05 01 53 80 23  6...tlb0+6...S.#
07C0: 5B 52 80 36 E2 05 01 36  E2 05 01 74 6C 62 31 52  [R.6...6...tlb1R
07D0: 11 80 F0 FF FF 7F F0 FF  FF 7F 73 32 30 35 45 11  ..........s205E.
07E0: 80 F0 FF FF 7F F0 FF FF  7F 73 32 30 36 12 80 2B  .........s206..+
07F0: A5 E2 05 01 54 80 23 52  11 80 F0 FF FF 7F F0 FF  ....T.#R........
0800: FF 7F 73 32 30 36 45 11  80 F0 FF FF 7F F0 FF FF  ..s206E.........
0810: 7F 73 32 35 33 12 80 5B  55 80 A4 E2 05 01 A4 E2  .s253..[U.......
0820: 05 01 73 61 6E 30 1C 56  80 02 01 00 12 80 80 6A  ..san0.V.......j
0830: 0A 52 11 80 F0 FF FF 7F  F0 FF FF 7F 73 32 35 33  .R..........s253
0840: 45 11 80 F0 FF FF 7F F0  FF FF 7F 73 32 31 31 12  E..........s211.
0850: 80 2B A5 E2 05 01 57 80  23 29 10 F0 FF FF 7F 0A  .+....W.#)......
0860: 02 02 10 15 80 80 8B 08  52 11 80 F0 FF FF 7F F0  ........R.......
0870: FF FF 7F 73 32 31 31 45  11 80 F0 FF FF 7F F0 FF  ...s211E........
0880: FF 7F 73 68 6D 31 12 80  01 B8 09 02 02 10 13 80  ..shm1..........
0890: 80 B6 08 52 11 80 F0 FF  FF 7F F0 FF FF 7F 73 32  ...R..........s2
08A0: 31 31 45 11 80 F0 FF FF  7F F0 FF FF 7F 73 68 6D  11E..........shm
08B0: 31 12 80 01 B8 09 02 02  10 58 80 80 E1 08 52 11  1........X....R.
08C0: 80 F0 FF FF 7F F0 FF FF  7F 73 32 31 31 45 11 80  .........s211E..
08D0: F0 FF FF 7F F0 FF FF 7F  73 65 6D 31 12 80 01 B8  ........sem1....
08E0: 09 02 02 10 59 80 80 0C  09 52 11 80 F0 FF FF 7F  ....Y....R......
08F0: F0 FF FF 7F 73 32 31 31  45 11 80 F0 FF FF 7F F0  ....s211E.......
0900: FF FF 7F 73 65 6D 31 12  80 01 B8 09 02 02 10 4E  ...sem1........N
0910: 80 80 37 09 52 11 80 F0  FF FF 7F F0 FF FF 7F 73  ..7.R..........s
0920: 32 31 31 45 11 80 F0 FF  FF 7F F0 FF FF 7F 73 74  211E..........st
0930: 72 31 12 80 01 B8 09 02  02 10 23 80 80 62 09 52  r1........#..b.R
0940: 11 80 F0 FF FF 7F F0 FF  FF 7F 73 32 31 31 45 11  ..........s211E.
0950: 80 F0 FF FF 7F F0 FF FF  7F 73 74 72 31 12 80 01  .........str1...
0960: B8 09 02 02 10 5A 80 80  8D 09 52 11 80 F0 FF FF  .....Z....R.....
0970: 7F F0 FF FF 7F 73 32 31  31 45 11 80 F0 FF FF 7F  .....s211E......
0980: F0 FF FF 7F 73 6D 74 31  12 80 01 B8 09 02 02 10  ....smt1........
0990: 41 80 80 B8 09 52 11 80  F0 FF FF 7F F0 FF FF 7F  A....R..........
09A0: 73 32 31 31 45 11 80 F0  FF FF 7F F0 FF FF 7F 73  s211E..........s
09B0: 67 6C 31 12 80 01 B8 09  5B 55 80 A4 E2 05 01 A4  gl1.....[U......
09C0: E2 05 01 73 74 64 30 6E  F0 FF FF 7F 15 80 99 F0  ...std0n........
09D0: FF FF 7F 1C 5B 80 52 11  80 F0 FF FF 7F F0 FF FF  ....[.R.........
09E0: 7F 73 68 6D 31 52 11 80  F0 FF FF 7F F0 FF FF 7F  .shm1R..........
09F0: 73 68 6D 31 52 11 80 F0  FF FF 7F F0 FF FF 7F 73  shm1R..........s
0A00: 65 6D 31 52 11 80 F0 FF  FF 7F F0 FF FF 7F 73 65  em1R..........se
0A10: 6D 31 52 11 80 F0 FF FF  7F F0 FF FF 7F 73 74 72  m1R..........str
0A20: 31 52 11 80 F0 FF FF 7F  F0 FF FF 7F 73 6D 74 31  1R..........smt1
0A30: 52 11 80 F0 FF FF 7F F0  FF FF 7F 73 67 6C 31 45  R..........sgl1E
0A40: 11 80 F0 FF FF 7F F0 FF  FF 7F 73 32 31 32 12 80  ..........s212..
0A50: 2B 18 E2 05 01 5C 80 23  52 11 80 F0 FF FF 7F F0  +....\.#R.......
0A60: FF FF 7F 73 32 31 32 01  65 0D 02 01 00 15 80 80  ...s212.e.......
0A70: 57 0D 29 10 F0 FF FF 7F  0A 02 02 10 15 80 80 A4  W.).............
0A80: 0A 52 11 80 F0 FF FF 7F  F0 FF FF 7F 73 32 35 33  .R..........s253
0A90: 45 11 80 F0 FF FF 7F F0  FF FF 7F 73 68 6D 31 12  E..........shm1.
0AA0: 80 01 D1 0B 02 02 10 13  80 80 CF 0A 52 11 80 F0  ............R...
0AB0: FF FF 7F F0 FF FF 7F 73  32 35 33 45 11 80 F0 FF  .......s253E....
0AC0: FF 7F F0 FF FF 7F 73 68  6D 31 12 80 01 D1 0B 02  ......shm1......
0AD0: 02 10 58 80 80 FA 0A 52  11 80 F0 FF FF 7F F0 FF  ..X....R........
0AE0: FF 7F 73 32 35 33 45 11  80 F0 FF FF 7F F0 FF FF  ..s253E.........
0AF0: 7F 73 65 6D 31 12 80 01  D1 0B 02 02 10 59 80 80  .sem1........Y..
0B00: 25 0B 52 11 80 F0 FF FF  7F F0 FF FF 7F 73 32 35  %.R..........s25
0B10: 33 45 11 80 F0 FF FF 7F  F0 FF FF 7F 73 65 6D 31  3E..........sem1
0B20: 12 80 01 D1 0B 02 02 10  4E 80 80 50 0B 52 11 80  ........N..P.R..
0B30: F0 FF FF 7F F0 FF FF 7F  73 32 35 33 45 11 80 F0  ........s253E...
0B40: FF FF 7F F0 FF FF 7F 73  74 72 31 12 80 01 D1 0B  .......str1.....
0B50: 02 02 10 23 80 80 7B 0B  52 11 80 F0 FF FF 7F F0  ...#..{.R.......
0B60: FF FF 7F 73 32 35 33 45  11 80 F0 FF FF 7F F0 FF  ...s253E........
0B70: FF 7F 73 74 72 31 12 80  01 D1 0B 02 02 10 5A 80  ..str1........Z.
0B80: 80 A6 0B 52 11 80 F0 FF  FF 7F F0 FF FF 7F 73 32  ...R..........s2
0B90: 35 33 45 11 80 F0 FF FF  7F F0 FF FF 7F 73 6D 74  53E..........smt
0BA0: 31 12 80 01 D1 0B 02 02  10 41 80 80 D1 0B 52 11  1........A....R.
0BB0: 80 F0 FF FF 7F F0 FF FF  7F 73 32 35 33 45 11 80  .........s253E..
0BC0: F0 FF FF 7F F0 FF FF 7F  73 67 6C 31 12 80 01 D1  ........sgl1....
0BD0: 0B 5B 55 80 A4 E2 05 01  A4 E2 05 01 73 74 64 30  .[U.........std0
0BE0: 6E F0 FF FF 7F 15 80 99  F0 FF FF 7F 1C 5B 80 52  n............[.R
0BF0: 11 80 F0 FF FF 7F F0 FF  FF 7F 73 68 6D 31 52 11  ..........shm1R.
0C00: 80 F0 FF FF 7F F0 FF FF  7F 73 68 6D 31 52 11 80  .........shm1R..
0C10: F0 FF FF 7F F0 FF FF 7F  73 65 6D 31 52 11 80 F0  ........sem1R...
0C20: FF FF 7F F0 FF FF 7F 73  65 6D 31 52 11 80 F0 FF  .......sem1R....
0C30: FF 7F F0 FF FF 7F 73 74  72 31 52 11 80 F0 FF FF  ......str1R.....
0C40: 7F F0 FF FF 7F 73 6D 74  31 52 11 80 F0 FF FF 7F  .....smt1R......
0C50: F0 FF FF 7F 73 67 6C 31  45 11 80 F0 FF FF 7F F0  ....sgl1E.......
0C60: FF FF 7F 73 32 30 37 12  80 79 00 18 E2 05 01 F0  ...s207..y......
0C70: FF FF 7F 79 00 36 E2 05  01 F0 FF FF 7F 2B 18 E2  ...y.6.......+..
0C80: 05 01 5D 80 23 52 11 80  F0 FF FF 7F F0 FF FF 7F  ..].#R..........
0C90: 73 32 30 37 45 11 80 F0  FF FF 7F F0 FF FF 7F 73  s207E..........s
0CA0: 32 30 38 12 80 6E A5 E2  05 01 5A 80 99 A5 E2 05  208..n....Z.....
0CB0: 01 2B A5 E2 05 01 5E 80  23 52 11 80 F0 FF FF 7F  .+....^.#R......
0CC0: F0 FF FF 7F 73 32 30 38  45 11 80 F0 FF FF 7F F0  ....s208E.......
0CD0: FF FF 7F 73 32 30 39 12  80 5B 5F 80 36 E2 05 01  ...s209..[_.6...
0CE0: 36 E2 05 01 66 64 30 30  2B 18 E2 05 01 60 80 23  6...fd00+....`.#
0CF0: 52 11 80 F0 FF FF 7F F0  FF FF 7F 73 32 30 39 45  R..........s209E
0D00: 11 80 F0 FF FF 7F F0 FF  FF 7F 73 32 31 30 12 80  ..........s210..
0D10: 5B 5F 80 36 E2 05 01 36  E2 05 01 66 64 30 31 5B  [_.6...6...fd01[
0D20: 61 80 36 E2 05 01 36 E2  05 01 74 68 62 30 2B 36  a.6...6...thb0+6
0D30: E2 05 01 62 80 23 5B 61  80 36 E2 05 01 36 E2 05  ...b.#[a.6...6..
0D40: 01 74 68 62 31 52 11 80  F0 FF FF 7F F0 FF FF 7F  .thb1R..........
0D50: 73 32 31 30 01 65 0D 02  01 00 13 80 80 65 0D 01  s210.e.......e..
0D60: 72 0A 01 65 0D 45 11 80  F0 FF FF 7F F0 FF FF 7F  r..e.E..........
0D70: 73 32 31 33 12 80 79 00  18 E2 05 01 A5 E2 05 01  s213..y.........
0D80: 79 00 36 E2 05 01 A5 E2  05 01 2B 18 E2 05 01 63  y.6.......+....c
0D90: 80 23 52 11 80 F0 FF FF  7F F0 FF FF 7F 73 32 31  .#R..........s21
0DA0: 33 45 11 80 F0 FF FF 7F  F0 FF FF 7F 73 32 31 34  3E..........s214
0DB0: 12 80 2B A5 E2 05 01 64  80 23 45 2A 80 F0 FF FF  ..+....d.#E*....
0DC0: 7F F0 FF FF 7F 66 64 6F  32 12 80 55 2A 80 F0 FF  .....fdo2..U*...
0DD0: FF 7F F0 FF FF 7F 66 64  6F 32 52 11 80 F0 FF FF  ......fdo2R.....
0DE0: 7F F0 FF FF 7F 73 32 31  34 5B 5F 80 36 E2 05 01  .....s214[_.6...
0DF0: 36 E2 05 01 66 30 30 30  1C 14 80 45 11 80 F0 FF  6...f000...E....
0E00: FF 7F F0 FF FF 7F 73 32  31 35 12 80 45 2A 80 F0  ......s215..E*..
0E10: FF FF 7F F0 FF FF 7F 66  64 69 32 12 80 55 2A 80  .......fdi2..U*.
0E20: F0 FF FF 7F F0 FF FF 7F  66 64 69 32 27 10 18 E2  ........fdi2'...
0E30: 05 01 21 2B 18 E2 05 01  65 80 23 52 11 80 F0 FF  ..!+....e.#R....
0E40: FF 7F F0 FF FF 7F 73 32  31 35 45 11 80 F0 FF FF  ......s215E.....
0E50: 7F F0 FF FF 7F 73 32 31  36 12 80 66 1B 80 A5 E2  .....s216..f....
0E60: 05 01 A5 E2 05 01 74 6C  6B 30 2B A5 E2 05 01 66  ......tlk0+....f
0E70: 80 23 66 1B 80 A5 E2 05  01 A5 E2 05 01 74 6C 6B  .#f..........tlk
0E80: 31 52 11 80 F0 FF FF 7F  F0 FF FF 7F 73 32 31 36  1R..........s216
0E90: 45 11 80 F0 FF FF 7F F0  FF FF 7F 73 32 31 37 12  E..........s217.
0EA0: 80 2B 18 E2 05 01 67 80  23 02 01 00 13 80 80 9B  .+....g.#.......
0EB0: 0F 2B 18 E2 05 01 68 80  23 5B 5F 80 36 E2 05 01  .+....h.#[_.6...
0EC0: 36 E2 05 01 66 63 30 30  52 11 80 F0 FF FF 7F F0  6...fc00R.......
0ED0: FF FF 7F 73 32 31 37 45  11 80 F0 FF FF 7F F0 FF  ...s217E........
0EE0: FF 7F 73 32 31 39 12 80  6B 69 64 6C 30 A4 E2 05  ..s219..kidl0...
0EF0: 01 5B 5F 80 36 E2 05 01  36 E2 05 01 66 63 30 31  .[_.6...6...fc01
0F00: 5B 52 80 36 E2 05 01 36  E2 05 01 74 68 61 30 2B  [R.6...6...tha0+
0F10: 36 E2 05 01 69 80 23 5B  52 80 36 E2 05 01 36 E2  6...i.#[R.6...6.
0F20: 05 01 74 68 61 31 5B 5F  80 36 E2 05 01 36 E2 05  ..tha1[_.6...6..
0F30: 01 66 30 30 30 5B 6A 80  A4 E2 05 01 A4 E2 05 01  .f000[j.........
0F40: 74 6C 62 30 1C 6B 80 52  11 80 F0 FF FF 7F F0 FF  tlb0.k.R........
0F50: FF 7F 73 32 31 39 45 11  80 F0 FF FF 7F F0 FF FF  ..s219E.........
0F60: 7F 73 32 32 30 12 80 2B  A4 E2 05 01 6C 80 23 2B  .s220..+....l.#+
0F70: A4 E2 05 01 6D 80 23 5B  6A 80 A4 E2 05 01 A4 E2  ....m.#[j.......
0F80: 05 01 74 6C 62 31 1C 16  80 52 11 80 F0 FF FF 7F  ..tlb1...R......
0F90: F0 FF FF 7F 73 32 32 30  01 26 10 52 11 80 F0 FF  ....s220.&.R....
0FA0: FF 7F F0 FF FF 7F 73 32  31 37 45 11 80 F0 FF FF  ......s217E.....
0FB0: 7F F0 FF FF 7F 73 32 32  31 12 80 2B 18 E2 05 01  .....s221..+....
0FC0: 6E 80 23 5B 6A 80 A4 E2  05 01 A4 E2 05 01 74 6C  n.#[j.........tl
0FD0: 62 30 1C 6B 80 52 11 80  F0 FF FF 7F F0 FF FF 7F  b0.k.R..........
0FE0: 73 32 32 31 45 11 80 F0  FF FF 7F F0 FF FF 7F 73  s221E..........s
0FF0: 32 32 30 12 80 2B A4 E2  05 01 6F 80 23 2B A4 E2  220..+....o.#+..
1000: 05 01 6D 80 23 5B 6A 80  A4 E2 05 01 A4 E2 05 01  ..m.#[j.........
1010: 74 6C 62 31 1C 16 80 52  11 80 F0 FF FF 7F F0 FF  tlb1...R........
1020: FF 7F 73 32 32 30 4E 01  A5 E2 05 01 45 11 80 F0  ..s220N.....E...
1030: FF FF 7F F0 FF FF 7F 73  32 32 34 12 80 79 00 18  .......s224..y..
1040: E2 05 01 A4 E2 05 01 7B  18 E2 05 01 7C 00 18 E2  .......{....|...
1050: 05 01 2B 18 E2 05 01 70  80 23 7C 01 18 E2 05 01  ..+....p.#|.....
1060: 52 11 80 F0 FF FF 7F F0  FF FF 7F 73 32 32 34 45  R..........s224E
1070: 11 80 F0 FF FF 7F F0 FF  FF 7F 73 32 32 35 12 80  ..........s225..
1080: 4E 00 A5 E2 05 01 7B 18  E2 05 01 6B 69 64 6C 30  N.....{....kidl0
1090: A4 E2 05 01 5D 12 80 5B  80 5B 40 80 18 E2 05 01  ....]..[.[@.....
10A0: 18 E2 05 01 67 75 64 30  1C 16 80 2B 18 E2 05 01  ....gud0...+....
10B0: 71 80 23 52 11 80 F0 FF  FF 7F F0 FF FF 7F 73 32  q.#R..........s2
10C0: 32 35 45 11 80 F0 FF FF  7F F0 FF FF 7F 73 32 32  25E..........s22
10D0: 36 12 80 5B 5F 80 36 E2  05 01 36 E2 05 01 66 63  6..[_.6...6...fc
10E0: 30 31 5B 52 80 36 E2 05  01 36 E2 05 01 74 68 61  01[R.6...6...tha
10F0: 30 79 00 36 E2 05 01 A4  E2 05 01 2B 36 E2 05 01  0y.6.......+6...
1100: 72 80 23 2B 36 E2 05 01  73 80 23 52 11 80 F0 FF  r.#+6...s.#R....
1110: FF 7F F0 FF FF 7F 73 32  32 36 45 11 80 F0 FF FF  ......s226E.....
1120: 7F F0 FF FF 7F 73 32 32  37 12 80 2B 36 E2 05 01  .....s227..+6...
1130: 74 80 23 5B 52 80 36 E2  05 01 36 E2 05 01 74 68  t.#[R.6...6...th
1140: 61 31 5B 5F 80 36 E2 05  01 36 E2 05 01 66 63 30  a1[_.6...6...fc0
1150: 30 52 11 80 F0 FF FF 7F  F0 FF FF 7F 73 32 32 37  0R..........s227
1160: 45 11 80 F0 FF FF 7F F0  FF FF 7F 73 32 32 38 12  E..........s228.
1170: 80 5B 5F 80 36 E2 05 01  36 E2 05 01 66 30 30 30  .[_.6...6...f000
1180: 2B 18 E2 05 01 75 80 23  52 11 80 F0 FF FF 7F F0  +....u.#R.......
1190: FF FF 7F 73 32 32 38 45  11 80 F0 FF FF 7F F0 FF  ...s228E........
11A0: FF 7F 73 32 32 39 12 80  5B 76 80 A4 E2 05 01 A4  ..s229..[v......
11B0: E2 05 01 66 65 30 30 1C  14 80 5B 76 80 A4 E2 05  ...fe00...[v....
11C0: 01 A4 E2 05 01 66 65 30  31 5B 77 80 A4 E2 05 01  .....fe01[w.....
11D0: A4 E2 05 01 74 6C 62 30  1C 28 80 52 11 80 F0 FF  ....tlb0.(.R....
11E0: FF 7F F0 FF FF 7F 73 32  32 39 45 11 80 F0 FF FF  ......s229E.....
11F0: 7F F0 FF FF 7F 73 32 33  30 12 80 1C 6B 80 2B A4  .....s230...k.+.
1200: E2 05 01 78 80 23 52 11  80 F0 FF FF 7F F0 FF FF  ...x.#R.........
1210: 7F 73 32 33 30 45 11 80  F0 FF FF 7F F0 FF FF 7F  .s230E..........
1220: 73 32 33 31 12 80 5B 77  80 A4 E2 05 01 A4 E2 05  s231..[w........
1230: 01 74 6C 62 30 5B 76 80  A4 E2 05 01 A4 E2 05 01  .tlb0[v.........
1240: 66 65 30 30 7B 36 E2 05  01 79 00 18 E2 05 01 A4  fe00{6...y......
1250: E2 05 01 2B 18 E2 05 01  79 80 23 52 11 80 F0 FF  ...+....y.#R....
1260: FF 7F F0 FF FF 7F 73 32  33 31 45 11 80 F0 FF FF  ......s231E.....
1270: 7F F0 FF FF 7F 73 32 33  32 12 80 5B 61 80 36 E2  .....s232..[a.6.
1280: 05 01 36 E2 05 01 74 68  62 30 2B 36 E2 05 01 7A  ..6...thb0+6...z
1290: 80 23 52 11 80 F0 FF FF  7F F0 FF FF 7F 73 32 33  .#R..........s23
12A0: 32 45 11 80 F0 FF FF 7F  F0 FF FF 7F 73 32 33 33  2E..........s233
12B0: 12 80 5B 61 80 36 E2 05  01 36 E2 05 01 74 68 62  ..[a.6...6...thb
12C0: 31 27 10 18 E2 05 01 21  5C 00 7B 80 5C 01 7B 80  1'.....!\.{.\.{.
12D0: 9A 2B 18 E2 05 01 7C 80  23 52 11 80 F0 FF FF 7F  .+....|.#R......
12E0: F0 FF FF 7F 73 32 33 33  45 11 80 F0 FF FF 7F F0  ....s233E.......
12F0: FF FF 7F 73 32 33 34 12  80 4A 36 E2 05 01 A5 E2  ...s234..J6.....
1300: 05 01 79 00 18 E2 05 01  A5 E2 05 01 1C 10 80 2B  ..y............+
1310: 18 E2 05 01 7D 80 23 52  11 80 F0 FF FF 7F F0 FF  ....}.#R........
1320: FF 7F 73 32 33 34 02 01  00 15 80 80 59 13 45 11  ..s234......Y.E.
1330: 80 F0 FF FF 7F F0 FF FF  7F 73 32 33 35 12 80 2B  .........s235..+
1340: 18 E2 05 01 7E 80 23 52  11 80 F0 FF FF 7F F0 FF  ....~.#R........
1350: FF 7F 73 32 33 35 01 8C  13 02 01 00 13 80 80 8C  ..s235..........
1360: 13 45 11 80 F0 FF FF 7F  F0 FF FF 7F 73 32 33 35  .E..........s235
1370: 12 80 2B 18 E2 05 01 7E  80 23 52 11 80 F0 FF FF  ..+....~.#R.....
1380: 7F F0 FF FF 7F 73 32 33  35 01 8C 13 45 11 80 F0  .....s235...E...
1390: FF FF 7F F0 FF FF 7F 73  32 33 36 12 80 5B 40 80  .......s236..[@.
13A0: 18 E2 05 01 18 E2 05 01  67 75 64 30 2B 18 E2 05  ........gud0+...
13B0: 01 7F 80 23 52 11 80 F0  FF FF 7F F0 FF FF 7F 73  ...#R..........s
13C0: 32 33 36 45 11 80 F0 FF  FF 7F F0 FF FF 7F 73 32  236E..........s2
13D0: 35 36 12 80 5B 76 80 A4  E2 05 01 A4 E2 05 01 66  56..[v.........f
13E0: 64 30 30 1C 16 80 5B 76  80 A4 E2 05 01 A4 E2 05  d00...[v........
13F0: 01 66 64 30 31 5B 80 80  A4 E2 05 01 A4 E2 05 01  .fd01[..........
1400: 68 64 62 30 1C 28 80 52  11 80 F0 FF FF 7F F0 FF  hdb0.(.R........
1410: FF 7F 73 32 35 36 45 11  80 F0 FF FF 7F F0 FF FF  ..s256E.........
1420: 7F 73 32 33 37 12 80 2B  A4 E2 05 01 81 80 23 5B  .s237..+......#[
1430: 80 80 A4 E2 05 01 A4 E2  05 01 68 64 62 31 5B 76  ..........hdb1[v
1440: 80 A4 E2 05 01 A4 E2 05  01 66 64 30 30 52 11 80  .........fd00R..
1450: F0 FF FF 7F F0 FF FF 7F  73 32 33 37 45 11 80 F0  ........s237E...
1460: FF FF 7F F0 FF FF 7F 73  32 33 38 12 80 5B 76 80  .......s238..[v.
1470: A4 E2 05 01 A4 E2 05 01  66 30 30 30 2B 18 E2 05  ........f000+...
1480: 01 82 80 23 45 2A 80 F0  FF FF 7F F0 FF FF 7F 66  ...#E*.........f
1490: 64 6F 32 12 80 55 2A 80  F0 FF FF 7F F0 FF FF 7F  do2..U*.........
14A0: 66 64 6F 32 52 11 80 F0  FF FF 7F F0 FF FF 7F 73  fdo2R..........s
14B0: 32 33 38 66 83 80 18 E2  05 01 18 E2 05 01 73 74  238f..........st
14C0: 64 6C 5D 12 80 5B 80 1C  16 80 5C 00 3F 80 5C 01  dl]..[....\.?.\.
14D0: 3F 80 9A 45 11 80 F0 FF  FF 7F F0 FF FF 7F 73 32  ?..E..........s2
14E0: 33 39 12 80 4A 18 E2 05  01 A5 E2 05 01 4A 36 E2  39..J........J6.
14F0: 05 01 A5 E2 05 01 BA A4  E2 05 01 84 80 85 80 86  ................
1500: 80 31 80 59 04 A4 E2 05  01 41 80 27 10 F0 FF FF  .1.Y.....A.'....
1510: 7F 30 27 10 A4 E2 05 01  0C 27 10 A5 E2 05 01 0C  .0'......'......
1520: 45 2A 80 F0 FF FF 7F F0  FF FF 7F 66 64 69 32 12  E*.........fdi2.
1530: 80 55 2A 80 F0 FF FF 7F  F0 FF FF 7F 66 64 69 32  .U*.........fdi2
1540: 1C 10 80 52 11 80 F0 FF  FF 7F F0 FF FF 7F 73 32  ...R..........s2
1550: 33 39 45 11 80 F0 FF FF  7F F0 FF FF 7F 73 32 34  39E..........s24
1560: 30 12 80 1C 10 80 79 00  18 E2 05 01 A4 E2 05 01  0.....y.........
1570: 2B 18 E2 05 01 87 80 23  1C 2C 80 52 11 80 F0 FF  +......#.,.R....
1580: FF 7F F0 FF FF 7F 73 32  34 30 45 11 80 F0 FF FF  ......s240E.....
1590: 7F F0 FF FF 7F 73 32 34  31 12 80 4A 18 E2 05 01  .....s241..J....
15A0: A4 E2 05 01 1C 10 80 4A  A4 E2 05 01 18 E2 05 01  .......J........
15B0: 4A 36 E2 05 01 A4 E2 05  01 7C 00 A4 E2 05 01 2B  J6.......|.....+
15C0: A4 E2 05 01 88 80 23 7C  01 A4 E2 05 01 52 11 80  ......#|.....R..
15D0: F0 FF FF 7F F0 FF FF 7F  73 32 34 31 45 11 80 F0  ........s241E...
15E0: FF FF 7F F0 FF FF 7F 73  32 34 32 12 80 7B A4 E2  .......s242..{..
15F0: 05 01 6F 76 A4 E2 05 01  2B 18 E2 05 01 89 80 23  ..ov....+......#
1600: 52 11 80 F0 FF FF 7F F0  FF FF 7F 73 32 34 32 45  R..........s242E
1610: 11 80 F0 FF FF 7F F0 FF  FF 7F 73 32 35 35 12 80  ..........s255..
1620: 81 00 A4 E2 05 01 5B 8A  80 A4 E2 05 01 A4 E2 05  ......[.........
1630: 01 72 69 6E 32 1C 16 80  52 11 80 F0 FF FF 7F F0  .rin2...R.......
1640: FF FF 7F 73 32 35 35 45  11 80 F0 FF FF 7F F0 FF  ...s255E........
1650: FF 7F 73 32 34 33 12 80  2B A4 E2 05 01 8B 80 23  ..s243..+......#
1660: 52 11 80 F0 FF FF 7F F0  FF FF 7F 73 32 34 33 45  R..........s243E
1670: 11 80 F0 FF FF 7F F0 FF  FF 7F 73 32 34 34 12 80  ..........s244..
1680: 5B 40 80 18 E2 05 01 18  E2 05 01 67 75 64 30 2B  [@.........gud0+
1690: 18 E2 05 01 8C 80 23 5B  5F 80 36 E2 05 01 36 E2  ......#[_.6...6.
16A0: 05 01 66 64 30 30 52 11  80 F0 FF FF 7F F0 FF FF  ..fd00R.........
16B0: 7F 73 32 34 34 45 11 80  F0 FF FF 7F F0 FF FF 7F  .s244E..........
16C0: 73 32 34 35 12 80 5B 5F  80 36 E2 05 01 36 E2 05  s245..[_.6...6..
16D0: 01 66 64 30 31 5B 61 80  36 E2 05 01 36 E2 05 01  .fd01[a.6...6...
16E0: 74 68 62 30 2B 36 E2 05  01 8D 80 23 52 11 80 F0  thb0+6.....#R...
16F0: FF FF 7F F0 FF FF 7F 73  32 34 35 45 11 80 F0 FF  .......s245E....
1700: FF 7F F0 FF FF 7F 73 32  34 36 12 80 1C 14 80 1A  ......s246......
1710: 9B 3A 52 11 80 F0 FF FF  7F F0 FF FF 7F 73 32 34  .:R..........s24
1720: 36 81 01 A4 E2 05 01 35  8E 80 78 1C 10 80 02 02  6......5..x.....
1730: 00 15 80 00 37 17 1B 46  00 45 2A 80 F0 FF FF 7F  ....7..F.E*.....
1740: F0 FF FF 7F 66 64 69 32  12 80 21 00              ....fdi2..!.    
```

#### Opcodes

```
  0: 0x0001 [0x42] SET_CLI_EVENT_CANCEL_DATA()
  1: 0x0002 [0x1A] CALL_SUBROUTINE(address=0x3A9B)
  2: 0x0005 [0x03] ExtData[1]->WorkLocal[0] = Work_Zone[2]
  3: 0x000A [0x03] ExtData[1]->WorkLocal[1] = Work_Zone[3]
  4: 0x000F [0x03] ExtData[1]->WorkLocal[2] = Work_Zone[4]
  5: 0x0014 [0x46] CAMERA_CONTROL: Disable user control
  6: 0x0016 [0x38] SET_CLIENT_EVENT_MODE(mode=19*)
  7: 0x0019 [0x4E] SET_ENTITY_HIDE_FLAG: Show LocalPlayer
  8: 0x001F [0x27] REQ_SET(priority=0x10, entity_id=Lilisette (ID: 17162916/0x0105E2A4), tag_num=0x04)
  9: 0x0026 [0x27] REQ_SET(priority=0x10, entity_id=Halver M Borel (ID: 17162917/0x0105E2A5), tag_num=0x04)
 10: 0x002D [0x92] Lilisette (ID: 17162916/0x0105E2A4)->Render.Flags3 ^= 0x01
 11: 0x0033 [0x92] Halver M Borel (ID: 17162917/0x0105E2A5)->Render.Flags3 ^= 0x01
 12: 0x0039 [0x92] Velda-Galda (ID: 17162914/0x0105E2A2)->Render.Flags3 ^= 0x01
 13: 0x003F [0x94] LocalPlayer->Render.Flags3 ^= 0x01
 14: 0x0045 [0x94] Lilisette (ID: 17162916/0x0105E2A4)->Render.Flags3 ^= 0x01
 15: 0x004B [0x94] Halver M Borel (ID: 17162917/0x0105E2A5)->Render.Flags3 ^= 0x01
 16: 0x0051 [0x94] Velda-Galda (ID: 17162914/0x0105E2A2)->Render.Flags3 ^= 0x01
 17: 0x0057 [0xBA] SET_ENTITY_POSITION(entity_id=LocalPlayer, pos_x=133.984*, pos_z=61.635*, pos_y=-2.022*, direction=3.5°*)
 18: 0x0064 [0xBA] SET_ENTITY_POSITION(entity_id=Lilisette (ID: 17162916/0x0105E2A4), pos_x=134.604*, pos_z=59.694*, pos_y=-1.923*, direction=3.4°*)
 19: 0x0071 [0xBA] SET_ENTITY_POSITION(entity_id=Halver M Borel (ID: 17162917/0x0105E2A5), pos_x=135.164*, pos_z=60.690*, pos_y=-1.997*, direction=3.5°*)
 20: 0x007E [0xBA] SET_ENTITY_POSITION(entity_id=Velda-Galda (ID: 17162914/0x0105E2A2), pos_x=138.631*, pos_z=61.658*, pos_y=-2.112*, direction=170.4°*)
 21: 0x008B [0x4A] LocalPlayer looks at Velda-Galda (ID: 17162914/0x0105E2A2)
 22: 0x0094 [0x4A] Lilisette (ID: 17162916/0x0105E2A4) looks at Velda-Galda (ID: 17162914/0x0105E2A2)
 23: 0x009D [0x4A] Halver M Borel (ID: 17162917/0x0105E2A5) looks at Velda-Galda (ID: 17162914/0x0105E2A2)
 24: 0x00A6 [0x4A] Velda-Galda (ID: 17162914/0x0105E2A2) looks at Halver M Borel (ID: 17162917/0x0105E2A5)
 25: 0x00AF [0x80] LOAD_WAIT(entity=LocalPlayer)
 26: 0x00B4 [0x80] LOAD_WAIT(entity=Lilisette (ID: 17162916/0x0105E2A4))
 27: 0x00B9 [0x80] LOAD_WAIT(entity=Halver M Borel (ID: 17162917/0x0105E2A5))
 28: 0x00BE [0x80] LOAD_WAIT(entity=Velda-Galda (ID: 17162914/0x0105E2A2))
 29: 0x00C3 [0x1C] WAIT(30* ticks)
 30: 0x00C6 [0x4E] SET_ENTITY_HIDE_FLAG: Show Velda-Galda (ID: 17162914/0x0105E2A2)
 31: 0x00CC [0x45] LOAD_SCHEDULED_TASK: Load scheduler "s101" with entities [LocalPlayer, LocalPlayer], work=[450*, 0*]
 32: 0x00DD [0x1A] CALL_SUBROUTINE(address=0x3A7A)
 33: 0x00E0 [0x6E] Halver M Borel (ID: 17162917/0x0105E2A5) uses emote 2*
 34: 0x00E7 [0x99] Wait for Halver M Borel (ID: 17162917/0x0105E2A5) animation to complete
 35: 0x00EC [0x1C] WAIT(120* ticks)
 36: 0x00EF [0x52] END_LOAD_SCHEDULER: End scheduler "s101" with entities [LocalPlayer, LocalPlayer], work=450*
 37: 0x00FE [0x45] LOAD_SCHEDULED_TASK: Load scheduler "s102" with entities [LocalPlayer, LocalPlayer], work=[450*, 0*]
 38: 0x010F [0x6E] Velda-Galda (ID: 17162914/0x0105E2A2) uses emote 1*
 39: 0x0116 [0x99] Wait for Velda-Galda (ID: 17162914/0x0105E2A2) animation to complete
 40: 0x011B [0x1C] WAIT(60* ticks)
 41: 0x011E [0x2B] Velda-Galda (ID: 17162914/0x0105E2A2) [13428*]:
    → "Count Borel!"
 42: 0x0125 [0x23] WAIT_FOR_DIALOG_INTERACTION
 43: 0x0126 [0x52] END_LOAD_SCHEDULER: End scheduler "s102" with entities [LocalPlayer, LocalPlayer], work=450*
 44: 0x0135 [0x45] LOAD_SCHEDULED_TASK: Load scheduler "s104" with entities [LocalPlayer, LocalPlayer], work=[450*, 0*]
 45: 0x0146 [0x2B] Halver M Borel (ID: 17162917/0x0105E2A5) [13429*]:
    → "Velda-Galda, my good sir. It has been a while."
 46: 0x014D [0x23] WAIT_FOR_DIALOG_INTERACTION
 47: 0x014E [0x52] END_LOAD_SCHEDULER: End scheduler "s104" with entities [LocalPlayer, LocalPlayer], work=450*
 48: 0x015D [0x45] LOAD_SCHEDULED_TASK: Load scheduler "s103" with entities [LocalPlayer, LocalPlayer], work=[450*, 0*]
 49: 0x016E [0x66] LOAD_EXT_SCHEDULER_MAIN: Load scheduler "tlk0" with entities [Velda-Galda (ID: 17162914/0x0105E2A2), Velda-Galda (ID: 17162914/0x0105E2A2)], work=49*
 50: 0x017D [0x2B] Velda-Galda (ID: 17162914/0x0105E2A2) [13430*]:
    → "A while it has been indeed! We've been eagerly-weagerly awaiting your arrival!"
 51: 0x0184 [0x23] WAIT_FOR_DIALOG_INTERACTION
 52: 0x0185 [0x66] LOAD_EXT_SCHEDULER_MAIN: Load scheduler "tlk1" with entities [Velda-Galda (ID: 17162914/0x0105E2A2), Velda-Galda (ID: 17162914/0x0105E2A2)], work=49*
 53: 0x0194 [0x52] END_LOAD_SCHEDULER: End scheduler "s103" with entities [LocalPlayer, LocalPlayer], work=450*
 54: 0x01A3 [0x45] LOAD_SCHEDULED_TASK: Load scheduler "s105" with entities [LocalPlayer, LocalPlayer], work=[450*, 0*]
 55: 0x01B4 [0x66] LOAD_EXT_SCHEDULER_MAIN: Load scheduler "tlk0" with entities [Halver M Borel (ID: 17162917/0x0105E2A5), Halver M Borel (ID: 17162917/0x0105E2A5)], work=29*
 56: 0x01C3 [0x2B] Halver M Borel (ID: 17162917/0x0105E2A5) [13431*]:
    → "It is good to see you in such high spirits. Now, as you are no doubt already aware, the purpose for my journey here is--"
 57: 0x01CA [0x23] WAIT_FOR_DIALOG_INTERACTION
 58: 0x01CB [0x66] LOAD_EXT_SCHEDULER_MAIN: Load scheduler "tlk1" with entities [Halver M Borel (ID: 17162917/0x0105E2A5), Halver M Borel (ID: 17162917/0x0105E2A5)], work=29*
 59: 0x01DA [0x52] END_LOAD_SCHEDULER: End scheduler "s105" with entities [LocalPlayer, LocalPlayer], work=450*
 60: 0x01E9 [0x45] LOAD_SCHEDULED_TASK: Load scheduler "s106" with entities [LocalPlayer, LocalPlayer], work=[450*, 0*]
 61: 0x01FA [0x7B] Velda-Galda (ID: 17162914/0x0105E2A2) stops talking
 62: 0x01FF [0x66] LOAD_EXT_SCHEDULER_MAIN: Load scheduler "thk1" with entities [Velda-Galda (ID: 17162914/0x0105E2A2), Velda-Galda (ID: 17162914/0x0105E2A2)], work=49*
 63: 0x020E [0x2B] Velda-Galda (ID: 17162914/0x0105E2A2) [13432*]:
    → "Why, the last time we metaru would have been..."
 64: 0x0215 [0x23] WAIT_FOR_DIALOG_INTERACTION
 65: 0x0216 [0x52] END_LOAD_SCHEDULER: End scheduler "s106" with entities [LocalPlayer, LocalPlayer], work=450*
 66: 0x0225 [0x45] LOAD_SCHEDULED_TASK: Load scheduler "s111" with entities [LocalPlayer, LocalPlayer], work=[450*, 0*]
 67: 0x0236 [0x2B] Velda-Galda (ID: 17162914/0x0105E2A2) [13433*]:
    → "At the final-winals of the Three-nation Conflict Tournament! Yes, that's it! Ah, the memories do come flooding back..."
 68: 0x023D [0x23] WAIT_FOR_DIALOG_INTERACTION
 69: 0x023E [0x66] LOAD_EXT_SCHEDULER_MAIN: Load scheduler "thk2" with entities [Velda-Galda (ID: 17162914/0x0105E2A2), Velda-Galda (ID: 17162914/0x0105E2A2)], work=49*
 70: 0x024D [0x52] END_LOAD_SCHEDULER: End scheduler "s111" with entities [LocalPlayer, LocalPlayer], work=450*
 71: 0x025C [0x45] LOAD_SCHEDULED_TASK: Load scheduler "s107" with entities [LocalPlayer, LocalPlayer], work=[450*, 0*]
 72: 0x026D [0x2B] Velda-Galda (ID: 17162914/0x0105E2A2) [13434*]:
    → "I must say, the crowning moment of the tournamentaru was when, in the dying seconds of the final round, I dropped my lord cold to the groundy-wound with the butt of the club and dashed to victory with Petra in hand!"
 73: 0x0274 [0x23] WAIT_FOR_DIALOG_INTERACTION
 74: 0x0275 [0x52] END_LOAD_SCHEDULER: End scheduler "s107" with entities [LocalPlayer, LocalPlayer], work=450*
 75: 0x0284 [0x45] LOAD_SCHEDULED_TASK: Load scheduler "s112" with entities [LocalPlayer, LocalPlayer], work=[450*, 0*]
 76: 0x0295 [0x2B] Velda-Galda (ID: 17162914/0x0105E2A2) [13435*]:
    → "Why, it's still freshy-wesh in my mind as though it all happened justaru yesterday! <Sigh>... Those were the days..."
 77: 0x029C [0x23] WAIT_FOR_DIALOG_INTERACTION
 78: 0x029D [0x52] END_LOAD_SCHEDULER: End scheduler "s112" with entities [LocalPlayer, LocalPlayer], work=450*
 79: 0x02AC [0x45] LOAD_SCHEDULED_TASK: Load scheduler "s108" with entities [LocalPlayer, LocalPlayer], work=[450*, 0*]
 80: 0x02BD [0x5B] LOAD_EXT_SCHEDULER: Load scheduler "no00" with entities [Lilisette (ID: 17162916/0x0105E2A4), Lilisette (ID: 17162916/0x0105E2A4)], work=2139*
 81: 0x02CC [0x6E] Halver M Borel (ID: 17162917/0x0105E2A5) uses emote 26*
 82: 0x02D3 [0x99] Wait for Halver M Borel (ID: 17162917/0x0105E2A5) animation to complete
 83: 0x02D8 [0x6E] LocalPlayer uses emote 6*
 84: 0x02DF [0x99] Wait for LocalPlayer animation to complete
 85: 0x02E4 [0x1C] WAIT(60* ticks)
 86: 0x02E7 [0x2B] Halver M Borel (ID: 17162917/0x0105E2A5) [13436*]:
    → "A-ahem! Pray forgive my cutting short of your delightful reminiscences, but the matter I seek to discuss with the Warlock Warlord is of utmost urgency."
 87: 0x02EE [0x23] WAIT_FOR_DIALOG_INTERACTION
 88: 0x02EF [0x52] END_LOAD_SCHEDULER: End scheduler "s108" with entities [LocalPlayer, LocalPlayer], work=450*
 89: 0x02FE [0x45] LOAD_SCHEDULED_TASK: Load scheduler "s109" with entities [LocalPlayer, LocalPlayer], work=[450*, 0*]
 90: 0x030F [0x6B] STOP_AND_IDLE: Lilisette (ID: 17162916/0x0105E2A4) stops current action and resets to idle (animation="idl0")
 91: 0x0318 [0x79] Velda-Galda (ID: 17162914/0x0105E2A2) looks at Halver M Borel (ID: 17162917/0x0105E2A5) (Basic look)
 92: 0x0322 [0x6E] Velda-Galda (ID: 17162914/0x0105E2A2) uses emote 13*
 93: 0x0329 [0x99] Wait for Velda-Galda (ID: 17162914/0x0105E2A2) animation to complete
 94: 0x032E [0x1C] WAIT(160* ticks)
 95: 0x0331 [0x2B] Velda-Galda (ID: 17162914/0x0105E2A2) [13437*]:
    → "Uh, oh yes, that's rightaru! Come with me, please."
 96: 0x0338 [0x23] WAIT_FOR_DIALOG_INTERACTION
 97: 0x0339 [0x7B] Velda-Galda (ID: 17162914/0x0105E2A2) stops talking
 98: 0x033E [0x59] UPDATE_ENTITY_DATA: Set Velda-Galda (ID: 17162914/0x0105E2A2) main speed = 13* * 0.1
 99: 0x0346 [0x27] REQ_SET(priority=0x10, entity_id=Velda-Galda (ID: 17162914/0x0105E2A2), tag_num=0x0B)
100: 0x034D [0x1C] WAIT(30* ticks)
101: 0x0350 [0x52] END_LOAD_SCHEDULER: End scheduler "s109" with entities [LocalPlayer, LocalPlayer], work=450*
102: 0x035F [0x45] LOAD_SCHEDULED_TASK: Load scheduler "s110" with entities [LocalPlayer, LocalPlayer], work=[450*, 0*]
103: 0x0370 [0x1C] WAIT(120* ticks)
104: 0x0373 [0x1C] WAIT(10* ticks)
105: 0x0376 [0x1C] WAIT(10* ticks)
106: 0x0379 [0x1C] WAIT(100* ticks)
107: 0x037C [0x45] LOAD_SCHEDULED_TASK: Load scheduler "fdo2" with entities [LocalPlayer, LocalPlayer], work=[200*, 0*]
108: 0x038D [0x55] WAIT_LOAD_SCHEDULER: Wait for scheduler "fdo2" with entities [LocalPlayer, LocalPlayer], work=200*
109: 0x039C [0x52] END_LOAD_SCHEDULER: End scheduler "s110" with entities [LocalPlayer, LocalPlayer], work=450*
110: 0x03AB [0x34] LOAD_UNLOAD_ZONE(zone_id=242*)
111: 0x03AE [0x77] SET_EVENT_TIME_WEATHER(hour=0*, weather=1*)
112: 0x03B3 [0xAB] EventEntity->UnknownFlag = 1 // Enable unknown flag
113: 0x03B5 [0x1C] WAIT(15* ticks)
114: 0x03B8 [0x75] LOAD_ROOM(Load indoor room, room=427*)
115: 0x03BC [0x75] LOAD_ROOM(No action)
116: 0x03BE [0x4E] SET_ENTITY_HIDE_FLAG: Show Lilisette (ID: 17162916/0x0105E2A4)
117: 0x03C4 [0x4E] SET_ENTITY_HIDE_FLAG: Show Halver M Borel (ID: 17162917/0x0105E2A5)
118: 0x03CA [0x4E] SET_ENTITY_HIDE_FLAG: Show Robel-Akbel (ID: 17162776/0x0105E218)
119: 0x03D0 [0x4E] SET_ENTITY_HIDE_FLAG: Show Lehko Habhoka (ID: 17162806/0x0105E236)
120: 0x03D6 [0x4E] SET_ENTITY_HIDE_FLAG: Show Velda-Galda (ID: 17162914/0x0105E2A2)
121: 0x03DC [0xBA] SET_ENTITY_POSITION(entity_id=LocalPlayer, pos_x=32.045*, pos_z=-5.022*, pos_y=-25.250*, direction=206.2°*)
122: 0x03E9 [0xBA] SET_ENTITY_POSITION(entity_id=Lilisette (ID: 17162916/0x0105E2A4), pos_x=29.941*, pos_z=-6.983*, pos_y=-24.750*, direction=206.2°*)
123: 0x03F6 [0xBA] SET_ENTITY_POSITION(entity_id=Halver M Borel (ID: 17162917/0x0105E2A5), pos_x=31.127*, pos_z=-3.090*, pos_y=-25.500*, direction=206.2°*)
124: 0x0403 [0xBA] SET_ENTITY_POSITION(entity_id=Robel-Akbel (ID: 17162776/0x0105E218), pos_x=-6.759*, pos_z=6.736*, pos_y=-25.500*, direction=0.0°*)
125: 0x0410 [0xBA] SET_ENTITY_POSITION(entity_id=Lehko Habhoka (ID: 17162806/0x0105E236), pos_x=-5.894*, pos_z=7.888*, pos_y=-25.500*, direction=0.0°*)
126: 0x041D [0xBA] SET_ENTITY_POSITION(entity_id=Velda-Galda (ID: 17162914/0x0105E2A2), pos_x=31.250*, pos_z=-0.693*, pos_y=-25.999*, direction=206.2°*)
127: 0x042A [0x92] Robel-Akbel (ID: 17162776/0x0105E218)->Render.Flags3 ^= 0x01
128: 0x0430 [0x92] Lehko Habhoka (ID: 17162806/0x0105E236)->Render.Flags3 ^= 0x01
129: 0x0436 [0x94] Robel-Akbel (ID: 17162776/0x0105E218)->Render.Flags3 ^= 0x01
130: 0x043C [0x94] Lehko Habhoka (ID: 17162806/0x0105E236)->Render.Flags3 ^= 0x01
131: 0x0442 [0x80] LOAD_WAIT(entity=Robel-Akbel (ID: 17162776/0x0105E218))
132: 0x0447 [0x80] LOAD_WAIT(entity=Lehko Habhoka (ID: 17162806/0x0105E236))
133: 0x044C [0x4A] LocalPlayer looks at Robel-Akbel (ID: 17162776/0x0105E218)
134: 0x0455 [0x4A] Lilisette (ID: 17162916/0x0105E2A4) looks at Robel-Akbel (ID: 17162776/0x0105E218)
135: 0x045E [0x4A] Robel-Akbel (ID: 17162776/0x0105E218) looks at Halver M Borel (ID: 17162917/0x0105E2A5)
136: 0x0467 [0x4A] Lehko Habhoka (ID: 17162806/0x0105E236) looks at Halver M Borel (ID: 17162917/0x0105E2A5)
137: 0x0470 [0x4A] Halver M Borel (ID: 17162917/0x0105E2A5) looks at Robel-Akbel (ID: 17162776/0x0105E218)
138: 0x0479 [0x5C] MUSIC_CONTROL: Set Idle (Day) music to song 162*
139: 0x047D [0x5C] MUSIC_CONTROL: Set Idle (Night) music to song 162*
140: 0x0481 [0x9A] WAIT_MUSIC_SERVER()
141: 0x0482 [0x59] UPDATE_ENTITY_DATA: Set LocalPlayer main speed = 13* * 0.1
142: 0x048A [0x59] UPDATE_ENTITY_DATA: Set Lilisette (ID: 17162916/0x0105E2A4) main speed = 13* * 0.1
143: 0x0492 [0x59] UPDATE_ENTITY_DATA: Set Halver M Borel (ID: 17162917/0x0105E2A5) main speed = 13* * 0.1
144: 0x049A [0x59] UPDATE_ENTITY_DATA: Set Velda-Galda (ID: 17162914/0x0105E2A2) main speed = 13* * 0.1
145: 0x04A2 [0x27] REQ_SET(priority=0x10, entity_id=LocalPlayer, tag_num=0x2E)
146: 0x04A9 [0x27] REQ_SET(priority=0x10, entity_id=Lilisette (ID: 17162916/0x0105E2A4), tag_num=0x0A)
147: 0x04B0 [0x27] REQ_SET(priority=0x10, entity_id=Halver M Borel (ID: 17162917/0x0105E2A5), tag_num=0x0A)
148: 0x04B7 [0x27] REQ_SET(priority=0x10, entity_id=Velda-Galda (ID: 17162914/0x0105E2A2), tag_num=0x0A)
149: 0x04BE [0x5B] LOAD_EXT_SCHEDULER: Load scheduler "gud0" with entities [Robel-Akbel (ID: 17162776/0x0105E218), Robel-Akbel (ID: 17162776/0x0105E218)], work=1373*
150: 0x04CD [0x45] LOAD_SCHEDULED_TASK: Load scheduler "s201" with entities [LocalPlayer, LocalPlayer], work=[450*, 0*]
151: 0x04DE [0x45] LOAD_SCHEDULED_TASK: Load scheduler "fdi2" with entities [LocalPlayer, LocalPlayer], work=[200*, 0*]
152: 0x04EF [0x55] WAIT_LOAD_SCHEDULER: Wait for scheduler "fdi2" with entities [LocalPlayer, LocalPlayer], work=200*
153: 0x04FE [0x1C] WAIT(120* ticks)
154: 0x0501 [0x52] END_LOAD_SCHEDULER: End scheduler "s201" with entities [LocalPlayer, LocalPlayer], work=450*
155: 0x0510 [0x45] LOAD_SCHEDULED_TASK: Load scheduler "s247" with entities [LocalPlayer, LocalPlayer], work=[450*, 0*]
156: 0x0521 [0x1C] WAIT(120* ticks)
157: 0x0524 [0x6E] Velda-Galda (ID: 17162914/0x0105E2A2) uses emote 0*
158: 0x052B [0x99] Wait for Velda-Galda (ID: 17162914/0x0105E2A2) animation to complete
159: 0x0530 [0x1C] WAIT(120* ticks)
160: 0x0533 [0x52] END_LOAD_SCHEDULER: End scheduler "s247" with entities [LocalPlayer, LocalPlayer], work=450*
161: 0x0542 [0x45] LOAD_SCHEDULED_TASK: Load scheduler "s249" with entities [LocalPlayer, LocalPlayer], work=[450*, 0*]
162: 0x0553 [0x1C] WAIT(60* ticks)
163: 0x0556 [0x4A] Velda-Galda (ID: 17162914/0x0105E2A2) looks at Halver M Borel (ID: 17162917/0x0105E2A5)
164: 0x055F [0x6E] Halver M Borel (ID: 17162917/0x0105E2A5) uses emote 1*
165: 0x0566 [0x99] Wait for Halver M Borel (ID: 17162917/0x0105E2A5) animation to complete
166: 0x056B [0x1C] WAIT(120* ticks)
167: 0x056E [0x52] END_LOAD_SCHEDULER: End scheduler "s249" with entities [LocalPlayer, LocalPlayer], work=450*
168: 0x057D [0x45] LOAD_SCHEDULED_TASK: Load scheduler "s250" with entities [LocalPlayer, LocalPlayer], work=[450*, 0*]
169: 0x058E [0x6E] Velda-Galda (ID: 17162914/0x0105E2A2) uses emote 8*
170: 0x0595 [0x99] Wait for Velda-Galda (ID: 17162914/0x0105E2A2) animation to complete
171: 0x059A [0x1C] WAIT(90* ticks)
172: 0x059D [0x52] END_LOAD_SCHEDULER: End scheduler "s240" with entities [LocalPlayer, LocalPlayer], work=450*
173: 0x05AC [0x45] LOAD_SCHEDULED_TASK: Load scheduler "s251" with entities [LocalPlayer, LocalPlayer], work=[450*, 0*]
174: 0x05BD [0x7B] LocalPlayer stops talking
175: 0x05C2 [0x7B] Lilisette (ID: 17162916/0x0105E2A4) stops talking
176: 0x05C7 [0x7B] Halver M Borel (ID: 17162917/0x0105E2A5) stops talking
177: 0x05CC [0x27] REQ_SET(priority=0x10, entity_id=Halver M Borel (ID: 17162917/0x0105E2A5), tag_num=0x0B)
178: 0x05D3 [0x1C] WAIT(10* ticks)
179: 0x05D6 [0x27] REQ_SET(priority=0x10, entity_id=Lilisette (ID: 17162916/0x0105E2A4), tag_num=0x0B)
180: 0x05DD [0x1C] WAIT(10* ticks)
181: 0x05E0 [0x27] REQ_SET(priority=0x10, entity_id=LocalPlayer, tag_num=0x2F)
182: 0x05E7 [0x1C] WAIT(150* ticks)
183: 0x05EA [0x45] LOAD_SCHEDULED_TASK: Load scheduler "fdo2" with entities [LocalPlayer, LocalPlayer], work=[200*, 0*]
184: 0x05FB [0x55] WAIT_LOAD_SCHEDULER: Wait for scheduler "fdo2" with entities [LocalPlayer, LocalPlayer], work=200*
185: 0x060A [0x52] END_LOAD_SCHEDULER: End scheduler "s251" with entities [LocalPlayer, LocalPlayer], work=450*
186: 0x0619 [0x7A] VM_CONTROL: Reset VM for LocalPlayer
187: 0x061F [0x7A] VM_CONTROL: Reset VM for Lilisette (ID: 17162916/0x0105E2A4)
188: 0x0625 [0x7A] VM_CONTROL: Reset VM for Halver M Borel (ID: 17162917/0x0105E2A5)
189: 0x062B [0xBA] SET_ENTITY_POSITION(entity_id=LocalPlayer, pos_x=2.726*, pos_z=6.158*, pos_y=-25.500*, direction=284.0°*)
190: 0x0638 [0xBA] SET_ENTITY_POSITION(entity_id=Lilisette (ID: 17162916/0x0105E2A4), pos_x=-0.930*, pos_z=2.984*, pos_y=-25.500*, direction=211.4°*)
191: 0x0645 [0xBA] SET_ENTITY_POSITION(entity_id=Halver M Borel (ID: 17162917/0x0105E2A5), pos_x=-0.939*, pos_z=3.908*, pos_y=-25.500*, direction=284.0°*)
192: 0x0652 [0xBA] SET_ENTITY_POSITION(entity_id=Robel-Akbel (ID: 17162776/0x0105E218), pos_x=-6.759*, pos_z=6.736*, pos_y=-25.500*, direction=0.0°*)
193: 0x065F [0xBA] SET_ENTITY_POSITION(entity_id=Lehko Habhoka (ID: 17162806/0x0105E236), pos_x=-8.069*, pos_z=6.524*, pos_y=-25.500*, direction=0.0°*)
194: 0x066C [0x4A] Robel-Akbel (ID: 17162776/0x0105E218) looks at Halver M Borel (ID: 17162917/0x0105E2A5)
195: 0x0675 [0x4A] Lehko Habhoka (ID: 17162806/0x0105E236) looks at Halver M Borel (ID: 17162917/0x0105E2A5)
196: 0x067E [0x27] REQ_SET(priority=0x10, entity_id=Halver M Borel (ID: 17162917/0x0105E2A5), tag_num=0x0B)
197: 0x0685 [0x1C] WAIT(5* ticks)
198: 0x0688 [0x27] REQ_SET(priority=0x10, entity_id=LocalPlayer, tag_num=0x2F)
199: 0x068F [0x1C] WAIT(5* ticks)
200: 0x0692 [0x27] REQ_SET(priority=0x10, entity_id=Lilisette (ID: 17162916/0x0105E2A4), tag_num=0x0B)
201: 0x0699 [0x45] LOAD_SCHEDULED_TASK: Load scheduler "s252" with entities [LocalPlayer, LocalPlayer], work=[450*, 0*]
202: 0x06AA [0x45] LOAD_SCHEDULED_TASK: Load scheduler "fdi2" with entities [LocalPlayer, LocalPlayer], work=[200*, 0*]
203: 0x06BB [0x55] WAIT_LOAD_SCHEDULER: Wait for scheduler "fdi2" with entities [LocalPlayer, LocalPlayer], work=200*
204: 0x06CA [0x1C] WAIT(40* ticks)
205: 0x06CD [0x52] END_LOAD_SCHEDULER: End scheduler "s252" with entities [LocalPlayer, LocalPlayer], work=450*
206: 0x06DC [0x45] LOAD_SCHEDULED_TASK: Load scheduler "s223" with entities [LocalPlayer, LocalPlayer], work=[450*, 0*]
207: 0x06ED [0x1C] WAIT(150* ticks)
208: 0x06F0 [0x52] END_LOAD_SCHEDULER: End scheduler "s223" with entities [LocalPlayer, LocalPlayer], work=450*
209: 0x06FF [0x45] LOAD_SCHEDULED_TASK: Load scheduler "s202" with entities [LocalPlayer, LocalPlayer], work=[450*, 0*]
210: 0x0710 [0x2B] Robel-Akbel (ID: 17162776/0x0105E218) [13438*]:
    → "Windurst extends its welcome to our San d'Orian allies."
211: 0x0717 [0x23] WAIT_FOR_DIALOG_INTERACTION
212: 0x0718 [0x52] END_LOAD_SCHEDULER: End scheduler "s202" with entities [LocalPlayer, LocalPlayer], work=450*
213: 0x0727 [0x45] LOAD_SCHEDULED_TASK: Load scheduler "s203" with entities [LocalPlayer, LocalPlayer], work=[450*, 0*]
214: 0x0738 [0x4A] Robel-Akbel (ID: 17162776/0x0105E218) looks at Halver M Borel (ID: 17162917/0x0105E2A5)
215: 0x0741 [0x4A] Lehko Habhoka (ID: 17162806/0x0105E236) looks at Halver M Borel (ID: 17162917/0x0105E2A5)
216: 0x074A [0x6E] Halver M Borel (ID: 17162917/0x0105E2A5) uses emote 2*
217: 0x0751 [0x99] Wait for Halver M Borel (ID: 17162917/0x0105E2A5) animation to complete
218: 0x0756 [0x1C] WAIT(60* ticks)
219: 0x0759 [0x2B] Halver M Borel (ID: 17162917/0x0105E2A5) [13439*]:
    → "Official emissary from San d'Oria, Halver M Borel, at your service."
220: 0x0760 [0x23] WAIT_FOR_DIALOG_INTERACTION
221: 0x0761 [0x52] END_LOAD_SCHEDULER: End scheduler "s203" with entities [LocalPlayer, LocalPlayer], work=450*
222: 0x0770 [0x45] LOAD_SCHEDULED_TASK: Load scheduler "s204" with entities [LocalPlayer, LocalPlayer], work=[450*, 0*]
223: 0x0781 [0x2B] Robel-Akbel (ID: 17162776/0x0105E218) [13440*]:
    → "Well met, Count Borel. I am Warlock Warlord Robel-Akbel."
224: 0x0788 [0x23] WAIT_FOR_DIALOG_INTERACTION
225: 0x0789 [0x52] END_LOAD_SCHEDULER: End scheduler "s204" with entities [LocalPlayer, LocalPlayer], work=450*
226: 0x0798 [0x45] LOAD_SCHEDULED_TASK: Load scheduler "s205" with entities [LocalPlayer, LocalPlayer], work=[450*, 0*]
227: 0x07A9 [0x5B] LOAD_EXT_SCHEDULER: Load scheduler "tlb0" with entities [Lehko Habhoka (ID: 17162806/0x0105E236), Lehko Habhoka (ID: 17162806/0x0105E236)], work=1443*
228: 0x07B8 [0x2B] Lehko Habhoka (ID: 17162806/0x0105E236) [13441*]:
    → "And I, Lehko Habhoka, military tactician, and advisor to the Warlock Warlord."
229: 0x07BF [0x23] WAIT_FOR_DIALOG_INTERACTION
230: 0x07C0 [0x5B] LOAD_EXT_SCHEDULER: Load scheduler "tlb1" with entities [Lehko Habhoka (ID: 17162806/0x0105E236), Lehko Habhoka (ID: 17162806/0x0105E236)], work=1443*
231: 0x07CF [0x52] END_LOAD_SCHEDULER: End scheduler "s205" with entities [LocalPlayer, LocalPlayer], work=450*
232: 0x07DE [0x45] LOAD_SCHEDULED_TASK: Load scheduler "s206" with entities [LocalPlayer, LocalPlayer], work=[450*, 0*]
233: 0x07EF [0x2B] Halver M Borel (ID: 17162917/0x0105E2A5) [13442*]:
    → "With me here are my traveling companions on this mission, Lilisette of Troupe Mayakov, and..."
234: 0x07F6 [0x23] WAIT_FOR_DIALOG_INTERACTION
235: 0x07F7 [0x52] END_LOAD_SCHEDULER: End scheduler "s206" with entities [LocalPlayer, LocalPlayer], work=450*
236: 0x0806 [0x45] LOAD_SCHEDULED_TASK: Load scheduler "s253" with entities [LocalPlayer, LocalPlayer], work=[450*, 0*]
237: 0x0817 [0x5B] LOAD_EXT_SCHEDULER: Load scheduler "san0" with entities [Lilisette (ID: 17162916/0x0105E2A4), Lilisette (ID: 17162916/0x0105E2A4)], work=2247*
238: 0x0826 [0x1C] WAIT(130* ticks)
239: 0x0829 [0x02] IF !(ExtData[1]->WorkLocal[1] == 0*) GOTO 0x0A6A
240: 0x0831 [0x52] END_LOAD_SCHEDULER: End scheduler "s253" with entities [LocalPlayer, LocalPlayer], work=450*
241: 0x0840 [0x45] LOAD_SCHEDULED_TASK: Load scheduler "s211" with entities [LocalPlayer, LocalPlayer], work=[450*, 0*]
242: 0x0851 [0x2B] Halver M Borel (ID: 17162917/0x0105E2A5) [13447*]:
    → "<Player>, of [/the Knights of the Iron Ram/the Seventh Cohors of Bastok/your very own Cobra Mercenaries]."
243: 0x0858 [0x23] WAIT_FOR_DIALOG_INTERACTION
244: 0x0859 [0x29] REQ_SET_WAIT(priority=0x10, entity_id=LocalPlayer, tag_num=0x0A)
245: 0x0860 [0x02] IF !(Work_Zone[2] == 1*) GOTO 0x088B
246: 0x0868 [0x52] END_LOAD_SCHEDULER: End scheduler "s211" with entities [LocalPlayer, LocalPlayer], work=450*
247: 0x0877 [0x45] LOAD_SCHEDULED_TASK: Load scheduler "shm1" with entities [LocalPlayer, LocalPlayer], work=[450*, 0*]
248: 0x0888 [0x01] GOTO 0x09B8
249: 0x088B [0x02] IF !(Work_Zone[2] == 2*) GOTO 0x08B6
250: 0x0893 [0x52] END_LOAD_SCHEDULER: End scheduler "s211" with entities [LocalPlayer, LocalPlayer], work=450*
251: 0x08A2 [0x45] LOAD_SCHEDULED_TASK: Load scheduler "shm1" with entities [LocalPlayer, LocalPlayer], work=[450*, 0*]
252: 0x08B3 [0x01] GOTO 0x09B8
253: 0x08B6 [0x02] IF !(Work_Zone[2] == 3*) GOTO 0x08E1
254: 0x08BE [0x52] END_LOAD_SCHEDULER: End scheduler "s211" with entities [LocalPlayer, LocalPlayer], work=450*
255: 0x08CD [0x45] LOAD_SCHEDULED_TASK: Load scheduler "sem1" with entities [LocalPlayer, LocalPlayer], work=[450*, 0*]
256: 0x08DE [0x01] GOTO 0x09B8
257: 0x08E1 [0x02] IF !(Work_Zone[2] == 4*) GOTO 0x090C
258: 0x08E9 [0x52] END_LOAD_SCHEDULER: End scheduler "s211" with entities [LocalPlayer, LocalPlayer], work=450*
259: 0x08F8 [0x45] LOAD_SCHEDULED_TASK: Load scheduler "sem1" with entities [LocalPlayer, LocalPlayer], work=[450*, 0*]
260: 0x0909 [0x01] GOTO 0x09B8
261: 0x090C [0x02] IF !(Work_Zone[2] == 5*) GOTO 0x0937
262: 0x0914 [0x52] END_LOAD_SCHEDULER: End scheduler "s211" with entities [LocalPlayer, LocalPlayer], work=450*
263: 0x0923 [0x45] LOAD_SCHEDULED_TASK: Load scheduler "str1" with entities [LocalPlayer, LocalPlayer], work=[450*, 0*]
264: 0x0934 [0x01] GOTO 0x09B8
265: 0x0937 [0x02] IF !(Work_Zone[2] == 6*) GOTO 0x0962
266: 0x093F [0x52] END_LOAD_SCHEDULER: End scheduler "s211" with entities [LocalPlayer, LocalPlayer], work=450*
267: 0x094E [0x45] LOAD_SCHEDULED_TASK: Load scheduler "str1" with entities [LocalPlayer, LocalPlayer], work=[450*, 0*]
268: 0x095F [0x01] GOTO 0x09B8
269: 0x0962 [0x02] IF !(Work_Zone[2] == 7*) GOTO 0x098D
270: 0x096A [0x52] END_LOAD_SCHEDULER: End scheduler "s211" with entities [LocalPlayer, LocalPlayer], work=450*
271: 0x0979 [0x45] LOAD_SCHEDULED_TASK: Load scheduler "smt1" with entities [LocalPlayer, LocalPlayer], work=[450*, 0*]
272: 0x098A [0x01] GOTO 0x09B8
273: 0x098D [0x02] IF !(Work_Zone[2] == 8*) GOTO 0x09B8
274: 0x0995 [0x52] END_LOAD_SCHEDULER: End scheduler "s211" with entities [LocalPlayer, LocalPlayer], work=450*
275: 0x09A4 [0x45] LOAD_SCHEDULED_TASK: Load scheduler "sgl1" with entities [LocalPlayer, LocalPlayer], work=[450*, 0*]
276: 0x09B5 [0x01] GOTO 0x09B8

SUBROUTINE_09B8:
277: 0x09B8 [0x5B] LOAD_EXT_SCHEDULER: Load scheduler "std0" with entities [Lilisette (ID: 17162916/0x0105E2A4), Lilisette (ID: 17162916/0x0105E2A4)], work=2247*
278: 0x09C7 [0x6E] LocalPlayer uses emote 1*
279: 0x09CE [0x99] Wait for LocalPlayer animation to complete
280: 0x09D3 [0x1C] WAIT(180* ticks)
281: 0x09D6 [0x52] END_LOAD_SCHEDULER: End scheduler "shm1" with entities [LocalPlayer, LocalPlayer], work=450*
282: 0x09E5 [0x52] END_LOAD_SCHEDULER: End scheduler "shm1" with entities [LocalPlayer, LocalPlayer], work=450*
283: 0x09F4 [0x52] END_LOAD_SCHEDULER: End scheduler "sem1" with entities [LocalPlayer, LocalPlayer], work=450*
284: 0x0A03 [0x52] END_LOAD_SCHEDULER: End scheduler "sem1" with entities [LocalPlayer, LocalPlayer], work=450*
285: 0x0A12 [0x52] END_LOAD_SCHEDULER: End scheduler "str1" with entities [LocalPlayer, LocalPlayer], work=450*
286: 0x0A21 [0x52] END_LOAD_SCHEDULER: End scheduler "smt1" with entities [LocalPlayer, LocalPlayer], work=450*
287: 0x0A30 [0x52] END_LOAD_SCHEDULER: End scheduler "sgl1" with entities [LocalPlayer, LocalPlayer], work=450*
288: 0x0A3F [0x45] LOAD_SCHEDULED_TASK: Load scheduler "s212" with entities [LocalPlayer, LocalPlayer], work=[450*, 0*]
289: 0x0A50 [0x2B] Robel-Akbel (ID: 17162776/0x0105E218) [13448*]:
    → "I see..."
290: 0x0A57 [0x23] WAIT_FOR_DIALOG_INTERACTION
291: 0x0A58 [0x52] END_LOAD_SCHEDULER: End scheduler "s212" with entities [LocalPlayer, LocalPlayer], work=450*
292: 0x0A67 [0x01] GOTO 0x0D65
293: 0x0A6A [0x02] IF !(ExtData[1]->WorkLocal[1] == 1*) GOTO 0x0D57

SUBROUTINE_0A72:
294: 0x0A72 [0x29] REQ_SET_WAIT(priority=0x10, entity_id=LocalPlayer, tag_num=0x0A)
295: 0x0A79 [0x02] IF !(Work_Zone[2] == 1*) GOTO 0x0AA4
296: 0x0A81 [0x52] END_LOAD_SCHEDULER: End scheduler "s253" with entities [LocalPlayer, LocalPlayer], work=450*
297: 0x0A90 [0x45] LOAD_SCHEDULED_TASK: Load scheduler "shm1" with entities [LocalPlayer, LocalPlayer], work=[450*, 0*]
298: 0x0AA1 [0x01] GOTO 0x0BD1
299: 0x0AA4 [0x02] IF !(Work_Zone[2] == 2*) GOTO 0x0ACF
300: 0x0AAC [0x52] END_LOAD_SCHEDULER: End scheduler "s253" with entities [LocalPlayer, LocalPlayer], work=450*
301: 0x0ABB [0x45] LOAD_SCHEDULED_TASK: Load scheduler "shm1" with entities [LocalPlayer, LocalPlayer], work=[450*, 0*]
302: 0x0ACC [0x01] GOTO 0x0BD1
303: 0x0ACF [0x02] IF !(Work_Zone[2] == 3*) GOTO 0x0AFA
304: 0x0AD7 [0x52] END_LOAD_SCHEDULER: End scheduler "s253" with entities [LocalPlayer, LocalPlayer], work=450*
305: 0x0AE6 [0x45] LOAD_SCHEDULED_TASK: Load scheduler "sem1" with entities [LocalPlayer, LocalPlayer], work=[450*, 0*]
306: 0x0AF7 [0x01] GOTO 0x0BD1
307: 0x0AFA [0x02] IF !(Work_Zone[2] == 4*) GOTO 0x0B25
308: 0x0B02 [0x52] END_LOAD_SCHEDULER: End scheduler "s253" with entities [LocalPlayer, LocalPlayer], work=450*
309: 0x0B11 [0x45] LOAD_SCHEDULED_TASK: Load scheduler "sem1" with entities [LocalPlayer, LocalPlayer], work=[450*, 0*]
310: 0x0B22 [0x01] GOTO 0x0BD1
311: 0x0B25 [0x02] IF !(Work_Zone[2] == 5*) GOTO 0x0B50
312: 0x0B2D [0x52] END_LOAD_SCHEDULER: End scheduler "s253" with entities [LocalPlayer, LocalPlayer], work=450*
313: 0x0B3C [0x45] LOAD_SCHEDULED_TASK: Load scheduler "str1" with entities [LocalPlayer, LocalPlayer], work=[450*, 0*]
314: 0x0B4D [0x01] GOTO 0x0BD1
315: 0x0B50 [0x02] IF !(Work_Zone[2] == 6*) GOTO 0x0B7B
316: 0x0B58 [0x52] END_LOAD_SCHEDULER: End scheduler "s253" with entities [LocalPlayer, LocalPlayer], work=450*
317: 0x0B67 [0x45] LOAD_SCHEDULED_TASK: Load scheduler "str1" with entities [LocalPlayer, LocalPlayer], work=[450*, 0*]
318: 0x0B78 [0x01] GOTO 0x0BD1
319: 0x0B7B [0x02] IF !(Work_Zone[2] == 7*) GOTO 0x0BA6
320: 0x0B83 [0x52] END_LOAD_SCHEDULER: End scheduler "s253" with entities [LocalPlayer, LocalPlayer], work=450*
321: 0x0B92 [0x45] LOAD_SCHEDULED_TASK: Load scheduler "smt1" with entities [LocalPlayer, LocalPlayer], work=[450*, 0*]
322: 0x0BA3 [0x01] GOTO 0x0BD1
323: 0x0BA6 [0x02] IF !(Work_Zone[2] == 8*) GOTO 0x0BD1
324: 0x0BAE [0x52] END_LOAD_SCHEDULER: End scheduler "s253" with entities [LocalPlayer, LocalPlayer], work=450*
325: 0x0BBD [0x45] LOAD_SCHEDULED_TASK: Load scheduler "sgl1" with entities [LocalPlayer, LocalPlayer], work=[450*, 0*]
326: 0x0BCE [0x01] GOTO 0x0BD1

SUBROUTINE_0BD1:
327: 0x0BD1 [0x5B] LOAD_EXT_SCHEDULER: Load scheduler "std0" with entities [Lilisette (ID: 17162916/0x0105E2A4), Lilisette (ID: 17162916/0x0105E2A4)], work=2247*
328: 0x0BE0 [0x6E] LocalPlayer uses emote 1*
329: 0x0BE7 [0x99] Wait for LocalPlayer animation to complete
330: 0x0BEC [0x1C] WAIT(180* ticks)
331: 0x0BEF [0x52] END_LOAD_SCHEDULER: End scheduler "shm1" with entities [LocalPlayer, LocalPlayer], work=450*
332: 0x0BFE [0x52] END_LOAD_SCHEDULER: End scheduler "shm1" with entities [LocalPlayer, LocalPlayer], work=450*
333: 0x0C0D [0x52] END_LOAD_SCHEDULER: End scheduler "sem1" with entities [LocalPlayer, LocalPlayer], work=450*
334: 0x0C1C [0x52] END_LOAD_SCHEDULER: End scheduler "sem1" with entities [LocalPlayer, LocalPlayer], work=450*
335: 0x0C2B [0x52] END_LOAD_SCHEDULER: End scheduler "str1" with entities [LocalPlayer, LocalPlayer], work=450*
336: 0x0C3A [0x52] END_LOAD_SCHEDULER: End scheduler "smt1" with entities [LocalPlayer, LocalPlayer], work=450*
337: 0x0C49 [0x52] END_LOAD_SCHEDULER: End scheduler "sgl1" with entities [LocalPlayer, LocalPlayer], work=450*
338: 0x0C58 [0x45] LOAD_SCHEDULED_TASK: Load scheduler "s207" with entities [LocalPlayer, LocalPlayer], work=[450*, 0*]
339: 0x0C69 [0x79] Robel-Akbel (ID: 17162776/0x0105E218) looks at LocalPlayer (Basic look)
340: 0x0C73 [0x79] Lehko Habhoka (ID: 17162806/0x0105E236) looks at LocalPlayer (Basic look)
341: 0x0C7D [0x2B] Robel-Akbel (ID: 17162776/0x0105E218) [13443*]:
    → "<Player>... You've been keeping yourself occupied, I see."
342: 0x0C84 [0x23] WAIT_FOR_DIALOG_INTERACTION
343: 0x0C85 [0x52] END_LOAD_SCHEDULER: End scheduler "s207" with entities [LocalPlayer, LocalPlayer], work=450*
344: 0x0C94 [0x45] LOAD_SCHEDULED_TASK: Load scheduler "s208" with entities [LocalPlayer, LocalPlayer], work=[450*, 0*]
345: 0x0CA5 [0x6E] Halver M Borel (ID: 17162917/0x0105E2A5) uses emote 7*
346: 0x0CAC [0x99] Wait for Halver M Borel (ID: 17162917/0x0105E2A5) animation to complete
347: 0x0CB1 [0x2B] Halver M Borel (ID: 17162917/0x0105E2A5) [13444*]:
    → "It would appear that <Player> requires no introduction. The hand of fate has obviously led [him/her] here."
348: 0x0CB8 [0x23] WAIT_FOR_DIALOG_INTERACTION
349: 0x0CB9 [0x52] END_LOAD_SCHEDULER: End scheduler "s208" with entities [LocalPlayer, LocalPlayer], work=450*
350: 0x0CC8 [0x45] LOAD_SCHEDULED_TASK: Load scheduler "s209" with entities [LocalPlayer, LocalPlayer], work=[450*, 0*]
351: 0x0CD9 [0x5B] LOAD_EXT_SCHEDULER: Load scheduler "fd00" with entities [Lehko Habhoka (ID: 17162806/0x0105E236), Lehko Habhoka (ID: 17162806/0x0105E236)], work=1442*
352: 0x0CE8 [0x2B] Robel-Akbel (ID: 17162776/0x0105E218) [13445*]:
    → "Indeed."
353: 0x0CEF [0x23] WAIT_FOR_DIALOG_INTERACTION
354: 0x0CF0 [0x52] END_LOAD_SCHEDULER: End scheduler "s209" with entities [LocalPlayer, LocalPlayer], work=450*
355: 0x0CFF [0x45] LOAD_SCHEDULED_TASK: Load scheduler "s210" with entities [LocalPlayer, LocalPlayer], work=[450*, 0*]
356: 0x0D10 [0x5B] LOAD_EXT_SCHEDULER: Load scheduler "fd01" with entities [Lehko Habhoka (ID: 17162806/0x0105E236), Lehko Habhoka (ID: 17162806/0x0105E236)], work=1442*
357: 0x0D1F [0x5B] LOAD_EXT_SCHEDULER: Load scheduler "thb0" with entities [Lehko Habhoka (ID: 17162806/0x0105E236), Lehko Habhoka (ID: 17162806/0x0105E236)], work=1446*
358: 0x0D2E [0x2B] Lehko Habhoka (ID: 17162806/0x0105E236) [13446*]:
    → "<Player>. You were off gallivanting in San d'Oria all this time, but didn't think to tell me? Hmph..."
359: 0x0D35 [0x23] WAIT_FOR_DIALOG_INTERACTION
360: 0x0D36 [0x5B] LOAD_EXT_SCHEDULER: Load scheduler "thb1" with entities [Lehko Habhoka (ID: 17162806/0x0105E236), Lehko Habhoka (ID: 17162806/0x0105E236)], work=1446*
361: 0x0D45 [0x52] END_LOAD_SCHEDULER: End scheduler "s210" with entities [LocalPlayer, LocalPlayer], work=450*
362: 0x0D54 [0x01] GOTO 0x0D65
363: 0x0D57 [0x02] IF !(ExtData[1]->WorkLocal[1] == 2*) GOTO 0x0D65
364: 0x0D5F [0x01] GOTO 0x0A72

SUBROUTINE_0D65:
365: 0x0D65 [0x45] LOAD_SCHEDULED_TASK: Load scheduler "s213" with entities [LocalPlayer, LocalPlayer], work=[450*, 0*]
366: 0x0D76 [0x79] Robel-Akbel (ID: 17162776/0x0105E218) looks at Halver M Borel (ID: 17162917/0x0105E2A5) (Basic look)
367: 0x0D80 [0x79] Lehko Habhoka (ID: 17162806/0x0105E236) looks at Halver M Borel (ID: 17162917/0x0105E2A5) (Basic look)
368: 0x0D8A [0x2B] Robel-Akbel (ID: 17162776/0x0105E218) [13449*]:
    → "Now then, what is this urgent matter that you wish to discuss?"
369: 0x0D91 [0x23] WAIT_FOR_DIALOG_INTERACTION
370: 0x0D92 [0x52] END_LOAD_SCHEDULER: End scheduler "s213" with entities [LocalPlayer, LocalPlayer], work=450*
371: 0x0DA1 [0x45] LOAD_SCHEDULED_TASK: Load scheduler "s214" with entities [LocalPlayer, LocalPlayer], work=[450*, 0*]
372: 0x0DB2 [0x2B] Halver M Borel (ID: 17162917/0x0105E2A5) [13450*]:
    → "Yes, well..."
373: 0x0DB9 [0x23] WAIT_FOR_DIALOG_INTERACTION
374: 0x0DBA [0x45] LOAD_SCHEDULED_TASK: Load scheduler "fdo2" with entities [LocalPlayer, LocalPlayer], work=[200*, 0*]
375: 0x0DCB [0x55] WAIT_LOAD_SCHEDULER: Wait for scheduler "fdo2" with entities [LocalPlayer, LocalPlayer], work=200*
376: 0x0DDA [0x52] END_LOAD_SCHEDULER: End scheduler "s214" with entities [LocalPlayer, LocalPlayer], work=450*
377: 0x0DE9 [0x5B] LOAD_EXT_SCHEDULER: Load scheduler "f000" with entities [Lehko Habhoka (ID: 17162806/0x0105E236), Lehko Habhoka (ID: 17162806/0x0105E236)], work=1442*
378: 0x0DF8 [0x1C] WAIT(120* ticks)
379: 0x0DFB [0x45] LOAD_SCHEDULED_TASK: Load scheduler "s215" with entities [LocalPlayer, LocalPlayer], work=[450*, 0*]
380: 0x0E0C [0x45] LOAD_SCHEDULED_TASK: Load scheduler "fdi2" with entities [LocalPlayer, LocalPlayer], work=[200*, 0*]
381: 0x0E1D [0x55] WAIT_LOAD_SCHEDULER: Wait for scheduler "fdi2" with entities [LocalPlayer, LocalPlayer], work=200*
382: 0x0E2C [0x27] REQ_SET(priority=0x10, entity_id=Robel-Akbel (ID: 17162776/0x0105E218), tag_num=0x21)
383: 0x0E33 [0x2B] Robel-Akbel (ID: 17162776/0x0105E218) [13451*]:
    → "...Surrender?"
384: 0x0E3A [0x23] WAIT_FOR_DIALOG_INTERACTION
385: 0x0E3B [0x52] END_LOAD_SCHEDULER: End scheduler "s215" with entities [LocalPlayer, LocalPlayer], work=450*
386: 0x0E4A [0x45] LOAD_SCHEDULED_TASK: Load scheduler "s216" with entities [LocalPlayer, LocalPlayer], work=[450*, 0*]
387: 0x0E5B [0x66] LOAD_EXT_SCHEDULER_MAIN: Load scheduler "tlk0" with entities [Halver M Borel (ID: 17162917/0x0105E2A5), Halver M Borel (ID: 17162917/0x0105E2A5)], work=29*
388: 0x0E6A [0x2B] Halver M Borel (ID: 17162917/0x0105E2A5) [13452*]:
    → "Those were the exact words of Sir Nag'molada."
389: 0x0E71 [0x23] WAIT_FOR_DIALOG_INTERACTION
390: 0x0E72 [0x66] LOAD_EXT_SCHEDULER_MAIN: Load scheduler "tlk1" with entities [Halver M Borel (ID: 17162917/0x0105E2A5), Halver M Borel (ID: 17162917/0x0105E2A5)], work=29*
391: 0x0E81 [0x52] END_LOAD_SCHEDULER: End scheduler "s216" with entities [LocalPlayer, LocalPlayer], work=450*
392: 0x0E90 [0x45] LOAD_SCHEDULED_TASK: Load scheduler "s217" with entities [LocalPlayer, LocalPlayer], work=[450*, 0*]
393: 0x0EA1 [0x2B] Robel-Akbel (ID: 17162776/0x0105E218) [13453*]:
    → "That the regions surrounding Jeuno have hosted a great many battles against the beastmen is well known to us."
394: 0x0EA8 [0x23] WAIT_FOR_DIALOG_INTERACTION
395: 0x0EA9 [0x02] IF !(ExtData[1]->WorkLocal[1] == 2*) GOTO 0x0F9B
396: 0x0EB1 [0x2B] Robel-Akbel (ID: 17162776/0x0105E218) [13454*]:
    → "As a matter of fact, several War Warlock brigades have been deployed to those conflict-ridden areas at the Duchy's behest."
397: 0x0EB8 [0x23] WAIT_FOR_DIALOG_INTERACTION
398: 0x0EB9 [0x5B] LOAD_EXT_SCHEDULER: Load scheduler "fc00" with entities [Lehko Habhoka (ID: 17162806/0x0105E236), Lehko Habhoka (ID: 17162806/0x0105E236)], work=1442*
399: 0x0EC8 [0x52] END_LOAD_SCHEDULER: End scheduler "s217" with entities [LocalPlayer, LocalPlayer], work=450*
400: 0x0ED7 [0x45] LOAD_SCHEDULED_TASK: Load scheduler "s219" with entities [LocalPlayer, LocalPlayer], work=[450*, 0*]
401: 0x0EE8 [0x6B] STOP_AND_IDLE: Lilisette (ID: 17162916/0x0105E2A4) stops current action and resets to idle (animation="idl0")
402: 0x0EF1 [0x5B] LOAD_EXT_SCHEDULER: Load scheduler "fc01" with entities [Lehko Habhoka (ID: 17162806/0x0105E236), Lehko Habhoka (ID: 17162806/0x0105E236)], work=1442*
403: 0x0F00 [0x5B] LOAD_EXT_SCHEDULER: Load scheduler "tha0" with entities [Lehko Habhoka (ID: 17162806/0x0105E236), Lehko Habhoka (ID: 17162806/0x0105E236)], work=1443*
404: 0x0F0F [0x2B] Lehko Habhoka (ID: 17162806/0x0105E236) [13455*]:
    → "But if Jeuno's intention trrruly is to surrender, it would be in the best interest of Windurst to recall them back to the capital without delay."
405: 0x0F16 [0x23] WAIT_FOR_DIALOG_INTERACTION
406: 0x0F17 [0x5B] LOAD_EXT_SCHEDULER: Load scheduler "tha1" with entities [Lehko Habhoka (ID: 17162806/0x0105E236), Lehko Habhoka (ID: 17162806/0x0105E236)], work=1443*
407: 0x0F26 [0x5B] LOAD_EXT_SCHEDULER: Load scheduler "f000" with entities [Lehko Habhoka (ID: 17162806/0x0105E236), Lehko Habhoka (ID: 17162806/0x0105E236)], work=1442*
408: 0x0F35 [0x5B] LOAD_EXT_SCHEDULER: Load scheduler "tlb0" with entities [Lilisette (ID: 17162916/0x0105E2A4), Lilisette (ID: 17162916/0x0105E2A4)], work=2133*
409: 0x0F44 [0x1C] WAIT(20* ticks)
410: 0x0F47 [0x52] END_LOAD_SCHEDULER: End scheduler "s219" with entities [LocalPlayer, LocalPlayer], work=450*
411: 0x0F56 [0x45] LOAD_SCHEDULED_TASK: Load scheduler "s220" with entities [LocalPlayer, LocalPlayer], work=[450*, 0*]
412: 0x0F67 [0x2B] Lilisette (ID: 17162916/0x0105E2A4) [13456*]:
    → "If I may be permitted to speak, my lord. San d'Oria is united in the belief that Jeuno must not fall to the beastmen. By order of King Destin, preparations are being made as we speak to send a contingent of knights to bolster Jeuno's defense."
413: 0x0F6E [0x23] WAIT_FOR_DIALOG_INTERACTION
414: 0x0F6F [0x2B] Lilisette (ID: 17162916/0x0105E2A4) [13459*]:
    → "That is why we've come--to seek help from our Windurstian allies in the form of further reinforcements for the Duchy."
415: 0x0F76 [0x23] WAIT_FOR_DIALOG_INTERACTION
416: 0x0F77 [0x5B] LOAD_EXT_SCHEDULER: Load scheduler "tlb1" with entities [Lilisette (ID: 17162916/0x0105E2A4), Lilisette (ID: 17162916/0x0105E2A4)], work=2133*
417: 0x0F86 [0x1C] WAIT(60* ticks)
418: 0x0F89 [0x52] END_LOAD_SCHEDULER: End scheduler "s220" with entities [LocalPlayer, LocalPlayer], work=450*
419: 0x0F98 [0x01] GOTO 0x1026
420: 0x0F9B [0x52] END_LOAD_SCHEDULER: End scheduler "s217" with entities [LocalPlayer, LocalPlayer], work=450*
421: 0x0FAA [0x45] LOAD_SCHEDULED_TASK: Load scheduler "s221" with entities [LocalPlayer, LocalPlayer], work=[450*, 0*]
422: 0x0FBB [0x2B] Robel-Akbel (ID: 17162776/0x0105E218) [13457*]:
    → "What is the Kingdom's stance on this matter?"
423: 0x0FC2 [0x23] WAIT_FOR_DIALOG_INTERACTION
424: 0x0FC3 [0x5B] LOAD_EXT_SCHEDULER: Load scheduler "tlb0" with entities [Lilisette (ID: 17162916/0x0105E2A4), Lilisette (ID: 17162916/0x0105E2A4)], work=2133*
425: 0x0FD2 [0x1C] WAIT(20* ticks)
426: 0x0FD5 [0x52] END_LOAD_SCHEDULER: End scheduler "s221" with entities [LocalPlayer, LocalPlayer], work=450*
427: 0x0FE4 [0x45] LOAD_SCHEDULED_TASK: Load scheduler "s220" with entities [LocalPlayer, LocalPlayer], work=[450*, 0*]
428: 0x0FF5 [0x2B] Lilisette (ID: 17162916/0x0105E2A4) [13458*]:
    → "My lord, San d'Oria is united in the belief that Jeuno must not fall to the beastmen. By order of King Destin, preparations are being made as we speak to send a contingent of knights to bolster Jeuno's defense."
429: 0x0FFC [0x23] WAIT_FOR_DIALOG_INTERACTION
430: 0x0FFD [0x2B] Lilisette (ID: 17162916/0x0105E2A4) [13459*]:
    → "That is why we've come--to seek help from our Windurstian allies in the form of further reinforcements for the Duchy."
431: 0x1004 [0x23] WAIT_FOR_DIALOG_INTERACTION
432: 0x1005 [0x5B] LOAD_EXT_SCHEDULER: Load scheduler "tlb1" with entities [Lilisette (ID: 17162916/0x0105E2A4), Lilisette (ID: 17162916/0x0105E2A4)], work=2133*
433: 0x1014 [0x1C] WAIT(60* ticks)
434: 0x1017 [0x52] END_LOAD_SCHEDULER: End scheduler "s220" with entities [LocalPlayer, LocalPlayer], work=450*

SUBROUTINE_1026:
435: 0x1026 [0x4E] SET_ENTITY_HIDE_FLAG: Hide Halver M Borel (ID: 17162917/0x0105E2A5)
436: 0x102C [0x45] LOAD_SCHEDULED_TASK: Load scheduler "s224" with entities [LocalPlayer, LocalPlayer], work=[450*, 0*]
437: 0x103D [0x79] Robel-Akbel (ID: 17162776/0x0105E218) looks at Lilisette (ID: 17162916/0x0105E2A4) (Basic look)
438: 0x1047 [0x7B] Robel-Akbel (ID: 17162776/0x0105E218) stops talking
439: 0x104C [0x7C] Robel-Akbel (ID: 17162776/0x0105E218)->Render.Flags2 |= 0x00
440: 0x1052 [0x2B] Robel-Akbel (ID: 17162776/0x0105E218) [13460*]:
    → "..."
441: 0x1059 [0x23] WAIT_FOR_DIALOG_INTERACTION
442: 0x105A [0x7C] Robel-Akbel (ID: 17162776/0x0105E218)->Render.Flags2 |= 0x01
443: 0x1060 [0x52] END_LOAD_SCHEDULER: End scheduler "s224" with entities [LocalPlayer, LocalPlayer], work=450*
444: 0x106F [0x45] LOAD_SCHEDULED_TASK: Load scheduler "s225" with entities [LocalPlayer, LocalPlayer], work=[450*, 0*]
445: 0x1080 [0x4E] SET_ENTITY_HIDE_FLAG: Show Halver M Borel (ID: 17162917/0x0105E2A5)
446: 0x1086 [0x7B] Robel-Akbel (ID: 17162776/0x0105E218) stops talking
447: 0x108B [0x6B] STOP_AND_IDLE: Lilisette (ID: 17162916/0x0105E2A4) stops current action and resets to idle (animation="idl0")
448: 0x1094 [0x5D] SET_MUSIC_VOLUME(volume=0*, fade_time=180*)
449: 0x1099 [0x5B] LOAD_EXT_SCHEDULER: Load scheduler "gud0" with entities [Robel-Akbel (ID: 17162776/0x0105E218), Robel-Akbel (ID: 17162776/0x0105E218)], work=1373*
450: 0x10A8 [0x1C] WAIT(60* ticks)
451: 0x10AB [0x2B] Robel-Akbel (ID: 17162776/0x0105E218) [13461*]:
    → "Something is amiss."
452: 0x10B2 [0x23] WAIT_FOR_DIALOG_INTERACTION
453: 0x10B3 [0x52] END_LOAD_SCHEDULER: End scheduler "s225" with entities [LocalPlayer, LocalPlayer], work=450*
454: 0x10C2 [0x45] LOAD_SCHEDULED_TASK: Load scheduler "s226" with entities [LocalPlayer, LocalPlayer], work=[450*, 0*]
455: 0x10D3 [0x5B] LOAD_EXT_SCHEDULER: Load scheduler "fc01" with entities [Lehko Habhoka (ID: 17162806/0x0105E236), Lehko Habhoka (ID: 17162806/0x0105E236)], work=1442*
456: 0x10E2 [0x5B] LOAD_EXT_SCHEDULER: Load scheduler "tha0" with entities [Lehko Habhoka (ID: 17162806/0x0105E236), Lehko Habhoka (ID: 17162806/0x0105E236)], work=1443*
457: 0x10F1 [0x79] Lehko Habhoka (ID: 17162806/0x0105E236) looks at Lilisette (ID: 17162916/0x0105E2A4) (Basic look)
458: 0x10FB [0x2B] Lehko Habhoka (ID: 17162806/0x0105E236) [13462*]:
    → "Extrrremely amiss."
459: 0x1102 [0x23] WAIT_FOR_DIALOG_INTERACTION
460: 0x1103 [0x2B] Lehko Habhoka (ID: 17162806/0x0105E236) [13463*]:
    → "Nag'molada is renowned the two continents over as a shrewd negotiator and brrrilliant strategist."
461: 0x110A [0x23] WAIT_FOR_DIALOG_INTERACTION
462: 0x110B [0x52] END_LOAD_SCHEDULER: End scheduler "s226" with entities [LocalPlayer, LocalPlayer], work=450*
463: 0x111A [0x45] LOAD_SCHEDULED_TASK: Load scheduler "s227" with entities [LocalPlayer, LocalPlayer], work=[450*, 0*]
464: 0x112B [0x2B] Lehko Habhoka (ID: 17162806/0x0105E236) [13464*]:
    → "He certainly isn't the type to be preaching surrender at this prrremature stage."
465: 0x1132 [0x23] WAIT_FOR_DIALOG_INTERACTION
466: 0x1133 [0x5B] LOAD_EXT_SCHEDULER: Load scheduler "tha1" with entities [Lehko Habhoka (ID: 17162806/0x0105E236), Lehko Habhoka (ID: 17162806/0x0105E236)], work=1443*
467: 0x1142 [0x5B] LOAD_EXT_SCHEDULER: Load scheduler "fc00" with entities [Lehko Habhoka (ID: 17162806/0x0105E236), Lehko Habhoka (ID: 17162806/0x0105E236)], work=1442*
468: 0x1151 [0x52] END_LOAD_SCHEDULER: End scheduler "s227" with entities [LocalPlayer, LocalPlayer], work=450*
469: 0x1160 [0x45] LOAD_SCHEDULED_TASK: Load scheduler "s228" with entities [LocalPlayer, LocalPlayer], work=[450*, 0*]
470: 0x1171 [0x5B] LOAD_EXT_SCHEDULER: Load scheduler "f000" with entities [Lehko Habhoka (ID: 17162806/0x0105E236), Lehko Habhoka (ID: 17162806/0x0105E236)], work=1442*
471: 0x1180 [0x2B] Robel-Akbel (ID: 17162776/0x0105E218) [13465*]:
    → "Hm, which means..."
472: 0x1187 [0x23] WAIT_FOR_DIALOG_INTERACTION
473: 0x1188 [0x52] END_LOAD_SCHEDULER: End scheduler "s228" with entities [LocalPlayer, LocalPlayer], work=450*
474: 0x1197 [0x45] LOAD_SCHEDULED_TASK: Load scheduler "s229" with entities [LocalPlayer, LocalPlayer], work=[450*, 0*]
475: 0x11A8 [0x5B] LOAD_EXT_SCHEDULER: Load scheduler "fe00" with entities [Lilisette (ID: 17162916/0x0105E2A4), Lilisette (ID: 17162916/0x0105E2A4)], work=2135*
476: 0x11B7 [0x1C] WAIT(120* ticks)
477: 0x11BA [0x5B] LOAD_EXT_SCHEDULER: Load scheduler "fe01" with entities [Lilisette (ID: 17162916/0x0105E2A4), Lilisette (ID: 17162916/0x0105E2A4)], work=2135*
478: 0x11C9 [0x5B] LOAD_EXT_SCHEDULER: Load scheduler "tlb0" with entities [Lilisette (ID: 17162916/0x0105E2A4), Lilisette (ID: 17162916/0x0105E2A4)], work=2134*
479: 0x11D8 [0x1C] WAIT(10* ticks)
480: 0x11DB [0x52] END_LOAD_SCHEDULER: End scheduler "s229" with entities [LocalPlayer, LocalPlayer], work=450*
481: 0x11EA [0x45] LOAD_SCHEDULED_TASK: Load scheduler "s230" with entities [LocalPlayer, LocalPlayer], work=[450*, 0*]
482: 0x11FB [0x1C] WAIT(20* ticks)
483: 0x11FE [0x2B] Lilisette (ID: 17162916/0x0105E2A4) [13466*]:
    → "While we're sorely aware that the Federation must prioritize its own welfare, Jeuno's surrender would have an irreversibly disastrous effect on the war. Please, sirs, I beg you! Assist us in the defense of Jeuno!"
484: 0x1205 [0x23] WAIT_FOR_DIALOG_INTERACTION
485: 0x1206 [0x52] END_LOAD_SCHEDULER: End scheduler "s230" with entities [LocalPlayer, LocalPlayer], work=450*
486: 0x1215 [0x45] LOAD_SCHEDULED_TASK: Load scheduler "s231" with entities [LocalPlayer, LocalPlayer], work=[450*, 0*]
487: 0x1226 [0x5B] LOAD_EXT_SCHEDULER: Load scheduler "tlb0" with entities [Lilisette (ID: 17162916/0x0105E2A4), Lilisette (ID: 17162916/0x0105E2A4)], work=2134*
488: 0x1235 [0x5B] LOAD_EXT_SCHEDULER: Load scheduler "fe00" with entities [Lilisette (ID: 17162916/0x0105E2A4), Lilisette (ID: 17162916/0x0105E2A4)], work=2135*
489: 0x1244 [0x7B] Lehko Habhoka (ID: 17162806/0x0105E236) stops talking
490: 0x1249 [0x79] Robel-Akbel (ID: 17162776/0x0105E218) looks at Lilisette (ID: 17162916/0x0105E2A4) (Basic look)
491: 0x1253 [0x2B] Robel-Akbel (ID: 17162776/0x0105E218) [13467*]:
    → "Lehko, what is the current state of our forces?"
492: 0x125A [0x23] WAIT_FOR_DIALOG_INTERACTION
493: 0x125B [0x52] END_LOAD_SCHEDULER: End scheduler "s231" with entities [LocalPlayer, LocalPlayer], work=450*
494: 0x126A [0x45] LOAD_SCHEDULED_TASK: Load scheduler "s232" with entities [LocalPlayer, LocalPlayer], work=[450*, 0*]
495: 0x127B [0x5B] LOAD_EXT_SCHEDULER: Load scheduler "thb0" with entities [Lehko Habhoka (ID: 17162806/0x0105E236), Lehko Habhoka (ID: 17162806/0x0105E236)], work=1446*
496: 0x128A [0x2B] Lehko Habhoka (ID: 17162806/0x0105E236) [13468*]:
    → "Hmmm, the War Warlocks cannot be relieved from their current posts. The Mithra Mercenaries, on the other hand, have recently had their numbers replenished. Or perhaps..."
497: 0x1291 [0x23] WAIT_FOR_DIALOG_INTERACTION
498: 0x1292 [0x52] END_LOAD_SCHEDULER: End scheduler "s232" with entities [LocalPlayer, LocalPlayer], work=450*
499: 0x12A1 [0x45] LOAD_SCHEDULED_TASK: Load scheduler "s233" with entities [LocalPlayer, LocalPlayer], work=[450*, 0*]
500: 0x12B2 [0x5B] LOAD_EXT_SCHEDULER: Load scheduler "thb1" with entities [Lehko Habhoka (ID: 17162806/0x0105E236), Lehko Habhoka (ID: 17162806/0x0105E236)], work=1446*
501: 0x12C1 [0x27] REQ_SET(priority=0x10, entity_id=Robel-Akbel (ID: 17162776/0x0105E218), tag_num=0x21)
502: 0x12C8 [0x5C] MUSIC_CONTROL: Set Idle (Day) music to song 140*
503: 0x12CC [0x5C] MUSIC_CONTROL: Set Idle (Night) music to song 140*
504: 0x12D0 [0x9A] WAIT_MUSIC_SERVER()
505: 0x12D1 [0x2B] Robel-Akbel (ID: 17162776/0x0105E218) [13469*]:
    → "Understood."
506: 0x12D8 [0x23] WAIT_FOR_DIALOG_INTERACTION
507: 0x12D9 [0x52] END_LOAD_SCHEDULER: End scheduler "s233" with entities [LocalPlayer, LocalPlayer], work=450*
508: 0x12E8 [0x45] LOAD_SCHEDULED_TASK: Load scheduler "s234" with entities [LocalPlayer, LocalPlayer], work=[450*, 0*]
509: 0x12F9 [0x4A] Lehko Habhoka (ID: 17162806/0x0105E236) looks at Halver M Borel (ID: 17162917/0x0105E2A5)
510: 0x1302 [0x79] Robel-Akbel (ID: 17162776/0x0105E218) looks at Halver M Borel (ID: 17162917/0x0105E2A5) (Basic look)
511: 0x130C [0x1C] WAIT(30* ticks)
512: 0x130F [0x2B] Robel-Akbel (ID: 17162776/0x0105E218) [13470*]:
    → "Windurst would not turn a deaf ear to this earnest request from our San d'Orian brothers and sisters."
513: 0x1316 [0x23] WAIT_FOR_DIALOG_INTERACTION
514: 0x1317 [0x52] END_LOAD_SCHEDULER: End scheduler "s234" with entities [LocalPlayer, LocalPlayer], work=450*
515: 0x1326 [0x02] IF !(ExtData[1]->WorkLocal[1] == 1*) GOTO 0x1359
516: 0x132E [0x45] LOAD_SCHEDULED_TASK: Load scheduler "s235" with entities [LocalPlayer, LocalPlayer], work=[450*, 0*]
517: 0x133F [0x2B] Robel-Akbel (ID: 17162776/0x0105E218) [13471*]:
    → "Nor would we forget the debt we owe the Kingdom for coming to our aid at Fort Karugo-Narugo."
518: 0x1346 [0x23] WAIT_FOR_DIALOG_INTERACTION
519: 0x1347 [0x52] END_LOAD_SCHEDULER: End scheduler "s235" with entities [LocalPlayer, LocalPlayer], work=450*
520: 0x1356 [0x01] GOTO 0x138C
521: 0x1359 [0x02] IF !(ExtData[1]->WorkLocal[1] == 2*) GOTO 0x138C
522: 0x1361 [0x45] LOAD_SCHEDULED_TASK: Load scheduler "s235" with entities [LocalPlayer, LocalPlayer], work=[450*, 0*]
523: 0x1372 [0x2B] Robel-Akbel (ID: 17162776/0x0105E218) [13471*]:
    → "Nor would we forget the debt we owe the Kingdom for coming to our aid at Fort Karugo-Narugo."
524: 0x1379 [0x23] WAIT_FOR_DIALOG_INTERACTION
525: 0x137A [0x52] END_LOAD_SCHEDULER: End scheduler "s235" with entities [LocalPlayer, LocalPlayer], work=450*
526: 0x1389 [0x01] GOTO 0x138C

SUBROUTINE_138C:
527: 0x138C [0x45] LOAD_SCHEDULED_TASK: Load scheduler "s236" with entities [LocalPlayer, LocalPlayer], work=[450*, 0*]
528: 0x139D [0x5B] LOAD_EXT_SCHEDULER: Load scheduler "gud0" with entities [Robel-Akbel (ID: 17162776/0x0105E218), Robel-Akbel (ID: 17162776/0x0105E218)], work=1373*
529: 0x13AC [0x2B] Robel-Akbel (ID: 17162776/0x0105E218) [13472*]:
    → "Your wish is granted. Jeuno can count on reinforcements from Windurst."
530: 0x13B3 [0x23] WAIT_FOR_DIALOG_INTERACTION
531: 0x13B4 [0x52] END_LOAD_SCHEDULER: End scheduler "s236" with entities [LocalPlayer, LocalPlayer], work=450*
532: 0x13C3 [0x45] LOAD_SCHEDULED_TASK: Load scheduler "s256" with entities [LocalPlayer, LocalPlayer], work=[450*, 0*]
533: 0x13D4 [0x5B] LOAD_EXT_SCHEDULER: Load scheduler "fd00" with entities [Lilisette (ID: 17162916/0x0105E2A4), Lilisette (ID: 17162916/0x0105E2A4)], work=2135*
534: 0x13E3 [0x1C] WAIT(60* ticks)
535: 0x13E6 [0x5B] LOAD_EXT_SCHEDULER: Load scheduler "fd01" with entities [Lilisette (ID: 17162916/0x0105E2A4), Lilisette (ID: 17162916/0x0105E2A4)], work=2135*
536: 0x13F5 [0x5B] LOAD_EXT_SCHEDULER: Load scheduler "hdb0" with entities [Lilisette (ID: 17162916/0x0105E2A4), Lilisette (ID: 17162916/0x0105E2A4)], work=2128*
537: 0x1404 [0x1C] WAIT(10* ticks)
538: 0x1407 [0x52] END_LOAD_SCHEDULER: End scheduler "s256" with entities [LocalPlayer, LocalPlayer], work=450*
539: 0x1416 [0x45] LOAD_SCHEDULED_TASK: Load scheduler "s237" with entities [LocalPlayer, LocalPlayer], work=[450*, 0*]
540: 0x1427 [0x2B] Lilisette (ID: 17162916/0x0105E2A4) [13473*]:
    → "Th-thank you, Your Excellency!"
541: 0x142E [0x23] WAIT_FOR_DIALOG_INTERACTION
542: 0x142F [0x5B] LOAD_EXT_SCHEDULER: Load scheduler "hdb1" with entities [Lilisette (ID: 17162916/0x0105E2A4), Lilisette (ID: 17162916/0x0105E2A4)], work=2128*
543: 0x143E [0x5B] LOAD_EXT_SCHEDULER: Load scheduler "fd00" with entities [Lilisette (ID: 17162916/0x0105E2A4), Lilisette (ID: 17162916/0x0105E2A4)], work=2135*
544: 0x144D [0x52] END_LOAD_SCHEDULER: End scheduler "s237" with entities [LocalPlayer, LocalPlayer], work=450*
545: 0x145C [0x45] LOAD_SCHEDULED_TASK: Load scheduler "s238" with entities [LocalPlayer, LocalPlayer], work=[450*, 0*]
546: 0x146D [0x5B] LOAD_EXT_SCHEDULER: Load scheduler "f000" with entities [Lilisette (ID: 17162916/0x0105E2A4), Lilisette (ID: 17162916/0x0105E2A4)], work=2135*
547: 0x147C [0x2B] Robel-Akbel (ID: 17162776/0x0105E218) [13474*]:
    → "Let us fight side by side. For the survival of Jeuno, and the future of all children of Altana."
548: 0x1483 [0x23] WAIT_FOR_DIALOG_INTERACTION
549: 0x1484 [0x45] LOAD_SCHEDULED_TASK: Load scheduler "fdo2" with entities [LocalPlayer, LocalPlayer], work=[200*, 0*]
550: 0x1495 [0x55] WAIT_LOAD_SCHEDULER: Wait for scheduler "fdo2" with entities [LocalPlayer, LocalPlayer], work=200*
551: 0x14A4 [0x52] END_LOAD_SCHEDULER: End scheduler "s238" with entities [LocalPlayer, LocalPlayer], work=450*
552: 0x14B3 [0x66] LOAD_EXT_SCHEDULER_MAIN: Load scheduler "stdl" with entities [Robel-Akbel (ID: 17162776/0x0105E218), Robel-Akbel (ID: 17162776/0x0105E218)], work=119*
553: 0x14C2 [0x5D] SET_MUSIC_VOLUME(volume=0*, fade_time=180*)
554: 0x14C7 [0x1C] WAIT(60* ticks)
555: 0x14CA [0x5C] MUSIC_CONTROL: Set Idle (Day) music to song 162*
556: 0x14CE [0x5C] MUSIC_CONTROL: Set Idle (Night) music to song 162*
557: 0x14D2 [0x9A] WAIT_MUSIC_SERVER()
558: 0x14D3 [0x45] LOAD_SCHEDULED_TASK: Load scheduler "s239" with entities [LocalPlayer, LocalPlayer], work=[450*, 0*]
559: 0x14E4 [0x4A] Robel-Akbel (ID: 17162776/0x0105E218) looks at Halver M Borel (ID: 17162917/0x0105E2A5)
560: 0x14ED [0x4A] Lehko Habhoka (ID: 17162806/0x0105E236) looks at Halver M Borel (ID: 17162917/0x0105E2A5)
561: 0x14F6 [0xBA] SET_ENTITY_POSITION(entity_id=Lilisette (ID: 17162916/0x0105E2A4), pos_x=-3.777*, pos_z=0.491*, pos_y=-25.499*, direction=206.2°*)
562: 0x1503 [0x59] UPDATE_ENTITY_DATA: Set Lilisette (ID: 17162916/0x0105E2A4) main speed = 8* * 0.1
563: 0x150B [0x27] REQ_SET(priority=0x10, entity_id=LocalPlayer, tag_num=0x30)
564: 0x1512 [0x27] REQ_SET(priority=0x10, entity_id=Lilisette (ID: 17162916/0x0105E2A4), tag_num=0x0C)
565: 0x1519 [0x27] REQ_SET(priority=0x10, entity_id=Halver M Borel (ID: 17162917/0x0105E2A5), tag_num=0x0C)
566: 0x1520 [0x45] LOAD_SCHEDULED_TASK: Load scheduler "fdi2" with entities [LocalPlayer, LocalPlayer], work=[200*, 0*]
567: 0x1531 [0x55] WAIT_LOAD_SCHEDULER: Wait for scheduler "fdi2" with entities [LocalPlayer, LocalPlayer], work=200*
568: 0x1540 [0x1C] WAIT(30* ticks)
569: 0x1543 [0x52] END_LOAD_SCHEDULER: End scheduler "s239" with entities [LocalPlayer, LocalPlayer], work=450*
570: 0x1552 [0x45] LOAD_SCHEDULED_TASK: Load scheduler "s240" with entities [LocalPlayer, LocalPlayer], work=[450*, 0*]
571: 0x1563 [0x1C] WAIT(30* ticks)
572: 0x1566 [0x79] Robel-Akbel (ID: 17162776/0x0105E218) looks at Lilisette (ID: 17162916/0x0105E2A4) (Basic look)
573: 0x1570 [0x2B] Robel-Akbel (ID: 17162776/0x0105E218) [13475*]:
    → "A moment."
574: 0x1577 [0x23] WAIT_FOR_DIALOG_INTERACTION
575: 0x1578 [0x1C] WAIT(15* ticks)
576: 0x157B [0x52] END_LOAD_SCHEDULER: End scheduler "s240" with entities [LocalPlayer, LocalPlayer], work=450*
577: 0x158A [0x45] LOAD_SCHEDULED_TASK: Load scheduler "s241" with entities [LocalPlayer, LocalPlayer], work=[450*, 0*]
578: 0x159B [0x4A] Robel-Akbel (ID: 17162776/0x0105E218) looks at Lilisette (ID: 17162916/0x0105E2A4)
579: 0x15A4 [0x1C] WAIT(30* ticks)
580: 0x15A7 [0x4A] Lilisette (ID: 17162916/0x0105E2A4) looks at Robel-Akbel (ID: 17162776/0x0105E218)
581: 0x15B0 [0x4A] Lehko Habhoka (ID: 17162806/0x0105E236) looks at Lilisette (ID: 17162916/0x0105E2A4)
582: 0x15B9 [0x7C] Lilisette (ID: 17162916/0x0105E2A4)->Render.Flags2 |= 0x00
583: 0x15BF [0x2B] Lilisette (ID: 17162916/0x0105E2A4) [13476*]:
    → "...?"
584: 0x15C6 [0x23] WAIT_FOR_DIALOG_INTERACTION
585: 0x15C7 [0x7C] Lilisette (ID: 17162916/0x0105E2A4)->Render.Flags2 |= 0x01
586: 0x15CD [0x52] END_LOAD_SCHEDULER: End scheduler "s241" with entities [LocalPlayer, LocalPlayer], work=450*
587: 0x15DC [0x45] LOAD_SCHEDULED_TASK: Load scheduler "s242" with entities [LocalPlayer, LocalPlayer], work=[450*, 0*]
588: 0x15ED [0x7B] Lilisette (ID: 17162916/0x0105E2A4) stops talking
589: 0x15F2 [0x6F] WAIT_FRAME_DELAY: Yield until WaitTime reaches zero
590: 0x15F3 [0x76] CHECK_ENTITY_RENDER_FLAGS: Wait until Lilisette (ID: 17162916/0x0105E2A4) Render.Flags0 and Render.Flags3 conditions are met
591: 0x15F8 [0x2B] Robel-Akbel (ID: 17162776/0x0105E218) [13477*]:
    → "If I may inquire your name once more?"
592: 0x15FF [0x23] WAIT_FOR_DIALOG_INTERACTION
593: 0x1600 [0x52] END_LOAD_SCHEDULER: End scheduler "s242" with entities [LocalPlayer, LocalPlayer], work=450*
594: 0x160F [0x45] LOAD_SCHEDULED_TASK: Load scheduler "s255" with entities [LocalPlayer, LocalPlayer], work=[450*, 0*]
595: 0x1620 [0x81] SET_ENTITY_BLINKING(blink_flag=0x00, entity=Lilisette (ID: 17162916/0x0105E2A4))
596: 0x1626 [0x5B] LOAD_EXT_SCHEDULER: Load scheduler "rin2" with entities [Lilisette (ID: 17162916/0x0105E2A4), Lilisette (ID: 17162916/0x0105E2A4)], work=2130*
597: 0x1635 [0x1C] WAIT(60* ticks)
598: 0x1638 [0x52] END_LOAD_SCHEDULER: End scheduler "s255" with entities [LocalPlayer, LocalPlayer], work=450*
599: 0x1647 [0x45] LOAD_SCHEDULED_TASK: Load scheduler "s243" with entities [LocalPlayer, LocalPlayer], work=[450*, 0*]
600: 0x1658 [0x2B] Lilisette (ID: 17162916/0x0105E2A4) [13478*]:
    → "But of course! I'm Lilisette, Troupe Mayakov's brightest young star! Honored to have made your acquaintance!"
601: 0x165F [0x23] WAIT_FOR_DIALOG_INTERACTION
602: 0x1660 [0x52] END_LOAD_SCHEDULER: End scheduler "s243" with entities [LocalPlayer, LocalPlayer], work=450*
603: 0x166F [0x45] LOAD_SCHEDULED_TASK: Load scheduler "s244" with entities [LocalPlayer, LocalPlayer], work=[450*, 0*]
604: 0x1680 [0x5B] LOAD_EXT_SCHEDULER: Load scheduler "gud0" with entities [Robel-Akbel (ID: 17162776/0x0105E218), Robel-Akbel (ID: 17162776/0x0105E218)], work=1373*
605: 0x168F [0x2B] Robel-Akbel (ID: 17162776/0x0105E218) [13479*]:
    → "Lilisette..."
606: 0x1696 [0x23] WAIT_FOR_DIALOG_INTERACTION
