# 17162755 - Maju-Naju

## Common Data

| Field            | Value                        |
|------------------|------------------------------|
| Zone             | Windurst Waters [S] (ID: 94) |
| Block Size       | 384 bytes                    |
| Total Events     | 15                           |
| References Count | 25                           |

## List of Events

| Event ID                 | Entrypoint   |   Size |   Instructions |
|--------------------------|--------------|--------|----------------|
| [65535](#event-65535)    | 0x0000       |      1 |              1 |
| [126](#event-126)        | 0x0001       |      1 |              1 |
| [123](#event-123)        | 0x0002       |      1 |              1 |
| [124](#event-124)        | 0x0003       |      1 |              1 |
| [125](#event-125)        | 0x0004       |      1 |              1 |
| [127](#event-127)        | 0x0005       |      1 |              1 |
| [65535.1](#event-655351) | 0x0006       |     51 |              9 |
| [65535.2](#event-655352) | 0x0039       |     15 |              5 |
| [65535.3](#event-655353) | 0x0048       |     20 |              6 |
| [65535.4](#event-655354) | 0x005C       |     25 |              7 |
| [65535.5](#event-655355) | 0x0075       |     15 |              5 |
| [65535.6](#event-655356) | 0x0084       |     20 |              6 |
| [65535.7](#event-655357) | 0x0098       |     15 |              5 |
| [65535.8](#event-655358) | 0x00A7       |     20 |              6 |
| [65535.9](#event-655359) | 0x00BB       |     20 |              6 |

## DAT References (imed_data)

|   Index | Hex Value   |   Dec Value |
|---------|-------------|-------------|
|       0 | 0x000D      |          13 |
|       1 | 0x264E      |        9806 |
|       2 | 0xFFFD908A  |  4294807690 |
|       3 | 0xFFFFEF66  |  4294963046 |
|       4 | 0x001E      |          30 |
|       5 | 0x0028      |          40 |
|       6 | 0x1B05      |        6917 |
|       7 | 0xFFFD8C27  |  4294806567 |
|       8 | 0x1D57      |        7511 |
|       9 | 0xFFFD8265  |  4294804069 |
|      10 | 0xFFFFEF67  |  4294963047 |
|      11 | 0x1C8A      |        7306 |
|      12 | 0xFFFD851E  |  4294804766 |
|      13 | 0x1E07      |        7687 |
|      14 | 0xFFFD79DE  |  4294801886 |
|      15 | 0x2018      |        8216 |
|      16 | 0xFFFD88E6  |  4294805734 |
|      17 | 0x0F2C      |        3884 |
|      18 | 0xFFFD894B  |  4294805835 |
|      19 | 0xFFFFEF64  |  4294963044 |
|      20 | 0x1C84      |        7300 |
|      21 | 0xFFFD804A  |  4294803530 |
|      22 | 0x0BE6      |        3046 |
|      23 | 0x146A      |        5226 |
|      24 | 0x0000      |           0 |

## Events

### Event 65535

#### Metadata

| Field        | Value   |
|--------------|---------|
| Entrypoint   | 0x0000  |
| Data Size    | 1 bytes |
| Instructions | 1       |

```
      00 01 02 03 04 05 06 07  08 09 0A 0B 0C 0D 0E 0F
      -- -- -- -- -- -- -- --  -- -- -- -- -- -- -- --
0000: 00                                                .               
```

#### Opcodes

```
  0: 0x0000 [0x00] END_REQSTACK()
```

### Event 126

#### Metadata

| Field        | Value   |
|--------------|---------|
| Entrypoint   | 0x0001  |
| Data Size    | 1 bytes |
| Instructions | 1       |

```
      00 01 02 03 04 05 06 07  08 09 0A 0B 0C 0D 0E 0F
      -- -- -- -- -- -- -- --  -- -- -- -- -- -- -- --
0000:    00                                              .              
```

#### Opcodes

```
  0: 0x0001 [0x00] END_REQSTACK()
```

### Event 123

#### Metadata

| Field        | Value   |
|--------------|---------|
| Entrypoint   | 0x0002  |
| Data Size    | 1 bytes |
| Instructions | 1       |

```
      00 01 02 03 04 05 06 07  08 09 0A 0B 0C 0D 0E 0F
      -- -- -- -- -- -- -- --  -- -- -- -- -- -- -- --
0000:       00                                            .             
```

#### Opcodes

```
  0: 0x0002 [0x00] END_REQSTACK()
```

### Event 124

#### Metadata

| Field        | Value   |
|--------------|---------|
| Entrypoint   | 0x0003  |
| Data Size    | 1 bytes |
| Instructions | 1       |

```
      00 01 02 03 04 05 06 07  08 09 0A 0B 0C 0D 0E 0F
      -- -- -- -- -- -- -- --  -- -- -- -- -- -- -- --
0000:          00                                          .            
```

#### Opcodes

```
  0: 0x0003 [0x00] END_REQSTACK()
```

### Event 125

#### Metadata

| Field        | Value   |
|--------------|---------|
| Entrypoint   | 0x0004  |
| Data Size    | 1 bytes |
| Instructions | 1       |

```
      00 01 02 03 04 05 06 07  08 09 0A 0B 0C 0D 0E 0F
      -- -- -- -- -- -- -- --  -- -- -- -- -- -- -- --
0000:             00                                        .           
```

#### Opcodes

```
  0: 0x0004 [0x00] END_REQSTACK()
```

### Event 127

#### Metadata

| Field        | Value   |
|--------------|---------|
| Entrypoint   | 0x0005  |
| Data Size    | 1 bytes |
| Instructions | 1       |

```
      00 01 02 03 04 05 06 07  08 09 0A 0B 0C 0D 0E 0F
      -- -- -- -- -- -- -- --  -- -- -- -- -- -- -- --
0000:                00                                      .          
```

#### Opcodes

```
  0: 0x0005 [0x00] END_REQSTACK()
```

### Event 65535.1

#### Metadata

| Field        | Value    |
|--------------|----------|
| Entrypoint   | 0x0006   |
| Data Size    | 51 bytes |
| Instructions | 9        |

```
      00 01 02 03 04 05 06 07  08 09 0A 0B 0C 0D 0E 0F
      -- -- -- -- -- -- -- --  -- -- -- -- -- -- -- --
0000:                   32 00  80 1F 00 01 80 02 80 03        2.........
0010: 80 1F 01 6F 1E 05 E2 05  01 1C 04 80 66 05 80 03  ...o........f...
0020: E2 05 01 03 E2 05 01 67  6B 72 30 53 03 E2 05 01  .......gkr0S....
0030: 03 E2 05 01 67 6B 72 30  00                       ....gkr0.       
```

#### Opcodes

```
  0: 0x0006 [0x32] ExtData[1]->MainSpeed = 13* * 0.1
  1: 0x0009 [0x1F] MOVE_ENTITY: EventEntity moves to X=9.806*, Z=-159.606*, Y=-4.250*
  2: 0x0011 [0x1F] MOVE_ENTITY: Update entity position (mode=1)
  3: 0x0013 [0x6F] WAIT_FRAME_DELAY: Yield until WaitTime reaches zero
  4: 0x0014 [0x1E] EventEntity looks at Dantie-Corantie (ID: 17162757/0x0105E205) and starts talking
  5: 0x0019 [0x1C] WAIT(30* ticks)
  6: 0x001C [0x66] LOAD_EXT_SCHEDULER_MAIN: Load scheduler "gkr0" with entities [Maju-Naju (ID: 17162755/0x0105E203), Maju-Naju (ID: 17162755/0x0105E203)], work=40*
  7: 0x002B [0x53] WAIT_SCHEDULER_TASK: Wait for scheduler "gkr0" with entities [Maju-Naju (ID: 17162755/0x0105E203), Maju-Naju (ID: 17162755/0x0105E203)]
  8: 0x0038 [0x00] END_REQSTACK()
```

### Event 65535.2

#### Metadata

| Field        | Value    |
|--------------|----------|
| Entrypoint   | 0x0039   |
| Data Size    | 15 bytes |
| Instructions | 5        |

```
      00 01 02 03 04 05 06 07  08 09 0A 0B 0C 0D 0E 0F
      -- -- -- -- -- -- -- --  -- -- -- -- -- -- -- --
0030:                             32 00 80 1F 00 06 80           2......
0040: 07 80 03 80 1F 01 6F 00                           ......o.        
```

#### Opcodes

```
  0: 0x0039 [0x32] ExtData[1]->MainSpeed = 13* * 0.1
  1: 0x003C [0x1F] MOVE_ENTITY: EventEntity moves to X=6.917*, Z=-160.729*, Y=-4.250*
  2: 0x0044 [0x1F] MOVE_ENTITY: Update entity position (mode=1)
  3: 0x0046 [0x6F] WAIT_FRAME_DELAY: Yield until WaitTime reaches zero
  4: 0x0047 [0x00] END_REQSTACK()
```

### Event 65535.3

#### Metadata

| Field        | Value    |
|--------------|----------|
| Entrypoint   | 0x0048   |
| Data Size    | 20 bytes |
| Instructions | 6        |

```
      00 01 02 03 04 05 06 07  08 09 0A 0B 0C 0D 0E 0F
      -- -- -- -- -- -- -- --  -- -- -- -- -- -- -- --
0040:                          32 00 80 1F 00 08 80 09          2.......
0050: 80 0A 80 1F 01 6F 1E 05  E2 05 01 00              .....o......    
```

#### Opcodes

```
  0: 0x0048 [0x32] ExtData[1]->MainSpeed = 13* * 0.1
  1: 0x004B [0x1F] MOVE_ENTITY: EventEntity moves to X=7.511*, Z=-163.227*, Y=-4.249*
  2: 0x0053 [0x1F] MOVE_ENTITY: Update entity position (mode=1)
  3: 0x0055 [0x6F] WAIT_FRAME_DELAY: Yield until WaitTime reaches zero
  4: 0x0056 [0x1E] EventEntity looks at Dantie-Corantie (ID: 17162757/0x0105E205) and starts talking
  5: 0x005B [0x00] END_REQSTACK()
```

### Event 65535.4

#### Metadata

| Field        | Value    |
|--------------|----------|
| Entrypoint   | 0x005C   |
| Data Size    | 25 bytes |
| Instructions | 7        |

```
      00 01 02 03 04 05 06 07  08 09 0A 0B 0C 0D 0E 0F
      -- -- -- -- -- -- -- --  -- -- -- -- -- -- -- --
0050:                                      1E F0 FF FF              ....
0060: 7F 32 00 80 1F 00 0B 80  0C 80 03 80 1F 01 6F 1E  .2............o.
0070: F0 FF FF 7F 00                                    .....           
```

#### Opcodes

```
  0: 0x005C [0x1E] EventEntity looks at LocalPlayer and starts talking
  1: 0x0061 [0x32] ExtData[1]->MainSpeed = 13* * 0.1
  2: 0x0064 [0x1F] MOVE_ENTITY: EventEntity moves to X=7.306*, Z=-162.530*, Y=-4.250*
  3: 0x006C [0x1F] MOVE_ENTITY: Update entity position (mode=1)
  4: 0x006E [0x6F] WAIT_FRAME_DELAY: Yield until WaitTime reaches zero
  5: 0x006F [0x1E] EventEntity looks at LocalPlayer and starts talking
  6: 0x0074 [0x00] END_REQSTACK()
```

### Event 65535.5

#### Metadata

| Field        | Value    |
|--------------|----------|
| Entrypoint   | 0x0075   |
| Data Size    | 15 bytes |
| Instructions | 5        |

```
      00 01 02 03 04 05 06 07  08 09 0A 0B 0C 0D 0E 0F
      -- -- -- -- -- -- -- --  -- -- -- -- -- -- -- --
0070:                32 05 80  1F 00 0D 80 0E 80 0A 80       2..........
0080: 1F 01 6F 00                                       ..o.            
```

#### Opcodes

```
  0: 0x0075 [0x32] ExtData[1]->MainSpeed = 40* * 0.1
  1: 0x0078 [0x1F] MOVE_ENTITY: EventEntity moves to X=7.687*, Z=-165.410*, Y=-4.249*
  2: 0x0080 [0x1F] MOVE_ENTITY: Update entity position (mode=1)
  3: 0x0082 [0x6F] WAIT_FRAME_DELAY: Yield until WaitTime reaches zero
  4: 0x0083 [0x00] END_REQSTACK()
```

### Event 65535.6

#### Metadata

| Field        | Value    |
|--------------|----------|
| Entrypoint   | 0x0084   |
| Data Size    | 20 bytes |
| Instructions | 6        |

```
      00 01 02 03 04 05 06 07  08 09 0A 0B 0C 0D 0E 0F
      -- -- -- -- -- -- -- --  -- -- -- -- -- -- -- --
0080:             32 05 80 1F  00 0F 80 10 80 0A 80 1F      2...........
0090: 01 6F 1E 05 E2 05 01 00                           .o......        
```

#### Opcodes

```
  0: 0x0084 [0x32] ExtData[1]->MainSpeed = 40* * 0.1
  1: 0x0087 [0x1F] MOVE_ENTITY: EventEntity moves to X=8.216*, Z=-161.562*, Y=-4.249*
  2: 0x008F [0x1F] MOVE_ENTITY: Update entity position (mode=1)
  3: 0x0091 [0x6F] WAIT_FRAME_DELAY: Yield until WaitTime reaches zero
  4: 0x0092 [0x1E] EventEntity looks at Dantie-Corantie (ID: 17162757/0x0105E205) and starts talking
  5: 0x0097 [0x00] END_REQSTACK()
```

### Event 65535.7

#### Metadata

| Field        | Value    |
|--------------|----------|
| Entrypoint   | 0x0098   |
| Data Size    | 15 bytes |
| Instructions | 5        |

```
      00 01 02 03 04 05 06 07  08 09 0A 0B 0C 0D 0E 0F
      -- -- -- -- -- -- -- --  -- -- -- -- -- -- -- --
0090:                          32 00 80 1F 00 11 80 12          2.......
00A0: 80 13 80 1F 01 6F 00                              .....o.         
```

#### Opcodes

```
  0: 0x0098 [0x32] ExtData[1]->MainSpeed = 13* * 0.1
  1: 0x009B [0x1F] MOVE_ENTITY: EventEntity moves to X=3.884*, Z=-161.461*, Y=-4.252*
  2: 0x00A3 [0x1F] MOVE_ENTITY: Update entity position (mode=1)
  3: 0x00A5 [0x6F] WAIT_FRAME_DELAY: Yield until WaitTime reaches zero
  4: 0x00A6 [0x00] END_REQSTACK()
```

### Event 65535.8

#### Metadata

| Field        | Value    |
|--------------|----------|
| Entrypoint   | 0x00A7   |
| Data Size    | 20 bytes |
| Instructions | 6        |

```
      00 01 02 03 04 05 06 07  08 09 0A 0B 0C 0D 0E 0F
      -- -- -- -- -- -- -- --  -- -- -- -- -- -- -- --
00A0:                      32  05 80 1F 00 14 80 15 80         2........
00B0: 0A 80 1F 01 6F 1E F0 FF  FF 7F 00                 ....o......     
```

#### Opcodes

```
  0: 0x00A7 [0x32] ExtData[1]->MainSpeed = 40* * 0.1
  1: 0x00AA [0x1F] MOVE_ENTITY: EventEntity moves to X=7.300*, Z=-163.766*, Y=-4.249*
  2: 0x00B2 [0x1F] MOVE_ENTITY: Update entity position (mode=1)
  3: 0x00B4 [0x6F] WAIT_FRAME_DELAY: Yield until WaitTime reaches zero
  4: 0x00B5 [0x1E] EventEntity looks at LocalPlayer and starts talking
  5: 0x00BA [0x00] END_REQSTACK()
```

### Event 65535.9

#### Metadata

| Field        | Value    |
|--------------|----------|
| Entrypoint   | 0x00BB   |
| Data Size    | 20 bytes |
| Instructions | 6        |

```
      00 01 02 03 04 05 06 07  08 09 0A 0B 0C 0D 0E 0F
      -- -- -- -- -- -- -- --  -- -- -- -- -- -- -- --
00B0:                                   32 00 80 1F 00             2....
00C0: 16 80 17 80 18 80 1F 01  6F 1E 04 E2 05 01 00     ........o...... 
```

#### Opcodes

```
  0: 0x00BB [0x32] ExtData[1]->MainSpeed = 13* * 0.1
  1: 0x00BE [0x1F] MOVE_ENTITY: EventEntity moves to X=3.046*, Z=5.226*, Y=0.000*
  2: 0x00C6 [0x1F] MOVE_ENTITY: Update entity position (mode=1)
  3: 0x00C8 [0x6F] WAIT_FRAME_DELAY: Yield until WaitTime reaches zero
  4: 0x00C9 [0x1E] EventEntity looks at Shahr Yagenmhi (ID: 17162756/0x0105E204) and starts talking
  5: 0x00CE [0x00] END_REQSTACK()
```
