# 17162764 - Haja Zhwan

## Common Data

| Field            | Value                        |
|------------------|------------------------------|
| Zone             | Windurst Waters [S] (ID: 94) |
| Block Size       | 692 bytes                    |
| Total Events     | 26                           |
| References Count | 49                           |

## List of Events

| Event ID                   | Entrypoint   |   Size |   Instructions |
|----------------------------|--------------|--------|----------------|
| [65535](#event-65535)      | 0x0000       |      1 |              1 |
| [158](#event-158)          | 0x0001       |      1 |              1 |
| [165](#event-165)          | 0x0002       |      1 |              1 |
| [168](#event-168)          | 0x0003       |      1 |              1 |
| [65535.1](#event-655351)   | 0x0004       |     26 |              8 |
| [65535.2](#event-655352)   | 0x001E       |     24 |              6 |
| [65535.3](#event-655353)   | 0x0036       |     20 |              6 |
| [65535.4](#event-655354)   | 0x004A       |     26 |              3 |
| [65535.5](#event-655355)   | 0x0064       |     26 |              3 |
| [65535.6](#event-655356)   | 0x007E       |     20 |              6 |
| [65535.7](#event-655357)   | 0x0092       |     42 |              8 |
| [65535.8](#event-655358)   | 0x00BC       |     16 |              4 |
| [182](#event-182)          | 0x00CC       |      1 |              1 |
| [23](#event-23)            | 0x00CD       |      1 |              1 |
| [65535.9](#event-655359)   | 0x00CE       |     34 |              8 |
| [33](#event-33)            | 0x00F0       |      1 |              1 |
| [65535.10](#event-6553510) | 0x00F1       |     24 |              6 |
| [65535.11](#event-6553511) | 0x0109       |     21 |              2 |
| [65535.12](#event-6553512) | 0x011E       |     21 |              2 |
| [65535.13](#event-6553513) | 0x0133       |      1 |              1 |
| [65535.14](#event-6553514) | 0x0134       |     18 |              4 |
| [65535.15](#event-6553515) | 0x0146       |     10 |              2 |
| [65535.16](#event-6553516) | 0x0150       |      9 |              3 |
| [65535.17](#event-6553517) | 0x0159       |      9 |              3 |
| [65535.18](#event-6553518) | 0x0162       |     10 |              2 |
| [65535.19](#event-6553519) | 0x016C       |     10 |              2 |

## DAT References (imed_data)

|   Index | Hex Value   |   Dec Value |
|---------|-------------|-------------|
|       0 | 0x0028      |          40 |
|       1 | 0xFFFFA189  |  4294943113 |
|       2 | 0x90BE      |       37054 |
|       3 | 0xFFFFF255  |  4294963797 |
|       4 | 0xFFFFC70C  |  4294952716 |
|       5 | 0x9200      |       37376 |
|       6 | 0xFFFFFC18  |  4294966296 |
|       7 | 0xFFFFF934  |  4294965556 |
|       8 | 0x7D2F      |       32047 |
|       9 | 0x0FBA      |        4026 |
|      10 | 0xFFFFF9D8  |  4294965720 |
|      11 | 0x8E38      |       36408 |
|      12 | 0x000D      |          13 |
|      13 | 0xFFFFF2C8  |  4294963912 |
|      14 | 0x7F78      |       32632 |
|      15 | 0xFFFFFC19  |  4294966297 |
|      16 | 0x0007      |           7 |
|      17 | 0x001A      |          26 |
|      18 | 0x0000      |           0 |
|      19 | 0x0023      |          35 |
|      20 | 0x0036      |          54 |
|      21 | 0x00DB      |         219 |
|      22 | 0x0171      |         369 |
|      23 | 0xFFFFFFE3  |  4294967267 |
|      24 | 0x8A43      |       35395 |
|      25 | 0xFFFF5CA0  |  4294925472 |
|      26 | 0x34744     |      214852 |
|      27 | 0xFFFFEC78  |  4294962296 |
|      28 | 0x05FA      |        1530 |
|      29 | 0x0046      |          70 |
|      30 | 0x0022      |          34 |
|      31 | 0xFFFFE9C5  |  4294961605 |
|      32 | 0xFFFFE897  |  4294961303 |
|      33 | 0xFFFF9C65  |  4294941797 |
|      34 | 0x185F      |        6239 |
|      35 | 0xFFFFE571  |  4294960497 |
|      36 | 0x7189      |       29065 |
|      37 | 0x09DC      |        2524 |
|      38 | 0xFFFF9A71  |  4294941297 |
|      39 | 0xFFFCEC59  |  4294765657 |
|      40 | 0xFFFCA6E7  |  4294747879 |
|      41 | 0xFFFEF87A  |  4294899834 |
|      42 | 0xFFFCF574  |  4294767988 |
|      43 | 0xFFFCE367  |  4294763367 |
|      44 | 0xFFFEF65C  |  4294899292 |
|      45 | 0x0001      |           1 |
|      46 | 0x000B      |          11 |
|      47 | 0x00A2      |         162 |
|      48 | 0x0080      |         128 |

## Events

### Event 65535

#### Metadata

| Field        | Value   |
|--------------|---------|
| Entrypoint   | 0x0000  |
| Data Size    | 1 bytes |
| Instructions | 1       |

```
      00 01 02 03 04 05 06 07  08 09 0A 0B 0C 0D 0E 0F
      -- -- -- -- -- -- -- --  -- -- -- -- -- -- -- --
0000: 00                                                .               
```

#### Opcodes

```
  0: 0x0000 [0x00] END_REQSTACK()
```

### Event 158

#### Metadata

| Field        | Value   |
|--------------|---------|
| Entrypoint   | 0x0001  |
| Data Size    | 1 bytes |
| Instructions | 1       |

```
      00 01 02 03 04 05 06 07  08 09 0A 0B 0C 0D 0E 0F
      -- -- -- -- -- -- -- --  -- -- -- -- -- -- -- --
0000:    00                                              .              
```

#### Opcodes

```
  0: 0x0001 [0x00] END_REQSTACK()
```

### Event 165

#### Metadata

| Field        | Value   |
|--------------|---------|
| Entrypoint   | 0x0002  |
| Data Size    | 1 bytes |
| Instructions | 1       |

```
      00 01 02 03 04 05 06 07  08 09 0A 0B 0C 0D 0E 0F
      -- -- -- -- -- -- -- --  -- -- -- -- -- -- -- --
0000:       00                                            .             
```

#### Opcodes

```
  0: 0x0002 [0x00] END_REQSTACK()
```

### Event 168

#### Metadata

| Field        | Value   |
|--------------|---------|
| Entrypoint   | 0x0003  |
| Data Size    | 1 bytes |
| Instructions | 1       |

```
      00 01 02 03 04 05 06 07  08 09 0A 0B 0C 0D 0E 0F
      -- -- -- -- -- -- -- --  -- -- -- -- -- -- -- --
0000:          00                                          .            
```

#### Opcodes

```
  0: 0x0003 [0x00] END_REQSTACK()
```

### Event 65535.1

#### Metadata

| Field        | Value    |
|--------------|----------|
| Entrypoint   | 0x0004   |
| Data Size    | 26 bytes |
| Instructions | 8        |

```
      00 01 02 03 04 05 06 07  08 09 0A 0B 0C 0D 0E 0F
      -- -- -- -- -- -- -- --  -- -- -- -- -- -- -- --
0000:             32 00 80 1F  00 01 80 02 80 03 80 1F      2...........
0010: 01 6F 1F 00 04 80 05 80  06 80 1F 01 6F 00        .o..........o.  
```

#### Opcodes

```
  0: 0x0004 [0x32] ExtData[1]->MainSpeed = 40* * 0.1
  1: 0x0007 [0x1F] MOVE_ENTITY: EventEntity moves to X=-24.183*, Z=37.054*, Y=-3.499*
  2: 0x000F [0x1F] MOVE_ENTITY: Update entity position (mode=1)
  3: 0x0011 [0x6F] WAIT_FRAME_DELAY: Yield until WaitTime reaches zero
  4: 0x0012 [0x1F] MOVE_ENTITY: EventEntity moves to X=-14.580*, Z=37.376*, Y=-1.000*
  5: 0x001A [0x1F] MOVE_ENTITY: Update entity position (mode=1)
  6: 0x001C [0x6F] WAIT_FRAME_DELAY: Yield until WaitTime reaches zero
  7: 0x001D [0x00] END_REQSTACK()
```

### Event 65535.2

#### Metadata

| Field        | Value    |
|--------------|----------|
| Entrypoint   | 0x001E   |
| Data Size    | 24 bytes |
| Instructions | 6        |

```
      00 01 02 03 04 05 06 07  08 09 0A 0B 0C 0D 0E 0F
      -- -- -- -- -- -- -- --  -- -- -- -- -- -- -- --
0010:                                            37 07                7.
0020: 80 08 80 06 80 09 80 32  00 80 1F 00 0A 80 0B 80  .......2........
0030: 06 80 1F 01 6F 00                                 ....o.          
```

#### Opcodes

```
  0: 0x001E [0x37] UPDATE_EVENT_POSITION_AND_DIR: x=-1.740*, z=32.047*, y=-1.000*, direction=353.8°*
  1: 0x0027 [0x32] ExtData[1]->MainSpeed = 40* * 0.1
  2: 0x002A [0x1F] MOVE_ENTITY: EventEntity moves to X=-1.576*, Z=36.408*, Y=-1.000*
  3: 0x0032 [0x1F] MOVE_ENTITY: Update entity position (mode=1)
  4: 0x0034 [0x6F] WAIT_FRAME_DELAY: Yield until WaitTime reaches zero
  5: 0x0035 [0x00] END_REQSTACK()
```

### Event 65535.3

#### Metadata

| Field        | Value    |
|--------------|----------|
| Entrypoint   | 0x0036   |
| Data Size    | 20 bytes |
| Instructions | 6        |

```
      00 01 02 03 04 05 06 07  08 09 0A 0B 0C 0D 0E 0F
      -- -- -- -- -- -- -- --  -- -- -- -- -- -- -- --
0030:                   32 0C  80 1F 00 0D 80 0E 80 0F        2.........
0040: 80 1F 01 6F 1E F0 FF FF  7F 00                    ...o......      
```

#### Opcodes

```
  0: 0x0036 [0x32] ExtData[1]->MainSpeed = 13* * 0.1
  1: 0x0039 [0x1F] MOVE_ENTITY: EventEntity moves to X=-3.384*, Z=32.632*, Y=-0.999*
  2: 0x0041 [0x1F] MOVE_ENTITY: Update entity position (mode=1)
  3: 0x0043 [0x6F] WAIT_FRAME_DELAY: Yield until WaitTime reaches zero
  4: 0x0044 [0x1E] EventEntity looks at LocalPlayer and starts talking
  5: 0x0049 [0x00] END_REQSTACK()
```

### Event 65535.4

#### Metadata

| Field        | Value    |
|--------------|----------|
| Entrypoint   | 0x004A   |
| Data Size    | 26 bytes |
| Instructions | 3        |

```
      00 01 02 03 04 05 06 07  08 09 0A 0B 0C 0D 0E 0F
      -- -- -- -- -- -- -- --  -- -- -- -- -- -- -- --
0040:                                B6 0B 10 80 11 80            ......
0050: 12 80 13 80 14 80 15 80  12 80 16 80 12 80 80 F8  ................
0060: FF FF 7F 00                                       ....            
```

#### Opcodes

```
  0: 0x004A [0xB6] ENTITY_APPEARANCE_HANDLER(case=Full entity look, race=7*, hair=26*, head=0*, body=35*, hands=54*, legs=219*, feet=0*, main=369*, sub=0*)
  1: 0x005E [0x80] LOAD_WAIT(entity=EventEntity)
  2: 0x0063 [0x00] END_REQSTACK()
```

### Event 65535.5

#### Metadata

| Field        | Value    |
|--------------|----------|
| Entrypoint   | 0x0064   |
| Data Size    | 26 bytes |
| Instructions | 3        |

```
      00 01 02 03 04 05 06 07  08 09 0A 0B 0C 0D 0E 0F
      -- -- -- -- -- -- -- --  -- -- -- -- -- -- -- --
0060:             B6 0B 10 80  11 80 12 80 13 80 14 80      ............
0070: 15 80 12 80 12 80 12 80  80 F8 FF FF 7F 00        ..............  
```

#### Opcodes

```
  0: 0x0064 [0xB6] ENTITY_APPEARANCE_HANDLER(case=Full entity look, race=7*, hair=26*, head=0*, body=35*, hands=54*, legs=219*, feet=0*, main=0*, sub=0*)
  1: 0x0078 [0x80] LOAD_WAIT(entity=EventEntity)
  2: 0x007D [0x00] END_REQSTACK()
```

### Event 65535.6

#### Metadata

| Field        | Value    |
|--------------|----------|
| Entrypoint   | 0x007E   |
| Data Size    | 20 bytes |
| Instructions | 6        |

```
      00 01 02 03 04 05 06 07  08 09 0A 0B 0C 0D 0E 0F
      -- -- -- -- -- -- -- --  -- -- -- -- -- -- -- --
0070:                                            32 00                2.
0080: 80 1F 00 17 80 18 80 06  80 1F 01 6F 1E 36 E2 05  ...........o.6..
0090: 01 00                                             ..              
```

#### Opcodes

```
  0: 0x007E [0x32] ExtData[1]->MainSpeed = 40* * 0.1
  1: 0x0081 [0x1F] MOVE_ENTITY: EventEntity moves to X=-0.029*, Z=35.395*, Y=-1.000*
  2: 0x0089 [0x1F] MOVE_ENTITY: Update entity position (mode=1)
  3: 0x008B [0x6F] WAIT_FRAME_DELAY: Yield until WaitTime reaches zero
  4: 0x008C [0x1E] EventEntity looks at Lehko Habhoka (ID: 17162806/0x0105E236) and starts talking
  5: 0x0091 [0x00] END_REQSTACK()
```

### Event 65535.7

#### Metadata

| Field        | Value    |
|--------------|----------|
| Entrypoint   | 0x0092   |
| Data Size    | 42 bytes |
| Instructions | 8        |

```
      00 01 02 03 04 05 06 07  08 09 0A 0B 0C 0D 0E 0F
      -- -- -- -- -- -- -- --  -- -- -- -- -- -- -- --
0090:       1F 00 19 80 1A 80  1B 80 1F 01 6F 4A 0C E2    ..........oJ..
00A0: 05 01 08 E2 05 01 6F 76  0C E2 05 01 5B 1C 80 0C  ......ov....[...
00B0: E2 05 01 0C E2 05 01 68  6A 61 30 00              .......hja0.    
```

#### Opcodes

```
  0: 0x0092 [0x1F] MOVE_ENTITY: EventEntity moves to X=-41.824*, Z=214.852*, Y=-5.000*
  1: 0x009A [0x1F] MOVE_ENTITY: Update entity position (mode=1)
  2: 0x009C [0x6F] WAIT_FRAME_DELAY: Yield until WaitTime reaches zero
  3: 0x009D [0x4A] Haja Zhwan (ID: 17162764/0x0105E20C) looks at Romaa Mihgo (ID: 17162760/0x0105E208)
  4: 0x00A6 [0x6F] WAIT_FRAME_DELAY: Yield until WaitTime reaches zero
  5: 0x00A7 [0x76] CHECK_ENTITY_RENDER_FLAGS: Wait until Haja Zhwan (ID: 17162764/0x0105E20C) Render.Flags0 and Render.Flags3 conditions are met
  6: 0x00AC [0x5B] LOAD_EXT_SCHEDULER: Load scheduler "hja0" with entities [Haja Zhwan (ID: 17162764/0x0105E20C), Haja Zhwan (ID: 17162764/0x0105E20C)], work=1530*
  7: 0x00BB [0x00] END_REQSTACK()
```

### Event 65535.8

#### Metadata

| Field        | Value    |
|--------------|----------|
| Entrypoint   | 0x00BC   |
| Data Size    | 16 bytes |
| Instructions | 4        |

```
      00 01 02 03 04 05 06 07  08 09 0A 0B 0C 0D 0E 0F
      -- -- -- -- -- -- -- --  -- -- -- -- -- -- -- --
00B0:                                      1C 1D 80 6E              ...n
00C0: 0C E2 05 01 1E 80 99 0C  E2 05 01 00              ............    
```

#### Opcodes

```
  0: 0x00BC [0x1C] WAIT(70* ticks)
  1: 0x00BF [0x6E] Haja Zhwan (ID: 17162764/0x0105E20C) uses emote 34*
  2: 0x00C6 [0x99] Wait for Haja Zhwan (ID: 17162764/0x0105E20C) animation to complete
  3: 0x00CB [0x00] END_REQSTACK()
```

### Event 182

#### Metadata

| Field        | Value   |
|--------------|---------|
| Entrypoint   | 0x00CC  |
| Data Size    | 1 bytes |
| Instructions | 1       |

```
      00 01 02 03 04 05 06 07  08 09 0A 0B 0C 0D 0E 0F
      -- -- -- -- -- -- -- --  -- -- -- -- -- -- -- --
00C0:                                      00                       .   
```

#### Opcodes

```
  0: 0x00CC [0x00] END_REQSTACK()
```

### Event 23

#### Metadata

| Field        | Value   |
|--------------|---------|
| Entrypoint   | 0x00CD  |
| Data Size    | 1 bytes |
| Instructions | 1       |

```
      00 01 02 03 04 05 06 07  08 09 0A 0B 0C 0D 0E 0F
      -- -- -- -- -- -- -- --  -- -- -- -- -- -- -- --
00C0:                                         00                     .  
```

#### Opcodes

```
  0: 0x00CD [0x00] END_REQSTACK()
```

### Event 65535.9

#### Metadata

| Field        | Value    |
|--------------|----------|
| Entrypoint   | 0x00CE   |
| Data Size    | 34 bytes |
| Instructions | 8        |

```
      00 01 02 03 04 05 06 07  08 09 0A 0B 0C 0D 0E 0F
      -- -- -- -- -- -- -- --  -- -- -- -- -- -- -- --
00C0:                                            32 13                2.
00D0: 80 1F 00 1F 80 20 80 21  80 1F 01 1F 00 22 80 23  ..... .!.....".#
00E0: 80 21 80 1F 01 1F 00 24  80 25 80 26 80 1F 01 00  .!.....$.%.&....
```

#### Opcodes

```
  0: 0x00CE [0x32] ExtData[1]->MainSpeed = 35* * 0.1
  1: 0x00D1 [0x1F] MOVE_ENTITY: EventEntity moves to X=-5.691*, Z=-5.993*, Y=-25.499*
  2: 0x00D9 [0x1F] MOVE_ENTITY: Update entity position (mode=1)
  3: 0x00DB [0x1F] MOVE_ENTITY: EventEntity moves to X=6.239*, Z=-6.799*, Y=-25.499*
  4: 0x00E3 [0x1F] MOVE_ENTITY: Update entity position (mode=1)
  5: 0x00E5 [0x1F] MOVE_ENTITY: EventEntity moves to X=29.065*, Z=2.524*, Y=-25.999*
  6: 0x00ED [0x1F] MOVE_ENTITY: Update entity position (mode=1)
  7: 0x00EF [0x00] END_REQSTACK()
```

### Event 33

#### Metadata

| Field        | Value   |
|--------------|---------|
| Entrypoint   | 0x00F0  |
| Data Size    | 1 bytes |
| Instructions | 1       |

```
      00 01 02 03 04 05 06 07  08 09 0A 0B 0C 0D 0E 0F
      -- -- -- -- -- -- -- --  -- -- -- -- -- -- -- --
00F0: 00                                                .               
```

#### Opcodes

```
  0: 0x00F0 [0x00] END_REQSTACK()
```

### Event 65535.10

#### Metadata

| Field        | Value    |
|--------------|----------|
| Entrypoint   | 0x00F1   |
| Data Size    | 24 bytes |
| Instructions | 6        |

```
      00 01 02 03 04 05 06 07  08 09 0A 0B 0C 0D 0E 0F
      -- -- -- -- -- -- -- --  -- -- -- -- -- -- -- --
00F0:    32 0C 80 1F 00 27 80  28 80 29 80 1F 01 1F 00   2....'.(.).....
0100: 2A 80 2B 80 2C 80 1F 01  00                       *.+.,....       
```

#### Opcodes

```
  0: 0x00F1 [0x32] ExtData[1]->MainSpeed = 13* * 0.1
  1: 0x00F4 [0x1F] MOVE_ENTITY: EventEntity moves to X=-201.639*, Z=-219.417*, Y=-67.462*
  2: 0x00FC [0x1F] MOVE_ENTITY: Update entity position (mode=1)
  3: 0x00FE [0x1F] MOVE_ENTITY: EventEntity moves to X=-199.308*, Z=-203.929*, Y=-68.004*
  4: 0x0106 [0x1F] MOVE_ENTITY: Update entity position (mode=1)
  5: 0x0108 [0x00] END_REQSTACK()
```

### Event 65535.11

#### Metadata

| Field        | Value    |
|--------------|----------|
| Entrypoint   | 0x0109   |
| Data Size    | 21 bytes |
| Instructions | 2        |

```
      00 01 02 03 04 05 06 07  08 09 0A 0B 0C 0D 0E 0F
      -- -- -- -- -- -- -- --  -- -- -- -- -- -- -- --
0100:                             B6 0B 10 80 2D 80 12           ....-..
0110: 80 2E 80 2E 80 2F 80 2F  80 12 80 12 80 00        ....././......  
```

#### Opcodes

```
  0: 0x0109 [0xB6] ENTITY_APPEARANCE_HANDLER(case=Full entity look, race=7*, hair=1*, head=0*, body=11*, hands=11*, legs=162*, feet=162*, main=0*, sub=0*)
  1: 0x011D [0x00] END_REQSTACK()
```

### Event 65535.12

#### Metadata

| Field        | Value    |
|--------------|----------|
| Entrypoint   | 0x011E   |
| Data Size    | 21 bytes |
| Instructions | 2        |

```
      00 01 02 03 04 05 06 07  08 09 0A 0B 0C 0D 0E 0F
      -- -- -- -- -- -- -- --  -- -- -- -- -- -- -- --
0110:                                            B6 0B                ..
0120: 10 80 11 80 12 80 13 80  14 80 15 80 12 80 16 80  ................
0130: 12 80 00                                          ...             
```

#### Opcodes

```
  0: 0x011E [0xB6] ENTITY_APPEARANCE_HANDLER(case=Full entity look, race=7*, hair=26*, head=0*, body=35*, hands=54*, legs=219*, feet=0*, main=369*, sub=0*)
  1: 0x0132 [0x00] END_REQSTACK()
```

### Event 65535.13

#### Metadata

| Field        | Value   |
|--------------|---------|
| Entrypoint   | 0x0133  |
| Data Size    | 1 bytes |
| Instructions | 1       |

```
      00 01 02 03 04 05 06 07  08 09 0A 0B 0C 0D 0E 0F
      -- -- -- -- -- -- -- --  -- -- -- -- -- -- -- --
0130:          00                                          .            
```

#### Opcodes

```
  0: 0x0133 [0x00] END_REQSTACK()
```

### Event 65535.14

#### Metadata

| Field        | Value    |
|--------------|----------|
| Entrypoint   | 0x0134   |
| Data Size    | 18 bytes |
| Instructions | 4        |

```
      00 01 02 03 04 05 06 07  08 09 0A 0B 0C 0D 0E 0F
      -- -- -- -- -- -- -- --  -- -- -- -- -- -- -- --
0130:             22 00 2F 00  F8 FF FF 7F 6C F8 FF FF      "./.....l...
0140: 7F 12 80 2D 80 00                                 ...-..          
```

#### Opcodes

```
  0: 0x0134 [0x22] ENTITY_HIDE_FLAG(enabled=0x00)
  1: 0x0136 [0x2F] EventEntity->Render.Flags0 &= ~0x80000 // Bit 19
  2: 0x013C [0x6C] FADE_ENTITY_COLOR(entity_id=EventEntity, end_alpha=0*, fade_time=1*)
  3: 0x0145 [0x00] END_REQSTACK()
```

### Event 65535.15

#### Metadata

| Field        | Value    |
|--------------|----------|
| Entrypoint   | 0x0146   |
| Data Size    | 10 bytes |
| Instructions | 2        |

```
      00 01 02 03 04 05 06 07  08 09 0A 0B 0C 0D 0E 0F
      -- -- -- -- -- -- -- --  -- -- -- -- -- -- -- --
0140:                   6C F8  FF FF 7F 30 80 2D 80 00        l....0.-..
```

#### Opcodes

```
  0: 0x0146 [0x6C] FADE_ENTITY_COLOR(entity_id=EventEntity, end_alpha=128*, fade_time=1*)
  1: 0x014F [0x00] END_REQSTACK()
```

### Event 65535.16

#### Metadata

| Field        | Value   |
|--------------|---------|
| Entrypoint   | 0x0150  |
| Data Size    | 9 bytes |
| Instructions | 3       |

```
      00 01 02 03 04 05 06 07  08 09 0A 0B 0C 0D 0E 0F
      -- -- -- -- -- -- -- --  -- -- -- -- -- -- -- --
0150: 22 00 2F 00 F8 FF FF 7F  00                       "./......       
```

#### Opcodes

```
  0: 0x0150 [0x22] ENTITY_HIDE_FLAG(enabled=0x00)
  1: 0x0152 [0x2F] EventEntity->Render.Flags0 &= ~0x80000 // Bit 19
  2: 0x0158 [0x00] END_REQSTACK()
```

### Event 65535.17

#### Metadata

| Field        | Value   |
|--------------|---------|
| Entrypoint   | 0x0159  |
| Data Size    | 9 bytes |
| Instructions | 3       |

```
      00 01 02 03 04 05 06 07  08 09 0A 0B 0C 0D 0E 0F
      -- -- -- -- -- -- -- --  -- -- -- -- -- -- -- --
0150:                             22 01 2F 01 F8 FF FF           "./....
0160: 7F 00                                             ..              
```

#### Opcodes

```
  0: 0x0159 [0x22] ENTITY_HIDE_FLAG(enabled=0x01)
  1: 0x015B [0x2F] EventEntity->Render.Flags0 |= 0x80000 // Bit 19
  2: 0x0161 [0x00] END_REQSTACK()
```

### Event 65535.18

#### Metadata

| Field        | Value    |
|--------------|----------|
| Entrypoint   | 0x0162   |
| Data Size    | 10 bytes |
| Instructions | 2        |

```
      00 01 02 03 04 05 06 07  08 09 0A 0B 0C 0D 0E 0F
      -- -- -- -- -- -- -- --  -- -- -- -- -- -- -- --
0160:       6C F8 FF FF 7F 12  80 2D 80 00                l......-..    
```

#### Opcodes

```
  0: 0x0162 [0x6C] FADE_ENTITY_COLOR(entity_id=EventEntity, end_alpha=0*, fade_time=1*)
  1: 0x016B [0x00] END_REQSTACK()
```

### Event 65535.19

#### Metadata

| Field        | Value    |
|--------------|----------|
| Entrypoint   | 0x016C   |
| Data Size    | 10 bytes |
| Instructions | 2        |

```
      00 01 02 03 04 05 06 07  08 09 0A 0B 0C 0D 0E 0F
      -- -- -- -- -- -- -- --  -- -- -- -- -- -- -- --
0160:                                      6C F8 FF FF              l...
0170: 7F 30 80 2D 80 00                                 .0.-..          
```

#### Opcodes

```
  0: 0x016C [0x6C] FADE_ENTITY_COLOR(entity_id=EventEntity, end_alpha=128*, fade_time=1*)
  1: 0x0175 [0x00] END_REQSTACK()
```
