# 17162820 - 02

## Common Data

| Field            | Value                        |
|------------------|------------------------------|
| Zone             | Windurst Waters [S] (ID: 94) |
| Block Size       | 2596 bytes                   |
| Total Events     | 35                           |
| References Count | 153                          |

## List of Events

| Event ID                   | Entrypoint   |   Size |   Instructions |
|----------------------------|--------------|--------|----------------|
| [65535](#event-65535)      | 0x0000       |      1 |              1 |
| [65535.1](#event-655351)   | 0x0001       |      1 |              1 |
| [65535.2](#event-655352)   | 0x0002       |     18 |              4 |
| [65535.3](#event-655353)   | 0x0014       |     10 |              2 |
| [65535.4](#event-655354)   | 0x001E       |      9 |              3 |
| [65535.5](#event-655355)   | 0x0027       |      9 |              3 |
| [65535.6](#event-655356)   | 0x0030       |     10 |              2 |
| [65535.7](#event-655357)   | 0x003A       |     10 |              2 |
| [65535.8](#event-655358)   | 0x0044       |     15 |              5 |
| [65535.9](#event-655359)   | 0x0053       |     22 |              7 |
| [65535.10](#event-6553510) | 0x0069       |    167 |             35 |
| [65535.11](#event-6553511) | 0x0110       |    186 |             38 |
| [65535.12](#event-6553512) | 0x01CA       |     83 |             18 |
| [65535.13](#event-6553513) | 0x021D       |    154 |             32 |
| [65535.14](#event-6553514) | 0x02B7       |    167 |             35 |
| [65535.15](#event-6553515) | 0x035E       |     69 |             15 |
| [65535.16](#event-6553516) | 0x03A3       |     38 |              9 |
| [65535.17](#event-6553517) | 0x03C9       |     38 |              9 |
| [65535.18](#event-6553518) | 0x03EF       |     48 |             11 |
| [65535.19](#event-6553519) | 0x041F       |     19 |              4 |
| [65535.20](#event-6553520) | 0x0432       |     22 |              5 |
| [65535.21](#event-6553521) | 0x0448       |     22 |              5 |
| [65535.22](#event-6553522) | 0x045E       |     13 |              5 |
| [65535.23](#event-6553523) | 0x046B       |    221 |             26 |
| [65535.24](#event-6553524) | 0x0548       |     76 |              8 |
| [65535.25](#event-6553525) | 0x0594       |     49 |              5 |
| [65535.26](#event-6553526) | 0x05C5       |     29 |              6 |
| [65535.27](#event-6553527) | 0x05E2       |     49 |              7 |
| [65535.28](#event-6553528) | 0x0613       |     20 |              5 |
| [65535.29](#event-6553529) | 0x0627       |     47 |              6 |
| [65535.30](#event-6553530) | 0x0656       |     21 |              3 |
| [65535.31](#event-6553531) | 0x066B       |    161 |             17 |
| [65535.32](#event-6553532) | 0x070C       |     20 |              5 |
| [20](#event-20)            | 0x0720       |      1 |              1 |
| [23](#event-23)            | 0x0721       |      1 |              1 |

## DAT References (imed_data)

|   Index | Hex Value   |   Dec Value |
|---------|-------------|-------------|
|       0 | 0x0000      |           0 |
|       1 | 0x0001      |           1 |
|       2 | 0x0080      |         128 |
|       3 | 0x0028      |          40 |
|       4 | 0xFFFFA3F1  |  4294943729 |
|       5 | 0x14BCE     |       84942 |
|       6 | 0xFFFFEC78  |  4294962296 |
|       7 | 0x0004      |           4 |
|       8 | 0x001E      |          30 |
|       9 | 0x0050      |          80 |
|      10 | 0x01CB      |         459 |
|      11 | 0xC01D      |       49181 |
|      12 | 0xFFFFFC18  |  4294966296 |
|      13 | 0xFFFFF61D  |  4294964765 |
|      14 | 0xB4CD      |       46285 |
|      15 | 0xFFFFE4A1  |  4294960289 |
|      16 | 0xA1E9      |       41449 |
|      17 | 0xFFFFCB4E  |  4294953806 |
|      18 | 0x99E9      |       39401 |
|      19 | 0xFFFF383B  |  4294916155 |
|      20 | 0x975A      |       38746 |
|      21 | 0xFFFFF255  |  4294963797 |
|      22 | 0xFFFF0950  |  4294904144 |
|      23 | 0xA6EB      |       42731 |
|      24 | 0xFFFEE28D  |  4294894221 |
|      25 | 0xCA5B      |       51803 |
|      26 | 0xFFFECCEB  |  4294888683 |
|      27 | 0xE7E4      |       59364 |
|      28 | 0xFFFED4DC  |  4294890716 |
|      29 | 0x12692     |       75410 |
|      30 | 0xFFFF05FC  |  4294903292 |
|      31 | 0x13DD1     |       81361 |
|      32 | 0xFFFF3FE9  |  4294918121 |
|      33 | 0x14635     |       83509 |
|      34 | 0xFFFFEC79  |  4294962297 |
|      35 | 0xFFFF58F1  |  4294924529 |
|      36 | 0x156CB     |       87755 |
|      37 | 0xFFFF5F95  |  4294926229 |
|      38 | 0x16818     |       92184 |
|      39 | 0xFFFF633B  |  4294927163 |
|      40 | 0x28E9B     |      167579 |
|      41 | 0xFFFFEC61  |  4294962273 |
|      42 | 0x0096      |         150 |
|      43 | 0x004F      |          79 |
|      44 | 0xFFFFFD21  |  4294966561 |
|      45 | 0xCD5B      |       52571 |
|      46 | 0xFFFFF472  |  4294964338 |
|      47 | 0xC585      |       50565 |
|      48 | 0xFFFFE64E  |  4294960718 |
|      49 | 0xAABD      |       43709 |
|      50 | 0xFFFFD9CC  |  4294957516 |
|      51 | 0x9B38      |       39736 |
|      52 | 0xFFFFCCF6  |  4294954230 |
|      53 | 0x9802      |       38914 |
|      54 | 0xFFFF64E4  |  4294927588 |
|      55 | 0x15EE3     |       89827 |
|      56 | 0xFFFF68EB  |  4294928619 |
|      57 | 0x16CEC     |       93420 |
|      58 | 0xFFFF6A76  |  4294929014 |
|      59 | 0x1835B     |       99163 |
|      60 | 0x0019      |          25 |
|      61 | 0xFFFF9D93  |  4294942099 |
|      62 | 0x153C3     |       86979 |
|      63 | 0x004E      |          78 |
|      64 | 0xFFFF7F27  |  4294934311 |
|      65 | 0x170BF     |       94399 |
|      66 | 0xFFFF6EA5  |  4294930085 |
|      67 | 0x181BB     |       98747 |
|      68 | 0xFFFF6986  |  4294928774 |
|      69 | 0x1A277     |      107127 |
|      70 | 0xFFFFE83A  |  4294961210 |
|      71 | 0x79A0      |       31136 |
|      72 | 0xFFFFFC19  |  4294966297 |
|      73 | 0xFFFFE0B0  |  4294959280 |
|      74 | 0x893B      |       35131 |
|      75 | 0xFFFFD29F  |  4294955679 |
|      76 | 0x9856      |       38998 |
|      77 | 0x00B4      |         180 |
|      78 | 0xFFFFF934  |  4294965556 |
|      79 | 0x7B9B      |       31643 |
|      80 | 0xFFFFEFB1  |  4294963121 |
|      81 | 0x9085      |       36997 |
|      82 | 0xFFFFDE20  |  4294958624 |
|      83 | 0xA00A      |       40970 |
|      84 | 0x0168      |         360 |
|      85 | 0x000F      |          15 |
|      86 | 0xFFFF96A6  |  4294940326 |
|      87 | 0xF877      |       63607 |
|      88 | 0xFFFFF254  |  4294963796 |
|      89 | 0xFFFF9B5E  |  4294941534 |
|      90 | 0xF61A      |       63002 |
|      91 | 0xFFFF46D2  |  4294919890 |
|      92 | 0xE60E      |       58894 |
|      93 | 0xFFFF2186  |  4294910342 |
|      94 | 0xD0D7      |       53463 |
|      95 | 0x001B      |          27 |
|      96 | 0xFFFF8952  |  4294936914 |
|      97 | 0x12369     |       74601 |
|      98 | 0xFFFFF20A  |  4294963722 |
|      99 | 0xFFFF2B43  |  4294912835 |
|     100 | 0x10F50     |       69456 |
|     101 | 0xFFFF8D73  |  4294937971 |
|     102 | 0x1266B     |       75371 |
|     103 | 0xFFFFF237  |  4294963767 |
|     104 | 0xFFFF3027  |  4294914087 |
|     105 | 0x113AF     |       70575 |
|     106 | 0xFFFF938A  |  4294939530 |
|     107 | 0x11F80     |       73600 |
|     108 | 0xFFFFF2AA  |  4294963882 |
|     109 | 0xFFFF3332  |  4294914866 |
|     110 | 0x11FA6     |       73638 |
|     111 | 0xFFFF2C4F  |  4294913103 |
|     112 | 0x1196C     |       72044 |
|     113 | 0x002A      |          42 |
|     114 | 0xFFFFA76A  |  4294944618 |
|     115 | 0x13DC9     |       81353 |
|     116 | 0x003C      |          60 |
|     117 | 0x0078      |         120 |
|     118 | 0x0258      |         600 |
|     119 | 0x0005      |           5 |
|     120 | 0x0215      |         533 |
|     121 | 0x012C      |         300 |
|     122 | 0xFFFF11C3  |  4294906307 |
|     123 | 0x1126E     |       70254 |
|     124 | 0x0FFD      |        4093 |
|     125 | 0x0031      |          49 |
|     126 | 0x0508      |        1288 |
|     127 | 0xFFFFEB50  |  4294962000 |
|     128 | 0x3028      |       12328 |
|     129 | 0x00A0      |         160 |
|     130 | 0x0055      |          85 |
|     131 | 0x0007      |           7 |
|     132 | 0xFFFFFECD  |  4294966989 |
|     133 | 0x33C0      |       13248 |
|     134 | 0x0023      |          35 |
|     135 | 0xFFFFFC12  |  4294966290 |
|     136 | 0x3F62      |       16226 |
|     137 | 0x004B      |          75 |
|     138 | 0x00C9      |         201 |
|     139 | 0xFFFFFBDE  |  4294966238 |
|     140 | 0x4419      |       17433 |
|     141 | 0x0408      |        1032 |
|     142 | 0x3D40      |       15680 |
|     143 | 0x09C7      |        2503 |
|     144 | 0x0506      |        1286 |
|     145 | 0x00B5      |         181 |
|     146 | 0x0056      |          86 |
|     147 | 0x0189      |         393 |
|     148 | 0x0BD5      |        3029 |
|     149 | 0x0024      |          36 |
|     150 | 0xFFFFE1FB  |  4294959611 |
|     151 | 0x1E8B      |        7819 |
|     152 | 0xFFFFFBFE  |  4294966270 |

## Events

### Event 65535

#### Metadata

| Field        | Value   |
|--------------|---------|
| Entrypoint   | 0x0000  |
| Data Size    | 1 bytes |
| Instructions | 1       |

```
      00 01 02 03 04 05 06 07  08 09 0A 0B 0C 0D 0E 0F
      -- -- -- -- -- -- -- --  -- -- -- -- -- -- -- --
0000: 00                                                .               
```

#### Opcodes

```
  0: 0x0000 [0x00] END_REQSTACK()
```

### Event 65535.1

#### Metadata

| Field        | Value   |
|--------------|---------|
| Entrypoint   | 0x0001  |
| Data Size    | 1 bytes |
| Instructions | 1       |

```
      00 01 02 03 04 05 06 07  08 09 0A 0B 0C 0D 0E 0F
      -- -- -- -- -- -- -- --  -- -- -- -- -- -- -- --
0000:    00                                              .              
```

#### Opcodes

```
  0: 0x0001 [0x00] END_REQSTACK()
```

### Event 65535.2

#### Metadata

| Field        | Value    |
|--------------|----------|
| Entrypoint   | 0x0002   |
| Data Size    | 18 bytes |
| Instructions | 4        |

```
      00 01 02 03 04 05 06 07  08 09 0A 0B 0C 0D 0E 0F
      -- -- -- -- -- -- -- --  -- -- -- -- -- -- -- --
0000:       22 00 2F 00 F8 FF  FF 7F 6C F8 FF FF 7F 00    "./.....l.....
0010: 80 01 80 00                                       ....            
```

#### Opcodes

```
  0: 0x0002 [0x22] ENTITY_HIDE_FLAG(enabled=0x00)
  1: 0x0004 [0x2F] EventEntity->Render.Flags0 &= ~0x80000 // Bit 19
  2: 0x000A [0x6C] FADE_ENTITY_COLOR(entity_id=EventEntity, end_alpha=0*, fade_time=1*)
  3: 0x0013 [0x00] END_REQSTACK()
```

### Event 65535.3

#### Metadata

| Field        | Value    |
|--------------|----------|
| Entrypoint   | 0x0014   |
| Data Size    | 10 bytes |
| Instructions | 2        |

```
      00 01 02 03 04 05 06 07  08 09 0A 0B 0C 0D 0E 0F
      -- -- -- -- -- -- -- --  -- -- -- -- -- -- -- --
0010:             6C F8 FF FF  7F 02 80 01 80 00            l.........  
```

#### Opcodes

```
  0: 0x0014 [0x6C] FADE_ENTITY_COLOR(entity_id=EventEntity, end_alpha=128*, fade_time=1*)
  1: 0x001D [0x00] END_REQSTACK()
```

### Event 65535.4

#### Metadata

| Field        | Value   |
|--------------|---------|
| Entrypoint   | 0x001E  |
| Data Size    | 9 bytes |
| Instructions | 3       |

```
      00 01 02 03 04 05 06 07  08 09 0A 0B 0C 0D 0E 0F
      -- -- -- -- -- -- -- --  -- -- -- -- -- -- -- --
0010:                                            22 00                ".
0020: 2F 00 F8 FF FF 7F 00                              /......         
```

#### Opcodes

```
  0: 0x001E [0x22] ENTITY_HIDE_FLAG(enabled=0x00)
  1: 0x0020 [0x2F] EventEntity->Render.Flags0 &= ~0x80000 // Bit 19
  2: 0x0026 [0x00] END_REQSTACK()
```

### Event 65535.5

#### Metadata

| Field        | Value   |
|--------------|---------|
| Entrypoint   | 0x0027  |
| Data Size    | 9 bytes |
| Instructions | 3       |

```
      00 01 02 03 04 05 06 07  08 09 0A 0B 0C 0D 0E 0F
      -- -- -- -- -- -- -- --  -- -- -- -- -- -- -- --
0020:                      22  01 2F 01 F8 FF FF 7F 00         "./......
```

#### Opcodes

```
  0: 0x0027 [0x22] ENTITY_HIDE_FLAG(enabled=0x01)
  1: 0x0029 [0x2F] EventEntity->Render.Flags0 |= 0x80000 // Bit 19
  2: 0x002F [0x00] END_REQSTACK()
```

### Event 65535.6

#### Metadata

| Field        | Value    |
|--------------|----------|
| Entrypoint   | 0x0030   |
| Data Size    | 10 bytes |
| Instructions | 2        |

```
      00 01 02 03 04 05 06 07  08 09 0A 0B 0C 0D 0E 0F
      -- -- -- -- -- -- -- --  -- -- -- -- -- -- -- --
0030: 6C F8 FF FF 7F 00 80 01  80 00                    l.........      
```

#### Opcodes

```
  0: 0x0030 [0x6C] FADE_ENTITY_COLOR(entity_id=EventEntity, end_alpha=0*, fade_time=1*)
  1: 0x0039 [0x00] END_REQSTACK()
```

### Event 65535.7

#### Metadata

| Field        | Value    |
|--------------|----------|
| Entrypoint   | 0x003A   |
| Data Size    | 10 bytes |
| Instructions | 2        |

```
      00 01 02 03 04 05 06 07  08 09 0A 0B 0C 0D 0E 0F
      -- -- -- -- -- -- -- --  -- -- -- -- -- -- -- --
0030:                                6C F8 FF FF 7F 02            l.....
0040: 80 01 80 00                                       ....            
```

#### Opcodes

```
  0: 0x003A [0x6C] FADE_ENTITY_COLOR(entity_id=EventEntity, end_alpha=128*, fade_time=1*)
  1: 0x0043 [0x00] END_REQSTACK()
```

### Event 65535.8

#### Metadata

| Field        | Value    |
|--------------|----------|
| Entrypoint   | 0x0044   |
| Data Size    | 15 bytes |
| Instructions | 5        |

```
      00 01 02 03 04 05 06 07  08 09 0A 0B 0C 0D 0E 0F
      -- -- -- -- -- -- -- --  -- -- -- -- -- -- -- --
0040:             32 03 80 1F  00 04 80 05 80 06 80 1F      2...........
0050: 01 6F 00                                          .o.             
```

#### Opcodes

```
  0: 0x0044 [0x32] ExtData[1]->MainSpeed = 40* * 0.1
  1: 0x0047 [0x1F] MOVE_ENTITY: EventEntity moves to X=-23.567*, Z=84.942*, Y=-5.000*
  2: 0x004F [0x1F] MOVE_ENTITY: Update entity position (mode=1)
  3: 0x0051 [0x6F] WAIT_FRAME_DELAY: Yield until WaitTime reaches zero
  4: 0x0052 [0x00] END_REQSTACK()
```

### Event 65535.9

#### Metadata

| Field        | Value    |
|--------------|----------|
| Entrypoint   | 0x0053   |
| Data Size    | 22 bytes |
| Instructions | 2        |

```
      00 01 02 03 04 05 06 07  08 09 0A 0B 0C 0D 0E 0F
      -- -- -- -- -- -- -- --  -- -- -- -- -- -- -- --
0050:          B6 0E 00 80 07  80 01 80 00 80 00 80 00     .............
0060: 80 01 80 80 F8 FF FF 7F  00                       .........       
```

#### Opcodes

```
  0: 0x0053 [0xB6] ENTITY_APPEARANCE_HANDLER(case=Look with Render flags, race=0*, face=4*, head=1*, body=0*, hands=0*, render_flags=0x8000)
  1: 0x0061 [0x01] GOTO 0x8080
```

#### Data or dead code:

```
# Dead code (unreachable instructions):
     0x0064 [0xF8] UNKNOWN_0xF8
     0x0065 [0xFF] UNKNOWN_0xFF
     0x0066 [0xFF] UNKNOWN_0xFF
     0x0067 [0x7F] WAIT_DIALOG_SELECT_ALT()
     0x0068 [0x00] END_REQSTACK()
```

### Event 65535.10

#### Metadata

| Field        | Value     |
|--------------|-----------|
| Entrypoint   | 0x0069    |
| Data Size    | 167 bytes |
| Instructions | 35        |

```
      00 01 02 03 04 05 06 07  08 09 0A 0B 0C 0D 0E 0F
      -- -- -- -- -- -- -- --  -- -- -- -- -- -- -- --
0060:                             1C 08 80 59 04 1D E2           ...Y...
0070: 05 01 09 80 1F 00 0A 80  0B 80 0C 80 1F 01 1F 00  ................
0080: 0D 80 0E 80 0C 80 1F 01  1F 00 0F 80 10 80 0C 80  ................
0090: 1F 01 1F 00 11 80 12 80  0C 80 1F 01 1F 00 13 80  ................
00A0: 14 80 15 80 1F 01 1F 00  16 80 17 80 15 80 1F 01  ................
00B0: 1F 00 18 80 19 80 15 80  1F 01 1F 00 1A 80 1B 80  ................
00C0: 15 80 1F 01 1F 00 1C 80  1D 80 15 80 1F 01 1F 00  ................
00D0: 1E 80 1F 80 06 80 1F 01  1F 00 20 80 21 80 22 80  .......... .!.".
00E0: 1F 01 1F 00 23 80 24 80  22 80 1F 01 1F 00 25 80  ....#.$.".....%.
00F0: 26 80 22 80 1F 01 1F 00  27 80 28 80 29 80 1F 01  &.".....'.(.)...
0100: 6F 7E 05 1D E2 05 01 22  01 2F 01 F8 FF FF 7F 00  o~....."./......
```

#### Opcodes

```
  0: 0x0069 [0x1C] WAIT(30* ticks)
  1: 0x006C [0x59] UPDATE_ENTITY_DATA: Set 01 (ID: 17162781/0x0105E21D) main speed = 80* * 0.1
  2: 0x0074 [0x1F] MOVE_ENTITY: EventEntity moves to X=0.459*, Z=49.181*, Y=-1.000*
  3: 0x007C [0x1F] MOVE_ENTITY: Update entity position (mode=1)
  4: 0x007E [0x1F] MOVE_ENTITY: EventEntity moves to X=-2.531*, Z=46.285*, Y=-1.000*
  5: 0x0086 [0x1F] MOVE_ENTITY: Update entity position (mode=1)
  6: 0x0088 [0x1F] MOVE_ENTITY: EventEntity moves to X=-7.007*, Z=41.449*, Y=-1.000*
  7: 0x0090 [0x1F] MOVE_ENTITY: Update entity position (mode=1)
  8: 0x0092 [0x1F] MOVE_ENTITY: EventEntity moves to X=-13.490*, Z=39.401*, Y=-1.000*
  9: 0x009A [0x1F] MOVE_ENTITY: Update entity position (mode=1)
 10: 0x009C [0x1F] MOVE_ENTITY: EventEntity moves to X=-51.141*, Z=38.746*, Y=-3.499*
 11: 0x00A4 [0x1F] MOVE_ENTITY: Update entity position (mode=1)
 12: 0x00A6 [0x1F] MOVE_ENTITY: EventEntity moves to X=-63.152*, Z=42.731*, Y=-3.499*
 13: 0x00AE [0x1F] MOVE_ENTITY: Update entity position (mode=1)
 14: 0x00B0 [0x1F] MOVE_ENTITY: EventEntity moves to X=-73.075*, Z=51.803*, Y=-3.499*
 15: 0x00B8 [0x1F] MOVE_ENTITY: Update entity position (mode=1)
 16: 0x00BA [0x1F] MOVE_ENTITY: EventEntity moves to X=-78.613*, Z=59.364*, Y=-3.499*
 17: 0x00C2 [0x1F] MOVE_ENTITY: Update entity position (mode=1)
 18: 0x00C4 [0x1F] MOVE_ENTITY: EventEntity moves to X=-76.580*, Z=75.410*, Y=-3.499*
 19: 0x00CC [0x1F] MOVE_ENTITY: Update entity position (mode=1)
 20: 0x00CE [0x1F] MOVE_ENTITY: EventEntity moves to X=-64.004*, Z=81.361*, Y=-5.000*
 21: 0x00D6 [0x1F] MOVE_ENTITY: Update entity position (mode=1)
 22: 0x00D8 [0x1F] MOVE_ENTITY: EventEntity moves to X=-49.175*, Z=83.509*, Y=-4.999*
 23: 0x00E0 [0x1F] MOVE_ENTITY: Update entity position (mode=1)
 24: 0x00E2 [0x1F] MOVE_ENTITY: EventEntity moves to X=-42.767*, Z=87.755*, Y=-4.999*
 25: 0x00EA [0x1F] MOVE_ENTITY: Update entity position (mode=1)
 26: 0x00EC [0x1F] MOVE_ENTITY: EventEntity moves to X=-41.067*, Z=92.184*, Y=-4.999*
 27: 0x00F4 [0x1F] MOVE_ENTITY: Update entity position (mode=1)
 28: 0x00F6 [0x1F] MOVE_ENTITY: EventEntity moves to X=-40.133*, Z=167.579*, Y=-5.023*
 29: 0x00FE [0x1F] MOVE_ENTITY: Update entity position (mode=1)
 30: 0x0100 [0x6F] WAIT_FRAME_DELAY: Yield until WaitTime reaches zero
 31: 0x0101 [0x7E] CHOCOBO_MOUNT: Dismount 01 (ID: 17162781/0x0105E21D) (status = 0)
 32: 0x0107 [0x22] ENTITY_HIDE_FLAG(enabled=0x01)
 33: 0x0109 [0x2F] EventEntity->Render.Flags0 |= 0x80000 // Bit 19
 34: 0x010F [0x00] END_REQSTACK()
```

### Event 65535.11

#### Metadata

| Field        | Value     |
|--------------|-----------|
| Entrypoint   | 0x0110    |
| Data Size    | 186 bytes |
| Instructions | 38        |

```
      00 01 02 03 04 05 06 07  08 09 0A 0B 0C 0D 0E 0F
      -- -- -- -- -- -- -- --  -- -- -- -- -- -- -- --
0110: 1C 2A 80 59 04 1E E2 05  01 2B 80 1F 00 2C 80 2D  .*.Y.....+...,.-
0120: 80 0C 80 1F 01 1F 00 2E  80 2F 80 0C 80 1F 01 1F  ........./......
0130: 00 30 80 31 80 0C 80 1F  01 1F 00 32 80 33 80 0C  .0.1.......2.3..
0140: 80 1F 01 1F 00 34 80 35  80 0C 80 1F 01 1F 00 13  .....4.5........
0150: 80 14 80 15 80 1F 01 1F  00 16 80 17 80 15 80 1F  ................
0160: 01 1F 00 18 80 19 80 15  80 1F 01 1F 00 1A 80 1B  ................
0170: 80 15 80 1F 01 1F 00 1C  80 1D 80 15 80 1F 01 1F  ................
0180: 00 1E 80 1F 80 06 80 1F  01 1F 00 20 80 21 80 22  ........... .!."
0190: 80 1F 01 1F 00 36 80 37  80 22 80 1F 01 1F 00 38  .....6.7.".....8
01A0: 80 39 80 22 80 1F 01 1F  00 3A 80 3B 80 22 80 1F  .9.".....:.;."..
01B0: 01 1F 00 27 80 28 80 29  80 1F 01 7E 05 1E E2 05  ...'.(.)...~....
01C0: 01 22 01 2F 01 F8 FF FF  7F 00                    ."./......      
```

#### Opcodes

```
  0: 0x0110 [0x1C] WAIT(150* ticks)
  1: 0x0113 [0x59] UPDATE_ENTITY_DATA: Set 02 (ID: 17162782/0x0105E21E) main speed = 79* * 0.1
  2: 0x011B [0x1F] MOVE_ENTITY: EventEntity moves to X=-0.735*, Z=52.571*, Y=-1.000*
  3: 0x0123 [0x1F] MOVE_ENTITY: Update entity position (mode=1)
  4: 0x0125 [0x1F] MOVE_ENTITY: EventEntity moves to X=-2.958*, Z=50.565*, Y=-1.000*
  5: 0x012D [0x1F] MOVE_ENTITY: Update entity position (mode=1)
  6: 0x012F [0x1F] MOVE_ENTITY: EventEntity moves to X=-6.578*, Z=43.709*, Y=-1.000*
  7: 0x0137 [0x1F] MOVE_ENTITY: Update entity position (mode=1)
  8: 0x0139 [0x1F] MOVE_ENTITY: EventEntity moves to X=-9.780*, Z=39.736*, Y=-1.000*
  9: 0x0141 [0x1F] MOVE_ENTITY: Update entity position (mode=1)
 10: 0x0143 [0x1F] MOVE_ENTITY: EventEntity moves to X=-13.066*, Z=38.914*, Y=-1.000*
 11: 0x014B [0x1F] MOVE_ENTITY: Update entity position (mode=1)
 12: 0x014D [0x1F] MOVE_ENTITY: EventEntity moves to X=-51.141*, Z=38.746*, Y=-3.499*
 13: 0x0155 [0x1F] MOVE_ENTITY: Update entity position (mode=1)
 14: 0x0157 [0x1F] MOVE_ENTITY: EventEntity moves to X=-63.152*, Z=42.731*, Y=-3.499*
 15: 0x015F [0x1F] MOVE_ENTITY: Update entity position (mode=1)
 16: 0x0161 [0x1F] MOVE_ENTITY: EventEntity moves to X=-73.075*, Z=51.803*, Y=-3.499*
 17: 0x0169 [0x1F] MOVE_ENTITY: Update entity position (mode=1)
 18: 0x016B [0x1F] MOVE_ENTITY: EventEntity moves to X=-78.613*, Z=59.364*, Y=-3.499*
 19: 0x0173 [0x1F] MOVE_ENTITY: Update entity position (mode=1)
 20: 0x0175 [0x1F] MOVE_ENTITY: EventEntity moves to X=-76.580*, Z=75.410*, Y=-3.499*
 21: 0x017D [0x1F] MOVE_ENTITY: Update entity position (mode=1)
 22: 0x017F [0x1F] MOVE_ENTITY: EventEntity moves to X=-64.004*, Z=81.361*, Y=-5.000*
 23: 0x0187 [0x1F] MOVE_ENTITY: Update entity position (mode=1)
 24: 0x0189 [0x1F] MOVE_ENTITY: EventEntity moves to X=-49.175*, Z=83.509*, Y=-4.999*
 25: 0x0191 [0x1F] MOVE_ENTITY: Update entity position (mode=1)
 26: 0x0193 [0x1F] MOVE_ENTITY: EventEntity moves to X=-39.708*, Z=89.827*, Y=-4.999*
 27: 0x019B [0x1F] MOVE_ENTITY: Update entity position (mode=1)
 28: 0x019D [0x1F] MOVE_ENTITY: EventEntity moves to X=-38.677*, Z=93.420*, Y=-4.999*
 29: 0x01A5 [0x1F] MOVE_ENTITY: Update entity position (mode=1)
 30: 0x01A7 [0x1F] MOVE_ENTITY: EventEntity moves to X=-38.282*, Z=99.163*, Y=-4.999*
 31: 0x01AF [0x1F] MOVE_ENTITY: Update entity position (mode=1)
 32: 0x01B1 [0x1F] MOVE_ENTITY: EventEntity moves to X=-40.133*, Z=167.579*, Y=-5.023*
 33: 0x01B9 [0x1F] MOVE_ENTITY: Update entity position (mode=1)
 34: 0x01BB [0x7E] CHOCOBO_MOUNT: Dismount 02 (ID: 17162782/0x0105E21E) (status = 0)
 35: 0x01C1 [0x22] ENTITY_HIDE_FLAG(enabled=0x01)
 36: 0x01C3 [0x2F] EventEntity->Render.Flags0 |= 0x80000 // Bit 19
 37: 0x01C9 [0x00] END_REQSTACK()
```

### Event 65535.12

#### Metadata

| Field        | Value    |
|--------------|----------|
| Entrypoint   | 0x01CA   |
| Data Size    | 83 bytes |
| Instructions | 18       |

```
      00 01 02 03 04 05 06 07  08 09 0A 0B 0C 0D 0E 0F
      -- -- -- -- -- -- -- --  -- -- -- -- -- -- -- --
01C0:                                59 04 25 E2 05 01            Y.%...
01D0: 3C 80 1F 00 3D 80 3E 80  22 80 1F 01 6F 59 04 F8  <...=.>."...oY..
01E0: FF FF 7F 3F 80 1F 00 40  80 41 80 22 80 1F 01 1F  ...?...@.A."....
01F0: 00 42 80 43 80 22 80 1F  01 1F 00 44 80 45 80 22  .B.C.".....D.E."
0200: 80 1F 01 1F 00 27 80 28  80 29 80 1F 01 6F 7E 05  .....'.(.)...o~.
0210: 25 E2 05 01 22 01 2F 01  F8 FF FF 7F 00           %..."./......   
```

#### Opcodes

```
  0: 0x01CA [0x59] UPDATE_ENTITY_DATA: Set Unnamed NPC (ID: 17162789/0x0105E225) main speed = 25* * 0.1
  1: 0x01D2 [0x1F] MOVE_ENTITY: EventEntity moves to X=-25.197*, Z=86.979*, Y=-4.999*
  2: 0x01DA [0x1F] MOVE_ENTITY: Update entity position (mode=1)
  3: 0x01DC [0x6F] WAIT_FRAME_DELAY: Yield until WaitTime reaches zero
  4: 0x01DD [0x59] UPDATE_ENTITY_DATA: Set EventEntity main speed = 78* * 0.1
  5: 0x01E5 [0x1F] MOVE_ENTITY: EventEntity moves to X=-32.985*, Z=94.399*, Y=-4.999*
  6: 0x01ED [0x1F] MOVE_ENTITY: Update entity position (mode=1)
  7: 0x01EF [0x1F] MOVE_ENTITY: EventEntity moves to X=-37.211*, Z=98.747*, Y=-4.999*
  8: 0x01F7 [0x1F] MOVE_ENTITY: Update entity position (mode=1)
  9: 0x01F9 [0x1F] MOVE_ENTITY: EventEntity moves to X=-38.522*, Z=107.127*, Y=-4.999*
 10: 0x0201 [0x1F] MOVE_ENTITY: Update entity position (mode=1)
 11: 0x0203 [0x1F] MOVE_ENTITY: EventEntity moves to X=-40.133*, Z=167.579*, Y=-5.023*
 12: 0x020B [0x1F] MOVE_ENTITY: Update entity position (mode=1)
 13: 0x020D [0x6F] WAIT_FRAME_DELAY: Yield until WaitTime reaches zero
 14: 0x020E [0x7E] CHOCOBO_MOUNT: Dismount Unnamed NPC (ID: 17162789/0x0105E225) (status = 0)
 15: 0x0214 [0x22] ENTITY_HIDE_FLAG(enabled=0x01)
 16: 0x0216 [0x2F] EventEntity->Render.Flags0 |= 0x80000 // Bit 19
 17: 0x021C [0x00] END_REQSTACK()
```

### Event 65535.13

#### Metadata

| Field        | Value     |
|--------------|-----------|
| Entrypoint   | 0x021D    |
| Data Size    | 154 bytes |
| Instructions | 32        |

```
      00 01 02 03 04 05 06 07  08 09 0A 0B 0C 0D 0E 0F
      -- -- -- -- -- -- -- --  -- -- -- -- -- -- -- --
0210:                                         59 04 26               Y.&
0220: E2 05 01 09 80 1F 00 46  80 47 80 48 80 1F 01 1F  .......F.G.H....
0230: 00 49 80 4A 80 48 80 1F  01 1F 00 4B 80 4C 80 48  .I.J.H.....K.L.H
0240: 80 1F 01 1F 00 13 80 14  80 15 80 1F 01 1F 00 16  ................
0250: 80 17 80 15 80 1F 01 1F  00 18 80 19 80 15 80 1F  ................
0260: 01 1F 00 1A 80 1B 80 15  80 1F 01 1F 00 1C 80 1D  ................
0270: 80 15 80 1F 01 1F 00 1E  80 1F 80 06 80 1F 01 1F  ................
0280: 00 20 80 21 80 22 80 1F  01 1F 00 23 80 24 80 22  . .!.".....#.$."
0290: 80 1F 01 1F 00 25 80 26  80 22 80 1F 01 1F 00 27  .....%.&.".....'
02A0: 80 28 80 29 80 1F 01 6F  7E 05 26 E2 05 01 22 01  .(.)...o~.&...".
02B0: 2F 01 F8 FF FF 7F 00                              /......         
```

#### Opcodes

```
  0: 0x021D [0x59] UPDATE_ENTITY_DATA: Set Unnamed NPC (ID: 17162790/0x0105E226) main speed = 80* * 0.1
  1: 0x0225 [0x1F] MOVE_ENTITY: EventEntity moves to X=-6.086*, Z=31.136*, Y=-0.999*
  2: 0x022D [0x1F] MOVE_ENTITY: Update entity position (mode=1)
  3: 0x022F [0x1F] MOVE_ENTITY: EventEntity moves to X=-8.016*, Z=35.131*, Y=-0.999*
  4: 0x0237 [0x1F] MOVE_ENTITY: Update entity position (mode=1)
  5: 0x0239 [0x1F] MOVE_ENTITY: EventEntity moves to X=-11.617*, Z=38.998*, Y=-0.999*
  6: 0x0241 [0x1F] MOVE_ENTITY: Update entity position (mode=1)
  7: 0x0243 [0x1F] MOVE_ENTITY: EventEntity moves to X=-51.141*, Z=38.746*, Y=-3.499*
  8: 0x024B [0x1F] MOVE_ENTITY: Update entity position (mode=1)
  9: 0x024D [0x1F] MOVE_ENTITY: EventEntity moves to X=-63.152*, Z=42.731*, Y=-3.499*
 10: 0x0255 [0x1F] MOVE_ENTITY: Update entity position (mode=1)
 11: 0x0257 [0x1F] MOVE_ENTITY: EventEntity moves to X=-73.075*, Z=51.803*, Y=-3.499*
 12: 0x025F [0x1F] MOVE_ENTITY: Update entity position (mode=1)
 13: 0x0261 [0x1F] MOVE_ENTITY: EventEntity moves to X=-78.613*, Z=59.364*, Y=-3.499*
 14: 0x0269 [0x1F] MOVE_ENTITY: Update entity position (mode=1)
 15: 0x026B [0x1F] MOVE_ENTITY: EventEntity moves to X=-76.580*, Z=75.410*, Y=-3.499*
 16: 0x0273 [0x1F] MOVE_ENTITY: Update entity position (mode=1)
 17: 0x0275 [0x1F] MOVE_ENTITY: EventEntity moves to X=-64.004*, Z=81.361*, Y=-5.000*
 18: 0x027D [0x1F] MOVE_ENTITY: Update entity position (mode=1)
 19: 0x027F [0x1F] MOVE_ENTITY: EventEntity moves to X=-49.175*, Z=83.509*, Y=-4.999*
 20: 0x0287 [0x1F] MOVE_ENTITY: Update entity position (mode=1)
 21: 0x0289 [0x1F] MOVE_ENTITY: EventEntity moves to X=-42.767*, Z=87.755*, Y=-4.999*
 22: 0x0291 [0x1F] MOVE_ENTITY: Update entity position (mode=1)
 23: 0x0293 [0x1F] MOVE_ENTITY: EventEntity moves to X=-41.067*, Z=92.184*, Y=-4.999*
 24: 0x029B [0x1F] MOVE_ENTITY: Update entity position (mode=1)
 25: 0x029D [0x1F] MOVE_ENTITY: EventEntity moves to X=-40.133*, Z=167.579*, Y=-5.023*
 26: 0x02A5 [0x1F] MOVE_ENTITY: Update entity position (mode=1)
 27: 0x02A7 [0x6F] WAIT_FRAME_DELAY: Yield until WaitTime reaches zero
 28: 0x02A8 [0x7E] CHOCOBO_MOUNT: Dismount Unnamed NPC (ID: 17162790/0x0105E226) (status = 0)
 29: 0x02AE [0x22] ENTITY_HIDE_FLAG(enabled=0x01)
 30: 0x02B0 [0x2F] EventEntity->Render.Flags0 |= 0x80000 // Bit 19
 31: 0x02B6 [0x00] END_REQSTACK()
```

### Event 65535.14

#### Metadata

| Field        | Value     |
|--------------|-----------|
| Entrypoint   | 0x02B7    |
| Data Size    | 167 bytes |
| Instructions | 35        |

```
      00 01 02 03 04 05 06 07  08 09 0A 0B 0C 0D 0E 0F
      -- -- -- -- -- -- -- --  -- -- -- -- -- -- -- --
02B0:                      1C  4D 80 59 04 27 E2 05 01         .M.Y.'...
02C0: 3F 80 1F 00 4E 80 4F 80  48 80 1F 01 1F 00 50 80  ?...N.O.H.....P.
02D0: 51 80 48 80 1F 01 1F 00  52 80 53 80 48 80 1F 01  Q.H.....R.S.H...
02E0: 1F 00 13 80 14 80 15 80  1F 01 1F 00 16 80 17 80  ................
02F0: 15 80 1F 01 1F 00 18 80  19 80 15 80 1F 01 1F 00  ................
0300: 1A 80 1B 80 15 80 1F 01  1F 00 1C 80 1D 80 15 80  ................
0310: 1F 01 1F 00 1E 80 1F 80  06 80 1F 01 1F 00 20 80  .............. .
0320: 21 80 22 80 1F 01 1F 00  36 80 37 80 22 80 1F 01  !.".....6.7."...
0330: 1F 00 38 80 39 80 22 80  1F 01 1F 00 3A 80 3B 80  ..8.9.".....:.;.
0340: 22 80 1F 01 1F 00 27 80  28 80 29 80 1F 01 6F 7E  ".....'.(.)...o~
0350: 05 27 E2 05 01 22 01 2F  01 F8 FF FF 7F 00        .'..."./......  
```

#### Opcodes

```
  0: 0x02B7 [0x1C] WAIT(180* ticks)
  1: 0x02BA [0x59] UPDATE_ENTITY_DATA: Set Unnamed NPC (ID: 17162791/0x0105E227) main speed = 78* * 0.1
  2: 0x02C2 [0x1F] MOVE_ENTITY: EventEntity moves to X=-1.740*, Z=31.643*, Y=-0.999*
  3: 0x02CA [0x1F] MOVE_ENTITY: Update entity position (mode=1)
  4: 0x02CC [0x1F] MOVE_ENTITY: EventEntity moves to X=-4.175*, Z=36.997*, Y=-0.999*
  5: 0x02D4 [0x1F] MOVE_ENTITY: Update entity position (mode=1)
  6: 0x02D6 [0x1F] MOVE_ENTITY: EventEntity moves to X=-8.672*, Z=40.970*, Y=-0.999*
  7: 0x02DE [0x1F] MOVE_ENTITY: Update entity position (mode=1)
  8: 0x02E0 [0x1F] MOVE_ENTITY: EventEntity moves to X=-51.141*, Z=38.746*, Y=-3.499*
  9: 0x02E8 [0x1F] MOVE_ENTITY: Update entity position (mode=1)
 10: 0x02EA [0x1F] MOVE_ENTITY: EventEntity moves to X=-63.152*, Z=42.731*, Y=-3.499*
 11: 0x02F2 [0x1F] MOVE_ENTITY: Update entity position (mode=1)
 12: 0x02F4 [0x1F] MOVE_ENTITY: EventEntity moves to X=-73.075*, Z=51.803*, Y=-3.499*
 13: 0x02FC [0x1F] MOVE_ENTITY: Update entity position (mode=1)
 14: 0x02FE [0x1F] MOVE_ENTITY: EventEntity moves to X=-78.613*, Z=59.364*, Y=-3.499*
 15: 0x0306 [0x1F] MOVE_ENTITY: Update entity position (mode=1)
 16: 0x0308 [0x1F] MOVE_ENTITY: EventEntity moves to X=-76.580*, Z=75.410*, Y=-3.499*
 17: 0x0310 [0x1F] MOVE_ENTITY: Update entity position (mode=1)
 18: 0x0312 [0x1F] MOVE_ENTITY: EventEntity moves to X=-64.004*, Z=81.361*, Y=-5.000*
 19: 0x031A [0x1F] MOVE_ENTITY: Update entity position (mode=1)
 20: 0x031C [0x1F] MOVE_ENTITY: EventEntity moves to X=-49.175*, Z=83.509*, Y=-4.999*
 21: 0x0324 [0x1F] MOVE_ENTITY: Update entity position (mode=1)
 22: 0x0326 [0x1F] MOVE_ENTITY: EventEntity moves to X=-39.708*, Z=89.827*, Y=-4.999*
 23: 0x032E [0x1F] MOVE_ENTITY: Update entity position (mode=1)
 24: 0x0330 [0x1F] MOVE_ENTITY: EventEntity moves to X=-38.677*, Z=93.420*, Y=-4.999*
 25: 0x0338 [0x1F] MOVE_ENTITY: Update entity position (mode=1)
 26: 0x033A [0x1F] MOVE_ENTITY: EventEntity moves to X=-38.282*, Z=99.163*, Y=-4.999*
 27: 0x0342 [0x1F] MOVE_ENTITY: Update entity position (mode=1)
 28: 0x0344 [0x1F] MOVE_ENTITY: EventEntity moves to X=-40.133*, Z=167.579*, Y=-5.023*
 29: 0x034C [0x1F] MOVE_ENTITY: Update entity position (mode=1)
 30: 0x034E [0x6F] WAIT_FRAME_DELAY: Yield until WaitTime reaches zero
 31: 0x034F [0x7E] CHOCOBO_MOUNT: Dismount Unnamed NPC (ID: 17162791/0x0105E227) (status = 0)
 32: 0x0355 [0x22] ENTITY_HIDE_FLAG(enabled=0x01)
 33: 0x0357 [0x2F] EventEntity->Render.Flags0 |= 0x80000 // Bit 19
 34: 0x035D [0x00] END_REQSTACK()
```

### Event 65535.15

#### Metadata

| Field        | Value    |
|--------------|----------|
| Entrypoint   | 0x035E   |
| Data Size    | 69 bytes |
| Instructions | 15       |

```
      00 01 02 03 04 05 06 07  08 09 0A 0B 0C 0D 0E 0F
      -- -- -- -- -- -- -- --  -- -- -- -- -- -- -- --
0350:                                            1C 54                .T
0360: 80 59 04 94 E2 05 01 55  80 1F 00 56 80 57 80 58  .Y.....U...V.W.X
0370: 80 1F 01 1F 00 59 80 5A  80 58 80 1F 01 59 04 F8  .....Y.Z.X...Y..
0380: FF FF 7F 03 80 1F 00 5B  80 5C 80 58 80 1F 01 1F  .......[.\.X....
0390: 00 5D 80 5E 80 15 80 1F  01 6F 22 01 2F 01 F8 FF  .].^.....o"./...
03A0: FF 7F 00                                          ...             
```

#### Opcodes

```
  0: 0x035E [0x1C] WAIT(360* ticks)
  1: 0x0361 [0x59] UPDATE_ENTITY_DATA: Set 02 (ID: 17162900/0x0105E294) main speed = 15* * 0.1
  2: 0x0369 [0x1F] MOVE_ENTITY: EventEntity moves to X=-26.970*, Z=63.607*, Y=-3.500*
  3: 0x0371 [0x1F] MOVE_ENTITY: Update entity position (mode=1)
  4: 0x0373 [0x1F] MOVE_ENTITY: EventEntity moves to X=-25.762*, Z=63.002*, Y=-3.500*
  5: 0x037B [0x1F] MOVE_ENTITY: Update entity position (mode=1)
  6: 0x037D [0x59] UPDATE_ENTITY_DATA: Set EventEntity main speed = 40* * 0.1
  7: 0x0385 [0x1F] MOVE_ENTITY: EventEntity moves to X=-47.406*, Z=58.894*, Y=-3.500*
  8: 0x038D [0x1F] MOVE_ENTITY: Update entity position (mode=1)
  9: 0x038F [0x1F] MOVE_ENTITY: EventEntity moves to X=-56.954*, Z=53.463*, Y=-3.499*
 10: 0x0397 [0x1F] MOVE_ENTITY: Update entity position (mode=1)
 11: 0x0399 [0x6F] WAIT_FRAME_DELAY: Yield until WaitTime reaches zero
 12: 0x039A [0x22] ENTITY_HIDE_FLAG(enabled=0x01)
 13: 0x039C [0x2F] EventEntity->Render.Flags0 |= 0x80000 // Bit 19
 14: 0x03A2 [0x00] END_REQSTACK()
```

### Event 65535.16

#### Metadata

| Field        | Value    |
|--------------|----------|
| Entrypoint   | 0x03A3   |
| Data Size    | 38 bytes |
| Instructions | 9        |

```
      00 01 02 03 04 05 06 07  08 09 0A 0B 0C 0D 0E 0F
      -- -- -- -- -- -- -- --  -- -- -- -- -- -- -- --
03A0:          59 04 F8 FF FF  7F 5F 80 1F 00 60 80 61     Y....._...`.a
03B0: 80 62 80 1F 01 1F 00 63  80 64 80 58 80 1F 01 6F  .b.....c.d.X...o
03C0: 22 01 2F 01 F8 FF FF 7F  00                       "./......       
```

#### Opcodes

```
  0: 0x03A3 [0x59] UPDATE_ENTITY_DATA: Set EventEntity main speed = 27* * 0.1
  1: 0x03AB [0x1F] MOVE_ENTITY: EventEntity moves to X=-30.382*, Z=74.601*, Y=-3.574*
  2: 0x03B3 [0x1F] MOVE_ENTITY: Update entity position (mode=1)
  3: 0x03B5 [0x1F] MOVE_ENTITY: EventEntity moves to X=-54.461*, Z=69.456*, Y=-3.500*
  4: 0x03BD [0x1F] MOVE_ENTITY: Update entity position (mode=1)
  5: 0x03BF [0x6F] WAIT_FRAME_DELAY: Yield until WaitTime reaches zero
  6: 0x03C0 [0x22] ENTITY_HIDE_FLAG(enabled=0x01)
  7: 0x03C2 [0x2F] EventEntity->Render.Flags0 |= 0x80000 // Bit 19
  8: 0x03C8 [0x00] END_REQSTACK()
```

### Event 65535.17

#### Metadata

| Field        | Value    |
|--------------|----------|
| Entrypoint   | 0x03C9   |
| Data Size    | 38 bytes |
| Instructions | 9        |

```
      00 01 02 03 04 05 06 07  08 09 0A 0B 0C 0D 0E 0F
      -- -- -- -- -- -- -- --  -- -- -- -- -- -- -- --
03C0:                             59 04 F8 FF FF 7F 5F           Y....._
03D0: 80 1F 00 65 80 66 80 67  80 1F 01 1F 00 68 80 69  ...e.f.g.....h.i
03E0: 80 58 80 1F 01 6F 22 01  2F 01 F8 FF FF 7F 00     .X...o"./...... 
```

#### Opcodes

```
  0: 0x03C9 [0x59] UPDATE_ENTITY_DATA: Set EventEntity main speed = 27* * 0.1
  1: 0x03D1 [0x1F] MOVE_ENTITY: EventEntity moves to X=-29.325*, Z=75.371*, Y=-3.529*
  2: 0x03D9 [0x1F] MOVE_ENTITY: Update entity position (mode=1)
  3: 0x03DB [0x1F] MOVE_ENTITY: EventEntity moves to X=-53.209*, Z=70.575*, Y=-3.500*
  4: 0x03E3 [0x1F] MOVE_ENTITY: Update entity position (mode=1)
  5: 0x03E5 [0x6F] WAIT_FRAME_DELAY: Yield until WaitTime reaches zero
  6: 0x03E6 [0x22] ENTITY_HIDE_FLAG(enabled=0x01)
  7: 0x03E8 [0x2F] EventEntity->Render.Flags0 |= 0x80000 // Bit 19
  8: 0x03EE [0x00] END_REQSTACK()
```

### Event 65535.18

#### Metadata

| Field        | Value    |
|--------------|----------|
| Entrypoint   | 0x03EF   |
| Data Size    | 48 bytes |
| Instructions | 11       |

```
      00 01 02 03 04 05 06 07  08 09 0A 0B 0C 0D 0E 0F
      -- -- -- -- -- -- -- --  -- -- -- -- -- -- -- --
03E0:                                               59                 Y
03F0: 04 F8 FF FF 7F 5F 80 1F  00 6A 80 6B 80 6C 80 1F  ....._...j.k.l..
0400: 01 1F 00 6D 80 6E 80 58  80 1F 01 1F 00 6F 80 70  ...m.n.X.....o.p
0410: 80 58 80 1F 01 6F 22 01  2F 01 F8 FF FF 7F 00     .X...o"./...... 
```

#### Opcodes

```
  0: 0x03EF [0x59] UPDATE_ENTITY_DATA: Set EventEntity main speed = 27* * 0.1
  1: 0x03F7 [0x1F] MOVE_ENTITY: EventEntity moves to X=-27.766*, Z=73.600*, Y=-3.414*
  2: 0x03FF [0x1F] MOVE_ENTITY: Update entity position (mode=1)
  3: 0x0401 [0x1F] MOVE_ENTITY: EventEntity moves to X=-52.430*, Z=73.638*, Y=-3.500*
  4: 0x0409 [0x1F] MOVE_ENTITY: Update entity position (mode=1)
  5: 0x040B [0x1F] MOVE_ENTITY: EventEntity moves to X=-54.193*, Z=72.044*, Y=-3.500*
  6: 0x0413 [0x1F] MOVE_ENTITY: Update entity position (mode=1)
  7: 0x0415 [0x6F] WAIT_FRAME_DELAY: Yield until WaitTime reaches zero
  8: 0x0416 [0x22] ENTITY_HIDE_FLAG(enabled=0x01)
  9: 0x0418 [0x2F] EventEntity->Render.Flags0 |= 0x80000 // Bit 19
 10: 0x041E [0x00] END_REQSTACK()
```

### Event 65535.19

#### Metadata

| Field        | Value    |
|--------------|----------|
| Entrypoint   | 0x041F   |
| Data Size    | 19 bytes |
| Instructions | 4        |

```
      00 01 02 03 04 05 06 07  08 09 0A 0B 0C 0D 0E 0F
      -- -- -- -- -- -- -- --  -- -- -- -- -- -- -- --
0410:                                               59                 Y
0420: 04 F8 FF FF 7F 71 80 1F  00 72 80 73 80 06 80 1F  .....q...r.s....
0430: 01 00                                             ..              
```

#### Opcodes

```
  0: 0x041F [0x59] UPDATE_ENTITY_DATA: Set EventEntity main speed = 42* * 0.1
  1: 0x0427 [0x1F] MOVE_ENTITY: EventEntity moves to X=-22.678*, Z=81.353*, Y=-5.000*
  2: 0x042F [0x1F] MOVE_ENTITY: Update entity position (mode=1)
  3: 0x0431 [0x00] END_REQSTACK()
```

### Event 65535.20

#### Metadata

| Field        | Value    |
|--------------|----------|
| Entrypoint   | 0x0432   |
| Data Size    | 22 bytes |
| Instructions | 5        |

```
      00 01 02 03 04 05 06 07  08 09 0A 0B 0C 0D 0E 0F
      -- -- -- -- -- -- -- --  -- -- -- -- -- -- -- --
0430:       59 04 F8 FF FF 7F  71 80 1C 74 80 1F 00 72    Y.....q..t...r
0440: 80 73 80 06 80 1F 01 00                           .s......        
```

#### Opcodes

```
  0: 0x0432 [0x59] UPDATE_ENTITY_DATA: Set EventEntity main speed = 42* * 0.1
  1: 0x043A [0x1C] WAIT(60* ticks)
  2: 0x043D [0x1F] MOVE_ENTITY: EventEntity moves to X=-22.678*, Z=81.353*, Y=-5.000*
  3: 0x0445 [0x1F] MOVE_ENTITY: Update entity position (mode=1)
  4: 0x0447 [0x00] END_REQSTACK()
```

### Event 65535.21

#### Metadata

| Field        | Value    |
|--------------|----------|
| Entrypoint   | 0x0448   |
| Data Size    | 22 bytes |
| Instructions | 5        |

```
      00 01 02 03 04 05 06 07  08 09 0A 0B 0C 0D 0E 0F
      -- -- -- -- -- -- -- --  -- -- -- -- -- -- -- --
0440:                          59 04 F8 FF FF 7F 71 80          Y.....q.
0450: 1C 75 80 1F 00 72 80 73  80 06 80 1F 01 00        .u...r.s......  
```

#### Opcodes

```
  0: 0x0448 [0x59] UPDATE_ENTITY_DATA: Set EventEntity main speed = 42* * 0.1
  1: 0x0450 [0x1C] WAIT(120* ticks)
  2: 0x0453 [0x1F] MOVE_ENTITY: EventEntity moves to X=-22.678*, Z=81.353*, Y=-5.000*
  3: 0x045B [0x1F] MOVE_ENTITY: Update entity position (mode=1)
  4: 0x045D [0x00] END_REQSTACK()
```

### Event 65535.22

#### Metadata

| Field        | Value    |
|--------------|----------|
| Entrypoint   | 0x045E   |
| Data Size    | 13 bytes |
| Instructions | 5        |

```
      00 01 02 03 04 05 06 07  08 09 0A 0B 0C 0D 0E 0F
      -- -- -- -- -- -- -- --  -- -- -- -- -- -- -- --
0450:                                            06 08                ..
0460: 10 1C 76 80 1C 77 80 05  08 10 00                 ..v..w.....     
```

#### Opcodes

```
  0: 0x045E [0x06] Work_Zone[8] = 0
  1: 0x0461 [0x1C] WAIT(600* ticks)
  2: 0x0464 [0x1C] WAIT(5* ticks)
  3: 0x0467 [0x05] Work_Zone[8] = 1
  4: 0x046A [0x00] END_REQSTACK()
```

### Event 65535.23

#### Metadata

| Field        | Value     |
|--------------|-----------|
| Entrypoint   | 0x046B    |
| Data Size    | 221 bytes |
| Instructions | 26        |

```
      00 01 02 03 04 05 06 07  08 09 0A 0B 0C 0D 0E 0F
      -- -- -- -- -- -- -- --  -- -- -- -- -- -- -- --
0460:                                   06 09 10 1C 2A             ....*
0470: 80 52 78 80 F0 FF FF 7F  F0 FF FF 7F 79 30 34 32  .Rx.........y042
0480: 45 78 80 1E E2 05 01 1E  E2 05 01 79 30 34 35 00  Ex.........y045.
0490: 80 1C 79 80 52 78 80 1E  E2 05 01 1E E2 05 01 79  ..y.Rx.........y
04A0: 30 34 35 45 78 80 F0 FF  FF 7F F0 FF FF 7F 79 30  045Ex.........y0
04B0: 35 32 00 80 27 10 93 E2  05 01 0C 27 10 95 E2 05  52..'......'....
04C0: 01 0C BA 44 E2 05 01 7A  80 7B 80 15 80 7C 80 BA  ...D...z.{...|..
04D0: 45 E2 05 01 7A 80 7B 80  15 80 7C 80 BA 46 E2 05  E...z.{...|..F..
04E0: 01 7A 80 7B 80 15 80 7C  80 29 10 23 E2 05 01 02  .z.{...|.).#....
04F0: 29 10 24 E2 05 01 02 79  00 28 E2 05 01 20 E2 05  ).$....y.(... ..
0500: 01 66 7D 80 28 E2 05 01  28 E2 05 01 74 6C 6B 30  .f}.(...(...tlk0
0510: 27 10 FE E2 05 01 0F 27  10 FF E2 05 01 10 27 10  '......'......'.
0520: 00 E3 05 01 11 1C 77 80  27 10 44 E2 05 01 13 27  ......w.'.D....'
0530: 10 45 E2 05 01 15 27 10  46 E2 05 01 16 27 10 11  .E....'.F....'..
0540: E3 05 01 12 05 09 10 00                           ........        
```

#### Opcodes

```
  0: 0x046B [0x06] Work_Zone[9] = 0
  1: 0x046E [0x1C] WAIT(150* ticks)
  2: 0x0471 [0x52] END_LOAD_SCHEDULER: End scheduler "y042" with entities [LocalPlayer, LocalPlayer], work=533*
  3: 0x0480 [0x45] LOAD_SCHEDULED_TASK: Load scheduler "y045" with entities [02 (ID: 17162782/0x0105E21E), 02 (ID: 17162782/0x0105E21E)], work=[533*, 0*]
  4: 0x0491 [0x1C] WAIT(300* ticks)
  5: 0x0494 [0x52] END_LOAD_SCHEDULER: End scheduler "y045" with entities [02 (ID: 17162782/0x0105E21E), 02 (ID: 17162782/0x0105E21E)], work=533*
  6: 0x04A3 [0x45] LOAD_SCHEDULED_TASK: Load scheduler "y052" with entities [LocalPlayer, LocalPlayer], work=[533*, 0*]
  7: 0x04B4 [0x27] REQ_SET(priority=0x10, entity_id=01 (ID: 17162899/0x0105E293), tag_num=0x0C)
  8: 0x04BB [0x27] REQ_SET(priority=0x10, entity_id=02 (ID: 17162901/0x0105E295), tag_num=0x0C)
  9: 0x04C2 [0xBA] SET_ENTITY_POSITION(entity_id=02 (ID: 17162820/0x0105E244), pos_x=-60.989*, pos_z=70.254*, pos_y=-3.499*, direction=359.7°*)
 10: 0x04CF [0xBA] SET_ENTITY_POSITION(entity_id=03 (ID: 17162821/0x0105E245), pos_x=-60.989*, pos_z=70.254*, pos_y=-3.499*, direction=359.7°*)
 11: 0x04DC [0xBA] SET_ENTITY_POSITION(entity_id=04 (ID: 17162822/0x0105E246), pos_x=-60.989*, pos_z=70.254*, pos_y=-3.499*, direction=359.7°*)
 12: 0x04E9 [0x29] REQ_SET_WAIT(priority=0x10, entity_id=07 (ID: 17162787/0x0105E223), tag_num=0x02)
 13: 0x04F0 [0x29] REQ_SET_WAIT(priority=0x10, entity_id=Unnamed NPC (ID: 17162788/0x0105E224), tag_num=0x02)
 14: 0x04F7 [0x79] Unnamed NPC (ID: 17162792/0x0105E228) looks at 04 (ID: 17162784/0x0105E220) (Basic look)
 15: 0x0501 [0x66] LOAD_EXT_SCHEDULER_MAIN: Load scheduler "tlk0" with entities [Unnamed NPC (ID: 17162792/0x0105E228), Unnamed NPC (ID: 17162792/0x0105E228)], work=49*
 16: 0x0510 [0x27] REQ_SET(priority=0x10, entity_id=01 (ID: 17163006/0x0105E2FE), tag_num=0x0F)
 17: 0x0517 [0x27] REQ_SET(priority=0x10, entity_id=02 (ID: 17163007/0x0105E2FF), tag_num=0x10)
 18: 0x051E [0x27] REQ_SET(priority=0x10, entity_id=03 (ID: 17163008/0x0105E300), tag_num=0x11)
 19: 0x0525 [0x1C] WAIT(5* ticks)
 20: 0x0528 [0x27] REQ_SET(priority=0x10, entity_id=02 (ID: 17162820/0x0105E244), tag_num=0x13)
 21: 0x052F [0x27] REQ_SET(priority=0x10, entity_id=03 (ID: 17162821/0x0105E245), tag_num=0x15)
 22: 0x0536 [0x27] REQ_SET(priority=0x10, entity_id=04 (ID: 17162822/0x0105E246), tag_num=0x16)
 23: 0x053D [0x27] REQ_SET(priority=0x10, entity_id=Unnamed NPC (ID: 17163025/0x0105E311), tag_num=0x12)
 24: 0x0544 [0x05] Work_Zone[9] = 1
 25: 0x0547 [0x00] END_REQSTACK()
```

### Event 65535.24

#### Metadata

| Field        | Value    |
|--------------|----------|
| Entrypoint   | 0x0548   |
| Data Size    | 76 bytes |
| Instructions | 8        |

```
      00 01 02 03 04 05 06 07  08 09 0A 0B 0C 0D 0E 0F
      -- -- -- -- -- -- -- --  -- -- -- -- -- -- -- --
0540:                          06 08 10 55 78 80 F0 FF          ...Ux...
0550: FF 7F F0 FF FF 7F 79 30  35 32 52 78 80 F0 FF FF  ......y052Rx....
0560: 7F F0 FF FF 7F 79 30 35  32 27 10 1F E2 05 01 09  .....y052'......
0570: 45 78 80 F0 FF FF 7F F0  FF FF 7F 79 30 35 34 00  Ex.........y054.
0580: 80 05 08 10 55 78 80 F0  FF FF 7F F0 FF FF 7F 79  ....Ux.........y
0590: 30 35 34 00                                       054.            
```

#### Opcodes

```
  0: 0x0548 [0x06] Work_Zone[8] = 0
  1: 0x054B [0x55] WAIT_LOAD_SCHEDULER: Wait for scheduler "y052" with entities [LocalPlayer, LocalPlayer], work=533*
  2: 0x055A [0x52] END_LOAD_SCHEDULER: End scheduler "y052" with entities [LocalPlayer, LocalPlayer], work=533*
  3: 0x0569 [0x27] REQ_SET(priority=0x10, entity_id=03 (ID: 17162783/0x0105E21F), tag_num=0x09)
  4: 0x0570 [0x45] LOAD_SCHEDULED_TASK: Load scheduler "y054" with entities [LocalPlayer, LocalPlayer], work=[533*, 0*]
  5: 0x0581 [0x05] Work_Zone[8] = 1
  6: 0x0584 [0x55] WAIT_LOAD_SCHEDULER: Wait for scheduler "y054" with entities [LocalPlayer, LocalPlayer], work=533*
  7: 0x0593 [0x00] END_REQSTACK()
```

### Event 65535.25

#### Metadata

| Field        | Value    |
|--------------|----------|
| Entrypoint   | 0x0594   |
| Data Size    | 49 bytes |
| Instructions | 5        |

```
      00 01 02 03 04 05 06 07  08 09 0A 0B 0C 0D 0E 0F
      -- -- -- -- -- -- -- --  -- -- -- -- -- -- -- --
0590:             7B 06 E2 05  01 5B 7E 80 06 E2 05 01      {....[~.....
05A0: 06 E2 05 01 6B 75 69 30  53 06 E2 05 01 06 E2 05  ....kui0S.......
05B0: 01 6B 75 69 30 5B 7E 80  06 E2 05 01 06 E2 05 01  .kui0[~.........
05C0: 65 68 6E 30 00                                    ehn0.           
```

#### Opcodes

```
  0: 0x0594 [0x7B] Ajido-Marujido (ID: 17162758/0x0105E206) stops talking
  1: 0x0599 [0x5B] LOAD_EXT_SCHEDULER: Load scheduler "kui0" with entities [Ajido-Marujido (ID: 17162758/0x0105E206), Ajido-Marujido (ID: 17162758/0x0105E206)], work=1288*
  2: 0x05A8 [0x53] WAIT_SCHEDULER_TASK: Wait for scheduler "kui0" with entities [Ajido-Marujido (ID: 17162758/0x0105E206), Ajido-Marujido (ID: 17162758/0x0105E206)]
  3: 0x05B5 [0x5B] LOAD_EXT_SCHEDULER: Load scheduler "ehn0" with entities [Ajido-Marujido (ID: 17162758/0x0105E206), Ajido-Marujido (ID: 17162758/0x0105E206)], work=1288*
  4: 0x05C4 [0x00] END_REQSTACK()
```

### Event 65535.26

#### Metadata

| Field        | Value    |
|--------------|----------|
| Entrypoint   | 0x05C5   |
| Data Size    | 29 bytes |
| Instructions | 6        |

```
      00 01 02 03 04 05 06 07  08 09 0A 0B 0C 0D 0E 0F
      -- -- -- -- -- -- -- --  -- -- -- -- -- -- -- --
05C0:                59 04 F8  FF FF 7F 03 80 1F 00 7F       Y..........
05D0: 80 80 80 0C 80 1F 01 6F  4A 43 E2 05 01 06 E2 05  .......oJC......
05E0: 01 00                                             ..              
```

#### Opcodes

```
  0: 0x05C5 [0x59] UPDATE_ENTITY_DATA: Set EventEntity main speed = 40* * 0.1
  1: 0x05CD [0x1F] MOVE_ENTITY: EventEntity moves to X=-5.296*, Z=12.328*, Y=-1.000*
  2: 0x05D5 [0x1F] MOVE_ENTITY: Update entity position (mode=1)
  3: 0x05D7 [0x6F] WAIT_FRAME_DELAY: Yield until WaitTime reaches zero
  4: 0x05D8 [0x4A] 01 (ID: 17162819/0x0105E243) looks at Ajido-Marujido (ID: 17162758/0x0105E206)
  5: 0x05E1 [0x00] END_REQSTACK()
```

### Event 65535.27

#### Metadata

| Field        | Value    |
|--------------|----------|
| Entrypoint   | 0x05E2   |
| Data Size    | 49 bytes |
| Instructions | 7        |

```
      00 01 02 03 04 05 06 07  08 09 0A 0B 0C 0D 0E 0F
      -- -- -- -- -- -- -- --  -- -- -- -- -- -- -- --
05E0:       1C 81 80 5B 7E 80  06 E2 05 01 06 E2 05 01    ...[~.........
05F0: 65 68 6E 31 4A 06 E2 05  01 43 E2 05 01 6F 76 06  ehn1J....C...ov.
0600: E2 05 01 5B 82 80 06 E2  05 01 06 E2 05 01 73 75  ...[..........su
0610: 72 30 00                                          r0.             
```

#### Opcodes

```
  0: 0x05E2 [0x1C] WAIT(160* ticks)
  1: 0x05E5 [0x5B] LOAD_EXT_SCHEDULER: Load scheduler "ehn1" with entities [Ajido-Marujido (ID: 17162758/0x0105E206), Ajido-Marujido (ID: 17162758/0x0105E206)], work=1288*
  2: 0x05F4 [0x4A] Ajido-Marujido (ID: 17162758/0x0105E206) looks at 01 (ID: 17162819/0x0105E243)
  3: 0x05FD [0x6F] WAIT_FRAME_DELAY: Yield until WaitTime reaches zero
  4: 0x05FE [0x76] CHECK_ENTITY_RENDER_FLAGS: Wait until Ajido-Marujido (ID: 17162758/0x0105E206) Render.Flags0 and Render.Flags3 conditions are met
  5: 0x0603 [0x5B] LOAD_EXT_SCHEDULER: Load scheduler "sur0" with entities [Ajido-Marujido (ID: 17162758/0x0105E206), Ajido-Marujido (ID: 17162758/0x0105E206)], work=85*
  6: 0x0612 [0x00] END_REQSTACK()
```

### Event 65535.28

#### Metadata

| Field        | Value    |
|--------------|----------|
| Entrypoint   | 0x0613   |
| Data Size    | 20 bytes |
| Instructions | 5        |

```
      00 01 02 03 04 05 06 07  08 09 0A 0B 0C 0D 0E 0F
      -- -- -- -- -- -- -- --  -- -- -- -- -- -- -- --
0610:          59 04 F8 FF FF  7F 83 80 1F 00 84 80 85     Y............
0620: 80 0C 80 1F 01 6F 00                              .....o.         
```

#### Opcodes

```
  0: 0x0613 [0x59] UPDATE_ENTITY_DATA: Set EventEntity main speed = 7* * 0.1
  1: 0x061B [0x1F] MOVE_ENTITY: EventEntity moves to X=-0.307*, Z=13.248*, Y=-1.000*
  2: 0x0623 [0x1F] MOVE_ENTITY: Update entity position (mode=1)
  3: 0x0625 [0x6F] WAIT_FRAME_DELAY: Yield until WaitTime reaches zero
  4: 0x0626 [0x00] END_REQSTACK()
```

### Event 65535.29

#### Metadata

| Field        | Value    |
|--------------|----------|
| Entrypoint   | 0x0627   |
| Data Size    | 47 bytes |
| Instructions | 6        |

```
      00 01 02 03 04 05 06 07  08 09 0A 0B 0C 0D 0E 0F
      -- -- -- -- -- -- -- --  -- -- -- -- -- -- -- --
0620:                      5B  82 80 06 E2 05 01 06 E2         [........
0630: 05 01 73 75 72 30 53 06  E2 05 01 06 E2 05 01 73  ..sur0S........s
0640: 75 72 30 59 04 F8 FF FF  7F 86 80 1F 00 87 80 88  ur0Y............
0650: 80 48 80 1F 01 00                                 .H....          
```

#### Opcodes

```
  0: 0x0627 [0x5B] LOAD_EXT_SCHEDULER: Load scheduler "sur0" with entities [Ajido-Marujido (ID: 17162758/0x0105E206), Ajido-Marujido (ID: 17162758/0x0105E206)], work=85*
  1: 0x0636 [0x53] WAIT_SCHEDULER_TASK: Wait for scheduler "sur0" with entities [Ajido-Marujido (ID: 17162758/0x0105E206), Ajido-Marujido (ID: 17162758/0x0105E206)]
  2: 0x0643 [0x59] UPDATE_ENTITY_DATA: Set EventEntity main speed = 35* * 0.1
  3: 0x064B [0x1F] MOVE_ENTITY: EventEntity moves to X=-1.006*, Z=16.226*, Y=-0.999*
  4: 0x0653 [0x1F] MOVE_ENTITY: Update entity position (mode=1)
  5: 0x0655 [0x00] END_REQSTACK()
```

### Event 65535.30

#### Metadata

| Field        | Value    |
|--------------|----------|
| Entrypoint   | 0x0656   |
| Data Size    | 21 bytes |
| Instructions | 3        |

```
      00 01 02 03 04 05 06 07  08 09 0A 0B 0C 0D 0E 0F
      -- -- -- -- -- -- -- --  -- -- -- -- -- -- -- --
0650:                   1C 89  80 45 8A 80 F0 FF FF 7F        ...E......
0660: F0 FF FF 7F 62 6C 6F 6E  00 80 00                 ....blon...     
```

#### Opcodes

```
  0: 0x0656 [0x1C] WAIT(75* ticks)
  1: 0x0659 [0x45] LOAD_SCHEDULED_TASK: Load scheduler "blon" with entities [LocalPlayer, LocalPlayer], work=[201*, 0*]
  2: 0x066A [0x00] END_REQSTACK()
```

### Event 65535.31

#### Metadata

| Field        | Value     |
|--------------|-----------|
| Entrypoint   | 0x066B    |
| Data Size    | 161 bytes |
| Instructions | 17        |

```
      00 01 02 03 04 05 06 07  08 09 0A 0B 0C 0D 0E 0F
      -- -- -- -- -- -- -- --  -- -- -- -- -- -- -- --
0660:                                   59 04 F8 FF FF             Y....
0670: 7F 86 80 1F 00 8B 80 8C  80 0C 80 1F 01 6F BA F0  .............o..
0680: FF FF 7F 8D 80 8E 80 48  80 8F 80 1C 77 80 5B 90  .......H....w.[.
0690: 80 06 E2 05 01 06 E2 05  01 61 75 70 30 53 06 E2  .........aup0S..
06A0: 05 01 06 E2 05 01 61 75  70 30 50 06 E2 05 01 06  ......aup0P.....
06B0: E2 05 01 61 75 70 30 5B  91 80 43 E2 05 01 43 E2  ...aup0[..C...C.
06C0: 05 01 6A 74 30 30 5B 92  80 06 E2 05 01 06 E2 05  ..jt00[.........
06D0: 01 6A 74 30 30 55 93 80  F0 FF FF 7F F0 FF FF 7F  .jt00U..........
06E0: 79 31 32 31 27 10 43 E2  05 01 03 BA 06 E2 05 01  y121'.C.........
06F0: 8B 80 8C 80 0C 80 94 80  4A FF E1 05 01 06 E2 05  ........J.......
0700: 01 79 00 FF E1 05 01 06  E2 05 01 00              .y..........    
```

#### Opcodes

```
  0: 0x066B [0x59] UPDATE_ENTITY_DATA: Set EventEntity main speed = 35* * 0.1
  1: 0x0673 [0x1F] MOVE_ENTITY: EventEntity moves to X=-1.058*, Z=17.433*, Y=-1.000*
  2: 0x067B [0x1F] MOVE_ENTITY: Update entity position (mode=1)
  3: 0x067D [0x6F] WAIT_FRAME_DELAY: Yield until WaitTime reaches zero
  4: 0x067E [0xBA] SET_ENTITY_POSITION(entity_id=LocalPlayer, pos_x=1.032*, pos_z=15.680*, pos_y=-0.999*, direction=220.0°*)
  5: 0x068B [0x1C] WAIT(5* ticks)
  6: 0x068E [0x5B] LOAD_EXT_SCHEDULER: Load scheduler "aup0" with entities [Ajido-Marujido (ID: 17162758/0x0105E206), Ajido-Marujido (ID: 17162758/0x0105E206)], work=1286*
  7: 0x069D [0x53] WAIT_SCHEDULER_TASK: Wait for scheduler "aup0" with entities [Ajido-Marujido (ID: 17162758/0x0105E206), Ajido-Marujido (ID: 17162758/0x0105E206)]
  8: 0x06AA [0x50] END_SCHEDULER_TASK: End scheduler "au" with entities [0xE206, 0xE206], work=[261, 261]
  9: 0x06B7 [0x5B] LOAD_EXT_SCHEDULER: Load scheduler "jt00" with entities [01 (ID: 17162819/0x0105E243), 01 (ID: 17162819/0x0105E243)], work=181*
 10: 0x06C6 [0x5B] LOAD_EXT_SCHEDULER: Load scheduler "jt00" with entities [Ajido-Marujido (ID: 17162758/0x0105E206), Ajido-Marujido (ID: 17162758/0x0105E206)], work=86*
 11: 0x06D5 [0x55] WAIT_LOAD_SCHEDULER: Wait for scheduler "y121" with entities [LocalPlayer, LocalPlayer], work=393*
 12: 0x06E4 [0x27] REQ_SET(priority=0x10, entity_id=01 (ID: 17162819/0x0105E243), tag_num=0x03)
 13: 0x06EB [0xBA] SET_ENTITY_POSITION(entity_id=Ajido-Marujido (ID: 17162758/0x0105E206), pos_x=-1.058*, pos_z=17.433*, pos_y=-1.000*, direction=266.2°*)
 14: 0x06F8 [0x4A] Dhea Prandoleh (ID: 17162751/0x0105E1FF) looks at Ajido-Marujido (ID: 17162758/0x0105E206)
 15: 0x0701 [0x79] Dhea Prandoleh (ID: 17162751/0x0105E1FF) looks at Ajido-Marujido (ID: 17162758/0x0105E206) (Basic look)
 16: 0x070B [0x00] END_REQSTACK()
```

### Event 65535.32

#### Metadata

| Field        | Value    |
|--------------|----------|
| Entrypoint   | 0x070C   |
| Data Size    | 20 bytes |
| Instructions | 5        |

```
      00 01 02 03 04 05 06 07  08 09 0A 0B 0C 0D 0E 0F
      -- -- -- -- -- -- -- --  -- -- -- -- -- -- -- --
0700:                                      59 04 F8 FF              Y...
0710: FF 7F 95 80 1F 00 96 80  97 80 98 80 1F 01 6F 00  ..............o.
```

#### Opcodes

```
  0: 0x070C [0x59] UPDATE_ENTITY_DATA: Set EventEntity main speed = 36* * 0.1
  1: 0x0714 [0x1F] MOVE_ENTITY: EventEntity moves to X=-7.685*, Z=7.819*, Y=-1.026*
  2: 0x071C [0x1F] MOVE_ENTITY: Update entity position (mode=1)
  3: 0x071E [0x6F] WAIT_FRAME_DELAY: Yield until WaitTime reaches zero
  4: 0x071F [0x00] END_REQSTACK()
```

### Event 20

#### Metadata

| Field        | Value   |
|--------------|---------|
| Entrypoint   | 0x0720  |
| Data Size    | 1 bytes |
| Instructions | 1       |

```
      00 01 02 03 04 05 06 07  08 09 0A 0B 0C 0D 0E 0F
      -- -- -- -- -- -- -- --  -- -- -- -- -- -- -- --
0720: 00                                                .               
```

#### Opcodes

```
  0: 0x0720 [0x00] END_REQSTACK()
```

### Event 23

#### Metadata

| Field        | Value   |
|--------------|---------|
| Entrypoint   | 0x0721  |
| Data Size    | 1 bytes |
| Instructions | 1       |

```
      00 01 02 03 04 05 06 07  08 09 0A 0B 0C 0D 0E 0F
      -- -- -- -- -- -- -- --  -- -- -- -- -- -- -- --
0720:    00                                              .              
```

#### Opcodes

```
  0: 0x0721 [0x00] END_REQSTACK()
```
